{
  "hash": "0x88ce88e2fcc20aa5200495d7e9820b0b113ea2378a375b9bc1262831fadcddef",
  "parentHash": "0x95f08f2e3102bf9e910c6c6f0a48d6d0d78b320aa6811802833715dee63a9f98",
  "number": 82183,
  "timestamp": 1439514922,
  "nonce": "0x5c4661d595c2330e",
  "difficulty": 2391658744952,
  "gasLimit": {
    "_hex": "0x2fefd8"
  },
  "gasUsed": {
    "_hex": "0xf618"
  },
  "miner": "0xe6A7a1d47ff21B6321162AEA7C6CB457D5476Bca",
  "extraData": "0x476574682f76312e302e312d38326566323666362f6c696e75782f676f312e34",
  "transactions": [
    {
      "hash": "0xbf189abe39ff4747db251429396ba6d772061a7c530ba40a8f3ceb25574a3173",
      "blockHash": "0x88ce88e2fcc20aa5200495d7e9820b0b113ea2378a375b9bc1262831fadcddef",
      "blockNumber": 82183,
      "transactionIndex": 0,
      "confirmations": null,
      "from": "0x2fd8Ad8C541bc201DD24a3C7b60FCBBB6429A4E2",
      "gasPrice": {
        "_hex": "0xba43b7400"
      },
      "gasLimit": {
        "_hex": "0x5208"
      },
      "to": "0xC47Aaa860008be6f65B58c6C6E02a84e666EfE31",
      "value": {
        "_hex": "0xd1e63b4ce318dc0"
      },
      "nonce": 0,
      "data": "0x",
      "r": "0x977d0f4fbbab965a09b7d2290ab7151c13251473664f453f3d589de343ccee13",
      "s": "0x5a8919571b6580b08feb0b4511d613a2973ccaf5408873a08485ab2e9c608f27",
      "v": 27,
      "creates": null,
      "raw": "0xf86c80850ba43b740082520894c47aaa860008be6f65b58c6c6e02a84e666efe31880d1e63b4ce318dc0801ba0977d0f4fbbab965a09b7d2290ab7151c13251473664f453f3d589de343ccee13a05a8919571b6580b08feb0b4511d613a2973ccaf5408873a08485ab2e9c608f27",
      "networkId": 0,
      "chainId": 0
    },
    {
      "hash": "0x6068d158256b93c6297396a0e0413869501298f5cdbfe1c1c7ac6991288b4e05",
      "blockHash": "0x88ce88e2fcc20aa5200495d7e9820b0b113ea2378a375b9bc1262831fadcddef",
      "blockNumber": 82183,
      "transactionIndex": 1,
      "confirmations": null,
      "from": "0xE652BB86f049541e438AF3b8bCafdA935C686691",
      "gasPrice": {
        "_hex": "0xba43b7400"
      },
      "gasLimit": {
        "_hex": "0x5208"
      },
      "to": "0xC47Aaa860008be6f65B58c6C6E02a84e666EfE31",
      "value": {
        "_hex": "0x566519694f2a2000"
      },
      "nonce": 0,
      "data": "0x",
      "r": "0x095420a8ae3f0a74b0e962d47332c163e2d5e652274345cdf720be803f03b5bb",
      "s": "0x7b44deb78e0bca78547eb1accb0cae940c4621bd62f6ab5d948d6941e31f0e04",
      "v": 27,
      "creates": null,
      "raw": "0xf86c80850ba43b740082520894c47aaa860008be6f65b58c6c6e02a84e666efe3188566519694f2a2000801ba0095420a8ae3f0a74b0e962d47332c163e2d5e652274345cdf720be803f03b5bba07b44deb78e0bca78547eb1accb0cae940c4621bd62f6ab5d948d6941e31f0e04",
      "networkId": 0,
      "chainId": 0
    },
    {
      "hash": "0xc435265e92f05778a66c231a8a32e565e686aebc5f4626e638e6287ce26a7ba2",
      "blockHash": "0x88ce88e2fcc20aa5200495d7e9820b0b113ea2378a375b9bc1262831fadcddef",
      "blockNumber": 82183,
      "transactionIndex": 2,
      "confirmations": null,
      "from": "0x76899c112A85c5a7d27Ff89f1b97112e900aeEBc",
      "gasPrice": {
        "_hex": "0xba43b7400"
      },
      "gasLimit": {
        "_hex": "0x5208"
      },
      "to": "0xC47Aaa860008be6f65B58c6C6E02a84e666EfE31",
      "value": {
        "_hex": "0x35f8536ba3321dc0"
      },
      "nonce": 3,
      "data": "0x",
      "r": "0xe527ff60ce5ac2f003695061292a0a89f9e2e2bbda4439b70a1bc6bbb4d8b7ec",
      "s": "0x1bc1492412bc586395a7eca4dbe1b8504f8e8c43a1cfa7c36f5cbba6c9b6ad4a",
      "v": 27,
      "creates": null,
      "raw": "0xf86c03850ba43b740082520894c47aaa860008be6f65b58c6c6e02a84e666efe318835f8536ba3321dc0801ba0e527ff60ce5ac2f003695061292a0a89f9e2e2bbda4439b70a1bc6bbb4d8b7eca01bc1492412bc586395a7eca4dbe1b8504f8e8c43a1cfa7c36f5cbba6c9b6ad4a",
      "networkId": 0,
      "chainId": 0
    }
  ]
}