{
  "hash": "0xe7a42e24fa208a5739757a36629b481145aa48e1c0cc9f02ab437a3f23764500",
  "parentHash": "0x9d47c3a88f7c20aec23ff0a07ecf8065d2d91e087149ed4f4567ec2b1342889c",
  "number": 102476,
  "timestamp": 1439838634,
  "nonce": "0x7e4e61a2b303c884",
  "difficulty": 3954836182867,
  "gasLimit": {
    "_hex": "0x2fefd8"
  },
  "gasUsed": {
    "_hex": "0x5208"
  },
  "miner": "0x6541237dAaFf6688A79f9F2F370Ca0E7Ee20BD33",
  "extraData": "0x476574682f76312e302e312f77696e646f77732f676f312e342e32",
  "transactions": [
    {
      "hash": "0x8c0180162d68ba4c8eb5e26aef79b1c0eb37c46bca9892d8345b6073444f6d20",
      "blockHash": "0xe7a42e24fa208a5739757a36629b481145aa48e1c0cc9f02ab437a3f23764500",
      "blockNumber": 102476,
      "transactionIndex": 0,
      "confirmations": null,
      "from": "0x72e3Ea8234b449531A581F05f1c1E07cceb559d2",
      "gasPrice": {
        "_hex": "0xbdfd63e00"
      },
      "gasLimit": {
        "_hex": "0x5208"
      },
      "to": "0xF3dAfDc5dB2CECa8660F4b7f1D8c616716374793",
      "value": {
        "_hex": "0x19352bdc530ca40000"
      },
      "nonce": 4,
      "data": "0x",
      "r": "0x87b69a537d12303ce3405c9b055e81b8154c6657b6c48694e72da167a79ed8a4",
      "s": "0x6c7d472d3eed5904869221b5c1546a153d2928dc9bc3981ee4ca8570ce36a941",
      "v": 27,
      "creates": null,
      "raw": "0xf86d04850bdfd63e0082520894f3dafdc5db2ceca8660f4b7f1d8c6167163747938919352bdc530ca40000801ba087b69a537d12303ce3405c9b055e81b8154c6657b6c48694e72da167a79ed8a4a06c7d472d3eed5904869221b5c1546a153d2928dc9bc3981ee4ca8570ce36a941",
      "networkId": 0,
      "chainId": 0
    }
  ]
}