{
  "hash": "0xc6cdfebe212376f0a5e4df48cf0caef4401b741377e376840292ac8f8f5ce3f5",
  "parentHash": "0x860a84846c4fa871df8b9efd7264ea8663cdde9182c3d81dbbc0b54c793f9fb8",
  "number": 51275,
  "timestamp": 1439002253,
  "nonce": "0x57c5d2532c05c99b",
  "difficulty": 1569672440355,
  "gasLimit": {
    "_hex": "0xa0a3b"
  },
  "gasUsed": {
    "_hex": "0x14ce8"
  },
  "miner": "0x5B3e850E39e6f2C7dD38707b649e2B3536F14C0b",
  "extraData": "0x476574682f76312e302e312f64617277696e2f676f312e342e32",
  "transactions": [
    {
      "hash": "0x80119a28c67ba19cdf389e2ed0749eea56756fe4d9b706ab98e645099db069af",
      "blockHash": "0xc6cdfebe212376f0a5e4df48cf0caef4401b741377e376840292ac8f8f5ce3f5",
      "blockNumber": 51275,
      "transactionIndex": 0,
      "confirmations": null,
      "from": "0xA4489A50EAD5d5445A7bEe4D2d5536C2a76c41f8",
      "gasPrice": {
        "_hex": "0x10dc90d85e7"
      },
      "gasLimit": {
        "_hex": "0x15f90"
      },
      "to": "0x2910543Af39abA0Cd09dBb2D50200b3E800A63D2",
      "value": {
        "_hex": "0x1dec89f360efa0000"
      },
      "nonce": 1,
      "data": "0x454e34584a41304d30",
      "r": "0x1b78217face6a0880bf38915855f109a636aadb6de374e4259e109633f27d1e5",
      "s": "0x54c0c5234c11892a15229e0fe0368e9a5224946b9f19631f5a9dbbc67d26dc2a",
      "v": 28,
      "creates": null,
      "raw": "0xf8780186010dc90d85e783015f90942910543af39aba0cd09dbb2d50200b3e800a63d28901dec89f360efa000089454e34584a41304d301ca01b78217face6a0880bf38915855f109a636aadb6de374e4259e109633f27d1e5a054c0c5234c11892a15229e0fe0368e9a5224946b9f19631f5a9dbbc67d26dc2a",
      "networkId": 0,
      "chainId": 0
    },
    {
      "hash": "0xa44fa24d1d69103a77570c17159ee896aadc52cdca1801ab554796430f4197a0",
      "blockHash": "0xc6cdfebe212376f0a5e4df48cf0caef4401b741377e376840292ac8f8f5ce3f5",
      "blockNumber": 51275,
      "transactionIndex": 1,
      "confirmations": null,
      "from": "0x53396F4a26c2B4604496306c5442e7fcBA272E36",
      "gasPrice": {
        "_hex": "0xd8a332230"
      },
      "gasLimit": {
        "_hex": "0x15f90"
      },
      "to": "0x2910543Af39abA0Cd09dBb2D50200b3E800A63D2",
      "value": {
        "_hex": "0x3635c9adc5dea00000"
      },
      "nonce": 1,
      "data": "0x454e34423433305738",
      "r": "0x560ff2b3589bcab2158eeee7c2c07688c6612e6c696dae6a0ba170a279042a4a",
      "s": "0x600df679797cc08a46625d1075b123cad5998120c917f3f01761e95b323a28e1",
      "v": 28,
      "creates": null,
      "raw": "0xf87701850d8a33223083015f90942910543af39aba0cd09dbb2d50200b3e800a63d2893635c9adc5dea0000089454e344234333057381ca0560ff2b3589bcab2158eeee7c2c07688c6612e6c696dae6a0ba170a279042a4aa0600df679797cc08a46625d1075b123cad5998120c917f3f01761e95b323a28e1",
      "networkId": 0,
      "chainId": 0
    },
    {
      "hash": "0xde4677e914282925cf2d444520e475c0e7b5334736331a4d5b3fddeecd2d3d61",
      "blockHash": "0xc6cdfebe212376f0a5e4df48cf0caef4401b741377e376840292ac8f8f5ce3f5",
      "blockNumber": 51275,
      "transactionIndex": 2,
      "confirmations": null,
      "from": "0xC555B93156F09101233c6f7CF6eB3c4F196D3346",
      "gasPrice": {
        "_hex": "0xd2d785917"
      },
      "gasLimit": {
        "_hex": "0x15f90"
      },
      "to": "0x36DeE907a4DA9858CE11CDDd63FAAF89EF610d71",
      "value": {
        "_hex": "0x1b1ae4d6e2ef500000"
      },
      "nonce": 6,
      "data": "0x",
      "r": "0x3a9694827531a0edf2db07ab9a3b3412708624d534e3b38ba91b24c047ef448c",
      "s": "0x5acc8306de7d2f5445c1bed45a87a8151e769bfef030a79892756bb76bded7e3",
      "v": 27,
      "creates": null,
      "raw": "0xf86e06850d2d78591783015f909436dee907a4da9858ce11cddd63faaf89ef610d71891b1ae4d6e2ef500000801ba03a9694827531a0edf2db07ab9a3b3412708624d534e3b38ba91b24c047ef448ca05acc8306de7d2f5445c1bed45a87a8151e769bfef030a79892756bb76bded7e3",
      "networkId": 0,
      "chainId": 0
    },
    {
      "hash": "0xc92aca3bbfab2ed6948de885355335de26b0fd03df7dfad208e333207f3e8ce8",
      "blockHash": "0xc6cdfebe212376f0a5e4df48cf0caef4401b741377e376840292ac8f8f5ce3f5",
      "blockNumber": 51275,
      "transactionIndex": 3,
      "confirmations": null,
      "from": "0x36DeE907a4DA9858CE11CDDd63FAAF89EF610d71",
      "gasPrice": {
        "_hex": "0xcb7afbc1a"
      },
      "gasLimit": {
        "_hex": "0x5208"
      },
      "to": "0x32Be343B94f860124dC4fEe278FDCBD38C102D88",
      "value": {
        "_hex": "0x3635c59a897ad60000"
      },
      "nonce": 1,
      "data": "0x",
      "r": "0xd360c8f35f853649853dbb9e737c928d02fa184ae50e8a2c0f9ae333be2219a0",
      "s": "0x7953104308c8ccf5485feca6f0651e555577f3737b18b3c317a07857db29c9bd",
      "v": 28,
      "creates": null,
      "raw": "0xf86d01850cb7afbc1a8252089432be343b94f860124dc4fee278fdcbd38c102d88893635c59a897ad60000801ca0d360c8f35f853649853dbb9e737c928d02fa184ae50e8a2c0f9ae333be2219a0a07953104308c8ccf5485feca6f0651e555577f3737b18b3c317a07857db29c9bd",
      "networkId": 0,
      "chainId": 0
    }
  ]
}