{
  "hash": "0x2fb25f17cd863ac618fbdb8a1390147d4fc2fb9e8b64b08a179a68604c99d928",
  "parentHash": "0x8a03d27e3c788a65e6993c235521758df6bd10ef12585f111198a3946fe3eb00",
  "number": 97767,
  "timestamp": 1439761385,
  "nonce": "0xe3cc99ac894be947",
  "difficulty": 3840933277555,
  "gasLimit": {
    "_hex": "0x2fefd8"
  },
  "gasUsed": {
    "_hex": "0x5208"
  },
  "miner": "0x790b8a3cE86E707ED0eD32bF89B3269692a23CC1",
  "extraData": "0xd783010001844765746887676f312e342e32856c696e7578",
  "transactions": [
    {
      "hash": "0x26b6bdc391ca04dae4cedc2258dd55a60b0d78bcc22362ef1d76c767ba70aa95",
      "blockHash": "0x2fb25f17cd863ac618fbdb8a1390147d4fc2fb9e8b64b08a179a68604c99d928",
      "blockNumber": 97767,
      "transactionIndex": 0,
      "confirmations": null,
      "from": "0xb62A0BF317fceb39ed916f0F9E60e623Ad309127",
      "gasPrice": {
        "_hex": "0xcd2513b00"
      },
      "gasLimit": {
        "_hex": "0x15f90"
      },
      "to": "0x72d784E8bfd03b8f9981c2de6C84C1F4b4e49613",
      "value": {
        "_hex": "0xde0b6b3a7640000"
      },
      "nonce": 0,
      "data": "0x",
      "r": "0x090c9b5e5272fa66a0f8539134f4248cd6cb9f935fbab71d2a3e7fa007aefd4e",
      "s": "0x23b60d18ae03a257dab4b92279313dd6074b5af6923a4c5e16e057549e4432c0",
      "v": 27,
      "creates": null,
      "raw": "0xf86d80850cd2513b0083015f909472d784e8bfd03b8f9981c2de6c84c1f4b4e49613880de0b6b3a7640000801ba0090c9b5e5272fa66a0f8539134f4248cd6cb9f935fbab71d2a3e7fa007aefd4ea023b60d18ae03a257dab4b92279313dd6074b5af6923a4c5e16e057549e4432c0",
      "networkId": 0,
      "chainId": 0
    }
  ]
}