{
  "hash": "0x6dbeaccaf025a2461cc6fa6ea0683cc6d5a4c7e1445b6d5d7a03f750f8e117e1",
  "parentHash": "0x10ed856895ead83ab591ac974ce5e17ae2c83d38cd7b46b7e40a063e23dbd957",
  "number": 64734,
  "timestamp": 1439225516,
  "nonce": "0x9452394eadc30d40",
  "difficulty": 1887583979869,
  "gasLimit": {
    "_hex": "0x2fefd8"
  },
  "gasUsed": {
    "_hex": "0x5208"
  },
  "miner": "0x88D74a59454F6cF3B51ef6b9136AFb6b9D405A88",
  "extraData": "0x476574682f76312e302e312d37666266393930632f6c696e75782f676f312e34",
  "transactions": [
    {
      "hash": "0xc11a15c560d31b03b4f3db5c8576b812c7105e3334812b7c7000bf0168e46de8",
      "blockHash": "0x6dbeaccaf025a2461cc6fa6ea0683cc6d5a4c7e1445b6d5d7a03f750f8e117e1",
      "blockNumber": 64734,
      "transactionIndex": 0,
      "confirmations": null,
      "from": "0x92107cEf488c90F2C2B3f103c1a2F50E41e45051",
      "gasPrice": {
        "_hex": "0xba43b7400"
      },
      "gasLimit": {
        "_hex": "0x5208"
      },
      "to": "0x663Aa88FB3d115E8743f88d6d645d322EF722422",
      "value": {
        "_hex": "0x36ef271c4dd000"
      },
      "nonce": 1,
      "data": "0x",
      "r": "0xb62f13742917b687fafb80706b4f9109a5479a651e829d26b21716c9d12abc71",
      "s": "0x1b42013aad917644f9078ef92f1e568cc588c1529c6279ff73842c7700416671",
      "v": 27,
      "creates": null,
      "raw": "0xf86b01850ba43b740082520894663aa88fb3d115e8743f88d6d645d322ef7224228736ef271c4dd000801ba0b62f13742917b687fafb80706b4f9109a5479a651e829d26b21716c9d12abc71a01b42013aad917644f9078ef92f1e568cc588c1529c6279ff73842c7700416671",
      "networkId": 0,
      "chainId": 0
    }
  ]
}