{
  "hash": "0x75a394091303bb6352f9317577981f7634b67a7449226535e2905a5985f80e6e",
  "parentHash": "0x2c52a083e285910cd43ebe65683337096609a5dd2ae97ea53938eb2d2fb9cdb5",
  "number": 68309,
  "timestamp": 1439285818,
  "nonce": "0x318b4f807b369259",
  "difficulty": 2005526623968,
  "gasLimit": {
    "_hex": "0x2fefd8"
  },
  "gasUsed": {
    "_hex": "0x546c"
  },
  "miner": "0xeB1325C8D9d3ea8D74aC11F4B00F1B2367686319",
  "extraData": "0x476574682f76312e302e312f77696e646f77732f676f312e342e32",
  "transactions": [
    {
      "hash": "0x72102490e1915c515681f84822c97b1c744e95659c61831ed890dd24f571d2a5",
      "blockHash": "0x75a394091303bb6352f9317577981f7634b67a7449226535e2905a5985f80e6e",
      "blockNumber": 68309,
      "transactionIndex": 0,
      "confirmations": null,
      "from": "0x8F68fbE2DCFf038C24F650C9e05Ee478038171cd",
      "gasPrice": {
        "_hex": "0xd1aa1d7a7"
      },
      "gasLimit": {
        "_hex": "0x55f0"
      },
      "to": "0x2910543Af39abA0Cd09dBb2D50200b3E800A63D2",
      "value": {
        "_hex": "0x3635c9adc5dea00000"
      },
      "nonce": 6,
      "data": "0x454e36383358334d30",
      "r": "0xb7491182d2046abeff6f77ee05a9f54433d11474f58384b78330d7eb931ecc75",
      "s": "0x289d763d543ac3bd65683e479599d1fad5e8d2a3be4612935f8761a2f43ba197",
      "v": 28,
      "creates": null,
      "raw": "0xf87606850d1aa1d7a78255f0942910543af39aba0cd09dbb2d50200b3e800a63d2893635c9adc5dea0000089454e36383358334d301ca0b7491182d2046abeff6f77ee05a9f54433d11474f58384b78330d7eb931ecc75a0289d763d543ac3bd65683e479599d1fad5e8d2a3be4612935f8761a2f43ba197",
      "networkId": 0,
      "chainId": 0
    }
  ]
}