{
  "hash": "0x3113ded1afd1628441e68097aa0410115a48773a574818432bcbe3326920a8aa",
  "parentHash": "0xa10b65803aa1d479a6fff98bdaadef3b4fa2fc018eb5cb813bbc2bf96a4aa278",
  "number": 114639,
  "timestamp": 1440043776,
  "nonce": "0xa133484595264ae2",
  "difficulty": 4499023356921,
  "gasLimit": {
    "_hex": "0x2fefd8"
  },
  "gasUsed": {
    "_hex": "0xdbf6"
  },
  "miner": "0xe6A7a1d47ff21B6321162AEA7C6CB457D5476Bca",
  "extraData": "0x476574682f76312e302e312d38326566323666362f6c696e75782f676f312e34",
  "transactions": [
    {
      "hash": "0x3ea32aafdd4a10c1d55ac65baf88477fbb9737c8fb514460a08f1c402bbb2dac",
      "blockHash": "0x3113ded1afd1628441e68097aa0410115a48773a574818432bcbe3326920a8aa",
      "blockNumber": 114639,
      "transactionIndex": 0,
      "confirmations": null,
      "from": "0xcD063B3081Ea55535E5b60a21eff7f14E785A877",
      "gasPrice": {
        "_hex": "0xd6e62afa6"
      },
      "gasLimit": {
        "_hex": "0x1e8480"
      },
      "to": "0x3edDc7ebC7db94f54b72D8Ed1F42cE6A527305bB",
      "value": {
        "_hex": "0x0"
      },
      "nonce": 11,
      "data": "0x90b98a110000000000000000000000003eddc7ebc7db94f54b72d8ed1f42ce6a527305bb0000000000000000000000000000000000000000000000000000000000000014",
      "r": "0xbeedb3afb7beefeee3707200ff7660dc9d4c260ee4b872fef2a4f6b66f141f6e",
      "s": "0x3ddb74f8074310a97fa925d86890142bf8052c30cada48cd8ca1e0367f54df13",
      "v": 27,
      "creates": null,
      "raw": "0xf8aa0b850d6e62afa6831e8480943eddc7ebc7db94f54b72d8ed1f42ce6a527305bb80b84490b98a110000000000000000000000003eddc7ebc7db94f54b72d8ed1f42ce6a527305bb00000000000000000000000000000000000000000000000000000000000000141ba0beedb3afb7beefeee3707200ff7660dc9d4c260ee4b872fef2a4f6b66f141f6ea03ddb74f8074310a97fa925d86890142bf8052c30cada48cd8ca1e0367f54df13",
      "networkId": 0,
      "chainId": 0
    },
    {
      "hash": "0x5e0d8b0450a28be5c49262848577ebf32d4816b00358d96a35d024294dcb24a6",
      "blockHash": "0x3113ded1afd1628441e68097aa0410115a48773a574818432bcbe3326920a8aa",
      "blockNumber": 114639,
      "transactionIndex": 1,
      "confirmations": null,
      "from": "0xcF2288ef4Ebf88e86dB13D8A0E0Bf52a056582c3",
      "gasPrice": {
        "_hex": "0xcd7fe057e"
      },
      "gasLimit": {
        "_hex": "0x15f90"
      },
      "to": "0xb2e9D76bf50Fc36bf7d3944b63e9Ca889b699968",
      "value": {
        "_hex": "0x1bbf34f827cbf0000"
      },
      "nonce": 2,
      "data": "0x",
      "r": "0xba9df1f40a66a08930337d0652af7dc5386552ac347363b1c03e298100f3b029",
      "s": "0x101b706710e6b7465c5d4da5cfa7b2487b3a8a634cd66b49dd43772c4e6ed680",
      "v": 28,
      "creates": null,
      "raw": "0xf86e02850cd7fe057e83015f9094b2e9d76bf50fc36bf7d3944b63e9ca889b6999688901bbf34f827cbf0000801ca0ba9df1f40a66a08930337d0652af7dc5386552ac347363b1c03e298100f3b029a0101b706710e6b7465c5d4da5cfa7b2487b3a8a634cd66b49dd43772c4e6ed680",
      "networkId": 0,
      "chainId": 0
    }
  ]
}