{
  "hash": "0xef902cec398dd907ff4a46783ba2f6794d4c5e45ad8c5be8470440066d4c8116",
  "parentHash": "0x308be7c08bdda16234776ce17255f1e9504b5d0bc7fdd542865cd09c237395e4",
  "number": 74282,
  "timestamp": 1439383612,
  "nonce": "0xe43b8437bf0fc8a5",
  "difficulty": 2206452579669,
  "gasLimit": {
    "_hex": "0x2fefd8"
  },
  "gasUsed": {
    "_hex": "0xa410"
  },
  "miner": "0xf8E0CA3Ed80bd541b94BEdCf259e8CF2141A9523",
  "extraData": "0x476574682f76312e302e312f77696e646f77732f676f312e342e32",
  "transactions": [
    {
      "hash": "0xd3660cce470da09624a55d1aa73915d34f24b84c21b476e689403431b02f2dbb",
      "blockHash": "0xef902cec398dd907ff4a46783ba2f6794d4c5e45ad8c5be8470440066d4c8116",
      "blockNumber": 74282,
      "transactionIndex": 0,
      "confirmations": null,
      "from": "0x94b20d3d932AA82aD71b86b904A3D769689351b4",
      "gasPrice": {
        "_hex": "0xd60f94231"
      },
      "gasLimit": {
        "_hex": "0x5208"
      },
      "to": "0x32Be343B94f860124dC4fEe278FDCBD38C102D88",
      "value": {
        "_hex": "0xc31de430ced23000"
      },
      "nonce": 0,
      "data": "0x",
      "r": "0x0200b77c7877ecc790f231e8e516671dbcc9aca9dd09b413c8a2c5d3a6693521",
      "s": "0x4f58c8d0d5e84c46eb088654dce1b5cb473764ede354a60bf5bd78997736e018",
      "v": 28,
      "creates": null,
      "raw": "0xf86c80850d60f942318252089432be343b94f860124dc4fee278fdcbd38c102d8888c31de430ced23000801ca00200b77c7877ecc790f231e8e516671dbcc9aca9dd09b413c8a2c5d3a6693521a04f58c8d0d5e84c46eb088654dce1b5cb473764ede354a60bf5bd78997736e018",
      "networkId": 0,
      "chainId": 0
    },
    {
      "hash": "0x4c6fda584c861b9cca67bc0dcb81be34efdf963bdcf857d4c6b510c75526ac60",
      "blockHash": "0xef902cec398dd907ff4a46783ba2f6794d4c5e45ad8c5be8470440066d4c8116",
      "blockNumber": 74282,
      "transactionIndex": 1,
      "confirmations": null,
      "from": "0x022A006FcC619ebf387F413eF06932bAbd47AE0E",
      "gasPrice": {
        "_hex": "0xd60f94231"
      },
      "gasLimit": {
        "_hex": "0x5208"
      },
      "to": "0x32Be343B94f860124dC4fEe278FDCBD38C102D88",
      "value": {
        "_hex": "0x6ce1cba61301a800"
      },
      "nonce": 0,
      "data": "0x",
      "r": "0x9a20798e15d7b71ea4676c2e79d03e699017db0a8fa7c56cbbc70446968cda1f",
      "s": "0x6f0016592efbd098dc0b63e1b2548e45dd152cb1652b4c0ea1678735d5c16fa7",
      "v": 27,
      "creates": null,
      "raw": "0xf86c80850d60f942318252089432be343b94f860124dc4fee278fdcbd38c102d88886ce1cba61301a800801ba09a20798e15d7b71ea4676c2e79d03e699017db0a8fa7c56cbbc70446968cda1fa06f0016592efbd098dc0b63e1b2548e45dd152cb1652b4c0ea1678735d5c16fa7",
      "networkId": 0,
      "chainId": 0
    }
  ]
}