{
  "hash": "0xac8a4e459138b1c0ac17f8d8788824dc2fad2f2a09451f4883cea46974f6e54a",
  "parentHash": "0x0df739792e8217c55d59dee630dca46fedb6af99e30520e96cc3b55f61b6a3ae",
  "number": 118898,
  "timestamp": 1440133256,
  "nonce": "0x9ee664b9d346ae6e",
  "difficulty": 4399012003317,
  "gasLimit": {
    "_hex": "0x2fefd8"
  },
  "gasUsed": {
    "_hex": "0x5208"
  },
  "miner": "0xe6A7a1d47ff21B6321162AEA7C6CB457D5476Bca",
  "extraData": "0xd783010002844765746887676f312e342e32856c696e7578",
  "transactions": [
    {
      "hash": "0xee1f63b3f354cfe63ad07e0cc34ab29d83c47980a6b1207b26b76b18697c4cc1",
      "blockHash": "0xac8a4e459138b1c0ac17f8d8788824dc2fad2f2a09451f4883cea46974f6e54a",
      "blockNumber": 118898,
      "transactionIndex": 0,
      "confirmations": null,
      "from": "0xE8009c3376fDA2ecA359d5bf683ee5C4D877cde5",
      "gasPrice": {
        "_hex": "0xba43b7400"
      },
      "gasLimit": {
        "_hex": "0x5208"
      },
      "to": "0x32Be343B94f860124dC4fEe278FDCBD38C102D88",
      "value": {
        "_hex": "0x56c3e035f0e7ec000"
      },
      "nonce": 1,
      "data": "0x",
      "r": "0x3ce6263f4dd9f5fe6ad8329308a18d1fc5fe62b4f4f400ea070f7a62854b5f44",
      "s": "0x5aa1cc2e2a71829e133a178d4b0538c44646d33ee5b8224a739aad8d5f4680d0",
      "v": 28,
      "creates": null,
      "raw": "0xf86d01850ba43b74008252089432be343b94f860124dc4fee278fdcbd38c102d8889056c3e035f0e7ec000801ca03ce6263f4dd9f5fe6ad8329308a18d1fc5fe62b4f4f400ea070f7a62854b5f44a05aa1cc2e2a71829e133a178d4b0538c44646d33ee5b8224a739aad8d5f4680d0",
      "networkId": 0,
      "chainId": 0
    }
  ]
}