{
  "hash": "0xf1a7025a62d23914651f6cfcfa38bd5bb5af37326c207a6800f255589953697d",
  "parentHash": "0x0b8e4234fdfbe4260f5e19f14d0f3c1b451a92ee91b17df5a5e79a3b28bea23f",
  "number": 93454,
  "timestamp": 1439690610,
  "nonce": "0xeebc83dd0f4f97ff",
  "difficulty": 3510988035386,
  "gasLimit": {
    "_hex": "0x2fefd8"
  },
  "gasUsed": {
    "_hex": "0xa410"
  },
  "miner": "0xE87470b43FA5904a32866396B2f798D898c13978",
  "extraData": "0x",
  "transactions": [
    {
      "hash": "0xd51cd83c54551e5185629037d1e7062bb2158ac7489d79fd9af4aea1e96dfa5b",
      "blockHash": "0xf1a7025a62d23914651f6cfcfa38bd5bb5af37326c207a6800f255589953697d",
      "blockNumber": 93454,
      "transactionIndex": 0,
      "confirmations": null,
      "from": "0xF87481A262E993a75F791E7859E71BaC36A606Eb",
      "gasPrice": {
        "_hex": "0xda2c73473"
      },
      "gasLimit": {
        "_hex": "0x5208"
      },
      "to": "0x32Be343B94f860124dC4fEe278FDCBD38C102D88",
      "value": {
        "_hex": "0x8ac2c472c963d000"
      },
      "nonce": 28,
      "data": "0x",
      "r": "0x32b8faa84364697c785bb0e61ff2d9a378abff31a0a01462ea23f6819d3a8c02",
      "s": "0x786ad3fd76f56942af6f26464e9eebb77be571f426df672d6b7875d26e8ca8df",
      "v": 28,
      "creates": null,
      "raw": "0xf86c1c850da2c734738252089432be343b94f860124dc4fee278fdcbd38c102d88888ac2c472c963d000801ca032b8faa84364697c785bb0e61ff2d9a378abff31a0a01462ea23f6819d3a8c02a0786ad3fd76f56942af6f26464e9eebb77be571f426df672d6b7875d26e8ca8df",
      "networkId": 0,
      "chainId": 0
    },
    {
      "hash": "0x8df24049153bedc81fe057627d8b1d46bdf6edae4d7b509ea7a3ce2d26380f24",
      "blockHash": "0xf1a7025a62d23914651f6cfcfa38bd5bb5af37326c207a6800f255589953697d",
      "blockNumber": 93454,
      "transactionIndex": 1,
      "confirmations": null,
      "from": "0xa70a9a7040d542C632D8e0bE7c5513A8a5Bbc752",
      "gasPrice": {
        "_hex": "0xd7f97525a"
      },
      "gasLimit": {
        "_hex": "0x5208"
      },
      "to": "0x32Be343B94f860124dC4fEe278FDCBD38C102D88",
      "value": {
        "_hex": "0x455f3e379e083000"
      },
      "nonce": 134,
      "data": "0x",
      "r": "0x8794d6ecf508916b202f03b196406744aef8e16cafdb9eb76c0ddb5a75457baf",
      "s": "0x510de86f3b3801148202943bd48ff172f117d047d439a34e1dc2393d689ad9fc",
      "v": 27,
      "creates": null,
      "raw": "0xf86d8186850d7f97525a8252089432be343b94f860124dc4fee278fdcbd38c102d8888455f3e379e083000801ba08794d6ecf508916b202f03b196406744aef8e16cafdb9eb76c0ddb5a75457bafa0510de86f3b3801148202943bd48ff172f117d047d439a34e1dc2393d689ad9fc",
      "networkId": 0,
      "chainId": 0
    }
  ]
}