{
  "hash": "0x914455155221e96168d851ba82f8b77aac84d469b353237cfac9071edc79ab88",
  "parentHash": "0x65e2f31dfc442771742a7e36f9f0e7218f2979401411249cef930d628099939f",
  "number": 109741,
  "timestamp": 1439961667,
  "nonce": "0x870229a7685f2eb9",
  "difficulty": 4449205218610,
  "gasLimit": {
    "_hex": "0x2fefd8"
  },
  "gasUsed": {
    "_hex": "0x5208"
  },
  "miner": "0xe6A7a1d47ff21B6321162AEA7C6CB457D5476Bca",
  "extraData": "0x476574682f76312e302e312d38326566323666362f6c696e75782f676f312e34",
  "transactions": [
    {
      "hash": "0x06df8d42a9f37b2b094ec81becefacaf800bcef87e4bf52bbeca9008fced25e4",
      "blockHash": "0x914455155221e96168d851ba82f8b77aac84d469b353237cfac9071edc79ab88",
      "blockNumber": 109741,
      "transactionIndex": 0,
      "confirmations": null,
      "from": "0x7e8504a5e26df87f6D26fA1ba148BE146F42775A",
      "gasPrice": {
        "_hex": "0xce79bad1a"
      },
      "gasLimit": {
        "_hex": "0x15f90"
      },
      "to": "0x9f78552704fe7e52cC7C3853534aA2C3cf580D54",
      "value": {
        "_hex": "0x1158e460913d00000"
      },
      "nonce": 5,
      "data": "0x",
      "r": "0x41dde41082358fa9ab4ea3568add86c7db3dc7b49877433484c71ac270a6d735",
      "s": "0x79e16a3f4134daf87981033cac969bd23559e7b32fac04882430c6a98f2c80db",
      "v": 27,
      "creates": null,
      "raw": "0xf86e05850ce79bad1a83015f90949f78552704fe7e52cc7c3853534aa2c3cf580d548901158e460913d00000801ba041dde41082358fa9ab4ea3568add86c7db3dc7b49877433484c71ac270a6d735a079e16a3f4134daf87981033cac969bd23559e7b32fac04882430c6a98f2c80db",
      "networkId": 0,
      "chainId": 0
    }
  ]
}