{
  "hash": "0xfd1d2901931fe2871ea0222e8555571a1b23eba5296fd511e8818df4d4c20351",
  "parentHash": "0xbe0217a62c0b54d32be9fc8135cfa43de4140d0a878471ae5281efe66730bdbe",
  "number": 84827,
  "timestamp": 1439555036,
  "nonce": "0xb35e0edcaf317875",
  "difficulty": 2643907447927,
  "gasLimit": {
    "_hex": "0x2fefd8"
  },
  "gasUsed": {
    "_hex": "0x5208"
  },
  "miner": "0xc2E9e042B88164B5408bd895Df7DdaD491c6321E",
  "extraData": "0x",
  "transactions": [
    {
      "hash": "0x01c8f31d332fac14f2d5c72091a965da9e0fb79226847aeea24523a66dfec0d9",
      "blockHash": "0xfd1d2901931fe2871ea0222e8555571a1b23eba5296fd511e8818df4d4c20351",
      "blockNumber": 84827,
      "transactionIndex": 0,
      "confirmations": null,
      "from": "0x672fA0A019088DB3166f6119438d07A99f8Ba224",
      "gasPrice": {
        "_hex": "0xd606428e3"
      },
      "gasLimit": {
        "_hex": "0x15f90"
      },
      "to": "0xbc46d537CF2Edd403565bde733b2E34B215001Bd",
      "value": {
        "_hex": "0x2386f26fc10000"
      },
      "nonce": 0,
      "data": "0x",
      "r": "0x64ec5412a3f3d1b9e901b980001b50827d194a45f5b5d6442ceaf7a90c5f001e",
      "s": "0x649e32925922728fef365f769298594daa8957f213c7756ab3dcce124fd8176f",
      "v": 27,
      "creates": null,
      "raw": "0xf86c80850d606428e383015f9094bc46d537cf2edd403565bde733b2e34b215001bd872386f26fc10000801ba064ec5412a3f3d1b9e901b980001b50827d194a45f5b5d6442ceaf7a90c5f001ea0649e32925922728fef365f769298594daa8957f213c7756ab3dcce124fd8176f",
      "networkId": 0,
      "chainId": 0
    }
  ]
}