{
  "hash": "0x0dc74c231a0a2a305c143369ca433cb64b7f52b50efd5847877e93a1bfd4b1f0",
  "parentHash": "0x18fa21a68cd7007fdf454ca6945f0153ef8c8fdff751d26422055f42e3f955d3",
  "number": 74613,
  "timestamp": 1439389250,
  "nonce": "0xe3ad706290db5365",
  "difficulty": 2198837102852,
  "gasLimit": {
    "_hex": "0x2fefd8"
  },
  "gasUsed": {
    "_hex": "0x5208"
  },
  "miner": "0x5F8F73E26CdF436f19Cb24C82F90A15AFe55b592",
  "extraData": "0x476574682f76312e302e312f77696e646f77732f676f312e342e32",
  "transactions": [
    {
      "hash": "0xb99964fd3dea7d42cfaef8bc51a003c8822d2505aed120cbbd64ed83153b5559",
      "blockHash": "0x0dc74c231a0a2a305c143369ca433cb64b7f52b50efd5847877e93a1bfd4b1f0",
      "blockNumber": 74613,
      "transactionIndex": 0,
      "confirmations": null,
      "from": "0xfFcD9CAE6d9f54fd8ae05296F839892677ff6EaA",
      "gasPrice": {
        "_hex": "0xce74ef180"
      },
      "gasLimit": {
        "_hex": "0x15f90"
      },
      "to": "0xd5d9a0033e6B0A3ba7634d0e1a9055ad5f452C3D",
      "value": {
        "_hex": "0xde0b6b3a7640000"
      },
      "nonce": 1,
      "data": "0x",
      "r": "0xce03058e1b69a18ef74c3ec20abd86bf412230c9cd50196003e232083d3325c5",
      "s": "0x6ab67fcc330dc12ff89f80ec2fb8ebba8359263f5d80b3d5cfed7b3c99a08e29",
      "v": 28,
      "creates": null,
      "raw": "0xf86d01850ce74ef18083015f9094d5d9a0033e6b0a3ba7634d0e1a9055ad5f452c3d880de0b6b3a7640000801ca0ce03058e1b69a18ef74c3ec20abd86bf412230c9cd50196003e232083d3325c5a06ab67fcc330dc12ff89f80ec2fb8ebba8359263f5d80b3d5cfed7b3c99a08e29",
      "networkId": 0,
      "chainId": 0
    }
  ]
}