{
  "hash": "0xf21abd20c825bf19c26301624f7899cd48cf6193ff8ac1cc2737782ef3d8dd19",
  "parentHash": "0xebc586deea307dbfd7604f46817050b57848ef3ec0715e0ffd364bd1a89dd04f",
  "number": 48671,
  "timestamp": 1438960785,
  "nonce": "0xa7119c8c35e32b95",
  "difficulty": 1473588841766,
  "gasLimit": {
    "_hex": "0x1bb0f"
  },
  "gasUsed": {
    "_hex": "0x14a84"
  },
  "miner": "0x5B3e850E39e6f2C7dD38707b649e2B3536F14C0b",
  "extraData": "0x476574682f76312e302e312f64617277696e2f676f312e342e32",
  "transactions": [
    {
      "hash": "0x740a4215c7d30072248a55904c15b747d6b1be36aff09026f00ce7f14df6b601",
      "blockHash": "0xf21abd20c825bf19c26301624f7899cd48cf6193ff8ac1cc2737782ef3d8dd19",
      "blockNumber": 48671,
      "transactionIndex": 0,
      "confirmations": null,
      "from": "0xe6A7a1d47ff21B6321162AEA7C6CB457D5476Bca",
      "gasPrice": {
        "_hex": "0xd98504006"
      },
      "gasLimit": {
        "_hex": "0x55f0"
      },
      "to": "0xc8068593B3FA9FA18275c9Cb7a64951BcbFD19eA",
      "value": {
        "_hex": "0x120338d750931aeb0"
      },
      "nonce": 247,
      "data": "0x",
      "r": "0xd2ca15e94f92423efff40e6bbb92dfa09725c984e4f5aa14184fe0d041c4ee2e",
      "s": "0x00b46be3b3137a571c100c402ad7bdc5572adda8aeeb3ca3a2bfba6628a0ba12",
      "v": 27,
      "creates": null,
      "raw": "0xf86d81f7850d985040068255f094c8068593b3fa9fa18275c9cb7a64951bcbfd19ea890120338d750931aeb0801ba0d2ca15e94f92423efff40e6bbb92dfa09725c984e4f5aa14184fe0d041c4ee2e9fb46be3b3137a571c100c402ad7bdc5572adda8aeeb3ca3a2bfba6628a0ba12",
      "networkId": 0,
      "chainId": 0
    },
    {
      "hash": "0x3f8af40dacb6289ddb15fbe4c4d171866acd4baf3cd8a86aaa801bf61453ff22",
      "blockHash": "0xf21abd20c825bf19c26301624f7899cd48cf6193ff8ac1cc2737782ef3d8dd19",
      "blockNumber": 48671,
      "transactionIndex": 1,
      "confirmations": null,
      "from": "0x9192Ca96DE0B90f2A67A2D81f4A1325CFA3Cc685",
      "gasPrice": {
        "_hex": "0xd39fb250d"
      },
      "gasLimit": {
        "_hex": "0x59d8"
      },
      "to": "0x4c09123E222F19d09D6bb4DBf5352c93DF4Fd23a",
      "value": {
        "_hex": "0xde0b6b3a7640000"
      },
      "nonce": 0,
      "data": "0x",
      "r": "0x7b45f14422749d1d11b3022332b569fc1bdbd9e7e4d709bba6fab2384ac3fa18",
      "s": "0x4cce0965947d4a58861e34dded38a35e32db8d1fd8670596df0266d3cf2e8657",
      "v": 28,
      "creates": null,
      "raw": "0xf86c80850d39fb250d8259d8944c09123e222f19d09d6bb4dbf5352c93df4fd23a880de0b6b3a7640000801ca07b45f14422749d1d11b3022332b569fc1bdbd9e7e4d709bba6fab2384ac3fa18a04cce0965947d4a58861e34dded38a35e32db8d1fd8670596df0266d3cf2e8657",
      "networkId": 0,
      "chainId": 0
    },
    {
      "hash": "0x6518f09f333287dbad188f7ac4773a9283ba916082c06632c4eba3a5e80f3693",
      "blockHash": "0xf21abd20c825bf19c26301624f7899cd48cf6193ff8ac1cc2737782ef3d8dd19",
      "blockNumber": 48671,
      "transactionIndex": 2,
      "confirmations": null,
      "from": "0x34B5074ac77d8e76A9DBdB88d9D7c63F4E1f8877",
      "gasPrice": {
        "_hex": "0xcf53439d7"
      },
      "gasLimit": {
        "_hex": "0x55f0"
      },
      "to": "0x2910543Af39abA0Cd09dBb2D50200b3E800A63D2",
      "value": {
        "_hex": "0x6a0026d210b40"
      },
      "nonce": 1,
      "data": "0x454e47583939505930",
      "r": "0x3aa84854d9287f2871723af46d76e93f9be6d7d80b5697615f00a285c9729567",
      "s": "0x58cc3de13e6110900781f01c0b9d126bea3e1ea2a4aea55004bf1e525e35bcd8",
      "v": 27,
      "creates": null,
      "raw": "0xf87401850cf53439d78255f0942910543af39aba0cd09dbb2d50200b3e800a63d28706a0026d210b4089454e475839395059301ba03aa84854d9287f2871723af46d76e93f9be6d7d80b5697615f00a285c9729567a058cc3de13e6110900781f01c0b9d126bea3e1ea2a4aea55004bf1e525e35bcd8",
      "networkId": 0,
      "chainId": 0
    },
    {
      "hash": "0x2eae940420ff65459be1f7503b1f235b0ac7efb0a659fef27c5bb8d9d2827823",
      "blockHash": "0xf21abd20c825bf19c26301624f7899cd48cf6193ff8ac1cc2737782ef3d8dd19",
      "blockNumber": 48671,
      "transactionIndex": 3,
      "confirmations": null,
      "from": "0xB1540E94cff3465CC3D187E7c8e3bDaf984659e2",
      "gasPrice": {
        "_hex": "0xce2703a05"
      },
      "gasLimit": {
        "_hex": "0x5208"
      },
      "to": "0xCF336585500343e6Bd562504cC90D9E319037f31",
      "value": {
        "_hex": "0xa215e022a1dd18bb60"
      },
      "nonce": 0,
      "data": "0x",
      "r": "0x423fec501deb3d2f6a2b27658b0482689bfad8f2669388edc66f9d8179d5271d",
      "s": "0x6ee0a8ecc17ce043e1441c6708337896321951a7bc3e5775a00d8926cc8b2882",
      "v": 27,
      "creates": null,
      "raw": "0xf86d80850ce2703a0582520894cf336585500343e6bd562504cc90d9e319037f3189a215e022a1dd18bb60801ba0423fec501deb3d2f6a2b27658b0482689bfad8f2669388edc66f9d8179d5271da06ee0a8ecc17ce043e1441c6708337896321951a7bc3e5775a00d8926cc8b2882",
      "networkId": 0,
      "chainId": 0
    }
  ]
}