{
  "hash": "0x10ff088bacb065d2506108a0d21b8ef51b01379243a0b7ed7e54aba5cc5edf09",
  "parentHash": "0xe68af2d7f754530ea5b0297c0efa64fb4a99367e9abb80174b01e9ed650a06bf",
  "number": 94056,
  "timestamp": 1439701908,
  "nonce": "0x384a9deb528e2eb3",
  "difficulty": 3480015202220,
  "gasLimit": {
    "_hex": "0x2fefd8"
  },
  "gasUsed": {
    "_hex": "0xf618"
  },
  "miner": "0xe6A7a1d47ff21B6321162AEA7C6CB457D5476Bca",
  "extraData": "0x476574682f76312e302e312d38326566323666362f6c696e75782f676f312e34",
  "transactions": [
    {
      "hash": "0x516751841d2e6bcb9ca4cd931940afc3ae97e959deaff0e16cece53a01332fb0",
      "blockHash": "0x10ff088bacb065d2506108a0d21b8ef51b01379243a0b7ed7e54aba5cc5edf09",
      "blockNumber": 94056,
      "transactionIndex": 0,
      "confirmations": null,
      "from": "0x2878c60b86FBf89645547fEcFA7f74B067f32E52",
      "gasPrice": {
        "_hex": "0xcacfe9876"
      },
      "gasLimit": {
        "_hex": "0x5208"
      },
      "to": "0x32Be343B94f860124dC4fEe278FDCBD38C102D88",
      "value": {
        "_hex": "0x56bc34e5ec4c88000"
      },
      "nonce": 1,
      "data": "0x",
      "r": "0x68dab667831c4b5eafc32c329817ef10d9f8e26b1ba886d6cb94b5c1a746484d",
      "s": "0x753b9db631329d7c9db3975af46e0e77a739518ab3113e6c0b9cd92b6927b8c3",
      "v": 28,
      "creates": null,
      "raw": "0xf86d01850cacfe98768252089432be343b94f860124dc4fee278fdcbd38c102d8889056bc34e5ec4c88000801ca068dab667831c4b5eafc32c329817ef10d9f8e26b1ba886d6cb94b5c1a746484da0753b9db631329d7c9db3975af46e0e77a739518ab3113e6c0b9cd92b6927b8c3",
      "networkId": 0,
      "chainId": 0
    },
    {
      "hash": "0x7a7fa0bdc6e233d85d748eaefde08416c16fd6edae389d6fa03584d2a3c8ab05",
      "blockHash": "0x10ff088bacb065d2506108a0d21b8ef51b01379243a0b7ed7e54aba5cc5edf09",
      "blockNumber": 94056,
      "transactionIndex": 1,
      "confirmations": null,
      "from": "0xc5590b3C64A62886b188D5B51b9e2c8F2475BF46",
      "gasPrice": {
        "_hex": "0xcacfe9876"
      },
      "gasLimit": {
        "_hex": "0x5208"
      },
      "to": "0x32Be343B94f860124dC4fEe278FDCBD38C102D88",
      "value": {
        "_hex": "0xddca6e5091ca000"
      },
      "nonce": 0,
      "data": "0x",
      "r": "0x8740ecf66403874c4eb87bb5f9846e6afb83c81022815c62fc73a4cb1869f6ad",
      "s": "0x6c5a20cada3aa54e2e6957b25e2fc6d0dd41a72c3a30a933969e3294bf344d1b",
      "v": 28,
      "creates": null,
      "raw": "0xf86c80850cacfe98768252089432be343b94f860124dc4fee278fdcbd38c102d88880ddca6e5091ca000801ca08740ecf66403874c4eb87bb5f9846e6afb83c81022815c62fc73a4cb1869f6ada06c5a20cada3aa54e2e6957b25e2fc6d0dd41a72c3a30a933969e3294bf344d1b",
      "networkId": 0,
      "chainId": 0
    },
    {
      "hash": "0x37f12f3770f6f496b59df24663aac632f0955775bfa1a0011cd318ba43956296",
      "blockHash": "0x10ff088bacb065d2506108a0d21b8ef51b01379243a0b7ed7e54aba5cc5edf09",
      "blockNumber": 94056,
      "transactionIndex": 2,
      "confirmations": null,
      "from": "0xDcAb82942d809Dd3a9811177f1aac0c49F89f742",
      "gasPrice": {
        "_hex": "0xcacfe9876"
      },
      "gasLimit": {
        "_hex": "0x5208"
      },
      "to": "0x32Be343B94f860124dC4fEe278FDCBD38C102D88",
      "value": {
        "_hex": "0x1bf1734c4f82c00"
      },
      "nonce": 0,
      "data": "0x",
      "r": "0x774d2c86b3b3fdc46d67b92e2d70006727efcb5c5a0f15674147a77a2607649c",
      "s": "0x595924201e1dd69bc46cdf5378d30bad87e05436ad2e39b22d5311bbe23e5a30",
      "v": 27,
      "creates": null,
      "raw": "0xf86c80850cacfe98768252089432be343b94f860124dc4fee278fdcbd38c102d888801bf1734c4f82c00801ba0774d2c86b3b3fdc46d67b92e2d70006727efcb5c5a0f15674147a77a2607649ca0595924201e1dd69bc46cdf5378d30bad87e05436ad2e39b22d5311bbe23e5a30",
      "networkId": 0,
      "chainId": 0
    }
  ]
}