{
  "hash": "0xc4cc249efbab8e78b487ba1061bb774a635b3a30c3bc8e6bc937e669a901b857",
  "parentHash": "0x478a63d61f8f927d3ad04b79adef7cc14bdf74482e5860800e03c3a5af22997e",
  "number": 84368,
  "timestamp": 1439548749,
  "nonce": "0xefcd5cbe87f376ac",
  "difficulty": 2544001950237,
  "gasLimit": {
    "_hex": "0x2fefd8"
  },
  "gasUsed": {
    "_hex": "0x5208"
  },
  "miner": "0xa6BDc31c431B8F97848c9D60cbbe9660dc450eB7",
  "extraData": "0x",
  "transactions": [
    {
      "hash": "0x36bbd550a9db6b7e2a6214571ab2bded6b4b297d7b240e12ceaa23aec9c137bc",
      "blockHash": "0xc4cc249efbab8e78b487ba1061bb774a635b3a30c3bc8e6bc937e669a901b857",
      "blockNumber": 84368,
      "transactionIndex": 0,
      "confirmations": null,
      "from": "0xd83630DD777Ce7c8Df15D55A8Bb72EB7C7b4568D",
      "gasPrice": {
        "_hex": "0xd06971d4a"
      },
      "gasLimit": {
        "_hex": "0x15f90"
      },
      "to": "0x43D575Cc486538f9B89F6e46188822F6fBC68D94",
      "value": {
        "_hex": "0x1825b8c7f52e0000"
      },
      "nonce": 4,
      "data": "0x",
      "r": "0x913a099f3b14031bdaad78eed5aa299f14414023130dd6c0e379b38468f55b11",
      "s": "0x492ccecb8245bda4366b70ad9975bc43f3e93ea4618185fb0443da32c1181f8d",
      "v": 28,
      "creates": null,
      "raw": "0xf86d04850d06971d4a83015f909443d575cc486538f9b89f6e46188822f6fbc68d94881825b8c7f52e0000801ca0913a099f3b14031bdaad78eed5aa299f14414023130dd6c0e379b38468f55b11a0492ccecb8245bda4366b70ad9975bc43f3e93ea4618185fb0443da32c1181f8d",
      "networkId": 0,
      "chainId": 0
    }
  ]
}