{
  "hash": "0x1af2ed5fe9ec77a6beee3c589ab4905766bd07d31f9b8eb3077f2196b889458f",
  "parentHash": "0xec2918b8411606c30771ee51fbfe895c14407d1485726c3a5be68fec990f8875",
  "number": 83698,
  "timestamp": 1439539315,
  "nonce": "0xd59085b1f43a8a4a",
  "difficulty": 2444349945586,
  "gasLimit": {
    "_hex": "0x2fefd8"
  },
  "gasUsed": {
    "_hex": "0x5208"
  },
  "miner": "0xe6A7a1d47ff21B6321162AEA7C6CB457D5476Bca",
  "extraData": "0x476574682f76312e302e312d38326566323666362f6c696e75782f676f312e34",
  "transactions": [
    {
      "hash": "0x840162c4f7ffcca1c2b496714232a4ca7665a8e19eea50d2bea8344e62f7c2eb",
      "blockHash": "0x1af2ed5fe9ec77a6beee3c589ab4905766bd07d31f9b8eb3077f2196b889458f",
      "blockNumber": 83698,
      "transactionIndex": 0,
      "confirmations": null,
      "from": "0xB4d1131BD9816E40228fC12D5390190385463f21",
      "gasPrice": {
        "_hex": "0xd69b48315"
      },
      "gasLimit": {
        "_hex": "0x15f90"
      },
      "to": "0x04936E4b4AE7a0F12Eb3677c2389e5DBDd514d89",
      "value": {
        "_hex": "0x88241f063e950000"
      },
      "nonce": 0,
      "data": "0x",
      "r": "0x988ea7b02c4d25f1f476ae918639c7da85354490cf09c4565c06abaf1598a328",
      "s": "0x799240799c33b22e7d8c2f70588b9b8a53e73893e10d9dc56eed41976db3b556",
      "v": 27,
      "creates": null,
      "raw": "0xf86d80850d69b4831583015f909404936e4b4ae7a0f12eb3677c2389e5dbdd514d898888241f063e950000801ba0988ea7b02c4d25f1f476ae918639c7da85354490cf09c4565c06abaf1598a328a0799240799c33b22e7d8c2f70588b9b8a53e73893e10d9dc56eed41976db3b556",
      "networkId": 0,
      "chainId": 0
    }
  ]
}