{
  "hash": "0xb377599973264a659720ed6abc5ee5b071a84acf554a261cb4da05f244c2b9cb",
  "parentHash": "0x9af77d698407fbe7a3c4eb5f89435c9aa5aa92abd027528efccbab94e3efe986",
  "number": 58866,
  "timestamp": 1439127998,
  "nonce": "0xacb3e5979f2ee092",
  "difficulty": 1706483304749,
  "gasLimit": {
    "_hex": "0x2fefd8"
  },
  "gasUsed": {
    "_hex": "0x5208"
  },
  "miner": "0x00eBA8Ef4fF9B21Ec2FFF273953fDCC81f6fE7da",
  "extraData": "0x476574682f76312e302e312f6c696e75782f676f312e342e32",
  "transactions": [
    {
      "hash": "0xb4f56a26dd8cb47698509f4c12ff43eb32e0e4d3b511c04594fa269d96265978",
      "blockHash": "0xb377599973264a659720ed6abc5ee5b071a84acf554a261cb4da05f244c2b9cb",
      "blockNumber": 58866,
      "transactionIndex": 0,
      "confirmations": null,
      "from": "0x07BC2CC8eeDC01970700efC9c4Fb36735e98CD71",
      "gasPrice": {
        "_hex": "0xd57c5a50f"
      },
      "gasLimit": {
        "_hex": "0x15f90"
      },
      "to": "0x0fFecdF99016b9C74f1088c858B0A6b71992A471",
      "value": {
        "_hex": "0x35657b724ca0030000"
      },
      "nonce": 7,
      "data": "0x",
      "r": "0x77b3fd1527d08c9ba0c298f8fda596c0325f36562e03a1921c50502a1c70fc9c",
      "s": "0x4e8e8fa0accea33ae530a96de396cae7c5a82fda6ab2db5907a0ec0065ec8817",
      "v": 28,
      "creates": null,
      "raw": "0xf86e07850d57c5a50f83015f90940ffecdf99016b9c74f1088c858b0a6b71992a4718935657b724ca0030000801ca077b3fd1527d08c9ba0c298f8fda596c0325f36562e03a1921c50502a1c70fc9ca04e8e8fa0accea33ae530a96de396cae7c5a82fda6ab2db5907a0ec0065ec8817",
      "networkId": 0,
      "chainId": 0
    }
  ]
}