{
  "hash": "0x54462b9ec68788c6eae9dd666c8df02271ba9376d7524e630976d66b46e9e55e",
  "parentHash": "0xacf3084b1ffc533f04f862d1c4f1f876923b9db7587830d819323504ec0eadf7",
  "number": 49297,
  "timestamp": 1438971365,
  "nonce": "0x4529d4d26c76c3ca",
  "difficulty": 1477802041920,
  "gasLimit": {
    "_hex": "0x2be90"
  },
  "gasUsed": {
    "_hex": "0x546c"
  },
  "miner": "0xeB1325C8D9d3ea8D74aC11F4B00F1B2367686319",
  "extraData": "0x476574682f76312e302e312f77696e646f77732f676f312e342e32",
  "transactions": [
    {
      "hash": "0xe6ce5b4fe1c226ec3e3ec7079ea7a3537456a98ba1db81c3a8a076130c1d10e5",
      "blockHash": "0x54462b9ec68788c6eae9dd666c8df02271ba9376d7524e630976d66b46e9e55e",
      "blockNumber": 49297,
      "transactionIndex": 0,
      "confirmations": null,
      "from": "0xae648155A658370f929bE384f7E001047e49dd46",
      "gasPrice": {
        "_hex": "0x110c8f7d8de"
      },
      "gasLimit": {
        "_hex": "0xc350"
      },
      "to": "0x2910543Af39abA0Cd09dBb2D50200b3E800A63D2",
      "value": {
        "_hex": "0x8ac7230489e80000"
      },
      "nonce": 0,
      "data": "0x454e32374555303430",
      "r": "0xa00d38e3753f35643b994e925c407b35cf4eebf8d0d421e118e3a3e35522a748",
      "s": "0x9900da2ca31ed62216239d8f11632aadc0fdaeed7b019327aca073bc99dd0cff",
      "v": 27,
      "creates": null,
      "raw": "0xf87680860110c8f7d8de82c350942910543af39aba0cd09dbb2d50200b3e800a63d2888ac7230489e8000089454e323745553034301ba0a00d38e3753f35643b994e925c407b35cf4eebf8d0d421e118e3a3e35522a748a09900da2ca31ed62216239d8f11632aadc0fdaeed7b019327aca073bc99dd0cff",
      "networkId": 0,
      "chainId": 0
    }
  ]
}