{
  "hash": "0x08426b3fe45ed31aeeeaab1ba5acc345640279ea67fa95e94074e966ad124fa2",
  "parentHash": "0xda43a0c5ea7777096bb889a66a77d05913a7d32b0b3080fd367b8f67c8c5ca95",
  "number": 110331,
  "timestamp": 1439971849,
  "nonce": "0xb26af5b3c78ba9f9",
  "difficulty": 4367105598407,
  "gasLimit": {
    "_hex": "0x2fefd8"
  },
  "gasUsed": {
    "_hex": "0x19a28"
  },
  "miner": "0x5B3e850E39e6f2C7dD38707b649e2B3536F14C0b",
  "extraData": "0x476574682f76312e302e312f64617277696e2f676f312e342e32",
  "transactions": [
    {
      "hash": "0xeed1126feeeced655e5c52b3a258dc6cf07ea710ac775160893db15a32ad83f0",
      "blockHash": "0x08426b3fe45ed31aeeeaab1ba5acc345640279ea67fa95e94074e966ad124fa2",
      "blockNumber": 110331,
      "transactionIndex": 0,
      "confirmations": null,
      "from": "0xe6A7a1d47ff21B6321162AEA7C6CB457D5476Bca",
      "gasPrice": {
        "_hex": "0xcb6d312ab"
      },
      "gasLimit": {
        "_hex": "0x55f0"
      },
      "to": "0x9b355684808ca9e726eF39815B61922599c7FaB6",
      "value": {
        "_hex": "0x1c22c22b8dc61024"
      },
      "nonce": 4176,
      "data": "0x",
      "r": "0x551652a62cd743121507edbcd058f64d6c0ddb09b348f61bb14063126f392593",
      "s": "0x2b676a50fc198734ee8b21bc3da893abd1dc654a3f3f536c725824d19285a5bd",
      "v": 28,
      "creates": null,
      "raw": "0xf86e821050850cb6d312ab8255f0949b355684808ca9e726ef39815b61922599c7fab6881c22c22b8dc61024801ca0551652a62cd743121507edbcd058f64d6c0ddb09b348f61bb14063126f392593a02b676a50fc198734ee8b21bc3da893abd1dc654a3f3f536c725824d19285a5bd",
      "networkId": 0,
      "chainId": 0
    },
    {
      "hash": "0x564894873ed09e7f2cadb5235d4259bbba9d0fc5b7aeeaabfb8c1b6630771059",
      "blockHash": "0x08426b3fe45ed31aeeeaab1ba5acc345640279ea67fa95e94074e966ad124fa2",
      "blockNumber": 110331,
      "transactionIndex": 1,
      "confirmations": null,
      "from": "0xe6A7a1d47ff21B6321162AEA7C6CB457D5476Bca",
      "gasPrice": {
        "_hex": "0xcb6d312ab"
      },
      "gasLimit": {
        "_hex": "0x55f0"
      },
      "to": "0xA4fbA5C740C8141d6c4469eD292bfCC8cCAc774F",
      "value": {
        "_hex": "0x1c4335c64a14e2f4"
      },
      "nonce": 4177,
      "data": "0x",
      "r": "0xc579a5d3bbb0e48e526c3df133ef63be4a2e5753ab923289be28c3642b5811d0",
      "s": "0x2ad1d7b7f8c2bd636f272810a40db89b2f501026b4316f8e69a8fd9bb0204f71",
      "v": 28,
      "creates": null,
      "raw": "0xf86e821051850cb6d312ab8255f094a4fba5c740c8141d6c4469ed292bfcc8ccac774f881c4335c64a14e2f4801ca0c579a5d3bbb0e48e526c3df133ef63be4a2e5753ab923289be28c3642b5811d0a02ad1d7b7f8c2bd636f272810a40db89b2f501026b4316f8e69a8fd9bb0204f71",
      "networkId": 0,
      "chainId": 0
    },
    {
      "hash": "0x5388818124363c386ee633046cf82b8aa0298ff66dd70a71a378152dce7ff93a",
      "blockHash": "0x08426b3fe45ed31aeeeaab1ba5acc345640279ea67fa95e94074e966ad124fa2",
      "blockNumber": 110331,
      "transactionIndex": 2,
      "confirmations": null,
      "from": "0xe6A7a1d47ff21B6321162AEA7C6CB457D5476Bca",
      "gasPrice": {
        "_hex": "0xcb6d312ab"
      },
      "gasLimit": {
        "_hex": "0x55f0"
      },
      "to": "0x7812D42e3DDAaC2BFB738279ED0F7026Ef0Eef4D",
      "value": {
        "_hex": "0x1ce96ff70598cf98"
      },
      "nonce": 4178,
      "data": "0x",
      "r": "0x271c9c934dead6b39226dd589d01642d6475e40790aab161807b58dc6da557ab",
      "s": "0x5d7ff468f98213460f72455a2c55ef9076852cd4952600f2dfa6fa4c080e6f2b",
      "v": 28,
      "creates": null,
      "raw": "0xf86e821052850cb6d312ab8255f0947812d42e3ddaac2bfb738279ed0f7026ef0eef4d881ce96ff70598cf98801ca0271c9c934dead6b39226dd589d01642d6475e40790aab161807b58dc6da557aba05d7ff468f98213460f72455a2c55ef9076852cd4952600f2dfa6fa4c080e6f2b",
      "networkId": 0,
      "chainId": 0
    },
    {
      "hash": "0xba4e87cae3b474fa8cdb0ac564a7c55bb60aab4ad95027705080e35af9c216b4",
      "blockHash": "0x08426b3fe45ed31aeeeaab1ba5acc345640279ea67fa95e94074e966ad124fa2",
      "blockNumber": 110331,
      "transactionIndex": 3,
      "confirmations": null,
      "from": "0xe6A7a1d47ff21B6321162AEA7C6CB457D5476Bca",
      "gasPrice": {
        "_hex": "0xcb6d312ab"
      },
      "gasLimit": {
        "_hex": "0x55f0"
      },
      "to": "0x7903428Eb39b4da60a93f8FCB5228b3b431b7B52",
      "value": {
        "_hex": "0x1cf6c566acf62098"
      },
      "nonce": 4179,
      "data": "0x",
      "r": "0xda0b0efea55a642ab169d32cce3ce41ad3220a31f6c99d958a8caead3daec233",
      "s": "0x0052d3c07fe3b5b6124d7f70ccbbef93e2819494ffa35721a7a8c57e265ee3c3",
      "v": 28,
      "creates": null,
      "raw": "0xf86d821053850cb6d312ab8255f0947903428eb39b4da60a93f8fcb5228b3b431b7b52881cf6c566acf62098801ca0da0b0efea55a642ab169d32cce3ce41ad3220a31f6c99d958a8caead3daec2339f52d3c07fe3b5b6124d7f70ccbbef93e2819494ffa35721a7a8c57e265ee3c3",
      "networkId": 0,
      "chainId": 0
    },
    {
      "hash": "0xf4488950a777c984e93f5c82d9b00728a56ee1236aa59ff7857189544aac8271",
      "blockHash": "0x08426b3fe45ed31aeeeaab1ba5acc345640279ea67fa95e94074e966ad124fa2",
      "blockNumber": 110331,
      "transactionIndex": 4,
      "confirmations": null,
      "from": "0xe6A7a1d47ff21B6321162AEA7C6CB457D5476Bca",
      "gasPrice": {
        "_hex": "0xcb6d312ab"
      },
      "gasLimit": {
        "_hex": "0x55f0"
      },
      "to": "0xC5d30A49174e1a78D4b8a71824e78563cB041e94",
      "value": {
        "_hex": "0x1cfaae62277ecb20"
      },
      "nonce": 4180,
      "data": "0x",
      "r": "0x371d38b7a885480d91402c07214ea0cff746256de5c6983e33af801fc133c119",
      "s": "0x15f9b6f8ff1c09265c15cc18802d5616a66f2eecd4336d2f42471c3cf1159de0",
      "v": 27,
      "creates": null,
      "raw": "0xf86e821054850cb6d312ab8255f094c5d30a49174e1a78d4b8a71824e78563cb041e94881cfaae62277ecb20801ba0371d38b7a885480d91402c07214ea0cff746256de5c6983e33af801fc133c119a015f9b6f8ff1c09265c15cc18802d5616a66f2eecd4336d2f42471c3cf1159de0",
      "networkId": 0,
      "chainId": 0
    }
  ]
}