{
  "hash": "0xb4e4a8cc06f9519253d997d5874d290c6d871990a0bd9ef0585c9b21ed26f082",
  "parentHash": "0x2c4526ccc5322c74330ba59cf4e0c5b9ed15589a94b32639ca5ea0d814e9c2a7",
  "number": 96373,
  "timestamp": 1439739314,
  "nonce": "0x3b020a0b3f41859e",
  "difficulty": 3665653222845,
  "gasLimit": {
    "_hex": "0x2fefd8"
  },
  "gasUsed": {
    "_hex": "0x19e73"
  },
  "miner": "0xf8E0CA3Ed80bd541b94BEdCf259e8CF2141A9523",
  "extraData": "0x476574682f76312e302e312f77696e646f77732f676f312e342e32",
  "transactions": [
    {
      "hash": "0x3bdb512d074b06bbd419af187b7a7c2ffdcdb55c85adc2f91e18661de85606bd",
      "blockHash": "0xb4e4a8cc06f9519253d997d5874d290c6d871990a0bd9ef0585c9b21ed26f082",
      "blockNumber": 96373,
      "transactionIndex": 0,
      "confirmations": null,
      "from": "0xa14Cf6cEC1c6aAe4b608458F6e14692863A937Aa",
      "gasPrice": {
        "_hex": "0xdfccd40c1"
      },
      "gasLimit": {
        "_hex": "0x61a80"
      },
      "to": "0x580E45f982a0A01cFab3B36B3Ec8Df63fcc5D290",
      "value": {
        "_hex": "0x0"
      },
      "nonce": 27,
      "data": "0xa9559dd7",
      "r": "0x0076101f4377fffbf0a888ce95ffc5d151bb3f0fbbde206d48ab1b0e90f30ab6",
      "s": "0x3c11d6a044e198481b7f1cb7f8ee96fead6fbd377a8442bfd909bb0e69c78a4a",
      "v": 27,
      "creates": null,
      "raw": "0xf8681b850dfccd40c183061a8094580e45f982a0a01cfab3b36b3ec8df63fcc5d2908084a9559dd71b9f76101f4377fffbf0a888ce95ffc5d151bb3f0fbbde206d48ab1b0e90f30ab6a03c11d6a044e198481b7f1cb7f8ee96fead6fbd377a8442bfd909bb0e69c78a4a",
      "networkId": 0,
      "chainId": 0
    }
  ]
}