{
  "hash": "0xc51cd04cd464bc8663a0b608710fc1f99a693cfa5a98cbaef9175b43b127476e",
  "parentHash": "0xd474611cf96d520d7da6f9bd7a7c11222f1c7b1401a67cc4a8752fd87b771146",
  "number": 94312,
  "timestamp": 1439706137,
  "nonce": "0x3a42c36b707f0e52",
  "difficulty": 3479909002191,
  "gasLimit": {
    "_hex": "0x2fefd5"
  },
  "gasUsed": {
    "_hex": "0x5208"
  },
  "miner": "0x26E3f7C9e444f2Ca9E0BE2aF841bd060cF1CbDDb",
  "extraData": "0x476574682f76312e302e312f6c696e75782f676f312e342e32",
  "transactions": [
    {
      "hash": "0x22d2b4b8fc23ff2d1d0329ab901cb22f7addd596047035560a17fe2d7270989e",
      "blockHash": "0xc51cd04cd464bc8663a0b608710fc1f99a693cfa5a98cbaef9175b43b127476e",
      "blockNumber": 94312,
      "transactionIndex": 0,
      "confirmations": null,
      "from": "0x2707836DbE604b0eBfdb0F20870dD749C8572676",
      "gasPrice": {
        "_hex": "0xd4ac3dacd"
      },
      "gasLimit": {
        "_hex": "0x5208"
      },
      "to": "0x32Be343B94f860124dC4fEe278FDCBD38C102D88",
      "value": {
        "_hex": "0x1b1aced10c0af40000"
      },
      "nonce": 3,
      "data": "0x",
      "r": "0xce8398d7d730e3220073bc94335d189841dcb6fdb76e781df4d071432d5c29df",
      "s": "0x31966cdd70c9407ea05a5a6e09c269c44d3ad3b3fce8faaea77e947402a1840e",
      "v": 27,
      "creates": null,
      "raw": "0xf86d03850d4ac3dacd8252089432be343b94f860124dc4fee278fdcbd38c102d88891b1aced10c0af40000801ba0ce8398d7d730e3220073bc94335d189841dcb6fdb76e781df4d071432d5c29dfa031966cdd70c9407ea05a5a6e09c269c44d3ad3b3fce8faaea77e947402a1840e",
      "networkId": 0,
      "chainId": 0
    }
  ]
}