{
  "hash": "0x4af459a35332bc3a83844460882aba887959294c89a552675743aad9df6e34a6",
  "parentHash": "0xe1f55af7495dcceff8e5a42f973721888ba1629a7c29ef36b59221a5cc573fcf",
  "number": 47510,
  "timestamp": 1438941831,
  "nonce": "0x42c9c0b2dc51fc8f",
  "difficulty": 1448819912029,
  "gasLimit": {
    "_hex": "0xc911"
  },
  "gasUsed": {
    "_hex": "0x5208"
  },
  "miner": "0x4b678343De07A2bf1aF9F443E3E0a505dcC830c0",
  "extraData": "0x476574682f76312e302e312f77696e646f77732f676f312e342e32",
  "transactions": [
    {
      "hash": "0x557b3285e954c7844875717bd6b52e184b0d28197ef435f63356197c0bed783d",
      "blockHash": "0x4af459a35332bc3a83844460882aba887959294c89a552675743aad9df6e34a6",
      "blockNumber": 47510,
      "transactionIndex": 0,
      "confirmations": null,
      "from": "0xEAb290b146d9fC82589a817012Aa157D5963aa61",
      "gasPrice": {
        "_hex": "0x1da84c942d"
      },
      "gasLimit": {
        "_hex": "0x5208"
      },
      "to": "0x85A12ea0FD4A0818d18A21653927028f92e24538",
      "value": {
        "_hex": "0xde0b6b3a7640000"
      },
      "nonce": 0,
      "data": "0x",
      "r": "0x102c62e13b3f3c1c10baccc6903876a93a611702c6a24a2c25783fa6f45e7176",
      "s": "0x3c0d7d9b9e3343ef23f7a387b4cde7537984dda8004ee2f608c68e03e1d4276e",
      "v": 27,
      "creates": null,
      "raw": "0xf86c80851da84c942d8252089485a12ea0fd4a0818d18a21653927028f92e24538880de0b6b3a7640000801ba0102c62e13b3f3c1c10baccc6903876a93a611702c6a24a2c25783fa6f45e7176a03c0d7d9b9e3343ef23f7a387b4cde7537984dda8004ee2f608c68e03e1d4276e",
      "networkId": 0,
      "chainId": 0
    }
  ]
}