{
  "hash": "0x515d6bf059fc82fd7de0a0752e29d012f91e493616f16c951fd8a3819914240a",
  "parentHash": "0x3d9d6e69eb68cf8119ef25e55cb6e59a677fb168fa14da27fe245c1e1780724e",
  "number": 113215,
  "timestamp": 1440019586,
  "nonce": "0x13fefffce3ca7dbe",
  "difficulty": 4526230486655,
  "gasLimit": {
    "_hex": "0x2fefd8"
  },
  "gasUsed": {
    "_hex": "0x5208"
  },
  "miner": "0xC603Ab5ef41fC61AA8b76bEddb09e3Cfcbb174BD",
  "extraData": "0x476574682f76312e302e312f77696e646f77732f676f312e342e32",
  "transactions": [
    {
      "hash": "0x4183a77b6b88a0a088fda791fa3db0cedfa1c6d6191af10e08ecc693ee181b6a",
      "blockHash": "0x515d6bf059fc82fd7de0a0752e29d012f91e493616f16c951fd8a3819914240a",
      "blockNumber": 113215,
      "transactionIndex": 0,
      "confirmations": null,
      "from": "0x3fc4eAB8A8df5a124043b29146709935c65F1f7d",
      "gasPrice": {
        "_hex": "0xd1f217cbf"
      },
      "gasLimit": {
        "_hex": "0x15f90"
      },
      "to": "0x051B69BB7073F7385370C5751F988b31A7567a63",
      "value": {
        "_hex": "0x1f80a8f918230000"
      },
      "nonce": 7,
      "data": "0x",
      "r": "0x8c7c4050633768e9cf84aa2dfa903b048652acaf27c9b96b54f19043d383906d",
      "s": "0x094118f49a062cf626586c2badb42cb3858f684e10ff19caa724affa9bdc7c8c",
      "v": 27,
      "creates": null,
      "raw": "0xf86d07850d1f217cbf83015f9094051b69bb7073f7385370c5751f988b31a7567a63881f80a8f918230000801ba08c7c4050633768e9cf84aa2dfa903b048652acaf27c9b96b54f19043d383906da0094118f49a062cf626586c2badb42cb3858f684e10ff19caa724affa9bdc7c8c",
      "networkId": 0,
      "chainId": 0
    }
  ]
}