{
  "hash": "0xb1e48b9b2509c65ec7c2e716c3e8d5dcf8f11b95ed008b0c9b8eaa19d5443722",
  "parentHash": "0xb2ad683193a3808bdd095ba5a8aad4ffb060c52721b2c70505c83423fc2f9d1f",
  "number": 75190,
  "timestamp": 1439399150,
  "nonce": "0x6e3bbf3b91169de0",
  "difficulty": 2191183652056,
  "gasLimit": {
    "_hex": "0x2fefd8"
  },
  "gasUsed": {
    "_hex": "0x5208"
  },
  "miner": "0xB7268c7705A1866b2A78e882fdfDc8E2a4e1428E",
  "extraData": "0x476574682f76312e302e312f77696e646f77732f676f312e342e32",
  "transactions": [
    {
      "hash": "0xc89ae1c53b6052223470dcbe184ba8495c4c56e771926fd972590dd0dde6ea7a",
      "blockHash": "0xb1e48b9b2509c65ec7c2e716c3e8d5dcf8f11b95ed008b0c9b8eaa19d5443722",
      "blockNumber": 75190,
      "transactionIndex": 0,
      "confirmations": null,
      "from": "0x2910543Af39abA0Cd09dBb2D50200b3E800A63D2",
      "gasPrice": {
        "_hex": "0xd095cbb48"
      },
      "gasLimit": {
        "_hex": "0x5208"
      },
      "to": "0xEfA6B1F0DB603537826891B8B4bc163984Bb40CD",
      "value": {
        "_hex": "0xd1d8d8e316e93b8000"
      },
      "nonce": 310,
      "data": "0x",
      "r": "0x5ace684aa08c811db3e0c383605ebef83ac69d0bdec1ad23f8eae9851b6427c6",
      "s": "0x4076bc2da8bc744772fa255af8ed417c28839fe87485d2e2f8dc14eb104fd8b9",
      "v": 27,
      "creates": null,
      "raw": "0xf86f820136850d095cbb4882520894efa6b1f0db603537826891b8b4bc163984bb40cd89d1d8d8e316e93b8000801ba05ace684aa08c811db3e0c383605ebef83ac69d0bdec1ad23f8eae9851b6427c6a04076bc2da8bc744772fa255af8ed417c28839fe87485d2e2f8dc14eb104fd8b9",
      "networkId": 0,
      "chainId": 0
    }
  ]
}