{
  "hash": "0x4220b19b9a797b54b4b37044f1e0dea7cfc65a4daf4470181a2eeaf9ebd8999f",
  "parentHash": "0xffa8d5316809f1d640f0f6438a9c51a986ce1a801276c03d53e26ec3a941d26b",
  "number": 121882,
  "timestamp": 1440184359,
  "nonce": "0x62589d2ba603492c",
  "difficulty": 4471061329183,
  "gasLimit": {
    "_hex": "0x2fefd8"
  },
  "gasUsed": {
    "_hex": "0xa410"
  },
  "miner": "0xe6A7a1d47ff21B6321162AEA7C6CB457D5476Bca",
  "extraData": "0xd783010002844765746887676f312e342e32856c696e7578",
  "transactions": [
    {
      "hash": "0x036b7c13232f8f1babd96c1af761b3e6d46ee4820b15157816ab770756df8fbc",
      "blockHash": "0x4220b19b9a797b54b4b37044f1e0dea7cfc65a4daf4470181a2eeaf9ebd8999f",
      "blockNumber": 121882,
      "transactionIndex": 0,
      "confirmations": null,
      "from": "0xe6A7a1d47ff21B6321162AEA7C6CB457D5476Bca",
      "gasPrice": {
        "_hex": "0xba43b7400"
      },
      "gasLimit": {
        "_hex": "0x55f0"
      },
      "to": "0xb3395f0a13448d9A660aC4aB2aBBC61F555f3656",
      "value": {
        "_hex": "0x571c66bcd8389360"
      },
      "nonce": 6635,
      "data": "0x",
      "r": "0x899789cda5f33142297450d29b2170d29773235e444476edf96ba9bbcf477ca1",
      "s": "0x3c07bf1a368ec08d9043bc4ec0f5f4c39eac4e48e1107d1afa00e87d9f425811",
      "v": 28,
      "creates": null,
      "raw": "0xf86e8219eb850ba43b74008255f094b3395f0a13448d9a660ac4ab2abbc61f555f365688571c66bcd8389360801ca0899789cda5f33142297450d29b2170d29773235e444476edf96ba9bbcf477ca1a03c07bf1a368ec08d9043bc4ec0f5f4c39eac4e48e1107d1afa00e87d9f425811",
      "networkId": 0,
      "chainId": 0
    },
    {
      "hash": "0xd1a7096d26594a07d5046dd9203ce28f5d4bf50263c442da52fda60309fe829e",
      "blockHash": "0x4220b19b9a797b54b4b37044f1e0dea7cfc65a4daf4470181a2eeaf9ebd8999f",
      "blockNumber": 121882,
      "transactionIndex": 1,
      "confirmations": null,
      "from": "0xe6A7a1d47ff21B6321162AEA7C6CB457D5476Bca",
      "gasPrice": {
        "_hex": "0xba43b7400"
      },
      "gasLimit": {
        "_hex": "0x55f0"
      },
      "to": "0x9dc5018E753A410593259039296bBfd28E29f894",
      "value": {
        "_hex": "0x59ea87ff2a565900"
      },
      "nonce": 6636,
      "data": "0x",
      "r": "0xfdcf684ca6bc61fdae42601fede6db4f1877d598b622f863462c8b3adf5536c1",
      "s": "0x73d56512ad75eb8655b3bd46d90cfc2103cdbd21bdb7ced62b3699f8fada2076",
      "v": 27,
      "creates": null,
      "raw": "0xf86e8219ec850ba43b74008255f0949dc5018e753a410593259039296bbfd28e29f8948859ea87ff2a565900801ba0fdcf684ca6bc61fdae42601fede6db4f1877d598b622f863462c8b3adf5536c1a073d56512ad75eb8655b3bd46d90cfc2103cdbd21bdb7ced62b3699f8fada2076",
      "networkId": 0,
      "chainId": 0
    }
  ]
}