{
  "hash": "0xb8d9bdcec2cf2fc53d053bd31829b2fa35c73217ad089f91129aa9464a9d9267",
  "parentHash": "0x37abf8c008a40a6269864817da120f7e134497db3c4de4b6444de877ffa84699",
  "number": 46923,
  "timestamp": 1438931665,
  "nonce": "0xe9a20965cc971e4b",
  "difficulty": 1455302639663,
  "gasLimit": {
    "_hex": "0x85b1"
  },
  "gasUsed": {
    "_hex": "0x5208"
  },
  "miner": "0xF2d2AfF1320476cb8C6b607199D23175cc595693",
  "extraData": "0x476574682f76312e302e312f77696e646f77732f676f312e342e32",
  "transactions": [
    {
      "hash": "0x82a2b891f16cc6265f9da7c79c2ec710a36ad056306c4304590c2212b6d1ff97",
      "blockHash": "0xb8d9bdcec2cf2fc53d053bd31829b2fa35c73217ad089f91129aa9464a9d9267",
      "blockNumber": 46923,
      "transactionIndex": 0,
      "confirmations": null,
      "from": "0xe6A7a1d47ff21B6321162AEA7C6CB457D5476Bca",
      "gasPrice": {
        "_hex": "0xcec7b8cf1"
      },
      "gasLimit": {
        "_hex": "0x5208"
      },
      "to": "0xAcE365e4cD93314Ccf1C389F17216FFC5966BB1F",
      "value": {
        "_hex": "0x184cc43f33bce968"
      },
      "nonce": 21,
      "data": "0x",
      "r": "0xc37f4d2612b0eb664b3f75b4daec74f6fb8c799cbfdad122206690afd90a95fa",
      "s": "0x68950a9e2366ea8ac7bac9085df3ae08feb0a79cb87c6859350d9f1b09de50d6",
      "v": 28,
      "creates": null,
      "raw": "0xf86c15850cec7b8cf182520894ace365e4cd93314ccf1c389f17216ffc5966bb1f88184cc43f33bce968801ca0c37f4d2612b0eb664b3f75b4daec74f6fb8c799cbfdad122206690afd90a95faa068950a9e2366ea8ac7bac9085df3ae08feb0a79cb87c6859350d9f1b09de50d6",
      "networkId": 0,
      "chainId": 0
    }
  ]
}