{
  "hash": "0x3f27351c51e71e40f4fd15ca599318a04a035111d8856f7860cfc37a1f15456b",
  "parentHash": "0x7a07d02ae89be1ace2f80589f6ab2617cc0fe65c99d010b1f852322ec066064b",
  "number": 108291,
  "timestamp": 1439937871,
  "nonce": "0x74a782c8545fd8c9",
  "difficulty": 4346890792962,
  "gasLimit": {
    "_hex": "0x2fefd8"
  },
  "gasUsed": {
    "_hex": "0x5208"
  },
  "miner": "0xf8E0CA3Ed80bd541b94BEdCf259e8CF2141A9523",
  "extraData": "0x476574682f76312e302e312f77696e646f77732f676f312e342e32",
  "transactions": [
    {
      "hash": "0x5210ac38db3aafc01f21b332d13b9eeebf3a2a91f63981bedf1ec633f53c51ff",
      "blockHash": "0x3f27351c51e71e40f4fd15ca599318a04a035111d8856f7860cfc37a1f15456b",
      "blockNumber": 108291,
      "transactionIndex": 0,
      "confirmations": null,
      "from": "0x6c62451A24cE7F7E2D068e72E72E0bA9d7a125Ad",
      "gasPrice": {
        "_hex": "0xd2efede0f"
      },
      "gasLimit": {
        "_hex": "0x7530"
      },
      "to": "0x6De181Fc4C140FA31F196e5393516c49EEeBdAd3",
      "value": {
        "_hex": "0x465c4223533b0000"
      },
      "nonce": 4,
      "data": "0x",
      "r": "0xba4fcb7dfefb6d3ce8072db7cceed30afee7b842e2aab73af7b158f151de1ce3",
      "s": "0x206789a53a21b06ef15f17b6fcc03da7f8a6cce6df03651a9cb4f2d1ad665cf3",
      "v": 27,
      "creates": null,
      "raw": "0xf86c04850d2efede0f827530946de181fc4c140fa31f196e5393516c49eeebdad388465c4223533b0000801ba0ba4fcb7dfefb6d3ce8072db7cceed30afee7b842e2aab73af7b158f151de1ce3a0206789a53a21b06ef15f17b6fcc03da7f8a6cce6df03651a9cb4f2d1ad665cf3",
      "networkId": 0,
      "chainId": 0
    }
  ]
}