{
  "hash": "0x2e89ff595313d256fb003211ad0355cf1a051020f50d842eb62b0f51cad69695",
  "parentHash": "0x94922c710ce8d257b59f89d186839f91a85df678b2374dc1f8097db34ad99a60",
  "number": 115689,
  "timestamp": 1440061503,
  "nonce": "0xa84dfba63443608d",
  "difficulty": 4596152536291,
  "gasLimit": {
    "_hex": "0x2fefd8"
  },
  "gasUsed": {
    "_hex": "0x14820"
  },
  "miner": "0xe6A7a1d47ff21B6321162AEA7C6CB457D5476Bca",
  "extraData": "0x476574682f76312e302e312d38326566323666362f6c696e75782f676f312e34",
  "transactions": [
    {
      "hash": "0x0aeecd1ed5fbdad8d833e28ee5ac0d1fcb3fc59c2b1aa8440864accbd5d7c027",
      "blockHash": "0x2e89ff595313d256fb003211ad0355cf1a051020f50d842eb62b0f51cad69695",
      "blockNumber": 115689,
      "transactionIndex": 0,
      "confirmations": null,
      "from": "0xb3CC69408eC546ee9456C438de4aeEF160Dd2d26",
      "gasPrice": {
        "_hex": "0xdfbd43285"
      },
      "gasLimit": {
        "_hex": "0x15f90"
      },
      "to": "0x9d6F31567576812E0Fbb7a44398e3Abe1A7fAD7f",
      "value": {
        "_hex": "0x5aa14a038092ee0"
      },
      "nonce": 0,
      "data": "0x",
      "r": "0x5eb99b9c118c697fe8b372730ffd48ec186aabdd9544a1b3f6dbe36afc93c73d",
      "s": "0x1f7665043664a8c51aa423bc1167308fb58e7bd4b9e5295c22f0a23afb445a4a",
      "v": 28,
      "creates": null,
      "raw": "0xf86d80850dfbd4328583015f90949d6f31567576812e0fbb7a44398e3abe1a7fad7f8805aa14a038092ee0801ca05eb99b9c118c697fe8b372730ffd48ec186aabdd9544a1b3f6dbe36afc93c73da01f7665043664a8c51aa423bc1167308fb58e7bd4b9e5295c22f0a23afb445a4a",
      "networkId": 0,
      "chainId": 0
    },
    {
      "hash": "0x5cb3f0d0d875dacd7d8045dc10a71a806cca833d6d339239c57e0175e6591308",
      "blockHash": "0x2e89ff595313d256fb003211ad0355cf1a051020f50d842eb62b0f51cad69695",
      "blockNumber": 115689,
      "transactionIndex": 1,
      "confirmations": null,
      "from": "0x32Be343B94f860124dC4fEe278FDCBD38C102D88",
      "gasPrice": {
        "_hex": "0xd9e8e7d5e"
      },
      "gasLimit": {
        "_hex": "0x5208"
      },
      "to": "0x2071130408d9aAf3D5D65953118c3FE37aCB8D04",
      "value": {
        "_hex": "0x123d3cdee115a00000"
      },
      "nonce": 1443,
      "data": "0x",
      "r": "0x4dcf313073044bb49287a47f2ccdfe67ef9269e752243eca957cc268def348ee",
      "s": "0x4b5af2839f1aae4b2004aba390c6e257a274b4cfe6f999fab0323af5db6b4846",
      "v": 27,
      "creates": null,
      "raw": "0xf86f8205a3850d9e8e7d5e825208942071130408d9aaf3d5d65953118c3fe37acb8d0489123d3cdee115a00000801ba04dcf313073044bb49287a47f2ccdfe67ef9269e752243eca957cc268def348eea04b5af2839f1aae4b2004aba390c6e257a274b4cfe6f999fab0323af5db6b4846",
      "networkId": 0,
      "chainId": 0
    },
    {
      "hash": "0xc71ae391e9a4a7f3d60b9fc22cfd3a020cd131f136ae1f8aa221c7783b2e1608",
      "blockHash": "0x2e89ff595313d256fb003211ad0355cf1a051020f50d842eb62b0f51cad69695",
      "blockNumber": 115689,
      "transactionIndex": 2,
      "confirmations": null,
      "from": "0x32Be343B94f860124dC4fEe278FDCBD38C102D88",
      "gasPrice": {
        "_hex": "0xd9e8e7d5e"
      },
      "gasLimit": {
        "_hex": "0x5208"
      },
      "to": "0x53BaC213A469D246927FF2525bB2cefb54f0CAED",
      "value": {
        "_hex": "0xf7a534fd0e7e800"
      },
      "nonce": 1444,
      "data": "0x",
      "r": "0xa026073656a878aa5c59657fcd0052053098c484d6c6146b2bcd7253b8806c7c",
      "s": "0x1e2de2027bfa8ea1c31b191f7682ce94bbb611a927f22b819221482c800aab34",
      "v": 28,
      "creates": null,
      "raw": "0xf86e8205a4850d9e8e7d5e8252089453bac213a469d246927ff2525bb2cefb54f0caed880f7a534fd0e7e800801ca0a026073656a878aa5c59657fcd0052053098c484d6c6146b2bcd7253b8806c7ca01e2de2027bfa8ea1c31b191f7682ce94bbb611a927f22b819221482c800aab34",
      "networkId": 0,
      "chainId": 0
    },
    {
      "hash": "0xa96e1c9c857cfd595d03ea03fc90cc5e9207f77e370080effae2628ecc72109c",
      "blockHash": "0x2e89ff595313d256fb003211ad0355cf1a051020f50d842eb62b0f51cad69695",
      "blockNumber": 115689,
      "transactionIndex": 3,
      "confirmations": null,
      "from": "0xE996d36DB289Ef8D9F0a9f9a903cc42fEA50CD4E",
      "gasPrice": {
        "_hex": "0xba43b7400"
      },
      "gasLimit": {
        "_hex": "0x5208"
      },
      "to": "0xC47Aaa860008be6f65B58c6C6E02a84e666EfE31",
      "value": {
        "_hex": "0x1b6e4812ac3cbfa0"
      },
      "nonce": 7,
      "data": "0x",
      "r": "0x8a9b16b804ab8b153e381dac329e9136d65ea21925182fe5b34ab5de561d4f33",
      "s": "0x137c31f94ddb3ca5c5d86b5a73cd5e3ebad973a522e3290f5c0a240d38357988",
      "v": 27,
      "creates": null,
      "raw": "0xf86c07850ba43b740082520894c47aaa860008be6f65b58c6c6e02a84e666efe31881b6e4812ac3cbfa0801ba08a9b16b804ab8b153e381dac329e9136d65ea21925182fe5b34ab5de561d4f33a0137c31f94ddb3ca5c5d86b5a73cd5e3ebad973a522e3290f5c0a240d38357988",
      "networkId": 0,
      "chainId": 0
    }
  ]
}