{
  "hash": "0x5dee9b6ee97940a9e9f736accdd7b9f299476ed8f535484e039a69953817169e",
  "parentHash": "0xd812eb23541901d8ada7d629f5e2bfdc922acabcb3b2cff219e71c5ec13ea860",
  "number": 66738,
  "timestamp": 1439259551,
  "nonce": "0xa54dbaaefb7ee4dc",
  "difficulty": 1943238042328,
  "gasLimit": {
    "_hex": "0x2fefd8"
  },
  "gasUsed": {
    "_hex": "0x5208"
  },
  "miner": "0xf927a40C8B7F6E07c5af7FA2155B4864a4112B13",
  "extraData": "0x",
  "transactions": [
    {
      "hash": "0x236a03ec9ff7aeb14a099fbd839bdfbd83c14e2fde400c9f768358971f6a2a32",
      "blockHash": "0x5dee9b6ee97940a9e9f736accdd7b9f299476ed8f535484e039a69953817169e",
      "blockNumber": 66738,
      "transactionIndex": 0,
      "confirmations": null,
      "from": "0xc3631c7698b6C5111989BF452727B3f9395a6deA",
      "gasPrice": {
        "_hex": "0x45d964b800"
      },
      "gasLimit": {
        "_hex": "0x5208"
      },
      "to": "0x17f8255F73211f9129a7E93250e8B7DF5D7F752d",
      "value": {
        "_hex": "0x4563918244f40000"
      },
      "nonce": 2,
      "data": "0x",
      "r": "0x5f1f51bafbc54797a0145128452c9b1dbce3b083083802f94b0e14c382d39426",
      "s": "0x5e117c3ac6da291a269c6b447ba8f0368c043a8da985c0f8ef76f131c68af36d",
      "v": 27,
      "creates": null,
      "raw": "0xf86c028545d964b8008252089417f8255f73211f9129a7e93250e8b7df5d7f752d884563918244f40000801ba05f1f51bafbc54797a0145128452c9b1dbce3b083083802f94b0e14c382d39426a05e117c3ac6da291a269c6b447ba8f0368c043a8da985c0f8ef76f131c68af36d",
      "networkId": 0,
      "chainId": 0
    }
  ]
}