{
  "hash": "0xee96eda89ca46f583c7b985d0cf24dc239857d90a4db74aa2e0b103d8367954d",
  "parentHash": "0x4d2dfdd6f44b1f31138e68d3fa360a527bbbaea09a207fb664d4b383dccc9b7c",
  "number": 69293,
  "timestamp": 1439301408,
  "nonce": "0x9154b6041e5742f6",
  "difficulty": 2062893676360,
  "gasLimit": {
    "_hex": "0x2fefd8"
  },
  "gasUsed": {
    "_hex": "0x2e248"
  },
  "miner": "0x0eDEd3DA479d0beF8eeC92A76644D3f4E3C177f7",
  "extraData": "0x476574682f76312e302e312f6c696e75782f676f312e342e32",
  "transactions": [
    {
      "hash": "0x79c57a25abd60933a7de66471bb06c046139d67db72e01fb955e5d502153649d",
      "blockHash": "0xee96eda89ca46f583c7b985d0cf24dc239857d90a4db74aa2e0b103d8367954d",
      "blockNumber": 69293,
      "transactionIndex": 0,
      "confirmations": null,
      "from": "0x771b12Bc207A1c4823e77075B17F8D329ACD77A3",
      "gasPrice": {
        "_hex": "0xd6b8fbd1f"
      },
      "gasLimit": {
        "_hex": "0x5208"
      },
      "to": "0x32Be343B94f860124dC4fEe278FDCBD38C102D88",
      "value": {
        "_hex": "0xb399e5ea9a51f000"
      },
      "nonce": 1,
      "data": "0x",
      "r": "0x19f189745f5ef8068c758781977de079c69981889574789678aab028664c9036",
      "s": "0x7f5ba4032bdf2ac83723b8ceb3f5634309d0fea4a8667458c63a1089f0c7c8bf",
      "v": 27,
      "creates": null,
      "raw": "0xf86c01850d6b8fbd1f8252089432be343b94f860124dc4fee278fdcbd38c102d8888b399e5ea9a51f000801ba019f189745f5ef8068c758781977de079c69981889574789678aab028664c9036a07f5ba4032bdf2ac83723b8ceb3f5634309d0fea4a8667458c63a1089f0c7c8bf",
      "networkId": 0,
      "chainId": 0
    },
    {
      "hash": "0x86ec4cd6d0c63a4956f12a79d6620d1b9eb9ead0502123ecb86a060eabaefbb4",
      "blockHash": "0xee96eda89ca46f583c7b985d0cf24dc239857d90a4db74aa2e0b103d8367954d",
      "blockNumber": 69293,
      "transactionIndex": 1,
      "confirmations": null,
      "from": "0x86d3856ad0105B9d4199936c1fd203664BA325dC",
      "gasPrice": {
        "_hex": "0xd6b8fbd1f"
      },
      "gasLimit": {
        "_hex": "0x5208"
      },
      "to": "0x32Be343B94f860124dC4fEe278FDCBD38C102D88",
      "value": {
        "_hex": "0x99c9587c87d6b000"
      },
      "nonce": 9,
      "data": "0x",
      "r": "0x947eae2e5bd132758db2c420d830e380bbae7d2c752b7563c65e058df7663cdf",
      "s": "0x7e08c25aabb7de089078e658a3e0ff929636e03e0081853b5050c5d0bb742e06",
      "v": 27,
      "creates": null,
      "raw": "0xf86c09850d6b8fbd1f8252089432be343b94f860124dc4fee278fdcbd38c102d888899c9587c87d6b000801ba0947eae2e5bd132758db2c420d830e380bbae7d2c752b7563c65e058df7663cdfa07e08c25aabb7de089078e658a3e0ff929636e03e0081853b5050c5d0bb742e06",
      "networkId": 0,
      "chainId": 0
    },
    {
      "hash": "0xb9641616f68588eaacce81420e55eeea289e832256df55c3aa2a9c6fde801029",
      "blockHash": "0xee96eda89ca46f583c7b985d0cf24dc239857d90a4db74aa2e0b103d8367954d",
      "blockNumber": 69293,
      "transactionIndex": 2,
      "confirmations": null,
      "from": "0xc0920452d99591a4e8b190632c52754c72F73328",
      "gasPrice": {
        "_hex": "0xd6b8fbd1f"
      },
      "gasLimit": {
        "_hex": "0x5208"
      },
      "to": "0x32Be343B94f860124dC4fEe278FDCBD38C102D88",
      "value": {
        "_hex": "0x7937e7e44ab06400"
      },
      "nonce": 1,
      "data": "0x",
      "r": "0x0d8960b98223235000edc5128da69929e82ca75b92bf62c33589c69130764ce5",
      "s": "0x51a7b1ff6d6c1b8dee8fa7ab395e635eb8f6c68b9ad09537bede517c6c3a674d",
      "v": 27,
      "creates": null,
      "raw": "0xf86c01850d6b8fbd1f8252089432be343b94f860124dc4fee278fdcbd38c102d88887937e7e44ab06400801ba00d8960b98223235000edc5128da69929e82ca75b92bf62c33589c69130764ce5a051a7b1ff6d6c1b8dee8fa7ab395e635eb8f6c68b9ad09537bede517c6c3a674d",
      "networkId": 0,
      "chainId": 0
    },
    {
      "hash": "0x1153d0fb22fb16d77f0a46434be1e236fbefbd5d34b46c5db7e4b3f506538403",
      "blockHash": "0xee96eda89ca46f583c7b985d0cf24dc239857d90a4db74aa2e0b103d8367954d",
      "blockNumber": 69293,
      "transactionIndex": 3,
      "confirmations": null,
      "from": "0x27e806e70622d2864e1B1f4426D72FFb0457C83a",
      "gasPrice": {
        "_hex": "0xd6b8fbd1f"
      },
      "gasLimit": {
        "_hex": "0x5208"
      },
      "to": "0x32Be343B94f860124dC4fEe278FDCBD38C102D88",
      "value": {
        "_hex": "0x82a537f6faf91000"
      },
      "nonce": 8,
      "data": "0x",
      "r": "0x337cbc632e698b0f74db56158c330d034249da4f21fb63cf9656c0b08d147d1b",
      "s": "0x7833af1ccdb2b50954f7b8f45840ab8aa67becef026f4fd4028df381b2957ead",
      "v": 28,
      "creates": null,
      "raw": "0xf86c08850d6b8fbd1f8252089432be343b94f860124dc4fee278fdcbd38c102d888882a537f6faf91000801ca0337cbc632e698b0f74db56158c330d034249da4f21fb63cf9656c0b08d147d1ba07833af1ccdb2b50954f7b8f45840ab8aa67becef026f4fd4028df381b2957ead",
      "networkId": 0,
      "chainId": 0
    },
    {
      "hash": "0x59e148641958e717c169c85dede0cb9c7f65662e41b10bcbc954a28a2f3a6f40",
      "blockHash": "0xee96eda89ca46f583c7b985d0cf24dc239857d90a4db74aa2e0b103d8367954d",
      "blockNumber": 69293,
      "transactionIndex": 4,
      "confirmations": null,
      "from": "0x6111E933E5e6297DFd0AAd9aAB64017c69062a08",
      "gasPrice": {
        "_hex": "0xd6b8fbd1f"
      },
      "gasLimit": {
        "_hex": "0x5208"
      },
      "to": "0x32Be343B94f860124dC4fEe278FDCBD38C102D88",
      "value": {
        "_hex": "0x562763ce850aac00"
      },
      "nonce": 9,
      "data": "0x",
      "r": "0xd5fa30ef8ca0093051c297502942ecd2e6e4b9a76cc70b6f5fb184a5340aeb21",
      "s": "0x4362a6114e20774ae095db9a946e2f1968933d14f21610c446dc8ee225240592",
      "v": 28,
      "creates": null,
      "raw": "0xf86c09850d6b8fbd1f8252089432be343b94f860124dc4fee278fdcbd38c102d8888562763ce850aac00801ca0d5fa30ef8ca0093051c297502942ecd2e6e4b9a76cc70b6f5fb184a5340aeb21a04362a6114e20774ae095db9a946e2f1968933d14f21610c446dc8ee225240592",
      "networkId": 0,
      "chainId": 0
    },
    {
      "hash": "0x69c83cc322f1339bb09e63f8e1e477f06345b8749764f2903c5d3ab0b74d5c36",
      "blockHash": "0xee96eda89ca46f583c7b985d0cf24dc239857d90a4db74aa2e0b103d8367954d",
      "blockNumber": 69293,
      "transactionIndex": 5,
      "confirmations": null,
      "from": "0x6c716b5177cC5c983057af4D88F7152ebA2CC0a6",
      "gasPrice": {
        "_hex": "0xd6b8fbd1f"
      },
      "gasLimit": {
        "_hex": "0x5208"
      },
      "to": "0x32Be343B94f860124dC4fEe278FDCBD38C102D88",
      "value": {
        "_hex": "0x7666137a471cf000"
      },
      "nonce": 1,
      "data": "0x",
      "r": "0x9b96a00e563167099a25bbf3fb7f186941891e048a287b3d1a9a06ac2603150b",
      "s": "0x140155dbda9fe7eb0ab17aa8c2077a5a04ae9866852d3f211805fcb1467d2b50",
      "v": 28,
      "creates": null,
      "raw": "0xf86c01850d6b8fbd1f8252089432be343b94f860124dc4fee278fdcbd38c102d88887666137a471cf000801ca09b96a00e563167099a25bbf3fb7f186941891e048a287b3d1a9a06ac2603150ba0140155dbda9fe7eb0ab17aa8c2077a5a04ae9866852d3f211805fcb1467d2b50",
      "networkId": 0,
      "chainId": 0
    },
    {
      "hash": "0x9910c84ed171d411ec3c641f1d2973e0f04d5254a12bca71fdd6a8456d810daa",
      "blockHash": "0xee96eda89ca46f583c7b985d0cf24dc239857d90a4db74aa2e0b103d8367954d",
      "blockNumber": 69293,
      "transactionIndex": 6,
      "confirmations": null,
      "from": "0xF0224ea727d4924A8dd69a8d2d473Cc4c3590423",
      "gasPrice": {
        "_hex": "0xd6b8fbd1f"
      },
      "gasLimit": {
        "_hex": "0x5208"
      },
      "to": "0x32Be343B94f860124dC4fEe278FDCBD38C102D88",
      "value": {
        "_hex": "0x923917dcba8c8000"
      },
      "nonce": 4,
      "data": "0x",
      "r": "0xd10980e0a6314978440a55ffb6423fb2384febcab6eaea034ac86e96fe2a73f6",
      "s": "0x6b3e5c9535784d88b3c290116a81ec693d1c7bf1dabddd1ba1e97015ecc0c8d8",
      "v": 28,
      "creates": null,
      "raw": "0xf86c04850d6b8fbd1f8252089432be343b94f860124dc4fee278fdcbd38c102d8888923917dcba8c8000801ca0d10980e0a6314978440a55ffb6423fb2384febcab6eaea034ac86e96fe2a73f6a06b3e5c9535784d88b3c290116a81ec693d1c7bf1dabddd1ba1e97015ecc0c8d8",
      "networkId": 0,
      "chainId": 0
    },
    {
      "hash": "0x727f53627ec8bb4b010e34e1c1e24de838368ce766e54b3428d04caa90ad24f0",
      "blockHash": "0xee96eda89ca46f583c7b985d0cf24dc239857d90a4db74aa2e0b103d8367954d",
      "blockNumber": 69293,
      "transactionIndex": 7,
      "confirmations": null,
      "from": "0xBFdD9820a04283b289957956353b5F3C1F665EcF",
      "gasPrice": {
        "_hex": "0xd6b8fbd1f"
      },
      "gasLimit": {
        "_hex": "0x5208"
      },
      "to": "0x32Be343B94f860124dC4fEe278FDCBD38C102D88",
      "value": {
        "_hex": "0xae7dc1ccca4fa800"
      },
      "nonce": 24,
      "data": "0x",
      "r": "0x93b43a96381b8d01ef6477004665b22e64df05cc20dacd303c31e23ceacc86d5",
      "s": "0x1a989fb879cc040da44b64ba70c1c603053fd341d1901dc0ff43bbced9a0cdae",
      "v": 28,
      "creates": null,
      "raw": "0xf86c18850d6b8fbd1f8252089432be343b94f860124dc4fee278fdcbd38c102d8888ae7dc1ccca4fa800801ca093b43a96381b8d01ef6477004665b22e64df05cc20dacd303c31e23ceacc86d5a01a989fb879cc040da44b64ba70c1c603053fd341d1901dc0ff43bbced9a0cdae",
      "networkId": 0,
      "chainId": 0
    },
    {
      "hash": "0xeb97dbddff9f4e7f2ffc1223104dbc958c5cfee88cbf62820437bdc95d3b8adb",
      "blockHash": "0xee96eda89ca46f583c7b985d0cf24dc239857d90a4db74aa2e0b103d8367954d",
      "blockNumber": 69293,
      "transactionIndex": 8,
      "confirmations": null,
      "from": "0xdCB14605B0EE4F372D223e5DF87aa9e760886D01",
      "gasPrice": {
        "_hex": "0xd6b8fbd1f"
      },
      "gasLimit": {
        "_hex": "0x5208"
      },
      "to": "0x32Be343B94f860124dC4fEe278FDCBD38C102D88",
      "value": {
        "_hex": "0x1a60e44efb4c1a000"
      },
      "nonce": 1,
      "data": "0x",
      "r": "0x0edf7060dec28350c88e0362dd3acdcc0e4756fd36bbfdb4db0913531e03fa86",
      "s": "0x58de34e8a5c35c04053730e23a7753270824faea91342c4c033001de26628c36",
      "v": 28,
      "creates": null,
      "raw": "0xf86d01850d6b8fbd1f8252089432be343b94f860124dc4fee278fdcbd38c102d888901a60e44efb4c1a000801ca00edf7060dec28350c88e0362dd3acdcc0e4756fd36bbfdb4db0913531e03fa86a058de34e8a5c35c04053730e23a7753270824faea91342c4c033001de26628c36",
      "networkId": 0,
      "chainId": 0
    }
  ]
}