{
  "hash": "0x35ebf8697b023b9489cdd8a8e32e5afc68cf010475c735d9cb70b48f9b8891a7",
  "parentHash": "0x1a327ade4221dd35db83e6ac2c1628e5be4d6febb29793f955c9264e54e16fe3",
  "number": 69052,
  "timestamp": 1439297660,
  "nonce": "0xaf56eb2b1b737907",
  "difficulty": 2045899696095,
  "gasLimit": {
    "_hex": "0x2fefd8"
  },
  "gasUsed": {
    "_hex": "0x77038"
  },
  "miner": "0x57a5156876AA9d5bA611Db7871966a2a8c1D8f4e",
  "extraData": "0x476574682f76312e302e312d38326566323666362f6c696e75782f676f312e34",
  "transactions": [
    {
      "hash": "0x3a2d1e3a89f288eb8edd3e2431f3c98c1a25c8b00d82b38160d359dbd6bfa99b",
      "blockHash": "0x35ebf8697b023b9489cdd8a8e32e5afc68cf010475c735d9cb70b48f9b8891a7",
      "blockNumber": 69052,
      "transactionIndex": 0,
      "confirmations": null,
      "from": "0x7b4de5Fc7575f1D756Bd1c8b9fc61FC06627fda3",
      "gasPrice": {
        "_hex": "0xba43b7400"
      },
      "gasLimit": {
        "_hex": "0x15f90"
      },
      "to": "0x793AE8C1b1a160BFc07BFB0d04F85eab1A71F4f2",
      "value": {
        "_hex": "0x0"
      },
      "nonce": 0,
      "data": "0x3ba15036",
      "r": "0x5dce1d396eecfca641cddd090c0b5a114cfea107eef92512f39bad16ab4b654d",
      "s": "0x48091fba93dec81b5d09d4c2a1ce5877b42db47fb17773bf659efa33f9ce466f",
      "v": 28,
      "creates": null,
      "raw": "0xf86980850ba43b740083015f9094793ae8c1b1a160bfc07bfb0d04f85eab1a71f4f280843ba150361ca05dce1d396eecfca641cddd090c0b5a114cfea107eef92512f39bad16ab4b654da048091fba93dec81b5d09d4c2a1ce5877b42db47fb17773bf659efa33f9ce466f",
      "networkId": 0,
      "chainId": 0
    },
    {
      "hash": "0xc8b6f633c2d67432c8b1411c8384934451830c3b49e03bca6867822f01478643",
      "blockHash": "0x35ebf8697b023b9489cdd8a8e32e5afc68cf010475c735d9cb70b48f9b8891a7",
      "blockNumber": 69052,
      "transactionIndex": 1,
      "confirmations": null,
      "from": "0xb06898f947C6b6C62478876B1D3E1C7e048d4FB2",
      "gasPrice": {
        "_hex": "0xba43b7400"
      },
      "gasLimit": {
        "_hex": "0x15f90"
      },
      "to": "0x793AE8C1b1a160BFc07BFB0d04F85eab1A71F4f2",
      "value": {
        "_hex": "0x0"
      },
      "nonce": 0,
      "data": "0x3ba15036",
      "r": "0xc7e046902d3d96d613fcc7037035b5aa91995040222f0a9ab70c47e83074423d",
      "s": "0x6296c5a946cbe57d77add63d85aa47778cc23799d15f9877aa62f80e9fcbd64a",
      "v": 28,
      "creates": null,
      "raw": "0xf86980850ba43b740083015f9094793ae8c1b1a160bfc07bfb0d04f85eab1a71f4f280843ba150361ca0c7e046902d3d96d613fcc7037035b5aa91995040222f0a9ab70c47e83074423da06296c5a946cbe57d77add63d85aa47778cc23799d15f9877aa62f80e9fcbd64a",
      "networkId": 0,
      "chainId": 0
    },
    {
      "hash": "0xa2dece5fb7f473c0677aaab3d13b62cfa0a648eb1c4cdd469b1c71e9e29b6f19",
      "blockHash": "0x35ebf8697b023b9489cdd8a8e32e5afc68cf010475c735d9cb70b48f9b8891a7",
      "blockNumber": 69052,
      "transactionIndex": 2,
      "confirmations": null,
      "from": "0x91E957ec7695E56580f2054B11E219b0cB715143",
      "gasPrice": {
        "_hex": "0xba43b7400"
      },
      "gasLimit": {
        "_hex": "0x15f90"
      },
      "to": "0x793AE8C1b1a160BFc07BFB0d04F85eab1A71F4f2",
      "value": {
        "_hex": "0x0"
      },
      "nonce": 0,
      "data": "0x3ba15036",
      "r": "0xbe633d70d401c397f38c59e605c6534d451aaf29efb2b96a614a51d863d292ed",
      "s": "0x6ce87a366e2111aa2a9342a6827a8c4328e4bffbeaaa8030e5241812b7547009",
      "v": 28,
      "creates": null,
      "raw": "0xf86980850ba43b740083015f9094793ae8c1b1a160bfc07bfb0d04f85eab1a71f4f280843ba150361ca0be633d70d401c397f38c59e605c6534d451aaf29efb2b96a614a51d863d292eda06ce87a366e2111aa2a9342a6827a8c4328e4bffbeaaa8030e5241812b7547009",
      "networkId": 0,
      "chainId": 0
    },
    {
      "hash": "0x966687144a54623acf74f0c265a0acdd11109d9797fdf7f5ec6537b6a247ba65",
      "blockHash": "0x35ebf8697b023b9489cdd8a8e32e5afc68cf010475c735d9cb70b48f9b8891a7",
      "blockNumber": 69052,
      "transactionIndex": 3,
      "confirmations": null,
      "from": "0xEf66A09402A2C5145A8BEd03B090384eC606cB36",
      "gasPrice": {
        "_hex": "0xba43b7400"
      },
      "gasLimit": {
        "_hex": "0x15f90"
      },
      "to": "0x793AE8C1b1a160BFc07BFB0d04F85eab1A71F4f2",
      "value": {
        "_hex": "0x0"
      },
      "nonce": 0,
      "data": "0x3ba15036",
      "r": "0x0874b74640e44ba035c94fb67854b3ee92ed219eabc6d94febffbb69da6459b9",
      "s": "0x40b85fed9f61aaf0a3d3e54c115d6e31c7967547e5641e2d80e6ba0690218be6",
      "v": 28,
      "creates": null,
      "raw": "0xf86980850ba43b740083015f9094793ae8c1b1a160bfc07bfb0d04f85eab1a71f4f280843ba150361ca00874b74640e44ba035c94fb67854b3ee92ed219eabc6d94febffbb69da6459b9a040b85fed9f61aaf0a3d3e54c115d6e31c7967547e5641e2d80e6ba0690218be6",
      "networkId": 0,
      "chainId": 0
    },
    {
      "hash": "0x5663009b3dd03d85ade45dad04bc5228438f3b29a20276226f8d1aac022b0ebc",
      "blockHash": "0x35ebf8697b023b9489cdd8a8e32e5afc68cf010475c735d9cb70b48f9b8891a7",
      "blockNumber": 69052,
      "transactionIndex": 4,
      "confirmations": null,
      "from": "0xC354a40f878A4BA3B67de48aC439BcE75602EC79",
      "gasPrice": {
        "_hex": "0xba43b7400"
      },
      "gasLimit": {
        "_hex": "0x15f90"
      },
      "to": "0x793AE8C1b1a160BFc07BFB0d04F85eab1A71F4f2",
      "value": {
        "_hex": "0x0"
      },
      "nonce": 0,
      "data": "0x3ba15036",
      "r": "0xddd93d7a1c780484df6bd4f348609b145ca203951e3c6110e16b353a0c6fe32d",
      "s": "0x2c2e804966255ce70d579237238b807163b4a276565918780d2adbfb8dbbdfad",
      "v": 27,
      "creates": null,
      "raw": "0xf86980850ba43b740083015f9094793ae8c1b1a160bfc07bfb0d04f85eab1a71f4f280843ba150361ba0ddd93d7a1c780484df6bd4f348609b145ca203951e3c6110e16b353a0c6fe32da02c2e804966255ce70d579237238b807163b4a276565918780d2adbfb8dbbdfad",
      "networkId": 0,
      "chainId": 0
    },
    {
      "hash": "0x8412e4a454d9f22ac52277dc0a9327e9113b6f95c2c58661b15671838b05c7fb",
      "blockHash": "0x35ebf8697b023b9489cdd8a8e32e5afc68cf010475c735d9cb70b48f9b8891a7",
      "blockNumber": 69052,
      "transactionIndex": 5,
      "confirmations": null,
      "from": "0x351B2EBc24b53B5C8C91036cC716DBc9b3eC14Ea",
      "gasPrice": {
        "_hex": "0xba43b7400"
      },
      "gasLimit": {
        "_hex": "0x15f90"
      },
      "to": "0x793AE8C1b1a160BFc07BFB0d04F85eab1A71F4f2",
      "value": {
        "_hex": "0x0"
      },
      "nonce": 0,
      "data": "0x3ba15036",
      "r": "0x3af9e81844f5b025bbbee83cc3ff461018344ca3de15f81e83f9b947697e443d",
      "s": "0x7ad4cdb01d602d9acd719e15c9d4e3c9658ba76e20a7f7de471a9e1976b4c03f",
      "v": 27,
      "creates": null,
      "raw": "0xf86980850ba43b740083015f9094793ae8c1b1a160bfc07bfb0d04f85eab1a71f4f280843ba150361ba03af9e81844f5b025bbbee83cc3ff461018344ca3de15f81e83f9b947697e443da07ad4cdb01d602d9acd719e15c9d4e3c9658ba76e20a7f7de471a9e1976b4c03f",
      "networkId": 0,
      "chainId": 0
    },
    {
      "hash": "0x77325a7f0d79b296c7753da214162f0689d94928547492a8b4ef2f1a66c830f9",
      "blockHash": "0x35ebf8697b023b9489cdd8a8e32e5afc68cf010475c735d9cb70b48f9b8891a7",
      "blockNumber": 69052,
      "transactionIndex": 6,
      "confirmations": null,
      "from": "0x96c462f6FA92Af4c98FE1D0F61CdFe984a8079B4",
      "gasPrice": {
        "_hex": "0xba43b7400"
      },
      "gasLimit": {
        "_hex": "0x15f90"
      },
      "to": "0x793AE8C1b1a160BFc07BFB0d04F85eab1A71F4f2",
      "value": {
        "_hex": "0x0"
      },
      "nonce": 0,
      "data": "0x3ba15036",
      "r": "0x8dab44bf0f1a101d6f10356a81c7c11baaa5aaeb00d5a55a7aae48611ca7ff17",
      "s": "0x7877b6cdb181b2cb2c5f47871776480ec0c4252f1cb6dee1ad5085b77dc2028b",
      "v": 27,
      "creates": null,
      "raw": "0xf86980850ba43b740083015f9094793ae8c1b1a160bfc07bfb0d04f85eab1a71f4f280843ba150361ba08dab44bf0f1a101d6f10356a81c7c11baaa5aaeb00d5a55a7aae48611ca7ff17a07877b6cdb181b2cb2c5f47871776480ec0c4252f1cb6dee1ad5085b77dc2028b",
      "networkId": 0,
      "chainId": 0
    },
    {
      "hash": "0xd4060edbc01a188100c1e8f89ee16250bdd8b6241e1afe57f734b69a0a259db4",
      "blockHash": "0x35ebf8697b023b9489cdd8a8e32e5afc68cf010475c735d9cb70b48f9b8891a7",
      "blockNumber": 69052,
      "transactionIndex": 7,
      "confirmations": null,
      "from": "0x85bB424a82493CdB0c5703C87F2a746BC541491C",
      "gasPrice": {
        "_hex": "0xba43b7400"
      },
      "gasLimit": {
        "_hex": "0x15f90"
      },
      "to": "0x793AE8C1b1a160BFc07BFB0d04F85eab1A71F4f2",
      "value": {
        "_hex": "0x0"
      },
      "nonce": 0,
      "data": "0x3ba15036",
      "r": "0xafae8fcb069d2d80e7d9755606ecbc0f2b2cb92b4eda4b82373aaa1717477f6d",
      "s": "0x008a912980f910856fa62fff5299d7e7926ee62c8b3d78bdb843a46bbaa6abe2",
      "v": 27,
      "creates": null,
      "raw": "0xf86880850ba43b740083015f9094793ae8c1b1a160bfc07bfb0d04f85eab1a71f4f280843ba150361ba0afae8fcb069d2d80e7d9755606ecbc0f2b2cb92b4eda4b82373aaa1717477f6d9f8a912980f910856fa62fff5299d7e7926ee62c8b3d78bdb843a46bbaa6abe2",
      "networkId": 0,
      "chainId": 0
    },
    {
      "hash": "0x1c25e50f0224e6ee0d98001218c2204c4bd882dfa314173ced78be063a92c69c",
      "blockHash": "0x35ebf8697b023b9489cdd8a8e32e5afc68cf010475c735d9cb70b48f9b8891a7",
      "blockNumber": 69052,
      "transactionIndex": 8,
      "confirmations": null,
      "from": "0xDe58c8c85739a541929b15C3Da43EA7841c17Ba6",
      "gasPrice": {
        "_hex": "0xba43b7400"
      },
      "gasLimit": {
        "_hex": "0x15f90"
      },
      "to": "0x793AE8C1b1a160BFc07BFB0d04F85eab1A71F4f2",
      "value": {
        "_hex": "0x0"
      },
      "nonce": 0,
      "data": "0x3ba15036",
      "r": "0xf2d038e62c5e5ff165e4ab409a6554cd866b148638172e947d72d13786cc9980",
      "s": "0x4cedaa29e41cb2ecbe334b8d4d44ced49e3a7f463f580823a4959ac57a3b5fbf",
      "v": 27,
      "creates": null,
      "raw": "0xf86980850ba43b740083015f9094793ae8c1b1a160bfc07bfb0d04f85eab1a71f4f280843ba150361ba0f2d038e62c5e5ff165e4ab409a6554cd866b148638172e947d72d13786cc9980a04cedaa29e41cb2ecbe334b8d4d44ced49e3a7f463f580823a4959ac57a3b5fbf",
      "networkId": 0,
      "chainId": 0
    },
    {
      "hash": "0xe78a83278750a4fa447ff7edd60641ea02f7b548bb72beb3561144acd0e60179",
      "blockHash": "0x35ebf8697b023b9489cdd8a8e32e5afc68cf010475c735d9cb70b48f9b8891a7",
      "blockNumber": 69052,
      "transactionIndex": 9,
      "confirmations": null,
      "from": "0xd9C227Ab3613bC95C64FC85877c7c4A8288b0faB",
      "gasPrice": {
        "_hex": "0xba43b7400"
      },
      "gasLimit": {
        "_hex": "0x15f90"
      },
      "to": "0x793AE8C1b1a160BFc07BFB0d04F85eab1A71F4f2",
      "value": {
        "_hex": "0x0"
      },
      "nonce": 0,
      "data": "0x3ba15036",
      "r": "0x714e42c177af05b7e825665a0ee6a742c245e4b1012be037e042c68fa945c80d",
      "s": "0x22b32a36e2cc829e67ee394a93cb8a93128ff02c8a311f779b3d14638e7d80a9",
      "v": 28,
      "creates": null,
      "raw": "0xf86980850ba43b740083015f9094793ae8c1b1a160bfc07bfb0d04f85eab1a71f4f280843ba150361ca0714e42c177af05b7e825665a0ee6a742c245e4b1012be037e042c68fa945c80da022b32a36e2cc829e67ee394a93cb8a93128ff02c8a311f779b3d14638e7d80a9",
      "networkId": 0,
      "chainId": 0
    }
  ]
}