{
  "hash": "0xa265cf86423f222fa9f6e047dd44753d287f66ac9057f4ba5a330e4c7e6aaa76",
  "parentHash": "0x3eaecae85ee928b64b3195d14241c41591d66774e57bfa58eb9d7dc82d3c72f6",
  "number": 120965,
  "timestamp": 1440169143,
  "nonce": "0x0c9cca56c3f3a75c",
  "difficulty": 4421613432930,
  "gasLimit": {
    "_hex": "0x2fefd8"
  },
  "gasUsed": {
    "_hex": "0xa410"
  },
  "miner": "0xe6A7a1d47ff21B6321162AEA7C6CB457D5476Bca",
  "extraData": "0xd783010002844765746887676f312e342e32856c696e7578",
  "transactions": [
    {
      "hash": "0x2e1499a2ad62654338ca02c4a642b7651504c73ae9f2215b8e69cc78fba5b486",
      "blockHash": "0xa265cf86423f222fa9f6e047dd44753d287f66ac9057f4ba5a330e4c7e6aaa76",
      "blockNumber": 120965,
      "transactionIndex": 0,
      "confirmations": null,
      "from": "0xcE2b6a73E0155C41C002D0745D93D9BEd0fbD019",
      "gasPrice": {
        "_hex": "0xba43b7400"
      },
      "gasLimit": {
        "_hex": "0x5208"
      },
      "to": "0x32Be343B94f860124dC4fEe278FDCBD38C102D88",
      "value": {
        "_hex": "0xddd07ac8b5cc400"
      },
      "nonce": 4,
      "data": "0x",
      "r": "0x0c59b76dd82b8be7ceb27c22b5d8eb030ee7256deb00d5e79471931c591266a2",
      "s": "0x36f5cf2c9645f876077cbb3b2d09b169ff61e840d4a063924a9f5e767e31ffd1",
      "v": 28,
      "creates": null,
      "raw": "0xf86c04850ba43b74008252089432be343b94f860124dc4fee278fdcbd38c102d88880ddd07ac8b5cc400801ca00c59b76dd82b8be7ceb27c22b5d8eb030ee7256deb00d5e79471931c591266a2a036f5cf2c9645f876077cbb3b2d09b169ff61e840d4a063924a9f5e767e31ffd1",
      "networkId": 0,
      "chainId": 0
    },
    {
      "hash": "0xb4bfb35e57a190c3cd2856d906fb2750c3bd125df929fbc13e7a87281da838ee",
      "blockHash": "0xa265cf86423f222fa9f6e047dd44753d287f66ac9057f4ba5a330e4c7e6aaa76",
      "blockNumber": 120965,
      "transactionIndex": 1,
      "confirmations": null,
      "from": "0xa70a9a7040d542C632D8e0bE7c5513A8a5Bbc752",
      "gasPrice": {
        "_hex": "0xba43b7400"
      },
      "gasLimit": {
        "_hex": "0x5208"
      },
      "to": "0x32Be343B94f860124dC4fEe278FDCBD38C102D88",
      "value": {
        "_hex": "0x455fd68a17f06000"
      },
      "nonce": 330,
      "data": "0x",
      "r": "0x932c4ecad3a1e720713919a0e370e8ecb7c7c57edcba142746399e13e46c1afd",
      "s": "0x709c6026190a29223bd2a9518db7dea6c57dafe91ae59cee7c036ec8045daa83",
      "v": 28,
      "creates": null,
      "raw": "0xf86e82014a850ba43b74008252089432be343b94f860124dc4fee278fdcbd38c102d8888455fd68a17f06000801ca0932c4ecad3a1e720713919a0e370e8ecb7c7c57edcba142746399e13e46c1afda0709c6026190a29223bd2a9518db7dea6c57dafe91ae59cee7c036ec8045daa83",
      "networkId": 0,
      "chainId": 0
    }
  ]
}