{
  "hash": "0xce982f2bbf77dbc0873ade3336ef0f0e4e9097280a64ff28ce303ca50dbeedf6",
  "parentHash": "0x10f897643abdb35948f9b35fbaf3f802d24a7171e39e50c6649f53afde37fb16",
  "number": 46286,
  "timestamp": 1438920574,
  "nonce": "0x1a7efd068a022748",
  "difficulty": 1463251346304,
  "gasLimit": {
    "_hex": "0x5828"
  },
  "gasUsed": {
    "_hex": "0x5208"
  },
  "miner": "0xf927a40C8B7F6E07c5af7FA2155B4864a4112B13",
  "extraData": "0x476574682f76312e302e312f6c696e75782f676f312e342e32",
  "transactions": [
    {
      "hash": "0x6f240638f16616dbf658cbaac4bc472b79cfb880038300d1cd8b0abd04f6735e",
      "blockHash": "0xce982f2bbf77dbc0873ade3336ef0f0e4e9097280a64ff28ce303ca50dbeedf6",
      "blockNumber": 46286,
      "transactionIndex": 0,
      "confirmations": null,
      "from": "0x9E0Afd592B1e40BEe26816E360f02eebF04aD74B",
      "gasPrice": {
        "_hex": "0x22ecb25c00"
      },
      "gasLimit": {
        "_hex": "0x5208"
      },
      "to": "0x81c039692a575005F2f5F26C6F69DbA26a8F6408",
      "value": {
        "_hex": "0x4563918244f40000"
      },
      "nonce": 0,
      "data": "0x",
      "r": "0x618b9e13df9eecbd04c5c7b034c217134af200b50be925387b1711d440425e1d",
      "s": "0x6ad9ba11f7bcb2db7dd3099bf2cf54c1ca4997c763d3cfcd44b762d2e425bdf1",
      "v": 27,
      "creates": null,
      "raw": "0xf86c808522ecb25c008252089481c039692a575005f2f5f26c6f69dba26a8f6408884563918244f40000801ba0618b9e13df9eecbd04c5c7b034c217134af200b50be925387b1711d440425e1da06ad9ba11f7bcb2db7dd3099bf2cf54c1ca4997c763d3cfcd44b762d2e425bdf1",
      "networkId": 0,
      "chainId": 0
    }
  ]
}