{
  "hash": "0x25bcad6715a6ac3e78144e5b542f93eea0304bd2ad35816094096fcb1af45476",
  "parentHash": "0x72a380fa7540e525c11dfe6850e9f771c889323f970a6111a57b6504d71b2160",
  "number": 122249,
  "timestamp": 1440190814,
  "nonce": "0x5b7d736d5165a4d0",
  "difficulty": 4468683218166,
  "gasLimit": {
    "_hex": "0x2fefd8"
  },
  "gasUsed": {
    "_hex": "0x5208"
  },
  "miner": "0xe6A7a1d47ff21B6321162AEA7C6CB457D5476Bca",
  "extraData": "0xd783010002844765746887676f312e342e32856c696e7578",
  "transactions": [
    {
      "hash": "0x34a30500b2e90673072a42ca3fd3c4747bcec4369d306c858f79a6b0eacdff30",
      "blockHash": "0x25bcad6715a6ac3e78144e5b542f93eea0304bd2ad35816094096fcb1af45476",
      "blockNumber": 122249,
      "transactionIndex": 0,
      "confirmations": null,
      "from": "0xC47Aaa860008be6f65B58c6C6E02a84e666EfE31",
      "gasPrice": {
        "_hex": "0xba43b7400"
      },
      "gasLimit": {
        "_hex": "0x15f90"
      },
      "to": "0x828B10061A800ddd5F632023F3A56C58065F5f90",
      "value": {
        "_hex": "0x1158e460913d00000"
      },
      "nonce": 122,
      "data": "0x",
      "r": "0x096d8e09a5d0c317c27b5b7f82e7c1e671b6ea0bd8c529702767717618c67043",
      "s": "0x0cbb8d871214ab53e964e3bbf69734e37bb98c6b5180f8a2dc16e3bec5feac13",
      "v": 27,
      "creates": null,
      "raw": "0xf86e7a850ba43b740083015f9094828b10061a800ddd5f632023f3a56c58065f5f908901158e460913d00000801ba0096d8e09a5d0c317c27b5b7f82e7c1e671b6ea0bd8c529702767717618c67043a00cbb8d871214ab53e964e3bbf69734e37bb98c6b5180f8a2dc16e3bec5feac13",
      "networkId": 0,
      "chainId": 0
    }
  ]
}