{
  "hash": "0x202767290a297a7f2164e321eda43d146aa2100c6407ef8cd152af2ae1d15896",
  "parentHash": "0x18d313eafd46b3a5c5c7d066380a3e61466195f537881a3cd9cc6436ea9b8a71",
  "number": 81831,
  "timestamp": 1439508609,
  "nonce": "0x9798d4f8010cfd32",
  "difficulty": 2422316796053,
  "gasLimit": {
    "_hex": "0x2fefd8"
  },
  "gasUsed": {
    "_hex": "0xa410"
  },
  "miner": "0xf927a40C8B7F6E07c5af7FA2155B4864a4112B13",
  "extraData": "0x",
  "transactions": [
    {
      "hash": "0x1edb003dd62c89dd8bcc19f67d90c10c01d4faa682d5df805ea68aa6e0071bbe",
      "blockHash": "0x202767290a297a7f2164e321eda43d146aa2100c6407ef8cd152af2ae1d15896",
      "blockNumber": 81831,
      "transactionIndex": 0,
      "confirmations": null,
      "from": "0x824b3C3C443e19295d7ef6faa7f374a4798486a8",
      "gasPrice": {
        "_hex": "0xd2cc01b6f"
      },
      "gasLimit": {
        "_hex": "0x15f90"
      },
      "to": "0x3DC62ceE7e520DEd369be6b36da28cA1663f20Af",
      "value": {
        "_hex": "0x2386f26fc10000"
      },
      "nonce": 0,
      "data": "0x",
      "r": "0xed929c841d2095ded76eb0cf14917b3dbd1993d8d497204fea11e3fe999a7dae",
      "s": "0x571679e052e709f65d61eb410d0b7ae5ae9955ff3df4c75e204c9f8d1b917c59",
      "v": 28,
      "creates": null,
      "raw": "0xf86c80850d2cc01b6f83015f90943dc62cee7e520ded369be6b36da28ca1663f20af872386f26fc10000801ca0ed929c841d2095ded76eb0cf14917b3dbd1993d8d497204fea11e3fe999a7daea0571679e052e709f65d61eb410d0b7ae5ae9955ff3df4c75e204c9f8d1b917c59",
      "networkId": 0,
      "chainId": 0
    },
    {
      "hash": "0x45ecd8a4de3d7774ba7dce1876a9d39e845eb096dbc69f912890591e94b95cdf",
      "blockHash": "0x202767290a297a7f2164e321eda43d146aa2100c6407ef8cd152af2ae1d15896",
      "blockNumber": 81831,
      "transactionIndex": 1,
      "confirmations": null,
      "from": "0xe93C41Eb698768D7d6a9e589434e5bc8B2eec540",
      "gasPrice": {
        "_hex": "0xba43b7400"
      },
      "gasLimit": {
        "_hex": "0x5208"
      },
      "to": "0xC47Aaa860008be6f65B58c6C6E02a84e666EfE31",
      "value": {
        "_hex": "0x21e19cb4b494d5be000"
      },
      "nonce": 1,
      "data": "0x",
      "r": "0xbaa9fffecdb3a721a369760f106feb5d1c3f22a2e08df614d047aec746d37bb2",
      "s": "0x5277a9607100a3b7731096715ec6d790c149ee2e82a033214a46ce8f224d2fdb",
      "v": 28,
      "creates": null,
      "raw": "0xf86e01850ba43b740082520894c47aaa860008be6f65b58c6c6e02a84e666efe318a021e19cb4b494d5be000801ca0baa9fffecdb3a721a369760f106feb5d1c3f22a2e08df614d047aec746d37bb2a05277a9607100a3b7731096715ec6d790c149ee2e82a033214a46ce8f224d2fdb",
      "networkId": 0,
      "chainId": 0
    }
  ]
}