{
  "hash": "0x60c8a0b7e89f723fb9bfdafad8ccb36d0a607b2308ca473d1d59d91953d862b9",
  "parentHash": "0x5cd7e9d0dae4dcd3ae59af60782c6f178f7ff4d3f49345088468e0c02c6174a3",
  "number": 122397,
  "timestamp": 1440193674,
  "nonce": "0x9c3de36ffbc82246",
  "difficulty": 4490477093762,
  "gasLimit": {
    "_hex": "0x2fefd8"
  },
  "gasUsed": {
    "_hex": "0x20fc6"
  },
  "miner": "0xe6A7a1d47ff21B6321162AEA7C6CB457D5476Bca",
  "extraData": "0xd783010002844765746887676f312e342e32856c696e7578",
  "transactions": [
    {
      "hash": "0x09ea2359e37216070f5d069d1035128d83b6e08508fab2c044ccaf5bbd3581de",
      "blockHash": "0x60c8a0b7e89f723fb9bfdafad8ccb36d0a607b2308ca473d1d59d91953d862b9",
      "blockNumber": 122397,
      "transactionIndex": 0,
      "confirmations": null,
      "from": "0x72480beDe81Ad96423f2228B5C61Be44FB523100",
      "gasPrice": {
        "_hex": "0xd59ffc7e0"
      },
      "gasLimit": {
        "_hex": "0x249f0"
      },
      "to": "0xE28e72FCf78647ADCe1F1252F240bbfaebD63BcC",
      "value": {
        "_hex": "0xa2a15d09519be00000"
      },
      "nonce": 0,
      "data": "0x45466f3a",
      "r": "0x9d75c5bd614273ddf7ce2cb7dc041c77f53bb8b59c60e58e4c56fb1c610f62e7",
      "s": "0x3f00fda6a7d12dc68a96bf41611b2e20c234565b6be8c14e7c93f8ec9a0c06a1",
      "v": 27,
      "creates": null,
      "raw": "0xf87280850d59ffc7e0830249f094e28e72fcf78647adce1f1252f240bbfaebd63bcc89a2a15d09519be000008445466f3a1ba09d75c5bd614273ddf7ce2cb7dc041c77f53bb8b59c60e58e4c56fb1c610f62e7a03f00fda6a7d12dc68a96bf41611b2e20c234565b6be8c14e7c93f8ec9a0c06a1",
      "networkId": 0,
      "chainId": 0
    },
    {
      "hash": "0xde97300ed76b87e100d44c7ac9257384d6413dc3aba3b3e8eb3ed2f926ead3c2",
      "blockHash": "0x60c8a0b7e89f723fb9bfdafad8ccb36d0a607b2308ca473d1d59d91953d862b9",
      "blockNumber": 122397,
      "transactionIndex": 1,
      "confirmations": null,
      "from": "0x9990f7E058eD31e6Af66396499b989cAe124cC23",
      "gasPrice": {
        "_hex": "0xd0b0d252a"
      },
      "gasLimit": {
        "_hex": "0x5208"
      },
      "to": "0x32Be343B94f860124dC4fEe278FDCBD38C102D88",
      "value": {
        "_hex": "0xddc88c1072f1800"
      },
      "nonce": 0,
      "data": "0x",
      "r": "0xecad0e63235ed3fd21f4d37d80f9c91a7359bfd29b30b9a7ca4608d6e5f8bc86",
      "s": "0x3a80e337d791adae5c226d1dbe0ec04bcaea73cadc1a7de34df3f9c545e41c28",
      "v": 28,
      "creates": null,
      "raw": "0xf86c80850d0b0d252a8252089432be343b94f860124dc4fee278fdcbd38c102d88880ddc88c1072f1800801ca0ecad0e63235ed3fd21f4d37d80f9c91a7359bfd29b30b9a7ca4608d6e5f8bc86a03a80e337d791adae5c226d1dbe0ec04bcaea73cadc1a7de34df3f9c545e41c28",
      "networkId": 0,
      "chainId": 0
    }
  ]
}