{
  "hash": "0x2d6e5cad46de1111abd7749acf12e687f5cc6070217717f195a44d37072382c9",
  "parentHash": "0x088df556549197d5a1c5420d24d02430ac1c5d38f7ef5d559865286a97b1a0d9",
  "number": 52073,
  "timestamp": 1439015641,
  "nonce": "0x166bbf56b92653ed",
  "difficulty": 1563404134789,
  "gasLimit": {
    "_hex": "0x101410"
  },
  "gasUsed": {
    "_hex": "0xa674"
  },
  "miner": "0xe6A7a1d47ff21B6321162AEA7C6CB457D5476Bca",
  "extraData": "0x657468706f6f6c2e6f7267",
  "transactions": [
    {
      "hash": "0x518db94eb7f626047047912fe74f580e70a1f30ec35df5d7b4aec82bdd0f60e3",
      "blockHash": "0x2d6e5cad46de1111abd7749acf12e687f5cc6070217717f195a44d37072382c9",
      "blockNumber": 52073,
      "transactionIndex": 0,
      "confirmations": null,
      "from": "0xeb5f44D72343Df39680AaF77B2CeD6586e6918c2",
      "gasPrice": {
        "_hex": "0x9184e72a000"
      },
      "gasLimit": {
        "_hex": "0x3151e"
      },
      "to": "0x2AaE9Cd3e67BEfB4D0A4962dE7db0E924bB6610E",
      "value": {
        "_hex": "0x1c75d6ae6e48140000"
      },
      "nonce": 2,
      "data": "0x",
      "r": "0xb923c8e5c7374c55f3d5932025db2660c3007f60c6eba388afd5a46401b8147c",
      "s": "0x62c78a0979292029acccb57ab10c2df145d0ff5ea3ed7e18dbad9117f6048b60",
      "v": 28,
      "creates": null,
      "raw": "0xf86f028609184e72a0008303151e942aae9cd3e67befb4d0a4962de7db0e924bb6610e891c75d6ae6e48140000801ca0b923c8e5c7374c55f3d5932025db2660c3007f60c6eba388afd5a46401b8147ca062c78a0979292029acccb57ab10c2df145d0ff5ea3ed7e18dbad9117f6048b60",
      "networkId": 0,
      "chainId": 0
    },
    {
      "hash": "0x8643b5e01cdd913f1a1fe74faa5d633f2857ad811618188ab939e9c2dc3fdc35",
      "blockHash": "0x2d6e5cad46de1111abd7749acf12e687f5cc6070217717f195a44d37072382c9",
      "blockNumber": 52073,
      "transactionIndex": 1,
      "confirmations": null,
      "from": "0xBAD4425E171c3e72975eB46ac0A015DB315a5D8f",
      "gasPrice": {
        "_hex": "0xd7d40ace3"
      },
      "gasLimit": {
        "_hex": "0x15f90"
      },
      "to": "0x1c7214DE5162a5606CF124ed3A8c3556b1899804",
      "value": {
        "_hex": "0x1043561a8829300000"
      },
      "nonce": 4,
      "data": "0x454e433933464b3330",
      "r": "0x6910711ecf8f1093e7106ed13f2106b211bf3d53538f8333fea89193a89054e8",
      "s": "0x099cbbef75400dea118770419fc5779cfefef4e5e740c1bc6426342a049f9fde",
      "v": 27,
      "creates": null,
      "raw": "0xf87704850d7d40ace383015f90941c7214de5162a5606cf124ed3a8c3556b1899804891043561a882930000089454e433933464b33301ba06910711ecf8f1093e7106ed13f2106b211bf3d53538f8333fea89193a89054e8a0099cbbef75400dea118770419fc5779cfefef4e5e740c1bc6426342a049f9fde",
      "networkId": 0,
      "chainId": 0
    }
  ]
}