{
  "hash": "0x7ca23fbbdd7fd298ba47e3d80e04e1ddbe83f723295db0782943f5155d328f59",
  "parentHash": "0x34583bc74eb24d6bc9cece19933bdd513db8d0c7b0c4b1ff6741c51224676856",
  "number": 54480,
  "timestamp": 1439054838,
  "nonce": "0x11e3acd7bf4dd26a",
  "difficulty": 1614933034462,
  "gasLimit": {
    "_hex": "0x2fefd8"
  },
  "gasUsed": {
    "_hex": "0xa410"
  },
  "miner": "0x72e3Ea8234b449531A581F05f1c1E07cceb559d2",
  "extraData": "0x476574682f76312e302e312f6c696e75782f676f312e342e32",
  "transactions": [
    {
      "hash": "0xf584e8a95c425c148d3a112c46674027f86dd27ca555ff3e3b5cbff5ceb2d7a6",
      "blockHash": "0x7ca23fbbdd7fd298ba47e3d80e04e1ddbe83f723295db0782943f5155d328f59",
      "blockNumber": 54480,
      "transactionIndex": 0,
      "confirmations": null,
      "from": "0x439632734cdF5a84774156c1938CbeDe2eF398F0",
      "gasPrice": {
        "_hex": "0xcaec85f8c"
      },
      "gasLimit": {
        "_hex": "0x5208"
      },
      "to": "0x32Be343B94f860124dC4fEe278FDCBD38C102D88",
      "value": {
        "_hex": "0x56bc34dcc15db8000"
      },
      "nonce": 7,
      "data": "0x",
      "r": "0xec3c51481e17e27cfa6dca8e85470eda3643261b58d38503223a43618b182bf2",
      "s": "0x62211979b6578232032dc081fd5fe030d2a42a096c8a16c5cd20c00d28f5e5c0",
      "v": 28,
      "creates": null,
      "raw": "0xf86d07850caec85f8c8252089432be343b94f860124dc4fee278fdcbd38c102d8889056bc34dcc15db8000801ca0ec3c51481e17e27cfa6dca8e85470eda3643261b58d38503223a43618b182bf2a062211979b6578232032dc081fd5fe030d2a42a096c8a16c5cd20c00d28f5e5c0",
      "networkId": 0,
      "chainId": 0
    },
    {
      "hash": "0x27c93b593335a08eff865947424babbcd8fe5a74b0aa8611b201e48603c380c8",
      "blockHash": "0x7ca23fbbdd7fd298ba47e3d80e04e1ddbe83f723295db0782943f5155d328f59",
      "blockNumber": 54480,
      "transactionIndex": 1,
      "confirmations": null,
      "from": "0x71800954e6FA0Cbc43c6440d3CC80660F18a8B6F",
      "gasPrice": {
        "_hex": "0xcaec85f8c"
      },
      "gasLimit": {
        "_hex": "0x5208"
      },
      "to": "0x32Be343B94f860124dC4fEe278FDCBD38C102D88",
      "value": {
        "_hex": "0x291758e79054e40000"
      },
      "nonce": 1,
      "data": "0x",
      "r": "0x0ee80c1010a3d591a4822785c00a627c1123b0b29a4e35beff56397113cc9b0b",
      "s": "0x2b151a4a95f9a2ed3cefad4f7c19987c8f4cb33a126012e1c0bda1bcd5f47633",
      "v": 27,
      "creates": null,
      "raw": "0xf86d01850caec85f8c8252089432be343b94f860124dc4fee278fdcbd38c102d8889291758e79054e40000801ba00ee80c1010a3d591a4822785c00a627c1123b0b29a4e35beff56397113cc9b0ba02b151a4a95f9a2ed3cefad4f7c19987c8f4cb33a126012e1c0bda1bcd5f47633",
      "networkId": 0,
      "chainId": 0
    }
  ]
}