{
  "hash": "0xecb1473cd4a74c82102f5113a96d8d4f1b6f1cde78df2684789b25ac2329a3c0",
  "parentHash": "0x808d30c87c76b38723996118067f605b5bf04e3956d88306b83d18afa239d4ee",
  "number": 72185,
  "timestamp": 1439348721,
  "nonce": "0x35be61fdf203fb29",
  "difficulty": 2178098928978,
  "gasLimit": {
    "_hex": "0x2fefd8"
  },
  "gasUsed": {
    "_hex": "0x2fdd7"
  },
  "miner": "0x88D74a59454F6cF3B51ef6b9136AFb6b9D405A88",
  "extraData": "0x476574682f76312e302e312d37666266393930632f6c696e75782f676f312e34",
  "transactions": [
    {
      "hash": "0x2b9207d609bd4fb8ce41b60431a0265564406ba4f4f945532757ad36e0c83eb7",
      "blockHash": "0xecb1473cd4a74c82102f5113a96d8d4f1b6f1cde78df2684789b25ac2329a3c0",
      "blockNumber": 72185,
      "transactionIndex": 0,
      "confirmations": null,
      "from": "0x17580B766f7453525ca4C6A88b01b50570EA088C",
      "gasPrice": {
        "_hex": "0xd32967370"
      },
      "gasLimit": {
        "_hex": "0x61a80"
      },
      "to": "0x5Fe5B7546D1628f7348B023A0393de1FC825A4fD",
      "value": {
        "_hex": "0x8ac7230489e80000"
      },
      "nonce": 347,
      "data": "0xb595b8b50000000000000000000000000000000000000000000000000000000000000001",
      "r": "0xe46aaff62a6a0354a2c3f971679a88cdbe49c317f600bda9ae6248f18daf81f4",
      "s": "0x6e0e1433f105fefe1c2db51aa02eca39dfaa3bdb199197342b68f92caad9758f",
      "v": 28,
      "creates": null,
      "raw": "0xf89382015b850d3296737083061a80945fe5b7546d1628f7348b023a0393de1fc825a4fd888ac7230489e80000a4b595b8b500000000000000000000000000000000000000000000000000000000000000011ca0e46aaff62a6a0354a2c3f971679a88cdbe49c317f600bda9ae6248f18daf81f4a06e0e1433f105fefe1c2db51aa02eca39dfaa3bdb199197342b68f92caad9758f",
      "networkId": 0,
      "chainId": 0
    },
    {
      "hash": "0x209bce101810be7688a29c4731e879ea7809d57d0a0dd6d9d11ee6f0753ced7a",
      "blockHash": "0xecb1473cd4a74c82102f5113a96d8d4f1b6f1cde78df2684789b25ac2329a3c0",
      "blockNumber": 72185,
      "transactionIndex": 1,
      "confirmations": null,
      "from": "0x17580B766f7453525ca4C6A88b01b50570EA088C",
      "gasPrice": {
        "_hex": "0xd32967370"
      },
      "gasLimit": {
        "_hex": "0x61a80"
      },
      "to": "0x5Fe5B7546D1628f7348B023A0393de1FC825A4fD",
      "value": {
        "_hex": "0x6124fee993bc0000"
      },
      "nonce": 348,
      "data": "0xb595b8b50000000000000000000000000000000000000000000000000000000000000000",
      "r": "0xfbe2a0afdbf5a82735c303be2f8b43a9c0f0217586ee4e4cb2189435e23310a7",
      "s": "0x5304acd26b89502a700cfcea2e7fe7784a3034dcf729e8b5cb0fb18d315d6412",
      "v": 27,
      "creates": null,
      "raw": "0xf89382015c850d3296737083061a80945fe5b7546d1628f7348b023a0393de1fc825a4fd886124fee993bc0000a4b595b8b500000000000000000000000000000000000000000000000000000000000000001ba0fbe2a0afdbf5a82735c303be2f8b43a9c0f0217586ee4e4cb2189435e23310a7a05304acd26b89502a700cfcea2e7fe7784a3034dcf729e8b5cb0fb18d315d6412",
      "networkId": 0,
      "chainId": 0
    },
    {
      "hash": "0xce93f1ad8d51456353a2bc89e1ffb5f0091a136212e37738a4bf71032c210487",
      "blockHash": "0xecb1473cd4a74c82102f5113a96d8d4f1b6f1cde78df2684789b25ac2329a3c0",
      "blockNumber": 72185,
      "transactionIndex": 2,
      "confirmations": null,
      "from": "0x17580B766f7453525ca4C6A88b01b50570EA088C",
      "gasPrice": {
        "_hex": "0xd32967370"
      },
      "gasLimit": {
        "_hex": "0x61a80"
      },
      "to": "0x5Fe5B7546D1628f7348B023A0393de1FC825A4fD",
      "value": {
        "_hex": "0x1bc16d674ec80000"
      },
      "nonce": 349,
      "data": "0xb595b8b50000000000000000000000000000000000000000000000000000000000000000",
      "r": "0x1d1c146f91d5658a26845eded4a249c57d9b5586539767df32dc5a00fc84ed83",
      "s": "0x7a05841888f2b05c7824bf7f372dd29172fe3893a049c1a1bb225c5c2180e4c0",
      "v": 28,
      "creates": null,
      "raw": "0xf89382015d850d3296737083061a80945fe5b7546d1628f7348b023a0393de1fc825a4fd881bc16d674ec80000a4b595b8b500000000000000000000000000000000000000000000000000000000000000001ca01d1c146f91d5658a26845eded4a249c57d9b5586539767df32dc5a00fc84ed83a07a05841888f2b05c7824bf7f372dd29172fe3893a049c1a1bb225c5c2180e4c0",
      "networkId": 0,
      "chainId": 0
    },
    {
      "hash": "0x27fcdf80f36879ad74506b619a658d89d0cff4aa6583b08818b63d11d33dbfd1",
      "blockHash": "0xecb1473cd4a74c82102f5113a96d8d4f1b6f1cde78df2684789b25ac2329a3c0",
      "blockNumber": 72185,
      "transactionIndex": 3,
      "confirmations": null,
      "from": "0x17580B766f7453525ca4C6A88b01b50570EA088C",
      "gasPrice": {
        "_hex": "0xd32967370"
      },
      "gasLimit": {
        "_hex": "0x61a80"
      },
      "to": "0x5Fe5B7546D1628f7348B023A0393de1FC825A4fD",
      "value": {
        "_hex": "0x53444835ec580000"
      },
      "nonce": 350,
      "data": "0xb595b8b50000000000000000000000000000000000000000000000000000000000000001",
      "r": "0x85dbf30231987e60164c668add499122ceeba1d32a98c2919e16f59ab3b3e20a",
      "s": "0x4851d04908eb67be49f44e852307c8bdebf1aef4d16892a22331bc517920af15",
      "v": 28,
      "creates": null,
      "raw": "0xf89382015e850d3296737083061a80945fe5b7546d1628f7348b023a0393de1fc825a4fd8853444835ec580000a4b595b8b500000000000000000000000000000000000000000000000000000000000000011ca085dbf30231987e60164c668add499122ceeba1d32a98c2919e16f59ab3b3e20aa04851d04908eb67be49f44e852307c8bdebf1aef4d16892a22331bc517920af15",
      "networkId": 0,
      "chainId": 0
    },
    {
      "hash": "0xb6189a9ff63586d7f795756ddecc45911630170445d5eb36a13bf6e1e22a8e6e",
      "blockHash": "0xecb1473cd4a74c82102f5113a96d8d4f1b6f1cde78df2684789b25ac2329a3c0",
      "blockNumber": 72185,
      "transactionIndex": 4,
      "confirmations": null,
      "from": "0x17580B766f7453525ca4C6A88b01b50570EA088C",
      "gasPrice": {
        "_hex": "0xd32967370"
      },
      "gasLimit": {
        "_hex": "0x61a80"
      },
      "to": "0x5Fe5B7546D1628f7348B023A0393de1FC825A4fD",
      "value": {
        "_hex": "0x1bc16d674ec80000"
      },
      "nonce": 351,
      "data": "0xb595b8b50000000000000000000000000000000000000000000000000000000000000000",
      "r": "0x38df116eaf929e245f25954a4cd6b6ee3845fecdd789bfb48c57dc504ae0160c",
      "s": "0x2878e27d1c05a85404edf3b3acfa854c0893a8446a06e6a7b73ebdd52526a932",
      "v": 27,
      "creates": null,
      "raw": "0xf89382015f850d3296737083061a80945fe5b7546d1628f7348b023a0393de1fc825a4fd881bc16d674ec80000a4b595b8b500000000000000000000000000000000000000000000000000000000000000001ba038df116eaf929e245f25954a4cd6b6ee3845fecdd789bfb48c57dc504ae0160ca02878e27d1c05a85404edf3b3acfa854c0893a8446a06e6a7b73ebdd52526a932",
      "networkId": 0,
      "chainId": 0
    }
  ]
}