{
  "hash": "0xee16829273cddffcaba74ac0bec93d6dfce20ed9db03603f60111ddf4bb5e4dd",
  "parentHash": "0x969f475da54174ceba1dcecd604d32cf4f6d1af6d4fcdc5bd265174205928355",
  "number": 54736,
  "timestamp": 1439059102,
  "nonce": "0xa2464f2e706e96ce",
  "difficulty": 1621204228163,
  "gasLimit": {
    "_hex": "0x2fefd5"
  },
  "gasUsed": {
    "_hex": "0x5208"
  },
  "miner": "0xfcd004FbAD7E8FfeE821d8A10D7f0685b14933B1",
  "extraData": "0x",
  "transactions": [
    {
      "hash": "0xba87fae13723e19039e8ae3f3e854c20d1f04092b4b558091024298618734502",
      "blockHash": "0xee16829273cddffcaba74ac0bec93d6dfce20ed9db03603f60111ddf4bb5e4dd",
      "blockNumber": 54736,
      "transactionIndex": 0,
      "confirmations": null,
      "from": "0x88c7F66b99e7f9235A092a57AfAB243B0F9A6364",
      "gasPrice": {
        "_hex": "0xd380fd186"
      },
      "gasLimit": {
        "_hex": "0x5208"
      },
      "to": "0x32Be343B94f860124dC4fEe278FDCBD38C102D88",
      "value": {
        "_hex": "0xac9a9c947ccdc8000"
      },
      "nonce": 1,
      "data": "0x",
      "r": "0x21564a2adb7d85fdd8017773aa7d0bab89f623715b36dee51027ae856d45aaa0",
      "s": "0x6487ea01a955773e23a4dea96c90dfb52beb516aa1781ffac3df4d3066ee0e36",
      "v": 28,
      "creates": null,
      "raw": "0xf86d01850d380fd1868252089432be343b94f860124dc4fee278fdcbd38c102d88890ac9a9c947ccdc8000801ca021564a2adb7d85fdd8017773aa7d0bab89f623715b36dee51027ae856d45aaa0a06487ea01a955773e23a4dea96c90dfb52beb516aa1781ffac3df4d3066ee0e36",
      "networkId": 0,
      "chainId": 0
    }
  ]
}