{
  "hash": "0xb9264a73bb51c93612f21e92cf6150e32479b672d18b9d380dd628d60a51e2e0",
  "parentHash": "0x74b2c320e794557be28c92d4cdc90d0ac888695c363d4eb96027baec7cf6d8df",
  "number": 98480,
  "timestamp": 1439773523,
  "nonce": "0x3148eea48350acd6",
  "difficulty": 3865063218702,
  "gasLimit": {
    "_hex": "0x2fefd8"
  },
  "gasUsed": {
    "_hex": "0xf618"
  },
  "miner": "0xe6A7a1d47ff21B6321162AEA7C6CB457D5476Bca",
  "extraData": "0x476574682f76312e302e312d38326566323666362f6c696e75782f676f312e34",
  "transactions": [
    {
      "hash": "0xaafcb361b755c0b5b66d1971075c3605701465c6661f68620048823fb60a8a2a",
      "blockHash": "0xb9264a73bb51c93612f21e92cf6150e32479b672d18b9d380dd628d60a51e2e0",
      "blockNumber": 98480,
      "transactionIndex": 0,
      "confirmations": null,
      "from": "0xa7ae731fD9EbF24D5a99104a3c2a65a7240B2B04",
      "gasPrice": {
        "_hex": "0xdae70a0c8"
      },
      "gasLimit": {
        "_hex": "0x5208"
      },
      "to": "0x32Be343B94f860124dC4fEe278FDCBD38C102D88",
      "value": {
        "_hex": "0xad78a5a0e6a908000"
      },
      "nonce": 3,
      "data": "0x",
      "r": "0x78bd9c72c3529d78fbf9b5145fec6b89f46b80778eca6399174c3916a9a9ec63",
      "s": "0x32a267e3a1f328595040f1af573fe500384428c6b9c693cca543b7b4e55664af",
      "v": 27,
      "creates": null,
      "raw": "0xf86d03850dae70a0c88252089432be343b94f860124dc4fee278fdcbd38c102d88890ad78a5a0e6a908000801ba078bd9c72c3529d78fbf9b5145fec6b89f46b80778eca6399174c3916a9a9ec63a032a267e3a1f328595040f1af573fe500384428c6b9c693cca543b7b4e55664af",
      "networkId": 0,
      "chainId": 0
    },
    {
      "hash": "0xd1f08d52b2a2c4647c46d8544bb1f6a62971ac7bdb080feca4cc6e2e31f03ab2",
      "blockHash": "0xb9264a73bb51c93612f21e92cf6150e32479b672d18b9d380dd628d60a51e2e0",
      "blockNumber": 98480,
      "transactionIndex": 1,
      "confirmations": null,
      "from": "0x32Be343B94f860124dC4fEe278FDCBD38C102D88",
      "gasPrice": {
        "_hex": "0xdae70a0c8"
      },
      "gasLimit": {
        "_hex": "0x5208"
      },
      "to": "0xfE284479d83D913ce62BAe7f7D5D591b66D972e8",
      "value": {
        "_hex": "0xad7565722bf788000"
      },
      "nonce": 1043,
      "data": "0x",
      "r": "0x4f65cc86f19c06d9eb9a4d0d7a0c7bb929986059cf2d5423d27549c66b2b7996",
      "s": "0x4116425729a8d185588aeb3ad7eb756c8d6dfeaa3292b45a7be5014e70b33798",
      "v": 28,
      "creates": null,
      "raw": "0xf86f820413850dae70a0c882520894fe284479d83d913ce62bae7f7d5d591b66d972e8890ad7565722bf788000801ca04f65cc86f19c06d9eb9a4d0d7a0c7bb929986059cf2d5423d27549c66b2b7996a04116425729a8d185588aeb3ad7eb756c8d6dfeaa3292b45a7be5014e70b33798",
      "networkId": 0,
      "chainId": 0
    },
    {
      "hash": "0x8341aa2d3abcc03f00463f5f7ab38302356cc85780dad2e5edd19509025d1210",
      "blockHash": "0xb9264a73bb51c93612f21e92cf6150e32479b672d18b9d380dd628d60a51e2e0",
      "blockNumber": 98480,
      "transactionIndex": 2,
      "confirmations": null,
      "from": "0xbEA38bF111E15a55f75757B442FcBF8d6fc463EA",
      "gasPrice": {
        "_hex": "0xd1948d9fb"
      },
      "gasLimit": {
        "_hex": "0x15f90"
      },
      "to": "0xD9666150A9dA92d9108198a4072970805a8B3428",
      "value": {
        "_hex": "0x2fb474098f67c0000"
      },
      "nonce": 0,
      "data": "0x",
      "r": "0xc99ac3181fc3d5adafb3786ab344865d14a15b65f115b80d01bdcae2875aa2e7",
      "s": "0x56dbe0a52236ce8aa2a3698c175aa7dc4961365a53fefae68f9b1bdac88def2e",
      "v": 28,
      "creates": null,
      "raw": "0xf86e80850d1948d9fb83015f9094d9666150a9da92d9108198a4072970805a8b34288902fb474098f67c0000801ca0c99ac3181fc3d5adafb3786ab344865d14a15b65f115b80d01bdcae2875aa2e7a056dbe0a52236ce8aa2a3698c175aa7dc4961365a53fefae68f9b1bdac88def2e",
      "networkId": 0,
      "chainId": 0
    }
  ]
}