{
  "hash": "0xfd5f21d92b89881e6050500ab1103210cb36a2e76021aeea5fec4b6f92c6e3b5",
  "parentHash": "0xf3169b6a2a30d0e8df5636032e5d5c276a36298456cc86ab0b0346aa7382a21e",
  "number": 94942,
  "timestamp": 1439716429,
  "nonce": "0xd67cab72d48ccd3c",
  "difficulty": 3520664653185,
  "gasLimit": {
    "_hex": "0x2fefd8"
  },
  "gasUsed": {
    "_hex": "0x5208"
  },
  "miner": "0xEF247E639d49461D25F57e9362CadE3120910Ce0",
  "extraData": "0x476574682f76312e302e312f6c696e75782f676f312e342e32",
  "transactions": [
    {
      "hash": "0xdaa993c209b6020c00f73656db37f0139993e02c173dc3f3c0269abac2ac20fc",
      "blockHash": "0xfd5f21d92b89881e6050500ab1103210cb36a2e76021aeea5fec4b6f92c6e3b5",
      "blockNumber": 94942,
      "transactionIndex": 0,
      "confirmations": null,
      "from": "0x120A270bbC009644e35F0bB6ab13f95b8199c4ad",
      "gasPrice": {
        "_hex": "0xd900b46b8"
      },
      "gasLimit": {
        "_hex": "0x3d090"
      },
      "to": "0xd729FB3C410640105645fea812F5d50F1b808f4C",
      "value": {
        "_hex": "0x30ca024f987b900000"
      },
      "nonce": 588,
      "data": "0x",
      "r": "0xb6b3386468e20430af5447f4da51a9b2f7329d8d316513568a446d5fbeb1f7a6",
      "s": "0x7aff7f909c66c2b442d5e8a34e280001ad51ad599a075b5199357806e29d5a74",
      "v": 27,
      "creates": null,
      "raw": "0xf87082024c850d900b46b88303d09094d729fb3c410640105645fea812f5d50f1b808f4c8930ca024f987b900000801ba0b6b3386468e20430af5447f4da51a9b2f7329d8d316513568a446d5fbeb1f7a6a07aff7f909c66c2b442d5e8a34e280001ad51ad599a075b5199357806e29d5a74",
      "networkId": 0,
      "chainId": 0
    }
  ]
}