{
  "hash": "0x196ff65e4d7251c17d96b43baa10271b065e936075da4b7172961978c5d76486",
  "parentHash": "0xa1c7dbd7789d9f042a6b65002df8ae3a57b88d36d5f52cc87707bf9a2bdd701d",
  "number": 115884,
  "timestamp": 1440064947,
  "nonce": "0xd4798159c32d4e11",
  "difficulty": 4562506224644,
  "gasLimit": {
    "_hex": "0x2fefd8"
  },
  "gasUsed": {
    "_hex": "0x5208"
  },
  "miner": "0x0000000000000000000000000000000000000000",
  "extraData": "0xdd809b302e392e34302b2b616339342d5257696e646f2f6d73762f4a4954",
  "transactions": [
    {
      "hash": "0xa9686e19f301d6e9b1a0af94286dfa738ae726a75bb740eef2639b4eb6a7e17a",
      "blockHash": "0x196ff65e4d7251c17d96b43baa10271b065e936075da4b7172961978c5d76486",
      "blockNumber": 115884,
      "transactionIndex": 0,
      "confirmations": null,
      "from": "0x2f982922411a39C79BCD2D293Ca79cf7A9A37313",
      "gasPrice": {
        "_hex": "0xd173a00e4"
      },
      "gasLimit": {
        "_hex": "0x5208"
      },
      "to": "0x32Be343B94f860124dC4fEe278FDCBD38C102D88",
      "value": {
        "_hex": "0x2e2b3aa052b4c400"
      },
      "nonce": 0,
      "data": "0x",
      "r": "0xc62bbf3fea8d52a0e2fa8b795477e3299668b47109aa6c0eb44e398f4e5fbcbd",
      "s": "0x477f9f09942d5ece4a45746ef860e2008320289db89861cce7a7faade93cda0b",
      "v": 28,
      "creates": null,
      "raw": "0xf86c80850d173a00e48252089432be343b94f860124dc4fee278fdcbd38c102d88882e2b3aa052b4c400801ca0c62bbf3fea8d52a0e2fa8b795477e3299668b47109aa6c0eb44e398f4e5fbcbda0477f9f09942d5ece4a45746ef860e2008320289db89861cce7a7faade93cda0b",
      "networkId": 0,
      "chainId": 0
    }
  ]
}