{
  "hash": "0x2b09f7c97d7d3a6fefb2fe82f27d19923372b2426c0f8c1d15c0eaf886382879",
  "parentHash": "0x689864bbe02359251a467d6819cada1f63d8be7c904185cbbf3c8dc31cdfa878",
  "number": 78362,
  "timestamp": 1439452661,
  "nonce": "0x139664a5e5fbbaa7",
  "difficulty": 2273164978832,
  "gasLimit": {
    "_hex": "0x2fefd8"
  },
  "gasUsed": {
    "_hex": "0x5208"
  },
  "miner": "0xe6A7a1d47ff21B6321162AEA7C6CB457D5476Bca",
  "extraData": "0x476574682f76312e302e312d38326566323666362f6c696e75782f676f312e34",
  "transactions": [
    {
      "hash": "0xc38c905964b09c19795f5cedf2109f144a444df906a60b210f38519663ba0915",
      "blockHash": "0x2b09f7c97d7d3a6fefb2fe82f27d19923372b2426c0f8c1d15c0eaf886382879",
      "blockNumber": 78362,
      "transactionIndex": 0,
      "confirmations": null,
      "from": "0x2910543Af39abA0Cd09dBb2D50200b3E800A63D2",
      "gasPrice": {
        "_hex": "0xde262e586"
      },
      "gasLimit": {
        "_hex": "0x5208"
      },
      "to": "0x569097B307296376A23e9Cd84DDB966C079D7de5",
      "value": {
        "_hex": "0xdcef33a6f838000"
      },
      "nonce": 343,
      "data": "0x",
      "r": "0xfe95d6515c3593ce96fc2dc2c1e6f0967eaf502504c3820af096ebaae76ae6e2",
      "s": "0x15116b6325b70978bfe09803c14678862938c88426cc74596188fb7e49e85d94",
      "v": 27,
      "creates": null,
      "raw": "0xf86e820157850de262e58682520894569097b307296376a23e9cd84ddb966c079d7de5880dcef33a6f838000801ba0fe95d6515c3593ce96fc2dc2c1e6f0967eaf502504c3820af096ebaae76ae6e2a015116b6325b70978bfe09803c14678862938c88426cc74596188fb7e49e85d94",
      "networkId": 0,
      "chainId": 0
    }
  ]
}