{
  "hash": "0xaaf0286a9ed46c906a66de22340220c6f9bae0a635a52324cdf848a3e6791fb0",
  "parentHash": "0xe0e83529d2ccb71fa0580041a7186456135aea25f2db7512bb18c1285a4f7a4e",
  "number": 96841,
  "timestamp": 1439746627,
  "nonce": "0xcb64da74a418d8b0",
  "difficulty": 3745050639991,
  "gasLimit": {
    "_hex": "0x2fefd8"
  },
  "gasUsed": {
    "_hex": "0x546c"
  },
  "miner": "0xe6A7a1d47ff21B6321162AEA7C6CB457D5476Bca",
  "extraData": "0x476574682f76312e302e312d38326566323666362f6c696e75782f676f312e34",
  "transactions": [
    {
      "hash": "0x5d0a1256aebc5b31a7a45be2da4dc9f541f6002e5682e07ffbdb7c82e26496a3",
      "blockHash": "0xaaf0286a9ed46c906a66de22340220c6f9bae0a635a52324cdf848a3e6791fb0",
      "blockNumber": 96841,
      "transactionIndex": 0,
      "confirmations": null,
      "from": "0x157c6f2431eB1a95797EE86F7d17b3c0FD47A247",
      "gasPrice": {
        "_hex": "0xd14f28dda"
      },
      "gasLimit": {
        "_hex": "0x15f90"
      },
      "to": "0xc0b9d23f8d37650D0141B559dbD33d94Ea004e07",
      "value": {
        "_hex": "0x1043561a8829300000"
      },
      "nonce": 11,
      "data": "0x454e433933464b3330",
      "r": "0x6b13d92c57625037ee557b8531a372444c9997ac614185f9d7581cb8eaee745e",
      "s": "0x16fb79a86e4dc7150f0a4ca79da315f913ccc3a6a2fca79315d1b9e8939fd659",
      "v": 27,
      "creates": null,
      "raw": "0xf8770b850d14f28dda83015f9094c0b9d23f8d37650d0141b559dbd33d94ea004e07891043561a882930000089454e433933464b33301ba06b13d92c57625037ee557b8531a372444c9997ac614185f9d7581cb8eaee745ea016fb79a86e4dc7150f0a4ca79da315f913ccc3a6a2fca79315d1b9e8939fd659",
      "networkId": 0,
      "chainId": 0
    }
  ]
}