{
  "hash": "0xd03291165158685249e9171a3753a296c4f135792f3b01bf2780331c5ec5d26c",
  "parentHash": "0x33beb166a9ab2e3a01f8126ed9821d496e347f2d988848ac146fa625ebf0bdc5",
  "number": 119624,
  "timestamp": 1440146140,
  "nonce": "0x38ecc9ae75b9afe7",
  "difficulty": 4381482663461,
  "gasLimit": {
    "_hex": "0x2fefd8"
  },
  "gasUsed": {
    "_hex": "0x5208"
  },
  "miner": "0xe6A7a1d47ff21B6321162AEA7C6CB457D5476Bca",
  "extraData": "0xd783010002844765746887676f312e342e32856c696e7578",
  "transactions": [
    {
      "hash": "0xc179859af4b7568248933b73d3ca078a857f6dc7129392b0db0e016b56015362",
      "blockHash": "0xd03291165158685249e9171a3753a296c4f135792f3b01bf2780331c5ec5d26c",
      "blockNumber": 119624,
      "transactionIndex": 0,
      "confirmations": null,
      "from": "0x6DE55b563cE6E319cCB403032Da3BE5Ad4ec4FcF",
      "gasPrice": {
        "_hex": "0xba43b7400"
      },
      "gasLimit": {
        "_hex": "0x55f0"
      },
      "to": "0x931Ac2444b057f80A06A4FB627f26FFA5CE41184",
      "value": {
        "_hex": "0xe80d94047d2fd92c0"
      },
      "nonce": 2,
      "data": "0x",
      "r": "0x7debed8931ac13d94d500b65c11249c0a3c01af6e982d56639dfdb6a4bfde914",
      "s": "0x0d95971e3dd0b27e34aa3c7c5ef31c1c36dbcb82fc73ddc07af61d92d9e01d22",
      "v": 27,
      "creates": null,
      "raw": "0xf86d02850ba43b74008255f094931ac2444b057f80a06a4fb627f26ffa5ce41184890e80d94047d2fd92c0801ba07debed8931ac13d94d500b65c11249c0a3c01af6e982d56639dfdb6a4bfde914a00d95971e3dd0b27e34aa3c7c5ef31c1c36dbcb82fc73ddc07af61d92d9e01d22",
      "networkId": 0,
      "chainId": 0
    }
  ]
}