{
  "hash": "0xe14ae7ed4faa851d8ec3d9007ee473a51069417a33786117d677abb93a7c88ef",
  "parentHash": "0xdd646e7d7477e4a50461414dfb1a944252364a19fba53ae84df5a3724cbdbdb8",
  "number": 64438,
  "timestamp": 1439220785,
  "nonce": "0x5e2d05ec8d0d44dc",
  "difficulty": 1872960771697,
  "gasLimit": {
    "_hex": "0x2fefd8"
  },
  "gasUsed": {
    "_hex": "0x546c"
  },
  "miner": "0x06D138312754bDEB5c1175f47cE00620c480E9C9",
  "extraData": "0x476574682f76312e302e312f6c696e75782f676f312e342e32",
  "transactions": [
    {
      "hash": "0x66d3b00820d83d30505e6225eac530a05f5e238392f81d5f7ee176cb27534e10",
      "blockHash": "0xe14ae7ed4faa851d8ec3d9007ee473a51069417a33786117d677abb93a7c88ef",
      "blockNumber": 64438,
      "transactionIndex": 0,
      "confirmations": null,
      "from": "0x3bFbd3847C17A61CF3f17b52f8EbA1b960B3f39f",
      "gasPrice": {
        "_hex": "0x110c8f7d8de"
      },
      "gasLimit": {
        "_hex": "0xc350"
      },
      "to": "0x2910543Af39abA0Cd09dBb2D50200b3E800A63D2",
      "value": {
        "_hex": "0x6f05b59d3b20000"
      },
      "nonce": 2,
      "data": "0x454e565945444b4552",
      "r": "0x80c4abb4830c4aa0207d3a4db630ee13f474f769d9070c1c93b78afae9beab5a",
      "s": "0x7060a99d0cad7c12278f53e06f5b9fea2d8c3c6a8ee491d0919c674be639dbf3",
      "v": 28,
      "creates": null,
      "raw": "0xf87602860110c8f7d8de82c350942910543af39aba0cd09dbb2d50200b3e800a63d28806f05b59d3b2000089454e565945444b45521ca080c4abb4830c4aa0207d3a4db630ee13f474f769d9070c1c93b78afae9beab5aa07060a99d0cad7c12278f53e06f5b9fea2d8c3c6a8ee491d0919c674be639dbf3",
      "networkId": 0,
      "chainId": 0
    }
  ]
}