{
  "hash": "0x922554d498bdfd4dacbf9a97b6de4c578db7085765c161516b600413176983fe",
  "parentHash": "0x9464032da155524c83aad18523999437dee6b0a402b3abf7ddcff10e1b0b187d",
  "number": 79189,
  "timestamp": 1439465892,
  "nonce": "0xe07e21d658398078",
  "difficulty": 2318902633439,
  "gasLimit": {
    "_hex": "0x2fefd8"
  },
  "gasUsed": {
    "_hex": "0x546c"
  },
  "miner": "0x9746c7e1ef2bd21FF3997fa467593a89cb852BD0",
  "extraData": "0x476574682f76312e302e312f77696e646f77732f676f312e342e32",
  "transactions": [
    {
      "hash": "0x8603c419be919cc09d580fe30a8a0df65ae2880cbadeedb1c24c5a6e522f1c7e",
      "blockHash": "0x922554d498bdfd4dacbf9a97b6de4c578db7085765c161516b600413176983fe",
      "blockNumber": 79189,
      "transactionIndex": 0,
      "confirmations": null,
      "from": "0xb4b11D109f608fa8edD3feA9F8C315649AEB3d11",
      "gasPrice": {
        "_hex": "0x110c8f7d8de"
      },
      "gasLimit": {
        "_hex": "0xc350"
      },
      "to": "0x2910543Af39abA0Cd09dBb2D50200b3E800A63D2",
      "value": {
        "_hex": "0xf3f20b8dfa69d00000"
      },
      "nonce": 0,
      "data": "0x454e34513746574352",
      "r": "0x0e59da7c4292301cc218dd7538f0280c636a34305ad4a6d0977c35cd5503ac3b",
      "s": "0x5efdfeeec91cfc3ca7d63e3ddc581acaf575700702d61287a212d3bb75d2a60b",
      "v": 27,
      "creates": null,
      "raw": "0xf87780860110c8f7d8de82c350942910543af39aba0cd09dbb2d50200b3e800a63d289f3f20b8dfa69d0000089454e345137465743521ba00e59da7c4292301cc218dd7538f0280c636a34305ad4a6d0977c35cd5503ac3ba05efdfeeec91cfc3ca7d63e3ddc581acaf575700702d61287a212d3bb75d2a60b",
      "networkId": 0,
      "chainId": 0
    }
  ]
}