{
  "hash": "0x234e646982e540f05adf48df3aebde6db010ca75e1e33d78873b7b7baf76c3df",
  "parentHash": "0x17f542f118e20617c543470a883745e678c8c7af41b9a4a16688d33d3b466244",
  "number": 64908,
  "timestamp": 1439228221,
  "nonce": "0x853abff874c5fc34",
  "difficulty": 1909794610113,
  "gasLimit": {
    "_hex": "0x2fefd8"
  },
  "gasUsed": {
    "_hex": "0x1b484"
  },
  "miner": "0x0eDEd3DA479d0beF8eeC92A76644D3f4E3C177f7",
  "extraData": "0x476574682f76312e302e312f6c696e75782f676f312e342e32",
  "transactions": [
    {
      "hash": "0x29f48673d5a691bbd778a8cf6fcecec40159a1421eb00964829d1f3bb0b0446d",
      "blockHash": "0x234e646982e540f05adf48df3aebde6db010ca75e1e33d78873b7b7baf76c3df",
      "blockNumber": 64908,
      "transactionIndex": 0,
      "confirmations": null,
      "from": "0x6111E933E5e6297DFd0AAd9aAB64017c69062a08",
      "gasPrice": {
        "_hex": "0xd994c3c0e"
      },
      "gasLimit": {
        "_hex": "0x5208"
      },
      "to": "0x32Be343B94f860124dC4fEe278FDCBD38C102D88",
      "value": {
        "_hex": "0x455f35fa2bf34800"
      },
      "nonce": 7,
      "data": "0x",
      "r": "0x191fbf933aad612927d421717febf8fa095ce0fd713680d7e002ed48d63ce77a",
      "s": "0x2276cbae9dc2e246cb4457644f1c54dec175ff3e4657002ffadbd381cd4d3164",
      "v": 27,
      "creates": null,
      "raw": "0xf86c07850d994c3c0e8252089432be343b94f860124dc4fee278fdcbd38c102d8888455f35fa2bf34800801ba0191fbf933aad612927d421717febf8fa095ce0fd713680d7e002ed48d63ce77aa02276cbae9dc2e246cb4457644f1c54dec175ff3e4657002ffadbd381cd4d3164",
      "networkId": 0,
      "chainId": 0
    },
    {
      "hash": "0x0cd459b7b7991efc8a366128cd8af5700ee55e4ea6d39aa8710fb638a855fcff",
      "blockHash": "0x234e646982e540f05adf48df3aebde6db010ca75e1e33d78873b7b7baf76c3df",
      "blockNumber": 64908,
      "transactionIndex": 1,
      "confirmations": null,
      "from": "0x314c7Daa4825ffC0293819119c5FDCC0CcF19827",
      "gasPrice": {
        "_hex": "0xd994c3c0e"
      },
      "gasLimit": {
        "_hex": "0x5208"
      },
      "to": "0x32Be343B94f860124dC4fEe278FDCBD38C102D88",
      "value": {
        "_hex": "0x43c33bd37ed4b800000"
      },
      "nonce": 4,
      "data": "0x",
      "r": "0xf7c66d05cecf6b468e2b7727b002080d2bf5fc456ba6e2448f7c8b2e690f8556",
      "s": "0x525392c32ab84d839fb96e4f65b7182d9cd62670868dfa435c4c6997a9294575",
      "v": 27,
      "creates": null,
      "raw": "0xf86e04850d994c3c0e8252089432be343b94f860124dc4fee278fdcbd38c102d888a043c33bd37ed4b800000801ba0f7c66d05cecf6b468e2b7727b002080d2bf5fc456ba6e2448f7c8b2e690f8556a0525392c32ab84d839fb96e4f65b7182d9cd62670868dfa435c4c6997a9294575",
      "networkId": 0,
      "chainId": 0
    },
    {
      "hash": "0x4a5646c6e31ed31e42e8f17238bb6b3432631a76d64a9f18cb62275ca68fda2d",
      "blockHash": "0x234e646982e540f05adf48df3aebde6db010ca75e1e33d78873b7b7baf76c3df",
      "blockNumber": 64908,
      "transactionIndex": 2,
      "confirmations": null,
      "from": "0xC624b0Cd3307f6CFFC473f5019FA380E6811ee58",
      "gasPrice": {
        "_hex": "0xd994c3c0e"
      },
      "gasLimit": {
        "_hex": "0x5208"
      },
      "to": "0x32Be343B94f860124dC4fEe278FDCBD38C102D88",
      "value": {
        "_hex": "0x39968be0a80b9800000"
      },
      "nonce": 2,
      "data": "0x",
      "r": "0x54542978ac60d5b4c78b9100b6ef6b28007ea16088f5c18ae726559231495bf3",
      "s": "0x17d7fbe55a6d8a78f6ec785f07c39ae54b7253917a27ac4d97b8b441708b0486",
      "v": 28,
      "creates": null,
      "raw": "0xf86e02850d994c3c0e8252089432be343b94f860124dc4fee278fdcbd38c102d888a039968be0a80b9800000801ca054542978ac60d5b4c78b9100b6ef6b28007ea16088f5c18ae726559231495bf3a017d7fbe55a6d8a78f6ec785f07c39ae54b7253917a27ac4d97b8b441708b0486",
      "networkId": 0,
      "chainId": 0
    },
    {
      "hash": "0x3b2775fc5f4b53e9c19b547bdf826216cb52a3c2b560ea61e6fd7447bf0bfbf6",
      "blockHash": "0x234e646982e540f05adf48df3aebde6db010ca75e1e33d78873b7b7baf76c3df",
      "blockNumber": 64908,
      "transactionIndex": 3,
      "confirmations": null,
      "from": "0xbc621DDF9A10647952ff750e97e336fA2f83DbEB",
      "gasPrice": {
        "_hex": "0xba43b7400"
      },
      "gasLimit": {
        "_hex": "0x15f90"
      },
      "to": "0x793AE8C1b1a160BFc07BFB0d04F85eab1A71F4f2",
      "value": {
        "_hex": "0x0"
      },
      "nonce": 0,
      "data": "0x3ba15036",
      "r": "0xd50a21f7b7c78039a20fc26d9ee5031b9cbf5b1422b50aab083f84f6890c2d68",
      "s": "0x5064f5207368800b009865f45e39b11af3de25be1c8cf60ce31113ede23f6fbf",
      "v": 28,
      "creates": null,
      "raw": "0xf86980850ba43b740083015f9094793ae8c1b1a160bfc07bfb0d04f85eab1a71f4f280843ba150361ca0d50a21f7b7c78039a20fc26d9ee5031b9cbf5b1422b50aab083f84f6890c2d68a05064f5207368800b009865f45e39b11af3de25be1c8cf60ce31113ede23f6fbf",
      "networkId": 0,
      "chainId": 0
    }
  ]
}