{
  "hash": "0x33ae405476d77db4733326dd12991ad0393ad8ee1d4a77c251d4b4dab4c99b10",
  "parentHash": "0xb9837c8031a15d044e6dcb1721556fb8f12121dfb08108f8273e4288b807d719",
  "number": 75253,
  "timestamp": 1439400223,
  "nonce": "0x83dff4551446a80c",
  "difficulty": 2194379265759,
  "gasLimit": {
    "_hex": "0x2fefd8"
  },
  "gasUsed": {
    "_hex": "0xa410"
  },
  "miner": "0xbb7B8287f3F0a933474a79eAe42CBCa977791171",
  "extraData": "0x476574682f4c5649562f76312e302e312f6c696e75782f676f312e342e32",
  "transactions": [
    {
      "hash": "0x83b0ed046b3c87cd20ab2d2ded2d7fc450e1df981ad12acc6e3b98b6e0899987",
      "blockHash": "0x33ae405476d77db4733326dd12991ad0393ad8ee1d4a77c251d4b4dab4c99b10",
      "blockNumber": 75253,
      "transactionIndex": 0,
      "confirmations": null,
      "from": "0x923e58c2298906639eA9077D5100b4d9cdA7950e",
      "gasPrice": {
        "_hex": "0xcf44ea06f"
      },
      "gasLimit": {
        "_hex": "0x5208"
      },
      "to": "0x32Be343B94f860124dC4fEe278FDCBD38C102D88",
      "value": {
        "_hex": "0x3635c5871c37a00000"
      },
      "nonce": 0,
      "data": "0x",
      "r": "0x6aa45dcf2efb4809004f1ae2f7aff97747928687a734bd871e8fce5b883d201d",
      "s": "0x66c08ca276499ceffaf06a96d3f794875454d5523620b8fc5568118162f53d0a",
      "v": 28,
      "creates": null,
      "raw": "0xf86d80850cf44ea06f8252089432be343b94f860124dc4fee278fdcbd38c102d88893635c5871c37a00000801ca06aa45dcf2efb4809004f1ae2f7aff97747928687a734bd871e8fce5b883d201da066c08ca276499ceffaf06a96d3f794875454d5523620b8fc5568118162f53d0a",
      "networkId": 0,
      "chainId": 0
    },
    {
      "hash": "0x79e8c93ebd19efef6c1c5abb5d6349671f8d7e93314a54e91322fe8cf8360a37",
      "blockHash": "0x33ae405476d77db4733326dd12991ad0393ad8ee1d4a77c251d4b4dab4c99b10",
      "blockNumber": 75253,
      "transactionIndex": 1,
      "confirmations": null,
      "from": "0xdE8b99F68A20641A07501B9f1DC2CB73251C5909",
      "gasPrice": {
        "_hex": "0xcf44ea06f"
      },
      "gasLimit": {
        "_hex": "0x5208"
      },
      "to": "0x32Be343B94f860124dC4fEe278FDCBD38C102D88",
      "value": {
        "_hex": "0x619400788750200000"
      },
      "nonce": 1,
      "data": "0x",
      "r": "0x897544a9d37d23903b4a2b167584711ea87564aa8b78d041b45551c91a854b61",
      "s": "0x36d813cb0470933a99aad4c6ec83fa08e0cab28afc7ff804940b87fc2a9bd525",
      "v": 27,
      "creates": null,
      "raw": "0xf86d01850cf44ea06f8252089432be343b94f860124dc4fee278fdcbd38c102d8889619400788750200000801ba0897544a9d37d23903b4a2b167584711ea87564aa8b78d041b45551c91a854b61a036d813cb0470933a99aad4c6ec83fa08e0cab28afc7ff804940b87fc2a9bd525",
      "networkId": 0,
      "chainId": 0
    }
  ]
}