{
  "hash": "0xc9f48594530cd05df3634da471d3be568ab3e46f0b8f9d655f3bc84cba54b9c3",
  "parentHash": "0x4f71039a91a81e70de502f7c1183571abc4be22b793181f9e1a77964f54af4be",
  "number": 91943,
  "timestamp": 1439664202,
  "nonce": "0x1f5ea0685f2a8cca",
  "difficulty": 3472403984628,
  "gasLimit": {
    "_hex": "0x2fefd8"
  },
  "gasUsed": {
    "_hex": "0x5208"
  },
  "miner": "0xe6A7a1d47ff21B6321162AEA7C6CB457D5476Bca",
  "extraData": "0x476574682f76312e302e312d38326566323666362f6c696e75782f676f312e34",
  "transactions": [
    {
      "hash": "0xaf52539152de3f7450b6ec309bdbe66d614a8afccc1249fa376e16afebffb53e",
      "blockHash": "0xc9f48594530cd05df3634da471d3be568ab3e46f0b8f9d655f3bc84cba54b9c3",
      "blockNumber": 91943,
      "transactionIndex": 0,
      "confirmations": null,
      "from": "0x120A270bbC009644e35F0bB6ab13f95b8199c4ad",
      "gasPrice": {
        "_hex": "0xcb7b56dd6"
      },
      "gasLimit": {
        "_hex": "0x3d090"
      },
      "to": "0x4f764C5F486975D3a385bAe004AA285Ad3b73076",
      "value": {
        "_hex": "0xde0b6b3a7640000"
      },
      "nonce": 539,
      "data": "0x",
      "r": "0xbee7e6216fa012e3a1307c8b07611fca7e6494d1fd2a17a0a87861a76446bab9",
      "s": "0x7122cad5be3711ee3993e437c210786379e0ca7f3b1170b75cce64e874a02d9c",
      "v": 28,
      "creates": null,
      "raw": "0xf86f82021b850cb7b56dd68303d090944f764c5f486975d3a385bae004aa285ad3b73076880de0b6b3a7640000801ca0bee7e6216fa012e3a1307c8b07611fca7e6494d1fd2a17a0a87861a76446bab9a07122cad5be3711ee3993e437c210786379e0ca7f3b1170b75cce64e874a02d9c",
      "networkId": 0,
      "chainId": 0
    }
  ]
}