{
  "hash": "0x9414fd2d63d528ba22ec0739bf59421c699ac645d69767f9504b30f28fc75fcb",
  "parentHash": "0x29aebf90292e88ff3e10461e7fc5f41ec7e725b1664d0f07ba3f64f22c3cf42e",
  "number": 92666,
  "timestamp": 1439675316,
  "nonce": "0x13eeaa73a12f3c3f",
  "difficulty": 3577077460957,
  "gasLimit": {
    "_hex": "0x2fefd8"
  },
  "gasUsed": {
    "_hex": "0x5208"
  },
  "miner": "0xe6A7a1d47ff21B6321162AEA7C6CB457D5476Bca",
  "extraData": "0x476574682f76312e302e312d38326566323666362f6c696e75782f676f312e34",
  "transactions": [
    {
      "hash": "0x6d1005bbe4ba10481156d2bf5d1e3ab3aecd5264b881fb21ec6829e938daaed2",
      "blockHash": "0x9414fd2d63d528ba22ec0739bf59421c699ac645d69767f9504b30f28fc75fcb",
      "blockNumber": 92666,
      "transactionIndex": 0,
      "confirmations": null,
      "from": "0x32Be343B94f860124dC4fEe278FDCBD38C102D88",
      "gasPrice": {
        "_hex": "0xcd5298679"
      },
      "gasLimit": {
        "_hex": "0x5208"
      },
      "to": "0x4E0027De4ec5CFb0bF897fdd62843DC651304055",
      "value": {
        "_hex": "0xf207539952d0000"
      },
      "nonce": 899,
      "data": "0x",
      "r": "0x351fd8a9fe171ed211a26dd330f99795d33a91926dcb2677980978f2c422a199",
      "s": "0x4b9a970c2e0e251eb94b5958a2d826a357fe4dcfb4c5174a7739308ab453e08f",
      "v": 27,
      "creates": null,
      "raw": "0xf86e820383850cd5298679825208944e0027de4ec5cfb0bf897fdd62843dc651304055880f207539952d0000801ba0351fd8a9fe171ed211a26dd330f99795d33a91926dcb2677980978f2c422a199a04b9a970c2e0e251eb94b5958a2d826a357fe4dcfb4c5174a7739308ab453e08f",
      "networkId": 0,
      "chainId": 0
    }
  ]
}