{
  "hash": "0xe4a32ec7d87e8bfe3e8fcdb021201bc5a5316b5d8ed721482ef1db8a5e3da29b",
  "parentHash": "0x9ccb31b7c42a047a6ac96cd905fb6f83c6bd57bd92395559f924fb4ddae8d315",
  "number": 96720,
  "timestamp": 1439744765,
  "nonce": "0x518fd836a9b7015a",
  "difficulty": 3750594673824,
  "gasLimit": {
    "_hex": "0x2fefd8"
  },
  "gasUsed": {
    "_hex": "0xafa7"
  },
  "miner": "0xC99478b218E58F45783fA70f0507cf614938E67d",
  "extraData": "0xd983010001844765746887676f312e342e328777696e646f7773",
  "transactions": [
    {
      "hash": "0x718c6febbf9d404c3e291a4c5b21d4973e57b59e12744bc458551331f12fcef8",
      "blockHash": "0xe4a32ec7d87e8bfe3e8fcdb021201bc5a5316b5d8ed721482ef1db8a5e3da29b",
      "blockNumber": 96720,
      "transactionIndex": 0,
      "confirmations": null,
      "from": "0xCD1e66ED539dd92Fc40bBAa1FA16de8c02C14D45",
      "gasPrice": {
        "_hex": "0xd769f2926"
      },
      "gasLimit": {
        "_hex": "0x15f90"
      },
      "to": "0xCAc7000C7dBaa2E33Af15325AF5D435E011C7BdD",
      "value": {
        "_hex": "0x579a305996f1ef430"
      },
      "nonce": 10,
      "data": "0xb214faa5464d425756524833430000000000000000000000000000000000000000000000",
      "r": "0x8ed1b44fabbb3c149f61fd8e9192c6910673f4407cfd6c3167bde3b3e75c02de",
      "s": "0x158eec6ecbf42704468fc457ac8b686ddddc2999b2d88bf955548894e1ca8a12",
      "v": 27,
      "creates": null,
      "raw": "0xf8920a850d769f292683015f9094cac7000c7dbaa2e33af15325af5d435e011c7bdd890579a305996f1ef430a4b214faa5464d4257565248334300000000000000000000000000000000000000000000001ba08ed1b44fabbb3c149f61fd8e9192c6910673f4407cfd6c3167bde3b3e75c02dea0158eec6ecbf42704468fc457ac8b686ddddc2999b2d88bf955548894e1ca8a12",
      "networkId": 0,
      "chainId": 0
    },
    {
      "hash": "0x2a2f9faacea6ed852c521c2d7a42e390661ebe172b0c78a78b10a9f2079f988f",
      "blockHash": "0xe4a32ec7d87e8bfe3e8fcdb021201bc5a5316b5d8ed721482ef1db8a5e3da29b",
      "blockNumber": 96720,
      "transactionIndex": 1,
      "confirmations": null,
      "from": "0x120A270bbC009644e35F0bB6ab13f95b8199c4ad",
      "gasPrice": {
        "_hex": "0xd1932a97a"
      },
      "gasLimit": {
        "_hex": "0x3d090"
      },
      "to": "0xbE285A564cc713aFBDdc5aB18432D7AeEa61599e",
      "value": {
        "_hex": "0x31681b2266911800"
      },
      "nonce": 625,
      "data": "0x",
      "r": "0xdd7e98c54dfa3e578f8a3b995944ed9eaadb93ffd1ba7da2e901c406c7249b51",
      "s": "0x2571cb5627d8323fc9b4b7fdefd50daafa1a86b905e4dc21577a8eb76f7d0c3f",
      "v": 28,
      "creates": null,
      "raw": "0xf86f820271850d1932a97a8303d09094be285a564cc713afbddc5ab18432d7aeea61599e8831681b2266911800801ca0dd7e98c54dfa3e578f8a3b995944ed9eaadb93ffd1ba7da2e901c406c7249b51a02571cb5627d8323fc9b4b7fdefd50daafa1a86b905e4dc21577a8eb76f7d0c3f",
      "networkId": 0,
      "chainId": 0
    }
  ]
}