{
  "hash": "0xb9fd3bcb31f3fb172dfbe519ce936d7df308339b6f9a21a03a5f5f49e24b594a",
  "parentHash": "0x1196135b83a9df6a12afac91748564831146e138854a22d9254566df79e08904",
  "number": 68993,
  "timestamp": 1439296836,
  "nonce": "0x7b8bae9570373524",
  "difficulty": 2036942977922,
  "gasLimit": {
    "_hex": "0x2fefd8"
  },
  "gasUsed": {
    "_hex": "0x19a28"
  },
  "miner": "0x0eDEd3DA479d0beF8eeC92A76644D3f4E3C177f7",
  "extraData": "0x476574682f76312e302e312f6c696e75782f676f312e342e32",
  "transactions": [
    {
      "hash": "0x0acb7db0a6971dbc293305040cdee3d57b234e5861eb7e5f5065fe3b9ef80e5b",
      "blockHash": "0xb9fd3bcb31f3fb172dfbe519ce936d7df308339b6f9a21a03a5f5f49e24b594a",
      "blockNumber": 68993,
      "transactionIndex": 0,
      "confirmations": null,
      "from": "0xbD9E6e86e74AFaE6136f9dB6A31f707534548Cbd",
      "gasPrice": {
        "_hex": "0xba43b7400"
      },
      "gasLimit": {
        "_hex": "0x5208"
      },
      "to": "0x9e6a61d5693cF2ac2ee961D1ddAda50D92AC9e06",
      "value": {
        "_hex": "0x14c95414f131000"
      },
      "nonce": 1,
      "data": "0x",
      "r": "0xf1cdafe48a00ee7a679d1ec7582fb362aa10e73f69654e99c61453675a7bf5c3",
      "s": "0x246d6320a2d492470a33529b1ae7562c84a3be88b4c0f98223e475798b808d45",
      "v": 27,
      "creates": null,
      "raw": "0xf86c01850ba43b7400825208949e6a61d5693cf2ac2ee961d1ddada50d92ac9e0688014c95414f131000801ba0f1cdafe48a00ee7a679d1ec7582fb362aa10e73f69654e99c61453675a7bf5c3a0246d6320a2d492470a33529b1ae7562c84a3be88b4c0f98223e475798b808d45",
      "networkId": 0,
      "chainId": 0
    },
    {
      "hash": "0x671180fa3f05ac35e1e858b7a710b04df780ef44807d151a38dd9a9aa907ddd8",
      "blockHash": "0xb9fd3bcb31f3fb172dfbe519ce936d7df308339b6f9a21a03a5f5f49e24b594a",
      "blockNumber": 68993,
      "transactionIndex": 1,
      "confirmations": null,
      "from": "0xC6E69B70815e5CF5C19466822A8F08A570Fa9EB3",
      "gasPrice": {
        "_hex": "0xba43b7400"
      },
      "gasLimit": {
        "_hex": "0x5208"
      },
      "to": "0xc1fb4AB7aCC695753388d2195F1aD6a99397e8b0",
      "value": {
        "_hex": "0x14c95414f131000"
      },
      "nonce": 1,
      "data": "0x",
      "r": "0x688e41a8805299f3f1d007f918c556b60e6172844ef6efecabc52f959b218c53",
      "s": "0x32989d5157de61240fae97d79ca1d4fb47c7910375bb7a1ef387c38d4725fc78",
      "v": 27,
      "creates": null,
      "raw": "0xf86c01850ba43b740082520894c1fb4ab7acc695753388d2195f1ad6a99397e8b088014c95414f131000801ba0688e41a8805299f3f1d007f918c556b60e6172844ef6efecabc52f959b218c53a032989d5157de61240fae97d79ca1d4fb47c7910375bb7a1ef387c38d4725fc78",
      "networkId": 0,
      "chainId": 0
    },
    {
      "hash": "0x52d21e47aa9286b2bc5f3e28f0f3a604b5e1b826cc162c6513d6715e361e8815",
      "blockHash": "0xb9fd3bcb31f3fb172dfbe519ce936d7df308339b6f9a21a03a5f5f49e24b594a",
      "blockNumber": 68993,
      "transactionIndex": 2,
      "confirmations": null,
      "from": "0x4cF7e6AF75fA7e73DDf098AE17a18F5C5A19f527",
      "gasPrice": {
        "_hex": "0xba43b7400"
      },
      "gasLimit": {
        "_hex": "0x5208"
      },
      "to": "0x6d979CeE527E0157056E2824e86A7b9c030d8779",
      "value": {
        "_hex": "0x14c95414f131000"
      },
      "nonce": 1,
      "data": "0x",
      "r": "0x643240178185b7e71ff24314663b91643548fa79bedd456ad50e8cafca5b54e6",
      "s": "0x2fa0057a8772ed76d7f5937b2ac77f3a061ba51e80d05ac6760eec7734bcfa0e",
      "v": 27,
      "creates": null,
      "raw": "0xf86c01850ba43b7400825208946d979cee527e0157056e2824e86a7b9c030d877988014c95414f131000801ba0643240178185b7e71ff24314663b91643548fa79bedd456ad50e8cafca5b54e6a02fa0057a8772ed76d7f5937b2ac77f3a061ba51e80d05ac6760eec7734bcfa0e",
      "networkId": 0,
      "chainId": 0
    },
    {
      "hash": "0x1320ac1010d347f1e62d67fc0268480443d595bca11d6e05ad2cefe91eccb21f",
      "blockHash": "0xb9fd3bcb31f3fb172dfbe519ce936d7df308339b6f9a21a03a5f5f49e24b594a",
      "blockNumber": 68993,
      "transactionIndex": 3,
      "confirmations": null,
      "from": "0x3033d1adC1E5FCdAC81274833f33a445674CBf55",
      "gasPrice": {
        "_hex": "0xba43b7400"
      },
      "gasLimit": {
        "_hex": "0x5208"
      },
      "to": "0x66769D04E8c073Ce9AF1Da7c2c12A328C0dEC898",
      "value": {
        "_hex": "0x14c95414f131000"
      },
      "nonce": 1,
      "data": "0x",
      "r": "0x0d7c0d53f96b609b841b967e7dec873a751b938a6747d3baf342ac329ffd9a79",
      "s": "0x51ade75be422c8d893ac1d898fadcb5eff861d7a1b3c7c27f3316d6a003e1f0c",
      "v": 27,
      "creates": null,
      "raw": "0xf86c01850ba43b74008252089466769d04e8c073ce9af1da7c2c12a328c0dec89888014c95414f131000801ba00d7c0d53f96b609b841b967e7dec873a751b938a6747d3baf342ac329ffd9a79a051ade75be422c8d893ac1d898fadcb5eff861d7a1b3c7c27f3316d6a003e1f0c",
      "networkId": 0,
      "chainId": 0
    },
    {
      "hash": "0x7a299957cdeff02e09a20d789fa1bb712bad10976efd97e7e56cddc3d4851ee4",
      "blockHash": "0xb9fd3bcb31f3fb172dfbe519ce936d7df308339b6f9a21a03a5f5f49e24b594a",
      "blockNumber": 68993,
      "transactionIndex": 4,
      "confirmations": null,
      "from": "0x17047BCC434eC02A022B437c1Edaad760106ec96",
      "gasPrice": {
        "_hex": "0xba43b7400"
      },
      "gasLimit": {
        "_hex": "0x5208"
      },
      "to": "0xd0cc662bFDea2689583ec968fc4ab526B1f946a8",
      "value": {
        "_hex": "0x14c95414f131000"
      },
      "nonce": 1,
      "data": "0x",
      "r": "0xc80d2036e786fec9988ee31eded4294c1bc3f7fdc6699f269e88b16266de2252",
      "s": "0x68eb190e1e7da579e1fd86b22f38a2b750424944d4b5c0a04d543355004ef5bc",
      "v": 27,
      "creates": null,
      "raw": "0xf86c01850ba43b740082520894d0cc662bfdea2689583ec968fc4ab526b1f946a888014c95414f131000801ba0c80d2036e786fec9988ee31eded4294c1bc3f7fdc6699f269e88b16266de2252a068eb190e1e7da579e1fd86b22f38a2b750424944d4b5c0a04d543355004ef5bc",
      "networkId": 0,
      "chainId": 0
    }
  ]
}