{
  "hash": "0x0c882c2d6d0cc37340a29b71fa353cd14e54559a3dfdab89b87a8feb26575afe",
  "parentHash": "0x01e9271212452bf5e5231a755a6a7a4a0bac4156be3d1638b8a273c8a53b05cc",
  "number": 47959,
  "timestamp": 1438948967,
  "nonce": "0x9951700430e87194",
  "difficulty": 1460818110194,
  "gasLimit": {
    "_hex": "0x10dd2"
  },
  "gasUsed": {
    "_hex": "0x5208"
  },
  "miner": "0xf927a40C8B7F6E07c5af7FA2155B4864a4112B13",
  "extraData": "0x476574682f76312e302e312f6c696e75782f676f312e342e32",
  "transactions": [
    {
      "hash": "0x1e295155497ffb56ed1813b6989f97ee1ddb38d7bb25e97f2c5e8b41a2339696",
      "blockHash": "0x0c882c2d6d0cc37340a29b71fa353cd14e54559a3dfdab89b87a8feb26575afe",
      "blockNumber": 47959,
      "transactionIndex": 0,
      "confirmations": null,
      "from": "0xc3cb6B36Af443F2C6e258B4a39553a818747811F",
      "gasPrice": {
        "_hex": "0xcea205f05"
      },
      "gasLimit": {
        "_hex": "0x5208"
      },
      "to": "0x655Ce0C27E77D78C7e3e89F09EA6dfa394610b5f",
      "value": {
        "_hex": "0xad78ebc5ac6200000"
      },
      "nonce": 2,
      "data": "0x",
      "r": "0xf02c0b54448c0f47be74084ad7b3976accdcfdc0da7e76e4e51a1ee2cb7ecd06",
      "s": "0x7a0d09390d51391427fd39a982a260a370cb02001035b8efdf1a94e6ef7511d6",
      "v": 27,
      "creates": null,
      "raw": "0xf86d02850cea205f0582520894655ce0c27e77d78c7e3e89f09ea6dfa394610b5f890ad78ebc5ac6200000801ba0f02c0b54448c0f47be74084ad7b3976accdcfdc0da7e76e4e51a1ee2cb7ecd06a07a0d09390d51391427fd39a982a260a370cb02001035b8efdf1a94e6ef7511d6",
      "networkId": 0,
      "chainId": 0
    }
  ]
}