{
  "hash": "0xa41920447f9fc71ccb61f5c3db419052325b04d89a376d2390457b6f62bc16ef",
  "parentHash": "0x360178f1d2a245e998ca810e637a1e32738d0037ece4648f2b92534dd2e92ba5",
  "number": 119501,
  "timestamp": 1440144036,
  "nonce": "0x27290de23c7ffc95",
  "difficulty": 4392257114007,
  "gasLimit": {
    "_hex": "0x2fefd8"
  },
  "gasUsed": {
    "_hex": "0xa410"
  },
  "miner": "0x580992B51e3925e23280EfB93d3047C82f17E038",
  "extraData": "0x",
  "transactions": [
    {
      "hash": "0x970a18768abbbe22db1017a186305ca661ab950445158ab671eb9befa73063b0",
      "blockHash": "0xa41920447f9fc71ccb61f5c3db419052325b04d89a376d2390457b6f62bc16ef",
      "blockNumber": 119501,
      "transactionIndex": 0,
      "confirmations": null,
      "from": "0x6a9EfeB214aa03a8Cc69E201eF31210656D75882",
      "gasPrice": {
        "_hex": "0xba43b7400"
      },
      "gasLimit": {
        "_hex": "0x5208"
      },
      "to": "0x32Be343B94f860124dC4fEe278FDCBD38C102D88",
      "value": {
        "_hex": "0x128107ffd2056000"
      },
      "nonce": 1,
      "data": "0x",
      "r": "0xb94d67f7805c5769210276588da66fb86992a6173f753b8ea19a3ba2920b5717",
      "s": "0x268f1578d6fb441c136c39639abeba5d191e7296bd460ea6fd920dedb758a81a",
      "v": 27,
      "creates": null,
      "raw": "0xf86c01850ba43b74008252089432be343b94f860124dc4fee278fdcbd38c102d8888128107ffd2056000801ba0b94d67f7805c5769210276588da66fb86992a6173f753b8ea19a3ba2920b5717a0268f1578d6fb441c136c39639abeba5d191e7296bd460ea6fd920dedb758a81a",
      "networkId": 0,
      "chainId": 0
    },
    {
      "hash": "0x5366a47e2abfb3b56d95513ad1c2fe02076a49da6cce24f1b2f6bf5ac24bcece",
      "blockHash": "0xa41920447f9fc71ccb61f5c3db419052325b04d89a376d2390457b6f62bc16ef",
      "blockNumber": 119501,
      "transactionIndex": 1,
      "confirmations": null,
      "from": "0x5c67d94468c06c92E2d5f8446c41E7A859377994",
      "gasPrice": {
        "_hex": "0xba43b7400"
      },
      "gasLimit": {
        "_hex": "0x5208"
      },
      "to": "0x32Be343B94f860124dC4fEe278FDCBD38C102D88",
      "value": {
        "_hex": "0x3a2afff4c7271c00"
      },
      "nonce": 0,
      "data": "0x",
      "r": "0xebf9e0353464444637ee2b2b5bbf4e43d489e4815350cf22c460ed9d94390e3d",
      "s": "0x7295bc8c1a5283e915e6a2a7e22813a40c6fe34f3917bab1d661ef7889651f93",
      "v": 27,
      "creates": null,
      "raw": "0xf86c80850ba43b74008252089432be343b94f860124dc4fee278fdcbd38c102d88883a2afff4c7271c00801ba0ebf9e0353464444637ee2b2b5bbf4e43d489e4815350cf22c460ed9d94390e3da07295bc8c1a5283e915e6a2a7e22813a40c6fe34f3917bab1d661ef7889651f93",
      "networkId": 0,
      "chainId": 0
    }
  ]
}