{
  "hash": "0xda5b02e3c3e5fa16fd29e7a27475dcbeb7231449ad50c3c85a2164a82e2855c9",
  "parentHash": "0x6021e3880ea6ade3351cd4d78fae2f7983ba82f0ea0fc900884a0f0182d6586d",
  "number": 117205,
  "timestamp": 1440105357,
  "nonce": "0x0ddd95a98d7861a7",
  "difficulty": 4312691812032,
  "gasLimit": {
    "_hex": "0x2fefd8"
  },
  "gasUsed": {
    "_hex": "0x5208"
  },
  "miner": "0x7E6930B63D03e88F5928C5cd6ee3FCee4D714F7F",
  "extraData": "0xd783010003844765746887676f312e342e32856c696e7578",
  "transactions": [
    {
      "hash": "0xc3354b772a901285ca2ebd6248b74004c0d09af3e67a08be8bec5d7ed0af821a",
      "blockHash": "0xda5b02e3c3e5fa16fd29e7a27475dcbeb7231449ad50c3c85a2164a82e2855c9",
      "blockNumber": 117205,
      "transactionIndex": 0,
      "confirmations": null,
      "from": "0x790b8a3cE86E707ED0eD32bF89B3269692a23CC1",
      "gasPrice": {
        "_hex": "0xba43b7400"
      },
      "gasLimit": {
        "_hex": "0x15f90"
      },
      "to": "0x4D67f4F0Db45b3B5a3424B39ed8d972F710381D5",
      "value": {
        "_hex": "0xb6ed3509a99e20000"
      },
      "nonce": 58,
      "data": "0x",
      "r": "0x262bbc2aaf7dbc6f1835b1a71e40b768e7adebf5a82c9291397597d484b53d7e",
      "s": "0x102d0539e70ddf754426789e5f6147cc6769e4b2f3e78c2a1d9c9ccecba82785",
      "v": 28,
      "creates": null,
      "raw": "0xf86e3a850ba43b740083015f90944d67f4f0db45b3b5a3424b39ed8d972f710381d5890b6ed3509a99e20000801ca0262bbc2aaf7dbc6f1835b1a71e40b768e7adebf5a82c9291397597d484b53d7ea0102d0539e70ddf754426789e5f6147cc6769e4b2f3e78c2a1d9c9ccecba82785",
      "networkId": 0,
      "chainId": 0
    }
  ]
}