{
  "hash": "0x5d42e4ef2187e1fc72738aeb898787b5271fa289bec82c53e2a751a8f90a7c79",
  "parentHash": "0x62cdfa2ed188b75954cfe1166b84a1a17a37ce88b90ffddf23a92dde6cfa6123",
  "number": 49299,
  "timestamp": 1438971425,
  "nonce": "0x2cda08bcaefad5bc",
  "difficulty": 1476359228200,
  "gasLimit": {
    "_hex": "0x2bfec"
  },
  "gasUsed": {
    "_hex": "0x5208"
  },
  "miner": "0xe6A7a1d47ff21B6321162AEA7C6CB457D5476Bca",
  "extraData": "0x657468706f6f6c2e6f7267",
  "transactions": [
    {
      "hash": "0xadc10dab5be38c02983a5977133d70cddbf895004d454882b8acdd7067a57d4e",
      "blockHash": "0x5d42e4ef2187e1fc72738aeb898787b5271fa289bec82c53e2a751a8f90a7c79",
      "blockNumber": 49299,
      "transactionIndex": 0,
      "confirmations": null,
      "from": "0x3F3990F78c33F1F7A2868AE9579EA3732e84C71D",
      "gasPrice": {
        "_hex": "0xcd2185ee7"
      },
      "gasLimit": {
        "_hex": "0x5208"
      },
      "to": "0x32Be343B94f860124dC4fEe278FDCBD38C102D88",
      "value": {
        "_hex": "0x56bc3419083628000"
      },
      "nonce": 1,
      "data": "0x",
      "r": "0x417cf50401b2f0f638917498aa9ad42b75fb7687b348799e27a57e528d2add28",
      "s": "0x62d602536c69f365da8c3d559e461a6b6086bbaebdd66e626a89fe129c531813",
      "v": 28,
      "creates": null,
      "raw": "0xf86d01850cd2185ee78252089432be343b94f860124dc4fee278fdcbd38c102d8889056bc3419083628000801ca0417cf50401b2f0f638917498aa9ad42b75fb7687b348799e27a57e528d2add28a062d602536c69f365da8c3d559e461a6b6086bbaebdd66e626a89fe129c531813",
      "networkId": 0,
      "chainId": 0
    }
  ]
}