{
  "hash": "0x23f2e7806d1a791de1d046b140f41484ee56a1935b9f401f63997e6d0e845536",
  "parentHash": "0x5acac5477bfd4e82d87246b1fec90fa8699a52bf03165b6f1f6debf2fa025234",
  "number": 65041,
  "timestamp": 1439230320,
  "nonce": "0x679217bf9d1fac0c",
  "difficulty": 1921925415684,
  "gasLimit": {
    "_hex": "0x2fefd8"
  },
  "gasUsed": {
    "_hex": "0x17cd8"
  },
  "miner": "0x88D74a59454F6cF3B51ef6b9136AFb6b9D405A88",
  "extraData": "0x476574682f76312e302e312d37666266393930632f6c696e75782f676f312e34",
  "transactions": [
    {
      "hash": "0x5e0c99027eb36966615d595cc402740a1080ed2f776a07af50479e5e312f8f23",
      "blockHash": "0x23f2e7806d1a791de1d046b140f41484ee56a1935b9f401f63997e6d0e845536",
      "blockNumber": 65041,
      "transactionIndex": 0,
      "confirmations": null,
      "from": "0x4Cb08c8b93F06b3bF94f26d5cE702a9Bc827d669",
      "gasPrice": {
        "_hex": "0xba43b7400"
      },
      "gasLimit": {
        "_hex": "0x15f90"
      },
      "to": "0x793AE8C1b1a160BFc07BFB0d04F85eab1A71F4f2",
      "value": {
        "_hex": "0x0"
      },
      "nonce": 0,
      "data": "0x3ba15036",
      "r": "0x40e1987996b41c5dec87438b0ff760521bced6405b3eb6c3a542e9f7191ecbf2",
      "s": "0x504355fd9821313d82255c818d3bab7cfc09acc8edc847b1328b94eb7c5c350b",
      "v": 28,
      "creates": null,
      "raw": "0xf86980850ba43b740083015f9094793ae8c1b1a160bfc07bfb0d04f85eab1a71f4f280843ba150361ca040e1987996b41c5dec87438b0ff760521bced6405b3eb6c3a542e9f7191ecbf2a0504355fd9821313d82255c818d3bab7cfc09acc8edc847b1328b94eb7c5c350b",
      "networkId": 0,
      "chainId": 0
    },
    {
      "hash": "0x545f11fac702fb917492d991e5fb212c82b5ec4d9a042137e62f6ddc69010263",
      "blockHash": "0x23f2e7806d1a791de1d046b140f41484ee56a1935b9f401f63997e6d0e845536",
      "blockNumber": 65041,
      "transactionIndex": 1,
      "confirmations": null,
      "from": "0x1cE501F87C4123068e4F0997647c00332545b09C",
      "gasPrice": {
        "_hex": "0xba43b7400"
      },
      "gasLimit": {
        "_hex": "0x15f90"
      },
      "to": "0x793AE8C1b1a160BFc07BFB0d04F85eab1A71F4f2",
      "value": {
        "_hex": "0x0"
      },
      "nonce": 0,
      "data": "0x3ba15036",
      "r": "0xe50c6fd5180bceb05dab92b33cc3e7a3ca2a59d404ee9722ee06fc4d2ab5a864",
      "s": "0x542f8e299b0572f785794534b0d62622853a701b3444ba2f9216e02fa381e371",
      "v": 27,
      "creates": null,
      "raw": "0xf86980850ba43b740083015f9094793ae8c1b1a160bfc07bfb0d04f85eab1a71f4f280843ba150361ba0e50c6fd5180bceb05dab92b33cc3e7a3ca2a59d404ee9722ee06fc4d2ab5a864a0542f8e299b0572f785794534b0d62622853a701b3444ba2f9216e02fa381e371",
      "networkId": 0,
      "chainId": 0
    }
  ]
}