{
  "hash": "0xdbf725c3372f6fc2aedf36b8666b3b8bfd0f7b0d68cf9f471ec46c11bd4b49b7",
  "parentHash": "0x3f6d0720e586a1fe154480276861546109fe5727961db98050ef780d2b15dbdf",
  "number": 85647,
  "timestamp": 1439566677,
  "nonce": "0x3ed0e55fddde59af",
  "difficulty": 2786801561113,
  "gasLimit": {
    "_hex": "0x2fefd8"
  },
  "gasUsed": {
    "_hex": "0xb20b"
  },
  "miner": "0xe6A7a1d47ff21B6321162AEA7C6CB457D5476Bca",
  "extraData": "0x476574682f76312e302e312d38326566323666362f6c696e75782f676f312e34",
  "transactions": [
    {
      "hash": "0x2ccd18907b4d2e500bdbc8f955169905ff1e1ad0dc18826b1e3aef2bd96deb58",
      "blockHash": "0xdbf725c3372f6fc2aedf36b8666b3b8bfd0f7b0d68cf9f471ec46c11bd4b49b7",
      "blockNumber": 85647,
      "transactionIndex": 0,
      "confirmations": null,
      "from": "0x02020D22dCF88f5eDd66B382D7da019F161fB7e3",
      "gasPrice": {
        "_hex": "0xd1c69bbc7"
      },
      "gasLimit": {
        "_hex": "0x15f90"
      },
      "to": "0xCAc7000C7dBaa2E33Af15325AF5D435E011C7BdD",
      "value": {
        "_hex": "0xde0b6b3a7640000"
      },
      "nonce": 7,
      "data": "0xb214faa5384e53354b355737410000000000000000000000000000000000000000000000",
      "r": "0xc4dce4cd7014e37bae947a8cb303cf9465628b04a7a4e9ad8f172b90bdfebe9c",
      "s": "0x0a0b73ab2b5ccd48c1bc29daedc62244101d2ed99e9a51122ff70d7f93f94fbd",
      "v": 27,
      "creates": null,
      "raw": "0xf89107850d1c69bbc783015f9094cac7000c7dbaa2e33af15325af5d435e011c7bdd880de0b6b3a7640000a4b214faa5384e53354b3557374100000000000000000000000000000000000000000000001ba0c4dce4cd7014e37bae947a8cb303cf9465628b04a7a4e9ad8f172b90bdfebe9ca00a0b73ab2b5ccd48c1bc29daedc62244101d2ed99e9a51122ff70d7f93f94fbd",
      "networkId": 0,
      "chainId": 0
    },
    {
      "hash": "0xd07dcca7f4b98ed52c54ea52864ca912d794f07a6485e08c13c11bc925cfcb13",
      "blockHash": "0xdbf725c3372f6fc2aedf36b8666b3b8bfd0f7b0d68cf9f471ec46c11bd4b49b7",
      "blockNumber": 85647,
      "transactionIndex": 1,
      "confirmations": null,
      "from": "0xB1A4B41b8e75a153841c99c62d18588d45e7b406",
      "gasPrice": {
        "_hex": "0xd10fe9b4d"
      },
      "gasLimit": {
        "_hex": "0x15f90"
      },
      "to": "0x2910543Af39abA0Cd09dBb2D50200b3E800A63D2",
      "value": {
        "_hex": "0x410d586a20a4c0000"
      },
      "nonce": 6,
      "data": "0x454e46435045515752",
      "r": "0x69716fd00951268d3c170231c0e328adf1fc8677573ac919ed841c89ac14c383",
      "s": "0x564bf665e8923156633e4a01722a62b4c44bc77d3adc3d314e0866c9cd759fa4",
      "v": 27,
      "creates": null,
      "raw": "0xf87706850d10fe9b4d83015f90942910543af39aba0cd09dbb2d50200b3e800a63d2890410d586a20a4c000089454e464350455157521ba069716fd00951268d3c170231c0e328adf1fc8677573ac919ed841c89ac14c383a0564bf665e8923156633e4a01722a62b4c44bc77d3adc3d314e0866c9cd759fa4",
      "networkId": 0,
      "chainId": 0
    }
  ]
}