{
  "hash": "0x4f0fbc4d7ffff2e8053c2e4da54bbcfc331cb4b8f7dc688c17e4b272b86827b7",
  "parentHash": "0x72dd67372f2d8d79c2911a5f7e042c408040d4531d1c9ca87462a1d1eaa49b2a",
  "number": 57475,
  "timestamp": 1439104129,
  "nonce": "0x13600b07b9b9894b",
  "difficulty": 1736185336550,
  "gasLimit": {
    "_hex": "0x2fefd8"
  },
  "gasUsed": {
    "_hex": "0x5208"
  },
  "miner": "0x123843545FB525C8E134c9A5F15ADA6865cc3848",
  "extraData": "0x476574682f76312e302e312f77696e646f77732f676f312e342e32",
  "transactions": [
    {
      "hash": "0xd6d301888a42fb0943d0599a1484f512d93f90432abbcc35e42b0c9f31479cdc",
      "blockHash": "0x4f0fbc4d7ffff2e8053c2e4da54bbcfc331cb4b8f7dc688c17e4b272b86827b7",
      "blockNumber": 57475,
      "transactionIndex": 0,
      "confirmations": null,
      "from": "0x9746c7e1ef2bd21FF3997fa467593a89cb852BD0",
      "gasPrice": {
        "_hex": "0xd90144680"
      },
      "gasLimit": {
        "_hex": "0x5208"
      },
      "to": "0xB0bF4A71F730782368Ef660FE6D298F432F95450",
      "value": {
        "_hex": "0x1b0d04202f47ec0000"
      },
      "nonce": 11,
      "data": "0x",
      "r": "0xd04f5af29d7ec208d8eb54562e7363ea1877ab16afe71ec40872cb76f62c3b99",
      "s": "0x492853684f50c17c279fee6626754c416693218bff50401b132e3255391717de",
      "v": 27,
      "creates": null,
      "raw": "0xf86d0b850d9014468082520894b0bf4a71f730782368ef660fe6d298f432f95450891b0d04202f47ec0000801ba0d04f5af29d7ec208d8eb54562e7363ea1877ab16afe71ec40872cb76f62c3b99a0492853684f50c17c279fee6626754c416693218bff50401b132e3255391717de",
      "networkId": 0,
      "chainId": 0
    }
  ]
}