{
  "hash": "0x0dd9fe216c4dde987449868cca9d3c19bde88874e1ed5bfa098bf5d750a60445",
  "parentHash": "0xe8d07973f3ffbb8981f899242bd6f6a947ee5d3c8fd2f072f5c0968c959b4f4f",
  "number": 80247,
  "timestamp": 1439482480,
  "nonce": "0xc7c182d77e01ee5e",
  "difficulty": 2385212603362,
  "gasLimit": {
    "_hex": "0x2fefd8"
  },
  "gasUsed": {
    "_hex": "0x258bd"
  },
  "miner": "0xbb7B8287f3F0a933474a79eAe42CBCa977791171",
  "extraData": "0x476574682f4c5649562f76312e302e312f6c696e75782f676f312e342e32",
  "transactions": [
    {
      "hash": "0x8b41334fbfe3ddb24f1bc0d7fdb02da896c99ea552b071f31c625e3bc8f63339",
      "blockHash": "0x0dd9fe216c4dde987449868cca9d3c19bde88874e1ed5bfa098bf5d750a60445",
      "blockNumber": 80247,
      "transactionIndex": 0,
      "confirmations": null,
      "from": "0x87C5B5874A18B4306DF8a752a6C8cc3E82daFc19",
      "gasPrice": {
        "_hex": "0x10a1538fed3"
      },
      "gasLimit": {
        "_hex": "0x493e0"
      },
      "to": "0xC4c51de1AbF5D60DBd329eC0F999Fd8f021ae9fC",
      "value": {
        "_hex": "0x32da33a1ac458dcc"
      },
      "nonce": 151,
      "data": "0x8d216186000000000000000000000000000000000000000000000000000000000000001ad3d96ceed0cfca4794c2a5a3d3aeefe69da0a2a669e66a5651f30b64831c3db0",
      "r": "0xb6c9a15228f4e907c759fbcc1083b391dcbd5de3bde641b3c6ad5190f434990e",
      "s": "0x462ca7e865f1b792da0a77c347ba922a7ec622c4a9a450204c0a40b250ec4cc8",
      "v": 28,
      "creates": null,
      "raw": "0xf8b4819786010a1538fed3830493e094c4c51de1abf5d60dbd329ec0f999fd8f021ae9fc8832da33a1ac458dccb8448d216186000000000000000000000000000000000000000000000000000000000000001ad3d96ceed0cfca4794c2a5a3d3aeefe69da0a2a669e66a5651f30b64831c3db01ca0b6c9a15228f4e907c759fbcc1083b391dcbd5de3bde641b3c6ad5190f434990ea0462ca7e865f1b792da0a77c347ba922a7ec622c4a9a450204c0a40b250ec4cc8",
      "networkId": 0,
      "chainId": 0
    },
    {
      "hash": "0x3ff26aa79ff51aa1f348db862318f150bd650d2d001d64884cd4a7ad7638d539",
      "blockHash": "0x0dd9fe216c4dde987449868cca9d3c19bde88874e1ed5bfa098bf5d750a60445",
      "blockNumber": 80247,
      "transactionIndex": 1,
      "confirmations": null,
      "from": "0xC603Ab5ef41fC61AA8b76bEddb09e3Cfcbb174BD",
      "gasPrice": {
        "_hex": "0xd7dbc852a"
      },
      "gasLimit": {
        "_hex": "0x15f90"
      },
      "to": "0x5fF827e73C5B866c300b824fe12719a3DD350513",
      "value": {
        "_hex": "0x1158e460913d00000"
      },
      "nonce": 9,
      "data": "0x",
      "r": "0xf0f559dbd69dd9b23045a6479a91e89c7579891f7ec0232c662a319ade173377",
      "s": "0x391bab2201e1a0aea2a10f2e04b2c3a35e0cf9358d801c545e623393614dfddc",
      "v": 27,
      "creates": null,
      "raw": "0xf86e09850d7dbc852a83015f90945ff827e73c5b866c300b824fe12719a3dd3505138901158e460913d00000801ba0f0f559dbd69dd9b23045a6479a91e89c7579891f7ec0232c662a319ade173377a0391bab2201e1a0aea2a10f2e04b2c3a35e0cf9358d801c545e623393614dfddc",
      "networkId": 0,
      "chainId": 0
    },
    {
      "hash": "0x4903891ec70bb84917f69e166416babd3c077d83da3b34dc5cfe27125f59718e",
      "blockHash": "0x0dd9fe216c4dde987449868cca9d3c19bde88874e1ed5bfa098bf5d750a60445",
      "blockNumber": 80247,
      "transactionIndex": 2,
      "confirmations": null,
      "from": "0x32Be343B94f860124dC4fEe278FDCBD38C102D88",
      "gasPrice": {
        "_hex": "0xd6586d336"
      },
      "gasLimit": {
        "_hex": "0x5208"
      },
      "to": "0x9E6f2758B1aDF663a2626eC9cd73A35Dc3106a9E",
      "value": {
        "_hex": "0x65cbad554e45b000"
      },
      "nonce": 522,
      "data": "0x",
      "r": "0x1f56aa884c17a7a6e348c6de1515d62a9ef5628cb8413e1e51e6d96d76ba0b7c",
      "s": "0x38c65b4591dac8322a14d976f142dc51f2dd3395d0f3f4daaf4cff9c83252f66",
      "v": 28,
      "creates": null,
      "raw": "0xf86e82020a850d6586d336825208949e6f2758b1adf663a2626ec9cd73a35dc3106a9e8865cbad554e45b000801ca01f56aa884c17a7a6e348c6de1515d62a9ef5628cb8413e1e51e6d96d76ba0b7ca038c65b4591dac8322a14d976f142dc51f2dd3395d0f3f4daaf4cff9c83252f66",
      "networkId": 0,
      "chainId": 0
    }
  ]
}