{
  "hash": "0x58e99276ddd0f8b6dd2b1f2393863d8225b290eb046fa9279d0116f8d840e53f",
  "parentHash": "0x3bd0a271fb6e549124070ee7fec20463d4f925193054476fdf570777442d6cdb",
  "number": 76693,
  "timestamp": 1439424670,
  "nonce": "0xc112f9cb7caec63f",
  "difficulty": 2248226346508,
  "gasLimit": {
    "_hex": "0x2fefd8"
  },
  "gasUsed": {
    "_hex": "0x5208"
  },
  "miner": "0xe6A7a1d47ff21B6321162AEA7C6CB457D5476Bca",
  "extraData": "0x476574682f76312e302e312d38326566323666362f6c696e75782f676f312e34",
  "transactions": [
    {
      "hash": "0x4b0afd0812dffb36b3cff8c7a2f34f142854dfabecb4490eb5e045647bbe2eb2",
      "blockHash": "0x58e99276ddd0f8b6dd2b1f2393863d8225b290eb046fa9279d0116f8d840e53f",
      "blockNumber": 76693,
      "transactionIndex": 0,
      "confirmations": null,
      "from": "0xA06f48B3E2cE46d56e8A233F61B418FB25e0fb99",
      "gasPrice": {
        "_hex": "0xd7d40ace3"
      },
      "gasLimit": {
        "_hex": "0x15f90"
      },
      "to": "0xC25f24A505b8fEF751D8f4FCc397651001F7a160",
      "value": {
        "_hex": "0x33e7262f43f60000"
      },
      "nonce": 0,
      "data": "0x",
      "r": "0x40d1f8da3937af64619f01b9b923f570aacb05a3b2f65a370c5efc499b86bd9f",
      "s": "0x70942b536a9d7e5291427648c8d2b8c6c3c8f3b47950f7bc8052a1f17473b354",
      "v": 28,
      "creates": null,
      "raw": "0xf86d80850d7d40ace383015f9094c25f24a505b8fef751d8f4fcc397651001f7a1608833e7262f43f60000801ca040d1f8da3937af64619f01b9b923f570aacb05a3b2f65a370c5efc499b86bd9fa070942b536a9d7e5291427648c8d2b8c6c3c8f3b47950f7bc8052a1f17473b354",
      "networkId": 0,
      "chainId": 0
    }
  ]
}