{
  "hash": "0x29009baeb14aa2ebe9a1e7f40e23535c83506f8d1ac09ae23a5d967d191daac8",
  "parentHash": "0x5daf2fd6478f42fc9ddab1ef0fa83538a88b96e510908f70c8ad7d25206a79e4",
  "number": 99184,
  "timestamp": 1439785790,
  "nonce": "0x1fcbc95d16c661de",
  "difficulty": 3801107803403,
  "gasLimit": {
    "_hex": "0x2fefd5"
  },
  "gasUsed": {
    "_hex": "0x5208"
  },
  "miner": "0xe6A7a1d47ff21B6321162AEA7C6CB457D5476Bca",
  "extraData": "0x476574682f76312e302e312d38326566323666362f6c696e75782f676f312e34",
  "transactions": [
    {
      "hash": "0x756ec2bbc06a01cf5ed3821e8452772cc273ed0f6e29442b978c3f5b9050957e",
      "blockHash": "0x29009baeb14aa2ebe9a1e7f40e23535c83506f8d1ac09ae23a5d967d191daac8",
      "blockNumber": 99184,
      "transactionIndex": 0,
      "confirmations": null,
      "from": "0xB0bF4A71F730782368Ef660FE6D298F432F95450",
      "gasPrice": {
        "_hex": "0xcfca4b3e4"
      },
      "gasLimit": {
        "_hex": "0x5208"
      },
      "to": "0x32Be343B94f860124dC4fEe278FDCBD38C102D88",
      "value": {
        "_hex": "0x104351f13450940000"
      },
      "nonce": 28,
      "data": "0x",
      "r": "0xcdbf4e9fa1770f1ba7219d3a4650af791e2da3ac597e2d136b158d3fc649cd11",
      "s": "0x084dc774cad1e6951e0234765b79c753e9d9c893c32619f5b1eec23f32a0ac1b",
      "v": 28,
      "creates": null,
      "raw": "0xf86d1c850cfca4b3e48252089432be343b94f860124dc4fee278fdcbd38c102d8889104351f13450940000801ca0cdbf4e9fa1770f1ba7219d3a4650af791e2da3ac597e2d136b158d3fc649cd11a0084dc774cad1e6951e0234765b79c753e9d9c893c32619f5b1eec23f32a0ac1b",
      "networkId": 0,
      "chainId": 0
    }
  ]
}