{
  "hash": "0xcd1feb0df7da7e50ea1c2e3fc8703116728e6f130f9d7f18e16a472c40e65ce6",
  "parentHash": "0x8aa78cce8d7d86f7345bb1ea2e1e2fa1ce8852999d7f55c8963fde30ae452874",
  "number": 80892,
  "timestamp": 1439492851,
  "nonce": "0x03cc0b0714b04fb1",
  "difficulty": 2445167720602,
  "gasLimit": {
    "_hex": "0x2fefd8"
  },
  "gasUsed": {
    "_hex": "0x14d70"
  },
  "miner": "0xe6A7a1d47ff21B6321162AEA7C6CB457D5476Bca",
  "extraData": "0x476574682f76312e302e312d38326566323666362f6c696e75782f676f312e34",
  "transactions": [
    {
      "hash": "0x7db6cb9aae3b5e3fcfd3c65c183b762ec6f7404d008ac8c8024905829c1295e3",
      "blockHash": "0xcd1feb0df7da7e50ea1c2e3fc8703116728e6f130f9d7f18e16a472c40e65ce6",
      "blockNumber": 80892,
      "transactionIndex": 0,
      "confirmations": null,
      "from": "0x548303a76b24d477704da08a513179F39AE78C7c",
      "gasPrice": {
        "_hex": "0x10d6041ed9e"
      },
      "gasLimit": {
        "_hex": "0x15f90"
      },
      "to": "0x82226e5858223d7aac5A9b3193c8c1fd4Bb4E1F3",
      "value": {
        "_hex": "0xde0b6b3a7640000"
      },
      "nonce": 0,
      "data": "0x",
      "r": "0x6353ea3bc98181efa509665c079f6d2e5ae498411321798c770aaae9e6b3b53a",
      "s": "0x41e8d7326f0589bcf3df5f4ef3a03e3629033a73d67e31c08f512b438c07e363",
      "v": 27,
      "creates": null,
      "raw": "0xf86e8086010d6041ed9e83015f909482226e5858223d7aac5a9b3193c8c1fd4bb4e1f3880de0b6b3a7640000801ba06353ea3bc98181efa509665c079f6d2e5ae498411321798c770aaae9e6b3b53aa041e8d7326f0589bcf3df5f4ef3a03e3629033a73d67e31c08f512b438c07e363",
      "networkId": 0,
      "chainId": 0
    },
    {
      "hash": "0x5c1267787385ca06e2158ddbfc9b83156d510efe544c15ba2e6be6046bde576d",
      "blockHash": "0xcd1feb0df7da7e50ea1c2e3fc8703116728e6f130f9d7f18e16a472c40e65ce6",
      "blockNumber": 80892,
      "transactionIndex": 1,
      "confirmations": null,
      "from": "0x548303a76b24d477704da08a513179F39AE78C7c",
      "gasPrice": {
        "_hex": "0x10d6041ed9e"
      },
      "gasLimit": {
        "_hex": "0x15f90"
      },
      "to": "0x82226e5858223d7aac5A9b3193c8c1fd4Bb4E1F3",
      "value": {
        "_hex": "0xde0b6b3a7640000"
      },
      "nonce": 1,
      "data": "0x",
      "r": "0xac328b6e7481a3c844b804ea1f3da5f586b8d30e33daaa52a604c0b9de857ba0",
      "s": "0x05bf30e5ca11beb957a3898135cdce563b86d17135e04795460961decd70c129",
      "v": 27,
      "creates": null,
      "raw": "0xf86e0186010d6041ed9e83015f909482226e5858223d7aac5a9b3193c8c1fd4bb4e1f3880de0b6b3a7640000801ba0ac328b6e7481a3c844b804ea1f3da5f586b8d30e33daaa52a604c0b9de857ba0a005bf30e5ca11beb957a3898135cdce563b86d17135e04795460961decd70c129",
      "networkId": 0,
      "chainId": 0
    },
    {
      "hash": "0xa94c5f4ad02a5ba619bfa74baa991376785e5fce0ddc28899186960fbd8f04da",
      "blockHash": "0xcd1feb0df7da7e50ea1c2e3fc8703116728e6f130f9d7f18e16a472c40e65ce6",
      "blockNumber": 80892,
      "transactionIndex": 2,
      "confirmations": null,
      "from": "0x4d67f2AB8599fef5Fc413999Aa01FD7fcE70B43D",
      "gasPrice": {
        "_hex": "0xdb2410629"
      },
      "gasLimit": {
        "_hex": "0x5dc0"
      },
      "to": "0x2910543Af39abA0Cd09dBb2D50200b3E800A63D2",
      "value": {
        "_hex": "0xde0b6b3a7640000"
      },
      "nonce": 9,
      "data": "0x584538314554484b52414b454e304245364b4838",
      "r": "0xbe0452a37053526776fc1f1d8d86d39241643912ab999d08ee4048ffb7fbd55a",
      "s": "0x7c66d26bc09a7207eb0a69921ba320d68d21fb2b70250d7c8099777960e6f209",
      "v": 28,
      "creates": null,
      "raw": "0xf88009850db2410629825dc0942910543af39aba0cd09dbb2d50200b3e800a63d2880de0b6b3a764000094584538314554484b52414b454e304245364b48381ca0be0452a37053526776fc1f1d8d86d39241643912ab999d08ee4048ffb7fbd55aa07c66d26bc09a7207eb0a69921ba320d68d21fb2b70250d7c8099777960e6f209",
      "networkId": 0,
      "chainId": 0
    },
    {
      "hash": "0x07f850c7e9de40f8d91946765b89b893103fcf86e2edda645678fdbdda4dd74e",
      "blockHash": "0xcd1feb0df7da7e50ea1c2e3fc8703116728e6f130f9d7f18e16a472c40e65ce6",
      "blockNumber": 80892,
      "transactionIndex": 3,
      "confirmations": null,
      "from": "0x1d6C4F7d4438bd7E81D4FE153Dd956bCaBcfF265",
      "gasPrice": {
        "_hex": "0xd30221059"
      },
      "gasLimit": {
        "_hex": "0x15f90"
      },
      "to": "0xaA9485EBA854ABA86Bfdd64C8f4f08Badd0f31C3",
      "value": {
        "_hex": "0xa217b21de090000"
      },
      "nonce": 1,
      "data": "0x",
      "r": "0x1d0a2e90d46f18670398ece876f21d705e2d032347155e4e053717991ae92551",
      "s": "0x2eb7d8cbd2672bacc7387450db6803b2e33ed4dd2abb5718308103b34be39d08",
      "v": 27,
      "creates": null,
      "raw": "0xf86d01850d3022105983015f9094aa9485eba854aba86bfdd64c8f4f08badd0f31c3880a217b21de090000801ba01d0a2e90d46f18670398ece876f21d705e2d032347155e4e053717991ae92551a02eb7d8cbd2672bacc7387450db6803b2e33ed4dd2abb5718308103b34be39d08",
      "networkId": 0,
      "chainId": 0
    }
  ]
}