{
  "hash": "0x90e440fd63a233398753b70505695065f2e8707ef7f055d75be6b6dbc80e8d69",
  "parentHash": "0xf0c46325e74cd003f5263dfd22987be82b63c5394fb5a6be3bada26cd2f7929c",
  "number": 56481,
  "timestamp": 1439087914,
  "nonce": "0x4840c9866d3a9991",
  "difficulty": 1660115182017,
  "gasLimit": {
    "_hex": "0x2fe68b"
  },
  "gasUsed": {
    "_hex": "0x14820"
  },
  "miner": "0x9746c7e1ef2bd21FF3997fa467593a89cb852BD0",
  "extraData": "0x476574682f76312e302e312f77696e646f77732f676f312e342e32",
  "transactions": [
    {
      "hash": "0xd7abcc28c92add39a92f81ae0290110c6244737835f4a758bcb4c8cc46f646e2",
      "blockHash": "0x90e440fd63a233398753b70505695065f2e8707ef7f055d75be6b6dbc80e8d69",
      "blockNumber": 56481,
      "transactionIndex": 0,
      "confirmations": null,
      "from": "0x1308A2e95c0160B90803ddCA9B9a5bb55E416d79",
      "gasPrice": {
        "_hex": "0x5af3107a4000"
      },
      "gasLimit": {
        "_hex": "0x15f90"
      },
      "to": "0x7266c8FD66eD582bEA23bd8BC48E58D7f17321F3",
      "value": {
        "_hex": "0xde0b6b3a7640000"
      },
      "nonce": 57,
      "data": "0x",
      "r": "0xbaa08183bad30f4d09e4497d539376ba852a0238f21869fe090e0d7746959338",
      "s": "0x586e15c254e5b89a499be79da50fec70d0ab46888e0825e6613a48171baf8c19",
      "v": 27,
      "creates": null,
      "raw": "0xf86e39865af3107a400083015f90947266c8fd66ed582bea23bd8bc48e58d7f17321f3880de0b6b3a7640000801ba0baa08183bad30f4d09e4497d539376ba852a0238f21869fe090e0d7746959338a0586e15c254e5b89a499be79da50fec70d0ab46888e0825e6613a48171baf8c19",
      "networkId": 0,
      "chainId": 0
    },
    {
      "hash": "0x5ff4c0dd50d04664c207281daebc7bd14e646193a7cf493593d9e91444568012",
      "blockHash": "0x90e440fd63a233398753b70505695065f2e8707ef7f055d75be6b6dbc80e8d69",
      "blockNumber": 56481,
      "transactionIndex": 1,
      "confirmations": null,
      "from": "0x1308A2e95c0160B90803ddCA9B9a5bb55E416d79",
      "gasPrice": {
        "_hex": "0x5af3107a4000"
      },
      "gasLimit": {
        "_hex": "0x15f90"
      },
      "to": "0x7266c8FD66eD582bEA23bd8BC48E58D7f17321F3",
      "value": {
        "_hex": "0xde0b6b3a7640000"
      },
      "nonce": 58,
      "data": "0x",
      "r": "0x9887007ff220190ceebb95b23d56694e7b85286d1a8abe0c87975ebaa222ec10",
      "s": "0x71326bd1c968393309f29e651a5aeab26987eaef92659b66e9cb4c8dfffedfdb",
      "v": 27,
      "creates": null,
      "raw": "0xf86e3a865af3107a400083015f90947266c8fd66ed582bea23bd8bc48e58d7f17321f3880de0b6b3a7640000801ba09887007ff220190ceebb95b23d56694e7b85286d1a8abe0c87975ebaa222ec10a071326bd1c968393309f29e651a5aeab26987eaef92659b66e9cb4c8dfffedfdb",
      "networkId": 0,
      "chainId": 0
    },
    {
      "hash": "0xb3d6e41c3699e8cb1125bcdd7d73f7c55447c32b0cb41e591db0cf9fe18685e1",
      "blockHash": "0x90e440fd63a233398753b70505695065f2e8707ef7f055d75be6b6dbc80e8d69",
      "blockNumber": 56481,
      "transactionIndex": 2,
      "confirmations": null,
      "from": "0x5fF827e73C5B866c300b824fe12719a3DD350513",
      "gasPrice": {
        "_hex": "0xcbdad7a36"
      },
      "gasLimit": {
        "_hex": "0x5208"
      },
      "to": "0x32Be343B94f860124dC4fEe278FDCBD38C102D88",
      "value": {
        "_hex": "0x98a3c49087b4f000"
      },
      "nonce": 0,
      "data": "0x",
      "r": "0xeb43e8c8743156a7820483866d359f8eed1a64fa15d1ffa4653b6452edee5b75",
      "s": "0x547ddccdf2965bc1e22e53b93f79be2601e1384166dc4890ffb7b114221bf61d",
      "v": 28,
      "creates": null,
      "raw": "0xf86c80850cbdad7a368252089432be343b94f860124dc4fee278fdcbd38c102d888898a3c49087b4f000801ca0eb43e8c8743156a7820483866d359f8eed1a64fa15d1ffa4653b6452edee5b75a0547ddccdf2965bc1e22e53b93f79be2601e1384166dc4890ffb7b114221bf61d",
      "networkId": 0,
      "chainId": 0
    },
    {
      "hash": "0xe3e2659411363533e847760a7c08ae721873daf6e9f074005dc50c3995602ce0",
      "blockHash": "0x90e440fd63a233398753b70505695065f2e8707ef7f055d75be6b6dbc80e8d69",
      "blockNumber": 56481,
      "transactionIndex": 3,
      "confirmations": null,
      "from": "0x082AF42638C5A41b6993D4B9C9615Dc6d0D224b1",
      "gasPrice": {
        "_hex": "0xba43b7400"
      },
      "gasLimit": {
        "_hex": "0x5b04"
      },
      "to": "0xa5dfe8122aD4fEc714482bAcB56AfD198ce3Bc5E",
      "value": {
        "_hex": "0x56a11e6a34000"
      },
      "nonce": 0,
      "data": "0x",
      "r": "0x1e1fbd1cdbe09278ee6b7df25aae0fb1642733c8527d3e99e604eca75449ee63",
      "s": "0x58e5a104e7976db0aa555518d2d7a539a2b5612a0e559de08bc6ac3902f6e38a",
      "v": 27,
      "creates": null,
      "raw": "0xf86b80850ba43b7400825b0494a5dfe8122ad4fec714482bacb56afd198ce3bc5e87056a11e6a34000801ba01e1fbd1cdbe09278ee6b7df25aae0fb1642733c8527d3e99e604eca75449ee63a058e5a104e7976db0aa555518d2d7a539a2b5612a0e559de08bc6ac3902f6e38a",
      "networkId": 0,
      "chainId": 0
    }
  ]
}