{
  "hash": "0x7c535acfa8e700f14772361de77c991e8bd13c23e5dd169f2b40aeef5ebeecb7",
  "parentHash": "0x2b0558a0d0aee5f897e3a3584526074af9956fcda8e43a8fb019d8e1c7e3b335",
  "number": 80251,
  "timestamp": 1439482525,
  "nonce": "0xbe4b1faa29243dc2",
  "difficulty": 2385211466004,
  "gasLimit": {
    "_hex": "0x2fefd8"
  },
  "gasUsed": {
    "_hex": "0xaa37"
  },
  "miner": "0xe6A7a1d47ff21B6321162AEA7C6CB457D5476Bca",
  "extraData": "0x476574682f76312e302e312d38326566323666362f6c696e75782f676f312e34",
  "transactions": [
    {
      "hash": "0xc5bead344f9f704bfadf8c59562ec5b8132bd982fe7232a7cbe3730a9048d8b6",
      "blockHash": "0x7c535acfa8e700f14772361de77c991e8bd13c23e5dd169f2b40aeef5ebeecb7",
      "blockNumber": 80251,
      "transactionIndex": 0,
      "confirmations": null,
      "from": "0x87C5B5874A18B4306DF8a752a6C8cc3E82daFc19",
      "gasPrice": {
        "_hex": "0xff7171514c"
      },
      "gasLimit": {
        "_hex": "0x493e0"
      },
      "to": "0xC4c51de1AbF5D60DBd329eC0F999Fd8f021ae9fC",
      "value": {
        "_hex": "0x0"
      },
      "nonce": 152,
      "data": "0x03750d9400000000000000000000000087c5b5874a18b4306df8a752a6c8cc3e82dafc196b6b6b0000000000000000000000000000000000000000000000000000000000",
      "r": "0xd948c9cb7256934834094fda73b1e2f9d1c846018e21244f6cd701b7135eb9dd",
      "s": "0x655db9284128ad95057ebf37cc3eb18d76f55f658ac1afce7cdb30adf7072a80",
      "v": 28,
      "creates": null,
      "raw": "0xf8ab819885ff7171514c830493e094c4c51de1abf5d60dbd329ec0f999fd8f021ae9fc80b84403750d9400000000000000000000000087c5b5874a18b4306df8a752a6c8cc3e82dafc196b6b6b00000000000000000000000000000000000000000000000000000000001ca0d948c9cb7256934834094fda73b1e2f9d1c846018e21244f6cd701b7135eb9dda0655db9284128ad95057ebf37cc3eb18d76f55f658ac1afce7cdb30adf7072a80",
      "networkId": 0,
      "chainId": 0
    }
  ]
}