{
  "hash": "0x9eba0515d174b8894fa1afd80401812493a0184729e2a2ee9a1aecb787072791",
  "parentHash": "0x7be541b789f28e5cb6d817c6507ab0009c086aa1407fff37be0354cdedad0767",
  "number": 104651,
  "timestamp": 1439873088,
  "nonce": "0x4f81988d92e1794d",
  "difficulty": 4382885299872,
  "gasLimit": {
    "_hex": "0x2fefd8"
  },
  "gasUsed": {
    "_hex": "0x5208"
  },
  "miner": "0x580992B51e3925e23280EfB93d3047C82f17E038",
  "extraData": "0x476574682f76312e302e312f6c696e75782f676f312e342e32",
  "transactions": [
    {
      "hash": "0xc7608bf47f98c116c3592a883ff6b3a7f91ddf4552be70b5c05d111c5bd2984e",
      "blockHash": "0x9eba0515d174b8894fa1afd80401812493a0184729e2a2ee9a1aecb787072791",
      "blockNumber": 104651,
      "transactionIndex": 0,
      "confirmations": null,
      "from": "0x8Ab53580aD08Bf9cDaa65748fb4d3Fbbf4Ae1FC5",
      "gasPrice": {
        "_hex": "0xd7d40ace3"
      },
      "gasLimit": {
        "_hex": "0x15f90"
      },
      "to": "0x7d9266eD34DAc82CeaD440B77Cfe1cD21dCFC56b",
      "value": {
        "_hex": "0x4a97d605a3b980000"
      },
      "nonce": 2,
      "data": "0x",
      "r": "0x86191d6debdfcb524dee2151ed291ff95eed2ea0c9f23360ec168e7202e33214",
      "s": "0x3bdde4d3ff77b4d9652dc701005620ee09e2f0311e27add52263b15efd6ae739",
      "v": 27,
      "creates": null,
      "raw": "0xf86e02850d7d40ace383015f90947d9266ed34dac82cead440b77cfe1cd21dcfc56b8904a97d605a3b980000801ba086191d6debdfcb524dee2151ed291ff95eed2ea0c9f23360ec168e7202e33214a03bdde4d3ff77b4d9652dc701005620ee09e2f0311e27add52263b15efd6ae739",
      "networkId": 0,
      "chainId": 0
    }
  ]
}