{
  "hash": "0x7e57fa72d4d7f9b96ffe237ed16d558226b315e51ac175cc7c8949f036078294",
  "parentHash": "0x8ed26e8dd9c7521d573729f29001ebe281485de28d1cccbc521a9eb14a6ae363",
  "number": 116208,
  "timestamp": 1440070130,
  "nonce": "0x69afc352016e67ce",
  "difficulty": 4575715807440,
  "gasLimit": {
    "_hex": "0x2fefd8"
  },
  "gasUsed": {
    "_hex": "0x5208"
  },
  "miner": "0x0193d941b50d91BE6567c7eE1C0Fe7AF498b4137",
  "extraData": "0x4a5ace9e4e",
  "transactions": [
    {
      "hash": "0xb6b50df983bafa3d5110060ab81c32a6f3d5b6b22ebc882d15ca9d74dbacccfe",
      "blockHash": "0x7e57fa72d4d7f9b96ffe237ed16d558226b315e51ac175cc7c8949f036078294",
      "blockNumber": 116208,
      "transactionIndex": 0,
      "confirmations": null,
      "from": "0x4d67f2AB8599fef5Fc413999Aa01FD7fcE70B43D",
      "gasPrice": {
        "_hex": "0xd49a919f5"
      },
      "gasLimit": {
        "_hex": "0xa410"
      },
      "to": "0xF2fa51710FeAe5b221eEfA15F2044A8B2dE2B5fA",
      "value": {
        "_hex": "0x7ce66c50e2840000"
      },
      "nonce": 12,
      "data": "0x",
      "r": "0xcfd83f0d5d3b9e516f8a6b23a29751160d9214ae136c6bc25ae9febdce829ee5",
      "s": "0x516945a0e90d4fef8ba4df61e8b3b7510fbf94d889a105bca5d399ce5e723bc9",
      "v": 28,
      "creates": null,
      "raw": "0xf86c0c850d49a919f582a41094f2fa51710feae5b221eefa15f2044a8b2de2b5fa887ce66c50e2840000801ca0cfd83f0d5d3b9e516f8a6b23a29751160d9214ae136c6bc25ae9febdce829ee5a0516945a0e90d4fef8ba4df61e8b3b7510fbf94d889a105bca5d399ce5e723bc9",
      "networkId": 0,
      "chainId": 0
    }
  ]
}