{
  "hash": "0x9c6305c66a6eb8a97df12c30b2ad586726e2a11fca6ef6c3c08b95448a1cfb9c",
  "parentHash": "0x978145913d68ca683f4c6327513d74de172fb2a1022eb913f26178b2b2e53f43",
  "number": 101071,
  "timestamp": 1439817009,
  "nonce": "0x510f20d8e5bfff5d",
  "difficulty": 3861983401249,
  "gasLimit": {
    "_hex": "0x2fefd8"
  },
  "gasUsed": {
    "_hex": "0x5208"
  },
  "miner": "0x785ffdDd5cE55c6DF963f345e68d3F2024E5Acb1",
  "extraData": "0x",
  "transactions": [
    {
      "hash": "0x0e0eb95e2f57d1e03f7f19778bb34e90906e945b92490a9a5907826ff3e2d999",
      "blockHash": "0x9c6305c66a6eb8a97df12c30b2ad586726e2a11fca6ef6c3c08b95448a1cfb9c",
      "blockNumber": 101071,
      "transactionIndex": 0,
      "confirmations": null,
      "from": "0x2e3A5f60a5590959B068587c47e643E18E7F5Cdf",
      "gasPrice": {
        "_hex": "0xd86c61c4f"
      },
      "gasLimit": {
        "_hex": "0x15f90"
      },
      "to": "0xf79C60f735a1366d3dee91f15f40BC3A64956B1D",
      "value": {
        "_hex": "0x38d7ea4c68000"
      },
      "nonce": 0,
      "data": "0x",
      "r": "0xf469115e6a709eff9f4430fc35aa7b3bf790676f5ba2106f2f91ceed0ac4b57e",
      "s": "0x4b57c84a9b48e6c8c08eea941918ea9b0aaf6d90fdbcaffae44e02a06b118303",
      "v": 27,
      "creates": null,
      "raw": "0xf86c80850d86c61c4f83015f9094f79c60f735a1366d3dee91f15f40bc3a64956b1d87038d7ea4c68000801ba0f469115e6a709eff9f4430fc35aa7b3bf790676f5ba2106f2f91ceed0ac4b57ea04b57c84a9b48e6c8c08eea941918ea9b0aaf6d90fdbcaffae44e02a06b118303",
      "networkId": 0,
      "chainId": 0
    }
  ]
}