{
  "hash": "0xd1815146f6ff5358e1fe8477920c51bce2a67fde3d60a7ccfffea67b77810f4a",
  "parentHash": "0xe8af1b4e0840d74263226af3a2077bf6bd2102becca8154e2cdd5d1ada3c4a6a",
  "number": 55769,
  "timestamp": 1439076798,
  "nonce": "0x3a80701ddb6c7c8c",
  "difficulty": 1596652676589,
  "gasLimit": {
    "_hex": "0x2fefd8"
  },
  "gasUsed": {
    "_hex": "0x5208"
  },
  "miner": "0xC759dc67E0c3816fdC56A2f5bb29920fc07e767D",
  "extraData": "0x476574682f76312e302e312f77696e646f77732f676f312e342e32",
  "transactions": [
    {
      "hash": "0x61ff4d1d540626a9928fb96b6ba54b45eb005922282601965d0d1c5ed8b365da",
      "blockHash": "0xd1815146f6ff5358e1fe8477920c51bce2a67fde3d60a7ccfffea67b77810f4a",
      "blockNumber": 55769,
      "transactionIndex": 0,
      "confirmations": null,
      "from": "0x5161fd49E847F67455f1C8Bb7abb36e985260D03",
      "gasPrice": {
        "_hex": "0x103c52710d2"
      },
      "gasLimit": {
        "_hex": "0x15f90"
      },
      "to": "0xDeDbaA6D17975d4edc31195983F9AFaB1529CD47",
      "value": {
        "_hex": "0x1a901db3de65680000"
      },
      "nonce": 1,
      "data": "0x",
      "r": "0xd3cab8172e232f2ee29097549b91185e4e1701dc7c6dbbe65cd9c3493c2c3592",
      "s": "0x2db6e9a062ca187aa8b77c480f5fe56882b39a991d0b443c49b2a35f9185be60",
      "v": 28,
      "creates": null,
      "raw": "0xf86f01860103c52710d283015f9094dedbaa6d17975d4edc31195983f9afab1529cd47891a901db3de65680000801ca0d3cab8172e232f2ee29097549b91185e4e1701dc7c6dbbe65cd9c3493c2c3592a02db6e9a062ca187aa8b77c480f5fe56882b39a991d0b443c49b2a35f9185be60",
      "networkId": 0,
      "chainId": 0
    }
  ]
}