{
  "hash": "0xcd406789c73032cd856ae9c9f2a61f90fb04afcf57fcd970e34b043316a42c8f",
  "parentHash": "0xa00ab1060cd21f9a015883aaa03ac6a95b9e90be12693ed281082e7683e7b50d",
  "number": 81078,
  "timestamp": 1439495835,
  "nonce": "0x26940cef0edee169",
  "difficulty": 2433203573584,
  "gasLimit": {
    "_hex": "0x2fefd8"
  },
  "gasUsed": {
    "_hex": "0x546c"
  },
  "miner": "0xf8E0CA3Ed80bd541b94BEdCf259e8CF2141A9523",
  "extraData": "0x476574682f76312e302e312f77696e646f77732f676f312e342e32",
  "transactions": [
    {
      "hash": "0x9b08e8965f6b7058db8c7654826e43f5ff91146bed88a2b7d42df162b5d5a177",
      "blockHash": "0xcd406789c73032cd856ae9c9f2a61f90fb04afcf57fcd970e34b043316a42c8f",
      "blockNumber": 81078,
      "transactionIndex": 0,
      "confirmations": null,
      "from": "0xA12E42660746c6a0484965f36D7b4d6a727BDa72",
      "gasPrice": {
        "_hex": "0x10bc460c94c"
      },
      "gasLimit": {
        "_hex": "0x55f0"
      },
      "to": "0x2910543Af39abA0Cd09dBb2D50200b3E800A63D2",
      "value": {
        "_hex": "0xde0b6b3a7640000"
      },
      "nonce": 5,
      "data": "0x454e31445432424d52",
      "r": "0x4e46a47ff712edf859759be22b1a9c8e5e4ed7613d9d0d634396c83624c88d72",
      "s": "0x7d6e31d7c33623b00c18ae9538c2cd2fe8aa66db5cfd5101bad69e4a2a3fc59c",
      "v": 27,
      "creates": null,
      "raw": "0xf8760586010bc460c94c8255f0942910543af39aba0cd09dbb2d50200b3e800a63d2880de0b6b3a764000089454e31445432424d521ba04e46a47ff712edf859759be22b1a9c8e5e4ed7613d9d0d634396c83624c88d72a07d6e31d7c33623b00c18ae9538c2cd2fe8aa66db5cfd5101bad69e4a2a3fc59c",
      "networkId": 0,
      "chainId": 0
    }
  ]
}