{
  "hash": "0x4df023b0f2b2f431b63913bc6a0ee0e1472c8a66360e5badc97232a6ca776627",
  "parentHash": "0xc42f1d1221e3fccd85f149399cabe189571cdfb16d959679b9c01ffc03c81912",
  "number": 49017,
  "timestamp": 1438966446,
  "nonce": "0xabbfe17d09809af3",
  "difficulty": 1487988478950,
  "gasLimit": {
    "_hex": "0x238b6"
  },
  "gasUsed": {
    "_hex": "0x5208"
  },
  "miner": "0xBb12b5a9B85D4AB8CDE6056E9c1b2a4a337D2261",
  "extraData": "0x476574682f76312e302e312d36393865393864392f6c696e75782f676f312e34",
  "transactions": [
    {
      "hash": "0x34a544b024512ba860dd0782f48d5cdb4c3837874c8c6ada76705cdd20c505ae",
      "blockHash": "0x4df023b0f2b2f431b63913bc6a0ee0e1472c8a66360e5badc97232a6ca776627",
      "blockNumber": 49017,
      "transactionIndex": 0,
      "confirmations": null,
      "from": "0x756C55cbfa47fd23c0260F958e65866E64c096CB",
      "gasPrice": {
        "_hex": "0x746a528800"
      },
      "gasLimit": {
        "_hex": "0x5b04"
      },
      "to": "0x6E4F1DD8EDB448D8F0F2829eb817B81ACEE45152",
      "value": {
        "_hex": "0x16345785d8a0000"
      },
      "nonce": 2,
      "data": "0x",
      "r": "0xb23bd554790c913cad70d814645f35b0cf680657f5d0a774f1d3dbbaed798031",
      "s": "0xc06e91fff53f754bc2ed17b062a9c74c42b67f03d0bcd2bbec6fd0ab23127ece",
      "v": 27,
      "creates": null,
      "raw": "0xf86c0285746a528800825b04946e4f1dd8edb448d8f0f2829eb817b81acee4515288016345785d8a0000801ba0b23bd554790c913cad70d814645f35b0cf680657f5d0a774f1d3dbbaed798031a0c06e91fff53f754bc2ed17b062a9c74c42b67f03d0bcd2bbec6fd0ab23127ece",
      "networkId": 0,
      "chainId": 0
    }
  ]
}