{
  "hash": "0xd295620cf3d9f7daaf66f0e8f72da24852756e09ed439774e8417ff55b900dd9",
  "parentHash": "0x9a989e27a29759f059bc87dd9357debebba88786cd733adfcb8b90d8e0b6b492",
  "number": 116811,
  "timestamp": 1440097850,
  "nonce": "0xcde6c289aba1722d",
  "difficulty": 4338239425366,
  "gasLimit": {
    "_hex": "0x2fefd8"
  },
  "gasUsed": {
    "_hex": "0x6baa8"
  },
  "miner": "0xf8E0CA3Ed80bd541b94BEdCf259e8CF2141A9523",
  "extraData": "0x",
  "transactions": [
    {
      "hash": "0x03f93f9f16e984a08c2519668933808579c4d6b28d9ade706a31560203786283",
      "blockHash": "0xd295620cf3d9f7daaf66f0e8f72da24852756e09ed439774e8417ff55b900dd9",
      "blockNumber": 116811,
      "transactionIndex": 0,
      "confirmations": null,
      "from": "0x3048a8bFee849B0F52475259ee76Eaf20BD985a3",
      "gasPrice": {
        "_hex": "0xdc3350808"
      },
      "gasLimit": {
        "_hex": "0x15f90"
      },
      "to": "0x578934defc9Fe63E3B06E891BDF8F83A408C8343",
      "value": {
        "_hex": "0x522810a26e50000"
      },
      "nonce": 7,
      "data": "0x",
      "r": "0xc202011201a5705fe947d24b3d88be8002a1637d7bb40efd48737a3dd17ae774",
      "s": "0x422d7ad3ae4bb46cc0be5fd9166f5687b0cb57410b30932ba55ed9068f9152f9",
      "v": 28,
      "creates": null,
      "raw": "0xf86d07850dc335080883015f9094578934defc9fe63e3b06e891bdf8f83a408c8343880522810a26e50000801ca0c202011201a5705fe947d24b3d88be8002a1637d7bb40efd48737a3dd17ae774a0422d7ad3ae4bb46cc0be5fd9166f5687b0cb57410b30932ba55ed9068f9152f9",
      "networkId": 0,
      "chainId": 0
    },
    {
      "hash": "0x25aa88f86fc96c4e2dfc4fc552056a0ea1b10283033c392db8abcacdda828112",
      "blockHash": "0xd295620cf3d9f7daaf66f0e8f72da24852756e09ed439774e8417ff55b900dd9",
      "blockNumber": 116811,
      "transactionIndex": 1,
      "confirmations": null,
      "from": "0xe6A7a1d47ff21B6321162AEA7C6CB457D5476Bca",
      "gasPrice": {
        "_hex": "0xba43b7400"
      },
      "gasLimit": {
        "_hex": "0x55f0"
      },
      "to": "0xE996d36DB289Ef8D9F0a9f9a903cc42fEA50CD4E",
      "value": {
        "_hex": "0x134e3962e27dd2e8"
      },
      "nonce": 5562,
      "data": "0x",
      "r": "0xd3d81f22c1ee027da104f5247bafa40946139fe69487eea31b6085b9d0996d82",
      "s": "0x7b84204d99a839084e92015a09f8fdfd61bb925e026b5201ffe4b2123cd1f50b",
      "v": 28,
      "creates": null,
      "raw": "0xf86e8215ba850ba43b74008255f094e996d36db289ef8d9f0a9f9a903cc42fea50cd4e88134e3962e27dd2e8801ca0d3d81f22c1ee027da104f5247bafa40946139fe69487eea31b6085b9d0996d82a07b84204d99a839084e92015a09f8fdfd61bb925e026b5201ffe4b2123cd1f50b",
      "networkId": 0,
      "chainId": 0
    },
    {
      "hash": "0x7fd2dd49c0de32b989fd4ec0bcee5fc21d7540c6bfeb172cc16eefe726bef981",
      "blockHash": "0xd295620cf3d9f7daaf66f0e8f72da24852756e09ed439774e8417ff55b900dd9",
      "blockNumber": 116811,
      "transactionIndex": 2,
      "confirmations": null,
      "from": "0xe6A7a1d47ff21B6321162AEA7C6CB457D5476Bca",
      "gasPrice": {
        "_hex": "0xba43b7400"
      },
      "gasLimit": {
        "_hex": "0x55f0"
      },
      "to": "0xCadcea36EC3feB740167E4370777fab1549F8759",
      "value": {
        "_hex": "0x1376ae924f6cddf0"
      },
      "nonce": 5563,
      "data": "0x",
      "r": "0x2481c93629ed302f9684486d8e391a727cc84b849d8ea6716ce535770baebf9e",
      "s": "0x20ac408aed24c23331efba65945e45a454bb39e24e9abd49697c25046714fc52",
      "v": 28,
      "creates": null,
      "raw": "0xf86e8215bb850ba43b74008255f094cadcea36ec3feb740167e4370777fab1549f8759881376ae924f6cddf0801ca02481c93629ed302f9684486d8e391a727cc84b849d8ea6716ce535770baebf9ea020ac408aed24c23331efba65945e45a454bb39e24e9abd49697c25046714fc52",
      "networkId": 0,
      "chainId": 0
    },
    {
      "hash": "0x04d0413439148bb6aff44f4a85599289e4089b3eb4d4a89fd93e610b6e710b35",
      "blockHash": "0xd295620cf3d9f7daaf66f0e8f72da24852756e09ed439774e8417ff55b900dd9",
      "blockNumber": 116811,
      "transactionIndex": 3,
      "confirmations": null,
      "from": "0xe6A7a1d47ff21B6321162AEA7C6CB457D5476Bca",
      "gasPrice": {
        "_hex": "0xba43b7400"
      },
      "gasLimit": {
        "_hex": "0x55f0"
      },
      "to": "0x68d3578bFBeEFB9C1e31cE355A29ad3a107F88C5",
      "value": {
        "_hex": "0x137cf1e0c4d82be8"
      },
      "nonce": 5564,
      "data": "0x",
      "r": "0xfbe069cb755a24890cf92c9b8781987d410f35a61076819066e1c7d3f4b0dcb1",
      "s": "0x18388f61c30b37c9856fbfb28007895658d5da5f5a425829e94d466bbdd63c15",
      "v": 28,
      "creates": null,
      "raw": "0xf86e8215bc850ba43b74008255f09468d3578bfbeefb9c1e31ce355a29ad3a107f88c588137cf1e0c4d82be8801ca0fbe069cb755a24890cf92c9b8781987d410f35a61076819066e1c7d3f4b0dcb1a018388f61c30b37c9856fbfb28007895658d5da5f5a425829e94d466bbdd63c15",
      "networkId": 0,
      "chainId": 0
    },
    {
      "hash": "0x7eb8ae2b60afd165adb987b7768383fe19e4c06cba74bb67d979f8253b7b7b32",
      "blockHash": "0xd295620cf3d9f7daaf66f0e8f72da24852756e09ed439774e8417ff55b900dd9",
      "blockNumber": 116811,
      "transactionIndex": 4,
      "confirmations": null,
      "from": "0xe6A7a1d47ff21B6321162AEA7C6CB457D5476Bca",
      "gasPrice": {
        "_hex": "0xba43b7400"
      },
      "gasLimit": {
        "_hex": "0x55f0"
      },
      "to": "0x72dcecdD4a7374231676f7fA910A678DfC7c98D6",
      "value": {
        "_hex": "0x13868be7dbc76b0c"
      },
      "nonce": 5565,
      "data": "0x",
      "r": "0x454ff3ae038ce627ce043fc6c1f6a5abd277ee38d3218069c1d8e6b0c3c6c6bd",
      "s": "0x64a864ed29ecd7c76b619155746e32f8f92f6a6716af94b09fbf324223936379",
      "v": 27,
      "creates": null,
      "raw": "0xf86e8215bd850ba43b74008255f09472dcecdd4a7374231676f7fa910a678dfc7c98d68813868be7dbc76b0c801ba0454ff3ae038ce627ce043fc6c1f6a5abd277ee38d3218069c1d8e6b0c3c6c6bda064a864ed29ecd7c76b619155746e32f8f92f6a6716af94b09fbf324223936379",
      "networkId": 0,
      "chainId": 0
    },
    {
      "hash": "0x48507802952387488bb3cfe41eed587bdf1e211b3ca723fb2e11c34e7b5a03df",
      "blockHash": "0xd295620cf3d9f7daaf66f0e8f72da24852756e09ed439774e8417ff55b900dd9",
      "blockNumber": 116811,
      "transactionIndex": 5,
      "confirmations": null,
      "from": "0xe6A7a1d47ff21B6321162AEA7C6CB457D5476Bca",
      "gasPrice": {
        "_hex": "0xba43b7400"
      },
      "gasLimit": {
        "_hex": "0x55f0"
      },
      "to": "0x923707da8Dd7Ff41a0bDD87b62c9E5DfA9c420a5",
      "value": {
        "_hex": "0x138e928ca87f9ce8"
      },
      "nonce": 5566,
      "data": "0x",
      "r": "0x630ad40d52b72cad52d73ac5c36f7bb3156d5c93e8c57d73173ac3f1cb190048",
      "s": "0x5ca862e699335a13f471561a8faac17b85114f8b1f5056926727fee78cc632d2",
      "v": 27,
      "creates": null,
      "raw": "0xf86e8215be850ba43b74008255f094923707da8dd7ff41a0bdd87b62c9e5dfa9c420a588138e928ca87f9ce8801ba0630ad40d52b72cad52d73ac5c36f7bb3156d5c93e8c57d73173ac3f1cb190048a05ca862e699335a13f471561a8faac17b85114f8b1f5056926727fee78cc632d2",
      "networkId": 0,
      "chainId": 0
    },
    {
      "hash": "0xbb5ec68922d14670f9d74f660f99369214bce4feeb0fda0df24a10dbde78f7d3",
      "blockHash": "0xd295620cf3d9f7daaf66f0e8f72da24852756e09ed439774e8417ff55b900dd9",
      "blockNumber": 116811,
      "transactionIndex": 6,
      "confirmations": null,
      "from": "0xe6A7a1d47ff21B6321162AEA7C6CB457D5476Bca",
      "gasPrice": {
        "_hex": "0xba43b7400"
      },
      "gasLimit": {
        "_hex": "0x55f0"
      },
      "to": "0x2bCc16248fEC82100d969224df6b88525e6048B4",
      "value": {
        "_hex": "0x13c29c1e3706a4ec"
      },
      "nonce": 5567,
      "data": "0x",
      "r": "0x3a7dd1f22a97476616bddff821fe76510d474ffc378838f68c89d3685aaf9486",
      "s": "0x7917a14ce626eb71cb785d867b867e6033573e1cf3a51769f8450bd2d0218a70",
      "v": 27,
      "creates": null,
      "raw": "0xf86e8215bf850ba43b74008255f0942bcc16248fec82100d969224df6b88525e6048b48813c29c1e3706a4ec801ba03a7dd1f22a97476616bddff821fe76510d474ffc378838f68c89d3685aaf9486a07917a14ce626eb71cb785d867b867e6033573e1cf3a51769f8450bd2d0218a70",
      "networkId": 0,
      "chainId": 0
    },
    {
      "hash": "0x4f0608073f60dce3908ac72d4252834dee81eca0172921cb205f13f4a8d310d8",
      "blockHash": "0xd295620cf3d9f7daaf66f0e8f72da24852756e09ed439774e8417ff55b900dd9",
      "blockNumber": 116811,
      "transactionIndex": 7,
      "confirmations": null,
      "from": "0xe6A7a1d47ff21B6321162AEA7C6CB457D5476Bca",
      "gasPrice": {
        "_hex": "0xba43b7400"
      },
      "gasLimit": {
        "_hex": "0x55f0"
      },
      "to": "0x683FEDdafc2A8542744a4587DE0C45626D7B8E68",
      "value": {
        "_hex": "0x13cb82cc658c09e0"
      },
      "nonce": 5568,
      "data": "0x",
      "r": "0x4c1f338c62945dde3c8efe1c330cfb41b1e93fa2b3c389abe70aa4522b42a1ad",
      "s": "0x5ded3875db1cf93ffe87893e59d81870bdc15f809c43e040502d1009548675dc",
      "v": 27,
      "creates": null,
      "raw": "0xf86e8215c0850ba43b74008255f094683feddafc2a8542744a4587de0c45626d7b8e688813cb82cc658c09e0801ba04c1f338c62945dde3c8efe1c330cfb41b1e93fa2b3c389abe70aa4522b42a1ada05ded3875db1cf93ffe87893e59d81870bdc15f809c43e040502d1009548675dc",
      "networkId": 0,
      "chainId": 0
    },
    {
      "hash": "0x5ad08b7df25f70ed7b81f8c66dbf942beb9969cd59a6abb68689d42b03020ba7",
      "blockHash": "0xd295620cf3d9f7daaf66f0e8f72da24852756e09ed439774e8417ff55b900dd9",
      "blockNumber": 116811,
      "transactionIndex": 8,
      "confirmations": null,
      "from": "0xe6A7a1d47ff21B6321162AEA7C6CB457D5476Bca",
      "gasPrice": {
        "_hex": "0xba43b7400"
      },
      "gasLimit": {
        "_hex": "0x55f0"
      },
      "to": "0x39A7Fe8E3263559BE0A179EdbAe7dD2F61E3bC45",
      "value": {
        "_hex": "0x13f53e99dbfc99fc"
      },
      "nonce": 5569,
      "data": "0x",
      "r": "0x0a3e163dae05bd561cd73ab8f0b54da48d0171a6fc9c6354db93bccfb8bc3e42",
      "s": "0x172b6b7a046796dc5847aad07392613e8cda0a7b2758a01eb9fc648e82aa363c",
      "v": 27,
      "creates": null,
      "raw": "0xf86e8215c1850ba43b74008255f09439a7fe8e3263559be0a179edbae7dd2f61e3bc458813f53e99dbfc99fc801ba00a3e163dae05bd561cd73ab8f0b54da48d0171a6fc9c6354db93bccfb8bc3e42a0172b6b7a046796dc5847aad07392613e8cda0a7b2758a01eb9fc648e82aa363c",
      "networkId": 0,
      "chainId": 0
    },
    {
      "hash": "0xacd8e4ed08909ec22165114ee00ad48a58231f4ad32850375ce8b0fdabe51dea",
      "blockHash": "0xd295620cf3d9f7daaf66f0e8f72da24852756e09ed439774e8417ff55b900dd9",
      "blockNumber": 116811,
      "transactionIndex": 9,
      "confirmations": null,
      "from": "0xe6A7a1d47ff21B6321162AEA7C6CB457D5476Bca",
      "gasPrice": {
        "_hex": "0xba43b7400"
      },
      "gasLimit": {
        "_hex": "0x55f0"
      },
      "to": "0x7E4252d3d1881b358f2c1Fc2264ce4C27B83683d",
      "value": {
        "_hex": "0x14048d40c11c15e0"
      },
      "nonce": 5570,
      "data": "0x",
      "r": "0xe6197997fbbdd1f030048e6ea331cef1d042b84ce789bf9d9dd1fe3af6521bce",
      "s": "0x50beeff9cc99c900550f761a65b1dfb2852f418e6176724479b7c19659858cde",
      "v": 28,
      "creates": null,
      "raw": "0xf86e8215c2850ba43b74008255f0947e4252d3d1881b358f2c1fc2264ce4c27b83683d8814048d40c11c15e0801ca0e6197997fbbdd1f030048e6ea331cef1d042b84ce789bf9d9dd1fe3af6521bcea050beeff9cc99c900550f761a65b1dfb2852f418e6176724479b7c19659858cde",
      "networkId": 0,
      "chainId": 0
    },
    {
      "hash": "0x2bebde5827aa0e2143b75e77fdb8923a785e13e8a9dc7e379249dfd11df40938",
      "blockHash": "0xd295620cf3d9f7daaf66f0e8f72da24852756e09ed439774e8417ff55b900dd9",
      "blockNumber": 116811,
      "transactionIndex": 10,
      "confirmations": null,
      "from": "0xe6A7a1d47ff21B6321162AEA7C6CB457D5476Bca",
      "gasPrice": {
        "_hex": "0xba43b7400"
      },
      "gasLimit": {
        "_hex": "0x55f0"
      },
      "to": "0xE5cd922132641CF77d8a95dE3F3B335Ee6D54d71",
      "value": {
        "_hex": "0x140e7d21ba26a5f4"
      },
      "nonce": 5571,
      "data": "0x",
      "r": "0x89fd281df512db6ea966e97dfa5d1a28a0bb60e6ba29783169d0186111ec8629",
      "s": "0x1120bd3cdee19d6ab8ae44aec288541f3c200afb7edf938c011ba9075de08ece",
      "v": 28,
      "creates": null,
      "raw": "0xf86e8215c3850ba43b74008255f094e5cd922132641cf77d8a95de3f3b335ee6d54d7188140e7d21ba26a5f4801ca089fd281df512db6ea966e97dfa5d1a28a0bb60e6ba29783169d0186111ec8629a01120bd3cdee19d6ab8ae44aec288541f3c200afb7edf938c011ba9075de08ece",
      "networkId": 0,
      "chainId": 0
    },
    {
      "hash": "0xf1121b2e748a6bc845dfec27b26d29ca2f203823d155c662954c74aac5b4bfee",
      "blockHash": "0xd295620cf3d9f7daaf66f0e8f72da24852756e09ed439774e8417ff55b900dd9",
      "blockNumber": 116811,
      "transactionIndex": 11,
      "confirmations": null,
      "from": "0xe6A7a1d47ff21B6321162AEA7C6CB457D5476Bca",
      "gasPrice": {
        "_hex": "0xba43b7400"
      },
      "gasLimit": {
        "_hex": "0x55f0"
      },
      "to": "0x8c8eef67181456cBBB05CDFB634709119C2F644F",
      "value": {
        "_hex": "0x14121491bc5c09d0"
      },
      "nonce": 5572,
      "data": "0x",
      "r": "0xddf5e97427fa040ba94b60b3a3febec73cb2110041058e8c6453a43f3e5887f1",
      "s": "0x72fb25c8e1d52073844b73f6578c0eeef9443044f1545d55e2cad4fb3dbb977c",
      "v": 27,
      "creates": null,
      "raw": "0xf86e8215c4850ba43b74008255f0948c8eef67181456cbbb05cdfb634709119c2f644f8814121491bc5c09d0801ba0ddf5e97427fa040ba94b60b3a3febec73cb2110041058e8c6453a43f3e5887f1a072fb25c8e1d52073844b73f6578c0eeef9443044f1545d55e2cad4fb3dbb977c",
      "networkId": 0,
      "chainId": 0
    },
    {
      "hash": "0x7f0ac9b6479c2ce8e0e0fd74ab8905af17148fec7174e8ad8810cec495961122",
      "blockHash": "0xd295620cf3d9f7daaf66f0e8f72da24852756e09ed439774e8417ff55b900dd9",
      "blockNumber": 116811,
      "transactionIndex": 12,
      "confirmations": null,
      "from": "0xe6A7a1d47ff21B6321162AEA7C6CB457D5476Bca",
      "gasPrice": {
        "_hex": "0xba43b7400"
      },
      "gasLimit": {
        "_hex": "0x55f0"
      },
      "to": "0x2bFff23a42423EFc4a0fDBA3661e2cc79Dd5CBc3",
      "value": {
        "_hex": "0x1430d6132bd929d0"
      },
      "nonce": 5573,
      "data": "0x",
      "r": "0x8ff2ab83370877b77d906fb79e205c06d1d45627add888ce0a961a96bacd84c4",
      "s": "0x432663a6e8e773f4d03864dbac938cc37e7c920650c5b5bd7f68efc3305358fe",
      "v": 27,
      "creates": null,
      "raw": "0xf86e8215c5850ba43b74008255f0942bfff23a42423efc4a0fdba3661e2cc79dd5cbc3881430d6132bd929d0801ba08ff2ab83370877b77d906fb79e205c06d1d45627add888ce0a961a96bacd84c4a0432663a6e8e773f4d03864dbac938cc37e7c920650c5b5bd7f68efc3305358fe",
      "networkId": 0,
      "chainId": 0
    },
    {
      "hash": "0x9cd6594070f496d01d4deeea7c91519eac8a9a084350ebc85f6cd556cff4969d",
      "blockHash": "0xd295620cf3d9f7daaf66f0e8f72da24852756e09ed439774e8417ff55b900dd9",
      "blockNumber": 116811,
      "transactionIndex": 13,
      "confirmations": null,
      "from": "0xe6A7a1d47ff21B6321162AEA7C6CB457D5476Bca",
      "gasPrice": {
        "_hex": "0xba43b7400"
      },
      "gasLimit": {
        "_hex": "0x55f0"
      },
      "to": "0x0f36D8B9254f1B059d0B4c4FeEceB82EE24a6180",
      "value": {
        "_hex": "0x14425433bf42b010"
      },
      "nonce": 5574,
      "data": "0x",
      "r": "0xfecb09a58ed1a95868ad51a911b64cfcc2e9c8ae595953f83b2181d36b3206d0",
      "s": "0x55b4125e0886f6032475d17f7e3294ba8eb6ee3bb8980cce67b412fc6170f9a9",
      "v": 28,
      "creates": null,
      "raw": "0xf86e8215c6850ba43b74008255f0940f36d8b9254f1b059d0b4c4feeceb82ee24a61808814425433bf42b010801ca0fecb09a58ed1a95868ad51a911b64cfcc2e9c8ae595953f83b2181d36b3206d0a055b4125e0886f6032475d17f7e3294ba8eb6ee3bb8980cce67b412fc6170f9a9",
      "networkId": 0,
      "chainId": 0
    },
    {
      "hash": "0x7d226177944633fe39c79424ae793a530ebcde028c593a4194cf72ad3bd52242",
      "blockHash": "0xd295620cf3d9f7daaf66f0e8f72da24852756e09ed439774e8417ff55b900dd9",
      "blockNumber": 116811,
      "transactionIndex": 14,
      "confirmations": null,
      "from": "0xe6A7a1d47ff21B6321162AEA7C6CB457D5476Bca",
      "gasPrice": {
        "_hex": "0xba43b7400"
      },
      "gasLimit": {
        "_hex": "0x55f0"
      },
      "to": "0x7af25C80793a1CBaBE39Ac9d604729017d9E4001",
      "value": {
        "_hex": "0x144da9c5b84f5d10"
      },
      "nonce": 5575,
      "data": "0x",
      "r": "0x8c1a3792b69afa8b1a9986f9b1e90e18fd949bcd80a6ad4aa21ead748bb07803",
      "s": "0x180e98f020dc2b85aaa3c794b95b52064ce2ed34e5ada52ac1005b00050c9632",
      "v": 27,
      "creates": null,
      "raw": "0xf86e8215c7850ba43b74008255f0947af25c80793a1cbabe39ac9d604729017d9e400188144da9c5b84f5d10801ba08c1a3792b69afa8b1a9986f9b1e90e18fd949bcd80a6ad4aa21ead748bb07803a0180e98f020dc2b85aaa3c794b95b52064ce2ed34e5ada52ac1005b00050c9632",
      "networkId": 0,
      "chainId": 0
    },
    {
      "hash": "0x95360a1e5a30796173027792517107d4500cba178ad62242ae4c83242f9d7a9b",
      "blockHash": "0xd295620cf3d9f7daaf66f0e8f72da24852756e09ed439774e8417ff55b900dd9",
      "blockNumber": 116811,
      "transactionIndex": 15,
      "confirmations": null,
      "from": "0xe6A7a1d47ff21B6321162AEA7C6CB457D5476Bca",
      "gasPrice": {
        "_hex": "0xba43b7400"
      },
      "gasLimit": {
        "_hex": "0x55f0"
      },
      "to": "0x0A45ad2348efF97fe7C25C87d65464aB3dEbF94F",
      "value": {
        "_hex": "0x1470919070f2f9d8"
      },
      "nonce": 5576,
      "data": "0x",
      "r": "0xf6bd9eb96ec64a1ee7140a8e78ce3b6bd5501585cb12cadde7b08f87aec382e2",
      "s": "0x797b560306d678439b33154e0771a847742fc648b34b8ea389b2910225bd1e9e",
      "v": 27,
      "creates": null,
      "raw": "0xf86e8215c8850ba43b74008255f0940a45ad2348eff97fe7c25c87d65464ab3debf94f881470919070f2f9d8801ba0f6bd9eb96ec64a1ee7140a8e78ce3b6bd5501585cb12cadde7b08f87aec382e2a0797b560306d678439b33154e0771a847742fc648b34b8ea389b2910225bd1e9e",
      "networkId": 0,
      "chainId": 0
    },
    {
      "hash": "0x515de23c14c853d68c5bf84bbf855cf3301e50b14a6181a435e7525019bdbec5",
      "blockHash": "0xd295620cf3d9f7daaf66f0e8f72da24852756e09ed439774e8417ff55b900dd9",
      "blockNumber": 116811,
      "transactionIndex": 16,
      "confirmations": null,
      "from": "0xe6A7a1d47ff21B6321162AEA7C6CB457D5476Bca",
      "gasPrice": {
        "_hex": "0xba43b7400"
      },
      "gasLimit": {
        "_hex": "0x55f0"
      },
      "to": "0x51f8ecFF73486E3161082dDEc7FbB5450b45D689",
      "value": {
        "_hex": "0x14728f9c509f9310"
      },
      "nonce": 5577,
      "data": "0x",
      "r": "0x5f4375fcc08568ff3bb0cf3263a586546f42a7fab78da226f09ca92e265a633c",
      "s": "0x631a4f35553e555ccd4f4e75bc97d11650c2b1a03e4a040d2a9a0802603e924d",
      "v": 27,
      "creates": null,
      "raw": "0xf86e8215c9850ba43b74008255f09451f8ecff73486e3161082ddec7fbb5450b45d6898814728f9c509f9310801ba05f4375fcc08568ff3bb0cf3263a586546f42a7fab78da226f09ca92e265a633ca0631a4f35553e555ccd4f4e75bc97d11650c2b1a03e4a040d2a9a0802603e924d",
      "networkId": 0,
      "chainId": 0
    },
    {
      "hash": "0xddd2049e246fbeaf287911b1e5d69a6b5af86e68167ad5d0fe1db6ea1b614cbc",
      "blockHash": "0xd295620cf3d9f7daaf66f0e8f72da24852756e09ed439774e8417ff55b900dd9",
      "blockNumber": 116811,
      "transactionIndex": 17,
      "confirmations": null,
      "from": "0xe6A7a1d47ff21B6321162AEA7C6CB457D5476Bca",
      "gasPrice": {
        "_hex": "0xba43b7400"
      },
      "gasLimit": {
        "_hex": "0x55f0"
      },
      "to": "0x0f7E5465DB8bC57940471E530a83Fb7Ac5b82d7f",
      "value": {
        "_hex": "0x1474eb4fc10df02c"
      },
      "nonce": 5578,
      "data": "0x",
      "r": "0x2db941b66a48f0407c503f4807e3b466feb768c841f63aa5df1548492d8d2027",
      "s": "0x165a4b0113b64fc2953c3df8bdfbbdcadd4c3ff1786797e903fbc4dc1f15b769",
      "v": 27,
      "creates": null,
      "raw": "0xf86e8215ca850ba43b74008255f0940f7e5465db8bc57940471e530a83fb7ac5b82d7f881474eb4fc10df02c801ba02db941b66a48f0407c503f4807e3b466feb768c841f63aa5df1548492d8d2027a0165a4b0113b64fc2953c3df8bdfbbdcadd4c3ff1786797e903fbc4dc1f15b769",
      "networkId": 0,
      "chainId": 0
    },
    {
      "hash": "0xb34dbcdd51879b7b3e76d29370ccee567379b335c5e3c770d8b2c23845ac2bc3",
      "blockHash": "0xd295620cf3d9f7daaf66f0e8f72da24852756e09ed439774e8417ff55b900dd9",
      "blockNumber": 116811,
      "transactionIndex": 18,
      "confirmations": null,
      "from": "0xe6A7a1d47ff21B6321162AEA7C6CB457D5476Bca",
      "gasPrice": {
        "_hex": "0xba43b7400"
      },
      "gasLimit": {
        "_hex": "0x55f0"
      },
      "to": "0xC711d87af18Db9a7EbE2CFB279b73c8785E55d41",
      "value": {
        "_hex": "0x148c878a6fd8832c"
      },
      "nonce": 5579,
      "data": "0x",
      "r": "0x6ee5a0d071db9491be23e867ecb5c17507c42080ed22a97be5eb20f5b9b8049a",
      "s": "0x104493e16a32a11efa17b45104d2913df488f76dae5d61e3939ba8bee3ccd33d",
      "v": 28,
      "creates": null,
      "raw": "0xf86e8215cb850ba43b74008255f094c711d87af18db9a7ebe2cfb279b73c8785e55d4188148c878a6fd8832c801ca06ee5a0d071db9491be23e867ecb5c17507c42080ed22a97be5eb20f5b9b8049aa0104493e16a32a11efa17b45104d2913df488f76dae5d61e3939ba8bee3ccd33d",
      "networkId": 0,
      "chainId": 0
    },
    {
      "hash": "0xab06ea7d80ff29f0e4fec16cf32882d49c9ab258cf262fe5b1263ea7b1d4308a",
      "blockHash": "0xd295620cf3d9f7daaf66f0e8f72da24852756e09ed439774e8417ff55b900dd9",
      "blockNumber": 116811,
      "transactionIndex": 19,
      "confirmations": null,
      "from": "0xe6A7a1d47ff21B6321162AEA7C6CB457D5476Bca",
      "gasPrice": {
        "_hex": "0xba43b7400"
      },
      "gasLimit": {
        "_hex": "0x55f0"
      },
      "to": "0xc544B25bb91b87e380dda392687c6216b0260671",
      "value": {
        "_hex": "0x148dc69bd82ebff8"
      },
      "nonce": 5580,
      "data": "0x",
      "r": "0x8f3d3d54578730fcdb2403192a1c902c4fa04da5b37ca81c7ddb28153266604c",
      "s": "0x11351055c9a86c7d69c571557e7f888deef6fea29c2fc9d4fd85908903ed31ca",
      "v": 27,
      "creates": null,
      "raw": "0xf86e8215cc850ba43b74008255f094c544b25bb91b87e380dda392687c6216b026067188148dc69bd82ebff8801ba08f3d3d54578730fcdb2403192a1c902c4fa04da5b37ca81c7ddb28153266604ca011351055c9a86c7d69c571557e7f888deef6fea29c2fc9d4fd85908903ed31ca",
      "networkId": 0,
      "chainId": 0
    },
    {
      "hash": "0xe10f2b58db06ad471a2a189ffb6b5aa7fee26320dcf595878fc1436e33ae88bf",
      "blockHash": "0xd295620cf3d9f7daaf66f0e8f72da24852756e09ed439774e8417ff55b900dd9",
      "blockNumber": 116811,
      "transactionIndex": 20,
      "confirmations": null,
      "from": "0xe6A7a1d47ff21B6321162AEA7C6CB457D5476Bca",
      "gasPrice": {
        "_hex": "0xba43b7400"
      },
      "gasLimit": {
        "_hex": "0x55f0"
      },
      "to": "0x1333a55102f1f4B3df95298b6CE863eF8d5BAf45",
      "value": {
        "_hex": "0x14aba81c6f28bd30"
      },
      "nonce": 5581,
      "data": "0x",
      "r": "0xafa9f13205698a54af94b400984198c05384f1bd5a4064a5d1e3d4f43813fb44",
      "s": "0x02060d699bcd582b7499a23320d9ffa470b2aba585ebf75c68c1297cdab18d37",
      "v": 28,
      "creates": null,
      "raw": "0xf86e8215cd850ba43b74008255f0941333a55102f1f4b3df95298b6ce863ef8d5baf458814aba81c6f28bd30801ca0afa9f13205698a54af94b400984198c05384f1bd5a4064a5d1e3d4f43813fb44a002060d699bcd582b7499a23320d9ffa470b2aba585ebf75c68c1297cdab18d37",
      "networkId": 0,
      "chainId": 0
    }
  ]
}