{
  "hash": "0x3996578cc2e24ecc27ff60322f7c693dcee63fce05243c576c248e3eb1ce5104",
  "parentHash": "0xc02d46c35002653e499da4183f030596dcd8039a9ac8ed50cfda0ecaed914714",
  "number": 58380,
  "timestamp": 1439119587,
  "nonce": "0xf76e8c0605aee6ce",
  "difficulty": 1719967064895,
  "gasLimit": {
    "_hex": "0x2fefd8"
  },
  "gasUsed": {
    "_hex": "0x5208"
  },
  "miner": "0x3DfCf2bF579C831a03379a140b74f884e49CaFf3",
  "extraData": "0x",
  "transactions": [
    {
      "hash": "0xf358f35b0717f0fbdbae64d3fed032828e598f75c3cf5247368c04a8db65a60e",
      "blockHash": "0x3996578cc2e24ecc27ff60322f7c693dcee63fce05243c576c248e3eb1ce5104",
      "blockNumber": 58380,
      "transactionIndex": 0,
      "confirmations": null,
      "from": "0x0785A86bE9c2D68DbAEbaf1DB72641680529E2FD",
      "gasPrice": {
        "_hex": "0xdcce6e83a"
      },
      "gasLimit": {
        "_hex": "0x61a8"
      },
      "to": "0xe1F5B8dc9336BC9637eA97c3f3b13Cd363F88854",
      "value": {
        "_hex": "0x7ce66c50e2840000"
      },
      "nonce": 4,
      "data": "0x",
      "r": "0xd1ae2afeae593b6a7116e620cacd00abbc3535602fc76faab9c45f65e7e62700",
      "s": "0x3c019eba52d098cdfb52afbcabfe9dc37be5bfd4779194031f8e291796a69bf0",
      "v": 27,
      "creates": null,
      "raw": "0xf86c04850dcce6e83a8261a894e1f5b8dc9336bc9637ea97c3f3b13cd363f88854887ce66c50e2840000801ba0d1ae2afeae593b6a7116e620cacd00abbc3535602fc76faab9c45f65e7e62700a03c019eba52d098cdfb52afbcabfe9dc37be5bfd4779194031f8e291796a69bf0",
      "networkId": 0,
      "chainId": 0
    }
  ]
}