{
  "hash": "0x99cf0da5401dfa4648518e139ec0ab250ac59b7cfe7e0e5f8072a8f3c0e90f02",
  "parentHash": "0x76f106678a30a83ff931c087084eeadaed6c2cdd1351fbe84913b94168977146",
  "number": 113185,
  "timestamp": 1440019129,
  "nonce": "0x80a32532661d04d6",
  "difficulty": 4521828668213,
  "gasLimit": {
    "_hex": "0x2fefd8"
  },
  "gasUsed": {
    "_hex": "0x5208"
  },
  "miner": "0x55bAf64fc9eAccFFd7Cc643BB61142E1C6ac093e",
  "extraData": "0x",
  "transactions": [
    {
      "hash": "0x1148f76a0f628ebd109eff036b74431004179e76f126192efdd60750fea6b90f",
      "blockHash": "0x99cf0da5401dfa4648518e139ec0ab250ac59b7cfe7e0e5f8072a8f3c0e90f02",
      "blockNumber": 113185,
      "transactionIndex": 0,
      "confirmations": null,
      "from": "0x120A270bbC009644e35F0bB6ab13f95b8199c4ad",
      "gasPrice": {
        "_hex": "0xd956307ae"
      },
      "gasLimit": {
        "_hex": "0x3d090"
      },
      "to": "0x69dA598b7cd442293E048075B0229B44e753f72a",
      "value": {
        "_hex": "0x638e721e16824400"
      },
      "nonce": 906,
      "data": "0x",
      "r": "0x33f91dc91bcf41f60c09d41cddc8348b81eb7886ae4b55be135b75421cf2e07c",
      "s": "0x5721f7da095edb202df76528eb924a5a6e08ce3d4152cd55f14c3b8d9ad58034",
      "v": 28,
      "creates": null,
      "raw": "0xf86f82038a850d956307ae8303d0909469da598b7cd442293e048075b0229b44e753f72a88638e721e16824400801ca033f91dc91bcf41f60c09d41cddc8348b81eb7886ae4b55be135b75421cf2e07ca05721f7da095edb202df76528eb924a5a6e08ce3d4152cd55f14c3b8d9ad58034",
      "networkId": 0,
      "chainId": 0
    }
  ]
}