{
  "hash": "0xe4cc1cf7d98b5709a73f7ba6671a9568857049ffdaf39166c5619e69dd1f114b",
  "parentHash": "0x30d64ab5966459d8c4e140193e955c6107ac6e8c9bf2dca1df6c50b73ed8d67a",
  "number": 49703,
  "timestamp": 1438977641,
  "nonce": "0x1d8df79eec28984e",
  "difficulty": 1493690146299,
  "gasLimit": {
    "_hex": "0x3b97d"
  },
  "gasUsed": {
    "_hex": "0x546c"
  },
  "miner": "0xbb7B8287f3F0a933474a79eAe42CBCa977791171",
  "extraData": "0x476574682f4c5649562f76312e302e312f6c696e75782f676f312e342e32",
  "transactions": [
    {
      "hash": "0xfe3e51f4d77526edb453bb66143be33c6d5e98bb06992b2287de19458d47f872",
      "blockHash": "0xe4cc1cf7d98b5709a73f7ba6671a9568857049ffdaf39166c5619e69dd1f114b",
      "blockNumber": 49703,
      "transactionIndex": 0,
      "confirmations": null,
      "from": "0xeCb94c568BFe59ADe650645f4f26306C736caCe4",
      "gasPrice": {
        "_hex": "0x110c8f7d8de"
      },
      "gasLimit": {
        "_hex": "0xc350"
      },
      "to": "0x2910543Af39abA0Cd09dBb2D50200b3E800A63D2",
      "value": {
        "_hex": "0xe795e8d5f954c0000"
      },
      "nonce": 0,
      "data": "0x454e35433736595430",
      "r": "0x92fcec1fb1fd9ce9e73632f4cc7f769a4896ae5e2123e88db2f2b65c3a931d4c",
      "s": "0x2b35039a02ef10dba9f063835da2fa4a49b0943a8dc7f228d7715bbe1c03c20d",
      "v": 28,
      "creates": null,
      "raw": "0xf87780860110c8f7d8de82c350942910543af39aba0cd09dbb2d50200b3e800a63d2890e795e8d5f954c000089454e354337365954301ca092fcec1fb1fd9ce9e73632f4cc7f769a4896ae5e2123e88db2f2b65c3a931d4ca02b35039a02ef10dba9f063835da2fa4a49b0943a8dc7f228d7715bbe1c03c20d",
      "networkId": 0,
      "chainId": 0
    }
  ]
}