{
  "hash": "0xf36e2c4df23e1fe140c823f8b817d2a4d5ae2f344329d6cfd6c6b0212b4ab3c6",
  "parentHash": "0x66be89c34ea4c9670dbe4d005b800fa2211b7264777980bd315fc1cd13094f49",
  "number": 105921,
  "timestamp": 1439895630,
  "nonce": "0xe202755ba27010d6",
  "difficulty": 4459934065297,
  "gasLimit": {
    "_hex": "0x2fefd8"
  },
  "gasUsed": {
    "_hex": "0xaa37"
  },
  "miner": "0x580992B51e3925e23280EfB93d3047C82f17E038",
  "extraData": "0x476574682f76312e302e312f6c696e75782f676f312e342e32",
  "transactions": [
    {
      "hash": "0xa81af46bd673136b830cd4771883de05ade937a014ac0b1745126fd16697fa30",
      "blockHash": "0xf36e2c4df23e1fe140c823f8b817d2a4d5ae2f344329d6cfd6c6b0212b4ab3c6",
      "blockNumber": 105921,
      "transactionIndex": 0,
      "confirmations": null,
      "from": "0x87C5B5874A18B4306DF8a752a6C8cc3E82daFc19",
      "gasPrice": {
        "_hex": "0x104fe6046a9"
      },
      "gasLimit": {
        "_hex": "0x493e0"
      },
      "to": "0xD79B4C6791784184e2755B2fC1659eaaB0f80456",
      "value": {
        "_hex": "0x0"
      },
      "nonce": 301,
      "data": "0x03750d9400000000000000000000000087c5b5874a18b4306df8a752a6c8cc3e82dafc196b6b6b0000000000000000000000000000000000000000000000000000000000",
      "r": "0x89373d1fd2d64f97c7f1c9367ff1916bb95a7322f89eb5ab72659700d965d085",
      "s": "0x571efe22b376300a213e993418abe20878afe442f00099330d121fcd8599564b",
      "v": 27,
      "creates": null,
      "raw": "0xf8ad82012d860104fe6046a9830493e094d79b4c6791784184e2755b2fc1659eaab0f8045680b84403750d9400000000000000000000000087c5b5874a18b4306df8a752a6c8cc3e82dafc196b6b6b00000000000000000000000000000000000000000000000000000000001ba089373d1fd2d64f97c7f1c9367ff1916bb95a7322f89eb5ab72659700d965d085a0571efe22b376300a213e993418abe20878afe442f00099330d121fcd8599564b",
      "networkId": 0,
      "chainId": 0
    }
  ]
}