{
  "hash": "0x0eb9ff7b1e52b373b69ae77aa1d10fafbcc4b838028fdae9e0b94dae119f01c6",
  "parentHash": "0xbb65c5b85df4e478f7095fab898f9f379544738a397dc1c17a27e2c7cfea5aa9",
  "number": 107954,
  "timestamp": 1439931550,
  "nonce": "0x451e08eab20cd1dc",
  "difficulty": 4374746868852,
  "gasLimit": {
    "_hex": "0x2fefd8"
  },
  "gasUsed": {
    "_hex": "0xa410"
  },
  "miner": "0x88D74a59454F6cF3B51ef6b9136AFb6b9D405A88",
  "extraData": "0x",
  "transactions": [
    {
      "hash": "0xeba7329cd31fd5d69ae219959d329b4239ef49a21ef9eac7490b8880ffa7fd89",
      "blockHash": "0x0eb9ff7b1e52b373b69ae77aa1d10fafbcc4b838028fdae9e0b94dae119f01c6",
      "blockNumber": 107954,
      "transactionIndex": 0,
      "confirmations": null,
      "from": "0x6BED894B45159c6001dfbC5bd6257A10B9eF2202",
      "gasPrice": {
        "_hex": "0xe12f26407"
      },
      "gasLimit": {
        "_hex": "0x15f90"
      },
      "to": "0xC4Cefd8e233244EE0b01B083a8a01D2cfca86910",
      "value": {
        "_hex": "0x2386f26fc10000"
      },
      "nonce": 10,
      "data": "0x",
      "r": "0xf3a681c15d79a0208d957ba87cea3289f6b7568e039e7546696919cfea42c77c",
      "s": "0x35ef57731355c0a9ada803411ddef465deea58cdc1ff3d58b56d511495e24330",
      "v": 28,
      "creates": null,
      "raw": "0xf86c0a850e12f2640783015f9094c4cefd8e233244ee0b01b083a8a01d2cfca86910872386f26fc10000801ca0f3a681c15d79a0208d957ba87cea3289f6b7568e039e7546696919cfea42c77ca035ef57731355c0a9ada803411ddef465deea58cdc1ff3d58b56d511495e24330",
      "networkId": 0,
      "chainId": 0
    },
    {
      "hash": "0xc6e15d7448a53d06a10e1b299f7f7dacdbb49285c423dadf051e0a59bf74b351",
      "blockHash": "0x0eb9ff7b1e52b373b69ae77aa1d10fafbcc4b838028fdae9e0b94dae119f01c6",
      "blockNumber": 107954,
      "transactionIndex": 1,
      "confirmations": null,
      "from": "0x2F853817afd3B8F3B86E9F60ee77B5d97773c0e3",
      "gasPrice": {
        "_hex": "0xdd42a257b"
      },
      "gasLimit": {
        "_hex": "0x5208"
      },
      "to": "0xbDdEDC68C397704930A4eD8CB3f9996050EC1A58",
      "value": {
        "_hex": "0xde0b6b3a7640000"
      },
      "nonce": 1,
      "data": "0x",
      "r": "0x0378e6963e4ce0db3ead7a28f79610e4720237f44cc43a4079b6ebd280bc2d89",
      "s": "0x0ffd12d43700520d5b51a15902f8ca2f67330a242aa67f5186ce30df277c5bea",
      "v": 27,
      "creates": null,
      "raw": "0xf86c01850dd42a257b82520894bddedc68c397704930a4ed8cb3f9996050ec1a58880de0b6b3a7640000801ba00378e6963e4ce0db3ead7a28f79610e4720237f44cc43a4079b6ebd280bc2d89a00ffd12d43700520d5b51a15902f8ca2f67330a242aa67f5186ce30df277c5bea",
      "networkId": 0,
      "chainId": 0
    }
  ]
}