{
  "hash": "0x745b00a458f051f2f7bca06b97662bda5faa9925f0f16d6018e12d221b5766d4",
  "parentHash": "0x3d724680156d38e79724fe0a82c12d1ee88257b7aa5662f9675c1ba99e60f6c1",
  "number": 64513,
  "timestamp": 1439222072,
  "nonce": "0xa902e7a51cfed5eb",
  "difficulty": 1875689607195,
  "gasLimit": {
    "_hex": "0x2fefd8"
  },
  "gasUsed": {
    "_hex": "0xbe6c"
  },
  "miner": "0x1B7047b4338ACf65bE94C1A3e8c5c9338ad7d67C",
  "extraData": "0x476574682f76312e302e312d38326566323666362f6c696e75782f676f312e34",
  "transactions": [
    {
      "hash": "0xe44e51ac415be00f3f0ec2f0ffaeadfa0736b3eaf080f90fd2491f022e5051b1",
      "blockHash": "0x745b00a458f051f2f7bca06b97662bda5faa9925f0f16d6018e12d221b5766d4",
      "blockNumber": 64513,
      "transactionIndex": 0,
      "confirmations": null,
      "from": "0xD8aACaEebf46da28222493f28ec0742c59934cA0",
      "gasPrice": {
        "_hex": "0xba43b7400"
      },
      "gasLimit": {
        "_hex": "0x15f90"
      },
      "to": "0x793AE8C1b1a160BFc07BFB0d04F85eab1A71F4f2",
      "value": {
        "_hex": "0x0"
      },
      "nonce": 0,
      "data": "0x3ba15036",
      "r": "0x5ab3896eba156c553c1731cac5f092294822a7d125fe685c453f1848af2c8531",
      "s": "0x6b818aa27c313a4003c0cd62a4080615337edc1b6168ceec6fe88163a20baeb7",
      "v": 28,
      "creates": null,
      "raw": "0xf86980850ba43b740083015f9094793ae8c1b1a160bfc07bfb0d04f85eab1a71f4f280843ba150361ca05ab3896eba156c553c1731cac5f092294822a7d125fe685c453f1848af2c8531a06b818aa27c313a4003c0cd62a4080615337edc1b6168ceec6fe88163a20baeb7",
      "networkId": 0,
      "chainId": 0
    }
  ]
}