{
  "hash": "0xb3d32cc0f20ab99678cada2f324fee670f9562af94048320da894b4f5f29f6a9",
  "parentHash": "0xf9241e5c0a8ed7687df11c17ddf5d292f9f7091d2290e16e7874d903bd077e7e",
  "number": 56432,
  "timestamp": 1439087192,
  "nonce": "0x913def58cfa09a84",
  "difficulty": 1657694835707,
  "gasLimit": {
    "_hex": "0x2fefd8"
  },
  "gasUsed": {
    "_hex": "0x5208"
  },
  "miner": "0x0193d941b50d91BE6567c7eE1C0Fe7AF498b4137",
  "extraData": "0x4a5ace9e4e",
  "transactions": [
    {
      "hash": "0x46e856b2798486e352c9fc7b9c28a6d130c6f4c9e659b58f7ae15848dfe58bc8",
      "blockHash": "0xb3d32cc0f20ab99678cada2f324fee670f9562af94048320da894b4f5f29f6a9",
      "blockNumber": 56432,
      "transactionIndex": 0,
      "confirmations": null,
      "from": "0xD2581A55ce23aB10D8AD8c44378F59079BD6F658",
      "gasPrice": {
        "_hex": "0xddfd0c9a9"
      },
      "gasLimit": {
        "_hex": "0x15f90"
      },
      "to": "0x7a3193C7532579275d8eD0e2e5680959B06c00F5",
      "value": {
        "_hex": "0x4be4e7267b6ae00000"
      },
      "nonce": 6,
      "data": "0x",
      "r": "0x442878464d63b02df55d18a929cf5718babad729234db81f6f9fa103b57a2da9",
      "s": "0x1fc47aaadca489360ab09ae2974e2b3fcffe7db3cb31b2c68e17e1d7eea95075",
      "v": 28,
      "creates": null,
      "raw": "0xf86e06850ddfd0c9a983015f90947a3193c7532579275d8ed0e2e5680959b06c00f5894be4e7267b6ae00000801ca0442878464d63b02df55d18a929cf5718babad729234db81f6f9fa103b57a2da9a01fc47aaadca489360ab09ae2974e2b3fcffe7db3cb31b2c68e17e1d7eea95075",
      "networkId": 0,
      "chainId": 0
    }
  ]
}