{
  "hash": "0x51e1c4e08d72b39f724b555662183c2b672a1f9f01631030dee93210739bbfdf",
  "parentHash": "0x153ce4e4922e54fdffa46123b5a2ea00ef96afa4030543ea7cd9761c9c7b2213",
  "number": 49025,
  "timestamp": 1438966563,
  "nonce": "0xf06bad67c8a43bf3",
  "difficulty": 1487987059895,
  "gasLimit": {
    "_hex": "0x23c03"
  },
  "gasUsed": {
    "_hex": "0x546c"
  },
  "miner": "0x47ff6576639c2e94762eA5443978D7681C0E78DC",
  "extraData": "0x476574682f76312e302e312f6c696e75782f676f312e342e32",
  "transactions": [
    {
      "hash": "0xca6956be355da83530551988cff854a4809acda1e5e31fb5f9e1efb57f59e0cd",
      "blockHash": "0x51e1c4e08d72b39f724b555662183c2b672a1f9f01631030dee93210739bbfdf",
      "blockNumber": 49025,
      "transactionIndex": 0,
      "confirmations": null,
      "from": "0xE4324912D64ea3AEF76B3C2ff9dF82c7E13ae991",
      "gasPrice": {
        "_hex": "0xda553ed8a"
      },
      "gasLimit": {
        "_hex": "0x15f90"
      },
      "to": "0x2910543Af39abA0Cd09dBb2D50200b3E800A63D2",
      "value": {
        "_hex": "0xde0b6b3a7640000"
      },
      "nonce": 2,
      "data": "0x454e48565844513247",
      "r": "0x0ab9c5e64cf747d7f6a588e9ab7416b2dce836ac852963cf5a896b945e1a7c9d",
      "s": "0x691c362d1c432f654bedba56e157758579d430c3b986b28efea631a9275f2dce",
      "v": 27,
      "creates": null,
      "raw": "0xf87602850da553ed8a83015f90942910543af39aba0cd09dbb2d50200b3e800a63d2880de0b6b3a764000089454e485658445132471ba00ab9c5e64cf747d7f6a588e9ab7416b2dce836ac852963cf5a896b945e1a7c9da0691c362d1c432f654bedba56e157758579d430c3b986b28efea631a9275f2dce",
      "networkId": 0,
      "chainId": 0
    }
  ]
}