{
  "hash": "0xafca1620ed925665c37c11deec22c1b57f5b1c262831b66a49cbc814452ff54e",
  "parentHash": "0x3633143b0e1ff1a6fd82b5f6ca807f67bebee0b405915740cbbbd11fafa7906c",
  "number": 98741,
  "timestamp": 1439778305,
  "nonce": "0x828fc1a1d6ad0c5d",
  "difficulty": 3829252370096,
  "gasLimit": {
    "_hex": "0x2fefd8"
  },
  "gasUsed": {
    "_hex": "0x5208"
  },
  "miner": "0xe6A7a1d47ff21B6321162AEA7C6CB457D5476Bca",
  "extraData": "0x476574682f76312e302e312d38326566323666362f6c696e75782f676f312e34",
  "transactions": [
    {
      "hash": "0x4e850dfc672f1fad76d0a93656b8d8df2380cb75b2a0f89a4c98f234e771007b",
      "blockHash": "0xafca1620ed925665c37c11deec22c1b57f5b1c262831b66a49cbc814452ff54e",
      "blockNumber": 98741,
      "transactionIndex": 0,
      "confirmations": null,
      "from": "0x289B9bA6dC9c12D3130F1115180397C20cCBF220",
      "gasPrice": {
        "_hex": "0xba43b7400"
      },
      "gasLimit": {
        "_hex": "0x5208"
      },
      "to": "0xC47Aaa860008be6f65B58c6C6E02a84e666EfE31",
      "value": {
        "_hex": "0x5b36323272143a3d20"
      },
      "nonce": 8,
      "data": "0x",
      "r": "0x2eb6dbe2d3e024475597ca811500d6becd380aaaf15b93d2bb23ca23f3bae066",
      "s": "0x171e2912010b1fece9c4ac0d904cb24d2b70217db93be9b39b53391a03a19e78",
      "v": 27,
      "creates": null,
      "raw": "0xf86d08850ba43b740082520894c47aaa860008be6f65b58c6c6e02a84e666efe31895b36323272143a3d20801ba02eb6dbe2d3e024475597ca811500d6becd380aaaf15b93d2bb23ca23f3bae066a0171e2912010b1fece9c4ac0d904cb24d2b70217db93be9b39b53391a03a19e78",
      "networkId": 0,
      "chainId": 0
    }
  ]
}