{
  "hash": "0xd818cabd94b52c24bd72d4449b7825d7a0e51eac7843185584db689a96cff883",
  "parentHash": "0x2e55cb55f9effaf1920c051fdfd384a5063b5e95aa082eb29cd01b89ed3b0fce",
  "number": 56047,
  "timestamp": 1439081205,
  "nonce": "0x3917dd224509f9e6",
  "difficulty": 1623327060555,
  "gasLimit": {
    "_hex": "0x2fe3de"
  },
  "gasUsed": {
    "_hex": "0x5208"
  },
  "miner": "0xA10C59651885FeAaac91F871082a23BBbaBeDfCf",
  "extraData": "0x476574682f76312e302e302f77696e646f77732f676f312e342e32",
  "transactions": [
    {
      "hash": "0x31945caa7cb4342fba444856e8827d74438653703b7bde2f2ebf7b377ce39ff0",
      "blockHash": "0xd818cabd94b52c24bd72d4449b7825d7a0e51eac7843185584db689a96cff883",
      "blockNumber": 56047,
      "transactionIndex": 0,
      "confirmations": null,
      "from": "0x2643bA99548075fA6f6E537Cc34e9C6cd2B7E8aC",
      "gasPrice": {
        "_hex": "0x1014a4b6ac2"
      },
      "gasLimit": {
        "_hex": "0x5208"
      },
      "to": "0x51A6D627f66a8923d88D6094C4715380D3057Cb6",
      "value": {
        "_hex": "0x15cb6c9af81504ec"
      },
      "nonce": 0,
      "data": "0x",
      "r": "0xa1997380c32bb414cb9d2b85993fc9147f3d88b4269ef5be4ef781f37184cdad",
      "s": "0x0d4abd3d145c764368aef4aedfa2655c33f7e0ac822e20edb243f9333cf35fdb",
      "v": 28,
      "creates": null,
      "raw": "0xf86d808601014a4b6ac28252089451a6d627f66a8923d88d6094c4715380d3057cb68815cb6c9af81504ec801ca0a1997380c32bb414cb9d2b85993fc9147f3d88b4269ef5be4ef781f37184cdada00d4abd3d145c764368aef4aedfa2655c33f7e0ac822e20edb243f9333cf35fdb",
      "networkId": 0,
      "chainId": 0
    }
  ]
}