{
  "hash": "0x033cc344f56a59e86a890640f932c6704897c74ff0ff60d2cd60f9c6fb819661",
  "parentHash": "0x2755b0b66b0bcb97289e96f143b0ab172f0e8e7fb0dd3a062a821ea38c924032",
  "number": 75038,
  "timestamp": 1439396739,
  "nonce": "0x3b1a1ecc5c57c1d2",
  "difficulty": 2180550101574,
  "gasLimit": {
    "_hex": "0x2fefd8"
  },
  "gasUsed": {
    "_hex": "0xe1a7"
  },
  "miner": "0xEF247E639d49461D25F57e9362CadE3120910Ce0",
  "extraData": "0x476574682f76312e302e312f6c696e75782f676f312e342e32",
  "transactions": [
    {
      "hash": "0x48feb5bca92c36b514ba5b2ce6cc30e460a877fb576ea5f1f219539b9331dbb3",
      "blockHash": "0x033cc344f56a59e86a890640f932c6704897c74ff0ff60d2cd60f9c6fb819661",
      "blockNumber": 75038,
      "transactionIndex": 0,
      "confirmations": null,
      "from": "0x326Be8F71bFb0379f989aAB1CC1fE37f0a771f60",
      "gasPrice": {
        "_hex": "0xfef2b7047a"
      },
      "gasLimit": {
        "_hex": "0x493e0"
      },
      "to": "0xD79B4C6791784184e2755B2fC1659eaaB0f80456",
      "value": {
        "_hex": "0xde0b6b3a7640000"
      },
      "nonce": 65,
      "data": "0x8d21618600000000000000000000000000000000000000000000000000000000000000805f7d7765d3f96deaa25d813601d114b49fe084c46649a5183156e7b5fbc4c437",
      "r": "0xf26ecc6b4d9c4ac3f58ccd94d8ceea434b5d8fd6d3da87f9f30d5a48423824aa",
      "s": "0x616aeec4288ab8f2c6498107de75d3cb765c866cbc948cb0874d665db0cc9075",
      "v": 28,
      "creates": null,
      "raw": "0xf8b24185fef2b7047a830493e094d79b4c6791784184e2755b2fc1659eaab0f80456880de0b6b3a7640000b8448d21618600000000000000000000000000000000000000000000000000000000000000805f7d7765d3f96deaa25d813601d114b49fe084c46649a5183156e7b5fbc4c4371ca0f26ecc6b4d9c4ac3f58ccd94d8ceea434b5d8fd6d3da87f9f30d5a48423824aaa0616aeec4288ab8f2c6498107de75d3cb765c866cbc948cb0874d665db0cc9075",
      "networkId": 0,
      "chainId": 0
    },
    {
      "hash": "0x5a6f389256901b9d3e48ce5dbbabc374a78abd89fb515d3aa4ba6f293b9f0c2e",
      "blockHash": "0x033cc344f56a59e86a890640f932c6704897c74ff0ff60d2cd60f9c6fb819661",
      "blockNumber": 75038,
      "transactionIndex": 1,
      "confirmations": null,
      "from": "0x01Ad0ACFf478127D9d702B1A13599D706cB759b1",
      "gasPrice": {
        "_hex": "0xd756f0fa1"
      },
      "gasLimit": {
        "_hex": "0x5208"
      },
      "to": "0x32Be343B94f860124dC4fEe278FDCBD38C102D88",
      "value": {
        "_hex": "0x455f417926a90800"
      },
      "nonce": 16,
      "data": "0x",
      "r": "0x3b8b262e40427a746101f25f66e350a7180a8291f52e374c6861115af90ed8d8",
      "s": "0x2412edbac35555b3a8d0345458ce0b56bc2decac860869716105ab8b38d968c4",
      "v": 28,
      "creates": null,
      "raw": "0xf86c10850d756f0fa18252089432be343b94f860124dc4fee278fdcbd38c102d8888455f417926a90800801ca03b8b262e40427a746101f25f66e350a7180a8291f52e374c6861115af90ed8d8a02412edbac35555b3a8d0345458ce0b56bc2decac860869716105ab8b38d968c4",
      "networkId": 0,
      "chainId": 0
    }
  ]
}