{
  "hash": "0xd79d2bc44d2c8c4947a827cf02c32fb4a59385e0d99a52544f658522d6aacc6e",
  "parentHash": "0x414bea5c1e347d2c15b342afd5cfcf5e49540acda4ae4c409fface57065087f4",
  "number": 113148,
  "timestamp": 1440018541,
  "nonce": "0xa162507d4e2cc1f6",
  "difficulty": 4502020805150,
  "gasLimit": {
    "_hex": "0x2fefd8"
  },
  "gasUsed": {
    "_hex": "0xf618"
  },
  "miner": "0x9746c7e1ef2bd21FF3997fa467593a89cb852BD0",
  "extraData": "0x476574682f76312e302e312f77696e646f77732f676f312e342e32",
  "transactions": [
    {
      "hash": "0x189a4477dff88da2838e3d66b869c0b1e8fce905391091d962dbb155664417e2",
      "blockHash": "0xd79d2bc44d2c8c4947a827cf02c32fb4a59385e0d99a52544f658522d6aacc6e",
      "blockNumber": 113148,
      "transactionIndex": 0,
      "confirmations": null,
      "from": "0x0cA19A53a3256482A89770FC1daFC7630717F201",
      "gasPrice": {
        "_hex": "0xce322967f"
      },
      "gasLimit": {
        "_hex": "0x5208"
      },
      "to": "0x32Be343B94f860124dC4fEe278FDCBD38C102D88",
      "value": {
        "_hex": "0x8784064d0a3b8800"
      },
      "nonce": 14,
      "data": "0x",
      "r": "0x833da933a12268ccbf2b19b7dd2dcc894407eef2822e99b255d3d430306a6ce5",
      "s": "0x5591137b87d5b84ec78f5c05ae94a77a96888697bd9bdd41d5132e78ad7da154",
      "v": 28,
      "creates": null,
      "raw": "0xf86c0e850ce322967f8252089432be343b94f860124dc4fee278fdcbd38c102d88888784064d0a3b8800801ca0833da933a12268ccbf2b19b7dd2dcc894407eef2822e99b255d3d430306a6ce5a05591137b87d5b84ec78f5c05ae94a77a96888697bd9bdd41d5132e78ad7da154",
      "networkId": 0,
      "chainId": 0
    },
    {
      "hash": "0xc2bc39f9139cef414b2107b6d8f36c5d5082ca774c919742935d25d3b371003a",
      "blockHash": "0xd79d2bc44d2c8c4947a827cf02c32fb4a59385e0d99a52544f658522d6aacc6e",
      "blockNumber": 113148,
      "transactionIndex": 1,
      "confirmations": null,
      "from": "0x30fd214a66128A1f1BAc83c571eB84AB1225Bd45",
      "gasPrice": {
        "_hex": "0xba43b7400"
      },
      "gasLimit": {
        "_hex": "0x15f90"
      },
      "to": "0xc597A5d92F5dC1137D847db733cfe02c6d209f13",
      "value": {
        "_hex": "0x36f2bb195bc06800"
      },
      "nonce": 0,
      "data": "0x",
      "r": "0x0cb182aafcabf07c801748207c6b9d076e916b1e383c603fe5a1543722b60e3b",
      "s": "0x425eb4baf5c7ac06c331113ce0eeff292ba120731e8da99f2c88fd2a55ee2798",
      "v": 28,
      "creates": null,
      "raw": "0xf86d80850ba43b740083015f9094c597a5d92f5dc1137d847db733cfe02c6d209f138836f2bb195bc06800801ca00cb182aafcabf07c801748207c6b9d076e916b1e383c603fe5a1543722b60e3ba0425eb4baf5c7ac06c331113ce0eeff292ba120731e8da99f2c88fd2a55ee2798",
      "networkId": 0,
      "chainId": 0
    },
    {
      "hash": "0x77aa07dc22adb2e95225b073110012adbc3c668f3f7d2b0173a27f3376ee9918",
      "blockHash": "0xd79d2bc44d2c8c4947a827cf02c32fb4a59385e0d99a52544f658522d6aacc6e",
      "blockNumber": 113148,
      "transactionIndex": 2,
      "confirmations": null,
      "from": "0x5a897024cD9ab0e4B140fec5F19143d5EfBFeBD9",
      "gasPrice": {
        "_hex": "0xba43b7400"
      },
      "gasLimit": {
        "_hex": "0x15f90"
      },
      "to": "0xc597A5d92F5dC1137D847db733cfe02c6d209f13",
      "value": {
        "_hex": "0x56b79354b3a010000"
      },
      "nonce": 0,
      "data": "0x",
      "r": "0xb7689ad365a647d964f8abc2062dda2ddf076997e0336c61e3e7e07f802566ab",
      "s": "0x6a19d58a90427d28bc5c20d17ab85120ca36ebd3e3bafe89a191a0a6cacd8f5d",
      "v": 27,
      "creates": null,
      "raw": "0xf86e80850ba43b740083015f9094c597a5d92f5dc1137d847db733cfe02c6d209f1389056b79354b3a010000801ba0b7689ad365a647d964f8abc2062dda2ddf076997e0336c61e3e7e07f802566aba06a19d58a90427d28bc5c20d17ab85120ca36ebd3e3bafe89a191a0a6cacd8f5d",
      "networkId": 0,
      "chainId": 0
    }
  ]
}