{
  "hash": "0x48a889eeca44ff9cde90567c042a826bc12c72c02912833d0019981d28fdf179",
  "parentHash": "0x9a8f42327ad2b63de5d6c5a1bafe7d12cdba1d4e953884de700892ce59618626",
  "number": 113120,
  "timestamp": 1440018154,
  "nonce": "0xcaa2b19fa86a9e3d",
  "difficulty": 4484484056560,
  "gasLimit": {
    "_hex": "0x2fefd8"
  },
  "gasUsed": {
    "_hex": "0x5208"
  },
  "miner": "0x56A1018A2F565672E98f4cB657cEB8059ff3E5a2",
  "extraData": "0x476574682f76312e302e312f77696e646f77732f676f312e342e32",
  "transactions": [
    {
      "hash": "0xf4bfd29efc737ecd551d04028c5f540e3f300388a609216a257c07ff778af430",
      "blockHash": "0x48a889eeca44ff9cde90567c042a826bc12c72c02912833d0019981d28fdf179",
      "blockNumber": 113120,
      "transactionIndex": 0,
      "confirmations": null,
      "from": "0x475526af19ba007Bc39bA43c0946892035AA1B08",
      "gasPrice": {
        "_hex": "0xbdfd63e00"
      },
      "gasLimit": {
        "_hex": "0x5208"
      },
      "to": "0x412bc0Ca868036dB7456168A1fEa69Cbfbb635Ce",
      "value": {
        "_hex": "0x659c2db3a2b8cd80000"
      },
      "nonce": 1,
      "data": "0x",
      "r": "0xe5bd4a825c58515dc4bbe026b01f1a386edcd08146a77bd2e10aa79b319ed1a6",
      "s": "0x2b0b9c651048a81d115145885c4d29139477a103b86042b794e903e025847d37",
      "v": 27,
      "creates": null,
      "raw": "0xf86e01850bdfd63e0082520894412bc0ca868036db7456168a1fea69cbfbb635ce8a0659c2db3a2b8cd80000801ba0e5bd4a825c58515dc4bbe026b01f1a386edcd08146a77bd2e10aa79b319ed1a6a02b0b9c651048a81d115145885c4d29139477a103b86042b794e903e025847d37",
      "networkId": 0,
      "chainId": 0
    }
  ]
}