{
  "hash": "0xaf77a4c60d0d3e4b3a6ca9a345705fbd6d72e5e292832e91c19bf0efbfb85524",
  "parentHash": "0x808299069e4828652a7d9a36f5349646d7a5e5c232c93099c44e6e8d6761a957",
  "number": 52128,
  "timestamp": 1439016621,
  "nonce": "0x8d69556cfe4f384e",
  "difficulty": 1555019259144,
  "gasLimit": {
    "_hex": "0x106982"
  },
  "gasUsed": {
    "_hex": "0x7f328"
  },
  "miner": "0x6BB048244aC4f934163a15b7a472Ce7B48fC9F32",
  "extraData": "0x476574682f76312e302e312d37666266393930632f6c696e75782f676f312e34",
  "transactions": [
    {
      "hash": "0xae67fdcf061d2c994c6722ed5f406782104c5226d3538b11ae713e07968de3f9",
      "blockHash": "0xaf77a4c60d0d3e4b3a6ca9a345705fbd6d72e5e292832e91c19bf0efbfb85524",
      "blockNumber": 52128,
      "transactionIndex": 0,
      "confirmations": null,
      "from": "0xeb5f44D72343Df39680AaF77B2CeD6586e6918c2",
      "gasPrice": {
        "_hex": "0x9184e72a000"
      },
      "gasLimit": {
        "_hex": "0x1c27f"
      },
      "to": "0x2AaE9Cd3e67BEfB4D0A4962dE7db0E924bB6610E",
      "value": {
        "_hex": "0x6f05b59d3b20000"
      },
      "nonce": 4,
      "data": "0x",
      "r": "0x09d3fa953d2db0188114d75c711d000bf8006bfca5356f9ae1cd2866674f5221",
      "s": "0x2f46cbcd13fe7c4301f201e032833195a5bb5c15002de4de3bb9721bf07e6696",
      "v": 27,
      "creates": null,
      "raw": "0xf86e048609184e72a0008301c27f942aae9cd3e67befb4d0a4962de7db0e924bb6610e8806f05b59d3b20000801ba009d3fa953d2db0188114d75c711d000bf8006bfca5356f9ae1cd2866674f5221a02f46cbcd13fe7c4301f201e032833195a5bb5c15002de4de3bb9721bf07e6696",
      "networkId": 0,
      "chainId": 0
    },
    {
      "hash": "0xcf40778d974e5e2a59e1ad08bdee2bb113438857a34cc4b66aa8b9f67f89333c",
      "blockHash": "0xaf77a4c60d0d3e4b3a6ca9a345705fbd6d72e5e292832e91c19bf0efbfb85524",
      "blockNumber": 52128,
      "transactionIndex": 1,
      "confirmations": null,
      "from": "0x9def82c26c0c5fc4E0e7eC2f64425314E3F7B476",
      "gasPrice": {
        "_hex": "0xdee387ef8"
      },
      "gasLimit": {
        "_hex": "0x7a120"
      },
      "to": "0xBAA54d6E90c3F4d7Ebec11bD180134C7eD8eBb52",
      "value": {
        "_hex": "0x16345785d8a0000"
      },
      "nonce": 3,
      "data": "0x",
      "r": "0xfbc8efe35fd0e4b602fe30b0fc95c482f179011e7338feb608344618ada84f74",
      "s": "0x60e4c5286e1c42c9fc2be83f9f016e44d52d15752f523c8d492e0e6817e1e285",
      "v": 27,
      "creates": null,
      "raw": "0xf86d03850dee387ef88307a12094baa54d6e90c3f4d7ebec11bd180134c7ed8ebb5288016345785d8a0000801ba0fbc8efe35fd0e4b602fe30b0fc95c482f179011e7338feb608344618ada84f74a060e4c5286e1c42c9fc2be83f9f016e44d52d15752f523c8d492e0e6817e1e285",
      "networkId": 0,
      "chainId": 0
    }
  ]
}