{
  "hash": "0xb5aa576c7ed28f138070f5475fc27aeb43cf1d8d7cabd82bbc274878c44c2036",
  "parentHash": "0xe0fb93e543fea41f4977bd4e45b1ff65f7bfc1e338926cbfa76f194830ac5ba6",
  "number": 102017,
  "timestamp": 1439831454,
  "nonce": "0x198d26611d316885",
  "difficulty": 3922358438113,
  "gasLimit": {
    "_hex": "0x2fefd8"
  },
  "gasUsed": {
    "_hex": "0x5208"
  },
  "miner": "0x0eDEd3DA479d0beF8eeC92A76644D3f4E3C177f7",
  "extraData": "0x476574682f76312e302e312f6c696e75782f676f312e342e32",
  "transactions": [
    {
      "hash": "0x1028f96ce28cbadd33179fe6e887b72433be882348565c70060d9737a08ccc77",
      "blockHash": "0xb5aa576c7ed28f138070f5475fc27aeb43cf1d8d7cabd82bbc274878c44c2036",
      "blockNumber": 102017,
      "transactionIndex": 0,
      "confirmations": null,
      "from": "0xcf00A85f3826941e7A25BFcF9Aac575d40410852",
      "gasPrice": {
        "_hex": "0xcb5bea614"
      },
      "gasLimit": {
        "_hex": "0x15f90"
      },
      "to": "0xD9666150A9dA92d9108198a4072970805a8B3428",
      "value": {
        "_hex": "0x4563918244f40000"
      },
      "nonce": 41,
      "data": "0x",
      "r": "0xb81a24d39d5f77782549a3da6838d6d1c10e032527433bb3b554035641aba1b0",
      "s": "0x0463e091cb5c38a2c1b323feb180b929e4fd9df85e8df53e57175168eb7d520b",
      "v": 28,
      "creates": null,
      "raw": "0xf86d29850cb5bea61483015f9094d9666150a9da92d9108198a4072970805a8b3428884563918244f40000801ca0b81a24d39d5f77782549a3da6838d6d1c10e032527433bb3b554035641aba1b0a00463e091cb5c38a2c1b323feb180b929e4fd9df85e8df53e57175168eb7d520b",
      "networkId": 0,
      "chainId": 0
    }
  ]
}