{
  "hash": "0xc8502848de111008106cbb031ad3683892b628f4f9f19e7e9943f276364535a8",
  "parentHash": "0x93093fea26a23f372d2db5ad24d1940b846d114513953b210983dec8296df3aa",
  "number": 70069,
  "timestamp": 1439314318,
  "nonce": "0x0b6f39c1d076ec20",
  "difficulty": 2103386025947,
  "gasLimit": {
    "_hex": "0x2fefd8"
  },
  "gasUsed": {
    "_hex": "0xa410"
  },
  "miner": "0x88D74a59454F6cF3B51ef6b9136AFb6b9D405A88",
  "extraData": "0x476574682f76312e302e312d37666266393930632f6c696e75782f676f312e34",
  "transactions": [
    {
      "hash": "0xff977b1117cf099511a95dd79331e546597efbb90cf7731b376e1be39455e2a4",
      "blockHash": "0xc8502848de111008106cbb031ad3683892b628f4f9f19e7e9943f276364535a8",
      "blockNumber": 70069,
      "transactionIndex": 0,
      "confirmations": null,
      "from": "0x458F183347F45a4001807728A89F31E9Da9D4A58",
      "gasPrice": {
        "_hex": "0xdd38994ce"
      },
      "gasLimit": {
        "_hex": "0x15f90"
      },
      "to": "0x7fa165177F28D171bA7C17f765c1904344Ec64CB",
      "value": {
        "_hex": "0x2b5e3af16b1880000"
      },
      "nonce": 7,
      "data": "0x",
      "r": "0x3d7541285db923b7852c51331d055807cd53f2975bce738576cf92ef36ffaf19",
      "s": "0x24778d7479e3ea181f087c5ba830ccf39e1a7a7bacf552ce8016e258e482e3a3",
      "v": 28,
      "creates": null,
      "raw": "0xf86e07850dd38994ce83015f90947fa165177f28d171ba7c17f765c1904344ec64cb8902b5e3af16b1880000801ca03d7541285db923b7852c51331d055807cd53f2975bce738576cf92ef36ffaf19a024778d7479e3ea181f087c5ba830ccf39e1a7a7bacf552ce8016e258e482e3a3",
      "networkId": 0,
      "chainId": 0
    },
    {
      "hash": "0x1e56c590b926f97e6b95241bdc170431759f0544d764ef576af03f81dd29caab",
      "blockHash": "0xc8502848de111008106cbb031ad3683892b628f4f9f19e7e9943f276364535a8",
      "blockNumber": 70069,
      "transactionIndex": 1,
      "confirmations": null,
      "from": "0xc2E9e042B88164B5408bd895Df7DdaD491c6321E",
      "gasPrice": {
        "_hex": "0xd7c68dce1"
      },
      "gasLimit": {
        "_hex": "0x15f90"
      },
      "to": "0xa114c802ef29776f05f9c6925cE915232e8ae102",
      "value": {
        "_hex": "0xde0b6b3a7640000"
      },
      "nonce": 0,
      "data": "0x",
      "r": "0x86b1e1a8b7e0b47b6176df42117c8106696527b96bcd4d15442c1aae657e6c2e",
      "s": "0x7b1f8350eefd7797abf0783c9faf54c14f11bd0fa29a680c366885cafecb386f",
      "v": 27,
      "creates": null,
      "raw": "0xf86d80850d7c68dce183015f9094a114c802ef29776f05f9c6925ce915232e8ae102880de0b6b3a7640000801ba086b1e1a8b7e0b47b6176df42117c8106696527b96bcd4d15442c1aae657e6c2ea07b1f8350eefd7797abf0783c9faf54c14f11bd0fa29a680c366885cafecb386f",
      "networkId": 0,
      "chainId": 0
    }
  ]
}