{
  "hash": "0xaa7f783fd4a5a2989f7be8c29dcb0425ad46dddb85e95c6e1acbe3120ada40af",
  "parentHash": "0x6412ac00f2205525f7c5fe4ee2deec88461342cfd1cb225944f521d8296c7b8e",
  "number": 107094,
  "timestamp": 1439915783,
  "nonce": "0x98c13a022a4ec2c3",
  "difficulty": 4474578327830,
  "gasLimit": {
    "_hex": "0x2fefd8"
  },
  "gasUsed": {
    "_hex": "0x5208"
  },
  "miner": "0xC603Ab5ef41fC61AA8b76bEddb09e3Cfcbb174BD",
  "extraData": "0x476574682f76312e302e312f77696e646f77732f676f312e342e32",
  "transactions": [
    {
      "hash": "0x13e9c8f364ce24457eabbf4863464667e3307f971b283e2da55ffd3c2979dc93",
      "blockHash": "0xaa7f783fd4a5a2989f7be8c29dcb0425ad46dddb85e95c6e1acbe3120ada40af",
      "blockNumber": 107094,
      "transactionIndex": 0,
      "confirmations": null,
      "from": "0xb6E2d440C46510EC44266A3f58165E3956173df0",
      "gasPrice": {
        "_hex": "0xdc12db9d8"
      },
      "gasLimit": {
        "_hex": "0x15f90"
      },
      "to": "0x1Dd20cba1Ac0a6ADaFc39b52A8e3E9429A444Ada",
      "value": {
        "_hex": "0x6ccd46763f10000"
      },
      "nonce": 1,
      "data": "0x",
      "r": "0x3a8ae88bbcf9f21b5ecf4ccb650bccefa89c617be21cfc4bf0f2346b5597b574",
      "s": "0x7f667586396c5be294d20539064d522b4e8eac485c01c21e97205452b2b65118",
      "v": 28,
      "creates": null,
      "raw": "0xf86d01850dc12db9d883015f90941dd20cba1ac0a6adafc39b52a8e3e9429a444ada8806ccd46763f10000801ca03a8ae88bbcf9f21b5ecf4ccb650bccefa89c617be21cfc4bf0f2346b5597b574a07f667586396c5be294d20539064d522b4e8eac485c01c21e97205452b2b65118",
      "networkId": 0,
      "chainId": 0
    }
  ]
}