{
  "hash": "0x34dd3766197c57c786beb858cc93f7a0aa0c5b1b50294192de63f48e79091c5f",
  "parentHash": "0x04954ad8607c5baa5dffc1116e1f264ff32acad84b3ba51c8b159df5dc74ce01",
  "number": 71936,
  "timestamp": 1439344270,
  "nonce": "0xc0cdbb288d83e262",
  "difficulty": 2177100285798,
  "gasLimit": {
    "_hex": "0x2fefd8"
  },
  "gasUsed": {
    "_hex": "0x93b2"
  },
  "miner": "0xB1A4B41b8e75a153841c99c62d18588d45e7b406",
  "extraData": "0x",
  "transactions": [
    {
      "hash": "0xca1ad6a6b132b0c8add93119b989c4e22f1d2586c40c2ebfda9637f8ee46b5cc",
      "blockHash": "0x34dd3766197c57c786beb858cc93f7a0aa0c5b1b50294192de63f48e79091c5f",
      "blockNumber": 71936,
      "transactionIndex": 0,
      "confirmations": null,
      "from": "0x17580B766f7453525ca4C6A88b01b50570EA088C",
      "gasPrice": {
        "_hex": "0xdbcc16fbe"
      },
      "gasLimit": {
        "_hex": "0x61a80"
      },
      "to": "0x5Fe5B7546D1628f7348B023A0393de1FC825A4fD",
      "value": {
        "_hex": "0x8ac7230489e80000"
      },
      "nonce": 299,
      "data": "0xb595b8b50000000000000000000000000000000000000000000000000000000000000000",
      "r": "0x958e11d52674789bbcf7399142f45a2f8693415dc6cd74f8a86806eee9a22590",
      "s": "0x1d602fbef0a4f9b77359cbc09b4395713a961a212bf38468b2851f5eb04fb01b",
      "v": 27,
      "creates": null,
      "raw": "0xf89382012b850dbcc16fbe83061a80945fe5b7546d1628f7348b023a0393de1fc825a4fd888ac7230489e80000a4b595b8b500000000000000000000000000000000000000000000000000000000000000001ba0958e11d52674789bbcf7399142f45a2f8693415dc6cd74f8a86806eee9a22590a01d602fbef0a4f9b77359cbc09b4395713a961a212bf38468b2851f5eb04fb01b",
      "networkId": 0,
      "chainId": 0
    }
  ]
}