{
  "hash": "0xece2543579bbc4537f1fcbde29e8a42805f70a60a1372822438f140d4cc28dc5",
  "parentHash": "0xcf48fe31e2abdf3d6005a62f6a89a72e3c345719e052faee5cab0a2088aeffdf",
  "number": 91802,
  "timestamp": 1439661722,
  "nonce": "0xf99a3ca1bbf2017e",
  "difficulty": 3480950400195,
  "gasLimit": {
    "_hex": "0x2fefd8"
  },
  "gasUsed": {
    "_hex": "0x5208"
  },
  "miner": "0xe6A7a1d47ff21B6321162AEA7C6CB457D5476Bca",
  "extraData": "0x476574682f76312e302e312d38326566323666362f6c696e75782f676f312e34",
  "transactions": [
    {
      "hash": "0x618c82f0ea672c87237c4bf096ebfdb4273bed90cf131b76e8de77d924200190",
      "blockHash": "0xece2543579bbc4537f1fcbde29e8a42805f70a60a1372822438f140d4cc28dc5",
      "blockNumber": 91802,
      "transactionIndex": 0,
      "confirmations": null,
      "from": "0x2910543Af39abA0Cd09dBb2D50200b3E800A63D2",
      "gasPrice": {
        "_hex": "0xcb9bb0e83"
      },
      "gasLimit": {
        "_hex": "0x5208"
      },
      "to": "0xA143616A882230de7571d01f1916F0A781d6480a",
      "value": {
        "_hex": "0x471f969540a89f8000"
      },
      "nonce": 816,
      "data": "0x",
      "r": "0x2434b95e58cc9848b6e04547090aae4ad7b1aa03376f62f7c8734e2f4339d221",
      "s": "0x7fb85498480c76a1577d5907ccf6bb67d2128cceec2f547d18f96708b48f25cd",
      "v": 27,
      "creates": null,
      "raw": "0xf86f820330850cb9bb0e8382520894a143616a882230de7571d01f1916f0a781d6480a89471f969540a89f8000801ba02434b95e58cc9848b6e04547090aae4ad7b1aa03376f62f7c8734e2f4339d221a07fb85498480c76a1577d5907ccf6bb67d2128cceec2f547d18f96708b48f25cd",
      "networkId": 0,
      "chainId": 0
    }
  ]
}