{
  "hash": "0x7895e0eaa348bf9faae2510cdfe198f0f11fe4850702570cd0b4aaf32dc0783f",
  "parentHash": "0x2c75a1e11094d5e4f31569a54684bd62b5ed4d6a15254567ea5738f26f695878",
  "number": 80823,
  "timestamp": 1439491479,
  "nonce": "0x50380995b8b8fcc3",
  "difficulty": 2455956933712,
  "gasLimit": {
    "_hex": "0x2fefd8"
  },
  "gasUsed": {
    "_hex": "0x5208"
  },
  "miner": "0x52Dc504a422f0E2A9e7632A34a50f1a82F8224c7",
  "extraData": "0x476574682f76312e302e312f6c696e75782f676f312e342e32",
  "transactions": [
    {
      "hash": "0x5f2119f25ba6608c327273fa264f6ed90e61f400a0be036b0a98bddcd147405c",
      "blockHash": "0x7895e0eaa348bf9faae2510cdfe198f0f11fe4850702570cd0b4aaf32dc0783f",
      "blockNumber": 80823,
      "transactionIndex": 0,
      "confirmations": null,
      "from": "0xA5a5181868a8Df772f87DC95aB9B366e974Da936",
      "gasPrice": {
        "_hex": "0xba43b7400"
      },
      "gasLimit": {
        "_hex": "0x5267"
      },
      "to": "0x1527fcd698B3A8707bb745F80ab114FfF3Db35E2",
      "value": {
        "_hex": "0x6f05b59d3b20000"
      },
      "nonce": 3,
      "data": "0x",
      "r": "0x6442bfd16e72bbd4a6bba5427f2e8753b520f0116c35607b92d289067c954e79",
      "s": "0x17d405789d94c3cfa3fd57dbcd5b12d3833a01014871b63c47c959d8d7431204",
      "v": 28,
      "creates": null,
      "raw": "0xf86c03850ba43b7400825267941527fcd698b3a8707bb745f80ab114fff3db35e28806f05b59d3b20000801ca06442bfd16e72bbd4a6bba5427f2e8753b520f0116c35607b92d289067c954e79a017d405789d94c3cfa3fd57dbcd5b12d3833a01014871b63c47c959d8d7431204",
      "networkId": 0,
      "chainId": 0
    }
  ]
}