{
  "hash": "0x228184bcd2cc9cc2f6d14e01b99e47eeee0f5d61b9df62e7c94796c084cac172",
  "parentHash": "0x245ff054e51a323871b9d62348bd1c0767f4cc5e3457e4cbc5dafd1de48e3385",
  "number": 79225,
  "timestamp": 1439466334,
  "nonce": "0x09a60dcb051bee2b",
  "difficulty": 2323426195253,
  "gasLimit": {
    "_hex": "0x2fefd8"
  },
  "gasUsed": {
    "_hex": "0x5208"
  },
  "miner": "0x89972aA7C0b19D1aE9cd89386160c3f28f7bB590",
  "extraData": "0x",
  "transactions": [
    {
      "hash": "0x5726a5de582d23f8ce4ca20489c2b6dc1dd1c57032468ba922f930060c9d3082",
      "blockHash": "0x228184bcd2cc9cc2f6d14e01b99e47eeee0f5d61b9df62e7c94796c084cac172",
      "blockNumber": 79225,
      "transactionIndex": 0,
      "confirmations": null,
      "from": "0x7D45E10A0d63eCCA0694a7cbfF030f4dD87DA0dC",
      "gasPrice": {
        "_hex": "0xdbb943128"
      },
      "gasLimit": {
        "_hex": "0x15f90"
      },
      "to": "0x6d921977dEFE5f4e0682CA512De1D07b1f4802E1",
      "value": {
        "_hex": "0x38d7ea4c68000"
      },
      "nonce": 3,
      "data": "0x",
      "r": "0x7a87ac44ee004eccf23a5d27cb7c6d60c090a9a9e19ccc2e5dcc49dfb7404210",
      "s": "0x54d666c0b0b0a9e75f8f60573f77b4379aa8a8ff74063a78b17b072c87a839d1",
      "v": 28,
      "creates": null,
      "raw": "0xf86c03850dbb94312883015f90946d921977defe5f4e0682ca512de1d07b1f4802e187038d7ea4c68000801ca07a87ac44ee004eccf23a5d27cb7c6d60c090a9a9e19ccc2e5dcc49dfb7404210a054d666c0b0b0a9e75f8f60573f77b4379aa8a8ff74063a78b17b072c87a839d1",
      "networkId": 0,
      "chainId": 0
    }
  ]
}