{
  "hash": "0x4770e39a4f47ab2f2da26534b2980e2c71075cd6a5340073b4ebed019233f571",
  "parentHash": "0x37f5fcd4761f48124fe9d843fe920fd99742535d4938869e68b0a954f8c87a0d",
  "number": 98589,
  "timestamp": 1439775503,
  "nonce": "0xf783032943eca1d8",
  "difficulty": 3844309298849,
  "gasLimit": {
    "_hex": "0x2fefd8"
  },
  "gasUsed": {
    "_hex": "0x5208"
  },
  "miner": "0x790b8a3cE86E707ED0eD32bF89B3269692a23CC1",
  "extraData": "0xd783010001844765746887676f312e342e32856c696e7578",
  "transactions": [
    {
      "hash": "0x7085075184811919ca6769d4acc3957a92d1b5a081bcd51315c2dc6009e57ece",
      "blockHash": "0x4770e39a4f47ab2f2da26534b2980e2c71075cd6a5340073b4ebed019233f571",
      "blockNumber": 98589,
      "transactionIndex": 0,
      "confirmations": null,
      "from": "0x007f7f58D3eb5b7510A301eCC749FC1fCDDBE14D",
      "gasPrice": {
        "_hex": "0xe0cfe7246"
      },
      "gasLimit": {
        "_hex": "0x15f90"
      },
      "to": "0xb1abce2918E21ddb93AA452731a12672A3d9F75a",
      "value": {
        "_hex": "0x4563918244f40000"
      },
      "nonce": 132,
      "data": "0x",
      "r": "0xa05391597d9c824bd860f54b14e98b1d4267218c64f94011e5ca6d12a926fbb0",
      "s": "0x3bc75dcbbacf07c700194cf2c60407e95bac1114c9f167742d8aa1626975d0d5",
      "v": 28,
      "creates": null,
      "raw": "0xf86e8184850e0cfe724683015f9094b1abce2918e21ddb93aa452731a12672a3d9f75a884563918244f40000801ca0a05391597d9c824bd860f54b14e98b1d4267218c64f94011e5ca6d12a926fbb0a03bc75dcbbacf07c700194cf2c60407e95bac1114c9f167742d8aa1626975d0d5",
      "networkId": 0,
      "chainId": 0
    }
  ]
}