{
  "hash": "0x414e0e1a24db15af3d861c5ad07b2f7a408957ad848e20281ccab6c087431471",
  "parentHash": "0x61f01e71752ce9a23a819432c00fe5ddf99a90e192466906ab24642dea39423c",
  "number": 77423,
  "timestamp": 1439436950,
  "nonce": "0xb6887be9ce1fe44a",
  "difficulty": 2237080749824,
  "gasLimit": {
    "_hex": "0x2fefd8"
  },
  "gasUsed": {
    "_hex": "0x5208"
  },
  "miner": "0x785ffdDd5cE55c6DF963f345e68d3F2024E5Acb1",
  "extraData": "0x",
  "transactions": [
    {
      "hash": "0x4aae2171a06dda29d84e107d29f393a9eef17f52b93de6d7bd243875949e326a",
      "blockHash": "0x414e0e1a24db15af3d861c5ad07b2f7a408957ad848e20281ccab6c087431471",
      "blockNumber": 77423,
      "transactionIndex": 0,
      "confirmations": null,
      "from": "0x120A270bbC009644e35F0bB6ab13f95b8199c4ad",
      "gasPrice": {
        "_hex": "0xdcad10ebe"
      },
      "gasLimit": {
        "_hex": "0x3d090"
      },
      "to": "0x7c4ED2709192c2615e2E577f047050582F0a9774",
      "value": {
        "_hex": "0x1a055690d9db80000"
      },
      "nonce": 322,
      "data": "0x",
      "r": "0x4d25cf6b9f3e127b32626cdd7e39e7ebf61051eb12152c61b04192eec7cf63ef",
      "s": "0x2855af6f47e42cf1c37ad63c76de9e2eae24dd66ee40d09fc685cd68e8e21306",
      "v": 28,
      "creates": null,
      "raw": "0xf870820142850dcad10ebe8303d090947c4ed2709192c2615e2e577f047050582f0a97748901a055690d9db80000801ca04d25cf6b9f3e127b32626cdd7e39e7ebf61051eb12152c61b04192eec7cf63efa02855af6f47e42cf1c37ad63c76de9e2eae24dd66ee40d09fc685cd68e8e21306",
      "networkId": 0,
      "chainId": 0
    }
  ]
}