{
  "hash": "0x002c45347128ac5df5d89d21c49e0b834f47f0f53fd6ad860af2e98340a8a1be",
  "parentHash": "0x57200518c1f2959267b3d7ce982c2b71ad803cedb74c7669d5c361b4c8a1e9fd",
  "number": 106552,
  "timestamp": 1439906323,
  "nonce": "0x4267f49b3ccd7e4c",
  "difficulty": 4479239568686,
  "gasLimit": {
    "_hex": "0x2fefd8"
  },
  "gasUsed": {
    "_hex": "0x5208"
  },
  "miner": "0x70137010922f2fC2964b3792907F79FBB75fEbe8",
  "extraData": "0x476574682f76312e302e312f6c696e75782f676f312e342e32",
  "transactions": [
    {
      "hash": "0x9a0f54928285a3248374b56baabf20b3f7ef9fbd907033657d94fbe1aef35ea5",
      "blockHash": "0x002c45347128ac5df5d89d21c49e0b834f47f0f53fd6ad860af2e98340a8a1be",
      "blockNumber": 106552,
      "transactionIndex": 0,
      "confirmations": null,
      "from": "0x639Dd18733006D511Bc2f71d90Fdf1f0817CD87E",
      "gasPrice": {
        "_hex": "0xd9f60e30a"
      },
      "gasLimit": {
        "_hex": "0x5208"
      },
      "to": "0x32Be343B94f860124dC4fEe278FDCBD38C102D88",
      "value": {
        "_hex": "0x61940035d82b900000"
      },
      "nonce": 0,
      "data": "0x",
      "r": "0x5994b773067734f88567e52b478fd98418564f087fb679043b04c0d26611b50a",
      "s": "0x1768cd7144a78ef279cbdf2e86ed2938b35da0679ffbf6275682547434750660",
      "v": 27,
      "creates": null,
      "raw": "0xf86d80850d9f60e30a8252089432be343b94f860124dc4fee278fdcbd38c102d888961940035d82b900000801ba05994b773067734f88567e52b478fd98418564f087fb679043b04c0d26611b50aa01768cd7144a78ef279cbdf2e86ed2938b35da0679ffbf6275682547434750660",
      "networkId": 0,
      "chainId": 0
    }
  ]
}