{
  "hash": "0x52e0a0e7efe892076a3d4a2efe839cd1832f214f193ace15b3d883b2df412abf",
  "parentHash": "0xe9cb5b312749e6eb2502bce90f19a0550f16c8a6570b3e544e3ae82fa9f59e0d",
  "number": 84750,
  "timestamp": 1439554077,
  "nonce": "0xd3d4806682e35bb1",
  "difficulty": 2622075852094,
  "gasLimit": {
    "_hex": "0x2fefd8"
  },
  "gasUsed": {
    "_hex": "0x5208"
  },
  "miner": "0xe6A7a1d47ff21B6321162AEA7C6CB457D5476Bca",
  "extraData": "0x476574682f76312e302e312d38326566323666362f6c696e75782f676f312e34",
  "transactions": [
    {
      "hash": "0x570f62dd905c47b36085e085dc763d61f455a5d444c3fa0eca5741b31ce1b4a1",
      "blockHash": "0x52e0a0e7efe892076a3d4a2efe839cd1832f214f193ace15b3d883b2df412abf",
      "blockNumber": 84750,
      "transactionIndex": 0,
      "confirmations": null,
      "from": "0xEF247E639d49461D25F57e9362CadE3120910Ce0",
      "gasPrice": {
        "_hex": "0xd62789841"
      },
      "gasLimit": {
        "_hex": "0x15f90"
      },
      "to": "0xF87481A262E993a75F791E7859E71BaC36A606Eb",
      "value": {
        "_hex": "0xb0f11972963b00000"
      },
      "nonce": 23,
      "data": "0x",
      "r": "0xa0df1277c02b6bd413305525be4085c31eb28c43daf73b06e5d5c631dc058b5d",
      "s": "0x3c779c90c0eb3fbcfa03c2e564a7383a94046c70b2e94c6835453b2bf18f2c8e",
      "v": 27,
      "creates": null,
      "raw": "0xf86e17850d6278984183015f9094f87481a262e993a75f791e7859e71bac36a606eb890b0f11972963b00000801ba0a0df1277c02b6bd413305525be4085c31eb28c43daf73b06e5d5c631dc058b5da03c779c90c0eb3fbcfa03c2e564a7383a94046c70b2e94c6835453b2bf18f2c8e",
      "networkId": 0,
      "chainId": 0
    }
  ]
}