{
  "hash": "0x18702cae080b25084927a5f78edf17082d9a52a4cf62fdaeaede357b0511940b",
  "parentHash": "0x65570356cf71969c6566c26d31d5ea9eb5e426bf685497a6f776c79e20115556",
  "number": 121242,
  "timestamp": 1440173750,
  "nonce": "0xa993677485d66ee5",
  "difficulty": 4423626876321,
  "gasLimit": {
    "_hex": "0x2fefd8"
  },
  "gasUsed": {
    "_hex": "0x5208"
  },
  "miner": "0xe6A7a1d47ff21B6321162AEA7C6CB457D5476Bca",
  "extraData": "0xd783010002844765746887676f312e342e32856c696e7578",
  "transactions": [
    {
      "hash": "0x88acb599ef5a97e8c52e065828c043958df9e2a1569d8abcca6293aa9314777c",
      "blockHash": "0x18702cae080b25084927a5f78edf17082d9a52a4cf62fdaeaede357b0511940b",
      "blockNumber": 121242,
      "transactionIndex": 0,
      "confirmations": null,
      "from": "0x32Be343B94f860124dC4fEe278FDCBD38C102D88",
      "gasPrice": {
        "_hex": "0xba43b7400"
      },
      "gasLimit": {
        "_hex": "0x5208"
      },
      "to": "0x00D06159266de1eB4C84b5CC5297042f8563590B",
      "value": {
        "_hex": "0xde0b6b3a7640000"
      },
      "nonce": 1546,
      "data": "0x",
      "r": "0x1c9db8989dadb7fa3263a25b973272b4e7d0c8d0261fe351c1116e1daa4506ab",
      "s": "0x390da62621753952e236e308c818d128c3742104235ed80b1ab9253c79c17631",
      "v": 27,
      "creates": null,
      "raw": "0xf86e82060a850ba43b74008252089400d06159266de1eb4c84b5cc5297042f8563590b880de0b6b3a7640000801ba01c9db8989dadb7fa3263a25b973272b4e7d0c8d0261fe351c1116e1daa4506aba0390da62621753952e236e308c818d128c3742104235ed80b1ab9253c79c17631",
      "networkId": 0,
      "chainId": 0
    }
  ]
}