{
  "hash": "0x6641b4318780ab291394d15ef134464a370a118119d015d7279b70138ae2da0e",
  "parentHash": "0x905e48ee579496693707354873ed4a9ed6c080c9764c53ec8f2b2c09af997c8f",
  "number": 117920,
  "timestamp": 1440117528,
  "nonce": "0x8fe1f0e321fefb4b",
  "difficulty": 4348268877846,
  "gasLimit": {
    "_hex": "0x2fefd8"
  },
  "gasUsed": {
    "_hex": "0xa410"
  },
  "miner": "0xe6A7a1d47ff21B6321162AEA7C6CB457D5476Bca",
  "extraData": "0xd783010002844765746887676f312e342e32856c696e7578",
  "transactions": [
    {
      "hash": "0x5bc5924c494967c7d49b1f0f1071db85495ef408bd6847b04b864baea1e4dbb7",
      "blockHash": "0x6641b4318780ab291394d15ef134464a370a118119d015d7279b70138ae2da0e",
      "blockNumber": 117920,
      "transactionIndex": 0,
      "confirmations": null,
      "from": "0xc517a1ceF7630dc7FeBd59e9f7fb80F56EaCB21E",
      "gasPrice": {
        "_hex": "0xba43b7400"
      },
      "gasLimit": {
        "_hex": "0x5208"
      },
      "to": "0x32Be343B94f860124dC4fEe278FDCBD38C102D88",
      "value": {
        "_hex": "0x20e617f8cf09d0000"
      },
      "nonce": 4,
      "data": "0x",
      "r": "0xd2f9b26e4b837b150f42a850d7d41aefc6bf346e3e49a403c0eefcea69b11081",
      "s": "0x46bc77182f6baceb239e5dd29405b647fb81001feba1e0d387dc148dd2953c6a",
      "v": 28,
      "creates": null,
      "raw": "0xf86d04850ba43b74008252089432be343b94f860124dc4fee278fdcbd38c102d8889020e617f8cf09d0000801ca0d2f9b26e4b837b150f42a850d7d41aefc6bf346e3e49a403c0eefcea69b11081a046bc77182f6baceb239e5dd29405b647fb81001feba1e0d387dc148dd2953c6a",
      "networkId": 0,
      "chainId": 0
    },
    {
      "hash": "0x4b2c58518aad945782cd4582ea76ebadc7d48d77dc61b6ccfbe217a689ce61b3",
      "blockHash": "0x6641b4318780ab291394d15ef134464a370a118119d015d7279b70138ae2da0e",
      "blockNumber": 117920,
      "transactionIndex": 1,
      "confirmations": null,
      "from": "0xDdaCBcba2a4fe9313F7CCA044872A9c51bD1E4c8",
      "gasPrice": {
        "_hex": "0xba43b7400"
      },
      "gasLimit": {
        "_hex": "0x5208"
      },
      "to": "0x32Be343B94f860124dC4fEe278FDCBD38C102D88",
      "value": {
        "_hex": "0x1d0ebda698d25000"
      },
      "nonce": 7,
      "data": "0x",
      "r": "0x4efc8648411613db1787e17ec95cc26f7cc4e3313e5af633c27ba045756f62bc",
      "s": "0x43f5c143dc057bc0860400d0f68dc375b3c594e2c4bc0c3e585fef8ee353bfd3",
      "v": 28,
      "creates": null,
      "raw": "0xf86c07850ba43b74008252089432be343b94f860124dc4fee278fdcbd38c102d88881d0ebda698d25000801ca04efc8648411613db1787e17ec95cc26f7cc4e3313e5af633c27ba045756f62bca043f5c143dc057bc0860400d0f68dc375b3c594e2c4bc0c3e585fef8ee353bfd3",
      "networkId": 0,
      "chainId": 0
    }
  ]
}