{
  "hash": "0xdfe5d55df6d1d27951774beff248e2a11a56d3e371c13928459efa6e5b63ca0a",
  "parentHash": "0x490b1f68749d69ff21ba5da85661646d786409b8c050c53c9275cdfc4bf3792e",
  "number": 109191,
  "timestamp": 1439952385,
  "nonce": "0x18e239914fcb67d7",
  "difficulty": 4462551691266,
  "gasLimit": {
    "_hex": "0x2fefd5"
  },
  "gasUsed": {
    "_hex": "0x5208"
  },
  "miner": "0x6541237dAaFf6688A79f9F2F370Ca0E7Ee20BD33",
  "extraData": "0x476574682f76312e302e312f77696e646f77732f676f312e342e32",
  "transactions": [
    {
      "hash": "0xd6a3d7b5639112ea5b680489652944282e9c87665f68ec0b16b0d08dcaaee7fa",
      "blockHash": "0xdfe5d55df6d1d27951774beff248e2a11a56d3e371c13928459efa6e5b63ca0a",
      "blockNumber": 109191,
      "transactionIndex": 0,
      "confirmations": null,
      "from": "0x120A270bbC009644e35F0bB6ab13f95b8199c4ad",
      "gasPrice": {
        "_hex": "0xdc4b2223f"
      },
      "gasLimit": {
        "_hex": "0x3d090"
      },
      "to": "0xD3c6b518F1631509963232bA8e1882D3474a5838",
      "value": {
        "_hex": "0x2472a2d19c74d52c00"
      },
      "nonce": 853,
      "data": "0x",
      "r": "0x7215b012d81c5499ebcad57a2b24f4ed258a66428bd122f3f7f9270949ed0d35",
      "s": "0x22e7e2d6284edbf611d953b09afe02f456d7652869dbd399ab8157819212f0e0",
      "v": 27,
      "creates": null,
      "raw": "0xf870820355850dc4b2223f8303d09094d3c6b518f1631509963232ba8e1882d3474a5838892472a2d19c74d52c00801ba07215b012d81c5499ebcad57a2b24f4ed258a66428bd122f3f7f9270949ed0d35a022e7e2d6284edbf611d953b09afe02f456d7652869dbd399ab8157819212f0e0",
      "networkId": 0,
      "chainId": 0
    }
  ]
}