{
  "hash": "0xba64804c75595804edc84ec7f994d38bf80799c826fe3d46dffb25028f712980",
  "parentHash": "0x684930cdca7540ac2cc610fe5918835d5cfa40c40b43fcc595a6a3b98437ec8d",
  "number": 74512,
  "timestamp": 1439387212,
  "nonce": "0x3e63872bcab7dae1",
  "difficulty": 2217191828480,
  "gasLimit": {
    "_hex": "0x2fefd8"
  },
  "gasUsed": {
    "_hex": "0x5208"
  },
  "miner": "0x1049cb6C4223942Bb3Ed14e47b27c7478449deB2",
  "extraData": "0x476574682f76312e302e312f77696e646f77732f676f312e342e32",
  "transactions": [
    {
      "hash": "0x178c56b12e7313a7d2bef9994a26c9abd748eb83408cff0c40e9ebee9cd8a76a",
      "blockHash": "0xba64804c75595804edc84ec7f994d38bf80799c826fe3d46dffb25028f712980",
      "blockNumber": 74512,
      "transactionIndex": 0,
      "confirmations": null,
      "from": "0x34d34F0a638F6991e4E2536F41295DF6E934A646",
      "gasPrice": {
        "_hex": "0xe00ea4be2"
      },
      "gasLimit": {
        "_hex": "0x5208"
      },
      "to": "0x32Be343B94f860124dC4fEe278FDCBD38C102D88",
      "value": {
        "_hex": "0xf1df4fec78858000"
      },
      "nonce": 2,
      "data": "0x",
      "r": "0x0ceb7b5f13d0e7ebe5a0b92b53a0ce6527c71105605c82522d17a6bca56c4263",
      "s": "0x1d36f47efd18b06e8e71fccfbbe92addc544d2dfb4a6b639a43fb05c1acc0520",
      "v": 27,
      "creates": null,
      "raw": "0xf86c02850e00ea4be28252089432be343b94f860124dc4fee278fdcbd38c102d8888f1df4fec78858000801ba00ceb7b5f13d0e7ebe5a0b92b53a0ce6527c71105605c82522d17a6bca56c4263a01d36f47efd18b06e8e71fccfbbe92addc544d2dfb4a6b639a43fb05c1acc0520",
      "networkId": 0,
      "chainId": 0
    }
  ]
}