{
  "hash": "0x9b79dc532fa6da50e375f0926288008de7825921fbd3a0ce52313570ba06503f",
  "parentHash": "0xcba85ba80faddb5fcd82f0c5b92a012a59507ee7bf5f46236eeb8759e3f22a1e",
  "number": 79867,
  "timestamp": 1439476394,
  "nonce": "0x3d3959149b49f2e5",
  "difficulty": 2350634103696,
  "gasLimit": {
    "_hex": "0x2fefd8"
  },
  "gasUsed": {
    "_hex": "0x5208"
  },
  "miner": "0xe6A7a1d47ff21B6321162AEA7C6CB457D5476Bca",
  "extraData": "0x476574682f76312e302e312d38326566323666362f6c696e75782f676f312e34",
  "transactions": [
    {
      "hash": "0xa2b687a5cf03bb5f9c5361f33a6253aa0d30806969a688b921ba9e3987101dc1",
      "blockHash": "0x9b79dc532fa6da50e375f0926288008de7825921fbd3a0ce52313570ba06503f",
      "blockNumber": 79867,
      "transactionIndex": 0,
      "confirmations": null,
      "from": "0x87898CE53471043FcCa0a2aF4E1dC6d8B3fCf607",
      "gasPrice": {
        "_hex": "0xd9b5cfcae"
      },
      "gasLimit": {
        "_hex": "0x5208"
      },
      "to": "0x4990F9029FdD9cB4fEF66177A569d272DBFfe147",
      "value": {
        "_hex": "0x4563918244f40000"
      },
      "nonce": 29,
      "data": "0x",
      "r": "0x3078a51375dcd90b9b9500ee24f5c19ecdfa7a0dac15c5d35c697b45d36b076b",
      "s": "0x0211c30d1ef93e8f269cd5d711ccc900256797b75aa8b1fda90e9955a1e0ed5b",
      "v": 27,
      "creates": null,
      "raw": "0xf86c1d850d9b5cfcae825208944990f9029fdd9cb4fef66177a569d272dbffe147884563918244f40000801ba03078a51375dcd90b9b9500ee24f5c19ecdfa7a0dac15c5d35c697b45d36b076ba00211c30d1ef93e8f269cd5d711ccc900256797b75aa8b1fda90e9955a1e0ed5b",
      "networkId": 0,
      "chainId": 0
    }
  ]
}