{
  "hash": "0x73242d4924caa0fd5631e7118b78e2a1b28cb6b40f715e264884bbada5c2d56e",
  "parentHash": "0xb87d269a506700e1d9f0f286244f634fecca91910d3f84bc43c56c638636c535",
  "number": 48263,
  "timestamp": 1438954353,
  "nonce": "0xb3fc1a7beb113d1f",
  "difficulty": 1456491848650,
  "gasLimit": {
    "_hex": "0x1497c"
  },
  "gasUsed": {
    "_hex": "0x5208"
  },
  "miner": "0x53824166ea5271d3425e3194c848A90CA4e97eB2",
  "extraData": "0x476574682f76312e302e312f6c696e75782f676f312e342e32",
  "transactions": [
    {
      "hash": "0x381abfb6b54041b415fe85e567370d80d9c4e2ba77887389e9f9c7b7188acf5d",
      "blockHash": "0x73242d4924caa0fd5631e7118b78e2a1b28cb6b40f715e264884bbada5c2d56e",
      "blockNumber": 48263,
      "transactionIndex": 0,
      "confirmations": null,
      "from": "0x91DBB6AaAD149585BE47375c5d6de5Ff09191518",
      "gasPrice": {
        "_hex": "0xdf8475800"
      },
      "gasLimit": {
        "_hex": "0x5208"
      },
      "to": "0xb9d7E8800321493C3D062CFd8b6Da4B7fDB527AF",
      "value": {
        "_hex": "0x10f0cf064dd59200000"
      },
      "nonce": 8,
      "data": "0x",
      "r": "0x9abdd3a53768b74c61f298274228ceed40411c67ca732e8e38212f198a10d402",
      "s": "0x6e39e12a0aad8815ecd4c465955c59011b3e1ef62ef3a1b2d9d64b6158837f82",
      "v": 28,
      "creates": null,
      "raw": "0xf86e08850df847580082520894b9d7e8800321493c3d062cfd8b6da4b7fdb527af8a010f0cf064dd59200000801ca09abdd3a53768b74c61f298274228ceed40411c67ca732e8e38212f198a10d402a06e39e12a0aad8815ecd4c465955c59011b3e1ef62ef3a1b2d9d64b6158837f82",
      "networkId": 0,
      "chainId": 0
    }
  ]
}