{
  "hash": "0xc3b5aade01b9dec3a63761bd50d004046d8e232129710b116362449e00a44e81",
  "parentHash": "0xf3191fc02c3dab1b2fe4cef5b81284db0f24dee455a112299f9e1e59fe0c80a6",
  "number": 65324,
  "timestamp": 1439234912,
  "nonce": "0xa3e1bb6e4b9fd21f",
  "difficulty": 1947365362320,
  "gasLimit": {
    "_hex": "0x2fefd8"
  },
  "gasUsed": {
    "_hex": "0xa410"
  },
  "miner": "0xbb7B8287f3F0a933474a79eAe42CBCa977791171",
  "extraData": "0x476574682f4c5649562f76312e302e312f6c696e75782f676f312e342e32",
  "transactions": [
    {
      "hash": "0xb30849991a0299f29134781fa064e2cafc7a1953e627424db6e6514078f0c655",
      "blockHash": "0xc3b5aade01b9dec3a63761bd50d004046d8e232129710b116362449e00a44e81",
      "blockNumber": 65324,
      "transactionIndex": 0,
      "confirmations": null,
      "from": "0x8F5eDb9c7fDB230c0294D4a418e3e4AaD848110e",
      "gasPrice": {
        "_hex": "0xba43b7400"
      },
      "gasLimit": {
        "_hex": "0x5208"
      },
      "to": "0xdbC1008aD5B21359f6A91ab076c86a3a2319f2B2",
      "value": {
        "_hex": "0x8fb43258c084000"
      },
      "nonce": 1,
      "data": "0x",
      "r": "0x13580d77ded43af37e177ac27bd2c09ed2dedc91ab0a8b194e8765a2fe3e8993",
      "s": "0x5b095d2ace7514d0544b2089106ecf2bdb313acfb12c106e4daeb54f1ea6ef56",
      "v": 27,
      "creates": null,
      "raw": "0xf86c01850ba43b740082520894dbc1008ad5b21359f6a91ab076c86a3a2319f2b28808fb43258c084000801ba013580d77ded43af37e177ac27bd2c09ed2dedc91ab0a8b194e8765a2fe3e8993a05b095d2ace7514d0544b2089106ecf2bdb313acfb12c106e4daeb54f1ea6ef56",
      "networkId": 0,
      "chainId": 0
    },
    {
      "hash": "0x2cd4e73eb54da4d727b606f54f668051613bc2808a243d106197338ef195d8fc",
      "blockHash": "0xc3b5aade01b9dec3a63761bd50d004046d8e232129710b116362449e00a44e81",
      "blockNumber": 65324,
      "transactionIndex": 1,
      "confirmations": null,
      "from": "0xC2a9a8a6CE3Ee563EEa4C09dB777Bbb13EE00c29",
      "gasPrice": {
        "_hex": "0xba43b7400"
      },
      "gasLimit": {
        "_hex": "0x5208"
      },
      "to": "0x19d704C642488608C0F3320daE052b28D543A581",
      "value": {
        "_hex": "0x88793454c361000"
      },
      "nonce": 1,
      "data": "0x",
      "r": "0x446753c115821c510748e5fb3cc8569e279754f34d9816c06e7b08b6a309e7f5",
      "s": "0x2d1bd94fa81414e1858c28c571691072519670b26a7a4612676ed186b812374a",
      "v": 28,
      "creates": null,
      "raw": "0xf86c01850ba43b74008252089419d704c642488608c0f3320dae052b28d543a58188088793454c361000801ca0446753c115821c510748e5fb3cc8569e279754f34d9816c06e7b08b6a309e7f5a02d1bd94fa81414e1858c28c571691072519670b26a7a4612676ed186b812374a",
      "networkId": 0,
      "chainId": 0
    }
  ]
}