{
  "hash": "0xe2a05383ebbd9ed3cf79c29ed1b2dc5f03934742b27efb306c13a026da8f148c",
  "parentHash": "0x02ab7d84ded6312ae33d7f8ad5f33efa6f0e075c47023682a753e77481808555",
  "number": 110343,
  "timestamp": 1439972127,
  "nonce": "0xe5ff00cacc67c7fb",
  "difficulty": 4367099351215,
  "gasLimit": {
    "_hex": "0x2fefd8"
  },
  "gasUsed": {
    "_hex": "0xf618"
  },
  "miner": "0x8B454d830feF179e66206840F8F3D1d83bC32b17",
  "extraData": "0x476574682f76312e302e312f77696e646f77732f676f312e342e32",
  "transactions": [
    {
      "hash": "0x95cdfd4d8c7ea7027f82c1f19d7f7b1d6d092b1eef63782b3604846a99f001ec",
      "blockHash": "0xe2a05383ebbd9ed3cf79c29ed1b2dc5f03934742b27efb306c13a026da8f148c",
      "blockNumber": 110343,
      "transactionIndex": 0,
      "confirmations": null,
      "from": "0xe6A7a1d47ff21B6321162AEA7C6CB457D5476Bca",
      "gasPrice": {
        "_hex": "0xde72098bc"
      },
      "gasLimit": {
        "_hex": "0x55f0"
      },
      "to": "0xA5a5181868a8Df772f87DC95aB9B366e974Da936",
      "value": {
        "_hex": "0x6f6a7d2c23341010"
      },
      "nonce": 4364,
      "data": "0x",
      "r": "0xe22224a26c3948985ea840a54e1ad458f436ec034bec415e52fe1b215bef75c7",
      "s": "0x39928b542344d54818d344f2525a8594b0e80e452b446d19539d4d715220555b",
      "v": 28,
      "creates": null,
      "raw": "0xf86e82110c850de72098bc8255f094a5a5181868a8df772f87dc95ab9b366e974da936886f6a7d2c23341010801ca0e22224a26c3948985ea840a54e1ad458f436ec034bec415e52fe1b215bef75c7a039928b542344d54818d344f2525a8594b0e80e452b446d19539d4d715220555b",
      "networkId": 0,
      "chainId": 0
    },
    {
      "hash": "0x1697379ff44b934b607033c96ac58d1d8cd701d97c27eecb3d66caf35efe0108",
      "blockHash": "0xe2a05383ebbd9ed3cf79c29ed1b2dc5f03934742b27efb306c13a026da8f148c",
      "blockNumber": 110343,
      "transactionIndex": 1,
      "confirmations": null,
      "from": "0xe6A7a1d47ff21B6321162AEA7C6CB457D5476Bca",
      "gasPrice": {
        "_hex": "0xde72098bc"
      },
      "gasLimit": {
        "_hex": "0x55f0"
      },
      "to": "0x90891a4dAE53428129E5E2044f4677213EcCBB59",
      "value": {
        "_hex": "0x7111d9d428443de8"
      },
      "nonce": 4365,
      "data": "0x",
      "r": "0x5db273432be10a2fa666a327070dd8bf2fa5852624c02dd65b1d474b3a5a80e6",
      "s": "0x05855b81b88b76546a8675a48521510f771a0563f5e8585e6e3d5f9df832acd8",
      "v": 28,
      "creates": null,
      "raw": "0xf86e82110d850de72098bc8255f09490891a4dae53428129e5e2044f4677213eccbb59887111d9d428443de8801ca05db273432be10a2fa666a327070dd8bf2fa5852624c02dd65b1d474b3a5a80e6a005855b81b88b76546a8675a48521510f771a0563f5e8585e6e3d5f9df832acd8",
      "networkId": 0,
      "chainId": 0
    },
    {
      "hash": "0x990bcf73a03b1739303e434fa41a11bacb33b1e73dac78e6eb744deb7aa56ff1",
      "blockHash": "0xe2a05383ebbd9ed3cf79c29ed1b2dc5f03934742b27efb306c13a026da8f148c",
      "blockNumber": 110343,
      "transactionIndex": 2,
      "confirmations": null,
      "from": "0x39A7Fe8E3263559BE0A179EdbAe7dD2F61E3bC45",
      "gasPrice": {
        "_hex": "0xd92cc2847"
      },
      "gasLimit": {
        "_hex": "0x5208"
      },
      "to": "0x32Be343B94f860124dC4fEe278FDCBD38C102D88",
      "value": {
        "_hex": "0xfed27fb393e4000"
      },
      "nonce": 1,
      "data": "0x",
      "r": "0xc9ab5ad010fd96891fffeec4d7d32231cf0e27c25220f16e07c14ca2870fa066",
      "s": "0x7bed479ff72dcd23afe2fbfe9e6f19d87130cb969f4665544780ad97f889259b",
      "v": 28,
      "creates": null,
      "raw": "0xf86c01850d92cc28478252089432be343b94f860124dc4fee278fdcbd38c102d88880fed27fb393e4000801ca0c9ab5ad010fd96891fffeec4d7d32231cf0e27c25220f16e07c14ca2870fa066a07bed479ff72dcd23afe2fbfe9e6f19d87130cb969f4665544780ad97f889259b",
      "networkId": 0,
      "chainId": 0
    }
  ]
}