{
  "hash": "0x0772c26e5c45619518fa3861f4d235836ff7bee666d7e69cf6f514df14095c4b",
  "parentHash": "0x8213c456080c377e4b0c38dbd52d35496469a8a582e20d9df4714444525a6b5b",
  "number": 105442,
  "timestamp": 1439887730,
  "nonce": "0xbec9d547d3161495",
  "difficulty": 4388896378581,
  "gasLimit": {
    "_hex": "0x2fefd8"
  },
  "gasUsed": {
    "_hex": "0xa410"
  },
  "miner": "0xe6A7a1d47ff21B6321162AEA7C6CB457D5476Bca",
  "extraData": "0x476574682f76312e302e312d38326566323666362f6c696e75782f676f312e34",
  "transactions": [
    {
      "hash": "0x51b24ecf1bfb65472c2424e6158a13aa735713c0b7e916e8d4ae97c4521eb06a",
      "blockHash": "0x0772c26e5c45619518fa3861f4d235836ff7bee666d7e69cf6f514df14095c4b",
      "blockNumber": 105442,
      "transactionIndex": 0,
      "confirmations": null,
      "from": "0xA971748c4C493bC96C7d490E1789481e1E96bB10",
      "gasPrice": {
        "_hex": "0xe04707136"
      },
      "gasLimit": {
        "_hex": "0x5208"
      },
      "to": "0x32Be343B94f860124dC4fEe278FDCBD38C102D88",
      "value": {
        "_hex": "0x15516b8937beea000"
      },
      "nonce": 4,
      "data": "0x",
      "r": "0x229366064aedcf5a82d730c1dd0770e6b3f713772396f02f7d810acffd4ad07b",
      "s": "0x49d4d90116b82ad6e6e8c3d911c1ea2b7962a6ae7e811396ddedc7fdd09bdc45",
      "v": 27,
      "creates": null,
      "raw": "0xf86d04850e047071368252089432be343b94f860124dc4fee278fdcbd38c102d8889015516b8937beea000801ba0229366064aedcf5a82d730c1dd0770e6b3f713772396f02f7d810acffd4ad07ba049d4d90116b82ad6e6e8c3d911c1ea2b7962a6ae7e811396ddedc7fdd09bdc45",
      "networkId": 0,
      "chainId": 0
    },
    {
      "hash": "0x2562eac08ea20daee450ea52f70d993374c6efc1982009132630530a78b687d3",
      "blockHash": "0x0772c26e5c45619518fa3861f4d235836ff7bee666d7e69cf6f514df14095c4b",
      "blockNumber": 105442,
      "transactionIndex": 1,
      "confirmations": null,
      "from": "0x806C4e20CC913d7b70f5b7e24C6Ba15B16c56a5C",
      "gasPrice": {
        "_hex": "0xe04707136"
      },
      "gasLimit": {
        "_hex": "0x5208"
      },
      "to": "0x32Be343B94f860124dC4fEe278FDCBD38C102D88",
      "value": {
        "_hex": "0xa6c359e27a108800"
      },
      "nonce": 3,
      "data": "0x",
      "r": "0x47fb5f64fbfb986b2da93bce100013446cd412e53a32f0c6e54d186baac1ca62",
      "s": "0x5e0565febf3c868927920e8dfc99f5f31e3299082a6e820e7cd80f2c243a868c",
      "v": 28,
      "creates": null,
      "raw": "0xf86c03850e047071368252089432be343b94f860124dc4fee278fdcbd38c102d8888a6c359e27a108800801ca047fb5f64fbfb986b2da93bce100013446cd412e53a32f0c6e54d186baac1ca62a05e0565febf3c868927920e8dfc99f5f31e3299082a6e820e7cd80f2c243a868c",
      "networkId": 0,
      "chainId": 0
    }
  ]
}