{
  "hash": "0x89b09d1c6e43e7bb852453625bc2065e25dd75bbd8b6d8e36cc3fdf03106f41f",
  "parentHash": "0x7bee660baf0f12be60319a823c235b66314b51bb90f83fa75099ad385365b6dc",
  "number": 72248,
  "timestamp": 1439349775,
  "nonce": "0x3fd909ca9c25ae51",
  "difficulty": 2170650660616,
  "gasLimit": {
    "_hex": "0x2fefd8"
  },
  "gasUsed": {
    "_hex": "0x93b2"
  },
  "miner": "0x88D74a59454F6cF3B51ef6b9136AFb6b9D405A88",
  "extraData": "0x476574682f76312e302e312d37666266393930632f6c696e75782f676f312e34",
  "transactions": [
    {
      "hash": "0x16c57ab5c6cf2acac1269f1806999181d388f3ab66867100fa7a8d9e2a37ba40",
      "blockHash": "0x89b09d1c6e43e7bb852453625bc2065e25dd75bbd8b6d8e36cc3fdf03106f41f",
      "blockNumber": 72248,
      "transactionIndex": 0,
      "confirmations": null,
      "from": "0x17580B766f7453525ca4C6A88b01b50570EA088C",
      "gasPrice": {
        "_hex": "0xcd3261a64"
      },
      "gasLimit": {
        "_hex": "0x61a80"
      },
      "to": "0x5Fe5B7546D1628f7348B023A0393de1FC825A4fD",
      "value": {
        "_hex": "0x8ac7230489e80000"
      },
      "nonce": 414,
      "data": "0xb595b8b50000000000000000000000000000000000000000000000000000000000000000",
      "r": "0x9361199196654f53e113c0d361677a8f36d00bb333134a3976c9eeea00409296",
      "s": "0x6cd236d28f005f727d13c7ab83c0618e2d74f4455180fc24fb6ee4c3bc9086d7",
      "v": 27,
      "creates": null,
      "raw": "0xf89382019e850cd3261a6483061a80945fe5b7546d1628f7348b023a0393de1fc825a4fd888ac7230489e80000a4b595b8b500000000000000000000000000000000000000000000000000000000000000001ba09361199196654f53e113c0d361677a8f36d00bb333134a3976c9eeea00409296a06cd236d28f005f727d13c7ab83c0618e2d74f4455180fc24fb6ee4c3bc9086d7",
      "networkId": 0,
      "chainId": 0
    }
  ]
}