{
  "hash": "0xad0d7db9723a917dd47d7ed4c2f9c31e13c3bb416cbab209d419d5cedb84a3b3",
  "parentHash": "0x2bf3422eb8492bed92d685d13cb3e85a63640135fb709ba441a16ba95bafafce",
  "number": 60432,
  "timestamp": 1439155603,
  "nonce": "0xbc6fdf356f271765",
  "difficulty": 1736421090711,
  "gasLimit": {
    "_hex": "0x2fefd8"
  },
  "gasUsed": {
    "_hex": "0x546c"
  },
  "miner": "0xbb7B8287f3F0a933474a79eAe42CBCa977791171",
  "extraData": "0x476574682f4c5649562f76312e302e312f6c696e75782f676f312e342e32",
  "transactions": [
    {
      "hash": "0x44d375bbea5c0932997a715fd4c52dc451334d7ea6f2c80dd2f5a3523ce331e4",
      "blockHash": "0xad0d7db9723a917dd47d7ed4c2f9c31e13c3bb416cbab209d419d5cedb84a3b3",
      "blockNumber": 60432,
      "transactionIndex": 0,
      "confirmations": null,
      "from": "0x35b03eA4245736F57b85d2EB79628F036ddcd705",
      "gasPrice": {
        "_hex": "0x110c8f7d8de"
      },
      "gasLimit": {
        "_hex": "0xc350"
      },
      "to": "0x2910543Af39abA0Cd09dBb2D50200b3E800A63D2",
      "value": {
        "_hex": "0x6c6a3016135fb60000"
      },
      "nonce": 1,
      "data": "0x454e325646574a3538",
      "r": "0x882153d5693efb7031d415c63a2936af4e5600f4a4ce821c583846085d85be00",
      "s": "0x706f6c78fbd6e61708e8fdb4b9dc90469aed08b9f36f005b12f37750dd5b8a31",
      "v": 28,
      "creates": null,
      "raw": "0xf87701860110c8f7d8de82c350942910543af39aba0cd09dbb2d50200b3e800a63d2896c6a3016135fb6000089454e325646574a35381ca0882153d5693efb7031d415c63a2936af4e5600f4a4ce821c583846085d85be00a0706f6c78fbd6e61708e8fdb4b9dc90469aed08b9f36f005b12f37750dd5b8a31",
      "networkId": 0,
      "chainId": 0
    }
  ]
}