{
  "hash": "0x5500cc13d2a8242ff1f7fcc71f32a179a4eca6c4df5737c28765fcad6ae24ef9",
  "parentHash": "0x8f16c6f29a3631593b6fb2c62e9e87111618074870c30d1ec7fadfa61468a51c",
  "number": 102141,
  "timestamp": 1439833458,
  "nonce": "0xd16a91780743fd87",
  "difficulty": 3907008856897,
  "gasLimit": {
    "_hex": "0x2fefd8"
  },
  "gasUsed": {
    "_hex": "0x5208"
  },
  "miner": "0xe6A7a1d47ff21B6321162AEA7C6CB457D5476Bca",
  "extraData": "0x476574682f76312e302e312d38326566323666362f6c696e75782f676f312e34",
  "transactions": [
    {
      "hash": "0x2bbd4fca45cf341044950900f5c85478559f2c3330d0ab61a9642a9c7270e123",
      "blockHash": "0x5500cc13d2a8242ff1f7fcc71f32a179a4eca6c4df5737c28765fcad6ae24ef9",
      "blockNumber": 102141,
      "transactionIndex": 0,
      "confirmations": null,
      "from": "0x0dd48f729D5084545452A08F5E5AB412d7c2888a",
      "gasPrice": {
        "_hex": "0xcaec876cb"
      },
      "gasLimit": {
        "_hex": "0x15f90"
      },
      "to": "0x2533B90f7afF15196EaA7e4719E057c85dEF3A47",
      "value": {
        "_hex": "0x2b5e3af16b1880000"
      },
      "nonce": 2,
      "data": "0x",
      "r": "0xe0a401b32b07eb2b81f3456344c054acd970789290a750df1184808c0edf452f",
      "s": "0x62a4f96bf2b57aee8217e0b49414c164a39a045423fa1ac846e2eb7d1d514e1e",
      "v": 28,
      "creates": null,
      "raw": "0xf86e02850caec876cb83015f90942533b90f7aff15196eaa7e4719e057c85def3a478902b5e3af16b1880000801ca0e0a401b32b07eb2b81f3456344c054acd970789290a750df1184808c0edf452fa062a4f96bf2b57aee8217e0b49414c164a39a045423fa1ac846e2eb7d1d514e1e",
      "networkId": 0,
      "chainId": 0
    }
  ]
}