{
  "hash": "0x8f08dbcc7dd633384c9d0b283d5eb298aeb7d2078c236abeb6d5748c487ed823",
  "parentHash": "0x7b7acb33511f8752f84f37e66933c7ec1a14612050d8307a53974f6077962910",
  "number": 86579,
  "timestamp": 1439580119,
  "nonce": "0x955f83fe05804849",
  "difficulty": 2903157882469,
  "gasLimit": {
    "_hex": "0x2fefd8"
  },
  "gasUsed": {
    "_hex": "0x5208"
  },
  "miner": "0xe6A7a1d47ff21B6321162AEA7C6CB457D5476Bca",
  "extraData": "0x476574682f76312e302e312d38326566323666362f6c696e75782f676f312e34",
  "transactions": [
    {
      "hash": "0x7937231f2780b8147d22f617086287a4cc330ae29282c361a2d3f41ebe8536c4",
      "blockHash": "0x8f08dbcc7dd633384c9d0b283d5eb298aeb7d2078c236abeb6d5748c487ed823",
      "blockNumber": 86579,
      "transactionIndex": 0,
      "confirmations": null,
      "from": "0xe55bf6FC31c358dcC01D394e6adDde47d3548635",
      "gasPrice": {
        "_hex": "0xd19c94512"
      },
      "gasLimit": {
        "_hex": "0x5208"
      },
      "to": "0x32Be343B94f860124dC4fEe278FDCBD38C102D88",
      "value": {
        "_hex": "0x1a0512c63ca5c1000"
      },
      "nonce": 0,
      "data": "0x",
      "r": "0x4593f51121bbf33bb35cb4d0d31f79cba1398339cb4c54c02800c674c4caba4a",
      "s": "0x585acf236d3ac7489d0750fdf0c9ba0fc64d7858ebf426581c2520a39b2db002",
      "v": 28,
      "creates": null,
      "raw": "0xf86d80850d19c945128252089432be343b94f860124dc4fee278fdcbd38c102d888901a0512c63ca5c1000801ca04593f51121bbf33bb35cb4d0d31f79cba1398339cb4c54c02800c674c4caba4aa0585acf236d3ac7489d0750fdf0c9ba0fc64d7858ebf426581c2520a39b2db002",
      "networkId": 0,
      "chainId": 0
    }
  ]
}