{
  "hash": "0xe249a621ef9ce600e20388c3c0e4d1f66aedffc3c4d04b3351d4a7d8ed1340ac",
  "parentHash": "0x438166bf62dc09266d7939a2cc93d81b95bf8af507c4278f6ca0615428002799",
  "number": 79981,
  "timestamp": 1439478355,
  "nonce": "0xdd38aa129fb6a86b",
  "difficulty": 2339152584430,
  "gasLimit": {
    "_hex": "0x2fefd8"
  },
  "gasUsed": {
    "_hex": "0x5208"
  },
  "miner": "0x88D74a59454F6cF3B51ef6b9136AFb6b9D405A88",
  "extraData": "0x476574682f76312e302e312d37666266393930632f6c696e75782f676f312e34",
  "transactions": [
    {
      "hash": "0x9063c8593df0aa3d52c7aded15e7de30dabfbcde56b5c8da482af55b62b2d0d5",
      "blockHash": "0xe249a621ef9ce600e20388c3c0e4d1f66aedffc3c4d04b3351d4a7d8ed1340ac",
      "blockNumber": 79981,
      "transactionIndex": 0,
      "confirmations": null,
      "from": "0x7D45E10A0d63eCCA0694a7cbfF030f4dD87DA0dC",
      "gasPrice": {
        "_hex": "0xcf36f79a4"
      },
      "gasLimit": {
        "_hex": "0x15f90"
      },
      "to": "0x6d921977dEFE5f4e0682CA512De1D07b1f4802E1",
      "value": {
        "_hex": "0x8ac7230489e80000"
      },
      "nonce": 4,
      "data": "0x",
      "r": "0xccfcc03c0674f7b05fbd1ec211e9a9519816f17a8cbb7881cf59ac0f03c116e8",
      "s": "0x58d321f6cab660e184bf304f4471441da0f1e72eb30d97dc38e8524fa2fde70f",
      "v": 27,
      "creates": null,
      "raw": "0xf86d04850cf36f79a483015f90946d921977defe5f4e0682ca512de1d07b1f4802e1888ac7230489e80000801ba0ccfcc03c0674f7b05fbd1ec211e9a9519816f17a8cbb7881cf59ac0f03c116e8a058d321f6cab660e184bf304f4471441da0f1e72eb30d97dc38e8524fa2fde70f",
      "networkId": 0,
      "chainId": 0
    }
  ]
}