{
  "hash": "0xb94cfaab8931e613d3deffb61f5642b7105b6dcd7f5e07ebd69d8cb4b225def3",
  "parentHash": "0xc038f9ef51323773e3ecdb8bc0ed43662cc99cf42a5a5ef3ad44328c50103212",
  "number": 89941,
  "timestamp": 1439631499,
  "nonce": "0x4cf66608ef9c2a79",
  "difficulty": 3343438811335,
  "gasLimit": {
    "_hex": "0x2fefd8"
  },
  "gasUsed": {
    "_hex": "0x5208"
  },
  "miner": "0xe6A7a1d47ff21B6321162AEA7C6CB457D5476Bca",
  "extraData": "0x476574682f76312e302e312d38326566323666362f6c696e75782f676f312e34",
  "transactions": [
    {
      "hash": "0xab60cf66168b8e2fca34239f662ea6a7368f7ec3892edb666de6ff70088d6e42",
      "blockHash": "0xb94cfaab8931e613d3deffb61f5642b7105b6dcd7f5e07ebd69d8cb4b225def3",
      "blockNumber": 89941,
      "transactionIndex": 0,
      "confirmations": null,
      "from": "0x1Dc9BaE77DBE79A2EFD8E2Bae6EAB9ba29fD8EB2",
      "gasPrice": {
        "_hex": "0xcfd7a332f"
      },
      "gasLimit": {
        "_hex": "0x5208"
      },
      "to": "0x32Be343B94f860124dC4fEe278FDCBD38C102D88",
      "value": {
        "_hex": "0xad78a92c1141f0000"
      },
      "nonce": 2,
      "data": "0x",
      "r": "0x1eab708545d022dc27f0745aefe44da6b6ab6a684d008778163a9369252cccec",
      "s": "0x3b400a0df0c4edea01725aae074153a2d432c70acbb990c0897b96ab27b5e053",
      "v": 28,
      "creates": null,
      "raw": "0xf86d02850cfd7a332f8252089432be343b94f860124dc4fee278fdcbd38c102d88890ad78a92c1141f0000801ca01eab708545d022dc27f0745aefe44da6b6ab6a684d008778163a9369252ccceca03b400a0df0c4edea01725aae074153a2d432c70acbb990c0897b96ab27b5e053",
      "networkId": 0,
      "chainId": 0
    }
  ]
}