{
  "hash": "0x085132ecae01cb2bf3c2d4856836ab4e26319249cc3cbe832beb883f133098f3",
  "parentHash": "0xe66c10afa0f2ba50e10d91b305a9fcc3e5d5a1adeb196d2d574b568884b378bd",
  "number": 104438,
  "timestamp": 1439869770,
  "nonce": "0x81a83da692bfad21",
  "difficulty": 4342522058819,
  "gasLimit": {
    "_hex": "0x2fefd8"
  },
  "gasUsed": {
    "_hex": "0xa410"
  },
  "miner": "0x790b8a3cE86E707ED0eD32bF89B3269692a23CC1",
  "extraData": "0xd783010001844765746887676f312e342e32856c696e7578",
  "transactions": [
    {
      "hash": "0xc53863f53c6b1282178a5300404fb1d0ab66ee0b227341c8391201c0196886d2",
      "blockHash": "0x085132ecae01cb2bf3c2d4856836ab4e26319249cc3cbe832beb883f133098f3",
      "blockNumber": 104438,
      "transactionIndex": 0,
      "confirmations": null,
      "from": "0xa6BDc31c431B8F97848c9D60cbbe9660dc450eB7",
      "gasPrice": {
        "_hex": "0xdaefdcbe1"
      },
      "gasLimit": {
        "_hex": "0x5208"
      },
      "to": "0x32Be343B94f860124dC4fEe278FDCBD38C102D88",
      "value": {
        "_hex": "0x455f2f075876d800"
      },
      "nonce": 170,
      "data": "0x",
      "r": "0x156bf789043eda0181c67140321a10ebaba3f6dd67085c3fbf0fdec4a287ba27",
      "s": "0x574c6fa9832d681266de896368d0c5b53e2be23cc252795b88602b5b274a8670",
      "v": 27,
      "creates": null,
      "raw": "0xf86d81aa850daefdcbe18252089432be343b94f860124dc4fee278fdcbd38c102d8888455f2f075876d800801ba0156bf789043eda0181c67140321a10ebaba3f6dd67085c3fbf0fdec4a287ba27a0574c6fa9832d681266de896368d0c5b53e2be23cc252795b88602b5b274a8670",
      "networkId": 0,
      "chainId": 0
    },
    {
      "hash": "0xfd588bfcb219e3347e6e9acea7a1c196669a43c2d49fb2567215d281f5aa7dbf",
      "blockHash": "0x085132ecae01cb2bf3c2d4856836ab4e26319249cc3cbe832beb883f133098f3",
      "blockNumber": 104438,
      "transactionIndex": 1,
      "confirmations": null,
      "from": "0xa70a9a7040d542C632D8e0bE7c5513A8a5Bbc752",
      "gasPrice": {
        "_hex": "0xdaefdcbe1"
      },
      "gasLimit": {
        "_hex": "0x5208"
      },
      "to": "0x32Be343B94f860124dC4fEe278FDCBD38C102D88",
      "value": {
        "_hex": "0x455f2f075876d800"
      },
      "nonce": 233,
      "data": "0x",
      "r": "0x2f71d3bd97786f92099a5e10e5622fc29dd8ddfee491fbb58e942b145bfa8474",
      "s": "0x214f143aefa8f68aafff376883ab10165989550da2fbc22207cb5fe6d4f62637",
      "v": 28,
      "creates": null,
      "raw": "0xf86d81e9850daefdcbe18252089432be343b94f860124dc4fee278fdcbd38c102d8888455f2f075876d800801ca02f71d3bd97786f92099a5e10e5622fc29dd8ddfee491fbb58e942b145bfa8474a0214f143aefa8f68aafff376883ab10165989550da2fbc22207cb5fe6d4f62637",
      "networkId": 0,
      "chainId": 0
    }
  ]
}