{
  "hash": "0xa91a17f1305ce15754f362b3fd1cd70264b2c805db09e284a6fe9d8d5e9847a0",
  "parentHash": "0x5f26e4d9da21f096c765ceb2f46aa7c7b9396b0788c580841987c0b3ef9270eb",
  "number": 78257,
  "timestamp": 1439451087,
  "nonce": "0x6262e9576efc85c9",
  "difficulty": 2278750001418,
  "gasLimit": {
    "_hex": "0x2fefd8"
  },
  "gasUsed": {
    "_hex": "0x7a61"
  },
  "miner": "0x0037ce3d4B7f8729C8607D8D0248252Be68202c0",
  "extraData": "0x476574682f76312e302e312f77696e646f77732f676f312e342e32",
  "transactions": [
    {
      "hash": "0xe31a41295fcf318ca7b3302476bab4bf92e4a758c77b302aff6edd3c8701a76e",
      "blockHash": "0xa91a17f1305ce15754f362b3fd1cd70264b2c805db09e284a6fe9d8d5e9847a0",
      "blockNumber": 78257,
      "transactionIndex": 0,
      "confirmations": null,
      "from": "0x008FC7CBAdFFbD0D7fe44F8DFD60a79d721a1c9C",
      "gasPrice": {
        "_hex": "0xd7b005f58"
      },
      "gasLimit": {
        "_hex": "0x30d40"
      },
      "to": "0x9611d9Df6A56E3708F2093f08095F33922b59c4A",
      "value": {
        "_hex": "0xe8d4a51000"
      },
      "nonce": 22,
      "data": "0x",
      "r": "0xab98005a9179b609cc860af5439c3a3ad342a8a5c3b53b630c160dfa8eb3e733",
      "s": "0x614dbd4cb3d5657a107e807845d7859f8f45763ad97be1b594d36c7d23c68f73",
      "v": 27,
      "creates": null,
      "raw": "0xf86a16850d7b005f5883030d40949611d9df6a56e3708f2093f08095f33922b59c4a85e8d4a51000801ba0ab98005a9179b609cc860af5439c3a3ad342a8a5c3b53b630c160dfa8eb3e733a0614dbd4cb3d5657a107e807845d7859f8f45763ad97be1b594d36c7d23c68f73",
      "networkId": 0,
      "chainId": 0
    }
  ]
}