{
  "hash": "0x9dd6f4954473843a98259e9b72bb7858ea2aee0dab0e7cce6c6ebfb6969da0da",
  "parentHash": "0x6b40a220ef602ad30c4849e636a53eb6e81fe166b52b95a173261884e7fe1d20",
  "number": 113505,
  "timestamp": 1440024833,
  "nonce": "0xa4b05e0361bbde74",
  "difficulty": 4442868432796,
  "gasLimit": {
    "_hex": "0x2fefd8"
  },
  "gasUsed": {
    "_hex": "0x5208"
  },
  "miner": "0x7eD2359220bC2A40b70C40350EcAb732B39c0eF4",
  "extraData": "0x",
  "transactions": [
    {
      "hash": "0x4db9e176878ae83160f3dd5f6535bce2e9e3e06119144aa764218d41e65d2cf4",
      "blockHash": "0x9dd6f4954473843a98259e9b72bb7858ea2aee0dab0e7cce6c6ebfb6969da0da",
      "blockNumber": 113505,
      "transactionIndex": 0,
      "confirmations": null,
      "from": "0x4D67f4F0Db45b3B5a3424B39ed8d972F710381D5",
      "gasPrice": {
        "_hex": "0xd47998c45"
      },
      "gasLimit": {
        "_hex": "0x5208"
      },
      "to": "0x32Be343B94f860124dC4fEe278FDCBD38C102D88",
      "value": {
        "_hex": "0x2f9dfcedf0960c000"
      },
      "nonce": 41,
      "data": "0x",
      "r": "0xb18c60871c41dcd077904d24b675f0f16b0117428725b110f9e6ba766154b305",
      "s": "0x234180ace334070051d26bf86ab99837454049540bc6996043b081d2bbc83261",
      "v": 28,
      "creates": null,
      "raw": "0xf86d29850d47998c458252089432be343b94f860124dc4fee278fdcbd38c102d888902f9dfcedf0960c000801ca0b18c60871c41dcd077904d24b675f0f16b0117428725b110f9e6ba766154b305a0234180ace334070051d26bf86ab99837454049540bc6996043b081d2bbc83261",
      "networkId": 0,
      "chainId": 0
    }
  ]
}