{
  "hash": "0x3fa0750e998fdc1a38b7d605a10b5712b9b6112965bf23632d342de1852a1efc",
  "parentHash": "0xe186206c10b17d3d0d4cb8b9385b9844c6a49bf72baf10afe5b4c5bff697ffa3",
  "number": 106969,
  "timestamp": 1439913736,
  "nonce": "0x8649db052294968d",
  "difficulty": 4450675693356,
  "gasLimit": {
    "_hex": "0x2fefd8"
  },
  "gasUsed": {
    "_hex": "0x18326"
  },
  "miner": "0xe6A7a1d47ff21B6321162AEA7C6CB457D5476Bca",
  "extraData": "0x476574682f76312e302e312d38326566323666362f6c696e75782f676f312e34",
  "transactions": [
    {
      "hash": "0xf3f21322de7b59e9ef100e814e7646985bb2b5a9926e5ddf072be27b99967764",
      "blockHash": "0x3fa0750e998fdc1a38b7d605a10b5712b9b6112965bf23632d342de1852a1efc",
      "blockNumber": 106969,
      "transactionIndex": 0,
      "confirmations": null,
      "from": "0xbCab99c9250A69cCD7395f2543ed52FF1e220398",
      "gasPrice": {
        "_hex": "0x10090dfe84e"
      },
      "gasLimit": {
        "_hex": "0x249f0"
      },
      "to": "0xE28e72FCf78647ADCe1F1252F240bbfaebD63BcC",
      "value": {
        "_hex": "0x8ac7230489e80000"
      },
      "nonce": 1,
      "data": "0x45466f3a",
      "r": "0xf3dc255da217b4771d554b540bef510c2faca6196abdf7a6dc725e98970d967b",
      "s": "0x6a48f0e0cf8273cab7833add41fc2cd8669b00029196f0234d56b0234da50d05",
      "v": 28,
      "creates": null,
      "raw": "0xf8720186010090dfe84e830249f094e28e72fcf78647adce1f1252f240bbfaebd63bcc888ac7230489e800008445466f3a1ca0f3dc255da217b4771d554b540bef510c2faca6196abdf7a6dc725e98970d967ba06a48f0e0cf8273cab7833add41fc2cd8669b00029196f0234d56b0234da50d05",
      "networkId": 0,
      "chainId": 0
    }
  ]
}