{
  "hash": "0xebf62577e2247dadf2221ee880605d4dea51ac0b9cbb0d524ad400526a6bcdba",
  "parentHash": "0x48439d5e503ffae7ef71f9040f3e2d4d9bda33fe05414e3fd0da04de12394b3a",
  "number": 110348,
  "timestamp": 1439972284,
  "nonce": "0x36694ef747ac1c40",
  "difficulty": 4360704316436,
  "gasLimit": {
    "_hex": "0x2fefd8"
  },
  "gasUsed": {
    "_hex": "0x19a28"
  },
  "miner": "0xe6A7a1d47ff21B6321162AEA7C6CB457D5476Bca",
  "extraData": "0x476574682f76312e302e312d38326566323666362f6c696e75782f676f312e34",
  "transactions": [
    {
      "hash": "0xfd015303dd096082881631c4b9918d3521a17b29cac0da63a1f541a3ce06409c",
      "blockHash": "0xebf62577e2247dadf2221ee880605d4dea51ac0b9cbb0d524ad400526a6bcdba",
      "blockNumber": 110348,
      "transactionIndex": 0,
      "confirmations": null,
      "from": "0xe6A7a1d47ff21B6321162AEA7C6CB457D5476Bca",
      "gasPrice": {
        "_hex": "0xd62c36b0d"
      },
      "gasLimit": {
        "_hex": "0x55f0"
      },
      "to": "0xa114c802ef29776f05f9c6925cE915232e8ae102",
      "value": {
        "_hex": "0x21f547a11a6bc8610"
      },
      "nonce": 4529,
      "data": "0x",
      "r": "0x97016fe383e71c4524ecd381a2b6b4aee12306572fe90996c49d86ab13759128",
      "s": "0x533c5ddb55eec5a2d62a3324f3bf60bbff456a7d6c32100f5c1cedaa1c3e5b4a",
      "v": 27,
      "creates": null,
      "raw": "0xf86f8211b1850d62c36b0d8255f094a114c802ef29776f05f9c6925ce915232e8ae10289021f547a11a6bc8610801ba097016fe383e71c4524ecd381a2b6b4aee12306572fe90996c49d86ab13759128a0533c5ddb55eec5a2d62a3324f3bf60bbff456a7d6c32100f5c1cedaa1c3e5b4a",
      "networkId": 0,
      "chainId": 0
    },
    {
      "hash": "0x839707ad206257d49031e9ebd6bf3d64db05ecc294d21a1b3e8fe69f561bae97",
      "blockHash": "0xebf62577e2247dadf2221ee880605d4dea51ac0b9cbb0d524ad400526a6bcdba",
      "blockNumber": 110348,
      "transactionIndex": 1,
      "confirmations": null,
      "from": "0xe6A7a1d47ff21B6321162AEA7C6CB457D5476Bca",
      "gasPrice": {
        "_hex": "0xd3eb6bbb5"
      },
      "gasLimit": {
        "_hex": "0x55f0"
      },
      "to": "0x164d6C84C4D54AA3E22A5b2B72cFb968eDe862C5",
      "value": {
        "_hex": "0x22bbe7288448625b0"
      },
      "nonce": 4530,
      "data": "0x",
      "r": "0x54bdcb9ea28840312550d6ef0ca30c1b231ad87300e344adfd7173f9816bd4dd",
      "s": "0x154944be6d53ab1d1317d297c29888afdb2a289d678b4c70e60ccac52f7b7245",
      "v": 28,
      "creates": null,
      "raw": "0xf86f8211b2850d3eb6bbb58255f094164d6c84c4d54aa3e22a5b2b72cfb968ede862c589022bbe7288448625b0801ca054bdcb9ea28840312550d6ef0ca30c1b231ad87300e344adfd7173f9816bd4dda0154944be6d53ab1d1317d297c29888afdb2a289d678b4c70e60ccac52f7b7245",
      "networkId": 0,
      "chainId": 0
    },
    {
      "hash": "0xbde9cc75fc90ebc3e23809bd309afcf97d8337ce207177bf1f797874a2371075",
      "blockHash": "0xebf62577e2247dadf2221ee880605d4dea51ac0b9cbb0d524ad400526a6bcdba",
      "blockNumber": 110348,
      "transactionIndex": 2,
      "confirmations": null,
      "from": "0xe6A7a1d47ff21B6321162AEA7C6CB457D5476Bca",
      "gasPrice": {
        "_hex": "0xd3eb6bbb5"
      },
      "gasLimit": {
        "_hex": "0x55f0"
      },
      "to": "0x4A29dF8a7967b36664f256F18dAcf2e58E9f1E7E",
      "value": {
        "_hex": "0x239d29393f2603420"
      },
      "nonce": 4531,
      "data": "0x",
      "r": "0xa86b453e9426794c6dae9a528474ba3a102d02eb23a8e84676219b2946ed9160",
      "s": "0x70d07e051423159f86b854a81653803a8852114f69bcf5af96853b6f9d46f5f7",
      "v": 27,
      "creates": null,
      "raw": "0xf86f8211b3850d3eb6bbb58255f0944a29df8a7967b36664f256f18dacf2e58e9f1e7e890239d29393f2603420801ba0a86b453e9426794c6dae9a528474ba3a102d02eb23a8e84676219b2946ed9160a070d07e051423159f86b854a81653803a8852114f69bcf5af96853b6f9d46f5f7",
      "networkId": 0,
      "chainId": 0
    },
    {
      "hash": "0xd4db41e345df7edf7264ff08ca573840e8b961775538208542c79558861cb3be",
      "blockHash": "0xebf62577e2247dadf2221ee880605d4dea51ac0b9cbb0d524ad400526a6bcdba",
      "blockNumber": 110348,
      "transactionIndex": 3,
      "confirmations": null,
      "from": "0xe6A7a1d47ff21B6321162AEA7C6CB457D5476Bca",
      "gasPrice": {
        "_hex": "0xd3eb6bbb5"
      },
      "gasLimit": {
        "_hex": "0x55f0"
      },
      "to": "0x9cF18B3eb373C383a42d06136ba331D766ed9Fbb",
      "value": {
        "_hex": "0x23cd3252876378f40"
      },
      "nonce": 4532,
      "data": "0x",
      "r": "0xba3549ea90c6b0edbab5fce8c4f38d4dd9aa80479218695cc3d307b6a0c93da7",
      "s": "0x58514d9ddec964cbbba7eddc08fe08f3b8fcb7d4c32afeb419329671c0c3b4a4",
      "v": 27,
      "creates": null,
      "raw": "0xf86f8211b4850d3eb6bbb58255f0949cf18b3eb373c383a42d06136ba331d766ed9fbb89023cd3252876378f40801ba0ba3549ea90c6b0edbab5fce8c4f38d4dd9aa80479218695cc3d307b6a0c93da7a058514d9ddec964cbbba7eddc08fe08f3b8fcb7d4c32afeb419329671c0c3b4a4",
      "networkId": 0,
      "chainId": 0
    },
    {
      "hash": "0x5a381a79ae13ed00908c19380011b13b7f0441d5452a33b3066bfec61ecb4a5c",
      "blockHash": "0xebf62577e2247dadf2221ee880605d4dea51ac0b9cbb0d524ad400526a6bcdba",
      "blockNumber": 110348,
      "transactionIndex": 4,
      "confirmations": null,
      "from": "0xd223eD5b348a82910987CbBc7875a7AE62E1Ba53",
      "gasPrice": {
        "_hex": "0xce4b10b84"
      },
      "gasLimit": {
        "_hex": "0x5208"
      },
      "to": "0x32Be343B94f860124dC4fEe278FDCBD38C102D88",
      "value": {
        "_hex": "0x2c929e80bb106000"
      },
      "nonce": 9,
      "data": "0x",
      "r": "0xb56d638e66a5662c01dffdcd279b432187236a96c6db74f1375e19b1ee107383",
      "s": "0x0312e03e9475d335ca5767c854a63e43e9919589c906d2546ab587e3e257ebc8",
      "v": 27,
      "creates": null,
      "raw": "0xf86c09850ce4b10b848252089432be343b94f860124dc4fee278fdcbd38c102d88882c929e80bb106000801ba0b56d638e66a5662c01dffdcd279b432187236a96c6db74f1375e19b1ee107383a00312e03e9475d335ca5767c854a63e43e9919589c906d2546ab587e3e257ebc8",
      "networkId": 0,
      "chainId": 0
    }
  ]
}