{
  "hash": "0x29f550c5f825cc0b5fd16ee9df5ec795f3b09925f1c9d1fe8c4c9139645b3f89",
  "parentHash": "0x31b0ca3e41793e06422ed9ebc7cbe05c366a08525f30b2384ee50073a313bdd0",
  "number": 86299,
  "timestamp": 1439576351,
  "nonce": "0x5e9f7df7bb09ba0a",
  "difficulty": 2852666930311,
  "gasLimit": {
    "_hex": "0x2fefd8"
  },
  "gasUsed": {
    "_hex": "0xa410"
  },
  "miner": "0x157c6f2431eB1a95797EE86F7d17b3c0FD47A247",
  "extraData": "0x476574682f76312e302e312f77696e646f77732f676f312e342e32",
  "transactions": [
    {
      "hash": "0x48e51c69620cb7fb49eec3e32e9ff9824ef13f4f1882530331025a9a12880152",
      "blockHash": "0x29f550c5f825cc0b5fd16ee9df5ec795f3b09925f1c9d1fe8c4c9139645b3f89",
      "blockNumber": 86299,
      "transactionIndex": 0,
      "confirmations": null,
      "from": "0x6c716b5177cC5c983057af4D88F7152ebA2CC0a6",
      "gasPrice": {
        "_hex": "0xdb6f17eab"
      },
      "gasLimit": {
        "_hex": "0x5208"
      },
      "to": "0x32Be343B94f860124dC4fEe278FDCBD38C102D88",
      "value": {
        "_hex": "0xb464edc18a214000"
      },
      "nonce": 7,
      "data": "0x",
      "r": "0x9b381172cc7a035dfea95cf9934e760a75eb2683db24e97aff743638e61a0da4",
      "s": "0x50bdee419b192166f6960b697e61e22caa1d003bf47e6c0189dd0b0de9928566",
      "v": 27,
      "creates": null,
      "raw": "0xf86c07850db6f17eab8252089432be343b94f860124dc4fee278fdcbd38c102d8888b464edc18a214000801ba09b381172cc7a035dfea95cf9934e760a75eb2683db24e97aff743638e61a0da4a050bdee419b192166f6960b697e61e22caa1d003bf47e6c0189dd0b0de9928566",
      "networkId": 0,
      "chainId": 0
    },
    {
      "hash": "0x793b55596464332a9585596e7bb3671ecc0311f0c035e85287faa3536c2a54dc",
      "blockHash": "0x29f550c5f825cc0b5fd16ee9df5ec795f3b09925f1c9d1fe8c4c9139645b3f89",
      "blockNumber": 86299,
      "transactionIndex": 1,
      "confirmations": null,
      "from": "0x9b18C7Fe0E96C2b7B8868a67b3e2Ef83CE8928cB",
      "gasPrice": {
        "_hex": "0xdb6f17eab"
      },
      "gasLimit": {
        "_hex": "0x5208"
      },
      "to": "0x32Be343B94f860124dC4fEe278FDCBD38C102D88",
      "value": {
        "_hex": "0x77b0c545a7e94c000"
      },
      "nonce": 1,
      "data": "0x",
      "r": "0xfc7b009afa2c49c8c173631d3c9ca851067e9f377ade4ff02ad900497c234120",
      "s": "0x4f6f18c71974ab80e1e6562afa1815c51c71197ff15d96aedb61e92ef5e29f92",
      "v": 28,
      "creates": null,
      "raw": "0xf86d01850db6f17eab8252089432be343b94f860124dc4fee278fdcbd38c102d8889077b0c545a7e94c000801ca0fc7b009afa2c49c8c173631d3c9ca851067e9f377ade4ff02ad900497c234120a04f6f18c71974ab80e1e6562afa1815c51c71197ff15d96aedb61e92ef5e29f92",
      "networkId": 0,
      "chainId": 0
    }
  ]
}