{
  "hash": "0x417a9fbf8f1e2b2617e86e320f93989c9d899b8142855369c01f411fc6ad3c04",
  "parentHash": "0xd94ed6cea605b9f9d932a3af814c6cb2a2839f23a4f028ce3a748b15460e5474",
  "number": 72908,
  "timestamp": 1439360203,
  "nonce": "0x7c4b54ede132b6db",
  "difficulty": 2193921268769,
  "gasLimit": {
    "_hex": "0x2fefd8"
  },
  "gasUsed": {
    "_hex": "0x5208"
  },
  "miner": "0x0eDEd3DA479d0beF8eeC92A76644D3f4E3C177f7",
  "extraData": "0x476574682f76312e302e312f6c696e75782f676f312e342e32",
  "transactions": [
    {
      "hash": "0xaa66a465e2bc1e55a99ac832e3f683e7ee074685ed05540ae7fa53985d8533df",
      "blockHash": "0x417a9fbf8f1e2b2617e86e320f93989c9d899b8142855369c01f411fc6ad3c04",
      "blockNumber": 72908,
      "transactionIndex": 0,
      "confirmations": null,
      "from": "0xa114c802ef29776f05f9c6925cE915232e8ae102",
      "gasPrice": {
        "_hex": "0xcefd1f288"
      },
      "gasLimit": {
        "_hex": "0x5208"
      },
      "to": "0x32Be343B94f860124dC4fEe278FDCBD38C102D88",
      "value": {
        "_hex": "0x14d0d064dac49b000"
      },
      "nonce": 5,
      "data": "0x",
      "r": "0x25daf59300e3bfe7fa15f1d2367affd93283842515b063bb128c398632893e4d",
      "s": "0x745f63e6b92e9f7553f7d77f0608acbbf85b6ba57a23d055bdd8000cd168ea06",
      "v": 27,
      "creates": null,
      "raw": "0xf86d05850cefd1f2888252089432be343b94f860124dc4fee278fdcbd38c102d8889014d0d064dac49b000801ba025daf59300e3bfe7fa15f1d2367affd93283842515b063bb128c398632893e4da0745f63e6b92e9f7553f7d77f0608acbbf85b6ba57a23d055bdd8000cd168ea06",
      "networkId": 0,
      "chainId": 0
    }
  ]
}