{
  "hash": "0x19d4878aefffbcbcaf3a7f6be74ad6a7f10651ee574404ecd869da2d0fca24e3",
  "parentHash": "0xc2c3ee78cb832fb6369b0ef79858f4aa0fd98aa054c8ce52cb44d73e0683360a",
  "number": 48640,
  "timestamp": 1438960275,
  "nonce": "0x5f5e8aee23af3161",
  "difficulty": 1472874934526,
  "gasLimit": {
    "_hex": "0x1b231"
  },
  "gasUsed": {
    "_hex": "0x546c"
  },
  "miner": "0xab84940B570d6358ed6A9Dbf7e0bc8Ec8F5A6E89",
  "extraData": "0x322831652933",
  "transactions": [
    {
      "hash": "0x33a90e75bbabf7acc061787cc4b9f51dd3721097b63632c13bf3a1f05e076fbc",
      "blockHash": "0x19d4878aefffbcbcaf3a7f6be74ad6a7f10651ee574404ecd869da2d0fca24e3",
      "blockNumber": 48640,
      "transactionIndex": 0,
      "confirmations": null,
      "from": "0x2ef9E465716AcAcFb8c8252fa8E7bc7969EbF6E4",
      "gasPrice": {
        "_hex": "0x110c8f7d8de"
      },
      "gasLimit": {
        "_hex": "0xc350"
      },
      "to": "0x2910543Af39abA0Cd09dBb2D50200b3E800A63D2",
      "value": {
        "_hex": "0x340aad21b3b700000"
      },
      "nonce": 0,
      "data": "0x454e384e3358313947",
      "r": "0x4aabbec90456e1eca6fb0abd9121c777547fd9ee83bb5064b36e960a302ef249",
      "s": "0x336ba8ac431f371cf76c77db03880e8e8cf6809b178b1099f4f89942624c9e2c",
      "v": 27,
      "creates": null,
      "raw": "0xf87780860110c8f7d8de82c350942910543af39aba0cd09dbb2d50200b3e800a63d2890340aad21b3b70000089454e384e33583139471ba04aabbec90456e1eca6fb0abd9121c777547fd9ee83bb5064b36e960a302ef249a0336ba8ac431f371cf76c77db03880e8e8cf6809b178b1099f4f89942624c9e2c",
      "networkId": 0,
      "chainId": 0
    }
  ]
}