{
  "hash": "0x72f0fa6cb5550bac4cbd52c22e18a64b9bdee3c679a10c8f0f6a2e224e9a7658",
  "parentHash": "0x9742582758a3846bbdd0bf5567568ec8591d9aae5383434b66f9888128e052de",
  "number": 109801,
  "timestamp": 1439962582,
  "nonce": "0x815de44bd8f5c9a7",
  "difficulty": 4444830620128,
  "gasLimit": {
    "_hex": "0x2fefd8"
  },
  "gasUsed": {
    "_hex": "0x5208"
  },
  "miner": "0x52bc44d5378309EE2abF1539BF71dE1b7d7bE3b5",
  "extraData": "0x476574682f76312e302e312d63303261396266632f6c696e75782f676f312e34",
  "transactions": [
    {
      "hash": "0xc4acc50d858b2e88ec0695a3a68df259325f7f054e295619f6cf716243d2b5e6",
      "blockHash": "0x72f0fa6cb5550bac4cbd52c22e18a64b9bdee3c679a10c8f0f6a2e224e9a7658",
      "blockNumber": 109801,
      "transactionIndex": 0,
      "confirmations": null,
      "from": "0x120A270bbC009644e35F0bB6ab13f95b8199c4ad",
      "gasPrice": {
        "_hex": "0xe029dc111"
      },
      "gasLimit": {
        "_hex": "0x3d090"
      },
      "to": "0x612a19AB7c9B986099e2CD38f06b48Ec08A4B6fe",
      "value": {
        "_hex": "0x23e090ca613f5a000"
      },
      "nonce": 865,
      "data": "0x",
      "r": "0x2934b54ecebacbf703f3a547561537b4656532db32d8a51807e3571d5b4cef49",
      "s": "0x6ec88c9c72ebfd71a0e56551e5f1e2a4232567c8259596981f4247decd4e6c49",
      "v": 27,
      "creates": null,
      "raw": "0xf870820361850e029dc1118303d09094612a19ab7c9b986099e2cd38f06b48ec08a4b6fe89023e090ca613f5a000801ba02934b54ecebacbf703f3a547561537b4656532db32d8a51807e3571d5b4cef49a06ec88c9c72ebfd71a0e56551e5f1e2a4232567c8259596981f4247decd4e6c49",
      "networkId": 0,
      "chainId": 0
    }
  ]
}