{
  "hash": "0xa2d9d1ac5e46df5340ff8002822d1ffb63c947c623c6ab2225dc9749c2657022",
  "parentHash": "0x890e1a6ecc7b1d2ac5eee20721ce21682cd83b607e5339d9a47405dd63fc0151",
  "number": 102898,
  "timestamp": 1439844713,
  "nonce": "0x93ccdc4d2607246a",
  "difficulty": 4112172085519,
  "gasLimit": {
    "_hex": "0x2fefd8"
  },
  "gasUsed": {
    "_hex": "0x5208"
  },
  "miner": "0xe6A7a1d47ff21B6321162AEA7C6CB457D5476Bca",
  "extraData": "0x476574682f76312e302e312d38326566323666362f6c696e75782f676f312e34",
  "transactions": [
    {
      "hash": "0xa1ab9f43b00de8578577f13b717f5c8755e9ee4f6c6f38dc9f6eefece0ca2e05",
      "blockHash": "0xa2d9d1ac5e46df5340ff8002822d1ffb63c947c623c6ab2225dc9749c2657022",
      "blockNumber": 102898,
      "transactionIndex": 0,
      "confirmations": null,
      "from": "0xbE97502418b30440315e0F5c824943C7500ce91A",
      "gasPrice": {
        "_hex": "0xba43b7400"
      },
      "gasLimit": {
        "_hex": "0x5266"
      },
      "to": "0x0000000000000000000000000000000000000000",
      "value": {
        "_hex": "0x4d7e5a6a29c80000"
      },
      "nonce": 1,
      "data": "0x",
      "r": "0xc6ef8692a248d7e862ac78ed3474f586d5d5edac0f27cdcc08307f32fc8d813c",
      "s": "0xdfd954b0d201e0b3adc35a77cec7d4a8fc270883ff70a5f5a00e1256a2f720f7",
      "v": 27,
      "creates": null,
      "raw": "0xf86c01850ba43b7400825266940000000000000000000000000000000000000000884d7e5a6a29c80000801ba0c6ef8692a248d7e862ac78ed3474f586d5d5edac0f27cdcc08307f32fc8d813ca0dfd954b0d201e0b3adc35a77cec7d4a8fc270883ff70a5f5a00e1256a2f720f7",
      "networkId": 0,
      "chainId": 0
    }
  ]
}