{
  "hash": "0xe0ab82a7479803dda8ba888b154c2c5c21f25de680574bf18800a803a881cc44",
  "parentHash": "0x5a11226da9a7c7eb1bdd0fcd0d0468eefd6821077917bcb6154a0b66d3cc6449",
  "number": 86462,
  "timestamp": 1439578651,
  "nonce": "0x164d1e4b05796382",
  "difficulty": 2887646824442,
  "gasLimit": {
    "_hex": "0x2fefd8"
  },
  "gasUsed": {
    "_hex": "0x5d9f"
  },
  "miner": "0x007f7f58D3eb5b7510A301eCC749FC1fCDDBE14D",
  "extraData": "0x476574682f76312e302e312f77696e646f77732f676f312e342e32",
  "transactions": [
    {
      "hash": "0xfee1e7e84d28d13da6b7f703d74dc3716e7ab5e267f77b1f0eba30640a8959a5",
      "blockHash": "0xe0ab82a7479803dda8ba888b154c2c5c21f25de680574bf18800a803a881cc44",
      "blockNumber": 86462,
      "transactionIndex": 0,
      "confirmations": null,
      "from": "0x4B11852B35058CBFB5a50c5a007b0c134927Fd8b",
      "gasPrice": {
        "_hex": "0xd1b797161"
      },
      "gasLimit": {
        "_hex": "0x15f90"
      },
      "to": "0x4a17e8aADB151f9E220cA165C65128153951cfb9",
      "value": {
        "_hex": "0x16345785d8a0000"
      },
      "nonce": 5,
      "data": "0xb214faa54141414141414141420000000000000000000000000000000000000000000000",
      "r": "0xf21e25398164c6f0d798cac4871f6e9a748238bffd3351512281d6d95f8a3067",
      "s": "0x6d03f4d4927c2f12a4a158a9621fa8cd8c801bfdc2bfe9f9523b5482cf65a6aa",
      "v": 27,
      "creates": null,
      "raw": "0xf89105850d1b79716183015f90944a17e8aadb151f9e220ca165c65128153951cfb988016345785d8a0000a4b214faa541414141414141414200000000000000000000000000000000000000000000001ba0f21e25398164c6f0d798cac4871f6e9a748238bffd3351512281d6d95f8a3067a06d03f4d4927c2f12a4a158a9621fa8cd8c801bfdc2bfe9f9523b5482cf65a6aa",
      "networkId": 0,
      "chainId": 0
    }
  ]
}