{
  "hash": "0x45ffbdff48ed2130c33d5da164551174b598476f7f24988259a6ec4efec9ad3d",
  "parentHash": "0x30f2c38ed851601e9ed5b08484d5ca9542e4e3aee18bbc25fc72666bb4ddd610",
  "number": 73506,
  "timestamp": 1439370341,
  "nonce": "0xf7dbca312b9a5dff",
  "difficulty": 2215293310951,
  "gasLimit": {
    "_hex": "0x2fefd8"
  },
  "gasUsed": {
    "_hex": "0x5208"
  },
  "miner": "0xf8E0CA3Ed80bd541b94BEdCf259e8CF2141A9523",
  "extraData": "0x476574682f76312e302e312f77696e646f77732f676f312e342e32",
  "transactions": [
    {
      "hash": "0xfb9ce0daadc7943aab2c52c7152441777a268ba6aaa5f845a9412945054d392f",
      "blockHash": "0x45ffbdff48ed2130c33d5da164551174b598476f7f24988259a6ec4efec9ad3d",
      "blockNumber": 73506,
      "transactionIndex": 0,
      "confirmations": null,
      "from": "0xa748fac76B1d857E2f77484a0F816463e8b56EDc",
      "gasPrice": {
        "_hex": "0x108bc7086cf"
      },
      "gasLimit": {
        "_hex": "0x5208"
      },
      "to": "0xc2ac6849Aec3938FB8c9B36F1c07be76f766637E",
      "value": {
        "_hex": "0x7ce66c50e2840000"
      },
      "nonce": 6,
      "data": "0x",
      "r": "0x46429c9712b83c4da714ba00ee2df934892f143c8caec666229ae314e409d654",
      "s": "0x572a9fb5ef1690a7addecbc5ead0428cead8321f57df84df74162eeed17616de",
      "v": 27,
      "creates": null,
      "raw": "0xf86d06860108bc7086cf82520894c2ac6849aec3938fb8c9b36f1c07be76f766637e887ce66c50e2840000801ba046429c9712b83c4da714ba00ee2df934892f143c8caec666229ae314e409d654a0572a9fb5ef1690a7addecbc5ead0428cead8321f57df84df74162eeed17616de",
      "networkId": 0,
      "chainId": 0
    }
  ]
}