{
  "hash": "0x5acba6ff106e066d51dabcdd547cd3857362f4f2262b5505bf98d42c4fcbec4d",
  "parentHash": "0x3e67d726d292cb52a586a736aea585280d916d3014e5bc566cdeec8656a78d0e",
  "number": 93828,
  "timestamp": 1439698616,
  "nonce": "0x579f81f79359a089",
  "difficulty": 3426155683765,
  "gasLimit": {
    "_hex": "0x2fefd8"
  },
  "gasUsed": {
    "_hex": "0xf618"
  },
  "miner": "0x723E05fF30e4ba7A87b4D7D459eE5B488A9c36d1",
  "extraData": "0x",
  "transactions": [
    {
      "hash": "0xf60de729c4dc7432320d42e51eda09c0eb25afa0a0e727680880d436e475e0eb",
      "blockHash": "0x5acba6ff106e066d51dabcdd547cd3857362f4f2262b5505bf98d42c4fcbec4d",
      "blockNumber": 93828,
      "transactionIndex": 0,
      "confirmations": null,
      "from": "0x74A9cd3e87F75aDC6370F08401D27D3ff898f959",
      "gasPrice": {
        "_hex": "0xd8e3b8f52"
      },
      "gasLimit": {
        "_hex": "0x5208"
      },
      "to": "0x32Be343B94f860124dC4fEe278FDCBD38C102D88",
      "value": {
        "_hex": "0x25d69c0a611fe40000"
      },
      "nonce": 0,
      "data": "0x",
      "r": "0xe26d10adcba37a0985d75bdca75322b3d21a91d55c6a05b9b4d1b2d74604b365",
      "s": "0x46131028ce74e4d403dd309da9c6763add139a31be932666e1e07674950b830e",
      "v": 28,
      "creates": null,
      "raw": "0xf86d80850d8e3b8f528252089432be343b94f860124dc4fee278fdcbd38c102d888925d69c0a611fe40000801ca0e26d10adcba37a0985d75bdca75322b3d21a91d55c6a05b9b4d1b2d74604b365a046131028ce74e4d403dd309da9c6763add139a31be932666e1e07674950b830e",
      "networkId": 0,
      "chainId": 0
    },
    {
      "hash": "0x3814390daacfc33fd203e5f3626e900390106cfb8fcf30327a743b5d254422c6",
      "blockHash": "0x5acba6ff106e066d51dabcdd547cd3857362f4f2262b5505bf98d42c4fcbec4d",
      "blockNumber": 93828,
      "transactionIndex": 1,
      "confirmations": null,
      "from": "0x32Be343B94f860124dC4fEe278FDCBD38C102D88",
      "gasPrice": {
        "_hex": "0xd8e3b8f52"
      },
      "gasLimit": {
        "_hex": "0x5208"
      },
      "to": "0xAB14d221E33D544629198cd096ED63dfa28D9F47",
      "value": {
        "_hex": "0xdff8de15d320e000"
      },
      "nonce": 936,
      "data": "0x",
      "r": "0xd48d9b13706f7f4a2997b856f602e8642c7bb4e452af3b1e1b682a335f63659e",
      "s": "0x4e04416ba7b3f0aa423b2e65cd9283acb50f7dc83330b6a606e09226c1fe859a",
      "v": 27,
      "creates": null,
      "raw": "0xf86e8203a8850d8e3b8f5282520894ab14d221e33d544629198cd096ed63dfa28d9f4788dff8de15d320e000801ba0d48d9b13706f7f4a2997b856f602e8642c7bb4e452af3b1e1b682a335f63659ea04e04416ba7b3f0aa423b2e65cd9283acb50f7dc83330b6a606e09226c1fe859a",
      "networkId": 0,
      "chainId": 0
    },
    {
      "hash": "0xd6b124ea7da31c0cded522bbf8e9239c0d61c9c1f9d77f6b563d52759e34dbc6",
      "blockHash": "0x5acba6ff106e066d51dabcdd547cd3857362f4f2262b5505bf98d42c4fcbec4d",
      "blockNumber": 93828,
      "transactionIndex": 2,
      "confirmations": null,
      "from": "0xC603Ab5ef41fC61AA8b76bEddb09e3Cfcbb174BD",
      "gasPrice": {
        "_hex": "0xd2f9685eb"
      },
      "gasLimit": {
        "_hex": "0x15f90"
      },
      "to": "0x8F79f76381Aad7B98C19aF55eE75fdfEeb012211",
      "value": {
        "_hex": "0x55de6a779bbac0000"
      },
      "nonce": 25,
      "data": "0x",
      "r": "0x1f01dcf72bccde3b1ce3090b403e683a55d2a8a71433ae422ff33008c6e0364e",
      "s": "0x5170f993a3ec50192d37bebeff955373aa1892cd90ae040f9c235450003a0205",
      "v": 28,
      "creates": null,
      "raw": "0xf86e19850d2f9685eb83015f90948f79f76381aad7b98c19af55ee75fdfeeb01221189055de6a779bbac0000801ca01f01dcf72bccde3b1ce3090b403e683a55d2a8a71433ae422ff33008c6e0364ea05170f993a3ec50192d37bebeff955373aa1892cd90ae040f9c235450003a0205",
      "networkId": 0,
      "chainId": 0
    }
  ]
}