{
  "hash": "0x6a976d6fa2e83daea8145caf1bd68aa988f15d389e8ee58da6990f7628de4ca7",
  "parentHash": "0x1ab5368ff651a64ea9b58360b76663f425c843e1dcff333ea6a6d319eddefa57",
  "number": 48713,
  "timestamp": 1438961669,
  "nonce": "0x50a237ad32c4bfe9",
  "difficulty": 1476462365320,
  "gasLimit": {
    "_hex": "0x1c9ed"
  },
  "gasUsed": {
    "_hex": "0xa674"
  },
  "miner": "0x3F98e477a361F777DA14611a7e419A75Fd238b6b",
  "extraData": "0x476574682f76312e302e312f6c696e75782f676f312e342e32",
  "transactions": [
    {
      "hash": "0x77cb1c4ba8af0f9ae4587773a44d4fc946d6246f17950e73df42cf1d935740ec",
      "blockHash": "0x6a976d6fa2e83daea8145caf1bd68aa988f15d389e8ee58da6990f7628de4ca7",
      "blockNumber": 48713,
      "transactionIndex": 0,
      "confirmations": null,
      "from": "0x241361559FEEF80Ef137302153Bd9Ed2f25db3eF",
      "gasPrice": {
        "_hex": "0xe29ccd082"
      },
      "gasLimit": {
        "_hex": "0x15f90"
      },
      "to": "0x2910543Af39abA0Cd09dBb2D50200b3E800A63D2",
      "value": {
        "_hex": "0x10f0cf064dd59200000"
      },
      "nonce": 1,
      "data": "0x454e45333745443338",
      "r": "0xbd6bcef51bf56201aea8086b63d959ee8c40b30b248ee29eb11fc5bf33500f1e",
      "s": "0x220c34d18aebc6b1cb7ff4d5a9af237d95b603fdb69779b4acad9f21f421b248",
      "v": 27,
      "creates": null,
      "raw": "0xf87801850e29ccd08283015f90942910543af39aba0cd09dbb2d50200b3e800a63d28a010f0cf064dd5920000089454e453337454433381ba0bd6bcef51bf56201aea8086b63d959ee8c40b30b248ee29eb11fc5bf33500f1ea0220c34d18aebc6b1cb7ff4d5a9af237d95b603fdb69779b4acad9f21f421b248",
      "networkId": 0,
      "chainId": 0
    },
    {
      "hash": "0x0763bc5767bc292401cfc2614cd55534b752f25e3ef681432f0b2f22c6dd96dd",
      "blockHash": "0x6a976d6fa2e83daea8145caf1bd68aa988f15d389e8ee58da6990f7628de4ca7",
      "blockNumber": 48713,
      "transactionIndex": 1,
      "confirmations": null,
      "from": "0xB2676841Ee9f2d31C172E82303b0Fe9BBf9f1e09",
      "gasPrice": {
        "_hex": "0xcfaf1bcf6"
      },
      "gasLimit": {
        "_hex": "0x15f90"
      },
      "to": "0xd67EA950Fe0e4a0e1367Bda02c0548BD446A8443",
      "value": {
        "_hex": "0xac98a7eb4aefb0000"
      },
      "nonce": 1,
      "data": "0x",
      "r": "0x02cee3348e7dc4f930faf41aa0edb1e229c2061dbbff2fd9db914081df716a0a",
      "s": "0x5d70da4d44d8053dcfb9d79bd2f786a1712ce4154fd0a142138ac7d93926021c",
      "v": 27,
      "creates": null,
      "raw": "0xf86e01850cfaf1bcf683015f9094d67ea950fe0e4a0e1367bda02c0548bd446a8443890ac98a7eb4aefb0000801ba002cee3348e7dc4f930faf41aa0edb1e229c2061dbbff2fd9db914081df716a0aa05d70da4d44d8053dcfb9d79bd2f786a1712ce4154fd0a142138ac7d93926021c",
      "networkId": 0,
      "chainId": 0
    }
  ]
}