{
  "hash": "0xc40a962f7cdd4e94727053feba0277dc7e54d177189fec4081e0feb0162f0a6e",
  "parentHash": "0x69f26ca4d6e46a7e69bdf70f9eeb540f6296f045cc78d1c9ccf05a760c8fe058",
  "number": 60983,
  "timestamp": 1439164679,
  "nonce": "0xccd50bfbf7db2189",
  "difficulty": 1740551248822,
  "gasLimit": {
    "_hex": "0x2fefd8"
  },
  "gasUsed": {
    "_hex": "0xa410"
  },
  "miner": "0x88D74a59454F6cF3B51ef6b9136AFb6b9D405A88",
  "extraData": "0x476574682f76312e302e312d37666266393930632f6c696e75782f676f312e34",
  "transactions": [
    {
      "hash": "0x1a8eecbe900e8a1bccd0e7630ac22c29f9dd0f4ad936b1358182ec1453fc6f6f",
      "blockHash": "0xc40a962f7cdd4e94727053feba0277dc7e54d177189fec4081e0feb0162f0a6e",
      "blockNumber": 60983,
      "transactionIndex": 0,
      "confirmations": null,
      "from": "0x120A270bbC009644e35F0bB6ab13f95b8199c4ad",
      "gasPrice": {
        "_hex": "0xcef6f7fdd"
      },
      "gasLimit": {
        "_hex": "0x15f90"
      },
      "to": "0xCA092A957744f6385B1aee5dC694143E8A06F805",
      "value": {
        "_hex": "0x2b5e3af16b1880000"
      },
      "nonce": 62,
      "data": "0x",
      "r": "0xf225bebba0e12601c780e706214329767139205b9ca2b0e1374db89a6de1c3bb",
      "s": "0x22a677e6e0377f1b9fca3a8ccdab744d7c82e0333c7082188d13b41a10894316",
      "v": 28,
      "creates": null,
      "raw": "0xf86e3e850cef6f7fdd83015f9094ca092a957744f6385b1aee5dc694143e8a06f8058902b5e3af16b1880000801ca0f225bebba0e12601c780e706214329767139205b9ca2b0e1374db89a6de1c3bba022a677e6e0377f1b9fca3a8ccdab744d7c82e0333c7082188d13b41a10894316",
      "networkId": 0,
      "chainId": 0
    },
    {
      "hash": "0x4da3a7be497e6c226bdd9cbd6415da6340136b4793e318d9dbb0173a77b20ce5",
      "blockHash": "0xc40a962f7cdd4e94727053feba0277dc7e54d177189fec4081e0feb0162f0a6e",
      "blockNumber": 60983,
      "transactionIndex": 1,
      "confirmations": null,
      "from": "0x120A270bbC009644e35F0bB6ab13f95b8199c4ad",
      "gasPrice": {
        "_hex": "0xcef6f7fdd"
      },
      "gasLimit": {
        "_hex": "0x15f90"
      },
      "to": "0x6d134bfF5434a4cCe5992A7fb698Ec4755A9B601",
      "value": {
        "_hex": "0x3635c9adc5dea00000"
      },
      "nonce": 63,
      "data": "0x",
      "r": "0xc33cb55dd38a4b0c5d08a9daeb466b16080240a8975f709c8c78e5df4f3d407b",
      "s": "0x4fd917037fa634bd2031438441d27af99eebb28e5d1c18ca25b77edcfedcff2a",
      "v": 28,
      "creates": null,
      "raw": "0xf86e3f850cef6f7fdd83015f90946d134bff5434a4cce5992a7fb698ec4755a9b601893635c9adc5dea00000801ca0c33cb55dd38a4b0c5d08a9daeb466b16080240a8975f709c8c78e5df4f3d407ba04fd917037fa634bd2031438441d27af99eebb28e5d1c18ca25b77edcfedcff2a",
      "networkId": 0,
      "chainId": 0
    }
  ]
}