{
  "hash": "0x1af75f6540f0b16a2411b2224f6d9d36deccd5e3eccd00afc058bd796af42f1a",
  "parentHash": "0x7029d4bb0b5a9fe195d9b785a82a3b37f1a640bcc477441ec775ef8b235a5e45",
  "number": 60389,
  "timestamp": 1439154732,
  "nonce": "0x77adf710693ecc8b",
  "difficulty": 1740674502177,
  "gasLimit": {
    "_hex": "0x2fefd8"
  },
  "gasUsed": {
    "_hex": "0x1e98b"
  },
  "miner": "0xF2d2AfF1320476cb8C6b607199D23175cc595693",
  "extraData": "0x476574682f76312e302e312f77696e646f77732f676f312e342e32",
  "transactions": [
    {
      "hash": "0xb63bf9eb22c1e479c331235de69dbfc7ff85b55693ae3076791b1e6a6ec871e4",
      "blockHash": "0x1af75f6540f0b16a2411b2224f6d9d36deccd5e3eccd00afc058bd796af42f1a",
      "blockNumber": 60389,
      "transactionIndex": 0,
      "confirmations": null,
      "from": "0x2F853817afd3B8F3B86E9F60ee77B5d97773c0e3",
      "gasPrice": {
        "_hex": "0xe01b2f1c1"
      },
      "gasLimit": {
        "_hex": "0x61a80"
      },
      "to": "0x020522bF9B8eD6FF41E2fa6765a17E20E2767D64",
      "value": {
        "_hex": "0x56bc75e2d63100000"
      },
      "nonce": 0,
      "data": "0x",
      "r": "0x2c83149f7cf8954089003742d27f8ca0b5bee6c738b1c4acff095b02ea3094c2",
      "s": "0x3d4deaecdbc47dcc4e2502e0acf0cd1f65e5fcea840dd608d4ed5c6e021ad530",
      "v": 28,
      "creates": null,
      "raw": "0xf86e80850e01b2f1c183061a8094020522bf9b8ed6ff41e2fa6765a17e20e2767d6489056bc75e2d63100000801ca02c83149f7cf8954089003742d27f8ca0b5bee6c738b1c4acff095b02ea3094c2a03d4deaecdbc47dcc4e2502e0acf0cd1f65e5fcea840dd608d4ed5c6e021ad530",
      "networkId": 0,
      "chainId": 0
    },
    {
      "hash": "0x10c993e2d22df604ed3d4e8981a6a3bbf2b3bafbe9f9ccb749cfd171d7f45c4b",
      "blockHash": "0x1af75f6540f0b16a2411b2224f6d9d36deccd5e3eccd00afc058bd796af42f1a",
      "blockNumber": 60389,
      "transactionIndex": 1,
      "confirmations": null,
      "from": "0xF10661FF94140F203E7A482572437938BEc9C3F7",
      "gasPrice": {
        "_hex": "0xd2e6dc203"
      },
      "gasLimit": {
        "_hex": "0x61a80"
      },
      "to": "0xa14Cf6cEC1c6aAe4b608458F6e14692863A937Aa",
      "value": {
        "_hex": "0x56bc75e2d63100000"
      },
      "nonce": 1,
      "data": "0x",
      "r": "0xc8b9b51a36c8a33c145e6d522e23e3a6226f6a963ec5ce975f671633811ccf28",
      "s": "0x0d31005a3ad8cf4cd5111b472a20fb676420faa0456abd292404f931866f919b",
      "v": 27,
      "creates": null,
      "raw": "0xf86e01850d2e6dc20383061a8094a14cf6cec1c6aae4b608458f6e14692863a937aa89056bc75e2d63100000801ba0c8b9b51a36c8a33c145e6d522e23e3a6226f6a963ec5ce975f671633811ccf28a00d31005a3ad8cf4cd5111b472a20fb676420faa0456abd292404f931866f919b",
      "networkId": 0,
      "chainId": 0
    },
    {
      "hash": "0x58550a54e07c7d6cc4b7cb2ffe7a9f20af99d0534d7e5da9c16b29a1d5cb12de",
      "blockHash": "0x1af75f6540f0b16a2411b2224f6d9d36deccd5e3eccd00afc058bd796af42f1a",
      "blockNumber": 60389,
      "transactionIndex": 2,
      "confirmations": null,
      "from": "0x271e8fC01E1C9E1621fD3d108e348450b2498541",
      "gasPrice": {
        "_hex": "0xd1943ab43"
      },
      "gasLimit": {
        "_hex": "0x55f0"
      },
      "to": "0x2910543Af39abA0Cd09dBb2D50200b3E800A63D2",
      "value": {
        "_hex": "0x8ac7230489e80000"
      },
      "nonce": 4,
      "data": "0x454e584136594a4230",
      "r": "0xd65aae34615f689d6b287525554caadd08c01d8b7cc2cc59b9053b6f8856fbc8",
      "s": "0x04d5cee2e4ff9a34bc9008a1df61e93f1be978c21868cfe101e1caf144bd4aad",
      "v": 27,
      "creates": null,
      "raw": "0xf87504850d1943ab438255f0942910543af39aba0cd09dbb2d50200b3e800a63d2888ac7230489e8000089454e584136594a42301ba0d65aae34615f689d6b287525554caadd08c01d8b7cc2cc59b9053b6f8856fbc8a004d5cee2e4ff9a34bc9008a1df61e93f1be978c21868cfe101e1caf144bd4aad",
      "networkId": 0,
      "chainId": 0
    },
    {
      "hash": "0x7c104459d8b3da385b6af60318135c27edb04f486674921d2c09ecd6a29aa0b2",
      "blockHash": "0x1af75f6540f0b16a2411b2224f6d9d36deccd5e3eccd00afc058bd796af42f1a",
      "blockNumber": 60389,
      "transactionIndex": 3,
      "confirmations": null,
      "from": "0x8155Fa6c51Eb31D808412d748aA086105018122f",
      "gasPrice": {
        "_hex": "0xcd113c605"
      },
      "gasLimit": {
        "_hex": "0x15f90"
      },
      "to": "0xc955d372Fe1c428D17CD86E05d26F0206F3677b1",
      "value": {
        "_hex": "0x41eb63d55b1b00000"
      },
      "nonce": 22,
      "data": "0x",
      "r": "0x91eb5c84b924b99af733b92ac5664e62e7f8414df57179dff95c9464bbd7951e",
      "s": "0x03497a25d988b18a5027dd60c0af27cbd03d068bec284fd8a4a82595ba64139a",
      "v": 27,
      "creates": null,
      "raw": "0xf86e16850cd113c60583015f9094c955d372fe1c428d17cd86e05d26f0206f3677b189041eb63d55b1b00000801ba091eb5c84b924b99af733b92ac5664e62e7f8414df57179dff95c9464bbd7951ea003497a25d988b18a5027dd60c0af27cbd03d068bec284fd8a4a82595ba64139a",
      "networkId": 0,
      "chainId": 0
    }
  ]
}