{
  "hash": "0xa6f2f1ee2294934ada33fc7264ddb566f898da54bed71d27bf9a36fe5d05aa9f",
  "parentHash": "0x0e2855f6fa663948afe4e76a922102baf3d483e09afab7ce4f379bb78d65a1cd",
  "number": 122171,
  "timestamp": 1440189397,
  "nonce": "0xbf2c1ac262afc82c",
  "difficulty": 4477461277359,
  "gasLimit": {
    "_hex": "0x2fefd8"
  },
  "gasUsed": {
    "_hex": "0x5208"
  },
  "miner": "0xC6A5D22D1DDd24B32a308bA4A49ec3cA38a2D0A6",
  "extraData": "0x",
  "transactions": [
    {
      "hash": "0x6d61651cd19618be8eaadcb707280ef104d1ffeb18d99bc27db312c28f50ef82",
      "blockHash": "0xa6f2f1ee2294934ada33fc7264ddb566f898da54bed71d27bf9a36fe5d05aa9f",
      "blockNumber": 122171,
      "transactionIndex": 0,
      "confirmations": null,
      "from": "0x8751DfA908C45A8aEf041FbeE9C17f9fE57Cc449",
      "gasPrice": {
        "_hex": "0xcdf2c95a4"
      },
      "gasLimit": {
        "_hex": "0x5208"
      },
      "to": "0x32Be343B94f860124dC4fEe278FDCBD38C102D88",
      "value": {
        "_hex": "0x107a96f725c060000"
      },
      "nonce": 8,
      "data": "0x",
      "r": "0xea8a3f054e535db55b150928d02ea46d975dad9c3bb9ceea5ab0f07d9a248647",
      "s": "0x4c444f9ad3e8c34835c548ce15e79212148e39c886c3a5c7808c57ee22108d3f",
      "v": 27,
      "creates": null,
      "raw": "0xf86d08850cdf2c95a48252089432be343b94f860124dc4fee278fdcbd38c102d88890107a96f725c060000801ba0ea8a3f054e535db55b150928d02ea46d975dad9c3bb9ceea5ab0f07d9a248647a04c444f9ad3e8c34835c548ce15e79212148e39c886c3a5c7808c57ee22108d3f",
      "networkId": 0,
      "chainId": 0
    }
  ]
}