{
  "hash": "0xb68c457781ac23af7726fb97895422232ad4da7fa48a8cdc2a51464c5a6b972b",
  "parentHash": "0x8773a7caf2496b1bd9bf04999fa11a96844bd65ddb9a759a6727e5b9936b41a4",
  "number": 88818,
  "timestamp": 1439614000,
  "nonce": "0xb33e96d0b4989058",
  "difficulty": 3239423720192,
  "gasLimit": {
    "_hex": "0x2fefd8"
  },
  "gasUsed": {
    "_hex": "0x546c"
  },
  "miner": "0x580992B51e3925e23280EfB93d3047C82f17E038",
  "extraData": "0x476574682f76312e302e312f6c696e75782f676f312e342e32",
  "transactions": [
    {
      "hash": "0xda35ca859856623991e0783852aa9c22a5549ebc277d254ffc3ce7197342c58c",
      "blockHash": "0xb68c457781ac23af7726fb97895422232ad4da7fa48a8cdc2a51464c5a6b972b",
      "blockNumber": 88818,
      "transactionIndex": 0,
      "confirmations": null,
      "from": "0x1c99fe9BB6C6D1066D912099547fd1f4809eACD9",
      "gasPrice": {
        "_hex": "0x9184e72a000"
      },
      "gasLimit": {
        "_hex": "0x55f0"
      },
      "to": "0x2910543Af39abA0Cd09dBb2D50200b3E800A63D2",
      "value": {
        "_hex": "0x4563918244f40000"
      },
      "nonce": 0,
      "data": "0x454e334e5158585738",
      "r": "0x838bb4f3bfd21b88e75155d6e6a96ebe3a27abdc1b73d97ee57700c412260198",
      "s": "0x5f237d5b0ea3565ed4167a74f7de2bd7a03ef7d22b7afe2d681c51a4646f5ec9",
      "v": 28,
      "creates": null,
      "raw": "0xf876808609184e72a0008255f0942910543af39aba0cd09dbb2d50200b3e800a63d2884563918244f4000089454e334e51585857381ca0838bb4f3bfd21b88e75155d6e6a96ebe3a27abdc1b73d97ee57700c412260198a05f237d5b0ea3565ed4167a74f7de2bd7a03ef7d22b7afe2d681c51a4646f5ec9",
      "networkId": 0,
      "chainId": 0
    }
  ]
}