{
  "hash": "0x85d4f4652db232e31333f8f3e310ca92f40350491cc7aa03bee92040c311198a",
  "parentHash": "0x835e9ed829105a692f60693a19fd67213059db5c69910d1ccd9f1178d28aa1d4",
  "number": 91155,
  "timestamp": 1439651279,
  "nonce": "0xdc4f94636dddd0bb",
  "difficulty": 3438981858490,
  "gasLimit": {
    "_hex": "0x2fefd8"
  },
  "gasUsed": {
    "_hex": "0x5208"
  },
  "miner": "0x123843545FB525C8E134c9A5F15ADA6865cc3848",
  "extraData": "0x476574682f76312e302e312f77696e646f77732f676f312e342e32",
  "transactions": [
    {
      "hash": "0x75655bab8928c781e995c7ae221b8b18364b40f98f57d8436474df1c8a31a00e",
      "blockHash": "0x85d4f4652db232e31333f8f3e310ca92f40350491cc7aa03bee92040c311198a",
      "blockNumber": 91155,
      "transactionIndex": 0,
      "confirmations": null,
      "from": "0xa8E7201ff619fAFFc332E6aD37Ed41e301bf014a",
      "gasPrice": {
        "_hex": "0xdbd0d39ca"
      },
      "gasLimit": {
        "_hex": "0x15f90"
      },
      "to": "0x00C865a16eD3c930DD70B642507639D199C62180",
      "value": {
        "_hex": "0x1a055690d9db80000"
      },
      "nonce": 4,
      "data": "0x",
      "r": "0x4459a5985192b722534914c0d64aa0056eb5fca524dd249a4b5a8d5327a5f87f",
      "s": "0x3071032d35ac6519759b956de0c3d67923052a5203a98c88dcdf65fc3afc707d",
      "v": 28,
      "creates": null,
      "raw": "0xf86e04850dbd0d39ca83015f909400c865a16ed3c930dd70b642507639d199c621808901a055690d9db80000801ca04459a5985192b722534914c0d64aa0056eb5fca524dd249a4b5a8d5327a5f87fa03071032d35ac6519759b956de0c3d67923052a5203a98c88dcdf65fc3afc707d",
      "networkId": 0,
      "chainId": 0
    }
  ]
}