{
  "hash": "0x3080ea4949ac2847ab3f8cc49080c126d3f247924989b779686a9ae585d470d4",
  "parentHash": "0x838b3713ef5241bb5d67531b234eab233bf9c6e7a2d0b73f82023d040d414200",
  "number": 55869,
  "timestamp": 1439078398,
  "nonce": "0x351b743bfa947a55",
  "difficulty": 1606016380751,
  "gasLimit": {
    "_hex": "0x2fefd8"
  },
  "gasUsed": {
    "_hex": "0xf618"
  },
  "miner": "0x02020D22dCF88f5eDd66B382D7da019F161fB7e3",
  "extraData": "0x",
  "transactions": [
    {
      "hash": "0x3d84d92c4b18156b3d824149e273b8cc24bea5c7421ff8422fce7448794428be",
      "blockHash": "0x3080ea4949ac2847ab3f8cc49080c126d3f247924989b779686a9ae585d470d4",
      "blockNumber": 55869,
      "transactionIndex": 0,
      "confirmations": null,
      "from": "0xe6A7a1d47ff21B6321162AEA7C6CB457D5476Bca",
      "gasPrice": {
        "_hex": "0xd9dbd30ed"
      },
      "gasLimit": {
        "_hex": "0x55f0"
      },
      "to": "0x37aDAEB052b91843583623ac50Efa5dbCe92511b",
      "value": {
        "_hex": "0x21a8c2cc5b0b69f4"
      },
      "nonce": 331,
      "data": "0x",
      "r": "0xf0c1e7daa0acd33b08c2a04ae443af3682f9956103a2fb0b1196a76eedfef85f",
      "s": "0x7d06bd76a552daacefce396397330f28101c855d1945d8aa98703281abb31c47",
      "v": 28,
      "creates": null,
      "raw": "0xf86e82014b850d9dbd30ed8255f09437adaeb052b91843583623ac50efa5dbce92511b8821a8c2cc5b0b69f4801ca0f0c1e7daa0acd33b08c2a04ae443af3682f9956103a2fb0b1196a76eedfef85fa07d06bd76a552daacefce396397330f28101c855d1945d8aa98703281abb31c47",
      "networkId": 0,
      "chainId": 0
    },
    {
      "hash": "0x7ed77cd0d84c5f74ece7610a11dc81ad1c472d4f2d6242f769d65ad8b41750fc",
      "blockHash": "0x3080ea4949ac2847ab3f8cc49080c126d3f247924989b779686a9ae585d470d4",
      "blockNumber": 55869,
      "transactionIndex": 1,
      "confirmations": null,
      "from": "0xe6A7a1d47ff21B6321162AEA7C6CB457D5476Bca",
      "gasPrice": {
        "_hex": "0xd789dac16"
      },
      "gasLimit": {
        "_hex": "0x55f0"
      },
      "to": "0x7903428Eb39b4da60a93f8FCB5228b3b431b7B52",
      "value": {
        "_hex": "0x234b8cec67ef7208"
      },
      "nonce": 332,
      "data": "0x",
      "r": "0x70bca87d95c5f0bf4c1deabb59ed30a2fea5b2848aac9dfcdc73ef174d49cfe6",
      "s": "0x459805126e312740d1a329a81024a1a3b46378973d52eef67a804ce25b9280cd",
      "v": 27,
      "creates": null,
      "raw": "0xf86e82014c850d789dac168255f0947903428eb39b4da60a93f8fcb5228b3b431b7b5288234b8cec67ef7208801ba070bca87d95c5f0bf4c1deabb59ed30a2fea5b2848aac9dfcdc73ef174d49cfe6a0459805126e312740d1a329a81024a1a3b46378973d52eef67a804ce25b9280cd",
      "networkId": 0,
      "chainId": 0
    },
    {
      "hash": "0xbe42406fca3d46865b710964ec29de58ce80e062c096bc52f2934b7f35db2dfd",
      "blockHash": "0x3080ea4949ac2847ab3f8cc49080c126d3f247924989b779686a9ae585d470d4",
      "blockNumber": 55869,
      "transactionIndex": 2,
      "confirmations": null,
      "from": "0xe6A7a1d47ff21B6321162AEA7C6CB457D5476Bca",
      "gasPrice": {
        "_hex": "0xd59799367"
      },
      "gasLimit": {
        "_hex": "0x55f0"
      },
      "to": "0x5323A068accf78eACa5cE1a689e8a5591827787C",
      "value": {
        "_hex": "0x2432fff651e90400"
      },
      "nonce": 333,
      "data": "0x",
      "r": "0x37cd48c70c9c9b2a6317a0144ea1b7db0931ef7272f35a38d5d4d93b29be7ae8",
      "s": "0x14e247e74ef0901bb5085f0cd43c2e956eaa8341844f2953cb3a2cca5df4c4a6",
      "v": 27,
      "creates": null,
      "raw": "0xf86e82014d850d597993678255f0945323a068accf78eaca5ce1a689e8a5591827787c882432fff651e90400801ba037cd48c70c9c9b2a6317a0144ea1b7db0931ef7272f35a38d5d4d93b29be7ae8a014e247e74ef0901bb5085f0cd43c2e956eaa8341844f2953cb3a2cca5df4c4a6",
      "networkId": 0,
      "chainId": 0
    }
  ]
}