{
  "hash": "0x40dc906e277b1d9190bdd32720111c3ba94a35713f71a6f5fa98bfd38dd0f2f4",
  "parentHash": "0xcaef451beac2a361d821dea7e3cb77c3bb718bfba04b20a6d68282479b17d899",
  "number": 48583,
  "timestamp": 1438959389,
  "nonce": "0x9f7e5221fbf1d9c0",
  "difficulty": 1467859261249,
  "gasLimit": {
    "_hex": "0x19ef9"
  },
  "gasUsed": {
    "_hex": "0x546c"
  },
  "miner": "0xa50ec0D39fa913E62f1Bae7074E6F36caA71855b",
  "extraData": "0x476574682f76312e302e302f6c696e75782f676f312e342e32",
  "transactions": [
    {
      "hash": "0x273cfd321606a2c47221ae2c3c503ce6a48d1b7bc44508795627c805d08c734f",
      "blockHash": "0x40dc906e277b1d9190bdd32720111c3ba94a35713f71a6f5fa98bfd38dd0f2f4",
      "blockNumber": 48583,
      "transactionIndex": 0,
      "confirmations": null,
      "from": "0x45272b8F62E9f9fA8ce04420E1AEa3eba9686EAC",
      "gasPrice": {
        "_hex": "0x110c8f7d8de"
      },
      "gasLimit": {
        "_hex": "0xc350"
      },
      "to": "0x2910543Af39abA0Cd09dBb2D50200b3E800A63D2",
      "value": {
        "_hex": "0xd621430800c8f80000"
      },
      "nonce": 0,
      "data": "0x454e47354a34375130",
      "r": "0x4a466e74a265b72538f47dda0eee950f4d8031e0c12e5c70f050067e297e5b58",
      "s": "0x9e72e58b8dcceef9083a78d24a7cb8bbc79c4a7cdf880b276f074b52336de0e7",
      "v": 28,
      "creates": null,
      "raw": "0xf87780860110c8f7d8de82c350942910543af39aba0cd09dbb2d50200b3e800a63d289d621430800c8f8000089454e47354a343751301ca04a466e74a265b72538f47dda0eee950f4d8031e0c12e5c70f050067e297e5b58a09e72e58b8dcceef9083a78d24a7cb8bbc79c4a7cdf880b276f074b52336de0e7",
      "networkId": 0,
      "chainId": 0
    }
  ]
}