{
  "hash": "0xaa993268afc74d32c76b721ae70e90e870168fcd543feecdb0f5b0125988e670",
  "parentHash": "0xae474911bf91bd89b458b2b011d09c8766cef8ce17afc5e23519dac61c6bbc01",
  "number": 65223,
  "timestamp": 1439233267,
  "nonce": "0x8aa427ca728c212a",
  "difficulty": 1948339914714,
  "gasLimit": {
    "_hex": "0x2fefd8"
  },
  "gasUsed": {
    "_hex": "0xa410"
  },
  "miner": "0x52Dc504a422f0E2A9e7632A34a50f1a82F8224c7",
  "extraData": "0x476574682f76312e302e312f6c696e75782f676f312e342e32",
  "transactions": [
    {
      "hash": "0xa47b20a9ce3c46eb309b9880dc9f653fdca037a49f7a8443389296c9432da59a",
      "blockHash": "0xaa993268afc74d32c76b721ae70e90e870168fcd543feecdb0f5b0125988e670",
      "blockNumber": 65223,
      "transactionIndex": 0,
      "confirmations": null,
      "from": "0xE103d970E7ce1C01a211923eF2321EBdD03D42aE",
      "gasPrice": {
        "_hex": "0xba43b7400"
      },
      "gasLimit": {
        "_hex": "0x5208"
      },
      "to": "0xbe361D383A87f328b33Da79a70925b59837d48F6",
      "value": {
        "_hex": "0x68a8d6a99cc7000"
      },
      "nonce": 1,
      "data": "0x",
      "r": "0x74c23638128d0e02bf99ef013c887728e4a634df88a95a6de3a8f9284de310a2",
      "s": "0x013880a841be24f0e6533a8a9cdc3dff522809e94a345df094282c4595c1b731",
      "v": 28,
      "creates": null,
      "raw": "0xf86c01850ba43b740082520894be361d383a87f328b33da79a70925b59837d48f688068a8d6a99cc7000801ca074c23638128d0e02bf99ef013c887728e4a634df88a95a6de3a8f9284de310a2a0013880a841be24f0e6533a8a9cdc3dff522809e94a345df094282c4595c1b731",
      "networkId": 0,
      "chainId": 0
    },
    {
      "hash": "0xeae592adca8a81b0e1b19146c08ecf6558921bf06020bd6c59b787d26fedb3b8",
      "blockHash": "0xaa993268afc74d32c76b721ae70e90e870168fcd543feecdb0f5b0125988e670",
      "blockNumber": 65223,
      "transactionIndex": 1,
      "confirmations": null,
      "from": "0xe989d5904632E1B0FB9Cd0E0042f1dACdD31eCBa",
      "gasPrice": {
        "_hex": "0xba43b7400"
      },
      "gasLimit": {
        "_hex": "0x5208"
      },
      "to": "0xF4E3733ca53b0cDd82e56e909674e632125501eD",
      "value": {
        "_hex": "0x6fe3d4ad99ea000"
      },
      "nonce": 1,
      "data": "0x",
      "r": "0xd08bc9502387e33268594cdf941dc4c665aca0cfac9005def4e1e5fb661c4517",
      "s": "0x7761fc265d43badcfba6e46b95a6690d3559fa16517016c916ddf9a4d10e4dc7",
      "v": 27,
      "creates": null,
      "raw": "0xf86c01850ba43b740082520894f4e3733ca53b0cdd82e56e909674e632125501ed8806fe3d4ad99ea000801ba0d08bc9502387e33268594cdf941dc4c665aca0cfac9005def4e1e5fb661c4517a07761fc265d43badcfba6e46b95a6690d3559fa16517016c916ddf9a4d10e4dc7",
      "networkId": 0,
      "chainId": 0
    }
  ]
}