{
  "hash": "0x8ce2b4b4b84e649a6c817c25de21b0da602c3e0e41422fb26e9b386144011bd6",
  "parentHash": "0xc8623c949e9ef10ca0631eaa09154265d8b64cf1684093de1fc3a3ab20d6c809",
  "number": 113390,
  "timestamp": 1440022678,
  "nonce": "0x259b25073f65c01b",
  "difficulty": 4471221229844,
  "gasLimit": {
    "_hex": "0x2fefd8"
  },
  "gasUsed": {
    "_hex": "0x5208"
  },
  "miner": "0xe6A7a1d47ff21B6321162AEA7C6CB457D5476Bca",
  "extraData": "0x476574682f76312e302e312d38326566323666362f6c696e75782f676f312e34",
  "transactions": [
    {
      "hash": "0x4204cd643406600c87cca0a13509425ccb2405766f08d5a863bc65480b7bd93d",
      "blockHash": "0x8ce2b4b4b84e649a6c817c25de21b0da602c3e0e41422fb26e9b386144011bd6",
      "blockNumber": 113390,
      "transactionIndex": 0,
      "confirmations": null,
      "from": "0x08346c0900aefbB6730d0D188c647607eB329f9F",
      "gasPrice": {
        "_hex": "0xd112b5352"
      },
      "gasLimit": {
        "_hex": "0x5208"
      },
      "to": "0x32Be343B94f860124dC4fEe278FDCBD38C102D88",
      "value": {
        "_hex": "0x33bc5d500fd03c00"
      },
      "nonce": 2,
      "data": "0x",
      "r": "0x72341942772dda37c328145ee74bc5354ace89e5a113410ae22c048fba256a46",
      "s": "0x6e4e4ae90807a62053c2a22916093c24bfecd1e1f34338b3db01c1868636d6a1",
      "v": 28,
      "creates": null,
      "raw": "0xf86c02850d112b53528252089432be343b94f860124dc4fee278fdcbd38c102d888833bc5d500fd03c00801ca072341942772dda37c328145ee74bc5354ace89e5a113410ae22c048fba256a46a06e4e4ae90807a62053c2a22916093c24bfecd1e1f34338b3db01c1868636d6a1",
      "networkId": 0,
      "chainId": 0
    }
  ]
}