{
  "hash": "0x9ae89d4a0547b87337a08d24cfda6dcc422054a674f4ecc0d363fd54ba990d72",
  "parentHash": "0x73fc86a63681fab0204583666f90f34cf6817d049d979f909d2b428e950dec37",
  "number": 115790,
  "timestamp": 1440063437,
  "nonce": "0xa25cb33a04c8e699",
  "difficulty": 4553654802085,
  "gasLimit": {
    "_hex": "0x2fefd8"
  },
  "gasUsed": {
    "_hex": "0x5208"
  },
  "miner": "0xe6A7a1d47ff21B6321162AEA7C6CB457D5476Bca",
  "extraData": "0x476574682f76312e302e312d38326566323666362f6c696e75782f676f312e34",
  "transactions": [
    {
      "hash": "0x004e5e6532cfad8d77cb1f1de86bd3d8bd6961a7c460ccbb08153d98d8556778",
      "blockHash": "0x9ae89d4a0547b87337a08d24cfda6dcc422054a674f4ecc0d363fd54ba990d72",
      "blockNumber": 115790,
      "transactionIndex": 0,
      "confirmations": null,
      "from": "0xAF17A4ab5d6B10055Fc1eB1BFaCcbDe69B83aF76",
      "gasPrice": {
        "_hex": "0xcfe4d264d"
      },
      "gasLimit": {
        "_hex": "0x5208"
      },
      "to": "0x32Be343B94f860124dC4fEe278FDCBD38C102D88",
      "value": {
        "_hex": "0x1e5b4d0b2ab520000"
      },
      "nonce": 7,
      "data": "0x",
      "r": "0x5e97d4f51b107c93ea4802804f1e8e593d28e339741ed487b03a17b7b2ed1288",
      "s": "0x4b33fe8739d6e30763dc883b4e80b65fecc15422909cf6b263ecede17076e5c8",
      "v": 28,
      "creates": null,
      "raw": "0xf86d07850cfe4d264d8252089432be343b94f860124dc4fee278fdcbd38c102d888901e5b4d0b2ab520000801ca05e97d4f51b107c93ea4802804f1e8e593d28e339741ed487b03a17b7b2ed1288a04b33fe8739d6e30763dc883b4e80b65fecc15422909cf6b263ecede17076e5c8",
      "networkId": 0,
      "chainId": 0
    }
  ]
}