{
  "hash": "0xc381a087e3a39081d56748b83da8caa3a5df61c702994d65cced2f06fc5ed4f2",
  "parentHash": "0xe9e474ac9494c825a3b14d244304dd4db953cc387dd046609ac5555539433ef0",
  "number": 98976,
  "timestamp": 1439782262,
  "nonce": "0x0f0f7005872b76d5",
  "difficulty": 3827275854706,
  "gasLimit": {
    "_hex": "0x2fefd8"
  },
  "gasUsed": {
    "_hex": "0xa410"
  },
  "miner": "0x790b8a3cE86E707ED0eD32bF89B3269692a23CC1",
  "extraData": "0xd783010001844765746887676f312e342e32856c696e7578",
  "transactions": [
    {
      "hash": "0xe10cece6b9cfa5d14493c0828d9301fa1add207b7927eeb93c3c51e82a9f98a2",
      "blockHash": "0xc381a087e3a39081d56748b83da8caa3a5df61c702994d65cced2f06fc5ed4f2",
      "blockNumber": 98976,
      "transactionIndex": 0,
      "confirmations": null,
      "from": "0x3D5292e9d2a2D31014717ff936A0F9375A5Cc8b7",
      "gasPrice": {
        "_hex": "0xdebb38c54"
      },
      "gasLimit": {
        "_hex": "0x15f90"
      },
      "to": "0x9f78552704fe7e52cC7C3853534aA2C3cf580D54",
      "value": {
        "_hex": "0x1158e460913d00000"
      },
      "nonce": 7,
      "data": "0x",
      "r": "0x1d4905b7559d0a2ee7f352b9f80fde74ef699cbb0c64d6b3d65273a2a746017e",
      "s": "0x46ce7f48e36af0694c9c239ace070e45290850e3d833d468fbd64360e6e6282f",
      "v": 28,
      "creates": null,
      "raw": "0xf86e07850debb38c5483015f90949f78552704fe7e52cc7c3853534aa2c3cf580d548901158e460913d00000801ca01d4905b7559d0a2ee7f352b9f80fde74ef699cbb0c64d6b3d65273a2a746017ea046ce7f48e36af0694c9c239ace070e45290850e3d833d468fbd64360e6e6282f",
      "networkId": 0,
      "chainId": 0
    },
    {
      "hash": "0x7975c310b0b95330dc79d6c8b66727caea79677382a476d5f32becc761f9f262",
      "blockHash": "0xc381a087e3a39081d56748b83da8caa3a5df61c702994d65cced2f06fc5ed4f2",
      "blockNumber": 98976,
      "transactionIndex": 1,
      "confirmations": null,
      "from": "0x2910543Af39abA0Cd09dBb2D50200b3E800A63D2",
      "gasPrice": {
        "_hex": "0xd43981bfa"
      },
      "gasLimit": {
        "_hex": "0x5208"
      },
      "to": "0xaB6d462EDB374ee398555deBFcDd3e01A4386636",
      "value": {
        "_hex": "0xdcef33a6f838000"
      },
      "nonce": 938,
      "data": "0x",
      "r": "0x5e8e20efac15496f1dd1edaf13679cfeb809fdda44d94c045e79c2b5afce8c4b",
      "s": "0x67970c9b3d21631c6a4af65e40399162d35981ccf00492c6541a61956a6e0af2",
      "v": 28,
      "creates": null,
      "raw": "0xf86e8203aa850d43981bfa82520894ab6d462edb374ee398555debfcdd3e01a4386636880dcef33a6f838000801ca05e8e20efac15496f1dd1edaf13679cfeb809fdda44d94c045e79c2b5afce8c4ba067970c9b3d21631c6a4af65e40399162d35981ccf00492c6541a61956a6e0af2",
      "networkId": 0,
      "chainId": 0
    }
  ]
}