{
  "hash": "0x88b4547c708bc36489e29926dcb6486991724581de7c47a4b5c0fb9d23ffb16f",
  "parentHash": "0x458a591f379510ed04198711dfe8424ad224cac8508acf5b21c73bf2e1b1e8ff",
  "number": 101254,
  "timestamp": 1439819927,
  "nonce": "0xacfa548391cad504",
  "difficulty": 3815043391190,
  "gasLimit": {
    "_hex": "0x2fefd8"
  },
  "gasUsed": {
    "_hex": "0x5208"
  },
  "miner": "0xaA35779Ef4dfBEd0B3D6F46F5f11cb86261B17A5",
  "extraData": "0x476574682f76312e302e312f77696e646f77732f676f312e342e32",
  "transactions": [
    {
      "hash": "0x267e70acfecd5249190ab1825d7b389d9405705ef3ea668910d94a0372a63d2d",
      "blockHash": "0x88b4547c708bc36489e29926dcb6486991724581de7c47a4b5c0fb9d23ffb16f",
      "blockNumber": 101254,
      "transactionIndex": 0,
      "confirmations": null,
      "from": "0x120A270bbC009644e35F0bB6ab13f95b8199c4ad",
      "gasPrice": {
        "_hex": "0xda1e3c5cf"
      },
      "gasLimit": {
        "_hex": "0x3d090"
      },
      "to": "0x6aCdB36b4ba1c50356c8A71e94B1361448dDAfF9",
      "value": {
        "_hex": "0x9a3d0acc9edad5c00"
      },
      "nonce": 671,
      "data": "0x",
      "r": "0x841f41f2cb43b65ee8c9e4296aa95c51a358017932d6609296e84f1c55d0dc26",
      "s": "0x24fbd81b4e7880eb265688e4b180c9bc8eae8dbd8160f98889c8ad9e61e64b0d",
      "v": 27,
      "creates": null,
      "raw": "0xf87082029f850da1e3c5cf8303d090946acdb36b4ba1c50356c8a71e94b1361448ddaff98909a3d0acc9edad5c00801ba0841f41f2cb43b65ee8c9e4296aa95c51a358017932d6609296e84f1c55d0dc26a024fbd81b4e7880eb265688e4b180c9bc8eae8dbd8160f98889c8ad9e61e64b0d",
      "networkId": 0,
      "chainId": 0
    }
  ]
}