{
  "hash": "0x6583b91d7bc5df29ccd2f0c0fb25ab984e866406b9c5f9b4dad3638d79031d57",
  "parentHash": "0x55707ec36c7e6ea33a42b08aaeb9e8628f12936f0f2b4e5771da07dcbbba4109",
  "number": 75866,
  "timestamp": 1439410752,
  "nonce": "0x98df480e6f3935fe",
  "difficulty": 2232040036107,
  "gasLimit": {
    "_hex": "0x2fefd8"
  },
  "gasUsed": {
    "_hex": "0x546c"
  },
  "miner": "0x88D74a59454F6cF3B51ef6b9136AFb6b9D405A88",
  "extraData": "0x476574682f76312e302e312d38326566323666362f6c696e75782f676f312e34",
  "transactions": [
    {
      "hash": "0x80ed7229f49812a556adb24004c02b3b451d1a8f92272441d6ee41faac209571",
      "blockHash": "0x6583b91d7bc5df29ccd2f0c0fb25ab984e866406b9c5f9b4dad3638d79031d57",
      "blockNumber": 75866,
      "transactionIndex": 0,
      "confirmations": null,
      "from": "0x2ef9E465716AcAcFb8c8252fa8E7bc7969EbF6E4",
      "gasPrice": {
        "_hex": "0x110c8f7d8de"
      },
      "gasLimit": {
        "_hex": "0xc350"
      },
      "to": "0x2910543Af39abA0Cd09dBb2D50200b3E800A63D2",
      "value": {
        "_hex": "0x5c1a5c8a4fecac0000"
      },
      "nonce": 2,
      "data": "0x454e384e3358313947",
      "r": "0xebdb42de89ac4a0ae58636823a2d4f3ec557dc7e809b87876c46d3d0b9f55532",
      "s": "0x45336b6a657fd63135ac77f207c9407e81f4e2b418fa1c85a458e034ce24d6cb",
      "v": 27,
      "creates": null,
      "raw": "0xf87702860110c8f7d8de82c350942910543af39aba0cd09dbb2d50200b3e800a63d2895c1a5c8a4fecac000089454e384e33583139471ba0ebdb42de89ac4a0ae58636823a2d4f3ec557dc7e809b87876c46d3d0b9f55532a045336b6a657fd63135ac77f207c9407e81f4e2b418fa1c85a458e034ce24d6cb",
      "networkId": 0,
      "chainId": 0
    }
  ]
}