{
  "hash": "0x4d7fa8049c2da92f37d6107f6330d344104ddf3714073aa46867166f65b56bc6",
  "parentHash": "0xb428af39ccf0449e4f032418411d74b8356f58ee22a359069be2cec23bbb01b6",
  "number": 76289,
  "timestamp": 1439417900,
  "nonce": "0xd628381338d8a4ed",
  "difficulty": 2230837944714,
  "gasLimit": {
    "_hex": "0x2fefd8"
  },
  "gasUsed": {
    "_hex": "0x567e"
  },
  "miner": "0x7998276dDecB82491dEe4Cd6cC504C55e87b5570",
  "extraData": "0x",
  "transactions": [
    {
      "hash": "0x78bd703e45a8f9aacdf5767d9e0a87dbf70992eb793e79f49cfdd8d9a3bfa829",
      "blockHash": "0x4d7fa8049c2da92f37d6107f6330d344104ddf3714073aa46867166f65b56bc6",
      "blockNumber": 76289,
      "transactionIndex": 0,
      "confirmations": null,
      "from": "0xc8ebccC5F5689Fa8659d83713341e5aD19349448",
      "gasPrice": {
        "_hex": "0xde7b94ee8"
      },
      "gasLimit": {
        "_hex": "0x493e0"
      },
      "to": "0xD79B4C6791784184e2755B2fC1659eaaB0f80456",
      "value": {
        "_hex": "0x0"
      },
      "nonce": 55,
      "data": "0xbd66528a7300000000000000000000000000000000000000000000000000000000000000",
      "r": "0x669201aeeb3162b7b47bafe1c709725633c5e4b42cde9b248ac5306c7fa4c9ea",
      "s": "0x51c4f42330f7d53cd2498f9d6cfb93f8cb0d87083573f785dd100241e8a31f45",
      "v": 28,
      "creates": null,
      "raw": "0xf88937850de7b94ee8830493e094d79b4c6791784184e2755b2fc1659eaab0f8045680a4bd66528a73000000000000000000000000000000000000000000000000000000000000001ca0669201aeeb3162b7b47bafe1c709725633c5e4b42cde9b248ac5306c7fa4c9eaa051c4f42330f7d53cd2498f9d6cfb93f8cb0d87083573f785dd100241e8a31f45",
      "networkId": 0,
      "chainId": 0
    }
  ]
}