{
  "hash": "0x4be28256aa2226c17ca8e4dc9b744df15a1d3b045b4a22cb2b98c5ec703ad407",
  "parentHash": "0x4c836271f0d58f80e332fc2360ba1a0e3843b7e8f230b86c58c2afb955f4c21b",
  "number": 103710,
  "timestamp": 1439857804,
  "nonce": "0xc1697ea7f5cb2755",
  "difficulty": 4209281974486,
  "gasLimit": {
    "_hex": "0x2fefd8"
  },
  "gasUsed": {
    "_hex": "0x5208"
  },
  "miner": "0xe6A7a1d47ff21B6321162AEA7C6CB457D5476Bca",
  "extraData": "0x476574682f76312e302e312d38326566323666362f6c696e75782f676f312e34",
  "transactions": [
    {
      "hash": "0x05d23c3785cba38c10ce80b49a956eb82a1130c2b7d7675bf08967a21e5fbe18",
      "blockHash": "0x4be28256aa2226c17ca8e4dc9b744df15a1d3b045b4a22cb2b98c5ec703ad407",
      "blockNumber": 103710,
      "transactionIndex": 0,
      "confirmations": null,
      "from": "0x67a8Acb3621e0683EC4eeb0be82BE8cf344d97c6",
      "gasPrice": {
        "_hex": "0xba43b7400"
      },
      "gasLimit": {
        "_hex": "0x5208"
      },
      "to": "0xC47Aaa860008be6f65B58c6C6E02a84e666EfE31",
      "value": {
        "_hex": "0xddcfbbb7a606000"
      },
      "nonce": 0,
      "data": "0x",
      "r": "0xbd49fd13dba43809b7e7a5cc01732c13969828b860d5936978de01e1c885c268",
      "s": "0x135159daa69d3601d60312aebea231230f8870861c649f8b671622020bc61275",
      "v": 27,
      "creates": null,
      "raw": "0xf86c80850ba43b740082520894c47aaa860008be6f65b58c6c6e02a84e666efe31880ddcfbbb7a606000801ba0bd49fd13dba43809b7e7a5cc01732c13969828b860d5936978de01e1c885c268a0135159daa69d3601d60312aebea231230f8870861c649f8b671622020bc61275",
      "networkId": 0,
      "chainId": 0
    }
  ]
}