{
  "hash": "0x5eedaa7a40af3875945f2dea4e95caf2564c38f55b2364ed60f482dbe50019c5",
  "parentHash": "0xa3ce92f1472630634b9c050d87bee17f223512e530400906018b428947dd5b83",
  "number": 75749,
  "timestamp": 1439408625,
  "nonce": "0x446966f7ea08915e",
  "difficulty": 2224455040837,
  "gasLimit": {
    "_hex": "0x2fefd8"
  },
  "gasUsed": {
    "_hex": "0xad77"
  },
  "miner": "0x9746c7e1ef2bd21FF3997fa467593a89cb852BD0",
  "extraData": "0x476574682f76312e302e312f77696e646f77732f676f312e342e32",
  "transactions": [
    {
      "hash": "0x541bfa814517fda81964f61907d32555dee0d01f1e0be4e3d315a7cc54ebd2b5",
      "blockHash": "0x5eedaa7a40af3875945f2dea4e95caf2564c38f55b2364ed60f482dbe50019c5",
      "blockNumber": 75749,
      "transactionIndex": 0,
      "confirmations": null,
      "from": "0x87C5B5874A18B4306DF8a752a6C8cc3E82daFc19",
      "gasPrice": {
        "_hex": "0x111df0b133a"
      },
      "gasLimit": {
        "_hex": "0x493e0"
      },
      "to": "0xD79B4C6791784184e2755B2fC1659eaaB0f80456",
      "value": {
        "_hex": "0x0"
      },
      "nonce": 63,
      "data": "0x03750d94000000000000000000000000326be8f71bfb0379f989aab1cc1fe37f0a771f606264666435643664323732613838633200000000000000000000000000000000",
      "r": "0x1f8b20b554f8d325a2323732b5af5eaa8eafbd0ad209e0f8441aee79d48fbb65",
      "s": "0x6331b59a82bfe508ec8fad53e498996cbdc1600542eb14db4ef75f8c8e1e7956",
      "v": 28,
      "creates": null,
      "raw": "0xf8ab3f860111df0b133a830493e094d79b4c6791784184e2755b2fc1659eaab0f8045680b84403750d94000000000000000000000000326be8f71bfb0379f989aab1cc1fe37f0a771f6062646664356436643237326138386332000000000000000000000000000000001ca01f8b20b554f8d325a2323732b5af5eaa8eafbd0ad209e0f8441aee79d48fbb65a06331b59a82bfe508ec8fad53e498996cbdc1600542eb14db4ef75f8c8e1e7956",
      "networkId": 0,
      "chainId": 0
    }
  ]
}