{
  "hash": "0xa4139c160a7804869d6c1a2f75d1699bab078fecd16862a7757d54f1fbd8989e",
  "parentHash": "0x99b027e903d7ba5d606e56c8965ee13c101ec7e086da6d8a6f3035aa39549c8e",
  "number": 96829,
  "timestamp": 1439746451,
  "nonce": "0x41fd8b332a059b3f",
  "difficulty": 3748715065234,
  "gasLimit": {
    "_hex": "0x2fefd5"
  },
  "gasUsed": {
    "_hex": "0x5208"
  },
  "miner": "0x790b8a3cE86E707ED0eD32bF89B3269692a23CC1",
  "extraData": "0xd783010001844765746887676f312e342e32856c696e7578",
  "transactions": [
    {
      "hash": "0xb4d81453fa2a142e5daa6bd36f05b5f415008bbe837f85e7c4c85afc92647841",
      "blockHash": "0xa4139c160a7804869d6c1a2f75d1699bab078fecd16862a7757d54f1fbd8989e",
      "blockNumber": 96829,
      "transactionIndex": 0,
      "confirmations": null,
      "from": "0xa70a9a7040d542C632D8e0bE7c5513A8a5Bbc752",
      "gasPrice": {
        "_hex": "0xde113ce6c"
      },
      "gasLimit": {
        "_hex": "0x5208"
      },
      "to": "0x32Be343B94f860124dC4fEe278FDCBD38C102D88",
      "value": {
        "_hex": "0x455f1ef9e27be400"
      },
      "nonce": 170,
      "data": "0x",
      "r": "0x51831912a55944f32b68f8dbbff781c8f90699df8897f6570e714006dead12ca",
      "s": "0x1c15ccbd05e1fc0184c57556ed2c4d108c468b235b8f631bf492b211a174f62e",
      "v": 27,
      "creates": null,
      "raw": "0xf86d81aa850de113ce6c8252089432be343b94f860124dc4fee278fdcbd38c102d8888455f1ef9e27be400801ba051831912a55944f32b68f8dbbff781c8f90699df8897f6570e714006dead12caa01c15ccbd05e1fc0184c57556ed2c4d108c468b235b8f631bf492b211a174f62e",
      "networkId": 0,
      "chainId": 0
    }
  ]
}