{
  "hash": "0xf7f512644274223d7d83ff4ddc58a5f74514f94f8e7044385fca6a08897dca6e",
  "parentHash": "0x55c48d8fa43d958f7ef6cf5ec69577dd299ec509506eaf3c7ac219db753be77c",
  "number": 99149,
  "timestamp": 1439785208,
  "nonce": "0xc6ea42728124e948",
  "difficulty": 3810415088155,
  "gasLimit": {
    "_hex": "0x2fefd8"
  },
  "gasUsed": {
    "_hex": "0x5208"
  },
  "miner": "0xe6A7a1d47ff21B6321162AEA7C6CB457D5476Bca",
  "extraData": "0x476574682f76312e302e312d38326566323666362f6c696e75782f676f312e34",
  "transactions": [
    {
      "hash": "0xd3c066ddb508b2a3bd363b2e9b5931d15d702508e5e75d2cca2a5cc2b76f8778",
      "blockHash": "0xf7f512644274223d7d83ff4ddc58a5f74514f94f8e7044385fca6a08897dca6e",
      "blockNumber": 99149,
      "transactionIndex": 0,
      "confirmations": null,
      "from": "0x2910543Af39abA0Cd09dBb2D50200b3E800A63D2",
      "gasPrice": {
        "_hex": "0xcb2c2213e"
      },
      "gasLimit": {
        "_hex": "0x5208"
      },
      "to": "0x2E13e511567AA30aB8F8e7543C5dbE44F341DE2f",
      "value": {
        "_hex": "0xdcef33a6f838000"
      },
      "nonce": 940,
      "data": "0x",
      "r": "0x729f32868fc8a0b0d7f5b33b4ad6ca076b5fc99f47b374ef206ddaed95e42fcf",
      "s": "0x6129552e913accb6e9dd66e3ace2fce94326d6b4712a04c1e843e9b19448028c",
      "v": 28,
      "creates": null,
      "raw": "0xf86e8203ac850cb2c2213e825208942e13e511567aa30ab8f8e7543c5dbe44f341de2f880dcef33a6f838000801ca0729f32868fc8a0b0d7f5b33b4ad6ca076b5fc99f47b374ef206ddaed95e42fcfa06129552e913accb6e9dd66e3ace2fce94326d6b4712a04c1e843e9b19448028c",
      "networkId": 0,
      "chainId": 0
    }
  ]
}