{
  "hash": "0x3c8ecce19d1f130799cf5aaf6d4fb0b9717c0d44d537e26424f811757b9b84b7",
  "parentHash": "0x49180008b72fc33e89b5fc07e4e8c12867ebf751881c7d059632e0e35ecf71d0",
  "number": 110361,
  "timestamp": 1439972512,
  "nonce": "0x16ea25d3b9be460c",
  "difficulty": 4362827325510,
  "gasLimit": {
    "_hex": "0x2fefd8"
  },
  "gasUsed": {
    "_hex": "0x1ec30"
  },
  "miner": "0xe6A7a1d47ff21B6321162AEA7C6CB457D5476Bca",
  "extraData": "0x476574682f76312e302e312d38326566323666362f6c696e75782f676f312e34",
  "transactions": [
    {
      "hash": "0x9d2c919fdd8942d34ccf3a42cfe49535a9e3d3b85b506d581cd87f80065437cb",
      "blockHash": "0x3c8ecce19d1f130799cf5aaf6d4fb0b9717c0d44d537e26424f811757b9b84b7",
      "blockNumber": 110361,
      "transactionIndex": 0,
      "confirmations": null,
      "from": "0x6111E933E5e6297DFd0AAd9aAB64017c69062a08",
      "gasPrice": {
        "_hex": "0xdd29d2f4b"
      },
      "gasLimit": {
        "_hex": "0x5208"
      },
      "to": "0x32Be343B94f860124dC4fEe278FDCBD38C102D88",
      "value": {
        "_hex": "0xa2f5854887bec000"
      },
      "nonce": 17,
      "data": "0x",
      "r": "0x595bfc9762af7cd109c168f3d407727b33891a84e692df5281d8842a367931bf",
      "s": "0x26c0ac81f93c64f02361de57ecbbeac858fb8d1be2b656d41fd7e4d98af68f5d",
      "v": 27,
      "creates": null,
      "raw": "0xf86c11850dd29d2f4b8252089432be343b94f860124dc4fee278fdcbd38c102d8888a2f5854887bec000801ba0595bfc9762af7cd109c168f3d407727b33891a84e692df5281d8842a367931bfa026c0ac81f93c64f02361de57ecbbeac858fb8d1be2b656d41fd7e4d98af68f5d",
      "networkId": 0,
      "chainId": 0
    },
    {
      "hash": "0x7a245ea4635df2bcfaca8ea888b4ef3a19af92f3603151ef4895776bc60aef07",
      "blockHash": "0x3c8ecce19d1f130799cf5aaf6d4fb0b9717c0d44d537e26424f811757b9b84b7",
      "blockNumber": 110361,
      "transactionIndex": 1,
      "confirmations": null,
      "from": "0xdCB14605B0EE4F372D223e5DF87aa9e760886D01",
      "gasPrice": {
        "_hex": "0xdd29d2f4b"
      },
      "gasLimit": {
        "_hex": "0x5208"
      },
      "to": "0x32Be343B94f860124dC4fEe278FDCBD38C102D88",
      "value": {
        "_hex": "0x32be4b20fb6294000"
      },
      "nonce": 9,
      "data": "0x",
      "r": "0xdab7f1053957741f17cf8f89f14a5019c2f41b565f37ecf774929db4376c94d4",
      "s": "0x74f740281ae4069cf45518bda8915d25f1d1828be84b6820711830088ed82c68",
      "v": 27,
      "creates": null,
      "raw": "0xf86d09850dd29d2f4b8252089432be343b94f860124dc4fee278fdcbd38c102d8889032be4b20fb6294000801ba0dab7f1053957741f17cf8f89f14a5019c2f41b565f37ecf774929db4376c94d4a074f740281ae4069cf45518bda8915d25f1d1828be84b6820711830088ed82c68",
      "networkId": 0,
      "chainId": 0
    },
    {
      "hash": "0x328fc5ef786c7e869c968b3f53aff86af5799c34dc9d10932b6e922f3e24e6a0",
      "blockHash": "0x3c8ecce19d1f130799cf5aaf6d4fb0b9717c0d44d537e26424f811757b9b84b7",
      "blockNumber": 110361,
      "transactionIndex": 2,
      "confirmations": null,
      "from": "0x86d3856ad0105B9d4199936c1fd203664BA325dC",
      "gasPrice": {
        "_hex": "0xdd29d2f4b"
      },
      "gasLimit": {
        "_hex": "0x5208"
      },
      "to": "0x32Be343B94f860124dC4fEe278FDCBD38C102D88",
      "value": {
        "_hex": "0x20f356e6b8f650000"
      },
      "nonce": 27,
      "data": "0x",
      "r": "0x34d8b265908c96655a2bd375072abf56c61a0a20dafad646f812dcf43c26eb5a",
      "s": "0x38608e24e03e97add9befaac6e11bd360847793ae48c817304f68d1c27d7365a",
      "v": 28,
      "creates": null,
      "raw": "0xf86d1b850dd29d2f4b8252089432be343b94f860124dc4fee278fdcbd38c102d8889020f356e6b8f650000801ca034d8b265908c96655a2bd375072abf56c61a0a20dafad646f812dcf43c26eb5aa038608e24e03e97add9befaac6e11bd360847793ae48c817304f68d1c27d7365a",
      "networkId": 0,
      "chainId": 0
    },
    {
      "hash": "0x14f3a101ee020531981d1e94a99ac9459610f474f463335b4f8c9e81b9324c4e",
      "blockHash": "0x3c8ecce19d1f130799cf5aaf6d4fb0b9717c0d44d537e26424f811757b9b84b7",
      "blockNumber": 110361,
      "transactionIndex": 3,
      "confirmations": null,
      "from": "0x771b12Bc207A1c4823e77075B17F8D329ACD77A3",
      "gasPrice": {
        "_hex": "0xdd29d2f4b"
      },
      "gasLimit": {
        "_hex": "0x5208"
      },
      "to": "0x32Be343B94f860124dC4fEe278FDCBD38C102D88",
      "value": {
        "_hex": "0x152b9fa1428afa000"
      },
      "nonce": 9,
      "data": "0x",
      "r": "0xb608791e12081b2091bca6ec3b24df5bba20f00c85a66f98a018d554250ab6fe",
      "s": "0x32882102831ebba5379345d0e8f0c529d4a42b1570d76e185dd6d9020039c8d5",
      "v": 28,
      "creates": null,
      "raw": "0xf86d09850dd29d2f4b8252089432be343b94f860124dc4fee278fdcbd38c102d88890152b9fa1428afa000801ca0b608791e12081b2091bca6ec3b24df5bba20f00c85a66f98a018d554250ab6fea032882102831ebba5379345d0e8f0c529d4a42b1570d76e185dd6d9020039c8d5",
      "networkId": 0,
      "chainId": 0
    },
    {
      "hash": "0xd8371b2b99a9780288397b22c6e1343cfc18b905b6ae697910d363d912962678",
      "blockHash": "0x3c8ecce19d1f130799cf5aaf6d4fb0b9717c0d44d537e26424f811757b9b84b7",
      "blockNumber": 110361,
      "transactionIndex": 4,
      "confirmations": null,
      "from": "0x097738363B1662599ad0777E19461601F5EC8dF9",
      "gasPrice": {
        "_hex": "0xdd29d2f4b"
      },
      "gasLimit": {
        "_hex": "0x5208"
      },
      "to": "0x32Be343B94f860124dC4fEe278FDCBD38C102D88",
      "value": {
        "_hex": "0x75519cbff12bd4000"
      },
      "nonce": 22,
      "data": "0x",
      "r": "0x4e8b2e32bea9548a566f220bc6b7f0239e31aba6277ab0ea7f217b07237c56db",
      "s": "0x2f96b068ab859ecd67763e5ea42e90e3b83e15618b724646b92bfacf17a71a41",
      "v": 27,
      "creates": null,
      "raw": "0xf86d16850dd29d2f4b8252089432be343b94f860124dc4fee278fdcbd38c102d8889075519cbff12bd4000801ba04e8b2e32bea9548a566f220bc6b7f0239e31aba6277ab0ea7f217b07237c56dba02f96b068ab859ecd67763e5ea42e90e3b83e15618b724646b92bfacf17a71a41",
      "networkId": 0,
      "chainId": 0
    },
    {
      "hash": "0x9bf3c4191a2089b5ecc51109ec7e047fe657a11790a9a669d629566cedbe27ee",
      "blockHash": "0x3c8ecce19d1f130799cf5aaf6d4fb0b9717c0d44d537e26424f811757b9b84b7",
      "blockNumber": 110361,
      "transactionIndex": 5,
      "confirmations": null,
      "from": "0x8e33bFA30c0c6eb3652321FF52E2fB3143fa51BF",
      "gasPrice": {
        "_hex": "0xd97a1b590"
      },
      "gasLimit": {
        "_hex": "0x15f90"
      },
      "to": "0xbcc72eA5bC902a76b1A86a7B02Dc73fe8055D1C7",
      "value": {
        "_hex": "0xde0b6b3a76400000"
      },
      "nonce": 3,
      "data": "0x",
      "r": "0x3e6ddc94d69e564baccee55aae4f447dece3adcd49afdf156ba1af03e16b0dbb",
      "s": "0x119282b3ee26556696f41d5087e9d588def710a8d51fedddc8f0695ee9be43ca",
      "v": 27,
      "creates": null,
      "raw": "0xf86d03850d97a1b59083015f9094bcc72ea5bc902a76b1a86a7b02dc73fe8055d1c788de0b6b3a76400000801ba03e6ddc94d69e564baccee55aae4f447dece3adcd49afdf156ba1af03e16b0dbba0119282b3ee26556696f41d5087e9d588def710a8d51fedddc8f0695ee9be43ca",
      "networkId": 0,
      "chainId": 0
    }
  ]
}