{
  "hash": "0x2e832fefdde7473c4ae6f41145a2093cd27f5763decb08646224516f617cb08b",
  "parentHash": "0x803ef266166bbf01bd0dd6c6965e5ab6e80a5bdbdae44bfcf3d87d9cc615236d",
  "number": 89887,
  "timestamp": 1439630751,
  "nonce": "0x1327dde4270ff281",
  "difficulty": 3333679373982,
  "gasLimit": {
    "_hex": "0x2fefd8"
  },
  "gasUsed": {
    "_hex": "0x5208"
  },
  "miner": "0xF11940EA05aA9CC3F13aCF5C5cA6EDCF312E3Aec",
  "extraData": "0x476574682f76312e302e312f77696e646f77732f676f312e342e32",
  "transactions": [
    {
      "hash": "0x7a66879e8a17171de41aaa603dc7d143ac32ce3babfac5df571fd8d0035adb42",
      "blockHash": "0x2e832fefdde7473c4ae6f41145a2093cd27f5763decb08646224516f617cb08b",
      "blockNumber": 89887,
      "transactionIndex": 0,
      "confirmations": null,
      "from": "0x10a3287DC19D160c0EF7dAE4e51670b0394ef951",
      "gasPrice": {
        "_hex": "0xd59bb40af"
      },
      "gasLimit": {
        "_hex": "0x5208"
      },
      "to": "0x32Be343B94f860124dC4fEe278FDCBD38C102D88",
      "value": {
        "_hex": "0x28f53e43b02258000"
      },
      "nonce": 1,
      "data": "0x",
      "r": "0xbd42ff9326c75edf8fb35f4998a1254e7e767d69214910442a176750f47ca7ad",
      "s": "0x3e6a0cabe99d769594caa7f072878b1d9b39ea39d204b227a3dbb8be016d865e",
      "v": 27,
      "creates": null,
      "raw": "0xf86d01850d59bb40af8252089432be343b94f860124dc4fee278fdcbd38c102d8889028f53e43b02258000801ba0bd42ff9326c75edf8fb35f4998a1254e7e767d69214910442a176750f47ca7ada03e6a0cabe99d769594caa7f072878b1d9b39ea39d204b227a3dbb8be016d865e",
      "networkId": 0,
      "chainId": 0
    }
  ]
}