{
  "hash": "0x55fa28dfb67d718088da3940cf6e40a20997548bb2dd1b444fe1c692233afaa8",
  "parentHash": "0x876df44f43e6c4bcbb8b80428eeb5dddb5ba90a3903163da3d2edec543d86fbd",
  "number": 86598,
  "timestamp": 1439580370,
  "nonce": "0x34e6391a73aa9ccd",
  "difficulty": 2907407086540,
  "gasLimit": {
    "_hex": "0x2fefd8"
  },
  "gasUsed": {
    "_hex": "0xf618"
  },
  "miner": "0x007f7f58D3eb5b7510A301eCC749FC1fCDDBE14D",
  "extraData": "0x476574682f76312e302e312f77696e646f77732f676f312e342e32",
  "transactions": [
    {
      "hash": "0x65da5745c075aacddf967f44a46b3e262d317ccb659a5011cf2b39443ef532f3",
      "blockHash": "0x55fa28dfb67d718088da3940cf6e40a20997548bb2dd1b444fe1c692233afaa8",
      "blockNumber": 86598,
      "transactionIndex": 0,
      "confirmations": null,
      "from": "0x32Be343B94f860124dC4fEe278FDCBD38C102D88",
      "gasPrice": {
        "_hex": "0xd6bfcbf48"
      },
      "gasLimit": {
        "_hex": "0x5208"
      },
      "to": "0x8A243A0A9fEA49b839547745ff2D11Af3F4b0522",
      "value": {
        "_hex": "0x114dca34ce50b0000"
      },
      "nonce": 761,
      "data": "0x",
      "r": "0x73961382a3fd989f3b0dd08b89f61fb48553c35456901babd5abb2f11e4fd474",
      "s": "0x777ac9a36ad3c5422285fadcc11ebc75be864be26f45fcd80bd42f052388b66a",
      "v": 27,
      "creates": null,
      "raw": "0xf86f8202f9850d6bfcbf48825208948a243a0a9fea49b839547745ff2d11af3f4b0522890114dca34ce50b0000801ba073961382a3fd989f3b0dd08b89f61fb48553c35456901babd5abb2f11e4fd474a0777ac9a36ad3c5422285fadcc11ebc75be864be26f45fcd80bd42f052388b66a",
      "networkId": 0,
      "chainId": 0
    },
    {
      "hash": "0x909e806a1dc8c637548a2fc3efe91b3feba67b17d79a9ffcb818c426d0a0b604",
      "blockHash": "0x55fa28dfb67d718088da3940cf6e40a20997548bb2dd1b444fe1c692233afaa8",
      "blockNumber": 86598,
      "transactionIndex": 1,
      "confirmations": null,
      "from": "0x2aBD9e50d51e97aFc9a984f64657eD9539c59c91",
      "gasPrice": {
        "_hex": "0xd6bfcbf48"
      },
      "gasLimit": {
        "_hex": "0x5208"
      },
      "to": "0x32Be343B94f860124dC4fEe278FDCBD38C102D88",
      "value": {
        "_hex": "0x15af192bb3c16d0000"
      },
      "nonce": 6,
      "data": "0x",
      "r": "0x7c51194a9a3011ae8973916d8bc8903d8e273d1a803c83297d5ca8f1152c95af",
      "s": "0x4d6ac13ec35abaeddb0bcf93b222a0d541b9fa6c03e3d5a0be81784a439342a6",
      "v": 27,
      "creates": null,
      "raw": "0xf86d06850d6bfcbf488252089432be343b94f860124dc4fee278fdcbd38c102d888915af192bb3c16d0000801ba07c51194a9a3011ae8973916d8bc8903d8e273d1a803c83297d5ca8f1152c95afa04d6ac13ec35abaeddb0bcf93b222a0d541b9fa6c03e3d5a0be81784a439342a6",
      "networkId": 0,
      "chainId": 0
    },
    {
      "hash": "0xa404386e504730e3913c5623e556413e1c22dbd5ca9f941df70976e788a522d5",
      "blockHash": "0x55fa28dfb67d718088da3940cf6e40a20997548bb2dd1b444fe1c692233afaa8",
      "blockNumber": 86598,
      "transactionIndex": 2,
      "confirmations": null,
      "from": "0x4717DdA36062a4D937DF7601Bd07354806A957EA",
      "gasPrice": {
        "_hex": "0xd6bfcbf48"
      },
      "gasLimit": {
        "_hex": "0x5208"
      },
      "to": "0x32Be343B94f860124dC4fEe278FDCBD38C102D88",
      "value": {
        "_hex": "0xa4f9bf905789280000"
      },
      "nonce": 4,
      "data": "0x",
      "r": "0x00eff69099163c8268a3a57446ee8766232f780461400129c8db0bf92be27845",
      "s": "0x5406189e7e185dd1b33fb13fb5cb3f96c705f3d0ec572ca974cd447b5e0f862e",
      "v": 27,
      "creates": null,
      "raw": "0xf86c04850d6bfcbf488252089432be343b94f860124dc4fee278fdcbd38c102d8889a4f9bf905789280000801b9feff69099163c8268a3a57446ee8766232f780461400129c8db0bf92be27845a05406189e7e185dd1b33fb13fb5cb3f96c705f3d0ec572ca974cd447b5e0f862e",
      "networkId": 0,
      "chainId": 0
    }
  ]
}