{
  "hash": "0xd8a6bb14a205e120ae7d7c4e59ec7eb66aee91b93c0f8b9c9aeede5fc70843b1",
  "parentHash": "0xc3c32b041264d72825ac235b3a5f5c4832a6539f49a04ba1fbbd23da102b0c9c",
  "number": 80345,
  "timestamp": 1439484233,
  "nonce": "0xd9a4362ee66985f2",
  "difficulty": 2382856593072,
  "gasLimit": {
    "_hex": "0x2fefd8"
  },
  "gasUsed": {
    "_hex": "0x112e7"
  },
  "miner": "0xa50ec0D39fa913E62f1Bae7074E6F36caA71855b",
  "extraData": "0xd783010001844765746887676f312e342e32856c696e7578",
  "transactions": [
    {
      "hash": "0xa0e857cd128f86eafebab289684584bc88500f406d3f585a1affcd884d58d555",
      "blockHash": "0xd8a6bb14a205e120ae7d7c4e59ec7eb66aee91b93c0f8b9c9aeede5fc70843b1",
      "blockNumber": 80345,
      "transactionIndex": 0,
      "confirmations": null,
      "from": "0x87C5B5874A18B4306DF8a752a6C8cc3E82daFc19",
      "gasPrice": {
        "_hex": "0x116be9087fa"
      },
      "gasLimit": {
        "_hex": "0x493e0"
      },
      "to": "0xC4c51de1AbF5D60DBd329eC0F999Fd8f021ae9fC",
      "value": {
        "_hex": "0x0"
      },
      "nonce": 180,
      "data": "0xbd66528a6b6b6b0000000000000000000000000000000000000000000000000000000000",
      "r": "0xf3d6c74766c841d9dfa3cbd242aacc6f49069f142d8ffe83a262263a25cb971e",
      "s": "0x73222f14f63bdaaf266d3bf612bbf96fa55fe07966c55981e4d214b9ab996c12",
      "v": 27,
      "creates": null,
      "raw": "0xf88b81b4860116be9087fa830493e094c4c51de1abf5d60dbd329ec0f999fd8f021ae9fc80a4bd66528a6b6b6b00000000000000000000000000000000000000000000000000000000001ba0f3d6c74766c841d9dfa3cbd242aacc6f49069f142d8ffe83a262263a25cb971ea073222f14f63bdaaf266d3bf612bbf96fa55fe07966c55981e4d214b9ab996c12",
      "networkId": 0,
      "chainId": 0
    },
    {
      "hash": "0x5b46a1adaea5df99d690bc7318fab3b91c05852675a9e75b1ffa942b223fbdb2",
      "blockHash": "0xd8a6bb14a205e120ae7d7c4e59ec7eb66aee91b93c0f8b9c9aeede5fc70843b1",
      "blockNumber": 80345,
      "transactionIndex": 1,
      "confirmations": null,
      "from": "0xdD81AaddCc8448A5fC0ac28DB93ec6801C21E8Ef",
      "gasPrice": {
        "_hex": "0xd93ece7fe"
      },
      "gasLimit": {
        "_hex": "0x5208"
      },
      "to": "0x32Be343B94f860124dC4fEe278FDCBD38C102D88",
      "value": {
        "_hex": "0x340a6784d83428000"
      },
      "nonce": 7,
      "data": "0x",
      "r": "0xcf3fd1430f8705bd798dde291b12900ffb147b683ed660b5748a37bdaab79751",
      "s": "0x78eb637ef737c49789ff0473938f82a6f10dc2295969898ca4546a597fdb9fe4",
      "v": 28,
      "creates": null,
      "raw": "0xf86d07850d93ece7fe8252089432be343b94f860124dc4fee278fdcbd38c102d88890340a6784d83428000801ca0cf3fd1430f8705bd798dde291b12900ffb147b683ed660b5748a37bdaab79751a078eb637ef737c49789ff0473938f82a6f10dc2295969898ca4546a597fdb9fe4",
      "networkId": 0,
      "chainId": 0
    },
    {
      "hash": "0xc511df62d7761acb846ca31e4414400013d2a2cb03a02fc1f536a54af9e23f32",
      "blockHash": "0xd8a6bb14a205e120ae7d7c4e59ec7eb66aee91b93c0f8b9c9aeede5fc70843b1",
      "blockNumber": 80345,
      "transactionIndex": 2,
      "confirmations": null,
      "from": "0xC603Ab5ef41fC61AA8b76bEddb09e3Cfcbb174BD",
      "gasPrice": {
        "_hex": "0xd272b76af"
      },
      "gasLimit": {
        "_hex": "0x15f90"
      },
      "to": "0x8F79f76381Aad7B98C19aF55eE75fdfEeb012211",
      "value": {
        "_hex": "0x3860e639d80640000"
      },
      "nonce": 10,
      "data": "0x",
      "r": "0xcb00ec948fdf365c4a63ed4344f03184584310eb2e0e61910274b674fbedcda4",
      "s": "0x5827f835cb0c36b02b802077f727b745818d9e379812820babb3b79db1abde75",
      "v": 28,
      "creates": null,
      "raw": "0xf86e0a850d272b76af83015f90948f79f76381aad7b98c19af55ee75fdfeeb0122118903860e639d80640000801ca0cb00ec948fdf365c4a63ed4344f03184584310eb2e0e61910274b674fbedcda4a05827f835cb0c36b02b802077f727b745818d9e379812820babb3b79db1abde75",
      "networkId": 0,
      "chainId": 0
    }
  ]
}