{
  "hash": "0xd6a7089ce566a54dc27accb9c352d4175b41ec35998beb05ff50ed9de39395fe",
  "parentHash": "0x5c19c953015a49774f4587a6c2db1c436bda2dd169b2b7772a6e10934a00f723",
  "number": 59358,
  "timestamp": 1439136788,
  "nonce": "0xf83665c17c63cf62",
  "difficulty": 1706383220766,
  "gasLimit": {
    "_hex": "0x2fefd8"
  },
  "gasUsed": {
    "_hex": "0xa410"
  },
  "miner": "0x88D74a59454F6cF3B51ef6b9136AFb6b9D405A88",
  "extraData": "0x476574682f76312e302e312d37666266393930632f6c696e75782f676f312e34",
  "transactions": [
    {
      "hash": "0x3a6f2229a0c117c86514f998067022bbbc0832b7355169dd47cd7fc3429bd88c",
      "blockHash": "0xd6a7089ce566a54dc27accb9c352d4175b41ec35998beb05ff50ed9de39395fe",
      "blockNumber": 59358,
      "transactionIndex": 0,
      "confirmations": null,
      "from": "0xeC210EC3715d5918B37CFa4D344a45d177eD849f",
      "gasPrice": {
        "_hex": "0xd43b22762"
      },
      "gasLimit": {
        "_hex": "0x5208"
      },
      "to": "0x32Be343B94f860124dC4fEe278FDCBD38C102D88",
      "value": {
        "_hex": "0x1e5b4ba75f5c16000"
      },
      "nonce": 3,
      "data": "0x",
      "r": "0xae2f19b60ef0d19ec82505f94987898dc6dca7dcc5417719db2c8398aadee31e",
      "s": "0x6b7e8f5ee85835a810d17527f9466e9e9b279b888be278d7f0ed98578014fbbf",
      "v": 28,
      "creates": null,
      "raw": "0xf86d03850d43b227628252089432be343b94f860124dc4fee278fdcbd38c102d888901e5b4ba75f5c16000801ca0ae2f19b60ef0d19ec82505f94987898dc6dca7dcc5417719db2c8398aadee31ea06b7e8f5ee85835a810d17527f9466e9e9b279b888be278d7f0ed98578014fbbf",
      "networkId": 0,
      "chainId": 0
    },
    {
      "hash": "0x08fce3c9917442b3761f542121cb61446dd601e2b9a22bc072f57c2db7545916",
      "blockHash": "0xd6a7089ce566a54dc27accb9c352d4175b41ec35998beb05ff50ed9de39395fe",
      "blockNumber": 59358,
      "transactionIndex": 1,
      "confirmations": null,
      "from": "0x01Ad0ACFf478127D9d702B1A13599D706cB759b1",
      "gasPrice": {
        "_hex": "0xd43b22762"
      },
      "gasLimit": {
        "_hex": "0x5208"
      },
      "to": "0x32Be343B94f860124dC4fEe278FDCBD38C102D88",
      "value": {
        "_hex": "0xddc7699ba796800"
      },
      "nonce": 0,
      "data": "0x",
      "r": "0xd233cbbd20836688707de8bbf436ae6e7624d5d71fd3b9efc26af387be5d5469",
      "s": "0x146f987f17039a1e97cd9064b651cb82bb02410571d44a18b484af7e8450614d",
      "v": 28,
      "creates": null,
      "raw": "0xf86c80850d43b227628252089432be343b94f860124dc4fee278fdcbd38c102d88880ddc7699ba796800801ca0d233cbbd20836688707de8bbf436ae6e7624d5d71fd3b9efc26af387be5d5469a0146f987f17039a1e97cd9064b651cb82bb02410571d44a18b484af7e8450614d",
      "networkId": 0,
      "chainId": 0
    }
  ]
}