{
  "hash": "0x1e74946355a700a332d0f9c93455ad0d2a94091a61563cbfccef0f791d80b3f5",
  "parentHash": "0xdc32e55bbc596b338f2145318bda95611a525623509458d48b603b32a54e4801",
  "number": 55923,
  "timestamp": 1439079260,
  "nonce": "0x25f853260a39af18",
  "difficulty": 1612291772796,
  "gasLimit": {
    "_hex": "0x2fefd5"
  },
  "gasUsed": {
    "_hex": "0xa674"
  },
  "miner": "0x0eDEd3DA479d0beF8eeC92A76644D3f4E3C177f7",
  "extraData": "0x476574682f76312e302e312f6c696e75782f676f312e342e32",
  "transactions": [
    {
      "hash": "0xae1b6bf5ddbe32bb80389a4d55c100e359a36ae94c4f7d7a3a93843003337418",
      "blockHash": "0x1e74946355a700a332d0f9c93455ad0d2a94091a61563cbfccef0f791d80b3f5",
      "blockNumber": 55923,
      "transactionIndex": 0,
      "confirmations": null,
      "from": "0x9b7999611FD5eFF3ef9A86653490c42E83ED4B8E",
      "gasPrice": {
        "_hex": "0xcf9565437"
      },
      "gasLimit": {
        "_hex": "0xc350"
      },
      "to": "0xCd12F20c28FF2fFc4B0a00a4a1DA71749DDEa9fC",
      "value": {
        "_hex": "0x15779a9de6eeb0000"
      },
      "nonce": 1,
      "data": "0x",
      "r": "0xad927594460150f3a1baa3fc26a92fecf6e3599573da599d79141fb75870a39b",
      "s": "0x447958d5e2206dc080dc7716d7225e0c240f18f1ce2a8f89c02ba98efb85c95c",
      "v": 28,
      "creates": null,
      "raw": "0xf86d01850cf956543782c35094cd12f20c28ff2ffc4b0a00a4a1da71749ddea9fc89015779a9de6eeb0000801ca0ad927594460150f3a1baa3fc26a92fecf6e3599573da599d79141fb75870a39ba0447958d5e2206dc080dc7716d7225e0c240f18f1ce2a8f89c02ba98efb85c95c",
      "networkId": 0,
      "chainId": 0
    },
    {
      "hash": "0xe86667abeb90ef131df84368c99bf33ef48b55becd407a1892a2159c59f3aef0",
      "blockHash": "0x1e74946355a700a332d0f9c93455ad0d2a94091a61563cbfccef0f791d80b3f5",
      "blockNumber": 55923,
      "transactionIndex": 1,
      "confirmations": null,
      "from": "0x50E13023bD9CA96ad4C53fdfd410CB6b1f420Bdf",
      "gasPrice": {
        "_hex": "0xcbdea047f"
      },
      "gasLimit": {
        "_hex": "0x55f0"
      },
      "to": "0x2910543Af39abA0Cd09dBb2D50200b3E800A63D2",
      "value": {
        "_hex": "0x15af1d78b58c400000"
      },
      "nonce": 4,
      "data": "0x454e434a4243344e52",
      "r": "0xe3aa16fc6712af48f79db8999c3e10c65771d1c2a61beec7106d44950f4e4eef",
      "s": "0x47e5b417a85c679b5b77cf2c9e6a1beded46fb22eae5c627885e53879b636172",
      "v": 28,
      "creates": null,
      "raw": "0xf87604850cbdea047f8255f0942910543af39aba0cd09dbb2d50200b3e800a63d28915af1d78b58c40000089454e434a4243344e521ca0e3aa16fc6712af48f79db8999c3e10c65771d1c2a61beec7106d44950f4e4eefa047e5b417a85c679b5b77cf2c9e6a1beded46fb22eae5c627885e53879b636172",
      "networkId": 0,
      "chainId": 0
    }
  ]
}