{
  "hash": "0x680e383db4edc0f379e1905c3a70d72fa90b8745e0539375525f6935122d19c7",
  "parentHash": "0x3a508da16401290ca2175e0e6e367afcffeb1eb1c1e551fb78fc1a4010078a57",
  "number": 86228,
  "timestamp": 1439575510,
  "nonce": "0xd2977e9681a06731",
  "difficulty": 2818079863017,
  "gasLimit": {
    "_hex": "0x2fefd8"
  },
  "gasUsed": {
    "_hex": "0x546c"
  },
  "miner": "0xe6A7a1d47ff21B6321162AEA7C6CB457D5476Bca",
  "extraData": "0x476574682f76312e302e312d38326566323666362f6c696e75782f676f312e34",
  "transactions": [
    {
      "hash": "0xe05037997f34728ec8a22cb2bcd8871ce6229067e738b1ccd55c30b425cc4a5c",
      "blockHash": "0x680e383db4edc0f379e1905c3a70d72fa90b8745e0539375525f6935122d19c7",
      "blockNumber": 86228,
      "transactionIndex": 0,
      "confirmations": null,
      "from": "0x690594d306613cD3e2fD24Bca9994aD98a3d73F8",
      "gasPrice": {
        "_hex": "0x110c8f7d8de"
      },
      "gasLimit": {
        "_hex": "0xc350"
      },
      "to": "0x2910543Af39abA0Cd09dBb2D50200b3E800A63D2",
      "value": {
        "_hex": "0x8ac7230489e80000"
      },
      "nonce": 0,
      "data": "0x454e414839314d4830",
      "r": "0xf1e3dea5e567074bfff0d180fa4abdf17fa12ab22eabe71feada9c681ce4953e",
      "s": "0x2599f3d78dfaf9b5bdabaf2f77ff4b4b0c9eb5fd3ab37de6d021b597a4c77005",
      "v": 27,
      "creates": null,
      "raw": "0xf87680860110c8f7d8de82c350942910543af39aba0cd09dbb2d50200b3e800a63d2888ac7230489e8000089454e414839314d48301ba0f1e3dea5e567074bfff0d180fa4abdf17fa12ab22eabe71feada9c681ce4953ea02599f3d78dfaf9b5bdabaf2f77ff4b4b0c9eb5fd3ab37de6d021b597a4c77005",
      "networkId": 0,
      "chainId": 0
    }
  ]
}