{
  "hash": "0xf3191fc02c3dab1b2fe4cef5b81284db0f24dee455a112299f9e1e59fe0c80a6",
  "parentHash": "0x3ff94e9dd61df31368e62ade91f8115c288d5f8a829e5fe69e03a264f13a252d",
  "number": 65323,
  "timestamp": 1439234891,
  "nonce": "0x4e93b990dfa1cacb",
  "difficulty": 1948316688828,
  "gasLimit": {
    "_hex": "0x2fe425"
  },
  "gasUsed": {
    "_hex": "0x5208"
  },
  "miner": "0x87cD3b7f4DBBFE553DB92Ac1C97c6C24231c5D26",
  "extraData": "0x476574682f76312e302e302f6c696e75782f676f312e342e32",
  "transactions": [
    {
      "hash": "0xce2cc58604e91db776c3d4dd4078b27a7ae7e011af4e3faff32a0e0d2591ebf2",
      "blockHash": "0xf3191fc02c3dab1b2fe4cef5b81284db0f24dee455a112299f9e1e59fe0c80a6",
      "blockNumber": 65323,
      "transactionIndex": 0,
      "confirmations": null,
      "from": "0x42E6723A0c884E922240e56D7B618BeC96F35800",
      "gasPrice": {
        "_hex": "0x9184e72a000"
      },
      "gasLimit": {
        "_hex": "0x5208"
      },
      "to": "0x62A496c75751c67E600f5D04e763b85D4069aF8E",
      "value": {
        "_hex": "0xa"
      },
      "nonce": 3,
      "data": "0x",
      "r": "0xfa962cb5b407290a6cf1f567d919afade0f52bc0a318f0ee1cee32866008479d",
      "s": "0x7a343fce65074360170eb37c0a06ea9bd08955fc8fc233d5e3ac9061f11f349e",
      "v": 28,
      "creates": null,
      "raw": "0xf865038609184e72a0008252089462a496c75751c67e600f5d04e763b85d4069af8e0a801ca0fa962cb5b407290a6cf1f567d919afade0f52bc0a318f0ee1cee32866008479da07a343fce65074360170eb37c0a06ea9bd08955fc8fc233d5e3ac9061f11f349e",
      "networkId": 0,
      "chainId": 0
    }
  ]
}