{
  "hash": "0x109db078ec86ef66a80c7423cc5c95c683712c834b9d8523f89b83de6ccdf13d",
  "parentHash": "0x8ac1db078c174572da57983b46a5db142323836a8b15953f225c523957d72fb6",
  "number": 75772,
  "timestamp": 1439409034,
  "nonce": "0x63019eb7b8738927",
  "difficulty": 2227709799930,
  "gasLimit": {
    "_hex": "0x2fefd5"
  },
  "gasUsed": {
    "_hex": "0x5208"
  },
  "miner": "0xbb7B8287f3F0a933474a79eAe42CBCa977791171",
  "extraData": "0x476574682f4c5649562f76312e302e312f6c696e75782f676f312e342e32",
  "transactions": [
    {
      "hash": "0x17cbc04ce5e9389854b24310ca41bf0ec13157f991c85425ca77ac894e74d19b",
      "blockHash": "0x109db078ec86ef66a80c7423cc5c95c683712c834b9d8523f89b83de6ccdf13d",
      "blockNumber": 75772,
      "transactionIndex": 0,
      "confirmations": null,
      "from": "0xcA8f4Fb1A28593337AeE456Acc76ABD4C3c83257",
      "gasPrice": {
        "_hex": "0xba43b7400"
      },
      "gasLimit": {
        "_hex": "0x5267"
      },
      "to": "0xf357482c5A92C7B2Cee6a157034362b7d7d88c5A",
      "value": {
        "_hex": "0x48b8383cbf0c0000"
      },
      "nonce": 1,
      "data": "0x",
      "r": "0xe31820c2171bd9eabebf9918c130f99d132e9f5c8aeeca7c9d596444c053e86e",
      "s": "0x5655587a6395a0bac2e65d287bd195c18b73b54f9e96603cc36ffe5a8965fe05",
      "v": 27,
      "creates": null,
      "raw": "0xf86c01850ba43b740082526794f357482c5a92c7b2cee6a157034362b7d7d88c5a8848b8383cbf0c0000801ba0e31820c2171bd9eabebf9918c130f99d132e9f5c8aeeca7c9d596444c053e86ea05655587a6395a0bac2e65d287bd195c18b73b54f9e96603cc36ffe5a8965fe05",
      "networkId": 0,
      "chainId": 0
    }
  ]
}