{
  "hash": "0x64d6be28d0701faf96ce23d2bb56f76847d8dae37e3f3515fd5a90ea1fcc517f",
  "parentHash": "0x4eff647dad34d7384aaab4fbe4c8fcb81c1e4cc510ac5d5cb6c92bb0a8dae4a7",
  "number": 85852,
  "timestamp": 1439569844,
  "nonce": "0x10b9fd82b48f8c9d",
  "difficulty": 2774513939309,
  "gasLimit": {
    "_hex": "0x2fefd8"
  },
  "gasUsed": {
    "_hex": "0xa410"
  },
  "miner": "0x785ffdDd5cE55c6DF963f345e68d3F2024E5Acb1",
  "extraData": "0x",
  "transactions": [
    {
      "hash": "0x71436853228844acb03d6562f2edd6d2d17ac89e1827e3d1b3f33f79a7c8bf72",
      "blockHash": "0x64d6be28d0701faf96ce23d2bb56f76847d8dae37e3f3515fd5a90ea1fcc517f",
      "blockNumber": 85852,
      "transactionIndex": 0,
      "confirmations": null,
      "from": "0x6d921977dEFE5f4e0682CA512De1D07b1f4802E1",
      "gasPrice": {
        "_hex": "0xd4b348a49"
      },
      "gasLimit": {
        "_hex": "0x5208"
      },
      "to": "0x32Be343B94f860124dC4fEe278FDCBD38C102D88",
      "value": {
        "_hex": "0x21d3792dde70e4000"
      },
      "nonce": 16,
      "data": "0x",
      "r": "0x1ed85b60b0f09834c055386def1905cf1a1f9c4eabfcdfab2087ab0d12590fdd",
      "s": "0x59cbdae554b4537bd7ff135ab1c7354f37d938f144cbf8cc10c52a44b79e60ac",
      "v": 27,
      "creates": null,
      "raw": "0xf86d10850d4b348a498252089432be343b94f860124dc4fee278fdcbd38c102d8889021d3792dde70e4000801ba01ed85b60b0f09834c055386def1905cf1a1f9c4eabfcdfab2087ab0d12590fdda059cbdae554b4537bd7ff135ab1c7354f37d938f144cbf8cc10c52a44b79e60ac",
      "networkId": 0,
      "chainId": 0
    },
    {
      "hash": "0x5e7c3eb460b85a9448dfa5e20719bc42a3015d79f6755b6f205d13cc414fa333",
      "blockHash": "0x64d6be28d0701faf96ce23d2bb56f76847d8dae37e3f3515fd5a90ea1fcc517f",
      "blockNumber": 85852,
      "transactionIndex": 1,
      "confirmations": null,
      "from": "0xE6fe0aFB9dcEDD37B2E22C451ba6feaB67348033",
      "gasPrice": {
        "_hex": "0xcb006aba0"
      },
      "gasLimit": {
        "_hex": "0x15f90"
      },
      "to": "0xCda0480Cb12F4D5792B50933c1A5da4F01657A3A",
      "value": {
        "_hex": "0x2386f26fc10000"
      },
      "nonce": 0,
      "data": "0x",
      "r": "0x05383192759216807cac5568bec263407ba1cb9afbef06a4e7f9cd21a8103958",
      "s": "0x5dd9a5f4194acd5ecadd3a4e35f245747302fc6ccda1950f636dbd69c7b6502e",
      "v": 28,
      "creates": null,
      "raw": "0xf86c80850cb006aba083015f9094cda0480cb12f4d5792b50933c1a5da4f01657a3a872386f26fc10000801ca005383192759216807cac5568bec263407ba1cb9afbef06a4e7f9cd21a8103958a05dd9a5f4194acd5ecadd3a4e35f245747302fc6ccda1950f636dbd69c7b6502e",
      "networkId": 0,
      "chainId": 0
    }
  ]
}