{
  "hash": "0x8264fde78b5a9844223802bb421cfca3e2414dfb90cf3f5eb44ecf3d6e872a34",
  "parentHash": "0x3bd980090cbc67e8fa79bec2f750b4c909e27d9420dd92ad5d5459a2f5224ba0",
  "number": 96540,
  "timestamp": 1439742072,
  "nonce": "0x887c7d2263396ebb",
  "difficulty": 3685321392949,
  "gasLimit": {
    "_hex": "0x2fefd8"
  },
  "gasUsed": {
    "_hex": "0xf618"
  },
  "miner": "0x35e8e5dC5FBd97c5b421A80B596C030a2Be2A04D",
  "extraData": "0x476574682f76312e302e312f6c696e75782f676f312e342e32",
  "transactions": [
    {
      "hash": "0x8cab62e494e9bba14bd36c8d5810900d12070e4c5c6d863973bbde9ca3e4a576",
      "blockHash": "0x8264fde78b5a9844223802bb421cfca3e2414dfb90cf3f5eb44ecf3d6e872a34",
      "blockNumber": 96540,
      "transactionIndex": 0,
      "confirmations": null,
      "from": "0x645B979F8ce622236DB26feB803455d40C328615",
      "gasPrice": {
        "_hex": "0xe2972a9b3"
      },
      "gasLimit": {
        "_hex": "0x5208"
      },
      "to": "0x32Be343B94f860124dC4fEe278FDCBD38C102D88",
      "value": {
        "_hex": "0x65ce77c036babc0000"
      },
      "nonce": 2,
      "data": "0x",
      "r": "0xa76a606be80bce6b816f37926ad9d69e7b040fe31bbd7317a83dc68d915d6a51",
      "s": "0x36d806081a1bcd38e44793df099fd1193682b91cf6bef3af457339deb93f0803",
      "v": 27,
      "creates": null,
      "raw": "0xf86d02850e2972a9b38252089432be343b94f860124dc4fee278fdcbd38c102d888965ce77c036babc0000801ba0a76a606be80bce6b816f37926ad9d69e7b040fe31bbd7317a83dc68d915d6a51a036d806081a1bcd38e44793df099fd1193682b91cf6bef3af457339deb93f0803",
      "networkId": 0,
      "chainId": 0
    },
    {
      "hash": "0x52a7b68e989b11d62e6fdb8166c239a1b40d3098df75d9f06308f74f060272db",
      "blockHash": "0x8264fde78b5a9844223802bb421cfca3e2414dfb90cf3f5eb44ecf3d6e872a34",
      "blockNumber": 96540,
      "transactionIndex": 1,
      "confirmations": null,
      "from": "0x120A270bbC009644e35F0bB6ab13f95b8199c4ad",
      "gasPrice": {
        "_hex": "0xd28390215"
      },
      "gasLimit": {
        "_hex": "0x3d090"
      },
      "to": "0x593709a09379b5B7366b431dEa8B5b0A0c65c664",
      "value": {
        "_hex": "0x15af1d78b58c400000"
      },
      "nonce": 619,
      "data": "0x",
      "r": "0x81130cdbf4c1f617137cf49a8987a2a1df58421bcb6cfb4125aecd8d9653eb9b",
      "s": "0x03a3c9b75de5f09f2d59bcd65a34d14a0a80a9f95413e5ee84767388f02e4578",
      "v": 27,
      "creates": null,
      "raw": "0xf87082026b850d283902158303d09094593709a09379b5b7366b431dea8b5b0a0c65c6648915af1d78b58c400000801ba081130cdbf4c1f617137cf49a8987a2a1df58421bcb6cfb4125aecd8d9653eb9ba003a3c9b75de5f09f2d59bcd65a34d14a0a80a9f95413e5ee84767388f02e4578",
      "networkId": 0,
      "chainId": 0
    },
    {
      "hash": "0x56f57154ffd45e444f4c74cddf46ecc8d8b52ef2761a6ea99b42f34c17e002c6",
      "blockHash": "0x8264fde78b5a9844223802bb421cfca3e2414dfb90cf3f5eb44ecf3d6e872a34",
      "blockNumber": 96540,
      "transactionIndex": 2,
      "confirmations": null,
      "from": "0xd0b1b8656e589cFB61b5643837bDE52B30E921f9",
      "gasPrice": {
        "_hex": "0xcfc800378"
      },
      "gasLimit": {
        "_hex": "0x15f90"
      },
      "to": "0x24bB5FB8A5739366C23b101a3B87c7978761a09e",
      "value": {
        "_hex": "0x49ad3478310035a0000"
      },
      "nonce": 0,
      "data": "0x",
      "r": "0x232290f0b338fee9a12b4778f963ea95d95842bde1b9fe38a0f66fcbbf9cec94",
      "s": "0x48f9f92cd8b1d3eef5256feea390258329073c0babb929f63fb0800953cc43b9",
      "v": 28,
      "creates": null,
      "raw": "0xf86f80850cfc80037883015f909424bb5fb8a5739366c23b101a3b87c7978761a09e8a049ad3478310035a0000801ca0232290f0b338fee9a12b4778f963ea95d95842bde1b9fe38a0f66fcbbf9cec94a048f9f92cd8b1d3eef5256feea390258329073c0babb929f63fb0800953cc43b9",
      "networkId": 0,
      "chainId": 0
    }
  ]
}