{
  "hash": "0x98cb95d22bc53383fb431a27ac840e710d831d80e57c6d74da125be271f5335d",
  "parentHash": "0x78ab688a4c7764282b03ec3d13c0f98bc8b34250622145d62903c398d0723e42",
  "number": 75943,
  "timestamp": 1439412367,
  "nonce": "0x8c9c4471b3718240",
  "difficulty": 2220063298667,
  "gasLimit": {
    "_hex": "0x2fefd8"
  },
  "gasUsed": {
    "_hex": "0x546c"
  },
  "miner": "0xe6A7a1d47ff21B6321162AEA7C6CB457D5476Bca",
  "extraData": "0x476574682f76312e302e312d38326566323666362f6c696e75782f676f312e34",
  "transactions": [
    {
      "hash": "0x5a31cf85ff02d6cf7e90d70407ab1de67c2666cffcf5b0a582aba570b5b6e766",
      "blockHash": "0x98cb95d22bc53383fb431a27ac840e710d831d80e57c6d74da125be271f5335d",
      "blockNumber": 75943,
      "transactionIndex": 0,
      "confirmations": null,
      "from": "0x82f39B2758aE42277B86d69F75E628d958EbCAb0",
      "gasPrice": {
        "_hex": "0x110c8f7d8de"
      },
      "gasLimit": {
        "_hex": "0xc350"
      },
      "to": "0x2910543Af39abA0Cd09dBb2D50200b3E800A63D2",
      "value": {
        "_hex": "0x3635c9adc5dea00000"
      },
      "nonce": 0,
      "data": "0x454e34483356554547",
      "r": "0xbce9897e6773c598e7e86d66c9b2410d59fceb0b3b4fcd59be6f02e93523c8c2",
      "s": "0x58c685049512c0c5ece5957304da025c238c5947825387e5dcf898dbafd17eae",
      "v": 27,
      "creates": null,
      "raw": "0xf87780860110c8f7d8de82c350942910543af39aba0cd09dbb2d50200b3e800a63d2893635c9adc5dea0000089454e344833565545471ba0bce9897e6773c598e7e86d66c9b2410d59fceb0b3b4fcd59be6f02e93523c8c2a058c685049512c0c5ece5957304da025c238c5947825387e5dcf898dbafd17eae",
      "networkId": 0,
      "chainId": 0
    }
  ]
}