{
  "hash": "0xd0ff22727a36ec3ecdc7f7eaee128e1bc07babee7849e58d516200a236733677",
  "parentHash": "0x87b8e4b9ac4958aa8f6a87d9ddb9b9cfd2f1c6b580879bdf346d49e5e97fce7e",
  "number": 48948,
  "timestamp": 1438965455,
  "nonce": "0x12b06e1cb896cc54",
  "difficulty": 1484372334809,
  "gasLimit": {
    "_hex": "0x21bdf"
  },
  "gasUsed": {
    "_hex": "0x546c"
  },
  "miner": "0xF2d2AfF1320476cb8C6b607199D23175cc595693",
  "extraData": "0x476574682f76312e302e312f77696e646f77732f676f312e342e32",
  "transactions": [
    {
      "hash": "0x362f166b973959a3a6f2b28249612458931668d4ccbb0b0168b28eed8fb0d675",
      "blockHash": "0xd0ff22727a36ec3ecdc7f7eaee128e1bc07babee7849e58d516200a236733677",
      "blockNumber": 48948,
      "transactionIndex": 0,
      "confirmations": null,
      "from": "0xCfF8d06b00E3F50c191099aD56ba6Ae26571CD88",
      "gasPrice": {
        "_hex": "0x110c8f7d8de"
      },
      "gasLimit": {
        "_hex": "0xc350"
      },
      "to": "0x2910543Af39abA0Cd09dBb2D50200b3E800A63D2",
      "value": {
        "_hex": "0x34957444b840e80000"
      },
      "nonce": 0,
      "data": "0x454e3136374a4d4b52",
      "r": "0xc132e5f995bd9f8ac8e37d9cd17f8aec47d50ae058e80f10b4362da7a916bade",
      "s": "0x41c74d619ce1872ca1aab0b10c3f3d4e9f28c06fbb8e3d315485e544b62406d9",
      "v": 27,
      "creates": null,
      "raw": "0xf87780860110c8f7d8de82c350942910543af39aba0cd09dbb2d50200b3e800a63d28934957444b840e8000089454e3136374a4d4b521ba0c132e5f995bd9f8ac8e37d9cd17f8aec47d50ae058e80f10b4362da7a916badea041c74d619ce1872ca1aab0b10c3f3d4e9f28c06fbb8e3d315485e544b62406d9",
      "networkId": 0,
      "chainId": 0
    }
  ]
}