{
  "hash": "0x0f73e3738959b77a8d1e50e7434f68c3b6c27f45c8935b777d76ed087b8f80fb",
  "parentHash": "0x57b109aa9338ddde4db96a0e21de687ac92dc75b30a83c65c34f649fb871cdcb",
  "number": 76212,
  "timestamp": 1439416707,
  "nonce": "0xd7652d82b11fcbe5",
  "difficulty": 2236311507946,
  "gasLimit": {
    "_hex": "0x2fefd8"
  },
  "gasUsed": {
    "_hex": "0xa410"
  },
  "miner": "0x858079E02403b10748B71A02195b6608Abaf6b8f",
  "extraData": "0x476574682f76312e302e312f77696e646f77732f676f312e342e32",
  "transactions": [
    {
      "hash": "0x80fa2b68af799e1bbe0a3b7ae4a0ab4217a27a09953647bfe27983041957627f",
      "blockHash": "0x0f73e3738959b77a8d1e50e7434f68c3b6c27f45c8935b777d76ed087b8f80fb",
      "blockNumber": 76212,
      "transactionIndex": 0,
      "confirmations": null,
      "from": "0x42Dd879f8Eb7e9B43036A5b4C97B02c6176D6B99",
      "gasPrice": {
        "_hex": "0x1135fadc37f"
      },
      "gasLimit": {
        "_hex": "0x15f90"
      },
      "to": "0x53c451B5977b29118899c6B6613Cf4dEC25E6Cb0",
      "value": {
        "_hex": "0x6c5db2a4d815dc0000"
      },
      "nonce": 4,
      "data": "0x",
      "r": "0xce9600fdfe876587f937afaed2d9106a0685ce74555846178760093dcb6b8776",
      "s": "0x427dc52f13612e81eac43e66727dd1bbc510ab394d6a329c9643f95e08abb0ab",
      "v": 28,
      "creates": null,
      "raw": "0xf86f048601135fadc37f83015f909453c451b5977b29118899c6b6613cf4dec25e6cb0896c5db2a4d815dc0000801ca0ce9600fdfe876587f937afaed2d9106a0685ce74555846178760093dcb6b8776a0427dc52f13612e81eac43e66727dd1bbc510ab394d6a329c9643f95e08abb0ab",
      "networkId": 0,
      "chainId": 0
    },
    {
      "hash": "0x31048292309f7eb0dffd12aac38c5790b69dca07758fbd7f96eed7ee860bb75c",
      "blockHash": "0x0f73e3738959b77a8d1e50e7434f68c3b6c27f45c8935b777d76ed087b8f80fb",
      "blockNumber": 76212,
      "transactionIndex": 1,
      "confirmations": null,
      "from": "0x9bc6B0dEB59eF75AeDe905EBa5a779514F43D409",
      "gasPrice": {
        "_hex": "0xd91d31c43"
      },
      "gasLimit": {
        "_hex": "0x5208"
      },
      "to": "0x32Be343B94f860124dC4fEe278FDCBD38C102D88",
      "value": {
        "_hex": "0x6c5dae4bb6a9200000"
      },
      "nonce": 4,
      "data": "0x",
      "r": "0x29fb27eb1d9c918fb56da876fb9a42ab85d062947a21856944ee8e219be20883",
      "s": "0x226f362e183f79c9d6dfc1880626d76a3551c022919de8b2b4d2be87367589df",
      "v": 27,
      "creates": null,
      "raw": "0xf86d04850d91d31c438252089432be343b94f860124dc4fee278fdcbd38c102d88896c5dae4bb6a9200000801ba029fb27eb1d9c918fb56da876fb9a42ab85d062947a21856944ee8e219be20883a0226f362e183f79c9d6dfc1880626d76a3551c022919de8b2b4d2be87367589df",
      "networkId": 0,
      "chainId": 0
    }
  ]
}