{
  "hash": "0x19c13f83ddd3bded4a37ac895fa68e7df59f441d9d9938e5271e3768a063b481",
  "parentHash": "0x9259eeafb789cde41888ca25d66cd3b5cd0eeb920b9fdc36d9101b2f8c733350",
  "number": 91332,
  "timestamp": 1439654028,
  "nonce": "0x065075dabd33a310",
  "difficulty": 3467573736692,
  "gasLimit": {
    "_hex": "0x2fefd8"
  },
  "gasUsed": {
    "_hex": "0xa410"
  },
  "miner": "0x9b65f5224DAB0793bC1cadD6640686A1A1D574ea",
  "extraData": "0xd783010001844765746887676f312e342e32856c696e7578",
  "transactions": [
    {
      "hash": "0xa4720b31f1a0ec2a24500c210718039211b9b052bde74b29ed63c10f7ef1bfc7",
      "blockHash": "0x19c13f83ddd3bded4a37ac895fa68e7df59f441d9d9938e5271e3768a063b481",
      "blockNumber": 91332,
      "transactionIndex": 0,
      "confirmations": null,
      "from": "0x32Be343B94f860124dC4fEe278FDCBD38C102D88",
      "gasPrice": {
        "_hex": "0xdc0aeb046"
      },
      "gasLimit": {
        "_hex": "0x5208"
      },
      "to": "0x156D6B6d7105b05295583076E78733815B356aD5",
      "value": {
        "_hex": "0x5b305a2522a3c0000"
      },
      "nonce": 872,
      "data": "0x",
      "r": "0x543d78d2aebfb9d9df6667ff0d2c51c83dc13c438db3230af0669fded58574af",
      "s": "0x6b3bdde4c91b87e3f83c0ab72e5d682f98ba339a412a695705c11cdcf334154f",
      "v": 28,
      "creates": null,
      "raw": "0xf86f820368850dc0aeb04682520894156d6b6d7105b05295583076e78733815b356ad58905b305a2522a3c0000801ca0543d78d2aebfb9d9df6667ff0d2c51c83dc13c438db3230af0669fded58574afa06b3bdde4c91b87e3f83c0ab72e5d682f98ba339a412a695705c11cdcf334154f",
      "networkId": 0,
      "chainId": 0
    },
    {
      "hash": "0xef690f358cc2dd3a96390c3ba9f9ab0855cad313e94f73db810cc814d5953b6a",
      "blockHash": "0x19c13f83ddd3bded4a37ac895fa68e7df59f441d9d9938e5271e3768a063b481",
      "blockNumber": 91332,
      "transactionIndex": 1,
      "confirmations": null,
      "from": "0xA881a976d37b162a8e82169bf5B83a627d8A1480",
      "gasPrice": {
        "_hex": "0xd8364fc25"
      },
      "gasLimit": {
        "_hex": "0x15f90"
      },
      "to": "0xF8B26B68612287Ee162e0c6ad2415d0BAD041FB6",
      "value": {
        "_hex": "0x51e102bd8ece0000"
      },
      "nonce": 0,
      "data": "0x",
      "r": "0xa45d4fc0e751d3bb29857adb5e0b70269cbbbe733f054cdf1b7ae520a72c2a1f",
      "s": "0x5ae486126b1115d18df9784d3f735838a3ddb5f9fe3e6f88786fa5f51af178b7",
      "v": 27,
      "creates": null,
      "raw": "0xf86d80850d8364fc2583015f9094f8b26b68612287ee162e0c6ad2415d0bad041fb68851e102bd8ece0000801ba0a45d4fc0e751d3bb29857adb5e0b70269cbbbe733f054cdf1b7ae520a72c2a1fa05ae486126b1115d18df9784d3f735838a3ddb5f9fe3e6f88786fa5f51af178b7",
      "networkId": 0,
      "chainId": 0
    }
  ]
}