{
  "hash": "0xb4bc06bc9fe8eb5a25f44658903463ab054239dad741c863024507885df323c7",
  "parentHash": "0x35643d2f54e74a85a8bd70699288e3172f0028a6daed24e1987a7fd902715824",
  "number": 68561,
  "timestamp": 1439290024,
  "nonce": "0x07f7ace2656dd15d",
  "difficulty": 2013315551458,
  "gasLimit": {
    "_hex": "0x2fefd8"
  },
  "gasUsed": {
    "_hex": "0x1346ff"
  },
  "miner": "0x39A1BB80a741bF5EC39FB9BE59408Fa0F418fFBf",
  "extraData": "0x476574682f76312e302e312f77696e646f77732f676f312e342e32",
  "transactions": [
    {
      "hash": "0x60778f7c8d86fffbb81d9ec916790897e2052893abab7d3afcb905bcb33f7e0a",
      "blockHash": "0xb4bc06bc9fe8eb5a25f44658903463ab054239dad741c863024507885df323c7",
      "blockNumber": 68561,
      "transactionIndex": 0,
      "confirmations": null,
      "from": "0x17580B766f7453525ca4C6A88b01b50570EA088C",
      "gasPrice": {
        "_hex": "0xce07f6d93"
      },
      "gasLimit": {
        "_hex": "0x61a80"
      },
      "to": "0x5Fe5B7546D1628f7348B023A0393de1FC825A4fD",
      "value": {
        "_hex": "0x1bc16d674ec80000"
      },
      "nonce": 40,
      "data": "0xb595b8b50000000000000000000000000000000000000000000000000000000000000000",
      "r": "0xdf00e857269b41b140e5d505a188aa36077483d5bc0157f112ebdc03a9667026",
      "s": "0x3189c71c9f9ad5e45fb094ade5b3d11b49f1b06cef4d7ab88290827376aed724",
      "v": 28,
      "creates": null,
      "raw": "0xf89128850ce07f6d9383061a80945fe5b7546d1628f7348b023a0393de1fc825a4fd881bc16d674ec80000a4b595b8b500000000000000000000000000000000000000000000000000000000000000001ca0df00e857269b41b140e5d505a188aa36077483d5bc0157f112ebdc03a9667026a03189c71c9f9ad5e45fb094ade5b3d11b49f1b06cef4d7ab88290827376aed724",
      "networkId": 0,
      "chainId": 0
    },
    {
      "hash": "0xccc62481ed3f9c661d3cc4b960081f0468bae4d6866ae7c6562a2a159fda59f5",
      "blockHash": "0xb4bc06bc9fe8eb5a25f44658903463ab054239dad741c863024507885df323c7",
      "blockNumber": 68561,
      "transactionIndex": 1,
      "confirmations": null,
      "from": "0xDEf1e51D3Ce3C0014E315814fEC373b1963BD4a8",
      "gasPrice": {
        "_hex": "0xba43b7400"
      },
      "gasLimit": {
        "_hex": "0x15f90"
      },
      "to": "0x793AE8C1b1a160BFc07BFB0d04F85eab1A71F4f2",
      "value": {
        "_hex": "0x0"
      },
      "nonce": 0,
      "data": "0x3ba15036",
      "r": "0x208b786aa40560e2759537f63e4d4c97005f844dcc2498b26360b314ab8381a4",
      "s": "0x7a251fb7159d337bd90e4164cc220c6963db4b848e783d21ed41ffed383bcf9a",
      "v": 27,
      "creates": null,
      "raw": "0xf86980850ba43b740083015f9094793ae8c1b1a160bfc07bfb0d04f85eab1a71f4f280843ba150361ba0208b786aa40560e2759537f63e4d4c97005f844dcc2498b26360b314ab8381a4a07a251fb7159d337bd90e4164cc220c6963db4b848e783d21ed41ffed383bcf9a",
      "networkId": 0,
      "chainId": 0
    },
    {
      "hash": "0x5e678e6eb332dec8fd6dcdfadf862d89449d2c6b62bc8eb68ce5587c5dc4ee3a",
      "blockHash": "0xb4bc06bc9fe8eb5a25f44658903463ab054239dad741c863024507885df323c7",
      "blockNumber": 68561,
      "transactionIndex": 2,
      "confirmations": null,
      "from": "0xC0855Fc346eecc63859DA34e49F8AA8670d4A67B",
      "gasPrice": {
        "_hex": "0xba43b7400"
      },
      "gasLimit": {
        "_hex": "0x15f90"
      },
      "to": "0x793AE8C1b1a160BFc07BFB0d04F85eab1A71F4f2",
      "value": {
        "_hex": "0x0"
      },
      "nonce": 0,
      "data": "0x3ba15036",
      "r": "0x9f42f47b68678095e7be8e357a1b49f90d858447f25d484672ffe3e3b04ac648",
      "s": "0x059b62703ec4fc6488b5102548120d93a002f57b6e4d735a5430e86bcbb1c3f9",
      "v": 27,
      "creates": null,
      "raw": "0xf86980850ba43b740083015f9094793ae8c1b1a160bfc07bfb0d04f85eab1a71f4f280843ba150361ba09f42f47b68678095e7be8e357a1b49f90d858447f25d484672ffe3e3b04ac648a0059b62703ec4fc6488b5102548120d93a002f57b6e4d735a5430e86bcbb1c3f9",
      "networkId": 0,
      "chainId": 0
    },
    {
      "hash": "0xbb8da636677b941e646511e6ceed8a442f8975acc971a799e375e671a1e6c973",
      "blockHash": "0xb4bc06bc9fe8eb5a25f44658903463ab054239dad741c863024507885df323c7",
      "blockNumber": 68561,
      "transactionIndex": 3,
      "confirmations": null,
      "from": "0x2595B7D0df4E9b7850a4b25fBB773A684eB28E14",
      "gasPrice": {
        "_hex": "0xba43b7400"
      },
      "gasLimit": {
        "_hex": "0x15f90"
      },
      "to": "0x793AE8C1b1a160BFc07BFB0d04F85eab1A71F4f2",
      "value": {
        "_hex": "0x0"
      },
      "nonce": 0,
      "data": "0x3ba15036",
      "r": "0x2869bb440df8d5502e2cfdf3de10b65a66ea80b7d4bd53d846d6ec9c4ad5355c",
      "s": "0x63f0f89c943908dad28657046696f7ef3a0340cd6962e066c4a13d96686d5ddc",
      "v": 27,
      "creates": null,
      "raw": "0xf86980850ba43b740083015f9094793ae8c1b1a160bfc07bfb0d04f85eab1a71f4f280843ba150361ba02869bb440df8d5502e2cfdf3de10b65a66ea80b7d4bd53d846d6ec9c4ad5355ca063f0f89c943908dad28657046696f7ef3a0340cd6962e066c4a13d96686d5ddc",
      "networkId": 0,
      "chainId": 0
    },
    {
      "hash": "0xe713264d09ddab1367d5956ba063a93f4012428e3f469390d760d96cc015fc72",
      "blockHash": "0xb4bc06bc9fe8eb5a25f44658903463ab054239dad741c863024507885df323c7",
      "blockNumber": 68561,
      "transactionIndex": 4,
      "confirmations": null,
      "from": "0xf1ac916F565B58d58B67477144e1496DA31cAaf6",
      "gasPrice": {
        "_hex": "0xba43b7400"
      },
      "gasLimit": {
        "_hex": "0x15f90"
      },
      "to": "0x793AE8C1b1a160BFc07BFB0d04F85eab1A71F4f2",
      "value": {
        "_hex": "0x0"
      },
      "nonce": 0,
      "data": "0x3ba15036",
      "r": "0x6b195b429086d3ea6049d7db48ca498172df11724c6e64f3babe0239d01df63e",
      "s": "0x638c149a96c493dd93a2c2e9d3228ca511eb43fc124d937999b20e08323394d4",
      "v": 28,
      "creates": null,
      "raw": "0xf86980850ba43b740083015f9094793ae8c1b1a160bfc07bfb0d04f85eab1a71f4f280843ba150361ca06b195b429086d3ea6049d7db48ca498172df11724c6e64f3babe0239d01df63ea0638c149a96c493dd93a2c2e9d3228ca511eb43fc124d937999b20e08323394d4",
      "networkId": 0,
      "chainId": 0
    },
    {
      "hash": "0x48e811725f7c1a2ae60c82300cb39b1d636785e32686aacfd1fcfa3caaee43f6",
      "blockHash": "0xb4bc06bc9fe8eb5a25f44658903463ab054239dad741c863024507885df323c7",
      "blockNumber": 68561,
      "transactionIndex": 5,
      "confirmations": null,
      "from": "0x08Cf7C87B3Bb28C3E6784b307862Eaf827f4aa6E",
      "gasPrice": {
        "_hex": "0xba43b7400"
      },
      "gasLimit": {
        "_hex": "0x15f90"
      },
      "to": "0x793AE8C1b1a160BFc07BFB0d04F85eab1A71F4f2",
      "value": {
        "_hex": "0x0"
      },
      "nonce": 0,
      "data": "0x3ba15036",
      "r": "0x4b9cf4689a8ff8af6cfdd979420f7b03b367f5e5563dcca2cea96e3a78643615",
      "s": "0x480238ee02d82a93953eefa835a57cc50d617edfaf9f823e4a6178c89f4fa43f",
      "v": 28,
      "creates": null,
      "raw": "0xf86980850ba43b740083015f9094793ae8c1b1a160bfc07bfb0d04f85eab1a71f4f280843ba150361ca04b9cf4689a8ff8af6cfdd979420f7b03b367f5e5563dcca2cea96e3a78643615a0480238ee02d82a93953eefa835a57cc50d617edfaf9f823e4a6178c89f4fa43f",
      "networkId": 0,
      "chainId": 0
    },
    {
      "hash": "0x844ca805a5fd9b263e5e00ac2adf9505950de66e932add865878bc5dab6b0f9b",
      "blockHash": "0xb4bc06bc9fe8eb5a25f44658903463ab054239dad741c863024507885df323c7",
      "blockNumber": 68561,
      "transactionIndex": 6,
      "confirmations": null,
      "from": "0x48D61d7c5b9ED0767e530cbfe3960E4A0d112269",
      "gasPrice": {
        "_hex": "0xba43b7400"
      },
      "gasLimit": {
        "_hex": "0x15f90"
      },
      "to": "0x793AE8C1b1a160BFc07BFB0d04F85eab1A71F4f2",
      "value": {
        "_hex": "0x0"
      },
      "nonce": 0,
      "data": "0x3ba15036",
      "r": "0xebc8fe2868c1cca9641d56eaf6685e8cba87640bbb4c64596a772a16102e6c50",
      "s": "0x600a10c0eda5c9ad0e5841fa0b79a687daf63353e9d128b6a8be8f3179ecd64d",
      "v": 28,
      "creates": null,
      "raw": "0xf86980850ba43b740083015f9094793ae8c1b1a160bfc07bfb0d04f85eab1a71f4f280843ba150361ca0ebc8fe2868c1cca9641d56eaf6685e8cba87640bbb4c64596a772a16102e6c50a0600a10c0eda5c9ad0e5841fa0b79a687daf63353e9d128b6a8be8f3179ecd64d",
      "networkId": 0,
      "chainId": 0
    },
    {
      "hash": "0xddd0702fb658bb906e768370b53d76b99cb67249e3412f5736f6f80467a88ae8",
      "blockHash": "0xb4bc06bc9fe8eb5a25f44658903463ab054239dad741c863024507885df323c7",
      "blockNumber": 68561,
      "transactionIndex": 7,
      "confirmations": null,
      "from": "0xC8d30056dB6d7d31846fB93F4f779048E89Db548",
      "gasPrice": {
        "_hex": "0xba43b7400"
      },
      "gasLimit": {
        "_hex": "0x15f90"
      },
      "to": "0x793AE8C1b1a160BFc07BFB0d04F85eab1A71F4f2",
      "value": {
        "_hex": "0x0"
      },
      "nonce": 0,
      "data": "0x3ba15036",
      "r": "0x60736ba269c930af30d614fdac94750e73269a0f8591bb45ba68136da79cdcc1",
      "s": "0x719c3c0860834f4b43a429a4fbd39efe8a0f0b2624a875968965392758d38744",
      "v": 28,
      "creates": null,
      "raw": "0xf86980850ba43b740083015f9094793ae8c1b1a160bfc07bfb0d04f85eab1a71f4f280843ba150361ca060736ba269c930af30d614fdac94750e73269a0f8591bb45ba68136da79cdcc1a0719c3c0860834f4b43a429a4fbd39efe8a0f0b2624a875968965392758d38744",
      "networkId": 0,
      "chainId": 0
    },
    {
      "hash": "0x04630039963e04b3e669281bbe72313dc5aa686fff7e0fd1d871304c09b432e3",
      "blockHash": "0xb4bc06bc9fe8eb5a25f44658903463ab054239dad741c863024507885df323c7",
      "blockNumber": 68561,
      "transactionIndex": 8,
      "confirmations": null,
      "from": "0x17245336eA733da9E9070B49E07f7cbF07E2F9f6",
      "gasPrice": {
        "_hex": "0xba43b7400"
      },
      "gasLimit": {
        "_hex": "0x15f90"
      },
      "to": "0x793AE8C1b1a160BFc07BFB0d04F85eab1A71F4f2",
      "value": {
        "_hex": "0x0"
      },
      "nonce": 0,
      "data": "0x3ba15036",
      "r": "0x1e9cdf07660fc0aa0e7bccaa5e9d2a1b4db2aaeea5bbeb29c11e7f7a3541190a",
      "s": "0x41c1ace2f2683325097186018cee08c1b1236a4fd8749c6a4e7d638445a9b9c3",
      "v": 27,
      "creates": null,
      "raw": "0xf86980850ba43b740083015f9094793ae8c1b1a160bfc07bfb0d04f85eab1a71f4f280843ba150361ba01e9cdf07660fc0aa0e7bccaa5e9d2a1b4db2aaeea5bbeb29c11e7f7a3541190aa041c1ace2f2683325097186018cee08c1b1236a4fd8749c6a4e7d638445a9b9c3",
      "networkId": 0,
      "chainId": 0
    },
    {
      "hash": "0x32d3caa646464bf60466c55531c02fa08958e14974c2750db395af766f589f4d",
      "blockHash": "0xb4bc06bc9fe8eb5a25f44658903463ab054239dad741c863024507885df323c7",
      "blockNumber": 68561,
      "transactionIndex": 9,
      "confirmations": null,
      "from": "0x43a2e50801BBA4EAAEDdf32821a6C80aec6cdA4D",
      "gasPrice": {
        "_hex": "0xba43b7400"
      },
      "gasLimit": {
        "_hex": "0x15f90"
      },
      "to": "0x793AE8C1b1a160BFc07BFB0d04F85eab1A71F4f2",
      "value": {
        "_hex": "0x0"
      },
      "nonce": 0,
      "data": "0x3ba15036",
      "r": "0xb5926bca3d8159a1d5340f0bf30e1a2c30107609b3c9ecbb00db750fafd4f174",
      "s": "0x526f6d988818f928eb1f06c4009cf81df38f60618e74da875a6469bdabf656fe",
      "v": 28,
      "creates": null,
      "raw": "0xf86980850ba43b740083015f9094793ae8c1b1a160bfc07bfb0d04f85eab1a71f4f280843ba150361ca0b5926bca3d8159a1d5340f0bf30e1a2c30107609b3c9ecbb00db750fafd4f174a0526f6d988818f928eb1f06c4009cf81df38f60618e74da875a6469bdabf656fe",
      "networkId": 0,
      "chainId": 0
    },
    {
      "hash": "0x8f1fd8970794325426d762233721f68f52735d47da2d1bd385b9bad4c502b044",
      "blockHash": "0xb4bc06bc9fe8eb5a25f44658903463ab054239dad741c863024507885df323c7",
      "blockNumber": 68561,
      "transactionIndex": 10,
      "confirmations": null,
      "from": "0x93D9e21bC7156361Ea8FBB0104435B736BDBC49A",
      "gasPrice": {
        "_hex": "0xba43b7400"
      },
      "gasLimit": {
        "_hex": "0x15f90"
      },
      "to": "0x793AE8C1b1a160BFc07BFB0d04F85eab1A71F4f2",
      "value": {
        "_hex": "0x0"
      },
      "nonce": 0,
      "data": "0x3ba15036",
      "r": "0x32298bd965b55d5cc3b400d63a1f972653086aa9db24870c2bd0b672c8d634b6",
      "s": "0x2169582f3dfaa847c0c989931fc934a7ac4c5951a011de6084040acc15de9101",
      "v": 27,
      "creates": null,
      "raw": "0xf86980850ba43b740083015f9094793ae8c1b1a160bfc07bfb0d04f85eab1a71f4f280843ba150361ba032298bd965b55d5cc3b400d63a1f972653086aa9db24870c2bd0b672c8d634b6a02169582f3dfaa847c0c989931fc934a7ac4c5951a011de6084040acc15de9101",
      "networkId": 0,
      "chainId": 0
    },
    {
      "hash": "0x8223d7d9cc776c4c1cbcd7e95060f557fb3625d91ea86fe4eb9dfb99b34bb567",
      "blockHash": "0xb4bc06bc9fe8eb5a25f44658903463ab054239dad741c863024507885df323c7",
      "blockNumber": 68561,
      "transactionIndex": 11,
      "confirmations": null,
      "from": "0xf4f5837Ef31957349089F6160A57205a8B823b96",
      "gasPrice": {
        "_hex": "0xba43b7400"
      },
      "gasLimit": {
        "_hex": "0x15f90"
      },
      "to": "0x793AE8C1b1a160BFc07BFB0d04F85eab1A71F4f2",
      "value": {
        "_hex": "0x0"
      },
      "nonce": 0,
      "data": "0x3ba15036",
      "r": "0x97ed21342448e01cb732126a511c85c526d5297a5d4eedcde3a612165a7bdf46",
      "s": "0x26c7e0880f3367c6a357e65f70bedb76fe4bcf4f48d434006a63561598ba08ab",
      "v": 27,
      "creates": null,
      "raw": "0xf86980850ba43b740083015f9094793ae8c1b1a160bfc07bfb0d04f85eab1a71f4f280843ba150361ba097ed21342448e01cb732126a511c85c526d5297a5d4eedcde3a612165a7bdf46a026c7e0880f3367c6a357e65f70bedb76fe4bcf4f48d434006a63561598ba08ab",
      "networkId": 0,
      "chainId": 0
    },
    {
      "hash": "0x0e049f16dacd53fc1b40c75f62757e8a90df30d0d76cbf46fc6c190b5c6d1033",
      "blockHash": "0xb4bc06bc9fe8eb5a25f44658903463ab054239dad741c863024507885df323c7",
      "blockNumber": 68561,
      "transactionIndex": 12,
      "confirmations": null,
      "from": "0x585039e6dBf87c59C63a33050e939A4dC6ac6b30",
      "gasPrice": {
        "_hex": "0xba43b7400"
      },
      "gasLimit": {
        "_hex": "0x15f90"
      },
      "to": "0x793AE8C1b1a160BFc07BFB0d04F85eab1A71F4f2",
      "value": {
        "_hex": "0x0"
      },
      "nonce": 0,
      "data": "0x3ba15036",
      "r": "0x0a7a84206182857b81e814389cf08f15ceeaa1310b3fa4994f73accf58ab2169",
      "s": "0x47526470e28074c579d5e1358b8bca310599d9d5d16036b87115b3ecfc6ed5c3",
      "v": 28,
      "creates": null,
      "raw": "0xf86980850ba43b740083015f9094793ae8c1b1a160bfc07bfb0d04f85eab1a71f4f280843ba150361ca00a7a84206182857b81e814389cf08f15ceeaa1310b3fa4994f73accf58ab2169a047526470e28074c579d5e1358b8bca310599d9d5d16036b87115b3ecfc6ed5c3",
      "networkId": 0,
      "chainId": 0
    },
    {
      "hash": "0x905ff5a40cf9b37dccfd3f0d556975b0d8de00e17638f56f9f4a9c14bfca707a",
      "blockHash": "0xb4bc06bc9fe8eb5a25f44658903463ab054239dad741c863024507885df323c7",
      "blockNumber": 68561,
      "transactionIndex": 13,
      "confirmations": null,
      "from": "0x91D0394642a0a0e2B1a74B42a26CaAbf17E3B80c",
      "gasPrice": {
        "_hex": "0xba43b7400"
      },
      "gasLimit": {
        "_hex": "0x15f90"
      },
      "to": "0x793AE8C1b1a160BFc07BFB0d04F85eab1A71F4f2",
      "value": {
        "_hex": "0x0"
      },
      "nonce": 0,
      "data": "0x3ba15036",
      "r": "0xb9a359eeb9bab78893342cdb05b4c01b2dbe6d580ed2e59fb535a89b430261f7",
      "s": "0x02b91ecc5ecf2f399a645fb265d479c306be6a4e0467a3899dd5ea0146512847",
      "v": 28,
      "creates": null,
      "raw": "0xf86980850ba43b740083015f9094793ae8c1b1a160bfc07bfb0d04f85eab1a71f4f280843ba150361ca0b9a359eeb9bab78893342cdb05b4c01b2dbe6d580ed2e59fb535a89b430261f7a002b91ecc5ecf2f399a645fb265d479c306be6a4e0467a3899dd5ea0146512847",
      "networkId": 0,
      "chainId": 0
    },
    {
      "hash": "0x9b0f9b5bac441b1e442df3ffa274ee7cf3eec017ca3df90733f978d128de92c7",
      "blockHash": "0xb4bc06bc9fe8eb5a25f44658903463ab054239dad741c863024507885df323c7",
      "blockNumber": 68561,
      "transactionIndex": 14,
      "confirmations": null,
      "from": "0x5A882995b927DEC0d85DD0233D3A8fc4591B7FC8",
      "gasPrice": {
        "_hex": "0xba43b7400"
      },
      "gasLimit": {
        "_hex": "0x15f90"
      },
      "to": "0x793AE8C1b1a160BFc07BFB0d04F85eab1A71F4f2",
      "value": {
        "_hex": "0x0"
      },
      "nonce": 0,
      "data": "0x3ba15036",
      "r": "0xec0f092b5d0ede763d1c69358e9549bec42bce292b44632d9c50c5519efd1b41",
      "s": "0x2986bd149aab372ecf3eb854499df079c603b973ceccdde4c066080b26050d20",
      "v": 28,
      "creates": null,
      "raw": "0xf86980850ba43b740083015f9094793ae8c1b1a160bfc07bfb0d04f85eab1a71f4f280843ba150361ca0ec0f092b5d0ede763d1c69358e9549bec42bce292b44632d9c50c5519efd1b41a02986bd149aab372ecf3eb854499df079c603b973ceccdde4c066080b26050d20",
      "networkId": 0,
      "chainId": 0
    },
    {
      "hash": "0xcad80c9267f324dc033cd610a9de4e8ae6fa498d2782919c9ddbdc1f69f4f06a",
      "blockHash": "0xb4bc06bc9fe8eb5a25f44658903463ab054239dad741c863024507885df323c7",
      "blockNumber": 68561,
      "transactionIndex": 15,
      "confirmations": null,
      "from": "0x7B80ECc19271F85095613A59df426456cF219A20",
      "gasPrice": {
        "_hex": "0xba43b7400"
      },
      "gasLimit": {
        "_hex": "0x15f90"
      },
      "to": "0x793AE8C1b1a160BFc07BFB0d04F85eab1A71F4f2",
      "value": {
        "_hex": "0x0"
      },
      "nonce": 0,
      "data": "0x3ba15036",
      "r": "0x2c30b0e3c84d960eb163388d43e099f2923169503725e305fb6df0f25a1041a0",
      "s": "0x05ec9bbb90c4aa3ff43845500740fce2fa0bf148abcc17215e46a8593db4381d",
      "v": 27,
      "creates": null,
      "raw": "0xf86980850ba43b740083015f9094793ae8c1b1a160bfc07bfb0d04f85eab1a71f4f280843ba150361ba02c30b0e3c84d960eb163388d43e099f2923169503725e305fb6df0f25a1041a0a005ec9bbb90c4aa3ff43845500740fce2fa0bf148abcc17215e46a8593db4381d",
      "networkId": 0,
      "chainId": 0
    },
    {
      "hash": "0x73029206de3aeeeb4965f1eba576490e4e12398cb3d19784fd628b6090c4ffa9",
      "blockHash": "0xb4bc06bc9fe8eb5a25f44658903463ab054239dad741c863024507885df323c7",
      "blockNumber": 68561,
      "transactionIndex": 16,
      "confirmations": null,
      "from": "0x4af01b1640B5494c4fb0B283b71698De0e1d4228",
      "gasPrice": {
        "_hex": "0xba43b7400"
      },
      "gasLimit": {
        "_hex": "0x15f90"
      },
      "to": "0x793AE8C1b1a160BFc07BFB0d04F85eab1A71F4f2",
      "value": {
        "_hex": "0x0"
      },
      "nonce": 0,
      "data": "0x3ba15036",
      "r": "0xa31aa23f5cfdff0bf20e14ea7607adff99931ea940f9b7e2e150fd72ec143749",
      "s": "0x4828b63d3e177e759e4056bd411a0aaedc892f9d9916efdcf262d3c418eab46d",
      "v": 28,
      "creates": null,
      "raw": "0xf86980850ba43b740083015f9094793ae8c1b1a160bfc07bfb0d04f85eab1a71f4f280843ba150361ca0a31aa23f5cfdff0bf20e14ea7607adff99931ea940f9b7e2e150fd72ec143749a04828b63d3e177e759e4056bd411a0aaedc892f9d9916efdcf262d3c418eab46d",
      "networkId": 0,
      "chainId": 0
    },
    {
      "hash": "0x97ee6f8f3446199295feb8bdb54bc05bd2731000158eee92f702cbbc73137604",
      "blockHash": "0xb4bc06bc9fe8eb5a25f44658903463ab054239dad741c863024507885df323c7",
      "blockNumber": 68561,
      "transactionIndex": 17,
      "confirmations": null,
      "from": "0xa229CcFC90535F38957Da1311dc4793f0Bfd02aA",
      "gasPrice": {
        "_hex": "0xba43b7400"
      },
      "gasLimit": {
        "_hex": "0x15f90"
      },
      "to": "0x793AE8C1b1a160BFc07BFB0d04F85eab1A71F4f2",
      "value": {
        "_hex": "0x0"
      },
      "nonce": 0,
      "data": "0x3ba15036",
      "r": "0xa65ae437d8cd8a3bd5876e84814032f21c1f56838f311ccd74caa753c0d92b77",
      "s": "0x487a9b404a4c032fa1e08b61b874032220fd315f93a14ee2db782f16b8cbce2d",
      "v": 27,
      "creates": null,
      "raw": "0xf86980850ba43b740083015f9094793ae8c1b1a160bfc07bfb0d04f85eab1a71f4f280843ba150361ba0a65ae437d8cd8a3bd5876e84814032f21c1f56838f311ccd74caa753c0d92b77a0487a9b404a4c032fa1e08b61b874032220fd315f93a14ee2db782f16b8cbce2d",
      "networkId": 0,
      "chainId": 0
    },
    {
      "hash": "0x19c6b09545ee96eabee8bd06735893b90c38bd3d22535b11e7762e373b4ca51a",
      "blockHash": "0xb4bc06bc9fe8eb5a25f44658903463ab054239dad741c863024507885df323c7",
      "blockNumber": 68561,
      "transactionIndex": 18,
      "confirmations": null,
      "from": "0xE0688Cf63BF77eBf4870B29343389ae0D423b061",
      "gasPrice": {
        "_hex": "0xba43b7400"
      },
      "gasLimit": {
        "_hex": "0x15f90"
      },
      "to": "0x793AE8C1b1a160BFc07BFB0d04F85eab1A71F4f2",
      "value": {
        "_hex": "0x0"
      },
      "nonce": 0,
      "data": "0x3ba15036",
      "r": "0x34efd36594b726b38d57b7791b74051087fb7bbce3ff559f2ccdfd773b3ba029",
      "s": "0x2a90345b3b7ac1bf0322f0f6aa479bc702ea0622b647f035cce3c2932b852977",
      "v": 28,
      "creates": null,
      "raw": "0xf86980850ba43b740083015f9094793ae8c1b1a160bfc07bfb0d04f85eab1a71f4f280843ba150361ca034efd36594b726b38d57b7791b74051087fb7bbce3ff559f2ccdfd773b3ba029a02a90345b3b7ac1bf0322f0f6aa479bc702ea0622b647f035cce3c2932b852977",
      "networkId": 0,
      "chainId": 0
    },
    {
      "hash": "0x7f7f49a5c9c7c0bee03a4e1cb150ec090e9c731f88fa0d3c9016adfdf6ce1f21",
      "blockHash": "0xb4bc06bc9fe8eb5a25f44658903463ab054239dad741c863024507885df323c7",
      "blockNumber": 68561,
      "transactionIndex": 19,
      "confirmations": null,
      "from": "0x3A96D476c6F64a6Ed641C577FD1E1A9dE97EF0A4",
      "gasPrice": {
        "_hex": "0xba43b7400"
      },
      "gasLimit": {
        "_hex": "0x15f90"
      },
      "to": "0x793AE8C1b1a160BFc07BFB0d04F85eab1A71F4f2",
      "value": {
        "_hex": "0x0"
      },
      "nonce": 0,
      "data": "0x3ba15036",
      "r": "0xccf811d867de42898a4e6c30cfe022bcde6e0fc0a1d5a01bf04bd01761abc4b4",
      "s": "0x536e826ea6d321390ba8353368b57db7a7f30bd10b26912e644152e9a7deb8b4",
      "v": 27,
      "creates": null,
      "raw": "0xf86980850ba43b740083015f9094793ae8c1b1a160bfc07bfb0d04f85eab1a71f4f280843ba150361ba0ccf811d867de42898a4e6c30cfe022bcde6e0fc0a1d5a01bf04bd01761abc4b4a0536e826ea6d321390ba8353368b57db7a7f30bd10b26912e644152e9a7deb8b4",
      "networkId": 0,
      "chainId": 0
    },
    {
      "hash": "0x21b1c8ceb63c3e6235f5a2426c8469a8003a95a61296b5c57509df22c4cad600",
      "blockHash": "0xb4bc06bc9fe8eb5a25f44658903463ab054239dad741c863024507885df323c7",
      "blockNumber": 68561,
      "transactionIndex": 20,
      "confirmations": null,
      "from": "0xC1495EDb9fb916DC3Cfa9d964789e52aF50DE93c",
      "gasPrice": {
        "_hex": "0xba43b7400"
      },
      "gasLimit": {
        "_hex": "0x15f90"
      },
      "to": "0x793AE8C1b1a160BFc07BFB0d04F85eab1A71F4f2",
      "value": {
        "_hex": "0x0"
      },
      "nonce": 0,
      "data": "0x3ba15036",
      "r": "0xbc2dae4028c942d91eaa30f1d1e4f3b6fa2072d17e72e719551482866666ffc5",
      "s": "0x622403729f8d13536ac9935c7348bb82d6a80d65c7f82d945c25dc80f24d5ee5",
      "v": 28,
      "creates": null,
      "raw": "0xf86980850ba43b740083015f9094793ae8c1b1a160bfc07bfb0d04f85eab1a71f4f280843ba150361ca0bc2dae4028c942d91eaa30f1d1e4f3b6fa2072d17e72e719551482866666ffc5a0622403729f8d13536ac9935c7348bb82d6a80d65c7f82d945c25dc80f24d5ee5",
      "networkId": 0,
      "chainId": 0
    },
    {
      "hash": "0xbcd2947e4b22d09c5014ddf390251dac13d36b8ae262376c556491c8d866e052",
      "blockHash": "0xb4bc06bc9fe8eb5a25f44658903463ab054239dad741c863024507885df323c7",
      "blockNumber": 68561,
      "transactionIndex": 21,
      "confirmations": null,
      "from": "0xFfb0220e3F2ef137a6B34196c8FB7488636183a2",
      "gasPrice": {
        "_hex": "0xba43b7400"
      },
      "gasLimit": {
        "_hex": "0x15f90"
      },
      "to": "0x793AE8C1b1a160BFc07BFB0d04F85eab1A71F4f2",
      "value": {
        "_hex": "0x0"
      },
      "nonce": 0,
      "data": "0x3ba15036",
      "r": "0x6e0a88c8830f0390c003c52c187e65b9e333f6f53cfaf654ed881b554c97f895",
      "s": "0x1ce24216e05c9c602b77d66fcc4b7c51f68a72d3e84166e2939552de8f45a083",
      "v": 27,
      "creates": null,
      "raw": "0xf86980850ba43b740083015f9094793ae8c1b1a160bfc07bfb0d04f85eab1a71f4f280843ba150361ba06e0a88c8830f0390c003c52c187e65b9e333f6f53cfaf654ed881b554c97f895a01ce24216e05c9c602b77d66fcc4b7c51f68a72d3e84166e2939552de8f45a083",
      "networkId": 0,
      "chainId": 0
    },
    {
      "hash": "0x0a750332f16938ea18cd60d01883df300a25a9992c5095042c66054bf33015f1",
      "blockHash": "0xb4bc06bc9fe8eb5a25f44658903463ab054239dad741c863024507885df323c7",
      "blockNumber": 68561,
      "transactionIndex": 22,
      "confirmations": null,
      "from": "0xbDf5FD55744C3886D7bDd1801BA8e5B791102DCb",
      "gasPrice": {
        "_hex": "0xba43b7400"
      },
      "gasLimit": {
        "_hex": "0x15f90"
      },
      "to": "0x793AE8C1b1a160BFc07BFB0d04F85eab1A71F4f2",
      "value": {
        "_hex": "0x0"
      },
      "nonce": 0,
      "data": "0x3ba15036",
      "r": "0x61e16ea708f742f52be0ed15a4d8dd3445dc9f1e9c3c9c554df2b93a66a86511",
      "s": "0x4423af7dd1bbf268abb0aeb8ddf498151b14e1e3c62c6fb02f33e415e58951a5",
      "v": 27,
      "creates": null,
      "raw": "0xf86980850ba43b740083015f9094793ae8c1b1a160bfc07bfb0d04f85eab1a71f4f280843ba150361ba061e16ea708f742f52be0ed15a4d8dd3445dc9f1e9c3c9c554df2b93a66a86511a04423af7dd1bbf268abb0aeb8ddf498151b14e1e3c62c6fb02f33e415e58951a5",
      "networkId": 0,
      "chainId": 0
    },
    {
      "hash": "0xf8bd5e427109c63e94e781bffa072244f7a32aabf3f0c46ae02e5c1b6140b6ff",
      "blockHash": "0xb4bc06bc9fe8eb5a25f44658903463ab054239dad741c863024507885df323c7",
      "blockNumber": 68561,
      "transactionIndex": 23,
      "confirmations": null,
      "from": "0xAa51Ff0434F653bE1f667b4b21a83C42B19a5E23",
      "gasPrice": {
        "_hex": "0xba43b7400"
      },
      "gasLimit": {
        "_hex": "0x15f90"
      },
      "to": "0x793AE8C1b1a160BFc07BFB0d04F85eab1A71F4f2",
      "value": {
        "_hex": "0x0"
      },
      "nonce": 0,
      "data": "0x3ba15036",
      "r": "0x5ca3366ab87b8c673815acc8fbaab56cd73ec1cd5b9fa4dd5592e53e4cb6c825",
      "s": "0x1445ca07fe8f13cc744fab9efbae60136f449ee3dc317a07e800b9ae4afaac8c",
      "v": 27,
      "creates": null,
      "raw": "0xf86980850ba43b740083015f9094793ae8c1b1a160bfc07bfb0d04f85eab1a71f4f280843ba150361ba05ca3366ab87b8c673815acc8fbaab56cd73ec1cd5b9fa4dd5592e53e4cb6c825a01445ca07fe8f13cc744fab9efbae60136f449ee3dc317a07e800b9ae4afaac8c",
      "networkId": 0,
      "chainId": 0
    },
    {
      "hash": "0x86652bb98bebb72f676ffb118fee6266c1adb8974622452aba0c215c855d9370",
      "blockHash": "0xb4bc06bc9fe8eb5a25f44658903463ab054239dad741c863024507885df323c7",
      "blockNumber": 68561,
      "transactionIndex": 24,
      "confirmations": null,
      "from": "0xB3F9652e68fac0B3577b7f6E1375c80b17Cb809F",
      "gasPrice": {
        "_hex": "0xba43b7400"
      },
      "gasLimit": {
        "_hex": "0x15f90"
      },
      "to": "0x793AE8C1b1a160BFc07BFB0d04F85eab1A71F4f2",
      "value": {
        "_hex": "0x0"
      },
      "nonce": 0,
      "data": "0x3ba15036",
      "r": "0x08b4efd29b485102958945ad54b4dcffd74c027b20cc1f67686552fef0662b83",
      "s": "0x0edeec283402b0c228659946fd48b63ba055ceb97483d2c23afd4059c7b58ff3",
      "v": 27,
      "creates": null,
      "raw": "0xf86980850ba43b740083015f9094793ae8c1b1a160bfc07bfb0d04f85eab1a71f4f280843ba150361ba008b4efd29b485102958945ad54b4dcffd74c027b20cc1f67686552fef0662b83a00edeec283402b0c228659946fd48b63ba055ceb97483d2c23afd4059c7b58ff3",
      "networkId": 0,
      "chainId": 0
    },
    {
      "hash": "0xf38160becb7e7063d376c33ac1e0e89bf87d995891d5d54d6acac64faf37b3be",
      "blockHash": "0xb4bc06bc9fe8eb5a25f44658903463ab054239dad741c863024507885df323c7",
      "blockNumber": 68561,
      "transactionIndex": 25,
      "confirmations": null,
      "from": "0x5A82f9daA20F323d73E3C2e31f1D26a1e5ec789e",
      "gasPrice": {
        "_hex": "0xba43b7400"
      },
      "gasLimit": {
        "_hex": "0x15f90"
      },
      "to": "0x793AE8C1b1a160BFc07BFB0d04F85eab1A71F4f2",
      "value": {
        "_hex": "0x0"
      },
      "nonce": 0,
      "data": "0x3ba15036",
      "r": "0x3a1fff2845406f11f9e03b0fe024ea0d0e5c9b858dba37fc97a350c227973a42",
      "s": "0x052242816e6e1eed536bcade7ad903d25ed86ecbbe886a66f5d189778d37d0c0",
      "v": 28,
      "creates": null,
      "raw": "0xf86980850ba43b740083015f9094793ae8c1b1a160bfc07bfb0d04f85eab1a71f4f280843ba150361ca03a1fff2845406f11f9e03b0fe024ea0d0e5c9b858dba37fc97a350c227973a42a0052242816e6e1eed536bcade7ad903d25ed86ecbbe886a66f5d189778d37d0c0",
      "networkId": 0,
      "chainId": 0
    }
  ]
}