{
  "hash": "0x6e279dd5a93baa319353093d2e198fe59c609c6005a16057ae377bb81247e825",
  "parentHash": "0x6197ba32ee58af67dc0df4448cec1a805bc51d0a7e888e2dae0a25acc328282a",
  "number": 93647,
  "timestamp": 1439695083,
  "nonce": "0xa0dd6dafbba83212",
  "difficulty": 3448047312239,
  "gasLimit": {
    "_hex": "0x2fefd8"
  },
  "gasUsed": {
    "_hex": "0x5208"
  },
  "miner": "0xf8E0CA3Ed80bd541b94BEdCf259e8CF2141A9523",
  "extraData": "0x476574682f76312e302e312f77696e646f77732f676f312e342e32",
  "transactions": [
    {
      "hash": "0xbc9397946551ff731f49f204d0865cc4e8a65ea250e0eaf132fff22364e9c613",
      "blockHash": "0x6e279dd5a93baa319353093d2e198fe59c609c6005a16057ae377bb81247e825",
      "blockNumber": 93647,
      "transactionIndex": 0,
      "confirmations": null,
      "from": "0x7de442c82386154d2e993CBd1280bB7CA6b12AdA",
      "gasPrice": {
        "_hex": "0xd8c59fb4f"
      },
      "gasLimit": {
        "_hex": "0x15f90"
      },
      "to": "0xe6419e3c25f39219e035051aA9bA49165f0893Ab",
      "value": {
        "_hex": "0x22b1c8c1227a0000"
      },
      "nonce": 1,
      "data": "0x",
      "r": "0xd704fd592cedac57e8c0062e6e22dad0e22f9e45f841a52d1db364aa8320277f",
      "s": "0x594bd6c2a6e3d225fbe87e5078b31e045236415c9677f416e6f8f695d338fc95",
      "v": 27,
      "creates": null,
      "raw": "0xf86d01850d8c59fb4f83015f9094e6419e3c25f39219e035051aa9ba49165f0893ab8822b1c8c1227a0000801ba0d704fd592cedac57e8c0062e6e22dad0e22f9e45f841a52d1db364aa8320277fa0594bd6c2a6e3d225fbe87e5078b31e045236415c9677f416e6f8f695d338fc95",
      "networkId": 0,
      "chainId": 0
    }
  ]
}