{
  "hash": "0x0cd7987dcff3c49e2c411f21b4b8ba1c286b7c4c37ad534261a4bfec0eed58a4",
  "parentHash": "0x6dfd048e6efd56358120cc6fe74b4c31cd0d3e947d0bdcc8ff6b5fd967fba9b4",
  "number": 84579,
  "timestamp": 1439551636,
  "nonce": "0xe2d53840458f3c4d",
  "difficulty": 2582737747763,
  "gasLimit": {
    "_hex": "0x2fefd8"
  },
  "gasUsed": {
    "_hex": "0x5208"
  },
  "miner": "0x5B3e850E39e6f2C7dD38707b649e2B3536F14C0b",
  "extraData": "0x476574682f76312e302e312f64617277696e2f676f312e342e32",
  "transactions": [
    {
      "hash": "0xaf3d201183b21f3b4414755bae90e23180fbcc09a1a18d0d92d8a3ffcfd70c84",
      "blockHash": "0x0cd7987dcff3c49e2c411f21b4b8ba1c286b7c4c37ad534261a4bfec0eed58a4",
      "blockNumber": 84579,
      "transactionIndex": 0,
      "confirmations": null,
      "from": "0xF2Edde37F9a8C39ddeA24D79f4015757D06BF786",
      "gasPrice": {
        "_hex": "0xd44445371"
      },
      "gasLimit": {
        "_hex": "0x5208"
      },
      "to": "0x738e836870D34d909F8De81Ae8c759cf55f4EAaF",
      "value": {
        "_hex": "0x1b1ae4d6e2ef5000000"
      },
      "nonce": 4,
      "data": "0x",
      "r": "0xee3fe7350b8491a38c352e3f76eb84095259d3daf33bea75ed6a783528005139",
      "s": "0x5fe0181ac0fbab2826079a78bf5a2dcfe48d0f5d4718750d3fb6950ebb63ea30",
      "v": 28,
      "creates": null,
      "raw": "0xf86e04850d4444537182520894738e836870d34d909f8de81ae8c759cf55f4eaaf8a01b1ae4d6e2ef5000000801ca0ee3fe7350b8491a38c352e3f76eb84095259d3daf33bea75ed6a783528005139a05fe0181ac0fbab2826079a78bf5a2dcfe48d0f5d4718750d3fb6950ebb63ea30",
      "networkId": 0,
      "chainId": 0
    }
  ]
}