{
  "hash": "0xb301aa0e3b5586134fea51651dac2898028bf573f6bf440cf78fb9f210b9ba23",
  "parentHash": "0xec090a5fd035df6d223e7053b30d7b3d46a77f5c40f3c4ba9ddbbfa522ec0e82",
  "number": 71745,
  "timestamp": 1439341255,
  "nonce": "0x50f369e675fa566b",
  "difficulty": 2171841032161,
  "gasLimit": {
    "_hex": "0x2fefd8"
  },
  "gasUsed": {
    "_hex": "0x5208"
  },
  "miner": "0x0037ce3d4B7f8729C8607D8D0248252Be68202c0",
  "extraData": "0x476574682f76312e302e312f77696e646f77732f676f312e342e32",
  "transactions": [
    {
      "hash": "0xf35bcad5fb837ffa271345401bdb6d84b3a2ea73bb77215b7d33bcae5b26c48b",
      "blockHash": "0xb301aa0e3b5586134fea51651dac2898028bf573f6bf440cf78fb9f210b9ba23",
      "blockNumber": 71745,
      "transactionIndex": 0,
      "confirmations": null,
      "from": "0x32Be343B94f860124dC4fEe278FDCBD38C102D88",
      "gasPrice": {
        "_hex": "0xd6e0dbb8f"
      },
      "gasLimit": {
        "_hex": "0x5208"
      },
      "to": "0x910560734C1155e546d762CB1C5e1669E798AEb4",
      "value": {
        "_hex": "0x804f1232f00d8000"
      },
      "nonce": 273,
      "data": "0x",
      "r": "0x34f24982dc6a1d34f76293d3385e87231545776b4c501f6bdeccb592016cc0fe",
      "s": "0x02b0a9816feb58fc7a111165c8ba794d2994185026cf3a5bd0be6a55d6e1f58a",
      "v": 28,
      "creates": null,
      "raw": "0xf86e820111850d6e0dbb8f82520894910560734c1155e546d762cb1c5e1669e798aeb488804f1232f00d8000801ca034f24982dc6a1d34f76293d3385e87231545776b4c501f6bdeccb592016cc0fea002b0a9816feb58fc7a111165c8ba794d2994185026cf3a5bd0be6a55d6e1f58a",
      "networkId": 0,
      "chainId": 0
    }
  ]
}