{
  "hash": "0x9a48c1de3a1f5c4b32d01b774a09acb022ae78cfbd5bb3968a0ec07903d3f234",
  "parentHash": "0xe5ea2af3400e94d7c11ac5484944356b3e9446c7699a0ec8f0a3bf022c0c9ad3",
  "number": 83823,
  "timestamp": 1439541419,
  "nonce": "0xd64ee0d1b479fadc",
  "difficulty": 2443120300982,
  "gasLimit": {
    "_hex": "0x2fefd8"
  },
  "gasUsed": {
    "_hex": "0x5208"
  },
  "miner": "0xf8E0CA3Ed80bd541b94BEdCf259e8CF2141A9523",
  "extraData": "0x476574682f76312e302e312f77696e646f77732f676f312e342e32",
  "transactions": [
    {
      "hash": "0x014658f73f87e81c3b4700ae3b2cc8b9d8e99ac9381c4ef6a2f21ec27c9eed2a",
      "blockHash": "0x9a48c1de3a1f5c4b32d01b774a09acb022ae78cfbd5bb3968a0ec07903d3f234",
      "blockNumber": 83823,
      "transactionIndex": 0,
      "confirmations": null,
      "from": "0xcd0Af3474e22F069EC3407870DD770443d5b12B0",
      "gasPrice": {
        "_hex": "0xd7d40ace3"
      },
      "gasLimit": {
        "_hex": "0x7a120"
      },
      "to": "0x0bCa038BF4ACAd3Cbf73463EccC7717dDCDc3D83",
      "value": {
        "_hex": "0xde0b6b3a7640000"
      },
      "nonce": 0,
      "data": "0x",
      "r": "0x6d7510f7526718f58c2c184964686c6cb3914ec4d908a42f21189e4c3681855b",
      "s": "0x6ee192d665cb153355894c2f2967f0443a40dfce338bfbdcb98bbdfe66c749ff",
      "v": 27,
      "creates": null,
      "raw": "0xf86d80850d7d40ace38307a120940bca038bf4acad3cbf73463eccc7717ddcdc3d83880de0b6b3a7640000801ba06d7510f7526718f58c2c184964686c6cb3914ec4d908a42f21189e4c3681855ba06ee192d665cb153355894c2f2967f0443a40dfce338bfbdcb98bbdfe66c749ff",
      "networkId": 0,
      "chainId": 0
    }
  ]
}