{
  "hash": "0x50668d8bd396aaacee751f4e72abe6169cb79749630f29bc993f97396ffba2a6",
  "parentHash": "0xee50238c44b303b14d8777e1571457ad3673dcf0cc22c305871f3435d3ebd731",
  "number": 65329,
  "timestamp": 1439235041,
  "nonce": "0xa0c02273dcd2447c",
  "difficulty": 1944513705371,
  "gasLimit": {
    "_hex": "0x2fefd8"
  },
  "gasUsed": {
    "_hex": "0x5208"
  },
  "miner": "0xbb7B8287f3F0a933474a79eAe42CBCa977791171",
  "extraData": "0x476574682f4c5649562f76312e302e312f6c696e75782f676f312e342e32",
  "transactions": [
    {
      "hash": "0xc2e3107ca3aac26dbf9bf84d93c48779254e5d4397fad804c4942a77e81cb2ba",
      "blockHash": "0x50668d8bd396aaacee751f4e72abe6169cb79749630f29bc993f97396ffba2a6",
      "blockNumber": 65329,
      "transactionIndex": 0,
      "confirmations": null,
      "from": "0x608F680cB915b87F83f3d369bBbb796D778c6162",
      "gasPrice": {
        "_hex": "0xcde70e86a"
      },
      "gasLimit": {
        "_hex": "0x15f90"
      },
      "to": "0xBaf4E201A3015b60bD8dd1190E20411EaF12C5eE",
      "value": {
        "_hex": "0xa7640000"
      },
      "nonce": 2,
      "data": "0x",
      "r": "0xbd670a6eba560bd1e2bc53a5390db5c0546156fed41f7f0cd00775c63504d95b",
      "s": "0x1863e87f6c6c4c368dd4e2259a677e6bc29a9572091a632cf067b077eacecbf4",
      "v": 28,
      "creates": null,
      "raw": "0xf86902850cde70e86a83015f9094baf4e201a3015b60bd8dd1190e20411eaf12c5ee84a7640000801ca0bd670a6eba560bd1e2bc53a5390db5c0546156fed41f7f0cd00775c63504d95ba01863e87f6c6c4c368dd4e2259a677e6bc29a9572091a632cf067b077eacecbf4",
      "networkId": 0,
      "chainId": 0
    }
  ]
}