{
  "hash": "0x7aabb4d4f5227b007bc39af5c33cbd3515bf8daa139b007a4dee7850402a419e",
  "parentHash": "0x14b7187a2bdbfc6c45854a457ae1ae23e9704e1f82af16808db3f8d8d80fef73",
  "number": 72492,
  "timestamp": 1439353528,
  "nonce": "0x40d1d04f55d40265",
  "difficulty": 2202617261953,
  "gasLimit": {
    "_hex": "0x2fefd8"
  },
  "gasUsed": {
    "_hex": "0x5208"
  },
  "miner": "0xe6A7a1d47ff21B6321162AEA7C6CB457D5476Bca",
  "extraData": "0x476574682f76312e302e312d38326566323666362f6c696e75782f676f312e34",
  "transactions": [
    {
      "hash": "0x51c65570ab121eded10b2419fd00c53e150acc2846ba4f082aef103da49f9e2a",
      "blockHash": "0x7aabb4d4f5227b007bc39af5c33cbd3515bf8daa139b007a4dee7850402a419e",
      "blockNumber": 72492,
      "transactionIndex": 0,
      "confirmations": null,
      "from": "0x9271AB1be3177bF3E3B684a8783698F1B9D600a2",
      "gasPrice": {
        "_hex": "0xcfc193dc0"
      },
      "gasLimit": {
        "_hex": "0x15f90"
      },
      "to": "0xa391109Aa419A9241C6d91d824581D672e96E93B",
      "value": {
        "_hex": "0x93739534d28680000"
      },
      "nonce": 0,
      "data": "0x",
      "r": "0xc7c5bcafe08c8f5090d2ee4933710cf3efc7aa575ef6be73e82baaeca464b965",
      "s": "0x005020cf9a5979aed3e8880ec9eefa6594b77ddc3ffc9c856a8aefed912fb687",
      "v": 27,
      "creates": null,
      "raw": "0xf86d80850cfc193dc083015f9094a391109aa419a9241c6d91d824581d672e96e93b89093739534d28680000801ba0c7c5bcafe08c8f5090d2ee4933710cf3efc7aa575ef6be73e82baaeca464b9659f5020cf9a5979aed3e8880ec9eefa6594b77ddc3ffc9c856a8aefed912fb687",
      "networkId": 0,
      "chainId": 0
    }
  ]
}