{
  "hash": "0xfb1085b0bbb65243d1d5261973b1e4e699f08ce4e071b64fdb0a55d0b2ad9335",
  "parentHash": "0xf82383ac45fdbb318dce539264583f84695f19f483d539fcaea897d858da106d",
  "number": 102491,
  "timestamp": 1439838825,
  "nonce": "0x0b351b0c5ddd3f9f",
  "difficulty": 3960626563384,
  "gasLimit": {
    "_hex": "0x2fefd8"
  },
  "gasUsed": {
    "_hex": "0x546c"
  },
  "miner": "0xe6A7a1d47ff21B6321162AEA7C6CB457D5476Bca",
  "extraData": "0x476574682f76312e302e312d38326566323666362f6c696e75782f676f312e34",
  "transactions": [
    {
      "hash": "0x3f14b3286976272b0984294ab2cfae8802a74fc088795fef800f157bd7deb6cb",
      "blockHash": "0xfb1085b0bbb65243d1d5261973b1e4e699f08ce4e071b64fdb0a55d0b2ad9335",
      "blockNumber": 102491,
      "transactionIndex": 0,
      "confirmations": null,
      "from": "0x30853f0562c79055Fbd88CFFC01A109b346752ba",
      "gasPrice": {
        "_hex": "0xd00ebfd74"
      },
      "gasLimit": {
        "_hex": "0x7530"
      },
      "to": "0x2910543Af39abA0Cd09dBb2D50200b3E800A63D2",
      "value": {
        "_hex": "0x53444835ec5800000"
      },
      "nonce": 4,
      "data": "0x454e3651304d384252",
      "r": "0xfc92e184f0efa9d8cbab40f6d5cfa0d9ce0efc8192924d081e5734462166aa71",
      "s": "0x7ac9d4a115e2264315680909bca93aca9aed1742c5d271a47c0a0b11e5e7543a",
      "v": 27,
      "creates": null,
      "raw": "0xf87604850d00ebfd74827530942910543af39aba0cd09dbb2d50200b3e800a63d289053444835ec580000089454e3651304d3842521ba0fc92e184f0efa9d8cbab40f6d5cfa0d9ce0efc8192924d081e5734462166aa71a07ac9d4a115e2264315680909bca93aca9aed1742c5d271a47c0a0b11e5e7543a",
      "networkId": 0,
      "chainId": 0
    }
  ]
}