{
  "hash": "0xbceb18ea0cb0b7779a74dafc1997416709ec9da76c8d6f5867608ad796f0e9c8",
  "parentHash": "0x566caf0037791dae5a40f48ea9c73dc1d6d12099a51626a089d0e6be66dd5bf4",
  "number": 64260,
  "timestamp": 1439217776,
  "nonce": "0x221af02a48c0507b",
  "difficulty": 1880331232274,
  "gasLimit": {
    "_hex": "0x2fefd8"
  },
  "gasUsed": {
    "_hex": "0x11074"
  },
  "miner": "0x640bAfc5732d621d5611eed670718409acb81366",
  "extraData": "0x476574682f76312e302e312d38326566323666362f6c696e75782f676f312e34",
  "transactions": [
    {
      "hash": "0xb3f1b8eb7a6d8c0ff9a43079903ca8b9e8b2ba45a23401f8920ee3e7669b9b81",
      "blockHash": "0xbceb18ea0cb0b7779a74dafc1997416709ec9da76c8d6f5867608ad796f0e9c8",
      "blockNumber": 64260,
      "transactionIndex": 0,
      "confirmations": null,
      "from": "0x2910543Af39abA0Cd09dBb2D50200b3E800A63D2",
      "gasPrice": {
        "_hex": "0xd4a8aba8a"
      },
      "gasLimit": {
        "_hex": "0x5208"
      },
      "to": "0x6FdA00F80228f360b0CCce26c1858C722aE0dc74",
      "value": {
        "_hex": "0xa2a14b45d863ff8000"
      },
      "nonce": 139,
      "data": "0x",
      "r": "0xdc7e2a0dc65a109b160b2df8bfb8fd191370315dcb8656d84606567a360a993d",
      "s": "0x31f4847937af7abdf00ee801dd959e445d85511556f01fe99df4707782cbd52a",
      "v": 28,
      "creates": null,
      "raw": "0xf86e818b850d4a8aba8a825208946fda00f80228f360b0ccce26c1858c722ae0dc7489a2a14b45d863ff8000801ca0dc7e2a0dc65a109b160b2df8bfb8fd191370315dcb8656d84606567a360a993da031f4847937af7abdf00ee801dd959e445d85511556f01fe99df4707782cbd52a",
      "networkId": 0,
      "chainId": 0
    },
    {
      "hash": "0xea2f4b00f7a65b152bb344b21dd9129225848592b8cee1fbb3495650c915dc16",
      "blockHash": "0xbceb18ea0cb0b7779a74dafc1997416709ec9da76c8d6f5867608ad796f0e9c8",
      "blockNumber": 64260,
      "transactionIndex": 1,
      "confirmations": null,
      "from": "0x6B4971F56172Fe56565FD3d6b56F8CA3C91B2baD",
      "gasPrice": {
        "_hex": "0xd0df8c6e6"
      },
      "gasLimit": {
        "_hex": "0x15f90"
      },
      "to": "0x793AE8C1b1a160BFc07BFB0d04F85eab1A71F4f2",
      "value": {
        "_hex": "0x0"
      },
      "nonce": 3,
      "data": "0x3ba15036",
      "r": "0x29c0e7573e7dc8428c53512a95f386d3ccbe549ceabc76405dbfa69a0a3d54ae",
      "s": "0x0b5a08aba82c24b33e3b2674fdf828ba9b6762ee9c4b0535cef3d56e8d9439ce",
      "v": 27,
      "creates": null,
      "raw": "0xf86903850d0df8c6e683015f9094793ae8c1b1a160bfc07bfb0d04f85eab1a71f4f280843ba150361ba029c0e7573e7dc8428c53512a95f386d3ccbe549ceabc76405dbfa69a0a3d54aea00b5a08aba82c24b33e3b2674fdf828ba9b6762ee9c4b0535cef3d56e8d9439ce",
      "networkId": 0,
      "chainId": 0
    }
  ]
}