{
  "hash": "0xf820080368c50cf99ba12a339b2ac7fad9ed007a2c6d3fe95ca3769c338dc412",
  "parentHash": "0x2f478652e0b536661d490d8b5d5c2a7760d9f9ffce51632df06ca80ad46e991b",
  "number": 98945,
  "timestamp": 1439781674,
  "nonce": "0xff0d8cc446517bc2",
  "difficulty": 3847902038452,
  "gasLimit": {
    "_hex": "0x2fefd8"
  },
  "gasUsed": {
    "_hex": "0xa410"
  },
  "miner": "0xbb7B8287f3F0a933474a79eAe42CBCa977791171",
  "extraData": "0x476574682f4c5649562f76312e302e312f6c696e75782f676f312e342e32",
  "transactions": [
    {
      "hash": "0x9c84eee6ea709410e84e11a3071940269d99f5f184e8a18e24c80eb83cc3502f",
      "blockHash": "0xf820080368c50cf99ba12a339b2ac7fad9ed007a2c6d3fe95ca3769c338dc412",
      "blockNumber": 98945,
      "transactionIndex": 0,
      "confirmations": null,
      "from": "0x007f7f58D3eb5b7510A301eCC749FC1fCDDBE14D",
      "gasPrice": {
        "_hex": "0xe0cfe7246"
      },
      "gasLimit": {
        "_hex": "0x15f90"
      },
      "to": "0xb1abce2918E21ddb93AA452731a12672A3d9F75a",
      "value": {
        "_hex": "0x4563918244f40000"
      },
      "nonce": 140,
      "data": "0x",
      "r": "0x463740db9aed0a2e28c6cbf0e2a5b75321c529babaa52d1fde14443d98530327",
      "s": "0x3bd65586aec34d0a8bda9b7a003f620691dd0b1531007bce7482a1ad2c185249",
      "v": 27,
      "creates": null,
      "raw": "0xf86e818c850e0cfe724683015f9094b1abce2918e21ddb93aa452731a12672a3d9f75a884563918244f40000801ba0463740db9aed0a2e28c6cbf0e2a5b75321c529babaa52d1fde14443d98530327a03bd65586aec34d0a8bda9b7a003f620691dd0b1531007bce7482a1ad2c185249",
      "networkId": 0,
      "chainId": 0
    },
    {
      "hash": "0x433621e11d9bea37726c721e347735a0fb12fd2d61c87808af4daac0afbc23ea",
      "blockHash": "0xf820080368c50cf99ba12a339b2ac7fad9ed007a2c6d3fe95ca3769c338dc412",
      "blockNumber": 98945,
      "transactionIndex": 1,
      "confirmations": null,
      "from": "0x007f7f58D3eb5b7510A301eCC749FC1fCDDBE14D",
      "gasPrice": {
        "_hex": "0xe0cfe7246"
      },
      "gasLimit": {
        "_hex": "0x15f90"
      },
      "to": "0xb1abce2918E21ddb93AA452731a12672A3d9F75a",
      "value": {
        "_hex": "0x4563918244f40000"
      },
      "nonce": 141,
      "data": "0x",
      "r": "0xe862d304c4a891c3e7ee90b842c6adeb0911518e2ac4edd034a108af83c0b5f8",
      "s": "0x152390b45d3c56941cf9e2b4407990b5e6a0d6710ed13c9d15589541f19aa84d",
      "v": 27,
      "creates": null,
      "raw": "0xf86e818d850e0cfe724683015f9094b1abce2918e21ddb93aa452731a12672a3d9f75a884563918244f40000801ba0e862d304c4a891c3e7ee90b842c6adeb0911518e2ac4edd034a108af83c0b5f8a0152390b45d3c56941cf9e2b4407990b5e6a0d6710ed13c9d15589541f19aa84d",
      "networkId": 0,
      "chainId": 0
    }
  ]
}