{
  "hash": "0x42690c86a3ce0effc1ace599c833f4222a8381b2dba13010fc43cdcae0d38bdc",
  "parentHash": "0x67c82718b225ce0eb6aa28df17c7622caaf82fdb34338c6ca0aed58b373d9adc",
  "number": 117626,
  "timestamp": 1440112802,
  "nonce": "0x3fa7a982b8602aa2",
  "difficulty": 4318797108046,
  "gasLimit": {
    "_hex": "0x2fefd8"
  },
  "gasUsed": {
    "_hex": "0x546c"
  },
  "miner": "0xe6A7a1d47ff21B6321162AEA7C6CB457D5476Bca",
  "extraData": "0xd783010002844765746887676f312e342e32856c696e7578",
  "transactions": [
    {
      "hash": "0x38c69b4c5d80ea2302027c658a568e604a26ab2e49c627d3fde1de6b3478dfe9",
      "blockHash": "0x42690c86a3ce0effc1ace599c833f4222a8381b2dba13010fc43cdcae0d38bdc",
      "blockNumber": 117626,
      "transactionIndex": 0,
      "confirmations": null,
      "from": "0xE3263cE8af6db3e467584502eD7109125EaE22A5",
      "gasPrice": {
        "_hex": "0x110c8f7d8de"
      },
      "gasLimit": {
        "_hex": "0xc350"
      },
      "to": "0x2910543Af39abA0Cd09dBb2D50200b3E800A63D2",
      "value": {
        "_hex": "0x1b0d04202f47ec0000"
      },
      "nonce": 3,
      "data": "0x454e31525936334d52",
      "r": "0x259d120483e1b5151a89e876b943cc4f9123889037ae6bfa4fc20cfecf038664",
      "s": "0x5b469d3ed2f95db2779bf41d7bb690358bf52fc8a9ef0cf58b03689ac895d333",
      "v": 28,
      "creates": null,
      "raw": "0xf87703860110c8f7d8de82c350942910543af39aba0cd09dbb2d50200b3e800a63d2891b0d04202f47ec000089454e31525936334d521ca0259d120483e1b5151a89e876b943cc4f9123889037ae6bfa4fc20cfecf038664a05b469d3ed2f95db2779bf41d7bb690358bf52fc8a9ef0cf58b03689ac895d333",
      "networkId": 0,
      "chainId": 0
    }
  ]
}