{
  "hash": "0xe7d2d6ea13882af7d5a9cb93002fe10c4c1bc0b9e76f288f531a23edc4eb61b7",
  "parentHash": "0xd95fcc96a6c7a8fc1b7e02a34b08b52082961538e2de9f1d98c19209ba3a307b",
  "number": 64552,
  "timestamp": 1439222652,
  "nonce": "0x67945a58c3565693",
  "difficulty": 1883941763799,
  "gasLimit": {
    "_hex": "0x2fefd8"
  },
  "gasUsed": {
    "_hex": "0xf618"
  },
  "miner": "0x1B7047b4338ACf65bE94C1A3e8c5c9338ad7d67C",
  "extraData": "0x476574682f76312e302e312d38326566323666362f6c696e75782f676f312e34",
  "transactions": [
    {
      "hash": "0x5706f0f63e29a2911f176c249b42484380d35e343c16bc958450b53ec08f8e8c",
      "blockHash": "0xe7d2d6ea13882af7d5a9cb93002fe10c4c1bc0b9e76f288f531a23edc4eb61b7",
      "blockNumber": 64552,
      "transactionIndex": 0,
      "confirmations": null,
      "from": "0x02E17FD12EAE4c85F953e85630455adc68B5d0ee",
      "gasPrice": {
        "_hex": "0xba43b7400"
      },
      "gasLimit": {
        "_hex": "0x5208"
      },
      "to": "0x1fA845264fAFbfdBb8CA1934538be9D8D4DEf52D",
      "value": {
        "_hex": "0xd8e5610f40e000"
      },
      "nonce": 1,
      "data": "0x",
      "r": "0x41e2cfec049c8eca1eaf3d7cc020f9b597495fe370104419cde0ae6005c40ebd",
      "s": "0x4d45fe9e0f7acb71e6bd40fe852eba9356815fbf96100dec52d18cfc44d4ee11",
      "v": 27,
      "creates": null,
      "raw": "0xf86b01850ba43b7400825208941fa845264fafbfdbb8ca1934538be9d8d4def52d87d8e5610f40e000801ba041e2cfec049c8eca1eaf3d7cc020f9b597495fe370104419cde0ae6005c40ebda04d45fe9e0f7acb71e6bd40fe852eba9356815fbf96100dec52d18cfc44d4ee11",
      "networkId": 0,
      "chainId": 0
    },
    {
      "hash": "0xf97381835114b781adf5984537bb859f7c936b9f90e205077b1ef4e6e35d7377",
      "blockHash": "0xe7d2d6ea13882af7d5a9cb93002fe10c4c1bc0b9e76f288f531a23edc4eb61b7",
      "blockNumber": 64552,
      "transactionIndex": 1,
      "confirmations": null,
      "from": "0x0450C094A4e10649938D5A8a3601AfE87771f55A",
      "gasPrice": {
        "_hex": "0xba43b7400"
      },
      "gasLimit": {
        "_hex": "0x5208"
      },
      "to": "0x26e3C8817Fd23B1197E298E2C371E5eB5209bb1a",
      "value": {
        "_hex": "0xf0088de8d15000"
      },
      "nonce": 1,
      "data": "0x",
      "r": "0x944b2fa4508c5a0e63f38cb5731e274a45e238dda2325629d9d56a099c0e4f68",
      "s": "0x7c2efc11d7be780af56ba9085d77379caee92e1f64c1bfe6fc4b0b6189a96c57",
      "v": 27,
      "creates": null,
      "raw": "0xf86b01850ba43b74008252089426e3c8817fd23b1197e298e2c371e5eb5209bb1a87f0088de8d15000801ba0944b2fa4508c5a0e63f38cb5731e274a45e238dda2325629d9d56a099c0e4f68a07c2efc11d7be780af56ba9085d77379caee92e1f64c1bfe6fc4b0b6189a96c57",
      "networkId": 0,
      "chainId": 0
    },
    {
      "hash": "0x704f436373b4f24d5ced31011cd8137a06a2d654edcbec2b2d5c566c2608ba49",
      "blockHash": "0xe7d2d6ea13882af7d5a9cb93002fe10c4c1bc0b9e76f288f531a23edc4eb61b7",
      "blockNumber": 64552,
      "transactionIndex": 2,
      "confirmations": null,
      "from": "0x109e985B31c18610016A2b6A3e3913969C29230E",
      "gasPrice": {
        "_hex": "0xba43b7400"
      },
      "gasLimit": {
        "_hex": "0x5208"
      },
      "to": "0x348c84c8C06c62A53252cB1F7458E3d9d71AcD0E",
      "value": {
        "_hex": "0xd8e5610f40e000"
      },
      "nonce": 1,
      "data": "0x",
      "r": "0x037a9d67e8aa3e7aebbd42b79c60c7bf7b77cc843c8e297599569e47fecd935e",
      "s": "0x6f434b9a8202d479687bc681e3e0e1382d9f863b3a54762a78f538a5860fe7cb",
      "v": 28,
      "creates": null,
      "raw": "0xf86b01850ba43b740082520894348c84c8c06c62a53252cb1f7458e3d9d71acd0e87d8e5610f40e000801ca0037a9d67e8aa3e7aebbd42b79c60c7bf7b77cc843c8e297599569e47fecd935ea06f434b9a8202d479687bc681e3e0e1382d9f863b3a54762a78f538a5860fe7cb",
      "networkId": 0,
      "chainId": 0
    }
  ]
}