{
  "hash": "0x4bc7ef2873f3fb628babb10ed8db733920b0edecdea1df05d7c172989cb0f353",
  "parentHash": "0x1b82b0461b7b130d307f2e37fb16347a8c34ad5b843be1dd8b7dcc5d412577f5",
  "number": 115463,
  "timestamp": 1440057696,
  "nonce": "0xd1123128261912e0",
  "difficulty": 4560507855035,
  "gasLimit": {
    "_hex": "0x2fefd8"
  },
  "gasUsed": {
    "_hex": "0x1ec30"
  },
  "miner": "0xbb7B8287f3F0a933474a79eAe42CBCa977791171",
  "extraData": "0xd783010001844765746887676f312e342e32856c696e7578",
  "transactions": [
    {
      "hash": "0xebf791747923d4bbf6cff56b655a33679c775011f8e58fb754eb2ba8ee49e816",
      "blockHash": "0x4bc7ef2873f3fb628babb10ed8db733920b0edecdea1df05d7c172989cb0f353",
      "blockNumber": 115463,
      "transactionIndex": 0,
      "confirmations": null,
      "from": "0xa945e7C3f69Dc1e97E61F5875593B323F2D7EcDA",
      "gasPrice": {
        "_hex": "0x746a528800"
      },
      "gasLimit": {
        "_hex": "0x5208"
      },
      "to": "0xa945e7C3f69Dc1e97E61F5875593B323F2D7EcDA",
      "value": {
        "_hex": "0xde0b6b3a7640000"
      },
      "nonce": 0,
      "data": "0x",
      "r": "0xb03c1ab91b4b5a0557154768d52315b23b2a1810efc901fe007ff754e5c8fb45",
      "s": "0x17f256e1b0407683fd896a6352405c1d8935da37f7f429c1fc6d1c6a66398f84",
      "v": 27,
      "creates": null,
      "raw": "0xf86c8085746a52880082520894a945e7c3f69dc1e97e61f5875593b323f2d7ecda880de0b6b3a7640000801ba0b03c1ab91b4b5a0557154768d52315b23b2a1810efc901fe007ff754e5c8fb45a017f256e1b0407683fd896a6352405c1d8935da37f7f429c1fc6d1c6a66398f84",
      "networkId": 0,
      "chainId": 0
    },
    {
      "hash": "0x7fa39b01c271f2b26d852e4ba089da657b2c101b5c43c593b8795679a05a55aa",
      "blockHash": "0x4bc7ef2873f3fb628babb10ed8db733920b0edecdea1df05d7c172989cb0f353",
      "blockNumber": 115463,
      "transactionIndex": 1,
      "confirmations": null,
      "from": "0x6a9EfeB214aa03a8Cc69E201eF31210656D75882",
      "gasPrice": {
        "_hex": "0xd11438b54"
      },
      "gasLimit": {
        "_hex": "0x5208"
      },
      "to": "0x32Be343B94f860124dC4fEe278FDCBD38C102D88",
      "value": {
        "_hex": "0x6c3afabbf9ab0c00"
      },
      "nonce": 0,
      "data": "0x",
      "r": "0x7939c55fa5f70f048f2142032b744a00406a6e5bd86688b02fb8c3f44ee22ad5",
      "s": "0x0db5e0d7314979896461e88ee0eeaf09c67b9d6cef22ed113acca9e8a19a91ea",
      "v": 27,
      "creates": null,
      "raw": "0xf86c80850d11438b548252089432be343b94f860124dc4fee278fdcbd38c102d88886c3afabbf9ab0c00801ba07939c55fa5f70f048f2142032b744a00406a6e5bd86688b02fb8c3f44ee22ad5a00db5e0d7314979896461e88ee0eeaf09c67b9d6cef22ed113acca9e8a19a91ea",
      "networkId": 0,
      "chainId": 0
    },
    {
      "hash": "0x49726375348e9be45c0a03f1207ac1a5ca9f6f398205bbf330670b7b327fc2f0",
      "blockHash": "0x4bc7ef2873f3fb628babb10ed8db733920b0edecdea1df05d7c172989cb0f353",
      "blockNumber": 115463,
      "transactionIndex": 2,
      "confirmations": null,
      "from": "0x608f4b86321a68453f9adf6F06F7Fc3E621739ad",
      "gasPrice": {
        "_hex": "0xd11438b54"
      },
      "gasLimit": {
        "_hex": "0x5208"
      },
      "to": "0x32Be343B94f860124dC4fEe278FDCBD38C102D88",
      "value": {
        "_hex": "0x130ecb7923587b0000"
      },
      "nonce": 8,
      "data": "0x",
      "r": "0x8f91cfc1994eefcf0bfc4dcd3098157e1608621abc383239b976a7a0ea104361",
      "s": "0x306b8dd8bc212be34c7c4b9a4b30839f0ddea1480c042cfd585d6306d583fb8d",
      "v": 28,
      "creates": null,
      "raw": "0xf86d08850d11438b548252089432be343b94f860124dc4fee278fdcbd38c102d8889130ecb7923587b0000801ca08f91cfc1994eefcf0bfc4dcd3098157e1608621abc383239b976a7a0ea104361a0306b8dd8bc212be34c7c4b9a4b30839f0ddea1480c042cfd585d6306d583fb8d",
      "networkId": 0,
      "chainId": 0
    },
    {
      "hash": "0xa80d51e962312a8b2515a3b8ec465a237bb41c060ae1cca28bca72e128170e54",
      "blockHash": "0x4bc7ef2873f3fb628babb10ed8db733920b0edecdea1df05d7c172989cb0f353",
      "blockNumber": 115463,
      "transactionIndex": 3,
      "confirmations": null,
      "from": "0x806C4e20CC913d7b70f5b7e24C6Ba15B16c56a5C",
      "gasPrice": {
        "_hex": "0xd11438b54"
      },
      "gasLimit": {
        "_hex": "0x5208"
      },
      "to": "0x32Be343B94f860124dC4fEe278FDCBD38C102D88",
      "value": {
        "_hex": "0x5c0ce964b7d3a400"
      },
      "nonce": 7,
      "data": "0x",
      "r": "0xcdb0968d22586528d4e6695254871e6ca96b2bf75f8f85a5358c4d4465abc873",
      "s": "0x7b60f7f799756dc1371d8924b0896b5eb23bb47a953f600c42d9cafe772fa33b",
      "v": 27,
      "creates": null,
      "raw": "0xf86c07850d11438b548252089432be343b94f860124dc4fee278fdcbd38c102d88885c0ce964b7d3a400801ba0cdb0968d22586528d4e6695254871e6ca96b2bf75f8f85a5358c4d4465abc873a07b60f7f799756dc1371d8924b0896b5eb23bb47a953f600c42d9cafe772fa33b",
      "networkId": 0,
      "chainId": 0
    },
    {
      "hash": "0x42ceb76d88b52ad7fd879c303d30ff009e17f78b789ee6015050036065e4fbc9",
      "blockHash": "0x4bc7ef2873f3fb628babb10ed8db733920b0edecdea1df05d7c172989cb0f353",
      "blockNumber": 115463,
      "transactionIndex": 4,
      "confirmations": null,
      "from": "0x4D67f4F0Db45b3B5a3424B39ed8d972F710381D5",
      "gasPrice": {
        "_hex": "0xd11438b54"
      },
      "gasLimit": {
        "_hex": "0x5208"
      },
      "to": "0x32Be343B94f860124dC4fEe278FDCBD38C102D88",
      "value": {
        "_hex": "0x2c25cf06175010000"
      },
      "nonce": 46,
      "data": "0x",
      "r": "0x89193514300a31bc97dfab8d5e9ee4dcb3988358f9c165d1cd9743ef4c82a008",
      "s": "0x00d04b48afd75df90dcfc92defc985fdf3d4c704ba4e0fe8ae77409ca7851053",
      "v": 28,
      "creates": null,
      "raw": "0xf86c2e850d11438b548252089432be343b94f860124dc4fee278fdcbd38c102d888902c25cf06175010000801ca089193514300a31bc97dfab8d5e9ee4dcb3988358f9c165d1cd9743ef4c82a0089fd04b48afd75df90dcfc92defc985fdf3d4c704ba4e0fe8ae77409ca7851053",
      "networkId": 0,
      "chainId": 0
    },
    {
      "hash": "0xfd687d88c7ec689d981cd8bbd887aed9ad1e030dbd17bbab24d468c7a12585bc",
      "blockHash": "0x4bc7ef2873f3fb628babb10ed8db733920b0edecdea1df05d7c172989cb0f353",
      "blockNumber": 115463,
      "transactionIndex": 5,
      "confirmations": null,
      "from": "0x0DBaD90C967BFfeA4d6B589c0d2AF50A0eA16304",
      "gasPrice": {
        "_hex": "0xd11438b54"
      },
      "gasLimit": {
        "_hex": "0x5208"
      },
      "to": "0x32Be343B94f860124dC4fEe278FDCBD38C102D88",
      "value": {
        "_hex": "0x3127018cf57020000"
      },
      "nonce": 6,
      "data": "0x",
      "r": "0x013eb70c49bfdb7565a79e7a80e00205187cbdcac26208ef5e058ecef6b00d6c",
      "s": "0x5da2875198e20d75234661ede5a1d8f76db9315666cdac34aa3bce3a13397fe7",
      "v": 27,
      "creates": null,
      "raw": "0xf86d06850d11438b548252089432be343b94f860124dc4fee278fdcbd38c102d888903127018cf57020000801ba0013eb70c49bfdb7565a79e7a80e00205187cbdcac26208ef5e058ecef6b00d6ca05da2875198e20d75234661ede5a1d8f76db9315666cdac34aa3bce3a13397fe7",
      "networkId": 0,
      "chainId": 0
    }
  ]
}