{
  "hash": "0x8b01a0bc093593daeb7ed81ef76612e7fc23b71a464b4a5e4c38a28f23b29840",
  "parentHash": "0x4d456edc6d3171ff2d3e482f977e8d2f5f9ec9319e8ed86b9a329b52b03b0db8",
  "number": 108641,
  "timestamp": 1439943868,
  "nonce": "0xc0a490063954f1d3",
  "difficulty": 4325536994072,
  "gasLimit": {
    "_hex": "0x2fefd8"
  },
  "gasUsed": {
    "_hex": "0x5208"
  },
  "miner": "0xe6A7a1d47ff21B6321162AEA7C6CB457D5476Bca",
  "extraData": "0x476574682f76312e302e312d38326566323666362f6c696e75782f676f312e34",
  "transactions": [
    {
      "hash": "0x3d6b5fd251285291d3dc782095e352899ae33599a6eff725925862dfd41aff3b",
      "blockHash": "0x8b01a0bc093593daeb7ed81ef76612e7fc23b71a464b4a5e4c38a28f23b29840",
      "blockNumber": 108641,
      "transactionIndex": 0,
      "confirmations": null,
      "from": "0xC7711C2ed62c75340909Fdf6bf3BF0CA3e1Be850",
      "gasPrice": {
        "_hex": "0x9184e72a000"
      },
      "gasLimit": {
        "_hex": "0x9965e"
      },
      "to": "0xFBb1b73C4f0BDa4f67dcA266ce6Ef42f520fBB98",
      "value": {
        "_hex": "0x107ad8f556c6c0000"
      },
      "nonce": 1,
      "data": "0x",
      "r": "0xa1a83c1578d279a38076c085c0294a7fab0f5fcd7aa1f3e88776bde79c43a2fd",
      "s": "0x7317128caab3d2d18345d375403faddb4096d0ea4050f36ff96125cfda657fd4",
      "v": 27,
      "creates": null,
      "raw": "0xf86f018609184e72a0008309965e94fbb1b73c4f0bda4f67dca266ce6ef42f520fbb98890107ad8f556c6c0000801ba0a1a83c1578d279a38076c085c0294a7fab0f5fcd7aa1f3e88776bde79c43a2fda07317128caab3d2d18345d375403faddb4096d0ea4050f36ff96125cfda657fd4",
      "networkId": 0,
      "chainId": 0
    }
  ]
}