{
  "hash": "0xe23ad48d6bed552a779e7c83328275f58b85577d41323da2f05b537ceaf973d6",
  "parentHash": "0x09918aa03c8594a042550f60e8b2fad3fd4b6524b1418178056ae7ed58456a7e",
  "number": 65574,
  "timestamp": 1439239306,
  "nonce": "0xbe148c421894b8df",
  "difficulty": 1945406587945,
  "gasLimit": {
    "_hex": "0x2fefd8"
  },
  "gasUsed": {
    "_hex": "0x5208"
  },
  "miner": "0xF8FFFdCB6b8B88372B6aE42257f66D93E5189AC9",
  "extraData": "0x",
  "transactions": [
    {
      "hash": "0x222c7ec13af4a4147afdfcf49e7ea253dacfa3097d2c37cfd6dd357e5fdf966b",
      "blockHash": "0xe23ad48d6bed552a779e7c83328275f58b85577d41323da2f05b537ceaf973d6",
      "blockNumber": 65574,
      "transactionIndex": 0,
      "confirmations": null,
      "from": "0x120A270bbC009644e35F0bB6ab13f95b8199c4ad",
      "gasPrice": {
        "_hex": "0xd37dcf070"
      },
      "gasLimit": {
        "_hex": "0x15f90"
      },
      "to": "0xc83B0620a11598d85b0c9957aCD445A4C52D5d15",
      "value": {
        "_hex": "0x46791fc84e07d00000"
      },
      "nonce": 128,
      "data": "0x",
      "r": "0x2847e4ea0aab14a575425b64ee6d4b955d509aa95539b2a3af31e5ca408dbf33",
      "s": "0x70798c5b4accac08e9b0f2b5a9e1e1da01bd75f4913ba424c7e198ea9428b1dc",
      "v": 28,
      "creates": null,
      "raw": "0xf86f8180850d37dcf07083015f9094c83b0620a11598d85b0c9957acd445a4c52d5d158946791fc84e07d00000801ca02847e4ea0aab14a575425b64ee6d4b955d509aa95539b2a3af31e5ca408dbf33a070798c5b4accac08e9b0f2b5a9e1e1da01bd75f4913ba424c7e198ea9428b1dc",
      "networkId": 0,
      "chainId": 0
    }
  ]
}