{
  "hash": "0xdcb47d6ac0859119a423f38e1468580f1e5dd99127796c6affc3ea7c5bc0a94b",
  "parentHash": "0x12a06b531f7e58f88b940b6d27cea5da50d6cbdbbdacdec01e510a424614cc8b",
  "number": 110886,
  "timestamp": 1439981254,
  "nonce": "0x48afb1857c9b75de",
  "difficulty": 4403215528498,
  "gasLimit": {
    "_hex": "0x2fefd8"
  },
  "gasUsed": {
    "_hex": "0x5208"
  },
  "miner": "0xe6A7a1d47ff21B6321162AEA7C6CB457D5476Bca",
  "extraData": "0x476574682f76312e302e312d38326566323666362f6c696e75782f676f312e34",
  "transactions": [
    {
      "hash": "0x4029f44b8571c6658a8bb31c6410795f0384bbaf8ece4e05cdff82b7856786fb",
      "blockHash": "0xdcb47d6ac0859119a423f38e1468580f1e5dd99127796c6affc3ea7c5bc0a94b",
      "blockNumber": 110886,
      "transactionIndex": 0,
      "confirmations": null,
      "from": "0x32Be343B94f860124dC4fEe278FDCBD38C102D88",
      "gasPrice": {
        "_hex": "0xd98c095c8"
      },
      "gasLimit": {
        "_hex": "0x5208"
      },
      "to": "0x3ce70f7EBbb911d5FF14BB9244ac7C9be2c669B3",
      "value": {
        "_hex": "0x56ba3d73af34f0000"
      },
      "nonce": 1295,
      "data": "0x",
      "r": "0xa44a15c852001ec1e03a3ca3704f571ce496c7b64a824d1de42dc653a46b9efa",
      "s": "0x413f8c613040420971a26649ec24169f6a4e79f9a5ecb71655b4bbe8e33edd4d",
      "v": 27,
      "creates": null,
      "raw": "0xf86f82050f850d98c095c8825208943ce70f7ebbb911d5ff14bb9244ac7c9be2c669b389056ba3d73af34f0000801ba0a44a15c852001ec1e03a3ca3704f571ce496c7b64a824d1de42dc653a46b9efaa0413f8c613040420971a26649ec24169f6a4e79f9a5ecb71655b4bbe8e33edd4d",
      "networkId": 0,
      "chainId": 0
    }
  ]
}