{
  "hash": "0xda41a338b3d0db6171fbbf30127c4c406d9dec45fb8eddf32ae49cd1a756be0a",
  "parentHash": "0xa2bf3ceb763c1c828004bae073f5e7c9f06f74e3dd0afa26ef22db3a884c5714",
  "number": 52650,
  "timestamp": 1439025152,
  "nonce": "0xe37472faeeb6dddc",
  "difficulty": 1565588265153,
  "gasLimit": {
    "_hex": "0x16f707"
  },
  "gasUsed": {
    "_hex": "0x16e360"
  },
  "miner": "0xf927a40C8B7F6E07c5af7FA2155B4864a4112B13",
  "extraData": "0x476574682f76312e302e312f6c696e75782f676f312e342e32",
  "transactions": [
    {
      "hash": "0xf34fd3cdf38cf2402949ef39eea342320c588a0b48c7337a50ed2136581e8f2e",
      "blockHash": "0xda41a338b3d0db6171fbbf30127c4c406d9dec45fb8eddf32ae49cd1a756be0a",
      "blockNumber": 52650,
      "transactionIndex": 0,
      "confirmations": null,
      "from": "0x54dAeb3E8a6BBC797E4aD2b0339f134b186e4637",
      "gasPrice": {
        "_hex": "0xdf4ba21f9"
      },
      "gasLimit": {
        "_hex": "0x7a120"
      },
      "to": "0xBAA54d6E90c3F4d7Ebec11bD180134C7eD8eBb52",
      "value": {
        "_hex": "0x16345785d8a0000"
      },
      "nonce": 848,
      "data": "0x",
      "r": "0xd15b0e327b51f9d579b51d70eba3cec4bb99744ad062f26a9571f674a0fd7f95",
      "s": "0x3ad70c61e657b2d08cc652b7fefd7d7be9933df940b54d9424dbe3f0d5298bcf",
      "v": 27,
      "creates": null,
      "raw": "0xf86f820350850df4ba21f98307a12094baa54d6e90c3f4d7ebec11bd180134c7ed8ebb5288016345785d8a0000801ba0d15b0e327b51f9d579b51d70eba3cec4bb99744ad062f26a9571f674a0fd7f95a03ad70c61e657b2d08cc652b7fefd7d7be9933df940b54d9424dbe3f0d5298bcf",
      "networkId": 0,
      "chainId": 0
    },
    {
      "hash": "0xcf4ba99a7b7136469d6f01b7fceaa93fdc78d76e145db0a1b6b6fc6f58df96e4",
      "blockHash": "0xda41a338b3d0db6171fbbf30127c4c406d9dec45fb8eddf32ae49cd1a756be0a",
      "blockNumber": 52650,
      "transactionIndex": 1,
      "confirmations": null,
      "from": "0x54dAeb3E8a6BBC797E4aD2b0339f134b186e4637",
      "gasPrice": {
        "_hex": "0xdce5b224a"
      },
      "gasLimit": {
        "_hex": "0x7a120"
      },
      "to": "0xBAA54d6E90c3F4d7Ebec11bD180134C7eD8eBb52",
      "value": {
        "_hex": "0x16345785d8a0000"
      },
      "nonce": 849,
      "data": "0x",
      "r": "0x78d8f764ceb011c704411b1383af8bf3aaa759452d01e7319de3e422f7219b65",
      "s": "0x4faa60e974cc689b544095765bfeb6135c5454066a58644ecea63e168148fb2f",
      "v": 28,
      "creates": null,
      "raw": "0xf86f820351850dce5b224a8307a12094baa54d6e90c3f4d7ebec11bd180134c7ed8ebb5288016345785d8a0000801ca078d8f764ceb011c704411b1383af8bf3aaa759452d01e7319de3e422f7219b65a04faa60e974cc689b544095765bfeb6135c5454066a58644ecea63e168148fb2f",
      "networkId": 0,
      "chainId": 0
    },
    {
      "hash": "0xe8bccd375fe91087c6d4f2b3c32c74ae0abdcf8546e7a4bac52f7fcd93e8293f",
      "blockHash": "0xda41a338b3d0db6171fbbf30127c4c406d9dec45fb8eddf32ae49cd1a756be0a",
      "blockNumber": 52650,
      "transactionIndex": 2,
      "confirmations": null,
      "from": "0x54dAeb3E8a6BBC797E4aD2b0339f134b186e4637",
      "gasPrice": {
        "_hex": "0xd8bd64e50"
      },
      "gasLimit": {
        "_hex": "0x7a120"
      },
      "to": "0xBAA54d6E90c3F4d7Ebec11bD180134C7eD8eBb52",
      "value": {
        "_hex": "0x16345785d8a0000"
      },
      "nonce": 850,
      "data": "0x",
      "r": "0x8ed07bcbaee65286adbfe730a37307ebc9c40f5e753cce695ce3476c7555ce57",
      "s": "0x5867582e9d54f9a7ef0d59d1d7b958c1771f74c114cc6b00cbd2a46a3a2e9401",
      "v": 27,
      "creates": null,
      "raw": "0xf86f820352850d8bd64e508307a12094baa54d6e90c3f4d7ebec11bd180134c7ed8ebb5288016345785d8a0000801ba08ed07bcbaee65286adbfe730a37307ebc9c40f5e753cce695ce3476c7555ce57a05867582e9d54f9a7ef0d59d1d7b958c1771f74c114cc6b00cbd2a46a3a2e9401",
      "networkId": 0,
      "chainId": 0
    }
  ]
}