{
  "hash": "0xd0ba34a25b026d0ea6e872eb04afb0c2f0edc8ab959daa13c6f1aa98489ab1b5",
  "parentHash": "0x999fc534d66654d14b50e6f413feb85653424aa947844f4f4cf208166058a072",
  "number": 62895,
  "timestamp": 1439195789,
  "nonce": "0x5b7d7eef7e7406d2",
  "difficulty": 1788393438917,
  "gasLimit": {
    "_hex": "0x2fefd8"
  },
  "gasUsed": {
    "_hex": "0x5208"
  },
  "miner": "0xf8E0CA3Ed80bd541b94BEdCf259e8CF2141A9523",
  "extraData": "0x476574682f76312e302e312f77696e646f77732f676f312e342e32",
  "transactions": [
    {
      "hash": "0x1ef29673087708674ce738a96476c45b3f164464a0bf7e67d6dbaada2aad3cb0",
      "blockHash": "0xd0ba34a25b026d0ea6e872eb04afb0c2f0edc8ab959daa13c6f1aa98489ab1b5",
      "blockNumber": 62895,
      "transactionIndex": 0,
      "confirmations": null,
      "from": "0xB6AC12CefF0375Da80503AcCa54bf3061Fa917a8",
      "gasPrice": {
        "_hex": "0xd1c083064"
      },
      "gasLimit": {
        "_hex": "0x15f90"
      },
      "to": "0x9bC34Be7186456f0275cBacA7F07548CAe0Bbc9e",
      "value": {
        "_hex": "0x38d7ea4c68000"
      },
      "nonce": 7,
      "data": "0x",
      "r": "0xc9cc1d0d311e0f87aaf8de4c8deef197030530160d3a793b6b64fd45b9dd9d8e",
      "s": "0x2488aaaa2b83b646b32b2f19023849782398f71197b4762bd3bbb3df2806f148",
      "v": 27,
      "creates": null,
      "raw": "0xf86c07850d1c08306483015f90949bc34be7186456f0275cbaca7f07548cae0bbc9e87038d7ea4c68000801ba0c9cc1d0d311e0f87aaf8de4c8deef197030530160d3a793b6b64fd45b9dd9d8ea02488aaaa2b83b646b32b2f19023849782398f71197b4762bd3bbb3df2806f148",
      "networkId": 0,
      "chainId": 0
    }
  ]
}