{
  "hash": "0x82751eca4e63cabd81ae3ba05b029dd286d19627f0fcc12438b554e10ac99620",
  "parentHash": "0xfda1bf7c3fb8a81c4bec19a9aa39cedcb48398a2ba422e51611bc57ca4cb9b8b",
  "number": 93976,
  "timestamp": 1439700625,
  "nonce": "0x62aeac82df4b8a85",
  "difficulty": 3480048390394,
  "gasLimit": {
    "_hex": "0x2fefd8"
  },
  "gasUsed": {
    "_hex": "0xf61c"
  },
  "miner": "0xD0ee3F53eE0fCf3F9fbCcdd17BD1b6441DdC2074",
  "extraData": "0x476574682f76312e302e312d38326566323666362f6c696e75782f676f312e34",
  "transactions": [
    {
      "hash": "0x9f540e38feb3bee7872c6d7a3b7d42781e05234ded54ce641ca3f244b4600df4",
      "blockHash": "0x82751eca4e63cabd81ae3ba05b029dd286d19627f0fcc12438b554e10ac99620",
      "blockNumber": 93976,
      "transactionIndex": 0,
      "confirmations": null,
      "from": "0x32Be343B94f860124dC4fEe278FDCBD38C102D88",
      "gasPrice": {
        "_hex": "0xd75677109"
      },
      "gasLimit": {
        "_hex": "0x5208"
      },
      "to": "0x8c0A6b62918D317e3B431EfB67E3fB5eff333b1c",
      "value": {
        "_hex": "0x2b5c0282441c70000"
      },
      "nonce": 939,
      "data": "0x",
      "r": "0x0f2867759c826492637c1759d04ece4b0c7c3b82445dc238eabeb40125ee3b62",
      "s": "0x3a2a50025c1891ffe423d24464bcb6251e04dd2333e28e123cc9c3932724559e",
      "v": 28,
      "creates": null,
      "raw": "0xf86f8203ab850d75677109825208948c0a6b62918d317e3b431efb67e3fb5eff333b1c8902b5c0282441c70000801ca00f2867759c826492637c1759d04ece4b0c7c3b82445dc238eabeb40125ee3b62a03a2a50025c1891ffe423d24464bcb6251e04dd2333e28e123cc9c3932724559e",
      "networkId": 0,
      "chainId": 0
    },
    {
      "hash": "0x37215395e2117ec473c7f084511ae1ae45a9dda45342b400064409778ddddaf1",
      "blockHash": "0x82751eca4e63cabd81ae3ba05b029dd286d19627f0fcc12438b554e10ac99620",
      "blockNumber": 93976,
      "transactionIndex": 1,
      "confirmations": null,
      "from": "0x8375eA550366a24550ec93283600485F4Ba8CFE5",
      "gasPrice": {
        "_hex": "0xd59c1ea01"
      },
      "gasLimit": {
        "_hex": "0x7530"
      },
      "to": "0xb9836ec1f42Bd48331bceaedb74a6Bcdc22832bD",
      "value": {
        "_hex": "0x18de76816d8000"
      },
      "nonce": 17,
      "data": "0x00",
      "r": "0x8f08a0316a5458a9b900305e519a1f098a79f2c589dd7a68d125a762355065f2",
      "s": "0xf35724f6e6c78915347edbb30462b9a80a9e77875b7c293aebbe9ccb8017afb7",
      "v": 28,
      "creates": null,
      "raw": "0xf86b11850d59c1ea0182753094b9836ec1f42bd48331bceaedb74a6bcdc22832bd8718de76816d8000001ca08f08a0316a5458a9b900305e519a1f098a79f2c589dd7a68d125a762355065f2a0f35724f6e6c78915347edbb30462b9a80a9e77875b7c293aebbe9ccb8017afb7",
      "networkId": 0,
      "chainId": 0
    },
    {
      "hash": "0x77fd390666f14e63d951a65a1d40e89d83665bb7286b5c0168c661dbab9ff13c",
      "blockHash": "0x82751eca4e63cabd81ae3ba05b029dd286d19627f0fcc12438b554e10ac99620",
      "blockNumber": 93976,
      "transactionIndex": 2,
      "confirmations": null,
      "from": "0x007f7f58D3eb5b7510A301eCC749FC1fCDDBE14D",
      "gasPrice": {
        "_hex": "0xcfa82ac37"
      },
      "gasLimit": {
        "_hex": "0x15f90"
      },
      "to": "0xb1abce2918E21ddb93AA452731a12672A3d9F75a",
      "value": {
        "_hex": "0x4563918244f40000"
      },
      "nonce": 22,
      "data": "0x",
      "r": "0x5f686fa46505300b35a83e6cb4986013bf068f15e70c2d88508352ce35783ebf",
      "s": "0x04e4daca092dd3ac43b01a55bea507f25a6e8ee1b79410cb1cd7bce357d3d5e4",
      "v": 28,
      "creates": null,
      "raw": "0xf86d16850cfa82ac3783015f9094b1abce2918e21ddb93aa452731a12672a3d9f75a884563918244f40000801ca05f686fa46505300b35a83e6cb4986013bf068f15e70c2d88508352ce35783ebfa004e4daca092dd3ac43b01a55bea507f25a6e8ee1b79410cb1cd7bce357d3d5e4",
      "networkId": 0,
      "chainId": 0
    }
  ]
}