{
  "hash": "0x32e70aa89bc1cfaf072b34b88b52448eaad44339e10f4240a37350499a137e5d",
  "parentHash": "0x908effcd66e1ea920569b53cbec76c2ffd8d77f5d13fefe8162d6efcaebe575b",
  "number": 97426,
  "timestamp": 1439755980,
  "nonce": "0x143f4cada4be9af6",
  "difficulty": 3813059209743,
  "gasLimit": {
    "_hex": "0x2fefd8"
  },
  "gasUsed": {
    "_hex": "0x5208"
  },
  "miner": "0xe6A7a1d47ff21B6321162AEA7C6CB457D5476Bca",
  "extraData": "0x476574682f76312e302e312d38326566323666362f6c696e75782f676f312e34",
  "transactions": [
    {
      "hash": "0xba737e806ddb9474894111bd99af897939509f6f2610745b6feed36566b451d1",
      "blockHash": "0x32e70aa89bc1cfaf072b34b88b52448eaad44339e10f4240a37350499a137e5d",
      "blockNumber": 97426,
      "transactionIndex": 0,
      "confirmations": null,
      "from": "0xa70a9a7040d542C632D8e0bE7c5513A8a5Bbc752",
      "gasPrice": {
        "_hex": "0xd27373674"
      },
      "gasLimit": {
        "_hex": "0x5208"
      },
      "to": "0x32Be343B94f860124dC4fEe278FDCBD38C102D88",
      "value": {
        "_hex": "0x8ac2f6cc4a865000"
      },
      "nonce": 176,
      "data": "0x",
      "r": "0xb135a75b1261d104e3c302fc987da6a0eb4c054621581156fe18a895ddfacb50",
      "s": "0x2031cc4fff1f8d129ceb2bf39d8ee9a629c31c75ee33bb62a1f009df46ba53bd",
      "v": 27,
      "creates": null,
      "raw": "0xf86d81b0850d273736748252089432be343b94f860124dc4fee278fdcbd38c102d88888ac2f6cc4a865000801ba0b135a75b1261d104e3c302fc987da6a0eb4c054621581156fe18a895ddfacb50a02031cc4fff1f8d129ceb2bf39d8ee9a629c31c75ee33bb62a1f009df46ba53bd",
      "networkId": 0,
      "chainId": 0
    }
  ]
}