{
  "hash": "0x980313253a9181de6e01a396e506427f43cbf870fa6e6e4e0e56d3bc8f3a3807",
  "parentHash": "0x4feeb83a66d0fcc0d36e5bcb49df15b3364d95f88cd99bc53ade74304a245666",
  "number": 48100,
  "timestamp": 1438951310,
  "nonce": "0xfb796b4f32908701",
  "difficulty": 1465795045940,
  "gasLimit": {
    "_hex": "0x128d7"
  },
  "gasUsed": {
    "_hex": "0x5470"
  },
  "miner": "0x88D74a59454F6cF3B51ef6b9136AFb6b9D405A88",
  "extraData": "0x476574682f76312e302e302d66633739643332642f6c696e75782f676f312e34",
  "transactions": [
    {
      "hash": "0x4246aee0122f4ca60afce44d88cab1bb2afd638293621a8855da6fe73472cbc7",
      "blockHash": "0x980313253a9181de6e01a396e506427f43cbf870fa6e6e4e0e56d3bc8f3a3807",
      "blockNumber": 48100,
      "transactionIndex": 0,
      "confirmations": null,
      "from": "0x339314EDFad76e605EF2502a570aF26fC1ccd8A8",
      "gasPrice": {
        "_hex": "0x746a528800"
      },
      "gasLimit": {
        "_hex": "0x5d6c"
      },
      "to": "0x2910543Af39abA0Cd09dBb2D50200b3E800A63D2",
      "value": {
        "_hex": "0x2386f26fc10000"
      },
      "nonce": 1,
      "data": "0x454e30513259314e3000",
      "r": "0x6e403a615452e7a2ea12a909ed9c226b5f0bc0983c69e08ae57a878eadb60f08",
      "s": "0x05bacfc78988bdaed004123fad3e792d50c09b1a96a53483997d5227f857d2a0",
      "v": 27,
      "creates": null,
      "raw": "0xf8750185746a528800825d6c942910543af39aba0cd09dbb2d50200b3e800a63d2872386f26fc100008a454e30513259314e30001ba06e403a615452e7a2ea12a909ed9c226b5f0bc0983c69e08ae57a878eadb60f08a005bacfc78988bdaed004123fad3e792d50c09b1a96a53483997d5227f857d2a0",
      "networkId": 0,
      "chainId": 0
    }
  ]
}