{
  "hash": "0xbdc24d9a14a0aa7cc58f3e080d88f57fc4ab816685a1bb8d659b007e149159a0",
  "parentHash": "0xa56e52ae45d8127d532ba95e2f32ac24862694c75585a25bd0748866bde7a306",
  "number": 95136,
  "timestamp": 1439719461,
  "nonce": "0x47d3331ab6c20f27",
  "difficulty": 3520583233101,
  "gasLimit": {
    "_hex": "0x2fefd8"
  },
  "gasUsed": {
    "_hex": "0xf618"
  },
  "miner": "0xe6A7a1d47ff21B6321162AEA7C6CB457D5476Bca",
  "extraData": "0x476574682f76312e302e312d38326566323666362f6c696e75782f676f312e34",
  "transactions": [
    {
      "hash": "0x845338bf38df04d83b15b1481105c99dceb9102a89a7b0c35ce6bca6e1ed8820",
      "blockHash": "0xbdc24d9a14a0aa7cc58f3e080d88f57fc4ab816685a1bb8d659b007e149159a0",
      "blockNumber": 95136,
      "transactionIndex": 0,
      "confirmations": null,
      "from": "0xC57F84c3f2E765bb1d265bf756987b8ea9F76445",
      "gasPrice": {
        "_hex": "0xcd036be6f"
      },
      "gasLimit": {
        "_hex": "0x5208"
      },
      "to": "0x32Be343B94f860124dC4fEe278FDCBD38C102D88",
      "value": {
        "_hex": "0x2b5df7f1a86eba000"
      },
      "nonce": 0,
      "data": "0x",
      "r": "0x95e233510e085f52a562075f1c98b3f0c27eac30849252c9ecf94f580a184bd7",
      "s": "0x63e152f193c9ed7bf0da859879f6d315c57c8d8097299de08a8ecc691a2eeae8",
      "v": 28,
      "creates": null,
      "raw": "0xf86d80850cd036be6f8252089432be343b94f860124dc4fee278fdcbd38c102d888902b5df7f1a86eba000801ca095e233510e085f52a562075f1c98b3f0c27eac30849252c9ecf94f580a184bd7a063e152f193c9ed7bf0da859879f6d315c57c8d8097299de08a8ecc691a2eeae8",
      "networkId": 0,
      "chainId": 0
    },
    {
      "hash": "0x69605dd42720376c0a93d2e8c629c5b1a72af76558dd13564fd1fd2100340202",
      "blockHash": "0xbdc24d9a14a0aa7cc58f3e080d88f57fc4ab816685a1bb8d659b007e149159a0",
      "blockNumber": 95136,
      "transactionIndex": 1,
      "confirmations": null,
      "from": "0xBf520BE04Aa6a36a99897062Ca9c440CF4112780",
      "gasPrice": {
        "_hex": "0xcd036be6f"
      },
      "gasLimit": {
        "_hex": "0x5208"
      },
      "to": "0x32Be343B94f860124dC4fEe278FDCBD38C102D88",
      "value": {
        "_hex": "0x6ec4041c7c65c00"
      },
      "nonce": 0,
      "data": "0x",
      "r": "0x9b637216b9d4a40e217864d591f4391dfd4d8f8133641f2e39d3bb963cb71bf9",
      "s": "0x6f414734ef3da82f5a4e67283d48e0244e4a1f198b4afe58149fd862f6c57024",
      "v": 28,
      "creates": null,
      "raw": "0xf86c80850cd036be6f8252089432be343b94f860124dc4fee278fdcbd38c102d888806ec4041c7c65c00801ca09b637216b9d4a40e217864d591f4391dfd4d8f8133641f2e39d3bb963cb71bf9a06f414734ef3da82f5a4e67283d48e0244e4a1f198b4afe58149fd862f6c57024",
      "networkId": 0,
      "chainId": 0
    },
    {
      "hash": "0xf34e53515accb7010ad0d1b801982d2af4b3c0463f8e0a7dbf08d890f7d2fbcd",
      "blockHash": "0xbdc24d9a14a0aa7cc58f3e080d88f57fc4ab816685a1bb8d659b007e149159a0",
      "blockNumber": 95136,
      "transactionIndex": 2,
      "confirmations": null,
      "from": "0x32Be343B94f860124dC4fEe278FDCBD38C102D88",
      "gasPrice": {
        "_hex": "0xcd036be6f"
      },
      "gasLimit": {
        "_hex": "0x5208"
      },
      "to": "0x742259a297d480753626dA79958287165fdD3f64",
      "value": {
        "_hex": "0x4deee9c2eacfc8000"
      },
      "nonce": 975,
      "data": "0x",
      "r": "0x655ff6cbb6c122e8e9aa9882618d48398cee44c40bfa727066e09a411a426865",
      "s": "0x3e45ac0fb14ff6be671cfbe96a44d60e6cafdc06fb7c364258e01c8bbbd21481",
      "v": 27,
      "creates": null,
      "raw": "0xf86f8203cf850cd036be6f82520894742259a297d480753626da79958287165fdd3f648904deee9c2eacfc8000801ba0655ff6cbb6c122e8e9aa9882618d48398cee44c40bfa727066e09a411a426865a03e45ac0fb14ff6be671cfbe96a44d60e6cafdc06fb7c364258e01c8bbbd21481",
      "networkId": 0,
      "chainId": 0
    }
  ]
}