{
  "hash": "0x8626d44666a0ab482f8708d72aad41bce7d22a5e0523e641c10e493e504efd99",
  "parentHash": "0xdc61d2d449ee2e06a3fa9f2d65e25683f26b329c5c6b37f80f6f5cfe396e15dd",
  "number": 86955,
  "timestamp": 1439585130,
  "nonce": "0x0d42f40f416f84df",
  "difficulty": 2983502658355,
  "gasLimit": {
    "_hex": "0x2fefd8"
  },
  "gasUsed": {
    "_hex": "0x5208"
  },
  "miner": "0x9Fa9952255B2b06639A04D63804d4BdFFf6E2d7e",
  "extraData": "0x476574682f76312e302e312f77696e646f77732f676f312e342e32",
  "transactions": [
    {
      "hash": "0x48a2818ca958480d2d6d5486a12a09e3339dec16a5c2edb31bec0ae28cbacb1f",
      "blockHash": "0x8626d44666a0ab482f8708d72aad41bce7d22a5e0523e641c10e493e504efd99",
      "blockNumber": 86955,
      "transactionIndex": 0,
      "confirmations": null,
      "from": "0x32Be343B94f860124dC4fEe278FDCBD38C102D88",
      "gasPrice": {
        "_hex": "0xde9029b2d"
      },
      "gasLimit": {
        "_hex": "0x5208"
      },
      "to": "0x8A243A0A9fEA49b839547745ff2D11Af3F4b0522",
      "value": {
        "_hex": "0xdf6863adad5ec8000"
      },
      "nonce": 774,
      "data": "0x",
      "r": "0xabca1fc864f89300f7f0b3d65c3579b140e529d8cae83860183cae2f161b2a85",
      "s": "0x0c2f46fd0b10df4a36fa8163838bdc7fdcb333a9dc304328282b76f67c754209",
      "v": 28,
      "creates": null,
      "raw": "0xf86f820306850de9029b2d825208948a243a0a9fea49b839547745ff2d11af3f4b0522890df6863adad5ec8000801ca0abca1fc864f89300f7f0b3d65c3579b140e529d8cae83860183cae2f161b2a85a00c2f46fd0b10df4a36fa8163838bdc7fdcb333a9dc304328282b76f67c754209",
      "networkId": 0,
      "chainId": 0
    }
  ]
}