{
  "hash": "0xd13db333e074e4d7df0f9e37ed9d9317e210b821b4d894a2991deeeef4dd1699",
  "parentHash": "0xaf9e44ad9a4ca7197b2daa54866644ac46ddecb992d14a4f07bf019f6a577262",
  "number": 52641,
  "timestamp": 1439024963,
  "nonce": "0x8ef8f4b0f5808786",
  "difficulty": 1566354579788,
  "gasLimit": {
    "_hex": "0x16d49c"
  },
  "gasUsed": {
    "_hex": "0xf4240"
  },
  "miner": "0xf32866D5cE9a9b5673e076be48AbCd6ED48ADe78",
  "extraData": "0x476574682f76312e302e312d38326566323666362f6c696e75782f676f312e34",
  "transactions": [
    {
      "hash": "0xf695fbc56f25f4abe8e7a342a98fa09e6931f7199a487fed5c304aaf6a06250f",
      "blockHash": "0xd13db333e074e4d7df0f9e37ed9d9317e210b821b4d894a2991deeeef4dd1699",
      "blockNumber": 52641,
      "transactionIndex": 0,
      "confirmations": null,
      "from": "0x54dAeb3E8a6BBC797E4aD2b0339f134b186e4637",
      "gasPrice": {
        "_hex": "0xe1780dfbb"
      },
      "gasLimit": {
        "_hex": "0x7a120"
      },
      "to": "0xBAA54d6E90c3F4d7Ebec11bD180134C7eD8eBb52",
      "value": {
        "_hex": "0x16345785d8a0000"
      },
      "nonce": 839,
      "data": "0x",
      "r": "0xa79d508c1be9786f569d07b4e0ee39e5dda6f671a0d58b3c0bff8f4b2591e305",
      "s": "0x29645526ebde0b6349313a88081e900b030a3552a5171d49da59fd98bf3e27a7",
      "v": 27,
      "creates": null,
      "raw": "0xf86f820347850e1780dfbb8307a12094baa54d6e90c3f4d7ebec11bd180134c7ed8ebb5288016345785d8a0000801ba0a79d508c1be9786f569d07b4e0ee39e5dda6f671a0d58b3c0bff8f4b2591e305a029645526ebde0b6349313a88081e900b030a3552a5171d49da59fd98bf3e27a7",
      "networkId": 0,
      "chainId": 0
    },
    {
      "hash": "0x01ac2b7fd5593e6ae8c7262ed4deef0232239ccef84f31f2e33052c6bb37c271",
      "blockHash": "0xd13db333e074e4d7df0f9e37ed9d9317e210b821b4d894a2991deeeef4dd1699",
      "blockNumber": 52641,
      "transactionIndex": 1,
      "confirmations": null,
      "from": "0x54dAeb3E8a6BBC797E4aD2b0339f134b186e4637",
      "gasPrice": {
        "_hex": "0xd8bd64e50"
      },
      "gasLimit": {
        "_hex": "0x7a120"
      },
      "to": "0xBAA54d6E90c3F4d7Ebec11bD180134C7eD8eBb52",
      "value": {
        "_hex": "0x16345785d8a0000"
      },
      "nonce": 840,
      "data": "0x",
      "r": "0x924754bf2688148f26fca0ec3b4ab6edd9944a982e8f37d0cfcb3cadb99321fa",
      "s": "0x7ee07b969686c25102027c531263a0da07de43e6f23f2d07196a4f707cb7217e",
      "v": 28,
      "creates": null,
      "raw": "0xf86f820348850d8bd64e508307a12094baa54d6e90c3f4d7ebec11bd180134c7ed8ebb5288016345785d8a0000801ca0924754bf2688148f26fca0ec3b4ab6edd9944a982e8f37d0cfcb3cadb99321faa07ee07b969686c25102027c531263a0da07de43e6f23f2d07196a4f707cb7217e",
      "networkId": 0,
      "chainId": 0
    }
  ]
}