{
  "hash": "0x53e5caf3750af83c00322df393a00a12d85ae099d9a8fdaac16be06a6bd8c23e",
  "parentHash": "0x471f386dbeffe5c3def05ffec777297d5f7c2cfce6c65ba5f6b17964dd1e8c9c",
  "number": 82985,
  "timestamp": 1439528021,
  "nonce": "0x90bdca13bba7c735",
  "difficulty": 2412541166919,
  "gasLimit": {
    "_hex": "0x2fefd8"
  },
  "gasUsed": {
    "_hex": "0x5413"
  },
  "miner": "0xf927a40C8B7F6E07c5af7FA2155B4864a4112B13",
  "extraData": "0x",
  "transactions": [
    {
      "hash": "0x50a5f5ee26d4c8edab45523b6314a33972ae72415b8703a5ba2d067d1c3ed0eb",
      "blockHash": "0x53e5caf3750af83c00322df393a00a12d85ae099d9a8fdaac16be06a6bd8c23e",
      "blockNumber": 82985,
      "transactionIndex": 0,
      "confirmations": null,
      "from": "0x1c11Aa45C792e202e9ffDc2F12f99D0d209BEf70",
      "gasPrice": {
        "_hex": "0xcf16ab811"
      },
      "gasLimit": {
        "_hex": "0x249f0"
      },
      "to": "0x5EaA4180e1Ecc408f65Cae32711C794BD04C1267",
      "value": {
        "_hex": "0x2"
      },
      "nonce": 14,
      "data": "0x45466f3a",
      "r": "0x52cb47c2aa500a5524bf3e9ab7d68cc2795878042a30923b7725b091c92af632",
      "s": "0x647b7d080090030c31204e8c5cea531ca6c4ede7ee6bd4558bb63a133e0ee5d7",
      "v": 28,
      "creates": null,
      "raw": "0xf8690e850cf16ab811830249f0945eaa4180e1ecc408f65cae32711c794bd04c1267028445466f3a1ca052cb47c2aa500a5524bf3e9ab7d68cc2795878042a30923b7725b091c92af632a0647b7d080090030c31204e8c5cea531ca6c4ede7ee6bd4558bb63a133e0ee5d7",
      "networkId": 0,
      "chainId": 0
    }
  ]
}