{
  "hash": "0xc1a67e9315d15eadc55b74dc6f15911c696ba734ff7fa27b93e24a978eb3fa64",
  "parentHash": "0x38a7c2b3e99d86e685e63ce7895dfcd177867f755995bf209d802cddcb0cdfc3",
  "number": 65610,
  "timestamp": 1439240007,
  "nonce": "0xeefa78ca1bdd4172",
  "difficulty": 1937813849620,
  "gasLimit": {
    "_hex": "0x2fefd8"
  },
  "gasUsed": {
    "_hex": "0x5208"
  },
  "miner": "0x47ff6576639c2e94762eA5443978D7681C0E78DC",
  "extraData": "0x476574682f76312e302e312f6c696e75782f676f312e342e32",
  "transactions": [
    {
      "hash": "0xc6d83bc324b9b4ddcc00032653815072dcac83ec7e754cc793bbdac4219d1b46",
      "blockHash": "0xc1a67e9315d15eadc55b74dc6f15911c696ba734ff7fa27b93e24a978eb3fa64",
      "blockNumber": 65610,
      "transactionIndex": 0,
      "confirmations": null,
      "from": "0x285B048CC4cB946abCF3eF11aDe982C36946AF18",
      "gasPrice": {
        "_hex": "0xd0f885eaf"
      },
      "gasLimit": {
        "_hex": "0x5208"
      },
      "to": "0x32Be343B94f860124dC4fEe278FDCBD38C102D88",
      "value": {
        "_hex": "0x455f621fc5686000"
      },
      "nonce": 2,
      "data": "0x",
      "r": "0x8a18d42e9dfe906d4ca03708fa423ef1bdc8a02021b8538903a66a35f1c8de1b",
      "s": "0x2de45c6bd1bff44762d653ddb6e4dc00e7c778fd6948bd4a5b74826f658013bb",
      "v": 27,
      "creates": null,
      "raw": "0xf86c02850d0f885eaf8252089432be343b94f860124dc4fee278fdcbd38c102d8888455f621fc5686000801ba08a18d42e9dfe906d4ca03708fa423ef1bdc8a02021b8538903a66a35f1c8de1ba02de45c6bd1bff44762d653ddb6e4dc00e7c778fd6948bd4a5b74826f658013bb",
      "networkId": 0,
      "chainId": 0
    }
  ]
}