{
  "hash": "0xb7551a4743541769664a67c0da754cd0a9f090265604730c7c82f171be9d4fc4",
  "parentHash": "0xc13cd6d75b2055ae567990ba301b0928ac19dc7cb794c84d1d12c849042fad64",
  "number": 75725,
  "timestamp": 1439408149,
  "nonce": "0x7d930d0457b44777",
  "difficulty": 2228810302177,
  "gasLimit": {
    "_hex": "0x2fefd8"
  },
  "gasUsed": {
    "_hex": "0xe1a7"
  },
  "miner": "0x55bAf64fc9eAccFFd7Cc643BB61142E1C6ac093e",
  "extraData": "0x",
  "transactions": [
    {
      "hash": "0x7cf2189f917ebcfe953ba1e5edae24043553c9546b1596c35216db96a2700c3b",
      "blockHash": "0xb7551a4743541769664a67c0da754cd0a9f090265604730c7c82f171be9d4fc4",
      "blockNumber": 75725,
      "transactionIndex": 0,
      "confirmations": null,
      "from": "0x326Be8F71bFb0379f989aAB1CC1fE37f0a771f60",
      "gasPrice": {
        "_hex": "0x112dd96caf1"
      },
      "gasLimit": {
        "_hex": "0x493e0"
      },
      "to": "0xD79B4C6791784184e2755B2fC1659eaaB0f80456",
      "value": {
        "_hex": "0x8ac7230489e80000"
      },
      "nonce": 107,
      "data": "0x8d21618600000000000000000000000000000000000000000000000000000000000000e6fa4efeb5266440c8d3d2d68d52c88bc2bf85cb573092604a42f8fdd5dcc159b7",
      "r": "0xcc84dce24794cda231dac19e7593bc04d574f2d2fe5ecbec50a861b0a11e2e2d",
      "s": "0x13b7bc5fc9a53e620cd311d61cb53f2fdf2507ad511c9705813b4fe7ca38d41c",
      "v": 27,
      "creates": null,
      "raw": "0xf8b36b860112dd96caf1830493e094d79b4c6791784184e2755b2fc1659eaab0f80456888ac7230489e80000b8448d21618600000000000000000000000000000000000000000000000000000000000000e6fa4efeb5266440c8d3d2d68d52c88bc2bf85cb573092604a42f8fdd5dcc159b71ba0cc84dce24794cda231dac19e7593bc04d574f2d2fe5ecbec50a861b0a11e2e2da013b7bc5fc9a53e620cd311d61cb53f2fdf2507ad511c9705813b4fe7ca38d41c",
      "networkId": 0,
      "chainId": 0
    },
    {
      "hash": "0x6a9b031139f13084a079e2c01b6b9ad9e25e9e4874fe51838d4c5a8fc53bb3b2",
      "blockHash": "0xb7551a4743541769664a67c0da754cd0a9f090265604730c7c82f171be9d4fc4",
      "blockNumber": 75725,
      "transactionIndex": 1,
      "confirmations": null,
      "from": "0x770d98d31b4353FceEE8560c4CCf803e88C0c4e0",
      "gasPrice": {
        "_hex": "0xcea984a93"
      },
      "gasLimit": {
        "_hex": "0x15f90"
      },
      "to": "0xCc519A6f707571a4C58F0c4b574643283a0742B8",
      "value": {
        "_hex": "0xde0b6b3a7640000"
      },
      "nonce": 2,
      "data": "0x",
      "r": "0x93b12c13b90d268696cb70bed79c2d6642cc8c2794a271eb37643014894a4fae",
      "s": "0x4ea644b5c7d04a41af448ba1b88a7b403fec59c9171a4838bf98c1dd25d24bea",
      "v": 28,
      "creates": null,
      "raw": "0xf86d02850cea984a9383015f9094cc519a6f707571a4c58f0c4b574643283a0742b8880de0b6b3a7640000801ca093b12c13b90d268696cb70bed79c2d6642cc8c2794a271eb37643014894a4faea04ea644b5c7d04a41af448ba1b88a7b403fec59c9171a4838bf98c1dd25d24bea",
      "networkId": 0,
      "chainId": 0
    }
  ]
}