{
  "hash": "0x49c3a1194fbfcc1b1a622fc9c8dada489b729faa2b9f9e9eb8744be2e12fddf1",
  "parentHash": "0xb5ccc91ca6c71a6463b995435dfc9e78b46ad3f48ed0ce6b999e082abfbeb044",
  "number": 102703,
  "timestamp": 1439841849,
  "nonce": "0xd55251dfa19c8d22",
  "difficulty": 4054447656376,
  "gasLimit": {
    "_hex": "0x2fefd8"
  },
  "gasUsed": {
    "_hex": "0x5208"
  },
  "miner": "0x580992B51e3925e23280EfB93d3047C82f17E038",
  "extraData": "0x476574682f76312e302e312f6c696e75782f676f312e342e32",
  "transactions": [
    {
      "hash": "0x2d21e67385e346825b3e10385760ecb402316cc609b5c6928b7ee379b0fa12b5",
      "blockHash": "0x49c3a1194fbfcc1b1a622fc9c8dada489b729faa2b9f9e9eb8744be2e12fddf1",
      "blockNumber": 102703,
      "transactionIndex": 0,
      "confirmations": null,
      "from": "0x88a0A05437262a1b65f41A978Cb16CB1f0BFCfE0",
      "gasPrice": {
        "_hex": "0xd3d37f23a"
      },
      "gasLimit": {
        "_hex": "0x15f90"
      },
      "to": "0xb81b17f58AE6eBbC0c104C748cA0EB9A18516820",
      "value": {
        "_hex": "0x6c6b935b8bbd400000"
      },
      "nonce": 17,
      "data": "0x",
      "r": "0xc533bc7ccd778810948690d1468fd8c5f952543c8437c7577bd2a1d3d7a103f4",
      "s": "0x30d65b494f3bddac0f22124315283da2a009d8e7902fa98318d5c144d71e47be",
      "v": 27,
      "creates": null,
      "raw": "0xf86e11850d3d37f23a83015f9094b81b17f58ae6ebbc0c104c748ca0eb9a18516820896c6b935b8bbd400000801ba0c533bc7ccd778810948690d1468fd8c5f952543c8437c7577bd2a1d3d7a103f4a030d65b494f3bddac0f22124315283da2a009d8e7902fa98318d5c144d71e47be",
      "networkId": 0,
      "chainId": 0
    }
  ]
}