{
  "hash": "0x4a6b3af0897d1df8197d6a119a5f98b844a128aa7ba8944fa3cda40eb704f476",
  "parentHash": "0xb521da038e9c926915cce9cc0900f66e263de911bf35c2b85f692ddc8d2d6d20",
  "number": 115718,
  "timestamp": 1440062153,
  "nonce": "0xceeb37b1da716ca5",
  "difficulty": 4580454011071,
  "gasLimit": {
    "_hex": "0x2fefd8"
  },
  "gasUsed": {
    "_hex": "0xa9b4"
  },
  "miner": "0xC4E15a24b5f80FCeBC7104b922B1baF37FdD708B",
  "extraData": "0x",
  "transactions": [
    {
      "hash": "0x15ac2259a39a31820f127d6fcc3c6e81f1729d43c10ca00c5f301571e9ef2708",
      "blockHash": "0x4a6b3af0897d1df8197d6a119a5f98b844a128aa7ba8944fa3cda40eb704f476",
      "blockNumber": 115718,
      "transactionIndex": 0,
      "confirmations": null,
      "from": "0x34d34F0a638F6991e4E2536F41295DF6E934A646",
      "gasPrice": {
        "_hex": "0xe1c960e9d"
      },
      "gasLimit": {
        "_hex": "0x5208"
      },
      "to": "0x32Be343B94f860124dC4fEe278FDCBD38C102D88",
      "value": {
        "_hex": "0x33ff0c8be6572400"
      },
      "nonce": 27,
      "data": "0x",
      "r": "0x0e0035ffe93c7c418d09ef8400ca52181fe26ce5c63a60829dabaaa6bbd95e51",
      "s": "0x46f95c3d8878c57bb87cee14fec358a97cffc7ed241f82aa17b5dac9d22bb11e",
      "v": 27,
      "creates": null,
      "raw": "0xf86c1b850e1c960e9d8252089432be343b94f860124dc4fee278fdcbd38c102d888833ff0c8be6572400801ba00e0035ffe93c7c418d09ef8400ca52181fe26ce5c63a60829dabaaa6bbd95e51a046f95c3d8878c57bb87cee14fec358a97cffc7ed241f82aa17b5dac9d22bb11e",
      "networkId": 0,
      "chainId": 0
    },
    {
      "hash": "0x06f1f5816bd25788ab737c42b36b79ecc985a49ca65ff769702c3ceec1ba328e",
      "blockHash": "0x4a6b3af0897d1df8197d6a119a5f98b844a128aa7ba8944fa3cda40eb704f476",
      "blockNumber": 115718,
      "transactionIndex": 1,
      "confirmations": null,
      "from": "0x02E816AFC1b5C0f39852131959D946eb3b07b5ad",
      "gasPrice": {
        "_hex": "0xba43b7400"
      },
      "gasLimit": {
        "_hex": "0x15f90"
      },
      "to": "0xFE8AD7Dd2F564a877cc23fEEa6c0A9Cc2E783715",
      "value": {
        "_hex": "0x56bc75e2d63100000"
      },
      "nonce": 5,
      "data": "0x",
      "r": "0xd94a45f219d7d5d5111ea71e2573f53d53b9c926f36c4bedd58ebfee11ef7c13",
      "s": "0x10c10ae7dc1e4700b50bfa77210806b7cf30643cb4659b9252a92d728dbf956f",
      "v": 27,
      "creates": null,
      "raw": "0xf86e05850ba43b740083015f9094fe8ad7dd2f564a877cc23feea6c0a9cc2e78371589056bc75e2d63100000801ba0d94a45f219d7d5d5111ea71e2573f53d53b9c926f36c4bedd58ebfee11ef7c13a010c10ae7dc1e4700b50bfa77210806b7cf30643cb4659b9252a92d728dbf956f",
      "networkId": 0,
      "chainId": 0
    }
  ]
}