{
  "hash": "0x88e1ec57b1d7ad84ac6f48afea27d511beba57c2b3c136cf238f306d12fae8e5",
  "parentHash": "0x837d9b9062cdb9bc16c6a3b56a786630221e85f98fd5fb9b16dcec93c50164ea",
  "number": 67047,
  "timestamp": 1439264990,
  "nonce": "0x157afeff8a08e6f7",
  "difficulty": 1932757511844,
  "gasLimit": {
    "_hex": "0x2fefd8"
  },
  "gasUsed": {
    "_hex": "0x5208"
  },
  "miner": "0xf927a40C8B7F6E07c5af7FA2155B4864a4112B13",
  "extraData": "0x",
  "transactions": [
    {
      "hash": "0x7f63f6dec64a778a5f5b835d982170b44f86f73435661355da5bb1f1587cf366",
      "blockHash": "0x88e1ec57b1d7ad84ac6f48afea27d511beba57c2b3c136cf238f306d12fae8e5",
      "blockNumber": 67047,
      "transactionIndex": 0,
      "confirmations": null,
      "from": "0x2910543Af39abA0Cd09dBb2D50200b3E800A63D2",
      "gasPrice": {
        "_hex": "0xcdce7a6a0"
      },
      "gasLimit": {
        "_hex": "0x5208"
      },
      "to": "0x0b9b56Fbc12d4bf5c15a51E67144e161F6f0e7D2",
      "value": {
        "_hex": "0x1157c828fdbef8000"
      },
      "nonce": 207,
      "data": "0x",
      "r": "0x5e00fe569ac67bf159fe45f25a9d6b100c96a01bf303ff7c66a471019c3ae294",
      "s": "0x05ee6b1d8a9436053ad39b701d4671650f71c9402533506f32c5c3534f87fe41",
      "v": 28,
      "creates": null,
      "raw": "0xf86e81cf850cdce7a6a0825208940b9b56fbc12d4bf5c15a51e67144e161f6f0e7d28901157c828fdbef8000801ca05e00fe569ac67bf159fe45f25a9d6b100c96a01bf303ff7c66a471019c3ae294a005ee6b1d8a9436053ad39b701d4671650f71c9402533506f32c5c3534f87fe41",
      "networkId": 0,
      "chainId": 0
    }
  ]
}