{
  "hash": "0xdcd4c7b2095998f0ae4ba1c6f11c87ce55e9b38a6c9fdec42c6473def85350b9",
  "parentHash": "0x63533ddbdf6218a64249c9339df62e4ad8f8705f5b4bd2d846bd8bf11f1f3be5",
  "number": 119421,
  "timestamp": 1440142631,
  "nonce": "0x524c5f859c86f25a",
  "difficulty": 4388011740931,
  "gasLimit": {
    "_hex": "0x2fefd8"
  },
  "gasUsed": {
    "_hex": "0x14820"
  },
  "miner": "0x8df03bD37602d97980327B58D940258dC57007B3",
  "extraData": "0x",
  "transactions": [
    {
      "hash": "0x94f216598b3d70df26612a845561a027e26049c45cbe9b6bd123a4736b15a72f",
      "blockHash": "0xdcd4c7b2095998f0ae4ba1c6f11c87ce55e9b38a6c9fdec42c6473def85350b9",
      "blockNumber": 119421,
      "transactionIndex": 0,
      "confirmations": null,
      "from": "0x689DACb52e18F08d8DFCDd62415c7776aEd8fB89",
      "gasPrice": {
        "_hex": "0xc59b189cb"
      },
      "gasLimit": {
        "_hex": "0x5208"
      },
      "to": "0x32Be343B94f860124dC4fEe278FDCBD38C102D88",
      "value": {
        "_hex": "0xb837394f6d7e000"
      },
      "nonce": 1,
      "data": "0x",
      "r": "0x155992bcfd6b26a1d24653a9408264ddfa5c383cc4b0982e176e418b49064686",
      "s": "0x64323f27b9a73c4b7200a8c51d5813ac58ee685db3923ef64a9d97fd9bc1882c",
      "v": 27,
      "creates": null,
      "raw": "0xf86c01850c59b189cb8252089432be343b94f860124dc4fee278fdcbd38c102d88880b837394f6d7e000801ba0155992bcfd6b26a1d24653a9408264ddfa5c383cc4b0982e176e418b49064686a064323f27b9a73c4b7200a8c51d5813ac58ee685db3923ef64a9d97fd9bc1882c",
      "networkId": 0,
      "chainId": 0
    },
    {
      "hash": "0xd6551354adc0c68a38235bdd338dc97e8806b848f88d157f1366c77a2358b396",
      "blockHash": "0xdcd4c7b2095998f0ae4ba1c6f11c87ce55e9b38a6c9fdec42c6473def85350b9",
      "blockNumber": 119421,
      "transactionIndex": 1,
      "confirmations": null,
      "from": "0x6934e4839d59dEa0583b03643eCb8c10d6B150fc",
      "gasPrice": {
        "_hex": "0xc59b189cb"
      },
      "gasLimit": {
        "_hex": "0x5208"
      },
      "to": "0x32Be343B94f860124dC4fEe278FDCBD38C102D88",
      "value": {
        "_hex": "0x221a02572595a000"
      },
      "nonce": 4,
      "data": "0x",
      "r": "0x844c25678a62014c344831f12f764af65d8e93c32f46c550be92600f9dbd272b",
      "s": "0x2ac13f641d2e584250187900028866471f7af2001b02da594977d13360da1031",
      "v": 28,
      "creates": null,
      "raw": "0xf86c04850c59b189cb8252089432be343b94f860124dc4fee278fdcbd38c102d8888221a02572595a000801ca0844c25678a62014c344831f12f764af65d8e93c32f46c550be92600f9dbd272ba02ac13f641d2e584250187900028866471f7af2001b02da594977d13360da1031",
      "networkId": 0,
      "chainId": 0
    },
    {
      "hash": "0x78b24ad6c5ca1063b6aaf2ce6f9d8f7d8aa10fad1ca4a8f292c63757c3c1999b",
      "blockHash": "0xdcd4c7b2095998f0ae4ba1c6f11c87ce55e9b38a6c9fdec42c6473def85350b9",
      "blockNumber": 119421,
      "transactionIndex": 2,
      "confirmations": null,
      "from": "0x237b555850BE6BFf53a0698146371a2F5890A030",
      "gasPrice": {
        "_hex": "0xc59b189cb"
      },
      "gasLimit": {
        "_hex": "0x5208"
      },
      "to": "0x32Be343B94f860124dC4fEe278FDCBD38C102D88",
      "value": {
        "_hex": "0x1f5e63013f9df000"
      },
      "nonce": 7,
      "data": "0x",
      "r": "0xdfc4a14cc4907596ddaf175a3258ff40c0f11ddcc10241432a3cc55a0a64831e",
      "s": "0x227b348b8a9a749962bffe8306632aa9cb0b15d3f6b90c5bda183c5ccc8d565f",
      "v": 27,
      "creates": null,
      "raw": "0xf86c07850c59b189cb8252089432be343b94f860124dc4fee278fdcbd38c102d88881f5e63013f9df000801ba0dfc4a14cc4907596ddaf175a3258ff40c0f11ddcc10241432a3cc55a0a64831ea0227b348b8a9a749962bffe8306632aa9cb0b15d3f6b90c5bda183c5ccc8d565f",
      "networkId": 0,
      "chainId": 0
    },
    {
      "hash": "0xeeb41502647e5f3605191abd18bf1065667b6318d0f34a78f26bc95a60d05dec",
      "blockHash": "0xdcd4c7b2095998f0ae4ba1c6f11c87ce55e9b38a6c9fdec42c6473def85350b9",
      "blockNumber": 119421,
      "transactionIndex": 3,
      "confirmations": null,
      "from": "0x52bc44d5378309EE2abF1539BF71dE1b7d7bE3b5",
      "gasPrice": {
        "_hex": "0xba43b7400"
      },
      "gasLimit": {
        "_hex": "0x61a8"
      },
      "to": "0x08346c0900aefbB6730d0D188c647607eB329f9F",
      "value": {
        "_hex": "0x6bad684b9e7c1300"
      },
      "nonce": 656,
      "data": "0x",
      "r": "0x8ab12f443fad2902fa68170793fa887af75a9e700b09c4b86060b2397eee01ed",
      "s": "0x7da8d218aceb15770b8d5fafd13531deba46d54c6e5e137380671b282e2c6777",
      "v": 27,
      "creates": null,
      "raw": "0xf86e820290850ba43b74008261a89408346c0900aefbb6730d0d188c647607eb329f9f886bad684b9e7c1300801ba08ab12f443fad2902fa68170793fa887af75a9e700b09c4b86060b2397eee01eda07da8d218aceb15770b8d5fafd13531deba46d54c6e5e137380671b282e2c6777",
      "networkId": 0,
      "chainId": 0
    }
  ]
}