{
  "hash": "0x10f13c9d2d52afcce6d5aa268a79880bdff277e6a70146cb83f8ac8292641ff3",
  "parentHash": "0xf7b76e11429b1ff6107ce1fe97d382205f639d4350c61ba9d8e8fe1e627ebbc7",
  "number": 57048,
  "timestamp": 1439096609,
  "nonce": "0x6aad7cde78172dd3",
  "difficulty": 1715207803299,
  "gasLimit": {
    "_hex": "0x2fefd8"
  },
  "gasUsed": {
    "_hex": "0x5208"
  },
  "miner": "0x88D74a59454F6cF3B51ef6b9136AFb6b9D405A88",
  "extraData": "0x476574682f76312e302e312d37666266393930632f6c696e75782f676f312e34",
  "transactions": [
    {
      "hash": "0x1c842746020e52ba733674a98ef785dd10da1c4032478b82733c72673acbb33c",
      "blockHash": "0x10f13c9d2d52afcce6d5aa268a79880bdff277e6a70146cb83f8ac8292641ff3",
      "blockNumber": 57048,
      "transactionIndex": 0,
      "confirmations": null,
      "from": "0x1308A2e95c0160B90803ddCA9B9a5bb55E416d79",
      "gasPrice": {
        "_hex": "0xe8d4a51000"
      },
      "gasLimit": {
        "_hex": "0x15f90"
      },
      "to": "0x7266c8FD66eD582bEA23bd8BC48E58D7f17321F3",
      "value": {
        "_hex": "0x6f05b59d3b20000"
      },
      "nonce": 77,
      "data": "0x",
      "r": "0x5aff23bb87dbe3a7ef4642f47da74fd79b02d3a64b6462d9c41c2b047a85750c",
      "s": "0x5a3282f1cd51e1b812ac237d009b96aaa19efe6a5e9a152a51bb00e6953bd7bc",
      "v": 27,
      "creates": null,
      "raw": "0xf86d4d85e8d4a5100083015f90947266c8fd66ed582bea23bd8bc48e58d7f17321f38806f05b59d3b20000801ba05aff23bb87dbe3a7ef4642f47da74fd79b02d3a64b6462d9c41c2b047a85750ca05a3282f1cd51e1b812ac237d009b96aaa19efe6a5e9a152a51bb00e6953bd7bc",
      "networkId": 0,
      "chainId": 0
    }
  ]
}