{
  "hash": "0xae807efd840d9ae2f0c73eeb5f3f6f20277ab010e9b52a64195af5f33ef0d6be",
  "parentHash": "0x55f098cb36fdf0f32965b17bba362d3e4ef81940b3c63700b2a272ef2491da93",
  "number": 90417,
  "timestamp": 1439639730,
  "nonce": "0x0ec4dc7cbd6ad41a",
  "difficulty": 3330215003837,
  "gasLimit": {
    "_hex": "0x2fefd8"
  },
  "gasUsed": {
    "_hex": "0x5208"
  },
  "miner": "0xe6A7a1d47ff21B6321162AEA7C6CB457D5476Bca",
  "extraData": "0x476574682f76312e302e312d38326566323666362f6c696e75782f676f312e34",
  "transactions": [
    {
      "hash": "0xeb318ee2f2880dcef020d69085cbb0aa01bcb5848f936c64a95bbbd58ef9a050",
      "blockHash": "0xae807efd840d9ae2f0c73eeb5f3f6f20277ab010e9b52a64195af5f33ef0d6be",
      "blockNumber": 90417,
      "transactionIndex": 0,
      "confirmations": null,
      "from": "0x32Be343B94f860124dC4fEe278FDCBD38C102D88",
      "gasPrice": {
        "_hex": "0xe0010627d"
      },
      "gasLimit": {
        "_hex": "0x5208"
      },
      "to": "0x2AE00B552EBf0156b47A57f3B5aFBCeF5378c1b2",
      "value": {
        "_hex": "0x18876f83a7091c00"
      },
      "nonce": 852,
      "data": "0x",
      "r": "0xa8c211d6ae35c36f4816eb93c4fa6c62874d13727d3e87dd942032540f305f43",
      "s": "0x09b733f87d4fbbd5c392d5a6763b75a6ce192af5830f4ee6c41d08b10a13bab8",
      "v": 27,
      "creates": null,
      "raw": "0xf86e820354850e0010627d825208942ae00b552ebf0156b47a57f3b5afbcef5378c1b28818876f83a7091c00801ba0a8c211d6ae35c36f4816eb93c4fa6c62874d13727d3e87dd942032540f305f43a009b733f87d4fbbd5c392d5a6763b75a6ce192af5830f4ee6c41d08b10a13bab8",
      "networkId": 0,
      "chainId": 0
    }
  ]
}