{
  "hash": "0x6017b11db8aaa71908c82b52dc4167ee430c0c14f152e973c2d0b632a3431f32",
  "parentHash": "0x205ddd7a944e27352c978a4b930243cc0d53f347400ad139ccbee766e998bb6b",
  "number": 95646,
  "timestamp": 1439727274,
  "nonce": "0x72ec4699ad92acff",
  "difficulty": 3607373462411,
  "gasLimit": {
    "_hex": "0x2fefd8"
  },
  "gasUsed": {
    "_hex": "0x806e"
  },
  "miner": "0xE84Cb28acE3cEb9bd20690967C67eeD15EaCb502",
  "extraData": "0x476574682f76312e302e312d38326566323666362f6c696e75782f676f312e34",
  "transactions": [
    {
      "hash": "0x0ea96aaba0139114d967769ee1354a65193cf95776d20a13ab5286607f16ba89",
      "blockHash": "0x6017b11db8aaa71908c82b52dc4167ee430c0c14f152e973c2d0b632a3431f32",
      "blockNumber": 95646,
      "transactionIndex": 0,
      "confirmations": null,
      "from": "0xFBb1b73C4f0BDa4f67dcA266ce6Ef42f520fBB98",
      "gasPrice": {
        "_hex": "0xd58844487"
      },
      "gasLimit": {
        "_hex": "0x15f90"
      },
      "to": "0xCAc7000C7dBaa2E33Af15325AF5D435E011C7BdD",
      "value": {
        "_hex": "0x0"
      },
      "nonce": 67,
      "data": "0x3feb1bd84249545452455830300000000000000000000000000000000000000000000000000000000000000000000000b62a0bf317fceb39ed916f0f9e60e623ad3091270000000000000000000000000000000000000000000000021900d477f261e400",
      "r": "0xaa8651d74226c5b7410040ff049c2027fc0125ecd01418e2194b40bdd84341f4",
      "s": "0x3afd6e2f8f82101c5956b5d71876afb762edc952b952083c143c67feb879188b",
      "v": 27,
      "creates": null,
      "raw": "0xf8ca43850d5884448783015f9094cac7000c7dbaa2e33af15325af5d435e011c7bdd80b8643feb1bd84249545452455830300000000000000000000000000000000000000000000000000000000000000000000000b62a0bf317fceb39ed916f0f9e60e623ad3091270000000000000000000000000000000000000000000000021900d477f261e4001ba0aa8651d74226c5b7410040ff049c2027fc0125ecd01418e2194b40bdd84341f4a03afd6e2f8f82101c5956b5d71876afb762edc952b952083c143c67feb879188b",
      "networkId": 0,
      "chainId": 0
    }
  ]
}