{
  "hash": "0x0592ebaebf73ed5092c42063cbea10fc996e739d21cabb60cb0ca6c206d41ea1",
  "parentHash": "0x2ccdc2232dab72e754c14b8c93f97dee630fbf7f4fda033c68a495030d2d6adb",
  "number": 76392,
  "timestamp": 1439419739,
  "nonce": "0x4660d0e58735d686",
  "difficulty": 2227545156482,
  "gasLimit": {
    "_hex": "0x2fefd8"
  },
  "gasUsed": {
    "_hex": "0x1b497"
  },
  "miner": "0xF2d2AfF1320476cb8C6b607199D23175cc595693",
  "extraData": "0x476574682f76312e302e312f77696e646f77732f676f312e342e32",
  "transactions": [
    {
      "hash": "0x5d88cb280bf191bd326f90a3be4118f0eb3094a2e51e24000b4a0624d20f8c1f",
      "blockHash": "0x0592ebaebf73ed5092c42063cbea10fc996e739d21cabb60cb0ca6c206d41ea1",
      "blockNumber": 76392,
      "transactionIndex": 0,
      "confirmations": null,
      "from": "0x8Be84A3adfBc51c59023B2413766E229108c35DE",
      "gasPrice": {
        "_hex": "0xd1a314e85"
      },
      "gasLimit": {
        "_hex": "0x493e0"
      },
      "to": "0xD79B4C6791784184e2755B2fC1659eaaB0f80456",
      "value": {
        "_hex": "0xde0b6b3a7640000"
      },
      "nonce": 0,
      "data": "0x8d21618600000000000000000000000000000000000000000000000000000000000000e6d0b9b1d5bbf1b489390f0abd37cd3da911a9eb2fb915223298a6677786a973b5",
      "r": "0xd4fe9e3eddcd3a700742970a33f8db66d0d3e9ac8dc23cf5503c51dc0b5d763b",
      "s": "0x47e29a227b9f86cb379c6167ebdf498e983af45cded97e117d15ca5f6f523eef",
      "v": 27,
      "creates": null,
      "raw": "0xf8b280850d1a314e85830493e094d79b4c6791784184e2755b2fc1659eaab0f80456880de0b6b3a7640000b8448d21618600000000000000000000000000000000000000000000000000000000000000e6d0b9b1d5bbf1b489390f0abd37cd3da911a9eb2fb915223298a6677786a973b51ba0d4fe9e3eddcd3a700742970a33f8db66d0d3e9ac8dc23cf5503c51dc0b5d763ba047e29a227b9f86cb379c6167ebdf498e983af45cded97e117d15ca5f6f523eef",
      "networkId": 0,
      "chainId": 0
    }
  ]
}