{
  "hash": "0x579e573186c8052d60265fd0c8ac06854cb6c51b3c0908cdb94a91dcca069c9e",
  "parentHash": "0xe9dec5d300353d3a29ff8ba022a76fadf49eef5047c6e07fcbf473a2fbed31a8",
  "number": 112171,
  "timestamp": 1440003124,
  "nonce": "0x029d7b7cc7ddf6d4",
  "difficulty": 4378958005591,
  "gasLimit": {
    "_hex": "0x2fefd8"
  },
  "gasUsed": {
    "_hex": "0x546c"
  },
  "miner": "0xEF247E639d49461D25F57e9362CadE3120910Ce0",
  "extraData": "0x476574682f76312e302e312f6c696e75782f676f312e342e32",
  "transactions": [
    {
      "hash": "0xaadbde61c0569e03a6b359d26e1f830f7164e78e3b950d4b2c558e0c42fac58c",
      "blockHash": "0x579e573186c8052d60265fd0c8ac06854cb6c51b3c0908cdb94a91dcca069c9e",
      "blockNumber": 112171,
      "transactionIndex": 0,
      "confirmations": null,
      "from": "0xBD09126C891C4A83068059fe0e15796c4661a9f4",
      "gasPrice": {
        "_hex": "0x110c8f7d8de"
      },
      "gasLimit": {
        "_hex": "0xc350"
      },
      "to": "0x2910543Af39abA0Cd09dBb2D50200b3E800A63D2",
      "value": {
        "_hex": "0x2b5cb425004b350000"
      },
      "nonce": 0,
      "data": "0x454e5033544d4a4b38",
      "r": "0x20cb86220e462ee772b568f1bcbe2ee91c17f7e2b1dd8c781970181ed0534e87",
      "s": "0x1d4e987e6e661b9aca2fb4c49008392f196570fa2e332ef9329efa6ae4104ef1",
      "v": 28,
      "creates": null,
      "raw": "0xf87780860110c8f7d8de82c350942910543af39aba0cd09dbb2d50200b3e800a63d2892b5cb425004b35000089454e5033544d4a4b381ca020cb86220e462ee772b568f1bcbe2ee91c17f7e2b1dd8c781970181ed0534e87a01d4e987e6e661b9aca2fb4c49008392f196570fa2e332ef9329efa6ae4104ef1",
      "networkId": 0,
      "chainId": 0
    }
  ]
}