{
  "hash": "0xf33f534b4416b7d4940974d8791f954a5532b6600353812e7e22e776137f602f",
  "parentHash": "0x8806508ee725afc3f9495f78b47b898ae8de2562447feacdb280c961b9daf337",
  "number": 94173,
  "timestamp": 1439703776,
  "nonce": "0x73a8750985533f55",
  "difficulty": 3478267877256,
  "gasLimit": {
    "_hex": "0x2fefd8"
  },
  "gasUsed": {
    "_hex": "0x5208"
  },
  "miner": "0xa70a9a7040d542C632D8e0bE7c5513A8a5Bbc752",
  "extraData": "0x",
  "transactions": [
    {
      "hash": "0xdbf1ee52d715ec4a64b7542276e86279ca570b4ea733fe3820f28f4fbed8f45f",
      "blockHash": "0xf33f534b4416b7d4940974d8791f954a5532b6600353812e7e22e776137f602f",
      "blockNumber": 94173,
      "transactionIndex": 0,
      "confirmations": null,
      "from": "0xFdC4D4765a942f5Bf96931a9e8Cc7ab8b757Ff4c",
      "gasPrice": {
        "_hex": "0xd62d1fa45"
      },
      "gasLimit": {
        "_hex": "0x15f90"
      },
      "to": "0x24C0B9E42a508F3cB1A66c03dEf2Baf4c4555a89",
      "value": {
        "_hex": "0xb1a2bc2ec50000"
      },
      "nonce": 0,
      "data": "0x",
      "r": "0x5ebd4351ad7c539162554eaa46f2676b34e4234063659e0987d7837016c8ad42",
      "s": "0x20bc144ca8242966b36a61185e7aeda46643aa48d877bffd569ce36dbf5d5762",
      "v": 27,
      "creates": null,
      "raw": "0xf86c80850d62d1fa4583015f909424c0b9e42a508f3cb1a66c03def2baf4c4555a8987b1a2bc2ec50000801ba05ebd4351ad7c539162554eaa46f2676b34e4234063659e0987d7837016c8ad42a020bc144ca8242966b36a61185e7aeda46643aa48d877bffd569ce36dbf5d5762",
      "networkId": 0,
      "chainId": 0
    }
  ]
}