{
  "hash": "0x2766c0c1ae75a53df6984e809440b9876c463125cd170573393e0343770418bd",
  "parentHash": "0x956d5a0cb9acbe6e96cc78a7d0cab1f3e3f7506b634c0967429c543aaa22976c",
  "number": 75227,
  "timestamp": 1439399838,
  "nonce": "0x55f5fc67ea063b73",
  "difficulty": 2190104339234,
  "gasLimit": {
    "_hex": "0x2fefd8"
  },
  "gasUsed": {
    "_hex": "0x5208"
  },
  "miner": "0xbb7B8287f3F0a933474a79eAe42CBCa977791171",
  "extraData": "0x476574682f4c5649562f76312e302e312f6c696e75782f676f312e342e32",
  "transactions": [
    {
      "hash": "0xf359ceb875b909397720405cdd13878bc92d7675389ce341fd2dbdb84319df95",
      "blockHash": "0x2766c0c1ae75a53df6984e809440b9876c463125cd170573393e0343770418bd",
      "blockNumber": 75227,
      "transactionIndex": 0,
      "confirmations": null,
      "from": "0x326Be8F71bFb0379f989aAB1CC1fE37f0a771f60",
      "gasPrice": {
        "_hex": "0x11438e4db9b"
      },
      "gasLimit": {
        "_hex": "0x15f90"
      },
      "to": "0x9724Ac4dc56e03379eBA5d157D1513EcC32cBD8f",
      "value": {
        "_hex": "0x4563918244f40000"
      },
      "nonce": 86,
      "data": "0x",
      "r": "0x00e3919ecd5b429164ee1b54ba6144cde322693485dcb15763f7cede10d5da2c",
      "s": "0x14b36fc1a4e91da85eb162be03d78657bbd88b98346359723c6dba4d6c7bc232",
      "v": 27,
      "creates": null,
      "raw": "0xf86d5686011438e4db9b83015f90949724ac4dc56e03379eba5d157d1513ecc32cbd8f884563918244f40000801b9fe3919ecd5b429164ee1b54ba6144cde322693485dcb15763f7cede10d5da2ca014b36fc1a4e91da85eb162be03d78657bbd88b98346359723c6dba4d6c7bc232",
      "networkId": 0,
      "chainId": 0
    }
  ]
}