{
  "hash": "0xcb36afc851d048e389d732cf8f3398151853573da3b0cfed78a1f435d3b6e88d",
  "parentHash": "0x59bcfc2fc35777c70e677d43179ab14f0ae131957ca104bad2ae70b1dd93197d",
  "number": 88647,
  "timestamp": 1439611219,
  "nonce": "0x149ef956fdf6967f",
  "difficulty": 3237908359722,
  "gasLimit": {
    "_hex": "0x2fefd8"
  },
  "gasUsed": {
    "_hex": "0xa410"
  },
  "miner": "0x790b8a3cE86E707ED0eD32bF89B3269692a23CC1",
  "extraData": "0xd783010001844765746887676f312e342e32856c696e7578",
  "transactions": [
    {
      "hash": "0xd6f421e1f803be1dfaf772e8771c352ed6c78c19e212636d47b973e9cf976034",
      "blockHash": "0xcb36afc851d048e389d732cf8f3398151853573da3b0cfed78a1f435d3b6e88d",
      "blockNumber": 88647,
      "transactionIndex": 0,
      "confirmations": null,
      "from": "0xd2922F94cf946a2DE0c0F7e3d3560D2DCb1C2931",
      "gasPrice": {
        "_hex": "0xba43b7400"
      },
      "gasLimit": {
        "_hex": "0x5208"
      },
      "to": "0xC47Aaa860008be6f65B58c6C6E02a84e666EfE31",
      "value": {
        "_hex": "0x8a9fe119ed236000"
      },
      "nonce": 1,
      "data": "0x",
      "r": "0xd86703a7de8db38aa1058fd88a7bcc1106115e4e6f87add198e1655b722bbebb",
      "s": "0x5edad19ffcb86b190d5ccb45621f24f6856e7662055e1aacf2fe27042ed47e42",
      "v": 27,
      "creates": null,
      "raw": "0xf86c01850ba43b740082520894c47aaa860008be6f65b58c6c6e02a84e666efe31888a9fe119ed236000801ba0d86703a7de8db38aa1058fd88a7bcc1106115e4e6f87add198e1655b722bbebba05edad19ffcb86b190d5ccb45621f24f6856e7662055e1aacf2fe27042ed47e42",
      "networkId": 0,
      "chainId": 0
    },
    {
      "hash": "0x635423df1a2258e6da1a3abae29299b596c7a6c500e3d80d26b3fc4eeaad5fcf",
      "blockHash": "0xcb36afc851d048e389d732cf8f3398151853573da3b0cfed78a1f435d3b6e88d",
      "blockNumber": 88647,
      "transactionIndex": 1,
      "confirmations": null,
      "from": "0xd8E6E362e8Ee6F52e81DC9C5Bf66B470C7686f55",
      "gasPrice": {
        "_hex": "0xba43b7400"
      },
      "gasLimit": {
        "_hex": "0x5208"
      },
      "to": "0xC47Aaa860008be6f65B58c6C6E02a84e666EfE31",
      "value": {
        "_hex": "0x2b5ce30a54ca3b8f0"
      },
      "nonce": 0,
      "data": "0x",
      "r": "0xbd2f60d8bbc4be82a906f6cf42a218c0bb8a349b64f2918103ce227d2dfe9ee1",
      "s": "0x7165e0f673ddd4a6c4c83f1b5c7b1b4f9bffc9ab590d9bb3d3e1692f7dc0139b",
      "v": 27,
      "creates": null,
      "raw": "0xf86d80850ba43b740082520894c47aaa860008be6f65b58c6c6e02a84e666efe318902b5ce30a54ca3b8f0801ba0bd2f60d8bbc4be82a906f6cf42a218c0bb8a349b64f2918103ce227d2dfe9ee1a07165e0f673ddd4a6c4c83f1b5c7b1b4f9bffc9ab590d9bb3d3e1692f7dc0139b",
      "networkId": 0,
      "chainId": 0
    }
  ]
}