{
  "hash": "0x6aabf153420a65c579a249003f1f95d66de62390bc0cf8e5c670896b26437078",
  "parentHash": "0x4d6a12b834f89582a7a004a63fef92f8630e7108f24df7cf129341fe40a76272",
  "number": 93958,
  "timestamp": 1439700333,
  "nonce": "0x6d5da4f3ac6b2dc9",
  "difficulty": 3480055857776,
  "gasLimit": {
    "_hex": "0x2fefd8"
  },
  "gasUsed": {
    "_hex": "0x5208"
  },
  "miner": "0xe6A7a1d47ff21B6321162AEA7C6CB457D5476Bca",
  "extraData": "0x476574682f76312e302e312d38326566323666362f6c696e75782f676f312e34",
  "transactions": [
    {
      "hash": "0x9e0a02583a40aa972890f21bd970a56cd742ceb2162f4f285326df024fe45ecc",
      "blockHash": "0x6aabf153420a65c579a249003f1f95d66de62390bc0cf8e5c670896b26437078",
      "blockNumber": 93958,
      "transactionIndex": 0,
      "confirmations": null,
      "from": "0x007f7f58D3eb5b7510A301eCC749FC1fCDDBE14D",
      "gasPrice": {
        "_hex": "0xcfa82ac37"
      },
      "gasLimit": {
        "_hex": "0x15f90"
      },
      "to": "0xb1abce2918E21ddb93AA452731a12672A3d9F75a",
      "value": {
        "_hex": "0x4563918244f40000"
      },
      "nonce": 20,
      "data": "0x",
      "r": "0x6b0ecb38646762270d08dd45e4a4a5bf824c2324e239fd4f206d5013a6a2a1c3",
      "s": "0x7532ff3ef640b5f6be26edf482b4d595f299d9bf2b58931451caad086563f8c4",
      "v": 28,
      "creates": null,
      "raw": "0xf86d14850cfa82ac3783015f9094b1abce2918e21ddb93aa452731a12672a3d9f75a884563918244f40000801ca06b0ecb38646762270d08dd45e4a4a5bf824c2324e239fd4f206d5013a6a2a1c3a07532ff3ef640b5f6be26edf482b4d595f299d9bf2b58931451caad086563f8c4",
      "networkId": 0,
      "chainId": 0
    }
  ]
}