{
  "hash": "0x554cb204671ff41bc9ee803569c14d69cc54a48b96e6e24c2c2f8e323624996b",
  "parentHash": "0x7e8dc97795d733221cd36b89fe88c84825d09f75699f13bbb80a652f1a05fca5",
  "number": 52916,
  "timestamp": 1439029536,
  "nonce": "0xbd1d2e39c56f8cc6",
  "difficulty": 1571665967058,
  "gasLimit": {
    "_hex": "0x1bd432"
  },
  "gasUsed": {
    "_hex": "0x5208"
  },
  "miner": "0xf8E0CA3Ed80bd541b94BEdCf259e8CF2141A9523",
  "extraData": "0x476574682f76312e302e312f77696e646f77732f676f312e342e32",
  "transactions": [
    {
      "hash": "0xcdc596e45dc378cdacd78113698393a3e9a50873728d44daf03f31fe0a9c9e5d",
      "blockHash": "0x554cb204671ff41bc9ee803569c14d69cc54a48b96e6e24c2c2f8e323624996b",
      "blockNumber": 52916,
      "transactionIndex": 0,
      "confirmations": null,
      "from": "0x1a79c7f4039C67A39d7513884cDC0E2C34222490",
      "gasPrice": {
        "_hex": "0xdb2db3923"
      },
      "gasLimit": {
        "_hex": "0x15f90"
      },
      "to": "0x99425213944D7885b88Ec9D20D974B7Ac89D62E2",
      "value": {
        "_hex": "0x146021c146a6250"
      },
      "nonce": 7,
      "data": "0x",
      "r": "0xd08b2fface674b7d4112d51e14bddbae4b0b6e0cfd622f7ab2d4fbcd516ba012",
      "s": "0x4bef85031f8450f4be083987a854127a80ec75bd3d208fb264cd9a3d7289920a",
      "v": 28,
      "creates": null,
      "raw": "0xf86d07850db2db392383015f909499425213944d7885b88ec9d20d974b7ac89d62e2880146021c146a6250801ca0d08b2fface674b7d4112d51e14bddbae4b0b6e0cfd622f7ab2d4fbcd516ba012a04bef85031f8450f4be083987a854127a80ec75bd3d208fb264cd9a3d7289920a",
      "networkId": 0,
      "chainId": 0
    }
  ]
}