{
  "hash": "0xc0468c4d485ed4395795e536b5f94c49b7b798586e660c10e739f15a3b672726",
  "parentHash": "0x28150b47e3370b4c29bde999de3a7adb336a3eacf7e9a6afd1c516ce84c7707d",
  "number": 65235,
  "timestamp": 1439233527,
  "nonce": "0x880bf21d9382c12b",
  "difficulty": 1942637461412,
  "gasLimit": {
    "_hex": "0x2fe434"
  },
  "gasUsed": {
    "_hex": "0x17cd8"
  },
  "miner": "0x47ff6576639c2e94762eA5443978D7681C0E78DC",
  "extraData": "0x476574682f76312e302e312f6c696e75782f676f312e342e32",
  "transactions": [
    {
      "hash": "0xc33313c8c5e4ff30ca9ad80c5631e8cfc9e4840049e08832adb2f5dba922c69a",
      "blockHash": "0xc0468c4d485ed4395795e536b5f94c49b7b798586e660c10e739f15a3b672726",
      "blockNumber": 65235,
      "transactionIndex": 0,
      "confirmations": null,
      "from": "0xe8D9524147C46d4caddeC43380168b43c0893bE0",
      "gasPrice": {
        "_hex": "0xba43b7400"
      },
      "gasLimit": {
        "_hex": "0x15f90"
      },
      "to": "0x793AE8C1b1a160BFc07BFB0d04F85eab1A71F4f2",
      "value": {
        "_hex": "0x0"
      },
      "nonce": 0,
      "data": "0x3ba15036",
      "r": "0x8b3f40569a79fd68dfabeca8927c776fc036adada5b700e86026340a70b88da9",
      "s": "0x472bf261f54b18ff3034d802bf263c8c51020b129f15c7cd05b8dd96a09682d7",
      "v": 27,
      "creates": null,
      "raw": "0xf86980850ba43b740083015f9094793ae8c1b1a160bfc07bfb0d04f85eab1a71f4f280843ba150361ba08b3f40569a79fd68dfabeca8927c776fc036adada5b700e86026340a70b88da9a0472bf261f54b18ff3034d802bf263c8c51020b129f15c7cd05b8dd96a09682d7",
      "networkId": 0,
      "chainId": 0
    },
    {
      "hash": "0xb56422104e9de18d8b24d0609ce3440b8ad7287b77a2889b408ac66e7598c6d6",
      "blockHash": "0xc0468c4d485ed4395795e536b5f94c49b7b798586e660c10e739f15a3b672726",
      "blockNumber": 65235,
      "transactionIndex": 1,
      "confirmations": null,
      "from": "0xC816F11b29cDec6a2d9B8085354F92A2c88a12e5",
      "gasPrice": {
        "_hex": "0xba43b7400"
      },
      "gasLimit": {
        "_hex": "0x15f90"
      },
      "to": "0x793AE8C1b1a160BFc07BFB0d04F85eab1A71F4f2",
      "value": {
        "_hex": "0x0"
      },
      "nonce": 0,
      "data": "0x3ba15036",
      "r": "0x04767ecf0859168bb9bbbd6d0fa780fef8aab6ff05abf13c5cbb69741e0a31c5",
      "s": "0x0d85f7207eafc15989f0d69dd223d4c96e4bb4f312fdca282dcedf94a4ff684f",
      "v": 27,
      "creates": null,
      "raw": "0xf86980850ba43b740083015f9094793ae8c1b1a160bfc07bfb0d04f85eab1a71f4f280843ba150361ba004767ecf0859168bb9bbbd6d0fa780fef8aab6ff05abf13c5cbb69741e0a31c5a00d85f7207eafc15989f0d69dd223d4c96e4bb4f312fdca282dcedf94a4ff684f",
      "networkId": 0,
      "chainId": 0
    }
  ]
}