{
  "hash": "0x88355f5fa2c3698c9f8d00ea076dee94cc48ffa98cec6b06c7d4d0a428c15c55",
  "parentHash": "0x9d1ea20aee5c781340e5f1960efe971bc73d63b4261ccbd0a05e05f20a7ca9bc",
  "number": 64794,
  "timestamp": 1439226374,
  "nonce": "0xbf5327cbf9eb8641",
  "difficulty": 1893108579428,
  "gasLimit": {
    "_hex": "0x2fefd8"
  },
  "gasUsed": {
    "_hex": "0xf618"
  },
  "miner": "0xf927a40C8B7F6E07c5af7FA2155B4864a4112B13",
  "extraData": "0x",
  "transactions": [
    {
      "hash": "0x25cb3eda72abe0ee10a9c0f746cd063780bffc3637ada2f0f5661add11c829a2",
      "blockHash": "0x88355f5fa2c3698c9f8d00ea076dee94cc48ffa98cec6b06c7d4d0a428c15c55",
      "blockNumber": 64794,
      "transactionIndex": 0,
      "confirmations": null,
      "from": "0xd561cbbc05515DE73AB8cF9eAe1357341E7dFDF4",
      "gasPrice": {
        "_hex": "0xd18b18005"
      },
      "gasLimit": {
        "_hex": "0x15f90"
      },
      "to": "0x26d4C7e14DB6372C86d3b6C79D512daF05B85239",
      "value": {
        "_hex": "0x3635c9adc5dea00000"
      },
      "nonce": 0,
      "data": "0x",
      "r": "0xffd4a9eac6f1756c84d9c8a5ab328547c09144b7e09d3a9a54afdeb54829e08c",
      "s": "0x0bafc5fba9eaaea96973ef8441520c5339b6aaa6b624bb191c983742626c5cf1",
      "v": 27,
      "creates": null,
      "raw": "0xf86e80850d18b1800583015f909426d4c7e14db6372c86d3b6c79d512daf05b85239893635c9adc5dea00000801ba0ffd4a9eac6f1756c84d9c8a5ab328547c09144b7e09d3a9a54afdeb54829e08ca00bafc5fba9eaaea96973ef8441520c5339b6aaa6b624bb191c983742626c5cf1",
      "networkId": 0,
      "chainId": 0
    },
    {
      "hash": "0x58c142090cb24209e1243e3b6e6a79da7def911f0714545668c5a3c7f32ec7ae",
      "blockHash": "0x88355f5fa2c3698c9f8d00ea076dee94cc48ffa98cec6b06c7d4d0a428c15c55",
      "blockNumber": 64794,
      "transactionIndex": 1,
      "confirmations": null,
      "from": "0x55d5779241b4bF93870DB124701AB0Aa78cEd5Ee",
      "gasPrice": {
        "_hex": "0xba43b7400"
      },
      "gasLimit": {
        "_hex": "0x5208"
      },
      "to": "0x9CbAD4D744f1D9ECC23764e32c1319988D8312b2",
      "value": {
        "_hex": "0x163b86e28a38000"
      },
      "nonce": 1,
      "data": "0x",
      "r": "0x95a2f34620e690fa84474bc41ba5601c242c6a2f4cd30ae27428b88bec2f4db3",
      "s": "0x2e209e764102f8b92dc4433a72b558e256ea75a7b3cd4202edb0fad112a3b6c1",
      "v": 27,
      "creates": null,
      "raw": "0xf86c01850ba43b7400825208949cbad4d744f1d9ecc23764e32c1319988d8312b2880163b86e28a38000801ba095a2f34620e690fa84474bc41ba5601c242c6a2f4cd30ae27428b88bec2f4db3a02e209e764102f8b92dc4433a72b558e256ea75a7b3cd4202edb0fad112a3b6c1",
      "networkId": 0,
      "chainId": 0
    },
    {
      "hash": "0x7f5fac814195c9cbd71f3949d6eaa8e84e7747e83b39ef014b1564ec532f0507",
      "blockHash": "0x88355f5fa2c3698c9f8d00ea076dee94cc48ffa98cec6b06c7d4d0a428c15c55",
      "blockNumber": 64794,
      "transactionIndex": 2,
      "confirmations": null,
      "from": "0x60BEBb5856800d824cc3D639c2F92F82e095247f",
      "gasPrice": {
        "_hex": "0xba43b7400"
      },
      "gasLimit": {
        "_hex": "0x5208"
      },
      "to": "0x3E6b8290b41b5219E50379d42Db7Dd60655FeBdc",
      "value": {
        "_hex": "0x13572147582a000"
      },
      "nonce": 1,
      "data": "0x",
      "r": "0xd8a66822359f16ec1eff4f9e63cc077d63d8949281b1c4a9dc21573911b4cff5",
      "s": "0x29859e5ed542c6805d3ddaed130acf2e9c86c569041ad5c62298d02913a401ac",
      "v": 28,
      "creates": null,
      "raw": "0xf86c01850ba43b7400825208943e6b8290b41b5219e50379d42db7dd60655febdc88013572147582a000801ca0d8a66822359f16ec1eff4f9e63cc077d63d8949281b1c4a9dc21573911b4cff5a029859e5ed542c6805d3ddaed130acf2e9c86c569041ad5c62298d02913a401ac",
      "networkId": 0,
      "chainId": 0
    }
  ]
}