{
  "hash": "0x4a4942e6f580acf5c6f6f8a9cff2e1e9c1dc7674dc53700ae882a84f52944389",
  "parentHash": "0xa2aff4ce12f9f12c718a12cdee1071ed161a8ae7428153bd0226bd610ebb02d4",
  "number": 111533,
  "timestamp": 1439991826,
  "nonce": "0x16515b7c0aca07eb",
  "difficulty": 4443912988380,
  "gasLimit": {
    "_hex": "0x2fefd8"
  },
  "gasUsed": {
    "_hex": "0x5208"
  },
  "miner": "0xe6A7a1d47ff21B6321162AEA7C6CB457D5476Bca",
  "extraData": "0x476574682f76312e302e312d38326566323666362f6c696e75782f676f312e34",
  "transactions": [
    {
      "hash": "0x57a421609f0a91c36349d0d8d5ad3c52f659c5c1c2c995a019204470bfc8e3a0",
      "blockHash": "0x4a4942e6f580acf5c6f6f8a9cff2e1e9c1dc7674dc53700ae882a84f52944389",
      "blockNumber": 111533,
      "transactionIndex": 0,
      "confirmations": null,
      "from": "0x617Ff2CC803e31C9082233b825D025BE3f7b1056",
      "gasPrice": {
        "_hex": "0xba43b7400"
      },
      "gasLimit": {
        "_hex": "0x15f90"
      },
      "to": "0x72907bC54bB4C0797c238CDD6DA2A2522A8A63f4",
      "value": {
        "_hex": "0x1dd0c885f9a0d80000"
      },
      "nonce": 5,
      "data": "0x",
      "r": "0xa18d4d542c274903faf05d837a2250c691023e9484055b8c2d75d54e70b25c49",
      "s": "0x3dfcfe9b4305dc6cf6f1c2aa1ffeeb33bc05a344562beb739daf9e5bb64a29e2",
      "v": 27,
      "creates": null,
      "raw": "0xf86e05850ba43b740083015f909472907bc54bb4c0797c238cdd6da2a2522a8a63f4891dd0c885f9a0d80000801ba0a18d4d542c274903faf05d837a2250c691023e9484055b8c2d75d54e70b25c49a03dfcfe9b4305dc6cf6f1c2aa1ffeeb33bc05a344562beb739daf9e5bb64a29e2",
      "networkId": 0,
      "chainId": 0
    }
  ]
}