{
  "hash": "0xda5e217e13e2830c8c77a0c4e8df78c4e46404c6463ae4a8a8018d303632a239",
  "parentHash": "0x96a6162812bec98b3cda642482c7b2348fea00e74886a2a8a68ba2ff0ee194da",
  "number": 112670,
  "timestamp": 1440011085,
  "nonce": "0x5ecb479850f1ca91",
  "difficulty": 4432476000860,
  "gasLimit": {
    "_hex": "0x2fefd8"
  },
  "gasUsed": {
    "_hex": "0x5208"
  },
  "miner": "0xf8E0CA3Ed80bd541b94BEdCf259e8CF2141A9523",
  "extraData": "0x476574682f76312e302e312f77696e646f77732f676f312e342e32",
  "transactions": [
    {
      "hash": "0x9f3451c44c0bff8de2b29932ec2d1dca68086bb0914b4acd678156b4c2e079bb",
      "blockHash": "0xda5e217e13e2830c8c77a0c4e8df78c4e46404c6463ae4a8a8018d303632a239",
      "blockNumber": 112670,
      "transactionIndex": 0,
      "confirmations": null,
      "from": "0xFBb1b73C4f0BDa4f67dcA266ce6Ef42f520fBB98",
      "gasPrice": {
        "_hex": "0xcfcfe56f9"
      },
      "gasLimit": {
        "_hex": "0x5208"
      },
      "to": "0x0e4aBC0DaD303D11570a7B99bd9eB5f3130b4831",
      "value": {
        "_hex": "0x2431b61988377000"
      },
      "nonce": 223,
      "data": "0x",
      "r": "0x6b84baafe23d8dc79bef645c8290a95abf8146039feb6328ba582116e1e5b7d9",
      "s": "0x0ffbf87b4b907d964ec0365066256bb6025c866c002f912c13a75e542c665ba9",
      "v": 28,
      "creates": null,
      "raw": "0xf86d81df850cfcfe56f9825208940e4abc0dad303d11570a7b99bd9eb5f3130b4831882431b61988377000801ca06b84baafe23d8dc79bef645c8290a95abf8146039feb6328ba582116e1e5b7d9a00ffbf87b4b907d964ec0365066256bb6025c866c002f912c13a75e542c665ba9",
      "networkId": 0,
      "chainId": 0
    }
  ]
}