{
  "hash": "0x2db8c6fae0d0ebaaa95306f962e96c8271049e3bf4cc3a51e3b1a4f708909d1a",
  "parentHash": "0xb532688bb96f5cfd66d6a04610d63ffa0cb813e1050e684bdf348e62d8255e28",
  "number": 84704,
  "timestamp": 1439553424,
  "nonce": "0xf7a9e9343c3cce2e",
  "difficulty": 2611867668790,
  "gasLimit": {
    "_hex": "0x2fefd8"
  },
  "gasUsed": {
    "_hex": "0xf87c"
  },
  "miner": "0xEF247E639d49461D25F57e9362CadE3120910Ce0",
  "extraData": "0x476574682f76312e302e312f6c696e75782f676f312e342e32",
  "transactions": [
    {
      "hash": "0x969533d0b4ba833c4c608d4e484d4dc0cfa20bbcfac6bcd3903ca1ad1442c6a2",
      "blockHash": "0x2db8c6fae0d0ebaaa95306f962e96c8271049e3bf4cc3a51e3b1a4f708909d1a",
      "blockNumber": 84704,
      "transactionIndex": 0,
      "confirmations": null,
      "from": "0xb4413576869c08f9512ad311fe925988A52d3414",
      "gasPrice": {
        "_hex": "0x110c8f7d8de"
      },
      "gasLimit": {
        "_hex": "0xc350"
      },
      "to": "0x2910543Af39abA0Cd09dBb2D50200b3E800A63D2",
      "value": {
        "_hex": "0x6c6b935b8bbd400000"
      },
      "nonce": 3,
      "data": "0x454e3646314e583447",
      "r": "0x7ff678be86a7d6c1ca6b46431a702f9aa8324f756f15f052e68d583f633b280b",
      "s": "0xaabda93ba4e929f50668b028427aa8718a28738f2dc8ea5c1b61d4293673df4b",
      "v": 27,
      "creates": null,
      "raw": "0xf87703860110c8f7d8de82c350942910543af39aba0cd09dbb2d50200b3e800a63d2896c6b935b8bbd40000089454e3646314e5834471ba07ff678be86a7d6c1ca6b46431a702f9aa8324f756f15f052e68d583f633b280ba0aabda93ba4e929f50668b028427aa8718a28738f2dc8ea5c1b61d4293673df4b",
      "networkId": 0,
      "chainId": 0
    },
    {
      "hash": "0x16fdef30c99a09e9fd6193bfb55a6f5f59d81914c95a8c1a67a4681780a9e039",
      "blockHash": "0x2db8c6fae0d0ebaaa95306f962e96c8271049e3bf4cc3a51e3b1a4f708909d1a",
      "blockNumber": 84704,
      "transactionIndex": 1,
      "confirmations": null,
      "from": "0x458F183347F45a4001807728A89F31E9Da9D4A58",
      "gasPrice": {
        "_hex": "0xd8cce1a6f"
      },
      "gasLimit": {
        "_hex": "0x15f90"
      },
      "to": "0x7313946aA53dCDd777C90905D75A9B41e17Ca2c9",
      "value": {
        "_hex": "0x1728974898eee0000"
      },
      "nonce": 20,
      "data": "0x",
      "r": "0xfa5c34234f5720efbccb126ed08b84b8e322e7d21661bf2edf86d1c5002eaae2",
      "s": "0x36af31020ad989508d332879615e0759fc29ddf2f262210f41a7cea22ebdee73",
      "v": 28,
      "creates": null,
      "raw": "0xf86e14850d8cce1a6f83015f90947313946aa53dcdd777c90905d75a9b41e17ca2c98901728974898eee0000801ca0fa5c34234f5720efbccb126ed08b84b8e322e7d21661bf2edf86d1c5002eaae2a036af31020ad989508d332879615e0759fc29ddf2f262210f41a7cea22ebdee73",
      "networkId": 0,
      "chainId": 0
    },
    {
      "hash": "0xe21285c3ac5b52bd917b5b6d95cf41f1e1c433d94bb3c82d63c53c2df6ee7ebb",
      "blockHash": "0x2db8c6fae0d0ebaaa95306f962e96c8271049e3bf4cc3a51e3b1a4f708909d1a",
      "blockNumber": 84704,
      "transactionIndex": 2,
      "confirmations": null,
      "from": "0xBE07744f624130f75511A91a43495e5C11114950",
      "gasPrice": {
        "_hex": "0xd69b48315"
      },
      "gasLimit": {
        "_hex": "0x15f90"
      },
      "to": "0x23f2D0fd3B4C98Fb1698564deB4898275E2e831f",
      "value": {
        "_hex": "0xde0b6b3a7640000"
      },
      "nonce": 0,
      "data": "0x",
      "r": "0x866a7699e49ae40ae3c1470e89a86a36b9ce587b616206040085e55d651a1ecb",
      "s": "0x5a9f0edfbaeffc593cb29b7dc0c3d0a705060b14eb4e3819ea81e5e60361b5e1",
      "v": 28,
      "creates": null,
      "raw": "0xf86d80850d69b4831583015f909423f2d0fd3b4c98fb1698564deb4898275e2e831f880de0b6b3a7640000801ca0866a7699e49ae40ae3c1470e89a86a36b9ce587b616206040085e55d651a1ecba05a9f0edfbaeffc593cb29b7dc0c3d0a705060b14eb4e3819ea81e5e60361b5e1",
      "networkId": 0,
      "chainId": 0
    }
  ]
}