{
  "hash": "0x0ccec76268898be011ee85982430782d53d52dff22f54bb854b8c1a4bd84b871",
  "parentHash": "0x3b30445159eaee718640157ad9830ddc7d6b923d0038b1623ff77245d05859a8",
  "number": 111896,
  "timestamp": 1439997997,
  "nonce": "0xa00e5ba2b64bbd12",
  "difficulty": 4441551435177,
  "gasLimit": {
    "_hex": "0x2fefd8"
  },
  "gasUsed": {
    "_hex": "0x5208"
  },
  "miner": "0x1C8eCebAD1FDa19EF7701CF4Ca45033a34a6da31",
  "extraData": "0x476574682f76312e302e312f6c696e75782f676f312e342e32",
  "transactions": [
    {
      "hash": "0xc575520dd332c57865d5b411f8b0575452a6bf11c99ee4432a6d2fa7e8f3b98b",
      "blockHash": "0x0ccec76268898be011ee85982430782d53d52dff22f54bb854b8c1a4bd84b871",
      "blockNumber": 111896,
      "transactionIndex": 0,
      "confirmations": null,
      "from": "0xB9A0a0410aA5e26bFa66Cc3ACAF0A6FC61Df5588",
      "gasPrice": {
        "_hex": "0xcf092c5cd"
      },
      "gasLimit": {
        "_hex": "0x5208"
      },
      "to": "0x32Be343B94f860124dC4fEe278FDCBD38C102D88",
      "value": {
        "_hex": "0xc8f8078e66b95000"
      },
      "nonce": 10,
      "data": "0x",
      "r": "0x72c8a11479d634387c6fb95072a494f079a01161de249634e6a463094420eaee",
      "s": "0x2dd395ca2858e8c4386562a1a2f5f34ace7c22d6f16b3c793cebffe45fd03b8e",
      "v": 27,
      "creates": null,
      "raw": "0xf86c0a850cf092c5cd8252089432be343b94f860124dc4fee278fdcbd38c102d8888c8f8078e66b95000801ba072c8a11479d634387c6fb95072a494f079a01161de249634e6a463094420eaeea02dd395ca2858e8c4386562a1a2f5f34ace7c22d6f16b3c793cebffe45fd03b8e",
      "networkId": 0,
      "chainId": 0
    }
  ]
}