{
  "hash": "0x62cae67b2e8e64b512768cfc5f21bdad5eae7c14c69aa768cf7f95cad572867b",
  "parentHash": "0xfe1a924a1f39872c60376035ad22b3b2684c75f8c1cf0020b61430b941251e90",
  "number": 80834,
  "timestamp": 1439491700,
  "nonce": "0x489505ae3a6c6d15",
  "difficulty": 2457153202276,
  "gasLimit": {
    "_hex": "0x2fefd8"
  },
  "gasUsed": {
    "_hex": "0x5208"
  },
  "miner": "0x580992B51e3925e23280EfB93d3047C82f17E038",
  "extraData": "0x476574682f76312e302e312f6c696e75782f676f312e342e32",
  "transactions": [
    {
      "hash": "0x81cafcb3ff3da6dbf71aa75f7c2b8010796e0184fbee7aa66cd4e9835e261cd0",
      "blockHash": "0x62cae67b2e8e64b512768cfc5f21bdad5eae7c14c69aa768cf7f95cad572867b",
      "blockNumber": 80834,
      "transactionIndex": 0,
      "confirmations": null,
      "from": "0xEE6C03429969cA1262cB3f0A4a54AFa7d348D7F5",
      "gasPrice": {
        "_hex": "0xba43b7400"
      },
      "gasLimit": {
        "_hex": "0x5208"
      },
      "to": "0x59b7ee394b4F4EED8494C7920103D7e7e7E2BFF4",
      "value": {
        "_hex": "0xde2163e2794866000"
      },
      "nonce": 0,
      "data": "0x",
      "r": "0x276179fd2cb469bdd53c01f1489f0f307192339e5b313417d5791bc68e802ebd",
      "s": "0x04b97e334b288be86988fb6147d16bfde52424709e4bd2840ac8ef98a5ff0b6c",
      "v": 28,
      "creates": null,
      "raw": "0xf86d80850ba43b74008252089459b7ee394b4f4eed8494c7920103d7e7e7e2bff4890de2163e2794866000801ca0276179fd2cb469bdd53c01f1489f0f307192339e5b313417d5791bc68e802ebda004b97e334b288be86988fb6147d16bfde52424709e4bd2840ac8ef98a5ff0b6c",
      "networkId": 0,
      "chainId": 0
    }
  ]
}