{
  "hash": "0xc8f1eed67b953a959f879d387c1361ec88d60bbe695c93b7ada766a3d59c2bab",
  "parentHash": "0x51825823f89f56bbe5beab8b9c4a5f9ff3f546231b869268e56b604aac07d0fe",
  "number": 55385,
  "timestamp": 1439069861,
  "nonce": "0xdd368767be4e7062",
  "difficulty": 1625041352947,
  "gasLimit": {
    "_hex": "0x2fe412"
  },
  "gasUsed": {
    "_hex": "0xecb3"
  },
  "miner": "0x9D49F602b0fdb924Bd63DDE2Bd0907E4A07c63a7",
  "extraData": "0x476574682f76312e302e312f6c696e75782f676f312e342e32",
  "transactions": [
    {
      "hash": "0x606ea97f106463bb61e7cfa984d42d1dfde08b754e0a9dec014e65fa3ddbf911",
      "blockHash": "0xc8f1eed67b953a959f879d387c1361ec88d60bbe695c93b7ada766a3d59c2bab",
      "blockNumber": 55385,
      "transactionIndex": 0,
      "confirmations": null,
      "from": "0x288E4356F12D0D3D0F8DF3506E457E7cFd5f4Ab0",
      "gasPrice": {
        "_hex": "0xd9dbb8b59"
      },
      "gasLimit": {
        "_hex": "0x186a0"
      },
      "to": "0xF6bF0eE51FE0ee92500bB22295382E9241eC3b5C",
      "value": {
        "_hex": "0x38d7ea4c68000"
      },
      "nonce": 15,
      "data": "0xe5423274f5a6a9076e332a1452261059a46405b76837a59726ea071c71c71c71c71c71c7",
      "r": "0x3b3639e991237c060eb781e7740ac8b75eecc16b8286b9976803589aa5440b77",
      "s": "0x428672d9b21d42859fda3dd1c4533b61866aecf60ca24d115c4804efe352bbe7",
      "v": 27,
      "creates": null,
      "raw": "0xf8900f850d9dbb8b59830186a094f6bf0ee51fe0ee92500bb22295382e9241ec3b5c87038d7ea4c68000a4e5423274f5a6a9076e332a1452261059a46405b76837a59726ea071c71c71c71c71c71c71ba03b3639e991237c060eb781e7740ac8b75eecc16b8286b9976803589aa5440b77a0428672d9b21d42859fda3dd1c4533b61866aecf60ca24d115c4804efe352bbe7",
      "networkId": 0,
      "chainId": 0
    },
    {
      "hash": "0x5ae82c1e688698815a45b3f4a71af36cc0c45c74ab442c50fe9be1ad92cb48bf",
      "blockHash": "0xc8f1eed67b953a959f879d387c1361ec88d60bbe695c93b7ada766a3d59c2bab",
      "blockNumber": 55385,
      "transactionIndex": 1,
      "confirmations": null,
      "from": "0xc3cb6B36Af443F2C6e258B4a39553a818747811F",
      "gasPrice": {
        "_hex": "0xd641f460d"
      },
      "gasLimit": {
        "_hex": "0x15f90"
      },
      "to": "0x2910543Af39abA0Cd09dBb2D50200b3E800A63D2",
      "value": {
        "_hex": "0xd8d726b7177a80000"
      },
      "nonce": 3,
      "data": "0x454e56593431333152",
      "r": "0x902a6f76b184a644ee59964b6e3b8cea2a319a213fa4ef6a25da46da981e552f",
      "s": "0x16d804de564e401f4dcbed2054860a171c9671d613a73c6944b06ed627f235ae",
      "v": 28,
      "creates": null,
      "raw": "0xf87703850d641f460d83015f90942910543af39aba0cd09dbb2d50200b3e800a63d2890d8d726b7177a8000089454e565934313331521ca0902a6f76b184a644ee59964b6e3b8cea2a319a213fa4ef6a25da46da981e552fa016d804de564e401f4dcbed2054860a171c9671d613a73c6944b06ed627f235ae",
      "networkId": 0,
      "chainId": 0
    }
  ]
}