{
  "hash": "0x08c378011842fbca7ef4082f64881524a2e6e864a17bb4b4b1312a36007f8599",
  "parentHash": "0x8564639d3d2cc8fb246bfcd863788c3ff98404c5d1d3b34e975dbfb83e6679e5",
  "number": 71965,
  "timestamp": 1439344749,
  "nonce": "0x3118db4b361b9798",
  "difficulty": 2176029985251,
  "gasLimit": {
    "_hex": "0x2fefd8"
  },
  "gasUsed": {
    "_hex": "0xf618"
  },
  "miner": "0xe6A7a1d47ff21B6321162AEA7C6CB457D5476Bca",
  "extraData": "0x476574682f76312e302e312d38326566323666362f6c696e75782f676f312e34",
  "transactions": [
    {
      "hash": "0xa4fb598316b4ecb8e6c5a4d1c4408fdf3159ffe4ac2939e87f042a458bcb89ec",
      "blockHash": "0x08c378011842fbca7ef4082f64881524a2e6e864a17bb4b4b1312a36007f8599",
      "blockNumber": 71965,
      "transactionIndex": 0,
      "confirmations": null,
      "from": "0x9Fa9952255B2b06639A04D63804d4BdFFf6E2d7e",
      "gasPrice": {
        "_hex": "0x10e19633175"
      },
      "gasLimit": {
        "_hex": "0x15f90"
      },
      "to": "0xE12517204a15E890f12755207271102F4800A0c4",
      "value": {
        "_hex": "0x1630724c83f3fc9a0"
      },
      "nonce": 5,
      "data": "0x",
      "r": "0xa6fed8285540283dfdf806ec70d4a76ae45319d749ff348966636c56a189d2d2",
      "s": "0x08b40bfbafd7ff74c07a7cd9a3373515c9f7971bff1f13e5435b6fc1f92a1606",
      "v": 28,
      "creates": null,
      "raw": "0xf86f0586010e1963317583015f9094e12517204a15e890f12755207271102f4800a0c48901630724c83f3fc9a0801ca0a6fed8285540283dfdf806ec70d4a76ae45319d749ff348966636c56a189d2d2a008b40bfbafd7ff74c07a7cd9a3373515c9f7971bff1f13e5435b6fc1f92a1606",
      "networkId": 0,
      "chainId": 0
    },
    {
      "hash": "0x4b720f2e1be82a4df8216ccd094708a434d101f3351e84f8f376b568cb62d517",
      "blockHash": "0x08c378011842fbca7ef4082f64881524a2e6e864a17bb4b4b1312a36007f8599",
      "blockNumber": 71965,
      "transactionIndex": 1,
      "confirmations": null,
      "from": "0x32Be343B94f860124dC4fEe278FDCBD38C102D88",
      "gasPrice": {
        "_hex": "0xd64790642"
      },
      "gasLimit": {
        "_hex": "0x5208"
      },
      "to": "0x9b7999611FD5eFF3ef9A86653490c42E83ED4B8E",
      "value": {
        "_hex": "0x6c6b935b8bbd40000"
      },
      "nonce": 276,
      "data": "0x",
      "r": "0xd371b3074b276252f601f01b1ca295d8e36078962843d14eac5578eb2d292e52",
      "s": "0x7caa9abd6d501638f8f6089070552c29ab3ccac614a50363081199c824e31938",
      "v": 27,
      "creates": null,
      "raw": "0xf86f820114850d64790642825208949b7999611fd5eff3ef9a86653490c42e83ed4b8e8906c6b935b8bbd40000801ba0d371b3074b276252f601f01b1ca295d8e36078962843d14eac5578eb2d292e52a07caa9abd6d501638f8f6089070552c29ab3ccac614a50363081199c824e31938",
      "networkId": 0,
      "chainId": 0
    },
    {
      "hash": "0x90d354d331555d997758136b0d740dcf9ebaaec65cee363a54c36d0193766190",
      "blockHash": "0x08c378011842fbca7ef4082f64881524a2e6e864a17bb4b4b1312a36007f8599",
      "blockNumber": 71965,
      "transactionIndex": 2,
      "confirmations": null,
      "from": "0x32Be343B94f860124dC4fEe278FDCBD38C102D88",
      "gasPrice": {
        "_hex": "0xd64790642"
      },
      "gasLimit": {
        "_hex": "0x5208"
      },
      "to": "0xC20b3638Bf021A5f01B7732C141963181DDF3366",
      "value": {
        "_hex": "0x410d34e32e35000000"
      },
      "nonce": 277,
      "data": "0x",
      "r": "0x54d8ab4d093f112e9056925fb862d15cfdc493d4385da763f3ce09a5a0860bdc",
      "s": "0x48242d40f313db4c7be17f587c4bd377bdc8b823e923a59afe382e835103600a",
      "v": 27,
      "creates": null,
      "raw": "0xf86f820115850d6479064282520894c20b3638bf021a5f01b7732c141963181ddf336689410d34e32e35000000801ba054d8ab4d093f112e9056925fb862d15cfdc493d4385da763f3ce09a5a0860bdca048242d40f313db4c7be17f587c4bd377bdc8b823e923a59afe382e835103600a",
      "networkId": 0,
      "chainId": 0
    }
  ]
}