{
  "hash": "0xea494af2c47f1fcc5f6166016a34366d449b7995867d9519d7a0658d228a26d6",
  "parentHash": "0x9309039b553c22b30dc2a5389972201882ec92326307e228897689f64b9e86b8",
  "number": 71945,
  "timestamp": 1439344399,
  "nonce": "0x72d8f7918abec931",
  "difficulty": 2178161245788,
  "gasLimit": {
    "_hex": "0x2fefd5"
  },
  "gasUsed": {
    "_hex": "0x14273"
  },
  "miner": "0xf8E0CA3Ed80bd541b94BEdCf259e8CF2141A9523",
  "extraData": "0x476574682f76312e302e312f77696e646f77732f676f312e342e32",
  "transactions": [
    {
      "hash": "0xb96d3578401b86e506e5c34a39d123f8a9c92d781d94713d850ef5a0fdbcfd2c",
      "blockHash": "0xea494af2c47f1fcc5f6166016a34366d449b7995867d9519d7a0658d228a26d6",
      "blockNumber": 71945,
      "transactionIndex": 0,
      "confirmations": null,
      "from": "0x17580B766f7453525ca4C6A88b01b50570EA088C",
      "gasPrice": {
        "_hex": "0xccc9e9d64"
      },
      "gasLimit": {
        "_hex": "0x61a80"
      },
      "to": "0x5Fe5B7546D1628f7348B023A0393de1FC825A4fD",
      "value": {
        "_hex": "0x53444835ec580000"
      },
      "nonce": 303,
      "data": "0xb595b8b50000000000000000000000000000000000000000000000000000000000000001",
      "r": "0x1baaaf8ec7fe3b1ce3d6ad18bc71aa99f8d7aae09249bd2212a204a1cee8dd8e",
      "s": "0x05dd840078e80502466d8789bebc1506cc80896c05db9c2c28305d2497be808e",
      "v": 27,
      "creates": null,
      "raw": "0xf89382012f850ccc9e9d6483061a80945fe5b7546d1628f7348b023a0393de1fc825a4fd8853444835ec580000a4b595b8b500000000000000000000000000000000000000000000000000000000000000011ba01baaaf8ec7fe3b1ce3d6ad18bc71aa99f8d7aae09249bd2212a204a1cee8dd8ea005dd840078e80502466d8789bebc1506cc80896c05db9c2c28305d2497be808e",
      "networkId": 0,
      "chainId": 0
    },
    {
      "hash": "0x941519e53b6fa2d858872fa8ad467778668f8a721c7ac5f1cdcfe00e3f75b7cc",
      "blockHash": "0xea494af2c47f1fcc5f6166016a34366d449b7995867d9519d7a0658d228a26d6",
      "blockNumber": 71945,
      "transactionIndex": 1,
      "confirmations": null,
      "from": "0x17580B766f7453525ca4C6A88b01b50570EA088C",
      "gasPrice": {
        "_hex": "0xccc9e9d64"
      },
      "gasLimit": {
        "_hex": "0x61a80"
      },
      "to": "0x5Fe5B7546D1628f7348B023A0393de1FC825A4fD",
      "value": {
        "_hex": "0x8ac7230489e80000"
      },
      "nonce": 304,
      "data": "0xb595b8b50000000000000000000000000000000000000000000000000000000000000000",
      "r": "0x8a23926cd0533e899854f5c11a3fcb14ccef46b44f47d95a31362b3c511ee5a1",
      "s": "0x5dd9523b94052188c4b5312b3f239b038cfdaef1187bc45a5d17e3f64743264f",
      "v": 28,
      "creates": null,
      "raw": "0xf893820130850ccc9e9d6483061a80945fe5b7546d1628f7348b023a0393de1fc825a4fd888ac7230489e80000a4b595b8b500000000000000000000000000000000000000000000000000000000000000001ca08a23926cd0533e899854f5c11a3fcb14ccef46b44f47d95a31362b3c511ee5a1a05dd9523b94052188c4b5312b3f239b038cfdaef1187bc45a5d17e3f64743264f",
      "networkId": 0,
      "chainId": 0
    }
  ]
}