{
  "hash": "0x2abd98126e21a6da3637a8c9fcbda15b3fda473d4646de2bf682584375dfe6f7",
  "parentHash": "0xa1472d7b89d60c483b3324ffbb6a7754bccd63ebcde84f0ffa3157dc7729bf45",
  "number": 55630,
  "timestamp": 1439074055,
  "nonce": "0x55ce71a57b241058",
  "difficulty": 1619449194648,
  "gasLimit": {
    "_hex": "0x2fefd8"
  },
  "gasUsed": {
    "_hex": "0xa410"
  },
  "miner": "0xC49418429e58989172a4ACE0bab0cB8D3F00F97f",
  "extraData": "0x476574682f76312e302e312f6c696e75782f676f312e342e32",
  "transactions": [
    {
      "hash": "0x06fa8bc941c5762a72836b23d86ba26e4285d2d420f0e2e67c7fcad0c48f1b8f",
      "blockHash": "0x2abd98126e21a6da3637a8c9fcbda15b3fda473d4646de2bf682584375dfe6f7",
      "blockNumber": 55630,
      "transactionIndex": 0,
      "confirmations": null,
      "from": "0x32Be343B94f860124dC4fEe278FDCBD38C102D88",
      "gasPrice": {
        "_hex": "0xd7e666e9b"
      },
      "gasLimit": {
        "_hex": "0x5208"
      },
      "to": "0xb794F5eA0ba39494cE839613fffBA74279579268",
      "value": {
        "_hex": "0x56bc75e2d63100000"
      },
      "nonce": 67,
      "data": "0x",
      "r": "0x4a39d2860a1d0c3ac8d3ca5b9dcb99a7a1f6b68cd495cac79f3117f7b6bf60dc",
      "s": "0x5399441b066e7e4e336ad19872577502f644e7a0e87825cd20237458777db239",
      "v": 27,
      "creates": null,
      "raw": "0xf86d43850d7e666e9b82520894b794f5ea0ba39494ce839613fffba7427957926889056bc75e2d63100000801ba04a39d2860a1d0c3ac8d3ca5b9dcb99a7a1f6b68cd495cac79f3117f7b6bf60dca05399441b066e7e4e336ad19872577502f644e7a0e87825cd20237458777db239",
      "networkId": 0,
      "chainId": 0
    },
    {
      "hash": "0x0d1e827b3e00c14ed63523bb342b3a1d84c306879b7f0634d021cef6b6123b6f",
      "blockHash": "0x2abd98126e21a6da3637a8c9fcbda15b3fda473d4646de2bf682584375dfe6f7",
      "blockNumber": 55630,
      "transactionIndex": 1,
      "confirmations": null,
      "from": "0x120A270bbC009644e35F0bB6ab13f95b8199c4ad",
      "gasPrice": {
        "_hex": "0xd4c12cc14"
      },
      "gasLimit": {
        "_hex": "0x15f90"
      },
      "to": "0xB100987e77FEbA6F022dBd22B80B008e35d3Ff2E",
      "value": {
        "_hex": "0x1bc16d674ec80000"
      },
      "nonce": 20,
      "data": "0x",
      "r": "0xb177f0a038a40a28c2c6a684f72ff40a3ef49cc359c34a305ccb05d08c232487",
      "s": "0x01f6f09d793dce10917729467b079a81542f1e496f984a0dba9ab075f91b53ec",
      "v": 28,
      "creates": null,
      "raw": "0xf86d14850d4c12cc1483015f9094b100987e77feba6f022dbd22b80b008e35d3ff2e881bc16d674ec80000801ca0b177f0a038a40a28c2c6a684f72ff40a3ef49cc359c34a305ccb05d08c232487a001f6f09d793dce10917729467b079a81542f1e496f984a0dba9ab075f91b53ec",
      "networkId": 0,
      "chainId": 0
    }
  ]
}