{
  "hash": "0x1fd30e1f51e1c875cea87c9376b76f550634a60111b5becbd98c1eefbbd9c775",
  "parentHash": "0x25b945f15902a76ea1288abdae5ce5572ebad7b1512dea8e49b6335fa2319a7f",
  "number": 60105,
  "timestamp": 1439149296,
  "nonce": "0xf327f659991d3f61",
  "difficulty": 1733946957437,
  "gasLimit": {
    "_hex": "0x2fefd8"
  },
  "gasUsed": {
    "_hex": "0x546c"
  },
  "miner": "0x00eBA8Ef4fF9B21Ec2FFF273953fDCC81f6fE7da",
  "extraData": "0x476574682f76312e302e312f6c696e75782f676f312e342e32",
  "transactions": [
    {
      "hash": "0x79bc5b4fd320ec433330bff0ae7fa137cffa099578e0059680a0708f29e6cf5e",
      "blockHash": "0x1fd30e1f51e1c875cea87c9376b76f550634a60111b5becbd98c1eefbbd9c775",
      "blockNumber": 60105,
      "transactionIndex": 0,
      "confirmations": null,
      "from": "0xa04f2Ae02add14C12FaF65Cb259022d0830a8E26",
      "gasPrice": {
        "_hex": "0xfe30a9f7cb"
      },
      "gasLimit": {
        "_hex": "0x15f90"
      },
      "to": "0x2910543Af39abA0Cd09dBb2D50200b3E800A63D2",
      "value": {
        "_hex": "0x21e0c0013070adc0000"
      },
      "nonce": 5,
      "data": "0x454e34514a33553730",
      "r": "0x46d8e91834a0ddff592bf3abc11a4d62f28eca30ea00fdc86b61d9031540509f",
      "s": "0x5a848c826a4ad34a7844095ec8b7c9c18969d5d8ae0a911e6e8c015fa39d8b1b",
      "v": 27,
      "creates": null,
      "raw": "0xf8780585fe30a9f7cb83015f90942910543af39aba0cd09dbb2d50200b3e800a63d28a021e0c0013070adc000089454e34514a335537301ba046d8e91834a0ddff592bf3abc11a4d62f28eca30ea00fdc86b61d9031540509fa05a848c826a4ad34a7844095ec8b7c9c18969d5d8ae0a911e6e8c015fa39d8b1b",
      "networkId": 0,
      "chainId": 0
    }
  ]
}