{
  "hash": "0xcc1b69344c5308b807853d08774e3acda245921ac143508ecd9f5c3dcdfa62dc",
  "parentHash": "0x89c9cb9f5d0ea37950b24b90a612e52cd4680977c18dc68c223cf0d1fa0f5aea",
  "number": 79097,
  "timestamp": 1439464382,
  "nonce": "0x8100c4f30d4df949",
  "difficulty": 2318928065578,
  "gasLimit": {
    "_hex": "0x2fefd8"
  },
  "gasUsed": {
    "_hex": "0xa410"
  },
  "miner": "0x9192Ca96DE0B90f2A67A2D81f4A1325CFA3Cc685",
  "extraData": "0x",
  "transactions": [
    {
      "hash": "0xcae93f2fac2af967b3f5535df01f14a0f5477463a4099798811e4083813d80b1",
      "blockHash": "0xcc1b69344c5308b807853d08774e3acda245921ac143508ecd9f5c3dcdfa62dc",
      "blockNumber": 79097,
      "transactionIndex": 0,
      "confirmations": null,
      "from": "0xe6A7a1d47ff21B6321162AEA7C6CB457D5476Bca",
      "gasPrice": {
        "_hex": "0xe22071e38"
      },
      "gasLimit": {
        "_hex": "0x55f0"
      },
      "to": "0xC15233674F0Cb7729e4Ab8aB733430C40580914d",
      "value": {
        "_hex": "0x66609bc48d6be068"
      },
      "nonce": 1234,
      "data": "0x",
      "r": "0x659fb5faee60f11dcbea0c13103c1b260dcdacf0bc1dae20a1c7c75197605509",
      "s": "0x7fca34484e8f638d76098d59caea2c24982bf520f80c3e7bc902e33d85097408",
      "v": 27,
      "creates": null,
      "raw": "0xf86e8204d2850e22071e388255f094c15233674f0cb7729e4ab8ab733430c40580914d8866609bc48d6be068801ba0659fb5faee60f11dcbea0c13103c1b260dcdacf0bc1dae20a1c7c75197605509a07fca34484e8f638d76098d59caea2c24982bf520f80c3e7bc902e33d85097408",
      "networkId": 0,
      "chainId": 0
    },
    {
      "hash": "0x4d9f9eb089de67a73d2717ccffbcfc88522f7664cb0131f9562ed7f33bbab0d8",
      "blockHash": "0xcc1b69344c5308b807853d08774e3acda245921ac143508ecd9f5c3dcdfa62dc",
      "blockNumber": 79097,
      "transactionIndex": 1,
      "confirmations": null,
      "from": "0xe6A7a1d47ff21B6321162AEA7C6CB457D5476Bca",
      "gasPrice": {
        "_hex": "0xe22071e38"
      },
      "gasLimit": {
        "_hex": "0x55f0"
      },
      "to": "0x4CA7cc5aF3D69A52e705DcEac59B9f76e0906DA8",
      "value": {
        "_hex": "0x670c4869c563f2c8"
      },
      "nonce": 1235,
      "data": "0x",
      "r": "0xf8d20f23aae5092a20e5a504d342c1c63ee172fce2668f99bd980e9e1fff4bf6",
      "s": "0x3967151e84c0871e36f9494528dd90feb0e08765872bfe6f030f0916a4475a2e",
      "v": 27,
      "creates": null,
      "raw": "0xf86e8204d3850e22071e388255f0944ca7cc5af3d69a52e705dceac59b9f76e0906da888670c4869c563f2c8801ba0f8d20f23aae5092a20e5a504d342c1c63ee172fce2668f99bd980e9e1fff4bf6a03967151e84c0871e36f9494528dd90feb0e08765872bfe6f030f0916a4475a2e",
      "networkId": 0,
      "chainId": 0
    }
  ]
}