{
  "hash": "0x1620339bcdf265be011cef96c3e43fa483fcfa29cba5931076cd224cdf054cb7",
  "parentHash": "0x5bf8e2a2bdc379cd1b529efc0d90dc5adbc5a0daa0acbc175cd7baef7bd3a3a5",
  "number": 68473,
  "timestamp": 1439288462,
  "nonce": "0x420468e324b877b5",
  "difficulty": 2009408211230,
  "gasLimit": {
    "_hex": "0x2fefd8"
  },
  "gasUsed": {
    "_hex": "0x47688"
  },
  "miner": "0xbb7B8287f3F0a933474a79eAe42CBCa977791171",
  "extraData": "0x476574682f4c5649562f76312e302e312f6c696e75782f676f312e342e32",
  "transactions": [
    {
      "hash": "0x5520223eba51238f324df44165c2e76c98f154d47fc0d1da9b7cee6e4c92b59e",
      "blockHash": "0x1620339bcdf265be011cef96c3e43fa483fcfa29cba5931076cd224cdf054cb7",
      "blockNumber": 68473,
      "transactionIndex": 0,
      "confirmations": null,
      "from": "0xC58E56f78495a412f788b23113FF5c475bF5F205",
      "gasPrice": {
        "_hex": "0xba43b7400"
      },
      "gasLimit": {
        "_hex": "0x15f90"
      },
      "to": "0x793AE8C1b1a160BFc07BFB0d04F85eab1A71F4f2",
      "value": {
        "_hex": "0x0"
      },
      "nonce": 0,
      "data": "0x3ba15036",
      "r": "0x189cc6ff92c6deb182bef18a236a73ad51617a4daccc3629b026bb317a3a3850",
      "s": "0x69ba7262829da3ef67e0d587ec197ca7f74b12c6152ec0e68e1097d82a51ac59",
      "v": 28,
      "creates": null,
      "raw": "0xf86980850ba43b740083015f9094793ae8c1b1a160bfc07bfb0d04f85eab1a71f4f280843ba150361ca0189cc6ff92c6deb182bef18a236a73ad51617a4daccc3629b026bb317a3a3850a069ba7262829da3ef67e0d587ec197ca7f74b12c6152ec0e68e1097d82a51ac59",
      "networkId": 0,
      "chainId": 0
    },
    {
      "hash": "0x831ad3f6f1c3598bc0365414d8638041e3eb5e403db6be6481b72c8df4e03367",
      "blockHash": "0x1620339bcdf265be011cef96c3e43fa483fcfa29cba5931076cd224cdf054cb7",
      "blockNumber": 68473,
      "transactionIndex": 1,
      "confirmations": null,
      "from": "0x12f76570B97A70D572c014BD2393A5Bddaf61605",
      "gasPrice": {
        "_hex": "0xba43b7400"
      },
      "gasLimit": {
        "_hex": "0x15f90"
      },
      "to": "0x793AE8C1b1a160BFc07BFB0d04F85eab1A71F4f2",
      "value": {
        "_hex": "0x0"
      },
      "nonce": 0,
      "data": "0x3ba15036",
      "r": "0x692ab9df0ee954dea390d1a5566f2b5a2a20b61969c2b05247ee1a1b65aece70",
      "s": "0x4cb45caa71d3f320e13be348c951ed505cfa7ebe411d13afdd511cc7f5326ef1",
      "v": 28,
      "creates": null,
      "raw": "0xf86980850ba43b740083015f9094793ae8c1b1a160bfc07bfb0d04f85eab1a71f4f280843ba150361ca0692ab9df0ee954dea390d1a5566f2b5a2a20b61969c2b05247ee1a1b65aece70a04cb45caa71d3f320e13be348c951ed505cfa7ebe411d13afdd511cc7f5326ef1",
      "networkId": 0,
      "chainId": 0
    },
    {
      "hash": "0x38d2199e6f83e7ba69c71770a1da21cea64ba5f8c59d6c3bea8e1837e5ff4770",
      "blockHash": "0x1620339bcdf265be011cef96c3e43fa483fcfa29cba5931076cd224cdf054cb7",
      "blockNumber": 68473,
      "transactionIndex": 2,
      "confirmations": null,
      "from": "0x596B8426A0d0B6cec02739a696048cBa59ECC174",
      "gasPrice": {
        "_hex": "0xba43b7400"
      },
      "gasLimit": {
        "_hex": "0x15f90"
      },
      "to": "0x793AE8C1b1a160BFc07BFB0d04F85eab1A71F4f2",
      "value": {
        "_hex": "0x0"
      },
      "nonce": 0,
      "data": "0x3ba15036",
      "r": "0x2240d75ef900b3c531c0bc06bf3504d3a8993038ec879a3af17c66b1bbcccfc6",
      "s": "0x2a35ec9db813ff70ef3247d1e7a24306f8bb000938fca77733f2ada9066a5f33",
      "v": 28,
      "creates": null,
      "raw": "0xf86980850ba43b740083015f9094793ae8c1b1a160bfc07bfb0d04f85eab1a71f4f280843ba150361ca02240d75ef900b3c531c0bc06bf3504d3a8993038ec879a3af17c66b1bbcccfc6a02a35ec9db813ff70ef3247d1e7a24306f8bb000938fca77733f2ada9066a5f33",
      "networkId": 0,
      "chainId": 0
    },
    {
      "hash": "0x3fd9037f69f47a03365a65ba2028ad26921b7aa77fee4e0d6b33380ca740971b",
      "blockHash": "0x1620339bcdf265be011cef96c3e43fa483fcfa29cba5931076cd224cdf054cb7",
      "blockNumber": 68473,
      "transactionIndex": 3,
      "confirmations": null,
      "from": "0xC1f45F80fAD5878e7f2c7599B3222d100adB0ddd",
      "gasPrice": {
        "_hex": "0xba43b7400"
      },
      "gasLimit": {
        "_hex": "0x15f90"
      },
      "to": "0x793AE8C1b1a160BFc07BFB0d04F85eab1A71F4f2",
      "value": {
        "_hex": "0x0"
      },
      "nonce": 0,
      "data": "0x3ba15036",
      "r": "0x8e89e78bddaa6440db03a3babfbf869df001716a99ff99f5c3a4bd7f07c34f9d",
      "s": "0x1b9a6c5ad6a1b88a188f79135a732102452932928ccde6ec60a632c467519d25",
      "v": 28,
      "creates": null,
      "raw": "0xf86980850ba43b740083015f9094793ae8c1b1a160bfc07bfb0d04f85eab1a71f4f280843ba150361ca08e89e78bddaa6440db03a3babfbf869df001716a99ff99f5c3a4bd7f07c34f9da01b9a6c5ad6a1b88a188f79135a732102452932928ccde6ec60a632c467519d25",
      "networkId": 0,
      "chainId": 0
    },
    {
      "hash": "0x98e275e8e16daa060702344def99d9da1c595508c06b832ba98aafc5b803c581",
      "blockHash": "0x1620339bcdf265be011cef96c3e43fa483fcfa29cba5931076cd224cdf054cb7",
      "blockNumber": 68473,
      "transactionIndex": 4,
      "confirmations": null,
      "from": "0x2D01EfDf89887D890672f9e11D362Cb9B67471DC",
      "gasPrice": {
        "_hex": "0xba43b7400"
      },
      "gasLimit": {
        "_hex": "0x15f90"
      },
      "to": "0x793AE8C1b1a160BFc07BFB0d04F85eab1A71F4f2",
      "value": {
        "_hex": "0x0"
      },
      "nonce": 0,
      "data": "0x3ba15036",
      "r": "0xead4ff6e82618326ecd9eefd96f1dbc2be76d90528f954dcd64f0cbec35197c1",
      "s": "0x4b7ef59518f9a5758009ae1756efa9b8827c0b3a2262fa12fe0ebcda50c5ac1e",
      "v": 27,
      "creates": null,
      "raw": "0xf86980850ba43b740083015f9094793ae8c1b1a160bfc07bfb0d04f85eab1a71f4f280843ba150361ba0ead4ff6e82618326ecd9eefd96f1dbc2be76d90528f954dcd64f0cbec35197c1a04b7ef59518f9a5758009ae1756efa9b8827c0b3a2262fa12fe0ebcda50c5ac1e",
      "networkId": 0,
      "chainId": 0
    },
    {
      "hash": "0x0a2798a2244e2cdc2c7179a22431474c9ee5f259ecd8826e885650eedb0b3a6a",
      "blockHash": "0x1620339bcdf265be011cef96c3e43fa483fcfa29cba5931076cd224cdf054cb7",
      "blockNumber": 68473,
      "transactionIndex": 5,
      "confirmations": null,
      "from": "0x1232215C783F56556b53706bF95870Bfb81DC553",
      "gasPrice": {
        "_hex": "0xba43b7400"
      },
      "gasLimit": {
        "_hex": "0x15f90"
      },
      "to": "0x793AE8C1b1a160BFc07BFB0d04F85eab1A71F4f2",
      "value": {
        "_hex": "0x0"
      },
      "nonce": 0,
      "data": "0x3ba15036",
      "r": "0xd111e0773ade3242a895965ae71ed6263b8da1e64492f3b39eb5d52753840905",
      "s": "0x0e0651ea3e4ec2e80c479063714af017231c141e9e6ad2b4342a20472ec253ed",
      "v": 27,
      "creates": null,
      "raw": "0xf86980850ba43b740083015f9094793ae8c1b1a160bfc07bfb0d04f85eab1a71f4f280843ba150361ba0d111e0773ade3242a895965ae71ed6263b8da1e64492f3b39eb5d52753840905a00e0651ea3e4ec2e80c479063714af017231c141e9e6ad2b4342a20472ec253ed",
      "networkId": 0,
      "chainId": 0
    }
  ]
}