{
  "hash": "0x22fd8312b32b68eca4fb297850d836b4761266cb4d2b38ef092ccba7a7c1a701",
  "parentHash": "0xb3d8f2eb1ec29d03bdced7a3baa95b60d081d14876190570d9041860160f8dc7",
  "number": 104936,
  "timestamp": 1439878636,
  "nonce": "0x5b3484184ee5f114",
  "difficulty": 4333791558545,
  "gasLimit": {
    "_hex": "0x2fefd8"
  },
  "gasUsed": {
    "_hex": "0x5208"
  },
  "miner": "0x790b8a3cE86E707ED0eD32bF89B3269692a23CC1",
  "extraData": "0xd783010001844765746887676f312e342e32856c696e7578",
  "transactions": [
    {
      "hash": "0xe07ad4132c755ef8e79a40e7b5eca70fd11ee5cf366c5cfeab79eae4e25645af",
      "blockHash": "0x22fd8312b32b68eca4fb297850d836b4761266cb4d2b38ef092ccba7a7c1a701",
      "blockNumber": 104936,
      "transactionIndex": 0,
      "confirmations": null,
      "from": "0x9746c7e1ef2bd21FF3997fa467593a89cb852BD0",
      "gasPrice": {
        "_hex": "0xccb9d17b1"
      },
      "gasLimit": {
        "_hex": "0x5208"
      },
      "to": "0xB0bF4A71F730782368Ef660FE6D298F432F95450",
      "value": {
        "_hex": "0xad78ebc5ac6200000"
      },
      "nonce": 34,
      "data": "0x",
      "r": "0x0ddd30657dc91ef3cada98aafcb292c155054ae532e24a97800dab8d29e79ab7",
      "s": "0x3f7e967d8052bdfd04758a890ca737f1cb4fd5d6e9e9055788f5edb74de7a84e",
      "v": 27,
      "creates": null,
      "raw": "0xf86d22850ccb9d17b182520894b0bf4a71f730782368ef660fe6d298f432f95450890ad78ebc5ac6200000801ba00ddd30657dc91ef3cada98aafcb292c155054ae532e24a97800dab8d29e79ab7a03f7e967d8052bdfd04758a890ca737f1cb4fd5d6e9e9055788f5edb74de7a84e",
      "networkId": 0,
      "chainId": 0
    }
  ]
}