{
  "hash": "0x2a891f1b5cc16823a2baa317a3bd40197cf7794e7b399d2baf2974cbe21cdce5",
  "parentHash": "0xd1b524c76d4426a9e046da58c04cd40da52ff5647f7843de257dfe0115acbaaa",
  "number": 56502,
  "timestamp": 1439088181,
  "nonce": "0xa996cf5b5abf9eed",
  "difficulty": 1660921825183,
  "gasLimit": {
    "_hex": "0x2fefd8"
  },
  "gasUsed": {
    "_hex": "0xa410"
  },
  "miner": "0xf927a40C8B7F6E07c5af7FA2155B4864a4112B13",
  "extraData": "0x476574682f76312e302e312f6c696e75782f676f312e342e32",
  "transactions": [
    {
      "hash": "0x96be4323eef0d4c03280e9901a476c0e675561ba00e062037c76e16d3ddbd606",
      "blockHash": "0x2a891f1b5cc16823a2baa317a3bd40197cf7794e7b399d2baf2974cbe21cdce5",
      "blockNumber": 56502,
      "transactionIndex": 0,
      "confirmations": null,
      "from": "0x5fF827e73C5B866c300b824fe12719a3DD350513",
      "gasPrice": {
        "_hex": "0xe0d37eb96"
      },
      "gasLimit": {
        "_hex": "0x5208"
      },
      "to": "0x32Be343B94f860124dC4fEe278FDCBD38C102D88",
      "value": {
        "_hex": "0x6283c3b50a93f800"
      },
      "nonce": 1,
      "data": "0x",
      "r": "0x9210476d844769690048a6b1327bb5b62db67c10c7e2fddb838c362fd3e6c0b8",
      "s": "0x3ca35822be3b72ef2995b84e8535ec55f3517b6978aa5ffa740a6e3e7e97a9d6",
      "v": 28,
      "creates": null,
      "raw": "0xf86c01850e0d37eb968252089432be343b94f860124dc4fee278fdcbd38c102d88886283c3b50a93f800801ca09210476d844769690048a6b1327bb5b62db67c10c7e2fddb838c362fd3e6c0b8a03ca35822be3b72ef2995b84e8535ec55f3517b6978aa5ffa740a6e3e7e97a9d6",
      "networkId": 0,
      "chainId": 0
    },
    {
      "hash": "0x321137ca446dbeccff981dc14bd1c64a4d0753e860c0faa089379f0ccc54db6a",
      "blockHash": "0x2a891f1b5cc16823a2baa317a3bd40197cf7794e7b399d2baf2974cbe21cdce5",
      "blockNumber": 56502,
      "transactionIndex": 1,
      "confirmations": null,
      "from": "0x082AF42638C5A41b6993D4B9C9615Dc6d0D224b1",
      "gasPrice": {
        "_hex": "0xba43b7400"
      },
      "gasLimit": {
        "_hex": "0x5b04"
      },
      "to": "0xa5dfe8122aD4fEc714482bAcB56AfD198ce3Bc5E",
      "value": {
        "_hex": "0x14fbb3fd34640000"
      },
      "nonce": 1,
      "data": "0x",
      "r": "0x7155aa25eedd11bad66353239c07588e2608e4d837c5e4a464e36e662dc10bf9",
      "s": "0xa24c1e481d899211067cba9d756990e429dd4d32c9dbb15116eec38d09cb25be",
      "v": 27,
      "creates": null,
      "raw": "0xf86c01850ba43b7400825b0494a5dfe8122ad4fec714482bacb56afd198ce3bc5e8814fbb3fd34640000801ba07155aa25eedd11bad66353239c07588e2608e4d837c5e4a464e36e662dc10bf9a0a24c1e481d899211067cba9d756990e429dd4d32c9dbb15116eec38d09cb25be",
      "networkId": 0,
      "chainId": 0
    }
  ]
}