{
  "hash": "0x9a46ce64fca08ca20372c272551c023c7bc4015b0a5ad44d4eb6cd1a65e4fb3d",
  "parentHash": "0xd14436652fdcd0212ce8b622a08433a35bbc38b0727edbcf766fd90fa8c19898",
  "number": 113376,
  "timestamp": 1440022382,
  "nonce": "0xb001de92a40bd3b2",
  "difficulty": 4488728587702,
  "gasLimit": {
    "_hex": "0x2fefd8"
  },
  "gasUsed": {
    "_hex": "0xa410"
  },
  "miner": "0xe6A7a1d47ff21B6321162AEA7C6CB457D5476Bca",
  "extraData": "0x476574682f76312e302e312d38326566323666362f6c696e75782f676f312e34",
  "transactions": [
    {
      "hash": "0xf81caff3092191c9fda245a104b65495cb7cce8c241e1957fcd3d15a653c07cb",
      "blockHash": "0x9a46ce64fca08ca20372c272551c023c7bc4015b0a5ad44d4eb6cd1a65e4fb3d",
      "blockNumber": 113376,
      "transactionIndex": 0,
      "confirmations": null,
      "from": "0x32Be343B94f860124dC4fEe278FDCBD38C102D88",
      "gasPrice": {
        "_hex": "0xd9cbaa43a"
      },
      "gasLimit": {
        "_hex": "0x5208"
      },
      "to": "0x37D1d27e54bea142CfFf327152361818E3c46FB6",
      "value": {
        "_hex": "0x4b474052ab8270000"
      },
      "nonce": 1365,
      "data": "0x",
      "r": "0xfdcf8d51fa062582eb7ade3c44578887abfcbdea8ce5289be34950ca243fd7eb",
      "s": "0x3e9da89eebb3f5c589e84b0a617deb56a18502fa82b65aabeb93717c2803ff4c",
      "v": 27,
      "creates": null,
      "raw": "0xf86f820555850d9cbaa43a8252089437d1d27e54bea142cfff327152361818e3c46fb68904b474052ab8270000801ba0fdcf8d51fa062582eb7ade3c44578887abfcbdea8ce5289be34950ca243fd7eba03e9da89eebb3f5c589e84b0a617deb56a18502fa82b65aabeb93717c2803ff4c",
      "networkId": 0,
      "chainId": 0
    },
    {
      "hash": "0xdc3f1f6d5e57e5438c7d798d404fa8146c2ec36cd0651e928044e8ee1d591cc0",
      "blockHash": "0x9a46ce64fca08ca20372c272551c023c7bc4015b0a5ad44d4eb6cd1a65e4fb3d",
      "blockNumber": 113376,
      "transactionIndex": 1,
      "confirmations": null,
      "from": "0xeeb66aFe554366d685C7832C6c93727Ba577378D",
      "gasPrice": {
        "_hex": "0xce7e3477c"
      },
      "gasLimit": {
        "_hex": "0x5208"
      },
      "to": "0xFBb1b73C4f0BDa4f67dcA266ce6Ef42f520fBB98",
      "value": {
        "_hex": "0x3296ab34382df420"
      },
      "nonce": 6,
      "data": "0x",
      "r": "0x17eabaa3bf891740645291d11e5b422b90e4e0c7dd21d0e70527e4e40ad351f4",
      "s": "0x28ad59016add1822d901fc6b2041af0ed57bbe5921a6516a04960dd0a143eadf",
      "v": 28,
      "creates": null,
      "raw": "0xf86c06850ce7e3477c82520894fbb1b73c4f0bda4f67dca266ce6ef42f520fbb98883296ab34382df420801ca017eabaa3bf891740645291d11e5b422b90e4e0c7dd21d0e70527e4e40ad351f4a028ad59016add1822d901fc6b2041af0ed57bbe5921a6516a04960dd0a143eadf",
      "networkId": 0,
      "chainId": 0
    }
  ]
}