{
  "hash": "0x167e65a844a1fb3f0df25ca70bfcadd631e7e314110d3c881776a6ad6bce79f6",
  "parentHash": "0xa41a3a2aee40e509f3017384fcf801a89329012d4ac4351a3835472ea7741a48",
  "number": 90570,
  "timestamp": 1439642140,
  "nonce": "0x4291392008c688cc",
  "difficulty": 3328528609423,
  "gasLimit": {
    "_hex": "0x2fefd8"
  },
  "gasUsed": {
    "_hex": "0x546c"
  },
  "miner": "0x77EC9ad4A7E9418774C29415CAaF4Ee0da96eF64",
  "extraData": "0x",
  "transactions": [
    {
      "hash": "0x7e3676b8845824f9d7d1e680f9c8f35c352674b21da14b1672ddac95229071ff",
      "blockHash": "0x167e65a844a1fb3f0df25ca70bfcadd631e7e314110d3c881776a6ad6bce79f6",
      "blockNumber": 90570,
      "transactionIndex": 0,
      "confirmations": null,
      "from": "0x59268171b833E0Aa13c54B52CCC0422E4FA03aEB",
      "gasPrice": {
        "_hex": "0x110c8f7d8de"
      },
      "gasLimit": {
        "_hex": "0xc350"
      },
      "to": "0x2910543Af39abA0Cd09dBb2D50200b3E800A63D2",
      "value": {
        "_hex": "0x6c6b935b8bbd400000"
      },
      "nonce": 0,
      "data": "0x454e3951334b583238",
      "r": "0x54158042da1bb02582da1976252fb263a5421e3e61560189b97dd70e686dd40b",
      "s": "0xd26c70aec3bcf6b3ec68e8d87be7f9597f4a16bfc4b56a808c13d181253491e0",
      "v": 28,
      "creates": null,
      "raw": "0xf87780860110c8f7d8de82c350942910543af39aba0cd09dbb2d50200b3e800a63d2896c6b935b8bbd40000089454e3951334b5832381ca054158042da1bb02582da1976252fb263a5421e3e61560189b97dd70e686dd40ba0d26c70aec3bcf6b3ec68e8d87be7f9597f4a16bfc4b56a808c13d181253491e0",
      "networkId": 0,
      "chainId": 0
    }
  ]
}