{
  "hash": "0x99715fac59f84648e500419d1a031ec5ff680b6a6dc00be7ead288cb608ad448",
  "parentHash": "0xc65c5865e76eda8fb1230d7cb775f303d24294c91eb03a0e678d5ea03bbee1d5",
  "number": 78744,
  "timestamp": 1439458547,
  "nonce": "0x16d61e9560ad7f3c",
  "difficulty": 2308856978325,
  "gasLimit": {
    "_hex": "0x2fefd8"
  },
  "gasUsed": {
    "_hex": "0x546c"
  },
  "miner": "0x02dE7d35a60bf6A216411476040ec648668769D7",
  "extraData": "0x476574682f76312e302e312f77696e646f77732f676f312e342e32",
  "transactions": [
    {
      "hash": "0x568f1ab02e21bf394386d20d7f2318fca5335f811a24bdfe87a9452f6512dc11",
      "blockHash": "0x99715fac59f84648e500419d1a031ec5ff680b6a6dc00be7ead288cb608ad448",
      "blockNumber": 78744,
      "transactionIndex": 0,
      "confirmations": null,
      "from": "0xBf6925c00751008440A6739A02Bf2b6CDaAb5e3A",
      "gasPrice": {
        "_hex": "0x110c8f7d8de"
      },
      "gasLimit": {
        "_hex": "0xc350"
      },
      "to": "0x2910543Af39abA0Cd09dBb2D50200b3E800A63D2",
      "value": {
        "_hex": "0x1b1ae4d6e2ef500000"
      },
      "nonce": 0,
      "data": "0x454e46565247373552",
      "r": "0x5025d3e8ff468a7956a6a22529e4f4f5eacb10952cbd15d1cebbcd1db4aacf42",
      "s": "0x73414e0067f05ff8326515c7f25feb83d2bf224f44b5758a37dde81b10abf2e2",
      "v": 27,
      "creates": null,
      "raw": "0xf87780860110c8f7d8de82c350942910543af39aba0cd09dbb2d50200b3e800a63d2891b1ae4d6e2ef50000089454e465652473735521ba05025d3e8ff468a7956a6a22529e4f4f5eacb10952cbd15d1cebbcd1db4aacf42a073414e0067f05ff8326515c7f25feb83d2bf224f44b5758a37dde81b10abf2e2",
      "networkId": 0,
      "chainId": 0
    }
  ]
}