{
  "hash": "0x5599ccefb0bd3e3a59abf4feb5cdc4e9112e7c6654177e51bb36d5a6c8aa8700",
  "parentHash": "0x3a8797cf80abc527d3e8369e6576de993a4c6689a2aad61d45d8ae64d6ce4394",
  "number": 86935,
  "timestamp": 1439584816,
  "nonce": "0xd155dfe0ad48193b",
  "difficulty": 2983509771589,
  "gasLimit": {
    "_hex": "0x2fefd8"
  },
  "gasUsed": {
    "_hex": "0xa410"
  },
  "miner": "0xbb7B8287f3F0a933474a79eAe42CBCa977791171",
  "extraData": "0x476574682f4c5649562f76312e302e312f6c696e75782f676f312e342e32",
  "transactions": [
    {
      "hash": "0xb22735c535037a6342f0fa3a60a5bf0e13bbffec0dc67bc808d129367f825787",
      "blockHash": "0x5599ccefb0bd3e3a59abf4feb5cdc4e9112e7c6654177e51bb36d5a6c8aa8700",
      "blockNumber": 86935,
      "transactionIndex": 0,
      "confirmations": null,
      "from": "0xC47Aaa860008be6f65B58c6C6E02a84e666EfE31",
      "gasPrice": {
        "_hex": "0xd18ed7cfd"
      },
      "gasLimit": {
        "_hex": "0x15f90"
      },
      "to": "0xA56697139eB8704667673Af60c361AF8C32694E3",
      "value": {
        "_hex": "0xafba03d15a15d5725"
      },
      "nonce": 19,
      "data": "0x",
      "r": "0x022b4de51b45b1b3e58cab2b8bf5773a6489dc043eec0d45c2996c1b8b4db342",
      "s": "0x6afc55cec72a3e246dd76fa76abd235294fbeeedef9a2e69a7aa574bd8373aa3",
      "v": 27,
      "creates": null,
      "raw": "0xf86e13850d18ed7cfd83015f9094a56697139eb8704667673af60c361af8c32694e3890afba03d15a15d5725801ba0022b4de51b45b1b3e58cab2b8bf5773a6489dc043eec0d45c2996c1b8b4db342a06afc55cec72a3e246dd76fa76abd235294fbeeedef9a2e69a7aa574bd8373aa3",
      "networkId": 0,
      "chainId": 0
    },
    {
      "hash": "0x0562a858c9aca4b807e49529f3e7bd5fba45ce0b960bb5ad4550a3a1fe818355",
      "blockHash": "0x5599ccefb0bd3e3a59abf4feb5cdc4e9112e7c6654177e51bb36d5a6c8aa8700",
      "blockNumber": 86935,
      "transactionIndex": 1,
      "confirmations": null,
      "from": "0x19D182e96Fd7EeAE2cd0c0280cF63a7E01B6184a",
      "gasPrice": {
        "_hex": "0xba43b7400"
      },
      "gasLimit": {
        "_hex": "0x5208"
      },
      "to": "0xC47Aaa860008be6f65B58c6C6E02a84e666EfE31",
      "value": {
        "_hex": "0x13c038dc0c56000"
      },
      "nonce": 1,
      "data": "0x",
      "r": "0x68d97ecae14690f7dff95a6dae66da0df9d1fd172cf874f2b365cecec08879fc",
      "s": "0x49fc8ebebf892d4266f5bb0d2354c60e471a879713667976e253f30918d47931",
      "v": 28,
      "creates": null,
      "raw": "0xf86c01850ba43b740082520894c47aaa860008be6f65b58c6c6e02a84e666efe3188013c038dc0c56000801ca068d97ecae14690f7dff95a6dae66da0df9d1fd172cf874f2b365cecec08879fca049fc8ebebf892d4266f5bb0d2354c60e471a879713667976e253f30918d47931",
      "networkId": 0,
      "chainId": 0
    }
  ]
}