{
  "hash": "0x3e39db3c17a7c05e7f27a67d5f2796d5413b2da15d5cc1efc425e689e10a53c1",
  "parentHash": "0xfb049106a310d09e54cd10097ffe40412c1a582cef54e7389de08919cc986b62",
  "number": 69280,
  "timestamp": 1439301155,
  "nonce": "0x0ad7f45683c5ebfc",
  "difficulty": 2065920909433,
  "gasLimit": {
    "_hex": "0x2fefd5"
  },
  "gasUsed": {
    "_hex": "0x4ce78"
  },
  "miner": "0x0eDEd3DA479d0beF8eeC92A76644D3f4E3C177f7",
  "extraData": "0x476574682f76312e302e312f6c696e75782f676f312e342e32",
  "transactions": [
    {
      "hash": "0x92d5625788d649b2dae8e56f1b83cfc7f2e1c30df2097884eeaf35863bb30c36",
      "blockHash": "0x3e39db3c17a7c05e7f27a67d5f2796d5413b2da15d5cc1efc425e689e10a53c1",
      "blockNumber": 69280,
      "transactionIndex": 0,
      "confirmations": null,
      "from": "0xD042e5C2443591c48f1FBa5F6bAf8E7193f454B9",
      "gasPrice": {
        "_hex": "0xdf3afe4ce"
      },
      "gasLimit": {
        "_hex": "0x5208"
      },
      "to": "0x32Be343B94f860124dC4fEe278FDCBD38C102D88",
      "value": {
        "_hex": "0x2adde7aac022f000"
      },
      "nonce": 1,
      "data": "0x",
      "r": "0x44d92811b0c99844c4958cb1ae9068c9720ba7d77ed8738e68044f8f8e86ebcd",
      "s": "0x249ea514b5b6df501091f7de10d63f5475d8b7e6f47776bbe44764a0cd8996fa",
      "v": 28,
      "creates": null,
      "raw": "0xf86c01850df3afe4ce8252089432be343b94f860124dc4fee278fdcbd38c102d88882adde7aac022f000801ca044d92811b0c99844c4958cb1ae9068c9720ba7d77ed8738e68044f8f8e86ebcda0249ea514b5b6df501091f7de10d63f5475d8b7e6f47776bbe44764a0cd8996fa",
      "networkId": 0,
      "chainId": 0
    },
    {
      "hash": "0x8f89aa371a0e49ace3a675cad09e69eb8d936e88551cee72a3b857d2da10288e",
      "blockHash": "0x3e39db3c17a7c05e7f27a67d5f2796d5413b2da15d5cc1efc425e689e10a53c1",
      "blockNumber": 69280,
      "transactionIndex": 1,
      "confirmations": null,
      "from": "0xAD8c7FBFaBC46C35aDb03F7b3A67e731E5793899",
      "gasPrice": {
        "_hex": "0xdf3afe4ce"
      },
      "gasLimit": {
        "_hex": "0x5208"
      },
      "to": "0x32Be343B94f860124dC4fEe278FDCBD38C102D88",
      "value": {
        "_hex": "0x33910c0fe72e8c00"
      },
      "nonce": 2,
      "data": "0x",
      "r": "0xc073a87ddbd8f183fad5a2a5d00fc5dfa4ccf6c951cc8b48edffa9c159d0ee2e",
      "s": "0x4b9e51ca5a2db6106debd0084c6e0a4f803874801917c7a117f05daa9c0481b0",
      "v": 28,
      "creates": null,
      "raw": "0xf86c02850df3afe4ce8252089432be343b94f860124dc4fee278fdcbd38c102d888833910c0fe72e8c00801ca0c073a87ddbd8f183fad5a2a5d00fc5dfa4ccf6c951cc8b48edffa9c159d0ee2ea04b9e51ca5a2db6106debd0084c6e0a4f803874801917c7a117f05daa9c0481b0",
      "networkId": 0,
      "chainId": 0
    },
    {
      "hash": "0x6d0b574f3006a2a1a2636449fd6f0bfc1cc02e22df147d04748b8c81dfe4e46f",
      "blockHash": "0x3e39db3c17a7c05e7f27a67d5f2796d5413b2da15d5cc1efc425e689e10a53c1",
      "blockNumber": 69280,
      "transactionIndex": 2,
      "confirmations": null,
      "from": "0xe72717ae0d6792286968449ABA7d469BCAE1d957",
      "gasPrice": {
        "_hex": "0xdf3afe4ce"
      },
      "gasLimit": {
        "_hex": "0x5208"
      },
      "to": "0x32Be343B94f860124dC4fEe278FDCBD38C102D88",
      "value": {
        "_hex": "0x4aa206fd4bae4c00"
      },
      "nonce": 2,
      "data": "0x",
      "r": "0x1a66a9f625c73630c99bbbbdbd13ecd4c773fc59c1a96493bd1c48d77e772d51",
      "s": "0x0725cef105645fef0cedc821e6b8f0123bd9364b51b5de0be2d44978a643c645",
      "v": 27,
      "creates": null,
      "raw": "0xf86c02850df3afe4ce8252089432be343b94f860124dc4fee278fdcbd38c102d88884aa206fd4bae4c00801ba01a66a9f625c73630c99bbbbdbd13ecd4c773fc59c1a96493bd1c48d77e772d51a00725cef105645fef0cedc821e6b8f0123bd9364b51b5de0be2d44978a643c645",
      "networkId": 0,
      "chainId": 0
    },
    {
      "hash": "0x7fb6465f434b5d4d936dd54224ec49fb5247dd9b75f0d22a321f668024315814",
      "blockHash": "0x3e39db3c17a7c05e7f27a67d5f2796d5413b2da15d5cc1efc425e689e10a53c1",
      "blockNumber": 69280,
      "transactionIndex": 3,
      "confirmations": null,
      "from": "0x1333a55102f1f4B3df95298b6CE863eF8d5BAf45",
      "gasPrice": {
        "_hex": "0xdf3afe4ce"
      },
      "gasLimit": {
        "_hex": "0x5208"
      },
      "to": "0x32Be343B94f860124dC4fEe278FDCBD38C102D88",
      "value": {
        "_hex": "0x1c2190a3affb8800"
      },
      "nonce": 3,
      "data": "0x",
      "r": "0xbbedb4f3e92b714c9b1ce054b67449e666fb9acf346616a8b9d9a8766ba8745a",
      "s": "0x4a399bff7fe9b7e116fce7d6ad3b0e9f7ba3a588d10866d8dc92eca81d6eb21f",
      "v": 28,
      "creates": null,
      "raw": "0xf86c03850df3afe4ce8252089432be343b94f860124dc4fee278fdcbd38c102d88881c2190a3affb8800801ca0bbedb4f3e92b714c9b1ce054b67449e666fb9acf346616a8b9d9a8766ba8745aa04a399bff7fe9b7e116fce7d6ad3b0e9f7ba3a588d10866d8dc92eca81d6eb21f",
      "networkId": 0,
      "chainId": 0
    },
    {
      "hash": "0x3e12a9b0b91fc6798a6873455b7811414e09279323d304abfa8a9ac82b303cd4",
      "blockHash": "0x3e39db3c17a7c05e7f27a67d5f2796d5413b2da15d5cc1efc425e689e10a53c1",
      "blockNumber": 69280,
      "transactionIndex": 4,
      "confirmations": null,
      "from": "0x1c69e6202df7794272b70FaEa8f7408c856B1f08",
      "gasPrice": {
        "_hex": "0xdd32625e4"
      },
      "gasLimit": {
        "_hex": "0x5208"
      },
      "to": "0x32Be343B94f860124dC4fEe278FDCBD38C102D88",
      "value": {
        "_hex": "0x4220b1e8fd688800"
      },
      "nonce": 1,
      "data": "0x",
      "r": "0x92a0786af2a46771fd5491b11a5d6147b8817ac0840194bc0472e6f322845611",
      "s": "0x4234568ec890779511b5a0f3b691a58e14fe99d5c63fdd563d2c5c42cf528ddb",
      "v": 28,
      "creates": null,
      "raw": "0xf86c01850dd32625e48252089432be343b94f860124dc4fee278fdcbd38c102d88884220b1e8fd688800801ca092a0786af2a46771fd5491b11a5d6147b8817ac0840194bc0472e6f322845611a04234568ec890779511b5a0f3b691a58e14fe99d5c63fdd563d2c5c42cf528ddb",
      "networkId": 0,
      "chainId": 0
    },
    {
      "hash": "0x73f7a504fecddebd7f2a532171dbd8e5f1493b0370f39591c1f5be16b82a0e0a",
      "blockHash": "0x3e39db3c17a7c05e7f27a67d5f2796d5413b2da15d5cc1efc425e689e10a53c1",
      "blockNumber": 69280,
      "transactionIndex": 5,
      "confirmations": null,
      "from": "0x28EE9f11DB43ea073BccB423AF9bbb6fb77fFC09",
      "gasPrice": {
        "_hex": "0xdd32625e4"
      },
      "gasLimit": {
        "_hex": "0x5208"
      },
      "to": "0x32Be343B94f860124dC4fEe278FDCBD38C102D88",
      "value": {
        "_hex": "0x19cc1cabb511cc00"
      },
      "nonce": 3,
      "data": "0x",
      "r": "0x4081aa043e9a8aa120b37517e6afe7348e3f17e7c38caccdd07bc9e4b880e8f9",
      "s": "0x44fd3d26baca4d457ce01b6289b6a226b2a2f0a718277d745ae9c8dc37fb27a5",
      "v": 27,
      "creates": null,
      "raw": "0xf86c03850dd32625e48252089432be343b94f860124dc4fee278fdcbd38c102d888819cc1cabb511cc00801ba04081aa043e9a8aa120b37517e6afe7348e3f17e7c38caccdd07bc9e4b880e8f9a044fd3d26baca4d457ce01b6289b6a226b2a2f0a718277d745ae9c8dc37fb27a5",
      "networkId": 0,
      "chainId": 0
    },
    {
      "hash": "0x3190309cc44a7e56c5a9eaaa75fb4fecfbba3ac55d569bab9ec33e54983fa216",
      "blockHash": "0x3e39db3c17a7c05e7f27a67d5f2796d5413b2da15d5cc1efc425e689e10a53c1",
      "blockNumber": 69280,
      "transactionIndex": 6,
      "confirmations": null,
      "from": "0xbb30e448B72d6Fdd44973A4C7a312F92f22C8F07",
      "gasPrice": {
        "_hex": "0xdd32625e4"
      },
      "gasLimit": {
        "_hex": "0x5208"
      },
      "to": "0x32Be343B94f860124dC4fEe278FDCBD38C102D88",
      "value": {
        "_hex": "0x3f86d2bce49f0800"
      },
      "nonce": 5,
      "data": "0x",
      "r": "0x96644ad98804d086ba76e466e2b3c49e7a9db93e256320f657bbcb2b624409d1",
      "s": "0x0f2316aef70b2928fa202dd9c47ece60d187c37a965fa0fece218a59ccf05826",
      "v": 28,
      "creates": null,
      "raw": "0xf86c05850dd32625e48252089432be343b94f860124dc4fee278fdcbd38c102d88883f86d2bce49f0800801ca096644ad98804d086ba76e466e2b3c49e7a9db93e256320f657bbcb2b624409d1a00f2316aef70b2928fa202dd9c47ece60d187c37a965fa0fece218a59ccf05826",
      "networkId": 0,
      "chainId": 0
    },
    {
      "hash": "0xd4980d09adcfbd75cab7222188725503845ddd18992f19053ccbfb992dc30cff",
      "blockHash": "0x3e39db3c17a7c05e7f27a67d5f2796d5413b2da15d5cc1efc425e689e10a53c1",
      "blockNumber": 69280,
      "transactionIndex": 7,
      "confirmations": null,
      "from": "0x556ca325C21e450b2aFf86D9c8eF0Fa371971c97",
      "gasPrice": {
        "_hex": "0xdd32625e4"
      },
      "gasLimit": {
        "_hex": "0x5208"
      },
      "to": "0x32Be343B94f860124dC4fEe278FDCBD38C102D88",
      "value": {
        "_hex": "0x23371c020242ac00"
      },
      "nonce": 6,
      "data": "0x",
      "r": "0x9165864126284af3ab8c30b192a5bf1769a4da550c73b681b4e173baae557c4c",
      "s": "0x68cc7c402c046ed5de4e7fea0a73f4d7ca3e0637bb5f178b0cafb281fd87cbe7",
      "v": 27,
      "creates": null,
      "raw": "0xf86c06850dd32625e48252089432be343b94f860124dc4fee278fdcbd38c102d888823371c020242ac00801ba09165864126284af3ab8c30b192a5bf1769a4da550c73b681b4e173baae557c4ca068cc7c402c046ed5de4e7fea0a73f4d7ca3e0637bb5f178b0cafb281fd87cbe7",
      "networkId": 0,
      "chainId": 0
    },
    {
      "hash": "0xf4f5a3306c6f14ceb072790b9bc56391c45078c4104fbd43772e639966114229",
      "blockHash": "0x3e39db3c17a7c05e7f27a67d5f2796d5413b2da15d5cc1efc425e689e10a53c1",
      "blockNumber": 69280,
      "transactionIndex": 8,
      "confirmations": null,
      "from": "0xD9a9A8ec148D2B0F7Cd8B2700013A9AA5cf89910",
      "gasPrice": {
        "_hex": "0xdd32625e4"
      },
      "gasLimit": {
        "_hex": "0x5208"
      },
      "to": "0x32Be343B94f860124dC4fEe278FDCBD38C102D88",
      "value": {
        "_hex": "0x2b9fefd1f70e2c00"
      },
      "nonce": 0,
      "data": "0x",
      "r": "0xb2b8aed827510b4903d137016a4b26da936df227fc43249bfde5bd8e23ce9065",
      "s": "0x4c4819e48cd37b9dc0dc21e9bafe8a445eded2f6c572b96ccabac821fee6a461",
      "v": 27,
      "creates": null,
      "raw": "0xf86c80850dd32625e48252089432be343b94f860124dc4fee278fdcbd38c102d88882b9fefd1f70e2c00801ba0b2b8aed827510b4903d137016a4b26da936df227fc43249bfde5bd8e23ce9065a04c4819e48cd37b9dc0dc21e9bafe8a445eded2f6c572b96ccabac821fee6a461",
      "networkId": 0,
      "chainId": 0
    },
    {
      "hash": "0x24e2a54ea03c3dde6426f2fc3f042d7833724c272f506f7f988d0936705f9e96",
      "blockHash": "0x3e39db3c17a7c05e7f27a67d5f2796d5413b2da15d5cc1efc425e689e10a53c1",
      "blockNumber": 69280,
      "transactionIndex": 9,
      "confirmations": null,
      "from": "0xe6A7a1d47ff21B6321162AEA7C6CB457D5476Bca",
      "gasPrice": {
        "_hex": "0xdb48b9431"
      },
      "gasLimit": {
        "_hex": "0x55f0"
      },
      "to": "0xd5d9a0033e6B0A3ba7634d0e1a9055ad5f452C3D",
      "value": {
        "_hex": "0xe3a4fda50a57c728"
      },
      "nonce": 661,
      "data": "0x",
      "r": "0x90d4a3e3a4b468bfd05d207c204e5ba72678064251bd834aea53083cf5f77d0f",
      "s": "0x59f9ce6747fe6f4ea99b762feb872256c0189eda5cb9143371a3e6c2582e8614",
      "v": 28,
      "creates": null,
      "raw": "0xf86e820295850db48b94318255f094d5d9a0033e6b0a3ba7634d0e1a9055ad5f452c3d88e3a4fda50a57c728801ca090d4a3e3a4b468bfd05d207c204e5ba72678064251bd834aea53083cf5f77d0fa059f9ce6747fe6f4ea99b762feb872256c0189eda5cb9143371a3e6c2582e8614",
      "networkId": 0,
      "chainId": 0
    },
    {
      "hash": "0x6c10ef3fee08b868aed666d7a1be9feb12ef3a3195eadbbe9f519cda71bb828a",
      "blockHash": "0x3e39db3c17a7c05e7f27a67d5f2796d5413b2da15d5cc1efc425e689e10a53c1",
      "blockNumber": 69280,
      "transactionIndex": 10,
      "confirmations": null,
      "from": "0xe6A7a1d47ff21B6321162AEA7C6CB457D5476Bca",
      "gasPrice": {
        "_hex": "0xdb48b9431"
      },
      "gasLimit": {
        "_hex": "0x55f0"
      },
      "to": "0x271e8fC01E1C9E1621fD3d108e348450b2498541",
      "value": {
        "_hex": "0xf51c4b6d726a76c8"
      },
      "nonce": 662,
      "data": "0x",
      "r": "0xd6508feb8e944c3401ef477695415f84a8549dda54fdfe8466434cdd91ee5f90",
      "s": "0x4bcb5bfedae494192fd606f4c7e7141ffc168e77f0b8bf42b2fecd79896215fd",
      "v": 27,
      "creates": null,
      "raw": "0xf86e820296850db48b94318255f094271e8fc01e1c9e1621fd3d108e348450b249854188f51c4b6d726a76c8801ba0d6508feb8e944c3401ef477695415f84a8549dda54fdfe8466434cdd91ee5f90a04bcb5bfedae494192fd606f4c7e7141ffc168e77f0b8bf42b2fecd79896215fd",
      "networkId": 0,
      "chainId": 0
    },
    {
      "hash": "0xcc45406c4a86aa36f3f21398d98dcc2b3a9ef1dbae85e081b431780485937c9d",
      "blockHash": "0x3e39db3c17a7c05e7f27a67d5f2796d5413b2da15d5cc1efc425e689e10a53c1",
      "blockNumber": 69280,
      "transactionIndex": 11,
      "confirmations": null,
      "from": "0xe6A7a1d47ff21B6321162AEA7C6CB457D5476Bca",
      "gasPrice": {
        "_hex": "0xdb48b9431"
      },
      "gasLimit": {
        "_hex": "0x55f0"
      },
      "to": "0x6A8CC233E14F874983bB2F37D1DE706f6910Ef0b",
      "value": {
        "_hex": "0xfb1f958c2a065768"
      },
      "nonce": 663,
      "data": "0x",
      "r": "0x61767b12f9a996e1856d73a28db807cda42f452e140add97b56f757c0cfb0730",
      "s": "0x40f0d4022387c87125e6282df57ad2d1b0105d6c57d9e956fc767ca9b56505b9",
      "v": 27,
      "creates": null,
      "raw": "0xf86e820297850db48b94318255f0946a8cc233e14f874983bb2f37d1de706f6910ef0b88fb1f958c2a065768801ba061767b12f9a996e1856d73a28db807cda42f452e140add97b56f757c0cfb0730a040f0d4022387c87125e6282df57ad2d1b0105d6c57d9e956fc767ca9b56505b9",
      "networkId": 0,
      "chainId": 0
    },
    {
      "hash": "0x9a882545ed23fa0df5a919e9523d79299893e2d39d179b11a1d196a0a7e8565a",
      "blockHash": "0x3e39db3c17a7c05e7f27a67d5f2796d5413b2da15d5cc1efc425e689e10a53c1",
      "blockNumber": 69280,
      "transactionIndex": 12,
      "confirmations": null,
      "from": "0xe6A7a1d47ff21B6321162AEA7C6CB457D5476Bca",
      "gasPrice": {
        "_hex": "0xdb48b9431"
      },
      "gasLimit": {
        "_hex": "0x55f0"
      },
      "to": "0x837A2A346557050c8cF0fb24b84Aa695E8Add19f",
      "value": {
        "_hex": "0xff474f62620caf20"
      },
      "nonce": 664,
      "data": "0x",
      "r": "0x3572ef643dd49ca4687c9d6f05a8893a455bf680e22d47516ba1ab464315917a",
      "s": "0x62541075b7d8e1164c00b0d56367651f2c71565aa3bb11bd1c394950dbc9ebb7",
      "v": 28,
      "creates": null,
      "raw": "0xf86e820298850db48b94318255f094837a2a346557050c8cf0fb24b84aa695e8add19f88ff474f62620caf20801ca03572ef643dd49ca4687c9d6f05a8893a455bf680e22d47516ba1ab464315917aa062541075b7d8e1164c00b0d56367651f2c71565aa3bb11bd1c394950dbc9ebb7",
      "networkId": 0,
      "chainId": 0
    },
    {
      "hash": "0x808516691784bb4ec3ae1a4527de14aaf2315437a08720932f241b981819601c",
      "blockHash": "0x3e39db3c17a7c05e7f27a67d5f2796d5413b2da15d5cc1efc425e689e10a53c1",
      "blockNumber": 69280,
      "transactionIndex": 13,
      "confirmations": null,
      "from": "0xe6A7a1d47ff21B6321162AEA7C6CB457D5476Bca",
      "gasPrice": {
        "_hex": "0xdb48b9431"
      },
      "gasLimit": {
        "_hex": "0x55f0"
      },
      "to": "0x65B2003cE03eDcF961C6b724862D6a7f942B8971",
      "value": {
        "_hex": "0xff7e90150b901030"
      },
      "nonce": 665,
      "data": "0x",
      "r": "0x8c9beb3653b5b13989334bd88a59190ffff0686bdd366df6c0e4bc76d3380534",
      "s": "0x5f0b1c9586fd3ebec684ffc8eacecf463089fe4c5bf7503faca8e0cfeba7e251",
      "v": 27,
      "creates": null,
      "raw": "0xf86e820299850db48b94318255f09465b2003ce03edcf961c6b724862d6a7f942b897188ff7e90150b901030801ba08c9beb3653b5b13989334bd88a59190ffff0686bdd366df6c0e4bc76d3380534a05f0b1c9586fd3ebec684ffc8eacecf463089fe4c5bf7503faca8e0cfeba7e251",
      "networkId": 0,
      "chainId": 0
    },
    {
      "hash": "0x7cc78779b8b127592c628f368e5ad6e5e902e4326225df7dcb949e51b2c07955",
      "blockHash": "0x3e39db3c17a7c05e7f27a67d5f2796d5413b2da15d5cc1efc425e689e10a53c1",
      "blockNumber": 69280,
      "transactionIndex": 14,
      "confirmations": null,
      "from": "0xe6A7a1d47ff21B6321162AEA7C6CB457D5476Bca",
      "gasPrice": {
        "_hex": "0xdb48b9431"
      },
      "gasLimit": {
        "_hex": "0x55f0"
      },
      "to": "0x2D1d94521E896625F8Ec3f65171Fa82262Da6BCF",
      "value": {
        "_hex": "0x136f4c15c0821b130"
      },
      "nonce": 666,
      "data": "0x",
      "r": "0xfbf80ad154f704be16cf00fc84aba4d6272470baea6aefe018c33f037f11dabc",
      "s": "0x6d048c9187b87bd4e1282e03902c6404313c693540cc7a4b5b314c25d903cdd0",
      "v": 28,
      "creates": null,
      "raw": "0xf86f82029a850db48b94318255f0942d1d94521e896625f8ec3f65171fa82262da6bcf890136f4c15c0821b130801ca0fbf80ad154f704be16cf00fc84aba4d6272470baea6aefe018c33f037f11dabca06d048c9187b87bd4e1282e03902c6404313c693540cc7a4b5b314c25d903cdd0",
      "networkId": 0,
      "chainId": 0
    }
  ]
}