{
  "hash": "0x047c6d238315b3eec0e7ce6f6d2b6feb5bd6dfc728488b68f3b7a689def25211",
  "parentHash": "0xfeb2148e6ea80b2972b93d4c4488ece9908d15ff7fdbde33ebe2ee5341bb6ed4",
  "number": 92607,
  "timestamp": 1439674543,
  "nonce": "0xd570065181c14ed8",
  "difficulty": 3550998847298,
  "gasLimit": {
    "_hex": "0x2fefd5"
  },
  "gasUsed": {
    "_hex": "0xa410"
  },
  "miner": "0xa70a9a7040d542C632D8e0bE7c5513A8a5Bbc752",
  "extraData": "0x",
  "transactions": [
    {
      "hash": "0x5402c5e3a577c76336f833cbc1840fcf3b2e2cb1128eb2435af9b78e5f426c15",
      "blockHash": "0x047c6d238315b3eec0e7ce6f6d2b6feb5bd6dfc728488b68f3b7a689def25211",
      "blockNumber": 92607,
      "transactionIndex": 0,
      "confirmations": null,
      "from": "0xa6BDc31c431B8F97848c9D60cbbe9660dc450eB7",
      "gasPrice": {
        "_hex": "0xdb0cbf22e"
      },
      "gasLimit": {
        "_hex": "0x5208"
      },
      "to": "0x32Be343B94f860124dC4fEe278FDCBD38C102D88",
      "value": {
        "_hex": "0x455f2e72557dd800"
      },
      "nonce": 100,
      "data": "0x",
      "r": "0x9ead130b87e26080efa9982496cddbf898db89e189f4b309aab341664be0a5a9",
      "s": "0x08d5ffd7dac4ef3c3e16d10d69d73adedf2245209634fb2c15e6a947eb6e9dd7",
      "v": 28,
      "creates": null,
      "raw": "0xf86c64850db0cbf22e8252089432be343b94f860124dc4fee278fdcbd38c102d8888455f2e72557dd800801ca09ead130b87e26080efa9982496cddbf898db89e189f4b309aab341664be0a5a9a008d5ffd7dac4ef3c3e16d10d69d73adedf2245209634fb2c15e6a947eb6e9dd7",
      "networkId": 0,
      "chainId": 0
    },
    {
      "hash": "0x2936b6f7e10962e63163b04b4341943f7e546fb53fccd07adbbf05347ce8b388",
      "blockHash": "0x047c6d238315b3eec0e7ce6f6d2b6feb5bd6dfc728488b68f3b7a689def25211",
      "blockNumber": 92607,
      "transactionIndex": 1,
      "confirmations": null,
      "from": "0x007f7f58D3eb5b7510A301eCC749FC1fCDDBE14D",
      "gasPrice": {
        "_hex": "0xd809a5b95"
      },
      "gasLimit": {
        "_hex": "0x15f90"
      },
      "to": "0xb1abce2918E21ddb93AA452731a12672A3d9F75a",
      "value": {
        "_hex": "0x8ffb6787e8ad80000"
      },
      "nonce": 8,
      "data": "0x",
      "r": "0xd71625e8539093b5465ff0904e4d58922052e62a22142817aad65b6fdc7d005c",
      "s": "0x18df6bfb5a1c1ff6ee0850acde0c4c6fa4e3ce79192b7b1e01908d794deb32c1",
      "v": 27,
      "creates": null,
      "raw": "0xf86e08850d809a5b9583015f9094b1abce2918e21ddb93aa452731a12672a3d9f75a8908ffb6787e8ad80000801ba0d71625e8539093b5465ff0904e4d58922052e62a22142817aad65b6fdc7d005ca018df6bfb5a1c1ff6ee0850acde0c4c6fa4e3ce79192b7b1e01908d794deb32c1",
      "networkId": 0,
      "chainId": 0
    }
  ]
}