{
  "hash": "0xda885aa6f1c56334e362bd1c5662316632c2f69d590a45d4a2d816ca7ed3eab1",
  "parentHash": "0xa7dacda27f3b2f2d4d6b465611343ad3d56791c8d53904c76540abc34e134b0a",
  "number": 101524,
  "timestamp": 1439824247,
  "nonce": "0x4c910be7864cb1d7",
  "difficulty": 3863660945596,
  "gasLimit": {
    "_hex": "0x2fefd8"
  },
  "gasUsed": {
    "_hex": "0x5208"
  },
  "miner": "0x9746c7e1ef2bd21FF3997fa467593a89cb852BD0",
  "extraData": "0x476574682f76312e302e312f77696e646f77732f676f312e342e32",
  "transactions": [
    {
      "hash": "0x1e4f60c24fd2e5f34996bd13a2a4d5d0c956e894c1e162f88d9a03ed5e268365",
      "blockHash": "0xda885aa6f1c56334e362bd1c5662316632c2f69d590a45d4a2d816ca7ed3eab1",
      "blockNumber": 101524,
      "transactionIndex": 0,
      "confirmations": null,
      "from": "0xb62A0BF317fceb39ed916f0F9E60e623Ad309127",
      "gasPrice": {
        "_hex": "0xd5dc19a4a"
      },
      "gasLimit": {
        "_hex": "0x15f90"
      },
      "to": "0x6107CF14d0229Ca0D8F3256D50D8114e5Dae6E1d",
      "value": {
        "_hex": "0x8ac7230489e80000"
      },
      "nonce": 13,
      "data": "0x",
      "r": "0x5380d14486e8cbceace72583526f88ede73e1dec543f69aa5f67ca082ea7c014",
      "s": "0x7164a2a109e68844f756073cbdfd5d9e1f5cc2e7ea5bc93bfef05eacb9b564ad",
      "v": 28,
      "creates": null,
      "raw": "0xf86d0d850d5dc19a4a83015f90946107cf14d0229ca0d8f3256d50d8114e5dae6e1d888ac7230489e80000801ca05380d14486e8cbceace72583526f88ede73e1dec543f69aa5f67ca082ea7c014a07164a2a109e68844f756073cbdfd5d9e1f5cc2e7ea5bc93bfef05eacb9b564ad",
      "networkId": 0,
      "chainId": 0
    }
  ]
}