{
  "hash": "0x283742dbbb5e122a289f620008b19b9cf253e120be8c39d40a37d6b46b118240",
  "parentHash": "0x5f8a62203b62452e3f45e464a3ab0e0263892ed09a57e9a5527a5df93435662a",
  "number": 83722,
  "timestamp": 1439539845,
  "nonce": "0xf52e09341e4b8276",
  "difficulty": 2437192270444,
  "gasLimit": {
    "_hex": "0x2fefd8"
  },
  "gasUsed": {
    "_hex": "0x5208"
  },
  "miner": "0xC603Ab5ef41fC61AA8b76bEddb09e3Cfcbb174BD",
  "extraData": "0x476574682f76312e302e312f77696e646f77732f676f312e342e32",
  "transactions": [
    {
      "hash": "0x700fb8110def22f57323807e14546896907ba10afcea0d4117b0970fd2ec4545",
      "blockHash": "0x283742dbbb5e122a289f620008b19b9cf253e120be8c39d40a37d6b46b118240",
      "blockNumber": 83722,
      "transactionIndex": 0,
      "confirmations": null,
      "from": "0xDDABf13c3C8EA4e3d73d78Ec717aFafA430e5479",
      "gasPrice": {
        "_hex": "0xcb1a6ff0b"
      },
      "gasLimit": {
        "_hex": "0x5208"
      },
      "to": "0xDA3399B554b6Ab5Da37Dc30F7211076390B672AB",
      "value": {
        "_hex": "0x56bc75e2d63100000"
      },
      "nonce": 0,
      "data": "0x",
      "r": "0xef082a83aa782144bb63b894ed3782f86f049bae65a9b4514193d2115ec5e0c2",
      "s": "0x044df42f3d3d3b98f295eb976ed753cf893f9601121d080d53da6bda5e3a8d5e",
      "v": 28,
      "creates": null,
      "raw": "0xf86d80850cb1a6ff0b82520894da3399b554b6ab5da37dc30f7211076390b672ab89056bc75e2d63100000801ca0ef082a83aa782144bb63b894ed3782f86f049bae65a9b4514193d2115ec5e0c2a0044df42f3d3d3b98f295eb976ed753cf893f9601121d080d53da6bda5e3a8d5e",
      "networkId": 0,
      "chainId": 0
    }
  ]
}