{
  "hash": "0xa1a95cb16b27785511f31dcd8edd06d8714b764086d6c8b334958cb48edc31f5",
  "parentHash": "0xb5db43d292b61e56aa566aa7463f9849600b6ab04bb473dce24c2c85f9073ccc",
  "number": 80219,
  "timestamp": 1439482036,
  "nonce": "0x7daffc181ac2de3b",
  "difficulty": 2375921470435,
  "gasLimit": {
    "_hex": "0x2fefd8"
  },
  "gasUsed": {
    "_hex": "0xca4d"
  },
  "miner": "0xa50ec0D39fa913E62f1Bae7074E6F36caA71855b",
  "extraData": "0xd783010001844765746887676f312e342e32856c696e7578",
  "transactions": [
    {
      "hash": "0xa52cf28c17e6d4de712b7514c01ef31e4a7a853fad635c7a9d9555c94f69df52",
      "blockHash": "0xa1a95cb16b27785511f31dcd8edd06d8714b764086d6c8b334958cb48edc31f5",
      "blockNumber": 80219,
      "transactionIndex": 0,
      "confirmations": null,
      "from": "0x87C5B5874A18B4306DF8a752a6C8cc3E82daFc19",
      "gasPrice": {
        "_hex": "0x106e7dca692"
      },
      "gasLimit": {
        "_hex": "0x493e0"
      },
      "to": "0xC4c51de1AbF5D60DBd329eC0F999Fd8f021ae9fC",
      "value": {
        "_hex": "0x3a108059a6c6729c"
      },
      "nonce": 142,
      "data": "0x8d216186000000000000000000000000000000000000000000000000000000000000001ad3d96ceed0cfca4794c2a5a3d3aeefe69da0a2a669e66a5651f30b64831c3db0",
      "r": "0x7c0f390abd79fa4929dcb56238acb67189d2483cba7a5369a0f0fe857ffbaeee",
      "s": "0x1a89b2d6746f97a8863de16f24637d47fa3ecb4de1f1efc414faad64fe4fc90d",
      "v": 27,
      "creates": null,
      "raw": "0xf8b4818e860106e7dca692830493e094c4c51de1abf5d60dbd329ec0f999fd8f021ae9fc883a108059a6c6729cb8448d216186000000000000000000000000000000000000000000000000000000000000001ad3d96ceed0cfca4794c2a5a3d3aeefe69da0a2a669e66a5651f30b64831c3db01ba07c0f390abd79fa4929dcb56238acb67189d2483cba7a5369a0f0fe857ffbaeeea01a89b2d6746f97a8863de16f24637d47fa3ecb4de1f1efc414faad64fe4fc90d",
      "networkId": 0,
      "chainId": 0
    }
  ]
}