{
  "hash": "0x160420da146fecc593f8360bc22c8fc1471ee68fa18ad3abdc9cac8c24a62e28",
  "parentHash": "0x5d8cad8815c8c876302ce68feb2dcee156d682e3e61aec78c77bf5d9619facf7",
  "number": 86814,
  "timestamp": 1439583218,
  "nonce": "0x735f2190954051fa",
  "difficulty": 2953116048351,
  "gasLimit": {
    "_hex": "0x2fefd8"
  },
  "gasUsed": {
    "_hex": "0x1b497"
  },
  "miner": "0x77EC9ad4A7E9418774C29415CAaF4Ee0da96eF64",
  "extraData": "0x",
  "transactions": [
    {
      "hash": "0xb9acb25455f585ef4d9f617a01a7fe05b33bce23966a6278271bfbfee29f8ba1",
      "blockHash": "0x160420da146fecc593f8360bc22c8fc1471ee68fa18ad3abdc9cac8c24a62e28",
      "blockNumber": 86814,
      "transactionIndex": 0,
      "confirmations": null,
      "from": "0x1a79c7f4039C67A39d7513884cDC0E2C34222490",
      "gasPrice": {
        "_hex": "0xd3dec1e1a"
      },
      "gasLimit": {
        "_hex": "0x493e0"
      },
      "to": "0xD79B4C6791784184e2755B2fC1659eaaB0f80456",
      "value": {
        "_hex": "0xde0b6b3a7640000"
      },
      "nonce": 13,
      "data": "0x8d2161860000000000000000000000000000000000000000000000000000000000000080c5d02d56017753dd50442edee487707ab4802fa244855f96139857cb08a929b5",
      "r": "0x76f2d5706b47aa37c35a99c8c073d5c30273cd5185575a05da305c722f749aa3",
      "s": "0x5b78fd5750d0a704a6be644c7635785b9db87834c234617d9f9635dcb763469a",
      "v": 27,
      "creates": null,
      "raw": "0xf8b20d850d3dec1e1a830493e094d79b4c6791784184e2755b2fc1659eaab0f80456880de0b6b3a7640000b8448d2161860000000000000000000000000000000000000000000000000000000000000080c5d02d56017753dd50442edee487707ab4802fa244855f96139857cb08a929b51ba076f2d5706b47aa37c35a99c8c073d5c30273cd5185575a05da305c722f749aa3a05b78fd5750d0a704a6be644c7635785b9db87834c234617d9f9635dcb763469a",
      "networkId": 0,
      "chainId": 0
    }
  ]
}