{
  "hash": "0x4b6c49229fdb4d976ae11236f9b9d88fb5e33fed05b05bfd6714f1f4d86ad3e5",
  "parentHash": "0xd6c09be82c3b2bef4992861f8be33872fce0653baf49fb131a75aa1cf665b356",
  "number": 102069,
  "timestamp": 1439832392,
  "nonce": "0x08ebca0c240e8d8a",
  "difficulty": 3903228782200,
  "gasLimit": {
    "_hex": "0x2fefd8"
  },
  "gasUsed": {
    "_hex": "0x5208"
  },
  "miner": "0xe6A7a1d47ff21B6321162AEA7C6CB457D5476Bca",
  "extraData": "0x476574682f76312e302e312d38326566323666362f6c696e75782f676f312e34",
  "transactions": [
    {
      "hash": "0xc534667f1d37fe3125d4ec297883c114edc1a195c467b72e9ba658cd8cf7c98a",
      "blockHash": "0x4b6c49229fdb4d976ae11236f9b9d88fb5e33fed05b05bfd6714f1f4d86ad3e5",
      "blockNumber": 102069,
      "transactionIndex": 0,
      "confirmations": null,
      "from": "0xb1abce2918E21ddb93AA452731a12672A3d9F75a",
      "gasPrice": {
        "_hex": "0xda210b8cb"
      },
      "gasLimit": {
        "_hex": "0x5208"
      },
      "to": "0x32Be343B94f860124dC4fEe278FDCBD38C102D88",
      "value": {
        "_hex": "0x8ac2c4af5298f800"
      },
      "nonce": 98,
      "data": "0x",
      "r": "0x0c44d2dc57e6ba9b1d0af8539854e0048c8ad08c025c4f31873dbb568f3007fa",
      "s": "0x4ec7980755091ab24e50a64d5371fdcdbd778f9bc8c38e6a8e7b8dd74bc227f1",
      "v": 27,
      "creates": null,
      "raw": "0xf86c62850da210b8cb8252089432be343b94f860124dc4fee278fdcbd38c102d88888ac2c4af5298f800801ba00c44d2dc57e6ba9b1d0af8539854e0048c8ad08c025c4f31873dbb568f3007faa04ec7980755091ab24e50a64d5371fdcdbd778f9bc8c38e6a8e7b8dd74bc227f1",
      "networkId": 0,
      "chainId": 0
    }
  ]
}