{
  "hash": "0x5f784cb59e5aad3e1f4b0dbaee397fcd327eb63f74b45ea3bde9cf97ac76c67e",
  "parentHash": "0xaae6d3b585253f807d40fc37c7cac9dac66e6e392e66d12ea1e7f74b0af6dd04",
  "number": 48386,
  "timestamp": 1438956383,
  "nonce": "0x67d69279da5ffb30",
  "difficulty": 1454338552637,
  "gasLimit": {
    "_hex": "0x16702"
  },
  "gasUsed": {
    "_hex": "0x5208"
  },
  "miner": "0x5F8F73E26CdF436f19Cb24C82F90A15AFe55b592",
  "extraData": "0x476574682f76312e302e312f77696e646f77732f676f312e342e32",
  "transactions": [
    {
      "hash": "0x2057b84daa965554874fd66327dbff34b68d9f77541184b385c88a7cb48f6deb",
      "blockHash": "0x5f784cb59e5aad3e1f4b0dbaee397fcd327eb63f74b45ea3bde9cf97ac76c67e",
      "blockNumber": 48386,
      "transactionIndex": 0,
      "confirmations": null,
      "from": "0x3f0073d6bBE51612013aA09BC970e08E84D7BA23",
      "gasPrice": {
        "_hex": "0xdabac1007"
      },
      "gasLimit": {
        "_hex": "0x5208"
      },
      "to": "0x32Be343B94f860124dC4fEe278FDCBD38C102D88",
      "value": {
        "_hex": "0xddc554924560c00"
      },
      "nonce": 0,
      "data": "0x",
      "r": "0xdf2f07c39cb4b0febec87c6d4b5f52a1b80d5ace6d001af92ab32a07fafc77b8",
      "s": "0x4d013807c91555ac19cfe17f888cad6775bfbd57a05e44c8af1ddcab4d331e1e",
      "v": 28,
      "creates": null,
      "raw": "0xf86c80850dabac10078252089432be343b94f860124dc4fee278fdcbd38c102d88880ddc554924560c00801ca0df2f07c39cb4b0febec87c6d4b5f52a1b80d5ace6d001af92ab32a07fafc77b8a04d013807c91555ac19cfe17f888cad6775bfbd57a05e44c8af1ddcab4d331e1e",
      "networkId": 0,
      "chainId": 0
    }
  ]
}