{
  "hash": "0x73ca20f59aa19bcd62fed7a848beca105203a6ec860ddea8358dd1b2005d17b2",
  "parentHash": "0x71ba72238daea18e99868ef8a5fd3235828fa1e432ac8df8669f04470e7b1ae4",
  "number": 65150,
  "timestamp": 1439232109,
  "nonce": "0xb33244f9f65a0fc1",
  "difficulty": 1936028538551,
  "gasLimit": {
    "_hex": "0x2fefd8"
  },
  "gasUsed": {
    "_hex": "0xa410"
  },
  "miner": "0xf927a40C8B7F6E07c5af7FA2155B4864a4112B13",
  "extraData": "0x",
  "transactions": [
    {
      "hash": "0x6e3019090656c68519d2e2230681cb99903fdb9aede483cfa7507555400a445e",
      "blockHash": "0x73ca20f59aa19bcd62fed7a848beca105203a6ec860ddea8358dd1b2005d17b2",
      "blockNumber": 65150,
      "transactionIndex": 0,
      "confirmations": null,
      "from": "0xb828469164841C1F62FdA4C5bf09BEE948492734",
      "gasPrice": {
        "_hex": "0xba43b7400"
      },
      "gasLimit": {
        "_hex": "0x5208"
      },
      "to": "0x98e470619503F8B1dBbA9b9689C21e380d178C17",
      "value": {
        "_hex": "0x5ba50d6f3b88000"
      },
      "nonce": 1,
      "data": "0x",
      "r": "0xbe12a8685c698101a11ec4212a960a290ec83c70a09c7844a283a2467cda4315",
      "s": "0x26d1aac7bac0de9df549ab506d740cfa32acccb4bbca3708917fb015fd925137",
      "v": 28,
      "creates": null,
      "raw": "0xf86c01850ba43b74008252089498e470619503f8b1dbba9b9689c21e380d178c178805ba50d6f3b88000801ca0be12a8685c698101a11ec4212a960a290ec83c70a09c7844a283a2467cda4315a026d1aac7bac0de9df549ab506d740cfa32acccb4bbca3708917fb015fd925137",
      "networkId": 0,
      "chainId": 0
    },
    {
      "hash": "0x27fc062b0351c452e05bb7f24f6371eb254b37f03a8a133923d3d31f8cd3a63c",
      "blockHash": "0x73ca20f59aa19bcd62fed7a848beca105203a6ec860ddea8358dd1b2005d17b2",
      "blockNumber": 65150,
      "transactionIndex": 1,
      "confirmations": null,
      "from": "0x460203A07c702c028174455765F3BBB11A302bb9",
      "gasPrice": {
        "_hex": "0xba43b7400"
      },
      "gasLimit": {
        "_hex": "0x5208"
      },
      "to": "0xA3ae368338394a7db22Cdd0d0250005091625A9A",
      "value": {
        "_hex": "0x55dc4238d76c000"
      },
      "nonce": 1,
      "data": "0x",
      "r": "0xad4b0e7c24db9fa6127859cd9c4f71568a3f01b7666ff9906c28dd66289ee4a9",
      "s": "0x14ffc86a6a1eb1260d4c23de0bb64e5b11a3864837366469b8465bb499d22761",
      "v": 28,
      "creates": null,
      "raw": "0xf86c01850ba43b740082520894a3ae368338394a7db22cdd0d0250005091625a9a88055dc4238d76c000801ca0ad4b0e7c24db9fa6127859cd9c4f71568a3f01b7666ff9906c28dd66289ee4a9a014ffc86a6a1eb1260d4c23de0bb64e5b11a3864837366469b8465bb499d22761",
      "networkId": 0,
      "chainId": 0
    }
  ]
}