{
  "hash": "0x4310bd9a54dddfe5ff0563863dfea949dc033c2a654b8380977b1003fd952519",
  "parentHash": "0x14dd1bbe57dc7ffd66f2d89085a5747318170933a09b072475b82113e5d0fa2a",
  "number": 46786,
  "timestamp": 1438929177,
  "nonce": "0xd36fa8fb53171b14",
  "difficulty": 1458883791399,
  "gasLimit": {
    "_hex": "0x78b4"
  },
  "gasUsed": {
    "_hex": "0x5208"
  },
  "miner": "0xe6A7a1d47ff21B6321162AEA7C6CB457D5476Bca",
  "extraData": "0x657468706f6f6c2e6f7267",
  "transactions": [
    {
      "hash": "0xbbc3a6aeb1a2d524353337a63472291dfb04146cb7694b88d0580ace02365f59",
      "blockHash": "0x4310bd9a54dddfe5ff0563863dfea949dc033c2a654b8380977b1003fd952519",
      "blockNumber": 46786,
      "transactionIndex": 0,
      "confirmations": null,
      "from": "0x097738363B1662599ad0777E19461601F5EC8dF9",
      "gasPrice": {
        "_hex": "0xcccaa8bf4"
      },
      "gasLimit": {
        "_hex": "0x5208"
      },
      "to": "0x32Be343B94f860124dC4fEe278FDCBD38C102D88",
      "value": {
        "_hex": "0x9fbe60ae7475800"
      },
      "nonce": 0,
      "data": "0x",
      "r": "0x07359955e5a8e175a030c749a131f583d999b36fdbdd24fd08de689ad1aa1513",
      "s": "0x237f3c0e78118ab4a148a13cb87f71f43c778c5a087b52140cb5074bc24df8bd",
      "v": 27,
      "creates": null,
      "raw": "0xf86c80850cccaa8bf48252089432be343b94f860124dc4fee278fdcbd38c102d888809fbe60ae7475800801ba007359955e5a8e175a030c749a131f583d999b36fdbdd24fd08de689ad1aa1513a0237f3c0e78118ab4a148a13cb87f71f43c778c5a087b52140cb5074bc24df8bd",
      "networkId": 0,
      "chainId": 0
    }
  ]
}