{
  "hash": "0xd2b3fce43feedfd0c90fd2402a89b11f19fad2ad4dc684ab69a172098f75cb4e",
  "parentHash": "0x10bd8ecca46401bde17f46cc9f079f3f36b8989f936a9d4ab0905f1fc0c972c6",
  "number": 71552,
  "timestamp": 1439337959,
  "nonce": "0xc813b2a6e945a1f0",
  "difficulty": 2181456447206,
  "gasLimit": {
    "_hex": "0x2fefd8"
  },
  "gasUsed": {
    "_hex": "0x93b2"
  },
  "miner": "0xf927a40C8B7F6E07c5af7FA2155B4864a4112B13",
  "extraData": "0x",
  "transactions": [
    {
      "hash": "0x7433c7f1a977ac4f9918aa29e3d71eee26ad7be97316a054e8834691d93c588d",
      "blockHash": "0xd2b3fce43feedfd0c90fd2402a89b11f19fad2ad4dc684ab69a172098f75cb4e",
      "blockNumber": 71552,
      "transactionIndex": 0,
      "confirmations": null,
      "from": "0x17580B766f7453525ca4C6A88b01b50570EA088C",
      "gasPrice": {
        "_hex": "0xd006a35cd"
      },
      "gasLimit": {
        "_hex": "0x61a80"
      },
      "to": "0x5Fe5B7546D1628f7348B023A0393de1FC825A4fD",
      "value": {
        "_hex": "0x29a2241af62c0000"
      },
      "nonce": 214,
      "data": "0xb595b8b50000000000000000000000000000000000000000000000000000000000000000",
      "r": "0x82a22b0a1c42e12b75833586311bc11505a88b8765d8013ea7033859f053fcb3",
      "s": "0x0006e5c97111bf71dc3a0413c9c76596a550efea37e8dfabad4c764e0975ef1b",
      "v": 28,
      "creates": null,
      "raw": "0xf89181d6850d006a35cd83061a80945fe5b7546d1628f7348b023a0393de1fc825a4fd8829a2241af62c0000a4b595b8b500000000000000000000000000000000000000000000000000000000000000001ca082a22b0a1c42e12b75833586311bc11505a88b8765d8013ea7033859f053fcb39f06e5c97111bf71dc3a0413c9c76596a550efea37e8dfabad4c764e0975ef1b",
      "networkId": 0,
      "chainId": 0
    }
  ]
}