{
  "hash": "0x3abbe249cc9d87c3201dcd0fb61b6b5a9caa575ba5c1d5ce0a37957e14e599fd",
  "parentHash": "0x7620328fcf49abfb782c0b447310f1eaaa44ebe405775d82c0b89390facd15d1",
  "number": 55542,
  "timestamp": 1439072440,
  "nonce": "0x7e816676aa262ac7",
  "difficulty": 1627393070787,
  "gasLimit": {
    "_hex": "0x2fefd8"
  },
  "gasUsed": {
    "_hex": "0x14820"
  },
  "miner": "0xf8E0CA3Ed80bd541b94BEdCf259e8CF2141A9523",
  "extraData": "0x476574682f76312e302e312f77696e646f77732f676f312e342e32",
  "transactions": [
    {
      "hash": "0x5eb3fac7f86f4e8170e98ecc4cfd2fb142326e95ff8e0f9089ea57412d249fe9",
      "blockHash": "0x3abbe249cc9d87c3201dcd0fb61b6b5a9caa575ba5c1d5ce0a37957e14e599fd",
      "blockNumber": 55542,
      "transactionIndex": 0,
      "confirmations": null,
      "from": "0x40d8646B152DBb1eBFf414Ab9f26b94d1858458c",
      "gasPrice": {
        "_hex": "0xe09649583"
      },
      "gasLimit": {
        "_hex": "0x5208"
      },
      "to": "0x32Be343B94f860124dC4fEe278FDCBD38C102D88",
      "value": {
        "_hex": "0x3635c52e534a340000"
      },
      "nonce": 0,
      "data": "0x",
      "r": "0x9fd6879e34f4472d6210becd6e1d7b3d080ad877eeec7c938c7189a708ecdebf",
      "s": "0x0d430ad0675bc80e05689f8e564d9671983a5b207a7e7d76200761bc045000a7",
      "v": 27,
      "creates": null,
      "raw": "0xf86d80850e096495838252089432be343b94f860124dc4fee278fdcbd38c102d88893635c52e534a340000801ba09fd6879e34f4472d6210becd6e1d7b3d080ad877eeec7c938c7189a708ecdebfa00d430ad0675bc80e05689f8e564d9671983a5b207a7e7d76200761bc045000a7",
      "networkId": 0,
      "chainId": 0
    },
    {
      "hash": "0x7bd85ad80930976d94e7ffab667050021c2c672ccd60432fac6b814e0a922fee",
      "blockHash": "0x3abbe249cc9d87c3201dcd0fb61b6b5a9caa575ba5c1d5ce0a37957e14e599fd",
      "blockNumber": 55542,
      "transactionIndex": 1,
      "confirmations": null,
      "from": "0x865d4c0cbD0C4D7580AAB16CE346127177162FFA",
      "gasPrice": {
        "_hex": "0xe09649583"
      },
      "gasLimit": {
        "_hex": "0x5208"
      },
      "to": "0x32Be343B94f860124dC4fEe278FDCBD38C102D88",
      "value": {
        "_hex": "0x1b1ae04b7cf5db0000"
      },
      "nonce": 1,
      "data": "0x",
      "r": "0x443f38b218e8eaa61c68e2213f9a4ad7d6f3b1ec59d440efdbc6e3d8c732fd02",
      "s": "0x2d1a66d5f9d4f6551e6d777528e9dfb4116463ab6615e3ccf8baac7bb57aa69a",
      "v": 27,
      "creates": null,
      "raw": "0xf86d01850e096495838252089432be343b94f860124dc4fee278fdcbd38c102d88891b1ae04b7cf5db0000801ba0443f38b218e8eaa61c68e2213f9a4ad7d6f3b1ec59d440efdbc6e3d8c732fd02a02d1a66d5f9d4f6551e6d777528e9dfb4116463ab6615e3ccf8baac7bb57aa69a",
      "networkId": 0,
      "chainId": 0
    },
    {
      "hash": "0x3404e88723e7e133165c6ee682ec7f19e573beee56ee11edaf3b0456b6bbf764",
      "blockHash": "0x3abbe249cc9d87c3201dcd0fb61b6b5a9caa575ba5c1d5ce0a37957e14e599fd",
      "blockNumber": 55542,
      "transactionIndex": 2,
      "confirmations": null,
      "from": "0x65fdeb3Af336392404436bB824E9DCbAaDdef54D",
      "gasPrice": {
        "_hex": "0xe09649583"
      },
      "gasLimit": {
        "_hex": "0x5208"
      },
      "to": "0x32Be343B94f860124dC4fEe278FDCBD38C102D88",
      "value": {
        "_hex": "0x5265f4d3889af4000"
      },
      "nonce": 0,
      "data": "0x",
      "r": "0x04e7cd638430e1f946939662cc871c11601eb354b2538fea60a1736d1cb55603",
      "s": "0x255707eed2941305b5db3bb0783d389bdcc5512357a2e89346d513b697df73ee",
      "v": 28,
      "creates": null,
      "raw": "0xf86d80850e096495838252089432be343b94f860124dc4fee278fdcbd38c102d888905265f4d3889af4000801ca004e7cd638430e1f946939662cc871c11601eb354b2538fea60a1736d1cb55603a0255707eed2941305b5db3bb0783d389bdcc5512357a2e89346d513b697df73ee",
      "networkId": 0,
      "chainId": 0
    },
    {
      "hash": "0xcc52d3bc4928a69704456ccc6e69373240d4bef7a6308ff04d91b289b90f4471",
      "blockHash": "0x3abbe249cc9d87c3201dcd0fb61b6b5a9caa575ba5c1d5ce0a37957e14e599fd",
      "blockNumber": 55542,
      "transactionIndex": 3,
      "confirmations": null,
      "from": "0x65EA67AD3fB56aD5fB94387DD38EB383001D7C68",
      "gasPrice": {
        "_hex": "0xd4a755a42"
      },
      "gasLimit": {
        "_hex": "0x15f90"
      },
      "to": "0x63340a57716bfA63eB6cd133721202575bF796F0",
      "value": {
        "_hex": "0x55de6a779bbac0000"
      },
      "nonce": 0,
      "data": "0x",
      "r": "0x0cc6c8ed4d72f3e78786e500ecd45e330d7a183de8cf34e260f0f16b7901e643",
      "s": "0x4a17e03841c7edb986538479804dd23ab4465ceb8c0625be3c2a520a7d644c53",
      "v": 27,
      "creates": null,
      "raw": "0xf86e80850d4a755a4283015f909463340a57716bfa63eb6cd133721202575bf796f089055de6a779bbac0000801ba00cc6c8ed4d72f3e78786e500ecd45e330d7a183de8cf34e260f0f16b7901e643a04a17e03841c7edb986538479804dd23ab4465ceb8c0625be3c2a520a7d644c53",
      "networkId": 0,
      "chainId": 0
    }
  ]
}