{
  "hash": "0xa1119adc3d90f243c1ca2bdeccdff36bc2654a3e321f0252230af6843f0830b5",
  "parentHash": "0x134898be551f195eaf5970a7c74f39e8cbb165165247a5f044b1bd106526d010",
  "number": 71001,
  "timestamp": 1439328846,
  "nonce": "0x0a2a8bcccb210419",
  "difficulty": 2161453881633,
  "gasLimit": {
    "_hex": "0x2fefd8"
  },
  "gasUsed": {
    "_hex": "0x5208"
  },
  "miner": "0x0eDEd3DA479d0beF8eeC92A76644D3f4E3C177f7",
  "extraData": "0x476574682f76312e302e312f6c696e75782f676f312e342e32",
  "transactions": [
    {
      "hash": "0xec8c9a7aa242b77f781957484bc83aaa581edd88270bdd2fe6bb715993352747",
      "blockHash": "0xa1119adc3d90f243c1ca2bdeccdff36bc2654a3e321f0252230af6843f0830b5",
      "blockNumber": 71001,
      "transactionIndex": 0,
      "confirmations": null,
      "from": "0x2910543Af39abA0Cd09dBb2D50200b3E800A63D2",
      "gasPrice": {
        "_hex": "0xd5d7b33dd"
      },
      "gasLimit": {
        "_hex": "0x5208"
      },
      "to": "0xCbba2f66729Ec94442bbd504a8F45fF68cBE6b7f",
      "value": {
        "_hex": "0xec33175892037f6000"
      },
      "nonce": 260,
      "data": "0x",
      "r": "0xdc46987af8e01d82d79ae4fe2e53e15af2c7366fabc1c9178c1a50f6342e7853",
      "s": "0x1afc527519ffe59cadc8081c1692ec5701e56145f41b37a3f42aa28d560154f9",
      "v": 28,
      "creates": null,
      "raw": "0xf86f820104850d5d7b33dd82520894cbba2f66729ec94442bbd504a8f45ff68cbe6b7f89ec33175892037f6000801ca0dc46987af8e01d82d79ae4fe2e53e15af2c7366fabc1c9178c1a50f6342e7853a01afc527519ffe59cadc8081c1692ec5701e56145f41b37a3f42aa28d560154f9",
      "networkId": 0,
      "chainId": 0
    }
  ]
}