{
  "hash": "0x698b29f01b480709a42b9ceb84f85ea101b96ddb9045f906dae66885f53b44d8",
  "parentHash": "0xb0a153b17e5e22128d99f9d0509c831e412fb1ad5f6d56b3cb9eac1a5d66f21d",
  "number": 79574,
  "timestamp": 1439471861,
  "nonce": "0x7ec28000a3a0503e",
  "difficulty": 2342695249170,
  "gasLimit": {
    "_hex": "0x2fefd8"
  },
  "gasUsed": {
    "_hex": "0xa674"
  },
  "miner": "0xC2B0FB302729ef0f4aa96C0E02cC2346459294DF",
  "extraData": "0x",
  "transactions": [
    {
      "hash": "0xdd61a23dd6a2147e22fdcdb189f305ec50bddb4a0254827e0765a145a1ecbd6c",
      "blockHash": "0x698b29f01b480709a42b9ceb84f85ea101b96ddb9045f906dae66885f53b44d8",
      "blockNumber": 79574,
      "transactionIndex": 0,
      "confirmations": null,
      "from": "0x271e8fC01E1C9E1621fD3d108e348450b2498541",
      "gasPrice": {
        "_hex": "0xdecc54b1b"
      },
      "gasLimit": {
        "_hex": "0x55f0"
      },
      "to": "0x2910543Af39abA0Cd09dBb2D50200b3E800A63D2",
      "value": {
        "_hex": "0x168d28e3f00280000"
      },
      "nonce": 12,
      "data": "0x454e30334b52455730",
      "r": "0xde8e22c4531e210fa8f55e6f7f3b0531e7cb8fc4894a7b5a1e279725b9d85c61",
      "s": "0x7d98891ff7dec461e231f64d8f74c1ff682c7952a7b6c9087fa54f86a57e6237",
      "v": 27,
      "creates": null,
      "raw": "0xf8760c850decc54b1b8255f0942910543af39aba0cd09dbb2d50200b3e800a63d2890168d28e3f0028000089454e30334b524557301ba0de8e22c4531e210fa8f55e6f7f3b0531e7cb8fc4894a7b5a1e279725b9d85c61a07d98891ff7dec461e231f64d8f74c1ff682c7952a7b6c9087fa54f86a57e6237",
      "networkId": 0,
      "chainId": 0
    },
    {
      "hash": "0x44fb4e1944c83a576b03f2897e275c4c913cd96c5dda0e245b4830e9f0e5a02d",
      "blockHash": "0x698b29f01b480709a42b9ceb84f85ea101b96ddb9045f906dae66885f53b44d8",
      "blockNumber": 79574,
      "transactionIndex": 1,
      "confirmations": null,
      "from": "0xee5379D0c1ca47327368027455074C26D9952628",
      "gasPrice": {
        "_hex": "0xd3819a45b"
      },
      "gasLimit": {
        "_hex": "0x15f90"
      },
      "to": "0xa6b0Df3d84cb20F4F4a593855BfFAA0d3aaa02Aa",
      "value": {
        "_hex": "0x3385731490a340000"
      },
      "nonce": 8,
      "data": "0x",
      "r": "0x95e3247fb913b3eaf5d652a1dda645a294e3f95b8e72aa8cadfa7c07533d579c",
      "s": "0x7719f372b69343d84371761e46fd3bf46b71de2e44f237a89e8d0b2b97f455fe",
      "v": 27,
      "creates": null,
      "raw": "0xf86e08850d3819a45b83015f9094a6b0df3d84cb20f4f4a593855bffaa0d3aaa02aa8903385731490a340000801ba095e3247fb913b3eaf5d652a1dda645a294e3f95b8e72aa8cadfa7c07533d579ca07719f372b69343d84371761e46fd3bf46b71de2e44f237a89e8d0b2b97f455fe",
      "networkId": 0,
      "chainId": 0
    }
  ]
}