{
  "hash": "0x8a55d64952b9a92564ae74951f29ecc03e989b65dd91062dc3c4756e90efd00c",
  "parentHash": "0xc591ad926d8bf0c243540ac0b0e13119137449656d23256b91287a32951c48bd",
  "number": 110484,
  "timestamp": 1439974552,
  "nonce": "0xc8755ac14bd2b557",
  "difficulty": 4373427646161,
  "gasLimit": {
    "_hex": "0x2fefd8"
  },
  "gasUsed": {
    "_hex": "0x5208"
  },
  "miner": "0x623d2411c3bb3340784155F9a688b0085251aB5c",
  "extraData": "0x",
  "transactions": [
    {
      "hash": "0xf084ba2ecc0b21a77c7bb01f88b624e0ee25b79df2975b9646723fabc5615380",
      "blockHash": "0x8a55d64952b9a92564ae74951f29ecc03e989b65dd91062dc3c4756e90efd00c",
      "blockNumber": 110484,
      "transactionIndex": 0,
      "confirmations": null,
      "from": "0xDdaCBcba2a4fe9313F7CCA044872A9c51bD1E4c8",
      "gasPrice": {
        "_hex": "0xd8c875bf1"
      },
      "gasLimit": {
        "_hex": "0x5208"
      },
      "to": "0x32Be343B94f860124dC4fEe278FDCBD38C102D88",
      "value": {
        "_hex": "0x5b8da6dff5d5ec00"
      },
      "nonce": 4,
      "data": "0x",
      "r": "0x57c112ce02057a31a1f262095faa2889e08c79e9dee0300d82c810815346de66",
      "s": "0x646feaabbfd94eb68f0d0c2a6c6c27a730eddc09bc87d81a5025e2f9fee247b4",
      "v": 28,
      "creates": null,
      "raw": "0xf86c04850d8c875bf18252089432be343b94f860124dc4fee278fdcbd38c102d88885b8da6dff5d5ec00801ca057c112ce02057a31a1f262095faa2889e08c79e9dee0300d82c810815346de66a0646feaabbfd94eb68f0d0c2a6c6c27a730eddc09bc87d81a5025e2f9fee247b4",
      "networkId": 0,
      "chainId": 0
    }
  ]
}