{
  "hash": "0x34cf6a43a839e2603ae649b69dd7d74ea460ed0db3252e6eb5d5a8a179f891b7",
  "parentHash": "0x81861d9712016d227be4cd77b334e00c267c8f2683f5ee8e27a2779bdd38b882",
  "number": 68423,
  "timestamp": 1439287653,
  "nonce": "0x456874c171874089",
  "difficulty": 2013348672549,
  "gasLimit": {
    "_hex": "0x2fefd8"
  },
  "gasUsed": {
    "_hex": "0x33450"
  },
  "miner": "0x47ff6576639c2e94762eA5443978D7681C0E78DC",
  "extraData": "0x476574682f76312e302e312f6c696e75782f676f312e342e32",
  "transactions": [
    {
      "hash": "0xb551032ad09116dd3f4a907c62bd8e3093c1c289c86734044a41d4ffdf7bc894",
      "blockHash": "0x34cf6a43a839e2603ae649b69dd7d74ea460ed0db3252e6eb5d5a8a179f891b7",
      "blockNumber": 68423,
      "transactionIndex": 0,
      "confirmations": null,
      "from": "0x92F401191F869a2b5A76B2b0FB1E0d9D948a3f1d",
      "gasPrice": {
        "_hex": "0x114def075b6"
      },
      "gasLimit": {
        "_hex": "0x15f90"
      },
      "to": "0x267069452478cA39b3f5F1A4fFdD4131f50Bc977",
      "value": {
        "_hex": "0xde0b6b3a7640000"
      },
      "nonce": 0,
      "data": "0x",
      "r": "0x40ef0f6ae1d2b3d45a7682ee8babe63749883fc81767c1751a32e9fb5022bdb4",
      "s": "0x1518491f7a1c13d2981a622d9b7c0aa93114d77e285b7fd365085b3ca07d5ecb",
      "v": 28,
      "creates": null,
      "raw": "0xf86e80860114def075b683015f9094267069452478ca39b3f5f1a4ffdd4131f50bc977880de0b6b3a7640000801ca040ef0f6ae1d2b3d45a7682ee8babe63749883fc81767c1751a32e9fb5022bdb4a01518491f7a1c13d2981a622d9b7c0aa93114d77e285b7fd365085b3ca07d5ecb",
      "networkId": 0,
      "chainId": 0
    },
    {
      "hash": "0x7e5570218e8cce2413695737eff8acd354a719864e702d16e8903ed9da2c19e9",
      "blockHash": "0x34cf6a43a839e2603ae649b69dd7d74ea460ed0db3252e6eb5d5a8a179f891b7",
      "blockNumber": 68423,
      "transactionIndex": 1,
      "confirmations": null,
      "from": "0x1Db4D598b9ac9c442611a7D33c5393C461D71BC1",
      "gasPrice": {
        "_hex": "0xba43b7400"
      },
      "gasLimit": {
        "_hex": "0x5208"
      },
      "to": "0xdE5830cF419eC625acbFD8b61f0b14458340f552",
      "value": {
        "_hex": "0x7c58ada8ff2000"
      },
      "nonce": 1,
      "data": "0x",
      "r": "0x6f9853ebe438fa516a518cf600033e604062ac3860a3ef90b36de562c5f03342",
      "s": "0x7c8ac87b46813a5a2d5325d528b1c279fb96da7628784c172b5de7ff86d57fd5",
      "v": 27,
      "creates": null,
      "raw": "0xf86b01850ba43b740082520894de5830cf419ec625acbfd8b61f0b14458340f552877c58ada8ff2000801ba06f9853ebe438fa516a518cf600033e604062ac3860a3ef90b36de562c5f03342a07c8ac87b46813a5a2d5325d528b1c279fb96da7628784c172b5de7ff86d57fd5",
      "networkId": 0,
      "chainId": 0
    },
    {
      "hash": "0xa52de405a45be455973a22d1dcb6fe9113f38a6f5da0e4b91dc405223fa167ec",
      "blockHash": "0x34cf6a43a839e2603ae649b69dd7d74ea460ed0db3252e6eb5d5a8a179f891b7",
      "blockNumber": 68423,
      "transactionIndex": 2,
      "confirmations": null,
      "from": "0x37f5820118ab9E51aaD426d1a0Df4cf192d3d392",
      "gasPrice": {
        "_hex": "0xba43b7400"
      },
      "gasLimit": {
        "_hex": "0x5208"
      },
      "to": "0x4293c2eC9C8D7D72A801CCe989352A21cBB6f043",
      "value": {
        "_hex": "0x7c58ada8ff2000"
      },
      "nonce": 1,
      "data": "0x",
      "r": "0x805075aa2b31c90ced93dc4e87a0505aff583a239505030aeb91b8e5536a1ab3",
      "s": "0x5903b828eba64fc3f91aaa9c0ba60719ceefc99b30c99d582e30b7280a5aac33",
      "v": 27,
      "creates": null,
      "raw": "0xf86b01850ba43b7400825208944293c2ec9c8d7d72a801cce989352a21cbb6f043877c58ada8ff2000801ba0805075aa2b31c90ced93dc4e87a0505aff583a239505030aeb91b8e5536a1ab3a05903b828eba64fc3f91aaa9c0ba60719ceefc99b30c99d582e30b7280a5aac33",
      "networkId": 0,
      "chainId": 0
    },
    {
      "hash": "0x305b15fb212d63f47239478fc408fe33c04b1ed9fc13a62a85af0b63343a68a6",
      "blockHash": "0x34cf6a43a839e2603ae649b69dd7d74ea460ed0db3252e6eb5d5a8a179f891b7",
      "blockNumber": 68423,
      "transactionIndex": 3,
      "confirmations": null,
      "from": "0x1D8c86C35368163705e523Bc8C78216A7Df4Ca22",
      "gasPrice": {
        "_hex": "0xba43b7400"
      },
      "gasLimit": {
        "_hex": "0x5208"
      },
      "to": "0x083c54Ec3fa2DA0cbC17aBCB179b58E1408928bA",
      "value": {
        "_hex": "0x7c58ada8ff2000"
      },
      "nonce": 1,
      "data": "0x",
      "r": "0x2f90c78b6150c5945e3254ea641c39d930ca8065ab586cc29c51929e8d794c3f",
      "s": "0x304af038629a85d9aa67c8bae1c1f7adf2801ef964988a246b8f9426895d4a78",
      "v": 27,
      "creates": null,
      "raw": "0xf86b01850ba43b740082520894083c54ec3fa2da0cbc17abcb179b58e1408928ba877c58ada8ff2000801ba02f90c78b6150c5945e3254ea641c39d930ca8065ab586cc29c51929e8d794c3fa0304af038629a85d9aa67c8bae1c1f7adf2801ef964988a246b8f9426895d4a78",
      "networkId": 0,
      "chainId": 0
    },
    {
      "hash": "0xdc00b154be8ac6dac9dbcfbef058984df22e37206548a08e5e1f4933d9f71455",
      "blockHash": "0x34cf6a43a839e2603ae649b69dd7d74ea460ed0db3252e6eb5d5a8a179f891b7",
      "blockNumber": 68423,
      "transactionIndex": 4,
      "confirmations": null,
      "from": "0xE9492697d9e380f48100868978278a6c447e1195",
      "gasPrice": {
        "_hex": "0xba43b7400"
      },
      "gasLimit": {
        "_hex": "0x5208"
      },
      "to": "0x56d41eaC43FD18c88eEAeD881FBbe4ED5DD7C721",
      "value": {
        "_hex": "0x7c58ada8ff2000"
      },
      "nonce": 1,
      "data": "0x",
      "r": "0x5a2befd3c8991bcc5e4d88904094308e6ef6ba85684ce051676ba981c1ee3923",
      "s": "0x763092f7c1f9fb8f99bf525dc5db56f6d3c28b8c29fb1e913428d8edbf4c04ff",
      "v": 28,
      "creates": null,
      "raw": "0xf86b01850ba43b74008252089456d41eac43fd18c88eeaed881fbbe4ed5dd7c721877c58ada8ff2000801ca05a2befd3c8991bcc5e4d88904094308e6ef6ba85684ce051676ba981c1ee3923a0763092f7c1f9fb8f99bf525dc5db56f6d3c28b8c29fb1e913428d8edbf4c04ff",
      "networkId": 0,
      "chainId": 0
    },
    {
      "hash": "0x25c001eecaffd838b1b618bb4f0ba2ef8ed59a699c7b491041a63a6b993c0e0b",
      "blockHash": "0x34cf6a43a839e2603ae649b69dd7d74ea460ed0db3252e6eb5d5a8a179f891b7",
      "blockNumber": 68423,
      "transactionIndex": 5,
      "confirmations": null,
      "from": "0x9bF5379f315f240509EdF7ad853d103375d1ADcb",
      "gasPrice": {
        "_hex": "0xba43b7400"
      },
      "gasLimit": {
        "_hex": "0x5208"
      },
      "to": "0x3715fFAde7173D0EaFa118Ef4F70f94679456B94",
      "value": {
        "_hex": "0x7c58ada8ff2000"
      },
      "nonce": 1,
      "data": "0x",
      "r": "0x0b08c659788aa1656f9dd103fd6a16e495058c68ff48965ac3b349b3c1f6a77e",
      "s": "0x3d30c4a880b9fc13d62d67e2e7f07bd8bddd3ecb2264ec467fa6aac608b6662d",
      "v": 28,
      "creates": null,
      "raw": "0xf86b01850ba43b7400825208943715ffade7173d0eafa118ef4f70f94679456b94877c58ada8ff2000801ca00b08c659788aa1656f9dd103fd6a16e495058c68ff48965ac3b349b3c1f6a77ea03d30c4a880b9fc13d62d67e2e7f07bd8bddd3ecb2264ec467fa6aac608b6662d",
      "networkId": 0,
      "chainId": 0
    },
    {
      "hash": "0x3532790e71181157c71082ddd95a2ccbdf9de84f7bf58384af857161b4e215d6",
      "blockHash": "0x34cf6a43a839e2603ae649b69dd7d74ea460ed0db3252e6eb5d5a8a179f891b7",
      "blockNumber": 68423,
      "transactionIndex": 6,
      "confirmations": null,
      "from": "0xa2f209f33B62541E0d32220Dc0b5236B87a3B103",
      "gasPrice": {
        "_hex": "0xba43b7400"
      },
      "gasLimit": {
        "_hex": "0x5208"
      },
      "to": "0xaa8FeB2D5DA363bBD6bc4816099721793DB91691",
      "value": {
        "_hex": "0x7c58ada8ff2000"
      },
      "nonce": 1,
      "data": "0x",
      "r": "0xfff27d119d1500ca750847f330b5cd348fbecf417b34b7c801ac4c79f4eb34fd",
      "s": "0x0f0204e6a14b483dc7dd38a4834cfabedee60db85ec11f5bc42fc66f7a2bf4fc",
      "v": 27,
      "creates": null,
      "raw": "0xf86b01850ba43b740082520894aa8feb2d5da363bbd6bc4816099721793db91691877c58ada8ff2000801ba0fff27d119d1500ca750847f330b5cd348fbecf417b34b7c801ac4c79f4eb34fda00f0204e6a14b483dc7dd38a4834cfabedee60db85ec11f5bc42fc66f7a2bf4fc",
      "networkId": 0,
      "chainId": 0
    },
    {
      "hash": "0x52398a19c851f7860e44b288918e6c3512a9d37e6aa85bbafd6dd160dcbcb31a",
      "blockHash": "0x34cf6a43a839e2603ae649b69dd7d74ea460ed0db3252e6eb5d5a8a179f891b7",
      "blockNumber": 68423,
      "transactionIndex": 7,
      "confirmations": null,
      "from": "0xd385Ef5fb9c6D7eEfE7e2FAbDe5405c0AE4001aD",
      "gasPrice": {
        "_hex": "0xba43b7400"
      },
      "gasLimit": {
        "_hex": "0x5208"
      },
      "to": "0xa3D5AB3C7a52FA0FF71f0889eb8dAdAfF09D7022",
      "value": {
        "_hex": "0x7c58ada8ff2000"
      },
      "nonce": 1,
      "data": "0x",
      "r": "0x9d3087dc1bd97378e11c6ab35b3d46db94e806c433af780df53447f859ece05c",
      "s": "0x324fc41423699768d4e197eda002202c6890d3390507321eedb6fc8a601d3da8",
      "v": 27,
      "creates": null,
      "raw": "0xf86b01850ba43b740082520894a3d5ab3c7a52fa0ff71f0889eb8dadaff09d7022877c58ada8ff2000801ba09d3087dc1bd97378e11c6ab35b3d46db94e806c433af780df53447f859ece05ca0324fc41423699768d4e197eda002202c6890d3390507321eedb6fc8a601d3da8",
      "networkId": 0,
      "chainId": 0
    },
    {
      "hash": "0x83c1d2e7bdadbad9a673dbd5c3201020bb4dc07c865d0c9308e484c45a3c72ce",
      "blockHash": "0x34cf6a43a839e2603ae649b69dd7d74ea460ed0db3252e6eb5d5a8a179f891b7",
      "blockNumber": 68423,
      "transactionIndex": 8,
      "confirmations": null,
      "from": "0xD0f928e4C6326666598F85A7e4dACF6bc30d3B15",
      "gasPrice": {
        "_hex": "0xba43b7400"
      },
      "gasLimit": {
        "_hex": "0x5208"
      },
      "to": "0x825294bf5C8888722248Fd3fB82BC3eC343500b4",
      "value": {
        "_hex": "0x7c58ada8ff2000"
      },
      "nonce": 1,
      "data": "0x",
      "r": "0xadb03f1383f37c36489de7561a13135993e73aefd6c75ed0aa1204a569aef737",
      "s": "0x0bfbdccde92a6fda765e823e927ec76aa1f1b5163df211d2f7b8d4f5fac4b5d4",
      "v": 28,
      "creates": null,
      "raw": "0xf86b01850ba43b740082520894825294bf5c8888722248fd3fb82bc3ec343500b4877c58ada8ff2000801ca0adb03f1383f37c36489de7561a13135993e73aefd6c75ed0aa1204a569aef737a00bfbdccde92a6fda765e823e927ec76aa1f1b5163df211d2f7b8d4f5fac4b5d4",
      "networkId": 0,
      "chainId": 0
    },
    {
      "hash": "0xfc706af33e815ea8f0fcc3b3be0a8c8c90a0033119d6a5a0adbb75971db1645e",
      "blockHash": "0x34cf6a43a839e2603ae649b69dd7d74ea460ed0db3252e6eb5d5a8a179f891b7",
      "blockNumber": 68423,
      "transactionIndex": 9,
      "confirmations": null,
      "from": "0x34f7D2056f197DF00B7A3F0D875FdAFfaFa9eE47",
      "gasPrice": {
        "_hex": "0xba43b7400"
      },
      "gasLimit": {
        "_hex": "0x5208"
      },
      "to": "0xAaF1E5b11BF904bD437EfBeD9F489b8Eb037E77e",
      "value": {
        "_hex": "0x7c58ada8ff2000"
      },
      "nonce": 1,
      "data": "0x",
      "r": "0xa028562fc450138c9338d75e1b898be297ef0cf06bcbabcd44586e3e562da9b8",
      "s": "0x7092d20ae19fedd7689c4758bf22b64c631d41585a099e579a95cb7ed40ae06c",
      "v": 27,
      "creates": null,
      "raw": "0xf86b01850ba43b740082520894aaf1e5b11bf904bd437efbed9f489b8eb037e77e877c58ada8ff2000801ba0a028562fc450138c9338d75e1b898be297ef0cf06bcbabcd44586e3e562da9b8a07092d20ae19fedd7689c4758bf22b64c631d41585a099e579a95cb7ed40ae06c",
      "networkId": 0,
      "chainId": 0
    }
  ]
}