{
  "hash": "0x19a20768e4d9c799db2abbd235632ece049fa94b7325a4a401fd495393cfe849",
  "parentHash": "0xedef83fae00c87df49a7094f31d25bf77bd336cabd5fe91111d2ee1309731b7b",
  "number": 110382,
  "timestamp": 1439972825,
  "nonce": "0x5415b559ab1bc267",
  "difficulty": 4360686642031,
  "gasLimit": {
    "_hex": "0x2fefd8"
  },
  "gasUsed": {
    "_hex": "0xf618"
  },
  "miner": "0xe6A7a1d47ff21B6321162AEA7C6CB457D5476Bca",
  "extraData": "0x476574682f76312e302e312d38326566323666362f6c696e75782f676f312e34",
  "transactions": [
    {
      "hash": "0x7aae2a789bd41c9269012e8bcccb79c42d0b5d6cf8220e83cd7c0ebc1b0f5e97",
      "blockHash": "0x19a20768e4d9c799db2abbd235632ece049fa94b7325a4a401fd495393cfe849",
      "blockNumber": 110382,
      "transactionIndex": 0,
      "confirmations": null,
      "from": "0x701aE497d3522329870Ada714AA902424EA8Da01",
      "gasPrice": {
        "_hex": "0xdebb70614"
      },
      "gasLimit": {
        "_hex": "0x5208"
      },
      "to": "0x32Be343B94f860124dC4fEe278FDCBD38C102D88",
      "value": {
        "_hex": "0x1fcc4474a0897d000"
      },
      "nonce": 8,
      "data": "0x",
      "r": "0x64907d5af785d07f61da00d6094966c06839a039e193f3979d2493a382e4b3d4",
      "s": "0x179189d34b6e94798108e60693e7463722e3fa93a1bdade8a67900cfa300d381",
      "v": 28,
      "creates": null,
      "raw": "0xf86d08850debb706148252089432be343b94f860124dc4fee278fdcbd38c102d888901fcc4474a0897d000801ca064907d5af785d07f61da00d6094966c06839a039e193f3979d2493a382e4b3d4a0179189d34b6e94798108e60693e7463722e3fa93a1bdade8a67900cfa300d381",
      "networkId": 0,
      "chainId": 0
    },
    {
      "hash": "0xa53889c39aa83e3ac099a5b41404b5f01892d6bcc78b6d6571b57c7704caa006",
      "blockHash": "0x19a20768e4d9c799db2abbd235632ece049fa94b7325a4a401fd495393cfe849",
      "blockNumber": 110382,
      "transactionIndex": 1,
      "confirmations": null,
      "from": "0x702bD0d370bBf0B97B66FE95578c62697c583393",
      "gasPrice": {
        "_hex": "0xdebb70614"
      },
      "gasLimit": {
        "_hex": "0x5208"
      },
      "to": "0x32Be343B94f860124dC4fEe278FDCBD38C102D88",
      "value": {
        "_hex": "0x87b812296efc0000"
      },
      "nonce": 8,
      "data": "0x",
      "r": "0x10b377b05c3b4a8367b5515b224fba1bdf7e4af442ad53b187e79ed1fc239ed7",
      "s": "0x3bb608308aa0ce8570839f5418abd668cad906539b51dbd2763acf99ddae2466",
      "v": 27,
      "creates": null,
      "raw": "0xf86c08850debb706148252089432be343b94f860124dc4fee278fdcbd38c102d888887b812296efc0000801ba010b377b05c3b4a8367b5515b224fba1bdf7e4af442ad53b187e79ed1fc239ed7a03bb608308aa0ce8570839f5418abd668cad906539b51dbd2763acf99ddae2466",
      "networkId": 0,
      "chainId": 0
    },
    {
      "hash": "0x8393c8f48057206462a87d216503dbadd8db1cb729c26caed5fe60d41fde0893",
      "blockHash": "0x19a20768e4d9c799db2abbd235632ece049fa94b7325a4a401fd495393cfe849",
      "blockNumber": 110382,
      "transactionIndex": 2,
      "confirmations": null,
      "from": "0x04a2a3ee9C9ea82e1F918ecE209f8A7E6d7521E7",
      "gasPrice": {
        "_hex": "0xdebb70614"
      },
      "gasLimit": {
        "_hex": "0x5208"
      },
      "to": "0x32Be343B94f860124dC4fEe278FDCBD38C102D88",
      "value": {
        "_hex": "0x10ca864daff3e5000"
      },
      "nonce": 16,
      "data": "0x",
      "r": "0x104a4045d10efd43db7c08e6e738fa40acf0de93ad0eb7c3ec686969966a3b2b",
      "s": "0x2f918b99c1e04ae5b9aef6d7a4b9b1984de90a4217271ae899c4dbc048240458",
      "v": 28,
      "creates": null,
      "raw": "0xf86d10850debb706148252089432be343b94f860124dc4fee278fdcbd38c102d8889010ca864daff3e5000801ca0104a4045d10efd43db7c08e6e738fa40acf0de93ad0eb7c3ec686969966a3b2ba02f918b99c1e04ae5b9aef6d7a4b9b1984de90a4217271ae899c4dbc048240458",
      "networkId": 0,
      "chainId": 0
    }
  ]
}