{
  "hash": "0xcf8d33446bb48443ccc22545772a6bec1d60fbf3f7b0e050e310abde53e7f847",
  "parentHash": "0x26f65971b19a6de56d32f9f793c31e30427d64285c04be78aa970ac5e2a97608",
  "number": 54426,
  "timestamp": 1439054114,
  "nonce": "0x8ccbea309f924714",
  "difficulty": 1608647362049,
  "gasLimit": {
    "_hex": "0x2fefd8"
  },
  "gasUsed": {
    "_hex": "0xa630"
  },
  "miner": "0x9746c7e1ef2bd21FF3997fa467593a89cb852BD0",
  "extraData": "0x476574682f76312e302e312f77696e646f77732f676f312e342e32",
  "transactions": [
    {
      "hash": "0x09c11198965b128b6fb8ae5b8015446fe8bac259983c5d9d5409b60bf93b3709",
      "blockHash": "0xcf8d33446bb48443ccc22545772a6bec1d60fbf3f7b0e050e310abde53e7f847",
      "blockNumber": 54426,
      "transactionIndex": 0,
      "confirmations": null,
      "from": "0x0361540510aaC3F834967945511CE54871dc050D",
      "gasPrice": {
        "_hex": "0xba43b7400"
      },
      "gasLimit": {
        "_hex": "0x5b04"
      },
      "to": "0x00ec3B9E2e7Ba7FFBd1D77d100a29f8055C258Bb",
      "value": {
        "_hex": "0xad69fb87620800"
      },
      "nonce": 0,
      "data": "0x",
      "r": "0x77ed56a32800ace04cb95408d6e4cf2116db7c8a8b06adece3c6d7604ecb97d2",
      "s": "0x61f182f0a240b45a4e93f514a301a3e8630d8d963ff183c565fc969b5fe9d8d9",
      "v": 27,
      "creates": null,
      "raw": "0xf86b80850ba43b7400825b049400ec3b9e2e7ba7ffbd1d77d100a29f8055c258bb87ad69fb87620800801ba077ed56a32800ace04cb95408d6e4cf2116db7c8a8b06adece3c6d7604ecb97d2a061f182f0a240b45a4e93f514a301a3e8630d8d963ff183c565fc969b5fe9d8d9",
      "networkId": 0,
      "chainId": 0
    },
    {
      "hash": "0x5c181462a46f5072f77f353a4eea9a9a92da8278e8af2b5e1279b56ed02137e3",
      "blockHash": "0xcf8d33446bb48443ccc22545772a6bec1d60fbf3f7b0e050e310abde53e7f847",
      "blockNumber": 54426,
      "transactionIndex": 1,
      "confirmations": null,
      "from": "0x773141127d8cf318aeBF88365ADd3d5527D85b6A",
      "gasPrice": {
        "_hex": "0xa7a358200"
      },
      "gasLimit": {
        "_hex": "0x55f0"
      },
      "to": "0xAf134ceB3E1C67ae88B0Bf50C0fC6D35BD353988",
      "value": {
        "_hex": "0x1043561a8829300000"
      },
      "nonce": 1,
      "data": "0x506f6c6f6e696578",
      "r": "0x6e46893f0ed92b0354bfad04d7b46e450efd56acdd5142337c942517e35f7ec6",
      "s": "0x1a361737e826854861de08800bbdbadbc3fac6af97b385c4b00c472ea72ac310",
      "v": 28,
      "creates": null,
      "raw": "0xf87501850a7a3582008255f094af134ceb3e1c67ae88b0bf50c0fc6d35bd353988891043561a882930000088506f6c6f6e6965781ca06e46893f0ed92b0354bfad04d7b46e450efd56acdd5142337c942517e35f7ec6a01a361737e826854861de08800bbdbadbc3fac6af97b385c4b00c472ea72ac310",
      "networkId": 0,
      "chainId": 0
    }
  ]
}