{
  "hash": "0x2ec86d492963aee5be3744d01331e9d6a80aa43cb903ccf7e0e6ea044da9db16",
  "parentHash": "0x08afe2c3316c5eddf41b3aadbb1f9014b1bf8e9873018d9a416f5c738fd346df",
  "number": 109405,
  "timestamp": 1439955937,
  "nonce": "0x601eb23e4bb004c9",
  "difficulty": 4475530568341,
  "gasLimit": {
    "_hex": "0x2fefd8"
  },
  "gasUsed": {
    "_hex": "0x5208"
  },
  "miner": "0xe6A7a1d47ff21B6321162AEA7C6CB457D5476Bca",
  "extraData": "0x476574682f76312e302e312d38326566323666362f6c696e75782f676f312e34",
  "transactions": [
    {
      "hash": "0xf0bce5493b6b514ac0577660b8861f03c07e2efc01340a1788f86b1d51e2ec5e",
      "blockHash": "0x2ec86d492963aee5be3744d01331e9d6a80aa43cb903ccf7e0e6ea044da9db16",
      "blockNumber": 109405,
      "transactionIndex": 0,
      "confirmations": null,
      "from": "0xdeE4977F74E6Aef6D627191c9A45D2627e331150",
      "gasPrice": {
        "_hex": "0xd45163121"
      },
      "gasLimit": {
        "_hex": "0x5208"
      },
      "to": "0x32Be343B94f860124dC4fEe278FDCBD38C102D88",
      "value": {
        "_hex": "0x1e5b4ba03df7ac000"
      },
      "nonce": 22,
      "data": "0x",
      "r": "0x98b386d0d27ca77c0bca5e5b3d82d94e1d77465164bba00b8e846bbf32b369cf",
      "s": "0x7e81face996cf208bb1d23ee77ae0cd753e8169e00def65881d3b949aa309a13",
      "v": 27,
      "creates": null,
      "raw": "0xf86d16850d451631218252089432be343b94f860124dc4fee278fdcbd38c102d888901e5b4ba03df7ac000801ba098b386d0d27ca77c0bca5e5b3d82d94e1d77465164bba00b8e846bbf32b369cfa07e81face996cf208bb1d23ee77ae0cd753e8169e00def65881d3b949aa309a13",
      "networkId": 0,
      "chainId": 0
    }
  ]
}