{
  "hash": "0xb1f7f03d97290be5e2a4ab657d64632c7bdcab5e650ef007fa7a978412e1dcd8",
  "parentHash": "0xeef8f26f12b8368e098d3a9ede8bcba9e41cd7108de6560bf7dc105f0c716724",
  "number": 78592,
  "timestamp": 1439456221,
  "nonce": "0x9430a64c7ec460ac",
  "difficulty": 2297652373356,
  "gasLimit": {
    "_hex": "0x2fefd8"
  },
  "gasUsed": {
    "_hex": "0x5208"
  },
  "miner": "0x8B454d830feF179e66206840F8F3D1d83bC32b17",
  "extraData": "0x476574682f76312e302e312f77696e646f77732f676f312e342e32",
  "transactions": [
    {
      "hash": "0x717c6dc052bd6c17f66bc3b4560c0f386ffb68c72a180969dd45dd8c2392f2f7",
      "blockHash": "0xb1f7f03d97290be5e2a4ab657d64632c7bdcab5e650ef007fa7a978412e1dcd8",
      "blockNumber": 78592,
      "transactionIndex": 0,
      "confirmations": null,
      "from": "0x92857A8BC0A6F66180324f49541C695A3a0Ff944",
      "gasPrice": {
        "_hex": "0xde73dadf7"
      },
      "gasLimit": {
        "_hex": "0x5208"
      },
      "to": "0x32Be343B94f860124dC4fEe278FDCBD38C102D88",
      "value": {
        "_hex": "0x1236a883b1aa7a000"
      },
      "nonce": 0,
      "data": "0x",
      "r": "0x8727333db12e77dd21fcdef5537c77cf1d0eb7df5af2537185c260ff63279006",
      "s": "0x42972bf5abd2793b71154ba1d56cbfe6f4eb16efdff27209c0c976885b19e37d",
      "v": 27,
      "creates": null,
      "raw": "0xf86d80850de73dadf78252089432be343b94f860124dc4fee278fdcbd38c102d888901236a883b1aa7a000801ba08727333db12e77dd21fcdef5537c77cf1d0eb7df5af2537185c260ff63279006a042972bf5abd2793b71154ba1d56cbfe6f4eb16efdff27209c0c976885b19e37d",
      "networkId": 0,
      "chainId": 0
    }
  ]
}