{
  "hash": "0xe9032827210a0fe0382bf2ce98cfe2a9934ddc480b7f6c79ace82c13b507e0fb",
  "parentHash": "0x6f4ee494c8d7485d34ea594a33cb5b04ccff0f6878cb3675d7ca2a9d3549edef",
  "number": 58027,
  "timestamp": 1439113706,
  "nonce": "0xfc5207cba95a98e5",
  "difficulty": 1715845250717,
  "gasLimit": {
    "_hex": "0x2fefd8"
  },
  "gasUsed": {
    "_hex": "0x5208"
  },
  "miner": "0x1217627fe41A00f0b828317F43E6d58F47dBfc43",
  "extraData": "0x476574682f76312e302e302d66313265303136312f6c696e75782f676f312e34",
  "transactions": [
    {
      "hash": "0x2f474dfce9317a1826bf1ce1128b896df0d0f04d8fe9a5e0616e4210ead0d018",
      "blockHash": "0xe9032827210a0fe0382bf2ce98cfe2a9934ddc480b7f6c79ace82c13b507e0fb",
      "blockNumber": 58027,
      "transactionIndex": 0,
      "confirmations": null,
      "from": "0xB0F2F4EFA0067029607C735c3D365B5c5Ab263C2",
      "gasPrice": {
        "_hex": "0xd97a1b590"
      },
      "gasLimit": {
        "_hex": "0x15f90"
      },
      "to": "0x6e8514a1a6cB23D6fF33f62fFAbBa5172417cCEA",
      "value": {
        "_hex": "0x1"
      },
      "nonce": 0,
      "data": "0x",
      "r": "0x3620111d0374454b236c0cba9334ae72b486d6f74425237128c775707ea048bb",
      "s": "0x1814df72bbb0e972fc77116991efb985ee55d5c3a261222cf6848519648e6e84",
      "v": 28,
      "creates": null,
      "raw": "0xf86580850d97a1b59083015f90946e8514a1a6cb23d6ff33f62ffabba5172417ccea01801ca03620111d0374454b236c0cba9334ae72b486d6f74425237128c775707ea048bba01814df72bbb0e972fc77116991efb985ee55d5c3a261222cf6848519648e6e84",
      "networkId": 0,
      "chainId": 0
    }
  ]
}