{
  "hash": "0x6bd30fb35d3c9132168157666dce5d890ec0bd07bf2acafaa7d0bb799e291e15",
  "parentHash": "0x37f3974acb1ea8cbbd80117054b184d89b65b30d313b06ea17e047f13fc8ff64",
  "number": 46366,
  "timestamp": 1438921936,
  "nonce": "0xee63547a067ad4f2",
  "difficulty": 1461809146339,
  "gasLimit": {
    "_hex": "0x5d40"
  },
  "gasUsed": {
    "_hex": "0x5208"
  },
  "miner": "0x4947190fcC30D3fb3a16233b259bFe6b3492339a",
  "extraData": "0x476574682f76312e302e312f6c696e75782f676f312e342e32",
  "transactions": [
    {
      "hash": "0xbab6d130b93743acc1b0660016ee092c0832bc839b143ac752309e9515beca3a",
      "blockHash": "0x6bd30fb35d3c9132168157666dce5d890ec0bd07bf2acafaa7d0bb799e291e15",
      "blockNumber": 46366,
      "transactionIndex": 0,
      "confirmations": null,
      "from": "0xf7500C166f8beA2f82347606e5024BE9e4f4cE99",
      "gasPrice": {
        "_hex": "0x746a528800"
      },
      "gasLimit": {
        "_hex": "0x55f0"
      },
      "to": "0x2A3A69c490DD4c3b15959D4dF6531d37E4F3e0d6",
      "value": {
        "_hex": "0x2386f26fc10000"
      },
      "nonce": 1,
      "data": "0x",
      "r": "0x2406f94698640e53eb78654934126992a0ca5f5dced5484fe0abeb9907813093",
      "s": "0x099d828c0acd06794bcced3fa07aaa01080029e433ccf97371a17be38cf39f9b",
      "v": 27,
      "creates": null,
      "raw": "0xf86b0185746a5288008255f0942a3a69c490dd4c3b15959d4df6531d37e4f3e0d6872386f26fc10000801ba02406f94698640e53eb78654934126992a0ca5f5dced5484fe0abeb9907813093a0099d828c0acd06794bcced3fa07aaa01080029e433ccf97371a17be38cf39f9b",
      "networkId": 0,
      "chainId": 0
    }
  ]
}