{
  "hash": "0xdec103646e7ba201309a53eca959e5687ff11da18d179822b848d2c050d125b0",
  "parentHash": "0xfb30a2ddd37270e21f2e2642e799f5d20217ace66f2616da1dc083a96a8e05cc",
  "number": 104709,
  "timestamp": 1439874135,
  "nonce": "0x84d79395f4223fd7",
  "difficulty": 4361506498014,
  "gasLimit": {
    "_hex": "0x2fefd8"
  },
  "gasUsed": {
    "_hex": "0x5208"
  },
  "miner": "0x792Bd2fbb38fafDb9Ea425aeAD48A365062a600e",
  "extraData": "0x476574682f76312e302e312f77696e646f77732f676f312e342e32",
  "transactions": [
    {
      "hash": "0xd9c86c31c3323a9d8d6cbb86086423caffc95d96b2b0a6a27f8cac9ba113e8eb",
      "blockHash": "0xdec103646e7ba201309a53eca959e5687ff11da18d179822b848d2c050d125b0",
      "blockNumber": 104709,
      "transactionIndex": 0,
      "confirmations": null,
      "from": "0xE300c4587D260cE22a677755Db6429B491A4309E",
      "gasPrice": {
        "_hex": "0xcb4e2e443"
      },
      "gasLimit": {
        "_hex": "0x15f90"
      },
      "to": "0x06EC48800B2DB3eEfa052e98A9b5Fc2Bf783Ee74",
      "value": {
        "_hex": "0x115b1ccfb83910000"
      },
      "nonce": 15,
      "data": "0x",
      "r": "0x62dc17c823a371a260c0488ac3ba6c93feb87292b3e68c0ac4777fb11fba26be",
      "s": "0x3f00fc10ae9d21cca9a9eee1712a7038e233aa45472589c64e213c534b885008",
      "v": 27,
      "creates": null,
      "raw": "0xf86e0f850cb4e2e44383015f909406ec48800b2db3eefa052e98a9b5fc2bf783ee74890115b1ccfb83910000801ba062dc17c823a371a260c0488ac3ba6c93feb87292b3e68c0ac4777fb11fba26bea03f00fc10ae9d21cca9a9eee1712a7038e233aa45472589c64e213c534b885008",
      "networkId": 0,
      "chainId": 0
    }
  ]
}