{
  "hash": "0xc57a7b670f6e1a6f5741f94a2baaf2049285654c5fe6b97334354ce0f5a9cfa3",
  "parentHash": "0x82566e26e056e3f6286449d5dab080a62f3487f275611ca2477e4f8d779fc4b9",
  "number": 53974,
  "timestamp": 1439046590,
  "nonce": "0xe31b0b0520bd751f",
  "difficulty": 1610305839312,
  "gasLimit": {
    "_hex": "0x2fefd8"
  },
  "gasUsed": {
    "_hex": "0x5208"
  },
  "miner": "0x2134e2a2b718DCa96580ECAC31E653Ea1fdd58DA",
  "extraData": "0x476574682f76312e302e312f77696e646f77732f676f312e342e32",
  "transactions": [
    {
      "hash": "0xaf93b201db470cd7367529518fdf49c29da25d9528c002a672f32a0f098bf428",
      "blockHash": "0xc57a7b670f6e1a6f5741f94a2baaf2049285654c5fe6b97334354ce0f5a9cfa3",
      "blockNumber": 53974,
      "transactionIndex": 0,
      "confirmations": null,
      "from": "0xc0cA3277942e7445874bE31CEB902972714f1823",
      "gasPrice": {
        "_hex": "0xd8cf38e86"
      },
      "gasLimit": {
        "_hex": "0x15f90"
      },
      "to": "0xe8D649ccD65bFFbe7BeFD589C5130bCe1FAdEa07",
      "value": {
        "_hex": "0xd8d4ee47f07e70000"
      },
      "nonce": 0,
      "data": "0x",
      "r": "0x5cd932a09c983fe2583499bb859abc46971f23618ab4dac5e32b536e2e676d52",
      "s": "0x25d11b3810618eccdae6425c687aa9738cfe66bf476b3a7036edcabe8157438a",
      "v": 27,
      "creates": null,
      "raw": "0xf86e80850d8cf38e8683015f9094e8d649ccd65bffbe7befd589c5130bce1fadea07890d8d4ee47f07e70000801ba05cd932a09c983fe2583499bb859abc46971f23618ab4dac5e32b536e2e676d52a025d11b3810618eccdae6425c687aa9738cfe66bf476b3a7036edcabe8157438a",
      "networkId": 0,
      "chainId": 0
    }
  ]
}