{
  "hash": "0x291742e6d3be935eac063ab7129774f6a32a6308d6b7bf1cc26f8577d041cd44",
  "parentHash": "0xb4f5edbc3c75d6c10532428455e3589ed1f8be6248b1df81ad751e73038179bc",
  "number": 78824,
  "timestamp": 1439460047,
  "nonce": "0xd6c295d4401fb5ff",
  "difficulty": 2286397477611,
  "gasLimit": {
    "_hex": "0x2fefd8"
  },
  "gasUsed": {
    "_hex": "0x5208"
  },
  "miner": "0x02dE7d35a60bf6A216411476040ec648668769D7",
  "extraData": "0x476574682f76312e302e312f77696e646f77732f676f312e342e32",
  "transactions": [
    {
      "hash": "0x075fdc813d4e818c41b2997935c07c7cd76722d8eca3af5736cacb9e91b6f498",
      "blockHash": "0x291742e6d3be935eac063ab7129774f6a32a6308d6b7bf1cc26f8577d041cd44",
      "blockNumber": 78824,
      "transactionIndex": 0,
      "confirmations": null,
      "from": "0x5170535271F5B9eC438c0447b3daD67b3E2633f2",
      "gasPrice": {
        "_hex": "0xba43b7400"
      },
      "gasLimit": {
        "_hex": "0x5208"
      },
      "to": "0xC47Aaa860008be6f65B58c6C6E02a84e666EfE31",
      "value": {
        "_hex": "0x53408d3dbf5438f0"
      },
      "nonce": 5,
      "data": "0x",
      "r": "0x3b4f0c73dffc15444a4a522e52233d3b7de59265a9c56dc4e65ff5c78e5b3981",
      "s": "0x7e441d76053d5bd4112dc49f238021f88512c666e88b04607210923b9580413a",
      "v": 27,
      "creates": null,
      "raw": "0xf86c05850ba43b740082520894c47aaa860008be6f65b58c6c6e02a84e666efe318853408d3dbf5438f0801ba03b4f0c73dffc15444a4a522e52233d3b7de59265a9c56dc4e65ff5c78e5b3981a07e441d76053d5bd4112dc49f238021f88512c666e88b04607210923b9580413a",
      "networkId": 0,
      "chainId": 0
    }
  ]
}