{
  "hash": "0x726e9ad4cc5fe26db46b24e64b62d40f19fd88832d4191cfaa2e4071e5a0ab79",
  "parentHash": "0x5c60913fa2c31b69619c7b739babf8ba58933d8acb80226e24eedda4f3ffe74a",
  "number": 108264,
  "timestamp": 1439937343,
  "nonce": "0xbffecf4d691f1bfb",
  "difficulty": 4353276986920,
  "gasLimit": {
    "_hex": "0x2fefd8"
  },
  "gasUsed": {
    "_hex": "0xa410"
  },
  "miner": "0xe6A7a1d47ff21B6321162AEA7C6CB457D5476Bca",
  "extraData": "0x476574682f76312e302e312d38326566323666362f6c696e75782f676f312e34",
  "transactions": [
    {
      "hash": "0xa4d24c2fa79088c58a6f43081e64baf2c7f8a701bbcf14d283a9a75b86133236",
      "blockHash": "0x726e9ad4cc5fe26db46b24e64b62d40f19fd88832d4191cfaa2e4071e5a0ab79",
      "blockNumber": 108264,
      "transactionIndex": 0,
      "confirmations": null,
      "from": "0xFBb1b73C4f0BDa4f67dcA266ce6Ef42f520fBB98",
      "gasPrice": {
        "_hex": "0xcef0f65de"
      },
      "gasLimit": {
        "_hex": "0x5208"
      },
      "to": "0x8CdC27BF95732811eBD9b0a9e7E957A30C4582Ac",
      "value": {
        "_hex": "0x739afb419cf6800"
      },
      "nonce": 166,
      "data": "0x",
      "r": "0x82288719da48f43b2b1750d1fbb73b1946d04aa9be43a4c19b624ccdce4eaa99",
      "s": "0x307d2bfa14a2716e61c5de75368ba4b2ea6fca0471c3cb97ee5e81d87905ad10",
      "v": 28,
      "creates": null,
      "raw": "0xf86d81a6850cef0f65de825208948cdc27bf95732811ebd9b0a9e7e957a30c4582ac880739afb419cf6800801ca082288719da48f43b2b1750d1fbb73b1946d04aa9be43a4c19b624ccdce4eaa99a0307d2bfa14a2716e61c5de75368ba4b2ea6fca0471c3cb97ee5e81d87905ad10",
      "networkId": 0,
      "chainId": 0
    },
    {
      "hash": "0xd2d7ff28dcfc97f4a7cdbefbaf46d70940d33444b63aa06e32b572bef51aeebd",
      "blockHash": "0x726e9ad4cc5fe26db46b24e64b62d40f19fd88832d4191cfaa2e4071e5a0ab79",
      "blockNumber": 108264,
      "transactionIndex": 1,
      "confirmations": null,
      "from": "0xFBb1b73C4f0BDa4f67dcA266ce6Ef42f520fBB98",
      "gasPrice": {
        "_hex": "0xcef0f65de"
      },
      "gasLimit": {
        "_hex": "0x5208"
      },
      "to": "0x0fCA66B29fD596F59398744163e3eB9C323E5133",
      "value": {
        "_hex": "0x33dbb82f80edcc00"
      },
      "nonce": 167,
      "data": "0x",
      "r": "0xa69406f019ca71b789fb6d6ecaa6ae662d56cbb46231c17f82d4748ab7a7beb5",
      "s": "0x19010584eecb573afbfaa8e23298ff1bce4bce770e106998ba0a81a2204d8480",
      "v": 28,
      "creates": null,
      "raw": "0xf86d81a7850cef0f65de825208940fca66b29fd596f59398744163e3eb9c323e51338833dbb82f80edcc00801ca0a69406f019ca71b789fb6d6ecaa6ae662d56cbb46231c17f82d4748ab7a7beb5a019010584eecb573afbfaa8e23298ff1bce4bce770e106998ba0a81a2204d8480",
      "networkId": 0,
      "chainId": 0
    }
  ]
}