{
  "hash": "0xc3efe8e631169cf8e01eea990f758ac3eba2729df44fe0c0dbcefe5577e8aeae",
  "parentHash": "0x97807eef7c0085fb0e4e415660db09cf705f33fa991730a34d83c7a19835be6f",
  "number": 121036,
  "timestamp": 1440170323,
  "nonce": "0xd1764d934012ee0d",
  "difficulty": 4432384061386,
  "gasLimit": {
    "_hex": "0x2fefd8"
  },
  "gasUsed": {
    "_hex": "0x5208"
  },
  "miner": "0x52bc44d5378309EE2abF1539BF71dE1b7d7bE3b5",
  "extraData": "0xd783010002844765746887676f312e342e32856c696e7578",
  "transactions": [
    {
      "hash": "0xbe0a776c6f9f5e32b2aab03ce4a413df58783317991e1cca1f23fd9f5df84e83",
      "blockHash": "0xc3efe8e631169cf8e01eea990f758ac3eba2729df44fe0c0dbcefe5577e8aeae",
      "blockNumber": 121036,
      "transactionIndex": 0,
      "confirmations": null,
      "from": "0x8e33bFA30c0c6eb3652321FF52E2fB3143fa51BF",
      "gasPrice": {
        "_hex": "0xba43b7400"
      },
      "gasLimit": {
        "_hex": "0x15f90"
      },
      "to": "0xAc797d6B17880E5C07Dd791675b3A64C2c84f39F",
      "value": {
        "_hex": "0x16345785d8a0000"
      },
      "nonce": 5,
      "data": "0x",
      "r": "0xbbce9711cfcb5722fc67c5d19fb86a546cdf93d1e5f004a598a62a8770d67b35",
      "s": "0x6e443dc334136d1a79fc6e3b6c8b07015a577fa08286f15c341679e1368d8c9e",
      "v": 27,
      "creates": null,
      "raw": "0xf86d05850ba43b740083015f9094ac797d6b17880e5c07dd791675b3a64c2c84f39f88016345785d8a0000801ba0bbce9711cfcb5722fc67c5d19fb86a546cdf93d1e5f004a598a62a8770d67b35a06e443dc334136d1a79fc6e3b6c8b07015a577fa08286f15c341679e1368d8c9e",
      "networkId": 0,
      "chainId": 0
    }
  ]
}