{
  "hash": "0x95c8cacd1262154ea01120651fbf42b40d61a9b630a514b78d0863a292b70092",
  "parentHash": "0x5ad6d977d20b2b7e299b70175649a0f164618d593c9690c3aa34da09affe49cc",
  "number": 48495,
  "timestamp": 1438958108,
  "nonce": "0xdbde093e550ddda9",
  "difficulty": 1460724772471,
  "gasLimit": {
    "_hex": "0x182ce"
  },
  "gasUsed": {
    "_hex": "0xf87c"
  },
  "miner": "0x97A2b04809Fd7Dfa5C1d7B25e38Aad46964330F5",
  "extraData": "0x476574682f76312e302e312f6c696e75782f676f312e342e32",
  "transactions": [
    {
      "hash": "0x9a0badb18ac5a2fdf0fc1a63768613c2e61039f2952f24c8de92607ab4e421e3",
      "blockHash": "0x95c8cacd1262154ea01120651fbf42b40d61a9b630a514b78d0863a292b70092",
      "blockNumber": 48495,
      "transactionIndex": 0,
      "confirmations": null,
      "from": "0x671110d96aAFf11523CC546Bf9940EedFfB2faF7",
      "gasPrice": {
        "_hex": "0x3a87c21799"
      },
      "gasLimit": {
        "_hex": "0x15f90"
      },
      "to": "0x2910543Af39abA0Cd09dBb2D50200b3E800A63D2",
      "value": {
        "_hex": "0x3635c9adc5dea00000"
      },
      "nonce": 5,
      "data": "0x454e4d353836443847",
      "r": "0x74bfb53002abf725200aacf7ff5f174dadec52a71fa033b510ab590963fdd3f7",
      "s": "0x6e2992365148ab2e519d249e7765ef65457389a3339a9e31c714bb6277410956",
      "v": 28,
      "creates": null,
      "raw": "0xf87705853a87c2179983015f90942910543af39aba0cd09dbb2d50200b3e800a63d2893635c9adc5dea0000089454e4d3538364438471ca074bfb53002abf725200aacf7ff5f174dadec52a71fa033b510ab590963fdd3f7a06e2992365148ab2e519d249e7765ef65457389a3339a9e31c714bb6277410956",
      "networkId": 0,
      "chainId": 0
    },
    {
      "hash": "0x39e07dd12a52ee0e5487e871de75afee90e92d3cb37c4b648dbe985c346fbfaf",
      "blockHash": "0x95c8cacd1262154ea01120651fbf42b40d61a9b630a514b78d0863a292b70092",
      "blockNumber": 48495,
      "transactionIndex": 1,
      "confirmations": null,
      "from": "0x3Fea87A96a61a1c83b110b8E0A2FFA6F009b78c9",
      "gasPrice": {
        "_hex": "0xccd908c54"
      },
      "gasLimit": {
        "_hex": "0x5208"
      },
      "to": "0x32Be343B94f860124dC4fEe278FDCBD38C102D88",
      "value": {
        "_hex": "0x15f2b38d9f03000"
      },
      "nonce": 0,
      "data": "0x",
      "r": "0x2025d3cb2bb6aa5611391a65deb7781d604df3cc43ed90676ad0fa261c6bc93d",
      "s": "0x74d1190afae75a1b25493517e6dfe2f2867b91fc16781bd2953ef68f98238abf",
      "v": 27,
      "creates": null,
      "raw": "0xf86c80850ccd908c548252089432be343b94f860124dc4fee278fdcbd38c102d8888015f2b38d9f03000801ba02025d3cb2bb6aa5611391a65deb7781d604df3cc43ed90676ad0fa261c6bc93da074d1190afae75a1b25493517e6dfe2f2867b91fc16781bd2953ef68f98238abf",
      "networkId": 0,
      "chainId": 0
    },
    {
      "hash": "0x6c4a0a631085b22bdca6b57217758d13c2a66804ddc1e47ca1a2349abdbc3885",
      "blockHash": "0x95c8cacd1262154ea01120651fbf42b40d61a9b630a514b78d0863a292b70092",
      "blockNumber": 48495,
      "transactionIndex": 2,
      "confirmations": null,
      "from": "0xBB33a4b72d92FA335a3b591Ce7eE217f7a7338C1",
      "gasPrice": {
        "_hex": "0xccd908c54"
      },
      "gasLimit": {
        "_hex": "0x5208"
      },
      "to": "0x32Be343B94f860124dC4fEe278FDCBD38C102D88",
      "value": {
        "_hex": "0x3635c593865b060000"
      },
      "nonce": 1,
      "data": "0x",
      "r": "0xfd64b5d00aa9736dfaf2689cf1ef7c21bca8771b8982f67424aa3623e396499e",
      "s": "0x07dbe3b2dc57d9ab620ebced38b296f53d2f8415de84f90dde15e6cd044a46f1",
      "v": 27,
      "creates": null,
      "raw": "0xf86d01850ccd908c548252089432be343b94f860124dc4fee278fdcbd38c102d88893635c593865b060000801ba0fd64b5d00aa9736dfaf2689cf1ef7c21bca8771b8982f67424aa3623e396499ea007dbe3b2dc57d9ab620ebced38b296f53d2f8415de84f90dde15e6cd044a46f1",
      "networkId": 0,
      "chainId": 0
    }
  ]
}