{
  "hash": "0x09dc7f67f4542a14bdcbabe8b29bca23daf85b206a451b213f16066fec2c2a44",
  "parentHash": "0xb9288ed9186ef009e6ce0c5bb38c8445388b6962676f8e7fc8895892b92a48f4",
  "number": 68282,
  "timestamp": 1439285284,
  "nonce": "0x751d52fc5a06e9ef",
  "difficulty": 1994790048772,
  "gasLimit": {
    "_hex": "0x2fefd8"
  },
  "gasUsed": {
    "_hex": "0x5208"
  },
  "miner": "0xbb7B8287f3F0a933474a79eAe42CBCa977791171",
  "extraData": "0x476574682f4c5649562f76312e302e312f6c696e75782f676f312e342e32",
  "transactions": [
    {
      "hash": "0x9d02d5dae7f2b50dd513e8733ce62dc64b885af62bf2c2fa6bfebd8d91c9b8a7",
      "blockHash": "0x09dc7f67f4542a14bdcbabe8b29bca23daf85b206a451b213f16066fec2c2a44",
      "blockNumber": 68282,
      "transactionIndex": 0,
      "confirmations": null,
      "from": "0x1D2cD902cf277c0646efCB5dAc0db660B23884aA",
      "gasPrice": {
        "_hex": "0xba43b7400"
      },
      "gasLimit": {
        "_hex": "0x5208"
      },
      "to": "0x289dA0A044e199cBB6eDa2154c10c72dE3B536c8",
      "value": {
        "_hex": "0x36ef271c4dd000"
      },
      "nonce": 1,
      "data": "0x",
      "r": "0x5ad1bc2e86351e2ee7bfd8bc38b0037ad91bc8200af802c68f0f09a49a47456a",
      "s": "0x566f7993f29f802652e819ed954e1b41696c9d9ca3d40c73f52c8fbbb126bbe5",
      "v": 27,
      "creates": null,
      "raw": "0xf86b01850ba43b740082520894289da0a044e199cbb6eda2154c10c72de3b536c88736ef271c4dd000801ba05ad1bc2e86351e2ee7bfd8bc38b0037ad91bc8200af802c68f0f09a49a47456aa0566f7993f29f802652e819ed954e1b41696c9d9ca3d40c73f52c8fbbb126bbe5",
      "networkId": 0,
      "chainId": 0
    }
  ]
}