{
  "hash": "0x5eb5e77016dce99f550d09808e1b8fa56df3769963c9ca60fc36126e41f972a7",
  "parentHash": "0x82df3af9ebb72a3a5da918ca615efad085f0b91d9c55407345faf6436e4875dd",
  "number": 94511,
  "timestamp": 1439709642,
  "nonce": "0xb7537b41e518982b",
  "difficulty": 3481525999544,
  "gasLimit": {
    "_hex": "0x2fefd8"
  },
  "gasUsed": {
    "_hex": "0xa410"
  },
  "miner": "0xe6A7a1d47ff21B6321162AEA7C6CB457D5476Bca",
  "extraData": "0x476574682f76312e302e312d38326566323666362f6c696e75782f676f312e34",
  "transactions": [
    {
      "hash": "0x260ee7cde061e9fbc9ed7fd0cb993739e59dcb173ddafb05d7bfb2e0615a5d8c",
      "blockHash": "0x5eb5e77016dce99f550d09808e1b8fa56df3769963c9ca60fc36126e41f972a7",
      "blockNumber": 94511,
      "transactionIndex": 0,
      "confirmations": null,
      "from": "0xE3A4CD0E7193d90A4e94EAb73d2a546a34130170",
      "gasPrice": {
        "_hex": "0xd09bd4681"
      },
      "gasLimit": {
        "_hex": "0x5208"
      },
      "to": "0x32Be343B94f860124dC4fEe278FDCBD38C102D88",
      "value": {
        "_hex": "0xe00101e91131000"
      },
      "nonce": 0,
      "data": "0x",
      "r": "0x89ec7fb1eca3702f5876469af7f098ced48caff140a2962283edcddcedfb1a61",
      "s": "0x31af1710076227a25258ab35f81be44c5f7a13cd7fd9f6a643159220f9738520",
      "v": 28,
      "creates": null,
      "raw": "0xf86c80850d09bd46818252089432be343b94f860124dc4fee278fdcbd38c102d88880e00101e91131000801ca089ec7fb1eca3702f5876469af7f098ced48caff140a2962283edcddcedfb1a61a031af1710076227a25258ab35f81be44c5f7a13cd7fd9f6a643159220f9738520",
      "networkId": 0,
      "chainId": 0
    },
    {
      "hash": "0x39266352e2ed8e62b4048b5c3d5ba88b560657bbd69dfbfec4e2a2c79327391c",
      "blockHash": "0x5eb5e77016dce99f550d09808e1b8fa56df3769963c9ca60fc36126e41f972a7",
      "blockNumber": 94511,
      "transactionIndex": 1,
      "confirmations": null,
      "from": "0x37c004E1cfDc61738ddA1284Cab255A81e2F00e1",
      "gasPrice": {
        "_hex": "0xd09bd4681"
      },
      "gasLimit": {
        "_hex": "0x5208"
      },
      "to": "0x32Be343B94f860124dC4fEe278FDCBD38C102D88",
      "value": {
        "_hex": "0x1c9acc826bb1000"
      },
      "nonce": 0,
      "data": "0x",
      "r": "0x69b7fab6d2605c24608e4deeabefb9efc74246a8a30fe2c2d393fe7f1fd338fd",
      "s": "0x30b0108dd65527348e0b1ebd1ef5ac4d23dff2df9adfe6850cf36ebd7a08ee6e",
      "v": 28,
      "creates": null,
      "raw": "0xf86c80850d09bd46818252089432be343b94f860124dc4fee278fdcbd38c102d888801c9acc826bb1000801ca069b7fab6d2605c24608e4deeabefb9efc74246a8a30fe2c2d393fe7f1fd338fda030b0108dd65527348e0b1ebd1ef5ac4d23dff2df9adfe6850cf36ebd7a08ee6e",
      "networkId": 0,
      "chainId": 0
    }
  ]
}