{
  "hash": "0xb8b4ae5ff5275283e782e87b80cc35db70dea460315095b3bf3fc899c824fa30",
  "parentHash": "0xcf2810c59532ecf21867a6457cb5417daf6fe77dc9b1243972d75c9635975bb8",
  "number": 105912,
  "timestamp": 1439895472,
  "nonce": "0x3660ce3828cfc72e",
  "difficulty": 4457761677179,
  "gasLimit": {
    "_hex": "0x2fefd8"
  },
  "gasUsed": {
    "_hex": "0x5208"
  },
  "miner": "0xe6A7a1d47ff21B6321162AEA7C6CB457D5476Bca",
  "extraData": "0x476574682f76312e302e312d38326566323666362f6c696e75782f676f312e34",
  "transactions": [
    {
      "hash": "0x803782815b24c6a85d7cdde199a3bc79ccf346818287fa9b5cece4a7158373a6",
      "blockHash": "0xb8b4ae5ff5275283e782e87b80cc35db70dea460315095b3bf3fc899c824fa30",
      "blockNumber": 105912,
      "transactionIndex": 0,
      "confirmations": null,
      "from": "0xBe750c24427887537FBc1E67Ed096a59dF3a4cC4",
      "gasPrice": {
        "_hex": "0xd7d40ace3"
      },
      "gasLimit": {
        "_hex": "0x15f90"
      },
      "to": "0x8C37447a7930187595EC51FEA6f749C4F8a96cD4",
      "value": {
        "_hex": "0x4563918244f40000"
      },
      "nonce": 0,
      "data": "0x",
      "r": "0xdd6a3b9e3e9302a5a1d6b2b72400faa104d3a224a364a30e80559635a3bd67f4",
      "s": "0x6d642dbcb6bf1d2032b0db797aea43d61fa105bd89d7a322bb6538468685484c",
      "v": 28,
      "creates": null,
      "raw": "0xf86d80850d7d40ace383015f90948c37447a7930187595ec51fea6f749c4f8a96cd4884563918244f40000801ca0dd6a3b9e3e9302a5a1d6b2b72400faa104d3a224a364a30e80559635a3bd67f4a06d642dbcb6bf1d2032b0db797aea43d61fa105bd89d7a322bb6538468685484c",
      "networkId": 0,
      "chainId": 0
    }
  ]
}