{
  "hash": "0x3888e9942d5ba349ee0db304ac6d1105976b76be6b293331a8818911cf87d741",
  "parentHash": "0xbfa7b53cc3d566f74046ac9bb0892766219793f168a13af84e1c06c2fe2c3fe8",
  "number": 79163,
  "timestamp": 1439465643,
  "nonce": "0xe6156e03e11ec427",
  "difficulty": 2307614616629,
  "gasLimit": {
    "_hex": "0x2fefd8"
  },
  "gasUsed": {
    "_hex": "0x5208"
  },
  "miner": "0xf8E0CA3Ed80bd541b94BEdCf259e8CF2141A9523",
  "extraData": "0x476574682f76312e302e312f77696e646f77732f676f312e342e32",
  "transactions": [
    {
      "hash": "0x37d79c2d1f09ec03f4460817f5e8021ad7f486d4a3d1b1fb78bcaec4910138fa",
      "blockHash": "0x3888e9942d5ba349ee0db304ac6d1105976b76be6b293331a8818911cf87d741",
      "blockNumber": 79163,
      "transactionIndex": 0,
      "confirmations": null,
      "from": "0x120A270bbC009644e35F0bB6ab13f95b8199c4ad",
      "gasPrice": {
        "_hex": "0xccd91fd23"
      },
      "gasLimit": {
        "_hex": "0x3d090"
      },
      "to": "0x9f8aF3029af4Ba51bbAa32cF064816e07A35BBbD",
      "value": {
        "_hex": "0x20a57b3b4d3bbe0000"
      },
      "nonce": 332,
      "data": "0x",
      "r": "0x6a4ddd6aac1f1201e699ac7dd8a907e158658a10f6b86ec178a1f8f29acb8fd0",
      "s": "0x77b57383def8f75bba0a5605f1c3a475dd27b516f9b14f15a0576f698c6428de",
      "v": 28,
      "creates": null,
      "raw": "0xf87082014c850ccd91fd238303d090949f8af3029af4ba51bbaa32cf064816e07a35bbbd8920a57b3b4d3bbe0000801ca06a4ddd6aac1f1201e699ac7dd8a907e158658a10f6b86ec178a1f8f29acb8fd0a077b57383def8f75bba0a5605f1c3a475dd27b516f9b14f15a0576f698c6428de",
      "networkId": 0,
      "chainId": 0
    }
  ]
}