{
  "hash": "0x5d214021f3e36b40e266cdf670464bb565998a26040bf63c9b913071353ea4a2",
  "parentHash": "0xddd03d9d81aa0871c63b0aa57118841a8aa7eeb30a7f7402e1c53c66dbe9303d",
  "number": 81095,
  "timestamp": 1439496154,
  "nonce": "0x4d78b0d79f9b67df",
  "difficulty": 2434387018036,
  "gasLimit": {
    "_hex": "0x2fefd8"
  },
  "gasUsed": {
    "_hex": "0x10030"
  },
  "miner": "0x7Eb9F59f9547E376188eD83EFCD1F6dbF3712eA6",
  "extraData": "0x476574682f76312e302e312f77696e646f77732f676f312e342e32",
  "transactions": [
    {
      "hash": "0xafea862d5c922bba3fe56d02d33f0e94096d61b09190ebd6aec3494d76ef1fd9",
      "blockHash": "0x5d214021f3e36b40e266cdf670464bb565998a26040bf63c9b913071353ea4a2",
      "blockNumber": 81095,
      "transactionIndex": 0,
      "confirmations": null,
      "from": "0xa914cDb571BFd93D64da66a4e108EA134e50D000",
      "gasPrice": {
        "_hex": "0x9184e72a000"
      },
      "gasLimit": {
        "_hex": "0x55f0"
      },
      "to": "0x2910543Af39abA0Cd09dBb2D50200b3E800A63D2",
      "value": {
        "_hex": "0x56bc75e2d63100000"
      },
      "nonce": 15,
      "data": "0x454e43523838455252",
      "r": "0xaa2896b97f5081423ca24e576b71a8fe8f9216e3fd2cd8dbc6fa67de402b41ca",
      "s": "0x1336a6718a8ac48e0f5436107f32b0d319a5b14a8c3d4374702aed9ed131b097",
      "v": 27,
      "creates": null,
      "raw": "0xf8770f8609184e72a0008255f0942910543af39aba0cd09dbb2d50200b3e800a63d289056bc75e2d6310000089454e435238384552521ba0aa2896b97f5081423ca24e576b71a8fe8f9216e3fd2cd8dbc6fa67de402b41caa01336a6718a8ac48e0f5436107f32b0d319a5b14a8c3d4374702aed9ed131b097",
      "networkId": 0,
      "chainId": 0
    },
    {
      "hash": "0x327fa33ba1de5549f9fb007c1cae373a5f9f465880bb61c14b96e1cbf7db2795",
      "blockHash": "0x5d214021f3e36b40e266cdf670464bb565998a26040bf63c9b913071353ea4a2",
      "blockNumber": 81095,
      "transactionIndex": 1,
      "confirmations": null,
      "from": "0xA12E42660746c6a0484965f36D7b4d6a727BDa72",
      "gasPrice": {
        "_hex": "0x1152e37a128"
      },
      "gasLimit": {
        "_hex": "0x55f0"
      },
      "to": "0x2910543Af39abA0Cd09dBb2D50200b3E800A63D2",
      "value": {
        "_hex": "0x29a2241af62c00000"
      },
      "nonce": 6,
      "data": "0x454e31445432424d52",
      "r": "0xc6434f2f3d770bfc4387ac940b98bb0f1a4d64b904bce7d05d5327287a719eba",
      "s": "0x40f25ac986e6802fd806bb58134252496d0b000d577b5686182b2f3c35410e9d",
      "v": 27,
      "creates": null,
      "raw": "0xf877068601152e37a1288255f0942910543af39aba0cd09dbb2d50200b3e800a63d289029a2241af62c0000089454e31445432424d521ba0c6434f2f3d770bfc4387ac940b98bb0f1a4d64b904bce7d05d5327287a719ebaa040f25ac986e6802fd806bb58134252496d0b000d577b5686182b2f3c35410e9d",
      "networkId": 0,
      "chainId": 0
    },
    {
      "hash": "0x215989e87c36171ea2e66796ea1073375efa53c1527c8ad15709a47d75872683",
      "blockHash": "0x5d214021f3e36b40e266cdf670464bb565998a26040bf63c9b913071353ea4a2",
      "blockNumber": 81095,
      "transactionIndex": 2,
      "confirmations": null,
      "from": "0x745AecBAF9BB39b74a67ea1cE623dE368481baA6",
      "gasPrice": {
        "_hex": "0x174876e800"
      },
      "gasLimit": {
        "_hex": "0x15f90"
      },
      "to": "0x2910543Af39abA0Cd09dBb2D50200b3E800A63D2",
      "value": {
        "_hex": "0xde0b6b3a7640000"
      },
      "nonce": 0,
      "data": "0x584539384554484b52414b454e54523251485538",
      "r": "0x13003d77b0c17f66a2dfe4783b94c5b85172cf3cd3ff2a05680dcf94da602226",
      "s": "0x094836889aceefa4c1b203c5c5569a442cafe4e79f0fcc786081110ce8f753ed",
      "v": 27,
      "creates": null,
      "raw": "0xf8818085174876e80083015f90942910543af39aba0cd09dbb2d50200b3e800a63d2880de0b6b3a764000094584539384554484b52414b454e545232514855381ba013003d77b0c17f66a2dfe4783b94c5b85172cf3cd3ff2a05680dcf94da602226a0094836889aceefa4c1b203c5c5569a442cafe4e79f0fcc786081110ce8f753ed",
      "networkId": 0,
      "chainId": 0
    }
  ]
}