{
  "hash": "0xf2ac150db6cc8ca424a26c08be7d8336cafc63eec6e08d48879ec05c6352b4e8",
  "parentHash": "0x18d167ec805fdf2ee912cdcf6f2f5695e4fda29bd3546ca8adf4db2ea918a3ab",
  "number": 51609,
  "timestamp": 1439007886,
  "nonce": "0x45e04435e470da70",
  "difficulty": 1557395141212,
  "gasLimit": {
    "_hex": "0xc43bf"
  },
  "gasUsed": {
    "_hex": "0x7a120"
  },
  "miner": "0xf927a40C8B7F6E07c5af7FA2155B4864a4112B13",
  "extraData": "0x476574682f76312e302e312f6c696e75782f676f312e342e32",
  "transactions": [
    {
      "hash": "0x5459a3a488bf69ba92e33e7309306f0ff0a17d34adbabdc565c6826d5323aab7",
      "blockHash": "0xf2ac150db6cc8ca424a26c08be7d8336cafc63eec6e08d48879ec05c6352b4e8",
      "blockNumber": 51609,
      "transactionIndex": 0,
      "confirmations": null,
      "from": "0xFCf9f6A78f06227522c6f948ec0119dA31680Ef7",
      "gasPrice": {
        "_hex": "0xdc845cde8"
      },
      "gasLimit": {
        "_hex": "0x7a120"
      },
      "to": "0x109C4f2CCc82C4d77Bde15F306707320294Aea3F",
      "value": {
        "_hex": "0xde0b6b3a7640000"
      },
      "nonce": 20,
      "data": "0x",
      "r": "0x0b3c8142261da80fb2906b17eceebeecc3ebd65d5e493fb85147339b34552f4f",
      "s": "0x401d7b14e6ba9b2efa5947f7e69547449091b8b67e673a3b5159957e55f8465a",
      "v": 28,
      "creates": null,
      "raw": "0xf86d14850dc845cde88307a12094109c4f2ccc82c4d77bde15f306707320294aea3f880de0b6b3a7640000801ca00b3c8142261da80fb2906b17eceebeecc3ebd65d5e493fb85147339b34552f4fa0401d7b14e6ba9b2efa5947f7e69547449091b8b67e673a3b5159957e55f8465a",
      "networkId": 0,
      "chainId": 0
    }
  ]
}