{
  "hash": "0x0dbb1207dfb556864dbf267d346962fe760630753a340d6b362293fd3b116f71",
  "parentHash": "0x9cf09c0989c97a4667df7b63aad18786b406bd1baffbe774f10dce4cebfaedd3",
  "number": 114875,
  "timestamp": 1440047919,
  "nonce": "0xacfe99df8fb5b704",
  "difficulty": 4455176071019,
  "gasLimit": {
    "_hex": "0x2fefd8"
  },
  "gasUsed": {
    "_hex": "0xa410"
  },
  "miner": "0xe6A7a1d47ff21B6321162AEA7C6CB457D5476Bca",
  "extraData": "0x476574682f76312e302e312d38326566323666362f6c696e75782f676f312e34",
  "transactions": [
    {
      "hash": "0x9d43ca397666a6b71cd90c521e338f002da4049d003264a89a6a92bce2f42f77",
      "blockHash": "0x0dbb1207dfb556864dbf267d346962fe760630753a340d6b362293fd3b116f71",
      "blockNumber": 114875,
      "transactionIndex": 0,
      "confirmations": null,
      "from": "0x32Be343B94f860124dC4fEe278FDCBD38C102D88",
      "gasPrice": {
        "_hex": "0xdbc786fe7"
      },
      "gasLimit": {
        "_hex": "0x5208"
      },
      "to": "0xc30F3e11B4f34259ce948A5558F73f64fDc9Ed7B",
      "value": {
        "_hex": "0x30eac2b717817c0000"
      },
      "nonce": 1400,
      "data": "0x",
      "r": "0x7b77e8c0f6773e72ff569fbdae98780618d5478b62398373d4779eb8401c285b",
      "s": "0x1e04dce330c4da43e85352e1f54f0bbb76d6c4a4fcd28b5a274ebdea926c3103",
      "v": 27,
      "creates": null,
      "raw": "0xf86f820578850dbc786fe782520894c30f3e11b4f34259ce948a5558f73f64fdc9ed7b8930eac2b717817c0000801ba07b77e8c0f6773e72ff569fbdae98780618d5478b62398373d4779eb8401c285ba01e04dce330c4da43e85352e1f54f0bbb76d6c4a4fcd28b5a274ebdea926c3103",
      "networkId": 0,
      "chainId": 0
    },
    {
      "hash": "0x374add838db8e3c5baef539a893f680efa12b52a89735bb60935ff1532951039",
      "blockHash": "0x0dbb1207dfb556864dbf267d346962fe760630753a340d6b362293fd3b116f71",
      "blockNumber": 114875,
      "transactionIndex": 1,
      "confirmations": null,
      "from": "0x32Be343B94f860124dC4fEe278FDCBD38C102D88",
      "gasPrice": {
        "_hex": "0xdbc786fe7"
      },
      "gasLimit": {
        "_hex": "0x5208"
      },
      "to": "0x289B9bA6dC9c12D3130F1115180397C20cCBF220",
      "value": {
        "_hex": "0x6c6b6fd4994d800000"
      },
      "nonce": 1401,
      "data": "0x",
      "r": "0x37583f3a5239ab3b6db4bdda27f1b3a4810f4b791bf1542d70f3fa383291a87d",
      "s": "0x62f779ada63540076cd58155620ca99e770ef267757af53ad74d586ffcc68d33",
      "v": 28,
      "creates": null,
      "raw": "0xf86f820579850dbc786fe782520894289b9ba6dc9c12d3130f1115180397c20ccbf220896c6b6fd4994d800000801ca037583f3a5239ab3b6db4bdda27f1b3a4810f4b791bf1542d70f3fa383291a87da062f779ada63540076cd58155620ca99e770ef267757af53ad74d586ffcc68d33",
      "networkId": 0,
      "chainId": 0
    }
  ]
}