{
  "hash": "0xc98b7a428a6d8f76fcce2b4500608806c18407acfc59cc6cbb80998bc53c28ef",
  "parentHash": "0xdeddbe0f03e69fe6d68356357c5b4872d11896b3f70c89f9630f1294531675cb",
  "number": 117492,
  "timestamp": 1440110463,
  "nonce": "0xa776c3992884f2fc",
  "difficulty": 4302028432708,
  "gasLimit": {
    "_hex": "0x2fefd8"
  },
  "gasUsed": {
    "_hex": "0x5208"
  },
  "miner": "0xe6A7a1d47ff21B6321162AEA7C6CB457D5476Bca",
  "extraData": "0xd783010002844765746887676f312e342e32856c696e7578",
  "transactions": [
    {
      "hash": "0xad9a631f521e04695d9996e2217a245ebdeac21009de9f9c6321dc3ae8f366b9",
      "blockHash": "0xc98b7a428a6d8f76fcce2b4500608806c18407acfc59cc6cbb80998bc53c28ef",
      "blockNumber": 117492,
      "transactionIndex": 0,
      "confirmations": null,
      "from": "0x7871C9936A21B89507B5B65C7B13d8216D832D76",
      "gasPrice": {
        "_hex": "0xba43b7400"
      },
      "gasLimit": {
        "_hex": "0x15f90"
      },
      "to": "0x108feDb097c1DCfED441480170144D8e19BB217f",
      "value": {
        "_hex": "0x4563918244f40000"
      },
      "nonce": 11,
      "data": "0x",
      "r": "0x092add5ec2260751e5574d0e10f466f00500daac5a0b7b0b72bb8c8d5662a421",
      "s": "0x55be010a7b666ddf1004d47ce2451372f9368252b43499d6ba7302859d02f6af",
      "v": 28,
      "creates": null,
      "raw": "0xf86d0b850ba43b740083015f9094108fedb097c1dcfed441480170144d8e19bb217f884563918244f40000801ca0092add5ec2260751e5574d0e10f466f00500daac5a0b7b0b72bb8c8d5662a421a055be010a7b666ddf1004d47ce2451372f9368252b43499d6ba7302859d02f6af",
      "networkId": 0,
      "chainId": 0
    }
  ]
}