{
  "hash": "0xad1285908dfa8ffbfc04c0d8e9b84f64dd5bc204cb3e2797a0c9815990b96ac5",
  "parentHash": "0xdc0276b214125de066f60bd5589ad3e6ec5a9ee3750d4ff097d6cecf5f577c6b",
  "number": 119468,
  "timestamp": 1440143587,
  "nonce": "0x5381999421c0527b",
  "difficulty": 4390130250883,
  "gasLimit": {
    "_hex": "0x2fefd8"
  },
  "gasUsed": {
    "_hex": "0xa410"
  },
  "miner": "0x767D74B2FF125F1CC09922FA88b1002713090b78",
  "extraData": "0xd783010002844765746887676f312e342e32856c696e7578",
  "transactions": [
    {
      "hash": "0x237713698efc3814b4cc2252773acb45905cc597c5431aa84d105e189643a518",
      "blockHash": "0xad1285908dfa8ffbfc04c0d8e9b84f64dd5bc204cb3e2797a0c9815990b96ac5",
      "blockNumber": 119468,
      "transactionIndex": 0,
      "confirmations": null,
      "from": "0x378fCAEF49580b550cB7164f14811a5E613BD683",
      "gasPrice": {
        "_hex": "0xba43b7400"
      },
      "gasLimit": {
        "_hex": "0x5208"
      },
      "to": "0x32Be343B94f860124dC4fEe278FDCBD38C102D88",
      "value": {
        "_hex": "0x3b3989e9fe794000"
      },
      "nonce": 8,
      "data": "0x",
      "r": "0x15c7ddf51e0f05e60f0553aaafd28ea7b162cf28814661a370db53e5583e9695",
      "s": "0x751ab73b99dd32cfcc7ab357bfbe8ebf610d09d516026c51aceb208dc0b3bc34",
      "v": 28,
      "creates": null,
      "raw": "0xf86c08850ba43b74008252089432be343b94f860124dc4fee278fdcbd38c102d88883b3989e9fe794000801ca015c7ddf51e0f05e60f0553aaafd28ea7b162cf28814661a370db53e5583e9695a0751ab73b99dd32cfcc7ab357bfbe8ebf610d09d516026c51aceb208dc0b3bc34",
      "networkId": 0,
      "chainId": 0
    },
    {
      "hash": "0xf5f5116e2fb4c61c8ad6da9c662c2a3ab77b767a7e0a95a966e2a57d9dab7346",
      "blockHash": "0xad1285908dfa8ffbfc04c0d8e9b84f64dd5bc204cb3e2797a0c9815990b96ac5",
      "blockNumber": 119468,
      "transactionIndex": 1,
      "confirmations": null,
      "from": "0x608f4b86321a68453f9adf6F06F7Fc3E621739ad",
      "gasPrice": {
        "_hex": "0xba43b7400"
      },
      "gasLimit": {
        "_hex": "0x5208"
      },
      "to": "0x32Be343B94f860124dC4fEe278FDCBD38C102D88",
      "value": {
        "_hex": "0x8ad253ed10f2e000"
      },
      "nonce": 33,
      "data": "0x",
      "r": "0x7741add482870655adafe28a3be5c67f78e8a9d85699af735336927334b787e4",
      "s": "0x5c7e6994dcc7f1a93a16d1909d39943b9ab2c596733a0be5a74ffed4b1b94577",
      "v": 27,
      "creates": null,
      "raw": "0xf86c21850ba43b74008252089432be343b94f860124dc4fee278fdcbd38c102d88888ad253ed10f2e000801ba07741add482870655adafe28a3be5c67f78e8a9d85699af735336927334b787e4a05c7e6994dcc7f1a93a16d1909d39943b9ab2c596733a0be5a74ffed4b1b94577",
      "networkId": 0,
      "chainId": 0
    }
  ]
}