{
  "hash": "0xe9781119679a3db4c71658e455e0a292372e235b29f0bf15f0f46ed43dfb1495",
  "parentHash": "0x3e41e19e7380b4f7efe82cbafb2deaac4de645b3642c82bf9dfc90c57e03d88f",
  "number": 50664,
  "timestamp": 1438992769,
  "nonce": "0x2f24767bee97129b",
  "difficulty": 1526698810758,
  "gasLimit": {
    "_hex": "0x6feef"
  },
  "gasUsed": {
    "_hex": "0x5208"
  },
  "miner": "0xa50ec0D39fa913E62f1Bae7074E6F36caA71855b",
  "extraData": "0x",
  "transactions": [
    {
      "hash": "0x7aab4135251768b70d98e37bd682894b1315cd666b58fdb1daf585f91d2dacde",
      "blockHash": "0xe9781119679a3db4c71658e455e0a292372e235b29f0bf15f0f46ed43dfb1495",
      "blockNumber": 50664,
      "transactionIndex": 0,
      "confirmations": null,
      "from": "0x4E892e8081BF36E488FddB3b2630f3f1E8da30d2",
      "gasPrice": {
        "_hex": "0xd9ee4df2a"
      },
      "gasLimit": {
        "_hex": "0x15f90"
      },
      "to": "0x9c1478134D61258dD2c35DE561BD0Ff94678ab5e",
      "value": {
        "_hex": "0xccf5de4d11ddb4400"
      },
      "nonce": 0,
      "data": "0x",
      "r": "0x86f42f8126e2850b3aa657a5ba3ac5567e9088374f831c09c9e4a1985e53921f",
      "s": "0x6c230cbe99cc9970f107f67623b080600e4bceecfebccaae26db47710ea845e5",
      "v": 28,
      "creates": null,
      "raw": "0xf86e80850d9ee4df2a83015f90949c1478134d61258dd2c35de561bd0ff94678ab5e890ccf5de4d11ddb4400801ca086f42f8126e2850b3aa657a5ba3ac5567e9088374f831c09c9e4a1985e53921fa06c230cbe99cc9970f107f67623b080600e4bceecfebccaae26db47710ea845e5",
      "networkId": 0,
      "chainId": 0
    }
  ]
}