{
  "hash": "0x3b416156dad2277fa2efb93b168457f9d44f3e2061d12fb6b36c015793716b49",
  "parentHash": "0x807702ea4c56252e80f5ff6349b9f8781c16621bc02ecfdccc10f914bea85aae",
  "number": 53245,
  "timestamp": 1439034690,
  "nonce": "0x69979919557a9295",
  "difficulty": 1580068272565,
  "gasLimit": {
    "_hex": "0x22ae11"
  },
  "gasUsed": {
    "_hex": "0x5208"
  },
  "miner": "0x01d9DA08cc6Fb97c0DE1B6F4C28910A0859Ed1A1",
  "extraData": "0x476574682f76312e302e312f6c696e75782f676f312e342e32",
  "transactions": [
    {
      "hash": "0x01e6c943ffab9ed73910dcd3cd2128b53e7e8f4470c4456218977ca472e6672a",
      "blockHash": "0x3b416156dad2277fa2efb93b168457f9d44f3e2061d12fb6b36c015793716b49",
      "blockNumber": 53245,
      "transactionIndex": 0,
      "confirmations": null,
      "from": "0xC1EC81DD123d4b7C2Dd9B4d438a7072c11dc874c",
      "gasPrice": {
        "_hex": "0xd641f460d"
      },
      "gasLimit": {
        "_hex": "0x15f90"
      },
      "to": "0xc99aC82e248E1813A0F879e93418B2F4D9c29c36",
      "value": {
        "_hex": "0xde0b6b3a7640000"
      },
      "nonce": 0,
      "data": "0x",
      "r": "0x3b010bb47638a54de62ea14b833c6b52ca79d5c2baba36f6b6a86f369dd8475d",
      "s": "0x10e4f20ef63a073b83856ecfa31a74f511c4876b4c31b1b8a842e3186b64d002",
      "v": 27,
      "creates": null,
      "raw": "0xf86d80850d641f460d83015f9094c99ac82e248e1813a0f879e93418b2f4d9c29c36880de0b6b3a7640000801ba03b010bb47638a54de62ea14b833c6b52ca79d5c2baba36f6b6a86f369dd8475da010e4f20ef63a073b83856ecfa31a74f511c4876b4c31b1b8a842e3186b64d002",
      "networkId": 0,
      "chainId": 0
    }
  ]
}