{
  "hash": "0x8400707e48cf7f8059edf23fedb82f534af147ac85b4ae93f9eb9282c7419fb6",
  "parentHash": "0xd98379836a9ce1c60955029911c4bfb064f6eefd4278b3bd7a5a6fa707e62ea0",
  "number": 111481,
  "timestamp": 1439990953,
  "nonce": "0x4a88b0a0774f160f",
  "difficulty": 4443940535762,
  "gasLimit": {
    "_hex": "0x2fefd8"
  },
  "gasUsed": {
    "_hex": "0x5208"
  },
  "miner": "0x53824166ea5271d3425e3194c848A90CA4e97eB2",
  "extraData": "0x",
  "transactions": [
    {
      "hash": "0xa52f361ac606689a8bb1df7ffc14c60f59fb88a34f9000f0946fc77fffcad0e0",
      "blockHash": "0x8400707e48cf7f8059edf23fedb82f534af147ac85b4ae93f9eb9282c7419fb6",
      "blockNumber": 111481,
      "transactionIndex": 0,
      "confirmations": null,
      "from": "0x623d2411c3bb3340784155F9a688b0085251aB5c",
      "gasPrice": {
        "_hex": "0xdd86aa8c5"
      },
      "gasLimit": {
        "_hex": "0x55f0"
      },
      "to": "0x4A29dF8a7967b36664f256F18dAcf2e58E9f1E7E",
      "value": {
        "_hex": "0xdc4f5464015380000"
      },
      "nonce": 4,
      "data": "0x",
      "r": "0xee0e58776a2890647fa61c90336c44a0055b61fed7c9a1d63b09d13b3307161d",
      "s": "0x47e1097d862ae1ddde279121107893049786daad1195e6c036bbe87f389bdeb4",
      "v": 28,
      "creates": null,
      "raw": "0xf86d04850dd86aa8c58255f0944a29df8a7967b36664f256f18dacf2e58e9f1e7e890dc4f5464015380000801ca0ee0e58776a2890647fa61c90336c44a0055b61fed7c9a1d63b09d13b3307161da047e1097d862ae1ddde279121107893049786daad1195e6c036bbe87f389bdeb4",
      "networkId": 0,
      "chainId": 0
    }
  ]
}