{
  "hash": "0xf5e1273597476fd128f980889383bbd579d9408b13752407ad999ad7b8a62bc6",
  "parentHash": "0x3d33bc924ecb1cb012e0dcd64cd0a5906f508aa2b857960246ac819b7623d725",
  "number": 97116,
  "timestamp": 1439751081,
  "nonce": "0x0917babc7b056e9c",
  "difficulty": 3754081930537,
  "gasLimit": {
    "_hex": "0x2fefd8"
  },
  "gasUsed": {
    "_hex": "0x5208"
  },
  "miner": "0x157c6f2431eB1a95797EE86F7d17b3c0FD47A247",
  "extraData": "0x476574682f76312e302e312f77696e646f77732f676f312e342e32",
  "transactions": [
    {
      "hash": "0x07b1a1c66966c9a31515639e230b1f4d850dbc48386f35c78b0d9ee52dbef869",
      "blockHash": "0xf5e1273597476fd128f980889383bbd579d9408b13752407ad999ad7b8a62bc6",
      "blockNumber": 97116,
      "transactionIndex": 0,
      "confirmations": null,
      "from": "0x120A270bbC009644e35F0bB6ab13f95b8199c4ad",
      "gasPrice": {
        "_hex": "0xdfa1e8bbd"
      },
      "gasLimit": {
        "_hex": "0x3d090"
      },
      "to": "0xc5b8F250e32F63eb28ED6d6ED90A39f18d5eBe51",
      "value": {
        "_hex": "0x96a9de97ba4800"
      },
      "nonce": 636,
      "data": "0x",
      "r": "0x7691b6f6ba3f2f45ceb5ece88c85c2979cf7b9a6ceed8de050677f3f0ae1a740",
      "s": "0x46836891e9f806778b9d1a0293f57bb8475f2abf5bceb66de61ce4fdedb60fbf",
      "v": 27,
      "creates": null,
      "raw": "0xf86e82027c850dfa1e8bbd8303d09094c5b8f250e32f63eb28ed6d6ed90a39f18d5ebe518796a9de97ba4800801ba07691b6f6ba3f2f45ceb5ece88c85c2979cf7b9a6ceed8de050677f3f0ae1a740a046836891e9f806778b9d1a0293f57bb8475f2abf5bceb66de61ce4fdedb60fbf",
      "networkId": 0,
      "chainId": 0
    }
  ]
}