{
  "hash": "0x2f224bc3d4776d6f036f722f33cb2863a9e8af7be4caf593e37e4fd585b5d389",
  "parentHash": "0x9d18714fc6ebdb26466d706727e98cba046a20f238eb22188e7a5387a7a1cef5",
  "number": 69895,
  "timestamp": 1439311417,
  "nonce": "0x93f705e6512473be",
  "difficulty": 2105484789716,
  "gasLimit": {
    "_hex": "0x2fefd8"
  },
  "gasUsed": {
    "_hex": "0xa410"
  },
  "miner": "0xf927a40C8B7F6E07c5af7FA2155B4864a4112B13",
  "extraData": "0x",
  "transactions": [
    {
      "hash": "0x18aa24f4a528dcf5d1cbd6ca55d47804358c35db461d31e86e97e476a31ce0f2",
      "blockHash": "0x2f224bc3d4776d6f036f722f33cb2863a9e8af7be4caf593e37e4fd585b5d389",
      "blockNumber": 69895,
      "transactionIndex": 0,
      "confirmations": null,
      "from": "0x5B7970CD176308e0Ffd0358e8B14aaF4A19BA544",
      "gasPrice": {
        "_hex": "0xd4dfa5aef"
      },
      "gasLimit": {
        "_hex": "0x15f90"
      },
      "to": "0xdD81AaddCc8448A5fC0ac28DB93ec6801C21E8Ef",
      "value": {
        "_hex": "0x2b5e3af16b1880000"
      },
      "nonce": 0,
      "data": "0x",
      "r": "0x29b037bf9cb7081e03d1fef62173e4f8f8f789cda1f95a236e04450008f5b5ed",
      "s": "0x59df9e412e39ee0c95a8ed2f96dee74a3638b2871db8603d9893aa718d67ad3e",
      "v": 28,
      "creates": null,
      "raw": "0xf86e80850d4dfa5aef83015f9094dd81aaddcc8448a5fc0ac28db93ec6801c21e8ef8902b5e3af16b1880000801ca029b037bf9cb7081e03d1fef62173e4f8f8f789cda1f95a236e04450008f5b5eda059df9e412e39ee0c95a8ed2f96dee74a3638b2871db8603d9893aa718d67ad3e",
      "networkId": 0,
      "chainId": 0
    },
    {
      "hash": "0xb378eb128bb34b0ea3e7d2572234d9a91673aa96c54b76e938e0beabfc140619",
      "blockHash": "0x2f224bc3d4776d6f036f722f33cb2863a9e8af7be4caf593e37e4fd585b5d389",
      "blockNumber": 69895,
      "transactionIndex": 1,
      "confirmations": null,
      "from": "0xa27f6FEDC7Ee75E02d31410ffafC3FFe22af7837",
      "gasPrice": {
        "_hex": "0xcb509313c"
      },
      "gasLimit": {
        "_hex": "0x5208"
      },
      "to": "0x32Be343B94f860124dC4fEe278FDCBD38C102D88",
      "value": {
        "_hex": "0x13e3be93b313660000"
      },
      "nonce": 2,
      "data": "0x",
      "r": "0xa04f27d83b7e6601494f99d535c246824ad8696566af704ad7a328871cc9f5fc",
      "s": "0x0daa225480b2322170e8c3cd2ab3090707ef35263c5c732b6fe469de042b51a2",
      "v": 28,
      "creates": null,
      "raw": "0xf86d02850cb509313c8252089432be343b94f860124dc4fee278fdcbd38c102d888913e3be93b313660000801ca0a04f27d83b7e6601494f99d535c246824ad8696566af704ad7a328871cc9f5fca00daa225480b2322170e8c3cd2ab3090707ef35263c5c732b6fe469de042b51a2",
      "networkId": 0,
      "chainId": 0
    }
  ]
}