{
  "hash": "0xb84a54aa80ac21211fc04d70737c0c3e515b10cf8e02951493187f981fbb3b62",
  "parentHash": "0x67cccc2302487f0a2aeeaf02e73cc2722b8af0af8a489f7a7bf4bafb3fe72fef",
  "number": 98510,
  "timestamp": 1439774053,
  "nonce": "0x05b12e96e6c381dc",
  "difficulty": 3861276775983,
  "gasLimit": {
    "_hex": "0x2fefd8"
  },
  "gasUsed": {
    "_hex": "0x546c"
  },
  "miner": "0x9Fa9952255B2b06639A04D63804d4BdFFf6E2d7e",
  "extraData": "0x476574682f76312e302e312f77696e646f77732f676f312e342e32",
  "transactions": [
    {
      "hash": "0x51741b2d38f61d8462c42c9abd09e66b4ce5f780524aed9c1ee1630d676be3c4",
      "blockHash": "0xb84a54aa80ac21211fc04d70737c0c3e515b10cf8e02951493187f981fbb3b62",
      "blockNumber": 98510,
      "transactionIndex": 0,
      "confirmations": null,
      "from": "0xB3A6Bd41f9d9C3201e050b87198FBdA399342210",
      "gasPrice": {
        "_hex": "0x110c8f7d8de"
      },
      "gasLimit": {
        "_hex": "0xc350"
      },
      "to": "0x2910543Af39abA0Cd09dBb2D50200b3E800A63D2",
      "value": {
        "_hex": "0x5bf0ba6634f680000"
      },
      "nonce": 2,
      "data": "0x454e504647514d3138",
      "r": "0xbde0cd2b9f10525dcf3a4f13999972fbd4fedab91cbb5d97114dc1328fa5a97c",
      "s": "0xdceeb721a377f590d4b39ab339fb0b48f5c156f6fb436c1e2b321ef8bac55f0d",
      "v": 28,
      "creates": null,
      "raw": "0xf87702860110c8f7d8de82c350942910543af39aba0cd09dbb2d50200b3e800a63d28905bf0ba6634f68000089454e504647514d31381ca0bde0cd2b9f10525dcf3a4f13999972fbd4fedab91cbb5d97114dc1328fa5a97ca0dceeb721a377f590d4b39ab339fb0b48f5c156f6fb436c1e2b321ef8bac55f0d",
      "networkId": 0,
      "chainId": 0
    }
  ]
}