{
  "hash": "0xf4a2ccc5bf7a0bf8efe09f9b302094a134cdef696115dfcc019757b69bd36f35",
  "parentHash": "0x51d10334f7e48eaa29396e1837b43bec973130cbf53b04122d907384db1ada9c",
  "number": 80661,
  "timestamp": 1439488770,
  "nonce": "0xb7a9295eb6ebd5b2",
  "difficulty": 2432136675012,
  "gasLimit": {
    "_hex": "0x2fefd8"
  },
  "gasUsed": {
    "_hex": "0x5208"
  },
  "miner": "0xfC25864D8326b4CB335C6942218e5F4Ee8D1E1EF",
  "extraData": "0x476574682f76312e302e312f77696e646f77732f676f312e342e32",
  "transactions": [
    {
      "hash": "0x1cd034544c7686e5097b0c4959c7b3b56d0a907f55e3f303dd68b12eacab110f",
      "blockHash": "0xf4a2ccc5bf7a0bf8efe09f9b302094a134cdef696115dfcc019757b69bd36f35",
      "blockNumber": 80661,
      "transactionIndex": 0,
      "confirmations": null,
      "from": "0xC887EBd9F4498FeE41153EbCAe11Bc2EfB8d7150",
      "gasPrice": {
        "_hex": "0xba43b7400"
      },
      "gasLimit": {
        "_hex": "0x5208"
      },
      "to": "0xC47Aaa860008be6f65B58c6C6E02a84e666EfE31",
      "value": {
        "_hex": "0x30236440bb3dfbe000"
      },
      "nonce": 0,
      "data": "0x",
      "r": "0x31f75df2820965a66f49ff4976f6d7fbb50a72f3a4363f2b644789ca36c1f98f",
      "s": "0x75ee6a74ab9fa09d0a9f4ef048e0825eadc5f2b9548180762ead45a6561d3aa9",
      "v": 28,
      "creates": null,
      "raw": "0xf86d80850ba43b740082520894c47aaa860008be6f65b58c6c6e02a84e666efe318930236440bb3dfbe000801ca031f75df2820965a66f49ff4976f6d7fbb50a72f3a4363f2b644789ca36c1f98fa075ee6a74ab9fa09d0a9f4ef048e0825eadc5f2b9548180762ead45a6561d3aa9",
      "networkId": 0,
      "chainId": 0
    }
  ]
}