{
  "hash": "0xc2936cf60c123fdd6df9fd5cee3b66f4a8504ef81935e07fffd48a989f62706b",
  "parentHash": "0xde69c22caced32053a424584037ab07c370dee7fa50daf9a71157cecbe241a87",
  "number": 116527,
  "timestamp": 1440088825,
  "nonce": "0x98271e0c91da01a1",
  "difficulty": 4559929442827,
  "gasLimit": {
    "_hex": "0x2ff3b4"
  },
  "gasUsed": {
    "_hex": "0x66d68"
  },
  "miner": "0xe6A7a1d47ff21B6321162AEA7C6CB457D5476Bca",
  "extraData": "0xd783010002844765746887676f312e342e32856c696e7578",
  "transactions": [
    {
      "hash": "0x17ce10f80792385a15313bd7617c8891d623d3544c9fb9860f9a8521f30222dd",
      "blockHash": "0xc2936cf60c123fdd6df9fd5cee3b66f4a8504ef81935e07fffd48a989f62706b",
      "blockNumber": 116527,
      "transactionIndex": 0,
      "confirmations": null,
      "from": "0x60f7C29656Fc491e766750556fE4F0E407f81eB5",
      "gasPrice": {
        "_hex": "0xd500a0611"
      },
      "gasLimit": {
        "_hex": "0x15f90"
      },
      "to": "0x5773DFFDd4AD3114CAB6eFE3b9Ca703Fa450Fe40",
      "value": {
        "_hex": "0x2386f26fc10000"
      },
      "nonce": 13,
      "data": "0x",
      "r": "0x515c583c5f6972790fe2d2ed0cc2d0c6f0b2285afb66ca9d435f133eb2e9e7c3",
      "s": "0x28d25447964f98772be5412df1e4c45062fc2de03b9ae86fee47b56ae7b2700c",
      "v": 27,
      "creates": null,
      "raw": "0xf86c0d850d500a061183015f90945773dffdd4ad3114cab6efe3b9ca703fa450fe40872386f26fc10000801ba0515c583c5f6972790fe2d2ed0cc2d0c6f0b2285afb66ca9d435f133eb2e9e7c3a028d25447964f98772be5412df1e4c45062fc2de03b9ae86fee47b56ae7b2700c",
      "networkId": 0,
      "chainId": 0
    },
    {
      "hash": "0x71569147deb7a694d5f164139c15467076458ae4eb0fd0dafa6b7f92c35065ca",
      "blockHash": "0xc2936cf60c123fdd6df9fd5cee3b66f4a8504ef81935e07fffd48a989f62706b",
      "blockNumber": 116527,
      "transactionIndex": 1,
      "confirmations": null,
      "from": "0x65C40Ee4e07E09671fF3cE2dff2AcCbE366bb5C8",
      "gasPrice": {
        "_hex": "0xd5d01bc06"
      },
      "gasLimit": {
        "_hex": "0x5208"
      },
      "to": "0x32Be343B94f860124dC4fEe278FDCBD38C102D88",
      "value": {
        "_hex": "0x6f56b1483b6edc00"
      },
      "nonce": 7,
      "data": "0x",
      "r": "0x963c4ed5cedb53d1870641bd4d7941f36fea686ebe8d12b21e841423bb97cefc",
      "s": "0x6adf4e1bb795ea9993c4bdbca856e2f081e4f518b627890fcef6249fb3fcf491",
      "v": 28,
      "creates": null,
      "raw": "0xf86c07850d5d01bc068252089432be343b94f860124dc4fee278fdcbd38c102d88886f56b1483b6edc00801ca0963c4ed5cedb53d1870641bd4d7941f36fea686ebe8d12b21e841423bb97cefca06adf4e1bb795ea9993c4bdbca856e2f081e4f518b627890fcef6249fb3fcf491",
      "networkId": 0,
      "chainId": 0
    },
    {
      "hash": "0xd216586aa1f415cbaa5cf8d6f868aa5e6b5ac6fd3e5ae42eaf94d6ec61d90bac",
      "blockHash": "0xc2936cf60c123fdd6df9fd5cee3b66f4a8504ef81935e07fffd48a989f62706b",
      "blockNumber": 116527,
      "transactionIndex": 2,
      "confirmations": null,
      "from": "0x9d0D51Aa42b97151aaCa5876a743172C8c04f09E",
      "gasPrice": {
        "_hex": "0xd48a20987"
      },
      "gasLimit": {
        "_hex": "0x5208"
      },
      "to": "0x32Be343B94f860124dC4fEe278FDCBD38C102D88",
      "value": {
        "_hex": "0x2b5df6d67a4888000"
      },
      "nonce": 4,
      "data": "0x",
      "r": "0xa32c353cf856f0597cac85b46c9c88e1971088efbefe25882891a75f16314599",
      "s": "0x55eaff9acfd79ca659cd8f37d96958045182becf203cf2dba28a642f6f6f5dec",
      "v": 27,
      "creates": null,
      "raw": "0xf86d04850d48a209878252089432be343b94f860124dc4fee278fdcbd38c102d888902b5df6d67a4888000801ba0a32c353cf856f0597cac85b46c9c88e1971088efbefe25882891a75f16314599a055eaff9acfd79ca659cd8f37d96958045182becf203cf2dba28a642f6f6f5dec",
      "networkId": 0,
      "chainId": 0
    },
    {
      "hash": "0xc37755a76de9866b244e4b6e0e4a55d3a9d12377eb3c905211747895dfbaa923",
      "blockHash": "0xc2936cf60c123fdd6df9fd5cee3b66f4a8504ef81935e07fffd48a989f62706b",
      "blockNumber": 116527,
      "transactionIndex": 3,
      "confirmations": null,
      "from": "0xC6c676946C54B5e7c31A07a079166C488Bf06dd7",
      "gasPrice": {
        "_hex": "0xd48a20987"
      },
      "gasLimit": {
        "_hex": "0x5208"
      },
      "to": "0x32Be343B94f860124dC4fEe278FDCBD38C102D88",
      "value": {
        "_hex": "0xb8bf3c1cb39348000"
      },
      "nonce": 7,
      "data": "0x",
      "r": "0x749e5392156dd7639d8a1f10955a875b2565f94ec65e2537576f967bca287565",
      "s": "0x6fe92f344699ef3a1737040187191097e6064f29216da7f4a6c79d53cbd42fa1",
      "v": 28,
      "creates": null,
      "raw": "0xf86d07850d48a209878252089432be343b94f860124dc4fee278fdcbd38c102d88890b8bf3c1cb39348000801ca0749e5392156dd7639d8a1f10955a875b2565f94ec65e2537576f967bca287565a06fe92f344699ef3a1737040187191097e6064f29216da7f4a6c79d53cbd42fa1",
      "networkId": 0,
      "chainId": 0
    },
    {
      "hash": "0xd1a7a4a7569ee44bc27f8b4db91f32863d87d5902ac820e1990572d31f81cde6",
      "blockHash": "0xc2936cf60c123fdd6df9fd5cee3b66f4a8504ef81935e07fffd48a989f62706b",
      "blockNumber": 116527,
      "transactionIndex": 4,
      "confirmations": null,
      "from": "0x2910543Af39abA0Cd09dBb2D50200b3E800A63D2",
      "gasPrice": {
        "_hex": "0xd3c091700"
      },
      "gasLimit": {
        "_hex": "0x5208"
      },
      "to": "0xDF01e9ACe02Dc63458b0afaA54056e5291828a33",
      "value": {
        "_hex": "0x15181ff25a98000"
      },
      "nonce": 1139,
      "data": "0x",
      "r": "0xbdd1bf7bb176733f1edde7288748571b704f186189fc9bff756a6477c2574454",
      "s": "0x2b6c5e0eb73dd9f24cd23e56dfec360ad53fa285ae86d6e47bd389b49683b072",
      "v": 28,
      "creates": null,
      "raw": "0xf86e820473850d3c09170082520894df01e9ace02dc63458b0afaa54056e5291828a3388015181ff25a98000801ca0bdd1bf7bb176733f1edde7288748571b704f186189fc9bff756a6477c2574454a02b6c5e0eb73dd9f24cd23e56dfec360ad53fa285ae86d6e47bd389b49683b072",
      "networkId": 0,
      "chainId": 0
    },
    {
      "hash": "0x7986fef3be1f2bf5d2927ed8e4f447d822d21d3619aa09a5e9db571dcb4679d7",
      "blockHash": "0xc2936cf60c123fdd6df9fd5cee3b66f4a8504ef81935e07fffd48a989f62706b",
      "blockNumber": 116527,
      "transactionIndex": 5,
      "confirmations": null,
      "from": "0x2e32A53e7972001B996D994722B1ab3dD869949d",
      "gasPrice": {
        "_hex": "0xd3a85e518"
      },
      "gasLimit": {
        "_hex": "0x5208"
      },
      "to": "0x32Be343B94f860124dC4fEe278FDCBD38C102D88",
      "value": {
        "_hex": "0xddc7989c57a1400"
      },
      "nonce": 2,
      "data": "0x",
      "r": "0x2a4714338ecd65c2fc3e771d03e749a53c3620708ff2997f5fda9b9b95c05f92",
      "s": "0x146af53636e8b10b366d0210bca3040b4cb5515c8dcb43c8b48e2adf8c0e638a",
      "v": 27,
      "creates": null,
      "raw": "0xf86c02850d3a85e5188252089432be343b94f860124dc4fee278fdcbd38c102d88880ddc7989c57a1400801ba02a4714338ecd65c2fc3e771d03e749a53c3620708ff2997f5fda9b9b95c05f92a0146af53636e8b10b366d0210bca3040b4cb5515c8dcb43c8b48e2adf8c0e638a",
      "networkId": 0,
      "chainId": 0
    },
    {
      "hash": "0xfc48ac2a4948672946c5f808de3ff153b4d14533dc670038939b651faa943987",
      "blockHash": "0xc2936cf60c123fdd6df9fd5cee3b66f4a8504ef81935e07fffd48a989f62706b",
      "blockNumber": 116527,
      "transactionIndex": 6,
      "confirmations": null,
      "from": "0x3a3e78131Aa0d6192896c7d0D13924B144e79E4d",
      "gasPrice": {
        "_hex": "0xd32f49584"
      },
      "gasLimit": {
        "_hex": "0x5208"
      },
      "to": "0x32Be343B94f860124dC4fEe278FDCBD38C102D88",
      "value": {
        "_hex": "0x455f56c60b70e000"
      },
      "nonce": 3,
      "data": "0x",
      "r": "0x2d7787f7054e36a8b54edca3181222b4956db9f7e94144ce999c90a82d008c38",
      "s": "0x54d92341f2a5758ada4f8d3a07e25ac8bcf8d2e4812232fac0aacac04765eaeb",
      "v": 28,
      "creates": null,
      "raw": "0xf86c03850d32f495848252089432be343b94f860124dc4fee278fdcbd38c102d8888455f56c60b70e000801ca02d7787f7054e36a8b54edca3181222b4956db9f7e94144ce999c90a82d008c38a054d92341f2a5758ada4f8d3a07e25ac8bcf8d2e4812232fac0aacac04765eaeb",
      "networkId": 0,
      "chainId": 0
    },
    {
      "hash": "0x9876b8dd7640d587f150df13addb66cecd9aa25df0d063c559dac1343e72cb0e",
      "blockHash": "0xc2936cf60c123fdd6df9fd5cee3b66f4a8504ef81935e07fffd48a989f62706b",
      "blockNumber": 116527,
      "transactionIndex": 7,
      "confirmations": null,
      "from": "0x32Be343B94f860124dC4fEe278FDCBD38C102D88",
      "gasPrice": {
        "_hex": "0xd19f1d63f"
      },
      "gasLimit": {
        "_hex": "0x5208"
      },
      "to": "0xDa1d8D4c5fcF90F031f912409052224a15B83101",
      "value": {
        "_hex": "0x2a802f8630a240000"
      },
      "nonce": 1472,
      "data": "0x",
      "r": "0xad7fa0e66314c058a00016c39cab5b2efd1835c7eb74ab622d6a56cadf1cce5c",
      "s": "0x5ee7e52eb51e554123825b827f49e22b4caf1f11e2ac9a95430764300dd8048d",
      "v": 28,
      "creates": null,
      "raw": "0xf86f8205c0850d19f1d63f82520894da1d8d4c5fcf90f031f912409052224a15b831018902a802f8630a240000801ca0ad7fa0e66314c058a00016c39cab5b2efd1835c7eb74ab622d6a56cadf1cce5ca05ee7e52eb51e554123825b827f49e22b4caf1f11e2ac9a95430764300dd8048d",
      "networkId": 0,
      "chainId": 0
    },
    {
      "hash": "0x9560e1b96674ff9845915073df0356ff348d554f0cac228f7b7ef50c0c495dce",
      "blockHash": "0xc2936cf60c123fdd6df9fd5cee3b66f4a8504ef81935e07fffd48a989f62706b",
      "blockNumber": 116527,
      "transactionIndex": 8,
      "confirmations": null,
      "from": "0x32Be343B94f860124dC4fEe278FDCBD38C102D88",
      "gasPrice": {
        "_hex": "0xd9d858a8a"
      },
      "gasLimit": {
        "_hex": "0x5208"
      },
      "to": "0x3D31A7CdbF1B9952C1c4d567b97c54fc354E6A7B",
      "value": {
        "_hex": "0x1156abf16a40f0000"
      },
      "nonce": 1473,
      "data": "0x",
      "r": "0x3a05e1129f3b946981717c57d3bcbb85a9f2dbafbcb9ac3f276a534eea0a4a83",
      "s": "0x25b8f2d7171ff4da59bcac720abab53ebc63aaa42fd2bed7fbc5c7dbeb0b5e6f",
      "v": 28,
      "creates": null,
      "raw": "0xf86f8205c1850d9d858a8a825208943d31a7cdbf1b9952c1c4d567b97c54fc354e6a7b8901156abf16a40f0000801ca03a05e1129f3b946981717c57d3bcbb85a9f2dbafbcb9ac3f276a534eea0a4a83a025b8f2d7171ff4da59bcac720abab53ebc63aaa42fd2bed7fbc5c7dbeb0b5e6f",
      "networkId": 0,
      "chainId": 0
    },
    {
      "hash": "0xefcc0d39145ba027c5457bfd4a2a56211806dd7cb026b1609093cee90cec88f8",
      "blockHash": "0xc2936cf60c123fdd6df9fd5cee3b66f4a8504ef81935e07fffd48a989f62706b",
      "blockNumber": 116527,
      "transactionIndex": 9,
      "confirmations": null,
      "from": "0x60f7C29656Fc491e766750556fE4F0E407f81eB5",
      "gasPrice": {
        "_hex": "0xd0dd6931c"
      },
      "gasLimit": {
        "_hex": "0x15f90"
      },
      "to": "0x5773DFFDd4AD3114CAB6eFE3b9Ca703Fa450Fe40",
      "value": {
        "_hex": "0x2386f26fc10000"
      },
      "nonce": 14,
      "data": "0x",
      "r": "0x3fe0c9303825c7bb73f545c1fac461250d3e388aa9f6e0ff7fc8b5cd2fdfe6d9",
      "s": "0x1651c4306dad979beb0c94a11f139359ce92af398920fc4ea3faa7f82c8442c9",
      "v": 28,
      "creates": null,
      "raw": "0xf86c0e850d0dd6931c83015f90945773dffdd4ad3114cab6efe3b9ca703fa450fe40872386f26fc10000801ca03fe0c9303825c7bb73f545c1fac461250d3e388aa9f6e0ff7fc8b5cd2fdfe6d9a01651c4306dad979beb0c94a11f139359ce92af398920fc4ea3faa7f82c8442c9",
      "networkId": 0,
      "chainId": 0
    },
    {
      "hash": "0xd1151ac6ffb6238d5b834f9a90c403cbcf702d8cc5c31dfb55b2e63e98f0ec5a",
      "blockHash": "0xc2936cf60c123fdd6df9fd5cee3b66f4a8504ef81935e07fffd48a989f62706b",
      "blockNumber": 116527,
      "transactionIndex": 10,
      "confirmations": null,
      "from": "0x60f7C29656Fc491e766750556fE4F0E407f81eB5",
      "gasPrice": {
        "_hex": "0xd0dd6931c"
      },
      "gasLimit": {
        "_hex": "0x15f90"
      },
      "to": "0x5773DFFDd4AD3114CAB6eFE3b9Ca703Fa450Fe40",
      "value": {
        "_hex": "0x2386f26fc10000"
      },
      "nonce": 15,
      "data": "0x",
      "r": "0x953dcfde114b7c1f073aef997d0ca440572aeb711c4e3b4254fc65704f464f10",
      "s": "0x5d831b5cdeeedf792cc3e707812a816c2520fefa9915b5cfc76172f18dd017ba",
      "v": 28,
      "creates": null,
      "raw": "0xf86c0f850d0dd6931c83015f90945773dffdd4ad3114cab6efe3b9ca703fa450fe40872386f26fc10000801ca0953dcfde114b7c1f073aef997d0ca440572aeb711c4e3b4254fc65704f464f10a05d831b5cdeeedf792cc3e707812a816c2520fefa9915b5cfc76172f18dd017ba",
      "networkId": 0,
      "chainId": 0
    },
    {
      "hash": "0x1a74c0adfa2ea67fe1af260a0764a3ac58624ab78e93576234ca148638d4faf7",
      "blockHash": "0xc2936cf60c123fdd6df9fd5cee3b66f4a8504ef81935e07fffd48a989f62706b",
      "blockNumber": 116527,
      "transactionIndex": 11,
      "confirmations": null,
      "from": "0x120A270bbC009644e35F0bB6ab13f95b8199c4ad",
      "gasPrice": {
        "_hex": "0xcf0b7d3d4"
      },
      "gasLimit": {
        "_hex": "0x3d090"
      },
      "to": "0x78e9620B1DB726C61eEd97a5531329c6fDaa265d",
      "value": {
        "_hex": "0x22ac35a6be247a0c00"
      },
      "nonce": 945,
      "data": "0x",
      "r": "0xb84f1891dea94983b9a247f4a2f01e31f6aaaaf6953fbf03bcc6274b436bfbf3",
      "s": "0x4b90238665ac3f30ec5534e7be3e108f5247b28c359614fd95780839f934ada8",
      "v": 28,
      "creates": null,
      "raw": "0xf8708203b1850cf0b7d3d48303d0909478e9620b1db726c61eed97a5531329c6fdaa265d8922ac35a6be247a0c00801ca0b84f1891dea94983b9a247f4a2f01e31f6aaaaf6953fbf03bcc6274b436bfbf3a04b90238665ac3f30ec5534e7be3e108f5247b28c359614fd95780839f934ada8",
      "networkId": 0,
      "chainId": 0
    },
    {
      "hash": "0xfacf665aaf0f45fa4b03b0b37f7b469d097680924f53230292d486654c2d2399",
      "blockHash": "0xc2936cf60c123fdd6df9fd5cee3b66f4a8504ef81935e07fffd48a989f62706b",
      "blockNumber": 116527,
      "transactionIndex": 12,
      "confirmations": null,
      "from": "0x60f7C29656Fc491e766750556fE4F0E407f81eB5",
      "gasPrice": {
        "_hex": "0xcee8670c9"
      },
      "gasLimit": {
        "_hex": "0x15f90"
      },
      "to": "0x5773DFFDd4AD3114CAB6eFE3b9Ca703Fa450Fe40",
      "value": {
        "_hex": "0x2386f26fc10000"
      },
      "nonce": 16,
      "data": "0x",
      "r": "0x20b446e4403b01f9930f4469c85f389b0335a293f8c1d2ff3e6df162c4256e70",
      "s": "0x7505decf00c8c0b1d68ad636fa08f95352b6c9fbba3868587b489fedc98b294e",
      "v": 28,
      "creates": null,
      "raw": "0xf86c10850cee8670c983015f90945773dffdd4ad3114cab6efe3b9ca703fa450fe40872386f26fc10000801ca020b446e4403b01f9930f4469c85f389b0335a293f8c1d2ff3e6df162c4256e70a07505decf00c8c0b1d68ad636fa08f95352b6c9fbba3868587b489fedc98b294e",
      "networkId": 0,
      "chainId": 0
    },
    {
      "hash": "0xcc0fb013c052ddbb21a7c771a9148d2a378683ac3a21e7e22a76ed72446ee8f2",
      "blockHash": "0xc2936cf60c123fdd6df9fd5cee3b66f4a8504ef81935e07fffd48a989f62706b",
      "blockNumber": 116527,
      "transactionIndex": 13,
      "confirmations": null,
      "from": "0xF109ca710C0Df51c1a86dBA1B0BA0Ed038114463",
      "gasPrice": {
        "_hex": "0xcea1e7b24"
      },
      "gasLimit": {
        "_hex": "0x5208"
      },
      "to": "0x32Be343B94f860124dC4fEe278FDCBD38C102D88",
      "value": {
        "_hex": "0x8ac2ff9ebf943800"
      },
      "nonce": 19,
      "data": "0x",
      "r": "0x9cc58dfef5d010e763ceb17d5be07a7e9c852d91719d514ddaa1da3cecaa2310",
      "s": "0x21d4a0cd2450b8e47db302caaa2fec41369e75e0fd82b51093dbf9c30984bb92",
      "v": 28,
      "creates": null,
      "raw": "0xf86c13850cea1e7b248252089432be343b94f860124dc4fee278fdcbd38c102d88888ac2ff9ebf943800801ca09cc58dfef5d010e763ceb17d5be07a7e9c852d91719d514ddaa1da3cecaa2310a021d4a0cd2450b8e47db302caaa2fec41369e75e0fd82b51093dbf9c30984bb92",
      "networkId": 0,
      "chainId": 0
    },
    {
      "hash": "0x00fabcb96042235cbd46e844886584dd856f48c12693aa9472d214c9a7a9d6e2",
      "blockHash": "0xc2936cf60c123fdd6df9fd5cee3b66f4a8504ef81935e07fffd48a989f62706b",
      "blockNumber": 116527,
      "transactionIndex": 14,
      "confirmations": null,
      "from": "0x896311963253FE9908c5D0F27A0EEBB4D56fae11",
      "gasPrice": {
        "_hex": "0xce7b0f4a7"
      },
      "gasLimit": {
        "_hex": "0x5208"
      },
      "to": "0x32Be343B94f860124dC4fEe278FDCBD38C102D88",
      "value": {
        "_hex": "0x180eae7b9ba965000"
      },
      "nonce": 1,
      "data": "0x",
      "r": "0x2c82b0e498e157d2884000e1b164817644f7795723f1a23e6c776a21f9fb8cc3",
      "s": "0x689af4028d232cc2458335944fa9c99a807e3fe942928ec7b58b60cd03b4cd2f",
      "v": 27,
      "creates": null,
      "raw": "0xf86d01850ce7b0f4a78252089432be343b94f860124dc4fee278fdcbd38c102d88890180eae7b9ba965000801ba02c82b0e498e157d2884000e1b164817644f7795723f1a23e6c776a21f9fb8cc3a0689af4028d232cc2458335944fa9c99a807e3fe942928ec7b58b60cd03b4cd2f",
      "networkId": 0,
      "chainId": 0
    },
    {
      "hash": "0x83524d4f408381bc3fb480a349e5407e2986f49ec1a4cc4497939591d2616ceb",
      "blockHash": "0xc2936cf60c123fdd6df9fd5cee3b66f4a8504ef81935e07fffd48a989f62706b",
      "blockNumber": 116527,
      "transactionIndex": 15,
      "confirmations": null,
      "from": "0x6BED894B45159c6001dfbC5bd6257A10B9eF2202",
      "gasPrice": {
        "_hex": "0xccd64390d"
      },
      "gasLimit": {
        "_hex": "0x15f90"
      },
      "to": "0x9A9bcc9D0E610C1E7Adc0b4c21C803b86288e027",
      "value": {
        "_hex": "0xdbd2fc137a30000"
      },
      "nonce": 17,
      "data": "0x",
      "r": "0x66a5042c7e131906d057a8f3c0f360b7aed3f86a7ebc2580e8416d6b0558a350",
      "s": "0x797af4a0140b3c9931ccccdcdc53dd185641296f163a92e2d467f751b8a2e0dc",
      "v": 28,
      "creates": null,
      "raw": "0xf86d11850ccd64390d83015f90949a9bcc9d0e610c1e7adc0b4c21c803b86288e027880dbd2fc137a30000801ca066a5042c7e131906d057a8f3c0f360b7aed3f86a7ebc2580e8416d6b0558a350a0797af4a0140b3c9931ccccdcdc53dd185641296f163a92e2d467f751b8a2e0dc",
      "networkId": 0,
      "chainId": 0
    },
    {
      "hash": "0x0034a89a69450f1dbfec7573d119eb0a48e45bf2a26ed1b29b0e367917e3c8fc",
      "blockHash": "0xc2936cf60c123fdd6df9fd5cee3b66f4a8504ef81935e07fffd48a989f62706b",
      "blockNumber": 116527,
      "transactionIndex": 16,
      "confirmations": null,
      "from": "0x16C9b930E32c92004105d7F66801C75c61E3408D",
      "gasPrice": {
        "_hex": "0xcbbc05d05"
      },
      "gasLimit": {
        "_hex": "0x5208"
      },
      "to": "0x32Be343B94f860124dC4fEe278FDCBD38C102D88",
      "value": {
        "_hex": "0x2b5df903f62796000"
      },
      "nonce": 5,
      "data": "0x",
      "r": "0xce46a3ac35d38549d735f5f6f977d0787a17c3b7f947de460aca62f680fa1a5e",
      "s": "0x2ca71a3ac5f20f315b17f4323314bdd8fa1f0a72bc595298e31451edb84f9bc5",
      "v": 27,
      "creates": null,
      "raw": "0xf86d05850cbbc05d058252089432be343b94f860124dc4fee278fdcbd38c102d888902b5df903f62796000801ba0ce46a3ac35d38549d735f5f6f977d0787a17c3b7f947de460aca62f680fa1a5ea02ca71a3ac5f20f315b17f4323314bdd8fa1f0a72bc595298e31451edb84f9bc5",
      "networkId": 0,
      "chainId": 0
    },
    {
      "hash": "0x1fbb74d120e0f785999b541fc09164981bd0174596284b51eaa2e6bf36ceac61",
      "blockHash": "0xc2936cf60c123fdd6df9fd5cee3b66f4a8504ef81935e07fffd48a989f62706b",
      "blockNumber": 116527,
      "transactionIndex": 17,
      "confirmations": null,
      "from": "0xC272293AD54739bF7aAdd8924Aa3d712D672Eed1",
      "gasPrice": {
        "_hex": "0xba43b7400"
      },
      "gasLimit": {
        "_hex": "0x15f90"
      },
      "to": "0xA616A0Fd1E5b6A0c9d2F72C30A3fBB4ef6730a4F",
      "value": {
        "_hex": "0x11c37937e08000"
      },
      "nonce": 7,
      "data": "0x",
      "r": "0x73cb7b0991b8e2e9d2ea39a2814b4d6619263b522ea432b5ce367b1379af446d",
      "s": "0x2fd9194f0328b4f8e3f11610bd2d8a698cc48cef929efce641107362cf44078f",
      "v": 28,
      "creates": null,
      "raw": "0xf86c07850ba43b740083015f9094a616a0fd1e5b6a0c9d2f72c30a3fbb4ef6730a4f8711c37937e08000801ca073cb7b0991b8e2e9d2ea39a2814b4d6619263b522ea432b5ce367b1379af446da02fd9194f0328b4f8e3f11610bd2d8a698cc48cef929efce641107362cf44078f",
      "networkId": 0,
      "chainId": 0
    },
    {
      "hash": "0xd3dd7862e37710708b52ee543ba5a22fc29c7923743b4a5a273f02039e9a5f7f",
      "blockHash": "0xc2936cf60c123fdd6df9fd5cee3b66f4a8504ef81935e07fffd48a989f62706b",
      "blockNumber": 116527,
      "transactionIndex": 18,
      "confirmations": null,
      "from": "0xC272293AD54739bF7aAdd8924Aa3d712D672Eed1",
      "gasPrice": {
        "_hex": "0xba43b7400"
      },
      "gasLimit": {
        "_hex": "0x15f90"
      },
      "to": "0x2910543Af39abA0Cd09dBb2D50200b3E800A63D2",
      "value": {
        "_hex": "0x1c6bf52634000"
      },
      "nonce": 8,
      "data": "0x454e44504338454a38",
      "r": "0x4316d0714c94f54a46ad6f2bf11e7416e9b7b3c97d142b3a8e91039e8143bb92",
      "s": "0x7e90887236f66700477589ea2079f2ddc4cbfae9018b152c4ecd8cb18c203b2e",
      "v": 27,
      "creates": null,
      "raw": "0xf87508850ba43b740083015f90942910543af39aba0cd09dbb2d50200b3e800a63d28701c6bf5263400089454e44504338454a381ba04316d0714c94f54a46ad6f2bf11e7416e9b7b3c97d142b3a8e91039e8143bb92a07e90887236f66700477589ea2079f2ddc4cbfae9018b152c4ecd8cb18c203b2e",
      "networkId": 0,
      "chainId": 0
    },
    {
      "hash": "0x29215dabb68c9f930919a95661e25dee606ac52ab854a8f3e9c3429d5b9c84eb",
      "blockHash": "0xc2936cf60c123fdd6df9fd5cee3b66f4a8504ef81935e07fffd48a989f62706b",
      "blockNumber": 116527,
      "transactionIndex": 19,
      "confirmations": null,
      "from": "0xC272293AD54739bF7aAdd8924Aa3d712D672Eed1",
      "gasPrice": {
        "_hex": "0xba43b7400"
      },
      "gasLimit": {
        "_hex": "0x15f90"
      },
      "to": "0x2910543Af39abA0Cd09dBb2D50200b3E800A63D2",
      "value": {
        "_hex": "0x1c6bf52634000"
      },
      "nonce": 9,
      "data": "0x454e44504338454a38",
      "r": "0xe2af02682aa02d6cb50f8a62ce0a639c9a7aea25a3447025357a5ea85f48d16f",
      "s": "0x223d6cf3bf98f785204cf46d637b910bbb57541039b13ea28abd361afea9c9c7",
      "v": 28,
      "creates": null,
      "raw": "0xf87509850ba43b740083015f90942910543af39aba0cd09dbb2d50200b3e800a63d28701c6bf5263400089454e44504338454a381ca0e2af02682aa02d6cb50f8a62ce0a639c9a7aea25a3447025357a5ea85f48d16fa0223d6cf3bf98f785204cf46d637b910bbb57541039b13ea28abd361afea9c9c7",
      "networkId": 0,
      "chainId": 0
    }
  ]
}