{
  "hash": "0x976acf2d7ff265bd250b7adcdde48f8d324d8493c7f4749009be95bd8aa1894e",
  "parentHash": "0xd1caef2e26ac46cd8402b48e9212ce6c102ca075fa7652213fa2d17e59a211fa",
  "number": 48217,
  "timestamp": 1438953646,
  "nonce": "0x7e0dad56ada14590",
  "difficulty": 1456499835532,
  "gasLimit": {
    "_hex": "0x13df6"
  },
  "gasUsed": {
    "_hex": "0xfae0"
  },
  "miner": "0x06D138312754bDEB5c1175f47cE00620c480E9C9",
  "extraData": "0x476574682f76312e302e312f6c696e75782f676f312e342e32",
  "transactions": [
    {
      "hash": "0x48fa1664272c1e591cbfc6dfca96beba209c8d6c61cacc2306ccdfa24cee4af5",
      "blockHash": "0x976acf2d7ff265bd250b7adcdde48f8d324d8493c7f4749009be95bd8aa1894e",
      "blockNumber": 48217,
      "transactionIndex": 0,
      "confirmations": null,
      "from": "0xcB82f7375B91026C23A12D0355FaEc1509536c2b",
      "gasPrice": {
        "_hex": "0x47d45e7f61"
      },
      "gasLimit": {
        "_hex": "0x7530"
      },
      "to": "0x2910543Af39abA0Cd09dBb2D50200b3E800A63D2",
      "value": {
        "_hex": "0x2629f66e0c5300000"
      },
      "nonce": 0,
      "data": "0x454e3651304d384252",
      "r": "0x11b3ea87b5dafd0085d6d15b6de8eb137d978288281c156e75209153ea3c6c8c",
      "s": "0x7a2e0ed2c998d2f02cfc639e56fb37c8377b791eb0a6a8e28b9dcf7592573da7",
      "v": 28,
      "creates": null,
      "raw": "0xf876808547d45e7f61827530942910543af39aba0cd09dbb2d50200b3e800a63d28902629f66e0c530000089454e3651304d3842521ca011b3ea87b5dafd0085d6d15b6de8eb137d978288281c156e75209153ea3c6c8ca07a2e0ed2c998d2f02cfc639e56fb37c8377b791eb0a6a8e28b9dcf7592573da7",
      "networkId": 0,
      "chainId": 0
    },
    {
      "hash": "0xeb54879254c49f798da213d6821436c5c94e2fcd3e6d04d4db05cccf9eb2f436",
      "blockHash": "0x976acf2d7ff265bd250b7adcdde48f8d324d8493c7f4749009be95bd8aa1894e",
      "blockNumber": 48217,
      "transactionIndex": 1,
      "confirmations": null,
      "from": "0x734B61f8167583Fcd27c677b8dB9369C6A3d0689",
      "gasPrice": {
        "_hex": "0xcc35dcab4"
      },
      "gasLimit": {
        "_hex": "0x5208"
      },
      "to": "0x32Be343B94f860124dC4fEe278FDCBD38C102D88",
      "value": {
        "_hex": "0x2086d6a8761a020000"
      },
      "nonce": 0,
      "data": "0x",
      "r": "0x1bb3b6165926c09856db2b891b49fafa1d73a87b252256f85f379437924d673f",
      "s": "0x4fd21c804d19c71e921563e49efc4ffe779fd757c0f1540e4c0a441737c63bf8",
      "v": 27,
      "creates": null,
      "raw": "0xf86d80850cc35dcab48252089432be343b94f860124dc4fee278fdcbd38c102d88892086d6a8761a020000801ba01bb3b6165926c09856db2b891b49fafa1d73a87b252256f85f379437924d673fa04fd21c804d19c71e921563e49efc4ffe779fd757c0f1540e4c0a441737c63bf8",
      "networkId": 0,
      "chainId": 0
    },
    {
      "hash": "0xf39716dbff5c35a7ba3cc0426d1b0bed0753880eeac58aebdf7f9a8922ef427e",
      "blockHash": "0x976acf2d7ff265bd250b7adcdde48f8d324d8493c7f4749009be95bd8aa1894e",
      "blockNumber": 48217,
      "transactionIndex": 2,
      "confirmations": null,
      "from": "0x61B3df2e9e9Fd968131f1e88f0a0Eb5BD765464D",
      "gasPrice": {
        "_hex": "0xcb46092d3"
      },
      "gasLimit": {
        "_hex": "0x61a8"
      },
      "to": "0x2910543Af39abA0Cd09dBb2D50200b3E800A63D2",
      "value": {
        "_hex": "0x1b1ae4d6e2ef500000"
      },
      "nonce": 0,
      "data": "0x454e4d384742445147",
      "r": "0xac96389f4288bae20e83c34ba2a900b219a011772cc467b103ad34d7870df3bd",
      "s": "0x0a772eb389cc264fc27e0e2d9d9bdfad2ff6490f4c889659d16b40b4fdc08623",
      "v": 27,
      "creates": null,
      "raw": "0xf87680850cb46092d38261a8942910543af39aba0cd09dbb2d50200b3e800a63d2891b1ae4d6e2ef50000089454e4d3847424451471ba0ac96389f4288bae20e83c34ba2a900b219a011772cc467b103ad34d7870df3bda00a772eb389cc264fc27e0e2d9d9bdfad2ff6490f4c889659d16b40b4fdc08623",
      "networkId": 0,
      "chainId": 0
    }
  ]
}