{
  "hash": "0x0e47b3a220b5d557d1b8c870bcd35ab0c90ff3e9b34594868e27d2e426d3b575",
  "parentHash": "0xd9d02e642911030d91bd963eb4fe4befe10cf80ab2859c24fa41565fe5326603",
  "number": 92495,
  "timestamp": 1439673002,
  "nonce": "0x109f8c91b222224c",
  "difficulty": 3519972642610,
  "gasLimit": {
    "_hex": "0x2fefd8"
  },
  "gasUsed": {
    "_hex": "0xafab"
  },
  "miner": "0xe6A7a1d47ff21B6321162AEA7C6CB457D5476Bca",
  "extraData": "0x476574682f76312e302e312d38326566323666362f6c696e75782f676f312e34",
  "transactions": [
    {
      "hash": "0x108557da1c728e0d0554ee175fffa745976d0823e576b8025ac8d31b1ca9d05d",
      "blockHash": "0x0e47b3a220b5d557d1b8c870bcd35ab0c90ff3e9b34594868e27d2e426d3b575",
      "blockNumber": 92495,
      "transactionIndex": 0,
      "confirmations": null,
      "from": "0x8375eA550366a24550ec93283600485F4Ba8CFE5",
      "gasPrice": {
        "_hex": "0xdf8475800"
      },
      "gasLimit": {
        "_hex": "0xc350"
      },
      "to": "0xb9836ec1f42Bd48331bceaedb74a6Bcdc22832bD",
      "value": {
        "_hex": "0x38d7ea4c68000"
      },
      "nonce": 5,
      "data": "0x00",
      "r": "0xc9f0da47e3d1e966e475d9fe96da79bb85de30af2a56090e0937feee0aebf56c",
      "s": "0x0a9a9350281383dbd8db0c733609f798894fe81317fd7421393a8643a94a4934",
      "v": 27,
      "creates": null,
      "raw": "0xf86b05850df847580082c35094b9836ec1f42bd48331bceaedb74a6bcdc22832bd87038d7ea4c68000001ba0c9f0da47e3d1e966e475d9fe96da79bb85de30af2a56090e0937feee0aebf56ca00a9a9350281383dbd8db0c733609f798894fe81317fd7421393a8643a94a4934",
      "networkId": 0,
      "chainId": 0
    },
    {
      "hash": "0x3835fa397b5a28a1b344969ebbd0a71cd442f7632acb01ebaf9f66586e1655b7",
      "blockHash": "0x0e47b3a220b5d557d1b8c870bcd35ab0c90ff3e9b34594868e27d2e426d3b575",
      "blockNumber": 92495,
      "transactionIndex": 1,
      "confirmations": null,
      "from": "0xc60b04654E003B4683041F1Cbd6BC38FDa7cDbD6",
      "gasPrice": {
        "_hex": "0xcb683e8c7"
      },
      "gasLimit": {
        "_hex": "0x15f90"
      },
      "to": "0xCAc7000C7dBaa2E33Af15325AF5D435E011C7BdD",
      "value": {
        "_hex": "0x6c6b6fd4994d7f0000"
      },
      "nonce": 0,
      "data": "0xb214faa550533234324a5933550000000000000000000000000000000000000000000000",
      "r": "0x376690e81f5756f43b989d0fb302a675ef313cfa643e1784b469e6d2942e1298",
      "s": "0x6e58a8c05252013c46fde9c13394e9fd68d2da18db60fd9eaf9bfd65c98c408f",
      "v": 28,
      "creates": null,
      "raw": "0xf89280850cb683e8c783015f9094cac7000c7dbaa2e33af15325af5d435e011c7bdd896c6b6fd4994d7f0000a4b214faa550533234324a59335500000000000000000000000000000000000000000000001ca0376690e81f5756f43b989d0fb302a675ef313cfa643e1784b469e6d2942e1298a06e58a8c05252013c46fde9c13394e9fd68d2da18db60fd9eaf9bfd65c98c408f",
      "networkId": 0,
      "chainId": 0
    }
  ]
}