{
  "hash": "0x011747acf5a69e8f3204be0e5d9ac7bae88fa74ee39edfc1bc8cad1d3032b46e",
  "parentHash": "0x285f68fa9556fd50ae703623ec3a4e002cc8a756cfe16e1ec1a630017974a544",
  "number": 57494,
  "timestamp": 1439104346,
  "nonce": "0x199c206acfd9191b",
  "difficulty": 1738726502445,
  "gasLimit": {
    "_hex": "0x2fefd8"
  },
  "gasUsed": {
    "_hex": "0x546c"
  },
  "miner": "0xbb7B8287f3F0a933474a79eAe42CBCa977791171",
  "extraData": "0x476574682f4c5649562f76312e302e312f6c696e75782f676f312e342e32",
  "transactions": [
    {
      "hash": "0x2d87df48aab91a7ae21f5aa2e92f763071abdbbd3c72519004870626c68c99a4",
      "blockHash": "0x011747acf5a69e8f3204be0e5d9ac7bae88fa74ee39edfc1bc8cad1d3032b46e",
      "blockNumber": 57494,
      "transactionIndex": 0,
      "confirmations": null,
      "from": "0xFEaA6f0a842422DdD202CF41d44eFf708127136e",
      "gasPrice": {
        "_hex": "0x9184e72a000"
      },
      "gasLimit": {
        "_hex": "0x993f9"
      },
      "to": "0x2910543Af39abA0Cd09dBb2D50200b3E800A63D2",
      "value": {
        "_hex": "0x8ac7230489e80000"
      },
      "nonce": 2,
      "data": "0x454e32544635393930",
      "r": "0x0638863626004db13e6f9013e8b529c36a0a3c4165704226c0a506af701082ae",
      "s": "0x2032064844e23affff2609e707033be5ed2e2c498bb5a81fcd1ad8bf3893bd0e",
      "v": 28,
      "creates": null,
      "raw": "0xf877028609184e72a000830993f9942910543af39aba0cd09dbb2d50200b3e800a63d2888ac7230489e8000089454e325446353939301ca00638863626004db13e6f9013e8b529c36a0a3c4165704226c0a506af701082aea02032064844e23affff2609e707033be5ed2e2c498bb5a81fcd1ad8bf3893bd0e",
      "networkId": 0,
      "chainId": 0
    }
  ]
}