{
  "hash": "0x51066f15796314fea4f436458146d394d3915569bf9760e52ce201d6205fe01d",
  "parentHash": "0x6abb9e00c26821a9c579c86e27e3370d65b447226cb872bb29d7c3afa77ccbd4",
  "number": 87545,
  "timestamp": 1439593881,
  "nonce": "0x0a1b0fcfa518edcb",
  "difficulty": 3147909580371,
  "gasLimit": {
    "_hex": "0x2fefd8"
  },
  "gasUsed": {
    "_hex": "0x5208"
  },
  "miner": "0xa50ec0D39fa913E62f1Bae7074E6F36caA71855b",
  "extraData": "0xd783010001844765746887676f312e342e32856c696e7578",
  "transactions": [
    {
      "hash": "0xdbd4ebed23fcae877fc0f078ceda3de4125227f5e4da4016b536719b5a6c0803",
      "blockHash": "0x51066f15796314fea4f436458146d394d3915569bf9760e52ce201d6205fe01d",
      "blockNumber": 87545,
      "transactionIndex": 0,
      "confirmations": null,
      "from": "0x120A270bbC009644e35F0bB6ab13f95b8199c4ad",
      "gasPrice": {
        "_hex": "0xd18891336"
      },
      "gasLimit": {
        "_hex": "0x3d090"
      },
      "to": "0x00B88D679472169CBd35a3d02192Fd24734684b4",
      "value": {
        "_hex": "0x53fccbccdbc520000"
      },
      "nonce": 502,
      "data": "0x",
      "r": "0xffd502e7456bbca3fb89a6b1c7d8e07a5ac8fb93615b4e6ea13151789dfc1f59",
      "s": "0x27acfad99ffe159adb51854c84792eb1e0d9543955447758a7e319fd3b9dbe0f",
      "v": 27,
      "creates": null,
      "raw": "0xf8708201f6850d188913368303d0909400b88d679472169cbd35a3d02192fd24734684b489053fccbccdbc520000801ba0ffd502e7456bbca3fb89a6b1c7d8e07a5ac8fb93615b4e6ea13151789dfc1f59a027acfad99ffe159adb51854c84792eb1e0d9543955447758a7e319fd3b9dbe0f",
      "networkId": 0,
      "chainId": 0
    }
  ]
}