{
  "hash": "0x9cbb9d82b3d74a0a08cfd120cd35bbe05e512d46d9787be951572a854d1a1b57",
  "parentHash": "0x3a41089d35e2d04c661be0801ac3059662afc5e02a623e03647a3ff7ef803b89",
  "number": 85381,
  "timestamp": 1439562813,
  "nonce": "0xa7ee5f0603ac13ef",
  "difficulty": 2730318966473,
  "gasLimit": {
    "_hex": "0x2fefd8"
  },
  "gasUsed": {
    "_hex": "0x5208"
  },
  "miner": "0xcf00A85f3826941e7A25BFcF9Aac575d40410852",
  "extraData": "0x476574682f76312e302e312f77696e646f77732f676f312e342e32",
  "transactions": [
    {
      "hash": "0x7feb3120981a26c87e054772ab89b1e9c11a48d9cc0a8a98112dc430cde4be73",
      "blockHash": "0x9cbb9d82b3d74a0a08cfd120cd35bbe05e512d46d9787be951572a854d1a1b57",
      "blockNumber": 85381,
      "transactionIndex": 0,
      "confirmations": null,
      "from": "0xC624b0Cd3307f6CFFC473f5019FA380E6811ee58",
      "gasPrice": {
        "_hex": "0xde174dce5"
      },
      "gasLimit": {
        "_hex": "0x5208"
      },
      "to": "0x32Be343B94f860124dC4fEe278FDCBD38C102D88",
      "value": {
        "_hex": "0x54b40ad85ac16800000"
      },
      "nonce": 9,
      "data": "0x",
      "r": "0x1bd9e8909824cd372f0761f2a9bf376a67c5ca8ee9fcb6f4e6326f1034b4f696",
      "s": "0x049033e9dc39d2d2e59b74b5b08d9284e7918116470aab1a86c96b90fda9a53e",
      "v": 27,
      "creates": null,
      "raw": "0xf86e09850de174dce58252089432be343b94f860124dc4fee278fdcbd38c102d888a054b40ad85ac16800000801ba01bd9e8909824cd372f0761f2a9bf376a67c5ca8ee9fcb6f4e6326f1034b4f696a0049033e9dc39d2d2e59b74b5b08d9284e7918116470aab1a86c96b90fda9a53e",
      "networkId": 0,
      "chainId": 0
    }
  ]
}