{
  "hash": "0xb87b14b944042f5aab152789d4084b9e037eaad5ee860b2643517036ab603dbd",
  "parentHash": "0xc844f2d4e9d7dff742e24b714d0a58e5495ad1b39f3978cdcdd980af0fbe5fad",
  "number": 98616,
  "timestamp": 1439776016,
  "nonce": "0x1e02c6a7c94a4698",
  "difficulty": 3846174481985,
  "gasLimit": {
    "_hex": "0x2fefd5"
  },
  "gasUsed": {
    "_hex": "0xa410"
  },
  "miner": "0x792Bd2fbb38fafDb9Ea425aeAD48A365062a600e",
  "extraData": "0x476574682f76312e302e312f77696e646f77732f676f312e342e32",
  "transactions": [
    {
      "hash": "0x70e5e1e9a048f1a7cf48231e990d63457749eab8868f1d7968fa4f304dae3e02",
      "blockHash": "0xb87b14b944042f5aab152789d4084b9e037eaad5ee860b2643517036ab603dbd",
      "blockNumber": 98616,
      "transactionIndex": 0,
      "confirmations": null,
      "from": "0x1A2EB6Ab8ac3aFe382E6bbC6d54247a8A793db99",
      "gasPrice": {
        "_hex": "0xd68086ec4"
      },
      "gasLimit": {
        "_hex": "0x15f90"
      },
      "to": "0xD9666150A9dA92d9108198a4072970805a8B3428",
      "value": {
        "_hex": "0x11c37937e080000"
      },
      "nonce": 2,
      "data": "0x",
      "r": "0x6b8452d4a4621ab167143fdcf6b15324877e76f2aafc8dc44e0584728a4fd7bf",
      "s": "0x798ebe5cd20371aae1383cc5a534cf1c17a032fa7995f3eccb8d29484d3fab4e",
      "v": 28,
      "creates": null,
      "raw": "0xf86d02850d68086ec483015f9094d9666150a9da92d9108198a4072970805a8b342888011c37937e080000801ca06b8452d4a4621ab167143fdcf6b15324877e76f2aafc8dc44e0584728a4fd7bfa0798ebe5cd20371aae1383cc5a534cf1c17a032fa7995f3eccb8d29484d3fab4e",
      "networkId": 0,
      "chainId": 0
    },
    {
      "hash": "0x26672b1c5dff25a5221cb8b0deffbba8ac37ba6aff90b19282e507fdac8cf6ae",
      "blockHash": "0xb87b14b944042f5aab152789d4084b9e037eaad5ee860b2643517036ab603dbd",
      "blockNumber": 98616,
      "transactionIndex": 1,
      "confirmations": null,
      "from": "0xD9666150A9dA92d9108198a4072970805a8B3428",
      "gasPrice": {
        "_hex": "0xd6800dd99"
      },
      "gasLimit": {
        "_hex": "0x5208"
      },
      "to": "0x32Be343B94f860124dC4fEe278FDCBD38C102D88",
      "value": {
        "_hex": "0x43fc004e13174c00"
      },
      "nonce": 29,
      "data": "0x",
      "r": "0x71338709252a63ea04f763b7d3a0989f8bdb829b87606b27d3b659f32512ae46",
      "s": "0x2a1c6675057bba74b556176bec26117535dd8b506dc07856f823987b8feb784c",
      "v": 27,
      "creates": null,
      "raw": "0xf86c1d850d6800dd998252089432be343b94f860124dc4fee278fdcbd38c102d888843fc004e13174c00801ba071338709252a63ea04f763b7d3a0989f8bdb829b87606b27d3b659f32512ae46a02a1c6675057bba74b556176bec26117535dd8b506dc07856f823987b8feb784c",
      "networkId": 0,
      "chainId": 0
    }
  ]
}