{
  "hash": "0x584f1291ef1fed2fdc08b1a38586cf195dc34e302dd43d6ebffcab38a75db938",
  "parentHash": "0x10320094cd73266d5f16029db03393d6760259d2bb6ba79943f5b548dcbe7a21",
  "number": 61726,
  "timestamp": 1439177131,
  "nonce": "0x55aefc2139db00ee",
  "difficulty": 1734458621835,
  "gasLimit": {
    "_hex": "0x2fefd8"
  },
  "gasUsed": {
    "_hex": "0xa410"
  },
  "miner": "0x8B454d830feF179e66206840F8F3D1d83bC32b17",
  "extraData": "0x476574682f76312e302e312f77696e646f77732f676f312e342e32",
  "transactions": [
    {
      "hash": "0x1ebb1e2aebfce75d41af529135d9b9f2990eb67112b222fd6f1e5378aa3c89e5",
      "blockHash": "0x584f1291ef1fed2fdc08b1a38586cf195dc34e302dd43d6ebffcab38a75db938",
      "blockNumber": 61726,
      "transactionIndex": 0,
      "confirmations": null,
      "from": "0x1308A2e95c0160B90803ddCA9B9a5bb55E416d79",
      "gasPrice": {
        "_hex": "0xe8d4a51000"
      },
      "gasLimit": {
        "_hex": "0x15f90"
      },
      "to": "0xF5aEe728E007c16CB640e38E0161CFEaf783f0c4",
      "value": {
        "_hex": "0x5d80688d9e31c0000"
      },
      "nonce": 97,
      "data": "0x",
      "r": "0x5d6eb40125ad12d77a52688ba8162c472a5d606d7e19bea8a76b3737fcdac4da",
      "s": "0x5dd0e64b1f117d80024d49f66bcca40c43736963183f49d8b839db5e56839e41",
      "v": 28,
      "creates": null,
      "raw": "0xf86e6185e8d4a5100083015f9094f5aee728e007c16cb640e38e0161cfeaf783f0c48905d80688d9e31c0000801ca05d6eb40125ad12d77a52688ba8162c472a5d606d7e19bea8a76b3737fcdac4daa05dd0e64b1f117d80024d49f66bcca40c43736963183f49d8b839db5e56839e41",
      "networkId": 0,
      "chainId": 0
    },
    {
      "hash": "0x4a5581eddf8bdc8b643f09d2f09322630e80b56b94c3aa7c292cceef0ae091bb",
      "blockHash": "0x584f1291ef1fed2fdc08b1a38586cf195dc34e302dd43d6ebffcab38a75db938",
      "blockNumber": 61726,
      "transactionIndex": 1,
      "confirmations": null,
      "from": "0x120A270bbC009644e35F0bB6ab13f95b8199c4ad",
      "gasPrice": {
        "_hex": "0xcef7808df"
      },
      "gasLimit": {
        "_hex": "0x15f90"
      },
      "to": "0xf5140B81D6039E878BD404912f2b1E66fE6DAF09",
      "value": {
        "_hex": "0xaf35029c214e80000"
      },
      "nonce": 82,
      "data": "0x",
      "r": "0xeeffc72aa232db56c924cb47e9ab164a0d2c84a8d1c2cae95c45a25437f0f297",
      "s": "0x77fd8380ec2c37931fa6c5a6a0ba349e362b386a4a3869b2b9a5f0578dee7887",
      "v": 28,
      "creates": null,
      "raw": "0xf86e52850cef7808df83015f9094f5140b81d6039e878bd404912f2b1e66fe6daf09890af35029c214e80000801ca0eeffc72aa232db56c924cb47e9ab164a0d2c84a8d1c2cae95c45a25437f0f297a077fd8380ec2c37931fa6c5a6a0ba349e362b386a4a3869b2b9a5f0578dee7887",
      "networkId": 0,
      "chainId": 0
    }
  ]
}