{
  "hash": "0x544ab2ed34e44e829d8d9764e905aeae699aad1abbf777b43fe3864a937e645d",
  "parentHash": "0x0a27065db24ac3d596d937a668cf49e26e68bad17e0c9b8a6628241f72fcdbc3",
  "number": 114098,
  "timestamp": 1440034847,
  "nonce": "0xd9fc6c1e738b5b6b",
  "difficulty": 4449066789759,
  "gasLimit": {
    "_hex": "0x2fefd8"
  },
  "gasUsed": {
    "_hex": "0x5208"
  },
  "miner": "0x790b8a3cE86E707ED0eD32bF89B3269692a23CC1",
  "extraData": "0xd783010001844765746887676f312e342e32856c696e7578",
  "transactions": [
    {
      "hash": "0x6c9856bdbe8f71bc474e133822458fb4aa3d4e342ef1534dd64634970253a502",
      "blockHash": "0x544ab2ed34e44e829d8d9764e905aeae699aad1abbf777b43fe3864a937e645d",
      "blockNumber": 114098,
      "transactionIndex": 0,
      "confirmations": null,
      "from": "0xf8a58969d2FbBf009542432480fe2D49037Ed976",
      "gasPrice": {
        "_hex": "0xdd9c83b9b"
      },
      "gasLimit": {
        "_hex": "0x5208"
      },
      "to": "0x32Be343B94f860124dC4fEe278FDCBD38C102D88",
      "value": {
        "_hex": "0x8ac2bdfdb0697800"
      },
      "nonce": 3,
      "data": "0x",
      "r": "0xef12792c6efd472c3a7d9c205123b8791551a9aa71a30a9bc08d40652c870ef2",
      "s": "0x0af3b8f8d26f9be8a0e1bedfc680b638a31719ded23651e17112050c8f129a9b",
      "v": 27,
      "creates": null,
      "raw": "0xf86c03850dd9c83b9b8252089432be343b94f860124dc4fee278fdcbd38c102d88888ac2bdfdb0697800801ba0ef12792c6efd472c3a7d9c205123b8791551a9aa71a30a9bc08d40652c870ef2a00af3b8f8d26f9be8a0e1bedfc680b638a31719ded23651e17112050c8f129a9b",
      "networkId": 0,
      "chainId": 0
    }
  ]
}