{
  "hash": "0xf22873009ec549754e3de9077af5ad3f10443e6e7bcc3bd9d755e17e2db8613a",
  "parentHash": "0xb1793b7636deda24d3e67105b399678c62b42b133fec8638f8477b82e28aa1db",
  "number": 122349,
  "timestamp": 1440192759,
  "nonce": "0x6c26e9f12b106c62",
  "difficulty": 4472995975904,
  "gasLimit": {
    "_hex": "0x2fefd8"
  },
  "gasUsed": {
    "_hex": "0xa410"
  },
  "miner": "0xD0ee3F53eE0fCf3F9fbCcdd17BD1b6441DdC2074",
  "extraData": "0x",
  "transactions": [
    {
      "hash": "0x10d759483ab685edcf768413c067f9718c5f3c4e40adfca190471d5b8eacd20a",
      "blockHash": "0xf22873009ec549754e3de9077af5ad3f10443e6e7bcc3bd9d755e17e2db8613a",
      "blockNumber": 122349,
      "transactionIndex": 0,
      "confirmations": null,
      "from": "0x32Be343B94f860124dC4fEe278FDCBD38C102D88",
      "gasPrice": {
        "_hex": "0xdc6b43646"
      },
      "gasLimit": {
        "_hex": "0x5208"
      },
      "to": "0x50532e4Be195D1dE0c2E6DfA46D9ec0a4Fee6861",
      "value": {
        "_hex": "0x4b34b52927d36000"
      },
      "nonce": 1603,
      "data": "0x",
      "r": "0xdf8b1ebabc68ac620dabd920a2cb1bb2283d41717ef006fb6b70d650e43c5cb4",
      "s": "0x17c73f392bd62c0299e80df21e5a8ef7aa25c7149ad4f8fd54670b57d99c5236",
      "v": 28,
      "creates": null,
      "raw": "0xf86e820643850dc6b436468252089450532e4be195d1de0c2e6dfa46d9ec0a4fee6861884b34b52927d36000801ca0df8b1ebabc68ac620dabd920a2cb1bb2283d41717ef006fb6b70d650e43c5cb4a017c73f392bd62c0299e80df21e5a8ef7aa25c7149ad4f8fd54670b57d99c5236",
      "networkId": 0,
      "chainId": 0
    },
    {
      "hash": "0x72fe3037f50e5b82561a11ae8c4144f829c5ad9f7fbef14a9f50049f4d0d0ede",
      "blockHash": "0xf22873009ec549754e3de9077af5ad3f10443e6e7bcc3bd9d755e17e2db8613a",
      "blockNumber": 122349,
      "transactionIndex": 1,
      "confirmations": null,
      "from": "0x32Be343B94f860124dC4fEe278FDCBD38C102D88",
      "gasPrice": {
        "_hex": "0xdc6b43646"
      },
      "gasLimit": {
        "_hex": "0x5208"
      },
      "to": "0xee8bB0274117C9A1D3695E19bea188c382EC1A8E",
      "value": {
        "_hex": "0x56ba3d73af34f0000"
      },
      "nonce": 1604,
      "data": "0x",
      "r": "0x9ae7d1f4a313db38d4045bd22c86a51bfc37bb884837ce8a1b2913cda241e80c",
      "s": "0x42eb5c0fbd5fd4ea5459449181df009b93e5f8203f09282edc77243374b05820",
      "v": 28,
      "creates": null,
      "raw": "0xf86f820644850dc6b4364682520894ee8bb0274117c9a1d3695e19bea188c382ec1a8e89056ba3d73af34f0000801ca09ae7d1f4a313db38d4045bd22c86a51bfc37bb884837ce8a1b2913cda241e80ca042eb5c0fbd5fd4ea5459449181df009b93e5f8203f09282edc77243374b05820",
      "networkId": 0,
      "chainId": 0
    }
  ]
}