{
  "hash": "0xf4fba9c3d3d9220c5544edf9cb9ab254c21aa846622c50540ec0b8e2025c8f82",
  "parentHash": "0xc8259ef9b8f63b2d469b592f8a1d8cd3091eabca628438a50fd5ca4687f34f45",
  "number": 55380,
  "timestamp": 1439069770,
  "nonce": "0x3aaed5be493735d8",
  "difficulty": 1627424499156,
  "gasLimit": {
    "_hex": "0x2fefd8"
  },
  "gasUsed": {
    "_hex": "0x5d82"
  },
  "miner": "0x9746c7e1ef2bd21FF3997fa467593a89cb852BD0",
  "extraData": "0x476574682f76312e302e312f77696e646f77732f676f312e342e32",
  "transactions": [
    {
      "hash": "0x4db77948bf601ad11d998d172815eff78dc3a3518cf759dfe107e4c46558a090",
      "blockHash": "0xf4fba9c3d3d9220c5544edf9cb9ab254c21aa846622c50540ec0b8e2025c8f82",
      "blockNumber": 55380,
      "transactionIndex": 0,
      "confirmations": null,
      "from": "0x288E4356F12D0D3D0F8DF3506E457E7cFd5f4Ab0",
      "gasPrice": {
        "_hex": "0xe0745ade2"
      },
      "gasLimit": {
        "_hex": "0x186a0"
      },
      "to": "0xF6bF0eE51FE0ee92500bB22295382E9241eC3b5C",
      "value": {
        "_hex": "0x38d7ea4c68000"
      },
      "nonce": 14,
      "data": "0x0e54232740000000000000000000000000000000000000000000000000000000000000020998829a4a4dffa4cb357ca3806be8392a122c77e78524471c71c71c71c71c71c7",
      "r": "0x47c6a806c5ecce86a17b5e53ec6ee238417545fb9b54213a3fef7c23e1e144f4",
      "s": "0x1164799c93f22665e4095521057a92bf277da4fa4f89311f464c407915eacd59",
      "v": 27,
      "creates": null,
      "raw": "0xf8b20e850e0745ade2830186a094f6bf0ee51fe0ee92500bb22295382e9241ec3b5c87038d7ea4c68000b8450e54232740000000000000000000000000000000000000000000000000000000000000020998829a4a4dffa4cb357ca3806be8392a122c77e78524471c71c71c71c71c71c71ba047c6a806c5ecce86a17b5e53ec6ee238417545fb9b54213a3fef7c23e1e144f4a01164799c93f22665e4095521057a92bf277da4fa4f89311f464c407915eacd59",
      "networkId": 0,
      "chainId": 0
    }
  ]
}