{
  "hash": "0x82f6270b90578839080f969c163ec5fb4a87c8fa0d30c2bcbad4f5c7bee9080a",
  "parentHash": "0x30584ed883e6258b71ffbdd543a8716ca8ec0b1c2d4b8d2a30cbadd6fe2f366b",
  "number": 97491,
  "timestamp": 1439756976,
  "nonce": "0x327200aad4659d86",
  "difficulty": 3822350192130,
  "gasLimit": {
    "_hex": "0x2fefd8"
  },
  "gasUsed": {
    "_hex": "0x5208"
  },
  "miner": "0xe6A7a1d47ff21B6321162AEA7C6CB457D5476Bca",
  "extraData": "0x476574682f76312e302e312d38326566323666362f6c696e75782f676f312e34",
  "transactions": [
    {
      "hash": "0x4fe4db9590a7a8c1d57a13ad8f22314f76b9b9212989efdd7aa5b580742b3d9e",
      "blockHash": "0x82f6270b90578839080f969c163ec5fb4a87c8fa0d30c2bcbad4f5c7bee9080a",
      "blockNumber": 97491,
      "transactionIndex": 0,
      "confirmations": null,
      "from": "0x4D67f4F0Db45b3B5a3424B39ed8d972F710381D5",
      "gasPrice": {
        "_hex": "0xcb1b6d2f8"
      },
      "gasLimit": {
        "_hex": "0x5208"
      },
      "to": "0x32Be343B94f860124dC4fEe278FDCBD38C102D88",
      "value": {
        "_hex": "0x33f437b51bfe8c000"
      },
      "nonce": 14,
      "data": "0x",
      "r": "0x015774aba9cceae03d3d318aad6787631494138e1e6727b9174a30ca46d97954",
      "s": "0x5a6ae8cb52877860fc6be8c7c55ece53b1484a124fb81041730b6edfee5aaec4",
      "v": 27,
      "creates": null,
      "raw": "0xf86d0e850cb1b6d2f88252089432be343b94f860124dc4fee278fdcbd38c102d8889033f437b51bfe8c000801ba0015774aba9cceae03d3d318aad6787631494138e1e6727b9174a30ca46d97954a05a6ae8cb52877860fc6be8c7c55ece53b1484a124fb81041730b6edfee5aaec4",
      "networkId": 0,
      "chainId": 0
    }
  ]
}