{
  "hash": "0x2acb121de0a863c04635059bca16356fc93576f90857541f952f64589496a18f",
  "parentHash": "0x17c06e30ef08675fac0568ee35ad61d5b4507f4926f099ad8032a5538338e444",
  "number": 50073,
  "timestamp": 1438983596,
  "nonce": "0x3378872f72c4e0e2",
  "difficulty": 1503869566060,
  "gasLimit": {
    "_hex": "0x4e884"
  },
  "gasUsed": {
    "_hex": "0x546c"
  },
  "miner": "0x53824166ea5271d3425e3194c848A90CA4e97eB2",
  "extraData": "0x476574682f76312e302e312f6c696e75782f676f312e342e32",
  "transactions": [
    {
      "hash": "0x8e1c6a9107e85c00148291474a483ea665c7489857533fe5a5af34f0d19f6ada",
      "blockHash": "0x2acb121de0a863c04635059bca16356fc93576f90857541f952f64589496a18f",
      "blockNumber": 50073,
      "transactionIndex": 0,
      "confirmations": null,
      "from": "0x1D889aFF5D57138c9819412d63b5d877567B5936",
      "gasPrice": {
        "_hex": "0xd52efc96d"
      },
      "gasLimit": {
        "_hex": "0x7530"
      },
      "to": "0x2910543Af39abA0Cd09dBb2D50200b3E800A63D2",
      "value": {
        "_hex": "0x53444835ec5800000"
      },
      "nonce": 4,
      "data": "0x454e3651304d384252",
      "r": "0x13da4c9b5f380f524c43a2c23d9fd9120e64043b7357459732701f70f4e82720",
      "s": "0x5cd5aa76c8a7ae511254a3ab41044d0b40ee6c9bfbbfd6f329b0eb92853a33aa",
      "v": 28,
      "creates": null,
      "raw": "0xf87604850d52efc96d827530942910543af39aba0cd09dbb2d50200b3e800a63d289053444835ec580000089454e3651304d3842521ca013da4c9b5f380f524c43a2c23d9fd9120e64043b7357459732701f70f4e82720a05cd5aa76c8a7ae511254a3ab41044d0b40ee6c9bfbbfd6f329b0eb92853a33aa",
      "networkId": 0,
      "chainId": 0
    }
  ]
}