{
  "hash": "0x9d2ddbce43b0907735701eaf43ebf579c766c6424fa79f8444ffe52a0438dc77",
  "parentHash": "0x51a5debd6466c807a17342febca3c73059499e2d8887b87606e4a82e7fb6a077",
  "number": 64765,
  "timestamp": 1439225927,
  "nonce": "0xd5a3baefd77902c8",
  "difficulty": 1890344036073,
  "gasLimit": {
    "_hex": "0x2fefd8"
  },
  "gasUsed": {
    "_hex": "0x23315"
  },
  "miner": "0x2134e2a2b718DCa96580ECAC31E653Ea1fdd58DA",
  "extraData": "0x476574682f76312e302e312f77696e646f77732f676f312e342e32",
  "transactions": [
    {
      "hash": "0xe3d4a35a448eb1826215a16a777f974054ea269ebe7a9a27beaa5c18a6d4dd4c",
      "blockHash": "0x9d2ddbce43b0907735701eaf43ebf579c766c6424fa79f8444ffe52a0438dc77",
      "blockNumber": 64765,
      "transactionIndex": 0,
      "confirmations": null,
      "from": "0x8391813c10b72507819251bd4d2b96696afd9495",
      "gasPrice": {
        "_hex": "0xd42484c9e"
      },
      "gasLimit": {
        "_hex": "0x15f90"
      },
      "to": "0x125B606C67E8066Da65069652b656c19717745Fa",
      "value": {
        "_hex": "0x4563918244f40000"
      },
      "nonce": 3,
      "data": "0xa55526db",
      "r": "0x24cc31285dfae10ebbfb40db724f082fb075eb5c5b6a14a0de9e40247b688001",
      "s": "0x02a0ae95a7f7f10348666c9c5cf7a4a74bfc0ceddd9dca320d5774a6fa373d5e",
      "v": 28,
      "creates": null,
      "raw": "0xf87103850d42484c9e83015f9094125b606c67e8066da65069652b656c19717745fa884563918244f4000084a55526db1ca024cc31285dfae10ebbfb40db724f082fb075eb5c5b6a14a0de9e40247b688001a002a0ae95a7f7f10348666c9c5cf7a4a74bfc0ceddd9dca320d5774a6fa373d5e",
      "networkId": 0,
      "chainId": 0
    },
    {
      "hash": "0x143e8ddb4c5d7e786c09d51f568749d7b23c883306b19251c4ccfd883f99c56f",
      "blockHash": "0x9d2ddbce43b0907735701eaf43ebf579c766c6424fa79f8444ffe52a0438dc77",
      "blockNumber": 64765,
      "transactionIndex": 1,
      "confirmations": null,
      "from": "0x2910543Af39abA0Cd09dBb2D50200b3E800A63D2",
      "gasPrice": {
        "_hex": "0xd35273d85"
      },
      "gasLimit": {
        "_hex": "0x5208"
      },
      "to": "0xD96719eF8eFF64F6e84Fd03120014834F4E76c40",
      "value": {
        "_hex": "0x4f548be8276b028000"
      },
      "nonce": 154,
      "data": "0x",
      "r": "0xcdeb162ef9456ac528d01de5a8863697a82516e676ce19ba196ecfc1b8789ab5",
      "s": "0x131439f8fd5b77db927fab29949006995b0a147c79849a084dc0a44a2571129d",
      "v": 28,
      "creates": null,
      "raw": "0xf86e819a850d35273d8582520894d96719ef8eff64f6e84fd03120014834f4e76c40894f548be8276b028000801ca0cdeb162ef9456ac528d01de5a8863697a82516e676ce19ba196ecfc1b8789ab5a0131439f8fd5b77db927fab29949006995b0a147c79849a084dc0a44a2571129d",
      "networkId": 0,
      "chainId": 0
    },
    {
      "hash": "0xba24ebaafd12773203f4ec14a8bab7c4138eedc6b977bbbb2b65568cd1d375ad",
      "blockHash": "0x9d2ddbce43b0907735701eaf43ebf579c766c6424fa79f8444ffe52a0438dc77",
      "blockNumber": 64765,
      "transactionIndex": 2,
      "confirmations": null,
      "from": "0x6CE13F1816a2cFab76C59714291Cb8403CbBB3D8",
      "gasPrice": {
        "_hex": "0xcaf1882a6"
      },
      "gasLimit": {
        "_hex": "0x55f0"
      },
      "to": "0x2910543Af39abA0Cd09dBb2D50200b3E800A63D2",
      "value": {
        "_hex": "0x44004c09e76a0000"
      },
      "nonce": 0,
      "data": "0x454e46464550383547",
      "r": "0xb90e95f03f06dcd485db8aa9c9dafaa59528b1da5ed814de859202dec97cb70f",
      "s": "0x3ea9a48de5a2d0e490febcdd2555dc49dcab7f7659623ff86b28535c696d3156",
      "v": 27,
      "creates": null,
      "raw": "0xf87580850caf1882a68255f0942910543af39aba0cd09dbb2d50200b3e800a63d28844004c09e76a000089454e464645503835471ba0b90e95f03f06dcd485db8aa9c9dafaa59528b1da5ed814de859202dec97cb70fa03ea9a48de5a2d0e490febcdd2555dc49dcab7f7659623ff86b28535c696d3156",
      "networkId": 0,
      "chainId": 0
    },
    {
      "hash": "0xfef8d8aa15b2970cd354317629a905828125f657ce785f983fa631f6dfc87e34",
      "blockHash": "0x9d2ddbce43b0907735701eaf43ebf579c766c6424fa79f8444ffe52a0438dc77",
      "blockNumber": 64765,
      "transactionIndex": 3,
      "confirmations": null,
      "from": "0x49C3890417A75fD2f2733D0D4fcBc2C325ef8316",
      "gasPrice": {
        "_hex": "0xba43b7400"
      },
      "gasLimit": {
        "_hex": "0x5208"
      },
      "to": "0x9912009D593357e7A481926893fc2326A8Eaf87F",
      "value": {
        "_hex": "0x937bda828f9000"
      },
      "nonce": 1,
      "data": "0x",
      "r": "0xb83723c88f2fa0fe3b9752716f07868f4bdc7ce5e9ff3edd744adc152b615143",
      "s": "0x301e824ded9bb0cfdaa0bca9ca6715108da386648aee29d511993cc1b6f9f920",
      "v": 28,
      "creates": null,
      "raw": "0xf86b01850ba43b7400825208949912009d593357e7a481926893fc2326a8eaf87f87937bda828f9000801ca0b83723c88f2fa0fe3b9752716f07868f4bdc7ce5e9ff3edd744adc152b615143a0301e824ded9bb0cfdaa0bca9ca6715108da386648aee29d511993cc1b6f9f920",
      "networkId": 0,
      "chainId": 0
    },
    {
      "hash": "0xd1bda5f465f25c93628925fe6761c9a3fe37d89e2a324da3389147805e9526bd",
      "blockHash": "0x9d2ddbce43b0907735701eaf43ebf579c766c6424fa79f8444ffe52a0438dc77",
      "blockNumber": 64765,
      "transactionIndex": 4,
      "confirmations": null,
      "from": "0xC27a572921e5813F97A5Ae25AeCC48885Bf41d66",
      "gasPrice": {
        "_hex": "0xba43b7400"
      },
      "gasLimit": {
        "_hex": "0x15f90"
      },
      "to": "0x793AE8C1b1a160BFc07BFB0d04F85eab1A71F4f2",
      "value": {
        "_hex": "0x0"
      },
      "nonce": 0,
      "data": "0x3ba15036",
      "r": "0x150fede7391f5175fb8e304224a6988949e5592da42968ac476378d7d16bd7c0",
      "s": "0x6b01bd47aea2a4abc5095127ce66ca1e5ded3a40b95b60ece766ab6939be6e50",
      "v": 28,
      "creates": null,
      "raw": "0xf86980850ba43b740083015f9094793ae8c1b1a160bfc07bfb0d04f85eab1a71f4f280843ba150361ca0150fede7391f5175fb8e304224a6988949e5592da42968ac476378d7d16bd7c0a06b01bd47aea2a4abc5095127ce66ca1e5ded3a40b95b60ece766ab6939be6e50",
      "networkId": 0,
      "chainId": 0
    }
  ]
}