{
  "hash": "0x168d53f20f82a3483bd0e53f8dccc5f84cedf0319fe559ee935b5bd8ed79d9ff",
  "parentHash": "0xf2c65c32a4a991ac936efac070954cbab412f382a584c690a25213200ecfc11b",
  "number": 48296,
  "timestamp": 1438954841,
  "nonce": "0x1311ed15c43db6b3",
  "difficulty": 1455775117638,
  "gasLimit": {
    "_hex": "0x1538a"
  },
  "gasUsed": {
    "_hex": "0x5208"
  },
  "miner": "0xF2d2AfF1320476cb8C6b607199D23175cc595693",
  "extraData": "0x476574682f76312e302e312f77696e646f77732f676f312e342e32",
  "transactions": [
    {
      "hash": "0x1fb042c0df8f5a2854d0b4eb54bb1b9c4440eb945b2566f7ef15da35da2b56f3",
      "blockHash": "0x168d53f20f82a3483bd0e53f8dccc5f84cedf0319fe559ee935b5bd8ed79d9ff",
      "blockNumber": 48296,
      "transactionIndex": 0,
      "confirmations": null,
      "from": "0x1b8BD6d2eCa20185A78E7d98E8e185678DAc4830",
      "gasPrice": {
        "_hex": "0xdff373425"
      },
      "gasLimit": {
        "_hex": "0x5208"
      },
      "to": "0xe5E379b7d29B8EC623fE9127Ce6B34f73b184Dc1",
      "value": {
        "_hex": "0xdd77a03faf98000"
      },
      "nonce": 2,
      "data": "0x",
      "r": "0x636955cbfcfe2d09f6b8009408df91c6c7db6fa6a3acde36f6a3055afe6fa85a",
      "s": "0x632952b2bac3eaec2fc6d95473e3f0642028b085927cf8bd652dd67e9d18aca8",
      "v": 27,
      "creates": null,
      "raw": "0xf86c02850dff37342582520894e5e379b7d29b8ec623fe9127ce6b34f73b184dc1880dd77a03faf98000801ba0636955cbfcfe2d09f6b8009408df91c6c7db6fa6a3acde36f6a3055afe6fa85aa0632952b2bac3eaec2fc6d95473e3f0642028b085927cf8bd652dd67e9d18aca8",
      "networkId": 0,
      "chainId": 0
    }
  ]
}