{
  "hash": "0x769eff3e797327c434336d615f196c6be5ebbe2fd01384d8b10ef99300121806",
  "parentHash": "0x868115af44c90cee0c17c307de69fbaf4cf50543c660d1d554f79fdb369e42e1",
  "number": 47673,
  "timestamp": 1438944525,
  "nonce": "0xbf8b897d813c8c8c",
  "difficulty": 1448084514889,
  "gasLimit": {
    "_hex": "0xe167"
  },
  "gasUsed": {
    "_hex": "0x5208"
  },
  "miner": "0x288E4356F12D0D3D0F8DF3506E457E7cFd5f4Ab0",
  "extraData": "0x44617669642044776f726b656e",
  "transactions": [
    {
      "hash": "0xc592c847a50230178ca7961c41dcd066033530b9bd9f3abaca672abc04a337b6",
      "blockHash": "0x769eff3e797327c434336d615f196c6be5ebbe2fd01384d8b10ef99300121806",
      "blockNumber": 47673,
      "transactionIndex": 0,
      "confirmations": null,
      "from": "0xe6A7a1d47ff21B6321162AEA7C6CB457D5476Bca",
      "gasPrice": {
        "_hex": "0xd5aafd1a2"
      },
      "gasLimit": {
        "_hex": "0x55f0"
      },
      "to": "0xa28fb61A108456d201f8296eC31Fe1C5D73715D6",
      "value": {
        "_hex": "0x41ab19a38c92d638"
      },
      "nonce": 192,
      "data": "0x",
      "r": "0xfa38da0dff28371ab962d117c143fa572076947a4b235c7572418905c3b24bad",
      "s": "0x1c567e90fa20e8b9a047de60c780bbf31848b8ff312cd0c101a8811717128060",
      "v": 28,
      "creates": null,
      "raw": "0xf86d81c0850d5aafd1a28255f094a28fb61a108456d201f8296ec31fe1c5d73715d68841ab19a38c92d638801ca0fa38da0dff28371ab962d117c143fa572076947a4b235c7572418905c3b24bada01c567e90fa20e8b9a047de60c780bbf31848b8ff312cd0c101a8811717128060",
      "networkId": 0,
      "chainId": 0
    }
  ]
}