{
  "hash": "0xf6a140ea376b411a162226b10b266527a73dc141ddf332841ac782cc2e644860",
  "parentHash": "0xe517e8b3958bbd8539ee3d0a6a448a62453b797a956378a0a8b183b72546db9c",
  "number": 78567,
  "timestamp": 1439455735,
  "nonce": "0xae62f81c3ca0061d",
  "difficulty": 2303275594065,
  "gasLimit": {
    "_hex": "0x2fefd8"
  },
  "gasUsed": {
    "_hex": "0x19a28"
  },
  "miner": "0x580992B51e3925e23280EfB93d3047C82f17E038",
  "extraData": "0x476574682f76312e302e312f6c696e75782f676f312e342e32",
  "transactions": [
    {
      "hash": "0xbd306e941c2b565417d0b826fa8c6610e1314506527733d8e4d7de935577f3d4",
      "blockHash": "0xf6a140ea376b411a162226b10b266527a73dc141ddf332841ac782cc2e644860",
      "blockNumber": 78567,
      "transactionIndex": 0,
      "confirmations": null,
      "from": "0x8F79f76381Aad7B98C19aF55eE75fdfEeb012211",
      "gasPrice": {
        "_hex": "0xd0d247e16"
      },
      "gasLimit": {
        "_hex": "0x5208"
      },
      "to": "0x32Be343B94f860124dC4fEe278FDCBD38C102D88",
      "value": {
        "_hex": "0x56bc32f8e776b4000"
      },
      "nonce": 15,
      "data": "0x",
      "r": "0x983856169015aa34634d8df25db0cb8da027c47ebb68ce2f001a1146ac3f4f07",
      "s": "0x4f71070bf903d749b66388e80085c997485cc6bc155699eb8d325fcc2e0e1965",
      "v": 27,
      "creates": null,
      "raw": "0xf86d0f850d0d247e168252089432be343b94f860124dc4fee278fdcbd38c102d8889056bc32f8e776b4000801ba0983856169015aa34634d8df25db0cb8da027c47ebb68ce2f001a1146ac3f4f07a04f71070bf903d749b66388e80085c997485cc6bc155699eb8d325fcc2e0e1965",
      "networkId": 0,
      "chainId": 0
    },
    {
      "hash": "0x9f605cc9d729473c7629e1fcad3b4b38c9c9186f75cb0d719a271d5f47cf3b40",
      "blockHash": "0xf6a140ea376b411a162226b10b266527a73dc141ddf332841ac782cc2e644860",
      "blockNumber": 78567,
      "transactionIndex": 1,
      "confirmations": null,
      "from": "0xa70a9a7040d542C632D8e0bE7c5513A8a5Bbc752",
      "gasPrice": {
        "_hex": "0xd0d247e16"
      },
      "gasLimit": {
        "_hex": "0x5208"
      },
      "to": "0x32Be343B94f860124dC4fEe278FDCBD38C102D88",
      "value": {
        "_hex": "0x8ac2f4659e433000"
      },
      "nonce": 51,
      "data": "0x",
      "r": "0xe187fc3d1b885651d96fbde479804b447466ef91941b1a819280ed23b1abbc4f",
      "s": "0x78733619c55d8f8ddd9131189651b159bd0931e151f0721b464d5b83b36422d6",
      "v": 27,
      "creates": null,
      "raw": "0xf86c33850d0d247e168252089432be343b94f860124dc4fee278fdcbd38c102d88888ac2f4659e433000801ba0e187fc3d1b885651d96fbde479804b447466ef91941b1a819280ed23b1abbc4fa078733619c55d8f8ddd9131189651b159bd0931e151f0721b464d5b83b36422d6",
      "networkId": 0,
      "chainId": 0
    },
    {
      "hash": "0x3db3a2b5dd5606a91ec956045e2622a4cfb4370e97e2ed9938e71372bea65ea6",
      "blockHash": "0xf6a140ea376b411a162226b10b266527a73dc141ddf332841ac782cc2e644860",
      "blockNumber": 78567,
      "transactionIndex": 2,
      "confirmations": null,
      "from": "0xfBbf1e41C1B39888464D0F30f598d54262Fcc2E9",
      "gasPrice": {
        "_hex": "0xd0d247e16"
      },
      "gasLimit": {
        "_hex": "0x5208"
      },
      "to": "0x32Be343B94f860124dC4fEe278FDCBD38C102D88",
      "value": {
        "_hex": "0x43c33bd5967ca800000"
      },
      "nonce": 0,
      "data": "0x",
      "r": "0xc046ed1306bea51d9e17a197e34c5e35435d09bce7d7bc30295076b4f1948f35",
      "s": "0x322d019b13d47ab181a28cbdfec54a059e84a16f92b85c24b6e2c0ba7600f29d",
      "v": 27,
      "creates": null,
      "raw": "0xf86e80850d0d247e168252089432be343b94f860124dc4fee278fdcbd38c102d888a043c33bd5967ca800000801ba0c046ed1306bea51d9e17a197e34c5e35435d09bce7d7bc30295076b4f1948f35a0322d019b13d47ab181a28cbdfec54a059e84a16f92b85c24b6e2c0ba7600f29d",
      "networkId": 0,
      "chainId": 0
    },
    {
      "hash": "0x145c2dbdfd28639955f78a7f23e0ba8cd1d1d5a30c05af51f4e3da9e7908cb44",
      "blockHash": "0xf6a140ea376b411a162226b10b266527a73dc141ddf332841ac782cc2e644860",
      "blockNumber": 78567,
      "transactionIndex": 3,
      "confirmations": null,
      "from": "0x0A319A7e0C887F104359e1eEe6717BD8f232d3Da",
      "gasPrice": {
        "_hex": "0xd0d247e16"
      },
      "gasLimit": {
        "_hex": "0x5208"
      },
      "to": "0x32Be343B94f860124dC4fEe278FDCBD38C102D88",
      "value": {
        "_hex": "0x34b82c13fa28ec00"
      },
      "nonce": 7,
      "data": "0x",
      "r": "0xa0e4153f71d01aa504396611e51bfd9839dd42bd853bc4aaf3ccdccf38a0ad0f",
      "s": "0x1d105feabfb8705640167dad319ef5864f5d4d9a335b716524abf0d0c00d5510",
      "v": 28,
      "creates": null,
      "raw": "0xf86c07850d0d247e168252089432be343b94f860124dc4fee278fdcbd38c102d888834b82c13fa28ec00801ca0a0e4153f71d01aa504396611e51bfd9839dd42bd853bc4aaf3ccdccf38a0ad0fa01d105feabfb8705640167dad319ef5864f5d4d9a335b716524abf0d0c00d5510",
      "networkId": 0,
      "chainId": 0
    },
    {
      "hash": "0x4363cd0adb9fda7bb977731cfa0055836a5f6fef2962ac464d81ac0853ddcddc",
      "blockHash": "0xf6a140ea376b411a162226b10b266527a73dc141ddf332841ac782cc2e644860",
      "blockNumber": 78567,
      "transactionIndex": 4,
      "confirmations": null,
      "from": "0x3010cacF5965f60685011055570972e92B4479aB",
      "gasPrice": {
        "_hex": "0xd0d247e16"
      },
      "gasLimit": {
        "_hex": "0x5208"
      },
      "to": "0x32Be343B94f860124dC4fEe278FDCBD38C102D88",
      "value": {
        "_hex": "0x56bc33b683ff0c000"
      },
      "nonce": 3,
      "data": "0x",
      "r": "0xf7cd67b437a11fbd270cd7151a7af9326da2bbebd36aab4f56eac8233840cad2",
      "s": "0x643e74e479d8a3ef019d18367cb666c01b8bce1eb89793593f6e8d165f980cb5",
      "v": 28,
      "creates": null,
      "raw": "0xf86d03850d0d247e168252089432be343b94f860124dc4fee278fdcbd38c102d8889056bc33b683ff0c000801ca0f7cd67b437a11fbd270cd7151a7af9326da2bbebd36aab4f56eac8233840cad2a0643e74e479d8a3ef019d18367cb666c01b8bce1eb89793593f6e8d165f980cb5",
      "networkId": 0,
      "chainId": 0
    }
  ]
}