{
  "hash": "0x95d849b4f103b794aca610683c665ab7f89fca8ed7e92aadde308b34bd2ad515",
  "parentHash": "0x0e0d05d361ad2f4f3f55a6f68a7852c2ca37500395fc2266ee2fa1200f301b27",
  "number": 47726,
  "timestamp": 1438945447,
  "nonce": "0x5663a828227cb901",
  "difficulty": 1444544337351,
  "gasLimit": {
    "_hex": "0xea71"
  },
  "gasUsed": {
    "_hex": "0x546c"
  },
  "miner": "0x9746c7e1ef2bd21FF3997fa467593a89cb852BD0",
  "extraData": "0x476574682f76312e302e312f77696e646f77732f676f312e342e32",
  "transactions": [
    {
      "hash": "0x7382358b235cc7645f1d52439e12f5d6112e61c97c05192ac20aa5c057f60f81",
      "blockHash": "0x95d849b4f103b794aca610683c665ab7f89fca8ed7e92aadde308b34bd2ad515",
      "blockNumber": 47726,
      "transactionIndex": 0,
      "confirmations": null,
      "from": "0xD79aFf13Ba2Da75d46240cAC0a2467C656949823",
      "gasPrice": {
        "_hex": "0x746a528800"
      },
      "gasLimit": {
        "_hex": "0x61a8"
      },
      "to": "0x2910543Af39abA0Cd09dBb2D50200b3E800A63D2",
      "value": {
        "_hex": "0xd8d726b7177a80000"
      },
      "nonce": 4,
      "data": "0x454e42443831485552",
      "r": "0x1cb624ddcffe906341dc34097b49e40796e6a9b0369225ab4a06f79d11b1232d",
      "s": "0x7457843ed5bbc05923bde4030bdbd363e8591a588cf46b651dd850b67b5d29df",
      "v": 28,
      "creates": null,
      "raw": "0xf8760485746a5288008261a8942910543af39aba0cd09dbb2d50200b3e800a63d2890d8d726b7177a8000089454e424438314855521ca01cb624ddcffe906341dc34097b49e40796e6a9b0369225ab4a06f79d11b1232da07457843ed5bbc05923bde4030bdbd363e8591a588cf46b651dd850b67b5d29df",
      "networkId": 0,
      "chainId": 0
    }
  ]
}