{
  "hash": "0x05220a9b3af1d2f5ea24c5d2f97b6897a208e38f78ed70f36546069d5ce1c06e",
  "parentHash": "0xbcb4da9275e97b57c67e36c5f9a4e8468c47f3f3bb1626e2a201a8893a7ae89a",
  "number": 85402,
  "timestamp": 1439563063,
  "nonce": "0x61772a27385a7200",
  "difficulty": 2739660220334,
  "gasLimit": {
    "_hex": "0x2fefd8"
  },
  "gasUsed": {
    "_hex": "0x5208"
  },
  "miner": "0x007f7f58D3eb5b7510A301eCC749FC1fCDDBE14D",
  "extraData": "0x476574682f76312e302e312f77696e646f77732f676f312e342e32",
  "transactions": [
    {
      "hash": "0xc3ced41e21bb03e08b7aea7a10ae635d6027f758e1c437153b1916ddacb682d3",
      "blockHash": "0x05220a9b3af1d2f5ea24c5d2f97b6897a208e38f78ed70f36546069d5ce1c06e",
      "blockNumber": 85402,
      "transactionIndex": 0,
      "confirmations": null,
      "from": "0x7fa165177F28D171bA7C17f765c1904344Ec64CB",
      "gasPrice": {
        "_hex": "0xdd3bdce6c"
      },
      "gasLimit": {
        "_hex": "0x5208"
      },
      "to": "0x32Be343B94f860124dC4fEe278FDCBD38C102D88",
      "value": {
        "_hex": "0xad747d8397be8000"
      },
      "nonce": 15,
      "data": "0x",
      "r": "0xeec1faa4520a831bd89fe0df4296cf7f5f56e34722a67d44e508cc3a58b9ee74",
      "s": "0x3a5a308149e9d58925084ad05f4f1eb65a1904f5b89db603b14a1607f65395f7",
      "v": 27,
      "creates": null,
      "raw": "0xf86c0f850dd3bdce6c8252089432be343b94f860124dc4fee278fdcbd38c102d8888ad747d8397be8000801ba0eec1faa4520a831bd89fe0df4296cf7f5f56e34722a67d44e508cc3a58b9ee74a03a5a308149e9d58925084ad05f4f1eb65a1904f5b89db603b14a1607f65395f7",
      "networkId": 0,
      "chainId": 0
    }
  ]
}