{
  "hash": "0x59899762e5fbebbfe7daeeb6ebdf6ba94cfe0bfc02e35abe7c468e8faf9e4e1b",
  "parentHash": "0x60bc9a726b0636d2bd6eecbd9416f4ae32cc12e01c6153b1918c426a4519b5db",
  "number": 65111,
  "timestamp": 1439231511,
  "nonce": "0x878fb44732ade1ef",
  "difficulty": 1927548228280,
  "gasLimit": {
    "_hex": "0x2fefd8"
  },
  "gasUsed": {
    "_hex": "0xa410"
  },
  "miner": "0xf8E0CA3Ed80bd541b94BEdCf259e8CF2141A9523",
  "extraData": "0x476574682f76312e302e312f77696e646f77732f676f312e342e32",
  "transactions": [
    {
      "hash": "0x53236b0c8a11b3b1234942767abb65d70103bfd64d7fa8456dd3291584d631da",
      "blockHash": "0x59899762e5fbebbfe7daeeb6ebdf6ba94cfe0bfc02e35abe7c468e8faf9e4e1b",
      "blockNumber": 65111,
      "transactionIndex": 0,
      "confirmations": null,
      "from": "0xf6C18B7E62F1cA3C6183003c524d09120ca136cb",
      "gasPrice": {
        "_hex": "0x10be59437d6"
      },
      "gasLimit": {
        "_hex": "0x7530"
      },
      "to": "0x74658017042847C42A8Df154603BD29F563d4753",
      "value": {
        "_hex": "0xb1a2bc2ec50000"
      },
      "nonce": 0,
      "data": "0x",
      "r": "0x43e03371f32a2c9be02d9584880f51226f2dfa614f6e987f46938399cd778cb0",
      "s": "0x67a8c3ea6a4f706211269b1c3f38f60cc9b703f16115c44230067a25ab3eb825",
      "v": 27,
      "creates": null,
      "raw": "0xf86c8086010be59437d68275309474658017042847c42a8df154603bd29f563d475387b1a2bc2ec50000801ba043e03371f32a2c9be02d9584880f51226f2dfa614f6e987f46938399cd778cb0a067a8c3ea6a4f706211269b1c3f38f60cc9b703f16115c44230067a25ab3eb825",
      "networkId": 0,
      "chainId": 0
    },
    {
      "hash": "0x4f7aaa844626229423c9060d1601193d67cc947459d6717eb2a23b95bc497667",
      "blockHash": "0x59899762e5fbebbfe7daeeb6ebdf6ba94cfe0bfc02e35abe7c468e8faf9e4e1b",
      "blockNumber": 65111,
      "transactionIndex": 1,
      "confirmations": null,
      "from": "0x0A319A7e0C887F104359e1eEe6717BD8f232d3Da",
      "gasPrice": {
        "_hex": "0xe1d103c1b"
      },
      "gasLimit": {
        "_hex": "0x5208"
      },
      "to": "0x32Be343B94f860124dC4fEe278FDCBD38C102D88",
      "value": {
        "_hex": "0x25780bf88cc30c000"
      },
      "nonce": 1,
      "data": "0x",
      "r": "0xe688df5eed7de57888891480c3d7810bf431f649aaaa71b7151abc998ef7f5f3",
      "s": "0x0bb764fba6c2626a48448d56a84c0637ee13b59bba719c87e95b3c11d01c0040",
      "v": 27,
      "creates": null,
      "raw": "0xf86d01850e1d103c1b8252089432be343b94f860124dc4fee278fdcbd38c102d8889025780bf88cc30c000801ba0e688df5eed7de57888891480c3d7810bf431f649aaaa71b7151abc998ef7f5f3a00bb764fba6c2626a48448d56a84c0637ee13b59bba719c87e95b3c11d01c0040",
      "networkId": 0,
      "chainId": 0
    }
  ]
}