{
  "hash": "0x06b804adff53ca729814725ea73abe1096545f410b732a08e66059c01a02f189",
  "parentHash": "0xf1af2abcbdb9534d948bb0135b61669e0036ab6409c52a195a058f7d8cec569c",
  "number": 90977,
  "timestamp": 1439648286,
  "nonce": "0xace5db9831c86f8d",
  "difficulty": 3428994219574,
  "gasLimit": {
    "_hex": "0x2fefd8"
  },
  "gasUsed": {
    "_hex": "0x19a28"
  },
  "miner": "0x47ff6576639c2e94762eA5443978D7681C0E78DC",
  "extraData": "0x476574682f76312e302e312f6c696e75782f676f312e342e32",
  "transactions": [
    {
      "hash": "0x2f1e39b538922042d6b7e8fb2a6a6a968cfb4a725ab7e77eb4fb6a7cab04e6d3",
      "blockHash": "0x06b804adff53ca729814725ea73abe1096545f410b732a08e66059c01a02f189",
      "blockNumber": 90977,
      "transactionIndex": 0,
      "confirmations": null,
      "from": "0xb1abce2918E21ddb93AA452731a12672A3d9F75a",
      "gasPrice": {
        "_hex": "0xdfb96504d"
      },
      "gasLimit": {
        "_hex": "0x5208"
      },
      "to": "0x32Be343B94f860124dC4fEe278FDCBD38C102D88",
      "value": {
        "_hex": "0x8ffb1fd7784fe0000"
      },
      "nonce": 4,
      "data": "0x",
      "r": "0x5930d42961f6658f59268867de5c4207a1d8ac40c1f90aa4b86770836ff35f4c",
      "s": "0x51585dcf84be67f656ebe70c7954493e1797ff1720b8d1d48052db6d6edbbea4",
      "v": 27,
      "creates": null,
      "raw": "0xf86d04850dfb96504d8252089432be343b94f860124dc4fee278fdcbd38c102d888908ffb1fd7784fe0000801ba05930d42961f6658f59268867de5c4207a1d8ac40c1f90aa4b86770836ff35f4ca051585dcf84be67f656ebe70c7954493e1797ff1720b8d1d48052db6d6edbbea4",
      "networkId": 0,
      "chainId": 0
    },
    {
      "hash": "0xbadda8262949be6fb76e7ff8419531a243a69f08f71d4a88b7db45aa27f9709d",
      "blockHash": "0x06b804adff53ca729814725ea73abe1096545f410b732a08e66059c01a02f189",
      "blockNumber": 90977,
      "transactionIndex": 1,
      "confirmations": null,
      "from": "0x5a0f0935E8E5591B2f9f2d55f29C626B50292088",
      "gasPrice": {
        "_hex": "0xdfb96504d"
      },
      "gasLimit": {
        "_hex": "0x5208"
      },
      "to": "0x32Be343B94f860124dC4fEe278FDCBD38C102D88",
      "value": {
        "_hex": "0x56bb11fad25558000"
      },
      "nonce": 17,
      "data": "0x",
      "r": "0x5671499c035408e52e31236834209f09b8240b3dbfc869524c696e95c551d263",
      "s": "0x5131910b108b3a71cd8253382fa454e577b5589bf8c401cf7475fc14cfb72910",
      "v": 28,
      "creates": null,
      "raw": "0xf86d11850dfb96504d8252089432be343b94f860124dc4fee278fdcbd38c102d8889056bb11fad25558000801ca05671499c035408e52e31236834209f09b8240b3dbfc869524c696e95c551d263a05131910b108b3a71cd8253382fa454e577b5589bf8c401cf7475fc14cfb72910",
      "networkId": 0,
      "chainId": 0
    },
    {
      "hash": "0xb26cc685a18ba45894823210e927ae982ac8b5b5538872f3410d1aa5f67f65ad",
      "blockHash": "0x06b804adff53ca729814725ea73abe1096545f410b732a08e66059c01a02f189",
      "blockNumber": 90977,
      "transactionIndex": 2,
      "confirmations": null,
      "from": "0x19ae27E1b61445EB9f27821A5eB4b3e957319e7e",
      "gasPrice": {
        "_hex": "0xdfb96504d"
      },
      "gasLimit": {
        "_hex": "0x5208"
      },
      "to": "0x32Be343B94f860124dC4fEe278FDCBD38C102D88",
      "value": {
        "_hex": "0xd64aceed9b81680000"
      },
      "nonce": 10,
      "data": "0x",
      "r": "0x6ae069376f93397c8cd2a0e64696ec754661089faffaa6966fe813bca8e8ccbc",
      "s": "0x64f3b4684b8919468a0f6516b94b783712e5b7142b5c9b6630d10b470b13bba4",
      "v": 28,
      "creates": null,
      "raw": "0xf86d0a850dfb96504d8252089432be343b94f860124dc4fee278fdcbd38c102d8889d64aceed9b81680000801ca06ae069376f93397c8cd2a0e64696ec754661089faffaa6966fe813bca8e8ccbca064f3b4684b8919468a0f6516b94b783712e5b7142b5c9b6630d10b470b13bba4",
      "networkId": 0,
      "chainId": 0
    },
    {
      "hash": "0x544d209ad6e00dd6b345bb3e87389dce0a83c199263b94061c35ff2e845ec864",
      "blockHash": "0x06b804adff53ca729814725ea73abe1096545f410b732a08e66059c01a02f189",
      "blockNumber": 90977,
      "transactionIndex": 3,
      "confirmations": null,
      "from": "0xA6CF15Cc4e4C6d1cE63B43E5963CBD0450fd9566",
      "gasPrice": {
        "_hex": "0xdfb96504d"
      },
      "gasLimit": {
        "_hex": "0x5208"
      },
      "to": "0x32Be343B94f860124dC4fEe278FDCBD38C102D88",
      "value": {
        "_hex": "0xad78a4be2ea330000"
      },
      "nonce": 1,
      "data": "0x",
      "r": "0xab87393b87ff527ce14accdd901544b728f0b96905e70c5407544b5b5a4fcfb7",
      "s": "0x3e925604a36dd4f4be6eee2404861670e772744c57a718ecde39f8b293d366ea",
      "v": 28,
      "creates": null,
      "raw": "0xf86d01850dfb96504d8252089432be343b94f860124dc4fee278fdcbd38c102d88890ad78a4be2ea330000801ca0ab87393b87ff527ce14accdd901544b728f0b96905e70c5407544b5b5a4fcfb7a03e925604a36dd4f4be6eee2404861670e772744c57a718ecde39f8b293d366ea",
      "networkId": 0,
      "chainId": 0
    },
    {
      "hash": "0xdbcf9ad2505ed58d89f14e5953c7e98f8adbf9c20b5492c6965fb32343c50fb6",
      "blockHash": "0x06b804adff53ca729814725ea73abe1096545f410b732a08e66059c01a02f189",
      "blockNumber": 90977,
      "transactionIndex": 4,
      "confirmations": null,
      "from": "0x120A270bbC009644e35F0bB6ab13f95b8199c4ad",
      "gasPrice": {
        "_hex": "0xcd7c7a5e3"
      },
      "gasLimit": {
        "_hex": "0x3d090"
      },
      "to": "0xbae281B6b389e840f52b74C832EcdaEf7820d8a5",
      "value": {
        "_hex": "0x1fefb9b408a697000"
      },
      "nonce": 527,
      "data": "0x",
      "r": "0x760441293cb82453cbaa27acb7e79d9c3d13661a44fb05f702447b1250836803",
      "s": "0x677262d6b9cf4efc968720ee980e8232337e462b504a3b7037dec705f1674662",
      "v": 27,
      "creates": null,
      "raw": "0xf87082020f850cd7c7a5e38303d09094bae281b6b389e840f52b74c832ecdaef7820d8a58901fefb9b408a697000801ba0760441293cb82453cbaa27acb7e79d9c3d13661a44fb05f702447b1250836803a0677262d6b9cf4efc968720ee980e8232337e462b504a3b7037dec705f1674662",
      "networkId": 0,
      "chainId": 0
    }
  ]
}