{
  "hash": "0x96a7c03c6d50795c04e7589d32d5d1513adb63ba2ccb19360af27b5dd3a20c13",
  "parentHash": "0xede274d0f02418adebeb6bde23effcbeec3470877d0802cde1d0762da3bfcc94",
  "number": 64892,
  "timestamp": 1439227924,
  "nonce": "0x202b06d69f6f494a",
  "difficulty": 1906071818034,
  "gasLimit": {
    "_hex": "0x2fefd8"
  },
  "gasUsed": {
    "_hex": "0xa410"
  },
  "miner": "0xa50ec0D39fa913E62f1Bae7074E6F36caA71855b",
  "extraData": "0x",
  "transactions": [
    {
      "hash": "0xe7ef3d81dc6216b1c51e16dc3bd3ec80ca23868058a8b3f70b09c477fae7bee4",
      "blockHash": "0x96a7c03c6d50795c04e7589d32d5d1513adb63ba2ccb19360af27b5dd3a20c13",
      "blockNumber": 64892,
      "transactionIndex": 0,
      "confirmations": null,
      "from": "0x3Ad06149b21C55Ff867cc3fb9740D2BCc7101231",
      "gasPrice": {
        "_hex": "0xd80679296"
      },
      "gasLimit": {
        "_hex": "0x15f90"
      },
      "to": "0x314c7Daa4825ffC0293819119c5FDCC0CcF19827",
      "value": {
        "_hex": "0x43c33c1937564800000"
      },
      "nonce": 19,
      "data": "0x",
      "r": "0x9d18a90370a876702f3ca2911c46ce2a1fc0d7d3ede91f1713c09ed728cef2af",
      "s": "0x22d4bb103f11fc97bbccdf499dcde74616c47082de2c8dbc3d52570de240c1f7",
      "v": 27,
      "creates": null,
      "raw": "0xf86f13850d8067929683015f9094314c7daa4825ffc0293819119c5fdcc0ccf198278a043c33c1937564800000801ba09d18a90370a876702f3ca2911c46ce2a1fc0d7d3ede91f1713c09ed728cef2afa022d4bb103f11fc97bbccdf499dcde74616c47082de2c8dbc3d52570de240c1f7",
      "networkId": 0,
      "chainId": 0
    },
    {
      "hash": "0x5e6caa4c6d20d229451c5f22683782200ea9cf95f51a47cae2fd30d7baf3ed29",
      "blockHash": "0x96a7c03c6d50795c04e7589d32d5d1513adb63ba2ccb19360af27b5dd3a20c13",
      "blockNumber": 64892,
      "transactionIndex": 1,
      "confirmations": null,
      "from": "0xC1438123CC7975E7AB3991DE5A8b7f80D2E8Bc80",
      "gasPrice": {
        "_hex": "0xba43b7400"
      },
      "gasLimit": {
        "_hex": "0x5208"
      },
      "to": "0x7D020D6e5Fb25618fc1009fFa05F45587fF0dC1D",
      "value": {
        "_hex": "0x653580cf6eb000"
      },
      "nonce": 1,
      "data": "0x",
      "r": "0x96d69f67faadf04b93cb04cf1eb98b09c73d5beb252898e9f03c13d9f3e2c02c",
      "s": "0x4d009de69ff3375a184e5c1bf224c8567ae6f9ccf786da9a6f021c26bfd337f9",
      "v": 27,
      "creates": null,
      "raw": "0xf86b01850ba43b7400825208947d020d6e5fb25618fc1009ffa05f45587ff0dc1d87653580cf6eb000801ba096d69f67faadf04b93cb04cf1eb98b09c73d5beb252898e9f03c13d9f3e2c02ca04d009de69ff3375a184e5c1bf224c8567ae6f9ccf786da9a6f021c26bfd337f9",
      "networkId": 0,
      "chainId": 0
    }
  ]
}