{
  "hash": "0xb92fa6f1bfcd75fa3fbe0db36dfc9c20d3366286f21a2ceaae8a860e85a1a3be",
  "parentHash": "0x5f6c0047431958cd3792121f227d2fe35b6a5f6e08de8cf3e260aa8eae9e68d1",
  "number": 99130,
  "timestamp": 1439784950,
  "nonce": "0x3e6db1a31d02f23c",
  "difficulty": 3808563614227,
  "gasLimit": {
    "_hex": "0x2fefd8"
  },
  "gasUsed": {
    "_hex": "0x5208"
  },
  "miner": "0xEF247E639d49461D25F57e9362CadE3120910Ce0",
  "extraData": "0x476574682f76312e302e312f6c696e75782f676f312e342e32",
  "transactions": [
    {
      "hash": "0x158f0abb02bd5f3fe7dac40a285d3b7cba30cfdde16759d2154cc78cda772938",
      "blockHash": "0xb92fa6f1bfcd75fa3fbe0db36dfc9c20d3366286f21a2ceaae8a860e85a1a3be",
      "blockNumber": 99130,
      "transactionIndex": 0,
      "confirmations": null,
      "from": "0x6ACfef6b58D6EE01D4BdB53CA81c5D6560824446",
      "gasPrice": {
        "_hex": "0xd40560242"
      },
      "gasLimit": {
        "_hex": "0x5208"
      },
      "to": "0x32Be343B94f860124dC4fEe278FDCBD38C102D88",
      "value": {
        "_hex": "0x8ab1208676a3e000"
      },
      "nonce": 2,
      "data": "0x",
      "r": "0x875a6a60bd9870c5fd7bc9bd56e866a66f77ea483d9006372ee695da660bdac8",
      "s": "0x5531b12000d08ea58f66f97c097a78b4f7318ad32b40a8a51d3ada0a265679bf",
      "v": 27,
      "creates": null,
      "raw": "0xf86c02850d405602428252089432be343b94f860124dc4fee278fdcbd38c102d88888ab1208676a3e000801ba0875a6a60bd9870c5fd7bc9bd56e866a66f77ea483d9006372ee695da660bdac8a05531b12000d08ea58f66f97c097a78b4f7318ad32b40a8a51d3ada0a265679bf",
      "networkId": 0,
      "chainId": 0
    }
  ]
}