{
  "hash": "0x60d2536f608774b8ee152c90c9bff5aea31ae19e791dae6f1ccff6c9e14d990d",
  "parentHash": "0x54dfcb50a8b3164a0c5b1766fdd2751120c6bac65347a788573f0543e27be471",
  "number": 77455,
  "timestamp": 1439437605,
  "nonce": "0x68dbd9e3920cb8c9",
  "difficulty": 2237072216053,
  "gasLimit": {
    "_hex": "0x2fefd5"
  },
  "gasUsed": {
    "_hex": "0x5d9f"
  },
  "miner": "0xbb7B8287f3F0a933474a79eAe42CBCa977791171",
  "extraData": "0x476574682f4c5649562f76312e302e312f6c696e75782f676f312e342e32",
  "transactions": [
    {
      "hash": "0x5743c320d8f6fee413b655732945fa36aa98287d611a828c874a6376ab828a0d",
      "blockHash": "0x60d2536f608774b8ee152c90c9bff5aea31ae19e791dae6f1ccff6c9e14d990d",
      "blockNumber": 77455,
      "transactionIndex": 0,
      "confirmations": null,
      "from": "0x770d98d31b4353FceEE8560c4CCf803e88C0c4e0",
      "gasPrice": {
        "_hex": "0xdf2495029"
      },
      "gasLimit": {
        "_hex": "0x15f90"
      },
      "to": "0xCAc7000C7dBaa2E33Af15325AF5D435E011C7BdD",
      "value": {
        "_hex": "0x2bb2c8eabcc000"
      },
      "nonce": 15,
      "data": "0xb214faa54131313131313131410000000000000000000000000000000000000000000000",
      "r": "0x82b520c5c54f63bfd85892ee79d75261866ac1e2aaff8f957e63609ee69b1e60",
      "s": "0x40d20dbf9bad89354c18b598c1462869f5469305e6d3b9c2b0b0ba06b67434e0",
      "v": 28,
      "creates": null,
      "raw": "0xf8900f850df249502983015f9094cac7000c7dbaa2e33af15325af5d435e011c7bdd872bb2c8eabcc000a4b214faa541313131313131314100000000000000000000000000000000000000000000001ca082b520c5c54f63bfd85892ee79d75261866ac1e2aaff8f957e63609ee69b1e60a040d20dbf9bad89354c18b598c1462869f5469305e6d3b9c2b0b0ba06b67434e0",
      "networkId": 0,
      "chainId": 0
    }
  ]
}