{
  "hash": "0x7be038becb119fcf024b57137ac769feba5473f14651e1662469959dceeb2b3d",
  "parentHash": "0xd0e05010bf2766b43e69bcb243a9b1905c8c1ad91103071744e7deaa6e7d8ef6",
  "number": 120817,
  "timestamp": 1440166362,
  "nonce": "0x1453cc6cda776ac7",
  "difficulty": 4452021401542,
  "gasLimit": {
    "_hex": "0x2fefd8"
  },
  "gasUsed": {
    "_hex": "0x5208"
  },
  "miner": "0xe6A7a1d47ff21B6321162AEA7C6CB457D5476Bca",
  "extraData": "0xd783010002844765746887676f312e342e32856c696e7578",
  "transactions": [
    {
      "hash": "0xd381dafb5753b4f16657775172aa04c89e55cc0459f8e928fb3f6a2490be72dc",
      "blockHash": "0x7be038becb119fcf024b57137ac769feba5473f14651e1662469959dceeb2b3d",
      "blockNumber": 120817,
      "transactionIndex": 0,
      "confirmations": null,
      "from": "0xFBb1b73C4f0BDa4f67dcA266ce6Ef42f520fBB98",
      "gasPrice": {
        "_hex": "0xba43b7400"
      },
      "gasLimit": {
        "_hex": "0x5208"
      },
      "to": "0x797D1f2d60538013574734dBD6e4eF70Fd81E695",
      "value": {
        "_hex": "0xb445c02d10530000"
      },
      "nonce": 260,
      "data": "0x",
      "r": "0xf5e337d91e248a1f6c54ba2d37ef80729cc8b43af95dbda6ac8ef7dc6279e4ac",
      "s": "0x19249331e5ed9c0aa570a966253ee3547a31bfac2446ee1d18142932749b18a4",
      "v": 28,
      "creates": null,
      "raw": "0xf86e820104850ba43b740082520894797d1f2d60538013574734dbd6e4ef70fd81e69588b445c02d10530000801ca0f5e337d91e248a1f6c54ba2d37ef80729cc8b43af95dbda6ac8ef7dc6279e4aca019249331e5ed9c0aa570a966253ee3547a31bfac2446ee1d18142932749b18a4",
      "networkId": 0,
      "chainId": 0
    }
  ]
}