{
  "hash": "0x8ea09b65813cf72cdb7774e9458ba2f7be9f9bf18714fab0fcfc296f08aa628f",
  "parentHash": "0xc1eb8db5ab67d07c3eca412c6a79972e3086cdf66bfda067ef994f0c274c4410",
  "number": 99962,
  "timestamp": 1439798490,
  "nonce": "0xe7df77a5f8c65b10",
  "difficulty": 3845557390813,
  "gasLimit": {
    "_hex": "0x2fefd8"
  },
  "gasUsed": {
    "_hex": "0x5c490"
  },
  "miner": "0x9D49F602b0fdb924Bd63DDE2Bd0907E4A07c63a7",
  "extraData": "0x476574682f76312e302e312f6c696e75782f676f312e342e32",
  "transactions": [
    {
      "hash": "0x21c59837c0048924a0ecc085744f63cfb53741dbc4473b992d2078d1b08ac023",
      "blockHash": "0x8ea09b65813cf72cdb7774e9458ba2f7be9f9bf18714fab0fcfc296f08aa628f",
      "blockNumber": 99962,
      "transactionIndex": 0,
      "confirmations": null,
      "from": "0xe6A7a1d47ff21B6321162AEA7C6CB457D5476Bca",
      "gasPrice": {
        "_hex": "0xd674ac1cb"
      },
      "gasLimit": {
        "_hex": "0x55f0"
      },
      "to": "0xE5cd922132641CF77d8a95dE3F3B335Ee6D54d71",
      "value": {
        "_hex": "0x6e2e37ab15a45e40"
      },
      "nonce": 3297,
      "data": "0x",
      "r": "0xbca6570c53d1189793ae6a77a30454bd4f7959c0ed1f29114b1798479c481117",
      "s": "0x50423f430a2dc128e9fe778474c49076d30d0374ef2984c0d3f0d284cb750058",
      "v": 28,
      "creates": null,
      "raw": "0xf86e820ce1850d674ac1cb8255f094e5cd922132641cf77d8a95de3f3b335ee6d54d71886e2e37ab15a45e40801ca0bca6570c53d1189793ae6a77a30454bd4f7959c0ed1f29114b1798479c481117a050423f430a2dc128e9fe778474c49076d30d0374ef2984c0d3f0d284cb750058",
      "networkId": 0,
      "chainId": 0
    },
    {
      "hash": "0xbafb8c3982c6dab5b9f63e14317902dc1ff67d85b74c60aa5086ef672743574a",
      "blockHash": "0x8ea09b65813cf72cdb7774e9458ba2f7be9f9bf18714fab0fcfc296f08aa628f",
      "blockNumber": 99962,
      "transactionIndex": 1,
      "confirmations": null,
      "from": "0xe6A7a1d47ff21B6321162AEA7C6CB457D5476Bca",
      "gasPrice": {
        "_hex": "0xd674ac1cb"
      },
      "gasLimit": {
        "_hex": "0x55f0"
      },
      "to": "0xbb30e448B72d6Fdd44973A4C7a312F92f22C8F07",
      "value": {
        "_hex": "0x6e5a4797b13c0b00"
      },
      "nonce": 3298,
      "data": "0x",
      "r": "0x9a94b466dc4fcb95360f1318741c183f4e596614c61ba26d2099761a7c108a20",
      "s": "0x23eb484dd23b7ec836035a30dc9f060e887c10388a5ed0a825df81581ac740a2",
      "v": 27,
      "creates": null,
      "raw": "0xf86e820ce2850d674ac1cb8255f094bb30e448b72d6fdd44973a4c7a312f92f22c8f07886e5a4797b13c0b00801ba09a94b466dc4fcb95360f1318741c183f4e596614c61ba26d2099761a7c108a20a023eb484dd23b7ec836035a30dc9f060e887c10388a5ed0a825df81581ac740a2",
      "networkId": 0,
      "chainId": 0
    },
    {
      "hash": "0x83e140db5b020b02c37acb54fa001775cbc0faeb2c4e3bc5b80bda65cc306859",
      "blockHash": "0x8ea09b65813cf72cdb7774e9458ba2f7be9f9bf18714fab0fcfc296f08aa628f",
      "blockNumber": 99962,
      "transactionIndex": 2,
      "confirmations": null,
      "from": "0xe6A7a1d47ff21B6321162AEA7C6CB457D5476Bca",
      "gasPrice": {
        "_hex": "0xd674ac1cb"
      },
      "gasLimit": {
        "_hex": "0x55f0"
      },
      "to": "0xc1A0C41BD9ab5DC2508d9a9bcd51A3Bb6513F48B",
      "value": {
        "_hex": "0x6f706c0c795bc8a0"
      },
      "nonce": 3299,
      "data": "0x",
      "r": "0xc456ebb9f4782b6812cb0c2ef0fb54912969aa748f6748075b986f178e58ab6b",
      "s": "0x15aa87f2d60e28fa742df25f4a22a533468267773df91da4ae3816ace2f7cda0",
      "v": 28,
      "creates": null,
      "raw": "0xf86e820ce3850d674ac1cb8255f094c1a0c41bd9ab5dc2508d9a9bcd51a3bb6513f48b886f706c0c795bc8a0801ca0c456ebb9f4782b6812cb0c2ef0fb54912969aa748f6748075b986f178e58ab6ba015aa87f2d60e28fa742df25f4a22a533468267773df91da4ae3816ace2f7cda0",
      "networkId": 0,
      "chainId": 0
    },
    {
      "hash": "0x9461a441471dd6d6fdb056cfd7a0c34fd3293acd9c094e3fb43253c518fa0939",
      "blockHash": "0x8ea09b65813cf72cdb7774e9458ba2f7be9f9bf18714fab0fcfc296f08aa628f",
      "blockNumber": 99962,
      "transactionIndex": 3,
      "confirmations": null,
      "from": "0xe6A7a1d47ff21B6321162AEA7C6CB457D5476Bca",
      "gasPrice": {
        "_hex": "0xd674ac1cb"
      },
      "gasLimit": {
        "_hex": "0x55f0"
      },
      "to": "0x24D0A28C70BAC94698980F2c297Ee1Cf505F06cB",
      "value": {
        "_hex": "0x6f8407be99cb84c0"
      },
      "nonce": 3300,
      "data": "0x",
      "r": "0xee54b0d4faa1b5d6ef638593470ce1c3a732e15838a5d54228980bee88fec60c",
      "s": "0x00ab0e2c06e29b579a40a8d6797c527a6ccef4111aa89c863c25fec0caf94402",
      "v": 28,
      "creates": null,
      "raw": "0xf86d820ce4850d674ac1cb8255f09424d0a28c70bac94698980f2c297ee1cf505f06cb886f8407be99cb84c0801ca0ee54b0d4faa1b5d6ef638593470ce1c3a732e15838a5d54228980bee88fec60c9fab0e2c06e29b579a40a8d6797c527a6ccef4111aa89c863c25fec0caf94402",
      "networkId": 0,
      "chainId": 0
    },
    {
      "hash": "0x955b299ed1f7697593b925d0376cae9a717e7e03a8525faf4abe279d4aa19aa5",
      "blockHash": "0x8ea09b65813cf72cdb7774e9458ba2f7be9f9bf18714fab0fcfc296f08aa628f",
      "blockNumber": 99962,
      "transactionIndex": 4,
      "confirmations": null,
      "from": "0xe6A7a1d47ff21B6321162AEA7C6CB457D5476Bca",
      "gasPrice": {
        "_hex": "0xd674ac1cb"
      },
      "gasLimit": {
        "_hex": "0x55f0"
      },
      "to": "0xd8F5f0458bDA93A6d2ffA08cee7c1A0CbeA410aE",
      "value": {
        "_hex": "0x7053f522733b5638"
      },
      "nonce": 3301,
      "data": "0x",
      "r": "0x2e0429a1e9ab24c01cf60f67879205ee15adb8c89ab898f602048ac97f66e29d",
      "s": "0x45d3cef474e0f4db7fc8a81628376f7fb8c8bb23c3e4b152d9a2ca5f87e8a9b7",
      "v": 27,
      "creates": null,
      "raw": "0xf86e820ce5850d674ac1cb8255f094d8f5f0458bda93a6d2ffa08cee7c1a0cbea410ae887053f522733b5638801ba02e0429a1e9ab24c01cf60f67879205ee15adb8c89ab898f602048ac97f66e29da045d3cef474e0f4db7fc8a81628376f7fb8c8bb23c3e4b152d9a2ca5f87e8a9b7",
      "networkId": 0,
      "chainId": 0
    },
    {
      "hash": "0xb7c6ff419b485a0764c40822a4c6b8e072dae0a4c21bf496a71bdb370f0f989b",
      "blockHash": "0x8ea09b65813cf72cdb7774e9458ba2f7be9f9bf18714fab0fcfc296f08aa628f",
      "blockNumber": 99962,
      "transactionIndex": 5,
      "confirmations": null,
      "from": "0xe6A7a1d47ff21B6321162AEA7C6CB457D5476Bca",
      "gasPrice": {
        "_hex": "0xd674ac1cb"
      },
      "gasLimit": {
        "_hex": "0x55f0"
      },
      "to": "0xa28F8098A723e4ca02E9f4512410C519a252c1a9",
      "value": {
        "_hex": "0x7070097edfe966f8"
      },
      "nonce": 3302,
      "data": "0x",
      "r": "0xe4e42eedd2aebc053368ce574e5d55639a543cb2b7cc473d6cf6bd53d691981c",
      "s": "0x17f72a9c32afd984dc30adda6903d71b78894d8d2f53f0cd9247f4b1da90b085",
      "v": 28,
      "creates": null,
      "raw": "0xf86e820ce6850d674ac1cb8255f094a28f8098a723e4ca02e9f4512410c519a252c1a9887070097edfe966f8801ca0e4e42eedd2aebc053368ce574e5d55639a543cb2b7cc473d6cf6bd53d691981ca017f72a9c32afd984dc30adda6903d71b78894d8d2f53f0cd9247f4b1da90b085",
      "networkId": 0,
      "chainId": 0
    },
    {
      "hash": "0x8ce7595689281c2f349e3a2b09223b7d8992d45a934a4bddb8ab8ef704061ec7",
      "blockHash": "0x8ea09b65813cf72cdb7774e9458ba2f7be9f9bf18714fab0fcfc296f08aa628f",
      "blockNumber": 99962,
      "transactionIndex": 6,
      "confirmations": null,
      "from": "0xe6A7a1d47ff21B6321162AEA7C6CB457D5476Bca",
      "gasPrice": {
        "_hex": "0xd674ac1cb"
      },
      "gasLimit": {
        "_hex": "0x55f0"
      },
      "to": "0xA56697139eB8704667673Af60c361AF8C32694E3",
      "value": {
        "_hex": "0x721b1f983fa63e50"
      },
      "nonce": 3303,
      "data": "0x",
      "r": "0x988b118ba4467db330c99a3381161a6679cde332603abf2178adbd489ce42d54",
      "s": "0x148b46461037e4b98d1e07eedfcd6f13f1172376cb57cdb703ac0385595cfa8a",
      "v": 27,
      "creates": null,
      "raw": "0xf86e820ce7850d674ac1cb8255f094a56697139eb8704667673af60c361af8c32694e388721b1f983fa63e50801ba0988b118ba4467db330c99a3381161a6679cde332603abf2178adbd489ce42d54a0148b46461037e4b98d1e07eedfcd6f13f1172376cb57cdb703ac0385595cfa8a",
      "networkId": 0,
      "chainId": 0
    },
    {
      "hash": "0x965a58872ab026a3161c6b76f2e8dbf17725141af0e1a944428a3c1766e9267a",
      "blockHash": "0x8ea09b65813cf72cdb7774e9458ba2f7be9f9bf18714fab0fcfc296f08aa628f",
      "blockNumber": 99962,
      "transactionIndex": 7,
      "confirmations": null,
      "from": "0xe6A7a1d47ff21B6321162AEA7C6CB457D5476Bca",
      "gasPrice": {
        "_hex": "0xd674ac1cb"
      },
      "gasLimit": {
        "_hex": "0x55f0"
      },
      "to": "0x6589D22b54648e5D67Dc008eBd0c836D3DF39c87",
      "value": {
        "_hex": "0x724e6f2bc229ad60"
      },
      "nonce": 3304,
      "data": "0x",
      "r": "0x1204fe3357b5e4ca72c38aaeb5d5c6edef4b72d3ddd49b48ea784abbef83de65",
      "s": "0x6a4965103c9a623360ea5c754d72ad26ee4aa170f1ea78d941517bfa834b6475",
      "v": 27,
      "creates": null,
      "raw": "0xf86e820ce8850d674ac1cb8255f0946589d22b54648e5d67dc008ebd0c836d3df39c8788724e6f2bc229ad60801ba01204fe3357b5e4ca72c38aaeb5d5c6edef4b72d3ddd49b48ea784abbef83de65a06a4965103c9a623360ea5c754d72ad26ee4aa170f1ea78d941517bfa834b6475",
      "networkId": 0,
      "chainId": 0
    },
    {
      "hash": "0x4b64d962f810ac6acc9b308f94a9953f9a84c8f9cb0c2026df452c6e6b575562",
      "blockHash": "0x8ea09b65813cf72cdb7774e9458ba2f7be9f9bf18714fab0fcfc296f08aa628f",
      "blockNumber": 99962,
      "transactionIndex": 8,
      "confirmations": null,
      "from": "0xe6A7a1d47ff21B6321162AEA7C6CB457D5476Bca",
      "gasPrice": {
        "_hex": "0xd674ac1cb"
      },
      "gasLimit": {
        "_hex": "0x55f0"
      },
      "to": "0xc9450a30B259ebB8631b9bC49c64dBAeC472D6Af",
      "value": {
        "_hex": "0x72f3aec3ec012988"
      },
      "nonce": 3305,
      "data": "0x",
      "r": "0x027755438abf45a1393da97020f9635b5d697819eb9ef4e6c5e47851fc676891",
      "s": "0x35d6711858b7ce026b558d8b2033d037d6624a71638b04d2b4b080ec88f1daeb",
      "v": 28,
      "creates": null,
      "raw": "0xf86e820ce9850d674ac1cb8255f094c9450a30b259ebb8631b9bc49c64dbaec472d6af8872f3aec3ec012988801ca0027755438abf45a1393da97020f9635b5d697819eb9ef4e6c5e47851fc676891a035d6711858b7ce026b558d8b2033d037d6624a71638b04d2b4b080ec88f1daeb",
      "networkId": 0,
      "chainId": 0
    },
    {
      "hash": "0xb567d51ae36460d914c1cfaaa612ab2c69e758d27079fbc887e41b529e7624d4",
      "blockHash": "0x8ea09b65813cf72cdb7774e9458ba2f7be9f9bf18714fab0fcfc296f08aa628f",
      "blockNumber": 99962,
      "transactionIndex": 9,
      "confirmations": null,
      "from": "0xe6A7a1d47ff21B6321162AEA7C6CB457D5476Bca",
      "gasPrice": {
        "_hex": "0xd674ac1cb"
      },
      "gasLimit": {
        "_hex": "0x55f0"
      },
      "to": "0xb4eb03c9bDD4944DE22085E8e1dB5Ebd36889Bd8",
      "value": {
        "_hex": "0x72f427ef324e19d8"
      },
      "nonce": 3306,
      "data": "0x",
      "r": "0x24a134950b790c2843b3ed688a547dfadba3d995d3f0861f2d06e61eab6785dc",
      "s": "0x109da0edbb0aa393c459275f6f835bdeec5fe1e9bb6b6f590872382ea273904f",
      "v": 28,
      "creates": null,
      "raw": "0xf86e820cea850d674ac1cb8255f094b4eb03c9bdd4944de22085e8e1db5ebd36889bd88872f427ef324e19d8801ca024a134950b790c2843b3ed688a547dfadba3d995d3f0861f2d06e61eab6785dca0109da0edbb0aa393c459275f6f835bdeec5fe1e9bb6b6f590872382ea273904f",
      "networkId": 0,
      "chainId": 0
    },
    {
      "hash": "0xab069a02ce8592315a0792bc775eb094001c3978b2c8a3463080e86d47113a3b",
      "blockHash": "0x8ea09b65813cf72cdb7774e9458ba2f7be9f9bf18714fab0fcfc296f08aa628f",
      "blockNumber": 99962,
      "transactionIndex": 10,
      "confirmations": null,
      "from": "0xe6A7a1d47ff21B6321162AEA7C6CB457D5476Bca",
      "gasPrice": {
        "_hex": "0xd674ac1cb"
      },
      "gasLimit": {
        "_hex": "0x55f0"
      },
      "to": "0x8f30e76a8Ddf9FaEf40fd58197421716764B72D8",
      "value": {
        "_hex": "0x7423d6ebc7f9d090"
      },
      "nonce": 3307,
      "data": "0x",
      "r": "0x2d10b4d418182fc5bdd64186d1f1d3ee38daaffc0c50470d628040a6c5d2d70e",
      "s": "0x38268f1c9de5416e948778e7262189722b6a3c3d93a223ef9286a4492da9d499",
      "v": 27,
      "creates": null,
      "raw": "0xf86e820ceb850d674ac1cb8255f0948f30e76a8ddf9faef40fd58197421716764b72d8887423d6ebc7f9d090801ba02d10b4d418182fc5bdd64186d1f1d3ee38daaffc0c50470d628040a6c5d2d70ea038268f1c9de5416e948778e7262189722b6a3c3d93a223ef9286a4492da9d499",
      "networkId": 0,
      "chainId": 0
    },
    {
      "hash": "0xed44f73e6aca1abcb2686523c17dbf2b3ae6b67772755d63e6bbb6768881ab1b",
      "blockHash": "0x8ea09b65813cf72cdb7774e9458ba2f7be9f9bf18714fab0fcfc296f08aa628f",
      "blockNumber": 99962,
      "transactionIndex": 11,
      "confirmations": null,
      "from": "0xe6A7a1d47ff21B6321162AEA7C6CB457D5476Bca",
      "gasPrice": {
        "_hex": "0xd674ac1cb"
      },
      "gasLimit": {
        "_hex": "0x55f0"
      },
      "to": "0x2B15C5211bdA6A867c582080536f6c61766aA5Af",
      "value": {
        "_hex": "0x756348208dec08c8"
      },
      "nonce": 3308,
      "data": "0x",
      "r": "0x92e13c5f0209df95362ab24054e4b1a3fb137423ac7d8f9089ae441156f9de2d",
      "s": "0x017bfbe64c991eba34c3624deaa940273b4fb42aa50e8380fd5db50eff597359",
      "v": 28,
      "creates": null,
      "raw": "0xf86e820cec850d674ac1cb8255f0942b15c5211bda6a867c582080536f6c61766aa5af88756348208dec08c8801ca092e13c5f0209df95362ab24054e4b1a3fb137423ac7d8f9089ae441156f9de2da0017bfbe64c991eba34c3624deaa940273b4fb42aa50e8380fd5db50eff597359",
      "networkId": 0,
      "chainId": 0
    },
    {
      "hash": "0xfc7b7bc26da8db1b5bcac407ca73481ff08f7cc3de91ea514ffc1b9b04dcecff",
      "blockHash": "0x8ea09b65813cf72cdb7774e9458ba2f7be9f9bf18714fab0fcfc296f08aa628f",
      "blockNumber": 99962,
      "transactionIndex": 12,
      "confirmations": null,
      "from": "0xe6A7a1d47ff21B6321162AEA7C6CB457D5476Bca",
      "gasPrice": {
        "_hex": "0xd674ac1cb"
      },
      "gasLimit": {
        "_hex": "0x55f0"
      },
      "to": "0xa50ec0D39fa913E62f1Bae7074E6F36caA71855b",
      "value": {
        "_hex": "0x76a5e18ca1ca6670"
      },
      "nonce": 3309,
      "data": "0x",
      "r": "0x7015cae6fc93d4678afd6860d40626b69da0b7f15da762baead0c38d9cb7e1fa",
      "s": "0x170d8966af02eed462eaa63f006eb4f933d4c703f67b6cbac885e395ad99893e",
      "v": 27,
      "creates": null,
      "raw": "0xf86e820ced850d674ac1cb8255f094a50ec0d39fa913e62f1bae7074e6f36caa71855b8876a5e18ca1ca6670801ba07015cae6fc93d4678afd6860d40626b69da0b7f15da762baead0c38d9cb7e1faa0170d8966af02eed462eaa63f006eb4f933d4c703f67b6cbac885e395ad99893e",
      "networkId": 0,
      "chainId": 0
    },
    {
      "hash": "0x280bea8d210693d381d99d842ee48bd90a5eb699249436ba075f1c469b42468d",
      "blockHash": "0x8ea09b65813cf72cdb7774e9458ba2f7be9f9bf18714fab0fcfc296f08aa628f",
      "blockNumber": 99962,
      "transactionIndex": 13,
      "confirmations": null,
      "from": "0xe6A7a1d47ff21B6321162AEA7C6CB457D5476Bca",
      "gasPrice": {
        "_hex": "0xd674ac1cb"
      },
      "gasLimit": {
        "_hex": "0x55f0"
      },
      "to": "0x1A99941B3E60c242bb3941e5BB5e1049145CDf9B",
      "value": {
        "_hex": "0x76d46fd6e70098c0"
      },
      "nonce": 3310,
      "data": "0x",
      "r": "0x5ff46153bcd25cc7dc0c6d06e7f700b5f18b8f9ebc12763983526ef964f09f79",
      "s": "0x565d51eea651400a085f35f7b1aadd4c6b9f520569cb09642d63e8e3daca3204",
      "v": 27,
      "creates": null,
      "raw": "0xf86e820cee850d674ac1cb8255f0941a99941b3e60c242bb3941e5bb5e1049145cdf9b8876d46fd6e70098c0801ba05ff46153bcd25cc7dc0c6d06e7f700b5f18b8f9ebc12763983526ef964f09f79a0565d51eea651400a085f35f7b1aadd4c6b9f520569cb09642d63e8e3daca3204",
      "networkId": 0,
      "chainId": 0
    },
    {
      "hash": "0xe31343584b195d5029cd7d57801610389124a00726235759ea730bc73ffe0bb5",
      "blockHash": "0x8ea09b65813cf72cdb7774e9458ba2f7be9f9bf18714fab0fcfc296f08aa628f",
      "blockNumber": 99962,
      "transactionIndex": 14,
      "confirmations": null,
      "from": "0xe6A7a1d47ff21B6321162AEA7C6CB457D5476Bca",
      "gasPrice": {
        "_hex": "0xd674ac1cb"
      },
      "gasLimit": {
        "_hex": "0x55f0"
      },
      "to": "0x72dcecdD4a7374231676f7fA910A678DfC7c98D6",
      "value": {
        "_hex": "0x798b9cfc81579de0"
      },
      "nonce": 3311,
      "data": "0x",
      "r": "0x37ddf93a89ea8d0b058a5d134a7adeae5f5701aa19b328f63a204b3edb5c1ec1",
      "s": "0x34d7a9a4d43774f5ece43bc5e78bb942ca02788ce41e850fea6602a846157267",
      "v": 27,
      "creates": null,
      "raw": "0xf86e820cef850d674ac1cb8255f09472dcecdd4a7374231676f7fa910a678dfc7c98d688798b9cfc81579de0801ba037ddf93a89ea8d0b058a5d134a7adeae5f5701aa19b328f63a204b3edb5c1ec1a034d7a9a4d43774f5ece43bc5e78bb942ca02788ce41e850fea6602a846157267",
      "networkId": 0,
      "chainId": 0
    },
    {
      "hash": "0x4184fa8d352fa059e263666a1b0bdf7c2564dce711fbe419ae0c4accdbc7ebcb",
      "blockHash": "0x8ea09b65813cf72cdb7774e9458ba2f7be9f9bf18714fab0fcfc296f08aa628f",
      "blockNumber": 99962,
      "transactionIndex": 15,
      "confirmations": null,
      "from": "0xe6A7a1d47ff21B6321162AEA7C6CB457D5476Bca",
      "gasPrice": {
        "_hex": "0xd674ac1cb"
      },
      "gasLimit": {
        "_hex": "0x55f0"
      },
      "to": "0xD924AAC0bCB65C13bE4044f6BeA8aAe34D7a7126",
      "value": {
        "_hex": "0x7ab9ad429e509ed0"
      },
      "nonce": 3312,
      "data": "0x",
      "r": "0x3e01acc8958358b4aa45760bd2026a201d214f00c00abc00e71e36b7df1341d4",
      "s": "0x501fc594d62cc6aaf0ead053edf60d551c94c885d1b3ad03f1876e832b3a5d60",
      "v": 27,
      "creates": null,
      "raw": "0xf86e820cf0850d674ac1cb8255f094d924aac0bcb65c13be4044f6bea8aae34d7a7126887ab9ad429e509ed0801ba03e01acc8958358b4aa45760bd2026a201d214f00c00abc00e71e36b7df1341d4a0501fc594d62cc6aaf0ead053edf60d551c94c885d1b3ad03f1876e832b3a5d60",
      "networkId": 0,
      "chainId": 0
    },
    {
      "hash": "0xf381501958d4cc5e9fecd34907807a9c2194398d3df3ab5bc4765364dce3358e",
      "blockHash": "0x8ea09b65813cf72cdb7774e9458ba2f7be9f9bf18714fab0fcfc296f08aa628f",
      "blockNumber": 99962,
      "transactionIndex": 16,
      "confirmations": null,
      "from": "0xe6A7a1d47ff21B6321162AEA7C6CB457D5476Bca",
      "gasPrice": {
        "_hex": "0xd674ac1cb"
      },
      "gasLimit": {
        "_hex": "0x55f0"
      },
      "to": "0x5D9067970755043fF5cE7FA2cd21C12F3646Bc55",
      "value": {
        "_hex": "0x7aeae1a5be179660"
      },
      "nonce": 3313,
      "data": "0x",
      "r": "0xe0e4ee3f5a69ab48dfe08648a2c4026adb45b4e836ab4482c1389990c01e4954",
      "s": "0x24f12ecb9e3227075393877bd6d5a54a98a869040b4dbec4c39f960f88153ebe",
      "v": 27,
      "creates": null,
      "raw": "0xf86e820cf1850d674ac1cb8255f0945d9067970755043ff5ce7fa2cd21c12f3646bc55887aeae1a5be179660801ba0e0e4ee3f5a69ab48dfe08648a2c4026adb45b4e836ab4482c1389990c01e4954a024f12ecb9e3227075393877bd6d5a54a98a869040b4dbec4c39f960f88153ebe",
      "networkId": 0,
      "chainId": 0
    },
    {
      "hash": "0x8b254013497fbb9cf57b25cb72459c084bf982ffd980ce627dbf1aff2695521f",
      "blockHash": "0x8ea09b65813cf72cdb7774e9458ba2f7be9f9bf18714fab0fcfc296f08aa628f",
      "blockNumber": 99962,
      "transactionIndex": 17,
      "confirmations": null,
      "from": "0xe6A7a1d47ff21B6321162AEA7C6CB457D5476Bca",
      "gasPrice": {
        "_hex": "0xd674ac1cb"
      },
      "gasLimit": {
        "_hex": "0x55f0"
      },
      "to": "0x3055307B225BAbd4689a6091B8F6B6Cf82046d5F",
      "value": {
        "_hex": "0x7b6df359e7e1c710"
      },
      "nonce": 3314,
      "data": "0x",
      "r": "0x6a9ad24f610171bf38b3686afcbe97b048ced3ab03c3ac8d1b33186afeda8291",
      "s": "0x06f9f4b55c256f326f63e432ed5c3a02d1e16897fec897a2d3adb8cfb326c869",
      "v": 27,
      "creates": null,
      "raw": "0xf86e820cf2850d674ac1cb8255f0943055307b225babd4689a6091b8f6b6cf82046d5f887b6df359e7e1c710801ba06a9ad24f610171bf38b3686afcbe97b048ced3ab03c3ac8d1b33186afeda8291a006f9f4b55c256f326f63e432ed5c3a02d1e16897fec897a2d3adb8cfb326c869",
      "networkId": 0,
      "chainId": 0
    }
  ]
}