{
  "hash": "0x134bdcbc654f318cdb86ce446a512ec522b067a12fe99926ada31653e33eea5e",
  "parentHash": "0x57fed58ee86fa012ab6a1981392d42f9d91bb246b37e396031de618d67f74099",
  "number": 119631,
  "timestamp": 1440146237,
  "nonce": "0x09d328cf8bc060ce",
  "difficulty": 4387901893030,
  "gasLimit": {
    "_hex": "0x2fefd8"
  },
  "gasUsed": {
    "_hex": "0xa410"
  },
  "miner": "0xe6A7a1d47ff21B6321162AEA7C6CB457D5476Bca",
  "extraData": "0xd783010002844765746887676f312e342e32856c696e7578",
  "transactions": [
    {
      "hash": "0xab994c4b577d975e3ff28453bad8b204fab35267843c4b38bb7ad8b9930e8ef0",
      "blockHash": "0x134bdcbc654f318cdb86ce446a512ec522b067a12fe99926ada31653e33eea5e",
      "blockNumber": 119631,
      "transactionIndex": 0,
      "confirmations": null,
      "from": "0x790b8a3cE86E707ED0eD32bF89B3269692a23CC1",
      "gasPrice": {
        "_hex": "0xba43b7400"
      },
      "gasLimit": {
        "_hex": "0x15f90"
      },
      "to": "0x4D67f4F0Db45b3B5a3424B39ed8d972F710381D5",
      "value": {
        "_hex": "0x2de228db94a2a0000"
      },
      "nonce": 68,
      "data": "0x",
      "r": "0xca6d158fdcc0322bd21a0755ee01f29eb628734d0b1641288ce0a62dd190c907",
      "s": "0x45bf29915f3a50f93d92780e12a74b832fd10d662e3cf077858c705be7076eb1",
      "v": 28,
      "creates": null,
      "raw": "0xf86e44850ba43b740083015f90944d67f4f0db45b3b5a3424b39ed8d972f710381d58902de228db94a2a0000801ca0ca6d158fdcc0322bd21a0755ee01f29eb628734d0b1641288ce0a62dd190c907a045bf29915f3a50f93d92780e12a74b832fd10d662e3cf077858c705be7076eb1",
      "networkId": 0,
      "chainId": 0
    },
    {
      "hash": "0x1b3d99b668092fa9c204307cda95c2fd347ef2db2407ba48170e2069ca8723a7",
      "blockHash": "0x134bdcbc654f318cdb86ce446a512ec522b067a12fe99926ada31653e33eea5e",
      "blockNumber": 119631,
      "transactionIndex": 1,
      "confirmations": null,
      "from": "0x623d2411c3bb3340784155F9a688b0085251aB5c",
      "gasPrice": {
        "_hex": "0xba43b7400"
      },
      "gasLimit": {
        "_hex": "0x55f0"
      },
      "to": "0xB9eE81c1A5CdE84454DC603a8000836118627cfd",
      "value": {
        "_hex": "0x2b5e3af16b1880000"
      },
      "nonce": 8,
      "data": "0x",
      "r": "0x8a072edfd5df5f0ab41a4052f40482045e796c8eeaf7286a9293783817a3d9cb",
      "s": "0x18184143cca6842ba029b0eb30aeed4269e01a25d30223860d22d2aa06243384",
      "v": 28,
      "creates": null,
      "raw": "0xf86d08850ba43b74008255f094b9ee81c1a5cde84454dc603a8000836118627cfd8902b5e3af16b1880000801ca08a072edfd5df5f0ab41a4052f40482045e796c8eeaf7286a9293783817a3d9cba018184143cca6842ba029b0eb30aeed4269e01a25d30223860d22d2aa06243384",
      "networkId": 0,
      "chainId": 0
    }
  ]
}