{
  "hash": "0xb175b5733019291dade0fd0a045beb90d05ebaa1133435f4e079c47f4899fb3c",
  "parentHash": "0x3455d9ec0a09be3d9ae803bd1e15685e503536d71df4cd38a716a4916bd1c72f",
  "number": 92888,
  "timestamp": 1439678755,
  "nonce": "0x714df020c0104fab",
  "difficulty": 3651096250073,
  "gasLimit": {
    "_hex": "0x2fefd8"
  },
  "gasUsed": {
    "_hex": "0x5208"
  },
  "miner": "0xe6A7a1d47ff21B6321162AEA7C6CB457D5476Bca",
  "extraData": "0x476574682f76312e302e312d38326566323666362f6c696e75782f676f312e34",
  "transactions": [
    {
      "hash": "0x1d470776577575a58b4a7ceda03b883b4667f10e43d0f50db0137729302a4304",
      "blockHash": "0xb175b5733019291dade0fd0a045beb90d05ebaa1133435f4e079c47f4899fb3c",
      "blockNumber": 92888,
      "transactionIndex": 0,
      "confirmations": null,
      "from": "0x120A270bbC009644e35F0bB6ab13f95b8199c4ad",
      "gasPrice": {
        "_hex": "0xd060c2b0d"
      },
      "gasLimit": {
        "_hex": "0x3d090"
      },
      "to": "0x15397d74964AA58Cdd8878828a9D580286F4Faba",
      "value": {
        "_hex": "0x4f2b85728b052000"
      },
      "nonce": 554,
      "data": "0x",
      "r": "0x192830f949589b6c4c17492e47b364c296aa2bca98b2be81624a4ed503cbf138",
      "s": "0x7e0db637e26dd773b146694256871051737323fa9e207b0e834b02ec56061af4",
      "v": 27,
      "creates": null,
      "raw": "0xf86f82022a850d060c2b0d8303d0909415397d74964aa58cdd8878828a9d580286f4faba884f2b85728b052000801ba0192830f949589b6c4c17492e47b364c296aa2bca98b2be81624a4ed503cbf138a07e0db637e26dd773b146694256871051737323fa9e207b0e834b02ec56061af4",
      "networkId": 0,
      "chainId": 0
    }
  ]
}