{
  "hash": "0xd01fe97c0c03c77a9295f97d3a8ef6fba7f7260a822e6cf174fff81e7a51fe15",
  "parentHash": "0xba17751284e3c566dc13325a1940f0ca743530982484f73a36d888c87d658dd2",
  "number": 102577,
  "timestamp": 1439840030,
  "nonce": "0xe6982ec109e74f61",
  "difficulty": 4003360655191,
  "gasLimit": {
    "_hex": "0x2fefd8"
  },
  "gasUsed": {
    "_hex": "0x5208"
  },
  "miner": "0x0D4EcC7d750180EBf4A9Df728B6669B5Bceb5E40",
  "extraData": "0x",
  "transactions": [
    {
      "hash": "0x9673f10a5129803cce3c3f35b61c7365d1c3125bc0b26ad1485b70f72a1bbdf9",
      "blockHash": "0xd01fe97c0c03c77a9295f97d3a8ef6fba7f7260a822e6cf174fff81e7a51fe15",
      "blockNumber": 102577,
      "transactionIndex": 0,
      "confirmations": null,
      "from": "0xaC02beAb69f61eD095e394A1bEb83F8bF1C18d27",
      "gasPrice": {
        "_hex": "0xdb82862e7"
      },
      "gasLimit": {
        "_hex": "0x5208"
      },
      "to": "0xFBb1b73C4f0BDa4f67dcA266ce6Ef42f520fBB98",
      "value": {
        "_hex": "0x537c48342c956ac8"
      },
      "nonce": 0,
      "data": "0x",
      "r": "0x67033767ed8507d90f0bfb861a1e369496e42cfa25a1b62fff2126bfd5ba2d4d",
      "s": "0x249b503786afe65ea9b64004f65bc15dded3c792260e00ed9d242f33dc2daf28",
      "v": 27,
      "creates": null,
      "raw": "0xf86c80850db82862e782520894fbb1b73c4f0bda4f67dca266ce6ef42f520fbb9888537c48342c956ac8801ba067033767ed8507d90f0bfb861a1e369496e42cfa25a1b62fff2126bfd5ba2d4da0249b503786afe65ea9b64004f65bc15dded3c792260e00ed9d242f33dc2daf28",
      "networkId": 0,
      "chainId": 0
    }
  ]
}