{
  "hash": "0x593d29dc6fb27ee3ada3348d0d1725deb699590fdd6b6256c9e081d4c8e10f8f",
  "parentHash": "0xafe58a314917b43fc44a8661050319179be8eacaca4861d4a1112746cd9df69a",
  "number": 49513,
  "timestamp": 1438974661,
  "nonce": "0xee6dd8330a9e2c61",
  "difficulty": 1479207824074,
  "gasLimit": {
    "_hex": "0x33b04"
  },
  "gasUsed": {
    "_hex": "0x546c"
  },
  "miner": "0xdd2F1e6e498202e86D8f5442Af596580A4f03c2C",
  "extraData": "0x476574682f76312e302e312d38326566323666362f6c696e75782f676f312e34",
  "transactions": [
    {
      "hash": "0x511844e39e09e81eac5b1dbac156badfbdf872b8e9262be06de705b4db60653f",
      "blockHash": "0x593d29dc6fb27ee3ada3348d0d1725deb699590fdd6b6256c9e081d4c8e10f8f",
      "blockNumber": 49513,
      "transactionIndex": 0,
      "confirmations": null,
      "from": "0xdeb97254474c0d2F5a7970dCdb2F52Fb1098b896",
      "gasPrice": {
        "_hex": "0x10c18ba151c"
      },
      "gasLimit": {
        "_hex": "0x15f90"
      },
      "to": "0x2910543Af39abA0Cd09dBb2D50200b3E800A63D2",
      "value": {
        "_hex": "0x36330322d5238c0000"
      },
      "nonce": 0,
      "data": "0x454e42304a42363352",
      "r": "0xa2fb96766c48a6871098e821c0f1798f116cf256cf6cba3be1ed60e0c4536a47",
      "s": "0x311aeed7f79bd60cac2560e55be71e6b6b0218ea1d9db1092d51fb58d88c8dda",
      "v": 28,
      "creates": null,
      "raw": "0xf8788086010c18ba151c83015f90942910543af39aba0cd09dbb2d50200b3e800a63d28936330322d5238c000089454e42304a423633521ca0a2fb96766c48a6871098e821c0f1798f116cf256cf6cba3be1ed60e0c4536a47a0311aeed7f79bd60cac2560e55be71e6b6b0218ea1d9db1092d51fb58d88c8dda",
      "networkId": 0,
      "chainId": 0
    }
  ]
}