{
  "hash": "0x7a1b37bf69f624ae26eb318a40d371daef00e9376b422195225a559f0cb14fa7",
  "parentHash": "0x367aaed135abcd793aa077a695afb8333fae932899c094abab893f33682f6754",
  "number": 49891,
  "timestamp": 1438980648,
  "nonce": "0x7eb110ed751b3b15",
  "difficulty": 1498039035028,
  "gasLimit": {
    "_hex": "0x445ca"
  },
  "gasUsed": {
    "_hex": "0x1e552"
  },
  "miner": "0xDB1045Bc6102648A8A70F35892836Fa6B5e451D7",
  "extraData": "0x476574682f76312e302e312f6c696e75782f676f312e342e32",
  "transactions": [
    {
      "hash": "0x8090af56c25d7152979ab263aa6f6603262c44de18b685b5c84ad742fa66dcd0",
      "blockHash": "0x7a1b37bf69f624ae26eb318a40d371daef00e9376b422195225a559f0cb14fa7",
      "blockNumber": 49891,
      "transactionIndex": 0,
      "confirmations": null,
      "from": "0x7e7eC15A5944e978257dDae0008C2F2eCe0A6090",
      "gasPrice": {
        "_hex": "0xd875dc99c"
      },
      "gasLimit": {
        "_hex": "0x30d40"
      },
      "to": "0x6e38A457C722C6011B2dfa06d49240e797844d66",
      "value": {
        "_hex": "0x0"
      },
      "nonce": 1,
      "data": "0xf3fe12c90000000000000000000000000000000000000000000000000000000000000020000000000000000000000000000000000000000000000000000000000000000f50657465722077617320686572652e0000000000000000000000000000000000",
      "r": "0x4e91b5ab21d659240899980eb8af0ac26a697e7c08a740037a33f3f351f059ae",
      "s": "0x2c47008752263bc6afe12b2a1dace1e8b06d311ad6d0a9923a373dbece7f62ef",
      "v": 27,
      "creates": null,
      "raw": "0xf8ca01850d875dc99c83030d40946e38a457c722c6011b2dfa06d49240e797844d6680b864f3fe12c90000000000000000000000000000000000000000000000000000000000000020000000000000000000000000000000000000000000000000000000000000000f50657465722077617320686572652e00000000000000000000000000000000001ba04e91b5ab21d659240899980eb8af0ac26a697e7c08a740037a33f3f351f059aea02c47008752263bc6afe12b2a1dace1e8b06d311ad6d0a9923a373dbece7f62ef",
      "networkId": 0,
      "chainId": 0
    }
  ]
}