{
  "hash": "0x7d82c7c79241b94e75c4334d80d354335b96052adbd763c59f439f358487f080",
  "parentHash": "0x038d346ebd2fc1ae3bf5db2cc19ce85128519a41d804e73c2a85fe7fa416b98a",
  "number": 49134,
  "timestamp": 1438968645,
  "nonce": "0xbb218d987928e031",
  "difficulty": 1475667550983,
  "gasLimit": {
    "_hex": "0x26bcb"
  },
  "gasUsed": {
    "_hex": "0x5208"
  },
  "miner": "0xF2d2AfF1320476cb8C6b607199D23175cc595693",
  "extraData": "0x476574682f76312e302e312f77696e646f77732f676f312e342e32",
  "transactions": [
    {
      "hash": "0xf5d6ea16c2bf7d2b2d47936dfcb4013c6ddd3f79019cfec0c958434a8f42bb9a",
      "blockHash": "0x7d82c7c79241b94e75c4334d80d354335b96052adbd763c59f439f358487f080",
      "blockNumber": 49134,
      "transactionIndex": 0,
      "confirmations": null,
      "from": "0x38876939fFE3E2F973C27BB77c403BB85CD78645",
      "gasPrice": {
        "_hex": "0xdcccef3c4"
      },
      "gasLimit": {
        "_hex": "0x5208"
      },
      "to": "0x32Be343B94f860124dC4fEe278FDCBD38C102D88",
      "value": {
        "_hex": "0x4e634de1d5a3dc00"
      },
      "nonce": 0,
      "data": "0x",
      "r": "0x2088ab719cf28c0065a7410c53dbae7de3a20ace07070b81fce1ba4c852e1186",
      "s": "0x563688e11a8594f6011208b9bfb42e6b64db4542d2f4d46cd1a6ec29939ecd42",
      "v": 27,
      "creates": null,
      "raw": "0xf86c80850dcccef3c48252089432be343b94f860124dc4fee278fdcbd38c102d88884e634de1d5a3dc00801ba02088ab719cf28c0065a7410c53dbae7de3a20ace07070b81fce1ba4c852e1186a0563688e11a8594f6011208b9bfb42e6b64db4542d2f4d46cd1a6ec29939ecd42",
      "networkId": 0,
      "chainId": 0
    }
  ]
}