{
  "hash": "0x85b606459271f70f7bc705e14482561d6d97a0c65dde7115a1d8b9d50cfe3af3",
  "parentHash": "0x5c9bc03922dc871a1e295f853d0ac204b75ec1b185291a1462707d922ba6810c",
  "number": 85353,
  "timestamp": 1439562324,
  "nonce": "0xa3edb4be5d1ce182",
  "difficulty": 2732995718482,
  "gasLimit": {
    "_hex": "0x2fefd8"
  },
  "gasUsed": {
    "_hex": "0x1ec30"
  },
  "miner": "0xe6A7a1d47ff21B6321162AEA7C6CB457D5476Bca",
  "extraData": "0x476574682f76312e302e312d38326566323666362f6c696e75782f676f312e34",
  "transactions": [
    {
      "hash": "0x5794a3474a7c85bf6ef8774599fd3ed5b89741170118d3e81983a0966cd26651",
      "blockHash": "0x85b606459271f70f7bc705e14482561d6d97a0c65dde7115a1d8b9d50cfe3af3",
      "blockNumber": 85353,
      "transactionIndex": 0,
      "confirmations": null,
      "from": "0xF2d2AfF1320476cb8C6b607199D23175cc595693",
      "gasPrice": {
        "_hex": "0xdaa334781"
      },
      "gasLimit": {
        "_hex": "0x15f90"
      },
      "to": "0xF5EeDc192aB70b08D8354384aD94efD095849E00",
      "value": {
        "_hex": "0x4e1003b28d9280000"
      },
      "nonce": 42,
      "data": "0x",
      "r": "0xc93d25f6d3ee716bf000f85017c83f559bd0de5f812b41d6d625a1da16e836cb",
      "s": "0x38a921e7db3c0167bbbe333b073416f57ce76b12ef3b90809879d410a69c42af",
      "v": 27,
      "creates": null,
      "raw": "0xf86e2a850daa33478183015f9094f5eedc192ab70b08d8354384ad94efd095849e008904e1003b28d9280000801ba0c93d25f6d3ee716bf000f85017c83f559bd0de5f812b41d6d625a1da16e836cba038a921e7db3c0167bbbe333b073416f57ce76b12ef3b90809879d410a69c42af",
      "networkId": 0,
      "chainId": 0
    },
    {
      "hash": "0x232c7bafa2d8ca3e834d0b64f72561294af76ff8a2c7e29aa07bbd3109509b07",
      "blockHash": "0x85b606459271f70f7bc705e14482561d6d97a0c65dde7115a1d8b9d50cfe3af3",
      "blockNumber": 85353,
      "transactionIndex": 1,
      "confirmations": null,
      "from": "0x796fB5FF91099467f7669c8FB0C68739Fd3a9e40",
      "gasPrice": {
        "_hex": "0xd7b64588d"
      },
      "gasLimit": {
        "_hex": "0x5208"
      },
      "to": "0x32Be343B94f860124dC4fEe278FDCBD38C102D88",
      "value": {
        "_hex": "0x3721b1892bf2820000"
      },
      "nonce": 6,
      "data": "0x",
      "r": "0xa2402752a4cb98181636a35fa688fdcc9fe65b4e4b7d9a67e90ab06a73c92d14",
      "s": "0x0978e2fbadfffa00f3d8137c1d631ff36ac053d8eff50917b578d3d6b24a0242",
      "v": 28,
      "creates": null,
      "raw": "0xf86d06850d7b64588d8252089432be343b94f860124dc4fee278fdcbd38c102d88893721b1892bf2820000801ca0a2402752a4cb98181636a35fa688fdcc9fe65b4e4b7d9a67e90ab06a73c92d14a00978e2fbadfffa00f3d8137c1d631ff36ac053d8eff50917b578d3d6b24a0242",
      "networkId": 0,
      "chainId": 0
    },
    {
      "hash": "0x2b6e14d36fd9eced8cff0d974ab749ae4e172d05bedd6b385a8ab96a6a94b0f2",
      "blockHash": "0x85b606459271f70f7bc705e14482561d6d97a0c65dde7115a1d8b9d50cfe3af3",
      "blockNumber": 85353,
      "transactionIndex": 2,
      "confirmations": null,
      "from": "0xa6BDc31c431B8F97848c9D60cbbe9660dc450eB7",
      "gasPrice": {
        "_hex": "0xd7b64588d"
      },
      "gasLimit": {
        "_hex": "0x5208"
      },
      "to": "0x32Be343B94f860124dC4fEe278FDCBD38C102D88",
      "value": {
        "_hex": "0x4563956474c94c00"
      },
      "nonce": 68,
      "data": "0x",
      "r": "0xcd741de35a5be4ce8b7afdccabcf18bbcf0d27d1e8ff6191692382771116ac9f",
      "s": "0x021879e3a7909ac05044b2d5436633e8c5d08c7923ff9175e80adae02b02a9f3",
      "v": 27,
      "creates": null,
      "raw": "0xf86c44850d7b64588d8252089432be343b94f860124dc4fee278fdcbd38c102d88884563956474c94c00801ba0cd741de35a5be4ce8b7afdccabcf18bbcf0d27d1e8ff6191692382771116ac9fa0021879e3a7909ac05044b2d5436633e8c5d08c7923ff9175e80adae02b02a9f3",
      "networkId": 0,
      "chainId": 0
    },
    {
      "hash": "0x78467da58e0fc97a8228bd54bfd8df7afc8945d4181b629ccdb947c1037194b9",
      "blockHash": "0x85b606459271f70f7bc705e14482561d6d97a0c65dde7115a1d8b9d50cfe3af3",
      "blockNumber": 85353,
      "transactionIndex": 3,
      "confirmations": null,
      "from": "0x96811Ad897894eC178872117C8BF2f03971A393B",
      "gasPrice": {
        "_hex": "0xd7b64588d"
      },
      "gasLimit": {
        "_hex": "0x5208"
      },
      "to": "0x32Be343B94f860124dC4fEe278FDCBD38C102D88",
      "value": {
        "_hex": "0x8ac2d11279dc0000"
      },
      "nonce": 31,
      "data": "0x",
      "r": "0xa941f7a034c67f3146896f0cd0fa65de8cc1df46c13cfc73dbfa8706ba24c4b4",
      "s": "0x45a9272bcdac36b43ca07607134b466b64286f9fd3a6c5e17a137353b2ff7336",
      "v": 28,
      "creates": null,
      "raw": "0xf86c1f850d7b64588d8252089432be343b94f860124dc4fee278fdcbd38c102d88888ac2d11279dc0000801ca0a941f7a034c67f3146896f0cd0fa65de8cc1df46c13cfc73dbfa8706ba24c4b4a045a9272bcdac36b43ca07607134b466b64286f9fd3a6c5e17a137353b2ff7336",
      "networkId": 0,
      "chainId": 0
    },
    {
      "hash": "0xe886b6b083001ac271a02330a75fa99cfff340a6120993c31ca67499ae41d92a",
      "blockHash": "0x85b606459271f70f7bc705e14482561d6d97a0c65dde7115a1d8b9d50cfe3af3",
      "blockNumber": 85353,
      "transactionIndex": 4,
      "confirmations": null,
      "from": "0x0c86db7DffC9eCbBe8da476416F54F4c47F97322",
      "gasPrice": {
        "_hex": "0xd7b64588d"
      },
      "gasLimit": {
        "_hex": "0x5208"
      },
      "to": "0x32Be343B94f860124dC4fEe278FDCBD38C102D88",
      "value": {
        "_hex": "0xbb55508743ba0000"
      },
      "nonce": 1,
      "data": "0x",
      "r": "0x1c323c64086d9a22c7d29b035e74b250321c0a6896e04609d7b76d1b2eb14a3d",
      "s": "0x669d0274643a7117882349c33becbbb18a065680b44763b2037de74d5c0b84dd",
      "v": 28,
      "creates": null,
      "raw": "0xf86c01850d7b64588d8252089432be343b94f860124dc4fee278fdcbd38c102d8888bb55508743ba0000801ca01c323c64086d9a22c7d29b035e74b250321c0a6896e04609d7b76d1b2eb14a3da0669d0274643a7117882349c33becbbb18a065680b44763b2037de74d5c0b84dd",
      "networkId": 0,
      "chainId": 0
    },
    {
      "hash": "0xaec1ea5a20ff1b6a1593dfe71473c1917491d4e123a9510f502e8cbd2ec7e331",
      "blockHash": "0x85b606459271f70f7bc705e14482561d6d97a0c65dde7115a1d8b9d50cfe3af3",
      "blockNumber": 85353,
      "transactionIndex": 5,
      "confirmations": null,
      "from": "0x12cbF607E6b04f34f251Ac08cF55444786Add488",
      "gasPrice": {
        "_hex": "0xd7b64588d"
      },
      "gasLimit": {
        "_hex": "0x5208"
      },
      "to": "0x32Be343B94f860124dC4fEe278FDCBD38C102D88",
      "value": {
        "_hex": "0x429c5fad1d8f08000"
      },
      "nonce": 1,
      "data": "0x",
      "r": "0x75718ba1a799074421c2149111cdffac2b0850d56775ea8108ce7bd51440b349",
      "s": "0x2bda66aa99ca88170934b3fbfb1369ee6700dccd393c693eddc44d81d2de15d0",
      "v": 27,
      "creates": null,
      "raw": "0xf86d01850d7b64588d8252089432be343b94f860124dc4fee278fdcbd38c102d88890429c5fad1d8f08000801ba075718ba1a799074421c2149111cdffac2b0850d56775ea8108ce7bd51440b349a02bda66aa99ca88170934b3fbfb1369ee6700dccd393c693eddc44d81d2de15d0",
      "networkId": 0,
      "chainId": 0
    }
  ]
}