{
  "hash": "0x03ee04e7cdc0dd9b04de666319dd722f1bdf9f65d5dfd3593b34f84076d0200e",
  "parentHash": "0xfb273eff95e1cfa96a3161ae7780af7d0ead4453282dc3c91ec6b646af2c0d65",
  "number": 86111,
  "timestamp": 1439573533,
  "nonce": "0x70cf25758897c676",
  "difficulty": 2811247385947,
  "gasLimit": {
    "_hex": "0x2fefd8"
  },
  "gasUsed": {
    "_hex": "0x5208"
  },
  "miner": "0xe6A7a1d47ff21B6321162AEA7C6CB457D5476Bca",
  "extraData": "0x476574682f76312e302e312d38326566323666362f6c696e75782f676f312e34",
  "transactions": [
    {
      "hash": "0x6699aba7c7534172eda2367758ae53c892838c61cf030833e8277eac36c67ac2",
      "blockHash": "0x03ee04e7cdc0dd9b04de666319dd722f1bdf9f65d5dfd3593b34f84076d0200e",
      "blockNumber": 86111,
      "transactionIndex": 0,
      "confirmations": null,
      "from": "0xC7C3C1e14c528F3C4976b727Bf9706c569fEacd3",
      "gasPrice": {
        "_hex": "0xd8364fc25"
      },
      "gasLimit": {
        "_hex": "0x15f90"
      },
      "to": "0xb71F25995CC5De7A465fB37688126E07654Fa662",
      "value": {
        "_hex": "0x4563918244f40000"
      },
      "nonce": 1,
      "data": "0x",
      "r": "0x58f6d229d523bfad5575e338a00e313c0c75d26799c4fb9a374fe879172df22e",
      "s": "0x71b5816ec557b0ed6598a5cbcc815763b90d1564aff148a5cb4995c75c16f86b",
      "v": 28,
      "creates": null,
      "raw": "0xf86d01850d8364fc2583015f9094b71f25995cc5de7a465fb37688126e07654fa662884563918244f40000801ca058f6d229d523bfad5575e338a00e313c0c75d26799c4fb9a374fe879172df22ea071b5816ec557b0ed6598a5cbcc815763b90d1564aff148a5cb4995c75c16f86b",
      "networkId": 0,
      "chainId": 0
    }
  ]
}