{
  "hash": "0x2f76dc384b6e678ee16f4aa962f3258ebce807e3118a61b049a18206383b12c0",
  "parentHash": "0x4627d818bd7161898f1cac7f9aa0754ed299cce06c7a54191e4f68e9555efdce",
  "number": 73102,
  "timestamp": 1439363094,
  "nonce": "0x084e2f8bbaa5f7cc",
  "difficulty": 2224070834424,
  "gasLimit": {
    "_hex": "0x2fefd8"
  },
  "gasUsed": {
    "_hex": "0x546c"
  },
  "miner": "0xe6A7a1d47ff21B6321162AEA7C6CB457D5476Bca",
  "extraData": "0x476574682f76312e302e312d38326566323666362f6c696e75782f676f312e34",
  "transactions": [
    {
      "hash": "0x280d58c3b75e38396f9ec4d066f0babce12745f625139ab676ae3136f2a6a9b7",
      "blockHash": "0x2f76dc384b6e678ee16f4aa962f3258ebce807e3118a61b049a18206383b12c0",
      "blockNumber": 73102,
      "transactionIndex": 0,
      "confirmations": null,
      "from": "0xeA79057Dabef5E64E7B44f7f18648e7E533718d2",
      "gasPrice": {
        "_hex": "0x110c8f7d8de"
      },
      "gasLimit": {
        "_hex": "0xc350"
      },
      "to": "0x2910543Af39abA0Cd09dBb2D50200b3E800A63D2",
      "value": {
        "_hex": "0xb84c09a3b930000"
      },
      "nonce": 4,
      "data": "0x454e334d574b353330",
      "r": "0xd1a9471927c2ee261ba34a5260390ee848303105e8977516a15a53ba1cb1b77b",
      "s": "0x2b4a90dff7981f066535c9a24325e00159055f3527e63c1f49d3967e4908218e",
      "v": 28,
      "creates": null,
      "raw": "0xf87604860110c8f7d8de82c350942910543af39aba0cd09dbb2d50200b3e800a63d2880b84c09a3b93000089454e334d574b3533301ca0d1a9471927c2ee261ba34a5260390ee848303105e8977516a15a53ba1cb1b77ba02b4a90dff7981f066535c9a24325e00159055f3527e63c1f49d3967e4908218e",
      "networkId": 0,
      "chainId": 0
    }
  ]
}