{
  "hash": "0xd27d53a99f8ce534b43123361c533851c9e10e60072ffd2f7734ed5549a4c58d",
  "parentHash": "0x12234fbbc7b361630fcb224e4647b7af2d4b48d346d0ec9f32d7795fa805a951",
  "number": 95046,
  "timestamp": 1439718122,
  "nonce": "0x115ae94e782d8bd4",
  "difficulty": 3503472372312,
  "gasLimit": {
    "_hex": "0x2fefd8"
  },
  "gasUsed": {
    "_hex": "0x520c"
  },
  "miner": "0xe6A7a1d47ff21B6321162AEA7C6CB457D5476Bca",
  "extraData": "0x476574682f76312e302e312d38326566323666362f6c696e75782f676f312e34",
  "transactions": [
    {
      "hash": "0x782e87eee1b957cee3d4d0bdc70934df4d6d2688d9095029ed6ef64ed1a631f9",
      "blockHash": "0xd27d53a99f8ce534b43123361c533851c9e10e60072ffd2f7734ed5549a4c58d",
      "blockNumber": 95046,
      "transactionIndex": 0,
      "confirmations": null,
      "from": "0x9138244e216cd650D3C465bd87Ab1F5AFB7A9a1c",
      "gasPrice": {
        "_hex": "0xdad35322e"
      },
      "gasLimit": {
        "_hex": "0x7530"
      },
      "to": "0xBDbaF6434d40D6355B1e80e40Cc4AB9C68D96116",
      "value": {
        "_hex": "0xde0b6b3a7640000"
      },
      "nonce": 0,
      "data": "0x00",
      "r": "0xa1a78fbe3af335584769fa0c29960c8021f244f7e7fc6c0a608dd78814cd0876",
      "s": "0xfe76763b8192d66d6913a75beac421bc118576a6ed3a1c4fe82c9d23f7df9b45",
      "v": 27,
      "creates": null,
      "raw": "0xf86c80850dad35322e82753094bdbaf6434d40d6355b1e80e40cc4ab9c68d96116880de0b6b3a7640000001ba0a1a78fbe3af335584769fa0c29960c8021f244f7e7fc6c0a608dd78814cd0876a0fe76763b8192d66d6913a75beac421bc118576a6ed3a1c4fe82c9d23f7df9b45",
      "networkId": 0,
      "chainId": 0
    }
  ]
}