{
  "hash": "0x9dd156b10256334f5ca2a66d82081d8c7b5802e0c5603c7e4b351c94d890e8ea",
  "parentHash": "0xee6c65b3e251e87e60125f6c411bd451ca4872c214b160d637c7bf98e48cc644",
  "number": 46843,
  "timestamp": 1438930197,
  "nonce": "0xe631bb5cd84a49f0",
  "difficulty": 1458161711482,
  "gasLimit": {
    "_hex": "0x7e58"
  },
  "gasUsed": {
    "_hex": "0x5208"
  },
  "miner": "0xe6A7a1d47ff21B6321162AEA7C6CB457D5476Bca",
  "extraData": "0x657468706f6f6c2e6f7267",
  "transactions": [
    {
      "hash": "0x609dcf9e37f979a0e8e44d1db567d659d7488d842536c4499857533c02aedaa3",
      "blockHash": "0x9dd156b10256334f5ca2a66d82081d8c7b5802e0c5603c7e4b351c94d890e8ea",
      "blockNumber": 46843,
      "transactionIndex": 0,
      "confirmations": null,
      "from": "0x0A2A9354E81F171976131FECbeE823802e9B13ea",
      "gasPrice": {
        "_hex": "0x746a528800"
      },
      "gasLimit": {
        "_hex": "0x5208"
      },
      "to": "0x4a7C6662593951F4D9FCD1009738CCCfC9D3f774",
      "value": {
        "_hex": "0xde0b6b3a7640000"
      },
      "nonce": 0,
      "data": "0x",
      "r": "0x51f752b31ca0341e34baafa1a583daf4ec96522029405b24e3eeb36c75872e92",
      "s": "0x6a4f459c630fb455bd35b404794a5a2b059e90303b0611947c302dfb62d0c81b",
      "v": 28,
      "creates": null,
      "raw": "0xf86c8085746a528800825208944a7c6662593951f4d9fcd1009738cccfc9d3f774880de0b6b3a7640000801ca051f752b31ca0341e34baafa1a583daf4ec96522029405b24e3eeb36c75872e92a06a4f459c630fb455bd35b404794a5a2b059e90303b0611947c302dfb62d0c81b",
      "networkId": 0,
      "chainId": 0
    }
  ]
}