{
  "hash": "0xf859ee499a5c1ec0d210ccd9f1fb337b5d308f0d8149aef3a747b2813f8cbf53",
  "parentHash": "0xc782b5cd68b9a88ceb18b7246ae9b0d14dabb7593453a5edf452204509415f36",
  "number": 116825,
  "timestamp": 1440098129,
  "nonce": "0x3e31d380b952336d",
  "difficulty": 4342470809661,
  "gasLimit": {
    "_hex": "0x2fefd8"
  },
  "gasUsed": {
    "_hex": "0x29040"
  },
  "miner": "0xe6A7a1d47ff21B6321162AEA7C6CB457D5476Bca",
  "extraData": "0xd783010002844765746887676f312e342e32856c696e7578",
  "transactions": [
    {
      "hash": "0x09ff60591c82d84c6784378c8a135d09e61b69dcd4f64225762c1a1bc2b921aa",
      "blockHash": "0xf859ee499a5c1ec0d210ccd9f1fb337b5d308f0d8149aef3a747b2813f8cbf53",
      "blockNumber": 116825,
      "transactionIndex": 0,
      "confirmations": null,
      "from": "0xe6A7a1d47ff21B6321162AEA7C6CB457D5476Bca",
      "gasPrice": {
        "_hex": "0xba43b7400"
      },
      "gasLimit": {
        "_hex": "0x55f0"
      },
      "to": "0xA971748c4C493bC96C7d490E1789481e1E96bB10",
      "value": {
        "_hex": "0x7fa1689e3bf9fd40"
      },
      "nonce": 5795,
      "data": "0x",
      "r": "0xb7dfe6a762f65e6633351e83836ca3e117743a194788ee789250b69eb6e2b6ba",
      "s": "0x55c0040cfd15cfca56be18b21863a1de5e4279e45102866eebcf6ac44ba80ad1",
      "v": 28,
      "creates": null,
      "raw": "0xf86e8216a3850ba43b74008255f094a971748c4c493bc96c7d490e1789481e1e96bb10887fa1689e3bf9fd40801ca0b7dfe6a762f65e6633351e83836ca3e117743a194788ee789250b69eb6e2b6baa055c0040cfd15cfca56be18b21863a1de5e4279e45102866eebcf6ac44ba80ad1",
      "networkId": 0,
      "chainId": 0
    },
    {
      "hash": "0xc767ab8dd82878d3fb719d5029a777ec2e97e1baa7b44c9e5984b97ae86cf171",
      "blockHash": "0xf859ee499a5c1ec0d210ccd9f1fb337b5d308f0d8149aef3a747b2813f8cbf53",
      "blockNumber": 116825,
      "transactionIndex": 1,
      "confirmations": null,
      "from": "0xe6A7a1d47ff21B6321162AEA7C6CB457D5476Bca",
      "gasPrice": {
        "_hex": "0xba43b7400"
      },
      "gasLimit": {
        "_hex": "0x55f0"
      },
      "to": "0x164d6C84C4D54AA3E22A5b2B72cFb968eDe862C5",
      "value": {
        "_hex": "0x7fa6deb3d51d7ac0"
      },
      "nonce": 5796,
      "data": "0x",
      "r": "0xe7579e4e4fdf712fd2ba3cc75873878b10d1addd085d0aa07f37f20c96eb2061",
      "s": "0x44d4d36f3cae115914c3f6d4f00e68a3daefea8537edaa1d16d8e7e7f7aaf5bb",
      "v": 27,
      "creates": null,
      "raw": "0xf86e8216a4850ba43b74008255f094164d6c84c4d54aa3e22a5b2b72cfb968ede862c5887fa6deb3d51d7ac0801ba0e7579e4e4fdf712fd2ba3cc75873878b10d1addd085d0aa07f37f20c96eb2061a044d4d36f3cae115914c3f6d4f00e68a3daefea8537edaa1d16d8e7e7f7aaf5bb",
      "networkId": 0,
      "chainId": 0
    },
    {
      "hash": "0x54ef55fc78c8a3b3fdd657236ee77673097e4e646a791534299bf01055802cc2",
      "blockHash": "0xf859ee499a5c1ec0d210ccd9f1fb337b5d308f0d8149aef3a747b2813f8cbf53",
      "blockNumber": 116825,
      "transactionIndex": 2,
      "confirmations": null,
      "from": "0xe6A7a1d47ff21B6321162AEA7C6CB457D5476Bca",
      "gasPrice": {
        "_hex": "0xba43b7400"
      },
      "gasLimit": {
        "_hex": "0x55f0"
      },
      "to": "0xaA35779Ef4dfBEd0B3D6F46F5f11cb86261B17A5",
      "value": {
        "_hex": "0x8164deeb16e13888"
      },
      "nonce": 5797,
      "data": "0x",
      "r": "0x7fa7371fd6bc4a038a0b3b561bc7a192d3643c90a1765cd8c9df129e21f98396",
      "s": "0x009de4c95e6c744e6176251f518ef61f440b38475c92de2f020e86aac6e00358",
      "v": 27,
      "creates": null,
      "raw": "0xf86d8216a5850ba43b74008255f094aa35779ef4dfbed0b3d6f46f5f11cb86261b17a5888164deeb16e13888801ba07fa7371fd6bc4a038a0b3b561bc7a192d3643c90a1765cd8c9df129e21f983969f9de4c95e6c744e6176251f518ef61f440b38475c92de2f020e86aac6e00358",
      "networkId": 0,
      "chainId": 0
    },
    {
      "hash": "0x55d73bd3339f6087897bbf634a28b6d57c630614c269bff25ed6e95111458e78",
      "blockHash": "0xf859ee499a5c1ec0d210ccd9f1fb337b5d308f0d8149aef3a747b2813f8cbf53",
      "blockNumber": 116825,
      "transactionIndex": 3,
      "confirmations": null,
      "from": "0xe6A7a1d47ff21B6321162AEA7C6CB457D5476Bca",
      "gasPrice": {
        "_hex": "0xba43b7400"
      },
      "gasLimit": {
        "_hex": "0x55f0"
      },
      "to": "0x65B2003cE03eDcF961C6b724862D6a7f942B8971",
      "value": {
        "_hex": "0x81c43e2aeeda70d0"
      },
      "nonce": 5798,
      "data": "0x",
      "r": "0x9afb53d1669527f7418eb5d9637bf18d7b6536adb72de88ecd855668d7556102",
      "s": "0x6356f9c0f80cbce50c3c788af0eb814ab966e22c4f0d020a62e533ffbfcf7c48",
      "v": 28,
      "creates": null,
      "raw": "0xf86e8216a6850ba43b74008255f09465b2003ce03edcf961c6b724862d6a7f942b89718881c43e2aeeda70d0801ca09afb53d1669527f7418eb5d9637bf18d7b6536adb72de88ecd855668d7556102a06356f9c0f80cbce50c3c788af0eb814ab966e22c4f0d020a62e533ffbfcf7c48",
      "networkId": 0,
      "chainId": 0
    },
    {
      "hash": "0xdb46eb531d7801564a0504f34c511b78d6ebe2fcd18266e56796d44d496fc416",
      "blockHash": "0xf859ee499a5c1ec0d210ccd9f1fb337b5d308f0d8149aef3a747b2813f8cbf53",
      "blockNumber": 116825,
      "transactionIndex": 4,
      "confirmations": null,
      "from": "0xe6A7a1d47ff21B6321162AEA7C6CB457D5476Bca",
      "gasPrice": {
        "_hex": "0xba43b7400"
      },
      "gasLimit": {
        "_hex": "0x55f0"
      },
      "to": "0x556ca325C21e450b2aFf86D9c8eF0Fa371971c97",
      "value": {
        "_hex": "0x855ba10ab5bc7180"
      },
      "nonce": 5799,
      "data": "0x",
      "r": "0x45278272cd2d1d0b21fca03d58011c294b2a2075f2252440fea83d434a891481",
      "s": "0x62f41b683ae59ed9003d918d9ea5829d8d4da2357a91b0ec86a8fb1af45a390a",
      "v": 28,
      "creates": null,
      "raw": "0xf86e8216a7850ba43b74008255f094556ca325c21e450b2aff86d9c8ef0fa371971c9788855ba10ab5bc7180801ca045278272cd2d1d0b21fca03d58011c294b2a2075f2252440fea83d434a891481a062f41b683ae59ed9003d918d9ea5829d8d4da2357a91b0ec86a8fb1af45a390a",
      "networkId": 0,
      "chainId": 0
    },
    {
      "hash": "0x18f300be00c4aa4053ff289e30e0d7a0fe5fba5b4c1422d6ace8900420630c62",
      "blockHash": "0xf859ee499a5c1ec0d210ccd9f1fb337b5d308f0d8149aef3a747b2813f8cbf53",
      "blockNumber": 116825,
      "transactionIndex": 5,
      "confirmations": null,
      "from": "0xe6A7a1d47ff21B6321162AEA7C6CB457D5476Bca",
      "gasPrice": {
        "_hex": "0xba43b7400"
      },
      "gasLimit": {
        "_hex": "0x55f0"
      },
      "to": "0xa114c802ef29776f05f9c6925cE915232e8ae102",
      "value": {
        "_hex": "0x85f0995f929e1f40"
      },
      "nonce": 5800,
      "data": "0x",
      "r": "0x06dd7e7bb13c2af5970cf5d84a86742b501398cce7da9deccf76bf7d40fddb9d",
      "s": "0x7ccfa38472908b751baad1c97c5273fce1a67e75b7663fb2fcbdc77a4d31fad8",
      "v": 28,
      "creates": null,
      "raw": "0xf86e8216a8850ba43b74008255f094a114c802ef29776f05f9c6925ce915232e8ae1028885f0995f929e1f40801ca006dd7e7bb13c2af5970cf5d84a86742b501398cce7da9deccf76bf7d40fddb9da07ccfa38472908b751baad1c97c5273fce1a67e75b7663fb2fcbdc77a4d31fad8",
      "networkId": 0,
      "chainId": 0
    },
    {
      "hash": "0x3b0372d15e1531b5d4e50d566f0c8c59ac51bc7656224665550e5c95b7d86c22",
      "blockHash": "0xf859ee499a5c1ec0d210ccd9f1fb337b5d308f0d8149aef3a747b2813f8cbf53",
      "blockNumber": 116825,
      "transactionIndex": 6,
      "confirmations": null,
      "from": "0xe6A7a1d47ff21B6321162AEA7C6CB457D5476Bca",
      "gasPrice": {
        "_hex": "0xba43b7400"
      },
      "gasLimit": {
        "_hex": "0x55f0"
      },
      "to": "0xcA422f88253D0492F13F304eBCF34892B3c07AEc",
      "value": {
        "_hex": "0x8900c731e618ef70"
      },
      "nonce": 5801,
      "data": "0x",
      "r": "0x2b0cf031441dcd8349e3ece0122c63c5752c2c591c694c09a71f4f650b3a7e37",
      "s": "0x10ff2cc96f0111319abaa6c308ae0cfeec2f5dd2cbb35672d0d756ea6ae8816b",
      "v": 27,
      "creates": null,
      "raw": "0xf86e8216a9850ba43b74008255f094ca422f88253d0492f13f304ebcf34892b3c07aec888900c731e618ef70801ba02b0cf031441dcd8349e3ece0122c63c5752c2c591c694c09a71f4f650b3a7e37a010ff2cc96f0111319abaa6c308ae0cfeec2f5dd2cbb35672d0d756ea6ae8816b",
      "networkId": 0,
      "chainId": 0
    },
    {
      "hash": "0xdbb5bf8a9099c6b4fb2ffc7842abbf1667e8dcadfbdf6bb7b95239545b59eb74",
      "blockHash": "0xf859ee499a5c1ec0d210ccd9f1fb337b5d308f0d8149aef3a747b2813f8cbf53",
      "blockNumber": 116825,
      "transactionIndex": 7,
      "confirmations": null,
      "from": "0xe6A7a1d47ff21B6321162AEA7C6CB457D5476Bca",
      "gasPrice": {
        "_hex": "0xba43b7400"
      },
      "gasLimit": {
        "_hex": "0x55f0"
      },
      "to": "0x226E8B888E9F360E1Aea28229C40E2adC5D698b5",
      "value": {
        "_hex": "0x8a803dcca29460f8"
      },
      "nonce": 5802,
      "data": "0x",
      "r": "0xaf6a7f068551bc73611ab03ae0a3b523416acd6f4127bb3515ac0d8bc7eeec50",
      "s": "0x54c8e33624f23a0b30ef3e2d40f9312ce286368dfb533a4accc266af17c04689",
      "v": 27,
      "creates": null,
      "raw": "0xf86e8216aa850ba43b74008255f094226e8b888e9f360e1aea28229c40e2adc5d698b5888a803dcca29460f8801ba0af6a7f068551bc73611ab03ae0a3b523416acd6f4127bb3515ac0d8bc7eeec50a054c8e33624f23a0b30ef3e2d40f9312ce286368dfb533a4accc266af17c04689",
      "networkId": 0,
      "chainId": 0
    }
  ]
}