{
  "hash": "0xc36826cde8417a4e56f0c51cd0c673be0783667cd9922f70667fb735d82f16bd",
  "parentHash": "0x184f38b39d0eaa8d9c982d4b937a2fe58b498467b48d2fb1b2be70df87fc2073",
  "number": 94522,
  "timestamp": 1439709809,
  "nonce": "0xf38ec6b1fd261f3e",
  "difficulty": 3486625056624,
  "gasLimit": {
    "_hex": "0x2fefd8"
  },
  "gasUsed": {
    "_hex": "0x5208"
  },
  "miner": "0x3D5292e9d2a2D31014717ff936A0F9375A5Cc8b7",
  "extraData": "0x476574682f76312e302e312f77696e646f77732f676f312e342e32",
  "transactions": [
    {
      "hash": "0x65e399985dbacf3e070d7670206a5a2902851578c04a580e5b8876bbd90d327e",
      "blockHash": "0xc36826cde8417a4e56f0c51cd0c673be0783667cd9922f70667fb735d82f16bd",
      "blockNumber": 94522,
      "transactionIndex": 0,
      "confirmations": null,
      "from": "0x3D5292e9d2a2D31014717ff936A0F9375A5Cc8b7",
      "gasPrice": {
        "_hex": "0xdd61019a3"
      },
      "gasLimit": {
        "_hex": "0x15f90"
      },
      "to": "0x9f78552704fe7e52cC7C3853534aA2C3cf580D54",
      "value": {
        "_hex": "0x1158e460913d00000"
      },
      "nonce": 1,
      "data": "0x",
      "r": "0xf8e1ef115bedce0e24b27ba3e610428dabc7c757acb68381c24f1a8ba9089052",
      "s": "0x19ea3b08e0a834a559b5b980df9f9dd2a56b81814517f8660de4f7b5d149010e",
      "v": 27,
      "creates": null,
      "raw": "0xf86e01850dd61019a383015f90949f78552704fe7e52cc7c3853534aa2c3cf580d548901158e460913d00000801ba0f8e1ef115bedce0e24b27ba3e610428dabc7c757acb68381c24f1a8ba9089052a019ea3b08e0a834a559b5b980df9f9dd2a56b81814517f8660de4f7b5d149010e",
      "networkId": 0,
      "chainId": 0
    }
  ]
}