{
  "hash": "0x0a05f7bf3e89f0203094d70d7a2a297c518c4448d0dfbbedad195f6071037e45",
  "parentHash": "0x1752497310e1921ba6259e815d7c3f5fc5770e700831d48b48ea166cb51a9930",
  "number": 108617,
  "timestamp": 1439943422,
  "nonce": "0x283b358bf5830a44",
  "difficulty": 4338240459862,
  "gasLimit": {
    "_hex": "0x2fefd8"
  },
  "gasUsed": {
    "_hex": "0x5208"
  },
  "miner": "0xbb7B8287f3F0a933474a79eAe42CBCa977791171",
  "extraData": "0xd783010001844765746887676f312e342e32856c696e7578",
  "transactions": [
    {
      "hash": "0x061a49fed2a11dec7e05fa7fd508b679434db0692e73305dfd51c0d7c6546ccc",
      "blockHash": "0x0a05f7bf3e89f0203094d70d7a2a297c518c4448d0dfbbedad195f6071037e45",
      "blockNumber": 108617,
      "transactionIndex": 0,
      "confirmations": null,
      "from": "0x315C319E775Ab339Dc60aDFe495F671b07dF36F6",
      "gasPrice": {
        "_hex": "0xd17d71f15"
      },
      "gasLimit": {
        "_hex": "0x5208"
      },
      "to": "0x32Be343B94f860124dC4fEe278FDCBD38C102D88",
      "value": {
        "_hex": "0x14542b5e09686a00000"
      },
      "nonce": 0,
      "data": "0x",
      "r": "0x291ae9600b3e69af8e560bad18339ba3845bad78ee4089137170c384403f0560",
      "s": "0x5e9c3269705264d17dd05f06d190ecbe8fd92030fc556f82de1d23f0b5c6e490",
      "v": 28,
      "creates": null,
      "raw": "0xf86e80850d17d71f158252089432be343b94f860124dc4fee278fdcbd38c102d888a014542b5e09686a00000801ca0291ae9600b3e69af8e560bad18339ba3845bad78ee4089137170c384403f0560a05e9c3269705264d17dd05f06d190ecbe8fd92030fc556f82de1d23f0b5c6e490",
      "networkId": 0,
      "chainId": 0
    }
  ]
}