{
  "hash": "0x76b7670db7a3267fcd02a5cabf8fa99b8a211b955508179ecc35f07afb229bba",
  "parentHash": "0x3006ed886cf2d70dac64834305789312cbc60911f370df0c7bb4514cebf3f61b",
  "number": 120888,
  "timestamp": 1440167655,
  "nonce": "0xec05977421f01e9c",
  "difficulty": 4445467033495,
  "gasLimit": {
    "_hex": "0x2fefd8"
  },
  "gasUsed": {
    "_hex": "0xa410"
  },
  "miner": "0xe6A7a1d47ff21B6321162AEA7C6CB457D5476Bca",
  "extraData": "0xd783010002844765746887676f312e342e32856c696e7578",
  "transactions": [
    {
      "hash": "0x53005b9a34f9b92b8571567a0169f7f90ba6452e55687585743dbcdf979b63f5",
      "blockHash": "0x76b7670db7a3267fcd02a5cabf8fa99b8a211b955508179ecc35f07afb229bba",
      "blockNumber": 120888,
      "transactionIndex": 0,
      "confirmations": null,
      "from": "0xf00955cEDD33a99B4a993aABeb4239e268aaD294",
      "gasPrice": {
        "_hex": "0xba43b7400"
      },
      "gasLimit": {
        "_hex": "0x5208"
      },
      "to": "0x32Be343B94f860124dC4fEe278FDCBD38C102D88",
      "value": {
        "_hex": "0x41360623535e4400"
      },
      "nonce": 5,
      "data": "0x",
      "r": "0x4ac2355df4db2ebd42844e27dd91cf28443c6fa568be9de752d5fcf0e89bb924",
      "s": "0x2db7f50cda013c7ee8a1bc5064547a2eb55c43c5a590ecbe52dbd359af3666ef",
      "v": 28,
      "creates": null,
      "raw": "0xf86c05850ba43b74008252089432be343b94f860124dc4fee278fdcbd38c102d888841360623535e4400801ca04ac2355df4db2ebd42844e27dd91cf28443c6fa568be9de752d5fcf0e89bb924a02db7f50cda013c7ee8a1bc5064547a2eb55c43c5a590ecbe52dbd359af3666ef",
      "networkId": 0,
      "chainId": 0
    },
    {
      "hash": "0x8f5e7cfccfb2ab4561d698b8134aadcd25a0dd0bf0a94a23a201e2be88ed04a7",
      "blockHash": "0x76b7670db7a3267fcd02a5cabf8fa99b8a211b955508179ecc35f07afb229bba",
      "blockNumber": 120888,
      "transactionIndex": 1,
      "confirmations": null,
      "from": "0x8F586E3212291c58DCc78980a9c3432a3aFd3b6E",
      "gasPrice": {
        "_hex": "0xba43b7400"
      },
      "gasLimit": {
        "_hex": "0x5208"
      },
      "to": "0x32Be343B94f860124dC4fEe278FDCBD38C102D88",
      "value": {
        "_hex": "0x4f5bbd9eb704bc000"
      },
      "nonce": 13,
      "data": "0x",
      "r": "0x082578fc042a81a981c961d9a74cbdf97a9db0497454d63b0d222c28c4ba27b1",
      "s": "0x7e6222174d6780a8b08e7d74a538f1339b108937120c40315196974271bfa47f",
      "v": 28,
      "creates": null,
      "raw": "0xf86d0d850ba43b74008252089432be343b94f860124dc4fee278fdcbd38c102d888904f5bbd9eb704bc000801ca0082578fc042a81a981c961d9a74cbdf97a9db0497454d63b0d222c28c4ba27b1a07e6222174d6780a8b08e7d74a538f1339b108937120c40315196974271bfa47f",
      "networkId": 0,
      "chainId": 0
    }
  ]
}