{
  "hash": "0x7724b5ad7c8bec76a486d24ba7222fc030aa568af08cc772bf314d1f449aa926",
  "parentHash": "0x8f49ee9652c3e8daeae8eea6b7968f76943268fb763f6e105dac9e2422e5cff6",
  "number": 119855,
  "timestamp": 1440149846,
  "nonce": "0x35f2d5df8b2bc9a4",
  "difficulty": 4409261848479,
  "gasLimit": {
    "_hex": "0x2fefd8"
  },
  "gasUsed": {
    "_hex": "0xa410"
  },
  "miner": "0xe6A7a1d47ff21B6321162AEA7C6CB457D5476Bca",
  "extraData": "0xd783010002844765746887676f312e342e32856c696e7578",
  "transactions": [
    {
      "hash": "0x3ed0dea5b847d04872965b7134ed7d7a2a2523ee2945f276b916214b401812d3",
      "blockHash": "0x7724b5ad7c8bec76a486d24ba7222fc030aa568af08cc772bf314d1f449aa926",
      "blockNumber": 119855,
      "transactionIndex": 0,
      "confirmations": null,
      "from": "0xb1abce2918E21ddb93AA452731a12672A3d9F75a",
      "gasPrice": {
        "_hex": "0xba43b7400"
      },
      "gasLimit": {
        "_hex": "0x5208"
      },
      "to": "0x32Be343B94f860124dC4fEe278FDCBD38C102D88",
      "value": {
        "_hex": "0x455fd68a17f06000"
      },
      "nonce": 202,
      "data": "0x",
      "r": "0xa2caea1a9073598cdb9acafd8773f6ea850cac555ef9efa9a6fa2b1a68ae0e98",
      "s": "0x34b7613e3344ade0547387bb1a480653413b9d09b89f59cb623997c7fba4d448",
      "v": 27,
      "creates": null,
      "raw": "0xf86d81ca850ba43b74008252089432be343b94f860124dc4fee278fdcbd38c102d8888455fd68a17f06000801ba0a2caea1a9073598cdb9acafd8773f6ea850cac555ef9efa9a6fa2b1a68ae0e98a034b7613e3344ade0547387bb1a480653413b9d09b89f59cb623997c7fba4d448",
      "networkId": 0,
      "chainId": 0
    },
    {
      "hash": "0x9feabaf70c8b74546f5d39320ca3d1cb3e4b308c0f1f7c8b9aab7e527cb24d51",
      "blockHash": "0x7724b5ad7c8bec76a486d24ba7222fc030aa568af08cc772bf314d1f449aa926",
      "blockNumber": 119855,
      "transactionIndex": 1,
      "confirmations": null,
      "from": "0x608f4b86321a68453f9adf6F06F7Fc3E621739ad",
      "gasPrice": {
        "_hex": "0xba43b7400"
      },
      "gasLimit": {
        "_hex": "0x5208"
      },
      "to": "0x32Be343B94f860124dC4fEe278FDCBD38C102D88",
      "value": {
        "_hex": "0x796a83abcba76000"
      },
      "nonce": 47,
      "data": "0x",
      "r": "0xf6b7a15c4cd026bc0e1b9275a4960312060242828bcc54d71b8de61ed1a2f754",
      "s": "0x32da7303b457e6065c81a053b7a36c6cb770dbe63bfa5a24f2ff2a805ec2bcb6",
      "v": 28,
      "creates": null,
      "raw": "0xf86c2f850ba43b74008252089432be343b94f860124dc4fee278fdcbd38c102d8888796a83abcba76000801ca0f6b7a15c4cd026bc0e1b9275a4960312060242828bcc54d71b8de61ed1a2f754a032da7303b457e6065c81a053b7a36c6cb770dbe63bfa5a24f2ff2a805ec2bcb6",
      "networkId": 0,
      "chainId": 0
    }
  ]
}