{
  "hash": "0xb7d1417b8363fd6e1973aa59be5cc2fe651d02f2b279f1de23577ed9b298b36b",
  "parentHash": "0xb51a399f7b49fc921e73ff92d04c11643dd7f6201455ca6fbddb772ae2a84717",
  "number": 84683,
  "timestamp": 1439553113,
  "nonce": "0x2157b036a7967d62",
  "difficulty": 2608051020294,
  "gasLimit": {
    "_hex": "0x2fefd8"
  },
  "gasUsed": {
    "_hex": "0x546c"
  },
  "miner": "0xe6A7a1d47ff21B6321162AEA7C6CB457D5476Bca",
  "extraData": "0x476574682f76312e302e312d38326566323666362f6c696e75782f676f312e34",
  "transactions": [
    {
      "hash": "0x1a1eb9aa804f7aac3ade8b2441785a30721420b374da808766a7129e9de4ad87",
      "blockHash": "0xb7d1417b8363fd6e1973aa59be5cc2fe651d02f2b279f1de23577ed9b298b36b",
      "blockNumber": 84683,
      "transactionIndex": 0,
      "confirmations": null,
      "from": "0x5338Ef70eaC9DD9af5a0503B5EfAd1039e67E725",
      "gasPrice": {
        "_hex": "0x110c8f7d8de"
      },
      "gasLimit": {
        "_hex": "0xc350"
      },
      "to": "0x2910543Af39abA0Cd09dBb2D50200b3E800A63D2",
      "value": {
        "_hex": "0x3635c9adc5dea00000"
      },
      "nonce": 2,
      "data": "0x454e4b584639485147",
      "r": "0x865aa2cc5141497917dc5474e35b1c45cf4fb3677b4eb65122fdd2e1b295a07d",
      "s": "0x75152d63d390fa2ef32be1cdae2e8cd2bb6b33e2e5ed7a23e28a96e5e1fdf42a",
      "v": 28,
      "creates": null,
      "raw": "0xf87702860110c8f7d8de82c350942910543af39aba0cd09dbb2d50200b3e800a63d2893635c9adc5dea0000089454e4b5846394851471ca0865aa2cc5141497917dc5474e35b1c45cf4fb3677b4eb65122fdd2e1b295a07da075152d63d390fa2ef32be1cdae2e8cd2bb6b33e2e5ed7a23e28a96e5e1fdf42a",
      "networkId": 0,
      "chainId": 0
    }
  ]
}