{
  "hash": "0x17ad8dbc2ec86aa92c65d98b13e61d0d366c87c7bb100fa8846b7da9d23f36b7",
  "parentHash": "0x26c236b1d74e08b5b986ea038b41d7237d06481ba8c2dcf5eb2a6580fbb0a251",
  "number": 110918,
  "timestamp": 1439981652,
  "nonce": "0x72426792957d3d96",
  "difficulty": 4411807133707,
  "gasLimit": {
    "_hex": "0x2fefd8"
  },
  "gasUsed": {
    "_hex": "0x5208"
  },
  "miner": "0xF11940EA05aA9CC3F13aCF5C5cA6EDCF312E3Aec",
  "extraData": "0x476574682f76312e302e312f77696e646f77732f676f312e342e32",
  "transactions": [
    {
      "hash": "0x3077f8cc118a8d830bc390dc32b2600a272d020a9b91321a6b50e7bbc34e42bf",
      "blockHash": "0x17ad8dbc2ec86aa92c65d98b13e61d0d366c87c7bb100fa8846b7da9d23f36b7",
      "blockNumber": 110918,
      "transactionIndex": 0,
      "confirmations": null,
      "from": "0x31995C46B15C84523cDEE26f49A681b8237e43F5",
      "gasPrice": {
        "_hex": "0xd60340b78"
      },
      "gasLimit": {
        "_hex": "0x7530"
      },
      "to": "0xDb8207d158c5396E26545A979C7A788852f81Eb6",
      "value": {
        "_hex": "0x1236efcbcbb340000"
      },
      "nonce": 9,
      "data": "0x",
      "r": "0x86cf738a29850a793458d6f029eb1acc845117c49bfcac798d4dbec5803326ab",
      "s": "0x766c5fd7323c28ee703023014463ed13e5aa35cd938fede362550769a1e78bd9",
      "v": 28,
      "creates": null,
      "raw": "0xf86d09850d60340b7882753094db8207d158c5396e26545a979c7a788852f81eb68901236efcbcbb340000801ca086cf738a29850a793458d6f029eb1acc845117c49bfcac798d4dbec5803326aba0766c5fd7323c28ee703023014463ed13e5aa35cd938fede362550769a1e78bd9",
      "networkId": 0,
      "chainId": 0
    }
  ]
}