{
  "hash": "0x994b863249375bb9e63d52772550db890e4a4a967a7cd4c691edfd5b28597103",
  "parentHash": "0x8c9b5d4489650dbf64aa5409bae3c3b39b7778f22145cf269ce8b2e25550fa41",
  "number": 110245,
  "timestamp": 1439970452,
  "nonce": "0x118dc5aa1c4e576e",
  "difficulty": 4375688296553,
  "gasLimit": {
    "_hex": "0x2fefd8"
  },
  "gasUsed": {
    "_hex": "0x5208"
  },
  "miner": "0xf927a40C8B7F6E07c5af7FA2155B4864a4112B13",
  "extraData": "0x",
  "transactions": [
    {
      "hash": "0x148f6cdea202c1d5690d10603a7d74d5ee48900afa6c71a9019987bac30fd677",
      "blockHash": "0x994b863249375bb9e63d52772550db890e4a4a967a7cd4c691edfd5b28597103",
      "blockNumber": 110245,
      "transactionIndex": 0,
      "confirmations": null,
      "from": "0xC5421FF9a6C1dfE6fE5BE19FA1322E70b77c8cb1",
      "gasPrice": {
        "_hex": "0xcd5a1bf56"
      },
      "gasLimit": {
        "_hex": "0x5208"
      },
      "to": "0x32Be343B94f860124dC4fEe278FDCBD38C102D88",
      "value": {
        "_hex": "0x15ce8e96c0840d000"
      },
      "nonce": 4,
      "data": "0x",
      "r": "0xf899c8eebc0a574e7f314d066d0d265d434d660100efe5b04d957835108c7106",
      "s": "0x13e8dd18087bb826fe7555b0a2701430fdcb0feddc0ddc2935b34cf2e0ca5ec6",
      "v": 27,
      "creates": null,
      "raw": "0xf86d04850cd5a1bf568252089432be343b94f860124dc4fee278fdcbd38c102d8889015ce8e96c0840d000801ba0f899c8eebc0a574e7f314d066d0d265d434d660100efe5b04d957835108c7106a013e8dd18087bb826fe7555b0a2701430fdcb0feddc0ddc2935b34cf2e0ca5ec6",
      "networkId": 0,
      "chainId": 0
    }
  ]
}