{
  "hash": "0x5d6f83cb5e1f2c365e62b28ef190547ccd55d8a65341dafdf2d0e283ba54ad69",
  "parentHash": "0xfc9750aa6f2f634378d61b21943c3e9d6810e277b7d2a1e1ee521c12294e4766",
  "number": 50324,
  "timestamp": 1438987309,
  "nonce": "0x2f0beef91d3101a9",
  "difficulty": 1510447715383,
  "gasLimit": {
    "_hex": "0x5c31a"
  },
  "gasUsed": {
    "_hex": "0x31818"
  },
  "miner": "0x3f113041D56Dda809a245Fe338832c2D373e7c80",
  "extraData": "0x476574682f76312e302e312f77696e646f77732f676f312e342e32",
  "transactions": [
    {
      "hash": "0x22591c7aadb705df30a13e97f73496b529f208573a231c7eb389766d29b421d1",
      "blockHash": "0x5d6f83cb5e1f2c365e62b28ef190547ccd55d8a65341dafdf2d0e283ba54ad69",
      "blockNumber": 50324,
      "transactionIndex": 0,
      "confirmations": null,
      "from": "0x881b0A4e9c55d08e31d8d3C022144d75A454211c",
      "gasPrice": {
        "_hex": "0xd6e019638"
      },
      "gasLimit": {
        "_hex": "0x5a550"
      },
      "to": "0x109C4f2CCc82C4d77Bde15F306707320294Aea3F",
      "value": {
        "_hex": "0xde0b6b3a7640000"
      },
      "nonce": 4,
      "data": "0x",
      "r": "0xb2a9b6c922659a427b27229d32a6fd770847bafc1dad4a746456a1fe50ddd7a5",
      "s": "0x238835cf3b127da6220aa09452d8a91fd1cb50b78fe17cceaf007e7aafe4c038",
      "v": 27,
      "creates": null,
      "raw": "0xf86d04850d6e0196388305a55094109c4f2ccc82c4d77bde15f306707320294aea3f880de0b6b3a7640000801ba0b2a9b6c922659a427b27229d32a6fd770847bafc1dad4a746456a1fe50ddd7a5a0238835cf3b127da6220aa09452d8a91fd1cb50b78fe17cceaf007e7aafe4c038",
      "networkId": 0,
      "chainId": 0
    }
  ]
}