{
  "hash": "0x73a9ddbe2dd6195d96d66d6c0af5f1c20b70574f5f3761d533dfed8bd5c97bde",
  "parentHash": "0x91fc14d00078595a97cb9206602e1632a33f8476ce772f73705564cbb2fe900a",
  "number": 65276,
  "timestamp": 1439234242,
  "nonce": "0x3457a5aae4e7bb19",
  "difficulty": 1941679649288,
  "gasLimit": {
    "_hex": "0x2fefd8"
  },
  "gasUsed": {
    "_hex": "0x2c4f8"
  },
  "miner": "0xde8B4cca204F866220e8e25817668Cd44a5fee88",
  "extraData": "0x",
  "transactions": [
    {
      "hash": "0x762e3165fdbbb9ee24e9e08820dbc9bbf7e21202a7b70c22eb0853ae89ccb46d",
      "blockHash": "0x73a9ddbe2dd6195d96d66d6c0af5f1c20b70574f5f3761d533dfed8bd5c97bde",
      "blockNumber": 65276,
      "transactionIndex": 0,
      "confirmations": null,
      "from": "0xd121f6B6DE47879cc29a8262cA01F7B4ACE9707e",
      "gasPrice": {
        "_hex": "0xd8b0b15db"
      },
      "gasLimit": {
        "_hex": "0x15f90"
      },
      "to": "0x9cF18B3eb373C383a42d06136ba331D766ed9Fbb",
      "value": {
        "_hex": "0xde0b6b3a7640000"
      },
      "nonce": 0,
      "data": "0x",
      "r": "0xa7ad138f390ca0cc3cd63c6c8b07136f84e10bd2464703847254a26f7066d40b",
      "s": "0x11d02e36756ae46b9407910f675f75675c4fc7de27b2b9d2b5b7f7596aa15dd1",
      "v": 28,
      "creates": null,
      "raw": "0xf86d80850d8b0b15db83015f90949cf18b3eb373c383a42d06136ba331d766ed9fbb880de0b6b3a7640000801ca0a7ad138f390ca0cc3cd63c6c8b07136f84e10bd2464703847254a26f7066d40ba011d02e36756ae46b9407910f675f75675c4fc7de27b2b9d2b5b7f7596aa15dd1",
      "networkId": 0,
      "chainId": 0
    },
    {
      "hash": "0xae3bffdd79102084e63cba99ffa95b65c0d01f1f54b34b5771e06b5b35934190",
      "blockHash": "0x73a9ddbe2dd6195d96d66d6c0af5f1c20b70574f5f3761d533dfed8bd5c97bde",
      "blockNumber": 65276,
      "transactionIndex": 1,
      "confirmations": null,
      "from": "0xc97b6E47df229442524F8f210926557900f81574",
      "gasPrice": {
        "_hex": "0xd0f63bad3"
      },
      "gasLimit": {
        "_hex": "0x5208"
      },
      "to": "0x32Be343B94f860124dC4fEe278FDCBD38C102D88",
      "value": {
        "_hex": "0x8c263928602db800"
      },
      "nonce": 7,
      "data": "0x",
      "r": "0x0ba7c16b59acafe1a0cb1f63ef591a8fda61b356cc1addcddfe55af2df7c773b",
      "s": "0x0c03eddd146de958b91cb5ad3df90ce4a37bd36bb4e5cd0639eabe8ef60d91f7",
      "v": 27,
      "creates": null,
      "raw": "0xf86c07850d0f63bad38252089432be343b94f860124dc4fee278fdcbd38c102d88888c263928602db800801ba00ba7c16b59acafe1a0cb1f63ef591a8fda61b356cc1addcddfe55af2df7c773ba00c03eddd146de958b91cb5ad3df90ce4a37bd36bb4e5cd0639eabe8ef60d91f7",
      "networkId": 0,
      "chainId": 0
    },
    {
      "hash": "0xdbbac5eda4a8ca7d7fd4e85c6ebefe118dc072546b7b5cd28ea8d34dd3460d6f",
      "blockHash": "0x73a9ddbe2dd6195d96d66d6c0af5f1c20b70574f5f3761d533dfed8bd5c97bde",
      "blockNumber": 65276,
      "transactionIndex": 2,
      "confirmations": null,
      "from": "0xAA977A3542936031d6D16289441e1C32052Cb913",
      "gasPrice": {
        "_hex": "0xd0f63bad3"
      },
      "gasLimit": {
        "_hex": "0x5208"
      },
      "to": "0x32Be343B94f860124dC4fEe278FDCBD38C102D88",
      "value": {
        "_hex": "0xdcac3e394335400"
      },
      "nonce": 2,
      "data": "0x",
      "r": "0xc0b90e98581ce017cc4c457845814113979a0cbb0c87ef52b9b6d190ac120184",
      "s": "0x052b2fe315b21264d3be1770dfd2a83e34d64bfeab017636389d2e1f11805148",
      "v": 28,
      "creates": null,
      "raw": "0xf86c02850d0f63bad38252089432be343b94f860124dc4fee278fdcbd38c102d88880dcac3e394335400801ca0c0b90e98581ce017cc4c457845814113979a0cbb0c87ef52b9b6d190ac120184a0052b2fe315b21264d3be1770dfd2a83e34d64bfeab017636389d2e1f11805148",
      "networkId": 0,
      "chainId": 0
    },
    {
      "hash": "0x6f1ebd30a48ef0faa342943a39add51c06bb72f607d9e275648c55d578d83191",
      "blockHash": "0x73a9ddbe2dd6195d96d66d6c0af5f1c20b70574f5f3761d533dfed8bd5c97bde",
      "blockNumber": 65276,
      "transactionIndex": 3,
      "confirmations": null,
      "from": "0x664B099B945b899AaC84DA69dd6D4eEb3D03c8a3",
      "gasPrice": {
        "_hex": "0xba43b7400"
      },
      "gasLimit": {
        "_hex": "0x5b04"
      },
      "to": "0x27e806e70622d2864e1B1f4426D72FFb0457C83a",
      "value": {
        "_hex": "0x4563918244f40000"
      },
      "nonce": 10,
      "data": "0x",
      "r": "0x5402f1628ad20d9206cdf62947216dc68bb185eb11756bc092a4898949839d6f",
      "s": "0xe8049a444f671ea92ef3bb50fdbacecbeaf4a00291dc95e30abd53daa0c83811",
      "v": 27,
      "creates": null,
      "raw": "0xf86c0a850ba43b7400825b049427e806e70622d2864e1b1f4426d72ffb0457c83a884563918244f40000801ba05402f1628ad20d9206cdf62947216dc68bb185eb11756bc092a4898949839d6fa0e8049a444f671ea92ef3bb50fdbacecbeaf4a00291dc95e30abd53daa0c83811",
      "networkId": 0,
      "chainId": 0
    },
    {
      "hash": "0x2e09f518dc700921103a9fb91fd26338b18aa65137b16c051318e1166380e3c9",
      "blockHash": "0x73a9ddbe2dd6195d96d66d6c0af5f1c20b70574f5f3761d533dfed8bd5c97bde",
      "blockNumber": 65276,
      "transactionIndex": 4,
      "confirmations": null,
      "from": "0x1408B3bADDC8E85C3BE8661181029E70A2C2daC2",
      "gasPrice": {
        "_hex": "0xba43b7400"
      },
      "gasLimit": {
        "_hex": "0x15f90"
      },
      "to": "0x793AE8C1b1a160BFc07BFB0d04F85eab1A71F4f2",
      "value": {
        "_hex": "0x0"
      },
      "nonce": 0,
      "data": "0x3ba15036",
      "r": "0xdb0b04bc020a9a1bfd865f76d7ead0229fdf544de016b7e68df2ee73e80d158f",
      "s": "0x64f09d501f7a2beac4e0c1b89c2e667a5bada5f1d3a76c09b0722e67fc42c698",
      "v": 28,
      "creates": null,
      "raw": "0xf86980850ba43b740083015f9094793ae8c1b1a160bfc07bfb0d04f85eab1a71f4f280843ba150361ca0db0b04bc020a9a1bfd865f76d7ead0229fdf544de016b7e68df2ee73e80d158fa064f09d501f7a2beac4e0c1b89c2e667a5bada5f1d3a76c09b0722e67fc42c698",
      "networkId": 0,
      "chainId": 0
    },
    {
      "hash": "0xc40c6f23388e96dd0e1c98348edd7d26deb925eb43c3ec008beb555d7af5bc0d",
      "blockHash": "0x73a9ddbe2dd6195d96d66d6c0af5f1c20b70574f5f3761d533dfed8bd5c97bde",
      "blockNumber": 65276,
      "transactionIndex": 5,
      "confirmations": null,
      "from": "0xfa955D880ff3F54fC614623B891071Bb1Ac183E2",
      "gasPrice": {
        "_hex": "0xba43b7400"
      },
      "gasLimit": {
        "_hex": "0x15f90"
      },
      "to": "0x793AE8C1b1a160BFc07BFB0d04F85eab1A71F4f2",
      "value": {
        "_hex": "0x0"
      },
      "nonce": 0,
      "data": "0x3ba15036",
      "r": "0x04f649eb75285c5767bb9786fb984e9e5156bdba9bffe2a136123c4342d11825",
      "s": "0x083cb8d6c107d08acf6a648eff3678f8c41b9069b1c515fa4bec9d7ba0728ec9",
      "v": 28,
      "creates": null,
      "raw": "0xf86980850ba43b740083015f9094793ae8c1b1a160bfc07bfb0d04f85eab1a71f4f280843ba150361ca004f649eb75285c5767bb9786fb984e9e5156bdba9bffe2a136123c4342d11825a0083cb8d6c107d08acf6a648eff3678f8c41b9069b1c515fa4bec9d7ba0728ec9",
      "networkId": 0,
      "chainId": 0
    }
  ]
}