{
  "hash": "0x3f2841649d7a6ec87c694e9d9cdb692f14322951286aae7fe0e4465ace63460d",
  "parentHash": "0xd9038bcd8a27891e34d8bc0341ead388f3534220809c106bd88ef2c78da72985",
  "number": 51523,
  "timestamp": 1439006286,
  "nonce": "0x4bf4f70f681ad9cd",
  "difficulty": 1566563351167,
  "gasLimit": {
    "_hex": "0xbae68"
  },
  "gasUsed": {
    "_hex": "0x7a120"
  },
  "miner": "0xf927a40C8B7F6E07c5af7FA2155B4864a4112B13",
  "extraData": "0x476574682f76312e302e312f6c696e75782f676f312e342e32",
  "transactions": [
    {
      "hash": "0x28e32e659fae147979cddbcf546ebef00518811e55eb41e35650a4bcef2fa737",
      "blockHash": "0x3f2841649d7a6ec87c694e9d9cdb692f14322951286aae7fe0e4465ace63460d",
      "blockNumber": 51523,
      "transactionIndex": 0,
      "confirmations": null,
      "from": "0x7C4401aE98F12eF6de39aE24cf9fc51f80EBa16B",
      "gasPrice": {
        "_hex": "0xe02c4d2bc"
      },
      "gasLimit": {
        "_hex": "0x7a120"
      },
      "to": "0x109C4f2CCc82C4d77Bde15F306707320294Aea3F",
      "value": {
        "_hex": "0xde0b6b3a7640000"
      },
      "nonce": 6,
      "data": "0x",
      "r": "0xe7bfa8df7e200101513b569dc5ff6cd6ac47c65942d4c4c54c85795081a7ce13",
      "s": "0x07a9990a92e1f235460792bfca064934896bd4400ea686c6e79872fe134d9789",
      "v": 28,
      "creates": null,
      "raw": "0xf86d06850e02c4d2bc8307a12094109c4f2ccc82c4d77bde15f306707320294aea3f880de0b6b3a7640000801ca0e7bfa8df7e200101513b569dc5ff6cd6ac47c65942d4c4c54c85795081a7ce13a007a9990a92e1f235460792bfca064934896bd4400ea686c6e79872fe134d9789",
      "networkId": 0,
      "chainId": 0
    }
  ]
}