{
  "hash": "0x06331a8531498b1f8588a2023095fa96a98a4f111be257b1ad654757a3a1e6ea",
  "parentHash": "0xd16ccd0113d759d34843742eb052164a416c92914fe23edbff10f1e379e03539",
  "number": 107822,
  "timestamp": 1439929380,
  "nonce": "0x7ef7ff6ed99a36a0",
  "difficulty": 4379090076845,
  "gasLimit": {
    "_hex": "0x2fefd8"
  },
  "gasUsed": {
    "_hex": "0xa410"
  },
  "miner": "0x88D74a59454F6cF3B51ef6b9136AFb6b9D405A88",
  "extraData": "0x",
  "transactions": [
    {
      "hash": "0xaa51827bd77cf64b259df2e15bc0b0034cbab1d0f77c4efa9168593faad496f0",
      "blockHash": "0x06331a8531498b1f8588a2023095fa96a98a4f111be257b1ad654757a3a1e6ea",
      "blockNumber": 107822,
      "transactionIndex": 0,
      "confirmations": null,
      "from": "0x2f86ba8019945f39edE131D38d4d8780884DA553",
      "gasPrice": {
        "_hex": "0xd5219d75a"
      },
      "gasLimit": {
        "_hex": "0x5208"
      },
      "to": "0x32Be343B94f860124dC4fEe278FDCBD38C102D88",
      "value": {
        "_hex": "0xc327f3363255e80000"
      },
      "nonce": 28,
      "data": "0x",
      "r": "0xfd68ce1ad48e599a189a2350ad0405f8e9803b6f35caaa32cf973b160e7a5917",
      "s": "0x48c89f68dd42e8b51b8757f9495bb5472bbdc62a04aeabd6124e7b62dd593568",
      "v": 28,
      "creates": null,
      "raw": "0xf86d1c850d5219d75a8252089432be343b94f860124dc4fee278fdcbd38c102d8889c327f3363255e80000801ca0fd68ce1ad48e599a189a2350ad0405f8e9803b6f35caaa32cf973b160e7a5917a048c89f68dd42e8b51b8757f9495bb5472bbdc62a04aeabd6124e7b62dd593568",
      "networkId": 0,
      "chainId": 0
    },
    {
      "hash": "0xc335fb9bf6503a839b9092e33f700762ab4380f15f72a45a9848e9ed4dcd99ea",
      "blockHash": "0x06331a8531498b1f8588a2023095fa96a98a4f111be257b1ad654757a3a1e6ea",
      "blockNumber": 107822,
      "transactionIndex": 1,
      "confirmations": null,
      "from": "0x2b176421eEBBf303fa94aD4fE78362Fa9e4Ca693",
      "gasPrice": {
        "_hex": "0xd5219d75a"
      },
      "gasLimit": {
        "_hex": "0x5208"
      },
      "to": "0x32Be343B94f860124dC4fEe278FDCBD38C102D88",
      "value": {
        "_hex": "0x377e96183d18dc00"
      },
      "nonce": 8,
      "data": "0x",
      "r": "0x1eae5f141b3c728eb709c551b77389aed139781d0bb228333872793ad180cef3",
      "s": "0x718ff00130fd5630981645ae381a51116f4f86cbf3aa54ff1c93aa814b7f3062",
      "v": 28,
      "creates": null,
      "raw": "0xf86c08850d5219d75a8252089432be343b94f860124dc4fee278fdcbd38c102d8888377e96183d18dc00801ca01eae5f141b3c728eb709c551b77389aed139781d0bb228333872793ad180cef3a0718ff00130fd5630981645ae381a51116f4f86cbf3aa54ff1c93aa814b7f3062",
      "networkId": 0,
      "chainId": 0
    }
  ]
}