{
  "hash": "0x97e5bd9921b2f79c335ddab6ae6123aef16432cc7f311e39d792c3309d993ca3",
  "parentHash": "0x56d7ab6f29334db81df21dbf25624d60a3c19da8afca2039c41b56cd89f56e5a",
  "number": 81058,
  "timestamp": 1439495463,
  "nonce": "0x85e3540aaeb6a0a2",
  "difficulty": 2433209374801,
  "gasLimit": {
    "_hex": "0x2fefd8"
  },
  "gasUsed": {
    "_hex": "0x115bd4"
  },
  "miner": "0xe090Ffdced499691fA9379752a59F8A058c1eE4A",
  "extraData": "0x476574682f76312e302e312f6c696e75782f676f312e342e32",
  "transactions": [
    {
      "hash": "0x572885d2fa75647695c3d1f86e95811b8c4e3b78fc4df7ac0ca2a36471edaa34",
      "blockHash": "0x97e5bd9921b2f79c335ddab6ae6123aef16432cc7f311e39d792c3309d993ca3",
      "blockNumber": 81058,
      "transactionIndex": 0,
      "confirmations": null,
      "from": "0x4230fd701B0a2AbF8E7b0A6bd430cEF4736d29c2",
      "gasPrice": {
        "_hex": "0xcb115defa"
      },
      "gasLimit": {
        "_hex": "0x2fefd8"
      },
      "to": "0x109C4f2CCc82C4d77Bde15F306707320294Aea3F",
      "value": {
        "_hex": "0xde0b6b3a7640000"
      },
      "nonce": 1,
      "data": "0x",
      "r": "0x4e26d6095d4693ef7a1aa9234f295b5e42742d2e1225ff4194f2489103abdcf6",
      "s": "0x77c0a6d46de3bb8cb1e73d784854307faf01dcc6a8163269a72fd6cc0e3aa08f",
      "v": 27,
      "creates": null,
      "raw": "0xf86d01850cb115defa832fefd894109c4f2ccc82c4d77bde15f306707320294aea3f880de0b6b3a7640000801ba04e26d6095d4693ef7a1aa9234f295b5e42742d2e1225ff4194f2489103abdcf6a077c0a6d46de3bb8cb1e73d784854307faf01dcc6a8163269a72fd6cc0e3aa08f",
      "networkId": 0,
      "chainId": 0
    }
  ]
}