{
  "hash": "0x55215bd03bade9826091197fc71b4e3910e78ff5ac7ea491fde7b6866b284a74",
  "parentHash": "0x668ae33dfac5d8cf0d2c60a16f6ed58e6038408ffaf7fc5e38c6365b176b46ed",
  "number": 107015,
  "timestamp": 1439914609,
  "nonce": "0xc7d88d886f50ea32",
  "difficulty": 4446307069628,
  "gasLimit": {
    "_hex": "0x2fefd8"
  },
  "gasUsed": {
    "_hex": "0x5208"
  },
  "miner": "0xf927a40C8B7F6E07c5af7FA2155B4864a4112B13",
  "extraData": "0x",
  "transactions": [
    {
      "hash": "0x0d3a6952fcec1320a9249d4c53d529d5db59847281cf932016d23ad6ee9b03ec",
      "blockHash": "0x55215bd03bade9826091197fc71b4e3910e78ff5ac7ea491fde7b6866b284a74",
      "blockNumber": 107015,
      "transactionIndex": 0,
      "confirmations": null,
      "from": "0x0D4EcC7d750180EBf4A9Df728B6669B5Bceb5E40",
      "gasPrice": {
        "_hex": "0xe0a455739"
      },
      "gasLimit": {
        "_hex": "0x5208"
      },
      "to": "0x32Be343B94f860124dC4fEe278FDCBD38C102D88",
      "value": {
        "_hex": "0x340621c75e7d6000"
      },
      "nonce": 82,
      "data": "0x",
      "r": "0xe85fd738901eae89e8a81231341eeb4a02dd9849ca2ba9da7f416ff026a21180",
      "s": "0x40127bf6f7e5b106dfc33e5f6391da179c6f359e1cfbc9241c25bb6059f301d9",
      "v": 27,
      "creates": null,
      "raw": "0xf86c52850e0a4557398252089432be343b94f860124dc4fee278fdcbd38c102d8888340621c75e7d6000801ba0e85fd738901eae89e8a81231341eeb4a02dd9849ca2ba9da7f416ff026a21180a040127bf6f7e5b106dfc33e5f6391da179c6f359e1cfbc9241c25bb6059f301d9",
      "networkId": 0,
      "chainId": 0
    }
  ]
}