{
  "hash": "0xa0534ae04cafde2aa2fd34466e66f8e741746b97df387a0418eff3648586287a",
  "parentHash": "0xeb17dc8714a4a5caa061d29344e84fc35e8f9040170dd50586d00b7d1ce271a4",
  "number": 106175,
  "timestamp": 1439899857,
  "nonce": "0xf6f199a9d66a276f",
  "difficulty": 4472884000854,
  "gasLimit": {
    "_hex": "0x2fefd8"
  },
  "gasUsed": {
    "_hex": "0xf618"
  },
  "miner": "0xe6A7a1d47ff21B6321162AEA7C6CB457D5476Bca",
  "extraData": "0x476574682f76312e302e312d38326566323666362f6c696e75782f676f312e34",
  "transactions": [
    {
      "hash": "0x8034d9a1f99513fe0ecc85853cbc3397c17421a3af5ef5a71edc3cf0e611f052",
      "blockHash": "0xa0534ae04cafde2aa2fd34466e66f8e741746b97df387a0418eff3648586287a",
      "blockNumber": 106175,
      "transactionIndex": 0,
      "confirmations": null,
      "from": "0x1261A4Ab33Df25bdf1Dc8922c51266a9b4bE9179",
      "gasPrice": {
        "_hex": "0xd308e1256"
      },
      "gasLimit": {
        "_hex": "0x5208"
      },
      "to": "0x32Be343B94f860124dC4fEe278FDCBD38C102D88",
      "value": {
        "_hex": "0x8407e3f0849d0000"
      },
      "nonce": 2,
      "data": "0x",
      "r": "0xc50206b4c1ea50a9c7fadc96ae411af33452f1466cf6b7009169960aa319d6f1",
      "s": "0x6e68307cdc042999d127012b9b77f52d73e5895fe7c0ff7e0e6937924718441f",
      "v": 28,
      "creates": null,
      "raw": "0xf86c02850d308e12568252089432be343b94f860124dc4fee278fdcbd38c102d88888407e3f0849d0000801ca0c50206b4c1ea50a9c7fadc96ae411af33452f1466cf6b7009169960aa319d6f1a06e68307cdc042999d127012b9b77f52d73e5895fe7c0ff7e0e6937924718441f",
      "networkId": 0,
      "chainId": 0
    },
    {
      "hash": "0x5dd8fe1d186332aa2fd10bf8e9f895cce24836fef280d48b62f9c8912358cc09",
      "blockHash": "0xa0534ae04cafde2aa2fd34466e66f8e741746b97df387a0418eff3648586287a",
      "blockNumber": 106175,
      "transactionIndex": 1,
      "confirmations": null,
      "from": "0x623d2411c3bb3340784155F9a688b0085251aB5c",
      "gasPrice": {
        "_hex": "0xd205092af"
      },
      "gasLimit": {
        "_hex": "0x55f0"
      },
      "to": "0xB9eE81c1A5CdE84454DC603a8000836118627cfd",
      "value": {
        "_hex": "0xa688906bd8b000000"
      },
      "nonce": 1,
      "data": "0x",
      "r": "0x54cea0a74b429aa967b6d7bf8946e7998e732e58ab2fcc651df9e6c42ffc951b",
      "s": "0x2ef0d70d67961a418a69c846323934fff4a4287f50bd19c27ca7cdb7544949a8",
      "v": 28,
      "creates": null,
      "raw": "0xf86d01850d205092af8255f094b9ee81c1a5cde84454dc603a8000836118627cfd890a688906bd8b000000801ca054cea0a74b429aa967b6d7bf8946e7998e732e58ab2fcc651df9e6c42ffc951ba02ef0d70d67961a418a69c846323934fff4a4287f50bd19c27ca7cdb7544949a8",
      "networkId": 0,
      "chainId": 0
    },
    {
      "hash": "0x9bbfe4d2511f3418d1646b3dec774e73a4e43fd6ba749acc5f3f13fb47901cbd",
      "blockHash": "0xa0534ae04cafde2aa2fd34466e66f8e741746b97df387a0418eff3648586287a",
      "blockNumber": 106175,
      "transactionIndex": 2,
      "confirmations": null,
      "from": "0x120A270bbC009644e35F0bB6ab13f95b8199c4ad",
      "gasPrice": {
        "_hex": "0xcae4a9cfc"
      },
      "gasLimit": {
        "_hex": "0x3d090"
      },
      "to": "0x9eE2bcfE9d322cFD264b1aa913ff9e2Ca905C204",
      "value": {
        "_hex": "0x2881b484ae7aacb000"
      },
      "nonce": 777,
      "data": "0x",
      "r": "0xa09ecd2e9b9d719759b3e1f69fea710bbe127ca680521934fe15771fc0e27edc",
      "s": "0x6b33205535fef4d28f20a32fac1c3b2c12751b2fdb307809aba9bc90ec84c60f",
      "v": 27,
      "creates": null,
      "raw": "0xf870820309850cae4a9cfc8303d090949ee2bcfe9d322cfd264b1aa913ff9e2ca905c204892881b484ae7aacb000801ba0a09ecd2e9b9d719759b3e1f69fea710bbe127ca680521934fe15771fc0e27edca06b33205535fef4d28f20a32fac1c3b2c12751b2fdb307809aba9bc90ec84c60f",
      "networkId": 0,
      "chainId": 0
    }
  ]
}