{
  "hash": "0xff91bfdb67e726fee8bae982db4d3471c87d12777c2fd7c31978e738be816b5f",
  "parentHash": "0x01c22f64601f70737acd5277d43c9665de884bd877d62089992bb5dea86bf0ff",
  "number": 81500,
  "timestamp": 1439502777,
  "nonce": "0x640eb898f1305fac",
  "difficulty": 2447379355555,
  "gasLimit": {
    "_hex": "0x2fefd8"
  },
  "gasUsed": {
    "_hex": "0x5208"
  },
  "miner": "0xC603Ab5ef41fC61AA8b76bEddb09e3Cfcbb174BD",
  "extraData": "0x476574682f76312e302e312f77696e646f77732f676f312e342e32",
  "transactions": [
    {
      "hash": "0xc93841dda317249874452da9e2d5b2dffdb82715a4af1145ab6ed5015aa66906",
      "blockHash": "0xff91bfdb67e726fee8bae982db4d3471c87d12777c2fd7c31978e738be816b5f",
      "blockNumber": 81500,
      "transactionIndex": 0,
      "confirmations": null,
      "from": "0x32Be343B94f860124dC4fEe278FDCBD38C102D88",
      "gasPrice": {
        "_hex": "0xd7b71adcf"
      },
      "gasLimit": {
        "_hex": "0x5208"
      },
      "to": "0xf6b4DE5a28aCbcb0F7928733E0fAbC009A0dB657",
      "value": {
        "_hex": "0x238412e8f4ad6000"
      },
      "nonce": 601,
      "data": "0x",
      "r": "0xa0aeaf02f195b50166ecff3ee968e9b391070b2fa298cc2b2b17827ec3170f11",
      "s": "0x3188281206893b67f97e522c4c47b6870349aeb35e6f9995fd8aa7e2dccbbd39",
      "v": 27,
      "creates": null,
      "raw": "0xf86e820259850d7b71adcf82520894f6b4de5a28acbcb0f7928733e0fabc009a0db65788238412e8f4ad6000801ba0a0aeaf02f195b50166ecff3ee968e9b391070b2fa298cc2b2b17827ec3170f11a03188281206893b67f97e522c4c47b6870349aeb35e6f9995fd8aa7e2dccbbd39",
      "networkId": 0,
      "chainId": 0
    }
  ]
}