{
  "hash": "0x449686d001d55940b4c1c46bea5256ff26f3cf945248e4eb35c2da125c5172d8",
  "parentHash": "0xbcfb2d1a54927b3ab4b677dda523efbb37027ecc92455b1d2e0966a95fe4313c",
  "number": 107704,
  "timestamp": 1439927354,
  "nonce": "0x15328c091dcb799f",
  "difficulty": 4374877248431,
  "gasLimit": {
    "_hex": "0x2fefd8"
  },
  "gasUsed": {
    "_hex": "0x5208"
  },
  "miner": "0x995D4E6240b95F3312285Af1472aEA2Aca9795Bc",
  "extraData": "0x",
  "transactions": [
    {
      "hash": "0x10d578b5031a19739a4b2959a135b3df139d1e0b6f05095d11cea1c45354a4cf",
      "blockHash": "0x449686d001d55940b4c1c46bea5256ff26f3cf945248e4eb35c2da125c5172d8",
      "blockNumber": 107704,
      "transactionIndex": 0,
      "confirmations": null,
      "from": "0x02aca973fdeA473c380F2cFbA7760220d2CB38Ea",
      "gasPrice": {
        "_hex": "0xd4cfae31a"
      },
      "gasLimit": {
        "_hex": "0x5208"
      },
      "to": "0x32Be343B94f860124dC4fEe278FDCBD38C102D88",
      "value": {
        "_hex": "0x2b5df764115ba0000"
      },
      "nonce": 1,
      "data": "0x",
      "r": "0x5d4ee1bdd6bba1d9a6ff5fa69953a769a68c763dc4a93c47a99c2884e7aab267",
      "s": "0x68f52fc3a98538a80cc812d97c926616b63932825bdb6dbb100b2464295f5f29",
      "v": 28,
      "creates": null,
      "raw": "0xf86d01850d4cfae31a8252089432be343b94f860124dc4fee278fdcbd38c102d888902b5df764115ba0000801ca05d4ee1bdd6bba1d9a6ff5fa69953a769a68c763dc4a93c47a99c2884e7aab267a068f52fc3a98538a80cc812d97c926616b63932825bdb6dbb100b2464295f5f29",
      "networkId": 0,
      "chainId": 0
    }
  ]
}