{
  "hash": "0xbc1a07be67425062d285654bb42c6b78268780afea2741dc017068efe7e50f18",
  "parentHash": "0x1178785b28712a5a17650fd00200edc2278efe4822fb23a0804da8037a399712",
  "number": 89705,
  "timestamp": 1439627834,
  "nonce": "0xa57abb7f8db93356",
  "difficulty": 3330497674568,
  "gasLimit": {
    "_hex": "0x2fefd8"
  },
  "gasUsed": {
    "_hex": "0x5208"
  },
  "miner": "0xf8E0CA3Ed80bd541b94BEdCf259e8CF2141A9523",
  "extraData": "0x476574682f76312e302e312f77696e646f77732f676f312e342e32",
  "transactions": [
    {
      "hash": "0xc042302f2e06f8ea0f47285dc08d7a191363c2dc196df29821cd60e99dd8ec8c",
      "blockHash": "0xbc1a07be67425062d285654bb42c6b78268780afea2741dc017068efe7e50f18",
      "blockNumber": 89705,
      "transactionIndex": 0,
      "confirmations": null,
      "from": "0xC7E56a369F1e778501Fd748Df1cA2F3f86965ABB",
      "gasPrice": {
        "_hex": "0x10c55953725"
      },
      "gasLimit": {
        "_hex": "0x59d8"
      },
      "to": "0xF3786E61962AB4fBD64819cCf11A8Bb563f9EC47",
      "value": {
        "_hex": "0x33590a6584f20000"
      },
      "nonce": 1,
      "data": "0x",
      "r": "0x4aa72df793291c24235ddb7aaff00ac2eb8c7d47779d75026c3c3d1c23822913",
      "s": "0x37044bc7ce8bdb39caaa9c46d4f7f725fe58a6fd649e198102e68746b4359e88",
      "v": 28,
      "creates": null,
      "raw": "0xf86d0186010c559537258259d894f3786e61962ab4fbd64819ccf11a8bb563f9ec478833590a6584f20000801ca04aa72df793291c24235ddb7aaff00ac2eb8c7d47779d75026c3c3d1c23822913a037044bc7ce8bdb39caaa9c46d4f7f725fe58a6fd649e198102e68746b4359e88",
      "networkId": 0,
      "chainId": 0
    }
  ]
}