{
  "hash": "0x2fa93cb2ab9c2db16a1221b9bb4469e301699cfd57a0af90ecfaf7676d696926",
  "parentHash": "0x7a2adc6c2d4cf1ea19686f53e9d3ea54d2121e0d92fae1382229ccd505196097",
  "number": 69912,
  "timestamp": 1439311735,
  "nonce": "0x71353f40df7c4cb1",
  "difficulty": 2110627136478,
  "gasLimit": {
    "_hex": "0x2fefd8"
  },
  "gasUsed": {
    "_hex": "0x1a154"
  },
  "miner": "0xe6A7a1d47ff21B6321162AEA7C6CB457D5476Bca",
  "extraData": "0x476574682f76312e302e312d38326566323666362f6c696e75782f676f312e34",
  "transactions": [
    {
      "hash": "0x6792bea72d4e1041e58ea2829016715d93a78e814657c3b5c9802b0d3e2e8ff5",
      "blockHash": "0x2fa93cb2ab9c2db16a1221b9bb4469e301699cfd57a0af90ecfaf7676d696926",
      "blockNumber": 69912,
      "transactionIndex": 0,
      "confirmations": null,
      "from": "0xdEA7D66bec3A818126Eb817A7A0012f64251d039",
      "gasPrice": {
        "_hex": "0xd17e5e535"
      },
      "gasLimit": {
        "_hex": "0x5208"
      },
      "to": "0x32Be343B94f860124dC4fEe278FDCBD38C102D88",
      "value": {
        "_hex": "0x3635c57bb485600000"
      },
      "nonce": 0,
      "data": "0x",
      "r": "0xc987d33e5e8c2fe245e9d942e1ef9267aba3750e001fa7eb7082c93e2b81ef3f",
      "s": "0x7448fc931171c086244627418c9947ee86736905f027064633807b63b93fdb30",
      "v": 27,
      "creates": null,
      "raw": "0xf86d80850d17e5e5358252089432be343b94f860124dc4fee278fdcbd38c102d88893635c57bb485600000801ba0c987d33e5e8c2fe245e9d942e1ef9267aba3750e001fa7eb7082c93e2b81ef3fa07448fc931171c086244627418c9947ee86736905f027064633807b63b93fdb30",
      "networkId": 0,
      "chainId": 0
    },
    {
      "hash": "0x79cb7e4b825af3b5375eacab9e38c162739d13be0697b16294e435eb19384d68",
      "blockHash": "0x2fa93cb2ab9c2db16a1221b9bb4469e301699cfd57a0af90ecfaf7676d696926",
      "blockNumber": 69912,
      "transactionIndex": 1,
      "confirmations": null,
      "from": "0x04a2a3ee9C9ea82e1F918ecE209f8A7E6d7521E7",
      "gasPrice": {
        "_hex": "0xd17e5e535"
      },
      "gasLimit": {
        "_hex": "0x5208"
      },
      "to": "0x32Be343B94f860124dC4fEe278FDCBD38C102D88",
      "value": {
        "_hex": "0xd0267797221b5800"
      },
      "nonce": 0,
      "data": "0x",
      "r": "0x939418841b36236945523daba5044629d933f4af613acfc13c707a62be4da44e",
      "s": "0x5a4f139f433bf58bb027a328f8250df884fb648c4aecdd210e3b0fe1bc047dd1",
      "v": 27,
      "creates": null,
      "raw": "0xf86c80850d17e5e5358252089432be343b94f860124dc4fee278fdcbd38c102d8888d0267797221b5800801ba0939418841b36236945523daba5044629d933f4af613acfc13c707a62be4da44ea05a4f139f433bf58bb027a328f8250df884fb648c4aecdd210e3b0fe1bc047dd1",
      "networkId": 0,
      "chainId": 0
    },
    {
      "hash": "0xbe09233e4560a888d9e92c93927693743e673f9558881cea36791eb048e0be21",
      "blockHash": "0x2fa93cb2ab9c2db16a1221b9bb4469e301699cfd57a0af90ecfaf7676d696926",
      "blockNumber": 69912,
      "transactionIndex": 2,
      "confirmations": null,
      "from": "0xedaDEb4B85F5bf16b75C37fbf19eB36Cd401c16C",
      "gasPrice": {
        "_hex": "0xcf9665347"
      },
      "gasLimit": {
        "_hex": "0x55f0"
      },
      "to": "0x2910543Af39abA0Cd09dBb2D50200b3E800A63D2",
      "value": {
        "_hex": "0x3fd67ba0cecc0000"
      },
      "nonce": 0,
      "data": "0x454e51343033375047",
      "r": "0x9165ad25879f55c0b19d39d1773da61efa849c7b3fddb76b273bb3490390a1ef",
      "s": "0x4d96097a5a1c1678d8476b2822d6f24a5fe306cf692ada11ed6efea11d4cffba",
      "v": 28,
      "creates": null,
      "raw": "0xf87580850cf96653478255f0942910543af39aba0cd09dbb2d50200b3e800a63d2883fd67ba0cecc000089454e513430333750471ca09165ad25879f55c0b19d39d1773da61efa849c7b3fddb76b273bb3490390a1efa04d96097a5a1c1678d8476b2822d6f24a5fe306cf692ada11ed6efea11d4cffba",
      "networkId": 0,
      "chainId": 0
    },
    {
      "hash": "0x7574602ba81b491b76fcfe1b5ffbe2569eb98ff68d7c4c9faea3f01279ffef2e",
      "blockHash": "0x2fa93cb2ab9c2db16a1221b9bb4469e301699cfd57a0af90ecfaf7676d696926",
      "blockNumber": 69912,
      "transactionIndex": 3,
      "confirmations": null,
      "from": "0xF9bFab280Cbea21E34356b54A145aca9786A7a19",
      "gasPrice": {
        "_hex": "0xcf9665347"
      },
      "gasLimit": {
        "_hex": "0x55f0"
      },
      "to": "0x2910543Af39abA0Cd09dBb2D50200b3E800A63D2",
      "value": {
        "_hex": "0xd71b0fe0a28e0000"
      },
      "nonce": 1,
      "data": "0x454e51343033375047",
      "r": "0x82dfc1e5fd5979904987d65e1e1422915ea8cdd5d8a96f7096103cdd2403c65c",
      "s": "0x00cce7224a9145cea6da587f0ff0c954dbcc2985f22a72c4418703f2123d49e0",
      "v": 27,
      "creates": null,
      "raw": "0xf87401850cf96653478255f0942910543af39aba0cd09dbb2d50200b3e800a63d288d71b0fe0a28e000089454e513430333750471ba082dfc1e5fd5979904987d65e1e1422915ea8cdd5d8a96f7096103cdd2403c65c9fcce7224a9145cea6da587f0ff0c954dbcc2985f22a72c4418703f2123d49e0",
      "networkId": 0,
      "chainId": 0
    },
    {
      "hash": "0xce0e2f7dc3f09b7224d86e9a1d5f19c8c9fbf70627d180502c47808318e33da2",
      "blockHash": "0x2fa93cb2ab9c2db16a1221b9bb4469e301699cfd57a0af90ecfaf7676d696926",
      "blockNumber": 69912,
      "transactionIndex": 4,
      "confirmations": null,
      "from": "0x741Df8a3A584EA9D5fadBB30CA7127293345312A",
      "gasPrice": {
        "_hex": "0xcf9665347"
      },
      "gasLimit": {
        "_hex": "0x55f0"
      },
      "to": "0x2910543Af39abA0Cd09dBb2D50200b3E800A63D2",
      "value": {
        "_hex": "0x2b746f48f0f120000"
      },
      "nonce": 1,
      "data": "0x454e51343033375047",
      "r": "0x059c378544ccb769b3508b53e1a54e59967225dce40a29c961889c338136a3d8",
      "s": "0x340be69fd5fcc12ce43683f9b402c9aa7029141e6b1599f7d956f0d5194c3c5b",
      "v": 28,
      "creates": null,
      "raw": "0xf87601850cf96653478255f0942910543af39aba0cd09dbb2d50200b3e800a63d28902b746f48f0f12000089454e513430333750471ca0059c378544ccb769b3508b53e1a54e59967225dce40a29c961889c338136a3d8a0340be69fd5fcc12ce43683f9b402c9aa7029141e6b1599f7d956f0d5194c3c5b",
      "networkId": 0,
      "chainId": 0
    }
  ]
}