{
  "hash": "0xc018875340aeada214ecc7ad7a1eba8bdc15c3cd8d3e3c9c8586fa352fb90016",
  "parentHash": "0xd89128ec321e2d65dba828b12e0bd1e1cf95f4029b569c9041280c4440c4e847",
  "number": 47786,
  "timestamp": 1438946234,
  "nonce": "0xaca885f0c7c7c505",
  "difficulty": 1455863626718,
  "gasLimit": {
    "_hex": "0xf334"
  },
  "gasUsed": {
    "_hex": "0x5208"
  },
  "miner": "0xF2d2AfF1320476cb8C6b607199D23175cc595693",
  "extraData": "0x476574682f76312e302e312f77696e646f77732f676f312e342e32",
  "transactions": [
    {
      "hash": "0x16ab63305726c1dd19eb91915f8f73f65166fd7d1a8e6f4b8ae21212449a5990",
      "blockHash": "0xc018875340aeada214ecc7ad7a1eba8bdc15c3cd8d3e3c9c8586fa352fb90016",
      "blockNumber": 47786,
      "transactionIndex": 0,
      "confirmations": null,
      "from": "0xe6A7a1d47ff21B6321162AEA7C6CB457D5476Bca",
      "gasPrice": {
        "_hex": "0xd4e2fd4e8"
      },
      "gasLimit": {
        "_hex": "0x55f0"
      },
      "to": "0x0785A86bE9c2D68DbAEbaf1DB72641680529E2FD",
      "value": {
        "_hex": "0x2330e77f001f10048"
      },
      "nonce": 237,
      "data": "0x",
      "r": "0xd5bf18b8df91da2a1b6347b259c7956e283c72123d030c8ca8b9b937c9d9031c",
      "s": "0x2e29fb58057697ae84f3a49cdc9540d020cfa1d883f93db340cdd3d1136c1ea6",
      "v": 27,
      "creates": null,
      "raw": "0xf86e81ed850d4e2fd4e88255f0940785a86be9c2d68dbaebaf1db72641680529e2fd8902330e77f001f10048801ba0d5bf18b8df91da2a1b6347b259c7956e283c72123d030c8ca8b9b937c9d9031ca02e29fb58057697ae84f3a49cdc9540d020cfa1d883f93db340cdd3d1136c1ea6",
      "networkId": 0,
      "chainId": 0
    }
  ]
}