{
  "hash": "0x2ca4e1352f4833d9e9504bc05cab91904b20eab95a1dd8f80f5e132e74ff7e43",
  "parentHash": "0x6d504035ab9f197de65ba90b5038bd08cee6a7ea725ed99512d33da3a5167ca4",
  "number": 92423,
  "timestamp": 1439671702,
  "nonce": "0x41e3d4a6f53db1d7",
  "difficulty": 3526884579281,
  "gasLimit": {
    "_hex": "0x2fefd8"
  },
  "gasUsed": {
    "_hex": "0x546c"
  },
  "miner": "0xe6A7a1d47ff21B6321162AEA7C6CB457D5476Bca",
  "extraData": "0x476574682f76312e302e312d38326566323666362f6c696e75782f676f312e34",
  "transactions": [
    {
      "hash": "0x2be738d01a0d4c0b634d0afccba1c01ad9c632399b3a52e678513ae7d9396047",
      "blockHash": "0x2ca4e1352f4833d9e9504bc05cab91904b20eab95a1dd8f80f5e132e74ff7e43",
      "blockNumber": 92423,
      "transactionIndex": 0,
      "confirmations": null,
      "from": "0xDdFafdbC7c90f1320e54b98F374617fbd01d109f",
      "gasPrice": {
        "_hex": "0xfff7b806aa"
      },
      "gasLimit": {
        "_hex": "0x55f0"
      },
      "to": "0x2910543Af39abA0Cd09dBb2D50200b3E800A63D2",
      "value": {
        "_hex": "0x21e19e0c9bab2400000"
      },
      "nonce": 1,
      "data": "0x454e425039395a5630",
      "r": "0x34001cfb5bbfd266189d6e86b5a8d07d15b65d4e9966d57037c16316a48f8f6f",
      "s": "0x2f79c3d942326d6804aaa74fada3fa2ce87d1d4dd03ecb5c7223b6e44d85d9c4",
      "v": 28,
      "creates": null,
      "raw": "0xf8770185fff7b806aa8255f0942910543af39aba0cd09dbb2d50200b3e800a63d28a021e19e0c9bab240000089454e425039395a56301ca034001cfb5bbfd266189d6e86b5a8d07d15b65d4e9966d57037c16316a48f8f6fa02f79c3d942326d6804aaa74fada3fa2ce87d1d4dd03ecb5c7223b6e44d85d9c4",
      "networkId": 0,
      "chainId": 0
    }
  ]
}