{
  "hash": "0x73eb744b9473f706b4f941b81e40c1ab9f08234f239398a3e8de4ebc5cba1747",
  "parentHash": "0x88fa54e5a9932d3f81cc84111b68ce8615c94a74b978d30e72b626d1b5c8b27e",
  "number": 83762,
  "timestamp": 1439540520,
  "nonce": "0x9159509d7d43ae3c",
  "difficulty": 2439561870964,
  "gasLimit": {
    "_hex": "0x2fefd8"
  },
  "gasUsed": {
    "_hex": "0x5208"
  },
  "miner": "0xbb7B8287f3F0a933474a79eAe42CBCa977791171",
  "extraData": "0x476574682f4c5649562f76312e302e312f6c696e75782f676f312e342e32",
  "transactions": [
    {
      "hash": "0x9cd8b581c516cf2ded6ced88937d347e2de39b3ad491b67288fa49c982f13652",
      "blockHash": "0x73eb744b9473f706b4f941b81e40c1ab9f08234f239398a3e8de4ebc5cba1747",
      "blockNumber": 83762,
      "transactionIndex": 0,
      "confirmations": null,
      "from": "0xF9634a7Ee627EeF74f4d803113CD4F87E5162079",
      "gasPrice": {
        "_hex": "0xba43b7400"
      },
      "gasLimit": {
        "_hex": "0x5b04"
      },
      "to": "0x4E9f76CBc24805BF1Db0fb2113B3FAb42F9879Df",
      "value": {
        "_hex": "0x16345785d8a0000"
      },
      "nonce": 3,
      "data": "0x",
      "r": "0xa5a66eab4f6fb0c7ef932ee1f19c6b3eb090480b78d6002e53fff198258ed42c",
      "s": "0x13b35b60e66c2c53f0e55376f8d03911e282eb955656cf6bed69586143fc0b96",
      "v": 27,
      "creates": null,
      "raw": "0xf86c03850ba43b7400825b04944e9f76cbc24805bf1db0fb2113b3fab42f9879df88016345785d8a0000801ba0a5a66eab4f6fb0c7ef932ee1f19c6b3eb090480b78d6002e53fff198258ed42ca013b35b60e66c2c53f0e55376f8d03911e282eb955656cf6bed69586143fc0b96",
      "networkId": 0,
      "chainId": 0
    }
  ]
}