{
  "hash": "0xc7a002f1cf034225141c7168546d395148b69111afe5be44db2a682cd0bc41e0",
  "parentHash": "0x198490f461e121ce8e70e2349f0bd61ce0c70460ca591f3b5cd43313cf129fd3",
  "number": 103347,
  "timestamp": 1439851801,
  "nonce": "0xcd469241070f2aab",
  "difficulty": 4174666904810,
  "gasLimit": {
    "_hex": "0x2fefd8"
  },
  "gasUsed": {
    "_hex": "0x5208"
  },
  "miner": "0xe6A7a1d47ff21B6321162AEA7C6CB457D5476Bca",
  "extraData": "0x476574682f76312e302e312d38326566323666362f6c696e75782f676f312e34",
  "transactions": [
    {
      "hash": "0x5f1c440d7f5bd1fd42dba9e01be40bd30fced001243124c84237a24abc256125",
      "blockHash": "0xc7a002f1cf034225141c7168546d395148b69111afe5be44db2a682cd0bc41e0",
      "blockNumber": 103347,
      "transactionIndex": 0,
      "confirmations": null,
      "from": "0x2910543Af39abA0Cd09dBb2D50200b3E800A63D2",
      "gasPrice": {
        "_hex": "0xd1e078e02"
      },
      "gasLimit": {
        "_hex": "0x5208"
      },
      "to": "0x6Ea9d172E15e969316f49CB2D5549fc3b00c1ef3",
      "value": {
        "_hex": "0x1168082a718ca718000"
      },
      "nonce": 1010,
      "data": "0x",
      "r": "0x66edebdfe377241e488a49cb97aeab1e4b6c68b4cc8a247560a54b2b60fbc40f",
      "s": "0x4c66afb588762af34a41a9139063d15d73a6915a5ec495fd0a37eb5fc604c7ae",
      "v": 28,
      "creates": null,
      "raw": "0xf8708203f2850d1e078e02825208946ea9d172e15e969316f49cb2d5549fc3b00c1ef38a01168082a718ca718000801ca066edebdfe377241e488a49cb97aeab1e4b6c68b4cc8a247560a54b2b60fbc40fa04c66afb588762af34a41a9139063d15d73a6915a5ec495fd0a37eb5fc604c7ae",
      "networkId": 0,
      "chainId": 0
    }
  ]
}