{
  "hash": "0x3483fb946a94007d2aaea922edf3bdc34af8ee009ac5cc9758128f350b0acc5a",
  "parentHash": "0x073eb2bb5fe60a299bce4c538cfb3d9c6833f10f0b80b7a42f483ca1b44971e5",
  "number": 76137,
  "timestamp": 1439415430,
  "nonce": "0x799cce8bc7356d66",
  "difficulty": 2239609779200,
  "gasLimit": {
    "_hex": "0x2fefd8"
  },
  "gasUsed": {
    "_hex": "0x546c"
  },
  "miner": "0xe6A7a1d47ff21B6321162AEA7C6CB457D5476Bca",
  "extraData": "0x476574682f76312e302e312d38326566323666362f6c696e75782f676f312e34",
  "transactions": [
    {
      "hash": "0x2bf1369976ddd4c119fc45116d3dc4698935d455e4455d8a0ec849cc13d37a23",
      "blockHash": "0x3483fb946a94007d2aaea922edf3bdc34af8ee009ac5cc9758128f350b0acc5a",
      "blockNumber": 76137,
      "transactionIndex": 0,
      "confirmations": null,
      "from": "0xEc9851bd917270610267D60518b54D3Ca2b35b17",
      "gasPrice": {
        "_hex": "0xdfde45d46"
      },
      "gasLimit": {
        "_hex": "0x55f0"
      },
      "to": "0x2910543Af39abA0Cd09dBb2D50200b3E800A63D2",
      "value": {
        "_hex": "0x21e19e0c9bab2400000"
      },
      "nonce": 3,
      "data": "0x454e5136505a575930",
      "r": "0xb716ec60caaced494e05cb60f02ed950c4e82a86a23ceb7a66ef8939fc9f5861",
      "s": "0x2b58a039b006a2a89fe921b0f1cfdf8de4b8bef3622a1b11f4e8b0d0d6bd4d28",
      "v": 27,
      "creates": null,
      "raw": "0xf87703850dfde45d468255f0942910543af39aba0cd09dbb2d50200b3e800a63d28a021e19e0c9bab240000089454e5136505a5759301ba0b716ec60caaced494e05cb60f02ed950c4e82a86a23ceb7a66ef8939fc9f5861a02b58a039b006a2a89fe921b0f1cfdf8de4b8bef3622a1b11f4e8b0d0d6bd4d28",
      "networkId": 0,
      "chainId": 0
    }
  ]
}