{
  "hash": "0x98bb5c7128f7ffec256f8a818851e04125b0e2a59c254408189d5fc5c582dc03",
  "parentHash": "0x0f7565e66ad19802beaf89bcc8133a921f45a5056606fe249b8cb70e29bcaa85",
  "number": 100376,
  "timestamp": 1439805494,
  "nonce": "0x732a2e6796c36c54",
  "difficulty": 3807997952051,
  "gasLimit": {
    "_hex": "0x2fefd8"
  },
  "gasUsed": {
    "_hex": "0x5208"
  },
  "miner": "0x623d2411c3bb3340784155F9a688b0085251aB5c",
  "extraData": "0x",
  "transactions": [
    {
      "hash": "0x5b11ac4bbb6ef5c772da2ec9f73d6ad5cb2c1cd5fc9b7a44a905753699078f43",
      "blockHash": "0x98bb5c7128f7ffec256f8a818851e04125b0e2a59c254408189d5fc5c582dc03",
      "blockNumber": 100376,
      "transactionIndex": 0,
      "confirmations": null,
      "from": "0xF03462EC92AD7d5F732197D6F2408C5B2CD44361",
      "gasPrice": {
        "_hex": "0xd7d40ace3"
      },
      "gasLimit": {
        "_hex": "0x15f90"
      },
      "to": "0x67F6AeAF9Ac8260255556359D839b2982809fD47",
      "value": {
        "_hex": "0xde0b6b3a7640000"
      },
      "nonce": 2,
      "data": "0x",
      "r": "0x7c4d8c6ae854d77e8c3da8afce1a9fbc8425cc9a8107a3b54a869b16f320460e",
      "s": "0x479547009cdaa5613eb25501360c91f82e1e4d8376a9e6b6df6c7c7b2b8650b7",
      "v": 27,
      "creates": null,
      "raw": "0xf86d02850d7d40ace383015f909467f6aeaf9ac8260255556359d839b2982809fd47880de0b6b3a7640000801ba07c4d8c6ae854d77e8c3da8afce1a9fbc8425cc9a8107a3b54a869b16f320460ea0479547009cdaa5613eb25501360c91f82e1e4d8376a9e6b6df6c7c7b2b8650b7",
      "networkId": 0,
      "chainId": 0
    }
  ]
}