{
  "hash": "0x7a5501196b09011d478ac8248ddb81fe34c51e1163a21a35ee862e5e36ca4ecd",
  "parentHash": "0xfb52a03ee5683de863ffc8fc41277f83752766f280ad20bf8c294aa9e3038a82",
  "number": 80531,
  "timestamp": 1439486838,
  "nonce": "0x02e8a50bc60f55ed",
  "difficulty": 2422692216645,
  "gasLimit": {
    "_hex": "0x2fefd8"
  },
  "gasUsed": {
    "_hex": "0x546c"
  },
  "miner": "0xe6A7a1d47ff21B6321162AEA7C6CB457D5476Bca",
  "extraData": "0x476574682f76312e302e312d38326566323666362f6c696e75782f676f312e34",
  "transactions": [
    {
      "hash": "0xc1438b218f1a61fbb987f4164441dafdeea5ab4d4937c409d0a743febc9376e8",
      "blockHash": "0x7a5501196b09011d478ac8248ddb81fe34c51e1163a21a35ee862e5e36ca4ecd",
      "blockNumber": 80531,
      "transactionIndex": 0,
      "confirmations": null,
      "from": "0x24f7450dDBf18B020FeB1A2032D9D54b633EdF37",
      "gasPrice": {
        "_hex": "0x110c8f7d8de"
      },
      "gasLimit": {
        "_hex": "0xc350"
      },
      "to": "0x2910543Af39abA0Cd09dBb2D50200b3E800A63D2",
      "value": {
        "_hex": "0xde0b6b3a7640000"
      },
      "nonce": 0,
      "data": "0x454e3138365a383330",
      "r": "0x736fc347c184b36d5ccb1e43d3496ae634a5f2407aaea0473e14b7247758a646",
      "s": "0xd8c80a6578bd64b18812e190c8e75610c6efa81859af2c3587bec36d3a0683b8",
      "v": 27,
      "creates": null,
      "raw": "0xf87680860110c8f7d8de82c350942910543af39aba0cd09dbb2d50200b3e800a63d2880de0b6b3a764000089454e3138365a3833301ba0736fc347c184b36d5ccb1e43d3496ae634a5f2407aaea0473e14b7247758a646a0d8c80a6578bd64b18812e190c8e75610c6efa81859af2c3587bec36d3a0683b8",
      "networkId": 0,
      "chainId": 0
    }
  ]
}