{
  "hash": "0x17a3f3913051f17d4c56ec8344cd47d42919c655b26fbbea0032371a54b07484",
  "parentHash": "0xa1a8249abe16aa7e93437be37743605eb7002a3c5b1ea3c674362e16fca6922c",
  "number": 63143,
  "timestamp": 1439199906,
  "nonce": "0xb5ed6d98700e827a",
  "difficulty": 1800607433119,
  "gasLimit": {
    "_hex": "0x2fefd8"
  },
  "gasUsed": {
    "_hex": "0xf618"
  },
  "miner": "0x47ff6576639c2e94762eA5443978D7681C0E78DC",
  "extraData": "0x476574682f76312e302e312f6c696e75782f676f312e342e32",
  "transactions": [
    {
      "hash": "0xbc148441a7e66338dd0827646c4c5a6ab633b04a860a3b1fded03d92c34934e0",
      "blockHash": "0x17a3f3913051f17d4c56ec8344cd47d42919c655b26fbbea0032371a54b07484",
      "blockNumber": 63143,
      "transactionIndex": 0,
      "confirmations": null,
      "from": "0x1da881Fae84444ebEf7B72F3267a4e67Aa61faE9",
      "gasPrice": {
        "_hex": "0xe216b7a82"
      },
      "gasLimit": {
        "_hex": "0x5208"
      },
      "to": "0x32Be343B94f860124dC4fEe278FDCBD38C102D88",
      "value": {
        "_hex": "0x455f0a5b9d2fd800"
      },
      "nonce": 3,
      "data": "0x",
      "r": "0x3efb34fa4fb831ee6e0cb555388998a6db7eb4b6a7c392fc7d926d216f757040",
      "s": "0x7665e78c40ce91186f44eee059f9ad1f6d9d3e2851f9c96e7b8db1bb86c7460c",
      "v": 27,
      "creates": null,
      "raw": "0xf86c03850e216b7a828252089432be343b94f860124dc4fee278fdcbd38c102d8888455f0a5b9d2fd800801ba03efb34fa4fb831ee6e0cb555388998a6db7eb4b6a7c392fc7d926d216f757040a07665e78c40ce91186f44eee059f9ad1f6d9d3e2851f9c96e7b8db1bb86c7460c",
      "networkId": 0,
      "chainId": 0
    },
    {
      "hash": "0xfe57fc6c2b0845d795951edee692121b3443a0a17a0cb4b7d03457281c849ce7",
      "blockHash": "0x17a3f3913051f17d4c56ec8344cd47d42919c655b26fbbea0032371a54b07484",
      "blockNumber": 63143,
      "transactionIndex": 1,
      "confirmations": null,
      "from": "0x2910543Af39abA0Cd09dBb2D50200b3E800A63D2",
      "gasPrice": {
        "_hex": "0xd950b6692"
      },
      "gasLimit": {
        "_hex": "0x5208"
      },
      "to": "0xdB9ACCBF37Be18024d013d5eB1444A48501338Fb",
      "value": {
        "_hex": "0x1dc2d60bccc1938000"
      },
      "nonce": 121,
      "data": "0x",
      "r": "0xac155f329f8f7a31a4fccad50d712a8a0af4a0d8cbf64d7d9e693d50f739f649",
      "s": "0x76bdfc5c1ca9d7b9ca9d857959524114d73c047c3b25cdc176c61ae5512af294",
      "v": 28,
      "creates": null,
      "raw": "0xf86d79850d950b669282520894db9accbf37be18024d013d5eb1444a48501338fb891dc2d60bccc1938000801ca0ac155f329f8f7a31a4fccad50d712a8a0af4a0d8cbf64d7d9e693d50f739f649a076bdfc5c1ca9d7b9ca9d857959524114d73c047c3b25cdc176c61ae5512af294",
      "networkId": 0,
      "chainId": 0
    },
    {
      "hash": "0x01cff1250c5eccd559f5a72f4b65a2120d89e445d1726263e317e3fabe7c0606",
      "blockHash": "0x17a3f3913051f17d4c56ec8344cd47d42919c655b26fbbea0032371a54b07484",
      "blockNumber": 63143,
      "transactionIndex": 2,
      "confirmations": null,
      "from": "0x2910543Af39abA0Cd09dBb2D50200b3E800A63D2",
      "gasPrice": {
        "_hex": "0xd950b6692"
      },
      "gasLimit": {
        "_hex": "0x5208"
      },
      "to": "0x95294A47790e9f95A51C0f4E89327d6Fd83f227d",
      "value": {
        "_hex": "0x154005ff9f193f8000"
      },
      "nonce": 122,
      "data": "0x",
      "r": "0x454b88e0c7cddd3ece3e8ca0fad537a26c04f5077179d6962d04fdae94c5a430",
      "s": "0x4cd0b59e75d8ed0cc1240ce090e1e68725f55d48faf2594cb48594db5b1e979e",
      "v": 28,
      "creates": null,
      "raw": "0xf86d7a850d950b66928252089495294a47790e9f95a51c0f4e89327d6fd83f227d89154005ff9f193f8000801ca0454b88e0c7cddd3ece3e8ca0fad537a26c04f5077179d6962d04fdae94c5a430a04cd0b59e75d8ed0cc1240ce090e1e68725f55d48faf2594cb48594db5b1e979e",
      "networkId": 0,
      "chainId": 0
    }
  ]
}