{
  "hash": "0x1bf9c556dce7713cc694b1a01ba07f348c2c755ce5bfb6d7410be99ac41c4073",
  "parentHash": "0xd765449a3f3072f3f0a81a2da8b404888a70d4249834e7cbe9e39dcf1e8dd993",
  "number": 98324,
  "timestamp": 1439770781,
  "nonce": "0x44fd201e9a76f439",
  "difficulty": 3876475339051,
  "gasLimit": {
    "_hex": "0x2fefd8"
  },
  "gasUsed": {
    "_hex": "0xa410"
  },
  "miner": "0xA21Ba94e45f0E168dA824fC67aC9cb5Cb577a8aF",
  "extraData": "0x",
  "transactions": [
    {
      "hash": "0x14a9ae98688b598eb1de388aecb8b5b869e526fe1682147786d2eb84ce8d9cd6",
      "blockHash": "0x1bf9c556dce7713cc694b1a01ba07f348c2c755ce5bfb6d7410be99ac41c4073",
      "blockNumber": 98324,
      "transactionIndex": 0,
      "confirmations": null,
      "from": "0xD9666150A9dA92d9108198a4072970805a8B3428",
      "gasPrice": {
        "_hex": "0xd9ecd7b2c"
      },
      "gasLimit": {
        "_hex": "0x5208"
      },
      "to": "0x32Be343B94f860124dC4fEe278FDCBD38C102D88",
      "value": {
        "_hex": "0xd026573b04d88000"
      },
      "nonce": 26,
      "data": "0x",
      "r": "0x83794dc3271dad199432f00d1ab77215bbf0aa833458c260d2da2f51af91fa8f",
      "s": "0x69fdc0a088aedcecf42168a43d4c2b488a6e311893a85d874ee4111a40a7a67c",
      "v": 27,
      "creates": null,
      "raw": "0xf86c1a850d9ecd7b2c8252089432be343b94f860124dc4fee278fdcbd38c102d8888d026573b04d88000801ba083794dc3271dad199432f00d1ab77215bbf0aa833458c260d2da2f51af91fa8fa069fdc0a088aedcecf42168a43d4c2b488a6e311893a85d874ee4111a40a7a67c",
      "networkId": 0,
      "chainId": 0
    },
    {
      "hash": "0x6bddfd8bf13e7c9f96c36b5c33e9adbfe88cf27fc093a1ac5aa00d0d7084f163",
      "blockHash": "0x1bf9c556dce7713cc694b1a01ba07f348c2c755ce5bfb6d7410be99ac41c4073",
      "blockNumber": 98324,
      "transactionIndex": 1,
      "confirmations": null,
      "from": "0xFBb1b73C4f0BDa4f67dcA266ce6Ef42f520fBB98",
      "gasPrice": {
        "_hex": "0xd3bb16a47"
      },
      "gasLimit": {
        "_hex": "0x15f90"
      },
      "to": "0x2AeDF47e935C75601e9D779453F1a5F8c616bd6E",
      "value": {
        "_hex": "0x29a2241af62c0000"
      },
      "nonce": 78,
      "data": "0x",
      "r": "0x9c58b253732b3984798ec6e86de1902c87541a1989119f22500208a007b1d463",
      "s": "0x678334c4ae6cc0a8fa4e12b845d8b37cb7dfc989909592702bc344f0e3b42a0c",
      "v": 27,
      "creates": null,
      "raw": "0xf86d4e850d3bb16a4783015f90942aedf47e935c75601e9d779453f1a5f8c616bd6e8829a2241af62c0000801ba09c58b253732b3984798ec6e86de1902c87541a1989119f22500208a007b1d463a0678334c4ae6cc0a8fa4e12b845d8b37cb7dfc989909592702bc344f0e3b42a0c",
      "networkId": 0,
      "chainId": 0
    }
  ]
}