{
  "hash": "0x4b9001c9f8c9c23aaa8758813da30293c3d43b506dd768c805f1cf74bb564701",
  "parentHash": "0xca4b20f2c4f03912f8ca8b34a607d82b77e7b152d4be4b163ef823f1bde3d407",
  "number": 80294,
  "timestamp": 1439483248,
  "nonce": "0x3cc709af5e6569ba",
  "difficulty": 2379383101317,
  "gasLimit": {
    "_hex": "0x2fefd8"
  },
  "gasUsed": {
    "_hex": "0x14820"
  },
  "miner": "0x87898CE53471043FcCa0a2aF4E1dC6d8B3fCf607",
  "extraData": "0x476574682f5369626572696131392f76312e302e312d37666266393930632f6c",
  "transactions": [
    {
      "hash": "0x8d4d53453371845e71999713dc23db4e6681075f2963ea055875c22b127b2f8a",
      "blockHash": "0x4b9001c9f8c9c23aaa8758813da30293c3d43b506dd768c805f1cf74bb564701",
      "blockNumber": 80294,
      "transactionIndex": 0,
      "confirmations": null,
      "from": "0x32Be343B94f860124dC4fEe278FDCBD38C102D88",
      "gasPrice": {
        "_hex": "0xd1fd5ea91"
      },
      "gasLimit": {
        "_hex": "0x5208"
      },
      "to": "0xb794F5eA0ba39494cE839613fffBA74279579268",
      "value": {
        "_hex": "0xa968163f0a57b000000"
      },
      "nonce": 524,
      "data": "0x",
      "r": "0x2ec5ec6f49873f46d17d1364b72c5b8dff733f77743f31a7f6a96933f4e781c1",
      "s": "0x3a05cdc43217963609cce30b849f50cf24b3442d5bf864ba680135069934b8bf",
      "v": 27,
      "creates": null,
      "raw": "0xf87082020c850d1fd5ea9182520894b794f5ea0ba39494ce839613fffba742795792688a0a968163f0a57b000000801ba02ec5ec6f49873f46d17d1364b72c5b8dff733f77743f31a7f6a96933f4e781c1a03a05cdc43217963609cce30b849f50cf24b3442d5bf864ba680135069934b8bf",
      "networkId": 0,
      "chainId": 0
    },
    {
      "hash": "0x3eaef90bb2aa6c07e151b27c5f554e1223888dd78c3a986373cfc52d87fea5f1",
      "blockHash": "0x4b9001c9f8c9c23aaa8758813da30293c3d43b506dd768c805f1cf74bb564701",
      "blockNumber": 80294,
      "transactionIndex": 1,
      "confirmations": null,
      "from": "0x0D4EcC7d750180EBf4A9Df728B6669B5Bceb5E40",
      "gasPrice": {
        "_hex": "0xd1fd5ea91"
      },
      "gasLimit": {
        "_hex": "0x5208"
      },
      "to": "0x32Be343B94f860124dC4fEe278FDCBD38C102D88",
      "value": {
        "_hex": "0x4616d5648e186800"
      },
      "nonce": 1,
      "data": "0x",
      "r": "0xc9ef8bb377eb9b834ce5a18f958eb356db5d0a9d6ad4cd32eaad78c452fd9846",
      "s": "0x507c47605eeedd95e4888773ff14f2df360321f4dc07da27b595d81826e71a5d",
      "v": 28,
      "creates": null,
      "raw": "0xf86c01850d1fd5ea918252089432be343b94f860124dc4fee278fdcbd38c102d88884616d5648e186800801ca0c9ef8bb377eb9b834ce5a18f958eb356db5d0a9d6ad4cd32eaad78c452fd9846a0507c47605eeedd95e4888773ff14f2df360321f4dc07da27b595d81826e71a5d",
      "networkId": 0,
      "chainId": 0
    },
    {
      "hash": "0xb9f43b1ab818ab7c5dc1a4f085c9d4e4d09fa8844a153326293598d3e30fb1d7",
      "blockHash": "0x4b9001c9f8c9c23aaa8758813da30293c3d43b506dd768c805f1cf74bb564701",
      "blockNumber": 80294,
      "transactionIndex": 2,
      "confirmations": null,
      "from": "0x5f55BA419de3cd16AF8d066a07C517BD3a2CAa13",
      "gasPrice": {
        "_hex": "0xba43b7400"
      },
      "gasLimit": {
        "_hex": "0x5208"
      },
      "to": "0xC47Aaa860008be6f65B58c6C6E02a84e666EfE31",
      "value": {
        "_hex": "0xd026f98ea1d86000"
      },
      "nonce": 0,
      "data": "0x",
      "r": "0x09bf219b314c44b2839dad3e0319b7b69fee6cb9c40e72a2be5c35df61f50ec7",
      "s": "0x5e70273ebdf813ed0db87d9b35f80fdba3fcca8ebf6a13742c7fcb57a72a524d",
      "v": 28,
      "creates": null,
      "raw": "0xf86c80850ba43b740082520894c47aaa860008be6f65b58c6c6e02a84e666efe3188d026f98ea1d86000801ca009bf219b314c44b2839dad3e0319b7b69fee6cb9c40e72a2be5c35df61f50ec7a05e70273ebdf813ed0db87d9b35f80fdba3fcca8ebf6a13742c7fcb57a72a524d",
      "networkId": 0,
      "chainId": 0
    },
    {
      "hash": "0xc499acd4fafc14d58507870c4db8cbec1f4f336ed56781a767a9253a1653d22f",
      "blockHash": "0x4b9001c9f8c9c23aaa8758813da30293c3d43b506dd768c805f1cf74bb564701",
      "blockNumber": 80294,
      "transactionIndex": 3,
      "confirmations": null,
      "from": "0x9ECAA33FeD4620f99c626e223b5dA8796fea40e5",
      "gasPrice": {
        "_hex": "0xba43b7400"
      },
      "gasLimit": {
        "_hex": "0x5208"
      },
      "to": "0xC47Aaa860008be6f65B58c6C6E02a84e666EfE31",
      "value": {
        "_hex": "0xd003729c32176000"
      },
      "nonce": 0,
      "data": "0x",
      "r": "0x2f712ddfcde9f90897ae6d7975d0e6ef3df5c01f208b4c70e2729e142f4d1ea2",
      "s": "0x45163d329a81931b9adfb194acc69f93fd5e8fc4a1e2ab144ccfdcdbe9dde566",
      "v": 28,
      "creates": null,
      "raw": "0xf86c80850ba43b740082520894c47aaa860008be6f65b58c6c6e02a84e666efe3188d003729c32176000801ca02f712ddfcde9f90897ae6d7975d0e6ef3df5c01f208b4c70e2729e142f4d1ea2a045163d329a81931b9adfb194acc69f93fd5e8fc4a1e2ab144ccfdcdbe9dde566",
      "networkId": 0,
      "chainId": 0
    }
  ]
}