{
  "hash": "0xcb9e02503808da1a4c278503f54059d0d74af0286811f73300c8d493daed31fd",
  "parentHash": "0x0a52e379f35e2ff26508459c19e128f92b09880532ee2e7e4bb673a149546586",
  "number": 92131,
  "timestamp": 1439667360,
  "nonce": "0x2623868786058ed3",
  "difficulty": 3475718764302,
  "gasLimit": {
    "_hex": "0x2fefd8"
  },
  "gasUsed": {
    "_hex": "0x5208"
  },
  "miner": "0xe6A7a1d47ff21B6321162AEA7C6CB457D5476Bca",
  "extraData": "0x476574682f76312e302e312d38326566323666362f6c696e75782f676f312e34",
  "transactions": [
    {
      "hash": "0x62f390ab6d931fa4026a650b55bc03c01e4b6033318f60b65586607e9d695ac0",
      "blockHash": "0xcb9e02503808da1a4c278503f54059d0d74af0286811f73300c8d493daed31fd",
      "blockNumber": 92131,
      "transactionIndex": 0,
      "confirmations": null,
      "from": "0xbe83F51A8ae2b31E67dd9Ec9E6c457Bf427Ed636",
      "gasPrice": {
        "_hex": "0xba43b7400"
      },
      "gasLimit": {
        "_hex": "0x5208"
      },
      "to": "0xC47Aaa860008be6f65B58c6C6E02a84e666EfE31",
      "value": {
        "_hex": "0xe0082adea216000"
      },
      "nonce": 0,
      "data": "0x",
      "r": "0xd1cb6c24376b738e24e5d030885d5f64a9670a1e4525113274ca83551f076fc6",
      "s": "0x51a268ae085e4e6ec1c7a87cda77274e07a1d8ba1e99a9f1f04a79d749341332",
      "v": 27,
      "creates": null,
      "raw": "0xf86c80850ba43b740082520894c47aaa860008be6f65b58c6c6e02a84e666efe31880e0082adea216000801ba0d1cb6c24376b738e24e5d030885d5f64a9670a1e4525113274ca83551f076fc6a051a268ae085e4e6ec1c7a87cda77274e07a1d8ba1e99a9f1f04a79d749341332",
      "networkId": 0,
      "chainId": 0
    }
  ]
}