{
  "hash": "0x728aa68f602dd03c16c2024a4a2e1498e6f198c70b9ad32f21583913e06779bd",
  "parentHash": "0x53699d79f4be508b9f6a7aac375d06b17c91c4d8a493f828e43ab87d02bef200",
  "number": 51679,
  "timestamp": 1439009001,
  "nonce": "0x0ac27eba49998e54",
  "difficulty": 1557382145345,
  "gasLimit": {
    "_hex": "0xce5c2"
  },
  "gasUsed": {
    "_hex": "0x5208"
  },
  "miner": "0x9677f39Dc9F3A6ED82C3057a3C3c3bf35b21E32a",
  "extraData": "0x476574682f76312e302e312f77696e646f77732f676f312e342e32",
  "transactions": [
    {
      "hash": "0x35a44ebc30115eef63faddf1b139156e09cec3519b3d993b959b17fe4a065a6d",
      "blockHash": "0x728aa68f602dd03c16c2024a4a2e1498e6f198c70b9ad32f21583913e06779bd",
      "blockNumber": 51679,
      "transactionIndex": 0,
      "confirmations": null,
      "from": "0xdD81AaddCc8448A5fC0ac28DB93ec6801C21E8Ef",
      "gasPrice": {
        "_hex": "0xd275f2999"
      },
      "gasLimit": {
        "_hex": "0x5208"
      },
      "to": "0x32Be343B94f860124dC4fEe278FDCBD38C102D88",
      "value": {
        "_hex": "0x1158a042479bef000"
      },
      "nonce": 0,
      "data": "0x",
      "r": "0xf6c2293d9b082a3024ea3f306dba88c005a5a40d185e55083d48109cb082c6ee",
      "s": "0x573436aca8d426aa2f1edcd6e02d4f7511b28020f24c6987195a6135c4b87324",
      "v": 27,
      "creates": null,
      "raw": "0xf86d80850d275f29998252089432be343b94f860124dc4fee278fdcbd38c102d888901158a042479bef000801ba0f6c2293d9b082a3024ea3f306dba88c005a5a40d185e55083d48109cb082c6eea0573436aca8d426aa2f1edcd6e02d4f7511b28020f24c6987195a6135c4b87324",
      "networkId": 0,
      "chainId": 0
    }
  ]
}