{
  "hash": "0x89fedab22eb5c49f794cdb5fb4112afe1b0850ef1597fe346876d827c2e764db",
  "parentHash": "0xddc9ce3e36393fbdb8ccb0c321263fdc062ac04c7e1d71979d722fb0d84045a7",
  "number": 114073,
  "timestamp": 1440034467,
  "nonce": "0x7d20123b94cd5fc6",
  "difficulty": 4442567612428,
  "gasLimit": {
    "_hex": "0x2fefd8"
  },
  "gasUsed": {
    "_hex": "0x53e4"
  },
  "miner": "0x74fE33D5E3bed2C734685d3DA78110F9D7D3580B",
  "extraData": "0xd783010001844765746887676f312e342e32856c696e7578",
  "transactions": [
    {
      "hash": "0x514affcc600de66aee5822708f409b9d854a744cc6dc182bcf82c5a5a00cd610",
      "blockHash": "0x89fedab22eb5c49f794cdb5fb4112afe1b0850ef1597fe346876d827c2e764db",
      "blockNumber": 114073,
      "transactionIndex": 0,
      "confirmations": null,
      "from": "0x0a3DE155d5Ecd8E81C1Ff9BBF0378301f8d4C623",
      "gasPrice": {
        "_hex": "0xba43b7400"
      },
      "gasLimit": {
        "_hex": "0x55f0"
      },
      "to": "0x3cc517F003Fd4b5C22975FEb2DB7e73e6d830bc8",
      "value": {
        "_hex": "0xf67831e74af0000"
      },
      "nonce": 9,
      "data": "0x676f617447656e",
      "r": "0x271d703518a626a44d123872b103c3b7e68e0bf76352014489ab5d2770031a56",
      "s": "0x3a6938c79100d8331266fa570c8e5e3efc6605bc13a73fbac7a70e48b531e719",
      "v": 28,
      "creates": null,
      "raw": "0xf87309850ba43b74008255f0943cc517f003fd4b5c22975feb2db7e73e6d830bc8880f67831e74af000087676f617447656e1ca0271d703518a626a44d123872b103c3b7e68e0bf76352014489ab5d2770031a56a03a6938c79100d8331266fa570c8e5e3efc6605bc13a73fbac7a70e48b531e719",
      "networkId": 0,
      "chainId": 0
    }
  ]
}