{
  "hash": "0xc8fbf604df961dc87d6e44848034897e588f5e0dfa3af1914974f66dc034c816",
  "parentHash": "0x43d6ce3461650a4a441d844928f8ade261343f767bac13839f22ec0092a2fffb",
  "number": 53426,
  "timestamp": 1439037419,
  "nonce": "0x33fdd2573cceec1d",
  "difficulty": 1591649180349,
  "gasLimit": {
    "_hex": "0x27df36"
  },
  "gasUsed": {
    "_hex": "0x5208"
  },
  "miner": "0x55bAf64fc9eAccFFd7Cc643BB61142E1C6ac093e",
  "extraData": "0x",
  "transactions": [
    {
      "hash": "0x693cbd1f8fa712149bcb8d96f04320f555270c4e09a7bf9c9a8f5a21a5244870",
      "blockHash": "0xc8fbf604df961dc87d6e44848034897e588f5e0dfa3af1914974f66dc034c816",
      "blockNumber": 53426,
      "transactionIndex": 0,
      "confirmations": null,
      "from": "0xdB04fAd9C49F9E880beb8FCF1D3A3890e4b3846F",
      "gasPrice": {
        "_hex": "0x1065cd73879"
      },
      "gasLimit": {
        "_hex": "0x15f90"
      },
      "to": "0x903B6c16aC1f01D4a2E42e6AE5950c91e4391ed2",
      "value": {
        "_hex": "0xad78ebc5ac6200000"
      },
      "nonce": 2,
      "data": "0x",
      "r": "0x2b6f9003a39a0bdbd26219778ade784f459a2399e39a121d4cd477000b39124f",
      "s": "0x74a32683ed4396260fbb1ecaae8cfcab1f4f998b19522b6c3726d2f38e1de7f0",
      "v": 28,
      "creates": null,
      "raw": "0xf86f028601065cd7387983015f9094903b6c16ac1f01d4a2e42e6ae5950c91e4391ed2890ad78ebc5ac6200000801ca02b6f9003a39a0bdbd26219778ade784f459a2399e39a121d4cd477000b39124fa074a32683ed4396260fbb1ecaae8cfcab1f4f998b19522b6c3726d2f38e1de7f0",
      "networkId": 0,
      "chainId": 0
    }
  ]
}