{
  "hash": "0x9f88441f3d3ae10a790ac1bf7f1cb356795995e4bf286f12d0afe616ab4e6cd9",
  "parentHash": "0x43c64c3fea8d2099cb9d0b1ef6ba4ceecf59065db115d130b965cf94efe9cb90",
  "number": 79517,
  "timestamp": 1439470962,
  "nonce": "0xab5b7a70197f1b1b",
  "difficulty": 2341567544876,
  "gasLimit": {
    "_hex": "0x2fefd8"
  },
  "gasUsed": {
    "_hex": "0x546c"
  },
  "miner": "0x88D74a59454F6cF3B51ef6b9136AFb6b9D405A88",
  "extraData": "0x476574682f76312e302e312d38326566323666362f6c696e75782f676f312e34",
  "transactions": [
    {
      "hash": "0xe206024854217e0a608fff374df66e989dcbd013d92d3f4f68b4f8b29bcfe6c3",
      "blockHash": "0x9f88441f3d3ae10a790ac1bf7f1cb356795995e4bf286f12d0afe616ab4e6cd9",
      "blockNumber": 79517,
      "transactionIndex": 0,
      "confirmations": null,
      "from": "0x271e8fC01E1C9E1621fD3d108e348450b2498541",
      "gasPrice": {
        "_hex": "0xd69b48315"
      },
      "gasLimit": {
        "_hex": "0x55f0"
      },
      "to": "0x65B3d2B5Ae9509D36126cd6db6BF5950C5A6F2FE",
      "value": {
        "_hex": "0xde0b6b3a7640000"
      },
      "nonce": 10,
      "data": "0x454e30334b52455730",
      "r": "0xd92f23aa24a2cb98641d693b96a5ccb0ab5b0ba07c2b38e7df6329dff5406dfe",
      "s": "0x0f7bc0b1fd44effa8e77d868d74e855efe36f5430f855b2175826fc3822de593",
      "v": 28,
      "creates": null,
      "raw": "0xf8750a850d69b483158255f09465b3d2b5ae9509d36126cd6db6bf5950c5a6f2fe880de0b6b3a764000089454e30334b524557301ca0d92f23aa24a2cb98641d693b96a5ccb0ab5b0ba07c2b38e7df6329dff5406dfea00f7bc0b1fd44effa8e77d868d74e855efe36f5430f855b2175826fc3822de593",
      "networkId": 0,
      "chainId": 0
    }
  ]
}