{
  "hash": "0xde544129fd1fe13a8cd8d273d44fb3557df60971c8a3c847a22c1a6e1b9d7a52",
  "parentHash": "0x8df780baccc368054e201e3ec5c005d538046effc4d7cde3c91d47388453494f",
  "number": 76044,
  "timestamp": 1439413869,
  "nonce": "0x325b8624610a1a01",
  "difficulty": 2247302707609,
  "gasLimit": {
    "_hex": "0x2fefd8"
  },
  "gasUsed": {
    "_hex": "0x5208"
  },
  "miner": "0xe6A7a1d47ff21B6321162AEA7C6CB457D5476Bca",
  "extraData": "0x476574682f76312e302e312d38326566323666362f6c696e75782f676f312e34",
  "transactions": [
    {
      "hash": "0xddba35165a1b971b9c449095328b9a3c23322c9c2b12ceaa6cca21eeceb4a122",
      "blockHash": "0xde544129fd1fe13a8cd8d273d44fb3557df60971c8a3c847a22c1a6e1b9d7a52",
      "blockNumber": 76044,
      "transactionIndex": 0,
      "confirmations": null,
      "from": "0x120A270bbC009644e35F0bB6ab13f95b8199c4ad",
      "gasPrice": {
        "_hex": "0xdb4fbd522"
      },
      "gasLimit": {
        "_hex": "0x3d090"
      },
      "to": "0x797e99024A03481AD2a00ffe9c98Fe145c817969",
      "value": {
        "_hex": "0x1c70ef325a8a6c00"
      },
      "nonce": 304,
      "data": "0x",
      "r": "0x25ee4e502207b7eba98df4f38fb1d2df86d8e53dd3a5aaba666ab56c84f60584",
      "s": "0x0ff44ad7adb9fad4d993b0f514ed544756a8d26258084b53236cd4781e5faa2b",
      "v": 28,
      "creates": null,
      "raw": "0xf86f820130850db4fbd5228303d09094797e99024a03481ad2a00ffe9c98fe145c817969881c70ef325a8a6c00801ca025ee4e502207b7eba98df4f38fb1d2df86d8e53dd3a5aaba666ab56c84f60584a00ff44ad7adb9fad4d993b0f514ed544756a8d26258084b53236cd4781e5faa2b",
      "networkId": 0,
      "chainId": 0
    }
  ]
}