{
  "hash": "0xc8ba6016372022f1dcdb6ed6028212269f5bbdb862c1a6baa361e987b788ee1c",
  "parentHash": "0xdfcc97fd286628300b0d6394bf80119fabf15bbd8f8bae382bcebc6ea525b0b8",
  "number": 100928,
  "timestamp": 1439814766,
  "nonce": "0x7881e864f5d3efc1",
  "difficulty": 3848871405663,
  "gasLimit": {
    "_hex": "0x2fefd8"
  },
  "gasUsed": {
    "_hex": "0x5208"
  },
  "miner": "0x5F8F73E26CdF436f19Cb24C82F90A15AFe55b592",
  "extraData": "0x476574682f76312e302e312f77696e646f77732f676f312e342e32",
  "transactions": [
    {
      "hash": "0x62ce619ceeac62b90fdaa96ebd45417ecafcd40b6fa6931567662fb304ef13a2",
      "blockHash": "0xc8ba6016372022f1dcdb6ed6028212269f5bbdb862c1a6baa361e987b788ee1c",
      "blockNumber": 100928,
      "transactionIndex": 0,
      "confirmations": null,
      "from": "0x7884D470204862a0d1A21122F41ee77430396Ee5",
      "gasPrice": {
        "_hex": "0xd20cb34b2"
      },
      "gasLimit": {
        "_hex": "0x15f90"
      },
      "to": "0x8e47320b08b9eCc4026D03a027a3B59A48e2980D",
      "value": {
        "_hex": "0x8e1bc9bf040000"
      },
      "nonce": 76,
      "data": "0x",
      "r": "0x3f06f9340bbd6be7de492367aa552556cef90b960853ca66ff8037a8cd608c7b",
      "s": "0x6afed66cbd155e84f9293a0a9b550aa3f2afff662309b9f8a27ffccbd0d228be",
      "v": 28,
      "creates": null,
      "raw": "0xf86c4c850d20cb34b283015f90948e47320b08b9ecc4026d03a027a3b59a48e2980d878e1bc9bf040000801ca03f06f9340bbd6be7de492367aa552556cef90b960853ca66ff8037a8cd608c7ba06afed66cbd155e84f9293a0a9b550aa3f2afff662309b9f8a27ffccbd0d228be",
      "networkId": 0,
      "chainId": 0
    }
  ]
}