{
  "hash": "0x7999fa489f3c537a7aab233b240c4d1cbb898243c8a859e2f0e2ed68cfe6a314",
  "parentHash": "0x0ed05a065f3bcf8595faa28165475023650106c964b153f9d845051137faccbf",
  "number": 105328,
  "timestamp": 1439885639,
  "nonce": "0xe124e27205d843ff",
  "difficulty": 4363314676736,
  "gasLimit": {
    "_hex": "0x2fefd8"
  },
  "gasUsed": {
    "_hex": "0xe6b68"
  },
  "miner": "0xf8E0CA3Ed80bd541b94BEdCf259e8CF2141A9523",
  "extraData": "0x476574682f76312e302e312f77696e646f77732f676f312e342e32",
  "transactions": [
    {
      "hash": "0x1ae6c2fc14bed7e43a85f4b0c5567cc6b60f789430dcf9aef6028b0be2ee8d41",
      "blockHash": "0x7999fa489f3c537a7aab233b240c4d1cbb898243c8a859e2f0e2ed68cfe6a314",
      "blockNumber": 105328,
      "transactionIndex": 0,
      "confirmations": null,
      "from": "0x315260950914163880F3AD5A7FEEC87407fa4868",
      "gasPrice": {
        "_hex": "0xdf625cec0"
      },
      "gasLimit": {
        "_hex": "0x5208"
      },
      "to": "0x32Be343B94f860124dC4fEe278FDCBD38C102D88",
      "value": {
        "_hex": "0x1e48bbf73c0ff400"
      },
      "nonce": 6,
      "data": "0x",
      "r": "0x0d2587d2f0e3f869dd08f0be47a365cf0949c75a1673d9aa0101fa333f68aa14",
      "s": "0x10be3888948817f3b34aa1e250193c03eab44bef313af7babdadb965c61fbd1c",
      "v": 28,
      "creates": null,
      "raw": "0xf86c06850df625cec08252089432be343b94f860124dc4fee278fdcbd38c102d88881e48bbf73c0ff400801ca00d2587d2f0e3f869dd08f0be47a365cf0949c75a1673d9aa0101fa333f68aa14a010be3888948817f3b34aa1e250193c03eab44bef313af7babdadb965c61fbd1c",
      "networkId": 0,
      "chainId": 0
    },
    {
      "hash": "0xf997461f45bd710f0c9166209b3d22be8692be2df2bee7f6e35cf76e843553c7",
      "blockHash": "0x7999fa489f3c537a7aab233b240c4d1cbb898243c8a859e2f0e2ed68cfe6a314",
      "blockNumber": 105328,
      "transactionIndex": 1,
      "confirmations": null,
      "from": "0x3D1d22d2A05a3E9b3792561f2FF5f8D879352d6c",
      "gasPrice": {
        "_hex": "0xdf625cec0"
      },
      "gasLimit": {
        "_hex": "0x5208"
      },
      "to": "0x32Be343B94f860124dC4fEe278FDCBD38C102D88",
      "value": {
        "_hex": "0x13c0b5941d462400"
      },
      "nonce": 5,
      "data": "0x",
      "r": "0x5dbc77cb1f7c26ab8303c039a257e30cef31a6b8b6840ae1b84eb06e69d179ea",
      "s": "0x7a0d65ad8a4dc336d243efe04a613a12484d8b9db0c34927a569c28fc3f7f2f2",
      "v": 27,
      "creates": null,
      "raw": "0xf86c05850df625cec08252089432be343b94f860124dc4fee278fdcbd38c102d888813c0b5941d462400801ba05dbc77cb1f7c26ab8303c039a257e30cef31a6b8b6840ae1b84eb06e69d179eaa07a0d65ad8a4dc336d243efe04a613a12484d8b9db0c34927a569c28fc3f7f2f2",
      "networkId": 0,
      "chainId": 0
    },
    {
      "hash": "0xa9cc866b5ab66fee949838aa8a6881f1b937da0838a99e5a0c4f6c7b8df9b67a",
      "blockHash": "0x7999fa489f3c537a7aab233b240c4d1cbb898243c8a859e2f0e2ed68cfe6a314",
      "blockNumber": 105328,
      "transactionIndex": 2,
      "confirmations": null,
      "from": "0xe6A7a1d47ff21B6321162AEA7C6CB457D5476Bca",
      "gasPrice": {
        "_hex": "0xda3cc9a3f"
      },
      "gasLimit": {
        "_hex": "0x55f0"
      },
      "to": "0x0eDEd3DA479d0beF8eeC92A76644D3f4E3C177f7",
      "value": {
        "_hex": "0x5ea5a3c113476590"
      },
      "nonce": 3807,
      "data": "0x",
      "r": "0xdb67412541de61d14f22c155fbfb803a5e337efecf12b5be0417014f86a83275",
      "s": "0x5d2daf3543902fb2e40757f398215b434b46c56c728a1fe1731d36a36ef5b764",
      "v": 28,
      "creates": null,
      "raw": "0xf86e820edf850da3cc9a3f8255f0940eded3da479d0bef8eec92a76644d3f4e3c177f7885ea5a3c113476590801ca0db67412541de61d14f22c155fbfb803a5e337efecf12b5be0417014f86a83275a05d2daf3543902fb2e40757f398215b434b46c56c728a1fe1731d36a36ef5b764",
      "networkId": 0,
      "chainId": 0
    },
    {
      "hash": "0x34daae0c85c226d6a969e0007a44f66bffeb59720ca46d62ade8725ebab11d63",
      "blockHash": "0x7999fa489f3c537a7aab233b240c4d1cbb898243c8a859e2f0e2ed68cfe6a314",
      "blockNumber": 105328,
      "transactionIndex": 3,
      "confirmations": null,
      "from": "0xe6A7a1d47ff21B6321162AEA7C6CB457D5476Bca",
      "gasPrice": {
        "_hex": "0xda3cc9a3f"
      },
      "gasLimit": {
        "_hex": "0x55f0"
      },
      "to": "0x4369BF4867c99a39513Bb176d468A7e326F3a542",
      "value": {
        "_hex": "0x5f715fb79d22af80"
      },
      "nonce": 3808,
      "data": "0x",
      "r": "0xd0e6645334e5679cac989b2dbdab6cc3f2dfebbacd59e70bcb8f09726b1e0c9c",
      "s": "0x32322a9b68ca0269402e8b08510673bab0e0380b2006f7cb2eab293cae406b7c",
      "v": 27,
      "creates": null,
      "raw": "0xf86e820ee0850da3cc9a3f8255f0944369bf4867c99a39513bb176d468a7e326f3a542885f715fb79d22af80801ba0d0e6645334e5679cac989b2dbdab6cc3f2dfebbacd59e70bcb8f09726b1e0c9ca032322a9b68ca0269402e8b08510673bab0e0380b2006f7cb2eab293cae406b7c",
      "networkId": 0,
      "chainId": 0
    },
    {
      "hash": "0xb85360879321462458e88be0ce53487f425f135aa3790ab3130e557c7eb792bc",
      "blockHash": "0x7999fa489f3c537a7aab233b240c4d1cbb898243c8a859e2f0e2ed68cfe6a314",
      "blockNumber": 105328,
      "transactionIndex": 4,
      "confirmations": null,
      "from": "0xe6A7a1d47ff21B6321162AEA7C6CB457D5476Bca",
      "gasPrice": {
        "_hex": "0xda3cc9a3f"
      },
      "gasLimit": {
        "_hex": "0x55f0"
      },
      "to": "0xC96Bd2Aa7AcB234ecA4E38E33bF2C080e7680FA5",
      "value": {
        "_hex": "0x603f1d9b989a94a8"
      },
      "nonce": 3809,
      "data": "0x",
      "r": "0xc5f93376d91118f1ea461ef3aa8db1687d24263c53f295bfe0d673a1fc9d08c8",
      "s": "0x332323242c1c62142e976b61cd97a427d178de243044d3745932a7726903fe44",
      "v": 28,
      "creates": null,
      "raw": "0xf86e820ee1850da3cc9a3f8255f094c96bd2aa7acb234eca4e38e33bf2c080e7680fa588603f1d9b989a94a8801ca0c5f93376d91118f1ea461ef3aa8db1687d24263c53f295bfe0d673a1fc9d08c8a0332323242c1c62142e976b61cd97a427d178de243044d3745932a7726903fe44",
      "networkId": 0,
      "chainId": 0
    },
    {
      "hash": "0x1e8b5738397fbd5d8af1bbbb63e650036e89c631093621eca6d16e9d90d6d3c7",
      "blockHash": "0x7999fa489f3c537a7aab233b240c4d1cbb898243c8a859e2f0e2ed68cfe6a314",
      "blockNumber": 105328,
      "transactionIndex": 5,
      "confirmations": null,
      "from": "0xe6A7a1d47ff21B6321162AEA7C6CB457D5476Bca",
      "gasPrice": {
        "_hex": "0xda3cc9a3f"
      },
      "gasLimit": {
        "_hex": "0x55f0"
      },
      "to": "0x519DC97eF09491aE962A8F13fe144c71feca4662",
      "value": {
        "_hex": "0x60e35d67616a4d60"
      },
      "nonce": 3810,
      "data": "0x",
      "r": "0x8465655d825c9ae7fd22aaca5f25b6c9b0bddf5ed32629d2fc23d94632ad184c",
      "s": "0x34396527e02f6e8e7b3f33fc1f34bb31fd6de34059c9d516fa439b38032278b2",
      "v": 28,
      "creates": null,
      "raw": "0xf86e820ee2850da3cc9a3f8255f094519dc97ef09491ae962a8f13fe144c71feca46628860e35d67616a4d60801ca08465655d825c9ae7fd22aaca5f25b6c9b0bddf5ed32629d2fc23d94632ad184ca034396527e02f6e8e7b3f33fc1f34bb31fd6de34059c9d516fa439b38032278b2",
      "networkId": 0,
      "chainId": 0
    },
    {
      "hash": "0xcd9739bde6379fc0ed53575479f8dedb4672e7372215061b2352810c9cf78492",
      "blockHash": "0x7999fa489f3c537a7aab233b240c4d1cbb898243c8a859e2f0e2ed68cfe6a314",
      "blockNumber": 105328,
      "transactionIndex": 6,
      "confirmations": null,
      "from": "0xe6A7a1d47ff21B6321162AEA7C6CB457D5476Bca",
      "gasPrice": {
        "_hex": "0xda3cc9a3f"
      },
      "gasLimit": {
        "_hex": "0x55f0"
      },
      "to": "0x72dcecdD4a7374231676f7fA910A678DfC7c98D6",
      "value": {
        "_hex": "0x612354d048ff3ba0"
      },
      "nonce": 3811,
      "data": "0x",
      "r": "0x60c267ce52d512b54d5a09aff9427ae13ce3a892223e009388029a90c4a3c718",
      "s": "0x45a13eecb6bdead2e6339659f758428317bb56aaf136d5f625d90a4677257bc6",
      "v": 27,
      "creates": null,
      "raw": "0xf86e820ee3850da3cc9a3f8255f09472dcecdd4a7374231676f7fa910a678dfc7c98d688612354d048ff3ba0801ba060c267ce52d512b54d5a09aff9427ae13ce3a892223e009388029a90c4a3c718a045a13eecb6bdead2e6339659f758428317bb56aaf136d5f625d90a4677257bc6",
      "networkId": 0,
      "chainId": 0
    },
    {
      "hash": "0x77d3e38b8c7c8c9c2295ffbed55a6758a1ed70f77b3bfc92cac432dfd452a9b7",
      "blockHash": "0x7999fa489f3c537a7aab233b240c4d1cbb898243c8a859e2f0e2ed68cfe6a314",
      "blockNumber": 105328,
      "transactionIndex": 7,
      "confirmations": null,
      "from": "0xe6A7a1d47ff21B6321162AEA7C6CB457D5476Bca",
      "gasPrice": {
        "_hex": "0xda3cc9a3f"
      },
      "gasLimit": {
        "_hex": "0x55f0"
      },
      "to": "0xa28F8098A723e4ca02E9f4512410C519a252c1a9",
      "value": {
        "_hex": "0x614f23cd661a92c8"
      },
      "nonce": 3812,
      "data": "0x",
      "r": "0x92a993210f520518564ac788e1e86854815893b53dc73d991f70d4756cda2745",
      "s": "0x3a6e4f63b5fcb41dc32d19e1245d9de66dceff428d7bede46c7c204f81fa6bb1",
      "v": 27,
      "creates": null,
      "raw": "0xf86e820ee4850da3cc9a3f8255f094a28f8098a723e4ca02e9f4512410c519a252c1a988614f23cd661a92c8801ba092a993210f520518564ac788e1e86854815893b53dc73d991f70d4756cda2745a03a6e4f63b5fcb41dc32d19e1245d9de66dceff428d7bede46c7c204f81fa6bb1",
      "networkId": 0,
      "chainId": 0
    },
    {
      "hash": "0xf67721fad85902e8a89ee3b02729c8d096a30a2b57077531a01b06e3d6f954bb",
      "blockHash": "0x7999fa489f3c537a7aab233b240c4d1cbb898243c8a859e2f0e2ed68cfe6a314",
      "blockNumber": 105328,
      "transactionIndex": 8,
      "confirmations": null,
      "from": "0xe6A7a1d47ff21B6321162AEA7C6CB457D5476Bca",
      "gasPrice": {
        "_hex": "0xda3cc9a3f"
      },
      "gasLimit": {
        "_hex": "0x55f0"
      },
      "to": "0xb7B3690EFa6b3f08D4EC289fF655C4b7bb15EE39",
      "value": {
        "_hex": "0x61ab51d24fd21510"
      },
      "nonce": 3813,
      "data": "0x",
      "r": "0xcecb163c75079774be61a5d03ab18742534951d1d986d06ba8814e117089fbd5",
      "s": "0x48db0d1bf3e0fa53b5ad589822587183910b04ccca724b230b088e84a22a582c",
      "v": 28,
      "creates": null,
      "raw": "0xf86e820ee5850da3cc9a3f8255f094b7b3690efa6b3f08d4ec289ff655c4b7bb15ee398861ab51d24fd21510801ca0cecb163c75079774be61a5d03ab18742534951d1d986d06ba8814e117089fbd5a048db0d1bf3e0fa53b5ad589822587183910b04ccca724b230b088e84a22a582c",
      "networkId": 0,
      "chainId": 0
    },
    {
      "hash": "0x161a8084905ad3d3cbbdc20d830c8503064eba1f6737641e63f7a5688e269e46",
      "blockHash": "0x7999fa489f3c537a7aab233b240c4d1cbb898243c8a859e2f0e2ed68cfe6a314",
      "blockNumber": 105328,
      "transactionIndex": 9,
      "confirmations": null,
      "from": "0xe6A7a1d47ff21B6321162AEA7C6CB457D5476Bca",
      "gasPrice": {
        "_hex": "0xda3cc9a3f"
      },
      "gasLimit": {
        "_hex": "0x55f0"
      },
      "to": "0x0Bce1f08Ac26719f94701275c8cAfF71f7D27AAC",
      "value": {
        "_hex": "0x62cd7f5ca9a6b9a8"
      },
      "nonce": 3814,
      "data": "0x",
      "r": "0x81d55f98e9cff22930560b7648e6865a45c7002c6bba9575476aebd13fed41ad",
      "s": "0x3970d89c4f0b73f708768b08e5508265c0fb8490c1c01782c76547ba8541ca94",
      "v": 27,
      "creates": null,
      "raw": "0xf86e820ee6850da3cc9a3f8255f0940bce1f08ac26719f94701275c8caff71f7d27aac8862cd7f5ca9a6b9a8801ba081d55f98e9cff22930560b7648e6865a45c7002c6bba9575476aebd13fed41ada03970d89c4f0b73f708768b08e5508265c0fb8490c1c01782c76547ba8541ca94",
      "networkId": 0,
      "chainId": 0
    },
    {
      "hash": "0xd8647645f951b5b15f052952e2353c8b00803a289a80c99567fab4eb26cf1386",
      "blockHash": "0x7999fa489f3c537a7aab233b240c4d1cbb898243c8a859e2f0e2ed68cfe6a314",
      "blockNumber": 105328,
      "transactionIndex": 10,
      "confirmations": null,
      "from": "0xe6A7a1d47ff21B6321162AEA7C6CB457D5476Bca",
      "gasPrice": {
        "_hex": "0xda3cc9a3f"
      },
      "gasLimit": {
        "_hex": "0x55f0"
      },
      "to": "0x3175a28CF6105466923f11bFFabD279F162aa2f8",
      "value": {
        "_hex": "0x639f1811fd6a5d68"
      },
      "nonce": 3815,
      "data": "0x",
      "r": "0x917d25327fbe602886a05a741203f5b6ef93f0ff45f69124089d7e20743443b1",
      "s": "0x31dd0edeb6b5a1f8f28e65a2fe3806e54b894c30a30cf85793eed719733798ce",
      "v": 27,
      "creates": null,
      "raw": "0xf86e820ee7850da3cc9a3f8255f0943175a28cf6105466923f11bffabd279f162aa2f888639f1811fd6a5d68801ba0917d25327fbe602886a05a741203f5b6ef93f0ff45f69124089d7e20743443b1a031dd0edeb6b5a1f8f28e65a2fe3806e54b894c30a30cf85793eed719733798ce",
      "networkId": 0,
      "chainId": 0
    },
    {
      "hash": "0x15266cfe3720ca153d5ec6312e1e3580669776390b4f25f94d6885c142ab3894",
      "blockHash": "0x7999fa489f3c537a7aab233b240c4d1cbb898243c8a859e2f0e2ed68cfe6a314",
      "blockNumber": 105328,
      "transactionIndex": 11,
      "confirmations": null,
      "from": "0xe6A7a1d47ff21B6321162AEA7C6CB457D5476Bca",
      "gasPrice": {
        "_hex": "0xda3cc9a3f"
      },
      "gasLimit": {
        "_hex": "0x55f0"
      },
      "to": "0xb4eb03c9bDD4944DE22085E8e1dB5Ebd36889Bd8",
      "value": {
        "_hex": "0x65781c2fe89644b8"
      },
      "nonce": 3816,
      "data": "0x",
      "r": "0xb82acedc0b69aa989cbbcf133752a9506c0da9333b777fb1f9f2737af11b9233",
      "s": "0x2d9b39349148d9624c1bd83a27d24c7a280f207fd65fcc4380acc7231294bab3",
      "v": 28,
      "creates": null,
      "raw": "0xf86e820ee8850da3cc9a3f8255f094b4eb03c9bdd4944de22085e8e1db5ebd36889bd88865781c2fe89644b8801ca0b82acedc0b69aa989cbbcf133752a9506c0da9333b777fb1f9f2737af11b9233a02d9b39349148d9624c1bd83a27d24c7a280f207fd65fcc4380acc7231294bab3",
      "networkId": 0,
      "chainId": 0
    },
    {
      "hash": "0xf019e50c78c8fa810dc6c02c29355c22e081ae456315fbe47f8ebdb0603afec1",
      "blockHash": "0x7999fa489f3c537a7aab233b240c4d1cbb898243c8a859e2f0e2ed68cfe6a314",
      "blockNumber": 105328,
      "transactionIndex": 12,
      "confirmations": null,
      "from": "0xe6A7a1d47ff21B6321162AEA7C6CB457D5476Bca",
      "gasPrice": {
        "_hex": "0xda3cc9a3f"
      },
      "gasLimit": {
        "_hex": "0x55f0"
      },
      "to": "0xDdaCBcba2a4fe9313F7CCA044872A9c51bD1E4c8",
      "value": {
        "_hex": "0x65efdf427ae7c6f0"
      },
      "nonce": 3817,
      "data": "0x",
      "r": "0x8e27523b327cf6ba39a0f21875abadcc3d4a31d983982739a048f946243d5b28",
      "s": "0x2f3f9e9b34bcf29fdcb3a7a2ae791c8581f4f36358c9fd0350d1a2f9dd777e55",
      "v": 27,
      "creates": null,
      "raw": "0xf86e820ee9850da3cc9a3f8255f094ddacbcba2a4fe9313f7cca044872a9c51bd1e4c88865efdf427ae7c6f0801ba08e27523b327cf6ba39a0f21875abadcc3d4a31d983982739a048f946243d5b28a02f3f9e9b34bcf29fdcb3a7a2ae791c8581f4f36358c9fd0350d1a2f9dd777e55",
      "networkId": 0,
      "chainId": 0
    },
    {
      "hash": "0xa12b979b51a2ecc6271e9f8b78d36894ef541c10f8789febcc6fb83700d543c8",
      "blockHash": "0x7999fa489f3c537a7aab233b240c4d1cbb898243c8a859e2f0e2ed68cfe6a314",
      "blockNumber": 105328,
      "transactionIndex": 13,
      "confirmations": null,
      "from": "0xe6A7a1d47ff21B6321162AEA7C6CB457D5476Bca",
      "gasPrice": {
        "_hex": "0xda3cc9a3f"
      },
      "gasLimit": {
        "_hex": "0x55f0"
      },
      "to": "0xbb30e448B72d6Fdd44973A4C7a312F92f22C8F07",
      "value": {
        "_hex": "0x6740120e094fd3c0"
      },
      "nonce": 3818,
      "data": "0x",
      "r": "0x7f77f2704c844db5d1a1df42589469fa1fba8d15ca0f1fc75ea55ecc19d0c569",
      "s": "0x454ff97bc3c5ea2fe500461ed31a521c05c8eb48093499fe4e00368d2363e3c2",
      "v": 27,
      "creates": null,
      "raw": "0xf86e820eea850da3cc9a3f8255f094bb30e448b72d6fdd44973a4c7a312f92f22c8f07886740120e094fd3c0801ba07f77f2704c844db5d1a1df42589469fa1fba8d15ca0f1fc75ea55ecc19d0c569a0454ff97bc3c5ea2fe500461ed31a521c05c8eb48093499fe4e00368d2363e3c2",
      "networkId": 0,
      "chainId": 0
    },
    {
      "hash": "0xe3b1bd6f559384ba08b4e6b484ac5d38816e2c3cf7453d03b6be55e971b757f1",
      "blockHash": "0x7999fa489f3c537a7aab233b240c4d1cbb898243c8a859e2f0e2ed68cfe6a314",
      "blockNumber": 105328,
      "transactionIndex": 14,
      "confirmations": null,
      "from": "0xe6A7a1d47ff21B6321162AEA7C6CB457D5476Bca",
      "gasPrice": {
        "_hex": "0xda3cc9a3f"
      },
      "gasLimit": {
        "_hex": "0x55f0"
      },
      "to": "0xf295fEAdD38E108Dfb2C5f327160141A69aAd43b",
      "value": {
        "_hex": "0x679bc67ac5a47bd0"
      },
      "nonce": 3819,
      "data": "0x",
      "r": "0x0fd7f3616b5607e8baae2494b8e2d7c7f19ba1075b0b96e09688efa08fa7b82f",
      "s": "0x1330f67d7c8bca6d840c52201bb093751879b8385f9a9ee043d6c566c753edc4",
      "v": 27,
      "creates": null,
      "raw": "0xf86e820eeb850da3cc9a3f8255f094f295feadd38e108dfb2c5f327160141a69aad43b88679bc67ac5a47bd0801ba00fd7f3616b5607e8baae2494b8e2d7c7f19ba1075b0b96e09688efa08fa7b82fa01330f67d7c8bca6d840c52201bb093751879b8385f9a9ee043d6c566c753edc4",
      "networkId": 0,
      "chainId": 0
    },
    {
      "hash": "0x4d253ce6467a7c173ce705516a94de6bd72165d955379822d94835cb115e5901",
      "blockHash": "0x7999fa489f3c537a7aab233b240c4d1cbb898243c8a859e2f0e2ed68cfe6a314",
      "blockNumber": 105328,
      "transactionIndex": 15,
      "confirmations": null,
      "from": "0xe6A7a1d47ff21B6321162AEA7C6CB457D5476Bca",
      "gasPrice": {
        "_hex": "0xda3cc9a3f"
      },
      "gasLimit": {
        "_hex": "0x55f0"
      },
      "to": "0x4F68024B7CEB5ca92e7308BD08e523c632C0c739",
      "value": {
        "_hex": "0x68cc5774ad811948"
      },
      "nonce": 3820,
      "data": "0x",
      "r": "0x568745c46ffd550403b420e189a5e6d3f7c8ad00977759b5d71c15a320044f79",
      "s": "0x2ea326e9e9d05cd9c85bd2ac601e6022d36e0fa15d4d7c9bf9709441faec7302",
      "v": 27,
      "creates": null,
      "raw": "0xf86e820eec850da3cc9a3f8255f0944f68024b7ceb5ca92e7308bd08e523c632c0c7398868cc5774ad811948801ba0568745c46ffd550403b420e189a5e6d3f7c8ad00977759b5d71c15a320044f79a02ea326e9e9d05cd9c85bd2ac601e6022d36e0fa15d4d7c9bf9709441faec7302",
      "networkId": 0,
      "chainId": 0
    },
    {
      "hash": "0xae7f15e58824d5d7b09a4d2879d5a4bd304efeffb1c7906a9e9dabdfff6f8bc1",
      "blockHash": "0x7999fa489f3c537a7aab233b240c4d1cbb898243c8a859e2f0e2ed68cfe6a314",
      "blockNumber": 105328,
      "transactionIndex": 16,
      "confirmations": null,
      "from": "0xe6A7a1d47ff21B6321162AEA7C6CB457D5476Bca",
      "gasPrice": {
        "_hex": "0xda3cc9a3f"
      },
      "gasLimit": {
        "_hex": "0x55f0"
      },
      "to": "0x49DC75D11428d1D718FC7b71941B71ae6F8bfA3C",
      "value": {
        "_hex": "0x6a1fe2a25a239420"
      },
      "nonce": 3821,
      "data": "0x",
      "r": "0x412a6fcc029a9ff3a32156407566b426a46f40bde187e29a2799b7348bf02485",
      "s": "0x7da2ae029d4632f69e8f70c4c2dff1e5c5d451d6435cb7ae44c2cb1257cebd33",
      "v": 28,
      "creates": null,
      "raw": "0xf86e820eed850da3cc9a3f8255f09449dc75d11428d1d718fc7b71941b71ae6f8bfa3c886a1fe2a25a239420801ca0412a6fcc029a9ff3a32156407566b426a46f40bde187e29a2799b7348bf02485a07da2ae029d4632f69e8f70c4c2dff1e5c5d451d6435cb7ae44c2cb1257cebd33",
      "networkId": 0,
      "chainId": 0
    },
    {
      "hash": "0x717c5395136e117bb6335363081bd4a3f4bd3ace96aee5663ae4c0243824238d",
      "blockHash": "0x7999fa489f3c537a7aab233b240c4d1cbb898243c8a859e2f0e2ed68cfe6a314",
      "blockNumber": 105328,
      "transactionIndex": 17,
      "confirmations": null,
      "from": "0xe6A7a1d47ff21B6321162AEA7C6CB457D5476Bca",
      "gasPrice": {
        "_hex": "0xda3cc9a3f"
      },
      "gasLimit": {
        "_hex": "0x55f0"
      },
      "to": "0xC2B0FB302729ef0f4aa96C0E02cC2346459294DF",
      "value": {
        "_hex": "0x6bee6fda40dabd00"
      },
      "nonce": 3822,
      "data": "0x",
      "r": "0x1f4643d3d73e246b25ce77d55403f32aa3cb46c3ee01bc655990b7f57eb8db60",
      "s": "0x6d6112bb996a5bdfa6951104e76069167777daeefafd858156e10bc120839080",
      "v": 28,
      "creates": null,
      "raw": "0xf86e820eee850da3cc9a3f8255f094c2b0fb302729ef0f4aa96c0e02cc2346459294df886bee6fda40dabd00801ca01f4643d3d73e246b25ce77d55403f32aa3cb46c3ee01bc655990b7f57eb8db60a06d6112bb996a5bdfa6951104e76069167777daeefafd858156e10bc120839080",
      "networkId": 0,
      "chainId": 0
    },
    {
      "hash": "0x777824f5d42fbe07a788e90796e29b7359050d8d6f167a516bf2cf728583a797",
      "blockHash": "0x7999fa489f3c537a7aab233b240c4d1cbb898243c8a859e2f0e2ed68cfe6a314",
      "blockNumber": 105328,
      "transactionIndex": 18,
      "confirmations": null,
      "from": "0xe6A7a1d47ff21B6321162AEA7C6CB457D5476Bca",
      "gasPrice": {
        "_hex": "0xda3cc9a3f"
      },
      "gasLimit": {
        "_hex": "0x55f0"
      },
      "to": "0x0d62E666D681E8Be96903Ac4aBD3537f28c6125A",
      "value": {
        "_hex": "0x6c576450516eeeb0"
      },
      "nonce": 3823,
      "data": "0x",
      "r": "0xf458296e2776f87f2085804ad7dd1bc5ec072dd1888a3802ab5226da8b97719e",
      "s": "0x26176eca2fb9c89e71e1ae5c6020c8b3ffbf37a383c660097dd8744e2cf74ee6",
      "v": 28,
      "creates": null,
      "raw": "0xf86e820eef850da3cc9a3f8255f0940d62e666d681e8be96903ac4abd3537f28c6125a886c576450516eeeb0801ca0f458296e2776f87f2085804ad7dd1bc5ec072dd1888a3802ab5226da8b97719ea026176eca2fb9c89e71e1ae5c6020c8b3ffbf37a383c660097dd8744e2cf74ee6",
      "networkId": 0,
      "chainId": 0
    },
    {
      "hash": "0x4536f5d2b18602d61f95c5b5e39ae8adfe9d34f488a3e75167df945477574b35",
      "blockHash": "0x7999fa489f3c537a7aab233b240c4d1cbb898243c8a859e2f0e2ed68cfe6a314",
      "blockNumber": 105328,
      "transactionIndex": 19,
      "confirmations": null,
      "from": "0xe6A7a1d47ff21B6321162AEA7C6CB457D5476Bca",
      "gasPrice": {
        "_hex": "0xda3cc9a3f"
      },
      "gasLimit": {
        "_hex": "0x55f0"
      },
      "to": "0x3b09EfC81d5e3F72737B4063883CEDdfBc79ae88",
      "value": {
        "_hex": "0x6c842a4b269023b0"
      },
      "nonce": 3824,
      "data": "0x",
      "r": "0xb787ecda870eec3068ced28730033e443ec1133c26de26d9c36c10e5cf005356",
      "s": "0x6281446abd50600a67a8d6ffc7475c012a8e5db2d5ef60cac974c04e38e19118",
      "v": 27,
      "creates": null,
      "raw": "0xf86e820ef0850da3cc9a3f8255f0943b09efc81d5e3f72737b4063883ceddfbc79ae88886c842a4b269023b0801ba0b787ecda870eec3068ced28730033e443ec1133c26de26d9c36c10e5cf005356a06281446abd50600a67a8d6ffc7475c012a8e5db2d5ef60cac974c04e38e19118",
      "networkId": 0,
      "chainId": 0
    },
    {
      "hash": "0x15aefee74d00c67a77c3c78dee159dcc6dbb7ca17f0369279f05679b67a71507",
      "blockHash": "0x7999fa489f3c537a7aab233b240c4d1cbb898243c8a859e2f0e2ed68cfe6a314",
      "blockNumber": 105328,
      "transactionIndex": 20,
      "confirmations": null,
      "from": "0xe6A7a1d47ff21B6321162AEA7C6CB457D5476Bca",
      "gasPrice": {
        "_hex": "0xda3cc9a3f"
      },
      "gasLimit": {
        "_hex": "0x55f0"
      },
      "to": "0xe9B6523ad9492Fc53F2FBb9480958aefC4A4b1c9",
      "value": {
        "_hex": "0x6d7f1d8dd7ea8ed0"
      },
      "nonce": 3825,
      "data": "0x",
      "r": "0xc3a036159d8f19f5ec257dc4c6cdc50ea6f8f032b394d78aa4997fca103ad72e",
      "s": "0x7b6d268a303119a8c5439be0f48613283fa8569b98b931df3de914390afe42ff",
      "v": 28,
      "creates": null,
      "raw": "0xf86e820ef1850da3cc9a3f8255f094e9b6523ad9492fc53f2fbb9480958aefc4a4b1c9886d7f1d8dd7ea8ed0801ca0c3a036159d8f19f5ec257dc4c6cdc50ea6f8f032b394d78aa4997fca103ad72ea07b6d268a303119a8c5439be0f48613283fa8569b98b931df3de914390afe42ff",
      "networkId": 0,
      "chainId": 0
    },
    {
      "hash": "0x12fc434044a59ebb4103b98c8104bf0254dcdd1ce212859d149c2604cc5ba76f",
      "blockHash": "0x7999fa489f3c537a7aab233b240c4d1cbb898243c8a859e2f0e2ed68cfe6a314",
      "blockNumber": 105328,
      "transactionIndex": 21,
      "confirmations": null,
      "from": "0xe6A7a1d47ff21B6321162AEA7C6CB457D5476Bca",
      "gasPrice": {
        "_hex": "0xda3cc9a3f"
      },
      "gasLimit": {
        "_hex": "0x55f0"
      },
      "to": "0xc1A0C41BD9ab5DC2508d9a9bcd51A3Bb6513F48B",
      "value": {
        "_hex": "0x6e273cb682c94b08"
      },
      "nonce": 3826,
      "data": "0x",
      "r": "0x4e655a55f83c32b4ee76c623d35af7346d58a43106ac78a21de9a0cb50d2a0eb",
      "s": "0x0c7cb83ee900f3cff02a4b95600ba2ee0011fe7e492aadc90975c381176abeee",
      "v": 28,
      "creates": null,
      "raw": "0xf86e820ef2850da3cc9a3f8255f094c1a0c41bd9ab5dc2508d9a9bcd51a3bb6513f48b886e273cb682c94b08801ca04e655a55f83c32b4ee76c623d35af7346d58a43106ac78a21de9a0cb50d2a0eba00c7cb83ee900f3cff02a4b95600ba2ee0011fe7e492aadc90975c381176abeee",
      "networkId": 0,
      "chainId": 0
    },
    {
      "hash": "0x3e9e95920ca546bee5daf80eb21295e8ebcbae35c4598564ab8b059e6cffcd7e",
      "blockHash": "0x7999fa489f3c537a7aab233b240c4d1cbb898243c8a859e2f0e2ed68cfe6a314",
      "blockNumber": 105328,
      "transactionIndex": 22,
      "confirmations": null,
      "from": "0xe6A7a1d47ff21B6321162AEA7C6CB457D5476Bca",
      "gasPrice": {
        "_hex": "0xda3cc9a3f"
      },
      "gasLimit": {
        "_hex": "0x55f0"
      },
      "to": "0xce8ff6d2027CA9837abb85FD515752151b6C7d0A",
      "value": {
        "_hex": "0x6ea6d88425b7c4c8"
      },
      "nonce": 3827,
      "data": "0x",
      "r": "0x05e0c029d98d2f77431e089647804b57a15995c9612f1572fd355f8fc9db9e99",
      "s": "0x6a6a2a434291ecd13ed58dafd67243fa2eb336c677c641365a8feea10a27f425",
      "v": 27,
      "creates": null,
      "raw": "0xf86e820ef3850da3cc9a3f8255f094ce8ff6d2027ca9837abb85fd515752151b6c7d0a886ea6d88425b7c4c8801ba005e0c029d98d2f77431e089647804b57a15995c9612f1572fd355f8fc9db9e99a06a6a2a434291ecd13ed58dafd67243fa2eb336c677c641365a8feea10a27f425",
      "networkId": 0,
      "chainId": 0
    },
    {
      "hash": "0xba9d05095932b5e98a26b70d2d97444b950578057cf955cffcc64eac6b7e58fd",
      "blockHash": "0x7999fa489f3c537a7aab233b240c4d1cbb898243c8a859e2f0e2ed68cfe6a314",
      "blockNumber": 105328,
      "transactionIndex": 23,
      "confirmations": null,
      "from": "0xe6A7a1d47ff21B6321162AEA7C6CB457D5476Bca",
      "gasPrice": {
        "_hex": "0xda3cc9a3f"
      },
      "gasLimit": {
        "_hex": "0x55f0"
      },
      "to": "0x03809628C90e1092EA99EcFDACA6251435dbc94B",
      "value": {
        "_hex": "0x6f58631d18e50be0"
      },
      "nonce": 3828,
      "data": "0x",
      "r": "0xd08e203db22a48effad0096d8daf70e34b83e2de3b30b490d62496feaf4e82d0",
      "s": "0x2bd837b2c684470c7ef7cf846c9391e280ba71f4fca3e8c305353b9dd90b5328",
      "v": 27,
      "creates": null,
      "raw": "0xf86e820ef4850da3cc9a3f8255f09403809628c90e1092ea99ecfdaca6251435dbc94b886f58631d18e50be0801ba0d08e203db22a48effad0096d8daf70e34b83e2de3b30b490d62496feaf4e82d0a02bd837b2c684470c7ef7cf846c9391e280ba71f4fca3e8c305353b9dd90b5328",
      "networkId": 0,
      "chainId": 0
    },
    {
      "hash": "0xa63f971fd64d5c13cac1630cdd5b1ab7d5a5856e95c3fdf77b89a7cbfcb18fb7",
      "blockHash": "0x7999fa489f3c537a7aab233b240c4d1cbb898243c8a859e2f0e2ed68cfe6a314",
      "blockNumber": 105328,
      "transactionIndex": 24,
      "confirmations": null,
      "from": "0xe6A7a1d47ff21B6321162AEA7C6CB457D5476Bca",
      "gasPrice": {
        "_hex": "0xd7e285aa2"
      },
      "gasLimit": {
        "_hex": "0x55f0"
      },
      "to": "0xFCb0b0382b155BE6Dd68dcdB7f29d2366D1C7502",
      "value": {
        "_hex": "0x6fbacf8ff154ee78"
      },
      "nonce": 3829,
      "data": "0x",
      "r": "0xdfedc54d0297a2511fbaf3a60998ce5e2fd2cd2e2414769c531117f57db5b59d",
      "s": "0x538990952a5bdff50a2fb8a675845af8e2aca279ce336e2b9f6f17cf592bb627",
      "v": 27,
      "creates": null,
      "raw": "0xf86e820ef5850d7e285aa28255f094fcb0b0382b155be6dd68dcdb7f29d2366d1c7502886fbacf8ff154ee78801ba0dfedc54d0297a2511fbaf3a60998ce5e2fd2cd2e2414769c531117f57db5b59da0538990952a5bdff50a2fb8a675845af8e2aca279ce336e2b9f6f17cf592bb627",
      "networkId": 0,
      "chainId": 0
    },
    {
      "hash": "0x3875386fa7d3bab04b056a6e3c9d7c180b0c78549bd6a7e78d2a4767363849f7",
      "blockHash": "0x7999fa489f3c537a7aab233b240c4d1cbb898243c8a859e2f0e2ed68cfe6a314",
      "blockNumber": 105328,
      "transactionIndex": 25,
      "confirmations": null,
      "from": "0xe6A7a1d47ff21B6321162AEA7C6CB457D5476Bca",
      "gasPrice": {
        "_hex": "0xd7e285aa2"
      },
      "gasLimit": {
        "_hex": "0x55f0"
      },
      "to": "0x2B15C5211bdA6A867c582080536f6c61766aA5Af",
      "value": {
        "_hex": "0x6ff5b1e012fa7c60"
      },
      "nonce": 3830,
      "data": "0x",
      "r": "0x29fe9186b5d5dae2631cc5e00731a010ec6091b62a6f66901a3893c19b428bbc",
      "s": "0x68877d4a35ad98547b7e40d7a976ff6b17fbc458d5e6b473281d5b546d08dc73",
      "v": 28,
      "creates": null,
      "raw": "0xf86e820ef6850d7e285aa28255f0942b15c5211bda6a867c582080536f6c61766aa5af886ff5b1e012fa7c60801ca029fe9186b5d5dae2631cc5e00731a010ec6091b62a6f66901a3893c19b428bbca068877d4a35ad98547b7e40d7a976ff6b17fbc458d5e6b473281d5b546d08dc73",
      "networkId": 0,
      "chainId": 0
    },
    {
      "hash": "0x333810d8467ef85b92e2cbdb1f7d6dcfb7cc909abaf840c14e811452dcb56912",
      "blockHash": "0x7999fa489f3c537a7aab233b240c4d1cbb898243c8a859e2f0e2ed68cfe6a314",
      "blockNumber": 105328,
      "transactionIndex": 26,
      "confirmations": null,
      "from": "0xe6A7a1d47ff21B6321162AEA7C6CB457D5476Bca",
      "gasPrice": {
        "_hex": "0xd7e285aa2"
      },
      "gasLimit": {
        "_hex": "0x55f0"
      },
      "to": "0x8f30e76a8Ddf9FaEf40fd58197421716764B72D8",
      "value": {
        "_hex": "0x712f86e2bad5b078"
      },
      "nonce": 3831,
      "data": "0x",
      "r": "0x164d8aaa0cdd91090a8a67ceb1315b7609468280cb8157b01bedbc28b7b920f7",
      "s": "0x6ebf11705a786e91a52b3a13af5010aa5d4706a6d7c1cdf849c7a0d27eb428be",
      "v": 28,
      "creates": null,
      "raw": "0xf86e820ef7850d7e285aa28255f0948f30e76a8ddf9faef40fd58197421716764b72d888712f86e2bad5b078801ca0164d8aaa0cdd91090a8a67ceb1315b7609468280cb8157b01bedbc28b7b920f7a06ebf11705a786e91a52b3a13af5010aa5d4706a6d7c1cdf849c7a0d27eb428be",
      "networkId": 0,
      "chainId": 0
    },
    {
      "hash": "0x245a7817439ba5d90255cc9a76df21ded09e4e67cbf7888ddbfee43a879af5c7",
      "blockHash": "0x7999fa489f3c537a7aab233b240c4d1cbb898243c8a859e2f0e2ed68cfe6a314",
      "blockNumber": 105328,
      "transactionIndex": 27,
      "confirmations": null,
      "from": "0xe6A7a1d47ff21B6321162AEA7C6CB457D5476Bca",
      "gasPrice": {
        "_hex": "0xd7e285aa2"
      },
      "gasLimit": {
        "_hex": "0x55f0"
      },
      "to": "0xEa4933866ad977Ce24bBb244ECc2C79463454Fe4",
      "value": {
        "_hex": "0x742aa174dea867e8"
      },
      "nonce": 3832,
      "data": "0x",
      "r": "0xf729e3a91a227745ced65375b8d0f8e699f08112b5b5f3a0a7b9530de379e663",
      "s": "0x3c6d92bb308fab163a3d46d6dd55e7bad51d90e0e425d91d05cd5be65ac4a496",
      "v": 28,
      "creates": null,
      "raw": "0xf86e820ef8850d7e285aa28255f094ea4933866ad977ce24bbb244ecc2c79463454fe488742aa174dea867e8801ca0f729e3a91a227745ced65375b8d0f8e699f08112b5b5f3a0a7b9530de379e663a03c6d92bb308fab163a3d46d6dd55e7bad51d90e0e425d91d05cd5be65ac4a496",
      "networkId": 0,
      "chainId": 0
    },
    {
      "hash": "0xdc1c0fe960538ae1a35f857ae83d4fd85448844d022bf95e0a896c9c839929f5",
      "blockHash": "0x7999fa489f3c537a7aab233b240c4d1cbb898243c8a859e2f0e2ed68cfe6a314",
      "blockNumber": 105328,
      "transactionIndex": 28,
      "confirmations": null,
      "from": "0xe6A7a1d47ff21B6321162AEA7C6CB457D5476Bca",
      "gasPrice": {
        "_hex": "0xd7e285aa2"
      },
      "gasLimit": {
        "_hex": "0x55f0"
      },
      "to": "0xA5a5181868a8Df772f87DC95aB9B366e974Da936",
      "value": {
        "_hex": "0x756a5d7a66f04268"
      },
      "nonce": 3833,
      "data": "0x",
      "r": "0x75660c870176ccdd39b3051a81ee9d05848578dfc28bacb0add90fe58a4c67c8",
      "s": "0x4d7c4ccaee082756bcad811a3915133e6358f278230c613e37892420005f5622",
      "v": 27,
      "creates": null,
      "raw": "0xf86e820ef9850d7e285aa28255f094a5a5181868a8df772f87dc95ab9b366e974da93688756a5d7a66f04268801ba075660c870176ccdd39b3051a81ee9d05848578dfc28bacb0add90fe58a4c67c8a04d7c4ccaee082756bcad811a3915133e6358f278230c613e37892420005f5622",
      "networkId": 0,
      "chainId": 0
    },
    {
      "hash": "0x2f5cb9b3babac86428b46bb9e451d0873e51adfac1fafd0bc9c250550edf4e8a",
      "blockHash": "0x7999fa489f3c537a7aab233b240c4d1cbb898243c8a859e2f0e2ed68cfe6a314",
      "blockNumber": 105328,
      "transactionIndex": 29,
      "confirmations": null,
      "from": "0xe6A7a1d47ff21B6321162AEA7C6CB457D5476Bca",
      "gasPrice": {
        "_hex": "0xd7e285aa2"
      },
      "gasLimit": {
        "_hex": "0x55f0"
      },
      "to": "0x10BD1134A760f6b35247e3cb33673a18bC95a7E7",
      "value": {
        "_hex": "0x75768ac489c345c8"
      },
      "nonce": 3834,
      "data": "0x",
      "r": "0xd89239b1615275039b3fb3c6bbc29b5f7d29696347e0f2b35b2f7dbfac094e2b",
      "s": "0x36acdf908e317b48c0338b56ba59f963ad4210f1c0c4be3f7ebdadcc6666db3e",
      "v": 28,
      "creates": null,
      "raw": "0xf86e820efa850d7e285aa28255f09410bd1134a760f6b35247e3cb33673a18bc95a7e78875768ac489c345c8801ca0d89239b1615275039b3fb3c6bbc29b5f7d29696347e0f2b35b2f7dbfac094e2ba036acdf908e317b48c0338b56ba59f963ad4210f1c0c4be3f7ebdadcc6666db3e",
      "networkId": 0,
      "chainId": 0
    },
    {
      "hash": "0x2b1f050850ccd6affa9fb4b09bda567391d3e185f9d57ad5c61ec7142d364a8c",
      "blockHash": "0x7999fa489f3c537a7aab233b240c4d1cbb898243c8a859e2f0e2ed68cfe6a314",
      "blockNumber": 105328,
      "transactionIndex": 30,
      "confirmations": null,
      "from": "0xe6A7a1d47ff21B6321162AEA7C6CB457D5476Bca",
      "gasPrice": {
        "_hex": "0xd7e285aa2"
      },
      "gasLimit": {
        "_hex": "0x55f0"
      },
      "to": "0x90891a4dAE53428129E5E2044f4677213EcCBB59",
      "value": {
        "_hex": "0x75e56ba35cdd3d28"
      },
      "nonce": 3835,
      "data": "0x",
      "r": "0xe6de0289a653cfd468a517589c6a9f47762f055a3ad3b8e9020047441d4f72a7",
      "s": "0x73c286b2fb8902240f87424e7774cfcf59588d051880895cb2d099d657d9ddf3",
      "v": 28,
      "creates": null,
      "raw": "0xf86e820efb850d7e285aa28255f09490891a4dae53428129e5e2044f4677213eccbb598875e56ba35cdd3d28801ca0e6de0289a653cfd468a517589c6a9f47762f055a3ad3b8e9020047441d4f72a7a073c286b2fb8902240f87424e7774cfcf59588d051880895cb2d099d657d9ddf3",
      "networkId": 0,
      "chainId": 0
    },
    {
      "hash": "0x30545c709ab4058fe1fd9e3e6a0aa481faf74fda565ac49a35f4e615d345ab59",
      "blockHash": "0x7999fa489f3c537a7aab233b240c4d1cbb898243c8a859e2f0e2ed68cfe6a314",
      "blockNumber": 105328,
      "transactionIndex": 31,
      "confirmations": null,
      "from": "0xe6A7a1d47ff21B6321162AEA7C6CB457D5476Bca",
      "gasPrice": {
        "_hex": "0xd7e285aa2"
      },
      "gasLimit": {
        "_hex": "0x55f0"
      },
      "to": "0x63d25FB5edc318Aae1DEc4F3aBd7c645f921cff8",
      "value": {
        "_hex": "0x78bed07f7b8b6958"
      },
      "nonce": 3836,
      "data": "0x",
      "r": "0x97257c136c0c0ee26fdf3da36432c3a58e899623fc0556b9859925d2eb518a49",
      "s": "0x5dceb4e917ed497e1d872ce0a228e75e2ce3fbf789d6596bd5c0493cb17c03a0",
      "v": 27,
      "creates": null,
      "raw": "0xf86e820efc850d7e285aa28255f09463d25fb5edc318aae1dec4f3abd7c645f921cff88878bed07f7b8b6958801ba097257c136c0c0ee26fdf3da36432c3a58e899623fc0556b9859925d2eb518a49a05dceb4e917ed497e1d872ce0a228e75e2ce3fbf789d6596bd5c0493cb17c03a0",
      "networkId": 0,
      "chainId": 0
    },
    {
      "hash": "0x6df46f3af47ca83b34d8c855b39b122f6c1f2daf7dd3dd90c03e978c0a62f937",
      "blockHash": "0x7999fa489f3c537a7aab233b240c4d1cbb898243c8a859e2f0e2ed68cfe6a314",
      "blockNumber": 105328,
      "transactionIndex": 32,
      "confirmations": null,
      "from": "0xe6A7a1d47ff21B6321162AEA7C6CB457D5476Bca",
      "gasPrice": {
        "_hex": "0xd7e285aa2"
      },
      "gasLimit": {
        "_hex": "0x55f0"
      },
      "to": "0xF161498A7f225A91C338015ca11833B3399393A8",
      "value": {
        "_hex": "0x79f999e0792b4ed8"
      },
      "nonce": 3837,
      "data": "0x",
      "r": "0xf73ab48ae1b6445cfaad885febeaef954b9f901ab183085479520d4937cf85ad",
      "s": "0x7c7e4100af03d8a9d3e2a55e3354c0959ddc016b071fd13ab684a4552ab203ca",
      "v": 28,
      "creates": null,
      "raw": "0xf86e820efd850d7e285aa28255f094f161498a7f225a91c338015ca11833b3399393a88879f999e0792b4ed8801ca0f73ab48ae1b6445cfaad885febeaef954b9f901ab183085479520d4937cf85ada07c7e4100af03d8a9d3e2a55e3354c0959ddc016b071fd13ab684a4552ab203ca",
      "networkId": 0,
      "chainId": 0
    },
    {
      "hash": "0x9599ffb2b35f47883e6ea0639d7432277a12fe1dd1defdab827701d6fa0bb7c7",
      "blockHash": "0x7999fa489f3c537a7aab233b240c4d1cbb898243c8a859e2f0e2ed68cfe6a314",
      "blockNumber": 105328,
      "transactionIndex": 33,
      "confirmations": null,
      "from": "0xe6A7a1d47ff21B6321162AEA7C6CB457D5476Bca",
      "gasPrice": {
        "_hex": "0xd7e285aa2"
      },
      "gasLimit": {
        "_hex": "0x55f0"
      },
      "to": "0xB0b3385a645Eb80B431224920043447Ab1303eA8",
      "value": {
        "_hex": "0x7a7f7d6f27bbde98"
      },
      "nonce": 3838,
      "data": "0x",
      "r": "0x3c730abdbacd9b33442363aae2c7e148456d2a4ab34b83b837aea82514c92078",
      "s": "0x3e2bd75c23e8592d5f708abb9eee857d262239a733ee13e2a079b0002231d642",
      "v": 28,
      "creates": null,
      "raw": "0xf86e820efe850d7e285aa28255f094b0b3385a645eb80b431224920043447ab1303ea8887a7f7d6f27bbde98801ca03c730abdbacd9b33442363aae2c7e148456d2a4ab34b83b837aea82514c92078a03e2bd75c23e8592d5f708abb9eee857d262239a733ee13e2a079b0002231d642",
      "networkId": 0,
      "chainId": 0
    },
    {
      "hash": "0x1e66827b6ef553da19ac800a1ceeb02d5a3d0f55aba6fbe252f236e27d16dae1",
      "blockHash": "0x7999fa489f3c537a7aab233b240c4d1cbb898243c8a859e2f0e2ed68cfe6a314",
      "blockNumber": 105328,
      "transactionIndex": 34,
      "confirmations": null,
      "from": "0xe6A7a1d47ff21B6321162AEA7C6CB457D5476Bca",
      "gasPrice": {
        "_hex": "0xd7e285aa2"
      },
      "gasLimit": {
        "_hex": "0x55f0"
      },
      "to": "0xabF56d5ca441eCAD5979023Ec368b74a8d662d95",
      "value": {
        "_hex": "0x7ac6890588b76828"
      },
      "nonce": 3839,
      "data": "0x",
      "r": "0x6b9376c7dd130b5a6bbebdef87718966356dc516fd5e0ff54ef6728d59c0352b",
      "s": "0x39fb365b9fdd82af19d9f7bd02c5f2862686ef55accf26aaf872ad80c9f77b4b",
      "v": 27,
      "creates": null,
      "raw": "0xf86e820eff850d7e285aa28255f094abf56d5ca441ecad5979023ec368b74a8d662d95887ac6890588b76828801ba06b9376c7dd130b5a6bbebdef87718966356dc516fd5e0ff54ef6728d59c0352ba039fb365b9fdd82af19d9f7bd02c5f2862686ef55accf26aaf872ad80c9f77b4b",
      "networkId": 0,
      "chainId": 0
    },
    {
      "hash": "0x1def1b47c4e4acb49aecda51991748f3b4701d62ce88e42b38ecaaba57c04baa",
      "blockHash": "0x7999fa489f3c537a7aab233b240c4d1cbb898243c8a859e2f0e2ed68cfe6a314",
      "blockNumber": 105328,
      "transactionIndex": 35,
      "confirmations": null,
      "from": "0xe6A7a1d47ff21B6321162AEA7C6CB457D5476Bca",
      "gasPrice": {
        "_hex": "0xd7e285aa2"
      },
      "gasLimit": {
        "_hex": "0x55f0"
      },
      "to": "0x8263B7757b139904C7cD8511B3D0a6D1479848Ba",
      "value": {
        "_hex": "0x7add0d96e658b988"
      },
      "nonce": 3840,
      "data": "0x",
      "r": "0x4fba17cbd6c884ece43427c57addc62652126a60c3379a85f1956cd9d1f167e1",
      "s": "0x203f47b971b698a905b2df429c0f6c05b5d5a7ae622c5e165636d28a4066b861",
      "v": 27,
      "creates": null,
      "raw": "0xf86e820f00850d7e285aa28255f0948263b7757b139904c7cd8511b3d0a6d1479848ba887add0d96e658b988801ba04fba17cbd6c884ece43427c57addc62652126a60c3379a85f1956cd9d1f167e1a0203f47b971b698a905b2df429c0f6c05b5d5a7ae622c5e165636d28a4066b861",
      "networkId": 0,
      "chainId": 0
    },
    {
      "hash": "0x5a901022df10bab9e26f9cd7244944fc5ae2c6f38f67e7610686614e859a4ddb",
      "blockHash": "0x7999fa489f3c537a7aab233b240c4d1cbb898243c8a859e2f0e2ed68cfe6a314",
      "blockNumber": 105328,
      "transactionIndex": 36,
      "confirmations": null,
      "from": "0xe6A7a1d47ff21B6321162AEA7C6CB457D5476Bca",
      "gasPrice": {
        "_hex": "0xd7e285aa2"
      },
      "gasLimit": {
        "_hex": "0x55f0"
      },
      "to": "0xD924AAC0bCB65C13bE4044f6BeA8aAe34D7a7126",
      "value": {
        "_hex": "0x7b11e0e4c8988f80"
      },
      "nonce": 3841,
      "data": "0x",
      "r": "0x8654e015080232b08f19d444f267de85aa45e70f12a0f9a8d76b20ec96ec679d",
      "s": "0x595a70b1fa62f5c8909c2468954e36f636836409024e38acea87a47a20fa1c84",
      "v": 28,
      "creates": null,
      "raw": "0xf86e820f01850d7e285aa28255f094d924aac0bcb65c13be4044f6bea8aae34d7a7126887b11e0e4c8988f80801ca08654e015080232b08f19d444f267de85aa45e70f12a0f9a8d76b20ec96ec679da0595a70b1fa62f5c8909c2468954e36f636836409024e38acea87a47a20fa1c84",
      "networkId": 0,
      "chainId": 0
    },
    {
      "hash": "0x1cc760c3b006eef9ec3334ff4d7eea27a16aa3c47f9ec9787608ce96e731d575",
      "blockHash": "0x7999fa489f3c537a7aab233b240c4d1cbb898243c8a859e2f0e2ed68cfe6a314",
      "blockNumber": 105328,
      "transactionIndex": 37,
      "confirmations": null,
      "from": "0xe6A7a1d47ff21B6321162AEA7C6CB457D5476Bca",
      "gasPrice": {
        "_hex": "0xd7e285aa2"
      },
      "gasLimit": {
        "_hex": "0x55f0"
      },
      "to": "0x6589D22b54648e5D67Dc008eBd0c836D3DF39c87",
      "value": {
        "_hex": "0x7d10fc7b98d9dc50"
      },
      "nonce": 3842,
      "data": "0x",
      "r": "0x2c35062936e37988e3af046018cd9f4f9be5d60450f6a98648576d500a0d5627",
      "s": "0x11f0519985b52fe41dc38cea4b5b52843b1cc24e0aab94791b3f802202ffaaa6",
      "v": 27,
      "creates": null,
      "raw": "0xf86e820f02850d7e285aa28255f0946589d22b54648e5d67dc008ebd0c836d3df39c87887d10fc7b98d9dc50801ba02c35062936e37988e3af046018cd9f4f9be5d60450f6a98648576d500a0d5627a011f0519985b52fe41dc38cea4b5b52843b1cc24e0aab94791b3f802202ffaaa6",
      "networkId": 0,
      "chainId": 0
    },
    {
      "hash": "0x10d118fc338ddbf0fae7ff84158d7c4ac30c1e0eac8468d6ab94c271db3e3192",
      "blockHash": "0x7999fa489f3c537a7aab233b240c4d1cbb898243c8a859e2f0e2ed68cfe6a314",
      "blockNumber": 105328,
      "transactionIndex": 38,
      "confirmations": null,
      "from": "0xe6A7a1d47ff21B6321162AEA7C6CB457D5476Bca",
      "gasPrice": {
        "_hex": "0xd7e285aa2"
      },
      "gasLimit": {
        "_hex": "0x55f0"
      },
      "to": "0x8d629C20608135491B5013f1002586A0383130e5",
      "value": {
        "_hex": "0x7d9192b5e493de88"
      },
      "nonce": 3843,
      "data": "0x",
      "r": "0x7666c63d30cb7ca292e8b92d71d69a5d5736368a7dcec7a40cd093686ce3e0a5",
      "s": "0x5e31b33bbd7897263f0d11220945ce74e7b604b6731e12f1bc7e9ba013c695f2",
      "v": 27,
      "creates": null,
      "raw": "0xf86e820f03850d7e285aa28255f0948d629c20608135491b5013f1002586a0383130e5887d9192b5e493de88801ba07666c63d30cb7ca292e8b92d71d69a5d5736368a7dcec7a40cd093686ce3e0a5a05e31b33bbd7897263f0d11220945ce74e7b604b6731e12f1bc7e9ba013c695f2",
      "networkId": 0,
      "chainId": 0
    },
    {
      "hash": "0x2695153b56b5b51a091be44baf3e4c70ed92e332ec892e2a46f05a1255e06195",
      "blockHash": "0x7999fa489f3c537a7aab233b240c4d1cbb898243c8a859e2f0e2ed68cfe6a314",
      "blockNumber": 105328,
      "transactionIndex": 39,
      "confirmations": null,
      "from": "0xe6A7a1d47ff21B6321162AEA7C6CB457D5476Bca",
      "gasPrice": {
        "_hex": "0xd7e285aa2"
      },
      "gasLimit": {
        "_hex": "0x55f0"
      },
      "to": "0xe33977E292cceF99Ea8828733e97562F3690a8ad",
      "value": {
        "_hex": "0x7ef7611ab7f17e68"
      },
      "nonce": 3844,
      "data": "0x",
      "r": "0xa74aa7cfe1b9e330bb783ab3424a5350d12fe1fc38e31c8892d1260bdb2636f7",
      "s": "0x1d08ee8d377e346017c6b830f4f9651d8d18eaa661cd3871cf1a6761f72daba9",
      "v": 27,
      "creates": null,
      "raw": "0xf86e820f04850d7e285aa28255f094e33977e292ccef99ea8828733e97562f3690a8ad887ef7611ab7f17e68801ba0a74aa7cfe1b9e330bb783ab3424a5350d12fe1fc38e31c8892d1260bdb2636f7a01d08ee8d377e346017c6b830f4f9651d8d18eaa661cd3871cf1a6761f72daba9",
      "networkId": 0,
      "chainId": 0
    },
    {
      "hash": "0xaa1f4f9da8eaa3c65e1a712a70b9a64073cb32817b3df185d1e51749b0ea5584",
      "blockHash": "0x7999fa489f3c537a7aab233b240c4d1cbb898243c8a859e2f0e2ed68cfe6a314",
      "blockNumber": 105328,
      "transactionIndex": 40,
      "confirmations": null,
      "from": "0xe6A7a1d47ff21B6321162AEA7C6CB457D5476Bca",
      "gasPrice": {
        "_hex": "0xd7e285aa2"
      },
      "gasLimit": {
        "_hex": "0x55f0"
      },
      "to": "0x76d4a9bc9612bE738A81d0fE632b00B971E2bB9a",
      "value": {
        "_hex": "0x7ffdb8dd43872f60"
      },
      "nonce": 3845,
      "data": "0x",
      "r": "0x02e8cc09367692b35413062306881ebf5e8bfdeb34c86826dab6c49e0486e239",
      "s": "0x1963c860e663132d9eafcf89cf3ea726943b7cb9374f6448abce9fbea52550f4",
      "v": 27,
      "creates": null,
      "raw": "0xf86e820f05850d7e285aa28255f09476d4a9bc9612be738a81d0fe632b00b971e2bb9a887ffdb8dd43872f60801ba002e8cc09367692b35413062306881ebf5e8bfdeb34c86826dab6c49e0486e239a01963c860e663132d9eafcf89cf3ea726943b7cb9374f6448abce9fbea52550f4",
      "networkId": 0,
      "chainId": 0
    },
    {
      "hash": "0x069674e97a019bdad692467c209d6c2d2cb8baca55105e74c905e7db05b49c81",
      "blockHash": "0x7999fa489f3c537a7aab233b240c4d1cbb898243c8a859e2f0e2ed68cfe6a314",
      "blockNumber": 105328,
      "transactionIndex": 41,
      "confirmations": null,
      "from": "0xe6A7a1d47ff21B6321162AEA7C6CB457D5476Bca",
      "gasPrice": {
        "_hex": "0xd7e285aa2"
      },
      "gasLimit": {
        "_hex": "0x55f0"
      },
      "to": "0x77e41B4125b7c14757e0f07fE36b2E95db757a10",
      "value": {
        "_hex": "0x8050805c4504c7a0"
      },
      "nonce": 3846,
      "data": "0x",
      "r": "0x5c9948638ab5a65a74917d394e0499504ac18a6e4a62dc9cefa2ecb6af145466",
      "s": "0x1b76307b5f5ebe04c9d492029bbe11641602641cb0f1cfcd51c72086b58c6954",
      "v": 27,
      "creates": null,
      "raw": "0xf86e820f06850d7e285aa28255f09477e41b4125b7c14757e0f07fe36b2e95db757a10888050805c4504c7a0801ba05c9948638ab5a65a74917d394e0499504ac18a6e4a62dc9cefa2ecb6af145466a01b76307b5f5ebe04c9d492029bbe11641602641cb0f1cfcd51c72086b58c6954",
      "networkId": 0,
      "chainId": 0
    },
    {
      "hash": "0x38d0645e22a9ebea31bf09cdfb064d37a2a3b026d91a7de0db01128b53f95266",
      "blockHash": "0x7999fa489f3c537a7aab233b240c4d1cbb898243c8a859e2f0e2ed68cfe6a314",
      "blockNumber": 105328,
      "transactionIndex": 42,
      "confirmations": null,
      "from": "0xe6A7a1d47ff21B6321162AEA7C6CB457D5476Bca",
      "gasPrice": {
        "_hex": "0xd7e285aa2"
      },
      "gasLimit": {
        "_hex": "0x55f0"
      },
      "to": "0x10c4712a317A10F60fE9347b199400d6BaA89558",
      "value": {
        "_hex": "0x81d1ae65ae5b0750"
      },
      "nonce": 3847,
      "data": "0x",
      "r": "0x83514b7d49941c52ca4cdf70490745d6903b3dce80e1def023988934fa932b9a",
      "s": "0x303bc60e7c43a16124ec716035ab9be9151531fc1c7a28a533c7cb19e952606a",
      "v": 27,
      "creates": null,
      "raw": "0xf86e820f07850d7e285aa28255f09410c4712a317a10f60fe9347b199400d6baa895588881d1ae65ae5b0750801ba083514b7d49941c52ca4cdf70490745d6903b3dce80e1def023988934fa932b9aa0303bc60e7c43a16124ec716035ab9be9151531fc1c7a28a533c7cb19e952606a",
      "networkId": 0,
      "chainId": 0
    },
    {
      "hash": "0x96aeea2efda891930b7bbace8c39d04373f8fdb73c12d0126aa6ad3041843832",
      "blockHash": "0x7999fa489f3c537a7aab233b240c4d1cbb898243c8a859e2f0e2ed68cfe6a314",
      "blockNumber": 105328,
      "transactionIndex": 43,
      "confirmations": null,
      "from": "0xe6A7a1d47ff21B6321162AEA7C6CB457D5476Bca",
      "gasPrice": {
        "_hex": "0xd7e285aa2"
      },
      "gasLimit": {
        "_hex": "0x55f0"
      },
      "to": "0x902cA27B08D58442b67bb4Fa988de351468AB59f",
      "value": {
        "_hex": "0x82a1da5408e097e0"
      },
      "nonce": 3848,
      "data": "0x",
      "r": "0x1e441cd4a1b673d1c555074240caadab2a6c309a63abffd51c3053dcb8a40c21",
      "s": "0x3f59f45d55a4ac6b97eb9f5ccd907e174af5efd5b9d5cb668517fa7cf45c91ec",
      "v": 27,
      "creates": null,
      "raw": "0xf86e820f08850d7e285aa28255f094902ca27b08d58442b67bb4fa988de351468ab59f8882a1da5408e097e0801ba01e441cd4a1b673d1c555074240caadab2a6c309a63abffd51c3053dcb8a40c21a03f59f45d55a4ac6b97eb9f5ccd907e174af5efd5b9d5cb668517fa7cf45c91ec",
      "networkId": 0,
      "chainId": 0
    },
    {
      "hash": "0x9d319b61d206f3880fa042b55541972d11b6aa0c87b794db177da8d6a164d366",
      "blockHash": "0x7999fa489f3c537a7aab233b240c4d1cbb898243c8a859e2f0e2ed68cfe6a314",
      "blockNumber": 105328,
      "transactionIndex": 44,
      "confirmations": null,
      "from": "0xACAB9A83F47D28Fdc1d12772A0B571f80444b5DD",
      "gasPrice": {
        "_hex": "0xcba4fe6bf"
      },
      "gasLimit": {
        "_hex": "0x7a120"
      },
      "to": "0x19939AD9F09d103B670c9EE56cA41d5764380f8A",
      "value": {
        "_hex": "0x317cfa1b450b0000"
      },
      "nonce": 5,
      "data": "0x",
      "r": "0xe28113960cf12d308c80812daf65cec56f58cb7caf31637568edf59b9a130709",
      "s": "0x52ff136d3e68317f596df89282edc9923e11e55b77e8a5b620cc0ebce8c9dccf",
      "v": 28,
      "creates": null,
      "raw": "0xf86d05850cba4fe6bf8307a1209419939ad9f09d103b670c9ee56ca41d5764380f8a88317cfa1b450b0000801ca0e28113960cf12d308c80812daf65cec56f58cb7caf31637568edf59b9a130709a052ff136d3e68317f596df89282edc9923e11e55b77e8a5b620cc0ebce8c9dccf",
      "networkId": 0,
      "chainId": 0
    }
  ]
}