{
  "hash": "0x93980b8b5dd57eabb8b5a129a16eb2e975527a64195c80ce7dc086e6c8f13a4f",
  "parentHash": "0x1dd7bf94d5cde8572fc63b3e973c79d3d97743d85cb32d46677c379b4fcf838f",
  "number": 68971,
  "timestamp": 1439296501,
  "nonce": "0x5966edfbee2d18b4",
  "difficulty": 2030989430625,
  "gasLimit": {
    "_hex": "0x2fefd8"
  },
  "gasUsed": {
    "_hex": "0xf618"
  },
  "miner": "0xf927a40C8B7F6E07c5af7FA2155B4864a4112B13",
  "extraData": "0x",
  "transactions": [
    {
      "hash": "0x3372f11e232208a92ba5614bc6c9b127c0bc3da1c1b1c8daef5e6e130bb817d5",
      "blockHash": "0x93980b8b5dd57eabb8b5a129a16eb2e975527a64195c80ce7dc086e6c8f13a4f",
      "blockNumber": 68971,
      "transactionIndex": 0,
      "confirmations": null,
      "from": "0xce87E5D29240de507dCE1D5bf594d214b13c4b4e",
      "gasPrice": {
        "_hex": "0xba43b7400"
      },
      "gasLimit": {
        "_hex": "0x5208"
      },
      "to": "0x9348eC746F7cFC445e1f304e8a5676624c218811",
      "value": {
        "_hex": "0x1072bbac261c000"
      },
      "nonce": 1,
      "data": "0x",
      "r": "0xe2248ebf777ab5f50adc57e4e5f9cede0cb8a589dc73032fb237c76ab851baba",
      "s": "0x5951c12f6435e860b07da8775a8a39439786e3bba22c05768bd7d4c35eae0399",
      "v": 28,
      "creates": null,
      "raw": "0xf86c01850ba43b7400825208949348ec746f7cfc445e1f304e8a5676624c2188118801072bbac261c000801ca0e2248ebf777ab5f50adc57e4e5f9cede0cb8a589dc73032fb237c76ab851babaa05951c12f6435e860b07da8775a8a39439786e3bba22c05768bd7d4c35eae0399",
      "networkId": 0,
      "chainId": 0
    },
    {
      "hash": "0x3b37737a3b6697d2e88cc85f4e567de8646027ada20df1ba6dad694e4188d3c3",
      "blockHash": "0x93980b8b5dd57eabb8b5a129a16eb2e975527a64195c80ce7dc086e6c8f13a4f",
      "blockNumber": 68971,
      "transactionIndex": 1,
      "confirmations": null,
      "from": "0x548605050397DCcD41D55B4adb87FCd73836Ede5",
      "gasPrice": {
        "_hex": "0xba43b7400"
      },
      "gasLimit": {
        "_hex": "0x5208"
      },
      "to": "0x61a43802bc9029e595983d935e08A526AD614C83",
      "value": {
        "_hex": "0x1072bbac261c000"
      },
      "nonce": 1,
      "data": "0x",
      "r": "0x557fee7d4d06ef31a47e09c79cb2de327707cdf38c87f42d2849cc22ccc14f3c",
      "s": "0x12cda31f68267f74ffa285d83c69325b2d28f930f395dca360dd50e6df715972",
      "v": 27,
      "creates": null,
      "raw": "0xf86c01850ba43b74008252089461a43802bc9029e595983d935e08a526ad614c838801072bbac261c000801ba0557fee7d4d06ef31a47e09c79cb2de327707cdf38c87f42d2849cc22ccc14f3ca012cda31f68267f74ffa285d83c69325b2d28f930f395dca360dd50e6df715972",
      "networkId": 0,
      "chainId": 0
    },
    {
      "hash": "0xf806a980731d7dc0a1925c4034769dd86096392be20148690adc25e77b9afa31",
      "blockHash": "0x93980b8b5dd57eabb8b5a129a16eb2e975527a64195c80ce7dc086e6c8f13a4f",
      "blockNumber": 68971,
      "transactionIndex": 2,
      "confirmations": null,
      "from": "0xf041d27009C0437EAFb29129DAf1fcA0a71E6d92",
      "gasPrice": {
        "_hex": "0xba43b7400"
      },
      "gasLimit": {
        "_hex": "0x5208"
      },
      "to": "0xE7367Af47E7A4370A939c4fc0710D0446Fd14052",
      "value": {
        "_hex": "0x1072bbac261c000"
      },
      "nonce": 1,
      "data": "0x",
      "r": "0x9eb390e5ed4216a9cc6ec8831428835f2ead747806e672c3c491a78b84e46b48",
      "s": "0x3b67e9218b10e950d357df417598eb8c7783c7a6b702496e64963ccec686a711",
      "v": 28,
      "creates": null,
      "raw": "0xf86c01850ba43b740082520894e7367af47e7a4370a939c4fc0710d0446fd140528801072bbac261c000801ca09eb390e5ed4216a9cc6ec8831428835f2ead747806e672c3c491a78b84e46b48a03b67e9218b10e950d357df417598eb8c7783c7a6b702496e64963ccec686a711",
      "networkId": 0,
      "chainId": 0
    }
  ]
}