{
  "hash": "0xd1f8e779d80b6f901c5f035a83cdd92ba06a0543163b034adeb55a4775f11734",
  "parentHash": "0x5bf8f214403f741ec548db724fa73fd14be9a94a9094e431133049ce093ad031",
  "number": 68607,
  "timestamp": 1439290613,
  "nonce": "0x54952af6f43b970e",
  "difficulty": 2027114484388,
  "gasLimit": {
    "_hex": "0x2fefd8"
  },
  "gasUsed": {
    "_hex": "0x15283"
  },
  "miner": "0x55bAf64fc9eAccFFd7Cc643BB61142E1C6ac093e",
  "extraData": "0x",
  "transactions": [
    {
      "hash": "0x5eb8e73d75839933e0ac24847dc070632d855b21dcdcdf4c9ef0c8157aeb6668",
      "blockHash": "0xd1f8e779d80b6f901c5f035a83cdd92ba06a0543163b034adeb55a4775f11734",
      "blockNumber": 68607,
      "transactionIndex": 0,
      "confirmations": null,
      "from": "0x17580B766f7453525ca4C6A88b01b50570EA088C",
      "gasPrice": {
        "_hex": "0xd9c280f71"
      },
      "gasLimit": {
        "_hex": "0x61a80"
      },
      "to": "0x5Fe5B7546D1628f7348B023A0393de1FC825A4fD",
      "value": {
        "_hex": "0x3782dace9d900000"
      },
      "nonce": 47,
      "data": "0xb595b8b50000000000000000000000000000000000000000000000000000000000000000",
      "r": "0x07390cf62a7f469d1357515a51e376e4d9d5b24c8bbe2ecf3f99998b5d461fe1",
      "s": "0x0922e9afabbe878cface3131594d812f0d75247946e8f125eb71b6ff67f72b5c",
      "v": 27,
      "creates": null,
      "raw": "0xf8912f850d9c280f7183061a80945fe5b7546d1628f7348b023a0393de1fc825a4fd883782dace9d900000a4b595b8b500000000000000000000000000000000000000000000000000000000000000001ba007390cf62a7f469d1357515a51e376e4d9d5b24c8bbe2ecf3f99998b5d461fe1a00922e9afabbe878cface3131594d812f0d75247946e8f125eb71b6ff67f72b5c",
      "networkId": 0,
      "chainId": 0
    },
    {
      "hash": "0x9e62c765df7dde7b6924788a886cd15a6f31eae7f375e10a701dc9bf4fd4cc26",
      "blockHash": "0xd1f8e779d80b6f901c5f035a83cdd92ba06a0543163b034adeb55a4775f11734",
      "blockNumber": 68607,
      "transactionIndex": 1,
      "confirmations": null,
      "from": "0xf32F426861Dd27FA1B2DB66361FcAB5104d0fD2D",
      "gasPrice": {
        "_hex": "0xba43b7400"
      },
      "gasLimit": {
        "_hex": "0x5208"
      },
      "to": "0xbbEa8c8C6e2efbBf438a9837F4D26D4Ba1194731",
      "value": {
        "_hex": "0x1072bbac261c000"
      },
      "nonce": 1,
      "data": "0x",
      "r": "0x08db1307aabcad2c959e3598804fc16a043884d9677adb833741d812178c07c8",
      "s": "0x0c486c02e5ba3509b0a043d4833d12ec8ff5e342fd9378f39c4ec750eb79c7c6",
      "v": 27,
      "creates": null,
      "raw": "0xf86c01850ba43b740082520894bbea8c8c6e2efbbf438a9837f4d26d4ba11947318801072bbac261c000801ba008db1307aabcad2c959e3598804fc16a043884d9677adb833741d812178c07c8a00c486c02e5ba3509b0a043d4833d12ec8ff5e342fd9378f39c4ec750eb79c7c6",
      "networkId": 0,
      "chainId": 0
    },
    {
      "hash": "0x4d46e29b0345ab4964e8454a128bf00ff21714901d025f2fd3a2ed8ae2e58646",
      "blockHash": "0xd1f8e779d80b6f901c5f035a83cdd92ba06a0543163b034adeb55a4775f11734",
      "blockNumber": 68607,
      "transactionIndex": 2,
      "confirmations": null,
      "from": "0x2d87EA92BACb760698F775eC1B0E5Ef02495aE8A",
      "gasPrice": {
        "_hex": "0xba43b7400"
      },
      "gasLimit": {
        "_hex": "0x5208"
      },
      "to": "0xe335A9472A1eC3A91fD1766be19fe528b0612638",
      "value": {
        "_hex": "0x1072bbac261c000"
      },
      "nonce": 1,
      "data": "0x",
      "r": "0x7d21f9bc8ce7a02469543b61c4d3acd74407a3bd058e903d2bbe8436ce1e65a8",
      "s": "0x392904ce1960e05d16abf98374478dc67c40dfb7a146aec6737caba294b6664f",
      "v": 27,
      "creates": null,
      "raw": "0xf86c01850ba43b740082520894e335a9472a1ec3a91fd1766be19fe528b06126388801072bbac261c000801ba07d21f9bc8ce7a02469543b61c4d3acd74407a3bd058e903d2bbe8436ce1e65a8a0392904ce1960e05d16abf98374478dc67c40dfb7a146aec6737caba294b6664f",
      "networkId": 0,
      "chainId": 0
    }
  ]
}