{
  "hash": "0x36ab78859452321873439b8e5e6d735afcfd9818e0099c2ec7301940b6beb66a",
  "parentHash": "0xa3ec216d843305c16363f7aaa484f2dbab7d2f179287b43ed31b4093bedab24f",
  "number": 47274,
  "timestamp": 1438937167,
  "nonce": "0xc0e385dccc1cec03",
  "difficulty": 1465939385317,
  "gasLimit": {
    "_hex": "0xab6c"
  },
  "gasUsed": {
    "_hex": "0x5208"
  },
  "miner": "0x70137010922f2fC2964b3792907F79FBB75fEbe8",
  "extraData": "0x476574682f76312e302e302f6c696e75782f676f312e342e32",
  "transactions": [
    {
      "hash": "0x9bfab455c52c6a911b487b89cad0133ea66137695bc01669880a49ee2728c3ea",
      "blockHash": "0x36ab78859452321873439b8e5e6d735afcfd9818e0099c2ec7301940b6beb66a",
      "blockNumber": 47274,
      "transactionIndex": 0,
      "confirmations": null,
      "from": "0xe6A7a1d47ff21B6321162AEA7C6CB457D5476Bca",
      "gasPrice": {
        "_hex": "0xe556cd550"
      },
      "gasLimit": {
        "_hex": "0x5208"
      },
      "to": "0x707e0B3205D90E717a6b1171816F3C36d18c2D63",
      "value": {
        "_hex": "0x9a60118a088f0d88"
      },
      "nonce": 96,
      "data": "0x",
      "r": "0xe3304cae46e925019adb66b91cba19d9f870a421a344eb1e76f0346607df6e3f",
      "s": "0x152d9ffb26e12cbe1bbce339a5df38d39762cc951b93a34ec2e997cbe4afb9b3",
      "v": 28,
      "creates": null,
      "raw": "0xf86c60850e556cd55082520894707e0b3205d90e717a6b1171816f3c36d18c2d63889a60118a088f0d88801ca0e3304cae46e925019adb66b91cba19d9f870a421a344eb1e76f0346607df6e3fa0152d9ffb26e12cbe1bbce339a5df38d39762cc951b93a34ec2e997cbe4afb9b3",
      "networkId": 0,
      "chainId": 0
    }
  ]
}