{
  "hash": "0xe9eddeb1e21a28e0f25653cf1481cbb07057fb87bf55bf3c9f55b815d6c97a62",
  "parentHash": "0x393315c31b85b57b8cd4b4d8241cefb1220ef10278f7866cc988a937f8cea6e1",
  "number": 61033,
  "timestamp": 1439165577,
  "nonce": "0x299e3b7448023155",
  "difficulty": 1737144697851,
  "gasLimit": {
    "_hex": "0x2fefd8"
  },
  "gasUsed": {
    "_hex": "0x546c"
  },
  "miner": "0x88D74a59454F6cF3B51ef6b9136AFb6b9D405A88",
  "extraData": "0x476574682f76312e302e312d37666266393930632f6c696e75782f676f312e34",
  "transactions": [
    {
      "hash": "0x24e328bdba6639d7758cf308dc54141ece34a17f229a4bdbe9e6005441e3df16",
      "blockHash": "0xe9eddeb1e21a28e0f25653cf1481cbb07057fb87bf55bf3c9f55b815d6c97a62",
      "blockNumber": 61033,
      "transactionIndex": 0,
      "confirmations": null,
      "from": "0x194a6bB302b8aBA7A5B579dF93e0df1574967625",
      "gasPrice": {
        "_hex": "0x110c8f7d8de"
      },
      "gasLimit": {
        "_hex": "0xc350"
      },
      "to": "0x2910543Af39abA0Cd09dBb2D50200b3E800A63D2",
      "value": {
        "_hex": "0x1b0d04202f47ec0000"
      },
      "nonce": 0,
      "data": "0x454e595543434b3147",
      "r": "0x0e383c0e23e518d8ad5c6d324b6af520b9cdd4829c6352a8aa5157fb887d3cf2",
      "s": "0xc52eec947a14466d7248035bf39cc5e0b8362cc70861c93402345a7c3a994b59",
      "v": 27,
      "creates": null,
      "raw": "0xf87780860110c8f7d8de82c350942910543af39aba0cd09dbb2d50200b3e800a63d2891b0d04202f47ec000089454e595543434b31471ba00e383c0e23e518d8ad5c6d324b6af520b9cdd4829c6352a8aa5157fb887d3cf2a0c52eec947a14466d7248035bf39cc5e0b8362cc70861c93402345a7c3a994b59",
      "networkId": 0,
      "chainId": 0
    }
  ]
}