{
  "hash": "0x05260ba408c0e17c820e615a9f1ea130f808c65a034660dd96007244b7361aeb",
  "parentHash": "0xe458bdbe0ff7b3aa326b916dd8694bc3f53397d5c4f4a9d19f28f767e3868631",
  "number": 52675,
  "timestamp": 1439025448,
  "nonce": "0x0dee94df25902d00",
  "difficulty": 1569410494832,
  "gasLimit": {
    "_hex": "0x177c2e"
  },
  "gasUsed": {
    "_hex": "0x16e360"
  },
  "miner": "0xbb7B8287f3F0a933474a79eAe42CBCa977791171",
  "extraData": "0x476574682f4c5649562f76312e302e312f6c696e75782f676f312e342e32",
  "transactions": [
    {
      "hash": "0x70c1b9769954e47ca98015bcc5fa8f0dfc2a4cf529cb1d544352d4c4bcf1a3ec",
      "blockHash": "0x05260ba408c0e17c820e615a9f1ea130f808c65a034660dd96007244b7361aeb",
      "blockNumber": 52675,
      "transactionIndex": 0,
      "confirmations": null,
      "from": "0x54dAeb3E8a6BBC797E4aD2b0339f134b186e4637",
      "gasPrice": {
        "_hex": "0xd8bd64e50"
      },
      "gasLimit": {
        "_hex": "0x7a120"
      },
      "to": "0xBAA54d6E90c3F4d7Ebec11bD180134C7eD8eBb52",
      "value": {
        "_hex": "0x16345785d8a0000"
      },
      "nonce": 906,
      "data": "0x",
      "r": "0x845c018851f491a485cba8fc9657bacf1bd5a0c00f8f6f53f6d9db275391ca92",
      "s": "0x4acf4ed2b1919d5412f7e4837513693dbfae5753db542730290796fc845c9ae1",
      "v": 28,
      "creates": null,
      "raw": "0xf86f82038a850d8bd64e508307a12094baa54d6e90c3f4d7ebec11bd180134c7ed8ebb5288016345785d8a0000801ca0845c018851f491a485cba8fc9657bacf1bd5a0c00f8f6f53f6d9db275391ca92a04acf4ed2b1919d5412f7e4837513693dbfae5753db542730290796fc845c9ae1",
      "networkId": 0,
      "chainId": 0
    },
    {
      "hash": "0x308a8abeb4accb22fc60aca6503f0c58f0f3d99ebb6c55fbc7cf375a5bbcebc5",
      "blockHash": "0x05260ba408c0e17c820e615a9f1ea130f808c65a034660dd96007244b7361aeb",
      "blockNumber": 52675,
      "transactionIndex": 1,
      "confirmations": null,
      "from": "0x54dAeb3E8a6BBC797E4aD2b0339f134b186e4637",
      "gasPrice": {
        "_hex": "0xdf4ba21f9"
      },
      "gasLimit": {
        "_hex": "0x7a120"
      },
      "to": "0xBAA54d6E90c3F4d7Ebec11bD180134C7eD8eBb52",
      "value": {
        "_hex": "0x16345785d8a0000"
      },
      "nonce": 907,
      "data": "0x",
      "r": "0x8e3e82da0d319dc589f2820b0f058645d66e04bceac51363a37cd861d8d89c35",
      "s": "0x7eb7aac65190a0b5ce8f7ae5e6a3ba19ba6233d532e99823b0592c64e16c60c9",
      "v": 28,
      "creates": null,
      "raw": "0xf86f82038b850df4ba21f98307a12094baa54d6e90c3f4d7ebec11bd180134c7ed8ebb5288016345785d8a0000801ca08e3e82da0d319dc589f2820b0f058645d66e04bceac51363a37cd861d8d89c35a07eb7aac65190a0b5ce8f7ae5e6a3ba19ba6233d532e99823b0592c64e16c60c9",
      "networkId": 0,
      "chainId": 0
    },
    {
      "hash": "0x1983ee0585486ada8f41b2765633dfccad3ad85d43e3040a2ee9c54c583fd336",
      "blockHash": "0x05260ba408c0e17c820e615a9f1ea130f808c65a034660dd96007244b7361aeb",
      "blockNumber": 52675,
      "transactionIndex": 2,
      "confirmations": null,
      "from": "0x54dAeb3E8a6BBC797E4aD2b0339f134b186e4637",
      "gasPrice": {
        "_hex": "0xdada9c769"
      },
      "gasLimit": {
        "_hex": "0x7a120"
      },
      "to": "0xBAA54d6E90c3F4d7Ebec11bD180134C7eD8eBb52",
      "value": {
        "_hex": "0x16345785d8a0000"
      },
      "nonce": 908,
      "data": "0x",
      "r": "0xc130f53a1a00e3a471a45bba0a544cc69c8c1abc6b34371c61e9b54b1d41de2d",
      "s": "0x5c44e79ba703a201ec969b6e55b03293e34f3ffefc77185134d16501048d8fa1",
      "v": 28,
      "creates": null,
      "raw": "0xf86f82038c850dada9c7698307a12094baa54d6e90c3f4d7ebec11bd180134c7ed8ebb5288016345785d8a0000801ca0c130f53a1a00e3a471a45bba0a544cc69c8c1abc6b34371c61e9b54b1d41de2da05c44e79ba703a201ec969b6e55b03293e34f3ffefc77185134d16501048d8fa1",
      "networkId": 0,
      "chainId": 0
    }
  ]
}