{
  "hash": "0x266cd5750e34207cd4794ee50212165f0b5a6cdd4116f54240c6b309e0b163bf",
  "parentHash": "0x435ff599630abfdb9bb0d670534c12226cfc7ea6eb399ae5eccfec904c2e6ad1",
  "number": 106069,
  "timestamp": 1439898088,
  "nonce": "0x26cfa814025c4978",
  "difficulty": 4472940521398,
  "gasLimit": {
    "_hex": "0x2fefd8"
  },
  "gasUsed": {
    "_hex": "0xa410"
  },
  "miner": "0xf8E0CA3Ed80bd541b94BEdCf259e8CF2141A9523",
  "extraData": "0x476574682f76312e302e312f77696e646f77732f676f312e342e32",
  "transactions": [
    {
      "hash": "0x13b89371c7a85be6964f66151930cd8a959c9fb4a7689088e2a9f69bd23aa9f9",
      "blockHash": "0x266cd5750e34207cd4794ee50212165f0b5a6cdd4116f54240c6b309e0b163bf",
      "blockNumber": 106069,
      "transactionIndex": 0,
      "confirmations": null,
      "from": "0x120A270bbC009644e35F0bB6ab13f95b8199c4ad",
      "gasPrice": {
        "_hex": "0xd9fe9f4f0"
      },
      "gasLimit": {
        "_hex": "0x3d090"
      },
      "to": "0x60d85a32126130b225913C23dF4e5EF8b759fA09",
      "value": {
        "_hex": "0x2b5e3af16b18800000"
      },
      "nonce": 775,
      "data": "0x",
      "r": "0x2413b0c0a4c94d493b3448dab16693eaf3ce1938371293b10b3bbf3c5232e04f",
      "s": "0x3548dca9d9dee46708c04c33789f358a851027e964bcd823b2c2451e51485d97",
      "v": 28,
      "creates": null,
      "raw": "0xf870820307850d9fe9f4f08303d0909460d85a32126130b225913c23df4e5ef8b759fa09892b5e3af16b18800000801ca02413b0c0a4c94d493b3448dab16693eaf3ce1938371293b10b3bbf3c5232e04fa03548dca9d9dee46708c04c33789f358a851027e964bcd823b2c2451e51485d97",
      "networkId": 0,
      "chainId": 0
    },
    {
      "hash": "0xc21fd28056e7b9a63a83109884c5de0881cc1e63b58dc458c9b4959612768cb8",
      "blockHash": "0x266cd5750e34207cd4794ee50212165f0b5a6cdd4116f54240c6b309e0b163bf",
      "blockNumber": 106069,
      "transactionIndex": 1,
      "confirmations": null,
      "from": "0x32Be343B94f860124dC4fEe278FDCBD38C102D88",
      "gasPrice": {
        "_hex": "0xcf9ce07ff"
      },
      "gasLimit": {
        "_hex": "0x5208"
      },
      "to": "0xf669D33ffC879Ed84BECd4EF67CB17c76f4607D5",
      "value": {
        "_hex": "0x178fc08e073c560000"
      },
      "nonce": 1183,
      "data": "0x",
      "r": "0x2ff65ce9e144694b69b7b36595df4e3d47693fed09650149531e336a155625a2",
      "s": "0x7831d6584758553a21f7b7a44a9227a2056f0df0acdbd42ac6820e710c19071a",
      "v": 28,
      "creates": null,
      "raw": "0xf86f82049f850cf9ce07ff82520894f669d33ffc879ed84becd4ef67cb17c76f4607d589178fc08e073c560000801ca02ff65ce9e144694b69b7b36595df4e3d47693fed09650149531e336a155625a2a07831d6584758553a21f7b7a44a9227a2056f0df0acdbd42ac6820e710c19071a",
      "networkId": 0,
      "chainId": 0
    }
  ]
}