{
  "hash": "0xc069cea13e4d4f7a58d970b81c2a2bac27f3b104bad4093e2be336d53de1027e",
  "parentHash": "0x7e9aa21f3b8c3e048523387a8d515c794615adae4fa0589b54546a3622d6cbda",
  "number": 109090,
  "timestamp": 1439950838,
  "nonce": "0xc442ffa2f2f12ce2",
  "difficulty": 4430039725172,
  "gasLimit": {
    "_hex": "0x2fefd8"
  },
  "gasUsed": {
    "_hex": "0x5208"
  },
  "miner": "0xD0ee3F53eE0fCf3F9fbCcdd17BD1b6441DdC2074",
  "extraData": "0x476574682f76312e302e312d38326566323666362f6c696e75782f676f312e34",
  "transactions": [
    {
      "hash": "0x6c23b5b5ab332a41078b449b85c8b0737bff56c4b6f8b5e14c0c03b939414985",
      "blockHash": "0xc069cea13e4d4f7a58d970b81c2a2bac27f3b104bad4093e2be336d53de1027e",
      "blockNumber": 109090,
      "transactionIndex": 0,
      "confirmations": null,
      "from": "0xc8ebccC5F5689Fa8659d83713341e5aD19349448",
      "gasPrice": {
        "_hex": "0xcf849f17e"
      },
      "gasLimit": {
        "_hex": "0x5208"
      },
      "to": "0x0F87Fb507513e749081E34373c84E95e85b5c057",
      "value": {
        "_hex": "0x54a365bed8381810"
      },
      "nonce": 76,
      "data": "0x",
      "r": "0x82ef3188187afef155ce614697af784fc8ca62f486a1e161c9bc8b501d2b3e1b",
      "s": "0x40b32aede598562a1b26de7740fcd6e21c3d852bcc9d3fcafea0d4694fdf118f",
      "v": 27,
      "creates": null,
      "raw": "0xf86c4c850cf849f17e825208940f87fb507513e749081e34373c84e95e85b5c0578854a365bed8381810801ba082ef3188187afef155ce614697af784fc8ca62f486a1e161c9bc8b501d2b3e1ba040b32aede598562a1b26de7740fcd6e21c3d852bcc9d3fcafea0d4694fdf118f",
      "networkId": 0,
      "chainId": 0
    }
  ]
}