{
  "hash": "0xc5ae90276359311722d23adb4dd880b7c495f913b78fb9b33e92397c885d3086",
  "parentHash": "0xa6aa43c956c35cb86e73800d06ea7d4ba5c78b6eab061c13e567fc4322fcb86d",
  "number": 106117,
  "timestamp": 1439898908,
  "nonce": "0x8f4a56accc4679fc",
  "difficulty": 4468548977929,
  "gasLimit": {
    "_hex": "0x2fefd8"
  },
  "gasUsed": {
    "_hex": "0x5208"
  },
  "miner": "0xe6A7a1d47ff21B6321162AEA7C6CB457D5476Bca",
  "extraData": "0x476574682f76312e302e312d38326566323666362f6c696e75782f676f312e34",
  "transactions": [
    {
      "hash": "0xc58c7ffeaacef406dddd6291d617dc9b39fb1b9257466775b9b01cc5c679029f",
      "blockHash": "0xc5ae90276359311722d23adb4dd880b7c495f913b78fb9b33e92397c885d3086",
      "blockNumber": 106117,
      "transactionIndex": 0,
      "confirmations": null,
      "from": "0x54310b3aA88703a725dfa57DE6e646935164802C",
      "gasPrice": {
        "_hex": "0xd641f460d"
      },
      "gasLimit": {
        "_hex": "0x15f90"
      },
      "to": "0xa7ae731fD9EbF24D5a99104a3c2a65a7240B2B04",
      "value": {
        "_hex": "0x1b1ae4d6e2ef500000"
      },
      "nonce": 5,
      "data": "0x",
      "r": "0xf16c1cf713666ca2ddbdf7ed50eac404ba260814df2be39e61a518d2ffb9659e",
      "s": "0x2a3e664aab403c91f2827dd1ff9f6c2253c8fdb68a4d08fb7bc59ef7e0a560ec",
      "v": 27,
      "creates": null,
      "raw": "0xf86e05850d641f460d83015f9094a7ae731fd9ebf24d5a99104a3c2a65a7240b2b04891b1ae4d6e2ef500000801ba0f16c1cf713666ca2ddbdf7ed50eac404ba260814df2be39e61a518d2ffb9659ea02a3e664aab403c91f2827dd1ff9f6c2253c8fdb68a4d08fb7bc59ef7e0a560ec",
      "networkId": 0,
      "chainId": 0
    }
  ]
}