{
  "hash": "0x2f62c21cc62c3828f40b340a3dd62066c933202580923448d2544aa1fda213db",
  "parentHash": "0x372b4c8d613ba5d95eb472953bdd6422afce716ebe2d5714d073918d7b9de69b",
  "number": 74320,
  "timestamp": 1439384273,
  "nonce": "0xf6f9661093ebe95d",
  "difficulty": 2212916250616,
  "gasLimit": {
    "_hex": "0x2fefd8"
  },
  "gasUsed": {
    "_hex": "0x30bc2"
  },
  "miner": "0xf8E0CA3Ed80bd541b94BEdCf259e8CF2141A9523",
  "extraData": "0x476574682f76312e302e312f77696e646f77732f676f312e342e32",
  "transactions": [
    {
      "hash": "0xbaec4d2076387d1f49cabfd009acd433a4fbc0bf9b519af73dfb9ba38323c399",
      "blockHash": "0x2f62c21cc62c3828f40b340a3dd62066c933202580923448d2544aa1fda213db",
      "blockNumber": 74320,
      "transactionIndex": 0,
      "confirmations": null,
      "from": "0x326Be8F71bFb0379f989aAB1CC1fE37f0a771f60",
      "gasPrice": {
        "_hex": "0x102122ae244"
      },
      "gasLimit": {
        "_hex": "0x493e0"
      },
      "to": "0x88A91FD7Fb8AAEa8cDAD2C990f1DBDcd28022a02",
      "value": {
        "_hex": "0x8ac7230489e80000"
      },
      "nonce": 48,
      "data": "0x8d21618600000000000000000000000000000000000000000000000000000000000000800000000000000000000000000000000000000000000000000000000000000000",
      "r": "0xeab45c448960864b5ff3ffd9f1b727a3b9cd6324fb885236a212841a54e404b6",
      "s": "0x1420aa7c50f73f078dedeff4d33b86abd77557a1efac0002f074a84257b20144",
      "v": 27,
      "creates": null,
      "raw": "0xf8b330860102122ae244830493e09488a91fd7fb8aaea8cdad2c990f1dbdcd28022a02888ac7230489e80000b8448d216186000000000000000000000000000000000000000000000000000000000000008000000000000000000000000000000000000000000000000000000000000000001ba0eab45c448960864b5ff3ffd9f1b727a3b9cd6324fb885236a212841a54e404b6a01420aa7c50f73f078dedeff4d33b86abd77557a1efac0002f074a84257b20144",
      "networkId": 0,
      "chainId": 0
    },
    {
      "hash": "0x5bd010add7d869721e3c25e6887e5a635e63a84a1ff3ee01943683c88347e3fa",
      "blockHash": "0x2f62c21cc62c3828f40b340a3dd62066c933202580923448d2544aa1fda213db",
      "blockNumber": 74320,
      "transactionIndex": 1,
      "confirmations": null,
      "from": "0x6E8A26689f7A2FdEfd009CBaaA5310253450DABa",
      "gasPrice": {
        "_hex": "0xde9f018f1"
      },
      "gasLimit": {
        "_hex": "0x15f90"
      },
      "to": "0xd6986162E8B905e6a771C3BCD1b2baa2B0bb386F",
      "value": {
        "_hex": "0xde0b6b3a7640000"
      },
      "nonce": 2,
      "data": "0x",
      "r": "0x484fedd70aa4b3db4a8d36b8f9392e89042bf27a35a22ee8fb70acfca16f3abd",
      "s": "0x4b1f3e41f37c2f2ac4a4747c11d6241ac7fd142eb3a24aa8ac0e7b492fff9840",
      "v": 27,
      "creates": null,
      "raw": "0xf86d02850de9f018f183015f9094d6986162e8b905e6a771c3bcd1b2baa2b0bb386f880de0b6b3a7640000801ba0484fedd70aa4b3db4a8d36b8f9392e89042bf27a35a22ee8fb70acfca16f3abda04b1f3e41f37c2f2ac4a4747c11d6241ac7fd142eb3a24aa8ac0e7b492fff9840",
      "networkId": 0,
      "chainId": 0
    },
    {
      "hash": "0x32760e903077081a4d109678a7376bd38f480c6e48e90c3e634536e52c7e763f",
      "blockHash": "0x2f62c21cc62c3828f40b340a3dd62066c933202580923448d2544aa1fda213db",
      "blockNumber": 74320,
      "transactionIndex": 2,
      "confirmations": null,
      "from": "0xC3fe64D1af00F0d9c324E4387EF7533f7D788e95",
      "gasPrice": {
        "_hex": "0xddf9840b4"
      },
      "gasLimit": {
        "_hex": "0x5208"
      },
      "to": "0x32Be343B94f860124dC4fEe278FDCBD38C102D88",
      "value": {
        "_hex": "0x3b5391f63fe9c6000"
      },
      "nonce": 7,
      "data": "0x",
      "r": "0x110dd3aa89f93ebf01f194f28dc0105ae3897c05323bf654f8ffd9e188cbf210",
      "s": "0x3caf9c724312a57cbcc6b93fe9fca8c4a1278fbd6ca659f008ef688d5a272bc0",
      "v": 28,
      "creates": null,
      "raw": "0xf86d07850ddf9840b48252089432be343b94f860124dc4fee278fdcbd38c102d888903b5391f63fe9c6000801ca0110dd3aa89f93ebf01f194f28dc0105ae3897c05323bf654f8ffd9e188cbf210a03caf9c724312a57cbcc6b93fe9fca8c4a1278fbd6ca659f008ef688d5a272bc0",
      "networkId": 0,
      "chainId": 0
    },
    {
      "hash": "0x9119b7a690c77a514c8642990689d6f16ee20df17947d1dd53c17bee0d39df5b",
      "blockHash": "0x2f62c21cc62c3828f40b340a3dd62066c933202580923448d2544aa1fda213db",
      "blockNumber": 74320,
      "transactionIndex": 3,
      "confirmations": null,
      "from": "0xa70a9a7040d542C632D8e0bE7c5513A8a5Bbc752",
      "gasPrice": {
        "_hex": "0xddf9840b4"
      },
      "gasLimit": {
        "_hex": "0x5208"
      },
      "to": "0x32Be343B94f860124dC4fEe278FDCBD38C102D88",
      "value": {
        "_hex": "0x455f1f7548f21800"
      },
      "nonce": 32,
      "data": "0x",
      "r": "0x865b31d57dca28b6152096664e8f9ca69c20497b5ed486ae46f9ad37a3a76dd4",
      "s": "0x5e2b53ecbcd194bb4988fab5dd05138defb152e1e11808adb3116b9f6fcc8f00",
      "v": 27,
      "creates": null,
      "raw": "0xf86c20850ddf9840b48252089432be343b94f860124dc4fee278fdcbd38c102d8888455f1f7548f21800801ba0865b31d57dca28b6152096664e8f9ca69c20497b5ed486ae46f9ad37a3a76dd4a05e2b53ecbcd194bb4988fab5dd05138defb152e1e11808adb3116b9f6fcc8f00",
      "networkId": 0,
      "chainId": 0
    },
    {
      "hash": "0xb0c30b9a22113d9cfff0c1abf107c73a3b87a35e037c60d1849e718d97540cae",
      "blockHash": "0x2f62c21cc62c3828f40b340a3dd62066c933202580923448d2544aa1fda213db",
      "blockNumber": 74320,
      "transactionIndex": 4,
      "confirmations": null,
      "from": "0xAdCa16b4654a92cb67666C0cF61976cEEE81cEEB",
      "gasPrice": {
        "_hex": "0xddf9840b4"
      },
      "gasLimit": {
        "_hex": "0x5208"
      },
      "to": "0x32Be343B94f860124dC4fEe278FDCBD38C102D88",
      "value": {
        "_hex": "0x880bdeec35e71000"
      },
      "nonce": 0,
      "data": "0x",
      "r": "0x7f49ddb9453ab2e7833802354eecdc94966a1aad070674dc59f9439674709da8",
      "s": "0x3bcdcc4effda0c0a07221b57eb17161df602f03e1bf3d5fa8dbae34b9938b121",
      "v": 27,
      "creates": null,
      "raw": "0xf86c80850ddf9840b48252089432be343b94f860124dc4fee278fdcbd38c102d8888880bdeec35e71000801ba07f49ddb9453ab2e7833802354eecdc94966a1aad070674dc59f9439674709da8a03bcdcc4effda0c0a07221b57eb17161df602f03e1bf3d5fa8dbae34b9938b121",
      "networkId": 0,
      "chainId": 0
    },
    {
      "hash": "0x0874d628592be4ff1b9597343acedb74e5c674b1caa960277caafac7b51d8d5a",
      "blockHash": "0x2f62c21cc62c3828f40b340a3dd62066c933202580923448d2544aa1fda213db",
      "blockNumber": 74320,
      "transactionIndex": 5,
      "confirmations": null,
      "from": "0x49DC75D11428d1D718FC7b71941B71ae6F8bfA3C",
      "gasPrice": {
        "_hex": "0xd69b48315"
      },
      "gasLimit": {
        "_hex": "0x55f0"
      },
      "to": "0xeF76c144553e10420Aa7FA2c205Db698AF95bed3",
      "value": {
        "_hex": "0x1158e460913d00000"
      },
      "nonce": 3,
      "data": "0x",
      "r": "0xcee3556e3343d7a12c39f7d80cb233ad0a63b4441b83ade3525c287f9f8b5f20",
      "s": "0x123e6b1c14c0a2c51dc28e61bc1afb5a70e2a7cd09f3dc9c28a03ea20643a3f8",
      "v": 28,
      "creates": null,
      "raw": "0xf86d03850d69b483158255f094ef76c144553e10420aa7fa2c205db698af95bed38901158e460913d00000801ca0cee3556e3343d7a12c39f7d80cb233ad0a63b4441b83ade3525c287f9f8b5f20a0123e6b1c14c0a2c51dc28e61bc1afb5a70e2a7cd09f3dc9c28a03ea20643a3f8",
      "networkId": 0,
      "chainId": 0
    }
  ]
}