{
  "hash": "0x06f07da3053c0b53a9298b35246c91b0b84b2e2dfc76812462fb7270e0642ba1",
  "parentHash": "0x85f9791341e38670d36c321e16e234a5acb6760621af16894cd7d9fd7b228ae3",
  "number": 115226,
  "timestamp": 1440053711,
  "nonce": "0x9cfc84f04acdab6d",
  "difficulty": 4527355627310,
  "gasLimit": {
    "_hex": "0x2fefd8"
  },
  "gasUsed": {
    "_hex": "0x5208"
  },
  "miner": "0xD35dB22141772c5b778CaE0ec680EF1fEcF357bD",
  "extraData": "0x476574682f76312e302e312f6c696e75782f676f312e342e32",
  "transactions": [
    {
      "hash": "0x4fcc77a7209a5a0527bb78f33d7bbd8f787473c964a9f03280c66a082016809d",
      "blockHash": "0x06f07da3053c0b53a9298b35246c91b0b84b2e2dfc76812462fb7270e0642ba1",
      "blockNumber": 115226,
      "transactionIndex": 0,
      "confirmations": null,
      "from": "0xd2922F94cf946a2DE0c0F7e3d3560D2DCb1C2931",
      "gasPrice": {
        "_hex": "0xba43b7400"
      },
      "gasLimit": {
        "_hex": "0x5208"
      },
      "to": "0xC47Aaa860008be6f65B58c6C6E02a84e666EfE31",
      "value": {
        "_hex": "0x14bb939c1631b8f0"
      },
      "nonce": 5,
      "data": "0x",
      "r": "0x8bf1730ca9c11f6c663b44c9d4ac25ac06e5050a796ff795cdbffc5d3e19f1eb",
      "s": "0x1e102a94d9e829c30c8d3739979c9578a917edfe8a9a7d958c915bf6b4fc1b36",
      "v": 28,
      "creates": null,
      "raw": "0xf86c05850ba43b740082520894c47aaa860008be6f65b58c6c6e02a84e666efe318814bb939c1631b8f0801ca08bf1730ca9c11f6c663b44c9d4ac25ac06e5050a796ff795cdbffc5d3e19f1eba01e102a94d9e829c30c8d3739979c9578a917edfe8a9a7d958c915bf6b4fc1b36",
      "networkId": 0,
      "chainId": 0
    }
  ]
}