{
  "hash": "0x79da2d491c0d9864b457236197e90364e382232e6ba214b72ec4bcd5dfdbabab",
  "parentHash": "0x72cdd934a01d60722dd4c4e706eee17ecd851fe0c320394c71a12f74079a6754",
  "number": 62813,
  "timestamp": 1439194738,
  "nonce": "0x9d7c107cc73ba8b2",
  "difficulty": 1771030970233,
  "gasLimit": {
    "_hex": "0x2fefd8"
  },
  "gasUsed": {
    "_hex": "0x546c"
  },
  "miner": "0x88D74a59454F6cF3B51ef6b9136AFb6b9D405A88",
  "extraData": "0x476574682f76312e302e312d37666266393930632f6c696e75782f676f312e34",
  "transactions": [
    {
      "hash": "0xb5017b05c52d2063e22d851ac2122a6f304a82cd19842d79e3f86f7607047a5a",
      "blockHash": "0x79da2d491c0d9864b457236197e90364e382232e6ba214b72ec4bcd5dfdbabab",
      "blockNumber": 62813,
      "transactionIndex": 0,
      "confirmations": null,
      "from": "0x333Ad1596401e05Aea2d36Ca47318eF4Cd2cB3DF",
      "gasPrice": {
        "_hex": "0xd09205590"
      },
      "gasLimit": {
        "_hex": "0x55f0"
      },
      "to": "0x2910543Af39abA0Cd09dBb2D50200b3E800A63D2",
      "value": {
        "_hex": "0x14d1120d7b160000"
      },
      "nonce": 7,
      "data": "0x454e4b365733314547",
      "r": "0xf1eb330eab4c871879444a54e763db364dc362ef8175148417fc95e45be5ba70",
      "s": "0x6914a1b1d0b28ab616c9f7075552ea27960e2d5128881f237708a1a05654c4af",
      "v": 27,
      "creates": null,
      "raw": "0xf87507850d092055908255f0942910543af39aba0cd09dbb2d50200b3e800a63d28814d1120d7b16000089454e4b3657333145471ba0f1eb330eab4c871879444a54e763db364dc362ef8175148417fc95e45be5ba70a06914a1b1d0b28ab616c9f7075552ea27960e2d5128881f237708a1a05654c4af",
      "networkId": 0,
      "chainId": 0
    }
  ]
}