{
  "hash": "0xe3f8ad0a8391741e01961e924e5894c71bd8522a46008238bd016447ad7bb1fd",
  "parentHash": "0x54dd86dc9565f7233a134de492504022d80b7e89b103fa5433b9d7e09e983acd",
  "number": 107987,
  "timestamp": 1439932114,
  "nonce": "0x898a839b6c25e750",
  "difficulty": 4359802493417,
  "gasLimit": {
    "_hex": "0x2fefd8"
  },
  "gasUsed": {
    "_hex": "0x5208"
  },
  "miner": "0x1A22137e525478043F6E1394849e6C23932786C9",
  "extraData": "0x476574682f76312e302e312f6c696e75782f676f312e342e32",
  "transactions": [
    {
      "hash": "0x2c3856ebc9039390109df95f780cb966568f4855b2dc09dd435003f1b6394ff0",
      "blockHash": "0xe3f8ad0a8391741e01961e924e5894c71bd8522a46008238bd016447ad7bb1fd",
      "blockNumber": 107987,
      "transactionIndex": 0,
      "confirmations": null,
      "from": "0x0D4EcC7d750180EBf4A9Df728B6669B5Bceb5E40",
      "gasPrice": {
        "_hex": "0xdd2cf1220"
      },
      "gasLimit": {
        "_hex": "0x5208"
      },
      "to": "0x32Be343B94f860124dC4fEe278FDCBD38C102D88",
      "value": {
        "_hex": "0x2b59ccfe80094400"
      },
      "nonce": 86,
      "data": "0x",
      "r": "0xb7e0958b9f5f386bc1daa869e35c1de5ff6fcf44906c7f6e829b7419c499b2d0",
      "s": "0x0dcb6358177c3ff60ff54b26f6c6bd520b0eb03fdabac4253339a2ba0cc27784",
      "v": 28,
      "creates": null,
      "raw": "0xf86c56850dd2cf12208252089432be343b94f860124dc4fee278fdcbd38c102d88882b59ccfe80094400801ca0b7e0958b9f5f386bc1daa869e35c1de5ff6fcf44906c7f6e829b7419c499b2d0a00dcb6358177c3ff60ff54b26f6c6bd520b0eb03fdabac4253339a2ba0cc27784",
      "networkId": 0,
      "chainId": 0
    }
  ]
}