{
  "hash": "0xcfd09b6c3f94fd4061992477b2c0605a25e17d9822bb6f00f607afcb870f9059",
  "parentHash": "0x551cb3fb07dd946dd889bc4469a2ad7d5bee6f6b5102dcf4231f6acb63305d8f",
  "number": 52334,
  "timestamp": 1439019997,
  "nonce": "0x782a60231071ac8c",
  "difficulty": 1558021113302,
  "gasLimit": {
    "_hex": "0x12a09c"
  },
  "gasUsed": {
    "_hex": "0x5208"
  },
  "miner": "0x3F98e477a361F777DA14611a7e419A75Fd238b6b",
  "extraData": "0x476574682f76312e302e312f6c696e75782f676f312e342e32",
  "transactions": [
    {
      "hash": "0x4c4cf5fdd01ef62ab268d90680568372e91f59b5fd3572b155d6562f13527d98",
      "blockHash": "0xcfd09b6c3f94fd4061992477b2c0605a25e17d9822bb6f00f607afcb870f9059",
      "blockNumber": 52334,
      "transactionIndex": 0,
      "confirmations": null,
      "from": "0xCA092A957744f6385B1aee5dC694143E8A06F805",
      "gasPrice": {
        "_hex": "0xda20a523d"
      },
      "gasLimit": {
        "_hex": "0x15f90"
      },
      "to": "0x4E57775D79Ae04fCc3bD35F9E2E9058Ec0916518",
      "value": {
        "_hex": "0x78614a8b6e1400"
      },
      "nonce": 13,
      "data": "0x",
      "r": "0x67d097db446ae2c28e0f21e65d206b078a6a08d3fc678063a65fabb51df712d8",
      "s": "0x0d0a290de498cfea96f4a9b13adf4648675c2429c6353cc33537d8b2bf822b4c",
      "v": 27,
      "creates": null,
      "raw": "0xf86c0d850da20a523d83015f90944e57775d79ae04fcc3bd35f9e2e9058ec09165188778614a8b6e1400801ba067d097db446ae2c28e0f21e65d206b078a6a08d3fc678063a65fabb51df712d8a00d0a290de498cfea96f4a9b13adf4648675c2429c6353cc33537d8b2bf822b4c",
      "networkId": 0,
      "chainId": 0
    }
  ]
}