{
  "hash": "0x49f39994ad2929c5d6653fa449b2754a02100dc5b1b5c141b9e4524c1a6db618",
  "parentHash": "0x4cfc1730e207298b71bd97d498e38a93f9f6fd92d651b3a1d0251e189c04f9bf",
  "number": 98630,
  "timestamp": 1439776281,
  "nonce": "0x022d46ed7893248f",
  "difficulty": 3838663346610,
  "gasLimit": {
    "_hex": "0x2fefd8"
  },
  "gasUsed": {
    "_hex": "0xa410"
  },
  "miner": "0xe6A7a1d47ff21B6321162AEA7C6CB457D5476Bca",
  "extraData": "0x476574682f76312e302e312d38326566323666362f6c696e75782f676f312e34",
  "transactions": [
    {
      "hash": "0xa31e1688f78afe1775abd090243cc9a64c72fcefea81a1ad0445aa4c6568031d",
      "blockHash": "0x49f39994ad2929c5d6653fa449b2754a02100dc5b1b5c141b9e4524c1a6db618",
      "blockNumber": 98630,
      "transactionIndex": 0,
      "confirmations": null,
      "from": "0xa748fac76B1d857E2f77484a0F816463e8b56EDc",
      "gasPrice": {
        "_hex": "0x10bd2717cdb"
      },
      "gasLimit": {
        "_hex": "0x56ce"
      },
      "to": "0x60664De32450711A29F363c14A76107111689e17",
      "value": {
        "_hex": "0x124d2423518be0000"
      },
      "nonce": 10,
      "data": "0x",
      "r": "0x452831fa7d0552c6d7415558a07aaa276f22ecd5343cb0cbb38d072ed4f0e843",
      "s": "0x2b388691d369d331b4f37bf7636fbdcc833e6530e9f31785a0abd74c139064e6",
      "v": 28,
      "creates": null,
      "raw": "0xf86e0a86010bd2717cdb8256ce9460664de32450711a29f363c14a76107111689e17890124d2423518be0000801ca0452831fa7d0552c6d7415558a07aaa276f22ecd5343cb0cbb38d072ed4f0e843a02b388691d369d331b4f37bf7636fbdcc833e6530e9f31785a0abd74c139064e6",
      "networkId": 0,
      "chainId": 0
    },
    {
      "hash": "0xa17ec11cc4da3d1740759ddcf071b8e8c3c8df48abdcef39979b92c62e86c37c",
      "blockHash": "0x49f39994ad2929c5d6653fa449b2754a02100dc5b1b5c141b9e4524c1a6db618",
      "blockNumber": 98630,
      "transactionIndex": 1,
      "confirmations": null,
      "from": "0xd70c667add50d3d9989Ef58A81a698c09f415Bff",
      "gasPrice": {
        "_hex": "0xd8c49ff36"
      },
      "gasLimit": {
        "_hex": "0x15f90"
      },
      "to": "0x52191276589069F70F0E46bcCc718d793d1Aa1D0",
      "value": {
        "_hex": "0x257853b1dd8e0000"
      },
      "nonce": 10,
      "data": "0x",
      "r": "0xde48e4f9d6df9d3777f9b1f6c2baa444d5fd4cbf5eb1d03c1903341d9570601d",
      "s": "0x0a4f3c2d02f7a2de9c5103e751a8813425ac6844420f785b4d6036d8abc83334",
      "v": 27,
      "creates": null,
      "raw": "0xf86d0a850d8c49ff3683015f909452191276589069f70f0e46bccc718d793d1aa1d088257853b1dd8e0000801ba0de48e4f9d6df9d3777f9b1f6c2baa444d5fd4cbf5eb1d03c1903341d9570601da00a4f3c2d02f7a2de9c5103e751a8813425ac6844420f785b4d6036d8abc83334",
      "networkId": 0,
      "chainId": 0
    }
  ]
}