{
  "hash": "0xba78620ecdd822652383b79b7337f1b448993f8b96153d2956ee7e136fc53c48",
  "parentHash": "0x01edf581e64620454589c21281eaa4e222d23c8103a66d2e1e5d0731beb2e7a7",
  "number": 122128,
  "timestamp": 1440188588,
  "nonce": "0xce20d1e966099059",
  "difficulty": 4479671034495,
  "gasLimit": {
    "_hex": "0x2fefd8"
  },
  "gasUsed": {
    "_hex": "0xf618"
  },
  "miner": "0x52bc44d5378309EE2abF1539BF71dE1b7d7bE3b5",
  "extraData": "0xd783010002844765746887676f312e342e32856c696e7578",
  "transactions": [
    {
      "hash": "0x97506caa979d02c3498be0569f4b1732640e0cacdacd0d9fb13a57b6f02ad817",
      "blockHash": "0xba78620ecdd822652383b79b7337f1b448993f8b96153d2956ee7e136fc53c48",
      "blockNumber": 122128,
      "transactionIndex": 0,
      "confirmations": null,
      "from": "0x2910543Af39abA0Cd09dBb2D50200b3E800A63D2",
      "gasPrice": {
        "_hex": "0xd8cb35d83"
      },
      "gasLimit": {
        "_hex": "0x5208"
      },
      "to": "0x8F68fbE2DCFf038C24F650C9e05Ee478038171cd",
      "value": {
        "_hex": "0x6c6b819812855f8000"
      },
      "nonce": 1217,
      "data": "0x",
      "r": "0x37e4f8e1729bd60756909b8a836f7313f87a3147bbfcb2601418cd3de156e4f4",
      "s": "0x3acc1f1c4d666a4e93b70e6f2cb3a317e9cd2dc41594d1d4802243da877d6ab8",
      "v": 28,
      "creates": null,
      "raw": "0xf86f8204c1850d8cb35d83825208948f68fbe2dcff038c24f650c9e05ee478038171cd896c6b819812855f8000801ca037e4f8e1729bd60756909b8a836f7313f87a3147bbfcb2601418cd3de156e4f4a03acc1f1c4d666a4e93b70e6f2cb3a317e9cd2dc41594d1d4802243da877d6ab8",
      "networkId": 0,
      "chainId": 0
    },
    {
      "hash": "0xd0f50ba8b87bf928a23edcb405500cafb955e17da7292479c409af117df93184",
      "blockHash": "0xba78620ecdd822652383b79b7337f1b448993f8b96153d2956ee7e136fc53c48",
      "blockNumber": 122128,
      "transactionIndex": 1,
      "confirmations": null,
      "from": "0xa2037AA76DF2c3F5F04455844f057758fE1FA6B1",
      "gasPrice": {
        "_hex": "0xba43b7400"
      },
      "gasLimit": {
        "_hex": "0x7a120"
      },
      "to": "0xBBDa93a81B882774e1c9b5e3F933Fa35DaC8bc88",
      "value": {
        "_hex": "0x8ac7230489e80000"
      },
      "nonce": 3,
      "data": "0x",
      "r": "0xad70fc9ea494d4008c6f0ad69dbf4034721d8add32f1bfcb79f273b6e48deb5d",
      "s": "0x527bbb39f25f0d08ddac9e51d368047d47ff4cd44cb3c5c30d05f1590941cf99",
      "v": 27,
      "creates": null,
      "raw": "0xf86d03850ba43b74008307a12094bbda93a81b882774e1c9b5e3f933fa35dac8bc88888ac7230489e80000801ba0ad70fc9ea494d4008c6f0ad69dbf4034721d8add32f1bfcb79f273b6e48deb5da0527bbb39f25f0d08ddac9e51d368047d47ff4cd44cb3c5c30d05f1590941cf99",
      "networkId": 0,
      "chainId": 0
    },
    {
      "hash": "0x679c81defdffe12ccc3523d5a7033fcc22270be0d265eb5c1e75e8046408dd1f",
      "blockHash": "0xba78620ecdd822652383b79b7337f1b448993f8b96153d2956ee7e136fc53c48",
      "blockNumber": 122128,
      "transactionIndex": 2,
      "confirmations": null,
      "from": "0x16a4739e52878d2924e0F51cb5D3068aFafb397B",
      "gasPrice": {
        "_hex": "0xba43b7400"
      },
      "gasLimit": {
        "_hex": "0x7a120"
      },
      "to": "0xBBDa93a81B882774e1c9b5e3F933Fa35DaC8bc88",
      "value": {
        "_hex": "0x1a055690d9db80000"
      },
      "nonce": 3,
      "data": "0x",
      "r": "0xb2019d3cd05612c71650abedaa6f2bb6406100aa700a974643b8c4a659cc90b8",
      "s": "0x7db8997976b316b05c7e160ff46cf94c532cf440e87cfbf842c1ed216aa597ff",
      "v": 28,
      "creates": null,
      "raw": "0xf86e03850ba43b74008307a12094bbda93a81b882774e1c9b5e3f933fa35dac8bc888901a055690d9db80000801ca0b2019d3cd05612c71650abedaa6f2bb6406100aa700a974643b8c4a659cc90b8a07db8997976b316b05c7e160ff46cf94c532cf440e87cfbf842c1ed216aa597ff",
      "networkId": 0,
      "chainId": 0
    }
  ]
}