{
  "hash": "0xe196508a85c12b812622a92febc1ae0c0aa23eecad809e59d2334b5030ba6795",
  "parentHash": "0xa5581d69d7c3c161b0c199b55c9697e8ec6189f0ca2f7fcd0cc78d3e1aed41a0",
  "number": 110461,
  "timestamp": 1439974197,
  "nonce": "0x9bc6c071899de395",
  "difficulty": 4379850738012,
  "gasLimit": {
    "_hex": "0x2fefd8"
  },
  "gasUsed": {
    "_hex": "0xf618"
  },
  "miner": "0x7e8504a5e26df87f6D26fA1ba148BE146F42775A",
  "extraData": "0x476574682f76312e302e312f77696e646f77732f676f312e342e32",
  "transactions": [
    {
      "hash": "0x89582285a30885d150b0265d4581299573134db0323a748aea382cfeea26919c",
      "blockHash": "0xe196508a85c12b812622a92febc1ae0c0aa23eecad809e59d2334b5030ba6795",
      "blockNumber": 110461,
      "transactionIndex": 0,
      "confirmations": null,
      "from": "0xf0c896DB24137eDA6Ec88cF1a95217F8604aE55e",
      "gasPrice": {
        "_hex": "0xd9c4560e1"
      },
      "gasLimit": {
        "_hex": "0x5208"
      },
      "to": "0x32Be343B94f860124dC4fEe278FDCBD38C102D88",
      "value": {
        "_hex": "0x1e255464df8aa3000"
      },
      "nonce": 5,
      "data": "0x",
      "r": "0x7f38df46ce63cbf5039912a78e5a9fc53826c49574d6cd4ffaa089f2b616f8fa",
      "s": "0x73e9028e750dea33d5ac1d0772f74c99c2f420c37a4f02fcc53da6529ac28bbe",
      "v": 28,
      "creates": null,
      "raw": "0xf86d05850d9c4560e18252089432be343b94f860124dc4fee278fdcbd38c102d888901e255464df8aa3000801ca07f38df46ce63cbf5039912a78e5a9fc53826c49574d6cd4ffaa089f2b616f8faa073e9028e750dea33d5ac1d0772f74c99c2f420c37a4f02fcc53da6529ac28bbe",
      "networkId": 0,
      "chainId": 0
    },
    {
      "hash": "0x34e7232ec34193fb9d5eec455df4e51a34942c5cee503f9a3120e3aee5e93f4d",
      "blockHash": "0xe196508a85c12b812622a92febc1ae0c0aa23eecad809e59d2334b5030ba6795",
      "blockNumber": 110461,
      "transactionIndex": 1,
      "confirmations": null,
      "from": "0x19d1f826fce0c97733e0202eFCCc4A5608e8Eb6d",
      "gasPrice": {
        "_hex": "0xd9c4560e1"
      },
      "gasLimit": {
        "_hex": "0x5208"
      },
      "to": "0x32Be343B94f860124dC4fEe278FDCBD38C102D88",
      "value": {
        "_hex": "0x1f3b457c8a4910000"
      },
      "nonce": 5,
      "data": "0x",
      "r": "0x696d89306b7d8ae0b2c3a3d562d31ff70f8b80c05343246d4c4eba383628bab1",
      "s": "0x34fc23e8f2b11b01ed02fb69344618c431a4ed253270a62e228d47c0edfb6dd2",
      "v": 27,
      "creates": null,
      "raw": "0xf86d05850d9c4560e18252089432be343b94f860124dc4fee278fdcbd38c102d888901f3b457c8a4910000801ba0696d89306b7d8ae0b2c3a3d562d31ff70f8b80c05343246d4c4eba383628bab1a034fc23e8f2b11b01ed02fb69344618c431a4ed253270a62e228d47c0edfb6dd2",
      "networkId": 0,
      "chainId": 0
    },
    {
      "hash": "0xd081b38f4b8428989f5d66cebd150c4ba0f16d201e6678b3708cd9573580f521",
      "blockHash": "0xe196508a85c12b812622a92febc1ae0c0aa23eecad809e59d2334b5030ba6795",
      "blockNumber": 110461,
      "transactionIndex": 2,
      "confirmations": null,
      "from": "0xD0317e8d007a61B8d740516E8a268D4faDADccbF",
      "gasPrice": {
        "_hex": "0xd5bed1bd8"
      },
      "gasLimit": {
        "_hex": "0x15f90"
      },
      "to": "0xdeE4977F74E6Aef6D627191c9A45D2627e331150",
      "value": {
        "_hex": "0xd02ab486cedc0000"
      },
      "nonce": 10,
      "data": "0x",
      "r": "0xc0bcc7d8a189f328556993853cd2f2144a12a19787bab553381893acda817c7d",
      "s": "0x2b541ee4ec604ba007611ef752720155085ccb682bf88290937637b31a347eda",
      "v": 28,
      "creates": null,
      "raw": "0xf86d0a850d5bed1bd883015f9094dee4977f74e6aef6d627191c9a45d2627e33115088d02ab486cedc0000801ca0c0bcc7d8a189f328556993853cd2f2144a12a19787bab553381893acda817c7da02b541ee4ec604ba007611ef752720155085ccb682bf88290937637b31a347eda",
      "networkId": 0,
      "chainId": 0
    }
  ]
}