{
  "hash": "0xe893ca2c2c68639ae371c25b1ff2204fcddfa548fa5e92d0e125a70f093d3edc",
  "parentHash": "0x44e41ece1456378236748123bda308dfe9374df290622ac474e46db32281b812",
  "number": 104852,
  "timestamp": 1439876870,
  "nonce": "0x8203ec60d8e874b2",
  "difficulty": 4350797107311,
  "gasLimit": {
    "_hex": "0x2fefd8"
  },
  "gasUsed": {
    "_hex": "0x5208"
  },
  "miner": "0xe6A7a1d47ff21B6321162AEA7C6CB457D5476Bca",
  "extraData": "0x476574682f76312e302e312d38326566323666362f6c696e75782f676f312e34",
  "transactions": [
    {
      "hash": "0x551616f2e6c9e18beb15969126491139dc4acdbf536f340a668172adf4b67990",
      "blockHash": "0xe893ca2c2c68639ae371c25b1ff2204fcddfa548fa5e92d0e125a70f093d3edc",
      "blockNumber": 104852,
      "transactionIndex": 0,
      "confirmations": null,
      "from": "0x120A270bbC009644e35F0bB6ab13f95b8199c4ad",
      "gasPrice": {
        "_hex": "0xd6ff79e20"
      },
      "gasLimit": {
        "_hex": "0x3d090"
      },
      "to": "0x7381D1019F68429a862F6F7746e4e43cEb340C51",
      "value": {
        "_hex": "0x1e195252894e2400"
      },
      "nonce": 763,
      "data": "0x",
      "r": "0x013970d81b5eaf59fde095b5cdfba6bff740e46fe26c6b7e7235a083c04460da",
      "s": "0x2f5e077f56e3a11c717cc673cecbed6f7aa0a4ca6ecbdaed67c4eb702f5f6030",
      "v": 28,
      "creates": null,
      "raw": "0xf86f8202fb850d6ff79e208303d090947381d1019f68429a862f6f7746e4e43ceb340c51881e195252894e2400801ca0013970d81b5eaf59fde095b5cdfba6bff740e46fe26c6b7e7235a083c04460daa02f5e077f56e3a11c717cc673cecbed6f7aa0a4ca6ecbdaed67c4eb702f5f6030",
      "networkId": 0,
      "chainId": 0
    }
  ]
}