{
  "hash": "0x7e9af3d4fa2ac0f82f19952dd888959b996416590ab0a6d6e59f01736360629b",
  "parentHash": "0x62f33ae27dd94a6b5aca2160087ad853a5210106bbc526a4f61e6c8038268711",
  "number": 50885,
  "timestamp": 1438996103,
  "nonce": "0xf857a774bed3a251",
  "difficulty": 1548430096092,
  "gasLimit": {
    "_hex": "0x7faed"
  },
  "gasUsed": {
    "_hex": "0x546c"
  },
  "miner": "0xbb7B8287f3F0a933474a79eAe42CBCa977791171",
  "extraData": "0x476574682f4c5649562f76312e302e312f6c696e75782f676f312e342e32",
  "transactions": [
    {
      "hash": "0x5f92abd8fe600956c262f3c2f1c64c37abb5c49cdc6efc47cd42b6a1546cb961",
      "blockHash": "0x7e9af3d4fa2ac0f82f19952dd888959b996416590ab0a6d6e59f01736360629b",
      "blockNumber": 50885,
      "transactionIndex": 0,
      "confirmations": null,
      "from": "0xBAD4425E171c3e72975eB46ac0A015DB315a5D8f",
      "gasPrice": {
        "_hex": "0xd7d40ace3"
      },
      "gasLimit": {
        "_hex": "0x15f90"
      },
      "to": "0x1c7214DE5162a5606CF124ed3A8c3556b1899804",
      "value": {
        "_hex": "0x16345785d8a0000"
      },
      "nonce": 0,
      "data": "0x454e433933464b3330",
      "r": "0x37cfebc5f8b40c3ac097262907caa62320e73653222c9f27660f3a2224ed782d",
      "s": "0x4bde525b51fc7f802a1cd93b2a8120b07d14bd9d5d6571d0bcbe3e518e63b342",
      "v": 27,
      "creates": null,
      "raw": "0xf87680850d7d40ace383015f90941c7214de5162a5606cf124ed3a8c3556b189980488016345785d8a000089454e433933464b33301ba037cfebc5f8b40c3ac097262907caa62320e73653222c9f27660f3a2224ed782da04bde525b51fc7f802a1cd93b2a8120b07d14bd9d5d6571d0bcbe3e518e63b342",
      "networkId": 0,
      "chainId": 0
    }
  ]
}