{
  "hash": "0xb642a567171d25bb09ed8b2e67675df51d299b9774661a0036052b9d2855dbae",
  "parentHash": "0xb4839d0b4b90280655431f252456fc856020242f2b8117abc51acad3aedbb42d",
  "number": 113776,
  "timestamp": 1440029426,
  "nonce": "0x51ba43de1e6d52fe",
  "difficulty": 4444894734190,
  "gasLimit": {
    "_hex": "0x2fefd8"
  },
  "gasUsed": {
    "_hex": "0x14820"
  },
  "miner": "0xbb7B8287f3F0a933474a79eAe42CBCa977791171",
  "extraData": "0x476574682f4c5649562f76312e302e312f6c696e75782f676f312e342e32",
  "transactions": [
    {
      "hash": "0x9cc654557c19213db571b53dd2b67b7b9d6cba42bfe859770abaab74618e4c2d",
      "blockHash": "0xb642a567171d25bb09ed8b2e67675df51d299b9774661a0036052b9d2855dbae",
      "blockNumber": 113776,
      "transactionIndex": 0,
      "confirmations": null,
      "from": "0x2C3d5c472E35947eb8Bf098e5207b0e1f3D1Ef91",
      "gasPrice": {
        "_hex": "0xba43b7400"
      },
      "gasLimit": {
        "_hex": "0x5208"
      },
      "to": "0xC47Aaa860008be6f65B58c6C6E02a84e666EfE31",
      "value": {
        "_hex": "0xe84ddbc451e1ff0"
      },
      "nonce": 9,
      "data": "0x",
      "r": "0x74afe1db2407af27b6c5d72922bc98ef10676f94b929bb82fa6492628eeaddb2",
      "s": "0x01dd172ed8018a69b07dceb525f9b918ff8d43424a523c6169d456f51ebe5cfb",
      "v": 27,
      "creates": null,
      "raw": "0xf86c09850ba43b740082520894c47aaa860008be6f65b58c6c6e02a84e666efe31880e84ddbc451e1ff0801ba074afe1db2407af27b6c5d72922bc98ef10676f94b929bb82fa6492628eeaddb2a001dd172ed8018a69b07dceb525f9b918ff8d43424a523c6169d456f51ebe5cfb",
      "networkId": 0,
      "chainId": 0
    },
    {
      "hash": "0xdb4d93dde1839cb64856f22176290dfe1a395c4a6a8e7302e3db75e403d654cd",
      "blockHash": "0xb642a567171d25bb09ed8b2e67675df51d299b9774661a0036052b9d2855dbae",
      "blockNumber": 113776,
      "transactionIndex": 1,
      "confirmations": null,
      "from": "0x6c526EC857c116541b66ED11eC3bE06b1C2B7E37",
      "gasPrice": {
        "_hex": "0xba43b7400"
      },
      "gasLimit": {
        "_hex": "0x5208"
      },
      "to": "0xC47Aaa860008be6f65B58c6C6E02a84e666EfE31",
      "value": {
        "_hex": "0x18a91ebc8943faf0"
      },
      "nonce": 2,
      "data": "0x",
      "r": "0x33acf9a3012bc85b7b8a4079d1b0ec0386e954f24c3f27dc1f6c4116f5a15fe7",
      "s": "0x258fa96b6c049ac5303853a953cde8dad7e6171a9b7487a5339440e42a672cee",
      "v": 28,
      "creates": null,
      "raw": "0xf86c02850ba43b740082520894c47aaa860008be6f65b58c6c6e02a84e666efe318818a91ebc8943faf0801ca033acf9a3012bc85b7b8a4079d1b0ec0386e954f24c3f27dc1f6c4116f5a15fe7a0258fa96b6c049ac5303853a953cde8dad7e6171a9b7487a5339440e42a672cee",
      "networkId": 0,
      "chainId": 0
    },
    {
      "hash": "0x6088e201c760d065f2861a42a4f50f611513e5295cf8ad4c3e0343eae171076c",
      "blockHash": "0xb642a567171d25bb09ed8b2e67675df51d299b9774661a0036052b9d2855dbae",
      "blockNumber": 113776,
      "transactionIndex": 2,
      "confirmations": null,
      "from": "0x07Ccb8e7Bc2978ec58e7a633c6894f460883a510",
      "gasPrice": {
        "_hex": "0xba43b7400"
      },
      "gasLimit": {
        "_hex": "0x5208"
      },
      "to": "0xC47Aaa860008be6f65B58c6C6E02a84e666EfE31",
      "value": {
        "_hex": "0x772f56c12d72cb80"
      },
      "nonce": 3,
      "data": "0x",
      "r": "0x1853d8eb11f231fb713ea6dda0bbc1364e8a9003872017d8f921ce28fae9e965",
      "s": "0x168b51811e680b8be798a0d934d8cfa57f83ab60d65907a3bc14a7b10665936f",
      "v": 28,
      "creates": null,
      "raw": "0xf86c03850ba43b740082520894c47aaa860008be6f65b58c6c6e02a84e666efe3188772f56c12d72cb80801ca01853d8eb11f231fb713ea6dda0bbc1364e8a9003872017d8f921ce28fae9e965a0168b51811e680b8be798a0d934d8cfa57f83ab60d65907a3bc14a7b10665936f",
      "networkId": 0,
      "chainId": 0
    },
    {
      "hash": "0x0f4e29160bb765deaa6e3079d9b51d684e984abbceedc78b29a70d6560c90b12",
      "blockHash": "0xb642a567171d25bb09ed8b2e67675df51d299b9774661a0036052b9d2855dbae",
      "blockNumber": 113776,
      "transactionIndex": 3,
      "confirmations": null,
      "from": "0xC8FC262b7cBF3f91Dab62A097955e6544ae2ba2E",
      "gasPrice": {
        "_hex": "0xba43b7400"
      },
      "gasLimit": {
        "_hex": "0x5208"
      },
      "to": "0xC47Aaa860008be6f65B58c6C6E02a84e666EfE31",
      "value": {
        "_hex": "0x21ec824fd69d5880"
      },
      "nonce": 1,
      "data": "0x",
      "r": "0xfbc7efc5bb14825a38465055af5d2cfed8807cea395ab8855bcc9cf32ac7efa5",
      "s": "0x6391bb95d91d8449b2ae44e3c93c7f6c488e53e35bf5a46bd15b5cb0a353fc64",
      "v": 28,
      "creates": null,
      "raw": "0xf86c01850ba43b740082520894c47aaa860008be6f65b58c6c6e02a84e666efe318821ec824fd69d5880801ca0fbc7efc5bb14825a38465055af5d2cfed8807cea395ab8855bcc9cf32ac7efa5a06391bb95d91d8449b2ae44e3c93c7f6c488e53e35bf5a46bd15b5cb0a353fc64",
      "networkId": 0,
      "chainId": 0
    }
  ]
}