{
  "hash": "0x720701528d71be1a245f87ced30b9e6be3e5e70abccc3ebf0cd0a79214fd163b",
  "parentHash": "0x4144a4a7c6effe407af320a65288ea969857d059c913140d877bb62bd9f00b00",
  "number": 71051,
  "timestamp": 1439329723,
  "nonce": "0x46a15fca348ed455",
  "difficulty": 2150912810943,
  "gasLimit": {
    "_hex": "0x2fefd5"
  },
  "gasUsed": {
    "_hex": "0xe608"
  },
  "miner": "0xe6A7a1d47ff21B6321162AEA7C6CB457D5476Bca",
  "extraData": "0x476574682f76312e302e312d38326566323666362f6c696e75782f676f312e34",
  "transactions": [
    {
      "hash": "0x4c062a88ae02a69313905c6b7b01dd9e7af6ce02ee6ea13c06439e89bfdb7b88",
      "blockHash": "0x720701528d71be1a245f87ced30b9e6be3e5e70abccc3ebf0cd0a79214fd163b",
      "blockNumber": 71051,
      "transactionIndex": 0,
      "confirmations": null,
      "from": "0x17580B766f7453525ca4C6A88b01b50570EA088C",
      "gasPrice": {
        "_hex": "0xe1322e544"
      },
      "gasLimit": {
        "_hex": "0x61a80"
      },
      "to": "0x5Fe5B7546D1628f7348B023A0393de1FC825A4fD",
      "value": {
        "_hex": "0x8ac7230489e80000"
      },
      "nonce": 90,
      "data": "0xb595b8b50000000000000000000000000000000000000000000000000000000000000001",
      "r": "0x4520b375168252d4377a1b44fdf38b5eceb303af0700681b2b787efb99d563a3",
      "s": "0x02688309aa47782c305d1bee3f75f96dd6393e9ed53ddde2a156c12922e2d345",
      "v": 28,
      "creates": null,
      "raw": "0xf8915a850e1322e54483061a80945fe5b7546d1628f7348b023a0393de1fc825a4fd888ac7230489e80000a4b595b8b500000000000000000000000000000000000000000000000000000000000000011ca04520b375168252d4377a1b44fdf38b5eceb303af0700681b2b787efb99d563a3a002688309aa47782c305d1bee3f75f96dd6393e9ed53ddde2a156c12922e2d345",
      "networkId": 0,
      "chainId": 0
    },
    {
      "hash": "0x7809db93b1715ca164a0e90ed10966521c6e9bddbed897ea28fb5a24e8e33bd6",
      "blockHash": "0x720701528d71be1a245f87ced30b9e6be3e5e70abccc3ebf0cd0a79214fd163b",
      "blockNumber": 71051,
      "transactionIndex": 1,
      "confirmations": null,
      "from": "0xB57a69A9cFD1BC39510a70Ab14De3BDa11d1dF70",
      "gasPrice": {
        "_hex": "0xdee04cd6e"
      },
      "gasLimit": {
        "_hex": "0x15f90"
      },
      "to": "0x197D8Ac346334Cf05e98ABd8f8c886Af37F6D274",
      "value": {
        "_hex": "0xa4cc799563c380000"
      },
      "nonce": 1,
      "data": "0x",
      "r": "0x30ad85efda05fe1a5b5a2d2e55df3505894b4944e9040de38ad95607a019acdb",
      "s": "0x65b6300660f0884a2e2801d9359fa6c9c1446147e1d0fc7857e1d012c9dec2b2",
      "v": 28,
      "creates": null,
      "raw": "0xf86e01850dee04cd6e83015f9094197d8ac346334cf05e98abd8f8c886af37f6d274890a4cc799563c380000801ca030ad85efda05fe1a5b5a2d2e55df3505894b4944e9040de38ad95607a019acdba065b6300660f0884a2e2801d9359fa6c9c1446147e1d0fc7857e1d012c9dec2b2",
      "networkId": 0,
      "chainId": 0
    }
  ]
}