{
  "hash": "0xed2bbbdd2b13237c0cb0951a796bc87eb16d6c3faafa8eb5617d47e87bbe6ee3",
  "parentHash": "0x340649f0ced4cd8015fd7990e4f9493e14cab8948ae43f13f5b256f91d9b50f2",
  "number": 101301,
  "timestamp": 1439820811,
  "nonce": "0xf7e20eb6065a1617",
  "difficulty": 3809437695659,
  "gasLimit": {
    "_hex": "0x2fefd8"
  },
  "gasUsed": {
    "_hex": "0x5208"
  },
  "miner": "0xe6A7a1d47ff21B6321162AEA7C6CB457D5476Bca",
  "extraData": "0x476574682f76312e302e312d38326566323666362f6c696e75782f676f312e34",
  "transactions": [
    {
      "hash": "0x696421a50cddb6f58378b174903f1bb1967c7daa5052a0df11e4f17fe6907deb",
      "blockHash": "0xed2bbbdd2b13237c0cb0951a796bc87eb16d6c3faafa8eb5617d47e87bbe6ee3",
      "blockNumber": 101301,
      "transactionIndex": 0,
      "confirmations": null,
      "from": "0x95B8Be50517B180F2F101f1cFe0E4C66Ad6fa7dd",
      "gasPrice": {
        "_hex": "0xcfabccaf6"
      },
      "gasLimit": {
        "_hex": "0x7530"
      },
      "to": "0xbCab99c9250A69cCD7395f2543ed52FF1e220398",
      "value": {
        "_hex": "0x429d069189e0000"
      },
      "nonce": 11,
      "data": "0x",
      "r": "0xe673469d1e700fdeb844163e1b2b6ec3a0d55d9f530de1d8756beff6461e8c11",
      "s": "0x11d9fe10b8d42d5466851e9806e60979f635eff9d8f31d44fef394e8c0a2e898",
      "v": 27,
      "creates": null,
      "raw": "0xf86c0b850cfabccaf682753094bcab99c9250a69ccd7395f2543ed52ff1e220398880429d069189e0000801ba0e673469d1e700fdeb844163e1b2b6ec3a0d55d9f530de1d8756beff6461e8c11a011d9fe10b8d42d5466851e9806e60979f635eff9d8f31d44fef394e8c0a2e898",
      "networkId": 0,
      "chainId": 0
    }
  ]
}