{
  "hash": "0xd3474f32405e0ea4c912d8f386645ee85677c5935ab359f919f7de25e1a2d52f",
  "parentHash": "0x53f6d90c54bfcd71fa99ff0ec18e773d151312ec2bedd5a4fedb126d45e152c0",
  "number": 60380,
  "timestamp": 1439154566,
  "nonce": "0x9a96d559bc2f53cc",
  "difficulty": 1741526516958,
  "gasLimit": {
    "_hex": "0x2fefd8"
  },
  "gasUsed": {
    "_hex": "0xa410"
  },
  "miner": "0x02020D22dCF88f5eDd66B382D7da019F161fB7e3",
  "extraData": "0x",
  "transactions": [
    {
      "hash": "0xc22695331e51f46c4a0aba38eae9b54f9f6a9f642cf39421a0f463175d80e8a2",
      "blockHash": "0xd3474f32405e0ea4c912d8f386645ee85677c5935ab359f919f7de25e1a2d52f",
      "blockNumber": 60380,
      "transactionIndex": 0,
      "confirmations": null,
      "from": "0x26C4184d1125875eEB3F51391352C953F44A3b46",
      "gasPrice": {
        "_hex": "0xde606295b"
      },
      "gasLimit": {
        "_hex": "0x5208"
      },
      "to": "0x32Be343B94f860124dC4fEe278FDCBD38C102D88",
      "value": {
        "_hex": "0xddc429624d6ec00"
      },
      "nonce": 0,
      "data": "0x",
      "r": "0xd451e43ff6d4f317bec3ff616b4581f3c91780d99f67545a9ee172167bcd3040",
      "s": "0x35c1142af9437ef6c123d72a26327ec76450264486230eae1c7e1905932f449a",
      "v": 28,
      "creates": null,
      "raw": "0xf86c80850de606295b8252089432be343b94f860124dc4fee278fdcbd38c102d88880ddc429624d6ec00801ca0d451e43ff6d4f317bec3ff616b4581f3c91780d99f67545a9ee172167bcd3040a035c1142af9437ef6c123d72a26327ec76450264486230eae1c7e1905932f449a",
      "networkId": 0,
      "chainId": 0
    },
    {
      "hash": "0x17b62bed1e941d5aed3e0d568124b109f526bf89b69ea9455eed4adff684de54",
      "blockHash": "0xd3474f32405e0ea4c912d8f386645ee85677c5935ab359f919f7de25e1a2d52f",
      "blockNumber": 60380,
      "transactionIndex": 1,
      "confirmations": null,
      "from": "0xE61f07672D088d1df25512d8a9A7A9B9a47A9654",
      "gasPrice": {
        "_hex": "0xde606295b"
      },
      "gasLimit": {
        "_hex": "0x5208"
      },
      "to": "0x32Be343B94f860124dC4fEe278FDCBD38C102D88",
      "value": {
        "_hex": "0x56bc2ea0fe0830000"
      },
      "nonce": 1,
      "data": "0x",
      "r": "0x723152a34aace784ca0cb5e9fca88f4dce0e2039704fd6da4f56af8310db8205",
      "s": "0x783650a6830346d7e2f177980c5b21ca132ea3bad1a223c30944553be326e73d",
      "v": 27,
      "creates": null,
      "raw": "0xf86d01850de606295b8252089432be343b94f860124dc4fee278fdcbd38c102d8889056bc2ea0fe0830000801ba0723152a34aace784ca0cb5e9fca88f4dce0e2039704fd6da4f56af8310db8205a0783650a6830346d7e2f177980c5b21ca132ea3bad1a223c30944553be326e73d",
      "networkId": 0,
      "chainId": 0
    }
  ]
}