{
  "hash": "0x0259e2be3cfe2d9b2f618e0e32d64b84212469f737630697f628dffcf92f65cd",
  "parentHash": "0xe9abb58bee73231eb9b792187294aa2d9929d395dbe7e4e779adc8011abee4e5",
  "number": 47910,
  "timestamp": 1438948278,
  "nonce": "0xeeaf7671231bf586",
  "difficulty": 1458688326817,
  "gasLimit": {
    "_hex": "0x105ba"
  },
  "gasUsed": {
    "_hex": "0x546c"
  },
  "miner": "0xab84940B570d6358ed6A9Dbf7e0bc8Ec8F5A6E89",
  "extraData": "0x322831652933",
  "transactions": [
    {
      "hash": "0x5ad97767d50e273c6fa413f3ae27e87c73394748893e6ac5cef93f38a414a667",
      "blockHash": "0x0259e2be3cfe2d9b2f618e0e32d64b84212469f737630697f628dffcf92f65cd",
      "blockNumber": 47910,
      "transactionIndex": 0,
      "confirmations": null,
      "from": "0x378ea1dc8edc19BAe82638029eA8752ce98BcFCD",
      "gasPrice": {
        "_hex": "0x1031cd90e7c"
      },
      "gasLimit": {
        "_hex": "0x7918"
      },
      "to": "0x2910543Af39abA0Cd09dBb2D50200b3E800A63D2",
      "value": {
        "_hex": "0x56bc75e2d63100000"
      },
      "nonce": 1,
      "data": "0x454e3543484a4a3738",
      "r": "0x14ca6a77c4a56648309b792a752d79a291ee161079f73d24784a186c23a08765",
      "s": "0x1a623bb252da0e93fc35eb0d2f2499dd4c8dc9088a140f88369807505fbb8b7d",
      "v": 27,
      "creates": null,
      "raw": "0xf877018601031cd90e7c827918942910543af39aba0cd09dbb2d50200b3e800a63d289056bc75e2d6310000089454e3543484a4a37381ba014ca6a77c4a56648309b792a752d79a291ee161079f73d24784a186c23a08765a01a623bb252da0e93fc35eb0d2f2499dd4c8dc9088a140f88369807505fbb8b7d",
      "networkId": 0,
      "chainId": 0
    }
  ]
}