{
  "hash": "0xa20db2a4154b3c6fb6d524a3b05ab19326c55ac1bc1825b6a01c8efc1b0205cd",
  "parentHash": "0x73dc6f887a2f89be870b89a6725c23535f27f0619d597e7ec4dd2cc27a562eca",
  "number": 52542,
  "timestamp": 1439023320,
  "nonce": "0x7b32b511bf6c389e",
  "difficulty": 1564080253318,
  "gasLimit": {
    "_hex": "0x1522cb"
  },
  "gasUsed": {
    "_hex": "0xf4240"
  },
  "miner": "0xf32866D5cE9a9b5673e076be48AbCd6ED48ADe78",
  "extraData": "0x476574682f76312e302e312d38326566323666362f6c696e75782f676f312e34",
  "transactions": [
    {
      "hash": "0xda0cce23b7c3d31cfe0bb177955da7c66917879b7ddddae2345187aead413410",
      "blockHash": "0xa20db2a4154b3c6fb6d524a3b05ab19326c55ac1bc1825b6a01c8efc1b0205cd",
      "blockNumber": 52542,
      "transactionIndex": 0,
      "confirmations": null,
      "from": "0x54dAeb3E8a6BBC797E4aD2b0339f134b186e4637",
      "gasPrice": {
        "_hex": "0xe7d27df17"
      },
      "gasLimit": {
        "_hex": "0x7a120"
      },
      "to": "0xBAA54d6E90c3F4d7Ebec11bD180134C7eD8eBb52",
      "value": {
        "_hex": "0x16345785d8a0000"
      },
      "nonce": 689,
      "data": "0x",
      "r": "0x00259dbdcbb5f2b8c8f7f5d22950ca39c29bae925ad04ff3b84d15c8dfacd887",
      "s": "0x429fee4a98c94f4ae2e153e891b3fe9a5c2bda54a2dace4b142aa93fcdff336c",
      "v": 28,
      "creates": null,
      "raw": "0xf86e8202b1850e7d27df178307a12094baa54d6e90c3f4d7ebec11bd180134c7ed8ebb5288016345785d8a0000801c9f259dbdcbb5f2b8c8f7f5d22950ca39c29bae925ad04ff3b84d15c8dfacd887a0429fee4a98c94f4ae2e153e891b3fe9a5c2bda54a2dace4b142aa93fcdff336c",
      "networkId": 0,
      "chainId": 0
    },
    {
      "hash": "0xe6220c97a5824f922180fa5bcf831fb7e90a02162db7ce2846d6fc1b636afdfb",
      "blockHash": "0xa20db2a4154b3c6fb6d524a3b05ab19326c55ac1bc1825b6a01c8efc1b0205cd",
      "blockNumber": 52542,
      "transactionIndex": 1,
      "confirmations": null,
      "from": "0x54dAeb3E8a6BBC797E4aD2b0339f134b186e4637",
      "gasPrice": {
        "_hex": "0xe7d27df17"
      },
      "gasLimit": {
        "_hex": "0x7a120"
      },
      "to": "0xBAA54d6E90c3F4d7Ebec11bD180134C7eD8eBb52",
      "value": {
        "_hex": "0x16345785d8a0000"
      },
      "nonce": 690,
      "data": "0x",
      "r": "0x6b4098c37b8759ba5b53738be805d2439eda7f6ffceeede3b4c14e83b19400d4",
      "s": "0x36862ca1ab887dd4674207e5d144d0e3d97c99b983cc1ca4dc9efc0ef83f459d",
      "v": 28,
      "creates": null,
      "raw": "0xf86f8202b2850e7d27df178307a12094baa54d6e90c3f4d7ebec11bd180134c7ed8ebb5288016345785d8a0000801ca06b4098c37b8759ba5b53738be805d2439eda7f6ffceeede3b4c14e83b19400d4a036862ca1ab887dd4674207e5d144d0e3d97c99b983cc1ca4dc9efc0ef83f459d",
      "networkId": 0,
      "chainId": 0
    }
  ]
}