{
  "hash": "0xc27365628415f666565762a1754475cc4e0d864d0b2928b28e95b67ba6c46833",
  "parentHash": "0xc9a6105e0a9c2262d51d1b568a5877a5b2f5bf9e3ca084a3d1764c8d1e14fba3",
  "number": 117839,
  "timestamp": 1440116161,
  "nonce": "0xd7d7f44bfede5d70",
  "difficulty": 4350434582010,
  "gasLimit": {
    "_hex": "0x2fefd8"
  },
  "gasUsed": {
    "_hex": "0x14820"
  },
  "miner": "0xf8E0CA3Ed80bd541b94BEdCf259e8CF2141A9523",
  "extraData": "0x",
  "transactions": [
    {
      "hash": "0x79ccb46bb4672c2624c327e9d353eae582e0886b99ec2655e086bc881879a674",
      "blockHash": "0xc27365628415f666565762a1754475cc4e0d864d0b2928b28e95b67ba6c46833",
      "blockNumber": 117839,
      "transactionIndex": 0,
      "confirmations": null,
      "from": "0xD9666150A9dA92d9108198a4072970805a8B3428",
      "gasPrice": {
        "_hex": "0xba43b7400"
      },
      "gasLimit": {
        "_hex": "0x5208"
      },
      "to": "0x32Be343B94f860124dC4fEe278FDCBD38C102D88",
      "value": {
        "_hex": "0x455fd68a17f06000"
      },
      "nonce": 77,
      "data": "0x",
      "r": "0x3fff882a6042e3f9f7ef737254323cfbff31971a60b5aff632beee364ed345cb",
      "s": "0x1556dd64798c58b699504338aa6a932e3bf72387f3047a9c306e34fc0eeb68be",
      "v": 27,
      "creates": null,
      "raw": "0xf86c4d850ba43b74008252089432be343b94f860124dc4fee278fdcbd38c102d8888455fd68a17f06000801ba03fff882a6042e3f9f7ef737254323cfbff31971a60b5aff632beee364ed345cba01556dd64798c58b699504338aa6a932e3bf72387f3047a9c306e34fc0eeb68be",
      "networkId": 0,
      "chainId": 0
    },
    {
      "hash": "0x94baede5ce8c978ccc3fd41f578016ee5c6963e1f5008029dc8d954eb7f141b5",
      "blockHash": "0xc27365628415f666565762a1754475cc4e0d864d0b2928b28e95b67ba6c46833",
      "blockNumber": 117839,
      "transactionIndex": 1,
      "confirmations": null,
      "from": "0x4bA6C728e6251DC89C317f7dbCA89D4136C0baB0",
      "gasPrice": {
        "_hex": "0xba43b7400"
      },
      "gasLimit": {
        "_hex": "0x5208"
      },
      "to": "0x32Be343B94f860124dC4fEe278FDCBD38C102D88",
      "value": {
        "_hex": "0x2e01181c2c226c00"
      },
      "nonce": 11,
      "data": "0x",
      "r": "0xe4bfec657ed657c724a5460fe6a1593930612697bc636d071be11a8442f3ebbb",
      "s": "0x6d423a26b9d298ae16fb2732b9ba0c8210b5424e392060d6add8f44cf941b804",
      "v": 27,
      "creates": null,
      "raw": "0xf86c0b850ba43b74008252089432be343b94f860124dc4fee278fdcbd38c102d88882e01181c2c226c00801ba0e4bfec657ed657c724a5460fe6a1593930612697bc636d071be11a8442f3ebbba06d423a26b9d298ae16fb2732b9ba0c8210b5424e392060d6add8f44cf941b804",
      "networkId": 0,
      "chainId": 0
    },
    {
      "hash": "0xdf6b18b22f8eddb97c1511c463a1cdc064b6aa21599f64f869a64fd5406d26f1",
      "blockHash": "0xc27365628415f666565762a1754475cc4e0d864d0b2928b28e95b67ba6c46833",
      "blockNumber": 117839,
      "transactionIndex": 2,
      "confirmations": null,
      "from": "0xc544B25bb91b87e380dda392687c6216b0260671",
      "gasPrice": {
        "_hex": "0xba43b7400"
      },
      "gasLimit": {
        "_hex": "0x5208"
      },
      "to": "0x32Be343B94f860124dC4fEe278FDCBD38C102D88",
      "value": {
        "_hex": "0x148a0ba279c21800"
      },
      "nonce": 14,
      "data": "0x",
      "r": "0xd34bbdb22fdef7e9793f21b0aa39aba693243c3b73ad9782b916cfdede10c7d7",
      "s": "0x6bdc50a3aece3fc886f0d968411c709115df1a7fd878cf158188b2a08db696b2",
      "v": 27,
      "creates": null,
      "raw": "0xf86c0e850ba43b74008252089432be343b94f860124dc4fee278fdcbd38c102d8888148a0ba279c21800801ba0d34bbdb22fdef7e9793f21b0aa39aba693243c3b73ad9782b916cfdede10c7d7a06bdc50a3aece3fc886f0d968411c709115df1a7fd878cf158188b2a08db696b2",
      "networkId": 0,
      "chainId": 0
    },
    {
      "hash": "0x516593d7aa070b77bf8d55e1bb486859de6044293c6604f8255f9c61d9b52119",
      "blockHash": "0xc27365628415f666565762a1754475cc4e0d864d0b2928b28e95b67ba6c46833",
      "blockNumber": 117839,
      "transactionIndex": 3,
      "confirmations": null,
      "from": "0xBDda295a4aa9E3A60063548157510B47c6BE932f",
      "gasPrice": {
        "_hex": "0xba43b7400"
      },
      "gasLimit": {
        "_hex": "0x5208"
      },
      "to": "0x32Be343B94f860124dC4fEe278FDCBD38C102D88",
      "value": {
        "_hex": "0x11824b1784b5d400"
      },
      "nonce": 11,
      "data": "0x",
      "r": "0xb6787496528e1ed37c9ea14df0dd4147daa3c366edac0f27df1eb4275740da67",
      "s": "0x08b1f850291e4c4d5ef1d243c58fb819f51b4bb45754168d427c74b40bb14a2c",
      "v": 28,
      "creates": null,
      "raw": "0xf86c0b850ba43b74008252089432be343b94f860124dc4fee278fdcbd38c102d888811824b1784b5d400801ca0b6787496528e1ed37c9ea14df0dd4147daa3c366edac0f27df1eb4275740da67a008b1f850291e4c4d5ef1d243c58fb819f51b4bb45754168d427c74b40bb14a2c",
      "networkId": 0,
      "chainId": 0
    }
  ]
}