{
  "hash": "0x2f8d1113c47acac4a125f6f48e3e3f2e32947244214a7c4451e4f6998d503019",
  "parentHash": "0x796d0bd9c045a42592fa6f8d7e65202a828f1452fb9d4ee32bdc4c678e4164bd",
  "number": 119062,
  "timestamp": 1440136090,
  "nonce": "0xf3b05ae61b4e90ed",
  "difficulty": 4424776621412,
  "gasLimit": {
    "_hex": "0x2fefd8"
  },
  "gasUsed": {
    "_hex": "0x5208"
  },
  "miner": "0x2134e2a2b718DCa96580ECAC31E653Ea1fdd58DA",
  "extraData": "0x",
  "transactions": [
    {
      "hash": "0x905a60a5b156152a99ac3fa0c00bc9927c2937e21647e4d2c0a0a22d5cd655a1",
      "blockHash": "0x2f8d1113c47acac4a125f6f48e3e3f2e32947244214a7c4451e4f6998d503019",
      "blockNumber": 119062,
      "transactionIndex": 0,
      "confirmations": null,
      "from": "0x32Be343B94f860124dC4fEe278FDCBD38C102D88",
      "gasPrice": {
        "_hex": "0xba43b7400"
      },
      "gasLimit": {
        "_hex": "0x5208"
      },
      "to": "0xeDbAC9527b54D6Df7aE2E000cCa3613Ba015cae3",
      "value": {
        "_hex": "0x1a055690d9db80000"
      },
      "nonce": 1500,
      "data": "0x",
      "r": "0x2d3e2d6646c4e33d8f56036ac01f5af92e03c2fe991bf048bf5aceb41a1fcaac",
      "s": "0x0fccdcd874c1d398fee1fbe7bbfd5a76fef1185d7e1949e7e4116b029c9c0f9b",
      "v": 27,
      "creates": null,
      "raw": "0xf86f8205dc850ba43b740082520894edbac9527b54d6df7ae2e000cca3613ba015cae38901a055690d9db80000801ba02d3e2d6646c4e33d8f56036ac01f5af92e03c2fe991bf048bf5aceb41a1fcaaca00fccdcd874c1d398fee1fbe7bbfd5a76fef1185d7e1949e7e4116b029c9c0f9b",
      "networkId": 0,
      "chainId": 0
    }
  ]
}