{
  "hash": "0xba933dc12ff1d2dc2e731010da06c1b0fd3b067282bcc06f02964451124c6dc9",
  "parentHash": "0x6690879c46ba200a12f211821963602a35b86af845ce3855c67bda17ec6cb0ce",
  "number": 113884,
  "timestamp": 1440031348,
  "nonce": "0x9057f0c6e1996259",
  "difficulty": 4431834578939,
  "gasLimit": {
    "_hex": "0x2fefd5"
  },
  "gasUsed": {
    "_hex": "0x5208"
  },
  "miner": "0xe6A7a1d47ff21B6321162AEA7C6CB457D5476Bca",
  "extraData": "0x476574682f76312e302e312d38326566323666362f6c696e75782f676f312e34",
  "transactions": [
    {
      "hash": "0x58270999f8840ba2e4b3b4a214465b13e63513731b65d820c3a2aad1a9acfca2",
      "blockHash": "0xba933dc12ff1d2dc2e731010da06c1b0fd3b067282bcc06f02964451124c6dc9",
      "blockNumber": 113884,
      "transactionIndex": 0,
      "confirmations": null,
      "from": "0x007f7f58D3eb5b7510A301eCC749FC1fCDDBE14D",
      "gasPrice": {
        "_hex": "0xcde3c3b6a"
      },
      "gasLimit": {
        "_hex": "0x15f90"
      },
      "to": "0xb1abce2918E21ddb93AA452731a12672A3d9F75a",
      "value": {
        "_hex": "0xcf4ca91b9465c0000"
      },
      "nonce": 309,
      "data": "0x",
      "r": "0xd654c85b98ef3994cf141f103e4bb46460c334b59e3bfafa77abcc7407eeabb8",
      "s": "0x6ac17c9847797e3cdf876b90ed0cd05a2eb1114810a9274b12591d1b09ecc69e",
      "v": 28,
      "creates": null,
      "raw": "0xf870820135850cde3c3b6a83015f9094b1abce2918e21ddb93aa452731a12672a3d9f75a890cf4ca91b9465c0000801ca0d654c85b98ef3994cf141f103e4bb46460c334b59e3bfafa77abcc7407eeabb8a06ac17c9847797e3cdf876b90ed0cd05a2eb1114810a9274b12591d1b09ecc69e",
      "networkId": 0,
      "chainId": 0
    }
  ]
}