{
  "hash": "0x18f8f23e9b1625c4fb7a28eb77ff2628cb01b683419e8ae888119481e34eec1d",
  "parentHash": "0xfc16bd2eccad70b2d0325648d093dd1165092f94350e7bd77c13c6391331f4d8",
  "number": 98210,
  "timestamp": 1439768832,
  "nonce": "0xc2a2750cd7f4f00d",
  "difficulty": 3876528020166,
  "gasLimit": {
    "_hex": "0x2fefd5"
  },
  "gasUsed": {
    "_hex": "0x14824"
  },
  "miner": "0x785ffdDd5cE55c6DF963f345e68d3F2024E5Acb1",
  "extraData": "0x",
  "transactions": [
    {
      "hash": "0x7ceb5ee6fab9b651d2cef2bad95e02a48a4cc6022a2161ae1cb244e6db5c8bbf",
      "blockHash": "0x18f8f23e9b1625c4fb7a28eb77ff2628cb01b683419e8ae888119481e34eec1d",
      "blockNumber": 98210,
      "transactionIndex": 0,
      "confirmations": null,
      "from": "0xb72c2A011c0DF50fbB6e28B20ae1AAD217886790",
      "gasPrice": {
        "_hex": "0xdcc090c7a"
      },
      "gasLimit": {
        "_hex": "0x7530"
      },
      "to": "0x465c71f4011CF25d35c4A073C12802001F2e6Ee5",
      "value": {
        "_hex": "0xd8c9460063d3200000"
      },
      "nonce": 0,
      "data": "0x00",
      "r": "0xaf1b1ed55cf2f68ad539edfbbb84ce204534c479e8df0596841f800489dd85bc",
      "s": "0xdd0eb5f66fecbc56af6929a17b3b832aec52fd6a649d71ddbf9ce11f44b8a420",
      "v": 27,
      "creates": null,
      "raw": "0xf86d80850dcc090c7a82753094465c71f4011cf25d35c4a073c12802001f2e6ee589d8c9460063d3200000001ba0af1b1ed55cf2f68ad539edfbbb84ce204534c479e8df0596841f800489dd85bca0dd0eb5f66fecbc56af6929a17b3b832aec52fd6a649d71ddbf9ce11f44b8a420",
      "networkId": 0,
      "chainId": 0
    },
    {
      "hash": "0xab6dae4d85a49252624a952fed0057cf880e2ed5b22c35f65b7519ec74ae4f0c",
      "blockHash": "0x18f8f23e9b1625c4fb7a28eb77ff2628cb01b683419e8ae888119481e34eec1d",
      "blockNumber": 98210,
      "transactionIndex": 1,
      "confirmations": null,
      "from": "0xa70a9a7040d542C632D8e0bE7c5513A8a5Bbc752",
      "gasPrice": {
        "_hex": "0xd5e732c0e"
      },
      "gasLimit": {
        "_hex": "0x5208"
      },
      "to": "0x32Be343B94f860124dC4fEe278FDCBD38C102D88",
      "value": {
        "_hex": "0x8ac2da5705309000"
      },
      "nonce": 183,
      "data": "0x",
      "r": "0xd24e2e20253760409fa25a1ca07e614af0f04611fa6289eadb611b8d960e979e",
      "s": "0x2aac877252c6d0dd7f9161f5c4477d93ece39801a1ce2062b55a28f2b25705ec",
      "v": 28,
      "creates": null,
      "raw": "0xf86d81b7850d5e732c0e8252089432be343b94f860124dc4fee278fdcbd38c102d88888ac2da5705309000801ca0d24e2e20253760409fa25a1ca07e614af0f04611fa6289eadb611b8d960e979ea02aac877252c6d0dd7f9161f5c4477d93ece39801a1ce2062b55a28f2b25705ec",
      "networkId": 0,
      "chainId": 0
    },
    {
      "hash": "0xd35d85f9a3af1a1d8c61aa64a921579d5b70eaad91af3a16b2c93bcb457b604a",
      "blockHash": "0x18f8f23e9b1625c4fb7a28eb77ff2628cb01b683419e8ae888119481e34eec1d",
      "blockNumber": 98210,
      "transactionIndex": 2,
      "confirmations": null,
      "from": "0x32Be343B94f860124dC4fEe278FDCBD38C102D88",
      "gasPrice": {
        "_hex": "0xd5e732c0e"
      },
      "gasLimit": {
        "_hex": "0x5208"
      },
      "to": "0x8F68fbE2DCFf038C24F650C9e05Ee478038171cd",
      "value": {
        "_hex": "0x1889cc31d76a9200000"
      },
      "nonce": 1033,
      "data": "0x",
      "r": "0xacd7e91a3e2b372921074688dfb3ecd44b4c3c3c00aac2d9bc9fb3b26a707686",
      "s": "0x22058360a215ddb74e76cd39ed2aa950456df63d02b3fa1c993f6453da0e7b44",
      "v": 28,
      "creates": null,
      "raw": "0xf870820409850d5e732c0e825208948f68fbe2dcff038c24f650c9e05ee478038171cd8a01889cc31d76a9200000801ca0acd7e91a3e2b372921074688dfb3ecd44b4c3c3c00aac2d9bc9fb3b26a707686a022058360a215ddb74e76cd39ed2aa950456df63d02b3fa1c993f6453da0e7b44",
      "networkId": 0,
      "chainId": 0
    },
    {
      "hash": "0x487cdde4867d690caa6fcf3009d15c900a295dd6cee090253045eed9e959545e",
      "blockHash": "0x18f8f23e9b1625c4fb7a28eb77ff2628cb01b683419e8ae888119481e34eec1d",
      "blockNumber": 98210,
      "transactionIndex": 3,
      "confirmations": null,
      "from": "0xcFc4E6f7f8b011414BfBa42F23AdFAA78d4ecc5E",
      "gasPrice": {
        "_hex": "0xd4be89f70"
      },
      "gasLimit": {
        "_hex": "0x15f90"
      },
      "to": "0x0D483FA9275e81c75D9a77680737287FC329b8f1",
      "value": {
        "_hex": "0x1043561a8829300000"
      },
      "nonce": 4,
      "data": "0x",
      "r": "0x552b2fca13af9a03a3955268cc7b9cb6303fd4d6d9e1459db8dce241fb71b1af",
      "s": "0x5fb1ce977656df97f103c3fdefc8d7968ef4a3120d87d6cc21ce407876e5cb98",
      "v": 28,
      "creates": null,
      "raw": "0xf86e04850d4be89f7083015f90940d483fa9275e81c75d9a77680737287fc329b8f1891043561a8829300000801ca0552b2fca13af9a03a3955268cc7b9cb6303fd4d6d9e1459db8dce241fb71b1afa05fb1ce977656df97f103c3fdefc8d7968ef4a3120d87d6cc21ce407876e5cb98",
      "networkId": 0,
      "chainId": 0
    }
  ]
}