{
  "hash": "0x6f22db3e8cbc401425aff76c1526a0fca9b728add76c8325bf293ff70052d209",
  "parentHash": "0xf4722f7cfe9c4f6b68bb592de7f96a68722a374c72628233effc0a5ac345587f",
  "number": 89811,
  "timestamp": 1439629534,
  "nonce": "0x8c2a7db11ab94f13",
  "difficulty": 3340227091668,
  "gasLimit": {
    "_hex": "0x2fefd8"
  },
  "gasUsed": {
    "_hex": "0xf618"
  },
  "miner": "0x02dE7d35a60bf6A216411476040ec648668769D7",
  "extraData": "0x476574682f76312e302e312f77696e646f77732f676f312e342e32",
  "transactions": [
    {
      "hash": "0x11d560d54459d506df99401e7765c4cd7be0a840e4a209de0a58d6b5c52759ea",
      "blockHash": "0x6f22db3e8cbc401425aff76c1526a0fca9b728add76c8325bf293ff70052d209",
      "blockNumber": 89811,
      "transactionIndex": 0,
      "confirmations": null,
      "from": "0x06BcFDb20583cc822f2031724E36F3678BBCa6E9",
      "gasPrice": {
        "_hex": "0xcc295362d"
      },
      "gasLimit": {
        "_hex": "0x5208"
      },
      "to": "0x32Be343B94f860124dC4fEe278FDCBD38C102D88",
      "value": {
        "_hex": "0x2752cae52ebe2c000"
      },
      "nonce": 3,
      "data": "0x",
      "r": "0x350b5b0a21a8a43b4ebc789ead8980cf01fd7131a84f05f6c91fc311fadedafd",
      "s": "0x1b1bb5a6cfd05f0444ad6f1f4edf9a97f0400b4e02ff1832bbe873273901d1ca",
      "v": 27,
      "creates": null,
      "raw": "0xf86d03850cc295362d8252089432be343b94f860124dc4fee278fdcbd38c102d888902752cae52ebe2c000801ba0350b5b0a21a8a43b4ebc789ead8980cf01fd7131a84f05f6c91fc311fadedafda01b1bb5a6cfd05f0444ad6f1f4edf9a97f0400b4e02ff1832bbe873273901d1ca",
      "networkId": 0,
      "chainId": 0
    },
    {
      "hash": "0x20dc4328ac8fe3cd16ef591efcd69f12b1dfff9e9a2bc5a01a906490b956fa33",
      "blockHash": "0x6f22db3e8cbc401425aff76c1526a0fca9b728add76c8325bf293ff70052d209",
      "blockNumber": 89811,
      "transactionIndex": 1,
      "confirmations": null,
      "from": "0xe7523F78ae9eDb81dC7B2A9ca718Ba3776C14f2e",
      "gasPrice": {
        "_hex": "0xcc295362d"
      },
      "gasLimit": {
        "_hex": "0x5208"
      },
      "to": "0x32Be343B94f860124dC4fEe278FDCBD38C102D88",
      "value": {
        "_hex": "0xdc77358847415000"
      },
      "nonce": 4,
      "data": "0x",
      "r": "0x48e939899f63354d7c90fe2b046931766d2cd90feae7b492524d5c83cbc94bd3",
      "s": "0x28a480c4baea3336e987d87aa0b1ce13fded39dc31e93147f807fd1b0310979f",
      "v": 27,
      "creates": null,
      "raw": "0xf86c04850cc295362d8252089432be343b94f860124dc4fee278fdcbd38c102d8888dc77358847415000801ba048e939899f63354d7c90fe2b046931766d2cd90feae7b492524d5c83cbc94bd3a028a480c4baea3336e987d87aa0b1ce13fded39dc31e93147f807fd1b0310979f",
      "networkId": 0,
      "chainId": 0
    },
    {
      "hash": "0xe810ed997a19c45edad0b2779f2b5ba7228a6ce7e5e272e9de06f6b65e3467f1",
      "blockHash": "0x6f22db3e8cbc401425aff76c1526a0fca9b728add76c8325bf293ff70052d209",
      "blockNumber": 89811,
      "transactionIndex": 2,
      "confirmations": null,
      "from": "0xabceA603089850F8f6bB612A9031554D90A247CF",
      "gasPrice": {
        "_hex": "0xcc295362d"
      },
      "gasLimit": {
        "_hex": "0x5208"
      },
      "to": "0x32Be343B94f860124dC4fEe278FDCBD38C102D88",
      "value": {
        "_hex": "0x1f656df341fb22000"
      },
      "nonce": 28,
      "data": "0x",
      "r": "0x698fb138c1cfda797f3ada6516aca45567e32cee04b826fc3ae87c07a24a5bdb",
      "s": "0x53c86dada1cacfc16ac99072016a9704f6350698ef9022a0d96a2b9d1073746f",
      "v": 27,
      "creates": null,
      "raw": "0xf86d1c850cc295362d8252089432be343b94f860124dc4fee278fdcbd38c102d888901f656df341fb22000801ba0698fb138c1cfda797f3ada6516aca45567e32cee04b826fc3ae87c07a24a5bdba053c86dada1cacfc16ac99072016a9704f6350698ef9022a0d96a2b9d1073746f",
      "networkId": 0,
      "chainId": 0
    }
  ]
}