{
  "hash": "0x88050aad491cc6b0e997e94603f9338ce77e109734697a27780b04e369b983fe",
  "parentHash": "0xefb5db92cad6dbee8f3dabf6ddc4ae720259e3e7a79a54e534ead1fac39b1baa",
  "number": 65129,
  "timestamp": 1439231849,
  "nonce": "0x8d85f2dacbafe41b",
  "difficulty": 1929427379064,
  "gasLimit": {
    "_hex": "0x2fefd8"
  },
  "gasUsed": {
    "_hex": "0x5208"
  },
  "miner": "0x88D74a59454F6cF3B51ef6b9136AFb6b9D405A88",
  "extraData": "0x476574682f76312e302e312d38326566323666362f6c696e75782f676f312e34",
  "transactions": [
    {
      "hash": "0x061c389658aab1a23531b905043e3d7560de53e3f73b43a86326511ac3e334a6",
      "blockHash": "0x88050aad491cc6b0e997e94603f9338ce77e109734697a27780b04e369b983fe",
      "blockNumber": 65129,
      "transactionIndex": 0,
      "confirmations": null,
      "from": "0x91200a5f9c433656D627641f35b0eeeEd852E50d",
      "gasPrice": {
        "_hex": "0xba43b7400"
      },
      "gasLimit": {
        "_hex": "0x5208"
      },
      "to": "0x9140266a7c090E147eD91fbeFA4629f7a3829272",
      "value": {
        "_hex": "0x4ea14434da49000"
      },
      "nonce": 1,
      "data": "0x",
      "r": "0x2834c9d0c4c60447533273a554201f70e6e5119e1cfd2ba330bf3712328ea464",
      "s": "0x284f6f46e5fcca783738aa56a26d73469ed514ea1494e9142c0408b6a14d6d26",
      "v": 28,
      "creates": null,
      "raw": "0xf86c01850ba43b7400825208949140266a7c090e147ed91fbefa4629f7a38292728804ea14434da49000801ca02834c9d0c4c60447533273a554201f70e6e5119e1cfd2ba330bf3712328ea464a0284f6f46e5fcca783738aa56a26d73469ed514ea1494e9142c0408b6a14d6d26",
      "networkId": 0,
      "chainId": 0
    }
  ]
}