{
  "hash": "0x7668f9800b1f553f3fc1cfa593237031f84d98a65fdfc4029927919ee3bd6019",
  "parentHash": "0xe1e56e48d65ba97102fe9acf9c07c0727376c3cb93578c9bbb950dc6200cd601",
  "number": 80329,
  "timestamp": 1439483946,
  "nonce": "0x8d4cca5cc0dd2d9f",
  "difficulty": 2380535260868,
  "gasLimit": {
    "_hex": "0x2fefd8"
  },
  "gasUsed": {
    "_hex": "0x5208"
  },
  "miner": "0x55bAf64fc9eAccFFd7Cc643BB61142E1C6ac093e",
  "extraData": "0x",
  "transactions": [
    {
      "hash": "0x9ab19d9d0f4eee9e42e6de5283b38d074aa2a720fb205c28448718879f02baff",
      "blockHash": "0x7668f9800b1f553f3fc1cfa593237031f84d98a65fdfc4029927919ee3bd6019",
      "blockNumber": 80329,
      "transactionIndex": 0,
      "confirmations": null,
      "from": "0x6e6bD2E762ecBa2B68ddB39b05916A9531AA0EA6",
      "gasPrice": {
        "_hex": "0xe1d5e3e10"
      },
      "gasLimit": {
        "_hex": "0x5208"
      },
      "to": "0x32Be343B94f860124dC4fEe278FDCBD38C102D88",
      "value": {
        "_hex": "0x6c6b8ed5b208200000"
      },
      "nonce": 2,
      "data": "0x",
      "r": "0x4986a793995a17a360dabc1226a3251b12f128d96e09c768f4480aafb9da55a6",
      "s": "0x4c171bcb049679070a0e681a1a45d57721f9ca4498ac042181bd361b6cd825e9",
      "v": 28,
      "creates": null,
      "raw": "0xf86d02850e1d5e3e108252089432be343b94f860124dc4fee278fdcbd38c102d88896c6b8ed5b208200000801ca04986a793995a17a360dabc1226a3251b12f128d96e09c768f4480aafb9da55a6a04c171bcb049679070a0e681a1a45d57721f9ca4498ac042181bd361b6cd825e9",
      "networkId": 0,
      "chainId": 0
    }
  ]
}