{
  "hash": "0x018a22c5cde617524b006d3efc4a82f66108a88d6a9c46bc64f36fe864ac8bbf",
  "parentHash": "0x589bb5e8f6fd9b5333a426c0ac6c479e7316d556b8b687e2903b9121926e4dcf",
  "number": 61273,
  "timestamp": 1439169691,
  "nonce": "0xcd112c355bfdd6ab",
  "difficulty": 1732013300071,
  "gasLimit": {
    "_hex": "0x2fefd8"
  },
  "gasUsed": {
    "_hex": "0xddfd"
  },
  "miner": "0x4D5513ac71Bb29A4C087c71E17Ac4A057F6B20f9",
  "extraData": "0x476574682f76312e302e312d38326566323666362f6c696e75782f676f312e34",
  "transactions": [
    {
      "hash": "0x63de210ed4738bd98f9bcbd3c73155fb911b966a762fbbe29ddba24269c5eafc",
      "blockHash": "0x018a22c5cde617524b006d3efc4a82f66108a88d6a9c46bc64f36fe864ac8bbf",
      "blockNumber": 61273,
      "transactionIndex": 0,
      "confirmations": null,
      "from": "0x17580B766f7453525ca4C6A88b01b50570EA088C",
      "gasPrice": {
        "_hex": "0xdbf3ac968"
      },
      "gasLimit": {
        "_hex": "0x61a80"
      },
      "to": "0x020522bF9B8eD6FF41E2fa6765a17E20E2767D64",
      "value": {
        "_hex": "0x56bc75e2d63100000"
      },
      "nonce": 10,
      "data": "0x",
      "r": "0x17e968018a757468e93abc6fa1ccf0e21906dabd48eb8a7041543f18e173e298",
      "s": "0x6c53be2da9d05e442a6f34fcc866d14a3c258ceb9cad6966de39c6f53582b290",
      "v": 27,
      "creates": null,
      "raw": "0xf86e0a850dbf3ac96883061a8094020522bf9b8ed6ff41e2fa6765a17e20e2767d6489056bc75e2d63100000801ba017e968018a757468e93abc6fa1ccf0e21906dabd48eb8a7041543f18e173e298a06c53be2da9d05e442a6f34fcc866d14a3c258ceb9cad6966de39c6f53582b290",
      "networkId": 0,
      "chainId": 0
    }
  ]
}