{
  "hash": "0xf1191df269efcf562156c1404ba118f7ae9bcf9f28f447b82ec62a113db53f03",
  "parentHash": "0x79ab6814132c2cee764c6cac13b3caf80dae4116c43fbc1e0c39f0f4fbfcd88d",
  "number": 110038,
  "timestamp": 1439967032,
  "nonce": "0xc0fe2f1b71df074e",
  "difficulty": 4390778199194,
  "gasLimit": {
    "_hex": "0x2fefd8"
  },
  "gasUsed": {
    "_hex": "0x5208"
  },
  "miner": "0x0D2C9857E819cf1275eb59B49033343ccC35fe42",
  "extraData": "0x",
  "transactions": [
    {
      "hash": "0x4c994ab22300260825e08755805c2a4804f496cca38a8c997a3039a1e077e33e",
      "blockHash": "0xf1191df269efcf562156c1404ba118f7ae9bcf9f28f447b82ec62a113db53f03",
      "blockNumber": 110038,
      "transactionIndex": 0,
      "confirmations": null,
      "from": "0x36c68a0907F43244f6dD524a7144A2C5982eb1A1",
      "gasPrice": {
        "_hex": "0xba43b7400"
      },
      "gasLimit": {
        "_hex": "0x5b04"
      },
      "to": "0xAb8C189C08BCF94A82f57857830EB93Ad47B9Fc7",
      "value": {
        "_hex": "0xa089cab5c9b8000"
      },
      "nonce": 2,
      "data": "0x",
      "r": "0x7de2efd8325deb9632c0c799b006f0c77ef715c215856fc936f0ae4ed2bbcdb9",
      "s": "0x45819a2385b996265bc3e2951a05a974b1350bb8a07b867fb69e231fc4c6166c",
      "v": 28,
      "creates": null,
      "raw": "0xf86c02850ba43b7400825b0494ab8c189c08bcf94a82f57857830eb93ad47b9fc7880a089cab5c9b8000801ca07de2efd8325deb9632c0c799b006f0c77ef715c215856fc936f0ae4ed2bbcdb9a045819a2385b996265bc3e2951a05a974b1350bb8a07b867fb69e231fc4c6166c",
      "networkId": 0,
      "chainId": 0
    }
  ]
}