{
  "hash": "0xc90aa1c74e87bcd507614914482ab9cf0c397a5f0732796b5df0b47f0cbe2f33",
  "parentHash": "0xdb16b44bdb418b1abd21635d3755fbd66a048681382a3b5c49f14f84ba138f34",
  "number": 74272,
  "timestamp": 1439383348,
  "nonce": "0x4471fb13a402ac8a",
  "difficulty": 2212928913059,
  "gasLimit": {
    "_hex": "0x2fefd8"
  },
  "gasUsed": {
    "_hex": "0x47c70"
  },
  "miner": "0xc2E9e042B88164B5408bd895Df7DdaD491c6321E",
  "extraData": "0x",
  "transactions": [
    {
      "hash": "0xa3e26cb57c77214c69ec59fb59068ce083f87891452d9224ceaac9ba4c19f1b7",
      "blockHash": "0xc90aa1c74e87bcd507614914482ab9cf0c397a5f0732796b5df0b47f0cbe2f33",
      "blockNumber": 74272,
      "transactionIndex": 0,
      "confirmations": null,
      "from": "0xe6A7a1d47ff21B6321162AEA7C6CB457D5476Bca",
      "gasPrice": {
        "_hex": "0xdd7492b8e"
      },
      "gasLimit": {
        "_hex": "0x55f0"
      },
      "to": "0x78A5a3e39DB4Cf9824d4DFAbAbcdB36611788C78",
      "value": {
        "_hex": "0x1418526351a0bd550"
      },
      "nonce": 921,
      "data": "0x",
      "r": "0x6e452d4dad562efecb5c495ad0853eec8cfc8077495f126ef6e095884ff69e89",
      "s": "0x1f35c1aa9f13ef6f836b56e1700d0d5d98eb62e0703ce6fa6f4d706757232259",
      "v": 28,
      "creates": null,
      "raw": "0xf86f820399850dd7492b8e8255f09478a5a3e39db4cf9824d4dfababcdb36611788c788901418526351a0bd550801ca06e452d4dad562efecb5c495ad0853eec8cfc8077495f126ef6e095884ff69e89a01f35c1aa9f13ef6f836b56e1700d0d5d98eb62e0703ce6fa6f4d706757232259",
      "networkId": 0,
      "chainId": 0
    },
    {
      "hash": "0x15af7c912ff623f810228ec52b550e2517262e3edbc5603fdb26623da88413d7",
      "blockHash": "0xc90aa1c74e87bcd507614914482ab9cf0c397a5f0732796b5df0b47f0cbe2f33",
      "blockNumber": 74272,
      "transactionIndex": 1,
      "confirmations": null,
      "from": "0xe6A7a1d47ff21B6321162AEA7C6CB457D5476Bca",
      "gasPrice": {
        "_hex": "0xdd7492b8e"
      },
      "gasLimit": {
        "_hex": "0x55f0"
      },
      "to": "0x6111E933E5e6297DFd0AAd9aAB64017c69062a08",
      "value": {
        "_hex": "0x14276d460b009b178"
      },
      "nonce": 922,
      "data": "0x",
      "r": "0xd5f3747758af1eb4861035cb665e840077f1f467755866058dde31cb4d05c862",
      "s": "0x408ff9a042ce2fe88e85853deeba1c3190ba1046fe5f3d0a9cc2f235d59b3014",
      "v": 28,
      "creates": null,
      "raw": "0xf86f82039a850dd7492b8e8255f0946111e933e5e6297dfd0aad9aab64017c69062a0889014276d460b009b178801ca0d5f3747758af1eb4861035cb665e840077f1f467755866058dde31cb4d05c862a0408ff9a042ce2fe88e85853deeba1c3190ba1046fe5f3d0a9cc2f235d59b3014",
      "networkId": 0,
      "chainId": 0
    },
    {
      "hash": "0x64d8d33673384462a2cbb26bc66609b47df012f88edbd0a3bd612617ee9825ef",
      "blockHash": "0xc90aa1c74e87bcd507614914482ab9cf0c397a5f0732796b5df0b47f0cbe2f33",
      "blockNumber": 74272,
      "transactionIndex": 2,
      "confirmations": null,
      "from": "0xe6A7a1d47ff21B6321162AEA7C6CB457D5476Bca",
      "gasPrice": {
        "_hex": "0xdd7492b8e"
      },
      "gasLimit": {
        "_hex": "0x55f0"
      },
      "to": "0x0D81FD2bB264D9Ee0F432599b443ae1B691f6134",
      "value": {
        "_hex": "0x14c44918211eff1a8"
      },
      "nonce": 923,
      "data": "0x",
      "r": "0x63f4540cef1ea7a79bed1989fab5b36122458f713c132ce8b7b14d9e9b9d1efb",
      "s": "0x6627d7f2a8c6c705d2653bafb445c1079e09705b81b4fea91248adb5b55ffa75",
      "v": 27,
      "creates": null,
      "raw": "0xf86f82039b850dd7492b8e8255f0940d81fd2bb264d9ee0f432599b443ae1b691f613489014c44918211eff1a8801ba063f4540cef1ea7a79bed1989fab5b36122458f713c132ce8b7b14d9e9b9d1efba06627d7f2a8c6c705d2653bafb445c1079e09705b81b4fea91248adb5b55ffa75",
      "networkId": 0,
      "chainId": 0
    },
    {
      "hash": "0x090025943d7b417c671cedf2f5edb4f02a69316e9939dd750545c92722e090e9",
      "blockHash": "0xc90aa1c74e87bcd507614914482ab9cf0c397a5f0732796b5df0b47f0cbe2f33",
      "blockNumber": 74272,
      "transactionIndex": 3,
      "confirmations": null,
      "from": "0xe6A7a1d47ff21B6321162AEA7C6CB457D5476Bca",
      "gasPrice": {
        "_hex": "0xdd7492b8e"
      },
      "gasLimit": {
        "_hex": "0x55f0"
      },
      "to": "0xB1A4B41b8e75a153841c99c62d18588d45e7b406",
      "value": {
        "_hex": "0x17cd6f1b1d82fae88"
      },
      "nonce": 924,
      "data": "0x",
      "r": "0xa989763b3dc5a67cc40f28293d729fbd3194a4d891d161239ab81f4fa166cb02",
      "s": "0x52e8140e14cd0f3231e1ca7d9813bd3384d6c7b4f35252d711ea07913328261e",
      "v": 28,
      "creates": null,
      "raw": "0xf86f82039c850dd7492b8e8255f094b1a4b41b8e75a153841c99c62d18588d45e7b40689017cd6f1b1d82fae88801ca0a989763b3dc5a67cc40f28293d729fbd3194a4d891d161239ab81f4fa166cb02a052e8140e14cd0f3231e1ca7d9813bd3384d6c7b4f35252d711ea07913328261e",
      "networkId": 0,
      "chainId": 0
    },
    {
      "hash": "0xadeb59da59953dc01afb37694ed71e931b1f9ceefb8ca7917d9127abbcf55ae9",
      "blockHash": "0xc90aa1c74e87bcd507614914482ab9cf0c397a5f0732796b5df0b47f0cbe2f33",
      "blockNumber": 74272,
      "transactionIndex": 4,
      "confirmations": null,
      "from": "0xe6A7a1d47ff21B6321162AEA7C6CB457D5476Bca",
      "gasPrice": {
        "_hex": "0xdd7492b8e"
      },
      "gasLimit": {
        "_hex": "0x55f0"
      },
      "to": "0xe70361D11B44B2fBA997417D7AAa26eb69EBfef0",
      "value": {
        "_hex": "0x18006075e40082ff0"
      },
      "nonce": 925,
      "data": "0x",
      "r": "0x515faa06538d19b2c6535c49886635801dd832c631e81505b0bb6c141db1a820",
      "s": "0x11b1aff66bb8810a630a6d9228775f8955ab1a86a4d622c92c13d4ffb1008ad8",
      "v": 27,
      "creates": null,
      "raw": "0xf86f82039d850dd7492b8e8255f094e70361d11b44b2fba997417d7aaa26eb69ebfef089018006075e40082ff0801ba0515faa06538d19b2c6535c49886635801dd832c631e81505b0bb6c141db1a820a011b1aff66bb8810a630a6d9228775f8955ab1a86a4d622c92c13d4ffb1008ad8",
      "networkId": 0,
      "chainId": 0
    },
    {
      "hash": "0xc3e7f8c795388956e8643f26ef2cda3c31afd4dff15d2c589b0bb8f876eb3706",
      "blockHash": "0xc90aa1c74e87bcd507614914482ab9cf0c397a5f0732796b5df0b47f0cbe2f33",
      "blockNumber": 74272,
      "transactionIndex": 5,
      "confirmations": null,
      "from": "0xe6A7a1d47ff21B6321162AEA7C6CB457D5476Bca",
      "gasPrice": {
        "_hex": "0xdd7492b8e"
      },
      "gasLimit": {
        "_hex": "0x55f0"
      },
      "to": "0xBe750c24427887537FBc1E67Ed096a59dF3a4cC4",
      "value": {
        "_hex": "0x1807deb3d9fe7bf68"
      },
      "nonce": 926,
      "data": "0x",
      "r": "0xa9816569f591f8ded8bc085e216cac51a6ae817b07821b03ad1e229277264f99",
      "s": "0x362c86dd86555de26c8ac33d53295a4f0410310535804fa91f97bfc9dfca0431",
      "v": 28,
      "creates": null,
      "raw": "0xf86f82039e850dd7492b8e8255f094be750c24427887537fbc1e67ed096a59df3a4cc48901807deb3d9fe7bf68801ca0a9816569f591f8ded8bc085e216cac51a6ae817b07821b03ad1e229277264f99a0362c86dd86555de26c8ac33d53295a4f0410310535804fa91f97bfc9dfca0431",
      "networkId": 0,
      "chainId": 0
    },
    {
      "hash": "0xadfb0008c86e678ee804f5913cb6dbcc8f389db8c51f425609e68728afce568e",
      "blockHash": "0xc90aa1c74e87bcd507614914482ab9cf0c397a5f0732796b5df0b47f0cbe2f33",
      "blockNumber": 74272,
      "transactionIndex": 6,
      "confirmations": null,
      "from": "0xe6A7a1d47ff21B6321162AEA7C6CB457D5476Bca",
      "gasPrice": {
        "_hex": "0xdd7492b8e"
      },
      "gasLimit": {
        "_hex": "0x55f0"
      },
      "to": "0xB415e74b9b5B2058EF3541265aaF7ce09C4953bc",
      "value": {
        "_hex": "0x18574ca605fa5dd60"
      },
      "nonce": 927,
      "data": "0x",
      "r": "0x5ed4cb733e67e27d5c52e7f3fc0dfa6f21eedea4b58f6b4546b6d4c24ea167fb",
      "s": "0x3e5b63c3b8f5052a137f12240bbf2f911a998f348f591cb0af1bde6facb8f836",
      "v": 27,
      "creates": null,
      "raw": "0xf86f82039f850dd7492b8e8255f094b415e74b9b5b2058ef3541265aaf7ce09c4953bc89018574ca605fa5dd60801ba05ed4cb733e67e27d5c52e7f3fc0dfa6f21eedea4b58f6b4546b6d4c24ea167fba03e5b63c3b8f5052a137f12240bbf2f911a998f348f591cb0af1bde6facb8f836",
      "networkId": 0,
      "chainId": 0
    },
    {
      "hash": "0xcdb1777260a01044dd1b13b7a970c93ea46348cc1947c3f9aa6a13fade0c364c",
      "blockHash": "0xc90aa1c74e87bcd507614914482ab9cf0c397a5f0732796b5df0b47f0cbe2f33",
      "blockNumber": 74272,
      "transactionIndex": 7,
      "confirmations": null,
      "from": "0xe6A7a1d47ff21B6321162AEA7C6CB457D5476Bca",
      "gasPrice": {
        "_hex": "0xdd7492b8e"
      },
      "gasLimit": {
        "_hex": "0x55f0"
      },
      "to": "0xeF0a7407D5b9AF9fA9f38f67aBB66d20686afb55",
      "value": {
        "_hex": "0x1870ca3613c554fd0"
      },
      "nonce": 928,
      "data": "0x",
      "r": "0x5a116839d665857663333df71f455a0504f6af77570fee5aaaaf90970ae9a9bb",
      "s": "0x5e3e35bf617e3afcecf258b4c097b2af390f7432614bd40a829b33722b49d66f",
      "v": 27,
      "creates": null,
      "raw": "0xf86f8203a0850dd7492b8e8255f094ef0a7407d5b9af9fa9f38f67abb66d20686afb558901870ca3613c554fd0801ba05a116839d665857663333df71f455a0504f6af77570fee5aaaaf90970ae9a9bba05e3e35bf617e3afcecf258b4c097b2af390f7432614bd40a829b33722b49d66f",
      "networkId": 0,
      "chainId": 0
    },
    {
      "hash": "0xb7af7a179ec5df44ecd173dd1243c420e4afa20d499a9f23f3248714b45d83aa",
      "blockHash": "0xc90aa1c74e87bcd507614914482ab9cf0c397a5f0732796b5df0b47f0cbe2f33",
      "blockNumber": 74272,
      "transactionIndex": 8,
      "confirmations": null,
      "from": "0xe6A7a1d47ff21B6321162AEA7C6CB457D5476Bca",
      "gasPrice": {
        "_hex": "0xdd7492b8e"
      },
      "gasLimit": {
        "_hex": "0x55f0"
      },
      "to": "0xd121f6B6DE47879cc29a8262cA01F7B4ACE9707e",
      "value": {
        "_hex": "0x1885594012fc4cef0"
      },
      "nonce": 929,
      "data": "0x",
      "r": "0xfcd032797a5022fbaffdb405a5b90cfe1d1bbe7dd7a5b217163db1840c8222fc",
      "s": "0x6312c365adb430ca68f48568f9b79c92859efbf7cab7244fa56e9f5db1391bca",
      "v": 27,
      "creates": null,
      "raw": "0xf86f8203a1850dd7492b8e8255f094d121f6b6de47879cc29a8262ca01f7b4ace9707e8901885594012fc4cef0801ba0fcd032797a5022fbaffdb405a5b90cfe1d1bbe7dd7a5b217163db1840c8222fca06312c365adb430ca68f48568f9b79c92859efbf7cab7244fa56e9f5db1391bca",
      "networkId": 0,
      "chainId": 0
    },
    {
      "hash": "0xfe9f92623725ec71529bffb06875a42982d8db73353deefd0f97f08cd50ed11e",
      "blockHash": "0xc90aa1c74e87bcd507614914482ab9cf0c397a5f0732796b5df0b47f0cbe2f33",
      "blockNumber": 74272,
      "transactionIndex": 9,
      "confirmations": null,
      "from": "0xe6A7a1d47ff21B6321162AEA7C6CB457D5476Bca",
      "gasPrice": {
        "_hex": "0xdd7492b8e"
      },
      "gasLimit": {
        "_hex": "0x55f0"
      },
      "to": "0xE6D67E3661E28eE2DfC1c68D5DeeA3C3bB880059",
      "value": {
        "_hex": "0x18dbd975c90456160"
      },
      "nonce": 930,
      "data": "0x",
      "r": "0xff7dc3a3fa4fb78da387ef0b98cdd62bb4e867eee3848a7b45fa5555ab732c8a",
      "s": "0x7e088c5c3ca2319347cfe4b58b98ea51b30fca5328b9bf256e6e703f9e875adb",
      "v": 28,
      "creates": null,
      "raw": "0xf86f8203a2850dd7492b8e8255f094e6d67e3661e28ee2dfc1c68d5deea3c3bb88005989018dbd975c90456160801ca0ff7dc3a3fa4fb78da387ef0b98cdd62bb4e867eee3848a7b45fa5555ab732c8aa07e088c5c3ca2319347cfe4b58b98ea51b30fca5328b9bf256e6e703f9e875adb",
      "networkId": 0,
      "chainId": 0
    },
    {
      "hash": "0x28694f06f09170a76a08627e120ac41e01f71a3aade12920398d4998e01ffbe9",
      "blockHash": "0xc90aa1c74e87bcd507614914482ab9cf0c397a5f0732796b5df0b47f0cbe2f33",
      "blockNumber": 74272,
      "transactionIndex": 10,
      "confirmations": null,
      "from": "0xe6A7a1d47ff21B6321162AEA7C6CB457D5476Bca",
      "gasPrice": {
        "_hex": "0xdd7492b8e"
      },
      "gasLimit": {
        "_hex": "0x55f0"
      },
      "to": "0xc3DBDB3Efa722db2a3F6041b0ca0042782296ba9",
      "value": {
        "_hex": "0x18f17b21e6268b1d8"
      },
      "nonce": 931,
      "data": "0x",
      "r": "0x75063796e10a3180481dcd9648e32948ddbd39bb5efcd7d517e760c7633f3d38",
      "s": "0x1d62bd0f963ad2ab2677dba0b3208943af5a631b1be075f6c8a1bc6bef09ee6b",
      "v": 28,
      "creates": null,
      "raw": "0xf86f8203a3850dd7492b8e8255f094c3dbdb3efa722db2a3f6041b0ca0042782296ba989018f17b21e6268b1d8801ca075063796e10a3180481dcd9648e32948ddbd39bb5efcd7d517e760c7633f3d38a01d62bd0f963ad2ab2677dba0b3208943af5a631b1be075f6c8a1bc6bef09ee6b",
      "networkId": 0,
      "chainId": 0
    },
    {
      "hash": "0x4205df4115691d917362b473dde4da4058060a199aa358b79a5da0aa5dc6b965",
      "blockHash": "0xc90aa1c74e87bcd507614914482ab9cf0c397a5f0732796b5df0b47f0cbe2f33",
      "blockNumber": 74272,
      "transactionIndex": 11,
      "confirmations": null,
      "from": "0xe6A7a1d47ff21B6321162AEA7C6CB457D5476Bca",
      "gasPrice": {
        "_hex": "0xdd7492b8e"
      },
      "gasLimit": {
        "_hex": "0x55f0"
      },
      "to": "0x6541237dAaFf6688A79f9F2F370Ca0E7Ee20BD33",
      "value": {
        "_hex": "0x191552a93ddb6c550"
      },
      "nonce": 932,
      "data": "0x",
      "r": "0xbdc68399361394a0c200769140055959b02d3ecbb7dacdaf658975d103ab56c9",
      "s": "0x71226860abbfea78715a9f8061ecb1e588a889562ace712be1a83cba8bd65088",
      "v": 27,
      "creates": null,
      "raw": "0xf86f8203a4850dd7492b8e8255f0946541237daaff6688a79f9f2f370ca0e7ee20bd33890191552a93ddb6c550801ba0bdc68399361394a0c200769140055959b02d3ecbb7dacdaf658975d103ab56c9a071226860abbfea78715a9f8061ecb1e588a889562ace712be1a83cba8bd65088",
      "networkId": 0,
      "chainId": 0
    },
    {
      "hash": "0x38a4cb1edde6c9ff7455b1986693b7f9e02746e803b16a00a6e56d1ddb94da1b",
      "blockHash": "0xc90aa1c74e87bcd507614914482ab9cf0c397a5f0732796b5df0b47f0cbe2f33",
      "blockNumber": 74272,
      "transactionIndex": 12,
      "confirmations": null,
      "from": "0xe6A7a1d47ff21B6321162AEA7C6CB457D5476Bca",
      "gasPrice": {
        "_hex": "0xdd7492b8e"
      },
      "gasLimit": {
        "_hex": "0x55f0"
      },
      "to": "0x27e806e70622d2864e1B1f4426D72FFb0457C83a",
      "value": {
        "_hex": "0x1932b114e047da1e0"
      },
      "nonce": 933,
      "data": "0x",
      "r": "0xbbd0fe0cc64932638d1bf9a670faf118e1e9112ea551f48db642a4c7fb54910a",
      "s": "0x6cba5888e74997c7d4785504c387bc14dd1b16515d6c7079296018dd7d710e3a",
      "v": 28,
      "creates": null,
      "raw": "0xf86f8203a5850dd7492b8e8255f09427e806e70622d2864e1b1f4426d72ffb0457c83a8901932b114e047da1e0801ca0bbd0fe0cc64932638d1bf9a670faf118e1e9112ea551f48db642a4c7fb54910aa06cba5888e74997c7d4785504c387bc14dd1b16515d6c7079296018dd7d710e3a",
      "networkId": 0,
      "chainId": 0
    },
    {
      "hash": "0x314891e88350535f9efbe04cdcf763f0ef0751b1853e3c43d74994967440155b",
      "blockHash": "0xc90aa1c74e87bcd507614914482ab9cf0c397a5f0732796b5df0b47f0cbe2f33",
      "blockNumber": 74272,
      "transactionIndex": 13,
      "confirmations": null,
      "from": "0xe6A7a1d47ff21B6321162AEA7C6CB457D5476Bca",
      "gasPrice": {
        "_hex": "0xdd7492b8e"
      },
      "gasLimit": {
        "_hex": "0x55f0"
      },
      "to": "0x051219f568c86EA6DD6Dd2cC8052c31504F33d44",
      "value": {
        "_hex": "0x1ad6cf9b78879cb10"
      },
      "nonce": 934,
      "data": "0x",
      "r": "0xb4fbf8f18fc3c94147e78a3538d5e1bef7b1129d179c9d6350f6b2ddc9efdd8d",
      "s": "0x3ed18f41d25fc047765b470d4ccfaab15a39e88c23a3a1fc9958ef3651233c58",
      "v": 27,
      "creates": null,
      "raw": "0xf86f8203a6850dd7492b8e8255f094051219f568c86ea6dd6dd2cc8052c31504f33d448901ad6cf9b78879cb10801ba0b4fbf8f18fc3c94147e78a3538d5e1bef7b1129d179c9d6350f6b2ddc9efdd8da03ed18f41d25fc047765b470d4ccfaab15a39e88c23a3a1fc9958ef3651233c58",
      "networkId": 0,
      "chainId": 0
    }
  ]
}