{
  "hash": "0x45839f2a19834a53f61dee6efdc7f032c0e2fb1c2c39e5073ec031bdc66c5f21",
  "parentHash": "0x9c668e5edad748f312597e47732017cc25af1f00328adf1f9e302a0fd1de284f",
  "number": 104974,
  "timestamp": 1439879505,
  "nonce": "0xbc38b8c56780f428",
  "difficulty": 4316876149838,
  "gasLimit": {
    "_hex": "0x2fefd8"
  },
  "gasUsed": {
    "_hex": "0xa674"
  },
  "miner": "0xeB1325C8D9d3ea8D74aC11F4B00F1B2367686319",
  "extraData": "0x",
  "transactions": [
    {
      "hash": "0xce24de8f94f83cecd8be085b6f85f87a28d33af6509b7a89d33d1b3dea83794b",
      "blockHash": "0x45839f2a19834a53f61dee6efdc7f032c0e2fb1c2c39e5073ec031bdc66c5f21",
      "blockNumber": 104974,
      "transactionIndex": 0,
      "confirmations": null,
      "from": "0x5F1c8A04c90d735B8A152909AeAe636FB0cE1665",
      "gasPrice": {
        "_hex": "0x110c8f7d8de"
      },
      "gasLimit": {
        "_hex": "0xc350"
      },
      "to": "0x2910543Af39abA0Cd09dBb2D50200b3E800A63D2",
      "value": {
        "_hex": "0x3635c9adc5dea00000"
      },
      "nonce": 1,
      "data": "0x454e4e5a3137384b38",
      "r": "0x25096d4a52c0b9647b5122af3f75dc2790b22f17222d84f54ebb1221353c8e71",
      "s": "0xb9ad40b1edb38855b3b6ef82fde9964bd6f48bbb2b4b48b94ee5015c214fd7c8",
      "v": 28,
      "creates": null,
      "raw": "0xf87701860110c8f7d8de82c350942910543af39aba0cd09dbb2d50200b3e800a63d2893635c9adc5dea0000089454e4e5a3137384b381ca025096d4a52c0b9647b5122af3f75dc2790b22f17222d84f54ebb1221353c8e71a0b9ad40b1edb38855b3b6ef82fde9964bd6f48bbb2b4b48b94ee5015c214fd7c8",
      "networkId": 0,
      "chainId": 0
    },
    {
      "hash": "0x5a30dd71e8901f9661b15462373c8b46a579961eb7f7a1e959ee3858238e2a01",
      "blockHash": "0x45839f2a19834a53f61dee6efdc7f032c0e2fb1c2c39e5073ec031bdc66c5f21",
      "blockNumber": 104974,
      "transactionIndex": 1,
      "confirmations": null,
      "from": "0xAA751bDDB7DD99C84C74CA67eeF820EbC4a8bdf9",
      "gasPrice": {
        "_hex": "0xcc08fa326"
      },
      "gasLimit": {
        "_hex": "0x5208"
      },
      "to": "0x32Be343B94f860124dC4fEe278FDCBD38C102D88",
      "value": {
        "_hex": "0x43fc35f4c1161800"
      },
      "nonce": 0,
      "data": "0x",
      "r": "0x482ebb1ec429db3b11d2bfd2b6633c2e2245cbe2f79709cccf8571e84fe6b99a",
      "s": "0x517b2c5e56a621f065a1825984497504a13faeec4a99b54a358588df289ec061",
      "v": 27,
      "creates": null,
      "raw": "0xf86c80850cc08fa3268252089432be343b94f860124dc4fee278fdcbd38c102d888843fc35f4c1161800801ba0482ebb1ec429db3b11d2bfd2b6633c2e2245cbe2f79709cccf8571e84fe6b99aa0517b2c5e56a621f065a1825984497504a13faeec4a99b54a358588df289ec061",
      "networkId": 0,
      "chainId": 0
    }
  ]
}