{
  "hash": "0xd6ad23a3d1776c7005199db464fc84d98f63518d2e1e51858e6f1096ee2c147a",
  "parentHash": "0x2e3a80b5ff0021a857e633fb9e557625a0f1d8d8ff7c76f749aed03b2d95835b",
  "number": 86516,
  "timestamp": 1439579366,
  "nonce": "0x10c432968f86fe05",
  "difficulty": 2896100489330,
  "gasLimit": {
    "_hex": "0x2fefd8"
  },
  "gasUsed": {
    "_hex": "0xa410"
  },
  "miner": "0x1217627fe41A00f0b828317F43E6d58F47dBfc43",
  "extraData": "0x476574682f76312e302e302d66313265303136312f6c696e75782f676f312e34",
  "transactions": [
    {
      "hash": "0x66469e66fcd3f209ec2ee88e421581db267a0838a242f302ce90b35b1ecfa211",
      "blockHash": "0xd6ad23a3d1776c7005199db464fc84d98f63518d2e1e51858e6f1096ee2c147a",
      "blockNumber": 86516,
      "transactionIndex": 0,
      "confirmations": null,
      "from": "0x2f86ba8019945f39edE131D38d4d8780884DA553",
      "gasPrice": {
        "_hex": "0xd4d376d4f"
      },
      "gasLimit": {
        "_hex": "0x5208"
      },
      "to": "0x32Be343B94f860124dC4fEe278FDCBD38C102D88",
      "value": {
        "_hex": "0x15f46b0f9eb6410000"
      },
      "nonce": 16,
      "data": "0x",
      "r": "0x9523c66ce1edb262a9da0b7d55651098a1aff77a24a82ea79d9ac2c71c875c9a",
      "s": "0x54286eb1ad50b383b758f203f5ef7ea11496451c42f20d9123723190a7314653",
      "v": 28,
      "creates": null,
      "raw": "0xf86d10850d4d376d4f8252089432be343b94f860124dc4fee278fdcbd38c102d888915f46b0f9eb6410000801ca09523c66ce1edb262a9da0b7d55651098a1aff77a24a82ea79d9ac2c71c875c9aa054286eb1ad50b383b758f203f5ef7ea11496451c42f20d9123723190a7314653",
      "networkId": 0,
      "chainId": 0
    },
    {
      "hash": "0x84a6f8d018d1463cd0bbd19be2559f4b91687fdd45a1771576730a3097556c78",
      "blockHash": "0xd6ad23a3d1776c7005199db464fc84d98f63518d2e1e51858e6f1096ee2c147a",
      "blockNumber": 86516,
      "transactionIndex": 1,
      "confirmations": null,
      "from": "0xa6BDc31c431B8F97848c9D60cbbe9660dc450eB7",
      "gasPrice": {
        "_hex": "0xd4d376d4f"
      },
      "gasLimit": {
        "_hex": "0x5208"
      },
      "to": "0x32Be343B94f860124dC4fEe278FDCBD38C102D88",
      "value": {
        "_hex": "0x455f4e5c5c7a0c00"
      },
      "nonce": 74,
      "data": "0x",
      "r": "0xd2953ee61d907e6ba6077006d6742b86c8b6a25fde197459f3d401dcfbba2c8e",
      "s": "0x0b112fcc56a0eaada6b9e7d3482e33e6ff11547bc68b3be7abcfcaf69c63aec3",
      "v": 27,
      "creates": null,
      "raw": "0xf86c4a850d4d376d4f8252089432be343b94f860124dc4fee278fdcbd38c102d8888455f4e5c5c7a0c00801ba0d2953ee61d907e6ba6077006d6742b86c8b6a25fde197459f3d401dcfbba2c8ea00b112fcc56a0eaada6b9e7d3482e33e6ff11547bc68b3be7abcfcaf69c63aec3",
      "networkId": 0,
      "chainId": 0
    }
  ]
}