{
  "hash": "0xe9d0fa258e2bd643282409f0453ed21310219ae10cd70520f4348a5596d990ba",
  "parentHash": "0x6a887890046f6d7f116b65c7fcdc26b5f33004b84b3642a4ce5fb13dc6206405",
  "number": 80351,
  "timestamp": 1439484330,
  "nonce": "0xa0dccfdda23be02d",
  "difficulty": 2380529017672,
  "gasLimit": {
    "_hex": "0x2fefd8"
  },
  "gasUsed": {
    "_hex": "0x5208"
  },
  "miner": "0xe6A7a1d47ff21B6321162AEA7C6CB457D5476Bca",
  "extraData": "0x476574682f76312e302e312d38326566323666362f6c696e75782f676f312e34",
  "transactions": [
    {
      "hash": "0x535dc441e4a3af3f81bba2f2ca86deef30f92ca77e23eccc8549c1cb790758b8",
      "blockHash": "0xe9d0fa258e2bd643282409f0453ed21310219ae10cd70520f4348a5596d990ba",
      "blockNumber": 80351,
      "transactionIndex": 0,
      "confirmations": null,
      "from": "0x2f863563bfEf4b64fEae24Ec5EBbe5a2c66A09f5",
      "gasPrice": {
        "_hex": "0xba43b7400"
      },
      "gasLimit": {
        "_hex": "0x5208"
      },
      "to": "0xC47Aaa860008be6f65B58c6C6E02a84e666EfE31",
      "value": {
        "_hex": "0x8a9fe119ed236000"
      },
      "nonce": 0,
      "data": "0x",
      "r": "0xc5b5d71e97b5b8b6638f3c4fbe7c204705b1acbab073505aa4896b3af356a5e9",
      "s": "0x20aa6b209bee91b71f71587125781f6d23a7bfa3da35dab787dd0207adc0f755",
      "v": 28,
      "creates": null,
      "raw": "0xf86c80850ba43b740082520894c47aaa860008be6f65b58c6c6e02a84e666efe31888a9fe119ed236000801ca0c5b5d71e97b5b8b6638f3c4fbe7c204705b1acbab073505aa4896b3af356a5e9a020aa6b209bee91b71f71587125781f6d23a7bfa3da35dab787dd0207adc0f755",
      "networkId": 0,
      "chainId": 0
    }
  ]
}