{
  "hash": "0x4401ff566305507791b4d638d907283d8f026fb652cfc97cd01b659df7e430b9",
  "parentHash": "0xc33ae801ceec756ba06463e40f90995a7f1325c9b1c8f0cd506e3520cf6d1b86",
  "number": 71238,
  "timestamp": 1439332956,
  "nonce": "0xb4c3f778a4a960a4",
  "difficulty": 2141433557685,
  "gasLimit": {
    "_hex": "0x2fefd8"
  },
  "gasUsed": {
    "_hex": "0x9400"
  },
  "miner": "0x88D74a59454F6cF3B51ef6b9136AFb6b9D405A88",
  "extraData": "0x476574682f76312e302e312d37666266393930632f6c696e75782f676f312e34",
  "transactions": [
    {
      "hash": "0x5e0b4391716ad6dd3dcd38066f7b0ee3313670357f4b83ab88b14d7b9e48560b",
      "blockHash": "0x4401ff566305507791b4d638d907283d8f026fb652cfc97cd01b659df7e430b9",
      "blockNumber": 71238,
      "transactionIndex": 0,
      "confirmations": null,
      "from": "0x17580B766f7453525ca4C6A88b01b50570EA088C",
      "gasPrice": {
        "_hex": "0xd26f04341"
      },
      "gasLimit": {
        "_hex": "0x61a80"
      },
      "to": "0x5Fe5B7546D1628f7348B023A0393de1FC825A4fD",
      "value": {
        "_hex": "0x3782dace9d900000"
      },
      "nonce": 128,
      "data": "0xb595b8b50000000000000000000000000000000000000000000000000000000000000001",
      "r": "0x3e1524937deca65b2f819606d8a528d25bc747edbd37ebc94914a2d585057360",
      "s": "0x5b84b47cf9f0c3039ef587023b60b901c200c5667b081fe1151905da532bcce3",
      "v": 27,
      "creates": null,
      "raw": "0xf8928180850d26f0434183061a80945fe5b7546d1628f7348b023a0393de1fc825a4fd883782dace9d900000a4b595b8b500000000000000000000000000000000000000000000000000000000000000011ba03e1524937deca65b2f819606d8a528d25bc747edbd37ebc94914a2d585057360a05b84b47cf9f0c3039ef587023b60b901c200c5667b081fe1151905da532bcce3",
      "networkId": 0,
      "chainId": 0
    }
  ]
}