{
  "hash": "0x22590a3806121c3d0a419c3108896d0e9d7efe47150ba9a26ff87f58e9b3e0a0",
  "parentHash": "0xd83d59246c8c79a4b35dc455db62782fd2520cda080e3e40f587013387160fff",
  "number": 104206,
  "timestamp": 1439866080,
  "nonce": "0xcfd106fb802b75d2",
  "difficulty": 4271142652738,
  "gasLimit": {
    "_hex": "0x2fefd8"
  },
  "gasUsed": {
    "_hex": "0x5208"
  },
  "miner": "0xB9970A5666f5b3272552160B85332F0e21653a76",
  "extraData": "0x476574682f76312e302e312f77696e646f77732f676f312e342e32",
  "transactions": [
    {
      "hash": "0x0ee85c99230e958cadd4b9b56807d0743f1332d068fd5bb724f739d0db1915f0",
      "blockHash": "0x22590a3806121c3d0a419c3108896d0e9d7efe47150ba9a26ff87f58e9b3e0a0",
      "blockNumber": 104206,
      "transactionIndex": 0,
      "confirmations": null,
      "from": "0xEF247E639d49461D25F57e9362CadE3120910Ce0",
      "gasPrice": {
        "_hex": "0xce74b125d"
      },
      "gasLimit": {
        "_hex": "0x15f90"
      },
      "to": "0xF87481A262E993a75F791E7859E71BaC36A606Eb",
      "value": {
        "_hex": "0x2fb474098f67c0000"
      },
      "nonce": 38,
      "data": "0x",
      "r": "0x92603751501b21abb6a980fe59faa7348095fe94eb6572da9e31a9467607fb98",
      "s": "0x0744a59d0b191ba60092c9c6f2c28fe5080ee3f5f143d0a6f4ac71b00a5e9dcb",
      "v": 27,
      "creates": null,
      "raw": "0xf86e26850ce74b125d83015f9094f87481a262e993a75f791e7859e71bac36a606eb8902fb474098f67c0000801ba092603751501b21abb6a980fe59faa7348095fe94eb6572da9e31a9467607fb98a00744a59d0b191ba60092c9c6f2c28fe5080ee3f5f143d0a6f4ac71b00a5e9dcb",
      "networkId": 0,
      "chainId": 0
    }
  ]
}