{
  "hash": "0xd742eace307b87779ee7cc12d67fba37dc19ca90f54ac1cbe54d5226a3690678",
  "parentHash": "0x5be6c8bb403e1e0f3816b1ecaeb67b71aa7f27234372967d2ff865da0f3aeada",
  "number": 112267,
  "timestamp": 1440004688,
  "nonce": "0x9c913f105fea8142",
  "difficulty": 4387468805379,
  "gasLimit": {
    "_hex": "0x2fefd8"
  },
  "gasUsed": {
    "_hex": "0x520c"
  },
  "miner": "0xaB638742EBe3A78F2a85028350e1AADB86C0a6ed",
  "extraData": "0x",
  "transactions": [
    {
      "hash": "0x3d49aa3bc3f268e9a71d318a75280f18d8409304d0477797cc8aa0637e158f49",
      "blockHash": "0xd742eace307b87779ee7cc12d67fba37dc19ca90f54ac1cbe54d5226a3690678",
      "blockNumber": 112267,
      "transactionIndex": 0,
      "confirmations": null,
      "from": "0xecA283125c3d55ebDbB1006592B05d43C03A3fc0",
      "gasPrice": {
        "_hex": "0xd5bf5bf1d"
      },
      "gasLimit": {
        "_hex": "0x7530"
      },
      "to": "0xa0EDB351D8CdB9277C2e6b59d90Aa4FcbEa0A804",
      "value": {
        "_hex": "0x1043561a8829300000"
      },
      "nonce": 0,
      "data": "0x00",
      "r": "0x12cdf03618067c2429107f1a255eb1c73ef7ccc04c60306d9b006b8a28d8ffd9",
      "s": "0x566dbd6f909244617b0e56421a9f6e23acf59b941a0b65158e5e0656487542dc",
      "v": 28,
      "creates": null,
      "raw": "0xf86d80850d5bf5bf1d82753094a0edb351d8cdb9277c2e6b59d90aa4fcbea0a804891043561a8829300000001ca012cdf03618067c2429107f1a255eb1c73ef7ccc04c60306d9b006b8a28d8ffd9a0566dbd6f909244617b0e56421a9f6e23acf59b941a0b65158e5e0656487542dc",
      "networkId": 0,
      "chainId": 0
    }
  ]
}