{
  "hash": "0x516e8964eb54b3626fb840cff83b4ac50deb75cf47e8b56c8dbdd28a05879cb8",
  "parentHash": "0x1fc35d050ca9b3e6eed272d27d5e313cc97e8032920d67a5e9665c8b9d3e41cf",
  "number": 60893,
  "timestamp": 1439163312,
  "nonce": "0x4a5bd116841a37a9",
  "difficulty": 1735478059088,
  "gasLimit": {
    "_hex": "0x2fefd8"
  },
  "gasUsed": {
    "_hex": "0x5208"
  },
  "miner": "0x7886fC41A3f9626b773eF8ED90472b272cD15D96",
  "extraData": "0x",
  "transactions": [
    {
      "hash": "0x365efa4632a3f3d0254ba42b762ea533767be70a9fbbf25a62a8fa9f23ba2acc",
      "blockHash": "0x516e8964eb54b3626fb840cff83b4ac50deb75cf47e8b56c8dbdd28a05879cb8",
      "blockNumber": 60893,
      "transactionIndex": 0,
      "confirmations": null,
      "from": "0xC624b0Cd3307f6CFFC473f5019FA380E6811ee58",
      "gasPrice": {
        "_hex": "0xd7aa5f2ec"
      },
      "gasLimit": {
        "_hex": "0x5208"
      },
      "to": "0x32Be343B94f860124dC4fEe278FDCBD38C102D88",
      "value": {
        "_hex": "0x43c33bd41bfddc00000"
      },
      "nonce": 1,
      "data": "0x",
      "r": "0xff78741f81fdd01c11e5f230e20aad1993301a0006a640f508b136b9a2e07683",
      "s": "0x1c0c8eecf7877b7a1471e61d46b3a3b66413d03e479ee1b27d1d20d336084d25",
      "v": 27,
      "creates": null,
      "raw": "0xf86e01850d7aa5f2ec8252089432be343b94f860124dc4fee278fdcbd38c102d888a043c33bd41bfddc00000801ba0ff78741f81fdd01c11e5f230e20aad1993301a0006a640f508b136b9a2e07683a01c0c8eecf7877b7a1471e61d46b3a3b66413d03e479ee1b27d1d20d336084d25",
      "networkId": 0,
      "chainId": 0
    }
  ]
}