{
  "hash": "0x3d8eb62d3598bee51c8a752da778f388f40b0c7c02bcd628a985b296596062c8",
  "parentHash": "0x64af6b54e76dbc3ef85bf8b88994f28d973a2efac720f90faed3ecabf46d2aed",
  "number": 52781,
  "timestamp": 1439027287,
  "nonce": "0xe8d591d409ff6fb3",
  "difficulty": 1567858803508,
  "gasLimit": {
    "_hex": "0x19b071"
  },
  "gasUsed": {
    "_hex": "0x5208"
  },
  "miner": "0x0eDEd3DA479d0beF8eeC92A76644D3f4E3C177f7",
  "extraData": "0x476574682f76312e302e312f6c696e75782f676f312e342e32",
  "transactions": [
    {
      "hash": "0x06de05e1ab5e28805fb50ec1ebed586727d2224d43d59cc1f82aa7f2ef0ea0de",
      "blockHash": "0x3d8eb62d3598bee51c8a752da778f388f40b0c7c02bcd628a985b296596062c8",
      "blockNumber": 52781,
      "transactionIndex": 0,
      "confirmations": null,
      "from": "0x71616E05EFEA08184F8Bca85F6df1E783EAdEb95",
      "gasPrice": {
        "_hex": "0xcf1c787c8"
      },
      "gasLimit": {
        "_hex": "0x5208"
      },
      "to": "0x32Be343B94f860124dC4fEe278FDCBD38C102D88",
      "value": {
        "_hex": "0x56bc33852f431c000"
      },
      "nonce": 0,
      "data": "0x",
      "r": "0xb6eb6d0e3fa2c6bfb7c4f3f03834d09418e660f6daf0e525fc0958b6146d5621",
      "s": "0x0fcd01fb9bd1a269a7e510449524fbb9036fddfd8a72aaec09534f30a6895b0d",
      "v": 28,
      "creates": null,
      "raw": "0xf86d80850cf1c787c88252089432be343b94f860124dc4fee278fdcbd38c102d8889056bc33852f431c000801ca0b6eb6d0e3fa2c6bfb7c4f3f03834d09418e660f6daf0e525fc0958b6146d5621a00fcd01fb9bd1a269a7e510449524fbb9036fddfd8a72aaec09534f30a6895b0d",
      "networkId": 0,
      "chainId": 0
    }
  ]
}