{
  "hash": "0xbe4e580d39e4979bb14f5b3c61cd1565b6807b3c3e6f11928c514e20222401cd",
  "parentHash": "0x5816200ce0cdb1873eb3152c076b8cc79c847e7fe352dfc668a11e8f7d5c53da",
  "number": 108716,
  "timestamp": 1439945081,
  "nonce": "0xe2faa7af7d7f150f",
  "difficulty": 4340308035341,
  "gasLimit": {
    "_hex": "0x2fefd8"
  },
  "gasUsed": {
    "_hex": "0x5208"
  },
  "miner": "0xe6A7a1d47ff21B6321162AEA7C6CB457D5476Bca",
  "extraData": "0x476574682f76312e302e312d38326566323666362f6c696e75782f676f312e34",
  "transactions": [
    {
      "hash": "0x7ba5d62a1dda31841c2aec33361e30a3dc8e3f202d6b3ce63e74ac4185d6c712",
      "blockHash": "0xbe4e580d39e4979bb14f5b3c61cd1565b6807b3c3e6f11928c514e20222401cd",
      "blockNumber": 108716,
      "transactionIndex": 0,
      "confirmations": null,
      "from": "0x790b8a3cE86E707ED0eD32bF89B3269692a23CC1",
      "gasPrice": {
        "_hex": "0xccf3bbc25"
      },
      "gasLimit": {
        "_hex": "0x15f90"
      },
      "to": "0x4D67f4F0Db45b3B5a3424B39ed8d972F710381D5",
      "value": {
        "_hex": "0x2de228db94a2a0000"
      },
      "nonce": 42,
      "data": "0x",
      "r": "0x822684f08dec6642f98c6b4d7afc8f3c9f90d09decb77fcaace4041f4ca501b1",
      "s": "0x7fbc050d0f3f7a3afc39741af590fbb99ea57d9c8e298988fd4a37b1ff42673d",
      "v": 27,
      "creates": null,
      "raw": "0xf86e2a850ccf3bbc2583015f90944d67f4f0db45b3b5a3424b39ed8d972f710381d58902de228db94a2a0000801ba0822684f08dec6642f98c6b4d7afc8f3c9f90d09decb77fcaace4041f4ca501b1a07fbc050d0f3f7a3afc39741af590fbb99ea57d9c8e298988fd4a37b1ff42673d",
      "networkId": 0,
      "chainId": 0
    }
  ]
}