{
  "hash": "0xe6bbd764efc60868772e52419309abdadb176c5c66d6030aa53449932842fe3b",
  "parentHash": "0x5bc2974b0e4ada6b23df8754bb1e52736999430c6307884c30800fa69e90eae5",
  "number": 49013,
  "timestamp": 1438966408,
  "nonce": "0x11fdff1184fd8a0a",
  "difficulty": 1486536783220,
  "gasLimit": {
    "_hex": "0x23685"
  },
  "gasUsed": {
    "_hex": "0x5208"
  },
  "miner": "0xB57a69A9cFD1BC39510a70Ab14De3BDa11d1dF70",
  "extraData": "0x476574682f76312e302e312f6c696e75782f676f312e342e32",
  "transactions": [
    {
      "hash": "0x8c8cf1bc831fe7837d149a72cec1ba9ee6471ffadc05b218b860ee36962e64e2",
      "blockHash": "0xe6bbd764efc60868772e52419309abdadb176c5c66d6030aa53449932842fe3b",
      "blockNumber": 49013,
      "transactionIndex": 0,
      "confirmations": null,
      "from": "0x95E9294F71F732A74772b9e587911B0cf322B953",
      "gasPrice": {
        "_hex": "0xcb479f9c8"
      },
      "gasLimit": {
        "_hex": "0x15f90"
      },
      "to": "0x96EA6Ac89A2bac95347B51DBa63D8bd5ebDedce1",
      "value": {
        "_hex": "0xde0b6b3a7640000"
      },
      "nonce": 0,
      "data": "0x",
      "r": "0x37c5012bfd530f81b916a521ee5d127d8b473dbf153b042733c2125bbca71d44",
      "s": "0x45701ae8b903b49ebd30a08731f1f07d8a0bd5788987f6dc3785bd09e46e8336",
      "v": 27,
      "creates": null,
      "raw": "0xf86d80850cb479f9c883015f909496ea6ac89a2bac95347b51dba63d8bd5ebdedce1880de0b6b3a7640000801ba037c5012bfd530f81b916a521ee5d127d8b473dbf153b042733c2125bbca71d44a045701ae8b903b49ebd30a08731f1f07d8a0bd5788987f6dc3785bd09e46e8336",
      "networkId": 0,
      "chainId": 0
    }
  ]
}