{
  "hash": "0x96874a4f5d6a8271edec1c78c0668d7d889fd5c6ecbf28aa6b0d2e665320c2a7",
  "parentHash": "0xce3cf649b168ae82a11f6bde9bc2f1b7bdd61fd8984921edc7fbb75c062f4a4a",
  "number": 60393,
  "timestamp": 1439154856,
  "nonce": "0xbe101f700feac37a",
  "difficulty": 1738974625139,
  "gasLimit": {
    "_hex": "0x2fefd8"
  },
  "gasUsed": {
    "_hex": "0x13269"
  },
  "miner": "0xEF247E639d49461D25F57e9362CadE3120910Ce0",
  "extraData": "0x476574682f76312e302e312f6c696e75782f676f312e342e32",
  "transactions": [
    {
      "hash": "0xf2dd87490dea226e478991d8d58e0b5930b4fcab89e2190ec0a21bf9442d4218",
      "blockHash": "0x96874a4f5d6a8271edec1c78c0668d7d889fd5c6ecbf28aa6b0d2e665320c2a7",
      "blockNumber": 60393,
      "transactionIndex": 0,
      "confirmations": null,
      "from": "0xA34f9D568bF7aFd94c2A5B8a5Ff55C66C4087999",
      "gasPrice": {
        "_hex": "0x111d8d65d08"
      },
      "gasLimit": {
        "_hex": "0x15f90"
      },
      "to": "0x2910543Af39abA0Cd09dBb2D50200b3E800A63D2",
      "value": {
        "_hex": "0xde0b6b3a7640000"
      },
      "nonce": 1,
      "data": "0x454e435250324d4a52",
      "r": "0xcded0852c84f043a1b1cd358471f7c72a2091be14af7bc56f85ee47077669473",
      "s": "0x4820ab3c0cf6ca4732a8f86fb82dcd1f9c88b1997e3b8977c988f1785710ce7c",
      "v": 28,
      "creates": null,
      "raw": "0xf87701860111d8d65d0883015f90942910543af39aba0cd09dbb2d50200b3e800a63d2880de0b6b3a764000089454e435250324d4a521ca0cded0852c84f043a1b1cd358471f7c72a2091be14af7bc56f85ee47077669473a04820ab3c0cf6ca4732a8f86fb82dcd1f9c88b1997e3b8977c988f1785710ce7c",
      "networkId": 0,
      "chainId": 0
    },
    {
      "hash": "0xa38d50115a89ec5bc176305f55d636ac983e29dc59a0bccdd81cd953efed0a04",
      "blockHash": "0x96874a4f5d6a8271edec1c78c0668d7d889fd5c6ecbf28aa6b0d2e665320c2a7",
      "blockNumber": 60393,
      "transactionIndex": 1,
      "confirmations": null,
      "from": "0xa14Cf6cEC1c6aAe4b608458F6e14692863A937Aa",
      "gasPrice": {
        "_hex": "0xd7d40ace3"
      },
      "gasLimit": {
        "_hex": "0x61a80"
      },
      "to": "0x020522bF9B8eD6FF41E2fa6765a17E20E2767D64",
      "value": {
        "_hex": "0x56bc75e2d63100000"
      },
      "nonce": 8,
      "data": "0x",
      "r": "0xc6639f5a7db57459c017687fa70812610afffd18648897c8dfeaf0e97ada7eeb",
      "s": "0x1afa30646eed8f59fe8a4b1bd9f2fc6f6b72034b350afbde7e9e81f8e0c2c5e7",
      "v": 27,
      "creates": null,
      "raw": "0xf86e08850d7d40ace383061a8094020522bf9b8ed6ff41e2fa6765a17e20e2767d6489056bc75e2d63100000801ba0c6639f5a7db57459c017687fa70812610afffd18648897c8dfeaf0e97ada7eeba01afa30646eed8f59fe8a4b1bd9f2fc6f6b72034b350afbde7e9e81f8e0c2c5e7",
      "networkId": 0,
      "chainId": 0
    }
  ]
}