{
  "hash": "0x719b2a507ab29e873d4bce7b40e83c9120cc16e8898c68be419180cd9dbaaf05",
  "parentHash": "0xfb760f899eb53e736d7c1088740f681fc804fbe19ea0619acf5b908744c19c4d",
  "number": 112802,
  "timestamp": 1440013514,
  "nonce": "0x36a549fda0c03d0b",
  "difficulty": 4428079844388,
  "gasLimit": {
    "_hex": "0x2fefd8"
  },
  "gasUsed": {
    "_hex": "0xf618"
  },
  "miner": "0x623d2411c3bb3340784155F9a688b0085251aB5c",
  "extraData": "0x",
  "transactions": [
    {
      "hash": "0x9dd7d11cb71df12e0ea0459ecab17a3dda8ff7babaad6f8777a541a9c12006d4",
      "blockHash": "0x719b2a507ab29e873d4bce7b40e83c9120cc16e8898c68be419180cd9dbaaf05",
      "blockNumber": 112802,
      "transactionIndex": 0,
      "confirmations": null,
      "from": "0x7C197542A77e913547d2E58e8d3c6F224f6f0f98",
      "gasPrice": {
        "_hex": "0xdde9b0045"
      },
      "gasLimit": {
        "_hex": "0x5208"
      },
      "to": "0x32Be343B94f860124dC4fEe278FDCBD38C102D88",
      "value": {
        "_hex": "0x586342c48e462c00"
      },
      "nonce": 5,
      "data": "0x",
      "r": "0xfbaf9151bd35ebe26c1c2a0e94d1d3477586b33a0eb594468c42589e6ef71b43",
      "s": "0x6df97f7f7cbf9e724fc30ed5093537d3d27bcb853b520398c2466c9411e7a4bb",
      "v": 28,
      "creates": null,
      "raw": "0xf86c05850dde9b00458252089432be343b94f860124dc4fee278fdcbd38c102d8888586342c48e462c00801ca0fbaf9151bd35ebe26c1c2a0e94d1d3477586b33a0eb594468c42589e6ef71b43a06df97f7f7cbf9e724fc30ed5093537d3d27bcb853b520398c2466c9411e7a4bb",
      "networkId": 0,
      "chainId": 0
    },
    {
      "hash": "0x14aa48386bb5408ec9dd1ed4ca423a162cab528aec78d0d7d515a09b0b78efa6",
      "blockHash": "0x719b2a507ab29e873d4bce7b40e83c9120cc16e8898c68be419180cd9dbaaf05",
      "blockNumber": 112802,
      "transactionIndex": 1,
      "confirmations": null,
      "from": "0xb2e4017063376d7eb1a72d91EC8Ff38712ffebdF",
      "gasPrice": {
        "_hex": "0xdde9b0045"
      },
      "gasLimit": {
        "_hex": "0x5208"
      },
      "to": "0x32Be343B94f860124dC4fEe278FDCBD38C102D88",
      "value": {
        "_hex": "0x130f36c712050000"
      },
      "nonce": 2,
      "data": "0x",
      "r": "0x888cd5745a391c7bc3bf19f004838ca55e94f58fbd6350f8a90fc27bf9834ace",
      "s": "0x5ad223e24d5969b28a462f630b06d3deb8a088f373fb864242c0eae0c27fe9a7",
      "v": 28,
      "creates": null,
      "raw": "0xf86c02850dde9b00458252089432be343b94f860124dc4fee278fdcbd38c102d8888130f36c712050000801ca0888cd5745a391c7bc3bf19f004838ca55e94f58fbd6350f8a90fc27bf9834acea05ad223e24d5969b28a462f630b06d3deb8a088f373fb864242c0eae0c27fe9a7",
      "networkId": 0,
      "chainId": 0
    },
    {
      "hash": "0x619b61fbf207849ff928037211ec357d8e3fd563a3960a6d7a053b7fd778a668",
      "blockHash": "0x719b2a507ab29e873d4bce7b40e83c9120cc16e8898c68be419180cd9dbaaf05",
      "blockNumber": 112802,
      "transactionIndex": 2,
      "confirmations": null,
      "from": "0x0dd48f729D5084545452A08F5E5AB412d7c2888a",
      "gasPrice": {
        "_hex": "0xd829211eb"
      },
      "gasLimit": {
        "_hex": "0x15f90"
      },
      "to": "0x2533B90f7afF15196EaA7e4719E057c85dEF3A47",
      "value": {
        "_hex": "0x1263587ad76480000"
      },
      "nonce": 5,
      "data": "0x",
      "r": "0xc1f8dd55cc33f3da8466cb7eae3f43eebdaa1d09fa8eee96e6d55e6d32957273",
      "s": "0x073f027081e54ba192c5f536a3b93d0987f87a5983de90e129b8824b029d2d34",
      "v": 27,
      "creates": null,
      "raw": "0xf86e05850d829211eb83015f90942533b90f7aff15196eaa7e4719e057c85def3a478901263587ad76480000801ba0c1f8dd55cc33f3da8466cb7eae3f43eebdaa1d09fa8eee96e6d55e6d32957273a0073f027081e54ba192c5f536a3b93d0987f87a5983de90e129b8824b029d2d34",
      "networkId": 0,
      "chainId": 0
    }
  ]
}