{
  "hash": "0x2fed722a3258a1142ffb46bcdd8391e91c9c92a76fc498806368231b02f8b371",
  "parentHash": "0xe47b94c6e64f36f8c7103b2fef7d90d3843797480ad69e566ee1e7c49ec0545a",
  "number": 83799,
  "timestamp": 1439541058,
  "nonce": "0xe3fffe236e734f7c",
  "difficulty": 2447903687114,
  "gasLimit": {
    "_hex": "0x2fefd8"
  },
  "gasUsed": {
    "_hex": "0x5208"
  },
  "miner": "0xf927a40C8B7F6E07c5af7FA2155B4864a4112B13",
  "extraData": "0x",
  "transactions": [
    {
      "hash": "0xfa1a397dfa9068d4daa6e8dac5156c348f2264a264f3e5de0820645013873ca0",
      "blockHash": "0x2fed722a3258a1142ffb46bcdd8391e91c9c92a76fc498806368231b02f8b371",
      "blockNumber": 83799,
      "transactionIndex": 0,
      "confirmations": null,
      "from": "0x2910543Af39abA0Cd09dBb2D50200b3E800A63D2",
      "gasPrice": {
        "_hex": "0xe19834dec"
      },
      "gasLimit": {
        "_hex": "0x5208"
      },
      "to": "0x3faFe90631678f97C1D101ea02D4cd743cBD24ed",
      "value": {
        "_hex": "0x8ab55f8b52078000"
      },
      "nonce": 533,
      "data": "0x",
      "r": "0x39841700858a6ee9ffea1a89626bf73ebcfd6345da8d42debf2a3390f4c7e958",
      "s": "0x220c18100e2afa7cc233ed8c03c0aad17b48adc6369d1a37cdd5caf5fdcf4895",
      "v": 27,
      "creates": null,
      "raw": "0xf86e820215850e19834dec825208943fafe90631678f97c1d101ea02d4cd743cbd24ed888ab55f8b52078000801ba039841700858a6ee9ffea1a89626bf73ebcfd6345da8d42debf2a3390f4c7e958a0220c18100e2afa7cc233ed8c03c0aad17b48adc6369d1a37cdd5caf5fdcf4895",
      "networkId": 0,
      "chainId": 0
    }
  ]
}