{
  "hash": "0xbfbfef48448b92be603bca9afa3670f9144055ee3c7cf20f0019d6ec5c0f84de",
  "parentHash": "0xefed5e81218e27ec8767aa27f91b08bb96e7d542e70cdbcce19650aaf3bc57be",
  "number": 97048,
  "timestamp": 1439750009,
  "nonce": "0x02442d908393052d",
  "difficulty": 3754112362119,
  "gasLimit": {
    "_hex": "0x2fefd8"
  },
  "gasUsed": {
    "_hex": "0x5208"
  },
  "miner": "0xfC25864D8326b4CB335C6942218e5F4Ee8D1E1EF",
  "extraData": "0x476574682f76312e302e312f77696e646f77732f676f312e342e32",
  "transactions": [
    {
      "hash": "0x09fcd15c36d7ad38bdbb9a58d6c9d460fedfd2ed73fe83eed7274453e76cae47",
      "blockHash": "0xbfbfef48448b92be603bca9afa3670f9144055ee3c7cf20f0019d6ec5c0f84de",
      "blockNumber": 97048,
      "transactionIndex": 0,
      "confirmations": null,
      "from": "0x6F2a83BC1c1846bf84ffC43B8776f1AA4a9F890F",
      "gasPrice": {
        "_hex": "0xd3363e7ad"
      },
      "gasLimit": {
        "_hex": "0x15f90"
      },
      "to": "0x01Ad0ACFf478127D9d702B1A13599D706cB759b1",
      "value": {
        "_hex": "0x8ac7230489e80000"
      },
      "nonce": 5,
      "data": "0x",
      "r": "0xc4817a8469bf30c941e4967643830f3dd8acd2f13b2dff349b9cdf90df42dbd4",
      "s": "0x5f42d0b7f0d6ecf3a27f4b3f1edda37d41ece27dcb8009a5b352ba0f729191d4",
      "v": 27,
      "creates": null,
      "raw": "0xf86d05850d3363e7ad83015f909401ad0acff478127d9d702b1a13599d706cb759b1888ac7230489e80000801ba0c4817a8469bf30c941e4967643830f3dd8acd2f13b2dff349b9cdf90df42dbd4a05f42d0b7f0d6ecf3a27f4b3f1edda37d41ece27dcb8009a5b352ba0f729191d4",
      "networkId": 0,
      "chainId": 0
    }
  ]
}