{
  "hash": "0xc81bd035b3ff248925129eec554cf80fa40c46fad629a8103850b742311820a6",
  "parentHash": "0xa89d6a2fd09bf3719fdf50c1352605b92703ee7c588ff669ec696ce7cf7cb4bf",
  "number": 76778,
  "timestamp": 1439425975,
  "nonce": "0x580f534217b5f780",
  "difficulty": 2242721481865,
  "gasLimit": {
    "_hex": "0x2fefd8"
  },
  "gasUsed": {
    "_hex": "0x2256a"
  },
  "miner": "0x55bAf64fc9eAccFFd7Cc643BB61142E1C6ac093e",
  "extraData": "0x",
  "transactions": [
    {
      "hash": "0x37794afeda43e43c5aba623c08c2e0d3ed851982fac4aa7ed41e479bdbe26626",
      "blockHash": "0xc81bd035b3ff248925129eec554cf80fa40c46fad629a8103850b742311820a6",
      "blockNumber": 76778,
      "transactionIndex": 0,
      "confirmations": null,
      "from": "0x8Be84A3adfBc51c59023B2413766E229108c35DE",
      "gasPrice": {
        "_hex": "0xce148c431"
      },
      "gasLimit": {
        "_hex": "0x493e0"
      },
      "to": "0xD79B4C6791784184e2755B2fC1659eaaB0f80456",
      "value": {
        "_hex": "0x0"
      },
      "nonce": 16,
      "data": "0xbd66528a73302e3635343932333836373936303636313700000000000000000000000000",
      "r": "0x48493df7e5bd6bd0ea547aed1b2d867f55b5addd3a0e687cf9f9f19b5b7e55ef",
      "s": "0x72d3807e8a7d8056d7a4d7738fc684207e165f78d75376a7158f45bf1a108bdd",
      "v": 28,
      "creates": null,
      "raw": "0xf88910850ce148c431830493e094d79b4c6791784184e2755b2fc1659eaab0f8045680a4bd66528a73302e36353439323338363739363036363137000000000000000000000000001ca048493df7e5bd6bd0ea547aed1b2d867f55b5addd3a0e687cf9f9f19b5b7e55efa072d3807e8a7d8056d7a4d7738fc684207e165f78d75376a7158f45bf1a108bdd",
      "networkId": 0,
      "chainId": 0
    },
    {
      "hash": "0x8503cc4d2736859043f1ed17b3b328942a34c1e2f0afac11c4e057418bf61b47",
      "blockHash": "0xc81bd035b3ff248925129eec554cf80fa40c46fad629a8103850b742311820a6",
      "blockNumber": 76778,
      "transactionIndex": 1,
      "confirmations": null,
      "from": "0x8Be84A3adfBc51c59023B2413766E229108c35DE",
      "gasPrice": {
        "_hex": "0xce148c431"
      },
      "gasLimit": {
        "_hex": "0x493e0"
      },
      "to": "0xD79B4C6791784184e2755B2fC1659eaaB0f80456",
      "value": {
        "_hex": "0xde0b6b3a7640000"
      },
      "nonce": 17,
      "data": "0x8d21618600000000000000000000000000000000000000000000000000000000000000e6ad96067716e7c082e5d92e982cb38fae4dc7d7f43065a2caa1d662dbe3438d21",
      "r": "0xc769013f11c30117f7d0aa30587fe8cc4b4e2ee978204000d48bfe5379c2ab4f",
      "s": "0x4ef1ad90d1850a35c3f2aac2ac638eb7af913b7b7d4d4b548f880e0b42d3a936",
      "v": 28,
      "creates": null,
      "raw": "0xf8b211850ce148c431830493e094d79b4c6791784184e2755b2fc1659eaab0f80456880de0b6b3a7640000b8448d21618600000000000000000000000000000000000000000000000000000000000000e6ad96067716e7c082e5d92e982cb38fae4dc7d7f43065a2caa1d662dbe3438d211ca0c769013f11c30117f7d0aa30587fe8cc4b4e2ee978204000d48bfe5379c2ab4fa04ef1ad90d1850a35c3f2aac2ac638eb7af913b7b7d4d4b548f880e0b42d3a936",
      "networkId": 0,
      "chainId": 0
    }
  ]
}