{
  "hash": "0xbb50e6c470aead3d9a6746b1cdf47e709f4429358a7f387acf99657fc23de85a",
  "parentHash": "0x27b1e6dcdc977732a6462cbeec8ba2912f6dd248858c85586bcbd8bbe35af5a9",
  "number": 105407,
  "timestamp": 1439887108,
  "nonce": "0x55685a26e671fb21",
  "difficulty": 4365404610338,
  "gasLimit": {
    "_hex": "0x2fefd8"
  },
  "gasUsed": {
    "_hex": "0x2409c"
  },
  "miner": "0xe6A7a1d47ff21B6321162AEA7C6CB457D5476Bca",
  "extraData": "0x476574682f76312e302e312d38326566323666362f6c696e75782f676f312e34",
  "transactions": [
    {
      "hash": "0xbb3f147c2852672c33a7d3025a8ba9c5891f673c45c5d469b5838df76c0dd51b",
      "blockHash": "0xbb50e6c470aead3d9a6746b1cdf47e709f4429358a7f387acf99657fc23de85a",
      "blockNumber": 105407,
      "transactionIndex": 0,
      "confirmations": null,
      "from": "0x007f7f58D3eb5b7510A301eCC749FC1fCDDBE14D",
      "gasPrice": {
        "_hex": "0xde90f59a8"
      },
      "gasLimit": {
        "_hex": "0x15f90"
      },
      "to": "0xb1abce2918E21ddb93AA452731a12672A3d9F75a",
      "value": {
        "_hex": "0x4563918244f40000"
      },
      "nonce": 254,
      "data": "0x",
      "r": "0xe28509f7fc06459ba0375b25a1ef7b8a28e08e8648aac3bd2e9f0618182be839",
      "s": "0x53815497992722505a49cee1d09c7760e177ad17d5ea7176da80ff0224a5f49e",
      "v": 28,
      "creates": null,
      "raw": "0xf86e81fe850de90f59a883015f9094b1abce2918e21ddb93aa452731a12672a3d9f75a884563918244f40000801ca0e28509f7fc06459ba0375b25a1ef7b8a28e08e8648aac3bd2e9f0618182be839a053815497992722505a49cee1d09c7760e177ad17d5ea7176da80ff0224a5f49e",
      "networkId": 0,
      "chainId": 0
    },
    {
      "hash": "0x6d50f10441a976c05e020b11b9dc8a372e374ee7211d4033694b8c7b26858ab9",
      "blockHash": "0xbb50e6c470aead3d9a6746b1cdf47e709f4429358a7f387acf99657fc23de85a",
      "blockNumber": 105407,
      "transactionIndex": 1,
      "confirmations": null,
      "from": "0x007f7f58D3eb5b7510A301eCC749FC1fCDDBE14D",
      "gasPrice": {
        "_hex": "0xde90f59a8"
      },
      "gasLimit": {
        "_hex": "0x15f90"
      },
      "to": "0xb1abce2918E21ddb93AA452731a12672A3d9F75a",
      "value": {
        "_hex": "0x4563918244f40000"
      },
      "nonce": 255,
      "data": "0x",
      "r": "0x5184425221374b6fb33660cd42f0581cc1f321fc35cd6f40a67e7c7092662b00",
      "s": "0x6db2774288636df2e8c25e7ffe9196978259ee716dff151057ef006dfdbd9459",
      "v": 27,
      "creates": null,
      "raw": "0xf86e81ff850de90f59a883015f9094b1abce2918e21ddb93aa452731a12672a3d9f75a884563918244f40000801ba05184425221374b6fb33660cd42f0581cc1f321fc35cd6f40a67e7c7092662b00a06db2774288636df2e8c25e7ffe9196978259ee716dff151057ef006dfdbd9459",
      "networkId": 0,
      "chainId": 0
    },
    {
      "hash": "0xbd6e29bdfe40e37a3bf1aa761be17f535ae9f9ef0af09440446fd5c460681ef9",
      "blockHash": "0xbb50e6c470aead3d9a6746b1cdf47e709f4429358a7f387acf99657fc23de85a",
      "blockNumber": 105407,
      "transactionIndex": 2,
      "confirmations": null,
      "from": "0x164d6C84C4D54AA3E22A5b2B72cFb968eDe862C5",
      "gasPrice": {
        "_hex": "0xd165e9fa8"
      },
      "gasLimit": {
        "_hex": "0x5208"
      },
      "to": "0x32Be343B94f860124dC4fEe278FDCBD38C102D88",
      "value": {
        "_hex": "0x1feb8e20f35065000"
      },
      "nonce": 4,
      "data": "0x",
      "r": "0xa6e283f6262318f1451cd42623960c030d20bca15766146945a91a39d9be4cd5",
      "s": "0x0dff1ee08dc0f0874d13f01598c9b1c840881706bc65323aecddc4f998405215",
      "v": 27,
      "creates": null,
      "raw": "0xf86d04850d165e9fa88252089432be343b94f860124dc4fee278fdcbd38c102d888901feb8e20f35065000801ba0a6e283f6262318f1451cd42623960c030d20bca15766146945a91a39d9be4cd5a00dff1ee08dc0f0874d13f01598c9b1c840881706bc65323aecddc4f998405215",
      "networkId": 0,
      "chainId": 0
    },
    {
      "hash": "0xe9c84d7d761795e06f2a5fb557133f3e414ef4998d201e6f2ebd8d5b34c67472",
      "blockHash": "0xbb50e6c470aead3d9a6746b1cdf47e709f4429358a7f387acf99657fc23de85a",
      "blockNumber": 105407,
      "transactionIndex": 3,
      "confirmations": null,
      "from": "0x187b1f47Cd55b27878699DfCDCee2234cD49E97e",
      "gasPrice": {
        "_hex": "0xd165e9fa8"
      },
      "gasLimit": {
        "_hex": "0x5208"
      },
      "to": "0x32Be343B94f860124dC4fEe278FDCBD38C102D88",
      "value": {
        "_hex": "0x3250033ee81820000"
      },
      "nonce": 8,
      "data": "0x",
      "r": "0x24174eb6b1993b946af1edf1b0584cbf210a35e5783793c1d3dd3d48ac4fb489",
      "s": "0x767b363b3d933fd21b8f7d6786ec85935cf45fe2d45d9c780e073e5c344af6f8",
      "v": 28,
      "creates": null,
      "raw": "0xf86d08850d165e9fa88252089432be343b94f860124dc4fee278fdcbd38c102d888903250033ee81820000801ca024174eb6b1993b946af1edf1b0584cbf210a35e5783793c1d3dd3d48ac4fb489a0767b363b3d933fd21b8f7d6786ec85935cf45fe2d45d9c780e073e5c344af6f8",
      "networkId": 0,
      "chainId": 0
    },
    {
      "hash": "0x25257dbe9361ccdba571c4523e89ca7c73685361df3ab402692ddf1e3e36214e",
      "blockHash": "0xbb50e6c470aead3d9a6746b1cdf47e709f4429358a7f387acf99657fc23de85a",
      "blockNumber": 105407,
      "transactionIndex": 4,
      "confirmations": null,
      "from": "0xb1abce2918E21ddb93AA452731a12672A3d9F75a",
      "gasPrice": {
        "_hex": "0xd165e9fa8"
      },
      "gasLimit": {
        "_hex": "0x5208"
      },
      "to": "0x32Be343B94f860124dC4fEe278FDCBD38C102D88",
      "value": {
        "_hex": "0x1158a14757512c000"
      },
      "nonce": 136,
      "data": "0x",
      "r": "0x77e3a1e3551e1fd9d08cca0c650359890b747ac467f1ac4222113387c67d0539",
      "s": "0x0c0aa6a22730c4d75e8e21aa7de13f6d3f7dd19d3e87acddfd4538ed82848345",
      "v": 27,
      "creates": null,
      "raw": "0xf86e8188850d165e9fa88252089432be343b94f860124dc4fee278fdcbd38c102d888901158a14757512c000801ba077e3a1e3551e1fd9d08cca0c650359890b747ac467f1ac4222113387c67d0539a00c0aa6a22730c4d75e8e21aa7de13f6d3f7dd19d3e87acddfd4538ed82848345",
      "networkId": 0,
      "chainId": 0
    },
    {
      "hash": "0x55a07ffe5f55d6bfad5e18b2c7d90070d328f03113a0b71f2336bf982e72e2e6",
      "blockHash": "0xbb50e6c470aead3d9a6746b1cdf47e709f4429358a7f387acf99657fc23de85a",
      "blockNumber": 105407,
      "transactionIndex": 5,
      "confirmations": null,
      "from": "0x50056353D06a71b1f427499419D04F81f5dE4F20",
      "gasPrice": {
        "_hex": "0xd165e9fa8"
      },
      "gasLimit": {
        "_hex": "0x5208"
      },
      "to": "0x32Be343B94f860124dC4fEe278FDCBD38C102D88",
      "value": {
        "_hex": "0x11c5fcba9de633000"
      },
      "nonce": 7,
      "data": "0x",
      "r": "0x91975bc1f6329ed6d5ec14a444f29dd8b6dd4798c50e78b1602006a7e0b1bf28",
      "s": "0x324e98e627e61f1dc9bbbbd08436aa203a0019b6c413aa46c2a61bb0c9f98f56",
      "v": 28,
      "creates": null,
      "raw": "0xf86d07850d165e9fa88252089432be343b94f860124dc4fee278fdcbd38c102d8889011c5fcba9de633000801ca091975bc1f6329ed6d5ec14a444f29dd8b6dd4798c50e78b1602006a7e0b1bf28a0324e98e627e61f1dc9bbbbd08436aa203a0019b6c413aa46c2a61bb0c9f98f56",
      "networkId": 0,
      "chainId": 0
    },
    {
      "hash": "0x73026f91ca44830f61b75133dd77f4f942042240632f4e3bd1f8cc853b3ca4ea",
      "blockHash": "0xbb50e6c470aead3d9a6746b1cdf47e709f4429358a7f387acf99657fc23de85a",
      "blockNumber": 105407,
      "transactionIndex": 6,
      "confirmations": null,
      "from": "0x837A2A346557050c8cF0fb24b84Aa695E8Add19f",
      "gasPrice": {
        "_hex": "0xcd94f31bd"
      },
      "gasLimit": {
        "_hex": "0x55f0"
      },
      "to": "0x2910543Af39abA0Cd09dBb2D50200b3E800A63D2",
      "value": {
        "_hex": "0xbd15b94fc8b280000"
      },
      "nonce": 8,
      "data": "0x454e415157474e5a38",
      "r": "0xbc72e1effee1382e4ebdb68f420bf6cd13417ae2663de62bb9e064f071dd73b5",
      "s": "0x53709c9a50e4da37a1fd03ef47f07e9ad24a87e1298618f453daada2779ec751",
      "v": 27,
      "creates": null,
      "raw": "0xf87608850cd94f31bd8255f0942910543af39aba0cd09dbb2d50200b3e800a63d2890bd15b94fc8b28000089454e415157474e5a381ba0bc72e1effee1382e4ebdb68f420bf6cd13417ae2663de62bb9e064f071dd73b5a053709c9a50e4da37a1fd03ef47f07e9ad24a87e1298618f453daada2779ec751",
      "networkId": 0,
      "chainId": 0
    }
  ]
}