{
  "hash": "0xa6adecdf5ac22e859c1357e161956ecbf1a41b9306ec159c6c97de101564e501",
  "parentHash": "0xfdb4be367844547d5afb25548795b70c68ac15e471167f001db5793f6ebb9630",
  "number": 86137,
  "timestamp": 1439574015,
  "nonce": "0x795f8b86e69aead4",
  "difficulty": 2805753330220,
  "gasLimit": {
    "_hex": "0x2fefd8"
  },
  "gasUsed": {
    "_hex": "0xa410"
  },
  "miner": "0x9746c7e1ef2bd21FF3997fa467593a89cb852BD0",
  "extraData": "0x476574682f76312e302e312f77696e646f77732f676f312e342e32",
  "transactions": [
    {
      "hash": "0x72e749743fc6aa0971ef620f8f2ae5a757ea1d73c058067b9382c9759618e266",
      "blockHash": "0xa6adecdf5ac22e859c1357e161956ecbf1a41b9306ec159c6c97de101564e501",
      "blockNumber": 86137,
      "transactionIndex": 0,
      "confirmations": null,
      "from": "0x120A270bbC009644e35F0bB6ab13f95b8199c4ad",
      "gasPrice": {
        "_hex": "0xd9528122f"
      },
      "gasLimit": {
        "_hex": "0x15f90"
      },
      "to": "0x00B88D679472169CBd35a3d02192Fd24734684b4",
      "value": {
        "_hex": "0x29f6a7df7bf3fd400"
      },
      "nonce": 472,
      "data": "0x",
      "r": "0x923641818cc402498a58d8f6ec3d79c34a07837a8f27cbdd306b0809e297ee11",
      "s": "0x3ee025d8446f9b5c3c0f65a478770038aa2a2e15d24873f8fb82c73481ccdb42",
      "v": 27,
      "creates": null,
      "raw": "0xf8708201d8850d9528122f83015f909400b88d679472169cbd35a3d02192fd24734684b489029f6a7df7bf3fd400801ba0923641818cc402498a58d8f6ec3d79c34a07837a8f27cbdd306b0809e297ee11a03ee025d8446f9b5c3c0f65a478770038aa2a2e15d24873f8fb82c73481ccdb42",
      "networkId": 0,
      "chainId": 0
    },
    {
      "hash": "0x782c880d53ad672ad669db655f4e9d8a1f8c0f2f227d697a81c2feb738ad402e",
      "blockHash": "0xa6adecdf5ac22e859c1357e161956ecbf1a41b9306ec159c6c97de101564e501",
      "blockNumber": 86137,
      "transactionIndex": 1,
      "confirmations": null,
      "from": "0x123843545FB525C8E134c9A5F15ADA6865cc3848",
      "gasPrice": {
        "_hex": "0xcaef7a92e"
      },
      "gasLimit": {
        "_hex": "0x7530"
      },
      "to": "0xa9f5E7bf6Cbf6fEc55B30850Eb492b47A376d050",
      "value": {
        "_hex": "0xc328093e61ee40000"
      },
      "nonce": 10,
      "data": "0x",
      "r": "0x419f5ce3349b0e02a6071ffea438950f02f06222acc166c18cd4da07e2094ea9",
      "s": "0x40efba6f57d5514e623595ab22d917e0c758e57dcbefbb4398a4cd67e2a5d283",
      "v": 27,
      "creates": null,
      "raw": "0xf86d0a850caef7a92e82753094a9f5e7bf6cbf6fec55b30850eb492b47a376d050890c328093e61ee40000801ba0419f5ce3349b0e02a6071ffea438950f02f06222acc166c18cd4da07e2094ea9a040efba6f57d5514e623595ab22d917e0c758e57dcbefbb4398a4cd67e2a5d283",
      "networkId": 0,
      "chainId": 0
    }
  ]
}