{
  "hash": "0x3182777b21a1a3d6282df813bad20457a9478e45df8d253bbe1ee1ce8bdc145a",
  "parentHash": "0x3e638c0fe1793b8ffa8145d502b39f4dd0663ed00898d36f88f071f24d60305c",
  "number": 110340,
  "timestamp": 1439972055,
  "nonce": "0xad78b48b3b059ba9",
  "difficulty": 4369233807358,
  "gasLimit": {
    "_hex": "0x2fefd8"
  },
  "gasUsed": {
    "_hex": "0xa410"
  },
  "miner": "0xf927a40C8B7F6E07c5af7FA2155B4864a4112B13",
  "extraData": "0x",
  "transactions": [
    {
      "hash": "0x6d2957c38a1500709d330d82897c2e5475140d02981eee57fb8d4f0ddabcf185",
      "blockHash": "0x3182777b21a1a3d6282df813bad20457a9478e45df8d253bbe1ee1ce8bdc145a",
      "blockNumber": 110340,
      "transactionIndex": 0,
      "confirmations": null,
      "from": "0xe6A7a1d47ff21B6321162AEA7C6CB457D5476Bca",
      "gasPrice": {
        "_hex": "0xcd77cff4f"
      },
      "gasLimit": {
        "_hex": "0x55f0"
      },
      "to": "0xC15233674F0Cb7729e4Ab8aB733430C40580914d",
      "value": {
        "_hex": "0x5f17fa323aeb2db8"
      },
      "nonce": 4345,
      "data": "0x",
      "r": "0xd5bd3dbc6f078b40e21ed4ad7d10954373a322beaf7eb771db00f88d7564038c",
      "s": "0x35fdea81cc2745d9fb86362197bbbc3f31251be44392f82f830132912c704d03",
      "v": 27,
      "creates": null,
      "raw": "0xf86e8210f9850cd77cff4f8255f094c15233674f0cb7729e4ab8ab733430c40580914d885f17fa323aeb2db8801ba0d5bd3dbc6f078b40e21ed4ad7d10954373a322beaf7eb771db00f88d7564038ca035fdea81cc2745d9fb86362197bbbc3f31251be44392f82f830132912c704d03",
      "networkId": 0,
      "chainId": 0
    },
    {
      "hash": "0xef8684e9abfef8bad443f5618d3f28277a7fa8fb02f43417479683fe87e71d48",
      "blockHash": "0x3182777b21a1a3d6282df813bad20457a9478e45df8d253bbe1ee1ce8bdc145a",
      "blockNumber": 110340,
      "transactionIndex": 1,
      "confirmations": null,
      "from": "0xe6A7a1d47ff21B6321162AEA7C6CB457D5476Bca",
      "gasPrice": {
        "_hex": "0xcd77cff4f"
      },
      "gasLimit": {
        "_hex": "0x55f0"
      },
      "to": "0xF161498A7f225A91C338015ca11833B3399393A8",
      "value": {
        "_hex": "0x60dfdbb39bc0bd98"
      },
      "nonce": 4346,
      "data": "0x",
      "r": "0x08b939fff6005009c77d7589473044e2d1c50980de789a27fa0aade876a93c0e",
      "s": "0x43d527501393c556958296e817072ff5b6cd01d44cd1ece5873f9d007a28c808",
      "v": 28,
      "creates": null,
      "raw": "0xf86e8210fa850cd77cff4f8255f094f161498a7f225a91c338015ca11833b3399393a88860dfdbb39bc0bd98801ca008b939fff6005009c77d7589473044e2d1c50980de789a27fa0aade876a93c0ea043d527501393c556958296e817072ff5b6cd01d44cd1ece5873f9d007a28c808",
      "networkId": 0,
      "chainId": 0
    }
  ]
}