{
  "hash": "0x5a2806a41623009405557acf0cb7b784f5b6333d0a9ef3cc931c10e5c8779a70",
  "parentHash": "0x60918d42a6d2cb97c4c2b27dd2a1bb80be26172193b8dc34e5b74feb986680fc",
  "number": 69266,
  "timestamp": 1439300871,
  "nonce": "0x11ab6ebbf6fbc71b",
  "difficulty": 2069963309148,
  "gasLimit": {
    "_hex": "0x2fefd8"
  },
  "gasUsed": {
    "_hex": "0xc7f38"
  },
  "miner": "0x2C674A948592B20a4B775E1a3991Db043E6CF0FE",
  "extraData": "0x476574682f76312e302e312d38326566323666362f6c696e75782f676f312e34",
  "transactions": [
    {
      "hash": "0x96e3c67f00c2da7b681e415a526b4852583f355a0eb9ac2147ee9aff0c8eb47d",
      "blockHash": "0x5a2806a41623009405557acf0cb7b784f5b6333d0a9ef3cc931c10e5c8779a70",
      "blockNumber": 69266,
      "transactionIndex": 0,
      "confirmations": null,
      "from": "0xe6A7a1d47ff21B6321162AEA7C6CB457D5476Bca",
      "gasPrice": {
        "_hex": "0xdfe46355a"
      },
      "gasLimit": {
        "_hex": "0x55f0"
      },
      "to": "0x4b0a38C16B842d68A8721B4CAd662e07cc430652",
      "value": {
        "_hex": "0x17c314bf9e5ca128"
      },
      "nonce": 545,
      "data": "0x",
      "r": "0x6563dfef6b9257441198087cda783cb16ee7aeb24d9ca27df448e63c62951776",
      "s": "0x2eb2beb745bbb9ce19f95e55501f7491ec26ec82c619c989d3496ac8c6d112ed",
      "v": 28,
      "creates": null,
      "raw": "0xf86e820221850dfe46355a8255f0944b0a38c16b842d68a8721b4cad662e07cc4306528817c314bf9e5ca128801ca06563dfef6b9257441198087cda783cb16ee7aeb24d9ca27df448e63c62951776a02eb2beb745bbb9ce19f95e55501f7491ec26ec82c619c989d3496ac8c6d112ed",
      "networkId": 0,
      "chainId": 0
    },
    {
      "hash": "0xb5f80bbf2315c1b3adb55d22c18d00bf0dbce5dceda22cbd971e2f0cb6b7aa9e",
      "blockHash": "0x5a2806a41623009405557acf0cb7b784f5b6333d0a9ef3cc931c10e5c8779a70",
      "blockNumber": 69266,
      "transactionIndex": 1,
      "confirmations": null,
      "from": "0xe6A7a1d47ff21B6321162AEA7C6CB457D5476Bca",
      "gasPrice": {
        "_hex": "0xdfe46355a"
      },
      "gasLimit": {
        "_hex": "0x55f0"
      },
      "to": "0x57C413ECd1d83c2C65B14ABE1FB48D4Fc3136844",
      "value": {
        "_hex": "0x17c378ed4d365b08"
      },
      "nonce": 546,
      "data": "0x",
      "r": "0xf9e31cff5f0640a3639f658aff67a0c6661338d2e4a6fe7a45392a0d55c8c704",
      "s": "0x4f1999efc1b386a2aef3bcdc6b4a1817c6ba8232c1b21ce6352d090f3306297f",
      "v": 27,
      "creates": null,
      "raw": "0xf86e820222850dfe46355a8255f09457c413ecd1d83c2c65b14abe1fb48d4fc31368448817c378ed4d365b08801ba0f9e31cff5f0640a3639f658aff67a0c6661338d2e4a6fe7a45392a0d55c8c704a04f1999efc1b386a2aef3bcdc6b4a1817c6ba8232c1b21ce6352d090f3306297f",
      "networkId": 0,
      "chainId": 0
    },
    {
      "hash": "0x80c5bf1a2e7ac161a1e517bac908f930ab8bceeaa9252e5055098f4cda7fb70b",
      "blockHash": "0x5a2806a41623009405557acf0cb7b784f5b6333d0a9ef3cc931c10e5c8779a70",
      "blockNumber": 69266,
      "transactionIndex": 2,
      "confirmations": null,
      "from": "0xe6A7a1d47ff21B6321162AEA7C6CB457D5476Bca",
      "gasPrice": {
        "_hex": "0xdfe46355a"
      },
      "gasLimit": {
        "_hex": "0x55f0"
      },
      "to": "0xBFa71Aba804c2b986D969E175aCFdAC7266CDe9C",
      "value": {
        "_hex": "0x17cfc3802c09b828"
      },
      "nonce": 547,
      "data": "0x",
      "r": "0x5b2a672e2759508cc35eaa21b152b12f86554cda2c0be5be4facd950d920bd67",
      "s": "0x1535841102491f6ac5fac162b8bc137543ce49440484ff2e7c0bf3ad24d5e03d",
      "v": 28,
      "creates": null,
      "raw": "0xf86e820223850dfe46355a8255f094bfa71aba804c2b986d969e175acfdac7266cde9c8817cfc3802c09b828801ca05b2a672e2759508cc35eaa21b152b12f86554cda2c0be5be4facd950d920bd67a01535841102491f6ac5fac162b8bc137543ce49440484ff2e7c0bf3ad24d5e03d",
      "networkId": 0,
      "chainId": 0
    },
    {
      "hash": "0xac3b250bd2baf92cb546220b43d3fcaac9672a912ceb7afb69cb7fcc9b39a20d",
      "blockHash": "0x5a2806a41623009405557acf0cb7b784f5b6333d0a9ef3cc931c10e5c8779a70",
      "blockNumber": 69266,
      "transactionIndex": 3,
      "confirmations": null,
      "from": "0xe6A7a1d47ff21B6321162AEA7C6CB457D5476Bca",
      "gasPrice": {
        "_hex": "0xdfe46355a"
      },
      "gasLimit": {
        "_hex": "0x55f0"
      },
      "to": "0xD9DE820A23C38bCfE281630df2c89511CB833D03",
      "value": {
        "_hex": "0x17f5bc7d4c0cb8d4"
      },
      "nonce": 548,
      "data": "0x",
      "r": "0x6a2dd9c7fcb67b72b121224ebef6381e0b59e501eb8e4b4ee66f8b34a18fcc6a",
      "s": "0x4523e6584d0f2033cdd3e9253fe594dd46464b712072535a561b1672dcdd0f60",
      "v": 28,
      "creates": null,
      "raw": "0xf86e820224850dfe46355a8255f094d9de820a23c38bcfe281630df2c89511cb833d038817f5bc7d4c0cb8d4801ca06a2dd9c7fcb67b72b121224ebef6381e0b59e501eb8e4b4ee66f8b34a18fcc6aa04523e6584d0f2033cdd3e9253fe594dd46464b712072535a561b1672dcdd0f60",
      "networkId": 0,
      "chainId": 0
    },
    {
      "hash": "0xfb215b77860e95e1e6f05c59d864275d1e7d0d6a8a6eb5a228ead8576d3c64a9",
      "blockHash": "0x5a2806a41623009405557acf0cb7b784f5b6333d0a9ef3cc931c10e5c8779a70",
      "blockNumber": 69266,
      "transactionIndex": 4,
      "confirmations": null,
      "from": "0xe6A7a1d47ff21B6321162AEA7C6CB457D5476Bca",
      "gasPrice": {
        "_hex": "0xdfe46355a"
      },
      "gasLimit": {
        "_hex": "0x55f0"
      },
      "to": "0x87434351D204a98354B6fd9819e91F33F1F0a91D",
      "value": {
        "_hex": "0x17fb7afa7b29e808"
      },
      "nonce": 549,
      "data": "0x",
      "r": "0x262a893816f94df2b4b1915c4c64e3b5346fba5db5426530df7f91cf7da19c6e",
      "s": "0x08041f6d901e87705182444f14fa39fbeac64804a64115d32af994f6632b1021",
      "v": 27,
      "creates": null,
      "raw": "0xf86e820225850dfe46355a8255f09487434351d204a98354b6fd9819e91f33f1f0a91d8817fb7afa7b29e808801ba0262a893816f94df2b4b1915c4c64e3b5346fba5db5426530df7f91cf7da19c6ea008041f6d901e87705182444f14fa39fbeac64804a64115d32af994f6632b1021",
      "networkId": 0,
      "chainId": 0
    },
    {
      "hash": "0xdaa2b6752232c4aeeac0f6a0427575fd816e7e17570c9ddd9f671f9b1aa6f487",
      "blockHash": "0x5a2806a41623009405557acf0cb7b784f5b6333d0a9ef3cc931c10e5c8779a70",
      "blockNumber": 69266,
      "transactionIndex": 5,
      "confirmations": null,
      "from": "0xe6A7a1d47ff21B6321162AEA7C6CB457D5476Bca",
      "gasPrice": {
        "_hex": "0xdfe46355a"
      },
      "gasLimit": {
        "_hex": "0x55f0"
      },
      "to": "0x905364aFd546a2e96f44A41071b83C0258Bf17dA",
      "value": {
        "_hex": "0x18140fa1f27d5620"
      },
      "nonce": 550,
      "data": "0x",
      "r": "0x57e1dfcf78bc4ada1770f4264d16c87f56a0017dda226423ff5c66c8e4b0c971",
      "s": "0x2407f3b557ae5491eea01f934d693f758790f5364ff6f55f46af9ac1a86391e9",
      "v": 28,
      "creates": null,
      "raw": "0xf86e820226850dfe46355a8255f094905364afd546a2e96f44a41071b83c0258bf17da8818140fa1f27d5620801ca057e1dfcf78bc4ada1770f4264d16c87f56a0017dda226423ff5c66c8e4b0c971a02407f3b557ae5491eea01f934d693f758790f5364ff6f55f46af9ac1a86391e9",
      "networkId": 0,
      "chainId": 0
    },
    {
      "hash": "0xe61ad65c9e9b042cae6353e073d816132dbb0c3139017475910eba807ddb5876",
      "blockHash": "0x5a2806a41623009405557acf0cb7b784f5b6333d0a9ef3cc931c10e5c8779a70",
      "blockNumber": 69266,
      "transactionIndex": 6,
      "confirmations": null,
      "from": "0xe6A7a1d47ff21B6321162AEA7C6CB457D5476Bca",
      "gasPrice": {
        "_hex": "0xdfe46355a"
      },
      "gasLimit": {
        "_hex": "0x55f0"
      },
      "to": "0xbc681E36E2BC0d9Cb397811ce7a5821da2D66059",
      "value": {
        "_hex": "0x18d4d0b6b8ccd030"
      },
      "nonce": 551,
      "data": "0x",
      "r": "0x2f3f362457bdca28f1f24faabb075d8d3ec722f4b89f47d5cbdbdf08d4044cbf",
      "s": "0x205bcc9f3788c001fbe3fc2282af1a07955b9ef4a04aa2eb1619d575d722fa5a",
      "v": 28,
      "creates": null,
      "raw": "0xf86e820227850dfe46355a8255f094bc681e36e2bc0d9cb397811ce7a5821da2d660598818d4d0b6b8ccd030801ca02f3f362457bdca28f1f24faabb075d8d3ec722f4b89f47d5cbdbdf08d4044cbfa0205bcc9f3788c001fbe3fc2282af1a07955b9ef4a04aa2eb1619d575d722fa5a",
      "networkId": 0,
      "chainId": 0
    },
    {
      "hash": "0x233d06f6a15e0c3f7b6433d5da927469c6d18492dc8b0f71cba0cafb2aa4591e",
      "blockHash": "0x5a2806a41623009405557acf0cb7b784f5b6333d0a9ef3cc931c10e5c8779a70",
      "blockNumber": 69266,
      "transactionIndex": 7,
      "confirmations": null,
      "from": "0xe6A7a1d47ff21B6321162AEA7C6CB457D5476Bca",
      "gasPrice": {
        "_hex": "0xdfe46355a"
      },
      "gasLimit": {
        "_hex": "0x55f0"
      },
      "to": "0xE8CfAf09a32020eF1C065904a244b4dD6E7C69c6",
      "value": {
        "_hex": "0x18e85950a7de3f08"
      },
      "nonce": 552,
      "data": "0x",
      "r": "0xebe44bba7cbcacab359a2feb8390132ec9fb9ed52c3e623584978643f5e3cccc",
      "s": "0x7942a5b8ba55b894430d4e3b446123b88847d8f7f4f326a19246cb7f252cbc3b",
      "v": 27,
      "creates": null,
      "raw": "0xf86e820228850dfe46355a8255f094e8cfaf09a32020ef1c065904a244b4dd6e7c69c68818e85950a7de3f08801ba0ebe44bba7cbcacab359a2feb8390132ec9fb9ed52c3e623584978643f5e3cccca07942a5b8ba55b894430d4e3b446123b88847d8f7f4f326a19246cb7f252cbc3b",
      "networkId": 0,
      "chainId": 0
    },
    {
      "hash": "0xa25b201e0e679eb1fb2ef56db660003497f75fcb014a4154dfa7f9032a6b2860",
      "blockHash": "0x5a2806a41623009405557acf0cb7b784f5b6333d0a9ef3cc931c10e5c8779a70",
      "blockNumber": 69266,
      "transactionIndex": 8,
      "confirmations": null,
      "from": "0xe6A7a1d47ff21B6321162AEA7C6CB457D5476Bca",
      "gasPrice": {
        "_hex": "0xdfe46355a"
      },
      "gasLimit": {
        "_hex": "0x55f0"
      },
      "to": "0x33F36DffD23cf019833E1d59cBc7138824b12289",
      "value": {
        "_hex": "0x192f163df15edd18"
      },
      "nonce": 553,
      "data": "0x",
      "r": "0x8e5c83c09a68a158e1ffc045c038c6a487204daeabac40a09e891da7a57ff4ea",
      "s": "0x6abb0fad3e1974ae9d3459845e9e97571063e4f36b6719903c76bb14b78736ed",
      "v": 27,
      "creates": null,
      "raw": "0xf86e820229850dfe46355a8255f09433f36dffd23cf019833e1d59cbc7138824b1228988192f163df15edd18801ba08e5c83c09a68a158e1ffc045c038c6a487204daeabac40a09e891da7a57ff4eaa06abb0fad3e1974ae9d3459845e9e97571063e4f36b6719903c76bb14b78736ed",
      "networkId": 0,
      "chainId": 0
    },
    {
      "hash": "0x9d0d370f4ed1ec72caca9d5e5efb9f5f580686350b10010270d96a6eb9261736",
      "blockHash": "0x5a2806a41623009405557acf0cb7b784f5b6333d0a9ef3cc931c10e5c8779a70",
      "blockNumber": 69266,
      "transactionIndex": 9,
      "confirmations": null,
      "from": "0xe6A7a1d47ff21B6321162AEA7C6CB457D5476Bca",
      "gasPrice": {
        "_hex": "0xdfe46355a"
      },
      "gasLimit": {
        "_hex": "0x55f0"
      },
      "to": "0x740Ab9f08593f931fC5d0589a528663565e707ee",
      "value": {
        "_hex": "0x19340364ce541d10"
      },
      "nonce": 554,
      "data": "0x",
      "r": "0x1b5f878d2f69cf1e316aee703bba82add8908a32476f5e082aa542f25f78f580",
      "s": "0x120e1bb05effc728efd547768d6ed9ab222765fddeed822c9f29e161f755b62d",
      "v": 28,
      "creates": null,
      "raw": "0xf86e82022a850dfe46355a8255f094740ab9f08593f931fc5d0589a528663565e707ee8819340364ce541d10801ca01b5f878d2f69cf1e316aee703bba82add8908a32476f5e082aa542f25f78f580a0120e1bb05effc728efd547768d6ed9ab222765fddeed822c9f29e161f755b62d",
      "networkId": 0,
      "chainId": 0
    },
    {
      "hash": "0x79c83a3c22c5ef495fbba4a0200d3a989d8dc200b8929225535c9fe9bb854f8a",
      "blockHash": "0x5a2806a41623009405557acf0cb7b784f5b6333d0a9ef3cc931c10e5c8779a70",
      "blockNumber": 69266,
      "transactionIndex": 10,
      "confirmations": null,
      "from": "0xe6A7a1d47ff21B6321162AEA7C6CB457D5476Bca",
      "gasPrice": {
        "_hex": "0xdfe46355a"
      },
      "gasLimit": {
        "_hex": "0x55f0"
      },
      "to": "0xCaf1829959CeA5744a97c0b25dC7582c62760f97",
      "value": {
        "_hex": "0x19923d71583fec30"
      },
      "nonce": 555,
      "data": "0x",
      "r": "0x231e8601904b5965e0b6c4413bf7e37a0519be121f3e2e6f294b9d35bf14f7de",
      "s": "0x5a7f4ed65a2fbaa595a2e51e07fc23e43b7bd252f40b8fe584a8664866c3ef7b",
      "v": 28,
      "creates": null,
      "raw": "0xf86e82022b850dfe46355a8255f094caf1829959cea5744a97c0b25dc7582c62760f978819923d71583fec30801ca0231e8601904b5965e0b6c4413bf7e37a0519be121f3e2e6f294b9d35bf14f7dea05a7f4ed65a2fbaa595a2e51e07fc23e43b7bd252f40b8fe584a8664866c3ef7b",
      "networkId": 0,
      "chainId": 0
    },
    {
      "hash": "0x527fcf1d139ccbbcc1ccc3a5f59e73678a5db299d4cc414933c0f5e2fe2b0089",
      "blockHash": "0x5a2806a41623009405557acf0cb7b784f5b6333d0a9ef3cc931c10e5c8779a70",
      "blockNumber": 69266,
      "transactionIndex": 11,
      "confirmations": null,
      "from": "0xe6A7a1d47ff21B6321162AEA7C6CB457D5476Bca",
      "gasPrice": {
        "_hex": "0xdfe46355a"
      },
      "gasLimit": {
        "_hex": "0x55f0"
      },
      "to": "0xB7A755cBC2Bb4D94e844A9b1D1ff53420d836478",
      "value": {
        "_hex": "0x19a9e6c722c01320"
      },
      "nonce": 556,
      "data": "0x",
      "r": "0xb9d3f0abb418c35fad63758d07875daf1ef51d69e4d11388408b5052d2a3b193",
      "s": "0x07bce102cb1f58408cb2493a0a19a25bc637479c0ff1512cb3f065ddd875a365",
      "v": 27,
      "creates": null,
      "raw": "0xf86e82022c850dfe46355a8255f094b7a755cbc2bb4d94e844a9b1d1ff53420d8364788819a9e6c722c01320801ba0b9d3f0abb418c35fad63758d07875daf1ef51d69e4d11388408b5052d2a3b193a007bce102cb1f58408cb2493a0a19a25bc637479c0ff1512cb3f065ddd875a365",
      "networkId": 0,
      "chainId": 0
    },
    {
      "hash": "0x0fd50f0145e24bba49bfe1dc09d0dc0a06f2d9088789faa4154ac2f33273d679",
      "blockHash": "0x5a2806a41623009405557acf0cb7b784f5b6333d0a9ef3cc931c10e5c8779a70",
      "blockNumber": 69266,
      "transactionIndex": 12,
      "confirmations": null,
      "from": "0xe6A7a1d47ff21B6321162AEA7C6CB457D5476Bca",
      "gasPrice": {
        "_hex": "0xdfe46355a"
      },
      "gasLimit": {
        "_hex": "0x55f0"
      },
      "to": "0x28EE9f11DB43ea073BccB423AF9bbb6fb77fFC09",
      "value": {
        "_hex": "0x19d08abc33907928"
      },
      "nonce": 557,
      "data": "0x",
      "r": "0xd20a53eb58c4759c03e1ecf7895c626366d24e12899de4c9659f861d5cb0daf7",
      "s": "0x126f70dba3e23fd76b3ab71eaccafec3b8c3736d09819b846b0cd88bb850ec34",
      "v": 28,
      "creates": null,
      "raw": "0xf86e82022d850dfe46355a8255f09428ee9f11db43ea073bccb423af9bbb6fb77ffc098819d08abc33907928801ca0d20a53eb58c4759c03e1ecf7895c626366d24e12899de4c9659f861d5cb0daf7a0126f70dba3e23fd76b3ab71eaccafec3b8c3736d09819b846b0cd88bb850ec34",
      "networkId": 0,
      "chainId": 0
    },
    {
      "hash": "0xbc3483fd2b1fc1df3f6bc02e130c72b0e458941c60b631c6a8280f75c327ec44",
      "blockHash": "0x5a2806a41623009405557acf0cb7b784f5b6333d0a9ef3cc931c10e5c8779a70",
      "blockNumber": 69266,
      "transactionIndex": 13,
      "confirmations": null,
      "from": "0xe6A7a1d47ff21B6321162AEA7C6CB457D5476Bca",
      "gasPrice": {
        "_hex": "0xdfe46355a"
      },
      "gasLimit": {
        "_hex": "0x55f0"
      },
      "to": "0x1CC77ed71531833bAC1eA0E757Cd150dCD297920",
      "value": {
        "_hex": "0x1ac2653e76158870"
      },
      "nonce": 558,
      "data": "0x",
      "r": "0x8e85bcf87061f5249925514f8805cefcc90c11a6a4814eca3fbf29818e2bce3a",
      "s": "0x3a06703145eb3fad9f8f589111129e85ad8280ac9b3e0aa334812bd6f3993f8a",
      "v": 27,
      "creates": null,
      "raw": "0xf86e82022e850dfe46355a8255f0941cc77ed71531833bac1ea0e757cd150dcd297920881ac2653e76158870801ba08e85bcf87061f5249925514f8805cefcc90c11a6a4814eca3fbf29818e2bce3aa03a06703145eb3fad9f8f589111129e85ad8280ac9b3e0aa334812bd6f3993f8a",
      "networkId": 0,
      "chainId": 0
    },
    {
      "hash": "0x67cdaa33181ba238b5604dac1d03577d157662882471e1cee19bd92d6d9221a0",
      "blockHash": "0x5a2806a41623009405557acf0cb7b784f5b6333d0a9ef3cc931c10e5c8779a70",
      "blockNumber": 69266,
      "transactionIndex": 14,
      "confirmations": null,
      "from": "0xe6A7a1d47ff21B6321162AEA7C6CB457D5476Bca",
      "gasPrice": {
        "_hex": "0xdfe46355a"
      },
      "gasLimit": {
        "_hex": "0x55f0"
      },
      "to": "0x80618557521942001812b6689965bb92b59f95ae",
      "value": {
        "_hex": "0x1af8425553df1224"
      },
      "nonce": 559,
      "data": "0x",
      "r": "0x3c5467a4568795b0f9b32b47f5cd6c3b1d753c82135e70106c9b5a6ce6faa84d",
      "s": "0x4e00875275f097641dfd3dd1fe8b92544f7c9b4a5c3890c490c662ed5239631e",
      "v": 27,
      "creates": null,
      "raw": "0xf86e82022f850dfe46355a8255f09480618557521942001812b6689965bb92b59f95ae881af8425553df1224801ba03c5467a4568795b0f9b32b47f5cd6c3b1d753c82135e70106c9b5a6ce6faa84da04e00875275f097641dfd3dd1fe8b92544f7c9b4a5c3890c490c662ed5239631e",
      "networkId": 0,
      "chainId": 0
    },
    {
      "hash": "0x0aa0017a2ea40bedc389a88994f2b63d0ee2393cc08f4829e2d20d113cc5cb86",
      "blockHash": "0x5a2806a41623009405557acf0cb7b784f5b6333d0a9ef3cc931c10e5c8779a70",
      "blockNumber": 69266,
      "transactionIndex": 15,
      "confirmations": null,
      "from": "0xe6A7a1d47ff21B6321162AEA7C6CB457D5476Bca",
      "gasPrice": {
        "_hex": "0xdfe46355a"
      },
      "gasLimit": {
        "_hex": "0x55f0"
      },
      "to": "0x9B7280891dc19fd3A2e754cB9007203820650403",
      "value": {
        "_hex": "0x1b20952051eb1508"
      },
      "nonce": 560,
      "data": "0x",
      "r": "0x3564c33fa6e3c956c5b3ae6c86b315b34600c825894e4accf52280088869067a",
      "s": "0x3b92ad00e51eb25b64fceeb1f8e29c5b6870ba8d6abd3fe84b977547fe57b9b4",
      "v": 28,
      "creates": null,
      "raw": "0xf86e820230850dfe46355a8255f0949b7280891dc19fd3a2e754cb9007203820650403881b20952051eb1508801ca03564c33fa6e3c956c5b3ae6c86b315b34600c825894e4accf52280088869067aa03b92ad00e51eb25b64fceeb1f8e29c5b6870ba8d6abd3fe84b977547fe57b9b4",
      "networkId": 0,
      "chainId": 0
    },
    {
      "hash": "0x2acbbc7e961564bfdcdc739bdde9c31b4321b42e418c82d9ae7e4f1f502c6efc",
      "blockHash": "0x5a2806a41623009405557acf0cb7b784f5b6333d0a9ef3cc931c10e5c8779a70",
      "blockNumber": 69266,
      "transactionIndex": 16,
      "confirmations": null,
      "from": "0xe6A7a1d47ff21B6321162AEA7C6CB457D5476Bca",
      "gasPrice": {
        "_hex": "0xdfe46355a"
      },
      "gasLimit": {
        "_hex": "0x55f0"
      },
      "to": "0x267069452478cA39b3f5F1A4fFdD4131f50Bc977",
      "value": {
        "_hex": "0x1b722fd6a9533be8"
      },
      "nonce": 561,
      "data": "0x",
      "r": "0xa24a82686884ddc979a0a9905181e3d5eb0946ffcc52f9c405ebf3f155140e2f",
      "s": "0x6f149046adde45bd7d35806dfd2ef1a5832d773178dc8ccc31e217d2b9fd1a5b",
      "v": 28,
      "creates": null,
      "raw": "0xf86e820231850dfe46355a8255f094267069452478ca39b3f5f1a4ffdd4131f50bc977881b722fd6a9533be8801ca0a24a82686884ddc979a0a9905181e3d5eb0946ffcc52f9c405ebf3f155140e2fa06f149046adde45bd7d35806dfd2ef1a5832d773178dc8ccc31e217d2b9fd1a5b",
      "networkId": 0,
      "chainId": 0
    },
    {
      "hash": "0xf121daf063d781acdc40fc7f6dad88ba15d1573be975b1355ac3a641d8f9fa64",
      "blockHash": "0x5a2806a41623009405557acf0cb7b784f5b6333d0a9ef3cc931c10e5c8779a70",
      "blockNumber": 69266,
      "transactionIndex": 17,
      "confirmations": null,
      "from": "0xe6A7a1d47ff21B6321162AEA7C6CB457D5476Bca",
      "gasPrice": {
        "_hex": "0xdfe46355a"
      },
      "gasLimit": {
        "_hex": "0x55f0"
      },
      "to": "0xA542d5046D885E5fC7Dc4006ADb648C5710Ff0ED",
      "value": {
        "_hex": "0x1bc473f3bb735fe8"
      },
      "nonce": 562,
      "data": "0x",
      "r": "0xcb0a312d3bc62bcf33a2630da7f0660324e67656f798c357c20ebe7430003640",
      "s": "0x06e2d018b6e8b997d607b7db37ded689453244c0aa8be3b9513687fe75cdfedc",
      "v": 27,
      "creates": null,
      "raw": "0xf86e820232850dfe46355a8255f094a542d5046d885e5fc7dc4006adb648c5710ff0ed881bc473f3bb735fe8801ba0cb0a312d3bc62bcf33a2630da7f0660324e67656f798c357c20ebe7430003640a006e2d018b6e8b997d607b7db37ded689453244c0aa8be3b9513687fe75cdfedc",
      "networkId": 0,
      "chainId": 0
    },
    {
      "hash": "0x0a34befc7ac213aa0745dfab8236d56229ff2481a27992ce00d684c0569db28e",
      "blockHash": "0x5a2806a41623009405557acf0cb7b784f5b6333d0a9ef3cc931c10e5c8779a70",
      "blockNumber": 69266,
      "transactionIndex": 18,
      "confirmations": null,
      "from": "0xe6A7a1d47ff21B6321162AEA7C6CB457D5476Bca",
      "gasPrice": {
        "_hex": "0xdfe46355a"
      },
      "gasLimit": {
        "_hex": "0x55f0"
      },
      "to": "0x985D744C50fdcB355d105EE00565A8b32BF0B08f",
      "value": {
        "_hex": "0x1bc56a5f78f991d8"
      },
      "nonce": 563,
      "data": "0x",
      "r": "0xfc3c01374c0c186eab8086134ec6affb3073ef8bd708abe864666448d1589f2f",
      "s": "0x1cd6562fca7fb1bc5cbdd8f96ae4d270bdc1d54ec1c67617b642fe3123e3716b",
      "v": 27,
      "creates": null,
      "raw": "0xf86e820233850dfe46355a8255f094985d744c50fdcb355d105ee00565a8b32bf0b08f881bc56a5f78f991d8801ba0fc3c01374c0c186eab8086134ec6affb3073ef8bd708abe864666448d1589f2fa01cd6562fca7fb1bc5cbdd8f96ae4d270bdc1d54ec1c67617b642fe3123e3716b",
      "networkId": 0,
      "chainId": 0
    },
    {
      "hash": "0x3ed56ec5fa03a60fb2f294866a62c266433633bfd1201bada0d28869b9321653",
      "blockHash": "0x5a2806a41623009405557acf0cb7b784f5b6333d0a9ef3cc931c10e5c8779a70",
      "blockNumber": 69266,
      "transactionIndex": 19,
      "confirmations": null,
      "from": "0xe6A7a1d47ff21B6321162AEA7C6CB457D5476Bca",
      "gasPrice": {
        "_hex": "0xdfe46355a"
      },
      "gasLimit": {
        "_hex": "0x55f0"
      },
      "to": "0x1333a55102f1f4B3df95298b6CE863eF8d5BAf45",
      "value": {
        "_hex": "0x1c2609225250b878"
      },
      "nonce": 564,
      "data": "0x",
      "r": "0x1096caa77bf253171aa74e913bb8be51df466a9f559b81ac386d4fe16a14f6e8",
      "s": "0x1ff55f747ea48c1c00d0e2f3fae2c04a5c78daf1ae6733e82c5324184082f2cc",
      "v": 28,
      "creates": null,
      "raw": "0xf86e820234850dfe46355a8255f0941333a55102f1f4b3df95298b6ce863ef8d5baf45881c2609225250b878801ca01096caa77bf253171aa74e913bb8be51df466a9f559b81ac386d4fe16a14f6e8a01ff55f747ea48c1c00d0e2f3fae2c04a5c78daf1ae6733e82c5324184082f2cc",
      "networkId": 0,
      "chainId": 0
    },
    {
      "hash": "0xda3d8edc075af092a857a90b294f0449653786b3646d5674f8db8e95f8778790",
      "blockHash": "0x5a2806a41623009405557acf0cb7b784f5b6333d0a9ef3cc931c10e5c8779a70",
      "blockNumber": 69266,
      "transactionIndex": 20,
      "confirmations": null,
      "from": "0xe6A7a1d47ff21B6321162AEA7C6CB457D5476Bca",
      "gasPrice": {
        "_hex": "0xdfe46355a"
      },
      "gasLimit": {
        "_hex": "0x55f0"
      },
      "to": "0x3831A4852c55a662aFcFB2a03e8DE8D5899AC4f2",
      "value": {
        "_hex": "0x1d17836543133f20"
      },
      "nonce": 565,
      "data": "0x",
      "r": "0xb7b795d88b07fba69d73b57c667c911a069d697558733511ce3ca32f92ab1919",
      "s": "0x378158c8551bcaf21c64b88fbb5b627f385ddc8dac82d720c53e69ed0847a277",
      "v": 28,
      "creates": null,
      "raw": "0xf86e820235850dfe46355a8255f0943831a4852c55a662afcfb2a03e8de8d5899ac4f2881d17836543133f20801ca0b7b795d88b07fba69d73b57c667c911a069d697558733511ce3ca32f92ab1919a0378158c8551bcaf21c64b88fbb5b627f385ddc8dac82d720c53e69ed0847a277",
      "networkId": 0,
      "chainId": 0
    },
    {
      "hash": "0x79995f7bbd2b7b6a9ef9693cabdaacde967f2c768e6632b5a560bc0e17a4ead3",
      "blockHash": "0x5a2806a41623009405557acf0cb7b784f5b6333d0a9ef3cc931c10e5c8779a70",
      "blockNumber": 69266,
      "transactionIndex": 21,
      "confirmations": null,
      "from": "0xe6A7a1d47ff21B6321162AEA7C6CB457D5476Bca",
      "gasPrice": {
        "_hex": "0xdfe46355a"
      },
      "gasLimit": {
        "_hex": "0x55f0"
      },
      "to": "0x58A17909eDC491750161050e0F3E4f0eE68Fe669",
      "value": {
        "_hex": "0x1de93b52ac44be0c"
      },
      "nonce": 566,
      "data": "0x",
      "r": "0x5b2b11aedad200d4d299ea3a1454fc55ab4719351451b704884fdd5a575074a7",
      "s": "0x21730f7ad3eb012c6fa76c913adc80734388644b6d25c5c7a97499d8a46b3a48",
      "v": 27,
      "creates": null,
      "raw": "0xf86e820236850dfe46355a8255f09458a17909edc491750161050e0f3e4f0ee68fe669881de93b52ac44be0c801ba05b2b11aedad200d4d299ea3a1454fc55ab4719351451b704884fdd5a575074a7a021730f7ad3eb012c6fa76c913adc80734388644b6d25c5c7a97499d8a46b3a48",
      "networkId": 0,
      "chainId": 0
    },
    {
      "hash": "0x853926dd60b86ee8bf7a157a88ec4d0cbad6fe92e345069605d5968ad3ed557a",
      "blockHash": "0x5a2806a41623009405557acf0cb7b784f5b6333d0a9ef3cc931c10e5c8779a70",
      "blockNumber": 69266,
      "transactionIndex": 22,
      "confirmations": null,
      "from": "0xe6A7a1d47ff21B6321162AEA7C6CB457D5476Bca",
      "gasPrice": {
        "_hex": "0xdfe46355a"
      },
      "gasLimit": {
        "_hex": "0x55f0"
      },
      "to": "0xBDda295a4aa9E3A60063548157510B47c6BE932f",
      "value": {
        "_hex": "0x1e0cd5057a6c6428"
      },
      "nonce": 567,
      "data": "0x",
      "r": "0xbe7433b4dde2874fcbd3a55bca635fe7c6b0f3220b585e33ab73f81a2ac7872a",
      "s": "0x70796fa580887f899b781002b92c9b5ff0342f5eee43d7d35a72c7b52006f83a",
      "v": 28,
      "creates": null,
      "raw": "0xf86e820237850dfe46355a8255f094bdda295a4aa9e3a60063548157510b47c6be932f881e0cd5057a6c6428801ca0be7433b4dde2874fcbd3a55bca635fe7c6b0f3220b585e33ab73f81a2ac7872aa070796fa580887f899b781002b92c9b5ff0342f5eee43d7d35a72c7b52006f83a",
      "networkId": 0,
      "chainId": 0
    },
    {
      "hash": "0x3811d239734eba55201f6029206c18756af7749f424b6b7fed4530b8586d00fe",
      "blockHash": "0x5a2806a41623009405557acf0cb7b784f5b6333d0a9ef3cc931c10e5c8779a70",
      "blockNumber": 69266,
      "transactionIndex": 23,
      "confirmations": null,
      "from": "0xe6A7a1d47ff21B6321162AEA7C6CB457D5476Bca",
      "gasPrice": {
        "_hex": "0xdfe46355a"
      },
      "gasLimit": {
        "_hex": "0x55f0"
      },
      "to": "0x6fa7a51725800Af7973be549ac5c5Bb2c057DE37",
      "value": {
        "_hex": "0x1e0fdeacb9a22908"
      },
      "nonce": 568,
      "data": "0x",
      "r": "0x4941ec4936f5b8fd77df4407a9b5d15bbee9fb285821d4fcc2d77b1459edb764",
      "s": "0x2b858a5c4dc71cf9e567d0db8c4e0321f025821d7f15b99f709152f04447575a",
      "v": 28,
      "creates": null,
      "raw": "0xf86e820238850dfe46355a8255f0946fa7a51725800af7973be549ac5c5bb2c057de37881e0fdeacb9a22908801ca04941ec4936f5b8fd77df4407a9b5d15bbee9fb285821d4fcc2d77b1459edb764a02b858a5c4dc71cf9e567d0db8c4e0321f025821d7f15b99f709152f04447575a",
      "networkId": 0,
      "chainId": 0
    },
    {
      "hash": "0x5014056146f9a4ee74e2cceecdb73943a5fba6cb9e34115a24899949ddf1a8f2",
      "blockHash": "0x5a2806a41623009405557acf0cb7b784f5b6333d0a9ef3cc931c10e5c8779a70",
      "blockNumber": 69266,
      "transactionIndex": 24,
      "confirmations": null,
      "from": "0xe6A7a1d47ff21B6321162AEA7C6CB457D5476Bca",
      "gasPrice": {
        "_hex": "0xdfe46355a"
      },
      "gasLimit": {
        "_hex": "0x55f0"
      },
      "to": "0x0A319A7e0C887F104359e1eEe6717BD8f232d3Da",
      "value": {
        "_hex": "0x1e7147d0709dcef8"
      },
      "nonce": 569,
      "data": "0x",
      "r": "0x7f446a9f58ddff8d9d6a8c49462d47dd5283ad02895bfc73af1d4a084599a21a",
      "s": "0x547459288dc8ad9563374ca1d43635177bbded7ae08cc4f767a2eb0faa7793fb",
      "v": 27,
      "creates": null,
      "raw": "0xf86e820239850dfe46355a8255f0940a319a7e0c887f104359e1eee6717bd8f232d3da881e7147d0709dcef8801ba07f446a9f58ddff8d9d6a8c49462d47dd5283ad02895bfc73af1d4a084599a21aa0547459288dc8ad9563374ca1d43635177bbded7ae08cc4f767a2eb0faa7793fb",
      "networkId": 0,
      "chainId": 0
    },
    {
      "hash": "0x0ff8bbb23c19605834ec32114a55f410d8fbce22409b6e2b7344de3417c1aabe",
      "blockHash": "0x5a2806a41623009405557acf0cb7b784f5b6333d0a9ef3cc931c10e5c8779a70",
      "blockNumber": 69266,
      "transactionIndex": 25,
      "confirmations": null,
      "from": "0xe6A7a1d47ff21B6321162AEA7C6CB457D5476Bca",
      "gasPrice": {
        "_hex": "0xdfe46355a"
      },
      "gasLimit": {
        "_hex": "0x55f0"
      },
      "to": "0x297d128041190ec4D477Cd476D194eFcA4E9cf67",
      "value": {
        "_hex": "0x1e93ce937d0882fc"
      },
      "nonce": 570,
      "data": "0x",
      "r": "0x9ac6b4a18a9d094775ba47f771cd67f465dae1d6fa3c923a6c4781f8b0f6d2e1",
      "s": "0x0022a0176b3582aed6b493ff74cc6d47a78d972c3e4383f1a919972a15bcc57a",
      "v": 27,
      "creates": null,
      "raw": "0xf86d82023a850dfe46355a8255f094297d128041190ec4d477cd476d194efca4e9cf67881e93ce937d0882fc801ba09ac6b4a18a9d094775ba47f771cd67f465dae1d6fa3c923a6c4781f8b0f6d2e19f22a0176b3582aed6b493ff74cc6d47a78d972c3e4383f1a919972a15bcc57a",
      "networkId": 0,
      "chainId": 0
    },
    {
      "hash": "0x65972c9f791d972f88eac086824cdde5899c24df6ca5a000c084754020befa05",
      "blockHash": "0x5a2806a41623009405557acf0cb7b784f5b6333d0a9ef3cc931c10e5c8779a70",
      "blockNumber": 69266,
      "transactionIndex": 26,
      "confirmations": null,
      "from": "0xe6A7a1d47ff21B6321162AEA7C6CB457D5476Bca",
      "gasPrice": {
        "_hex": "0xdfe46355a"
      },
      "gasLimit": {
        "_hex": "0x55f0"
      },
      "to": "0x63BBedc46A1113Ba7938CF7C18CCb5Aed20eC733",
      "value": {
        "_hex": "0x1eb9c883772408ec"
      },
      "nonce": 571,
      "data": "0x",
      "r": "0x457e20346295ea4a2a87f6a9b7873b638fe709e43e683595b7653d8b6c41f17e",
      "s": "0x20808ef2aa80de57891149889aa4099850235e4fd613fa0c695e8bfdd7a3a999",
      "v": 27,
      "creates": null,
      "raw": "0xf86e82023b850dfe46355a8255f09463bbedc46a1113ba7938cf7c18ccb5aed20ec733881eb9c883772408ec801ba0457e20346295ea4a2a87f6a9b7873b638fe709e43e683595b7653d8b6c41f17ea020808ef2aa80de57891149889aa4099850235e4fd613fa0c695e8bfdd7a3a999",
      "networkId": 0,
      "chainId": 0
    },
    {
      "hash": "0x468962b1156fcf5eca0cdb9ac8913ee1c82f8e0016be72c0d7ccc6a9c8675b8a",
      "blockHash": "0x5a2806a41623009405557acf0cb7b784f5b6333d0a9ef3cc931c10e5c8779a70",
      "blockNumber": 69266,
      "transactionIndex": 27,
      "confirmations": null,
      "from": "0xe6A7a1d47ff21B6321162AEA7C6CB457D5476Bca",
      "gasPrice": {
        "_hex": "0xdfe46355a"
      },
      "gasLimit": {
        "_hex": "0x55f0"
      },
      "to": "0x7Bd46b71ceE5Bb9e27d837625365cdafDA812D87",
      "value": {
        "_hex": "0x1f66611cddc3c900"
      },
      "nonce": 572,
      "data": "0x",
      "r": "0xfae2d0454a674ec7e28d5b53dd9945f6fe7ff53ed76c06a12b53b5acdf44fc24",
      "s": "0x404d0fe82174467bae70080add1c3b4b7c210cf2d58e751aa8b718203c9b637c",
      "v": 28,
      "creates": null,
      "raw": "0xf86e82023c850dfe46355a8255f0947bd46b71cee5bb9e27d837625365cdafda812d87881f66611cddc3c900801ca0fae2d0454a674ec7e28d5b53dd9945f6fe7ff53ed76c06a12b53b5acdf44fc24a0404d0fe82174467bae70080add1c3b4b7c210cf2d58e751aa8b718203c9b637c",
      "networkId": 0,
      "chainId": 0
    },
    {
      "hash": "0xf1ad971f171da169e790fca041af7245ca4604d09edfd9d4375b58f274075128",
      "blockHash": "0x5a2806a41623009405557acf0cb7b784f5b6333d0a9ef3cc931c10e5c8779a70",
      "blockNumber": 69266,
      "transactionIndex": 28,
      "confirmations": null,
      "from": "0xe6A7a1d47ff21B6321162AEA7C6CB457D5476Bca",
      "gasPrice": {
        "_hex": "0xdfe46355a"
      },
      "gasLimit": {
        "_hex": "0x55f0"
      },
      "to": "0x9b7999611FD5eFF3ef9A86653490c42E83ED4B8E",
      "value": {
        "_hex": "0x1fcf37c133b024d8"
      },
      "nonce": 573,
      "data": "0x",
      "r": "0xe7f30d2977b9a7a983d653d288156610add2ca88cac00dc601a16913feda054c",
      "s": "0x51629a9c9c8be00e8c6ad5a84012c1c0512deeee27aefe18e43a4259dbffa342",
      "v": 28,
      "creates": null,
      "raw": "0xf86e82023d850dfe46355a8255f0949b7999611fd5eff3ef9a86653490c42e83ed4b8e881fcf37c133b024d8801ca0e7f30d2977b9a7a983d653d288156610add2ca88cac00dc601a16913feda054ca051629a9c9c8be00e8c6ad5a84012c1c0512deeee27aefe18e43a4259dbffa342",
      "networkId": 0,
      "chainId": 0
    },
    {
      "hash": "0x3ee31e9893f0b612189fbabc3f96e79a87f77dcfdbc3307840d2e478e35cba5a",
      "blockHash": "0x5a2806a41623009405557acf0cb7b784f5b6333d0a9ef3cc931c10e5c8779a70",
      "blockNumber": 69266,
      "transactionIndex": 29,
      "confirmations": null,
      "from": "0xe6A7a1d47ff21B6321162AEA7C6CB457D5476Bca",
      "gasPrice": {
        "_hex": "0xdfe46355a"
      },
      "gasLimit": {
        "_hex": "0x55f0"
      },
      "to": "0x3aAE6435730f753ecF6214996ae2a55A1503F97c",
      "value": {
        "_hex": "0x2011b6c80226f9dc"
      },
      "nonce": 574,
      "data": "0x",
      "r": "0x1f62ad8dc6acd92bc921eb55d2aaddd0d3142c2c214bd720f33a5af5d5d528e0",
      "s": "0x60ff9d11974c87fe458dab835b2f52849c4da1a4f3a0a1e176895f4e02ad8f22",
      "v": 27,
      "creates": null,
      "raw": "0xf86e82023e850dfe46355a8255f0943aae6435730f753ecf6214996ae2a55a1503f97c882011b6c80226f9dc801ba01f62ad8dc6acd92bc921eb55d2aaddd0d3142c2c214bd720f33a5af5d5d528e0a060ff9d11974c87fe458dab835b2f52849c4da1a4f3a0a1e176895f4e02ad8f22",
      "networkId": 0,
      "chainId": 0
    },
    {
      "hash": "0x264b32a483446807ec4aaa80eacc941df2bd70d368fa3966256d64f56907f8b5",
      "blockHash": "0x5a2806a41623009405557acf0cb7b784f5b6333d0a9ef3cc931c10e5c8779a70",
      "blockNumber": 69266,
      "transactionIndex": 30,
      "confirmations": null,
      "from": "0xe6A7a1d47ff21B6321162AEA7C6CB457D5476Bca",
      "gasPrice": {
        "_hex": "0xdfe46355a"
      },
      "gasLimit": {
        "_hex": "0x55f0"
      },
      "to": "0xd223eD5b348a82910987CbBc7875a7AE62E1Ba53",
      "value": {
        "_hex": "0x202c21986ce50c28"
      },
      "nonce": 575,
      "data": "0x",
      "r": "0x9b61303469154463c1bc9a8414d98eef9e0e400e197c6844289acb4c2505ec5c",
      "s": "0x6b3b085ecea99b244f1bc5ad321115cbf71cc3ed3bf3f32ef5c0b76400d2af63",
      "v": 28,
      "creates": null,
      "raw": "0xf86e82023f850dfe46355a8255f094d223ed5b348a82910987cbbc7875a7ae62e1ba5388202c21986ce50c28801ca09b61303469154463c1bc9a8414d98eef9e0e400e197c6844289acb4c2505ec5ca06b3b085ecea99b244f1bc5ad321115cbf71cc3ed3bf3f32ef5c0b76400d2af63",
      "networkId": 0,
      "chainId": 0
    },
    {
      "hash": "0x8a59c1bb0d5279b795a0fc979c3511bc094f88d8cf543eb3c43949b991ffd779",
      "blockHash": "0x5a2806a41623009405557acf0cb7b784f5b6333d0a9ef3cc931c10e5c8779a70",
      "blockNumber": 69266,
      "transactionIndex": 31,
      "confirmations": null,
      "from": "0xe6A7a1d47ff21B6321162AEA7C6CB457D5476Bca",
      "gasPrice": {
        "_hex": "0xdfe46355a"
      },
      "gasLimit": {
        "_hex": "0x55f0"
      },
      "to": "0xcA8f4Fb1A28593337AeE456Acc76ABD4C3c83257",
      "value": {
        "_hex": "0x2070e908ef4ed3fc"
      },
      "nonce": 576,
      "data": "0x",
      "r": "0x6792544ceeb90c58a4bf20dbe3d400a45a975dab8d289da16122bbda4bab8e79",
      "s": "0x530831d8f7096d2ee5c2ab7fe3d92c639110131632cde999948cc8fec7e31207",
      "v": 28,
      "creates": null,
      "raw": "0xf86e820240850dfe46355a8255f094ca8f4fb1a28593337aee456acc76abd4c3c83257882070e908ef4ed3fc801ca06792544ceeb90c58a4bf20dbe3d400a45a975dab8d289da16122bbda4bab8e79a0530831d8f7096d2ee5c2ab7fe3d92c639110131632cde999948cc8fec7e31207",
      "networkId": 0,
      "chainId": 0
    },
    {
      "hash": "0xd8e5a995c8d8733abf5161235e452a2de5dec7656dade9ab5a61db6ceb06a66e",
      "blockHash": "0x5a2806a41623009405557acf0cb7b784f5b6333d0a9ef3cc931c10e5c8779a70",
      "blockNumber": 69266,
      "transactionIndex": 32,
      "confirmations": null,
      "from": "0xe6A7a1d47ff21B6321162AEA7C6CB457D5476Bca",
      "gasPrice": {
        "_hex": "0xdfe46355a"
      },
      "gasLimit": {
        "_hex": "0x55f0"
      },
      "to": "0xA80A8ecbF729C98404eE20b39945Ad8DEBd08C61",
      "value": {
        "_hex": "0x20833fcd581bba30"
      },
      "nonce": 577,
      "data": "0x",
      "r": "0x364d274f572bc3a6b62956a1a581a57aa7c3904b976af908b05ca2a7cb835a8e",
      "s": "0x7623167031ad0950a59dabe5271fe9388e4c9766c9c897b42834e6c355272be7",
      "v": 27,
      "creates": null,
      "raw": "0xf86e820241850dfe46355a8255f094a80a8ecbf729c98404ee20b39945ad8debd08c618820833fcd581bba30801ba0364d274f572bc3a6b62956a1a581a57aa7c3904b976af908b05ca2a7cb835a8ea07623167031ad0950a59dabe5271fe9388e4c9766c9c897b42834e6c355272be7",
      "networkId": 0,
      "chainId": 0
    },
    {
      "hash": "0xcc48ff1960872e7826f807b2a5343b46283224809da481f6091fe11bbfa21d47",
      "blockHash": "0x5a2806a41623009405557acf0cb7b784f5b6333d0a9ef3cc931c10e5c8779a70",
      "blockNumber": 69266,
      "transactionIndex": 33,
      "confirmations": null,
      "from": "0xe6A7a1d47ff21B6321162AEA7C6CB457D5476Bca",
      "gasPrice": {
        "_hex": "0xdfe46355a"
      },
      "gasLimit": {
        "_hex": "0x55f0"
      },
      "to": "0xc3DBDB3Efa722db2a3F6041b0ca0042782296ba9",
      "value": {
        "_hex": "0x20bb16b1f4cbdc50"
      },
      "nonce": 578,
      "data": "0x",
      "r": "0x4ecc38953acd91d5c5ccbdb8bf1c9f0b0ee7d51371338a2d344d9432cb1dd66e",
      "s": "0x2db0b6a198f1219b79bac61b24684d1b98b291721732f80ac94c204a0da3caf3",
      "v": 28,
      "creates": null,
      "raw": "0xf86e820242850dfe46355a8255f094c3dbdb3efa722db2a3f6041b0ca0042782296ba98820bb16b1f4cbdc50801ca04ecc38953acd91d5c5ccbdb8bf1c9f0b0ee7d51371338a2d344d9432cb1dd66ea02db0b6a198f1219b79bac61b24684d1b98b291721732f80ac94c204a0da3caf3",
      "networkId": 0,
      "chainId": 0
    },
    {
      "hash": "0x5aba62ae178471f2fa9db047884c75c772a9fac138b7859ae3bb2e4ed6933927",
      "blockHash": "0x5a2806a41623009405557acf0cb7b784f5b6333d0a9ef3cc931c10e5c8779a70",
      "blockNumber": 69266,
      "transactionIndex": 34,
      "confirmations": null,
      "from": "0xe6A7a1d47ff21B6321162AEA7C6CB457D5476Bca",
      "gasPrice": {
        "_hex": "0xdfe46355a"
      },
      "gasLimit": {
        "_hex": "0x55f0"
      },
      "to": "0xb71F25995CC5De7A465fB37688126E07654Fa662",
      "value": {
        "_hex": "0x217519b3a6cf4c0c"
      },
      "nonce": 579,
      "data": "0x",
      "r": "0x23ba201fefaa9387b16c1ddd82101d4d36f496c9ffee268e6d1d72a02190a044",
      "s": "0x575375023fda508884ab496eb1f9d8198c21e8580c0030b90445f64583dd0734",
      "v": 27,
      "creates": null,
      "raw": "0xf86e820243850dfe46355a8255f094b71f25995cc5de7a465fb37688126e07654fa66288217519b3a6cf4c0c801ba023ba201fefaa9387b16c1ddd82101d4d36f496c9ffee268e6d1d72a02190a044a0575375023fda508884ab496eb1f9d8198c21e8580c0030b90445f64583dd0734",
      "networkId": 0,
      "chainId": 0
    },
    {
      "hash": "0x4244b53ab5f38db770dcd3ccf6f84a1e39abfc5eeff3f7a063a6fa42b09237be",
      "blockHash": "0x5a2806a41623009405557acf0cb7b784f5b6333d0a9ef3cc931c10e5c8779a70",
      "blockNumber": 69266,
      "transactionIndex": 35,
      "confirmations": null,
      "from": "0xe6A7a1d47ff21B6321162AEA7C6CB457D5476Bca",
      "gasPrice": {
        "_hex": "0xdfe46355a"
      },
      "gasLimit": {
        "_hex": "0x55f0"
      },
      "to": "0x5A698FA3F55962225Cd42eb7bE1ECA74d666d1b6",
      "value": {
        "_hex": "0x22089a1337b5c41c"
      },
      "nonce": 580,
      "data": "0x",
      "r": "0x1922cb95eab39e483ed86d1d018e660b182619bbf25e511de4eac4d899e09678",
      "s": "0x418b11b638a7232b40739f64d2b9cf41e2e84b44750b5202a9d4a163a733238a",
      "v": 27,
      "creates": null,
      "raw": "0xf86e820244850dfe46355a8255f0945a698fa3f55962225cd42eb7be1eca74d666d1b68822089a1337b5c41c801ba01922cb95eab39e483ed86d1d018e660b182619bbf25e511de4eac4d899e09678a0418b11b638a7232b40739f64d2b9cf41e2e84b44750b5202a9d4a163a733238a",
      "networkId": 0,
      "chainId": 0
    },
    {
      "hash": "0x054f9da32e895e368a4a929b390e26cb4d82be7a74d1eec41d10d675562a44d7",
      "blockHash": "0x5a2806a41623009405557acf0cb7b784f5b6333d0a9ef3cc931c10e5c8779a70",
      "blockNumber": 69266,
      "transactionIndex": 36,
      "confirmations": null,
      "from": "0xe6A7a1d47ff21B6321162AEA7C6CB457D5476Bca",
      "gasPrice": {
        "_hex": "0xdfe46355a"
      },
      "gasLimit": {
        "_hex": "0x55f0"
      },
      "to": "0x06D8532FBF8657Fe91402132191f01Dc4e1E54d0",
      "value": {
        "_hex": "0x232bf2f57af3440c"
      },
      "nonce": 581,
      "data": "0x",
      "r": "0x3925c18151315096c9749d65e2adc7aa2b73ae97ac05d3d0c49b2e1e40f0e003",
      "s": "0x627b503c90eef9bed24110b9c4fe1b752c336ca36c9ee1bc469d884f6fee67e6",
      "v": 27,
      "creates": null,
      "raw": "0xf86e820245850dfe46355a8255f09406d8532fbf8657fe91402132191f01dc4e1e54d088232bf2f57af3440c801ba03925c18151315096c9749d65e2adc7aa2b73ae97ac05d3d0c49b2e1e40f0e003a0627b503c90eef9bed24110b9c4fe1b752c336ca36c9ee1bc469d884f6fee67e6",
      "networkId": 0,
      "chainId": 0
    },
    {
      "hash": "0x2d4451ecabd1571b2cb7b338596c3c892420b0b07b68106a4a1da31be4d5f3f2",
      "blockHash": "0x5a2806a41623009405557acf0cb7b784f5b6333d0a9ef3cc931c10e5c8779a70",
      "blockNumber": 69266,
      "transactionIndex": 37,
      "confirmations": null,
      "from": "0xe6A7a1d47ff21B6321162AEA7C6CB457D5476Bca",
      "gasPrice": {
        "_hex": "0xdfe46355a"
      },
      "gasLimit": {
        "_hex": "0x55f0"
      },
      "to": "0x556ca325C21e450b2aFf86D9c8eF0Fa371971c97",
      "value": {
        "_hex": "0x233b8a15164e1df8"
      },
      "nonce": 582,
      "data": "0x",
      "r": "0x7382dca2e584f21a3800a09893bae733fb44ed85afeaff0685e44c58e3ddc337",
      "s": "0x5996c76712b92e277edb211888aa6ba3f790482b4a04bb1f7537a7aa60a103a8",
      "v": 27,
      "creates": null,
      "raw": "0xf86e820246850dfe46355a8255f094556ca325c21e450b2aff86d9c8ef0fa371971c9788233b8a15164e1df8801ba07382dca2e584f21a3800a09893bae733fb44ed85afeaff0685e44c58e3ddc337a05996c76712b92e277edb211888aa6ba3f790482b4a04bb1f7537a7aa60a103a8",
      "networkId": 0,
      "chainId": 0
    },
    {
      "hash": "0x33345fb4e6966255cdbbe3491e55fb9580943589a47c1bd39290d9df19b734a2",
      "blockHash": "0x5a2806a41623009405557acf0cb7b784f5b6333d0a9ef3cc931c10e5c8779a70",
      "blockNumber": 69266,
      "transactionIndex": 38,
      "confirmations": null,
      "from": "0xe6A7a1d47ff21B6321162AEA7C6CB457D5476Bca",
      "gasPrice": {
        "_hex": "0xdfe46355a"
      },
      "gasLimit": {
        "_hex": "0x55f0"
      },
      "to": "0x46e97208BC7F618816Cb502A2b516fb4BC41f1D3",
      "value": {
        "_hex": "0x24690cf67ae19820"
      },
      "nonce": 583,
      "data": "0x",
      "r": "0xd8fd40e8c2cc4bb7b1f56397f5596d4e4617e771e44ca87403833c411e9c6e45",
      "s": "0x457e4dd90c45aa98923fa5a158a293fdd7e7e1249f83d8c73b73bae525793bcd",
      "v": 28,
      "creates": null,
      "raw": "0xf86e820247850dfe46355a8255f09446e97208bc7f618816cb502a2b516fb4bc41f1d38824690cf67ae19820801ca0d8fd40e8c2cc4bb7b1f56397f5596d4e4617e771e44ca87403833c411e9c6e45a0457e4dd90c45aa98923fa5a158a293fdd7e7e1249f83d8c73b73bae525793bcd",
      "networkId": 0,
      "chainId": 0
    }
  ]
}