{
  "hash": "0x5647a1400b0ab10b54ea100ea56ca4d28f27765b27800d9cae30b6b56e9eb6a0",
  "parentHash": "0x8d1804c957406ca01c638da54ec676e1e12a987eddd49247ccd013ea625117b8",
  "number": 88295,
  "timestamp": 1439605901,
  "nonce": "0xfaf6bb5510c574f3",
  "difficulty": 3200319869719,
  "gasLimit": {
    "_hex": "0x2fefd8"
  },
  "gasUsed": {
    "_hex": "0x5208"
  },
  "miner": "0xC603Ab5ef41fC61AA8b76bEddb09e3Cfcbb174BD",
  "extraData": "0x476574682f76312e302e312f77696e646f77732f676f312e342e32",
  "transactions": [
    {
      "hash": "0xd0acd421e64e12ef717fffe2d0f0b82c32c94b05405b9a1d330ad6f8c36eaede",
      "blockHash": "0x5647a1400b0ab10b54ea100ea56ca4d28f27765b27800d9cae30b6b56e9eb6a0",
      "blockNumber": 88295,
      "transactionIndex": 0,
      "confirmations": null,
      "from": "0xF9C510f7834FDBb937D6D088e42650600C73039a",
      "gasPrice": {
        "_hex": "0xdefa3da00"
      },
      "gasLimit": {
        "_hex": "0x5208"
      },
      "to": "0x32Be343B94f860124dC4fEe278FDCBD38C102D88",
      "value": {
        "_hex": "0xd165efaa001b9000"
      },
      "nonce": 0,
      "data": "0x",
      "r": "0x43d50d78df410547d93149bf3d9ef1bb8393450432b3162210e0b3bbe82d3733",
      "s": "0x288adb61c53b3ded038200c3c2335936788b53c463a113d4482d833666f31397",
      "v": 27,
      "creates": null,
      "raw": "0xf86c80850defa3da008252089432be343b94f860124dc4fee278fdcbd38c102d8888d165efaa001b9000801ba043d50d78df410547d93149bf3d9ef1bb8393450432b3162210e0b3bbe82d3733a0288adb61c53b3ded038200c3c2335936788b53c463a113d4482d833666f31397",
      "networkId": 0,
      "chainId": 0
    }
  ]
}