{
  "hash": "0x28f3495b3fd8bac77b83f4cbf56f075acb85bb371f33f2404aaa2763d081a56d",
  "parentHash": "0xd58f617e7e9a3a2a632ec9dbca77e9eecc2411109fa2b72f6520d29dcd64d7c2",
  "number": 49568,
  "timestamp": 1438975489,
  "nonce": "0xd926afdfbe4ff47b",
  "difficulty": 1479920566790,
  "gasLimit": {
    "_hex": "0x35add"
  },
  "gasUsed": {
    "_hex": "0x546c"
  },
  "miner": "0xC49418429e58989172a4ACE0bab0cB8D3F00F97f",
  "extraData": "0x476574682f76312e302e312f6c696e75782f676f312e342e32",
  "transactions": [
    {
      "hash": "0x9dc6e93dff614dc82384141c199fc3dc989ed6f0c203d896fb33677d55e3fb39",
      "blockHash": "0x28f3495b3fd8bac77b83f4cbf56f075acb85bb371f33f2404aaa2763d081a56d",
      "blockNumber": 49568,
      "transactionIndex": 0,
      "confirmations": null,
      "from": "0x734223d27FF23E5906CaED22595701bB34830ca1",
      "gasPrice": {
        "_hex": "0x110c8f7d8de"
      },
      "gasLimit": {
        "_hex": "0xc350"
      },
      "to": "0x2910543Af39abA0Cd09dBb2D50200b3E800A63D2",
      "value": {
        "_hex": "0x6bd2eb81d38bf40000"
      },
      "nonce": 1,
      "data": "0x454e384a5057364d47",
      "r": "0x669186dfacb800ecc8dffdd69f0793cd57bf0d675a8e1aa3afe1e389d6f79593",
      "s": "0xcaf1f8b60208b212f4e6d15e401ec4176ce8f557cb94c042e4af48da3bddecf2",
      "v": 27,
      "creates": null,
      "raw": "0xf87701860110c8f7d8de82c350942910543af39aba0cd09dbb2d50200b3e800a63d2896bd2eb81d38bf4000089454e384a5057364d471ba0669186dfacb800ecc8dffdd69f0793cd57bf0d675a8e1aa3afe1e389d6f79593a0caf1f8b60208b212f4e6d15e401ec4176ce8f557cb94c042e4af48da3bddecf2",
      "networkId": 0,
      "chainId": 0
    }
  ]
}