{
  "hash": "0x79b33ea21f614082259db9fbce6de24ec182c08a74c483f7656be37ba1f108f8",
  "parentHash": "0x18454417a7ec0cbd551d3c71b0bd19350e82c8a569ed48e273b3aca1476f1b10",
  "number": 62192,
  "timestamp": 1439184712,
  "nonce": "0xbd330f9495941d29",
  "difficulty": 1768569506107,
  "gasLimit": {
    "_hex": "0x2fefd8"
  },
  "gasUsed": {
    "_hex": "0x5208"
  },
  "miner": "0x63BBedc46A1113Ba7938CF7C18CCb5Aed20eC733",
  "extraData": "0x",
  "transactions": [
    {
      "hash": "0x33b94d58531cd6bd23073879f4e4c36a65d44c3023292cc73280d211fa7239d0",
      "blockHash": "0x79b33ea21f614082259db9fbce6de24ec182c08a74c483f7656be37ba1f108f8",
      "blockNumber": 62192,
      "transactionIndex": 0,
      "confirmations": null,
      "from": "0x120A270bbC009644e35F0bB6ab13f95b8199c4ad",
      "gasPrice": {
        "_hex": "0xd670d95b0"
      },
      "gasLimit": {
        "_hex": "0x15f90"
      },
      "to": "0xb7D2dA6be86fA2bA1aF36d09448F029e438Fc419",
      "value": {
        "_hex": "0x5150ae84a8cdf00000"
      },
      "nonce": 87,
      "data": "0x",
      "r": "0x83fe02e8e465fb31385c8a0af1173adde633c57e734ad9253e91c91fff439a81",
      "s": "0x1f4597944de39f35b7d17a0a226e62f8577e8c4f947ceb86efdbb9c3c1b65bc4",
      "v": 27,
      "creates": null,
      "raw": "0xf86e57850d670d95b083015f9094b7d2da6be86fa2ba1af36d09448f029e438fc419895150ae84a8cdf00000801ba083fe02e8e465fb31385c8a0af1173adde633c57e734ad9253e91c91fff439a81a01f4597944de39f35b7d17a0a226e62f8577e8c4f947ceb86efdbb9c3c1b65bc4",
      "networkId": 0,
      "chainId": 0
    }
  ]
}