{
  "hash": "0xf486fe335b093eb754aac98a0649c23ec425cdefd3fd0e4e07813e886e01b7d4",
  "parentHash": "0x2a9efcece9ede48009d1fb9280a322aa1b4d57d3be693daa935a555e68e63ed0",
  "number": 59073,
  "timestamp": 1439131595,
  "nonce": "0x2d02e74ca21e1e9d",
  "difficulty": 1712283737794,
  "gasLimit": {
    "_hex": "0x2fefd8"
  },
  "gasUsed": {
    "_hex": "0x5208"
  },
  "miner": "0xf927a40C8B7F6E07c5af7FA2155B4864a4112B13",
  "extraData": "0x476574682f76312e302e312f6c696e75782f676f312e342e32",
  "transactions": [
    {
      "hash": "0xb66833a8967254a50d734a773660c5f4320afc6c8560152d72e374e10c1eb87a",
      "blockHash": "0xf486fe335b093eb754aac98a0649c23ec425cdefd3fd0e4e07813e886e01b7d4",
      "blockNumber": 59073,
      "transactionIndex": 0,
      "confirmations": null,
      "from": "0xcaD6D85426181593cf3E16f594824847600c6122",
      "gasPrice": {
        "_hex": "0xd91ec1999"
      },
      "gasLimit": {
        "_hex": "0x5208"
      },
      "to": "0xb6c00721Fbd69a851EE6456d71C429fBd8f0d022",
      "value": {
        "_hex": "0xad78ebc5ac6200000"
      },
      "nonce": 3,
      "data": "0x",
      "r": "0x5cf5124514330e7aec765271a350db209c504cf39408363e97103d115f70c7ae",
      "s": "0x673eab59e2665e1310a9fed6c53ea076023a9ca6290f0304dab7facbbb2345a7",
      "v": 28,
      "creates": null,
      "raw": "0xf86d03850d91ec199982520894b6c00721fbd69a851ee6456d71c429fbd8f0d022890ad78ebc5ac6200000801ca05cf5124514330e7aec765271a350db209c504cf39408363e97103d115f70c7aea0673eab59e2665e1310a9fed6c53ea076023a9ca6290f0304dab7facbbb2345a7",
      "networkId": 0,
      "chainId": 0
    }
  ]
}