{
  "hash": "0x298fe586d794c9dcbdffa13fa6f6f8d30245d4e3339231a7c7f9162607131c85",
  "parentHash": "0x51414a2927e446bfd9bd78e5c95cd72e831fee1f5468303944e4befcff4bc3bf",
  "number": 116303,
  "timestamp": 1440071836,
  "nonce": "0xa147274f4c3f2240",
  "difficulty": 4586848691478,
  "gasLimit": {
    "_hex": "0x2fefd8"
  },
  "gasUsed": {
    "_hex": "0x5208"
  },
  "miner": "0xa50ec0D39fa913E62f1Bae7074E6F36caA71855b",
  "extraData": "0xd783010001844765746887676f312e342e32856c696e7578",
  "transactions": [
    {
      "hash": "0x1d317094fde8217aae257f27c7f8cd9a24104252c9840335fa00a0b19a854711",
      "blockHash": "0x298fe586d794c9dcbdffa13fa6f6f8d30245d4e3339231a7c7f9162607131c85",
      "blockNumber": 116303,
      "transactionIndex": 0,
      "confirmations": null,
      "from": "0x056507108FE6d30189EcCD6cd7F4Fad56eEef622",
      "gasPrice": {
        "_hex": "0xd61e72c02"
      },
      "gasLimit": {
        "_hex": "0x15f90"
      },
      "to": "0x0cA19A53a3256482A89770FC1daFC7630717F201",
      "value": {
        "_hex": "0x19823d7f54c3a55d0"
      },
      "nonce": 28,
      "data": "0x",
      "r": "0xf4ae59c9b1c327448b037c9e51fbb75ffb1c44feb26ecc39a1893bde826d5dec",
      "s": "0x4052546591066c3e286acc6defa67fce491d0a0c0d3387b0c7a0fa463c47b5cd",
      "v": 27,
      "creates": null,
      "raw": "0xf86e1c850d61e72c0283015f90940ca19a53a3256482a89770fc1dafc7630717f20189019823d7f54c3a55d0801ba0f4ae59c9b1c327448b037c9e51fbb75ffb1c44feb26ecc39a1893bde826d5deca04052546591066c3e286acc6defa67fce491d0a0c0d3387b0c7a0fa463c47b5cd",
      "networkId": 0,
      "chainId": 0
    }
  ]
}