{
  "hash": "0xc3dadd41a70901ea05c0cf543646f1e41fb19b0383dd6817b81350099122c051",
  "parentHash": "0x472e7339d37dfdbf69d42b6761f2c4cc4caacc7442584dfc1ef7fb4ea487c2d7",
  "number": 94674,
  "timestamp": 1439712102,
  "nonce": "0x0b9bbc5910a01add",
  "difficulty": 3493378226331,
  "gasLimit": {
    "_hex": "0x2fefd8"
  },
  "gasUsed": {
    "_hex": "0x29040"
  },
  "miner": "0x21D46e5e1C37D3fa2157A393Fa444EafE63646Fa",
  "extraData": "0x",
  "transactions": [
    {
      "hash": "0x5328e8214e3997b4631b9601378f06c735e6c1bdc819f0176d92772d1b5170ff",
      "blockHash": "0xc3dadd41a70901ea05c0cf543646f1e41fb19b0383dd6817b81350099122c051",
      "blockNumber": 94674,
      "transactionIndex": 0,
      "confirmations": null,
      "from": "0x6589D22b54648e5D67Dc008eBd0c836D3DF39c87",
      "gasPrice": {
        "_hex": "0xde924270f"
      },
      "gasLimit": {
        "_hex": "0x5208"
      },
      "to": "0x32Be343B94f860124dC4fEe278FDCBD38C102D88",
      "value": {
        "_hex": "0x51a87657300ddc00"
      },
      "nonce": 5,
      "data": "0x",
      "r": "0x6d82d9aa82dbd9c763f85589f9b35ecf64daf4896a6f6735c5e704e229d56a99",
      "s": "0x2a6c1b720effa3ec7030eab6b8439677bd0f9052d9a7f88dd17aa51939b06276",
      "v": 27,
      "creates": null,
      "raw": "0xf86c05850de924270f8252089432be343b94f860124dc4fee278fdcbd38c102d888851a87657300ddc00801ba06d82d9aa82dbd9c763f85589f9b35ecf64daf4896a6f6735c5e704e229d56a99a02a6c1b720effa3ec7030eab6b8439677bd0f9052d9a7f88dd17aa51939b06276",
      "networkId": 0,
      "chainId": 0
    },
    {
      "hash": "0x9ca6b5e82da5ccb2498eeafa74af36c19ba66d36a8225056e709a6bfa1fed253",
      "blockHash": "0xc3dadd41a70901ea05c0cf543646f1e41fb19b0383dd6817b81350099122c051",
      "blockNumber": 94674,
      "transactionIndex": 1,
      "confirmations": null,
      "from": "0x46e97208BC7F618816Cb502A2b516fb4BC41f1D3",
      "gasPrice": {
        "_hex": "0xde924270f"
      },
      "gasLimit": {
        "_hex": "0x5208"
      },
      "to": "0x32Be343B94f860124dC4fEe278FDCBD38C102D88",
      "value": {
        "_hex": "0x406a440fa872a000"
      },
      "nonce": 5,
      "data": "0x",
      "r": "0x566c963c29e5a437b0c10113a1731eb8a482e79b2a9d91a07b2197a87689ca08",
      "s": "0x1b37b39d0654264be76d82a8f9e3413f65e1a2c184c397d755eaded9f147f89c",
      "v": 28,
      "creates": null,
      "raw": "0xf86c05850de924270f8252089432be343b94f860124dc4fee278fdcbd38c102d8888406a440fa872a000801ca0566c963c29e5a437b0c10113a1731eb8a482e79b2a9d91a07b2197a87689ca08a01b37b39d0654264be76d82a8f9e3413f65e1a2c184c397d755eaded9f147f89c",
      "networkId": 0,
      "chainId": 0
    },
    {
      "hash": "0x60ac8f0d7f852f6955d0b559fae00c3c25ceb07bcea9ff8e7c46522d21071141",
      "blockHash": "0xc3dadd41a70901ea05c0cf543646f1e41fb19b0383dd6817b81350099122c051",
      "blockNumber": 94674,
      "transactionIndex": 2,
      "confirmations": null,
      "from": "0xb7B3690EFa6b3f08D4EC289fF655C4b7bb15EE39",
      "gasPrice": {
        "_hex": "0xde924270f"
      },
      "gasLimit": {
        "_hex": "0x5208"
      },
      "to": "0x32Be343B94f860124dC4fEe278FDCBD38C102D88",
      "value": {
        "_hex": "0x2f5519b5783c2000"
      },
      "nonce": 4,
      "data": "0x",
      "r": "0xf9a3a23ffd20cff77245f5e0e820bee9cee9bcaecee64fbfbbadef6da79fe476",
      "s": "0x32819c12845eb59a21bc922e5638a2169b936ff6877f09d1833e878e10221c64",
      "v": 27,
      "creates": null,
      "raw": "0xf86c04850de924270f8252089432be343b94f860124dc4fee278fdcbd38c102d88882f5519b5783c2000801ba0f9a3a23ffd20cff77245f5e0e820bee9cee9bcaecee64fbfbbadef6da79fe476a032819c12845eb59a21bc922e5638a2169b936ff6877f09d1833e878e10221c64",
      "networkId": 0,
      "chainId": 0
    },
    {
      "hash": "0xdecfec004941836d038e13df7242bf97db95044d652f2f7f00ffe96e3e2e49af",
      "blockHash": "0xc3dadd41a70901ea05c0cf543646f1e41fb19b0383dd6817b81350099122c051",
      "blockNumber": 94674,
      "transactionIndex": 3,
      "confirmations": null,
      "from": "0x99181ED48C7c51532622dA23e20E2B38392476A7",
      "gasPrice": {
        "_hex": "0xde924270f"
      },
      "gasLimit": {
        "_hex": "0x5208"
      },
      "to": "0x32Be343B94f860124dC4fEe278FDCBD38C102D88",
      "value": {
        "_hex": "0x53d1a85564f4d800"
      },
      "nonce": 5,
      "data": "0x",
      "r": "0x076e9d8931fa17df296bf171c9c58c024822ade6036cbd69167d37e89ac6f2d0",
      "s": "0x3e1656a2d86802f3e51d5cc7c011e8e24226efce74194d13fdfecea2ba384414",
      "v": 28,
      "creates": null,
      "raw": "0xf86c05850de924270f8252089432be343b94f860124dc4fee278fdcbd38c102d888853d1a85564f4d800801ca0076e9d8931fa17df296bf171c9c58c024822ade6036cbd69167d37e89ac6f2d0a03e1656a2d86802f3e51d5cc7c011e8e24226efce74194d13fdfecea2ba384414",
      "networkId": 0,
      "chainId": 0
    },
    {
      "hash": "0x2b91db75fa4626c57637d8824316306b4a69d7fc928ca015db9a930c19ad72a4",
      "blockHash": "0xc3dadd41a70901ea05c0cf543646f1e41fb19b0383dd6817b81350099122c051",
      "blockNumber": 94674,
      "transactionIndex": 4,
      "confirmations": null,
      "from": "0x2118baa5B9d6423676CF5502Eb6eaeD859228c33",
      "gasPrice": {
        "_hex": "0xde924270f"
      },
      "gasLimit": {
        "_hex": "0x5208"
      },
      "to": "0x32Be343B94f860124dC4fEe278FDCBD38C102D88",
      "value": {
        "_hex": "0x376f319e3124ac00"
      },
      "nonce": 5,
      "data": "0x",
      "r": "0x1c972f227548f7e724eeadfcb7ca1ee8a0705ffe16714de8fbd5a6347b7d67d3",
      "s": "0x69c5657d5406802e8e0b29e69fb831269bb617fc6215cc843f4059cb2762c854",
      "v": 27,
      "creates": null,
      "raw": "0xf86c05850de924270f8252089432be343b94f860124dc4fee278fdcbd38c102d8888376f319e3124ac00801ba01c972f227548f7e724eeadfcb7ca1ee8a0705ffe16714de8fbd5a6347b7d67d3a069c5657d5406802e8e0b29e69fb831269bb617fc6215cc843f4059cb2762c854",
      "networkId": 0,
      "chainId": 0
    },
    {
      "hash": "0x4075d6ef577bde4186b685e012dbf0a2c7c3bc8e065a354fd1094af07988df96",
      "blockHash": "0xc3dadd41a70901ea05c0cf543646f1e41fb19b0383dd6817b81350099122c051",
      "blockNumber": 94674,
      "transactionIndex": 5,
      "confirmations": null,
      "from": "0xb4eb03c9bDD4944DE22085E8e1dB5Ebd36889Bd8",
      "gasPrice": {
        "_hex": "0xde924270f"
      },
      "gasLimit": {
        "_hex": "0x5208"
      },
      "to": "0x32Be343B94f860124dC4fEe278FDCBD38C102D88",
      "value": {
        "_hex": "0x58e05846839e7400"
      },
      "nonce": 5,
      "data": "0x",
      "r": "0xeee9b158a5c9a178d402abbc721c7aaf4df9671124abfb4704ffbfbf7f778c3b",
      "s": "0x48501ffd61c7b1acaa500683304bce9c4106b8ed1da5def82dece2f16c70d84b",
      "v": 27,
      "creates": null,
      "raw": "0xf86c05850de924270f8252089432be343b94f860124dc4fee278fdcbd38c102d888858e05846839e7400801ba0eee9b158a5c9a178d402abbc721c7aaf4df9671124abfb4704ffbfbf7f778c3ba048501ffd61c7b1acaa500683304bce9c4106b8ed1da5def82dece2f16c70d84b",
      "networkId": 0,
      "chainId": 0
    },
    {
      "hash": "0x814078b5e7847ee76585da054a59f4eeff4265be152c3e76c625344bfdcf3af0",
      "blockHash": "0xc3dadd41a70901ea05c0cf543646f1e41fb19b0383dd6817b81350099122c051",
      "blockNumber": 94674,
      "transactionIndex": 6,
      "confirmations": null,
      "from": "0xe6A7a1d47ff21B6321162AEA7C6CB457D5476Bca",
      "gasPrice": {
        "_hex": "0xd2abc32ae"
      },
      "gasLimit": {
        "_hex": "0x55f0"
      },
      "to": "0xbAeF66124E137Eb5eE0DE1BbAB5a30002508a1bf",
      "value": {
        "_hex": "0x313f6d8046630f3e0"
      },
      "nonce": 2952,
      "data": "0x",
      "r": "0x5d6025a6c00525e35de93d7e2ce8c969a0db4d4e5eb5418f82e3424c45d4637f",
      "s": "0x03383824f6654730e4f0bf44074b9a0cceb8789ebc67b8b423901dd037b0ffef",
      "v": 28,
      "creates": null,
      "raw": "0xf86f820b88850d2abc32ae8255f094baef66124e137eb5ee0de1bbab5a30002508a1bf890313f6d8046630f3e0801ca05d6025a6c00525e35de93d7e2ce8c969a0db4d4e5eb5418f82e3424c45d4637fa003383824f6654730e4f0bf44074b9a0cceb8789ebc67b8b423901dd037b0ffef",
      "networkId": 0,
      "chainId": 0
    },
    {
      "hash": "0x5b919049d3f6100384f6826b36813fd55ff70ef1351ec4d06491b9845928c197",
      "blockHash": "0xc3dadd41a70901ea05c0cf543646f1e41fb19b0383dd6817b81350099122c051",
      "blockNumber": 94674,
      "transactionIndex": 7,
      "confirmations": null,
      "from": "0xe6A7a1d47ff21B6321162AEA7C6CB457D5476Bca",
      "gasPrice": {
        "_hex": "0xd2abc32ae"
      },
      "gasLimit": {
        "_hex": "0x55f0"
      },
      "to": "0xdCB14605B0EE4F372D223e5DF87aa9e760886D01",
      "value": {
        "_hex": "0x32eaf07b42f03a360"
      },
      "nonce": 2953,
      "data": "0x",
      "r": "0x1413252cd975532b5eb45a132a4f5927ac5243e982be546c64a4559e7ed4cc8b",
      "s": "0x7fe31c586670f55491302e234ecbd299add5b1969d2cd2e1c70c4d8431e984d3",
      "v": 27,
      "creates": null,
      "raw": "0xf86f820b89850d2abc32ae8255f094dcb14605b0ee4f372d223e5df87aa9e760886d0189032eaf07b42f03a360801ba01413252cd975532b5eb45a132a4f5927ac5243e982be546c64a4559e7ed4cc8ba07fe31c586670f55491302e234ecbd299add5b1969d2cd2e1c70c4d8431e984d3",
      "networkId": 0,
      "chainId": 0
    }
  ]
}