{
  "hash": "0x5eca6f8355a512425e14629310351441c22bef6af5c0b6b7e5082b72a915296d",
  "parentHash": "0x1a38a521b9bcf917496a602cd9a3322825ea2b240a231fc4daa857190a47d686",
  "number": 85123,
  "timestamp": 1439558800,
  "nonce": "0xc5cf1493c5eb2717",
  "difficulty": 2733070653166,
  "gasLimit": {
    "_hex": "0x2fefd8"
  },
  "gasUsed": {
    "_hex": "0x5208"
  },
  "miner": "0xe6A7a1d47ff21B6321162AEA7C6CB457D5476Bca",
  "extraData": "0x476574682f76312e302e312d38326566323666362f6c696e75782f676f312e34",
  "transactions": [
    {
      "hash": "0x828a34b9c11931a67866f1638603135b51f9adf1a22a671e1540706888579cf7",
      "blockHash": "0x5eca6f8355a512425e14629310351441c22bef6af5c0b6b7e5082b72a915296d",
      "blockNumber": 85123,
      "transactionIndex": 0,
      "confirmations": null,
      "from": "0xD2a5A024230a57Ccc666760b89b0e26CAFd189C7",
      "gasPrice": {
        "_hex": "0x10a22b2c7f5"
      },
      "gasLimit": {
        "_hex": "0x15f90"
      },
      "to": "0x151e1b655BC131b5aCf57Df4C4193029a2Af43bE",
      "value": {
        "_hex": "0x3635c9adc5dea00000"
      },
      "nonce": 4,
      "data": "0x",
      "r": "0x8860d8a131ff1258264443f88192c2f12039ce6bbe0fd84b96f93889b8476096",
      "s": "0x56b3c9d48262a9095cfdeeff4b2196e06548ec0df612ecbfe42f42b8d49884cc",
      "v": 27,
      "creates": null,
      "raw": "0xf86f0486010a22b2c7f583015f9094151e1b655bc131b5acf57df4c4193029a2af43be893635c9adc5dea00000801ba08860d8a131ff1258264443f88192c2f12039ce6bbe0fd84b96f93889b8476096a056b3c9d48262a9095cfdeeff4b2196e06548ec0df612ecbfe42f42b8d49884cc",
      "networkId": 0,
      "chainId": 0
    }
  ]
}