{
  "hash": "0x5c9eaed6ba63dd093349bcdedd1bc3e3c5bac947538fef6fc47520fefca29843",
  "parentHash": "0x47099030992232056b19b55f435d7f93232661c24dfd4453d12159c21a0804bd",
  "number": 112813,
  "timestamp": 1440013690,
  "nonce": "0x227f53a52290b71c",
  "difficulty": 4425912419924,
  "gasLimit": {
    "_hex": "0x2fefd8"
  },
  "gasUsed": {
    "_hex": "0x5208"
  },
  "miner": "0xa50ec0D39fa913E62f1Bae7074E6F36caA71855b",
  "extraData": "0xd783010001844765746887676f312e342e32856c696e7578",
  "transactions": [
    {
      "hash": "0xc2e3deb8b988d7852d267c53f891b009281d9d1eece4677c2d8d75f7155dd74a",
      "blockHash": "0x5c9eaed6ba63dd093349bcdedd1bc3e3c5bac947538fef6fc47520fefca29843",
      "blockNumber": 112813,
      "transactionIndex": 0,
      "confirmations": null,
      "from": "0xAf3A6A5088BFBFc43bFf4eFC46e3142092B49258",
      "gasPrice": {
        "_hex": "0xdb349c047"
      },
      "gasLimit": {
        "_hex": "0x5208"
      },
      "to": "0x32Be343B94f860124dC4fEe278FDCBD38C102D88",
      "value": {
        "_hex": "0x17605997ff9d5400"
      },
      "nonce": 3,
      "data": "0x",
      "r": "0x4d1c73732e7c941312613f9340f9bd89359746f1d426b4a33a9b72763e52d737",
      "s": "0x57c99272378a18c9b41cd6813fd7c47366fe3a6716fe9b41833ca27c466d0650",
      "v": 28,
      "creates": null,
      "raw": "0xf86c03850db349c0478252089432be343b94f860124dc4fee278fdcbd38c102d888817605997ff9d5400801ca04d1c73732e7c941312613f9340f9bd89359746f1d426b4a33a9b72763e52d737a057c99272378a18c9b41cd6813fd7c47366fe3a6716fe9b41833ca27c466d0650",
      "networkId": 0,
      "chainId": 0
    }
  ]
}