{
  "hash": "0xe09967f5aebcdbdfac6a89cd2782e9e7ff1004ea5b333e696248c8ad6a61bde5",
  "parentHash": "0x026e30341e376b1414ec574b6a1fbcb9f15c390aff6faac5057c316c5f604536",
  "number": 90955,
  "timestamp": 1439647949,
  "nonce": "0x23ba3b1f31d92f10",
  "difficulty": 3425656210809,
  "gasLimit": {
    "_hex": "0x2fefd8"
  },
  "gasUsed": {
    "_hex": "0x5208"
  },
  "miner": "0xfC25864D8326b4CB335C6942218e5F4Ee8D1E1EF",
  "extraData": "0x476574682f76312e302e312f77696e646f77732f676f312e342e32",
  "transactions": [
    {
      "hash": "0xbaf98cdf1ecfb021400302ff03dbdb322ab338f524e3dc56bdcbba2f670af68b",
      "blockHash": "0xe09967f5aebcdbdfac6a89cd2782e9e7ff1004ea5b333e696248c8ad6a61bde5",
      "blockNumber": 90955,
      "transactionIndex": 0,
      "confirmations": null,
      "from": "0x2910543Af39abA0Cd09dBb2D50200b3E800A63D2",
      "gasPrice": {
        "_hex": "0xe0af36091"
      },
      "gasLimit": {
        "_hex": "0x5208"
      },
      "to": "0xFD7c9117BbEB649d9b37B3D3C9917f7c12f526B3",
      "value": {
        "_hex": "0x1c44f7b62f60edeb00"
      },
      "nonce": 791,
      "data": "0x",
      "r": "0x4992b2c99acad9d8e2f0b80d0e927cddde26523ec5e955e42f1955aaf9353295",
      "s": "0x1b1f646ffc2f95ba961cd73ffec644ee6257c8be0145b3e3f9ca70d9add795b9",
      "v": 27,
      "creates": null,
      "raw": "0xf86f820317850e0af3609182520894fd7c9117bbeb649d9b37b3d3c9917f7c12f526b3891c44f7b62f60edeb00801ba04992b2c99acad9d8e2f0b80d0e927cddde26523ec5e955e42f1955aaf9353295a01b1f646ffc2f95ba961cd73ffec644ee6257c8be0145b3e3f9ca70d9add795b9",
      "networkId": 0,
      "chainId": 0
    }
  ]
}