{
  "hash": "0xd664f260d1958556a1269c52c3a5e73b7685ba1a237bd02824019669c3854aab",
  "parentHash": "0xc7ddc00e69ef228a474193a76fb970bd5e55bb96301997652fd0863ac08f6c89",
  "number": 87071,
  "timestamp": 1439586726,
  "nonce": "0xcce231437fca5399",
  "difficulty": 3036368706873,
  "gasLimit": {
    "_hex": "0x2fefd8"
  },
  "gasUsed": {
    "_hex": "0x5d9f"
  },
  "miner": "0x790b8a3cE86E707ED0eD32bF89B3269692a23CC1",
  "extraData": "0xd783010001844765746887676f312e342e32856c696e7578",
  "transactions": [
    {
      "hash": "0x0dd519ed7cff1e9a744e22ec84ec7f179c9dcfa7973e45e7a0dfee5892fbf24a",
      "blockHash": "0xd664f260d1958556a1269c52c3a5e73b7685ba1a237bd02824019669c3854aab",
      "blockNumber": 87071,
      "transactionIndex": 0,
      "confirmations": null,
      "from": "0x901d99b699E5C6911519CB2076B4c76330c54D22",
      "gasPrice": {
        "_hex": "0xd3efed7eb"
      },
      "gasLimit": {
        "_hex": "0x15f90"
      },
      "to": "0xCAc7000C7dBaa2E33Af15325AF5D435E011C7BdD",
      "value": {
        "_hex": "0x6c6b6fd4994d7f0000"
      },
      "nonce": 0,
      "data": "0xb214faa54b394739485137314c0000000000000000000000000000000000000000000000",
      "r": "0xf3afe6ce20dce2ff5886fa07e2ee336fa540e84e10a3c50c45c92aa3288032b5",
      "s": "0x1b7cb735029679d027e00371e7f245b59ed8a49b9977b65440e254c3a6ed7dc1",
      "v": 27,
      "creates": null,
      "raw": "0xf89280850d3efed7eb83015f9094cac7000c7dbaa2e33af15325af5d435e011c7bdd896c6b6fd4994d7f0000a4b214faa54b394739485137314c00000000000000000000000000000000000000000000001ba0f3afe6ce20dce2ff5886fa07e2ee336fa540e84e10a3c50c45c92aa3288032b5a01b7cb735029679d027e00371e7f245b59ed8a49b9977b65440e254c3a6ed7dc1",
      "networkId": 0,
      "chainId": 0
    }
  ]
}