{
  "hash": "0xd45f81c910386e235aed7a814d12909bd8b0ddcb307f30b852bee7b3e85015e0",
  "parentHash": "0x17c45c513e5ce9a11f27b65ac97b00f85a0b58f6f08456403a8220fd4269cb0f",
  "number": 121724,
  "timestamp": 1440181524,
  "nonce": "0xdf522d5e7a23e090",
  "difficulty": 4488645112984,
  "gasLimit": {
    "_hex": "0x2fefd8"
  },
  "gasUsed": {
    "_hex": "0xa410"
  },
  "miner": "0x190174d939CC332eE1Ea9351AD703ddF7364Ca68",
  "extraData": "0x476574682f76312e302e322d61303330336666342f6c696e75782f676f312e34",
  "transactions": [
    {
      "hash": "0x445862f158beb1d21679f99683dd0b260a88ff06457ffdd5a09e51562c01bac8",
      "blockHash": "0xd45f81c910386e235aed7a814d12909bd8b0ddcb307f30b852bee7b3e85015e0",
      "blockNumber": 121724,
      "transactionIndex": 0,
      "confirmations": null,
      "from": "0x63738Ec4C9adec404749B5747F3bbE2147de632F",
      "gasPrice": {
        "_hex": "0xd6e468dbf"
      },
      "gasLimit": {
        "_hex": "0x15f90"
      },
      "to": "0x557C2806B6ceA65a66F415bb2Ed1ce897B340745",
      "value": {
        "_hex": "0x8ac7230489e80000"
      },
      "nonce": 69,
      "data": "0x",
      "r": "0x02c90002c34f5fa0c5536918112983ab34856d8458a0d3f9c456b381586dadfe",
      "s": "0x654f98333dcf42d21193e78dc4278e1d53649e0662937a5af16ae60b0a10a8a6",
      "v": 28,
      "creates": null,
      "raw": "0xf86d45850d6e468dbf83015f9094557c2806b6cea65a66f415bb2ed1ce897b340745888ac7230489e80000801ca002c90002c34f5fa0c5536918112983ab34856d8458a0d3f9c456b381586dadfea0654f98333dcf42d21193e78dc4278e1d53649e0662937a5af16ae60b0a10a8a6",
      "networkId": 0,
      "chainId": 0
    },
    {
      "hash": "0x9ba5e6fd802708cda6e0757117aed17a0dc3334ae8321ecf45cf303972c50672",
      "blockHash": "0xd45f81c910386e235aed7a814d12909bd8b0ddcb307f30b852bee7b3e85015e0",
      "blockNumber": 121724,
      "transactionIndex": 1,
      "confirmations": null,
      "from": "0x63738Ec4C9adec404749B5747F3bbE2147de632F",
      "gasPrice": {
        "_hex": "0xdfc12ece3"
      },
      "gasLimit": {
        "_hex": "0x15f90"
      },
      "to": "0x557C2806B6ceA65a66F415bb2Ed1ce897B340745",
      "value": {
        "_hex": "0x8ac7230489e80000"
      },
      "nonce": 70,
      "data": "0x",
      "r": "0x66a981d584c32107c62c8fbf07ff1d054989d9cd1bb840a830586547ca8a20a5",
      "s": "0x78cce5591930d8ee031fd29401a353354407d33b0ad0b3250297cd2159dc42cd",
      "v": 28,
      "creates": null,
      "raw": "0xf86d46850dfc12ece383015f9094557c2806b6cea65a66f415bb2ed1ce897b340745888ac7230489e80000801ca066a981d584c32107c62c8fbf07ff1d054989d9cd1bb840a830586547ca8a20a5a078cce5591930d8ee031fd29401a353354407d33b0ad0b3250297cd2159dc42cd",
      "networkId": 0,
      "chainId": 0
    }
  ]
}