{
  "hash": "0x25e588e08acfd57a5d432eae60affa44a86d3702b190dd282e9eb7932f8574fa",
  "parentHash": "0xed4ba124828d57769254c2cc0452c562887377f14fad3bb696f8fe67a6299eb3",
  "number": 109646,
  "timestamp": 1439960196,
  "nonce": "0x6cc846551ad19ee3",
  "difficulty": 4442742912046,
  "gasLimit": {
    "_hex": "0x2fefd8"
  },
  "gasUsed": {
    "_hex": "0x5208"
  },
  "miner": "0xD6D327d45e2F3bddBc5DEA12815F871d4375bd25",
  "extraData": "0x476574682f76312e302e312f6c696e75782f676f312e342e32",
  "transactions": [
    {
      "hash": "0x12308c394d62df18289255d564eb4bdb633e44e3f6b460edd708a89b44d3b3c9",
      "blockHash": "0x25e588e08acfd57a5d432eae60affa44a86d3702b190dd282e9eb7932f8574fa",
      "blockNumber": 109646,
      "transactionIndex": 0,
      "confirmations": null,
      "from": "0xe6b20f980ad853AD04CbfC887Ce6601c6BE0B24c",
      "gasPrice": {
        "_hex": "0xd6992cdd4"
      },
      "gasLimit": {
        "_hex": "0x15f90"
      },
      "to": "0x9729efC5198d5ed4d98Fa76745093D41d89FB143",
      "value": {
        "_hex": "0x71c1f42b60768"
      },
      "nonce": 2,
      "data": "0x",
      "r": "0xe6ab44ae46032e2b6dc7c15d550ad0a6ebf6c7f36f8cb41f27ac254972428311",
      "s": "0x015e6d79307085263fdf0f4b52645d7208a9acc01cc5aecaf6aa19947780cf4d",
      "v": 27,
      "creates": null,
      "raw": "0xf86c02850d6992cdd483015f90949729efc5198d5ed4d98fa76745093d41d89fb14387071c1f42b60768801ba0e6ab44ae46032e2b6dc7c15d550ad0a6ebf6c7f36f8cb41f27ac254972428311a0015e6d79307085263fdf0f4b52645d7208a9acc01cc5aecaf6aa19947780cf4d",
      "networkId": 0,
      "chainId": 0
    }
  ]
}