{
  "hash": "0x2f42a8d597834089f5b559c152bc489e480e1f6aad19cbbfdda9502f200db80a",
  "parentHash": "0x4e4e87aec62584e84bff2cc9d6bb27f4850d6c8ca0b10f13d7765b205f05ab68",
  "number": 86426,
  "timestamp": 1439577959,
  "nonce": "0xf321c226cfb2248a",
  "difficulty": 2898961196423,
  "gasLimit": {
    "_hex": "0x2fefd8"
  },
  "gasUsed": {
    "_hex": "0xa410"
  },
  "miner": "0xC603Ab5ef41fC61AA8b76bEddb09e3Cfcbb174BD",
  "extraData": "0x476574682f76312e302e312f77696e646f77732f676f312e342e32",
  "transactions": [
    {
      "hash": "0xc7dbc7e700d0a8e4d49b5f5c232407424ce82fa939f985ff8c0c9d0b2688f729",
      "blockHash": "0x2f42a8d597834089f5b559c152bc489e480e1f6aad19cbbfdda9502f200db80a",
      "blockNumber": 86426,
      "transactionIndex": 0,
      "confirmations": null,
      "from": "0x9746c7e1ef2bd21FF3997fa467593a89cb852BD0",
      "gasPrice": {
        "_hex": "0xda7726a37"
      },
      "gasLimit": {
        "_hex": "0x5208"
      },
      "to": "0xB0bF4A71F730782368Ef660FE6D298F432F95450",
      "value": {
        "_hex": "0x821ab0d4414980000"
      },
      "nonce": 26,
      "data": "0x",
      "r": "0x5eeee66a0f4c6078c42a63f179f86bc1089b0d23702b02791ebcfb51d5b4cdcf",
      "s": "0x19e4babe4e62da75eb00bb0e980ba670996a607f2230265c5ff83a2ca6a98d92",
      "v": 28,
      "creates": null,
      "raw": "0xf86d1a850da7726a3782520894b0bf4a71f730782368ef660fe6d298f432f95450890821ab0d4414980000801ca05eeee66a0f4c6078c42a63f179f86bc1089b0d23702b02791ebcfb51d5b4cdcfa019e4babe4e62da75eb00bb0e980ba670996a607f2230265c5ff83a2ca6a98d92",
      "networkId": 0,
      "chainId": 0
    },
    {
      "hash": "0x29f01a030a05041ec8675761bc69a7770b9727ca14cb71c3e1b80dd348eecbf2",
      "blockHash": "0x2f42a8d597834089f5b559c152bc489e480e1f6aad19cbbfdda9502f200db80a",
      "blockNumber": 86426,
      "transactionIndex": 1,
      "confirmations": null,
      "from": "0xcFc4E6f7f8b011414BfBa42F23AdFAA78d4ecc5E",
      "gasPrice": {
        "_hex": "0xd7d40ace3"
      },
      "gasLimit": {
        "_hex": "0x15f90"
      },
      "to": "0x0D483FA9275e81c75D9a77680737287FC329b8f1",
      "value": {
        "_hex": "0x56beae51fd2d10000"
      },
      "nonce": 3,
      "data": "0x",
      "r": "0xafefb3d40205ca018236556776e8e536d6027c52b1c4882d732fd8d737c35844",
      "s": "0x447d3c89e259996c98bf870ba47d856202d969b2b104fd1770cb777d5557edfb",
      "v": 28,
      "creates": null,
      "raw": "0xf86e03850d7d40ace383015f90940d483fa9275e81c75d9a77680737287fc329b8f189056beae51fd2d10000801ca0afefb3d40205ca018236556776e8e536d6027c52b1c4882d732fd8d737c35844a0447d3c89e259996c98bf870ba47d856202d969b2b104fd1770cb777d5557edfb",
      "networkId": 0,
      "chainId": 0
    }
  ]
}