{
  "hash": "0x5850f7af3c3b2bcc3ce29b9c04fb0704ce0defa3e3668ebd6e3a07fe2baa33bc",
  "parentHash": "0xf410f3818012869739b9ec40333c43823927b3d9dfee091397304d4bd39cc7ec",
  "number": 120791,
  "timestamp": 1440165881,
  "nonce": "0x0ae07c2673b2ddd4",
  "difficulty": 4452035200344,
  "gasLimit": {
    "_hex": "0x2fefd8"
  },
  "gasUsed": {
    "_hex": "0x5208"
  },
  "miner": "0x88D74a59454F6cF3B51ef6b9136AFb6b9D405A88",
  "extraData": "0x",
  "transactions": [
    {
      "hash": "0x6a0096d0141fe553b8ef6149502c3d19f52f4126749eb7be66d15e0d71fa1bc3",
      "blockHash": "0x5850f7af3c3b2bcc3ce29b9c04fb0704ce0defa3e3668ebd6e3a07fe2baa33bc",
      "blockNumber": 120791,
      "transactionIndex": 0,
      "confirmations": null,
      "from": "0xa6BDc31c431B8F97848c9D60cbbe9660dc450eB7",
      "gasPrice": {
        "_hex": "0xba43b7400"
      },
      "gasLimit": {
        "_hex": "0x5208"
      },
      "to": "0x32Be343B94f860124dC4fEe278FDCBD38C102D88",
      "value": {
        "_hex": "0x455fd68a17f06000"
      },
      "nonce": 206,
      "data": "0x",
      "r": "0xcfc916dc9f8f358e6006369fa3e73a9bfe032e1f794765b5b55a28c6d38c3b84",
      "s": "0x6b27e6e110d35d98b3c4efad93cafcff85f096487dc0ceb4b28f1ef29044bbc6",
      "v": 27,
      "creates": null,
      "raw": "0xf86d81ce850ba43b74008252089432be343b94f860124dc4fee278fdcbd38c102d8888455fd68a17f06000801ba0cfc916dc9f8f358e6006369fa3e73a9bfe032e1f794765b5b55a28c6d38c3b84a06b27e6e110d35d98b3c4efad93cafcff85f096487dc0ceb4b28f1ef29044bbc6",
      "networkId": 0,
      "chainId": 0
    }
  ]
}