{
  "hash": "0xfc786738df0805e2ae3ec28a6db5c12ea6b3663fbea67eab29eac8c4b52ba432",
  "parentHash": "0xd91086536c1efed28954f231d2d164fc9ac919fd003e1860976e25e522f36cad",
  "number": 59504,
  "timestamp": 1439139268,
  "nonce": "0x6cdad180445693fa",
  "difficulty": 1701361754924,
  "gasLimit": {
    "_hex": "0x2fd7e4"
  },
  "gasUsed": {
    "_hex": "0xf618"
  },
  "miner": "0x4D5513ac71Bb29A4C087c71E17Ac4A057F6B20f9",
  "extraData": "0x476574682f76312e302e312d38326566323666362f6c696e75782f676f312e34",
  "transactions": [
    {
      "hash": "0x4682a394e77e6e48b743737eec5bb308102a70578ef1a45dd18552f85441b9b6",
      "blockHash": "0xfc786738df0805e2ae3ec28a6db5c12ea6b3663fbea67eab29eac8c4b52ba432",
      "blockNumber": 59504,
      "transactionIndex": 0,
      "confirmations": null,
      "from": "0x9aB9F7a4B85412bfbe2f4F63b1C98808851C4F32",
      "gasPrice": {
        "_hex": "0xd84e12627"
      },
      "gasLimit": {
        "_hex": "0x15f90"
      },
      "to": "0x2B3cB1Bda8be955932F5eDc964F17aeb4eeC3E37",
      "value": {
        "_hex": "0x186a0"
      },
      "nonce": 7,
      "data": "0x",
      "r": "0xb7529e50d35e97100080d21bc0b0150a3a577be3eb2cf57666aae95b11f37ea2",
      "s": "0x3f70f970d47b2e2991ed2e089b601d87de449d9ec35e909e76c599856bb3c911",
      "v": 27,
      "creates": null,
      "raw": "0xf86807850d84e1262783015f90942b3cb1bda8be955932f5edc964f17aeb4eec3e37830186a0801ba0b7529e50d35e97100080d21bc0b0150a3a577be3eb2cf57666aae95b11f37ea2a03f70f970d47b2e2991ed2e089b601d87de449d9ec35e909e76c599856bb3c911",
      "networkId": 0,
      "chainId": 0
    },
    {
      "hash": "0xd017abc3cf3c8cb9686f3420795ecf39a767f7c0031f7635c3f3b068b95230a1",
      "blockHash": "0xfc786738df0805e2ae3ec28a6db5c12ea6b3663fbea67eab29eac8c4b52ba432",
      "blockNumber": 59504,
      "transactionIndex": 1,
      "confirmations": null,
      "from": "0xB4524c95a7860E21840296A616244019421C4aBa",
      "gasPrice": {
        "_hex": "0xd4d4e04f6"
      },
      "gasLimit": {
        "_hex": "0x15f90"
      },
      "to": "0xDf3435b39f96cA23a759D8B1eCC82ad9cE30CAAf",
      "value": {
        "_hex": "0x0"
      },
      "nonce": 3,
      "data": "0x",
      "r": "0x7ba83ead0c708649c2fd598475e0c5cfd4ad45acc8b9d343c46d409fc051ef55",
      "s": "0x644f968ec6219f25c47db304372d16ce9a1c112055ad5f8bc5fc7c123bb8ef62",
      "v": 28,
      "creates": null,
      "raw": "0xf86503850d4d4e04f683015f9094df3435b39f96ca23a759d8b1ecc82ad9ce30caaf80801ca07ba83ead0c708649c2fd598475e0c5cfd4ad45acc8b9d343c46d409fc051ef55a0644f968ec6219f25c47db304372d16ce9a1c112055ad5f8bc5fc7c123bb8ef62",
      "networkId": 0,
      "chainId": 0
    },
    {
      "hash": "0x922df80d3f153befc788340f815399f6eead797497ed836512a4eb38f11a1a75",
      "blockHash": "0xfc786738df0805e2ae3ec28a6db5c12ea6b3663fbea67eab29eac8c4b52ba432",
      "blockNumber": 59504,
      "transactionIndex": 2,
      "confirmations": null,
      "from": "0x400fb5A6482E54E44b2250E75251707514c605C1",
      "gasPrice": {
        "_hex": "0xcc3a8d795"
      },
      "gasLimit": {
        "_hex": "0x5208"
      },
      "to": "0x931Ac2444b057f80A06A4FB627f26FFA5CE41184",
      "value": {
        "_hex": "0x114b03a9dd959c0000"
      },
      "nonce": 1,
      "data": "0x",
      "r": "0x0a537080627e1d9405b8b3e3f5f17ccf5e4ae3aac8510949e16dae46ecd123f6",
      "s": "0x14680ae2366c749abf2a409560b033dedbb03281535f71218d1718e51e3f829a",
      "v": 27,
      "creates": null,
      "raw": "0xf86d01850cc3a8d79582520894931ac2444b057f80a06a4fb627f26ffa5ce4118489114b03a9dd959c0000801ba00a537080627e1d9405b8b3e3f5f17ccf5e4ae3aac8510949e16dae46ecd123f6a014680ae2366c749abf2a409560b033dedbb03281535f71218d1718e51e3f829a",
      "networkId": 0,
      "chainId": 0
    }
  ]
}