{
  "hash": "0xc2a45c5178d80a56b0bd3644cd98bd5ee24203ca3b3da432f9d50decec83ce30",
  "parentHash": "0xc2378501ae5a321a210cc787cd83dbe10a47941b31c9f59e97653d60ab602dc2",
  "number": 81313,
  "timestamp": 1439499713,
  "nonce": "0x22947c6c309bd4ba",
  "difficulty": 2443851429458,
  "gasLimit": {
    "_hex": "0x2fefd8"
  },
  "gasUsed": {
    "_hex": "0x42a6b"
  },
  "miner": "0x87898CE53471043FcCa0a2aF4E1dC6d8B3fCf607",
  "extraData": "0x476574682f5369626572696131392f76312e302e312d37666266393930632f6c",
  "transactions": [
    {
      "hash": "0xe5e1a29ca45e519746ecaa234977ccd4ace65dc135b5fa19fbaf4fd5415b56a1",
      "blockHash": "0xc2a45c5178d80a56b0bd3644cd98bd5ee24203ca3b3da432f9d50decec83ce30",
      "blockNumber": 81313,
      "transactionIndex": 0,
      "confirmations": null,
      "from": "0x062b7D49861d2A000578D647BCE532Eb1dCF5EFe",
      "gasPrice": {
        "_hex": "0xd8a788615"
      },
      "gasLimit": {
        "_hex": "0x2dc6c0"
      },
      "to": "0x93D38e72C5281e78f6B364eACaC6fa907EcBa164",
      "value": {
        "_hex": "0x3e8"
      },
      "nonce": 2,
      "data": "0x690167fc00000000000000000000000000000000000000000000000000000000000000001ba228e18cf58ac000000000000000000000000000000000000000000000000000000000000000000000000000000000000000000000000000000000000003e8000000000000000000000000062b7d49861d2a000578d647bce532eb1dcf5efe0000000000000000000000000000000000000000000000000000000000000064",
      "r": "0xf3b2b13d1444e7bd58a4d77a3b8f2ac4b90dafa4f574537b371fc42071f38c18",
      "s": "0x0b789ebdeb43c99bd4a22303574996bade285d39741f3e98715dfe04c91a57e3",
      "v": 28,
      "creates": null,
      "raw": "0xf9010c02850d8a788615832dc6c09493d38e72c5281e78f6b364eacac6fa907ecba1648203e8b8a4690167fc00000000000000000000000000000000000000000000000000000000000000001ba228e18cf58ac000000000000000000000000000000000000000000000000000000000000000000000000000000000000000000000000000000000000003e8000000000000000000000000062b7d49861d2a000578d647bce532eb1dcf5efe00000000000000000000000000000000000000000000000000000000000000641ca0f3b2b13d1444e7bd58a4d77a3b8f2ac4b90dafa4f574537b371fc42071f38c18a00b789ebdeb43c99bd4a22303574996bade285d39741f3e98715dfe04c91a57e3",
      "networkId": 0,
      "chainId": 0
    }
  ]
}