{
  "hash": "0x11fefef4c070d3bce64b22d1d03f1a534b0a44c68c488a48502a147cd110bf40",
  "parentHash": "0x6a9dd9e7f0f32da817b8b070629df5bbd4ff68813806cf78c48120ffa07b4eb7",
  "number": 78390,
  "timestamp": 1439453090,
  "nonce": "0x28d055ac19708840",
  "difficulty": 2277601490749,
  "gasLimit": {
    "_hex": "0x2fefd8"
  },
  "gasUsed": {
    "_hex": "0x5208"
  },
  "miner": "0xe6A7a1d47ff21B6321162AEA7C6CB457D5476Bca",
  "extraData": "0x476574682f76312e302e312d38326566323666362f6c696e75782f676f312e34",
  "transactions": [
    {
      "hash": "0xcb2f75e1379910e8fa22606128cfc3d1b0487f299f47185918674e2c002dccd7",
      "blockHash": "0x11fefef4c070d3bce64b22d1d03f1a534b0a44c68c488a48502a147cd110bf40",
      "blockNumber": 78390,
      "transactionIndex": 0,
      "confirmations": null,
      "from": "0xF2d2AfF1320476cb8C6b607199D23175cc595693",
      "gasPrice": {
        "_hex": "0xd7385d973"
      },
      "gasLimit": {
        "_hex": "0x15f90"
      },
      "to": "0xF5EeDc192aB70b08D8354384aD94efD095849E00",
      "value": {
        "_hex": "0x340aad21b3b700000"
      },
      "nonce": 29,
      "data": "0x",
      "r": "0x4813ab6e02a2faf48942d66e85e2b23e8baba2fddcc48098c990d846d68c19eb",
      "s": "0x646a105c56f648c9fbd58807754080f3e3e3d0ec136dfa69866dc6325802acf9",
      "v": 27,
      "creates": null,
      "raw": "0xf86e1d850d7385d97383015f9094f5eedc192ab70b08d8354384ad94efd095849e00890340aad21b3b700000801ba04813ab6e02a2faf48942d66e85e2b23e8baba2fddcc48098c990d846d68c19eba0646a105c56f648c9fbd58807754080f3e3e3d0ec136dfa69866dc6325802acf9",
      "networkId": 0,
      "chainId": 0
    }
  ]
}