{
  "hash": "0x88c586517eb044c4871436969791977360d01b83f50bfa102b9d665a1d610871",
  "parentHash": "0x92eee1f982c51c7db33698e1616735537f984a0ed2132b602c349e8b27ed3ed0",
  "number": 111627,
  "timestamp": 1439993516,
  "nonce": "0xf90d762d8466c7cf",
  "difficulty": 4426538209537,
  "gasLimit": {
    "_hex": "0x2fefd8"
  },
  "gasUsed": {
    "_hex": "0x5208"
  },
  "miner": "0x790b8a3cE86E707ED0eD32bF89B3269692a23CC1",
  "extraData": "0xd783010001844765746887676f312e342e32856c696e7578",
  "transactions": [
    {
      "hash": "0x65f90e60aa0acef3f198b2b273443307a5d289b754564b5cbcf61eb193392115",
      "blockHash": "0x88c586517eb044c4871436969791977360d01b83f50bfa102b9d665a1d610871",
      "blockNumber": 111627,
      "transactionIndex": 0,
      "confirmations": null,
      "from": "0x5fF827e73C5B866c300b824fe12719a3DD350513",
      "gasPrice": {
        "_hex": "0xdfebae20c"
      },
      "gasLimit": {
        "_hex": "0x5208"
      },
      "to": "0x32Be343B94f860124dC4fEe278FDCBD38C102D88",
      "value": {
        "_hex": "0xe7bdd57de2101000"
      },
      "nonce": 21,
      "data": "0x",
      "r": "0x8acaad0f086ce2f2ca1c4c0a74a6e14d648cf5dc89b25cf735439b6880bbab05",
      "s": "0x68563cf2cfc43bffd371286090c8ae352099881df6d2f69019aae0a1200de051",
      "v": 27,
      "creates": null,
      "raw": "0xf86c15850dfebae20c8252089432be343b94f860124dc4fee278fdcbd38c102d8888e7bdd57de2101000801ba08acaad0f086ce2f2ca1c4c0a74a6e14d648cf5dc89b25cf735439b6880bbab05a068563cf2cfc43bffd371286090c8ae352099881df6d2f69019aae0a1200de051",
      "networkId": 0,
      "chainId": 0
    }
  ]
}