{
  "hash": "0x23e8cb25033a46a6b59a728b15964cb26725c3555c1745bf71e8b3fdb89a1ff9",
  "parentHash": "0xeb735c784606d6db8184e48f14154e4340e31b0a948f957ba81f70ef0ddd6c1c",
  "number": 96114,
  "timestamp": 1439735200,
  "nonce": "0xb7725cb971123eb8",
  "difficulty": 3639015609188,
  "gasLimit": {
    "_hex": "0x2fefd8"
  },
  "gasUsed": {
    "_hex": "0x1ba8a"
  },
  "miner": "0xeB1325C8D9d3ea8D74aC11F4B00F1B2367686319",
  "extraData": "0x",
  "transactions": [
    {
      "hash": "0x1993ab6f910987a3c8aa117d918159106b94bfdef1000363c1a9c322797e5064",
      "blockHash": "0x23e8cb25033a46a6b59a728b15964cb26725c3555c1745bf71e8b3fdb89a1ff9",
      "blockNumber": 96114,
      "transactionIndex": 0,
      "confirmations": null,
      "from": "0x07DD04f7355E91a3556482a927Dfa3122a2AD580",
      "gasPrice": {
        "_hex": "0xdfc5c79b7"
      },
      "gasLimit": {
        "_hex": "0x15f90"
      },
      "to": "0x5B02e5Df994497Cb6D50237ca83F295e18C4a841",
      "value": {
        "_hex": "0x0"
      },
      "nonce": 4,
      "data": "0x90b98a1100000000000000000000000046276de69e5cf60306fb4bbf71f9b16cb56c412400000000000000000000000000000000000000000000000000000000000003e8",
      "r": "0x147d42fbff71a18474deae71372884e25b137bc7769800d97aee4cae7030842e",
      "s": "0x7d34e6a394ab83422950a4a4ee8f470bc4b468c482b790fd7585e19584a5ba5d",
      "v": 27,
      "creates": null,
      "raw": "0xf8aa04850dfc5c79b783015f90945b02e5df994497cb6d50237ca83f295e18c4a84180b84490b98a1100000000000000000000000046276de69e5cf60306fb4bbf71f9b16cb56c412400000000000000000000000000000000000000000000000000000000000003e81ba0147d42fbff71a18474deae71372884e25b137bc7769800d97aee4cae7030842ea07d34e6a394ab83422950a4a4ee8f470bc4b468c482b790fd7585e19584a5ba5d",
      "networkId": 0,
      "chainId": 0
    },
    {
      "hash": "0xc77367a2bdd3ea218859bbe2009b7aedf56d8753163ac7be32e8597bedde69a7",
      "blockHash": "0x23e8cb25033a46a6b59a728b15964cb26725c3555c1745bf71e8b3fdb89a1ff9",
      "blockNumber": 96114,
      "transactionIndex": 1,
      "confirmations": null,
      "from": "0xF87481A262E993a75F791E7859E71BaC36A606Eb",
      "gasPrice": {
        "_hex": "0xd9c9f07bd"
      },
      "gasLimit": {
        "_hex": "0x5208"
      },
      "to": "0x32Be343B94f860124dC4fEe278FDCBD38C102D88",
      "value": {
        "_hex": "0x11589e97091601000"
      },
      "nonce": 30,
      "data": "0x",
      "r": "0xee58210acc440d94ae99d8753169a5fc16d34b929ec57396c227657833cc07fc",
      "s": "0x1829ba92ae53d03c933f130f58bd0ebfbc856685dda08fc8bb5a585035d27a15",
      "v": 28,
      "creates": null,
      "raw": "0xf86d1e850d9c9f07bd8252089432be343b94f860124dc4fee278fdcbd38c102d8889011589e97091601000801ca0ee58210acc440d94ae99d8753169a5fc16d34b929ec57396c227657833cc07fca01829ba92ae53d03c933f130f58bd0ebfbc856685dda08fc8bb5a585035d27a15",
      "networkId": 0,
      "chainId": 0
    },
    {
      "hash": "0xea0d8bcca6656468cfab40ad4555369e22f1a7074bd6d9e18defccf56df9e760",
      "blockHash": "0x23e8cb25033a46a6b59a728b15964cb26725c3555c1745bf71e8b3fdb89a1ff9",
      "blockNumber": 96114,
      "transactionIndex": 2,
      "confirmations": null,
      "from": "0xb1abce2918E21ddb93AA452731a12672A3d9F75a",
      "gasPrice": {
        "_hex": "0xd9c9f07bd"
      },
      "gasLimit": {
        "_hex": "0x5208"
      },
      "to": "0x32Be343B94f860124dC4fEe278FDCBD38C102D88",
      "value": {
        "_hex": "0x455f34ec168ff800"
      },
      "nonce": 47,
      "data": "0x",
      "r": "0x9e95a18b81654cb64ca2dcd915e245c541f0f0c4710c6e6fd91eaa06fdc12d06",
      "s": "0x71d55b38023d72bd27df7c5eef21e20372fba01ff7b002c43d92931eb4e70505",
      "v": 28,
      "creates": null,
      "raw": "0xf86c2f850d9c9f07bd8252089432be343b94f860124dc4fee278fdcbd38c102d8888455f34ec168ff800801ca09e95a18b81654cb64ca2dcd915e245c541f0f0c4710c6e6fd91eaa06fdc12d06a071d55b38023d72bd27df7c5eef21e20372fba01ff7b002c43d92931eb4e70505",
      "networkId": 0,
      "chainId": 0
    },
    {
      "hash": "0x52696676b5152d744575ac9dbdfc1af154dfabd15d21554c8119e40c901ab87c",
      "blockHash": "0x23e8cb25033a46a6b59a728b15964cb26725c3555c1745bf71e8b3fdb89a1ff9",
      "blockNumber": 96114,
      "transactionIndex": 3,
      "confirmations": null,
      "from": "0x11AA265966dFdDfDC4fA42a83C305f6EcbE9588a",
      "gasPrice": {
        "_hex": "0xd9c9f07bd"
      },
      "gasLimit": {
        "_hex": "0x5208"
      },
      "to": "0x32Be343B94f860124dC4fEe278FDCBD38C102D88",
      "value": {
        "_hex": "0x2b010cfad1461400"
      },
      "nonce": 3,
      "data": "0x",
      "r": "0x4a7d112daf3621502b680d879bc45cc8e94a2e3db46f3ff9d30a2c5c4a3398a1",
      "s": "0x4306398aacc0b50199061efb4aef9d84f98fac2c82f3fad43d49538184169172",
      "v": 27,
      "creates": null,
      "raw": "0xf86c03850d9c9f07bd8252089432be343b94f860124dc4fee278fdcbd38c102d88882b010cfad1461400801ba04a7d112daf3621502b680d879bc45cc8e94a2e3db46f3ff9d30a2c5c4a3398a1a04306398aacc0b50199061efb4aef9d84f98fac2c82f3fad43d49538184169172",
      "networkId": 0,
      "chainId": 0
    }
  ]
}