{
  "hash": "0x3f14bdceaf1ab39f4cfd210ad62aa3eda9a913fc48b08f690e53954bb0b607eb",
  "parentHash": "0x054c7f3c3b9c588406df5ad14c0b6397b82079e0a51721bba58303dd9756f253",
  "number": 100297,
  "timestamp": 1439804085,
  "nonce": "0x64d91ec46b4c8591",
  "difficulty": 3832282786384,
  "gasLimit": {
    "_hex": "0x2fefd5"
  },
  "gasUsed": {
    "_hex": "0x5208"
  },
  "miner": "0xe6A7a1d47ff21B6321162AEA7C6CB457D5476Bca",
  "extraData": "0x476574682f76312e302e312d38326566323666362f6c696e75782f676f312e34",
  "transactions": [
    {
      "hash": "0xfae30153f28365230c348274609e5ce6ad509fde017fb686bed0b57226bc8849",
      "blockHash": "0x3f14bdceaf1ab39f4cfd210ad62aa3eda9a913fc48b08f690e53954bb0b607eb",
      "blockNumber": 100297,
      "transactionIndex": 0,
      "confirmations": null,
      "from": "0x2f86ba8019945f39edE131D38d4d8780884DA553",
      "gasPrice": {
        "_hex": "0xd91c84691"
      },
      "gasLimit": {
        "_hex": "0x5208"
      },
      "to": "0x32Be343B94f860124dC4fEe278FDCBD38C102D88",
      "value": {
        "_hex": "0x6c6b7d3ef5c0b80000"
      },
      "nonce": 24,
      "data": "0x",
      "r": "0xa4bd1bcdd26c8fb1e40b4eb9daca11ea4e7aedcbe2dcf68c43fbe4a505271dec",
      "s": "0x71365daca4288dff41c3635ecc2c4d14d9953f5da14062af34ce3c637f7b4b06",
      "v": 27,
      "creates": null,
      "raw": "0xf86d18850d91c846918252089432be343b94f860124dc4fee278fdcbd38c102d88896c6b7d3ef5c0b80000801ba0a4bd1bcdd26c8fb1e40b4eb9daca11ea4e7aedcbe2dcf68c43fbe4a505271deca071365daca4288dff41c3635ecc2c4d14d9953f5da14062af34ce3c637f7b4b06",
      "networkId": 0,
      "chainId": 0
    }
  ]
}