{
  "hash": "0x08fca5fd036c407f8a0df36af4015e2454e78a84e988ac979f08a759563e4bd8",
  "parentHash": "0x52889394c533a8cf49fa4ba7804c48862782736efa8ca204fe63de7a340bd32c",
  "number": 106407,
  "timestamp": 1439903642,
  "nonce": "0xc93b6c0cd7fa69b6",
  "difficulty": 4499044810145,
  "gasLimit": {
    "_hex": "0x2fefd8"
  },
  "gasUsed": {
    "_hex": "0x5208"
  },
  "miner": "0x9746c7e1ef2bd21FF3997fa467593a89cb852BD0",
  "extraData": "0x476574682f76312e302e312f77696e646f77732f676f312e342e32",
  "transactions": [
    {
      "hash": "0x9119bac46cf8774eb8d3ee2444d7fd2b61fb3cf56ee23df210945b794642bde3",
      "blockHash": "0x08fca5fd036c407f8a0df36af4015e2454e78a84e988ac979f08a759563e4bd8",
      "blockNumber": 106407,
      "transactionIndex": 0,
      "confirmations": null,
      "from": "0x6BED894B45159c6001dfbC5bd6257A10B9eF2202",
      "gasPrice": {
        "_hex": "0xdf52329c5"
      },
      "gasLimit": {
        "_hex": "0x15f90"
      },
      "to": "0xcAfC2B97aa18D9bD26Be5290a12a83D4d706508c",
      "value": {
        "_hex": "0x9184e72a"
      },
      "nonce": 3,
      "data": "0x",
      "r": "0xae380f91460220458b9571486fc7ba7f81ca3e06762b7ae8b61d1e8272a21b17",
      "s": "0x3d1a19db4c3f1e3fa6fbd9e91c3bce80e9501b74c245119902a1c5e88261a993",
      "v": 27,
      "creates": null,
      "raw": "0xf86903850df52329c583015f9094cafc2b97aa18d9bd26be5290a12a83d4d706508c849184e72a801ba0ae380f91460220458b9571486fc7ba7f81ca3e06762b7ae8b61d1e8272a21b17a03d1a19db4c3f1e3fa6fbd9e91c3bce80e9501b74c245119902a1c5e88261a993",
      "networkId": 0,
      "chainId": 0
    }
  ]
}