{
  "hash": "0x249878cdcd09f9b6e9bc9a7d410801a33c81fa636d1ec22b3aa12044e46657fd",
  "parentHash": "0x754957e96bf6cd4746d1fbd0bd0f1d5c815ec593afb04a0fbe3c7cc49b94f624",
  "number": 105970,
  "timestamp": 1439896505,
  "nonce": "0xd96eece9247e1c7b",
  "difficulty": 4457730855703,
  "gasLimit": {
    "_hex": "0x2fefd8"
  },
  "gasUsed": {
    "_hex": "0x6ed3"
  },
  "miner": "0xee5379D0c1ca47327368027455074C26D9952628",
  "extraData": "0x476574682f76312e302e312d38326566323666362f6c696e75782f676f312e34",
  "transactions": [
    {
      "hash": "0x1d522e09fc3c4855f5ab7fecdcea0ed43db2a768b37b5e37c063cfcea5fff351",
      "blockHash": "0x249878cdcd09f9b6e9bc9a7d410801a33c81fa636d1ec22b3aa12044e46657fd",
      "blockNumber": 105970,
      "transactionIndex": 0,
      "confirmations": null,
      "from": "0x87C5B5874A18B4306DF8a752a6C8cc3E82daFc19",
      "gasPrice": {
        "_hex": "0x1119db24b6f"
      },
      "gasLimit": {
        "_hex": "0x493e0"
      },
      "to": "0xD79B4C6791784184e2755B2fC1659eaaB0f80456",
      "value": {
        "_hex": "0x0"
      },
      "nonce": 316,
      "data": "0xbd66528a6b6b6b0000000000000000000000000000000000000000000000000000000000",
      "r": "0xe0707b8ea36f30835108460527236d277c8ed27565aee265b313ed32e1e2e266",
      "s": "0x54390f47b29da33d44be1e9b457125ec9321d01f57b1d19e9756bf8f87dbe46a",
      "v": 28,
      "creates": null,
      "raw": "0xf88c82013c8601119db24b6f830493e094d79b4c6791784184e2755b2fc1659eaab0f8045680a4bd66528a6b6b6b00000000000000000000000000000000000000000000000000000000001ca0e0707b8ea36f30835108460527236d277c8ed27565aee265b313ed32e1e2e266a054390f47b29da33d44be1e9b457125ec9321d01f57b1d19e9756bf8f87dbe46a",
      "networkId": 0,
      "chainId": 0
    }
  ]
}