{
  "hash": "0x127750a07ec7fe238c036a78896d06640b89dd9b73db64f8cf1fb1d973038d61",
  "parentHash": "0x178b5ee889751b711bf9287ee82c2ee0988f4ee0c052f0fa7bf64f939a0022d8",
  "number": 92875,
  "timestamp": 1439678569,
  "nonce": "0x7d64c8e473938a1a",
  "difficulty": 3649319578689,
  "gasLimit": {
    "_hex": "0x2fefd8"
  },
  "gasUsed": {
    "_hex": "0xa410"
  },
  "miner": "0xbb7B8287f3F0a933474a79eAe42CBCa977791171",
  "extraData": "0x476574682f4c5649562f76312e302e312f6c696e75782f676f312e342e32",
  "transactions": [
    {
      "hash": "0x2a7ff2af377b630ae0aab1b5add89d2f376967f3a960cbc9a39a41ba4313da95",
      "blockHash": "0x127750a07ec7fe238c036a78896d06640b89dd9b73db64f8cf1fb1d973038d61",
      "blockNumber": 92875,
      "transactionIndex": 0,
      "confirmations": null,
      "from": "0x32Be343B94f860124dC4fEe278FDCBD38C102D88",
      "gasPrice": {
        "_hex": "0xd778c870e"
      },
      "gasLimit": {
        "_hex": "0x5208"
      },
      "to": "0x5e0320BB4D82AB8Bb5d7291f2C67D1c99aBb3C05",
      "value": {
        "_hex": "0x2b5c0282441c70000"
      },
      "nonce": 903,
      "data": "0x",
      "r": "0x1ee5af4dcca44131be8255e7056b2988f28ba0d79a0fa0bedb4b8bf73644ba22",
      "s": "0x0300b3c81a986006932caeba6056768950a6d7ef95095cf5786f3a589026b8df",
      "v": 27,
      "creates": null,
      "raw": "0xf86f820387850d778c870e825208945e0320bb4d82ab8bb5d7291f2c67d1c99abb3c058902b5c0282441c70000801ba01ee5af4dcca44131be8255e7056b2988f28ba0d79a0fa0bedb4b8bf73644ba22a00300b3c81a986006932caeba6056768950a6d7ef95095cf5786f3a589026b8df",
      "networkId": 0,
      "chainId": 0
    },
    {
      "hash": "0xa8baebce1afd8350db378981285afe32dcf68d530d81dbad39c47ebd21a31290",
      "blockHash": "0x127750a07ec7fe238c036a78896d06640b89dd9b73db64f8cf1fb1d973038d61",
      "blockNumber": 92875,
      "transactionIndex": 1,
      "confirmations": null,
      "from": "0x8F79f76381Aad7B98C19aF55eE75fdfEeb012211",
      "gasPrice": {
        "_hex": "0xd778c870e"
      },
      "gasLimit": {
        "_hex": "0x5208"
      },
      "to": "0x32Be343B94f860124dC4fEe278FDCBD38C102D88",
      "value": {
        "_hex": "0xa4cc3489e7e710000"
      },
      "nonce": 31,
      "data": "0x",
      "r": "0xc02297e466d2ee51b948c2e3d9eca5a4f4c854e9ee64bf36b35d1c3a4ec791ee",
      "s": "0x1b4495081eaac2a8cfad75fd31cd0370ae04c09d3acd0c81eeac98cddd019fea",
      "v": 28,
      "creates": null,
      "raw": "0xf86d1f850d778c870e8252089432be343b94f860124dc4fee278fdcbd38c102d88890a4cc3489e7e710000801ca0c02297e466d2ee51b948c2e3d9eca5a4f4c854e9ee64bf36b35d1c3a4ec791eea01b4495081eaac2a8cfad75fd31cd0370ae04c09d3acd0c81eeac98cddd019fea",
      "networkId": 0,
      "chainId": 0
    }
  ]
}