{
  "hash": "0x7d41afc30a1a53dc24b8138096903d81abee2cadd8481f3d7c9c8c2f792c1d32",
  "parentHash": "0xa1cff8fc8dbfe4950c152a93c0f751559af5b46be6fcd81456f0789ba874743b",
  "number": 96509,
  "timestamp": 1439741486,
  "nonce": "0x596c4bc228483f52",
  "difficulty": 3672760153617,
  "gasLimit": {
    "_hex": "0x2fefd8"
  },
  "gasUsed": {
    "_hex": "0x5208"
  },
  "miner": "0xcf00A85f3826941e7A25BFcF9Aac575d40410852",
  "extraData": "0x476574682f76312e302e312f77696e646f77732f676f312e342e32",
  "transactions": [
    {
      "hash": "0x7e2e3ed3789c3ac5a385941b6a3dd2003e55863b5c1143641a387985a399f15f",
      "blockHash": "0x7d41afc30a1a53dc24b8138096903d81abee2cadd8481f3d7c9c8c2f792c1d32",
      "blockNumber": 96509,
      "transactionIndex": 0,
      "confirmations": null,
      "from": "0x32Be343B94f860124dC4fEe278FDCBD38C102D88",
      "gasPrice": {
        "_hex": "0xdedfa2fd5"
      },
      "gasLimit": {
        "_hex": "0x5208"
      },
      "to": "0x915E19e9d6874Ad050c3D4b88D4eA496dB0Ee7DB",
      "value": {
        "_hex": "0x4fd9fb3fb626640000"
      },
      "nonce": 1006,
      "data": "0x",
      "r": "0xeaded089291b50ccd351bcb393f17eb4167cde08683078154a347a558b331b68",
      "s": "0x071a2ec2cbf0d68fb6a6ede16a67bdb560e8c0b12beefff43f5e986c5fb3ad1e",
      "v": 27,
      "creates": null,
      "raw": "0xf86f8203ee850dedfa2fd582520894915e19e9d6874ad050c3d4b88d4ea496db0ee7db894fd9fb3fb626640000801ba0eaded089291b50ccd351bcb393f17eb4167cde08683078154a347a558b331b68a0071a2ec2cbf0d68fb6a6ede16a67bdb560e8c0b12beefff43f5e986c5fb3ad1e",
      "networkId": 0,
      "chainId": 0
    }
  ]
}