{
  "hash": "0xb328a03ba0de1b1c0760a422d75600b31a15f389b4d73a047a198e0f30c2792c",
  "parentHash": "0x4b6a150d9dabe50dcab6140c12a3bc72534579cfad6d65a5382bdf93debce0dd",
  "number": 86719,
  "timestamp": 1439581924,
  "nonce": "0x30bf1f42855725be",
  "difficulty": 2943072949224,
  "gasLimit": {
    "_hex": "0x2fefd8"
  },
  "gasUsed": {
    "_hex": "0x5208"
  },
  "miner": "0xF9634a7Ee627EeF74f4d803113CD4F87E5162079",
  "extraData": "0xdd809b302e392e34302b2b616339392d5257696e646f2f6d73762f4a4954",
  "transactions": [
    {
      "hash": "0xf85f4b390b46526785160f2a7c4a18d3cd360a6a64080b0338c1e4f8fb1a730f",
      "blockHash": "0xb328a03ba0de1b1c0760a422d75600b31a15f389b4d73a047a198e0f30c2792c",
      "blockNumber": 86719,
      "transactionIndex": 0,
      "confirmations": null,
      "from": "0x7366ADF97960d404c38D975e1A8786bEb14B6507",
      "gasPrice": {
        "_hex": "0xe10ebaee2"
      },
      "gasLimit": {
        "_hex": "0x15f90"
      },
      "to": "0xB9A0a0410aA5e26bFa66Cc3ACAF0A6FC61Df5588",
      "value": {
        "_hex": "0xde0b6b3a7640000"
      },
      "nonce": 0,
      "data": "0x",
      "r": "0x950aef53a1e6f408f708902da26c7937e0382f5ef5759febe2a98b21844ec3b7",
      "s": "0x4b5f3be2de110e29897c5d0ffe3252919ee694c009c2b97dc89d6bb55c80f022",
      "v": 28,
      "creates": null,
      "raw": "0xf86d80850e10ebaee283015f9094b9a0a0410aa5e26bfa66cc3acaf0a6fc61df5588880de0b6b3a7640000801ca0950aef53a1e6f408f708902da26c7937e0382f5ef5759febe2a98b21844ec3b7a04b5f3be2de110e29897c5d0ffe3252919ee694c009c2b97dc89d6bb55c80f022",
      "networkId": 0,
      "chainId": 0
    }
  ]
}