{
  "hash": "0x101551efbac3478202bd3932c276aa5d75218abde07288f0d1252b5057a9537a",
  "parentHash": "0xd01342957b0f4fe6beacfe52ea5bb4f915a038c3538f30e43d79bc3627837361",
  "number": 75153,
  "timestamp": 1439398518,
  "nonce": "0x83c96dcf0e4b3790",
  "difficulty": 2196549445891,
  "gasLimit": {
    "_hex": "0x2fefd8"
  },
  "gasUsed": {
    "_hex": "0x522d"
  },
  "miner": "0x93641e54c9aA6F9038FE7Adb03629a1747326Cd6",
  "extraData": "0x476574682f76312e302e312f77696e646f77732f676f312e342e32",
  "transactions": [
    {
      "hash": "0xa49687062d9e86591c66a878b29dbab293672375ae13fec3c19bf5950ff1791b",
      "blockHash": "0x101551efbac3478202bd3932c276aa5d75218abde07288f0d1252b5057a9537a",
      "blockNumber": 75153,
      "transactionIndex": 0,
      "confirmations": null,
      "from": "0x326Be8F71bFb0379f989aAB1CC1fE37f0a771f60",
      "gasPrice": {
        "_hex": "0x101dc91a6cf"
      },
      "gasLimit": {
        "_hex": "0x493e0"
      },
      "to": "0xD79B4C6791784184e2755B2fC1659eaaB0f80456",
      "value": {
        "_hex": "0x0"
      },
      "nonce": 76,
      "data": "0x",
      "r": "0x75d3d1eacd36827b881b0a8ee137d07968a5cd17ac2b277ea07d70f940149ff3",
      "s": "0x0343a0c3dba7a9c5db5f0fb2658a007a92f698e57b7402b1bdfdf51195930815",
      "v": 28,
      "creates": null,
      "raw": "0xf8664c860101dc91a6cf830493e094d79b4c6791784184e2755b2fc1659eaab0f8045680801ca075d3d1eacd36827b881b0a8ee137d07968a5cd17ac2b277ea07d70f940149ff3a00343a0c3dba7a9c5db5f0fb2658a007a92f698e57b7402b1bdfdf51195930815",
      "networkId": 0,
      "chainId": 0
    }
  ]
}