{
  "hash": "0x2d763d390c589ac704c00a1a7e4a04f39979fff797281af5beffacbc51e2897b",
  "parentHash": "0x726148e12ef0738ab508f31176767b0a3aa121380ea911b1788b125144ec81f6",
  "number": 78236,
  "timestamp": 1439450718,
  "nonce": "0x53fe8a122a2d7f5d",
  "difficulty": 2282096173386,
  "gasLimit": {
    "_hex": "0x2fefd8"
  },
  "gasUsed": {
    "_hex": "0xa410"
  },
  "miner": "0xf927a40C8B7F6E07c5af7FA2155B4864a4112B13",
  "extraData": "0x",
  "transactions": [
    {
      "hash": "0x8806bd7d162695533fa002bf4a11debe1515023a0cd868fb03bfc71da13161c0",
      "blockHash": "0x2d763d390c589ac704c00a1a7e4a04f39979fff797281af5beffacbc51e2897b",
      "blockNumber": 78236,
      "transactionIndex": 0,
      "confirmations": null,
      "from": "0xa6BDc31c431B8F97848c9D60cbbe9660dc450eB7",
      "gasPrice": {
        "_hex": "0xdb972dd24"
      },
      "gasLimit": {
        "_hex": "0x5208"
      },
      "to": "0x32Be343B94f860124dC4fEe278FDCBD38C102D88",
      "value": {
        "_hex": "0x455f372fd620bc00"
      },
      "nonce": 25,
      "data": "0x",
      "r": "0xa97a9a1db59cd7c2903920ac97ca41bc8306e6fa675de36a828c854904ab6a4f",
      "s": "0x7520b68ed7245c3c4582381eae0a45376e8a4c4bd0901c715218696b60a9f816",
      "v": 28,
      "creates": null,
      "raw": "0xf86c19850db972dd248252089432be343b94f860124dc4fee278fdcbd38c102d8888455f372fd620bc00801ca0a97a9a1db59cd7c2903920ac97ca41bc8306e6fa675de36a828c854904ab6a4fa07520b68ed7245c3c4582381eae0a45376e8a4c4bd0901c715218696b60a9f816",
      "networkId": 0,
      "chainId": 0
    },
    {
      "hash": "0x59bf75c65a85cd6ab63f42dea326d0a2a62ab4d1826e1e704efb224457fbf33d",
      "blockHash": "0x2d763d390c589ac704c00a1a7e4a04f39979fff797281af5beffacbc51e2897b",
      "blockNumber": 78236,
      "transactionIndex": 1,
      "confirmations": null,
      "from": "0x4c74B6F32c9680aCB5Fe0e72B7Aa95C612540A04",
      "gasPrice": {
        "_hex": "0xdb972dd24"
      },
      "gasLimit": {
        "_hex": "0x5208"
      },
      "to": "0x32Be343B94f860124dC4fEe278FDCBD38C102D88",
      "value": {
        "_hex": "0x11589e035563b2000"
      },
      "nonce": 21,
      "data": "0x",
      "r": "0xdc7f03dc89d7ffd3f123d7b0f9f389a5f03837388a2824d2cb6c675f0cd4db14",
      "s": "0x7c8ff920dc3cf6a71716275dbd236b9a5ad0a149c6341b70f815398e4c1a86a4",
      "v": 27,
      "creates": null,
      "raw": "0xf86d15850db972dd248252089432be343b94f860124dc4fee278fdcbd38c102d8889011589e035563b2000801ba0dc7f03dc89d7ffd3f123d7b0f9f389a5f03837388a2824d2cb6c675f0cd4db14a07c8ff920dc3cf6a71716275dbd236b9a5ad0a149c6341b70f815398e4c1a86a4",
      "networkId": 0,
      "chainId": 0
    }
  ]
}