{
  "hash": "0x8b40aa50ea27aad496388307869d36dadc37dafb4149dc64923a8b064ab3be51",
  "parentHash": "0x0a02c28b7b35a8e18c19c7c5d6401ee9ebbe71aac789f44fc7460d5939b67282",
  "number": 92447,
  "timestamp": 1439672142,
  "nonce": "0x6685e108e866f43f",
  "difficulty": 3519992784115,
  "gasLimit": {
    "_hex": "0x2fefd8"
  },
  "gasUsed": {
    "_hex": "0x5208"
  },
  "miner": "0xe6A7a1d47ff21B6321162AEA7C6CB457D5476Bca",
  "extraData": "0x476574682f76312e302e312d38326566323666362f6c696e75782f676f312e34",
  "transactions": [
    {
      "hash": "0x9e000b5421683554d1523c246f06a30a97a85dffa0c3acaef2e6b509716a0270",
      "blockHash": "0x8b40aa50ea27aad496388307869d36dadc37dafb4149dc64923a8b064ab3be51",
      "blockNumber": 92447,
      "transactionIndex": 0,
      "confirmations": null,
      "from": "0x2910543Af39abA0Cd09dBb2D50200b3E800A63D2",
      "gasPrice": {
        "_hex": "0xdbeeb0eb3"
      },
      "gasLimit": {
        "_hex": "0x5208"
      },
      "to": "0x40D992204baF2ae5adEa86071c68eb9aFfbc725b",
      "value": {
        "_hex": "0x4fcafe516f00f8000"
      },
      "nonce": 827,
      "data": "0x",
      "r": "0x670d9850e337fc9284f3076f9447c1ddf8f0673f3b3257d2693e70125374b296",
      "s": "0x6f441f96512c410fd1d5c764fcec9bbe80cb15c07efc437ebeff89fba98e82fd",
      "v": 27,
      "creates": null,
      "raw": "0xf86f82033b850dbeeb0eb38252089440d992204baf2ae5adea86071c68eb9affbc725b8904fcafe516f00f8000801ba0670d9850e337fc9284f3076f9447c1ddf8f0673f3b3257d2693e70125374b296a06f441f96512c410fd1d5c764fcec9bbe80cb15c07efc437ebeff89fba98e82fd",
      "networkId": 0,
      "chainId": 0
    }
  ]
}