{
  "hash": "0xc0829276a6007ebded35c14d8937f2cfca495d279f54e60e1c9d7cc921f5b267",
  "parentHash": "0xba8ec62e4f3c7a9e639a9a6573d5d73a38ff8f8bcd64b187affb501cb349a6d8",
  "number": 121601,
  "timestamp": 1440179686,
  "nonce": "0x857e302e9aeedb31",
  "difficulty": 4455954729198,
  "gasLimit": {
    "_hex": "0x2fefd8"
  },
  "gasUsed": {
    "_hex": "0xa410"
  },
  "miner": "0xbb7B8287f3F0a933474a79eAe42CBCa977791171",
  "extraData": "0xd783010003844765746887676f312e342e32856c696e7578",
  "transactions": [
    {
      "hash": "0x18e1b5b3ba3a65257b76b0974a6430d30ff8ae5d22db7910fbbabbb6eab1d039",
      "blockHash": "0xc0829276a6007ebded35c14d8937f2cfca495d279f54e60e1c9d7cc921f5b267",
      "blockNumber": 121601,
      "transactionIndex": 0,
      "confirmations": null,
      "from": "0x9aFe1b069e1aBbedA82317dF1D371c82c91ca271",
      "gasPrice": {
        "_hex": "0xe219bb99f"
      },
      "gasLimit": {
        "_hex": "0x15f90"
      },
      "to": "0xa1386CA983F174C3d74D76a96Bc57CFDa8Aa4283",
      "value": {
        "_hex": "0x2386f26fc10000"
      },
      "nonce": 0,
      "data": "0x",
      "r": "0x3aad64dbda49bad1092f0508a0fab9eea9e53dc013f7f7f54a9da0eef90a6650",
      "s": "0x6b0ff3ba0da17d6985715bb17450dda88d28e12728a7d61e22d81a2fb845c106",
      "v": 27,
      "creates": null,
      "raw": "0xf86c80850e219bb99f83015f9094a1386ca983f174c3d74d76a96bc57cfda8aa4283872386f26fc10000801ba03aad64dbda49bad1092f0508a0fab9eea9e53dc013f7f7f54a9da0eef90a6650a06b0ff3ba0da17d6985715bb17450dda88d28e12728a7d61e22d81a2fb845c106",
      "networkId": 0,
      "chainId": 0
    },
    {
      "hash": "0x90ba049d860a1d2b9f98c70e7a374d5af8025b5b970514e840ab3501ba3f2a0c",
      "blockHash": "0xc0829276a6007ebded35c14d8937f2cfca495d279f54e60e1c9d7cc921f5b267",
      "blockNumber": 121601,
      "transactionIndex": 1,
      "confirmations": null,
      "from": "0x63738Ec4C9adec404749B5747F3bbE2147de632F",
      "gasPrice": {
        "_hex": "0xd69b48315"
      },
      "gasLimit": {
        "_hex": "0x15f90"
      },
      "to": "0x557C2806B6ceA65a66F415bb2Ed1ce897B340745",
      "value": {
        "_hex": "0xde0b6b3a7640000"
      },
      "nonce": 61,
      "data": "0x",
      "r": "0x34f424b53d8f220748225f361103132f1bd9592f16db8766a7f5ed9e5b926ce8",
      "s": "0x1909d062f1aa10a2f3e4205004703eaf06c9b5e890468f181e29ac2dcbdb6b27",
      "v": 27,
      "creates": null,
      "raw": "0xf86d3d850d69b4831583015f9094557c2806b6cea65a66f415bb2ed1ce897b340745880de0b6b3a7640000801ba034f424b53d8f220748225f361103132f1bd9592f16db8766a7f5ed9e5b926ce8a01909d062f1aa10a2f3e4205004703eaf06c9b5e890468f181e29ac2dcbdb6b27",
      "networkId": 0,
      "chainId": 0
    }
  ]
}