{
  "hash": "0xeb1bfefba8557be9d113896d90921b6268c7ac2b13081e32fafbd8b9a5f47b2a",
  "parentHash": "0x0130a34ae54a1157403e8bc8627dfa0ab20f93572eb5d35e39f06b0097b62ab2",
  "number": 87016,
  "timestamp": 1439586089,
  "nonce": "0xa5a6006094bd8331",
  "difficulty": 3005412850975,
  "gasLimit": {
    "_hex": "0x2fefd8"
  },
  "gasUsed": {
    "_hex": "0x5208"
  },
  "miner": "0xe6A7a1d47ff21B6321162AEA7C6CB457D5476Bca",
  "extraData": "0x476574682f76312e302e312d38326566323666362f6c696e75782f676f312e34",
  "transactions": [
    {
      "hash": "0x5ced06983c82cbf06c3d12422502b56dd28bec2e17a80946c77cf7cb92f8c0a8",
      "blockHash": "0xeb1bfefba8557be9d113896d90921b6268c7ac2b13081e32fafbd8b9a5f47b2a",
      "blockNumber": 87016,
      "transactionIndex": 0,
      "confirmations": null,
      "from": "0x587ff9a633B5e19969C5df348d1605165eF762Ad",
      "gasPrice": {
        "_hex": "0xdcc919ee6"
      },
      "gasLimit": {
        "_hex": "0x15f90"
      },
      "to": "0x2bc8515C62bD6fe4f312619F837309cf715d2520",
      "value": {
        "_hex": "0xde0b6b3a7640000"
      },
      "nonce": 0,
      "data": "0x",
      "r": "0xaf1b1babb0a5c45afb6bcf037b18e42f0d2a736c452d49279f185eab92a10e30",
      "s": "0x144dd6f95df65af3c615cc2a5004907813dbcf0497036db70e15e5a6aa72e50a",
      "v": 27,
      "creates": null,
      "raw": "0xf86d80850dcc919ee683015f90942bc8515c62bd6fe4f312619f837309cf715d2520880de0b6b3a7640000801ba0af1b1babb0a5c45afb6bcf037b18e42f0d2a736c452d49279f185eab92a10e30a0144dd6f95df65af3c615cc2a5004907813dbcf0497036db70e15e5a6aa72e50a",
      "networkId": 0,
      "chainId": 0
    }
  ]
}