{
  "hash": "0xb6323de584a7f64846c84479494d9aa7bb4c8f992607daba77f93a3da9ede022",
  "parentHash": "0x5d1f159a81db5755e5e2a6a3fd3bbe5ce64a66396e2576ff5461e38e0159fcd6",
  "number": 101982,
  "timestamp": 1439830841,
  "nonce": "0x4e460b430c5e93aa",
  "difficulty": 3931962613735,
  "gasLimit": {
    "_hex": "0x2fefd8"
  },
  "gasUsed": {
    "_hex": "0x5208"
  },
  "miner": "0xe6A7a1d47ff21B6321162AEA7C6CB457D5476Bca",
  "extraData": "0x476574682f76312e302e312d38326566323666362f6c696e75782f676f312e34",
  "transactions": [
    {
      "hash": "0xe18a604b3e135b99803d65413a50cf8f94debdbbb7f6d0e6019a31361c3bb154",
      "blockHash": "0xb6323de584a7f64846c84479494d9aa7bb4c8f992607daba77f93a3da9ede022",
      "blockNumber": 101982,
      "transactionIndex": 0,
      "confirmations": null,
      "from": "0x120A270bbC009644e35F0bB6ab13f95b8199c4ad",
      "gasPrice": {
        "_hex": "0xdd9ad26ec"
      },
      "gasLimit": {
        "_hex": "0x3d090"
      },
      "to": "0x3551E56dff4619a2c69C8a5682ff6e1aBc426Cd8",
      "value": {
        "_hex": "0x821ab0d4414980000"
      },
      "nonce": 690,
      "data": "0x",
      "r": "0xf3527e9eb5cba5b1be4af4274120a5757ec98b9b026d0d69a287ce489c7a3875",
      "s": "0x0b55669fb511c12a7fbcff5b97541b05cae32130b98e20554af2e0a33a89d68a",
      "v": 28,
      "creates": null,
      "raw": "0xf8708202b2850dd9ad26ec8303d090943551e56dff4619a2c69c8a5682ff6e1abc426cd8890821ab0d4414980000801ca0f3527e9eb5cba5b1be4af4274120a5757ec98b9b026d0d69a287ce489c7a3875a00b55669fb511c12a7fbcff5b97541b05cae32130b98e20554af2e0a33a89d68a",
      "networkId": 0,
      "chainId": 0
    }
  ]
}