{
  "hash": "0xe9b02dcd0298eae18f07dfbe6d2f95d3891f752728c701c265be045810abde7b",
  "parentHash": "0xce8953820385c25b93518082e64bf3dbd3994e37a5a25e6eecb2f4cfa8de8caf",
  "number": 79090,
  "timestamp": 1439464183,
  "nonce": "0xd04151e4bc234d0f",
  "difficulty": 2324598367866,
  "gasLimit": {
    "_hex": "0x2fefd8"
  },
  "gasUsed": {
    "_hex": "0x38658"
  },
  "miner": "0x02dE7d35a60bf6A216411476040ec648668769D7",
  "extraData": "0x476574682f76312e302e312f77696e646f77732f676f312e342e32",
  "transactions": [
    {
      "hash": "0x722e07f702212c28a269e14c084339188aeecc5d9b6e08ae65d96203a7a55f7c",
      "blockHash": "0xe9b02dcd0298eae18f07dfbe6d2f95d3891f752728c701c265be045810abde7b",
      "blockNumber": 79090,
      "transactionIndex": 0,
      "confirmations": null,
      "from": "0xe6A7a1d47ff21B6321162AEA7C6CB457D5476Bca",
      "gasPrice": {
        "_hex": "0xda85f516d"
      },
      "gasLimit": {
        "_hex": "0x55f0"
      },
      "to": "0x3aAE6435730f753ecF6214996ae2a55A1503F97c",
      "value": {
        "_hex": "0x2056e359a728ba08"
      },
      "nonce": 1098,
      "data": "0x",
      "r": "0xfed525f8b3c5b1c8634afb15bc8ce3945a6dca221053127924af54088eb8fbc3",
      "s": "0x0e7a97ed23e83ca261b4464cddffcec78899d3101e740ee179fdd73f6a7b1d8c",
      "v": 28,
      "creates": null,
      "raw": "0xf86e82044a850da85f516d8255f0943aae6435730f753ecf6214996ae2a55a1503f97c882056e359a728ba08801ca0fed525f8b3c5b1c8634afb15bc8ce3945a6dca221053127924af54088eb8fbc3a00e7a97ed23e83ca261b4464cddffcec78899d3101e740ee179fdd73f6a7b1d8c",
      "networkId": 0,
      "chainId": 0
    },
    {
      "hash": "0xbf05f35b23772579bd8a3e467dc57c4ebfa67550854b822b715d84be866cf6a7",
      "blockHash": "0xe9b02dcd0298eae18f07dfbe6d2f95d3891f752728c701c265be045810abde7b",
      "blockNumber": 79090,
      "transactionIndex": 1,
      "confirmations": null,
      "from": "0xe6A7a1d47ff21B6321162AEA7C6CB457D5476Bca",
      "gasPrice": {
        "_hex": "0xd87e41b04"
      },
      "gasLimit": {
        "_hex": "0x55f0"
      },
      "to": "0x7bC11D546783d2e3b7Bb2241D5f43Fb2611C3B98",
      "value": {
        "_hex": "0x207ba79c3395ed28"
      },
      "nonce": 1099,
      "data": "0x",
      "r": "0xdc353b4af38cd404e5a4c24e035a6daf56a15da49794ca89b8ad51ffc658e2d1",
      "s": "0x54993f882bc2412e7555fe6aadcf47bc211a9078a6987bef6ba4e62b11db249b",
      "v": 28,
      "creates": null,
      "raw": "0xf86e82044b850d87e41b048255f0947bc11d546783d2e3b7bb2241d5f43fb2611c3b9888207ba79c3395ed28801ca0dc353b4af38cd404e5a4c24e035a6daf56a15da49794ca89b8ad51ffc658e2d1a054993f882bc2412e7555fe6aadcf47bc211a9078a6987bef6ba4e62b11db249b",
      "networkId": 0,
      "chainId": 0
    },
    {
      "hash": "0xd44bbc67c030e5d5752c96e9e2df7affb3fc0d46883f560c5c7f3922e391906f",
      "blockHash": "0xe9b02dcd0298eae18f07dfbe6d2f95d3891f752728c701c265be045810abde7b",
      "blockNumber": 79090,
      "transactionIndex": 2,
      "confirmations": null,
      "from": "0xe6A7a1d47ff21B6321162AEA7C6CB457D5476Bca",
      "gasPrice": {
        "_hex": "0xd87e41b04"
      },
      "gasLimit": {
        "_hex": "0x55f0"
      },
      "to": "0x6923f88FCDC5D737237Ba10C2D830Aa40F4634de",
      "value": {
        "_hex": "0x20e5b2b13b5051f4"
      },
      "nonce": 1100,
      "data": "0x",
      "r": "0xeb3df54837965231f508c8ae9c9b9bd1535ecddfd08a5c3ca41d18c8ab2bef82",
      "s": "0x4984e2a199b7daba0f8c74b5eb74e2b6ce58ec46ad9dead69e1fb9c503f5389b",
      "v": 27,
      "creates": null,
      "raw": "0xf86e82044c850d87e41b048255f0946923f88fcdc5d737237ba10c2d830aa40f4634de8820e5b2b13b5051f4801ba0eb3df54837965231f508c8ae9c9b9bd1535ecddfd08a5c3ca41d18c8ab2bef82a04984e2a199b7daba0f8c74b5eb74e2b6ce58ec46ad9dead69e1fb9c503f5389b",
      "networkId": 0,
      "chainId": 0
    },
    {
      "hash": "0x1e20fb5fb314323d9b13ce1da79e3f006475d8a73e0e73f085b399b37ed281f4",
      "blockHash": "0xe9b02dcd0298eae18f07dfbe6d2f95d3891f752728c701c265be045810abde7b",
      "blockNumber": 79090,
      "transactionIndex": 3,
      "confirmations": null,
      "from": "0xe6A7a1d47ff21B6321162AEA7C6CB457D5476Bca",
      "gasPrice": {
        "_hex": "0xd87e41b04"
      },
      "gasLimit": {
        "_hex": "0x55f0"
      },
      "to": "0xfABFCDb9aD54126a8829d5aB6357F608C6B005d0",
      "value": {
        "_hex": "0x20eb9d5ea640d20c"
      },
      "nonce": 1101,
      "data": "0x",
      "r": "0x1f443c49e65611308e4cf84304a47f0008196f564b7fcfd83bc3fff5b755b667",
      "s": "0x742e5c2f4e7e7958e1e3beca636928799bb48d1a31ed6a00915d323f97388e29",
      "v": 27,
      "creates": null,
      "raw": "0xf86e82044d850d87e41b048255f094fabfcdb9ad54126a8829d5ab6357f608c6b005d08820eb9d5ea640d20c801ba01f443c49e65611308e4cf84304a47f0008196f564b7fcfd83bc3fff5b755b667a0742e5c2f4e7e7958e1e3beca636928799bb48d1a31ed6a00915d323f97388e29",
      "networkId": 0,
      "chainId": 0
    },
    {
      "hash": "0x0d8825a91847a422672a453fbb2479f9f19206016cebb91a4b67b80b014491a4",
      "blockHash": "0xe9b02dcd0298eae18f07dfbe6d2f95d3891f752728c701c265be045810abde7b",
      "blockNumber": 79090,
      "transactionIndex": 4,
      "confirmations": null,
      "from": "0xe6A7a1d47ff21B6321162AEA7C6CB457D5476Bca",
      "gasPrice": {
        "_hex": "0xd87e41b04"
      },
      "gasLimit": {
        "_hex": "0x55f0"
      },
      "to": "0x237213131Cf2e4027D4E8Bb293379823874a16fD",
      "value": {
        "_hex": "0x2105f1b55d2dadf4"
      },
      "nonce": 1102,
      "data": "0x",
      "r": "0x9e55a9215af861173c894e8ceb0f524850ce38c05cf82e15c05cd58100369cbd",
      "s": "0x5b9c45f7202e60800d6a7ca822e09e571505623472631ca57ca82ed0bd58b7f8",
      "v": 27,
      "creates": null,
      "raw": "0xf86e82044e850d87e41b048255f094237213131cf2e4027d4e8bb293379823874a16fd882105f1b55d2dadf4801ba09e55a9215af861173c894e8ceb0f524850ce38c05cf82e15c05cd58100369cbda05b9c45f7202e60800d6a7ca822e09e571505623472631ca57ca82ed0bd58b7f8",
      "networkId": 0,
      "chainId": 0
    },
    {
      "hash": "0xe9785a926c7e9c68452ec27c4624cb9f6d8046f744a8c311e775b31d8f816d91",
      "blockHash": "0xe9b02dcd0298eae18f07dfbe6d2f95d3891f752728c701c265be045810abde7b",
      "blockNumber": 79090,
      "transactionIndex": 5,
      "confirmations": null,
      "from": "0xe6A7a1d47ff21B6321162AEA7C6CB457D5476Bca",
      "gasPrice": {
        "_hex": "0xd87e41b04"
      },
      "gasLimit": {
        "_hex": "0x55f0"
      },
      "to": "0xF178805EA39C903a49e6A465DBD40f22576aE24a",
      "value": {
        "_hex": "0x2156cbe30c613e14"
      },
      "nonce": 1103,
      "data": "0x",
      "r": "0x616a287229eeec96ae4042f8a0e7f69060270d99836330b894f33ab43d5cef63",
      "s": "0x42eb4481801bf9833a942dad9bcf63715a78b4bbbeb174ce78d61fc46b1e63b7",
      "v": 27,
      "creates": null,
      "raw": "0xf86e82044f850d87e41b048255f094f178805ea39c903a49e6a465dbd40f22576ae24a882156cbe30c613e14801ba0616a287229eeec96ae4042f8a0e7f69060270d99836330b894f33ab43d5cef63a042eb4481801bf9833a942dad9bcf63715a78b4bbbeb174ce78d61fc46b1e63b7",
      "networkId": 0,
      "chainId": 0
    },
    {
      "hash": "0xe722b455d5f2a593a42f9269f2067a7c108e7e4bb2ccc523f560ac770d4dea70",
      "blockHash": "0xe9b02dcd0298eae18f07dfbe6d2f95d3891f752728c701c265be045810abde7b",
      "blockNumber": 79090,
      "transactionIndex": 6,
      "confirmations": null,
      "from": "0xe6A7a1d47ff21B6321162AEA7C6CB457D5476Bca",
      "gasPrice": {
        "_hex": "0xd87e41b04"
      },
      "gasLimit": {
        "_hex": "0x55f0"
      },
      "to": "0x72E9B6674F1F4eb48556178f40657D8f129bFb79",
      "value": {
        "_hex": "0x21b2ab727bf77a0c"
      },
      "nonce": 1104,
      "data": "0x",
      "r": "0x4aa0f1235842c3c8a9ac27cde28b4fd89682c4dcf3838c62208374f687fcc9df",
      "s": "0x5fccff61a645d8dc7d709fe2d632b52665c7e1faaed600b2a440fc37aacab6eb",
      "v": 27,
      "creates": null,
      "raw": "0xf86e820450850d87e41b048255f09472e9b6674f1f4eb48556178f40657d8f129bfb798821b2ab727bf77a0c801ba04aa0f1235842c3c8a9ac27cde28b4fd89682c4dcf3838c62208374f687fcc9dfa05fccff61a645d8dc7d709fe2d632b52665c7e1faaed600b2a440fc37aacab6eb",
      "networkId": 0,
      "chainId": 0
    },
    {
      "hash": "0xcb50fe90943d8b9d8172284254295b902b4a8aa809993d61af030bc07168909d",
      "blockHash": "0xe9b02dcd0298eae18f07dfbe6d2f95d3891f752728c701c265be045810abde7b",
      "blockNumber": 79090,
      "transactionIndex": 7,
      "confirmations": null,
      "from": "0xe6A7a1d47ff21B6321162AEA7C6CB457D5476Bca",
      "gasPrice": {
        "_hex": "0xd87e41b04"
      },
      "gasLimit": {
        "_hex": "0x55f0"
      },
      "to": "0xbAeF66124E137Eb5eE0DE1BbAB5a30002508a1bf",
      "value": {
        "_hex": "0x22235a640eb00588"
      },
      "nonce": 1105,
      "data": "0x",
      "r": "0xa09e3542b2a8a7368f5b66050f78b37b04a5eedfaef7020cbf2aeee53a47fc3e",
      "s": "0x1b9f2b97e2e7ecd8390bc7f8ee17034fb7ce4c3ccbdf4bd9ecda9d4d74833cde",
      "v": 27,
      "creates": null,
      "raw": "0xf86e820451850d87e41b048255f094baef66124e137eb5ee0de1bbab5a30002508a1bf8822235a640eb00588801ba0a09e3542b2a8a7368f5b66050f78b37b04a5eedfaef7020cbf2aeee53a47fc3ea01b9f2b97e2e7ecd8390bc7f8ee17034fb7ce4c3ccbdf4bd9ecda9d4d74833cde",
      "networkId": 0,
      "chainId": 0
    },
    {
      "hash": "0x91d3cba0a398233e19546965c6b917a47981da7c5d1ad6499bb9fe37bd757d2f",
      "blockHash": "0xe9b02dcd0298eae18f07dfbe6d2f95d3891f752728c701c265be045810abde7b",
      "blockNumber": 79090,
      "transactionIndex": 8,
      "confirmations": null,
      "from": "0xe6A7a1d47ff21B6321162AEA7C6CB457D5476Bca",
      "gasPrice": {
        "_hex": "0xd87e41b04"
      },
      "gasLimit": {
        "_hex": "0x55f0"
      },
      "to": "0xabF56d5ca441eCAD5979023Ec368b74a8d662d95",
      "value": {
        "_hex": "0x223b2f8b5e497ea8"
      },
      "nonce": 1106,
      "data": "0x",
      "r": "0xcc9ca3dd92c26a28cc0a03edb2d4a1753be8b39fd3fe9f3a08b2668badb6f0a0",
      "s": "0x7f600a17b68b621dbd6eebed2384dde330b788fc49ca3c68315a636be081dcee",
      "v": 27,
      "creates": null,
      "raw": "0xf86e820452850d87e41b048255f094abf56d5ca441ecad5979023ec368b74a8d662d9588223b2f8b5e497ea8801ba0cc9ca3dd92c26a28cc0a03edb2d4a1753be8b39fd3fe9f3a08b2668badb6f0a0a07f600a17b68b621dbd6eebed2384dde330b788fc49ca3c68315a636be081dcee",
      "networkId": 0,
      "chainId": 0
    },
    {
      "hash": "0x12f63bb2c4811ac692ae3d9cb08c8dec049d84f3c825753630b186d63431cb63",
      "blockHash": "0xe9b02dcd0298eae18f07dfbe6d2f95d3891f752728c701c265be045810abde7b",
      "blockNumber": 79090,
      "transactionIndex": 9,
      "confirmations": null,
      "from": "0xe6A7a1d47ff21B6321162AEA7C6CB457D5476Bca",
      "gasPrice": {
        "_hex": "0xd87e41b04"
      },
      "gasLimit": {
        "_hex": "0x55f0"
      },
      "to": "0x9B80BD38c4afE0942F8029298A11fACe85ce4cAF",
      "value": {
        "_hex": "0x22413cec118e7298"
      },
      "nonce": 1107,
      "data": "0x",
      "r": "0xad51d2fafc5d81bfc2daa0ba1d2fd3c3bff552c3ae26430e5bdcb7dd143156ec",
      "s": "0x618329c77b2ba9bbd01cd3ace44a4323d040cf7257945309fa182769e2a9a860",
      "v": 27,
      "creates": null,
      "raw": "0xf86e820453850d87e41b048255f0949b80bd38c4afe0942f8029298a11face85ce4caf8822413cec118e7298801ba0ad51d2fafc5d81bfc2daa0ba1d2fd3c3bff552c3ae26430e5bdcb7dd143156eca0618329c77b2ba9bbd01cd3ace44a4323d040cf7257945309fa182769e2a9a860",
      "networkId": 0,
      "chainId": 0
    },
    {
      "hash": "0xd8a8cee26b8f99ad81b46c869252b6bc25a4795e92976f1211cd88e7bef3d006",
      "blockHash": "0xe9b02dcd0298eae18f07dfbe6d2f95d3891f752728c701c265be045810abde7b",
      "blockNumber": 79090,
      "transactionIndex": 10,
      "confirmations": null,
      "from": "0xe6A7a1d47ff21B6321162AEA7C6CB457D5476Bca",
      "gasPrice": {
        "_hex": "0xd87e41b04"
      },
      "gasLimit": {
        "_hex": "0x55f0"
      },
      "to": "0x3716217678dcE2eC18FeFfa9D6f5cC9dC52eDe83",
      "value": {
        "_hex": "0x2327c5a1e51b6a38"
      },
      "nonce": 1108,
      "data": "0x",
      "r": "0x68e07958c9704d52e05b541ebcf9cab1e7a68446dea95922b7e39bb3564a307f",
      "s": "0x57fb907ef526f0cef550a46ded035de647af6a7812ff94c93d4395d561e4fb61",
      "v": 28,
      "creates": null,
      "raw": "0xf86e820454850d87e41b048255f0943716217678dce2ec18feffa9d6f5cc9dc52ede83882327c5a1e51b6a38801ca068e07958c9704d52e05b541ebcf9cab1e7a68446dea95922b7e39bb3564a307fa057fb907ef526f0cef550a46ded035de647af6a7812ff94c93d4395d561e4fb61",
      "networkId": 0,
      "chainId": 0
    }
  ]
}