{
  "hash": "0x3242d7d3077e9aa207fd33c0a95293d1ac69ec24443a771f5a2e06d1da90248f",
  "parentHash": "0x6bb4ea32b4c175c52f4bd87ccd421910df1ce98d9f106cacf49529d3191f057b",
  "number": 93050,
  "timestamp": 1439681574,
  "nonce": "0x9b09ef4789f4561f",
  "difficulty": 3640345029018,
  "gasLimit": {
    "_hex": "0x2fefd8"
  },
  "gasUsed": {
    "_hex": "0xa674"
  },
  "miner": "0x790b8a3cE86E707ED0eD32bF89B3269692a23CC1",
  "extraData": "0xd783010001844765746887676f312e342e32856c696e7578",
  "transactions": [
    {
      "hash": "0xdcece4973bc7d6d0a9004d00b0e858ba22b14174adf294fa7832a94fc43fca05",
      "blockHash": "0x3242d7d3077e9aa207fd33c0a95293d1ac69ec24443a771f5a2e06d1da90248f",
      "blockNumber": 93050,
      "transactionIndex": 0,
      "confirmations": null,
      "from": "0x873c6F70EfB6B1d0F2BbC57eEBCD70617c6CE662",
      "gasPrice": {
        "_hex": "0x110c8f7d8de"
      },
      "gasLimit": {
        "_hex": "0xc350"
      },
      "to": "0x2910543Af39abA0Cd09dBb2D50200b3E800A63D2",
      "value": {
        "_hex": "0x36ea32f4e55eb40000"
      },
      "nonce": 0,
      "data": "0x454e43323138374252",
      "r": "0x6ea3d8b6ad7525fd01e380ed10885ae4aad02ce0a4a6f2403e8d265c58a337db",
      "s": "0x07a9071daa5d65759e2cc2941226d28461b0dcd0aac93942941f5522727af78b",
      "v": 27,
      "creates": null,
      "raw": "0xf87780860110c8f7d8de82c350942910543af39aba0cd09dbb2d50200b3e800a63d28936ea32f4e55eb4000089454e433231383742521ba06ea3d8b6ad7525fd01e380ed10885ae4aad02ce0a4a6f2403e8d265c58a337dba007a9071daa5d65759e2cc2941226d28461b0dcd0aac93942941f5522727af78b",
      "networkId": 0,
      "chainId": 0
    },
    {
      "hash": "0x8e15aca531bc36ccbd0b3a0edf02025548379b398148e8f80952f2308c989cee",
      "blockHash": "0x3242d7d3077e9aa207fd33c0a95293d1ac69ec24443a771f5a2e06d1da90248f",
      "blockNumber": 93050,
      "transactionIndex": 1,
      "confirmations": null,
      "from": "0x32Be343B94f860124dC4fEe278FDCBD38C102D88",
      "gasPrice": {
        "_hex": "0xde09be504"
      },
      "gasLimit": {
        "_hex": "0x5208"
      },
      "to": "0x3ce124C7f1505f7bd76cdC78Bf0079b7e9922949",
      "value": {
        "_hex": "0xdbd2fc137a30000"
      },
      "nonce": 910,
      "data": "0x",
      "r": "0x02dcc3e022dfcdd28c968ed50922f5499bfb8bf091aa263660504f015baf5073",
      "s": "0x5fc05bf385fe239f1c8b809ea3c77752997958423a0495cb5bebde262174bd66",
      "v": 28,
      "creates": null,
      "raw": "0xf86e82038e850de09be504825208943ce124c7f1505f7bd76cdc78bf0079b7e9922949880dbd2fc137a30000801ca002dcc3e022dfcdd28c968ed50922f5499bfb8bf091aa263660504f015baf5073a05fc05bf385fe239f1c8b809ea3c77752997958423a0495cb5bebde262174bd66",
      "networkId": 0,
      "chainId": 0
    }
  ]
}