{
  "hash": "0x440e423b2216da66772f05315db768489b51d45b6c39579a60d37ac69758bb00",
  "parentHash": "0x4bd40a42946d0ee5acae945a82a4128efc33f8123d27e0ae963f32dbe7f37bfa",
  "number": 81056,
  "timestamp": 1439495431,
  "nonce": "0x9dab74ea2203fb4f",
  "difficulty": 2433209954924,
  "gasLimit": {
    "_hex": "0x2fefd8"
  },
  "gasUsed": {
    "_hex": "0x19a28"
  },
  "miner": "0x007f7f58D3eb5b7510A301eCC749FC1fCDDBE14D",
  "extraData": "0x476574682f76312e302e312f77696e646f77732f676f312e342e32",
  "transactions": [
    {
      "hash": "0xc784cdd95583d428338ef8acd180aa36edc285c98443f93cd9b3a4f3610f67cb",
      "blockHash": "0x440e423b2216da66772f05315db768489b51d45b6c39579a60d37ac69758bb00",
      "blockNumber": 81056,
      "transactionIndex": 0,
      "confirmations": null,
      "from": "0x120A270bbC009644e35F0bB6ab13f95b8199c4ad",
      "gasPrice": {
        "_hex": "0xd3d76f222"
      },
      "gasLimit": {
        "_hex": "0x3d090"
      },
      "to": "0xFbc92cE518a6CA6341B08b4468880Cc9Dd61a027",
      "value": {
        "_hex": "0x19843075282a86ac00"
      },
      "nonce": 366,
      "data": "0x",
      "r": "0x2f02e85e075847710076d7b0fda07bbe1469a8bf7858a5dedefe173b11a2c1ed",
      "s": "0x2fdf136ab4194cf980a75ee6bb5ce37d3fb48a00c17b853f30a0b99f52f5226c",
      "v": 28,
      "creates": null,
      "raw": "0xf87082016e850d3d76f2228303d09094fbc92ce518a6ca6341b08b4468880cc9dd61a0278919843075282a86ac00801ca02f02e85e075847710076d7b0fda07bbe1469a8bf7858a5dedefe173b11a2c1eda02fdf136ab4194cf980a75ee6bb5ce37d3fb48a00c17b853f30a0b99f52f5226c",
      "networkId": 0,
      "chainId": 0
    },
    {
      "hash": "0xaf9c544114562e9efe0a197b0208d5288039af0c6bc17ea6f86f96a6d923454a",
      "blockHash": "0x440e423b2216da66772f05315db768489b51d45b6c39579a60d37ac69758bb00",
      "blockNumber": 81056,
      "transactionIndex": 1,
      "confirmations": null,
      "from": "0x2910543Af39abA0Cd09dBb2D50200b3E800A63D2",
      "gasPrice": {
        "_hex": "0xcb02e2902"
      },
      "gasLimit": {
        "_hex": "0x5208"
      },
      "to": "0xFd1356C729AbA6307fdddAF2abF89c2563bBc1bF",
      "value": {
        "_hex": "0x10f0cdea164213f8000"
      },
      "nonce": 434,
      "data": "0x",
      "r": "0x9822cfa8b673bb16079d9ad31a8bf69b43078821a42d7d2892691cc1c461fb50",
      "s": "0x0ffc438f8546156da45ce85ca23a9df726db8ca5e20b034a14610abe2aba0ae5",
      "v": 28,
      "creates": null,
      "raw": "0xf8708201b2850cb02e290282520894fd1356c729aba6307fdddaf2abf89c2563bbc1bf8a010f0cdea164213f8000801ca09822cfa8b673bb16079d9ad31a8bf69b43078821a42d7d2892691cc1c461fb50a00ffc438f8546156da45ce85ca23a9df726db8ca5e20b034a14610abe2aba0ae5",
      "networkId": 0,
      "chainId": 0
    },
    {
      "hash": "0x38f635790baaed3c0a64757bb33730e0fbe2cb89c0a157c4c5739757afde49e6",
      "blockHash": "0x440e423b2216da66772f05315db768489b51d45b6c39579a60d37ac69758bb00",
      "blockNumber": 81056,
      "transactionIndex": 2,
      "confirmations": null,
      "from": "0x2910543Af39abA0Cd09dBb2D50200b3E800A63D2",
      "gasPrice": {
        "_hex": "0xcb02e2902"
      },
      "gasLimit": {
        "_hex": "0x5208"
      },
      "to": "0xe93C41Eb698768D7d6a9e589434e5bc8B2eec540",
      "value": {
        "_hex": "0x21e19cf06417a5f8000"
      },
      "nonce": 435,
      "data": "0x",
      "r": "0x5e1003132e5956f7e3d5998a5e091905404697be1f552f7969e62ac53f1a44d3",
      "s": "0x6e24197fa6e20750ed3cdb8af813ca23f70e55d3d7887974b14830505e8d8edf",
      "v": 27,
      "creates": null,
      "raw": "0xf8708201b3850cb02e290282520894e93c41eb698768d7d6a9e589434e5bc8b2eec5408a021e19cf06417a5f8000801ba05e1003132e5956f7e3d5998a5e091905404697be1f552f7969e62ac53f1a44d3a06e24197fa6e20750ed3cdb8af813ca23f70e55d3d7887974b14830505e8d8edf",
      "networkId": 0,
      "chainId": 0
    },
    {
      "hash": "0x8a5be2443b6d84d25e23e929444aa27f5345fd2548eda2f2542ef6526f4ed4cc",
      "blockHash": "0x440e423b2216da66772f05315db768489b51d45b6c39579a60d37ac69758bb00",
      "blockNumber": 81056,
      "transactionIndex": 3,
      "confirmations": null,
      "from": "0x79b3CC55449605B142479d28864956bd9e18f283",
      "gasPrice": {
        "_hex": "0xba43b7400"
      },
      "gasLimit": {
        "_hex": "0x5208"
      },
      "to": "0xC47Aaa860008be6f65B58c6C6E02a84e666EfE31",
      "value": {
        "_hex": "0x129e7583302e59ddc0"
      },
      "nonce": 0,
      "data": "0x",
      "r": "0x055782d5febc49a48bed30efa6b9a7ae9734cbb87b5b3bc38fdb0c68ae5569c2",
      "s": "0x34c299b349b2f992caf639ebc4d00a3c80e752007eb63fe8ef7a09ad5354c1f1",
      "v": 28,
      "creates": null,
      "raw": "0xf86d80850ba43b740082520894c47aaa860008be6f65b58c6c6e02a84e666efe3189129e7583302e59ddc0801ca0055782d5febc49a48bed30efa6b9a7ae9734cbb87b5b3bc38fdb0c68ae5569c2a034c299b349b2f992caf639ebc4d00a3c80e752007eb63fe8ef7a09ad5354c1f1",
      "networkId": 0,
      "chainId": 0
    },
    {
      "hash": "0x6a1ae23cee637c6ab1c2f94c6a1d93bde0af64796eacf447843a39350529320c",
      "blockHash": "0x440e423b2216da66772f05315db768489b51d45b6c39579a60d37ac69758bb00",
      "blockNumber": 81056,
      "transactionIndex": 4,
      "confirmations": null,
      "from": "0x214Bff3588C0607Ac539d1407fb382C787B487eD",
      "gasPrice": {
        "_hex": "0xba43b7400"
      },
      "gasLimit": {
        "_hex": "0x5208"
      },
      "to": "0xC47Aaa860008be6f65B58c6C6E02a84e666EfE31",
      "value": {
        "_hex": "0xa8d623112929e000"
      },
      "nonce": 0,
      "data": "0x",
      "r": "0x2093ed203ba8a9f37f56a237d08a40cf5c2763274b664971676e3cdd62e44405",
      "s": "0x7a63506cdfa649d7fb0d892496ac34d1d5a661bdf8ad342855c81577ea843476",
      "v": 27,
      "creates": null,
      "raw": "0xf86c80850ba43b740082520894c47aaa860008be6f65b58c6c6e02a84e666efe3188a8d623112929e000801ba02093ed203ba8a9f37f56a237d08a40cf5c2763274b664971676e3cdd62e44405a07a63506cdfa649d7fb0d892496ac34d1d5a661bdf8ad342855c81577ea843476",
      "networkId": 0,
      "chainId": 0
    }
  ]
}