{
  "hash": "0xe34e20789a91b3506e94f53f2dd13a222a425559c5654a951348d23ed84c2d96",
  "parentHash": "0xc19c7eff45df8b31a9955eac31874bb1eeba40b9b18459361dfdc5c58af9cecf",
  "number": 113830,
  "timestamp": 1440030317,
  "nonce": "0x232cac8df0d3aa06",
  "difficulty": 4436193213714,
  "gasLimit": {
    "_hex": "0x2fefd8"
  },
  "gasUsed": {
    "_hex": "0xa410"
  },
  "miner": "0x580992B51e3925e23280EfB93d3047C82f17E038",
  "extraData": "0x476574682f76312e302e312f6c696e75782f676f312e342e32",
  "transactions": [
    {
      "hash": "0x7c8e2a4d6617fa1d86b7108fde8f2b60878bfc5e725d7407b89eead0746395bb",
      "blockHash": "0xe34e20789a91b3506e94f53f2dd13a222a425559c5654a951348d23ed84c2d96",
      "blockNumber": 113830,
      "transactionIndex": 0,
      "confirmations": null,
      "from": "0xC47Aaa860008be6f65B58c6C6E02a84e666EfE31",
      "gasPrice": {
        "_hex": "0xd8a8d3d42"
      },
      "gasLimit": {
        "_hex": "0x15f90"
      },
      "to": "0xd86a43A11b0972365cc141dECE56D5F66175FEBE",
      "value": {
        "_hex": "0x58621f89daf87838d"
      },
      "nonce": 105,
      "data": "0x",
      "r": "0x0d52fdd35ee21fdf14f070c4a721a9b40b079524561386235ef1d07883f1952e",
      "s": "0x2806d5cf4d33d3b2e439223dfae6a43ec250a91ed72d5fff0f2f3da428d0b8eb",
      "v": 28,
      "creates": null,
      "raw": "0xf86e69850d8a8d3d4283015f9094d86a43a11b0972365cc141dece56d5f66175febe89058621f89daf87838d801ca00d52fdd35ee21fdf14f070c4a721a9b40b079524561386235ef1d07883f1952ea02806d5cf4d33d3b2e439223dfae6a43ec250a91ed72d5fff0f2f3da428d0b8eb",
      "networkId": 0,
      "chainId": 0
    },
    {
      "hash": "0x6068e5d5887bb69b0818798c1604057cc3834f86efbd1d8d444eff80ba24e6e2",
      "blockHash": "0xe34e20789a91b3506e94f53f2dd13a222a425559c5654a951348d23ed84c2d96",
      "blockNumber": 113830,
      "transactionIndex": 1,
      "confirmations": null,
      "from": "0x76899c112A85c5a7d27Ff89f1b97112e900aeEBc",
      "gasPrice": {
        "_hex": "0xba43b7400"
      },
      "gasLimit": {
        "_hex": "0x5208"
      },
      "to": "0xC47Aaa860008be6f65B58c6C6E02a84e666EfE31",
      "value": {
        "_hex": "0xdde4294fd97b6000"
      },
      "nonce": 11,
      "data": "0x",
      "r": "0xd69c2fc2e5184a3d35f0f6702749420314fb828bcc7603609597488654a20cb6",
      "s": "0x5363c9fe41d597a109bca16b3d14be3a7aa026fa4721ffaaf5180ddb0d5d6c3f",
      "v": 28,
      "creates": null,
      "raw": "0xf86c0b850ba43b740082520894c47aaa860008be6f65b58c6c6e02a84e666efe3188dde4294fd97b6000801ca0d69c2fc2e5184a3d35f0f6702749420314fb828bcc7603609597488654a20cb6a05363c9fe41d597a109bca16b3d14be3a7aa026fa4721ffaaf5180ddb0d5d6c3f",
      "networkId": 0,
      "chainId": 0
    }
  ]
}