{
  "hash": "0x44e8b3ac04aeb14d4d45ca57168123c5ffd07d1b21eae7d24437fcf203e56ca2",
  "parentHash": "0xd225944f078d868aef8c6c4d5673ec6ea70a22b885d6704312186fe45313632a",
  "number": 48243,
  "timestamp": 1438954020,
  "nonce": "0x15920b7b260c3ade",
  "difficulty": 1456495321203,
  "gasLimit": {
    "_hex": "0x14439"
  },
  "gasUsed": {
    "_hex": "0xa8d8"
  },
  "miner": "0xe6A7a1d47ff21B6321162AEA7C6CB457D5476Bca",
  "extraData": "0x657468706f6f6c2e6f7267",
  "transactions": [
    {
      "hash": "0x916d4550a5e2ba13f339b0ac6be569dddceee6b04816b94ba1d02a0a4f51d500",
      "blockHash": "0x44e8b3ac04aeb14d4d45ca57168123c5ffd07d1b21eae7d24437fcf203e56ca2",
      "blockNumber": 48243,
      "transactionIndex": 0,
      "confirmations": null,
      "from": "0x8eBb19D24F4B6798FDbd422b2d51B6451Da06a3b",
      "gasPrice": {
        "_hex": "0xcf1c8e2a3"
      },
      "gasLimit": {
        "_hex": "0x7530"
      },
      "to": "0x2910543Af39abA0Cd09dBb2D50200b3E800A63D2",
      "value": {
        "_hex": "0x77b227cd83be80000"
      },
      "nonce": 0,
      "data": "0x454e3651304d384252",
      "r": "0x5c148bdbb4dc965a57e661c4b47180dc1a2e9fd6b5e18688699c972c433f2983",
      "s": "0x44b6acfa9aac68090c51bab738a88ce9e6f0ffec004396a9d8880ad9d98655c2",
      "v": 27,
      "creates": null,
      "raw": "0xf87680850cf1c8e2a3827530942910543af39aba0cd09dbb2d50200b3e800a63d289077b227cd83be8000089454e3651304d3842521ba05c148bdbb4dc965a57e661c4b47180dc1a2e9fd6b5e18688699c972c433f2983a044b6acfa9aac68090c51bab738a88ce9e6f0ffec004396a9d8880ad9d98655c2",
      "networkId": 0,
      "chainId": 0
    },
    {
      "hash": "0x819fd5bbc12fad42a885e7822b6d541d3f2d4a17833764728ac2d5b12e819cae",
      "blockHash": "0x44e8b3ac04aeb14d4d45ca57168123c5ffd07d1b21eae7d24437fcf203e56ca2",
      "blockNumber": 48243,
      "transactionIndex": 1,
      "confirmations": null,
      "from": "0xa76d3F156251b72c0CCf4B47A3393cBD6f49A9C5",
      "gasPrice": {
        "_hex": "0xe000909e0"
      },
      "gasLimit": {
        "_hex": "0x55f0"
      },
      "to": "0x2910543Af39abA0Cd09dBb2D50200b3E800A63D2",
      "value": {
        "_hex": "0x481975315ba5880000"
      },
      "nonce": 1,
      "data": "0x454e4d323354595a30",
      "r": "0xa8e3e6fbfef8db01154d2b5cefd05e280c9271bbbf829379260cbb613cb20f46",
      "s": "0x0ac9b804f53eb1efc3b210dda4010323660c146c4a2417e0e2c7230028e6f298",
      "v": 28,
      "creates": null,
      "raw": "0xf87601850e000909e08255f0942910543af39aba0cd09dbb2d50200b3e800a63d289481975315ba588000089454e4d323354595a301ca0a8e3e6fbfef8db01154d2b5cefd05e280c9271bbbf829379260cbb613cb20f46a00ac9b804f53eb1efc3b210dda4010323660c146c4a2417e0e2c7230028e6f298",
      "networkId": 0,
      "chainId": 0
    }
  ]
}