{
  "hash": "0xb264e387bb2cf5e30c8f0b285d675164ccb3bcd9163cc0ffce493abdd8046d92",
  "parentHash": "0x089e659abaae026fb8c8e833bb7d7d3db860b80948355c0a3790aa8d406fc07e",
  "number": 92729,
  "timestamp": 1439676262,
  "nonce": "0xaf73ddf13a7a6fab",
  "difficulty": 3599828703230,
  "gasLimit": {
    "_hex": "0x2fefd8"
  },
  "gasUsed": {
    "_hex": "0x5208"
  },
  "miner": "0x8293b65bD915B9FF87F6aDAb479da2e5b6633fDB",
  "extraData": "0x476574682f76312e302e312f77696e646f77732f676f312e342e32",
  "transactions": [
    {
      "hash": "0x1014eff9f97bf64580a1183b16fb5d24433b6ee5ff1d9119287ce8151280a377",
      "blockHash": "0xb264e387bb2cf5e30c8f0b285d675164ccb3bcd9163cc0ffce493abdd8046d92",
      "blockNumber": 92729,
      "transactionIndex": 0,
      "confirmations": null,
      "from": "0xb04a4F5D56cDA604d99A2b8023f307CCF21999eF",
      "gasPrice": {
        "_hex": "0xd2179d9ad"
      },
      "gasLimit": {
        "_hex": "0x15f90"
      },
      "to": "0x7a5a6cea5e9164d5926315047d043B091dC8A36f",
      "value": {
        "_hex": "0x4563918244f40000"
      },
      "nonce": 2,
      "data": "0x",
      "r": "0x5c887b575a82dd8a00ebb9ee0c7833521c76188e094134875f9226db8c53aad0",
      "s": "0x58bde8fe85a4affa562bb9eee7a95569c4285b70e0f6cf495a2904291d2d38ec",
      "v": 28,
      "creates": null,
      "raw": "0xf86d02850d2179d9ad83015f90947a5a6cea5e9164d5926315047d043b091dc8a36f884563918244f40000801ca05c887b575a82dd8a00ebb9ee0c7833521c76188e094134875f9226db8c53aad0a058bde8fe85a4affa562bb9eee7a95569c4285b70e0f6cf495a2904291d2d38ec",
      "networkId": 0,
      "chainId": 0
    }
  ]
}