{
  "hash": "0xd850c0ba523bbbf177dbcd6ee6c7f29479e61cdca3e3ad81498b605f70a20910",
  "parentHash": "0x3fb04adadb3fb5e6fa9e8ce46a9655f7fca807841d16a7db0e310622029c0ac1",
  "number": 116534,
  "timestamp": 1440089091,
  "nonce": "0x1924917c72423e4e",
  "difficulty": 4544366558532,
  "gasLimit": {
    "_hex": "0x2fefd8"
  },
  "gasUsed": {
    "_hex": "0x1ec30"
  },
  "miner": "0xe6A7a1d47ff21B6321162AEA7C6CB457D5476Bca",
  "extraData": "0xd783010002844765746887676f312e342e32856c696e7578",
  "transactions": [
    {
      "hash": "0x3e117a593a796d7f4b4111323a92e3a25236541c5e6c0fafed35900961435c2c",
      "blockHash": "0xd850c0ba523bbbf177dbcd6ee6c7f29479e61cdca3e3ad81498b605f70a20910",
      "blockNumber": 116534,
      "transactionIndex": 0,
      "confirmations": null,
      "from": "0x3D31A7CdbF1B9952C1c4d567b97c54fc354E6A7B",
      "gasPrice": {
        "_hex": "0xd30e9da5e"
      },
      "gasLimit": {
        "_hex": "0x5208"
      },
      "to": "0xFBb1b73C4f0BDa4f67dcA266ce6Ef42f520fBB98",
      "value": {
        "_hex": "0x11566850234ce1110"
      },
      "nonce": 5,
      "data": "0x",
      "r": "0x74560fb3e12a1fa0636617aa5c895c1968863442dcbbad4b48793b16a8e3ff50",
      "s": "0x12cbb7f28dcf96ddb091895f380b347c675db7ead472e21182cacc4252d286fe",
      "v": 28,
      "creates": null,
      "raw": "0xf86d05850d30e9da5e82520894fbb1b73c4f0bda4f67dca266ce6ef42f520fbb9889011566850234ce1110801ca074560fb3e12a1fa0636617aa5c895c1968863442dcbbad4b48793b16a8e3ff50a012cbb7f28dcf96ddb091895f380b347c675db7ead472e21182cacc4252d286fe",
      "networkId": 0,
      "chainId": 0
    },
    {
      "hash": "0xfd1043896d8a8bf454e7ec64c9fe94c4580cf89e11146cc66eab317ec6fb305a",
      "blockHash": "0xd850c0ba523bbbf177dbcd6ee6c7f29479e61cdca3e3ad81498b605f70a20910",
      "blockNumber": 116534,
      "transactionIndex": 1,
      "confirmations": null,
      "from": "0x3D31A7CdbF1B9952C1c4d567b97c54fc354E6A7B",
      "gasPrice": {
        "_hex": "0xddd50afd9"
      },
      "gasLimit": {
        "_hex": "0x5208"
      },
      "to": "0xFBb1b73C4f0BDa4f67dcA266ce6Ef42f520fBB98",
      "value": {
        "_hex": "0x115664dc3e135ff38"
      },
      "nonce": 6,
      "data": "0x",
      "r": "0xda594d436c65bd4024230faab67cac595e5d16b3217fa306809c7c4088e680f7",
      "s": "0x325e38a952b880bf665c3e962677f8b739f98887cb1e26a3cd169c2eee6fd411",
      "v": 27,
      "creates": null,
      "raw": "0xf86d06850ddd50afd982520894fbb1b73c4f0bda4f67dca266ce6ef42f520fbb98890115664dc3e135ff38801ba0da594d436c65bd4024230faab67cac595e5d16b3217fa306809c7c4088e680f7a0325e38a952b880bf665c3e962677f8b739f98887cb1e26a3cd169c2eee6fd411",
      "networkId": 0,
      "chainId": 0
    },
    {
      "hash": "0x8e40dd893e7a53a9a964a50d976253022ed5250f60dd7f2b62db4ed528bbfd5f",
      "blockHash": "0xd850c0ba523bbbf177dbcd6ee6c7f29479e61cdca3e3ad81498b605f70a20910",
      "blockNumber": 116534,
      "transactionIndex": 2,
      "confirmations": null,
      "from": "0x3D31A7CdbF1B9952C1c4d567b97c54fc354E6A7B",
      "gasPrice": {
        "_hex": "0xde0724a6e"
      },
      "gasLimit": {
        "_hex": "0x5208"
      },
      "to": "0xFBb1b73C4f0BDa4f67dcA266ce6Ef42f520fBB98",
      "value": {
        "_hex": "0x115664cc304a57090"
      },
      "nonce": 7,
      "data": "0x",
      "r": "0xa0e65729390f78eb71644549ddb17098cf9ebcbe2f202c63d228a28300509b8b",
      "s": "0x3833efa32a5b4283bb0efdad0d03701737b5ca49974ccb5cb3cd9fa7fc13abec",
      "v": 27,
      "creates": null,
      "raw": "0xf86d07850de0724a6e82520894fbb1b73c4f0bda4f67dca266ce6ef42f520fbb98890115664cc304a57090801ba0a0e65729390f78eb71644549ddb17098cf9ebcbe2f202c63d228a28300509b8ba03833efa32a5b4283bb0efdad0d03701737b5ca49974ccb5cb3cd9fa7fc13abec",
      "networkId": 0,
      "chainId": 0
    },
    {
      "hash": "0xc505378653f28552a2f53271c007555d5497a91bd8f608db519744e40a34a3b9",
      "blockHash": "0xd850c0ba523bbbf177dbcd6ee6c7f29479e61cdca3e3ad81498b605f70a20910",
      "blockNumber": 116534,
      "transactionIndex": 3,
      "confirmations": null,
      "from": "0x3D31A7CdbF1B9952C1c4d567b97c54fc354E6A7B",
      "gasPrice": {
        "_hex": "0xdf824ccb8"
      },
      "gasLimit": {
        "_hex": "0x5208"
      },
      "to": "0xFBb1b73C4f0BDa4f67dcA266ce6Ef42f520fBB98",
      "value": {
        "_hex": "0x11566452b1955aa40"
      },
      "nonce": 8,
      "data": "0x",
      "r": "0xcf3828b89c079d91826bc9fd1253064018deecdb5333e81fa0670ba35b782567",
      "s": "0x16f17210aa88b70ad3afac73ddadb6e77276b8676c04461b3f21803f52deacd7",
      "v": 28,
      "creates": null,
      "raw": "0xf86d08850df824ccb882520894fbb1b73c4f0bda4f67dca266ce6ef42f520fbb9889011566452b1955aa40801ca0cf3828b89c079d91826bc9fd1253064018deecdb5333e81fa0670ba35b782567a016f17210aa88b70ad3afac73ddadb6e77276b8676c04461b3f21803f52deacd7",
      "networkId": 0,
      "chainId": 0
    },
    {
      "hash": "0x383b0424225ec4baea1a6fc0f6e8294feade55b5e12f996a87c66ebcff723828",
      "blockHash": "0xd850c0ba523bbbf177dbcd6ee6c7f29479e61cdca3e3ad81498b605f70a20910",
      "blockNumber": 116534,
      "transactionIndex": 4,
      "confirmations": null,
      "from": "0x3D31A7CdbF1B9952C1c4d567b97c54fc354E6A7B",
      "gasPrice": {
        "_hex": "0xd5d02cfb4"
      },
      "gasLimit": {
        "_hex": "0x5208"
      },
      "to": "0xFBb1b73C4f0BDa4f67dcA266ce6Ef42f520fBB98",
      "value": {
        "_hex": "0x1156676e0d570da60"
      },
      "nonce": 9,
      "data": "0x",
      "r": "0x0378b82b2383565118b88f36369383c74897aee4dd885c9d60ca1a63b76d35ef",
      "s": "0x7c1a0439c2676602e25fa31b1bfce46f763d8460d82b61b4429c91ede318357b",
      "v": 27,
      "creates": null,
      "raw": "0xf86d09850d5d02cfb482520894fbb1b73c4f0bda4f67dca266ce6ef42f520fbb988901156676e0d570da60801ba00378b82b2383565118b88f36369383c74897aee4dd885c9d60ca1a63b76d35efa07c1a0439c2676602e25fa31b1bfce46f763d8460d82b61b4429c91ede318357b",
      "networkId": 0,
      "chainId": 0
    },
    {
      "hash": "0x618ea263a0d2be52ee61758b72ce20dabe4306359d088ead33c51d753fe67654",
      "blockHash": "0xd850c0ba523bbbf177dbcd6ee6c7f29479e61cdca3e3ad81498b605f70a20910",
      "blockNumber": 116534,
      "transactionIndex": 5,
      "confirmations": null,
      "from": "0x3D31A7CdbF1B9952C1c4d567b97c54fc354E6A7B",
      "gasPrice": {
        "_hex": "0xcb46fe48a"
      },
      "gasLimit": {
        "_hex": "0x5208"
      },
      "to": "0xFBb1b73C4f0BDa4f67dcA266ce6Ef42f520fBB98",
      "value": {
        "_hex": "0x11566ace5295ba7b0"
      },
      "nonce": 10,
      "data": "0x",
      "r": "0x0966320845a28a4995b8810f0aa52429331d0fb9b2b894b46ab01947cec65c68",
      "s": "0x6ab287d1de4461ad4b9a4eed2cb9451a9540303221173479cbaa46dc9601a5ef",
      "v": 28,
      "creates": null,
      "raw": "0xf86d0a850cb46fe48a82520894fbb1b73c4f0bda4f67dca266ce6ef42f520fbb9889011566ace5295ba7b0801ca00966320845a28a4995b8810f0aa52429331d0fb9b2b894b46ab01947cec65c68a06ab287d1de4461ad4b9a4eed2cb9451a9540303221173479cbaa46dc9601a5ef",
      "networkId": 0,
      "chainId": 0
    }
  ]
}