{
  "hash": "0x5ff4c84f915148d8c497de9027a4a9e54aa3e150aed41ce233ecfd21f5c2d390",
  "parentHash": "0xa86c04a77431c62aa29a47a59fb02f94ad5fc48bb5fd624709013a24b9d45233",
  "number": 56904,
  "timestamp": 1439094298,
  "nonce": "0x268583d868f82e54",
  "difficulty": 1710219491339,
  "gasLimit": {
    "_hex": "0x2fefd8"
  },
  "gasUsed": {
    "_hex": "0x5208"
  },
  "miner": "0x9746c7e1ef2bd21FF3997fa467593a89cb852BD0",
  "extraData": "0x476574682f76312e302e312f77696e646f77732f676f312e342e32",
  "transactions": [
    {
      "hash": "0x6c69943247587cce9bd87afad910553f541f22efebde617c2420482f74f4bb97",
      "blockHash": "0x5ff4c84f915148d8c497de9027a4a9e54aa3e150aed41ce233ecfd21f5c2d390",
      "blockNumber": 56904,
      "transactionIndex": 0,
      "confirmations": null,
      "from": "0x1308A2e95c0160B90803ddCA9B9a5bb55E416d79",
      "gasPrice": {
        "_hex": "0xe8d4a51000"
      },
      "gasLimit": {
        "_hex": "0x15f90"
      },
      "to": "0x7266c8FD66eD582bEA23bd8BC48E58D7f17321F3",
      "value": {
        "_hex": "0x13f306a2409fc0000"
      },
      "nonce": 76,
      "data": "0x",
      "r": "0x66a83f61468e8beecc8c00d24319af78cd27d90e8315e57a38b135ffbcd4407b",
      "s": "0x78c2436fe238e3155acd54def843fbc8da188b33036261a64bb04ff43f9de880",
      "v": 27,
      "creates": null,
      "raw": "0xf86e4c85e8d4a5100083015f90947266c8fd66ed582bea23bd8bc48e58d7f17321f389013f306a2409fc0000801ba066a83f61468e8beecc8c00d24319af78cd27d90e8315e57a38b135ffbcd4407ba078c2436fe238e3155acd54def843fbc8da188b33036261a64bb04ff43f9de880",
      "networkId": 0,
      "chainId": 0
    }
  ]
}