{
  "hash": "0x20c0ae039a2165d38c0e6dca8f64f25c1d85081e4a56f8d24a282c8bb9c43f4f",
  "parentHash": "0x5ffb979fb3e19b6c224310ce43b02585068732f8987ead7be7b3b790849e9c23",
  "number": 103268,
  "timestamp": 1439850434,
  "nonce": "0x07edcc9320047c00",
  "difficulty": 4193092468348,
  "gasLimit": {
    "_hex": "0x2fefd8"
  },
  "gasUsed": {
    "_hex": "0x5208"
  },
  "miner": "0xe6A7a1d47ff21B6321162AEA7C6CB457D5476Bca",
  "extraData": "0x476574682f76312e302e312d38326566323666362f6c696e75782f676f312e34",
  "transactions": [
    {
      "hash": "0x984632b20ca5feac87f980913b51bc68b963f5197fdcd665c6fa0d8bd83b8c83",
      "blockHash": "0x20c0ae039a2165d38c0e6dca8f64f25c1d85081e4a56f8d24a282c8bb9c43f4f",
      "blockNumber": 103268,
      "transactionIndex": 0,
      "confirmations": null,
      "from": "0x569dD5Eb83f3CEc4AD32BbCF28b0d07A98704105",
      "gasPrice": {
        "_hex": "0xd419309f9"
      },
      "gasLimit": {
        "_hex": "0x5208"
      },
      "to": "0x32Be343B94f860124dC4fEe278FDCBD38C102D88",
      "value": {
        "_hex": "0x10e999fb2579a5000"
      },
      "nonce": 0,
      "data": "0x",
      "r": "0xe555a582fed28180f4a3c157db360b755a8339eaa23333a309baa2d9f7bf994e",
      "s": "0x7002e44b1826937d07035c0724cc307662f45f6a1388630aef2531c178e33307",
      "v": 27,
      "creates": null,
      "raw": "0xf86d80850d419309f98252089432be343b94f860124dc4fee278fdcbd38c102d8889010e999fb2579a5000801ba0e555a582fed28180f4a3c157db360b755a8339eaa23333a309baa2d9f7bf994ea07002e44b1826937d07035c0724cc307662f45f6a1388630aef2531c178e33307",
      "networkId": 0,
      "chainId": 0
    }
  ]
}