{
  "hash": "0x8768c21ecb1e1efc6054d99e7ee7a8282688bf961c6ba46be8b037fafadf242a",
  "parentHash": "0x1c9ede81112a3d628de7cd3f07f0dddb984241c2b3430ec28d424f2a5a2f98f3",
  "number": 74123,
  "timestamp": 1439380788,
  "nonce": "0x341f41a6e1e18d1b",
  "difficulty": 2233594217674,
  "gasLimit": {
    "_hex": "0x2fefd8"
  },
  "gasUsed": {
    "_hex": "0xa410"
  },
  "miner": "0xe6A7a1d47ff21B6321162AEA7C6CB457D5476Bca",
  "extraData": "0x476574682f76312e302e312d38326566323666362f6c696e75782f676f312e34",
  "transactions": [
    {
      "hash": "0x0e6d96b099fbadf4d09b866337c0f60fc7996dc6732bb038c427764699c2b391",
      "blockHash": "0x8768c21ecb1e1efc6054d99e7ee7a8282688bf961c6ba46be8b037fafadf242a",
      "blockNumber": 74123,
      "transactionIndex": 0,
      "confirmations": null,
      "from": "0x42E6723A0c884E922240e56D7B618BeC96F35800",
      "gasPrice": {
        "_hex": "0x9184e72a000"
      },
      "gasLimit": {
        "_hex": "0x5208"
      },
      "to": "0xde0B295669a9FD93d5F28D9Ec85E40f4cb697BAe",
      "value": {
        "_hex": "0x1"
      },
      "nonce": 5,
      "data": "0x",
      "r": "0xe4bd6517143f8bee4fa057070f4c0abe9e969c103dfebb881bd4aad39a9d4a1d",
      "s": "0x1e3de2426892ddff1ba89f3f428835f7c1d07bf5f8113fef139874d57c8adbc0",
      "v": 28,
      "creates": null,
      "raw": "0xf865058609184e72a00082520894de0b295669a9fd93d5f28d9ec85e40f4cb697bae01801ca0e4bd6517143f8bee4fa057070f4c0abe9e969c103dfebb881bd4aad39a9d4a1da01e3de2426892ddff1ba89f3f428835f7c1d07bf5f8113fef139874d57c8adbc0",
      "networkId": 0,
      "chainId": 0
    },
    {
      "hash": "0xc8a884a171ae661753ab9f50d89c9952f56215ee76cb68a1c0a567a1f31153f9",
      "blockHash": "0x8768c21ecb1e1efc6054d99e7ee7a8282688bf961c6ba46be8b037fafadf242a",
      "blockNumber": 74123,
      "transactionIndex": 1,
      "confirmations": null,
      "from": "0xE4Dd37247830493DE1Df7c758DD746DCdE19419e",
      "gasPrice": {
        "_hex": "0xd010a11f3"
      },
      "gasLimit": {
        "_hex": "0x7530"
      },
      "to": "0x6De181Fc4C140FA31F196e5393516c49EEeBdAd3",
      "value": {
        "_hex": "0x34e8b88cee2d40000"
      },
      "nonce": 4,
      "data": "0x",
      "r": "0x2738f693c9003664ca6603ea55dce402b36b231c1450c646ac057dfb22355ccf",
      "s": "0x51c210ff145e4fbbb32c4789f844b159e4ec5f6b371c3689dc9499d29bbe3828",
      "v": 28,
      "creates": null,
      "raw": "0xf86d04850d010a11f3827530946de181fc4c140fa31f196e5393516c49eeebdad389034e8b88cee2d40000801ca02738f693c9003664ca6603ea55dce402b36b231c1450c646ac057dfb22355ccfa051c210ff145e4fbbb32c4789f844b159e4ec5f6b371c3689dc9499d29bbe3828",
      "networkId": 0,
      "chainId": 0
    }
  ]
}