{
  "hash": "0xd0c78ff98fbe5c69f5aaa734f65ddd753ac67e7802c51920aaf103b0a0187658",
  "parentHash": "0x6f86ce5095de565e802d986188c3a04eff3d4a3a4a3b1f6f23e14cd89f67a96b",
  "number": 49315,
  "timestamp": 1438971669,
  "nonce": "0x6ed62afdadb7472c",
  "difficulty": 1476356412271,
  "gasLimit": {
    "_hex": "0x2c987"
  },
  "gasUsed": {
    "_hex": "0x546c"
  },
  "miner": "0xC6Bf5B6558f2eE21F2E43d9fF9B5408A0Cb89413",
  "extraData": "0x476574682f76312e302e312f6c696e75782f676f312e342e32",
  "transactions": [
    {
      "hash": "0xd859c7d8141f8ade1c9ded132efe89481408a7dcc844679e60f141497a949ff8",
      "blockHash": "0xd0c78ff98fbe5c69f5aaa734f65ddd753ac67e7802c51920aaf103b0a0187658",
      "blockNumber": 49315,
      "transactionIndex": 0,
      "confirmations": null,
      "from": "0x9e960dcd03d5BA99Cb115d17Ff4C09248AD4D0be",
      "gasPrice": {
        "_hex": "0x110c8f7d8de"
      },
      "gasLimit": {
        "_hex": "0xc350"
      },
      "to": "0x2910543Af39abA0Cd09dBb2D50200b3E800A63D2",
      "value": {
        "_hex": "0xac9ae05a71ebc0000"
      },
      "nonce": 0,
      "data": "0x454e38545230593138",
      "r": "0x3cd6b8bc10df87da559247238925dc8285f02737f5377d14e5388e2191d970a0",
      "s": "0xda8012e3be0d1ae638d670cbe9d5f4305f349dd8df1a9c5f46c19a8f11edb7d0",
      "v": 27,
      "creates": null,
      "raw": "0xf87780860110c8f7d8de82c350942910543af39aba0cd09dbb2d50200b3e800a63d2890ac9ae05a71ebc000089454e385452305931381ba03cd6b8bc10df87da559247238925dc8285f02737f5377d14e5388e2191d970a0a0da8012e3be0d1ae638d670cbe9d5f4305f349dd8df1a9c5f46c19a8f11edb7d0",
      "networkId": 0,
      "chainId": 0
    }
  ]
}