{
  "hash": "0x419cab0648ca2682df0ecb10f4f719a83cc97fe02b56ea6ab7eaa6c399791513",
  "parentHash": "0x50aff949209252b3c853cb5befb5d5d1f0e1ed04961ca53e7b575e2c36a35384",
  "number": 60013,
  "timestamp": 1439147525,
  "nonce": "0x67105f83b33d3369",
  "difficulty": 1728893429452,
  "gasLimit": {
    "_hex": "0x2fefd8"
  },
  "gasUsed": {
    "_hex": "0xa410"
  },
  "miner": "0xf927a40C8B7F6E07c5af7FA2155B4864a4112B13",
  "extraData": "0x476574682f76312e302e312f6c696e75782f676f312e342e32",
  "transactions": [
    {
      "hash": "0x5ee005f6fcd23fa44f2926f97af2d32afdc406d578217619d28b4469a1974e54",
      "blockHash": "0x419cab0648ca2682df0ecb10f4f719a83cc97fe02b56ea6ab7eaa6c399791513",
      "blockNumber": 60013,
      "transactionIndex": 0,
      "confirmations": null,
      "from": "0xA5fb3E4399E8F18643f969D0Ce65CC352fc252C6",
      "gasPrice": {
        "_hex": "0xd7535a847"
      },
      "gasLimit": {
        "_hex": "0x5208"
      },
      "to": "0x32Be343B94f860124dC4fEe278FDCBD38C102D88",
      "value": {
        "_hex": "0xc16bad68852300000"
      },
      "nonce": 3,
      "data": "0x",
      "r": "0x4b11c79ecae72dbd3d4e24153ef6e772334d25250f2c8981efccac23125237b5",
      "s": "0x24dac0fa67072421deefe627cb536fb0a5f5c5fe03e447b73811ac486d48a448",
      "v": 27,
      "creates": null,
      "raw": "0xf86d03850d7535a8478252089432be343b94f860124dc4fee278fdcbd38c102d88890c16bad68852300000801ba04b11c79ecae72dbd3d4e24153ef6e772334d25250f2c8981efccac23125237b5a024dac0fa67072421deefe627cb536fb0a5f5c5fe03e447b73811ac486d48a448",
      "networkId": 0,
      "chainId": 0
    },
    {
      "hash": "0x7fc0694328accc4191745ed681fcd222a90be30591d6a58ffa1c04a7aea205d2",
      "blockHash": "0x419cab0648ca2682df0ecb10f4f719a83cc97fe02b56ea6ab7eaa6c399791513",
      "blockNumber": 60013,
      "transactionIndex": 1,
      "confirmations": null,
      "from": "0xF5EeDc192aB70b08D8354384aD94efD095849E00",
      "gasPrice": {
        "_hex": "0xd7535a847"
      },
      "gasLimit": {
        "_hex": "0x5208"
      },
      "to": "0x32Be343B94f860124dC4fEe278FDCBD38C102D88",
      "value": {
        "_hex": "0x55001a0cf965c4000"
      },
      "nonce": 16,
      "data": "0x",
      "r": "0x349f77450b1afb48d110b89be7dd5132f36c20e035753de0ec39313f4b3b05b3",
      "s": "0x76d36b742e807c6fef0c2fd2c29862e8427953481f69587244fe1e2aeb400f98",
      "v": 28,
      "creates": null,
      "raw": "0xf86d10850d7535a8478252089432be343b94f860124dc4fee278fdcbd38c102d8889055001a0cf965c4000801ca0349f77450b1afb48d110b89be7dd5132f36c20e035753de0ec39313f4b3b05b3a076d36b742e807c6fef0c2fd2c29862e8427953481f69587244fe1e2aeb400f98",
      "networkId": 0,
      "chainId": 0
    }
  ]
}