{
  "hash": "0x2476a08b435adeb3417c5c9cb86801661d6e3ecca8de20c58d02a3400ef8b9c4",
  "parentHash": "0x3af92edb8f2fd65d36397bede3da68021e4f28cd1f4625a39a416dead50d1c01",
  "number": 112307,
  "timestamp": 1440005421,
  "nonce": "0xfa40b5e498e909e3",
  "difficulty": 4396025493017,
  "gasLimit": {
    "_hex": "0x2fefd8"
  },
  "gasUsed": {
    "_hex": "0xa410"
  },
  "miner": "0xf927a40C8B7F6E07c5af7FA2155B4864a4112B13",
  "extraData": "0x",
  "transactions": [
    {
      "hash": "0xdf7342cee1d673602edc62f2c4534b0fac3cfc048db24a1fa30aea574ce1db7f",
      "blockHash": "0x2476a08b435adeb3417c5c9cb86801661d6e3ecca8de20c58d02a3400ef8b9c4",
      "blockNumber": 112307,
      "transactionIndex": 0,
      "confirmations": null,
      "from": "0x2910543Af39abA0Cd09dBb2D50200b3E800A63D2",
      "gasPrice": {
        "_hex": "0xd9187d774"
      },
      "gasLimit": {
        "_hex": "0x5208"
      },
      "to": "0x56304DCf701924D7c79307dEb10d0956bC70C307",
      "value": {
        "_hex": "0x1157c828fdbef8000"
      },
      "nonce": 1101,
      "data": "0x",
      "r": "0x841601614834d3b0c209ae8d5a4ce5337161371f96daaddd0c167a72fdc1d861",
      "s": "0x5e6dab8eaf6ef29af9380f3c728b3a30b5441383f5eea0d96feb831fd82122f9",
      "v": 27,
      "creates": null,
      "raw": "0xf86f82044d850d9187d7748252089456304dcf701924d7c79307deb10d0956bc70c3078901157c828fdbef8000801ba0841601614834d3b0c209ae8d5a4ce5337161371f96daaddd0c167a72fdc1d861a05e6dab8eaf6ef29af9380f3c728b3a30b5441383f5eea0d96feb831fd82122f9",
      "networkId": 0,
      "chainId": 0
    },
    {
      "hash": "0xf40a1b74d7eb6ac78660dfb37ed26318d8e9096acf078c5b1dea8f5526e87770",
      "blockHash": "0x2476a08b435adeb3417c5c9cb86801661d6e3ecca8de20c58d02a3400ef8b9c4",
      "blockNumber": 112307,
      "transactionIndex": 1,
      "confirmations": null,
      "from": "0x84b91e2E2902d05E2B591B41083Bd7BEB2d52c74",
      "gasPrice": {
        "_hex": "0xd863735db"
      },
      "gasLimit": {
        "_hex": "0x15f90"
      },
      "to": "0xb9D508dA22E0939176D5B8E16B7A3De46Bd37e78",
      "value": {
        "_hex": "0x1a055690d9db80000"
      },
      "nonce": 1,
      "data": "0x",
      "r": "0xfc573ebaf51bee4ff1dc91ad26b90db3cc6d3e54e076282fda4a44dfa6562b54",
      "s": "0x69c26839486d90f23bccbca21b7033fadb015c58c2d5f3c0cc493b90939122f1",
      "v": 28,
      "creates": null,
      "raw": "0xf86e01850d863735db83015f9094b9d508da22e0939176d5b8e16b7a3de46bd37e788901a055690d9db80000801ca0fc573ebaf51bee4ff1dc91ad26b90db3cc6d3e54e076282fda4a44dfa6562b54a069c26839486d90f23bccbca21b7033fadb015c58c2d5f3c0cc493b90939122f1",
      "networkId": 0,
      "chainId": 0
    }
  ]
}