{
  "hash": "0xf58abce9a0d40c05c245d8cb1931c4c35e63e5fafda44ce173afe99184c1533b",
  "parentHash": "0x7abedfe196f4ea9be22fc0c1352acc25870ad0c9f9d859a27a52c18bcdfa8862",
  "number": 84293,
  "timestamp": 1439547677,
  "nonce": "0xede63f7d99382a9b",
  "difficulty": 2530397129502,
  "gasLimit": {
    "_hex": "0x2fefd8"
  },
  "gasUsed": {
    "_hex": "0x6baa8"
  },
  "miner": "0xe6A7a1d47ff21B6321162AEA7C6CB457D5476Bca",
  "extraData": "0x476574682f76312e302e312d38326566323666362f6c696e75782f676f312e34",
  "transactions": [
    {
      "hash": "0x070ec22816ee3b5153afb5d218e7e97e409bd963b20a612852f14cfefe874bbb",
      "blockHash": "0xf58abce9a0d40c05c245d8cb1931c4c35e63e5fafda44ce173afe99184c1533b",
      "blockNumber": 84293,
      "transactionIndex": 0,
      "confirmations": null,
      "from": "0x120A270bbC009644e35F0bB6ab13f95b8199c4ad",
      "gasPrice": {
        "_hex": "0xd0fd19bf7"
      },
      "gasLimit": {
        "_hex": "0x3d090"
      },
      "to": "0x2af3e5E72FEDcFf96ce4b4cd0e305ce8Ff4E81F1",
      "value": {
        "_hex": "0x1739f0a3481c4e400"
      },
      "nonce": 426,
      "data": "0x",
      "r": "0xca32e71bd43cb39ff28c0e5859339c4814352c36222686fab2f21db9802613d9",
      "s": "0x4df48ee72df77df28c9a3a370d9c9b040b3428eed2c9a02908f6bd8115618b3d",
      "v": 27,
      "creates": null,
      "raw": "0xf8708201aa850d0fd19bf78303d090942af3e5e72fedcff96ce4b4cd0e305ce8ff4e81f18901739f0a3481c4e400801ba0ca32e71bd43cb39ff28c0e5859339c4814352c36222686fab2f21db9802613d9a04df48ee72df77df28c9a3a370d9c9b040b3428eed2c9a02908f6bd8115618b3d",
      "networkId": 0,
      "chainId": 0
    },
    {
      "hash": "0x38f70c9bbed818af3595c60eae4dc97442b1e6e1319c168a8e852c733f878da3",
      "blockHash": "0xf58abce9a0d40c05c245d8cb1931c4c35e63e5fafda44ce173afe99184c1533b",
      "blockNumber": 84293,
      "transactionIndex": 1,
      "confirmations": null,
      "from": "0xe6A7a1d47ff21B6321162AEA7C6CB457D5476Bca",
      "gasPrice": {
        "_hex": "0xd083fbfc9"
      },
      "gasLimit": {
        "_hex": "0x55f0"
      },
      "to": "0xBA7933704d52A3e7fdBb5B5deD29e45213EA1111",
      "value": {
        "_hex": "0x22b4164f5188ac5b0"
      },
      "nonce": 1875,
      "data": "0x",
      "r": "0x3918783f7a4170ba2f797e526540e6b3a62ad3f2adcc61b062a26b27e1ae2058",
      "s": "0x5077e554f270532e01eb2271d3e7db8781ee5db949b1d33a38225cc6bc08d247",
      "v": 28,
      "creates": null,
      "raw": "0xf86f820753850d083fbfc98255f094ba7933704d52a3e7fdbb5b5ded29e45213ea111189022b4164f5188ac5b0801ca03918783f7a4170ba2f797e526540e6b3a62ad3f2adcc61b062a26b27e1ae2058a05077e554f270532e01eb2271d3e7db8781ee5db949b1d33a38225cc6bc08d247",
      "networkId": 0,
      "chainId": 0
    },
    {
      "hash": "0xbe3c698d28a90b2dfb0cf5318f1d03f42c86a415101ec543a93b5476dbaf8e40",
      "blockHash": "0xf58abce9a0d40c05c245d8cb1931c4c35e63e5fafda44ce173afe99184c1533b",
      "blockNumber": 84293,
      "transactionIndex": 2,
      "confirmations": null,
      "from": "0xe6A7a1d47ff21B6321162AEA7C6CB457D5476Bca",
      "gasPrice": {
        "_hex": "0xd083fbfc9"
      },
      "gasLimit": {
        "_hex": "0x55f0"
      },
      "to": "0xa61ff394e3846F8bfbBF8801afb051730B04Ee75",
      "value": {
        "_hex": "0x23085be2e6a6ef0f0"
      },
      "nonce": 1876,
      "data": "0x",
      "r": "0x444071fa8ac4966ccec23a5cbd076e1915cf36ecfe1c3505c8870b055e4d8de8",
      "s": "0x1f970ec1ad8e5adac122cf80d1a55dc8fd1376accda909254627ff7ae5e35c10",
      "v": 27,
      "creates": null,
      "raw": "0xf86f820754850d083fbfc98255f094a61ff394e3846f8bfbbf8801afb051730b04ee7589023085be2e6a6ef0f0801ba0444071fa8ac4966ccec23a5cbd076e1915cf36ecfe1c3505c8870b055e4d8de8a01f970ec1ad8e5adac122cf80d1a55dc8fd1376accda909254627ff7ae5e35c10",
      "networkId": 0,
      "chainId": 0
    },
    {
      "hash": "0x67a5ecf1a7949aa5584165e6fd4ddb1d29cf396bfb80a897e53049761c885ab3",
      "blockHash": "0xf58abce9a0d40c05c245d8cb1931c4c35e63e5fafda44ce173afe99184c1533b",
      "blockNumber": 84293,
      "transactionIndex": 3,
      "confirmations": null,
      "from": "0xe6A7a1d47ff21B6321162AEA7C6CB457D5476Bca",
      "gasPrice": {
        "_hex": "0xd083fbfc9"
      },
      "gasLimit": {
        "_hex": "0x55f0"
      },
      "to": "0x93b3437645A67059E280a3317a93c57e2f4788EA",
      "value": {
        "_hex": "0x2439293ae18f2f940"
      },
      "nonce": 1877,
      "data": "0x",
      "r": "0x124ce144bd8e5c256b7339010f9e7af727d5f9908c152d39d3e4bff0762c06c0",
      "s": "0x695f6dd59f58e4bc82bfcc596fd5ea0cd5c1cd1c860fe9f5b51f37d9842a9b08",
      "v": 28,
      "creates": null,
      "raw": "0xf86f820755850d083fbfc98255f09493b3437645a67059e280a3317a93c57e2f4788ea8902439293ae18f2f940801ca0124ce144bd8e5c256b7339010f9e7af727d5f9908c152d39d3e4bff0762c06c0a0695f6dd59f58e4bc82bfcc596fd5ea0cd5c1cd1c860fe9f5b51f37d9842a9b08",
      "networkId": 0,
      "chainId": 0
    },
    {
      "hash": "0xfeb74bf181cd6f8de9c0faab4b4c508730565eb9436f0f8d5fcb16dd525e0ae9",
      "blockHash": "0xf58abce9a0d40c05c245d8cb1931c4c35e63e5fafda44ce173afe99184c1533b",
      "blockNumber": 84293,
      "transactionIndex": 4,
      "confirmations": null,
      "from": "0xe6A7a1d47ff21B6321162AEA7C6CB457D5476Bca",
      "gasPrice": {
        "_hex": "0xd083fbfc9"
      },
      "gasLimit": {
        "_hex": "0x55f0"
      },
      "to": "0x2b176421eEBBf303fa94aD4fE78362Fa9e4Ca693",
      "value": {
        "_hex": "0x246b84e92a2d1e1b8"
      },
      "nonce": 1878,
      "data": "0x",
      "r": "0x49a7801ca2f65cadd9fdf98241460ff40db9547d15ccdbd17d4465a782981ea2",
      "s": "0x601b1f88ad07f532761b57f3d43d88f726ea99dacde505b51db62c64badeeff4",
      "v": 28,
      "creates": null,
      "raw": "0xf86f820756850d083fbfc98255f0942b176421eebbf303fa94ad4fe78362fa9e4ca693890246b84e92a2d1e1b8801ca049a7801ca2f65cadd9fdf98241460ff40db9547d15ccdbd17d4465a782981ea2a0601b1f88ad07f532761b57f3d43d88f726ea99dacde505b51db62c64badeeff4",
      "networkId": 0,
      "chainId": 0
    },
    {
      "hash": "0x4a420c8b472bb962b213e6f07e702616de8b79e6d5380626bbe720611b375376",
      "blockHash": "0xf58abce9a0d40c05c245d8cb1931c4c35e63e5fafda44ce173afe99184c1533b",
      "blockNumber": 84293,
      "transactionIndex": 5,
      "confirmations": null,
      "from": "0xe6A7a1d47ff21B6321162AEA7C6CB457D5476Bca",
      "gasPrice": {
        "_hex": "0xd083fbfc9"
      },
      "gasLimit": {
        "_hex": "0x55f0"
      },
      "to": "0xc0920452d99591a4e8b190632c52754c72F73328",
      "value": {
        "_hex": "0x2494de1e6335adea0"
      },
      "nonce": 1879,
      "data": "0x",
      "r": "0xa12685729016457f3b641a58359e7f10f7f2a9d7c2d30cc32940c5e37626d04b",
      "s": "0x7232f81c3f27cf12fda813d54c143aeab6c569a8802ae2fd4abc41ace5a86e6f",
      "v": 28,
      "creates": null,
      "raw": "0xf86f820757850d083fbfc98255f094c0920452d99591a4e8b190632c52754c72f733288902494de1e6335adea0801ca0a12685729016457f3b641a58359e7f10f7f2a9d7c2d30cc32940c5e37626d04ba07232f81c3f27cf12fda813d54c143aeab6c569a8802ae2fd4abc41ace5a86e6f",
      "networkId": 0,
      "chainId": 0
    },
    {
      "hash": "0x4e486f3c184569cad1b0a84edc92af1a7a3ebe20d0ad0124af8dda657e32867f",
      "blockHash": "0xf58abce9a0d40c05c245d8cb1931c4c35e63e5fafda44ce173afe99184c1533b",
      "blockNumber": 84293,
      "transactionIndex": 6,
      "confirmations": null,
      "from": "0xe6A7a1d47ff21B6321162AEA7C6CB457D5476Bca",
      "gasPrice": {
        "_hex": "0xd083fbfc9"
      },
      "gasLimit": {
        "_hex": "0x55f0"
      },
      "to": "0x182c02d431a667bF08d1BB680306aB6feC4971e5",
      "value": {
        "_hex": "0x24b0780ff56f42650"
      },
      "nonce": 1880,
      "data": "0x",
      "r": "0xe61ee1e5031ffe054c2dc769f414a3afae87fc0366bd09994188d3fa9edb2447",
      "s": "0x57bbf332419aec9c38ee0a79f0501048d779fc561178d4e19ee56e7362b5a66b",
      "v": 28,
      "creates": null,
      "raw": "0xf86f820758850d083fbfc98255f094182c02d431a667bf08d1bb680306ab6fec4971e589024b0780ff56f42650801ca0e61ee1e5031ffe054c2dc769f414a3afae87fc0366bd09994188d3fa9edb2447a057bbf332419aec9c38ee0a79f0501048d779fc561178d4e19ee56e7362b5a66b",
      "networkId": 0,
      "chainId": 0
    },
    {
      "hash": "0xbf81e81f4ec13bf0d989320381e7e886599b1fbff5ddbcaf17d9e7ca2da36a35",
      "blockHash": "0xf58abce9a0d40c05c245d8cb1931c4c35e63e5fafda44ce173afe99184c1533b",
      "blockNumber": 84293,
      "transactionIndex": 7,
      "confirmations": null,
      "from": "0xe6A7a1d47ff21B6321162AEA7C6CB457D5476Bca",
      "gasPrice": {
        "_hex": "0xd083fbfc9"
      },
      "gasLimit": {
        "_hex": "0x55f0"
      },
      "to": "0x52191276589069F70F0E46bcCc718d793d1Aa1D0",
      "value": {
        "_hex": "0x26f592cff0b36dce0"
      },
      "nonce": 1881,
      "data": "0x",
      "r": "0x5f92f12b1caf825cc30ccb850121fc36fd90759895a28f21e9dec5fde7c86ce8",
      "s": "0x617a61cadb411ee135b305e7632054ced4531f81724dc62bf512e96bf641a8c9",
      "v": 27,
      "creates": null,
      "raw": "0xf86f820759850d083fbfc98255f09452191276589069f70f0e46bccc718d793d1aa1d089026f592cff0b36dce0801ba05f92f12b1caf825cc30ccb850121fc36fd90759895a28f21e9dec5fde7c86ce8a0617a61cadb411ee135b305e7632054ced4531f81724dc62bf512e96bf641a8c9",
      "networkId": 0,
      "chainId": 0
    },
    {
      "hash": "0xabfc16077c5714db0c93f434ad39f91eb37ad31f66dd52450251f0d9a1692a45",
      "blockHash": "0xf58abce9a0d40c05c245d8cb1931c4c35e63e5fafda44ce173afe99184c1533b",
      "blockNumber": 84293,
      "transactionIndex": 8,
      "confirmations": null,
      "from": "0xe6A7a1d47ff21B6321162AEA7C6CB457D5476Bca",
      "gasPrice": {
        "_hex": "0xd083fbfc9"
      },
      "gasLimit": {
        "_hex": "0x55f0"
      },
      "to": "0x6964b95BF8BA16b837e2f3Ae8dA7D299553eC1f7",
      "value": {
        "_hex": "0x27d36a9ed19b3fcc0"
      },
      "nonce": 1882,
      "data": "0x",
      "r": "0x148682a1858ef3bdd7aecee0a1c5bf7240e05f763971153f8c4eea5ad40d918f",
      "s": "0x31c6209d2b9c7672b86dea456c5e83b4bdfb9d056634fe4d6c5c572052c45f36",
      "v": 28,
      "creates": null,
      "raw": "0xf86f82075a850d083fbfc98255f0946964b95bf8ba16b837e2f3ae8da7d299553ec1f789027d36a9ed19b3fcc0801ca0148682a1858ef3bdd7aecee0a1c5bf7240e05f763971153f8c4eea5ad40d918fa031c6209d2b9c7672b86dea456c5e83b4bdfb9d056634fe4d6c5c572052c45f36",
      "networkId": 0,
      "chainId": 0
    },
    {
      "hash": "0xe230c784e8511b2fc485de74310fc4d77c9c00bc6026bb3821ec0e927b5088cc",
      "blockHash": "0xf58abce9a0d40c05c245d8cb1931c4c35e63e5fafda44ce173afe99184c1533b",
      "blockNumber": 84293,
      "transactionIndex": 9,
      "confirmations": null,
      "from": "0xe6A7a1d47ff21B6321162AEA7C6CB457D5476Bca",
      "gasPrice": {
        "_hex": "0xd083fbfc9"
      },
      "gasLimit": {
        "_hex": "0x55f0"
      },
      "to": "0x608f4b86321a68453f9adf6F06F7Fc3E621739ad",
      "value": {
        "_hex": "0x2839a8b7d8532b690"
      },
      "nonce": 1883,
      "data": "0x",
      "r": "0x4aff1fc34d2adb601f748948db1c0c9b4de72313fbacfeb23f0ba420fdb52356",
      "s": "0x75c64f2e0fcd838086c409243a5844398e36ae5fcdb09406ae5903676beefa25",
      "v": 28,
      "creates": null,
      "raw": "0xf86f82075b850d083fbfc98255f094608f4b86321a68453f9adf6f06f7fc3e621739ad8902839a8b7d8532b690801ca04aff1fc34d2adb601f748948db1c0c9b4de72313fbacfeb23f0ba420fdb52356a075c64f2e0fcd838086c409243a5844398e36ae5fcdb09406ae5903676beefa25",
      "networkId": 0,
      "chainId": 0
    },
    {
      "hash": "0xf4ae31fbb5f906c9dca1892e58e001afe08ff70578bdf4089809b262838e89db",
      "blockHash": "0xf58abce9a0d40c05c245d8cb1931c4c35e63e5fafda44ce173afe99184c1533b",
      "blockNumber": 84293,
      "transactionIndex": 10,
      "confirmations": null,
      "from": "0xe6A7a1d47ff21B6321162AEA7C6CB457D5476Bca",
      "gasPrice": {
        "_hex": "0xce81ef60f"
      },
      "gasLimit": {
        "_hex": "0x55f0"
      },
      "to": "0x4E66F49aAbe24B61cC417cf717BCd89862C69372",
      "value": {
        "_hex": "0x2dced08d3a035d9c0"
      },
      "nonce": 1884,
      "data": "0x",
      "r": "0xaab147dc75841421506638d93d0b96c3525af3a322fc8a5ecea1acb7891a447f",
      "s": "0x7da5706e4a11fc427d2fa0be9dead966fb21c25e3a0d4495adfd8ea59eafb95e",
      "v": 27,
      "creates": null,
      "raw": "0xf86f82075c850ce81ef60f8255f0944e66f49aabe24b61cc417cf717bcd89862c693728902dced08d3a035d9c0801ba0aab147dc75841421506638d93d0b96c3525af3a322fc8a5ecea1acb7891a447fa07da5706e4a11fc427d2fa0be9dead966fb21c25e3a0d4495adfd8ea59eafb95e",
      "networkId": 0,
      "chainId": 0
    },
    {
      "hash": "0xfea82b0805d4b4d0ed92449ca721f664ae872ecd97fae514b52ac77c93a5bf22",
      "blockHash": "0xf58abce9a0d40c05c245d8cb1931c4c35e63e5fafda44ce173afe99184c1533b",
      "blockNumber": 84293,
      "transactionIndex": 11,
      "confirmations": null,
      "from": "0xe6A7a1d47ff21B6321162AEA7C6CB457D5476Bca",
      "gasPrice": {
        "_hex": "0xce81ef60f"
      },
      "gasLimit": {
        "_hex": "0x55f0"
      },
      "to": "0x4A29dF8a7967b36664f256F18dAcf2e58E9f1E7E",
      "value": {
        "_hex": "0x2e940203a0c8885a0"
      },
      "nonce": 1885,
      "data": "0x",
      "r": "0xf9a4c7bb0025b1303e3605bda7e5018a4700afa80a3f7316cbe72b50ba81e9a7",
      "s": "0x02684a3167f282788eae8488dea3b0a2c851dcde201e2968e43e30eb78be1ff4",
      "v": 27,
      "creates": null,
      "raw": "0xf86f82075d850ce81ef60f8255f0944a29df8a7967b36664f256f18dacf2e58e9f1e7e8902e940203a0c8885a0801ba0f9a4c7bb0025b1303e3605bda7e5018a4700afa80a3f7316cbe72b50ba81e9a7a002684a3167f282788eae8488dea3b0a2c851dcde201e2968e43e30eb78be1ff4",
      "networkId": 0,
      "chainId": 0
    },
    {
      "hash": "0xd58050a88bc634b9509ac63a20c9390498e93383ae52fd2ec15f0021add0ec10",
      "blockHash": "0xf58abce9a0d40c05c245d8cb1931c4c35e63e5fafda44ce173afe99184c1533b",
      "blockNumber": 84293,
      "transactionIndex": 12,
      "confirmations": null,
      "from": "0xe6A7a1d47ff21B6321162AEA7C6CB457D5476Bca",
      "gasPrice": {
        "_hex": "0xce81ef60f"
      },
      "gasLimit": {
        "_hex": "0x55f0"
      },
      "to": "0xc3DBDB3Efa722db2a3F6041b0ca0042782296ba9",
      "value": {
        "_hex": "0x301fb81225ff4b020"
      },
      "nonce": 1886,
      "data": "0x",
      "r": "0x5ef20f0e4d8a5dc141bb845ddbcb6cedb91879d1346aa3a77106c55cee750f0d",
      "s": "0x363785c5b3b652df6db1f2d3017384f2fa12280d28a7a65e024adf00a2a2fc1d",
      "v": 28,
      "creates": null,
      "raw": "0xf86f82075e850ce81ef60f8255f094c3dbdb3efa722db2a3f6041b0ca0042782296ba9890301fb81225ff4b020801ca05ef20f0e4d8a5dc141bb845ddbcb6cedb91879d1346aa3a77106c55cee750f0da0363785c5b3b652df6db1f2d3017384f2fa12280d28a7a65e024adf00a2a2fc1d",
      "networkId": 0,
      "chainId": 0
    },
    {
      "hash": "0x07a2af2bc41d68874e4db42dcf05bdd81bff139a178df430e3d0109cdc1756b0",
      "blockHash": "0xf58abce9a0d40c05c245d8cb1931c4c35e63e5fafda44ce173afe99184c1533b",
      "blockNumber": 84293,
      "transactionIndex": 13,
      "confirmations": null,
      "from": "0xe6A7a1d47ff21B6321162AEA7C6CB457D5476Bca",
      "gasPrice": {
        "_hex": "0xce81ef60f"
      },
      "gasLimit": {
        "_hex": "0x55f0"
      },
      "to": "0x3222BA3F3e79eA0e31467EEE7639B57923558cCD",
      "value": {
        "_hex": "0x3082c7d09ff71c150"
      },
      "nonce": 1887,
      "data": "0x",
      "r": "0x49178efe916ffe8b0599dfc6d616973e87f3096d66afbb1de3507a3a8b201828",
      "s": "0x292349385ec05d633fd92d76fa3086c855079381c852e17198a89f75ffca62d7",
      "v": 27,
      "creates": null,
      "raw": "0xf86f82075f850ce81ef60f8255f0943222ba3f3e79ea0e31467eee7639b57923558ccd8903082c7d09ff71c150801ba049178efe916ffe8b0599dfc6d616973e87f3096d66afbb1de3507a3a8b201828a0292349385ec05d633fd92d76fa3086c855079381c852e17198a89f75ffca62d7",
      "networkId": 0,
      "chainId": 0
    },
    {
      "hash": "0xb41b8ab626d3a2c1d97c425578ad4187207c995b3b596ef09ff713e1e2588a9d",
      "blockHash": "0xf58abce9a0d40c05c245d8cb1931c4c35e63e5fafda44ce173afe99184c1533b",
      "blockNumber": 84293,
      "transactionIndex": 14,
      "confirmations": null,
      "from": "0xe6A7a1d47ff21B6321162AEA7C6CB457D5476Bca",
      "gasPrice": {
        "_hex": "0xce81ef60f"
      },
      "gasLimit": {
        "_hex": "0x55f0"
      },
      "to": "0x5248EfBC7319bd65d436374266765D9727253F12",
      "value": {
        "_hex": "0x3511fd93f5741dff0"
      },
      "nonce": 1888,
      "data": "0x",
      "r": "0xa48b17efa68227b7c04fec45f0121dd25ec33f21fe3baefa5c73f3b71b65e7cb",
      "s": "0x49615a6ae833f79d4b5cb9b95547dda43f15ddd5d8f62b429eb9da3b3df839da",
      "v": 27,
      "creates": null,
      "raw": "0xf86f820760850ce81ef60f8255f0945248efbc7319bd65d436374266765d9727253f128903511fd93f5741dff0801ba0a48b17efa68227b7c04fec45f0121dd25ec33f21fe3baefa5c73f3b71b65e7cba049615a6ae833f79d4b5cb9b95547dda43f15ddd5d8f62b429eb9da3b3df839da",
      "networkId": 0,
      "chainId": 0
    },
    {
      "hash": "0x9bf01cadbe1fc1ca3ee70682a672c2f2144323440fb16d7572edbaf3d6e7d342",
      "blockHash": "0xf58abce9a0d40c05c245d8cb1931c4c35e63e5fafda44ce173afe99184c1533b",
      "blockNumber": 84293,
      "transactionIndex": 15,
      "confirmations": null,
      "from": "0xe6A7a1d47ff21B6321162AEA7C6CB457D5476Bca",
      "gasPrice": {
        "_hex": "0xce81ef60f"
      },
      "gasLimit": {
        "_hex": "0x55f0"
      },
      "to": "0x4Dbfc5Cd4D88480476F951dbCD591396773aE56c",
      "value": {
        "_hex": "0x357520c06e8fe2188"
      },
      "nonce": 1889,
      "data": "0x",
      "r": "0x423ff0a71aa09465b6be68ebdbebf3c0cff3c4d5a3065339d2983dbe2d0b0fb3",
      "s": "0x74d53b00a61988cead51a7d5a87155c75d6748fac1d33a5b6976f0578a3a1fbf",
      "v": 28,
      "creates": null,
      "raw": "0xf86f820761850ce81ef60f8255f0944dbfc5cd4d88480476f951dbcd591396773ae56c890357520c06e8fe2188801ca0423ff0a71aa09465b6be68ebdbebf3c0cff3c4d5a3065339d2983dbe2d0b0fb3a074d53b00a61988cead51a7d5a87155c75d6748fac1d33a5b6976f0578a3a1fbf",
      "networkId": 0,
      "chainId": 0
    },
    {
      "hash": "0x09882e46860be080e7be88e952fad14b9bcad35036f25e3acb34fc8f35eab540",
      "blockHash": "0xf58abce9a0d40c05c245d8cb1931c4c35e63e5fafda44ce173afe99184c1533b",
      "blockNumber": 84293,
      "transactionIndex": 16,
      "confirmations": null,
      "from": "0xe6A7a1d47ff21B6321162AEA7C6CB457D5476Bca",
      "gasPrice": {
        "_hex": "0xce81ef60f"
      },
      "gasLimit": {
        "_hex": "0x55f0"
      },
      "to": "0xdCB14605B0EE4F372D223e5DF87aa9e760886D01",
      "value": {
        "_hex": "0x36325e1194b042690"
      },
      "nonce": 1890,
      "data": "0x",
      "r": "0x81ae03b1dee08c1aef0b2b5764f50353c0f1f42110175c4ee4daf8d8c76c92db",
      "s": "0x2ccfb50bd17f292dd18c97c56ed6eadffda553d07c7d38de8133c11650c91b67",
      "v": 27,
      "creates": null,
      "raw": "0xf86f820762850ce81ef60f8255f094dcb14605b0ee4f372d223e5df87aa9e760886d0189036325e1194b042690801ba081ae03b1dee08c1aef0b2b5764f50353c0f1f42110175c4ee4daf8d8c76c92dba02ccfb50bd17f292dd18c97c56ed6eadffda553d07c7d38de8133c11650c91b67",
      "networkId": 0,
      "chainId": 0
    },
    {
      "hash": "0x1aa3ca7d1791e8f76fd79d55bfc012ffb82f8f122871931f7d57bb2b6660da2d",
      "blockHash": "0xf58abce9a0d40c05c245d8cb1931c4c35e63e5fafda44ce173afe99184c1533b",
      "blockNumber": 84293,
      "transactionIndex": 17,
      "confirmations": null,
      "from": "0x4fA3954A093E9916a48C5960B4303d7832b21A9b",
      "gasPrice": {
        "_hex": "0xcd33fab12"
      },
      "gasLimit": {
        "_hex": "0x5208"
      },
      "to": "0x32Be343B94f860124dC4fEe278FDCBD38C102D88",
      "value": {
        "_hex": "0x8ac306f35d041000"
      },
      "nonce": 0,
      "data": "0x",
      "r": "0x29e0b5e1fc90118f64d5ad6fd89021b4f229832b7d506d69ddb1357dd42298b7",
      "s": "0x7265f2af7ae0a89a305205cdbd12ab7f91f4404d4b4f0433f1688c6d3d53b7e5",
      "v": 28,
      "creates": null,
      "raw": "0xf86c80850cd33fab128252089432be343b94f860124dc4fee278fdcbd38c102d88888ac306f35d041000801ca029e0b5e1fc90118f64d5ad6fd89021b4f229832b7d506d69ddb1357dd42298b7a07265f2af7ae0a89a305205cdbd12ab7f91f4404d4b4f0433f1688c6d3d53b7e5",
      "networkId": 0,
      "chainId": 0
    },
    {
      "hash": "0x8e86957680d4218274bce175325e8c022da1a3fe6f0522b8d4d8785551143d8d",
      "blockHash": "0xf58abce9a0d40c05c245d8cb1931c4c35e63e5fafda44ce173afe99184c1533b",
      "blockNumber": 84293,
      "transactionIndex": 18,
      "confirmations": null,
      "from": "0x8fA33bA169f6aFf86fB3C9E172bddA7CA6D2A66a",
      "gasPrice": {
        "_hex": "0xcd33fab12"
      },
      "gasLimit": {
        "_hex": "0x5208"
      },
      "to": "0x32Be343B94f860124dC4fEe278FDCBD38C102D88",
      "value": {
        "_hex": "0x2991a0bcd111f000"
      },
      "nonce": 0,
      "data": "0x",
      "r": "0x95b91e83fa92dbc1ec104f42b56a664953157bc8211edf6d7fbfad8dc0cbf859",
      "s": "0x28dc17d62d749e5a2af8ae9921032d73ef3b075607f1582278c46382c7425dbd",
      "v": 28,
      "creates": null,
      "raw": "0xf86c80850cd33fab128252089432be343b94f860124dc4fee278fdcbd38c102d88882991a0bcd111f000801ca095b91e83fa92dbc1ec104f42b56a664953157bc8211edf6d7fbfad8dc0cbf859a028dc17d62d749e5a2af8ae9921032d73ef3b075607f1582278c46382c7425dbd",
      "networkId": 0,
      "chainId": 0
    },
    {
      "hash": "0x02a05168009be4685a8524952f6eb972319f6f4f617ae151ed4f7195dc30d084",
      "blockHash": "0xf58abce9a0d40c05c245d8cb1931c4c35e63e5fafda44ce173afe99184c1533b",
      "blockNumber": 84293,
      "transactionIndex": 19,
      "confirmations": null,
      "from": "0xB28fE7b9815982FF203F751ce550111D752d8795",
      "gasPrice": {
        "_hex": "0xcd33fab12"
      },
      "gasLimit": {
        "_hex": "0x5208"
      },
      "to": "0x32Be343B94f860124dC4fEe278FDCBD38C102D88",
      "value": {
        "_hex": "0x5d735431a22cd000"
      },
      "nonce": 0,
      "data": "0x",
      "r": "0x921f416910c93f8096d2666b84f1a310b456b75c1e6b7692ffb87b3876a7db6d",
      "s": "0x4daa7cfec890fa6cf65455efda9690fbe77ba54988c11fa6bf42497bbf089017",
      "v": 28,
      "creates": null,
      "raw": "0xf86c80850cd33fab128252089432be343b94f860124dc4fee278fdcbd38c102d88885d735431a22cd000801ca0921f416910c93f8096d2666b84f1a310b456b75c1e6b7692ffb87b3876a7db6da04daa7cfec890fa6cf65455efda9690fbe77ba54988c11fa6bf42497bbf089017",
      "networkId": 0,
      "chainId": 0
    },
    {
      "hash": "0x8a9c1f734c7da32a2f998913a33068dc5c24dd0b64ff98090f5e69509446fb71",
      "blockHash": "0xf58abce9a0d40c05c245d8cb1931c4c35e63e5fafda44ce173afe99184c1533b",
      "blockNumber": 84293,
      "transactionIndex": 20,
      "confirmations": null,
      "from": "0x3F6DDbC103F2999640fe4AFc6884708fa691C2b8",
      "gasPrice": {
        "_hex": "0xcd33fab12"
      },
      "gasLimit": {
        "_hex": "0x5208"
      },
      "to": "0x32Be343B94f860124dC4fEe278FDCBD38C102D88",
      "value": {
        "_hex": "0x26e5805f525bd400"
      },
      "nonce": 0,
      "data": "0x",
      "r": "0x1d71119bfef1328dc676ffb89390a4bd13eb7239473c565e14364ae3d5223215",
      "s": "0x0de74ad015d2fa0a68ba34667fc25b161bbc1db4ea5a14bcdc17e18939b820ba",
      "v": 28,
      "creates": null,
      "raw": "0xf86c80850cd33fab128252089432be343b94f860124dc4fee278fdcbd38c102d888826e5805f525bd400801ca01d71119bfef1328dc676ffb89390a4bd13eb7239473c565e14364ae3d5223215a00de74ad015d2fa0a68ba34667fc25b161bbc1db4ea5a14bcdc17e18939b820ba",
      "networkId": 0,
      "chainId": 0
    }
  ]
}