{
  "hash": "0xa25c8064ba6144d7bd83ddfaacfef51402a521091888f95af3626e4207626e02",
  "parentHash": "0x50eb924735c51423fe27b23c233c9878b18b7e38776100a4de0a9ddd736b8782",
  "number": 52672,
  "timestamp": 1439025402,
  "nonce": "0x6316198476751fd9",
  "difficulty": 1570177557268,
  "gasLimit": {
    "_hex": "0x176a9e"
  },
  "gasUsed": {
    "_hex": "0x16e360"
  },
  "miner": "0xbb7B8287f3F0a933474a79eAe42CBCa977791171",
  "extraData": "0x476574682f4c5649562f76312e302e312f6c696e75782f676f312e342e32",
  "transactions": [
    {
      "hash": "0x9d55d56a3570c3caee43c4eca6a9b9cf9ae8118c7bd27972500338e4ccb83a7a",
      "blockHash": "0xa25c8064ba6144d7bd83ddfaacfef51402a521091888f95af3626e4207626e02",
      "blockNumber": 52672,
      "transactionIndex": 0,
      "confirmations": null,
      "from": "0x54dAeb3E8a6BBC797E4aD2b0339f134b186e4637",
      "gasPrice": {
        "_hex": "0xdada9c769"
      },
      "gasLimit": {
        "_hex": "0x7a120"
      },
      "to": "0xBAA54d6E90c3F4d7Ebec11bD180134C7eD8eBb52",
      "value": {
        "_hex": "0x16345785d8a0000"
      },
      "nonce": 898,
      "data": "0x",
      "r": "0xe780f303f7ad7b3300eb9836daab28bee4de38a8006b126b2a89a1d6af903e7a",
      "s": "0x4fcbfcfe8fd9545b106ab4c6c8efdae3965207301fda958a6acbca9505a762f7",
      "v": 27,
      "creates": null,
      "raw": "0xf86f820382850dada9c7698307a12094baa54d6e90c3f4d7ebec11bd180134c7ed8ebb5288016345785d8a0000801ba0e780f303f7ad7b3300eb9836daab28bee4de38a8006b126b2a89a1d6af903e7aa04fcbfcfe8fd9545b106ab4c6c8efdae3965207301fda958a6acbca9505a762f7",
      "networkId": 0,
      "chainId": 0
    },
    {
      "hash": "0xb1befab6d8dff37c7232bd550b8afc30040d898ed3a3cf8d3bdcd37169dee372",
      "blockHash": "0xa25c8064ba6144d7bd83ddfaacfef51402a521091888f95af3626e4207626e02",
      "blockNumber": 52672,
      "transactionIndex": 1,
      "confirmations": null,
      "from": "0x54dAeb3E8a6BBC797E4aD2b0339f134b186e4637",
      "gasPrice": {
        "_hex": "0xdce5b224a"
      },
      "gasLimit": {
        "_hex": "0x7a120"
      },
      "to": "0xBAA54d6E90c3F4d7Ebec11bD180134C7eD8eBb52",
      "value": {
        "_hex": "0x16345785d8a0000"
      },
      "nonce": 899,
      "data": "0x",
      "r": "0xb0f4083d5b9de4eddb579338b91c6ee2a478f683c7dcc520665e12292dac7d3e",
      "s": "0x3f8df9ddda71dd5e128b87f10a3a2868fed7b0984fac012cb0fcdf0e32207f50",
      "v": 28,
      "creates": null,
      "raw": "0xf86f820383850dce5b224a8307a12094baa54d6e90c3f4d7ebec11bd180134c7ed8ebb5288016345785d8a0000801ca0b0f4083d5b9de4eddb579338b91c6ee2a478f683c7dcc520665e12292dac7d3ea03f8df9ddda71dd5e128b87f10a3a2868fed7b0984fac012cb0fcdf0e32207f50",
      "networkId": 0,
      "chainId": 0
    },
    {
      "hash": "0x22e2f20118d7bc5e90fd8064cc16e7059b67a12165f35404fa8f1a9529645ade",
      "blockHash": "0xa25c8064ba6144d7bd83ddfaacfef51402a521091888f95af3626e4207626e02",
      "blockNumber": 52672,
      "transactionIndex": 2,
      "confirmations": null,
      "from": "0x54dAeb3E8a6BBC797E4aD2b0339f134b186e4637",
      "gasPrice": {
        "_hex": "0xdce5b224a"
      },
      "gasLimit": {
        "_hex": "0x7a120"
      },
      "to": "0xBAA54d6E90c3F4d7Ebec11bD180134C7eD8eBb52",
      "value": {
        "_hex": "0x16345785d8a0000"
      },
      "nonce": 900,
      "data": "0x",
      "r": "0x582770cbb1c7da46bfe3129872ca42628dab11cc1e111ac1f168d7e71256b9fc",
      "s": "0x1a59e6a69a46598a5702d4aed72db43a325f2b03c0abbf5cfc2903f3f4680b39",
      "v": 28,
      "creates": null,
      "raw": "0xf86f820384850dce5b224a8307a12094baa54d6e90c3f4d7ebec11bd180134c7ed8ebb5288016345785d8a0000801ca0582770cbb1c7da46bfe3129872ca42628dab11cc1e111ac1f168d7e71256b9fca01a59e6a69a46598a5702d4aed72db43a325f2b03c0abbf5cfc2903f3f4680b39",
      "networkId": 0,
      "chainId": 0
    }
  ]
}