{
  "hash": "0x2900e3e085750fa00a0dac3142cc331ba2ffdb640156bff9afe97ccab5ef6de3",
  "parentHash": "0x1e005ffe8b1ecf4537d926cde4429eae0b9106b6c37cefc704fa302dfdfc2363",
  "number": 116495,
  "timestamp": 1440075195,
  "nonce": "0xd3f66cdc95fa4a5f",
  "difficulty": 4555495937825,
  "gasLimit": {
    "_hex": "0x2fefd8"
  },
  "gasUsed": {
    "_hex": "0xf618"
  },
  "miner": "0xe6A7a1d47ff21B6321162AEA7C6CB457D5476Bca",
  "extraData": "0x476574682f76312e302e312d38326566323666362f6c696e75782f676f312e34",
  "transactions": [
    {
      "hash": "0xa2ca863be7d9fdb5f506e6a69479cda8da65e4928f4ef56f0937bda57555af54",
      "blockHash": "0x2900e3e085750fa00a0dac3142cc331ba2ffdb640156bff9afe97ccab5ef6de3",
      "blockNumber": 116495,
      "transactionIndex": 0,
      "confirmations": null,
      "from": "0xCDA330c8160f0c90B8B528C6Db267acc17381818",
      "gasPrice": {
        "_hex": "0xccbd7c4f5"
      },
      "gasLimit": {
        "_hex": "0x5208"
      },
      "to": "0x32Be343B94f860124dC4fEe278FDCBD38C102D88",
      "value": {
        "_hex": "0x2d1a4dae2e883c0000"
      },
      "nonce": 8,
      "data": "0x",
      "r": "0xdaa6165003962239ddc0cd9fd0b53b683a1a03b04746bc83b11093494c976b68",
      "s": "0x223c17090e4437030063e912d9caa3bcc134edcfc23744deefa1408fffeaf5ab",
      "v": 27,
      "creates": null,
      "raw": "0xf86d08850ccbd7c4f58252089432be343b94f860124dc4fee278fdcbd38c102d88892d1a4dae2e883c0000801ba0daa6165003962239ddc0cd9fd0b53b683a1a03b04746bc83b11093494c976b68a0223c17090e4437030063e912d9caa3bcc134edcfc23744deefa1408fffeaf5ab",
      "networkId": 0,
      "chainId": 0
    },
    {
      "hash": "0x2f0ad22a5c362e540855bc2f8afe2771785ffa8fd7a0e580cf4227a37d1dafd2",
      "blockHash": "0x2900e3e085750fa00a0dac3142cc331ba2ffdb640156bff9afe97ccab5ef6de3",
      "blockNumber": 116495,
      "transactionIndex": 1,
      "confirmations": null,
      "from": "0xB89C0F465b0472fa5A58eCDd01eD937205ae4d06",
      "gasPrice": {
        "_hex": "0xccbd7c4f5"
      },
      "gasLimit": {
        "_hex": "0x5208"
      },
      "to": "0x32Be343B94f860124dC4fEe278FDCBD38C102D88",
      "value": {
        "_hex": "0x1236ae30b3e6f8000"
      },
      "nonce": 12,
      "data": "0x",
      "r": "0xb5347784382c67c2e1b1c1a583197bebe95eaba15793f2562741c1583b536f04",
      "s": "0x544bede01d8a96cd10792450d5ae734f2d71e13e78ab137b9b5f316c431f85b3",
      "v": 27,
      "creates": null,
      "raw": "0xf86d0c850ccbd7c4f58252089432be343b94f860124dc4fee278fdcbd38c102d888901236ae30b3e6f8000801ba0b5347784382c67c2e1b1c1a583197bebe95eaba15793f2562741c1583b536f04a0544bede01d8a96cd10792450d5ae734f2d71e13e78ab137b9b5f316c431f85b3",
      "networkId": 0,
      "chainId": 0
    },
    {
      "hash": "0x7550a15d0082fa6a2bd3a0c33bdebfedeaf2852f314b80a5a876afc4377c1aa5",
      "blockHash": "0x2900e3e085750fa00a0dac3142cc331ba2ffdb640156bff9afe97ccab5ef6de3",
      "blockNumber": 116495,
      "transactionIndex": 2,
      "confirmations": null,
      "from": "0xf2881e3e520bF84469Fa00a56449D357FB1af54A",
      "gasPrice": {
        "_hex": "0xccbd7c4f5"
      },
      "gasLimit": {
        "_hex": "0x5208"
      },
      "to": "0x32Be343B94f860124dC4fEe278FDCBD38C102D88",
      "value": {
        "_hex": "0x8c264ecb6aad8000"
      },
      "nonce": 14,
      "data": "0x",
      "r": "0xb230c937cd82b5b2f7bdbe8c093220a0fc4b8584a41be623f0eca664d30371ea",
      "s": "0x0c1a565d13b79706cc655af68e9f3f72e3ef66da057fc66acf256a478fbbdbe1",
      "v": 27,
      "creates": null,
      "raw": "0xf86c0e850ccbd7c4f58252089432be343b94f860124dc4fee278fdcbd38c102d88888c264ecb6aad8000801ba0b230c937cd82b5b2f7bdbe8c093220a0fc4b8584a41be623f0eca664d30371eaa00c1a565d13b79706cc655af68e9f3f72e3ef66da057fc66acf256a478fbbdbe1",
      "networkId": 0,
      "chainId": 0
    }
  ]
}