{
  "hash": "0x9dff103d7c4a6721feaa2f0d1bd35afdd9bcb32a704ccbeb3df85713a821e8e0",
  "parentHash": "0xd029fcf070d219f9b5063c8e4d136cbf3b85793d9a133db623209fd88fe52b24",
  "number": 74008,
  "timestamp": 1439378730,
  "nonce": "0x34800d636b0b80ff",
  "difficulty": 2245654124039,
  "gasLimit": {
    "_hex": "0x2fefd8"
  },
  "gasUsed": {
    "_hex": "0x5208"
  },
  "miner": "0xC6aAb39538082C5f61BEf748D7442Ce50C0cb71e",
  "extraData": "0x6d61726b786d61796572",
  "transactions": [
    {
      "hash": "0xd6b054c1ed1328026a36707300be6bc83407371d961a89f6175afa8e6bb116cc",
      "blockHash": "0x9dff103d7c4a6721feaa2f0d1bd35afdd9bcb32a704ccbeb3df85713a821e8e0",
      "blockNumber": 74008,
      "transactionIndex": 0,
      "confirmations": null,
      "from": "0x79d5794171E11dd5C2f0e26E1C187319db2FE6f7",
      "gasPrice": {
        "_hex": "0xd83edcd9a"
      },
      "gasLimit": {
        "_hex": "0x5208"
      },
      "to": "0x32Be343B94f860124dC4fEe278FDCBD38C102D88",
      "value": {
        "_hex": "0x478a641633cbb400"
      },
      "nonce": 17,
      "data": "0x",
      "r": "0xd51e992831e499d26b3aff38f89f3d76d6041667cc5911fe7035e85e722f1c45",
      "s": "0x3b9e16184e726e651d819c225b074e0d3252392c260ebbf1a0bfe726411e4b39",
      "v": 27,
      "creates": null,
      "raw": "0xf86c11850d83edcd9a8252089432be343b94f860124dc4fee278fdcbd38c102d8888478a641633cbb400801ba0d51e992831e499d26b3aff38f89f3d76d6041667cc5911fe7035e85e722f1c45a03b9e16184e726e651d819c225b074e0d3252392c260ebbf1a0bfe726411e4b39",
      "networkId": 0,
      "chainId": 0
    }
  ]
}