{
  "hash": "0x043795758c7c8406bc7916de3897b3e5e6f0f930bb5b4447ad4de514ce6ff807",
  "parentHash": "0x73b28d34d3cd5b7ee8aaa4a6c38e984d1c92b159b04ba16e69bd4591bec852d9",
  "number": 111683,
  "timestamp": 1439994242,
  "nonce": "0x19d60a46abdfbe07",
  "difficulty": 4452521370228,
  "gasLimit": {
    "_hex": "0x2fefd8"
  },
  "gasUsed": {
    "_hex": "0x5208"
  },
  "miner": "0xC8224326e29eD30AEEC1B70ec238A818169ecaBA",
  "extraData": "0xd983010001844765746887676f312e342e328777696e646f7773",
  "transactions": [
    {
      "hash": "0x471bde6f7edf594cdac09bca7756236b4d3eb228e336e6db7a16097c676199df",
      "blockHash": "0x043795758c7c8406bc7916de3897b3e5e6f0f930bb5b4447ad4de514ce6ff807",
      "blockNumber": 111683,
      "transactionIndex": 0,
      "confirmations": null,
      "from": "0x34fDf2118f88a297b3750FAD5eEB307808d08378",
      "gasPrice": {
        "_hex": "0xd906694ff"
      },
      "gasLimit": {
        "_hex": "0x5208"
      },
      "to": "0x32Be343B94f860124dC4fEe278FDCBD38C102D88",
      "value": {
        "_hex": "0x4ecf062bb951f000"
      },
      "nonce": 4,
      "data": "0x",
      "r": "0x0393e80b2984153f32f6c6ea926efa77ae155c399e3409a24fca493e6e0c0be9",
      "s": "0x565205ad365368b15cfc071604b0cee11ff3f040805340af2da747de3e325d0b",
      "v": 28,
      "creates": null,
      "raw": "0xf86c04850d906694ff8252089432be343b94f860124dc4fee278fdcbd38c102d88884ecf062bb951f000801ca00393e80b2984153f32f6c6ea926efa77ae155c399e3409a24fca493e6e0c0be9a0565205ad365368b15cfc071604b0cee11ff3f040805340af2da747de3e325d0b",
      "networkId": 0,
      "chainId": 0
    }
  ]
}