{
  "hash": "0xbd32a149f4627a3ce9f6945bd90b422dd3d4250d1020bf8912b1c8a9a7804ce3",
  "parentHash": "0xc86834b7488190ed6389f6ac7ed89ff6e00c498ef3e007a2b7258740ee088c7d",
  "number": 95449,
  "timestamp": 1439724291,
  "nonce": "0xafad01139f260e95",
  "difficulty": 3595149047591,
  "gasLimit": {
    "_hex": "0x2fefd8"
  },
  "gasUsed": {
    "_hex": "0x5208"
  },
  "miner": "0xe6A7a1d47ff21B6321162AEA7C6CB457D5476Bca",
  "extraData": "0x476574682f76312e302e312d38326566323666362f6c696e75782f676f312e34",
  "transactions": [
    {
      "hash": "0xfea4bb260a74c24ddeb1f9df8748c52f64de09f397b45946454591531f77e901",
      "blockHash": "0xbd32a149f4627a3ce9f6945bd90b422dd3d4250d1020bf8912b1c8a9a7804ce3",
      "blockNumber": 95449,
      "transactionIndex": 0,
      "confirmations": null,
      "from": "0x63738Ec4C9adec404749B5747F3bbE2147de632F",
      "gasPrice": {
        "_hex": "0xd433acce4"
      },
      "gasLimit": {
        "_hex": "0x15f90"
      },
      "to": "0x557C2806B6ceA65a66F415bb2Ed1ce897B340745",
      "value": {
        "_hex": "0xde0b6b3a7640000"
      },
      "nonce": 2,
      "data": "0x",
      "r": "0x4ed543bfad3067daee442158f032b13ca53e3b3949235cf7809c591d3d4b5d4a",
      "s": "0x456d36d72a45cc310a009820b916c7d5cae6c15b3dfb6ba7a660feae2c1490eb",
      "v": 28,
      "creates": null,
      "raw": "0xf86d02850d433acce483015f9094557c2806b6cea65a66f415bb2ed1ce897b340745880de0b6b3a7640000801ca04ed543bfad3067daee442158f032b13ca53e3b3949235cf7809c591d3d4b5d4aa0456d36d72a45cc310a009820b916c7d5cae6c15b3dfb6ba7a660feae2c1490eb",
      "networkId": 0,
      "chainId": 0
    }
  ]
}