{
  "hash": "0x228c185e49cfc62119b9fab6024bbfe055da023cdf242d4712223396cb72df01",
  "parentHash": "0x32fff6bdadab50c93fce08aa0ef10539011901f6f029b51f353cf3b798367076",
  "number": 103330,
  "timestamp": 1439851453,
  "nonce": "0x0166ff4a89dfc040",
  "difficulty": 4172637446734,
  "gasLimit": {
    "_hex": "0x2fefd8"
  },
  "gasUsed": {
    "_hex": "0xa410"
  },
  "miner": "0x623d2411c3bb3340784155F9a688b0085251aB5c",
  "extraData": "0x",
  "transactions": [
    {
      "hash": "0x2b0c021591425fb019134d0268773203a2386b32f5045c5db9d91e724d3da3c9",
      "blockHash": "0x228c185e49cfc62119b9fab6024bbfe055da023cdf242d4712223396cb72df01",
      "blockNumber": 103330,
      "transactionIndex": 0,
      "confirmations": null,
      "from": "0x7358E40a50F278a4eA811029c2a4E946AfE5e0bd",
      "gasPrice": {
        "_hex": "0xd45993bdc"
      },
      "gasLimit": {
        "_hex": "0x5208"
      },
      "to": "0x32Be343B94f860124dC4fEe278FDCBD38C102D88",
      "value": {
        "_hex": "0x6a0244963b08d400"
      },
      "nonce": 0,
      "data": "0x",
      "r": "0xdff666f2e7c8350723bfb3582b73ea1fc0719eca2b7e6469b9e33e06fde24ccd",
      "s": "0x19e55b9226a70a45b0d2ff08f843780008d5673751a6f5367d0f564c6cd357c2",
      "v": 28,
      "creates": null,
      "raw": "0xf86c80850d45993bdc8252089432be343b94f860124dc4fee278fdcbd38c102d88886a0244963b08d400801ca0dff666f2e7c8350723bfb3582b73ea1fc0719eca2b7e6469b9e33e06fde24ccda019e55b9226a70a45b0d2ff08f843780008d5673751a6f5367d0f564c6cd357c2",
      "networkId": 0,
      "chainId": 0
    },
    {
      "hash": "0xd2ce42a44e62b21417f09634ae60153d8ed2144b4689e5cd15a76bace8fbd19b",
      "blockHash": "0x228c185e49cfc62119b9fab6024bbfe055da023cdf242d4712223396cb72df01",
      "blockNumber": 103330,
      "transactionIndex": 1,
      "confirmations": null,
      "from": "0xb1abce2918E21ddb93AA452731a12672A3d9F75a",
      "gasPrice": {
        "_hex": "0xd45993bdc"
      },
      "gasLimit": {
        "_hex": "0x5208"
      },
      "to": "0x32Be343B94f860124dC4fEe278FDCBD38C102D88",
      "value": {
        "_hex": "0x455f50cc58ecbc00"
      },
      "nonce": 117,
      "data": "0x",
      "r": "0x4b5b8e655e3d5b7c3f03f97583e27a6cfdc82722c1ed798a860eeee459ebc19b",
      "s": "0x7e2e9a1922b27931f5a040193953b54da11b9caed4fad70319025d0e5bea56da",
      "v": 28,
      "creates": null,
      "raw": "0xf86c75850d45993bdc8252089432be343b94f860124dc4fee278fdcbd38c102d8888455f50cc58ecbc00801ca04b5b8e655e3d5b7c3f03f97583e27a6cfdc82722c1ed798a860eeee459ebc19ba07e2e9a1922b27931f5a040193953b54da11b9caed4fad70319025d0e5bea56da",
      "networkId": 0,
      "chainId": 0
    }
  ]
}