{
  "hash": "0xdc04f3c9e0778cd52a9e5a73f9704afb76ba2c35ab300c32252ff9d224c2c8bd",
  "parentHash": "0x7e2038810ffc8a16e9a3a17c437d5ee270c9e559eb09eb0e5c9536042cbfd3ae",
  "number": 87376,
  "timestamp": 1439591291,
  "nonce": "0x573d2236b9dfab67",
  "difficulty": 3112817560312,
  "gasLimit": {
    "_hex": "0x2fefd8"
  },
  "gasUsed": {
    "_hex": "0x546c"
  },
  "miner": "0x790b8a3cE86E707ED0eD32bF89B3269692a23CC1",
  "extraData": "0xd783010001844765746887676f312e342e32856c696e7578",
  "transactions": [
    {
      "hash": "0xbc75aa4fe160f8a3b1b68a90b5efbab29f936fd97ca24938d2671f35d693d60b",
      "blockHash": "0xdc04f3c9e0778cd52a9e5a73f9704afb76ba2c35ab300c32252ff9d224c2c8bd",
      "blockNumber": 87376,
      "transactionIndex": 0,
      "confirmations": null,
      "from": "0x349D2c918fD09E2807318E66cE432909176bD50B",
      "gasPrice": {
        "_hex": "0x110c8f7d8de"
      },
      "gasLimit": {
        "_hex": "0xc350"
      },
      "to": "0x2910543Af39abA0Cd09dBb2D50200b3E800A63D2",
      "value": {
        "_hex": "0x3c2c582ef7cb980000"
      },
      "nonce": 1,
      "data": "0x454e554356524e5638",
      "r": "0x11cb89b2cd2894717aca1d48f7c42af94e1100322ebfe08b83c3ae801bf452bc",
      "s": "0x25d13a91553f08c0f9da7f03bb9519a98118a83653ba2a71144d00dd36680006",
      "v": 27,
      "creates": null,
      "raw": "0xf87701860110c8f7d8de82c350942910543af39aba0cd09dbb2d50200b3e800a63d2893c2c582ef7cb98000089454e554356524e56381ba011cb89b2cd2894717aca1d48f7c42af94e1100322ebfe08b83c3ae801bf452bca025d13a91553f08c0f9da7f03bb9519a98118a83653ba2a71144d00dd36680006",
      "networkId": 0,
      "chainId": 0
    }
  ]
}