{
  "hash": "0xa5445c886b38b99ca6dd6a22f3547347cf3fd8e422fe9e0440af13120ec8b686",
  "parentHash": "0x2402637673d8c5782612d272a796c99d0651a2e5f12306bfdb3d21114b06a69f",
  "number": 53746,
  "timestamp": 1439042817,
  "nonce": "0xed51d8777c7bb86b",
  "difficulty": 1596258159129,
  "gasLimit": {
    "_hex": "0x2fefd5"
  },
  "gasUsed": {
    "_hex": "0x5208"
  },
  "miner": "0xf927a40C8B7F6E07c5af7FA2155B4864a4112B13",
  "extraData": "0x476574682f76312e302e312f6c696e75782f676f312e342e32",
  "transactions": [
    {
      "hash": "0x85f4091ec644ea49ac9daf88f05fd61b0e08bba59b9657cb368d48856cbbbf5a",
      "blockHash": "0xa5445c886b38b99ca6dd6a22f3547347cf3fd8e422fe9e0440af13120ec8b686",
      "blockNumber": 53746,
      "transactionIndex": 0,
      "confirmations": null,
      "from": "0x1cF105AB23023B554C583E86d7921179eE83169F",
      "gasPrice": {
        "_hex": "0xd8364fc25"
      },
      "gasLimit": {
        "_hex": "0x15f90"
      },
      "to": "0x6BD72C1161826cFA413c4fb70CCE879BA7c2219c",
      "value": {
        "_hex": "0x8ac7230489e80000"
      },
      "nonce": 0,
      "data": "0x",
      "r": "0xd218aebd713f7e32ff6d2bcc8961a05d89743ceab19ea1b0d1ba699eb53a94f4",
      "s": "0x65a3071c2c52080a60768ef69e84a0dbec14c9f9a0a2264dc68a7976f0b6c948",
      "v": 28,
      "creates": null,
      "raw": "0xf86d80850d8364fc2583015f90946bd72c1161826cfa413c4fb70cce879ba7c2219c888ac7230489e80000801ca0d218aebd713f7e32ff6d2bcc8961a05d89743ceab19ea1b0d1ba699eb53a94f4a065a3071c2c52080a60768ef69e84a0dbec14c9f9a0a2264dc68a7976f0b6c948",
      "networkId": 0,
      "chainId": 0
    }
  ]
}