{
  "hash": "0xccd0d8cf49198200c7621e52c701bb0f54464e98ae15836ddfe213385f3f006b",
  "parentHash": "0xe012f293bb77f9554986cedb3f2572ef05d120f0e90a2092b853dc25386c29ca",
  "number": 74245,
  "timestamp": 1439382917,
  "nonce": "0xdf4a1a87d4081311",
  "difficulty": 2214016834819,
  "gasLimit": {
    "_hex": "0x2fefd8"
  },
  "gasUsed": {
    "_hex": "0x23e38"
  },
  "miner": "0x01d9DA08cc6Fb97c0DE1B6F4C28910A0859Ed1A1",
  "extraData": "0x476574682f76312e302e312f6c696e75782f676f312e342e32",
  "transactions": [
    {
      "hash": "0x3aad8fca8ebd892a312bc8523a526120c6cb5e433312646d735ed13599cc6847",
      "blockHash": "0xccd0d8cf49198200c7621e52c701bb0f54464e98ae15836ddfe213385f3f006b",
      "blockNumber": 74245,
      "transactionIndex": 0,
      "confirmations": null,
      "from": "0xe6A7a1d47ff21B6321162AEA7C6CB457D5476Bca",
      "gasPrice": {
        "_hex": "0xd12eb2c7d"
      },
      "gasLimit": {
        "_hex": "0x55f0"
      },
      "to": "0x4F2B8001a7022812Fdd958AA86dD63e2b8B994C1",
      "value": {
        "_hex": "0x266a7665a192a410"
      },
      "nonce": 755,
      "data": "0x",
      "r": "0x130bd293a5798873ad24a474d8079210f86a5edaf785a91779345d50ebe8dc90",
      "s": "0x4b3b36be85f3acd7f6ad5f61c5e39a834de4d475b2c9847f971c7d2252491f57",
      "v": 28,
      "creates": null,
      "raw": "0xf86e8202f3850d12eb2c7d8255f0944f2b8001a7022812fdd958aa86dd63e2b8b994c188266a7665a192a410801ca0130bd293a5798873ad24a474d8079210f86a5edaf785a91779345d50ebe8dc90a04b3b36be85f3acd7f6ad5f61c5e39a834de4d475b2c9847f971c7d2252491f57",
      "networkId": 0,
      "chainId": 0
    },
    {
      "hash": "0xf8f20d1a019eea56e12c0d938cb7377ab92a2977cdca93ff17b8c9353bc100c5",
      "blockHash": "0xccd0d8cf49198200c7621e52c701bb0f54464e98ae15836ddfe213385f3f006b",
      "blockNumber": 74245,
      "transactionIndex": 1,
      "confirmations": null,
      "from": "0xe6A7a1d47ff21B6321162AEA7C6CB457D5476Bca",
      "gasPrice": {
        "_hex": "0xd12eb2c7d"
      },
      "gasLimit": {
        "_hex": "0x55f0"
      },
      "to": "0x908CABeD14f5632705F9D7BdB95d672b164446A8",
      "value": {
        "_hex": "0x2671118c71e935d0"
      },
      "nonce": 756,
      "data": "0x",
      "r": "0xac8bfd7fe621e68f056c4eacdc59697595a2a296002756cc91be98db47c2ad97",
      "s": "0x590fcc6efaaba7e7a60fcb754401d18ba89749f64f3d765d22f6ec19c1b6612f",
      "v": 27,
      "creates": null,
      "raw": "0xf86e8202f4850d12eb2c7d8255f094908cabed14f5632705f9d7bdb95d672b164446a8882671118c71e935d0801ba0ac8bfd7fe621e68f056c4eacdc59697595a2a296002756cc91be98db47c2ad97a0590fcc6efaaba7e7a60fcb754401d18ba89749f64f3d765d22f6ec19c1b6612f",
      "networkId": 0,
      "chainId": 0
    },
    {
      "hash": "0x8a7c5b124d75371f2ad8c134993f8ed5e5000404be25175a0173b20e0c46ef7b",
      "blockHash": "0xccd0d8cf49198200c7621e52c701bb0f54464e98ae15836ddfe213385f3f006b",
      "blockNumber": 74245,
      "transactionIndex": 2,
      "confirmations": null,
      "from": "0xe6A7a1d47ff21B6321162AEA7C6CB457D5476Bca",
      "gasPrice": {
        "_hex": "0xd12eb2c7d"
      },
      "gasLimit": {
        "_hex": "0x55f0"
      },
      "to": "0x06EC48800B2DB3eEfa052e98A9b5Fc2Bf783Ee74",
      "value": {
        "_hex": "0x28483be66321b40c"
      },
      "nonce": 757,
      "data": "0x",
      "r": "0x8db57f06d2ed2d733891d98a8d8c100a5844ffd06aee198b1bba6756cec51474",
      "s": "0x538e9aa83ed9b3f8f34282e20e9de4583b5a9d9aa34281cfadc5848496139b25",
      "v": 28,
      "creates": null,
      "raw": "0xf86e8202f5850d12eb2c7d8255f09406ec48800b2db3eefa052e98a9b5fc2bf783ee748828483be66321b40c801ca08db57f06d2ed2d733891d98a8d8c100a5844ffd06aee198b1bba6756cec51474a0538e9aa83ed9b3f8f34282e20e9de4583b5a9d9aa34281cfadc5848496139b25",
      "networkId": 0,
      "chainId": 0
    },
    {
      "hash": "0x869d58b32b8f27ba1958912aadcaeb90c18e014649f1876255058b9da0d71b80",
      "blockHash": "0xccd0d8cf49198200c7621e52c701bb0f54464e98ae15836ddfe213385f3f006b",
      "blockNumber": 74245,
      "transactionIndex": 3,
      "confirmations": null,
      "from": "0xe6A7a1d47ff21B6321162AEA7C6CB457D5476Bca",
      "gasPrice": {
        "_hex": "0xd12eb2c7d"
      },
      "gasLimit": {
        "_hex": "0x55f0"
      },
      "to": "0x9653c9859b18f8777Fe4eEc9a67c9F64F3D6F62a",
      "value": {
        "_hex": "0x28730c60b946cac8"
      },
      "nonce": 758,
      "data": "0x",
      "r": "0xc1dff8ab0bb772bb23a3d99f88d165f4a3782ff65fa7600c480fb3e760569f09",
      "s": "0x5c9f826837b4b32585326b5c55785c0c51f37a2db5961e9abc90053d4edee9d4",
      "v": 27,
      "creates": null,
      "raw": "0xf86e8202f6850d12eb2c7d8255f0949653c9859b18f8777fe4eec9a67c9f64f3d6f62a8828730c60b946cac8801ba0c1dff8ab0bb772bb23a3d99f88d165f4a3782ff65fa7600c480fb3e760569f09a05c9f826837b4b32585326b5c55785c0c51f37a2db5961e9abc90053d4edee9d4",
      "networkId": 0,
      "chainId": 0
    },
    {
      "hash": "0x636438c92bbda236b364bf397ad5b7d44a4758405ea5cc9311b2e687917be383",
      "blockHash": "0xccd0d8cf49198200c7621e52c701bb0f54464e98ae15836ddfe213385f3f006b",
      "blockNumber": 74245,
      "transactionIndex": 4,
      "confirmations": null,
      "from": "0xe6A7a1d47ff21B6321162AEA7C6CB457D5476Bca",
      "gasPrice": {
        "_hex": "0xd12eb2c7d"
      },
      "gasLimit": {
        "_hex": "0x55f0"
      },
      "to": "0x657a04FeFfb4412AA72aEe9c4d23918A998B3DF3",
      "value": {
        "_hex": "0x28987565cc0f3300"
      },
      "nonce": 759,
      "data": "0x",
      "r": "0x73828c7640e9005c7e3cb39c76f22d396d77d9881c9b56fa7a2ba3b1cd923bfa",
      "s": "0x2201445d91739e53357adcccb35e539235ae327a12bcc6716ddf505fab10d52f",
      "v": 27,
      "creates": null,
      "raw": "0xf86e8202f7850d12eb2c7d8255f094657a04feffb4412aa72aee9c4d23918a998b3df38828987565cc0f3300801ba073828c7640e9005c7e3cb39c76f22d396d77d9881c9b56fa7a2ba3b1cd923bfaa02201445d91739e53357adcccb35e539235ae327a12bcc6716ddf505fab10d52f",
      "networkId": 0,
      "chainId": 0
    },
    {
      "hash": "0xa85800fa84b576b2cfd7dc70342e90f3198853aff4dd47ce971690e07a79acaf",
      "blockHash": "0xccd0d8cf49198200c7621e52c701bb0f54464e98ae15836ddfe213385f3f006b",
      "blockNumber": 74245,
      "transactionIndex": 5,
      "confirmations": null,
      "from": "0xe6A7a1d47ff21B6321162AEA7C6CB457D5476Bca",
      "gasPrice": {
        "_hex": "0xd12eb2c7d"
      },
      "gasLimit": {
        "_hex": "0x55f0"
      },
      "to": "0x2AC36246B388F762Fdc3CA30E749A1494fDA99Ee",
      "value": {
        "_hex": "0x28a2434d1821bdf8"
      },
      "nonce": 760,
      "data": "0x",
      "r": "0x97600855537951e2d93644f9848bfc73f83b6bf22c783cf58f8c5cd8f3fddf9b",
      "s": "0x34ed47b7c32afe1ede352d0bbb746c50c0673e4cc797e560eedc97bdfadc7bc0",
      "v": 28,
      "creates": null,
      "raw": "0xf86e8202f8850d12eb2c7d8255f0942ac36246b388f762fdc3ca30e749a1494fda99ee8828a2434d1821bdf8801ca097600855537951e2d93644f9848bfc73f83b6bf22c783cf58f8c5cd8f3fddf9ba034ed47b7c32afe1ede352d0bbb746c50c0673e4cc797e560eedc97bdfadc7bc0",
      "networkId": 0,
      "chainId": 0
    },
    {
      "hash": "0x4fb5afbd4a484e86bea4bf72e904b7e3f6f07beebfc305c5ed1306d69b578f68",
      "blockHash": "0xccd0d8cf49198200c7621e52c701bb0f54464e98ae15836ddfe213385f3f006b",
      "blockNumber": 74245,
      "transactionIndex": 6,
      "confirmations": null,
      "from": "0xe6A7a1d47ff21B6321162AEA7C6CB457D5476Bca",
      "gasPrice": {
        "_hex": "0xd12eb2c7d"
      },
      "gasLimit": {
        "_hex": "0x55f0"
      },
      "to": "0x1918175e6aB029996E0BC00238AeA5f89f3F84ad",
      "value": {
        "_hex": "0x28a6fa293e244d80"
      },
      "nonce": 761,
      "data": "0x",
      "r": "0xba50525f1df8833f47c345e31eb4cef43a918173f1507a44fdd2240692c8fa6a",
      "s": "0x28b7d10ae7b1c04f47144c9c4bfd1cc7698d952260b6af2372a3454914a89529",
      "v": 28,
      "creates": null,
      "raw": "0xf86e8202f9850d12eb2c7d8255f0941918175e6ab029996e0bc00238aea5f89f3f84ad8828a6fa293e244d80801ca0ba50525f1df8833f47c345e31eb4cef43a918173f1507a44fdd2240692c8fa6aa028b7d10ae7b1c04f47144c9c4bfd1cc7698d952260b6af2372a3454914a89529",
      "networkId": 0,
      "chainId": 0
    }
  ]
}