{
  "hash": "0x095103736809cda088df24f2a426e05222e5b20709771127db9a086e4fc3808a",
  "parentHash": "0x9332176009c5c3fd5a8815f8eeaccc81f4ec58e82f27b2c10905096e116019cb",
  "number": 110874,
  "timestamp": 1439981051,
  "nonce": "0xe621a906e6131024",
  "difficulty": 4398923904633,
  "gasLimit": {
    "_hex": "0x2fefd8"
  },
  "gasUsed": {
    "_hex": "0x20fc6"
  },
  "miner": "0xe6A7a1d47ff21B6321162AEA7C6CB457D5476Bca",
  "extraData": "0x476574682f76312e302e312d38326566323666362f6c696e75782f676f312e34",
  "transactions": [
    {
      "hash": "0xecc7927a09ca29a7fc41eb65254a85fafcf0c078b5f7005053622fca395b47ec",
      "blockHash": "0x095103736809cda088df24f2a426e05222e5b20709771127db9a086e4fc3808a",
      "blockNumber": 110874,
      "transactionIndex": 0,
      "confirmations": null,
      "from": "0xb1abce2918E21ddb93AA452731a12672A3d9F75a",
      "gasPrice": {
        "_hex": "0xdd07163bc"
      },
      "gasLimit": {
        "_hex": "0x5208"
      },
      "to": "0x32Be343B94f860124dC4fEe278FDCBD38C102D88",
      "value": {
        "_hex": "0x455f234980800c00"
      },
      "nonce": 170,
      "data": "0x",
      "r": "0x265abb7edadb2751f82ff69eb001c27b60a7be4ff6bfa4c04142076adacd0abe",
      "s": "0x68eec1dd7fec71ab51667793c7e33bde02459ba5902e0cb1e73a1a8efdce7f3a",
      "v": 27,
      "creates": null,
      "raw": "0xf86d81aa850dd07163bc8252089432be343b94f860124dc4fee278fdcbd38c102d8888455f234980800c00801ba0265abb7edadb2751f82ff69eb001c27b60a7be4ff6bfa4c04142076adacd0abea068eec1dd7fec71ab51667793c7e33bde02459ba5902e0cb1e73a1a8efdce7f3a",
      "networkId": 0,
      "chainId": 0
    },
    {
      "hash": "0x87374f017054d28426539fbaa06db9947873657706a3f7ddb29878c13b73c227",
      "blockHash": "0x095103736809cda088df24f2a426e05222e5b20709771127db9a086e4fc3808a",
      "blockNumber": 110874,
      "transactionIndex": 1,
      "confirmations": null,
      "from": "0xB049F571999Ac8804af508C2F72347E46d06B34b",
      "gasPrice": {
        "_hex": "0xcd742be3e"
      },
      "gasLimit": {
        "_hex": "0x249f0"
      },
      "to": "0xE28e72FCf78647ADCe1F1252F240bbfaebD63BcC",
      "value": {
        "_hex": "0x1bc16d674ec80000"
      },
      "nonce": 0,
      "data": "0x45466f3a",
      "r": "0x79ab7afec98996f4b5b226e42bc447bb4d1e96bcc109b6300884fd2c4d6dbf98",
      "s": "0x57f41dac1017a8f45fabb1b7d3407fe6cc83466dc3c03ca96502765ba7707053",
      "v": 27,
      "creates": null,
      "raw": "0xf87180850cd742be3e830249f094e28e72fcf78647adce1f1252f240bbfaebd63bcc881bc16d674ec800008445466f3a1ba079ab7afec98996f4b5b226e42bc447bb4d1e96bcc109b6300884fd2c4d6dbf98a057f41dac1017a8f45fabb1b7d3407fe6cc83466dc3c03ca96502765ba7707053",
      "networkId": 0,
      "chainId": 0
    }
  ]
}