{
  "hash": "0x473ccb82ce36aad7e86fdb92cab510097fc2b91ff6209d1f89bbfced0d17a0e1",
  "parentHash": "0xbbd27c055203866a629320dfb4780102fdb345f48cf4e87fdc289868862d324c",
  "number": 68398,
  "timestamp": 1439287094,
  "nonce": "0x5f35951ff6b0428f",
  "difficulty": 2022221892901,
  "gasLimit": {
    "_hex": "0x2fefd8"
  },
  "gasUsed": {
    "_hex": "0x42a68"
  },
  "miner": "0xeB1325C8D9d3ea8D74aC11F4B00F1B2367686319",
  "extraData": "0x476574682f76312e302e312f77696e646f77732f676f312e342e32",
  "transactions": [
    {
      "hash": "0x64ec2796ccc7408ccaea04e5c082c1d52bb73263365638ce150c3093787bf4a4",
      "blockHash": "0x473ccb82ce36aad7e86fdb92cab510097fc2b91ff6209d1f89bbfced0d17a0e1",
      "blockNumber": 68398,
      "transactionIndex": 0,
      "confirmations": null,
      "from": "0xFe729BA7A9aD11a82E0110F87E4c68356b9CAB12",
      "gasPrice": {
        "_hex": "0xba43b7400"
      },
      "gasLimit": {
        "_hex": "0x5208"
      },
      "to": "0x406A7611E7E28B0Cf88aC1eF2F643f932252d374",
      "value": {
        "_hex": "0x36ef271c4dd000"
      },
      "nonce": 1,
      "data": "0x",
      "r": "0xc28adc62383e22355d33916c9aacdcb7dbf9bf2d751ce2b6ed0a22abfb2fad58",
      "s": "0x15fa8ccf6bedb9c747a2b881699928208348e1042c56f946067500a52456e819",
      "v": 28,
      "creates": null,
      "raw": "0xf86b01850ba43b740082520894406a7611e7e28b0cf88ac1ef2f643f932252d3748736ef271c4dd000801ca0c28adc62383e22355d33916c9aacdcb7dbf9bf2d751ce2b6ed0a22abfb2fad58a015fa8ccf6bedb9c747a2b881699928208348e1042c56f946067500a52456e819",
      "networkId": 0,
      "chainId": 0
    },
    {
      "hash": "0xcf5779d7389accc5c5af5294602b584435aed3a4c93d308a55478c3b63be447e",
      "blockHash": "0x473ccb82ce36aad7e86fdb92cab510097fc2b91ff6209d1f89bbfced0d17a0e1",
      "blockNumber": 68398,
      "transactionIndex": 1,
      "confirmations": null,
      "from": "0x2184B657a1010bC92b08E6326f75B57166722EE2",
      "gasPrice": {
        "_hex": "0xba43b7400"
      },
      "gasLimit": {
        "_hex": "0x5208"
      },
      "to": "0x5FF6Cef5FdbeAf861Ac25f63aa65dE7e1D3dd1C8",
      "value": {
        "_hex": "0x36ef271c4dd000"
      },
      "nonce": 1,
      "data": "0x",
      "r": "0x1c0c74516147755419678c0869f0ade01e1bc3fda00c6ef52b9889b5e5fe7c90",
      "s": "0x3532e61287f0d2948181dc7cbb87429dbef7a7e98f2db4de7feffbf290963eb3",
      "v": 28,
      "creates": null,
      "raw": "0xf86b01850ba43b7400825208945ff6cef5fdbeaf861ac25f63aa65de7e1d3dd1c88736ef271c4dd000801ca01c0c74516147755419678c0869f0ade01e1bc3fda00c6ef52b9889b5e5fe7c90a03532e61287f0d2948181dc7cbb87429dbef7a7e98f2db4de7feffbf290963eb3",
      "networkId": 0,
      "chainId": 0
    },
    {
      "hash": "0xa47e6cddb814614bf4817339aa53b841f33a014d94c845706f6283049cd89a95",
      "blockHash": "0x473ccb82ce36aad7e86fdb92cab510097fc2b91ff6209d1f89bbfced0d17a0e1",
      "blockNumber": 68398,
      "transactionIndex": 2,
      "confirmations": null,
      "from": "0x984D69f1171cB445d187BFC333bABfaeAaCCf008",
      "gasPrice": {
        "_hex": "0xba43b7400"
      },
      "gasLimit": {
        "_hex": "0x5208"
      },
      "to": "0x55D2b208F6bE7BAFfb8cb2a5B5da732575aB6C52",
      "value": {
        "_hex": "0x36ef271c4dd000"
      },
      "nonce": 1,
      "data": "0x",
      "r": "0xd0ca1c1091b91a4baecae9e7966bc2b3e05fc2bb8eb84640be99182728952be1",
      "s": "0x5bfb00be302bc1ece84de97059f68da19235fba52b0bb3549bc23936d51795f5",
      "v": 28,
      "creates": null,
      "raw": "0xf86b01850ba43b74008252089455d2b208f6be7baffb8cb2a5b5da732575ab6c528736ef271c4dd000801ca0d0ca1c1091b91a4baecae9e7966bc2b3e05fc2bb8eb84640be99182728952be1a05bfb00be302bc1ece84de97059f68da19235fba52b0bb3549bc23936d51795f5",
      "networkId": 0,
      "chainId": 0
    },
    {
      "hash": "0x6f4a523c88b3f5c4ee5b1fda0d626459113d94ad5671e3de1e0d58a653e510e6",
      "blockHash": "0x473ccb82ce36aad7e86fdb92cab510097fc2b91ff6209d1f89bbfced0d17a0e1",
      "blockNumber": 68398,
      "transactionIndex": 3,
      "confirmations": null,
      "from": "0x77483015A682cE2635b3334C787F04C031E1659E",
      "gasPrice": {
        "_hex": "0xba43b7400"
      },
      "gasLimit": {
        "_hex": "0x5208"
      },
      "to": "0x6ba3788a162D9A7d4a02417f7538C0b9b8BF057b",
      "value": {
        "_hex": "0x36ef271c4dd000"
      },
      "nonce": 1,
      "data": "0x",
      "r": "0xb73e5984add3b3b04756ab39855d9654df723d7308c128e040827ba47cf98b89",
      "s": "0x33eed2f2494d7d9b28f66ca7d36b9faab5bae0054c2cb83a56e874819f60be54",
      "v": 27,
      "creates": null,
      "raw": "0xf86b01850ba43b7400825208946ba3788a162d9a7d4a02417f7538c0b9b8bf057b8736ef271c4dd000801ba0b73e5984add3b3b04756ab39855d9654df723d7308c128e040827ba47cf98b89a033eed2f2494d7d9b28f66ca7d36b9faab5bae0054c2cb83a56e874819f60be54",
      "networkId": 0,
      "chainId": 0
    },
    {
      "hash": "0xf5a31f3f44b9fad1f2ee2895b10441bbb89acfcaea265b26ca87a5cb18c5845b",
      "blockHash": "0x473ccb82ce36aad7e86fdb92cab510097fc2b91ff6209d1f89bbfced0d17a0e1",
      "blockNumber": 68398,
      "transactionIndex": 4,
      "confirmations": null,
      "from": "0x7deB6B0CA66094cFEDD3ad019AE6A2611e83AfF5",
      "gasPrice": {
        "_hex": "0xba43b7400"
      },
      "gasLimit": {
        "_hex": "0x5208"
      },
      "to": "0xE311c7f65F3A18Fbb96CA22ec6E3c5Ca2f124762",
      "value": {
        "_hex": "0x36ef271c4dd000"
      },
      "nonce": 1,
      "data": "0x",
      "r": "0x7c41884dac6b39f9a7253c3ef566f430d9c5b48d3214ab90036f07b63ace3e7f",
      "s": "0x421b66263c0cb4224583e95eaa39afec1360d87c237c142f79fafe268e12f006",
      "v": 28,
      "creates": null,
      "raw": "0xf86b01850ba43b740082520894e311c7f65f3a18fbb96ca22ec6e3c5ca2f1247628736ef271c4dd000801ca07c41884dac6b39f9a7253c3ef566f430d9c5b48d3214ab90036f07b63ace3e7fa0421b66263c0cb4224583e95eaa39afec1360d87c237c142f79fafe268e12f006",
      "networkId": 0,
      "chainId": 0
    },
    {
      "hash": "0xd98550d39cbcf808132a7832fff6c8dc3453bd20a2f5410da24ccf58f66426ca",
      "blockHash": "0x473ccb82ce36aad7e86fdb92cab510097fc2b91ff6209d1f89bbfced0d17a0e1",
      "blockNumber": 68398,
      "transactionIndex": 5,
      "confirmations": null,
      "from": "0xCF08332a35Bdc67B55489bc60141431345DF0bcD",
      "gasPrice": {
        "_hex": "0xba43b7400"
      },
      "gasLimit": {
        "_hex": "0x5208"
      },
      "to": "0x4E4C61481E64ECaa95FB2C99a986C369c51A2518",
      "value": {
        "_hex": "0x36ef271c4dd000"
      },
      "nonce": 1,
      "data": "0x",
      "r": "0xcaecbf8c64e2d70737f4f135b851103312b610d1d05d83c0dea0ab9b53a3d6a9",
      "s": "0x12ba85441c7f7cbe00b3c2069f789a3f6afc69afd5f44d6ec416c6bc2f655c57",
      "v": 28,
      "creates": null,
      "raw": "0xf86b01850ba43b7400825208944e4c61481e64ecaa95fb2c99a986c369c51a25188736ef271c4dd000801ca0caecbf8c64e2d70737f4f135b851103312b610d1d05d83c0dea0ab9b53a3d6a9a012ba85441c7f7cbe00b3c2069f789a3f6afc69afd5f44d6ec416c6bc2f655c57",
      "networkId": 0,
      "chainId": 0
    },
    {
      "hash": "0x21a98d55394832e24830effa59eb5a746a9b65ccdae7c9b16924ae18ef77e2ec",
      "blockHash": "0x473ccb82ce36aad7e86fdb92cab510097fc2b91ff6209d1f89bbfced0d17a0e1",
      "blockNumber": 68398,
      "transactionIndex": 6,
      "confirmations": null,
      "from": "0x3143fA328e05F99113904F92536271aDEF73D775",
      "gasPrice": {
        "_hex": "0xba43b7400"
      },
      "gasLimit": {
        "_hex": "0x5208"
      },
      "to": "0x11DD2528C4DAb917CABb57d4F233A846a9772858",
      "value": {
        "_hex": "0x36ef271c4dd000"
      },
      "nonce": 1,
      "data": "0x",
      "r": "0x8e27fdb1d23e308a346ef2702b30ca7cca2b944cd97e4a00831e98a1feb8d846",
      "s": "0x15e9c702c84cbf6a54b86ef699ea71df2d442ab0f763cbf8dbe6c3bb62756f29",
      "v": 28,
      "creates": null,
      "raw": "0xf86b01850ba43b74008252089411dd2528c4dab917cabb57d4f233a846a97728588736ef271c4dd000801ca08e27fdb1d23e308a346ef2702b30ca7cca2b944cd97e4a00831e98a1feb8d846a015e9c702c84cbf6a54b86ef699ea71df2d442ab0f763cbf8dbe6c3bb62756f29",
      "networkId": 0,
      "chainId": 0
    },
    {
      "hash": "0xe07215dc839d28170dae00eac0933f8bc4b7b701caebe8c40883f6c811a5d3f9",
      "blockHash": "0x473ccb82ce36aad7e86fdb92cab510097fc2b91ff6209d1f89bbfced0d17a0e1",
      "blockNumber": 68398,
      "transactionIndex": 7,
      "confirmations": null,
      "from": "0x1cf57eFfB12e67B10Ff358A70D157A46Ea98A2f0",
      "gasPrice": {
        "_hex": "0xba43b7400"
      },
      "gasLimit": {
        "_hex": "0x5208"
      },
      "to": "0x5E1CA7DB367c6c1983fd97C5ED748aAB7030aAe4",
      "value": {
        "_hex": "0x36ef271c4dd000"
      },
      "nonce": 1,
      "data": "0x",
      "r": "0xf6daa31b330b872c6504878aa0d715a7157a05a7b1653bf822b76dfcc8ea13c4",
      "s": "0x406ec455836764001494f07283a694b79717b67cc98aeb59c8a9ca3895f184cb",
      "v": 28,
      "creates": null,
      "raw": "0xf86b01850ba43b7400825208945e1ca7db367c6c1983fd97c5ed748aab7030aae48736ef271c4dd000801ca0f6daa31b330b872c6504878aa0d715a7157a05a7b1653bf822b76dfcc8ea13c4a0406ec455836764001494f07283a694b79717b67cc98aeb59c8a9ca3895f184cb",
      "networkId": 0,
      "chainId": 0
    },
    {
      "hash": "0x3f2f75b3106162bcd17c1e8ea920e19d9c6bbd77c6dc0bf446bf2355a19a518e",
      "blockHash": "0x473ccb82ce36aad7e86fdb92cab510097fc2b91ff6209d1f89bbfced0d17a0e1",
      "blockNumber": 68398,
      "transactionIndex": 8,
      "confirmations": null,
      "from": "0x524102646Db37316062849166e6F9529A2c5e5B3",
      "gasPrice": {
        "_hex": "0xba43b7400"
      },
      "gasLimit": {
        "_hex": "0x5208"
      },
      "to": "0x6d7EA1b3775ea837d07a0CFcB69F47090bB2D752",
      "value": {
        "_hex": "0x36ef271c4dd000"
      },
      "nonce": 1,
      "data": "0x",
      "r": "0x174353fb9a21489b8a4bbeb5a0817a72fcb5a079a22939e9745820d1ef079743",
      "s": "0x28db545ef56e1bb93378186c017f682ffec39d775865d08e841ee877d0d24b91",
      "v": 27,
      "creates": null,
      "raw": "0xf86b01850ba43b7400825208946d7ea1b3775ea837d07a0cfcb69f47090bb2d7528736ef271c4dd000801ba0174353fb9a21489b8a4bbeb5a0817a72fcb5a079a22939e9745820d1ef079743a028db545ef56e1bb93378186c017f682ffec39d775865d08e841ee877d0d24b91",
      "networkId": 0,
      "chainId": 0
    },
    {
      "hash": "0xe7a82bcf1398fc6ae04fd5078329096337d5b8a0e60496336f262f3eff5fae21",
      "blockHash": "0x473ccb82ce36aad7e86fdb92cab510097fc2b91ff6209d1f89bbfced0d17a0e1",
      "blockNumber": 68398,
      "transactionIndex": 9,
      "confirmations": null,
      "from": "0x88f27f9057c1E94894CCaD3ec5aB9416EBd2C2c9",
      "gasPrice": {
        "_hex": "0xba43b7400"
      },
      "gasLimit": {
        "_hex": "0x5208"
      },
      "to": "0xFCCA4969B9242c9c8a63c1314e6A50CFbc9EB38D",
      "value": {
        "_hex": "0x36ef271c4dd000"
      },
      "nonce": 1,
      "data": "0x",
      "r": "0xbba5778d0e0228d6ff966a2b148fcfe5b767f79522958441f460ae04494d66df",
      "s": "0x2407e80d53ccdc021d4b6703f64511d535d557b2aa2293353b0455059d4d95b4",
      "v": 27,
      "creates": null,
      "raw": "0xf86b01850ba43b740082520894fcca4969b9242c9c8a63c1314e6a50cfbc9eb38d8736ef271c4dd000801ba0bba5778d0e0228d6ff966a2b148fcfe5b767f79522958441f460ae04494d66dfa02407e80d53ccdc021d4b6703f64511d535d557b2aa2293353b0455059d4d95b4",
      "networkId": 0,
      "chainId": 0
    },
    {
      "hash": "0xa3f5ce7ca3ba53dd5f297750ea9796b07f0995a154b568faf29bc71a9dcbff21",
      "blockHash": "0x473ccb82ce36aad7e86fdb92cab510097fc2b91ff6209d1f89bbfced0d17a0e1",
      "blockNumber": 68398,
      "transactionIndex": 10,
      "confirmations": null,
      "from": "0x81dE0f13109B2Fa6c1eA283262DC17648C87795C",
      "gasPrice": {
        "_hex": "0xba43b7400"
      },
      "gasLimit": {
        "_hex": "0x5208"
      },
      "to": "0xa059797A13e68B21EF287b020168cb91EE7Ba15d",
      "value": {
        "_hex": "0x36ef271c4dd000"
      },
      "nonce": 1,
      "data": "0x",
      "r": "0x60b420125155aa049144c62fd1e8b8795b0cc4f34b3024665ed546a6317c519b",
      "s": "0x5e753d16c23e98c28fe467986b39aacec9be58ca0c012cc1cf4a9b684ec415bd",
      "v": 28,
      "creates": null,
      "raw": "0xf86b01850ba43b740082520894a059797a13e68b21ef287b020168cb91ee7ba15d8736ef271c4dd000801ca060b420125155aa049144c62fd1e8b8795b0cc4f34b3024665ed546a6317c519ba05e753d16c23e98c28fe467986b39aacec9be58ca0c012cc1cf4a9b684ec415bd",
      "networkId": 0,
      "chainId": 0
    },
    {
      "hash": "0x8477b4bc490e42e1ff28a89d8f52d7314d7b82c7f369934cf6077fd865c3424b",
      "blockHash": "0x473ccb82ce36aad7e86fdb92cab510097fc2b91ff6209d1f89bbfced0d17a0e1",
      "blockNumber": 68398,
      "transactionIndex": 11,
      "confirmations": null,
      "from": "0x33f942dF54E2DAC463d8807198dd0B67D3762e0f",
      "gasPrice": {
        "_hex": "0xba43b7400"
      },
      "gasLimit": {
        "_hex": "0x5208"
      },
      "to": "0x373D5F7e47a3b8E78223F0A11886dd777885C7ad",
      "value": {
        "_hex": "0x36ef271c4dd000"
      },
      "nonce": 1,
      "data": "0x",
      "r": "0xc2f8e7c0c50ed9238e5bafc72574ae1234db341e90ee476cff6d658bac25d92c",
      "s": "0x45194d9b40df4eec39f003f696aef04223ed915145455505b685c81651b6218a",
      "v": 27,
      "creates": null,
      "raw": "0xf86b01850ba43b740082520894373d5f7e47a3b8e78223f0a11886dd777885c7ad8736ef271c4dd000801ba0c2f8e7c0c50ed9238e5bafc72574ae1234db341e90ee476cff6d658bac25d92ca045194d9b40df4eec39f003f696aef04223ed915145455505b685c81651b6218a",
      "networkId": 0,
      "chainId": 0
    },
    {
      "hash": "0x3ba75a54ec955cb1de1557e6adacd0fbc10ec5edec92527e68d136d2331bbe34",
      "blockHash": "0x473ccb82ce36aad7e86fdb92cab510097fc2b91ff6209d1f89bbfced0d17a0e1",
      "blockNumber": 68398,
      "transactionIndex": 12,
      "confirmations": null,
      "from": "0xeC2A4955EB83DDB76F5569FD0EC70A8cfD2ba2c2",
      "gasPrice": {
        "_hex": "0xba43b7400"
      },
      "gasLimit": {
        "_hex": "0x5208"
      },
      "to": "0x4491CaA6f6DE23F04BEb1B3924b09f17A488dCD6",
      "value": {
        "_hex": "0x36ef271c4dd000"
      },
      "nonce": 1,
      "data": "0x",
      "r": "0x1e1fa2449285020a5f5676f7049e67d550f87c723f286e797535e4a49859357a",
      "s": "0x6ad2dccdd7577b3167095d516c539823df861f7237f4aaefbf2ecca8e87050ba",
      "v": 27,
      "creates": null,
      "raw": "0xf86b01850ba43b7400825208944491caa6f6de23f04beb1b3924b09f17a488dcd68736ef271c4dd000801ba01e1fa2449285020a5f5676f7049e67d550f87c723f286e797535e4a49859357aa06ad2dccdd7577b3167095d516c539823df861f7237f4aaefbf2ecca8e87050ba",
      "networkId": 0,
      "chainId": 0
    }
  ]
}