{
  "hash": "0xc33c31577e1a6c475a9af33ab69654147bca7510c3918379d4bd704ddb84e13a",
  "parentHash": "0xa5fcf54d7d1d7ba6aa106fa1eb34f09a463021dc56159c50bf6b6aab893f7019",
  "number": 97083,
  "timestamp": 1439750478,
  "nonce": "0xbc57640fafe2fb81",
  "difficulty": 3759599893972,
  "gasLimit": {
    "_hex": "0x2fefd8"
  },
  "gasUsed": {
    "_hex": "0xa410"
  },
  "miner": "0x2A3F19679f91609819922113bCFC01Af8b820e02",
  "extraData": "0x",
  "transactions": [
    {
      "hash": "0x7bd0960e29b5ac80a463329d2f8f1e194e5308d7f6140ac78e06443ef722fbfe",
      "blockHash": "0xc33c31577e1a6c475a9af33ab69654147bca7510c3918379d4bd704ddb84e13a",
      "blockNumber": 97083,
      "transactionIndex": 0,
      "confirmations": null,
      "from": "0x32Be343B94f860124dC4fEe278FDCBD38C102D88",
      "gasPrice": {
        "_hex": "0xdc0924b52"
      },
      "gasLimit": {
        "_hex": "0x5208"
      },
      "to": "0x888285790B0b6Cc7FDE84EDdd77A1b2B29089a99",
      "value": {
        "_hex": "0xb2332b8cef61e0000"
      },
      "nonce": 1020,
      "data": "0x",
      "r": "0x7e50f9c8e66bcb4e907f80a61b2602f96eb4541ca8bc1623914b902884444ef5",
      "s": "0x5b676845a5fc79c012f0f34a352eeffb30dd941c9f0eaa000bbfbddd4ac54f3d",
      "v": 27,
      "creates": null,
      "raw": "0xf86f8203fc850dc0924b5282520894888285790b0b6cc7fde84eddd77a1b2b29089a99890b2332b8cef61e0000801ba07e50f9c8e66bcb4e907f80a61b2602f96eb4541ca8bc1623914b902884444ef5a05b676845a5fc79c012f0f34a352eeffb30dd941c9f0eaa000bbfbddd4ac54f3d",
      "networkId": 0,
      "chainId": 0
    },
    {
      "hash": "0xee1a68d4966164fd0e78b3b67f31bdf1a9c2ffb13d848e9cf43b4a6a04854c85",
      "blockHash": "0xc33c31577e1a6c475a9af33ab69654147bca7510c3918379d4bd704ddb84e13a",
      "blockNumber": 97083,
      "transactionIndex": 1,
      "confirmations": null,
      "from": "0x32Be343B94f860124dC4fEe278FDCBD38C102D88",
      "gasPrice": {
        "_hex": "0xdc0924b52"
      },
      "gasLimit": {
        "_hex": "0x5208"
      },
      "to": "0x08AC238802993c65eF73c3f2505d00F8C2342350",
      "value": {
        "_hex": "0xdbd2fc137a30000"
      },
      "nonce": 1021,
      "data": "0x",
      "r": "0x9b4d2a39dbad64262d4988bc78a79826f6b37a38fafc4b529606c7874fc0beb1",
      "s": "0x1f7db9b034bc5b16501cce6df9318d3b26fd00d9a87559082ff59cff5b6ed9df",
      "v": 27,
      "creates": null,
      "raw": "0xf86e8203fd850dc0924b528252089408ac238802993c65ef73c3f2505d00f8c2342350880dbd2fc137a30000801ba09b4d2a39dbad64262d4988bc78a79826f6b37a38fafc4b529606c7874fc0beb1a01f7db9b034bc5b16501cce6df9318d3b26fd00d9a87559082ff59cff5b6ed9df",
      "networkId": 0,
      "chainId": 0
    }
  ]
}