{
  "hash": "0xfeff5d6aa57bcf65163986bf99e0fc79bd9f439d35ac149d66e43d3ab94b79d6",
  "parentHash": "0x30df6d9a9261e2be7377befe2afad2756107ec81e92e87e6a15f67e2e826d5ec",
  "number": 100068,
  "timestamp": 1439800086,
  "nonce": "0x20b71de0ff101fa4",
  "difficulty": 3853026897411,
  "gasLimit": {
    "_hex": "0x2fefd8"
  },
  "gasUsed": {
    "_hex": "0x5208"
  },
  "miner": "0xeB1325C8D9d3ea8D74aC11F4B00F1B2367686319",
  "extraData": "0x",
  "transactions": [
    {
      "hash": "0x0c25db46c25e2389b45e1abf9fa19af2c11a22d00d13243fc7fbcfa21fab04cd",
      "blockHash": "0xfeff5d6aa57bcf65163986bf99e0fc79bd9f439d35ac149d66e43d3ab94b79d6",
      "blockNumber": 100068,
      "transactionIndex": 0,
      "confirmations": null,
      "from": "0xD924AAC0bCB65C13bE4044f6BeA8aAe34D7a7126",
      "gasPrice": {
        "_hex": "0xd5fe783f9"
      },
      "gasLimit": {
        "_hex": "0x5208"
      },
      "to": "0x32Be343B94f860124dC4fEe278FDCBD38C102D88",
      "value": {
        "_hex": "0x7ab5641d33ef8000"
      },
      "nonce": 7,
      "data": "0x",
      "r": "0xbf0c21bed625d30d3622d0f2ce0aff91ac852a5b5878810c4eb6bb2b513f6356",
      "s": "0x6453d7dbedc0c8145ad1d0ddfda32f6ab481d9116119d3bb5ede94c0b787a681",
      "v": 27,
      "creates": null,
      "raw": "0xf86c07850d5fe783f98252089432be343b94f860124dc4fee278fdcbd38c102d88887ab5641d33ef8000801ba0bf0c21bed625d30d3622d0f2ce0aff91ac852a5b5878810c4eb6bb2b513f6356a06453d7dbedc0c8145ad1d0ddfda32f6ab481d9116119d3bb5ede94c0b787a681",
      "networkId": 0,
      "chainId": 0
    }
  ]
}