{
  "hash": "0x5cd300e4fee34f9c49bc3ea2e0018bf8c1a6d5998b53870d65d019759b1ea65d",
  "parentHash": "0xdec8f4666beab615cc1955426b853dee207b05c5f1de92c094bd76796475e979",
  "number": 91581,
  "timestamp": 1439657999,
  "nonce": "0x6a08fafb7dbe4563",
  "difficulty": 3496373319545,
  "gasLimit": {
    "_hex": "0x2fefd8"
  },
  "gasUsed": {
    "_hex": "0x5208"
  },
  "miner": "0x88D74a59454F6cF3B51ef6b9136AFb6b9D405A88",
  "extraData": "0x476574682f76312e302e312d37666266393930632f6c696e75782f676f312e34",
  "transactions": [
    {
      "hash": "0xf6210eae227b1bb9006601953fb25c1bd104336c3c10d4878615682fd520bb78",
      "blockHash": "0x5cd300e4fee34f9c49bc3ea2e0018bf8c1a6d5998b53870d65d019759b1ea65d",
      "blockNumber": 91581,
      "transactionIndex": 0,
      "confirmations": null,
      "from": "0x2910543Af39abA0Cd09dBb2D50200b3E800A63D2",
      "gasPrice": {
        "_hex": "0xd48bab05a"
      },
      "gasLimit": {
        "_hex": "0x5208"
      },
      "to": "0x4319859681be12b36f4420F4A26FD67429306cD1",
      "value": {
        "_hex": "0x8e1aedf9ac6231c000"
      },
      "nonce": 810,
      "data": "0x",
      "r": "0x82cef6a9dbad90ab62728f205f00c9c1637014cead666631ce5ed004f9999505",
      "s": "0x4e9aa25cae1c0f00fe03591851e4736548c9b78bb9e42d673e7e5ef7a8845af3",
      "v": 27,
      "creates": null,
      "raw": "0xf86f82032a850d48bab05a825208944319859681be12b36f4420f4a26fd67429306cd1898e1aedf9ac6231c000801ba082cef6a9dbad90ab62728f205f00c9c1637014cead666631ce5ed004f9999505a04e9aa25cae1c0f00fe03591851e4736548c9b78bb9e42d673e7e5ef7a8845af3",
      "networkId": 0,
      "chainId": 0
    }
  ]
}