{
  "hash": "0x14dbf37540d27b100d30afbd9991d546a55d830183f96acaf3587234fc543d11",
  "parentHash": "0x7c160278f82069f8dfe30a0dc972660009212c48c68bcac39a49af39d185fb4c",
  "number": 80949,
  "timestamp": 1439493675,
  "nonce": "0xd0ed19c4c7da2b63",
  "difficulty": 2448735495158,
  "gasLimit": {
    "_hex": "0x2fefd8"
  },
  "gasUsed": {
    "_hex": "0xf87c"
  },
  "miner": "0xF2d2AfF1320476cb8C6b607199D23175cc595693",
  "extraData": "0x476574682f76312e302e312f77696e646f77732f676f312e342e32",
  "transactions": [
    {
      "hash": "0x59f72385ff045dbad67be34087399fedfb4e339dc3d0b9ce459d79405078eb06",
      "blockHash": "0x14dbf37540d27b100d30afbd9991d546a55d830183f96acaf3587234fc543d11",
      "blockNumber": 80949,
      "transactionIndex": 0,
      "confirmations": null,
      "from": "0xb7A7F77C348F92a9F1100C6bD829a8Ac6D7fCf91",
      "gasPrice": {
        "_hex": "0x110c8f7d8de"
      },
      "gasLimit": {
        "_hex": "0xc350"
      },
      "to": "0x2910543Af39abA0Cd09dBb2D50200b3E800A63D2",
      "value": {
        "_hex": "0x2559cbb98584240000"
      },
      "nonce": 3,
      "data": "0x454e54315859434647",
      "r": "0x47425bf8efc5425eeb6523e5b10cc71d460dac048c5f820e190550de13727788",
      "s": "0xf3626bd60fe61ce9ae5099fa83412d58bbd31eee26360ee213d51d6cb9fc7072",
      "v": 27,
      "creates": null,
      "raw": "0xf87703860110c8f7d8de82c350942910543af39aba0cd09dbb2d50200b3e800a63d2892559cbb9858424000089454e543158594346471ba047425bf8efc5425eeb6523e5b10cc71d460dac048c5f820e190550de13727788a0f3626bd60fe61ce9ae5099fa83412d58bbd31eee26360ee213d51d6cb9fc7072",
      "networkId": 0,
      "chainId": 0
    },
    {
      "hash": "0xda382baf5cedfb9b1cdd93d5ccbb94c470f0159f6b7cdd80f7ac955347d216b0",
      "blockHash": "0x14dbf37540d27b100d30afbd9991d546a55d830183f96acaf3587234fc543d11",
      "blockNumber": 80949,
      "transactionIndex": 1,
      "confirmations": null,
      "from": "0x2910543Af39abA0Cd09dBb2D50200b3E800A63D2",
      "gasPrice": {
        "_hex": "0xd7d9a3207"
      },
      "gasLimit": {
        "_hex": "0x5208"
      },
      "to": "0x19ae27E1b61445EB9f27821A5eB4b3e957319e7e",
      "value": {
        "_hex": "0x3635b7ea4ca6bf8000"
      },
      "nonce": 421,
      "data": "0x",
      "r": "0xc1e4a17d7504ee6cd45145427df21e264910d574997836f1d23eacd6a953c096",
      "s": "0x64fd5839f189cafef399c6572b9c477e1044a6d46d1554ac8d42fc864fbccd33",
      "v": 27,
      "creates": null,
      "raw": "0xf86f8201a5850d7d9a32078252089419ae27e1b61445eb9f27821a5eb4b3e957319e7e893635b7ea4ca6bf8000801ba0c1e4a17d7504ee6cd45145427df21e264910d574997836f1d23eacd6a953c096a064fd5839f189cafef399c6572b9c477e1044a6d46d1554ac8d42fc864fbccd33",
      "networkId": 0,
      "chainId": 0
    },
    {
      "hash": "0xc6a730bbde851fe8b931e997fa4d86565581c45b44915286bf391bb8e62f298e",
      "blockHash": "0x14dbf37540d27b100d30afbd9991d546a55d830183f96acaf3587234fc543d11",
      "blockNumber": 80949,
      "transactionIndex": 2,
      "confirmations": null,
      "from": "0x2910543Af39abA0Cd09dBb2D50200b3E800A63D2",
      "gasPrice": {
        "_hex": "0xd7d9a3207"
      },
      "gasLimit": {
        "_hex": "0x5208"
      },
      "to": "0xFB1d67d93cB45D7EFa82eb11396733d75C2C0F3A",
      "value": {
        "_hex": "0x6c6b819812855f8000"
      },
      "nonce": 422,
      "data": "0x",
      "r": "0x0aa465d459f092b33be826eb26db410270adc10d286e4807846b8dfaa486eb0c",
      "s": "0x4e9e9ee1093cc92da3dfb394001a6523c28131d38c05372b7d2cf1edfb341917",
      "v": 27,
      "creates": null,
      "raw": "0xf86f8201a6850d7d9a320782520894fb1d67d93cb45d7efa82eb11396733d75c2c0f3a896c6b819812855f8000801ba00aa465d459f092b33be826eb26db410270adc10d286e4807846b8dfaa486eb0ca04e9e9ee1093cc92da3dfb394001a6523c28131d38c05372b7d2cf1edfb341917",
      "networkId": 0,
      "chainId": 0
    }
  ]
}