{
  "hash": "0xe3e2c8e872d3898dd9898b6d53d71e405f2007347614b05a88e151f1000e325b",
  "parentHash": "0x4c341087af57add1610b857eb100592750337215ae8557d17b5e87aaa29cd63c",
  "number": 84924,
  "timestamp": 1439556304,
  "nonce": "0x3c90c17c2e1cdb65",
  "difficulty": 2686823487097,
  "gasLimit": {
    "_hex": "0x2fefd8"
  },
  "gasUsed": {
    "_hex": "0xa410"
  },
  "miner": "0xe6A7a1d47ff21B6321162AEA7C6CB457D5476Bca",
  "extraData": "0x476574682f76312e302e312d38326566323666362f6c696e75782f676f312e34",
  "transactions": [
    {
      "hash": "0xead944e6366a6906b7775247612a4e955e212dc2907005ded8a439bbf9eca124",
      "blockHash": "0xe3e2c8e872d3898dd9898b6d53d71e405f2007347614b05a88e151f1000e325b",
      "blockNumber": 84924,
      "transactionIndex": 0,
      "confirmations": null,
      "from": "0x3AF05A4d613476D483A68D0B1a6Fdf4eb61644e2",
      "gasPrice": {
        "_hex": "0xd7ed28bc0"
      },
      "gasLimit": {
        "_hex": "0x5208"
      },
      "to": "0x32Be343B94f860124dC4fEe278FDCBD38C102D88",
      "value": {
        "_hex": "0x63bedcaa9a8750000"
      },
      "nonce": 2,
      "data": "0x",
      "r": "0x65f4d6a60cb1b1caf8ad6fb0e0185a5956798fd84efdb7352376ee666ffab4c1",
      "s": "0x49048ce07358d4a551c10f15df243282d5c8ec46595e72a7fd3dd12023aeabc9",
      "v": 28,
      "creates": null,
      "raw": "0xf86d02850d7ed28bc08252089432be343b94f860124dc4fee278fdcbd38c102d8889063bedcaa9a8750000801ca065f4d6a60cb1b1caf8ad6fb0e0185a5956798fd84efdb7352376ee666ffab4c1a049048ce07358d4a551c10f15df243282d5c8ec46595e72a7fd3dd12023aeabc9",
      "networkId": 0,
      "chainId": 0
    },
    {
      "hash": "0x39bf0b51a6ae9c9f7cef03fa00cf078557c8daa2eedfab26b9da6081f7252249",
      "blockHash": "0xe3e2c8e872d3898dd9898b6d53d71e405f2007347614b05a88e151f1000e325b",
      "blockNumber": 84924,
      "transactionIndex": 1,
      "confirmations": null,
      "from": "0x9ecD1Bc07d16eb926077282970FA5240cc983F25",
      "gasPrice": {
        "_hex": "0xd5e1af364"
      },
      "gasLimit": {
        "_hex": "0x5208"
      },
      "to": "0x32Be343B94f860124dC4fEe278FDCBD38C102D88",
      "value": {
        "_hex": "0x15aef59eb752d40000"
      },
      "nonce": 3,
      "data": "0x",
      "r": "0xa46a4dfd2fb9f9419e9643f19e7ba3d5c1ade60625f10fd2685c591dbfd88123",
      "s": "0x3960590ff08ea67da990ab70dadd766a18da37189c4057d6ef72550faff24836",
      "v": 27,
      "creates": null,
      "raw": "0xf86d03850d5e1af3648252089432be343b94f860124dc4fee278fdcbd38c102d888915aef59eb752d40000801ba0a46a4dfd2fb9f9419e9643f19e7ba3d5c1ade60625f10fd2685c591dbfd88123a03960590ff08ea67da990ab70dadd766a18da37189c4057d6ef72550faff24836",
      "networkId": 0,
      "chainId": 0
    }
  ]
}