{
  "hash": "0x59be861b7aaf6878e9aa2e1aceac4d7aa292dc25999bce36b10746f49b1a1f59",
  "parentHash": "0xaa17db75124cbc7cd2e594080fdf9aad187acc7eb0c592fa79bb91ca68533741",
  "number": 98818,
  "timestamp": 1439779524,
  "nonce": "0x532295e3cb2bc232",
  "difficulty": 3857366206732,
  "gasLimit": {
    "_hex": "0x2fefd8"
  },
  "gasUsed": {
    "_hex": "0xa410"
  },
  "miner": "0xeB1325C8D9d3ea8D74aC11F4B00F1B2367686319",
  "extraData": "0x",
  "transactions": [
    {
      "hash": "0x830b289b5e71c477ab7fa1db147ba887a600527d0ada73bcd5edac1be8893ef6",
      "blockHash": "0x59be861b7aaf6878e9aa2e1aceac4d7aa292dc25999bce36b10746f49b1a1f59",
      "blockNumber": 98818,
      "transactionIndex": 0,
      "confirmations": null,
      "from": "0xa70a9a7040d542C632D8e0bE7c5513A8a5Bbc752",
      "gasPrice": {
        "_hex": "0xd7294c2b3"
      },
      "gasLimit": {
        "_hex": "0x5208"
      },
      "to": "0x32Be343B94f860124dC4fEe278FDCBD38C102D88",
      "value": {
        "_hex": "0x8b83802516752000"
      },
      "nonce": 187,
      "data": "0x",
      "r": "0x46d5f3fe615ad77d9ea2d2dcbbc8835b6e40c5761778178c4e4df38a84722bd1",
      "s": "0x148d6459c83006f9129161650856daa2f5f368d50a8ca4a75a29fe3c96652c19",
      "v": 28,
      "creates": null,
      "raw": "0xf86d81bb850d7294c2b38252089432be343b94f860124dc4fee278fdcbd38c102d88888b83802516752000801ca046d5f3fe615ad77d9ea2d2dcbbc8835b6e40c5761778178c4e4df38a84722bd1a0148d6459c83006f9129161650856daa2f5f368d50a8ca4a75a29fe3c96652c19",
      "networkId": 0,
      "chainId": 0
    },
    {
      "hash": "0xef9c6ccbc2ab3d4d642cd1faaff9d1e0b656efce45509101a45a6919d4738798",
      "blockHash": "0x59be861b7aaf6878e9aa2e1aceac4d7aa292dc25999bce36b10746f49b1a1f59",
      "blockNumber": 98818,
      "transactionIndex": 1,
      "confirmations": null,
      "from": "0x50532e4Be195D1dE0c2E6DfA46D9ec0a4Fee6861",
      "gasPrice": {
        "_hex": "0xba43b7400"
      },
      "gasLimit": {
        "_hex": "0x5208"
      },
      "to": "0xC47Aaa860008be6f65B58c6C6E02a84e666EfE31",
      "value": {
        "_hex": "0x4fe888c6905b64f0"
      },
      "nonce": 2,
      "data": "0x",
      "r": "0xdd96028f91af4132b1d98a9bf0cc0587c003dd847cc5668da51ef36172aba7f9",
      "s": "0x03a219dd18ff837059ca8662a8d31980c3144e29be561f2f70c1524a468ef764",
      "v": 28,
      "creates": null,
      "raw": "0xf86c02850ba43b740082520894c47aaa860008be6f65b58c6c6e02a84e666efe31884fe888c6905b64f0801ca0dd96028f91af4132b1d98a9bf0cc0587c003dd847cc5668da51ef36172aba7f9a003a219dd18ff837059ca8662a8d31980c3144e29be561f2f70c1524a468ef764",
      "networkId": 0,
      "chainId": 0
    }
  ]
}