{
  "hash": "0x20f4c76987a12e4eade27c631dc1d574657fa6a2c933b092e0a84e0acc03268f",
  "parentHash": "0x2a07cdfa06a9c9b441b543cea7f0566560f96c93ed9107a1404099f4c1fc32f0",
  "number": 101785,
  "timestamp": 1439827992,
  "nonce": "0x9d3875a26e45af65",
  "difficulty": 3884348004981,
  "gasLimit": {
    "_hex": "0x2fefd8"
  },
  "gasUsed": {
    "_hex": "0x1bdbe"
  },
  "miner": "0xbb7B8287f3F0a933474a79eAe42CBCa977791171",
  "extraData": "0x476574682f4c5649562f76312e302e312f6c696e75782f676f312e342e32",
  "transactions": [
    {
      "hash": "0xe4314c2101e484686bd5132f8e7fa7a1ab0a8abca8adca268d160bcdc6f6d330",
      "blockHash": "0x20f4c76987a12e4eade27c631dc1d574657fa6a2c933b092e0a84e0acc03268f",
      "blockNumber": 101785,
      "transactionIndex": 0,
      "confirmations": null,
      "from": "0xA55d7191414077D72850992A603Fa1db834bfB74",
      "gasPrice": {
        "_hex": "0xd468c1330"
      },
      "gasLimit": {
        "_hex": "0x249f0"
      },
      "to": "0xE28e72FCf78647ADCe1F1252F240bbfaebD63BcC",
      "value": {
        "_hex": "0x2b5e3af16b1880000"
      },
      "nonce": 1,
      "data": "0x45466f3a",
      "r": "0x1cf1f30fb51d3e0dc8aedfdc927dbe21df5889f52cbc8e19c94ad0012eb5a49c",
      "s": "0x18a6e725ff7a6e3f9efe4a61828c75dd67ecbb174ac61373fc259075b126a860",
      "v": 28,
      "creates": null,
      "raw": "0xf87201850d468c1330830249f094e28e72fcf78647adce1f1252f240bbfaebd63bcc8902b5e3af16b18800008445466f3a1ca01cf1f30fb51d3e0dc8aedfdc927dbe21df5889f52cbc8e19c94ad0012eb5a49ca018a6e725ff7a6e3f9efe4a61828c75dd67ecbb174ac61373fc259075b126a860",
      "networkId": 0,
      "chainId": 0
    }
  ]
}