{
  "hash": "0x21c405c860df5d63c0608f673b97dcca9a3a6a21a1a0a5255e35921be4bdb59e",
  "parentHash": "0x498003f7fcc5b7baca9be5c64a47477f6099ae5c906991d20788ca2629323608",
  "number": 98584,
  "timestamp": 1439775387,
  "nonce": "0x36c522df83ae9be8",
  "difficulty": 3853708583596,
  "gasLimit": {
    "_hex": "0x2fefd8"
  },
  "gasUsed": {
    "_hex": "0x5208"
  },
  "miner": "0xe6A7a1d47ff21B6321162AEA7C6CB457D5476Bca",
  "extraData": "0x476574682f76312e302e312d38326566323666362f6c696e75782f676f312e34",
  "transactions": [
    {
      "hash": "0xa2bed106a3477c00640a29c5c391eddb68b23582d40a9152df1e1e11b8aea136",
      "blockHash": "0x21c405c860df5d63c0608f673b97dcca9a3a6a21a1a0a5255e35921be4bdb59e",
      "blockNumber": 98584,
      "transactionIndex": 0,
      "confirmations": null,
      "from": "0xbEA38bF111E15a55f75757B442FcBF8d6fc463EA",
      "gasPrice": {
        "_hex": "0xd5730cf37"
      },
      "gasLimit": {
        "_hex": "0x15f90"
      },
      "to": "0xD9666150A9dA92d9108198a4072970805a8B3428",
      "value": {
        "_hex": "0x853a0d2313c0000"
      },
      "nonce": 1,
      "data": "0x",
      "r": "0x57957d39146647d8b6e36109b7bcd5d372b6caffe32a4902cb98a7114ebbf424",
      "s": "0x345ac1948796eb4270d5664e187fec9bcbfc764d022c2a0fc4dbd05fa306f131",
      "v": 28,
      "creates": null,
      "raw": "0xf86d01850d5730cf3783015f9094d9666150a9da92d9108198a4072970805a8b3428880853a0d2313c0000801ca057957d39146647d8b6e36109b7bcd5d372b6caffe32a4902cb98a7114ebbf424a0345ac1948796eb4270d5664e187fec9bcbfc764d022c2a0fc4dbd05fa306f131",
      "networkId": 0,
      "chainId": 0
    }
  ]
}