{
  "hash": "0xec34546f05b52229486497ad74f00d124c0949b988af719cb771898eeddac025",
  "parentHash": "0x1a702acadec281a276ccb04336154704d11d91fed055f877d45243f6e9fcf2e3",
  "number": 94955,
  "timestamp": 1439716649,
  "nonce": "0x90d58af65c3ce5f2",
  "difficulty": 3515505756528,
  "gasLimit": {
    "_hex": "0x2fefd8"
  },
  "gasUsed": {
    "_hex": "0x5208"
  },
  "miner": "0xe6A7a1d47ff21B6321162AEA7C6CB457D5476Bca",
  "extraData": "0x476574682f76312e302e312d38326566323666362f6c696e75782f676f312e34",
  "transactions": [
    {
      "hash": "0x48acc1e855e9e8a5b5851dd285ad3c9185635d33f4f9478e29f800e2ca2c68b8",
      "blockHash": "0xec34546f05b52229486497ad74f00d124c0949b988af719cb771898eeddac025",
      "blockNumber": 94955,
      "transactionIndex": 0,
      "confirmations": null,
      "from": "0xb1abce2918E21ddb93AA452731a12672A3d9F75a",
      "gasPrice": {
        "_hex": "0xdab378c63"
      },
      "gasLimit": {
        "_hex": "0x5208"
      },
      "to": "0x32Be343B94f860124dC4fEe278FDCBD38C102D88",
      "value": {
        "_hex": "0x455f249b1b3c3000"
      },
      "nonce": 28,
      "data": "0x",
      "r": "0x97df805d91794ec4ad6b050ee6dfe7cc3324904ee9ba43c70ddecf7dcfc7673c",
      "s": "0x632e39b3cfe18818ad9f1cc07e6ac56e6d55bdad3377ff7fa770c45717bdd364",
      "v": 27,
      "creates": null,
      "raw": "0xf86c1c850dab378c638252089432be343b94f860124dc4fee278fdcbd38c102d8888455f249b1b3c3000801ba097df805d91794ec4ad6b050ee6dfe7cc3324904ee9ba43c70ddecf7dcfc7673ca0632e39b3cfe18818ad9f1cc07e6ac56e6d55bdad3377ff7fa770c45717bdd364",
      "networkId": 0,
      "chainId": 0
    }
  ]
}