{
  "hash": "0xf7ac62c9b0b1beff1d6bf7b373a55a93d56257d8d0e1fd968f81cbcede2e505a",
  "parentHash": "0x830344f459941d674183c7dae1205ce3f9225ec428e19afea37cf6778c584c9a",
  "number": 55018,
  "timestamp": 1439064085,
  "nonce": "0xadde0ba087785a31",
  "difficulty": 1622733656455,
  "gasLimit": {
    "_hex": "0x2fefd8"
  },
  "gasUsed": {
    "_hex": "0x5208"
  },
  "miner": "0xeB1325C8D9d3ea8D74aC11F4B00F1B2367686319",
  "extraData": "0x476574682f76312e302e312f77696e646f77732f676f312e342e32",
  "transactions": [
    {
      "hash": "0x114256fec80598858c2b7f84885c896a1fca649713a6e52a2b72ab369da235c5",
      "blockHash": "0xf7ac62c9b0b1beff1d6bf7b373a55a93d56257d8d0e1fd968f81cbcede2e505a",
      "blockNumber": 55018,
      "transactionIndex": 0,
      "confirmations": null,
      "from": "0x562f16d79AbfCec3943E34b20F05F97BdfcDa605",
      "gasPrice": {
        "_hex": "0xcb19bae95"
      },
      "gasLimit": {
        "_hex": "0x15f90"
      },
      "to": "0x60780933D9a5A8e8E3ab20CB6382cd314f04065F",
      "value": {
        "_hex": "0x79c6b099e78a3730"
      },
      "nonce": 5,
      "data": "0x",
      "r": "0xffc4da2870ff3ab8bbdeb972d0519a5504e9828f0924f4f5ea7a871c14db2b13",
      "s": "0x5a27fd5f3ad1bfbf0ceef6bc1eb5f89d4bce41ed352ff31a6268cce0336d189f",
      "v": 28,
      "creates": null,
      "raw": "0xf86d05850cb19bae9583015f909460780933d9a5a8e8e3ab20cb6382cd314f04065f8879c6b099e78a3730801ca0ffc4da2870ff3ab8bbdeb972d0519a5504e9828f0924f4f5ea7a871c14db2b13a05a27fd5f3ad1bfbf0ceef6bc1eb5f89d4bce41ed352ff31a6268cce0336d189f",
      "networkId": 0,
      "chainId": 0
    }
  ]
}