{
  "hash": "0x846b9f7c37a0e280cff90cf8aeb6d4ec6596c8d2fcc14fce287cc9eacb81676e",
  "parentHash": "0x02794c0bbfe7e426d9dae9844748bdbedae1eb75c90196029f6c623f0227c11c",
  "number": 65186,
  "timestamp": 1439232619,
  "nonce": "0x0f0155d122432b2f",
  "difficulty": 1945496571334,
  "gasLimit": {
    "_hex": "0x2fefd8"
  },
  "gasUsed": {
    "_hex": "0x1cee0"
  },
  "miner": "0x47ff6576639c2e94762eA5443978D7681C0E78DC",
  "extraData": "0x476574682f76312e302e312f6c696e75782f676f312e342e32",
  "transactions": [
    {
      "hash": "0x36d643958748af8dc5310d67d9492deddbab3e79778324f528de727324766326",
      "blockHash": "0x846b9f7c37a0e280cff90cf8aeb6d4ec6596c8d2fcc14fce287cc9eacb81676e",
      "blockNumber": 65186,
      "transactionIndex": 0,
      "confirmations": null,
      "from": "0x2910543Af39abA0Cd09dBb2D50200b3E800A63D2",
      "gasPrice": {
        "_hex": "0xda73d1cf8"
      },
      "gasLimit": {
        "_hex": "0x5208"
      },
      "to": "0x296dE94E7A50ccfa9c9EFDEd86d690319973683d",
      "value": {
        "_hex": "0xdcef33a6f838000"
      },
      "nonce": 167,
      "data": "0x",
      "r": "0x2f28ffe6aa2ffb9dba2a24550c1beb18adf3f005b9bcc5c7b0a59206a0b3544e",
      "s": "0x5ea96ab94ae8fcdaa709319beac9fff150f8e1187f7af6dd5cb0edb23a82307e",
      "v": 27,
      "creates": null,
      "raw": "0xf86d81a7850da73d1cf882520894296de94e7a50ccfa9c9efded86d690319973683d880dcef33a6f838000801ba02f28ffe6aa2ffb9dba2a24550c1beb18adf3f005b9bcc5c7b0a59206a0b3544ea05ea96ab94ae8fcdaa709319beac9fff150f8e1187f7af6dd5cb0edb23a82307e",
      "networkId": 0,
      "chainId": 0
    },
    {
      "hash": "0x97b71b4dda756aa3252c20fd12afe9414315ace28bfdf48823cbe9e9532d4672",
      "blockHash": "0x846b9f7c37a0e280cff90cf8aeb6d4ec6596c8d2fcc14fce287cc9eacb81676e",
      "blockNumber": 65186,
      "transactionIndex": 1,
      "confirmations": null,
      "from": "0x05699797467BEc9D074EDd37374846bE3508221e",
      "gasPrice": {
        "_hex": "0xba43b7400"
      },
      "gasLimit": {
        "_hex": "0x15f90"
      },
      "to": "0x793AE8C1b1a160BFc07BFB0d04F85eab1A71F4f2",
      "value": {
        "_hex": "0x0"
      },
      "nonce": 0,
      "data": "0x3ba15036",
      "r": "0xaef16f130ad7d8f30fababb4032281f54bce828af76f6c0b62e015b5098cf429",
      "s": "0x78c7e54d4c4f7cbbcf7d048802ce12eb3371c14e17bf329726db6959498f5bb4",
      "v": 27,
      "creates": null,
      "raw": "0xf86980850ba43b740083015f9094793ae8c1b1a160bfc07bfb0d04f85eab1a71f4f280843ba150361ba0aef16f130ad7d8f30fababb4032281f54bce828af76f6c0b62e015b5098cf429a078c7e54d4c4f7cbbcf7d048802ce12eb3371c14e17bf329726db6959498f5bb4",
      "networkId": 0,
      "chainId": 0
    },
    {
      "hash": "0x33683488ac7a3ead67d55b3a67a929a04ad541635d28acde9e86989480f7a210",
      "blockHash": "0x846b9f7c37a0e280cff90cf8aeb6d4ec6596c8d2fcc14fce287cc9eacb81676e",
      "blockNumber": 65186,
      "transactionIndex": 2,
      "confirmations": null,
      "from": "0x6772fA6FBfbCf8aB159AA30b66F6f9Dc7872160b",
      "gasPrice": {
        "_hex": "0xba43b7400"
      },
      "gasLimit": {
        "_hex": "0x15f90"
      },
      "to": "0x793AE8C1b1a160BFc07BFB0d04F85eab1A71F4f2",
      "value": {
        "_hex": "0x0"
      },
      "nonce": 0,
      "data": "0x3ba15036",
      "r": "0xec4833ad2b78f1038af95a7c48a61c5040065f280206b4d82797ecea99683c2a",
      "s": "0x672e3005342f55768bca24c3ef4af594b7b1aae1fe44ff91e275ba644094bc1a",
      "v": 27,
      "creates": null,
      "raw": "0xf86980850ba43b740083015f9094793ae8c1b1a160bfc07bfb0d04f85eab1a71f4f280843ba150361ba0ec4833ad2b78f1038af95a7c48a61c5040065f280206b4d82797ecea99683c2aa0672e3005342f55768bca24c3ef4af594b7b1aae1fe44ff91e275ba644094bc1a",
      "networkId": 0,
      "chainId": 0
    }
  ]
}