{
  "hash": "0xe4ed918fa5fcf2b7c1fd1fdd1ec8aa94a550e0b9f831cb6880abc76ddec5b08b",
  "parentHash": "0x3469dcc94fcb424f1c2abc7d5e7363f6461b57d4994b863bdc82ae9d3ab53e47",
  "number": 73530,
  "timestamp": 1439370594,
  "nonce": "0x1b77286376aa880a",
  "difficulty": 2226130256050,
  "gasLimit": {
    "_hex": "0x2fefd8"
  },
  "gasUsed": {
    "_hex": "0x100eb"
  },
  "miner": "0xa70a9a7040d542C632D8e0bE7c5513A8a5Bbc752",
  "extraData": "0x",
  "transactions": [
    {
      "hash": "0x457686bee03294453c6724e6f3c5e079f7e550faaf8f73da1c9c6e4e99320b54",
      "blockHash": "0xe4ed918fa5fcf2b7c1fd1fdd1ec8aa94a550e0b9f831cb6880abc76ddec5b08b",
      "blockNumber": 73530,
      "transactionIndex": 0,
      "confirmations": null,
      "from": "0xf4B1114a02EFe852013277F28ed88734Fa81E54f",
      "gasPrice": {
        "_hex": "0xdb496c1c2"
      },
      "gasLimit": {
        "_hex": "0x15f90"
      },
      "to": "0xa1A111bc074c9cfa781F0C38e63bD51c91b8af00",
      "value": {
        "_hex": "0x0"
      },
      "nonce": 7,
      "data": "0xd5fa2b0048484b42000000000000000000000000000000000000000000000000000000000000000000000000000000001c523996cb7cb5b0a4a48d8097e45093626b23f0",
      "r": "0x081d63caee97021dd793b1ba99982d834f9f9f829c049c617c376d698299136b",
      "s": "0x77ad3af38a783709570cb58c5037c28621edc20c6b1834df5d1887c747f10b54",
      "v": 27,
      "creates": null,
      "raw": "0xf8aa07850db496c1c283015f9094a1a111bc074c9cfa781f0c38e63bd51c91b8af0080b844d5fa2b0048484b42000000000000000000000000000000000000000000000000000000000000000000000000000000001c523996cb7cb5b0a4a48d8097e45093626b23f01ba0081d63caee97021dd793b1ba99982d834f9f9f829c049c617c376d698299136ba077ad3af38a783709570cb58c5037c28621edc20c6b1834df5d1887c747f10b54",
      "networkId": 0,
      "chainId": 0
    },
    {
      "hash": "0x5c4121c9bf0640c016ec649dd9b8d56c8b86d3d75d0fb0cb2494d967d810e69a",
      "blockHash": "0xe4ed918fa5fcf2b7c1fd1fdd1ec8aa94a550e0b9f831cb6880abc76ddec5b08b",
      "blockNumber": 73530,
      "transactionIndex": 1,
      "confirmations": null,
      "from": "0x2910543Af39abA0Cd09dBb2D50200b3E800A63D2",
      "gasPrice": {
        "_hex": "0xcb780d703"
      },
      "gasLimit": {
        "_hex": "0x5208"
      },
      "to": "0x7e762b1a01DdF9a6449E7aD7F770cFA7Ec62616E",
      "value": {
        "_hex": "0x1c9e5c9af5c038000"
      },
      "nonce": 286,
      "data": "0x",
      "r": "0xc731c65a02ae2ad555e0a5d4957b588bdf22018ff4757b2094c602145f2de5d3",
      "s": "0x7fbeb6afd11cc6a3d8a80352113c8fcb2cbc6bc5525766c63301e334aa307b89",
      "v": 27,
      "creates": null,
      "raw": "0xf86f82011e850cb780d703825208947e762b1a01ddf9a6449e7ad7f770cfa7ec62616e8901c9e5c9af5c038000801ba0c731c65a02ae2ad555e0a5d4957b588bdf22018ff4757b2094c602145f2de5d3a07fbeb6afd11cc6a3d8a80352113c8fcb2cbc6bc5525766c63301e334aa307b89",
      "networkId": 0,
      "chainId": 0
    }
  ]
}