{
  "hash": "0x9953d0e76f4b93f498a51548857ef64a5e985541de073ff068180707564bb54c",
  "parentHash": "0x3df0db3bd5af50107bfea3a01ff180715aea7f96284ba8aaa0f601b42c23796f",
  "number": 117817,
  "timestamp": 1440115878,
  "nonce": "0x8eb102ab23f787bb",
  "difficulty": 4350445991493,
  "gasLimit": {
    "_hex": "0x2fefd8"
  },
  "gasUsed": {
    "_hex": "0x5208"
  },
  "miner": "0x88D74a59454F6cF3B51ef6b9136AFb6b9D405A88",
  "extraData": "0x",
  "transactions": [
    {
      "hash": "0x4808ccc0d24fcdcbfb4e260f7b6635276bee063407f1a5515c7ba0a4e2a5cbe5",
      "blockHash": "0x9953d0e76f4b93f498a51548857ef64a5e985541de073ff068180707564bb54c",
      "blockNumber": 117817,
      "transactionIndex": 0,
      "confirmations": null,
      "from": "0xBFdD9820a04283b289957956353b5F3C1F665EcF",
      "gasPrice": {
        "_hex": "0xba43b7400"
      },
      "gasLimit": {
        "_hex": "0x5208"
      },
      "to": "0x32Be343B94f860124dC4fEe278FDCBD38C102D88",
      "value": {
        "_hex": "0x92a0daba6ab1e800"
      },
      "nonce": 50,
      "data": "0x",
      "r": "0xa51d075df43bd3e76062277ef9b67e66364f369386eda669bfd8758b5ad300e4",
      "s": "0x30d2ce9aab40f577d65d200a1977da868322930a0f6524bd90163ae3250f4ee2",
      "v": 27,
      "creates": null,
      "raw": "0xf86c32850ba43b74008252089432be343b94f860124dc4fee278fdcbd38c102d888892a0daba6ab1e800801ba0a51d075df43bd3e76062277ef9b67e66364f369386eda669bfd8758b5ad300e4a030d2ce9aab40f577d65d200a1977da868322930a0f6524bd90163ae3250f4ee2",
      "networkId": 0,
      "chainId": 0
    }
  ]
}