{
  "hash": "0x5ac047e0885f6e0c643b4cc1b3604c31d27a34cd0e6b351e8edda65a612e649a",
  "parentHash": "0x51919f4751d5200f9e2a8d38669522e4410cd6dc68e2d036c86f390c71b98bf9",
  "number": 68467,
  "timestamp": 1439288380,
  "nonce": "0x5d90173e43271604",
  "difficulty": 2011372921210,
  "gasLimit": {
    "_hex": "0x2fefd8"
  },
  "gasUsed": {
    "_hex": "0x29040"
  },
  "miner": "0xa50ec0D39fa913E62f1Bae7074E6F36caA71855b",
  "extraData": "0x",
  "transactions": [
    {
      "hash": "0xd4acbce9dcf290cc99fbfa68541acfd204df85c8690a6368674f58eebf3a77e7",
      "blockHash": "0x5ac047e0885f6e0c643b4cc1b3604c31d27a34cd0e6b351e8edda65a612e649a",
      "blockNumber": 68467,
      "transactionIndex": 0,
      "confirmations": null,
      "from": "0xc015c2717AB8De3200Ab632f15a13e22fa09e435",
      "gasPrice": {
        "_hex": "0xba43b7400"
      },
      "gasLimit": {
        "_hex": "0x5208"
      },
      "to": "0x6747f922385c9a6F9cfDf095F34345257DD597bE",
      "value": {
        "_hex": "0x1072bbac261c000"
      },
      "nonce": 1,
      "data": "0x",
      "r": "0xd8a3d48166268f1ac2a74266e146181ba584f34180a957c43d5ef64fbde04686",
      "s": "0x55b83043560e02c05dbb7f43a6f9c6fc6600572b7a7b53e9226149122c6f6f06",
      "v": 28,
      "creates": null,
      "raw": "0xf86c01850ba43b7400825208946747f922385c9a6f9cfdf095f34345257dd597be8801072bbac261c000801ca0d8a3d48166268f1ac2a74266e146181ba584f34180a957c43d5ef64fbde04686a055b83043560e02c05dbb7f43a6f9c6fc6600572b7a7b53e9226149122c6f6f06",
      "networkId": 0,
      "chainId": 0
    },
    {
      "hash": "0x0ec09397bab9860f2657317fdbd71c411213df3d90aa0ede075d199462512b15",
      "blockHash": "0x5ac047e0885f6e0c643b4cc1b3604c31d27a34cd0e6b351e8edda65a612e649a",
      "blockNumber": 68467,
      "transactionIndex": 1,
      "confirmations": null,
      "from": "0x5A998c77896F80aE4F5c4De031af0483465A5EA2",
      "gasPrice": {
        "_hex": "0xba43b7400"
      },
      "gasLimit": {
        "_hex": "0x5208"
      },
      "to": "0x6747f922385c9a6F9cfDf095F34345257DD597bE",
      "value": {
        "_hex": "0x1072bbac261c000"
      },
      "nonce": 1,
      "data": "0x",
      "r": "0x31b624da29b21904519af25628ca3a86c7f0f026706e16fa9ef3b37a6e41914f",
      "s": "0x3fd6bbe2298a12dc962dc59cd2f22e2380af19f2d1be66d4e17286b0e155c92a",
      "v": 27,
      "creates": null,
      "raw": "0xf86c01850ba43b7400825208946747f922385c9a6f9cfdf095f34345257dd597be8801072bbac261c000801ba031b624da29b21904519af25628ca3a86c7f0f026706e16fa9ef3b37a6e41914fa03fd6bbe2298a12dc962dc59cd2f22e2380af19f2d1be66d4e17286b0e155c92a",
      "networkId": 0,
      "chainId": 0
    },
    {
      "hash": "0xd293b8630352f2cbbbfed85fadd75e6783f7b23dbb6e447e750243c073ebfe6c",
      "blockHash": "0x5ac047e0885f6e0c643b4cc1b3604c31d27a34cd0e6b351e8edda65a612e649a",
      "blockNumber": 68467,
      "transactionIndex": 2,
      "confirmations": null,
      "from": "0xb889D0EF34bFBCAA6821CB8Bb4078efeCD82F7fE",
      "gasPrice": {
        "_hex": "0xba43b7400"
      },
      "gasLimit": {
        "_hex": "0x5208"
      },
      "to": "0x6747f922385c9a6F9cfDf095F34345257DD597bE",
      "value": {
        "_hex": "0x1072bbac261c000"
      },
      "nonce": 1,
      "data": "0x",
      "r": "0xca5bff123a2d2505d77e2a91acf6a1244d57e75d7c5df92379f37aee9c982026",
      "s": "0x7a9ca19c6c78eb10b13cae227c81b99d15a2ecc3adf6a519e12b1ec72bb7f4f0",
      "v": 27,
      "creates": null,
      "raw": "0xf86c01850ba43b7400825208946747f922385c9a6f9cfdf095f34345257dd597be8801072bbac261c000801ba0ca5bff123a2d2505d77e2a91acf6a1244d57e75d7c5df92379f37aee9c982026a07a9ca19c6c78eb10b13cae227c81b99d15a2ecc3adf6a519e12b1ec72bb7f4f0",
      "networkId": 0,
      "chainId": 0
    },
    {
      "hash": "0x2fd6fbeacb3f9582aebb0830f3e1746ac1f68a4e38c47133250bca43bbf03855",
      "blockHash": "0x5ac047e0885f6e0c643b4cc1b3604c31d27a34cd0e6b351e8edda65a612e649a",
      "blockNumber": 68467,
      "transactionIndex": 3,
      "confirmations": null,
      "from": "0x3ec54e6E9E29CaE43563681bd0ed7b0A941fAa5a",
      "gasPrice": {
        "_hex": "0xba43b7400"
      },
      "gasLimit": {
        "_hex": "0x5208"
      },
      "to": "0x6747f922385c9a6F9cfDf095F34345257DD597bE",
      "value": {
        "_hex": "0x1072bbac261c000"
      },
      "nonce": 1,
      "data": "0x",
      "r": "0xbfd4bba25a77ff73c4a85c36ad91affcc3416e8527c40f3b11d6137b763975b3",
      "s": "0x4df9c277f3db89f91710b3bd0702dfa3d2619fc25d286fcb8fe3d69674cebb0a",
      "v": 27,
      "creates": null,
      "raw": "0xf86c01850ba43b7400825208946747f922385c9a6f9cfdf095f34345257dd597be8801072bbac261c000801ba0bfd4bba25a77ff73c4a85c36ad91affcc3416e8527c40f3b11d6137b763975b3a04df9c277f3db89f91710b3bd0702dfa3d2619fc25d286fcb8fe3d69674cebb0a",
      "networkId": 0,
      "chainId": 0
    },
    {
      "hash": "0xf2b508645ab13d5a38fd66f5a8d7c2ff3932e50baf8aef3d1ce1487a3dc596d2",
      "blockHash": "0x5ac047e0885f6e0c643b4cc1b3604c31d27a34cd0e6b351e8edda65a612e649a",
      "blockNumber": 68467,
      "transactionIndex": 4,
      "confirmations": null,
      "from": "0xEc7De4c307B9515D705b01c5E3E7E335731ec352",
      "gasPrice": {
        "_hex": "0xba43b7400"
      },
      "gasLimit": {
        "_hex": "0x5208"
      },
      "to": "0x6747f922385c9a6F9cfDf095F34345257DD597bE",
      "value": {
        "_hex": "0x1072bbac261c000"
      },
      "nonce": 1,
      "data": "0x",
      "r": "0x3f97684543593ffbf610028d44d27c6c5e5087ad2abe15082f07e3dfae3b5108",
      "s": "0x5f48b877fee4c6cdfbadc51f0bc9ba750152328d79e3cb2e00e6f246904fb402",
      "v": 28,
      "creates": null,
      "raw": "0xf86c01850ba43b7400825208946747f922385c9a6f9cfdf095f34345257dd597be8801072bbac261c000801ca03f97684543593ffbf610028d44d27c6c5e5087ad2abe15082f07e3dfae3b5108a05f48b877fee4c6cdfbadc51f0bc9ba750152328d79e3cb2e00e6f246904fb402",
      "networkId": 0,
      "chainId": 0
    },
    {
      "hash": "0x609613a483aa2af20312f5136d367b38cd3a5e553d1fe482b7f7444a34bf3152",
      "blockHash": "0x5ac047e0885f6e0c643b4cc1b3604c31d27a34cd0e6b351e8edda65a612e649a",
      "blockNumber": 68467,
      "transactionIndex": 5,
      "confirmations": null,
      "from": "0xD1C992E2a46C7Fc1e1AFC1333ab19a319A4B64dB",
      "gasPrice": {
        "_hex": "0xba43b7400"
      },
      "gasLimit": {
        "_hex": "0x5208"
      },
      "to": "0x6747f922385c9a6F9cfDf095F34345257DD597bE",
      "value": {
        "_hex": "0x1072bbac261c000"
      },
      "nonce": 1,
      "data": "0x",
      "r": "0xc15715f5f4a8788f5de408ed16cbbfda1044348f3c3652aa68a06537d57ab0b6",
      "s": "0x7293590db7da673c0774bac0d8c757e99452bface4b5e1935e77791ffd56491d",
      "v": 28,
      "creates": null,
      "raw": "0xf86c01850ba43b7400825208946747f922385c9a6f9cfdf095f34345257dd597be8801072bbac261c000801ca0c15715f5f4a8788f5de408ed16cbbfda1044348f3c3652aa68a06537d57ab0b6a07293590db7da673c0774bac0d8c757e99452bface4b5e1935e77791ffd56491d",
      "networkId": 0,
      "chainId": 0
    },
    {
      "hash": "0x4cf49937f67f507f34f6b49da3fd10bbad43ce3fe84cbd52fa84b02dfb599aac",
      "blockHash": "0x5ac047e0885f6e0c643b4cc1b3604c31d27a34cd0e6b351e8edda65a612e649a",
      "blockNumber": 68467,
      "transactionIndex": 6,
      "confirmations": null,
      "from": "0x4235b34689100F8bc999713b837A3F7C1388D516",
      "gasPrice": {
        "_hex": "0xba43b7400"
      },
      "gasLimit": {
        "_hex": "0x5208"
      },
      "to": "0x6747f922385c9a6F9cfDf095F34345257DD597bE",
      "value": {
        "_hex": "0x1072bbac261c000"
      },
      "nonce": 1,
      "data": "0x",
      "r": "0xd06efb2a9b986a004f45e4f169a5cd78c4e37e5cf33a447d064e9bd0c5080c15",
      "s": "0x3cb96076690045140a77bea49925277f9bf2892dfdc6327398fda0a56a04e39d",
      "v": 27,
      "creates": null,
      "raw": "0xf86c01850ba43b7400825208946747f922385c9a6f9cfdf095f34345257dd597be8801072bbac261c000801ba0d06efb2a9b986a004f45e4f169a5cd78c4e37e5cf33a447d064e9bd0c5080c15a03cb96076690045140a77bea49925277f9bf2892dfdc6327398fda0a56a04e39d",
      "networkId": 0,
      "chainId": 0
    },
    {
      "hash": "0x8d2289217cf098c2e30589e09d85e15b744ee8a679b0870f74da547c09d51f5b",
      "blockHash": "0x5ac047e0885f6e0c643b4cc1b3604c31d27a34cd0e6b351e8edda65a612e649a",
      "blockNumber": 68467,
      "transactionIndex": 7,
      "confirmations": null,
      "from": "0x6Cf36bd229547D4B9b6Ef909d3dC89372D627949",
      "gasPrice": {
        "_hex": "0xba43b7400"
      },
      "gasLimit": {
        "_hex": "0x5208"
      },
      "to": "0x6747f922385c9a6F9cfDf095F34345257DD597bE",
      "value": {
        "_hex": "0x1072bbac261c000"
      },
      "nonce": 1,
      "data": "0x",
      "r": "0x1cc110f025fbcbd07b0bfc6911f6b17eee4fc379c1a50f69f00913afc4efa75e",
      "s": "0x64d67815d179ae797692879cff7d32f214205a81d50367483cafd65ac71e6c92",
      "v": 27,
      "creates": null,
      "raw": "0xf86c01850ba43b7400825208946747f922385c9a6f9cfdf095f34345257dd597be8801072bbac261c000801ba01cc110f025fbcbd07b0bfc6911f6b17eee4fc379c1a50f69f00913afc4efa75ea064d67815d179ae797692879cff7d32f214205a81d50367483cafd65ac71e6c92",
      "networkId": 0,
      "chainId": 0
    }
  ]
}