{
  "hash": "0x5bef2673cb24a4ec8d8dd89e904765fb33299fa6d26959d188296f4e65f19206",
  "parentHash": "0x5a8c188e6ccd21b997df026e39b3b2437865b8c09af7734b1bd168e87ccee863",
  "number": 92833,
  "timestamp": 1439677781,
  "nonce": "0x6a93660c864191f0",
  "difficulty": 3645775782910,
  "gasLimit": {
    "_hex": "0x2fefd8"
  },
  "gasUsed": {
    "_hex": "0xa410"
  },
  "miner": "0xe6A7a1d47ff21B6321162AEA7C6CB457D5476Bca",
  "extraData": "0x476574682f76312e302e312d38326566323666362f6c696e75782f676f312e34",
  "transactions": [
    {
      "hash": "0x9b2f6ccaca813d4295c3202b3db34208baea2ce1e576c913489a996a608f2706",
      "blockHash": "0x5bef2673cb24a4ec8d8dd89e904765fb33299fa6d26959d188296f4e65f19206",
      "blockNumber": 92833,
      "transactionIndex": 0,
      "confirmations": null,
      "from": "0x569CbF7F5A9c9459BF6353bEb0a7B003Af6BAB1E",
      "gasPrice": {
        "_hex": "0xd1267a3c7"
      },
      "gasLimit": {
        "_hex": "0x30d40"
      },
      "to": "0x120A270bbC009644e35F0bB6ab13f95b8199c4ad",
      "value": {
        "_hex": "0x10a5201bfabefe7f40"
      },
      "nonce": 0,
      "data": "0x",
      "r": "0xcf35627ae21e55006659b8dd10b56c1d249501bd5f971cbc10a7dbac5cb0afb5",
      "s": "0x7b8fb27d8b347c602074fd84a4b93f08f0c1b9bf720f7826d0ba7d0d0a398701",
      "v": 28,
      "creates": null,
      "raw": "0xf86e80850d1267a3c783030d4094120a270bbc009644e35f0bb6ab13f95b8199c4ad8910a5201bfabefe7f40801ca0cf35627ae21e55006659b8dd10b56c1d249501bd5f971cbc10a7dbac5cb0afb5a07b8fb27d8b347c602074fd84a4b93f08f0c1b9bf720f7826d0ba7d0d0a398701",
      "networkId": 0,
      "chainId": 0
    },
    {
      "hash": "0x00e03792d5160b6312c7609bffeeeb760ca1035d42d83ef5f48abec22ba8646f",
      "blockHash": "0x5bef2673cb24a4ec8d8dd89e904765fb33299fa6d26959d188296f4e65f19206",
      "blockNumber": 92833,
      "transactionIndex": 1,
      "confirmations": null,
      "from": "0x120A270bbC009644e35F0bB6ab13f95b8199c4ad",
      "gasPrice": {
        "_hex": "0xceecc9181"
      },
      "gasLimit": {
        "_hex": "0x3d090"
      },
      "to": "0x36B33F21Ba59c53E3502E52b8e0a7fD311215FFd",
      "value": {
        "_hex": "0x1ce7e76cc06ef48800"
      },
      "nonce": 553,
      "data": "0x",
      "r": "0xe775d765ea87a8e6fc60f44d0f934793086aaf89efebe385102d9c41163ea7bb",
      "s": "0x7119682cd5e735b6a9fbf613129f0ee537c8295c2268a7c99e27e5657d58122e",
      "v": 27,
      "creates": null,
      "raw": "0xf870820229850ceecc91818303d0909436b33f21ba59c53e3502e52b8e0a7fd311215ffd891ce7e76cc06ef48800801ba0e775d765ea87a8e6fc60f44d0f934793086aaf89efebe385102d9c41163ea7bba07119682cd5e735b6a9fbf613129f0ee537c8295c2268a7c99e27e5657d58122e",
      "networkId": 0,
      "chainId": 0
    }
  ]
}