{
  "hash": "0x9219a8c270926d23161641316839ae7265562f02ff9d8e2218edda2763b2093e",
  "parentHash": "0x53b1a3d86c9397eb5006b9f4325f9cbea5e85176e41b8dc486adeb815fa8c519",
  "number": 73059,
  "timestamp": 1439362460,
  "nonce": "0x5875cdbce4f854fc",
  "difficulty": 2225168477954,
  "gasLimit": {
    "_hex": "0x2fefd8"
  },
  "gasUsed": {
    "_hex": "0x5208"
  },
  "miner": "0xe6A7a1d47ff21B6321162AEA7C6CB457D5476Bca",
  "extraData": "0x476574682f76312e302e312d38326566323666362f6c696e75782f676f312e34",
  "transactions": [
    {
      "hash": "0x14551e6a9c7e2edca98713814beb3cd730f3a97786e30b3c650d9d712fc9394c",
      "blockHash": "0x9219a8c270926d23161641316839ae7265562f02ff9d8e2218edda2763b2093e",
      "blockNumber": 73059,
      "transactionIndex": 0,
      "confirmations": null,
      "from": "0x117D2945355d346cE6637d6D5CC9A9E46CB43B73",
      "gasPrice": {
        "_hex": "0xcd09695ca"
      },
      "gasLimit": {
        "_hex": "0x5208"
      },
      "to": "0x32Be343B94f860124dC4fEe278FDCBD38C102D88",
      "value": {
        "_hex": "0x28dfd601ecb4020000"
      },
      "nonce": 8,
      "data": "0x",
      "r": "0x46f46d33fa5b5a131a5947a01e38c70d81bceec8724d8b3bc712f1e00eb90948",
      "s": "0x0730c9cdfbfdf49fd2485bf5f3730a25d5471e1628c6cf2b8ae05f12935e695c",
      "v": 28,
      "creates": null,
      "raw": "0xf86d08850cd09695ca8252089432be343b94f860124dc4fee278fdcbd38c102d888928dfd601ecb4020000801ca046f46d33fa5b5a131a5947a01e38c70d81bceec8724d8b3bc712f1e00eb90948a00730c9cdfbfdf49fd2485bf5f3730a25d5471e1628c6cf2b8ae05f12935e695c",
      "networkId": 0,
      "chainId": 0
    }
  ]
}