{
  "hash": "0x90bd398daf636d8ed6408d78e42ab6ea22ebdb6262d7aa02305d82189d57d85f",
  "parentHash": "0x1714d412d1e33e5d3eca89b26469831aff45671bff9a36ab661f83df058d9aec",
  "number": 70731,
  "timestamp": 1439324680,
  "nonce": "0x2a486af589bd8e49",
  "difficulty": 2136340939439,
  "gasLimit": {
    "_hex": "0x2fefd5"
  },
  "gasUsed": {
    "_hex": "0x14820"
  },
  "miner": "0x33b01a7fe4A1a5F774Bb73f89A4eF15a6Ffe1141",
  "extraData": "0x",
  "transactions": [
    {
      "hash": "0xf72584c7a478fb3224c000c0fd040eb9c3462ee5283fee5cc9aca4e9b7cfa1e2",
      "blockHash": "0x90bd398daf636d8ed6408d78e42ab6ea22ebdb6262d7aa02305d82189d57d85f",
      "blockNumber": 70731,
      "transactionIndex": 0,
      "confirmations": null,
      "from": "0xFD7c9117BbEB649d9b37B3D3C9917f7c12f526B3",
      "gasPrice": {
        "_hex": "0xcfba9d302"
      },
      "gasLimit": {
        "_hex": "0x5208"
      },
      "to": "0x32Be343B94f860124dC4fEe278FDCBD38C102D88",
      "value": {
        "_hex": "0x56bb1729154a8c000"
      },
      "nonce": 9,
      "data": "0x",
      "r": "0x10d8fcb0e96f3f8653f860be5e0e487b486045d4f6be66e5c4d7a667d91fc876",
      "s": "0x394929b6e4e3a2d7ed9fa2cfb3ffefb301f4c85f11e8a9a8eb4c1428ebf514c2",
      "v": 28,
      "creates": null,
      "raw": "0xf86d09850cfba9d3028252089432be343b94f860124dc4fee278fdcbd38c102d8889056bb1729154a8c000801ca010d8fcb0e96f3f8653f860be5e0e487b486045d4f6be66e5c4d7a667d91fc876a0394929b6e4e3a2d7ed9fa2cfb3ffefb301f4c85f11e8a9a8eb4c1428ebf514c2",
      "networkId": 0,
      "chainId": 0
    },
    {
      "hash": "0xef8d7260f0fbb1c85c742e90c69d4e94232f3889850604164ad2109c7e56b0f7",
      "blockHash": "0x90bd398daf636d8ed6408d78e42ab6ea22ebdb6262d7aa02305d82189d57d85f",
      "blockNumber": 70731,
      "transactionIndex": 1,
      "confirmations": null,
      "from": "0x98781996FF0F2C5dE96Bb45755683BB5a09A5727",
      "gasPrice": {
        "_hex": "0xcfba9d302"
      },
      "gasLimit": {
        "_hex": "0x5208"
      },
      "to": "0x32Be343B94f860124dC4fEe278FDCBD38C102D88",
      "value": {
        "_hex": "0xad778cfdcdf378000"
      },
      "nonce": 0,
      "data": "0x",
      "r": "0x6ffe3096fe92701c07568db543f1f095d64eab1adbff8e3a70a5e7d39b5e7645",
      "s": "0x049601e9ca4c5fca975b226eb408e5a11e89cbe6dcca3be39f3db4f10f481416",
      "v": 28,
      "creates": null,
      "raw": "0xf86d80850cfba9d3028252089432be343b94f860124dc4fee278fdcbd38c102d88890ad778cfdcdf378000801ca06ffe3096fe92701c07568db543f1f095d64eab1adbff8e3a70a5e7d39b5e7645a0049601e9ca4c5fca975b226eb408e5a11e89cbe6dcca3be39f3db4f10f481416",
      "networkId": 0,
      "chainId": 0
    },
    {
      "hash": "0x0cbd67b35e376b7902075d11d7213b46d4812d680d86b134e73dfbfea40b9f63",
      "blockHash": "0x90bd398daf636d8ed6408d78e42ab6ea22ebdb6262d7aa02305d82189d57d85f",
      "blockNumber": 70731,
      "transactionIndex": 2,
      "confirmations": null,
      "from": "0xE2fc177C2954e8396eCC28e8F4E6A0BE18AbF02b",
      "gasPrice": {
        "_hex": "0xcfba9d302"
      },
      "gasLimit": {
        "_hex": "0x5208"
      },
      "to": "0x32Be343B94f860124dC4fEe278FDCBD38C102D88",
      "value": {
        "_hex": "0x9d6496cb863688000"
      },
      "nonce": 0,
      "data": "0x",
      "r": "0x0c692ddd1d34201e5cc3b486761b970001cd890857898fa97e85de5dea647831",
      "s": "0x2c0106c5c34f22a7f1bcf5e3fc019ea628e2aa3215b20ee57a51464f65ccbe1e",
      "v": 27,
      "creates": null,
      "raw": "0xf86d80850cfba9d3028252089432be343b94f860124dc4fee278fdcbd38c102d888909d6496cb863688000801ba00c692ddd1d34201e5cc3b486761b970001cd890857898fa97e85de5dea647831a02c0106c5c34f22a7f1bcf5e3fc019ea628e2aa3215b20ee57a51464f65ccbe1e",
      "networkId": 0,
      "chainId": 0
    },
    {
      "hash": "0x1925cb89962cb8963549708512810520749c3b1521564067090cae95cf6056c6",
      "blockHash": "0x90bd398daf636d8ed6408d78e42ab6ea22ebdb6262d7aa02305d82189d57d85f",
      "blockNumber": 70731,
      "transactionIndex": 3,
      "confirmations": null,
      "from": "0x4717DdA36062a4D937DF7601Bd07354806A957EA",
      "gasPrice": {
        "_hex": "0xcfba9d302"
      },
      "gasLimit": {
        "_hex": "0x5208"
      },
      "to": "0x32Be343B94f860124dC4fEe278FDCBD38C102D88",
      "value": {
        "_hex": "0xdcaca35c07b5000"
      },
      "nonce": 0,
      "data": "0x",
      "r": "0x20a193e7b448006ae6e7b9b17f54f1fd4b6a5726da0db97e347574f75b2b4b82",
      "s": "0x3810946585ebd1c37ed95538edba158db29b7a989862a22dc5e91b89908f5d1c",
      "v": 28,
      "creates": null,
      "raw": "0xf86c80850cfba9d3028252089432be343b94f860124dc4fee278fdcbd38c102d88880dcaca35c07b5000801ca020a193e7b448006ae6e7b9b17f54f1fd4b6a5726da0db97e347574f75b2b4b82a03810946585ebd1c37ed95538edba158db29b7a989862a22dc5e91b89908f5d1c",
      "networkId": 0,
      "chainId": 0
    }
  ]
}