{
  "hash": "0x618a55512cb8eb36bef345e462b32f090176e1b4428868131b5893221d0b1d89",
  "parentHash": "0xc70869bb3c79401990b3a179dbc0671f2e649edac9549231956c00aa15658ac1",
  "number": 74314,
  "timestamp": 1439384149,
  "nonce": "0x3fb3db41d9394912",
  "difficulty": 2212917833419,
  "gasLimit": {
    "_hex": "0x2fefd8"
  },
  "gasUsed": {
    "_hex": "0x1ec30"
  },
  "miner": "0x580992B51e3925e23280EfB93d3047C82f17E038",
  "extraData": "0x476574682f76312e302e312f6c696e75782f676f312e342e32",
  "transactions": [
    {
      "hash": "0xbc9b7f04036e48a39002dd2c368058aae5ddb2495631a11106e1a34ef4f67616",
      "blockHash": "0x618a55512cb8eb36bef345e462b32f090176e1b4428868131b5893221d0b1d89",
      "blockNumber": 74314,
      "transactionIndex": 0,
      "confirmations": null,
      "from": "0x120A270bbC009644e35F0bB6ab13f95b8199c4ad",
      "gasPrice": {
        "_hex": "0xde74a7301"
      },
      "gasLimit": {
        "_hex": "0x15f90"
      },
      "to": "0x0C834b0a01810533a5417Ee59c7bB6b5D3956A82",
      "value": {
        "_hex": "0x27819e93fdc369cc00"
      },
      "nonce": 272,
      "data": "0x",
      "r": "0x9025dcef26673c25e320cf5084c22eb655d4d4a565981763daa6795e038056e4",
      "s": "0x5b94c3aec0e688f35ebd9f2a08a7a29ee00b15232a1c810ad95742692c92d0ac",
      "v": 27,
      "creates": null,
      "raw": "0xf870820110850de74a730183015f90940c834b0a01810533a5417ee59c7bb6b5d3956a828927819e93fdc369cc00801ba09025dcef26673c25e320cf5084c22eb655d4d4a565981763daa6795e038056e4a05b94c3aec0e688f35ebd9f2a08a7a29ee00b15232a1c810ad95742692c92d0ac",
      "networkId": 0,
      "chainId": 0
    },
    {
      "hash": "0xc00dbfbeb37ce0b4d49f0ab7153e29e9512229af1f13ea0e97a5da3413e4bf39",
      "blockHash": "0x618a55512cb8eb36bef345e462b32f090176e1b4428868131b5893221d0b1d89",
      "blockNumber": 74314,
      "transactionIndex": 1,
      "confirmations": null,
      "from": "0x120A270bbC009644e35F0bB6ab13f95b8199c4ad",
      "gasPrice": {
        "_hex": "0xde74a7301"
      },
      "gasLimit": {
        "_hex": "0x15f90"
      },
      "to": "0x6baeC65168a4fBB94b9557C65Dfc7cef5c6fBb8a",
      "value": {
        "_hex": "0x28c7dea56059b58000"
      },
      "nonce": 273,
      "data": "0x",
      "r": "0x3da7d1095bf32e014629e46be1a987cd546d37759e3236e1e74e0aaacce9273d",
      "s": "0x037690d29d40bab65f678062bd5d2ea5fe195d1cac196e238fb3623554f9dce4",
      "v": 28,
      "creates": null,
      "raw": "0xf870820111850de74a730183015f90946baec65168a4fbb94b9557c65dfc7cef5c6fbb8a8928c7dea56059b58000801ca03da7d1095bf32e014629e46be1a987cd546d37759e3236e1e74e0aaacce9273da0037690d29d40bab65f678062bd5d2ea5fe195d1cac196e238fb3623554f9dce4",
      "networkId": 0,
      "chainId": 0
    },
    {
      "hash": "0x93f8fffca09611ce91e1bee3f9e16fab47944afbb687e77e3a9aa1f194223c5d",
      "blockHash": "0x618a55512cb8eb36bef345e462b32f090176e1b4428868131b5893221d0b1d89",
      "blockNumber": 74314,
      "transactionIndex": 2,
      "confirmations": null,
      "from": "0x120A270bbC009644e35F0bB6ab13f95b8199c4ad",
      "gasPrice": {
        "_hex": "0xde74a7301"
      },
      "gasLimit": {
        "_hex": "0x15f90"
      },
      "to": "0xF6F1A44309051c6B25e47dff909B179Bb9aB591C",
      "value": {
        "_hex": "0x2b5e3af16b18800000"
      },
      "nonce": 274,
      "data": "0x",
      "r": "0xfb025b2bfd511bbb48338d466deb8c7a092d02c7902d59ead38927406e7ecd13",
      "s": "0x1a8bed2e4094ebf7b270a2eb5622bdbe2cc00ce6882f686ccbcd80cc0bb85cb2",
      "v": 27,
      "creates": null,
      "raw": "0xf870820112850de74a730183015f9094f6f1a44309051c6b25e47dff909b179bb9ab591c892b5e3af16b18800000801ba0fb025b2bfd511bbb48338d466deb8c7a092d02c7902d59ead38927406e7ecd13a01a8bed2e4094ebf7b270a2eb5622bdbe2cc00ce6882f686ccbcd80cc0bb85cb2",
      "networkId": 0,
      "chainId": 0
    },
    {
      "hash": "0x2e162fea38ece60e103c9434e29f56b2469bb075ec295ac88ac54adaa55f0d36",
      "blockHash": "0x618a55512cb8eb36bef345e462b32f090176e1b4428868131b5893221d0b1d89",
      "blockNumber": 74314,
      "transactionIndex": 3,
      "confirmations": null,
      "from": "0xeB1325C8D9d3ea8D74aC11F4B00F1B2367686319",
      "gasPrice": {
        "_hex": "0xd7d40ace3"
      },
      "gasLimit": {
        "_hex": "0x15f90"
      },
      "to": "0x3010cacF5965f60685011055570972e92B4479aB",
      "value": {
        "_hex": "0x1bc16d674ec80000"
      },
      "nonce": 0,
      "data": "0x",
      "r": "0xdc37bc012f35edccd5dac4cacac0104d747271b4f12c85a94d7b6eee4e0299a9",
      "s": "0x74a3c025ad025f0dae6ed5e2f55adc604d7f4553943cd1f81a08a6c566389c89",
      "v": 27,
      "creates": null,
      "raw": "0xf86d80850d7d40ace383015f90943010cacf5965f60685011055570972e92b4479ab881bc16d674ec80000801ba0dc37bc012f35edccd5dac4cacac0104d747271b4f12c85a94d7b6eee4e0299a9a074a3c025ad025f0dae6ed5e2f55adc604d7f4553943cd1f81a08a6c566389c89",
      "networkId": 0,
      "chainId": 0
    },
    {
      "hash": "0x7c7dec8fd6314c1b41b2fec023f7076db425906f98bc0468574b977b4df870bb",
      "blockHash": "0x618a55512cb8eb36bef345e462b32f090176e1b4428868131b5893221d0b1d89",
      "blockNumber": 74314,
      "transactionIndex": 4,
      "confirmations": null,
      "from": "0x2910543Af39abA0Cd09dBb2D50200b3E800A63D2",
      "gasPrice": {
        "_hex": "0xd76146b06"
      },
      "gasLimit": {
        "_hex": "0x5208"
      },
      "to": "0xEc9b67906b635f81B898606a3518EA3f5726b130",
      "value": {
        "_hex": "0x6ef3f224033f8000"
      },
      "nonce": 300,
      "data": "0x",
      "r": "0xec2468fcb00ba7152de3c9a4cd5b7cfca9a350e342a0550cd28b67f0b20783b2",
      "s": "0x1dfe73718f83126a0ab0203a3b45a07864406ebcf8495359cf1a5e7a4445603a",
      "v": 28,
      "creates": null,
      "raw": "0xf86e82012c850d76146b0682520894ec9b67906b635f81b898606a3518ea3f5726b130886ef3f224033f8000801ca0ec2468fcb00ba7152de3c9a4cd5b7cfca9a350e342a0550cd28b67f0b20783b2a01dfe73718f83126a0ab0203a3b45a07864406ebcf8495359cf1a5e7a4445603a",
      "networkId": 0,
      "chainId": 0
    },
    {
      "hash": "0xbe8df308e78219dccc16ba3945a8dfcd9c0b4560e46b2dbaa3261d9167ef8bb2",
      "blockHash": "0x618a55512cb8eb36bef345e462b32f090176e1b4428868131b5893221d0b1d89",
      "blockNumber": 74314,
      "transactionIndex": 5,
      "confirmations": null,
      "from": "0x6E8A26689f7A2FdEfd009CBaaA5310253450DABa",
      "gasPrice": {
        "_hex": "0xd5258d0ab"
      },
      "gasLimit": {
        "_hex": "0x15f90"
      },
      "to": "0xd6986162E8B905e6a771C3BCD1b2baa2B0bb386F",
      "value": {
        "_hex": "0xde0b6b3a7640000"
      },
      "nonce": 1,
      "data": "0x",
      "r": "0xa82b1720bb8e2f35ab45471ee77c60f7bfe88e215b69dd6e61fe6bfb72687135",
      "s": "0x4ecf63603db0fd4bd2983591154bc9750c6a268358afadc9da7dd78dda86a983",
      "v": 27,
      "creates": null,
      "raw": "0xf86d01850d5258d0ab83015f9094d6986162e8b905e6a771c3bcd1b2baa2b0bb386f880de0b6b3a7640000801ba0a82b1720bb8e2f35ab45471ee77c60f7bfe88e215b69dd6e61fe6bfb72687135a04ecf63603db0fd4bd2983591154bc9750c6a268358afadc9da7dd78dda86a983",
      "networkId": 0,
      "chainId": 0
    }
  ]
}