{
  "hash": "0x50410b824d581e8e3e5f9582cb8b039ef03deca144da2e6dc41379e1f630aa29",
  "parentHash": "0xb23d2881d44390aaaf6c79b28024dd0d752cac0301c9d65479277b4484350979",
  "number": 107113,
  "timestamp": 1439916168,
  "nonce": "0xd68705e9914a1312",
  "difficulty": 4472383878426,
  "gasLimit": {
    "_hex": "0x2fefd8"
  },
  "gasUsed": {
    "_hex": "0x5208"
  },
  "miner": "0xe6A7a1d47ff21B6321162AEA7C6CB457D5476Bca",
  "extraData": "0x476574682f76312e302e312d38326566323666362f6c696e75782f676f312e34",
  "transactions": [
    {
      "hash": "0x0b15d16770559a0806d95f696b1e8fbfb87728c74bdfd41295c24b61f00f9632",
      "blockHash": "0x50410b824d581e8e3e5f9582cb8b039ef03deca144da2e6dc41379e1f630aa29",
      "blockNumber": 107113,
      "transactionIndex": 0,
      "confirmations": null,
      "from": "0x32Be343B94f860124dC4fEe278FDCBD38C102D88",
      "gasPrice": {
        "_hex": "0xd8d40117d"
      },
      "gasLimit": {
        "_hex": "0x5208"
      },
      "to": "0x120A270bbC009644e35F0bB6ab13f95b8199c4ad",
      "value": {
        "_hex": "0x10f0cf064dd59200000"
      },
      "nonce": 1199,
      "data": "0x",
      "r": "0x86423f4ed6eab54c4c18e776c51bd4787fd221b42bbd27cba095ca7286d153e8",
      "s": "0x4179a62cac960fa497f72bcd013e6d075b97d7eeb84c5c6de7155feb43526ace",
      "v": 27,
      "creates": null,
      "raw": "0xf8708204af850d8d40117d82520894120a270bbc009644e35f0bb6ab13f95b8199c4ad8a010f0cf064dd59200000801ba086423f4ed6eab54c4c18e776c51bd4787fd221b42bbd27cba095ca7286d153e8a04179a62cac960fa497f72bcd013e6d075b97d7eeb84c5c6de7155feb43526ace",
      "networkId": 0,
      "chainId": 0
    }
  ]
}