{
  "hash": "0xd3dbd792a872f3cf4fc86c06318c42a3a721bf35bf95f28c4d1fad781fdb8b7b",
  "parentHash": "0x664d5285517c4098ea22e91781fedf15ebd0fa0f587677c3fce567ba243b4c59",
  "number": 47099,
  "timestamp": 1438934184,
  "nonce": "0x3b7821393ddbd504",
  "difficulty": 1460967880944,
  "gasLimit": {
    "_hex": "0x9757"
  },
  "gasUsed": {
    "_hex": "0x5208"
  },
  "miner": "0x35c6f22E8fFA3d3aEf1EE7744BdbA64E1b188a15",
  "extraData": "0x476574682f76312e302e312f6c696e75782f676f312e342e32",
  "transactions": [
    {
      "hash": "0x1e9c0bffefcc346e062ee050245e487b08e6515c844ea074680637f3f2851816",
      "blockHash": "0xd3dbd792a872f3cf4fc86c06318c42a3a721bf35bf95f28c4d1fad781fdb8b7b",
      "blockNumber": 47099,
      "transactionIndex": 0,
      "confirmations": null,
      "from": "0xe6A7a1d47ff21B6321162AEA7C6CB457D5476Bca",
      "gasPrice": {
        "_hex": "0xd75edadae"
      },
      "gasLimit": {
        "_hex": "0x5208"
      },
      "to": "0xfeB0907bd66A4de5a6e71bd8dA6b2eb87612763B",
      "value": {
        "_hex": "0x277061344a70ee74"
      },
      "nonce": 42,
      "data": "0x",
      "r": "0x9e063cf0b9a7a40cee54bc666c91a9cfcd0e38359972512aaa108d83de11cfbe",
      "s": "0x24ea647c5a5375f9e5220996703c1e13b415d46b53a1a0df22003f69463e164f",
      "v": 28,
      "creates": null,
      "raw": "0xf86c2a850d75edadae82520894feb0907bd66a4de5a6e71bd8da6b2eb87612763b88277061344a70ee74801ca09e063cf0b9a7a40cee54bc666c91a9cfcd0e38359972512aaa108d83de11cfbea024ea647c5a5375f9e5220996703c1e13b415d46b53a1a0df22003f69463e164f",
      "networkId": 0,
      "chainId": 0
    }
  ]
}