{
  "hash": "0x35861c9c880cd40664d521f5618d797305872a87a900cce3da5dab784409d081",
  "parentHash": "0x0aa128e67775bdc83821da38c5ea592d15d44c795f64989ab7d280d2082bdbff",
  "number": 97226,
  "timestamp": 1439752909,
  "nonce": "0xbf2ce01f5ee3054b",
  "difficulty": 3761371964113,
  "gasLimit": {
    "_hex": "0x2fefd8"
  },
  "gasUsed": {
    "_hex": "0x5208"
  },
  "miner": "0xe6A7a1d47ff21B6321162AEA7C6CB457D5476Bca",
  "extraData": "0x476574682f76312e302e312d38326566323666362f6c696e75782f676f312e34",
  "transactions": [
    {
      "hash": "0xad28ace03956dd5a77dc6edeedbe1470d524f741b45863472109e5c2cc51ac93",
      "blockHash": "0x35861c9c880cd40664d521f5618d797305872a87a900cce3da5dab784409d081",
      "blockNumber": 97226,
      "transactionIndex": 0,
      "confirmations": null,
      "from": "0xc597A5d92F5dC1137D847db733cfe02c6d209f13",
      "gasPrice": {
        "_hex": "0xe04dc0378"
      },
      "gasLimit": {
        "_hex": "0x15f90"
      },
      "to": "0x729F8403F351Db1E4598895fF0859Ce9C0464F4d",
      "value": {
        "_hex": "0x470de4df81fffc"
      },
      "nonce": 36,
      "data": "0x",
      "r": "0xf7bedc1bfb4b2600e716456df3ae9259cac29bd781cf6458b49641b271203171",
      "s": "0x73cc849f01bd4dd8e03c25d77ddd0bb0815762e02fbce88f964d8a32bf4f95c1",
      "v": 28,
      "creates": null,
      "raw": "0xf86c24850e04dc037883015f9094729f8403f351db1e4598895ff0859ce9c0464f4d87470de4df81fffc801ca0f7bedc1bfb4b2600e716456df3ae9259cac29bd781cf6458b49641b271203171a073cc849f01bd4dd8e03c25d77ddd0bb0815762e02fbce88f964d8a32bf4f95c1",
      "networkId": 0,
      "chainId": 0
    }
  ]
}