{
  "hash": "0x7f70ed9998b1497e814da5c71a3dd7b043a87568f1a51708c044b1ad1f37f99b",
  "parentHash": "0x486c14b59b186dbbd2118d7b5059d3ebf8985c18737ddb27a6caa7b816d32cde",
  "number": 61949,
  "timestamp": 1439180848,
  "nonce": "0x1c5df66a141b2edb",
  "difficulty": 1752288511661,
  "gasLimit": {
    "_hex": "0x2fefd8"
  },
  "gasUsed": {
    "_hex": "0x5208"
  },
  "miner": "0x863b7d048A0B7bfc239AF19F6A736E0995fB1C73",
  "extraData": "0x476574682f76312e302e312f6c696e75782f676f312e342e32",
  "transactions": [
    {
      "hash": "0x5ac2b9e706ff0d583c74246d5e3a2289df5d5311e97a9160c9307dcd65147fbc",
      "blockHash": "0x7f70ed9998b1497e814da5c71a3dd7b043a87568f1a51708c044b1ad1f37f99b",
      "blockNumber": 61949,
      "transactionIndex": 0,
      "confirmations": null,
      "from": "0xF7e66D2622220807d8696064E94ca24b1dC6e7Da",
      "gasPrice": {
        "_hex": "0xcb9ded4b6"
      },
      "gasLimit": {
        "_hex": "0x5208"
      },
      "to": "0x32Be343B94f860124dC4fEe278FDCBD38C102D88",
      "value": {
        "_hex": "0x4568067cf7eab000"
      },
      "nonce": 0,
      "data": "0x",
      "r": "0xa622711a4039db9f13fa4f2111ec50e53da83892e56e46fd5d9270260fac050c",
      "s": "0x504330bcc41ad5e015ecdaee87dd7490f84de90e2b10fadb677abcb1be2cbbe6",
      "v": 27,
      "creates": null,
      "raw": "0xf86c80850cb9ded4b68252089432be343b94f860124dc4fee278fdcbd38c102d88884568067cf7eab000801ba0a622711a4039db9f13fa4f2111ec50e53da83892e56e46fd5d9270260fac050ca0504330bcc41ad5e015ecdaee87dd7490f84de90e2b10fadb677abcb1be2cbbe6",
      "networkId": 0,
      "chainId": 0
    }
  ]
}