{
  "hash": "0xd6c757508b11b9ab7b8f6b5cab8774774256867aead0c9938111c08217f59aae",
  "parentHash": "0xde9eba551b4278a41162befc6e75780d0282e66dc99e9888fb88d7b5db240356",
  "number": 94650,
  "timestamp": 1439711619,
  "nonce": "0x1e59dadb2a023bcc",
  "difficulty": 3507060956979,
  "gasLimit": {
    "_hex": "0x2fefd8"
  },
  "gasUsed": {
    "_hex": "0x42a68"
  },
  "miner": "0xe6A7a1d47ff21B6321162AEA7C6CB457D5476Bca",
  "extraData": "0x476574682f76312e302e312d38326566323666362f6c696e75782f676f312e34",
  "transactions": [
    {
      "hash": "0xf8b7278e62f1f47c63623c32f90b8a44ce92f06827692b4ea96a55a7d163a312",
      "blockHash": "0xd6c757508b11b9ab7b8f6b5cab8774774256867aead0c9938111c08217f59aae",
      "blockNumber": 94650,
      "transactionIndex": 0,
      "confirmations": null,
      "from": "0xe6A7a1d47ff21B6321162AEA7C6CB457D5476Bca",
      "gasPrice": {
        "_hex": "0xd8365a6dc"
      },
      "gasLimit": {
        "_hex": "0x55f0"
      },
      "to": "0xadBC4B2dc881a1C624ee11c526e818f91378D410",
      "value": {
        "_hex": "0x2115cef162f1dde0"
      },
      "nonce": 2634,
      "data": "0x",
      "r": "0x361d1237d3e1b895470da4df835fbe1de37aa57062b017ed667cd535c1a8b8d7",
      "s": "0x047c092324da246446bdbfe28a6b3d14f4aa61f353bce3d3b3993c1f716201d4",
      "v": 28,
      "creates": null,
      "raw": "0xf86e820a4a850d8365a6dc8255f094adbc4b2dc881a1c624ee11c526e818f91378d410882115cef162f1dde0801ca0361d1237d3e1b895470da4df835fbe1de37aa57062b017ed667cd535c1a8b8d7a0047c092324da246446bdbfe28a6b3d14f4aa61f353bce3d3b3993c1f716201d4",
      "networkId": 0,
      "chainId": 0
    },
    {
      "hash": "0x979d62176e5c75d7185ef1ab0ebc4277e6358cf8e9b8e641cb6abf02d72e05eb",
      "blockHash": "0xd6c757508b11b9ab7b8f6b5cab8774774256867aead0c9938111c08217f59aae",
      "blockNumber": 94650,
      "transactionIndex": 1,
      "confirmations": null,
      "from": "0xe6A7a1d47ff21B6321162AEA7C6CB457D5476Bca",
      "gasPrice": {
        "_hex": "0xd8365a6dc"
      },
      "gasLimit": {
        "_hex": "0x55f0"
      },
      "to": "0x5c34E9095588400B7CFF963daa495eFbEFCa083E",
      "value": {
        "_hex": "0x21a181483a6d09e0"
      },
      "nonce": 2635,
      "data": "0x",
      "r": "0x205ab85a2b7b2c9cba6ff5381c7c6d90d01452a95a3bc1f9a6d22a70359f5678",
      "s": "0x546017b5a01a018f868f1cb0736b3f38702dc8877bf6c3409f5fe2a4ce8e67e6",
      "v": 28,
      "creates": null,
      "raw": "0xf86e820a4b850d8365a6dc8255f0945c34e9095588400b7cff963daa495efbefca083e8821a181483a6d09e0801ca0205ab85a2b7b2c9cba6ff5381c7c6d90d01452a95a3bc1f9a6d22a70359f5678a0546017b5a01a018f868f1cb0736b3f38702dc8877bf6c3409f5fe2a4ce8e67e6",
      "networkId": 0,
      "chainId": 0
    },
    {
      "hash": "0x12bc3f578fa3f539b5cb7f4a6ca2ca9adf791d7dc7b157cd9a5239539cb90a5c",
      "blockHash": "0xd6c757508b11b9ab7b8f6b5cab8774774256867aead0c9938111c08217f59aae",
      "blockNumber": 94650,
      "transactionIndex": 2,
      "confirmations": null,
      "from": "0xe6A7a1d47ff21B6321162AEA7C6CB457D5476Bca",
      "gasPrice": {
        "_hex": "0xd8365a6dc"
      },
      "gasLimit": {
        "_hex": "0x55f0"
      },
      "to": "0x83D8Eec14470cdd640ec06e83212519D19B804bc",
      "value": {
        "_hex": "0x21e0a8595e1fa628"
      },
      "nonce": 2636,
      "data": "0x",
      "r": "0x44dea5dbf917cfc1a501d3ffafbbd372e46f7865f7e6f2bc1c6c81e6b65b24fd",
      "s": "0x77d437226c8f4ebff77cb2b3fde2a21d2d6678ecd9e8746d4285a3af79eaff40",
      "v": 28,
      "creates": null,
      "raw": "0xf86e820a4c850d8365a6dc8255f09483d8eec14470cdd640ec06e83212519d19b804bc8821e0a8595e1fa628801ca044dea5dbf917cfc1a501d3ffafbbd372e46f7865f7e6f2bc1c6c81e6b65b24fda077d437226c8f4ebff77cb2b3fde2a21d2d6678ecd9e8746d4285a3af79eaff40",
      "networkId": 0,
      "chainId": 0
    },
    {
      "hash": "0xc7cde33f174d88f1443db6c39c4e6927b1696b5ea5294d0dc6f2ee94e3154d2f",
      "blockHash": "0xd6c757508b11b9ab7b8f6b5cab8774774256867aead0c9938111c08217f59aae",
      "blockNumber": 94650,
      "transactionIndex": 3,
      "confirmations": null,
      "from": "0xe6A7a1d47ff21B6321162AEA7C6CB457D5476Bca",
      "gasPrice": {
        "_hex": "0xd8365a6dc"
      },
      "gasLimit": {
        "_hex": "0x55f0"
      },
      "to": "0x84a2dcC780Ba2Bfdc390077007DE77714793887f",
      "value": {
        "_hex": "0x223e52eb20260214"
      },
      "nonce": 2637,
      "data": "0x",
      "r": "0x2cb316788aa7eeb9d634d7d96017d68add5bf76546a682f91edc314c68629c60",
      "s": "0x1008e915a5572d81ba4e1e8315e048e0a7a135aac2f7d638d43dd679bda0a617",
      "v": 27,
      "creates": null,
      "raw": "0xf86e820a4d850d8365a6dc8255f09484a2dcc780ba2bfdc390077007de77714793887f88223e52eb20260214801ba02cb316788aa7eeb9d634d7d96017d68add5bf76546a682f91edc314c68629c60a01008e915a5572d81ba4e1e8315e048e0a7a135aac2f7d638d43dd679bda0a617",
      "networkId": 0,
      "chainId": 0
    },
    {
      "hash": "0x2df6dfb4c080fbd3326f352e27b4896a06593e14a483d2d1a388b9c396709d51",
      "blockHash": "0xd6c757508b11b9ab7b8f6b5cab8774774256867aead0c9938111c08217f59aae",
      "blockNumber": 94650,
      "transactionIndex": 4,
      "confirmations": null,
      "from": "0xe6A7a1d47ff21B6321162AEA7C6CB457D5476Bca",
      "gasPrice": {
        "_hex": "0xd8365a6dc"
      },
      "gasLimit": {
        "_hex": "0x55f0"
      },
      "to": "0xfEE4dEb01301A2633e0046305A31fcA8d04F416c",
      "value": {
        "_hex": "0x2285989bd3ee6d30"
      },
      "nonce": 2638,
      "data": "0x",
      "r": "0x8c173e659de148c04894875a065ffecbe7b5d965c11195bee7fd0ebd0b8ee256",
      "s": "0x0236b10b81b128b9409fbabc6957de1b0db6dcfb7caa8be87ebd63a78beaed49",
      "v": 27,
      "creates": null,
      "raw": "0xf86e820a4e850d8365a6dc8255f094fee4deb01301a2633e0046305a31fca8d04f416c882285989bd3ee6d30801ba08c173e659de148c04894875a065ffecbe7b5d965c11195bee7fd0ebd0b8ee256a00236b10b81b128b9409fbabc6957de1b0db6dcfb7caa8be87ebd63a78beaed49",
      "networkId": 0,
      "chainId": 0
    },
    {
      "hash": "0x4a1671741757a10ab0966c65e71d865ec81c80372dc424262af0d03d517b5f00",
      "blockHash": "0xd6c757508b11b9ab7b8f6b5cab8774774256867aead0c9938111c08217f59aae",
      "blockNumber": 94650,
      "transactionIndex": 5,
      "confirmations": null,
      "from": "0xe6A7a1d47ff21B6321162AEA7C6CB457D5476Bca",
      "gasPrice": {
        "_hex": "0xd8365a6dc"
      },
      "gasLimit": {
        "_hex": "0x55f0"
      },
      "to": "0x8f9822e187F830d1100DF89B4b088c6Ce5F10d7d",
      "value": {
        "_hex": "0x22eb37dca60da020"
      },
      "nonce": 2639,
      "data": "0x",
      "r": "0x34308ebba5b64a9d450cc3adca282271a1a951686bf34d4e7e506ad51799543c",
      "s": "0x2ec8ed0d5ac0b07209e80bea9fc28d9c2960f538f13e34e25367731c157d6bdb",
      "v": 28,
      "creates": null,
      "raw": "0xf86e820a4f850d8365a6dc8255f0948f9822e187f830d1100df89b4b088c6ce5f10d7d8822eb37dca60da020801ca034308ebba5b64a9d450cc3adca282271a1a951686bf34d4e7e506ad51799543ca02ec8ed0d5ac0b07209e80bea9fc28d9c2960f538f13e34e25367731c157d6bdb",
      "networkId": 0,
      "chainId": 0
    },
    {
      "hash": "0xa678953d73b1dcabaaf97350312acfaa687bf0407b175278b92c0bd9614bd74f",
      "blockHash": "0xd6c757508b11b9ab7b8f6b5cab8774774256867aead0c9938111c08217f59aae",
      "blockNumber": 94650,
      "transactionIndex": 6,
      "confirmations": null,
      "from": "0xe6A7a1d47ff21B6321162AEA7C6CB457D5476Bca",
      "gasPrice": {
        "_hex": "0xd8365a6dc"
      },
      "gasLimit": {
        "_hex": "0x55f0"
      },
      "to": "0xACAB9A83F47D28Fdc1d12772A0B571f80444b5DD",
      "value": {
        "_hex": "0x239dd55921c2b030"
      },
      "nonce": 2640,
      "data": "0x",
      "r": "0x8bd11b12e0beb5d6e50bbc8f3dfa3beb33bda346dc23bf159a0a83565ff599da",
      "s": "0x6d844bd13c20cb814f0f96324dfb1c43645bf696ccc0f713054e6988285a1bdd",
      "v": 27,
      "creates": null,
      "raw": "0xf86e820a50850d8365a6dc8255f094acab9a83f47d28fdc1d12772a0b571f80444b5dd88239dd55921c2b030801ba08bd11b12e0beb5d6e50bbc8f3dfa3beb33bda346dc23bf159a0a83565ff599daa06d844bd13c20cb814f0f96324dfb1c43645bf696ccc0f713054e6988285a1bdd",
      "networkId": 0,
      "chainId": 0
    },
    {
      "hash": "0xda66fe8693c836e95c1fc51f859f13d635726f998c7bbec19d781665158abea9",
      "blockHash": "0xd6c757508b11b9ab7b8f6b5cab8774774256867aead0c9938111c08217f59aae",
      "blockNumber": 94650,
      "transactionIndex": 7,
      "confirmations": null,
      "from": "0xe6A7a1d47ff21B6321162AEA7C6CB457D5476Bca",
      "gasPrice": {
        "_hex": "0xd8365a6dc"
      },
      "gasLimit": {
        "_hex": "0x55f0"
      },
      "to": "0x2e1A591a3Bd5FCE3c1E095c205Bd202C29541e70",
      "value": {
        "_hex": "0x23b2258e52109a10"
      },
      "nonce": 2641,
      "data": "0x",
      "r": "0xf5d8638626440dd331a764570a107f02e68789b5a100b1d400d110c6b5f585ee",
      "s": "0x35a4d29626697c48d44e1975c7b5627f9689e890c7aec96db16669b629f94678",
      "v": 27,
      "creates": null,
      "raw": "0xf86e820a51850d8365a6dc8255f0942e1a591a3bd5fce3c1e095c205bd202c29541e708823b2258e52109a10801ba0f5d8638626440dd331a764570a107f02e68789b5a100b1d400d110c6b5f585eea035a4d29626697c48d44e1975c7b5627f9689e890c7aec96db16669b629f94678",
      "networkId": 0,
      "chainId": 0
    },
    {
      "hash": "0xac0bb690008a6c076cb1a03ba741049392c59bcffb15107384b7cc59772d1c96",
      "blockHash": "0xd6c757508b11b9ab7b8f6b5cab8774774256867aead0c9938111c08217f59aae",
      "blockNumber": 94650,
      "transactionIndex": 8,
      "confirmations": null,
      "from": "0xe6A7a1d47ff21B6321162AEA7C6CB457D5476Bca",
      "gasPrice": {
        "_hex": "0xd8365a6dc"
      },
      "gasLimit": {
        "_hex": "0x55f0"
      },
      "to": "0x2D96cefBdEC4c5A6eA88d9496fdEDDEFA561aDCd",
      "value": {
        "_hex": "0x23b44034301d9918"
      },
      "nonce": 2642,
      "data": "0x",
      "r": "0xbf130dcbda59bad39d59ac32656e00c00cc25f91fff8c6c145902b10445f32c9",
      "s": "0x3813305a1dfedae7f2f9ba99efcf406e44e5067c2050e28b8a6f3257cf14d795",
      "v": 27,
      "creates": null,
      "raw": "0xf86e820a52850d8365a6dc8255f0942d96cefbdec4c5a6ea88d9496fdeddefa561adcd8823b44034301d9918801ba0bf130dcbda59bad39d59ac32656e00c00cc25f91fff8c6c145902b10445f32c9a03813305a1dfedae7f2f9ba99efcf406e44e5067c2050e28b8a6f3257cf14d795",
      "networkId": 0,
      "chainId": 0
    },
    {
      "hash": "0x73943da1617f6df48766a2901e705928961efdaf232647108c5161d288061166",
      "blockHash": "0xd6c757508b11b9ab7b8f6b5cab8774774256867aead0c9938111c08217f59aae",
      "blockNumber": 94650,
      "transactionIndex": 9,
      "confirmations": null,
      "from": "0xe6A7a1d47ff21B6321162AEA7C6CB457D5476Bca",
      "gasPrice": {
        "_hex": "0xd8365a6dc"
      },
      "gasLimit": {
        "_hex": "0x55f0"
      },
      "to": "0xb2Cc35A981a37f727C203350f78142ceCb16fb45",
      "value": {
        "_hex": "0x23cc51628711f9ec"
      },
      "nonce": 2643,
      "data": "0x",
      "r": "0x5fa94035089de2139bee72f1b589b08bca4f7d255c74119afdc10ca73b9724e8",
      "s": "0x4e83edf1347d2af1fddeb32328ecc51cdd97e801d51f8fde361757c61c55406b",
      "v": 27,
      "creates": null,
      "raw": "0xf86e820a53850d8365a6dc8255f094b2cc35a981a37f727c203350f78142cecb16fb458823cc51628711f9ec801ba05fa94035089de2139bee72f1b589b08bca4f7d255c74119afdc10ca73b9724e8a04e83edf1347d2af1fddeb32328ecc51cdd97e801d51f8fde361757c61c55406b",
      "networkId": 0,
      "chainId": 0
    },
    {
      "hash": "0xde21aedebf83431a40d51f70ed0f246f439ff04faf927ab8d6d3708c9f6109fd",
      "blockHash": "0xd6c757508b11b9ab7b8f6b5cab8774774256867aead0c9938111c08217f59aae",
      "blockNumber": 94650,
      "transactionIndex": 10,
      "confirmations": null,
      "from": "0xe6A7a1d47ff21B6321162AEA7C6CB457D5476Bca",
      "gasPrice": {
        "_hex": "0xd8365a6dc"
      },
      "gasLimit": {
        "_hex": "0x55f0"
      },
      "to": "0xD042e5C2443591c48f1FBa5F6bAf8E7193f454B9",
      "value": {
        "_hex": "0x23cdd006c4e00c68"
      },
      "nonce": 2644,
      "data": "0x",
      "r": "0x4a7844aa4d6090f5aa1ea435bce46232a3c52794a5b6d0aae75229e3b6f1a0df",
      "s": "0x3c36c4527186fb3057942f55ba10c2dea4a41aeb798b63928bc0bef1caa65e0a",
      "v": 28,
      "creates": null,
      "raw": "0xf86e820a54850d8365a6dc8255f094d042e5c2443591c48f1fba5f6baf8e7193f454b98823cdd006c4e00c68801ca04a7844aa4d6090f5aa1ea435bce46232a3c52794a5b6d0aae75229e3b6f1a0dfa03c36c4527186fb3057942f55ba10c2dea4a41aeb798b63928bc0bef1caa65e0a",
      "networkId": 0,
      "chainId": 0
    },
    {
      "hash": "0x64a66020ef52f7ce1842c62071f602467a2e477f6e25bb6b95a89c5e976d92db",
      "blockHash": "0xd6c757508b11b9ab7b8f6b5cab8774774256867aead0c9938111c08217f59aae",
      "blockNumber": 94650,
      "transactionIndex": 11,
      "confirmations": null,
      "from": "0xe6A7a1d47ff21B6321162AEA7C6CB457D5476Bca",
      "gasPrice": {
        "_hex": "0xd8365a6dc"
      },
      "gasLimit": {
        "_hex": "0x55f0"
      },
      "to": "0xBF7B0E43c329d2cD6864dD8F81c0d79cd2134297",
      "value": {
        "_hex": "0x23f1c43d026e27d8"
      },
      "nonce": 2645,
      "data": "0x",
      "r": "0xed1d2040ce186d79ad8913bf62e92a073f667f677699e8a82f88be955ceec4e9",
      "s": "0x38dd6ebc8e75ae2a6c0ca3534d04b92512e960f5679bc2545e8c96935848ddde",
      "v": 27,
      "creates": null,
      "raw": "0xf86e820a55850d8365a6dc8255f094bf7b0e43c329d2cd6864dd8f81c0d79cd21342978823f1c43d026e27d8801ba0ed1d2040ce186d79ad8913bf62e92a073f667f677699e8a82f88be955ceec4e9a038dd6ebc8e75ae2a6c0ca3534d04b92512e960f5679bc2545e8c96935848ddde",
      "networkId": 0,
      "chainId": 0
    },
    {
      "hash": "0x2e6565c11d68815489d8af39b17eabe622563f4d56df5b7df16ed413f3a2b269",
      "blockHash": "0xd6c757508b11b9ab7b8f6b5cab8774774256867aead0c9938111c08217f59aae",
      "blockNumber": 94650,
      "transactionIndex": 12,
      "confirmations": null,
      "from": "0xe6A7a1d47ff21B6321162AEA7C6CB457D5476Bca",
      "gasPrice": {
        "_hex": "0xd8365a6dc"
      },
      "gasLimit": {
        "_hex": "0x55f0"
      },
      "to": "0x090d50347263c6E24312c2A4f42C456f4AcC40Ca",
      "value": {
        "_hex": "0x24010a6efcf4e1d4"
      },
      "nonce": 2646,
      "data": "0x",
      "r": "0xc566a1cee7ec525c90c2f466614a60fc97b12eb62eeefbaaa73de8259764d57a",
      "s": "0x035ee04248d95a71e1c1d59eb074f6473052c894dbda580b42b958c1b2d0d5bb",
      "v": 28,
      "creates": null,
      "raw": "0xf86e820a56850d8365a6dc8255f094090d50347263c6e24312c2a4f42c456f4acc40ca8824010a6efcf4e1d4801ca0c566a1cee7ec525c90c2f466614a60fc97b12eb62eeefbaaa73de8259764d57aa0035ee04248d95a71e1c1d59eb074f6473052c894dbda580b42b958c1b2d0d5bb",
      "networkId": 0,
      "chainId": 0
    }
  ]
}