{
  "hash": "0x13deeaa877a5926fb196cae9fa1b197c4b6157c67820fc21363d6156910a4911",
  "parentHash": "0xe456ecbaa713f424f3e18bab3dae14ecd77e7d25d0e4c12cbdcb08d4cacd20e4",
  "number": 63603,
  "timestamp": 1439207159,
  "nonce": "0x84a634b8e4fb33e7",
  "difficulty": 1845007419632,
  "gasLimit": {
    "_hex": "0x2fefd8"
  },
  "gasUsed": {
    "_hex": "0x5208"
  },
  "miner": "0x123843545FB525C8E134c9A5F15ADA6865cc3848",
  "extraData": "0x476574682f76312e302e312f77696e646f77732f676f312e342e32",
  "transactions": [
    {
      "hash": "0x4fd5449e9c46c87a3b2604856234359ab318c04a20747b489f874a14e506f4f3",
      "blockHash": "0x13deeaa877a5926fb196cae9fa1b197c4b6157c67820fc21363d6156910a4911",
      "blockNumber": 63603,
      "transactionIndex": 0,
      "confirmations": null,
      "from": "0x65C40Ee4e07E09671fF3cE2dff2AcCbE366bb5C8",
      "gasPrice": {
        "_hex": "0xde6fdceb0"
      },
      "gasLimit": {
        "_hex": "0x5208"
      },
      "to": "0x32Be343B94f860124dC4fEe278FDCBD38C102D88",
      "value": {
        "_hex": "0x183e171fc18d02000"
      },
      "nonce": 1,
      "data": "0x",
      "r": "0x67a469f6298576fce8d39bd66b82248858b54f16ae3b584a2d31a2a52c2b9e26",
      "s": "0x7df0e0b190eb015a5654e2807d4be56bac5c4ede45555eacd1ca54d0a541ae7c",
      "v": 28,
      "creates": null,
      "raw": "0xf86d01850de6fdceb08252089432be343b94f860124dc4fee278fdcbd38c102d88890183e171fc18d02000801ca067a469f6298576fce8d39bd66b82248858b54f16ae3b584a2d31a2a52c2b9e26a07df0e0b190eb015a5654e2807d4be56bac5c4ede45555eacd1ca54d0a541ae7c",
      "networkId": 0,
      "chainId": 0
    }
  ]
}