{
  "hash": "0xabe7e71f648881cf7ce5007ee3c4c7aba2f84c9217e2291ce762e836ad55728c",
  "parentHash": "0x576d2933c98a9492898a2efb4d2a9b524343bde075cccd7fc210d681f3c6203e",
  "number": 94516,
  "timestamp": 1439709699,
  "nonce": "0xab50184d29ed333a",
  "difficulty": 3486627550453,
  "gasLimit": {
    "_hex": "0x2fefd8"
  },
  "gasUsed": {
    "_hex": "0x5208"
  },
  "miner": "0x5F8F73E26CdF436f19Cb24C82F90A15AFe55b592",
  "extraData": "0x476574682f76312e302e312f77696e646f77732f676f312e342e32",
  "transactions": [
    {
      "hash": "0x99ef77ad1193da6da9f3a36fccadc4b5b0d735d1282cc7bd1aae297264637a95",
      "blockHash": "0xabe7e71f648881cf7ce5007ee3c4c7aba2f84c9217e2291ce762e836ad55728c",
      "blockNumber": 94516,
      "transactionIndex": 0,
      "confirmations": null,
      "from": "0x2910543Af39abA0Cd09dBb2D50200b3E800A63D2",
      "gasPrice": {
        "_hex": "0xd39c4df36"
      },
      "gasLimit": {
        "_hex": "0x5208"
      },
      "to": "0xAaE8DCB1d3D159A0D2439c8e0e2F73812320c79d",
      "value": {
        "_hex": "0x9d3583e7ab00ef8000"
      },
      "nonce": 879,
      "data": "0x",
      "r": "0xf42f104e68e5e2cbd0fae2805fe67ccad3a79156d301e885d93de39bfb55760a",
      "s": "0x10bcdf312c28b714910f7306e87dc088650bd9b87c6b770e314d70479e03a276",
      "v": 27,
      "creates": null,
      "raw": "0xf86f82036f850d39c4df3682520894aae8dcb1d3d159a0d2439c8e0e2f73812320c79d899d3583e7ab00ef8000801ba0f42f104e68e5e2cbd0fae2805fe67ccad3a79156d301e885d93de39bfb55760aa010bcdf312c28b714910f7306e87dc088650bd9b87c6b770e314d70479e03a276",
      "networkId": 0,
      "chainId": 0
    }
  ]
}