{
  "hash": "0xf7282d7fa9f9e08a1eb456ce5b582176d6f8bd88354835e7c01e5e98af3a6784",
  "parentHash": "0x35e298a7e83ad06c19800005b3704e0b903da315cf88716cbed0112ab0df5960",
  "number": 115287,
  "timestamp": 1440054600,
  "nonce": "0x98c92bcf7d9d5950",
  "difficulty": 4556151998524,
  "gasLimit": {
    "_hex": "0x2fefd8"
  },
  "gasUsed": {
    "_hex": "0x2e248"
  },
  "miner": "0xbb7B8287f3F0a933474a79eAe42CBCa977791171",
  "extraData": "0x476574682f4c5649562f76312e302e312f6c696e75782f676f312e342e32",
  "transactions": [
    {
      "hash": "0x4f62734f9430825b5ba7169425e7021b5c3725bd2723da8816502ef7ad7206f6",
      "blockHash": "0xf7282d7fa9f9e08a1eb456ce5b582176d6f8bd88354835e7c01e5e98af3a6784",
      "blockNumber": 115287,
      "transactionIndex": 0,
      "confirmations": null,
      "from": "0xe6A7a1d47ff21B6321162AEA7C6CB457D5476Bca",
      "gasPrice": {
        "_hex": "0xd21f378a4"
      },
      "gasLimit": {
        "_hex": "0x55f0"
      },
      "to": "0x99DD8707E14E7A8D702b2700f6e8072DF8ee91D7",
      "value": {
        "_hex": "0x200578c0c8dea680"
      },
      "nonce": 5197,
      "data": "0x",
      "r": "0xfb4ed760a84ccc977fa4d95fd79a08f3c9709ac21b4cdc9c2076d923a93b29a4",
      "s": "0x5cd305c5834cc1c23aa22fa31540ad827917aa6bf387c3f6c5ae485ebef93e3d",
      "v": 27,
      "creates": null,
      "raw": "0xf86e82144d850d21f378a48255f09499dd8707e14e7a8d702b2700f6e8072df8ee91d788200578c0c8dea680801ba0fb4ed760a84ccc977fa4d95fd79a08f3c9709ac21b4cdc9c2076d923a93b29a4a05cd305c5834cc1c23aa22fa31540ad827917aa6bf387c3f6c5ae485ebef93e3d",
      "networkId": 0,
      "chainId": 0
    },
    {
      "hash": "0x124b8702c1960d0ea75555f43715d67a2daebd6dc489e2e6028ecdda105de7ef",
      "blockHash": "0xf7282d7fa9f9e08a1eb456ce5b582176d6f8bd88354835e7c01e5e98af3a6784",
      "blockNumber": 115287,
      "transactionIndex": 1,
      "confirmations": null,
      "from": "0xe6A7a1d47ff21B6321162AEA7C6CB457D5476Bca",
      "gasPrice": {
        "_hex": "0xd21f378a4"
      },
      "gasLimit": {
        "_hex": "0x55f0"
      },
      "to": "0xF2B3F8Eb4e663dA275b8C57fe45A0E8D489Eac2E",
      "value": {
        "_hex": "0x201ba2775881b4a8"
      },
      "nonce": 5198,
      "data": "0x",
      "r": "0x400fd4b68a2b988c9f1b40faad84a6ea48c9eb49b504ac6fd31e4b951d691c50",
      "s": "0x59c6d2823bcd64e3991577c127e5fd97a85f4bdebc63e7feeb99b12d9fec29db",
      "v": 27,
      "creates": null,
      "raw": "0xf86e82144e850d21f378a48255f094f2b3f8eb4e663da275b8c57fe45a0e8d489eac2e88201ba2775881b4a8801ba0400fd4b68a2b988c9f1b40faad84a6ea48c9eb49b504ac6fd31e4b951d691c50a059c6d2823bcd64e3991577c127e5fd97a85f4bdebc63e7feeb99b12d9fec29db",
      "networkId": 0,
      "chainId": 0
    },
    {
      "hash": "0xc68c6e904b949a92572476fcacdfc0e5bbfeb037564326143721e147ec3afed1",
      "blockHash": "0xf7282d7fa9f9e08a1eb456ce5b582176d6f8bd88354835e7c01e5e98af3a6784",
      "blockNumber": 115287,
      "transactionIndex": 2,
      "confirmations": null,
      "from": "0xe6A7a1d47ff21B6321162AEA7C6CB457D5476Bca",
      "gasPrice": {
        "_hex": "0xd21f378a4"
      },
      "gasLimit": {
        "_hex": "0x55f0"
      },
      "to": "0x0f7E5465DB8bC57940471E530a83Fb7Ac5b82d7f",
      "value": {
        "_hex": "0x203664ac522fa4e0"
      },
      "nonce": 5199,
      "data": "0x",
      "r": "0x83fa03e5f78649b3fa9fce4e77bbae9407c39f0f4bbe1efa5b32e5554edf4370",
      "s": "0x537840d6441bcc392a74b21a2f16ff2927f4c9d77c323ea8765abc31e9ff6198",
      "v": 28,
      "creates": null,
      "raw": "0xf86e82144f850d21f378a48255f0940f7e5465db8bc57940471e530a83fb7ac5b82d7f88203664ac522fa4e0801ca083fa03e5f78649b3fa9fce4e77bbae9407c39f0f4bbe1efa5b32e5554edf4370a0537840d6441bcc392a74b21a2f16ff2927f4c9d77c323ea8765abc31e9ff6198",
      "networkId": 0,
      "chainId": 0
    },
    {
      "hash": "0x0ca9fe04fd23b580459d184b7ff2035b33ae68c84416fc7f79ccebc569ca1da1",
      "blockHash": "0xf7282d7fa9f9e08a1eb456ce5b582176d6f8bd88354835e7c01e5e98af3a6784",
      "blockNumber": 115287,
      "transactionIndex": 3,
      "confirmations": null,
      "from": "0xe6A7a1d47ff21B6321162AEA7C6CB457D5476Bca",
      "gasPrice": {
        "_hex": "0xd21f378a4"
      },
      "gasLimit": {
        "_hex": "0x55f0"
      },
      "to": "0x72dcecdD4a7374231676f7fA910A678DfC7c98D6",
      "value": {
        "_hex": "0x21306567dc6001e4"
      },
      "nonce": 5200,
      "data": "0x",
      "r": "0xa47cdea382b19c4383fad3f65922101715c4f041e82d4db0fa653c1135a8bbe4",
      "s": "0x4031ad521bfeb43c2dcafda082446ef26cb7c558bf403cb01e36e8cea8119925",
      "v": 27,
      "creates": null,
      "raw": "0xf86e821450850d21f378a48255f09472dcecdd4a7374231676f7fa910a678dfc7c98d68821306567dc6001e4801ba0a47cdea382b19c4383fad3f65922101715c4f041e82d4db0fa653c1135a8bbe4a04031ad521bfeb43c2dcafda082446ef26cb7c558bf403cb01e36e8cea8119925",
      "networkId": 0,
      "chainId": 0
    },
    {
      "hash": "0x4216f62cae0d60dddec5626a78a3e6e0938f4b1a43057fb6fd385070c21a9023",
      "blockHash": "0xf7282d7fa9f9e08a1eb456ce5b582176d6f8bd88354835e7c01e5e98af3a6784",
      "blockNumber": 115287,
      "transactionIndex": 4,
      "confirmations": null,
      "from": "0xe6A7a1d47ff21B6321162AEA7C6CB457D5476Bca",
      "gasPrice": {
        "_hex": "0xd21f378a4"
      },
      "gasLimit": {
        "_hex": "0x55f0"
      },
      "to": "0x2118baa5B9d6423676CF5502Eb6eaeD859228c33",
      "value": {
        "_hex": "0x215784fc5a1fe268"
      },
      "nonce": 5201,
      "data": "0x",
      "r": "0x7f779b9a0f17c61eb51f9c254bdeb58a12186524cdbf7aff0f95fd22c1e7ba0b",
      "s": "0x68b3cdca4580ebda9d50061ec6daf46b775f93f39d291f3b7a7cbe88581fb563",
      "v": 27,
      "creates": null,
      "raw": "0xf86e821451850d21f378a48255f0942118baa5b9d6423676cf5502eb6eaed859228c3388215784fc5a1fe268801ba07f779b9a0f17c61eb51f9c254bdeb58a12186524cdbf7aff0f95fd22c1e7ba0ba068b3cdca4580ebda9d50061ec6daf46b775f93f39d291f3b7a7cbe88581fb563",
      "networkId": 0,
      "chainId": 0
    },
    {
      "hash": "0xb2b6c7987cd4d84665ade527ced1c3a5a9212dfdfd4336d78383a3ce57115048",
      "blockHash": "0xf7282d7fa9f9e08a1eb456ce5b582176d6f8bd88354835e7c01e5e98af3a6784",
      "blockNumber": 115287,
      "transactionIndex": 5,
      "confirmations": null,
      "from": "0xe6A7a1d47ff21B6321162AEA7C6CB457D5476Bca",
      "gasPrice": {
        "_hex": "0xd21f378a4"
      },
      "gasLimit": {
        "_hex": "0x55f0"
      },
      "to": "0xB89C0F465b0472fa5A58eCDd01eD937205ae4d06",
      "value": {
        "_hex": "0x21d07c3abeecc824"
      },
      "nonce": 5202,
      "data": "0x",
      "r": "0xa8b67cc5a458030f832ddbf4a744a96b5aca803c52d9c4507c2f237def5f853c",
      "s": "0x7c4ffcde0841acf05fe20c3e77e14b47ae8ea161b09c606a3f4ee396d37e259b",
      "v": 28,
      "creates": null,
      "raw": "0xf86e821452850d21f378a48255f094b89c0f465b0472fa5a58ecdd01ed937205ae4d068821d07c3abeecc824801ca0a8b67cc5a458030f832ddbf4a744a96b5aca803c52d9c4507c2f237def5f853ca07c4ffcde0841acf05fe20c3e77e14b47ae8ea161b09c606a3f4ee396d37e259b",
      "networkId": 0,
      "chainId": 0
    },
    {
      "hash": "0x4c7b303bec3ea1488b0512b5a639c0a8783191db8edb32d4752c652ae94076d5",
      "blockHash": "0xf7282d7fa9f9e08a1eb456ce5b582176d6f8bd88354835e7c01e5e98af3a6784",
      "blockNumber": 115287,
      "transactionIndex": 6,
      "confirmations": null,
      "from": "0xe6A7a1d47ff21B6321162AEA7C6CB457D5476Bca",
      "gasPrice": {
        "_hex": "0xd21f378a4"
      },
      "gasLimit": {
        "_hex": "0x55f0"
      },
      "to": "0x357A01795bfA480a007fB4B1B6eDf2e8C23f1840",
      "value": {
        "_hex": "0x22843e1f14544814"
      },
      "nonce": 5203,
      "data": "0x",
      "r": "0x4da4d2a58c7a3c5bb81695779c7588d361e2cd3eb057def0da62cb821427ad58",
      "s": "0x41680f6772a178d98cef361f2c27d6501cc18a120496fe4ae234c8a70e3082f0",
      "v": 27,
      "creates": null,
      "raw": "0xf86e821453850d21f378a48255f094357a01795bfa480a007fb4b1b6edf2e8c23f18408822843e1f14544814801ba04da4d2a58c7a3c5bb81695779c7588d361e2cd3eb057def0da62cb821427ad58a041680f6772a178d98cef361f2c27d6501cc18a120496fe4ae234c8a70e3082f0",
      "networkId": 0,
      "chainId": 0
    },
    {
      "hash": "0x522e1465b278b8e0e34a51ccf24021abbe056138da6430f3fd1ea85a2e2dfb0d",
      "blockHash": "0xf7282d7fa9f9e08a1eb456ce5b582176d6f8bd88354835e7c01e5e98af3a6784",
      "blockNumber": 115287,
      "transactionIndex": 7,
      "confirmations": null,
      "from": "0xe6A7a1d47ff21B6321162AEA7C6CB457D5476Bca",
      "gasPrice": {
        "_hex": "0xd21f378a4"
      },
      "gasLimit": {
        "_hex": "0x55f0"
      },
      "to": "0xA881a976d37b162a8e82169bf5B83a627d8A1480",
      "value": {
        "_hex": "0x231877db928cc000"
      },
      "nonce": 5204,
      "data": "0x",
      "r": "0x7b1ae4ce02128a2ca0d494ef457eeac4bf79cdc99aeee2858c6feb4a7f300215",
      "s": "0x4b0ab338d011db106bed748838f04043b574d56e10a63caafbfb847ab0a6f709",
      "v": 27,
      "creates": null,
      "raw": "0xf86e821454850d21f378a48255f094a881a976d37b162a8e82169bf5b83a627d8a148088231877db928cc000801ba07b1ae4ce02128a2ca0d494ef457eeac4bf79cdc99aeee2858c6feb4a7f300215a04b0ab338d011db106bed748838f04043b574d56e10a63caafbfb847ab0a6f709",
      "networkId": 0,
      "chainId": 0
    },
    {
      "hash": "0x6f6a63aca758fd1350d1cc8855cabe22676804db4eac17fcb3e1e1514aef0889",
      "blockHash": "0xf7282d7fa9f9e08a1eb456ce5b582176d6f8bd88354835e7c01e5e98af3a6784",
      "blockNumber": 115287,
      "transactionIndex": 8,
      "confirmations": null,
      "from": "0xe6A7a1d47ff21B6321162AEA7C6CB457D5476Bca",
      "gasPrice": {
        "_hex": "0xd21f378a4"
      },
      "gasLimit": {
        "_hex": "0x55f0"
      },
      "to": "0xBf7d5E6CD66bc79d7759B640cbe188bCFA030cc4",
      "value": {
        "_hex": "0x236049795c4d5df8"
      },
      "nonce": 5205,
      "data": "0x",
      "r": "0x50bdd0066b66b57a002f0325a4ec81b4f9e71e58f57301a2c677770c6d0c97fa",
      "s": "0x3c4f1888ef32ced3a931414440f9c35cdf9f16c24171567d2c10f691077fd405",
      "v": 28,
      "creates": null,
      "raw": "0xf86e821455850d21f378a48255f094bf7d5e6cd66bc79d7759b640cbe188bcfa030cc488236049795c4d5df8801ca050bdd0066b66b57a002f0325a4ec81b4f9e71e58f57301a2c677770c6d0c97faa03c4f1888ef32ced3a931414440f9c35cdf9f16c24171567d2c10f691077fd405",
      "networkId": 0,
      "chainId": 0
    }
  ]
}