{
  "hash": "0xc211db9dc962075a51b569f0cd4a06bf5f1d4459112f1ae28ddb0b92cc898319",
  "parentHash": "0xe20622565799d8b2bae3a5d3984e711164eb468c5809a44f876dd3011c0deab6",
  "number": 55140,
  "timestamp": 1439065947,
  "nonce": "0x8d7ac883d405c78d",
  "difficulty": 1638634464837,
  "gasLimit": {
    "_hex": "0x2fefd8"
  },
  "gasUsed": {
    "_hex": "0xf4240"
  },
  "miner": "0xDe50f61a9a1176B7875050872C6Baf0032e6F6FF",
  "extraData": "0x476574682f76312e302e312d64303531323734362f6c696e75782f676f312e34",
  "transactions": [
    {
      "hash": "0x2cbb080d46bca090a5a986f6e53b39e872235a75c031ba8f4f8f504ac09a0d24",
      "blockHash": "0xc211db9dc962075a51b569f0cd4a06bf5f1d4459112f1ae28ddb0b92cc898319",
      "blockNumber": 55140,
      "transactionIndex": 0,
      "confirmations": null,
      "from": "0x0ae3F81a67725a8A7758FeB8684c6c17dA20755D",
      "gasPrice": {
        "_hex": "0xd8364fc25"
      },
      "gasLimit": {
        "_hex": "0x7a120"
      },
      "to": "0x109C4f2CCc82C4d77Bde15F306707320294Aea3F",
      "value": {
        "_hex": "0xde0b6b3a7640000"
      },
      "nonce": 7,
      "data": "0x",
      "r": "0xdef932ee97ef14b80c6d6c7bb5b9c6e7a71c433fb062769d59634326944e5235",
      "s": "0x128a8919f485d5a34e54823fb178637fd9353a1d1a5decf9ad6248ba5edd21f5",
      "v": 28,
      "creates": null,
      "raw": "0xf86d07850d8364fc258307a12094109c4f2ccc82c4d77bde15f306707320294aea3f880de0b6b3a7640000801ca0def932ee97ef14b80c6d6c7bb5b9c6e7a71c433fb062769d59634326944e5235a0128a8919f485d5a34e54823fb178637fd9353a1d1a5decf9ad6248ba5edd21f5",
      "networkId": 0,
      "chainId": 0
    },
    {
      "hash": "0x11f8e4e1f0e3cd7a562ecbd1aafce0bc0f371142dc94784abaa3b76d470299d2",
      "blockHash": "0xc211db9dc962075a51b569f0cd4a06bf5f1d4459112f1ae28ddb0b92cc898319",
      "blockNumber": 55140,
      "transactionIndex": 1,
      "confirmations": null,
      "from": "0x0ae3F81a67725a8A7758FeB8684c6c17dA20755D",
      "gasPrice": {
        "_hex": "0xd8364fc25"
      },
      "gasLimit": {
        "_hex": "0x7a120"
      },
      "to": "0x109C4f2CCc82C4d77Bde15F306707320294Aea3F",
      "value": {
        "_hex": "0xde0b6b3a7640000"
      },
      "nonce": 8,
      "data": "0x",
      "r": "0x7cb31282eb0faf0ffe4355de77054cd6e433d33694b524f925236df42635b8fa",
      "s": "0x36f0dda25fcc52022c1bcfd956af36475dca126e80a31b1da1a340a6de57e325",
      "v": 28,
      "creates": null,
      "raw": "0xf86d08850d8364fc258307a12094109c4f2ccc82c4d77bde15f306707320294aea3f880de0b6b3a7640000801ca07cb31282eb0faf0ffe4355de77054cd6e433d33694b524f925236df42635b8faa036f0dda25fcc52022c1bcfd956af36475dca126e80a31b1da1a340a6de57e325",
      "networkId": 0,
      "chainId": 0
    }
  ]
}