{
  "hash": "0x3eeb519e717a26b3fddf1e3979df16bb0bfeaea8eb93e4b7ef84003d75d586f2",
  "parentHash": "0x0fb6ceac17268f401cec36807a6e1d87a9e7fea9a14510cff1b2115534b5f552",
  "number": 113359,
  "timestamp": 1440022069,
  "nonce": "0x2c7fc1c036fcc55d",
  "difficulty": 4495317802488,
  "gasLimit": {
    "_hex": "0x2fefd8"
  },
  "gasUsed": {
    "_hex": "0x5208"
  },
  "miner": "0xe6A7a1d47ff21B6321162AEA7C6CB457D5476Bca",
  "extraData": "0x476574682f76312e302e312d38326566323666362f6c696e75782f676f312e34",
  "transactions": [
    {
      "hash": "0x40247494bd6919d1aad897be99d7882f15622f1983bd808e236980dde3669eaf",
      "blockHash": "0x3eeb519e717a26b3fddf1e3979df16bb0bfeaea8eb93e4b7ef84003d75d586f2",
      "blockNumber": 113359,
      "transactionIndex": 0,
      "confirmations": null,
      "from": "0xbA8c9CDA6af013Cc68A076E17c84d4cDbc5960c5",
      "gasPrice": {
        "_hex": "0xd067ef079"
      },
      "gasLimit": {
        "_hex": "0x5208"
      },
      "to": "0x32Be343B94f860124dC4fEe278FDCBD38C102D88",
      "value": {
        "_hex": "0xcb6e9bd8327f8000"
      },
      "nonce": 6,
      "data": "0x",
      "r": "0xa450c0f37eff473ff555b14a9fe84911c91b795c8f6acd7f595ea359a6677297",
      "s": "0x78e158788c2ff0d39f513e551b194c19c7685cebeecb58b639cb9dfe54677f42",
      "v": 27,
      "creates": null,
      "raw": "0xf86c06850d067ef0798252089432be343b94f860124dc4fee278fdcbd38c102d8888cb6e9bd8327f8000801ba0a450c0f37eff473ff555b14a9fe84911c91b795c8f6acd7f595ea359a6677297a078e158788c2ff0d39f513e551b194c19c7685cebeecb58b639cb9dfe54677f42",
      "networkId": 0,
      "chainId": 0
    }
  ]
}