{
  "hash": "0x5cdb856e404175299e783028bac5531f55e7378586581976c8880e45bc137d6a",
  "parentHash": "0xd6ae7fd37d3e11d2705d52214a18bb7533d36023914ae158bef03a6c4b7d77ba",
  "number": 105859,
  "timestamp": 1439894577,
  "nonce": "0xa4ed00a9e6a252f8",
  "difficulty": 4459967028683,
  "gasLimit": {
    "_hex": "0x2fefd8"
  },
  "gasUsed": {
    "_hex": "0x5208"
  },
  "miner": "0xe6A7a1d47ff21B6321162AEA7C6CB457D5476Bca",
  "extraData": "0x476574682f76312e302e312d38326566323666362f6c696e75782f676f312e34",
  "transactions": [
    {
      "hash": "0xfb95cb12403dfab87edaf823f2930670de4a92cb68cf2b692956432823ae2549",
      "blockHash": "0x5cdb856e404175299e783028bac5531f55e7378586581976c8880e45bc137d6a",
      "blockNumber": 105859,
      "transactionIndex": 0,
      "confirmations": null,
      "from": "0x32Be343B94f860124dC4fEe278FDCBD38C102D88",
      "gasPrice": {
        "_hex": "0xcefda51da"
      },
      "gasLimit": {
        "_hex": "0x5208"
      },
      "to": "0xAaA4BEfA989B980188a418Cc5C4C02E7d9103818",
      "value": {
        "_hex": "0x31e83d5ac8a7b00000"
      },
      "nonce": 1174,
      "data": "0x",
      "r": "0x6b79d6906ebae1b7ca229cb4ac889b73523c343b2d6d390e838c362adfb40ec3",
      "s": "0x341df5ef3031e0d06fed937b7e7d01164df65d52aa5dbd17748c2f9ace54ccb3",
      "v": 27,
      "creates": null,
      "raw": "0xf86f820496850cefda51da82520894aaa4befa989b980188a418cc5c4c02e7d91038188931e83d5ac8a7b00000801ba06b79d6906ebae1b7ca229cb4ac889b73523c343b2d6d390e838c362adfb40ec3a0341df5ef3031e0d06fed937b7e7d01164df65d52aa5dbd17748c2f9ace54ccb3",
      "networkId": 0,
      "chainId": 0
    }
  ]
}