{
  "hash": "0x2fafce8f1e3e1b5f7abe81b7cd8baa5c39b36ffd15ca809d02eb9d2c0e3dcbf8",
  "parentHash": "0x2a993f8e29d1bdd8be46f367233b1f98ebb6258eb322cd89db0aeb24abaae6e0",
  "number": 97881,
  "timestamp": 1439763447,
  "nonce": "0x66c910324d92ecca",
  "difficulty": 3837132050318,
  "gasLimit": {
    "_hex": "0x2fefd8"
  },
  "gasUsed": {
    "_hex": "0x5208"
  },
  "miner": "0xe6A7a1d47ff21B6321162AEA7C6CB457D5476Bca",
  "extraData": "0x476574682f76312e302e312d38326566323666362f6c696e75782f676f312e34",
  "transactions": [
    {
      "hash": "0x4bb09c96aaf8145263fe130e47d7617a9c76a06fbda521df501d672ebe791180",
      "blockHash": "0x2fafce8f1e3e1b5f7abe81b7cd8baa5c39b36ffd15ca809d02eb9d2c0e3dcbf8",
      "blockNumber": 97881,
      "transactionIndex": 0,
      "confirmations": null,
      "from": "0xee5379D0c1ca47327368027455074C26D9952628",
      "gasPrice": {
        "_hex": "0xda8d054ff"
      },
      "gasLimit": {
        "_hex": "0x15f90"
      },
      "to": "0xB8796061FcCcC0c40BD2060d95d6cff928bD1C1B",
      "value": {
        "_hex": "0x2258f7630b1780000"
      },
      "nonce": 14,
      "data": "0x",
      "r": "0x963f85b36d969b496f66eeabeef393e898d707ef39e524537950299ff2f46135",
      "s": "0x5e786311357e56891b73001f3328b4361499a1eda6fd6f9e0a4304d45479e6ae",
      "v": 27,
      "creates": null,
      "raw": "0xf86e0e850da8d054ff83015f9094b8796061fcccc0c40bd2060d95d6cff928bd1c1b8902258f7630b1780000801ba0963f85b36d969b496f66eeabeef393e898d707ef39e524537950299ff2f46135a05e786311357e56891b73001f3328b4361499a1eda6fd6f9e0a4304d45479e6ae",
      "networkId": 0,
      "chainId": 0
    }
  ]
}