{
  "hash": "0x6f8a463f5926bcf6e3e6a42edc54ef618bd6feec863edc99a227a2e66e7e48c9",
  "parentHash": "0xb7761e5909920bc273db54df7b40407387ef095a2a7ced676f3e15e870575f0c",
  "number": 112923,
  "timestamp": 1440015373,
  "nonce": "0xc487f05b2b9ef43f",
  "difficulty": 4451863249239,
  "gasLimit": {
    "_hex": "0x2fefd8"
  },
  "gasUsed": {
    "_hex": "0x5208"
  },
  "miner": "0xf927a40C8B7F6E07c5af7FA2155B4864a4112B13",
  "extraData": "0x",
  "transactions": [
    {
      "hash": "0x4d22aa4c09dadb662e6301db5779d2307ef301576422fb34f4414560a6434a30",
      "blockHash": "0x6f8a463f5926bcf6e3e6a42edc54ef618bd6feec863edc99a227a2e66e7e48c9",
      "blockNumber": 112923,
      "transactionIndex": 0,
      "confirmations": null,
      "from": "0xbAeF66124E137Eb5eE0DE1BbAB5a30002508a1bf",
      "gasPrice": {
        "_hex": "0xd64108134"
      },
      "gasLimit": {
        "_hex": "0x15f90"
      },
      "to": "0xAF17A4ab5d6B10055Fc1eB1BFaCcbDe69B83aF76",
      "value": {
        "_hex": "0x21d3bd55e803c0000"
      },
      "nonce": 6,
      "data": "0x",
      "r": "0x228f15c2c61a107f6c03d72f47cf5f2f1608708cea0c8faef97605c9afacfadf",
      "s": "0x78eaa1fecc3a3f4b645d0b475d3d1526b2f19ebd73034c3a1288152c74a16ba2",
      "v": 28,
      "creates": null,
      "raw": "0xf86e06850d6410813483015f9094af17a4ab5d6b10055fc1eb1bfaccbde69b83af7689021d3bd55e803c0000801ca0228f15c2c61a107f6c03d72f47cf5f2f1608708cea0c8faef97605c9afacfadfa078eaa1fecc3a3f4b645d0b475d3d1526b2f19ebd73034c3a1288152c74a16ba2",
      "networkId": 0,
      "chainId": 0
    }
  ]
}