{
  "hash": "0x439bc35b99955a33a7eb7a744337eb3b7e25e7d9f8ee2bdf0b1512fe4dd42982",
  "parentHash": "0x3055dd2217b7bb3c2a726f564ccc4d8e447d805ca9a83efb3a3d2ace1bab175b",
  "number": 89032,
  "timestamp": 1439617072,
  "nonce": "0x6437093363861628",
  "difficulty": 3274326265300,
  "gasLimit": {
    "_hex": "0x2fefd8"
  },
  "gasUsed": {
    "_hex": "0x5208"
  },
  "miner": "0x9D0B366c06Bdb8D00C9Ab617db64B505f9e05d79",
  "extraData": "0x476574682f76312e302e312d38326566323666362f6c696e75782f676f312e34",
  "transactions": [
    {
      "hash": "0x5e2f291735cc2667a3bb793edbfba664e339527cf9c75c39617e091e55d04e64",
      "blockHash": "0x439bc35b99955a33a7eb7a744337eb3b7e25e7d9f8ee2bdf0b1512fe4dd42982",
      "blockNumber": 89032,
      "transactionIndex": 0,
      "confirmations": null,
      "from": "0x2e1A591a3Bd5FCE3c1E095c205Bd202C29541e70",
      "gasPrice": {
        "_hex": "0xd86c61c4f"
      },
      "gasLimit": {
        "_hex": "0x15f90"
      },
      "to": "0xD8dD71C53246d7e5C97fa2c5539dB9eF6662E6D6",
      "value": {
        "_hex": "0x16345785d8a0000"
      },
      "nonce": 0,
      "data": "0x",
      "r": "0x802c8b69cf04f6d362f76da68561f0b2aa934c77db5501c3d67fbc28f06fe359",
      "s": "0x66e8364d9559d9c15f55513216e8a1018d8ee9a8579b74131c353a604f6722de",
      "v": 28,
      "creates": null,
      "raw": "0xf86d80850d86c61c4f83015f9094d8dd71c53246d7e5c97fa2c5539db9ef6662e6d688016345785d8a0000801ca0802c8b69cf04f6d362f76da68561f0b2aa934c77db5501c3d67fbc28f06fe359a066e8364d9559d9c15f55513216e8a1018d8ee9a8579b74131c353a604f6722de",
      "networkId": 0,
      "chainId": 0
    }
  ]
}