{
  "hash": "0x2c5ebe07a3d55dabe8b90b8b1ddddcb91212869080ea682a56b2a9aea3ff67bd",
  "parentHash": "0xee4e998b0dc2d6605b15359bcab9a7801d58556369bd6410aa822be29a569d9f",
  "number": 74884,
  "timestamp": 1439394066,
  "nonce": "0x358711f4aee39d1a",
  "difficulty": 2191263583614,
  "gasLimit": {
    "_hex": "0x2fefd8"
  },
  "gasUsed": {
    "_hex": "0x546c"
  },
  "miner": "0x57a5156876AA9d5bA611Db7871966a2a8c1D8f4e",
  "extraData": "0x476574682f76312e302e312d38326566323666362f6c696e75782f676f312e34",
  "transactions": [
    {
      "hash": "0x5a8c557893daa5d723af07c0e996d9755afb0418b2263af87e011eea1c26214d",
      "blockHash": "0x2c5ebe07a3d55dabe8b90b8b1ddddcb91212869080ea682a56b2a9aea3ff67bd",
      "blockNumber": 74884,
      "transactionIndex": 0,
      "confirmations": null,
      "from": "0x29C0024a99b44d481694cB5D98907a1343D390fD",
      "gasPrice": {
        "_hex": "0xd3e0dd636"
      },
      "gasLimit": {
        "_hex": "0x55f0"
      },
      "to": "0x2910543Af39abA0Cd09dBb2D50200b3E800A63D2",
      "value": {
        "_hex": "0x53444835ec580000"
      },
      "nonce": 5,
      "data": "0x454e50314a51515547",
      "r": "0xbb4c79d96e6859d3c951a22a2df35940ddb3f6954d044bfec9ccb477422262d1",
      "s": "0x656bd7258d18a120c19ba2e12cfad3b236e096e29f216292a54194e221400898",
      "v": 27,
      "creates": null,
      "raw": "0xf87505850d3e0dd6368255f0942910543af39aba0cd09dbb2d50200b3e800a63d28853444835ec58000089454e50314a515155471ba0bb4c79d96e6859d3c951a22a2df35940ddb3f6954d044bfec9ccb477422262d1a0656bd7258d18a120c19ba2e12cfad3b236e096e29f216292a54194e221400898",
      "networkId": 0,
      "chainId": 0
    }
  ]
}