{
  "hash": "0x885e19edaf773ad6b57f67521d8233cc5b1ab08edaaf675756a597ef25ece930",
  "parentHash": "0xc269e3a32be23c0b47c1d2a5bce8fcee97959b742cd40911e650985beabb371c",
  "number": 108396,
  "timestamp": 1439939631,
  "nonce": "0x301a706d5ce488c0",
  "difficulty": 4327775984966,
  "gasLimit": {
    "_hex": "0x2fefd8"
  },
  "gasUsed": {
    "_hex": "0xa410"
  },
  "miner": "0xe6A7a1d47ff21B6321162AEA7C6CB457D5476Bca",
  "extraData": "0x476574682f76312e302e312d38326566323666362f6c696e75782f676f312e34",
  "transactions": [
    {
      "hash": "0x8f80db7152f14e3ec7fab99dfeaf4ff2c917e6d43961d758892f409eada92365",
      "blockHash": "0x885e19edaf773ad6b57f67521d8233cc5b1ab08edaaf675756a597ef25ece930",
      "blockNumber": 108396,
      "transactionIndex": 0,
      "confirmations": null,
      "from": "0xc3631c7698b6C5111989BF452727B3f9395a6deA",
      "gasPrice": {
        "_hex": "0x45d964b800"
      },
      "gasLimit": {
        "_hex": "0x5208"
      },
      "to": "0x431FDD9f2Fdc4A532867E0e0a85463436807d17C",
      "value": {
        "_hex": "0x3635c9adc5dea00000"
      },
      "nonce": 8,
      "data": "0x",
      "r": "0xad75e592a60d73185463ea8598ce60fd5717124ad55f1dbfcc4c71ef1ced1789",
      "s": "0x13348992e8a7e9bda0aa9e4d580ebc3fa2897553a4e655c58bef80e2b0b72488",
      "v": 28,
      "creates": null,
      "raw": "0xf86d088545d964b80082520894431fdd9f2fdc4a532867e0e0a85463436807d17c893635c9adc5dea00000801ca0ad75e592a60d73185463ea8598ce60fd5717124ad55f1dbfcc4c71ef1ced1789a013348992e8a7e9bda0aa9e4d580ebc3fa2897553a4e655c58bef80e2b0b72488",
      "networkId": 0,
      "chainId": 0
    },
    {
      "hash": "0x5674d87ef0f3d676f4e4cfbccd410e45b5cd19caaeea1f38e6397cfa1ee96534",
      "blockHash": "0x885e19edaf773ad6b57f67521d8233cc5b1ab08edaaf675756a597ef25ece930",
      "blockNumber": 108396,
      "transactionIndex": 1,
      "confirmations": null,
      "from": "0xa70a9a7040d542C632D8e0bE7c5513A8a5Bbc752",
      "gasPrice": {
        "_hex": "0xdadf8ecb1"
      },
      "gasLimit": {
        "_hex": "0x5208"
      },
      "to": "0x32Be343B94f860124dC4fEe278FDCBD38C102D88",
      "value": {
        "_hex": "0x478e965f6e287000"
      },
      "nonce": 263,
      "data": "0x",
      "r": "0x7bb321deeeb03bde4d7eb3faddad53c8e3cd9cbab3dc232f52e757251299ba14",
      "s": "0x056b312013aec01add34a5439f7488e7fb20caeb1995110c8093df04356f1de8",
      "v": 27,
      "creates": null,
      "raw": "0xf86e820107850dadf8ecb18252089432be343b94f860124dc4fee278fdcbd38c102d8888478e965f6e287000801ba07bb321deeeb03bde4d7eb3faddad53c8e3cd9cbab3dc232f52e757251299ba14a0056b312013aec01add34a5439f7488e7fb20caeb1995110c8093df04356f1de8",
      "networkId": 0,
      "chainId": 0
    }
  ]
}