{
  "hash": "0x516ec36b5dd79fa29c1bbee7be979a6b21974b3f43abd1058c670f29473ec1ea",
  "parentHash": "0x2174e45a7e28b87fc6bbf2141cccfda34274fcd620d65f38e311b21e52c41638",
  "number": 111651,
  "timestamp": 1439993816,
  "nonce": "0x77918aa060484840",
  "difficulty": 4439512897865,
  "gasLimit": {
    "_hex": "0x2fefd8"
  },
  "gasUsed": {
    "_hex": "0x5208"
  },
  "miner": "0xe6A7a1d47ff21B6321162AEA7C6CB457D5476Bca",
  "extraData": "0x476574682f76312e302e312d38326566323666362f6c696e75782f676f312e34",
  "transactions": [
    {
      "hash": "0xff0d021a03f1c944bbfd59968a4375e248a960a4c7e65ec3c3585eddac2b5785",
      "blockHash": "0x516ec36b5dd79fa29c1bbee7be979a6b21974b3f43abd1058c670f29473ec1ea",
      "blockNumber": 111651,
      "transactionIndex": 0,
      "confirmations": null,
      "from": "0xe3d915EdA3B825D6ee4AF9328D32Ac18ada35497",
      "gasPrice": {
        "_hex": "0xd23ee12e2"
      },
      "gasLimit": {
        "_hex": "0x15f90"
      },
      "to": "0x79204D7826f5d18687B4bB92dF98b98218Ab38B9",
      "value": {
        "_hex": "0xde0b6b3a7640000"
      },
      "nonce": 3,
      "data": "0x",
      "r": "0x04834d8170b994245ee467418fa5523ecdcbf96d5dd7709ffaa4fee464e3412b",
      "s": "0x6db9196764ce13fd1decaa2eaf0ff7998d85f1c4a38bf524731a94526a196f79",
      "v": 28,
      "creates": null,
      "raw": "0xf86d03850d23ee12e283015f909479204d7826f5d18687b4bb92df98b98218ab38b9880de0b6b3a7640000801ca004834d8170b994245ee467418fa5523ecdcbf96d5dd7709ffaa4fee464e3412ba06db9196764ce13fd1decaa2eaf0ff7998d85f1c4a38bf524731a94526a196f79",
      "networkId": 0,
      "chainId": 0
    }
  ]
}