{
  "hash": "0x4e34b6a9e57824dc8f552024a4ff652b4c84b0cb16bb1827e8a8f8582aaee7d8",
  "parentHash": "0x7981ee7af0f30baa303d1d6351e17c3c48df36481126977ab13d81a719115ab1",
  "number": 48528,
  "timestamp": 1438958539,
  "nonce": "0x506a86be3807d263",
  "difficulty": 1470020659669,
  "gasLimit": {
    "_hex": "0x18e5a"
  },
  "gasUsed": {
    "_hex": "0x546c"
  },
  "miner": "0xBD744E3F13D79B33F6c8E1d5E32F8E9BA2866c46",
  "extraData": "0x476574682f76312e302e312d38326566323666362f6c696e75782f676f312e34",
  "transactions": [
    {
      "hash": "0x700ce5ac4ed1fb566cf80a9f25b41a404c13d57d0bec25d273029a01b97baa80",
      "blockHash": "0x4e34b6a9e57824dc8f552024a4ff652b4c84b0cb16bb1827e8a8f8582aaee7d8",
      "blockNumber": 48528,
      "transactionIndex": 0,
      "confirmations": null,
      "from": "0x958E5cd47A35fe3fE5A29A9979CeA71E19073af2",
      "gasPrice": {
        "_hex": "0xcaefea337"
      },
      "gasLimit": {
        "_hex": "0x15f90"
      },
      "to": "0x2910543Af39abA0Cd09dBb2D50200b3E800A63D2",
      "value": {
        "_hex": "0x203b2d71e2d840000"
      },
      "nonce": 0,
      "data": "0x454e51343033375047",
      "r": "0x5f1d6596c8ab2da9eaf13f8a89f3d6d2dc6bb9af2bb18da22fbc21745b65a43a",
      "s": "0x0af8d4cf5d42da374c54952a096bc06ef6adf53a66f6f373bff74896c985c548",
      "v": 28,
      "creates": null,
      "raw": "0xf87780850caefea33783015f90942910543af39aba0cd09dbb2d50200b3e800a63d2890203b2d71e2d84000089454e513430333750471ca05f1d6596c8ab2da9eaf13f8a89f3d6d2dc6bb9af2bb18da22fbc21745b65a43aa00af8d4cf5d42da374c54952a096bc06ef6adf53a66f6f373bff74896c985c548",
      "networkId": 0,
      "chainId": 0
    }
  ]
}