{
  "hash": "0x7719b92cd4733d076dfa8a1d8e31614b31e4d3c310997496ce76c5d3f053c17d",
  "parentHash": "0x15f436a98879141f2d8654f11c7cadbcec9d6331485ee132b050772a5bb9cdbc",
  "number": 96091,
  "timestamp": 1439734790,
  "nonce": "0xbe1ca6f0262d549c",
  "difficulty": 3637249152338,
  "gasLimit": {
    "_hex": "0x2fefd8"
  },
  "gasUsed": {
    "_hex": "0x5208"
  },
  "miner": "0xe6A7a1d47ff21B6321162AEA7C6CB457D5476Bca",
  "extraData": "0x476574682f76312e302e312d38326566323666362f6c696e75782f676f312e34",
  "transactions": [
    {
      "hash": "0x23d3a3b93791112e50c8e2a209d9add12307ce37c89e9156fbdb9fc1cc5e3e03",
      "blockHash": "0x7719b92cd4733d076dfa8a1d8e31614b31e4d3c310997496ce76c5d3f053c17d",
      "blockNumber": 96091,
      "transactionIndex": 0,
      "confirmations": null,
      "from": "0xc27376f45D21E15edE3b26F2655FceE02Ccc0F2a",
      "gasPrice": {
        "_hex": "0xd0a0e2766"
      },
      "gasLimit": {
        "_hex": "0x55f0"
      },
      "to": "0xA20AA7c6890060F57100f77cC050915b3f336236",
      "value": {
        "_hex": "0x38d7ea4c68000"
      },
      "nonce": 6,
      "data": "0x",
      "r": "0xadb91a2a3b07891b87eb6bdb08fbba1b63e83380f11b806db70f3a848d934726",
      "s": "0x4ba1d8f5348ed19a232f7d7adb886d2b4a67f37db4d59a9923cd6e50471f8507",
      "v": 28,
      "creates": null,
      "raw": "0xf86b06850d0a0e27668255f094a20aa7c6890060f57100f77cc050915b3f33623687038d7ea4c68000801ca0adb91a2a3b07891b87eb6bdb08fbba1b63e83380f11b806db70f3a848d934726a04ba1d8f5348ed19a232f7d7adb886d2b4a67f37db4d59a9923cd6e50471f8507",
      "networkId": 0,
      "chainId": 0
    }
  ]
}