{
  "hash": "0xf521c4b9935afde5a501df43c91a7314842eaf58652c25d16c55554538c44d7e",
  "parentHash": "0x6c65893bce3a788ac36ab98d720eba6ca8139d3d85117f8fa6a35047abe8da14",
  "number": 122044,
  "timestamp": 1440187161,
  "nonce": "0x659903501035671f",
  "difficulty": 4466610929674,
  "gasLimit": {
    "_hex": "0x2fefd8"
  },
  "gasUsed": {
    "_hex": "0x5208"
  },
  "miner": "0xe6A7a1d47ff21B6321162AEA7C6CB457D5476Bca",
  "extraData": "0xd783010002844765746887676f312e342e32856c696e7578",
  "transactions": [
    {
      "hash": "0xe7dc4383e3a2d300762fb679281bac093ac7335a3020e814f27b79be5a2026ed",
      "blockHash": "0xf521c4b9935afde5a501df43c91a7314842eaf58652c25d16c55554538c44d7e",
      "blockNumber": 122044,
      "transactionIndex": 0,
      "confirmations": null,
      "from": "0x4D67f4F0Db45b3B5a3424B39ed8d972F710381D5",
      "gasPrice": {
        "_hex": "0xd6e396367"
      },
      "gasLimit": {
        "_hex": "0x5208"
      },
      "to": "0x32Be343B94f860124dC4fEe278FDCBD38C102D88",
      "value": {
        "_hex": "0x33f433eeb77732000"
      },
      "nonce": 66,
      "data": "0x",
      "r": "0xf0bc7b8172e2576b2c93c22478fbcb347e8f9e70d8d991be9ee5f214716c9682",
      "s": "0x4d15337275778746920edcdd741568cc430e135467d22e33fa3446dfa58d096a",
      "v": 28,
      "creates": null,
      "raw": "0xf86d42850d6e3963678252089432be343b94f860124dc4fee278fdcbd38c102d8889033f433eeb77732000801ca0f0bc7b8172e2576b2c93c22478fbcb347e8f9e70d8d991be9ee5f214716c9682a04d15337275778746920edcdd741568cc430e135467d22e33fa3446dfa58d096a",
      "networkId": 0,
      "chainId": 0
    }
  ]
}