{
  "hash": "0x86b51976af53c628c81b55f8fb8112ff2b5e0ec3ae36f18e57415eba16588f95",
  "parentHash": "0xf174a9027fd93d05e5ccdc36f320af3b26cd847700453e90d6386e49fa5ddd15",
  "number": 70803,
  "timestamp": 1439325740,
  "nonce": "0x3dae6ee6992b91b0",
  "difficulty": 2148876863540,
  "gasLimit": {
    "_hex": "0x2fefd8"
  },
  "gasUsed": {
    "_hex": "0x5208"
  },
  "miner": "0x31995C46B15C84523cDEE26f49A681b8237e43F5",
  "extraData": "0x476574682f76312e302e312f77696e646f77732f676f312e342e32",
  "transactions": [
    {
      "hash": "0xa58f1219de2128af0a107a1c242d29bd158a5e68279b888c803f2e1f9f37ac49",
      "blockHash": "0x86b51976af53c628c81b55f8fb8112ff2b5e0ec3ae36f18e57415eba16588f95",
      "blockNumber": 70803,
      "transactionIndex": 0,
      "confirmations": null,
      "from": "0x2910543Af39abA0Cd09dBb2D50200b3E800A63D2",
      "gasPrice": {
        "_hex": "0xd6bd29f2e"
      },
      "gasLimit": {
        "_hex": "0x5208"
      },
      "to": "0x7Bceeab50c6D8eCBbaAAf7A25201bc9e2189616e",
      "value": {
        "_hex": "0xdcef33a6f838000"
      },
      "nonce": 253,
      "data": "0x",
      "r": "0x385c2088f526b0eb87c7fb27cdff663c4c0cce934e89fbe9e9979b15c3d5d0dc",
      "s": "0x6de6da95daf32c6ba25562497827304b698e6c0f7e599612c63e8fd7f6f656bf",
      "v": 27,
      "creates": null,
      "raw": "0xf86d81fd850d6bd29f2e825208947bceeab50c6d8ecbbaaaf7a25201bc9e2189616e880dcef33a6f838000801ba0385c2088f526b0eb87c7fb27cdff663c4c0cce934e89fbe9e9979b15c3d5d0dca06de6da95daf32c6ba25562497827304b698e6c0f7e599612c63e8fd7f6f656bf",
      "networkId": 0,
      "chainId": 0
    }
  ]
}