{
  "hash": "0xa47e879f8f56d3efc60413e23f77838e6765d62580a167bfe7e75636c0868462",
  "parentHash": "0x889d5ae45e883f31011aa75d1a6881efac233f75c44b2fdbdc177956a6dc4ed4",
  "number": 80871,
  "timestamp": 1439492466,
  "nonce": "0xdd17e16e038faeaa",
  "difficulty": 2441594666036,
  "gasLimit": {
    "_hex": "0x2fefd8"
  },
  "gasUsed": {
    "_hex": "0x14820"
  },
  "miner": "0xeB1325C8D9d3ea8D74aC11F4B00F1B2367686319",
  "extraData": "0x476574682f76312e302e312f77696e646f77732f676f312e342e32",
  "transactions": [
    {
      "hash": "0xc24c110387065afd2871bff1c44f9bc1ee99e7d8d786065bbc98a4e0fb377969",
      "blockHash": "0xa47e879f8f56d3efc60413e23f77838e6765d62580a167bfe7e75636c0868462",
      "blockNumber": 80871,
      "transactionIndex": 0,
      "confirmations": null,
      "from": "0xF2Edde37F9a8C39ddeA24D79f4015757D06BF786",
      "gasPrice": {
        "_hex": "0xd4be89f70"
      },
      "gasLimit": {
        "_hex": "0x5208"
      },
      "to": "0x738e836870D34d909F8De81Ae8c759cf55f4EAaF",
      "value": {
        "_hex": "0x56bc75e2d63100000"
      },
      "nonce": 0,
      "data": "0x",
      "r": "0xd4f199dd67bebc1276e2643603dca92a11f2280318304695d93df980ad8c10a9",
      "s": "0x38650668e96c629e98e3f25d6844543557bff484b256c7c64446a6de15fa8fdd",
      "v": 27,
      "creates": null,
      "raw": "0xf86d80850d4be89f7082520894738e836870d34d909f8de81ae8c759cf55f4eaaf89056bc75e2d63100000801ba0d4f199dd67bebc1276e2643603dca92a11f2280318304695d93df980ad8c10a9a038650668e96c629e98e3f25d6844543557bff484b256c7c64446a6de15fa8fdd",
      "networkId": 0,
      "chainId": 0
    },
    {
      "hash": "0x4911b998552e8468cb719d65e736378bd87636e2eb3a6525a3ad2ee9785f08a4",
      "blockHash": "0xa47e879f8f56d3efc60413e23f77838e6765d62580a167bfe7e75636c0868462",
      "blockNumber": 80871,
      "transactionIndex": 1,
      "confirmations": null,
      "from": "0x2910543Af39abA0Cd09dBb2D50200b3E800A63D2",
      "gasPrice": {
        "_hex": "0xcd4f0a182"
      },
      "gasLimit": {
        "_hex": "0x5208"
      },
      "to": "0xdEC7d1B05f89c0Ce0870Ea4AeA18138264675478",
      "value": {
        "_hex": "0x1b1ad31369b76f8000"
      },
      "nonce": 408,
      "data": "0x",
      "r": "0x719b69f22dc65800a83e2e6ec2bfabb518aec29c3d76a8b98afc04f5e2f4e56d",
      "s": "0x274664233fd525b5da4e4ddb26a90556ad53355a087a75219d360ba2fa840d47",
      "v": 27,
      "creates": null,
      "raw": "0xf86f820198850cd4f0a18282520894dec7d1b05f89c0ce0870ea4aea18138264675478891b1ad31369b76f8000801ba0719b69f22dc65800a83e2e6ec2bfabb518aec29c3d76a8b98afc04f5e2f4e56da0274664233fd525b5da4e4ddb26a90556ad53355a087a75219d360ba2fa840d47",
      "networkId": 0,
      "chainId": 0
    },
    {
      "hash": "0xffe747dd53546d3716a61edb6cbb9f10ec0399c5e48796649fcab12a25303f04",
      "blockHash": "0xa47e879f8f56d3efc60413e23f77838e6765d62580a167bfe7e75636c0868462",
      "blockNumber": 80871,
      "transactionIndex": 2,
      "confirmations": null,
      "from": "0x2910543Af39abA0Cd09dBb2D50200b3E800A63D2",
      "gasPrice": {
        "_hex": "0xcd4f0a182"
      },
      "gasLimit": {
        "_hex": "0x5208"
      },
      "to": "0x6d33A045c6E37BD756aCFE28Ab25Ba546dF40c4e",
      "value": {
        "_hex": "0x4551ce090d138000"
      },
      "nonce": 409,
      "data": "0x",
      "r": "0x1fe7fe1f91d076d02e54697e5625115a8b541dd8d14aaf08db285f31819af501",
      "s": "0x1e4fdfbb7d239d144dfe4aea9bd3780ba603b1f6881db594bcc40f810a338e01",
      "v": 27,
      "creates": null,
      "raw": "0xf86e820199850cd4f0a182825208946d33a045c6e37bd756acfe28ab25ba546df40c4e884551ce090d138000801ba01fe7fe1f91d076d02e54697e5625115a8b541dd8d14aaf08db285f31819af501a01e4fdfbb7d239d144dfe4aea9bd3780ba603b1f6881db594bcc40f810a338e01",
      "networkId": 0,
      "chainId": 0
    },
    {
      "hash": "0xb778fa3f903af5a254cf9fef4a9c357405400a3693255f030035a246d295248a",
      "blockHash": "0xa47e879f8f56d3efc60413e23f77838e6765d62580a167bfe7e75636c0868462",
      "blockNumber": 80871,
      "transactionIndex": 3,
      "confirmations": null,
      "from": "0xC3Ff472485ebe25dAe8d7d96d49Bb59a03103B38",
      "gasPrice": {
        "_hex": "0xba43b7400"
      },
      "gasLimit": {
        "_hex": "0x5263"
      },
      "to": "0x0e2feEC433472451e3E7ea6da95D453C2a82e4dC",
      "value": {
        "_hex": "0xde0b6b3a7640000"
      },
      "nonce": 1,
      "data": "0x",
      "r": "0x4ac9f5a43bc71c2881e7bf1cc7ca12eb592f975a5f15071b264fe6d986f2ff2d",
      "s": "0xb36ef5dc71021140ee93062f6a3e6824d10609e919e4bc373ef8fa3e8490d5ee",
      "v": 28,
      "creates": null,
      "raw": "0xf86c01850ba43b7400825263940e2feec433472451e3e7ea6da95d453c2a82e4dc880de0b6b3a7640000801ca04ac9f5a43bc71c2881e7bf1cc7ca12eb592f975a5f15071b264fe6d986f2ff2da0b36ef5dc71021140ee93062f6a3e6824d10609e919e4bc373ef8fa3e8490d5ee",
      "networkId": 0,
      "chainId": 0
    }
  ]
}