{
  "hash": "0x040dcae53e0bb84266104eae11704d4c7b0acd47852e87b480c3a241ba2c6142",
  "parentHash": "0xb3ea5817ce16ee1891e76f10109eb55e070816047bd1830d17732cbf0482ca73",
  "number": 106430,
  "timestamp": 1439904078,
  "nonce": "0x2ac61b8522ebb6aa",
  "difficulty": 4488061905004,
  "gasLimit": {
    "_hex": "0x2fefd8"
  },
  "gasUsed": {
    "_hex": "0x5208"
  },
  "miner": "0xe6A7a1d47ff21B6321162AEA7C6CB457D5476Bca",
  "extraData": "0x476574682f76312e302e312d38326566323666362f6c696e75782f676f312e34",
  "transactions": [
    {
      "hash": "0x2880802cc18b785fbcc312fee4196236aaa11663c4e6c059d0ad2c8ed3e4c8c5",
      "blockHash": "0x040dcae53e0bb84266104eae11704d4c7b0acd47852e87b480c3a241ba2c6142",
      "blockNumber": 106430,
      "transactionIndex": 0,
      "confirmations": null,
      "from": "0x5fF827e73C5B866c300b824fe12719a3DD350513",
      "gasPrice": {
        "_hex": "0xd4ef69cab"
      },
      "gasLimit": {
        "_hex": "0x5208"
      },
      "to": "0x32Be343B94f860124dC4fEe278FDCBD38C102D88",
      "value": {
        "_hex": "0x1158a0252d074d000"
      },
      "nonce": 20,
      "data": "0x",
      "r": "0x3d524f62ece80ad4cde033107fe075edde009ed2abe388f2db607ee8da3b3d3e",
      "s": "0x117cb076d0ca8e9662136fee9d1bb2e6f089a54e5e8e06e77ac49f725f7e5bee",
      "v": 28,
      "creates": null,
      "raw": "0xf86d14850d4ef69cab8252089432be343b94f860124dc4fee278fdcbd38c102d888901158a0252d074d000801ca03d524f62ece80ad4cde033107fe075edde009ed2abe388f2db607ee8da3b3d3ea0117cb076d0ca8e9662136fee9d1bb2e6f089a54e5e8e06e77ac49f725f7e5bee",
      "networkId": 0,
      "chainId": 0
    }
  ]
}