{
  "hash": "0xc3dc8c4add58719203702c9952f56618bd36f30a74eb285e8c99fde571338cdd",
  "parentHash": "0x89c12c638b074205bf846a61d9da0a02dc536372e9c2d5b54758db8db7d15c49",
  "number": 56894,
  "timestamp": 1439094192,
  "nonce": "0x6db574e66f61712f",
  "difficulty": 1708552206968,
  "gasLimit": {
    "_hex": "0x2fefd8"
  },
  "gasUsed": {
    "_hex": "0x5208"
  },
  "miner": "0x2134e2a2b718DCa96580ECAC31E653Ea1fdd58DA",
  "extraData": "0x476574682f76312e302e312f77696e646f77732f676f312e342e32",
  "transactions": [
    {
      "hash": "0xc4e7c2c3909b124ed8d6b05d0b0463890befa40800e2f404e08a02e27bc3f1e8",
      "blockHash": "0xc3dc8c4add58719203702c9952f56618bd36f30a74eb285e8c99fde571338cdd",
      "blockNumber": 56894,
      "transactionIndex": 0,
      "confirmations": null,
      "from": "0x32Be343B94f860124dC4fEe278FDCBD38C102D88",
      "gasPrice": {
        "_hex": "0xd037dca2e"
      },
      "gasLimit": {
        "_hex": "0x5208"
      },
      "to": "0x8E1372aB42e7495276e7b0b5e785e8ed59111C0a",
      "value": {
        "_hex": "0x3635a626d36ee00000"
      },
      "nonce": 85,
      "data": "0x",
      "r": "0x9a0c96788075c09a1a84150cff4db597a5653b62caf0d204f8762e361286d764",
      "s": "0x6bd11d7182bdd9bbc0ae52b905043520dab9a27a9d68f8e2a0af1865d62c5837",
      "v": 28,
      "creates": null,
      "raw": "0xf86d55850d037dca2e825208948e1372ab42e7495276e7b0b5e785e8ed59111c0a893635a626d36ee00000801ca09a0c96788075c09a1a84150cff4db597a5653b62caf0d204f8762e361286d764a06bd11d7182bdd9bbc0ae52b905043520dab9a27a9d68f8e2a0af1865d62c5837",
      "networkId": 0,
      "chainId": 0
    }
  ]
}