{
  "hash": "0x352ee313b7bc8cabe4b6f9a9da668b443d50a7f122afb3254fb7b985355944db",
  "parentHash": "0x94daf7c26dc56bff72b83346b1222adbd3916d409b86f79a5bfc338222e4dbce",
  "number": 80205,
  "timestamp": 1439481764,
  "nonce": "0xe20e5fabf184907f",
  "difficulty": 2373606328381,
  "gasLimit": {
    "_hex": "0x2fefd8"
  },
  "gasUsed": {
    "_hex": "0x5208"
  },
  "miner": "0x0eDEd3DA479d0beF8eeC92A76644D3f4E3C177f7",
  "extraData": "0x476574682f76312e302e312f6c696e75782f676f312e342e32",
  "transactions": [
    {
      "hash": "0xbcd343bdca4dc7a66c108f4d9f2cf8a58d3234cb57edeab0ee005d4afc359d89",
      "blockHash": "0x352ee313b7bc8cabe4b6f9a9da668b443d50a7f122afb3254fb7b985355944db",
      "blockNumber": 80205,
      "transactionIndex": 0,
      "confirmations": null,
      "from": "0x7998276dDecB82491dEe4Cd6cC504C55e87b5570",
      "gasPrice": {
        "_hex": "0xce86e1c57"
      },
      "gasLimit": {
        "_hex": "0x15f90"
      },
      "to": "0x3a3e78131Aa0d6192896c7d0D13924B144e79E4d",
      "value": {
        "_hex": "0x51e102bd8ece0000"
      },
      "nonce": 1,
      "data": "0x",
      "r": "0x9a7d2e81388427d44884072178bd92c7c49a57754a16f6e2068199c7b0f36cfa",
      "s": "0x10737f86e3264d46b180d0d5199e06999e5d35d6de901dbf6fab17b87cb2073a",
      "v": 27,
      "creates": null,
      "raw": "0xf86d01850ce86e1c5783015f90943a3e78131aa0d6192896c7d0d13924b144e79e4d8851e102bd8ece0000801ba09a7d2e81388427d44884072178bd92c7c49a57754a16f6e2068199c7b0f36cfaa010737f86e3264d46b180d0d5199e06999e5d35d6de901dbf6fab17b87cb2073a",
      "networkId": 0,
      "chainId": 0
    }
  ]
}