{
  "hash": "0x8ee14ecd889d8367c2566d6796b0f67bcee7f84c508a064d7ff669f4d7c6e9fc",
  "parentHash": "0x63bfbceda8297686347b5eac4416c2743b3c81771760de10d774ec1a390c1c2b",
  "number": 78336,
  "timestamp": 1439452254,
  "nonce": "0x685a7a3bdc0c2860",
  "difficulty": 2275393003404,
  "gasLimit": {
    "_hex": "0x2fefd8"
  },
  "gasUsed": {
    "_hex": "0x5208"
  },
  "miner": "0x5B3e850E39e6f2C7dD38707b649e2B3536F14C0b",
  "extraData": "0x476574682f76312e302e312f64617277696e2f676f312e342e32",
  "transactions": [
    {
      "hash": "0x85500dc069cab5541a7ca9d8183eb1fdebc128b653c414b35e29b41aa30cea2c",
      "blockHash": "0x8ee14ecd889d8367c2566d6796b0f67bcee7f84c508a064d7ff669f4d7c6e9fc",
      "blockNumber": 78336,
      "transactionIndex": 0,
      "confirmations": null,
      "from": "0x286c2305Af13204F46Da83Dc2Ed5eAB84AB8046f",
      "gasPrice": {
        "_hex": "0xd7d40ace3"
      },
      "gasLimit": {
        "_hex": "0x15f90"
      },
      "to": "0x50e04C374F4E93d85e3Ea204b8670e59c8e2F611",
      "value": {
        "_hex": "0x0"
      },
      "nonce": 2,
      "data": "0x",
      "r": "0x8cd9d3a8f979161ae87130aafd18cbd26f2767ab034bef238f7a3ed8a3d6db49",
      "s": "0x25c2f8be6da2b8cd82c3ac68e6e80024c085afe5bcafd86ddd93894ef74a7aaa",
      "v": 28,
      "creates": null,
      "raw": "0xf86502850d7d40ace383015f909450e04c374f4e93d85e3ea204b8670e59c8e2f61180801ca08cd9d3a8f979161ae87130aafd18cbd26f2767ab034bef238f7a3ed8a3d6db49a025c2f8be6da2b8cd82c3ac68e6e80024c085afe5bcafd86ddd93894ef74a7aaa",
      "networkId": 0,
      "chainId": 0
    }
  ]
}