{
  "hash": "0x326ea698c5f79be9bd42dea3d491a5e5eb978cd9989772f3b8c1a4d3c957ee3d",
  "parentHash": "0xa9f97a3aef6dce26091db0b9301e74f01472ef207f3ac0f12d8e12297f7139ee",
  "number": 68532,
  "timestamp": 1439289658,
  "nonce": "0x7a86ab1f65b6c031",
  "difficulty": 2000583106869,
  "gasLimit": {
    "_hex": "0x2fefd8"
  },
  "gasUsed": {
    "_hex": "0xf618"
  },
  "miner": "0xa50ec0D39fa913E62f1Bae7074E6F36caA71855b",
  "extraData": "0x",
  "transactions": [
    {
      "hash": "0x6e88d13d601e6fa30e50a8e2c7976202c305e0e22f8854f2f4c7de5993450b51",
      "blockHash": "0x326ea698c5f79be9bd42dea3d491a5e5eb978cd9989772f3b8c1a4d3c957ee3d",
      "blockNumber": 68532,
      "transactionIndex": 0,
      "confirmations": null,
      "from": "0x3ecAd42e13f875a63f85BC6d836FFE5235eD4125",
      "gasPrice": {
        "_hex": "0xba43b7400"
      },
      "gasLimit": {
        "_hex": "0x5208"
      },
      "to": "0x4D8231627D1B8139db6C8418ca9E7BE247560a43",
      "value": {
        "_hex": "0x36ef271c4dd000"
      },
      "nonce": 1,
      "data": "0x",
      "r": "0x219f822897f1fd1ac43afcafc699c9562dd552717e50ddb30cbc1d3782952be2",
      "s": "0x65dc63fcfcee54def3c46028b127d723f013accc79c9be4bf545ebf70112f17a",
      "v": 28,
      "creates": null,
      "raw": "0xf86b01850ba43b7400825208944d8231627d1b8139db6c8418ca9e7be247560a438736ef271c4dd000801ca0219f822897f1fd1ac43afcafc699c9562dd552717e50ddb30cbc1d3782952be2a065dc63fcfcee54def3c46028b127d723f013accc79c9be4bf545ebf70112f17a",
      "networkId": 0,
      "chainId": 0
    },
    {
      "hash": "0xee53c56b4905264539a04080d9e78f3822bb9f6276ee367a3d900713f9b43024",
      "blockHash": "0x326ea698c5f79be9bd42dea3d491a5e5eb978cd9989772f3b8c1a4d3c957ee3d",
      "blockNumber": 68532,
      "transactionIndex": 1,
      "confirmations": null,
      "from": "0x774881773e6b791e0601de6c79d00F2b45Bc2146",
      "gasPrice": {
        "_hex": "0xba43b7400"
      },
      "gasLimit": {
        "_hex": "0x5208"
      },
      "to": "0xBAA5749f251Ba5D0499a11Eadf114c58A5563d7c",
      "value": {
        "_hex": "0x36ef271c4dd000"
      },
      "nonce": 1,
      "data": "0x",
      "r": "0x7816e49e42d9b68715acb24dead5794fe56f044f0e4fa1c6698756963c0e2f16",
      "s": "0x3f4c8229819cb7e5f81230663c759d04d7e8f774fe8a5e0665e99e2e74de82fc",
      "v": 28,
      "creates": null,
      "raw": "0xf86b01850ba43b740082520894baa5749f251ba5d0499a11eadf114c58a5563d7c8736ef271c4dd000801ca07816e49e42d9b68715acb24dead5794fe56f044f0e4fa1c6698756963c0e2f16a03f4c8229819cb7e5f81230663c759d04d7e8f774fe8a5e0665e99e2e74de82fc",
      "networkId": 0,
      "chainId": 0
    },
    {
      "hash": "0x1ab9e3113e709906c85a47870242e38eb6eb617c43ef90d798c04341d4eb0dfd",
      "blockHash": "0x326ea698c5f79be9bd42dea3d491a5e5eb978cd9989772f3b8c1a4d3c957ee3d",
      "blockNumber": 68532,
      "transactionIndex": 2,
      "confirmations": null,
      "from": "0x15C0571D879333Ca1177B66D3b466a830454A691",
      "gasPrice": {
        "_hex": "0xba43b7400"
      },
      "gasLimit": {
        "_hex": "0x5208"
      },
      "to": "0xA2cce932826AE0eCeD5E1a12299764006407460E",
      "value": {
        "_hex": "0x36ef271c4dd000"
      },
      "nonce": 1,
      "data": "0x",
      "r": "0x25cf0622f4e7d79b53a19c07563d3ded4a4da6c7b4130b77bf57e8f0306adb19",
      "s": "0x56ef7a86d4e80800086456d4f4ce6ea90e531c79f06d4a47854d2e32fb10dc4c",
      "v": 27,
      "creates": null,
      "raw": "0xf86b01850ba43b740082520894a2cce932826ae0eced5e1a12299764006407460e8736ef271c4dd000801ba025cf0622f4e7d79b53a19c07563d3ded4a4da6c7b4130b77bf57e8f0306adb19a056ef7a86d4e80800086456d4f4ce6ea90e531c79f06d4a47854d2e32fb10dc4c",
      "networkId": 0,
      "chainId": 0
    }
  ]
}