{
  "hash": "0xcf40388fd712c8c48c374eb5c93869a2048ff1684a97e7def4e311aaa8f3975c",
  "parentHash": "0x7f294f0a1e131fab5e5107f9d38c1efbe522f9c9947d3e3fa1af930a14b0f052",
  "number": 49238,
  "timestamp": 1438970291,
  "nonce": "0xd9459c539123e0cc",
  "difficulty": 1478534200210,
  "gasLimit": {
    "_hex": "0x29edb"
  },
  "gasUsed": {
    "_hex": "0x5208"
  },
  "miner": "0xf927a40C8B7F6E07c5af7FA2155B4864a4112B13",
  "extraData": "0x476574682f76312e302e312f6c696e75782f676f312e342e32",
  "transactions": [
    {
      "hash": "0x2237c3007bd6cf8929a9d4fd35697fd785d82b503ff9a3fc44b8b10d332bf598",
      "blockHash": "0xcf40388fd712c8c48c374eb5c93869a2048ff1684a97e7def4e311aaa8f3975c",
      "blockNumber": 49238,
      "transactionIndex": 0,
      "confirmations": null,
      "from": "0x2f66bFbF2262efcC8d2Bd0444FC5b0696298fF1E",
      "gasPrice": {
        "_hex": "0xdc0941b44"
      },
      "gasLimit": {
        "_hex": "0x15f90"
      },
      "to": "0x32b7C0BDFD488A3c81cCAD7ff2a2fB7A12a5575b",
      "value": {
        "_hex": "0x6c6b935b8bbd400000"
      },
      "nonce": 2,
      "data": "0x",
      "r": "0xc5096d9cb1b4e6021df85a7a470bd1ebb8a9362aa40eeb72f8a3ed031755f305",
      "s": "0x1db1370127e015c0d1fb7f76ced1964091fb757bb711c7ad4d9c9e30f523d2aa",
      "v": 27,
      "creates": null,
      "raw": "0xf86e02850dc0941b4483015f909432b7c0bdfd488a3c81ccad7ff2a2fb7a12a5575b896c6b935b8bbd400000801ba0c5096d9cb1b4e6021df85a7a470bd1ebb8a9362aa40eeb72f8a3ed031755f305a01db1370127e015c0d1fb7f76ced1964091fb757bb711c7ad4d9c9e30f523d2aa",
      "networkId": 0,
      "chainId": 0
    }
  ]
}