{
  "hash": "0x2ee3b5b1eab71c30cbf1e84f2d25b87e5cdd9a69f530a588f7081702baa19826",
  "parentHash": "0x79e0402a0cb3749bba00758a398659030f5e9e64721f4fa109095b0e43a4d951",
  "number": 116219,
  "timestamp": 1440070385,
  "nonce": "0x6da44efd92798da8",
  "difficulty": 4577944586334,
  "gasLimit": {
    "_hex": "0x2fefd8"
  },
  "gasUsed": {
    "_hex": "0x1bdbe"
  },
  "miner": "0xf8E0CA3Ed80bd541b94BEdCf259e8CF2141A9523",
  "extraData": "0x476574682f76312e302e312f77696e646f77732f676f312e342e32",
  "transactions": [
    {
      "hash": "0xf0762a50f9f591e61f65d86787e3b8e4c0703badb5d571707d840da575c0cf57",
      "blockHash": "0x2ee3b5b1eab71c30cbf1e84f2d25b87e5cdd9a69f530a588f7081702baa19826",
      "blockNumber": 116219,
      "transactionIndex": 0,
      "confirmations": null,
      "from": "0xA1E4380A3B1f749673E270229993eE55F35663b4",
      "gasPrice": {
        "_hex": "0xd7d40ace3"
      },
      "gasLimit": {
        "_hex": "0x249f0"
      },
      "to": "0xE28e72FCf78647ADCe1F1252F240bbfaebD63BcC",
      "value": {
        "_hex": "0x2b5e3af16b18800000"
      },
      "nonce": 9,
      "data": "0x45466f3a",
      "r": "0x19007893f944e5a00f2b27fa255e59ab09a693d617c632deb99882c25df0b697",
      "s": "0x4aa46f9a65f573b538101ce89d34759297ba40688767334a06645a06fa2ccbfe",
      "v": 27,
      "creates": null,
      "raw": "0xf87209850d7d40ace3830249f094e28e72fcf78647adce1f1252f240bbfaebd63bcc892b5e3af16b188000008445466f3a1ba019007893f944e5a00f2b27fa255e59ab09a693d617c632deb99882c25df0b697a04aa46f9a65f573b538101ce89d34759297ba40688767334a06645a06fa2ccbfe",
      "networkId": 0,
      "chainId": 0
    }
  ]
}