{
  "hash": "0x353d203168f09c72680a54eed87dd41007e771a7fce8d15e8ce64605555a779c",
  "parentHash": "0x45ecf899ff9d5019f4cd8ba67c894e86d3b8fb4e1760c01aaceaef3c0d7198ef",
  "number": 64538,
  "timestamp": 1439222468,
  "nonce": "0x34194ab5fb14d949",
  "difficulty": 1878433614811,
  "gasLimit": {
    "_hex": "0x2fefd8"
  },
  "gasUsed": {
    "_hex": "0x23b44"
  },
  "miner": "0xEF247E639d49461D25F57e9362CadE3120910Ce0",
  "extraData": "0x476574682f76312e302e312f6c696e75782f676f312e342e32",
  "transactions": [
    {
      "hash": "0x9f963885c65a2d1b870a86b243fb1baf5a8fb626aed45d7bf2dd3e16167c853e",
      "blockHash": "0x353d203168f09c72680a54eed87dd41007e771a7fce8d15e8ce64605555a779c",
      "blockNumber": 64538,
      "transactionIndex": 0,
      "confirmations": null,
      "from": "0xB106ad951726Ba2D8685A22eDc6Fb37e7483622F",
      "gasPrice": {
        "_hex": "0xba43b7400"
      },
      "gasLimit": {
        "_hex": "0x15f90"
      },
      "to": "0x793AE8C1b1a160BFc07BFB0d04F85eab1A71F4f2",
      "value": {
        "_hex": "0x0"
      },
      "nonce": 0,
      "data": "0x3ba15036",
      "r": "0xd50d2755213c65741722f3f4f31dd9eb035f8f13952297f586d428f76d380c31",
      "s": "0x63b70891a69118db82d12ad80c141bf53c5910b1ea35d221d2451f7968764f12",
      "v": 27,
      "creates": null,
      "raw": "0xf86980850ba43b740083015f9094793ae8c1b1a160bfc07bfb0d04f85eab1a71f4f280843ba150361ba0d50d2755213c65741722f3f4f31dd9eb035f8f13952297f586d428f76d380c31a063b70891a69118db82d12ad80c141bf53c5910b1ea35d221d2451f7968764f12",
      "networkId": 0,
      "chainId": 0
    },
    {
      "hash": "0x742ffa1c2f6545e8ad320cd9db4930aebe6788c8775ef3fc4a80e476c7321e7e",
      "blockHash": "0x353d203168f09c72680a54eed87dd41007e771a7fce8d15e8ce64605555a779c",
      "blockNumber": 64538,
      "transactionIndex": 1,
      "confirmations": null,
      "from": "0x694724A9FDa93362A9046F959e129756607fb499",
      "gasPrice": {
        "_hex": "0xba43b7400"
      },
      "gasLimit": {
        "_hex": "0x15f90"
      },
      "to": "0x793AE8C1b1a160BFc07BFB0d04F85eab1A71F4f2",
      "value": {
        "_hex": "0x0"
      },
      "nonce": 0,
      "data": "0x3ba15036",
      "r": "0xab747f0d1adb4705bcb721d29119543657bda7c99690169e5fb105848710451a",
      "s": "0x7969c514a8ea058742487b31e8aa7c584524277b5d99aaab19e0b3b4b360281a",
      "v": 28,
      "creates": null,
      "raw": "0xf86980850ba43b740083015f9094793ae8c1b1a160bfc07bfb0d04f85eab1a71f4f280843ba150361ca0ab747f0d1adb4705bcb721d29119543657bda7c99690169e5fb105848710451aa07969c514a8ea058742487b31e8aa7c584524277b5d99aaab19e0b3b4b360281a",
      "networkId": 0,
      "chainId": 0
    },
    {
      "hash": "0x09d177221c9dd53058e35c3455cdefe0746cc2ed1d8faf0c04c958465c9158b7",
      "blockHash": "0x353d203168f09c72680a54eed87dd41007e771a7fce8d15e8ce64605555a779c",
      "blockNumber": 64538,
      "transactionIndex": 2,
      "confirmations": null,
      "from": "0x09eCbF063986166fC2D804fF501496C96569E86c",
      "gasPrice": {
        "_hex": "0xba43b7400"
      },
      "gasLimit": {
        "_hex": "0x15f90"
      },
      "to": "0x793AE8C1b1a160BFc07BFB0d04F85eab1A71F4f2",
      "value": {
        "_hex": "0x0"
      },
      "nonce": 0,
      "data": "0x3ba15036",
      "r": "0x4ce29c6515c46de01a42e86302c7a1a70073ef92ea50ab77e25667425d975870",
      "s": "0x48f0098dca8bcefe6d6be8f0d55e602d6296202b368ada12968264f5ba16db4f",
      "v": 27,
      "creates": null,
      "raw": "0xf86980850ba43b740083015f9094793ae8c1b1a160bfc07bfb0d04f85eab1a71f4f280843ba150361ba04ce29c6515c46de01a42e86302c7a1a70073ef92ea50ab77e25667425d975870a048f0098dca8bcefe6d6be8f0d55e602d6296202b368ada12968264f5ba16db4f",
      "networkId": 0,
      "chainId": 0
    }
  ]
}