{
  "hash": "0x16d1cd4d9f4bdf8553e3106544d05f9ef5637b8b3168a00e17749d9cfdde3a6f",
  "parentHash": "0x6a115d3325b03b8ed538e42c64b6a3fbb2579d83821772ddc011d3528ea6134a",
  "number": 69223,
  "timestamp": 1439300165,
  "nonce": "0x5f6050eec5e64863",
  "difficulty": 2070984896139,
  "gasLimit": {
    "_hex": "0x2fefd8"
  },
  "gasUsed": {
    "_hex": "0x5208"
  },
  "miner": "0x3FF679B0823a026F2378E5f5F22A6F127cC85828",
  "extraData": "0x",
  "transactions": [
    {
      "hash": "0x6dd00faef2aee4d15aed49e0ad6dd70fc21d56d3d0e0fb0967a3de87e4e72017",
      "blockHash": "0x16d1cd4d9f4bdf8553e3106544d05f9ef5637b8b3168a00e17749d9cfdde3a6f",
      "blockNumber": 69223,
      "transactionIndex": 0,
      "confirmations": null,
      "from": "0x097738363B1662599ad0777E19461601F5EC8dF9",
      "gasPrice": {
        "_hex": "0xce1cb8640"
      },
      "gasLimit": {
        "_hex": "0x5208"
      },
      "to": "0x32Be343B94f860124dC4fEe278FDCBD38C102D88",
      "value": {
        "_hex": "0xddc95fa62b81000"
      },
      "nonce": 11,
      "data": "0x",
      "r": "0x650226b9d2a8407f2c09a011fe5de08b7193381831746b52008e62615cad24dc",
      "s": "0x1154c9f7b2df57a41a2e0274ffe83ee573208579007b99e0843c9957217e0d14",
      "v": 27,
      "creates": null,
      "raw": "0xf86c0b850ce1cb86408252089432be343b94f860124dc4fee278fdcbd38c102d88880ddc95fa62b81000801ba0650226b9d2a8407f2c09a011fe5de08b7193381831746b52008e62615cad24dca01154c9f7b2df57a41a2e0274ffe83ee573208579007b99e0843c9957217e0d14",
      "networkId": 0,
      "chainId": 0
    }
  ]
}