{
  "hash": "0xbd697b8f4a272cfeb5497d367a4aebb214db92d056cc6ad9ea71459c35dd8def",
  "parentHash": "0xe495626bd404944e0543e1787fcc040ab87a30269137b3a2f7bc13f999d7c023",
  "number": 94911,
  "timestamp": 1439715913,
  "nonce": "0x4efab9e3519f9968",
  "difficulty": 3536183438379,
  "gasLimit": {
    "_hex": "0x2fefd8"
  },
  "gasUsed": {
    "_hex": "0x14820"
  },
  "miner": "0x790b8a3cE86E707ED0eD32bF89B3269692a23CC1",
  "extraData": "0xd783010001844765746887676f312e342e32856c696e7578",
  "transactions": [
    {
      "hash": "0x631af389fbe4263ff0d61780751673f455b529d5d25950e1db30bc34a43251a7",
      "blockHash": "0xbd697b8f4a272cfeb5497d367a4aebb214db92d056cc6ad9ea71459c35dd8def",
      "blockNumber": 94911,
      "transactionIndex": 0,
      "confirmations": null,
      "from": "0xb1abce2918E21ddb93AA452731a12672A3d9F75a",
      "gasPrice": {
        "_hex": "0xddadf35ac"
      },
      "gasLimit": {
        "_hex": "0x5208"
      },
      "to": "0x32Be343B94f860124dC4fEe278FDCBD38C102D88",
      "value": {
        "_hex": "0xd02643fc528ff000"
      },
      "nonce": 27,
      "data": "0x",
      "r": "0x3ecc2f702b1ae8f3ae9460d858810b1f60c162a3046be3d303978a36831af0aa",
      "s": "0x699188128053ab715aa1d53c0a52344c178cf165cd64af842fc5ad5d42c53581",
      "v": 27,
      "creates": null,
      "raw": "0xf86c1b850ddadf35ac8252089432be343b94f860124dc4fee278fdcbd38c102d8888d02643fc528ff000801ba03ecc2f702b1ae8f3ae9460d858810b1f60c162a3046be3d303978a36831af0aaa0699188128053ab715aa1d53c0a52344c178cf165cd64af842fc5ad5d42c53581",
      "networkId": 0,
      "chainId": 0
    },
    {
      "hash": "0xd3bf318e0524f8f45287e6b3377bf253a0515f8991719eabde0eca4cb23dfd0f",
      "blockHash": "0xbd697b8f4a272cfeb5497d367a4aebb214db92d056cc6ad9ea71459c35dd8def",
      "blockNumber": 94911,
      "transactionIndex": 1,
      "confirmations": null,
      "from": "0xcD690730A45cdebeF24F2a3db2de181bFBA5CBea",
      "gasPrice": {
        "_hex": "0xddadf35ac"
      },
      "gasLimit": {
        "_hex": "0x5208"
      },
      "to": "0x32Be343B94f860124dC4fEe278FDCBD38C102D88",
      "value": {
        "_hex": "0x8ac2b27a0d9bf000"
      },
      "nonce": 5,
      "data": "0x",
      "r": "0x7e1977434f1c482ff60c8d4bf6b10751f49a63d2bcd298883e7df709e9ec4de5",
      "s": "0x416b8b53f9fe80dfaf3de7a45adafb889dc9fb308961a219aec44b703c4fd9a9",
      "v": 28,
      "creates": null,
      "raw": "0xf86c05850ddadf35ac8252089432be343b94f860124dc4fee278fdcbd38c102d88888ac2b27a0d9bf000801ca07e1977434f1c482ff60c8d4bf6b10751f49a63d2bcd298883e7df709e9ec4de5a0416b8b53f9fe80dfaf3de7a45adafb889dc9fb308961a219aec44b703c4fd9a9",
      "networkId": 0,
      "chainId": 0
    },
    {
      "hash": "0xcad9317cb622cb6cc3b1804b5abd531bcedfceec8734a4520fb3bdc624011fad",
      "blockHash": "0xbd697b8f4a272cfeb5497d367a4aebb214db92d056cc6ad9ea71459c35dd8def",
      "blockNumber": 94911,
      "transactionIndex": 2,
      "confirmations": null,
      "from": "0xa6BDc31c431B8F97848c9D60cbbe9660dc450eB7",
      "gasPrice": {
        "_hex": "0xddadf35ac"
      },
      "gasLimit": {
        "_hex": "0x5208"
      },
      "to": "0x32Be343B94f860124dC4fEe278FDCBD38C102D88",
      "value": {
        "_hex": "0x455f15090bb77000"
      },
      "nonce": 114,
      "data": "0x",
      "r": "0xdab30b22dc93b646b1f018b0ec417e09e9e625930bb6a2aa4171fe3ef581c5a1",
      "s": "0x42418e3a04e93760149671c476d1276387e8f3945b009c7eecff39d9fa6e90c7",
      "v": 27,
      "creates": null,
      "raw": "0xf86c72850ddadf35ac8252089432be343b94f860124dc4fee278fdcbd38c102d8888455f15090bb77000801ba0dab30b22dc93b646b1f018b0ec417e09e9e625930bb6a2aa4171fe3ef581c5a1a042418e3a04e93760149671c476d1276387e8f3945b009c7eecff39d9fa6e90c7",
      "networkId": 0,
      "chainId": 0
    },
    {
      "hash": "0x4546704735c4017feff73188707b0a0c3c105a4bf35bca593483359b44ef9fab",
      "blockHash": "0xbd697b8f4a272cfeb5497d367a4aebb214db92d056cc6ad9ea71459c35dd8def",
      "blockNumber": 94911,
      "transactionIndex": 3,
      "confirmations": null,
      "from": "0x2910543Af39abA0Cd09dBb2D50200b3E800A63D2",
      "gasPrice": {
        "_hex": "0xdab9b196b"
      },
      "gasLimit": {
        "_hex": "0x5208"
      },
      "to": "0x7D8fE8238e11154E30c98ae93B52B4eE4ad7852d",
      "value": {
        "_hex": "0x15181ff25a98000"
      },
      "nonce": 884,
      "data": "0x",
      "r": "0x76f917d51af3309569b2f7d55978ae0d3415acdd2b327a82d2648fb38c25a2fc",
      "s": "0x2cd07c014e15d70ed4380daf0a586ac6bc399ce3ac18bea65c5b5dd4e402a1a4",
      "v": 28,
      "creates": null,
      "raw": "0xf86e820374850dab9b196b825208947d8fe8238e11154e30c98ae93b52b4ee4ad7852d88015181ff25a98000801ca076f917d51af3309569b2f7d55978ae0d3415acdd2b327a82d2648fb38c25a2fca02cd07c014e15d70ed4380daf0a586ac6bc399ce3ac18bea65c5b5dd4e402a1a4",
      "networkId": 0,
      "chainId": 0
    }
  ]
}