{
  "hash": "0xdd9db562dc808ca06c712e496f5dcb0455455714deee958fbf2b7c982e4de713",
  "parentHash": "0x28087fc2bd6f226910d781950be2db11270a956c64d0565ba659460be770db0b",
  "number": 117261,
  "timestamp": 1440106253,
  "nonce": "0xacb4c10a612f0c35",
  "difficulty": 4321094423546,
  "gasLimit": {
    "_hex": "0x2fefd8"
  },
  "gasUsed": {
    "_hex": "0x5208"
  },
  "miner": "0x52bc44d5378309EE2abF1539BF71dE1b7d7bE3b5",
  "extraData": "0xd783010002844765746887676f312e342e32856c696e7578",
  "transactions": [
    {
      "hash": "0x46839b87c22cbe02a471d3100a4286a1942315002e9e9d256f4c92306a272210",
      "blockHash": "0xdd9db562dc808ca06c712e496f5dcb0455455714deee958fbf2b7c982e4de713",
      "blockNumber": 117261,
      "transactionIndex": 0,
      "confirmations": null,
      "from": "0xB36712fddBD16B781eC9263B441Ee9DF97e8CCc5",
      "gasPrice": {
        "_hex": "0xba43b7400"
      },
      "gasLimit": {
        "_hex": "0x15f90"
      },
      "to": "0xda4018EC8389397D5137De84129c185b705Cfc5C",
      "value": {
        "_hex": "0xd02ab486cedc0000"
      },
      "nonce": 1,
      "data": "0x",
      "r": "0xea1833174e07744a8cd959e0a441b3fe79c5294fddf5191c329f7e7c906117f4",
      "s": "0x1ecb1bfce6ca4a6e984e9bcf63000d20f7634e4865409bafc7b032d30de16d9d",
      "v": 27,
      "creates": null,
      "raw": "0xf86d01850ba43b740083015f9094da4018ec8389397d5137de84129c185b705cfc5c88d02ab486cedc0000801ba0ea1833174e07744a8cd959e0a441b3fe79c5294fddf5191c329f7e7c906117f4a01ecb1bfce6ca4a6e984e9bcf63000d20f7634e4865409bafc7b032d30de16d9d",
      "networkId": 0,
      "chainId": 0
    }
  ]
}