{
  "hash": "0x03896a372fb0e46e21c38cf40b9c4fd73d246b8fbeedf04081fbb91660c04264",
  "parentHash": "0xd8d4280913b7613ff995c3bf27728a0fdc70f415c140ea173c14744d96b2a3d7",
  "number": 105666,
  "timestamp": 1439891527,
  "nonce": "0x57d8091ad9ede5f1",
  "difficulty": 4393067194889,
  "gasLimit": {
    "_hex": "0x2fefd8"
  },
  "gasUsed": {
    "_hex": "0x5208"
  },
  "miner": "0x98f7A0eDF3E25675482cA52480B7e07cA828a4b9",
  "extraData": "0x476574682f76312e302e312f6c696e75782f676f312e342e32",
  "transactions": [
    {
      "hash": "0x6a029d2c9555a143b501b8d35cfbdf4243b0b363e6206758f0ee7960050d7115",
      "blockHash": "0x03896a372fb0e46e21c38cf40b9c4fd73d246b8fbeedf04081fbb91660c04264",
      "blockNumber": 105666,
      "transactionIndex": 0,
      "confirmations": null,
      "from": "0x52292dB8B133f37fDA9D9F4E996A3140b41E7634",
      "gasPrice": {
        "_hex": "0xdd4edd9c8"
      },
      "gasLimit": {
        "_hex": "0x15f90"
      },
      "to": "0x23f2D0fd3B4C98Fb1698564deB4898275E2e831f",
      "value": {
        "_hex": "0x13f306a2409fc0000"
      },
      "nonce": 1,
      "data": "0x",
      "r": "0x53f0e7ae553d59a02f06735a1ac4855b5bd628fc96e59951d8ff77e9dba7429c",
      "s": "0x73c2b5ab777a979c4bd284f799e69ad3f73bf3b6ee7c54303effa77497776970",
      "v": 28,
      "creates": null,
      "raw": "0xf86e01850dd4edd9c883015f909423f2d0fd3b4c98fb1698564deb4898275e2e831f89013f306a2409fc0000801ca053f0e7ae553d59a02f06735a1ac4855b5bd628fc96e59951d8ff77e9dba7429ca073c2b5ab777a979c4bd284f799e69ad3f73bf3b6ee7c54303effa77497776970",
      "networkId": 0,
      "chainId": 0
    }
  ]
}