{
  "hash": "0x24440021abccb8bc0cac130609b07ac81710cf3cbeae46e1e0003a4db93f4dc5",
  "parentHash": "0xc9e7540a92df209b555c5178ca7fef1c8edaeca50a4c8f1832eeabe9cc08f33e",
  "number": 89283,
  "timestamp": 1439620942,
  "nonce": "0xd2bc9e76fcf0b811",
  "difficulty": 3304745779428,
  "gasLimit": {
    "_hex": "0x2fefd8"
  },
  "gasUsed": {
    "_hex": "0x5208"
  },
  "miner": "0xe6A7a1d47ff21B6321162AEA7C6CB457D5476Bca",
  "extraData": "0x476574682f76312e302e312d38326566323666362f6c696e75782f676f312e34",
  "transactions": [
    {
      "hash": "0x8d926fad7a768355355bb2af4d0d4c4f89f7ad67a10bb944d2845afcd28f5336",
      "blockHash": "0x24440021abccb8bc0cac130609b07ac81710cf3cbeae46e1e0003a4db93f4dc5",
      "blockNumber": 89283,
      "transactionIndex": 0,
      "confirmations": null,
      "from": "0xa70a9a7040d542C632D8e0bE7c5513A8a5Bbc752",
      "gasPrice": {
        "_hex": "0xd412e7aa5"
      },
      "gasLimit": {
        "_hex": "0x5208"
      },
      "to": "0x32Be343B94f860124dC4fEe278FDCBD38C102D88",
      "value": {
        "_hex": "0x455f46bf91999800"
      },
      "nonce": 107,
      "data": "0x",
      "r": "0x51d3a88ad0df1218b1a8f3956711147da1afb74d21cd64d31871789b3f463321",
      "s": "0x480f7e61561340ea09807bbfa0791fe7698bf3f990d190ba4db634f26f888245",
      "v": 27,
      "creates": null,
      "raw": "0xf86c6b850d412e7aa58252089432be343b94f860124dc4fee278fdcbd38c102d8888455f46bf91999800801ba051d3a88ad0df1218b1a8f3956711147da1afb74d21cd64d31871789b3f463321a0480f7e61561340ea09807bbfa0791fe7698bf3f990d190ba4db634f26f888245",
      "networkId": 0,
      "chainId": 0
    }
  ]
}