{
  "hash": "0x4d9218a6f4896f58a8bc400b2b8ac8ed3bb2a602bca5a83075a81b3b2aeded9e",
  "parentHash": "0x4206953cbe25ef09ffc9aa838374cee3074acba61e0e38f918375d55c4fb914e",
  "number": 62175,
  "timestamp": 1439184417,
  "nonce": "0xa18f5dcdb1f402d1",
  "difficulty": 1771165672061,
  "gasLimit": {
    "_hex": "0x2fefd5"
  },
  "gasUsed": {
    "_hex": "0x196e4"
  },
  "miner": "0xE13f83e0288E460362D9E7421f0601fB88C4fd91",
  "extraData": "0x476574682f76312e302e312f6c696e75782f676f312e342e32",
  "transactions": [
    {
      "hash": "0xc2bbe67dae223055e8f85bd80a8695aa27069bc4943c3971426debd439730898",
      "blockHash": "0x4d9218a6f4896f58a8bc400b2b8ac8ed3bb2a602bca5a83075a81b3b2aeded9e",
      "blockNumber": 62175,
      "transactionIndex": 0,
      "confirmations": null,
      "from": "0xB100987e77FEbA6F022dBd22B80B008e35d3Ff2E",
      "gasPrice": {
        "_hex": "0xe110b2b14"
      },
      "gasLimit": {
        "_hex": "0x15f90"
      },
      "to": "0x95A93B4d6CDf68235f3B68046d0f81E78D61572c",
      "value": {
        "_hex": "0x0"
      },
      "nonce": 8,
      "data": "0xa856f35900000000000000000000000000000000000000000000000000000000846f6849",
      "r": "0x2b64c45246fac5208882df4e3129e530d6b89b904f165e7aa0621ef2729f3678",
      "s": "0x5e816d5684f17fae8a9a6dd3e55dd443dd66a4f4271684195a8dda382a95e565",
      "v": 28,
      "creates": null,
      "raw": "0xf88908850e110b2b1483015f909495a93b4d6cdf68235f3b68046d0f81e78d61572c80a4a856f35900000000000000000000000000000000000000000000000000000000846f68491ca02b64c45246fac5208882df4e3129e530d6b89b904f165e7aa0621ef2729f3678a05e816d5684f17fae8a9a6dd3e55dd443dd66a4f4271684195a8dda382a95e565",
      "networkId": 0,
      "chainId": 0
    },
    {
      "hash": "0xb93d4f4716f24802409a083158dea7b5e5df67b3a56df1930e7ff73f4d729a71",
      "blockHash": "0x4d9218a6f4896f58a8bc400b2b8ac8ed3bb2a602bca5a83075a81b3b2aeded9e",
      "blockNumber": 62175,
      "transactionIndex": 1,
      "confirmations": null,
      "from": "0x2910543Af39abA0Cd09dBb2D50200b3E800A63D2",
      "gasPrice": {
        "_hex": "0xd50c04813"
      },
      "gasLimit": {
        "_hex": "0x5208"
      },
      "to": "0x51e07ebFfb63C575d3aA5C7F25c5B6Fcae1Da362",
      "value": {
        "_hex": "0x2e7d2c50732f42c000"
      },
      "nonce": 107,
      "data": "0x",
      "r": "0x8ba21ff38e9a1a1854d5f841dab4e036623585ba72411001f3a5c2009645e413",
      "s": "0x58e971c0eaafbff998f8095df1f066f26bd18b325cbd66734fcecc94244af45a",
      "v": 27,
      "creates": null,
      "raw": "0xf86d6b850d50c048138252089451e07ebffb63c575d3aa5c7f25c5b6fcae1da362892e7d2c50732f42c000801ba08ba21ff38e9a1a1854d5f841dab4e036623585ba72411001f3a5c2009645e413a058e971c0eaafbff998f8095df1f066f26bd18b325cbd66734fcecc94244af45a",
      "networkId": 0,
      "chainId": 0
    },
    {
      "hash": "0xede9744a3429c04e62bdbbe5fd21f775bf845f2aa0e7622a16473c3227ac93ae",
      "blockHash": "0x4d9218a6f4896f58a8bc400b2b8ac8ed3bb2a602bca5a83075a81b3b2aeded9e",
      "blockNumber": 62175,
      "transactionIndex": 2,
      "confirmations": null,
      "from": "0x2910543Af39abA0Cd09dBb2D50200b3E800A63D2",
      "gasPrice": {
        "_hex": "0xd50c04813"
      },
      "gasLimit": {
        "_hex": "0x5208"
      },
      "to": "0x6da3A9d94B3cF82719F9c6857950046fA404Dd16",
      "value": {
        "_hex": "0x11c37937e08000"
      },
      "nonce": 108,
      "data": "0x",
      "r": "0x0e243c5c743a880a83373d54d85ddea922d931cf59e657bc31bb78098f0ec6fa",
      "s": "0x5f13a94dee18a96c11b0d1f5e14fe5177477a7dc150055512bf1a18db58c47f2",
      "v": 27,
      "creates": null,
      "raw": "0xf86b6c850d50c04813825208946da3a9d94b3cf82719f9c6857950046fa404dd168711c37937e08000801ba00e243c5c743a880a83373d54d85ddea922d931cf59e657bc31bb78098f0ec6faa05f13a94dee18a96c11b0d1f5e14fe5177477a7dc150055512bf1a18db58c47f2",
      "networkId": 0,
      "chainId": 0
    }
  ]
}