{
  "hash": "0xe72d6a0bb30e82fbfe7ff770d5af7588dcbfcc5a4348c0fd44b8ee157cd9e165",
  "parentHash": "0xac6d24e6a6619f18f666f06c3fdbd21d35390e25602650c050ac43cbda1d9df0",
  "number": 48414,
  "timestamp": 1438956715,
  "nonce": "0xa3d074ff5dbe7b0d",
  "difficulty": 1461452302851,
  "gasLimit": {
    "_hex": "0x16ec9"
  },
  "gasUsed": {
    "_hex": "0x5208"
  },
  "miner": "0xecAb9B89BbB858a7e3DDe3ed0b13946eDAEb5533",
  "extraData": "0x476574682f76312e302e312d38326566323666362f6c696e75782f676f312e34",
  "transactions": [
    {
      "hash": "0x561d91b57d72efa9d2645f04eb0c60a545025e143a52446f6c4a797dc1c6d4fb",
      "blockHash": "0xe72d6a0bb30e82fbfe7ff770d5af7588dcbfcc5a4348c0fd44b8ee157cd9e165",
      "blockNumber": 48414,
      "transactionIndex": 0,
      "confirmations": null,
      "from": "0xc27376f45D21E15edE3b26F2655FceE02Ccc0F2a",
      "gasPrice": {
        "_hex": "0x110f4ac3896"
      },
      "gasLimit": {
        "_hex": "0x5208"
      },
      "to": "0x38B6F7080B3814966Cd2Cd70944639679db754F9",
      "value": {
        "_hex": "0x2386f26fc10000"
      },
      "nonce": 2,
      "data": "0x",
      "r": "0x71b7782ea776cafb3a1593c400c82d905ca9e20f47eb17287625c57bc99fd353",
      "s": "0x2c38a8f82b29cc4b3cac02cfbe26b80ee71c3ca67643eae0006c9601084422b1",
      "v": 27,
      "creates": null,
      "raw": "0xf86c02860110f4ac38968252089438b6f7080b3814966cd2cd70944639679db754f9872386f26fc10000801ba071b7782ea776cafb3a1593c400c82d905ca9e20f47eb17287625c57bc99fd353a02c38a8f82b29cc4b3cac02cfbe26b80ee71c3ca67643eae0006c9601084422b1",
      "networkId": 0,
      "chainId": 0
    }
  ]
}