{
  "hash": "0xe2f8241bdd9e22474949a2779bbaab7e8d1ff0da503db11966a3db8ee2ccc3c4",
  "parentHash": "0x970eb72aedd6009ea9d3432efc0b3a4938c9ae65b4597f6127af882546b60082",
  "number": 114643,
  "timestamp": 1440043874,
  "nonce": "0x95826f2caf0bfdb8",
  "difficulty": 4499021211620,
  "gasLimit": {
    "_hex": "0x2fefd8"
  },
  "gasUsed": {
    "_hex": "0x5208"
  },
  "miner": "0xD0ee3F53eE0fCf3F9fbCcdd17BD1b6441DdC2074",
  "extraData": "0x476574682f76312e302e312d38326566323666362f6c696e75782f676f312e34",
  "transactions": [
    {
      "hash": "0xadac8a4262f2c991f9344b94a81d641620fbe3f8013cfc5581c4025fb8b39823",
      "blockHash": "0xe2f8241bdd9e22474949a2779bbaab7e8d1ff0da503db11966a3db8ee2ccc3c4",
      "blockNumber": 114643,
      "transactionIndex": 0,
      "confirmations": null,
      "from": "0xa70a9a7040d542C632D8e0bE7c5513A8a5Bbc752",
      "gasPrice": {
        "_hex": "0xda94fd5fe"
      },
      "gasLimit": {
        "_hex": "0x5208"
      },
      "to": "0x32Be343B94f860124dC4fEe278FDCBD38C102D88",
      "value": {
        "_hex": "0x45638cd331085400"
      },
      "nonce": 307,
      "data": "0x",
      "r": "0xa02fbdb42629bc8c204de51999b00d7d366b5bf0bedf22b2c7716f178a0181c0",
      "s": "0x7ae274e2831a42ebf5eb63bf031919c9e00d6c7d949104eb67c26045453600e0",
      "v": 28,
      "creates": null,
      "raw": "0xf86e820133850da94fd5fe8252089432be343b94f860124dc4fee278fdcbd38c102d888845638cd331085400801ca0a02fbdb42629bc8c204de51999b00d7d366b5bf0bedf22b2c7716f178a0181c0a07ae274e2831a42ebf5eb63bf031919c9e00d6c7d949104eb67c26045453600e0",
      "networkId": 0,
      "chainId": 0
    }
  ]
}