{
  "hash": "0xaa5f36b83d63ff10f0631af7a5c582645b06039910e22470062fccc92a941dfa",
  "parentHash": "0x17e67973e8ca956e4792c454e0ad6b677d6af62678fad4142ef616f51597d711",
  "number": 48167,
  "timestamp": 1438952625,
  "nonce": "0xb918d7619330bda2",
  "difficulty": 1462209130582,
  "gasLimit": {
    "_hex": "0x1329a"
  },
  "gasUsed": {
    "_hex": "0xfae0"
  },
  "miner": "0xf927a40C8B7F6E07c5af7FA2155B4864a4112B13",
  "extraData": "0x476574682f76312e302e312f6c696e75782f676f312e342e32",
  "transactions": [
    {
      "hash": "0x815aaeae6f389d070095d558d357c7ff9a660a22659364900b696eea361b7d8d",
      "blockHash": "0xaa5f36b83d63ff10f0631af7a5c582645b06039910e22470062fccc92a941dfa",
      "blockNumber": 48167,
      "transactionIndex": 0,
      "confirmations": null,
      "from": "0xca70f4DdBF069D2143BD6bbc7F696b52789B32E7",
      "gasPrice": {
        "_hex": "0x110c8f7d8de"
      },
      "gasLimit": {
        "_hex": "0xc350"
      },
      "to": "0x2910543Af39abA0Cd09dBb2D50200b3E800A63D2",
      "value": {
        "_hex": "0xa25bf977cf56ec0000"
      },
      "nonce": 1,
      "data": "0x454e4d3843474d4730",
      "r": "0x3314c45f5cd76bb4b59388abde585c78bfcc57c0ee152efca31a0b8a9abee056",
      "s": "0xc5b9b6981d20befacfc3f2b1a0266fbf093aaec98f3040e8a2ba854f8566baf4",
      "v": 28,
      "creates": null,
      "raw": "0xf87701860110c8f7d8de82c350942910543af39aba0cd09dbb2d50200b3e800a63d289a25bf977cf56ec000089454e4d3843474d47301ca03314c45f5cd76bb4b59388abde585c78bfcc57c0ee152efca31a0b8a9abee056a0c5b9b6981d20befacfc3f2b1a0266fbf093aaec98f3040e8a2ba854f8566baf4",
      "networkId": 0,
      "chainId": 0
    },
    {
      "hash": "0x1f7ef6961eb786925caa7deaad1dbf6812abec70623d0f67ff6525d675991d4c",
      "blockHash": "0xaa5f36b83d63ff10f0631af7a5c582645b06039910e22470062fccc92a941dfa",
      "blockNumber": 48167,
      "transactionIndex": 1,
      "confirmations": null,
      "from": "0x0c86db7DffC9eCbBe8da476416F54F4c47F97322",
      "gasPrice": {
        "_hex": "0xdef119a64"
      },
      "gasLimit": {
        "_hex": "0x5208"
      },
      "to": "0x32Be343B94f860124dC4fEe278FDCBD38C102D88",
      "value": {
        "_hex": "0x2b5df38127429c000"
      },
      "nonce": 0,
      "data": "0x",
      "r": "0x092f087d03ccaf0e9eee2b2355722be6b4ba89d6e9d1e5eb433ea366922879c1",
      "s": "0x1594f17d9863b0132b1122c12716bb7ae6436efd0fb8e069316814a270a87535",
      "v": 27,
      "creates": null,
      "raw": "0xf86d80850def119a648252089432be343b94f860124dc4fee278fdcbd38c102d888902b5df38127429c000801ba0092f087d03ccaf0e9eee2b2355722be6b4ba89d6e9d1e5eb433ea366922879c1a01594f17d9863b0132b1122c12716bb7ae6436efd0fb8e069316814a270a87535",
      "networkId": 0,
      "chainId": 0
    },
    {
      "hash": "0x2030af24e6996afd688b9969f0f9e6a69315804b23df41e2ffe9bdcfe66977b1",
      "blockHash": "0xaa5f36b83d63ff10f0631af7a5c582645b06039910e22470062fccc92a941dfa",
      "blockNumber": 48167,
      "transactionIndex": 2,
      "confirmations": null,
      "from": "0x29C0024a99b44d481694cB5D98907a1343D390fD",
      "gasPrice": {
        "_hex": "0xd77050dd8"
      },
      "gasLimit": {
        "_hex": "0x61a8"
      },
      "to": "0x2910543Af39abA0Cd09dBb2D50200b3E800A63D2",
      "value": {
        "_hex": "0xde0b6b3a7640000"
      },
      "nonce": 0,
      "data": "0x454e45564a4e4d3538",
      "r": "0x350c7ae212d1abbe255bc2e38fa9f8f9baf77e593cb371f84e74b281f5fa5ba6",
      "s": "0x4812758c96ef07a83969a4b5580b43a7f3356495edc0a06cfbcd3eb24b02c5c3",
      "v": 27,
      "creates": null,
      "raw": "0xf87580850d77050dd88261a8942910543af39aba0cd09dbb2d50200b3e800a63d2880de0b6b3a764000089454e45564a4e4d35381ba0350c7ae212d1abbe255bc2e38fa9f8f9baf77e593cb371f84e74b281f5fa5ba6a04812758c96ef07a83969a4b5580b43a7f3356495edc0a06cfbcd3eb24b02c5c3",
      "networkId": 0,
      "chainId": 0
    }
  ]
}