{
  "hash": "0xdec30c80e9ff678d7e3b40b25a4ea319e04311914efd3c78e303dfb286a736ed",
  "parentHash": "0x882554cb922df14ef7768839410aeaae943f1912d275448e804bd5a2b98a88ba",
  "number": 66312,
  "timestamp": 1439252298,
  "nonce": "0x4151128abb7af685",
  "difficulty": 1937651690585,
  "gasLimit": {
    "_hex": "0x2fefd8"
  },
  "gasUsed": {
    "_hex": "0x5208"
  },
  "miner": "0x30853f0562c79055Fbd88CFFC01A109b346752ba",
  "extraData": "0x476574682f76312e302e312f77696e646f77732f676f312e342e32",
  "transactions": [
    {
      "hash": "0x161183244bef88a5d31b24540fafff3e57853c73d08c123d923f30a568982ae7",
      "blockHash": "0xdec30c80e9ff678d7e3b40b25a4ea319e04311914efd3c78e303dfb286a736ed",
      "blockNumber": 66312,
      "transactionIndex": 0,
      "confirmations": null,
      "from": "0x32Be343B94f860124dC4fEe278FDCBD38C102D88",
      "gasPrice": {
        "_hex": "0xd52e62966"
      },
      "gasLimit": {
        "_hex": "0x5208"
      },
      "to": "0xC20b3638Bf021A5f01B7732C141963181DDF3366",
      "value": {
        "_hex": "0x69a6a1266389840000"
      },
      "nonce": 195,
      "data": "0x",
      "r": "0x075c9e0b6d9071a501999141b40b958ad25952ed8c1f0702c20490ef0a4820e0",
      "s": "0x3561fd5e2e5d43a811f72d8e91cf0b8f341eac080809c1f5fc9671e4843d9214",
      "v": 28,
      "creates": null,
      "raw": "0xf86e81c3850d52e6296682520894c20b3638bf021a5f01b7732c141963181ddf33668969a6a1266389840000801ca0075c9e0b6d9071a501999141b40b958ad25952ed8c1f0702c20490ef0a4820e0a03561fd5e2e5d43a811f72d8e91cf0b8f341eac080809c1f5fc9671e4843d9214",
      "networkId": 0,
      "chainId": 0
    }
  ]
}