{
  "hash": "0xbad40696db71b542a62e259dbfda1861c0c94c4cb19c5cfe9d874e9a5b53d51d",
  "parentHash": "0x35f333c38c4f84e9a19a2ee376330d60f2019ef568fe35c9cacae516553bc66f",
  "number": 105902,
  "timestamp": 1439895329,
  "nonce": "0x33e61aa3d73b1a85",
  "difficulty": 4453415827763,
  "gasLimit": {
    "_hex": "0x2fefd8"
  },
  "gasUsed": {
    "_hex": "0x5208"
  },
  "miner": "0xe6A7a1d47ff21B6321162AEA7C6CB457D5476Bca",
  "extraData": "0x476574682f76312e302e312d38326566323666362f6c696e75782f676f312e34",
  "transactions": [
    {
      "hash": "0xa4d4aaebcf009c2113c8682c37aac030eba87129dadac9315b4ee870dd40cd9a",
      "blockHash": "0xbad40696db71b542a62e259dbfda1861c0c94c4cb19c5cfe9d874e9a5b53d51d",
      "blockNumber": 105902,
      "transactionIndex": 0,
      "confirmations": null,
      "from": "0x4E56D55C77DB136de89EEcCF3754A634a9b8898C",
      "gasPrice": {
        "_hex": "0xcd9f9b66f"
      },
      "gasLimit": {
        "_hex": "0x5208"
      },
      "to": "0x32Be343B94f860124dC4fEe278FDCBD38C102D88",
      "value": {
        "_hex": "0x448544337abf60000"
      },
      "nonce": 3,
      "data": "0x",
      "r": "0x18b632f7a9ff594152fee372f48d6b010ced0baa96b11cf76658748c3a852a24",
      "s": "0x50f7d6067ccbba87ecbf6bef640c67a8fe2e4bcb6cee65d3130cc421ccc849a0",
      "v": 28,
      "creates": null,
      "raw": "0xf86d03850cd9f9b66f8252089432be343b94f860124dc4fee278fdcbd38c102d88890448544337abf60000801ca018b632f7a9ff594152fee372f48d6b010ced0baa96b11cf76658748c3a852a24a050f7d6067ccbba87ecbf6bef640c67a8fe2e4bcb6cee65d3130cc421ccc849a0",
      "networkId": 0,
      "chainId": 0
    }
  ]
}