{
  "hash": "0x2f6881dffcf10b3aaa01fb744f9e17bf59be95fb555dc7f0a7dd7d0ba82b6a2a",
  "parentHash": "0x8583ffc658ac28b565d71ae4e120527947530b02320afabaab7b3eebaf0b2789",
  "number": 47432,
  "timestamp": 1438940308,
  "nonce": "0xa2dcc0ac7d536875",
  "difficulty": 1451665901849,
  "gasLimit": {
    "_hex": "0xbd4b"
  },
  "gasUsed": {
    "_hex": "0x5208"
  },
  "miner": "0xbcB2E3693d246E1fc00348754334BadEb88b2a11",
  "extraData": "0x476574682f76312e302e302f6c696e75782f676f312e342e32",
  "transactions": [
    {
      "hash": "0xf4cd40cb8d4dac4ddf9e5833564affd718e1f249270277e563ac00850c843a84",
      "blockHash": "0x2f6881dffcf10b3aaa01fb744f9e17bf59be95fb555dc7f0a7dd7d0ba82b6a2a",
      "blockNumber": 47432,
      "transactionIndex": 0,
      "confirmations": null,
      "from": "0x0cDA12BF72d461BBc479eB92e6491d057e6B5Ad1",
      "gasPrice": {
        "_hex": "0x68c6171400"
      },
      "gasLimit": {
        "_hex": "0x55f0"
      },
      "to": "0x4268d004Ac6Eb1B221706FdfC46Ce51Bc0c2c871",
      "value": {
        "_hex": "0xd8d726b7177a80000"
      },
      "nonce": 10,
      "data": "0x",
      "r": "0xbe8a86a40622a9927b0a4398b054c08a4381300ebb90db78cc868f4239675573",
      "s": "0x5f71395a2e3e30ac25fa5513a421158384fc023f12883df452ece5bad1a26f40",
      "v": 28,
      "creates": null,
      "raw": "0xf86d0a8568c61714008255f0944268d004ac6eb1b221706fdfc46ce51bc0c2c871890d8d726b7177a80000801ca0be8a86a40622a9927b0a4398b054c08a4381300ebb90db78cc868f4239675573a05f71395a2e3e30ac25fa5513a421158384fc023f12883df452ece5bad1a26f40",
      "networkId": 0,
      "chainId": 0
    }
  ]
}