{
  "hash": "0x778fd22f37e19adb369f25bb08bef559f117e7804c523c75d72069561b0f34b4",
  "parentHash": "0xe3c5bacf1649e0fbdcd8d985230ebef75a23555c051476c54461e31d2afe85eb",
  "number": 86892,
  "timestamp": 1439584227,
  "nonce": "0xb0f5d046e9c6dbdf",
  "difficulty": 2979157866124,
  "gasLimit": {
    "_hex": "0x2fefd8"
  },
  "gasUsed": {
    "_hex": "0x546c"
  },
  "miner": "0x2134e2a2b718DCa96580ECAC31E653Ea1fdd58DA",
  "extraData": "0x476574682f76312e302e312f77696e646f77732f676f312e342e32",
  "transactions": [
    {
      "hash": "0xbfb52aadf8373a847d5da3797cc9f830a81e51c10fc49922ef538bc947665ef0",
      "blockHash": "0x778fd22f37e19adb369f25bb08bef559f117e7804c523c75d72069561b0f34b4",
      "blockNumber": 86892,
      "transactionIndex": 0,
      "confirmations": null,
      "from": "0x5529830A61c1f13C197e550bEDdfD6bd195C9D02",
      "gasPrice": {
        "_hex": "0x110c8f7d8de"
      },
      "gasLimit": {
        "_hex": "0xc350"
      },
      "to": "0x2910543Af39abA0Cd09dBb2D50200b3E800A63D2",
      "value": {
        "_hex": "0x1b1ae4d6e2ef500000"
      },
      "nonce": 0,
      "data": "0x454e35345550375252",
      "r": "0xd151ce86e150da1d7afbd34ac1ad6dd7dc185515fed62dc1fa2194bc6fd456ed",
      "s": "0x1d9ebecdf7692f2f1d059d9fde55e0131884b5f3edfaf906e685fa87c163e193",
      "v": 27,
      "creates": null,
      "raw": "0xf87780860110c8f7d8de82c350942910543af39aba0cd09dbb2d50200b3e800a63d2891b1ae4d6e2ef50000089454e353455503752521ba0d151ce86e150da1d7afbd34ac1ad6dd7dc185515fed62dc1fa2194bc6fd456eda01d9ebecdf7692f2f1d059d9fde55e0131884b5f3edfaf906e685fa87c163e193",
      "networkId": 0,
      "chainId": 0
    }
  ]
}