{
  "hash": "0x9133105022d9f84a3b20b8670ebca8f5dce392ff5eb9c7224253ecd0e16707ae",
  "parentHash": "0x8cb7ecc0b488ea5de8dfa87d926b42b4009aacabd953d37201fa424484e4b6e9",
  "number": 80890,
  "timestamp": 1439492778,
  "nonce": "0x49ed9a52fc972d8d",
  "difficulty": 2447557329763,
  "gasLimit": {
    "_hex": "0x2fefd8"
  },
  "gasUsed": {
    "_hex": "0x23e38"
  },
  "miner": "0x47ff6576639c2e94762eA5443978D7681C0E78DC",
  "extraData": "0x476574682f76312e302e312f6c696e75782f676f312e342e32",
  "transactions": [
    {
      "hash": "0xacd677ffa09104783aad1f95ab267584fcf746589cfd3031ef5b402c924f378a",
      "blockHash": "0x9133105022d9f84a3b20b8670ebca8f5dce392ff5eb9c7224253ecd0e16707ae",
      "blockNumber": 80890,
      "transactionIndex": 0,
      "confirmations": null,
      "from": "0xad5C1768e5974C231b2148169da064e61910f31a",
      "gasPrice": {
        "_hex": "0x11469ef70cc"
      },
      "gasLimit": {
        "_hex": "0x15f90"
      },
      "to": "0x88Ce4e2cC64e58f322a784407c1E1eDe70ae7f60",
      "value": {
        "_hex": "0xde0b6b3a7640000"
      },
      "nonce": 1,
      "data": "0x",
      "r": "0xf57104199a0371c1f6a073e890fc9efc8ac2ef4355254352eee619e29e6859d1",
      "s": "0x06f3964b0d87299d080f3c3369f2ee485754b7c93e9f0d68ec7f611590748124",
      "v": 28,
      "creates": null,
      "raw": "0xf86e0186011469ef70cc83015f909488ce4e2cc64e58f322a784407c1e1ede70ae7f60880de0b6b3a7640000801ca0f57104199a0371c1f6a073e890fc9efc8ac2ef4355254352eee619e29e6859d1a006f3964b0d87299d080f3c3369f2ee485754b7c93e9f0d68ec7f611590748124",
      "networkId": 0,
      "chainId": 0
    },
    {
      "hash": "0x783fc4bb00fc2e07c97c5c79da38fd0fff6b33f8fbdaa3986f6879aa9203b6b4",
      "blockHash": "0x9133105022d9f84a3b20b8670ebca8f5dce392ff5eb9c7224253ecd0e16707ae",
      "blockNumber": 80890,
      "transactionIndex": 1,
      "confirmations": null,
      "from": "0x0D82Cd113DC35DdDA93f38166cD5CDe8b88e36A1",
      "gasPrice": {
        "_hex": "0xde93ee5a8"
      },
      "gasLimit": {
        "_hex": "0x15f90"
      },
      "to": "0x73CcAa6FCE871D925D908FB141B0f6f720fe60eb",
      "value": {
        "_hex": "0x2386f26fc10000"
      },
      "nonce": 0,
      "data": "0x",
      "r": "0xb8aaa6cb86fdbf85b44136d84d2f75d4e8150f9922d22ff4bd16e72511205c28",
      "s": "0x05d4dafcc61352aff14b1f00ebd86fdde2f0d94bdf1a3c738f5541c9d150ef34",
      "v": 28,
      "creates": null,
      "raw": "0xf86c80850de93ee5a883015f909473ccaa6fce871d925d908fb141b0f6f720fe60eb872386f26fc10000801ca0b8aaa6cb86fdbf85b44136d84d2f75d4e8150f9922d22ff4bd16e72511205c28a005d4dafcc61352aff14b1f00ebd86fdde2f0d94bdf1a3c738f5541c9d150ef34",
      "networkId": 0,
      "chainId": 0
    },
    {
      "hash": "0xdd3e277973e4584e6b2b510d5ba5dfb9bc8ae0a3b5f8228346018d6a8374836e",
      "blockHash": "0x9133105022d9f84a3b20b8670ebca8f5dce392ff5eb9c7224253ecd0e16707ae",
      "blockNumber": 80890,
      "transactionIndex": 2,
      "confirmations": null,
      "from": "0x32Be343B94f860124dC4fEe278FDCBD38C102D88",
      "gasPrice": {
        "_hex": "0xce30355fb"
      },
      "gasLimit": {
        "_hex": "0x5208"
      },
      "to": "0x566B3E44014f2a2587e054AdFA915861AE82Fe39",
      "value": {
        "_hex": "0x5bc91544640088000"
      },
      "nonce": 559,
      "data": "0x",
      "r": "0xb26c7b00232e9f31f538cc358975a9b0ee04549f6d45df462aaa379556b4025c",
      "s": "0x2c5dde6aa0f4685337e4a408290b682d246ade742f7fefefb5a7929593aa87ae",
      "v": 28,
      "creates": null,
      "raw": "0xf86f82022f850ce30355fb82520894566b3e44014f2a2587e054adfa915861ae82fe398905bc91544640088000801ca0b26c7b00232e9f31f538cc358975a9b0ee04549f6d45df462aaa379556b4025ca02c5dde6aa0f4685337e4a408290b682d246ade742f7fefefb5a7929593aa87ae",
      "networkId": 0,
      "chainId": 0
    },
    {
      "hash": "0x4f94ee46fffe35edd2607d7ddc003f1851f581b96ac2a875794089649091860a",
      "blockHash": "0x9133105022d9f84a3b20b8670ebca8f5dce392ff5eb9c7224253ecd0e16707ae",
      "blockNumber": 80890,
      "transactionIndex": 3,
      "confirmations": null,
      "from": "0x32Be343B94f860124dC4fEe278FDCBD38C102D88",
      "gasPrice": {
        "_hex": "0xce30355fb"
      },
      "gasLimit": {
        "_hex": "0x5208"
      },
      "to": "0x0d1363513DE324A8Aa699D61582c87407BC618a7",
      "value": {
        "_hex": "0xdbd2fc137a30000"
      },
      "nonce": 560,
      "data": "0x",
      "r": "0x93cc4099387a86d11b2f1cb0bc7d4daee9987a23960e4479980415cc5027d1b9",
      "s": "0x3de8c92a20df67f9e624669021866585cbc20ffc4e08fe84c0afbd81bd455473",
      "v": 28,
      "creates": null,
      "raw": "0xf86e820230850ce30355fb825208940d1363513de324a8aa699d61582c87407bc618a7880dbd2fc137a30000801ca093cc4099387a86d11b2f1cb0bc7d4daee9987a23960e4479980415cc5027d1b9a03de8c92a20df67f9e624669021866585cbc20ffc4e08fe84c0afbd81bd455473",
      "networkId": 0,
      "chainId": 0
    },
    {
      "hash": "0x9789d9f15cda214b150ace035ad850de8d886e00d3b9fe3697d10bd0c8b35f30",
      "blockHash": "0x9133105022d9f84a3b20b8670ebca8f5dce392ff5eb9c7224253ecd0e16707ae",
      "blockNumber": 80890,
      "transactionIndex": 4,
      "confirmations": null,
      "from": "0x32Be343B94f860124dC4fEe278FDCBD38C102D88",
      "gasPrice": {
        "_hex": "0xce30355fb"
      },
      "gasLimit": {
        "_hex": "0x5208"
      },
      "to": "0x0d1363513DE324A8Aa699D61582c87407BC618a7",
      "value": {
        "_hex": "0x51a33b7236574800"
      },
      "nonce": 561,
      "data": "0x",
      "r": "0xf57a5c358bdabe43fcd1acda29921301a28620b077f7e96c0ac51e25a623e1c2",
      "s": "0x131ede2967f74d72f0b24b292b8646c59eb321aa5078df001674793e71ec403c",
      "v": 27,
      "creates": null,
      "raw": "0xf86e820231850ce30355fb825208940d1363513de324a8aa699d61582c87407bc618a78851a33b7236574800801ba0f57a5c358bdabe43fcd1acda29921301a28620b077f7e96c0ac51e25a623e1c2a0131ede2967f74d72f0b24b292b8646c59eb321aa5078df001674793e71ec403c",
      "networkId": 0,
      "chainId": 0
    },
    {
      "hash": "0x3925c2bfad0ab474c2ab2496e7afd6ad2c2d57824479eb5efe26882e0d56b4ea",
      "blockHash": "0x9133105022d9f84a3b20b8670ebca8f5dce392ff5eb9c7224253ecd0e16707ae",
      "blockNumber": 80890,
      "transactionIndex": 5,
      "confirmations": null,
      "from": "0x0e2feEC433472451e3E7ea6da95D453C2a82e4dC",
      "gasPrice": {
        "_hex": "0xce30355fb"
      },
      "gasLimit": {
        "_hex": "0x5208"
      },
      "to": "0x32Be343B94f860124dC4fEe278FDCBD38C102D88",
      "value": {
        "_hex": "0xddc89e410fd6c00"
      },
      "nonce": 0,
      "data": "0x",
      "r": "0xf790668d8c326beaef52360247edaa9af7de1ba01a118a8d2965394a8b0a2046",
      "s": "0x6b893b2bbd6cd4184fe7a018198028b11cdc70bc8dea150a35077ef23c431cc1",
      "v": 28,
      "creates": null,
      "raw": "0xf86c80850ce30355fb8252089432be343b94f860124dc4fee278fdcbd38c102d88880ddc89e410fd6c00801ca0f790668d8c326beaef52360247edaa9af7de1ba01a118a8d2965394a8b0a2046a06b893b2bbd6cd4184fe7a018198028b11cdc70bc8dea150a35077ef23c431cc1",
      "networkId": 0,
      "chainId": 0
    },
    {
      "hash": "0xd53f17dc767fa55b5f3ff930fe1042e57780b624acfca2eac55207cd1a840534",
      "blockHash": "0x9133105022d9f84a3b20b8670ebca8f5dce392ff5eb9c7224253ecd0e16707ae",
      "blockNumber": 80890,
      "transactionIndex": 6,
      "confirmations": null,
      "from": "0xaA9485EBA854ABA86Bfdd64C8f4f08Badd0f31C3",
      "gasPrice": {
        "_hex": "0xce30355fb"
      },
      "gasLimit": {
        "_hex": "0x5208"
      },
      "to": "0x32Be343B94f860124dC4fEe278FDCBD38C102D88",
      "value": {
        "_hex": "0x5cce83bf99420c000"
      },
      "nonce": 2,
      "data": "0x",
      "r": "0x34be23bfdfd8ce9236785b2c35e136c30d0fd4ca79fb3c74dab28339c42b3e04",
      "s": "0x3b6f6c19a289f82705646d09eba8c8e0e048d80d34eeee715d369781bff59c8d",
      "v": 28,
      "creates": null,
      "raw": "0xf86d02850ce30355fb8252089432be343b94f860124dc4fee278fdcbd38c102d888905cce83bf99420c000801ca034be23bfdfd8ce9236785b2c35e136c30d0fd4ca79fb3c74dab28339c42b3e04a03b6f6c19a289f82705646d09eba8c8e0e048d80d34eeee715d369781bff59c8d",
      "networkId": 0,
      "chainId": 0
    }
  ]
}