{
  "hash": "0x623d706b98f1804137919f79e2d31d6a49fdef1a2ceb08a2af7bad8c6977a405",
  "parentHash": "0x0f8d33308d1c52d92c06501cf07ed33f29fa6853ae3be62c022d1a4502d3823a",
  "number": 47737,
  "timestamp": 1438945618,
  "nonce": "0x78d3b81e7b4d5be3",
  "difficulty": 1443837272249,
  "gasLimit": {
    "_hex": "0xebac"
  },
  "gasUsed": {
    "_hex": "0xa674"
  },
  "miner": "0x3cdA97032227293AaeAEF72f44C1AdCfC3daF366",
  "extraData": "0x476574682f76312e302e312d38326566323666362f6c696e75782f676f312e34",
  "transactions": [
    {
      "hash": "0xe2507b5eca1b4cc7cea67160f43fd2eb15aeb542b17c55c9d221680bdf42b4bb",
      "blockHash": "0x623d706b98f1804137919f79e2d31d6a49fdef1a2ceb08a2af7bad8c6977a405",
      "blockNumber": 47737,
      "transactionIndex": 0,
      "confirmations": null,
      "from": "0x98F6b8E6213DbC9a5581F4cce6655f95252bDb07",
      "gasPrice": {
        "_hex": "0x45d964b800"
      },
      "gasLimit": {
        "_hex": "0x55f0"
      },
      "to": "0x2910543Af39abA0Cd09dBb2D50200b3E800A63D2",
      "value": {
        "_hex": "0xad78ebc5ac6200000"
      },
      "nonce": 1,
      "data": "0x454e46373246475a47",
      "r": "0x95bc754f50b192b3fceb20f1bf383f651ca2704dd3bc69aa950a54c62912f753",
      "s": "0x3792d97a95eafd6a984664db3acbdb66214d0cd8113125f7fb4a9ef3ad7b2dba",
      "v": 28,
      "creates": null,
      "raw": "0xf876018545d964b8008255f0942910543af39aba0cd09dbb2d50200b3e800a63d2890ad78ebc5ac620000089454e46373246475a471ca095bc754f50b192b3fceb20f1bf383f651ca2704dd3bc69aa950a54c62912f753a03792d97a95eafd6a984664db3acbdb66214d0cd8113125f7fb4a9ef3ad7b2dba",
      "networkId": 0,
      "chainId": 0
    },
    {
      "hash": "0xf86b6fc7ca3e5a13531f0314eb2062d8cffdb56cc32ef3487b664fa28f9e75d5",
      "blockHash": "0x623d706b98f1804137919f79e2d31d6a49fdef1a2ceb08a2af7bad8c6977a405",
      "blockNumber": 47737,
      "transactionIndex": 1,
      "confirmations": null,
      "from": "0xBFdD9820a04283b289957956353b5F3C1F665EcF",
      "gasPrice": {
        "_hex": "0xd85f824ca"
      },
      "gasLimit": {
        "_hex": "0x5208"
      },
      "to": "0x32Be343B94f860124dC4fEe278FDCBD38C102D88",
      "value": {
        "_hex": "0x1927067fdb504c000"
      },
      "nonce": 2,
      "data": "0x",
      "r": "0xf0743243f249e77206f296d897b1be11e35f8d65ea4f658abaa90e1b431bb9c8",
      "s": "0x498d1c4643821c1a7031ca4306bf9499084e07f0cff37a2584e1e51b8e773a70",
      "v": 28,
      "creates": null,
      "raw": "0xf86d02850d85f824ca8252089432be343b94f860124dc4fee278fdcbd38c102d888901927067fdb504c000801ca0f0743243f249e77206f296d897b1be11e35f8d65ea4f658abaa90e1b431bb9c8a0498d1c4643821c1a7031ca4306bf9499084e07f0cff37a2584e1e51b8e773a70",
      "networkId": 0,
      "chainId": 0
    }
  ]
}