{
  "hash": "0x86c7cda9dee7111b7591e811ce4c922cb5c7fb685bcd552553a8f9e5259d00b7",
  "parentHash": "0x52c77f6d9b01baf4df35a87c4be460623841ff7a61b9f259a188607d6ef5325a",
  "number": 69821,
  "timestamp": 1439310189,
  "nonce": "0xbbc7038e4efc78a7",
  "difficulty": 2099343922958,
  "gasLimit": {
    "_hex": "0x2fefd8"
  },
  "gasUsed": {
    "_hex": "0xf618"
  },
  "miner": "0xf32866D5cE9a9b5673e076be48AbCd6ED48ADe78",
  "extraData": "0x476574682f76312e302e312d37666266393930632f6c696e75782f676f312e34",
  "transactions": [
    {
      "hash": "0x276a136b52a0fd55a1f15eddb2ce5b82457321bc640852d0db4766a4083269db",
      "blockHash": "0x86c7cda9dee7111b7591e811ce4c922cb5c7fb685bcd552553a8f9e5259d00b7",
      "blockNumber": 69821,
      "transactionIndex": 0,
      "confirmations": null,
      "from": "0x0A319A7e0C887F104359e1eEe6717BD8f232d3Da",
      "gasPrice": {
        "_hex": "0xd35a9a786"
      },
      "gasLimit": {
        "_hex": "0x5208"
      },
      "to": "0x32Be343B94f860124dC4fEe278FDCBD38C102D88",
      "value": {
        "_hex": "0x98a39234b2869000"
      },
      "nonce": 4,
      "data": "0x",
      "r": "0x5529ebdbd8e12aae159e23a674596283accf59263e643041ef99102caf2cc399",
      "s": "0x32a35b62910c5170f94edd2c193cdcb493bc05eac16e9ebacb483b444723918d",
      "v": 27,
      "creates": null,
      "raw": "0xf86c04850d35a9a7868252089432be343b94f860124dc4fee278fdcbd38c102d888898a39234b2869000801ba05529ebdbd8e12aae159e23a674596283accf59263e643041ef99102caf2cc399a032a35b62910c5170f94edd2c193cdcb493bc05eac16e9ebacb483b444723918d",
      "networkId": 0,
      "chainId": 0
    },
    {
      "hash": "0x500cce9f9ae3cdf08b51fff5ebf93075e2ab86635116a90aa38ffa733cbee58f",
      "blockHash": "0x86c7cda9dee7111b7591e811ce4c922cb5c7fb685bcd552553a8f9e5259d00b7",
      "blockNumber": 69821,
      "transactionIndex": 1,
      "confirmations": null,
      "from": "0xE57399f2Eea4ba6d2B4139b1190F5BE1E9880ABe",
      "gasPrice": {
        "_hex": "0xd16db136d"
      },
      "gasLimit": {
        "_hex": "0x5208"
      },
      "to": "0x32Be343B94f860124dC4fEe278FDCBD38C102D88",
      "value": {
        "_hex": "0xdcac17f3bfc1800"
      },
      "nonce": 0,
      "data": "0x",
      "r": "0x7c1f2e574049e04c2d9f0329e5d601d69d96779bf8d4c615ad3ffa1f47d076c8",
      "s": "0x217393fef76079edcbebc09e7d52de8945d178ff577608356a42e92508c5200f",
      "v": 27,
      "creates": null,
      "raw": "0xf86c80850d16db136d8252089432be343b94f860124dc4fee278fdcbd38c102d88880dcac17f3bfc1800801ba07c1f2e574049e04c2d9f0329e5d601d69d96779bf8d4c615ad3ffa1f47d076c8a0217393fef76079edcbebc09e7d52de8945d178ff577608356a42e92508c5200f",
      "networkId": 0,
      "chainId": 0
    },
    {
      "hash": "0x9320043b5f49534426f27cc48247c1ac0c7fea91d0b9ec1becd20339e565ca34",
      "blockHash": "0x86c7cda9dee7111b7591e811ce4c922cb5c7fb685bcd552553a8f9e5259d00b7",
      "blockNumber": 69821,
      "transactionIndex": 2,
      "confirmations": null,
      "from": "0xAb375C1F0F01d6eB03790Fd7200132a2FC7E1a1A",
      "gasPrice": {
        "_hex": "0xd16db136d"
      },
      "gasLimit": {
        "_hex": "0x5208"
      },
      "to": "0x32Be343B94f860124dC4fEe278FDCBD38C102D88",
      "value": {
        "_hex": "0xddc7b1a3d774400"
      },
      "nonce": 0,
      "data": "0x",
      "r": "0x8ea2bc6a3e06ead47bfe7eb9862be0976765df8b8d9f82d0c634287735d9cb60",
      "s": "0x3dde85dddd8a54e9fdd371582b5603fdbc0be0cdbf9e5bae47bd2fde6c80fd17",
      "v": 27,
      "creates": null,
      "raw": "0xf86c80850d16db136d8252089432be343b94f860124dc4fee278fdcbd38c102d88880ddc7b1a3d774400801ba08ea2bc6a3e06ead47bfe7eb9862be0976765df8b8d9f82d0c634287735d9cb60a03dde85dddd8a54e9fdd371582b5603fdbc0be0cdbf9e5bae47bd2fde6c80fd17",
      "networkId": 0,
      "chainId": 0
    }
  ]
}