{
  "hash": "0x3b320bbdf75bf3fe4b09c228f8da157e7c557b76973d82630735ee2c0ad218d7",
  "parentHash": "0xc18c3a277013edb448e1976fff03983056858954823be071a7529a5d76df9e25",
  "number": 48272,
  "timestamp": 1438954521,
  "nonce": "0x59cdd9b29f4d250b",
  "difficulty": 1454358317027,
  "gasLimit": {
    "_hex": "0x14bd1"
  },
  "gasUsed": {
    "_hex": "0x546c"
  },
  "miner": "0xeB1325C8D9d3ea8D74aC11F4B00F1B2367686319",
  "extraData": "0x476574682f76312e302e312f77696e646f77732f676f312e342e32",
  "transactions": [
    {
      "hash": "0x005c89eed826919ed36051d1274b71cb4c3df2474cd73baa934705051d046434",
      "blockHash": "0x3b320bbdf75bf3fe4b09c228f8da157e7c557b76973d82630735ee2c0ad218d7",
      "blockNumber": 48272,
      "transactionIndex": 0,
      "confirmations": null,
      "from": "0xf65EaC42da2c53D2a0e9bb399DDeDA9b68c7885c",
      "gasPrice": {
        "_hex": "0xd7e0a9a7c"
      },
      "gasLimit": {
        "_hex": "0x61a8"
      },
      "to": "0x2910543Af39abA0Cd09dBb2D50200b3E800A63D2",
      "value": {
        "_hex": "0xde0b6b3a7640000"
      },
      "nonce": 0,
      "data": "0x454e395456414b3930",
      "r": "0x14145528e164036ddfa26ea59270707206c82e345076476b3824cb4efe9727df",
      "s": "0x7c3590c5b679a31089bc420b532a028eac97847731a7b1fcb3a5acf82e13dcbd",
      "v": 27,
      "creates": null,
      "raw": "0xf87580850d7e0a9a7c8261a8942910543af39aba0cd09dbb2d50200b3e800a63d2880de0b6b3a764000089454e395456414b39301ba014145528e164036ddfa26ea59270707206c82e345076476b3824cb4efe9727dfa07c3590c5b679a31089bc420b532a028eac97847731a7b1fcb3a5acf82e13dcbd",
      "networkId": 0,
      "chainId": 0
    }
  ]
}