{
  "hash": "0x2541ed95f15c61bc906cb00bc68fd608bdef3509b0d15393e7de1b7ecf719c95",
  "parentHash": "0x2ff0c9043d14b1d5d71a7529ac8fb922973a37dec7d997fca6f42b4cadea1807",
  "number": 71680,
  "timestamp": 1439339985,
  "nonce": "0x6300f4e3a3049341",
  "difficulty": 2183554497820,
  "gasLimit": {
    "_hex": "0x2fefd8"
  },
  "gasUsed": {
    "_hex": "0x5208"
  },
  "miner": "0xe6A7a1d47ff21B6321162AEA7C6CB457D5476Bca",
  "extraData": "0x476574682f76312e302e312d38326566323666362f6c696e75782f676f312e34",
  "transactions": [
    {
      "hash": "0x10f7880b08970aec194862d17dca3f0b8c96c126a82469f952eaaad8bd0365d4",
      "blockHash": "0x2541ed95f15c61bc906cb00bc68fd608bdef3509b0d15393e7de1b7ecf719c95",
      "blockNumber": 71680,
      "transactionIndex": 0,
      "confirmations": null,
      "from": "0x120A270bbC009644e35F0bB6ab13f95b8199c4ad",
      "gasPrice": {
        "_hex": "0xda5aa9e18"
      },
      "gasLimit": {
        "_hex": "0x15f90"
      },
      "to": "0x0258Afde42492E62Ba883e6169d5c502275A7a24",
      "value": {
        "_hex": "0x2e29779ad0cca18400"
      },
      "nonce": 237,
      "data": "0x",
      "r": "0xa65b894aea84cb11b8b060cd04b308c52fe90cc7ce6fe8a7ca39ce6cd7e40762",
      "s": "0x09b71e03f917fd65dd4a4c49d529cfdec37a271162ea2b87af9ed60065fcd6bf",
      "v": 28,
      "creates": null,
      "raw": "0xf86f81ed850da5aa9e1883015f90940258afde42492e62ba883e6169d5c502275a7a24892e29779ad0cca18400801ca0a65b894aea84cb11b8b060cd04b308c52fe90cc7ce6fe8a7ca39ce6cd7e40762a009b71e03f917fd65dd4a4c49d529cfdec37a271162ea2b87af9ed60065fcd6bf",
      "networkId": 0,
      "chainId": 0
    }
  ]
}