{
  "hash": "0xf654f38a6c235304610a759dac36e644bbe479d482e6afe06ece4846cbc1a8b9",
  "parentHash": "0x8b1343537067f6deb04b5cb242432edfef51f243b5109e6a3a31a541f693f1e3",
  "number": 53066,
  "timestamp": 1439031968,
  "nonce": "0xc7dc11be890d901a",
  "difficulty": 1574710468786,
  "gasLimit": {
    "_hex": "0x1ede38"
  },
  "gasUsed": {
    "_hex": "0x5208"
  },
  "miner": "0xfcd004FbAD7E8FfeE821d8A10D7f0685b14933B1",
  "extraData": "0x476574682f76312e302e312f6c696e75782f676f312e342e32",
  "transactions": [
    {
      "hash": "0xde7f2a239ad8b0a0bae43d318791851f1b6262a9d77e14da28840582b4df9ab8",
      "blockHash": "0xf654f38a6c235304610a759dac36e644bbe479d482e6afe06ece4846cbc1a8b9",
      "blockNumber": 53066,
      "transactionIndex": 0,
      "confirmations": null,
      "from": "0x814e505e371c7748C7b4675B94ABccfD1df6DD8A",
      "gasPrice": {
        "_hex": "0x746a528800"
      },
      "gasLimit": {
        "_hex": "0x55f0"
      },
      "to": "0xdF2b4cCA7EF689e4F525Fa2346b1864f36F25e25",
      "value": {
        "_hex": "0x6c6b935b8bbd400000"
      },
      "nonce": 0,
      "data": "0x",
      "r": "0x6cfd9337d9e0e2e1513fc9ddbba1dbd620b65ffc49b058b424a3d0633f3a3d8b",
      "s": "0x34039904870f0c013018ba6e61c763bdf9fc28c9b5ace1f7a5a5a6a6f04d64dd",
      "v": 27,
      "creates": null,
      "raw": "0xf86d8085746a5288008255f094df2b4cca7ef689e4f525fa2346b1864f36f25e25896c6b935b8bbd400000801ba06cfd9337d9e0e2e1513fc9ddbba1dbd620b65ffc49b058b424a3d0633f3a3d8ba034039904870f0c013018ba6e61c763bdf9fc28c9b5ace1f7a5a5a6a6f04d64dd",
      "networkId": 0,
      "chainId": 0
    }
  ]
}