{
  "hash": "0x3b829be509e811da5ee6708f54b935880354835f24c82d27c284d3560618f827",
  "parentHash": "0xb73cbae0562414049a5a406b5c7fc28a9f1c53123f07200959d380796d8fcf24",
  "number": 46863,
  "timestamp": 1438930640,
  "nonce": "0x4635535426b8cabd",
  "difficulty": 1455313048838,
  "gasLimit": {
    "_hex": "0x8077"
  },
  "gasUsed": {
    "_hex": "0x5208"
  },
  "miner": "0x2134e2a2b718DCa96580ECAC31E653Ea1fdd58DA",
  "extraData": "0x476574682f76312e302e312f77696e646f77732f676f312e342e32",
  "transactions": [
    {
      "hash": "0x02b835c272d372004c605769a050e10fad824ebbb2993c840c6aed977b8a7a05",
      "blockHash": "0x3b829be509e811da5ee6708f54b935880354835f24c82d27c284d3560618f827",
      "blockNumber": 46863,
      "transactionIndex": 0,
      "confirmations": null,
      "from": "0xd7E30ae310C1D1800F5B641Baa7af95b2e1FD98C",
      "gasPrice": {
        "_hex": "0x746a528800"
      },
      "gasLimit": {
        "_hex": "0x5208"
      },
      "to": "0xdF2b4cCA7EF689e4F525Fa2346b1864f36F25e25",
      "value": {
        "_hex": "0xde0b6b3a7640000"
      },
      "nonce": 2,
      "data": "0x",
      "r": "0x55aa791fb1c593b05c4361fd727638602d7a4ce695770e9453b8f21366e6900a",
      "s": "0x745cfd2a8cb7a4caa5841fba24076028429d488570e4be21f4a67bfc64ea9879",
      "v": 28,
      "creates": null,
      "raw": "0xf86c0285746a52880082520894df2b4cca7ef689e4f525fa2346b1864f36f25e25880de0b6b3a7640000801ca055aa791fb1c593b05c4361fd727638602d7a4ce695770e9453b8f21366e6900aa0745cfd2a8cb7a4caa5841fba24076028429d488570e4be21f4a67bfc64ea9879",
      "networkId": 0,
      "chainId": 0
    }
  ]
}