{
  "hash": "0x56232ca9eb2077159a8f268aa408091ccfa08516b88411805a456cde59a31e37",
  "parentHash": "0xaae905e328c3ce6dc3a28c31e3e8892a6705ffb25bb51090ff681da35121de6a",
  "number": 73388,
  "timestamp": 1439368553,
  "nonce": "0x029f0874d5d0615f",
  "difficulty": 2198084679856,
  "gasLimit": {
    "_hex": "0x2fefd8"
  },
  "gasUsed": {
    "_hex": "0x1b3e7"
  },
  "miner": "0x51D8a6bC2cf46e25bb447B2912C0eA9D1FC81386",
  "extraData": "0x476574682f76312e302e312f77696e646f77732f676f312e342e32",
  "transactions": [
    {
      "hash": "0x52062f81ea83eff5c005d7c1be10af51e3a420c5dbd75e3b6671b7c2401465e6",
      "blockHash": "0x56232ca9eb2077159a8f268aa408091ccfa08516b88411805a456cde59a31e37",
      "blockNumber": 73388,
      "transactionIndex": 0,
      "confirmations": null,
      "from": "0x326Be8F71bFb0379f989aAB1CC1fE37f0a771f60",
      "gasPrice": {
        "_hex": "0xff097ed3e8"
      },
      "gasLimit": {
        "_hex": "0x493e0"
      },
      "to": "0xDf595d10E76EffaBB38FB3ddFAF89a4Bd50Acf0f",
      "value": {
        "_hex": "0x8ac7230489e80000"
      },
      "nonce": 44,
      "data": "0x8d21618600000000000000000000000000000000000000000000000000000000000000808d5adaad541502933bfca57b79fdcf7b21a9ea7dbcf2e9321d253f5db02ac8f3",
      "r": "0x2725ed4bb4de219f3770448b77b1be9a99320e16d3e5e5732163c52361bc04fb",
      "s": "0x0b216a0394c22500b2f08732f617c9773b6d268eb7659869ca56e300cb912c62",
      "v": 28,
      "creates": null,
      "raw": "0xf8b22c85ff097ed3e8830493e094df595d10e76effabb38fb3ddfaf89a4bd50acf0f888ac7230489e80000b8448d21618600000000000000000000000000000000000000000000000000000000000000808d5adaad541502933bfca57b79fdcf7b21a9ea7dbcf2e9321d253f5db02ac8f31ca02725ed4bb4de219f3770448b77b1be9a99320e16d3e5e5732163c52361bc04fba00b216a0394c22500b2f08732f617c9773b6d268eb7659869ca56e300cb912c62",
      "networkId": 0,
      "chainId": 0
    }
  ]
}