{
  "hash": "0x1fc9a7434483d8df82c3dad701b15fe58979b82d94e9d596ac5f0012730b347f",
  "parentHash": "0xa8de01992acb95727f355ed0597e0d72e8816f734aa6c6f610739677b7ac3c96",
  "number": 83964,
  "timestamp": 1439543309,
  "nonce": "0xfe25e64a9076e905",
  "difficulty": 2470670806445,
  "gasLimit": {
    "_hex": "0x2fefd8"
  },
  "gasUsed": {
    "_hex": "0x546c"
  },
  "miner": "0xe6A7a1d47ff21B6321162AEA7C6CB457D5476Bca",
  "extraData": "0x476574682f76312e302e312d38326566323666362f6c696e75782f676f312e34",
  "transactions": [
    {
      "hash": "0x07b9aee4f421184962c81a350c2cbc9cc887b16b6c834b512111f9a559cc46e3",
      "blockHash": "0x1fc9a7434483d8df82c3dad701b15fe58979b82d94e9d596ac5f0012730b347f",
      "blockNumber": 83964,
      "transactionIndex": 0,
      "confirmations": null,
      "from": "0x523e93ed2d488b01E5a425F3A8d1cFcfEbD8B064",
      "gasPrice": {
        "_hex": "0xd60340b78"
      },
      "gasLimit": {
        "_hex": "0x15f90"
      },
      "to": "0x2910543Af39abA0Cd09dBb2D50200b3E800A63D2",
      "value": {
        "_hex": "0x29a2241af62c0000"
      },
      "nonce": 4,
      "data": "0x454e32305a39394830",
      "r": "0x2133cb8cdcca45ed3db73b5eb0f017a916e2a1713923c42c4c97a4c19d955610",
      "s": "0x14d6bf470e6ea3b2c3d217a36b4cb69614f81c873854ce86b89f1716460e6fe4",
      "v": 27,
      "creates": null,
      "raw": "0xf87604850d60340b7883015f90942910543af39aba0cd09dbb2d50200b3e800a63d28829a2241af62c000089454e32305a393948301ba02133cb8cdcca45ed3db73b5eb0f017a916e2a1713923c42c4c97a4c19d955610a014d6bf470e6ea3b2c3d217a36b4cb69614f81c873854ce86b89f1716460e6fe4",
      "networkId": 0,
      "chainId": 0
    }
  ]
}