{
  "hash": "0xa2de324f02984ccbd90d5cf9baa92265eecdd0b8223cef067c69ce73cf97a475",
  "parentHash": "0x495242070db53b031318a4ca88aa126594a4edd09a65e18976d3333e785ebdb5",
  "number": 54226,
  "timestamp": 1439050918,
  "nonce": "0x12e5576604303794",
  "difficulty": 1597726341254,
  "gasLimit": {
    "_hex": "0x2fefd8"
  },
  "gasUsed": {
    "_hex": "0x546c"
  },
  "miner": "0x1EB98B9942B97f707601889Ea96904651A28de2B",
  "extraData": "0xdd809b302e392e33392b2b613832352d5257696e646f2f6d73762f4a4954",
  "transactions": [
    {
      "hash": "0x4cf8f04e9d8530d6a863686fbce49eb8d4b6f88f1bd4f35ca1bea97441a1c3f1",
      "blockHash": "0xa2de324f02984ccbd90d5cf9baa92265eecdd0b8223cef067c69ce73cf97a475",
      "blockNumber": 54226,
      "transactionIndex": 0,
      "confirmations": null,
      "from": "0xEeA1E97988De75d821cD28AD6822B22CCE988b31",
      "gasPrice": {
        "_hex": "0x110c8f7d8de"
      },
      "gasLimit": {
        "_hex": "0xc350"
      },
      "to": "0x2910543Af39abA0Cd09dBb2D50200b3E800A63D2",
      "value": {
        "_hex": "0x1c2f0fd773a5960000"
      },
      "nonce": 0,
      "data": "0x454e51574458365830",
      "r": "0xb82aea1b8eedf418b51ab6db1d421b0973f86a1981bf4c62a067c4e4161295b5",
      "s": "0xd93a445063a92abab6da31a2ee79b49aa9df46510d7820dd41ec521f744d0cab",
      "v": 27,
      "creates": null,
      "raw": "0xf87780860110c8f7d8de82c350942910543af39aba0cd09dbb2d50200b3e800a63d2891c2f0fd773a596000089454e515744583658301ba0b82aea1b8eedf418b51ab6db1d421b0973f86a1981bf4c62a067c4e4161295b5a0d93a445063a92abab6da31a2ee79b49aa9df46510d7820dd41ec521f744d0cab",
      "networkId": 0,
      "chainId": 0
    }
  ]
}