{
  "hash": "0x1cbecdd18789da2181809af99d0dd89e52801f06d09eaec9f30ba7a1950da380",
  "parentHash": "0xa49a0ac71d693f6fa327041e81143cec38cabe536e55cbd1569b9a8469982797",
  "number": 113759,
  "timestamp": 1440028981,
  "nonce": "0x82726854c0d46442",
  "difficulty": 4455768816308,
  "gasLimit": {
    "_hex": "0x2fefd8"
  },
  "gasUsed": {
    "_hex": "0x5208"
  },
  "miner": "0xe6A7a1d47ff21B6321162AEA7C6CB457D5476Bca",
  "extraData": "0x476574682f76312e302e312d38326566323666362f6c696e75782f676f312e34",
  "transactions": [
    {
      "hash": "0x68e18e99cf6c5d0e8cd592c61d15ca87cd5f3d582542daa5d9f5791439088b1c",
      "blockHash": "0x1cbecdd18789da2181809af99d0dd89e52801f06d09eaec9f30ba7a1950da380",
      "blockNumber": 113759,
      "transactionIndex": 0,
      "confirmations": null,
      "from": "0x120A270bbC009644e35F0bB6ab13f95b8199c4ad",
      "gasPrice": {
        "_hex": "0xe11a28ad4"
      },
      "gasLimit": {
        "_hex": "0x3d090"
      },
      "to": "0xdDbddD1BBd38fFADE0305d30f02028D92e9f3Aa8",
      "value": {
        "_hex": "0x28a857425466f80000"
      },
      "nonce": 918,
      "data": "0x",
      "r": "0x128f664818b3ed32c8da07debc60b01ebd9368063c6e796b5cc41336fd4d4daa",
      "s": "0x13c70a6235a632b4d0bf82e938cbf95a711d4787e2cf70d2d7f7a85f874e2cbf",
      "v": 28,
      "creates": null,
      "raw": "0xf870820396850e11a28ad48303d09094ddbddd1bbd38ffade0305d30f02028d92e9f3aa88928a857425466f80000801ca0128f664818b3ed32c8da07debc60b01ebd9368063c6e796b5cc41336fd4d4daaa013c70a6235a632b4d0bf82e938cbf95a711d4787e2cf70d2d7f7a85f874e2cbf",
      "networkId": 0,
      "chainId": 0
    }
  ]
}