{
  "hash": "0x083b0910f6eb2d4a2b5786a673c575f4ec66d6c65fe5b124927bcabee183dad2",
  "parentHash": "0xd7c9f7e634d472294140863eea6edc69b0a665289689a74f0e623d0e40e3ed69",
  "number": 74115,
  "timestamp": 1439380665,
  "nonce": "0x6e1d3870fd187d22",
  "difficulty": 2233596347797,
  "gasLimit": {
    "_hex": "0x2fe41b"
  },
  "gasUsed": {
    "_hex": "0x5208"
  },
  "miner": "0xF031F36717cB524b883d440E3837C138180A0289",
  "extraData": "0x476574682f76312e302e302d66633739643332642f6c696e75782f676f312e34",
  "transactions": [
    {
      "hash": "0x0751c92d88cbfedc60cdb7d133364a255d600c2066ec57ecb790165d6086843b",
      "blockHash": "0x083b0910f6eb2d4a2b5786a673c575f4ec66d6c65fe5b124927bcabee183dad2",
      "blockNumber": 74115,
      "transactionIndex": 0,
      "confirmations": null,
      "from": "0x42E6723A0c884E922240e56D7B618BeC96F35800",
      "gasPrice": {
        "_hex": "0x9184e72a000"
      },
      "gasLimit": {
        "_hex": "0x5208"
      },
      "to": "0xde0B295669a9FD93d5F28D9Ec85E40f4cb697BAe",
      "value": {
        "_hex": "0x1"
      },
      "nonce": 4,
      "data": "0x",
      "r": "0x310cf657509db0715a35bbd25b2bc57e8a7f7576b09c2cd866dbb7e2015404ec",
      "s": "0x79f4d88c7d06f13d8865f290a74147fb7fa914e1a8891c682ebf20768b514e81",
      "v": 28,
      "creates": null,
      "raw": "0xf865048609184e72a00082520894de0b295669a9fd93d5f28d9ec85e40f4cb697bae01801ca0310cf657509db0715a35bbd25b2bc57e8a7f7576b09c2cd866dbb7e2015404eca079f4d88c7d06f13d8865f290a74147fb7fa914e1a8891c682ebf20768b514e81",
      "networkId": 0,
      "chainId": 0
    }
  ]
}