{
  "hash": "0x9cd10611f90ce60c7a6dcf320d090f1a5e71954bbb6a29b255309f75988f6d9c",
  "parentHash": "0xe6955ceadf980f7291b4abdc80df139eaf735ddf062b09aacddf28d29046268f",
  "number": 61807,
  "timestamp": 1439178411,
  "nonce": "0x564d32cc2fafcc26",
  "difficulty": 1738681524875,
  "gasLimit": {
    "_hex": "0x2fefd8"
  },
  "gasUsed": {
    "_hex": "0xa410"
  },
  "miner": "0xdd2F1e6e498202e86D8f5442Af596580A4f03c2C",
  "extraData": "0x476574682f76312e302e312d38326566323666362f6c696e75782f676f312e34",
  "transactions": [
    {
      "hash": "0x6aa65e16fc1b454baaf8571c5af5da6975a4ba8a1dfd7219628dc568363cd071",
      "blockHash": "0x9cd10611f90ce60c7a6dcf320d090f1a5e71954bbb6a29b255309f75988f6d9c",
      "blockNumber": 61807,
      "transactionIndex": 0,
      "confirmations": null,
      "from": "0x1308A2e95c0160B90803ddCA9B9a5bb55E416d79",
      "gasPrice": {
        "_hex": "0xe8d4a51000"
      },
      "gasLimit": {
        "_hex": "0x15f90"
      },
      "to": "0xf209Ca113565d1890FB6F6Cd70051B931dd81bb1",
      "value": {
        "_hex": "0x56900d33ca7fc0000"
      },
      "nonce": 106,
      "data": "0x",
      "r": "0x9bc9b6096db0b33363cc3586b85fb2fe8cb78335c688bcfcfd1cdbd06279a075",
      "s": "0x72526b51ea7c31630abcb2aedfa4e0fb47a033101bbec0286765442ca3c7096a",
      "v": 27,
      "creates": null,
      "raw": "0xf86e6a85e8d4a5100083015f9094f209ca113565d1890fb6f6cd70051b931dd81bb189056900d33ca7fc0000801ba09bc9b6096db0b33363cc3586b85fb2fe8cb78335c688bcfcfd1cdbd06279a075a072526b51ea7c31630abcb2aedfa4e0fb47a033101bbec0286765442ca3c7096a",
      "networkId": 0,
      "chainId": 0
    },
    {
      "hash": "0xecb6f789721490ba3e382755a1ff8599b2e340e53556974b64598753cd86503e",
      "blockHash": "0x9cd10611f90ce60c7a6dcf320d090f1a5e71954bbb6a29b255309f75988f6d9c",
      "blockNumber": 61807,
      "transactionIndex": 1,
      "confirmations": null,
      "from": "0x399e51beB529F28056C392653C99A2Ebb654571F",
      "gasPrice": {
        "_hex": "0xd5722fa7b"
      },
      "gasLimit": {
        "_hex": "0x15f90"
      },
      "to": "0x160f0cF2a758852e801e15573552F74f817B44B9",
      "value": {
        "_hex": "0x2386f26fc10000"
      },
      "nonce": 0,
      "data": "0x",
      "r": "0xdbdcce4635837e655500ef96f8216d9c2217e640004a35675747b1f09b2b7c11",
      "s": "0x11fdea4682d17ff1bbf7cae5583e0201314a045328b2763163a23f92e4757f02",
      "v": 27,
      "creates": null,
      "raw": "0xf86c80850d5722fa7b83015f9094160f0cf2a758852e801e15573552f74f817b44b9872386f26fc10000801ba0dbdcce4635837e655500ef96f8216d9c2217e640004a35675747b1f09b2b7c11a011fdea4682d17ff1bbf7cae5583e0201314a045328b2763163a23f92e4757f02",
      "networkId": 0,
      "chainId": 0
    }
  ]
}