{
  "hash": "0x3f025961156234786600e3343b1afb4b5aab4deb7c8096f523b42e9aeeb319ca",
  "parentHash": "0xe434c33b686da54707412497ea1a3c6a4f59ccaab6f9adc19bc0650b4bde3013",
  "number": 71619,
  "timestamp": 1439339105,
  "nonce": "0xf3e259aa0a3fc258",
  "difficulty": 2178245895648,
  "gasLimit": {
    "_hex": "0x2fefd8"
  },
  "gasUsed": {
    "_hex": "0xaec1"
  },
  "miner": "0xe6A7a1d47ff21B6321162AEA7C6CB457D5476Bca",
  "extraData": "0x476574682f76312e302e312d38326566323666362f6c696e75782f676f312e34",
  "transactions": [
    {
      "hash": "0x04a272d66d17a73f6bd5bfe38e15a5eb15e1c2e89992879480d1c64c293232e5",
      "blockHash": "0x3f025961156234786600e3343b1afb4b5aab4deb7c8096f523b42e9aeeb319ca",
      "blockNumber": 71619,
      "transactionIndex": 0,
      "confirmations": null,
      "from": "0x17580B766f7453525ca4C6A88b01b50570EA088C",
      "gasPrice": {
        "_hex": "0xd9844ae51"
      },
      "gasLimit": {
        "_hex": "0x61a80"
      },
      "to": "0x5Fe5B7546D1628f7348B023A0393de1FC825A4fD",
      "value": {
        "_hex": "0x53444835ec580000"
      },
      "nonce": 236,
      "data": "0xb595b8b50000000000000000000000000000000000000000000000000000000000000001",
      "r": "0xf51e26e99807fe793bcf88918c2a8c62d5a189f7a1de1d7657fee057f060dbd9",
      "s": "0x13cc21df921902db8cb521b2fdeb0c0019b53dbd7c0ad63e9c59ce216a76e5fa",
      "v": 27,
      "creates": null,
      "raw": "0xf89281ec850d9844ae5183061a80945fe5b7546d1628f7348b023a0393de1fc825a4fd8853444835ec580000a4b595b8b500000000000000000000000000000000000000000000000000000000000000011ba0f51e26e99807fe793bcf88918c2a8c62d5a189f7a1de1d7657fee057f060dbd9a013cc21df921902db8cb521b2fdeb0c0019b53dbd7c0ad63e9c59ce216a76e5fa",
      "networkId": 0,
      "chainId": 0
    }
  ]
}