{
  "hash": "0xc8ae37e29a2fcf23bb4cd80afbb9f7f93b5ec3389d608a52eed764ffa21794a5",
  "parentHash": "0x552e0afd6dac978244fb1aca8030bbfb9c645daa509e381e4f8acd36ffef4553",
  "number": 105972,
  "timestamp": 1439896534,
  "nonce": "0xedc2c12ab544a13b",
  "difficulty": 4457729792897,
  "gasLimit": {
    "_hex": "0x2fefd8"
  },
  "gasUsed": {
    "_hex": "0x5208"
  },
  "miner": "0xe6A7a1d47ff21B6321162AEA7C6CB457D5476Bca",
  "extraData": "0x476574682f76312e302e312d38326566323666362f6c696e75782f676f312e34",
  "transactions": [
    {
      "hash": "0x22027095f3747f6e40827d32372fc31cc542833e838e32f08c07b7ebb2008df3",
      "blockHash": "0xc8ae37e29a2fcf23bb4cd80afbb9f7f93b5ec3389d608a52eed764ffa21794a5",
      "blockNumber": 105972,
      "transactionIndex": 0,
      "confirmations": null,
      "from": "0x2910543Af39abA0Cd09dBb2D50200b3E800A63D2",
      "gasPrice": {
        "_hex": "0xcd1a2312d"
      },
      "gasLimit": {
        "_hex": "0x5208"
      },
      "to": "0xB6Cc54EB0ad5452f98ec2Be0a901B41e26a77b3B",
      "value": {
        "_hex": "0x6394e27ed1ffc64000"
      },
      "nonce": 1031,
      "data": "0x",
      "r": "0x76826975a40faa2d9ce356d8e5f2dc36d7f1affdf9138295549ef5e554f6de2e",
      "s": "0x06d287f93e039ba416c31281d76851471f5654628cf66cc206a0cedc51997cad",
      "v": 27,
      "creates": null,
      "raw": "0xf86f820407850cd1a2312d82520894b6cc54eb0ad5452f98ec2be0a901b41e26a77b3b896394e27ed1ffc64000801ba076826975a40faa2d9ce356d8e5f2dc36d7f1affdf9138295549ef5e554f6de2ea006d287f93e039ba416c31281d76851471f5654628cf66cc206a0cedc51997cad",
      "networkId": 0,
      "chainId": 0
    }
  ]
}