{
  "hash": "0xfc37ce94265a5b7ff5c3c924bb16dd3db0aee7d6d7f32e9b6a2c56ae39b18244",
  "parentHash": "0x7367017b57168451ae2b704d3c0820cfe93b9e492418d299a73843a8d3cd4216",
  "number": 66096,
  "timestamp": 1439248503,
  "nonce": "0x4b9c7c50a900a496",
  "difficulty": 1950992969990,
  "gasLimit": {
    "_hex": "0x2fefd8"
  },
  "gasUsed": {
    "_hex": "0x5208"
  },
  "miner": "0xf8E0CA3Ed80bd541b94BEdCf259e8CF2141A9523",
  "extraData": "0x476574682f76312e302e312f77696e646f77732f676f312e342e32",
  "transactions": [
    {
      "hash": "0xf5f10b15e1bd7d5d7d114ba738880211baf8c4043c5ab8052be03c56b1a744e1",
      "blockHash": "0xfc37ce94265a5b7ff5c3c924bb16dd3db0aee7d6d7f32e9b6a2c56ae39b18244",
      "blockNumber": 66096,
      "transactionIndex": 0,
      "confirmations": null,
      "from": "0xB6AC12CefF0375Da80503AcCa54bf3061Fa917a8",
      "gasPrice": {
        "_hex": "0xd83710bfa"
      },
      "gasLimit": {
        "_hex": "0x15f90"
      },
      "to": "0x5fF827e73C5B866c300b824fe12719a3DD350513",
      "value": {
        "_hex": "0x4563918244f40000"
      },
      "nonce": 12,
      "data": "0x",
      "r": "0x60f8bffbbab444d69a13ae323e45fc7ba720f4a0cdae7d3c63a8d10d637b458d",
      "s": "0x1c0b0625066721ff344bdf9eb669acc54681c85b880c6c09046aa3030f0b72bd",
      "v": 27,
      "creates": null,
      "raw": "0xf86d0c850d83710bfa83015f90945ff827e73c5b866c300b824fe12719a3dd350513884563918244f40000801ba060f8bffbbab444d69a13ae323e45fc7ba720f4a0cdae7d3c63a8d10d637b458da01c0b0625066721ff344bdf9eb669acc54681c85b880c6c09046aa3030f0b72bd",
      "networkId": 0,
      "chainId": 0
    }
  ]
}