{
  "hash": "0xba2391dbfe2fb8f6c52e9e272c9742741b3b40b5455ccc0ee8290a4d7f3dc698",
  "parentHash": "0x2af547b3287b333dffff3214dd2a5d28453206e0ec52cd01533197729e9b959e",
  "number": 109999,
  "timestamp": 1439966192,
  "nonce": "0x16c9c88be28849f4",
  "difficulty": 4410136575455,
  "gasLimit": {
    "_hex": "0x2fefd8"
  },
  "gasUsed": {
    "_hex": "0xa414"
  },
  "miner": "0xe6A7a1d47ff21B6321162AEA7C6CB457D5476Bca",
  "extraData": "0x476574682f76312e302e312d38326566323666362f6c696e75782f676f312e34",
  "transactions": [
    {
      "hash": "0xffcded1414951991fb10c7bd0c3bb90c8c523f593269f2bd8734d3157a494622",
      "blockHash": "0xba2391dbfe2fb8f6c52e9e272c9742741b3b40b5455ccc0ee8290a4d7f3dc698",
      "blockNumber": 109999,
      "transactionIndex": 0,
      "confirmations": null,
      "from": "0xb9836ec1f42Bd48331bceaedb74a6Bcdc22832bD",
      "gasPrice": {
        "_hex": "0xdf8b5307a"
      },
      "gasLimit": {
        "_hex": "0x7530"
      },
      "to": "0x7cB57B5A97eAbe94205C07890BE4c1aD31E486A8",
      "value": {
        "_hex": "0x38d7ea4c68000"
      },
      "nonce": 6,
      "data": "0x00",
      "r": "0xf03f1b24dd3d0c202531f2b5c53179a193f8e68bf4f6b25b87714a2509ed5993",
      "s": "0x3b0a910179edc10c9eb725cd6b6c1d6735023b3a8872eed6cd67781645ddb082",
      "v": 28,
      "creates": null,
      "raw": "0xf86b06850df8b5307a827530947cb57b5a97eabe94205c07890be4c1ad31e486a887038d7ea4c68000001ca0f03f1b24dd3d0c202531f2b5c53179a193f8e68bf4f6b25b87714a2509ed5993a03b0a910179edc10c9eb725cd6b6c1d6735023b3a8872eed6cd67781645ddb082",
      "networkId": 0,
      "chainId": 0
    },
    {
      "hash": "0xd7d97dac36847e9fdf71db1e58a6d17c5aa197dba1a5d34fccb6c5a95eed7020",
      "blockHash": "0xba2391dbfe2fb8f6c52e9e272c9742741b3b40b5455ccc0ee8290a4d7f3dc698",
      "blockNumber": 109999,
      "transactionIndex": 1,
      "confirmations": null,
      "from": "0xcD690730A45cdebeF24F2a3db2de181bFBA5CBea",
      "gasPrice": {
        "_hex": "0xd98c52453"
      },
      "gasLimit": {
        "_hex": "0x5208"
      },
      "to": "0x32Be343B94f860124dC4fEe278FDCBD38C102D88",
      "value": {
        "_hex": "0x116ed3025953b3000"
      },
      "nonce": 8,
      "data": "0x",
      "r": "0xeb09a15c5be4498b66a7e359757a8516463a208ccc9c1966a33d00c657886c6b",
      "s": "0x668fdcd42dacacfc331732b665fcde6aa796baa8f2f725dd7384d5a9ea79771a",
      "v": 28,
      "creates": null,
      "raw": "0xf86d08850d98c524538252089432be343b94f860124dc4fee278fdcbd38c102d88890116ed3025953b3000801ca0eb09a15c5be4498b66a7e359757a8516463a208ccc9c1966a33d00c657886c6ba0668fdcd42dacacfc331732b665fcde6aa796baa8f2f725dd7384d5a9ea79771a",
      "networkId": 0,
      "chainId": 0
    }
  ]
}