{
  "hash": "0x824ecde15e56e7217e15cb11e8c32ea4117ac4ce95a34219cdf59a6f6f55a16f",
  "parentHash": "0x568e72eae09c1a1f6dcba2e52755495d2dd68eb0c8a580633389ad8f0782032f",
  "number": 120447,
  "timestamp": 1440160158,
  "nonce": "0xb570b5c4aaf90883",
  "difficulty": 4400347860878,
  "gasLimit": {
    "_hex": "0x2fefd8"
  },
  "gasUsed": {
    "_hex": "0x5208"
  },
  "miner": "0x954Fa3AAEb2272A61767DA893c9D8Dfd4eDef64D",
  "extraData": "0xd783010100844765746887676f312e342e32856c696e7578",
  "transactions": [
    {
      "hash": "0x7845465f5bed9032da1c6b2d4fdb317030feb18b92469fc6bb052f5ea44a8159",
      "blockHash": "0x824ecde15e56e7217e15cb11e8c32ea4117ac4ce95a34219cdf59a6f6f55a16f",
      "blockNumber": 120447,
      "transactionIndex": 0,
      "confirmations": null,
      "from": "0x4D67f4F0Db45b3B5a3424B39ed8d972F710381D5",
      "gasPrice": {
        "_hex": "0xba43b7400"
      },
      "gasLimit": {
        "_hex": "0x5208"
      },
      "to": "0x32Be343B94f860124dC4fEe278FDCBD38C102D88",
      "value": {
        "_hex": "0x323826443621a6000"
      },
      "nonce": 59,
      "data": "0x",
      "r": "0xd0c54e883436c203c3f45b7355094f823db947f7dc91e5525b1e4de6f52d151c",
      "s": "0x7502599807b1b3208e13940bbf91ff45f83e486705e81d7fef8ad095046d5556",
      "v": 27,
      "creates": null,
      "raw": "0xf86d3b850ba43b74008252089432be343b94f860124dc4fee278fdcbd38c102d88890323826443621a6000801ba0d0c54e883436c203c3f45b7355094f823db947f7dc91e5525b1e4de6f52d151ca07502599807b1b3208e13940bbf91ff45f83e486705e81d7fef8ad095046d5556",
      "networkId": 0,
      "chainId": 0
    }
  ]
}