{
  "hash": "0x232c22d1fb22cfb3dd4622ea5150b46ce92acdc90fe3bec390d8e75e186ea5c4",
  "parentHash": "0xfbefdbce2317bac726271145a27d5ab08040edc8288f146c8d6ab4cd6a5927da",
  "number": 90392,
  "timestamp": 1439639133,
  "nonce": "0x8df9c27dceea7e04",
  "difficulty": 3335106762914,
  "gasLimit": {
    "_hex": "0x2fefd8"
  },
  "gasUsed": {
    "_hex": "0x5208"
  },
  "miner": "0xf927a40C8B7F6E07c5af7FA2155B4864a4112B13",
  "extraData": "0x",
  "transactions": [
    {
      "hash": "0x6490d0baea55cf40fc477e1a5204a2894c286c72a90701eb8441986392268b7a",
      "blockHash": "0x232c22d1fb22cfb3dd4622ea5150b46ce92acdc90fe3bec390d8e75e186ea5c4",
      "blockNumber": 90392,
      "transactionIndex": 0,
      "confirmations": null,
      "from": "0x7e438f91d967E175a700EfBD9A471f4724449dcd",
      "gasPrice": {
        "_hex": "0xd05b32bc5"
      },
      "gasLimit": {
        "_hex": "0x15f90"
      },
      "to": "0xf2cC0eEAAAeD313542CB262B0B8c3972425143f0",
      "value": {
        "_hex": "0x45400a8fd5330000"
      },
      "nonce": 0,
      "data": "0x",
      "r": "0xc6807399a046c501c0e7322e0af47cbf3f30d7475f6a58931082b6e4186ab45c",
      "s": "0x41a1d39e3177b766c9bce277f9b0683cbe7668cb5a0aa4429f71cdb74cdd2c98",
      "v": 27,
      "creates": null,
      "raw": "0xf86d80850d05b32bc583015f9094f2cc0eeaaaed313542cb262b0b8c3972425143f08845400a8fd5330000801ba0c6807399a046c501c0e7322e0af47cbf3f30d7475f6a58931082b6e4186ab45ca041a1d39e3177b766c9bce277f9b0683cbe7668cb5a0aa4429f71cdb74cdd2c98",
      "networkId": 0,
      "chainId": 0
    }
  ]
}