{
  "hash": "0x7e706bf608f5c472225f9ee2b4bcb9229ca68dfd5c6607b06dcbb04dba3d3051",
  "parentHash": "0xb04701bf6bff85a5f05e3489f681cf9eb805bebc4d635a6e914fa7352cfd8f57",
  "number": 82614,
  "timestamp": 1439522253,
  "nonce": "0xc29c02dd8c271e63",
  "difficulty": 2371766413405,
  "gasLimit": {
    "_hex": "0x2fefd8"
  },
  "gasUsed": {
    "_hex": "0x5208"
  },
  "miner": "0xe6A7a1d47ff21B6321162AEA7C6CB457D5476Bca",
  "extraData": "0x476574682f76312e302e312d38326566323666362f6c696e75782f676f312e34",
  "transactions": [
    {
      "hash": "0x81d73ff8c4f3ea066956e69fd1b7d96187edefaa738e49bf6d2a7b9ccb53cf59",
      "blockHash": "0x7e706bf608f5c472225f9ee2b4bcb9229ca68dfd5c6607b06dcbb04dba3d3051",
      "blockNumber": 82614,
      "transactionIndex": 0,
      "confirmations": null,
      "from": "0xB2Ee3409b1f48d7d8D75B40568D7b5E68A4fb284",
      "gasPrice": {
        "_hex": "0xdc7698880"
      },
      "gasLimit": {
        "_hex": "0x5208"
      },
      "to": "0x32Be343B94f860124dC4fEe278FDCBD38C102D88",
      "value": {
        "_hex": "0x4e0fbd0db94b90000"
      },
      "nonce": 1,
      "data": "0x",
      "r": "0xcb04b9c54e486477b4c3cf5f2226149511ea1c67dadd7707a203a610c52634a3",
      "s": "0x23de0b98ce6ebe96cce90875208d14b950b0c9e7b7e26229b3dea68d25f7644d",
      "v": 28,
      "creates": null,
      "raw": "0xf86d01850dc76988808252089432be343b94f860124dc4fee278fdcbd38c102d888904e0fbd0db94b90000801ca0cb04b9c54e486477b4c3cf5f2226149511ea1c67dadd7707a203a610c52634a3a023de0b98ce6ebe96cce90875208d14b950b0c9e7b7e26229b3dea68d25f7644d",
      "networkId": 0,
      "chainId": 0
    }
  ]
}