{
  "hash": "0x0fab0968e815b20e5d6863706a8c62dbc45d0a106568ceb689b11da7b2ed3d0c",
  "parentHash": "0x57102905ba096dd3fca8da2c9db581f3443b1402d6bcfb82ceccdb5fb9b4756c",
  "number": 71281,
  "timestamp": 1439333693,
  "nonce": "0x9674842b84490dbd",
  "difficulty": 2152955307025,
  "gasLimit": {
    "_hex": "0x2fefd8"
  },
  "gasUsed": {
    "_hex": "0xae73"
  },
  "miner": "0x9298A283561414096A90B8e52c2202D03F3406A9",
  "extraData": "0x",
  "transactions": [
    {
      "hash": "0x2417c0f178965d400fc3cd510ebc225b3e8a87cf6f63e437718ec6ed9ae29897",
      "blockHash": "0x0fab0968e815b20e5d6863706a8c62dbc45d0a106568ceb689b11da7b2ed3d0c",
      "blockNumber": 71281,
      "transactionIndex": 0,
      "confirmations": null,
      "from": "0x17580B766f7453525ca4C6A88b01b50570EA088C",
      "gasPrice": {
        "_hex": "0xccf9c87c2"
      },
      "gasLimit": {
        "_hex": "0x61a80"
      },
      "to": "0x5Fe5B7546D1628f7348B023A0393de1FC825A4fD",
      "value": {
        "_hex": "0x29a2241af62c0000"
      },
      "nonce": 144,
      "data": "0xb595b8b50000000000000000000000000000000000000000000000000000000000000000",
      "r": "0xf9731217b129592610b65cb17ed388f0423f5a48fab9213fbef26efbf8fc740e",
      "s": "0x21044fa6ec48c4d0b84edb6df69eb16e0253d9c0f607f2658b24723ef3dcbcf4",
      "v": 28,
      "creates": null,
      "raw": "0xf8928190850ccf9c87c283061a80945fe5b7546d1628f7348b023a0393de1fc825a4fd8829a2241af62c0000a4b595b8b500000000000000000000000000000000000000000000000000000000000000001ca0f9731217b129592610b65cb17ed388f0423f5a48fab9213fbef26efbf8fc740ea021044fa6ec48c4d0b84edb6df69eb16e0253d9c0f607f2658b24723ef3dcbcf4",
      "networkId": 0,
      "chainId": 0
    }
  ]
}