{
  "hash": "0x58400e0bed62e5931299d3fb01028c45e6afec16db513b33c18caa6b52461e20",
  "parentHash": "0x09099ecae65dee7c0f19e47cd773812f855923391568c4a3b8377a8ff454336c",
  "number": 106277,
  "timestamp": 1439901562,
  "nonce": "0x7a99ea078eb3c719",
  "difficulty": 4472829613824,
  "gasLimit": {
    "_hex": "0x2fefd8"
  },
  "gasUsed": {
    "_hex": "0x5208"
  },
  "miner": "0xf927a40C8B7F6E07c5af7FA2155B4864a4112B13",
  "extraData": "0x",
  "transactions": [
    {
      "hash": "0xafa51dd5ad1992bf98c5032fd277edd2625d86d3971dc6cd3f5ce3e33926e590",
      "blockHash": "0x58400e0bed62e5931299d3fb01028c45e6afec16db513b33c18caa6b52461e20",
      "blockNumber": 106277,
      "transactionIndex": 0,
      "confirmations": null,
      "from": "0x28e44357aa686897cd4A46125e239497723aC38b",
      "gasPrice": {
        "_hex": "0xdef9169bd"
      },
      "gasLimit": {
        "_hex": "0x15f90"
      },
      "to": "0x8df03bD37602d97980327B58D940258dC57007B3",
      "value": {
        "_hex": "0x454e408a684d0000"
      },
      "nonce": 0,
      "data": "0x",
      "r": "0x0f4b932f219da166754936396dbcf5e9fffdddd40babcbaa2204a77e88097f9c",
      "s": "0x5c44fefcaec56fb1ae8c162f197a47805ff5b616afe960722cd1342eff5cf5bd",
      "v": 28,
      "creates": null,
      "raw": "0xf86d80850def9169bd83015f90948df03bd37602d97980327b58d940258dc57007b388454e408a684d0000801ca00f4b932f219da166754936396dbcf5e9fffdddd40babcbaa2204a77e88097f9ca05c44fefcaec56fb1ae8c162f197a47805ff5b616afe960722cd1342eff5cf5bd",
      "networkId": 0,
      "chainId": 0
    }
  ]
}