{
  "hash": "0xb589201a2be8a5d1c6b7a3c2788afd77043b94dad2c2a4be7881716f9002ac4b",
  "parentHash": "0x172464794a74d8cfac56a0a4e42bca3eb66883e001d2f5f18e967c30b92d674b",
  "number": 109533,
  "timestamp": 1439958178,
  "nonce": "0x2b3f0e2e5c997436",
  "difficulty": 4444972626253,
  "gasLimit": {
    "_hex": "0x2fefd8"
  },
  "gasUsed": {
    "_hex": "0x5208"
  },
  "miner": "0x1A22137e525478043F6E1394849e6C23932786C9",
  "extraData": "0x476574682f76312e302e312f6c696e75782f676f312e342e32",
  "transactions": [
    {
      "hash": "0x7b44727048a539db2fb986de56537f218d149062c5dcac9689135ad7c3811c18",
      "blockHash": "0xb589201a2be8a5d1c6b7a3c2788afd77043b94dad2c2a4be7881716f9002ac4b",
      "blockNumber": 109533,
      "transactionIndex": 0,
      "confirmations": null,
      "from": "0xb1abce2918E21ddb93AA452731a12672A3d9F75a",
      "gasPrice": {
        "_hex": "0xce99bf259"
      },
      "gasLimit": {
        "_hex": "0x5208"
      },
      "to": "0x32Be343B94f860124dC4fEe278FDCBD38C102D88",
      "value": {
        "_hex": "0x455f6e4663764000"
      },
      "nonce": 149,
      "data": "0x",
      "r": "0xfa85de369a0618908f512a0b96c72d02f7dea74b85285cd3b4be7cb470bfac0b",
      "s": "0x7861cd673cf66682f427c75a341947ec224b511d7c30e05402e092b0f2c25eb6",
      "v": 27,
      "creates": null,
      "raw": "0xf86d8195850ce99bf2598252089432be343b94f860124dc4fee278fdcbd38c102d8888455f6e4663764000801ba0fa85de369a0618908f512a0b96c72d02f7dea74b85285cd3b4be7cb470bfac0ba07861cd673cf66682f427c75a341947ec224b511d7c30e05402e092b0f2c25eb6",
      "networkId": 0,
      "chainId": 0
    }
  ]
}