{
  "hash": "0xc28424177676b382991ce6238b590fd48cf86ed2456a7743585b181fae602265",
  "parentHash": "0xf8f7bedfc5f0c0b2269843c1d7c74ee97962eb23156f3953397bbdb08b807cd5",
  "number": 49080,
  "timestamp": 1438967560,
  "nonce": "0x62f3739a699d8c82",
  "difficulty": 1485799245141,
  "gasLimit": {
    "_hex": "0x25444"
  },
  "gasUsed": {
    "_hex": "0x5208"
  },
  "miner": "0x4705E331214F54eE19677a920BeB64e5206Fd610",
  "extraData": "0x476574682f76312e302e312f6c696e75782f676f312e342e32",
  "transactions": [
    {
      "hash": "0xfa7a608bffd6445d5cca679bff0bd47e737fb159df71e8b220a33a5f02ab2f5b",
      "blockHash": "0xc28424177676b382991ce6238b590fd48cf86ed2456a7743585b181fae602265",
      "blockNumber": 49080,
      "transactionIndex": 0,
      "confirmations": null,
      "from": "0xba1FCAf223937Ef89e85675503Bdb7Ca6A928B78",
      "gasPrice": {
        "_hex": "0x10884215aa2"
      },
      "gasLimit": {
        "_hex": "0x15f90"
      },
      "to": "0xC939D6e2515872B4A5bed252f1d82A4dCE4A1507",
      "value": {
        "_hex": "0x17cc594e140c7c0000"
      },
      "nonce": 5,
      "data": "0x",
      "r": "0x52da10cf65254839dbf8b6de4a466aa4bd7320595a723f7532e5171ac6909e8b",
      "s": "0x3387be0ce43defd4b2d0eb9bdf9000d8e3d3fb9f45cab961817e3f0420f92c0c",
      "v": 27,
      "creates": null,
      "raw": "0xf86f0586010884215aa283015f9094c939d6e2515872b4a5bed252f1d82a4dce4a15078917cc594e140c7c0000801ba052da10cf65254839dbf8b6de4a466aa4bd7320595a723f7532e5171ac6909e8ba03387be0ce43defd4b2d0eb9bdf9000d8e3d3fb9f45cab961817e3f0420f92c0c",
      "networkId": 0,
      "chainId": 0
    }
  ]
}