{
  "hash": "0x69ec33ee19d4ef67b014da1f9efb3431402079cfedf76892de6b8b05dade1de6",
  "parentHash": "0xbc790a0ea0ab7de3db1b6de66ecc7afeed625991eeef4aa999409c0ff4e689bc",
  "number": 69447,
  "timestamp": 1439304271,
  "nonce": "0xf0e88619e163ee00",
  "difficulty": 2062855805622,
  "gasLimit": {
    "_hex": "0x2fefd8"
  },
  "gasUsed": {
    "_hex": "0xa414"
  },
  "miner": "0xbb7B8287f3F0a933474a79eAe42CBCa977791171",
  "extraData": "0x476574682f4c5649562f76312e302e312f6c696e75782f676f312e342e32",
  "transactions": [
    {
      "hash": "0xcbca3a4bc479b7769094b18623ba9c3f9a9daa8c6919c7987f367375ea2957c9",
      "blockHash": "0x69ec33ee19d4ef67b014da1f9efb3431402079cfedf76892de6b8b05dade1de6",
      "blockNumber": 69447,
      "transactionIndex": 0,
      "confirmations": null,
      "from": "0x4E567864EC2EFAd2a2186806b9aFeeF0cAF9a427",
      "gasPrice": {
        "_hex": "0xdc04240c3"
      },
      "gasLimit": {
        "_hex": "0x55f0"
      },
      "to": "0x4E567864EC2EFAd2a2186806b9aFeeF0cAF9a427",
      "value": {
        "_hex": "0x0"
      },
      "nonce": 0,
      "data": "0x00",
      "r": "0xde60d4a5bbef1926bb9c92e2d7e77731f728f2b1b1ed6c855f0194161ab78786",
      "s": "0x4e2c63234d8bbb822addc1f8a9054774cd8fc829aaaa998edaf2d682ef255832",
      "v": 27,
      "creates": null,
      "raw": "0xf86480850dc04240c38255f0944e567864ec2efad2a2186806b9afeef0caf9a42780001ba0de60d4a5bbef1926bb9c92e2d7e77731f728f2b1b1ed6c855f0194161ab78786a04e2c63234d8bbb822addc1f8a9054774cd8fc829aaaa998edaf2d682ef255832",
      "networkId": 0,
      "chainId": 0
    },
    {
      "hash": "0xe1971a7bcc465b548523f3d1d239e6bd857a2cab740a164fb9dbaf599bad9388",
      "blockHash": "0x69ec33ee19d4ef67b014da1f9efb3431402079cfedf76892de6b8b05dade1de6",
      "blockNumber": 69447,
      "transactionIndex": 1,
      "confirmations": null,
      "from": "0x47ff6576639c2e94762eA5443978D7681C0E78DC",
      "gasPrice": {
        "_hex": "0xccc42dcb4"
      },
      "gasLimit": {
        "_hex": "0x5208"
      },
      "to": "0x3620db64D25D412bAb4C8d93E2e0D7e64e8Cb933",
      "value": {
        "_hex": "0x30849ebe16369c0000"
      },
      "nonce": 19,
      "data": "0x",
      "r": "0x530a948b974d8ef46ee5e3fb1290d9f049bc24dfe82904780b48c38bce96067c",
      "s": "0x2c3a43b71dcabc2d7db9a7bbceb52dba9003f1385bb8df3c1d7e2d38b0b86cdd",
      "v": 28,
      "creates": null,
      "raw": "0xf86d13850ccc42dcb4825208943620db64d25d412bab4c8d93e2e0d7e64e8cb9338930849ebe16369c0000801ca0530a948b974d8ef46ee5e3fb1290d9f049bc24dfe82904780b48c38bce96067ca02c3a43b71dcabc2d7db9a7bbceb52dba9003f1385bb8df3c1d7e2d38b0b86cdd",
      "networkId": 0,
      "chainId": 0
    }
  ]
}