{
  "hash": "0x542f3bc44064cc0bfe7b4c0977ce16f537bc6c97e3ae1864b9f8f99cdb0eb814",
  "parentHash": "0x5d214021f3e36b40e266cdf670464bb565998a26040bf63c9b913071353ea4a2",
  "number": 81096,
  "timestamp": 1439496155,
  "nonce": "0x8426463706505634",
  "difficulty": 2435575683572,
  "gasLimit": {
    "_hex": "0x2fefd8"
  },
  "gasUsed": {
    "_hex": "0x5208"
  },
  "miner": "0x727A42a8D67fcaa0Ab81D46f1EE66bfc9b8789AC",
  "extraData": "0x",
  "transactions": [
    {
      "hash": "0xdabffc1dbed1c5bdd3ac8b8d179bd80cbe8bd3cd979ec29592db913d10292528",
      "blockHash": "0x542f3bc44064cc0bfe7b4c0977ce16f537bc6c97e3ae1864b9f8f99cdb0eb814",
      "blockNumber": 81096,
      "transactionIndex": 0,
      "confirmations": null,
      "from": "0x2910543Af39abA0Cd09dBb2D50200b3E800A63D2",
      "gasPrice": {
        "_hex": "0xd21100f4f"
      },
      "gasLimit": {
        "_hex": "0x5208"
      },
      "to": "0x8e3de0b351bc598C3f4f61Da7D3AE3251d3aC36e",
      "value": {
        "_hex": "0xdcef33a6f838000"
      },
      "nonce": 439,
      "data": "0x",
      "r": "0xba2910f5159e7d7aba4fb042129ccc26b89c735964791840c8b6924ea8db546b",
      "s": "0x39ca7734d301dd9178ca14cb2c4bc6444496b86bb99b6a9e6975008fdd19d7ff",
      "v": 27,
      "creates": null,
      "raw": "0xf86e8201b7850d21100f4f825208948e3de0b351bc598c3f4f61da7d3ae3251d3ac36e880dcef33a6f838000801ba0ba2910f5159e7d7aba4fb042129ccc26b89c735964791840c8b6924ea8db546ba039ca7734d301dd9178ca14cb2c4bc6444496b86bb99b6a9e6975008fdd19d7ff",
      "networkId": 0,
      "chainId": 0
    }
  ]
}