{
  "hash": "0x3d4fd3eda858b90658c3b7eee1ec6eaf9ee7b1c1365bb3a74c0d5703c188ceeb",
  "parentHash": "0x21959044c4f1881eaccc0f16d1d8668f4abf8205544d5ba447942551b79e866c",
  "number": 47981,
  "timestamp": 1438949367,
  "nonce": "0x5dd940f73a232b88",
  "difficulty": 1460814279049,
  "gasLimit": {
    "_hex": "0x112fd"
  },
  "gasUsed": {
    "_hex": "0x546c"
  },
  "miner": "0xbb7B8287f3F0a933474a79eAe42CBCa977791171",
  "extraData": "0x476574682f4c5649562f76312e302e312f6c696e75782f676f312e342e32",
  "transactions": [
    {
      "hash": "0xd898bf55d49a2fd4cd4f61a9935e7bde4cd27ff36949cd7358e55e28c8367020",
      "blockHash": "0x3d4fd3eda858b90658c3b7eee1ec6eaf9ee7b1c1365bb3a74c0d5703c188ceeb",
      "blockNumber": 47981,
      "transactionIndex": 0,
      "confirmations": null,
      "from": "0x3DfCf2bF579C831a03379a140b74f884e49CaFf3",
      "gasPrice": {
        "_hex": "0xdcd942005"
      },
      "gasLimit": {
        "_hex": "0x61a8"
      },
      "to": "0x2910543Af39abA0Cd09dBb2D50200b3E800A63D2",
      "value": {
        "_hex": "0x4563918244f40000"
      },
      "nonce": 1,
      "data": "0x454e37415942575838",
      "r": "0x487d18389606411826f2cd1ae6766ab7b9f36e8aa29be7e0e3291da330b6d041",
      "s": "0x3ef3d8bd31d99b2c209b832c29782207f1d1501e13e276ca57fb46f6d49bacfe",
      "v": 27,
      "creates": null,
      "raw": "0xf87501850dcd9420058261a8942910543af39aba0cd09dbb2d50200b3e800a63d2884563918244f4000089454e374159425758381ba0487d18389606411826f2cd1ae6766ab7b9f36e8aa29be7e0e3291da330b6d041a03ef3d8bd31d99b2c209b832c29782207f1d1501e13e276ca57fb46f6d49bacfe",
      "networkId": 0,
      "chainId": 0
    }
  ]
}