{
  "hash": "0x0349c9463441b88b7e6138ea134d2ef70b5b17544cc56c17827fec6dcdb518b1",
  "parentHash": "0x4b33fe19fdb858897c5c18d330c65b777aa08eaa46780788aeacc2be23bccb4b",
  "number": 111566,
  "timestamp": 1439992497,
  "nonce": "0x9008f9940fc48b18",
  "difficulty": 4424409514513,
  "gasLimit": {
    "_hex": "0x2fefd8"
  },
  "gasUsed": {
    "_hex": "0x5208"
  },
  "miner": "0x580992B51e3925e23280EfB93d3047C82f17E038",
  "extraData": "0x476574682f76312e302e312f6c696e75782f676f312e342e32",
  "transactions": [
    {
      "hash": "0x299cce41b438a37baf68380c999c193e72929ca9a3d94217f16d82781d6205c2",
      "blockHash": "0x0349c9463441b88b7e6138ea134d2ef70b5b17544cc56c17827fec6dcdb518b1",
      "blockNumber": 111566,
      "transactionIndex": 0,
      "confirmations": null,
      "from": "0x576F13DdEd1f2AD6B9D55EE8A1B67815ee7C92d9",
      "gasPrice": {
        "_hex": "0xe06b9bd40"
      },
      "gasLimit": {
        "_hex": "0x5208"
      },
      "to": "0x32Be343B94f860124dC4fEe278FDCBD38C102D88",
      "value": {
        "_hex": "0x6ebdcc46faed000"
      },
      "nonce": 3,
      "data": "0x",
      "r": "0x9bfaa2dafe0f08010407aabb78a5d0675d08546b649d2427b77c7c85fd76a5eb",
      "s": "0x769b5561d59507bd12fc6986ea3e231fb87ef235a8722308f234f15c29b5edc1",
      "v": 27,
      "creates": null,
      "raw": "0xf86c03850e06b9bd408252089432be343b94f860124dc4fee278fdcbd38c102d888806ebdcc46faed000801ba09bfaa2dafe0f08010407aabb78a5d0675d08546b649d2427b77c7c85fd76a5eba0769b5561d59507bd12fc6986ea3e231fb87ef235a8722308f234f15c29b5edc1",
      "networkId": 0,
      "chainId": 0
    }
  ]
}