{
  "hash": "0x516dad6449d1ec2b989f5a797f95c57841ef4058e7065ec13f37e14e44fb29fd",
  "parentHash": "0x0dd5641731f0f23ad6eb02c7a896cde04641b0fe51b3b49231e6eb4bcfab65ae",
  "number": 104184,
  "timestamp": 1439865727,
  "nonce": "0x58ddde03637836aa",
  "difficulty": 4262819897517,
  "gasLimit": {
    "_hex": "0x2fefd8"
  },
  "gasUsed": {
    "_hex": "0x5208"
  },
  "miner": "0x9Fa9952255B2b06639A04D63804d4BdFFf6E2d7e",
  "extraData": "0x476574682f76312e302e312f77696e646f77732f676f312e342e32",
  "transactions": [
    {
      "hash": "0x2709fc244c56fb53e59b96807d3d342135cbf3c216e005d25c91b266c3ce5f02",
      "blockHash": "0x516dad6449d1ec2b989f5a797f95c57841ef4058e7065ec13f37e14e44fb29fd",
      "blockNumber": 104184,
      "transactionIndex": 0,
      "confirmations": null,
      "from": "0x7147dFfD3d08ad00917cFEa2b60188439944990b",
      "gasPrice": {
        "_hex": "0xdc4d5afa5"
      },
      "gasLimit": {
        "_hex": "0x5208"
      },
      "to": "0x32Be343B94f860124dC4fEe278FDCBD38C102D88",
      "value": {
        "_hex": "0xddc4d37ef231000"
      },
      "nonce": 2,
      "data": "0x",
      "r": "0x7f5f594160f349f7b66202e110073d0658c0002e4d1aa5b0db5a4025a1789023",
      "s": "0x51b1983274804801817188bb748ee43a875b2ea859135daa40f45686a3ed97d7",
      "v": 28,
      "creates": null,
      "raw": "0xf86c02850dc4d5afa58252089432be343b94f860124dc4fee278fdcbd38c102d88880ddc4d37ef231000801ca07f5f594160f349f7b66202e110073d0658c0002e4d1aa5b0db5a4025a1789023a051b1983274804801817188bb748ee43a875b2ea859135daa40f45686a3ed97d7",
      "networkId": 0,
      "chainId": 0
    }
  ]
}