{
  "hash": "0xf6713186f5bbb11e58195d816e716fb24c833878c93de98dd8eecc0803a0a065",
  "parentHash": "0xd3cfff50adc34e8115999908723de00effd899df6b961addb4aab067ac218559",
  "number": 84553,
  "timestamp": 1439551301,
  "nonce": "0x0b7378dfdb6a1a4b",
  "difficulty": 2572676580584,
  "gasLimit": {
    "_hex": "0x2fefd8"
  },
  "gasUsed": {
    "_hex": "0xf87c"
  },
  "miner": "0xe6A7a1d47ff21B6321162AEA7C6CB457D5476Bca",
  "extraData": "0x476574682f76312e302e312d38326566323666362f6c696e75782f676f312e34",
  "transactions": [
    {
      "hash": "0x873128214cb09a2a881805bbc58beab29fa6e1aa6f78c91a30ee4258698b9f5c",
      "blockHash": "0xf6713186f5bbb11e58195d816e716fb24c833878c93de98dd8eecc0803a0a065",
      "blockNumber": 84553,
      "transactionIndex": 0,
      "confirmations": null,
      "from": "0x285B048CC4cB946abCF3eF11aDe982C36946AF18",
      "gasPrice": {
        "_hex": "0xd565fcb88"
      },
      "gasLimit": {
        "_hex": "0x5208"
      },
      "to": "0x32Be343B94f860124dC4fEe278FDCBD38C102D88",
      "value": {
        "_hex": "0x455f4b6c51796000"
      },
      "nonce": 12,
      "data": "0x",
      "r": "0xe56d33e223c9efb5fda51e9bcd5f97904c04bcf7fd8cf3806fcb752f4f9bdc3a",
      "s": "0x3499f02c14dbee45973138dad6e62e86129931f6f696b279b83fc8da07122cec",
      "v": 27,
      "creates": null,
      "raw": "0xf86c0c850d565fcb888252089432be343b94f860124dc4fee278fdcbd38c102d8888455f4b6c51796000801ba0e56d33e223c9efb5fda51e9bcd5f97904c04bcf7fd8cf3806fcb752f4f9bdc3aa03499f02c14dbee45973138dad6e62e86129931f6f696b279b83fc8da07122cec",
      "networkId": 0,
      "chainId": 0
    },
    {
      "hash": "0x3f75d2e526d7a8ce6b166d7056c1a73c7b35ea52fe608f6a31d58f18dee7de9a",
      "blockHash": "0xf6713186f5bbb11e58195d816e716fb24c833878c93de98dd8eecc0803a0a065",
      "blockNumber": 84553,
      "transactionIndex": 1,
      "confirmations": null,
      "from": "0x1d87a52adE811D169DCdd8535e2CbdcC540237fC",
      "gasPrice": {
        "_hex": "0xd565fcb88"
      },
      "gasLimit": {
        "_hex": "0x5208"
      },
      "to": "0x32Be343B94f860124dC4fEe278FDCBD38C102D88",
      "value": {
        "_hex": "0x18f69c60a0396000"
      },
      "nonce": 0,
      "data": "0x",
      "r": "0xc5519146c389c892db2d9f49c25ec2754d31e9a354736741e347c99945f21c0d",
      "s": "0x2b8d3ed8f9526f6f25a4c66461c346e1523f3a23bf03deaa45e2f364d285de16",
      "v": 28,
      "creates": null,
      "raw": "0xf86c80850d565fcb888252089432be343b94f860124dc4fee278fdcbd38c102d888818f69c60a0396000801ca0c5519146c389c892db2d9f49c25ec2754d31e9a354736741e347c99945f21c0da02b8d3ed8f9526f6f25a4c66461c346e1523f3a23bf03deaa45e2f364d285de16",
      "networkId": 0,
      "chainId": 0
    },
    {
      "hash": "0x55a0429c0e8bbb48878ea490412c3eeac713ac53d80f89ffc2bffdc158e018c2",
      "blockHash": "0xf6713186f5bbb11e58195d816e716fb24c833878c93de98dd8eecc0803a0a065",
      "blockNumber": 84553,
      "transactionIndex": 2,
      "confirmations": null,
      "from": "0x6CE13F1816a2cFab76C59714291Cb8403CbBB3D8",
      "gasPrice": {
        "_hex": "0xd7d40ace3"
      },
      "gasLimit": {
        "_hex": "0x55f0"
      },
      "to": "0x2910543Af39abA0Cd09dBb2D50200b3E800A63D2",
      "value": {
        "_hex": "0x2f2f39fc6c540000"
      },
      "nonce": 2,
      "data": "0x454e37513531443138",
      "r": "0x9d8218c124708ab1fca1c5e082001372cd88eab60053654abfc14e12a88a3cfd",
      "s": "0x3d61fe558fb8ba95065aa260af9247d6bb845378c73fc2dd968e76eb9443375d",
      "v": 28,
      "creates": null,
      "raw": "0xf87502850d7d40ace38255f0942910543af39aba0cd09dbb2d50200b3e800a63d2882f2f39fc6c54000089454e375135314431381ca09d8218c124708ab1fca1c5e082001372cd88eab60053654abfc14e12a88a3cfda03d61fe558fb8ba95065aa260af9247d6bb845378c73fc2dd968e76eb9443375d",
      "networkId": 0,
      "chainId": 0
    }
  ]
}