{
  "hash": "0x1a4de59509e7b346448f9dbf8980cd16551cad50a8303d51c4863d18dd3ed70c",
  "parentHash": "0x4a706af73258d519fa18d66d39eba7501f31a50475a39678fc23d37db80aef0e",
  "number": 48600,
  "timestamp": 1438959699,
  "nonce": "0xe4e6b09c7db32f7e",
  "difficulty": 1468573188317,
  "gasLimit": {
    "_hex": "0x1a46f"
  },
  "gasUsed": {
    "_hex": "0x5208"
  },
  "miner": "0xe6A7a1d47ff21B6321162AEA7C6CB457D5476Bca",
  "extraData": "0x657468706f6f6c2e6f7267",
  "transactions": [
    {
      "hash": "0x7f1c425d5062aaf917b614dc42df97aa441a47407942888d70e6ae13333f405e",
      "blockHash": "0x1a4de59509e7b346448f9dbf8980cd16551cad50a8303d51c4863d18dd3ed70c",
      "blockNumber": 48600,
      "transactionIndex": 0,
      "confirmations": null,
      "from": "0x9c344098BA615A398F11D009905b177C44a7b602",
      "gasPrice": {
        "_hex": "0x10ade77068e"
      },
      "gasLimit": {
        "_hex": "0x15f90"
      },
      "to": "0x2910543Af39abA0Cd09dBb2D50200b3E800A63D2",
      "value": {
        "_hex": "0x4563918244f40000"
      },
      "nonce": 1,
      "data": "0x",
      "r": "0x1d3b0a7772385d73025ad1a36a594029f1296025d13c5ba9caf408d7e08a0d4a",
      "s": "0x2157a87c3d1ea5a6106775ebad6ea64d2e3c2fef855f35f1ce8e1c4750de75ad",
      "v": 27,
      "creates": null,
      "raw": "0xf86e0186010ade77068e83015f90942910543af39aba0cd09dbb2d50200b3e800a63d2884563918244f40000801ba01d3b0a7772385d73025ad1a36a594029f1296025d13c5ba9caf408d7e08a0d4aa02157a87c3d1ea5a6106775ebad6ea64d2e3c2fef855f35f1ce8e1c4750de75ad",
      "networkId": 0,
      "chainId": 0
    }
  ]
}