{
  "hash": "0xc996296f18b3d030c2d95c51d3dab981408c94ce4153d181e4afaf80becd354b",
  "parentHash": "0xf1fa30ed7548247602410f947344f941f597af439cfa2d84aae4f9e3c3179657",
  "number": 93499,
  "timestamp": 1439691588,
  "nonce": "0xc23dfa1b06594ae9",
  "difficulty": 3498989302192,
  "gasLimit": {
    "_hex": "0x2fefd8"
  },
  "gasUsed": {
    "_hex": "0x5208"
  },
  "miner": "0x0eDEd3DA479d0beF8eeC92A76644D3f4E3C177f7",
  "extraData": "0x476574682f76312e302e312f6c696e75782f676f312e342e32",
  "transactions": [
    {
      "hash": "0x69d438701fe6d84d6191e5a7560cfcf273c7ee077cfc0b804637dceb8ef1b2ac",
      "blockHash": "0xc996296f18b3d030c2d95c51d3dab981408c94ce4153d181e4afaf80becd354b",
      "blockNumber": 93499,
      "transactionIndex": 0,
      "confirmations": null,
      "from": "0x4Eaf4CaDd87499C20bA3412B1D222f9a72DA7AFF",
      "gasPrice": {
        "_hex": "0xd02884c4c"
      },
      "gasLimit": {
        "_hex": "0x5208"
      },
      "to": "0x32Be343B94f860124dC4fEe278FDCBD38C102D88",
      "value": {
        "_hex": "0x821aaca90927380000"
      },
      "nonce": 3,
      "data": "0x",
      "r": "0xf879a7fe2c6c2f56f5ba0d5f0db53bae42a027b509a9d72cb6dc041ce231134e",
      "s": "0x25e8163ca3b4456dbe5d728ef99621c1649113d1577988108efa54318f307462",
      "v": 28,
      "creates": null,
      "raw": "0xf86d03850d02884c4c8252089432be343b94f860124dc4fee278fdcbd38c102d8889821aaca90927380000801ca0f879a7fe2c6c2f56f5ba0d5f0db53bae42a027b509a9d72cb6dc041ce231134ea025e8163ca3b4456dbe5d728ef99621c1649113d1577988108efa54318f307462",
      "networkId": 0,
      "chainId": 0
    }
  ]
}