{
  "hash": "0x473721fb0f1d9ee4f7a3323070d1d47168189ce73762b1f70d78df9485cb598c",
  "parentHash": "0x9da79d119160a58ef92bbf1e982c0e79e6af170ee9ee9057053c5392bd8d99bb",
  "number": 46271,
  "timestamp": 1438920339,
  "nonce": "0x4026ce5d9a55c109",
  "difficulty": 1462539657680,
  "gasLimit": {
    "_hex": "0x576c"
  },
  "gasUsed": {
    "_hex": "0x5208"
  },
  "miner": "0x035052044374B3607Fc995a2460f096a5c5c0184",
  "extraData": "0x476574682f76312e302e312f6c696e75782f676f312e342e32",
  "transactions": [
    {
      "hash": "0x6a749df68169beccb1a548f75d68badcba816c2ad142f6aa1c0129ae30f36d04",
      "blockHash": "0x473721fb0f1d9ee4f7a3323070d1d47168189ce73762b1f70d78df9485cb598c",
      "blockNumber": 46271,
      "transactionIndex": 0,
      "confirmations": null,
      "from": "0x762998E1D75227fcEd7a70Be109a4C0B4eD86414",
      "gasPrice": {
        "_hex": "0x22ecb25c00"
      },
      "gasLimit": {
        "_hex": "0x5208"
      },
      "to": "0x9E0Afd592B1e40BEe26816E360f02eebF04aD74B",
      "value": {
        "_hex": "0x9536c708910000"
      },
      "nonce": 2,
      "data": "0x",
      "r": "0x1165c05580202bb4f7d9f2a943a9ca34d4cd7f5ec15c584c559e100f0a085df1",
      "s": "0x2ff810676175117626ba7851f3f2f6cc79d4c93e09d08d3b026be03d9c8e426f",
      "v": 27,
      "creates": null,
      "raw": "0xf86b028522ecb25c00825208949e0afd592b1e40bee26816e360f02eebf04ad74b879536c708910000801ba01165c05580202bb4f7d9f2a943a9ca34d4cd7f5ec15c584c559e100f0a085df1a02ff810676175117626ba7851f3f2f6cc79d4c93e09d08d3b026be03d9c8e426f",
      "networkId": 0,
      "chainId": 0
    }
  ]
}