{
  "hash": "0xeca357523574c0bdefd5b76c4c2f8cb9a6befc095ed9c210be62ea3aaf2b278c",
  "parentHash": "0x4bfb98d41bc45fcbba9311fb5794061ed87da63e19be0ba40e50e18ca728942c",
  "number": 105882,
  "timestamp": 1439894967,
  "nonce": "0x4c06c1aac7b98b24",
  "difficulty": 4453426445548,
  "gasLimit": {
    "_hex": "0x2fefd8"
  },
  "gasUsed": {
    "_hex": "0x8f9f"
  },
  "miner": "0xe6A7a1d47ff21B6321162AEA7C6CB457D5476Bca",
  "extraData": "0x476574682f76312e302e312d38326566323666362f6c696e75782f676f312e34",
  "transactions": [
    {
      "hash": "0x4fc26a6eee5efa5226ed0fb483fbf4c18e9dcfebf859307d88855041947846e1",
      "blockHash": "0xeca357523574c0bdefd5b76c4c2f8cb9a6befc095ed9c210be62ea3aaf2b278c",
      "blockNumber": 105882,
      "transactionIndex": 0,
      "confirmations": null,
      "from": "0x87C5B5874A18B4306DF8a752a6C8cc3E82daFc19",
      "gasPrice": {
        "_hex": "0x106e7dca692"
      },
      "gasLimit": {
        "_hex": "0x493e0"
      },
      "to": "0xD79B4C6791784184e2755B2fC1659eaaB0f80456",
      "value": {
        "_hex": "0x21a8c3eb8e99b729"
      },
      "nonce": 288,
      "data": "0x8d2161860000000000000000000000000000000000000000000000000000000000000007d3d96ceed0cfca4794c2a5a3d3aeefe69da0a2a669e66a5651f30b64831c3db0",
      "r": "0x5fffa7f104d8ab1b4d32bff5c1982a38439c400a16f245c4f1a24fe9305ce196",
      "s": "0x608ce76e07c2b39ca70d7cf7e3f3a1660945f41924511b68c8cf8c4bf5e6e5b4",
      "v": 27,
      "creates": null,
      "raw": "0xf8b5820120860106e7dca692830493e094d79b4c6791784184e2755b2fc1659eaab0f804568821a8c3eb8e99b729b8448d2161860000000000000000000000000000000000000000000000000000000000000007d3d96ceed0cfca4794c2a5a3d3aeefe69da0a2a669e66a5651f30b64831c3db01ba05fffa7f104d8ab1b4d32bff5c1982a38439c400a16f245c4f1a24fe9305ce196a0608ce76e07c2b39ca70d7cf7e3f3a1660945f41924511b68c8cf8c4bf5e6e5b4",
      "networkId": 0,
      "chainId": 0
    }
  ]
}