{
  "hash": "0x31102887a680cdfbec3a9a3b39e4c26ec2f01038ddf3c9542929ef00b03b1977",
  "parentHash": "0x9e32430264b6aa568c281deccb90fa5d873feb45e156767ccdf6809f93ab128e",
  "number": 114427,
  "timestamp": 1440040051,
  "nonce": "0xae9692c669cf62c4",
  "difficulty": 4512337453079,
  "gasLimit": {
    "_hex": "0x2fefd8"
  },
  "gasUsed": {
    "_hex": "0x5208"
  },
  "miner": "0xaB638742EBe3A78F2a85028350e1AADB86C0a6ed",
  "extraData": "0x",
  "transactions": [
    {
      "hash": "0xc547be59b041447114e015455f3961ab699c10b3b6189198237bf6d4f7e274cc",
      "blockHash": "0x31102887a680cdfbec3a9a3b39e4c26ec2f01038ddf3c9542929ef00b03b1977",
      "blockNumber": 114427,
      "transactionIndex": 0,
      "confirmations": null,
      "from": "0x120A270bbC009644e35F0bB6ab13f95b8199c4ad",
      "gasPrice": {
        "_hex": "0xd19514e42"
      },
      "gasLimit": {
        "_hex": "0x3d090"
      },
      "to": "0xA1C2778bD875155d371Aa3dB27348c40Deaf7a9D",
      "value": {
        "_hex": "0x56bc75e2d63100000"
      },
      "nonce": 929,
      "data": "0x",
      "r": "0xe180a6b044c39bfac19b0157acf72a6aa917d8e2e451adca9bacaa1ae7841c59",
      "s": "0x4677857e9530d286d222579011fba69cc7f77b92a25447dd6a027b890b960b0e",
      "v": 27,
      "creates": null,
      "raw": "0xf8708203a1850d19514e428303d09094a1c2778bd875155d371aa3db27348c40deaf7a9d89056bc75e2d63100000801ba0e180a6b044c39bfac19b0157acf72a6aa917d8e2e451adca9bacaa1ae7841c59a04677857e9530d286d222579011fba69cc7f77b92a25447dd6a027b890b960b0e",
      "networkId": 0,
      "chainId": 0
    }
  ]
}