{
  "hash": "0xaf8b2caa207b44e4d25de7d805b4c80c32010f2d4af92901fc749199b16dec32",
  "parentHash": "0x38e2840f983850b97b7b83e7a0573f3bb2a8dfa8432f304bd764f6645cf7e2df",
  "number": 69185,
  "timestamp": 1439299599,
  "nonce": "0x19ad73a1cba019cf",
  "difficulty": 2064935790173,
  "gasLimit": {
    "_hex": "0x2fefd8"
  },
  "gasUsed": {
    "_hex": "0x5208"
  },
  "miner": "0x5e1a72dde3Ffc20B77eA8382E916EF04C89ff2Bd",
  "extraData": "0x476574682f76312e302e302f77696e646f77732f676f312e342e32",
  "transactions": [
    {
      "hash": "0x6baea01d12caf65feaebeb0aee141e0a7a995adc6adf37b62f4f9c0b66683ecd",
      "blockHash": "0xaf8b2caa207b44e4d25de7d805b4c80c32010f2d4af92901fc749199b16dec32",
      "blockNumber": 69185,
      "transactionIndex": 0,
      "confirmations": null,
      "from": "0x2910543Af39abA0Cd09dBb2D50200b3E800A63D2",
      "gasPrice": {
        "_hex": "0xdac7fb50d"
      },
      "gasLimit": {
        "_hex": "0x5208"
      },
      "to": "0x8bae48F227d978d084B009b775222BAaF61ed9fe",
      "value": {
        "_hex": "0xdcef33a6f838000"
      },
      "nonce": 220,
      "data": "0x",
      "r": "0xb67246554ff6e0b6154f4d5d681625af90e0011ec229e293a8c6cfde86943449",
      "s": "0x3bd67b8a8cedfb5f960793f33cd480a72ada1c075789d8dfd7af9d0b2c3758d0",
      "v": 28,
      "creates": null,
      "raw": "0xf86d81dc850dac7fb50d825208948bae48f227d978d084b009b775222baaf61ed9fe880dcef33a6f838000801ca0b67246554ff6e0b6154f4d5d681625af90e0011ec229e293a8c6cfde86943449a03bd67b8a8cedfb5f960793f33cd480a72ada1c075789d8dfd7af9d0b2c3758d0",
      "networkId": 0,
      "chainId": 0
    }
  ]
}