{
  "hash": "0x27e7af548d4ba5af3d6cd7e30753ade7d27536cdf71fb9c185dd956c3e35ef7a",
  "parentHash": "0x377d13376352da72e11aa2f984b7cdee2fb0361f6674bd2d1ae975ab35155add",
  "number": 113434,
  "timestamp": 1440023476,
  "nonce": "0xfa4ece689cfd4313",
  "difficulty": 4462473491145,
  "gasLimit": {
    "_hex": "0x2fefd8"
  },
  "gasUsed": {
    "_hex": "0x5208"
  },
  "miner": "0x9D0B366c06Bdb8D00C9Ab617db64B505f9e05d79",
  "extraData": "0x476574682f76312e302e312d38326566323666362f6c696e75782f676f312e34",
  "transactions": [
    {
      "hash": "0x808e04b72a92b0a7ffb16b08332e8b6c7e0f81d7d39c55db634c08ee0ce543d8",
      "blockHash": "0x27e7af548d4ba5af3d6cd7e30753ade7d27536cdf71fb9c185dd956c3e35ef7a",
      "blockNumber": 113434,
      "transactionIndex": 0,
      "confirmations": null,
      "from": "0x65553f5e8FA2eDfCe37Aec51A90ed28777dDe402",
      "gasPrice": {
        "_hex": "0xda4f4c04e"
      },
      "gasLimit": {
        "_hex": "0x5208"
      },
      "to": "0xFBb1b73C4f0BDa4f67dcA266ce6Ef42f520fBB98",
      "value": {
        "_hex": "0x2be4f7ba9a6577d90"
      },
      "nonce": 6,
      "data": "0x",
      "r": "0x79eb3fb4fb434d76bb82b98bd3b960a4a5fad1bc039b0507a29dc68a1858f402",
      "s": "0x2c4db1a371eb0d7875f86eff1e418d18cc594e6e768e01a85d1405a8282e925b",
      "v": 28,
      "creates": null,
      "raw": "0xf86d06850da4f4c04e82520894fbb1b73c4f0bda4f67dca266ce6ef42f520fbb988902be4f7ba9a6577d90801ca079eb3fb4fb434d76bb82b98bd3b960a4a5fad1bc039b0507a29dc68a1858f402a02c4db1a371eb0d7875f86eff1e418d18cc594e6e768e01a85d1405a8282e925b",
      "networkId": 0,
      "chainId": 0
    }
  ]
}