{
  "hash": "0x3d88f2c1c81bf7a98574b40fc05038cc51e989215a5e446d38254c90ad0c2f63",
  "parentHash": "0x2c081630f2ee25c642276170e74e6b8d5c38954f031e3c4e8306f260aa2be8c6",
  "number": 104220,
  "timestamp": 1439866228,
  "nonce": "0xfc1d6c954adb2866",
  "difficulty": 4279485738589,
  "gasLimit": {
    "_hex": "0x2fefd8"
  },
  "gasUsed": {
    "_hex": "0x5208"
  },
  "miner": "0xe343732D1eA6921c73683B947937AC902b77aD4f",
  "extraData": "0x476574682f76312e302e312f6c696e75782f676f312e342e32",
  "transactions": [
    {
      "hash": "0x5a989773d7cf930d8eb575d44cb6ed71cb7ef4d10b36338454d2454e0382f328",
      "blockHash": "0x3d88f2c1c81bf7a98574b40fc05038cc51e989215a5e446d38254c90ad0c2f63",
      "blockNumber": 104220,
      "transactionIndex": 0,
      "confirmations": null,
      "from": "0xE12517204a15E890f12755207271102F4800A0c4",
      "gasPrice": {
        "_hex": "0xd19787e5e"
      },
      "gasLimit": {
        "_hex": "0x5208"
      },
      "to": "0x32Be343B94f860124dC4fEe278FDCBD38C102D88",
      "value": {
        "_hex": "0x2b5df87271406c000"
      },
      "nonce": 16,
      "data": "0x",
      "r": "0x7f29fcc51c56b042244fbcfd45d44ba4de7e99f18abe13b99873be80e77a36d4",
      "s": "0x757ff7efe0f4a86a7cd7e61d3a7aa633994ec05690e032a19c3e8e9ba9325e64",
      "v": 27,
      "creates": null,
      "raw": "0xf86d10850d19787e5e8252089432be343b94f860124dc4fee278fdcbd38c102d888902b5df87271406c000801ba07f29fcc51c56b042244fbcfd45d44ba4de7e99f18abe13b99873be80e77a36d4a0757ff7efe0f4a86a7cd7e61d3a7aa633994ec05690e032a19c3e8e9ba9325e64",
      "networkId": 0,
      "chainId": 0
    }
  ]
}