{
  "hash": "0x0ca2e0355450c655f46968f4009111665d7261dd4aa09b0332c58bf89a7f93a3",
  "parentHash": "0xd36e99dbc1dbecd390d941cb9cfb0fac30e15165eafaa11aa664a3176373d31e",
  "number": 82294,
  "timestamp": 1439516952,
  "nonce": "0x1aa849bb319a6572",
  "difficulty": 2376493951102,
  "gasLimit": {
    "_hex": "0x2fefd8"
  },
  "gasUsed": {
    "_hex": "0x19a28"
  },
  "miner": "0xe6A7a1d47ff21B6321162AEA7C6CB457D5476Bca",
  "extraData": "0x476574682f76312e302e312d38326566323666362f6c696e75782f676f312e34",
  "transactions": [
    {
      "hash": "0xc03df48dee84c59400d373a01915f49e7d0635bfe444d07aa9368efd0780365f",
      "blockHash": "0x0ca2e0355450c655f46968f4009111665d7261dd4aa09b0332c58bf89a7f93a3",
      "blockNumber": 82294,
      "transactionIndex": 0,
      "confirmations": null,
      "from": "0x003a6CefcD4377033674d8A80ddBFb3596BD13DD",
      "gasPrice": {
        "_hex": "0x9184e72a000"
      },
      "gasLimit": {
        "_hex": "0x9965e"
      },
      "to": "0xA80A8ecbF729C98404eE20b39945Ad8DEBd08C61",
      "value": {
        "_hex": "0x16345785d8a0000"
      },
      "nonce": 0,
      "data": "0x",
      "r": "0x282baedf4cbbe927fb63de134f70e4bd0c2b2014bb0aa32972f024096d9eef7e",
      "s": "0x7efac458515a59737126f00311c21e64d898f0b59c85170d72795fa76c8e478d",
      "v": 27,
      "creates": null,
      "raw": "0xf86e808609184e72a0008309965e94a80a8ecbf729c98404ee20b39945ad8debd08c6188016345785d8a0000801ba0282baedf4cbbe927fb63de134f70e4bd0c2b2014bb0aa32972f024096d9eef7ea07efac458515a59737126f00311c21e64d898f0b59c85170d72795fa76c8e478d",
      "networkId": 0,
      "chainId": 0
    },
    {
      "hash": "0x1a642a61b0062ffbceb951c6ceb6c08425852a4aa3601e32dba8a746c82afcab",
      "blockHash": "0x0ca2e0355450c655f46968f4009111665d7261dd4aa09b0332c58bf89a7f93a3",
      "blockNumber": 82294,
      "transactionIndex": 1,
      "confirmations": null,
      "from": "0x4E35be1c5dEe94A847D50307170230e640152575",
      "gasPrice": {
        "_hex": "0xe30e730c2"
      },
      "gasLimit": {
        "_hex": "0x15f90"
      },
      "to": "0xc597A5d92F5dC1137D847db733cfe02c6d209f13",
      "value": {
        "_hex": "0x11551e0a022a18000"
      },
      "nonce": 0,
      "data": "0x",
      "r": "0x5b23e906913e09ec2f318ab3258745562d015f5856d898cc7274f313002cd487",
      "s": "0x192eb967ed98fc367f860b94aae337e9484876bab95568ca7623dc20a4cff208",
      "v": 28,
      "creates": null,
      "raw": "0xf86e80850e30e730c283015f9094c597a5d92f5dc1137d847db733cfe02c6d209f1389011551e0a022a18000801ca05b23e906913e09ec2f318ab3258745562d015f5856d898cc7274f313002cd487a0192eb967ed98fc367f860b94aae337e9484876bab95568ca7623dc20a4cff208",
      "networkId": 0,
      "chainId": 0
    },
    {
      "hash": "0xa3403fb3600fb044fedb5bf63c882037608468421a0ab5f656d7b5bf95189a4b",
      "blockHash": "0x0ca2e0355450c655f46968f4009111665d7261dd4aa09b0332c58bf89a7f93a3",
      "blockNumber": 82294,
      "transactionIndex": 2,
      "confirmations": null,
      "from": "0xB48CB04D046210A9F58175Ad35FCe298428e0969",
      "gasPrice": {
        "_hex": "0xe30e730c2"
      },
      "gasLimit": {
        "_hex": "0x15f90"
      },
      "to": "0xc597A5d92F5dC1137D847db733cfe02c6d209f13",
      "value": {
        "_hex": "0xa660d177756df450"
      },
      "nonce": 2,
      "data": "0x",
      "r": "0xbd4b21d6943ee4a5298f0bd55ffc2c97eee79af21359ac239c2953af83b239f6",
      "s": "0x09fcbe29e5ccb96d1881dd6028f4a53d3c33188efde79abae1f014bddf8b2dc5",
      "v": 27,
      "creates": null,
      "raw": "0xf86d02850e30e730c283015f9094c597a5d92f5dc1137d847db733cfe02c6d209f1388a660d177756df450801ba0bd4b21d6943ee4a5298f0bd55ffc2c97eee79af21359ac239c2953af83b239f6a009fcbe29e5ccb96d1881dd6028f4a53d3c33188efde79abae1f014bddf8b2dc5",
      "networkId": 0,
      "chainId": 0
    },
    {
      "hash": "0xaa940a9aa0e52542d067d297dbe45f38cc0c2d0e331f6d667a6070221b8239bc",
      "blockHash": "0x0ca2e0355450c655f46968f4009111665d7261dd4aa09b0332c58bf89a7f93a3",
      "blockNumber": 82294,
      "transactionIndex": 3,
      "confirmations": null,
      "from": "0x4835b2f84407499A34fE1240dd3148257bFa9E87",
      "gasPrice": {
        "_hex": "0xe30e730c2"
      },
      "gasLimit": {
        "_hex": "0x15f90"
      },
      "to": "0xc597A5d92F5dC1137D847db733cfe02c6d209f13",
      "value": {
        "_hex": "0xddcf05d185117c18"
      },
      "nonce": 0,
      "data": "0x",
      "r": "0x726b985f2d55381080d17e453c19b483ef802f6c397f006ce1de1ff4df6c61ae",
      "s": "0x61ea64126a1e3c4a95bfd98623caa2eeeea4e5ec5cb3ef6c856f49364f359e12",
      "v": 28,
      "creates": null,
      "raw": "0xf86d80850e30e730c283015f9094c597a5d92f5dc1137d847db733cfe02c6d209f1388ddcf05d185117c18801ca0726b985f2d55381080d17e453c19b483ef802f6c397f006ce1de1ff4df6c61aea061ea64126a1e3c4a95bfd98623caa2eeeea4e5ec5cb3ef6c856f49364f359e12",
      "networkId": 0,
      "chainId": 0
    },
    {
      "hash": "0xfb0bec8310bbe07a9fc6fbed46da2bb4a9387c105b2c80bb40ac54e4399c2488",
      "blockHash": "0x0ca2e0355450c655f46968f4009111665d7261dd4aa09b0332c58bf89a7f93a3",
      "blockNumber": 82294,
      "transactionIndex": 4,
      "confirmations": null,
      "from": "0x654C5Ab883F5816f49a6E6548452520ce62a047d",
      "gasPrice": {
        "_hex": "0xe30e730c2"
      },
      "gasLimit": {
        "_hex": "0x15f90"
      },
      "to": "0xc597A5d92F5dC1137D847db733cfe02c6d209f13",
      "value": {
        "_hex": "0x1ba09ab3be54c040"
      },
      "nonce": 1,
      "data": "0x",
      "r": "0x47b6a6b3fdc3bc0d1635cc5b2bdc51218dcc5d1f2947fc0c4c260ebc8887f651",
      "s": "0x1c483cd1e8e79c276eece9baff6635fa7202e4f2a56d3d158a717530e6d826c2",
      "v": 28,
      "creates": null,
      "raw": "0xf86d01850e30e730c283015f9094c597a5d92f5dc1137d847db733cfe02c6d209f13881ba09ab3be54c040801ca047b6a6b3fdc3bc0d1635cc5b2bdc51218dcc5d1f2947fc0c4c260ebc8887f651a01c483cd1e8e79c276eece9baff6635fa7202e4f2a56d3d158a717530e6d826c2",
      "networkId": 0,
      "chainId": 0
    }
  ]
}