{
  "hash": "0x7eb2c92466ca817ec65fb041c8e18fab28ad4135bbedd3175387be9402dd1982",
  "parentHash": "0x6c3aca73981c93e1ff2c3c4df317e432599a43d8ff929940daa220bb5ff1d1a7",
  "number": 47934,
  "timestamp": 1438948554,
  "nonce": "0xac050772ccba5c64",
  "difficulty": 1464393282289,
  "gasLimit": {
    "_hex": "0x109df"
  },
  "gasUsed": {
    "_hex": "0xa8d8"
  },
  "miner": "0x25963D3d2264014d180fB0DF883be4f8B656A294",
  "extraData": "0x476574682f76312e302e312f6c696e75782f676f312e342e32",
  "transactions": [
    {
      "hash": "0x303dac73a24b5cb5f4d74f32732f82e34245d2b977dd8d10c4a9dafe46bc214f",
      "blockHash": "0x7eb2c92466ca817ec65fb041c8e18fab28ad4135bbedd3175387be9402dd1982",
      "blockNumber": 47934,
      "transactionIndex": 0,
      "confirmations": null,
      "from": "0x82f854c9C2F087dFfA985Ac8201E626cA5467686",
      "gasPrice": {
        "_hex": "0x110c8f7d8de"
      },
      "gasLimit": {
        "_hex": "0xc350"
      },
      "to": "0x2910543Af39abA0Cd09dBb2D50200b3E800A63D2",
      "value": {
        "_hex": "0xde0b6b3a7640000"
      },
      "nonce": 0,
      "data": "0x454e45505744565838",
      "r": "0x72cbc6ad04e0ec23fbd29aa51db6f47278af68ef670540d19e83225c83264c06",
      "s": "0x5b6907928160f82be9302cb2e8ba9ae3cc86d37b4e6df10f8821adc15cefc2bc",
      "v": 28,
      "creates": null,
      "raw": "0xf87680860110c8f7d8de82c350942910543af39aba0cd09dbb2d50200b3e800a63d2880de0b6b3a764000089454e455057445658381ca072cbc6ad04e0ec23fbd29aa51db6f47278af68ef670540d19e83225c83264c06a05b6907928160f82be9302cb2e8ba9ae3cc86d37b4e6df10f8821adc15cefc2bc",
      "networkId": 0,
      "chainId": 0
    },
    {
      "hash": "0xe379c8580c71e335460406b62342abfab5307787f546072bd12af0b58a0f7ac2",
      "blockHash": "0x7eb2c92466ca817ec65fb041c8e18fab28ad4135bbedd3175387be9402dd1982",
      "blockNumber": 47934,
      "transactionIndex": 1,
      "confirmations": null,
      "from": "0x378ea1dc8edc19BAe82638029eA8752ce98BcFCD",
      "gasPrice": {
        "_hex": "0xff2c30176e"
      },
      "gasLimit": {
        "_hex": "0x7918"
      },
      "to": "0x2910543Af39abA0Cd09dBb2D50200b3E800A63D2",
      "value": {
        "_hex": "0x25f273933db5700000"
      },
      "nonce": 6,
      "data": "0x454e3543484a4a3738",
      "r": "0xd78996f2a1da4580073f7de02c64e6b19ea72b935d81e259a3574d04ee7d3ad4",
      "s": "0x4fb5eda05383fdb2a07e2dd24a170f24c8ad1a412478f9c76fe1d40181656445",
      "v": 28,
      "creates": null,
      "raw": "0xf8760685ff2c30176e827918942910543af39aba0cd09dbb2d50200b3e800a63d28925f273933db570000089454e3543484a4a37381ca0d78996f2a1da4580073f7de02c64e6b19ea72b935d81e259a3574d04ee7d3ad4a04fb5eda05383fdb2a07e2dd24a170f24c8ad1a412478f9c76fe1d40181656445",
      "networkId": 0,
      "chainId": 0
    }
  ]
}