{
  "hash": "0x443e0f8e069b9e1935f39a89a840cdf7cf95a596a9318ea068553292e1365556",
  "parentHash": "0x55e0c5ccd58af9f7d443a9712fcc32d7a9287b6fcec0d8c1c410400e8c89274f",
  "number": 85583,
  "timestamp": 1439565763,
  "nonce": "0x21fa2097f62ddc6d",
  "difficulty": 2773248455929,
  "gasLimit": {
    "_hex": "0x2fefd8"
  },
  "gasUsed": {
    "_hex": "0x5208"
  },
  "miner": "0x77EC9ad4A7E9418774C29415CAaF4Ee0da96eF64",
  "extraData": "0x",
  "transactions": [
    {
      "hash": "0x2948e6e3e620c4a76ccf285e32948079f2015c8607994d292d2380ec09b96646",
      "blockHash": "0x443e0f8e069b9e1935f39a89a840cdf7cf95a596a9318ea068553292e1365556",
      "blockNumber": 85583,
      "transactionIndex": 0,
      "confirmations": null,
      "from": "0x120A270bbC009644e35F0bB6ab13f95b8199c4ad",
      "gasPrice": {
        "_hex": "0xdf520558c"
      },
      "gasLimit": {
        "_hex": "0x3d090"
      },
      "to": "0xf4d9a6bdB61cA0316FEf11F642bFc8ed00301125",
      "value": {
        "_hex": "0x98a7d9b8314c0000"
      },
      "nonce": 460,
      "data": "0x",
      "r": "0x12b462b1d5ac0c1df69411c899fdec878fbd2231c73606c73bb46e5a388d2859",
      "s": "0x41b6fd64f9f6b4451918716e0119490e6597ca18633ae08b08d2aa1c8c149301",
      "v": 27,
      "creates": null,
      "raw": "0xf86f8201cc850df520558c8303d09094f4d9a6bdb61ca0316fef11f642bfc8ed003011258898a7d9b8314c0000801ba012b462b1d5ac0c1df69411c899fdec878fbd2231c73606c73bb46e5a388d2859a041b6fd64f9f6b4451918716e0119490e6597ca18633ae08b08d2aa1c8c149301",
      "networkId": 0,
      "chainId": 0
    }
  ]
}