{
  "hash": "0xafebb238a21e87e13111d55ed2c3e361e8916af0c1be687edb4dc62de2f98c12",
  "parentHash": "0xbb5b16d96b410d8f5be88abc4f3ca07f074e1f751500ca086378479fecdf6341",
  "number": 60276,
  "timestamp": 1439152720,
  "nonce": "0x7e4498768b0e7ef7",
  "difficulty": 1738149966298,
  "gasLimit": {
    "_hex": "0x2fefd8"
  },
  "gasUsed": {
    "_hex": "0x5208"
  },
  "miner": "0x5F8F73E26CdF436f19Cb24C82F90A15AFe55b592",
  "extraData": "0x476574682f76312e302e312f77696e646f77732f676f312e342e32",
  "transactions": [
    {
      "hash": "0xf6e405fb1ee6f38552a29ae0ce97042a70474907c79aef1c9437cb4f2c70b917",
      "blockHash": "0xafebb238a21e87e13111d55ed2c3e361e8916af0c1be687edb4dc62de2f98c12",
      "blockNumber": 60276,
      "transactionIndex": 0,
      "confirmations": null,
      "from": "0x2910543Af39abA0Cd09dBb2D50200b3E800A63D2",
      "gasPrice": {
        "_hex": "0xe0ee09b9b"
      },
      "gasLimit": {
        "_hex": "0x5208"
      },
      "to": "0xFb7Bc66a002762e28545eA0a7fc970d381863C42",
      "value": {
        "_hex": "0x6f05b59d3b20000"
      },
      "nonce": 10,
      "data": "0x",
      "r": "0x111b85018fd0b4677242e9370339f4ac7ca26ed7311a7b463d0231f653df3d5a",
      "s": "0x493fc72ee53f3cf6631ae46a374b08afcb2674d8c16857f2e93fd6e0db7b4f28",
      "v": 28,
      "creates": null,
      "raw": "0xf86c0a850e0ee09b9b82520894fb7bc66a002762e28545ea0a7fc970d381863c428806f05b59d3b20000801ca0111b85018fd0b4677242e9370339f4ac7ca26ed7311a7b463d0231f653df3d5aa0493fc72ee53f3cf6631ae46a374b08afcb2674d8c16857f2e93fd6e0db7b4f28",
      "networkId": 0,
      "chainId": 0
    }
  ]
}