{
  "hash": "0xcea9104973e5d0a93f8c22b13db24213b99b5459eab950bfd56e7a4ab29af654",
  "parentHash": "0x534e8fa863a301dc9a49fbb2515cd2a43d9c44bc3372caee035656cfa0c123b9",
  "number": 84657,
  "timestamp": 1439552638,
  "nonce": "0x87fdffb22d4742b4",
  "difficulty": 2602970209210,
  "gasLimit": {
    "_hex": "0x2fefd8"
  },
  "gasUsed": {
    "_hex": "0x19a28"
  },
  "miner": "0xe6A7a1d47ff21B6321162AEA7C6CB457D5476Bca",
  "extraData": "0x476574682f76312e302e312d38326566323666362f6c696e75782f676f312e34",
  "transactions": [
    {
      "hash": "0xa881a0a960b61919a042e38c105bf179f3c8801b30e5abc6a9410e65f8ada14f",
      "blockHash": "0xcea9104973e5d0a93f8c22b13db24213b99b5459eab950bfd56e7a4ab29af654",
      "blockNumber": 84657,
      "transactionIndex": 0,
      "confirmations": null,
      "from": "0x4320e8dCA0a42083Ab538B27fA9A1dd174b2dCE8",
      "gasPrice": {
        "_hex": "0xd11832d64"
      },
      "gasLimit": {
        "_hex": "0x15f90"
      },
      "to": "0xc597A5d92F5dC1137D847db733cfe02c6d209f13",
      "value": {
        "_hex": "0x7243479618caa9800"
      },
      "nonce": 0,
      "data": "0x",
      "r": "0x26d963b9d681465aa7139bc24cef68f5ff10eb36f5506279d0ec1300f62f0a22",
      "s": "0x7ba2db0230b91296ad82ef80af5cbfce9369cf6b34ccbeb5a2c57c4401744aaf",
      "v": 28,
      "creates": null,
      "raw": "0xf86e80850d11832d6483015f9094c597a5d92f5dc1137d847db733cfe02c6d209f138907243479618caa9800801ca026d963b9d681465aa7139bc24cef68f5ff10eb36f5506279d0ec1300f62f0a22a07ba2db0230b91296ad82ef80af5cbfce9369cf6b34ccbeb5a2c57c4401744aaf",
      "networkId": 0,
      "chainId": 0
    },
    {
      "hash": "0x50147241c9c5edf02f33e8e633695afa7b06f2e8a57cbdb06da1de5958f19468",
      "blockHash": "0xcea9104973e5d0a93f8c22b13db24213b99b5459eab950bfd56e7a4ab29af654",
      "blockNumber": 84657,
      "transactionIndex": 1,
      "confirmations": null,
      "from": "0xEFD30A26481Ea1fB8d471379e32195398c940673",
      "gasPrice": {
        "_hex": "0xd11832d64"
      },
      "gasLimit": {
        "_hex": "0x15f90"
      },
      "to": "0xc597A5d92F5dC1137D847db733cfe02c6d209f13",
      "value": {
        "_hex": "0x147840af63b38000"
      },
      "nonce": 0,
      "data": "0x",
      "r": "0x29e54a2bead3e83b10def47a1abc5b9a3766650989290e62c7db3e8f113c1369",
      "s": "0x5bc0d287070a7ff94daf77211b039c2219afc6dc33db6d275fd628b9f9aa81ff",
      "v": 28,
      "creates": null,
      "raw": "0xf86d80850d11832d6483015f9094c597a5d92f5dc1137d847db733cfe02c6d209f1388147840af63b38000801ca029e54a2bead3e83b10def47a1abc5b9a3766650989290e62c7db3e8f113c1369a05bc0d287070a7ff94daf77211b039c2219afc6dc33db6d275fd628b9f9aa81ff",
      "networkId": 0,
      "chainId": 0
    },
    {
      "hash": "0x5d64d157c8c670ef7151fd55cdea647927db52b1f1749d52eb8e13ebd6440b9a",
      "blockHash": "0xcea9104973e5d0a93f8c22b13db24213b99b5459eab950bfd56e7a4ab29af654",
      "blockNumber": 84657,
      "transactionIndex": 2,
      "confirmations": null,
      "from": "0xF0C6A8bC7BD6299515cf7428792dDc1407EEbFcC",
      "gasPrice": {
        "_hex": "0xd11832d64"
      },
      "gasLimit": {
        "_hex": "0x15f90"
      },
      "to": "0xc597A5d92F5dC1137D847db733cfe02c6d209f13",
      "value": {
        "_hex": "0x13f05c83450ae0000"
      },
      "nonce": 0,
      "data": "0x",
      "r": "0xa1ce711c89c6e9be1e3937f58357fcbd4e82b6b88ba7496f463f451b065c38bc",
      "s": "0x228d3ce6e2f6b6f7c1c2c805e8ad564d9165e292d65cf1eb87d2ab51bbb96f2e",
      "v": 28,
      "creates": null,
      "raw": "0xf86e80850d11832d6483015f9094c597a5d92f5dc1137d847db733cfe02c6d209f1389013f05c83450ae0000801ca0a1ce711c89c6e9be1e3937f58357fcbd4e82b6b88ba7496f463f451b065c38bca0228d3ce6e2f6b6f7c1c2c805e8ad564d9165e292d65cf1eb87d2ab51bbb96f2e",
      "networkId": 0,
      "chainId": 0
    },
    {
      "hash": "0x812eeb9520c184b1ea1053344946ca200841750edd6f820a324fb9c36887051a",
      "blockHash": "0xcea9104973e5d0a93f8c22b13db24213b99b5459eab950bfd56e7a4ab29af654",
      "blockNumber": 84657,
      "transactionIndex": 3,
      "confirmations": null,
      "from": "0x4835b2f84407499A34fE1240dd3148257bFa9E87",
      "gasPrice": {
        "_hex": "0xd11832d64"
      },
      "gasLimit": {
        "_hex": "0x15f90"
      },
      "to": "0xc597A5d92F5dC1137D847db733cfe02c6d209f13",
      "value": {
        "_hex": "0x2b5cd5f81e4cfd5f0"
      },
      "nonce": 1,
      "data": "0x",
      "r": "0x330ef71ccddb0827eca5c95a3358c89283973516fde081f4ed0e0e7aac8ea992",
      "s": "0x09dc538f064c1cef7c53952d67fcac3b661cd17e6866df992345d04c6cb59ac5",
      "v": 27,
      "creates": null,
      "raw": "0xf86e01850d11832d6483015f9094c597a5d92f5dc1137d847db733cfe02c6d209f138902b5cd5f81e4cfd5f0801ba0330ef71ccddb0827eca5c95a3358c89283973516fde081f4ed0e0e7aac8ea992a009dc538f064c1cef7c53952d67fcac3b661cd17e6866df992345d04c6cb59ac5",
      "networkId": 0,
      "chainId": 0
    },
    {
      "hash": "0x8f131f9902a94a77ad984248164f1ebdca477193571de4c37218379e7bbfd128",
      "blockHash": "0xcea9104973e5d0a93f8c22b13db24213b99b5459eab950bfd56e7a4ab29af654",
      "blockNumber": 84657,
      "transactionIndex": 4,
      "confirmations": null,
      "from": "0xB48CB04D046210A9F58175Ad35FCe298428e0969",
      "gasPrice": {
        "_hex": "0xd11832d64"
      },
      "gasLimit": {
        "_hex": "0x15f90"
      },
      "to": "0xc597A5d92F5dC1137D847db733cfe02c6d209f13",
      "value": {
        "_hex": "0x450b6c967803b86e0"
      },
      "nonce": 3,
      "data": "0x",
      "r": "0x2889f51dd3d90ee6fca3524a22adbc10a1d09112927d4b30d75360503d171b5b",
      "s": "0x1f101cfb0e792bd04552cb2b4a911b8458d4c9d1367687b130d7ed023f98a2a9",
      "v": 28,
      "creates": null,
      "raw": "0xf86e03850d11832d6483015f9094c597a5d92f5dc1137d847db733cfe02c6d209f13890450b6c967803b86e0801ca02889f51dd3d90ee6fca3524a22adbc10a1d09112927d4b30d75360503d171b5ba01f101cfb0e792bd04552cb2b4a911b8458d4c9d1367687b130d7ed023f98a2a9",
      "networkId": 0,
      "chainId": 0
    }
  ]
}