{
  "hash": "0x9653b20da8ae4f6d2146223c221b6c2f1244610f59752a32821c89453559708b",
  "parentHash": "0x3ac26a8b7166143bb9c7d8432269a4bb33af3516f20777bca21171ebec1f012e",
  "number": 115223,
  "timestamp": 1440053642,
  "nonce": "0x2fe8f6922d3eaf03",
  "difficulty": 4529568410041,
  "gasLimit": {
    "_hex": "0x2fefd8"
  },
  "gasUsed": {
    "_hex": "0x5208"
  },
  "miner": "0x406598dCeF6Ba564F5705c8C61857fE905EEC03c",
  "extraData": "0xd983010001844765746887676f312e342e328777696e646f7773",
  "transactions": [
    {
      "hash": "0x399899494e8da9474b372c1a775361700ddbff943b3632215d77a212b54c984b",
      "blockHash": "0x9653b20da8ae4f6d2146223c221b6c2f1244610f59752a32821c89453559708b",
      "blockNumber": 115223,
      "transactionIndex": 0,
      "confirmations": null,
      "from": "0x32Be343B94f860124dC4fEe278FDCBD38C102D88",
      "gasPrice": {
        "_hex": "0xced58edcd"
      },
      "gasLimit": {
        "_hex": "0x5208"
      },
      "to": "0xCD1e66ED539dd92Fc40bBAa1FA16de8c02C14D45",
      "value": {
        "_hex": "0x5c0f8bd2195dcc000"
      },
      "nonce": 1417,
      "data": "0x",
      "r": "0x5a106f063761b99e0f3aa66c8cc21d455c3a3ee56ff9fc749d615f008c01ed43",
      "s": "0x405d512f5e31af3a1194f4857c569e94fa8ec71b948d30948a4332d4a9b0b198",
      "v": 27,
      "creates": null,
      "raw": "0xf86f820589850ced58edcd82520894cd1e66ed539dd92fc40bbaa1fa16de8c02c14d458905c0f8bd2195dcc000801ba05a106f063761b99e0f3aa66c8cc21d455c3a3ee56ff9fc749d615f008c01ed43a0405d512f5e31af3a1194f4857c569e94fa8ec71b948d30948a4332d4a9b0b198",
      "networkId": 0,
      "chainId": 0
    }
  ]
}