{
  "hash": "0x653d961123feb52ab670d7f33242256e4931173eea2c0f8919ad067511fb304e",
  "parentHash": "0x58565a9791882c3e76332cab098b848cb8205f79c11c822a9b136ad77225a447",
  "number": 113418,
  "timestamp": 1440023252,
  "nonce": "0xd0d604e12bac52ee",
  "difficulty": 4458126236907,
  "gasLimit": {
    "_hex": "0x2fefd8"
  },
  "gasUsed": {
    "_hex": "0xf618"
  },
  "miner": "0x7E6930B63D03e88F5928C5cd6ee3FCee4D714F7F",
  "extraData": "0x",
  "transactions": [
    {
      "hash": "0x6e633bd7a321cec0bc05f03a48908f8fa5f3e935fa345afd9161a701d25e5551",
      "blockHash": "0x653d961123feb52ab670d7f33242256e4931173eea2c0f8919ad067511fb304e",
      "blockNumber": 113418,
      "transactionIndex": 0,
      "confirmations": null,
      "from": "0x3a4CC071e426cFFbA54C267391e401e820a5E472",
      "gasPrice": {
        "_hex": "0xd76db6692"
      },
      "gasLimit": {
        "_hex": "0x5208"
      },
      "to": "0x32Be343B94f860124dC4fEe278FDCBD38C102D88",
      "value": {
        "_hex": "0x8e36269b2a52d000"
      },
      "nonce": 1,
      "data": "0x",
      "r": "0x7f07998d5d9f31633c7e449aec709d667ebb6a7a85d7640be3bdd4af0509b137",
      "s": "0x7dd82b5bfb8ce13c28cc904337bef58aa8dceeab86b3a04d675dc5d1b78ba1df",
      "v": 28,
      "creates": null,
      "raw": "0xf86c01850d76db66928252089432be343b94f860124dc4fee278fdcbd38c102d88888e36269b2a52d000801ca07f07998d5d9f31633c7e449aec709d667ebb6a7a85d7640be3bdd4af0509b137a07dd82b5bfb8ce13c28cc904337bef58aa8dceeab86b3a04d675dc5d1b78ba1df",
      "networkId": 0,
      "chainId": 0
    },
    {
      "hash": "0xda72700d07b2023b0176370b64586a50d56f8d2863985e0e335e42bb7fb4b9ad",
      "blockHash": "0x653d961123feb52ab670d7f33242256e4931173eea2c0f8919ad067511fb304e",
      "blockNumber": 113418,
      "transactionIndex": 1,
      "confirmations": null,
      "from": "0x82f600f520d879ecc6101C4e8cdD6522Fdd24778",
      "gasPrice": {
        "_hex": "0xd76db6692"
      },
      "gasLimit": {
        "_hex": "0x5208"
      },
      "to": "0x32Be343B94f860124dC4fEe278FDCBD38C102D88",
      "value": {
        "_hex": "0xe5f6d7b957e71000"
      },
      "nonce": 4,
      "data": "0x",
      "r": "0x499ed960db96abbb3357a9e52508fdfce2a2a411cab96036baef0ebd5c515c78",
      "s": "0x0664387495ecaa8ea1208b80058c0d4fa2dda44639d3614736023735550408de",
      "v": 27,
      "creates": null,
      "raw": "0xf86c04850d76db66928252089432be343b94f860124dc4fee278fdcbd38c102d8888e5f6d7b957e71000801ba0499ed960db96abbb3357a9e52508fdfce2a2a411cab96036baef0ebd5c515c78a00664387495ecaa8ea1208b80058c0d4fa2dda44639d3614736023735550408de",
      "networkId": 0,
      "chainId": 0
    },
    {
      "hash": "0x5e0be499729e13ca37771a7cb5a35a39243a5da9ee3ec5c282f2db553e51df47",
      "blockHash": "0x653d961123feb52ab670d7f33242256e4931173eea2c0f8919ad067511fb304e",
      "blockNumber": 113418,
      "transactionIndex": 2,
      "confirmations": null,
      "from": "0x3A3A7cdFbBd0d889E44CE9f87515a2C989E51a49",
      "gasPrice": {
        "_hex": "0xd76db6692"
      },
      "gasLimit": {
        "_hex": "0x5208"
      },
      "to": "0x32Be343B94f860124dC4fEe278FDCBD38C102D88",
      "value": {
        "_hex": "0x29f1ce472ae58c00"
      },
      "nonce": 1,
      "data": "0x",
      "r": "0x6588fb7957692542c7d4846551e8c5e443d85b0fe41bea4cc6855345ab7d3238",
      "s": "0x46c16cc0de4d05257b1ec69fd9c7ee9889d067c625349b33560a051f73c8823f",
      "v": 27,
      "creates": null,
      "raw": "0xf86c01850d76db66928252089432be343b94f860124dc4fee278fdcbd38c102d888829f1ce472ae58c00801ba06588fb7957692542c7d4846551e8c5e443d85b0fe41bea4cc6855345ab7d3238a046c16cc0de4d05257b1ec69fd9c7ee9889d067c625349b33560a051f73c8823f",
      "networkId": 0,
      "chainId": 0
    }
  ]
}