{
  "hash": "0xfd380a1ad1ce64125f662c6c3ecb670101a37ffecb4fa8005e671d1220fbfeff",
  "parentHash": "0x1f4c47f314181dbb7e93d926c6b20903126b853f18848671e1589356ca6d441a",
  "number": 105377,
  "timestamp": 1439886437,
  "nonce": "0x037fdd90fc24340b",
  "difficulty": 4373954766120,
  "gasLimit": {
    "_hex": "0x2fefd8"
  },
  "gasUsed": {
    "_hex": "0xa410"
  },
  "miner": "0x923067FD7d60328fec396e8305dCe9B30c37c137",
  "extraData": "0x476574682f76312e302e312f77696e646f77732f676f312e342e32",
  "transactions": [
    {
      "hash": "0x75a16cc8760da3ce1dea1a7a8cbb7e5502c577990d0480e6d0042a30133ed4cd",
      "blockHash": "0xfd380a1ad1ce64125f662c6c3ecb670101a37ffecb4fa8005e671d1220fbfeff",
      "blockNumber": 105377,
      "transactionIndex": 0,
      "confirmations": null,
      "from": "0x18883522e2679aA9b41E0fA688F20c3802897525",
      "gasPrice": {
        "_hex": "0xd0fccb616"
      },
      "gasLimit": {
        "_hex": "0x5208"
      },
      "to": "0x32Be343B94f860124dC4fEe278FDCBD38C102D88",
      "value": {
        "_hex": "0xbb3d438ca4214000"
      },
      "nonce": 7,
      "data": "0x",
      "r": "0xe0479d75a6e0fb8dc72ff880e5f3533f849374db807bbc75288a537dafd7a3b7",
      "s": "0x064f104f106a216ca18c364366c3f598d360fa762f28a5b46b426180c6a2620a",
      "v": 28,
      "creates": null,
      "raw": "0xf86c07850d0fccb6168252089432be343b94f860124dc4fee278fdcbd38c102d8888bb3d438ca4214000801ca0e0479d75a6e0fb8dc72ff880e5f3533f849374db807bbc75288a537dafd7a3b7a0064f104f106a216ca18c364366c3f598d360fa762f28a5b46b426180c6a2620a",
      "networkId": 0,
      "chainId": 0
    },
    {
      "hash": "0xdd6ebf9da065200de6f1b3ed3528938eabd44b05acf8a39f41341ff9cf8eac4e",
      "blockHash": "0xfd380a1ad1ce64125f662c6c3ecb670101a37ffecb4fa8005e671d1220fbfeff",
      "blockNumber": 105377,
      "transactionIndex": 1,
      "confirmations": null,
      "from": "0x6964b95BF8BA16b837e2f3Ae8dA7D299553eC1f7",
      "gasPrice": {
        "_hex": "0xd0fccb616"
      },
      "gasLimit": {
        "_hex": "0x5208"
      },
      "to": "0x32Be343B94f860124dC4fEe278FDCBD38C102D88",
      "value": {
        "_hex": "0x316057707bf06e000"
      },
      "nonce": 7,
      "data": "0x",
      "r": "0x967d35151ef2f3337a27e44e6e3b78d46ff3f4b3dd9a46057c2e08a309d1db92",
      "s": "0x596808597a1b7dff4cc34424c06c0f72953c68e2a9591853bfbcf095739601a8",
      "v": 27,
      "creates": null,
      "raw": "0xf86d07850d0fccb6168252089432be343b94f860124dc4fee278fdcbd38c102d88890316057707bf06e000801ba0967d35151ef2f3337a27e44e6e3b78d46ff3f4b3dd9a46057c2e08a309d1db92a0596808597a1b7dff4cc34424c06c0f72953c68e2a9591853bfbcf095739601a8",
      "networkId": 0,
      "chainId": 0
    }
  ]
}