{
  "hash": "0x4136b899a41ef0f5b55bc7b48b40d868696bba5b4217188ec592da3c0c030c85",
  "parentHash": "0x27698b6d5f888f7f0b6f01dde99758175d9aa470947e8fac8a68e0a0fd82a0ff",
  "number": 97217,
  "timestamp": 1439752730,
  "nonce": "0x8155c97ae1faa4c2",
  "difficulty": 3766889865682,
  "gasLimit": {
    "_hex": "0x2fefd8"
  },
  "gasUsed": {
    "_hex": "0x5208"
  },
  "miner": "0xe6A7a1d47ff21B6321162AEA7C6CB457D5476Bca",
  "extraData": "0x476574682f76312e302e312d38326566323666362f6c696e75782f676f312e34",
  "transactions": [
    {
      "hash": "0xd9a82c76d2d73e7ce7a483a97672ec9e1414594be3364a4c9297010437cca490",
      "blockHash": "0x4136b899a41ef0f5b55bc7b48b40d868696bba5b4217188ec592da3c0c030c85",
      "blockNumber": 97217,
      "transactionIndex": 0,
      "confirmations": null,
      "from": "0xa70a9a7040d542C632D8e0bE7c5513A8a5Bbc752",
      "gasPrice": {
        "_hex": "0xce644646d"
      },
      "gasLimit": {
        "_hex": "0x5208"
      },
      "to": "0x32Be343B94f860124dC4fEe278FDCBD38C102D88",
      "value": {
        "_hex": "0x455f6499120aa000"
      },
      "nonce": 175,
      "data": "0x",
      "r": "0xeef87e49467c17c70c617997350411dbe80aa39a37df46fc3512b0ad0b0f4b6e",
      "s": "0x799e4ecf6017e654d505584f5fd7a4becc63272e58c13886cd2dc283c2709227",
      "v": 28,
      "creates": null,
      "raw": "0xf86d81af850ce644646d8252089432be343b94f860124dc4fee278fdcbd38c102d8888455f6499120aa000801ca0eef87e49467c17c70c617997350411dbe80aa39a37df46fc3512b0ad0b0f4b6ea0799e4ecf6017e654d505584f5fd7a4becc63272e58c13886cd2dc283c2709227",
      "networkId": 0,
      "chainId": 0
    }
  ]
}