{
  "hash": "0x491a7af8ec812859a62469812216e70e8fc56ade13298964751e2c46cd4f4bf5",
  "parentHash": "0x7aa062a0126e77d206bedce4baa9be894143232724b25cefd17008fb7637a313",
  "number": 54332,
  "timestamp": 1439052369,
  "nonce": "0x0ecbb31218254649",
  "difficulty": 1608665388127,
  "gasLimit": {
    "_hex": "0x2fefd8"
  },
  "gasUsed": {
    "_hex": "0xfe1d"
  },
  "miner": "0xC49418429e58989172a4ACE0bab0cB8D3F00F97f",
  "extraData": "0x476574682f76312e302e312f6c696e75782f676f312e342e32",
  "transactions": [
    {
      "hash": "0xd111fc7c12029d49dcebc8611a3c8c2024a93af41b695e89b25c811bbc5a9c02",
      "blockHash": "0x491a7af8ec812859a62469812216e70e8fc56ade13298964751e2c46cd4f4bf5",
      "blockNumber": 54332,
      "transactionIndex": 0,
      "confirmations": null,
      "from": "0x8674c218F0351a62C3BA78C34FD2182A93Da94E2",
      "gasPrice": {
        "_hex": "0x174876e800"
      },
      "gasLimit": {
        "_hex": "0x1e8480"
      },
      "to": "0x59622442B567187157b85d6928A6c56e1E0841CA",
      "value": {
        "_hex": "0x0"
      },
      "nonce": 23,
      "data": "0xde6f24bb0000000000000000000000008674c218f0351a62c3ba78c34fd2182a93da94e20000000000000000000000000000000000000000000000000000000000000040000000000000000000000000000000000000000000000000000000000000000668656c6c6f210000000000000000000000000000000000000000000000000000",
      "r": "0x7168dc9b1a4838b31e3feffa3f2ce5abc748d7d51167855105384eb2be542f0d",
      "s": "0x0cc5bc40e39a2284049f001af296dc498155b153f6c5a61ace617c8a5b68fc4d",
      "v": 27,
      "creates": null,
      "raw": "0xf8ea1785174876e800831e84809459622442b567187157b85d6928a6c56e1e0841ca80b884de6f24bb0000000000000000000000008674c218f0351a62c3ba78c34fd2182a93da94e20000000000000000000000000000000000000000000000000000000000000040000000000000000000000000000000000000000000000000000000000000000668656c6c6f2100000000000000000000000000000000000000000000000000001ba07168dc9b1a4838b31e3feffa3f2ce5abc748d7d51167855105384eb2be542f0da00cc5bc40e39a2284049f001af296dc498155b153f6c5a61ace617c8a5b68fc4d",
      "networkId": 0,
      "chainId": 0
    },
    {
      "hash": "0x69c49f3c6a7e9b8babe65c850788aa6780eba7640c230a04cbd7952bacea581e",
      "blockHash": "0x491a7af8ec812859a62469812216e70e8fc56ade13298964751e2c46cd4f4bf5",
      "blockNumber": 54332,
      "transactionIndex": 1,
      "confirmations": null,
      "from": "0x32Be343B94f860124dC4fEe278FDCBD38C102D88",
      "gasPrice": {
        "_hex": "0xd69322811"
      },
      "gasLimit": {
        "_hex": "0x5208"
      },
      "to": "0xC151A0473225AE2768CF864F30ef38AC4b36C06C",
      "value": {
        "_hex": "0xdbd2fc137a30000"
      },
      "nonce": 54,
      "data": "0x",
      "r": "0x7e1210b4c662335cbaa56a89b6461831301534cac1f55071fcdf6981e291589f",
      "s": "0x44162357fc3f6498353da9aa540a9c10d7b9852b9e05d6f0f087a16fddeac327",
      "v": 28,
      "creates": null,
      "raw": "0xf86c36850d6932281182520894c151a0473225ae2768cf864f30ef38ac4b36c06c880dbd2fc137a30000801ca07e1210b4c662335cbaa56a89b6461831301534cac1f55071fcdf6981e291589fa044162357fc3f6498353da9aa540a9c10d7b9852b9e05d6f0f087a16fddeac327",
      "networkId": 0,
      "chainId": 0
    }
  ]
}