{
  "hash": "0xc9c82375ff902493f8cfc8efd81c4f24783943abbd618afe367cb24d669fd411",
  "parentHash": "0x3298b1a3c9049d4cfbb2a17839bcab940b9aae89ed99fff0fcd7e1e893cb10e8",
  "number": 86489,
  "timestamp": 1439579002,
  "nonce": "0x00cf8f68f8648f51",
  "difficulty": 2891870567864,
  "gasLimit": {
    "_hex": "0x2fefd8"
  },
  "gasUsed": {
    "_hex": "0x55d8"
  },
  "miner": "0xf8E0CA3Ed80bd541b94BEdCf259e8CF2141A9523",
  "extraData": "0x476574682f76312e302e312f77696e646f77732f676f312e342e32",
  "transactions": [
    {
      "hash": "0xcdec43921b09c417fa935b4a4a3641b70f21c80f4245799f294f646c3cbf3dfd",
      "blockHash": "0xc9c82375ff902493f8cfc8efd81c4f24783943abbd618afe367cb24d669fd411",
      "blockNumber": 86489,
      "transactionIndex": 0,
      "confirmations": null,
      "from": "0x36d85Dc3683156e63Bf880A9fAb7788CF8143a27",
      "gasPrice": {
        "_hex": "0xcadcf8b47"
      },
      "gasLimit": {
        "_hex": "0x15f90"
      },
      "to": "0x0000000000000000000000000000000000000000",
      "value": {
        "_hex": "0x1158e460913d00000"
      },
      "nonce": 20,
      "data": "0xb214faa55341334343365143420000000000000000000000000000000000000000000000",
      "r": "0xe00401b0d414745ad8c2b3a7eeaa6db9f92789cce68fb144aa9f00d8bc673eaa",
      "s": "0x09a7ee587a5465e2fe345132b324a4956bef7c461bafa5e26d61cf19df6d7ff7",
      "v": 28,
      "creates": null,
      "raw": "0xf89214850cadcf8b4783015f909400000000000000000000000000000000000000008901158e460913d00000a4b214faa553413343433651434200000000000000000000000000000000000000000000001ca0e00401b0d414745ad8c2b3a7eeaa6db9f92789cce68fb144aa9f00d8bc673eaaa009a7ee587a5465e2fe345132b324a4956bef7c461bafa5e26d61cf19df6d7ff7",
      "networkId": 0,
      "chainId": 0
    }
  ]
}