{
  "hash": "0x1f472dce8cd9f20cb2cf0f21a35a0c5a736c7a31a0d6bde2c9691cff46d84851",
  "parentHash": "0x01267d425451802e4b293f256d6815977fff1bf736396d70d2984ace30bec5de",
  "number": 71998,
  "timestamp": 1439345515,
  "nonce": "0x14fe015345fab925",
  "difficulty": 2164365140490,
  "gasLimit": {
    "_hex": "0x2fefd5"
  },
  "gasUsed": {
    "_hex": "0x93f5"
  },
  "miner": "0x88D74a59454F6cF3B51ef6b9136AFb6b9D405A88",
  "extraData": "0x476574682f76312e302e312d38326566323666362f6c696e75782f676f312e34",
  "transactions": [
    {
      "hash": "0x103d573b52137b4a3ba5510c6921028f84b1a281c60096dcb3123617714791e6",
      "blockHash": "0x1f472dce8cd9f20cb2cf0f21a35a0c5a736c7a31a0d6bde2c9691cff46d84851",
      "blockNumber": 71998,
      "transactionIndex": 0,
      "confirmations": null,
      "from": "0x17580B766f7453525ca4C6A88b01b50570EA088C",
      "gasPrice": {
        "_hex": "0xda8643ea9"
      },
      "gasLimit": {
        "_hex": "0x61a80"
      },
      "to": "0x5Fe5B7546D1628f7348B023A0393de1FC825A4fD",
      "value": {
        "_hex": "0x8ac7230489e80000"
      },
      "nonce": 319,
      "data": "0xb595b8b50000000000000000000000000000000000000000000000000000000000000001",
      "r": "0x6e7b2195666057dc35c87e64696113b17f8ff7f4f342eb31b6003944043649d0",
      "s": "0x7ce1b29f4b3748db3d28034e79842fbc134f1f0aba69f71626527ee2ea5c85fa",
      "v": 28,
      "creates": null,
      "raw": "0xf89382013f850da8643ea983061a80945fe5b7546d1628f7348b023a0393de1fc825a4fd888ac7230489e80000a4b595b8b500000000000000000000000000000000000000000000000000000000000000011ca06e7b2195666057dc35c87e64696113b17f8ff7f4f342eb31b6003944043649d0a07ce1b29f4b3748db3d28034e79842fbc134f1f0aba69f71626527ee2ea5c85fa",
      "networkId": 0,
      "chainId": 0
    }
  ]
}