{
  "hash": "0xcb4f030c1fcf513f3f35552d7cfa772f635cbd49de6c3c724e2edbfb6ff68224",
  "parentHash": "0x614e131d878224f495ab4468dd81d2b2a7a89b1e728ef743bc78347a08050c08",
  "number": 50559,
  "timestamp": 1438991215,
  "nonce": "0xb0510eb8739b57bd",
  "difficulty": 1522995127839,
  "gasLimit": {
    "_hex": "0x6a450"
  },
  "gasUsed": {
    "_hex": "0x30d40"
  },
  "miner": "0x1D889aFF5D57138c9819412d63b5d877567B5936",
  "extraData": "0x476574682f76312e302e312f77696e646f77732f676f312e342e32",
  "transactions": [
    {
      "hash": "0x9e56222c31b7c84cb6c5478647903957c58a8ab213fa4b893d78de68c2e6fa46",
      "blockHash": "0xcb4f030c1fcf513f3f35552d7cfa772f635cbd49de6c3c724e2edbfb6ff68224",
      "blockNumber": 50559,
      "transactionIndex": 0,
      "confirmations": null,
      "from": "0xa7247c53D059EB7c9310F628d7Fc6c6A0a773f08",
      "gasPrice": {
        "_hex": "0xe0456eac0"
      },
      "gasLimit": {
        "_hex": "0x30d40"
      },
      "to": "0x109C4f2CCc82C4d77Bde15F306707320294Aea3F",
      "value": {
        "_hex": "0xde0b6b3a7640000"
      },
      "nonce": 3,
      "data": "0x",
      "r": "0x3f5dca15dd635fc5957bcb7b304d29b799f060cbcfc3fbc7749d1792bd81917c",
      "s": "0x42c3a126318064f8a02cdd547512f922b973af5c7e87612847655eb20c1618e8",
      "v": 27,
      "creates": null,
      "raw": "0xf86d03850e0456eac083030d4094109c4f2ccc82c4d77bde15f306707320294aea3f880de0b6b3a7640000801ba03f5dca15dd635fc5957bcb7b304d29b799f060cbcfc3fbc7749d1792bd81917ca042c3a126318064f8a02cdd547512f922b973af5c7e87612847655eb20c1618e8",
      "networkId": 0,
      "chainId": 0
    }
  ]
}