{
  "hash": "0xcf8ae6e3ee69f9dffc57a17bbe08970fb776ca681c2babebe17467c225390a4c",
  "parentHash": "0x020e6d73f5c41ac63af98a9e8adcec9eab4e76eed1a8a1d43918a0f2e8b376c7",
  "number": 120973,
  "timestamp": 1440169272,
  "nonce": "0xd76f4510f72d80ae",
  "difficulty": 4417293345762,
  "gasLimit": {
    "_hex": "0x2fefd8"
  },
  "gasUsed": {
    "_hex": "0x5208"
  },
  "miner": "0x9746c7e1ef2bd21FF3997fa467593a89cb852BD0",
  "extraData": "0x476574682f76312e302e312f77696e646f77732f676f312e342e32",
  "transactions": [
    {
      "hash": "0x5b863e1a5e89b9fb1e483db8f4927a17f7b2b7bc5200eb722820f73c8a1b1f4e",
      "blockHash": "0xcf8ae6e3ee69f9dffc57a17bbe08970fb776ca681c2babebe17467c225390a4c",
      "blockNumber": 120973,
      "transactionIndex": 0,
      "confirmations": null,
      "from": "0x32Be343B94f860124dC4fEe278FDCBD38C102D88",
      "gasPrice": {
        "_hex": "0xba43b7400"
      },
      "gasLimit": {
        "_hex": "0x5208"
      },
      "to": "0x1B8BB4bD8A048f3951e78854a648207989D8aE46",
      "value": {
        "_hex": "0x15bdfdfb078b78000"
      },
      "nonce": 1540,
      "data": "0x",
      "r": "0x80200492c4ee488540bba92c89f33bad8fd82fa5eb949a61216d6eecc1ce6008",
      "s": "0x522af6e4b90f8bb5cf1cc58b779ab8ca7eb7f40a0a7107e20c70cd9430543931",
      "v": 28,
      "creates": null,
      "raw": "0xf86f820604850ba43b7400825208941b8bb4bd8a048f3951e78854a648207989d8ae4689015bdfdfb078b78000801ca080200492c4ee488540bba92c89f33bad8fd82fa5eb949a61216d6eecc1ce6008a0522af6e4b90f8bb5cf1cc58b779ab8ca7eb7f40a0a7107e20c70cd9430543931",
      "networkId": 0,
      "chainId": 0
    }
  ]
}