{
  "hash": "0x3472d6039fe16f572432168c8d416dea879b8c31eb4a145851ad12eb3c9ebee7",
  "parentHash": "0xaf82162d260025f5ebb336da3ba55d654f9853491974a8a0297644748427c127",
  "number": 59638,
  "timestamp": 1439141380,
  "nonce": "0x6b16d984c9e97657",
  "difficulty": 1706326265013,
  "gasLimit": {
    "_hex": "0x2fefd8"
  },
  "gasUsed": {
    "_hex": "0x5208"
  },
  "miner": "0xa50ec0D39fa913E62f1Bae7074E6F36caA71855b",
  "extraData": "0x",
  "transactions": [
    {
      "hash": "0xca37caef7b947ae02afdc5ee015dccf176c66fd8dc8b8303462d29a517c9d8a3",
      "blockHash": "0x3472d6039fe16f572432168c8d416dea879b8c31eb4a145851ad12eb3c9ebee7",
      "blockNumber": 59638,
      "transactionIndex": 0,
      "confirmations": null,
      "from": "0x88a0A05437262a1b65f41A978Cb16CB1f0BFCfE0",
      "gasPrice": {
        "_hex": "0xdda728d54"
      },
      "gasLimit": {
        "_hex": "0x15f90"
      },
      "to": "0xc185Eb46fA4eeD04eCc6b69DE58E1de88aE9642D",
      "value": {
        "_hex": "0x6b3a43a81b5aa80000"
      },
      "nonce": 5,
      "data": "0x",
      "r": "0x8283838a34aab62819f0f0b6bcc6bc27b5eb38c3cce018f2d5d02d6c8da67161",
      "s": "0x7483be8c0e6f6c07855b2274dcf70a2513504ba8c8133982b51cc7ff6c565869",
      "v": 28,
      "creates": null,
      "raw": "0xf86e05850dda728d5483015f9094c185eb46fa4eed04ecc6b69de58e1de88ae9642d896b3a43a81b5aa80000801ca08283838a34aab62819f0f0b6bcc6bc27b5eb38c3cce018f2d5d02d6c8da67161a07483be8c0e6f6c07855b2274dcf70a2513504ba8c8133982b51cc7ff6c565869",
      "networkId": 0,
      "chainId": 0
    }
  ]
}