{
  "hash": "0xf03d0c94eb2688a84ab050cf45ac3151a761417939854b813ae2d094475cb2fb",
  "parentHash": "0x415d846f3eb26a9a3e15813ac586ca4e6705f1e9df760f0e373ecb5fc9763484",
  "number": 113672,
  "timestamp": 1440027611,
  "nonce": "0x0bcbfe31efd9a344",
  "difficulty": 4453639868242,
  "gasLimit": {
    "_hex": "0x2fefd8"
  },
  "gasUsed": {
    "_hex": "0xa410"
  },
  "miner": "0xe6A7a1d47ff21B6321162AEA7C6CB457D5476Bca",
  "extraData": "0x476574682f76312e302e312d38326566323666362f6c696e75782f676f312e34",
  "transactions": [
    {
      "hash": "0x9f3249b9637153beb72b6e55cfdc6fa9c063af599de08444469cb7b25c8c5a1c",
      "blockHash": "0xf03d0c94eb2688a84ab050cf45ac3151a761417939854b813ae2d094475cb2fb",
      "blockNumber": 113672,
      "transactionIndex": 0,
      "confirmations": null,
      "from": "0x61F642543d22bAf5382908a714E675Cc0b51ea45",
      "gasPrice": {
        "_hex": "0xde895708c"
      },
      "gasLimit": {
        "_hex": "0x5208"
      },
      "to": "0x32Be343B94f860124dC4fEe278FDCBD38C102D88",
      "value": {
        "_hex": "0x11589d11a0514c000"
      },
      "nonce": 22,
      "data": "0x",
      "r": "0xc01cd5cc4f2fd45beb44c63824a3362653b5f34d2b3e2df4f18a5b488fdfc238",
      "s": "0x085b537384dec57f2fecaaae8ba67f40438a50685168f978f1b53078ad0c2c59",
      "v": 28,
      "creates": null,
      "raw": "0xf86d16850de895708c8252089432be343b94f860124dc4fee278fdcbd38c102d8889011589d11a0514c000801ca0c01cd5cc4f2fd45beb44c63824a3362653b5f34d2b3e2df4f18a5b488fdfc238a0085b537384dec57f2fecaaae8ba67f40438a50685168f978f1b53078ad0c2c59",
      "networkId": 0,
      "chainId": 0
    },
    {
      "hash": "0xcce238e422189f9403718910451f07254f023bc292432f45df6ff60ca7d1ad71",
      "blockHash": "0xf03d0c94eb2688a84ab050cf45ac3151a761417939854b813ae2d094475cb2fb",
      "blockNumber": 113672,
      "transactionIndex": 1,
      "confirmations": null,
      "from": "0x28cF1915522F9744EF20294FAeBe6575e2fd5F38",
      "gasPrice": {
        "_hex": "0xd8364fc25"
      },
      "gasLimit": {
        "_hex": "0x15f90"
      },
      "to": "0x97de56aE219114BEE14B61009E4F82a8F20a9c70",
      "value": {
        "_hex": "0x1bc16d674ec80000"
      },
      "nonce": 2,
      "data": "0x",
      "r": "0x28b852459b7ac8d3c70a804dd28a484c29b97d585c2acf84c7a0da39b755ce2d",
      "s": "0x592acb2c3f9f7c1e5fef54f66dfa56bd55ded896d66e73c21716e17c13fb005d",
      "v": 27,
      "creates": null,
      "raw": "0xf86d02850d8364fc2583015f909497de56ae219114bee14b61009e4f82a8f20a9c70881bc16d674ec80000801ba028b852459b7ac8d3c70a804dd28a484c29b97d585c2acf84c7a0da39b755ce2da0592acb2c3f9f7c1e5fef54f66dfa56bd55ded896d66e73c21716e17c13fb005d",
      "networkId": 0,
      "chainId": 0
    }
  ]
}