{
  "hash": "0x61b2175d181272493ceeb248f41847684a5e5ffff33a074d12979544499ce603",
  "parentHash": "0xe4e349a8eb5e36fe21134a07242f6308bd293e1101ea2e4ee4a90b3b87d02d8b",
  "number": 54170,
  "timestamp": 1439049765,
  "nonce": "0x740c0899a81bd5b9",
  "difficulty": 1607126228905,
  "gasLimit": {
    "_hex": "0x2fefd8"
  },
  "gasUsed": {
    "_hex": "0x5208"
  },
  "miner": "0x00eBA8Ef4fF9B21Ec2FFF273953fDCC81f6fE7da",
  "extraData": "0x476574682f76312e302e312f6c696e75782f676f312e342e32",
  "transactions": [
    {
      "hash": "0xf8e17b107f33465cc02644480e6e7dea64dfa89455c09be62a9954b66f56aff0",
      "blockHash": "0x61b2175d181272493ceeb248f41847684a5e5ffff33a074d12979544499ce603",
      "blockNumber": 54170,
      "transactionIndex": 0,
      "confirmations": null,
      "from": "0x64fA2C5b9fA3E48BcAd74bD34a23b17f85fC402C",
      "gasPrice": {
        "_hex": "0x746a528800"
      },
      "gasLimit": {
        "_hex": "0x5b04"
      },
      "to": "0xD20654d200807101bB76403d2Ee893eD43e2fDa0",
      "value": {
        "_hex": "0x8ac7230489e80000"
      },
      "nonce": 0,
      "data": "0x",
      "r": "0x450740a52f98c50162e5d65b8b35ac9f614db6ed6078d43da45203b67be81556",
      "s": "0x5fedcbe12332788ef94200dbf9e561ce713b15c60d4f447a3c3abd7175eceb29",
      "v": 27,
      "creates": null,
      "raw": "0xf86c8085746a528800825b0494d20654d200807101bb76403d2ee893ed43e2fda0888ac7230489e80000801ba0450740a52f98c50162e5d65b8b35ac9f614db6ed6078d43da45203b67be81556a05fedcbe12332788ef94200dbf9e561ce713b15c60d4f447a3c3abd7175eceb29",
      "networkId": 0,
      "chainId": 0
    }
  ]
}