{
  "hash": "0x88a2721d318d06d8e8b05ce02d00e677815f1b70e22e399c2bb42174e0c67519",
  "parentHash": "0x52d2485f7298d774c904a1bbcf1a5ad69c26f7c728440f79acbb6c3f58d544d3",
  "number": 80376,
  "timestamp": 1439484763,
  "nonce": "0xf2321a14cf104958",
  "difficulty": 2381684571293,
  "gasLimit": {
    "_hex": "0x2fefd8"
  },
  "gasUsed": {
    "_hex": "0xa410"
  },
  "miner": "0x36a3706566A8f9b27e7d604f4702900Acd31f32E",
  "extraData": "0x476574682f76312e302e312f6c696e75782f676f312e342e32",
  "transactions": [
    {
      "hash": "0xdd7f2afb92ee3bd2514012013b5d381d854d854beac3b59d45e3e0fb23afdd25",
      "blockHash": "0x88a2721d318d06d8e8b05ce02d00e677815f1b70e22e399c2bb42174e0c67519",
      "blockNumber": 80376,
      "transactionIndex": 0,
      "confirmations": null,
      "from": "0x32Be343B94f860124dC4fEe278FDCBD38C102D88",
      "gasPrice": {
        "_hex": "0xdce4f8e1d"
      },
      "gasLimit": {
        "_hex": "0x5208"
      },
      "to": "0x9E5B4729c3266d77caE7F08C303b191Ac4d6B8CD",
      "value": {
        "_hex": "0x8164696f14cc78000"
      },
      "nonce": 534,
      "data": "0x",
      "r": "0xc6e30c9dd537ddf910c074d8eb692ed0852c0abb6da0b3a7b2ef92cdb994f61a",
      "s": "0x29e7d73ff04329aad3fc5768610206c2171080767f186dd52629009cab9c4971",
      "v": 27,
      "creates": null,
      "raw": "0xf86f820216850dce4f8e1d825208949e5b4729c3266d77cae7f08c303b191ac4d6b8cd8908164696f14cc78000801ba0c6e30c9dd537ddf910c074d8eb692ed0852c0abb6da0b3a7b2ef92cdb994f61aa029e7d73ff04329aad3fc5768610206c2171080767f186dd52629009cab9c4971",
      "networkId": 0,
      "chainId": 0
    },
    {
      "hash": "0x08c3d5bfe9c5894e6d71e120e6b3ba9176e1f2d42fcd54220d6391bd4d4f33f0",
      "blockHash": "0x88a2721d318d06d8e8b05ce02d00e677815f1b70e22e399c2bb42174e0c67519",
      "blockNumber": 80376,
      "transactionIndex": 1,
      "confirmations": null,
      "from": "0x32Be343B94f860124dC4fEe278FDCBD38C102D88",
      "gasPrice": {
        "_hex": "0xdce4f8e1d"
      },
      "gasLimit": {
        "_hex": "0x5208"
      },
      "to": "0x5F28bcc5faFC8982536A9e4be559657998CdE1E3",
      "value": {
        "_hex": "0x56ba3d73af34f0000"
      },
      "nonce": 535,
      "data": "0x",
      "r": "0x4a750db13b42b354c97ddd3c1e562358e6a2b55806c07afea1774bc97dc51baf",
      "s": "0x1957599ab566f6eb6a25a458d1fb63dfb5f9f630d2310a0f069008f8da13400f",
      "v": 27,
      "creates": null,
      "raw": "0xf86f820217850dce4f8e1d825208945f28bcc5fafc8982536a9e4be559657998cde1e389056ba3d73af34f0000801ba04a750db13b42b354c97ddd3c1e562358e6a2b55806c07afea1774bc97dc51bafa01957599ab566f6eb6a25a458d1fb63dfb5f9f630d2310a0f069008f8da13400f",
      "networkId": 0,
      "chainId": 0
    }
  ]
}