{
  "hash": "0xd8cb9e457d61c680de949c2a472103857cd16448e2ffd2d786ac07e3596c5da1",
  "parentHash": "0x203b7ec5b4f552744080a4475e3843af56f72ce38142cca8eab38e5e9d258d91",
  "number": 97585,
  "timestamp": 1439758309,
  "nonce": "0xb202f71d63c09a2a",
  "difficulty": 3848525928804,
  "gasLimit": {
    "_hex": "0x2fefd8"
  },
  "gasUsed": {
    "_hex": "0x5208"
  },
  "miner": "0xD556D4200Aa5B4929ae154af9e922D84d1A33fc9",
  "extraData": "0x",
  "transactions": [
    {
      "hash": "0x4a4c8f0474fb583f365fc9d387638c68b5c6d72fbb9827c4d53a23389c3294b7",
      "blockHash": "0xd8cb9e457d61c680de949c2a472103857cd16448e2ffd2d786ac07e3596c5da1",
      "blockNumber": 97585,
      "transactionIndex": 0,
      "confirmations": null,
      "from": "0x72dcecdD4a7374231676f7fA910A678DfC7c98D6",
      "gasPrice": {
        "_hex": "0xd606428e3"
      },
      "gasLimit": {
        "_hex": "0x15f90"
      },
      "to": "0xBDe8541989cF94E88cA73e2D46a8839414968F9B",
      "value": {
        "_hex": "0x6124fee993bc0000"
      },
      "nonce": 8,
      "data": "0x",
      "r": "0xa386077b7d569327c3410f44c8b15cc20a76fca6d6688f307aee1e507e61c1b8",
      "s": "0x7f2d461610fb11716f5a4fff17e986fddfe3fe9956b5f9d2bf2cfaf672b5fa02",
      "v": 28,
      "creates": null,
      "raw": "0xf86d08850d606428e383015f9094bde8541989cf94e88ca73e2d46a8839414968f9b886124fee993bc0000801ca0a386077b7d569327c3410f44c8b15cc20a76fca6d6688f307aee1e507e61c1b8a07f2d461610fb11716f5a4fff17e986fddfe3fe9956b5f9d2bf2cfaf672b5fa02",
      "networkId": 0,
      "chainId": 0
    }
  ]
}