{
  "hash": "0xbcd46292db11cecef9a00e930101f41baffecc60a01c9f239a6c007b61115568",
  "parentHash": "0x9db1ab8385ef3950640036cf38d6c5ea408158e52f7bb10888d1012a6b8d35a1",
  "number": 53902,
  "timestamp": 1439045454,
  "nonce": "0x3946e17cd1473cfd",
  "difficulty": 1600911782295,
  "gasLimit": {
    "_hex": "0x2fefd8"
  },
  "gasUsed": {
    "_hex": "0x5208"
  },
  "miner": "0xc56e71225f1372c990E6829D53A1Ab76d27301cf",
  "extraData": "0x476574682f76312e302e302f77696e646f77732f676f312e342e32",
  "transactions": [
    {
      "hash": "0x4ae77bdbc9d1e7e39845e99f3ca8133805c92acb8c4079f6ba3136c7bd02bf5d",
      "blockHash": "0xbcd46292db11cecef9a00e930101f41baffecc60a01c9f239a6c007b61115568",
      "blockNumber": 53902,
      "transactionIndex": 0,
      "confirmations": null,
      "from": "0xad7210d76107F888745616FFF7979623b84F928c",
      "gasPrice": {
        "_hex": "0xd7d40ace3"
      },
      "gasLimit": {
        "_hex": "0x61a8"
      },
      "to": "0xF109ca710C0Df51c1a86dBA1B0BA0Ed038114463",
      "value": {
        "_hex": "0x9e99e7c8b0a8a04"
      },
      "nonce": 2,
      "data": "0x",
      "r": "0x8de8ba13f1c6c02ab5a8d45beebc9bfa300192352278e8b6383c7b8f37994281",
      "s": "0x529412eec7371b5324f2c31743f570bf98336d6d4c0e2e482fff330ca98c9aec",
      "v": 28,
      "creates": null,
      "raw": "0xf86c02850d7d40ace38261a894f109ca710c0df51c1a86dba1b0ba0ed0381144638809e99e7c8b0a8a04801ca08de8ba13f1c6c02ab5a8d45beebc9bfa300192352278e8b6383c7b8f37994281a0529412eec7371b5324f2c31743f570bf98336d6d4c0e2e482fff330ca98c9aec",
      "networkId": 0,
      "chainId": 0
    }
  ]
}