{
  "hash": "0x5a277f8bce69027adc660f38571103d438f17d973d2957ca712909cabeba06cb",
  "parentHash": "0x35fbb3e69720c3578b2f669b7b402f60e3ad76aa46b44fc9719068a0cfd42063",
  "number": 103256,
  "timestamp": 1439850153,
  "nonce": "0x180c8e678418712b",
  "difficulty": 4201296115621,
  "gasLimit": {
    "_hex": "0x2fefd8"
  },
  "gasUsed": {
    "_hex": "0xa410"
  },
  "miner": "0xe6A7a1d47ff21B6321162AEA7C6CB457D5476Bca",
  "extraData": "0x476574682f76312e302e312d38326566323666362f6c696e75782f676f312e34",
  "transactions": [
    {
      "hash": "0x3edbac5186c1a1221d48027253f91d4c78518e29fbaa082ee95afa4f49355926",
      "blockHash": "0x5a277f8bce69027adc660f38571103d438f17d973d2957ca712909cabeba06cb",
      "blockNumber": 103256,
      "transactionIndex": 0,
      "confirmations": null,
      "from": "0x59C7860aBcb1eE791165B63365c3C8657EEe54c5",
      "gasPrice": {
        "_hex": "0xdafc9eacc"
      },
      "gasLimit": {
        "_hex": "0x15f90"
      },
      "to": "0xF42B87d9E83eb6b6947aaBD558904Bc615C6091f",
      "value": {
        "_hex": "0x98a7d9b8314c0000"
      },
      "nonce": 2,
      "data": "0x",
      "r": "0x1a8ca2ecd91da66c56a91a5c757d4c94c6f5a07b973d9e49aa059a2bdd715e2b",
      "s": "0x1c2dc8e4156d66b4846fe07b360d1147c744b5bbfec1a6d63dff80fceaa86ae1",
      "v": 28,
      "creates": null,
      "raw": "0xf86d02850dafc9eacc83015f9094f42b87d9e83eb6b6947aabd558904bc615c6091f8898a7d9b8314c0000801ca01a8ca2ecd91da66c56a91a5c757d4c94c6f5a07b973d9e49aa059a2bdd715e2ba01c2dc8e4156d66b4846fe07b360d1147c744b5bbfec1a6d63dff80fceaa86ae1",
      "networkId": 0,
      "chainId": 0
    },
    {
      "hash": "0x878c0b37118e47dbee92837bf1ffafde7b53bebafc477c0c0a8bf34a432689f5",
      "blockHash": "0x5a277f8bce69027adc660f38571103d438f17d973d2957ca712909cabeba06cb",
      "blockNumber": 103256,
      "transactionIndex": 1,
      "confirmations": null,
      "from": "0x120A270bbC009644e35F0bB6ab13f95b8199c4ad",
      "gasPrice": {
        "_hex": "0xd3526da85"
      },
      "gasLimit": {
        "_hex": "0x3d090"
      },
      "to": "0xf9bD394C293147228a97B62608043ABCC95bA5CE",
      "value": {
        "_hex": "0x9625309132505000"
      },
      "nonce": 714,
      "data": "0x",
      "r": "0x558a1dd2d5dd943505097b5372987a2476a52f0f7802cc807ebdcaa747cdfce2",
      "s": "0x561c098f55105d204ff7493bbfb9a603a56cd68b39f7866de41a444e7c9735bb",
      "v": 27,
      "creates": null,
      "raw": "0xf86f8202ca850d3526da858303d09094f9bd394c293147228a97b62608043abcc95ba5ce889625309132505000801ba0558a1dd2d5dd943505097b5372987a2476a52f0f7802cc807ebdcaa747cdfce2a0561c098f55105d204ff7493bbfb9a603a56cd68b39f7866de41a444e7c9735bb",
      "networkId": 0,
      "chainId": 0
    }
  ]
}