{
  "hash": "0x6a8e11d222bd3e3f3f0bb4e3d5ff2a228b3425b951e6cb38c17d2f9c5d4d2b39",
  "parentHash": "0x27c1d4741c49e6952eb87356140a8742606f2ab4f31879d4f96abbdc6096714c",
  "number": 111424,
  "timestamp": 1439989998,
  "nonce": "0x3e0040e366384006",
  "difficulty": 4441801354052,
  "gasLimit": {
    "_hex": "0x2fefd8"
  },
  "gasUsed": {
    "_hex": "0xf618"
  },
  "miner": "0xe6A7a1d47ff21B6321162AEA7C6CB457D5476Bca",
  "extraData": "0x476574682f76312e302e312d38326566323666362f6c696e75782f676f312e34",
  "transactions": [
    {
      "hash": "0xf5af3e16de98fa60ff25905ed8fab8b82dc767a89a726a2054c11bbd925d6cfe",
      "blockHash": "0x6a8e11d222bd3e3f3f0bb4e3d5ff2a228b3425b951e6cb38c17d2f9c5d4d2b39",
      "blockNumber": 111424,
      "transactionIndex": 0,
      "confirmations": null,
      "from": "0x056507108FE6d30189EcCD6cd7F4Fad56eEef622",
      "gasPrice": {
        "_hex": "0xdc10c1995"
      },
      "gasLimit": {
        "_hex": "0x15f90"
      },
      "to": "0x4207Ce62F4D50541Ca1b8c0a43d1AD3458c5f783",
      "value": {
        "_hex": "0x85848da2db595854"
      },
      "nonce": 18,
      "data": "0x",
      "r": "0x4afd52e374da458012134864b143e91971cc8f1370b295e7c760dc5920c40373",
      "s": "0x5c04b9fb4336eef554a27ad8b2172eb07e8dd9fbac5c5ff4a01f7ae7979df562",
      "v": 27,
      "creates": null,
      "raw": "0xf86d12850dc10c199583015f90944207ce62f4d50541ca1b8c0a43d1ad3458c5f7838885848da2db595854801ba04afd52e374da458012134864b143e91971cc8f1370b295e7c760dc5920c40373a05c04b9fb4336eef554a27ad8b2172eb07e8dd9fbac5c5ff4a01f7ae7979df562",
      "networkId": 0,
      "chainId": 0
    },
    {
      "hash": "0x0ee919ad817b7063abe4f55a7cef322c0acd3792c8a920669189001d19b1f7c9",
      "blockHash": "0x6a8e11d222bd3e3f3f0bb4e3d5ff2a228b3425b951e6cb38c17d2f9c5d4d2b39",
      "blockNumber": 111424,
      "transactionIndex": 1,
      "confirmations": null,
      "from": "0xa9f5E7bf6Cbf6fEc55B30850Eb492b47A376d050",
      "gasPrice": {
        "_hex": "0xd59f248d7"
      },
      "gasLimit": {
        "_hex": "0x5208"
      },
      "to": "0x32Be343B94f860124dC4fEe278FDCBD38C102D88",
      "value": {
        "_hex": "0x153fd40bfafef6000"
      },
      "nonce": 25,
      "data": "0x",
      "r": "0xa0cca8c16dc6e3f59cfd8aa990da496d7261479e44211cb1963bbf8f4ceb21da",
      "s": "0x58076414fbfbec4138945a14dbdde0e768d5a3d482cfd3d64071942ee979176e",
      "v": 27,
      "creates": null,
      "raw": "0xf86d19850d59f248d78252089432be343b94f860124dc4fee278fdcbd38c102d88890153fd40bfafef6000801ba0a0cca8c16dc6e3f59cfd8aa990da496d7261479e44211cb1963bbf8f4ceb21daa058076414fbfbec4138945a14dbdde0e768d5a3d482cfd3d64071942ee979176e",
      "networkId": 0,
      "chainId": 0
    },
    {
      "hash": "0xde16d9bde2d3dd933fdce55ad26ebbc913df6a8c78c4a2361e121cc1a7c929db",
      "blockHash": "0x6a8e11d222bd3e3f3f0bb4e3d5ff2a228b3425b951e6cb38c17d2f9c5d4d2b39",
      "blockNumber": 111424,
      "transactionIndex": 2,
      "confirmations": null,
      "from": "0x132ACC4ebA2B5039C65849368648bc19f32BEd97",
      "gasPrice": {
        "_hex": "0xd59f248d7"
      },
      "gasLimit": {
        "_hex": "0x5208"
      },
      "to": "0x32Be343B94f860124dC4fEe278FDCBD38C102D88",
      "value": {
        "_hex": "0x174c47de05532800"
      },
      "nonce": 5,
      "data": "0x",
      "r": "0xa19c43ce0ca81b4904ed1a688a4788621375d1c50201b48abf80259f8df91a1d",
      "s": "0x242051038338f6b74354af3f2a879ceb465185754375c30cf8b7a714476a264a",
      "v": 28,
      "creates": null,
      "raw": "0xf86c05850d59f248d78252089432be343b94f860124dc4fee278fdcbd38c102d8888174c47de05532800801ca0a19c43ce0ca81b4904ed1a688a4788621375d1c50201b48abf80259f8df91a1da0242051038338f6b74354af3f2a879ceb465185754375c30cf8b7a714476a264a",
      "networkId": 0,
      "chainId": 0
    }
  ]
}