{
  "hash": "0x2160244aaaf126622752a21d4a7c7b1718d231f5020c47c0d899162ef7de4730",
  "parentHash": "0x3784bc1470224b516618032731a443c9e0879078c2487edd4bf1f4445a41f061",
  "number": 115951,
  "timestamp": 1440066017,
  "nonce": "0x6bbcab38d5b63147",
  "difficulty": 4573622235367,
  "gasLimit": {
    "_hex": "0x2fefd8"
  },
  "gasUsed": {
    "_hex": "0x5208"
  },
  "miner": "0xe6A7a1d47ff21B6321162AEA7C6CB457D5476Bca",
  "extraData": "0x476574682f76312e302e312d38326566323666362f6c696e75782f676f312e34",
  "transactions": [
    {
      "hash": "0xedd7aba5246c5978942eaff65cd00e47ff40ca18246e43337b98afebdbafc141",
      "blockHash": "0x2160244aaaf126622752a21d4a7c7b1718d231f5020c47c0d899162ef7de4730",
      "blockNumber": 115951,
      "transactionIndex": 0,
      "confirmations": null,
      "from": "0xc93a69dFC0fb3E867D9207599f7fe87d51619635",
      "gasPrice": {
        "_hex": "0xba43b7400"
      },
      "gasLimit": {
        "_hex": "0x5208"
      },
      "to": "0xC47Aaa860008be6f65B58c6C6E02a84e666EfE31",
      "value": {
        "_hex": "0x6812e624bda1b6000"
      },
      "nonce": 19,
      "data": "0x",
      "r": "0x994c02bb54023d0fca1228a5f02ec6b46e6df9e3eb2906bb3ea11fb2cc29ba12",
      "s": "0x56c58f31fb31aa2c65cb88048d3e36d787504c708d46bc93104552dcdf611d8a",
      "v": 28,
      "creates": null,
      "raw": "0xf86d13850ba43b740082520894c47aaa860008be6f65b58c6c6e02a84e666efe318906812e624bda1b6000801ca0994c02bb54023d0fca1228a5f02ec6b46e6df9e3eb2906bb3ea11fb2cc29ba12a056c58f31fb31aa2c65cb88048d3e36d787504c708d46bc93104552dcdf611d8a",
      "networkId": 0,
      "chainId": 0
    }
  ]
}