{
  "hash": "0x21dc57618821acb6f1d55f56899ef7003df8a8908259f33c236a1621f7204a5b",
  "parentHash": "0x7169301d986b851679e50c2bc541b29138c73c083ab1c0c4bc8d9496e9a6124a",
  "number": 51528,
  "timestamp": 1439006373,
  "nonce": "0x89f0113218d225c9",
  "difficulty": 1565797681025,
  "gasLimit": {
    "_hex": "0xbb748"
  },
  "gasUsed": {
    "_hex": "0x1bbfa"
  },
  "miner": "0x0A63E1A8C33e351679e3581AC84ce341C32f813a",
  "extraData": "0x476574682f76312e302e312d38326566323666362f6c696e75782f676f312e34",
  "transactions": [
    {
      "hash": "0xc438cfcc3b74a28741bda361032f1c6362c34aa0e1cedff693f31ec7d6a12717",
      "blockHash": "0x21dc57618821acb6f1d55f56899ef7003df8a8908259f33c236a1621f7204a5b",
      "blockNumber": 51528,
      "transactionIndex": 0,
      "confirmations": null,
      "from": "0x772839bE0F739D21E2CB761CDA4B3F49A6502481",
      "gasPrice": {
        "_hex": "0xd66450a7e"
      },
      "gasLimit": {
        "_hex": "0x7a120"
      },
      "to": "0xA327075af2a223A1C83a36aDa1126afE7430f955",
      "value": {
        "_hex": "0x8ac7230489e80000"
      },
      "nonce": 0,
      "data": "0x",
      "r": "0x677f6239721b37b29d57681e7ca03cbbf10c6485888ed32e2b4be4a236ab0520",
      "s": "0x1ce6ee38a5bef370dfd59b8aa55b6b1a43ccf7516ad208df474b4a4d58837572",
      "v": 28,
      "creates": null,
      "raw": "0xf86d80850d66450a7e8307a12094a327075af2a223a1c83a36ada1126afe7430f955888ac7230489e80000801ca0677f6239721b37b29d57681e7ca03cbbf10c6485888ed32e2b4be4a236ab0520a01ce6ee38a5bef370dfd59b8aa55b6b1a43ccf7516ad208df474b4a4d58837572",
      "networkId": 0,
      "chainId": 0
    },
    {
      "hash": "0x0d6971edd84d2abd81ac0e5d342894c0d2960557b354c6941f32fdd48921ecc5",
      "blockHash": "0x21dc57618821acb6f1d55f56899ef7003df8a8908259f33c236a1621f7204a5b",
      "blockNumber": 51528,
      "transactionIndex": 1,
      "confirmations": null,
      "from": "0x91404fD245647b7a1A62120407201eaCe266dC64",
      "gasPrice": {
        "_hex": "0xcd5499d0c"
      },
      "gasLimit": {
        "_hex": "0x7a120"
      },
      "to": "0xA327075af2a223A1C83a36aDa1126afE7430f955",
      "value": {
        "_hex": "0x8ac7230489e80000"
      },
      "nonce": 0,
      "data": "0x",
      "r": "0x584185ee88062b090557051fcdafabf668925071f2da58202943073e0b31b59f",
      "s": "0x1968695284b81a18cbbc08bb3a191fee10cad3ae390eac6ba4846c6d755a4409",
      "v": 27,
      "creates": null,
      "raw": "0xf86d80850cd5499d0c8307a12094a327075af2a223a1c83a36ada1126afe7430f955888ac7230489e80000801ba0584185ee88062b090557051fcdafabf668925071f2da58202943073e0b31b59fa01968695284b81a18cbbc08bb3a191fee10cad3ae390eac6ba4846c6d755a4409",
      "networkId": 0,
      "chainId": 0
    }
  ]
}