{
  "hash": "0x8d59c37b9e3e19bc01dec3f9d9031e66ab922380fcdc15298b48616ed9a38f9c",
  "parentHash": "0x1b7223bcef0f17de4e4968ecd8af3513fd1fcd9acf4547d1a58efefa807eee42",
  "number": 83834,
  "timestamp": 1439541588,
  "nonce": "0x5951ec3add86b341",
  "difficulty": 2441924460145,
  "gasLimit": {
    "_hex": "0x2fefd8"
  },
  "gasUsed": {
    "_hex": "0x5208"
  },
  "miner": "0xe6A7a1d47ff21B6321162AEA7C6CB457D5476Bca",
  "extraData": "0x476574682f76312e302e312d38326566323666362f6c696e75782f676f312e34",
  "transactions": [
    {
      "hash": "0x86b71d771c20e58163b75173e913265d5abf8e5e42810bd0fd78a0df10e4cdfd",
      "blockHash": "0x8d59c37b9e3e19bc01dec3f9d9031e66ab922380fcdc15298b48616ed9a38f9c",
      "blockNumber": 83834,
      "transactionIndex": 0,
      "confirmations": null,
      "from": "0x32Be343B94f860124dC4fEe278FDCBD38C102D88",
      "gasPrice": {
        "_hex": "0xd77a81b1c"
      },
      "gasLimit": {
        "_hex": "0x5208"
      },
      "to": "0x2071130408d9aAf3D5D65953118c3FE37aCB8D04",
      "value": {
        "_hex": "0x91b545ef369df0000"
      },
      "nonce": 663,
      "data": "0x",
      "r": "0x298b3d7e261ab6e45bfd5093eaa46bfebe2ad0b8065474363ec86c007a5ad668",
      "s": "0x11f08469d1a3f510b113db41a4a7cf5ac0c53af5c0c1417352ba53bbef4976bf",
      "v": 28,
      "creates": null,
      "raw": "0xf86f820297850d77a81b1c825208942071130408d9aaf3d5d65953118c3fe37acb8d0489091b545ef369df0000801ca0298b3d7e261ab6e45bfd5093eaa46bfebe2ad0b8065474363ec86c007a5ad668a011f08469d1a3f510b113db41a4a7cf5ac0c53af5c0c1417352ba53bbef4976bf",
      "networkId": 0,
      "chainId": 0
    }
  ]
}