{
  "hash": "0x7a64729254c3c645e346ba90eb4c030a972fb1f9bf2c8b72513d384c73e9f8a1",
  "parentHash": "0xb9d248296c9963cfb9975ae01860677dce1aec7bd7b354d7e76fae57aafba363",
  "number": 60289,
  "timestamp": 1439152921,
  "nonce": "0xc5e1a37188cd11fb",
  "difficulty": 1744098370723,
  "gasLimit": {
    "_hex": "0x2fefd5"
  },
  "gasUsed": {
    "_hex": "0x5208"
  },
  "miner": "0x9746c7e1ef2bd21FF3997fa467593a89cb852BD0",
  "extraData": "0x476574682f76312e302e312f77696e646f77732f676f312e342e32",
  "transactions": [
    {
      "hash": "0x6240d90c7fde944adaaae4ebfe13d25e67df376ec9f5698d3c0ebe3a4bbd1ba1",
      "blockHash": "0x7a64729254c3c645e346ba90eb4c030a972fb1f9bf2c8b72513d384c73e9f8a1",
      "blockNumber": 60289,
      "transactionIndex": 0,
      "confirmations": null,
      "from": "0x2910543Af39abA0Cd09dBb2D50200b3E800A63D2",
      "gasPrice": {
        "_hex": "0xddb7d59c3"
      },
      "gasLimit": {
        "_hex": "0x5208"
      },
      "to": "0x5edeF194D1fB66CDeB5ca06baC41be4f3E2D0BE2",
      "value": {
        "_hex": "0x1"
      },
      "nonce": 14,
      "data": "0x",
      "r": "0xfd12a0e4af15377b6107a3591d757bde97bd2fa1f7108cfa5df4f90fe20631a7",
      "s": "0x73feb96d635290ccd338d281ec42c1d946634ecfa143c156d3c157d2ed98bfa5",
      "v": 28,
      "creates": null,
      "raw": "0xf8640e850ddb7d59c3825208945edef194d1fb66cdeb5ca06bac41be4f3e2d0be201801ca0fd12a0e4af15377b6107a3591d757bde97bd2fa1f7108cfa5df4f90fe20631a7a073feb96d635290ccd338d281ec42c1d946634ecfa143c156d3c157d2ed98bfa5",
      "networkId": 0,
      "chainId": 0
    }
  ]
}