{
  "hash": "0x756259f29d5aa4880f439907aeeb1f998ec0b880a2718f4c904fee6dc3b544ab",
  "parentHash": "0x43a161c27d090d9768852bef76adb8afd4334fd8fd775fc4aae090a36f39d0f3",
  "number": 108864,
  "timestamp": 1439947409,
  "nonce": "0x2ab3cd63e9797218",
  "difficulty": 4378546157158,
  "gasLimit": {
    "_hex": "0x2fefd8"
  },
  "gasUsed": {
    "_hex": "0x5208"
  },
  "miner": "0x0eDEd3DA479d0beF8eeC92A76644D3f4E3C177f7",
  "extraData": "0x476574682f76312e302e312f6c696e75782f676f312e342e32",
  "transactions": [
    {
      "hash": "0x63fb916a9df6387555267b4abb82b0168c0dd41f239cced56805858a55fd1987",
      "blockHash": "0x756259f29d5aa4880f439907aeeb1f998ec0b880a2718f4c904fee6dc3b544ab",
      "blockNumber": 108864,
      "transactionIndex": 0,
      "confirmations": null,
      "from": "0x0D4EcC7d750180EBf4A9Df728B6669B5Bceb5E40",
      "gasPrice": {
        "_hex": "0xdf2fefdc5"
      },
      "gasLimit": {
        "_hex": "0x5208"
      },
      "to": "0x32Be343B94f860124dC4fEe278FDCBD38C102D88",
      "value": {
        "_hex": "0x22ad507deabecc00"
      },
      "nonce": 96,
      "data": "0x",
      "r": "0x683c264a6abb1668249c9efff33f8b1e3ba272f55edfeba678946f31e7484a75",
      "s": "0x0130945b2cc3cda02770058d767816fa2428b2d21849f46b104b9dea1fb0cb6e",
      "v": 28,
      "creates": null,
      "raw": "0xf86c60850df2fefdc58252089432be343b94f860124dc4fee278fdcbd38c102d888822ad507deabecc00801ca0683c264a6abb1668249c9efff33f8b1e3ba272f55edfeba678946f31e7484a75a00130945b2cc3cda02770058d767816fa2428b2d21849f46b104b9dea1fb0cb6e",
      "networkId": 0,
      "chainId": 0
    }
  ]
}