{
  "hash": "0x3bcc60c42ac321441fafc076a9d2bba902b7ee3f78254ab5687b46669214946f",
  "parentHash": "0x8cf4133bbd8eb7f7f327cadd124c32ac763474c04b8ec632e2caf21b639bc1e8",
  "number": 97854,
  "timestamp": 1439762989,
  "nonce": "0xb7ef0e4af96d2d68",
  "difficulty": 3842769336986,
  "gasLimit": {
    "_hex": "0x2fefd8"
  },
  "gasUsed": {
    "_hex": "0x5208"
  },
  "miner": "0xe6A7a1d47ff21B6321162AEA7C6CB457D5476Bca",
  "extraData": "0x476574682f76312e302e312d38326566323666362f6c696e75782f676f312e34",
  "transactions": [
    {
      "hash": "0xc6194ed3dca98e4672ef623f5740b7456b64dca8b4f762ddf1ddd2363389706c",
      "blockHash": "0x3bcc60c42ac321441fafc076a9d2bba902b7ee3f78254ab5687b46669214946f",
      "blockNumber": 97854,
      "transactionIndex": 0,
      "confirmations": null,
      "from": "0xa6BDc31c431B8F97848c9D60cbbe9660dc450eB7",
      "gasPrice": {
        "_hex": "0xd0abf6a18"
      },
      "gasLimit": {
        "_hex": "0x5208"
      },
      "to": "0x32Be343B94f860124dC4fEe278FDCBD38C102D88",
      "value": {
        "_hex": "0x455f57c180751000"
      },
      "nonce": 136,
      "data": "0x",
      "r": "0xe0295eff542a5f57ad16fc1318b25caf3a6fa6a079b1fee756bca407067de679",
      "s": "0x77da5cab9d2739a4687753f77ac6322710ff754786ac09ab026b3b00abc73fa8",
      "v": 28,
      "creates": null,
      "raw": "0xf86d8188850d0abf6a188252089432be343b94f860124dc4fee278fdcbd38c102d8888455f57c180751000801ca0e0295eff542a5f57ad16fc1318b25caf3a6fa6a079b1fee756bca407067de679a077da5cab9d2739a4687753f77ac6322710ff754786ac09ab026b3b00abc73fa8",
      "networkId": 0,
      "chainId": 0
    }
  ]
}