{
  "hash": "0x994ff988b66000fee7a39afb33edaaad6d6e56448748e894ed74d48bd6a8a8f2",
  "parentHash": "0x32a707124acd7054c961db488d701f2adeaca8fc0eea5f600fe3bcd337424e14",
  "number": 84599,
  "timestamp": 1439551884,
  "nonce": "0xc4af23a28954e4b8",
  "difficulty": 2587780917459,
  "gasLimit": {
    "_hex": "0x2fefd8"
  },
  "gasUsed": {
    "_hex": "0xa674"
  },
  "miner": "0xF11940EA05aA9CC3F13aCF5C5cA6EDCF312E3Aec",
  "extraData": "0x476574682f76312e302e312f77696e646f77732f676f312e342e32",
  "transactions": [
    {
      "hash": "0x8fe5e94476ea48c6809643a27eb87946bf861fb1e781f53861287730e0794ab9",
      "blockHash": "0x994ff988b66000fee7a39afb33edaaad6d6e56448748e894ed74d48bd6a8a8f2",
      "blockNumber": 84599,
      "transactionIndex": 0,
      "confirmations": null,
      "from": "0x5E7b8c54Dc57B0402062719DEE7eF5E37Ea35D62",
      "gasPrice": {
        "_hex": "0x110c8f7d8de"
      },
      "gasLimit": {
        "_hex": "0xc350"
      },
      "to": "0x2910543Af39abA0Cd09dBb2D50200b3E800A63D2",
      "value": {
        "_hex": "0x9bb101af7de9e00000"
      },
      "nonce": 1,
      "data": "0x454e51305731514747",
      "r": "0x4146ee902974269ae3556c00307c77d3d93437a349d9b8c5a42df32e33704cb4",
      "s": "0xa23113f5bbc5db3678be4dfdc67d16cca7463f72e133e62d61b3130585b2f439",
      "v": 28,
      "creates": null,
      "raw": "0xf87701860110c8f7d8de82c350942910543af39aba0cd09dbb2d50200b3e800a63d2899bb101af7de9e0000089454e513057315147471ca04146ee902974269ae3556c00307c77d3d93437a349d9b8c5a42df32e33704cb4a0a23113f5bbc5db3678be4dfdc67d16cca7463f72e133e62d61b3130585b2f439",
      "networkId": 0,
      "chainId": 0
    },
    {
      "hash": "0xb45c275389bcb46bc152a22b9a5055f37b938fd0b4953e17ccf188eae7bbc419",
      "blockHash": "0x994ff988b66000fee7a39afb33edaaad6d6e56448748e894ed74d48bd6a8a8f2",
      "blockNumber": 84599,
      "transactionIndex": 1,
      "confirmations": null,
      "from": "0x5b7784caeA01799cA30227827667CE207C5CBc76",
      "gasPrice": {
        "_hex": "0xd23ee12e2"
      },
      "gasLimit": {
        "_hex": "0x5208"
      },
      "to": "0x0B5D1D51C62F23d80e14EC7B5922c37cC75f25EB",
      "value": {
        "_hex": "0x2710"
      },
      "nonce": 0,
      "data": "0x",
      "r": "0x5727d0a78817d67f1b16c925a64ee04abb0465fc6e89334e55194acb465a4367",
      "s": "0x5f5e5336fe985e13545d2b28f8f9a113121e342c95d772351953480d76460985",
      "v": 27,
      "creates": null,
      "raw": "0xf86680850d23ee12e2825208940b5d1d51c62f23d80e14ec7b5922c37cc75f25eb822710801ba05727d0a78817d67f1b16c925a64ee04abb0465fc6e89334e55194acb465a4367a05f5e5336fe985e13545d2b28f8f9a113121e342c95d772351953480d76460985",
      "networkId": 0,
      "chainId": 0
    }
  ]
}