{
  "hash": "0x8ced23facae5ffe1a732609d6cae66676c36fd846cbe14806ac429eb72c8e2be",
  "parentHash": "0x740cf917a15619e47e7f1b18bd74c8dcb8efe6e13612fdd9b8c3502ea47f1dea",
  "number": 47425,
  "timestamp": 1438940147,
  "nonce": "0xdeefb622988d553d",
  "difficulty": 1450958464349,
  "gasLimit": {
    "_hex": "0xbcff"
  },
  "gasUsed": {
    "_hex": "0x5208"
  },
  "miner": "0x5F8F73E26CdF436f19Cb24C82F90A15AFe55b592",
  "extraData": "0x476574682f76312e302e312f77696e646f77732f676f312e342e32",
  "transactions": [
    {
      "hash": "0xd94d0a8d4db615a85d0d219da0ff2e27231d87ed759f256c71a34b92cf59fcc2",
      "blockHash": "0x8ced23facae5ffe1a732609d6cae66676c36fd846cbe14806ac429eb72c8e2be",
      "blockNumber": 47425,
      "transactionIndex": 0,
      "confirmations": null,
      "from": "0xe6A7a1d47ff21B6321162AEA7C6CB457D5476Bca",
      "gasPrice": {
        "_hex": "0x1dcda6f132"
      },
      "gasLimit": {
        "_hex": "0x5208"
      },
      "to": "0x8b2A772D304712e5cb3FBb6A42b57399799a7B95",
      "value": {
        "_hex": "0x1470590fb481bc1b0"
      },
      "nonce": 142,
      "data": "0x",
      "r": "0x64dfd154ffb8dca37461f21b88800d7a3bfbe75b8a67e29b9b42230a3a9a4429",
      "s": "0x60342c38411f08d6a2600fa91a8cd4480b9ef85c6a4125f98fca20bb02bd567e",
      "v": 27,
      "creates": null,
      "raw": "0xf86e818e851dcda6f132825208948b2a772d304712e5cb3fbb6a42b57399799a7b958901470590fb481bc1b0801ba064dfd154ffb8dca37461f21b88800d7a3bfbe75b8a67e29b9b42230a3a9a4429a060342c38411f08d6a2600fa91a8cd4480b9ef85c6a4125f98fca20bb02bd567e",
      "networkId": 0,
      "chainId": 0
    }
  ]
}