{
  "hash": "0x2b2a3e486701ab23dce266d984d0b06c2c290b9259767b4083bcc7c31c39453a",
  "parentHash": "0x2a557260707af3da363af6a584bd3106f10f0f2e28c25d53e11e22c4b6b6c768",
  "number": 101831,
  "timestamp": 1439828703,
  "nonce": "0xfcf645caeee3ad20",
  "difficulty": 3888121845609,
  "gasLimit": {
    "_hex": "0x2fe3db"
  },
  "gasUsed": {
    "_hex": "0x5208"
  },
  "miner": "0xe6A7a1d47ff21B6321162AEA7C6CB457D5476Bca",
  "extraData": "0x476574682f76312e302e312d38326566323666362f6c696e75782f676f312e34",
  "transactions": [
    {
      "hash": "0x1b68ff0b972127a74f8929fd6608966330fad5172e0dcb2b8886641fe46202bc",
      "blockHash": "0x2b2a3e486701ab23dce266d984d0b06c2c290b9259767b4083bcc7c31c39453a",
      "blockNumber": 101831,
      "transactionIndex": 0,
      "confirmations": null,
      "from": "0x15D8B2E0f97030dE1a38698C07307C38B2A55037",
      "gasPrice": {
        "_hex": "0xd7d40ace3"
      },
      "gasLimit": {
        "_hex": "0x15f90"
      },
      "to": "0x2D1d94521E896625F8Ec3f65171Fa82262Da6BCF",
      "value": {
        "_hex": "0xde0b6b3a7640000"
      },
      "nonce": 0,
      "data": "0x",
      "r": "0x9a5bf898d8c66b2910560afcae928adae5828fd14a82bb738dcb880e745ae469",
      "s": "0x7b1a05e248e685d9a603dfe6ef4799266778b1ffe59c3a8f1572868f28c0ca21",
      "v": 27,
      "creates": null,
      "raw": "0xf86d80850d7d40ace383015f90942d1d94521e896625f8ec3f65171fa82262da6bcf880de0b6b3a7640000801ba09a5bf898d8c66b2910560afcae928adae5828fd14a82bb738dcb880e745ae469a07b1a05e248e685d9a603dfe6ef4799266778b1ffe59c3a8f1572868f28c0ca21",
      "networkId": 0,
      "chainId": 0
    }
  ]
}