{
  "hash": "0x424c2ad445e9617e6fcb05a91bcfe5bc35e404454d2cfac6913e52c42fe454af",
  "parentHash": "0x14d05622bd642d382bc8a80632393454293c05bc392db096c69370206b20f55b",
  "number": 101529,
  "timestamp": 1439824295,
  "nonce": "0x4ebdb27590b5244c",
  "difficulty": 3869322446620,
  "gasLimit": {
    "_hex": "0x2fefd8"
  },
  "gasUsed": {
    "_hex": "0xa410"
  },
  "miner": "0xbb7B8287f3F0a933474a79eAe42CBCa977791171",
  "extraData": "0x476574682f4c5649562f76312e302e312f6c696e75782f676f312e342e32",
  "transactions": [
    {
      "hash": "0x41f408e7605d7184597c07904e1a5372a5403de188425a4f58ca95d164ffe562",
      "blockHash": "0x424c2ad445e9617e6fcb05a91bcfe5bc35e404454d2cfac6913e52c42fe454af",
      "blockNumber": 101529,
      "transactionIndex": 0,
      "confirmations": null,
      "from": "0x120A270bbC009644e35F0bB6ab13f95b8199c4ad",
      "gasPrice": {
        "_hex": "0xd8b52faf1"
      },
      "gasLimit": {
        "_hex": "0x3d090"
      },
      "to": "0x8f7f160D267B54245003AaEeDB71b3cDD3A8BB65",
      "value": {
        "_hex": "0xde0b6b3a7640000"
      },
      "nonce": 681,
      "data": "0x",
      "r": "0xf0e50805a89b48431e337693c27e36341273fe3c4a531be674a4479e0a2295f1",
      "s": "0x76cda428bf886b01778a18f49594a3c0ccd15f8028e3fc4aeccb7f8cdcdd3a49",
      "v": 28,
      "creates": null,
      "raw": "0xf86f8202a9850d8b52faf18303d090948f7f160d267b54245003aaeedb71b3cdd3a8bb65880de0b6b3a7640000801ca0f0e50805a89b48431e337693c27e36341273fe3c4a531be674a4479e0a2295f1a076cda428bf886b01778a18f49594a3c0ccd15f8028e3fc4aeccb7f8cdcdd3a49",
      "networkId": 0,
      "chainId": 0
    },
    {
      "hash": "0x45c60d2b229eed62a6242dda5f7b03d4ad07546d6cc6223d686574dd1c837351",
      "blockHash": "0x424c2ad445e9617e6fcb05a91bcfe5bc35e404454d2cfac6913e52c42fe454af",
      "blockNumber": 101529,
      "transactionIndex": 1,
      "confirmations": null,
      "from": "0x120A270bbC009644e35F0bB6ab13f95b8199c4ad",
      "gasPrice": {
        "_hex": "0xd8b52faf1"
      },
      "gasLimit": {
        "_hex": "0x3d090"
      },
      "to": "0x67B4e029F237851d2b3aBA89D23f2D142FDF42FD",
      "value": {
        "_hex": "0x1bc16d674ec80000"
      },
      "nonce": 682,
      "data": "0x",
      "r": "0xf29360f0871f9210a2a6df01cb1f38b9009ae3b23d9c5abdac55e7c016ae858f",
      "s": "0x0c10544c7fc2ec60318697a2f912a1b6bb8ce608adb0ca6be1426347ec1c029a",
      "v": 27,
      "creates": null,
      "raw": "0xf86f8202aa850d8b52faf18303d0909467b4e029f237851d2b3aba89d23f2d142fdf42fd881bc16d674ec80000801ba0f29360f0871f9210a2a6df01cb1f38b9009ae3b23d9c5abdac55e7c016ae858fa00c10544c7fc2ec60318697a2f912a1b6bb8ce608adb0ca6be1426347ec1c029a",
      "networkId": 0,
      "chainId": 0
    }
  ]
}