{
  "hash": "0x6f85a7584f208082e9043beed41031a2648e6bfea690b49fd95b6bb00d763383",
  "parentHash": "0x63e39c64335f67371746daedc27c84032ef1d0e09d970359ebbe40d5528f3471",
  "number": 71310,
  "timestamp": 1439334082,
  "nonce": "0x8af57f9a206b2cbd",
  "difficulty": 2158210506419,
  "gasLimit": {
    "_hex": "0x2fefd8"
  },
  "gasUsed": {
    "_hex": "0xaec1"
  },
  "miner": "0x753562eEA69CD2D342A9c07EDD49b9753dc0F01e",
  "extraData": "0x476574682f76312e302e312f6c696e75782f676f312e342e32",
  "transactions": [
    {
      "hash": "0xf61e14aadae38e9759e5e7cd5786f74a3d7c4bb825afe2a11bd09221c40e2473",
      "blockHash": "0x6f85a7584f208082e9043beed41031a2648e6bfea690b49fd95b6bb00d763383",
      "blockNumber": 71310,
      "transactionIndex": 0,
      "confirmations": null,
      "from": "0x17580B766f7453525ca4C6A88b01b50570EA088C",
      "gasPrice": {
        "_hex": "0xd17757db7"
      },
      "gasLimit": {
        "_hex": "0x61a80"
      },
      "to": "0x5Fe5B7546D1628f7348B023A0393de1FC825A4fD",
      "value": {
        "_hex": "0x1bc16d674ec80000"
      },
      "nonce": 150,
      "data": "0xb595b8b50000000000000000000000000000000000000000000000000000000000000001",
      "r": "0x8253cc64eab5745bee196244d3eb8c0905bf5f30eba86645c63c4a61b66da731",
      "s": "0x3005b5a9bd6b1ba2cc38df1a9baba344d91b90c0e8ae403e8f70e022c5909a66",
      "v": 28,
      "creates": null,
      "raw": "0xf8928196850d17757db783061a80945fe5b7546d1628f7348b023a0393de1fc825a4fd881bc16d674ec80000a4b595b8b500000000000000000000000000000000000000000000000000000000000000011ca08253cc64eab5745bee196244d3eb8c0905bf5f30eba86645c63c4a61b66da731a03005b5a9bd6b1ba2cc38df1a9baba344d91b90c0e8ae403e8f70e022c5909a66",
      "networkId": 0,
      "chainId": 0
    }
  ]
}