{
  "hash": "0x4165ddd8ab31bf4bd7fdee20f72b08ef101428a05db21e790c2a93f8c8dbeeed",
  "parentHash": "0x6a521e42b02f041452cc4532ee73ff3a23be48dba737f153dc56b4559f9ade46",
  "number": 85592,
  "timestamp": 1439565875,
  "nonce": "0x61c11f009612b0d7",
  "difficulty": 2777310829011,
  "gasLimit": {
    "_hex": "0x2fefd8"
  },
  "gasUsed": {
    "_hex": "0x5208"
  },
  "miner": "0xf927a40C8B7F6E07c5af7FA2155B4864a4112B13",
  "extraData": "0x",
  "transactions": [
    {
      "hash": "0xf2d4e33e0fe9110fef80979eac04313e9ccc21beff7cc271d3f4aa4d870547be",
      "blockHash": "0x4165ddd8ab31bf4bd7fdee20f72b08ef101428a05db21e790c2a93f8c8dbeeed",
      "blockNumber": 85592,
      "transactionIndex": 0,
      "confirmations": null,
      "from": "0x20134CBFf88bFADc466b52ECEAA79857891d831E",
      "gasPrice": {
        "_hex": "0xd4be89f70"
      },
      "gasLimit": {
        "_hex": "0x15f90"
      },
      "to": "0x0000000000000000000000000000000000000000",
      "value": {
        "_hex": "0x55de6a779bbac0000"
      },
      "nonce": 6,
      "data": "0x",
      "r": "0x1c213d1323e0b8e50a1bd7a0d32f6e0e87d7214c716f9676a2cc77e61a892185",
      "s": "0x1dc51b1c769d34917bebcde29503d8c3bd6a82e8b72a22591b5f320bfdaed01f",
      "v": 28,
      "creates": null,
      "raw": "0xf86e06850d4be89f7083015f9094000000000000000000000000000000000000000089055de6a779bbac0000801ca01c213d1323e0b8e50a1bd7a0d32f6e0e87d7214c716f9676a2cc77e61a892185a01dc51b1c769d34917bebcde29503d8c3bd6a82e8b72a22591b5f320bfdaed01f",
      "networkId": 0,
      "chainId": 0
    }
  ]
}