{
  "hash": "0xae326f3fbef715a5fbf77edb95fbfda26ce75149578e3c6576acf4544b300b54",
  "parentHash": "0xb8c175fb778a2ed7f135546a3ac64ea13aef61c4dd889121761cc77c9cba4788",
  "number": 101540,
  "timestamp": 1439824409,
  "nonce": "0x049cf3974dfafd58",
  "difficulty": 3874989471948,
  "gasLimit": {
    "_hex": "0x2fefd8"
  },
  "gasUsed": {
    "_hex": "0x5208"
  },
  "miner": "0x87898CE53471043FcCa0a2aF4E1dC6d8B3fCf607",
  "extraData": "0x476574682f5369626572696131392f76312e302e312d39393231366634612f6c",
  "transactions": [
    {
      "hash": "0x6c69d4937305ea48f71f7558584de44e24dcd0a0090c58e2e5afc1c394014e32",
      "blockHash": "0xae326f3fbef715a5fbf77edb95fbfda26ce75149578e3c6576acf4544b300b54",
      "blockNumber": 101540,
      "transactionIndex": 0,
      "confirmations": null,
      "from": "0x037658E13e294088Cfd16A534b9C1F3B37282eB2",
      "gasPrice": {
        "_hex": "0xcdee0b95e"
      },
      "gasLimit": {
        "_hex": "0x5208"
      },
      "to": "0x32Be343B94f860124dC4fEe278FDCBD38C102D88",
      "value": {
        "_hex": "0x4f50a781164e2800"
      },
      "nonce": 2,
      "data": "0x",
      "r": "0xc585dfd524a1c2a5059bf1d3286e8ac4a848ad531bc4eb6e9266fe6a1d5fcbfc",
      "s": "0x6b3b07880931f364802abd9889f5cbcb25389831bfd5fb0d39702089bc96c59a",
      "v": 28,
      "creates": null,
      "raw": "0xf86c02850cdee0b95e8252089432be343b94f860124dc4fee278fdcbd38c102d88884f50a781164e2800801ca0c585dfd524a1c2a5059bf1d3286e8ac4a848ad531bc4eb6e9266fe6a1d5fcbfca06b3b07880931f364802abd9889f5cbcb25389831bfd5fb0d39702089bc96c59a",
      "networkId": 0,
      "chainId": 0
    }
  ]
}