{
  "hash": "0x28cc16bd67ba3c030b8a3cebcf38322a1d09af0dad2a6209d0e45c81fa477559",
  "parentHash": "0xed9a389a0afed962db9adc12869ac28b5ef4eb38466852b6e9927202fd1de61a",
  "number": 67505,
  "timestamp": 1439273154,
  "nonce": "0x744c936479989301",
  "difficulty": 1919485554792,
  "gasLimit": {
    "_hex": "0x2fefd8"
  },
  "gasUsed": {
    "_hex": "0x5208"
  },
  "miner": "0x785ffdDd5cE55c6DF963f345e68d3F2024E5Acb1",
  "extraData": "0x476574682f4d69676e6f7474652f76312e302e312f6c696e75782f676f312e34",
  "transactions": [
    {
      "hash": "0xe4c46093c91da20f2ba322614d30190fb323915142bb1862916814d7cb813276",
      "blockHash": "0x28cc16bd67ba3c030b8a3cebcf38322a1d09af0dad2a6209d0e45c81fa477559",
      "blockNumber": 67505,
      "transactionIndex": 0,
      "confirmations": null,
      "from": "0x120A270bbC009644e35F0bB6ab13f95b8199c4ad",
      "gasPrice": {
        "_hex": "0xdf33efc2e"
      },
      "gasLimit": {
        "_hex": "0x15f90"
      },
      "to": "0x63116ca569ba01384f4B68C196f4745cf45C7d11",
      "value": {
        "_hex": "0x46791fc84e07d00000"
      },
      "nonce": 165,
      "data": "0x",
      "r": "0x33da7850697edd8afb12fa9970c54e8c33fd5371e259481098d74b7379a90a7e",
      "s": "0x4cbbff20b1ca9bd53a7fe85404e58a873da1c0243a0875c69379815183377f84",
      "v": 27,
      "creates": null,
      "raw": "0xf86f81a5850df33efc2e83015f909463116ca569ba01384f4b68c196f4745cf45c7d118946791fc84e07d00000801ba033da7850697edd8afb12fa9970c54e8c33fd5371e259481098d74b7379a90a7ea04cbbff20b1ca9bd53a7fe85404e58a873da1c0243a0875c69379815183377f84",
      "networkId": 0,
      "chainId": 0
    }
  ]
}