{
  "hash": "0xff7d9490475fbafd81e0e3fb71c616fb25ec19e0315fe758983f11a593f8bb87",
  "parentHash": "0x75b827a4a01bf06fe9c9414fdd2e3ccc5c58100dff9b8d11382c18945138c9b8",
  "number": 85145,
  "timestamp": 1439559094,
  "nonce": "0xbf6e2ed66e075b23",
  "difficulty": 2741082248476,
  "gasLimit": {
    "_hex": "0x2fefd8"
  },
  "gasUsed": {
    "_hex": "0xa410"
  },
  "miner": "0xe6A7a1d47ff21B6321162AEA7C6CB457D5476Bca",
  "extraData": "0x476574682f76312e302e312d38326566323666362f6c696e75782f676f312e34",
  "transactions": [
    {
      "hash": "0x465c4c0658c3ee815b038972c9f7db6f9ed59c7909cb3fbe3d593c35a4c4fc48",
      "blockHash": "0xff7d9490475fbafd81e0e3fb71c616fb25ec19e0315fe758983f11a593f8bb87",
      "blockNumber": 85145,
      "transactionIndex": 0,
      "confirmations": null,
      "from": "0x139B148094C50F4d20b01cAf21B85eDb711574dB",
      "gasPrice": {
        "_hex": "0xd4e475eb8"
      },
      "gasLimit": {
        "_hex": "0x7530"
      },
      "to": "0x8EB44b62108312F9764f111B35c9A291089d8173",
      "value": {
        "_hex": "0xde0b6b3a7640000"
      },
      "nonce": 0,
      "data": "0x",
      "r": "0xf2ea382bc9d82fa11929d3086490fb2bf7c138696a4b255122f59cd90cc1f7b1",
      "s": "0x69385f74a3c21060168315bd7fefdec3c51d9427c0642c29c2dc31e6c6d30172",
      "v": 28,
      "creates": null,
      "raw": "0xf86c80850d4e475eb8827530948eb44b62108312f9764f111b35c9a291089d8173880de0b6b3a7640000801ca0f2ea382bc9d82fa11929d3086490fb2bf7c138696a4b255122f59cd90cc1f7b1a069385f74a3c21060168315bd7fefdec3c51d9427c0642c29c2dc31e6c6d30172",
      "networkId": 0,
      "chainId": 0
    },
    {
      "hash": "0xc9105d940b96b6b5d4bf8a77127e167cac77067e8eebdafa1e472aa1df6f37ac",
      "blockHash": "0xff7d9490475fbafd81e0e3fb71c616fb25ec19e0315fe758983f11a593f8bb87",
      "blockNumber": 85145,
      "transactionIndex": 1,
      "confirmations": null,
      "from": "0xAF654b2845616930f74573a909B477E23752DcA4",
      "gasPrice": {
        "_hex": "0xba43b7400"
      },
      "gasLimit": {
        "_hex": "0x5264"
      },
      "to": "0x014e478251F22a79fA7014f285647d91462A9669",
      "value": {
        "_hex": "0x0"
      },
      "nonce": 1,
      "data": "0x",
      "r": "0x61cbcd91098460084e13b2c5403daf3928b23bec8dfe8a637d3a79f8997736b8",
      "s": "0xc6aa6397086a99452913f4f40c319727dbfe74a5837e728470fff59e27729170",
      "v": 27,
      "creates": null,
      "raw": "0xf86401850ba43b740082526494014e478251f22a79fa7014f285647d91462a966980801ba061cbcd91098460084e13b2c5403daf3928b23bec8dfe8a637d3a79f8997736b8a0c6aa6397086a99452913f4f40c319727dbfe74a5837e728470fff59e27729170",
      "networkId": 0,
      "chainId": 0
    }
  ]
}