{
  "hash": "0x456df35d15f7c3bc769a0a9f3b5eb64c6c14cd889ab65e043e049675e2c4a711",
  "parentHash": "0x15c91e773df2f0bdae98764ffca8d01bf460e392301a80ae60117836da97d4df",
  "number": 95923,
  "timestamp": 1439732145,
  "nonce": "0x5359fb4336413d4f",
  "difficulty": 3612542281834,
  "gasLimit": {
    "_hex": "0x2fefd8"
  },
  "gasUsed": {
    "_hex": "0xa410"
  },
  "miner": "0x7401a69c0eE823157d3e28dD29f870A08D47567D",
  "extraData": "0x476574682f76312e302e312f6c696e75782f676f312e342e32",
  "transactions": [
    {
      "hash": "0x6c27dd783a52eeb84bd2c4c93e29610d6ab6c2a3bf84041598bfc56be50a9daa",
      "blockHash": "0x456df35d15f7c3bc769a0a9f3b5eb64c6c14cd889ab65e043e049675e2c4a711",
      "blockNumber": 95923,
      "transactionIndex": 0,
      "confirmations": null,
      "from": "0x2910543Af39abA0Cd09dBb2D50200b3E800A63D2",
      "gasPrice": {
        "_hex": "0xe02ce8b50"
      },
      "gasLimit": {
        "_hex": "0x5208"
      },
      "to": "0x2bc0c92E4De6f4C5650B1605B989a11b644F5dE9",
      "value": {
        "_hex": "0x11c37937e08000"
      },
      "nonce": 904,
      "data": "0x",
      "r": "0x2e63f046515adb7eedff5d03707fbb981d0577403ac4ad828687ad2ad4405aeb",
      "s": "0x1d9f299766e8dff90ac9b7ac28dd1bef8298c9a646e166951387abd576e40d6b",
      "v": 27,
      "creates": null,
      "raw": "0xf86d820388850e02ce8b50825208942bc0c92e4de6f4c5650b1605b989a11b644f5de98711c37937e08000801ba02e63f046515adb7eedff5d03707fbb981d0577403ac4ad828687ad2ad4405aeba01d9f299766e8dff90ac9b7ac28dd1bef8298c9a646e166951387abd576e40d6b",
      "networkId": 0,
      "chainId": 0
    },
    {
      "hash": "0x241ad5a2f1855c81d0e8c219c1ed23789e2a6eb55fa22a437a18cd2a45745270",
      "blockHash": "0x456df35d15f7c3bc769a0a9f3b5eb64c6c14cd889ab65e043e049675e2c4a711",
      "blockNumber": 95923,
      "transactionIndex": 1,
      "confirmations": null,
      "from": "0x007f7f58D3eb5b7510A301eCC749FC1fCDDBE14D",
      "gasPrice": {
        "_hex": "0xcc8ddf695"
      },
      "gasLimit": {
        "_hex": "0x15f90"
      },
      "to": "0xb1abce2918E21ddb93AA452731a12672A3d9F75a",
      "value": {
        "_hex": "0x4563918244f40000"
      },
      "nonce": 66,
      "data": "0x",
      "r": "0x92795fcda8ce30544b5eb46c75d380e75404a0951a87bd2b0873494c0396d14e",
      "s": "0x136944b34232c02a8a2266ea8c9d2f06c0c8d94ca3454e1029f763bf44938ad3",
      "v": 27,
      "creates": null,
      "raw": "0xf86d42850cc8ddf69583015f9094b1abce2918e21ddb93aa452731a12672a3d9f75a884563918244f40000801ba092795fcda8ce30544b5eb46c75d380e75404a0951a87bd2b0873494c0396d14ea0136944b34232c02a8a2266ea8c9d2f06c0c8d94ca3454e1029f763bf44938ad3",
      "networkId": 0,
      "chainId": 0
    }
  ]
}