{
  "hash": "0x665690b016e3b2f52b2b32b419b9bf1b43a596049f37e4bc702612ed39e66e8d",
  "parentHash": "0x1249a8f7f5d86ccbea962a1b15d45db4a89921ad6926bade4db80048741b1669",
  "number": 74023,
  "timestamp": 1439379024,
  "nonce": "0x6a61d2f97f0d73f2",
  "difficulty": 2240174250973,
  "gasLimit": {
    "_hex": "0x2fefd8"
  },
  "gasUsed": {
    "_hex": "0x5208"
  },
  "miner": "0x723E05fF30e4ba7A87b4D7D459eE5B488A9c36d1",
  "extraData": "0x",
  "transactions": [
    {
      "hash": "0x6d90be590cffbc5a9494f972a5c3e83e63f8ad0111bfa2dce2f647bee0e893a5",
      "blockHash": "0x665690b016e3b2f52b2b32b419b9bf1b43a596049f37e4bc702612ed39e66e8d",
      "blockNumber": 74023,
      "transactionIndex": 0,
      "confirmations": null,
      "from": "0xA1623430350C5df1b52B0b57483A5bb45d1796Da",
      "gasPrice": {
        "_hex": "0xd83b26588"
      },
      "gasLimit": {
        "_hex": "0x7530"
      },
      "to": "0xf2881e3e520bF84469Fa00a56449D357FB1af54A",
      "value": {
        "_hex": "0x3b9676e0305560000"
      },
      "nonce": 3,
      "data": "0x",
      "r": "0xc85216164758174b4ffb4685f1911c699dfeb7d9c3b4864d87c17c988e9018bc",
      "s": "0x4ffbd5a7f2204c33c2f55dcb05784291cfb87355769bc547a776d3dc1b1171f8",
      "v": 27,
      "creates": null,
      "raw": "0xf86d03850d83b2658882753094f2881e3e520bf84469fa00a56449d357fb1af54a8903b9676e0305560000801ba0c85216164758174b4ffb4685f1911c699dfeb7d9c3b4864d87c17c988e9018bca04ffbd5a7f2204c33c2f55dcb05784291cfb87355769bc547a776d3dc1b1171f8",
      "networkId": 0,
      "chainId": 0
    }
  ]
}