{
  "hash": "0xdbe9ca97c7db572dfacfc736a7b5b49f4c901033fad543fa0f3bd9bc3f1abdfe",
  "parentHash": "0x1cb85c4e89c26ccfa7f0466672cf43e90b3cfef7b21a5c68df73048739bbc5e1",
  "number": 115213,
  "timestamp": 1440053483,
  "nonce": "0xcfba71d67698fe0b",
  "difficulty": 4525152556604,
  "gasLimit": {
    "_hex": "0x2fefd8"
  },
  "gasUsed": {
    "_hex": "0x5208"
  },
  "miner": "0x580992B51e3925e23280EfB93d3047C82f17E038",
  "extraData": "0x476574682f76312e302e312f6c696e75782f676f312e342e32",
  "transactions": [
    {
      "hash": "0x03d1af6e8b5bc6fef829ac6881e24b05354acffc4f62ae70e6acf85130489c4e",
      "blockHash": "0xdbe9ca97c7db572dfacfc736a7b5b49f4c901033fad543fa0f3bd9bc3f1abdfe",
      "blockNumber": 115213,
      "transactionIndex": 0,
      "confirmations": null,
      "from": "0x3D31A7CdbF1B9952C1c4d567b97c54fc354E6A7B",
      "gasPrice": {
        "_hex": "0xd56acf169"
      },
      "gasLimit": {
        "_hex": "0x5208"
      },
      "to": "0xFBb1b73C4f0BDa4f67dcA266ce6Ef42f520fBB98",
      "value": {
        "_hex": "0xdb8e9931ce7d2b8"
      },
      "nonce": 1,
      "data": "0x",
      "r": "0x37d26df07823684dd63db205d375b0eb83600deb008ddce7f632ea27fff092e9",
      "s": "0x3b9eeabb0ed3bd036d8a13dec7a70b62a62a0cb54e3515d77467120af739d848",
      "v": 27,
      "creates": null,
      "raw": "0xf86c01850d56acf16982520894fbb1b73c4f0bda4f67dca266ce6ef42f520fbb98880db8e9931ce7d2b8801ba037d26df07823684dd63db205d375b0eb83600deb008ddce7f632ea27fff092e9a03b9eeabb0ed3bd036d8a13dec7a70b62a62a0cb54e3515d77467120af739d848",
      "networkId": 0,
      "chainId": 0
    }
  ]
}