{
  "hash": "0x0dc895b836bbefaf7f4b438cd40fbf398fd068e8101e2782b540c01df5615af0",
  "parentHash": "0x9e6ffd6d8a2d682a425adf695c233c2b957c9772d8bd4b13b428edcbd2ec2189",
  "number": 116965,
  "timestamp": 1440101055,
  "nonce": "0xbe6f915e1de88946",
  "difficulty": 4308605522827,
  "gasLimit": {
    "_hex": "0x2fefd8"
  },
  "gasUsed": {
    "_hex": "0xa410"
  },
  "miner": "0xe6A7a1d47ff21B6321162AEA7C6CB457D5476Bca",
  "extraData": "0xd783010002844765746887676f312e342e32856c696e7578",
  "transactions": [
    {
      "hash": "0x60647075e391cb10ddde79e10260bb6e68ce9b89da46606ed73d1b62f9320223",
      "blockHash": "0x0dc895b836bbefaf7f4b438cd40fbf398fd068e8101e2782b540c01df5615af0",
      "blockNumber": 116965,
      "transactionIndex": 0,
      "confirmations": null,
      "from": "0x2910543Af39abA0Cd09dBb2D50200b3E800A63D2",
      "gasPrice": {
        "_hex": "0xba43b7400"
      },
      "gasLimit": {
        "_hex": "0x5208"
      },
      "to": "0x2b840C2e4aC361D1A403907F7c7AEeBF205CF9AD",
      "value": {
        "_hex": "0xf29e610641c56e00"
      },
      "nonce": 1145,
      "data": "0x",
      "r": "0xb941f9d6393b5ddc3135dcf8be7d6da17378c9451ff71f2b18846857a6ace1f4",
      "s": "0x265e007f55d850dfa0313d9bbbba29e5ef4a1a782a5361b972a92fb24af2ec48",
      "v": 28,
      "creates": null,
      "raw": "0xf86e820479850ba43b7400825208942b840c2e4ac361d1a403907f7c7aeebf205cf9ad88f29e610641c56e00801ca0b941f9d6393b5ddc3135dcf8be7d6da17378c9451ff71f2b18846857a6ace1f4a0265e007f55d850dfa0313d9bbbba29e5ef4a1a782a5361b972a92fb24af2ec48",
      "networkId": 0,
      "chainId": 0
    },
    {
      "hash": "0x18a4d7bcf92ddd2d7096d438b3ca4c943aa0bef72ac61627d75ccd5094751186",
      "blockHash": "0x0dc895b836bbefaf7f4b438cd40fbf398fd068e8101e2782b540c01df5615af0",
      "blockNumber": 116965,
      "transactionIndex": 1,
      "confirmations": null,
      "from": "0x76d4a9bc9612bE738A81d0fE632b00B971E2bB9a",
      "gasPrice": {
        "_hex": "0xba43b7400"
      },
      "gasLimit": {
        "_hex": "0x55f0"
      },
      "to": "0xb50405193Dc0c7077dD65252C15C39242F0aCB76",
      "value": {
        "_hex": "0x8ac7230489e80000"
      },
      "nonce": 15,
      "data": "0x",
      "r": "0x8b8881a647c5e2264829ed9317731e07626fe822543cec823a93eb4f370e9c7b",
      "s": "0x534cc30c1727c36e64cd86cdc6c4fd5e57e001fba25b0a8137607a4d05cf47e3",
      "v": 28,
      "creates": null,
      "raw": "0xf86c0f850ba43b74008255f094b50405193dc0c7077dd65252c15c39242f0acb76888ac7230489e80000801ca08b8881a647c5e2264829ed9317731e07626fe822543cec823a93eb4f370e9c7ba0534cc30c1727c36e64cd86cdc6c4fd5e57e001fba25b0a8137607a4d05cf47e3",
      "networkId": 0,
      "chainId": 0
    }
  ]
}