{
  "hash": "0x33f53fb2136f178fa0d3f7339c3e256f9f7149439a36dde54c6d1724bb937076",
  "parentHash": "0xf35b549eb0959c46eb57892fed0f10d79ebd1a376eb584178a0686feadc235c2",
  "number": 87307,
  "timestamp": 1439590232,
  "nonce": "0x4ad7326eb594bc27",
  "difficulty": 3099193690561,
  "gasLimit": {
    "_hex": "0x2fefd8"
  },
  "gasUsed": {
    "_hex": "0xf618"
  },
  "miner": "0xe6A7a1d47ff21B6321162AEA7C6CB457D5476Bca",
  "extraData": "0x476574682f76312e302e312d38326566323666362f6c696e75782f676f312e34",
  "transactions": [
    {
      "hash": "0xfd693e6b902b34be4a0b4bbfcd7cbb95e8502ca93178aadb140e38f690840d7e",
      "blockHash": "0x33f53fb2136f178fa0d3f7339c3e256f9f7149439a36dde54c6d1724bb937076",
      "blockNumber": 87307,
      "transactionIndex": 0,
      "confirmations": null,
      "from": "0x02020D22dCF88f5eDd66B382D7da019F161fB7e3",
      "gasPrice": {
        "_hex": "0xd3ede5613"
      },
      "gasLimit": {
        "_hex": "0x15f90"
      },
      "to": "0x4FCD326ae0739D0DA0fC71020adb6aBf9abf3BdA",
      "value": {
        "_hex": "0x1b1ae4d6e2ef500000"
      },
      "nonce": 13,
      "data": "0x",
      "r": "0xaaeb94b0b149c9c6510239a206c4f2b47f07642391a384c1c8e5b235ac32fa2b",
      "s": "0x43e80a1994efda3673f4f55ad91303cf25b30e43e8d39bad3d7bbb97aaaaa66d",
      "v": 28,
      "creates": null,
      "raw": "0xf86e0d850d3ede561383015f90944fcd326ae0739d0da0fc71020adb6abf9abf3bda891b1ae4d6e2ef500000801ca0aaeb94b0b149c9c6510239a206c4f2b47f07642391a384c1c8e5b235ac32fa2ba043e80a1994efda3673f4f55ad91303cf25b30e43e8d39bad3d7bbb97aaaaa66d",
      "networkId": 0,
      "chainId": 0
    },
    {
      "hash": "0x74cafda58bc2cf42d29a5a1c4365ef26fcfe19cf0af8981c4b6952cc82548321",
      "blockHash": "0x33f53fb2136f178fa0d3f7339c3e256f9f7149439a36dde54c6d1724bb937076",
      "blockNumber": 87307,
      "transactionIndex": 1,
      "confirmations": null,
      "from": "0x120A270bbC009644e35F0bB6ab13f95b8199c4ad",
      "gasPrice": {
        "_hex": "0xcddfa7933"
      },
      "gasLimit": {
        "_hex": "0x3d090"
      },
      "to": "0x4098BB4167723FcD38D1306F6A66fC4fAc2c84Fb",
      "value": {
        "_hex": "0x1b044c1460ad81dc00"
      },
      "nonce": 493,
      "data": "0x",
      "r": "0xd50db95cc6b8803aedc6eb3c53edc36995f5c516d53024390c85e3221e238841",
      "s": "0x1067b6cf54eaf23b095015561017cf7c71ab4c38a9ce48ba8e41eb076513c7d3",
      "v": 28,
      "creates": null,
      "raw": "0xf8708201ed850cddfa79338303d090944098bb4167723fcd38d1306f6a66fc4fac2c84fb891b044c1460ad81dc00801ca0d50db95cc6b8803aedc6eb3c53edc36995f5c516d53024390c85e3221e238841a01067b6cf54eaf23b095015561017cf7c71ab4c38a9ce48ba8e41eb076513c7d3",
      "networkId": 0,
      "chainId": 0
    },
    {
      "hash": "0x740b2c4a9119fb5b04c4af2b1cc2d37266ee27a65b04232f4a2036eb36e94bec",
      "blockHash": "0x33f53fb2136f178fa0d3f7339c3e256f9f7149439a36dde54c6d1724bb937076",
      "blockNumber": 87307,
      "transactionIndex": 2,
      "confirmations": null,
      "from": "0xE652BB86f049541e438AF3b8bCafdA935C686691",
      "gasPrice": {
        "_hex": "0xba43b7400"
      },
      "gasLimit": {
        "_hex": "0x5208"
      },
      "to": "0xC47Aaa860008be6f65B58c6C6E02a84e666EfE31",
      "value": {
        "_hex": "0x5b560afffb7118f0"
      },
      "nonce": 3,
      "data": "0x",
      "r": "0xb0a37d1586d0a8fc6e52701fe399fd7ba4b78b52f7ffc42070fd8ac00f0bb6e8",
      "s": "0x28df4c6100eb22a60453c6d3f151807701ff1aac777b544a8965933fd22c7e83",
      "v": 28,
      "creates": null,
      "raw": "0xf86c03850ba43b740082520894c47aaa860008be6f65b58c6c6e02a84e666efe31885b560afffb7118f0801ca0b0a37d1586d0a8fc6e52701fe399fd7ba4b78b52f7ffc42070fd8ac00f0bb6e8a028df4c6100eb22a60453c6d3f151807701ff1aac777b544a8965933fd22c7e83",
      "networkId": 0,
      "chainId": 0
    }
  ]
}