{
  "hash": "0x2788422cc3c41ea64a6586c3b15aa3e821acb87e407ef69a51750557b65d7534",
  "parentHash": "0xb9584daae461636caa6677aec232297519b83624ec65e28d2e89091908b63c32",
  "number": 78571,
  "timestamp": 1439455922,
  "nonce": "0x9cd0881ad41aa93b",
  "difficulty": 2301026302029,
  "gasLimit": {
    "_hex": "0x2fefd8"
  },
  "gasUsed": {
    "_hex": "0x2a46"
  },
  "miner": "0x88D74a59454F6cF3B51ef6b9136AFb6b9D405A88",
  "extraData": "0x476574682f76312e302e312d37666266393930632f6c696e75782f676f312e34",
  "transactions": [
    {
      "hash": "0xf5ef62f9b3b92f52897ff6aa8c8faa866cefb20f4198443870ef85bb104eb6a5",
      "blockHash": "0x2788422cc3c41ea64a6586c3b15aa3e821acb87e407ef69a51750557b65d7534",
      "blockNumber": 78571,
      "transactionIndex": 0,
      "confirmations": null,
      "from": "0x008FC7CBAdFFbD0D7fe44F8DFD60a79d721a1c9C",
      "gasPrice": {
        "_hex": "0xd01e9c4bd"
      },
      "gasLimit": {
        "_hex": "0x15f90"
      },
      "to": "0xC2D72e968Df598134529475769B6C8Befe2d4786",
      "value": {
        "_hex": "0x0"
      },
      "nonce": 28,
      "data": "0x41c0e1b5",
      "r": "0xa2d83befeccf772a05b3ac6d88c12266c0cb1656801780f682db4458e7e4adbf",
      "s": "0x00747eeab9349083981923a22410b5a8723011474625917c340310ad94faa815",
      "v": 28,
      "creates": null,
      "raw": "0xf8681c850d01e9c4bd83015f9094c2d72e968df598134529475769b6c8befe2d4786808441c0e1b51ca0a2d83befeccf772a05b3ac6d88c12266c0cb1656801780f682db4458e7e4adbf9f747eeab9349083981923a22410b5a8723011474625917c340310ad94faa815",
      "networkId": 0,
      "chainId": 0
    }
  ]
}