{
  "hash": "0xa174579cacbd404c1376d1fc9a19fe7e43f29e74733276d84109a66ab5e1515b",
  "parentHash": "0x4741e06c85d731662bd0cc95cea1f03fcd9d482054efdfeae22dc8d49c173af9",
  "number": 87781,
  "timestamp": 1439597392,
  "nonce": "0x7fe7f164becf6928",
  "difficulty": 3175609355940,
  "gasLimit": {
    "_hex": "0x2fefd8"
  },
  "gasUsed": {
    "_hex": "0xf618"
  },
  "miner": "0x60a175bB691fEE8557a7b6D8eFC9E49889486f41",
  "extraData": "0x476574682f76312e302e312f77696e646f77732f676f312e342e32",
  "transactions": [
    {
      "hash": "0xfb7d3c852fa8ed41002f108e451f4cafbf06d57425bd358b30c9b96dcdb2757c",
      "blockHash": "0xa174579cacbd404c1376d1fc9a19fe7e43f29e74733276d84109a66ab5e1515b",
      "blockNumber": 87781,
      "transactionIndex": 0,
      "confirmations": null,
      "from": "0x32Be343B94f860124dC4fEe278FDCBD38C102D88",
      "gasPrice": {
        "_hex": "0xdcd81046b"
      },
      "gasLimit": {
        "_hex": "0x5208"
      },
      "to": "0x156D6B6d7105b05295583076E78733815B356aD5",
      "value": {
        "_hex": "0x59cd05332811d8000"
      },
      "nonce": 799,
      "data": "0x",
      "r": "0xcd9fce8f282c00e254f2472dff84885f9ec69d78d2cf94681a04282f96d43f0b",
      "s": "0x35d66d95e84e270fa5ef280840b731b4b6811833094a9c33f9622e546e85cea5",
      "v": 28,
      "creates": null,
      "raw": "0xf86f82031f850dcd81046b82520894156d6b6d7105b05295583076e78733815b356ad589059cd05332811d8000801ca0cd9fce8f282c00e254f2472dff84885f9ec69d78d2cf94681a04282f96d43f0ba035d66d95e84e270fa5ef280840b731b4b6811833094a9c33f9622e546e85cea5",
      "networkId": 0,
      "chainId": 0
    },
    {
      "hash": "0x6493b661d951ffce344dc736413c5d76e69408b6f76c5d3d38cb098cc4dec8cc",
      "blockHash": "0xa174579cacbd404c1376d1fc9a19fe7e43f29e74733276d84109a66ab5e1515b",
      "blockNumber": 87781,
      "transactionIndex": 1,
      "confirmations": null,
      "from": "0x32Be343B94f860124dC4fEe278FDCBD38C102D88",
      "gasPrice": {
        "_hex": "0xdcd81046b"
      },
      "gasLimit": {
        "_hex": "0x5208"
      },
      "to": "0xCD8C2959c5781245a5DcD72CFfAb01004d804Aa7",
      "value": {
        "_hex": "0x2c3f04180a4ac8000"
      },
      "nonce": 800,
      "data": "0x",
      "r": "0x6ef7020f922b9e01f9601dc5e1722e757034c58651fc42f4237375e0ac85c757",
      "s": "0x4e6b0b92672928ccc401e27a1aaca1824f3e4c29a4ad467a1ab1b32b283347cd",
      "v": 28,
      "creates": null,
      "raw": "0xf86f820320850dcd81046b82520894cd8c2959c5781245a5dcd72cffab01004d804aa78902c3f04180a4ac8000801ca06ef7020f922b9e01f9601dc5e1722e757034c58651fc42f4237375e0ac85c757a04e6b0b92672928ccc401e27a1aaca1824f3e4c29a4ad467a1ab1b32b283347cd",
      "networkId": 0,
      "chainId": 0
    },
    {
      "hash": "0xa2e7ed8aedb899dd093a4083995b05ddfed2c315a235aefa6a683eb895f0659b",
      "blockHash": "0xa174579cacbd404c1376d1fc9a19fe7e43f29e74733276d84109a66ab5e1515b",
      "blockNumber": 87781,
      "transactionIndex": 2,
      "confirmations": null,
      "from": "0xf2Ae859397af92154241eAd0aC7c4ce3bea76E8F",
      "gasPrice": {
        "_hex": "0xd6f724f2d"
      },
      "gasLimit": {
        "_hex": "0x15f90"
      },
      "to": "0xC2B34a73703b5274E7B7ec06F35895bA696Bac3f",
      "value": {
        "_hex": "0x2386f26fc10000"
      },
      "nonce": 0,
      "data": "0x",
      "r": "0x9c0e1473a2e43f4ab608a2fc946bb9e975a8cc34e478c268eac82c6df805a628",
      "s": "0x4dbf8367cb97fe8ae126235e3c61efa3718855ae6aa3fd09b9bf412daba917b7",
      "v": 28,
      "creates": null,
      "raw": "0xf86c80850d6f724f2d83015f9094c2b34a73703b5274e7b7ec06f35895ba696bac3f872386f26fc10000801ca09c0e1473a2e43f4ab608a2fc946bb9e975a8cc34e478c268eac82c6df805a628a04dbf8367cb97fe8ae126235e3c61efa3718855ae6aa3fd09b9bf412daba917b7",
      "networkId": 0,
      "chainId": 0
    }
  ]
}