{
  "hash": "0x6382d5601e65b30ba1fa371666d1e1ccf702c5ff6429580b3308a37afca40032",
  "parentHash": "0x6076b38d6b9c51f60707771e38d167978e7c55956dd3bc07d0ca71a6f082fc7a",
  "number": 72231,
  "timestamp": 1439349476,
  "nonce": "0xe3612599d4e96859",
  "difficulty": 2173837060317,
  "gasLimit": {
    "_hex": "0x2fefd8"
  },
  "gasUsed": {
    "_hex": "0x1f0e6"
  },
  "miner": "0x31995C46B15C84523cDEE26f49A681b8237e43F5",
  "extraData": "0x476574682f76312e302e312f77696e646f77732f676f312e342e32",
  "transactions": [
    {
      "hash": "0xf0a33ac6eaf5a97cf3b23e4057a167743d77770cc4c7c89836f8a9a09ccb8e66",
      "blockHash": "0x6382d5601e65b30ba1fa371666d1e1ccf702c5ff6429580b3308a37afca40032",
      "blockNumber": 72231,
      "transactionIndex": 0,
      "confirmations": null,
      "from": "0x17580B766f7453525ca4C6A88b01b50570EA088C",
      "gasPrice": {
        "_hex": "0xdbf691850"
      },
      "gasLimit": {
        "_hex": "0x61a80"
      },
      "to": "0x5Fe5B7546D1628f7348B023A0393de1FC825A4fD",
      "value": {
        "_hex": "0x8ac7230489e80000"
      },
      "nonce": 399,
      "data": "0xb595b8b50000000000000000000000000000000000000000000000000000000000000001",
      "r": "0x4fd4afe73117e9cc16985cc2dc2acd4f2558d2a3c91525067c50e7b2aa6c4eae",
      "s": "0x685e893d21b0da11d311471b6ae70882d458a1784a492e087aa0b42f54f9ee73",
      "v": 27,
      "creates": null,
      "raw": "0xf89382018f850dbf69185083061a80945fe5b7546d1628f7348b023a0393de1fc825a4fd888ac7230489e80000a4b595b8b500000000000000000000000000000000000000000000000000000000000000011ba04fd4afe73117e9cc16985cc2dc2acd4f2558d2a3c91525067c50e7b2aa6c4eaea0685e893d21b0da11d311471b6ae70882d458a1784a492e087aa0b42f54f9ee73",
      "networkId": 0,
      "chainId": 0
    },
    {
      "hash": "0xb479191b2856fc46cd06a5b6e1fdaf55cead727e70c8ebba3768dd9ec1f25b59",
      "blockHash": "0x6382d5601e65b30ba1fa371666d1e1ccf702c5ff6429580b3308a37afca40032",
      "blockNumber": 72231,
      "transactionIndex": 1,
      "confirmations": null,
      "from": "0x17580B766f7453525ca4C6A88b01b50570EA088C",
      "gasPrice": {
        "_hex": "0xdbf691850"
      },
      "gasLimit": {
        "_hex": "0x61a80"
      },
      "to": "0x5Fe5B7546D1628f7348B023A0393de1FC825A4fD",
      "value": {
        "_hex": "0x8ac7230489e80000"
      },
      "nonce": 400,
      "data": "0xb595b8b50000000000000000000000000000000000000000000000000000000000000000",
      "r": "0xcf8ff7f3aa14a7162d56ab9e3bef78025b3b07d1939d0914409a7e81da48e32e",
      "s": "0x31558473de6cd4c3cbc7839b0fb3b79cbbda333a72267a2e7864fbfb08ffe99c",
      "v": 28,
      "creates": null,
      "raw": "0xf893820190850dbf69185083061a80945fe5b7546d1628f7348b023a0393de1fc825a4fd888ac7230489e80000a4b595b8b500000000000000000000000000000000000000000000000000000000000000001ca0cf8ff7f3aa14a7162d56ab9e3bef78025b3b07d1939d0914409a7e81da48e32ea031558473de6cd4c3cbc7839b0fb3b79cbbda333a72267a2e7864fbfb08ffe99c",
      "networkId": 0,
      "chainId": 0
    },
    {
      "hash": "0xc9e07f15fc37d020777834129bec6acb977beeb6c2f4b20710c64058c8ac88bd",
      "blockHash": "0x6382d5601e65b30ba1fa371666d1e1ccf702c5ff6429580b3308a37afca40032",
      "blockNumber": 72231,
      "transactionIndex": 2,
      "confirmations": null,
      "from": "0x17580B766f7453525ca4C6A88b01b50570EA088C",
      "gasPrice": {
        "_hex": "0xdbf691850"
      },
      "gasLimit": {
        "_hex": "0x61a80"
      },
      "to": "0x5Fe5B7546D1628f7348B023A0393de1FC825A4fD",
      "value": {
        "_hex": "0x8ac7230489e80000"
      },
      "nonce": 401,
      "data": "0xb595b8b50000000000000000000000000000000000000000000000000000000000000000",
      "r": "0xd54af059517c2cbaef10d0b0b3a70ba521363a99c44adea93b0fc38712b59860",
      "s": "0x225c13799536b4a5fbac913ebcb88441fce5c30c007328642866e7729b399f44",
      "v": 27,
      "creates": null,
      "raw": "0xf893820191850dbf69185083061a80945fe5b7546d1628f7348b023a0393de1fc825a4fd888ac7230489e80000a4b595b8b500000000000000000000000000000000000000000000000000000000000000001ba0d54af059517c2cbaef10d0b0b3a70ba521363a99c44adea93b0fc38712b59860a0225c13799536b4a5fbac913ebcb88441fce5c30c007328642866e7729b399f44",
      "networkId": 0,
      "chainId": 0
    }
  ]
}