{
  "hash": "0x90eec3f53c1b810de5da30c0c7eae30058dddbafd5bec7ddf60c1ef0fe042373",
  "parentHash": "0xa304ca170817f1bf56bbef78092b9378be60e02f5c8eaaf66efb576c95868df2",
  "number": 74203,
  "timestamp": 1439382221,
  "nonce": "0xacfb7b0a5ac67438",
  "difficulty": 2214027919967,
  "gasLimit": {
    "_hex": "0x2fefd8"
  },
  "gasUsed": {
    "_hex": "0x5208"
  },
  "miner": "0x89972aA7C0b19D1aE9cd89386160c3f28f7bB590",
  "extraData": "0x",
  "transactions": [
    {
      "hash": "0x9e05c6f3e8555fbd3a4caa618c6316919839f03b5e1c0cc9cd0a171398b6e3d0",
      "blockHash": "0x90eec3f53c1b810de5da30c0c7eae30058dddbafd5bec7ddf60c1ef0fe042373",
      "blockNumber": 74203,
      "transactionIndex": 0,
      "confirmations": null,
      "from": "0xa70a9a7040d542C632D8e0bE7c5513A8a5Bbc752",
      "gasPrice": {
        "_hex": "0xcbf4db27f"
      },
      "gasLimit": {
        "_hex": "0x5208"
      },
      "to": "0x32Be343B94f860124dC4fEe278FDCBD38C102D88",
      "value": {
        "_hex": "0x455f7bd390ab4800"
      },
      "nonce": 29,
      "data": "0x",
      "r": "0x774e05694b710d2fb9cc58c32f626b4feee3197eb61232f0afe35f9b133e737f",
      "s": "0x74bcee8c2354b17486674446763eb84d11ff288eee16172d13122e054bda07a2",
      "v": 27,
      "creates": null,
      "raw": "0xf86c1d850cbf4db27f8252089432be343b94f860124dc4fee278fdcbd38c102d8888455f7bd390ab4800801ba0774e05694b710d2fb9cc58c32f626b4feee3197eb61232f0afe35f9b133e737fa074bcee8c2354b17486674446763eb84d11ff288eee16172d13122e054bda07a2",
      "networkId": 0,
      "chainId": 0
    }
  ]
}