{
  "hash": "0xfddbc4ebab7e27e55d1414b0d9ef959acdc54dd1efeda3fd8c6b7d69342a8d5b",
  "parentHash": "0x956f46196370c0c440592b9268c3192948bd7693d9968d04bc189fb88c32c7c8",
  "number": 82230,
  "timestamp": 1439515840,
  "nonce": "0x1b58d96e99db348c",
  "difficulty": 2376512082383,
  "gasLimit": {
    "_hex": "0x2fefd2"
  },
  "gasUsed": {
    "_hex": "0x5208"
  },
  "miner": "0xf927a40C8B7F6E07c5af7FA2155B4864a4112B13",
  "extraData": "0x",
  "transactions": [
    {
      "hash": "0xdbd05f4d503d8a973c0bef83c86632a7929ad742d24695a6596f609ab06e9a7d",
      "blockHash": "0xfddbc4ebab7e27e55d1414b0d9ef959acdc54dd1efeda3fd8c6b7d69342a8d5b",
      "blockNumber": 82230,
      "transactionIndex": 0,
      "confirmations": null,
      "from": "0x76899c112A85c5a7d27Ff89f1b97112e900aeEBc",
      "gasPrice": {
        "_hex": "0xba43b7400"
      },
      "gasLimit": {
        "_hex": "0x5208"
      },
      "to": "0xC47Aaa860008be6f65B58c6C6E02a84e666EfE31",
      "value": {
        "_hex": "0x8a9fe119ed236000"
      },
      "nonce": 4,
      "data": "0x",
      "r": "0x1ed6a3d32c0e490a04c6b2b47dd3940c66903e69c65f5bc7317dd9530da7aa8a",
      "s": "0x4904749ec8c0841e7756895037582b6b2f7ed3904e765a6db5b32e7bce8242bd",
      "v": 27,
      "creates": null,
      "raw": "0xf86c04850ba43b740082520894c47aaa860008be6f65b58c6c6e02a84e666efe31888a9fe119ed236000801ba01ed6a3d32c0e490a04c6b2b47dd3940c66903e69c65f5bc7317dd9530da7aa8aa04904749ec8c0841e7756895037582b6b2f7ed3904e765a6db5b32e7bce8242bd",
      "networkId": 0,
      "chainId": 0
    }
  ]
}