{
  "hash": "0x5b63cbc59c6aabc41ef7c9585f1af4d1f7ac6a889c667086371f6ccaf221fb2e",
  "parentHash": "0x808ca02207de2bb5611a00ca7d77b57750117b8b5d26e12e35a817996423bba7",
  "number": 104613,
  "timestamp": 1439872548,
  "nonce": "0x23f4792e36950da6",
  "difficulty": 4370083401756,
  "gasLimit": {
    "_hex": "0x2fefd8"
  },
  "gasUsed": {
    "_hex": "0x546c"
  },
  "miner": "0xe6A7a1d47ff21B6321162AEA7C6CB457D5476Bca",
  "extraData": "0x476574682f76312e302e312d38326566323666362f6c696e75782f676f312e34",
  "transactions": [
    {
      "hash": "0x83a3340dd948c86434054cb9f884a29afd36c2e0d1eae23cdd43d56b7480e5ea",
      "blockHash": "0x5b63cbc59c6aabc41ef7c9585f1af4d1f7ac6a889c667086371f6ccaf221fb2e",
      "blockNumber": 104613,
      "transactionIndex": 0,
      "confirmations": null,
      "from": "0xF7Fc45ABf76F5088E2e5b5A8d132F28A4d4eC1c0",
      "gasPrice": {
        "_hex": "0x110c8f7d8de"
      },
      "gasLimit": {
        "_hex": "0xc350"
      },
      "to": "0x2910543Af39abA0Cd09dBb2D50200b3E800A63D2",
      "value": {
        "_hex": "0x6c6a3016135fb60000"
      },
      "nonce": 0,
      "data": "0x454e3434545a354552",
      "r": "0xb8bedd18ea52ace90eb4cd0349c3ed2c64b919a431b414504e39d79dba2ebd22",
      "s": "0x1cdcca46031458590317e108ef9e497e76dde1c1ed0d6d7aa1fa98ec84273caf",
      "v": 27,
      "creates": null,
      "raw": "0xf87780860110c8f7d8de82c350942910543af39aba0cd09dbb2d50200b3e800a63d2896c6a3016135fb6000089454e3434545a3545521ba0b8bedd18ea52ace90eb4cd0349c3ed2c64b919a431b414504e39d79dba2ebd22a01cdcca46031458590317e108ef9e497e76dde1c1ed0d6d7aa1fa98ec84273caf",
      "networkId": 0,
      "chainId": 0
    }
  ]
}