{
  "hash": "0xcf4e9824c7a8d08d03ab96f65660348d42d79357b01f6dcd9ec29abd0dcc4d84",
  "parentHash": "0x78fb6f9032085ff2f02716e02ef88b047d96ae608e5f18c3d2f8089ab1ae51d0",
  "number": 106593,
  "timestamp": 1439907132,
  "nonce": "0x3d154fdc9d559c5f",
  "difficulty": 4472661124889,
  "gasLimit": {
    "_hex": "0x2fefd8"
  },
  "gasUsed": {
    "_hex": "0x5208"
  },
  "miner": "0x790b8a3cE86E707ED0eD32bF89B3269692a23CC1",
  "extraData": "0xd783010001844765746887676f312e342e32856c696e7578",
  "transactions": [
    {
      "hash": "0xaea97507189b7101c622513fb39d12dc313c2c722779f9b052637df7ef330b28",
      "blockHash": "0xcf4e9824c7a8d08d03ab96f65660348d42d79357b01f6dcd9ec29abd0dcc4d84",
      "blockNumber": 106593,
      "transactionIndex": 0,
      "confirmations": null,
      "from": "0x056507108FE6d30189EcCD6cd7F4Fad56eEef622",
      "gasPrice": {
        "_hex": "0xd5e958622"
      },
      "gasLimit": {
        "_hex": "0x15f90"
      },
      "to": "0x0cA19A53a3256482A89770FC1daFC7630717F201",
      "value": {
        "_hex": "0x63be79701e1c12ee"
      },
      "nonce": 13,
      "data": "0x",
      "r": "0x672f831778d0d28293468340f5cea816daaa795dd0c50ba324d412b91cba47e7",
      "s": "0x480ff2a0beaea60dc04347405191eec5c44d15d66e58b9ee33e834352977a13e",
      "v": 27,
      "creates": null,
      "raw": "0xf86d0d850d5e95862283015f90940ca19a53a3256482a89770fc1dafc7630717f2018863be79701e1c12ee801ba0672f831778d0d28293468340f5cea816daaa795dd0c50ba324d412b91cba47e7a0480ff2a0beaea60dc04347405191eec5c44d15d66e58b9ee33e834352977a13e",
      "networkId": 0,
      "chainId": 0
    }
  ]
}