{
  "hash": "0xecaa008f19d02f2fa08cef0086789b81c07051a046020dbf368a005bc807728d",
  "parentHash": "0x4861307c486a38880f62bbb012918d292b9cee8cfbafab3ce8d6c507fb4d24f3",
  "number": 68767,
  "timestamp": 1439293434,
  "nonce": "0x39a795d3689e6723",
  "difficulty": 2017202114026,
  "gasLimit": {
    "_hex": "0x2fe3db"
  },
  "gasUsed": {
    "_hex": "0x9400"
  },
  "miner": "0xE87470b43FA5904a32866396B2f798D898c13978",
  "extraData": "0x",
  "transactions": [
    {
      "hash": "0x9ef24a317beda24fefa039a2c0f40ecb631c746f3199570d86b5d93571db4b71",
      "blockHash": "0xecaa008f19d02f2fa08cef0086789b81c07051a046020dbf368a005bc807728d",
      "blockNumber": 68767,
      "transactionIndex": 0,
      "confirmations": null,
      "from": "0xc8ebccC5F5689Fa8659d83713341e5aD19349448",
      "gasPrice": {
        "_hex": "0xda12e3ef0"
      },
      "gasLimit": {
        "_hex": "0x61a80"
      },
      "to": "0x5Fe5B7546D1628f7348B023A0393de1FC825A4fD",
      "value": {
        "_hex": "0x3782dace9d900000"
      },
      "nonce": 46,
      "data": "0xb595b8b50000000000000000000000000000000000000000000000000000000000000001",
      "r": "0x4367be1adbd346e5d56c0e4cfa30f9cdab9509a2e8c58a29623f9e2afe172653",
      "s": "0x3fa7b573d064aafd8ff384fada9499b9c0411c7593d2f0d734bf4b2baa83657b",
      "v": 27,
      "creates": null,
      "raw": "0xf8912e850da12e3ef083061a80945fe5b7546d1628f7348b023a0393de1fc825a4fd883782dace9d900000a4b595b8b500000000000000000000000000000000000000000000000000000000000000011ba04367be1adbd346e5d56c0e4cfa30f9cdab9509a2e8c58a29623f9e2afe172653a03fa7b573d064aafd8ff384fada9499b9c0411c7593d2f0d734bf4b2baa83657b",
      "networkId": 0,
      "chainId": 0
    }
  ]
}