{
  "hash": "0x57858aafebf7b704e38a75ff9ad7723e4ca4335f6e5fc4cbc3ebc0dd8fd034bc",
  "parentHash": "0xb82a653904b18c5b34a8ce33f3337e16ebf5911b9474fd3fcb9dc5cad357a514",
  "number": 102815,
  "timestamp": 1439843620,
  "nonce": "0x0f42d017efe02eee",
  "difficulty": 4058354826916,
  "gasLimit": {
    "_hex": "0x2fefd8"
  },
  "gasUsed": {
    "_hex": "0x1bdbe"
  },
  "miner": "0x580992B51e3925e23280EfB93d3047C82f17E038",
  "extraData": "0x476574682f76312e302e312f6c696e75782f676f312e342e32",
  "transactions": [
    {
      "hash": "0xd2d7a9ec7ef6a950fdb86ebc5f233017e2bc8ce3fd2e1930f3984adb98a2066d",
      "blockHash": "0x57858aafebf7b704e38a75ff9ad7723e4ca4335f6e5fc4cbc3ebc0dd8fd034bc",
      "blockNumber": 102815,
      "transactionIndex": 0,
      "confirmations": null,
      "from": "0x9b22a80D5c7B3374a05b446081f97d0A34079e7F",
      "gasPrice": {
        "_hex": "0xd69b48315"
      },
      "gasLimit": {
        "_hex": "0x249f0"
      },
      "to": "0xE28e72FCf78647ADCe1F1252F240bbfaebD63BcC",
      "value": {
        "_hex": "0x18650127cc3dc80000"
      },
      "nonce": 2,
      "data": "0x45466f3a",
      "r": "0xbbba4f46530e376ba69a441e51ba2e7d438bb75836f5e7ce6f23f8cbc67a483e",
      "s": "0x72e1e20713a069eeaea85bb6935f72013f23029cb88300c02531dfcdc73145fb",
      "v": 27,
      "creates": null,
      "raw": "0xf87202850d69b48315830249f094e28e72fcf78647adce1f1252f240bbfaebd63bcc8918650127cc3dc800008445466f3a1ba0bbba4f46530e376ba69a441e51ba2e7d438bb75836f5e7ce6f23f8cbc67a483ea072e1e20713a069eeaea85bb6935f72013f23029cb88300c02531dfcdc73145fb",
      "networkId": 0,
      "chainId": 0
    }
  ]
}