{
  "hash": "0xaca078a7f9284961d4e1d7aa5ad6e2533aaceff92029269a828442f5b436ebd9",
  "parentHash": "0x16d088093e3ead8bd3d67200e19ea1f215034fcbec535b07af7d63398f0221e6",
  "number": 112458,
  "timestamp": 1440007786,
  "nonce": "0xba46f7bb29c845cb",
  "difficulty": 4415306997107,
  "gasLimit": {
    "_hex": "0x2fefd8"
  },
  "gasUsed": {
    "_hex": "0x5208"
  },
  "miner": "0xe6A7a1d47ff21B6321162AEA7C6CB457D5476Bca",
  "extraData": "0x476574682f76312e302e312d38326566323666362f6c696e75782f676f312e34",
  "transactions": [
    {
      "hash": "0x7b6fd95d884500313255f95e69153ef7fbbb1c6ffe9f733b14c26edb2e7e3b5d",
      "blockHash": "0xaca078a7f9284961d4e1d7aa5ad6e2533aaceff92029269a828442f5b436ebd9",
      "blockNumber": 112458,
      "transactionIndex": 0,
      "confirmations": null,
      "from": "0x3F3F51FA40eC00Cd81D0898bF65F7F07b4cd146A",
      "gasPrice": {
        "_hex": "0xda9680238"
      },
      "gasLimit": {
        "_hex": "0x5208"
      },
      "to": "0x32Be343B94f860124dC4fEe278FDCBD38C102D88",
      "value": {
        "_hex": "0x1430849acaa0400"
      },
      "nonce": 3,
      "data": "0x",
      "r": "0x724d128dbd5e43476f686c018eecc8c48522ae993858f0f3f5406e3eb64c0186",
      "s": "0x16667c5d7e01223177dc890ebc4ea95896fbca489610a293c9056b2de923e0f6",
      "v": 27,
      "creates": null,
      "raw": "0xf86c03850da96802388252089432be343b94f860124dc4fee278fdcbd38c102d888801430849acaa0400801ba0724d128dbd5e43476f686c018eecc8c48522ae993858f0f3f5406e3eb64c0186a016667c5d7e01223177dc890ebc4ea95896fbca489610a293c9056b2de923e0f6",
      "networkId": 0,
      "chainId": 0
    }
  ]
}