{
  "hash": "0x9e95b8231cfbe244bca2f5b2560033d038a442a7af778fc3bd94b16b5af8fc28",
  "parentHash": "0x3fc61e213e88af0dfc3528edcdcbdd10e9c67f6594d72c59a2c449e6e8480142",
  "number": 86803,
  "timestamp": 1439583065,
  "nonce": "0x25de3ce80fa76fdf",
  "difficulty": 2951678319563,
  "gasLimit": {
    "_hex": "0x2fefd8"
  },
  "gasUsed": {
    "_hex": "0x5208"
  },
  "miner": "0x580992B51e3925e23280EfB93d3047C82f17E038",
  "extraData": "0x476574682f76312e302e312f6c696e75782f676f312e342e32",
  "transactions": [
    {
      "hash": "0xd611449ac7ac0ab1814adec1a978121ee18e59707f0596034fda317650ddd2c8",
      "blockHash": "0x9e95b8231cfbe244bca2f5b2560033d038a442a7af778fc3bd94b16b5af8fc28",
      "blockNumber": 86803,
      "transactionIndex": 0,
      "confirmations": null,
      "from": "0xE7131478905e2D44b9D10DED756F43eBD4460Fcc",
      "gasPrice": {
        "_hex": "0xba43b7400"
      },
      "gasLimit": {
        "_hex": "0x5208"
      },
      "to": "0xC47Aaa860008be6f65B58c6C6E02a84e666EfE31",
      "value": {
        "_hex": "0x1b1acf58718a6b91e0"
      },
      "nonce": 1,
      "data": "0x",
      "r": "0x1bddbf3babf9ed4b1d238ad9db42b96e2ef98ee4ba998236c1aece348f1e20cd",
      "s": "0x6e29fde25b16b15c7fe3222250f480d47b60776c4afa9419344feaa603fd01df",
      "v": 28,
      "creates": null,
      "raw": "0xf86d01850ba43b740082520894c47aaa860008be6f65b58c6c6e02a84e666efe31891b1acf58718a6b91e0801ca01bddbf3babf9ed4b1d238ad9db42b96e2ef98ee4ba998236c1aece348f1e20cda06e29fde25b16b15c7fe3222250f480d47b60776c4afa9419344feaa603fd01df",
      "networkId": 0,
      "chainId": 0
    }
  ]
}