{
  "hash": "0x25d2c2cb52fae29c48e77e1db6295a9cd1fab837efc18884fbb116d1f4612605",
  "parentHash": "0x5fcb02261f3762a0e8603ff06670e18d98508881f9074333ac2b3801665aa304",
  "number": 65029,
  "timestamp": 1439230168,
  "nonce": "0x4cf51de186503e1e",
  "difficulty": 1918178062182,
  "gasLimit": {
    "_hex": "0x2fefd8"
  },
  "gasUsed": {
    "_hex": "0xa410"
  },
  "miner": "0xf927a40C8B7F6E07c5af7FA2155B4864a4112B13",
  "extraData": "0x",
  "transactions": [
    {
      "hash": "0x8f252f4f7d22c788f465e5a30e11feb5b82455592650360bbf5cc851bd5c61d5",
      "blockHash": "0x25d2c2cb52fae29c48e77e1db6295a9cd1fab837efc18884fbb116d1f4612605",
      "blockNumber": 65029,
      "transactionIndex": 0,
      "confirmations": null,
      "from": "0x8665D94A5a2b9ce37b3265426E4e07513523C62B",
      "gasPrice": {
        "_hex": "0xba43b7400"
      },
      "gasLimit": {
        "_hex": "0x5208"
      },
      "to": "0x011370355a7591952a1Bd17c6BE81b20C1FEAeaC",
      "value": {
        "_hex": "0x33277ef27ec4000"
      },
      "nonce": 1,
      "data": "0x",
      "r": "0x8b7fdd572982b9024d3e1f5cbcf0125fb2dc6b2519f658ca14bb6679e82ed4ff",
      "s": "0x192b0081afbaa131e24d8f6cd9a694da161dcacd9913128ab5d97e02222f3422",
      "v": 27,
      "creates": null,
      "raw": "0xf86c01850ba43b740082520894011370355a7591952a1bd17c6be81b20c1feaeac88033277ef27ec4000801ba08b7fdd572982b9024d3e1f5cbcf0125fb2dc6b2519f658ca14bb6679e82ed4ffa0192b0081afbaa131e24d8f6cd9a694da161dcacd9913128ab5d97e02222f3422",
      "networkId": 0,
      "chainId": 0
    },
    {
      "hash": "0x07444344d402fe24653ac87164fe7ce64a745699747f4dedd1d2e4300d5124ed",
      "blockHash": "0x25d2c2cb52fae29c48e77e1db6295a9cd1fab837efc18884fbb116d1f4612605",
      "blockNumber": 65029,
      "transactionIndex": 1,
      "confirmations": null,
      "from": "0xe3D2CC033D83A012041189034e92b101FA507bFC",
      "gasPrice": {
        "_hex": "0xba43b7400"
      },
      "gasLimit": {
        "_hex": "0x5208"
      },
      "to": "0xbcb73a3fa9b60E650913E591ddD36D3f2bf08B5f",
      "value": {
        "_hex": "0x2d5eb3bc1aa8000"
      },
      "nonce": 1,
      "data": "0x",
      "r": "0x4e2bec8a2d96f7669b15b1eec5082bfbe33bda921212698b41294d181b9dd225",
      "s": "0x3c6fc624422e61a5c8aef2fa2b45258531616dbd06b2ff8cdaef93f380ec0507",
      "v": 28,
      "creates": null,
      "raw": "0xf86c01850ba43b740082520894bcb73a3fa9b60e650913e591ddd36d3f2bf08b5f8802d5eb3bc1aa8000801ca04e2bec8a2d96f7669b15b1eec5082bfbe33bda921212698b41294d181b9dd225a03c6fc624422e61a5c8aef2fa2b45258531616dbd06b2ff8cdaef93f380ec0507",
      "networkId": 0,
      "chainId": 0
    }
  ]
}