{
  "hash": "0xc8c707cce3db3121fc56ce25fea7b46f9ae32f5b0d2fe6e53243e639210f1d6d",
  "parentHash": "0x389f1cc445965f16d77efa5c544bbc68f60e590bf27f49d7e9408982f57b7635",
  "number": 120664,
  "timestamp": 1440163904,
  "nonce": "0xac23892d75ace5ed",
  "difficulty": 4410989916428,
  "gasLimit": {
    "_hex": "0x2fefd8"
  },
  "gasUsed": {
    "_hex": "0x5208"
  },
  "miner": "0xf8E0CA3Ed80bd541b94BEdCf259e8CF2141A9523",
  "extraData": "0x",
  "transactions": [
    {
      "hash": "0xb398ec0d760b002cedd8f711f4788e353fc63fb6200b548cc3cdacb9d14b6560",
      "blockHash": "0xc8c707cce3db3121fc56ce25fea7b46f9ae32f5b0d2fe6e53243e639210f1d6d",
      "blockNumber": 120664,
      "transactionIndex": 0,
      "confirmations": null,
      "from": "0xFBb1b73C4f0BDa4f67dcA266ce6Ef42f520fBB98",
      "gasPrice": {
        "_hex": "0xba43b7400"
      },
      "gasLimit": {
        "_hex": "0x5208"
      },
      "to": "0xd131F6C3957d70A74cb28737528Cb609C45ee509",
      "value": {
        "_hex": "0x23d3335df2171400"
      },
      "nonce": 256,
      "data": "0x",
      "r": "0xbff6baabd1eb3c81db4c41f3d1273ff1ca7399c18b23c0f489397c69c828fdda",
      "s": "0x5b58a72232ba2949dba54c170b0089dcacec71ed7c1a136409587fbcaa0bb7ab",
      "v": 28,
      "creates": null,
      "raw": "0xf86e820100850ba43b740082520894d131f6c3957d70a74cb28737528cb609c45ee5098823d3335df2171400801ca0bff6baabd1eb3c81db4c41f3d1273ff1ca7399c18b23c0f489397c69c828fddaa05b58a72232ba2949dba54c170b0089dcacec71ed7c1a136409587fbcaa0bb7ab",
      "networkId": 0,
      "chainId": 0
    }
  ]
}