{
  "hash": "0x8873f1d237b1569d9566693237f8bf85f3772a6ce5da0ed068a49443b4d1423c",
  "parentHash": "0xbded6f10e3580abb4f3b3d67d7ec79640cae0625b53ca5b725f950009251787b",
  "number": 75507,
  "timestamp": 1439404560,
  "nonce": "0xab20dc3cec68f75a",
  "difficulty": 2209364396489,
  "gasLimit": {
    "_hex": "0x2fefd8"
  },
  "gasUsed": {
    "_hex": "0xad77"
  },
  "miner": "0xe6A7a1d47ff21B6321162AEA7C6CB457D5476Bca",
  "extraData": "0x476574682f76312e302e312d38326566323666362f6c696e75782f676f312e34",
  "transactions": [
    {
      "hash": "0x19ea9c04ea1b0f4bfbdf1627f4f35ee2a9221e32122a886c650cb24f8202aa9e",
      "blockHash": "0x8873f1d237b1569d9566693237f8bf85f3772a6ce5da0ed068a49443b4d1423c",
      "blockNumber": 75507,
      "transactionIndex": 0,
      "confirmations": null,
      "from": "0x87C5B5874A18B4306DF8a752a6C8cc3E82daFc19",
      "gasPrice": {
        "_hex": "0xfee59758a7"
      },
      "gasLimit": {
        "_hex": "0x493e0"
      },
      "to": "0xD79B4C6791784184e2755B2fC1659eaaB0f80456",
      "value": {
        "_hex": "0x0"
      },
      "nonce": 50,
      "data": "0x03750d94000000000000000000000000326be8f71bfb0379f989aab1cc1fe37f0a771f606162653166363662653330656565343100000000000000000000000000000000",
      "r": "0xde5443caf2656f7a891f847ff5dc643d29c7302f7450abcd1b7779d368b244b9",
      "s": "0x17aaed7eb4ee08fe98af704129810d96f5ed03bf4f2bcd928a700e2fc102f999",
      "v": 28,
      "creates": null,
      "raw": "0xf8aa3285fee59758a7830493e094d79b4c6791784184e2755b2fc1659eaab0f8045680b84403750d94000000000000000000000000326be8f71bfb0379f989aab1cc1fe37f0a771f6061626531663636626533306565653431000000000000000000000000000000001ca0de5443caf2656f7a891f847ff5dc643d29c7302f7450abcd1b7779d368b244b9a017aaed7eb4ee08fe98af704129810d96f5ed03bf4f2bcd928a700e2fc102f999",
      "networkId": 0,
      "chainId": 0
    }
  ]
}