{
  "hash": "0xcc3a24173847179c420cb1675be3465081e5640ceb00e76f28b1c1b16562d664",
  "parentHash": "0xa901efbcb5170d5e78f9aab329c74e6b29dee7989aec38a4975c7602cfdeacca",
  "number": 86057,
  "timestamp": 1439572874,
  "nonce": "0x6f8a377c4bf5d632",
  "difficulty": 2794841387321,
  "gasLimit": {
    "_hex": "0x2fefd8"
  },
  "gasUsed": {
    "_hex": "0x55d8"
  },
  "miner": "0x85804C279425A6403f00cC9C4b7045dC0CA2F82E",
  "extraData": "0x",
  "transactions": [
    {
      "hash": "0x2526f60d953822b1a205733d312c55dbd769ad579cb767b2c5a53b6128164309",
      "blockHash": "0xcc3a24173847179c420cb1675be3465081e5640ceb00e76f28b1c1b16562d664",
      "blockNumber": 86057,
      "transactionIndex": 0,
      "confirmations": null,
      "from": "0xBB274103ed8b7CE3b55f9dF7d13F5FFF306251FF",
      "gasPrice": {
        "_hex": "0xdd1ebda19"
      },
      "gasLimit": {
        "_hex": "0x15f90"
      },
      "to": "0x0000000000000000000000000000000000000000",
      "value": {
        "_hex": "0x8ac7230489e80000"
      },
      "nonce": 0,
      "data": "0xb214faa5535537564544514b310000000000000000000000000000000000000000000000",
      "r": "0x5e033215fe57cf8f5bd6e3695b4e7ae545a296304e3eb4cff08144e0c017a4a8",
      "s": "0x74121e977de49a1c668570a528f16c00f794ac9604fae332f663f1784da2c3e5",
      "v": 27,
      "creates": null,
      "raw": "0xf89180850dd1ebda1983015f90940000000000000000000000000000000000000000888ac7230489e80000a4b214faa5535537564544514b3100000000000000000000000000000000000000000000001ba05e033215fe57cf8f5bd6e3695b4e7ae545a296304e3eb4cff08144e0c017a4a8a074121e977de49a1c668570a528f16c00f794ac9604fae332f663f1784da2c3e5",
      "networkId": 0,
      "chainId": 0
    }
  ]
}