{
  "hash": "0x34ee35f8e669f9a2ed3b055f35b537ebbb09e3e21bb9a38659b7d5e989729184",
  "parentHash": "0x3ef1ad190f0e0134d3cd9be256eee27a724345a6378d5f28bf520719c4125d6f",
  "number": 71005,
  "timestamp": 1439328926,
  "nonce": "0x8d5088c497f941cf",
  "difficulty": 2159343087331,
  "gasLimit": {
    "_hex": "0x2fefd8"
  },
  "gasUsed": {
    "_hex": "0x5208"
  },
  "miner": "0xe6A7a1d47ff21B6321162AEA7C6CB457D5476Bca",
  "extraData": "0x476574682f76312e302e312d38326566323666362f6c696e75782f676f312e34",
  "transactions": [
    {
      "hash": "0x241d5c85de49d1fc493e65ef567b8364ad08a9241c42fd107b64737df6d37599",
      "blockHash": "0x34ee35f8e669f9a2ed3b055f35b537ebbb09e3e21bb9a38659b7d5e989729184",
      "blockNumber": 71005,
      "transactionIndex": 0,
      "confirmations": null,
      "from": "0xDeDbaA6D17975d4edc31195983F9AFaB1529CD47",
      "gasPrice": {
        "_hex": "0xd8b7138b4"
      },
      "gasLimit": {
        "_hex": "0x5208"
      },
      "to": "0x32Be343B94f860124dC4fEe278FDCBD38C102D88",
      "value": {
        "_hex": "0x56bc3082ce64cc000"
      },
      "nonce": 3,
      "data": "0x",
      "r": "0x3347ec2e105000a7f321ca0ac2c04fb4a582884f289ab3e17e04ef880a118871",
      "s": "0x7e22b4bb735dfa7f88090a1c6ec109b4669562940fa90c824c209d34d2ae078d",
      "v": 28,
      "creates": null,
      "raw": "0xf86d03850d8b7138b48252089432be343b94f860124dc4fee278fdcbd38c102d8889056bc3082ce64cc000801ca03347ec2e105000a7f321ca0ac2c04fb4a582884f289ab3e17e04ef880a118871a07e22b4bb735dfa7f88090a1c6ec109b4669562940fa90c824c209d34d2ae078d",
      "networkId": 0,
      "chainId": 0
    }
  ]
}