{
  "hash": "0x9279117674e04542d908b5555da3b8bba47092d4c72ecf8749404ec3fabb0b41",
  "parentHash": "0x4a278a0e0fa3fbc64e1f4171fc14ced8e776f5bb6aa51075d0b8552213c21aa3",
  "number": 111469,
  "timestamp": 1439990734,
  "nonce": "0xb12c3e56daeb7099",
  "difficulty": 4448288804836,
  "gasLimit": {
    "_hex": "0x2fefd8"
  },
  "gasUsed": {
    "_hex": "0x5438"
  },
  "miner": "0x0037ce3d4B7f8729C8607D8D0248252Be68202c0",
  "extraData": "0x476574682f76312e302e312f77696e646f77732f676f312e342e32",
  "transactions": [
    {
      "hash": "0x37ab8195c921e157303fedd0d89c553da7caa3ecb15c12459ff3e6dbec72a01d",
      "blockHash": "0x9279117674e04542d908b5555da3b8bba47092d4c72ecf8749404ec3fabb0b41",
      "blockNumber": 111469,
      "transactionIndex": 0,
      "confirmations": null,
      "from": "0x0D82Cd113DC35DdDA93f38166cD5CDe8b88e36A1",
      "gasPrice": {
        "_hex": "0xd5f6bcdc2"
      },
      "gasLimit": {
        "_hex": "0x15f90"
      },
      "to": "0x056507108FE6d30189EcCD6cd7F4Fad56eEef622",
      "value": {
        "_hex": "0x16345785d8a0000"
      },
      "nonce": 26,
      "data": "0x000002ff0002ff00ffe3bdd6",
      "r": "0x6c208c629ffc4701f95dcc0b521e4db2345966f31b69253c2fd84a77428ee906",
      "s": "0x226c894ce41e5cb5b6c76f7b66d0a3b3ea6631b3f5e8569d644a4a33311a37b6",
      "v": 27,
      "creates": null,
      "raw": "0xf8791a850d5f6bcdc283015f9094056507108fe6d30189eccd6cd7f4fad56eeef62288016345785d8a00008c000002ff0002ff00ffe3bdd61ba06c208c629ffc4701f95dcc0b521e4db2345966f31b69253c2fd84a77428ee906a0226c894ce41e5cb5b6c76f7b66d0a3b3ea6631b3f5e8569d644a4a33311a37b6",
      "networkId": 0,
      "chainId": 0
    }
  ]
}