{
  "hash": "0x1e143ab9785d93120c75431d6d7eed458339974ea7a9fe123b9d2289932bf710",
  "parentHash": "0xe5ba6a8e42a2eb94e8e94d011104c5efcfe758e1cfbe7760107990e04b63ef3c",
  "number": 71325,
  "timestamp": 1439334197,
  "nonce": "0x5075b006ce0274fc",
  "difficulty": 2169829764877,
  "gasLimit": {
    "_hex": "0x2fefd8"
  },
  "gasUsed": {
    "_hex": "0x93b2"
  },
  "miner": "0xbb7B8287f3F0a933474a79eAe42CBCa977791171",
  "extraData": "0x476574682f4c5649562f76312e302e312f6c696e75782f676f312e342e32",
  "transactions": [
    {
      "hash": "0x51a707d69d7ed6b790c056c75b26f2b6aa993f139512c3bdcafc9af8e1ef5542",
      "blockHash": "0x1e143ab9785d93120c75431d6d7eed458339974ea7a9fe123b9d2289932bf710",
      "blockNumber": 71325,
      "transactionIndex": 0,
      "confirmations": null,
      "from": "0x17580B766f7453525ca4C6A88b01b50570EA088C",
      "gasPrice": {
        "_hex": "0xdc1cc538a"
      },
      "gasLimit": {
        "_hex": "0x61a80"
      },
      "to": "0x5Fe5B7546D1628f7348B023A0393de1FC825A4fD",
      "value": {
        "_hex": "0x1bc16d674ec80000"
      },
      "nonce": 151,
      "data": "0xb595b8b50000000000000000000000000000000000000000000000000000000000000000",
      "r": "0xace8e78e1eea13b65159361a0a552c167853c4ff6f5fc9323cfa48f39f6321fd",
      "s": "0x7e355c9f6ecc2e56434c255d967ea8b1feda7abace5a1ac79f8e7c3d827cec5e",
      "v": 27,
      "creates": null,
      "raw": "0xf8928197850dc1cc538a83061a80945fe5b7546d1628f7348b023a0393de1fc825a4fd881bc16d674ec80000a4b595b8b500000000000000000000000000000000000000000000000000000000000000001ba0ace8e78e1eea13b65159361a0a552c167853c4ff6f5fc9323cfa48f39f6321fda07e355c9f6ecc2e56434c255d967ea8b1feda7abace5a1ac79f8e7c3d827cec5e",
      "networkId": 0,
      "chainId": 0
    }
  ]
}