{
  "hash": "0xa4e2157794062f67eef94f904460bacb465c6f36fc9832497951e1a59d46378b",
  "parentHash": "0x290194a88afd89bbe5af876adab1a526619c72d6ca835e12880c25a6c8545c75",
  "number": 69115,
  "timestamp": 1439298516,
  "nonce": "0x65878322b7f22d2c",
  "difficulty": 2058912207047,
  "gasLimit": {
    "_hex": "0x2fefd8"
  },
  "gasUsed": {
    "_hex": "0xa410"
  },
  "miner": "0x88D74a59454F6cF3B51ef6b9136AFb6b9D405A88",
  "extraData": "0x476574682f76312e302e312d37666266393930632f6c696e75782f676f312e34",
  "transactions": [
    {
      "hash": "0xbce7cb57efc410f9245a3e704ba6b5945dbb26cbbe06d3f73fd13c61771f4aa5",
      "blockHash": "0xa4e2157794062f67eef94f904460bacb465c6f36fc9832497951e1a59d46378b",
      "blockNumber": 69115,
      "transactionIndex": 0,
      "confirmations": null,
      "from": "0x08eee5986e1E1cEcdfdA06fDa53cef108D1dbAC6",
      "gasPrice": {
        "_hex": "0xba43b7400"
      },
      "gasLimit": {
        "_hex": "0x5208"
      },
      "to": "0x6747f922385c9a6F9cfDf095F34345257DD597bE",
      "value": {
        "_hex": "0xa305c189a5ac00"
      },
      "nonce": 1,
      "data": "0x",
      "r": "0x39709d96e1cf5e0b6b008ec55d68fb4668d9f1b83fe5ff4468362e5b6324edf2",
      "s": "0x7edab6fd8cae29eb37cca98982bf17d1591ef741f9b2bb967d513a0655b46a3c",
      "v": 27,
      "creates": null,
      "raw": "0xf86b01850ba43b7400825208946747f922385c9a6f9cfdf095f34345257dd597be87a305c189a5ac00801ba039709d96e1cf5e0b6b008ec55d68fb4668d9f1b83fe5ff4468362e5b6324edf2a07edab6fd8cae29eb37cca98982bf17d1591ef741f9b2bb967d513a0655b46a3c",
      "networkId": 0,
      "chainId": 0
    },
    {
      "hash": "0x46cd4e4c71c5bc847eb2885a2cbc73d951eae3c246fe57b4ef82048392a05a75",
      "blockHash": "0xa4e2157794062f67eef94f904460bacb465c6f36fc9832497951e1a59d46378b",
      "blockNumber": 69115,
      "transactionIndex": 1,
      "confirmations": null,
      "from": "0xe32ee025CfD3fD259b22635dF8E30409C5A4A39A",
      "gasPrice": {
        "_hex": "0xba43b7400"
      },
      "gasLimit": {
        "_hex": "0x5208"
      },
      "to": "0x6747f922385c9a6F9cfDf095F34345257DD597bE",
      "value": {
        "_hex": "0xc1c23435b07000"
      },
      "nonce": 1,
      "data": "0x",
      "r": "0x62d795357fcabb837a279eef994608c51675844f1728f736c80aa69e4466bda0",
      "s": "0x0eff9eb95f0d83b12220d9d96ca5ed90e595874dfb794a32b3f9b46f1ecca0d1",
      "v": 28,
      "creates": null,
      "raw": "0xf86b01850ba43b7400825208946747f922385c9a6f9cfdf095f34345257dd597be87c1c23435b07000801ca062d795357fcabb837a279eef994608c51675844f1728f736c80aa69e4466bda0a00eff9eb95f0d83b12220d9d96ca5ed90e595874dfb794a32b3f9b46f1ecca0d1",
      "networkId": 0,
      "chainId": 0
    }
  ]
}