{
  "hash": "0xa80eea1f6d54754b0aaeeea0b8a506d6dc02a1897e70871522592a27d8b5283b",
  "parentHash": "0x25fe41cfaedacad911ca14e4e70aebbaa3b7f7ed4575defdc33b3ce2f78f3fc6",
  "number": 115003,
  "timestamp": 1440050126,
  "nonce": "0xe1df8e6f44d86d73",
  "difficulty": 4498828138697,
  "gasLimit": {
    "_hex": "0x2fefd8"
  },
  "gasUsed": {
    "_hex": "0x5208"
  },
  "miner": "0xe6A7a1d47ff21B6321162AEA7C6CB457D5476Bca",
  "extraData": "0x476574682f76312e302e312d38326566323666362f6c696e75782f676f312e34",
  "transactions": [
    {
      "hash": "0x32399ef5074f96f40d5f321291c13252facc425407cb0a39a1bf5af49341c625",
      "blockHash": "0xa80eea1f6d54754b0aaeeea0b8a506d6dc02a1897e70871522592a27d8b5283b",
      "blockNumber": 115003,
      "transactionIndex": 0,
      "confirmations": null,
      "from": "0x4D67f4F0Db45b3B5a3424B39ed8d972F710381D5",
      "gasPrice": {
        "_hex": "0xd7feece02"
      },
      "gasLimit": {
        "_hex": "0x5208"
      },
      "to": "0x32Be343B94f860124dC4fEe278FDCBD38C102D88",
      "value": {
        "_hex": "0x2f9dfa7ba01778000"
      },
      "nonce": 45,
      "data": "0x",
      "r": "0x858475460d3b5c6032a5ad46fad5a65537bce9eadd0e655f3876522b4260507f",
      "s": "0x20fe36a9ddd7783806c73821d9637ba5cd16f2f84259eb5d53601a00cab45dce",
      "v": 28,
      "creates": null,
      "raw": "0xf86d2d850d7feece028252089432be343b94f860124dc4fee278fdcbd38c102d888902f9dfa7ba01778000801ca0858475460d3b5c6032a5ad46fad5a65537bce9eadd0e655f3876522b4260507fa020fe36a9ddd7783806c73821d9637ba5cd16f2f84259eb5d53601a00cab45dce",
      "networkId": 0,
      "chainId": 0
    }
  ]
}