{
  "hash": "0x22d47191d6941f82a4b2b22e138200aefc621aa7199c722ea3b8b58eda1ba838",
  "parentHash": "0x35b713c4824f61870fdce9552cc8a33de57645c160e93dc8b201225d49e1a65b",
  "number": 120909,
  "timestamp": 1440168100,
  "nonce": "0x2bed154cb68371f6",
  "difficulty": 4434615977775,
  "gasLimit": {
    "_hex": "0x2fefd8"
  },
  "gasUsed": {
    "_hex": "0x5208"
  },
  "miner": "0x52bc44d5378309EE2abF1539BF71dE1b7d7bE3b5",
  "extraData": "0xd783010002844765746887676f312e342e32856c696e7578",
  "transactions": [
    {
      "hash": "0x00dc41574c9b813e72436ae94da9d1ba148c669d3d19e6b73424324f3eff4e1f",
      "blockHash": "0x22d47191d6941f82a4b2b22e138200aefc621aa7199c722ea3b8b58eda1ba838",
      "blockNumber": 120909,
      "transactionIndex": 0,
      "confirmations": null,
      "from": "0xA10C59651885FeAaac91F871082a23BBbaBeDfCf",
      "gasPrice": {
        "_hex": "0xba43b7400"
      },
      "gasLimit": {
        "_hex": "0x5208"
      },
      "to": "0x4c74B6F32c9680aCB5Fe0e72B7Aa95C612540A04",
      "value": {
        "_hex": "0x3782dace9d900000"
      },
      "nonce": 47,
      "data": "0x",
      "r": "0x71bf95f9b8f942d1e8548b511c562b58614a79881d63e8db2179935124281833",
      "s": "0x52eb0cd834bfbb3c4de3a84ff1070c28ebc06c9e09aab21781402c71fb217ff0",
      "v": 27,
      "creates": null,
      "raw": "0xf86c2f850ba43b7400825208944c74b6f32c9680acb5fe0e72b7aa95c612540a04883782dace9d900000801ba071bf95f9b8f942d1e8548b511c562b58614a79881d63e8db2179935124281833a052eb0cd834bfbb3c4de3a84ff1070c28ebc06c9e09aab21781402c71fb217ff0",
      "networkId": 0,
      "chainId": 0
    }
  ]
}