{
  "hash": "0x370614d1ada45db87d36f785864532e2e168b3a3b99a8348a7b2b34c66a4eae2",
  "parentHash": "0xf6c3618c51da58a6e333eed501de3f3dd596dc787d2c710fbff5d51e220fa066",
  "number": 101007,
  "timestamp": 1439815977,
  "nonce": "0xb89929b80a3e5fbe",
  "difficulty": 3865786205349,
  "gasLimit": {
    "_hex": "0x2fefd8"
  },
  "gasUsed": {
    "_hex": "0x5208"
  },
  "miner": "0xe6A7a1d47ff21B6321162AEA7C6CB457D5476Bca",
  "extraData": "0x476574682f76312e302e312d38326566323666362f6c696e75782f676f312e34",
  "transactions": [
    {
      "hash": "0xcfba1a516278fa2bde932526cb6247d83b5742c868d8f1b210f7b6f31a3b6dde",
      "blockHash": "0x370614d1ada45db87d36f785864532e2e168b3a3b99a8348a7b2b34c66a4eae2",
      "blockNumber": 101007,
      "transactionIndex": 0,
      "confirmations": null,
      "from": "0x7884D470204862a0d1A21122F41ee77430396Ee5",
      "gasPrice": {
        "_hex": "0xcb77c8ba3"
      },
      "gasLimit": {
        "_hex": "0x15f90"
      },
      "to": "0xE9f1bbcC9F6d340c67Dac6983ab7fc17051Aa1C2",
      "value": {
        "_hex": "0x186cc6acd4b0000"
      },
      "nonce": 80,
      "data": "0x",
      "r": "0xe7de04a47a0df51ffb98c3f5dd83672268a786b4401db9b30e8a627a7f2b6517",
      "s": "0x0ef457a873920ba684b1056e42447e11ecf4c0462726f3acf1d5315c9091a568",
      "v": 27,
      "creates": null,
      "raw": "0xf86d50850cb77c8ba383015f9094e9f1bbcc9f6d340c67dac6983ab7fc17051aa1c2880186cc6acd4b0000801ba0e7de04a47a0df51ffb98c3f5dd83672268a786b4401db9b30e8a627a7f2b6517a00ef457a873920ba684b1056e42447e11ecf4c0462726f3acf1d5315c9091a568",
      "networkId": 0,
      "chainId": 0
    }
  ]
}