{
  "hash": "0xfd4b9bf5667941bfab46004fe2f18ccc603a91116e9cc3cc7b47e2e34d48c4b1",
  "parentHash": "0x867ed154328eec942e3c5069c113920b15fe8517f3d212975b7dbe189aba16da",
  "number": 51143,
  "timestamp": 1439000026,
  "nonce": "0xcfcab0f53bd4e344",
  "difficulty": 1559003380525,
  "gasLimit": {
    "_hex": "0x9476a"
  },
  "gasUsed": {
    "_hex": "0x5208"
  },
  "miner": "0x88D74a59454F6cF3B51ef6b9136AFb6b9D405A88",
  "extraData": "0x476574682f76312e302e302d66633739643332642f6c696e75782f676f312e34",
  "transactions": [
    {
      "hash": "0xeeb1df305db9d93a515756c3097bf646b9976b119823e802419c93c241bc5c7a",
      "blockHash": "0xfd4b9bf5667941bfab46004fe2f18ccc603a91116e9cc3cc7b47e2e34d48c4b1",
      "blockNumber": 51143,
      "transactionIndex": 0,
      "confirmations": null,
      "from": "0xfC372FF6927CB396d9cf29803500110Da632bC52",
      "gasPrice": {
        "_hex": "0x10b2317407e"
      },
      "gasLimit": {
        "_hex": "0xc350"
      },
      "to": "0xa748fac76B1d857E2f77484a0F816463e8b56EDc",
      "value": {
        "_hex": "0xde0b6b3a7640000"
      },
      "nonce": 3,
      "data": "0x",
      "r": "0x3c6fb30f18c14cb9de874bc750e69cf3df4be3105f69bd80b546cb07129577e8",
      "s": "0x0655206fc180a1e6811021a701dff1fb566807e1f111bbed947a575229691b07",
      "v": 28,
      "creates": null,
      "raw": "0xf86d0386010b2317407e82c35094a748fac76b1d857e2f77484a0f816463e8b56edc880de0b6b3a7640000801ca03c6fb30f18c14cb9de874bc750e69cf3df4be3105f69bd80b546cb07129577e8a00655206fc180a1e6811021a701dff1fb566807e1f111bbed947a575229691b07",
      "networkId": 0,
      "chainId": 0
    }
  ]
}