{
  "hash": "0x7c5ffd0cf5fcfdc44ea5e64edb11eae23e1a953f1cd3ca047c9307ae7d9d58bb",
  "parentHash": "0x282f54a18670e1c74ab9f9d0e91a05716fc18ff7bda74f78746e28d5d67d756f",
  "number": 91194,
  "timestamp": 1439651855,
  "nonce": "0xfe0fb4152da6f39e",
  "difficulty": 3437287097346,
  "gasLimit": {
    "_hex": "0x2fefd8"
  },
  "gasUsed": {
    "_hex": "0x5208"
  },
  "miner": "0xe6A7a1d47ff21B6321162AEA7C6CB457D5476Bca",
  "extraData": "0x476574682f76312e302e312d38326566323666362f6c696e75782f676f312e34",
  "transactions": [
    {
      "hash": "0x5e7c384c9fdbc2f8efca649e07c1037979e9e547ba9a95c2a08396dc75da1d67",
      "blockHash": "0x7c5ffd0cf5fcfdc44ea5e64edb11eae23e1a953f1cd3ca047c9307ae7d9d58bb",
      "blockNumber": 91194,
      "transactionIndex": 0,
      "confirmations": null,
      "from": "0x120A270bbC009644e35F0bB6ab13f95b8199c4ad",
      "gasPrice": {
        "_hex": "0xce39d1b1d"
      },
      "gasLimit": {
        "_hex": "0x3d090"
      },
      "to": "0x80E03eAb4185068f85f9eC2a65c31bdE6Ed0A097",
      "value": {
        "_hex": "0x22b1c8c1227a00000"
      },
      "nonce": 531,
      "data": "0x",
      "r": "0x11ff9b5bced502951de94f3458a7633850a12ca859e61e0566001495a95fe1c5",
      "s": "0x10c18564b704d7ec408c66f9728d1520595aa17b085c875fa412325aabb9acdf",
      "v": 27,
      "creates": null,
      "raw": "0xf870820213850ce39d1b1d8303d0909480e03eab4185068f85f9ec2a65c31bde6ed0a09789022b1c8c1227a00000801ba011ff9b5bced502951de94f3458a7633850a12ca859e61e0566001495a95fe1c5a010c18564b704d7ec408c66f9728d1520595aa17b085c875fa412325aabb9acdf",
      "networkId": 0,
      "chainId": 0
    }
  ]
}