{
  "hash": "0xc9c9600398cbcaedd94ef0102f19a252e903f142547a69bf2a258ed0bce54fea",
  "parentHash": "0x140cd3dc65f70916bdd3114d55ef669afbb318e7bf53826d50b57bd41605d889",
  "number": 99790,
  "timestamp": 1439795612,
  "nonce": "0x3cec59bbec8e536b",
  "difficulty": 3834386215185,
  "gasLimit": {
    "_hex": "0x2fefd8"
  },
  "gasUsed": {
    "_hex": "0x5208"
  },
  "miner": "0xaEAf103356C2Ee943F748E8655659D29881323E1",
  "extraData": "0x476574682f76312e302e312f77696e646f77732f676f312e342e32",
  "transactions": [
    {
      "hash": "0x5e04ba37fc6207c3e0804fa1cc98ade8ef6bb5efe63bc201523df021c9c41150",
      "blockHash": "0xc9c9600398cbcaedd94ef0102f19a252e903f142547a69bf2a258ed0bce54fea",
      "blockNumber": 99790,
      "transactionIndex": 0,
      "confirmations": null,
      "from": "0xD0317e8d007a61B8d740516E8a268D4faDADccbF",
      "gasPrice": {
        "_hex": "0xd8a42e281"
      },
      "gasLimit": {
        "_hex": "0x15f90"
      },
      "to": "0xdeE4977F74E6Aef6D627191c9A45D2627e331150",
      "value": {
        "_hex": "0x107ad8f556c6c0000"
      },
      "nonce": 6,
      "data": "0x",
      "r": "0x1b53c7af2b181bbb845fd42bc1715d1435e953890f0ea9b8ed9285228186eb60",
      "s": "0x4bc5f2534ebd23829d11724ebe2119fe9052d87ee394e06b3cc3a9d13c88b1f8",
      "v": 28,
      "creates": null,
      "raw": "0xf86e06850d8a42e28183015f9094dee4977f74e6aef6d627191c9a45d2627e331150890107ad8f556c6c0000801ca01b53c7af2b181bbb845fd42bc1715d1435e953890f0ea9b8ed9285228186eb60a04bc5f2534ebd23829d11724ebe2119fe9052d87ee394e06b3cc3a9d13c88b1f8",
      "networkId": 0,
      "chainId": 0
    }
  ]
}