{
  "hash": "0xab7d2543bd38d97e6a6339f0a2a969f77eec885e4da3df575d8998ccd292c76f",
  "parentHash": "0x7e1387a91ee35664a316162ff24ae8c4b8be7c150c494efe33e053902a08ee8b",
  "number": 107173,
  "timestamp": 1439917493,
  "nonce": "0x29c02bc6db3ed790",
  "difficulty": 4454915840560,
  "gasLimit": {
    "_hex": "0x2fefd8"
  },
  "gasUsed": {
    "_hex": "0x14820"
  },
  "miner": "0xe6A7a1d47ff21B6321162AEA7C6CB457D5476Bca",
  "extraData": "0x476574682f76312e302e312d38326566323666362f6c696e75782f676f312e34",
  "transactions": [
    {
      "hash": "0xdb6cf94040facf03d267831e9ad50c0c2a411279e728b3baaced237c711487a8",
      "blockHash": "0xab7d2543bd38d97e6a6339f0a2a969f77eec885e4da3df575d8998ccd292c76f",
      "blockNumber": 107173,
      "transactionIndex": 0,
      "confirmations": null,
      "from": "0xf652cE4D07f4b2f4Fd6F582F9e1f22a868AD60dA",
      "gasPrice": {
        "_hex": "0xe1243821d"
      },
      "gasLimit": {
        "_hex": "0x5208"
      },
      "to": "0xFBb1b73C4f0BDa4f67dcA266ce6Ef42f520fBB98",
      "value": {
        "_hex": "0x1824a209b81a518"
      },
      "nonce": 0,
      "data": "0x",
      "r": "0x3d39a0a8a9db89481281216783b9560eb19a64d6abb0dee5aa6fcec01529627b",
      "s": "0x17b6ea54df6e5c488b14b6a91b4cc0548da47a584008dbd0507ad5fb29f79a4d",
      "v": 28,
      "creates": null,
      "raw": "0xf86c80850e1243821d82520894fbb1b73c4f0bda4f67dca266ce6ef42f520fbb988801824a209b81a518801ca03d39a0a8a9db89481281216783b9560eb19a64d6abb0dee5aa6fcec01529627ba017b6ea54df6e5c488b14b6a91b4cc0548da47a584008dbd0507ad5fb29f79a4d",
      "networkId": 0,
      "chainId": 0
    },
    {
      "hash": "0x344c3c3eca7f5114101a97b74e12d42ffb0758e063dc05c9309445bc123831d6",
      "blockHash": "0xab7d2543bd38d97e6a6339f0a2a969f77eec885e4da3df575d8998ccd292c76f",
      "blockNumber": 107173,
      "transactionIndex": 1,
      "confirmations": null,
      "from": "0x2E150c676CFf77ffcE03140E68871A96270B950b",
      "gasPrice": {
        "_hex": "0xdf1a27311"
      },
      "gasLimit": {
        "_hex": "0x15f90"
      },
      "to": "0x6724EFf089f9dD79c381137DF68678bD574B37e0",
      "value": {
        "_hex": "0x2fb474098f67c0000"
      },
      "nonce": 2,
      "data": "0x",
      "r": "0xaff0ca22a12b05104f2f5d266d8729adc067ca03570aea2c501caca6b90237f9",
      "s": "0x2b02d29d3ad0fda833fe6d00b6150065b1ae8af095db500dc9dc6d99565c98d8",
      "v": 27,
      "creates": null,
      "raw": "0xf86e02850df1a2731183015f90946724eff089f9dd79c381137df68678bd574b37e08902fb474098f67c0000801ba0aff0ca22a12b05104f2f5d266d8729adc067ca03570aea2c501caca6b90237f9a02b02d29d3ad0fda833fe6d00b6150065b1ae8af095db500dc9dc6d99565c98d8",
      "networkId": 0,
      "chainId": 0
    },
    {
      "hash": "0xa0c8b6e9599d4a182a3e52a7bc739128e6f3416d7b14f14b8d8f904585ea8471",
      "blockHash": "0xab7d2543bd38d97e6a6339f0a2a969f77eec885e4da3df575d8998ccd292c76f",
      "blockNumber": 107173,
      "transactionIndex": 2,
      "confirmations": null,
      "from": "0x120A270bbC009644e35F0bB6ab13f95b8199c4ad",
      "gasPrice": {
        "_hex": "0xd312f6714"
      },
      "gasLimit": {
        "_hex": "0x3d090"
      },
      "to": "0xF6F1A44309051c6B25e47dff909B179Bb9aB591C",
      "value": {
        "_hex": "0x3ba1910bf341b00000"
      },
      "nonce": 800,
      "data": "0x",
      "r": "0x80a42b4ac55bef0b72e2336edc9cc625d50a88d6ac246823dc4487eb5497c9b0",
      "s": "0x2e90412c086b7eb3d67e0cd5354073e57f6d6d135c08d060fe07c61eeef9611e",
      "v": 28,
      "creates": null,
      "raw": "0xf870820320850d312f67148303d09094f6f1a44309051c6b25e47dff909b179bb9ab591c893ba1910bf341b00000801ca080a42b4ac55bef0b72e2336edc9cc625d50a88d6ac246823dc4487eb5497c9b0a02e90412c086b7eb3d67e0cd5354073e57f6d6d135c08d060fe07c61eeef9611e",
      "networkId": 0,
      "chainId": 0
    },
    {
      "hash": "0xfd59fce33f32b6e14fe65ddbf6d6deaa055292e14c6d938caa22efd3d380357f",
      "blockHash": "0xab7d2543bd38d97e6a6339f0a2a969f77eec885e4da3df575d8998ccd292c76f",
      "blockNumber": 107173,
      "transactionIndex": 3,
      "confirmations": null,
      "from": "0x120A270bbC009644e35F0bB6ab13f95b8199c4ad",
      "gasPrice": {
        "_hex": "0xd312f6714"
      },
      "gasLimit": {
        "_hex": "0x3d090"
      },
      "to": "0xf03f75Aa64b7f7Cd8A431b620353C0c493a95f47",
      "value": {
        "_hex": "0x22a25d59e6962c3000"
      },
      "nonce": 801,
      "data": "0x",
      "r": "0xa7bd1a4a00e83edf43eea34f3f4ad511a4f9a86ca0e9f7d1e29ef5b649a3b291",
      "s": "0x26473dee57bf83de60040c4345f34bd4cf786855cd3ed7b298cfc1eba9a24e66",
      "v": 28,
      "creates": null,
      "raw": "0xf870820321850d312f67148303d09094f03f75aa64b7f7cd8a431b620353c0c493a95f478922a25d59e6962c3000801ca0a7bd1a4a00e83edf43eea34f3f4ad511a4f9a86ca0e9f7d1e29ef5b649a3b291a026473dee57bf83de60040c4345f34bd4cf786855cd3ed7b298cfc1eba9a24e66",
      "networkId": 0,
      "chainId": 0
    }
  ]
}