{
  "hash": "0x61ec2e1d17cbc5499c5708624f628c03f4ba9c21a5715a4ad0c024a7ce8eef55",
  "parentHash": "0xae2e794d1dd5f249bf5bfef35468f2a389959741e2d540f0f47a0742a353358a",
  "number": 46358,
  "timestamp": 1438921803,
  "nonce": "0xaac3633575da0f44",
  "difficulty": 1461810540429,
  "gasLimit": {
    "_hex": "0x5cbc"
  },
  "gasUsed": {
    "_hex": "0x5208"
  },
  "miner": "0xeB1325C8D9d3ea8D74aC11F4B00F1B2367686319",
  "extraData": "0x476574682f76312e302e312f77696e646f77732f676f312e342e32",
  "transactions": [
    {
      "hash": "0x7dc913b80014a8b3a5ef8f0aee7d5acd4e2a610c6482f2afaab474fd1d9a3d0f",
      "blockHash": "0x61ec2e1d17cbc5499c5708624f628c03f4ba9c21a5715a4ad0c024a7ce8eef55",
      "blockNumber": 46358,
      "transactionIndex": 0,
      "confirmations": null,
      "from": "0xF86a3eA8071F7095C7db8A05AE507A8929DBB876",
      "gasPrice": {
        "_hex": "0xba43b74000"
      },
      "gasLimit": {
        "_hex": "0x5208"
      },
      "to": "0xFFB51e371b640C7C251DBFbA2F061b66E9aEA864",
      "value": {
        "_hex": "0x27147114878000"
      },
      "nonce": 2,
      "data": "0x",
      "r": "0x0f508707cafa0cbb2a80cb94267cd6e1ef592e82468b7d551aafa188c5ca47c8",
      "s": "0x24872a8c79f82dc3222fcda7016c673d75608bc5c4fb7eba45d9eb6eed2a7d8c",
      "v": 28,
      "creates": null,
      "raw": "0xf86b0285ba43b7400082520894ffb51e371b640c7c251dbfba2f061b66e9aea8648727147114878000801ca00f508707cafa0cbb2a80cb94267cd6e1ef592e82468b7d551aafa188c5ca47c8a024872a8c79f82dc3222fcda7016c673d75608bc5c4fb7eba45d9eb6eed2a7d8c",
      "networkId": 0,
      "chainId": 0
    }
  ]
}