{
  "hash": "0x08d354fe5b830aaeda812259db31003ba1495038599edf6b39d0baa487e2bc62",
  "parentHash": "0x97db33c6ede075997973a6ce9367fe47e712176b2c20156e70dcb0f73762a773",
  "number": 120290,
  "timestamp": 1440157496,
  "nonce": "0x1aa365f2fb989719",
  "difficulty": 4406880884612,
  "gasLimit": {
    "_hex": "0x2fefd8"
  },
  "gasUsed": {
    "_hex": "0x5208"
  },
  "miner": "0xe6A7a1d47ff21B6321162AEA7C6CB457D5476Bca",
  "extraData": "0xd783010002844765746887676f312e342e32856c696e7578",
  "transactions": [
    {
      "hash": "0xf5c77debb22a05a0d162dc701292aa2597fd1ddd87b031e0b3e8a0740b3f24fb",
      "blockHash": "0x08d354fe5b830aaeda812259db31003ba1495038599edf6b39d0baa487e2bc62",
      "blockNumber": 120290,
      "transactionIndex": 0,
      "confirmations": null,
      "from": "0xFAe95941f26f565646Cc5bF443AfFDe60868f17e",
      "gasPrice": {
        "_hex": "0xba43b7400"
      },
      "gasLimit": {
        "_hex": "0x5208"
      },
      "to": "0xFBb1b73C4f0BDa4f67dcA266ce6Ef42f520fBB98",
      "value": {
        "_hex": "0x1b1ae11beac24c6000"
      },
      "nonce": 2,
      "data": "0x",
      "r": "0x97a480c342f683f435d61302fb8e75a850c2f1250f7c3e7fc58e82a8a164e70a",
      "s": "0x78d88a6df2ca2b4543571ebf14a347c9f79e0a5eb129ad94ec205a323c1d9765",
      "v": 28,
      "creates": null,
      "raw": "0xf86d02850ba43b740082520894fbb1b73c4f0bda4f67dca266ce6ef42f520fbb98891b1ae11beac24c6000801ca097a480c342f683f435d61302fb8e75a850c2f1250f7c3e7fc58e82a8a164e70aa078d88a6df2ca2b4543571ebf14a347c9f79e0a5eb129ad94ec205a323c1d9765",
      "networkId": 0,
      "chainId": 0
    }
  ]
}