{
  "hash": "0xf23402260ae6124b4ce2e6d5e15cfcc5690f09ffe992da71650c4994b1da9563",
  "parentHash": "0x7dba0937ab30d4e804720851ba9fb2ebbbe19e829f80eab8c942a65ccd0572a5",
  "number": 110234,
  "timestamp": 1439970321,
  "nonce": "0x33cc23be529b6d29",
  "difficulty": 4365024216779,
  "gasLimit": {
    "_hex": "0x2fefd8"
  },
  "gasUsed": {
    "_hex": "0xf618"
  },
  "miner": "0xe6A7a1d47ff21B6321162AEA7C6CB457D5476Bca",
  "extraData": "0x476574682f76312e302e312d38326566323666362f6c696e75782f676f312e34",
  "transactions": [
    {
      "hash": "0x53c71f512d5df5470b4cb76499c863fd07386dfa8ae69eab55c5e563ceae8eab",
      "blockHash": "0xf23402260ae6124b4ce2e6d5e15cfcc5690f09ffe992da71650c4994b1da9563",
      "blockNumber": 110234,
      "transactionIndex": 0,
      "confirmations": null,
      "from": "0x7e8504a5e26df87f6D26fA1ba148BE146F42775A",
      "gasPrice": {
        "_hex": "0xcd3baac29"
      },
      "gasLimit": {
        "_hex": "0x15f90"
      },
      "to": "0x9f78552704fe7e52cC7C3853534aA2C3cf580D54",
      "value": {
        "_hex": "0x1158e460913d00000"
      },
      "nonce": 7,
      "data": "0x",
      "r": "0x3dd60981d0ced2b688b86f00476a6d766f176a61c3342562397c46d0ca1dd1be",
      "s": "0x3a661fdbf81287cb36546c2b23bd7ec6e70ed382b8cc42d5cd49ca2971e14a70",
      "v": 28,
      "creates": null,
      "raw": "0xf86e07850cd3baac2983015f90949f78552704fe7e52cc7c3853534aa2c3cf580d548901158e460913d00000801ca03dd60981d0ced2b688b86f00476a6d766f176a61c3342562397c46d0ca1dd1bea03a661fdbf81287cb36546c2b23bd7ec6e70ed382b8cc42d5cd49ca2971e14a70",
      "networkId": 0,
      "chainId": 0
    },
    {
      "hash": "0x36f56fd34656c4e9248b4a8393f90f41d36457a2c9bbe234bcb5f9f4a633d162",
      "blockHash": "0xf23402260ae6124b4ce2e6d5e15cfcc5690f09ffe992da71650c4994b1da9563",
      "blockNumber": 110234,
      "transactionIndex": 1,
      "confirmations": null,
      "from": "0xc42333fFCaB0a62138cf32808723Db35bB9dC45b",
      "gasPrice": {
        "_hex": "0xba43b7400"
      },
      "gasLimit": {
        "_hex": "0x7530"
      },
      "to": "0xeeb66aFe554366d685C7832C6c93727Ba577378D",
      "value": {
        "_hex": "0xb1a2bc2ec500000"
      },
      "nonce": 2,
      "data": "0x",
      "r": "0xf0722599e50899e11ac5a030adf5264cbe287d4234acb37da6be1aec89fcef2c",
      "s": "0x10500d1b62748b28b25e3d4406584d235fc62fb87bada58e098f5eab35467855",
      "v": 28,
      "creates": null,
      "raw": "0xf86c02850ba43b740082753094eeb66afe554366d685c7832c6c93727ba577378d880b1a2bc2ec500000801ca0f0722599e50899e11ac5a030adf5264cbe287d4234acb37da6be1aec89fcef2ca010500d1b62748b28b25e3d4406584d235fc62fb87bada58e098f5eab35467855",
      "networkId": 0,
      "chainId": 0
    },
    {
      "hash": "0x9c15e0d0704a324fa932fe373b8a5b891e6a4921083bca84b9c72558cd81e379",
      "blockHash": "0xf23402260ae6124b4ce2e6d5e15cfcc5690f09ffe992da71650c4994b1da9563",
      "blockNumber": 110234,
      "transactionIndex": 2,
      "confirmations": null,
      "from": "0x67a8Acb3621e0683EC4eeb0be82BE8cf344d97c6",
      "gasPrice": {
        "_hex": "0xba43b7400"
      },
      "gasLimit": {
        "_hex": "0x5208"
      },
      "to": "0xC47Aaa860008be6f65B58c6C6E02a84e666EfE31",
      "value": {
        "_hex": "0x8ac3680c5ce46000"
      },
      "nonce": 4,
      "data": "0x",
      "r": "0xf6bba882c30eaa12f5599990edf860388029e4297d53b4fae9317cd3a346bcba",
      "s": "0x665b09637a5403adce7d42019f8aeb8f16cc538e6b88680c6fce8eaa72ae4605",
      "v": 27,
      "creates": null,
      "raw": "0xf86c04850ba43b740082520894c47aaa860008be6f65b58c6c6e02a84e666efe31888ac3680c5ce46000801ba0f6bba882c30eaa12f5599990edf860388029e4297d53b4fae9317cd3a346bcbaa0665b09637a5403adce7d42019f8aeb8f16cc538e6b88680c6fce8eaa72ae4605",
      "networkId": 0,
      "chainId": 0
    }
  ]
}