{
  "hash": "0x7830e480718a1cf37303b3cf90d79ae54f5e5f762b89fee34216fef783a73130",
  "parentHash": "0x2b1f545a895d8eb936c08789aec3b4e4b8c2e6ec12a3e69db0cec91d31eb2108",
  "number": 89771,
  "timestamp": 1439628781,
  "nonce": "0x322d34f1c33076dd",
  "difficulty": 3343506568752,
  "gasLimit": {
    "_hex": "0x2fefd8"
  },
  "gasUsed": {
    "_hex": "0x5c490"
  },
  "miner": "0xe6A7a1d47ff21B6321162AEA7C6CB457D5476Bca",
  "extraData": "0x476574682f76312e302e312d38326566323666362f6c696e75782f676f312e34",
  "transactions": [
    {
      "hash": "0x3aef75bc02212a932547468f621bb5488e823bbd0da7ec55e7810b84ff950f20",
      "blockHash": "0x7830e480718a1cf37303b3cf90d79ae54f5e5f762b89fee34216fef783a73130",
      "blockNumber": 89771,
      "transactionIndex": 0,
      "confirmations": null,
      "from": "0xe6A7a1d47ff21B6321162AEA7C6CB457D5476Bca",
      "gasPrice": {
        "_hex": "0xd55d40ede"
      },
      "gasLimit": {
        "_hex": "0x55f0"
      },
      "to": "0xE76EaD3b758580Bc4a79eccE04D7c88e061E299a",
      "value": {
        "_hex": "0x1afe20e973eacb08"
      },
      "nonce": 2011,
      "data": "0x",
      "r": "0x312db6532620d4e3ac0ca6d6bf73ed4f19b2f96b04cbdea5f29e0b926a2b9907",
      "s": "0x43b9f25c16f3478156b506711577494faa1860fc6d75bdfb033d63ed214b1701",
      "v": 28,
      "creates": null,
      "raw": "0xf86e8207db850d55d40ede8255f094e76ead3b758580bc4a79ecce04d7c88e061e299a881afe20e973eacb08801ca0312db6532620d4e3ac0ca6d6bf73ed4f19b2f96b04cbdea5f29e0b926a2b9907a043b9f25c16f3478156b506711577494faa1860fc6d75bdfb033d63ed214b1701",
      "networkId": 0,
      "chainId": 0
    },
    {
      "hash": "0x2da0c9e059eda419aa8c8fc8a8fdab09aba13598fec82cb038af0b40b387d39f",
      "blockHash": "0x7830e480718a1cf37303b3cf90d79ae54f5e5f762b89fee34216fef783a73130",
      "blockNumber": 89771,
      "transactionIndex": 1,
      "confirmations": null,
      "from": "0xe6A7a1d47ff21B6321162AEA7C6CB457D5476Bca",
      "gasPrice": {
        "_hex": "0xd55d40ede"
      },
      "gasLimit": {
        "_hex": "0x55f0"
      },
      "to": "0x2B5EBAe239Cb2f35A0974065E6C43A680ABb4bbe",
      "value": {
        "_hex": "0x1b01ee318f7caf1c"
      },
      "nonce": 2012,
      "data": "0x",
      "r": "0x3aa066b5e111426d02e41635fae049b8cf1bd4402010a3fa80ef59f1fd233004",
      "s": "0x0a9c2f53cb7c9ed86653956f244cec0d44f629640736eadf4b4e9eb8e27d8a05",
      "v": 27,
      "creates": null,
      "raw": "0xf86e8207dc850d55d40ede8255f0942b5ebae239cb2f35a0974065e6c43a680abb4bbe881b01ee318f7caf1c801ba03aa066b5e111426d02e41635fae049b8cf1bd4402010a3fa80ef59f1fd233004a00a9c2f53cb7c9ed86653956f244cec0d44f629640736eadf4b4e9eb8e27d8a05",
      "networkId": 0,
      "chainId": 0
    },
    {
      "hash": "0x04dd37f88dcb1cbdf577dc632c7bb9460dc3d93bf3ce4582a40fe7b69fb7b470",
      "blockHash": "0x7830e480718a1cf37303b3cf90d79ae54f5e5f762b89fee34216fef783a73130",
      "blockNumber": 89771,
      "transactionIndex": 2,
      "confirmations": null,
      "from": "0xe6A7a1d47ff21B6321162AEA7C6CB457D5476Bca",
      "gasPrice": {
        "_hex": "0xd55d40ede"
      },
      "gasLimit": {
        "_hex": "0x55f0"
      },
      "to": "0x972ad000397A3c903299F1353d6d4b85eE4E4e2A",
      "value": {
        "_hex": "0x1b137775db8ac360"
      },
      "nonce": 2013,
      "data": "0x",
      "r": "0x30f54ef3186b84d7537cf5d156f99500b272c97f0e6b69a40b6163b7f5861f48",
      "s": "0x277c812c8521e19b2264e6cd127156e400d854baa1af6314a08797ed60cbdc2d",
      "v": 27,
      "creates": null,
      "raw": "0xf86e8207dd850d55d40ede8255f094972ad000397a3c903299f1353d6d4b85ee4e4e2a881b137775db8ac360801ba030f54ef3186b84d7537cf5d156f99500b272c97f0e6b69a40b6163b7f5861f48a0277c812c8521e19b2264e6cd127156e400d854baa1af6314a08797ed60cbdc2d",
      "networkId": 0,
      "chainId": 0
    },
    {
      "hash": "0xde9f9e899767f70b8d34042af654435381a1ed899e60cbd13b1fca87c8446379",
      "blockHash": "0x7830e480718a1cf37303b3cf90d79ae54f5e5f762b89fee34216fef783a73130",
      "blockNumber": 89771,
      "transactionIndex": 3,
      "confirmations": null,
      "from": "0xe6A7a1d47ff21B6321162AEA7C6CB457D5476Bca",
      "gasPrice": {
        "_hex": "0xd55d40ede"
      },
      "gasLimit": {
        "_hex": "0x55f0"
      },
      "to": "0x87434351D204a98354B6fd9819e91F33F1F0a91D",
      "value": {
        "_hex": "0x1b3f2ddb7970dbe0"
      },
      "nonce": 2014,
      "data": "0x",
      "r": "0x19dc6d57c993687b0eb71a41cb20181ff57d2d6cc6cb79cd54a1316ec99a699f",
      "s": "0x6a8cb4934dc1fec3235c655b2945ebc9e3d3d89c3e30f26589061a72cb76f482",
      "v": 28,
      "creates": null,
      "raw": "0xf86e8207de850d55d40ede8255f09487434351d204a98354b6fd9819e91f33f1f0a91d881b3f2ddb7970dbe0801ca019dc6d57c993687b0eb71a41cb20181ff57d2d6cc6cb79cd54a1316ec99a699fa06a8cb4934dc1fec3235c655b2945ebc9e3d3d89c3e30f26589061a72cb76f482",
      "networkId": 0,
      "chainId": 0
    },
    {
      "hash": "0x3820c274f83f0a4a489db39caa89529a644b8b5ec26becce871c652e1516836a",
      "blockHash": "0x7830e480718a1cf37303b3cf90d79ae54f5e5f762b89fee34216fef783a73130",
      "blockNumber": 89771,
      "transactionIndex": 4,
      "confirmations": null,
      "from": "0xe6A7a1d47ff21B6321162AEA7C6CB457D5476Bca",
      "gasPrice": {
        "_hex": "0xd55d40ede"
      },
      "gasLimit": {
        "_hex": "0x55f0"
      },
      "to": "0xe6C9430205BD87DA80B9D5F286442Bf45CB49423",
      "value": {
        "_hex": "0x1b63ab0f99a9d42c"
      },
      "nonce": 2015,
      "data": "0x",
      "r": "0x85b6bf36d55c7dc42973e8960f97c633bc6ca86cc576a747a786c1cc714cd84a",
      "s": "0x193aa974e9694a85d3a8d2c5403dc08aa8e04fdcb0ac69492993601dc18de1bc",
      "v": 28,
      "creates": null,
      "raw": "0xf86e8207df850d55d40ede8255f094e6c9430205bd87da80b9d5f286442bf45cb49423881b63ab0f99a9d42c801ca085b6bf36d55c7dc42973e8960f97c633bc6ca86cc576a747a786c1cc714cd84aa0193aa974e9694a85d3a8d2c5403dc08aa8e04fdcb0ac69492993601dc18de1bc",
      "networkId": 0,
      "chainId": 0
    },
    {
      "hash": "0x60867940a9a92e233b44eaefc9d1353ecd5cd23587d533f5f4d7be08fed7aaec",
      "blockHash": "0x7830e480718a1cf37303b3cf90d79ae54f5e5f762b89fee34216fef783a73130",
      "blockNumber": 89771,
      "transactionIndex": 5,
      "confirmations": null,
      "from": "0xe6A7a1d47ff21B6321162AEA7C6CB457D5476Bca",
      "gasPrice": {
        "_hex": "0xd55d40ede"
      },
      "gasLimit": {
        "_hex": "0x55f0"
      },
      "to": "0x3205cd1aC9e2Bb844A056D57E3f2463613554677",
      "value": {
        "_hex": "0x1b6701814e86b110"
      },
      "nonce": 2016,
      "data": "0x",
      "r": "0xfd1e88965a47effe7e0dd23446e1d42c662a9f92bdc9d9d604a6cd66c7029212",
      "s": "0x089c9569d7fa45732d03241a6d10021495e273ee9ae5e5bfc4699d55e202b396",
      "v": 27,
      "creates": null,
      "raw": "0xf86e8207e0850d55d40ede8255f0943205cd1ac9e2bb844a056d57e3f2463613554677881b6701814e86b110801ba0fd1e88965a47effe7e0dd23446e1d42c662a9f92bdc9d9d604a6cd66c7029212a0089c9569d7fa45732d03241a6d10021495e273ee9ae5e5bfc4699d55e202b396",
      "networkId": 0,
      "chainId": 0
    },
    {
      "hash": "0x79c8e00f9c765d32b2a07f4c186c55cde96b3af37bcb3233b97321ff134c42f2",
      "blockHash": "0x7830e480718a1cf37303b3cf90d79ae54f5e5f762b89fee34216fef783a73130",
      "blockNumber": 89771,
      "transactionIndex": 6,
      "confirmations": null,
      "from": "0xe6A7a1d47ff21B6321162AEA7C6CB457D5476Bca",
      "gasPrice": {
        "_hex": "0xd55d40ede"
      },
      "gasLimit": {
        "_hex": "0x55f0"
      },
      "to": "0xe2F27cFd700a6d294Ac1BaFFa42c24bA0968631D",
      "value": {
        "_hex": "0x1b850be5608e96d4"
      },
      "nonce": 2017,
      "data": "0x",
      "r": "0x9e50ced0f1ac509e2889785987435b9b1ccefb3aad2b2efc7eb99b6aa1595555",
      "s": "0x50f92a738da16e542914b12efb0b6e4dbfc3d872369013b90ddf21ec5752d6f3",
      "v": 27,
      "creates": null,
      "raw": "0xf86e8207e1850d55d40ede8255f094e2f27cfd700a6d294ac1baffa42c24ba0968631d881b850be5608e96d4801ba09e50ced0f1ac509e2889785987435b9b1ccefb3aad2b2efc7eb99b6aa1595555a050f92a738da16e542914b12efb0b6e4dbfc3d872369013b90ddf21ec5752d6f3",
      "networkId": 0,
      "chainId": 0
    },
    {
      "hash": "0xb17396a03dd3d383c8cf2c5b9e04e3cdd55db8af3ac0c7bc50dc85b4c92f5d76",
      "blockHash": "0x7830e480718a1cf37303b3cf90d79ae54f5e5f762b89fee34216fef783a73130",
      "blockNumber": 89771,
      "transactionIndex": 7,
      "confirmations": null,
      "from": "0xe6A7a1d47ff21B6321162AEA7C6CB457D5476Bca",
      "gasPrice": {
        "_hex": "0xd55d40ede"
      },
      "gasLimit": {
        "_hex": "0x55f0"
      },
      "to": "0x3D1d22d2A05a3E9b3792561f2FF5f8D879352d6c",
      "value": {
        "_hex": "0x1b94dc74f27b55e0"
      },
      "nonce": 2018,
      "data": "0x",
      "r": "0x3cfa93450d8f541a0b7f2d946b73831e9b213245acd1dd64579896e8ed1eb7be",
      "s": "0x6ba9e4657659bb313d47ff2edc6c6f78eeabdef223ed209fbc40f1f2c6e2db3e",
      "v": 28,
      "creates": null,
      "raw": "0xf86e8207e2850d55d40ede8255f0943d1d22d2a05a3e9b3792561f2ff5f8d879352d6c881b94dc74f27b55e0801ca03cfa93450d8f541a0b7f2d946b73831e9b213245acd1dd64579896e8ed1eb7bea06ba9e4657659bb313d47ff2edc6c6f78eeabdef223ed209fbc40f1f2c6e2db3e",
      "networkId": 0,
      "chainId": 0
    },
    {
      "hash": "0x028e7b250c27fa695aedb1b780fc4024d33dc42f73bb5d23c0c894bfd8502cdb",
      "blockHash": "0x7830e480718a1cf37303b3cf90d79ae54f5e5f762b89fee34216fef783a73130",
      "blockNumber": 89771,
      "transactionIndex": 8,
      "confirmations": null,
      "from": "0xe6A7a1d47ff21B6321162AEA7C6CB457D5476Bca",
      "gasPrice": {
        "_hex": "0xd55d40ede"
      },
      "gasLimit": {
        "_hex": "0x55f0"
      },
      "to": "0x5c1653cb464DBbE53972CcAD9E6044C9A82b0242",
      "value": {
        "_hex": "0x1bea4e44fce76d10"
      },
      "nonce": 2019,
      "data": "0x",
      "r": "0x485d32b0e22777ecf0ef4a9a18bd1f81213babf46a18e26ed90cd7213b3d7671",
      "s": "0x5947baa220e98c75b453b577e06698ee98c1ecb670408faf160427fa65845bad",
      "v": 27,
      "creates": null,
      "raw": "0xf86e8207e3850d55d40ede8255f0945c1653cb464dbbe53972ccad9e6044c9a82b0242881bea4e44fce76d10801ba0485d32b0e22777ecf0ef4a9a18bd1f81213babf46a18e26ed90cd7213b3d7671a05947baa220e98c75b453b577e06698ee98c1ecb670408faf160427fa65845bad",
      "networkId": 0,
      "chainId": 0
    },
    {
      "hash": "0x78311c261a2d8a685d76719f5767df21db526484715c02c524c8ca1b2bafb9e3",
      "blockHash": "0x7830e480718a1cf37303b3cf90d79ae54f5e5f762b89fee34216fef783a73130",
      "blockNumber": 89771,
      "transactionIndex": 9,
      "confirmations": null,
      "from": "0xe6A7a1d47ff21B6321162AEA7C6CB457D5476Bca",
      "gasPrice": {
        "_hex": "0xd55d40ede"
      },
      "gasLimit": {
        "_hex": "0x55f0"
      },
      "to": "0xbE97502418b30440315e0F5c824943C7500ce91A",
      "value": {
        "_hex": "0x1bf84649c0764710"
      },
      "nonce": 2020,
      "data": "0x",
      "r": "0xfe197d191e0cc46190781180c18f93996f641fe97253784efa037da944c52a1b",
      "s": "0x473f99021d2f447156c47c50130fb90f4d13266e046c5544dd949ac5bb9c69d0",
      "v": 28,
      "creates": null,
      "raw": "0xf86e8207e4850d55d40ede8255f094be97502418b30440315e0f5c824943c7500ce91a881bf84649c0764710801ca0fe197d191e0cc46190781180c18f93996f641fe97253784efa037da944c52a1ba0473f99021d2f447156c47c50130fb90f4d13266e046c5544dd949ac5bb9c69d0",
      "networkId": 0,
      "chainId": 0
    },
    {
      "hash": "0x5408de561a9424d40e5c53dae1ff4b9841ed1871537da4a427e2876a57608d26",
      "blockHash": "0x7830e480718a1cf37303b3cf90d79ae54f5e5f762b89fee34216fef783a73130",
      "blockNumber": 89771,
      "transactionIndex": 10,
      "confirmations": null,
      "from": "0xe6A7a1d47ff21B6321162AEA7C6CB457D5476Bca",
      "gasPrice": {
        "_hex": "0xd55d40ede"
      },
      "gasLimit": {
        "_hex": "0x55f0"
      },
      "to": "0x45F4eBD05404060F4873B6bAD467dAFfd156A2eB",
      "value": {
        "_hex": "0x1c24a9adbc1bbcd8"
      },
      "nonce": 2021,
      "data": "0x",
      "r": "0xc7cca96266e7cefd9edd6a6168dcd6966760f7236f615c46d5826523f3e27e60",
      "s": "0x0de9a6b2bd4da5a3f606299a7229eccb618fc4cf74282222db8f7799ca47b9c4",
      "v": 28,
      "creates": null,
      "raw": "0xf86e8207e5850d55d40ede8255f09445f4ebd05404060f4873b6bad467daffd156a2eb881c24a9adbc1bbcd8801ca0c7cca96266e7cefd9edd6a6168dcd6966760f7236f615c46d5826523f3e27e60a00de9a6b2bd4da5a3f606299a7229eccb618fc4cf74282222db8f7799ca47b9c4",
      "networkId": 0,
      "chainId": 0
    },
    {
      "hash": "0x66cd63884ec424922cdef82eb8a8d347471d41ffa92f067839dba22a332e314d",
      "blockHash": "0x7830e480718a1cf37303b3cf90d79ae54f5e5f762b89fee34216fef783a73130",
      "blockNumber": 89771,
      "transactionIndex": 11,
      "confirmations": null,
      "from": "0xe6A7a1d47ff21B6321162AEA7C6CB457D5476Bca",
      "gasPrice": {
        "_hex": "0xd55d40ede"
      },
      "gasLimit": {
        "_hex": "0x55f0"
      },
      "to": "0xce9bdcACC0AF8675abb5F3a3172f4a9092A582dC",
      "value": {
        "_hex": "0x1c448c2f6894c3dc"
      },
      "nonce": 2022,
      "data": "0x",
      "r": "0x94fd75f748aef9078b451b1b3af2f3802e130d2c28ae05ce976b7a3fb5ca87c1",
      "s": "0x5c3c93c158e447097064724f75610116edc967ffa0482cfeaf4b21733b1406cf",
      "v": 28,
      "creates": null,
      "raw": "0xf86e8207e6850d55d40ede8255f094ce9bdcacc0af8675abb5f3a3172f4a9092a582dc881c448c2f6894c3dc801ca094fd75f748aef9078b451b1b3af2f3802e130d2c28ae05ce976b7a3fb5ca87c1a05c3c93c158e447097064724f75610116edc967ffa0482cfeaf4b21733b1406cf",
      "networkId": 0,
      "chainId": 0
    },
    {
      "hash": "0xf70cdabc88f8316b0f49793e1d45c76e62f9d6dffe6c8d7c498dd047dc28803a",
      "blockHash": "0x7830e480718a1cf37303b3cf90d79ae54f5e5f762b89fee34216fef783a73130",
      "blockNumber": 89771,
      "transactionIndex": 12,
      "confirmations": null,
      "from": "0xe6A7a1d47ff21B6321162AEA7C6CB457D5476Bca",
      "gasPrice": {
        "_hex": "0xd55d40ede"
      },
      "gasLimit": {
        "_hex": "0x55f0"
      },
      "to": "0xa1F06Ac44D11e33a70B43C8B3B45F877B4CAEFC8",
      "value": {
        "_hex": "0x1c973b99a99b9c90"
      },
      "nonce": 2023,
      "data": "0x",
      "r": "0xd45473aecc784463e6064484d30b24a5f6b9f923937e83267f0fb44fbf9c9d9c",
      "s": "0x5eea2b51bce4b749e8386da26b34c14d26413b61d7b8fe2057bffcf611d75159",
      "v": 27,
      "creates": null,
      "raw": "0xf86e8207e7850d55d40ede8255f094a1f06ac44d11e33a70b43c8b3b45f877b4caefc8881c973b99a99b9c90801ba0d45473aecc784463e6064484d30b24a5f6b9f923937e83267f0fb44fbf9c9d9ca05eea2b51bce4b749e8386da26b34c14d26413b61d7b8fe2057bffcf611d75159",
      "networkId": 0,
      "chainId": 0
    },
    {
      "hash": "0x8b545c5ec79cd9180f489ffe5225ad9990ae6ccd670d015277e390be07ee245c",
      "blockHash": "0x7830e480718a1cf37303b3cf90d79ae54f5e5f762b89fee34216fef783a73130",
      "blockNumber": 89771,
      "transactionIndex": 13,
      "confirmations": null,
      "from": "0xe6A7a1d47ff21B6321162AEA7C6CB457D5476Bca",
      "gasPrice": {
        "_hex": "0xd55d40ede"
      },
      "gasLimit": {
        "_hex": "0x55f0"
      },
      "to": "0x55d6bb729E3D6128B9032d03897D7C85cBB4e688",
      "value": {
        "_hex": "0x1cc54b54d35ed508"
      },
      "nonce": 2024,
      "data": "0x",
      "r": "0x60ef72321e3ee160466a04faafce2ba3ac05a37f0d51152de822fccff88a7542",
      "s": "0x41efb456329c4031d46b0303df4afde32723a9a2154e4d5edfae2d3189c09a0e",
      "v": 28,
      "creates": null,
      "raw": "0xf86e8207e8850d55d40ede8255f09455d6bb729e3d6128b9032d03897d7c85cbb4e688881cc54b54d35ed508801ca060ef72321e3ee160466a04faafce2ba3ac05a37f0d51152de822fccff88a7542a041efb456329c4031d46b0303df4afde32723a9a2154e4d5edfae2d3189c09a0e",
      "networkId": 0,
      "chainId": 0
    },
    {
      "hash": "0xb2c814f0de9f21bb7dc1e5619a40e5a4845884f84a332333dff005297836bee0",
      "blockHash": "0x7830e480718a1cf37303b3cf90d79ae54f5e5f762b89fee34216fef783a73130",
      "blockNumber": 89771,
      "transactionIndex": 14,
      "confirmations": null,
      "from": "0xe6A7a1d47ff21B6321162AEA7C6CB457D5476Bca",
      "gasPrice": {
        "_hex": "0xd3083e4ab"
      },
      "gasLimit": {
        "_hex": "0x55f0"
      },
      "to": "0xb82415923664590236aea1c1912955E7653B9FCa",
      "value": {
        "_hex": "0x1ceb7fe4d0ecbc28"
      },
      "nonce": 2025,
      "data": "0x",
      "r": "0x150709e256eb95adfddae4381a4a76df208fc3acfda9734a92474c02704a6f8f",
      "s": "0x7707ce38178370813c930e825a63e992cfbb53a2c7125aaf71dab3fb4b8c26f3",
      "v": 27,
      "creates": null,
      "raw": "0xf86e8207e9850d3083e4ab8255f094b82415923664590236aea1c1912955e7653b9fca881ceb7fe4d0ecbc28801ba0150709e256eb95adfddae4381a4a76df208fc3acfda9734a92474c02704a6f8fa07707ce38178370813c930e825a63e992cfbb53a2c7125aaf71dab3fb4b8c26f3",
      "networkId": 0,
      "chainId": 0
    },
    {
      "hash": "0xcc1c1d734a3301ace9a98e368ba429426a913a2b186c9448bcb372a7d69da829",
      "blockHash": "0x7830e480718a1cf37303b3cf90d79ae54f5e5f762b89fee34216fef783a73130",
      "blockNumber": 89771,
      "transactionIndex": 15,
      "confirmations": null,
      "from": "0xe6A7a1d47ff21B6321162AEA7C6CB457D5476Bca",
      "gasPrice": {
        "_hex": "0xd3083e4ab"
      },
      "gasLimit": {
        "_hex": "0x55f0"
      },
      "to": "0xF8Fca9e38A8bc846BE8ea3B37bb94ea23B475D2F",
      "value": {
        "_hex": "0x1cf151616f97171c"
      },
      "nonce": 2026,
      "data": "0x",
      "r": "0x5ef7377f84e7ab23f70b4ee670c4963e7f82094638eaa30ac5ef09ac9fe2586c",
      "s": "0x3758aa053765fa7f853a5b5f5629b4a25c5ce1a625867f215576d66bcfa4a881",
      "v": 27,
      "creates": null,
      "raw": "0xf86e8207ea850d3083e4ab8255f094f8fca9e38a8bc846be8ea3b37bb94ea23b475d2f881cf151616f97171c801ba05ef7377f84e7ab23f70b4ee670c4963e7f82094638eaa30ac5ef09ac9fe2586ca03758aa053765fa7f853a5b5f5629b4a25c5ce1a625867f215576d66bcfa4a881",
      "networkId": 0,
      "chainId": 0
    },
    {
      "hash": "0x901d7111bdd34a7145ae4eb41000a80fcf5b5aa2a3cec0b259b0453ba7b0918a",
      "blockHash": "0x7830e480718a1cf37303b3cf90d79ae54f5e5f762b89fee34216fef783a73130",
      "blockNumber": 89771,
      "transactionIndex": 16,
      "confirmations": null,
      "from": "0xe6A7a1d47ff21B6321162AEA7C6CB457D5476Bca",
      "gasPrice": {
        "_hex": "0xd3083e4ab"
      },
      "gasLimit": {
        "_hex": "0x55f0"
      },
      "to": "0x297d128041190ec4D477Cd476D194eFcA4E9cf67",
      "value": {
        "_hex": "0x1d3013c645de0eec"
      },
      "nonce": 2027,
      "data": "0x",
      "r": "0x8554fe3216121fa144feb4bb785378f9e041cc7e55dc0bef5ef20a3d53c0a862",
      "s": "0x75dc211972ac7468467ec22507249e59e3e78dd2df5dd591d706c38ccc6972e8",
      "v": 27,
      "creates": null,
      "raw": "0xf86e8207eb850d3083e4ab8255f094297d128041190ec4d477cd476d194efca4e9cf67881d3013c645de0eec801ba08554fe3216121fa144feb4bb785378f9e041cc7e55dc0bef5ef20a3d53c0a862a075dc211972ac7468467ec22507249e59e3e78dd2df5dd591d706c38ccc6972e8",
      "networkId": 0,
      "chainId": 0
    },
    {
      "hash": "0x22f3b466d3217d1f79f42e2db3013c8c7269f262cdebb128613f3471aaf215d7",
      "blockHash": "0x7830e480718a1cf37303b3cf90d79ae54f5e5f762b89fee34216fef783a73130",
      "blockNumber": 89771,
      "transactionIndex": 17,
      "confirmations": null,
      "from": "0x893608751d68D046E85802926673CDf2f57f7cB8",
      "gasPrice": {
        "_hex": "0xce962d5be"
      },
      "gasLimit": {
        "_hex": "0x15f90"
      },
      "to": "0xeEdc88E60ca35E52381d99aE64711EB55960b67F",
      "value": {
        "_hex": "0x16345785d8a0000"
      },
      "nonce": 2,
      "data": "0x",
      "r": "0x66817d27d06c0bf96826634f5b295ea439cacb333e944eff3e96305458273135",
      "s": "0x46ecf8cc9e62690b5f97ea8263474ac4fc9c3ee47a7957a37385102ad7d5550d",
      "v": 27,
      "creates": null,
      "raw": "0xf86d02850ce962d5be83015f9094eedc88e60ca35e52381d99ae64711eb55960b67f88016345785d8a0000801ba066817d27d06c0bf96826634f5b295ea439cacb333e944eff3e96305458273135a046ecf8cc9e62690b5f97ea8263474ac4fc9c3ee47a7957a37385102ad7d5550d",
      "networkId": 0,
      "chainId": 0
    }
  ]
}