{
  "hash": "0x4b3110cf1d88ef278e5774b76b528f5f3f08eefd20161589e1089ee9299b416a",
  "parentHash": "0xcb8c4834b7c8031f4841191fb810ddefbe804e80efdbe1f8f3b9391cafc85cc7",
  "number": 116094,
  "timestamp": 1440068234,
  "nonce": "0x1694d795d1a833c9",
  "difficulty": 4602667894583,
  "gasLimit": {
    "_hex": "0x2fefd8"
  },
  "gasUsed": {
    "_hex": "0xafa7"
  },
  "miner": "0xe6A7a1d47ff21B6321162AEA7C6CB457D5476Bca",
  "extraData": "0x476574682f76312e302e312d38326566323666362f6c696e75782f676f312e34",
  "transactions": [
    {
      "hash": "0x4bcb2c9f84770d79e14dc571e754c77f1de78bedd2daf843e2ddf058963ada60",
      "blockHash": "0x4b3110cf1d88ef278e5774b76b528f5f3f08eefd20161589e1089ee9299b416a",
      "blockNumber": 116094,
      "transactionIndex": 0,
      "confirmations": null,
      "from": "0x32Be343B94f860124dC4fEe278FDCBD38C102D88",
      "gasPrice": {
        "_hex": "0xd58648f41"
      },
      "gasLimit": {
        "_hex": "0x5208"
      },
      "to": "0x050A4C817B7DD7334cd378B11c0Be4f9D4684816",
      "value": {
        "_hex": "0x1158e460913d00000"
      },
      "nonce": 1457,
      "data": "0x",
      "r": "0x40646fb30745c7308120a98c7195854a8cc8564e55f4101bbee97ef4eac85f60",
      "s": "0x5819b96cdc2128bbe9805a484275bc1de306f1204e03bbb608123d17cf6ea665",
      "v": 27,
      "creates": null,
      "raw": "0xf86f8205b1850d58648f4182520894050a4c817b7dd7334cd378b11c0be4f9d46848168901158e460913d00000801ba040646fb30745c7308120a98c7195854a8cc8564e55f4101bbee97ef4eac85f60a05819b96cdc2128bbe9805a484275bc1de306f1204e03bbb608123d17cf6ea665",
      "networkId": 0,
      "chainId": 0
    },
    {
      "hash": "0x346c9581621ca984d390855050671114439e8ecaa09dc5477dbd695a74a76951",
      "blockHash": "0x4b3110cf1d88ef278e5774b76b528f5f3f08eefd20161589e1089ee9299b416a",
      "blockNumber": 116094,
      "transactionIndex": 1,
      "confirmations": null,
      "from": "0x0F9c57Ebf3A5ba27b543bB64220caA7b4478B04b",
      "gasPrice": {
        "_hex": "0xba43b7400"
      },
      "gasLimit": {
        "_hex": "0x15f90"
      },
      "to": "0xCAc7000C7dBaa2E33Af15325AF5D435E011C7BdD",
      "value": {
        "_hex": "0x15fb7f9b8c380000"
      },
      "nonce": 3,
      "data": "0xb214faa54c39584d534d4d30340000000000000000000000000000000000000000000000",
      "r": "0xcecf37f43d1f91e02ab521b1ea510233fbcfa27f12b9065b36faf9058da5a8cb",
      "s": "0x356fafecd6c977ca0110b5daf366e26c54bcdaf9f92c92ed8a1ad8cad1d880a6",
      "v": 27,
      "creates": null,
      "raw": "0xf89103850ba43b740083015f9094cac7000c7dbaa2e33af15325af5d435e011c7bdd8815fb7f9b8c380000a4b214faa54c39584d534d4d303400000000000000000000000000000000000000000000001ba0cecf37f43d1f91e02ab521b1ea510233fbcfa27f12b9065b36faf9058da5a8cba0356fafecd6c977ca0110b5daf366e26c54bcdaf9f92c92ed8a1ad8cad1d880a6",
      "networkId": 0,
      "chainId": 0
    }
  ]
}