{
  "hash": "0x73d900f6f979ef544347f0ff61b15df18eda349f2a296194670edf59d5b76f9c",
  "parentHash": "0xffd3e883ec73f592f26bf37c462c037fe93baf54b9db9c4a21ab39edb3742e3c",
  "number": 46656,
  "timestamp": 1438926922,
  "nonce": "0x817988e6dc4a4d14",
  "difficulty": 1457482382248,
  "gasLimit": {
    "_hex": "0x6ed9"
  },
  "gasUsed": {
    "_hex": "0x5208"
  },
  "miner": "0x0193d941b50d91BE6567c7eE1C0Fe7AF498b4137",
  "extraData": "0x4a5ace9e4e",
  "transactions": [
    {
      "hash": "0xd244a4c9e4a03345c6cacb3a04d4507459cade4691354e5b2546536ac71042bb",
      "blockHash": "0x73d900f6f979ef544347f0ff61b15df18eda349f2a296194670edf59d5b76f9c",
      "blockNumber": 46656,
      "transactionIndex": 0,
      "confirmations": null,
      "from": "0x4019b21f3dB1F288414aC180f3Ea63315B12a7aC",
      "gasPrice": {
        "_hex": "0xdaf5c9dd1"
      },
      "gasLimit": {
        "_hex": "0x5208"
      },
      "to": "0x32Be343B94f860124dC4fEe278FDCBD38C102D88",
      "value": {
        "_hex": "0xddc541a764c4400"
      },
      "nonce": 0,
      "data": "0x",
      "r": "0x0b3f46ca3236ac46b5ccdd93fb380f94dbd9836efde42527fafd372a939b6b34",
      "s": "0x5d459a015feaa15dbaa25063a07cefb460cca91e03d54d6e66f65f846a11b6c1",
      "v": 27,
      "creates": null,
      "raw": "0xf86c80850daf5c9dd18252089432be343b94f860124dc4fee278fdcbd38c102d88880ddc541a764c4400801ba00b3f46ca3236ac46b5ccdd93fb380f94dbd9836efde42527fafd372a939b6b34a05d459a015feaa15dbaa25063a07cefb460cca91e03d54d6e66f65f846a11b6c1",
      "networkId": 0,
      "chainId": 0
    }
  ]
}