{
  "hash": "0x26344706ae0c3ab08663b04b55eeee8e94ec1f34f9c02e444373eaca95d49361",
  "parentHash": "0x4fb17ef4e7b7e6047cd44e5064eaf1e41963525348ee7399d329e0525c8ea065",
  "number": 120322,
  "timestamp": 1440157904,
  "nonce": "0x0f5487735e5b08b0",
  "difficulty": 4428434585947,
  "gasLimit": {
    "_hex": "0x2fefd8"
  },
  "gasUsed": {
    "_hex": "0x5208"
  },
  "miner": "0xe6A7a1d47ff21B6321162AEA7C6CB457D5476Bca",
  "extraData": "0xd783010002844765746887676f312e342e32856c696e7578",
  "transactions": [
    {
      "hash": "0x1b098969d4099d5a1fcea839b4338f950d9eedff05b5ef732c29a9dd0230a1b6",
      "blockHash": "0x26344706ae0c3ab08663b04b55eeee8e94ec1f34f9c02e444373eaca95d49361",
      "blockNumber": 120322,
      "transactionIndex": 0,
      "confirmations": null,
      "from": "0xc2d8A8b3496243E22B7247990737217985B94421",
      "gasPrice": {
        "_hex": "0xba43b7400"
      },
      "gasLimit": {
        "_hex": "0x5208"
      },
      "to": "0x32Be343B94f860124dC4fEe278FDCBD38C102D88",
      "value": {
        "_hex": "0xc62747b82f9fc000"
      },
      "nonce": 1,
      "data": "0x",
      "r": "0x4acdfcbc7e212efe29f5f44fea549c9e9a9956d824bd97131cfdb29cfe630215",
      "s": "0x349ccc7b9f7558368bbebe59758e1d3377f14751d7e8a339e902099a77e8f4b7",
      "v": 28,
      "creates": null,
      "raw": "0xf86c01850ba43b74008252089432be343b94f860124dc4fee278fdcbd38c102d8888c62747b82f9fc000801ca04acdfcbc7e212efe29f5f44fea549c9e9a9956d824bd97131cfdb29cfe630215a0349ccc7b9f7558368bbebe59758e1d3377f14751d7e8a339e902099a77e8f4b7",
      "networkId": 0,
      "chainId": 0
    }
  ]
}