{
  "hash": "0x6fbab589a3b5a6d054c94169e1267da611dcd9ef547645ac5833528eab08436a",
  "parentHash": "0xfc9f33ee30f7b8fb874de7065fed0df520eae5bb8b0ed4b1e0862e23ace73ba6",
  "number": 47317,
  "timestamp": 1438938017,
  "nonce": "0x375a25a4d8b65009",
  "difficulty": 1453813854271,
  "gasLimit": {
    "_hex": "0xb013"
  },
  "gasUsed": {
    "_hex": "0x5208"
  },
  "miner": "0xbb7B8287f3F0a933474a79eAe42CBCa977791171",
  "extraData": "0x476574682f4c5649562f76312e302e312f6c696e75782f676f312e342e32",
  "transactions": [
    {
      "hash": "0x5d06ea0793c0073cfbf536d53ce160ed4c31f8f15a1f96fad656a5560d086845",
      "blockHash": "0x6fbab589a3b5a6d054c94169e1267da611dcd9ef547645ac5833528eab08436a",
      "blockNumber": 47317,
      "transactionIndex": 0,
      "confirmations": null,
      "from": "0xe6A7a1d47ff21B6321162AEA7C6CB457D5476Bca",
      "gasPrice": {
        "_hex": "0xfd9659fbd"
      },
      "gasLimit": {
        "_hex": "0x5208"
      },
      "to": "0x3056b7BF97104D34E56b79083Cf078e9BEF5F96F",
      "value": {
        "_hex": "0xaf9a00d58fb5a8d8"
      },
      "nonce": 105,
      "data": "0x",
      "r": "0x301441eb4fb20d3d6e9ab4c5e70b4aa1e3eb7ac6a1ddcbcf25451aac0fb965f0",
      "s": "0x3c836c3f7b806e8751f92b921b83c0dededb9d0c0afc5121f7ce32af8f0ec78d",
      "v": 27,
      "creates": null,
      "raw": "0xf86c69850fd9659fbd825208943056b7bf97104d34e56b79083cf078e9bef5f96f88af9a00d58fb5a8d8801ba0301441eb4fb20d3d6e9ab4c5e70b4aa1e3eb7ac6a1ddcbcf25451aac0fb965f0a03c836c3f7b806e8751f92b921b83c0dededb9d0c0afc5121f7ce32af8f0ec78d",
      "networkId": 0,
      "chainId": 0
    }
  ]
}