{
  "hash": "0x5218463a9cc9d9a05daed8afe2e5f32c4aead034a3dec820a30f5c862707b54d",
  "parentHash": "0xc06f4d62acb50764c87ea6ce18c61b95a1d6147831a04e91fcf20fa92819c14a",
  "number": 82533,
  "timestamp": 1439521003,
  "nonce": "0x72bf4d1acbec2331",
  "difficulty": 2370631497525,
  "gasLimit": {
    "_hex": "0x2fefd8"
  },
  "gasUsed": {
    "_hex": "0x14820"
  },
  "miner": "0x458F183347F45a4001807728A89F31E9Da9D4A58",
  "extraData": "0x476574682f76312e302e312d38326566323666362f6c696e75782f676f312e34",
  "transactions": [
    {
      "hash": "0xca215b99bf8a77e514fc12185d1b3865a4c5b0b87038dea076fd2b1fb5f7c377",
      "blockHash": "0x5218463a9cc9d9a05daed8afe2e5f32c4aead034a3dec820a30f5c862707b54d",
      "blockNumber": 82533,
      "transactionIndex": 0,
      "confirmations": null,
      "from": "0x40B9b889A21Ff1534d018D71Dc406122EBcf3F5A",
      "gasPrice": {
        "_hex": "0x10ef21a5ebe"
      },
      "gasLimit": {
        "_hex": "0x15f90"
      },
      "to": "0x1308A2e95c0160B90803ddCA9B9a5bb55E416d79",
      "value": {
        "_hex": "0x599d5efb80363e0000"
      },
      "nonce": 15,
      "data": "0x",
      "r": "0x1361456a81e9b87567037bbf97212f56de93d0ceec5b748dc69f043065c3bd74",
      "s": "0x5427bdade9ad98e1b8350a43f605c7ca8324858aa4e7b5af4fb8ce9e93f3cc9f",
      "v": 28,
      "creates": null,
      "raw": "0xf86f0f86010ef21a5ebe83015f90941308a2e95c0160b90803ddca9b9a5bb55e416d7989599d5efb80363e0000801ca01361456a81e9b87567037bbf97212f56de93d0ceec5b748dc69f043065c3bd74a05427bdade9ad98e1b8350a43f605c7ca8324858aa4e7b5af4fb8ce9e93f3cc9f",
      "networkId": 0,
      "chainId": 0
    },
    {
      "hash": "0x330c82724654084cd40b925086a8d7f249a3ae9196c321fde38ff2f50ceae708",
      "blockHash": "0x5218463a9cc9d9a05daed8afe2e5f32c4aead034a3dec820a30f5c862707b54d",
      "blockNumber": 82533,
      "transactionIndex": 1,
      "confirmations": null,
      "from": "0x40B9b889A21Ff1534d018D71Dc406122EBcf3F5A",
      "gasPrice": {
        "_hex": "0x10ef21a5ebe"
      },
      "gasLimit": {
        "_hex": "0x15f90"
      },
      "to": "0x8F68fbE2DCFf038C24F650C9e05Ee478038171cd",
      "value": {
        "_hex": "0xd02ab486cedc0000"
      },
      "nonce": 16,
      "data": "0x",
      "r": "0x2836a69f7a9021b3a086a02a9426485130b974c9d6a735ca69dabfddd28d41f9",
      "s": "0x763a40ea05d3717a1a086999c3a547b6a5782693e8bae8481c0aa01ca65403c5",
      "v": 27,
      "creates": null,
      "raw": "0xf86e1086010ef21a5ebe83015f90948f68fbe2dcff038c24f650c9e05ee478038171cd88d02ab486cedc0000801ba02836a69f7a9021b3a086a02a9426485130b974c9d6a735ca69dabfddd28d41f9a0763a40ea05d3717a1a086999c3a547b6a5782693e8bae8481c0aa01ca65403c5",
      "networkId": 0,
      "chainId": 0
    },
    {
      "hash": "0x4e7c7915d46cef0c343fc6be16c18f36eff5ba5166d1145c75ddd464fc042822",
      "blockHash": "0x5218463a9cc9d9a05daed8afe2e5f32c4aead034a3dec820a30f5c862707b54d",
      "blockNumber": 82533,
      "transactionIndex": 2,
      "confirmations": null,
      "from": "0x40B9b889A21Ff1534d018D71Dc406122EBcf3F5A",
      "gasPrice": {
        "_hex": "0x10ef21a5ebe"
      },
      "gasLimit": {
        "_hex": "0x15f90"
      },
      "to": "0x0BB92951EDA0205db5Aa86DCa8D391F449aEe1b9",
      "value": {
        "_hex": "0x3b1a6923c611000"
      },
      "nonce": 17,
      "data": "0x",
      "r": "0xde54fd3258baec85826906a585b2b86e8129fe77c074bce0b13b92b8398eb1fe",
      "s": "0x0f2bc839234ece640aa206b5556def31ce8004417c3954594360700e049c8799",
      "v": 27,
      "creates": null,
      "raw": "0xf86e1186010ef21a5ebe83015f90940bb92951eda0205db5aa86dca8d391f449aee1b98803b1a6923c611000801ba0de54fd3258baec85826906a585b2b86e8129fe77c074bce0b13b92b8398eb1fea00f2bc839234ece640aa206b5556def31ce8004417c3954594360700e049c8799",
      "networkId": 0,
      "chainId": 0
    },
    {
      "hash": "0xddbfcb71a1b66072f7764277d572b6e66f63a7d77d4170d2c089625312df0331",
      "blockHash": "0x5218463a9cc9d9a05daed8afe2e5f32c4aead034a3dec820a30f5c862707b54d",
      "blockNumber": 82533,
      "transactionIndex": 3,
      "confirmations": null,
      "from": "0x40B9b889A21Ff1534d018D71Dc406122EBcf3F5A",
      "gasPrice": {
        "_hex": "0x10ef21a5ebe"
      },
      "gasLimit": {
        "_hex": "0x15f90"
      },
      "to": "0x3120869dfC5b2e9D636fd0BFA6717C51146d5F7a",
      "value": {
        "_hex": "0x15a4bbed9183a000"
      },
      "nonce": 18,
      "data": "0x",
      "r": "0x1b0eee58142bcb0a5bc9ad44f9eee76bcb4e6f2cf81950c86d55c58e17d1afd2",
      "s": "0x2575b891f57fb7c6050d0ff780762ce176f90421be4da49d209f4a369998fc96",
      "v": 27,
      "creates": null,
      "raw": "0xf86e1286010ef21a5ebe83015f90943120869dfc5b2e9d636fd0bfa6717c51146d5f7a8815a4bbed9183a000801ba01b0eee58142bcb0a5bc9ad44f9eee76bcb4e6f2cf81950c86d55c58e17d1afd2a02575b891f57fb7c6050d0ff780762ce176f90421be4da49d209f4a369998fc96",
      "networkId": 0,
      "chainId": 0
    }
  ]
}