{
  "hash": "0xb95f018751bf30028b359127cfd8aa5275ace983b34f24d9f5c2c4de784aee07",
  "parentHash": "0x4bcc40fc556c89d14b70660ef0e4d9ee1a82255cc8a2ad427ac49c976e14eee6",
  "number": 68392,
  "timestamp": 1439287022,
  "nonce": "0x73defbb5364fda6d",
  "difficulty": 2020249475629,
  "gasLimit": {
    "_hex": "0x2fefd8"
  },
  "gasUsed": {
    "_hex": "0x5208"
  },
  "miner": "0xf927a40C8B7F6E07c5af7FA2155B4864a4112B13",
  "extraData": "0x",
  "transactions": [
    {
      "hash": "0xdcdc74e3e0ea68b872fee5f90af934f566d924d813b9572e77fbcb24a3c070c5",
      "blockHash": "0xb95f018751bf30028b359127cfd8aa5275ace983b34f24d9f5c2c4de784aee07",
      "blockNumber": 68392,
      "transactionIndex": 0,
      "confirmations": null,
      "from": "0x57158f5B5B35cDDC7Ac8FAB8E10C136FF7de587e",
      "gasPrice": {
        "_hex": "0xd19901385"
      },
      "gasLimit": {
        "_hex": "0x15f90"
      },
      "to": "0xD441bA6FFe06b0BD76330aC8F9c2946dA2dF88A2",
      "value": {
        "_hex": "0x6f05b59d3b20000"
      },
      "nonce": 3,
      "data": "0x",
      "r": "0x89068767ce4943cef1fea12840258c90c752609d65a3b9dc87b1f5c48231589c",
      "s": "0x39f087a85c70499e241ce6c0286f65414c3f6282cfb22fd795b9fc8f5e95a0c2",
      "v": 27,
      "creates": null,
      "raw": "0xf86d03850d1990138583015f9094d441ba6ffe06b0bd76330ac8f9c2946da2df88a28806f05b59d3b20000801ba089068767ce4943cef1fea12840258c90c752609d65a3b9dc87b1f5c48231589ca039f087a85c70499e241ce6c0286f65414c3f6282cfb22fd795b9fc8f5e95a0c2",
      "networkId": 0,
      "chainId": 0
    }
  ]
}