{
  "hash": "0x561dca27805952f88647fc0f2be4a64ae6b4a553c3ce662e1d6efb1306a1745d",
  "parentHash": "0x5238607812e79ecd994694faa3b52a35182b1d26a812eee559098e651ccfbdc1",
  "number": 74165,
  "timestamp": 1439381465,
  "nonce": "0x174bfae255890bb1",
  "difficulty": 2233583034566,
  "gasLimit": {
    "_hex": "0x2fefd8"
  },
  "gasUsed": {
    "_hex": "0x5208"
  },
  "miner": "0x53824166ea5271d3425e3194c848A90CA4e97eB2",
  "extraData": "0x476574682f76312e302e312f6c696e75782f676f312e342e32",
  "transactions": [
    {
      "hash": "0x650565c8a2df2812a1cb663aea57f662452cc593e7be29eb18482f7ccaefde4d",
      "blockHash": "0x561dca27805952f88647fc0f2be4a64ae6b4a553c3ce662e1d6efb1306a1745d",
      "blockNumber": 74165,
      "transactionIndex": 0,
      "confirmations": null,
      "from": "0x6De181Fc4C140FA31F196e5393516c49EEeBdAd3",
      "gasPrice": {
        "_hex": "0xd8755050b"
      },
      "gasLimit": {
        "_hex": "0x5208"
      },
      "to": "0x32Be343B94f860124dC4fEe278FDCBD38C102D88",
      "value": {
        "_hex": "0x2b5df595069ee0000"
      },
      "nonce": 5,
      "data": "0x",
      "r": "0x27210214835c569af8323158e038ce83756ceee5b609b46b33b1237018b823a6",
      "s": "0x4437ddee75b9afa673f4f7ac5692f8aed0f1656893aaa05c1f49e1e94eb4c6f8",
      "v": 27,
      "creates": null,
      "raw": "0xf86d05850d8755050b8252089432be343b94f860124dc4fee278fdcbd38c102d888902b5df595069ee0000801ba027210214835c569af8323158e038ce83756ceee5b609b46b33b1237018b823a6a04437ddee75b9afa673f4f7ac5692f8aed0f1656893aaa05c1f49e1e94eb4c6f8",
      "networkId": 0,
      "chainId": 0
    }
  ]
}