{
  "hash": "0x2adde65168e236e31fb39649453c214ef473ecf8c404e4ae7e9d2a3c244c07c2",
  "parentHash": "0xf58abce9a0d40c05c245d8cb1931c4c35e63e5fafda44ce173afe99184c1533b",
  "number": 84294,
  "timestamp": 1439547695,
  "nonce": "0x11d640ba89d76178",
  "difficulty": 2529161584029,
  "gasLimit": {
    "_hex": "0x2fefd8"
  },
  "gasUsed": {
    "_hex": "0x336b4"
  },
  "miner": "0xf927a40C8B7F6E07c5af7FA2155B4864a4112B13",
  "extraData": "0x",
  "transactions": [
    {
      "hash": "0x94e8a67a8c3f0cf1ada72c3ddcb943f3c5158bd77ad249165d778cf1ad91c97b",
      "blockHash": "0x2adde65168e236e31fb39649453c214ef473ecf8c404e4ae7e9d2a3c244c07c2",
      "blockNumber": 84294,
      "transactionIndex": 0,
      "confirmations": null,
      "from": "0xBD723b289A7367B6eCE2455ED61Edb49670ab9C4",
      "gasPrice": {
        "_hex": "0x110c8f7d8de"
      },
      "gasLimit": {
        "_hex": "0xc350"
      },
      "to": "0x2910543Af39abA0Cd09dBb2D50200b3E800A63D2",
      "value": {
        "_hex": "0x10eff0fae29b1bc0000"
      },
      "nonce": 0,
      "data": "0x454e4a5257355a3452",
      "r": "0xc861067c83222da9885267abf040cb5ccd342b037d2a5c233f79cad76a744900",
      "s": "0x301a23eb6420a7bef41eb793cec785a60398d1931ca0627b884d65a994618744",
      "v": 28,
      "creates": null,
      "raw": "0xf87880860110c8f7d8de82c350942910543af39aba0cd09dbb2d50200b3e800a63d28a010eff0fae29b1bc000089454e4a5257355a34521ca0c861067c83222da9885267abf040cb5ccd342b037d2a5c233f79cad76a744900a0301a23eb6420a7bef41eb793cec785a60398d1931ca0627b884d65a994618744",
      "networkId": 0,
      "chainId": 0
    },
    {
      "hash": "0x036ac01c58b3b8cf40b3ac19d0914937268e490882b1632a6bd8fa4345a1ba35",
      "blockHash": "0x2adde65168e236e31fb39649453c214ef473ecf8c404e4ae7e9d2a3c244c07c2",
      "blockNumber": 84294,
      "transactionIndex": 1,
      "confirmations": null,
      "from": "0xe6A7a1d47ff21B6321162AEA7C6CB457D5476Bca",
      "gasPrice": {
        "_hex": "0xcc7d6f54c"
      },
      "gasLimit": {
        "_hex": "0x55f0"
      },
      "to": "0x7001C4730b81A539eF8b760A3eEb14C64515137B",
      "value": {
        "_hex": "0x477850c45d2d5ece0"
      },
      "nonce": 1891,
      "data": "0x",
      "r": "0x5d441a273e057d426aece67a0922ae582be519a833339e2b8c1c24fce27456df",
      "s": "0x1327c06e3a8d29ea6c1d35e9e2ffaea40119ae604cc45a50ca6b7e30861e5309",
      "v": 27,
      "creates": null,
      "raw": "0xf86f820763850cc7d6f54c8255f0947001c4730b81a539ef8b760a3eeb14c64515137b890477850c45d2d5ece0801ba05d441a273e057d426aece67a0922ae582be519a833339e2b8c1c24fce27456dfa01327c06e3a8d29ea6c1d35e9e2ffaea40119ae604cc45a50ca6b7e30861e5309",
      "networkId": 0,
      "chainId": 0
    },
    {
      "hash": "0x29198dca740cb0e6aa04598c564285bdac6cbea47f15d14054e384d345e80d51",
      "blockHash": "0x2adde65168e236e31fb39649453c214ef473ecf8c404e4ae7e9d2a3c244c07c2",
      "blockNumber": 84294,
      "transactionIndex": 2,
      "confirmations": null,
      "from": "0xe6A7a1d47ff21B6321162AEA7C6CB457D5476Bca",
      "gasPrice": {
        "_hex": "0xcc7d6f54c"
      },
      "gasLimit": {
        "_hex": "0x55f0"
      },
      "to": "0xdc41BFACFAaF8B0F0949aB5A3f18f47063Ae62fB",
      "value": {
        "_hex": "0x51efd56491d2cf8c0"
      },
      "nonce": 1892,
      "data": "0x",
      "r": "0xac99af747454c4d67b5d2c3b848fe390c3f1d578b3cc7ef5302c1798c161dc36",
      "s": "0x0e89079992ddd1108ceb1d3171581b8ecf14337a3fca5c6d04c1014f841d4a57",
      "v": 27,
      "creates": null,
      "raw": "0xf86f820764850cc7d6f54c8255f094dc41bfacfaaf8b0f0949ab5a3f18f47063ae62fb89051efd56491d2cf8c0801ba0ac99af747454c4d67b5d2c3b848fe390c3f1d578b3cc7ef5302c1798c161dc36a00e89079992ddd1108ceb1d3171581b8ecf14337a3fca5c6d04c1014f841d4a57",
      "networkId": 0,
      "chainId": 0
    },
    {
      "hash": "0x10c6e97eacdc0842078ab9d09cc2018241f68a867a4880a69ef1c8742dd073a7",
      "blockHash": "0x2adde65168e236e31fb39649453c214ef473ecf8c404e4ae7e9d2a3c244c07c2",
      "blockNumber": 84294,
      "transactionIndex": 3,
      "confirmations": null,
      "from": "0xe6A7a1d47ff21B6321162AEA7C6CB457D5476Bca",
      "gasPrice": {
        "_hex": "0xcc7d6f54c"
      },
      "gasLimit": {
        "_hex": "0x55f0"
      },
      "to": "0x853Bff007d269E0526E871360d79d69D602770dc",
      "value": {
        "_hex": "0x59de0c3e9c90909c0"
      },
      "nonce": 1893,
      "data": "0x",
      "r": "0xc48054cb7e2a444a2d75c372ae7d4d956c6a991ce10e788ce54b2c0ab629e644",
      "s": "0x4acd13d99f563a16d772945979b212d768cf39c59fdca6fb2f25e09c0323f3ea",
      "v": 27,
      "creates": null,
      "raw": "0xf86f820765850cc7d6f54c8255f094853bff007d269e0526e871360d79d69d602770dc89059de0c3e9c90909c0801ba0c48054cb7e2a444a2d75c372ae7d4d956c6a991ce10e788ce54b2c0ab629e644a04acd13d99f563a16d772945979b212d768cf39c59fdca6fb2f25e09c0323f3ea",
      "networkId": 0,
      "chainId": 0
    },
    {
      "hash": "0xe3870d590270d8b16345ca9eae4d8aaf89cad5ef28c1883611cd45f065ae9009",
      "blockHash": "0x2adde65168e236e31fb39649453c214ef473ecf8c404e4ae7e9d2a3c244c07c2",
      "blockNumber": 84294,
      "transactionIndex": 4,
      "confirmations": null,
      "from": "0xe6A7a1d47ff21B6321162AEA7C6CB457D5476Bca",
      "gasPrice": {
        "_hex": "0xcc7d6f54c"
      },
      "gasLimit": {
        "_hex": "0x55f0"
      },
      "to": "0xB9eE81c1A5CdE84454DC603a8000836118627cfd",
      "value": {
        "_hex": "0x5a6d752224ff04aa0"
      },
      "nonce": 1894,
      "data": "0x",
      "r": "0x80955653b6c85529074fa347701455c51c3a04da57fc41b7641e9c372203481d",
      "s": "0x4e7fa3a57c8c86e103f9a1fe8c846175e1327cb2ab661c3a1a7481f404ed75c8",
      "v": 27,
      "creates": null,
      "raw": "0xf86f820766850cc7d6f54c8255f094b9ee81c1a5cde84454dc603a8000836118627cfd8905a6d752224ff04aa0801ba080955653b6c85529074fa347701455c51c3a04da57fc41b7641e9c372203481da04e7fa3a57c8c86e103f9a1fe8c846175e1327cb2ab661c3a1a7481f404ed75c8",
      "networkId": 0,
      "chainId": 0
    },
    {
      "hash": "0x4dff0f5e4b22493a3d1db68d19caaf73226e707e60bfe6b9d042b07b07293c74",
      "blockHash": "0x2adde65168e236e31fb39649453c214ef473ecf8c404e4ae7e9d2a3c244c07c2",
      "blockNumber": 84294,
      "transactionIndex": 5,
      "confirmations": null,
      "from": "0xe6A7a1d47ff21B6321162AEA7C6CB457D5476Bca",
      "gasPrice": {
        "_hex": "0xcc7d6f54c"
      },
      "gasLimit": {
        "_hex": "0x55f0"
      },
      "to": "0x837A2A346557050c8cF0fb24b84Aa695E8Add19f",
      "value": {
        "_hex": "0x60ce14b9be8fd7000"
      },
      "nonce": 1895,
      "data": "0x",
      "r": "0xbae4af9fa100440bed94d7d99324bf371905de02410901a6a6d8c61c64cc1e1a",
      "s": "0x59b2e0094012e217ee3e6d8a3fef54afe54d7af874651494eb74e7812b2393d8",
      "v": 28,
      "creates": null,
      "raw": "0xf86f820767850cc7d6f54c8255f094837a2a346557050c8cf0fb24b84aa695e8add19f89060ce14b9be8fd7000801ca0bae4af9fa100440bed94d7d99324bf371905de02410901a6a6d8c61c64cc1e1aa059b2e0094012e217ee3e6d8a3fef54afe54d7af874651494eb74e7812b2393d8",
      "networkId": 0,
      "chainId": 0
    },
    {
      "hash": "0xf7473a093ee570b1b14f2ef0b2e44ec625c546063aa3552e8c22c855bb69112c",
      "blockHash": "0x2adde65168e236e31fb39649453c214ef473ecf8c404e4ae7e9d2a3c244c07c2",
      "blockNumber": 84294,
      "transactionIndex": 6,
      "confirmations": null,
      "from": "0xe6A7a1d47ff21B6321162AEA7C6CB457D5476Bca",
      "gasPrice": {
        "_hex": "0xcc7d6f54c"
      },
      "gasLimit": {
        "_hex": "0x55f0"
      },
      "to": "0x40dDAE161B79aaebeb68187233fe59bd3B1c2db2",
      "value": {
        "_hex": "0x63d7668f9a3c7d8e0"
      },
      "nonce": 1896,
      "data": "0x",
      "r": "0xd9e174fe92b4688ae187bb499f95d217d0f9ab8199c1844fdcfab43a54a32065",
      "s": "0x038189527c045bee6ce9ed66598d7a631e5c2cdd546e0f3f7bda7630793a1c95",
      "v": 28,
      "creates": null,
      "raw": "0xf86f820768850cc7d6f54c8255f09440ddae161b79aaebeb68187233fe59bd3b1c2db289063d7668f9a3c7d8e0801ca0d9e174fe92b4688ae187bb499f95d217d0f9ab8199c1844fdcfab43a54a32065a0038189527c045bee6ce9ed66598d7a631e5c2cdd546e0f3f7bda7630793a1c95",
      "networkId": 0,
      "chainId": 0
    },
    {
      "hash": "0x95c7306ab72e0466ac22c2d91a5fce94c2d56ff95efb999bb69a41a8284a9dca",
      "blockHash": "0x2adde65168e236e31fb39649453c214ef473ecf8c404e4ae7e9d2a3c244c07c2",
      "blockNumber": 84294,
      "transactionIndex": 7,
      "confirmations": null,
      "from": "0xe6A7a1d47ff21B6321162AEA7C6CB457D5476Bca",
      "gasPrice": {
        "_hex": "0xcc7d6f54c"
      },
      "gasLimit": {
        "_hex": "0x55f0"
      },
      "to": "0x250978C66B17d66f4167197A38b631d8900968C0",
      "value": {
        "_hex": "0x8080084b082efcaa0"
      },
      "nonce": 1897,
      "data": "0x",
      "r": "0xd5103a3e6e4a1fede4d0e3154b97f9b9a90dd1a23125b88111901e1751ae89a3",
      "s": "0x5cee40bde5bc63ff8c5528273c615f0986fac5d7292dcd78bd952d91578c19b6",
      "v": 28,
      "creates": null,
      "raw": "0xf86f820769850cc7d6f54c8255f094250978c66b17d66f4167197a38b631d8900968c08908080084b082efcaa0801ca0d5103a3e6e4a1fede4d0e3154b97f9b9a90dd1a23125b88111901e1751ae89a3a05cee40bde5bc63ff8c5528273c615f0986fac5d7292dcd78bd952d91578c19b6",
      "networkId": 0,
      "chainId": 0
    },
    {
      "hash": "0x6d8133f979443089911e92d64f78f95b4a53015f76db97cfe0d1f4f6a125ba2d",
      "blockHash": "0x2adde65168e236e31fb39649453c214ef473ecf8c404e4ae7e9d2a3c244c07c2",
      "blockNumber": 84294,
      "transactionIndex": 8,
      "confirmations": null,
      "from": "0xe6A7a1d47ff21B6321162AEA7C6CB457D5476Bca",
      "gasPrice": {
        "_hex": "0xcc7d6f54c"
      },
      "gasLimit": {
        "_hex": "0x55f0"
      },
      "to": "0xd0DF24FD0DfcDc3850D1590dAA1D03ca7706b11B",
      "value": {
        "_hex": "0x9161c2ad94d130740"
      },
      "nonce": 1898,
      "data": "0x",
      "r": "0xd0fd7b1046aa2e4527b8e3942d535860bde19e4e34a21d3a08b9df6efcf42ec0",
      "s": "0x5911bf8c0974777ad3fa90092562f819af7fa69d8c0ca2f7a500e73eb7d3a703",
      "v": 27,
      "creates": null,
      "raw": "0xf86f82076a850cc7d6f54c8255f094d0df24fd0dfcdc3850d1590daa1d03ca7706b11b8909161c2ad94d130740801ba0d0fd7b1046aa2e4527b8e3942d535860bde19e4e34a21d3a08b9df6efcf42ec0a05911bf8c0974777ad3fa90092562f819af7fa69d8c0ca2f7a500e73eb7d3a703",
      "networkId": 0,
      "chainId": 0
    },
    {
      "hash": "0xffe6e828d265f3fc81e0c450b354a3949ae19762f0cff9d44f602977806fe953",
      "blockHash": "0x2adde65168e236e31fb39649453c214ef473ecf8c404e4ae7e9d2a3c244c07c2",
      "blockNumber": 84294,
      "transactionIndex": 9,
      "confirmations": null,
      "from": "0xe6A7a1d47ff21B6321162AEA7C6CB457D5476Bca",
      "gasPrice": {
        "_hex": "0xcc7d6f54c"
      },
      "gasLimit": {
        "_hex": "0x55f0"
      },
      "to": "0x0912001e29BbaF75C23069A22D9B9602BE86FEB7",
      "value": {
        "_hex": "0xd183e2f75a0867e70"
      },
      "nonce": 1899,
      "data": "0x",
      "r": "0xa9b063a27b34ca120b8010f787a47820c3e044673c3613cf5886c2a04e03764f",
      "s": "0x43821556b97fea3b18b7a00c2ca212a5d79b97a11ab94462b872ac4a9203f9d9",
      "v": 27,
      "creates": null,
      "raw": "0xf86f82076b850cc7d6f54c8255f0940912001e29bbaf75c23069a22d9b9602be86feb7890d183e2f75a0867e70801ba0a9b063a27b34ca120b8010f787a47820c3e044673c3613cf5886c2a04e03764fa043821556b97fea3b18b7a00c2ca212a5d79b97a11ab94462b872ac4a9203f9d9",
      "networkId": 0,
      "chainId": 0
    }
  ]
}