{
  "hash": "0xcffdabc05ebf89ea714605d6ccbe14094b19107b718e46fc405f9f720e96a103",
  "parentHash": "0xafd184d3cec08a3b98827b9e8895de103db304921db435636755a85e2f18e816",
  "number": 78249,
  "timestamp": 1439450974,
  "nonce": "0xad2618b47a519a27",
  "difficulty": 2278752174604,
  "gasLimit": {
    "_hex": "0x2fefd8"
  },
  "gasUsed": {
    "_hex": "0x5208"
  },
  "miner": "0xe6A7a1d47ff21B6321162AEA7C6CB457D5476Bca",
  "extraData": "0x476574682f76312e302e312d38326566323666362f6c696e75782f676f312e34",
  "transactions": [
    {
      "hash": "0x99380f667ad021d8389026f599074f1e65140c87b8279f8bdc7b009cda8df20f",
      "blockHash": "0xcffdabc05ebf89ea714605d6ccbe14094b19107b718e46fc405f9f720e96a103",
      "blockNumber": 78249,
      "transactionIndex": 0,
      "confirmations": null,
      "from": "0xa114c802ef29776f05f9c6925cE915232e8ae102",
      "gasPrice": {
        "_hex": "0xd3fe76e6c"
      },
      "gasLimit": {
        "_hex": "0x5208"
      },
      "to": "0x32Be343B94f860124dC4fEe278FDCBD38C102D88",
      "value": {
        "_hex": "0x1a0512a2baf06c000"
      },
      "nonce": 12,
      "data": "0x",
      "r": "0x45a9168a05ef97384c1d771bd962f8dd982429d234bd99e32036f8a7eb97bce1",
      "s": "0x66c961ff3d3c7a951ceb9115bba02e681462ee0972294e642c77d806346a1346",
      "v": 28,
      "creates": null,
      "raw": "0xf86d0c850d3fe76e6c8252089432be343b94f860124dc4fee278fdcbd38c102d888901a0512a2baf06c000801ca045a9168a05ef97384c1d771bd962f8dd982429d234bd99e32036f8a7eb97bce1a066c961ff3d3c7a951ceb9115bba02e681462ee0972294e642c77d806346a1346",
      "networkId": 0,
      "chainId": 0
    }
  ]
}