{
  "hash": "0x777be6b031dfcc8cea2bd0d667a0a91c3ef708cc20c3c018f205c2d53b04c0c5",
  "parentHash": "0xdc24332b8fd0d4981ef8d7a6f2f47a1eebd21285709eba77038b5015d7a38f69",
  "number": 119373,
  "timestamp": 1440141682,
  "nonce": "0x3763906e7b5b459b",
  "difficulty": 4418135958045,
  "gasLimit": {
    "_hex": "0x2fefd8"
  },
  "gasUsed": {
    "_hex": "0x5208"
  },
  "miner": "0x580992B51e3925e23280EfB93d3047C82f17E038",
  "extraData": "0x",
  "transactions": [
    {
      "hash": "0xa6f7db9c68be75e78122f3e2ede52a3f94357ddec4b5cf75bfeeb14a62b4cfac",
      "blockHash": "0x777be6b031dfcc8cea2bd0d667a0a91c3ef708cc20c3c018f205c2d53b04c0c5",
      "blockNumber": 119373,
      "transactionIndex": 0,
      "confirmations": null,
      "from": "0xF7e66D2622220807d8696064E94ca24b1dC6e7Da",
      "gasPrice": {
        "_hex": "0xba43b7400"
      },
      "gasLimit": {
        "_hex": "0x5208"
      },
      "to": "0x32Be343B94f860124dC4fEe278FDCBD38C102D88",
      "value": {
        "_hex": "0x190706e89a3c5f000"
      },
      "nonce": 20,
      "data": "0x",
      "r": "0x5579ec2ab19102b430029eba5135ae626106bdccaabd3ca5b99df2fd04d07c30",
      "s": "0x0a0840194b90d00e317c94c69abef8bef3fc60689ae0830921521ab04200ce1f",
      "v": 28,
      "creates": null,
      "raw": "0xf86d14850ba43b74008252089432be343b94f860124dc4fee278fdcbd38c102d88890190706e89a3c5f000801ca05579ec2ab19102b430029eba5135ae626106bdccaabd3ca5b99df2fd04d07c30a00a0840194b90d00e317c94c69abef8bef3fc60689ae0830921521ab04200ce1f",
      "networkId": 0,
      "chainId": 0
    }
  ]
}