{
  "hash": "0x4c0177557dd85e0c3453b7b56910e75282fac3c20e9be97ab7920d30cab28f46",
  "parentHash": "0xb7606853a2c49ec104cd37b4147130b308156c73ae1de17ee7ae16b96c6ad1ef",
  "number": 115549,
  "timestamp": 1440059039,
  "nonce": "0xf4af0565dc12998a",
  "difficulty": 4614218377571,
  "gasLimit": {
    "_hex": "0x2fefd8"
  },
  "gasUsed": {
    "_hex": "0x5208"
  },
  "miner": "0xe6A7a1d47ff21B6321162AEA7C6CB457D5476Bca",
  "extraData": "0x476574682f76312e302e312d38326566323666362f6c696e75782f676f312e34",
  "transactions": [
    {
      "hash": "0x7d85680cefe5f14bc94afc160fd298b5701fb930c2e83bf22787d3fe9cf19845",
      "blockHash": "0x4c0177557dd85e0c3453b7b56910e75282fac3c20e9be97ab7920d30cab28f46",
      "blockNumber": 115549,
      "transactionIndex": 0,
      "confirmations": null,
      "from": "0x02020D22dCF88f5eDd66B382D7da019F161fB7e3",
      "gasPrice": {
        "_hex": "0xd1ac4bc2d"
      },
      "gasLimit": {
        "_hex": "0x15f90"
      },
      "to": "0x4FCD326ae0739D0DA0fC71020adb6aBf9abf3BdA",
      "value": {
        "_hex": "0x16a8ea515751480000"
      },
      "nonce": 38,
      "data": "0x",
      "r": "0x8d6442c995ea99cf2c600f4aa57cb54e97fa482fe804cc491b6a06de8b6b50f0",
      "s": "0x3510d9b6ba8e75fe4294093aaa96b039071f6564615aee0246d8304b3a508b35",
      "v": 27,
      "creates": null,
      "raw": "0xf86e26850d1ac4bc2d83015f90944fcd326ae0739d0da0fc71020adb6abf9abf3bda8916a8ea515751480000801ba08d6442c995ea99cf2c600f4aa57cb54e97fa482fe804cc491b6a06de8b6b50f0a03510d9b6ba8e75fe4294093aaa96b039071f6564615aee0246d8304b3a508b35",
      "networkId": 0,
      "chainId": 0
    }
  ]
}