{
  "hash": "0x25517d240bae8b75f448ff2f64ad728d896495e41f3eee857a791a6ceda5c7f6",
  "parentHash": "0x7327eba491aefdd01d88af34e99c15caf5c00bb3372aeff67fd28fe0185761f0",
  "number": 92958,
  "timestamp": 1439679940,
  "nonce": "0x339695f65344ba56",
  "difficulty": 3654633018822,
  "gasLimit": {
    "_hex": "0x2fefd8"
  },
  "gasUsed": {
    "_hex": "0x185e6"
  },
  "miner": "0xe6A7a1d47ff21B6321162AEA7C6CB457D5476Bca",
  "extraData": "0x476574682f76312e302e312d38326566323666362f6c696e75782f676f312e34",
  "transactions": [
    {
      "hash": "0x76d1bf620915aceacdb380d41bbb2aff7bc6f7403a8dd1e599f98a56f096f3cd",
      "blockHash": "0x25517d240bae8b75f448ff2f64ad728d896495e41f3eee857a791a6ceda5c7f6",
      "blockNumber": 92958,
      "transactionIndex": 0,
      "confirmations": null,
      "from": "0xFBb1b73C4f0BDa4f67dcA266ce6Ef42f520fBB98",
      "gasPrice": {
        "_hex": "0xd6a4c182a"
      },
      "gasLimit": {
        "_hex": "0x15f90"
      },
      "to": "0xCAc7000C7dBaa2E33Af15325AF5D435E011C7BdD",
      "value": {
        "_hex": "0x0"
      },
      "nonce": 53,
      "data": "0x3feb1bd842495454524558303000000000000000000000000000000000000000000000000000000000000000000000008e516ea4f6adc2e820463e94494e7cd80ed39da40000000000000000000000000000000000000000000000001083bab1f2b70000",
      "r": "0xd4a24f3cb8d72b94e9b3a976d4ab9dc23d06c4b7a1295232da799d8deea1ab7d",
      "s": "0x4a7d2d7e8373260c9cbb3c3bb2284fad6c59f56389c73ca1d9584da3d3b29b2d",
      "v": 27,
      "creates": null,
      "raw": "0xf8ca35850d6a4c182a83015f9094cac7000c7dbaa2e33af15325af5d435e011c7bdd80b8643feb1bd842495454524558303000000000000000000000000000000000000000000000000000000000000000000000008e516ea4f6adc2e820463e94494e7cd80ed39da40000000000000000000000000000000000000000000000001083bab1f2b700001ba0d4a24f3cb8d72b94e9b3a976d4ab9dc23d06c4b7a1295232da799d8deea1ab7da04a7d2d7e8373260c9cbb3c3bb2284fad6c59f56389c73ca1d9584da3d3b29b2d",
      "networkId": 0,
      "chainId": 0
    },
    {
      "hash": "0x87e0417b8c53bac3528b48367d7005286a5ecdf4d16f0144de58576c6bac4fba",
      "blockHash": "0x25517d240bae8b75f448ff2f64ad728d896495e41f3eee857a791a6ceda5c7f6",
      "blockNumber": 92958,
      "transactionIndex": 1,
      "confirmations": null,
      "from": "0xc8ebccC5F5689Fa8659d83713341e5aD19349448",
      "gasPrice": {
        "_hex": "0xcc06e16b1"
      },
      "gasLimit": {
        "_hex": "0x5208"
      },
      "to": "0x0F87Fb507513e749081E34373c84E95e85b5c057",
      "value": {
        "_hex": "0x456db404ab797630"
      },
      "nonce": 71,
      "data": "0x",
      "r": "0x2d361e2b91b4bf0fa03af6ae2207ee4a6d5c70403ee421bf1f4ba47473d26a18",
      "s": "0x203139f007f9498435c6aebf551d68593142c6001c9c27d297b16f31b7ce527d",
      "v": 27,
      "creates": null,
      "raw": "0xf86c47850cc06e16b1825208940f87fb507513e749081e34373c84e95e85b5c05788456db404ab797630801ba02d361e2b91b4bf0fa03af6ae2207ee4a6d5c70403ee421bf1f4ba47473d26a18a0203139f007f9498435c6aebf551d68593142c6001c9c27d297b16f31b7ce527d",
      "networkId": 0,
      "chainId": 0
    },
    {
      "hash": "0x7d0555fe37a9dd7a423bef63437ffc7ff174055f35cc5a72e0f44b04f6a916c0",
      "blockHash": "0x25517d240bae8b75f448ff2f64ad728d896495e41f3eee857a791a6ceda5c7f6",
      "blockNumber": 92958,
      "transactionIndex": 2,
      "confirmations": null,
      "from": "0xdd5B9750fb9a83caDeAC5bFa4E34540A76E97ECE",
      "gasPrice": {
        "_hex": "0xba43b7400"
      },
      "gasLimit": {
        "_hex": "0x5208"
      },
      "to": "0xC47Aaa860008be6f65B58c6C6E02a84e666EfE31",
      "value": {
        "_hex": "0xd8d4b2986dae38710"
      },
      "nonce": 1,
      "data": "0x",
      "r": "0x6895141bb980fa0c9cb7d79417ec07934aa193c26760fc5fc222acf8fee31006",
      "s": "0x2d3598f72097c1dad56145bedef0a33e200587d536536b041f7ca07ede6c2447",
      "v": 27,
      "creates": null,
      "raw": "0xf86d01850ba43b740082520894c47aaa860008be6f65b58c6c6e02a84e666efe31890d8d4b2986dae38710801ba06895141bb980fa0c9cb7d79417ec07934aa193c26760fc5fc222acf8fee31006a02d3598f72097c1dad56145bedef0a33e200587d536536b041f7ca07ede6c2447",
      "networkId": 0,
      "chainId": 0
    }
  ]
}