{
  "hash": "0xff5ec4634bdaac7428560e96f77e9021ca96e0ad85dc441e8f35724370bf69b1",
  "parentHash": "0x15f4e506503ff252660f4424f712bd22eff93cb35aa27e8b142c59b7d9ff2a5d",
  "number": 106083,
  "timestamp": 1439898297,
  "nonce": "0x2387b9904c971cb6",
  "difficulty": 4459847936294,
  "gasLimit": {
    "_hex": "0x2fefd8"
  },
  "gasUsed": {
    "_hex": "0xf618"
  },
  "miner": "0x88D74a59454F6cF3B51ef6b9136AFb6b9D405A88",
  "extraData": "0x476574682f76312e302e312d39393231366634612f6c696e75782f676f312e34",
  "transactions": [
    {
      "hash": "0x0dd044b62f0fab63c0973c3bf259653ecdd2c3c2fb84ff144668f0b7757d6961",
      "blockHash": "0xff5ec4634bdaac7428560e96f77e9021ca96e0ad85dc441e8f35724370bf69b1",
      "blockNumber": 106083,
      "transactionIndex": 0,
      "confirmations": null,
      "from": "0xA10C59651885FeAaac91F871082a23BBbaBeDfCf",
      "gasPrice": {
        "_hex": "0x115238f94d3"
      },
      "gasLimit": {
        "_hex": "0x5208"
      },
      "to": "0x4c74B6F32c9680aCB5Fe0e72B7Aa95C612540A04",
      "value": {
        "_hex": "0x1a055690d9db80000"
      },
      "nonce": 41,
      "data": "0x",
      "r": "0x7c582fc55340b5c19c2c6fa0d7e80ab6b5da19448eb59bdb8e405b1f312e959a",
      "s": "0x6ee9b84876f1efcfebd67fc84b5e4d299472f18503ef2dd550aa344cebdc6ab5",
      "v": 27,
      "creates": null,
      "raw": "0xf86e29860115238f94d3825208944c74b6f32c9680acb5fe0e72b7aa95c612540a048901a055690d9db80000801ba07c582fc55340b5c19c2c6fa0d7e80ab6b5da19448eb59bdb8e405b1f312e959aa06ee9b84876f1efcfebd67fc84b5e4d299472f18503ef2dd550aa344cebdc6ab5",
      "networkId": 0,
      "chainId": 0
    },
    {
      "hash": "0xe73de3b5eb403c729bec63efc7bf583bc418f7d7969d88dfe5b83915dfa5c206",
      "blockHash": "0xff5ec4634bdaac7428560e96f77e9021ca96e0ad85dc441e8f35724370bf69b1",
      "blockNumber": 106083,
      "transactionIndex": 1,
      "confirmations": null,
      "from": "0x0617194e49BaAD419B57FB8EBba265E417362835",
      "gasPrice": {
        "_hex": "0xdb42f0597"
      },
      "gasLimit": {
        "_hex": "0x5208"
      },
      "to": "0x0F87Fb507513e749081E34373c84E95e85b5c057",
      "value": {
        "_hex": "0x167ee9ae596eef48"
      },
      "nonce": 7,
      "data": "0x",
      "r": "0x731b7e2f997af7c331da825dd27c5a3a2da274daeb5bc8a1f94534f4da080aa7",
      "s": "0x66aac6bd4930896eb06c23b0b5c23927c77183909b5ffcb748b0b4dbc49d2aa4",
      "v": 27,
      "creates": null,
      "raw": "0xf86c07850db42f0597825208940f87fb507513e749081e34373c84e95e85b5c05788167ee9ae596eef48801ba0731b7e2f997af7c331da825dd27c5a3a2da274daeb5bc8a1f94534f4da080aa7a066aac6bd4930896eb06c23b0b5c23927c77183909b5ffcb748b0b4dbc49d2aa4",
      "networkId": 0,
      "chainId": 0
    },
    {
      "hash": "0x2b444a7e53052e90d94406054c06b93f2085b5356261e6d9457758c3c65ab246",
      "blockHash": "0xff5ec4634bdaac7428560e96f77e9021ca96e0ad85dc441e8f35724370bf69b1",
      "blockNumber": 106083,
      "transactionIndex": 2,
      "confirmations": null,
      "from": "0xa61ff394e3846F8bfbBF8801afb051730B04Ee75",
      "gasPrice": {
        "_hex": "0xcc8277469"
      },
      "gasLimit": {
        "_hex": "0x5208"
      },
      "to": "0x32Be343B94f860124dC4fEe278FDCBD38C102D88",
      "value": {
        "_hex": "0x455f7901ca453000"
      },
      "nonce": 14,
      "data": "0x",
      "r": "0xe9ab82aca65fc8fffd166ec119e9256f4a97a0d33ca30f095ae459a68f431f04",
      "s": "0x09af2a54129b8d2b8d230a960be00fb4e67142d79a98b6ba6cca71101191a815",
      "v": 28,
      "creates": null,
      "raw": "0xf86c0e850cc82774698252089432be343b94f860124dc4fee278fdcbd38c102d8888455f7901ca453000801ca0e9ab82aca65fc8fffd166ec119e9256f4a97a0d33ca30f095ae459a68f431f04a009af2a54129b8d2b8d230a960be00fb4e67142d79a98b6ba6cca71101191a815",
      "networkId": 0,
      "chainId": 0
    }
  ]
}