{
  "hash": "0x50c00db24967cf0b4c4bcb79f717066a23545669c97e1f5bc8819876eb25acf2",
  "parentHash": "0x8e4275bbc41fce18162a4d2d79f4da24a00d8cfbb710bc1e46ec4106e13311e8",
  "number": 64930,
  "timestamp": 1439228621,
  "nonce": "0xe062b4b41b44d8f7",
  "difficulty": 1909789601482,
  "gasLimit": {
    "_hex": "0x2fefd8"
  },
  "gasUsed": {
    "_hex": "0xf618"
  },
  "miner": "0xee5379D0c1ca47327368027455074C26D9952628",
  "extraData": "0x476574682f76312e302e312d38326566323666362f6c696e75782f676f312e34",
  "transactions": [
    {
      "hash": "0x310d09dd5332aa4f365a43fd5aef5daf6ec3f12398769bac7e726354e8158061",
      "blockHash": "0x50c00db24967cf0b4c4bcb79f717066a23545669c97e1f5bc8819876eb25acf2",
      "blockNumber": 64930,
      "transactionIndex": 0,
      "confirmations": null,
      "from": "0x740aF1eeFD3365d78BA7b12Cb1A673e06A077246",
      "gasPrice": {
        "_hex": "0x106ce997e44"
      },
      "gasLimit": {
        "_hex": "0x7530"
      },
      "to": "0x74658017042847C42A8Df154603BD29F563d4753",
      "value": {
        "_hex": "0x16345785d8a0000"
      },
      "nonce": 1,
      "data": "0x",
      "r": "0x097b07d014ab1bfd8aa31be4656c0ba591f12ab3bec2a4089990db26ea6de3e3",
      "s": "0x4a5404f50c0f48e7c4029ebf3e300f6963df90c079d45d4e1bf819c0e4a733a3",
      "v": 27,
      "creates": null,
      "raw": "0xf86d01860106ce997e448275309474658017042847c42a8df154603bd29f563d475388016345785d8a0000801ba0097b07d014ab1bfd8aa31be4656c0ba591f12ab3bec2a4089990db26ea6de3e3a04a5404f50c0f48e7c4029ebf3e300f6963df90c079d45d4e1bf819c0e4a733a3",
      "networkId": 0,
      "chainId": 0
    },
    {
      "hash": "0xede12483ad02d61024269c6e7bed5cdc777448c0af86c076395d3baccb1e8274",
      "blockHash": "0x50c00db24967cf0b4c4bcb79f717066a23545669c97e1f5bc8819876eb25acf2",
      "blockNumber": 64930,
      "transactionIndex": 1,
      "confirmations": null,
      "from": "0x5e0aC6f6dB144f68Dbb8219eDDd55695d736c0aC",
      "gasPrice": {
        "_hex": "0xba43b7400"
      },
      "gasLimit": {
        "_hex": "0x5208"
      },
      "to": "0x3CcEf49906281a633BEaD34c892865ab8Fd3e436",
      "value": {
        "_hex": "0xd8e5610f40e000"
      },
      "nonce": 1,
      "data": "0x",
      "r": "0xdd1e701751331da525a733ffc4693b732242aef7b2eaf0d2513db789aa018f79",
      "s": "0x0f38b4c207104a86942b238a7549160cce51ef4dc403127e179a8ac09e59c297",
      "v": 28,
      "creates": null,
      "raw": "0xf86b01850ba43b7400825208943ccef49906281a633bead34c892865ab8fd3e43687d8e5610f40e000801ca0dd1e701751331da525a733ffc4693b732242aef7b2eaf0d2513db789aa018f79a00f38b4c207104a86942b238a7549160cce51ef4dc403127e179a8ac09e59c297",
      "networkId": 0,
      "chainId": 0
    },
    {
      "hash": "0x0dc5bd9a6ae657374268609eae5ec8204dc32910f52bd22ba888ac97bc2a34ed",
      "blockHash": "0x50c00db24967cf0b4c4bcb79f717066a23545669c97e1f5bc8819876eb25acf2",
      "blockNumber": 64930,
      "transactionIndex": 2,
      "confirmations": null,
      "from": "0x3D548A920aE88AA8C7614F2A871Cccae694450c1",
      "gasPrice": {
        "_hex": "0xba43b7400"
      },
      "gasLimit": {
        "_hex": "0x5208"
      },
      "to": "0x2F42116373734876bA118A3eE628002d9359f95C",
      "value": {
        "_hex": "0x13572147582a000"
      },
      "nonce": 1,
      "data": "0x",
      "r": "0x5370951bcaec06303352d3f4c12d03705f7be33c57de465b042b8b4e3b7a3af8",
      "s": "0x486decacb40bbc82d7d79cf5bc8d58acb4d2efb438315799fa84b3445e8c252a",
      "v": 28,
      "creates": null,
      "raw": "0xf86c01850ba43b7400825208942f42116373734876ba118a3ee628002d9359f95c88013572147582a000801ca05370951bcaec06303352d3f4c12d03705f7be33c57de465b042b8b4e3b7a3af8a0486decacb40bbc82d7d79cf5bc8d58acb4d2efb438315799fa84b3445e8c252a",
      "networkId": 0,
      "chainId": 0
    }
  ]
}