{
  "hash": "0x14660b46c65f0c2d946e4fae9bff8b88ce2b93346e699141ee501375a9013505",
  "parentHash": "0x921f8bc9bd0178e60fe90b2142b7bb2ac6541a897b8792a19f2b1a1f820e1722",
  "number": 105209,
  "timestamp": 1439883680,
  "nonce": "0x702437e9910fd93d",
  "difficulty": 4331534997388,
  "gasLimit": {
    "_hex": "0x2fefd8"
  },
  "gasUsed": {
    "_hex": "0x5208"
  },
  "miner": "0x9D49F602b0fdb924Bd63DDE2Bd0907E4A07c63a7",
  "extraData": "0x476574682f76312e302e312f6c696e75782f676f312e342e32",
  "transactions": [
    {
      "hash": "0x84de33cfa0ad05672332fb361dd7eb66a56cb7ea299548e513fd38f7b7f80d25",
      "blockHash": "0x14660b46c65f0c2d946e4fae9bff8b88ce2b93346e699141ee501375a9013505",
      "blockNumber": 105209,
      "transactionIndex": 0,
      "confirmations": null,
      "from": "0x2910543Af39abA0Cd09dBb2D50200b3E800A63D2",
      "gasPrice": {
        "_hex": "0xddee44481"
      },
      "gasLimit": {
        "_hex": "0x5208"
      },
      "to": "0xF21808C5F1198F548A6BE2410fB55fC0c4ac15f3",
      "value": {
        "_hex": "0x4562754ab175f8000"
      },
      "nonce": 1025,
      "data": "0x",
      "r": "0x56be499fda200e49dd8e051c150edf4cab7ba0fe8465b675b73ba8ab5c444237",
      "s": "0x4220068c51367eb9558c70d3a7bcd086b8e53d0296d8cfa77dfead359ee8cb70",
      "v": 28,
      "creates": null,
      "raw": "0xf86f820401850ddee4448182520894f21808c5f1198f548a6be2410fb55fc0c4ac15f38904562754ab175f8000801ca056be499fda200e49dd8e051c150edf4cab7ba0fe8465b675b73ba8ab5c444237a04220068c51367eb9558c70d3a7bcd086b8e53d0296d8cfa77dfead359ee8cb70",
      "networkId": 0,
      "chainId": 0
    }
  ]
}