{
  "hash": "0x8ff5aa6dedf021bcbab94a0b1752d536992316e45ec9162fe18d9b96dbc7549f",
  "parentHash": "0x107faa506d305ed3db1490e8648b3239a1c5805a54b54c1b0a18c3c39541d324",
  "number": 52079,
  "timestamp": 1439015762,
  "nonce": "0x36ae4aa0e64bb085",
  "difficulty": 1563403016555,
  "gasLimit": {
    "_hex": "0x101c17"
  },
  "gasUsed": {
    "_hex": "0x5208"
  },
  "miner": "0x0037ce3d4B7f8729C8607D8D0248252Be68202c0",
  "extraData": "0x476574682f76312e302e312f77696e646f77732f676f312e342e32",
  "transactions": [
    {
      "hash": "0xc2f2d49fcc045105905ac488cd3623129cc07fe7718fc137db922a568fb38259",
      "blockHash": "0x8ff5aa6dedf021bcbab94a0b1752d536992316e45ec9162fe18d9b96dbc7549f",
      "blockNumber": 52079,
      "transactionIndex": 0,
      "confirmations": null,
      "from": "0xB0bF4A71F730782368Ef660FE6D298F432F95450",
      "gasPrice": {
        "_hex": "0xdccdce89d"
      },
      "gasLimit": {
        "_hex": "0x5208"
      },
      "to": "0x32Be343B94f860124dC4fEe278FDCBD38C102D88",
      "value": {
        "_hex": "0x516c6b8603cf5c0000"
      },
      "nonce": 4,
      "data": "0x",
      "r": "0x86e721650535d453269cb928cecd79a4398297391b01a970921dcf96817dca88",
      "s": "0x3df6373df10c8bdcfa45e7887d41724e74ce85ecfdc5dbec909d413e5375a63b",
      "v": 28,
      "creates": null,
      "raw": "0xf86d04850dccdce89d8252089432be343b94f860124dc4fee278fdcbd38c102d8889516c6b8603cf5c0000801ca086e721650535d453269cb928cecd79a4398297391b01a970921dcf96817dca88a03df6373df10c8bdcfa45e7887d41724e74ce85ecfdc5dbec909d413e5375a63b",
      "networkId": 0,
      "chainId": 0
    }
  ]
}