{
  "hash": "0x166b703b154a7c956f19d98409051a617474e5b84aa6cd053c5c7ee4d218a708",
  "parentHash": "0xe6b7f11965519d5789fa8f8999a37cb88a4c3fd4e72fd9386bd7fca5d50cc4b4",
  "number": 74214,
  "timestamp": 1439382482,
  "nonce": "0x5bdfb5ce596065a1",
  "difficulty": 2210784189976,
  "gasLimit": {
    "_hex": "0x2fefd8"
  },
  "gasUsed": {
    "_hex": "0xa410"
  },
  "miner": "0xe6A7a1d47ff21B6321162AEA7C6CB457D5476Bca",
  "extraData": "0x476574682f76312e302e312d38326566323666362f6c696e75782f676f312e34",
  "transactions": [
    {
      "hash": "0xb38052d434e3c661111b0998b62cb83af3021bc1948e88063da950935744168e",
      "blockHash": "0x166b703b154a7c956f19d98409051a617474e5b84aa6cd053c5c7ee4d218a708",
      "blockNumber": 74214,
      "transactionIndex": 0,
      "confirmations": null,
      "from": "0xa6BDc31c431B8F97848c9D60cbbe9660dc450eB7",
      "gasPrice": {
        "_hex": "0xe123dbd60"
      },
      "gasLimit": {
        "_hex": "0x5208"
      },
      "to": "0x32Be343B94f860124dC4fEe278FDCBD38C102D88",
      "value": {
        "_hex": "0x455f0f3942095400"
      },
      "nonce": 0,
      "data": "0x",
      "r": "0xfe030a29df840a3b337f472eb799b08327e26a1e5daf1973b4d332a1cb1d099d",
      "s": "0x444a1410ca96abeb536e428a881d40df5dcfe2060a67d8b6ef9dc051a2a25368",
      "v": 27,
      "creates": null,
      "raw": "0xf86c80850e123dbd608252089432be343b94f860124dc4fee278fdcbd38c102d8888455f0f3942095400801ba0fe030a29df840a3b337f472eb799b08327e26a1e5daf1973b4d332a1cb1d099da0444a1410ca96abeb536e428a881d40df5dcfe2060a67d8b6ef9dc051a2a25368",
      "networkId": 0,
      "chainId": 0
    },
    {
      "hash": "0xc5cea807071ad7322cdf68f3ead902a473f8696d8b728e8e75a85217a14045f7",
      "blockHash": "0x166b703b154a7c956f19d98409051a617474e5b84aa6cd053c5c7ee4d218a708",
      "blockNumber": 74214,
      "transactionIndex": 1,
      "confirmations": null,
      "from": "0xbb925D6943D404dCc76cF6245D383fF759150BF8",
      "gasPrice": {
        "_hex": "0xe123dbd60"
      },
      "gasLimit": {
        "_hex": "0x5208"
      },
      "to": "0x32Be343B94f860124dC4fEe278FDCBD38C102D88",
      "value": {
        "_hex": "0x61207ca090d15400"
      },
      "nonce": 0,
      "data": "0x",
      "r": "0x107e24ba4ef755bad1345bbef6e837d92ac14863acdc7a37d0dc4fbff97cd396",
      "s": "0x2d7b958f2acf8cf334ae677918ae15e3e439af5ec904f90c59f9b459c447d3b2",
      "v": 28,
      "creates": null,
      "raw": "0xf86c80850e123dbd608252089432be343b94f860124dc4fee278fdcbd38c102d888861207ca090d15400801ca0107e24ba4ef755bad1345bbef6e837d92ac14863acdc7a37d0dc4fbff97cd396a02d7b958f2acf8cf334ae677918ae15e3e439af5ec904f90c59f9b459c447d3b2",
      "networkId": 0,
      "chainId": 0
    }
  ]
}