{
  "hash": "0xdace8e759332c6b429cca4aa84331ae675b8f2923e49cd1fa44b6e6c634aaccd",
  "parentHash": "0x6992065b478bd7ee38702d42a2c034e8e58f7e3410e0499b54a7f4e5942b91cb",
  "number": 92038,
  "timestamp": 1439665825,
  "nonce": "0xd0b5c57c51e3763e",
  "difficulty": 3470669583460,
  "gasLimit": {
    "_hex": "0x2fefd8"
  },
  "gasUsed": {
    "_hex": "0x1b198"
  },
  "miner": "0x26E3f7C9e444f2Ca9E0BE2aF841bd060cF1CbDDb",
  "extraData": "0x476574682f76312e302e312f6c696e75782f676f312e342e32",
  "transactions": [
    {
      "hash": "0x96f8eef3421b11dc7a6b59f1d86556b8483f5be1399dbdb3725147debffa0ddf",
      "blockHash": "0xdace8e759332c6b429cca4aa84331ae675b8f2923e49cd1fa44b6e6c634aaccd",
      "blockNumber": 92038,
      "transactionIndex": 0,
      "confirmations": null,
      "from": "0x32Be343B94f860124dC4fEe278FDCBD38C102D88",
      "gasPrice": {
        "_hex": "0xd7158db2b"
      },
      "gasLimit": {
        "_hex": "0x5208"
      },
      "to": "0x5A3E83a3Ae7362C204550Aba56dC980A413090f2",
      "value": {
        "_hex": "0x56bc75e2d63100000"
      },
      "nonce": 891,
      "data": "0x",
      "r": "0xb40c69b97458e8b5ff4d6e9f05450e8e0bfb5f1a7bf31aacf07d4c854d5b62c7",
      "s": "0x6705f5708cd0323f7ecd9af721185b4bf1fd07612e8d5828fd35cb384fc0ec6b",
      "v": 28,
      "creates": null,
      "raw": "0xf86f82037b850d7158db2b825208945a3e83a3ae7362c204550aba56dc980a413090f289056bc75e2d63100000801ca0b40c69b97458e8b5ff4d6e9f05450e8e0bfb5f1a7bf31aacf07d4c854d5b62c7a06705f5708cd0323f7ecd9af721185b4bf1fd07612e8d5828fd35cb384fc0ec6b",
      "networkId": 0,
      "chainId": 0
    },
    {
      "hash": "0x0da5bba6e4d8503985aec506c965a5fd3aeeed197ebf268750f65c3d50ad64a4",
      "blockHash": "0xdace8e759332c6b429cca4aa84331ae675b8f2923e49cd1fa44b6e6c634aaccd",
      "blockNumber": 92038,
      "transactionIndex": 1,
      "confirmations": null,
      "from": "0xCdA0AD7542e30BF520652A05056eBe0105c7e49A",
      "gasPrice": {
        "_hex": "0xd141fc642"
      },
      "gasLimit": {
        "_hex": "0x15f90"
      },
      "to": "0xde0B295669a9FD93d5F28D9Ec85E40f4cb697BAe",
      "value": {
        "_hex": "0x0"
      },
      "nonce": 0,
      "data": "0x797af627506218608039ab67bf6ba0fa6fdea7b596d02d1189b72b3d6e2899158bcfff98",
      "r": "0x0d07ff4608585093bc69ca8ef09b87bd88e1b651d83471e00e716c4054418e7f",
      "s": "0x118b07e3ba99ea711bae8f86692d00cb646c0755656180cb80525fce8efa9154",
      "v": 28,
      "creates": null,
      "raw": "0xf88980850d141fc64283015f9094de0b295669a9fd93d5f28d9ec85e40f4cb697bae80a4797af627506218608039ab67bf6ba0fa6fdea7b596d02d1189b72b3d6e2899158bcfff981ca00d07ff4608585093bc69ca8ef09b87bd88e1b651d83471e00e716c4054418e7fa0118b07e3ba99ea711bae8f86692d00cb646c0755656180cb80525fce8efa9154",
      "networkId": 0,
      "chainId": 0
    }
  ]
}