{
  "hash": "0x54762dae5d0fc2d14591176c3b85c205158347db2648ba797c4d0416a6eba959",
  "parentHash": "0x0da3e1439b62adf5a2a995880ebde325c8cdbca8956b902bc7fed4b96ddffdbc",
  "number": 54187,
  "timestamp": 1439050094,
  "nonce": "0x03683641859a00e4",
  "difficulty": 1603204117302,
  "gasLimit": {
    "_hex": "0x2fefd8"
  },
  "gasUsed": {
    "_hex": "0x5208"
  },
  "miner": "0x47ff6576639c2e94762eA5443978D7681C0E78DC",
  "extraData": "0x476574682f76312e302e312f6c696e75782f676f312e342e32",
  "transactions": [
    {
      "hash": "0x6ed8ea255ac88cb724d9029411709f17e3c75923aed98edf12d70f66960fd574",
      "blockHash": "0x54762dae5d0fc2d14591176c3b85c205158347db2648ba797c4d0416a6eba959",
      "blockNumber": 54187,
      "transactionIndex": 0,
      "confirmations": null,
      "from": "0x0f83461Ba224Bb1E8Fdd9dae535172b735acB4e0",
      "gasPrice": {
        "_hex": "0xdbaf2e650"
      },
      "gasLimit": {
        "_hex": "0x15f90"
      },
      "to": "0x4EFfc71B00ADBF237Dca009fF5E8D0DD9E066FEa",
      "value": {
        "_hex": "0x1f161421c8e0000"
      },
      "nonce": 2,
      "data": "0x",
      "r": "0x423664d7bbd9ac318b1ae22e5222196795683fd0eb9b6fa6d40cf3303cef1ae8",
      "s": "0x76be938dda972bab240f2575d869b6ed098bab854f4497a361ae2835306112fa",
      "v": 28,
      "creates": null,
      "raw": "0xf86d02850dbaf2e65083015f90944effc71b00adbf237dca009ff5e8d0dd9e066fea8801f161421c8e0000801ca0423664d7bbd9ac318b1ae22e5222196795683fd0eb9b6fa6d40cf3303cef1ae8a076be938dda972bab240f2575d869b6ed098bab854f4497a361ae2835306112fa",
      "networkId": 0,
      "chainId": 0
    }
  ]
}