{
  "hash": "0x17d7265605ffa5ea383f5768f1156823e00092e137f378f2947c23531a0cdf88",
  "parentHash": "0x1233c568d383468f6283cf0aa06c894459e562f0feba595fbf6f6149a35c3db0",
  "number": 78148,
  "timestamp": 1439449205,
  "nonce": "0x758fd4632b4a5a00",
  "difficulty": 2273222969806,
  "gasLimit": {
    "_hex": "0x2fefd8"
  },
  "gasUsed": {
    "_hex": "0x5208"
  },
  "miner": "0xbb7B8287f3F0a933474a79eAe42CBCa977791171",
  "extraData": "0x476574682f4c5649562f76312e302e312f6c696e75782f676f312e342e32",
  "transactions": [
    {
      "hash": "0xde35896a9e2ba9c850169d4ffb6a34f8cdeea849d6a55fb2316a89f323a881b9",
      "blockHash": "0x17d7265605ffa5ea383f5768f1156823e00092e137f378f2947c23531a0cdf88",
      "blockNumber": 78148,
      "transactionIndex": 0,
      "confirmations": null,
      "from": "0x2910543Af39abA0Cd09dBb2D50200b3E800A63D2",
      "gasPrice": {
        "_hex": "0xd69537ac8"
      },
      "gasLimit": {
        "_hex": "0x5208"
      },
      "to": "0x00a96cBf4B8f63462A88591fACae98742D627855",
      "value": {
        "_hex": "0x6c6a1e529a27d58000"
      },
      "nonce": 341,
      "data": "0x",
      "r": "0x4faee366006da75007b5da3ab31673517e5669ee30427fce425896f3c0d09ae4",
      "s": "0x52bf3e3e5cc37b617ec60f0da4ee9802daa345cf085ea532b72b827934974193",
      "v": 28,
      "creates": null,
      "raw": "0xf86f820155850d69537ac88252089400a96cbf4b8f63462a88591facae98742d627855896c6a1e529a27d58000801ca04faee366006da75007b5da3ab31673517e5669ee30427fce425896f3c0d09ae4a052bf3e3e5cc37b617ec60f0da4ee9802daa345cf085ea532b72b827934974193",
      "networkId": 0,
      "chainId": 0
    }
  ]
}