{
  "hash": "0x42f51ee04bd7ebc423ff5c7a49fafaf23d48a37d1c2e7e7418bf2cd0138424d0",
  "parentHash": "0x862af9c81df68334d0323e3a85e2b4bb926543cf779493cafb19948ca1cb054a",
  "number": 88392,
  "timestamp": 1439607364,
  "nonce": "0x3a99308e87d200a4",
  "difficulty": 3204974213598,
  "gasLimit": {
    "_hex": "0x2fefd8"
  },
  "gasUsed": {
    "_hex": "0x5998"
  },
  "miner": "0xBF26bdEBFe8e9CCe5f9868Ccb198d03F3de44055",
  "extraData": "0x476574682f76312e302e312f6c696e75782f676f312e342e32",
  "transactions": [
    {
      "hash": "0x83c0c3256b3de65d4386795d8875aebd506a3790c90e988aad0c917b28268558",
      "blockHash": "0x42f51ee04bd7ebc423ff5c7a49fafaf23d48a37d1c2e7e7418bf2cd0138424d0",
      "blockNumber": 88392,
      "transactionIndex": 0,
      "confirmations": null,
      "from": "0xf2Ae859397af92154241eAd0aC7c4ce3bea76E8F",
      "gasPrice": {
        "_hex": "0xd829211eb"
      },
      "gasLimit": {
        "_hex": "0x15f90"
      },
      "to": "0xf2Ae859397af92154241eAd0aC7c4ce3bea76E8F",
      "value": {
        "_hex": "0x0"
      },
      "nonce": 21,
      "data": "0x90b98a11000000000000000000000000c2b34a73703b5274e7b7ec06f35895ba696bac3f00000000000000000000000000000000000000000000000000000000000003e8",
      "r": "0x4c47b3a72cdb4a7a0351b118cbbc0842a2868e5559b9c6b850e505990e81904f",
      "s": "0x576e13b17a3dc28ac8dc0df6cb854bef40efb5fe41aa51e26b76f2df92c7b414",
      "v": 28,
      "creates": null,
      "raw": "0xf8aa15850d829211eb83015f9094f2ae859397af92154241ead0ac7c4ce3bea76e8f80b84490b98a11000000000000000000000000c2b34a73703b5274e7b7ec06f35895ba696bac3f00000000000000000000000000000000000000000000000000000000000003e81ca04c47b3a72cdb4a7a0351b118cbbc0842a2868e5559b9c6b850e505990e81904fa0576e13b17a3dc28ac8dc0df6cb854bef40efb5fe41aa51e26b76f2df92c7b414",
      "networkId": 0,
      "chainId": 0
    }
  ]
}