{
  "hash": "0x6aacd38e3ca273b87d5703e3d301825a305fddcb85cbacd5197e841af0870f57",
  "parentHash": "0xfc2378c2fdbb34f7e2e2c8acf3572e03da9133fb4b03f808903a4edab942e776",
  "number": 112770,
  "timestamp": 1440012897,
  "nonce": "0xa7b030046d8e4a9b",
  "difficulty": 4445427818189,
  "gasLimit": {
    "_hex": "0x2fefd8"
  },
  "gasUsed": {
    "_hex": "0xa410"
  },
  "miner": "0x007f7f58D3eb5b7510A301eCC749FC1fCDDBE14D",
  "extraData": "0x476574682f76312e302e312f77696e646f77732f676f312e342e32",
  "transactions": [
    {
      "hash": "0x0e94662074835fd65e71d94802e71a0428814ed456b2810c58c67cab22b503b2",
      "blockHash": "0x6aacd38e3ca273b87d5703e3d301825a305fddcb85cbacd5197e841af0870f57",
      "blockNumber": 112770,
      "transactionIndex": 0,
      "confirmations": null,
      "from": "0x68d3578bFBeEFB9C1e31cE355A29ad3a107F88C5",
      "gasPrice": {
        "_hex": "0xde0791403"
      },
      "gasLimit": {
        "_hex": "0x5208"
      },
      "to": "0x32Be343B94f860124dC4fEe278FDCBD38C102D88",
      "value": {
        "_hex": "0x14b7a2613c12c800"
      },
      "nonce": 8,
      "data": "0x",
      "r": "0x0a4f239022290ffb6359efd7e9794ac66897e719693a4627065537093742ff0b",
      "s": "0x74b33671f047df63e7de6dc1d4b5a39dda6ed27fe1e56e33d8b643bfa5c2ea56",
      "v": 28,
      "creates": null,
      "raw": "0xf86c08850de07914038252089432be343b94f860124dc4fee278fdcbd38c102d888814b7a2613c12c800801ca00a4f239022290ffb6359efd7e9794ac66897e719693a4627065537093742ff0ba074b33671f047df63e7de6dc1d4b5a39dda6ed27fe1e56e33d8b643bfa5c2ea56",
      "networkId": 0,
      "chainId": 0
    },
    {
      "hash": "0x250746b3a42b573c284c3fa62bd4ea084f4ab6961270744ab544d9c422de2f19",
      "blockHash": "0x6aacd38e3ca273b87d5703e3d301825a305fddcb85cbacd5197e841af0870f57",
      "blockNumber": 112770,
      "transactionIndex": 1,
      "confirmations": null,
      "from": "0x629e35e0A481d821293F354E0dD27E43a354D061",
      "gasPrice": {
        "_hex": "0xde0791403"
      },
      "gasLimit": {
        "_hex": "0x5208"
      },
      "to": "0x32Be343B94f860124dC4fEe278FDCBD38C102D88",
      "value": {
        "_hex": "0x565d7bb0f1f94800"
      },
      "nonce": 8,
      "data": "0x",
      "r": "0xec0d7b4a98112048149db0a2153bf8e68cd4fa4bc440320b55a6f85003e46a99",
      "s": "0x23d0e6c0443199cfa440fbe8f686a2267794ea7d4980cc42597e5363a108f9de",
      "v": 28,
      "creates": null,
      "raw": "0xf86c08850de07914038252089432be343b94f860124dc4fee278fdcbd38c102d8888565d7bb0f1f94800801ca0ec0d7b4a98112048149db0a2153bf8e68cd4fa4bc440320b55a6f85003e46a99a023d0e6c0443199cfa440fbe8f686a2267794ea7d4980cc42597e5363a108f9de",
      "networkId": 0,
      "chainId": 0
    }
  ]
}