{
  "hash": "0x0a7b59acb9d2e8e363252fb5fdba67d35cc67cd4bd9b8f5c373a289c40023996",
  "parentHash": "0x062760d7e44534844ca63c8b8d15113b7ab5b64358883d5b1382dbffb4590450",
  "number": 51649,
  "timestamp": 1439008569,
  "nonce": "0x78397ea5e769cba0",
  "difficulty": 1555867570808,
  "gasLimit": {
    "_hex": "0xca98e"
  },
  "gasUsed": {
    "_hex": "0x7f328"
  },
  "miner": "0x0037ce3d4B7f8729C8607D8D0248252Be68202c0",
  "extraData": "0x476574682f76312e302e312f77696e646f77732f676f312e342e32",
  "transactions": [
    {
      "hash": "0xd82cbe9e78fbb9d2a49172d7f39fdc25b1afacc58b02d4b151e3c1a075ce0d47",
      "blockHash": "0x0a7b59acb9d2e8e363252fb5fdba67d35cc67cd4bd9b8f5c373a289c40023996",
      "blockNumber": 51649,
      "transactionIndex": 0,
      "confirmations": null,
      "from": "0xFCf9f6A78f06227522c6f948ec0119dA31680Ef7",
      "gasPrice": {
        "_hex": "0xd91a96397"
      },
      "gasLimit": {
        "_hex": "0x7a120"
      },
      "to": "0x109C4f2CCc82C4d77Bde15F306707320294Aea3F",
      "value": {
        "_hex": "0xde0b6b3a7640000"
      },
      "nonce": 50,
      "data": "0x",
      "r": "0x6ec6dc1a7e6984938daff3106b741c1b79feae8838494ac2da1692c3c8f1f59f",
      "s": "0x205fc0ed3911de10a0d9edf8394a19d537bf0402e9f8c92c69b5d9e016afa765",
      "v": 28,
      "creates": null,
      "raw": "0xf86d32850d91a963978307a12094109c4f2ccc82c4d77bde15f306707320294aea3f880de0b6b3a7640000801ca06ec6dc1a7e6984938daff3106b741c1b79feae8838494ac2da1692c3c8f1f59fa0205fc0ed3911de10a0d9edf8394a19d537bf0402e9f8c92c69b5d9e016afa765",
      "networkId": 0,
      "chainId": 0
    },
    {
      "hash": "0x29983b30ff04c8128758ffa999038e7e0cd30662d9e1bc40d1a6be9e910a4bea",
      "blockHash": "0x0a7b59acb9d2e8e363252fb5fdba67d35cc67cd4bd9b8f5c373a289c40023996",
      "blockNumber": 51649,
      "transactionIndex": 1,
      "confirmations": null,
      "from": "0x5e1a72dde3Ffc20B77eA8382E916EF04C89ff2Bd",
      "gasPrice": {
        "_hex": "0xd1f217cbf"
      },
      "gasLimit": {
        "_hex": "0x15f90"
      },
      "to": "0xdD81AaddCc8448A5fC0ac28DB93ec6801C21E8Ef",
      "value": {
        "_hex": "0x4563918244f40000"
      },
      "nonce": 0,
      "data": "0x",
      "r": "0x36669e808abda29b2958f7160a1f49c5068ef95947a94fd8d39efa6382ee02f3",
      "s": "0x2d04dbcbb34ea275d448194e39e6d4843d78704a77bbfd498ea74a92cedffc69",
      "v": 28,
      "creates": null,
      "raw": "0xf86d80850d1f217cbf83015f9094dd81aaddcc8448a5fc0ac28db93ec6801c21e8ef884563918244f40000801ca036669e808abda29b2958f7160a1f49c5068ef95947a94fd8d39efa6382ee02f3a02d04dbcbb34ea275d448194e39e6d4843d78704a77bbfd498ea74a92cedffc69",
      "networkId": 0,
      "chainId": 0
    }
  ]
}