{
  "hash": "0xdfff48a97a2e2cb92b0e7df739b5e8ba4582ad461dfa5035b335e3c26671ef3b",
  "parentHash": "0x94e8ef03cb8c8eaf9970a48bfb077d6a4bc0c76f5c66d1136c62950b402d291f",
  "number": 52607,
  "timestamp": 1439024243,
  "nonce": "0xe3a0fbd79f2a88e1",
  "difficulty": 1570956605475,
  "gasLimit": {
    "_hex": "0x163f43"
  },
  "gasUsed": {
    "_hex": "0x10ec3a"
  },
  "miner": "0xf927a40C8B7F6E07c5af7FA2155B4864a4112B13",
  "extraData": "0x476574682f76312e302e312f6c696e75782f676f312e342e32",
  "transactions": [
    {
      "hash": "0x6022771700436ccc92b5f26f0970c478943970de42c1823d2d117d173e266cf8",
      "blockHash": "0xdfff48a97a2e2cb92b0e7df739b5e8ba4582ad461dfa5035b335e3c26671ef3b",
      "blockNumber": 52607,
      "transactionIndex": 0,
      "confirmations": null,
      "from": "0x54dAeb3E8a6BBC797E4aD2b0339f134b186e4637",
      "gasPrice": {
        "_hex": "0xe7d27df17"
      },
      "gasLimit": {
        "_hex": "0x7a120"
      },
      "to": "0xBAA54d6E90c3F4d7Ebec11bD180134C7eD8eBb52",
      "value": {
        "_hex": "0x16345785d8a0000"
      },
      "nonce": 793,
      "data": "0x",
      "r": "0x33161f7011ad55d8a75c8d2281b64025e0bfbe6d8fe272b1e59b3f2d2a87dc58",
      "s": "0x26ca1758a251c65cf5aa75f164dc458157db4b92467b973f80a171019130f9a5",
      "v": 27,
      "creates": null,
      "raw": "0xf86f820319850e7d27df178307a12094baa54d6e90c3f4d7ebec11bd180134c7ed8ebb5288016345785d8a0000801ba033161f7011ad55d8a75c8d2281b64025e0bfbe6d8fe272b1e59b3f2d2a87dc58a026ca1758a251c65cf5aa75f164dc458157db4b92467b973f80a171019130f9a5",
      "networkId": 0,
      "chainId": 0
    },
    {
      "hash": "0xfdf9356f6d3589995db6a2c690d2bdd5e419c562683b71161eb4a743f8c2d10d",
      "blockHash": "0xdfff48a97a2e2cb92b0e7df739b5e8ba4582ad461dfa5035b335e3c26671ef3b",
      "blockNumber": 52607,
      "transactionIndex": 1,
      "confirmations": null,
      "from": "0x54dAeb3E8a6BBC797E4aD2b0339f134b186e4637",
      "gasPrice": {
        "_hex": "0xe7d27df17"
      },
      "gasLimit": {
        "_hex": "0x7a120"
      },
      "to": "0xBAA54d6E90c3F4d7Ebec11bD180134C7eD8eBb52",
      "value": {
        "_hex": "0x16345785d8a0000"
      },
      "nonce": 794,
      "data": "0x",
      "r": "0x8d9656c3668def0d47d5c935a0d99cc8e55d5293288e3cce6be4d36a297355e8",
      "s": "0x60a6821b6d9be80b18f973ab4631a04208598e4f598429ce78f1f43f510e57cb",
      "v": 27,
      "creates": null,
      "raw": "0xf86f82031a850e7d27df178307a12094baa54d6e90c3f4d7ebec11bd180134c7ed8ebb5288016345785d8a0000801ba08d9656c3668def0d47d5c935a0d99cc8e55d5293288e3cce6be4d36a297355e8a060a6821b6d9be80b18f973ab4631a04208598e4f598429ce78f1f43f510e57cb",
      "networkId": 0,
      "chainId": 0
    },
    {
      "hash": "0xea7f6fecf9487ab237ddafa848aa7edb0fa63e4c792afb793ffd96e6521db102",
      "blockHash": "0xdfff48a97a2e2cb92b0e7df739b5e8ba4582ad461dfa5035b335e3c26671ef3b",
      "blockNumber": 52607,
      "transactionIndex": 2,
      "confirmations": null,
      "from": "0xAd7F5C601260b460ADAC6A54411Ca6Cf07dC83c3",
      "gasPrice": {
        "_hex": "0xcefa984fd"
      },
      "gasLimit": {
        "_hex": "0x493e0"
      },
      "to": "0x6e38A457C722C6011B2dfa06d49240e797844d66",
      "value": {
        "_hex": "0x0"
      },
      "nonce": 22,
      "data": "0xf3fe12c90000000000000000000000000000000000000000000000000000000000000020000000000000000000000000000000000000000000000000000000000000000c48656c6c6f20776f726c64210000000000000000000000000000000000000000",
      "r": "0xd42fd471eb53b51f242d4774ba166146ada0a064d06a43fcb8f3ff86589603a1",
      "s": "0x5abd1683f3f5b71a7000639df696e29c84d1eb62c08539c9ec5c18107f9d6d6f",
      "v": 27,
      "creates": null,
      "raw": "0xf8ca16850cefa984fd830493e0946e38a457c722c6011b2dfa06d49240e797844d6680b864f3fe12c90000000000000000000000000000000000000000000000000000000000000020000000000000000000000000000000000000000000000000000000000000000c48656c6c6f20776f726c642100000000000000000000000000000000000000001ba0d42fd471eb53b51f242d4774ba166146ada0a064d06a43fcb8f3ff86589603a1a05abd1683f3f5b71a7000639df696e29c84d1eb62c08539c9ec5c18107f9d6d6f",
      "networkId": 0,
      "chainId": 0
    }
  ]
}