{
  "hash": "0x1ced61d5ae26597b91c54c972669e467abfcf855112236c80817cc89c6ca1298",
  "parentHash": "0xd2886123096afada5fdb1cce08883a79bd8e3c1bd1950ba35ee3852d44a13f8c",
  "number": 70913,
  "timestamp": 1439327251,
  "nonce": "0x6015898278685b8c",
  "difficulty": 2161476556310,
  "gasLimit": {
    "_hex": "0x2fefd8"
  },
  "gasUsed": {
    "_hex": "0x5208"
  },
  "miner": "0x9271AB1be3177bF3E3B684a8783698F1B9D600a2",
  "extraData": "0x476574682f76312e302e312f77696e646f77732f676f312e342e32",
  "transactions": [
    {
      "hash": "0x4f47a02301ec2ba22f361df680f94dad1a2de58f5d86c009d783554f17e3cf48",
      "blockHash": "0x1ced61d5ae26597b91c54c972669e467abfcf855112236c80817cc89c6ca1298",
      "blockNumber": 70913,
      "transactionIndex": 0,
      "confirmations": null,
      "from": "0xD0a2D2eA08cDb43A8970fbBe131cbc13AdeB993d",
      "gasPrice": {
        "_hex": "0x746a528800"
      },
      "gasLimit": {
        "_hex": "0x5208"
      },
      "to": "0x0F03C4045F3ca4163A53836b213d3A23fCacb592",
      "value": {
        "_hex": "0x1be4f459be890000"
      },
      "nonce": 3,
      "data": "0x",
      "r": "0x5ac919e6c0ad929614107d898886adcbb66a8936acefe68248d0a3b38df3b900",
      "s": "0x0fab5708f468c9f203183507dd47e4cc6cc53b0a77f5c8e9603346fa260927eb",
      "v": 28,
      "creates": null,
      "raw": "0xf86c0385746a528800825208940f03c4045f3ca4163a53836b213d3a23fcacb592881be4f459be890000801ca05ac919e6c0ad929614107d898886adcbb66a8936acefe68248d0a3b38df3b900a00fab5708f468c9f203183507dd47e4cc6cc53b0a77f5c8e9603346fa260927eb",
      "networkId": 0,
      "chainId": 0
    }
  ]
}