{
  "hash": "0x84d3a8573bf6935f803690303e1a3c6c3e194a508823a61b0bbf0fe4be7fe5fa",
  "parentHash": "0x9a001645e2e0b7080ffba85acfac3f1d97f301a8052c3630ca9c466eec9dcd3f",
  "number": 115787,
  "timestamp": 1440063326,
  "nonce": "0x3b9e609f7bfffcd3",
  "difficulty": 4560331714221,
  "gasLimit": {
    "_hex": "0x2fefd8"
  },
  "gasUsed": {
    "_hex": "0x20fc6"
  },
  "miner": "0xbb7B8287f3F0a933474a79eAe42CBCa977791171",
  "extraData": "0xd783010001844765746887676f312e342e32856c696e7578",
  "transactions": [
    {
      "hash": "0x161a6ae3ff7a9877efe9b4aac2bf035b0e7ac0a13a9d63afac04721e9bd197a7",
      "blockHash": "0x84d3a8573bf6935f803690303e1a3c6c3e194a508823a61b0bbf0fe4be7fe5fa",
      "blockNumber": 115787,
      "transactionIndex": 0,
      "confirmations": null,
      "from": "0xddD31eb39D56D51B50172884Bd2b88e1f6264F95",
      "gasPrice": {
        "_hex": "0xd651435ca"
      },
      "gasLimit": {
        "_hex": "0x249f0"
      },
      "to": "0xE28e72FCf78647ADCe1F1252F240bbfaebD63BcC",
      "value": {
        "_hex": "0xd99a8cec7e20000"
      },
      "nonce": 0,
      "data": "0x45466f3a",
      "r": "0xfade756000e6f8186f9d94fc121667a1450dd50bcf86e84e0603a3d10503cfba",
      "s": "0x7ad175a75d2360c9e15e36288c849aaaa03ffbfbbd99453f85e05b96d9210947",
      "v": 28,
      "creates": null,
      "raw": "0xf87180850d651435ca830249f094e28e72fcf78647adce1f1252f240bbfaebd63bcc880d99a8cec7e200008445466f3a1ca0fade756000e6f8186f9d94fc121667a1450dd50bcf86e84e0603a3d10503cfbaa07ad175a75d2360c9e15e36288c849aaaa03ffbfbbd99453f85e05b96d9210947",
      "networkId": 0,
      "chainId": 0
    },
    {
      "hash": "0x4dfd21871b19fb6f4e663d357c8edd765b8310ad793f3e158c25a8419ea7adca",
      "blockHash": "0x84d3a8573bf6935f803690303e1a3c6c3e194a508823a61b0bbf0fe4be7fe5fa",
      "blockNumber": 115787,
      "transactionIndex": 1,
      "confirmations": null,
      "from": "0x19939AD9F09d103B670c9EE56cA41d5764380f8A",
      "gasPrice": {
        "_hex": "0xba43b7400"
      },
      "gasLimit": {
        "_hex": "0x5208"
      },
      "to": "0xC47Aaa860008be6f65B58c6C6E02a84e666EfE31",
      "value": {
        "_hex": "0x1b7dbf878bcf38f0"
      },
      "nonce": 7,
      "data": "0x",
      "r": "0xac031a7d6973ae99a76bdb94bb81449b72f85307f78195da652b5d0aa47e4529",
      "s": "0x6696167eb2629097b6387fbcc8a9d61b6de198461c0af41ea43fdf9aa7b09c32",
      "v": 27,
      "creates": null,
      "raw": "0xf86c07850ba43b740082520894c47aaa860008be6f65b58c6c6e02a84e666efe31881b7dbf878bcf38f0801ba0ac031a7d6973ae99a76bdb94bb81449b72f85307f78195da652b5d0aa47e4529a06696167eb2629097b6387fbcc8a9d61b6de198461c0af41ea43fdf9aa7b09c32",
      "networkId": 0,
      "chainId": 0
    }
  ]
}