{
  "hash": "0x8a168fe58fe4f4f07e02fe7d48fb2d42d065c5be9b1893627629e6ce24d646b3",
  "parentHash": "0x6d28a9f70a2762a7d8b7742ef23ce386b15df18ecb37d8b1db22669ff2b2e6f8",
  "number": 74427,
  "timestamp": 1439385861,
  "nonce": "0xf2cd5a4c1455250a",
  "difficulty": 2213968799829,
  "gasLimit": {
    "_hex": "0x2fefd8"
  },
  "gasUsed": {
    "_hex": "0x5208"
  },
  "miner": "0xe6A7a1d47ff21B6321162AEA7C6CB457D5476Bca",
  "extraData": "0x476574682f76312e302e312d38326566323666362f6c696e75782f676f312e34",
  "transactions": [
    {
      "hash": "0xd0da0357e86d73101020415036d3cc59f8ff8ba225a5e3ffc381ac2b0a72f8c5",
      "blockHash": "0x8a168fe58fe4f4f07e02fe7d48fb2d42d065c5be9b1893627629e6ce24d646b3",
      "blockNumber": 74427,
      "transactionIndex": 0,
      "confirmations": null,
      "from": "0xe8a09f2DdC6D33E1dCE008B1810B5D317Cd7891e",
      "gasPrice": {
        "_hex": "0xdf5185486"
      },
      "gasLimit": {
        "_hex": "0x15f90"
      },
      "to": "0x86d3856ad0105B9d4199936c1fd203664BA325dC",
      "value": {
        "_hex": "0x21b9182014330000"
      },
      "nonce": 2,
      "data": "0x",
      "r": "0xabe1d3d22f2865a25bf6f4ce3c3c653a86139c92edd438a60e72b118dfc3445d",
      "s": "0x1e624d0425384942a29c1e88e92c01f3dcb285afdb1b3f4ccc1733c3405767d2",
      "v": 28,
      "creates": null,
      "raw": "0xf86d02850df518548683015f909486d3856ad0105b9d4199936c1fd203664ba325dc8821b9182014330000801ca0abe1d3d22f2865a25bf6f4ce3c3c653a86139c92edd438a60e72b118dfc3445da01e624d0425384942a29c1e88e92c01f3dcb285afdb1b3f4ccc1733c3405767d2",
      "networkId": 0,
      "chainId": 0
    }
  ]
}