{
  "hash": "0x3dcb4849e5e1b3cfd0d7c35e314c3352608af233c41cf1f3927406f914dd3461",
  "parentHash": "0x722a21b44eac1bcdbf4d7a483b142bc38da882f872408ad50b873a3a21cde96e",
  "number": 115123,
  "timestamp": 1440051729,
  "nonce": "0x030e571361cf6811",
  "difficulty": 4542912244259,
  "gasLimit": {
    "_hex": "0x2fefd8"
  },
  "gasUsed": {
    "_hex": "0x5208"
  },
  "miner": "0x9D49F602b0fdb924Bd63DDE2Bd0907E4A07c63a7",
  "extraData": "0x476574682f76312e302e312f6c696e75782f676f312e342e32",
  "transactions": [
    {
      "hash": "0xced17e02d5cdbfd1934e7c6e28b334f7931281e79e46943a6682b337ba709d0e",
      "blockHash": "0x3dcb4849e5e1b3cfd0d7c35e314c3352608af233c41cf1f3927406f914dd3461",
      "blockNumber": 115123,
      "transactionIndex": 0,
      "confirmations": null,
      "from": "0x3f07B008B04EE61858d0ec3f88239941889e1A79",
      "gasPrice": {
        "_hex": "0xe025308c5"
      },
      "gasLimit": {
        "_hex": "0x15f90"
      },
      "to": "0x0Ab4e6aDb862b5F5E711E079d93B247b62aFB62A",
      "value": {
        "_hex": "0x3ef53c534600"
      },
      "nonce": 2,
      "data": "0x",
      "r": "0x5f3fa48e04c51448009b109f94221304e08aecf3a685971a5d3f3c8026ff8880",
      "s": "0x545d2196bc7cdbaa6f175375bf2980965f4f0d2738b8abad7c67cc252a463f04",
      "v": 27,
      "creates": null,
      "raw": "0xf86b02850e025308c583015f90940ab4e6adb862b5f5e711e079d93b247b62afb62a863ef53c534600801ba05f3fa48e04c51448009b109f94221304e08aecf3a685971a5d3f3c8026ff8880a0545d2196bc7cdbaa6f175375bf2980965f4f0d2738b8abad7c67cc252a463f04",
      "networkId": 0,
      "chainId": 0
    }
  ]
}