{
  "hash": "0xc710a940658a9677ec71ab2ab49155dbffd852ab7bf08bad070206bcc77d743a",
  "parentHash": "0xebee153bcf643136b6aa878569f0571ddc2dcf3c98cc7f29b9e271cf257ca8d4",
  "number": 108360,
  "timestamp": 1439938959,
  "nonce": "0x422221a0d9357018",
  "difficulty": 4344733068133,
  "gasLimit": {
    "_hex": "0x2fefd8"
  },
  "gasUsed": {
    "_hex": "0x23e38"
  },
  "miner": "0x2C674A948592B20a4B775E1a3991Db043E6CF0FE",
  "extraData": "0x476574682f76312e302e312d38326566323666362f6c696e75782f676f312e34",
  "transactions": [
    {
      "hash": "0xae867dd739a351fb40ab4282b2909cf0d1d8e679738afe36fb46804b923aff69",
      "blockHash": "0xc710a940658a9677ec71ab2ab49155dbffd852ab7bf08bad070206bcc77d743a",
      "blockNumber": 108360,
      "transactionIndex": 0,
      "confirmations": null,
      "from": "0xFBb1b73C4f0BDa4f67dcA266ce6Ef42f520fBB98",
      "gasPrice": {
        "_hex": "0xe28561c9f"
      },
      "gasLimit": {
        "_hex": "0x5208"
      },
      "to": "0x2b199fd1783532c6688a8Cd7AAbddc27034d110a",
      "value": {
        "_hex": "0x3db67f412e38800"
      },
      "nonce": 183,
      "data": "0x",
      "r": "0x262a849b7fe894fb5f13db992396729124764960b58f7ebcb4dc68e27028df44",
      "s": "0x5fca662f623332f8eba9994212b8f14bb2f8c40668b84237351c1bbadc09472d",
      "v": 28,
      "creates": null,
      "raw": "0xf86d81b7850e28561c9f825208942b199fd1783532c6688a8cd7aabddc27034d110a8803db67f412e38800801ca0262a849b7fe894fb5f13db992396729124764960b58f7ebcb4dc68e27028df44a05fca662f623332f8eba9994212b8f14bb2f8c40668b84237351c1bbadc09472d",
      "networkId": 0,
      "chainId": 0
    },
    {
      "hash": "0xaf9127986b170015b89c0540d59540fa9c9a7c9ca66529e58e65967cd737c627",
      "blockHash": "0xc710a940658a9677ec71ab2ab49155dbffd852ab7bf08bad070206bcc77d743a",
      "blockNumber": 108360,
      "transactionIndex": 1,
      "confirmations": null,
      "from": "0xFBb1b73C4f0BDa4f67dcA266ce6Ef42f520fBB98",
      "gasPrice": {
        "_hex": "0xe28561c9f"
      },
      "gasLimit": {
        "_hex": "0x5208"
      },
      "to": "0x6c98db776a9D494264EE160eF60d52b4474c7845",
      "value": {
        "_hex": "0xb633de72049a800"
      },
      "nonce": 184,
      "data": "0x",
      "r": "0xc35c8f54bcc6f722c149ed88fe729aff5bd93d9c7fa57fabcedb39d8b75c2fa1",
      "s": "0x439daf3fc826b2fe08c686acebf10ac2daf983e7a2a396093ba629411c3d5a8d",
      "v": 28,
      "creates": null,
      "raw": "0xf86d81b8850e28561c9f825208946c98db776a9d494264ee160ef60d52b4474c7845880b633de72049a800801ca0c35c8f54bcc6f722c149ed88fe729aff5bd93d9c7fa57fabcedb39d8b75c2fa1a0439daf3fc826b2fe08c686acebf10ac2daf983e7a2a396093ba629411c3d5a8d",
      "networkId": 0,
      "chainId": 0
    },
    {
      "hash": "0x2a8034ffe0b93a23f461c614b8a8d80967c3329901c8ded8aa61f7aae8afd7b5",
      "blockHash": "0xc710a940658a9677ec71ab2ab49155dbffd852ab7bf08bad070206bcc77d743a",
      "blockNumber": 108360,
      "transactionIndex": 2,
      "confirmations": null,
      "from": "0xFBb1b73C4f0BDa4f67dcA266ce6Ef42f520fBB98",
      "gasPrice": {
        "_hex": "0xe28561c9f"
      },
      "gasLimit": {
        "_hex": "0x5208"
      },
      "to": "0x1c5882903Db400D54A042Ff314258D9080d1C158",
      "value": {
        "_hex": "0x1802344ed20f400"
      },
      "nonce": 185,
      "data": "0x",
      "r": "0x390c2d1a1a1837c08a1d7c560d5805970901b7c53437b123c7febb5376a19e87",
      "s": "0x5f0dee2f89fba0a8770219446d4760f172cff7ae98b91d21de1cc51e0226abe7",
      "v": 28,
      "creates": null,
      "raw": "0xf86d81b9850e28561c9f825208941c5882903db400d54a042ff314258d9080d1c1588801802344ed20f400801ca0390c2d1a1a1837c08a1d7c560d5805970901b7c53437b123c7febb5376a19e87a05f0dee2f89fba0a8770219446d4760f172cff7ae98b91d21de1cc51e0226abe7",
      "networkId": 0,
      "chainId": 0
    },
    {
      "hash": "0xb347fa7607e5283a4b05e38a38caf4ab5c2df23d0ca51b28b753d652c98f141b",
      "blockHash": "0xc710a940658a9677ec71ab2ab49155dbffd852ab7bf08bad070206bcc77d743a",
      "blockNumber": 108360,
      "transactionIndex": 3,
      "confirmations": null,
      "from": "0xf2711F78854D3b5CE29fA3c550a9328D7df40706",
      "gasPrice": {
        "_hex": "0xe28561c9f"
      },
      "gasLimit": {
        "_hex": "0x5208"
      },
      "to": "0xFBb1b73C4f0BDa4f67dcA266ce6Ef42f520fBB98",
      "value": {
        "_hex": "0xddc8849e0026d08"
      },
      "nonce": 0,
      "data": "0x",
      "r": "0x48ec4efb0e779b53ce56e363d4f4a61cbc81650d26d8e14e5a4a6296f3c8946a",
      "s": "0x29d86e6ec61d3c1bef41c302761c20a0978b80f74e931c7bb2561cdc5ea8a14f",
      "v": 27,
      "creates": null,
      "raw": "0xf86c80850e28561c9f82520894fbb1b73c4f0bda4f67dca266ce6ef42f520fbb98880ddc8849e0026d08801ba048ec4efb0e779b53ce56e363d4f4a61cbc81650d26d8e14e5a4a6296f3c8946aa029d86e6ec61d3c1bef41c302761c20a0978b80f74e931c7bb2561cdc5ea8a14f",
      "networkId": 0,
      "chainId": 0
    },
    {
      "hash": "0xccf359c0f57d70eac6bca4465559f87a9627bcd077571e023a6e7bff573197f7",
      "blockHash": "0xc710a940658a9677ec71ab2ab49155dbffd852ab7bf08bad070206bcc77d743a",
      "blockNumber": 108360,
      "transactionIndex": 4,
      "confirmations": null,
      "from": "0xeeb66aFe554366d685C7832C6c93727Ba577378D",
      "gasPrice": {
        "_hex": "0xe28561c9f"
      },
      "gasLimit": {
        "_hex": "0x5208"
      },
      "to": "0xFBb1b73C4f0BDa4f67dcA266ce6Ef42f520fBB98",
      "value": {
        "_hex": "0xcf311e18de3c508"
      },
      "nonce": 0,
      "data": "0x",
      "r": "0x5558cc25810024e37bc28b83169d9710b4b8254771132bbe4e6af7edd0f33cf5",
      "s": "0x0062fe4ce79fe94ad75622aae7327000a47a92ee1699473fac44ed7bf0ffb781",
      "v": 27,
      "creates": null,
      "raw": "0xf86b80850e28561c9f82520894fbb1b73c4f0bda4f67dca266ce6ef42f520fbb98880cf311e18de3c508801ba05558cc25810024e37bc28b83169d9710b4b8254771132bbe4e6af7edd0f33cf59f62fe4ce79fe94ad75622aae7327000a47a92ee1699473fac44ed7bf0ffb781",
      "networkId": 0,
      "chainId": 0
    },
    {
      "hash": "0x58975a6f443bd4fab074fc89f787786041153a8201c19521387c2264dc182f81",
      "blockHash": "0xc710a940658a9677ec71ab2ab49155dbffd852ab7bf08bad070206bcc77d743a",
      "blockNumber": 108360,
      "transactionIndex": 5,
      "confirmations": null,
      "from": "0xFBb1b73C4f0BDa4f67dcA266ce6Ef42f520fBB98",
      "gasPrice": {
        "_hex": "0xe28561c9f"
      },
      "gasLimit": {
        "_hex": "0x5208"
      },
      "to": "0x9258E9B67440f712B7ae120CB8233baDCB1845ea",
      "value": {
        "_hex": "0x561045143630c00"
      },
      "nonce": 186,
      "data": "0x",
      "r": "0x0f707ce5938f75a57271a2e5ed109915a37ee0f9644e83ad34d29e28c866c14e",
      "s": "0x14562906df6881bba6e16f1c4cba1ab3be9532107dd1e3d3e4841d87267725f8",
      "v": 27,
      "creates": null,
      "raw": "0xf86d81ba850e28561c9f825208949258e9b67440f712b7ae120cb8233badcb1845ea880561045143630c00801ba00f707ce5938f75a57271a2e5ed109915a37ee0f9644e83ad34d29e28c866c14ea014562906df6881bba6e16f1c4cba1ab3be9532107dd1e3d3e4841d87267725f8",
      "networkId": 0,
      "chainId": 0
    },
    {
      "hash": "0x89909b078d83aa8b1229493fd15b0dd335439065ce9b76b2a4d2fed9f6f23faf",
      "blockHash": "0xc710a940658a9677ec71ab2ab49155dbffd852ab7bf08bad070206bcc77d743a",
      "blockNumber": 108360,
      "transactionIndex": 6,
      "confirmations": null,
      "from": "0xFBb1b73C4f0BDa4f67dcA266ce6Ef42f520fBB98",
      "gasPrice": {
        "_hex": "0xe28561c9f"
      },
      "gasLimit": {
        "_hex": "0x5208"
      },
      "to": "0x60a175bB691fEE8557a7b6D8eFC9E49889486f41",
      "value": {
        "_hex": "0xef9424060b8ac00"
      },
      "nonce": 187,
      "data": "0x",
      "r": "0x491ed35c4185da68aecdf220e87e91afd30ea6fe402a02be5bdc2e36cf6b8bb9",
      "s": "0x0d54e85bacec1c11f31043807c3a964fc27b2d2073b200921664c6d9ba327531",
      "v": 27,
      "creates": null,
      "raw": "0xf86d81bb850e28561c9f8252089460a175bb691fee8557a7b6d8efc9e49889486f41880ef9424060b8ac00801ba0491ed35c4185da68aecdf220e87e91afd30ea6fe402a02be5bdc2e36cf6b8bb9a00d54e85bacec1c11f31043807c3a964fc27b2d2073b200921664c6d9ba327531",
      "networkId": 0,
      "chainId": 0
    }
  ]
}