{
  "hash": "0xe045184c4be235ac3128440cec84e342efa9930bade733ce3b640ce480013043",
  "parentHash": "0x527d9178d236999422fe33fef388ac46cf5b60da26f32d9fce3445f6048533f6",
  "number": 87658,
  "timestamp": 1439595526,
  "nonce": "0x46782262c7a91565",
  "difficulty": 3158644897219,
  "gasLimit": {
    "_hex": "0x2fefd8"
  },
  "gasUsed": {
    "_hex": "0x5208"
  },
  "miner": "0xeB1325C8D9d3ea8D74aC11F4B00F1B2367686319",
  "extraData": "0x476574682f76312e302e312f77696e646f77732f676f312e342e32",
  "transactions": [
    {
      "hash": "0x1440cd34388672fe0f9a6c70806811d0790785a65bbb693bf77bbdeddd997d0b",
      "blockHash": "0xe045184c4be235ac3128440cec84e342efa9930bade733ce3b640ce480013043",
      "blockNumber": 87658,
      "transactionIndex": 0,
      "confirmations": null,
      "from": "0x905E2fAa5B7B11D51B9BDB9F089E5290201B76F2",
      "gasPrice": {
        "_hex": "0xd8750eab2"
      },
      "gasLimit": {
        "_hex": "0x30d40"
      },
      "to": "0x120A270bbC009644e35F0bB6ab13f95b8199c4ad",
      "value": {
        "_hex": "0x6c7122623764980"
      },
      "nonce": 0,
      "data": "0x",
      "r": "0x146526d3315c88ec8b26f426e1e06e3f8510ef601f1c602eb2243343ff9ef355",
      "s": "0x54a29b2ee9f72446c69ea1dd39581e3c13bcfef43d4d0b698e5cd8dcd5f9e141",
      "v": 28,
      "creates": null,
      "raw": "0xf86d80850d8750eab283030d4094120a270bbc009644e35f0bb6ab13f95b8199c4ad8806c7122623764980801ca0146526d3315c88ec8b26f426e1e06e3f8510ef601f1c602eb2243343ff9ef355a054a29b2ee9f72446c69ea1dd39581e3c13bcfef43d4d0b698e5cd8dcd5f9e141",
      "networkId": 0,
      "chainId": 0
    }
  ]
}