{
  "hash": "0x20996f94b08cbde980c13a90a322a368a69952cc74b3a37094f34c17cbee522e",
  "parentHash": "0x624312265c4e71187ec3a116a7d90438275bd8d8a1f00dce66bf20b45891c12b",
  "number": 84906,
  "timestamp": 1439556053,
  "nonce": "0x97e7e8b89a9cf4bd",
  "difficulty": 2681586659988,
  "gasLimit": {
    "_hex": "0x2fefd8"
  },
  "gasUsed": {
    "_hex": "0x5208"
  },
  "miner": "0x87898CE53471043FcCa0a2aF4E1dC6d8B3fCf607",
  "extraData": "0x476574682f5369626572696131392f76312e302e312d37666266393930632f6c",
  "transactions": [
    {
      "hash": "0x5a09ade63b46270090f4f378a6c1fb94a430211948acbdf70dbde66bcc39bf44",
      "blockHash": "0x20996f94b08cbde980c13a90a322a368a69952cc74b3a37094f34c17cbee522e",
      "blockNumber": 84906,
      "transactionIndex": 0,
      "confirmations": null,
      "from": "0x249502491a53b217181420Cc4A6dE23a720636CA",
      "gasPrice": {
        "_hex": "0xcec4508f4"
      },
      "gasLimit": {
        "_hex": "0x5208"
      },
      "to": "0x32Be343B94f860124dC4fEe278FDCBD38C102D88",
      "value": {
        "_hex": "0x3635c575237bd80000"
      },
      "nonce": 6,
      "data": "0x",
      "r": "0x1e557cbd5a545596bed80c62745a03a1a46235be0dbb59dd19a9709f74409302",
      "s": "0x7da9c9d459bf359edc5ffa10f401c9cb074ca99141241d9c4968f3b309c97e3c",
      "v": 27,
      "creates": null,
      "raw": "0xf86d06850cec4508f48252089432be343b94f860124dc4fee278fdcbd38c102d88893635c575237bd80000801ba01e557cbd5a545596bed80c62745a03a1a46235be0dbb59dd19a9709f74409302a07da9c9d459bf359edc5ffa10f401c9cb074ca99141241d9c4968f3b309c97e3c",
      "networkId": 0,
      "chainId": 0
    }
  ]
}