{
  "hash": "0x25de2649c690e24c4ff345482dddeee533c44985c353fea5030a895da3b5f40b",
  "parentHash": "0xe03bdad3580c74c52731cebd9ab4c94b446c3d9354885b463f6b20b456b736ea",
  "number": 54538,
  "timestamp": 1439055694,
  "nonce": "0x763927bf33ba7438",
  "difficulty": 1621242494610,
  "gasLimit": {
    "_hex": "0x2fefd8"
  },
  "gasUsed": {
    "_hex": "0x5208"
  },
  "miner": "0xf927a40C8B7F6E07c5af7FA2155B4864a4112B13",
  "extraData": "0x",
  "transactions": [
    {
      "hash": "0x7178224f393f3ad69ce7e8e80c96b6ee6d5e273829b37ad4e080fea5bea8e9f4",
      "blockHash": "0x25de2649c690e24c4ff345482dddeee533c44985c353fea5030a895da3b5f40b",
      "blockNumber": 54538,
      "transactionIndex": 0,
      "confirmations": null,
      "from": "0x1C257ad4A55105ea3B58Ed374b198dA266c85f63",
      "gasPrice": {
        "_hex": "0x10bb22b2928"
      },
      "gasLimit": {
        "_hex": "0x5208"
      },
      "to": "0x439632734cdF5a84774156c1938CbeDe2eF398F0",
      "value": {
        "_hex": "0xc328093e61ee40000"
      },
      "nonce": 9,
      "data": "0x",
      "r": "0xbe29bc44abe345989d43e8743e504819f9eb3431c7ddf6337043ec1cb2c2bb17",
      "s": "0x208fce6bb553ac14344d84f2b018dceeffe725372a3edbc92cae2ed5db9b6350",
      "v": 28,
      "creates": null,
      "raw": "0xf86e0986010bb22b292882520894439632734cdf5a84774156c1938cbede2ef398f0890c328093e61ee40000801ca0be29bc44abe345989d43e8743e504819f9eb3431c7ddf6337043ec1cb2c2bb17a0208fce6bb553ac14344d84f2b018dceeffe725372a3edbc92cae2ed5db9b6350",
      "networkId": 0,
      "chainId": 0
    }
  ]
}