{
  "hash": "0x73136c456fe0365ec3bc9d6fb451bb904eb93df71234dc836c30fbff6ee647bc",
  "parentHash": "0x2b73a717803dcdae32d485787cacdc7f121d28775dbd919c7d473af4fe8ac114",
  "number": 112073,
  "timestamp": 1440001358,
  "nonce": "0xc81bfd873b0677a6",
  "difficulty": 4391857103579,
  "gasLimit": {
    "_hex": "0x2fefd8"
  },
  "gasUsed": {
    "_hex": "0x261ce"
  },
  "miner": "0xe6A7a1d47ff21B6321162AEA7C6CB457D5476Bca",
  "extraData": "0x476574682f76312e302e312d38326566323666362f6c696e75782f676f312e34",
  "transactions": [
    {
      "hash": "0xc08883a40c31aea80a7f0ca6e0e801ce5d0c5d46ff5ecc2900e1fe21119c23e4",
      "blockHash": "0x73136c456fe0365ec3bc9d6fb451bb904eb93df71234dc836c30fbff6ee647bc",
      "blockNumber": 112073,
      "transactionIndex": 0,
      "confirmations": null,
      "from": "0xD0944Aa185A1337061AE20dC9dD96c83b2bA4602",
      "gasPrice": {
        "_hex": "0x108c85ef086"
      },
      "gasLimit": {
        "_hex": "0x249f0"
      },
      "to": "0xE28e72FCf78647ADCe1F1252F240bbfaebD63BcC",
      "value": {
        "_hex": "0x1158e460913d00000"
      },
      "nonce": 2,
      "data": "0x45466f3a",
      "r": "0x2b8d50ed3ae3d6cacf63bbb5def3bb5811196551ebdd364ec27b0c28a617f1b3",
      "s": "0x15567ee74b9ffdbc0eb1556dd0510aa2618e951c554ebeaf461723afb26e04da",
      "v": 27,
      "creates": null,
      "raw": "0xf87302860108c85ef086830249f094e28e72fcf78647adce1f1252f240bbfaebd63bcc8901158e460913d000008445466f3a1ba02b8d50ed3ae3d6cacf63bbb5def3bb5811196551ebdd364ec27b0c28a617f1b3a015567ee74b9ffdbc0eb1556dd0510aa2618e951c554ebeaf461723afb26e04da",
      "networkId": 0,
      "chainId": 0
    },
    {
      "hash": "0x1051ac3d521561f6295be99d318288a3dd5272b6b3140900d2a8eebeb51a54bd",
      "blockHash": "0x73136c456fe0365ec3bc9d6fb451bb904eb93df71234dc836c30fbff6ee647bc",
      "blockNumber": 112073,
      "transactionIndex": 1,
      "confirmations": null,
      "from": "0x8c1B019b926ce92d867317f1460D477729E466F1",
      "gasPrice": {
        "_hex": "0x746a528800"
      },
      "gasLimit": {
        "_hex": "0x5b04"
      },
      "to": "0xF161498A7f225A91C338015ca11833B3399393A8",
      "value": {
        "_hex": "0xde0b6b3a7640000"
      },
      "nonce": 0,
      "data": "0x",
      "r": "0xcab89695f7bb247596378cf2fa4a7e83d1f03ff88beeffebab10f584e51e9f7d",
      "s": "0x712e3e0f233126a06a7312814ed3fffd1137718d7464d5f68322b6b18add4bdd",
      "v": 27,
      "creates": null,
      "raw": "0xf86c8085746a528800825b0494f161498a7f225a91c338015ca11833b3399393a8880de0b6b3a7640000801ba0cab89695f7bb247596378cf2fa4a7e83d1f03ff88beeffebab10f584e51e9f7da0712e3e0f233126a06a7312814ed3fffd1137718d7464d5f68322b6b18add4bdd",
      "networkId": 0,
      "chainId": 0
    },
    {
      "hash": "0xfcb00b0abf9584f471eb1318d30457baa50e6d2372e821dab79152a6991e103b",
      "blockHash": "0x73136c456fe0365ec3bc9d6fb451bb904eb93df71234dc836c30fbff6ee647bc",
      "blockNumber": 112073,
      "transactionIndex": 2,
      "confirmations": null,
      "from": "0x7e8504a5e26df87f6D26fA1ba148BE146F42775A",
      "gasPrice": {
        "_hex": "0xcdd44bd02"
      },
      "gasLimit": {
        "_hex": "0x15f90"
      },
      "to": "0x9f78552704fe7e52cC7C3853534aA2C3cf580D54",
      "value": {
        "_hex": "0x2a802f8630a240000"
      },
      "nonce": 9,
      "data": "0x",
      "r": "0x01c560222db9e6a9b7a6dd76e9b7d60e823cbc6c9ad0df3ea290ef7a1d32da4d",
      "s": "0x2e58bafeb9f59523b2ce19cb6eaa37ee7adf0d82c06472f4c064160ed1a7afda",
      "v": 27,
      "creates": null,
      "raw": "0xf86e09850cdd44bd0283015f90949f78552704fe7e52cc7c3853534aa2c3cf580d548902a802f8630a240000801ba001c560222db9e6a9b7a6dd76e9b7d60e823cbc6c9ad0df3ea290ef7a1d32da4da02e58bafeb9f59523b2ce19cb6eaa37ee7adf0d82c06472f4c064160ed1a7afda",
      "networkId": 0,
      "chainId": 0
    }
  ]
}