{
  "hash": "0xbf3a38a578abc6e4c011a80651a6b5da5911513070487dfbd9f4af9ed1e09ebf",
  "parentHash": "0xe22cdf907d71e2f4bec18fcbf2586f7353d091e96e21688a5b6cfa96319fc619",
  "number": 119956,
  "timestamp": 1440151370,
  "nonce": "0xdb23dce57b196b65",
  "difficulty": 4428627805444,
  "gasLimit": {
    "_hex": "0x2fefd8"
  },
  "gasUsed": {
    "_hex": "0x5208"
  },
  "miner": "0xa70a9a7040d542C632D8e0bE7c5513A8a5Bbc752",
  "extraData": "0x",
  "transactions": [
    {
      "hash": "0x56d12263c5ec5e9446a5552c149697d294a2aababae05fc7061cb92e98c034ab",
      "blockHash": "0xbf3a38a578abc6e4c011a80651a6b5da5911513070487dfbd9f4af9ed1e09ebf",
      "blockNumber": 119956,
      "transactionIndex": 0,
      "confirmations": null,
      "from": "0x4D67f4F0Db45b3B5a3424B39ed8d972F710381D5",
      "gasPrice": {
        "_hex": "0xba43b7400"
      },
      "gasLimit": {
        "_hex": "0x5208"
      },
      "to": "0x32Be343B94f860124dC4fEe278FDCBD38C102D88",
      "value": {
        "_hex": "0x2ebff8974c48a6000"
      },
      "nonce": 57,
      "data": "0x",
      "r": "0x19fd3343ff4cecaca69f883d4ee5d73c207198377972ca947ec03d2aefd68a41",
      "s": "0x71fe001f1bcc726195dfa44f40a8c5649cfe567b9498bb0e04b20cfa77feb40d",
      "v": 27,
      "creates": null,
      "raw": "0xf86d39850ba43b74008252089432be343b94f860124dc4fee278fdcbd38c102d888902ebff8974c48a6000801ba019fd3343ff4cecaca69f883d4ee5d73c207198377972ca947ec03d2aefd68a41a071fe001f1bcc726195dfa44f40a8c5649cfe567b9498bb0e04b20cfa77feb40d",
      "networkId": 0,
      "chainId": 0
    }
  ]
}