{
  "hash": "0xb29621b11608822d058ce398254dced947f90c802c76ba03d9fc839c3c232e73",
  "parentHash": "0x42d93a62a4418ac9aa9efdf511604c592ae9d978dfa2880950a63244d7dfcb81",
  "number": 61412,
  "timestamp": 1439172101,
  "nonce": "0xdc4dc03361f383f6",
  "difficulty": 1732830502860,
  "gasLimit": {
    "_hex": "0x2fefd8"
  },
  "gasUsed": {
    "_hex": "0xace0"
  },
  "miner": "0x580992B51e3925e23280EfB93d3047C82f17E038",
  "extraData": "0x476574682f76312e302e312f6c696e75782f676f312e342e32",
  "transactions": [
    {
      "hash": "0x0cb231e7c1dc5dd3cd1402ceef18d0c785252e5485673f06df12b4a86fd82490",
      "blockHash": "0xb29621b11608822d058ce398254dced947f90c802c76ba03d9fc839c3c232e73",
      "blockNumber": 61412,
      "transactionIndex": 0,
      "confirmations": null,
      "from": "0xF070bCfeD253b1DDd1989C2Db18B5cD92Df0bDc6",
      "gasPrice": {
        "_hex": "0xd9f7ecd17"
      },
      "gasLimit": {
        "_hex": "0x15f90"
      },
      "to": "0x0000000000000000000000000000000000000000",
      "value": {
        "_hex": "0x0"
      },
      "nonce": 3,
      "data": "0xbe99a980616c656300000000000000000000000000000000000000000000000000000000000000000000000000000000f070bcfed253b1ddd1989c2db18b5cd92df0bdc60000000000000000000000000000000000000000000000000000000000000001",
      "r": "0x564578f1daf4209645d0fcde6d0410bacf9604683fe033f0686e67426941012b",
      "s": "0x07fe08a9fbd2ef615a690482ca967b9e3d94343bb6e1a5796c36a61a20b86b34",
      "v": 28,
      "creates": null,
      "raw": "0xf8ca03850d9f7ecd1783015f9094000000000000000000000000000000000000000080b864be99a980616c656300000000000000000000000000000000000000000000000000000000000000000000000000000000f070bcfed253b1ddd1989c2db18b5cd92df0bdc600000000000000000000000000000000000000000000000000000000000000011ca0564578f1daf4209645d0fcde6d0410bacf9604683fe033f0686e67426941012ba007fe08a9fbd2ef615a690482ca967b9e3d94343bb6e1a5796c36a61a20b86b34",
      "networkId": 0,
      "chainId": 0
    },
    {
      "hash": "0x0aba0230f8b2a3abef7df060f89c02b52d3be2f54747428b1307cc964dd5dd9b",
      "blockHash": "0xb29621b11608822d058ce398254dced947f90c802c76ba03d9fc839c3c232e73",
      "blockNumber": 61412,
      "transactionIndex": 1,
      "confirmations": null,
      "from": "0x32Be343B94f860124dC4fEe278FDCBD38C102D88",
      "gasPrice": {
        "_hex": "0xcfb3a132e"
      },
      "gasLimit": {
        "_hex": "0x5208"
      },
      "to": "0xF0b384EC537546769FAEDdd131A1453723714c4E",
      "value": {
        "_hex": "0x6324388ae59774000"
      },
      "nonce": 140,
      "data": "0x",
      "r": "0xafb1f864d0a524907c57331efbf30f72038ffc7610651e1bca5529393732233e",
      "s": "0x2def4f5aa0ecccf3e2ab0a78d5865e85845810c276e2040aacaf00adfda5a04f",
      "v": 27,
      "creates": null,
      "raw": "0xf86e818c850cfb3a132e82520894f0b384ec537546769faeddd131a1453723714c4e8906324388ae59774000801ba0afb1f864d0a524907c57331efbf30f72038ffc7610651e1bca5529393732233ea02def4f5aa0ecccf3e2ab0a78d5865e85845810c276e2040aacaf00adfda5a04f",
      "networkId": 0,
      "chainId": 0
    }
  ]
}