{
  "hash": "0x86cefbbc7f3a5125437ae636bcd08c76554a34f9d064f854c4f4662413b8dce0",
  "parentHash": "0x1f3b1b3408d1e97012f2a44482369002ea2688c564f1e6f15a02f04f0a3a5148",
  "number": 105117,
  "timestamp": 1439882006,
  "nonce": "0xafe8bde0983832cd",
  "difficulty": 4314695261578,
  "gasLimit": {
    "_hex": "0x2fefd8"
  },
  "gasUsed": {
    "_hex": "0x5208"
  },
  "miner": "0x623d2411c3bb3340784155F9a688b0085251aB5c",
  "extraData": "0x",
  "transactions": [
    {
      "hash": "0x5c2e837a6ae8da69724c54e1122a6bf6b97c766b82f25e7bc363d9e08b327e17",
      "blockHash": "0x86cefbbc7f3a5125437ae636bcd08c76554a34f9d064f854c4f4662413b8dce0",
      "blockNumber": 105117,
      "transactionIndex": 0,
      "confirmations": null,
      "from": "0xFBb1b73C4f0BDa4f67dcA266ce6Ef42f520fBB98",
      "gasPrice": {
        "_hex": "0xd0837f18a"
      },
      "gasLimit": {
        "_hex": "0x5208"
      },
      "to": "0xe3194b17c5549620bEdA50343E34D1c3876391C4",
      "value": {
        "_hex": "0x2a303fe4b530000"
      },
      "nonce": 107,
      "data": "0x",
      "r": "0x2e0b021a2d51d222acb6e1de1add0bee980ea5d3d53906ed37a20192baa1032e",
      "s": "0x7a0ec13a85625bac83b52d3c4c5b7750825e9dcc6a9947383e15bffab30617df",
      "v": 27,
      "creates": null,
      "raw": "0xf86c6b850d0837f18a82520894e3194b17c5549620beda50343e34d1c3876391c48802a303fe4b530000801ba02e0b021a2d51d222acb6e1de1add0bee980ea5d3d53906ed37a20192baa1032ea07a0ec13a85625bac83b52d3c4c5b7750825e9dcc6a9947383e15bffab30617df",
      "networkId": 0,
      "chainId": 0
    }
  ]
}