{
  "hash": "0x4e6745d7eaacf3b095ebf32aff0f55360fa89059e780b5cdd6f073927b4375b9",
  "parentHash": "0x9bdf33c1fcc6d5484976a55a3190d6ca21b217e7fa89a2b206040b30521c2daf",
  "number": 54615,
  "timestamp": 1439057149,
  "nonce": "0xb3e9d2fee93e17f3",
  "difficulty": 1620436191233,
  "gasLimit": {
    "_hex": "0x2fefd8"
  },
  "gasUsed": {
    "_hex": "0x14a84"
  },
  "miner": "0xbb7B8287f3F0a933474a79eAe42CBCa977791171",
  "extraData": "0x476574682f4c5649562f76312e302e312f6c696e75782f676f312e342e32",
  "transactions": [
    {
      "hash": "0x22ea926b8745b5e894b6d544bfcc3b5fdcbdc5efafeb6dde98cdffd4cad777a0",
      "blockHash": "0x4e6745d7eaacf3b095ebf32aff0f55360fa89059e780b5cdd6f073927b4375b9",
      "blockNumber": 54615,
      "transactionIndex": 0,
      "confirmations": null,
      "from": "0xe49936A92a8CcF710eaAc342Bc454B9b14EbECb1",
      "gasPrice": {
        "_hex": "0x110c8f7d8de"
      },
      "gasLimit": {
        "_hex": "0xc350"
      },
      "to": "0x2910543Af39abA0Cd09dBb2D50200b3E800A63D2",
      "value": {
        "_hex": "0xf8b0a10e470000"
      },
      "nonce": 4,
      "data": "0x454e45484638354e38",
      "r": "0x563e2ed9869f94d5f57a4504da97a83a79f0f98b455af27f5259e9fb0b2ae6b1",
      "s": "0x91e6460add944dcd96d2f9622cceb583012b399310162a6ba402b718c518feb8",
      "v": 27,
      "creates": null,
      "raw": "0xf87504860110c8f7d8de82c350942910543af39aba0cd09dbb2d50200b3e800a63d287f8b0a10e47000089454e45484638354e381ba0563e2ed9869f94d5f57a4504da97a83a79f0f98b455af27f5259e9fb0b2ae6b1a091e6460add944dcd96d2f9622cceb583012b399310162a6ba402b718c518feb8",
      "networkId": 0,
      "chainId": 0
    },
    {
      "hash": "0xcf3600406f1823d6c39b4557e6339ed5ba1ce9acd73d626b78e5b275ad6dd9a0",
      "blockHash": "0x4e6745d7eaacf3b095ebf32aff0f55360fa89059e780b5cdd6f073927b4375b9",
      "blockNumber": 54615,
      "transactionIndex": 1,
      "confirmations": null,
      "from": "0x7fa165177F28D171bA7C17f765c1904344Ec64CB",
      "gasPrice": {
        "_hex": "0xccd58d9eb"
      },
      "gasLimit": {
        "_hex": "0x5208"
      },
      "to": "0x32Be343B94f860124dC4fEe278FDCBD38C102D88",
      "value": {
        "_hex": "0x3170493d362094000"
      },
      "nonce": 3,
      "data": "0x",
      "r": "0xfcb20ac84dc3362ad227152c6f1ba0e56ac34cbd3c7cf6b29ef95770cddea3bd",
      "s": "0x59b6474f6162952a5ace659a3437bca3211d5bc0cc72a626b985da336f6aadb3",
      "v": 27,
      "creates": null,
      "raw": "0xf86d03850ccd58d9eb8252089432be343b94f860124dc4fee278fdcbd38c102d888903170493d362094000801ba0fcb20ac84dc3362ad227152c6f1ba0e56ac34cbd3c7cf6b29ef95770cddea3bda059b6474f6162952a5ace659a3437bca3211d5bc0cc72a626b985da336f6aadb3",
      "networkId": 0,
      "chainId": 0
    },
    {
      "hash": "0x200d088b2178dc2bb0fb1d201bdc45e8c9c5e216dc497497bfeea69d21ad01ed",
      "blockHash": "0x4e6745d7eaacf3b095ebf32aff0f55360fa89059e780b5cdd6f073927b4375b9",
      "blockNumber": 54615,
      "transactionIndex": 2,
      "confirmations": null,
      "from": "0xDf3435b39f96cA23a759D8B1eCC82ad9cE30CAAf",
      "gasPrice": {
        "_hex": "0xccd58d9eb"
      },
      "gasLimit": {
        "_hex": "0x5208"
      },
      "to": "0x32Be343B94f860124dC4fEe278FDCBD38C102D88",
      "value": {
        "_hex": "0x6c6b8f415eda040000"
      },
      "nonce": 1,
      "data": "0x",
      "r": "0xd1d447de1fb93d1d130b991d5faf2acc0d911c80d278f8a5e2eb81384e877d22",
      "s": "0x0b682e0e879e2afd10e8c4b9486b50487851fa2c4ea906bbab63efa923fda824",
      "v": 28,
      "creates": null,
      "raw": "0xf86d01850ccd58d9eb8252089432be343b94f860124dc4fee278fdcbd38c102d88896c6b8f415eda040000801ca0d1d447de1fb93d1d130b991d5faf2acc0d911c80d278f8a5e2eb81384e877d22a00b682e0e879e2afd10e8c4b9486b50487851fa2c4ea906bbab63efa923fda824",
      "networkId": 0,
      "chainId": 0
    },
    {
      "hash": "0x924d1909485123980ce447e95de07b1b3be26d1415754cb5f5e5654495529e55",
      "blockHash": "0x4e6745d7eaacf3b095ebf32aff0f55360fa89059e780b5cdd6f073927b4375b9",
      "blockNumber": 54615,
      "transactionIndex": 3,
      "confirmations": null,
      "from": "0x439632734cdF5a84774156c1938CbeDe2eF398F0",
      "gasPrice": {
        "_hex": "0xccd58d9eb"
      },
      "gasLimit": {
        "_hex": "0x5208"
      },
      "to": "0x32Be343B94f860124dC4fEe278FDCBD38C102D88",
      "value": {
        "_hex": "0xb265e0c15d71d8000"
      },
      "nonce": 11,
      "data": "0x",
      "r": "0x9cf21c022812e674e729f7821b9a8451929ca3133326340599a2ca8f2c87b7c4",
      "s": "0x253d3b0eef59ca536aee41f07cb527aac6fe429f81745ea8604d6c3289a2afd3",
      "v": 27,
      "creates": null,
      "raw": "0xf86d0b850ccd58d9eb8252089432be343b94f860124dc4fee278fdcbd38c102d88890b265e0c15d71d8000801ba09cf21c022812e674e729f7821b9a8451929ca3133326340599a2ca8f2c87b7c4a0253d3b0eef59ca536aee41f07cb527aac6fe429f81745ea8604d6c3289a2afd3",
      "networkId": 0,
      "chainId": 0
    }
  ]
}