{
  "hash": "0x02becf5676e2453e60cd4deb1e0e52eeafa0305a8f673bdc20d5a3c2945d1f42",
  "parentHash": "0xe0a9b53e857c07e92c8e1030e30408221b05049a0d82efd363d945e39d2abbfb",
  "number": 101609,
  "timestamp": 1439825443,
  "nonce": "0x78fb140d0dff88b8",
  "difficulty": 3895826354623,
  "gasLimit": {
    "_hex": "0x2fefd8"
  },
  "gasUsed": {
    "_hex": "0x5208"
  },
  "miner": "0xeB1325C8D9d3ea8D74aC11F4B00F1B2367686319",
  "extraData": "0x",
  "transactions": [
    {
      "hash": "0x5e114e60940a5895400a6ea4bf221128b1e6023e50ce68419c741c941a0aec21",
      "blockHash": "0x02becf5676e2453e60cd4deb1e0e52eeafa0305a8f673bdc20d5a3c2945d1f42",
      "blockNumber": 101609,
      "transactionIndex": 0,
      "confirmations": null,
      "from": "0xcabcF33e299eEFB1bBde6Ef75a21853831e8b339",
      "gasPrice": {
        "_hex": "0xcdb459f6c"
      },
      "gasLimit": {
        "_hex": "0x15f90"
      },
      "to": "0xf00955cEDD33a99B4a993aABeb4239e268aaD294",
      "value": {
        "_hex": "0x53444835ec580000"
      },
      "nonce": 0,
      "data": "0x",
      "r": "0x32f367da88e13959b360baad1287920890f13b206c8bc52b3162bdf3553c3103",
      "s": "0x5bb96027fd41e3bc952d67c5428aeccd4b0f00e24aad7ba176cb3e4f4cb32be6",
      "v": 28,
      "creates": null,
      "raw": "0xf86d80850cdb459f6c83015f9094f00955cedd33a99b4a993aabeb4239e268aad2948853444835ec580000801ca032f367da88e13959b360baad1287920890f13b206c8bc52b3162bdf3553c3103a05bb96027fd41e3bc952d67c5428aeccd4b0f00e24aad7ba176cb3e4f4cb32be6",
      "networkId": 0,
      "chainId": 0
    }
  ]
}