{
  "hash": "0x0ef4c3e8ac86febb79b6653e73a62be3dcb1f5ae8a2f03bff298bf1dda8cb423",
  "parentHash": "0x93940ec3e2eb8ec31faeaf6558947918cd1b49c0af42697da19bd92974e82865",
  "number": 89164,
  "timestamp": 1439619089,
  "nonce": "0x61a1f647a7337ebf",
  "difficulty": 3283881410066,
  "gasLimit": {
    "_hex": "0x2fefd8"
  },
  "gasUsed": {
    "_hex": "0x5208"
  },
  "miner": "0xa50ec0D39fa913E62f1Bae7074E6F36caA71855b",
  "extraData": "0xd783010001844765746887676f312e342e32856c696e7578",
  "transactions": [
    {
      "hash": "0xa586df81e240752ccb21495aaa6b94b0685cf8809541ba2e21c8634b5168ecd3",
      "blockHash": "0x0ef4c3e8ac86febb79b6653e73a62be3dcb1f5ae8a2f03bff298bf1dda8cb423",
      "blockNumber": 89164,
      "transactionIndex": 0,
      "confirmations": null,
      "from": "0xd84b922F7841FC5774f00e14604Ae0dF42c8551e",
      "gasPrice": {
        "_hex": "0xd3363e7ad"
      },
      "gasLimit": {
        "_hex": "0x15f90"
      },
      "to": "0xf64998300727C2484E0E15602f9f49f2654f604e",
      "value": {
        "_hex": "0xde0b6b3a7640000"
      },
      "nonce": 0,
      "data": "0x",
      "r": "0x3ed68ba921ac240b2013a74b2a75416d4bb31f18ae085f00fc4594f578a9b16d",
      "s": "0x4c72be1f0d52b46f227cc43927fb38d35b639d190d543d3174ba5d82525e2d7b",
      "v": 27,
      "creates": null,
      "raw": "0xf86d80850d3363e7ad83015f9094f64998300727c2484e0e15602f9f49f2654f604e880de0b6b3a7640000801ba03ed68ba921ac240b2013a74b2a75416d4bb31f18ae085f00fc4594f578a9b16da04c72be1f0d52b46f227cc43927fb38d35b639d190d543d3174ba5d82525e2d7b",
      "networkId": 0,
      "chainId": 0
    }
  ]
}