{
  "hash": "0x8edf6a069c1764add60efdfe9433dc820f66a1ca0fd9addab1499c76e05b4136",
  "parentHash": "0x19f62b24448fdd519d9f374b19a0868b4ef33835f424fd3e2404908ee41e3e04",
  "number": 102156,
  "timestamp": 1439833712,
  "nonce": "0x52634b1a916bfc4a",
  "difficulty": 3905094620394,
  "gasLimit": {
    "_hex": "0x2fefd8"
  },
  "gasUsed": {
    "_hex": "0x5208"
  },
  "miner": "0xe6A7a1d47ff21B6321162AEA7C6CB457D5476Bca",
  "extraData": "0x476574682f76312e302e312d38326566323666362f6c696e75782f676f312e34",
  "transactions": [
    {
      "hash": "0x4ad7195cf7324e7f380f7c6678c1164df53e2abccd12dffa2b540f8926cc8dbc",
      "blockHash": "0x8edf6a069c1764add60efdfe9433dc820f66a1ca0fd9addab1499c76e05b4136",
      "blockNumber": 102156,
      "transactionIndex": 0,
      "confirmations": null,
      "from": "0x0261ce2ccFeB21752bd6E4d895c467E5589791eD",
      "gasPrice": {
        "_hex": "0xd3d479e48"
      },
      "gasLimit": {
        "_hex": "0x5208"
      },
      "to": "0x32Be343B94f860124dC4fEe278FDCBD38C102D88",
      "value": {
        "_hex": "0xdd8df796882bc00"
      },
      "nonce": 0,
      "data": "0x",
      "r": "0x2c764e73eda47c9f167363b214fad362d364eb0ba6dea9a9c44396850ce5e106",
      "s": "0x03c41cdcb8f83fdf5803c408858df32e99d06f2f5745d3e331937bbb98128b28",
      "v": 28,
      "creates": null,
      "raw": "0xf86c80850d3d479e488252089432be343b94f860124dc4fee278fdcbd38c102d88880dd8df796882bc00801ca02c764e73eda47c9f167363b214fad362d364eb0ba6dea9a9c44396850ce5e106a003c41cdcb8f83fdf5803c408858df32e99d06f2f5745d3e331937bbb98128b28",
      "networkId": 0,
      "chainId": 0
    }
  ]
}