{
  "hash": "0x3adef6f0631c0850c387cf0b00bacc9307856773b81dccdc50c8d6aed2ce40c5",
  "parentHash": "0xb767f57c6d61b82357484741ace0de8d485e3ec0208948e2c1ef8f0255c479d4",
  "number": 55261,
  "timestamp": 1439067816,
  "nonce": "0xa0f45a55ca7410dd",
  "difficulty": 1636212276973,
  "gasLimit": {
    "_hex": "0x2fefd8"
  },
  "gasUsed": {
    "_hex": "0x1e64bc"
  },
  "miner": "0xeB1325C8D9d3ea8D74aC11F4B00F1B2367686319",
  "extraData": "0x476574682f76312e302e312f77696e646f77732f676f312e342e32",
  "transactions": [
    {
      "hash": "0x4862620a716b53e9799d46f9585f9a5a332a5a9de5acbcd380352289d6a9d387",
      "blockHash": "0x3adef6f0631c0850c387cf0b00bacc9307856773b81dccdc50c8d6aed2ce40c5",
      "blockNumber": 55261,
      "transactionIndex": 0,
      "confirmations": null,
      "from": "0x0ae3F81a67725a8A7758FeB8684c6c17dA20755D",
      "gasPrice": {
        "_hex": "0xd1e7ab519"
      },
      "gasLimit": {
        "_hex": "0x1e8480"
      },
      "to": "0xA327075af2a223A1C83a36aDa1126afE7430f955",
      "value": {
        "_hex": "0x8ac7230489e80000"
      },
      "nonce": 108,
      "data": "0x",
      "r": "0x6aa05b0faf753855865433b106fb3c6546b03030c8c5cc7b86ed54eef9f3da45",
      "s": "0x4860228d1ea227de124a911df158a47da64d609a6448db0126c88cb6ee72f7a4",
      "v": 28,
      "creates": null,
      "raw": "0xf86d6c850d1e7ab519831e848094a327075af2a223a1c83a36ada1126afe7430f955888ac7230489e80000801ca06aa05b0faf753855865433b106fb3c6546b03030c8c5cc7b86ed54eef9f3da45a04860228d1ea227de124a911df158a47da64d609a6448db0126c88cb6ee72f7a4",
      "networkId": 0,
      "chainId": 0
    },
    {
      "hash": "0x65fc14f0a485a37872e3ac5ab7349dafd6b1e3705609b315fd60ae8e25f4bb3b",
      "blockHash": "0x3adef6f0631c0850c387cf0b00bacc9307856773b81dccdc50c8d6aed2ce40c5",
      "blockNumber": 55261,
      "transactionIndex": 1,
      "confirmations": null,
      "from": "0x0ae3F81a67725a8A7758FeB8684c6c17dA20755D",
      "gasPrice": {
        "_hex": "0xd1e7ab519"
      },
      "gasLimit": {
        "_hex": "0x1e8480"
      },
      "to": "0xA327075af2a223A1C83a36aDa1126afE7430f955",
      "value": {
        "_hex": "0x8ac7230489e80000"
      },
      "nonce": 109,
      "data": "0x",
      "r": "0x72f235cea65bf2b2603a254741749e89465b69b4a4b44108d5ec38fdfad76f75",
      "s": "0x7f96f5dbb6033d397668e5f850200adef119d21cc0981cb8da61621df43b4ca5",
      "v": 28,
      "creates": null,
      "raw": "0xf86d6d850d1e7ab519831e848094a327075af2a223a1c83a36ada1126afe7430f955888ac7230489e80000801ca072f235cea65bf2b2603a254741749e89465b69b4a4b44108d5ec38fdfad76f75a07f96f5dbb6033d397668e5f850200adef119d21cc0981cb8da61621df43b4ca5",
      "networkId": 0,
      "chainId": 0
    },
    {
      "hash": "0xbceacffb2c6089f422fe0decb611a1641d0c27e6f070bbf194b3f2a9244c3e3d",
      "blockHash": "0x3adef6f0631c0850c387cf0b00bacc9307856773b81dccdc50c8d6aed2ce40c5",
      "blockNumber": 55261,
      "transactionIndex": 2,
      "confirmations": null,
      "from": "0x0ae3F81a67725a8A7758FeB8684c6c17dA20755D",
      "gasPrice": {
        "_hex": "0xd1e7ab519"
      },
      "gasLimit": {
        "_hex": "0x1e8480"
      },
      "to": "0xA327075af2a223A1C83a36aDa1126afE7430f955",
      "value": {
        "_hex": "0x8ac7230489e80000"
      },
      "nonce": 110,
      "data": "0x",
      "r": "0x387be3929157257c60aa938acf3f63cb252492319017e16866f416bcaa7c30fe",
      "s": "0x3e26e942f55755fbdf23753fac3bbde18add23b52e4a7a531dcc88185eb979f4",
      "v": 28,
      "creates": null,
      "raw": "0xf86d6e850d1e7ab519831e848094a327075af2a223a1c83a36ada1126afe7430f955888ac7230489e80000801ca0387be3929157257c60aa938acf3f63cb252492319017e16866f416bcaa7c30fea03e26e942f55755fbdf23753fac3bbde18add23b52e4a7a531dcc88185eb979f4",
      "networkId": 0,
      "chainId": 0
    },
    {
      "hash": "0xe37da3db58b4285c7d2ab202cc05d329cf37fe130a6d81b2c595e2b63336c1d3",
      "blockHash": "0x3adef6f0631c0850c387cf0b00bacc9307856773b81dccdc50c8d6aed2ce40c5",
      "blockNumber": 55261,
      "transactionIndex": 3,
      "confirmations": null,
      "from": "0x0ae3F81a67725a8A7758FeB8684c6c17dA20755D",
      "gasPrice": {
        "_hex": "0xd1e7ab519"
      },
      "gasLimit": {
        "_hex": "0x1e8480"
      },
      "to": "0xA327075af2a223A1C83a36aDa1126afE7430f955",
      "value": {
        "_hex": "0x8ac7230489e80000"
      },
      "nonce": 111,
      "data": "0x",
      "r": "0x29a84493dbb63bf441e9de9ed11c13a2501098a2d9fbf532f67ff3fe9b3f8fac",
      "s": "0x74abd4d34a566e02e0d1c8740d28c4751dfa7a6410efc6fbdb01bb56a279d4ff",
      "v": 28,
      "creates": null,
      "raw": "0xf86d6f850d1e7ab519831e848094a327075af2a223a1c83a36ada1126afe7430f955888ac7230489e80000801ca029a84493dbb63bf441e9de9ed11c13a2501098a2d9fbf532f67ff3fe9b3f8faca074abd4d34a566e02e0d1c8740d28c4751dfa7a6410efc6fbdb01bb56a279d4ff",
      "networkId": 0,
      "chainId": 0
    },
    {
      "hash": "0xcfecbc9bf8ab7a3fe7768ab624193af60abb355864f8d9eb2f1b5ed9a0e5fcc4",
      "blockHash": "0x3adef6f0631c0850c387cf0b00bacc9307856773b81dccdc50c8d6aed2ce40c5",
      "blockNumber": 55261,
      "transactionIndex": 4,
      "confirmations": null,
      "from": "0x0ae3F81a67725a8A7758FeB8684c6c17dA20755D",
      "gasPrice": {
        "_hex": "0xd1e7ab519"
      },
      "gasLimit": {
        "_hex": "0x1e8480"
      },
      "to": "0xA327075af2a223A1C83a36aDa1126afE7430f955",
      "value": {
        "_hex": "0x8ac7230489e80000"
      },
      "nonce": 112,
      "data": "0x",
      "r": "0x35b367272bf5532a01c3819c0c6e256cf73028f830ab0d543375f57cd1fea8c0",
      "s": "0x674953a4b05fbb51e6554f25f66f2fa9f64445b1acfb4fe771fdf2259fb2d83b",
      "v": 28,
      "creates": null,
      "raw": "0xf86d70850d1e7ab519831e848094a327075af2a223a1c83a36ada1126afe7430f955888ac7230489e80000801ca035b367272bf5532a01c3819c0c6e256cf73028f830ab0d543375f57cd1fea8c0a0674953a4b05fbb51e6554f25f66f2fa9f64445b1acfb4fe771fdf2259fb2d83b",
      "networkId": 0,
      "chainId": 0
    },
    {
      "hash": "0x18225f24ea9fd38c22ab6720dc1e74cadb0ba55a9f02cf38531700e761c2a09a",
      "blockHash": "0x3adef6f0631c0850c387cf0b00bacc9307856773b81dccdc50c8d6aed2ce40c5",
      "blockNumber": 55261,
      "transactionIndex": 5,
      "confirmations": null,
      "from": "0x0ae3F81a67725a8A7758FeB8684c6c17dA20755D",
      "gasPrice": {
        "_hex": "0xd1e7ab519"
      },
      "gasLimit": {
        "_hex": "0x1e8480"
      },
      "to": "0xA327075af2a223A1C83a36aDa1126afE7430f955",
      "value": {
        "_hex": "0x8ac7230489e80000"
      },
      "nonce": 113,
      "data": "0x",
      "r": "0x259abb45af5908324037f6886e6a67361817a0146f0887c42585d1944ece2af6",
      "s": "0x6e7ff86e365dab70dd1fa97c02f0512834e8cb7aec6d4757cb5f1a762db64127",
      "v": 28,
      "creates": null,
      "raw": "0xf86d71850d1e7ab519831e848094a327075af2a223a1c83a36ada1126afe7430f955888ac7230489e80000801ca0259abb45af5908324037f6886e6a67361817a0146f0887c42585d1944ece2af6a06e7ff86e365dab70dd1fa97c02f0512834e8cb7aec6d4757cb5f1a762db64127",
      "networkId": 0,
      "chainId": 0
    },
    {
      "hash": "0x4b8a51a818c09d3087a226615e1f7284c3d8e979893378cca018005b53221a6f",
      "blockHash": "0x3adef6f0631c0850c387cf0b00bacc9307856773b81dccdc50c8d6aed2ce40c5",
      "blockNumber": 55261,
      "transactionIndex": 6,
      "confirmations": null,
      "from": "0x0ae3F81a67725a8A7758FeB8684c6c17dA20755D",
      "gasPrice": {
        "_hex": "0xd1e7ab519"
      },
      "gasLimit": {
        "_hex": "0x1e8480"
      },
      "to": "0xA327075af2a223A1C83a36aDa1126afE7430f955",
      "value": {
        "_hex": "0x8ac7230489e80000"
      },
      "nonce": 114,
      "data": "0x",
      "r": "0x69828ffd6185f9f854c7f32eab7bc8909d9ad356da5bf5e6e68d927c9f8d1194",
      "s": "0x28700b97485fea0653624249f54c014e4347c39dcfcb72cdf841a583f171e599",
      "v": 28,
      "creates": null,
      "raw": "0xf86d72850d1e7ab519831e848094a327075af2a223a1c83a36ada1126afe7430f955888ac7230489e80000801ca069828ffd6185f9f854c7f32eab7bc8909d9ad356da5bf5e6e68d927c9f8d1194a028700b97485fea0653624249f54c014e4347c39dcfcb72cdf841a583f171e599",
      "networkId": 0,
      "chainId": 0
    },
    {
      "hash": "0x1cf69538bb825e5c49dce974318ea860861bb9a7d2eb677137e1d55947af566e",
      "blockHash": "0x3adef6f0631c0850c387cf0b00bacc9307856773b81dccdc50c8d6aed2ce40c5",
      "blockNumber": 55261,
      "transactionIndex": 7,
      "confirmations": null,
      "from": "0x0ae3F81a67725a8A7758FeB8684c6c17dA20755D",
      "gasPrice": {
        "_hex": "0xd1e7ab519"
      },
      "gasLimit": {
        "_hex": "0x1e8480"
      },
      "to": "0xA327075af2a223A1C83a36aDa1126afE7430f955",
      "value": {
        "_hex": "0x8ac7230489e80000"
      },
      "nonce": 115,
      "data": "0x",
      "r": "0x274161530afeed114ac9f2fcd2ea7123496c1ce58c6df6dec8fe33192589ae09",
      "s": "0x16de1cf2d09bba8b281295ccd7198f1b8693ca0f7f989cdec42dec66ba0dfb0a",
      "v": 27,
      "creates": null,
      "raw": "0xf86d73850d1e7ab519831e848094a327075af2a223a1c83a36ada1126afe7430f955888ac7230489e80000801ba0274161530afeed114ac9f2fcd2ea7123496c1ce58c6df6dec8fe33192589ae09a016de1cf2d09bba8b281295ccd7198f1b8693ca0f7f989cdec42dec66ba0dfb0a",
      "networkId": 0,
      "chainId": 0
    },
    {
      "hash": "0x9f69c6ea8cb8c6538763812d14b7e88879efa00bece283074b33998bd83b8f74",
      "blockHash": "0x3adef6f0631c0850c387cf0b00bacc9307856773b81dccdc50c8d6aed2ce40c5",
      "blockNumber": 55261,
      "transactionIndex": 8,
      "confirmations": null,
      "from": "0x0ae3F81a67725a8A7758FeB8684c6c17dA20755D",
      "gasPrice": {
        "_hex": "0xd1e7ab519"
      },
      "gasLimit": {
        "_hex": "0x1e8480"
      },
      "to": "0xA327075af2a223A1C83a36aDa1126afE7430f955",
      "value": {
        "_hex": "0x8ac7230489e80000"
      },
      "nonce": 116,
      "data": "0x",
      "r": "0x8c39c774ea3ef4b819677cca37eb2e098c49d0f0eb0b34a7fd213cb17d618bf7",
      "s": "0x7faf15f22e34dfed9db37efe6d6b11b4eedd0a6d0f3a2b2919621e658a965fff",
      "v": 28,
      "creates": null,
      "raw": "0xf86d74850d1e7ab519831e848094a327075af2a223a1c83a36ada1126afe7430f955888ac7230489e80000801ca08c39c774ea3ef4b819677cca37eb2e098c49d0f0eb0b34a7fd213cb17d618bf7a07faf15f22e34dfed9db37efe6d6b11b4eedd0a6d0f3a2b2919621e658a965fff",
      "networkId": 0,
      "chainId": 0
    },
    {
      "hash": "0xb35b3fb67922d2a192aaa438d5f1dcabcd1143a4636021e4f2dc152b331c5756",
      "blockHash": "0x3adef6f0631c0850c387cf0b00bacc9307856773b81dccdc50c8d6aed2ce40c5",
      "blockNumber": 55261,
      "transactionIndex": 9,
      "confirmations": null,
      "from": "0x0ae3F81a67725a8A7758FeB8684c6c17dA20755D",
      "gasPrice": {
        "_hex": "0xd1e7ab519"
      },
      "gasLimit": {
        "_hex": "0x1e8480"
      },
      "to": "0xA327075af2a223A1C83a36aDa1126afE7430f955",
      "value": {
        "_hex": "0x8ac7230489e80000"
      },
      "nonce": 117,
      "data": "0x",
      "r": "0xe3ebd279df44b2dd69dcd47a5336649d565de09fdbcbbddc4115bab7a0471d50",
      "s": "0x761b878e71455a438c059cf5a697668fb810f22d4d3eb3e855c35b25b97913a7",
      "v": 28,
      "creates": null,
      "raw": "0xf86d75850d1e7ab519831e848094a327075af2a223a1c83a36ada1126afe7430f955888ac7230489e80000801ca0e3ebd279df44b2dd69dcd47a5336649d565de09fdbcbbddc4115bab7a0471d50a0761b878e71455a438c059cf5a697668fb810f22d4d3eb3e855c35b25b97913a7",
      "networkId": 0,
      "chainId": 0
    },
    {
      "hash": "0x5e78d7914f31d98e7df5f658927b81c24ff307ffe991be7f82e3a110a032848b",
      "blockHash": "0x3adef6f0631c0850c387cf0b00bacc9307856773b81dccdc50c8d6aed2ce40c5",
      "blockNumber": 55261,
      "transactionIndex": 10,
      "confirmations": null,
      "from": "0x0ae3F81a67725a8A7758FeB8684c6c17dA20755D",
      "gasPrice": {
        "_hex": "0xd1e7ab519"
      },
      "gasLimit": {
        "_hex": "0x1e8480"
      },
      "to": "0xA327075af2a223A1C83a36aDa1126afE7430f955",
      "value": {
        "_hex": "0x8ac7230489e80000"
      },
      "nonce": 118,
      "data": "0x",
      "r": "0x2f00663747ac8b1f9224313e5b5d67f5b475b745fc15b355e1968ded2b277272",
      "s": "0x5be3da6c0caa5a6679537fd9068ff6b43cbbdaecbd842c5cf24c61f30b50a1f5",
      "v": 28,
      "creates": null,
      "raw": "0xf86d76850d1e7ab519831e848094a327075af2a223a1c83a36ada1126afe7430f955888ac7230489e80000801ca02f00663747ac8b1f9224313e5b5d67f5b475b745fc15b355e1968ded2b277272a05be3da6c0caa5a6679537fd9068ff6b43cbbdaecbd842c5cf24c61f30b50a1f5",
      "networkId": 0,
      "chainId": 0
    },
    {
      "hash": "0x2e4464eff867dbd86522e134fe33a9531b40407d919da4fcf0812825cd918083",
      "blockHash": "0x3adef6f0631c0850c387cf0b00bacc9307856773b81dccdc50c8d6aed2ce40c5",
      "blockNumber": 55261,
      "transactionIndex": 11,
      "confirmations": null,
      "from": "0x0ae3F81a67725a8A7758FeB8684c6c17dA20755D",
      "gasPrice": {
        "_hex": "0xd1e7ab519"
      },
      "gasLimit": {
        "_hex": "0x1e8480"
      },
      "to": "0xA327075af2a223A1C83a36aDa1126afE7430f955",
      "value": {
        "_hex": "0x8ac7230489e80000"
      },
      "nonce": 119,
      "data": "0x",
      "r": "0x00e0045c3ec23baf9ee7b1624d3ad1ee6144c50bda4b99d97a44d52fffba8cc3",
      "s": "0x313aedf42faaad3bb576ace5497a78c984d7aa42df7ea83d58659128c5082524",
      "v": 27,
      "creates": null,
      "raw": "0xf86c77850d1e7ab519831e848094a327075af2a223a1c83a36ada1126afe7430f955888ac7230489e80000801b9fe0045c3ec23baf9ee7b1624d3ad1ee6144c50bda4b99d97a44d52fffba8cc3a0313aedf42faaad3bb576ace5497a78c984d7aa42df7ea83d58659128c5082524",
      "networkId": 0,
      "chainId": 0
    },
    {
      "hash": "0x9ee5df299f2b077e3cace15327bdb857092d93d60fd1237433397e295b027e51",
      "blockHash": "0x3adef6f0631c0850c387cf0b00bacc9307856773b81dccdc50c8d6aed2ce40c5",
      "blockNumber": 55261,
      "transactionIndex": 12,
      "confirmations": null,
      "from": "0x0ae3F81a67725a8A7758FeB8684c6c17dA20755D",
      "gasPrice": {
        "_hex": "0xd1e7ab519"
      },
      "gasLimit": {
        "_hex": "0x1e8480"
      },
      "to": "0xA327075af2a223A1C83a36aDa1126afE7430f955",
      "value": {
        "_hex": "0x8ac7230489e80000"
      },
      "nonce": 120,
      "data": "0x",
      "r": "0x55fae4eabb555682f38ec4080412a26d5f90e60f921d5f7d554ebcbfa887ade7",
      "s": "0x3ef8530a4a9010920ee298bb783dacaf4156864f37b5722696ebbe708600f040",
      "v": 28,
      "creates": null,
      "raw": "0xf86d78850d1e7ab519831e848094a327075af2a223a1c83a36ada1126afe7430f955888ac7230489e80000801ca055fae4eabb555682f38ec4080412a26d5f90e60f921d5f7d554ebcbfa887ade7a03ef8530a4a9010920ee298bb783dacaf4156864f37b5722696ebbe708600f040",
      "networkId": 0,
      "chainId": 0
    }
  ]
}