{
  "hash": "0x48a0246fd5735c4fc4c2d54c5f454c42ac5558e4c16a9232dcb8f8ef801b2410",
  "parentHash": "0x732a01c6ba8df6bb6acbc0bfb6e9821023036fa6c481de4a65ce7923951a9487",
  "number": 102468,
  "timestamp": 1439838545,
  "nonce": "0x28a8ef217b320a71",
  "difficulty": 3954839954494,
  "gasLimit": {
    "_hex": "0x2fefd8"
  },
  "gasUsed": {
    "_hex": "0x2b89e"
  },
  "miner": "0xf927a40C8B7F6E07c5af7FA2155B4864a4112B13",
  "extraData": "0x",
  "transactions": [
    {
      "hash": "0x4cadedd2bba92465a7e7ac7095ae5f1f8da0dcdafe2c8eb3b5a8f82f2b8a8027",
      "blockHash": "0x48a0246fd5735c4fc4c2d54c5f454c42ac5558e4c16a9232dcb8f8ef801b2410",
      "blockNumber": 102468,
      "transactionIndex": 0,
      "confirmations": null,
      "from": "0x8D795c5F4a5689AD62da961671F028065286d554",
      "gasPrice": {
        "_hex": "0x110c8f7d8de"
      },
      "gasLimit": {
        "_hex": "0xc350"
      },
      "to": "0x2910543Af39abA0Cd09dBb2D50200b3E800A63D2",
      "value": {
        "_hex": "0x5150ae84a8cdf00000"
      },
      "nonce": 0,
      "data": "0x454e474d4d45564352",
      "r": "0xa728566ed2964b91362d93e41dbb915b01b52d041a357c21a6ffa5a4c1dca447",
      "s": "0x3e301674976a45f7f959d1fd1ba7641c470b822b18bf6c5292dcb34730e9b006",
      "v": 27,
      "creates": null,
      "raw": "0xf87780860110c8f7d8de82c350942910543af39aba0cd09dbb2d50200b3e800a63d2895150ae84a8cdf0000089454e474d4d455643521ba0a728566ed2964b91362d93e41dbb915b01b52d041a357c21a6ffa5a4c1dca447a03e301674976a45f7f959d1fd1ba7641c470b822b18bf6c5292dcb34730e9b006",
      "networkId": 0,
      "chainId": 0
    },
    {
      "hash": "0x309fa325dfe70b25e7def0684f92b3971cffedb64fa5be25a70355604e15e4e3",
      "blockHash": "0x48a0246fd5735c4fc4c2d54c5f454c42ac5558e4c16a9232dcb8f8ef801b2410",
      "blockNumber": 102468,
      "transactionIndex": 1,
      "confirmations": null,
      "from": "0xdd2BDfA917c1f310E6Fa35aa8af16939c233CD7D",
      "gasPrice": {
        "_hex": "0x110c8f7d8de"
      },
      "gasLimit": {
        "_hex": "0xc350"
      },
      "to": "0x2910543Af39abA0Cd09dBb2D50200b3E800A63D2",
      "value": {
        "_hex": "0x56a6418b505860000"
      },
      "nonce": 1,
      "data": "0x454e3330354b513538",
      "r": "0x99b3c3d7f6c67520eafb5cddfae1e12c125862dac681c12b796a4d8cb87c9ac2",
      "s": "0x7a6117e21100df71d487c3cd13e6fae254373a3c622b030b404e060bf6c7993f",
      "v": 27,
      "creates": null,
      "raw": "0xf87701860110c8f7d8de82c350942910543af39aba0cd09dbb2d50200b3e800a63d289056a6418b50586000089454e3330354b5135381ba099b3c3d7f6c67520eafb5cddfae1e12c125862dac681c12b796a4d8cb87c9ac2a07a6117e21100df71d487c3cd13e6fae254373a3c622b030b404e060bf6c7993f",
      "networkId": 0,
      "chainId": 0
    },
    {
      "hash": "0x01e89ea21c2bfa6d32aeec486668c232df1eb42cc8fda0329acb550bb919f270",
      "blockHash": "0x48a0246fd5735c4fc4c2d54c5f454c42ac5558e4c16a9232dcb8f8ef801b2410",
      "blockNumber": 102468,
      "transactionIndex": 2,
      "confirmations": null,
      "from": "0x92762b7a067B2278454eF38d6cb6a96A4c92834e",
      "gasPrice": {
        "_hex": "0xde83f6e7d"
      },
      "gasLimit": {
        "_hex": "0x7a120"
      },
      "to": "0xBBDa93a81B882774e1c9b5e3F933Fa35DaC8bc88",
      "value": {
        "_hex": "0x8a1580485b230000"
      },
      "nonce": 0,
      "data": "0x",
      "r": "0x24d9014dd8c87d1143ded8a9ef1c6293fe887cad21391f6e980056106c55bf12",
      "s": "0x3d81b67083623cd04bd06c9536d646e9c98e18779cad0b639f72ea8ec04ce58f",
      "v": 28,
      "creates": null,
      "raw": "0xf86d80850de83f6e7d8307a12094bbda93a81b882774e1c9b5e3f933fa35dac8bc88888a1580485b230000801ca024d9014dd8c87d1143ded8a9ef1c6293fe887cad21391f6e980056106c55bf12a03d81b67083623cd04bd06c9536d646e9c98e18779cad0b639f72ea8ec04ce58f",
      "networkId": 0,
      "chainId": 0
    },
    {
      "hash": "0x9a00ce1e60da55bbbcd24527088b1ae10ba0aceb3099619fda461f74926f2232",
      "blockHash": "0x48a0246fd5735c4fc4c2d54c5f454c42ac5558e4c16a9232dcb8f8ef801b2410",
      "blockNumber": 102468,
      "transactionIndex": 3,
      "confirmations": null,
      "from": "0x7C4401aE98F12eF6de39aE24cf9fc51f80EBa16B",
      "gasPrice": {
        "_hex": "0xd84e12627"
      },
      "gasLimit": {
        "_hex": "0x249f0"
      },
      "to": "0xE28e72FCf78647ADCe1F1252F240bbfaebD63BcC",
      "value": {
        "_hex": "0x120d4da7b0bd140000"
      },
      "nonce": 8,
      "data": "0x45466f3a",
      "r": "0x8e4f4eeeef0a9135e57a763a235155dd3a859f4ff4823d993b89ce9ac7565a60",
      "s": "0x195622f9cedd1b33d20992a521c7f76e4d324ec2590a151f9b5b902e3e6b9af2",
      "v": 27,
      "creates": null,
      "raw": "0xf87208850d84e12627830249f094e28e72fcf78647adce1f1252f240bbfaebd63bcc89120d4da7b0bd1400008445466f3a1ba08e4f4eeeef0a9135e57a763a235155dd3a859f4ff4823d993b89ce9ac7565a60a0195622f9cedd1b33d20992a521c7f76e4d324ec2590a151f9b5b902e3e6b9af2",
      "networkId": 0,
      "chainId": 0
    }
  ]
}