{
  "hash": "0x1187a65bd3b43dafa445111af23328804325309955e45b3547bb581b081c7f21",
  "parentHash": "0x48b181dc58547dedc4d1bd6980db794cc38458404bd2b604754dc1f68ef5f07f",
  "number": 122036,
  "timestamp": 1440187023,
  "nonce": "0x5025d2865ec85b68",
  "difficulty": 4466615189371,
  "gasLimit": {
    "_hex": "0x2fefd8"
  },
  "gasUsed": {
    "_hex": "0x5208"
  },
  "miner": "0x52bc44d5378309EE2abF1539BF71dE1b7d7bE3b5",
  "extraData": "0xd783010002844765746887676f312e342e32856c696e7578",
  "transactions": [
    {
      "hash": "0x9691de9b3546c5b4b2f60ec5551f95aa5e9c2489796c230050de5131eeacea44",
      "blockHash": "0x1187a65bd3b43dafa445111af23328804325309955e45b3547bb581b081c7f21",
      "blockNumber": 122036,
      "transactionIndex": 0,
      "confirmations": null,
      "from": "0xBdF25376dA0767EfBF7eE3dCAe463ECe5572bFF3",
      "gasPrice": {
        "_hex": "0xcedf8bf33"
      },
      "gasLimit": {
        "_hex": "0x15f90"
      },
      "to": "0x9b0a028EAfDeCdE3AFc0fD00B7937098388b7C8a",
      "value": {
        "_hex": "0xfed022ac6a31b4f8"
      },
      "nonce": 10,
      "data": "0x",
      "r": "0xdb865d1207799dbb7bb0031b9a66acb8c8b651498a89305d9eddee9f5694fdcb",
      "s": "0x642242d8c0f640b456483de2dec7589261771cbd350c8924b7094c019605abe1",
      "v": 27,
      "creates": null,
      "raw": "0xf86d0a850cedf8bf3383015f90949b0a028eafdecde3afc0fd00b7937098388b7c8a88fed022ac6a31b4f8801ba0db865d1207799dbb7bb0031b9a66acb8c8b651498a89305d9eddee9f5694fdcba0642242d8c0f640b456483de2dec7589261771cbd350c8924b7094c019605abe1",
      "networkId": 0,
      "chainId": 0
    }
  ]
}