{
  "hash": "0xc33733102239cdddc88a0180e9d5b192de2ed2d35a2eb96037373cf7acd1e190",
  "parentHash": "0x13e93eb87645f56c5f60231d7237ad280556b79f136eb39b39134867a29a5adc",
  "number": 85481,
  "timestamp": 1439564351,
  "nonce": "0x8faf66401b58bccc",
  "difficulty": 2749014426337,
  "gasLimit": {
    "_hex": "0x2fefd8"
  },
  "gasUsed": {
    "_hex": "0xa410"
  },
  "miner": "0xf8E0CA3Ed80bd541b94BEdCf259e8CF2141A9523",
  "extraData": "0x476574682f76312e302e312f77696e646f77732f676f312e342e32",
  "transactions": [
    {
      "hash": "0xc7ebee7e2ed1e57502fb45742a7eb5b46cd1e02bd46aedf8d14ad9c59edf766d",
      "blockHash": "0xc33733102239cdddc88a0180e9d5b192de2ed2d35a2eb96037373cf7acd1e190",
      "blockNumber": 85481,
      "transactionIndex": 0,
      "confirmations": null,
      "from": "0x32Be343B94f860124dC4fEe278FDCBD38C102D88",
      "gasPrice": {
        "_hex": "0xd674a17aa"
      },
      "gasLimit": {
        "_hex": "0x5208"
      },
      "to": "0x576e6acE6eBBaC590a6cb166598BFEbA1697BDB8",
      "value": {
        "_hex": "0xa2a139825f2c200000"
      },
      "nonce": 733,
      "data": "0x",
      "r": "0xa964def3900c5cfc0e9456e87c670511727008c8dc93490b060f60ebbf76d4ac",
      "s": "0x7fa34fbfc95249d19917756ea39472a1a59495f51498a4f93e4e463c0e4f076b",
      "v": 27,
      "creates": null,
      "raw": "0xf86f8202dd850d674a17aa82520894576e6ace6ebbac590a6cb166598bfeba1697bdb889a2a139825f2c200000801ba0a964def3900c5cfc0e9456e87c670511727008c8dc93490b060f60ebbf76d4aca07fa34fbfc95249d19917756ea39472a1a59495f51498a4f93e4e463c0e4f076b",
      "networkId": 0,
      "chainId": 0
    },
    {
      "hash": "0x693af554e9af630b086a7e8cd3bcca3c93e025639e1e4dbeca423a4584fc8d5b",
      "blockHash": "0xc33733102239cdddc88a0180e9d5b192de2ed2d35a2eb96037373cf7acd1e190",
      "blockNumber": 85481,
      "transactionIndex": 1,
      "confirmations": null,
      "from": "0x32Be343B94f860124dC4fEe278FDCBD38C102D88",
      "gasPrice": {
        "_hex": "0xd674a17aa"
      },
      "gasLimit": {
        "_hex": "0x5208"
      },
      "to": "0x576e6acE6eBBaC590a6cb166598BFEbA1697BDB8",
      "value": {
        "_hex": "0x12f91642ac6af70000"
      },
      "nonce": 734,
      "data": "0x",
      "r": "0xf32f393de44175fa01bee80ec5228f27294b1597a9d54a747aee0a59a8678888",
      "s": "0x2f6c765cb55f695522f8298b5bc614fba4b564c4887e913bae94fd3e92ca5ecd",
      "v": 28,
      "creates": null,
      "raw": "0xf86f8202de850d674a17aa82520894576e6ace6ebbac590a6cb166598bfeba1697bdb88912f91642ac6af70000801ca0f32f393de44175fa01bee80ec5228f27294b1597a9d54a747aee0a59a8678888a02f6c765cb55f695522f8298b5bc614fba4b564c4887e913bae94fd3e92ca5ecd",
      "networkId": 0,
      "chainId": 0
    }
  ]
}