{
  "hash": "0xd2603967fb4cfe55078dfa32e29f9f7400d47c9c998674ce8defc83fab0678c3",
  "parentHash": "0x797bd0171d1cf2b28cd72ded4e986db8a52a538bfb4933e0715231612317063a",
  "number": 102091,
  "timestamp": 1439832759,
  "nonce": "0xe2c0a119796d9bf1",
  "difficulty": 3903218545589,
  "gasLimit": {
    "_hex": "0x2fefd8"
  },
  "gasUsed": {
    "_hex": "0x5208"
  },
  "miner": "0x88D74a59454F6cF3B51ef6b9136AFb6b9D405A88",
  "extraData": "0x476574682f76312e302e312d38326566323666362f6c696e75782f676f312e34",
  "transactions": [
    {
      "hash": "0xc9495a92ce3779bf41dabd5ebd9e227057af52203c9555253ce9286cac65ad58",
      "blockHash": "0xd2603967fb4cfe55078dfa32e29f9f7400d47c9c998674ce8defc83fab0678c3",
      "blockNumber": 102091,
      "transactionIndex": 0,
      "confirmations": null,
      "from": "0x007f7f58D3eb5b7510A301eCC749FC1fCDDBE14D",
      "gasPrice": {
        "_hex": "0xe0cfe7246"
      },
      "gasLimit": {
        "_hex": "0x15f90"
      },
      "to": "0xb1abce2918E21ddb93AA452731a12672A3d9F75a",
      "value": {
        "_hex": "0x4563918244f40000"
      },
      "nonce": 203,
      "data": "0x",
      "r": "0x36ad36ba2395ada8c811f3480685d719b30ec6da80b7b55e55c7871a2a5e6db1",
      "s": "0x5d0b3ec246b8d7455ce47294d053fcce3e734bf21041c9d52c3ab7e35ca50719",
      "v": 27,
      "creates": null,
      "raw": "0xf86e81cb850e0cfe724683015f9094b1abce2918e21ddb93aa452731a12672a3d9f75a884563918244f40000801ba036ad36ba2395ada8c811f3480685d719b30ec6da80b7b55e55c7871a2a5e6db1a05d0b3ec246b8d7455ce47294d053fcce3e734bf21041c9d52c3ab7e35ca50719",
      "networkId": 0,
      "chainId": 0
    }
  ]
}