{
  "hash": "0x70c19aba6c82a62a2c1386b3db9fdb78be00fd810fc71826e909688ef5d2805b",
  "parentHash": "0xceae575376b7e0390933cce9d4238230264c59d1c281b86e48902b8b07c5ae8c",
  "number": 106949,
  "timestamp": 1439913376,
  "nonce": "0xbe93403b742aa418",
  "difficulty": 4455034801239,
  "gasLimit": {
    "_hex": "0x2fefd8"
  },
  "gasUsed": {
    "_hex": "0x546c"
  },
  "miner": "0x9746c7e1ef2bd21FF3997fa467593a89cb852BD0",
  "extraData": "0x476574682f76312e302e312f77696e646f77732f676f312e342e32",
  "transactions": [
    {
      "hash": "0x2c32a5cda586e98dbfcdbbefdadeda38d3f8fa0865da652d6f36acb966b0d781",
      "blockHash": "0x70c19aba6c82a62a2c1386b3db9fdb78be00fd810fc71826e909688ef5d2805b",
      "blockNumber": 106949,
      "transactionIndex": 0,
      "confirmations": null,
      "from": "0xD785a8F18c38B9bC4FFB9b8fA8C7727bd642eE1c",
      "gasPrice": {
        "_hex": "0x110c8f7d8de"
      },
      "gasLimit": {
        "_hex": "0xc350"
      },
      "to": "0x2910543Af39abA0Cd09dBb2D50200b3E800A63D2",
      "value": {
        "_hex": "0x3627e8f712373c0000"
      },
      "nonce": 0,
      "data": "0x454e454b4856544a47",
      "r": "0x1fe713041c4831ccdeaf8100747bf891c40ef5b9360e8549653f61baabbf573c",
      "s": "0xa796f34d5de9630bf48c45a57aeaf1a40d298e877e004c790210087d996343ad",
      "v": 28,
      "creates": null,
      "raw": "0xf87780860110c8f7d8de82c350942910543af39aba0cd09dbb2d50200b3e800a63d2893627e8f712373c000089454e454b4856544a471ca01fe713041c4831ccdeaf8100747bf891c40ef5b9360e8549653f61baabbf573ca0a796f34d5de9630bf48c45a57aeaf1a40d298e877e004c790210087d996343ad",
      "networkId": 0,
      "chainId": 0
    }
  ]
}