{
  "hash": "0xb98d82aac320cef4c7a803d80c2cc8bc098449af9a22f7c77377dafb930b926f",
  "parentHash": "0x3c54a3c77fc86f2a4c6afc6566ea7bb36cd2522b12b51e6e4b1386a830b274f7",
  "number": 80047,
  "timestamp": 1439479302,
  "nonce": "0x15be2adee77bb668",
  "difficulty": 2352880278351,
  "gasLimit": {
    "_hex": "0x2fefd8"
  },
  "gasUsed": {
    "_hex": "0x1c065"
  },
  "miner": "0xe090Ffdced499691fA9379752a59F8A058c1eE4A",
  "extraData": "0x476574682f76312e302e312f6c696e75782f676f312e342e32",
  "transactions": [
    {
      "hash": "0xe0e13426da66d48b8a8f4c28ff914999f4ab74ad078935874d2d1845562cbb45",
      "blockHash": "0xb98d82aac320cef4c7a803d80c2cc8bc098449af9a22f7c77377dafb930b926f",
      "blockNumber": 80047,
      "transactionIndex": 0,
      "confirmations": null,
      "from": "0x87C5B5874A18B4306DF8a752a6C8cc3E82daFc19",
      "gasPrice": {
        "_hex": "0x11090a9310f"
      },
      "gasLimit": {
        "_hex": "0x493e0"
      },
      "to": "0xC4c51de1AbF5D60DBd329eC0F999Fd8f021ae9fC",
      "value": {
        "_hex": "0xa29f5d1dbdb2ee3a"
      },
      "nonce": 122,
      "data": "0x8d21618600000000000000000000000000000000000000000000000000000000000000408d5adaad541502933bfca57b79fdcf7b21a9ea7dbcf2e9321d253f5db02ac8f3",
      "r": "0x18713a4079955e8aa701855c80dcb20d115c1e870239576f6dcb311fdebb9130",
      "s": "0x0541c38f0dcd25ca6982ea0d615e8e9eb281ef2660c1cac6c0e83c82a7a319d1",
      "v": 28,
      "creates": null,
      "raw": "0xf8b37a86011090a9310f830493e094c4c51de1abf5d60dbd329ec0f999fd8f021ae9fc88a29f5d1dbdb2ee3ab8448d21618600000000000000000000000000000000000000000000000000000000000000408d5adaad541502933bfca57b79fdcf7b21a9ea7dbcf2e9321d253f5db02ac8f31ca018713a4079955e8aa701855c80dcb20d115c1e870239576f6dcb311fdebb9130a00541c38f0dcd25ca6982ea0d615e8e9eb281ef2660c1cac6c0e83c82a7a319d1",
      "networkId": 0,
      "chainId": 0
    },
    {
      "hash": "0xdb1d68a44f2979d81548da56a4008ba0078a85573a43285f633e763f4116b53e",
      "blockHash": "0xb98d82aac320cef4c7a803d80c2cc8bc098449af9a22f7c77377dafb930b926f",
      "blockNumber": 80047,
      "transactionIndex": 1,
      "confirmations": null,
      "from": "0x120A270bbC009644e35F0bB6ab13f95b8199c4ad",
      "gasPrice": {
        "_hex": "0xdf01e5514"
      },
      "gasLimit": {
        "_hex": "0x3d090"
      },
      "to": "0x2910543Af39abA0Cd09dBb2D50200b3E800A63D2",
      "value": {
        "_hex": "0x5ff20a91f724000"
      },
      "nonce": 338,
      "data": "0x",
      "r": "0x984c31d401561e7575b68abf57921b9ac29770e1c57f888943a8111b492df5dd",
      "s": "0x3d9b6ee4a1d1796dac85d57b6dc47ee4a03e7c9bb802916806d5d13003405454",
      "v": 28,
      "creates": null,
      "raw": "0xf86f820152850df01e55148303d090942910543af39aba0cd09dbb2d50200b3e800a63d28805ff20a91f724000801ca0984c31d401561e7575b68abf57921b9ac29770e1c57f888943a8111b492df5dda03d9b6ee4a1d1796dac85d57b6dc47ee4a03e7c9bb802916806d5d13003405454",
      "networkId": 0,
      "chainId": 0
    },
    {
      "hash": "0x8923998e0c9061913c66c2008d2ab7ab84b1d2733975b9bfeceb2e8056cee1bc",
      "blockHash": "0xb98d82aac320cef4c7a803d80c2cc8bc098449af9a22f7c77377dafb930b926f",
      "blockNumber": 80047,
      "transactionIndex": 2,
      "confirmations": null,
      "from": "0x6e9E0a2aAa3c4d41aa69f4E7328095278284f7e2",
      "gasPrice": {
        "_hex": "0xcf63775b7"
      },
      "gasLimit": {
        "_hex": "0x15f90"
      },
      "to": "0x15674e39f68d518367ECDd22cB73534Cb74bDC28",
      "value": {
        "_hex": "0xde0b6b3a7640000"
      },
      "nonce": 0,
      "data": "0x",
      "r": "0x4eca4518cfe8a09713b6c8e02c2d90f2a9c921579c0755a45cac4bb69c9d437c",
      "s": "0x3bc605017de50cccc9539027903ca2b83c50adc38b2d5b74832b67178b709236",
      "v": 27,
      "creates": null,
      "raw": "0xf86d80850cf63775b783015f909415674e39f68d518367ecdd22cb73534cb74bdc28880de0b6b3a7640000801ba04eca4518cfe8a09713b6c8e02c2d90f2a9c921579c0755a45cac4bb69c9d437ca03bc605017de50cccc9539027903ca2b83c50adc38b2d5b74832b67178b709236",
      "networkId": 0,
      "chainId": 0
    },
    {
      "hash": "0x17744990f9fbc3f42ab3a9822c3565c9c8d69d0041ea649eed00681a247da06f",
      "blockHash": "0xb98d82aac320cef4c7a803d80c2cc8bc098449af9a22f7c77377dafb930b926f",
      "blockNumber": 80047,
      "transactionIndex": 3,
      "confirmations": null,
      "from": "0xf747F959535B01d4BfDAB64A40DB48D0D6c68edb",
      "gasPrice": {
        "_hex": "0xba43b7400"
      },
      "gasLimit": {
        "_hex": "0x5208"
      },
      "to": "0xC47Aaa860008be6f65B58c6C6E02a84e666EfE31",
      "value": {
        "_hex": "0x55b129e33975d800"
      },
      "nonce": 1,
      "data": "0x",
      "r": "0xc61c18b2626ce29e24126394e61fcbc00ff72ceff75072af75d70f45476668df",
      "s": "0x3171d32dedb72783e2b77a148fd655f43af3f80952c611f9fba5c19c02bd69ee",
      "v": 27,
      "creates": null,
      "raw": "0xf86c01850ba43b740082520894c47aaa860008be6f65b58c6c6e02a84e666efe318855b129e33975d800801ba0c61c18b2626ce29e24126394e61fcbc00ff72ceff75072af75d70f45476668dfa03171d32dedb72783e2b77a148fd655f43af3f80952c611f9fba5c19c02bd69ee",
      "networkId": 0,
      "chainId": 0
    }
  ]
}