{
  "hash": "0x7e5b70687038977f1a7057b6228036578193edfb435ef836a9657dfa938d2072",
  "parentHash": "0x3595fc69cd10f0c4fa1e1087b0e0d5e13c82b9d384f0e048fbb3af5785c9e611",
  "number": 96486,
  "timestamp": 1439741184,
  "nonce": "0x6eb49d4b6a5e5ff9",
  "difficulty": 3663814435572,
  "gasLimit": {
    "_hex": "0x2fefd8"
  },
  "gasUsed": {
    "_hex": "0x5208"
  },
  "miner": "0x87898CE53471043FcCa0a2aF4E1dC6d8B3fCf607",
  "extraData": "0x476574682f5369626572696131392f76312e302e312d39393231366634612f6c",
  "transactions": [
    {
      "hash": "0x8492fbdfe19c94ce893ed530598ad0066f30bb7976ac3af98dc4010dd24ccbb7",
      "blockHash": "0x7e5b70687038977f1a7057b6228036578193edfb435ef836a9657dfa938d2072",
      "blockNumber": 96486,
      "transactionIndex": 0,
      "confirmations": null,
      "from": "0x40B9b889A21Ff1534d018D71Dc406122EBcf3F5A",
      "gasPrice": {
        "_hex": "0x114dd16e968"
      },
      "gasLimit": {
        "_hex": "0x15f90"
      },
      "to": "0x645B979F8ce622236DB26feB803455d40C328615",
      "value": {
        "_hex": "0x59725991ece2880000"
      },
      "nonce": 30,
      "data": "0x",
      "r": "0xc2b8257b4993b1a242bb3a1728e75272f8023a489bd5a89adcdba77107aa872a",
      "s": "0x038033780d3ed8c6d49a22f3bcddd72a94afd843c2c67011ecc92c1f5bf18d6d",
      "v": 27,
      "creates": null,
      "raw": "0xf86f1e860114dd16e96883015f9094645b979f8ce622236db26feb803455d40c3286158959725991ece2880000801ba0c2b8257b4993b1a242bb3a1728e75272f8023a489bd5a89adcdba77107aa872aa0038033780d3ed8c6d49a22f3bcddd72a94afd843c2c67011ecc92c1f5bf18d6d",
      "networkId": 0,
      "chainId": 0
    }
  ]
}