{
  "hash": "0x0e29312f7a5c2fe6c543bba97a9af9abbabee85f32f474aaf13db61921f08306",
  "parentHash": "0xbb62fbe423b5907cfc9fadbc581fec71c3ecbd8c3ec70bb0cd7e925a6274ff2f",
  "number": 56156,
  "timestamp": 1439082852,
  "nonce": "0xf3be1babf1cabf1b",
  "difficulty": 1640036827749,
  "gasLimit": {
    "_hex": "0x2fefd5"
  },
  "gasUsed": {
    "_hex": "0xf618"
  },
  "miner": "0xbb7B8287f3F0a933474a79eAe42CBCa977791171",
  "extraData": "0x476574682f4c5649562f76312e302e312f6c696e75782f676f312e342e32",
  "transactions": [
    {
      "hash": "0xd60e9be33c83c892f15b9c753367ce0035a7bff4be180279f657686948b686e2",
      "blockHash": "0x0e29312f7a5c2fe6c543bba97a9af9abbabee85f32f474aaf13db61921f08306",
      "blockNumber": 56156,
      "transactionIndex": 0,
      "confirmations": null,
      "from": "0xC759dc67E0c3816fdC56A2f5bb29920fc07e767D",
      "gasPrice": {
        "_hex": "0xd4f1f619d"
      },
      "gasLimit": {
        "_hex": "0x5208"
      },
      "to": "0x910a4aADabb3A7B3F7879118332E13Da66b68D77",
      "value": {
        "_hex": "0xd02ab486cedc0000"
      },
      "nonce": 8,
      "data": "0x",
      "r": "0xedcaed0c00a0312acd279d1605659a734080e7fd913d63bbcc3b87674734b36c",
      "s": "0x3c0cbbbaba8734880752337453eabf6bae535b1a15c8a1efdf250a16d1684992",
      "v": 27,
      "creates": null,
      "raw": "0xf86c08850d4f1f619d82520894910a4aadabb3a7b3f7879118332e13da66b68d7788d02ab486cedc0000801ba0edcaed0c00a0312acd279d1605659a734080e7fd913d63bbcc3b87674734b36ca03c0cbbbaba8734880752337453eabf6bae535b1a15c8a1efdf250a16d1684992",
      "networkId": 0,
      "chainId": 0
    },
    {
      "hash": "0x48b89c73a1e98d8d1c1900f4868fa5b370f038db4c897e0b7c3c14c60f348f3d",
      "blockHash": "0x0e29312f7a5c2fe6c543bba97a9af9abbabee85f32f474aaf13db61921f08306",
      "blockNumber": 56156,
      "transactionIndex": 1,
      "confirmations": null,
      "from": "0xc842A75953D9E17E9eCEA6EF339133b0e111b714",
      "gasPrice": {
        "_hex": "0xd3f29e10e"
      },
      "gasLimit": {
        "_hex": "0x15f90"
      },
      "to": "0x946B4421c64331bdAe148e6F27d66B92612E0BF6",
      "value": {
        "_hex": "0x1a171a0a11bc0000"
      },
      "nonce": 2,
      "data": "0x",
      "r": "0x8908c694191704fe07b01b418ca565c3897cc55ecfdb8c0ef0a6a5ac882e56bd",
      "s": "0x36ae04331986d49e11caafd6d5e0d18a0f263de5ffd9abf4cfe81d09551eaeb5",
      "v": 27,
      "creates": null,
      "raw": "0xf86d02850d3f29e10e83015f9094946b4421c64331bdae148e6f27d66b92612e0bf6881a171a0a11bc0000801ba08908c694191704fe07b01b418ca565c3897cc55ecfdb8c0ef0a6a5ac882e56bda036ae04331986d49e11caafd6d5e0d18a0f263de5ffd9abf4cfe81d09551eaeb5",
      "networkId": 0,
      "chainId": 0
    },
    {
      "hash": "0x8846597be094bc37e1139b8eb8bae4fa3aa13c4adbbbd1c02bdcd3911d8ddeb2",
      "blockHash": "0x0e29312f7a5c2fe6c543bba97a9af9abbabee85f32f474aaf13db61921f08306",
      "blockNumber": 56156,
      "transactionIndex": 2,
      "confirmations": null,
      "from": "0x632bb14025BA69A50f8C99F962998F06b70F76b4",
      "gasPrice": {
        "_hex": "0xba43b7400"
      },
      "gasLimit": {
        "_hex": "0x5b04"
      },
      "to": "0xc2935c7B62d9127B3E3a96eB685F937AE94CdA94",
      "value": {
        "_hex": "0x361a08405e8fd80000"
      },
      "nonce": 1,
      "data": "0x",
      "r": "0x285f7dc8d812438ca80192faaca055315e9ee2428b3141f4d10aac715d37f374",
      "s": "0xf60e96918c8a13481e54474bf6c8520c282d058f71c16a5a9b91d52b075d597e",
      "v": 28,
      "creates": null,
      "raw": "0xf86d01850ba43b7400825b0494c2935c7b62d9127b3e3a96eb685f937ae94cda9489361a08405e8fd80000801ca0285f7dc8d812438ca80192faaca055315e9ee2428b3141f4d10aac715d37f374a0f60e96918c8a13481e54474bf6c8520c282d058f71c16a5a9b91d52b075d597e",
      "networkId": 0,
      "chainId": 0
    }
  ]
}