{
  "hash": "0xfbf8f0b946321d90859502efb4ad5977f575e1218b754a4b256fc14f2b40dfbd",
  "parentHash": "0xec960065e6fdb59ae003a36207c967eed1c5ee53c79535d18b16e766966e08dc",
  "number": 48015,
  "timestamp": 1438949929,
  "nonce": "0x14f74f9b9cf52209",
  "difficulty": 1462235625781,
  "gasLimit": {
    "_hex": "0x11910"
  },
  "gasUsed": {
    "_hex": "0x5208"
  },
  "miner": "0xF2d2AfF1320476cb8C6b607199D23175cc595693",
  "extraData": "0x476574682f76312e302e312f77696e646f77732f676f312e342e32",
  "transactions": [
    {
      "hash": "0xbe3cdb8938256c452d21941013d1037bc3b74116217271a85cd3f50639e5e48b",
      "blockHash": "0xfbf8f0b946321d90859502efb4ad5977f575e1218b754a4b256fc14f2b40dfbd",
      "blockNumber": 48015,
      "transactionIndex": 0,
      "confirmations": null,
      "from": "0xbb7B8287f3F0a933474a79eAe42CBCa977791171",
      "gasPrice": {
        "_hex": "0x746a528800"
      },
      "gasLimit": {
        "_hex": "0x61a8"
      },
      "to": "0xBb990e55844f15Ac000cEB515D5a2A315Db9CB0B",
      "value": {
        "_hex": "0xde0b6b3a7640000"
      },
      "nonce": 0,
      "data": "0x",
      "r": "0xd3bde2442a52937df347b9f78cd4f93bf34203d49980a4198ab85dd6dc55164a",
      "s": "0x110c98317b66e541a20f30b5baab5d26c43fb594d033b9df9556f2746b76324c",
      "v": 28,
      "creates": null,
      "raw": "0xf86c8085746a5288008261a894bb990e55844f15ac000ceb515d5a2a315db9cb0b880de0b6b3a7640000801ca0d3bde2442a52937df347b9f78cd4f93bf34203d49980a4198ab85dd6dc55164aa0110c98317b66e541a20f30b5baab5d26c43fb594d033b9df9556f2746b76324c",
      "networkId": 0,
      "chainId": 0
    }
  ]
}