{
  "hash": "0xef61b3a87dc4f80302071d8300b134d0b8fefddc86069652e1ea53dd437abec4",
  "parentHash": "0x2797e15a1633754305efb60b3affa91d2853738e10a2f7aa7e2aacde967e581d",
  "number": 99409,
  "timestamp": 1439789613,
  "nonce": "0x1f3285d20b7dc357",
  "difficulty": 3791737369598,
  "gasLimit": {
    "_hex": "0x2fefd8"
  },
  "gasUsed": {
    "_hex": "0x5208"
  },
  "miner": "0x2E150c676CFf77ffcE03140E68871A96270B950b",
  "extraData": "0x476574682f76312e302e312f77696e646f77732f676f312e342e32",
  "transactions": [
    {
      "hash": "0x2649e1f88594af69c295574bfe8292c9bdf03208dfd6056ad5f5c0886c5667b0",
      "blockHash": "0xef61b3a87dc4f80302071d8300b134d0b8fefddc86069652e1ea53dd437abec4",
      "blockNumber": 99409,
      "transactionIndex": 0,
      "confirmations": null,
      "from": "0x7884D470204862a0d1A21122F41ee77430396Ee5",
      "gasPrice": {
        "_hex": "0xd90814ecd"
      },
      "gasLimit": {
        "_hex": "0x15f90"
      },
      "to": "0xe38587E3798eFE31452257251Ff1aBd1adf738FE",
      "value": {
        "_hex": "0x13fbe85edc90000"
      },
      "nonce": 35,
      "data": "0x",
      "r": "0x0c33a2f0a5236a386b44bf30373c334ac4a601749b297db48bd048de9c8ff0aa",
      "s": "0x1c3cf9dcdb6b56c8bef620ee4a443f7a883b75185132e0cc64df9b054c8792cc",
      "v": 27,
      "creates": null,
      "raw": "0xf86d23850d90814ecd83015f9094e38587e3798efe31452257251ff1abd1adf738fe88013fbe85edc90000801ba00c33a2f0a5236a386b44bf30373c334ac4a601749b297db48bd048de9c8ff0aaa01c3cf9dcdb6b56c8bef620ee4a443f7a883b75185132e0cc64df9b054c8792cc",
      "networkId": 0,
      "chainId": 0
    }
  ]
}