{
  "hash": "0xcb0bc26843778885a88c7b9852aa0c9b5309b5b314daa6fe71a189e774a722e9",
  "parentHash": "0xb72d0273f2ed27730220c5ea8d4428043b8809fe6574b372a58387102f96216e",
  "number": 122199,
  "timestamp": 1440189825,
  "nonce": "0x03b352a3b5fa7b35",
  "difficulty": 4486199890917,
  "gasLimit": {
    "_hex": "0x2fefd8"
  },
  "gasUsed": {
    "_hex": "0x5208"
  },
  "miner": "0xf8E0CA3Ed80bd541b94BEdCf259e8CF2141A9523",
  "extraData": "0x",
  "transactions": [
    {
      "hash": "0x27a63d5fcba891fc8a3ec452b8b5dc43da841de9552dddcec29d778d44f56dfc",
      "blockHash": "0xcb0bc26843778885a88c7b9852aa0c9b5309b5b314daa6fe71a189e774a722e9",
      "blockNumber": 122199,
      "transactionIndex": 0,
      "confirmations": null,
      "from": "0x1088F2CB8324A270c8D7E71083449a0722820D99",
      "gasPrice": {
        "_hex": "0xba43b7400"
      },
      "gasLimit": {
        "_hex": "0x5208"
      },
      "to": "0xFBb1b73C4f0BDa4f67dcA266ce6Ef42f520fBB98",
      "value": {
        "_hex": "0xdb974c90a9f6000"
      },
      "nonce": 3,
      "data": "0x",
      "r": "0x209cf87bbdf34de52519a009c4e4fb007f242939a22442b5c274973b24bc2c25",
      "s": "0x726fffc11ab43d7b38f0792d34a540613b85b57447f3d5db661b101167b4d985",
      "v": 28,
      "creates": null,
      "raw": "0xf86c03850ba43b740082520894fbb1b73c4f0bda4f67dca266ce6ef42f520fbb98880db974c90a9f6000801ca0209cf87bbdf34de52519a009c4e4fb007f242939a22442b5c274973b24bc2c25a0726fffc11ab43d7b38f0792d34a540613b85b57447f3d5db661b101167b4d985",
      "networkId": 0,
      "chainId": 0
    }
  ]
}