{
  "hash": "0x249f55e5bb0c0c4dcc73b9d0d4cd6046c77f664f075c699bbad7f22191aa76c8",
  "parentHash": "0xcb32440efe3755ce736a999e25ac7e082b24dd9cd7e9a976d093e20f169c4714",
  "number": 90960,
  "timestamp": 1439648047,
  "nonce": "0x9bb266b400ff54a8",
  "difficulty": 3420639793999,
  "gasLimit": {
    "_hex": "0x2fefd8"
  },
  "gasUsed": {
    "_hex": "0x5208"
  },
  "miner": "0x7E6930B63D03e88F5928C5cd6ee3FCee4D714F7F",
  "extraData": "0x",
  "transactions": [
    {
      "hash": "0x73fd91ce77cf9d14aa5371310dcfe821ef2aa96b3fa10d4f45875893671962ff",
      "blockHash": "0x249f55e5bb0c0c4dcc73b9d0d4cd6046c77f664f075c699bbad7f22191aa76c8",
      "blockNumber": 90960,
      "transactionIndex": 0,
      "confirmations": null,
      "from": "0x198D56231387bCe73779303B332E48A8b29aAe06",
      "gasPrice": {
        "_hex": "0xd8750fb52"
      },
      "gasLimit": {
        "_hex": "0x5208"
      },
      "to": "0x32Be343B94f860124dC4fEe278FDCBD38C102D88",
      "value": {
        "_hex": "0x1af12c9898a8e10000"
      },
      "nonce": 1,
      "data": "0x",
      "r": "0xf4e648d1f6196f5365effa202eed3844189508477a4f9b91c96f206de4898303",
      "s": "0x53a7fd3158c97b28e484e3eaa4b3e3eafe22cdce6b521f470af03384a3b272e1",
      "v": 28,
      "creates": null,
      "raw": "0xf86d01850d8750fb528252089432be343b94f860124dc4fee278fdcbd38c102d88891af12c9898a8e10000801ca0f4e648d1f6196f5365effa202eed3844189508477a4f9b91c96f206de4898303a053a7fd3158c97b28e484e3eaa4b3e3eafe22cdce6b521f470af03384a3b272e1",
      "networkId": 0,
      "chainId": 0
    }
  ]
}