{
  "hash": "0x5f382bd7e1506d2bc2225e95ed34ce2a4d4711ed9382ad013ad6877aba937f55",
  "parentHash": "0x4e30b475260a5a851ba99c74a39f86373ff8f6a4af102f0d066309d1d8ab4700",
  "number": 120077,
  "timestamp": 1440153599,
  "nonce": "0x34af93ae4077fb40",
  "difficulty": 4409145161266,
  "gasLimit": {
    "_hex": "0x2fefd8"
  },
  "gasUsed": {
    "_hex": "0xa410"
  },
  "miner": "0xe6A7a1d47ff21B6321162AEA7C6CB457D5476Bca",
  "extraData": "0xd783010002844765746887676f312e342e32856c696e7578",
  "transactions": [
    {
      "hash": "0x157fad05000baad54c93583526339911d28fda133dece7ed3a3072ce099eb6ed",
      "blockHash": "0x5f382bd7e1506d2bc2225e95ed34ce2a4d4711ed9382ad013ad6877aba937f55",
      "blockNumber": 120077,
      "transactionIndex": 0,
      "confirmations": null,
      "from": "0xc15fa6D616245a5c7B7D75A6dFDcA10C0250BD2B",
      "gasPrice": {
        "_hex": "0xba43b7400"
      },
      "gasLimit": {
        "_hex": "0x15f90"
      },
      "to": "0xdeE4977F74E6Aef6D627191c9A45D2627e331150",
      "value": {
        "_hex": "0x15af1d78b58c40000"
      },
      "nonce": 21,
      "data": "0x",
      "r": "0xac66c6decc16affff67d0369d3b1a8e0ec70d6f87973e1400cbc3497912e52cc",
      "s": "0x4893fd628949d9633cb69f6bc72927856385af64c5f24c3eb84b51d303bda507",
      "v": 28,
      "creates": null,
      "raw": "0xf86e15850ba43b740083015f9094dee4977f74e6aef6d627191c9a45d2627e33115089015af1d78b58c40000801ca0ac66c6decc16affff67d0369d3b1a8e0ec70d6f87973e1400cbc3497912e52cca04893fd628949d9633cb69f6bc72927856385af64c5f24c3eb84b51d303bda507",
      "networkId": 0,
      "chainId": 0
    },
    {
      "hash": "0xbf112efe34b907b60242ba4b2f86010380829c95ec1e81ea6662e109fe2574d2",
      "blockHash": "0x5f382bd7e1506d2bc2225e95ed34ce2a4d4711ed9382ad013ad6877aba937f55",
      "blockNumber": 120077,
      "transactionIndex": 1,
      "confirmations": null,
      "from": "0x55192e9eEF50b024e6800e4657590f33D1070545",
      "gasPrice": {
        "_hex": "0xba43b7400"
      },
      "gasLimit": {
        "_hex": "0x5208"
      },
      "to": "0x32Be343B94f860124dC4fEe278FDCBD38C102D88",
      "value": {
        "_hex": "0xddcfbbb7a606000"
      },
      "nonce": 2,
      "data": "0x",
      "r": "0xb27030a1ebfbbd609bd5a644547f5574487e76d08d05f642735390aa96beb592",
      "s": "0x10ec52714a3e21bd6d10da90dd5f509f6c266d7e20842c6d4139abbca61488f2",
      "v": 28,
      "creates": null,
      "raw": "0xf86c02850ba43b74008252089432be343b94f860124dc4fee278fdcbd38c102d88880ddcfbbb7a606000801ca0b27030a1ebfbbd609bd5a644547f5574487e76d08d05f642735390aa96beb592a010ec52714a3e21bd6d10da90dd5f509f6c266d7e20842c6d4139abbca61488f2",
      "networkId": 0,
      "chainId": 0
    }
  ]
}