{
  "hash": "0x1caa609c1e2481ef7cbd2c69f65f6610ed552a2ae021ab4145c7d79386650b02",
  "parentHash": "0x75aab496c55850337fa14fb476014ee4a1fa927bfd68811df7783403962bb3a1",
  "number": 91519,
  "timestamp": 1439657013,
  "nonce": "0x5fdf3430b2b5f942",
  "difficulty": 3482767991662,
  "gasLimit": {
    "_hex": "0x2fefd8"
  },
  "gasUsed": {
    "_hex": "0x5208"
  },
  "miner": "0xa5ae41B379Eed185cbf636352aCBa8a960946076",
  "extraData": "0x476574682f76312e302e312d38326566323666362f6c696e75782f676f312e34",
  "transactions": [
    {
      "hash": "0xdef57eac34ee9f9db9035cd0d56e65b2c62debaeace4191cc2aa3b3107dc278d",
      "blockHash": "0x1caa609c1e2481ef7cbd2c69f65f6610ed552a2ae021ab4145c7d79386650b02",
      "blockNumber": 91519,
      "transactionIndex": 0,
      "confirmations": null,
      "from": "0x2910543Af39abA0Cd09dBb2D50200b3E800A63D2",
      "gasPrice": {
        "_hex": "0xcdb44585e"
      },
      "gasLimit": {
        "_hex": "0x5208"
      },
      "to": "0xC147Db56b2dd9844Db5b4Df5c74651ef4D60D10d",
      "value": {
        "_hex": "0x11c37937e08000"
      },
      "nonce": 808,
      "data": "0x",
      "r": "0xaaf1ea47bc7d8fe23f2eb0b61da3ceb2a32a8e9f3294e33a8a142afa685886c5",
      "s": "0x4af66c28d8afb301bb8cd829c9450016918fd8be18348dd10e7b365a74fa3053",
      "v": 28,
      "creates": null,
      "raw": "0xf86d820328850cdb44585e82520894c147db56b2dd9844db5b4df5c74651ef4d60d10d8711c37937e08000801ca0aaf1ea47bc7d8fe23f2eb0b61da3ceb2a32a8e9f3294e33a8a142afa685886c5a04af66c28d8afb301bb8cd829c9450016918fd8be18348dd10e7b365a74fa3053",
      "networkId": 0,
      "chainId": 0
    }
  ]
}