{
  "hash": "0xfce976bc1af683e426aa2556db9721252caf32086ce6fcc16a36c22f44cf6e25",
  "parentHash": "0xfaabe09294fa9a947f59aef71d06163772451b9b6cbc9783161642f547d0ef02",
  "number": 98132,
  "timestamp": 1439767509,
  "nonce": "0x9e5a0759ffabdad1",
  "difficulty": 3880351622041,
  "gasLimit": {
    "_hex": "0x2fefd8"
  },
  "gasUsed": {
    "_hex": "0x5208"
  },
  "miner": "0xca3Ce19d512bEdA23b61bDD59C27Eb1Ec2393c1f",
  "extraData": "0x",
  "transactions": [
    {
      "hash": "0x3e9654e3763f26665f3dd6431b158f939f0928d1142f3fcf8102d20af73ac233",
      "blockHash": "0xfce976bc1af683e426aa2556db9721252caf32086ce6fcc16a36c22f44cf6e25",
      "blockNumber": 98132,
      "transactionIndex": 0,
      "confirmations": null,
      "from": "0xa7ae731fD9EbF24D5a99104a3c2a65a7240B2B04",
      "gasPrice": {
        "_hex": "0xcbcedd0f0"
      },
      "gasLimit": {
        "_hex": "0x5208"
      },
      "to": "0x32Be343B94f860124dC4fEe278FDCBD38C102D88",
      "value": {
        "_hex": "0x56bc3494242ae0000"
      },
      "nonce": 1,
      "data": "0x",
      "r": "0xf129d2e8b89c9bd34cb9c2924dbcd9043cd407b7d41a3c44b90a7051a61c65d7",
      "s": "0x56c8aace410935e33c97eb01515ceeaaae1dd5effd1fa16cd67abe7047bb20ac",
      "v": 28,
      "creates": null,
      "raw": "0xf86d01850cbcedd0f08252089432be343b94f860124dc4fee278fdcbd38c102d8889056bc3494242ae0000801ca0f129d2e8b89c9bd34cb9c2924dbcd9043cd407b7d41a3c44b90a7051a61c65d7a056c8aace410935e33c97eb01515ceeaaae1dd5effd1fa16cd67abe7047bb20ac",
      "networkId": 0,
      "chainId": 0
    }
  ]
}