{
  "hash": "0x2fdd3e91aad7bbf5dcecea87d91ef750197b6f07e44e23f02024266cfc73fb98",
  "parentHash": "0xc3516d159e81cafe3f3a1a307210b0e5c8113f9ef5b7ed7fc122aa1e6b507207",
  "number": 47158,
  "timestamp": 1438935218,
  "nonce": "0x61effce5f97cc402",
  "difficulty": 1458819097373,
  "gasLimit": {
    "_hex": "0x9d2b"
  },
  "gasUsed": {
    "_hex": "0x5208"
  },
  "miner": "0xf927a40C8B7F6E07c5af7FA2155B4864a4112B13",
  "extraData": "0x476574682f76312e302e312f6c696e75782f676f312e342e32",
  "transactions": [
    {
      "hash": "0x3ffe3ddcf4c0591b40c63ca5d2d4193079cdd866c3ea7e2f345a40bceed0a401",
      "blockHash": "0x2fdd3e91aad7bbf5dcecea87d91ef750197b6f07e44e23f02024266cfc73fb98",
      "blockNumber": 47158,
      "transactionIndex": 0,
      "confirmations": null,
      "from": "0xe6A7a1d47ff21B6321162AEA7C6CB457D5476Bca",
      "gasPrice": {
        "_hex": "0xcf1c50e9c"
      },
      "gasLimit": {
        "_hex": "0x5208"
      },
      "to": "0xAd44b715a1335e19b2EfF8699E2ABef33483880C",
      "value": {
        "_hex": "0x43fe3e55a0d306c8"
      },
      "nonce": 58,
      "data": "0x",
      "r": "0x945a8a175d515881d6812343ee3000f95fd72ca058642e5691c247ade4740343",
      "s": "0x33609ec40e7fe5947c9b2bfa0bf8d4c080130909885cff747e445df9346adfc9",
      "v": 28,
      "creates": null,
      "raw": "0xf86c3a850cf1c50e9c82520894ad44b715a1335e19b2eff8699e2abef33483880c8843fe3e55a0d306c8801ca0945a8a175d515881d6812343ee3000f95fd72ca058642e5691c247ade4740343a033609ec40e7fe5947c9b2bfa0bf8d4c080130909885cff747e445df9346adfc9",
      "networkId": 0,
      "chainId": 0
    }
  ]
}