{
  "hash": "0xd384734bb7a52673fa03a47581f183fcd3f9e42e7b7ad3fdd2684845c3b16234",
  "parentHash": "0xecb17f99bf506b5c4a630cef9de12e522455ac9b4dc44ab65be880dbb6693db8",
  "number": 49136,
  "timestamp": 1438968672,
  "nonce": "0x80b847bd5a316a43",
  "difficulty": 1475667199157,
  "gasLimit": {
    "_hex": "0x26cfe"
  },
  "gasUsed": {
    "_hex": "0xa674"
  },
  "miner": "0x9746c7e1ef2bd21FF3997fa467593a89cb852BD0",
  "extraData": "0x476574682f76312e302e312f77696e646f77732f676f312e342e32",
  "transactions": [
    {
      "hash": "0x42fd5de34cc14768a07f53bc0568f93f63e48245ba93a10f76a718b608236a10",
      "blockHash": "0xd384734bb7a52673fa03a47581f183fcd3f9e42e7b7ad3fdd2684845c3b16234",
      "blockNumber": 49136,
      "transactionIndex": 0,
      "confirmations": null,
      "from": "0xED1a5c43C574D4E934299B24f1472cDc9fD6f010",
      "gasPrice": {
        "_hex": "0xd9aa458d6"
      },
      "gasLimit": {
        "_hex": "0x15f90"
      },
      "to": "0x13f418c203E89b6Fa20D46b90f7134abB7B3eDd9",
      "value": {
        "_hex": "0xde0b6b3a7640000"
      },
      "nonce": 0,
      "data": "0x",
      "r": "0x461afaab17e50970c6d851a2a72188cac6fa94752288ee9ef4021a01deab218f",
      "s": "0x76f730ad18a0a6a0ca633daaafbab3f07ca631e7d865c70d9c105953a0a36f62",
      "v": 27,
      "creates": null,
      "raw": "0xf86d80850d9aa458d683015f909413f418c203e89b6fa20d46b90f7134abb7b3edd9880de0b6b3a7640000801ba0461afaab17e50970c6d851a2a72188cac6fa94752288ee9ef4021a01deab218fa076f730ad18a0a6a0ca633daaafbab3f07ca631e7d865c70d9c105953a0a36f62",
      "networkId": 0,
      "chainId": 0
    },
    {
      "hash": "0x367ec0b5cafdc2f46780005f9c19380251ae188c206dbab0a04478e3e1986f21",
      "blockHash": "0xd384734bb7a52673fa03a47581f183fcd3f9e42e7b7ad3fdd2684845c3b16234",
      "blockNumber": 49136,
      "transactionIndex": 1,
      "confirmations": null,
      "from": "0x6c62451A24cE7F7E2D068e72E72E0bA9d7a125Ad",
      "gasPrice": {
        "_hex": "0xd2e5a658d"
      },
      "gasLimit": {
        "_hex": "0x7530"
      },
      "to": "0x2910543Af39abA0Cd09dBb2D50200b3E800A63D2",
      "value": {
        "_hex": "0x9985e5236bc240000"
      },
      "nonce": 0,
      "data": "0x454e52315751343752",
      "r": "0xd388339a39210d4235fd98f0f6b83262eff29c4018491b3d03ab6c53bdf7c0fa",
      "s": "0x14758ad7cbd4f673fbeb1b85906550ce082f9f389643dfc232380afdf76ec693",
      "v": 27,
      "creates": null,
      "raw": "0xf87680850d2e5a658d827530942910543af39aba0cd09dbb2d50200b3e800a63d28909985e5236bc24000089454e523157513437521ba0d388339a39210d4235fd98f0f6b83262eff29c4018491b3d03ab6c53bdf7c0faa014758ad7cbd4f673fbeb1b85906550ce082f9f389643dfc232380afdf76ec693",
      "networkId": 0,
      "chainId": 0
    }
  ]
}