{
  "hash": "0x5f7f4dff5cffa2323732c8ad6bffd7bc58d691e5900bf22b068d9a14bd4dd888",
  "parentHash": "0xc8f2d02abc41a10a1501723d4f1b746f77f565990018545e78f8b3ee5a6c4ba8",
  "number": 103879,
  "timestamp": 1439860349,
  "nonce": "0x5d551b3d99f4ca83",
  "difficulty": 4248429048180,
  "gasLimit": {
    "_hex": "0x2fefd8"
  },
  "gasUsed": {
    "_hex": "0x5208"
  },
  "miner": "0x580992B51e3925e23280EfB93d3047C82f17E038",
  "extraData": "0x476574682f76312e302e312f6c696e75782f676f312e342e32",
  "transactions": [
    {
      "hash": "0x578ea852b85359b997f5e2ff5b840bd82bad15327e4438cb8db29a1451fe1b25",
      "blockHash": "0x5f7f4dff5cffa2323732c8ad6bffd7bc58d691e5900bf22b068d9a14bd4dd888",
      "blockNumber": 103879,
      "transactionIndex": 0,
      "confirmations": null,
      "from": "0x120A270bbC009644e35F0bB6ab13f95b8199c4ad",
      "gasPrice": {
        "_hex": "0xccddd3c31"
      },
      "gasLimit": {
        "_hex": "0x3d090"
      },
      "to": "0xcCF7110d1Bd9A74bfd1d7d7d2d9D55607E7B837d",
      "value": {
        "_hex": "0x1babe4bea4b7bb000"
      },
      "nonce": 730,
      "data": "0x",
      "r": "0x4c9263e7a37426edaa1bc2c1c6191572e132e9d0944de3051521848a29462475",
      "s": "0x6f67071a839d64cb6877efdd3b9caa1eb4045cff1bfb9a4b8984d51e72dca13a",
      "v": 28,
      "creates": null,
      "raw": "0xf8708202da850ccddd3c318303d09094ccf7110d1bd9a74bfd1d7d7d2d9d55607e7b837d8901babe4bea4b7bb000801ca04c9263e7a37426edaa1bc2c1c6191572e132e9d0944de3051521848a29462475a06f67071a839d64cb6877efdd3b9caa1eb4045cff1bfb9a4b8984d51e72dca13a",
      "networkId": 0,
      "chainId": 0
    }
  ]
}