{
  "hash": "0xa0e04533696aceb12a418b1f2627265264e76e9c2c068cf265be3947e00f5446",
  "parentHash": "0x95d5e92306447b4624a6f9bb09ce7ac89d531c03b287a686fe6d228e3d71ce97",
  "number": 85515,
  "timestamp": 1439564834,
  "nonce": "0xb248607e61fb7e8d",
  "difficulty": 2762458977023,
  "gasLimit": {
    "_hex": "0x2fefd8"
  },
  "gasUsed": {
    "_hex": "0x5208"
  },
  "miner": "0xe6A7a1d47ff21B6321162AEA7C6CB457D5476Bca",
  "extraData": "0x476574682f76312e302e312d38326566323666362f6c696e75782f676f312e34",
  "transactions": [
    {
      "hash": "0xaeee3b2522c6b97c6a12fe0c50fe56501ff9c532a5326a1ae0587da0f8f96b5f",
      "blockHash": "0xa0e04533696aceb12a418b1f2627265264e76e9c2c068cf265be3947e00f5446",
      "blockNumber": 85515,
      "transactionIndex": 0,
      "confirmations": null,
      "from": "0x21D46e5e1C37D3fa2157A393Fa444EafE63646Fa",
      "gasPrice": {
        "_hex": "0xd3d37f23a"
      },
      "gasLimit": {
        "_hex": "0x15f90"
      },
      "to": "0x2D1d94521E896625F8Ec3f65171Fa82262Da6BCF",
      "value": {
        "_hex": "0x8ac7230489e80000"
      },
      "nonce": 1,
      "data": "0x",
      "r": "0xeb1d4406a481f026f7e8117cbed5498ccad06f0184a14c950ea1c007464f3083",
      "s": "0x09051788a3b32b6f21a7d44b1c50f284ee532f251573ddabca9bacab072ec13c",
      "v": 27,
      "creates": null,
      "raw": "0xf86d01850d3d37f23a83015f90942d1d94521e896625f8ec3f65171fa82262da6bcf888ac7230489e80000801ba0eb1d4406a481f026f7e8117cbed5498ccad06f0184a14c950ea1c007464f3083a009051788a3b32b6f21a7d44b1c50f284ee532f251573ddabca9bacab072ec13c",
      "networkId": 0,
      "chainId": 0
    }
  ]
}