{
  "hash": "0x437a4e92d40adf6702e6d80d7e1bcab12e71c289527e6be4f852236ff2c27968",
  "parentHash": "0x3446c16521109c8a1e86cf9298b7f57deb3911d8ec99d7fd5a4c4593384873e9",
  "number": 109095,
  "timestamp": 1439950930,
  "nonce": "0xa1b1c35e801e7b3e",
  "difficulty": 4427874508462,
  "gasLimit": {
    "_hex": "0x2fefd8"
  },
  "gasUsed": {
    "_hex": "0x5208"
  },
  "miner": "0xe6A7a1d47ff21B6321162AEA7C6CB457D5476Bca",
  "extraData": "0x476574682f76312e302e312d38326566323666362f6c696e75782f676f312e34",
  "transactions": [
    {
      "hash": "0xc70073ccc165c2bb21600dc3e2f4af7eeb3fe90fa6d36260d6444e8462964e55",
      "blockHash": "0x437a4e92d40adf6702e6d80d7e1bcab12e71c289527e6be4f852236ff2c27968",
      "blockNumber": 109095,
      "transactionIndex": 0,
      "confirmations": null,
      "from": "0xa70a9a7040d542C632D8e0bE7c5513A8a5Bbc752",
      "gasPrice": {
        "_hex": "0xddb7f1d9d"
      },
      "gasLimit": {
        "_hex": "0x5208"
      },
      "to": "0x32Be343B94f860124dC4fEe278FDCBD38C102D88",
      "value": {
        "_hex": "0x455f20c48fa25800"
      },
      "nonce": 269,
      "data": "0x",
      "r": "0x870a11a87572f15491f8d1cecf18043709cb61557b1eeca217894c0fa64008af",
      "s": "0x591d7b7b2311f99de4417bfc883bc5d2e0384782ee94866e35217850d824b1f4",
      "v": 28,
      "creates": null,
      "raw": "0xf86e82010d850ddb7f1d9d8252089432be343b94f860124dc4fee278fdcbd38c102d8888455f20c48fa25800801ca0870a11a87572f15491f8d1cecf18043709cb61557b1eeca217894c0fa64008afa0591d7b7b2311f99de4417bfc883bc5d2e0384782ee94866e35217850d824b1f4",
      "networkId": 0,
      "chainId": 0
    }
  ]
}