{
  "hash": "0xb8c567d7618bc653865d9990b130b0f990fe09b9b3048a8b0126af81c88b1c2c",
  "parentHash": "0x5494258318aef64b17d1376591d382c799988280526e33282a8fb0e1fd184e99",
  "number": 90995,
  "timestamp": 1439648745,
  "nonce": "0xedc50bc29e7796c8",
  "difficulty": 3425639876047,
  "gasLimit": {
    "_hex": "0x2fefd8"
  },
  "gasUsed": {
    "_hex": "0x14820"
  },
  "miner": "0xf8355cDA558cCFB004e3C2167E641BB481980b83",
  "extraData": "0x",
  "transactions": [
    {
      "hash": "0x041af5de459f3c1d342dafd83d9909984189392f9f49fe0ad56dcd61b660d6fa",
      "blockHash": "0xb8c567d7618bc653865d9990b130b0f990fe09b9b3048a8b0126af81c88b1c2c",
      "blockNumber": 90995,
      "transactionIndex": 0,
      "confirmations": null,
      "from": "0x019D3FA6E3cdA649b26F74395A846575c7bEA14C",
      "gasPrice": {
        "_hex": "0xd4cd48365"
      },
      "gasLimit": {
        "_hex": "0x15f90"
      },
      "to": "0x04a2a3ee9C9ea82e1F918ecE209f8A7E6d7521E7",
      "value": {
        "_hex": "0x46c6d6faa27e0000"
      },
      "nonce": 11,
      "data": "0x",
      "r": "0xa7dfb0ed5bb4734dd050dda21d0e9d16f86625e00959cf00e7c035a948979f90",
      "s": "0x440702a66b21a342081e0b4573b7fb63a46fd6f50c142126e54a59dac6d61d43",
      "v": 27,
      "creates": null,
      "raw": "0xf86d0b850d4cd4836583015f909404a2a3ee9c9ea82e1f918ece209f8a7e6d7521e78846c6d6faa27e0000801ba0a7dfb0ed5bb4734dd050dda21d0e9d16f86625e00959cf00e7c035a948979f90a0440702a66b21a342081e0b4573b7fb63a46fd6f50c142126e54a59dac6d61d43",
      "networkId": 0,
      "chainId": 0
    },
    {
      "hash": "0x01806af2154ca760ab23b1957d63fa34b8ae24f3c0b7669e5fcc04792506f79e",
      "blockHash": "0xb8c567d7618bc653865d9990b130b0f990fe09b9b3048a8b0126af81c88b1c2c",
      "blockNumber": 90995,
      "transactionIndex": 1,
      "confirmations": null,
      "from": "0xF11940EA05aA9CC3F13aCF5C5cA6EDCF312E3Aec",
      "gasPrice": {
        "_hex": "0xd14535772"
      },
      "gasLimit": {
        "_hex": "0x15f90"
      },
      "to": "0x59C62d3D43f9EA1c4118d98c188AA5d028b8bB8E",
      "value": {
        "_hex": "0x270801d946c940000"
      },
      "nonce": 10,
      "data": "0x",
      "r": "0x13356d5ba214ed9700b1687ee0926837dc3d427e82b2cd686f50e2d1dea4d3d4",
      "s": "0x6573cf36e4ebd9795233db8a5f9e0ffd2d7b04d109999ae9535ed578983c4cc7",
      "v": 27,
      "creates": null,
      "raw": "0xf86e0a850d1453577283015f909459c62d3d43f9ea1c4118d98c188aa5d028b8bb8e890270801d946c940000801ba013356d5ba214ed9700b1687ee0926837dc3d427e82b2cd686f50e2d1dea4d3d4a06573cf36e4ebd9795233db8a5f9e0ffd2d7b04d109999ae9535ed578983c4cc7",
      "networkId": 0,
      "chainId": 0
    },
    {
      "hash": "0xd8937d6da68823ab9d76aa8ffb3468e479aa513108c3f2b9377c40a203dd54d3",
      "blockHash": "0xb8c567d7618bc653865d9990b130b0f990fe09b9b3048a8b0126af81c88b1c2c",
      "blockNumber": 90995,
      "transactionIndex": 2,
      "confirmations": null,
      "from": "0x120A270bbC009644e35F0bB6ab13f95b8199c4ad",
      "gasPrice": {
        "_hex": "0xd115821d4"
      },
      "gasLimit": {
        "_hex": "0x3d090"
      },
      "to": "0xc5623FA5c297c05c2d965A336b2068CfA0e567FA",
      "value": {
        "_hex": "0x1e04b2cb8d0f489800"
      },
      "nonce": 528,
      "data": "0x",
      "r": "0xe9a4a0772f36372ce577b95bf135cd38fee94d595406af055b3d7a43b265c5f7",
      "s": "0x5c6ff33f698303554a5de6048c37898c6e84fc5481346b82807e19e0a45dfe8f",
      "v": 27,
      "creates": null,
      "raw": "0xf870820210850d115821d48303d09094c5623fa5c297c05c2d965a336b2068cfa0e567fa891e04b2cb8d0f489800801ba0e9a4a0772f36372ce577b95bf135cd38fee94d595406af055b3d7a43b265c5f7a05c6ff33f698303554a5de6048c37898c6e84fc5481346b82807e19e0a45dfe8f",
      "networkId": 0,
      "chainId": 0
    },
    {
      "hash": "0xb4e18e05c58ff5b36609f68346716c058f8e3982eeb828ad5af80e595e57b1d9",
      "blockHash": "0xb8c567d7618bc653865d9990b130b0f990fe09b9b3048a8b0126af81c88b1c2c",
      "blockNumber": 90995,
      "transactionIndex": 3,
      "confirmations": null,
      "from": "0x2910543Af39abA0Cd09dBb2D50200b3E800A63D2",
      "gasPrice": {
        "_hex": "0xcfc797626"
      },
      "gasLimit": {
        "_hex": "0x5208"
      },
      "to": "0x5a0f0935E8E5591B2f9f2d55f29C626B50292088",
      "value": {
        "_hex": "0x56bb59ab42b2f8000"
      },
      "nonce": 795,
      "data": "0x",
      "r": "0x531a5be02e9b3f483a425156074364b1460d0ff3fd95a6d591d3918566f96493",
      "s": "0x39ac88d2b22fcf97d1dd782b2bd784e45dd6e0df4ad2b4f283a5d7e36154bf5d",
      "v": 28,
      "creates": null,
      "raw": "0xf86f82031b850cfc797626825208945a0f0935e8e5591b2f9f2d55f29c626b5029208889056bb59ab42b2f8000801ca0531a5be02e9b3f483a425156074364b1460d0ff3fd95a6d591d3918566f96493a039ac88d2b22fcf97d1dd782b2bd784e45dd6e0df4ad2b4f283a5d7e36154bf5d",
      "networkId": 0,
      "chainId": 0
    }
  ]
}