{
  "hash": "0x03185858c4c14c9f57de8799bded0bb5b3f3f8cce4fb04f034c18f16d5b0400f",
  "parentHash": "0x6b482f3760f634f849509d896e5d156f1008bd8cbf672d3f7a2591e28da55037",
  "number": 75466,
  "timestamp": 1439403926,
  "nonce": "0xda8ae3dc0e4a8c7d",
  "difficulty": 2206141174507,
  "gasLimit": {
    "_hex": "0x2fefd8"
  },
  "gasUsed": {
    "_hex": "0x1b457"
  },
  "miner": "0xa50ec0D39fa913E62f1Bae7074E6F36caA71855b",
  "extraData": "0x",
  "transactions": [
    {
      "hash": "0x37dbd76282a089e65fa0401bee4c5c1ca365400c925ebd16e1f8a7f6bc74c339",
      "blockHash": "0x03185858c4c14c9f57de8799bded0bb5b3f3f8cce4fb04f034c18f16d5b0400f",
      "blockNumber": 75466,
      "transactionIndex": 0,
      "confirmations": null,
      "from": "0x326Be8F71bFb0379f989aAB1CC1fE37f0a771f60",
      "gasPrice": {
        "_hex": "0x10370911f37"
      },
      "gasLimit": {
        "_hex": "0x493e0"
      },
      "to": "0xD79B4C6791784184e2755B2fC1659eaaB0f80456",
      "value": {
        "_hex": "0xde0b6b3a7640000"
      },
      "nonce": 97,
      "data": "0x8d21618600000000000000000000000000000000000000000000000000000000000000fddda0c7b987e5d330257d4b2f5f165687c6e75f0046fdb0b6c64a9722df83e7e6",
      "r": "0xda3e3088c1d365850937fad67895332bf9eecc69da532c3052483acdadde4e4a",
      "s": "0x19569d08e6ae96eaaa57b9e34eb57b2345f7fde3ea18b85f9441d901d34f270a",
      "v": 27,
      "creates": null,
      "raw": "0xf8b36186010370911f37830493e094d79b4c6791784184e2755b2fc1659eaab0f80456880de0b6b3a7640000b8448d21618600000000000000000000000000000000000000000000000000000000000000fddda0c7b987e5d330257d4b2f5f165687c6e75f0046fdb0b6c64a9722df83e7e61ba0da3e3088c1d365850937fad67895332bf9eecc69da532c3052483acdadde4e4aa019569d08e6ae96eaaa57b9e34eb57b2345f7fde3ea18b85f9441d901d34f270a",
      "networkId": 0,
      "chainId": 0
    }
  ]
}