{
  "hash": "0x8c12b1194e6910f282098d62700852f7c879a69bd447efe3537f045b2d6c0d49",
  "parentHash": "0x1a4aa237eee6fd4a6dbded5a46a61b5aefb49a22c346214fad24080df90ae9ab",
  "number": 54886,
  "timestamp": 1439061666,
  "nonce": "0x8cfcef31efa06c13",
  "difficulty": 1613278638181,
  "gasLimit": {
    "_hex": "0x2fefd8"
  },
  "gasUsed": {
    "_hex": "0x7411a"
  },
  "miner": "0x29Ab575850dCEf127cd8D646fB3c208b3860C2F0",
  "extraData": "0x476574682f76312e302e312f6c696e75782f676f312e342e32",
  "transactions": [
    {
      "hash": "0xd28fb67bec876e37430ab70c913cc2e8dfc7e7d59a87012e257a2fed7d4acf15",
      "blockHash": "0x8c12b1194e6910f282098d62700852f7c879a69bd447efe3537f045b2d6c0d49",
      "blockNumber": 54886,
      "transactionIndex": 0,
      "confirmations": null,
      "from": "0x8674c218F0351a62C3BA78C34FD2182A93Da94E2",
      "gasPrice": {
        "_hex": "0xdebfcd3a7"
      },
      "gasLimit": {
        "_hex": "0xf4240"
      },
      "to": null,
      "value": {
        "_hex": "0x0"
      },
      "nonce": 34,
      "data": "0x6060604052610659806100136000396000f3006060604052361561006c5760e060020a60003504630a936fe5811461006e57806315853113146100e357806339bfc4a1146101165780636939cd971461014e578063affed0e0146101de578063c36948b5146101e7578063de6f24bb14610219578063fe1e3eca146102eb575b005b6040805160208181018352600080835233600160a060020a0316815260018252839020805484518184028101840190955280855261035694928301828280156100d957602002820191906000526020600020905b8160005054815260200190600101908083116100c2575b5050505050905090565b6103a060043560243560016020526000828152604090208054829081101561000257506000908152602090200154905081565b6103a0600435600160a060020a03331660009081526020818152604080832084845290915290205467ffffffffffffffff165b919050565b6103b260043560408051602081810183526000808352600160a060020a0333168152808252838120858252825283902060010180548451601f820184900484028101840190955280855292939290918301828280156101d257820191906000526020600020905b8154815290600101906020018083116101b557829003601f168201915b50505050509050610149565b6103a060025481565b61042060043560243560006020818152928152604080822090935290815220805467ffffffffffffffff169060010182565b60408051602060248035600481810135601f810185900485028601850190965285855261006c9590359460449490939290920191819084018382808284375094955050505050506002805460018181019092556000805467ffffffffffffffff1916600417815583518354818555848352929391928392916020601f929092018290047fb10e2d527612073b26eecdfd717e6a320cf44b4afac2b0732d9fcbe2b7fa0cf6908101928801821561048b579182015b8281111561048b5782518260005055916020019190600101906102cd565b61006c600435600160a060020a03331660009081526020818152604080832084845282528220805467ffffffffffffffff19168155600181018054848255908452828420919284926105c192601f01919091048101905b808211156105335760008155600101610342565b60405180806020018281038252838181518152602001915080519060200190602002808383829060006004602084601f0104600302600f01f1509050019250505060405180910390f35b60408051918252519081900360200190f35b60405180806020018281038252838181518152602001915080519060200190808383829060006004602084601f0104600302600f01f150905090810190601f1680156104125780820380516001836020036101000a031916815260200191505b509250505060405180910390f35b604051808367ffffffffffffffff16815260200180602001828103825283818154815260200191508054801561047b57820191906000526020600020905b81548152906001019060200180831161045e57829003601f168201915b5050935050505060405180910390f35b50610497929150610342565b5050600160a060020a038516600090815260208181526040808320868452825282208454815467ffffffffffffffff191667ffffffffffffffff9190911617815560018581018054918301805483825581875295859020889694959194601f019190910481019291821561053757600052602060002091601f016020900482015b82811115610537578254825591600101919060010190610518565b5090565b50610543929150610342565b50600093505050505b600160a060020a03851660009081526001602052604090208054829081101561000257600091825260208220015414610588575b60010161054c565b600160a060020a038516600090815260016020526040902080548491908390811015610002576000918252602090912001555050505050565b505050600090505b600160a060020a0333166000908152600160205260409020548110156106555760406000208054839190839081101561000257600091825260209091200154141561064d576001600050600033600160a060020a03168152602001908152602001600020600050818154811015610002579060005260206000209001600050600090555b6001016105c9565b505056",
      "r": "0xd24276d700e7db72ee19f37dad2e53c0432eefa6d2c9b60dc54cddc6592fb1df",
      "s": "0x53b44474cfb95afbe394453507b4b54d17f42da45a26d15c47e35c20374410f1",
      "v": 27,
      "creates": "0x399dfaF3935523475E69Df74EE1675709115C189",
      "raw": "0xf906bf22850debfcd3a7830f42408080b9066c6060604052610659806100136000396000f3006060604052361561006c5760e060020a60003504630a936fe5811461006e57806315853113146100e357806339bfc4a1146101165780636939cd971461014e578063affed0e0146101de578063c36948b5146101e7578063de6f24bb14610219578063fe1e3eca146102eb575b005b6040805160208181018352600080835233600160a060020a0316815260018252839020805484518184028101840190955280855261035694928301828280156100d957602002820191906000526020600020905b8160005054815260200190600101908083116100c2575b5050505050905090565b6103a060043560243560016020526000828152604090208054829081101561000257506000908152602090200154905081565b6103a0600435600160a060020a03331660009081526020818152604080832084845290915290205467ffffffffffffffff165b919050565b6103b260043560408051602081810183526000808352600160a060020a0333168152808252838120858252825283902060010180548451601f820184900484028101840190955280855292939290918301828280156101d257820191906000526020600020905b8154815290600101906020018083116101b557829003601f168201915b50505050509050610149565b6103a060025481565b61042060043560243560006020818152928152604080822090935290815220805467ffffffffffffffff169060010182565b60408051602060248035600481810135601f810185900485028601850190965285855261006c9590359460449490939290920191819084018382808284375094955050505050506002805460018181019092556000805467ffffffffffffffff1916600417815583518354818555848352929391928392916020601f929092018290047fb10e2d527612073b26eecdfd717e6a320cf44b4afac2b0732d9fcbe2b7fa0cf6908101928801821561048b579182015b8281111561048b5782518260005055916020019190600101906102cd565b61006c600435600160a060020a03331660009081526020818152604080832084845282528220805467ffffffffffffffff19168155600181018054848255908452828420919284926105c192601f01919091048101905b808211156105335760008155600101610342565b60405180806020018281038252838181518152602001915080519060200190602002808383829060006004602084601f0104600302600f01f1509050019250505060405180910390f35b60408051918252519081900360200190f35b60405180806020018281038252838181518152602001915080519060200190808383829060006004602084601f0104600302600f01f150905090810190601f1680156104125780820380516001836020036101000a031916815260200191505b509250505060405180910390f35b604051808367ffffffffffffffff16815260200180602001828103825283818154815260200191508054801561047b57820191906000526020600020905b81548152906001019060200180831161045e57829003601f168201915b5050935050505060405180910390f35b50610497929150610342565b5050600160a060020a038516600090815260208181526040808320868452825282208454815467ffffffffffffffff191667ffffffffffffffff9190911617815560018581018054918301805483825581875295859020889694959194601f019190910481019291821561053757600052602060002091601f016020900482015b82811115610537578254825591600101919060010190610518565b5090565b50610543929150610342565b50600093505050505b600160a060020a03851660009081526001602052604090208054829081101561000257600091825260208220015414610588575b60010161054c565b600160a060020a038516600090815260016020526040902080548491908390811015610002576000918252602090912001555050505050565b505050600090505b600160a060020a0333166000908152600160205260409020548110156106555760406000208054839190839081101561000257600091825260209091200154141561064d576001600050600033600160a060020a03168152602001908152602001600020600050818154811015610002579060005260206000209001600050600090555b6001016105c9565b5050561ba0d24276d700e7db72ee19f37dad2e53c0432eefa6d2c9b60dc54cddc6592fb1dfa053b44474cfb95afbe394453507b4b54d17f42da45a26d15c47e35c20374410f1",
      "networkId": 0,
      "chainId": 0
    },
    {
      "hash": "0xea002373819e1e81ff22339888bf4d525bfc6ae6e68506c53bc62f2ba2381fc7",
      "blockHash": "0x8c12b1194e6910f282098d62700852f7c879a69bd447efe3537f045b2d6c0d49",
      "blockNumber": 54886,
      "transactionIndex": 1,
      "confirmations": null,
      "from": "0xED1a5c43C574D4E934299B24f1472cDc9fD6f010",
      "gasPrice": {
        "_hex": "0xd641f460d"
      },
      "gasLimit": {
        "_hex": "0x15f90"
      },
      "to": "0x13f418c203E89b6Fa20D46b90f7134abB7B3eDd9",
      "value": {
        "_hex": "0x56b5cc95613cd0000"
      },
      "nonce": 2,
      "data": "0x",
      "r": "0xf2c800ac2616b23bc6ada4ebbccfba466a7ec9798e80971d1f3c7a5f1d3c80ac",
      "s": "0x18435d399257ede8df1b36ba369f22c134ef68559b1fccfd87edd202455bc75d",
      "v": 27,
      "creates": null,
      "raw": "0xf86e02850d641f460d83015f909413f418c203e89b6fa20d46b90f7134abb7b3edd989056b5cc95613cd0000801ba0f2c800ac2616b23bc6ada4ebbccfba466a7ec9798e80971d1f3c7a5f1d3c80aca018435d399257ede8df1b36ba369f22c134ef68559b1fccfd87edd202455bc75d",
      "networkId": 0,
      "chainId": 0
    }
  ]
}