{
  "hash": "0x2624bb203f05c07a61afcfefff4d1bbf21a4f5d3c6f616e389a565206aff39c8",
  "parentHash": "0xd2ffb76500ffebd7d27affd19a7d49c684eeaf6895bdc19d7c9f43933fd21319",
  "number": 65197,
  "timestamp": 1439232733,
  "nonce": "0xdafeaeb444a9e668",
  "difficulty": 1950249564583,
  "gasLimit": {
    "_hex": "0x2fefd8"
  },
  "gasUsed": {
    "_hex": "0xa410"
  },
  "miner": "0x88D74a59454F6cF3B51ef6b9136AFb6b9D405A88",
  "extraData": "0x476574682f76312e302e312d37666266393930632f6c696e75782f676f312e34",
  "transactions": [
    {
      "hash": "0xa9ee40f63105b4c1aab8972e8a657a48a2183098a4becc8e5b4c0f0d46eaab66",
      "blockHash": "0x2624bb203f05c07a61afcfefff4d1bbf21a4f5d3c6f616e389a565206aff39c8",
      "blockNumber": 65197,
      "transactionIndex": 0,
      "confirmations": null,
      "from": "0x73557a256cF3729C21b2b391f47B18551b9a2D5B",
      "gasPrice": {
        "_hex": "0xdceb81363"
      },
      "gasLimit": {
        "_hex": "0x5208"
      },
      "to": "0x32Be343B94f860124dC4fEe278FDCBD38C102D88",
      "value": {
        "_hex": "0x455f2f6b76762400"
      },
      "nonce": 1,
      "data": "0x",
      "r": "0x5ed67bb8654a0e33abe8bc40ace9fa5ce1da81f10e2d2743cfd737a5b2649f63",
      "s": "0x4fe714c98e4051444f555f92c37595eea262e761bef3cce63fbe7d2d3449b47b",
      "v": 28,
      "creates": null,
      "raw": "0xf86c01850dceb813638252089432be343b94f860124dc4fee278fdcbd38c102d8888455f2f6b76762400801ca05ed67bb8654a0e33abe8bc40ace9fa5ce1da81f10e2d2743cfd737a5b2649f63a04fe714c98e4051444f555f92c37595eea262e761bef3cce63fbe7d2d3449b47b",
      "networkId": 0,
      "chainId": 0
    },
    {
      "hash": "0x310646d14619fae9006b94c89fde01cf4253e6ad22cd320ba0cf05df1762cc38",
      "blockHash": "0x2624bb203f05c07a61afcfefff4d1bbf21a4f5d3c6f616e389a565206aff39c8",
      "blockNumber": 65197,
      "transactionIndex": 1,
      "confirmations": null,
      "from": "0x296dE94E7A50ccfa9c9EFDEd86d690319973683d",
      "gasPrice": {
        "_hex": "0xdceb81363"
      },
      "gasLimit": {
        "_hex": "0x5208"
      },
      "to": "0x32Be343B94f860124dC4fEe278FDCBD38C102D88",
      "value": {
        "_hex": "0xdca86947718a000"
      },
      "nonce": 0,
      "data": "0x",
      "r": "0xb44d0d172ff24326d97498db0b386b5b7a74eef671c955f40c670e9555ebc95c",
      "s": "0x2fc443d0f84a204b12600399732558d854c13063d60bf89afe69833d5499dbbc",
      "v": 27,
      "creates": null,
      "raw": "0xf86c80850dceb813638252089432be343b94f860124dc4fee278fdcbd38c102d88880dca86947718a000801ba0b44d0d172ff24326d97498db0b386b5b7a74eef671c955f40c670e9555ebc95ca02fc443d0f84a204b12600399732558d854c13063d60bf89afe69833d5499dbbc",
      "networkId": 0,
      "chainId": 0
    }
  ]
}