{
  "hash": "0xb2192537239c10e43612369b8f97d07ec674c172487689edb3cb6123a88f2fc2",
  "parentHash": "0x2e53dfeff43c230026a17a25badd135ad851eb71452746e40a79d4ade087e5dc",
  "number": 69728,
  "timestamp": 1439308824,
  "nonce": "0x61feab54b3703fca",
  "difficulty": 2094248040302,
  "gasLimit": {
    "_hex": "0x2fefd5"
  },
  "gasUsed": {
    "_hex": "0xce7d"
  },
  "miner": "0x88D74a59454F6cF3B51ef6b9136AFb6b9D405A88",
  "extraData": "0x476574682f76312e302e312d38326566323666362f6c696e75782f676f312e34",
  "transactions": [
    {
      "hash": "0xe111a7d51f8b841f59278461896f5723ced7f0a9d43d49a7eed060e492596c5c",
      "blockHash": "0xb2192537239c10e43612369b8f97d07ec674c172487689edb3cb6123a88f2fc2",
      "blockNumber": 69728,
      "transactionIndex": 0,
      "confirmations": null,
      "from": "0x000Df160997ba9420e4622996b05447871848834",
      "gasPrice": {
        "_hex": "0xba43b7400"
      },
      "gasLimit": {
        "_hex": "0x9965e"
      },
      "to": "0xdf373f3Dab2561668e239cA6e43a8c6aaeB3f825",
      "value": {
        "_hex": "0x64"
      },
      "nonce": 2,
      "data": "0xfcfff16f",
      "r": "0x2521360b217e9f92ee6b6bf9d34c750778bf512e2d54aa014a3f0286233f33ea",
      "s": "0x0b94d7a2a5aa4f91334ced59d4d40a20102bb22e6a9baaf736b0d11ecad4e5c9",
      "v": 28,
      "creates": null,
      "raw": "0xf86902850ba43b74008309965e94df373f3dab2561668e239ca6e43a8c6aaeb3f8256484fcfff16f1ca02521360b217e9f92ee6b6bf9d34c750778bf512e2d54aa014a3f0286233f33eaa00b94d7a2a5aa4f91334ced59d4d40a20102bb22e6a9baaf736b0d11ecad4e5c9",
      "networkId": 0,
      "chainId": 0
    }
  ]
}