{
  "hash": "0xb806519392fe0670c1a1aa4af19244927ce830082144a0bcbf57d6b4f9c60cf3",
  "parentHash": "0x03cf4ef337179018dd0fd6d5cb90cc19e124626bb1f939181f1c7f77d5705729",
  "number": 71929,
  "timestamp": 1439344133,
  "nonce": "0x3aed3428b30ea11e",
  "difficulty": 2173915322491,
  "gasLimit": {
    "_hex": "0x2fefd8"
  },
  "gasUsed": {
    "_hex": "0x9400"
  },
  "miner": "0xf927a40C8B7F6E07c5af7FA2155B4864a4112B13",
  "extraData": "0x",
  "transactions": [
    {
      "hash": "0x5a763a9716a1eb5b00c91105a0673645a7808a50b36f8ba7171adc904c0a2561",
      "blockHash": "0xb806519392fe0670c1a1aa4af19244927ce830082144a0bcbf57d6b4f9c60cf3",
      "blockNumber": 71929,
      "transactionIndex": 0,
      "confirmations": null,
      "from": "0x17580B766f7453525ca4C6A88b01b50570EA088C",
      "gasPrice": {
        "_hex": "0xd4da43998"
      },
      "gasLimit": {
        "_hex": "0x61a80"
      },
      "to": "0x5Fe5B7546D1628f7348B023A0393de1FC825A4fD",
      "value": {
        "_hex": "0x29a2241af62c0000"
      },
      "nonce": 297,
      "data": "0xb595b8b50000000000000000000000000000000000000000000000000000000000000001",
      "r": "0x3f1248e5b782d458f6f8b3eaa111314745727ce14bc1f9fa3b2c200d8d714c88",
      "s": "0x5c33c2fbfcc82ae789dbeeddf2ebce061519185cc338ee09652efc29484cfdf3",
      "v": 28,
      "creates": null,
      "raw": "0xf893820129850d4da4399883061a80945fe5b7546d1628f7348b023a0393de1fc825a4fd8829a2241af62c0000a4b595b8b500000000000000000000000000000000000000000000000000000000000000011ca03f1248e5b782d458f6f8b3eaa111314745727ce14bc1f9fa3b2c200d8d714c88a05c33c2fbfcc82ae789dbeeddf2ebce061519185cc338ee09652efc29484cfdf3",
      "networkId": 0,
      "chainId": 0
    }
  ]
}