{
  "hash": "0xe003152e4a4397c27101f53f5e34ec842340757403ba15a537aad3897ba77710",
  "parentHash": "0x2c06460994f5fa2aa884e4c0ae53d252ea5c24834256b0afc6647baba3ddbdb5",
  "number": 113840,
  "timestamp": 1440030620,
  "nonce": "0xf9e25e2de631b14c",
  "difficulty": 4436187925362,
  "gasLimit": {
    "_hex": "0x2fefd8"
  },
  "gasUsed": {
    "_hex": "0xa410"
  },
  "miner": "0xe6A7a1d47ff21B6321162AEA7C6CB457D5476Bca",
  "extraData": "0x476574682f76312e302e312d38326566323666362f6c696e75782f676f312e34",
  "transactions": [
    {
      "hash": "0x97c74d2e02247e58a2130d38ce0aa1066587bed99430f62bee7f213d4406ad33",
      "blockHash": "0xe003152e4a4397c27101f53f5e34ec842340757403ba15a537aad3897ba77710",
      "blockNumber": 113840,
      "transactionIndex": 0,
      "confirmations": null,
      "from": "0x2910543Af39abA0Cd09dBb2D50200b3E800A63D2",
      "gasPrice": {
        "_hex": "0xdaf681904"
      },
      "gasLimit": {
        "_hex": "0x5208"
      },
      "to": "0x9E45D55cA08d18794d5c23C5769910E4F403a43B",
      "value": {
        "_hex": "0xdcef33a6f838000"
      },
      "nonce": 1117,
      "data": "0x",
      "r": "0x55edd71e53b2ad5e20b5dda717e16a307d90461c08b95cf0ca58153cd6dfcaed",
      "s": "0x3e84997e6c5fe809218272f45ed0d78e5b70b84495c203dca983a8607fb29103",
      "v": 28,
      "creates": null,
      "raw": "0xf86e82045d850daf681904825208949e45d55ca08d18794d5c23c5769910e4f403a43b880dcef33a6f838000801ca055edd71e53b2ad5e20b5dda717e16a307d90461c08b95cf0ca58153cd6dfcaeda03e84997e6c5fe809218272f45ed0d78e5b70b84495c203dca983a8607fb29103",
      "networkId": 0,
      "chainId": 0
    },
    {
      "hash": "0x3613909f23d3382dc4f9648218bbeddb19073fdbdeeb25aa7ff2f20ede787872",
      "blockHash": "0xe003152e4a4397c27101f53f5e34ec842340757403ba15a537aad3897ba77710",
      "blockNumber": 113840,
      "transactionIndex": 1,
      "confirmations": null,
      "from": "0xd86a43A11b0972365cc141dECE56D5F66175FEBE",
      "gasPrice": {
        "_hex": "0xcc01520fa"
      },
      "gasLimit": {
        "_hex": "0x5208"
      },
      "to": "0x32Be343B94f860124dC4fEe278FDCBD38C102D88",
      "value": {
        "_hex": "0x5861de2b01dfdc000"
      },
      "nonce": 0,
      "data": "0x",
      "r": "0x791535e3ab17c13a37aabc33909824f143dd17dec55dadf633311497c9738502",
      "s": "0x3892c3572d77b7a35f42859f7f9262146ddccbfd54af4292222546054ebdfdce",
      "v": 27,
      "creates": null,
      "raw": "0xf86d80850cc01520fa8252089432be343b94f860124dc4fee278fdcbd38c102d888905861de2b01dfdc000801ba0791535e3ab17c13a37aabc33909824f143dd17dec55dadf633311497c9738502a03892c3572d77b7a35f42859f7f9262146ddccbfd54af4292222546054ebdfdce",
      "networkId": 0,
      "chainId": 0
    }
  ]
}