{
  "hash": "0xd98f92fc2f986a083bd3963a6a57aee019e50cb8197a5252564760f332d55af7",
  "parentHash": "0xaf59371ec6c7de274d04dd42a0456b8493898b2e72a10b33f08ed49878784200",
  "number": 71357,
  "timestamp": 1439334632,
  "nonce": "0x56422797b54b1177",
  "difficulty": 2178313929509,
  "gasLimit": {
    "_hex": "0x2fefd8"
  },
  "gasUsed": {
    "_hex": "0x9400"
  },
  "miner": "0x31995C46B15C84523cDEE26f49A681b8237e43F5",
  "extraData": "0x476574682f76312e302e312f77696e646f77732f676f312e342e32",
  "transactions": [
    {
      "hash": "0xeed77ea536b3705ffd8ea1d461ca2f0c7f30e08a9066a83154d54d8552521580",
      "blockHash": "0xd98f92fc2f986a083bd3963a6a57aee019e50cb8197a5252564760f332d55af7",
      "blockNumber": 71357,
      "transactionIndex": 0,
      "confirmations": null,
      "from": "0x17580B766f7453525ca4C6A88b01b50570EA088C",
      "gasPrice": {
        "_hex": "0xdbb898f81"
      },
      "gasLimit": {
        "_hex": "0x61a80"
      },
      "to": "0x5Fe5B7546D1628f7348B023A0393de1FC825A4fD",
      "value": {
        "_hex": "0x53444835ec580000"
      },
      "nonce": 160,
      "data": "0xb595b8b50000000000000000000000000000000000000000000000000000000000000001",
      "r": "0xcea345ebeba114a538f38bb22eaed6c8ed688d79fbc701bf2b56c5aefe25ac2a",
      "s": "0x14fa25e3ce2f428975686997fa76a6c0d6a67254241db523f9ad5d98fbe082a1",
      "v": 28,
      "creates": null,
      "raw": "0xf89281a0850dbb898f8183061a80945fe5b7546d1628f7348b023a0393de1fc825a4fd8853444835ec580000a4b595b8b500000000000000000000000000000000000000000000000000000000000000011ca0cea345ebeba114a538f38bb22eaed6c8ed688d79fbc701bf2b56c5aefe25ac2aa014fa25e3ce2f428975686997fa76a6c0d6a67254241db523f9ad5d98fbe082a1",
      "networkId": 0,
      "chainId": 0
    }
  ]
}