{
  "hash": "0x83c93ef1174edfd0fcadef9663357b830b53f8a766bd86b9af38527413c79939",
  "parentHash": "0xbdaee1382d487471788a440043d4d9687798cfa5fb985f078b519a1eea490f94",
  "number": 64936,
  "timestamp": 1439228683,
  "nonce": "0x0d72d610efefbe6a",
  "difficulty": 1909788235494,
  "gasLimit": {
    "_hex": "0x2fefd8"
  },
  "gasUsed": {
    "_hex": "0x17cd8"
  },
  "miner": "0xbb7B8287f3F0a933474a79eAe42CBCa977791171",
  "extraData": "0x476574682f4c5649562f76312e302e312f6c696e75782f676f312e342e32",
  "transactions": [
    {
      "hash": "0x029dcc419b8ecc869efb29398f6c3094b587675a48c0ff9fe1d358920b7008f6",
      "blockHash": "0x83c93ef1174edfd0fcadef9663357b830b53f8a766bd86b9af38527413c79939",
      "blockNumber": 64936,
      "transactionIndex": 0,
      "confirmations": null,
      "from": "0xE627048aE81E90BA47f83A0934dDc1edc38291f9",
      "gasPrice": {
        "_hex": "0xba43b7400"
      },
      "gasLimit": {
        "_hex": "0x15f90"
      },
      "to": "0x793AE8C1b1a160BFc07BFB0d04F85eab1A71F4f2",
      "value": {
        "_hex": "0x0"
      },
      "nonce": 0,
      "data": "0x3ba15036",
      "r": "0x4a597a96bade850deeaa315c2ce1694646d8a8abc7a0f9023e6aead786604cba",
      "s": "0x5dee1e4f7f8c623b6cd3c5a4b58d03daefe4d60aea86254084313393f7d9ea93",
      "v": 28,
      "creates": null,
      "raw": "0xf86980850ba43b740083015f9094793ae8c1b1a160bfc07bfb0d04f85eab1a71f4f280843ba150361ca04a597a96bade850deeaa315c2ce1694646d8a8abc7a0f9023e6aead786604cbaa05dee1e4f7f8c623b6cd3c5a4b58d03daefe4d60aea86254084313393f7d9ea93",
      "networkId": 0,
      "chainId": 0
    },
    {
      "hash": "0x4292107325926fc6df6c1966b1fe4423e11261019a3da9d5bba117a9ad977092",
      "blockHash": "0x83c93ef1174edfd0fcadef9663357b830b53f8a766bd86b9af38527413c79939",
      "blockNumber": 64936,
      "transactionIndex": 1,
      "confirmations": null,
      "from": "0x6822c17D48e8198dFE567c07783d155529d0EAB8",
      "gasPrice": {
        "_hex": "0xba43b7400"
      },
      "gasLimit": {
        "_hex": "0x15f90"
      },
      "to": "0x793AE8C1b1a160BFc07BFB0d04F85eab1A71F4f2",
      "value": {
        "_hex": "0x0"
      },
      "nonce": 0,
      "data": "0x3ba15036",
      "r": "0xa0f197882bfb4d024cccc85f6140e852fd71a5e0ab2588f8c09717883fe0ccc3",
      "s": "0x282411dd933bb55a1b480e9f34e7a963c0fe9648d7fcfa23b72bc2e3f53d913f",
      "v": 28,
      "creates": null,
      "raw": "0xf86980850ba43b740083015f9094793ae8c1b1a160bfc07bfb0d04f85eab1a71f4f280843ba150361ca0a0f197882bfb4d024cccc85f6140e852fd71a5e0ab2588f8c09717883fe0ccc3a0282411dd933bb55a1b480e9f34e7a963c0fe9648d7fcfa23b72bc2e3f53d913f",
      "networkId": 0,
      "chainId": 0
    }
  ]
}