{
  "hash": "0xb1a99b7a48aea66ca92abeaa65aac125a22d402e381de6a9a56b3e13dcc969c8",
  "parentHash": "0x7145ba832f76df230dfea88473918cc1f7c068d359a2690ba5c5c607c504c156",
  "number": 84538,
  "timestamp": 1439551005,
  "nonce": "0x5136c4adfd7ec33e",
  "difficulty": 2576452518676,
  "gasLimit": {
    "_hex": "0x2fefd8"
  },
  "gasUsed": {
    "_hex": "0xa410"
  },
  "miner": "0xf927a40C8B7F6E07c5af7FA2155B4864a4112B13",
  "extraData": "0x",
  "transactions": [
    {
      "hash": "0x374afffa4d9df5a54fbba893124991d8a503de7ab22a3ec6bd18cb3cd3917a56",
      "blockHash": "0xb1a99b7a48aea66ca92abeaa65aac125a22d402e381de6a9a56b3e13dcc969c8",
      "blockNumber": 84538,
      "transactionIndex": 0,
      "confirmations": null,
      "from": "0xA10C59651885FeAaac91F871082a23BBbaBeDfCf",
      "gasPrice": {
        "_hex": "0x1019b487fa4"
      },
      "gasLimit": {
        "_hex": "0x5208"
      },
      "to": "0x4c74B6F32c9680aCB5Fe0e72B7Aa95C612540A04",
      "value": {
        "_hex": "0x2b5e3af16b1880000"
      },
      "nonce": 27,
      "data": "0x",
      "r": "0xdbe4408a28231ecc5d5a88ac9eb3288bba07802d001e7c7c91065cbbf5e046c4",
      "s": "0x4136e75a695bcedb97dd0dfdcc459d0b061c54b8086453057cf5dd4792177fe5",
      "v": 28,
      "creates": null,
      "raw": "0xf86e1b8601019b487fa4825208944c74b6f32c9680acb5fe0e72b7aa95c612540a048902b5e3af16b1880000801ca0dbe4408a28231ecc5d5a88ac9eb3288bba07802d001e7c7c91065cbbf5e046c4a04136e75a695bcedb97dd0dfdcc459d0b061c54b8086453057cf5dd4792177fe5",
      "networkId": 0,
      "chainId": 0
    },
    {
      "hash": "0xa7342e57957e52cb5003aab9d720bf047e1411f8018e3e94970d2a07dac936f9",
      "blockHash": "0xb1a99b7a48aea66ca92abeaa65aac125a22d402e381de6a9a56b3e13dcc969c8",
      "blockNumber": 84538,
      "transactionIndex": 1,
      "confirmations": null,
      "from": "0xF2d2AfF1320476cb8C6b607199D23175cc595693",
      "gasPrice": {
        "_hex": "0xcd1920e7e"
      },
      "gasLimit": {
        "_hex": "0x15f90"
      },
      "to": "0xF5EeDc192aB70b08D8354384aD94efD095849E00",
      "value": {
        "_hex": "0x2b5e3af16b1880000"
      },
      "nonce": 41,
      "data": "0x",
      "r": "0x769909e6f3c06b95a056424c748f329f4d6dff53df65292128f24278ab49d9c2",
      "s": "0x6271cc1a550b31ad7897f48ac912021243ddce75c4072ce5c0c661ec8c0f4f51",
      "v": 27,
      "creates": null,
      "raw": "0xf86e29850cd1920e7e83015f9094f5eedc192ab70b08d8354384ad94efd095849e008902b5e3af16b1880000801ba0769909e6f3c06b95a056424c748f329f4d6dff53df65292128f24278ab49d9c2a06271cc1a550b31ad7897f48ac912021243ddce75c4072ce5c0c661ec8c0f4f51",
      "networkId": 0,
      "chainId": 0
    }
  ]
}