{
  "hash": "0xfe2811e0dc47d09351198e794af65ea60a571ce478d208d3943c5d8f10bfe6e7",
  "parentHash": "0x6420084abb019bb70f9976423e48227c879ffc264f640e5fd6c4e09653bfef55",
  "number": 103917,
  "timestamp": 1439860982,
  "nonce": "0x8572433aa6c4123a",
  "difficulty": 4260874567134,
  "gasLimit": {
    "_hex": "0x2fefd8"
  },
  "gasUsed": {
    "_hex": "0xa410"
  },
  "miner": "0xe6A7a1d47ff21B6321162AEA7C6CB457D5476Bca",
  "extraData": "0x476574682f76312e302e312d38326566323666362f6c696e75782f676f312e34",
  "transactions": [
    {
      "hash": "0x18b868e9bf4bc458cbf6b009484c823e6502c3283a24d20a01fcdfcce44cc5c6",
      "blockHash": "0xfe2811e0dc47d09351198e794af65ea60a571ce478d208d3943c5d8f10bfe6e7",
      "blockNumber": 103917,
      "transactionIndex": 0,
      "confirmations": null,
      "from": "0xa6BDc31c431B8F97848c9D60cbbe9660dc450eB7",
      "gasPrice": {
        "_hex": "0xd16908c64"
      },
      "gasLimit": {
        "_hex": "0x5208"
      },
      "to": "0x32Be343B94f860124dC4fEe278FDCBD38C102D88",
      "value": {
        "_hex": "0x455f5fde59e38000"
      },
      "nonce": 165,
      "data": "0x",
      "r": "0x592b5948cae2f3ea449f553f349cc8558c59ec3ef3ca44b78315248b4afda62e",
      "s": "0x64f1f7ae521cf069a3bf61aa4d14c95ab961da19f3e36e9330683c1e92d8c35a",
      "v": 27,
      "creates": null,
      "raw": "0xf86d81a5850d16908c648252089432be343b94f860124dc4fee278fdcbd38c102d8888455f5fde59e38000801ba0592b5948cae2f3ea449f553f349cc8558c59ec3ef3ca44b78315248b4afda62ea064f1f7ae521cf069a3bf61aa4d14c95ab961da19f3e36e9330683c1e92d8c35a",
      "networkId": 0,
      "chainId": 0
    },
    {
      "hash": "0xe62f1876d338e30a9fb21f1d122808efe678b232dd6ed9c585fa1dbf5eee4f8c",
      "blockHash": "0xfe2811e0dc47d09351198e794af65ea60a571ce478d208d3943c5d8f10bfe6e7",
      "blockNumber": 103917,
      "transactionIndex": 1,
      "confirmations": null,
      "from": "0xb1abce2918E21ddb93AA452731a12672A3d9F75a",
      "gasPrice": {
        "_hex": "0xd16908c64"
      },
      "gasLimit": {
        "_hex": "0x5208"
      },
      "to": "0x32Be343B94f860124dC4fEe278FDCBD38C102D88",
      "value": {
        "_hex": "0x8ac2f1609ed78000"
      },
      "nonce": 126,
      "data": "0x",
      "r": "0x3115635b25453a4abb1c72deb8b4baf9be06aca22e1e90798697e42c538b29dd",
      "s": "0x37945d462b2e00b8537240cdf0c43ae901e63d0933d1deba1a49d9e3e40f27f2",
      "v": 28,
      "creates": null,
      "raw": "0xf86c7e850d16908c648252089432be343b94f860124dc4fee278fdcbd38c102d88888ac2f1609ed78000801ca03115635b25453a4abb1c72deb8b4baf9be06aca22e1e90798697e42c538b29dda037945d462b2e00b8537240cdf0c43ae901e63d0933d1deba1a49d9e3e40f27f2",
      "networkId": 0,
      "chainId": 0
    }
  ]
}