{
  "hash": "0x8ce04f815bae636a33dd54c414c5549d4d0f185e67c456bde134af5f63db91de",
  "parentHash": "0xeb273af44689dc0970fb2f357d386a36e032a13284961c4160e0d8b4c4be6f50",
  "number": 56346,
  "timestamp": 1439085745,
  "nonce": "0x717103c0b251a734",
  "difficulty": 1654477271585,
  "gasLimit": {
    "_hex": "0x2fefd5"
  },
  "gasUsed": {
    "_hex": "0x5208"
  },
  "miner": "0x458F183347F45a4001807728A89F31E9Da9D4A58",
  "extraData": "0x",
  "transactions": [
    {
      "hash": "0xa35255f7a8794c541544ae65690f1455afe3bd13abd1a16664eaea784b67ea08",
      "blockHash": "0x8ce04f815bae636a33dd54c414c5549d4d0f185e67c456bde134af5f63db91de",
      "blockNumber": 56346,
      "transactionIndex": 0,
      "confirmations": null,
      "from": "0x0785A86bE9c2D68DbAEbaf1DB72641680529E2FD",
      "gasPrice": {
        "_hex": "0xd361dd635"
      },
      "gasLimit": {
        "_hex": "0x61a8"
      },
      "to": "0x39d4A931402c0c79c457186F24dF8729cf957031",
      "value": {
        "_hex": "0x64cb5c04dba98000"
      },
      "nonce": 3,
      "data": "0x",
      "r": "0xa07f367a91f5b63c6bfc64a98c34b013a1ffd1db335482841fe28ea2b6ede70f",
      "s": "0x5082db1831fa6602a7a66e40db45c048caec1c18289dbf8437b723a241529955",
      "v": 28,
      "creates": null,
      "raw": "0xf86c03850d361dd6358261a89439d4a931402c0c79c457186f24df8729cf9570318864cb5c04dba98000801ca0a07f367a91f5b63c6bfc64a98c34b013a1ffd1db335482841fe28ea2b6ede70fa05082db1831fa6602a7a66e40db45c048caec1c18289dbf8437b723a241529955",
      "networkId": 0,
      "chainId": 0
    }
  ]
}