{
  "hash": "0x6e2d62e3fc88dd4750435688146c704dd1b1f7653d4b2a482399143dd8baa77f",
  "parentHash": "0xb7ec42b062e316e42dae33c1ca961d6741eaf5d3cf5a02c18f721ededbb54bba",
  "number": 71708,
  "timestamp": 1439340521,
  "nonce": "0x550b1e2706282e4d",
  "difficulty": 2175034364946,
  "gasLimit": {
    "_hex": "0x2fefd8"
  },
  "gasUsed": {
    "_hex": "0x5208"
  },
  "miner": "0xeB1325C8D9d3ea8D74aC11F4B00F1B2367686319",
  "extraData": "0x476574682f76312e302e312f77696e646f77732f676f312e342e32",
  "transactions": [
    {
      "hash": "0x1470d471ad68708029ac55e303012d1c529b5ff6789038b64ebc3855c3cbe848",
      "blockHash": "0x6e2d62e3fc88dd4750435688146c704dd1b1f7653d4b2a482399143dd8baa77f",
      "blockNumber": 71708,
      "transactionIndex": 0,
      "confirmations": null,
      "from": "0x4278273854a158e72fcf5E752fD5fDA7238eBea8",
      "gasPrice": {
        "_hex": "0x1108944c61b"
      },
      "gasLimit": {
        "_hex": "0x15f90"
      },
      "to": "0x9aD28d4b9331aAC808DED237E46c6f5d69FCEDF6",
      "value": {
        "_hex": "0x15af1d78b58c40000"
      },
      "nonce": 1,
      "data": "0x",
      "r": "0xf1d5237e626b8c29205be4ce07907b72cb546663c35f967a77d23e755984617f",
      "s": "0x7a5e74d4445fde7d6cf89788323f0cf229d7ecae548ed0cd1e8d40f3189c8984",
      "v": 28,
      "creates": null,
      "raw": "0xf86f018601108944c61b83015f90949ad28d4b9331aac808ded237e46c6f5d69fcedf689015af1d78b58c40000801ca0f1d5237e626b8c29205be4ce07907b72cb546663c35f967a77d23e755984617fa07a5e74d4445fde7d6cf89788323f0cf229d7ecae548ed0cd1e8d40f3189c8984",
      "networkId": 0,
      "chainId": 0
    }
  ]
}