{
  "hash": "0x07668d77395c6b40cb21e4f2138ca51110dce6c786c419a0ed7207ac05ca4bd3",
  "parentHash": "0x26684f172e8c1f3a73d8dde42fcd7eee6fd3c74a7bdd9071e89f5ff1458ad1e0",
  "number": 84573,
  "timestamp": 1439551576,
  "nonce": "0x27b0e182d823b95c",
  "difficulty": 2577700104391,
  "gasLimit": {
    "_hex": "0x2fefd8"
  },
  "gasUsed": {
    "_hex": "0x5208"
  },
  "miner": "0x070c8963Cf4abCe1BFaF5973F2E0f7697925B242",
  "extraData": "0x",
  "transactions": [
    {
      "hash": "0xd9759f3b090dce2c467281ffc78ccaafc2a5ae69f7b371475ff34972ae07e150",
      "blockHash": "0x07668d77395c6b40cb21e4f2138ca51110dce6c786c419a0ed7207ac05ca4bd3",
      "blockNumber": 84573,
      "transactionIndex": 0,
      "confirmations": null,
      "from": "0x32Be343B94f860124dC4fEe278FDCBD38C102D88",
      "gasPrice": {
        "_hex": "0xd8246ed29"
      },
      "gasLimit": {
        "_hex": "0x5208"
      },
      "to": "0xC4c6bAF00209a0f33331e4B7cb1c7B680A3d2F79",
      "value": {
        "_hex": "0x56bc75e2d63100000"
      },
      "nonce": 683,
      "data": "0x",
      "r": "0x226ad204483763877de9f6fa612aa0585304b13a45ec283180649bf38ce6462a",
      "s": "0x24e3f338abc4ee31e646e0220e45cc20152376af256ba9346c000631baae3a23",
      "v": 27,
      "creates": null,
      "raw": "0xf86f8202ab850d8246ed2982520894c4c6baf00209a0f33331e4b7cb1c7b680a3d2f7989056bc75e2d63100000801ba0226ad204483763877de9f6fa612aa0585304b13a45ec283180649bf38ce6462aa024e3f338abc4ee31e646e0220e45cc20152376af256ba9346c000631baae3a23",
      "networkId": 0,
      "chainId": 0
    }
  ]
}