{
  "hash": "0x18ac557589ec8e3627a146a229cebda10a7b1719548598ed140beeba60c77a91",
  "parentHash": "0xd831dbcf10c3426daa9693a5eddc8e3a6ccf59d4cccc7244beed0347a80f9900",
  "number": 87217,
  "timestamp": 1439589011,
  "nonce": "0x5c18def29bec2c87",
  "difficulty": 3069108353773,
  "gasLimit": {
    "_hex": "0x2fefd8"
  },
  "gasUsed": {
    "_hex": "0x5208"
  },
  "miner": "0x790b8a3cE86E707ED0eD32bF89B3269692a23CC1",
  "extraData": "0xd783010001844765746887676f312e342e32856c696e7578",
  "transactions": [
    {
      "hash": "0xed75c58267ddcfdcd7616765ba47ea29fe1f5a1add8de2e2ed2c4fa4d84a2d18",
      "blockHash": "0x18ac557589ec8e3627a146a229cebda10a7b1719548598ed140beeba60c77a91",
      "blockNumber": 87217,
      "transactionIndex": 0,
      "confirmations": null,
      "from": "0x94045ffcd478a2F8719D1bAA44674971afE4D38A",
      "gasPrice": {
        "_hex": "0xdf5955669"
      },
      "gasLimit": {
        "_hex": "0x15f90"
      },
      "to": "0x99EeA495a82E66C97304a6b07FA8Cb29eeb781A5",
      "value": {
        "_hex": "0x7ce66c50e2840000"
      },
      "nonce": 0,
      "data": "0x",
      "r": "0x334bf3ab9e987e9b477cf7e6af6adea6be2cecc0677bbde28be2448838a5bd87",
      "s": "0x02beeac5f4f691cd19da93be6790107ed425efbd6e2b46eb301e0c9bd770f4b6",
      "v": 28,
      "creates": null,
      "raw": "0xf86d80850df595566983015f909499eea495a82e66c97304a6b07fa8cb29eeb781a5887ce66c50e2840000801ca0334bf3ab9e987e9b477cf7e6af6adea6be2cecc0677bbde28be2448838a5bd87a002beeac5f4f691cd19da93be6790107ed425efbd6e2b46eb301e0c9bd770f4b6",
      "networkId": 0,
      "chainId": 0
    }
  ]
}