{
  "hash": "0x6e34e4f3324cb1f171a450726fd902dd147fd044341ad3d1e909b1a1106cf95a",
  "parentHash": "0x12253a9cc7d7b9624fcf58a1152a25611dcb442a0be6fc36d2e75020a1df7ff5",
  "number": 101307,
  "timestamp": 1439820897,
  "nonce": "0x093c38e88799a6d6",
  "difficulty": 3813156939643,
  "gasLimit": {
    "_hex": "0x2fefd8"
  },
  "gasUsed": {
    "_hex": "0x5208"
  },
  "miner": "0xe6A7a1d47ff21B6321162AEA7C6CB457D5476Bca",
  "extraData": "0x476574682f76312e302e312d38326566323666362f6c696e75782f676f312e34",
  "transactions": [
    {
      "hash": "0xa33b9b9d8053e7d6011868903c265a36ff9ec1e30d8639c408dc686c2aa33844",
      "blockHash": "0x6e34e4f3324cb1f171a450726fd902dd147fd044341ad3d1e909b1a1106cf95a",
      "blockNumber": 101307,
      "transactionIndex": 0,
      "confirmations": null,
      "from": "0x32Be343B94f860124dC4fEe278FDCBD38C102D88",
      "gasPrice": {
        "_hex": "0xcfec3e39e"
      },
      "gasLimit": {
        "_hex": "0x5208"
      },
      "to": "0xcf684DFB8304729355B58315E8019B1aa2AD1Bac",
      "value": {
        "_hex": "0x2ed43e9c7b9f140000"
      },
      "nonce": 1077,
      "data": "0x",
      "r": "0x768ba2883e0572f59941aa66f17e3102b7294f711a805ab8de0febfa461bfa49",
      "s": "0x0ff0bbb6c5e385d8f6c9fe9f711eb4f663de611ef64841d703d9fcd35fa085f7",
      "v": 28,
      "creates": null,
      "raw": "0xf86f820435850cfec3e39e82520894cf684dfb8304729355b58315e8019b1aa2ad1bac892ed43e9c7b9f140000801ca0768ba2883e0572f59941aa66f17e3102b7294f711a805ab8de0febfa461bfa49a00ff0bbb6c5e385d8f6c9fe9f711eb4f663de611ef64841d703d9fcd35fa085f7",
      "networkId": 0,
      "chainId": 0
    }
  ]
}