{
  "hash": "0xf2ab4f493e4e0f0380041601d4da0d282e0bd546c88f8052baa1ea194adfe4ef",
  "parentHash": "0x439b778d4dbb4abf767f2a1dbfa1ce3711ecb0c2d9a0e0af9d3f32f71173302d",
  "number": 95202,
  "timestamp": 1439720479,
  "nonce": "0x072b6b6cafd5f3c1",
  "difficulty": 3537787784537,
  "gasLimit": {
    "_hex": "0x2fefd8"
  },
  "gasUsed": {
    "_hex": "0x546c"
  },
  "miner": "0xe6A7a1d47ff21B6321162AEA7C6CB457D5476Bca",
  "extraData": "0x476574682f76312e302e312d38326566323666362f6c696e75782f676f312e34",
  "transactions": [
    {
      "hash": "0x42790c61eaeda9c52e65a5de0337ce2fe59d06632bd022de80e6e15f24a18a2f",
      "blockHash": "0xf2ab4f493e4e0f0380041601d4da0d282e0bd546c88f8052baa1ea194adfe4ef",
      "blockNumber": 95202,
      "transactionIndex": 0,
      "confirmations": null,
      "from": "0x2B5F4B3f1E11707A227Aa5e69fa49ddeD33fB321",
      "gasPrice": {
        "_hex": "0xccd12ee77"
      },
      "gasLimit": {
        "_hex": "0x55f0"
      },
      "to": "0x2910543Af39abA0Cd09dBb2D50200b3E800A63D2",
      "value": {
        "_hex": "0x43c33c1937564800000"
      },
      "nonce": 3,
      "data": "0x454e3756465a343052",
      "r": "0xfaa085f47307bcbd964911fe1140b19f01c0ecd13834d68b393b30f0ca6a3b42",
      "s": "0x2f93b5c5cf44b4fedfef37abb145bbe813c3490b8c6efdc3ef34b76351748b98",
      "v": 27,
      "creates": null,
      "raw": "0xf87703850ccd12ee778255f0942910543af39aba0cd09dbb2d50200b3e800a63d28a043c33c193756480000089454e3756465a3430521ba0faa085f47307bcbd964911fe1140b19f01c0ecd13834d68b393b30f0ca6a3b42a02f93b5c5cf44b4fedfef37abb145bbe813c3490b8c6efdc3ef34b76351748b98",
      "networkId": 0,
      "chainId": 0
    }
  ]
}