{
  "hash": "0x01eef8400927c6687fbf651f5e7716928d5e3e6cce8002609ccb1da2d3695ee3",
  "parentHash": "0x176c7cb89b7a179e5523fc80ec08fb2cac722b8441d025073cff7a9665ad9a9b",
  "number": 71658,
  "timestamp": 1439339690,
  "nonce": "0x53e8a8b188c2992e",
  "difficulty": 2183560224429,
  "gasLimit": {
    "_hex": "0x2fefd8"
  },
  "gasUsed": {
    "_hex": "0xaec1"
  },
  "miner": "0x0037ce3d4B7f8729C8607D8D0248252Be68202c0",
  "extraData": "0x476574682f76312e302e312f77696e646f77732f676f312e342e32",
  "transactions": [
    {
      "hash": "0xcd85a8740afaaba3ea8373f1f05960f9f5f1f8dcf3c0fc1d320ed9563f43a1a0",
      "blockHash": "0x01eef8400927c6687fbf651f5e7716928d5e3e6cce8002609ccb1da2d3695ee3",
      "blockNumber": 71658,
      "transactionIndex": 0,
      "confirmations": null,
      "from": "0x17580B766f7453525ca4C6A88b01b50570EA088C",
      "gasPrice": {
        "_hex": "0xdb15df9dc"
      },
      "gasLimit": {
        "_hex": "0x61a80"
      },
      "to": "0x5Fe5B7546D1628f7348B023A0393de1FC825A4fD",
      "value": {
        "_hex": "0x29a2241af62c0000"
      },
      "nonce": 247,
      "data": "0xb595b8b50000000000000000000000000000000000000000000000000000000000000001",
      "r": "0x21fb4d976983a7d156e4ec3b0c8c9c7b08d4c1ae7ac7800a209e14c23ecee36d",
      "s": "0x5c7901b14d0cf24bade8a937b913e9b13b818ad3457e12054004644675ac6572",
      "v": 28,
      "creates": null,
      "raw": "0xf89281f7850db15df9dc83061a80945fe5b7546d1628f7348b023a0393de1fc825a4fd8829a2241af62c0000a4b595b8b500000000000000000000000000000000000000000000000000000000000000011ca021fb4d976983a7d156e4ec3b0c8c9c7b08d4c1ae7ac7800a209e14c23ecee36da05c7901b14d0cf24bade8a937b913e9b13b818ad3457e12054004644675ac6572",
      "networkId": 0,
      "chainId": 0
    }
  ]
}