{
  "hash": "0xab2f44224b2d0a0537350f508ce03f01c03cf34598fafd4b8b4d68810e5b5042",
  "parentHash": "0x86529df619e45754ed82e47484b575c8e5d3f173dc2ad31e63524ba71b226453",
  "number": 56617,
  "timestamp": 1439089848,
  "nonce": "0xe01e30c79d9011e9",
  "difficulty": 1681297955628,
  "gasLimit": {
    "_hex": "0x2fefd8"
  },
  "gasUsed": {
    "_hex": "0x5208"
  },
  "miner": "0xbe4532E1B1Db5c913Cf553be76180c1777055403",
  "extraData": "0x476574682f686261722f76312e302e312f6c696e75782f676f312e342e32",
  "transactions": [
    {
      "hash": "0x285d374660fafe3dac56ae220172dcb05f2b4653cbf84488bcf63eac61b32a75",
      "blockHash": "0xab2f44224b2d0a0537350f508ce03f01c03cf34598fafd4b8b4d68810e5b5042",
      "blockNumber": 56617,
      "transactionIndex": 0,
      "confirmations": null,
      "from": "0xaca1E6BC64cC3180F620E94dC5B1Bcfd8158e45D",
      "gasPrice": {
        "_hex": "0xda6ca64b5"
      },
      "gasLimit": {
        "_hex": "0x15f90"
      },
      "to": "0x40d8646B152DBb1eBFf414Ab9f26b94d1858458c",
      "value": {
        "_hex": "0x3e7"
      },
      "nonce": 1,
      "data": "0x",
      "r": "0xc488809f7e9a060cb3c57e3dad0e49e8dc612d67ce7f3b4eec640f6efccb825d",
      "s": "0x5de7336d2ff9250ef41ee6a7ef1a4f50132356764724f5dc4db3338e207ff28f",
      "v": 28,
      "creates": null,
      "raw": "0xf86701850da6ca64b583015f909440d8646b152dbb1ebff414ab9f26b94d1858458c8203e7801ca0c488809f7e9a060cb3c57e3dad0e49e8dc612d67ce7f3b4eec640f6efccb825da05de7336d2ff9250ef41ee6a7ef1a4f50132356764724f5dc4db3338e207ff28f",
      "networkId": 0,
      "chainId": 0
    }
  ]
}