{
  "hash": "0x895977f409c7217d1b3117b21570c7b19c854a27a2c22d10f678c11ca2c6a32d",
  "parentHash": "0xa448d1a7dee6e4b2c20cc77a0e290a6a60176d7abb0070a6beb614fad25a5efa",
  "number": 46647,
  "timestamp": 1438926806,
  "nonce": "0xfd8eb22ee7969bc2",
  "difficulty": 1455350522489,
  "gasLimit": {
    "_hex": "0x6e05"
  },
  "gasUsed": {
    "_hex": "0x5208"
  },
  "miner": "0x306e6267d94f23a9b37Cb110f20852208Fbbf1aA",
  "extraData": "0x476574682f76312e302e312f77696e646f77732f676f312e342e32",
  "transactions": [
    {
      "hash": "0x6d1e7f3d0503a0b796728610f8fbe678a36f4781c6d1dec74a1ce0f5afe8591e",
      "blockHash": "0x895977f409c7217d1b3117b21570c7b19c854a27a2c22d10f678c11ca2c6a32d",
      "blockNumber": 46647,
      "transactionIndex": 0,
      "confirmations": null,
      "from": "0xf06D9Ad3b665226845A219eDaD87696fcE2Fb88E",
      "gasPrice": {
        "_hex": "0x45d964b800"
      },
      "gasLimit": {
        "_hex": "0x5208"
      },
      "to": "0xD1F647c106B7C9ed6Fdb157979744C4Acf521A40",
      "value": {
        "_hex": "0xde0b6b3a7640000"
      },
      "nonce": 0,
      "data": "0x",
      "r": "0xe9798db71777ec289a8fe01c7963694e5d14f4f1e0119b60b16ba35eb75b78c8",
      "s": "0x254d5ad0a77ef83307bd9b93c5a071bb1f62e56eb2fa1f3108ce89ad33a7e4a9",
      "v": 28,
      "creates": null,
      "raw": "0xf86c808545d964b80082520894d1f647c106b7c9ed6fdb157979744c4acf521a40880de0b6b3a7640000801ca0e9798db71777ec289a8fe01c7963694e5d14f4f1e0119b60b16ba35eb75b78c8a0254d5ad0a77ef83307bd9b93c5a071bb1f62e56eb2fa1f3108ce89ad33a7e4a9",
      "networkId": 0,
      "chainId": 0
    }
  ]
}