{
  "hash": "0x81823e920e9dcae04a643e93def05cd2dd91eafc0b7cc4ce5655fdfb617a0db9",
  "parentHash": "0xc0c0c2ebaf644441112502dab879b82354f87795953ea164a26f23118b92f039",
  "number": 76003,
  "timestamp": 1439413256,
  "nonce": "0x7e48cd947a55d272",
  "difficulty": 2235275516063,
  "gasLimit": {
    "_hex": "0x2fefd8"
  },
  "gasUsed": {
    "_hex": "0x5208"
  },
  "miner": "0xa50ec0D39fa913E62f1Bae7074E6F36caA71855b",
  "extraData": "0xd783010001844765746887676f312e342e32856c696e7578",
  "transactions": [
    {
      "hash": "0x12357af3e76aa09d60164b9c0fa4a1cb719f7fc17bc62155deeec4e458d42a7f",
      "blockHash": "0x81823e920e9dcae04a643e93def05cd2dd91eafc0b7cc4ce5655fdfb617a0db9",
      "blockNumber": 76003,
      "transactionIndex": 0,
      "confirmations": null,
      "from": "0xee5379D0c1ca47327368027455074C26D9952628",
      "gasPrice": {
        "_hex": "0xd0fb0ec94"
      },
      "gasLimit": {
        "_hex": "0x15f90"
      },
      "to": "0xB8796061FcCcC0c40BD2060d95d6cff928bD1C1B",
      "value": {
        "_hex": "0x36f4bf04de8c00000"
      },
      "nonce": 6,
      "data": "0x",
      "r": "0x6bbf01d8be41883adde95660b3386f3de8ea4f295026aa3940ee70577ace5880",
      "s": "0x2059398d6cb10084b1cae61325e602188499b6a57395e202f598f6127777395d",
      "v": 28,
      "creates": null,
      "raw": "0xf86e06850d0fb0ec9483015f9094b8796061fcccc0c40bd2060d95d6cff928bd1c1b89036f4bf04de8c00000801ca06bbf01d8be41883adde95660b3386f3de8ea4f295026aa3940ee70577ace5880a02059398d6cb10084b1cae61325e602188499b6a57395e202f598f6127777395d",
      "networkId": 0,
      "chainId": 0
    }
  ]
}