{
  "hash": "0xdef7e2c01a86b506115456c2dafc6e33aa6e24488085c3e6333e4ad81cbb89d9",
  "parentHash": "0xefb058f2072ccd2d1e01606214e981d272ce35d2659f0fa14e6679873a25d252",
  "number": 102219,
  "timestamp": 1439834629,
  "nonce": "0x6b54f2f24d29b28d",
  "difficulty": 3929932146221,
  "gasLimit": {
    "_hex": "0x2fefd8"
  },
  "gasUsed": {
    "_hex": "0x1bdbe"
  },
  "miner": "0xe6A7a1d47ff21B6321162AEA7C6CB457D5476Bca",
  "extraData": "0x476574682f76312e302e312d38326566323666362f6c696e75782f676f312e34",
  "transactions": [
    {
      "hash": "0x3765c1aab9983feaeda235a400220ab8736f9f9dcb4d9e16cda3d13eaafdab8c",
      "blockHash": "0xdef7e2c01a86b506115456c2dafc6e33aa6e24488085c3e6333e4ad81cbb89d9",
      "blockNumber": 102219,
      "transactionIndex": 0,
      "confirmations": null,
      "from": "0x2d11763B4999FB3b61Ca8d19C8C77a743079f7bd",
      "gasPrice": {
        "_hex": "0xe002794da"
      },
      "gasLimit": {
        "_hex": "0x249f0"
      },
      "to": "0xE28e72FCf78647ADCe1F1252F240bbfaebD63BcC",
      "value": {
        "_hex": "0x8ac7230489e80000"
      },
      "nonce": 16,
      "data": "0x45466f3a",
      "r": "0x25cbf3d5fd91d6cdfeaf8eff88092505694109dc19848fe17c9d29c0cb58cd9b",
      "s": "0x1fa34be975d1d3c43cb2bc3f615804ecb7a1e5d5e8904c897205dea5b30e3871",
      "v": 27,
      "creates": null,
      "raw": "0xf87110850e002794da830249f094e28e72fcf78647adce1f1252f240bbfaebd63bcc888ac7230489e800008445466f3a1ba025cbf3d5fd91d6cdfeaf8eff88092505694109dc19848fe17c9d29c0cb58cd9ba01fa34be975d1d3c43cb2bc3f615804ecb7a1e5d5e8904c897205dea5b30e3871",
      "networkId": 0,
      "chainId": 0
    }
  ]
}