{
  "hash": "0xa3e72c212a4aedb0ba4ca4d67bb99e4df32bf1ecf7ef3d81bae126a666ad82f5",
  "parentHash": "0x2d9aa7cb188237285126cf5b0c5a7ef3e38a51d45751c617bd5864a295dbdff0",
  "number": 93570,
  "timestamp": 1439693365,
  "nonce": "0xeea1621555dfcd83",
  "difficulty": 3466648744622,
  "gasLimit": {
    "_hex": "0x2fefd8"
  },
  "gasUsed": {
    "_hex": "0xa410"
  },
  "miner": "0xE300c4587D260cE22a677755Db6429B491A4309E",
  "extraData": "0x",
  "transactions": [
    {
      "hash": "0x37f647d2695cf9e0aa350a1c7770fd9ff24788e760e72e90051a1dc1bd7cce58",
      "blockHash": "0xa3e72c212a4aedb0ba4ca4d67bb99e4df32bf1ecf7ef3d81bae126a666ad82f5",
      "blockNumber": 93570,
      "transactionIndex": 0,
      "confirmations": null,
      "from": "0xCbbdAd70d0ff27254925AD37B5C135EEe1116615",
      "gasPrice": {
        "_hex": "0xd9fa3f05f"
      },
      "gasLimit": {
        "_hex": "0x15f90"
      },
      "to": "0x886e83d9133F65B9c27A946f699E88e71A888E4C",
      "value": {
        "_hex": "0x6f05b59d3b20000"
      },
      "nonce": 6,
      "data": "0x",
      "r": "0xece3d071dc4733d7373800ce531b5cac0650ff74a77aa558e052e06ef1e8f1c2",
      "s": "0x76ad0b5aa8974000c6d5e14668b8072c05755e01cd411dc6ed7e35ae91151e56",
      "v": 28,
      "creates": null,
      "raw": "0xf86d06850d9fa3f05f83015f9094886e83d9133f65b9c27a946f699e88e71a888e4c8806f05b59d3b20000801ca0ece3d071dc4733d7373800ce531b5cac0650ff74a77aa558e052e06ef1e8f1c2a076ad0b5aa8974000c6d5e14668b8072c05755e01cd411dc6ed7e35ae91151e56",
      "networkId": 0,
      "chainId": 0
    },
    {
      "hash": "0x87fbc0af6c0cc36ba372aacab8dd1196554d6021169bee3b9a3174cbf29ce7e7",
      "blockHash": "0xa3e72c212a4aedb0ba4ca4d67bb99e4df32bf1ecf7ef3d81bae126a666ad82f5",
      "blockNumber": 93570,
      "transactionIndex": 1,
      "confirmations": null,
      "from": "0x32Be343B94f860124dC4fEe278FDCBD38C102D88",
      "gasPrice": {
        "_hex": "0xd6c1b60d3"
      },
      "gasLimit": {
        "_hex": "0x5208"
      },
      "to": "0x76899c112A85c5a7d27Ff89f1b97112e900aeEBc",
      "value": {
        "_hex": "0xdde7e448067f0000"
      },
      "nonce": 926,
      "data": "0x",
      "r": "0x5c9d97dfde3bc28d7f95827faec38647cece665cb693db8cbf4241669ffc7f91",
      "s": "0x31e3e7bf790a989f11411bfa62407057f179a9b3d561f374a67d530ce8586cb8",
      "v": 28,
      "creates": null,
      "raw": "0xf86e82039e850d6c1b60d38252089476899c112a85c5a7d27ff89f1b97112e900aeebc88dde7e448067f0000801ca05c9d97dfde3bc28d7f95827faec38647cece665cb693db8cbf4241669ffc7f91a031e3e7bf790a989f11411bfa62407057f179a9b3d561f374a67d530ce8586cb8",
      "networkId": 0,
      "chainId": 0
    }
  ]
}