{
  "hash": "0x31f979505b79c3a9bd375b43db7af1d04e2105c3430829dd77f2e8b040249c05",
  "parentHash": "0x1f3edff703b9f03292150a5b6fea19875505792d0a68e20a6b913b7d6fa1e4cf",
  "number": 100900,
  "timestamp": 1439814247,
  "nonce": "0x93791cab523dd150",
  "difficulty": 3867723591362,
  "gasLimit": {
    "_hex": "0x2fefd8"
  },
  "gasUsed": {
    "_hex": "0x5208"
  },
  "miner": "0x9D49F602b0fdb924Bd63DDE2Bd0907E4A07c63a7",
  "extraData": "0x476574682f76312e302e312f6c696e75782f676f312e342e32",
  "transactions": [
    {
      "hash": "0xd75be2456199bf5c1fe21aa021a000d249d254252ee66d4a74ea4851a182c5d8",
      "blockHash": "0x31f979505b79c3a9bd375b43db7af1d04e2105c3430829dd77f2e8b040249c05",
      "blockNumber": 100900,
      "transactionIndex": 0,
      "confirmations": null,
      "from": "0x02d7FFc396D24b1dBfca72ce1ae8a22dfa5DA000",
      "gasPrice": {
        "_hex": "0xdda8f633b"
      },
      "gasLimit": {
        "_hex": "0x5208"
      },
      "to": "0xFBb1b73C4f0BDa4f67dcA266ce6Ef42f520fBB98",
      "value": {
        "_hex": "0xddc4642e5200028"
      },
      "nonce": 0,
      "data": "0x",
      "r": "0x2508582d86c582887fd1b26b2d8282b9c46cdb51bc85bad2da2124a996eb0b34",
      "s": "0x7a8227036c1f98a7979e78f2ce95c5ba7d46f2298d4777befdf4ce221b59f3c5",
      "v": 27,
      "creates": null,
      "raw": "0xf86c80850dda8f633b82520894fbb1b73c4f0bda4f67dca266ce6ef42f520fbb98880ddc4642e5200028801ba02508582d86c582887fd1b26b2d8282b9c46cdb51bc85bad2da2124a996eb0b34a07a8227036c1f98a7979e78f2ce95c5ba7d46f2298d4777befdf4ce221b59f3c5",
      "networkId": 0,
      "chainId": 0
    }
  ]
}