{
  "hash": "0x9048225545e52f1ae4e13ece5baa966bd6cab81fde5249f4dbb9b4ca873f0c5a",
  "parentHash": "0xe55ae13155de31f94841c6d8db285e6f2703a17631191c7093ac513755957c1a",
  "number": 80884,
  "timestamp": 1439492671,
  "nonce": "0x05fc3d953ac9f42c",
  "difficulty": 2447559080394,
  "gasLimit": {
    "_hex": "0x2fefd8"
  },
  "gasUsed": {
    "_hex": "0x5758"
  },
  "miner": "0xe090Ffdced499691fA9379752a59F8A058c1eE4A",
  "extraData": "0x476574682f76312e302e312f6c696e75782f676f312e342e32",
  "transactions": [
    {
      "hash": "0xdaa834e51d6f2864a658b1e7acd10dc32ff87c1a4a728d70de2ed313bd0ca1ee",
      "blockHash": "0x9048225545e52f1ae4e13ece5baa966bd6cab81fde5249f4dbb9b4ca873f0c5a",
      "blockNumber": 80884,
      "transactionIndex": 0,
      "confirmations": null,
      "from": "0x4d67f2AB8599fef5Fc413999Aa01FD7fcE70B43D",
      "gasPrice": {
        "_hex": "0xd5773a7b8"
      },
      "gasLimit": {
        "_hex": "0x7d00"
      },
      "to": "0x2910543Af39abA0Cd09dBb2D50200b3E800A63D2",
      "value": {
        "_hex": "0x16345785d8a0000"
      },
      "nonce": 8,
      "data": "0x584538314554484b52414b454e304245364b4838",
      "r": "0x8fba5a8233c7665ef0b413e4e685a5b96f5c0ea4ab7eb6904d9a2f44442a5456",
      "s": "0x641ccd1dcb01548deaf037a01d0915c88ca485aaabae32876c1067e902ce1982",
      "v": 28,
      "creates": null,
      "raw": "0xf88008850d5773a7b8827d00942910543af39aba0cd09dbb2d50200b3e800a63d288016345785d8a000094584538314554484b52414b454e304245364b48381ca08fba5a8233c7665ef0b413e4e685a5b96f5c0ea4ab7eb6904d9a2f44442a5456a0641ccd1dcb01548deaf037a01d0915c88ca485aaabae32876c1067e902ce1982",
      "networkId": 0,
      "chainId": 0
    }
  ]
}