{
  "hash": "0x43865ba0f27c738aaea3ec7f1616d4bfd653cbc46320be268ab8423df0a53827",
  "parentHash": "0x9aa3548916fdfc61830d0dbd1ba8ee8459ccb0658222bf0cf831c3a5c8f84bc1",
  "number": 86085,
  "timestamp": 1439573121,
  "nonce": "0x8d80c7c5daa0c021",
  "difficulty": 2811256099258,
  "gasLimit": {
    "_hex": "0x2fefd8"
  },
  "gasUsed": {
    "_hex": "0x5208"
  },
  "miner": "0xeB1325C8D9d3ea8D74aC11F4B00F1B2367686319",
  "extraData": "0x476574682f76312e302e312f77696e646f77732f676f312e342e32",
  "transactions": [
    {
      "hash": "0x54440b5008ba9ab29cd1f366c285b4449878ce9f6e5ec24e320647c1fe3c237c",
      "blockHash": "0x43865ba0f27c738aaea3ec7f1616d4bfd653cbc46320be268ab8423df0a53827",
      "blockNumber": 86085,
      "transactionIndex": 0,
      "confirmations": null,
      "from": "0x900755EB624662556E5c2A2467d2057790397545",
      "gasPrice": {
        "_hex": "0xba43b7400"
      },
      "gasLimit": {
        "_hex": "0x5208"
      },
      "to": "0xC47Aaa860008be6f65B58c6C6E02a84e666EfE31",
      "value": {
        "_hex": "0xa67311fa73cbb8f0"
      },
      "nonce": 1,
      "data": "0x",
      "r": "0xedc9dbd15de42642cbbed280d072ac0bc2ea86a91d7edbd1c46a6a5f6c907be1",
      "s": "0x5da4fab987eb38205bf9829cf0ceefb0fd16723bff3cec12facd7f74be882bb3",
      "v": 27,
      "creates": null,
      "raw": "0xf86c01850ba43b740082520894c47aaa860008be6f65b58c6c6e02a84e666efe3188a67311fa73cbb8f0801ba0edc9dbd15de42642cbbed280d072ac0bc2ea86a91d7edbd1c46a6a5f6c907be1a05da4fab987eb38205bf9829cf0ceefb0fd16723bff3cec12facd7f74be882bb3",
      "networkId": 0,
      "chainId": 0
    }
  ]
}