{
  "hash": "0x669631b1dc5762f59cd01e17a03a3bc8409f8d984f677c5dffc243b025639de3",
  "parentHash": "0xab20a21807000cd60de615386a634181699c6856fd931a250f232f4d05398aa8",
  "number": 100888,
  "timestamp": 1439814007,
  "nonce": "0x7b5c9b8f788b0e59",
  "difficulty": 3863953888346,
  "gasLimit": {
    "_hex": "0x2fefd8"
  },
  "gasUsed": {
    "_hex": "0xa674"
  },
  "miner": "0xe6A7a1d47ff21B6321162AEA7C6CB457D5476Bca",
  "extraData": "0x476574682f76312e302e312d38326566323666362f6c696e75782f676f312e34",
  "transactions": [
    {
      "hash": "0xf13c94154d583aefb7c33ba87720be8f550a9e0c0291acc421415b88a8834999",
      "blockHash": "0x669631b1dc5762f59cd01e17a03a3bc8409f8d984f677c5dffc243b025639de3",
      "blockNumber": 100888,
      "transactionIndex": 0,
      "confirmations": null,
      "from": "0xAA5afCFd8309c2Df9d15Be5E6A504e7d706624c5",
      "gasPrice": {
        "_hex": "0x110c8f7d8de"
      },
      "gasLimit": {
        "_hex": "0xc350"
      },
      "to": "0x2910543Af39abA0Cd09dBb2D50200b3E800A63D2",
      "value": {
        "_hex": "0x13ce4f7c5501db70000"
      },
      "nonce": 1,
      "data": "0x454e414a344b4b4530",
      "r": "0xebf0fda4530714d104ed240845dd207788acd239c0eb0cc6a0e8c890112d45bf",
      "s": "0x0998a32e15f1c9d6db2c0bcb18fbac6c30000b3e74d3f459cfb4ecc3576a5e82",
      "v": 27,
      "creates": null,
      "raw": "0xf87801860110c8f7d8de82c350942910543af39aba0cd09dbb2d50200b3e800a63d28a013ce4f7c5501db7000089454e414a344b4b45301ba0ebf0fda4530714d104ed240845dd207788acd239c0eb0cc6a0e8c890112d45bfa00998a32e15f1c9d6db2c0bcb18fbac6c30000b3e74d3f459cfb4ecc3576a5e82",
      "networkId": 0,
      "chainId": 0
    },
    {
      "hash": "0xd448f6927245a983e7f94c456a21a7c31766fccce0f7f635d470ac21ded4b633",
      "blockHash": "0x669631b1dc5762f59cd01e17a03a3bc8409f8d984f677c5dffc243b025639de3",
      "blockNumber": 100888,
      "transactionIndex": 1,
      "confirmations": null,
      "from": "0x2910543Af39abA0Cd09dBb2D50200b3E800A63D2",
      "gasPrice": {
        "_hex": "0xde09b6cdb"
      },
      "gasLimit": {
        "_hex": "0x5208"
      },
      "to": "0x645B979F8ce622236DB26feB803455d40C328615",
      "value": {
        "_hex": "0x6c6b819812855f8000"
      },
      "nonce": 956,
      "data": "0x",
      "r": "0xece7bca2184743cf9f5d7bca7e5dca78fed62955f30b7492d95057a5535ccb43",
      "s": "0x4a44299bd0a7b12b2a474e7a5f02bcb1f008d804757583e6be3074be65690b8a",
      "v": 27,
      "creates": null,
      "raw": "0xf86f8203bc850de09b6cdb82520894645b979f8ce622236db26feb803455d40c328615896c6b819812855f8000801ba0ece7bca2184743cf9f5d7bca7e5dca78fed62955f30b7492d95057a5535ccb43a04a44299bd0a7b12b2a474e7a5f02bcb1f008d804757583e6be3074be65690b8a",
      "networkId": 0,
      "chainId": 0
    }
  ]
}