{
  "hash": "0x18f11750e55e053f57dcd90a7046599a4cdb8a0453f2b2073296ab8863b1098d",
  "parentHash": "0xd9ad242541ee9908ac3030dc8fca0392a16f9141186b4eda5916c322b79f5922",
  "number": 51550,
  "timestamp": 1439006852,
  "nonce": "0xd8c1886ed879401b",
  "difficulty": 1561213001439,
  "gasLimit": {
    "_hex": "0xbe672"
  },
  "gasUsed": {
    "_hex": "0x87f1d"
  },
  "miner": "0xf927a40C8B7F6E07c5af7FA2155B4864a4112B13",
  "extraData": "0x476574682f76312e302e312f6c696e75782f676f312e342e32",
  "transactions": [
    {
      "hash": "0x0947a172b37c8442c65dfb7d02a55d6057398232be80773374cc41352dfd18da",
      "blockHash": "0x18f11750e55e053f57dcd90a7046599a4cdb8a0453f2b2073296ab8863b1098d",
      "blockNumber": 51550,
      "transactionIndex": 0,
      "confirmations": null,
      "from": "0xBD744E3F13D79B33F6c8E1d5E32F8E9BA2866c46",
      "gasPrice": {
        "_hex": "0xe16433aa2"
      },
      "gasLimit": {
        "_hex": "0x7a120"
      },
      "to": "0xA327075af2a223A1C83a36aDa1126afE7430f955",
      "value": {
        "_hex": "0x8ac7230489e80000"
      },
      "nonce": 6,
      "data": "0x",
      "r": "0x4b898ff4f3d0cd5fb66f51f32040aea8fed3530faac266d1668f30f803c70106",
      "s": "0x61bc4ff29931df21cde05e2d5bdc307f39a85eb84698e706cf96096c81cc321d",
      "v": 27,
      "creates": null,
      "raw": "0xf86d06850e16433aa28307a12094a327075af2a223a1c83a36ada1126afe7430f955888ac7230489e80000801ba04b898ff4f3d0cd5fb66f51f32040aea8fed3530faac266d1668f30f803c70106a061bc4ff29931df21cde05e2d5bdc307f39a85eb84698e706cf96096c81cc321d",
      "networkId": 0,
      "chainId": 0
    },
    {
      "hash": "0xdee41019431c0ba43aaf4ad8dcbaa207dbd727fc13b35f4c77a3dbdf29b3c62e",
      "blockHash": "0x18f11750e55e053f57dcd90a7046599a4cdb8a0453f2b2073296ab8863b1098d",
      "blockNumber": 51550,
      "transactionIndex": 1,
      "confirmations": null,
      "from": "0xBD744E3F13D79B33F6c8E1d5E32F8E9BA2866c46",
      "gasPrice": {
        "_hex": "0xe16433aa2"
      },
      "gasLimit": {
        "_hex": "0x7a120"
      },
      "to": "0x109C4f2CCc82C4d77Bde15F306707320294Aea3F",
      "value": {
        "_hex": "0xde0b6b3a7640000"
      },
      "nonce": 7,
      "data": "0x",
      "r": "0x7f8b7e482b78331ab3819dd9cfd1840cdf7bb538777aedd51ac2127e045f6310",
      "s": "0x7bb8277fba040e9613e231a932ee846024d5f4a97d8b5765db809f800c20bb86",
      "v": 27,
      "creates": null,
      "raw": "0xf86d07850e16433aa28307a12094109c4f2ccc82c4d77bde15f306707320294aea3f880de0b6b3a7640000801ba07f8b7e482b78331ab3819dd9cfd1840cdf7bb538777aedd51ac2127e045f6310a07bb8277fba040e9613e231a932ee846024d5f4a97d8b5765db809f800c20bb86",
      "networkId": 0,
      "chainId": 0
    }
  ]
}