{
  "hash": "0xc19390b04dd1139f3af523898868d12ac4df49120ab36f33b157ba0aaaec6afd",
  "parentHash": "0xe3f7f1d9b5eb9b6545eb05dafa830465af052280ab1c44335238e56950e19bca",
  "number": 85629,
  "timestamp": 1439566400,
  "nonce": "0x2c62d8a855f050eb",
  "difficulty": 2786807540947,
  "gasLimit": {
    "_hex": "0x2fefd8"
  },
  "gasUsed": {
    "_hex": "0x5d9f"
  },
  "miner": "0xe6A7a1d47ff21B6321162AEA7C6CB457D5476Bca",
  "extraData": "0x476574682f76312e302e312d38326566323666362f6c696e75782f676f312e34",
  "transactions": [
    {
      "hash": "0xcdc595f83704df4f828448b072c75ebef30eabeacb50fdf9013d9ed9a5414c11",
      "blockHash": "0xc19390b04dd1139f3af523898868d12ac4df49120ab36f33b157ba0aaaec6afd",
      "blockNumber": 85629,
      "transactionIndex": 0,
      "confirmations": null,
      "from": "0x02020D22dCF88f5eDd66B382D7da019F161fB7e3",
      "gasPrice": {
        "_hex": "0xcb65014ec"
      },
      "gasLimit": {
        "_hex": "0x15f90"
      },
      "to": "0xCAc7000C7dBaa2E33Af15325AF5D435E011C7BdD",
      "value": {
        "_hex": "0x1"
      },
      "nonce": 5,
      "data": "0xb214faa5384e53354b355737410000000000000000000000000000000000000000000000",
      "r": "0xc66abe1ca0ec851b725a609b99f0b0d0ead4154e9188220f4b949818fca11806",
      "s": "0x485c4cf384721c713854e9ca2b429b1f2e0d884e41953371bfe614e0d57ed7a1",
      "v": 27,
      "creates": null,
      "raw": "0xf88905850cb65014ec83015f9094cac7000c7dbaa2e33af15325af5d435e011c7bdd01a4b214faa5384e53354b3557374100000000000000000000000000000000000000000000001ba0c66abe1ca0ec851b725a609b99f0b0d0ead4154e9188220f4b949818fca11806a0485c4cf384721c713854e9ca2b429b1f2e0d884e41953371bfe614e0d57ed7a1",
      "networkId": 0,
      "chainId": 0
    }
  ]
}