{
  "hash": "0x121af501280504c617a7054da5cf6920c52d7d3d1d1f454400b39367b9b9b916",
  "parentHash": "0xa1ea4dc44c563d4602e522ef432469d39f211de608750be6e282a7478f0c57d2",
  "number": 112708,
  "timestamp": 1440011827,
  "nonce": "0x40bba599c870d5f2",
  "difficulty": 4428129464285,
  "gasLimit": {
    "_hex": "0x2fefd8"
  },
  "gasUsed": {
    "_hex": "0xa410"
  },
  "miner": "0x0037ce3d4B7f8729C8607D8D0248252Be68202c0",
  "extraData": "0x476574682f76312e302e312f77696e646f77732f676f312e342e32",
  "transactions": [
    {
      "hash": "0x975861c572b7811dc5a8de2d70c36965c935a388f737fbf4c39ede4afcb298a3",
      "blockHash": "0x121af501280504c617a7054da5cf6920c52d7d3d1d1f454400b39367b9b9b916",
      "blockNumber": 112708,
      "transactionIndex": 0,
      "confirmations": null,
      "from": "0xA542d5046D885E5fC7Dc4006ADb648C5710Ff0ED",
      "gasPrice": {
        "_hex": "0x746a528800"
      },
      "gasLimit": {
        "_hex": "0x5208"
      },
      "to": "0xE3a44b84A68C84F674E1e8c17445742DE48D9501",
      "value": {
        "_hex": "0x93be309856cf0000"
      },
      "nonce": 6,
      "data": "0x",
      "r": "0x52ba35ccc9e63f096425005dde45db68463bcb542065a180a06acb5ec1246e3d",
      "s": "0x910aa7ae66ae017dc3a19d54ee6ef7395e4833143ce0d3570a6c2d39a0dfd4ca",
      "v": 28,
      "creates": null,
      "raw": "0xf86c0685746a52880082520894e3a44b84a68c84f674e1e8c17445742de48d95018893be309856cf0000801ca052ba35ccc9e63f096425005dde45db68463bcb542065a180a06acb5ec1246e3da0910aa7ae66ae017dc3a19d54ee6ef7395e4833143ce0d3570a6c2d39a0dfd4ca",
      "networkId": 0,
      "chainId": 0
    },
    {
      "hash": "0xb02baf087deed081dc8639c9c6240ea6f8e91c7daf849d21ac7ecd23495dd0cd",
      "blockHash": "0x121af501280504c617a7054da5cf6920c52d7d3d1d1f454400b39367b9b9b916",
      "blockNumber": 112708,
      "transactionIndex": 1,
      "confirmations": null,
      "from": "0x86d3856ad0105B9d4199936c1fd203664BA325dC",
      "gasPrice": {
        "_hex": "0xdd0828b7e"
      },
      "gasLimit": {
        "_hex": "0x5208"
      },
      "to": "0x32Be343B94f860124dC4fEe278FDCBD38C102D88",
      "value": {
        "_hex": "0x132a11885d8993000"
      },
      "nonce": 29,
      "data": "0x",
      "r": "0x3430d34c456dda01fed620bf9c032b9bc9d3e7da77b9dae1e530d0aedf61fcc6",
      "s": "0x6f6eb30611e69d6baa30665d2db83a2344ba77bc077fbedfc1d511e6dc5c7489",
      "v": 28,
      "creates": null,
      "raw": "0xf86d1d850dd0828b7e8252089432be343b94f860124dc4fee278fdcbd38c102d88890132a11885d8993000801ca03430d34c456dda01fed620bf9c032b9bc9d3e7da77b9dae1e530d0aedf61fcc6a06f6eb30611e69d6baa30665d2db83a2344ba77bc077fbedfc1d511e6dc5c7489",
      "networkId": 0,
      "chainId": 0
    }
  ]
}