{
  "hash": "0x84d8baba739b27075990c2e4575d52209b18ffb67e987b2b2e4637f130a3e3c5",
  "parentHash": "0xd386a17e969e5c2cef96e67e1d13782f0eb779043c0355f8778071a4a2735e9d",
  "number": 107362,
  "timestamp": 1439921155,
  "nonce": "0xd211ef779a866971",
  "difficulty": 4400765957222,
  "gasLimit": {
    "_hex": "0x2fefd8"
  },
  "gasUsed": {
    "_hex": "0x5208"
  },
  "miner": "0x35e8e5dC5FBd97c5b421A80B596C030a2Be2A04D",
  "extraData": "0x476574682f76312e302e312f6c696e75782f676f312e342e32",
  "transactions": [
    {
      "hash": "0x41e3e61d1f7f33c8ae8e2a39c5bd79ec68d672db8bad7be25be9188cdec60df6",
      "blockHash": "0x84d8baba739b27075990c2e4575d52209b18ffb67e987b2b2e4637f130a3e3c5",
      "blockNumber": 107362,
      "transactionIndex": 0,
      "confirmations": null,
      "from": "0x32Be343B94f860124dC4fEe278FDCBD38C102D88",
      "gasPrice": {
        "_hex": "0xcd407ac9c"
      },
      "gasLimit": {
        "_hex": "0x5208"
      },
      "to": "0xB4DF81bA9111D11A33ffdCBF58027843a577D08c",
      "value": {
        "_hex": "0x8ac7230489e80000"
      },
      "nonce": 1210,
      "data": "0x",
      "r": "0x714883ab90ca8313942d1d4acbd9c31ff5a84defafe92153a679f29d5ddb6eb6",
      "s": "0x27e272320b576565d1c7f40f1ac52b3011155bc421bd1887bec579dd8e700952",
      "v": 28,
      "creates": null,
      "raw": "0xf86e8204ba850cd407ac9c82520894b4df81ba9111d11a33ffdcbf58027843a577d08c888ac7230489e80000801ca0714883ab90ca8313942d1d4acbd9c31ff5a84defafe92153a679f29d5ddb6eb6a027e272320b576565d1c7f40f1ac52b3011155bc421bd1887bec579dd8e700952",
      "networkId": 0,
      "chainId": 0
    }
  ]
}