{
  "hash": "0xee6923a65435ef1414d17f1a6d0dcdc71b0e9c019313c5e29fb78278beb807b4",
  "parentHash": "0xac7cc83f703640255c6a3f92302196d0427d4b145c1008d480b310f15b4d5ac3",
  "number": 53435,
  "timestamp": 1439037567,
  "nonce": "0xa7e0a241b487915a",
  "difficulty": 1593980696219,
  "gasLimit": {
    "_hex": "0x282543"
  },
  "gasUsed": {
    "_hex": "0x546c"
  },
  "miner": "0x84ad64deFF6B187f690634051D2a096C359D1099",
  "extraData": "0x",
  "transactions": [
    {
      "hash": "0xd476200a8608700006257028ad95d9b513c4bbf317455139c720b34c8950ecf0",
      "blockHash": "0xee6923a65435ef1414d17f1a6d0dcdc71b0e9c019313c5e29fb78278beb807b4",
      "blockNumber": 53435,
      "transactionIndex": 0,
      "confirmations": null,
      "from": "0x630c5273126D517Ce67101811caB16B8534Cf9A8",
      "gasPrice": {
        "_hex": "0x110c8f7d8de"
      },
      "gasLimit": {
        "_hex": "0xc350"
      },
      "to": "0x2910543Af39abA0Cd09dBb2D50200b3E800A63D2",
      "value": {
        "_hex": "0x878678326eac900000"
      },
      "nonce": 0,
      "data": "0x454e36344651393438",
      "r": "0xdece2e9b90b5380b12d150f4f673c105cbf7f4b744a33e4aca733a8ab76d3622",
      "s": "0x79ceb379bc76f6cf74548f8797c2fd9c961aa1363857f6c9ec49df01ad043eb5",
      "v": 27,
      "creates": null,
      "raw": "0xf87780860110c8f7d8de82c350942910543af39aba0cd09dbb2d50200b3e800a63d289878678326eac90000089454e363446513934381ba0dece2e9b90b5380b12d150f4f673c105cbf7f4b744a33e4aca733a8ab76d3622a079ceb379bc76f6cf74548f8797c2fd9c961aa1363857f6c9ec49df01ad043eb5",
      "networkId": 0,
      "chainId": 0
    }
  ]
}