{
  "hash": "0xf73dba9e700cf5b7fcd38a1908f257b2fcd7e7fc40cf33044b326b5b69641aa7",
  "parentHash": "0x249d115ddebe419916c00c552444f6a1ab93448b9dcaffb175fb6bf4050b90a4",
  "number": 105966,
  "timestamp": 1439896444,
  "nonce": "0x7c1a24e8c4906c37",
  "difficulty": 4457732981316,
  "gasLimit": {
    "_hex": "0x2fefd8"
  },
  "gasUsed": {
    "_hex": "0xf618"
  },
  "miner": "0xE706a05a40761915bC70310f7a94e6B2B596dbf8",
  "extraData": "0x476574682f76312e302e312d38326566323666362f6c696e75782f676f312e34",
  "transactions": [
    {
      "hash": "0x1acbb28c02d616299689dd3d30e110f1361b7707ba4c134628f600da64d5f8ea",
      "blockHash": "0xf73dba9e700cf5b7fcd38a1908f257b2fcd7e7fc40cf33044b326b5b69641aa7",
      "blockNumber": 105966,
      "transactionIndex": 0,
      "confirmations": null,
      "from": "0xa77a51B44bF377Ed46BFEbc626309C2B934cf58B",
      "gasPrice": {
        "_hex": "0xde78a040a"
      },
      "gasLimit": {
        "_hex": "0x5208"
      },
      "to": "0xFBb1b73C4f0BDa4f67dcA266ce6Ef42f520fBB98",
      "value": {
        "_hex": "0x13bce60040fa57bb0"
      },
      "nonce": 0,
      "data": "0x",
      "r": "0x1e19964b122c036c549d085c691da40e29751930f894daebc129a3f0ed51b14f",
      "s": "0x79f6c7bab02c7ed375f81e21272ace14b2833b7be746f36461bfb4d09d3eea6f",
      "v": 27,
      "creates": null,
      "raw": "0xf86d80850de78a040a82520894fbb1b73c4f0bda4f67dca266ce6ef42f520fbb9889013bce60040fa57bb0801ba01e19964b122c036c549d085c691da40e29751930f894daebc129a3f0ed51b14fa079f6c7bab02c7ed375f81e21272ace14b2833b7be746f36461bfb4d09d3eea6f",
      "networkId": 0,
      "chainId": 0
    },
    {
      "hash": "0xd1147b38e58b2e7567655104118e724a06f70fa64b902ec0ce014b2c33433c58",
      "blockHash": "0xf73dba9e700cf5b7fcd38a1908f257b2fcd7e7fc40cf33044b326b5b69641aa7",
      "blockNumber": 105966,
      "transactionIndex": 1,
      "confirmations": null,
      "from": "0x7871C9936A21B89507B5B65C7B13d8216D832D76",
      "gasPrice": {
        "_hex": "0xd569b2739"
      },
      "gasLimit": {
        "_hex": "0x15f90"
      },
      "to": "0x108feDb097c1DCfED441480170144D8e19BB217f",
      "value": {
        "_hex": "0x191efd3eb5435ac0"
      },
      "nonce": 6,
      "data": "0x",
      "r": "0x540c7b692b47398e79bfb462b85af13aadbe6aa1bc0e644e55ad559d8fa63d80",
      "s": "0x5f469423aa59d29463f7bade5413dd66ab3682d6949993d641bda6ace8e6273a",
      "v": 28,
      "creates": null,
      "raw": "0xf86d06850d569b273983015f9094108fedb097c1dcfed441480170144d8e19bb217f88191efd3eb5435ac0801ca0540c7b692b47398e79bfb462b85af13aadbe6aa1bc0e644e55ad559d8fa63d80a05f469423aa59d29463f7bade5413dd66ab3682d6949993d641bda6ace8e6273a",
      "networkId": 0,
      "chainId": 0
    },
    {
      "hash": "0x4432e9fac73ca10d161c4f180d1c3036db2d2a6938babfc3ef62e4fde7ecf37d",
      "blockHash": "0xf73dba9e700cf5b7fcd38a1908f257b2fcd7e7fc40cf33044b326b5b69641aa7",
      "blockNumber": 105966,
      "transactionIndex": 2,
      "confirmations": null,
      "from": "0x63738Ec4C9adec404749B5747F3bbE2147de632F",
      "gasPrice": {
        "_hex": "0xcf582ea59"
      },
      "gasLimit": {
        "_hex": "0x15f90"
      },
      "to": "0x557C2806B6ceA65a66F415bb2Ed1ce897B340745",
      "value": {
        "_hex": "0x8ac7230489e80000"
      },
      "nonce": 44,
      "data": "0x",
      "r": "0xd9a5d391eaec90124f51ede718624c80c6f719b7b2035f9cf56e4426ecc459f5",
      "s": "0x7e09542b588af0d0d4872a08da335110eca7aa3487701f0f8ddb467d35d5acd4",
      "v": 27,
      "creates": null,
      "raw": "0xf86d2c850cf582ea5983015f9094557c2806b6cea65a66f415bb2ed1ce897b340745888ac7230489e80000801ba0d9a5d391eaec90124f51ede718624c80c6f719b7b2035f9cf56e4426ecc459f5a07e09542b588af0d0d4872a08da335110eca7aa3487701f0f8ddb467d35d5acd4",
      "networkId": 0,
      "chainId": 0
    }
  ]
}