{
  "hash": "0x4f4203d84fbeb471894361c1a221b841f7541e50227f5d2dd25a7fd9321c7820",
  "parentHash": "0x8fd05ba22bc231986e33fb2e6c0e74a837591b4025fc4cf455dd02606e1e5883",
  "number": 100997,
  "timestamp": 1439815810,
  "nonce": "0x4c3fe8850ae7ac8a",
  "difficulty": 3865790813728,
  "gasLimit": {
    "_hex": "0x2fefd8"
  },
  "gasUsed": {
    "_hex": "0x546c"
  },
  "miner": "0x2660299c07076aEB9cEF872a41EAF75E4C16020D",
  "extraData": "0x476574682f76312e302e312f77696e646f77732f676f312e342e32",
  "transactions": [
    {
      "hash": "0x527f8f1a8f615c91faf2220921be269b981cb8444de40ed40235d8c27eeaee13",
      "blockHash": "0x4f4203d84fbeb471894361c1a221b841f7541e50227f5d2dd25a7fd9321c7820",
      "blockNumber": 100997,
      "transactionIndex": 0,
      "confirmations": null,
      "from": "0x555dF19390c16d01298772BaE8BC3a1152199cBD",
      "gasPrice": {
        "_hex": "0x110c8f7d8de"
      },
      "gasLimit": {
        "_hex": "0xc350"
      },
      "to": "0x2910543Af39abA0Cd09dBb2D50200b3E800A63D2",
      "value": {
        "_hex": "0x4563918244f40000"
      },
      "nonce": 0,
      "data": "0x454e44375541393938",
      "r": "0x44f8ff53a79fc389abacdd9beae7fc208b5969e3edbbc3d2c53f7076d1cc75be",
      "s": "0x8d562d95174e0a23d73d50d453fe0eab9a35b65b95c8ca0098b8730949bd8d20",
      "v": 28,
      "creates": null,
      "raw": "0xf87680860110c8f7d8de82c350942910543af39aba0cd09dbb2d50200b3e800a63d2884563918244f4000089454e443755413939381ca044f8ff53a79fc389abacdd9beae7fc208b5969e3edbbc3d2c53f7076d1cc75bea08d562d95174e0a23d73d50d453fe0eab9a35b65b95c8ca0098b8730949bd8d20",
      "networkId": 0,
      "chainId": 0
    }
  ]
}