{
  "hash": "0xdd9ed867f38380f558e3f91d077e30d412c4de878fcf4e2d28be9922b5352e91",
  "parentHash": "0x6d3d827641e3ab61505cf21d2e64c9ac0ded9c008382f9aa63b7132ca1e67d35",
  "number": 75373,
  "timestamp": 1439402230,
  "nonce": "0xc9adae4d3aa2f2e2",
  "difficulty": 2196491839832,
  "gasLimit": {
    "_hex": "0x2fefd8"
  },
  "gasUsed": {
    "_hex": "0x5208"
  },
  "miner": "0xe6A7a1d47ff21B6321162AEA7C6CB457D5476Bca",
  "extraData": "0x476574682f76312e302e312d38326566323666362f6c696e75782f676f312e34",
  "transactions": [
    {
      "hash": "0x38cdcc2d51434d2e01fbd3db695300c3cbb3682a745e5829ecd4de05b064da9d",
      "blockHash": "0xdd9ed867f38380f558e3f91d077e30d412c4de878fcf4e2d28be9922b5352e91",
      "blockNumber": 75373,
      "transactionIndex": 0,
      "confirmations": null,
      "from": "0x120A270bbC009644e35F0bB6ab13f95b8199c4ad",
      "gasPrice": {
        "_hex": "0xd89db444b"
      },
      "gasLimit": {
        "_hex": "0x3d090"
      },
      "to": "0x5566eb5B784F16fBCc9ebA39976aD391aF11916E",
      "value": {
        "_hex": "0x1276e712b6fcab000"
      },
      "nonce": 294,
      "data": "0x",
      "r": "0x1dbfc8040def3b7aac2b2db60ca9ec5b52224f60161601565ed9ae6cca431432",
      "s": "0x2fab840280381fc5552258f47449c062dd7b498579c9c8a6aa86b0a408e9e401",
      "v": 28,
      "creates": null,
      "raw": "0xf870820126850d89db444b8303d090945566eb5b784f16fbcc9eba39976ad391af11916e8901276e712b6fcab000801ca01dbfc8040def3b7aac2b2db60ca9ec5b52224f60161601565ed9ae6cca431432a02fab840280381fc5552258f47449c062dd7b498579c9c8a6aa86b0a408e9e401",
      "networkId": 0,
      "chainId": 0
    }
  ]
}