{
  "hash": "0x36ee3a02303b9d066b34be632101015698a18da8a0f15a0c887af74309937203",
  "parentHash": "0x4307602ce0287dc36093a506f85964a05e5f7818de27773fbf4f6b8d1c6e63e8",
  "number": 53018,
  "timestamp": 1439031099,
  "nonce": "0xfcfdf469afbb1b21",
  "difficulty": 1573182417904,
  "gasLimit": {
    "_hex": "0x1ddc2d"
  },
  "gasUsed": {
    "_hex": "0x5208"
  },
  "miner": "0x0A63E1A8C33e351679e3581AC84ce341C32f813a",
  "extraData": "0x476574682f76312e302e312d38326566323666362f6c696e75782f676f312e34",
  "transactions": [
    {
      "hash": "0x9d0c00dd94cfceacee228e4b22687b3f90126bfb8a4b42e364e930eac983a99b",
      "blockHash": "0x36ee3a02303b9d066b34be632101015698a18da8a0f15a0c887af74309937203",
      "blockNumber": 53018,
      "transactionIndex": 0,
      "confirmations": null,
      "from": "0x47ff6576639c2e94762eA5443978D7681C0E78DC",
      "gasPrice": {
        "_hex": "0xd42a82b11"
      },
      "gasLimit": {
        "_hex": "0x5208"
      },
      "to": "0xeD17Ea8E9fd42159037deE95ea173a56c54f55ce",
      "value": {
        "_hex": "0x56d2aa3a5c09a0000"
      },
      "nonce": 6,
      "data": "0x",
      "r": "0x7b3221a4b9d2b4ab17e841f02e3fb5a4775418150be0f9a4354c9319d8c4111c",
      "s": "0x5ed4d83f22ef1050798c053645d708b5d5645fc752e3a46dec448deafcece61a",
      "v": 28,
      "creates": null,
      "raw": "0xf86d06850d42a82b1182520894ed17ea8e9fd42159037dee95ea173a56c54f55ce89056d2aa3a5c09a0000801ca07b3221a4b9d2b4ab17e841f02e3fb5a4775418150be0f9a4354c9319d8c4111ca05ed4d83f22ef1050798c053645d708b5d5645fc752e3a46dec448deafcece61a",
      "networkId": 0,
      "chainId": 0
    }
  ]
}