{
  "hash": "0xa71ed358ad7ba0dce6a7c71eacd22a8bb73e8712798bf3b024d1d579175d8509",
  "parentHash": "0x74c3f07df1731232ae19b2af3b556c432c26d72e13fbf671fc5625a717c665c5",
  "number": 118269,
  "timestamp": 1440123228,
  "nonce": "0x92e57d9282f1e47e",
  "difficulty": 4307935806764,
  "gasLimit": {
    "_hex": "0x2fefd8"
  },
  "gasUsed": {
    "_hex": "0x5208"
  },
  "miner": "0xe6A7a1d47ff21B6321162AEA7C6CB457D5476Bca",
  "extraData": "0xd783010002844765746887676f312e342e32856c696e7578",
  "transactions": [
    {
      "hash": "0xd869ca02e6d6c5e69c7ffb8ff655aa618afceac4740028c74eac9fe9a92366a5",
      "blockHash": "0xa71ed358ad7ba0dce6a7c71eacd22a8bb73e8712798bf3b024d1d579175d8509",
      "blockNumber": 118269,
      "transactionIndex": 0,
      "confirmations": null,
      "from": "0x007f7f58D3eb5b7510A301eCC749FC1fCDDBE14D",
      "gasPrice": {
        "_hex": "0xba43b7400"
      },
      "gasLimit": {
        "_hex": "0x15f90"
      },
      "to": "0xb1abce2918E21ddb93AA452731a12672A3d9F75a",
      "value": {
        "_hex": "0x4563918244f40000"
      },
      "nonce": 337,
      "data": "0x",
      "r": "0xaca1b4ae15c7da9aaa32253120d2ac8bc19ef5fe79c726a76f28887d44f2c72a",
      "s": "0x441bbdc010975ada3d60a207c988b289a09eba0dd0a9d9ad79c9ffc47ff2ff9f",
      "v": 28,
      "creates": null,
      "raw": "0xf86f820151850ba43b740083015f9094b1abce2918e21ddb93aa452731a12672a3d9f75a884563918244f40000801ca0aca1b4ae15c7da9aaa32253120d2ac8bc19ef5fe79c726a76f28887d44f2c72aa0441bbdc010975ada3d60a207c988b289a09eba0dd0a9d9ad79c9ffc47ff2ff9f",
      "networkId": 0,
      "chainId": 0
    }
  ]
}