{
  "hash": "0xa7ba88a4b3359f1b588fdedcf23eb86d6f243e4e7542392b3d57bd0608298459",
  "parentHash": "0x12c4e67fff85d77513815afb21b0ee24550632987b2de26a7d90642542787906",
  "number": 50943,
  "timestamp": 1438996959,
  "nonce": "0x14e9b3c8fd04d615",
  "difficulty": 1549932257080,
  "gasLimit": {
    "_hex": "0x84c5d"
  },
  "gasUsed": {
    "_hex": "0x5208"
  },
  "miner": "0xF2d2AfF1320476cb8C6b607199D23175cc595693",
  "extraData": "0x476574682f76312e302e312f77696e646f77732f676f312e342e32",
  "transactions": [
    {
      "hash": "0xb62f7a57b2339bf2299748485aff42e8d97cd771dca8eefd8e43e781f5d2e85e",
      "blockHash": "0xa7ba88a4b3359f1b588fdedcf23eb86d6f243e4e7542392b3d57bd0608298459",
      "blockNumber": 50943,
      "transactionIndex": 0,
      "confirmations": null,
      "from": "0xc8ebccC5F5689Fa8659d83713341e5aD19349448",
      "gasPrice": {
        "_hex": "0xd8806ad2a"
      },
      "gasLimit": {
        "_hex": "0x15f90"
      },
      "to": "0x4EFE40091aFf32daBE4E1097DBAA9c69CB6463dB",
      "value": {
        "_hex": "0x3635c9adc5dea00000"
      },
      "nonce": 8,
      "data": "0x",
      "r": "0xceac34033602c4a886b991fa49a8401986a800366d78bb44e049ebc8b4af8a2a",
      "s": "0x23803feefa5c4cef83ed100f86809af8b04bfc2747a8796329befee4e0ae2027",
      "v": 27,
      "creates": null,
      "raw": "0xf86e08850d8806ad2a83015f90944efe40091aff32dabe4e1097dbaa9c69cb6463db893635c9adc5dea00000801ba0ceac34033602c4a886b991fa49a8401986a800366d78bb44e049ebc8b4af8a2aa023803feefa5c4cef83ed100f86809af8b04bfc2747a8796329befee4e0ae2027",
      "networkId": 0,
      "chainId": 0
    }
  ]
}