{
  "hash": "0xc72cb17cfa876db6ca1d2ff48f3b8a90260e8c6b92b00b9fa677b0d3c4d1e9a0",
  "parentHash": "0xea058f6a7f5c5cd3fbfc766adf75c952e4414ae5931decbf2baa9a0caa191df9",
  "number": 58460,
  "timestamp": 1439121002,
  "nonce": "0x1d6a9916d0bd33c0",
  "difficulty": 1716594661596,
  "gasLimit": {
    "_hex": "0x2fefd8"
  },
  "gasUsed": {
    "_hex": "0x5208"
  },
  "miner": "0x5214803C763281b785cDC039b80605fd088D42Ca",
  "extraData": "0x476574682f76312e302e312f6c696e75782f676f312e342e32",
  "transactions": [
    {
      "hash": "0x4c9c537ab288c1e2a4a47981b955c3f205177770008de050481540495baab484",
      "blockHash": "0xc72cb17cfa876db6ca1d2ff48f3b8a90260e8c6b92b00b9fa677b0d3c4d1e9a0",
      "blockNumber": 58460,
      "transactionIndex": 0,
      "confirmations": null,
      "from": "0x17DEb0f18eaf9aca4e5Fb4a80bc1d694B853b2a2",
      "gasPrice": {
        "_hex": "0xdf05254b4"
      },
      "gasLimit": {
        "_hex": "0x5208"
      },
      "to": "0x32Be343B94f860124dC4fEe278FDCBD38C102D88",
      "value": {
        "_hex": "0x4e0fbc3be29be8000"
      },
      "nonce": 1,
      "data": "0x",
      "r": "0xaf61c22cb4485bd1859de2722c52c056e30dc37e66f3c4de61cfa7d072dd1f58",
      "s": "0x2a797a518f46f4710d39906a8c8911a5779fd1137e51365cc34460090b5a73db",
      "v": 28,
      "creates": null,
      "raw": "0xf86d01850df05254b48252089432be343b94f860124dc4fee278fdcbd38c102d888904e0fbc3be29be8000801ca0af61c22cb4485bd1859de2722c52c056e30dc37e66f3c4de61cfa7d072dd1f58a02a797a518f46f4710d39906a8c8911a5779fd1137e51365cc34460090b5a73db",
      "networkId": 0,
      "chainId": 0
    }
  ]
}