{
  "hash": "0x66420f020b2be9655a4e359e82f6146c03296d9cc45bf8db1ea5b8d0777f0003",
  "parentHash": "0x370facad941bc598a637fddd26aa79e0b8e4358903a2b383c3a86669a434660e",
  "number": 61757,
  "timestamp": 1439177669,
  "nonce": "0x74eaebd090765e69",
  "difficulty": 1731913370447,
  "gasLimit": {
    "_hex": "0x2fefd8"
  },
  "gasUsed": {
    "_hex": "0xf930"
  },
  "miner": "0x9746c7e1ef2bd21FF3997fa467593a89cb852BD0",
  "extraData": "0x476574682f76312e302e312f77696e646f77732f676f312e342e32",
  "transactions": [
    {
      "hash": "0x8c0e75eb2b16dee2fed29694bddd6c38de7060dd483e03e3a69be16e226507ad",
      "blockHash": "0x66420f020b2be9655a4e359e82f6146c03296d9cc45bf8db1ea5b8d0777f0003",
      "blockNumber": 61757,
      "transactionIndex": 0,
      "confirmations": null,
      "from": "0x1308A2e95c0160B90803ddCA9B9a5bb55E416d79",
      "gasPrice": {
        "_hex": "0xe8d4a51000"
      },
      "gasLimit": {
        "_hex": "0x15f90"
      },
      "to": "0xbC3C68fd00888CFD2178537ab2435837Fa9A3cD2",
      "value": {
        "_hex": "0xcc93fbc799227000"
      },
      "nonce": 102,
      "data": "0x",
      "r": "0x3d0cca5fe5a246e9b3eb27d7d55bce0107273469265cb23225fb015101c19c1c",
      "s": "0x3ae5f6fa4afcb1b32f2b164bc8b54b32d5de7954eee15cc7ad230caccacd5487",
      "v": 27,
      "creates": null,
      "raw": "0xf86d6685e8d4a5100083015f9094bc3c68fd00888cfd2178537ab2435837fa9a3cd288cc93fbc799227000801ba03d0cca5fe5a246e9b3eb27d7d55bce0107273469265cb23225fb015101c19c1ca03ae5f6fa4afcb1b32f2b164bc8b54b32d5de7954eee15cc7ad230caccacd5487",
      "networkId": 0,
      "chainId": 0
    },
    {
      "hash": "0x8be6b14932888694cc5218dc4cc40eab06a48dcafc1c8629cc92d1f13e2b5eb1",
      "blockHash": "0x66420f020b2be9655a4e359e82f6146c03296d9cc45bf8db1ea5b8d0777f0003",
      "blockNumber": 61757,
      "transactionIndex": 1,
      "confirmations": null,
      "from": "0xc3631c7698b6C5111989BF452727B3f9395a6deA",
      "gasPrice": {
        "_hex": "0x45d964b800"
      },
      "gasLimit": {
        "_hex": "0x5208"
      },
      "to": "0x431FDD9f2Fdc4A532867E0e0a85463436807d17C",
      "value": {
        "_hex": "0x4563918244f40000"
      },
      "nonce": 1,
      "data": "0x",
      "r": "0xa842aa77412fdfae76bc1b3ac556e1dc57d74fbba88f2dcc9fe96073a851d959",
      "s": "0x3d078b318d9dfb6e2f3cfce7e9bdb34ac19bd90fd4bfececcb04b045883cdff7",
      "v": 27,
      "creates": null,
      "raw": "0xf86c018545d964b80082520894431fdd9f2fdc4a532867e0e0a85463436807d17c884563918244f40000801ba0a842aa77412fdfae76bc1b3ac556e1dc57d74fbba88f2dcc9fe96073a851d959a03d078b318d9dfb6e2f3cfce7e9bdb34ac19bd90fd4bfececcb04b045883cdff7",
      "networkId": 0,
      "chainId": 0
    },
    {
      "hash": "0xa06e2987ee09b4064d67cdf777ce68d42fb033b1de1fbe41f6faae0763dd1c60",
      "blockHash": "0x66420f020b2be9655a4e359e82f6146c03296d9cc45bf8db1ea5b8d0777f0003",
      "blockNumber": 61757,
      "transactionIndex": 2,
      "confirmations": null,
      "from": "0x2B15C5211bdA6A867c582080536f6c61766aA5Af",
      "gasPrice": {
        "_hex": "0xd40038e1e"
      },
      "gasLimit": {
        "_hex": "0x15f90"
      },
      "to": "0xC7d3E431Be6222543364408a94C12C0D089Be305",
      "value": {
        "_hex": "0x0"
      },
      "nonce": 1,
      "data": "0x3ba15036",
      "r": "0x5cab17b7d5d4a617307335b968bb513d209c85fed7a9d0e1a130a36563748603",
      "s": "0x009a55d00f49db43c764811168398be4072894e9f78f10171654aae1f2f30ced",
      "v": 27,
      "creates": null,
      "raw": "0xf86801850d40038e1e83015f9094c7d3e431be6222543364408a94c12c0d089be30580843ba150361ba05cab17b7d5d4a617307335b968bb513d209c85fed7a9d0e1a130a365637486039f9a55d00f49db43c764811168398be4072894e9f78f10171654aae1f2f30ced",
      "networkId": 0,
      "chainId": 0
    }
  ]
}