{
  "hash": "0xd1448ac32998f491f93a948979904b0673c526d086c3f2642d64903138a3fe3c",
  "parentHash": "0x673c5ffe4f82b26fac39d319073a55e48ebd696224102e6251c59bc2b0487f67",
  "number": 68615,
  "timestamp": 1439290782,
  "nonce": "0x1ffa7ccb9e43995c",
  "difficulty": 2023157210562,
  "gasLimit": {
    "_hex": "0x2fefd8"
  },
  "gasUsed": {
    "_hex": "0xce73b"
  },
  "miner": "0xa50ec0D39fa913E62f1Bae7074E6F36caA71855b",
  "extraData": "0x",
  "transactions": [
    {
      "hash": "0x4c9abbc7041f8c063e91f6c7b8c0d090ccbe69863cbf7329793fcb63d774e0b1",
      "blockHash": "0xd1448ac32998f491f93a948979904b0673c526d086c3f2642d64903138a3fe3c",
      "blockNumber": 68615,
      "transactionIndex": 0,
      "confirmations": null,
      "from": "0x17580B766f7453525ca4C6A88b01b50570EA088C",
      "gasPrice": {
        "_hex": "0xe0859ac69"
      },
      "gasLimit": {
        "_hex": "0x61a80"
      },
      "to": "0x5Fe5B7546D1628f7348B023A0393de1FC825A4fD",
      "value": {
        "_hex": "0x4563918244f40000"
      },
      "nonce": 48,
      "data": "0xb595b8b50000000000000000000000000000000000000000000000000000000000000000",
      "r": "0xb9a7ec8609fce9b6bbc8ea745a627410056aabeab1c87d9432e2ef39e8486ac6",
      "s": "0x653a972a8bb3606397d586c8463cc8f41e105d80de9dcb3957c6ef78d67d5109",
      "v": 27,
      "creates": null,
      "raw": "0xf89130850e0859ac6983061a80945fe5b7546d1628f7348b023a0393de1fc825a4fd884563918244f40000a4b595b8b500000000000000000000000000000000000000000000000000000000000000001ba0b9a7ec8609fce9b6bbc8ea745a627410056aabeab1c87d9432e2ef39e8486ac6a0653a972a8bb3606397d586c8463cc8f41e105d80de9dcb3957c6ef78d67d5109",
      "networkId": 0,
      "chainId": 0
    },
    {
      "hash": "0x727dd1ddc1478d358abcc6b86f7c69b367933c3854c045128a2db2732b27af3b",
      "blockHash": "0xd1448ac32998f491f93a948979904b0673c526d086c3f2642d64903138a3fe3c",
      "blockNumber": 68615,
      "transactionIndex": 1,
      "confirmations": null,
      "from": "0xB7268c7705A1866b2A78e882fdfDc8E2a4e1428E",
      "gasPrice": {
        "_hex": "0xd69b48315"
      },
      "gasLimit": {
        "_hex": "0x15f90"
      },
      "to": "0x96811Ad897894eC178872117C8BF2f03971A393B",
      "value": {
        "_hex": "0x10383beec53ce0000"
      },
      "nonce": 11,
      "data": "0x",
      "r": "0x367bceb3c0495606ee3129aa12f170ae788ebb30b2a981bb70cd46700c5ea1d3",
      "s": "0x016723ba2210c2abbb2399dac9569c3361cecf74761097a734b44c507b95656e",
      "v": 28,
      "creates": null,
      "raw": "0xf86e0b850d69b4831583015f909496811ad897894ec178872117c8bf2f03971a393b89010383beec53ce0000801ca0367bceb3c0495606ee3129aa12f170ae788ebb30b2a981bb70cd46700c5ea1d3a0016723ba2210c2abbb2399dac9569c3361cecf74761097a734b44c507b95656e",
      "networkId": 0,
      "chainId": 0
    },
    {
      "hash": "0x6a2e429667b64f95e4ea4c10ca48e6104ea70cc75d43834bfb5ebff1c54f3e78",
      "blockHash": "0xd1448ac32998f491f93a948979904b0673c526d086c3f2642d64903138a3fe3c",
      "blockNumber": 68615,
      "transactionIndex": 2,
      "confirmations": null,
      "from": "0x5ccA9fD3Ade1BDacC509EF84D39e8353f78271E4",
      "gasPrice": {
        "_hex": "0xba43b7400"
      },
      "gasLimit": {
        "_hex": "0x15f90"
      },
      "to": "0x793AE8C1b1a160BFc07BFB0d04F85eab1A71F4f2",
      "value": {
        "_hex": "0x0"
      },
      "nonce": 0,
      "data": "0x3ba15036",
      "r": "0xa96e45564c9f9bd1bcc88a2c8d82e7205acbb14daf119a9dcaf460982544ba2e",
      "s": "0x1b8fb3070f22b7c3549529b1ecb6ba637ca3ab9dc3d4d9c1ff6f1fa01a0e2193",
      "v": 27,
      "creates": null,
      "raw": "0xf86980850ba43b740083015f9094793ae8c1b1a160bfc07bfb0d04f85eab1a71f4f280843ba150361ba0a96e45564c9f9bd1bcc88a2c8d82e7205acbb14daf119a9dcaf460982544ba2ea01b8fb3070f22b7c3549529b1ecb6ba637ca3ab9dc3d4d9c1ff6f1fa01a0e2193",
      "networkId": 0,
      "chainId": 0
    },
    {
      "hash": "0x8bd3d515e8a9fcc3fe2117ba8203ce6660cca4ee0aac3445a549847014085bf8",
      "blockHash": "0xd1448ac32998f491f93a948979904b0673c526d086c3f2642d64903138a3fe3c",
      "blockNumber": 68615,
      "transactionIndex": 3,
      "confirmations": null,
      "from": "0x54101fDF0f9876eb25118661500494F1f86D9F9A",
      "gasPrice": {
        "_hex": "0xba43b7400"
      },
      "gasLimit": {
        "_hex": "0x15f90"
      },
      "to": "0x793AE8C1b1a160BFc07BFB0d04F85eab1A71F4f2",
      "value": {
        "_hex": "0x0"
      },
      "nonce": 0,
      "data": "0x3ba15036",
      "r": "0x0ae8dad87130a44c33c954e443f11b8605d61db5cbcf78ee2e56636191066141",
      "s": "0x3de8300dd1650d72487ab40e73a48f42704e7eecbbe8c02d03839344863c3c07",
      "v": 27,
      "creates": null,
      "raw": "0xf86980850ba43b740083015f9094793ae8c1b1a160bfc07bfb0d04f85eab1a71f4f280843ba150361ba00ae8dad87130a44c33c954e443f11b8605d61db5cbcf78ee2e56636191066141a03de8300dd1650d72487ab40e73a48f42704e7eecbbe8c02d03839344863c3c07",
      "networkId": 0,
      "chainId": 0
    },
    {
      "hash": "0x95c2e649b085f54197ae31c73ecf9cf97cdbb2e45d81e57699f457c7edee7bb2",
      "blockHash": "0xd1448ac32998f491f93a948979904b0673c526d086c3f2642d64903138a3fe3c",
      "blockNumber": 68615,
      "transactionIndex": 4,
      "confirmations": null,
      "from": "0x1c667080Cd2Bc722d7e8Ff9A972B396F1C8A8e38",
      "gasPrice": {
        "_hex": "0xba43b7400"
      },
      "gasLimit": {
        "_hex": "0x15f90"
      },
      "to": "0x793AE8C1b1a160BFc07BFB0d04F85eab1A71F4f2",
      "value": {
        "_hex": "0x0"
      },
      "nonce": 0,
      "data": "0x3ba15036",
      "r": "0x79bc725135cf18680c67d62f92f622ef3263cfef2d78685dd67a15593d9b0fc8",
      "s": "0x6e2b525bd57cdc9459bc55307e4d191284159a2222518b9061c454cb0606e191",
      "v": 27,
      "creates": null,
      "raw": "0xf86980850ba43b740083015f9094793ae8c1b1a160bfc07bfb0d04f85eab1a71f4f280843ba150361ba079bc725135cf18680c67d62f92f622ef3263cfef2d78685dd67a15593d9b0fc8a06e2b525bd57cdc9459bc55307e4d191284159a2222518b9061c454cb0606e191",
      "networkId": 0,
      "chainId": 0
    },
    {
      "hash": "0x8bd0823cc242a1565f636d37488f7ee392eb088dc7d2604e2486bdcf20026ef1",
      "blockHash": "0xd1448ac32998f491f93a948979904b0673c526d086c3f2642d64903138a3fe3c",
      "blockNumber": 68615,
      "transactionIndex": 5,
      "confirmations": null,
      "from": "0xcf2FC960Da75c0bA178AE7a7B38E4245c788BD2c",
      "gasPrice": {
        "_hex": "0xba43b7400"
      },
      "gasLimit": {
        "_hex": "0x15f90"
      },
      "to": "0x793AE8C1b1a160BFc07BFB0d04F85eab1A71F4f2",
      "value": {
        "_hex": "0x0"
      },
      "nonce": 0,
      "data": "0x3ba15036",
      "r": "0x39a7029762509f4ae7b3f9a38eb38777ab4a5b5c8cd03bca00724c4a25a15848",
      "s": "0x3a270d35c5d3dc8315f8942aa7399186bed7c65c6dc48766f48de10d5272caa7",
      "v": 28,
      "creates": null,
      "raw": "0xf86980850ba43b740083015f9094793ae8c1b1a160bfc07bfb0d04f85eab1a71f4f280843ba150361ca039a7029762509f4ae7b3f9a38eb38777ab4a5b5c8cd03bca00724c4a25a15848a03a270d35c5d3dc8315f8942aa7399186bed7c65c6dc48766f48de10d5272caa7",
      "networkId": 0,
      "chainId": 0
    },
    {
      "hash": "0xf9fa26612b4bf939ab04607dceb0cc6cf3038f1acad2c2d46b38a55e2d3d5364",
      "blockHash": "0xd1448ac32998f491f93a948979904b0673c526d086c3f2642d64903138a3fe3c",
      "blockNumber": 68615,
      "transactionIndex": 6,
      "confirmations": null,
      "from": "0xEC141ED29e960B93f72CD70721D0d7f64532E94f",
      "gasPrice": {
        "_hex": "0xba43b7400"
      },
      "gasLimit": {
        "_hex": "0x15f90"
      },
      "to": "0x793AE8C1b1a160BFc07BFB0d04F85eab1A71F4f2",
      "value": {
        "_hex": "0x0"
      },
      "nonce": 0,
      "data": "0x3ba15036",
      "r": "0x2bef631b8ca5d2efd36f47d1f22f24af80507bdccc9be96be4e72c5776b95555",
      "s": "0x71c83f4356927e178ddb535a872ce28a5516b4b6ecf0b63ea99a0d3d26c8a92d",
      "v": 28,
      "creates": null,
      "raw": "0xf86980850ba43b740083015f9094793ae8c1b1a160bfc07bfb0d04f85eab1a71f4f280843ba150361ca02bef631b8ca5d2efd36f47d1f22f24af80507bdccc9be96be4e72c5776b95555a071c83f4356927e178ddb535a872ce28a5516b4b6ecf0b63ea99a0d3d26c8a92d",
      "networkId": 0,
      "chainId": 0
    },
    {
      "hash": "0x78ffaa0ba0d7106d193f47362d6cb435030509822f1dfb6b6112d81f5faa5cd8",
      "blockHash": "0xd1448ac32998f491f93a948979904b0673c526d086c3f2642d64903138a3fe3c",
      "blockNumber": 68615,
      "transactionIndex": 7,
      "confirmations": null,
      "from": "0x5B640CAcD1Be583fB4B55667cd423a87DacF0763",
      "gasPrice": {
        "_hex": "0xba43b7400"
      },
      "gasLimit": {
        "_hex": "0x15f90"
      },
      "to": "0x793AE8C1b1a160BFc07BFB0d04F85eab1A71F4f2",
      "value": {
        "_hex": "0x0"
      },
      "nonce": 0,
      "data": "0x3ba15036",
      "r": "0x239c48303565820cc63434171d39a59a00005cb06955fdb44addd2979500d938",
      "s": "0x17e2b6c08e00c4aff69be19036c5c4cad24f69ecfc985f6c08c83683691d1364",
      "v": 27,
      "creates": null,
      "raw": "0xf86980850ba43b740083015f9094793ae8c1b1a160bfc07bfb0d04f85eab1a71f4f280843ba150361ba0239c48303565820cc63434171d39a59a00005cb06955fdb44addd2979500d938a017e2b6c08e00c4aff69be19036c5c4cad24f69ecfc985f6c08c83683691d1364",
      "networkId": 0,
      "chainId": 0
    },
    {
      "hash": "0x4b9f4963613d42f4471a117363bcc0c3bf9c63ac981851c8f8950106004df0b9",
      "blockHash": "0xd1448ac32998f491f93a948979904b0673c526d086c3f2642d64903138a3fe3c",
      "blockNumber": 68615,
      "transactionIndex": 8,
      "confirmations": null,
      "from": "0x998170FeEDa9cBa97cEB95449C5c15d608a8fe30",
      "gasPrice": {
        "_hex": "0xba43b7400"
      },
      "gasLimit": {
        "_hex": "0x15f90"
      },
      "to": "0x793AE8C1b1a160BFc07BFB0d04F85eab1A71F4f2",
      "value": {
        "_hex": "0x0"
      },
      "nonce": 0,
      "data": "0x3ba15036",
      "r": "0xc1fd43192069c8f48e30b00e047340b176339bd38f432e094aa4f86fdd2abd25",
      "s": "0x19b3baa5f8e162766d24077403809f066e0b986fe52f688dde02939f8f858bc2",
      "v": 28,
      "creates": null,
      "raw": "0xf86980850ba43b740083015f9094793ae8c1b1a160bfc07bfb0d04f85eab1a71f4f280843ba150361ca0c1fd43192069c8f48e30b00e047340b176339bd38f432e094aa4f86fdd2abd25a019b3baa5f8e162766d24077403809f066e0b986fe52f688dde02939f8f858bc2",
      "networkId": 0,
      "chainId": 0
    },
    {
      "hash": "0x495094ec6bb744590a748c619071d9bdd7080337105ca57a844ffb52e16a11ba",
      "blockHash": "0xd1448ac32998f491f93a948979904b0673c526d086c3f2642d64903138a3fe3c",
      "blockNumber": 68615,
      "transactionIndex": 9,
      "confirmations": null,
      "from": "0x786cdC23056E72F283998eafEDA248E769Fe10c7",
      "gasPrice": {
        "_hex": "0xba43b7400"
      },
      "gasLimit": {
        "_hex": "0x15f90"
      },
      "to": "0x793AE8C1b1a160BFc07BFB0d04F85eab1A71F4f2",
      "value": {
        "_hex": "0x0"
      },
      "nonce": 0,
      "data": "0x3ba15036",
      "r": "0x5b64747438f17aa2a9aa55456d6c2bdc0ba5e620ac20bcd6c165441539c63992",
      "s": "0x1d7aa86896d1dba781e4788deeca1563631ec864fc4d13e2dde0d70c4b4ac174",
      "v": 28,
      "creates": null,
      "raw": "0xf86980850ba43b740083015f9094793ae8c1b1a160bfc07bfb0d04f85eab1a71f4f280843ba150361ca05b64747438f17aa2a9aa55456d6c2bdc0ba5e620ac20bcd6c165441539c63992a01d7aa86896d1dba781e4788deeca1563631ec864fc4d13e2dde0d70c4b4ac174",
      "networkId": 0,
      "chainId": 0
    },
    {
      "hash": "0xf734949b7b3db3630022272934b92d263d428086b4fa4dae51a453cac5d148de",
      "blockHash": "0xd1448ac32998f491f93a948979904b0673c526d086c3f2642d64903138a3fe3c",
      "blockNumber": 68615,
      "transactionIndex": 10,
      "confirmations": null,
      "from": "0x7CB887d648a40C0E90A2432534D5344E7e8619eA",
      "gasPrice": {
        "_hex": "0xba43b7400"
      },
      "gasLimit": {
        "_hex": "0x15f90"
      },
      "to": "0x793AE8C1b1a160BFc07BFB0d04F85eab1A71F4f2",
      "value": {
        "_hex": "0x0"
      },
      "nonce": 0,
      "data": "0x3ba15036",
      "r": "0x8ab2fbe9c19187ee18ce7c7c92a3f1af7024b5e5462a4086ea97d262c489334d",
      "s": "0x5cb4d72412e7f666316807012927466cb3e639bf8c74299b3755a88841b75277",
      "v": 28,
      "creates": null,
      "raw": "0xf86980850ba43b740083015f9094793ae8c1b1a160bfc07bfb0d04f85eab1a71f4f280843ba150361ca08ab2fbe9c19187ee18ce7c7c92a3f1af7024b5e5462a4086ea97d262c489334da05cb4d72412e7f666316807012927466cb3e639bf8c74299b3755a88841b75277",
      "networkId": 0,
      "chainId": 0
    },
    {
      "hash": "0xcfdc7b02081dc802be4e2236273ff136ba360aab6f88c6fcd0e389201afc1993",
      "blockHash": "0xd1448ac32998f491f93a948979904b0673c526d086c3f2642d64903138a3fe3c",
      "blockNumber": 68615,
      "transactionIndex": 11,
      "confirmations": null,
      "from": "0x26c3470C7c0c88Ad91AEa6d2E901c94adea717F2",
      "gasPrice": {
        "_hex": "0xba43b7400"
      },
      "gasLimit": {
        "_hex": "0x15f90"
      },
      "to": "0x793AE8C1b1a160BFc07BFB0d04F85eab1A71F4f2",
      "value": {
        "_hex": "0x0"
      },
      "nonce": 0,
      "data": "0x3ba15036",
      "r": "0xbf6acd97e0946e7fdd8b0ab4f441c173b81a9807bfc68c499a607e1872eda1f9",
      "s": "0x180eb93c82b76fd04df282def2277967290b2a822e2fd6ab50628b86acd87e54",
      "v": 27,
      "creates": null,
      "raw": "0xf86980850ba43b740083015f9094793ae8c1b1a160bfc07bfb0d04f85eab1a71f4f280843ba150361ba0bf6acd97e0946e7fdd8b0ab4f441c173b81a9807bfc68c499a607e1872eda1f9a0180eb93c82b76fd04df282def2277967290b2a822e2fd6ab50628b86acd87e54",
      "networkId": 0,
      "chainId": 0
    },
    {
      "hash": "0xb8b23930d979742b1c0be811218dc2ad2dd9173c9bf331c6927c67106a2e0b9a",
      "blockHash": "0xd1448ac32998f491f93a948979904b0673c526d086c3f2642d64903138a3fe3c",
      "blockNumber": 68615,
      "transactionIndex": 12,
      "confirmations": null,
      "from": "0x47489ee0b2D039fe7916eeE9bF2c1564dD0f93D2",
      "gasPrice": {
        "_hex": "0xba43b7400"
      },
      "gasLimit": {
        "_hex": "0x15f90"
      },
      "to": "0x793AE8C1b1a160BFc07BFB0d04F85eab1A71F4f2",
      "value": {
        "_hex": "0x0"
      },
      "nonce": 0,
      "data": "0x3ba15036",
      "r": "0x914d2b9ca01abe6d181c204bd00c34ef3958327de66d7ee14e5d1948523df2bf",
      "s": "0x18df5c3d34b97408f753ffa8c5c0a5b6548c461d3b77c53a2d29c8ae9a6112f6",
      "v": 28,
      "creates": null,
      "raw": "0xf86980850ba43b740083015f9094793ae8c1b1a160bfc07bfb0d04f85eab1a71f4f280843ba150361ca0914d2b9ca01abe6d181c204bd00c34ef3958327de66d7ee14e5d1948523df2bfa018df5c3d34b97408f753ffa8c5c0a5b6548c461d3b77c53a2d29c8ae9a6112f6",
      "networkId": 0,
      "chainId": 0
    },
    {
      "hash": "0x1853a0ad0090b0220ec08e4e80a4ca54442891ccee85270a358b2dd96ee27738",
      "blockHash": "0xd1448ac32998f491f93a948979904b0673c526d086c3f2642d64903138a3fe3c",
      "blockNumber": 68615,
      "transactionIndex": 13,
      "confirmations": null,
      "from": "0xED044255144D5CD7b9cADD1E33F2Bf71CaF0Be3B",
      "gasPrice": {
        "_hex": "0xba43b7400"
      },
      "gasLimit": {
        "_hex": "0x15f90"
      },
      "to": "0x793AE8C1b1a160BFc07BFB0d04F85eab1A71F4f2",
      "value": {
        "_hex": "0x0"
      },
      "nonce": 0,
      "data": "0x3ba15036",
      "r": "0xaf713cc9392833a33f8edf43262bba4b24b3d903e6f8ec474527e7243990cf75",
      "s": "0x2c532667ee5df0fc726fb40113d2c3513cfc72176580efa5ec50cc557ae223c7",
      "v": 28,
      "creates": null,
      "raw": "0xf86980850ba43b740083015f9094793ae8c1b1a160bfc07bfb0d04f85eab1a71f4f280843ba150361ca0af713cc9392833a33f8edf43262bba4b24b3d903e6f8ec474527e7243990cf75a02c532667ee5df0fc726fb40113d2c3513cfc72176580efa5ec50cc557ae223c7",
      "networkId": 0,
      "chainId": 0
    },
    {
      "hash": "0x43a4efb41788e9e259d39d21383cd21e56b5f5b0fc65e93c28292ecfc4b137b0",
      "blockHash": "0xd1448ac32998f491f93a948979904b0673c526d086c3f2642d64903138a3fe3c",
      "blockNumber": 68615,
      "transactionIndex": 14,
      "confirmations": null,
      "from": "0x7998Ecb59fC0a080520aC686E222e9b3c9DbB0Bd",
      "gasPrice": {
        "_hex": "0xba43b7400"
      },
      "gasLimit": {
        "_hex": "0x15f90"
      },
      "to": "0x793AE8C1b1a160BFc07BFB0d04F85eab1A71F4f2",
      "value": {
        "_hex": "0x0"
      },
      "nonce": 0,
      "data": "0x3ba15036",
      "r": "0xe79f18cec0dc2d695388a5cfe0cf4e27570330a031880c64866e1faf0247ca43",
      "s": "0x74afb38a035d8bc97d8fefbe26f45959b2168276d4037e10bf16f283db78684a",
      "v": 28,
      "creates": null,
      "raw": "0xf86980850ba43b740083015f9094793ae8c1b1a160bfc07bfb0d04f85eab1a71f4f280843ba150361ca0e79f18cec0dc2d695388a5cfe0cf4e27570330a031880c64866e1faf0247ca43a074afb38a035d8bc97d8fefbe26f45959b2168276d4037e10bf16f283db78684a",
      "networkId": 0,
      "chainId": 0
    },
    {
      "hash": "0x60a434a1410194363997c31d1d7d05dec51119b5f20a77cc519799c5786c4333",
      "blockHash": "0xd1448ac32998f491f93a948979904b0673c526d086c3f2642d64903138a3fe3c",
      "blockNumber": 68615,
      "transactionIndex": 15,
      "confirmations": null,
      "from": "0x3109638D5DD274F79D1D0aAE4efB01b4aC8d98f7",
      "gasPrice": {
        "_hex": "0xba43b7400"
      },
      "gasLimit": {
        "_hex": "0x15f90"
      },
      "to": "0x793AE8C1b1a160BFc07BFB0d04F85eab1A71F4f2",
      "value": {
        "_hex": "0x0"
      },
      "nonce": 0,
      "data": "0x3ba15036",
      "r": "0xb6a36f29c6864a59ed3a6ded4b8bf10a1314586a3dc606ce69cb12494fe6771e",
      "s": "0x26e111fd8be67418c118526910b072dceb01f1702e1f760aec152f2bcfe40b91",
      "v": 27,
      "creates": null,
      "raw": "0xf86980850ba43b740083015f9094793ae8c1b1a160bfc07bfb0d04f85eab1a71f4f280843ba150361ba0b6a36f29c6864a59ed3a6ded4b8bf10a1314586a3dc606ce69cb12494fe6771ea026e111fd8be67418c118526910b072dceb01f1702e1f760aec152f2bcfe40b91",
      "networkId": 0,
      "chainId": 0
    },
    {
      "hash": "0x8c7ee27fd63a76c393c69494f3410598e79b89409377ad503e61ce22b9c8b17e",
      "blockHash": "0xd1448ac32998f491f93a948979904b0673c526d086c3f2642d64903138a3fe3c",
      "blockNumber": 68615,
      "transactionIndex": 16,
      "confirmations": null,
      "from": "0x42373Ca274750c30f5D740DE07396861D5bed501",
      "gasPrice": {
        "_hex": "0xba43b7400"
      },
      "gasLimit": {
        "_hex": "0x15f90"
      },
      "to": "0x793AE8C1b1a160BFc07BFB0d04F85eab1A71F4f2",
      "value": {
        "_hex": "0x0"
      },
      "nonce": 0,
      "data": "0x3ba15036",
      "r": "0x00cb63a660b11d55caf71b5eb7824e543b8e72bab22be0a6cdb7484c1f0aa76f",
      "s": "0x0d928a5086f7955752d909285ac894ee9282c85cc057261cf624da62f5e37163",
      "v": 27,
      "creates": null,
      "raw": "0xf86880850ba43b740083015f9094793ae8c1b1a160bfc07bfb0d04f85eab1a71f4f280843ba150361b9fcb63a660b11d55caf71b5eb7824e543b8e72bab22be0a6cdb7484c1f0aa76fa00d928a5086f7955752d909285ac894ee9282c85cc057261cf624da62f5e37163",
      "networkId": 0,
      "chainId": 0
    },
    {
      "hash": "0x7611e460f6076b77b18acf5ba204ab88465637896cfdbaa69716e3d04b368d42",
      "blockHash": "0xd1448ac32998f491f93a948979904b0673c526d086c3f2642d64903138a3fe3c",
      "blockNumber": 68615,
      "transactionIndex": 17,
      "confirmations": null,
      "from": "0xe8E914c9824e82de31d4d4A1276f4E15995bD2Aa",
      "gasPrice": {
        "_hex": "0xba43b7400"
      },
      "gasLimit": {
        "_hex": "0x15f90"
      },
      "to": "0x793AE8C1b1a160BFc07BFB0d04F85eab1A71F4f2",
      "value": {
        "_hex": "0x0"
      },
      "nonce": 0,
      "data": "0x3ba15036",
      "r": "0x35e538a11edeed6e8e4535ce2e26efd35d5a14e1a1257c2cfc98d421c16bcfb7",
      "s": "0x70b860c7fbed1940798ee145bcd88b2f881a27795c2cecd57a2f672cd2180d35",
      "v": 28,
      "creates": null,
      "raw": "0xf86980850ba43b740083015f9094793ae8c1b1a160bfc07bfb0d04f85eab1a71f4f280843ba150361ca035e538a11edeed6e8e4535ce2e26efd35d5a14e1a1257c2cfc98d421c16bcfb7a070b860c7fbed1940798ee145bcd88b2f881a27795c2cecd57a2f672cd2180d35",
      "networkId": 0,
      "chainId": 0
    }
  ]
}