{
  "hash": "0x370d6cc23466def09bd6e0ef7a91416fa3feb5edea56981473f1cbcc97eb9b8d",
  "parentHash": "0x158a762251634451cee208ecfb763f280f8e912487989d0a42a0c19f04a6f651",
  "number": 121733,
  "timestamp": 1440181667,
  "nonce": "0xd8a719c21b3985c3",
  "difficulty": 4490832551436,
  "gasLimit": {
    "_hex": "0x2fefd8"
  },
  "gasUsed": {
    "_hex": "0x5208"
  },
  "miner": "0x790b8a3cE86E707ED0eD32bF89B3269692a23CC1",
  "extraData": "0xd783010002844765746887676f312e342e32856c696e7578",
  "transactions": [
    {
      "hash": "0xf89a299a6985baa0ac438e9c2a5ca983231cfce7cc5b65097cd3541b0e4647f7",
      "blockHash": "0x370d6cc23466def09bd6e0ef7a91416fa3feb5edea56981473f1cbcc97eb9b8d",
      "blockNumber": 121733,
      "transactionIndex": 0,
      "confirmations": null,
      "from": "0x007f7f58D3eb5b7510A301eCC749FC1fCDDBE14D",
      "gasPrice": {
        "_hex": "0xba43b7400"
      },
      "gasLimit": {
        "_hex": "0x15f90"
      },
      "to": "0xb1abce2918E21ddb93AA452731a12672A3d9F75a",
      "value": {
        "_hex": "0x4563918244f40000"
      },
      "nonce": 380,
      "data": "0x",
      "r": "0xedb2181759d037f98585d291412db350b33a01a78c968a0fb07bb551de011dda",
      "s": "0x5b25c2754b56f6f0f863c5ed9543ee93e7737a1c514260767fbb379644475d40",
      "v": 28,
      "creates": null,
      "raw": "0xf86f82017c850ba43b740083015f9094b1abce2918e21ddb93aa452731a12672a3d9f75a884563918244f40000801ca0edb2181759d037f98585d291412db350b33a01a78c968a0fb07bb551de011ddaa05b25c2754b56f6f0f863c5ed9543ee93e7737a1c514260767fbb379644475d40",
      "networkId": 0,
      "chainId": 0
    }
  ]
}