{
  "hash": "0x50815f2334c38e049d92d1d79bd698df7b91b7c14641ad82b8bcdc8c0e177dd7",
  "parentHash": "0xb12cf6cde33e126c749e271ff098deeca55c1683fe3094281c0c73587d502fab",
  "number": 81955,
  "timestamp": 1439510694,
  "nonce": "0xa878d46b7499cd0b",
  "difficulty": 2412837410373,
  "gasLimit": {
    "_hex": "0x2fefd8"
  },
  "gasUsed": {
    "_hex": "0x5208"
  },
  "miner": "0x123843545FB525C8E134c9A5F15ADA6865cc3848",
  "extraData": "0x476574682f76312e302e312f77696e646f77732f676f312e342e32",
  "transactions": [
    {
      "hash": "0x1d08f72a7de294fb8f75d665527093b5346887bb6b5de76fc5ca2a05b50e9bad",
      "blockHash": "0x50815f2334c38e049d92d1d79bd698df7b91b7c14641ad82b8bcdc8c0e177dd7",
      "blockNumber": 81955,
      "transactionIndex": 0,
      "confirmations": null,
      "from": "0x8B454d830feF179e66206840F8F3D1d83bC32b17",
      "gasPrice": {
        "_hex": "0xde16e6dd4"
      },
      "gasLimit": {
        "_hex": "0x15f90"
      },
      "to": "0xEa63C59e990047BF874D6A47900521D711460B79",
      "value": {
        "_hex": "0x56bc75e2d63100000"
      },
      "nonce": 14,
      "data": "0x",
      "r": "0xfab9fe26131b8efdbd4fd99207381bc7c97361e18d3557ab009d01c49ca6c3f2",
      "s": "0x419ebb865164a928591308563847738a421821c6f13e54ffb1d8374f1defecd1",
      "v": 28,
      "creates": null,
      "raw": "0xf86e0e850de16e6dd483015f9094ea63c59e990047bf874d6a47900521d711460b7989056bc75e2d63100000801ca0fab9fe26131b8efdbd4fd99207381bc7c97361e18d3557ab009d01c49ca6c3f2a0419ebb865164a928591308563847738a421821c6f13e54ffb1d8374f1defecd1",
      "networkId": 0,
      "chainId": 0
    }
  ]
}