{
  "hash": "0x2300a3ff617dc1447be7419912b0e820d7ba9135628c3f684c5369bb67d9456c",
  "parentHash": "0xe8713aa4f54da398d167f9d46a4f2eacc7c7383e6eb4b90b5a8572575353c6b2",
  "number": 72111,
  "timestamp": 1439347502,
  "nonce": "0xe9c2c57b71545054",
  "difficulty": 2167508722785,
  "gasLimit": {
    "_hex": "0x2fefd5"
  },
  "gasUsed": {
    "_hex": "0x5208"
  },
  "miner": "0x107C98584d4B18bC54E1D74F4d7a0bF505Ca466f",
  "extraData": "0x",
  "transactions": [
    {
      "hash": "0x6db2c222f6ffe9ab0aa7e59c63ea4e2e904ddc1e98912431cca821973f20abc7",
      "blockHash": "0x2300a3ff617dc1447be7419912b0e820d7ba9135628c3f684c5369bb67d9456c",
      "blockNumber": 72111,
      "transactionIndex": 0,
      "confirmations": null,
      "from": "0x33fb577a4D214Fe010d32cca7c3eEda63F87cEEF",
      "gasPrice": {
        "_hex": "0xd4a88138e"
      },
      "gasLimit": {
        "_hex": "0x15f90"
      },
      "to": "0xa64015e0870ff579f8827b39b538C1eda5eF25A0",
      "value": {
        "_hex": "0x36342ecebde39406c0"
      },
      "nonce": 3,
      "data": "0x",
      "r": "0x064131f811dd9153786917abd5d63748bc8fd76af3f9c6b9300ea40b842c35db",
      "s": "0x1e2106722ca1bab44da6ce280eea25efc57701d9e7507d097d195fb51df4c46b",
      "v": 28,
      "creates": null,
      "raw": "0xf86e03850d4a88138e83015f9094a64015e0870ff579f8827b39b538c1eda5ef25a08936342ecebde39406c0801ca0064131f811dd9153786917abd5d63748bc8fd76af3f9c6b9300ea40b842c35dba01e2106722ca1bab44da6ce280eea25efc57701d9e7507d097d195fb51df4c46b",
      "networkId": 0,
      "chainId": 0
    }
  ]
}