{
  "hash": "0x5cac1f08b5451aacb69174aaa0e5a53e81d0a4119056166031c925988538312b",
  "parentHash": "0xacde49bbc531a11db6053d226c9eec5c7ab0fc0b3470375f99d979657338997a",
  "number": 51607,
  "timestamp": 1439007851,
  "nonce": "0xa87dd3551db3fb89",
  "difficulty": 1557395512524,
  "gasLimit": {
    "_hex": "0xc40e3"
  },
  "gasUsed": {
    "_hex": "0x7a120"
  },
  "miner": "0xe6A7a1d47ff21B6321162AEA7C6CB457D5476Bca",
  "extraData": "0x657468706f6f6c2e6f7267",
  "transactions": [
    {
      "hash": "0x8fa621a14ba089493d9c6720fa0eeacafe03f0be8f686c239058e26f62855b08",
      "blockHash": "0x5cac1f08b5451aacb69174aaa0e5a53e81d0a4119056166031c925988538312b",
      "blockNumber": 51607,
      "transactionIndex": 0,
      "confirmations": null,
      "from": "0xFCf9f6A78f06227522c6f948ec0119dA31680Ef7",
      "gasPrice": {
        "_hex": "0xdc845cde8"
      },
      "gasLimit": {
        "_hex": "0x7a120"
      },
      "to": "0x109C4f2CCc82C4d77Bde15F306707320294Aea3F",
      "value": {
        "_hex": "0xde0b6b3a7640000"
      },
      "nonce": 19,
      "data": "0x",
      "r": "0x76b1325fd854a0795c355c497a5ac5e7fcc0deade67d353d53ab6cf68fec3831",
      "s": "0x46646f1d881668f461475bdef33d5e85d8eed3062a3200a495b3536addc3077d",
      "v": 27,
      "creates": null,
      "raw": "0xf86d13850dc845cde88307a12094109c4f2ccc82c4d77bde15f306707320294aea3f880de0b6b3a7640000801ba076b1325fd854a0795c355c497a5ac5e7fcc0deade67d353d53ab6cf68fec3831a046646f1d881668f461475bdef33d5e85d8eed3062a3200a495b3536addc3077d",
      "networkId": 0,
      "chainId": 0
    }
  ]
}