{
  "hash": "0x82cb91698924c11ba54c633ad8eca96e67132bdf4e6a937f73aaa36e7ef86a5c",
  "parentHash": "0xf4ae1b9be5f925a05d8655e9fe2ef293bd10b784d5a1f3ae965fc3bb71ee394f",
  "number": 46898,
  "timestamp": 1438931218,
  "nonce": "0x271f17dd16809560",
  "difficulty": 1456017749490,
  "gasLimit": {
    "_hex": "0x835a"
  },
  "gasUsed": {
    "_hex": "0x5208"
  },
  "miner": "0xeB1325C8D9d3ea8D74aC11F4B00F1B2367686319",
  "extraData": "0x476574682f76312e302e312f77696e646f77732f676f312e342e32",
  "transactions": [
    {
      "hash": "0xb319c8faaca6f62bc9e22566b699533b3237da04e460c411ca97329f97913596",
      "blockHash": "0x82cb91698924c11ba54c633ad8eca96e67132bdf4e6a937f73aaa36e7ef86a5c",
      "blockNumber": 46898,
      "transactionIndex": 0,
      "confirmations": null,
      "from": "0xe6A7a1d47ff21B6321162AEA7C6CB457D5476Bca",
      "gasPrice": {
        "_hex": "0xd657381fb"
      },
      "gasLimit": {
        "_hex": "0x5208"
      },
      "to": "0xFA0D8956305eDfBc2E00beE10be65876005267Ac",
      "value": {
        "_hex": "0x1640d7dbf21147c8"
      },
      "nonce": 16,
      "data": "0x",
      "r": "0xc055b87d4373ded7aa61b9597d672e2c5be52c046e41854cbca4815cd6b8ab75",
      "s": "0x30bad96f883bade0dbf64034064e310abe74bea5661c8b64dccb153ac014d786",
      "v": 28,
      "creates": null,
      "raw": "0xf86c10850d657381fb82520894fa0d8956305edfbc2e00bee10be65876005267ac881640d7dbf21147c8801ca0c055b87d4373ded7aa61b9597d672e2c5be52c046e41854cbca4815cd6b8ab75a030bad96f883bade0dbf64034064e310abe74bea5661c8b64dccb153ac014d786",
      "networkId": 0,
      "chainId": 0
    }
  ]
}