{
  "hash": "0x3e1dde2132688ae61cca56d2c1a66af5ed3831242da052ce91ef67a1b2a15066",
  "parentHash": "0x3a16defb2864179906a0f11825b52e320cf50bc22ac2e162095cbd63995d38d8",
  "number": 48215,
  "timestamp": 1438953570,
  "nonce": "0xc3beadfa56adc094",
  "difficulty": 1457923241100,
  "gasLimit": {
    "_hex": "0x13dd8"
  },
  "gasUsed": {
    "_hex": "0x5208"
  },
  "miner": "0x88D74a59454F6cF3B51ef6b9136AFb6b9D405A88",
  "extraData": "0x476574682f76312e302e302d66633739643332642f6c696e75782f676f312e34",
  "transactions": [
    {
      "hash": "0xb8d6cb4af8bad21ca7a97b2ea8984f8f3247a83630b56c1241b9e290267a2d3b",
      "blockHash": "0x3e1dde2132688ae61cca56d2c1a66af5ed3831242da052ce91ef67a1b2a15066",
      "blockNumber": 48215,
      "transactionIndex": 0,
      "confirmations": null,
      "from": "0x07BC2CC8eeDC01970700efC9c4Fb36735e98CD71",
      "gasPrice": {
        "_hex": "0x746a528800"
      },
      "gasLimit": {
        "_hex": "0x5208"
      },
      "to": "0x985D744C50fdcB355d105EE00565A8b32BF0B08f",
      "value": {
        "_hex": "0x174876e800"
      },
      "nonce": 0,
      "data": "0x",
      "r": "0x0db93b925e7e97480f9b40eb797984132deab23beaa02369b046859da86db203",
      "s": "0x05c18df84dce6d7b803a99c8243d44a6f2749fe8cb784be05a4e287a1d8097b8",
      "v": 27,
      "creates": null,
      "raw": "0xf8698085746a52880082520894985d744c50fdcb355d105ee00565a8b32bf0b08f85174876e800801ba00db93b925e7e97480f9b40eb797984132deab23beaa02369b046859da86db203a005c18df84dce6d7b803a99c8243d44a6f2749fe8cb784be05a4e287a1d8097b8",
      "networkId": 0,
      "chainId": 0
    }
  ]
}