{
  "hash": "0xb521da038e9c926915cce9cc0900f66e263de911bf35c2b85f692ddc8d2d6d20",
  "parentHash": "0x2f997f67e4b8025066c4dfa7ec63edb9f1baadcd7925bd6a6089c5eb71076f17",
  "number": 115717,
  "timestamp": 1440062143,
  "nonce": "0x4607eff068b8e9ad",
  "difficulty": 4578218552794,
  "gasLimit": {
    "_hex": "0x2fefd8"
  },
  "gasUsed": {
    "_hex": "0x546c"
  },
  "miner": "0xe6A7a1d47ff21B6321162AEA7C6CB457D5476Bca",
  "extraData": "0x476574682f76312e302e312d38326566323666362f6c696e75782f676f312e34",
  "transactions": [
    {
      "hash": "0x58f77e982d559d8e3863244998a62b63ad6604cc09ff349dfb7d01fb639172e1",
      "blockHash": "0xb521da038e9c926915cce9cc0900f66e263de911bf35c2b85f692ddc8d2d6d20",
      "blockNumber": 115717,
      "transactionIndex": 0,
      "confirmations": null,
      "from": "0x5F1c8A04c90d735B8A152909AeAe636FB0cE1665",
      "gasPrice": {
        "_hex": "0x110c8f7d8de"
      },
      "gasLimit": {
        "_hex": "0xc350"
      },
      "to": "0x2910543Af39abA0Cd09dBb2D50200b3E800A63D2",
      "value": {
        "_hex": "0x3635c9adc5dea00000"
      },
      "nonce": 3,
      "data": "0x454e4e5a3137384b38",
      "r": "0x605087fc0c146b5713797f44c5cf0d04453d12d4eef15b880b5e8d1da061b05e",
      "s": "0x07fde6db654883ebc70615173c0eb19a8fc1333fa2db9edf8d7b973e35aef59f",
      "v": 27,
      "creates": null,
      "raw": "0xf87703860110c8f7d8de82c350942910543af39aba0cd09dbb2d50200b3e800a63d2893635c9adc5dea0000089454e4e5a3137384b381ba0605087fc0c146b5713797f44c5cf0d04453d12d4eef15b880b5e8d1da061b05ea007fde6db654883ebc70615173c0eb19a8fc1333fa2db9edf8d7b973e35aef59f",
      "networkId": 0,
      "chainId": 0
    }
  ]
}