{
  "hash": "0xd2d45865f8ae2132533c9ef09f2c04cb3b72448304f01282e978a89f0a716945",
  "parentHash": "0x2a6c42c78ac688c0b2df40bae5f4d6e9aba524cba60b748a267406110f8fc2cf",
  "number": 94985,
  "timestamp": 1439717182,
  "nonce": "0xc8cdde78a0acee46",
  "difficulty": 3518927960067,
  "gasLimit": {
    "_hex": "0x2fefd8"
  },
  "gasUsed": {
    "_hex": "0x19a28"
  },
  "miner": "0x710c5fEBe84c40b3C12BE2cB2378B863f67235df",
  "extraData": "0x476574682f76312e302e312f6c696e75782f676f312e342e32",
  "transactions": [
    {
      "hash": "0x0d72fd03ab87a6ca063369ac15c1097aca1aef303564b50c5dec65eb9ab95838",
      "blockHash": "0xd2d45865f8ae2132533c9ef09f2c04cb3b72448304f01282e978a89f0a716945",
      "blockNumber": 94985,
      "transactionIndex": 0,
      "confirmations": null,
      "from": "0xb1abce2918E21ddb93AA452731a12672A3d9F75a",
      "gasPrice": {
        "_hex": "0xddc1876cd"
      },
      "gasLimit": {
        "_hex": "0x5208"
      },
      "to": "0x32Be343B94f860124dC4fEe278FDCBD38C102D88",
      "value": {
        "_hex": "0x455f2093aaa8a400"
      },
      "nonce": 30,
      "data": "0x",
      "r": "0x6cbe14e1204f10498278b27e3f0e94a64381cee45c2f9560e48750ae1c9f2bf2",
      "s": "0x3cbaa8745270ebb888c1f6d80a24c3c03158987f70bfe3f418284b2534c4b4db",
      "v": 28,
      "creates": null,
      "raw": "0xf86c1e850ddc1876cd8252089432be343b94f860124dc4fee278fdcbd38c102d8888455f2093aaa8a400801ca06cbe14e1204f10498278b27e3f0e94a64381cee45c2f9560e48750ae1c9f2bf2a03cbaa8745270ebb888c1f6d80a24c3c03158987f70bfe3f418284b2534c4b4db",
      "networkId": 0,
      "chainId": 0
    },
    {
      "hash": "0x8888fc32397d27ea8e7fbfb3d946056a1e1eb87c9a9e4e906f19e1a8a9a3daf4",
      "blockHash": "0xd2d45865f8ae2132533c9ef09f2c04cb3b72448304f01282e978a89f0a716945",
      "blockNumber": 94985,
      "transactionIndex": 1,
      "confirmations": null,
      "from": "0xa6BDc31c431B8F97848c9D60cbbe9660dc450eB7",
      "gasPrice": {
        "_hex": "0xddc1876cd"
      },
      "gasLimit": {
        "_hex": "0x5208"
      },
      "to": "0x32Be343B94f860124dC4fEe278FDCBD38C102D88",
      "value": {
        "_hex": "0x478a490e79c0c400"
      },
      "nonce": 115,
      "data": "0x",
      "r": "0x92d3f7588dc08c97f1358123e50c6f3d9a5770cd7ea82fccc3cabbd55cf20e09",
      "s": "0x60ca2af8c814610552a46347b98f353c9520bd23d07909ab80dc842160b65566",
      "v": 28,
      "creates": null,
      "raw": "0xf86c73850ddc1876cd8252089432be343b94f860124dc4fee278fdcbd38c102d8888478a490e79c0c400801ca092d3f7588dc08c97f1358123e50c6f3d9a5770cd7ea82fccc3cabbd55cf20e09a060ca2af8c814610552a46347b98f353c9520bd23d07909ab80dc842160b65566",
      "networkId": 0,
      "chainId": 0
    },
    {
      "hash": "0x53e605a7091d0dd5b9cc887f18fec415b6df9e98a92c27ceec7f7c10c8078b88",
      "blockHash": "0xd2d45865f8ae2132533c9ef09f2c04cb3b72448304f01282e978a89f0a716945",
      "blockNumber": 94985,
      "transactionIndex": 2,
      "confirmations": null,
      "from": "0x23f2D0fd3B4C98Fb1698564deB4898275E2e831f",
      "gasPrice": {
        "_hex": "0xddc1876cd"
      },
      "gasLimit": {
        "_hex": "0x5208"
      },
      "to": "0x32Be343B94f860124dC4fEe278FDCBD38C102D88",
      "value": {
        "_hex": "0x455f2a5ceca2f400"
      },
      "nonce": 16,
      "data": "0x",
      "r": "0xc25cc1faaf0b1d41043b1636825cc6415e722166cc314fe5a6be73c5a0ebbd2c",
      "s": "0x209d90df248dcb199079a044b5ef7dbbd43984dc840c02ff3285aeac27d60fe6",
      "v": 28,
      "creates": null,
      "raw": "0xf86c10850ddc1876cd8252089432be343b94f860124dc4fee278fdcbd38c102d8888455f2a5ceca2f400801ca0c25cc1faaf0b1d41043b1636825cc6415e722166cc314fe5a6be73c5a0ebbd2ca0209d90df248dcb199079a044b5ef7dbbd43984dc840c02ff3285aeac27d60fe6",
      "networkId": 0,
      "chainId": 0
    },
    {
      "hash": "0xcfed02ffff19cc48fcea29d614b971218c2467488b6dbb4a66444d851643c70a",
      "blockHash": "0xd2d45865f8ae2132533c9ef09f2c04cb3b72448304f01282e978a89f0a716945",
      "blockNumber": 94985,
      "transactionIndex": 3,
      "confirmations": null,
      "from": "0x32Be343B94f860124dC4fEe278FDCBD38C102D88",
      "gasPrice": {
        "_hex": "0xddc1876cd"
      },
      "gasLimit": {
        "_hex": "0x5208"
      },
      "to": "0xF8Fb550D59631e72fb35d56b51A87684F5e5916C",
      "value": {
        "_hex": "0x13b0256a9fd4f1000"
      },
      "nonce": 969,
      "data": "0x",
      "r": "0xdc86bdab51157d835cb3b34636e65e91ca47f93894db7bbb5bbd0c8125ba1f79",
      "s": "0x082ff8af8678ecfe5aaff345070fe6fd17749ad6ab4f340020241b6bb5252b23",
      "v": 28,
      "creates": null,
      "raw": "0xf86f8203c9850ddc1876cd82520894f8fb550d59631e72fb35d56b51a87684f5e5916c89013b0256a9fd4f1000801ca0dc86bdab51157d835cb3b34636e65e91ca47f93894db7bbb5bbd0c8125ba1f79a0082ff8af8678ecfe5aaff345070fe6fd17749ad6ab4f340020241b6bb5252b23",
      "networkId": 0,
      "chainId": 0
    },
    {
      "hash": "0x5c944dee80b2d3e6603961572678229a7ced3d7a00e9838092be966125a60ac2",
      "blockHash": "0xd2d45865f8ae2132533c9ef09f2c04cb3b72448304f01282e978a89f0a716945",
      "blockNumber": 94985,
      "transactionIndex": 4,
      "confirmations": null,
      "from": "0x859217617481BD9b6E3e38f6aE9BB677F0D26154",
      "gasPrice": {
        "_hex": "0xddc1876cd"
      },
      "gasLimit": {
        "_hex": "0x5208"
      },
      "to": "0x32Be343B94f860124dC4fEe278FDCBD38C102D88",
      "value": {
        "_hex": "0x3635c53cd744540000"
      },
      "nonce": 8,
      "data": "0x",
      "r": "0x85fe661e2e921b5427b7599b76216c7dca6dcfed653572bec896eeee19b0b8cf",
      "s": "0x27a06a34b7ba882e145e21d0860d6a2579882a6011538e7f79c0484634bdcc39",
      "v": 28,
      "creates": null,
      "raw": "0xf86d08850ddc1876cd8252089432be343b94f860124dc4fee278fdcbd38c102d88893635c53cd744540000801ca085fe661e2e921b5427b7599b76216c7dca6dcfed653572bec896eeee19b0b8cfa027a06a34b7ba882e145e21d0860d6a2579882a6011538e7f79c0484634bdcc39",
      "networkId": 0,
      "chainId": 0
    }
  ]
}