{
  "hash": "0xb675009af288e63ca4f27a3105a26717992b40a3252f94f96ae7a0a996a274c3",
  "parentHash": "0xeb8cb9642e7aa56311cdfe109411b08047235ca071778ffdd9194a9e7c3c633b",
  "number": 65859,
  "timestamp": 1439244185,
  "nonce": "0xf33db5a5d68fdb71",
  "difficulty": 1944390853062,
  "gasLimit": {
    "_hex": "0x2fefd8"
  },
  "gasUsed": {
    "_hex": "0x899e0"
  },
  "miner": "0x5C2422A39Bcb8E469423cA039cf2b89BbE55E93E",
  "extraData": "0x",
  "transactions": [
    {
      "hash": "0x0d0db58525554c4d3fc3ed6ac267b664599da40461f4568841567fd8b8a33b1a",
      "blockHash": "0xb675009af288e63ca4f27a3105a26717992b40a3252f94f96ae7a0a996a274c3",
      "blockNumber": 65859,
      "transactionIndex": 0,
      "confirmations": null,
      "from": "0x120A270bbC009644e35F0bB6ab13f95b8199c4ad",
      "gasPrice": {
        "_hex": "0xdb6a79a1a"
      },
      "gasLimit": {
        "_hex": "0x15f90"
      },
      "to": "0xc83B0620a11598d85b0c9957aCD445A4C52D5d15",
      "value": {
        "_hex": "0x478eae0e571ba00000"
      },
      "nonce": 135,
      "data": "0x",
      "r": "0x204f841ffab835e09ecf4528b4a0f1ba5deee428f822f744c44cecb5f439bb38",
      "s": "0x14122dda4af5bb4651964b65eb7dd1720a9f6dbed8fc066c39a0cd677c78f1fb",
      "v": 28,
      "creates": null,
      "raw": "0xf86f8187850db6a79a1a83015f9094c83b0620a11598d85b0c9957acd445a4c52d5d1589478eae0e571ba00000801ca0204f841ffab835e09ecf4528b4a0f1ba5deee428f822f744c44cecb5f439bb38a014122dda4af5bb4651964b65eb7dd1720a9f6dbed8fc066c39a0cd677c78f1fb",
      "networkId": 0,
      "chainId": 0
    },
    {
      "hash": "0xac20582f2872d1d693d63bb728434b70894f982968286eb64907cbf33908f86b",
      "blockHash": "0xb675009af288e63ca4f27a3105a26717992b40a3252f94f96ae7a0a996a274c3",
      "blockNumber": 65859,
      "transactionIndex": 1,
      "confirmations": null,
      "from": "0x004BfBE1546BC6c65B5C7EAA55304B38bbfEC6D3",
      "gasPrice": {
        "_hex": "0xd9ee4df2a"
      },
      "gasLimit": {
        "_hex": "0x5208"
      },
      "to": "0x07D41217BaDcA5E0E60327D845a3464f0F27F84a",
      "value": {
        "_hex": "0x429d069189e0000"
      },
      "nonce": 2,
      "data": "0x",
      "r": "0xe5c7f402dca587695611d0cb350a9733b388a34479bf206fec34757d08f57408",
      "s": "0x25899a513fe26fb8c39f5d73658afabed37fe9fd7bf22c8d59b68af299ee3808",
      "v": 28,
      "creates": null,
      "raw": "0xf86c02850d9ee4df2a8252089407d41217badca5e0e60327d845a3464f0f27f84a880429d069189e0000801ca0e5c7f402dca587695611d0cb350a9733b388a34479bf206fec34757d08f57408a025899a513fe26fb8c39f5d73658afabed37fe9fd7bf22c8d59b68af299ee3808",
      "networkId": 0,
      "chainId": 0
    },
    {
      "hash": "0x9ba3bba91b806ecd6caa843d7ee911d935dd223380abdb6ba72fbc7d8933f6fa",
      "blockHash": "0xb675009af288e63ca4f27a3105a26717992b40a3252f94f96ae7a0a996a274c3",
      "blockNumber": 65859,
      "transactionIndex": 2,
      "confirmations": null,
      "from": "0x17580B766f7453525ca4C6A88b01b50570EA088C",
      "gasPrice": {
        "_hex": "0xd8276ffab"
      },
      "gasLimit": {
        "_hex": "0x7a120"
      },
      "to": "0x109C4f2CCc82C4d77Bde15F306707320294Aea3F",
      "value": {
        "_hex": "0xde0b6b3a7640000"
      },
      "nonce": 13,
      "data": "0x",
      "r": "0xb3f67b6f9c83d49e07c172cc9e88cb4e92d0c8dce1b03bfe8b897c2fe84fb81e",
      "s": "0x30aed0d01dc631283f06f2fdb814cdc19ad2734b60f53e03249986c3d74055fc",
      "v": 27,
      "creates": null,
      "raw": "0xf86d0d850d8276ffab8307a12094109c4f2ccc82c4d77bde15f306707320294aea3f880de0b6b3a7640000801ba0b3f67b6f9c83d49e07c172cc9e88cb4e92d0c8dce1b03bfe8b897c2fe84fb81ea030aed0d01dc631283f06f2fdb814cdc19ad2734b60f53e03249986c3d74055fc",
      "networkId": 0,
      "chainId": 0
    },
    {
      "hash": "0xf4245de7627c3aad17359b4dbba579e070b83317b69aae64ab841252a567b00a",
      "blockHash": "0xb675009af288e63ca4f27a3105a26717992b40a3252f94f96ae7a0a996a274c3",
      "blockNumber": 65859,
      "transactionIndex": 3,
      "confirmations": null,
      "from": "0x8F68fbE2DCFf038C24F650C9e05Ee478038171cd",
      "gasPrice": {
        "_hex": "0xd4777f45b"
      },
      "gasLimit": {
        "_hex": "0x55f0"
      },
      "to": "0xe862aFcB53bCBc590eA7Cce4FA2F61e7BaC1FCCa",
      "value": {
        "_hex": "0xde0b6b3a7640000"
      },
      "nonce": 1,
      "data": "0x57444d4d473833323730",
      "r": "0x8230326ab140fe642e2c4c80afa08fe79190d7019b638d5ac805bf8b7d8c33dd",
      "s": "0x24e94525a05705c6cac8d02d6114b2558391f3e630d2c6c9d5807b2f7064dcad",
      "v": 28,
      "creates": null,
      "raw": "0xf87601850d4777f45b8255f094e862afcb53bcbc590ea7cce4fa2f61e7bac1fcca880de0b6b3a76400008a57444d4d4738333237301ca08230326ab140fe642e2c4c80afa08fe79190d7019b638d5ac805bf8b7d8c33dda024e94525a05705c6cac8d02d6114b2558391f3e630d2c6c9d5807b2f7064dcad",
      "networkId": 0,
      "chainId": 0
    }
  ]
}