{
  "hash": "0xba6820bc6dfe98e83fcce21b10aa8aead97a677c660a4c5943e88e9527c2b4b3",
  "parentHash": "0x3f68a71e62d0fcd1474cb1a4f49c03004c31daa500f1170af9a533f9fff923f4",
  "number": 106505,
  "timestamp": 1439905333,
  "nonce": "0xdb5025f73e2066fc",
  "difficulty": 4503387943764,
  "gasLimit": {
    "_hex": "0x2fefd8"
  },
  "gasUsed": {
    "_hex": "0xa410"
  },
  "miner": "0xe6A7a1d47ff21B6321162AEA7C6CB457D5476Bca",
  "extraData": "0x476574682f76312e302e312d38326566323666362f6c696e75782f676f312e34",
  "transactions": [
    {
      "hash": "0x76cc20c68a0d335c49c062d0ed973f10d5b344ffbc3cb3466235566717526cc0",
      "blockHash": "0xba6820bc6dfe98e83fcce21b10aa8aead97a677c660a4c5943e88e9527c2b4b3",
      "blockNumber": 106505,
      "transactionIndex": 0,
      "confirmations": null,
      "from": "0x0D4EcC7d750180EBf4A9Df728B6669B5Bceb5E40",
      "gasPrice": {
        "_hex": "0xd0f901fe2"
      },
      "gasLimit": {
        "_hex": "0x5208"
      },
      "to": "0x32Be343B94f860124dC4fEe278FDCBD38C102D88",
      "value": {
        "_hex": "0x4563a697489e7800"
      },
      "nonce": 81,
      "data": "0x",
      "r": "0xece2f0702394255b5ceb41fa52e6be2e15c9138379bba6b305df1607c427c150",
      "s": "0x34347ab591c7476bcd109268c47fb67c863b4abcbb9775234b3b65d6603be435",
      "v": 27,
      "creates": null,
      "raw": "0xf86c51850d0f901fe28252089432be343b94f860124dc4fee278fdcbd38c102d88884563a697489e7800801ba0ece2f0702394255b5ceb41fa52e6be2e15c9138379bba6b305df1607c427c150a034347ab591c7476bcd109268c47fb67c863b4abcbb9775234b3b65d6603be435",
      "networkId": 0,
      "chainId": 0
    },
    {
      "hash": "0xe0b0fc648a9d0ff3c259abf92225a012e882c939c46b07301351e57ed19e2b3c",
      "blockHash": "0xba6820bc6dfe98e83fcce21b10aa8aead97a677c660a4c5943e88e9527c2b4b3",
      "blockNumber": 106505,
      "transactionIndex": 1,
      "confirmations": null,
      "from": "0x60f7C29656Fc491e766750556fE4F0E407f81eB5",
      "gasPrice": {
        "_hex": "0xcbc455ea4"
      },
      "gasLimit": {
        "_hex": "0x15f90"
      },
      "to": "0x5773DFFDd4AD3114CAB6eFE3b9Ca703Fa450Fe40",
      "value": {
        "_hex": "0x3e8"
      },
      "nonce": 6,
      "data": "0x",
      "r": "0x14efea9dd6e0d6204834483b58854ef1f73be00f5e9565f260e6e802c39e3d21",
      "s": "0x6c8735f2e06f9b033b531fac57e9ca90ea38aab69e11648b07d48aded36ffb8f",
      "v": 27,
      "creates": null,
      "raw": "0xf86706850cbc455ea483015f90945773dffdd4ad3114cab6efe3b9ca703fa450fe408203e8801ba014efea9dd6e0d6204834483b58854ef1f73be00f5e9565f260e6e802c39e3d21a06c8735f2e06f9b033b531fac57e9ca90ea38aab69e11648b07d48aded36ffb8f",
      "networkId": 0,
      "chainId": 0
    }
  ]
}