{
  "hash": "0x5d3c4fb39a815627c4b0865e4f99517ffbc32d17f4469b76fbc561e93f976f29",
  "parentHash": "0x304a400022e289b329bfea9bef2b3c001cdc497e5b1e62873e68e3421311b713",
  "number": 58527,
  "timestamp": 1439122198,
  "nonce": "0x2a5556a2d7820b34",
  "difficulty": 1710723746232,
  "gasLimit": {
    "_hex": "0x2fefd8"
  },
  "gasUsed": {
    "_hex": "0x5208"
  },
  "miner": "0xC49418429e58989172a4ACE0bab0cB8D3F00F97f",
  "extraData": "0x476574682f76312e302e312f6c696e75782f676f312e342e32",
  "transactions": [
    {
      "hash": "0xe9718c4cb12e8b582e4d02f82753c75b95c67cd8afef13517e43549fdc09cb09",
      "blockHash": "0x5d3c4fb39a815627c4b0865e4f99517ffbc32d17f4469b76fbc561e93f976f29",
      "blockNumber": 58527,
      "transactionIndex": 0,
      "confirmations": null,
      "from": "0xA10C59651885FeAaac91F871082a23BBbaBeDfCf",
      "gasPrice": {
        "_hex": "0x102096cfcc0"
      },
      "gasLimit": {
        "_hex": "0x5208"
      },
      "to": "0x4c74B6F32c9680aCB5Fe0e72B7Aa95C612540A04",
      "value": {
        "_hex": "0x8ac7230489e80000"
      },
      "nonce": 0,
      "data": "0x",
      "r": "0xabb7c5934bdbb50e357c6c905790b42f59fe3d5c2c0ec44de32b4d6b777045aa",
      "s": "0x0791b1d30b5add7d346ec9c7acd0be22eb2394eca69e0b555fbae2af67e20e7a",
      "v": 27,
      "creates": null,
      "raw": "0xf86d80860102096cfcc0825208944c74b6f32c9680acb5fe0e72b7aa95c612540a04888ac7230489e80000801ba0abb7c5934bdbb50e357c6c905790b42f59fe3d5c2c0ec44de32b4d6b777045aaa00791b1d30b5add7d346ec9c7acd0be22eb2394eca69e0b555fbae2af67e20e7a",
      "networkId": 0,
      "chainId": 0
    }
  ]
}