{
  "hash": "0x80ae820250a4bf8c96a62c7b13f0d0e6c785fcfbacb37e48d391a6c0f0ff0f84",
  "parentHash": "0x0a5e12bb91b3cae733f34b9b1bf83958539c3f8350ff10d161482e9fd40b7d0e",
  "number": 71292,
  "timestamp": 1439333823,
  "nonce": "0x8a154b90e15e3956",
  "difficulty": 2154003986959,
  "gasLimit": {
    "_hex": "0x2fefd8"
  },
  "gasUsed": {
    "_hex": "0x5208"
  },
  "miner": "0xbb7B8287f3F0a933474a79eAe42CBCa977791171",
  "extraData": "0x476574682f4c5649562f76312e302e312f6c696e75782f676f312e342e32",
  "transactions": [
    {
      "hash": "0xc57afec9f6246b41e06456cbd493451e2e32ce4425e18604d56a583bbaba6f6b",
      "blockHash": "0x80ae820250a4bf8c96a62c7b13f0d0e6c785fcfbacb37e48d391a6c0f0ff0f84",
      "blockNumber": 71292,
      "transactionIndex": 0,
      "confirmations": null,
      "from": "0x617Ff2CC803e31C9082233b825D025BE3f7b1056",
      "gasPrice": {
        "_hex": "0xdd65ef9f5"
      },
      "gasLimit": {
        "_hex": "0x15f90"
      },
      "to": "0x72907bC54bB4C0797c238CDD6DA2A2522A8A63f4",
      "value": {
        "_hex": "0xde0b6b3a7640000"
      },
      "nonce": 3,
      "data": "0x",
      "r": "0xd67067c9ae4003344d62f59e5dfb1089233dd7d2c025d86749d420475b1b31af",
      "s": "0x1573cadfefc433fe1eaf0d24812d2859848d4e16d890cabafe0a05fa266e5f04",
      "v": 27,
      "creates": null,
      "raw": "0xf86d03850dd65ef9f583015f909472907bc54bb4c0797c238cdd6da2a2522a8a63f4880de0b6b3a7640000801ba0d67067c9ae4003344d62f59e5dfb1089233dd7d2c025d86749d420475b1b31afa01573cadfefc433fe1eaf0d24812d2859848d4e16d890cabafe0a05fa266e5f04",
      "networkId": 0,
      "chainId": 0
    }
  ]
}