{
  "hash": "0xa02b37a53cc230341730c314b253fa415ecdf11b52d9a47a53d6bfa413c8e8cd",
  "parentHash": "0x139d553bbbdf050249c3925a681b41f2134d302941f80f78110747d0b0745ccd",
  "number": 46539,
  "timestamp": 1438924780,
  "nonce": "0x12258b84fe9f1b59",
  "difficulty": 1465352156107,
  "gasLimit": {
    "_hex": "0x66fd"
  },
  "gasUsed": {
    "_hex": "0x5208"
  },
  "miner": "0x0037ce3d4B7f8729C8607D8D0248252Be68202c0",
  "extraData": "0x476574682f76312e302e312f77696e646f77732f676f312e342e32",
  "transactions": [
    {
      "hash": "0x4ef61f767c2813b7521c2d22d467c31f46b937efca7d737fea0932827406576e",
      "blockHash": "0xa02b37a53cc230341730c314b253fa415ecdf11b52d9a47a53d6bfa413c8e8cd",
      "blockNumber": 46539,
      "transactionIndex": 0,
      "confirmations": null,
      "from": "0x4BD5f0Ee173C81d42765154865EE69361b6aD189",
      "gasPrice": {
        "_hex": "0x746a528800"
      },
      "gasLimit": {
        "_hex": "0x5b04"
      },
      "to": "0x18ba9b3C8e3f8eBcb7325737c0f3004397F5B9ac",
      "value": {
        "_hex": "0x52663ccab1e1c0000"
      },
      "nonce": 1,
      "data": "0x",
      "r": "0x56ade34ee1ed77a32d516a76b97712d1c97caa85897ad9e1b187380219e4384e",
      "s": "0x0f00e94969d4e9bd9d547e712888915081bff39b952d01241f6acdbaef9a85aa",
      "v": 27,
      "creates": null,
      "raw": "0xf86d0185746a528800825b049418ba9b3c8e3f8ebcb7325737c0f3004397f5b9ac89052663ccab1e1c0000801ba056ade34ee1ed77a32d516a76b97712d1c97caa85897ad9e1b187380219e4384ea00f00e94969d4e9bd9d547e712888915081bff39b952d01241f6acdbaef9a85aa",
      "networkId": 0,
      "chainId": 0
    }
  ]
}