{
  "hash": "0x327cc86263710d28ba669e7a2eec8ac3447eaa0629e245a5d8968a3498eff8b7",
  "parentHash": "0xf0d4042fe50c77c9cd54f8d1bad0db8e8d137dbaff86df570d9044c23d5280db",
  "number": 87427,
  "timestamp": 1439592049,
  "nonce": "0x23d0dd38ec0dcf5d",
  "difficulty": 3123456288145,
  "gasLimit": {
    "_hex": "0x2fefd8"
  },
  "gasUsed": {
    "_hex": "0x5208"
  },
  "miner": "0xF2d2AfF1320476cb8C6b607199D23175cc595693",
  "extraData": "0x476574682f76312e302e312f77696e646f77732f676f312e342e32",
  "transactions": [
    {
      "hash": "0x8d7c7445894f2f9f733d50d4f70f88efdb7f1025438af2f92c823098acd6d5c1",
      "blockHash": "0x327cc86263710d28ba669e7a2eec8ac3447eaa0629e245a5d8968a3498eff8b7",
      "blockNumber": 87427,
      "transactionIndex": 0,
      "confirmations": null,
      "from": "0x2910543Af39abA0Cd09dBb2D50200b3E800A63D2",
      "gasPrice": {
        "_hex": "0xcc97e1d94"
      },
      "gasLimit": {
        "_hex": "0x5208"
      },
      "to": "0x6E2035C3Cb6EB480e07749D4fa252837d91BFE2D",
      "value": {
        "_hex": "0xdcef33a6f838000"
      },
      "nonce": 702,
      "data": "0x",
      "r": "0x899f1df9542d7dbf3d5620a2aec7258b711ab7aab5f12fbccef2da684d4fb3ea",
      "s": "0x06a933507f28c04e12a5f2752a983a4b35777a52076fb8d0741a08455d022a85",
      "v": 27,
      "creates": null,
      "raw": "0xf86e8202be850cc97e1d94825208946e2035c3cb6eb480e07749d4fa252837d91bfe2d880dcef33a6f838000801ba0899f1df9542d7dbf3d5620a2aec7258b711ab7aab5f12fbccef2da684d4fb3eaa006a933507f28c04e12a5f2752a983a4b35777a52076fb8d0741a08455d022a85",
      "networkId": 0,
      "chainId": 0
    }
  ]
}