{
  "hash": "0x1904d19d5ca432416cfd205c2d16a2ab715d0a8ef04ce37b6d6f6bb52846f0a4",
  "parentHash": "0xdd445f23c7c94bdd1ed41a35abe889b2f64821fceb905390f0875ef95b1b9849",
  "number": 86789,
  "timestamp": 1439582842,
  "nonce": "0xaef819b92207f675",
  "difficulty": 2951683245713,
  "gasLimit": {
    "_hex": "0x2fefd8"
  },
  "gasUsed": {
    "_hex": "0x546c"
  },
  "miner": "0xa50ec0D39fa913E62f1Bae7074E6F36caA71855b",
  "extraData": "0xd783010001844765746887676f312e342e32856c696e7578",
  "transactions": [
    {
      "hash": "0x888875bf0e0b6da9d9ef26600549429299a1e4b2ef476fdbc359cd1f6809f019",
      "blockHash": "0x1904d19d5ca432416cfd205c2d16a2ab715d0a8ef04ce37b6d6f6bb52846f0a4",
      "blockNumber": 86789,
      "transactionIndex": 0,
      "confirmations": null,
      "from": "0x6CE13F1816a2cFab76C59714291Cb8403CbBB3D8",
      "gasPrice": {
        "_hex": "0xd7d40ace3"
      },
      "gasLimit": {
        "_hex": "0x55f0"
      },
      "to": "0x2910543Af39abA0Cd09dBb2D50200b3E800A63D2",
      "value": {
        "_hex": "0x5188315f776b80000"
      },
      "nonce": 6,
      "data": "0x454e33514334363338",
      "r": "0x5939281c9731d9a5b709561328b4d4d252ad1d32980c74bd37d72b83b386aea0",
      "s": "0x5989f9aa128a01616b5acaa67b9073c06277a7c0fb7f9635e5dd11aca2e192bd",
      "v": 28,
      "creates": null,
      "raw": "0xf87606850d7d40ace38255f0942910543af39aba0cd09dbb2d50200b3e800a63d28905188315f776b8000089454e335143343633381ca05939281c9731d9a5b709561328b4d4d252ad1d32980c74bd37d72b83b386aea0a05989f9aa128a01616b5acaa67b9073c06277a7c0fb7f9635e5dd11aca2e192bd",
      "networkId": 0,
      "chainId": 0
    }
  ]
}