{
  "hash": "0x444a681438f47b346ace17d733184d9b8486c691e742fa25be126b8d42d99a8e",
  "parentHash": "0x0a1851e1fcd0ea4a6a9ad6d9563bf61a3baa66d2932fa631581e224419f5968f",
  "number": 94782,
  "timestamp": 1439714029,
  "nonce": "0x481b1ad3500e55f7",
  "difficulty": 3496746375572,
  "gasLimit": {
    "_hex": "0x2fefd8"
  },
  "gasUsed": {
    "_hex": "0x5208"
  },
  "miner": "0xC603Ab5ef41fC61AA8b76bEddb09e3Cfcbb174BD",
  "extraData": "0x476574682f76312e302e312f77696e646f77732f676f312e342e32",
  "transactions": [
    {
      "hash": "0x4183c758feb5776f4452c89f3f1b4e47e91cd490e3402d5e65dba3a7c8c12c96",
      "blockHash": "0x444a681438f47b346ace17d733184d9b8486c691e742fa25be126b8d42d99a8e",
      "blockNumber": 94782,
      "transactionIndex": 0,
      "confirmations": null,
      "from": "0xdCe26B66eabfB4dE900E4944DcC2FA2d455021fc",
      "gasPrice": {
        "_hex": "0xd3a1bf8f8"
      },
      "gasLimit": {
        "_hex": "0x5208"
      },
      "to": "0x32Be343B94f860124dC4fEe278FDCBD38C102D88",
      "value": {
        "_hex": "0x1d5e08ba07e37c00"
      },
      "nonce": 2,
      "data": "0x",
      "r": "0x3d50e6a12e3fdc87e6bba49f3e26d6b516258ca97b3967fec4e493c04baa5fc5",
      "s": "0x44308c332475a14c1e2c09470dc511e439f2010548c451374fa59c22e6576ec1",
      "v": 27,
      "creates": null,
      "raw": "0xf86c02850d3a1bf8f88252089432be343b94f860124dc4fee278fdcbd38c102d88881d5e08ba07e37c00801ba03d50e6a12e3fdc87e6bba49f3e26d6b516258ca97b3967fec4e493c04baa5fc5a044308c332475a14c1e2c09470dc511e439f2010548c451374fa59c22e6576ec1",
      "networkId": 0,
      "chainId": 0
    }
  ]
}