{
  "hash": "0x457e8f0c074bec0bb3698b4d318d08b4d35d4c23299a403c9c4b78b7a8ab3d69",
  "parentHash": "0x08508359b765c528b6d2b929b5004b5db4a696d5a5391881d44cd422b4e6e87f",
  "number": 82657,
  "timestamp": 1439523120,
  "nonce": "0x9dedea0539365d86",
  "difficulty": 2365970902271,
  "gasLimit": {
    "_hex": "0x2fefd8"
  },
  "gasUsed": {
    "_hex": "0x5208"
  },
  "miner": "0x87898CE53471043FcCa0a2aF4E1dC6d8B3fCf607",
  "extraData": "0x476574682f5369626572696131392f76312e302e312d37666266393930632f6c",
  "transactions": [
    {
      "hash": "0x1172701c601ce95bcef55d0096c337792cf25af2f873cb6282ff3d19e2a56862",
      "blockHash": "0x457e8f0c074bec0bb3698b4d318d08b4d35d4c23299a403c9c4b78b7a8ab3d69",
      "blockNumber": 82657,
      "transactionIndex": 0,
      "confirmations": null,
      "from": "0x2910543Af39abA0Cd09dBb2D50200b3E800A63D2",
      "gasPrice": {
        "_hex": "0xcf165957e"
      },
      "gasLimit": {
        "_hex": "0x5208"
      },
      "to": "0x8Cb4bac8Ac25112a55E9fB83Bcc5ba2644834624",
      "value": {
        "_hex": "0x5f08b347250d07a000"
      },
      "nonce": 517,
      "data": "0x",
      "r": "0x78f7afd29dd91fee1ba2532b5e54c475c8a34f6ae3a6ecbef6f1bd1a39251bc1",
      "s": "0x6a16d9290b9f0db3c0ea2684e76fa93b2a9af8d27be7a4999edc701b0bc78637",
      "v": 28,
      "creates": null,
      "raw": "0xf86f820205850cf165957e825208948cb4bac8ac25112a55e9fb83bcc5ba2644834624895f08b347250d07a000801ca078f7afd29dd91fee1ba2532b5e54c475c8a34f6ae3a6ecbef6f1bd1a39251bc1a06a16d9290b9f0db3c0ea2684e76fa93b2a9af8d27be7a4999edc701b0bc78637",
      "networkId": 0,
      "chainId": 0
    }
  ]
}