{
  "hash": "0xae589fd2b3d445a991fd8f596a4419b74ac1cf31c36c8e2b741f1652c2d3645d",
  "parentHash": "0x8380b4f8d9d781cf0a3fbe9efaccfe435520f3ba32bf9791f31bee7fe04ed9cd",
  "number": 46979,
  "timestamp": 1438932654,
  "nonce": "0x3792e9a31922ed18",
  "difficulty": 1451035610022,
  "gasLimit": {
    "_hex": "0x8b86"
  },
  "gasUsed": {
    "_hex": "0x5208"
  },
  "miner": "0xFeA4C14eD0B571bDbe3445548aec155c0C2654B7",
  "extraData": "0x476574682f76312e302e312f77696e646f77732f676f312e342e32",
  "transactions": [
    {
      "hash": "0x99f7090f274b7bf364c6ada2cadfd2aadb1feddaa4cea9169845c3f0843f6fb7",
      "blockHash": "0xae589fd2b3d445a991fd8f596a4419b74ac1cf31c36c8e2b741f1652c2d3645d",
      "blockNumber": 46979,
      "transactionIndex": 0,
      "confirmations": null,
      "from": "0xdEbbdd831e0F20AE6e378252DecDf92f7CF0c658",
      "gasPrice": {
        "_hex": "0xcc940170c"
      },
      "gasLimit": {
        "_hex": "0x5208"
      },
      "to": "0x4912D994E8eA111bEfbC47d04ef89A132D785D95",
      "value": {
        "_hex": "0x8ac7230489e80000"
      },
      "nonce": 0,
      "data": "0x",
      "r": "0x464c1e3837b52732682c83bf9849a63b4c92d5b7bdbee87dfbfe3b65ac003ed6",
      "s": "0x54f4dfcf1571e6f2f7472f182bfded11fd98ec3e6922d50fabda07070d50a9bd",
      "v": 28,
      "creates": null,
      "raw": "0xf86c80850cc940170c825208944912d994e8ea111befbc47d04ef89a132d785d95888ac7230489e80000801ca0464c1e3837b52732682c83bf9849a63b4c92d5b7bdbee87dfbfe3b65ac003ed6a054f4dfcf1571e6f2f7472f182bfded11fd98ec3e6922d50fabda07070d50a9bd",
      "networkId": 0,
      "chainId": 0
    }
  ]
}