{
  "hash": "0xd3881e66c18577130bb976cdf4d4589068d2cc1d94b3ddfdb8ac8c26e3a47c97",
  "parentHash": "0xb20557b56761ceabc3000c17c400909ac41ec6a88ca29d03c71c7420cebd0b79",
  "number": 51286,
  "timestamp": 1439002375,
  "nonce": "0xc59212a70067da19",
  "difficulty": 1570437009867,
  "gasLimit": {
    "_hex": "0xa1737"
  },
  "gasUsed": {
    "_hex": "0xa674"
  },
  "miner": "0x0eDEd3DA479d0beF8eeC92A76644D3f4E3C177f7",
  "extraData": "0x476574682f76312e302e312f6c696e75782f676f312e342e32",
  "transactions": [
    {
      "hash": "0x1486b51353dec661017ebdf791e54893261d244133f5536880b4812c084b9f40",
      "blockHash": "0xd3881e66c18577130bb976cdf4d4589068d2cc1d94b3ddfdb8ac8c26e3a47c97",
      "blockNumber": 51286,
      "transactionIndex": 0,
      "confirmations": null,
      "from": "0xA4489A50EAD5d5445A7bEe4D2d5536C2a76c41f8",
      "gasPrice": {
        "_hex": "0x1176d0e38c1"
      },
      "gasLimit": {
        "_hex": "0x15f90"
      },
      "to": "0x2910543Af39abA0Cd09dBb2D50200b3E800A63D2",
      "value": {
        "_hex": "0x429d069189e0000"
      },
      "nonce": 2,
      "data": "0x454e34584a41304d30",
      "r": "0xac6a0bf64baf41c26d244cdcb3a13956aa7b1f21007b91227e9e6d8468506a15",
      "s": "0x56ed5f579c58ba81482c8231c7159800348b0b9a298304c2330c2a38e2ff053f",
      "v": 28,
      "creates": null,
      "raw": "0xf877028601176d0e38c183015f90942910543af39aba0cd09dbb2d50200b3e800a63d2880429d069189e000089454e34584a41304d301ca0ac6a0bf64baf41c26d244cdcb3a13956aa7b1f21007b91227e9e6d8468506a15a056ed5f579c58ba81482c8231c7159800348b0b9a298304c2330c2a38e2ff053f",
      "networkId": 0,
      "chainId": 0
    },
    {
      "hash": "0x035a873ad6a659d362697c6926bfa93fb18057876039fa5bd1a59a4a852863cb",
      "blockHash": "0xd3881e66c18577130bb976cdf4d4589068d2cc1d94b3ddfdb8ac8c26e3a47c97",
      "blockNumber": 51286,
      "transactionIndex": 1,
      "confirmations": null,
      "from": "0xC555B93156F09101233c6f7CF6eB3c4F196D3346",
      "gasPrice": {
        "_hex": "0xd176aa814"
      },
      "gasLimit": {
        "_hex": "0x15f90"
      },
      "to": "0x36DeE907a4DA9858CE11CDDd63FAAF89EF610d71",
      "value": {
        "_hex": "0x1ad41dffe84cd20000"
      },
      "nonce": 8,
      "data": "0x",
      "r": "0xdc8e7c70e856e678ae55495dfafdf76a0de0b410a9dbf8d7cff489e0b1534bf2",
      "s": "0x6a7b0a479e896e7c316a31b19c9bac92b4c914745f1424a8cbb6c681fbde63a2",
      "v": 28,
      "creates": null,
      "raw": "0xf86e08850d176aa81483015f909436dee907a4da9858ce11cddd63faaf89ef610d71891ad41dffe84cd20000801ca0dc8e7c70e856e678ae55495dfafdf76a0de0b410a9dbf8d7cff489e0b1534bf2a06a7b0a479e896e7c316a31b19c9bac92b4c914745f1424a8cbb6c681fbde63a2",
      "networkId": 0,
      "chainId": 0
    }
  ]
}