{
  "hash": "0x32a8b24ecc5fd01d9a0eaf704c5a7c566f8d4f1087bda37bebe2538e8c6e4a6a",
  "parentHash": "0x906928c29bd0cca8fa23dd6030d8071551500308a65dcbcaeab97b736a839564",
  "number": 84445,
  "timestamp": 1439549759,
  "nonce": "0x53d29a49dda50541",
  "difficulty": 2565183497036,
  "gasLimit": {
    "_hex": "0x2fefd8"
  },
  "gasUsed": {
    "_hex": "0x5208"
  },
  "miner": "0x9746c7e1ef2bd21FF3997fa467593a89cb852BD0",
  "extraData": "0x476574682f76312e302e312f77696e646f77732f676f312e342e32",
  "transactions": [
    {
      "hash": "0x007bc4f8e9760a79ba80970c52fd764011e881b8efd75eec1e9ec2283f9f631c",
      "blockHash": "0x32a8b24ecc5fd01d9a0eaf704c5a7c566f8d4f1087bda37bebe2538e8c6e4a6a",
      "blockNumber": 84445,
      "transactionIndex": 0,
      "confirmations": null,
      "from": "0x3fc4eAB8A8df5a124043b29146709935c65F1f7d",
      "gasPrice": {
        "_hex": "0xd7d40ace3"
      },
      "gasLimit": {
        "_hex": "0x15f90"
      },
      "to": "0x051B69BB7073F7385370C5751F988b31A7567a63",
      "value": {
        "_hex": "0xde0b6b3a7640000"
      },
      "nonce": 0,
      "data": "0x",
      "r": "0x88f71fed37a757d07776aa0333dbe2d08b1714d3c9869344df1478d7cbd0e836",
      "s": "0x75baaf074abb9e4f9c00959979b36020da5e73b6aa76b26125a81fe0c7bbcd69",
      "v": 28,
      "creates": null,
      "raw": "0xf86d80850d7d40ace383015f9094051b69bb7073f7385370c5751f988b31a7567a63880de0b6b3a7640000801ca088f71fed37a757d07776aa0333dbe2d08b1714d3c9869344df1478d7cbd0e836a075baaf074abb9e4f9c00959979b36020da5e73b6aa76b26125a81fe0c7bbcd69",
      "networkId": 0,
      "chainId": 0
    }
  ]
}