{
  "hash": "0x03fd578dfbb7e98519a97a93b5892ae78211edabaf533c2cc658558cb28f218c",
  "parentHash": "0x701e5a2c478ea0bbe4da161c5304f819204cb684b10d655e7da74baaed36d7a7",
  "number": 71245,
  "timestamp": 1439333050,
  "nonce": "0x5a5834095d559b54",
  "difficulty": 2146666263216,
  "gasLimit": {
    "_hex": "0x2fefd8"
  },
  "gasUsed": {
    "_hex": "0xaec1"
  },
  "miner": "0x6DE55b563cE6E319cCB403032Da3BE5Ad4ec4FcF",
  "extraData": "0x",
  "transactions": [
    {
      "hash": "0xf84b6911a0e692079b9dcf246d9e4f219ecfec50857480edb3fcc77b71eac31d",
      "blockHash": "0x03fd578dfbb7e98519a97a93b5892ae78211edabaf533c2cc658558cb28f218c",
      "blockNumber": 71245,
      "transactionIndex": 0,
      "confirmations": null,
      "from": "0x17580B766f7453525ca4C6A88b01b50570EA088C",
      "gasPrice": {
        "_hex": "0xd8149579c"
      },
      "gasLimit": {
        "_hex": "0x61a80"
      },
      "to": "0x5Fe5B7546D1628f7348B023A0393de1FC825A4fD",
      "value": {
        "_hex": "0x6f05b59d3b200000"
      },
      "nonce": 130,
      "data": "0xb595b8b50000000000000000000000000000000000000000000000000000000000000001",
      "r": "0xcfa05f4476bc1af761e8c3c48a3fff06720d98e07d5170efdae385d4ca4a5d1c",
      "s": "0x5f10aaec400e974c2eed1e8e2c64923edc9d643c50911ddd331d925786a6c01a",
      "v": 28,
      "creates": null,
      "raw": "0xf8928182850d8149579c83061a80945fe5b7546d1628f7348b023a0393de1fc825a4fd886f05b59d3b200000a4b595b8b500000000000000000000000000000000000000000000000000000000000000011ca0cfa05f4476bc1af761e8c3c48a3fff06720d98e07d5170efdae385d4ca4a5d1ca05f10aaec400e974c2eed1e8e2c64923edc9d643c50911ddd331d925786a6c01a",
      "networkId": 0,
      "chainId": 0
    }
  ]
}