{
  "hash": "0x1878343615fddf95fb866a68ea6b573e68198e914855e9086bb15c892cb66d40",
  "parentHash": "0xab7401686075b5a425237eb95872d163a79a46e6276846a0c1b213e37723f95f",
  "number": 122083,
  "timestamp": 1440187889,
  "nonce": "0x4249366e3f2ef88a",
  "difficulty": 4455698702364,
  "gasLimit": {
    "_hex": "0x2fefd8"
  },
  "gasUsed": {
    "_hex": "0x5208"
  },
  "miner": "0x52bc44d5378309EE2abF1539BF71dE1b7d7bE3b5",
  "extraData": "0xd783010002844765746887676f312e342e32856c696e7578",
  "transactions": [
    {
      "hash": "0x76ebd9857d3f8e1d1216367576334265a223e8d92afb97647b5fc16b67549662",
      "blockHash": "0x1878343615fddf95fb866a68ea6b573e68198e914855e9086bb15c892cb66d40",
      "blockNumber": 122083,
      "transactionIndex": 0,
      "confirmations": null,
      "from": "0xcA8f4Fb1A28593337AeE456Acc76ABD4C3c83257",
      "gasPrice": {
        "_hex": "0xba43b7400"
      },
      "gasLimit": {
        "_hex": "0x5208"
      },
      "to": "0xf357482c5A92C7B2Cee6a157034362b7d7d88c5A",
      "value": {
        "_hex": "0x6f05b59d3b20000"
      },
      "nonce": 5,
      "data": "0x",
      "r": "0xe7fcf7ad3f2e2693e3e9714748e8d2f3f18c9f8e18b5efb6f5a0dc2b92604418",
      "s": "0xda058cf0abd2af8eb3df71dd179d6d52f1a641c9add2100b38257da6c6737762",
      "v": 27,
      "creates": null,
      "raw": "0xf86c05850ba43b740082520894f357482c5a92c7b2cee6a157034362b7d7d88c5a8806f05b59d3b20000801ba0e7fcf7ad3f2e2693e3e9714748e8d2f3f18c9f8e18b5efb6f5a0dc2b92604418a0da058cf0abd2af8eb3df71dd179d6d52f1a641c9add2100b38257da6c6737762",
      "networkId": 0,
      "chainId": 0
    }
  ]
}