{
  "hash": "0xe7b4fb496017a5c49682fae7046aaa3e66a5bd82207c67c44d291bc623371569",
  "parentHash": "0xfa6d876a2dab50453ec23b13b138ac0c84db05f40cbb0462128ce93fcfe1a30a",
  "number": 81070,
  "timestamp": 1439495727,
  "nonce": "0x25c5359eda1250fd",
  "difficulty": 2430830876116,
  "gasLimit": {
    "_hex": "0x2fefd8"
  },
  "gasUsed": {
    "_hex": "0x5208"
  },
  "miner": "0xf927a40C8B7F6E07c5af7FA2155B4864a4112B13",
  "extraData": "0x476574682f76312e302e312f6c696e75782f676f312e342e32",
  "transactions": [
    {
      "hash": "0x38c0ac02dc1f139b06862c59d83b2774a4bad787314d897175d24945abf76846",
      "blockHash": "0xe7b4fb496017a5c49682fae7046aaa3e66a5bd82207c67c44d291bc623371569",
      "blockNumber": 81070,
      "transactionIndex": 0,
      "confirmations": null,
      "from": "0x723E05fF30e4ba7A87b4D7D459eE5B488A9c36d1",
      "gasPrice": {
        "_hex": "0xced8eecf2"
      },
      "gasLimit": {
        "_hex": "0x15f90"
      },
      "to": "0xabceA603089850F8f6bB612A9031554D90A247CF",
      "value": {
        "_hex": "0x4563918244f40000"
      },
      "nonce": 18,
      "data": "0x",
      "r": "0x36a767e94edef5a7831444c658df2934c0353685306fd50d718beaabb35a840c",
      "s": "0x1cb8c0b55b7dd5ee2a01211a5f3f6d83cd267dc19bfca11a6c706598acc7bc2e",
      "v": 27,
      "creates": null,
      "raw": "0xf86d12850ced8eecf283015f9094abcea603089850f8f6bb612a9031554d90a247cf884563918244f40000801ba036a767e94edef5a7831444c658df2934c0353685306fd50d718beaabb35a840ca01cb8c0b55b7dd5ee2a01211a5f3f6d83cd267dc19bfca11a6c706598acc7bc2e",
      "networkId": 0,
      "chainId": 0
    }
  ]
}