{
  "hash": "0x1c3ad94a79dda911e6d7d0bac87d495af682c6612ade92576a40b0acd482e15c",
  "parentHash": "0xc4d189c2ddbb1f139e842752d503787478846f20776e30ed4634a47a462ab1a9",
  "number": 75128,
  "timestamp": 1439398113,
  "nonce": "0x79677b98b5f7c445",
  "difficulty": 2193340736058,
  "gasLimit": {
    "_hex": "0x2fefd8"
  },
  "gasUsed": {
    "_hex": "0xff7f"
  },
  "miner": "0x88D74a59454F6cF3B51ef6b9136AFb6b9D405A88",
  "extraData": "0x476574682f76312e302e312d37666266393930632f6c696e75782f676f312e34",
  "transactions": [
    {
      "hash": "0xa4fbabbe9b324e823532e07fce0fef25a9b652614846a3ff2259bbf0126e8e10",
      "blockHash": "0x1c3ad94a79dda911e6d7d0bac87d495af682c6612ade92576a40b0acd482e15c",
      "blockNumber": 75128,
      "transactionIndex": 0,
      "confirmations": null,
      "from": "0x87C5B5874A18B4306DF8a752a6C8cc3E82daFc19",
      "gasPrice": {
        "_hex": "0x112408f65a6"
      },
      "gasLimit": {
        "_hex": "0x493e0"
      },
      "to": "0xD79B4C6791784184e2755B2fC1659eaaB0f80456",
      "value": {
        "_hex": "0x0"
      },
      "nonce": 33,
      "data": "0x03750d94000000000000000000000000326be8f71bfb0379f989aab1cc1fe37f0a771f603831313938643033363031653432633600000000000000000000000000000000",
      "r": "0xadb25f0a6ae260bb998f002d411ed3ea2a4c534fac3c335518e7ecf5779edaf9",
      "s": "0x253da6c3836304e68b20d34b30598f2714307a1d6c199e5d1101fa458bec8e1e",
      "v": 28,
      "creates": null,
      "raw": "0xf8ab21860112408f65a6830493e094d79b4c6791784184e2755b2fc1659eaab0f8045680b84403750d94000000000000000000000000326be8f71bfb0379f989aab1cc1fe37f0a771f6038313139386430333630316534326336000000000000000000000000000000001ca0adb25f0a6ae260bb998f002d411ed3ea2a4c534fac3c335518e7ecf5779edaf9a0253da6c3836304e68b20d34b30598f2714307a1d6c199e5d1101fa458bec8e1e",
      "networkId": 0,
      "chainId": 0
    },
    {
      "hash": "0x2d472fdbfde3a4ec797dc58db8f90ae1b0bdf1acd3611b8b6ab65ca03b36ecbe",
      "blockHash": "0x1c3ad94a79dda911e6d7d0bac87d495af682c6612ade92576a40b0acd482e15c",
      "blockNumber": 75128,
      "transactionIndex": 1,
      "confirmations": null,
      "from": "0x71DF8F549b285B3b1037cd6b090B0E2dfE51Db90",
      "gasPrice": {
        "_hex": "0xd74b81181"
      },
      "gasLimit": {
        "_hex": "0x15f90"
      },
      "to": "0xBef07d97C3481f9D6aee1c98F9d91a180a32442B",
      "value": {
        "_hex": "0xdba92f7cefa0390"
      },
      "nonce": 4,
      "data": "0x",
      "r": "0xe5634e118fceb8e822be70208a074854140f11e385d9c9bb14489fa103249bc6",
      "s": "0x12dc04118d0efa80cab6c2c5517cafe7ae9c2884fa1c406e65aab84b2318760e",
      "v": 28,
      "creates": null,
      "raw": "0xf86d04850d74b8118183015f9094bef07d97c3481f9d6aee1c98f9d91a180a32442b880dba92f7cefa0390801ca0e5634e118fceb8e822be70208a074854140f11e385d9c9bb14489fa103249bc6a012dc04118d0efa80cab6c2c5517cafe7ae9c2884fa1c406e65aab84b2318760e",
      "networkId": 0,
      "chainId": 0
    }
  ]
}