{
  "hash": "0x4ae14730e32a9ed63a3f562447df1f49c55b984e2101072805ea80533019da7a",
  "parentHash": "0xe97b4c78979de16246621ee6e6ea1ae8e5b73ef3f3163b635fc909b56136c0a6",
  "number": 61753,
  "timestamp": 1439177595,
  "nonce": "0xef93e51bc78cfc03",
  "difficulty": 1733606344989,
  "gasLimit": {
    "_hex": "0x2fefd5"
  },
  "gasUsed": {
    "_hex": "0xf618"
  },
  "miner": "0x88D74a59454F6cF3B51ef6b9136AFb6b9D405A88",
  "extraData": "0x476574682f76312e302e312d37666266393930632f6c696e75782f676f312e34",
  "transactions": [
    {
      "hash": "0x0a7a3d97ccc04760eabe0586a7b357f05c3008ffb79b0e46fe3736f697fefcc0",
      "blockHash": "0x4ae14730e32a9ed63a3f562447df1f49c55b984e2101072805ea80533019da7a",
      "blockNumber": 61753,
      "transactionIndex": 0,
      "confirmations": null,
      "from": "0x1308A2e95c0160B90803ddCA9B9a5bb55E416d79",
      "gasPrice": {
        "_hex": "0xe8d4a51000"
      },
      "gasLimit": {
        "_hex": "0x15f90"
      },
      "to": "0x00818287ff6BA78A461D21bD5832891592dc6C6B",
      "value": {
        "_hex": "0x1b04b07f5d16b0000"
      },
      "nonce": 100,
      "data": "0x",
      "r": "0x7fa1c883d17515a6382ecdcaf4bd68a168e0f643d8de11ff5a6c58ec54a4d272",
      "s": "0x7f7a2f1522fd3de235326c50438053e7bb171f949c72147e859f26decaceede4",
      "v": 27,
      "creates": null,
      "raw": "0xf86e6485e8d4a5100083015f909400818287ff6ba78a461d21bd5832891592dc6c6b8901b04b07f5d16b0000801ba07fa1c883d17515a6382ecdcaf4bd68a168e0f643d8de11ff5a6c58ec54a4d272a07f7a2f1522fd3de235326c50438053e7bb171f949c72147e859f26decaceede4",
      "networkId": 0,
      "chainId": 0
    },
    {
      "hash": "0x54464b4594e5c0f5659e13f923b94cfd2a426a37d36122d579ecf48782d65e1b",
      "blockHash": "0x4ae14730e32a9ed63a3f562447df1f49c55b984e2101072805ea80533019da7a",
      "blockNumber": 61753,
      "transactionIndex": 1,
      "confirmations": null,
      "from": "0x120A270bbC009644e35F0bB6ab13f95b8199c4ad",
      "gasPrice": {
        "_hex": "0xdc4935e6e"
      },
      "gasLimit": {
        "_hex": "0x15f90"
      },
      "to": "0x26eAB902725342208bC79c5Bfa2C5fE795f7aeD6",
      "value": {
        "_hex": "0x1d7d843dc3b480000"
      },
      "nonce": 84,
      "data": "0x",
      "r": "0xa3dfe569375ab63961e124d3ae15d1f6b5da9c0cf96a185281fe1c5e70ca0391",
      "s": "0x4f52d785cb678a7219373736ac164af5ca5c9f07a9f75e484638f8d4a0cc41ac",
      "v": 27,
      "creates": null,
      "raw": "0xf86e54850dc4935e6e83015f909426eab902725342208bc79c5bfa2c5fe795f7aed68901d7d843dc3b480000801ba0a3dfe569375ab63961e124d3ae15d1f6b5da9c0cf96a185281fe1c5e70ca0391a04f52d785cb678a7219373736ac164af5ca5c9f07a9f75e484638f8d4a0cc41ac",
      "networkId": 0,
      "chainId": 0
    },
    {
      "hash": "0xcab6c4ab8c0d229ee562d07508a1680f404bd5f21878288aba2cf0a4f8ca48f2",
      "blockHash": "0x4ae14730e32a9ed63a3f562447df1f49c55b984e2101072805ea80533019da7a",
      "blockNumber": 61753,
      "transactionIndex": 2,
      "confirmations": null,
      "from": "0xF5aEe728E007c16CB640e38E0161CFEaf783f0c4",
      "gasPrice": {
        "_hex": "0xdad4090c6"
      },
      "gasLimit": {
        "_hex": "0x5208"
      },
      "to": "0x32Be343B94f860124dC4fEe278FDCBD38C102D88",
      "value": {
        "_hex": "0x5d80226ecfd744000"
      },
      "nonce": 0,
      "data": "0x",
      "r": "0xe28c52a105edf45f69fa316d8da11164453487d585f93f8fd2c1436771aee1e8",
      "s": "0x30105461b29d5ea3c7e080b66a6f0921a10bc72d617f9c1606e45f03664e99c6",
      "v": 28,
      "creates": null,
      "raw": "0xf86d80850dad4090c68252089432be343b94f860124dc4fee278fdcbd38c102d888905d80226ecfd744000801ca0e28c52a105edf45f69fa316d8da11164453487d585f93f8fd2c1436771aee1e8a030105461b29d5ea3c7e080b66a6f0921a10bc72d617f9c1606e45f03664e99c6",
      "networkId": 0,
      "chainId": 0
    }
  ]
}