{
  "hash": "0x0dbeeb65161162654c19d5b3b5ebb18b3913959a838eae93647e3ba2a8aac29a",
  "parentHash": "0x4f1d17641fd5b196a5ebae6ae3fcd53e1602d4938f01e17e49d45062114d8551",
  "number": 89784,
  "timestamp": 1439629088,
  "nonce": "0x8164eddc1542a951",
  "difficulty": 3338607265194,
  "gasLimit": {
    "_hex": "0x2fefd8"
  },
  "gasUsed": {
    "_hex": "0x1ec30"
  },
  "miner": "0x26E3f7C9e444f2Ca9E0BE2aF841bd060cF1CbDDb",
  "extraData": "0x476574682f76312e302e312f6c696e75782f676f312e342e32",
  "transactions": [
    {
      "hash": "0x0294195f21510e2ed6db165b177de03e42534381ae148e61153091b58e1edf4f",
      "blockHash": "0x0dbeeb65161162654c19d5b3b5ebb18b3913959a838eae93647e3ba2a8aac29a",
      "blockNumber": 89784,
      "transactionIndex": 0,
      "confirmations": null,
      "from": "0xFD6B6e67d15931706d607e2358A1b0aA05f8e256",
      "gasPrice": {
        "_hex": "0xd6a5b7e1a"
      },
      "gasLimit": {
        "_hex": "0x5208"
      },
      "to": "0x32Be343B94f860124dC4fEe278FDCBD38C102D88",
      "value": {
        "_hex": "0x27d55b03f0b54400"
      },
      "nonce": 1,
      "data": "0x",
      "r": "0x9403751c34aa1b98953e00f7364c78621f005dfa30f6aa9b864a5e971eac5081",
      "s": "0x5fed026422cc68e5c72eaa71e4536e86148cf4a8c65e3b9e58fc908b2c8b7c38",
      "v": 27,
      "creates": null,
      "raw": "0xf86c01850d6a5b7e1a8252089432be343b94f860124dc4fee278fdcbd38c102d888827d55b03f0b54400801ba09403751c34aa1b98953e00f7364c78621f005dfa30f6aa9b864a5e971eac5081a05fed026422cc68e5c72eaa71e4536e86148cf4a8c65e3b9e58fc908b2c8b7c38",
      "networkId": 0,
      "chainId": 0
    },
    {
      "hash": "0x89c8a447a549d2c3ece92e016a21f3883e15e6b164aa0670c46bb64d0307a1e8",
      "blockHash": "0x0dbeeb65161162654c19d5b3b5ebb18b3913959a838eae93647e3ba2a8aac29a",
      "blockNumber": 89784,
      "transactionIndex": 1,
      "confirmations": null,
      "from": "0x1d06b86EBBfD6bA717B6d14c0136dE1D88aa5989",
      "gasPrice": {
        "_hex": "0xd6a5b7e1a"
      },
      "gasLimit": {
        "_hex": "0x5208"
      },
      "to": "0x32Be343B94f860124dC4fEe278FDCBD38C102D88",
      "value": {
        "_hex": "0x22f2d32593c5e800"
      },
      "nonce": 3,
      "data": "0x",
      "r": "0xc4007f6058da69aa5c17eff2b99d58abf6df92d4f38a0936917cc358e6272635",
      "s": "0x57d233a070872d72d5b64e0685316de3aa65adf58b9d7d128720fa520d09a7e4",
      "v": 27,
      "creates": null,
      "raw": "0xf86c03850d6a5b7e1a8252089432be343b94f860124dc4fee278fdcbd38c102d888822f2d32593c5e800801ba0c4007f6058da69aa5c17eff2b99d58abf6df92d4f38a0936917cc358e6272635a057d233a070872d72d5b64e0685316de3aa65adf58b9d7d128720fa520d09a7e4",
      "networkId": 0,
      "chainId": 0
    },
    {
      "hash": "0x7823385bb15039c1dcb772d80afcf119a03c667271554a5bc5f7f7d00def6b59",
      "blockHash": "0x0dbeeb65161162654c19d5b3b5ebb18b3913959a838eae93647e3ba2a8aac29a",
      "blockNumber": 89784,
      "transactionIndex": 2,
      "confirmations": null,
      "from": "0x0f36D8B9254f1B059d0B4c4FeEceB82EE24a6180",
      "gasPrice": {
        "_hex": "0xd6a5b7e1a"
      },
      "gasLimit": {
        "_hex": "0x5208"
      },
      "to": "0x32Be343B94f860124dC4fEe278FDCBD38C102D88",
      "value": {
        "_hex": "0xf0d94b0417ca400"
      },
      "nonce": 0,
      "data": "0x",
      "r": "0x98add3482875ea0614a9db28846246cc6ac8a814c3f5375915996407caf995f3",
      "s": "0x26fad02a9ce754243274f27bd706558345fb95e381ad063ae99a016d44c93341",
      "v": 27,
      "creates": null,
      "raw": "0xf86c80850d6a5b7e1a8252089432be343b94f860124dc4fee278fdcbd38c102d88880f0d94b0417ca400801ba098add3482875ea0614a9db28846246cc6ac8a814c3f5375915996407caf995f3a026fad02a9ce754243274f27bd706558345fb95e381ad063ae99a016d44c93341",
      "networkId": 0,
      "chainId": 0
    },
    {
      "hash": "0x4d64c42842d2441e688580114db5213c55a96d48b141fd943b7bdae502019ff9",
      "blockHash": "0x0dbeeb65161162654c19d5b3b5ebb18b3913959a838eae93647e3ba2a8aac29a",
      "blockNumber": 89784,
      "transactionIndex": 3,
      "confirmations": null,
      "from": "0x3D1d22d2A05a3E9b3792561f2FF5f8D879352d6c",
      "gasPrice": {
        "_hex": "0xd6a5b7e1a"
      },
      "gasLimit": {
        "_hex": "0x5208"
      },
      "to": "0x32Be343B94f860124dC4fEe278FDCBD38C102D88",
      "value": {
        "_hex": "0x1b908ffa19553800"
      },
      "nonce": 2,
      "data": "0x",
      "r": "0x6fc6f59bf8b86db70c2f398ea430daeb9f45f9ae3b6aebf577c3836acd6ab98b",
      "s": "0x2489f5b7424464ef9e30a73bb2c4636ce7438767df80a6256c80958cb9e728d9",
      "v": 28,
      "creates": null,
      "raw": "0xf86c02850d6a5b7e1a8252089432be343b94f860124dc4fee278fdcbd38c102d88881b908ffa19553800801ca06fc6f59bf8b86db70c2f398ea430daeb9f45f9ae3b6aebf577c3836acd6ab98ba02489f5b7424464ef9e30a73bb2c4636ce7438767df80a6256c80958cb9e728d9",
      "networkId": 0,
      "chainId": 0
    },
    {
      "hash": "0x9f12a03b0e105784699541e074900ccce7bb0cdb3424cd69afc6a61aee59b63e",
      "blockHash": "0x0dbeeb65161162654c19d5b3b5ebb18b3913959a838eae93647e3ba2a8aac29a",
      "blockNumber": 89784,
      "transactionIndex": 4,
      "confirmations": null,
      "from": "0xe6A7a1d47ff21B6321162AEA7C6CB457D5476Bca",
      "gasPrice": {
        "_hex": "0xce661339c"
      },
      "gasLimit": {
        "_hex": "0x55f0"
      },
      "to": "0x6589D22b54648e5D67Dc008eBd0c836D3DF39c87",
      "value": {
        "_hex": "0x6f266cc53c611bc0"
      },
      "nonce": 2237,
      "data": "0x",
      "r": "0x7ad163934024752883010d9c2524a81bf7c6ecf42f4c6d136b099306109c5d12",
      "s": "0x115594cc1e5f4975d8c023cb8fb7ffd5779cd18932c61a1b0ee88cbde6f2d676",
      "v": 27,
      "creates": null,
      "raw": "0xf86e8208bd850ce661339c8255f0946589d22b54648e5d67dc008ebd0c836d3df39c87886f266cc53c611bc0801ba07ad163934024752883010d9c2524a81bf7c6ecf42f4c6d136b099306109c5d12a0115594cc1e5f4975d8c023cb8fb7ffd5779cd18932c61a1b0ee88cbde6f2d676",
      "networkId": 0,
      "chainId": 0
    },
    {
      "hash": "0x296a1d4e41c9ddb9c87e5cc02b15c7ab6d3b2571f1e899ba8a57f604f88d5527",
      "blockHash": "0x0dbeeb65161162654c19d5b3b5ebb18b3913959a838eae93647e3ba2a8aac29a",
      "blockNumber": 89784,
      "transactionIndex": 5,
      "confirmations": null,
      "from": "0xe6A7a1d47ff21B6321162AEA7C6CB457D5476Bca",
      "gasPrice": {
        "_hex": "0xce661339c"
      },
      "gasLimit": {
        "_hex": "0x55f0"
      },
      "to": "0x796C24bD0325fc7d33BE618526173a8f4D5083Ce",
      "value": {
        "_hex": "0x6ff1ba25e676fd18"
      },
      "nonce": 2238,
      "data": "0x",
      "r": "0x0d475e97b9eef7256bba0688e5d6ce2ebdba00f5ed738214ce9c53df736948e5",
      "s": "0x397fb3c6ed7f1aefe13dc4087243745b140029203e60ed0c7ff473046c15827e",
      "v": 27,
      "creates": null,
      "raw": "0xf86e8208be850ce661339c8255f094796c24bd0325fc7d33be618526173a8f4d5083ce886ff1ba25e676fd18801ba00d475e97b9eef7256bba0688e5d6ce2ebdba00f5ed738214ce9c53df736948e5a0397fb3c6ed7f1aefe13dc4087243745b140029203e60ed0c7ff473046c15827e",
      "networkId": 0,
      "chainId": 0
    }
  ]
}