{
  "hash": "0x46616d77ca54ac542ffdb8e6dfd1d1cf8d3c3fbb6fc12c18791e782f994e6e9e",
  "parentHash": "0x928565d424751da1378d7519bd04d4d59d0bd86979a570658a09e0ba212d6093",
  "number": 100599,
  "timestamp": 1439809116,
  "nonce": "0xb487771da987c862",
  "difficulty": 3820934264111,
  "gasLimit": {
    "_hex": "0x2fefd8"
  },
  "gasUsed": {
    "_hex": "0x5208"
  },
  "miner": "0xe6A7a1d47ff21B6321162AEA7C6CB457D5476Bca",
  "extraData": "0x476574682f76312e302e312d38326566323666362f6c696e75782f676f312e34",
  "transactions": [
    {
      "hash": "0x0011e751b874bf5c045cffac8a5c77195b2f83b4cdda612f1de9a889778faf27",
      "blockHash": "0x46616d77ca54ac542ffdb8e6dfd1d1cf8d3c3fbb6fc12c18791e782f994e6e9e",
      "blockNumber": 100599,
      "transactionIndex": 0,
      "confirmations": null,
      "from": "0xe70361D11B44B2fBA997417D7AAa26eb69EBfef0",
      "gasPrice": {
        "_hex": "0xda3a091d3"
      },
      "gasLimit": {
        "_hex": "0x5208"
      },
      "to": "0x32Be343B94f860124dC4fEe278FDCBD38C102D88",
      "value": {
        "_hex": "0x1abbf117e8e6ca000"
      },
      "nonce": 5,
      "data": "0x",
      "r": "0x357e849ba19384176d4b813a8dd346de5c57aba8213a9accf5ad39ef08da591c",
      "s": "0x133bd9db41cc88daade9c816d35fac4ab6c7d23c2b037223daf0dcd27bdf2015",
      "v": 28,
      "creates": null,
      "raw": "0xf86d05850da3a091d38252089432be343b94f860124dc4fee278fdcbd38c102d888901abbf117e8e6ca000801ca0357e849ba19384176d4b813a8dd346de5c57aba8213a9accf5ad39ef08da591ca0133bd9db41cc88daade9c816d35fac4ab6c7d23c2b037223daf0dcd27bdf2015",
      "networkId": 0,
      "chainId": 0
    }
  ]
}