{
  "hash": "0xe4937e657b0046c61508638dc0ffe0bab4cc6bdcbb7510e459129bf1cab2c102",
  "parentHash": "0xaac17038a201bed398eaf2013bd9b27f2581e3011c3f436a6d52c4d933afd2dc",
  "number": 97147,
  "timestamp": 1439751611,
  "nonce": "0x34479fc5b95834d6",
  "difficulty": 3752235463652,
  "gasLimit": {
    "_hex": "0x2fefd8"
  },
  "gasUsed": {
    "_hex": "0x5208"
  },
  "miner": "0xe6A7a1d47ff21B6321162AEA7C6CB457D5476Bca",
  "extraData": "0x476574682f76312e302e312d38326566323666362f6c696e75782f676f312e34",
  "transactions": [
    {
      "hash": "0x0a58962b17ea5959bbfcfdb0c2b2c0da186dc5beb309a562d3dd7055a5ae4372",
      "blockHash": "0xe4937e657b0046c61508638dc0ffe0bab4cc6bdcbb7510e459129bf1cab2c102",
      "blockNumber": 97147,
      "transactionIndex": 0,
      "confirmations": null,
      "from": "0x2910543Af39abA0Cd09dBb2D50200b3E800A63D2",
      "gasPrice": {
        "_hex": "0xdc292d89d"
      },
      "gasLimit": {
        "_hex": "0x5208"
      },
      "to": "0xEdD03B3afA58aaE8C5732fF58e26099bc5C10659",
      "value": {
        "_hex": "0x9d3583e7ab00ef8000"
      },
      "nonce": 918,
      "data": "0x",
      "r": "0xf7a8a0f61334f3384f0c21c1cf7ceeaf85e557a75c6ccfc87729b2e2bca32c85",
      "s": "0x178aa606ba897844dcb4adcd9bd8da7169628800c3fca3966f463ab50ef34699",
      "v": 28,
      "creates": null,
      "raw": "0xf86f820396850dc292d89d82520894edd03b3afa58aae8c5732ff58e26099bc5c10659899d3583e7ab00ef8000801ca0f7a8a0f61334f3384f0c21c1cf7ceeaf85e557a75c6ccfc87729b2e2bca32c85a0178aa606ba897844dcb4adcd9bd8da7169628800c3fca3966f463ab50ef34699",
      "networkId": 0,
      "chainId": 0
    }
  ]
}