{
  "hash": "0x3095e7f4e4840a0f21b303aa342575b3176ec094e2e51d5a97d62e4f721d9c08",
  "parentHash": "0x74820d545cdfc6afc1d5ba2f02b22d705924bbea43f25bc133992b84792f0ecd",
  "number": 64989,
  "timestamp": 1439229525,
  "nonce": "0x9d8065040e2c87b0",
  "difficulty": 1914444405373,
  "gasLimit": {
    "_hex": "0x2fefd8"
  },
  "gasUsed": {
    "_hex": "0xa410"
  },
  "miner": "0xE4BA8cF48d11D4cd54fba46C5331b5477DbF5539",
  "extraData": "0x476574682f76312e302e312f77696e646f77732f676f312e342e32",
  "transactions": [
    {
      "hash": "0x38560e1e1097de41271edd5c8a36dc2f72061e3e32593b57a667324c7c803248",
      "blockHash": "0x3095e7f4e4840a0f21b303aa342575b3176ec094e2e51d5a97d62e4f721d9c08",
      "blockNumber": 64989,
      "transactionIndex": 0,
      "confirmations": null,
      "from": "0xd5F1282Ac81119947Fa8a0E20833fF45165Ae8C2",
      "gasPrice": {
        "_hex": "0xba43b7400"
      },
      "gasLimit": {
        "_hex": "0x5208"
      },
      "to": "0xb86dA052B31F0d4e34Fb29d900109675eBBC05b9",
      "value": {
        "_hex": "0x205aea81b969000"
      },
      "nonce": 1,
      "data": "0x",
      "r": "0xf75cb7ed88b8c53ed71bf480e35f4051b0aabc41ae2b113ec549c69a5f80ba9f",
      "s": "0x4d58fde07430d556a51f72b207342973577f977d12d05e73a066e51ba75375b9",
      "v": 27,
      "creates": null,
      "raw": "0xf86c01850ba43b740082520894b86da052b31f0d4e34fb29d900109675ebbc05b9880205aea81b969000801ba0f75cb7ed88b8c53ed71bf480e35f4051b0aabc41ae2b113ec549c69a5f80ba9fa04d58fde07430d556a51f72b207342973577f977d12d05e73a066e51ba75375b9",
      "networkId": 0,
      "chainId": 0
    },
    {
      "hash": "0x236ce2de4d9a72470c64594a15c39f41174d66aa4497332c978c0c936e1b7549",
      "blockHash": "0x3095e7f4e4840a0f21b303aa342575b3176ec094e2e51d5a97d62e4f721d9c08",
      "blockNumber": 64989,
      "transactionIndex": 1,
      "confirmations": null,
      "from": "0xb31a3B3d607B972e8DC8bd1c1F890C52047DcE05",
      "gasPrice": {
        "_hex": "0xba43b7400"
      },
      "gasLimit": {
        "_hex": "0x5208"
      },
      "to": "0x097792D1ded393098D05f199457Be3E8A5B77E6E",
      "value": {
        "_hex": "0x2623b5b81d85000"
      },
      "nonce": 1,
      "data": "0x",
      "r": "0x7dca358b2f1d9f7b20ce45c97ce4f63f2cdc0c33e266ca08239d1aa3f8c46780",
      "s": "0x711742079bcccc50d248aa4980cb1dae52b6232dff447dae89ce6104aa474290",
      "v": 28,
      "creates": null,
      "raw": "0xf86c01850ba43b740082520894097792d1ded393098d05f199457be3e8a5b77e6e8802623b5b81d85000801ca07dca358b2f1d9f7b20ce45c97ce4f63f2cdc0c33e266ca08239d1aa3f8c46780a0711742079bcccc50d248aa4980cb1dae52b6232dff447dae89ce6104aa474290",
      "networkId": 0,
      "chainId": 0
    }
  ]
}