{
  "hash": "0x396df345f41c02d8748f5d71620b698701c9b514a06ab922485b9b3a6631e066",
  "parentHash": "0x7793f07f687220093b671d6a551e6b87d3ec6e106bff0fa52095845e99d80a60",
  "number": 92193,
  "timestamp": 1439668416,
  "nonce": "0xb5760e3cc8003c97",
  "difficulty": 3468911236914,
  "gasLimit": {
    "_hex": "0x2fefd8"
  },
  "gasUsed": {
    "_hex": "0xa8d8"
  },
  "miner": "0x790b8a3cE86E707ED0eD32bF89B3269692a23CC1",
  "extraData": "0xd783010001844765746887676f312e342e32856c696e7578",
  "transactions": [
    {
      "hash": "0xa2bf3cd298ebe9fe50f256ea113c9b3fb0162baf8c235c0b7052ad5c45622bae",
      "blockHash": "0x396df345f41c02d8748f5d71620b698701c9b514a06ab922485b9b3a6631e066",
      "blockNumber": 92193,
      "transactionIndex": 0,
      "confirmations": null,
      "from": "0x0a9ab2638B1CFd654d25DAB018A0aeBdDf85fd55",
      "gasPrice": {
        "_hex": "0x110c8f7d8de"
      },
      "gasLimit": {
        "_hex": "0xc350"
      },
      "to": "0x2910543Af39abA0Cd09dBb2D50200b3E800A63D2",
      "value": {
        "_hex": "0x18fae27693b40000"
      },
      "nonce": 0,
      "data": "0x454e38575a41464b47",
      "r": "0x2551f54f36ac8e163b268da4fa26114d993b7cfa0320bdd33c4bf28eb4142c03",
      "s": "0x135e3160e41b1f9f39fe6cf15cb6c325d384d24b614bcf67aff339cb49402ad3",
      "v": 27,
      "creates": null,
      "raw": "0xf87680860110c8f7d8de82c350942910543af39aba0cd09dbb2d50200b3e800a63d28818fae27693b4000089454e38575a41464b471ba02551f54f36ac8e163b268da4fa26114d993b7cfa0320bdd33c4bf28eb4142c03a0135e3160e41b1f9f39fe6cf15cb6c325d384d24b614bcf67aff339cb49402ad3",
      "networkId": 0,
      "chainId": 0
    },
    {
      "hash": "0x90027ab1caac6d163799fdbb2f7ce0ec859a700f186634f3519ff260553d2e79",
      "blockHash": "0x396df345f41c02d8748f5d71620b698701c9b514a06ab922485b9b3a6631e066",
      "blockNumber": 92193,
      "transactionIndex": 1,
      "confirmations": null,
      "from": "0xf8E0CA3Ed80bd541b94BEdCf259e8CF2141A9523",
      "gasPrice": {
        "_hex": "0xd21b85ea1"
      },
      "gasLimit": {
        "_hex": "0x15f90"
      },
      "to": "0x42979fca296FEA2C163EA66E1900acDe7886F86F",
      "value": {
        "_hex": "0x3635c9adc5dea00000"
      },
      "nonce": 10,
      "data": "0x454e433933464b3330",
      "r": "0x5f7b90cdcf10cffc1c668667e9ea2e3a8088836275042db4ccaba43e7837f14f",
      "s": "0x5e4caf32eacbff16a647a31d53b7c974269bda3bcec0a86515d407529e25dec4",
      "v": 28,
      "creates": null,
      "raw": "0xf8770a850d21b85ea183015f909442979fca296fea2c163ea66e1900acde7886f86f893635c9adc5dea0000089454e433933464b33301ca05f7b90cdcf10cffc1c668667e9ea2e3a8088836275042db4ccaba43e7837f14fa05e4caf32eacbff16a647a31d53b7c974269bda3bcec0a86515d407529e25dec4",
      "networkId": 0,
      "chainId": 0
    }
  ]
}