{
  "hash": "0xaca90c5c62e0cea1e62056997e07a04913f6ddd46532dfc9b6dac0f90de7be81",
  "parentHash": "0x4a63afd914095d367eb071fba046b9e1a629f6aaac798f1084cf8294cbd35fa4",
  "number": 84217,
  "timestamp": 1439546521,
  "nonce": "0xc656fd9e92784646",
  "difficulty": 2527950147443,
  "gasLimit": {
    "_hex": "0x2fefd8"
  },
  "gasUsed": {
    "_hex": "0x5208"
  },
  "miner": "0x580992B51e3925e23280EfB93d3047C82f17E038",
  "extraData": "0x476574682f76312e302e312f6c696e75782f676f312e342e32",
  "transactions": [
    {
      "hash": "0x9f271321bb1bf76640653415c3e4f855fcc7677814dd67bbd96c473cff4d797e",
      "blockHash": "0xaca90c5c62e0cea1e62056997e07a04913f6ddd46532dfc9b6dac0f90de7be81",
      "blockNumber": 84217,
      "transactionIndex": 0,
      "confirmations": null,
      "from": "0x4b0424c09BaC4Ee3f4376f1D3fA354E8Cb2D3171",
      "gasPrice": {
        "_hex": "0xcf667d51d"
      },
      "gasLimit": {
        "_hex": "0x15f90"
      },
      "to": "0x34d34F0a638F6991e4E2536F41295DF6E934A646",
      "value": {
        "_hex": "0x41eb63d55b1b0000"
      },
      "nonce": 8,
      "data": "0x",
      "r": "0xb72fde98366858227f2f619942bdf5f4ffed252e48b176545d45a218ec0240f7",
      "s": "0x19c744b883ef2bd5c708c6d3e4a45f4e266a1718dd93f5d3dc907cc6fdebcd29",
      "v": 28,
      "creates": null,
      "raw": "0xf86d08850cf667d51d83015f909434d34f0a638f6991e4e2536f41295df6e934a6468841eb63d55b1b0000801ca0b72fde98366858227f2f619942bdf5f4ffed252e48b176545d45a218ec0240f7a019c744b883ef2bd5c708c6d3e4a45f4e266a1718dd93f5d3dc907cc6fdebcd29",
      "networkId": 0,
      "chainId": 0
    }
  ]
}