{
  "hash": "0x8ef7d088c494f78ddbb80d2613788187ce5c2e68cd312a10da2f103eb74f7afb",
  "parentHash": "0x6e54c142d2057409439f6e09e0a57acd09b028f6e31220d3cc71f004c4b44687",
  "number": 62669,
  "timestamp": 1439192401,
  "nonce": "0xe52c18fca9ca9dfc",
  "difficulty": 1769332664235,
  "gasLimit": {
    "_hex": "0x2fefd8"
  },
  "gasUsed": {
    "_hex": "0x2ec54"
  },
  "miner": "0xbb7B8287f3F0a933474a79eAe42CBCa977791171",
  "extraData": "0x476574682f4c5649562f76312e302e312f6c696e75782f676f312e342e32",
  "transactions": [
    {
      "hash": "0xbae8dbb2c2a0995b53f699af032f4b7e103232e202a3d0e52173e52acfb267e1",
      "blockHash": "0x8ef7d088c494f78ddbb80d2613788187ce5c2e68cd312a10da2f103eb74f7afb",
      "blockNumber": 62669,
      "transactionIndex": 0,
      "confirmations": null,
      "from": "0xFc39Be41094b1997D2169E8264c2C3BAA6c99bc4",
      "gasPrice": {
        "_hex": "0x116334000ae"
      },
      "gasLimit": {
        "_hex": "0x7a120"
      },
      "to": "0xfBc128067A2FE13C11BBC6cc55f29AA1F27630DA",
      "value": {
        "_hex": "0xde0b6b3a7640000"
      },
      "nonce": 5,
      "data": "0x",
      "r": "0x249700254b89cf5c483574c11af8d1096add1011053449df884c28b862c57521",
      "s": "0x270768721a7de5289785174f46265080f8157acd461b0339bbc8319a7f76f90f",
      "v": 28,
      "creates": null,
      "raw": "0xf86e05860116334000ae8307a12094fbc128067a2fe13c11bbc6cc55f29aa1f27630da880de0b6b3a7640000801ca0249700254b89cf5c483574c11af8d1096add1011053449df884c28b862c57521a0270768721a7de5289785174f46265080f8157acd461b0339bbc8319a7f76f90f",
      "networkId": 0,
      "chainId": 0
    }
  ]
}