{
  "hash": "0xfdfd3687758b3ed77a439b90433838d99643543dafc316d907f7ec52563c455f",
  "parentHash": "0x55ea9a279cfbd6e0bd58f85718d665adf0f26ed46c9e0f6a71bbc240c353d049",
  "number": 88939,
  "timestamp": 1439615828,
  "nonce": "0x6e1564c267a5c85a",
  "difficulty": 3247295291851,
  "gasLimit": {
    "_hex": "0x2fefd8"
  },
  "gasUsed": {
    "_hex": "0x5208"
  },
  "miner": "0x1217627fe41A00f0b828317F43E6d58F47dBfc43",
  "extraData": "0x476574682f76312e302e302d66313265303136312f6c696e75782f676f312e34",
  "transactions": [
    {
      "hash": "0xe36006b1c264f02311300bba933a95986219ae5e3b95f57c9860065c72384fe5",
      "blockHash": "0xfdfd3687758b3ed77a439b90433838d99643543dafc316d907f7ec52563c455f",
      "blockNumber": 88939,
      "transactionIndex": 0,
      "confirmations": null,
      "from": "0x120A270bbC009644e35F0bB6ab13f95b8199c4ad",
      "gasPrice": {
        "_hex": "0xd05084bbe"
      },
      "gasLimit": {
        "_hex": "0x3d090"
      },
      "to": "0x14009AbabEd54f8E39466887572cd666D742655A",
      "value": {
        "_hex": "0x2590cbd6ec71f8000"
      },
      "nonce": 522,
      "data": "0x",
      "r": "0xd790acbed9107daefc5204c2c3e1492812003b6726818d3d68eae1e3e648008e",
      "s": "0x5fcca1395123bf2b011406ec340ea73b28ae6e5b08a83db310dfacf02b54fc8f",
      "v": 27,
      "creates": null,
      "raw": "0xf87082020a850d05084bbe8303d0909414009ababed54f8e39466887572cd666d742655a8902590cbd6ec71f8000801ba0d790acbed9107daefc5204c2c3e1492812003b6726818d3d68eae1e3e648008ea05fcca1395123bf2b011406ec340ea73b28ae6e5b08a83db310dfacf02b54fc8f",
      "networkId": 0,
      "chainId": 0
    }
  ]
}