{
  "hash": "0x450782cd68cadffd0ddaeddafe701f492d771184cd9e6e38723d2fdc6d584b71",
  "parentHash": "0xcd6f4ac2e2d758bbbb8c9e9c47865f7dcfe88e529846c1be0c21462d0b25aa6d",
  "number": 84550,
  "timestamp": 1439551236,
  "nonce": "0x405a6da0be56c0ec",
  "difficulty": 2571421616997,
  "gasLimit": {
    "_hex": "0x2fefd8"
  },
  "gasUsed": {
    "_hex": "0x5208"
  },
  "miner": "0x85804C279425A6403f00cC9C4b7045dC0CA2F82E",
  "extraData": "0x",
  "transactions": [
    {
      "hash": "0x5f59c207665e4f72fda09e0d3255eea19b17c2e0f96ff5e22ae7fd8fded2af7a",
      "blockHash": "0x450782cd68cadffd0ddaeddafe701f492d771184cd9e6e38723d2fdc6d584b71",
      "blockNumber": 84550,
      "transactionIndex": 0,
      "confirmations": null,
      "from": "0xc597A5d92F5dC1137D847db733cfe02c6d209f13",
      "gasPrice": {
        "_hex": "0xd91c9a6b1"
      },
      "gasLimit": {
        "_hex": "0x15f90"
      },
      "to": "0xcEC7cbc5E0CFF86b17C8ea0382EeE6D0b39665c6",
      "value": {
        "_hex": "0xa30455982304c00"
      },
      "nonce": 23,
      "data": "0x",
      "r": "0xe4c2d8f76ae800d966955507425ecab131d99f19d10116cf3009f9628874e7a1",
      "s": "0x3cd641891e416126acba96d7cbb265f5bd4e7571594fd35807683cdb21052fa0",
      "v": 28,
      "creates": null,
      "raw": "0xf86d17850d91c9a6b183015f9094cec7cbc5e0cff86b17c8ea0382eee6d0b39665c6880a30455982304c00801ca0e4c2d8f76ae800d966955507425ecab131d99f19d10116cf3009f9628874e7a1a03cd641891e416126acba96d7cbb265f5bd4e7571594fd35807683cdb21052fa0",
      "networkId": 0,
      "chainId": 0
    }
  ]
}