{
  "hash": "0x6cb6b72ff0b3bc48977f82060997e60fc330f2fe0a08ae0df91ae6e5ab3d67de",
  "parentHash": "0x62cd9d4e56c38fd231a44974a47ee58e3c4e7352e1bac594b5ce83eea92a192e",
  "number": 79750,
  "timestamp": 1439474513,
  "nonce": "0xdcd0a7b0f1dddb6e",
  "difficulty": 2351814956289,
  "gasLimit": {
    "_hex": "0x2fefd8"
  },
  "gasUsed": {
    "_hex": "0x5208"
  },
  "miner": "0xe6A7a1d47ff21B6321162AEA7C6CB457D5476Bca",
  "extraData": "0x476574682f76312e302e312d38326566323666362f6c696e75782f676f312e34",
  "transactions": [
    {
      "hash": "0xd3047a833bf92620fcd0e9e266d947c7f0e86d00efbf0a323d176fde23082845",
      "blockHash": "0x6cb6b72ff0b3bc48977f82060997e60fc330f2fe0a08ae0df91ae6e5ab3d67de",
      "blockNumber": 79750,
      "transactionIndex": 0,
      "confirmations": null,
      "from": "0x7126C13239472F9B469f7C3BB3749ACd775f2568",
      "gasPrice": {
        "_hex": "0xd9fb09086"
      },
      "gasLimit": {
        "_hex": "0x15f90"
      },
      "to": "0x8eE1192c99eEaDB7a174a5Fdc09e8E7421d2b6cf",
      "value": {
        "_hex": "0x2ff7111020f1a0000"
      },
      "nonce": 1,
      "data": "0x",
      "r": "0xba02a144edf6f94ca7c220fac1b89e151e844acdfa24fd5b79cbf4e6e963e670",
      "s": "0x066f146d89c5e668a4c25d44f40f55398370145b4c31682a6d6a544b98df51b8",
      "v": 28,
      "creates": null,
      "raw": "0xf86e01850d9fb0908683015f90948ee1192c99eeadb7a174a5fdc09e8e7421d2b6cf8902ff7111020f1a0000801ca0ba02a144edf6f94ca7c220fac1b89e151e844acdfa24fd5b79cbf4e6e963e670a0066f146d89c5e668a4c25d44f40f55398370145b4c31682a6d6a544b98df51b8",
      "networkId": 0,
      "chainId": 0
    }
  ]
}