{
  "hash": "0x84bdb77d62dc162a415f0f58ccf60688ca49e72e1626115a8d1230dcd75ca30a",
  "parentHash": "0x6ffb701a5b3a899f50547f97b0ac8034fee1df6a9d9adec663fd2181caa8c085",
  "number": 50796,
  "timestamp": 1438994707,
  "nonce": "0x01b138b55483e287",
  "difficulty": 1547690631541,
  "gasLimit": {
    "_hex": "0x789c4"
  },
  "gasUsed": {
    "_hex": "0x13005"
  },
  "miner": "0x1D889aFF5D57138c9819412d63b5d877567B5936",
  "extraData": "0x476574682f76312e302e312f77696e646f77732f676f312e342e32",
  "transactions": [
    {
      "hash": "0x729b211eb9e4a70c5737e7319e210c47bf411eec7f3279ee78ff25e2da0215ee",
      "blockHash": "0x84bdb77d62dc162a415f0f58ccf60688ca49e72e1626115a8d1230dcd75ca30a",
      "blockNumber": 50796,
      "transactionIndex": 0,
      "confirmations": null,
      "from": "0x2ddF40905769BcC426CB2c2938ffE077e1E89D98",
      "gasPrice": {
        "_hex": "0xdf8475800"
      },
      "gasLimit": {
        "_hex": "0x5208"
      },
      "to": "0xE52F3039aE6D54885703588D0F8726596022ff9D",
      "value": {
        "_hex": "0xb6139a7cbd20000"
      },
      "nonce": 3,
      "data": "0x",
      "r": "0xd2beb94c8328046133dbec307fbbdc019785d4f92fd9310a07af1d198fad60f6",
      "s": "0x0f8ef727f89e1da317f72b8a5cf333ec7abee3f9f63c1fdcfdef4f73b8961a0c",
      "v": 28,
      "creates": null,
      "raw": "0xf86c03850df847580082520894e52f3039ae6d54885703588d0f8726596022ff9d880b6139a7cbd20000801ca0d2beb94c8328046133dbec307fbbdc019785d4f92fd9310a07af1d198fad60f6a00f8ef727f89e1da317f72b8a5cf333ec7abee3f9f63c1fdcfdef4f73b8961a0c",
      "networkId": 0,
      "chainId": 0
    },
    {
      "hash": "0xe557c20e121f181866016a061ea4714d50dd143bd21fed482df7683061c1d537",
      "blockHash": "0x84bdb77d62dc162a415f0f58ccf60688ca49e72e1626115a8d1230dcd75ca30a",
      "blockNumber": 50796,
      "transactionIndex": 1,
      "confirmations": null,
      "from": "0xCE09fD3E23b65BaD12809190a19b6BFCFfD48c35",
      "gasPrice": {
        "_hex": "0xdcec87d29"
      },
      "gasLimit": {
        "_hex": "0x3d090"
      },
      "to": "0x109C4f2CCc82C4d77Bde15F306707320294Aea3F",
      "value": {
        "_hex": "0xde0b6b3a7640000"
      },
      "nonce": 0,
      "data": "0x",
      "r": "0xb9bcf3faa798cae83bfceaef2b94035b61753039c58373abdf88ddace825698f",
      "s": "0x36f53f20b5da18741453cfceb2d0a7879b35cecb5aa35243dd43c9224970b355",
      "v": 27,
      "creates": null,
      "raw": "0xf86d80850dcec87d298303d09094109c4f2ccc82c4d77bde15f306707320294aea3f880de0b6b3a7640000801ba0b9bcf3faa798cae83bfceaef2b94035b61753039c58373abdf88ddace825698fa036f53f20b5da18741453cfceb2d0a7879b35cecb5aa35243dd43c9224970b355",
      "networkId": 0,
      "chainId": 0
    }
  ]
}