{
  "hash": "0xd1c985d0e560b5889768dffd315a25d5b47f871d7386a612a96e16e35639ddfe",
  "parentHash": "0x751c351ca3e968ce794c988fec6c22a0ffe83e49a7ad678e07c9805528c45a71",
  "number": 75363,
  "timestamp": 1439402139,
  "nonce": "0xccb44227d1ff37a6",
  "difficulty": 2190068832523,
  "gasLimit": {
    "_hex": "0x2fefd8"
  },
  "gasUsed": {
    "_hex": "0xad77"
  },
  "miner": "0xe6A7a1d47ff21B6321162AEA7C6CB457D5476Bca",
  "extraData": "0x476574682f76312e302e312d38326566323666362f6c696e75782f676f312e34",
  "transactions": [
    {
      "hash": "0x197e54e6924974f0b41c475e273c8202fc7e786b111f84903d48df60e4c13b49",
      "blockHash": "0xd1c985d0e560b5889768dffd315a25d5b47f871d7386a612a96e16e35639ddfe",
      "blockNumber": 75363,
      "transactionIndex": 0,
      "confirmations": null,
      "from": "0x87C5B5874A18B4306DF8a752a6C8cc3E82daFc19",
      "gasPrice": {
        "_hex": "0x1012c70c22e"
      },
      "gasLimit": {
        "_hex": "0x493e0"
      },
      "to": "0xD79B4C6791784184e2755B2fC1659eaaB0f80456",
      "value": {
        "_hex": "0x0"
      },
      "nonce": 44,
      "data": "0x03750d940000000000000000000000000c7a4e5c8aca4ff0c9655edd175f82fef48f17173231343339313463653737356338623700000000000000000000000000000000",
      "r": "0x38a82fff3cb2ed8f505d5039ed01330c26045278800f2ce1cf3e9f2ae9a9a8da",
      "s": "0x17ab07655078d37d944f933fb953cc4e399ebed16ed4dc59d6592f5ad46da624",
      "v": 28,
      "creates": null,
      "raw": "0xf8ab2c8601012c70c22e830493e094d79b4c6791784184e2755b2fc1659eaab0f8045680b84403750d940000000000000000000000000c7a4e5c8aca4ff0c9655edd175f82fef48f171732313433393134636537373563386237000000000000000000000000000000001ca038a82fff3cb2ed8f505d5039ed01330c26045278800f2ce1cf3e9f2ae9a9a8daa017ab07655078d37d944f933fb953cc4e399ebed16ed4dc59d6592f5ad46da624",
      "networkId": 0,
      "chainId": 0
    }
  ]
}