{
  "hash": "0x7feef42baed9d7b417ae8f1b29f5be8d75cd0a4272afe196439aeaec0d934bbb",
  "parentHash": "0xa7acf574352edc21057781347503568538d56093c85aebb6f3cd0f241e6ca764",
  "number": 64828,
  "timestamp": 1439226866,
  "nonce": "0x31ea422d777bd799",
  "difficulty": 1902367168252,
  "gasLimit": {
    "_hex": "0x2fefd8"
  },
  "gasUsed": {
    "_hex": "0x55c8"
  },
  "miner": "0xf8E0CA3Ed80bd541b94BEdCf259e8CF2141A9523",
  "extraData": "0x476574682f76312e302e312f77696e646f77732f676f312e342e32",
  "transactions": [
    {
      "hash": "0xbc891ecf7c69d346828c1e4ad756100bbc2ebb84a52b41b995301823fd925590",
      "blockHash": "0x7feef42baed9d7b417ae8f1b29f5be8d75cd0a4272afe196439aeaec0d934bbb",
      "blockNumber": 64828,
      "transactionIndex": 0,
      "confirmations": null,
      "from": "0x57a81b1F363e2868d9669a659e437Fb9e1C5fCAd",
      "gasPrice": {
        "_hex": "0x9184e72a000"
      },
      "gasLimit": {
        "_hex": "0x5ec4"
      },
      "to": "0x0000000000000000000000000000000000000000",
      "value": {
        "_hex": "0x0"
      },
      "nonce": 0,
      "data": "0x72656769737465720000000000000000000000000000000000000000000000005246560000000000000000000000000000000000000000000000000000000000",
      "r": "0x1b24d93939fd5a08f5fdedfa9859c8a2886365666b6ce7741bc5173ef5fc77f2",
      "s": "0x4a238fcdf0e3e4567d272d93d851bf0767cff40302b597e5babf5540c22f06c3",
      "v": 28,
      "creates": null,
      "raw": "0xf8a6808609184e72a000825ec494000000000000000000000000000000000000000080b840726567697374657200000000000000000000000000000000000000000000000052465600000000000000000000000000000000000000000000000000000000001ca01b24d93939fd5a08f5fdedfa9859c8a2886365666b6ce7741bc5173ef5fc77f2a04a238fcdf0e3e4567d272d93d851bf0767cff40302b597e5babf5540c22f06c3",
      "networkId": 0,
      "chainId": 0
    }
  ]
}