{
  "hash": "0xe6b786e0fd872163398652e1a97fd29163e17b7dc6f42be0dc7d342c3ae90a83",
  "parentHash": "0x563da671b8d570f937c2d52321ac75770162907aa5ab824c1a4db4b495734f4c",
  "number": 111498,
  "timestamp": 1439991127,
  "nonce": "0x841b5be8b7ff51d3",
  "difficulty": 4454794227675,
  "gasLimit": {
    "_hex": "0x2fefd8"
  },
  "gasUsed": {
    "_hex": "0x5208"
  },
  "miner": "0xe6A7a1d47ff21B6321162AEA7C6CB457D5476Bca",
  "extraData": "0x476574682f76312e302e312d38326566323666362f6c696e75782f676f312e34",
  "transactions": [
    {
      "hash": "0x7bc226c3cab73a26f52f5d65281bc9877f4b9d8a022563ececa7fcbe0f0d76da",
      "blockHash": "0xe6b786e0fd872163398652e1a97fd29163e17b7dc6f42be0dc7d342c3ae90a83",
      "blockNumber": 111498,
      "transactionIndex": 0,
      "confirmations": null,
      "from": "0x65553f5e8FA2eDfCe37Aec51A90ed28777dDe402",
      "gasPrice": {
        "_hex": "0xdd132efb2"
      },
      "gasLimit": {
        "_hex": "0x5208"
      },
      "to": "0xFBb1b73C4f0BDa4f67dcA266ce6Ef42f520fBB98",
      "value": {
        "_hex": "0x22426b73ba0a6fe70"
      },
      "nonce": 4,
      "data": "0x",
      "r": "0x81f4abfc6b5f76362ce26d65890de8b7087fe89656f83549a3bf152b37cf8800",
      "s": "0x0e2b562ab9ff5c25628e9659a55e7d7b3135e4d1356c87f5f763d44cb1d3e1bc",
      "v": 28,
      "creates": null,
      "raw": "0xf86d04850dd132efb282520894fbb1b73c4f0bda4f67dca266ce6ef42f520fbb9889022426b73ba0a6fe70801ca081f4abfc6b5f76362ce26d65890de8b7087fe89656f83549a3bf152b37cf8800a00e2b562ab9ff5c25628e9659a55e7d7b3135e4d1356c87f5f763d44cb1d3e1bc",
      "networkId": 0,
      "chainId": 0
    }
  ]
}