{
  "hash": "0x94c2575973d03581394326e5d30b4fd42f74163d49dd7a80316961c8a479f86b",
  "parentHash": "0x828d581aa3068235448610d52b2377ceb1bc66b4f9403e0f8189af09f696d36a",
  "number": 67143,
  "timestamp": 1439266685,
  "nonce": "0x0173eea553283ee3",
  "difficulty": 1927081368451,
  "gasLimit": {
    "_hex": "0x2fefd8"
  },
  "gasUsed": {
    "_hex": "0x5208"
  },
  "miner": "0xF7e66D2622220807d8696064E94ca24b1dC6e7Da",
  "extraData": "0x",
  "transactions": [
    {
      "hash": "0xd7bcba21ab0ffa86be6dff5b884045b81c52612a651378baa42886a17d3397f0",
      "blockHash": "0x94c2575973d03581394326e5d30b4fd42f74163d49dd7a80316961c8a479f86b",
      "blockNumber": 67143,
      "transactionIndex": 0,
      "confirmations": null,
      "from": "0x0d187496799a43E7c43e4324026E32d1Dc80D8E4",
      "gasPrice": {
        "_hex": "0x746a528800"
      },
      "gasLimit": {
        "_hex": "0x5b04"
      },
      "to": "0x5a0f0935E8E5591B2f9f2d55f29C626B50292088",
      "value": {
        "_hex": "0xaadec983fcff40000"
      },
      "nonce": 1,
      "data": "0x",
      "r": "0x458fb1566a69f1ff75eee0069f267aa4706f5e6c87562c2dc3e57eaf00d01108",
      "s": "0x580d6c4a36e20dbb1ebe65d2c58318fabe983140b44ba2b5bdcdc3f377a0add0",
      "v": 28,
      "creates": null,
      "raw": "0xf86d0185746a528800825b04945a0f0935e8e5591b2f9f2d55f29c626b50292088890aadec983fcff40000801ca0458fb1566a69f1ff75eee0069f267aa4706f5e6c87562c2dc3e57eaf00d01108a0580d6c4a36e20dbb1ebe65d2c58318fabe983140b44ba2b5bdcdc3f377a0add0",
      "networkId": 0,
      "chainId": 0
    }
  ]
}