{
  "hash": "0xaf01ce827008d1a1ee157ddb06866bc7e01a9375d1bdd637f192893393c13471",
  "parentHash": "0x7e65057d794440377f0fc2505083f298975ae1345c0ed31d3768d129d246bec5",
  "number": 68425,
  "timestamp": 1439287671,
  "nonce": "0xbe2ed0243eb89f3e",
  "difficulty": 2013348192529,
  "gasLimit": {
    "_hex": "0x2fefd8"
  },
  "gasUsed": {
    "_hex": "0xe185"
  },
  "miner": "0x39A1BB80a741bF5EC39FB9BE59408Fa0F418fFBf",
  "extraData": "0x476574682f76312e302e312f77696e646f77732f676f312e342e32",
  "transactions": [
    {
      "hash": "0xb8ce46e64f5fbaec38073e592e00bce29f17cbcccc3e88e29c3f67163787e619",
      "blockHash": "0xaf01ce827008d1a1ee157ddb06866bc7e01a9375d1bdd637f192893393c13471",
      "blockNumber": 68425,
      "transactionIndex": 0,
      "confirmations": null,
      "from": "0x063dD253C8da4EA9b12105781C9611b8297F5d14",
      "gasPrice": {
        "_hex": "0xe074a4ac4"
      },
      "gasLimit": {
        "_hex": "0x249f0"
      },
      "to": "0xde0B295669a9FD93d5F28D9Ec85E40f4cb697BAe",
      "value": {
        "_hex": "0x0"
      },
      "nonce": 1,
      "data": "0xf00d4b5d00000000000000000000000005096a47749d8bfab0a90c1bb7a95115dbe4cea60000000000000000000000005ed8cee6b63b1c6afce3ad7c92f4fd7e1b8fad9f",
      "r": "0x572080a100277d7024c7bc2bb38f1bb11b7bc20ae628b8443ba8205bc37fe49e",
      "s": "0x482c2c6e56bdf86ef10e94d8c5e383249001820d1583044f540b4aff5d7b482e",
      "v": 27,
      "creates": null,
      "raw": "0xf8aa01850e074a4ac4830249f094de0b295669a9fd93d5f28d9ec85e40f4cb697bae80b844f00d4b5d00000000000000000000000005096a47749d8bfab0a90c1bb7a95115dbe4cea60000000000000000000000005ed8cee6b63b1c6afce3ad7c92f4fd7e1b8fad9f1ba0572080a100277d7024c7bc2bb38f1bb11b7bc20ae628b8443ba8205bc37fe49ea0482c2c6e56bdf86ef10e94d8c5e383249001820d1583044f540b4aff5d7b482e",
      "networkId": 0,
      "chainId": 0
    },
    {
      "hash": "0x4dd21074b918f648eb4830f3d57197a7b4141da16a4ca26a6fe15977bf836075",
      "blockHash": "0xaf01ce827008d1a1ee157ddb06866bc7e01a9375d1bdd637f192893393c13471",
      "blockNumber": 68425,
      "transactionIndex": 1,
      "confirmations": null,
      "from": "0x10b7e66C734d624A2938C3531e269AE5DACC715C",
      "gasPrice": {
        "_hex": "0xba43b7400"
      },
      "gasLimit": {
        "_hex": "0x5208"
      },
      "to": "0xfBd83cCd7fCEf1D510264618Cea654e411871b8D",
      "value": {
        "_hex": "0x7c58ada8ff2000"
      },
      "nonce": 1,
      "data": "0x",
      "r": "0x23fc244645302db6a744f02e2215b3882b72b31f643fe2708befc43f757970cc",
      "s": "0x6e7dce92aa74fa3b8d00959ecf4daa84401a2d4bdfefd4fe480cc1590db3510a",
      "v": 28,
      "creates": null,
      "raw": "0xf86b01850ba43b740082520894fbd83ccd7fcef1d510264618cea654e411871b8d877c58ada8ff2000801ca023fc244645302db6a744f02e2215b3882b72b31f643fe2708befc43f757970cca06e7dce92aa74fa3b8d00959ecf4daa84401a2d4bdfefd4fe480cc1590db3510a",
      "networkId": 0,
      "chainId": 0
    }
  ]
}