{
  "hash": "0x0213ed5c5c8ae228f4db21acb185516aabe0b863c0cf5b3c99a960379b448072",
  "parentHash": "0xf98d76df8094e316590c6d8d3ecca9786304c8ca001ada0bf65ec845daa82e4a",
  "number": 75107,
  "timestamp": 1439397723,
  "nonce": "0xb39cfb121f968185",
  "difficulty": 2192275518368,
  "gasLimit": {
    "_hex": "0x2fefd8"
  },
  "gasUsed": {
    "_hex": "0x15187"
  },
  "miner": "0xf927a40C8B7F6E07c5af7FA2155B4864a4112B13",
  "extraData": "0x",
  "transactions": [
    {
      "hash": "0x897e2abd75a46333b59a83df02c0d495d7c8fc1ec25056d1b3f9f9416200dd8c",
      "blockHash": "0x0213ed5c5c8ae228f4db21acb185516aabe0b863c0cf5b3c99a960379b448072",
      "blockNumber": 75107,
      "transactionIndex": 0,
      "confirmations": null,
      "from": "0x87C5B5874A18B4306DF8a752a6C8cc3E82daFc19",
      "gasPrice": {
        "_hex": "0x112c6e025b7"
      },
      "gasLimit": {
        "_hex": "0x493e0"
      },
      "to": "0xD79B4C6791784184e2755B2fC1659eaaB0f80456",
      "value": {
        "_hex": "0x0"
      },
      "nonce": 31,
      "data": "0x03750d940000000000000000000000004e9a1252fe231b0be60e07c1dae03eef0c9c9d473738343366626235626632303538363600000000000000000000000000000000",
      "r": "0x532a72b7eeb7aef895b6ac6498d0ed6aceff52ff55d57d9387f19fba4a5f8f7a",
      "s": "0x582ea49d52f3dbe0bf588e400c407ec2fe8ac51ecb579b67c531a5923c4bb018",
      "v": 28,
      "creates": null,
      "raw": "0xf8ab1f860112c6e025b7830493e094d79b4c6791784184e2755b2fc1659eaab0f8045680b84403750d940000000000000000000000004e9a1252fe231b0be60e07c1dae03eef0c9c9d4737383433666262356266323035383636000000000000000000000000000000001ca0532a72b7eeb7aef895b6ac6498d0ed6aceff52ff55d57d9387f19fba4a5f8f7aa0582ea49d52f3dbe0bf588e400c407ec2fe8ac51ecb579b67c531a5923c4bb018",
      "networkId": 0,
      "chainId": 0
    },
    {
      "hash": "0xe048f64c9eab1d93ab701173bf81a176ab7e4139ccc5ca92208a590cc2105991",
      "blockHash": "0x0213ed5c5c8ae228f4db21acb185516aabe0b863c0cf5b3c99a960379b448072",
      "blockNumber": 75107,
      "transactionIndex": 1,
      "confirmations": null,
      "from": "0xa114c802ef29776f05f9c6925cE915232e8ae102",
      "gasPrice": {
        "_hex": "0xe292b50ce"
      },
      "gasLimit": {
        "_hex": "0x5208"
      },
      "to": "0x32Be343B94f860124dC4fEe278FDCBD38C102D88",
      "value": {
        "_hex": "0x455f07dffc81b400"
      },
      "nonce": 11,
      "data": "0x",
      "r": "0xc101a97fbbbc43fe4075b0630486293d3d46064697c1f2ff5aecd9bb15f52da6",
      "s": "0x194ca627edad2140aaa756bf212971f8861ec38534a92b046970c1f6877f5357",
      "v": 27,
      "creates": null,
      "raw": "0xf86c0b850e292b50ce8252089432be343b94f860124dc4fee278fdcbd38c102d8888455f07dffc81b400801ba0c101a97fbbbc43fe4075b0630486293d3d46064697c1f2ff5aecd9bb15f52da6a0194ca627edad2140aaa756bf212971f8861ec38534a92b046970c1f6877f5357",
      "networkId": 0,
      "chainId": 0
    },
    {
      "hash": "0xdb2cd31c67bc4ad9c283c83b2f7f1c07c3cb02aa6def5b1d86035b22089ea90f",
      "blockHash": "0x0213ed5c5c8ae228f4db21acb185516aabe0b863c0cf5b3c99a960379b448072",
      "blockNumber": 75107,
      "transactionIndex": 2,
      "confirmations": null,
      "from": "0x881067183D45A90A21F5AD90f313Acf29704C7a9",
      "gasPrice": {
        "_hex": "0xe292b50ce"
      },
      "gasLimit": {
        "_hex": "0x5208"
      },
      "to": "0x32Be343B94f860124dC4fEe278FDCBD38C102D88",
      "value": {
        "_hex": "0xa2a1588af66d080000"
      },
      "nonce": 1,
      "data": "0x",
      "r": "0xa5f407a714d645ad4777464ecf40c31c6f025070a64bde18a64047c15e359eb0",
      "s": "0x365de68b6e5a310bba726134523d0c875f921b9b6312632f4e719194b1ce70d2",
      "v": 27,
      "creates": null,
      "raw": "0xf86d01850e292b50ce8252089432be343b94f860124dc4fee278fdcbd38c102d8889a2a1588af66d080000801ba0a5f407a714d645ad4777464ecf40c31c6f025070a64bde18a64047c15e359eb0a0365de68b6e5a310bba726134523d0c875f921b9b6312632f4e719194b1ce70d2",
      "networkId": 0,
      "chainId": 0
    }
  ]
}