{
  "hash": "0xe266a7e192094130892dd779640e765a4b792bf25a3145ef89ed9d2ce91a6d88",
  "parentHash": "0x5b3962b907837ce247c4b6b5d2b2f039fc82e2999ee6b6cd78825d787bd70632",
  "number": 68510,
  "timestamp": 1439289163,
  "nonce": "0x3baf09b50c387b9f",
  "difficulty": 2004499571357,
  "gasLimit": {
    "_hex": "0x2fefd8"
  },
  "gasUsed": {
    "_hex": "0x52080"
  },
  "miner": "0x157c6f2431eB1a95797EE86F7d17b3c0FD47A247",
  "extraData": "0x476574682f76312e302e312f77696e646f77732f676f312e342e32",
  "transactions": [
    {
      "hash": "0x6f4deb0ec644e2e3d2806b154af0d0698cbda01f0aaffb8345d280d40a91e3c4",
      "blockHash": "0xe266a7e192094130892dd779640e765a4b792bf25a3145ef89ed9d2ce91a6d88",
      "blockNumber": 68510,
      "transactionIndex": 0,
      "confirmations": null,
      "from": "0x2CB041676092Af3590C3b992deD6bCFEF9e422A7",
      "gasPrice": {
        "_hex": "0xba43b7400"
      },
      "gasLimit": {
        "_hex": "0x5208"
      },
      "to": "0xB261a44AFfA63f1DDD1d584Ab1ACCC0471D361a4",
      "value": {
        "_hex": "0xaa9f075c200000"
      },
      "nonce": 1,
      "data": "0x",
      "r": "0x68e1b66313b2216013e99eb2dd910215cc96b5ad34e5e926cbad27c49f81bf1a",
      "s": "0x5399dbf7fc50ac4033d302abb1f0eff78ca506b58abb9ff4a14bfa717d9dacdd",
      "v": 28,
      "creates": null,
      "raw": "0xf86b01850ba43b740082520894b261a44affa63f1ddd1d584ab1accc0471d361a487aa9f075c200000801ca068e1b66313b2216013e99eb2dd910215cc96b5ad34e5e926cbad27c49f81bf1aa05399dbf7fc50ac4033d302abb1f0eff78ca506b58abb9ff4a14bfa717d9dacdd",
      "networkId": 0,
      "chainId": 0
    },
    {
      "hash": "0xd344a5ce5b3ac792829fc6e18fb5727e12c02e6f12e3e87ae799e3258114b989",
      "blockHash": "0xe266a7e192094130892dd779640e765a4b792bf25a3145ef89ed9d2ce91a6d88",
      "blockNumber": 68510,
      "transactionIndex": 1,
      "confirmations": null,
      "from": "0x408d29220b2dF46090F23ab1EFf61a3e7eD1dD24",
      "gasPrice": {
        "_hex": "0xba43b7400"
      },
      "gasLimit": {
        "_hex": "0x5208"
      },
      "to": "0x94DBc0615a05D32F698ce4FC90ee1Ec61bceF8Df",
      "value": {
        "_hex": "0xaa9f075c200000"
      },
      "nonce": 1,
      "data": "0x",
      "r": "0xd97e7f9d371b54f099265712f30d4a39444f69a95965f33a6c6b1d99b4ab4dda",
      "s": "0x32d5218744ec0f61bf09d30f8336042eda0b0d5e9164c277e42cfd5d4d538d86",
      "v": 27,
      "creates": null,
      "raw": "0xf86b01850ba43b74008252089494dbc0615a05d32f698ce4fc90ee1ec61bcef8df87aa9f075c200000801ba0d97e7f9d371b54f099265712f30d4a39444f69a95965f33a6c6b1d99b4ab4ddaa032d5218744ec0f61bf09d30f8336042eda0b0d5e9164c277e42cfd5d4d538d86",
      "networkId": 0,
      "chainId": 0
    },
    {
      "hash": "0xd192cace31472d6aa0933d4ff0e74c863055424983d1e12c1dd249af83a7bdd3",
      "blockHash": "0xe266a7e192094130892dd779640e765a4b792bf25a3145ef89ed9d2ce91a6d88",
      "blockNumber": 68510,
      "transactionIndex": 2,
      "confirmations": null,
      "from": "0x9cC6a77ee966f161E13B175347618fB7b551B789",
      "gasPrice": {
        "_hex": "0xba43b7400"
      },
      "gasLimit": {
        "_hex": "0x5208"
      },
      "to": "0x809516C8A73B83bF351e9e1F7466D17c7144bDb8",
      "value": {
        "_hex": "0xaa9f075c200000"
      },
      "nonce": 1,
      "data": "0x",
      "r": "0x270858eebdc04edf4d156ccf8ddf82ee15f1691cf9bf5444f8c9967281d14557",
      "s": "0x2453ba6bb33e09b5448bbe2a1fa44617376b88af219d33b11fc93e4cc4c659a7",
      "v": 27,
      "creates": null,
      "raw": "0xf86b01850ba43b740082520894809516c8a73b83bf351e9e1f7466d17c7144bdb887aa9f075c200000801ba0270858eebdc04edf4d156ccf8ddf82ee15f1691cf9bf5444f8c9967281d14557a02453ba6bb33e09b5448bbe2a1fa44617376b88af219d33b11fc93e4cc4c659a7",
      "networkId": 0,
      "chainId": 0
    },
    {
      "hash": "0x43ce731f33fdcb63129927e052aa88a8ee36dff4cd9c42e09eea356fa0104cdf",
      "blockHash": "0xe266a7e192094130892dd779640e765a4b792bf25a3145ef89ed9d2ce91a6d88",
      "blockNumber": 68510,
      "transactionIndex": 3,
      "confirmations": null,
      "from": "0x7fbe475cCC767007ea983772B6891326c2Db04A3",
      "gasPrice": {
        "_hex": "0xba43b7400"
      },
      "gasLimit": {
        "_hex": "0x5208"
      },
      "to": "0x58AD03a6C82170e75390aB68D238A88edE98a068",
      "value": {
        "_hex": "0xaa9f075c200000"
      },
      "nonce": 1,
      "data": "0x",
      "r": "0x374ac5d8642da29c4075f4569f93975912c2fc91e0f7d2b78d7aa8978b39dad1",
      "s": "0x780e064ae2276b84db8211d6fb702482e95c19f0f1df85ae703e54c7c6274741",
      "v": 27,
      "creates": null,
      "raw": "0xf86b01850ba43b74008252089458ad03a6c82170e75390ab68d238a88ede98a06887aa9f075c200000801ba0374ac5d8642da29c4075f4569f93975912c2fc91e0f7d2b78d7aa8978b39dad1a0780e064ae2276b84db8211d6fb702482e95c19f0f1df85ae703e54c7c6274741",
      "networkId": 0,
      "chainId": 0
    },
    {
      "hash": "0xb753f7c4f3396f7d37a4fabb8803e904ee4f3e4ebe772a94238a5aea3b7da710",
      "blockHash": "0xe266a7e192094130892dd779640e765a4b792bf25a3145ef89ed9d2ce91a6d88",
      "blockNumber": 68510,
      "transactionIndex": 4,
      "confirmations": null,
      "from": "0xc8ef51f333ffC599be0C92d2C63bc5203B6090Da",
      "gasPrice": {
        "_hex": "0xba43b7400"
      },
      "gasLimit": {
        "_hex": "0x5208"
      },
      "to": "0x72a9926161dB29FdC56D84d05b85C3ba0F68E647",
      "value": {
        "_hex": "0xaa9f075c200000"
      },
      "nonce": 1,
      "data": "0x",
      "r": "0xfed997e93fb6141e45ec9f2d793c738b7e4e4d34abbbdeba7a6fa3c61018cf91",
      "s": "0x18de1997ca3378f482da76981f17a9614ed2cc3b6786e35d847e2b127ed147c1",
      "v": 28,
      "creates": null,
      "raw": "0xf86b01850ba43b74008252089472a9926161db29fdc56d84d05b85c3ba0f68e64787aa9f075c200000801ca0fed997e93fb6141e45ec9f2d793c738b7e4e4d34abbbdeba7a6fa3c61018cf91a018de1997ca3378f482da76981f17a9614ed2cc3b6786e35d847e2b127ed147c1",
      "networkId": 0,
      "chainId": 0
    },
    {
      "hash": "0x3b2558999846ab4400e36c5355bcbabe5e65956ee8743fd9a36019928c64b483",
      "blockHash": "0xe266a7e192094130892dd779640e765a4b792bf25a3145ef89ed9d2ce91a6d88",
      "blockNumber": 68510,
      "transactionIndex": 5,
      "confirmations": null,
      "from": "0x10cAF5dF0dA6d9d3b87fC7a479cA360369aBcE5b",
      "gasPrice": {
        "_hex": "0xba43b7400"
      },
      "gasLimit": {
        "_hex": "0x5208"
      },
      "to": "0x544B0036689DB83D9671850D97e08273803D940c",
      "value": {
        "_hex": "0xaa9f075c200000"
      },
      "nonce": 1,
      "data": "0x",
      "r": "0x0409c61afd5463376dad411ea0f519e36ecae749550c9792e24b575aadd90eba",
      "s": "0x5c5a31ad0a01c06c165a20986bfa2d6471f70ad2dedbe24057f3f8ebb32e59fd",
      "v": 28,
      "creates": null,
      "raw": "0xf86b01850ba43b740082520894544b0036689db83d9671850d97e08273803d940c87aa9f075c200000801ca00409c61afd5463376dad411ea0f519e36ecae749550c9792e24b575aadd90ebaa05c5a31ad0a01c06c165a20986bfa2d6471f70ad2dedbe24057f3f8ebb32e59fd",
      "networkId": 0,
      "chainId": 0
    },
    {
      "hash": "0x2cf6dccbef100ab21ea874e6a199e8db5f872ebef471c8cdd6db7b74170c15ae",
      "blockHash": "0xe266a7e192094130892dd779640e765a4b792bf25a3145ef89ed9d2ce91a6d88",
      "blockNumber": 68510,
      "transactionIndex": 6,
      "confirmations": null,
      "from": "0xcEb5638F6Eaf9412ED05825FFF23da0Fd8f2f3A8",
      "gasPrice": {
        "_hex": "0xba43b7400"
      },
      "gasLimit": {
        "_hex": "0x5208"
      },
      "to": "0x240faA729706e51F8FB23ae71bd1D0518e1084ff",
      "value": {
        "_hex": "0xaa9f075c200000"
      },
      "nonce": 1,
      "data": "0x",
      "r": "0x4e42756891071780e9f25705bb97c37cc592d05252f2f8f0c2eb008efb844267",
      "s": "0x27950671bcbcf7a90227a880111fcf60e5ba6fac78750f83db3ceb7d83a7e260",
      "v": 28,
      "creates": null,
      "raw": "0xf86b01850ba43b740082520894240faa729706e51f8fb23ae71bd1d0518e1084ff87aa9f075c200000801ca04e42756891071780e9f25705bb97c37cc592d05252f2f8f0c2eb008efb844267a027950671bcbcf7a90227a880111fcf60e5ba6fac78750f83db3ceb7d83a7e260",
      "networkId": 0,
      "chainId": 0
    },
    {
      "hash": "0xa6061d568509c25c598dbc5657d138eadeba0145fc9ab2c78dbdbde88dc7a43e",
      "blockHash": "0xe266a7e192094130892dd779640e765a4b792bf25a3145ef89ed9d2ce91a6d88",
      "blockNumber": 68510,
      "transactionIndex": 7,
      "confirmations": null,
      "from": "0x4b032472f0401478d5DdBeb896Fe9110ee969019",
      "gasPrice": {
        "_hex": "0xba43b7400"
      },
      "gasLimit": {
        "_hex": "0x5208"
      },
      "to": "0x4F4c754135f52216b5328c89f378b916D865b560",
      "value": {
        "_hex": "0xaa9f075c200000"
      },
      "nonce": 1,
      "data": "0x",
      "r": "0x5253fba4312265dd30361fb808b5028ce998062584ccd0f88b032f97d0a5872f",
      "s": "0x339b5a361e9ad143bac8a5268bd90977d7c9406edab4eb2ca8acadcb072ae696",
      "v": 27,
      "creates": null,
      "raw": "0xf86b01850ba43b7400825208944f4c754135f52216b5328c89f378b916d865b56087aa9f075c200000801ba05253fba4312265dd30361fb808b5028ce998062584ccd0f88b032f97d0a5872fa0339b5a361e9ad143bac8a5268bd90977d7c9406edab4eb2ca8acadcb072ae696",
      "networkId": 0,
      "chainId": 0
    },
    {
      "hash": "0xcdccac1d4ee88319943e7ef72aa707eeaa6df6761a699fb4c7634deb2d422952",
      "blockHash": "0xe266a7e192094130892dd779640e765a4b792bf25a3145ef89ed9d2ce91a6d88",
      "blockNumber": 68510,
      "transactionIndex": 8,
      "confirmations": null,
      "from": "0x214E2E8FA77b87e4485Fcb10C6F1bfD13395CA27",
      "gasPrice": {
        "_hex": "0xba43b7400"
      },
      "gasLimit": {
        "_hex": "0x5208"
      },
      "to": "0x3Da4225Ad67e0E5729fF1beaa10BB6e41DDF31F7",
      "value": {
        "_hex": "0xaa9f075c200000"
      },
      "nonce": 1,
      "data": "0x",
      "r": "0x506af301e70b50c2b080efb09199a875a3dc57b1755634884b76effb5509e0ff",
      "s": "0x6e4f57caec5f93c99a8331a737dc0a53e1be74432d9e1677a4ac13ddf1c44f22",
      "v": 27,
      "creates": null,
      "raw": "0xf86b01850ba43b7400825208943da4225ad67e0e5729ff1beaa10bb6e41ddf31f787aa9f075c200000801ba0506af301e70b50c2b080efb09199a875a3dc57b1755634884b76effb5509e0ffa06e4f57caec5f93c99a8331a737dc0a53e1be74432d9e1677a4ac13ddf1c44f22",
      "networkId": 0,
      "chainId": 0
    },
    {
      "hash": "0x54d98b1030efb587b165be11f6eae2288c3995372f7cb4b3c49b885d85324bb9",
      "blockHash": "0xe266a7e192094130892dd779640e765a4b792bf25a3145ef89ed9d2ce91a6d88",
      "blockNumber": 68510,
      "transactionIndex": 9,
      "confirmations": null,
      "from": "0x67A745d2B7E681A661b256E1b88f5A78cB45eC16",
      "gasPrice": {
        "_hex": "0xba43b7400"
      },
      "gasLimit": {
        "_hex": "0x5208"
      },
      "to": "0x9E5af72b1d1FB6bDD9A3fD873CF6b425777b3667",
      "value": {
        "_hex": "0xaa9f075c200000"
      },
      "nonce": 1,
      "data": "0x",
      "r": "0x6673844aa79e870eed9d34db7e7d52748b1a45f3884384ae13911c0d23027d3a",
      "s": "0x1a05dcf9cd329096e0da7011ecfc5c4dec6eaf858827e0e2cb2706f97c7a8776",
      "v": 27,
      "creates": null,
      "raw": "0xf86b01850ba43b7400825208949e5af72b1d1fb6bdd9a3fd873cf6b425777b366787aa9f075c200000801ba06673844aa79e870eed9d34db7e7d52748b1a45f3884384ae13911c0d23027d3aa01a05dcf9cd329096e0da7011ecfc5c4dec6eaf858827e0e2cb2706f97c7a8776",
      "networkId": 0,
      "chainId": 0
    },
    {
      "hash": "0xdfcfe66154e7491beb85ff831f34c8b38c2a69a0cdad8ad03cf28f5743a94a2b",
      "blockHash": "0xe266a7e192094130892dd779640e765a4b792bf25a3145ef89ed9d2ce91a6d88",
      "blockNumber": 68510,
      "transactionIndex": 10,
      "confirmations": null,
      "from": "0xbbCa80d4DaA223b1BCd725DB4814c22F9B7E332e",
      "gasPrice": {
        "_hex": "0xba43b7400"
      },
      "gasLimit": {
        "_hex": "0x5208"
      },
      "to": "0xD846Ed89f81ecBE6B8737d000728c34b353a47c1",
      "value": {
        "_hex": "0xaa9f075c200000"
      },
      "nonce": 1,
      "data": "0x",
      "r": "0x1375904a4d376e54899be02e5176ed1aadbd3bb9278fc15d5807ea84e28900e0",
      "s": "0x7a971c41fd90e93731ac6dcf8da48773b1f013fd8f625b444d98ea57957f66a5",
      "v": 27,
      "creates": null,
      "raw": "0xf86b01850ba43b740082520894d846ed89f81ecbe6b8737d000728c34b353a47c187aa9f075c200000801ba01375904a4d376e54899be02e5176ed1aadbd3bb9278fc15d5807ea84e28900e0a07a971c41fd90e93731ac6dcf8da48773b1f013fd8f625b444d98ea57957f66a5",
      "networkId": 0,
      "chainId": 0
    },
    {
      "hash": "0x59fe5118a610dfdf6796907947b94a22dbf375e113d5349a2b4c2575d1d795a1",
      "blockHash": "0xe266a7e192094130892dd779640e765a4b792bf25a3145ef89ed9d2ce91a6d88",
      "blockNumber": 68510,
      "transactionIndex": 11,
      "confirmations": null,
      "from": "0x16EAF5D034f3c17f6FCC588636E0b313c4F297AD",
      "gasPrice": {
        "_hex": "0xba43b7400"
      },
      "gasLimit": {
        "_hex": "0x5208"
      },
      "to": "0x62aC65597bbc75C1f17777479424da1fB9120440",
      "value": {
        "_hex": "0xaa9f075c200000"
      },
      "nonce": 1,
      "data": "0x",
      "r": "0xe818032e934d2b363129ebff53ca521dae25877792189777ef513ffb1689fc21",
      "s": "0x4f87c803087c77f52b755a6dce54c76d000a851b365a4b4a393be0d8dac3df96",
      "v": 27,
      "creates": null,
      "raw": "0xf86b01850ba43b74008252089462ac65597bbc75c1f17777479424da1fb912044087aa9f075c200000801ba0e818032e934d2b363129ebff53ca521dae25877792189777ef513ffb1689fc21a04f87c803087c77f52b755a6dce54c76d000a851b365a4b4a393be0d8dac3df96",
      "networkId": 0,
      "chainId": 0
    },
    {
      "hash": "0x9f40bc4e3086e44726a156dc57f8cc1ae35fc71fe06ce41feb9ea609f51d85e8",
      "blockHash": "0xe266a7e192094130892dd779640e765a4b792bf25a3145ef89ed9d2ce91a6d88",
      "blockNumber": 68510,
      "transactionIndex": 12,
      "confirmations": null,
      "from": "0xf5dB5e9A98633A8b23717EB755099E34E4CdCeD4",
      "gasPrice": {
        "_hex": "0xba43b7400"
      },
      "gasLimit": {
        "_hex": "0x5208"
      },
      "to": "0x2D223fF6643f9E6DE2906d7171C539D20453c48C",
      "value": {
        "_hex": "0xaa9f075c200000"
      },
      "nonce": 1,
      "data": "0x",
      "r": "0x14071ac3e201bbb5d0f0cc4d7207028a4fc3d971f7a6e2a98b8378d7b82b3f1d",
      "s": "0x6407413ea8dfa6fa62ff765ca4e92531e8d6540af96654b6c7ed0a7658f3c9dd",
      "v": 28,
      "creates": null,
      "raw": "0xf86b01850ba43b7400825208942d223ff6643f9e6de2906d7171c539d20453c48c87aa9f075c200000801ca014071ac3e201bbb5d0f0cc4d7207028a4fc3d971f7a6e2a98b8378d7b82b3f1da06407413ea8dfa6fa62ff765ca4e92531e8d6540af96654b6c7ed0a7658f3c9dd",
      "networkId": 0,
      "chainId": 0
    },
    {
      "hash": "0x9b76005959d3fc7a57574b8ef57d7cba94a0a569f5f258331e1d9c3abde1afba",
      "blockHash": "0xe266a7e192094130892dd779640e765a4b792bf25a3145ef89ed9d2ce91a6d88",
      "blockNumber": 68510,
      "transactionIndex": 13,
      "confirmations": null,
      "from": "0x9732cbd1921eb809706dAd3d9D8D7f443af5805e",
      "gasPrice": {
        "_hex": "0xba43b7400"
      },
      "gasLimit": {
        "_hex": "0x5208"
      },
      "to": "0x0f474a5205155404aAc37D04494e5129224AD117",
      "value": {
        "_hex": "0xaa9f075c200000"
      },
      "nonce": 1,
      "data": "0x",
      "r": "0x9c789e475cc7ac67219f0077c2ffa83e19fd38d0f6517d13b718d04e98e8aa7f",
      "s": "0x32acb31c5cb17f2087a4836acb640ac33cae2351ca12a281a21087ba60e28b6e",
      "v": 28,
      "creates": null,
      "raw": "0xf86b01850ba43b7400825208940f474a5205155404aac37d04494e5129224ad11787aa9f075c200000801ca09c789e475cc7ac67219f0077c2ffa83e19fd38d0f6517d13b718d04e98e8aa7fa032acb31c5cb17f2087a4836acb640ac33cae2351ca12a281a21087ba60e28b6e",
      "networkId": 0,
      "chainId": 0
    },
    {
      "hash": "0x7754123378139bb68436369607c7e835a6d8221befb656a49358033f1e0ab5bc",
      "blockHash": "0xe266a7e192094130892dd779640e765a4b792bf25a3145ef89ed9d2ce91a6d88",
      "blockNumber": 68510,
      "transactionIndex": 14,
      "confirmations": null,
      "from": "0xAb37276D454e22Feb796b00396C376BB9de9B9e0",
      "gasPrice": {
        "_hex": "0xba43b7400"
      },
      "gasLimit": {
        "_hex": "0x5208"
      },
      "to": "0xb00961b542D43044B2cA6684ffa7F98Bc1567414",
      "value": {
        "_hex": "0xaa9f075c200000"
      },
      "nonce": 1,
      "data": "0x",
      "r": "0x46bfc3408a7e020c9f8c18adf086197ab4f84e76e149fb6eaa068d8f2b7541e0",
      "s": "0x389678cac201df2655c52b5db04d8d0208a0feca13338d0b7a33b007d0daa401",
      "v": 28,
      "creates": null,
      "raw": "0xf86b01850ba43b740082520894b00961b542d43044b2ca6684ffa7f98bc156741487aa9f075c200000801ca046bfc3408a7e020c9f8c18adf086197ab4f84e76e149fb6eaa068d8f2b7541e0a0389678cac201df2655c52b5db04d8d0208a0feca13338d0b7a33b007d0daa401",
      "networkId": 0,
      "chainId": 0
    },
    {
      "hash": "0x7577c4dc1acb7f352ab93b61bb5daf1a9dc2b8c14b231881042acaf5541e3415",
      "blockHash": "0xe266a7e192094130892dd779640e765a4b792bf25a3145ef89ed9d2ce91a6d88",
      "blockNumber": 68510,
      "transactionIndex": 15,
      "confirmations": null,
      "from": "0x95ED185c726Ba52cAD31fe7e166e2Fd941c2a0B2",
      "gasPrice": {
        "_hex": "0xba43b7400"
      },
      "gasLimit": {
        "_hex": "0x5208"
      },
      "to": "0x8961C9C9F9721021e63f9D4fAF987B0DdA50fe72",
      "value": {
        "_hex": "0xaa9f075c200000"
      },
      "nonce": 1,
      "data": "0x",
      "r": "0x8dba78be2b04fa15b96f45c98f8b0b420a87cffff0fa1a95b489dec2f51cf4de",
      "s": "0x1e134ab0019f1e40aa5d8be7e0ab8469ff16823b9abffaa31823f52abe5b57a1",
      "v": 28,
      "creates": null,
      "raw": "0xf86b01850ba43b7400825208948961c9c9f9721021e63f9d4faf987b0dda50fe7287aa9f075c200000801ca08dba78be2b04fa15b96f45c98f8b0b420a87cffff0fa1a95b489dec2f51cf4dea01e134ab0019f1e40aa5d8be7e0ab8469ff16823b9abffaa31823f52abe5b57a1",
      "networkId": 0,
      "chainId": 0
    }
  ]
}