{
  "hash": "0x9cf0e184fb0619a3c71fc6b06f9b346a11158dda6f418fd1cde1c806bf0216e6",
  "parentHash": "0xb54f215adb7d372859785ff44ad8c6c1e6b5f213e957f120005594b7ed7ebd33",
  "number": 103952,
  "timestamp": 1439861710,
  "nonce": "0x478d85617ffc4d45",
  "difficulty": 4267102852982,
  "gasLimit": {
    "_hex": "0x2fefd8"
  },
  "gasUsed": {
    "_hex": "0x5208"
  },
  "miner": "0xa50ec0D39fa913E62f1Bae7074E6F36caA71855b",
  "extraData": "0xd783010001844765746887676f312e342e32856c696e7578",
  "transactions": [
    {
      "hash": "0xcfeb07baf0f376b8ae9428d8dd7ef8aa2e35a5044e3708cec7bcc10188157a1a",
      "blockHash": "0x9cf0e184fb0619a3c71fc6b06f9b346a11158dda6f418fd1cde1c806bf0216e6",
      "blockNumber": 103952,
      "transactionIndex": 0,
      "confirmations": null,
      "from": "0xBbC2603925265f0e6830656B86bD7E43c1D4731E",
      "gasPrice": {
        "_hex": "0xe23ce4a87"
      },
      "gasLimit": {
        "_hex": "0x5208"
      },
      "to": "0x32Be343B94f860124dC4fEe278FDCBD38C102D88",
      "value": {
        "_hex": "0x3e9cd3c4a1fc820000"
      },
      "nonce": 1,
      "data": "0x",
      "r": "0x725d5a6e8d01ce651729b03257b926b6b31cba83889968647694c74a82845b93",
      "s": "0x624fda661908a69500b532867cd1ef8ba5fe422b03e13d45f579bc364d2a4ee8",
      "v": 28,
      "creates": null,
      "raw": "0xf86d01850e23ce4a878252089432be343b94f860124dc4fee278fdcbd38c102d88893e9cd3c4a1fc820000801ca0725d5a6e8d01ce651729b03257b926b6b31cba83889968647694c74a82845b93a0624fda661908a69500b532867cd1ef8ba5fe422b03e13d45f579bc364d2a4ee8",
      "networkId": 0,
      "chainId": 0
    }
  ]
}