{
  "hash": "0x119dd886ae265653df11cd00fcba534072391dd229eea712b0b24021e236a0bc",
  "parentHash": "0x075cd023c7a431861a5556db87e69b407318b52f7aabd7faf210542d6ae2ed24",
  "number": 86113,
  "timestamp": 1439573593,
  "nonce": "0xc2e5f6da66686b1f",
  "difficulty": 2811246715693,
  "gasLimit": {
    "_hex": "0x2fefd8"
  },
  "gasUsed": {
    "_hex": "0xf618"
  },
  "miner": "0xe6A7a1d47ff21B6321162AEA7C6CB457D5476Bca",
  "extraData": "0x476574682f76312e302e312d38326566323666362f6c696e75782f676f312e34",
  "transactions": [
    {
      "hash": "0xf6d9eed51ae4054ec72d504bba823914c14489d2498c13cdf02f115abf8a8b58",
      "blockHash": "0x119dd886ae265653df11cd00fcba534072391dd229eea712b0b24021e236a0bc",
      "blockNumber": 86113,
      "transactionIndex": 0,
      "confirmations": null,
      "from": "0xa114c802ef29776f05f9c6925cE915232e8ae102",
      "gasPrice": {
        "_hex": "0xdcb37e244"
      },
      "gasLimit": {
        "_hex": "0x5208"
      },
      "to": "0x32Be343B94f860124dC4fEe278FDCBD38C102D88",
      "value": {
        "_hex": "0x14d0cb5526eb79000"
      },
      "nonce": 18,
      "data": "0x",
      "r": "0x035d387913431992afa3d9f844538d75abdccf57b6fdbd5bcd0aced826f5d273",
      "s": "0x4e1fb8c7eac286153fd26bd30283705522765c8ed1804af72fcf5e6424d0d51f",
      "v": 27,
      "creates": null,
      "raw": "0xf86d12850dcb37e2448252089432be343b94f860124dc4fee278fdcbd38c102d8889014d0cb5526eb79000801ba0035d387913431992afa3d9f844538d75abdccf57b6fdbd5bcd0aced826f5d273a04e1fb8c7eac286153fd26bd30283705522765c8ed1804af72fcf5e6424d0d51f",
      "networkId": 0,
      "chainId": 0
    },
    {
      "hash": "0xce1ba15d25e96835c5048ac2e44b3e3f6823031e53fa1cbe12da30e1fe4f3a99",
      "blockHash": "0x119dd886ae265653df11cd00fcba534072391dd229eea712b0b24021e236a0bc",
      "blockNumber": 86113,
      "transactionIndex": 1,
      "confirmations": null,
      "from": "0x2aBD9e50d51e97aFc9a984f64657eD9539c59c91",
      "gasPrice": {
        "_hex": "0xdcb37e244"
      },
      "gasLimit": {
        "_hex": "0x5208"
      },
      "to": "0x32Be343B94f860124dC4fEe278FDCBD38C102D88",
      "value": {
        "_hex": "0x1a05522f32cf3d0000"
      },
      "nonce": 5,
      "data": "0x",
      "r": "0x9aa604424ea8c0af5e4df28d350caebaac40e636050f02eeed324b7b46f17d7c",
      "s": "0x58b7ca08790761cb4670f9cd051e2fb6bcd42664faf80c381b88543b60819e05",
      "v": 27,
      "creates": null,
      "raw": "0xf86d05850dcb37e2448252089432be343b94f860124dc4fee278fdcbd38c102d88891a05522f32cf3d0000801ba09aa604424ea8c0af5e4df28d350caebaac40e636050f02eeed324b7b46f17d7ca058b7ca08790761cb4670f9cd051e2fb6bcd42664faf80c381b88543b60819e05",
      "networkId": 0,
      "chainId": 0
    },
    {
      "hash": "0x3e17a6a787eb9d690c1625b1e65897cd815548dd0b1fd9a177fcaf9bcc7f8a68",
      "blockHash": "0x119dd886ae265653df11cd00fcba534072391dd229eea712b0b24021e236a0bc",
      "blockNumber": 86113,
      "transactionIndex": 2,
      "confirmations": null,
      "from": "0x79d5794171E11dd5C2f0e26E1C187319db2FE6f7",
      "gasPrice": {
        "_hex": "0xdcb37e244"
      },
      "gasLimit": {
        "_hex": "0x5208"
      },
      "to": "0x32Be343B94f860124dC4fEe278FDCBD38C102D88",
      "value": {
        "_hex": "0x3406419c710e9000"
      },
      "nonce": 26,
      "data": "0x",
      "r": "0x1db6ee34d6c0c178ccc020658af989a23a543d0ad9d6e932a5e444f5e4feebe1",
      "s": "0x2f89fcefd74410aee10f990b6aab9ac17d840c492a535d809b3758994bc8e8ed",
      "v": 28,
      "creates": null,
      "raw": "0xf86c1a850dcb37e2448252089432be343b94f860124dc4fee278fdcbd38c102d88883406419c710e9000801ca01db6ee34d6c0c178ccc020658af989a23a543d0ad9d6e932a5e444f5e4feebe1a02f89fcefd74410aee10f990b6aab9ac17d840c492a535d809b3758994bc8e8ed",
      "networkId": 0,
      "chainId": 0
    }
  ]
}