{
  "hash": "0xbbe2a9fbce1b49c992699bab77ff28de78260e1b66729cb76796c90537e690fb",
  "parentHash": "0x1bdd384eb1750753b4f39864fe2a926706a8ffba9d209ae1f70ea240d678d5a9",
  "number": 63248,
  "timestamp": 1439201541,
  "nonce": "0x831cfbd38a99c8ad",
  "difficulty": 1808515034176,
  "gasLimit": {
    "_hex": "0x2fe3fb"
  },
  "gasUsed": {
    "_hex": "0x546c"
  },
  "miner": "0xf8E0CA3Ed80bd541b94BEdCf259e8CF2141A9523",
  "extraData": "0x476574682f76312e302e312f77696e646f77732f676f312e342e32",
  "transactions": [
    {
      "hash": "0x01b7917ced425dc823ee10e538cea6b990f4155f75934f1dc874c27b0b5322f0",
      "blockHash": "0xbbe2a9fbce1b49c992699bab77ff28de78260e1b66729cb76796c90537e690fb",
      "blockNumber": 63248,
      "transactionIndex": 0,
      "confirmations": null,
      "from": "0x29C0024a99b44d481694cB5D98907a1343D390fD",
      "gasPrice": {
        "_hex": "0xcf43a0289"
      },
      "gasLimit": {
        "_hex": "0x55f0"
      },
      "to": "0x2910543Af39abA0Cd09dBb2D50200b3E800A63D2",
      "value": {
        "_hex": "0xd02ab486cedc0000"
      },
      "nonce": 3,
      "data": "0x454e4430314b485230",
      "r": "0xb7c86d5802c174b692b7b58346f5ed22a4e75007f3bfb42f4811c906a94ea4a2",
      "s": "0x38efae7939465f945b37a9347ee932f1b6580bd6fc197bb080ab72a28d12acb6",
      "v": 27,
      "creates": null,
      "raw": "0xf87503850cf43a02898255f0942910543af39aba0cd09dbb2d50200b3e800a63d288d02ab486cedc000089454e4430314b4852301ba0b7c86d5802c174b692b7b58346f5ed22a4e75007f3bfb42f4811c906a94ea4a2a038efae7939465f945b37a9347ee932f1b6580bd6fc197bb080ab72a28d12acb6",
      "networkId": 0,
      "chainId": 0
    }
  ]
}