{
  "hash": "0x507742e34e297b8594311c9381b8f70497cf13380d2484ac8879f705f95e10fd",
  "parentHash": "0x9bc6e12f6e6f0fcec76409fc84d59debc318525aa04c3dbf4c97ec6db5d6ca5d",
  "number": 84426,
  "timestamp": 1439549426,
  "nonce": "0x7d951e7b2ec6bb2d",
  "difficulty": 2571459627913,
  "gasLimit": {
    "_hex": "0x2fefd8"
  },
  "gasUsed": {
    "_hex": "0x5208"
  },
  "miner": "0x88D74a59454F6cF3B51ef6b9136AFb6b9D405A88",
  "extraData": "0x476574682f76312e302e312d37666266393930632f6c696e75782f676f312e34",
  "transactions": [
    {
      "hash": "0xd14387adbaa0d81ddce47935fde2ad66d27bb7817b587e382aff2f15dfb03733",
      "blockHash": "0x507742e34e297b8594311c9381b8f70497cf13380d2484ac8879f705f95e10fd",
      "blockNumber": 84426,
      "transactionIndex": 0,
      "confirmations": null,
      "from": "0xE30212B2011Bb56bdBf1BC35690F3a4E0Fd905EA",
      "gasPrice": {
        "_hex": "0xd23ee12e2"
      },
      "gasLimit": {
        "_hex": "0x15f90"
      },
      "to": "0xa9E3dE793dD570894Aadb48ce8990062Fd4bb5Bb",
      "value": {
        "_hex": "0x2386f26fc10000"
      },
      "nonce": 0,
      "data": "0x",
      "r": "0x9835c980e6967ad79b7d9b0b737af612e078f675c40ffc3aab2b58e57c677b5e",
      "s": "0x0b2a36d6295d7d81e090ebb0ae9c19db6dea4aae3172b5c8024054a483a7b2d2",
      "v": 27,
      "creates": null,
      "raw": "0xf86c80850d23ee12e283015f9094a9e3de793dd570894aadb48ce8990062fd4bb5bb872386f26fc10000801ba09835c980e6967ad79b7d9b0b737af612e078f675c40ffc3aab2b58e57c677b5ea00b2a36d6295d7d81e090ebb0ae9c19db6dea4aae3172b5c8024054a483a7b2d2",
      "networkId": 0,
      "chainId": 0
    }
  ]
}