{
  "hash": "0xda710a3986401f10b84fcfeae3ac4b481e3a997e0c8a0d60f103c534af4cd5d8",
  "parentHash": "0x49c51bbdd3c59f050df982f75c9bd21e04fb3a90a885acfce69cb27e1556414c",
  "number": 94200,
  "timestamp": 1439704189,
  "nonce": "0x7041e2cb7a33331f",
  "difficulty": 3479955464308,
  "gasLimit": {
    "_hex": "0x2fe3fa"
  },
  "gasUsed": {
    "_hex": "0xa410"
  },
  "miner": "0x6dED38803DA575897de5d51b7AEF3b86f35945A1",
  "extraData": "0x476574682f76312e302e312f6c696e75782f676f312e342e32",
  "transactions": [
    {
      "hash": "0x743832a784abd76015316ded5573e6dbb9d71db83bcf165882a5d80ebb940bc7",
      "blockHash": "0xda710a3986401f10b84fcfeae3ac4b481e3a997e0c8a0d60f103c534af4cd5d8",
      "blockNumber": 94200,
      "transactionIndex": 0,
      "confirmations": null,
      "from": "0x24C0B9E42a508F3cB1A66c03dEf2Baf4c4555a89",
      "gasPrice": {
        "_hex": "0xcdbccafa2"
      },
      "gasLimit": {
        "_hex": "0x5208"
      },
      "to": "0x32Be343B94f860124dC4fEe278FDCBD38C102D88",
      "value": {
        "_hex": "0x126c46b0bc2506000000"
      },
      "nonce": 5,
      "data": "0x",
      "r": "0x28b74ee998dcdac484c0766720d16004e2af7e0fb4a331415fb156002da628dd",
      "s": "0x30e2ed125837f1b71bd301200dce428738f6a998badbb5b48f19b0a6b4b63202",
      "v": 27,
      "creates": null,
      "raw": "0xf86e05850cdbccafa28252089432be343b94f860124dc4fee278fdcbd38c102d888a126c46b0bc2506000000801ba028b74ee998dcdac484c0766720d16004e2af7e0fb4a331415fb156002da628dda030e2ed125837f1b71bd301200dce428738f6a998badbb5b48f19b0a6b4b63202",
      "networkId": 0,
      "chainId": 0
    },
    {
      "hash": "0xc7aa643af0849cc0c3ec6aff8d2d6292ff7cc1e9783e71b2b4ba7130f328afbe",
      "blockHash": "0xda710a3986401f10b84fcfeae3ac4b481e3a997e0c8a0d60f103c534af4cd5d8",
      "blockNumber": 94200,
      "transactionIndex": 1,
      "confirmations": null,
      "from": "0x0A87bCDa651fF8811d1E497138251Ac0c7654547",
      "gasPrice": {
        "_hex": "0xcdbccafa2"
      },
      "gasLimit": {
        "_hex": "0x5208"
      },
      "to": "0x32Be343B94f860124dC4fEe278FDCBD38C102D88",
      "value": {
        "_hex": "0x80b7124898c83000000"
      },
      "nonce": 1,
      "data": "0x",
      "r": "0x3988692c22f8aa763e49122a31f17be43f60b4f20ce4feb420ac92d239b68bc3",
      "s": "0x31c12d42c9105fb72ad4cafee3328ec773a07f8cb9afd459f4401ab82f562138",
      "v": 27,
      "creates": null,
      "raw": "0xf86e01850cdbccafa28252089432be343b94f860124dc4fee278fdcbd38c102d888a080b7124898c83000000801ba03988692c22f8aa763e49122a31f17be43f60b4f20ce4feb420ac92d239b68bc3a031c12d42c9105fb72ad4cafee3328ec773a07f8cb9afd459f4401ab82f562138",
      "networkId": 0,
      "chainId": 0
    }
  ]
}