{
  "hash": "0x88a683745b0ff9a318ed52ccd30fdde30c9452f931e38f2045575a89e9e7ad47",
  "parentHash": "0xe99942d844166478726bac3ce02cd918da4bd84a001a7583a2826aa03809ea6a",
  "number": 80992,
  "timestamp": 1439494208,
  "nonce": "0xeffe3f72bfc15987",
  "difficulty": 2454708574649,
  "gasLimit": {
    "_hex": "0x2fefd8"
  },
  "gasUsed": {
    "_hex": "0x5208"
  },
  "miner": "0xf32866D5cE9a9b5673e076be48AbCd6ED48ADe78",
  "extraData": "0x476574682f76312e302e312d37666266393930632f6c696e75782f676f312e34",
  "transactions": [
    {
      "hash": "0x7979f4ce1edff8e8ec50c2ed592bc085433b42ddc48dea4741b63154961a0997",
      "blockHash": "0x88a683745b0ff9a318ed52ccd30fdde30c9452f931e38f2045575a89e9e7ad47",
      "blockNumber": 80992,
      "transactionIndex": 0,
      "confirmations": null,
      "from": "0xE54C51118A2Cc163BC4BDb7C653Ab45Fc179d928",
      "gasPrice": {
        "_hex": "0xba43b7400"
      },
      "gasLimit": {
        "_hex": "0x5208"
      },
      "to": "0xC47Aaa860008be6f65B58c6C6E02a84e666EfE31",
      "value": {
        "_hex": "0x4eeaf115d7c08c400"
      },
      "nonce": 4,
      "data": "0x",
      "r": "0xb8f63124cf57b6d4182b64ebbbf18e19d8110525a93368e587639001d30c636a",
      "s": "0x44d9be99c09591061b5122e7563b23a10a5261afb49f16f30da0b19ad4a11e3d",
      "v": 27,
      "creates": null,
      "raw": "0xf86d04850ba43b740082520894c47aaa860008be6f65b58c6c6e02a84e666efe318904eeaf115d7c08c400801ba0b8f63124cf57b6d4182b64ebbbf18e19d8110525a93368e587639001d30c636aa044d9be99c09591061b5122e7563b23a10a5261afb49f16f30da0b19ad4a11e3d",
      "networkId": 0,
      "chainId": 0
    }
  ]
}