{
  "hash": "0xf95ba8c8eee4afc8e9c188c213b07cfc19695e2b1cf3821b6057c0090669c279",
  "parentHash": "0x8a75ed16e0ef36cb3b4283da54bc4d9ab5c22fcf21eea33b68e4d7de5969c0f7",
  "number": 100689,
  "timestamp": 1439810603,
  "nonce": "0x91eff6721ea98be3",
  "difficulty": 3839595599878,
  "gasLimit": {
    "_hex": "0x2fefd8"
  },
  "gasUsed": {
    "_hex": "0x19a28"
  },
  "miner": "0x9746c7e1ef2bd21FF3997fa467593a89cb852BD0",
  "extraData": "0x476574682f76312e302e312f77696e646f77732f676f312e342e32",
  "transactions": [
    {
      "hash": "0xbeafec04e9df5b0644bd9cd55b0a140e1b2542a8aa5609978ecd3d10eba11134",
      "blockHash": "0xf95ba8c8eee4afc8e9c188c213b07cfc19695e2b1cf3821b6057c0090669c279",
      "blockNumber": 100689,
      "transactionIndex": 0,
      "confirmations": null,
      "from": "0x387D649ec193BBbADad77eAF0A42e0eA8c87448c",
      "gasPrice": {
        "_hex": "0x9184e72a000"
      },
      "gasLimit": {
        "_hex": "0x5b04"
      },
      "to": null,
      "value": {
        "_hex": "0x0"
      },
      "nonce": 2,
      "data": "0x",
      "r": "0x7794472764b21abdbee85a35c7116809bbf9621cc5596cdf1e8b46ec66abc37c",
      "s": "0xafa48252aeee6e86386911e972171e1a09423525c3dea5dfdc881c18d374db5a",
      "v": 28,
      "creates": "0xEb94bd9eAf26f033e32B33D1178Dd2B5B532271A",
      "raw": "0xf851028609184e72a000825b048080801ca07794472764b21abdbee85a35c7116809bbf9621cc5596cdf1e8b46ec66abc37ca0afa48252aeee6e86386911e972171e1a09423525c3dea5dfdc881c18d374db5a",
      "networkId": 0,
      "chainId": 0
    },
    {
      "hash": "0x71d404343d764f92a34d098bf08837793e99165e4b6fb08ce2fde7dc833beecb",
      "blockHash": "0xf95ba8c8eee4afc8e9c188c213b07cfc19695e2b1cf3821b6057c0090669c279",
      "blockNumber": 100689,
      "transactionIndex": 1,
      "confirmations": null,
      "from": "0x10c4712a317A10F60fE9347b199400d6BaA89558",
      "gasPrice": {
        "_hex": "0xdc9633f5a"
      },
      "gasLimit": {
        "_hex": "0x15f90"
      },
      "to": "0x5465B1c380c9D2446965E503EB731F08A30ecD25",
      "value": {
        "_hex": "0x6124fee993bc0000"
      },
      "nonce": 3,
      "data": "0x",
      "r": "0x1b92e0a7179356da5618a6764a1701c4f50f5c99035bd07c509e6e32a18e11e9",
      "s": "0x3fdc184afe25fdea647013402140fd226651672a2dad69711d66d2c4769f0156",
      "v": 28,
      "creates": null,
      "raw": "0xf86d03850dc9633f5a83015f90945465b1c380c9d2446965e503eb731f08a30ecd25886124fee993bc0000801ca01b92e0a7179356da5618a6764a1701c4f50f5c99035bd07c509e6e32a18e11e9a03fdc184afe25fdea647013402140fd226651672a2dad69711d66d2c4769f0156",
      "networkId": 0,
      "chainId": 0
    },
    {
      "hash": "0x7c17d1a50aa62a9704d6cf920f1a5ecc050efa79a24369ded7a8518f1bfff8f4",
      "blockHash": "0xf95ba8c8eee4afc8e9c188c213b07cfc19695e2b1cf3821b6057c0090669c279",
      "blockNumber": 100689,
      "transactionIndex": 2,
      "confirmations": null,
      "from": "0x1dbe45A9437978D7Bdc5D468e6be0988a71D153f",
      "gasPrice": {
        "_hex": "0xd1f217cbf"
      },
      "gasLimit": {
        "_hex": "0x15f90"
      },
      "to": "0x11AA265966dFdDfDC4fA42a83C305f6EcbE9588a",
      "value": {
        "_hex": "0x3782dace9d900000"
      },
      "nonce": 4,
      "data": "0x",
      "r": "0x8fe6bede1cec3bcb6706b491fd369f6b02d5c76b3ff70f82153a109a3589a5c0",
      "s": "0x44958c8198d34688264da60db608da7c9c104491aa40e6fcf5bc1ab93780ff08",
      "v": 27,
      "creates": null,
      "raw": "0xf86d04850d1f217cbf83015f909411aa265966dfddfdc4fa42a83c305f6ecbe9588a883782dace9d900000801ba08fe6bede1cec3bcb6706b491fd369f6b02d5c76b3ff70f82153a109a3589a5c0a044958c8198d34688264da60db608da7c9c104491aa40e6fcf5bc1ab93780ff08",
      "networkId": 0,
      "chainId": 0
    },
    {
      "hash": "0x2505ac483c8ed2ca5e20d8eafeaecb7a16e6d4184d6a076764dc38e1fc5448f7",
      "blockHash": "0xf95ba8c8eee4afc8e9c188c213b07cfc19695e2b1cf3821b6057c0090669c279",
      "blockNumber": 100689,
      "transactionIndex": 3,
      "confirmations": null,
      "from": "0x972ad000397A3c903299F1353d6d4b85eE4E4e2A",
      "gasPrice": {
        "_hex": "0xcb19dbbb8"
      },
      "gasLimit": {
        "_hex": "0x5208"
      },
      "to": "0x32Be343B94f860124dC4fEe278FDCBD38C102D88",
      "value": {
        "_hex": "0x8ac311ba680e7000"
      },
      "nonce": 17,
      "data": "0x",
      "r": "0x052bce4acb8ee11a397f8fee7d3555da7bc2e42d3e70394eceb60f8b2cba734a",
      "s": "0x7666593dfb35c6726240f74b37adddf4d6ff8f8bfe0e85d459f3a2c22e4f3ca3",
      "v": 27,
      "creates": null,
      "raw": "0xf86c11850cb19dbbb88252089432be343b94f860124dc4fee278fdcbd38c102d88888ac311ba680e7000801ba0052bce4acb8ee11a397f8fee7d3555da7bc2e42d3e70394eceb60f8b2cba734aa07666593dfb35c6726240f74b37adddf4d6ff8f8bfe0e85d459f3a2c22e4f3ca3",
      "networkId": 0,
      "chainId": 0
    },
    {
      "hash": "0xe22b3271d5881205f91d7e4c05c244522a1833537a12157b4082fd5e1dcb3353",
      "blockHash": "0xf95ba8c8eee4afc8e9c188c213b07cfc19695e2b1cf3821b6057c0090669c279",
      "blockNumber": 100689,
      "transactionIndex": 4,
      "confirmations": null,
      "from": "0x90fba3C13F19F8cf72A3Bb9EE63C8f728F548654",
      "gasPrice": {
        "_hex": "0xcb19dbbb8"
      },
      "gasLimit": {
        "_hex": "0x5208"
      },
      "to": "0x32Be343B94f860124dC4fEe278FDCBD38C102D88",
      "value": {
        "_hex": "0x2382e22f0c71fc00"
      },
      "nonce": 6,
      "data": "0x",
      "r": "0x8d9dd4e9ba7749e1c8f7332fef704f84153972cb0a7e28797852c711be324278",
      "s": "0x44bdbea3e2a9e3a91ab60c2578969361b11d66c4cf7b41a90734918a9907c054",
      "v": 27,
      "creates": null,
      "raw": "0xf86c06850cb19dbbb88252089432be343b94f860124dc4fee278fdcbd38c102d88882382e22f0c71fc00801ba08d9dd4e9ba7749e1c8f7332fef704f84153972cb0a7e28797852c711be324278a044bdbea3e2a9e3a91ab60c2578969361b11d66c4cf7b41a90734918a9907c054",
      "networkId": 0,
      "chainId": 0
    }
  ]
}