{
  "hash": "0xa204a3be38fb5b88d00a70c1c86d6f1b9ad821d0f634a4c08fc3fe8ed3c1c5e1",
  "parentHash": "0xa8bb65cc50c2e0cc8a0108746d8b5dcb84f400b67b160b7f34e7d77dbaa97bfa",
  "number": 84066,
  "timestamp": 1439544595,
  "nonce": "0x1847a6e8301cd2da",
  "difficulty": 2492451088449,
  "gasLimit": {
    "_hex": "0x2fefd8"
  },
  "gasUsed": {
    "_hex": "0x5208"
  },
  "miner": "0xB5EDD17d2582A94610ebf0C6832c1652EBBBe210",
  "extraData": "0x476574682f76312e302e312d38326566323666362f6c696e75782f676f312e34",
  "transactions": [
    {
      "hash": "0xb42ebf1ef2496c74c9fac4ce05df9cb9046f0651ff3b57e135c331467953793b",
      "blockHash": "0xa204a3be38fb5b88d00a70c1c86d6f1b9ad821d0f634a4c08fc3fe8ed3c1c5e1",
      "blockNumber": 84066,
      "transactionIndex": 0,
      "confirmations": null,
      "from": "0xc15fa6D616245a5c7B7D75A6dFDcA10C0250BD2B",
      "gasPrice": {
        "_hex": "0xdae6bcc73"
      },
      "gasLimit": {
        "_hex": "0x15f90"
      },
      "to": "0xdeE4977F74E6Aef6D627191c9A45D2627e331150",
      "value": {
        "_hex": "0xd02ab486cedc0000"
      },
      "nonce": 1,
      "data": "0x",
      "r": "0xdf9fcb9f68fa67186ca44b3a718f0bff9a6631698a03fe0fba89b28bc1298ac8",
      "s": "0x70227a2d9a9d135fb0d562f756ee50d0eba9247288bb1497222de5764ac64592",
      "v": 27,
      "creates": null,
      "raw": "0xf86d01850dae6bcc7383015f9094dee4977f74e6aef6d627191c9a45d2627e33115088d02ab486cedc0000801ba0df9fcb9f68fa67186ca44b3a718f0bff9a6631698a03fe0fba89b28bc1298ac8a070227a2d9a9d135fb0d562f756ee50d0eba9247288bb1497222de5764ac64592",
      "networkId": 0,
      "chainId": 0
    }
  ]
}