{
  "hash": "0x8dd64d481125e47ce7575e87208bbd52ef3723ca09af5190746f5a343d498d75",
  "parentHash": "0x37ff546ec9c5b315a70ff125ab98fd1222c2b960bd5cdc1c4a5e5371fab08c6e",
  "number": 62349,
  "timestamp": 1439187222,
  "nonce": "0xb11a362c1a8adf21",
  "difficulty": 1776325397186,
  "gasLimit": {
    "_hex": "0x2fefd8"
  },
  "gasUsed": {
    "_hex": "0xa410"
  },
  "miner": "0xecAb9B89BbB858a7e3DDe3ed0b13946eDAEb5533",
  "extraData": "0x476574682f76312e302e312d38326566323666362f6c696e75782f676f312e34",
  "transactions": [
    {
      "hash": "0x0bebb34cbf1fc57eb5ec86118a366b85531234fd5f3971006d62157723a6b1f8",
      "blockHash": "0x8dd64d481125e47ce7575e87208bbd52ef3723ca09af5190746f5a343d498d75",
      "blockNumber": 62349,
      "transactionIndex": 0,
      "confirmations": null,
      "from": "0x120A270bbC009644e35F0bB6ab13f95b8199c4ad",
      "gasPrice": {
        "_hex": "0xd1da47913"
      },
      "gasLimit": {
        "_hex": "0x15f90"
      },
      "to": "0xb7D2dA6be86fA2bA1aF36d09448F029e438Fc419",
      "value": {
        "_hex": "0x3635c9adc5dea00000"
      },
      "nonce": 88,
      "data": "0x",
      "r": "0x302c82f80daabbe8db3bce6d7820699967fd30c6bbdba1c55a977407c1628fb6",
      "s": "0x555fa7540ec2898926d075a902bbfcca2b511e0b1eba6a8e6016fa27892a7e7d",
      "v": 27,
      "creates": null,
      "raw": "0xf86e58850d1da4791383015f9094b7d2da6be86fa2ba1af36d09448f029e438fc419893635c9adc5dea00000801ba0302c82f80daabbe8db3bce6d7820699967fd30c6bbdba1c55a977407c1628fb6a0555fa7540ec2898926d075a902bbfcca2b511e0b1eba6a8e6016fa27892a7e7d",
      "networkId": 0,
      "chainId": 0
    },
    {
      "hash": "0x97c6896b26cfcf771dfa734a56ea9eaee370fedf0a9a4f65f5d88f37f64a48bd",
      "blockHash": "0x8dd64d481125e47ce7575e87208bbd52ef3723ca09af5190746f5a343d498d75",
      "blockNumber": 62349,
      "transactionIndex": 1,
      "confirmations": null,
      "from": "0x120A270bbC009644e35F0bB6ab13f95b8199c4ad",
      "gasPrice": {
        "_hex": "0xd1da47913"
      },
      "gasLimit": {
        "_hex": "0x15f90"
      },
      "to": "0xb7E25CC4d9Fa6AC0c2e8787ff92e441D3dbf1B02",
      "value": {
        "_hex": "0x4b5c8ab8d254f81800"
      },
      "nonce": 89,
      "data": "0x",
      "r": "0xcd2dd24736508855c29496a3de75260a74b102484c0a04f4e86bb2910ded41ee",
      "s": "0x49008832a51e3ec2e32b759e5f810b8f546dd99dc2e4722ded3d07b5b2dfb8ef",
      "v": 27,
      "creates": null,
      "raw": "0xf86e59850d1da4791383015f9094b7e25cc4d9fa6ac0c2e8787ff92e441d3dbf1b02894b5c8ab8d254f81800801ba0cd2dd24736508855c29496a3de75260a74b102484c0a04f4e86bb2910ded41eea049008832a51e3ec2e32b759e5f810b8f546dd99dc2e4722ded3d07b5b2dfb8ef",
      "networkId": 0,
      "chainId": 0
    }
  ]
}