{
  "hash": "0x4a188adf02a90ad4d9d97266617c8fd90666953b6b4e1879af6b818cce71e0a9",
  "parentHash": "0x13f833f8a95ecf00fa07bdc4943661c42d799d8eedbe864e3660c9d3f8e38a48",
  "number": 122224,
  "timestamp": 1440190338,
  "nonce": "0xddfe4c91bd1dd53f",
  "difficulty": 4479619769018,
  "gasLimit": {
    "_hex": "0x2fefd8"
  },
  "gasUsed": {
    "_hex": "0x5208"
  },
  "miner": "0xe6A7a1d47ff21B6321162AEA7C6CB457D5476Bca",
  "extraData": "0xd783010002844765746887676f312e342e32856c696e7578",
  "transactions": [
    {
      "hash": "0x37668cdca33106e1510eeb70e13bf1e622ba09fbd0b4fdf33ae749af1d2fdd2f",
      "blockHash": "0x4a188adf02a90ad4d9d97266617c8fd90666953b6b4e1879af6b818cce71e0a9",
      "blockNumber": 122224,
      "transactionIndex": 0,
      "confirmations": null,
      "from": "0x8BeF58cf6D5f4fdE02e940a20D56b052F89Cf42f",
      "gasPrice": {
        "_hex": "0x9184e72a000"
      },
      "gasLimit": {
        "_hex": "0x9965e"
      },
      "to": "0xFAe95941f26f565646Cc5bF443AfFDe60868f17e",
      "value": {
        "_hex": "0x4e1003b28d9280000"
      },
      "nonce": 8,
      "data": "0x",
      "r": "0x3d8e605d99ab03bd1e419f71ca297a4042fa28cf3bb89e548968444fcaef04c5",
      "s": "0x79ef4528393a1f09038631b8a44c50d7abf21e0b63b0c412e8f2c964573c71d8",
      "v": 27,
      "creates": null,
      "raw": "0xf86f088609184e72a0008309965e94fae95941f26f565646cc5bf443affde60868f17e8904e1003b28d9280000801ba03d8e605d99ab03bd1e419f71ca297a4042fa28cf3bb89e548968444fcaef04c5a079ef4528393a1f09038631b8a44c50d7abf21e0b63b0c412e8f2c964573c71d8",
      "networkId": 0,
      "chainId": 0
    }
  ]
}