{
  "hash": "0xe06d20f8de592fe6212384d9a8c2631dba3a65be8b23a275f7ecd667d5e34d5d",
  "parentHash": "0xff6369b73ef8c3ac59b9a90e9cb4fe83709a54e96f6aa43dc7a113b2356796b7",
  "number": 52841,
  "timestamp": 1439028066,
  "nonce": "0x488c1d61145a48f0",
  "difficulty": 1569379438481,
  "gasLimit": {
    "_hex": "0x1a9b78"
  },
  "gasUsed": {
    "_hex": "0x5bd8"
  },
  "miner": "0xf8E0CA3Ed80bd541b94BEdCf259e8CF2141A9523",
  "extraData": "0x476574682f76312e302e312f77696e646f77732f676f312e342e32",
  "transactions": [
    {
      "hash": "0xdc71cc339d47260a93f6fff17a4adecd5eb23efe1973ef89e7065c2ce5afb3a4",
      "blockHash": "0xe06d20f8de592fe6212384d9a8c2631dba3a65be8b23a275f7ecd667d5e34d5d",
      "blockNumber": 52841,
      "transactionIndex": 0,
      "confirmations": null,
      "from": "0x326Be8F71bFb0379f989aAB1CC1fE37f0a771f60",
      "gasPrice": {
        "_hex": "0x106e7dca692"
      },
      "gasLimit": {
        "_hex": "0x15f90"
      },
      "to": "0xe727bba699fbE82A731daD9476b5234d0038cFa1",
      "value": {
        "_hex": "0x0"
      },
      "nonce": 2,
      "data": "0x26b3293f000000000000000000000000326be8f71bfb0379f989aab1cc1fe37f0a771f6000000000000000000000000000000000000000000000000000000000000000647465737474786964000000000000000000000000000000000000000000000000",
      "r": "0x1121f232b5b7b9499c1fb36b14b369812cb0aff4139c1172e27b4bf6343714cc",
      "s": "0x5679bb84949d57139b403a4aa30a70bf37c21d2aa98dddd917d0a02fe2c9a5ff",
      "v": 28,
      "creates": null,
      "raw": "0xf8cb02860106e7dca69283015f9094e727bba699fbe82a731dad9476b5234d0038cfa180b86426b3293f000000000000000000000000326be8f71bfb0379f989aab1cc1fe37f0a771f60000000000000000000000000000000000000000000000000000000000000006474657374747869640000000000000000000000000000000000000000000000001ca01121f232b5b7b9499c1fb36b14b369812cb0aff4139c1172e27b4bf6343714cca05679bb84949d57139b403a4aa30a70bf37c21d2aa98dddd917d0a02fe2c9a5ff",
      "networkId": 0,
      "chainId": 0
    }
  ]
}