{
  "hash": "0xb2420f76849d9e69f8c4c656f4d5192502f647026356084208b6b8f068b5953d",
  "parentHash": "0xe6cd37a1868ddadefb1b329da801fd3c2bc37d207640640c1d70ff878d538615",
  "number": 95159,
  "timestamp": 1439719727,
  "nonce": "0x6da15576adb399f7",
  "difficulty": 3536078896520,
  "gasLimit": {
    "_hex": "0x2fefd8"
  },
  "gasUsed": {
    "_hex": "0x5208"
  },
  "miner": "0xC6A5D22D1DDd24B32a308bA4A49ec3cA38a2D0A6",
  "extraData": "0x",
  "transactions": [
    {
      "hash": "0xee6ba6e967c8fc5f02faf1651188d2219339af48653046908eaa524874713ceb",
      "blockHash": "0xb2420f76849d9e69f8c4c656f4d5192502f647026356084208b6b8f068b5953d",
      "blockNumber": 95159,
      "transactionIndex": 0,
      "confirmations": null,
      "from": "0x2910543Af39abA0Cd09dBb2D50200b3E800A63D2",
      "gasPrice": {
        "_hex": "0xdd2ea2b9c"
      },
      "gasLimit": {
        "_hex": "0x5208"
      },
      "to": "0x2B9D86F11D5D49dA661F1b8752BFe2841AaeF3E2",
      "value": {
        "_hex": "0x8ab55f8b52078000"
      },
      "nonce": 891,
      "data": "0x",
      "r": "0xf84e4dd22b04b7cc5c00271d4bc39038c0a8d07511314fa7e7febf1d5a65ce73",
      "s": "0x21303dafa73008f372ee0044e2ec3dedf67950c34deac948f7d5296808fca49f",
      "v": 27,
      "creates": null,
      "raw": "0xf86e82037b850dd2ea2b9c825208942b9d86f11d5d49da661f1b8752bfe2841aaef3e2888ab55f8b52078000801ba0f84e4dd22b04b7cc5c00271d4bc39038c0a8d07511314fa7e7febf1d5a65ce73a021303dafa73008f372ee0044e2ec3dedf67950c34deac948f7d5296808fca49f",
      "networkId": 0,
      "chainId": 0
    }
  ]
}