{
  "hash": "0x28286e4208d597ed5396ee889d2c1b429d98a01d7df14e927b2e472e8aef49b6",
  "parentHash": "0x9b52146d7265e3603ed03b2005806453908e98d8361de1edfb4815811ecd07c3",
  "number": 91010,
  "timestamp": 1439649069,
  "nonce": "0x724f623df1d48fbc",
  "difficulty": 3427306831829,
  "gasLimit": {
    "_hex": "0x2fefd8"
  },
  "gasUsed": {
    "_hex": "0x5208"
  },
  "miner": "0xe6A7a1d47ff21B6321162AEA7C6CB457D5476Bca",
  "extraData": "0x476574682f76312e302e312d38326566323666362f6c696e75782f676f312e34",
  "transactions": [
    {
      "hash": "0x4c85ad1b55846e13b8ca7efada9df3cba81ea4bdc4aa478672b3d2bb6acb2d5c",
      "blockHash": "0x28286e4208d597ed5396ee889d2c1b429d98a01d7df14e927b2e472e8aef49b6",
      "blockNumber": 91010,
      "transactionIndex": 0,
      "confirmations": null,
      "from": "0x2910543Af39abA0Cd09dBb2D50200b3E800A63D2",
      "gasPrice": {
        "_hex": "0xdf2d57f5e"
      },
      "gasLimit": {
        "_hex": "0x5208"
      },
      "to": "0x2f86ba8019945f39edE131D38d4d8780884DA553",
      "value": {
        "_hex": "0x7a9f7c93efd5b78000"
      },
      "nonce": 798,
      "data": "0x",
      "r": "0x2bc029c3140b72cf50b7d6a850a277af6018ae78a28a9b943787a4d4b4dbea95",
      "s": "0x59fa416a53d61df71fd76bcec02ee338f56ea6c43d25c8bd14e855eacc663020",
      "v": 27,
      "creates": null,
      "raw": "0xf86f82031e850df2d57f5e825208942f86ba8019945f39ede131d38d4d8780884da553897a9f7c93efd5b78000801ba02bc029c3140b72cf50b7d6a850a277af6018ae78a28a9b943787a4d4b4dbea95a059fa416a53d61df71fd76bcec02ee338f56ea6c43d25c8bd14e855eacc663020",
      "networkId": 0,
      "chainId": 0
    }
  ]
}