{
  "hash": "0x4979bd93903f5f84a668f30aa3e31359f0c2e747a27d5dca71293539ec58ba41",
  "parentHash": "0x8dbc217812b434193f1d3e30d26233ee9dc7fb9c355d0325e85ba5d870833eef",
  "number": 64576,
  "timestamp": 1439222914,
  "nonce": "0xb81df1260b43c6af",
  "difficulty": 1891309892876,
  "gasLimit": {
    "_hex": "0x2fe3d8"
  },
  "gasUsed": {
    "_hex": "0x5208"
  },
  "miner": "0xf927a40C8B7F6E07c5af7FA2155B4864a4112B13",
  "extraData": "0x",
  "transactions": [
    {
      "hash": "0x1fc8839ffd860d1529fd5c8b6720047d26151e30432da70c148807e5668b284a",
      "blockHash": "0x4979bd93903f5f84a668f30aa3e31359f0c2e747a27d5dca71293539ec58ba41",
      "blockNumber": 64576,
      "transactionIndex": 0,
      "confirmations": null,
      "from": "0x57158f5B5B35cDDC7Ac8FAB8E10C136FF7de587e",
      "gasPrice": {
        "_hex": "0xdd00f98a6"
      },
      "gasLimit": {
        "_hex": "0x15f90"
      },
      "to": "0xE9b9F4aC8114911e13f659915F9A10661F6B5CB1",
      "value": {
        "_hex": "0xde0b6b3a7640000"
      },
      "nonce": 0,
      "data": "0x",
      "r": "0x64dcdd78371bcbc623dfd4c6d02ac37e11db87d2c02c9bcbcd62b6f7ad6415b5",
      "s": "0x0e8b8a85fefc71416d617f8c6e1cf7d8e4c7f1f451600f67105aafdbc3c53b92",
      "v": 27,
      "creates": null,
      "raw": "0xf86d80850dd00f98a683015f9094e9b9f4ac8114911e13f659915f9a10661f6b5cb1880de0b6b3a7640000801ba064dcdd78371bcbc623dfd4c6d02ac37e11db87d2c02c9bcbcd62b6f7ad6415b5a00e8b8a85fefc71416d617f8c6e1cf7d8e4c7f1f451600f67105aafdbc3c53b92",
      "networkId": 0,
      "chainId": 0
    }
  ]
}