{
  "hash": "0x50b7adff968253e37ec6fc165187067af9287345402b74a915d9acff43c1e857",
  "parentHash": "0xc0b3b96b3469683106ebc3f8c0778c9971e5695dab4e56296c79d20be022c563",
  "number": 81424,
  "timestamp": 1439501439,
  "nonce": "0x2e10f48b7e63456d",
  "difficulty": 2452186281259,
  "gasLimit": {
    "_hex": "0x2fefd8"
  },
  "gasUsed": {
    "_hex": "0x5208"
  },
  "miner": "0xe6A7a1d47ff21B6321162AEA7C6CB457D5476Bca",
  "extraData": "0x476574682f76312e302e312d38326566323666362f6c696e75782f676f312e34",
  "transactions": [
    {
      "hash": "0x03693d3b832ae47f1509c0de8aabd672cda22428d8da45e3c393da2b99488a74",
      "blockHash": "0x50b7adff968253e37ec6fc165187067af9287345402b74a915d9acff43c1e857",
      "blockNumber": 81424,
      "transactionIndex": 0,
      "confirmations": null,
      "from": "0xE300c4587D260cE22a677755Db6429B491A4309E",
      "gasPrice": {
        "_hex": "0xd4be89f70"
      },
      "gasLimit": {
        "_hex": "0x15f90"
      },
      "to": "0x06EC48800B2DB3eEfa052e98A9b5Fc2Bf783Ee74",
      "value": {
        "_hex": "0x2bcd40a70853a0000"
      },
      "nonce": 1,
      "data": "0x",
      "r": "0x05ca8d993872bb440a303ed3f7cd60d5ce8ff8f83399f1a05e56794aae9eb7af",
      "s": "0x4bed0b02e40aa717564113e20de83aef458bc4810d9300cf0a88249e16fbc96c",
      "v": 28,
      "creates": null,
      "raw": "0xf86e01850d4be89f7083015f909406ec48800b2db3eefa052e98a9b5fc2bf783ee748902bcd40a70853a0000801ca005ca8d993872bb440a303ed3f7cd60d5ce8ff8f83399f1a05e56794aae9eb7afa04bed0b02e40aa717564113e20de83aef458bc4810d9300cf0a88249e16fbc96c",
      "networkId": 0,
      "chainId": 0
    }
  ]
}