{
  "hash": "0xb6567fe25649a93588a2d11442145e0e91349c86fd9bd7b49fcf06f2088ee7c7",
  "parentHash": "0x92cde6a40dc9419925506c87bdcd5b19dd5f09ae38977fb55fe004bc0b04de4e",
  "number": 68935,
  "timestamp": 1439295943,
  "nonce": "0x43fe63e112d401ca",
  "difficulty": 2027035224441,
  "gasLimit": {
    "_hex": "0x2fefd8"
  },
  "gasUsed": {
    "_hex": "0x70f14"
  },
  "miner": "0x88D74a59454F6cF3B51ef6b9136AFb6b9D405A88",
  "extraData": "0x476574682f76312e302e312d37666266393930632f6c696e75782f676f312e34",
  "transactions": [
    {
      "hash": "0xef1d3df487127e98d557ce7a7cbe2642dff5fd8158e0ee4a4575a8ba4b69c132",
      "blockHash": "0xb6567fe25649a93588a2d11442145e0e91349c86fd9bd7b49fcf06f2088ee7c7",
      "blockNumber": 68935,
      "transactionIndex": 0,
      "confirmations": null,
      "from": "0xdADc00Ab7927603C2fCf31Cee352F80e6c4d6351",
      "gasPrice": {
        "_hex": "0x110c8f7d8de"
      },
      "gasLimit": {
        "_hex": "0xc350"
      },
      "to": "0x2910543Af39abA0Cd09dBb2D50200b3E800A63D2",
      "value": {
        "_hex": "0x5142cdcdf5268c0000"
      },
      "nonce": 1,
      "data": "0x454e36324530563638",
      "r": "0xb8e4981e1aa8be18963322ce1fb7a7c28e885fc8ef5c75ac7778a2a1f5c311f3",
      "s": "0x45faaaf1a938384f6f824956a145678cae19c4f57ed3b3d948e2f0d49eda2646",
      "v": 27,
      "creates": null,
      "raw": "0xf87701860110c8f7d8de82c350942910543af39aba0cd09dbb2d50200b3e800a63d2895142cdcdf5268c000089454e363245305636381ba0b8e4981e1aa8be18963322ce1fb7a7c28e885fc8ef5c75ac7778a2a1f5c311f3a045faaaf1a938384f6f824956a145678cae19c4f57ed3b3d948e2f0d49eda2646",
      "networkId": 0,
      "chainId": 0
    },
    {
      "hash": "0xfb311dd6a8b23fb493908dfd6ef6c4caa46a844ffd1d883bf3f11570523260f6",
      "blockHash": "0xb6567fe25649a93588a2d11442145e0e91349c86fd9bd7b49fcf06f2088ee7c7",
      "blockNumber": 68935,
      "transactionIndex": 1,
      "confirmations": null,
      "from": "0xF9Ae35582A2193c5408FEEba882A02d32048B74d",
      "gasPrice": {
        "_hex": "0xba43b7400"
      },
      "gasLimit": {
        "_hex": "0x5208"
      },
      "to": "0x663515dF92ec4fC269B376C18Dc2Aab1083f181e",
      "value": {
        "_hex": "0x937bda828f9000"
      },
      "nonce": 1,
      "data": "0x",
      "r": "0x4137b668f597365ce987f100b1724cee653b4d8abb2d03e1ec6a39b1622d29bf",
      "s": "0x55f5deba923aceb3457ec9f174cebe9856eba6d13b60cfb2b9622c5af173aa78",
      "v": 27,
      "creates": null,
      "raw": "0xf86b01850ba43b740082520894663515df92ec4fc269b376c18dc2aab1083f181e87937bda828f9000801ba04137b668f597365ce987f100b1724cee653b4d8abb2d03e1ec6a39b1622d29bfa055f5deba923aceb3457ec9f174cebe9856eba6d13b60cfb2b9622c5af173aa78",
      "networkId": 0,
      "chainId": 0
    },
    {
      "hash": "0x870690261c4aca6367ed92fbae231016d8909e27d32c8cd17a4bbb941d24ec0b",
      "blockHash": "0xb6567fe25649a93588a2d11442145e0e91349c86fd9bd7b49fcf06f2088ee7c7",
      "blockNumber": 68935,
      "transactionIndex": 2,
      "confirmations": null,
      "from": "0x2c7dC901f87626efef1f2aDa6C850Ae40d75d0c6",
      "gasPrice": {
        "_hex": "0xba43b7400"
      },
      "gasLimit": {
        "_hex": "0x5208"
      },
      "to": "0x0A97CdA6B56f198B7BDCB161954b4e0606589Ba6",
      "value": {
        "_hex": "0x937bda828f9000"
      },
      "nonce": 1,
      "data": "0x",
      "r": "0x99131ee036cc724eb595ee5b0dddc6a60b94a11aec14d6ab434ca8c93b52c715",
      "s": "0x35266d0dafe31bff8fb792c1284c4f9761d347c6312851ea5e92b7250bbe2a0a",
      "v": 27,
      "creates": null,
      "raw": "0xf86b01850ba43b7400825208940a97cda6b56f198b7bdcb161954b4e0606589ba687937bda828f9000801ba099131ee036cc724eb595ee5b0dddc6a60b94a11aec14d6ab434ca8c93b52c715a035266d0dafe31bff8fb792c1284c4f9761d347c6312851ea5e92b7250bbe2a0a",
      "networkId": 0,
      "chainId": 0
    },
    {
      "hash": "0x8a382115581bc118d1587d89a5a3a7fd59b4c5eb5288d32f36120f56c6bd4c3e",
      "blockHash": "0xb6567fe25649a93588a2d11442145e0e91349c86fd9bd7b49fcf06f2088ee7c7",
      "blockNumber": 68935,
      "transactionIndex": 3,
      "confirmations": null,
      "from": "0x0D05800b2Dc8609645F431Fa43c2c1c185f0C2c7",
      "gasPrice": {
        "_hex": "0xba43b7400"
      },
      "gasLimit": {
        "_hex": "0x5208"
      },
      "to": "0xda2e795835FC1AD6EA318986274A4cbCF2Ec3276",
      "value": {
        "_hex": "0x937bda828f9000"
      },
      "nonce": 1,
      "data": "0x",
      "r": "0xd8dc8364716aa35e25269a01a6195ee6d7c4e3079949d18ff1e622a83e6132e6",
      "s": "0x522febda80f7e83cc39d66a485f6821d19acdb9d1732ec35ff2e4411ff5abd03",
      "v": 27,
      "creates": null,
      "raw": "0xf86b01850ba43b740082520894da2e795835fc1ad6ea318986274a4cbcf2ec327687937bda828f9000801ba0d8dc8364716aa35e25269a01a6195ee6d7c4e3079949d18ff1e622a83e6132e6a0522febda80f7e83cc39d66a485f6821d19acdb9d1732ec35ff2e4411ff5abd03",
      "networkId": 0,
      "chainId": 0
    },
    {
      "hash": "0xeab3a207d7a96d1602187f559c815563a2554f8183c3ab97cfc03eb2d3eb8c55",
      "blockHash": "0xb6567fe25649a93588a2d11442145e0e91349c86fd9bd7b49fcf06f2088ee7c7",
      "blockNumber": 68935,
      "transactionIndex": 4,
      "confirmations": null,
      "from": "0xeC6A6BD0df7186D3c2FCE7c46264b0b9B2e5E1E5",
      "gasPrice": {
        "_hex": "0xba43b7400"
      },
      "gasLimit": {
        "_hex": "0x5208"
      },
      "to": "0xf1f2c76068dB5A8346102241669238FBEE0fD9Da",
      "value": {
        "_hex": "0x937bda828f9000"
      },
      "nonce": 1,
      "data": "0x",
      "r": "0x38bb5e6dd7edad037f0d013fc78792f30999ced787b4577a511d57578eea2504",
      "s": "0x2004db7a3ff9d02723a180e60f5a7cb95dc48d7e137689967be1567765b75fbb",
      "v": 28,
      "creates": null,
      "raw": "0xf86b01850ba43b740082520894f1f2c76068db5a8346102241669238fbee0fd9da87937bda828f9000801ca038bb5e6dd7edad037f0d013fc78792f30999ced787b4577a511d57578eea2504a02004db7a3ff9d02723a180e60f5a7cb95dc48d7e137689967be1567765b75fbb",
      "networkId": 0,
      "chainId": 0
    },
    {
      "hash": "0xd77d37baec6c3a304f64d71d8ff5ceaf91d31bdcfedaf760d396eac12712befb",
      "blockHash": "0xb6567fe25649a93588a2d11442145e0e91349c86fd9bd7b49fcf06f2088ee7c7",
      "blockNumber": 68935,
      "transactionIndex": 5,
      "confirmations": null,
      "from": "0x9A593400aF3a27ca1ab6cA85F2b74DF41FA30495",
      "gasPrice": {
        "_hex": "0xba43b7400"
      },
      "gasLimit": {
        "_hex": "0x5208"
      },
      "to": "0x8aFDbEf3f0c20dd49F796e5196C6cE6B5f7291e8",
      "value": {
        "_hex": "0x937bda828f9000"
      },
      "nonce": 1,
      "data": "0x",
      "r": "0xdbca944ca47db2e54bbced9af0df870443721a50259f961a47501ec27e42b337",
      "s": "0x6bf438d7c694a9db043e1f58edad25cd650064da818401ce226780eb9a40518a",
      "v": 27,
      "creates": null,
      "raw": "0xf86b01850ba43b7400825208948afdbef3f0c20dd49f796e5196c6ce6b5f7291e887937bda828f9000801ba0dbca944ca47db2e54bbced9af0df870443721a50259f961a47501ec27e42b337a06bf438d7c694a9db043e1f58edad25cd650064da818401ce226780eb9a40518a",
      "networkId": 0,
      "chainId": 0
    },
    {
      "hash": "0x87e7cd5b42df248a5ed4898a21bdd7cca12eb77539076898b28d505770f4c56a",
      "blockHash": "0xb6567fe25649a93588a2d11442145e0e91349c86fd9bd7b49fcf06f2088ee7c7",
      "blockNumber": 68935,
      "transactionIndex": 6,
      "confirmations": null,
      "from": "0xa7EFA1aF5818b50607d86E71140ABf1c9E376363",
      "gasPrice": {
        "_hex": "0xba43b7400"
      },
      "gasLimit": {
        "_hex": "0x5208"
      },
      "to": "0x71aAecB159eeCd828Eb657Ac484138C3B4D0D8bb",
      "value": {
        "_hex": "0x937bda828f9000"
      },
      "nonce": 1,
      "data": "0x",
      "r": "0x2960093126d696eec648193306ba2cf1caba27dbb55143acc2edf571357099da",
      "s": "0x072e320883a701c8511fb432317c6798eb4d10d2df50660a4ec3fbd423c22d33",
      "v": 27,
      "creates": null,
      "raw": "0xf86b01850ba43b74008252089471aaecb159eecd828eb657ac484138c3b4d0d8bb87937bda828f9000801ba02960093126d696eec648193306ba2cf1caba27dbb55143acc2edf571357099daa0072e320883a701c8511fb432317c6798eb4d10d2df50660a4ec3fbd423c22d33",
      "networkId": 0,
      "chainId": 0
    },
    {
      "hash": "0x27f6ba0d4c1523c427f999302693ff9880c4a4118cb8fc21a522279d700839d5",
      "blockHash": "0xb6567fe25649a93588a2d11442145e0e91349c86fd9bd7b49fcf06f2088ee7c7",
      "blockNumber": 68935,
      "transactionIndex": 7,
      "confirmations": null,
      "from": "0x5867D79701CDA27A3bc0Db5c25b33F7dB150d1bf",
      "gasPrice": {
        "_hex": "0xba43b7400"
      },
      "gasLimit": {
        "_hex": "0x5208"
      },
      "to": "0xB834C9D8ede9f052E17c49902Ca7f697a305C52C",
      "value": {
        "_hex": "0x937bda828f9000"
      },
      "nonce": 1,
      "data": "0x",
      "r": "0xdb5527e31e5f88707931a463681b42d269f690a39b36c47d39e6c3c2f210d362",
      "s": "0x683e583c41f1c8d52ef0b68303838c0f35d123e955dc5cd195104cefcdedbe32",
      "v": 28,
      "creates": null,
      "raw": "0xf86b01850ba43b740082520894b834c9d8ede9f052e17c49902ca7f697a305c52c87937bda828f9000801ca0db5527e31e5f88707931a463681b42d269f690a39b36c47d39e6c3c2f210d362a0683e583c41f1c8d52ef0b68303838c0f35d123e955dc5cd195104cefcdedbe32",
      "networkId": 0,
      "chainId": 0
    },
    {
      "hash": "0x5105c0e0f33c815e34fd4b7512a2d3eebd7775c5d1ebeb6760ca1301237f23b6",
      "blockHash": "0xb6567fe25649a93588a2d11442145e0e91349c86fd9bd7b49fcf06f2088ee7c7",
      "blockNumber": 68935,
      "transactionIndex": 8,
      "confirmations": null,
      "from": "0x6B9a8e3492bd172CA9c44bD1B97BbA267D321508",
      "gasPrice": {
        "_hex": "0xba43b7400"
      },
      "gasLimit": {
        "_hex": "0x5208"
      },
      "to": "0x5Bd7842d8a39931007FAa0454fb235A0dFB4143c",
      "value": {
        "_hex": "0x937bda828f9000"
      },
      "nonce": 1,
      "data": "0x",
      "r": "0xbced90a71223f68757244899e43c0bf04b24d31e02f0d38a677840d9fae44863",
      "s": "0x43a1ba61ca3a28174062fa616040e649240cc332a50c581afba250dc44da60f4",
      "v": 28,
      "creates": null,
      "raw": "0xf86b01850ba43b7400825208945bd7842d8a39931007faa0454fb235a0dfb4143c87937bda828f9000801ca0bced90a71223f68757244899e43c0bf04b24d31e02f0d38a677840d9fae44863a043a1ba61ca3a28174062fa616040e649240cc332a50c581afba250dc44da60f4",
      "networkId": 0,
      "chainId": 0
    },
    {
      "hash": "0x7ad17a4d885c5b54ddac70ee993a5f88c1ddd80b28691a2c2011d67160358230",
      "blockHash": "0xb6567fe25649a93588a2d11442145e0e91349c86fd9bd7b49fcf06f2088ee7c7",
      "blockNumber": 68935,
      "transactionIndex": 9,
      "confirmations": null,
      "from": "0x19836C055A12C1CaE9302eb985b5B5b65C3539Ce",
      "gasPrice": {
        "_hex": "0xba43b7400"
      },
      "gasLimit": {
        "_hex": "0x5208"
      },
      "to": "0x553A2889df0eD4429dC3C10A549F0e3312740a18",
      "value": {
        "_hex": "0x937bda828f9000"
      },
      "nonce": 1,
      "data": "0x",
      "r": "0x0f285eea7677482e16c8b93b31f0ff5f53e0541deecc812b7106487eafeef187",
      "s": "0x236c4ea10685be0ee2084f945b2a912f3f664c6d93d0f60ce0daef457f805fbb",
      "v": 27,
      "creates": null,
      "raw": "0xf86b01850ba43b740082520894553a2889df0ed4429dc3c10a549f0e3312740a1887937bda828f9000801ba00f285eea7677482e16c8b93b31f0ff5f53e0541deecc812b7106487eafeef187a0236c4ea10685be0ee2084f945b2a912f3f664c6d93d0f60ce0daef457f805fbb",
      "networkId": 0,
      "chainId": 0
    },
    {
      "hash": "0x9e9d39bbeda60f8250622165f2bc72ad233dac9a4ad1d4948e90c144cef43815",
      "blockHash": "0xb6567fe25649a93588a2d11442145e0e91349c86fd9bd7b49fcf06f2088ee7c7",
      "blockNumber": 68935,
      "transactionIndex": 10,
      "confirmations": null,
      "from": "0x7033cd5Bc5448aFA347019f3C75076fB40ED1E68",
      "gasPrice": {
        "_hex": "0xba43b7400"
      },
      "gasLimit": {
        "_hex": "0x5208"
      },
      "to": "0x4458f86353b4740Fe9E09071C23A7437640063C9",
      "value": {
        "_hex": "0x937bda828f9000"
      },
      "nonce": 1,
      "data": "0x",
      "r": "0x4a9be4d59a0efde42b25f426e91ab3c428ffe12b75923c16e69020c24960be49",
      "s": "0x73a158d68cbd8aaf53457854d9ad9699019eef5d2626f00cbdb1ea64622530df",
      "v": 28,
      "creates": null,
      "raw": "0xf86b01850ba43b7400825208944458f86353b4740fe9e09071c23a7437640063c987937bda828f9000801ca04a9be4d59a0efde42b25f426e91ab3c428ffe12b75923c16e69020c24960be49a073a158d68cbd8aaf53457854d9ad9699019eef5d2626f00cbdb1ea64622530df",
      "networkId": 0,
      "chainId": 0
    },
    {
      "hash": "0x422e0b194ffa0c9439f33b32ee7528350fa2d78b9b86b807b0c33fd27c4b2f7f",
      "blockHash": "0xb6567fe25649a93588a2d11442145e0e91349c86fd9bd7b49fcf06f2088ee7c7",
      "blockNumber": 68935,
      "transactionIndex": 11,
      "confirmations": null,
      "from": "0xa97884AA7D9a72191aA8B9eeD2cB04578039e2b8",
      "gasPrice": {
        "_hex": "0xba43b7400"
      },
      "gasLimit": {
        "_hex": "0x5208"
      },
      "to": "0xA0A41b56248B82df7466F7E887391A13c8bB78e2",
      "value": {
        "_hex": "0x937bda828f9000"
      },
      "nonce": 1,
      "data": "0x",
      "r": "0xf56c1cc7b7e03ba403ae5699d04ff999656a09c802be9623c4ef91decbee4593",
      "s": "0x01b5fbca363dd39e2d5028476023663efd234b484b2e3fa69725f3fbe0d1caf5",
      "v": 27,
      "creates": null,
      "raw": "0xf86b01850ba43b740082520894a0a41b56248b82df7466f7e887391a13c8bb78e287937bda828f9000801ba0f56c1cc7b7e03ba403ae5699d04ff999656a09c802be9623c4ef91decbee4593a001b5fbca363dd39e2d5028476023663efd234b484b2e3fa69725f3fbe0d1caf5",
      "networkId": 0,
      "chainId": 0
    },
    {
      "hash": "0x7db4c424df4546c22db891622b1fdf9faf071922bdb710cbc303869b2bd06518",
      "blockHash": "0xb6567fe25649a93588a2d11442145e0e91349c86fd9bd7b49fcf06f2088ee7c7",
      "blockNumber": 68935,
      "transactionIndex": 12,
      "confirmations": null,
      "from": "0xae7A9a044f6120c78fD50a1CE512Ab9770b54884",
      "gasPrice": {
        "_hex": "0xba43b7400"
      },
      "gasLimit": {
        "_hex": "0x5208"
      },
      "to": "0xc0210FeAf4277e21dDf3a00E0e85B32DaCbDd7aF",
      "value": {
        "_hex": "0x937bda828f9000"
      },
      "nonce": 1,
      "data": "0x",
      "r": "0x1d26dc4179ac1f5336cb85677f7aa5dba36d2a7ddd486c33ff60329704eccbab",
      "s": "0x6767712f542787d78e93c6faa473272c493f9664f8a7262278ad5c87a2720634",
      "v": 28,
      "creates": null,
      "raw": "0xf86b01850ba43b740082520894c0210feaf4277e21ddf3a00e0e85b32dacbdd7af87937bda828f9000801ca01d26dc4179ac1f5336cb85677f7aa5dba36d2a7ddd486c33ff60329704eccbaba06767712f542787d78e93c6faa473272c493f9664f8a7262278ad5c87a2720634",
      "networkId": 0,
      "chainId": 0
    },
    {
      "hash": "0xbadfc0fd02a313eff2eb4dce31edb2d388e1e8af933026cdfa5b6e7b6f17a6cb",
      "blockHash": "0xb6567fe25649a93588a2d11442145e0e91349c86fd9bd7b49fcf06f2088ee7c7",
      "blockNumber": 68935,
      "transactionIndex": 13,
      "confirmations": null,
      "from": "0x0dC101c040B2ba74cbDB8c6073670699d89aC815",
      "gasPrice": {
        "_hex": "0xba43b7400"
      },
      "gasLimit": {
        "_hex": "0x5208"
      },
      "to": "0x1a193e57C256b5e3564139Cf013b643Ef9E2d173",
      "value": {
        "_hex": "0x937bda828f9000"
      },
      "nonce": 1,
      "data": "0x",
      "r": "0xfae5dc19f294f694e8f998d3e60192a5a6ab3f9528573aa356637533b9c8f7a7",
      "s": "0x270c0a6fd2ff19b6f3e9f0478fc91292f81dc423c2b4b44ee9dab1bde4ee3d24",
      "v": 28,
      "creates": null,
      "raw": "0xf86b01850ba43b7400825208941a193e57c256b5e3564139cf013b643ef9e2d17387937bda828f9000801ca0fae5dc19f294f694e8f998d3e60192a5a6ab3f9528573aa356637533b9c8f7a7a0270c0a6fd2ff19b6f3e9f0478fc91292f81dc423c2b4b44ee9dab1bde4ee3d24",
      "networkId": 0,
      "chainId": 0
    },
    {
      "hash": "0xfef89c3fa39b10b2318305b67e220d1cc4297a82ea53f4efee117e10912495c2",
      "blockHash": "0xb6567fe25649a93588a2d11442145e0e91349c86fd9bd7b49fcf06f2088ee7c7",
      "blockNumber": 68935,
      "transactionIndex": 14,
      "confirmations": null,
      "from": "0x2E07b02b8EA15059a91Bc19283Ab22eD90292a13",
      "gasPrice": {
        "_hex": "0xba43b7400"
      },
      "gasLimit": {
        "_hex": "0x5208"
      },
      "to": "0xDA4Df15deBAdaeac68E9e544dDa2481C5fc1FacD",
      "value": {
        "_hex": "0x937bda828f9000"
      },
      "nonce": 1,
      "data": "0x",
      "r": "0x8ff4f6f6e0665b895cafc1a542654eeb75e905e8cca22aa74f1ede4b36ffc7e6",
      "s": "0x4a1b0142fed01005d971b70fdc1104225d2249c00cff3d7d96a67e7ddf511ae1",
      "v": 27,
      "creates": null,
      "raw": "0xf86b01850ba43b740082520894da4df15debadaeac68e9e544dda2481c5fc1facd87937bda828f9000801ba08ff4f6f6e0665b895cafc1a542654eeb75e905e8cca22aa74f1ede4b36ffc7e6a04a1b0142fed01005d971b70fdc1104225d2249c00cff3d7d96a67e7ddf511ae1",
      "networkId": 0,
      "chainId": 0
    },
    {
      "hash": "0x711991a23baa5039e4583883094265b7caf55122da80689aa06c090a035098a7",
      "blockHash": "0xb6567fe25649a93588a2d11442145e0e91349c86fd9bd7b49fcf06f2088ee7c7",
      "blockNumber": 68935,
      "transactionIndex": 15,
      "confirmations": null,
      "from": "0x9EcA285A95cB57109898D890C1ad3aE43842f23A",
      "gasPrice": {
        "_hex": "0xba43b7400"
      },
      "gasLimit": {
        "_hex": "0x5208"
      },
      "to": "0xC85A4097983038E36f6E2B213670788bA308285f",
      "value": {
        "_hex": "0x937bda828f9000"
      },
      "nonce": 1,
      "data": "0x",
      "r": "0x38d4e38bd0dacd8340e5328c3e37b019454706573b54c054b8475b532f9588ff",
      "s": "0x3fea1a49765f7b985dbda98338fdd0c1f2422b59fd263bf4f971ed4345894146",
      "v": 28,
      "creates": null,
      "raw": "0xf86b01850ba43b740082520894c85a4097983038e36f6e2b213670788ba308285f87937bda828f9000801ca038d4e38bd0dacd8340e5328c3e37b019454706573b54c054b8475b532f9588ffa03fea1a49765f7b985dbda98338fdd0c1f2422b59fd263bf4f971ed4345894146",
      "networkId": 0,
      "chainId": 0
    },
    {
      "hash": "0x2bea7da594d35fcbf36d53b77b7a5965631db45b2fd3dcc8402b5dc50924a842",
      "blockHash": "0xb6567fe25649a93588a2d11442145e0e91349c86fd9bd7b49fcf06f2088ee7c7",
      "blockNumber": 68935,
      "transactionIndex": 16,
      "confirmations": null,
      "from": "0xd98762D9101B563597F46c329951C270a8aD2689",
      "gasPrice": {
        "_hex": "0xba43b7400"
      },
      "gasLimit": {
        "_hex": "0x5208"
      },
      "to": "0xb12b19E6AdaCc3EA23B922554AAe4Bdaf196210b",
      "value": {
        "_hex": "0x937bda828f9000"
      },
      "nonce": 1,
      "data": "0x",
      "r": "0x6557c804e35aa912d8c4c5ee20e957142c26d62486fa99f95e6150183a635a11",
      "s": "0x09c452faa382d1efadd2521f58da1f4325b8d1c1dd792a6c10c3fb3042e80296",
      "v": 28,
      "creates": null,
      "raw": "0xf86b01850ba43b740082520894b12b19e6adacc3ea23b922554aae4bdaf196210b87937bda828f9000801ca06557c804e35aa912d8c4c5ee20e957142c26d62486fa99f95e6150183a635a11a009c452faa382d1efadd2521f58da1f4325b8d1c1dd792a6c10c3fb3042e80296",
      "networkId": 0,
      "chainId": 0
    },
    {
      "hash": "0xdd2dd18dc3e93185f410d3a42c8db3944521422e69b1fbe0118299b09e4e73c8",
      "blockHash": "0xb6567fe25649a93588a2d11442145e0e91349c86fd9bd7b49fcf06f2088ee7c7",
      "blockNumber": 68935,
      "transactionIndex": 17,
      "confirmations": null,
      "from": "0x26a2043F32888a64cddc35ab2BB73A7D86EF44Bb",
      "gasPrice": {
        "_hex": "0xba43b7400"
      },
      "gasLimit": {
        "_hex": "0x5208"
      },
      "to": "0x3b3014beA595B13C5929fC583a5e4F4f11A76eb2",
      "value": {
        "_hex": "0x937bda828f9000"
      },
      "nonce": 1,
      "data": "0x",
      "r": "0xd90bfacc76fd668906df4594278d62290f92c957d95338b5467cf1da168b964f",
      "s": "0x5e0a399feb8bcc50a9058ddb96cbbc8abf6aed84d73fc99215e08c4564b95eba",
      "v": 27,
      "creates": null,
      "raw": "0xf86b01850ba43b7400825208943b3014bea595b13c5929fc583a5e4f4f11a76eb287937bda828f9000801ba0d90bfacc76fd668906df4594278d62290f92c957d95338b5467cf1da168b964fa05e0a399feb8bcc50a9058ddb96cbbc8abf6aed84d73fc99215e08c4564b95eba",
      "networkId": 0,
      "chainId": 0
    },
    {
      "hash": "0xdbd036a4c712122c3216c2beab671ed6ac251e4d844fb39e160bf98740acc0c0",
      "blockHash": "0xb6567fe25649a93588a2d11442145e0e91349c86fd9bd7b49fcf06f2088ee7c7",
      "blockNumber": 68935,
      "transactionIndex": 18,
      "confirmations": null,
      "from": "0xe96B8814884f0A83F7E48A98AE96698729d7492E",
      "gasPrice": {
        "_hex": "0xba43b7400"
      },
      "gasLimit": {
        "_hex": "0x5208"
      },
      "to": "0x790D724959b5641A5041F3bFf130e1a97e75E132",
      "value": {
        "_hex": "0x937bda828f9000"
      },
      "nonce": 1,
      "data": "0x",
      "r": "0xbb6e4120ecc071efe2c9475f4697c4dff07ab5d2012a7149346eba21af58b251",
      "s": "0x3dbcd52fa7762ff7f2174467219efcf0d3a4599c91136577101a0c4f2424156f",
      "v": 27,
      "creates": null,
      "raw": "0xf86b01850ba43b740082520894790d724959b5641a5041f3bff130e1a97e75e13287937bda828f9000801ba0bb6e4120ecc071efe2c9475f4697c4dff07ab5d2012a7149346eba21af58b251a03dbcd52fa7762ff7f2174467219efcf0d3a4599c91136577101a0c4f2424156f",
      "networkId": 0,
      "chainId": 0
    },
    {
      "hash": "0xca0749b3205718b9b4ae03b1fd60e7b3706a9ea2f18976eeede30eadef278529",
      "blockHash": "0xb6567fe25649a93588a2d11442145e0e91349c86fd9bd7b49fcf06f2088ee7c7",
      "blockNumber": 68935,
      "transactionIndex": 19,
      "confirmations": null,
      "from": "0x11D156563e89610ED7784750EC4B9A085Cd8e969",
      "gasPrice": {
        "_hex": "0xba43b7400"
      },
      "gasLimit": {
        "_hex": "0x5208"
      },
      "to": "0xd1079398D21E23EAaddA7178e5Ad5E114e11D57f",
      "value": {
        "_hex": "0x937bda828f9000"
      },
      "nonce": 1,
      "data": "0x",
      "r": "0x513ee7510a056f29d4a59331d76fcdc08ecc31f534f1a9c344a27cb9ed002ea7",
      "s": "0x14e0a019a55f42d71b7815aa336c4ab117cf7afbb735ea607811518db45d79fe",
      "v": 28,
      "creates": null,
      "raw": "0xf86b01850ba43b740082520894d1079398d21e23eaadda7178e5ad5e114e11d57f87937bda828f9000801ca0513ee7510a056f29d4a59331d76fcdc08ecc31f534f1a9c344a27cb9ed002ea7a014e0a019a55f42d71b7815aa336c4ab117cf7afbb735ea607811518db45d79fe",
      "networkId": 0,
      "chainId": 0
    },
    {
      "hash": "0xde3656c577725982078f50986402f4f44f2fb9fa90d809cf816483ab8336fc93",
      "blockHash": "0xb6567fe25649a93588a2d11442145e0e91349c86fd9bd7b49fcf06f2088ee7c7",
      "blockNumber": 68935,
      "transactionIndex": 20,
      "confirmations": null,
      "from": "0x721899990adf4f0C13A343f57ae78870b4c2B8f3",
      "gasPrice": {
        "_hex": "0xba43b7400"
      },
      "gasLimit": {
        "_hex": "0x5208"
      },
      "to": "0x06aDb049491ec3c400dE78374edE98348C276A09",
      "value": {
        "_hex": "0x937bda828f9000"
      },
      "nonce": 1,
      "data": "0x",
      "r": "0x24fecb5314552e78afd68d44863dae00c973eee7712cc0eaea483376f3c2b2b8",
      "s": "0x34050e10b2f5a4085f98e1a73a7472eb3499b0a164b193f1fa246f8d43ce6e06",
      "v": 28,
      "creates": null,
      "raw": "0xf86b01850ba43b74008252089406adb049491ec3c400de78374ede98348c276a0987937bda828f9000801ca024fecb5314552e78afd68d44863dae00c973eee7712cc0eaea483376f3c2b2b8a034050e10b2f5a4085f98e1a73a7472eb3499b0a164b193f1fa246f8d43ce6e06",
      "networkId": 0,
      "chainId": 0
    },
    {
      "hash": "0xa4deb32a175132340c46cbe79bc9d1ea3be95d3d6d075c8ef0882c4d11e4c529",
      "blockHash": "0xb6567fe25649a93588a2d11442145e0e91349c86fd9bd7b49fcf06f2088ee7c7",
      "blockNumber": 68935,
      "transactionIndex": 21,
      "confirmations": null,
      "from": "0x2ec21EE2deDea3b4CDDC4805B6e57B6712B49014",
      "gasPrice": {
        "_hex": "0xba43b7400"
      },
      "gasLimit": {
        "_hex": "0x5208"
      },
      "to": "0x4aAc4Ddc27f1e7c2d4769e444eD0892d88A201F8",
      "value": {
        "_hex": "0x937bda828f9000"
      },
      "nonce": 1,
      "data": "0x",
      "r": "0x5f2f1864dc739b588cba61112ca429887a0fd97a0f81a961871b152585624da8",
      "s": "0x6902d379a95c9ff1753096e1aa8f8035378ad63a7ac4f3f50ceb0b979086e951",
      "v": 27,
      "creates": null,
      "raw": "0xf86b01850ba43b7400825208944aac4ddc27f1e7c2d4769e444ed0892d88a201f887937bda828f9000801ba05f2f1864dc739b588cba61112ca429887a0fd97a0f81a961871b152585624da8a06902d379a95c9ff1753096e1aa8f8035378ad63a7ac4f3f50ceb0b979086e951",
      "networkId": 0,
      "chainId": 0
    }
  ]
}