{
  "hash": "0x7907aaeea9eec807ca68f2fb5e46f44565c9cad4ce719348112c627af040e0ff",
  "parentHash": "0x9f8160c18d009c7ea190c1ce76b8f6c804beacb03ee71c7b942c1db91f1e7ebc",
  "number": 49961,
  "timestamp": 1438981929,
  "nonce": "0xf98837cfcfc57c1b",
  "difficulty": 1499490165673,
  "gasLimit": {
    "_hex": "0x48362"
  },
  "gasUsed": {
    "_hex": "0xa410"
  },
  "miner": "0x1FC0a68ee75c96453Dc8A877F49CfD6ab21d00ec",
  "extraData": "0x476574682f76312e302e312f77696e646f77732f676f312e342e32",
  "transactions": [
    {
      "hash": "0x75742fbff97d8bffda302603f0e6c70a495da85333b0791c36b763f9f8ba0e7e",
      "blockHash": "0x7907aaeea9eec807ca68f2fb5e46f44565c9cad4ce719348112c627af040e0ff",
      "blockNumber": 49961,
      "transactionIndex": 0,
      "confirmations": null,
      "from": "0x3175a28CF6105466923f11bFFabD279F162aa2f8",
      "gasPrice": {
        "_hex": "0xcfc11ac1f"
      },
      "gasLimit": {
        "_hex": "0x5208"
      },
      "to": "0x32Be343B94f860124dC4fEe278FDCBD38C102D88",
      "value": {
        "_hex": "0x1dec47610c74b6000"
      },
      "nonce": 1,
      "data": "0x",
      "r": "0x9957bf0d799f13d3f229b03ffb78afd6608ab5064a8b784e71421f0c11bb5c5e",
      "s": "0x6d00771b72fc5a3b2a3e4ea9a0220809cb096128a9b68812106282425a23f4f1",
      "v": 28,
      "creates": null,
      "raw": "0xf86d01850cfc11ac1f8252089432be343b94f860124dc4fee278fdcbd38c102d888901dec47610c74b6000801ca09957bf0d799f13d3f229b03ffb78afd6608ab5064a8b784e71421f0c11bb5c5ea06d00771b72fc5a3b2a3e4ea9a0220809cb096128a9b68812106282425a23f4f1",
      "networkId": 0,
      "chainId": 0
    },
    {
      "hash": "0xec6c4daa6efbc97173604ea4460416225c83733236b14703a7a654d6099e30ed",
      "blockHash": "0x7907aaeea9eec807ca68f2fb5e46f44565c9cad4ce719348112c627af040e0ff",
      "blockNumber": 49961,
      "transactionIndex": 1,
      "confirmations": null,
      "from": "0x835cFb953639ABaB9F2612b8d92C997771Ae6312",
      "gasPrice": {
        "_hex": "0xcfc11ac1f"
      },
      "gasLimit": {
        "_hex": "0x5208"
      },
      "to": "0x32Be343B94f860124dC4fEe278FDCBD38C102D88",
      "value": {
        "_hex": "0x35c68165d42896000"
      },
      "nonce": 2,
      "data": "0x",
      "r": "0xaa8c8a8bc284d364d47b7de490f981233d0a8e7428b5e8bf00bb04159410503d",
      "s": "0x5c950548314122036af261d5fd4ddedf6f387e9bb31887aea4c908cc87111a20",
      "v": 28,
      "creates": null,
      "raw": "0xf86d02850cfc11ac1f8252089432be343b94f860124dc4fee278fdcbd38c102d8889035c68165d42896000801ca0aa8c8a8bc284d364d47b7de490f981233d0a8e7428b5e8bf00bb04159410503da05c950548314122036af261d5fd4ddedf6f387e9bb31887aea4c908cc87111a20",
      "networkId": 0,
      "chainId": 0
    }
  ]
}