{
  "hash": "0x3b447a7a5a190072e2283e17ab3a41fab7abd08697f75cc3dd58fe69a7f62aac",
  "parentHash": "0x89bcc12b1d945343f4f3941a7fc0256e79ef3f4ab8030187b9ac535ab3b61ba5",
  "number": 91159,
  "timestamp": 1439651379,
  "nonce": "0x34adb4914baaf969",
  "difficulty": 3435623478570,
  "gasLimit": {
    "_hex": "0x2fefd8"
  },
  "gasUsed": {
    "_hex": "0x5208"
  },
  "miner": "0xe6A7a1d47ff21B6321162AEA7C6CB457D5476Bca",
  "extraData": "0x476574682f76312e302e312d38326566323666362f6c696e75782f676f312e34",
  "transactions": [
    {
      "hash": "0xe6be971fd79a7841b3a4e4fed0b479495ebfc0c43196aecc02951fce5686e76d",
      "blockHash": "0x3b447a7a5a190072e2283e17ab3a41fab7abd08697f75cc3dd58fe69a7f62aac",
      "blockNumber": 91159,
      "transactionIndex": 0,
      "confirmations": null,
      "from": "0x229f76DdF9053EEb247D1aB455af64e6D26029b8",
      "gasPrice": {
        "_hex": "0xcee7cda2d"
      },
      "gasLimit": {
        "_hex": "0x15f90"
      },
      "to": "0xDA4E0Ba268486216E0B3Ad5ccEAa1E7EdB1C2751",
      "value": {
        "_hex": "0x81c1df7629e70000"
      },
      "nonce": 0,
      "data": "0x",
      "r": "0x6d999055b1b42a45f916a931f93957b5e51922d18b345691eb8a7f2a970eb95b",
      "s": "0x64920fc997496cece9a7543b9b23fa8831d6d498cb8a547b4dcc528d33ae75e0",
      "v": 28,
      "creates": null,
      "raw": "0xf86d80850cee7cda2d83015f9094da4e0ba268486216e0b3ad5cceaa1e7edb1c27518881c1df7629e70000801ca06d999055b1b42a45f916a931f93957b5e51922d18b345691eb8a7f2a970eb95ba064920fc997496cece9a7543b9b23fa8831d6d498cb8a547b4dcc528d33ae75e0",
      "networkId": 0,
      "chainId": 0
    }
  ]
}