{
  "hash": "0x604f41a763f8263a4a09e8bf75a9c06428abdfab5092c76b86a6e14726e6c2ca",
  "parentHash": "0xf2b70b4c65be98ec2d8f2713c3eacc4ce8447bb9a054c79467be9bec553a3efa",
  "number": 78203,
  "timestamp": 1439450266,
  "nonce": "0xe5c798858a2b50e6",
  "difficulty": 2278764670465,
  "gasLimit": {
    "_hex": "0x2fefd8"
  },
  "gasUsed": {
    "_hex": "0x5208"
  },
  "miner": "0xD6D327d45e2F3bddBc5DEA12815F871d4375bd25",
  "extraData": "0x476574682f76312e302e312f6c696e75782f676f312e342e32",
  "transactions": [
    {
      "hash": "0x2069a4f1f3a2056d902e51b00d96b8836c40868163737134168f193e3a9cddbe",
      "blockHash": "0x604f41a763f8263a4a09e8bf75a9c06428abdfab5092c76b86a6e14726e6c2ca",
      "blockNumber": 78203,
      "transactionIndex": 0,
      "confirmations": null,
      "from": "0xc597A5d92F5dC1137D847db733cfe02c6d209f13",
      "gasPrice": {
        "_hex": "0xd3177ecd6"
      },
      "gasLimit": {
        "_hex": "0x15f90"
      },
      "to": "0x5a0f0935E8E5591B2f9f2d55f29C626B50292088",
      "value": {
        "_hex": "0x1db3e7f0f3d35d00"
      },
      "nonce": 7,
      "data": "0x",
      "r": "0x351edce4c13772c22ed0466afb6897c6cfae4c6a04e339846f3218ca2afc01ea",
      "s": "0x0d4c75b95e2ea261195c00456244e88667983f56d425bfbad6c39f516d248ace",
      "v": 28,
      "creates": null,
      "raw": "0xf86d07850d3177ecd683015f90945a0f0935e8e5591b2f9f2d55f29c626b50292088881db3e7f0f3d35d00801ca0351edce4c13772c22ed0466afb6897c6cfae4c6a04e339846f3218ca2afc01eaa00d4c75b95e2ea261195c00456244e88667983f56d425bfbad6c39f516d248ace",
      "networkId": 0,
      "chainId": 0
    }
  ]
}