{
  "hash": "0xeefc312a22613d57f61a2fb36cccb01a3c5c0b1f3ff6f2ceefecab3c6747e125",
  "parentHash": "0xb2dcf8fca4cd972104a3cbc6745c1e52447e29906a96903f11bf6889d666ac75",
  "number": 52202,
  "timestamp": 1439018008,
  "nonce": "0x13384825dad8963d",
  "difficulty": 1555005541619,
  "gasLimit": {
    "_hex": "0x112d5f"
  },
  "gasUsed": {
    "_hex": "0x5208"
  },
  "miner": "0xf8E0CA3Ed80bd541b94BEdCf259e8CF2141A9523",
  "extraData": "0x476574682f76312e302e312f77696e646f77732f676f312e342e32",
  "transactions": [
    {
      "hash": "0x8e009b3837443c5d907714fb866ea7a98d3267f144ce0fbd00ac95e61a2a5e0d",
      "blockHash": "0xeefc312a22613d57f61a2fb36cccb01a3c5c0b1f3ff6f2ceefecab3c6747e125",
      "blockNumber": 52202,
      "transactionIndex": 0,
      "confirmations": null,
      "from": "0x3F0b5004f6F2620B05A43B825e4Bd6936693639b",
      "gasPrice": {
        "_hex": "0xcbf3595f8"
      },
      "gasLimit": {
        "_hex": "0x5208"
      },
      "to": "0x32Be343B94f860124dC4fEe278FDCBD38C102D88",
      "value": {
        "_hex": "0xaa53fe4b5311400000"
      },
      "nonce": 0,
      "data": "0x",
      "r": "0xc2c60b9519eb4885f4a97a67129ff0143a1578f45640e816309c7b706c135cc9",
      "s": "0x72710d9c7a8b2548d76c202b1cda632c89b61e6e59ea0d3abea61b49a7ee31d6",
      "v": 28,
      "creates": null,
      "raw": "0xf86d80850cbf3595f88252089432be343b94f860124dc4fee278fdcbd38c102d8889aa53fe4b5311400000801ca0c2c60b9519eb4885f4a97a67129ff0143a1578f45640e816309c7b706c135cc9a072710d9c7a8b2548d76c202b1cda632c89b61e6e59ea0d3abea61b49a7ee31d6",
      "networkId": 0,
      "chainId": 0
    }
  ]
}