{
  "hash": "0x3dff24104977bd3ad980571b2450c7e2c0e05715be1b422bdd29faeb674e217e",
  "parentHash": "0x320c7b629f3fc00238748e35f77a6f395bb9c1e51e048c70eaaacf4f503b6cf2",
  "number": 64366,
  "timestamp": 1439219453,
  "nonce": "0xb63b24a49602718c",
  "difficulty": 1882144607016,
  "gasLimit": {
    "_hex": "0x2fefd8"
  },
  "gasUsed": {
    "_hex": "0x5208"
  },
  "miner": "0xC99478b218E58F45783fA70f0507cf614938E67d",
  "extraData": "0x",
  "transactions": [
    {
      "hash": "0x291f23d1dec9d8bb33cff26b1d36beb092fa84a35ce3defce97ba4066e8b97bf",
      "blockHash": "0x3dff24104977bd3ad980571b2450c7e2c0e05715be1b422bdd29faeb674e217e",
      "blockNumber": 64366,
      "transactionIndex": 0,
      "confirmations": null,
      "from": "0x097738363B1662599ad0777E19461601F5EC8dF9",
      "gasPrice": {
        "_hex": "0xdab925fde"
      },
      "gasLimit": {
        "_hex": "0x5208"
      },
      "to": "0x32Be343B94f860124dC4fEe278FDCBD38C102D88",
      "value": {
        "_hex": "0xad78a5af993418000"
      },
      "nonce": 8,
      "data": "0x",
      "r": "0x3f9c7aaff14318d35cdfc44fde8570f563d731ebe9455bb09e9722e37cd74d26",
      "s": "0x27eb28ecc73a73b81b98cd7d588903d7b00e3d7584df969476479f680de01650",
      "v": 27,
      "creates": null,
      "raw": "0xf86d08850dab925fde8252089432be343b94f860124dc4fee278fdcbd38c102d88890ad78a5af993418000801ba03f9c7aaff14318d35cdfc44fde8570f563d731ebe9455bb09e9722e37cd74d26a027eb28ecc73a73b81b98cd7d588903d7b00e3d7584df969476479f680de01650",
      "networkId": 0,
      "chainId": 0
    }
  ]
}