{
  "hash": "0x703a9d7f2a2cae28179e02592fe7120fe614601f6fc707f5a5b41e1d9bf29670",
  "parentHash": "0xcf7896c3c5520470e6ba20dbce2d76a469c96d9a50765396566f4b4711d9480b",
  "number": 85011,
  "timestamp": 1439557306,
  "nonce": "0xbe9322ee3bbecfe1",
  "difficulty": 2719794421284,
  "gasLimit": {
    "_hex": "0x2fefd8"
  },
  "gasUsed": {
    "_hex": "0xa410"
  },
  "miner": "0x00eBA8Ef4fF9B21Ec2FFF273953fDCC81f6fE7da",
  "extraData": "0x476574682f76312e302e312f6c696e75782f676f312e342e32",
  "transactions": [
    {
      "hash": "0xc90d6456b340a24cdfb2b080a82294b83c950de193c1d2ad7da79be4302fd44b",
      "blockHash": "0x703a9d7f2a2cae28179e02592fe7120fe614601f6fc707f5a5b41e1d9bf29670",
      "blockNumber": 85011,
      "transactionIndex": 0,
      "confirmations": null,
      "from": "0xc0920452d99591a4e8b190632c52754c72F73328",
      "gasPrice": {
        "_hex": "0xd49d92ae3"
      },
      "gasLimit": {
        "_hex": "0x5208"
      },
      "to": "0x32Be343B94f860124dC4fEe278FDCBD38C102D88",
      "value": {
        "_hex": "0x34066a4af4d15400"
      },
      "nonce": 5,
      "data": "0x",
      "r": "0x4602847d1f0b9d853f9eb79a019f5e76ea541d07424dfd7ab0861d2c284f5ba3",
      "s": "0x03eeb63146c25076bc0f529518c8e3ea2d8b1fae50b70bb31ac650e546eed4ad",
      "v": 27,
      "creates": null,
      "raw": "0xf86c05850d49d92ae38252089432be343b94f860124dc4fee278fdcbd38c102d888834066a4af4d15400801ba04602847d1f0b9d853f9eb79a019f5e76ea541d07424dfd7ab0861d2c284f5ba3a003eeb63146c25076bc0f529518c8e3ea2d8b1fae50b70bb31ac650e546eed4ad",
      "networkId": 0,
      "chainId": 0
    },
    {
      "hash": "0x87859b3f3509de2ca795c13e170867268fd8fc26ef5a34e98420f07987a1d5cd",
      "blockHash": "0x703a9d7f2a2cae28179e02592fe7120fe614601f6fc707f5a5b41e1d9bf29670",
      "blockNumber": 85011,
      "transactionIndex": 1,
      "confirmations": null,
      "from": "0x4E61B2316C9A92a4F5F078A71f2E78f1e2208F34",
      "gasPrice": {
        "_hex": "0xd49d92ae3"
      },
      "gasLimit": {
        "_hex": "0x5208"
      },
      "to": "0x32Be343B94f860124dC4fEe278FDCBD38C102D88",
      "value": {
        "_hex": "0x1cb235944e34e400"
      },
      "nonce": 1,
      "data": "0x",
      "r": "0x4740b1353ab40202375e75c68306a37d06e7d587de189afdbf76bd2cfb9f8ce6",
      "s": "0x24645386a80aa00836721e447e5b1af323f3f08006304b8182f1a59adb4656f5",
      "v": 27,
      "creates": null,
      "raw": "0xf86c01850d49d92ae38252089432be343b94f860124dc4fee278fdcbd38c102d88881cb235944e34e400801ba04740b1353ab40202375e75c68306a37d06e7d587de189afdbf76bd2cfb9f8ce6a024645386a80aa00836721e447e5b1af323f3f08006304b8182f1a59adb4656f5",
      "networkId": 0,
      "chainId": 0
    }
  ]
}