{
  "hash": "0x780ab3b1ca0351c43de08888f07c9e632bbff4ac5e867e926686a825a0984d14",
  "parentHash": "0x729200861774a628d9f53f5c538ef15f8c1539dba2be9e5992fb7d8aa029513d",
  "number": 47021,
  "timestamp": 1438933265,
  "nonce": "0xfbf3255db925cee8",
  "difficulty": 1449612016706,
  "gasLimit": {
    "_hex": "0x906c"
  },
  "gasUsed": {
    "_hex": "0x5208"
  },
  "miner": "0x1D889aFF5D57138c9819412d63b5d877567B5936",
  "extraData": "0x476574682f76312e302e312f77696e646f77732f676f312e342e32",
  "transactions": [
    {
      "hash": "0xfd5f3d37031cd8d987f1d3f8b34c97b6fae7eb365e298be06f2993e697fe04f5",
      "blockHash": "0x780ab3b1ca0351c43de08888f07c9e632bbff4ac5e867e926686a825a0984d14",
      "blockNumber": 47021,
      "transactionIndex": 0,
      "confirmations": null,
      "from": "0xe6A7a1d47ff21B6321162AEA7C6CB457D5476Bca",
      "gasPrice": {
        "_hex": "0xcae10c95c"
      },
      "gasLimit": {
        "_hex": "0x5208"
      },
      "to": "0xd4dc4b9843C73687bfc779afB40669da5F766Ef6",
      "value": {
        "_hex": "0x1d1a7424f2418738"
      },
      "nonce": 31,
      "data": "0x",
      "r": "0x0787a7681b8e395cb01659231328e9b54ebea69a573e6ecf60ee6d794c9ce4d6",
      "s": "0x6c4503585b2131c723175586e0098b6a780a69e3e91c985c4e97ff11c3f29515",
      "v": 27,
      "creates": null,
      "raw": "0xf86c1f850cae10c95c82520894d4dc4b9843c73687bfc779afb40669da5f766ef6881d1a7424f2418738801ba00787a7681b8e395cb01659231328e9b54ebea69a573e6ecf60ee6d794c9ce4d6a06c4503585b2131c723175586e0098b6a780a69e3e91c985c4e97ff11c3f29515",
      "networkId": 0,
      "chainId": 0
    }
  ]
}