{
  "hash": "0x2c85af78598baa67e9828c202e9f90e0bb50d634044fc5d4bade240f5dfd822b",
  "parentHash": "0x7165ca39ec00a3eb2eac112d184f6b25c2a09a4eb9d8a99f32be1912190486be",
  "number": 80766,
  "timestamp": 1439490456,
  "nonce": "0xb2f912059925a100",
  "difficulty": 2445204448209,
  "gasLimit": {
    "_hex": "0x2fefd8"
  },
  "gasUsed": {
    "_hex": "0xf618"
  },
  "miner": "0xBD744E3F13D79B33F6c8E1d5E32F8E9BA2866c46",
  "extraData": "0x476574682f76312e302e312d39613032663533372f6c696e75782f676f312e34",
  "transactions": [
    {
      "hash": "0xa74c224c2cf11332fde6172a46700b6ae79c1513164dbd3b4cd549cd7faa2d06",
      "blockHash": "0x2c85af78598baa67e9828c202e9f90e0bb50d634044fc5d4bade240f5dfd822b",
      "blockNumber": 80766,
      "transactionIndex": 0,
      "confirmations": null,
      "from": "0x2237202dcd4E21eed6Fb8f10843068cB31495938",
      "gasPrice": {
        "_hex": "0xba43b7400"
      },
      "gasLimit": {
        "_hex": "0x5208"
      },
      "to": "0xC47Aaa860008be6f65B58c6C6E02a84e666EfE31",
      "value": {
        "_hex": "0xdb974c90a901dc0"
      },
      "nonce": 0,
      "data": "0x",
      "r": "0x84155c00d365f452ac2c5fcaacda50d36ad070ca4e23dca8a137835e447682ee",
      "s": "0x2906cca06a1266228f44afa150bbaa09c856361e3470fb098564edfe47586d78",
      "v": 27,
      "creates": null,
      "raw": "0xf86c80850ba43b740082520894c47aaa860008be6f65b58c6c6e02a84e666efe31880db974c90a901dc0801ba084155c00d365f452ac2c5fcaacda50d36ad070ca4e23dca8a137835e447682eea02906cca06a1266228f44afa150bbaa09c856361e3470fb098564edfe47586d78",
      "networkId": 0,
      "chainId": 0
    },
    {
      "hash": "0x4c51f4b568b052d365751126db0460a671f23a5c679db8777e5e8d1764237e18",
      "blockHash": "0x2c85af78598baa67e9828c202e9f90e0bb50d634044fc5d4bade240f5dfd822b",
      "blockNumber": 80766,
      "transactionIndex": 1,
      "confirmations": null,
      "from": "0x1595C4fa4989C67D937ae55EF3BF5c37a6f522f9",
      "gasPrice": {
        "_hex": "0xba43b7400"
      },
      "gasLimit": {
        "_hex": "0x5208"
      },
      "to": "0xC47Aaa860008be6f65B58c6C6E02a84e666EfE31",
      "value": {
        "_hex": "0x22ae0dc8f5671dc0"
      },
      "nonce": 1,
      "data": "0x",
      "r": "0x589d696e980f5fd3e0ff40354768c7853785db35de7c8577340a2ba9dd552d5a",
      "s": "0x24064dc9597b4f71a339b285fd0fc058ad4e3729ee61a5b3f2475b3cc59d7189",
      "v": 28,
      "creates": null,
      "raw": "0xf86c01850ba43b740082520894c47aaa860008be6f65b58c6c6e02a84e666efe318822ae0dc8f5671dc0801ca0589d696e980f5fd3e0ff40354768c7853785db35de7c8577340a2ba9dd552d5aa024064dc9597b4f71a339b285fd0fc058ad4e3729ee61a5b3f2475b3cc59d7189",
      "networkId": 0,
      "chainId": 0
    },
    {
      "hash": "0xcd5a05a1f09d773a7579290d590c5f75599ea12f98fdbc5f488daf3d20095296",
      "blockHash": "0x2c85af78598baa67e9828c202e9f90e0bb50d634044fc5d4bade240f5dfd822b",
      "blockNumber": 80766,
      "transactionIndex": 2,
      "confirmations": null,
      "from": "0x0c14C4F9C34AA06e66dDa6AEa1419753d96092DC",
      "gasPrice": {
        "_hex": "0xba43b7400"
      },
      "gasLimit": {
        "_hex": "0x5208"
      },
      "to": "0xC47Aaa860008be6f65B58c6C6E02a84e666EfE31",
      "value": {
        "_hex": "0xb4658c2753106000"
      },
      "nonce": 0,
      "data": "0x",
      "r": "0x6caa56edd255a5a1679fc2dca729e88456a53c63ad93a2d687d7f335d51958ec",
      "s": "0x1cd3b1a7532ee6cc4d7c1e9f4c8d1b675dada16183a084038b3102735ca76410",
      "v": 27,
      "creates": null,
      "raw": "0xf86c80850ba43b740082520894c47aaa860008be6f65b58c6c6e02a84e666efe3188b4658c2753106000801ba06caa56edd255a5a1679fc2dca729e88456a53c63ad93a2d687d7f335d51958eca01cd3b1a7532ee6cc4d7c1e9f4c8d1b675dada16183a084038b3102735ca76410",
      "networkId": 0,
      "chainId": 0
    }
  ]
}