{
  "hash": "0xf763fc7811edfc751e31125ffc0a21f6c3001d8796acc775ac495ac37dd29cd6",
  "parentHash": "0xe19bd0efc5df9bb9f123b68fe6f73cb1e486d6217a69e85abde54749cc2394d3",
  "number": 80253,
  "timestamp": 1439482548,
  "nonce": "0x6f8037f47fe0fb9d",
  "difficulty": 2387541342754,
  "gasLimit": {
    "_hex": "0x2fefd8"
  },
  "gasUsed": {
    "_hex": "0x5208"
  },
  "miner": "0x88D74a59454F6cF3B51ef6b9136AFb6b9D405A88",
  "extraData": "0x476574682f76312e302e312d37666266393930632f6c696e75782f676f312e34",
  "transactions": [
    {
      "hash": "0xba7b46a568ca59185acde50c66fa3ea94736e064d4c8ab128a19639e88798445",
      "blockHash": "0xf763fc7811edfc751e31125ffc0a21f6c3001d8796acc775ac495ac37dd29cd6",
      "blockNumber": 80253,
      "transactionIndex": 0,
      "confirmations": null,
      "from": "0x2910543Af39abA0Cd09dBb2D50200b3E800A63D2",
      "gasPrice": {
        "_hex": "0xd519fe5ab"
      },
      "gasLimit": {
        "_hex": "0x5208"
      },
      "to": "0xFD7c9117BbEB649d9b37B3D3C9917f7c12f526B3",
      "value": {
        "_hex": "0x104344570ef14f8000"
      },
      "nonce": 387,
      "data": "0x",
      "r": "0xc5e0a1458a3d7d4dd30d3c565802e9a73cb3bc0927a1c654637614ae98dfa4e5",
      "s": "0x5e6007608571a911e086ca17401b789a4eebe12b260fa993c97d25414fcde04e",
      "v": 27,
      "creates": null,
      "raw": "0xf86f820183850d519fe5ab82520894fd7c9117bbeb649d9b37b3d3c9917f7c12f526b389104344570ef14f8000801ba0c5e0a1458a3d7d4dd30d3c565802e9a73cb3bc0927a1c654637614ae98dfa4e5a05e6007608571a911e086ca17401b789a4eebe12b260fa993c97d25414fcde04e",
      "networkId": 0,
      "chainId": 0
    }
  ]
}