{
  "hash": "0xa08829b02bc6250c3f9181e15a52aa3df8ab12bc39047819a487a142423ee216",
  "parentHash": "0x161db3a1457e9663414379c69ee745ef96113c9224f6efba81e7011d38a0831a",
  "number": 91736,
  "timestamp": 1439660679,
  "nonce": "0xe8a453fdc04ab743",
  "difficulty": 3470794534011,
  "gasLimit": {
    "_hex": "0x2fefd8"
  },
  "gasUsed": {
    "_hex": "0x5208"
  },
  "miner": "0xe6A7a1d47ff21B6321162AEA7C6CB457D5476Bca",
  "extraData": "0x476574682f76312e302e312d38326566323666362f6c696e75782f676f312e34",
  "transactions": [
    {
      "hash": "0xa623ff29e84b6afc04a812c10c1c525d4009095e2707ea98c5e124867cc5e0e0",
      "blockHash": "0xa08829b02bc6250c3f9181e15a52aa3df8ab12bc39047819a487a142423ee216",
      "blockNumber": 91736,
      "transactionIndex": 0,
      "confirmations": null,
      "from": "0x7D60e9b25EaBC5f5971381c991D4757D07a2a51F",
      "gasPrice": {
        "_hex": "0x746a528800"
      },
      "gasLimit": {
        "_hex": "0x5208"
      },
      "to": "0xbe83F51A8ae2b31E67dd9Ec9E6c457Bf427Ed636",
      "value": {
        "_hex": "0xe043da617250000"
      },
      "nonce": 0,
      "data": "0x",
      "r": "0x47541d08b37415ce51e0e1f02d1b5e6d2e381137141f3b1d39f7b9bc591c7843",
      "s": "0x547b0baccd4ad7a2295fe5f9ef302bd4d06387c160a6b5d8331b80a56021119d",
      "v": 27,
      "creates": null,
      "raw": "0xf86c8085746a52880082520894be83f51a8ae2b31e67dd9ec9e6c457bf427ed636880e043da617250000801ba047541d08b37415ce51e0e1f02d1b5e6d2e381137141f3b1d39f7b9bc591c7843a0547b0baccd4ad7a2295fe5f9ef302bd4d06387c160a6b5d8331b80a56021119d",
      "networkId": 0,
      "chainId": 0
    }
  ]
}