{
  "hash": "0x1c73039d186df1756271043b68df19f68a468fefa581f98bd31b5a7e10234cab",
  "parentHash": "0x7ee923d50f48030c494ceda93e0ff794f12e0110ca2a8270236eb36d52d97960",
  "number": 87404,
  "timestamp": 1439591622,
  "nonce": "0x7937381445eed5a6",
  "difficulty": 3124990353942,
  "gasLimit": {
    "_hex": "0x2fefd8"
  },
  "gasUsed": {
    "_hex": "0x5208"
  },
  "miner": "0xF2d2AfF1320476cb8C6b607199D23175cc595693",
  "extraData": "0x476574682f76312e302e312f77696e646f77732f676f312e342e32",
  "transactions": [
    {
      "hash": "0xe29efd9d326b7cd1247d76d94428960f13ac63f2a6695a29efe3b0c39655377a",
      "blockHash": "0x1c73039d186df1756271043b68df19f68a468fefa581f98bd31b5a7e10234cab",
      "blockNumber": 87404,
      "transactionIndex": 0,
      "confirmations": null,
      "from": "0x108feDb097c1DCfED441480170144D8e19BB217f",
      "gasPrice": {
        "_hex": "0xdc678b475"
      },
      "gasLimit": {
        "_hex": "0x5208"
      },
      "to": "0x32Be343B94f860124dC4fEe278FDCBD38C102D88",
      "value": {
        "_hex": "0x2657158c4d34d0000"
      },
      "nonce": 1,
      "data": "0x",
      "r": "0xb8fb5d0385921e039cd77576a1cd9cca7a9b0c9e073b9c69f0482c769503c7cb",
      "s": "0x78fbb1edee8c6a4f5d6d9bb8b3eeec3a71ca544032b2267fb63ee946233091c0",
      "v": 27,
      "creates": null,
      "raw": "0xf86d01850dc678b4758252089432be343b94f860124dc4fee278fdcbd38c102d888902657158c4d34d0000801ba0b8fb5d0385921e039cd77576a1cd9cca7a9b0c9e073b9c69f0482c769503c7cba078fbb1edee8c6a4f5d6d9bb8b3eeec3a71ca544032b2267fb63ee946233091c0",
      "networkId": 0,
      "chainId": 0
    }
  ]
}