{
  "hash": "0xd40241b467035a181b5519a1a5e617bbbb07ea92c365eb1f34900a11269a3639",
  "parentHash": "0x399f295a7d3694d087d4df3bae4f4aff96f4ab7fb4b7bd2b250e354a489b2464",
  "number": 67980,
  "timestamp": 1439280651,
  "nonce": "0x445ffdbc9824b075",
  "difficulty": 1944848691160,
  "gasLimit": {
    "_hex": "0x2fefd8"
  },
  "gasUsed": {
    "_hex": "0xbef1"
  },
  "miner": "0x580992B51e3925e23280EfB93d3047C82f17E038",
  "extraData": "0x476574682f76312e302e312f6c696e75782f676f312e342e32",
  "transactions": [
    {
      "hash": "0x8dbc85dc9ba814e82dcea8af39623f904d22d9f44f71a41c898d60640b47c3be",
      "blockHash": "0xd40241b467035a181b5519a1a5e617bbbb07ea92c365eb1f34900a11269a3639",
      "blockNumber": 67980,
      "transactionIndex": 0,
      "confirmations": null,
      "from": "0x976349705b839e2F5719387Fb27D2519d519da03",
      "gasPrice": {
        "_hex": "0xde1320e46"
      },
      "gasLimit": {
        "_hex": "0x15f90"
      },
      "to": "0x125B606C67E8066Da65069652b656c19717745Fa",
      "value": {
        "_hex": "0x49f7b90b288a06"
      },
      "nonce": 17,
      "data": "0xa55526db",
      "r": "0xb9bb21625a6a9d0908a7a5119006c9d852b339909e8525910d06b95cf117b161",
      "s": "0x5166722f4b71b2104f188e676a7d08502fd76df91c1c84d40393679db504d43a",
      "v": 27,
      "creates": null,
      "raw": "0xf87011850de1320e4683015f9094125b606c67e8066da65069652b656c19717745fa8749f7b90b288a0684a55526db1ba0b9bb21625a6a9d0908a7a5119006c9d852b339909e8525910d06b95cf117b161a05166722f4b71b2104f188e676a7d08502fd76df91c1c84d40393679db504d43a",
      "networkId": 0,
      "chainId": 0
    }
  ]
}