{
  "hash": "0x51db2b6ff6f9e69fe34d6d45c2ae5b9757d40bc7027209d5021a9a8a6f76c7cc",
  "parentHash": "0xaafafc352b6adcc57ae574839a71c80f04f09ffccf5b6b918f91fca405eb4cda",
  "number": 49162,
  "timestamp": 1438969091,
  "nonce": "0x2e30b9c662b7ea6b",
  "difficulty": 1475662625423,
  "gasLimit": {
    "_hex": "0x27a77"
  },
  "gasUsed": {
    "_hex": "0xf87c"
  },
  "miner": "0x1D889aFF5D57138c9819412d63b5d877567B5936",
  "extraData": "0x476574682f76312e302e312f77696e646f77732f676f312e342e32",
  "transactions": [
    {
      "hash": "0x04255eeb0a0d841f395976629f6658ad2955df8e2df01982f7d36f22c57c3e77",
      "blockHash": "0x51db2b6ff6f9e69fe34d6d45c2ae5b9757d40bc7027209d5021a9a8a6f76c7cc",
      "blockNumber": 49162,
      "transactionIndex": 0,
      "confirmations": null,
      "from": "0x2bb366B9eDCb0DA680f0e10b3B6E28748190d6c3",
      "gasPrice": {
        "_hex": "0x110c8f7d8de"
      },
      "gasLimit": {
        "_hex": "0xc350"
      },
      "to": "0x2910543Af39abA0Cd09dBb2D50200b3E800A63D2",
      "value": {
        "_hex": "0x13a5a8414a40f280000"
      },
      "nonce": 0,
      "data": "0x454e3930564b4a4530",
      "r": "0x125c22e91fa3affa1521d44608eb4ed8ebcbc8fa2bff6270c5a6c9e633285288",
      "s": "0x911448fac411f642eb6ed8137a56e7221d1379e95e0fabee44b186d4176dfafd",
      "v": 28,
      "creates": null,
      "raw": "0xf87880860110c8f7d8de82c350942910543af39aba0cd09dbb2d50200b3e800a63d28a013a5a8414a40f28000089454e3930564b4a45301ca0125c22e91fa3affa1521d44608eb4ed8ebcbc8fa2bff6270c5a6c9e633285288a0911448fac411f642eb6ed8137a56e7221d1379e95e0fabee44b186d4176dfafd",
      "networkId": 0,
      "chainId": 0
    },
    {
      "hash": "0x64e86e8cdace595e85b52ac9893313de64e4d610dd92dc521821b06db647ff13",
      "blockHash": "0x51db2b6ff6f9e69fe34d6d45c2ae5b9757d40bc7027209d5021a9a8a6f76c7cc",
      "blockNumber": 49162,
      "transactionIndex": 1,
      "confirmations": null,
      "from": "0x8Fa7ce8b18F17Dc2392067a111AcEa95AC7b2744",
      "gasPrice": {
        "_hex": "0x10b3ec4f464"
      },
      "gasLimit": {
        "_hex": "0x55f0"
      },
      "to": "0x93868ddb2a794d02eBDA2FA4807c76E3609858Dc",
      "value": {
        "_hex": "0x8e1bc9bf040000"
      },
      "nonce": 1,
      "data": "0x",
      "r": "0x060be606bb7368886ba3c928b493efe0ab3c5b4c006edb1e7d4791873b1b6e19",
      "s": "0x2e00531cea32a0194cae36acaed03dbb8396d391fd4bb5a36c7ef999b3d13ada",
      "v": 28,
      "creates": null,
      "raw": "0xf86c0186010b3ec4f4648255f09493868ddb2a794d02ebda2fa4807c76e3609858dc878e1bc9bf040000801ca0060be606bb7368886ba3c928b493efe0ab3c5b4c006edb1e7d4791873b1b6e19a02e00531cea32a0194cae36acaed03dbb8396d391fd4bb5a36c7ef999b3d13ada",
      "networkId": 0,
      "chainId": 0
    },
    {
      "hash": "0x621cca93b7e454fab507c5c391411ccd9ce13218e3837f7a5f310fd5f876a167",
      "blockHash": "0x51db2b6ff6f9e69fe34d6d45c2ae5b9757d40bc7027209d5021a9a8a6f76c7cc",
      "blockNumber": 49162,
      "transactionIndex": 2,
      "confirmations": null,
      "from": "0x0089508679abF8c71BF6781687120e3E6a84584D",
      "gasPrice": {
        "_hex": "0xd1253e886"
      },
      "gasLimit": {
        "_hex": "0x15f90"
      },
      "to": "0xBb12b5a9B85D4AB8CDE6056E9c1b2a4a337D2261",
      "value": {
        "_hex": "0xde0b6b3a7640000"
      },
      "nonce": 1,
      "data": "0x",
      "r": "0xee71ed0b2287a205db6c1a2c6be1631ce2c50867cdee1d664c1db15b062751c9",
      "s": "0x2cf644cb47a82987ccfd5706fb5ec5cc24869e3b2bd373aebea74aa90bec5404",
      "v": 28,
      "creates": null,
      "raw": "0xf86d01850d1253e88683015f9094bb12b5a9b85d4ab8cde6056e9c1b2a4a337d2261880de0b6b3a7640000801ca0ee71ed0b2287a205db6c1a2c6be1631ce2c50867cdee1d664c1db15b062751c9a02cf644cb47a82987ccfd5706fb5ec5cc24869e3b2bd373aebea74aa90bec5404",
      "networkId": 0,
      "chainId": 0
    }
  ]
}