{
  "hash": "0x818cd881a23ce49023c1ed2dd0afc3ecbc3fb15b8aa0960f58395a68c7525603",
  "parentHash": "0xb97004ff5400975ed81371087d78ab543ee7bca4bae1f47212a9ff948019c4f7",
  "number": 69586,
  "timestamp": 1439306245,
  "nonce": "0x9914a10199f8991e",
  "difficulty": 2082048178797,
  "gasLimit": {
    "_hex": "0x2fe3db"
  },
  "gasUsed": {
    "_hex": "0xa414"
  },
  "miner": "0xE4BA8cF48d11D4cd54fba46C5331b5477DbF5539",
  "extraData": "0x476574682f76312e302e312f77696e646f77732f676f312e342e32",
  "transactions": [
    {
      "hash": "0x94830ef76e954014294cc1217f5851d60bef54943c51bf31760155d1bc162943",
      "blockHash": "0x818cd881a23ce49023c1ed2dd0afc3ecbc3fb15b8aa0960f58395a68c7525603",
      "blockNumber": 69586,
      "transactionIndex": 0,
      "confirmations": null,
      "from": "0x4E567864EC2EFAd2a2186806b9aFeeF0cAF9a427",
      "gasPrice": {
        "_hex": "0xd7d40ace3"
      },
      "gasLimit": {
        "_hex": "0x55f0"
      },
      "to": "0x4E567864EC2EFAd2a2186806b9aFeeF0cAF9a427",
      "value": {
        "_hex": "0xde0b6b3a7640000"
      },
      "nonce": 4,
      "data": "0x00",
      "r": "0x14ca552362cb4e3726436eb177042255f9a07b2249f7184fa132fab51c1770da",
      "s": "0xeb0f3e65cc279c197296a739c4ce69442dc7a5762a082d709b4d64b713a37759",
      "v": 27,
      "creates": null,
      "raw": "0xf86c04850d7d40ace38255f0944e567864ec2efad2a2186806b9afeef0caf9a427880de0b6b3a7640000001ba014ca552362cb4e3726436eb177042255f9a07b2249f7184fa132fab51c1770daa0eb0f3e65cc279c197296a739c4ce69442dc7a5762a082d709b4d64b713a37759",
      "networkId": 0,
      "chainId": 0
    },
    {
      "hash": "0x966cc557ee0a91bd2ba03d321294b59dd16c9bd72088483521ac7073058c381e",
      "blockHash": "0x818cd881a23ce49023c1ed2dd0afc3ecbc3fb15b8aa0960f58395a68c7525603",
      "blockNumber": 69586,
      "transactionIndex": 1,
      "confirmations": null,
      "from": "0x32Be343B94f860124dC4fEe278FDCBD38C102D88",
      "gasPrice": {
        "_hex": "0xcba1ef639"
      },
      "gasLimit": {
        "_hex": "0x5208"
      },
      "to": "0x120A270bbC009644e35F0bB6ab13f95b8199c4ad",
      "value": {
        "_hex": "0x10f0cf064dd59200000"
      },
      "nonce": 234,
      "data": "0x",
      "r": "0x9381b126aabdfa34e5216e01201d4ee593ca9dfcde431ed7a628cf371750a9e2",
      "s": "0x6dfec0ab241df532c97b51ac9c71696aecafa5fce694922c38318821703bdd22",
      "v": 27,
      "creates": null,
      "raw": "0xf86f81ea850cba1ef63982520894120a270bbc009644e35f0bb6ab13f95b8199c4ad8a010f0cf064dd59200000801ba09381b126aabdfa34e5216e01201d4ee593ca9dfcde431ed7a628cf371750a9e2a06dfec0ab241df532c97b51ac9c71696aecafa5fce694922c38318821703bdd22",
      "networkId": 0,
      "chainId": 0
    }
  ]
}