{
  "hash": "0x5cb3e703ba71225c3a0c8ef52694fe46b670f1b883084738f8e9fd20d5b78804",
  "parentHash": "0xfe1abf8f60213425fba565c75823d024799844b032f683ee7bb55324f748582c",
  "number": 51406,
  "timestamp": 1439004355,
  "nonce": "0xd7d39c580e7e1b87",
  "difficulty": 1565820453425,
  "gasLimit": {
    "_hex": "0xad53d"
  },
  "gasUsed": {
    "_hex": "0x7a120"
  },
  "miner": "0xf927a40C8B7F6E07c5af7FA2155B4864a4112B13",
  "extraData": "0x476574682f76312e302e312f6c696e75782f676f312e342e32",
  "transactions": [
    {
      "hash": "0xe0fd1ada3c2426d828595de5f3f5beadf2a9fd8ab6f3452144ddc434cc41ce31",
      "blockHash": "0x5cb3e703ba71225c3a0c8ef52694fe46b670f1b883084738f8e9fd20d5b78804",
      "blockNumber": 51406,
      "transactionIndex": 0,
      "confirmations": null,
      "from": "0x4245FB34599786Dd82dB47c0f4f2B276001a72CF",
      "gasPrice": {
        "_hex": "0xd890729c9"
      },
      "gasLimit": {
        "_hex": "0x7a120"
      },
      "to": "0x109C4f2CCc82C4d77Bde15F306707320294Aea3F",
      "value": {
        "_hex": "0xde0b6b3a7640000"
      },
      "nonce": 0,
      "data": "0x",
      "r": "0xef5cca9cb50371a5d508d584863e14e81f1fc9f4c02d4c0e3d197c08d9194b52",
      "s": "0x0b6e0b5a01729317906be1fc10c646faff43de33c177b940777c6ef349cd24a0",
      "v": 28,
      "creates": null,
      "raw": "0xf86d80850d890729c98307a12094109c4f2ccc82c4d77bde15f306707320294aea3f880de0b6b3a7640000801ca0ef5cca9cb50371a5d508d584863e14e81f1fc9f4c02d4c0e3d197c08d9194b52a00b6e0b5a01729317906be1fc10c646faff43de33c177b940777c6ef349cd24a0",
      "networkId": 0,
      "chainId": 0
    }
  ]
}