{
  "hash": "0x654a91a7ab6f52c5c91b9f34ff4699b9a03d19d497772496c5c2d44ce08a5c5d",
  "parentHash": "0xad5969155b6619aa92e9e05462231ad97ef2499fc5176ae9193e99296c9869d1",
  "number": 110304,
  "timestamp": 1439971495,
  "nonce": "0x1644360a17f6c866",
  "difficulty": 4360727189306,
  "gasLimit": {
    "_hex": "0x2fefd8"
  },
  "gasUsed": {
    "_hex": "0x5208"
  },
  "miner": "0x070c8963Cf4abCe1BFaF5973F2E0f7697925B242",
  "extraData": "0x",
  "transactions": [
    {
      "hash": "0x3a26549effd9bf22073206bf2c34ce8d78ff9bcd59e198aa71c955740a8b0e44",
      "blockHash": "0x654a91a7ab6f52c5c91b9f34ff4699b9a03d19d497772496c5c2d44ce08a5c5d",
      "blockNumber": 110304,
      "transactionIndex": 0,
      "confirmations": null,
      "from": "0x32Be343B94f860124dC4fEe278FDCBD38C102D88",
      "gasPrice": {
        "_hex": "0xd4ab09072"
      },
      "gasLimit": {
        "_hex": "0x5208"
      },
      "to": "0xC1aF7cD316C1A99d40Dd7208172fD88dD0280a4d",
      "value": {
        "_hex": "0x498f9a5a848e10000"
      },
      "nonce": 1283,
      "data": "0x",
      "r": "0x8e7947ddd313cb4d33658bacf1250258d257e420328852aa8621a8a934d3d4ab",
      "s": "0x3e62b65e9eb96e01131ca1624abc2c71befd86074f964025f77bfb1f6d229a06",
      "v": 28,
      "creates": null,
      "raw": "0xf86f820503850d4ab0907282520894c1af7cd316c1a99d40dd7208172fd88dd0280a4d890498f9a5a848e10000801ca08e7947ddd313cb4d33658bacf1250258d257e420328852aa8621a8a934d3d4aba03e62b65e9eb96e01131ca1624abc2c71befd86074f964025f77bfb1f6d229a06",
      "networkId": 0,
      "chainId": 0
    }
  ]
}