{
  "hash": "0xa227526f54ca727fe2daa415cf8ec93e50b0aa768358a94168d0c3b89ce1b586",
  "parentHash": "0xc2531cf91a202798388810aea0ac20cbd5ee9d54e5c844aef71dc36a61765c85",
  "number": 86393,
  "timestamp": 1439577547,
  "nonce": "0xc5b2d6525d6e2c0b",
  "difficulty": 2886260925378,
  "gasLimit": {
    "_hex": "0x2fefd8"
  },
  "gasUsed": {
    "_hex": "0x546c"
  },
  "miner": "0xe6A7a1d47ff21B6321162AEA7C6CB457D5476Bca",
  "extraData": "0x476574682f76312e302e312d38326566323666362f6c696e75782f676f312e34",
  "transactions": [
    {
      "hash": "0x9b4f8e2c0d0923ab4331c3e6add76b74ae8d61c0a416048084258ac0231a423f",
      "blockHash": "0xa227526f54ca727fe2daa415cf8ec93e50b0aa768358a94168d0c3b89ce1b586",
      "blockNumber": 86393,
      "transactionIndex": 0,
      "confirmations": null,
      "from": "0x007622d84a234Bb8b078230Fcf84b67Ae9a8ACAe",
      "gasPrice": {
        "_hex": "0x110c8f7d8de"
      },
      "gasLimit": {
        "_hex": "0xc350"
      },
      "to": "0x2910543Af39abA0Cd09dBb2D50200b3E800A63D2",
      "value": {
        "_hex": "0x17979cfe362a0000"
      },
      "nonce": 1,
      "data": "0x454e55484356415247",
      "r": "0x6b2932f1208163a701aba3b8aa555dcb77a61991599a9cd45e62944f2f5d2364",
      "s": "0x679402d77c5f396a2843b395571677f70d4763da1e076edc55af82cca46d471d",
      "v": 28,
      "creates": null,
      "raw": "0xf87601860110c8f7d8de82c350942910543af39aba0cd09dbb2d50200b3e800a63d28817979cfe362a000089454e554843564152471ca06b2932f1208163a701aba3b8aa555dcb77a61991599a9cd45e62944f2f5d2364a0679402d77c5f396a2843b395571677f70d4763da1e076edc55af82cca46d471d",
      "networkId": 0,
      "chainId": 0
    }
  ]
}