{
  "hash": "0x0ea16432ff5d097392dae8179f5886893b7ada00eeaede6b13177beb970a07e3",
  "parentHash": "0x2ccdb020d05289ab9680e6d99086fcefe5573a135db1fcd01a5302b6a26c3558",
  "number": 81072,
  "timestamp": 1439495765,
  "nonce": "0xee16730397ca96b4",
  "difficulty": 2428457597395,
  "gasLimit": {
    "_hex": "0x2fefd8"
  },
  "gasUsed": {
    "_hex": "0x19a28"
  },
  "miner": "0x02dE7d35a60bf6A216411476040ec648668769D7",
  "extraData": "0x476574682f76312e302e312f77696e646f77732f676f312e342e32",
  "transactions": [
    {
      "hash": "0xeeece04865b1fc938789183b489987849487d789ea528422a60cb265ed3e4eb2",
      "blockHash": "0x0ea16432ff5d097392dae8179f5886893b7ada00eeaede6b13177beb970a07e3",
      "blockNumber": 81072,
      "transactionIndex": 0,
      "confirmations": null,
      "from": "0x738e836870D34d909F8De81Ae8c759cf55f4EAaF",
      "gasPrice": {
        "_hex": "0xcbc47b716"
      },
      "gasLimit": {
        "_hex": "0x5208"
      },
      "to": "0x32Be343B94f860124dC4fEe278FDCBD38C102D88",
      "value": {
        "_hex": "0x10f0cec5027c5d00000"
      },
      "nonce": 2,
      "data": "0x",
      "r": "0xc7ebdd755107cec7e6ce05479b6f0a94352f579c9187fd9c571261f8e9581f94",
      "s": "0x18db3128642512ffab837c7752a7b4aa2cc4e7d7aeb6d3e179dff1e9872a744d",
      "v": 27,
      "creates": null,
      "raw": "0xf86e02850cbc47b7168252089432be343b94f860124dc4fee278fdcbd38c102d888a010f0cec5027c5d00000801ba0c7ebdd755107cec7e6ce05479b6f0a94352f579c9187fd9c571261f8e9581f94a018db3128642512ffab837c7752a7b4aa2cc4e7d7aeb6d3e179dff1e9872a744d",
      "networkId": 0,
      "chainId": 0
    },
    {
      "hash": "0x29c11464e0f98f727523e8a3d7b05d93728a361f3a0e31c2d1ef13739b1b2fc4",
      "blockHash": "0x0ea16432ff5d097392dae8179f5886893b7ada00eeaede6b13177beb970a07e3",
      "blockNumber": 81072,
      "transactionIndex": 1,
      "confirmations": null,
      "from": "0x833Db9bC424dbdA6657780d1392eF714f503106C",
      "gasPrice": {
        "_hex": "0xcbc47b716"
      },
      "gasLimit": {
        "_hex": "0x5208"
      },
      "to": "0x32Be343B94f860124dC4fEe278FDCBD38C102D88",
      "value": {
        "_hex": "0x22b18775c944fa000"
      },
      "nonce": 1,
      "data": "0x",
      "r": "0x5c4858ec41454d3292e7f9851f042c043337eac5079fbf229173af8e4284edf1",
      "s": "0x400bf5d79ace8671965608b57ef96b24ef512f031400c4d20b47abeaa20fab7b",
      "v": 28,
      "creates": null,
      "raw": "0xf86d01850cbc47b7168252089432be343b94f860124dc4fee278fdcbd38c102d8889022b18775c944fa000801ca05c4858ec41454d3292e7f9851f042c043337eac5079fbf229173af8e4284edf1a0400bf5d79ace8671965608b57ef96b24ef512f031400c4d20b47abeaa20fab7b",
      "networkId": 0,
      "chainId": 0
    },
    {
      "hash": "0xb276db44a42f313e2570958e76d5ac139b560200afbba5b0a35544b04fd24897",
      "blockHash": "0x0ea16432ff5d097392dae8179f5886893b7ada00eeaede6b13177beb970a07e3",
      "blockNumber": 81072,
      "transactionIndex": 2,
      "confirmations": null,
      "from": "0xdEC7d1B05f89c0Ce0870Ea4AeA18138264675478",
      "gasPrice": {
        "_hex": "0xcbc47b716"
      },
      "gasLimit": {
        "_hex": "0x5208"
      },
      "to": "0x32Be343B94f860124dC4fEe278FDCBD38C102D88",
      "value": {
        "_hex": "0x410d4291f1d9900000"
      },
      "nonce": 4,
      "data": "0x",
      "r": "0x71bae554ace68c8ab262b4187089f9fe8799be86974911346ec277962bdfc651",
      "s": "0x454ae9f48e2f9bcd11912bb8e3813b2741218f3efc5e00abf321db97a2060631",
      "v": 28,
      "creates": null,
      "raw": "0xf86d04850cbc47b7168252089432be343b94f860124dc4fee278fdcbd38c102d8889410d4291f1d9900000801ca071bae554ace68c8ab262b4187089f9fe8799be86974911346ec277962bdfc651a0454ae9f48e2f9bcd11912bb8e3813b2741218f3efc5e00abf321db97a2060631",
      "networkId": 0,
      "chainId": 0
    },
    {
      "hash": "0x454bac4917bdd705e8f9bcd522fdd7f7ca594acdd44cb0fb97b92fa3d7ce39da",
      "blockHash": "0x0ea16432ff5d097392dae8179f5886893b7ada00eeaede6b13177beb970a07e3",
      "blockNumber": 81072,
      "transactionIndex": 3,
      "confirmations": null,
      "from": "0x1cf40bA5af782c541AC24e8FB9Bdd82dD0EF4900",
      "gasPrice": {
        "_hex": "0xcbc47b716"
      },
      "gasLimit": {
        "_hex": "0x5208"
      },
      "to": "0x32Be343B94f860124dC4fEe278FDCBD38C102D88",
      "value": {
        "_hex": "0x56bc34977cfbf8000"
      },
      "nonce": 0,
      "data": "0x",
      "r": "0x4587db5dd1ba2177006116ab543018b7ec3a99864e55615f9e45ce48ea0a9484",
      "s": "0x2e2a894d1c97991c89b23f85170727b128a9df58b87f9798281141c465032526",
      "v": 27,
      "creates": null,
      "raw": "0xf86d80850cbc47b7168252089432be343b94f860124dc4fee278fdcbd38c102d8889056bc34977cfbf8000801ba04587db5dd1ba2177006116ab543018b7ec3a99864e55615f9e45ce48ea0a9484a02e2a894d1c97991c89b23f85170727b128a9df58b87f9798281141c465032526",
      "networkId": 0,
      "chainId": 0
    },
    {
      "hash": "0x31fdf21dd4717498fe8a95cacdcd496a33dfe7f39e4d4afbc9f7e2633d45036a",
      "blockHash": "0x0ea16432ff5d097392dae8179f5886893b7ada00eeaede6b13177beb970a07e3",
      "blockNumber": 81072,
      "transactionIndex": 4,
      "confirmations": null,
      "from": "0x5cBB39862E5efC915765355583BE5aF46CB29180",
      "gasPrice": {
        "_hex": "0xcbc47b716"
      },
      "gasLimit": {
        "_hex": "0x5208"
      },
      "to": "0x32Be343B94f860124dC4fEe278FDCBD38C102D88",
      "value": {
        "_hex": "0xa9215486065730000"
      },
      "nonce": 0,
      "data": "0x",
      "r": "0xabb40bc16ee6acf49111b3264e6cf1b8fc80eea4489273fabf8a592716334383",
      "s": "0x7fc894959095704740e934e49c58eae777b701e08285919d6bf13ea7104139a9",
      "v": 28,
      "creates": null,
      "raw": "0xf86d80850cbc47b7168252089432be343b94f860124dc4fee278fdcbd38c102d88890a9215486065730000801ca0abb40bc16ee6acf49111b3264e6cf1b8fc80eea4489273fabf8a592716334383a07fc894959095704740e934e49c58eae777b701e08285919d6bf13ea7104139a9",
      "networkId": 0,
      "chainId": 0
    }
  ]
}