{
  "hash": "0xb0279f3d4d2a64da28910d06c231d3fd58604179a2d533750ca163717e467ef5",
  "parentHash": "0xd080fcc34de4524e8575237aaf833ee33ac2fd6ebbb0d6d28440d139dcc36e9f",
  "number": 66856,
  "timestamp": 1439261511,
  "nonce": "0xe09d38de4ec3b6ab",
  "difficulty": 1948912055659,
  "gasLimit": {
    "_hex": "0x2fefd8"
  },
  "gasUsed": {
    "_hex": "0xa410"
  },
  "miner": "0x88D74a59454F6cF3B51ef6b9136AFb6b9D405A88",
  "extraData": "0x476574682f76312e302e312d37666266393930632f6c696e75782f676f312e34",
  "transactions": [
    {
      "hash": "0x73ac836d45bb877c79c18d822e361999a060765c0c3c8d335920e697a85e7df8",
      "blockHash": "0xb0279f3d4d2a64da28910d06c231d3fd58604179a2d533750ca163717e467ef5",
      "blockNumber": 66856,
      "transactionIndex": 0,
      "confirmations": null,
      "from": "0xD2020Fbe09664286b4dBd7DA4c0c482404d0165D",
      "gasPrice": {
        "_hex": "0xd1f217cbf"
      },
      "gasLimit": {
        "_hex": "0x15f90"
      },
      "to": "0xC25f24A505b8fEF751D8f4FCc397651001F7a160",
      "value": {
        "_hex": "0x45400a8fd5330000"
      },
      "nonce": 0,
      "data": "0x",
      "r": "0xb6a265d0f5617ed1a11f5ae9f0cba95cede2abe23c3b043be373e70c8fbbd5d9",
      "s": "0x5ef59825fec3d8a8a89d5527d414c6c9b4282bb335ad99f5b1258484dae5222f",
      "v": 27,
      "creates": null,
      "raw": "0xf86d80850d1f217cbf83015f9094c25f24a505b8fef751d8f4fcc397651001f7a1608845400a8fd5330000801ba0b6a265d0f5617ed1a11f5ae9f0cba95cede2abe23c3b043be373e70c8fbbd5d9a05ef59825fec3d8a8a89d5527d414c6c9b4282bb335ad99f5b1258484dae5222f",
      "networkId": 0,
      "chainId": 0
    },
    {
      "hash": "0x46185e531dfd9c568453e496acfe7d3b68416466680488d4731662b6cf204454",
      "blockHash": "0xb0279f3d4d2a64da28910d06c231d3fd58604179a2d533750ca163717e467ef5",
      "blockNumber": 66856,
      "transactionIndex": 1,
      "confirmations": null,
      "from": "0x2910543Af39abA0Cd09dBb2D50200b3E800A63D2",
      "gasPrice": {
        "_hex": "0xcb130cc41"
      },
      "gasLimit": {
        "_hex": "0x5208"
      },
      "to": "0x36c68a0907F43244f6dD524a7144A2C5982eb1A1",
      "value": {
        "_hex": "0x1bafa9ee16e78000"
      },
      "nonce": 205,
      "data": "0x",
      "r": "0xda2572f4afbad893b69d79aa89a6fb58ceae3cddec6f49031e042aee4850abc7",
      "s": "0x78d4b0db42225a2eab6c961fb713dd8fdbe1fe539a084f8df7b09810f56fa6ac",
      "v": 27,
      "creates": null,
      "raw": "0xf86d81cd850cb130cc418252089436c68a0907f43244f6dd524a7144a2c5982eb1a1881bafa9ee16e78000801ba0da2572f4afbad893b69d79aa89a6fb58ceae3cddec6f49031e042aee4850abc7a078d4b0db42225a2eab6c961fb713dd8fdbe1fe539a084f8df7b09810f56fa6ac",
      "networkId": 0,
      "chainId": 0
    }
  ]
}