{
  "hash": "0xb5e8d45a919db22b143cb6b8c49cedf00fca32442df35d3c36e8c1e20f3c7fe9",
  "parentHash": "0x0292c7fdccbd0264ce4c6ff620982d8223e40dfef9aac8b48d5b122075fdb4d2",
  "number": 46426,
  "timestamp": 1438922983,
  "nonce": "0xeccfdc0640e98b12",
  "difficulty": 1467520009463,
  "gasLimit": {
    "_hex": "0x6058"
  },
  "gasUsed": {
    "_hex": "0x5208"
  },
  "miner": "0xf0E93902C82C20C953Ba57D195E6C2987E6ba37F",
  "extraData": "0x476574682f76312e302e312f77696e646f77732f676f312e342e32",
  "transactions": [
    {
      "hash": "0x934570b14b251a78fa11aa42d61264b7433eb67c16de8af51e385c1f238776d7",
      "blockHash": "0xb5e8d45a919db22b143cb6b8c49cedf00fca32442df35d3c36e8c1e20f3c7fe9",
      "blockNumber": 46426,
      "transactionIndex": 0,
      "confirmations": null,
      "from": "0x4BD5f0Ee173C81d42765154865EE69361b6aD189",
      "gasPrice": {
        "_hex": "0x746a528800"
      },
      "gasLimit": {
        "_hex": "0x5b04"
      },
      "to": "0x18ba9b3C8e3f8eBcb7325737c0f3004397F5B9ac",
      "value": {
        "_hex": "0x4563918244f40000"
      },
      "nonce": 0,
      "data": "0x",
      "r": "0x5423fed0a408bfbf98d76181a09ce895d247eb7d1275b5e90f4bbeae22b98042",
      "s": "0xac20a73d82592abaa5a676fe36bd92bd7d9a0d726f0fe396a14a6602a9c26f5f",
      "v": 28,
      "creates": null,
      "raw": "0xf86c8085746a528800825b049418ba9b3c8e3f8ebcb7325737c0f3004397f5b9ac884563918244f40000801ca05423fed0a408bfbf98d76181a09ce895d247eb7d1275b5e90f4bbeae22b98042a0ac20a73d82592abaa5a676fe36bd92bd7d9a0d726f0fe396a14a6602a9c26f5f",
      "networkId": 0,
      "chainId": 0
    }
  ]
}