{
  "hash": "0x89161f560e431a3e42993062ba9251c8b58639f31f0c2cb801cd895c536c6f00",
  "parentHash": "0x9950a252b1da3a88e23e6723fc82014f02c8d51754a734597d919f20acb94da2",
  "number": 64414,
  "timestamp": 1439220319,
  "nonce": "0x6c02244cf93f6449",
  "difficulty": 1871137954468,
  "gasLimit": {
    "_hex": "0x2fefd8"
  },
  "gasUsed": {
    "_hex": "0x5208"
  },
  "miner": "0x90891a4dAE53428129E5E2044f4677213EcCBB59",
  "extraData": "0x476574682f76312e302e312f77696e646f77732f676f312e342e32",
  "transactions": [
    {
      "hash": "0x38b2508da2a3a18fae48c867cfa68e5b096a4bffa3b1ebbc7d632d8af59b2332",
      "blockHash": "0x89161f560e431a3e42993062ba9251c8b58639f31f0c2cb801cd895c536c6f00",
      "blockNumber": 64414,
      "transactionIndex": 0,
      "confirmations": null,
      "from": "0x2910543Af39abA0Cd09dBb2D50200b3E800A63D2",
      "gasPrice": {
        "_hex": "0xe098bf347"
      },
      "gasLimit": {
        "_hex": "0x5208"
      },
      "to": "0x7A3F5314eFB62CDe77750d52dD2bf12eF74a5D2a",
      "value": {
        "_hex": "0x56bb59ab42b2f8000"
      },
      "nonce": 141,
      "data": "0x",
      "r": "0x13c52ad9e4ab82bfedeba1f87880f1bcba4988335f4e2bf0b5d624fdf952f40f",
      "s": "0x5cc17637ee9031e1deff1067df2449ddbe90f4424446b713bbc3baa087587a83",
      "v": 28,
      "creates": null,
      "raw": "0xf86e818d850e098bf347825208947a3f5314efb62cde77750d52dd2bf12ef74a5d2a89056bb59ab42b2f8000801ca013c52ad9e4ab82bfedeba1f87880f1bcba4988335f4e2bf0b5d624fdf952f40fa05cc17637ee9031e1deff1067df2449ddbe90f4424446b713bbc3baa087587a83",
      "networkId": 0,
      "chainId": 0
    }
  ]
}