{
  "hash": "0x01ef4a7d016a8b6e83e5566d24059f67a252dbde13751ba60b947ac72cab79a7",
  "parentHash": "0xdbc72028283b403920a54092310bca19ab30af458f4aff0a224e6f6f1b8b0681",
  "number": 91064,
  "timestamp": 1439649933,
  "nonce": "0xe87987a94082abb1",
  "difficulty": 3427284769289,
  "gasLimit": {
    "_hex": "0x2fefd8"
  },
  "gasUsed": {
    "_hex": "0x5208"
  },
  "miner": "0x458F183347F45a4001807728A89F31E9Da9D4A58",
  "extraData": "0x476574682f76312e302e312d38326566323666362f6c696e75782f676f312e34",
  "transactions": [
    {
      "hash": "0xea59e4b00891114d1ff05337c2600543d392929c59e70e5a2796d3a77ce84144",
      "blockHash": "0x01ef4a7d016a8b6e83e5566d24059f67a252dbde13751ba60b947ac72cab79a7",
      "blockNumber": 91064,
      "transactionIndex": 0,
      "confirmations": null,
      "from": "0x29DC22B481D07e23A7D44611d223E31D1e041334",
      "gasPrice": {
        "_hex": "0xba43b7400"
      },
      "gasLimit": {
        "_hex": "0x5208"
      },
      "to": "0xC47Aaa860008be6f65B58c6C6E02a84e666EfE31",
      "value": {
        "_hex": "0x2b5ce30a54ca3b8f0"
      },
      "nonce": 0,
      "data": "0x",
      "r": "0xa412647331f8a95c33792853cf5f1dbcbb9f4d74dd2f0efdd4d29d97ff267a95",
      "s": "0x3f77a9dec282663b45dc29925f8d1d5a8b70fea32ab1a2c39cef0dbb52303b5c",
      "v": 27,
      "creates": null,
      "raw": "0xf86d80850ba43b740082520894c47aaa860008be6f65b58c6c6e02a84e666efe318902b5ce30a54ca3b8f0801ba0a412647331f8a95c33792853cf5f1dbcbb9f4d74dd2f0efdd4d29d97ff267a95a03f77a9dec282663b45dc29925f8d1d5a8b70fea32ab1a2c39cef0dbb52303b5c",
      "networkId": 0,
      "chainId": 0
    }
  ]
}