{
  "hash": "0x70f8f1677470f3ff08450e3fb078642bf5d0c80e13e7bdd678387ac92148b94b",
  "parentHash": "0xc0f41a237595012217456d21c8342941c0fadffeaccc1ef898601d980244229a",
  "number": 71871,
  "timestamp": 1439343237,
  "nonce": "0x9cb271d7e224869a",
  "difficulty": 2167570736605,
  "gasLimit": {
    "_hex": "0x2fefd8"
  },
  "gasUsed": {
    "_hex": "0x14273"
  },
  "miner": "0x88D74a59454F6cF3B51ef6b9136AFb6b9D405A88",
  "extraData": "0x476574682f76312e302e312d37666266393930632f6c696e75782f676f312e34",
  "transactions": [
    {
      "hash": "0x5698ac22286fea17ccf84f7bc6dcab74e1c5655dc818a6cdc6ab18c4c23c291d",
      "blockHash": "0x70f8f1677470f3ff08450e3fb078642bf5d0c80e13e7bdd678387ac92148b94b",
      "blockNumber": 71871,
      "transactionIndex": 0,
      "confirmations": null,
      "from": "0x17580B766f7453525ca4C6A88b01b50570EA088C",
      "gasPrice": {
        "_hex": "0xce59ec8f0"
      },
      "gasLimit": {
        "_hex": "0x61a80"
      },
      "to": "0x5Fe5B7546D1628f7348B023A0393de1FC825A4fD",
      "value": {
        "_hex": "0x29a2241af62c0000"
      },
      "nonce": 276,
      "data": "0xb595b8b50000000000000000000000000000000000000000000000000000000000000000",
      "r": "0x076a7975e99333837040d1c034c5de6cea0c9506eba2445fdc12fdba58c3d49c",
      "s": "0x7fd6bf2858a5b46ec26a0cc1eb0c7a39db6ceaa91a49e8635c01a398edebd77a",
      "v": 28,
      "creates": null,
      "raw": "0xf893820114850ce59ec8f083061a80945fe5b7546d1628f7348b023a0393de1fc825a4fd8829a2241af62c0000a4b595b8b500000000000000000000000000000000000000000000000000000000000000001ca0076a7975e99333837040d1c034c5de6cea0c9506eba2445fdc12fdba58c3d49ca07fd6bf2858a5b46ec26a0cc1eb0c7a39db6ceaa91a49e8635c01a398edebd77a",
      "networkId": 0,
      "chainId": 0
    },
    {
      "hash": "0x738293de79e70c9a45b9d804326eeebfc1fd1b4d88e48af45b87a18d5b9fe5d4",
      "blockHash": "0x70f8f1677470f3ff08450e3fb078642bf5d0c80e13e7bdd678387ac92148b94b",
      "blockNumber": 71871,
      "transactionIndex": 1,
      "confirmations": null,
      "from": "0x17580B766f7453525ca4C6A88b01b50570EA088C",
      "gasPrice": {
        "_hex": "0xce59ec8f0"
      },
      "gasLimit": {
        "_hex": "0x61a80"
      },
      "to": "0x5Fe5B7546D1628f7348B023A0393de1FC825A4fD",
      "value": {
        "_hex": "0x29a2241af62c0000"
      },
      "nonce": 277,
      "data": "0xb595b8b50000000000000000000000000000000000000000000000000000000000000001",
      "r": "0x8aa0f35b42dee17516680663b6f1d63c3719171dac3d3499c81620262c3e4e20",
      "s": "0x73656e6fd7909298d7e4ef4e1a9752917968df9e4241e84b30a14a8ae9078595",
      "v": 28,
      "creates": null,
      "raw": "0xf893820115850ce59ec8f083061a80945fe5b7546d1628f7348b023a0393de1fc825a4fd8829a2241af62c0000a4b595b8b500000000000000000000000000000000000000000000000000000000000000011ca08aa0f35b42dee17516680663b6f1d63c3719171dac3d3499c81620262c3e4e20a073656e6fd7909298d7e4ef4e1a9752917968df9e4241e84b30a14a8ae9078595",
      "networkId": 0,
      "chainId": 0
    }
  ]
}