{
  "hash": "0xc9ad7790f9d9011555e48f80b3ace0564e111c8a465e5c8c35037783e0f14cbb",
  "parentHash": "0x8211e1841074a2af0c273fe2c3cd896b529c9f5a37450bc08c3a7d25345b20c5",
  "number": 49356,
  "timestamp": 1438972331,
  "nonce": "0x4e3e255a3a3a6aeb",
  "difficulty": 1475628498754,
  "gasLimit": {
    "_hex": "0x2e38b"
  },
  "gasUsed": {
    "_hex": "0xa674"
  },
  "miner": "0x3222BA3F3e79eA0e31467EEE7639B57923558cCD",
  "extraData": "0x",
  "transactions": [
    {
      "hash": "0x91c6115c3689fbbd01bac98b3547ba39e67ba4c7cc54e05a6a5c1d0d08d702bb",
      "blockHash": "0xc9ad7790f9d9011555e48f80b3ace0564e111c8a465e5c8c35037783e0f14cbb",
      "blockNumber": 49356,
      "transactionIndex": 0,
      "confirmations": null,
      "from": "0xDe50f61a9a1176B7875050872C6Baf0032e6F6FF",
      "gasPrice": {
        "_hex": "0xd9edb6e0b"
      },
      "gasLimit": {
        "_hex": "0x15f90"
      },
      "to": "0xe862aFcB53bCBc590eA7Cce4FA2F61e7BaC1FCCa",
      "value": {
        "_hex": "0x8ac7230489e80000"
      },
      "nonce": 2,
      "data": "0x",
      "r": "0xd2619fa1dccb925b76abb650fcc80ace34af7942b6abd4d2dd9c106da9402c44",
      "s": "0x5ce881218446304288d8035de44d29cbea9d4bc5278015d226f16c9a75fa8991",
      "v": 27,
      "creates": null,
      "raw": "0xf86d02850d9edb6e0b83015f9094e862afcb53bcbc590ea7cce4fa2f61e7bac1fcca888ac7230489e80000801ba0d2619fa1dccb925b76abb650fcc80ace34af7942b6abd4d2dd9c106da9402c44a05ce881218446304288d8035de44d29cbea9d4bc5278015d226f16c9a75fa8991",
      "networkId": 0,
      "chainId": 0
    },
    {
      "hash": "0x6e7bb3c02b974355eab39e0e0e84d791469442951db701bbce1ef25d8d590645",
      "blockHash": "0xc9ad7790f9d9011555e48f80b3ace0564e111c8a465e5c8c35037783e0f14cbb",
      "blockNumber": 49356,
      "transactionIndex": 1,
      "confirmations": null,
      "from": "0x333Ad1596401e05Aea2d36Ca47318eF4Cd2cB3DF",
      "gasPrice": {
        "_hex": "0xcd01555c5"
      },
      "gasLimit": {
        "_hex": "0x15f90"
      },
      "to": "0x2910543Af39abA0Cd09dBb2D50200b3E800A63D2",
      "value": {
        "_hex": "0x7ce66c50e2840000"
      },
      "nonce": 0,
      "data": "0x454e37485242515552",
      "r": "0x3c0d187a80bc4fc44161fa74c14dd5c48fbb6e042dff5328a270778c885957c7",
      "s": "0x5d7d3c14e6082864e413e12b2b328a1edf1e8c401146d7772b08f0d0c21a15f4",
      "v": 27,
      "creates": null,
      "raw": "0xf87680850cd01555c583015f90942910543af39aba0cd09dbb2d50200b3e800a63d2887ce66c50e284000089454e374852425155521ba03c0d187a80bc4fc44161fa74c14dd5c48fbb6e042dff5328a270778c885957c7a05d7d3c14e6082864e413e12b2b328a1edf1e8c401146d7772b08f0d0c21a15f4",
      "networkId": 0,
      "chainId": 0
    }
  ]
}