{
  "hash": "0xbd279c7e75c6bdd91a15301141737bfaea66225090e4a7e02304607c73cb1c20",
  "parentHash": "0xa53cc482be155371ba86bb5f047689c890b5d18da090ff1b443cdd3910692f99",
  "number": 85463,
  "timestamp": 1439563950,
  "nonce": "0xf636e56dcaf9be7e",
  "difficulty": 2751706226725,
  "gasLimit": {
    "_hex": "0x2fefd8"
  },
  "gasUsed": {
    "_hex": "0x5208"
  },
  "miner": "0x87898CE53471043FcCa0a2aF4E1dC6d8B3fCf607",
  "extraData": "0x476574682f5369626572696131392f76312e302e312d37666266393930632f6c",
  "transactions": [
    {
      "hash": "0x708adc392cd78299c4e9c35b6d60fe604672a8911bad0f01914e4ee80f824712",
      "blockHash": "0xbd279c7e75c6bdd91a15301141737bfaea66225090e4a7e02304607c73cb1c20",
      "blockNumber": 85463,
      "transactionIndex": 0,
      "confirmations": null,
      "from": "0x5b7784caeA01799cA30227827667CE207C5CBc76",
      "gasPrice": {
        "_hex": "0xd60340b78"
      },
      "gasLimit": {
        "_hex": "0x5208"
      },
      "to": "0x0B5D1D51C62F23d80e14EC7B5922c37cC75f25EB",
      "value": {
        "_hex": "0x38d7ea4c68000"
      },
      "nonce": 1,
      "data": "0x",
      "r": "0xa79d1d566173dca471627f2588d4c38213f519e5f3ee3b5915ecf0bd628da39d",
      "s": "0x03017f3b4bf677f0f4ac920011cc4ad60b551e96d0619866287d24e74851d88e",
      "v": 28,
      "creates": null,
      "raw": "0xf86b01850d60340b78825208940b5d1d51c62f23d80e14ec7b5922c37cc75f25eb87038d7ea4c68000801ca0a79d1d566173dca471627f2588d4c38213f519e5f3ee3b5915ecf0bd628da39da003017f3b4bf677f0f4ac920011cc4ad60b551e96d0619866287d24e74851d88e",
      "networkId": 0,
      "chainId": 0
    }
  ]
}