{
  "hash": "0x8a6085e8eb9acddcc830f090315725ea99c0db635597e7730c2e00c57c4fa13a",
  "parentHash": "0x0376c87ad1a73440b1103e8ca34adb0f506729f86040b6175e39e924734c0f5c",
  "number": 121567,
  "timestamp": 1440179065,
  "nonce": "0xb2d0d6f82b6de121",
  "difficulty": 4447278210758,
  "gasLimit": {
    "_hex": "0x2fefd8"
  },
  "gasUsed": {
    "_hex": "0x5208"
  },
  "miner": "0xe6A7a1d47ff21B6321162AEA7C6CB457D5476Bca",
  "extraData": "0xd783010002844765746887676f312e342e32856c696e7578",
  "transactions": [
    {
      "hash": "0xab1b1044bb78148d24dcab9d54c1968e7720a255e9e08d421155e38b84020b2d",
      "blockHash": "0x8a6085e8eb9acddcc830f090315725ea99c0db635597e7730c2e00c57c4fa13a",
      "blockNumber": 121567,
      "transactionIndex": 0,
      "confirmations": null,
      "from": "0x32Be343B94f860124dC4fEe278FDCBD38C102D88",
      "gasPrice": {
        "_hex": "0xba43b7400"
      },
      "gasLimit": {
        "_hex": "0x5208"
      },
      "to": "0xBdF25376dA0767EfBF7eE3dCAe463ECe5572bFF3",
      "value": {
        "_hex": "0x8cd79917e00dc8000"
      },
      "nonce": 1561,
      "data": "0x",
      "r": "0x807d84c3b1271cbb4deddd759196bbc0fdf04ca16b9448928f77574600889c1a",
      "s": "0x709a036f3e5be68120f96e30832b47015cb31532101dcdf070c61d4273163318",
      "v": 27,
      "creates": null,
      "raw": "0xf86f820619850ba43b740082520894bdf25376da0767efbf7ee3dcae463ece5572bff38908cd79917e00dc8000801ba0807d84c3b1271cbb4deddd759196bbc0fdf04ca16b9448928f77574600889c1aa0709a036f3e5be68120f96e30832b47015cb31532101dcdf070c61d4273163318",
      "networkId": 0,
      "chainId": 0
    }
  ]
}