{
  "hash": "0x3735403aadca8086790090e2bf5991b4ca9554e4c0ba464dd48edb88c28b1dde",
  "parentHash": "0x64ac5d5a89d3a6438280884e2212c8af6339114f9f25d5e8b6ef3d5b29c926ee",
  "number": 49916,
  "timestamp": 1438981252,
  "nonce": "0x6b8f3d857648bf25",
  "difficulty": 1495841790213,
  "gasLimit": {
    "_hex": "0x45a42"
  },
  "gasUsed": {
    "_hex": "0x5a0c"
  },
  "miner": "0xeB1325C8D9d3ea8D74aC11F4B00F1B2367686319",
  "extraData": "0x476574682f76312e302e312f77696e646f77732f676f312e342e32",
  "transactions": [
    {
      "hash": "0x7db37f106cf96422507770158f7ee9ab47d4bbc23d8eae36404554111895baf5",
      "blockHash": "0x3735403aadca8086790090e2bf5991b4ca9554e4c0ba464dd48edb88c28b1dde",
      "blockNumber": 49916,
      "transactionIndex": 0,
      "confirmations": null,
      "from": "0x3D0768da09CE77d25e2d998E6a7b6eD4b9116c2D",
      "gasPrice": {
        "_hex": "0xcc192c0c0"
      },
      "gasLimit": {
        "_hex": "0x15f90"
      },
      "to": "0xD958b51bC95338D152D55BEEd17a156e8aeC4c9f",
      "value": {
        "_hex": "0x0"
      },
      "nonce": 18,
      "data": "0xe3d670d70000000000000000000000003d0768da09ce77d25e2d998e6a7b6ed4b9116c2d",
      "r": "0x7fe0d624b287e4fdb1d9f502aa9364a50de0138d4bfb1e56c7eed444f1187c83",
      "s": "0x372e54b663936b00643ec933482e86d5031f4333551c1f2d28a7df21c015e36f",
      "v": 27,
      "creates": null,
      "raw": "0xf88912850cc192c0c083015f9094d958b51bc95338d152d55beed17a156e8aec4c9f80a4e3d670d70000000000000000000000003d0768da09ce77d25e2d998e6a7b6ed4b9116c2d1ba07fe0d624b287e4fdb1d9f502aa9364a50de0138d4bfb1e56c7eed444f1187c83a0372e54b663936b00643ec933482e86d5031f4333551c1f2d28a7df21c015e36f",
      "networkId": 0,
      "chainId": 0
    }
  ]
}