{
  "hash": "0xc9bb90b30d7daea586f000a688f2db9e5b9c369ea75db5ca9d9dccf9a2033080",
  "parentHash": "0x5383dafaf28c330866f8cf1f79a18b54f34c5514b310f8272007f4a27becd44f",
  "number": 121535,
  "timestamp": 1440178406,
  "nonce": "0xed429a4f9e38c0b1",
  "difficulty": 4477800758431,
  "gasLimit": {
    "_hex": "0x2fefd8"
  },
  "gasUsed": {
    "_hex": "0x5208"
  },
  "miner": "0xe6A7a1d47ff21B6321162AEA7C6CB457D5476Bca",
  "extraData": "0xd783010002844765746887676f312e342e32856c696e7578",
  "transactions": [
    {
      "hash": "0xafa25ac39abbe4ec58d08b8a87532dd08188b66dc5b14db54d5a8961dd398703",
      "blockHash": "0xc9bb90b30d7daea586f000a688f2db9e5b9c369ea75db5ca9d9dccf9a2033080",
      "blockNumber": 121535,
      "transactionIndex": 0,
      "confirmations": null,
      "from": "0x608f4b86321a68453f9adf6F06F7Fc3E621739ad",
      "gasPrice": {
        "_hex": "0xba43b7400"
      },
      "gasLimit": {
        "_hex": "0x5208"
      },
      "to": "0x32Be343B94f860124dC4fEe278FDCBD38C102D88",
      "value": {
        "_hex": "0x455fd68a17f06000"
      },
      "nonce": 104,
      "data": "0x",
      "r": "0xc0b86b44f1f7f462c6062fbf54523b06922d88b96454100997017d104eae9674",
      "s": "0x267357a332a96ca5cca5465461fa00ef6699c1dbede1d08bfa533b315cba6e62",
      "v": 28,
      "creates": null,
      "raw": "0xf86c68850ba43b74008252089432be343b94f860124dc4fee278fdcbd38c102d8888455fd68a17f06000801ca0c0b86b44f1f7f462c6062fbf54523b06922d88b96454100997017d104eae9674a0267357a332a96ca5cca5465461fa00ef6699c1dbede1d08bfa533b315cba6e62",
      "networkId": 0,
      "chainId": 0
    }
  ]
}