{
  "hash": "0xbb308f0d69e8e3ebb7d7691de169399f4a1e0cf64ec6d84c81b89bd0c0843f70",
  "parentHash": "0x40b69fddb4d78b05b2504d3c9f96b335d954d1752257f976917a4d35c4667657",
  "number": 53125,
  "timestamp": 1439032791,
  "nonce": "0x1b1f6e649f9f9b7d",
  "difficulty": 1573930684775,
  "gasLimit": {
    "_hex": "0x2020d0"
  },
  "gasUsed": {
    "_hex": "0x1163a"
  },
  "miner": "0x02020D22dCF88f5eDd66B382D7da019F161fB7e3",
  "extraData": "0x",
  "transactions": [
    {
      "hash": "0x807f0689182411c531da406b1686a690eab18d750d8258919efb7ba6092fd25a",
      "blockHash": "0xbb308f0d69e8e3ebb7d7691de169399f4a1e0cf64ec6d84c81b89bd0c0843f70",
      "blockNumber": 53125,
      "transactionIndex": 0,
      "confirmations": null,
      "from": "0x4b0C6F0297CEe4B551B6fab3277067B64B238990",
      "gasPrice": {
        "_hex": "0xffa23ad93d"
      },
      "gasLimit": {
        "_hex": "0x15f90"
      },
      "to": "0x33e98638ea7F2C2fd83731528fb53802Af395D13",
      "value": {
        "_hex": "0x0"
      },
      "nonce": 6,
      "data": "0x90b98a11000000000000000000000000258091741a3ab6ddd5e304ea6b9eff060badb8bf0000000000000000000000000000000000000000000000000000000000000001",
      "r": "0xeece0ffdf968be2ae6850d109d0e56eab8c9d1d3743803e5d5969b9054b677ea",
      "s": "0x781089418d6f60d8a3e450ebd7b0caf435c59b277138b1f4e9b534500a349576",
      "v": 27,
      "creates": null,
      "raw": "0xf8aa0685ffa23ad93d83015f909433e98638ea7f2c2fd83731528fb53802af395d1380b84490b98a11000000000000000000000000258091741a3ab6ddd5e304ea6b9eff060badb8bf00000000000000000000000000000000000000000000000000000000000000011ba0eece0ffdf968be2ae6850d109d0e56eab8c9d1d3743803e5d5969b9054b677eaa0781089418d6f60d8a3e450ebd7b0caf435c59b277138b1f4e9b534500a349576",
      "networkId": 0,
      "chainId": 0
    },
    {
      "hash": "0xbcb479f865fbc8aaaa558045be9259f16e62cc1ddfb0bc4893813a955240c7fb",
      "blockHash": "0xbb308f0d69e8e3ebb7d7691de169399f4a1e0cf64ec6d84c81b89bd0c0843f70",
      "blockNumber": 53125,
      "transactionIndex": 1,
      "confirmations": null,
      "from": "0xb891F05f7E7E5F3767E96bF020C5b49dbEC895C0",
      "gasPrice": {
        "_hex": "0xd0f568a6d"
      },
      "gasLimit": {
        "_hex": "0x5208"
      },
      "to": "0x32Be343B94f860124dC4fEe278FDCBD38C102D88",
      "value": {
        "_hex": "0xddc8761742b9c00"
      },
      "nonce": 4,
      "data": "0x",
      "r": "0x3d7d3111f2f3586f4d471223271b9fcf6c4604ab56d1e2ebceff8139f44335ef",
      "s": "0x0ad56574be06d422e86a7d6dc28ffe98ac23d9d673fb5bc6b766ecdaa87393fb",
      "v": 27,
      "creates": null,
      "raw": "0xf86c04850d0f568a6d8252089432be343b94f860124dc4fee278fdcbd38c102d88880ddc8761742b9c00801ba03d7d3111f2f3586f4d471223271b9fcf6c4604ab56d1e2ebceff8139f44335efa00ad56574be06d422e86a7d6dc28ffe98ac23d9d673fb5bc6b766ecdaa87393fb",
      "networkId": 0,
      "chainId": 0
    }
  ]
}