{
  "hash": "0xd3f55a4d3e9da53cf336c60ec9caaee5e354e581d349c935c2545ad44c40e402",
  "parentHash": "0xb1a99b7a48aea66ca92abeaa65aac125a22d402e381de6a9a56b3e13dcc969c8",
  "number": 84539,
  "timestamp": 1439551041,
  "nonce": "0x454ae83e116d2163",
  "difficulty": 2575194485220,
  "gasLimit": {
    "_hex": "0x2fefd8"
  },
  "gasUsed": {
    "_hex": "0xa410"
  },
  "miner": "0xA21Ba94e45f0E168dA824fC67aC9cb5Cb577a8aF",
  "extraData": "0x",
  "transactions": [
    {
      "hash": "0xe906c74bbce1c58cbd30d6577e750a92e177aa724235fb152adc03dda6fb358b",
      "blockHash": "0xd3f55a4d3e9da53cf336c60ec9caaee5e354e581d349c935c2545ad44c40e402",
      "blockNumber": 84539,
      "transactionIndex": 0,
      "confirmations": null,
      "from": "0xA1623430350C5df1b52B0b57483A5bb45d1796Da",
      "gasPrice": {
        "_hex": "0xe0a81f4bb"
      },
      "gasLimit": {
        "_hex": "0x7530"
      },
      "to": "0xf2881e3e520bF84469Fa00a56449D357FB1af54A",
      "value": {
        "_hex": "0x613b33411994a0000"
      },
      "nonce": 6,
      "data": "0x",
      "r": "0xeea2f5b8da9e53f49908053de2c78bf4f8ee015494d97b87ba515326aaae7ea2",
      "s": "0x7b3c44d4f4756126466a3bf5cd6599f7590a422c9704dfa00dd315df75232b3c",
      "v": 28,
      "creates": null,
      "raw": "0xf86d06850e0a81f4bb82753094f2881e3e520bf84469fa00a56449d357fb1af54a890613b33411994a0000801ca0eea2f5b8da9e53f49908053de2c78bf4f8ee015494d97b87ba515326aaae7ea2a07b3c44d4f4756126466a3bf5cd6599f7590a422c9704dfa00dd315df75232b3c",
      "networkId": 0,
      "chainId": 0
    },
    {
      "hash": "0x8b657644b765a6b3c8c91e91854a17a70a2dd3d5041e2bbd341895597def6c31",
      "blockHash": "0xd3f55a4d3e9da53cf336c60ec9caaee5e354e581d349c935c2545ad44c40e402",
      "blockNumber": 84539,
      "transactionIndex": 1,
      "confirmations": null,
      "from": "0x79d5794171E11dd5C2f0e26E1C187319db2FE6f7",
      "gasPrice": {
        "_hex": "0xdcd74ef32"
      },
      "gasLimit": {
        "_hex": "0x5208"
      },
      "to": "0x32Be343B94f860124dC4fEe278FDCBD38C102D88",
      "value": {
        "_hex": "0x6810ee06351a3400"
      },
      "nonce": 24,
      "data": "0x",
      "r": "0x46b372f07d4a4b8fe6d33ebb395d001aa10ae7a8e31eb904f37cde67173354c9",
      "s": "0x12cf127b2d9711e9dbd398ef26c976cd5af6afa65797d48a5bd17d72494da77b",
      "v": 28,
      "creates": null,
      "raw": "0xf86c18850dcd74ef328252089432be343b94f860124dc4fee278fdcbd38c102d88886810ee06351a3400801ca046b372f07d4a4b8fe6d33ebb395d001aa10ae7a8e31eb904f37cde67173354c9a012cf127b2d9711e9dbd398ef26c976cd5af6afa65797d48a5bd17d72494da77b",
      "networkId": 0,
      "chainId": 0
    }
  ]
}