{
  "hash": "0xa143951e3b802c4d6b6fa243b682af96aff7d9f1b45e2da55f0500733389fdb1",
  "parentHash": "0xb6d815b2060a639519afa91849fe1d0b593e2d20d89f2afb1b8908e64867fd6c",
  "number": 101919,
  "timestamp": 1439830025,
  "nonce": "0xe8f347cd64eb596d",
  "difficulty": 3903298578004,
  "gasLimit": {
    "_hex": "0x2fefd8"
  },
  "gasUsed": {
    "_hex": "0xa410"
  },
  "miner": "0xe6A7a1d47ff21B6321162AEA7C6CB457D5476Bca",
  "extraData": "0x476574682f76312e302e312d38326566323666362f6c696e75782f676f312e34",
  "transactions": [
    {
      "hash": "0xf9e62c8e9d3722e21286f841a6cf883f4b135d3d72130965b6a6c41b0cdab621",
      "blockHash": "0xa143951e3b802c4d6b6fa243b682af96aff7d9f1b45e2da55f0500733389fdb1",
      "blockNumber": 101919,
      "transactionIndex": 0,
      "confirmations": null,
      "from": "0x1261A4Ab33Df25bdf1Dc8922c51266a9b4bE9179",
      "gasPrice": {
        "_hex": "0xdfbe43a0f"
      },
      "gasLimit": {
        "_hex": "0x5208"
      },
      "to": "0x32Be343B94f860124dC4fEe278FDCBD38C102D88",
      "value": {
        "_hex": "0x806694788f465000"
      },
      "nonce": 1,
      "data": "0x",
      "r": "0x52a0b957463a0e77b8a63f1d6e8f6a999ba1b5d82ba970e56d81b4cce274f5d7",
      "s": "0x6555de5c1257feed431796b26b6a539e043fd048f1f183375426072c9ce9d50f",
      "v": 27,
      "creates": null,
      "raw": "0xf86c01850dfbe43a0f8252089432be343b94f860124dc4fee278fdcbd38c102d8888806694788f465000801ba052a0b957463a0e77b8a63f1d6e8f6a999ba1b5d82ba970e56d81b4cce274f5d7a06555de5c1257feed431796b26b6a539e043fd048f1f183375426072c9ce9d50f",
      "networkId": 0,
      "chainId": 0
    },
    {
      "hash": "0xb0b217ac7321564d69a829e41762637b0dd75b91f69c3f295ff2ee26749cec20",
      "blockHash": "0xa143951e3b802c4d6b6fa243b682af96aff7d9f1b45e2da55f0500733389fdb1",
      "blockNumber": 101919,
      "transactionIndex": 1,
      "confirmations": null,
      "from": "0x120A270bbC009644e35F0bB6ab13f95b8199c4ad",
      "gasPrice": {
        "_hex": "0xdf22881dc"
      },
      "gasLimit": {
        "_hex": "0x3d090"
      },
      "to": "0x60d85a32126130b225913C23dF4e5EF8b759fA09",
      "value": {
        "_hex": "0x25f273933db5700000"
      },
      "nonce": 689,
      "data": "0x",
      "r": "0x7f4113b48227b8cd7db5c9a0daa3fcd6386a9673e13d5709bb1e005b276bd8dd",
      "s": "0x79fd11f01cd6b673ab20efe861878fafba47fab968e1209119b9a40db9a95887",
      "v": 27,
      "creates": null,
      "raw": "0xf8708202b1850df22881dc8303d0909460d85a32126130b225913c23df4e5ef8b759fa098925f273933db5700000801ba07f4113b48227b8cd7db5c9a0daa3fcd6386a9673e13d5709bb1e005b276bd8dda079fd11f01cd6b673ab20efe861878fafba47fab968e1209119b9a40db9a95887",
      "networkId": 0,
      "chainId": 0
    }
  ]
}