{
  "hash": "0x36a211151bb53c4bf618598e5fc24b6d08a5497fdbf9d3b21f69ad8b38b9b225",
  "parentHash": "0xc6186427b8c41456a8609f6f29da9572452887937dfd541f530016b95a7fa928",
  "number": 95532,
  "timestamp": 1439725486,
  "nonce": "0xf32f149949e4a7c6",
  "difficulty": 3625079929358,
  "gasLimit": {
    "_hex": "0x2fefd8"
  },
  "gasUsed": {
    "_hex": "0x5208"
  },
  "miner": "0xe6A7a1d47ff21B6321162AEA7C6CB457D5476Bca",
  "extraData": "0x476574682f76312e302e312d38326566323666362f6c696e75782f676f312e34",
  "transactions": [
    {
      "hash": "0x30d2a3555eaff78111a7cba0beb7225ccbc77752638a09d8c65a12be55a872b0",
      "blockHash": "0x36a211151bb53c4bf618598e5fc24b6d08a5497fdbf9d3b21f69ad8b38b9b225",
      "blockNumber": 95532,
      "transactionIndex": 0,
      "confirmations": null,
      "from": "0x120A270bbC009644e35F0bB6ab13f95b8199c4ad",
      "gasPrice": {
        "_hex": "0xd46b85933"
      },
      "gasLimit": {
        "_hex": "0x3d090"
      },
      "to": "0xD499a11665A42cAA8a3DE6A02bAa4E95DFE935C0",
      "value": {
        "_hex": "0x2e9252edae091b400"
      },
      "nonce": 601,
      "data": "0x",
      "r": "0x2be998d55f5fe9bed323ebe51bfe19b970435807087565b00a7df2cff084f332",
      "s": "0x178653489450d81b98b35d8e2806ef43475d055e10b27ea493d2f811f7564033",
      "v": 27,
      "creates": null,
      "raw": "0xf870820259850d46b859338303d09094d499a11665a42caa8a3de6a02baa4e95dfe935c08902e9252edae091b400801ba02be998d55f5fe9bed323ebe51bfe19b970435807087565b00a7df2cff084f332a0178653489450d81b98b35d8e2806ef43475d055e10b27ea493d2f811f7564033",
      "networkId": 0,
      "chainId": 0
    }
  ]
}