{
  "hash": "0xb778100a25465ed6ff35d336b45ae7d786b021d4ba1cd3f22ef2f44ce95cd17e",
  "parentHash": "0x1830c40c979731aa491e65f09435f64f2a9ad9053d895bf9a514860735975309",
  "number": 121909,
  "timestamp": 1440184748,
  "nonce": "0xc51bb341902b3cd2",
  "difficulty": 4481975916834,
  "gasLimit": {
    "_hex": "0x2fefd8"
  },
  "gasUsed": {
    "_hex": "0x2e248"
  },
  "miner": "0xe6A7a1d47ff21B6321162AEA7C6CB457D5476Bca",
  "extraData": "0xd783010002844765746887676f312e342e32856c696e7578",
  "transactions": [
    {
      "hash": "0x4794cf07bc97a7622d37a26de201363ab440f544f105a5f4c1671f43b4c2b063",
      "blockHash": "0xb778100a25465ed6ff35d336b45ae7d786b021d4ba1cd3f22ef2f44ce95cd17e",
      "blockNumber": 121909,
      "transactionIndex": 0,
      "confirmations": null,
      "from": "0x04a6c6a293340Fc3f2244D097b0CFD84d5317bA5",
      "gasPrice": {
        "_hex": "0xd74c41bc1"
      },
      "gasLimit": {
        "_hex": "0x5208"
      },
      "to": "0x32Be343B94f860124dC4fEe278FDCBD38C102D88",
      "value": {
        "_hex": "0x112d20cfa24c90000"
      },
      "nonce": 10,
      "data": "0x",
      "r": "0x97166258b23b5abfb4d3c27d4ff52af463f6b26f200689a2710da79819b4e30a",
      "s": "0x279e5936f7fe3e20a9720e258f5b72f1ec39c371a2dd5dca6e081dce0cdddb5f",
      "v": 28,
      "creates": null,
      "raw": "0xf86d0a850d74c41bc18252089432be343b94f860124dc4fee278fdcbd38c102d88890112d20cfa24c90000801ca097166258b23b5abfb4d3c27d4ff52af463f6b26f200689a2710da79819b4e30aa0279e5936f7fe3e20a9720e258f5b72f1ec39c371a2dd5dca6e081dce0cdddb5f",
      "networkId": 0,
      "chainId": 0
    },
    {
      "hash": "0x4ecd7f2e06bd8cbbab13d0d93fe22ba5faf2825a7e5ec9fb8c4815bdf05f2bec",
      "blockHash": "0xb778100a25465ed6ff35d336b45ae7d786b021d4ba1cd3f22ef2f44ce95cd17e",
      "blockNumber": 121909,
      "transactionIndex": 1,
      "confirmations": null,
      "from": "0x463eADDDA71F29F36365F889EA7E6fcDBe1cF0c8",
      "gasPrice": {
        "_hex": "0xd74c41bc1"
      },
      "gasLimit": {
        "_hex": "0x5208"
      },
      "to": "0x32Be343B94f860124dC4fEe278FDCBD38C102D88",
      "value": {
        "_hex": "0x176410a82aadee000"
      },
      "nonce": 11,
      "data": "0x",
      "r": "0x6934832e3a7b738c5613aa87f934af87d610ea3212b8249ad912a0cccbe0ea0e",
      "s": "0x231a2f1256d3783057d54a667159871be870826a5d60c4b4e866eaa562098af7",
      "v": 28,
      "creates": null,
      "raw": "0xf86d0b850d74c41bc18252089432be343b94f860124dc4fee278fdcbd38c102d88890176410a82aadee000801ca06934832e3a7b738c5613aa87f934af87d610ea3212b8249ad912a0cccbe0ea0ea0231a2f1256d3783057d54a667159871be870826a5d60c4b4e866eaa562098af7",
      "networkId": 0,
      "chainId": 0
    },
    {
      "hash": "0x286e8b14443c7d70bc698d7642cb9b5d4895570bf61bb7e5299317e37d9fd394",
      "blockHash": "0xb778100a25465ed6ff35d336b45ae7d786b021d4ba1cd3f22ef2f44ce95cd17e",
      "blockNumber": 121909,
      "transactionIndex": 2,
      "confirmations": null,
      "from": "0xdc41BFACFAaF8B0F0949aB5A3f18f47063Ae62fB",
      "gasPrice": {
        "_hex": "0xd74c41bc1"
      },
      "gasLimit": {
        "_hex": "0x5208"
      },
      "to": "0x32Be343B94f860124dC4fEe278FDCBD38C102D88",
      "value": {
        "_hex": "0x1d02d1495871c4000"
      },
      "nonce": 12,
      "data": "0x",
      "r": "0x00c653f8c1ba90b8cfefb250b7513f6fb7634df22a5a32035ed2ba2dd5167c22",
      "s": "0x2c7f0e54eec553536bfb52cff9d424d49d0789f0f4bdcabc83c29ced02995b89",
      "v": 27,
      "creates": null,
      "raw": "0xf86c0c850d74c41bc18252089432be343b94f860124dc4fee278fdcbd38c102d888901d02d1495871c4000801b9fc653f8c1ba90b8cfefb250b7513f6fb7634df22a5a32035ed2ba2dd5167c22a02c7f0e54eec553536bfb52cff9d424d49d0789f0f4bdcabc83c29ced02995b89",
      "networkId": 0,
      "chainId": 0
    },
    {
      "hash": "0x5c00fd4b21a75b8b878eb6288443c90d7102079c6412997bcfda9094059069e2",
      "blockHash": "0xb778100a25465ed6ff35d336b45ae7d786b021d4ba1cd3f22ef2f44ce95cd17e",
      "blockNumber": 121909,
      "transactionIndex": 3,
      "confirmations": null,
      "from": "0xB9eE81c1A5CdE84454DC603a8000836118627cfd",
      "gasPrice": {
        "_hex": "0xd74c41bc1"
      },
      "gasLimit": {
        "_hex": "0x5208"
      },
      "to": "0x32Be343B94f860124dC4fEe278FDCBD38C102D88",
      "value": {
        "_hex": "0x3c3a5429346f5c000"
      },
      "nonce": 10,
      "data": "0x",
      "r": "0x53c90524ae7cbeba93111bcd103fd03aae192034a1e4d656a07e738ec59088cf",
      "s": "0x335fa109816faf45f1a958a57d3b2f591c28fb5e195ddf2594eb790708c6a407",
      "v": 28,
      "creates": null,
      "raw": "0xf86d0a850d74c41bc18252089432be343b94f860124dc4fee278fdcbd38c102d888903c3a5429346f5c000801ca053c90524ae7cbeba93111bcd103fd03aae192034a1e4d656a07e738ec59088cfa0335fa109816faf45f1a958a57d3b2f591c28fb5e195ddf2594eb790708c6a407",
      "networkId": 0,
      "chainId": 0
    },
    {
      "hash": "0xfa73dcda8589d5972371282393216de1c33dbdd68d6fc03ab549ed3e3a20cd96",
      "blockHash": "0xb778100a25465ed6ff35d336b45ae7d786b021d4ba1cd3f22ef2f44ce95cd17e",
      "blockNumber": 121909,
      "transactionIndex": 4,
      "confirmations": null,
      "from": "0x0A38f5Ba343D4eA8641F955ecf98e1c43dF1B5a3",
      "gasPrice": {
        "_hex": "0xd74c41bc1"
      },
      "gasLimit": {
        "_hex": "0x5208"
      },
      "to": "0x32Be343B94f860124dC4fEe278FDCBD38C102D88",
      "value": {
        "_hex": "0xeb9f781de4ea4000"
      },
      "nonce": 11,
      "data": "0x",
      "r": "0xc39b9096a85815cab6f226f7381bd80112f46d6da1cf4dbeb58f31e0592ca07a",
      "s": "0x4ae3e2a0b05f0e1f0b119756b93c4476db0c7c60c5a3f003c5690327cc942701",
      "v": 27,
      "creates": null,
      "raw": "0xf86c0b850d74c41bc18252089432be343b94f860124dc4fee278fdcbd38c102d8888eb9f781de4ea4000801ba0c39b9096a85815cab6f226f7381bd80112f46d6da1cf4dbeb58f31e0592ca07aa04ae3e2a0b05f0e1f0b119756b93c4476db0c7c60c5a3f003c5690327cc942701",
      "networkId": 0,
      "chainId": 0
    },
    {
      "hash": "0xa3f1753e0d118342a42b15779974625e093dbad1293d81f126df3dcca0a7311b",
      "blockHash": "0xb778100a25465ed6ff35d336b45ae7d786b021d4ba1cd3f22ef2f44ce95cd17e",
      "blockNumber": 121909,
      "transactionIndex": 5,
      "confirmations": null,
      "from": "0x7001C4730b81A539eF8b760A3eEb14C64515137B",
      "gasPrice": {
        "_hex": "0xd74c41bc1"
      },
      "gasLimit": {
        "_hex": "0x5208"
      },
      "to": "0x32Be343B94f860124dC4fEe278FDCBD38C102D88",
      "value": {
        "_hex": "0x2112e398a084b8000"
      },
      "nonce": 11,
      "data": "0x",
      "r": "0x8f6bd2576f80d3e8015495d299805c2fa7815aa452d27118bcd9e82403259d5d",
      "s": "0x73dcb2c399a746e2d04e2cabd3b47865ede174b462d9b49eb580119c1d241b98",
      "v": 28,
      "creates": null,
      "raw": "0xf86d0b850d74c41bc18252089432be343b94f860124dc4fee278fdcbd38c102d888902112e398a084b8000801ca08f6bd2576f80d3e8015495d299805c2fa7815aa452d27118bcd9e82403259d5da073dcb2c399a746e2d04e2cabd3b47865ede174b462d9b49eb580119c1d241b98",
      "networkId": 0,
      "chainId": 0
    },
    {
      "hash": "0xda8db4de56c637b6ed2690c425f494a2e039ec63480d14d3362aa596cf6e7e28",
      "blockHash": "0xb778100a25465ed6ff35d336b45ae7d786b021d4ba1cd3f22ef2f44ce95cd17e",
      "blockNumber": 121909,
      "transactionIndex": 6,
      "confirmations": null,
      "from": "0x3b01EBd2419f6d39DB6AB4471e6382848716641F",
      "gasPrice": {
        "_hex": "0xd74c41bc1"
      },
      "gasLimit": {
        "_hex": "0x5208"
      },
      "to": "0x32Be343B94f860124dC4fEe278FDCBD38C102D88",
      "value": {
        "_hex": "0x3699b6e5ed02fa000"
      },
      "nonce": 9,
      "data": "0x",
      "r": "0xee2f1fb57e1dc3c55f9975b3514c176923fabbb222d2dffb669bb8645eabb99b",
      "s": "0x35660055667f04b006b071d99200af030bb40a69bc9d447a4cc6c62516184c77",
      "v": 27,
      "creates": null,
      "raw": "0xf86d09850d74c41bc18252089432be343b94f860124dc4fee278fdcbd38c102d888903699b6e5ed02fa000801ba0ee2f1fb57e1dc3c55f9975b3514c176923fabbb222d2dffb669bb8645eabb99ba035660055667f04b006b071d99200af030bb40a69bc9d447a4cc6c62516184c77",
      "networkId": 0,
      "chainId": 0
    },
    {
      "hash": "0xab4584546839d8ad3bc33d637e1bd2a8181a1484ec6eeff93cb2ae9d4aaddf11",
      "blockHash": "0xb778100a25465ed6ff35d336b45ae7d786b021d4ba1cd3f22ef2f44ce95cd17e",
      "blockNumber": 121909,
      "transactionIndex": 7,
      "confirmations": null,
      "from": "0x8b687892C6Cf88925ddD772718782A864e5353Df",
      "gasPrice": {
        "_hex": "0xd74c41bc1"
      },
      "gasLimit": {
        "_hex": "0x5208"
      },
      "to": "0x32Be343B94f860124dC4fEe278FDCBD38C102D88",
      "value": {
        "_hex": "0x17596856df742d000"
      },
      "nonce": 11,
      "data": "0x",
      "r": "0xdfbecfd15443ed793aa1cabc50f2d70ce47080c32f424c0e3c564249281d8c4d",
      "s": "0x079e6bdc180d51d66ea438b0a531863fd5821da008aa474410baa5d7cfa55e9f",
      "v": 27,
      "creates": null,
      "raw": "0xf86d0b850d74c41bc18252089432be343b94f860124dc4fee278fdcbd38c102d8889017596856df742d000801ba0dfbecfd15443ed793aa1cabc50f2d70ce47080c32f424c0e3c564249281d8c4da0079e6bdc180d51d66ea438b0a531863fd5821da008aa474410baa5d7cfa55e9f",
      "networkId": 0,
      "chainId": 0
    },
    {
      "hash": "0x0b4184597f3fb23756dc759e22be9074dc14635f6c95ef7b401bd1e79867630f",
      "blockHash": "0xb778100a25465ed6ff35d336b45ae7d786b021d4ba1cd3f22ef2f44ce95cd17e",
      "blockNumber": 121909,
      "transactionIndex": 8,
      "confirmations": null,
      "from": "0x250978C66B17d66f4167197A38b631d8900968C0",
      "gasPrice": {
        "_hex": "0xd74c41bc1"
      },
      "gasLimit": {
        "_hex": "0x5208"
      },
      "to": "0x32Be343B94f860124dC4fEe278FDCBD38C102D88",
      "value": {
        "_hex": "0x470b79f29de864000"
      },
      "nonce": 10,
      "data": "0x",
      "r": "0xaf75e5e416977884647f8bf609bc62f61085ccf60d4d39f8284a0ede04afc910",
      "s": "0x0182f6bf03a727a0f013faa01980acb961d636a478324ad659201fa3b19fff55",
      "v": 28,
      "creates": null,
      "raw": "0xf86d0a850d74c41bc18252089432be343b94f860124dc4fee278fdcbd38c102d88890470b79f29de864000801ca0af75e5e416977884647f8bf609bc62f61085ccf60d4d39f8284a0ede04afc910a00182f6bf03a727a0f013faa01980acb961d636a478324ad659201fa3b19fff55",
      "networkId": 0,
      "chainId": 0
    }
  ]
}