{
  "hash": "0x3bd2180840b3ea1617021cf9aa4ed786d3853c52ecb56eba6c59443d75b3bac9",
  "parentHash": "0x46f92ea25cce12178473e7718475fa621af35ef9e178439a03c334b0fb828b29",
  "number": 77298,
  "timestamp": 1439434913,
  "nonce": "0x440f8e24a69be6c7",
  "difficulty": 2229480751224,
  "gasLimit": {
    "_hex": "0x2fefd8"
  },
  "gasUsed": {
    "_hex": "0xaa44"
  },
  "miner": "0xFf7CAe450435b0BF2776edf6dFe650A0D45e2D7f",
  "extraData": "0x476574682f76312e302e312d38326566323666362f6c696e75782f676f312e34",
  "transactions": [
    {
      "hash": "0x6300ad1639f3bf77055dc38e586d10a82d82b08fc63e8363c975c501e37bfe11",
      "blockHash": "0x3bd2180840b3ea1617021cf9aa4ed786d3853c52ecb56eba6c59443d75b3bac9",
      "blockNumber": 77298,
      "transactionIndex": 0,
      "confirmations": null,
      "from": "0xC4803bb407c762F90b7596e6FDE194931E769590",
      "gasPrice": {
        "_hex": "0x110c8f7d8de"
      },
      "gasLimit": {
        "_hex": "0xc350"
      },
      "to": "0x2910543Af39abA0Cd09dBb2D50200b3E800A63D2",
      "value": {
        "_hex": "0xd8c9460063d31c0000"
      },
      "nonce": 0,
      "data": "0x454e39394838375652",
      "r": "0xd8ee84a153cbc2a187c3e70185533321a47148537cfd2058c2d888a4371b0531",
      "s": "0xf6564cc230b52bf3378b0a52da0780e85fc199264dc8da74d1112937ed12f63a",
      "v": 28,
      "creates": null,
      "raw": "0xf87780860110c8f7d8de82c350942910543af39aba0cd09dbb2d50200b3e800a63d289d8c9460063d31c000089454e393948383756521ca0d8ee84a153cbc2a187c3e70185533321a47148537cfd2058c2d888a4371b0531a0f6564cc230b52bf3378b0a52da0780e85fc199264dc8da74d1112937ed12f63a",
      "networkId": 0,
      "chainId": 0
    },
    {
      "hash": "0x9f051983806c6fc6bf006eea055ce20cd30f72dc435d0346d9a610c81681a164",
      "blockHash": "0x3bd2180840b3ea1617021cf9aa4ed786d3853c52ecb56eba6c59443d75b3bac9",
      "blockNumber": 77298,
      "transactionIndex": 1,
      "confirmations": null,
      "from": "0x770d98d31b4353FceEE8560c4CCf803e88C0c4e0",
      "gasPrice": {
        "_hex": "0xe14ec7412"
      },
      "gasLimit": {
        "_hex": "0x15f90"
      },
      "to": "0x0000000000000000000000000000000000000000",
      "value": {
        "_hex": "0x38d7ea4c68000"
      },
      "nonce": 7,
      "data": "0xb214faa54131313131313131410000000000000000000000000000000000000000000000",
      "r": "0xa30c507171e570d38d853c9ce4a721e698c77d3017b4861aeb1e61dbd6e0d3b2",
      "s": "0x24afe38aa77d75c9d05be9f789e28ae64e3469d6aa377dbc4b57d0970e7eef72",
      "v": 27,
      "creates": null,
      "raw": "0xf89007850e14ec741283015f9094000000000000000000000000000000000000000087038d7ea4c68000a4b214faa541313131313131314100000000000000000000000000000000000000000000001ba0a30c507171e570d38d853c9ce4a721e698c77d3017b4861aeb1e61dbd6e0d3b2a024afe38aa77d75c9d05be9f789e28ae64e3469d6aa377dbc4b57d0970e7eef72",
      "networkId": 0,
      "chainId": 0
    }
  ]
}