{
  "hash": "0x8300bf3c35cbd7a6b159b7c961819998a75f5cfdc3a78fecd5d7d23a4dfd01c6",
  "parentHash": "0xffaf504dc715d18dd64cb129da8e3cd8c10c07b3be4ff07a094098241ded88db",
  "number": 77798,
  "timestamp": 1439443101,
  "nonce": "0xae407a334835274c",
  "difficulty": 2268882077032,
  "gasLimit": {
    "_hex": "0x2fefd8"
  },
  "gasUsed": {
    "_hex": "0x5208"
  },
  "miner": "0xf927a40C8B7F6E07c5af7FA2155B4864a4112B13",
  "extraData": "0x",
  "transactions": [
    {
      "hash": "0xfef8af3d635d0b5763f9da8ee1c1091020b0822291acc4bd9e8542a3df909e61",
      "blockHash": "0x8300bf3c35cbd7a6b159b7c961819998a75f5cfdc3a78fecd5d7d23a4dfd01c6",
      "blockNumber": 77798,
      "transactionIndex": 0,
      "confirmations": null,
      "from": "0x301641784A698FEc3e9FA4bb9A6B8c5191E2dd77",
      "gasPrice": {
        "_hex": "0x14f46b0400"
      },
      "gasLimit": {
        "_hex": "0x15f90"
      },
      "to": "0x149De5B2Ff958dbB42b62337D5432b4BBfbbe2EA",
      "value": {
        "_hex": "0x22b1c8c1227a0000"
      },
      "nonce": 0,
      "data": "0x",
      "r": "0xa36b8e0d6cf935fc009449b1e656d0ff3573d3c00cf0c787b6001c385257e91a",
      "s": "0x2b04441efb25d9e1134012ce896e501e6c250d0baf6d08eac403086f8c27e13d",
      "v": 28,
      "creates": null,
      "raw": "0xf86d808514f46b040083015f9094149de5b2ff958dbb42b62337d5432b4bbfbbe2ea8822b1c8c1227a0000801ca0a36b8e0d6cf935fc009449b1e656d0ff3573d3c00cf0c787b6001c385257e91aa02b04441efb25d9e1134012ce896e501e6c250d0baf6d08eac403086f8c27e13d",
      "networkId": 0,
      "chainId": 0
    }
  ]
}