{
  "hash": "0xe7d431c379bbd243758559328d35369bc38586239fd29b33af7afca4190d2280",
  "parentHash": "0x81750d9eff922fd9723003e263c29fcd392df86f45ab6dee6af6010d12dce346",
  "number": 106416,
  "timestamp": 1439903780,
  "nonce": "0xa3325d18a99f7bdd",
  "difficulty": 4496843722396,
  "gasLimit": {
    "_hex": "0x2fefd8"
  },
  "gasUsed": {
    "_hex": "0x2fcb7"
  },
  "miner": "0x623d2411c3bb3340784155F9a688b0085251aB5c",
  "extraData": "0x",
  "transactions": [
    {
      "hash": "0xe0c3bdc6514beff6b0c34210a34655bcd26fa139afaf3d1ff4e60ece5cf6fa63",
      "blockHash": "0xe7d431c379bbd243758559328d35369bc38586239fd29b33af7afca4190d2280",
      "blockNumber": 106416,
      "transactionIndex": 0,
      "confirmations": null,
      "from": "0x87C5B5874A18B4306DF8a752a6C8cc3E82daFc19",
      "gasPrice": {
        "_hex": "0xfef27c1640"
      },
      "gasLimit": {
        "_hex": "0x493e0"
      },
      "to": "0xD79B4C6791784184e2755B2fC1659eaaB0f80456",
      "value": {
        "_hex": "0xef18176bbe1a962"
      },
      "nonce": 353,
      "data": "0x8d2161860000000000000000000000000000000000000000000000000000000000000007d3d96ceed0cfca4794c2a5a3d3aeefe69da0a2a669e66a5651f30b64831c3db0",
      "r": "0x874f1425555286e1efe1f4f766c1ea1c4fd3b4982055885802fe8165957580ee",
      "s": "0x5ae77c634114f32914b20fe99ae4bd63c4bc270a7d2ed33ddb91ef42d6640bef",
      "v": 28,
      "creates": null,
      "raw": "0xf8b482016185fef27c1640830493e094d79b4c6791784184e2755b2fc1659eaab0f80456880ef18176bbe1a962b8448d2161860000000000000000000000000000000000000000000000000000000000000007d3d96ceed0cfca4794c2a5a3d3aeefe69da0a2a669e66a5651f30b64831c3db01ca0874f1425555286e1efe1f4f766c1ea1c4fd3b4982055885802fe8165957580eea05ae77c634114f32914b20fe99ae4bd63c4bc270a7d2ed33ddb91ef42d6640bef",
      "networkId": 0,
      "chainId": 0
    },
    {
      "hash": "0x4b0bcdfbc0117e712f458790b61c32d1d22443b0550f3260ed3ed838efb29192",
      "blockHash": "0xe7d431c379bbd243758559328d35369bc38586239fd29b33af7afca4190d2280",
      "blockNumber": 106416,
      "transactionIndex": 1,
      "confirmations": null,
      "from": "0xB6AC12CefF0375Da80503AcCa54bf3061Fa917a8",
      "gasPrice": {
        "_hex": "0xda8a352f1"
      },
      "gasLimit": {
        "_hex": "0x15f90"
      },
      "to": "0x5fF827e73C5B866c300b824fe12719a3DD350513",
      "value": {
        "_hex": "0x1158e460913d00000"
      },
      "nonce": 21,
      "data": "0x",
      "r": "0x8dda96d811d91539156fff303a6c59bbd450939e3912c69bdbe83b5e4fd1f06a",
      "s": "0x46cff948d5977c556e6d1feeb8d2c44633a62d3c84e4be0a6cace8713c50b1fd",
      "v": 27,
      "creates": null,
      "raw": "0xf86e15850da8a352f183015f90945ff827e73c5b866c300b824fe12719a3dd3505138901158e460913d00000801ba08dda96d811d91539156fff303a6c59bbd450939e3912c69bdbe83b5e4fd1f06aa046cff948d5977c556e6d1feeb8d2c44633a62d3c84e4be0a6cace8713c50b1fd",
      "networkId": 0,
      "chainId": 0
    },
    {
      "hash": "0x21531fc646d9fc9fcef056acdfb38dc41481ca77319698229105cc2848e39bf5",
      "blockHash": "0xe7d431c379bbd243758559328d35369bc38586239fd29b33af7afca4190d2280",
      "blockNumber": 106416,
      "transactionIndex": 2,
      "confirmations": null,
      "from": "0x60f7C29656Fc491e766750556fE4F0E407f81eB5",
      "gasPrice": {
        "_hex": "0xd125120bc"
      },
      "gasLimit": {
        "_hex": "0x15f90"
      },
      "to": "0x5773DFFDd4AD3114CAB6eFE3b9Ca703Fa450Fe40",
      "value": {
        "_hex": "0x3e8"
      },
      "nonce": 5,
      "data": "0x",
      "r": "0xddcf9fbd2fac2e65c5ecdee97d34888d7d5149c1d2c3bb70155fe062ef2cae18",
      "s": "0x02aed44aed58b64aad2f036b30bdd6b253fdf0d9d2e8dbfac0ee55a42596a50e",
      "v": 28,
      "creates": null,
      "raw": "0xf86705850d125120bc83015f90945773dffdd4ad3114cab6efe3b9ca703fa450fe408203e8801ca0ddcf9fbd2fac2e65c5ecdee97d34888d7d5149c1d2c3bb70155fe062ef2cae18a002aed44aed58b64aad2f036b30bdd6b253fdf0d9d2e8dbfac0ee55a42596a50e",
      "networkId": 0,
      "chainId": 0
    },
    {
      "hash": "0x888cf77bf1c74b2a54f1268f326be2cffcc22d165a76635b79b5dba1a2819770",
      "blockHash": "0xe7d431c379bbd243758559328d35369bc38586239fd29b33af7afca4190d2280",
      "blockNumber": 106416,
      "transactionIndex": 3,
      "confirmations": null,
      "from": "0x6BED894B45159c6001dfbC5bd6257A10B9eF2202",
      "gasPrice": {
        "_hex": "0xcbbbc7588"
      },
      "gasLimit": {
        "_hex": "0x15f90"
      },
      "to": "0xcAfC2B97aa18D9bD26Be5290a12a83D4d706508c",
      "value": {
        "_hex": "0x9184e72a"
      },
      "nonce": 4,
      "data": "0x",
      "r": "0xdb7ff781a4e486084f0784e538d551a5aef95250bd450f6f13438f39868a19da",
      "s": "0x3db8511dcea995032774bfc8a594af328909535fc24a4c4b9992d2ed731564f7",
      "v": 28,
      "creates": null,
      "raw": "0xf86904850cbbbc758883015f9094cafc2b97aa18d9bd26be5290a12a83d4d706508c849184e72a801ca0db7ff781a4e486084f0784e538d551a5aef95250bd450f6f13438f39868a19daa03db8511dcea995032774bfc8a594af328909535fc24a4c4b9992d2ed731564f7",
      "networkId": 0,
      "chainId": 0
    },
    {
      "hash": "0xf5d7f11ea6541dc7daed77efc1af85e1b6c3036dfd1f2dcdf714fa80e12aa225",
      "blockHash": "0xe7d431c379bbd243758559328d35369bc38586239fd29b33af7afca4190d2280",
      "blockNumber": 106416,
      "transactionIndex": 4,
      "confirmations": null,
      "from": "0x7e8504a5e26df87f6D26fA1ba148BE146F42775A",
      "gasPrice": {
        "_hex": "0xcb6847ec8"
      },
      "gasLimit": {
        "_hex": "0x15f90"
      },
      "to": "0x9f78552704fe7e52cC7C3853534aA2C3cf580D54",
      "value": {
        "_hex": "0x13f306a2409fc0000"
      },
      "nonce": 2,
      "data": "0x",
      "r": "0xec1bacd44dd86de4925bca28833f77e0452b62e39c7e216c67460f6388fd4675",
      "s": "0x6ab701d9a72cb8fdfe6208d439e2b215a70c97838027c954ceca36cd441439e8",
      "v": 27,
      "creates": null,
      "raw": "0xf86e02850cb6847ec883015f90949f78552704fe7e52cc7c3853534aa2c3cf580d5489013f306a2409fc0000801ba0ec1bacd44dd86de4925bca28833f77e0452b62e39c7e216c67460f6388fd4675a06ab701d9a72cb8fdfe6208d439e2b215a70c97838027c954ceca36cd441439e8",
      "networkId": 0,
      "chainId": 0
    }
  ]
}