{
  "hash": "0x1fe6bac2818a1bf6e764ca2aa659e13363cab508eec3e4c982a6505dd919832d",
  "parentHash": "0x45d8d0d00202681ca459b1a388d1c09def956232e269e5d50691e8e5059c1e19",
  "number": 85784,
  "timestamp": 1439568818,
  "nonce": "0x0245dbba92cdaa5d",
  "difficulty": 2766419800313,
  "gasLimit": {
    "_hex": "0x2fefd8"
  },
  "gasUsed": {
    "_hex": "0x5208"
  },
  "miner": "0xe090Ffdced499691fA9379752a59F8A058c1eE4A",
  "extraData": "0x476574682f76312e302e312f6c696e75782f676f312e342e32",
  "transactions": [
    {
      "hash": "0x0fea7ab55993347153edd864ad3b13c671bc734fc5915f7416decc5f20bdaef4",
      "blockHash": "0x1fe6bac2818a1bf6e764ca2aa659e13363cab508eec3e4c982a6505dd919832d",
      "blockNumber": 85784,
      "transactionIndex": 0,
      "confirmations": null,
      "from": "0x7E81f6449a03374191f3b7CB05d938b72e090DFf",
      "gasPrice": {
        "_hex": "0xd23f42f47"
      },
      "gasLimit": {
        "_hex": "0x15f90"
      },
      "to": "0xAD6Ca8714649EF78661Bd275407FF50064C657a4",
      "value": {
        "_hex": "0x15af1d78b58c40000"
      },
      "nonce": 0,
      "data": "0x",
      "r": "0xea756b89bcaf8349bca39825861c87820c5dbed1924b0b1f0e4448012239a3b8",
      "s": "0x232225308352234dd34c8489c3abd4944b417085ecee8901a04cc945f45a32e6",
      "v": 28,
      "creates": null,
      "raw": "0xf86e80850d23f42f4783015f9094ad6ca8714649ef78661bd275407ff50064c657a489015af1d78b58c40000801ca0ea756b89bcaf8349bca39825861c87820c5dbed1924b0b1f0e4448012239a3b8a0232225308352234dd34c8489c3abd4944b417085ecee8901a04cc945f45a32e6",
      "networkId": 0,
      "chainId": 0
    }
  ]
}