{
  "hash": "0x5570ef5223a67f31c5e32c40be39327ca00796399ef00dac6793b73694b9615c",
  "parentHash": "0x46574aa6a93ecaa78e341fb134e06cf170a8a6a9df7598e8ae5beeaf43afdb82",
  "number": 112034,
  "timestamp": 1440000878,
  "nonce": "0x26943d6d17215108",
  "difficulty": 4372619623254,
  "gasLimit": {
    "_hex": "0x2fefd8"
  },
  "gasUsed": {
    "_hex": "0x5208"
  },
  "miner": "0x64DcD9c2733262031AbFE744614d9Ed5AEDb0EFB",
  "extraData": "0x476574682f76312e302e312f6c696e75782f676f312e342e32",
  "transactions": [
    {
      "hash": "0x976ff3c29ff61ab6fbbe4d8e1f3ebc4fc8e4ccd16b54a2fc8e2f4ea7bbb553af",
      "blockHash": "0x5570ef5223a67f31c5e32c40be39327ca00796399ef00dac6793b73694b9615c",
      "blockNumber": 112034,
      "transactionIndex": 0,
      "confirmations": null,
      "from": "0xbCa6DD2fDDAf2d917006b0Aa1F8d1962BFf7FB87",
      "gasPrice": {
        "_hex": "0xcf98fef9d"
      },
      "gasLimit": {
        "_hex": "0x15f90"
      },
      "to": "0x6BED894B45159c6001dfbC5bd6257A10B9eF2202",
      "value": {
        "_hex": "0x52e683ae9ca70"
      },
      "nonce": 2,
      "data": "0x",
      "r": "0x1b4f48d7fc01972cb9650c5baa7b50bb53dca78d6e05b799269ceb1e8594e172",
      "s": "0x4ac895b15ba2697cbcbc6f32b80cea27ead5b3fbb63c4a592e5d95476737126f",
      "v": 27,
      "creates": null,
      "raw": "0xf86c02850cf98fef9d83015f90946bed894b45159c6001dfbc5bd6257a10b9ef220287052e683ae9ca70801ba01b4f48d7fc01972cb9650c5baa7b50bb53dca78d6e05b799269ceb1e8594e172a04ac895b15ba2697cbcbc6f32b80cea27ead5b3fbb63c4a592e5d95476737126f",
      "networkId": 0,
      "chainId": 0
    }
  ]
}