{
  "hash": "0xdcdafa7a5d3ca189bfb9ef69cbaa93b9c3c98de4b9e5c8481582c3bf01fe8fba",
  "parentHash": "0x197f8816b8b32ded1eb48792143d9242d2b4e977625c7f15396eea326c691228",
  "number": 57814,
  "timestamp": 1439110194,
  "nonce": "0x20383344c265fe64",
  "difficulty": 1730191316989,
  "gasLimit": {
    "_hex": "0x2fefd8"
  },
  "gasUsed": {
    "_hex": "0xa674"
  },
  "miner": "0xEF247E639d49461D25F57e9362CadE3120910Ce0",
  "extraData": "0x476574682f76312e302e312f6c696e75782f676f312e342e32",
  "transactions": [
    {
      "hash": "0x336cc9afcbe950a8ab6ccd2f9d0ff8c4689cd2de9a3e7535e9fd496d0922261b",
      "blockHash": "0xdcdafa7a5d3ca189bfb9ef69cbaa93b9c3c98de4b9e5c8481582c3bf01fe8fba",
      "blockNumber": 57814,
      "transactionIndex": 0,
      "confirmations": null,
      "from": "0x07800D2f8068E448c79a4f69B1f15EF682aAe5f6",
      "gasPrice": {
        "_hex": "0x110c8f7d8de"
      },
      "gasLimit": {
        "_hex": "0xc350"
      },
      "to": "0x2910543Af39abA0Cd09dBb2D50200b3E800A63D2",
      "value": {
        "_hex": "0xee84e0ea54a9360000"
      },
      "nonce": 1,
      "data": "0x454e584b4637414e47",
      "r": "0x593aed2260c69b94c257d2fe94d5df4eaa6f77528b4cbba2062f6cc977e97007",
      "s": "0x3c7b61d1be4b6704cd00249e46924eabcc75039f8a0e72d40ebc7b737a473db6",
      "v": 27,
      "creates": null,
      "raw": "0xf87701860110c8f7d8de82c350942910543af39aba0cd09dbb2d50200b3e800a63d289ee84e0ea54a936000089454e584b4637414e471ba0593aed2260c69b94c257d2fe94d5df4eaa6f77528b4cbba2062f6cc977e97007a03c7b61d1be4b6704cd00249e46924eabcc75039f8a0e72d40ebc7b737a473db6",
      "networkId": 0,
      "chainId": 0
    },
    {
      "hash": "0x7ac6be9b94ca74312f6d8f6e4f632d8cab55d90f5511f95b14bc73fe4899e472",
      "blockHash": "0xdcdafa7a5d3ca189bfb9ef69cbaa93b9c3c98de4b9e5c8481582c3bf01fe8fba",
      "blockNumber": 57814,
      "transactionIndex": 1,
      "confirmations": null,
      "from": "0x5Bf5E9cf9B456d6591073513De7Fd69A9BEF04Bc",
      "gasPrice": {
        "_hex": "0xd42927512"
      },
      "gasLimit": {
        "_hex": "0x55f0"
      },
      "to": "0xBc91527B31Fbbe397F91C2b9273Ea32b0d9a19a0",
      "value": {
        "_hex": "0x5ac434d350cdbbdb0"
      },
      "nonce": 1,
      "data": "0x",
      "r": "0x6e3f5393220cf749a322da445951d87b3227c733a2049d05f582bbb92dde4884",
      "s": "0x1dd97020a2a6668532ee0aa230a2bba8c21aeb3c13ce3fc6fd4b7612c06062f8",
      "v": 27,
      "creates": null,
      "raw": "0xf86d01850d429275128255f094bc91527b31fbbe397f91c2b9273ea32b0d9a19a08905ac434d350cdbbdb0801ba06e3f5393220cf749a322da445951d87b3227c733a2049d05f582bbb92dde4884a01dd97020a2a6668532ee0aa230a2bba8c21aeb3c13ce3fc6fd4b7612c06062f8",
      "networkId": 0,
      "chainId": 0
    }
  ]
}