{
  "hash": "0xa26d8abdbc0f0df492a93cbabb98838f08259a42dc38ea4e16fbb967dae04d25",
  "parentHash": "0x2b2541642ec8a5bcf8c7fc344746346d9ef847ae94cad8fcd32b8acbd15d98ce",
  "number": 107120,
  "timestamp": 1439916396,
  "nonce": "0x9103ddc776f4ad46",
  "difficulty": 4465833603757,
  "gasLimit": {
    "_hex": "0x2fefd8"
  },
  "gasUsed": {
    "_hex": "0xf618"
  },
  "miner": "0x9746c7e1ef2bd21FF3997fa467593a89cb852BD0",
  "extraData": "0x476574682f76312e302e312f77696e646f77732f676f312e342e32",
  "transactions": [
    {
      "hash": "0x62523cdb3d7a92912acd5142085313a8dfe2edba8671e0dbd2ba53f0ec568ab6",
      "blockHash": "0xa26d8abdbc0f0df492a93cbabb98838f08259a42dc38ea4e16fbb967dae04d25",
      "blockNumber": 107120,
      "transactionIndex": 0,
      "confirmations": null,
      "from": "0x32Be343B94f860124dC4fEe278FDCBD38C102D88",
      "gasPrice": {
        "_hex": "0xcba7ba188"
      },
      "gasLimit": {
        "_hex": "0x5208"
      },
      "to": "0xDb09059C2114CA52360b5d4DfEFB0Ae71C0195c6",
      "value": {
        "_hex": "0xf223cf6b0a05400"
      },
      "nonce": 1200,
      "data": "0x",
      "r": "0xd19ced7b1499f256e089eb7c7a980256dd1a50fbb739d08d202e607df2577e27",
      "s": "0x7af08ae702d305cf6e59c7ef46170555b0c52caf881ac699012b4b75d0ad0575",
      "v": 27,
      "creates": null,
      "raw": "0xf86e8204b0850cba7ba18882520894db09059c2114ca52360b5d4dfefb0ae71c0195c6880f223cf6b0a05400801ba0d19ced7b1499f256e089eb7c7a980256dd1a50fbb739d08d202e607df2577e27a07af08ae702d305cf6e59c7ef46170555b0c52caf881ac699012b4b75d0ad0575",
      "networkId": 0,
      "chainId": 0
    },
    {
      "hash": "0xdaf06144afa1d049387ad0e931d1861a1283e633f3a8b54d3ee16135acea58f1",
      "blockHash": "0xa26d8abdbc0f0df492a93cbabb98838f08259a42dc38ea4e16fbb967dae04d25",
      "blockNumber": 107120,
      "transactionIndex": 1,
      "confirmations": null,
      "from": "0x32Be343B94f860124dC4fEe278FDCBD38C102D88",
      "gasPrice": {
        "_hex": "0xcba7ba188"
      },
      "gasLimit": {
        "_hex": "0x5208"
      },
      "to": "0xF50466E3F27955334fFF159e9D6e325C11eb85D6",
      "value": {
        "_hex": "0x6ba30ffc6737a000"
      },
      "nonce": 1201,
      "data": "0x",
      "r": "0x67aecc2470c24e6661f1df8e50dab8b4b426ff769f3880a9c7b931170920026c",
      "s": "0x2406c9e1b97a6e761f21c15e6420c87f047a7ae03459cedb688d08699e5a98c4",
      "v": 28,
      "creates": null,
      "raw": "0xf86e8204b1850cba7ba18882520894f50466e3f27955334fff159e9d6e325c11eb85d6886ba30ffc6737a000801ca067aecc2470c24e6661f1df8e50dab8b4b426ff769f3880a9c7b931170920026ca02406c9e1b97a6e761f21c15e6420c87f047a7ae03459cedb688d08699e5a98c4",
      "networkId": 0,
      "chainId": 0
    },
    {
      "hash": "0xec101acf8e9c0c1f83e58afbc0ce98a81ae4a256880d6546c90a9e0424a8d6d2",
      "blockHash": "0xa26d8abdbc0f0df492a93cbabb98838f08259a42dc38ea4e16fbb967dae04d25",
      "blockNumber": 107120,
      "transactionIndex": 2,
      "confirmations": null,
      "from": "0x26F75Ed6102b3ef0Ff53f56155b66053b7E31f52",
      "gasPrice": {
        "_hex": "0xba43b7400"
      },
      "gasLimit": {
        "_hex": "0x15f90"
      },
      "to": "0x2025BF71056109EdE39166452757457cE4f605F6",
      "value": {
        "_hex": "0xad78ebc5ac6200000"
      },
      "nonce": 0,
      "data": "0x",
      "r": "0xabadbc7a2ddace621918e5c2d1762a38833a6589438d4d4a4b844e40b9cb1e70",
      "s": "0x49e95fe56bc50ebee0ebcc2703467ab1e53dbe11f7a3a5646fcb023309fe55ac",
      "v": 28,
      "creates": null,
      "raw": "0xf86e80850ba43b740083015f90942025bf71056109ede39166452757457ce4f605f6890ad78ebc5ac6200000801ca0abadbc7a2ddace621918e5c2d1762a38833a6589438d4d4a4b844e40b9cb1e70a049e95fe56bc50ebee0ebcc2703467ab1e53dbe11f7a3a5646fcb023309fe55ac",
      "networkId": 0,
      "chainId": 0
    }
  ]
}