{
  "hash": "0x3ed0173bde5ff4287a8a957f5b4ece941094558af020113c80c75cda62a11154",
  "parentHash": "0x99bc9ef5b5a4724732713c5f6b1c5c07c31f0dd32cd714b3f2379fec34ea7e0e",
  "number": 55660,
  "timestamp": 1439074638,
  "nonce": "0x9e50785482dc4719",
  "difficulty": 1614705882702,
  "gasLimit": {
    "_hex": "0x2fe3db"
  },
  "gasUsed": {
    "_hex": "0x5208"
  },
  "miner": "0xbb7B8287f3F0a933474a79eAe42CBCa977791171",
  "extraData": "0x476574682f4c5649562f76312e302e312f6c696e75782f676f312e342e32",
  "transactions": [
    {
      "hash": "0x52c19cb2e8ab68fb34ddc0e456b26d88b4c320629826f021cbd83d6a6b5ee206",
      "blockHash": "0x3ed0173bde5ff4287a8a957f5b4ece941094558af020113c80c75cda62a11154",
      "blockNumber": 55660,
      "transactionIndex": 0,
      "confirmations": null,
      "from": "0xa9f5E7bf6Cbf6fEc55B30850Eb492b47A376d050",
      "gasPrice": {
        "_hex": "0xdcc23bbe4"
      },
      "gasLimit": {
        "_hex": "0x5208"
      },
      "to": "0x32Be343B94f860124dC4fEe278FDCBD38C102D88",
      "value": {
        "_hex": "0xfc66b42652e7b0000"
      },
      "nonce": 3,
      "data": "0x",
      "r": "0x0e5e8e40efb4ac32f7d0375ac220758e8cc5499459ae0c7f0c3e93f9c35c5e71",
      "s": "0x221f8fef53798fe7df79f9191b18673e22a48d6b65ba6d9d2e1f55321cfbbc5e",
      "v": 27,
      "creates": null,
      "raw": "0xf86d03850dcc23bbe48252089432be343b94f860124dc4fee278fdcbd38c102d88890fc66b42652e7b0000801ba00e5e8e40efb4ac32f7d0375ac220758e8cc5499459ae0c7f0c3e93f9c35c5e71a0221f8fef53798fe7df79f9191b18673e22a48d6b65ba6d9d2e1f55321cfbbc5e",
      "networkId": 0,
      "chainId": 0
    }
  ]
}