{
  "hash": "0x2583fa29b9afa5f5c473df0a93fa9a62eead0bb1ba5abe268760debb0996d09b",
  "parentHash": "0x613f29c1e58ad53c2620628e2a59bcb6c178bc04ea16fe8241abb5c353a202a2",
  "number": 79237,
  "timestamp": 1439466536,
  "nonce": "0x3c0b3952722a75e0",
  "difficulty": 2323422871567,
  "gasLimit": {
    "_hex": "0x2fefd8"
  },
  "gasUsed": {
    "_hex": "0xa410"
  },
  "miner": "0xF2d2AfF1320476cb8C6b607199D23175cc595693",
  "extraData": "0x476574682f76312e302e312f77696e646f77732f676f312e342e32",
  "transactions": [
    {
      "hash": "0xbc4061bca8386f47061f08f7ab8ff7d78dcb4d03fbeb467daa82201a859d91ad",
      "blockHash": "0x2583fa29b9afa5f5c473df0a93fa9a62eead0bb1ba5abe268760debb0996d09b",
      "blockNumber": 79237,
      "transactionIndex": 0,
      "confirmations": null,
      "from": "0x32Be343B94f860124dC4fEe278FDCBD38C102D88",
      "gasPrice": {
        "_hex": "0xdda28a06e"
      },
      "gasLimit": {
        "_hex": "0x5208"
      },
      "to": "0xC20b3638Bf021A5f01B7732C141963181DDF3366",
      "value": {
        "_hex": "0x878654ab7c3cd00000"
      },
      "nonce": 411,
      "data": "0x",
      "r": "0xb8c9bf53296adb6bdd69e889c48c347445cc528de35bd0716675c3e36c667375",
      "s": "0x07ceb7a4fdd7fc9d51c943f3e454c1c6c0ad17d2b157b24782061794a379b2da",
      "v": 27,
      "creates": null,
      "raw": "0xf86f82019b850dda28a06e82520894c20b3638bf021a5f01b7732c141963181ddf336689878654ab7c3cd00000801ba0b8c9bf53296adb6bdd69e889c48c347445cc528de35bd0716675c3e36c667375a007ceb7a4fdd7fc9d51c943f3e454c1c6c0ad17d2b157b24782061794a379b2da",
      "networkId": 0,
      "chainId": 0
    },
    {
      "hash": "0xd9ec2eb7c81a0172a2f3c4962be5fe5626d5f2e73acef631b631b02043e98d54",
      "blockHash": "0x2583fa29b9afa5f5c473df0a93fa9a62eead0bb1ba5abe268760debb0996d09b",
      "blockNumber": 79237,
      "transactionIndex": 1,
      "confirmations": null,
      "from": "0xB6AC12CefF0375Da80503AcCa54bf3061Fa917a8",
      "gasPrice": {
        "_hex": "0xd90555cd8"
      },
      "gasLimit": {
        "_hex": "0x15f90"
      },
      "to": "0x5fF827e73C5B866c300b824fe12719a3DD350513",
      "value": {
        "_hex": "0x13f306a2409fc0000"
      },
      "nonce": 16,
      "data": "0x",
      "r": "0x0347d421d3e87eb0fc9f119f7ee768b089c76b41c412312c9909699fab9135f6",
      "s": "0x2e00a8bc7a1c38b5c8c8a9b2f9459863f5a598f1c447286c3eeaf63d78291c18",
      "v": 27,
      "creates": null,
      "raw": "0xf86e10850d90555cd883015f90945ff827e73c5b866c300b824fe12719a3dd35051389013f306a2409fc0000801ba00347d421d3e87eb0fc9f119f7ee768b089c76b41c412312c9909699fab9135f6a02e00a8bc7a1c38b5c8c8a9b2f9459863f5a598f1c447286c3eeaf63d78291c18",
      "networkId": 0,
      "chainId": 0
    }
  ]
}