{
  "hash": "0x692df640945da7d2dc509cfdacb14a3e9a4b412fd0d3dd6ae8ffc68ce81b7907",
  "parentHash": "0xd96531de081a0e11380d6b83d55d37e945ba82c63b93c8c6a7712853e37fcea3",
  "number": 87993,
  "timestamp": 1439600753,
  "nonce": "0xfb3a8103f3f5153c",
  "difficulty": 3200435087180,
  "gasLimit": {
    "_hex": "0x2fefd8"
  },
  "gasUsed": {
    "_hex": "0xa410"
  },
  "miner": "0xe6A7a1d47ff21B6321162AEA7C6CB457D5476Bca",
  "extraData": "0x476574682f76312e302e312d38326566323666362f6c696e75782f676f312e34",
  "transactions": [
    {
      "hash": "0xe33401f06f445fefea08b08808ae6755a17d299ad32f7d8830b75885436494f1",
      "blockHash": "0x692df640945da7d2dc509cfdacb14a3e9a4b412fd0d3dd6ae8ffc68ce81b7907",
      "blockNumber": 87993,
      "transactionIndex": 0,
      "confirmations": null,
      "from": "0x2910543Af39abA0Cd09dBb2D50200b3E800A63D2",
      "gasPrice": {
        "_hex": "0xdd9a5fd3f"
      },
      "gasLimit": {
        "_hex": "0x5208"
      },
      "to": "0x289B9bA6dC9c12D3130F1115180397C20cCBF220",
      "value": {
        "_hex": "0x1285e7d8ddaab708000"
      },
      "nonce": 717,
      "data": "0x",
      "r": "0x38e0ef8ac4a5545aff581674ebab5258c98378fa0c01ecd98aca384f1265241c",
      "s": "0x6a02e991fc8b8ccfedce66666deb40e0e1b7a6b93eca14b1060bbe769c15cd89",
      "v": 27,
      "creates": null,
      "raw": "0xf8708202cd850dd9a5fd3f82520894289b9ba6dc9c12d3130f1115180397c20ccbf2208a01285e7d8ddaab708000801ba038e0ef8ac4a5545aff581674ebab5258c98378fa0c01ecd98aca384f1265241ca06a02e991fc8b8ccfedce66666deb40e0e1b7a6b93eca14b1060bbe769c15cd89",
      "networkId": 0,
      "chainId": 0
    },
    {
      "hash": "0xd53e94efb233631f7399e90b9f5ba4672591d4d3f0a0be6de1dd2460ca58b81b",
      "blockHash": "0x692df640945da7d2dc509cfdacb14a3e9a4b412fd0d3dd6ae8ffc68ce81b7907",
      "blockNumber": 87993,
      "transactionIndex": 1,
      "confirmations": null,
      "from": "0x141d08EDaDA2C1bA62A2940184Ba03d62d3fFF22",
      "gasPrice": {
        "_hex": "0xba43b7400"
      },
      "gasLimit": {
        "_hex": "0x5208"
      },
      "to": "0xC47Aaa860008be6f65B58c6C6E02a84e666EfE31",
      "value": {
        "_hex": "0x14cfba2664c7be000"
      },
      "nonce": 6,
      "data": "0x",
      "r": "0x7b641291ca52cff551cfd90b0eaaaa5c1a9f32525f5894d0affb64b78668e210",
      "s": "0x41c76d8c0fc62cee10fc19a0f21c819d53f0e094e79cfeb6edc5320c33f5846f",
      "v": 27,
      "creates": null,
      "raw": "0xf86d06850ba43b740082520894c47aaa860008be6f65b58c6c6e02a84e666efe3189014cfba2664c7be000801ba07b641291ca52cff551cfd90b0eaaaa5c1a9f32525f5894d0affb64b78668e210a041c76d8c0fc62cee10fc19a0f21c819d53f0e094e79cfeb6edc5320c33f5846f",
      "networkId": 0,
      "chainId": 0
    }
  ]
}