{
  "hash": "0x7c715f75f06fe63fa68c6c94ce6b71258b85ec657fc1a39c1e0c5a32145cb791",
  "parentHash": "0x078767e1f54bf748ba79b6fd3d49405d7f200ba900bd0f7919032187768c101c",
  "number": 58212,
  "timestamp": 1439116906,
  "nonce": "0xee25f02bd5071066",
  "difficulty": 1721682020837,
  "gasLimit": {
    "_hex": "0x2fefd8"
  },
  "gasUsed": {
    "_hex": "0x546c"
  },
  "miner": "0x47ff6576639c2e94762eA5443978D7681C0E78DC",
  "extraData": "0x476574682f76312e302e312f6c696e75782f676f312e342e32",
  "transactions": [
    {
      "hash": "0x9d1f58d62a955e16472b13596b908f317194d0c18cb662a9cfaf2ec6fea624b1",
      "blockHash": "0x7c715f75f06fe63fa68c6c94ce6b71258b85ec657fc1a39c1e0c5a32145cb791",
      "blockNumber": 58212,
      "transactionIndex": 0,
      "confirmations": null,
      "from": "0x7930c2D9cbFa87f510f8F98777fF8A8448CA5629",
      "gasPrice": {
        "_hex": "0xcb5721690"
      },
      "gasLimit": {
        "_hex": "0x55f0"
      },
      "to": "0x2910543Af39abA0Cd09dBb2D50200b3E800A63D2",
      "value": {
        "_hex": "0xabbcd4ef377580000"
      },
      "nonce": 0,
      "data": "0x454e48575a46315230",
      "r": "0x3d9912190df6fe9745026574cbf40fb207774ef9d12de21a2426229adfdfb199",
      "s": "0x1fea5c30c844dd7cf7ba87a8b6c931e22e1883f4dfe4b6b2d4c724ba575745fa",
      "v": 28,
      "creates": null,
      "raw": "0xf87680850cb57216908255f0942910543af39aba0cd09dbb2d50200b3e800a63d2890abbcd4ef37758000089454e48575a463152301ca03d9912190df6fe9745026574cbf40fb207774ef9d12de21a2426229adfdfb199a01fea5c30c844dd7cf7ba87a8b6c931e22e1883f4dfe4b6b2d4c724ba575745fa",
      "networkId": 0,
      "chainId": 0
    }
  ]
}