{
  "hash": "0x633fb1e2d16242cee402c59ae205fb32794cb53f1934361033313bbf42871ac9",
  "parentHash": "0xf7b18d5c2e97f815bf89b639599b51096a50357cf53f50c631cffc7a4da57e55",
  "number": 97871,
  "timestamp": 1439763254,
  "nonce": "0x03fc263b3e16871c",
  "difficulty": 3840885658856,
  "gasLimit": {
    "_hex": "0x2fefd8"
  },
  "gasUsed": {
    "_hex": "0x5208"
  },
  "miner": "0x2f6BCe4fc330B69C9B4c2694d57C63Ec7B18feC7",
  "extraData": "0x476574682f76312e302e312f77696e646f77732f676f312e342e32",
  "transactions": [
    {
      "hash": "0x6a6379027f72ce339176cd0196866f7826cbe9ba211734c9417e3b057208db60",
      "blockHash": "0x633fb1e2d16242cee402c59ae205fb32794cb53f1934361033313bbf42871ac9",
      "blockNumber": 97871,
      "transactionIndex": 0,
      "confirmations": null,
      "from": "0x32Be343B94f860124dC4fEe278FDCBD38C102D88",
      "gasPrice": {
        "_hex": "0xdb4a65395"
      },
      "gasLimit": {
        "_hex": "0x5208"
      },
      "to": "0xfF0488422583a2E977cA11C1623E9D7Cf54674F6",
      "value": {
        "_hex": "0x1a625d5b6fa1000"
      },
      "nonce": 1030,
      "data": "0x",
      "r": "0x7cf5ba6c9177121312c2ef213335e43ce4e5577809a3491e965c5a3a76deaded",
      "s": "0x5bb548702b276268d3d32b1a5bee7c5d09b9a89fa5051fb74557b0890a1c89f7",
      "v": 28,
      "creates": null,
      "raw": "0xf86e820406850db4a6539582520894ff0488422583a2e977ca11c1623e9d7cf54674f68801a625d5b6fa1000801ca07cf5ba6c9177121312c2ef213335e43ce4e5577809a3491e965c5a3a76deadeda05bb548702b276268d3d32b1a5bee7c5d09b9a89fa5051fb74557b0890a1c89f7",
      "networkId": 0,
      "chainId": 0
    }
  ]
}