{
  "hash": "0x608139c617a9185fdc06060b6802badd97e6ade464f7598db408f1920fe878af",
  "parentHash": "0x529d94e35b096e61df6a39d56a5e21cb9d09a5fdb6ee37e6004678e5f9287156",
  "number": 84304,
  "timestamp": 1439547807,
  "nonce": "0x3466832d466397c8",
  "difficulty": 2536579078446,
  "gasLimit": {
    "_hex": "0x2fefd8"
  },
  "gasUsed": {
    "_hex": "0x14820"
  },
  "miner": "0xe6A7a1d47ff21B6321162AEA7C6CB457D5476Bca",
  "extraData": "0x476574682f76312e302e312d38326566323666362f6c696e75782f676f312e34",
  "transactions": [
    {
      "hash": "0x211365a584e97f5b8ce5e6ecaf0009009023374559d23148455317e6c4d3f49b",
      "blockHash": "0x608139c617a9185fdc06060b6802badd97e6ade464f7598db408f1920fe878af",
      "blockNumber": 84304,
      "transactionIndex": 0,
      "confirmations": null,
      "from": "0xD924AAC0bCB65C13bE4044f6BeA8aAe34D7a7126",
      "gasPrice": {
        "_hex": "0xcc50c0033"
      },
      "gasLimit": {
        "_hex": "0x5208"
      },
      "to": "0x32Be343B94f860124dC4fEe278FDCBD38C102D88",
      "value": {
        "_hex": "0xeaa4aa1eb9e1b000"
      },
      "nonce": 4,
      "data": "0x",
      "r": "0xda3865e66da79b768300e00678a8ee9edcef6e6f211720b706acb60ce0917250",
      "s": "0x1e93a6934dd9d72218cb1b218fa76f6f779016471065aa1b45b8ba740343b5f1",
      "v": 27,
      "creates": null,
      "raw": "0xf86c04850cc50c00338252089432be343b94f860124dc4fee278fdcbd38c102d8888eaa4aa1eb9e1b000801ba0da3865e66da79b768300e00678a8ee9edcef6e6f211720b706acb60ce0917250a01e93a6934dd9d72218cb1b218fa76f6f779016471065aa1b45b8ba740343b5f1",
      "networkId": 0,
      "chainId": 0
    },
    {
      "hash": "0x181290a3f0b14f755cf908bc837473eedd6334e69499071dceaf121ee95140a7",
      "blockHash": "0x608139c617a9185fdc06060b6802badd97e6ade464f7598db408f1920fe878af",
      "blockNumber": 84304,
      "transactionIndex": 1,
      "confirmations": null,
      "from": "0xA5fb3E4399E8F18643f969D0Ce65CC352fc252C6",
      "gasPrice": {
        "_hex": "0xcc50c0033"
      },
      "gasLimit": {
        "_hex": "0x5208"
      },
      "to": "0x32Be343B94f860124dC4fEe278FDCBD38C102D88",
      "value": {
        "_hex": "0x1bcba354094dee000"
      },
      "nonce": 7,
      "data": "0x",
      "r": "0x120eb3c64b7e50e25582401cc36d2d668fd4cc7658bc70944fdfb8e21920a99f",
      "s": "0x7a7759c25064372507c1029337900f65cef42071374ed7a1d8ffca2b9a8c8bd1",
      "v": 27,
      "creates": null,
      "raw": "0xf86d07850cc50c00338252089432be343b94f860124dc4fee278fdcbd38c102d888901bcba354094dee000801ba0120eb3c64b7e50e25582401cc36d2d668fd4cc7658bc70944fdfb8e21920a99fa07a7759c25064372507c1029337900f65cef42071374ed7a1d8ffca2b9a8c8bd1",
      "networkId": 0,
      "chainId": 0
    },
    {
      "hash": "0x9812b944c1520c95e3b7827c604d4115467882ae488d43bd1aa820db214f5fd2",
      "blockHash": "0x608139c617a9185fdc06060b6802badd97e6ade464f7598db408f1920fe878af",
      "blockNumber": 84304,
      "transactionIndex": 2,
      "confirmations": null,
      "from": "0xc0920452d99591a4e8b190632c52754c72F73328",
      "gasPrice": {
        "_hex": "0xcc50c0033"
      },
      "gasLimit": {
        "_hex": "0x5208"
      },
      "to": "0x32Be343B94f860124dC4fEe278FDCBD38C102D88",
      "value": {
        "_hex": "0x24949bf6f3e95c000"
      },
      "nonce": 4,
      "data": "0x",
      "r": "0x49a23de6151ca03ff92018f1401620d7aea2f803bb0a8b7e0e9dc5f0f7f3354e",
      "s": "0x300cf39bfcd7a9f4485c33557a49dd492139086eafc2feccaf11d1b4a2743768",
      "v": 27,
      "creates": null,
      "raw": "0xf86d04850cc50c00338252089432be343b94f860124dc4fee278fdcbd38c102d8889024949bf6f3e95c000801ba049a23de6151ca03ff92018f1401620d7aea2f803bb0a8b7e0e9dc5f0f7f3354ea0300cf39bfcd7a9f4485c33557a49dd492139086eafc2feccaf11d1b4a2743768",
      "networkId": 0,
      "chainId": 0
    },
    {
      "hash": "0x08c8ebabe8ae2dbfb61039b251698302852e1c691f1588e523ea2e37c88f01d3",
      "blockHash": "0x608139c617a9185fdc06060b6802badd97e6ade464f7598db408f1920fe878af",
      "blockNumber": 84304,
      "transactionIndex": 3,
      "confirmations": null,
      "from": "0x1e5A10a687837F41f50dD26e845A718fbfBed5a5",
      "gasPrice": {
        "_hex": "0xcc50c0033"
      },
      "gasLimit": {
        "_hex": "0x5208"
      },
      "to": "0x32Be343B94f860124dC4fEe278FDCBD38C102D88",
      "value": {
        "_hex": "0x3635b3d2c7a1140000"
      },
      "nonce": 0,
      "data": "0x",
      "r": "0x1fe5f3934efb964928c706a0a03e3497e39000faaf5d4c21064d4f01be215ed0",
      "s": "0x649750adb5ded031adf95298e0fc28bbc2a53acc77b7acd0507e5d7c8e6a85c5",
      "v": 27,
      "creates": null,
      "raw": "0xf86d80850cc50c00338252089432be343b94f860124dc4fee278fdcbd38c102d88893635b3d2c7a1140000801ba01fe5f3934efb964928c706a0a03e3497e39000faaf5d4c21064d4f01be215ed0a0649750adb5ded031adf95298e0fc28bbc2a53acc77b7acd0507e5d7c8e6a85c5",
      "networkId": 0,
      "chainId": 0
    }
  ]
}