{
  "hash": "0x320b396dd7f097e1f187fbbc6281bbff3f7161d1180280d7a7c714f64939316e",
  "parentHash": "0x3522cc9fd1413e04d1521b3eb5bc06c7f643dca1f108fcfc4701b3be3701fc46",
  "number": 67457,
  "timestamp": 1439272402,
  "nonce": "0x0bf20949a7cbb817",
  "difficulty": 1921371962277,
  "gasLimit": {
    "_hex": "0x2fefd8"
  },
  "gasUsed": {
    "_hex": "0x5208"
  },
  "miner": "0xc8ebccC5F5689Fa8659d83713341e5aD19349448",
  "extraData": "0x476574682f76312e302e302d35363231396135652f6c696e75782f676f312e34",
  "transactions": [
    {
      "hash": "0x278f13bee1c342adf164ae9d7a056484a1add434371c914051533752e6846b51",
      "blockHash": "0x320b396dd7f097e1f187fbbc6281bbff3f7161d1180280d7a7c714f64939316e",
      "blockNumber": 67457,
      "transactionIndex": 0,
      "confirmations": null,
      "from": "0x120A270bbC009644e35F0bB6ab13f95b8199c4ad",
      "gasPrice": {
        "_hex": "0xd86fec3ac"
      },
      "gasLimit": {
        "_hex": "0x15f90"
      },
      "to": "0x63116ca569ba01384f4B68C196f4745cf45C7d11",
      "value": {
        "_hex": "0x451e2df0c2af0c0000"
      },
      "nonce": 163,
      "data": "0x",
      "r": "0xba9deeaeeeada7ba369142a0c5eee1fe10caa878546c80ebf19d35ed7d1a3e94",
      "s": "0x49807a80e5683ffff90b7aac2a877e6a3dbddae2b5c51bec6fb83ec72b04f072",
      "v": 27,
      "creates": null,
      "raw": "0xf86f81a3850d86fec3ac83015f909463116ca569ba01384f4b68c196f4745cf45c7d1189451e2df0c2af0c0000801ba0ba9deeaeeeada7ba369142a0c5eee1fe10caa878546c80ebf19d35ed7d1a3e94a049807a80e5683ffff90b7aac2a877e6a3dbddae2b5c51bec6fb83ec72b04f072",
      "networkId": 0,
      "chainId": 0
    }
  ]
}