{
  "hash": "0xbb8cce235c8d4d1cde14ad89908af6aedbc90ff96c21c27a522d173eff04603a",
  "parentHash": "0x91006d5706a5ba1c56018e0657e81e07c8acbf347aeacb0fb724a0c0d0e1ae7f",
  "number": 78541,
  "timestamp": 1439455320,
  "nonce": "0xbc2689eb976af686",
  "difficulty": 2298788523809,
  "gasLimit": {
    "_hex": "0x2fefd8"
  },
  "gasUsed": {
    "_hex": "0x5208"
  },
  "miner": "0x02dE7d35a60bf6A216411476040ec648668769D7",
  "extraData": "0x476574682f76312e302e312f77696e646f77732f676f312e342e32",
  "transactions": [
    {
      "hash": "0xac568a0cfd48aa70d8febf8e927f3d4d426bee63f282e37901b4614f9762628e",
      "blockHash": "0xbb8cce235c8d4d1cde14ad89908af6aedbc90ff96c21c27a522d173eff04603a",
      "blockNumber": 78541,
      "transactionIndex": 0,
      "confirmations": null,
      "from": "0xC603Ab5ef41fC61AA8b76bEddb09e3Cfcbb174BD",
      "gasPrice": {
        "_hex": "0xdc310b8dd"
      },
      "gasLimit": {
        "_hex": "0x15f90"
      },
      "to": "0x8F79f76381Aad7B98C19aF55eE75fdfEeb012211",
      "value": {
        "_hex": "0x56bc75e2d63100000"
      },
      "nonce": 7,
      "data": "0x",
      "r": "0x95de7c31679f85ef1f9c15b068dd0601311bfae7cbeb3ab64e0f27e33bb264b6",
      "s": "0x6edb8016928bee44f80aca2cfabda3b7dd5f2095d2b4dd83474153d47266b80c",
      "v": 28,
      "creates": null,
      "raw": "0xf86e07850dc310b8dd83015f90948f79f76381aad7b98c19af55ee75fdfeeb01221189056bc75e2d63100000801ca095de7c31679f85ef1f9c15b068dd0601311bfae7cbeb3ab64e0f27e33bb264b6a06edb8016928bee44f80aca2cfabda3b7dd5f2095d2b4dd83474153d47266b80c",
      "networkId": 0,
      "chainId": 0
    }
  ]
}