{
  "hash": "0x7e0afc6a8442d9e24c9b07dfde27a2716bf5456b6581799992971e7a3f4c6686",
  "parentHash": "0x58c74b71a751f539171689b6ac675796bd53c1801176ebb7492295b66675dfc1",
  "number": 108855,
  "timestamp": 1439947273,
  "nonce": "0xd688b725dffd1a1e",
  "difficulty": 4380689341334,
  "gasLimit": {
    "_hex": "0x2fefd8"
  },
  "gasUsed": {
    "_hex": "0x546c"
  },
  "miner": "0xe6A7a1d47ff21B6321162AEA7C6CB457D5476Bca",
  "extraData": "0x476574682f76312e302e312d38326566323666362f6c696e75782f676f312e34",
  "transactions": [
    {
      "hash": "0x4cd32c49dc0cd3a9f1325b1bf9272425456ccd8a3c972126630bbd993583d3f9",
      "blockHash": "0x7e0afc6a8442d9e24c9b07dfde27a2716bf5456b6581799992971e7a3f4c6686",
      "blockNumber": 108855,
      "transactionIndex": 0,
      "confirmations": null,
      "from": "0x8035fe4E6B6AF27Ae492a578515e9D39fa6fA65b",
      "gasPrice": {
        "_hex": "0x110c8f7d8de"
      },
      "gasLimit": {
        "_hex": "0xc350"
      },
      "to": "0x2910543Af39abA0Cd09dBb2D50200b3E800A63D2",
      "value": {
        "_hex": "0x363466684d81160000"
      },
      "nonce": 1,
      "data": "0x454e565a5a38425552",
      "r": "0x2465f3b909ae0383af8dedcae9f782a78986ebbc752436ee5d4c79bb04f197c0",
      "s": "0xdd31f9b7dc97712771fa65f2fc1f7cff3b2a547fbd55d98b0a4415533d4a966c",
      "v": 27,
      "creates": null,
      "raw": "0xf87701860110c8f7d8de82c350942910543af39aba0cd09dbb2d50200b3e800a63d289363466684d8116000089454e565a5a384255521ba02465f3b909ae0383af8dedcae9f782a78986ebbc752436ee5d4c79bb04f197c0a0dd31f9b7dc97712771fa65f2fc1f7cff3b2a547fbd55d98b0a4415533d4a966c",
      "networkId": 0,
      "chainId": 0
    }
  ]
}