{
  "hash": "0xd6f479037a979ca74ddea5ec7ebf764bf2a017bc6b1eeb40b74a4252bf08700d",
  "parentHash": "0xdca7572ad2e77067f11de44d1944766ef4c7856b504b07191ce8afb269cef451",
  "number": 115089,
  "timestamp": 1440051288,
  "nonce": "0x7a8814f0b9a5bea3",
  "difficulty": 4538496366711,
  "gasLimit": {
    "_hex": "0x2fefd8"
  },
  "gasUsed": {
    "_hex": "0x5208"
  },
  "miner": "0x52bc44d5378309EE2abF1539BF71dE1b7d7bE3b5",
  "extraData": "0x476574682f76312e302e312d39353236303766382f6c696e75782f676f312e34",
  "transactions": [
    {
      "hash": "0x69750b444ac0a5b0fe9131a1e5a09b8af4d274d3abc6f8eb3832677db85cd56b",
      "blockHash": "0xd6f479037a979ca74ddea5ec7ebf764bf2a017bc6b1eeb40b74a4252bf08700d",
      "blockNumber": 115089,
      "transactionIndex": 0,
      "confirmations": null,
      "from": "0x0Ab4e6aDb862b5F5E711E079d93B247b62aFB62A",
      "gasPrice": {
        "_hex": "0xce90c1ea3"
      },
      "gasLimit": {
        "_hex": "0x15f90"
      },
      "to": "0x3f07B008B04EE61858d0ec3f88239941889e1A79",
      "value": {
        "_hex": "0x2386f26fc10000"
      },
      "nonce": 0,
      "data": "0x",
      "r": "0x678dc2350be4a4aaf1aede1d074ff358b9b58da1ac506124e430cabb447d09f2",
      "s": "0x662f2a47c439b814879c0b004526c347193e2217edf6bd9894ce87d4179cbdf5",
      "v": 27,
      "creates": null,
      "raw": "0xf86c80850ce90c1ea383015f90943f07b008b04ee61858d0ec3f88239941889e1a79872386f26fc10000801ba0678dc2350be4a4aaf1aede1d074ff358b9b58da1ac506124e430cabb447d09f2a0662f2a47c439b814879c0b004526c347193e2217edf6bd9894ce87d4179cbdf5",
      "networkId": 0,
      "chainId": 0
    }
  ]
}