{
  "hash": "0xefe173a779ba99ad11a61cb20a252e062a560ab84da58cfe4e2b4cdbe0b7fce7",
  "parentHash": "0xe6150cd7c67c080a5b70bd50af0738dcdb56e8607fd981f85ce08e8b29b3e7d4",
  "number": 114986,
  "timestamp": 1440049874,
  "nonce": "0xfa4c08686bf87d29",
  "difficulty": 4496641094005,
  "gasLimit": {
    "_hex": "0x2fefd8"
  },
  "gasUsed": {
    "_hex": "0x5208"
  },
  "miner": "0xb6E2d440C46510EC44266A3f58165E3956173df0",
  "extraData": "0x476574682f76312e302e312f77696e646f77732f676f312e342e32",
  "transactions": [
    {
      "hash": "0x322632bdac75baa45343a77c9f96f2b5753bb4d59770a4c43e65b57079f7bd94",
      "blockHash": "0xefe173a779ba99ad11a61cb20a252e062a560ab84da58cfe4e2b4cdbe0b7fce7",
      "blockNumber": 114986,
      "transactionIndex": 0,
      "confirmations": null,
      "from": "0x790b8a3cE86E707ED0eD32bF89B3269692a23CC1",
      "gasPrice": {
        "_hex": "0xdf05d24fc"
      },
      "gasLimit": {
        "_hex": "0x15f90"
      },
      "to": "0x4D67f4F0Db45b3B5a3424B39ed8d972F710381D5",
      "value": {
        "_hex": "0x2f9e3fb2098f20000"
      },
      "nonce": 54,
      "data": "0x",
      "r": "0x81ed748a744f1d3e9527bec58ed4443d4a8ea00a41e98febd0c8744469114fb3",
      "s": "0x713286cb4c683335fe8ffb7ed09d4facc574c0d393be4ff3c33a655c8d453120",
      "v": 28,
      "creates": null,
      "raw": "0xf86e36850df05d24fc83015f90944d67f4f0db45b3b5a3424b39ed8d972f710381d58902f9e3fb2098f20000801ca081ed748a744f1d3e9527bec58ed4443d4a8ea00a41e98febd0c8744469114fb3a0713286cb4c683335fe8ffb7ed09d4facc574c0d393be4ff3c33a655c8d453120",
      "networkId": 0,
      "chainId": 0
    }
  ]
}