{
  "hash": "0x9a13442c14f6365aabf8c9080bfc8150eb488d224374b4b5c9cb7cc07c3cbc04",
  "parentHash": "0xdef3e731f512652fb858faf7bb693872004a1971e51a344c0731bbffa120af8e",
  "number": 116447,
  "timestamp": 1440074444,
  "nonce": "0x8130548a1d9dbbec",
  "difficulty": 4564428203908,
  "gasLimit": {
    "_hex": "0x2fefd8"
  },
  "gasUsed": {
    "_hex": "0x5208"
  },
  "miner": "0xe6A7a1d47ff21B6321162AEA7C6CB457D5476Bca",
  "extraData": "0x476574682f76312e302e312d38326566323666362f6c696e75782f676f312e34",
  "transactions": [
    {
      "hash": "0x0a5b616fdf1d4431f1fac84b281a1b71e69c22412b22ba181dfe93ca774c2a32",
      "blockHash": "0x9a13442c14f6365aabf8c9080bfc8150eb488d224374b4b5c9cb7cc07c3cbc04",
      "blockNumber": 116447,
      "transactionIndex": 0,
      "confirmations": null,
      "from": "0xa70a9a7040d542C632D8e0bE7c5513A8a5Bbc752",
      "gasPrice": {
        "_hex": "0xd5ba466b6"
      },
      "gasLimit": {
        "_hex": "0x5208"
      },
      "to": "0x32Be343B94f860124dC4fEe278FDCBD38C102D88",
      "value": {
        "_hex": "0x455f49bd94e19c00"
      },
      "nonce": 315,
      "data": "0x",
      "r": "0xb375945be7996e8c9258dff79e5334f53aa193c5959177376633bac108777f12",
      "s": "0x7db5b2e6d610b3b7178ee21a6260c6dbcf949dd1f99787ebfbb4f7d2a0280a46",
      "v": 28,
      "creates": null,
      "raw": "0xf86e82013b850d5ba466b68252089432be343b94f860124dc4fee278fdcbd38c102d8888455f49bd94e19c00801ca0b375945be7996e8c9258dff79e5334f53aa193c5959177376633bac108777f12a07db5b2e6d610b3b7178ee21a6260c6dbcf949dd1f99787ebfbb4f7d2a0280a46",
      "networkId": 0,
      "chainId": 0
    }
  ]
}