{
  "hash": "0xc6eab1569f963339fc0c7caeebdb1e5beb94560a7c6b943d8cc5f7556aea9a2e",
  "parentHash": "0xed9f3eeb660da4754e2257812266c0e4664210528f512d8fc1affc66399c087b",
  "number": 121691,
  "timestamp": 1440181040,
  "nonce": "0xb83a345db470c45e",
  "difficulty": 4482092394268,
  "gasLimit": {
    "_hex": "0x2fefd8"
  },
  "gasUsed": {
    "_hex": "0x5208"
  },
  "miner": "0x52bc44d5378309EE2abF1539BF71dE1b7d7bE3b5",
  "extraData": "0xd783010002844765746887676f312e342e32856c696e7578",
  "transactions": [
    {
      "hash": "0xcdf0a46c2e1b6b455c5391bb90a3a729142df5a20895098f18d37ae340612ca4",
      "blockHash": "0xc6eab1569f963339fc0c7caeebdb1e5beb94560a7c6b943d8cc5f7556aea9a2e",
      "blockNumber": 121691,
      "transactionIndex": 0,
      "confirmations": null,
      "from": "0x61E20833179bA2eCCc2065e5F733CC8CdA7394c0",
      "gasPrice": {
        "_hex": "0xd5ed1cfef"
      },
      "gasLimit": {
        "_hex": "0x5208"
      },
      "to": "0x32Be343B94f860124dC4fEe278FDCBD38C102D88",
      "value": {
        "_hex": "0x1ccc2caf5cdf6800"
      },
      "nonce": 14,
      "data": "0x",
      "r": "0x24ed571bbd307f2f26e1389facc3ce93389712957f61fd360c05dbc94a6d31a6",
      "s": "0x7b6f2e50d22ec8c3e5533958ee93479d12bbf9a3a77157a6f2f1c4d568103e1e",
      "v": 28,
      "creates": null,
      "raw": "0xf86c0e850d5ed1cfef8252089432be343b94f860124dc4fee278fdcbd38c102d88881ccc2caf5cdf6800801ca024ed571bbd307f2f26e1389facc3ce93389712957f61fd360c05dbc94a6d31a6a07b6f2e50d22ec8c3e5533958ee93479d12bbf9a3a77157a6f2f1c4d568103e1e",
      "networkId": 0,
      "chainId": 0
    }
  ]
}