{
  "hash": "0xae558d4aeb47b6c6019de51d9da8e6f0c055ef6da8374e9baef95609e546a680",
  "parentHash": "0x866de9773eece2d5d1a1bf89f3a13e37e81c1b694cdbf5d7861f99ca21587681",
  "number": 110992,
  "timestamp": 1439982868,
  "nonce": "0xd8d2bf1f8816ac3e",
  "difficulty": 4416078687290,
  "gasLimit": {
    "_hex": "0x2fefd8"
  },
  "gasUsed": {
    "_hex": "0x5208"
  },
  "miner": "0x580992B51e3925e23280EfB93d3047C82f17E038",
  "extraData": "0x476574682f76312e302e312f6c696e75782f676f312e342e32",
  "transactions": [
    {
      "hash": "0xe155fefdfeea83ef56902e715067fa67f00277ee352fba6714028bd1c5614e9f",
      "blockHash": "0xae558d4aeb47b6c6019de51d9da8e6f0c055ef6da8374e9baef95609e546a680",
      "blockNumber": 110992,
      "transactionIndex": 0,
      "confirmations": null,
      "from": "0x007f7f58D3eb5b7510A301eCC749FC1fCDDBE14D",
      "gasPrice": {
        "_hex": "0xd382b0b9c"
      },
      "gasLimit": {
        "_hex": "0x15f90"
      },
      "to": "0xb1abce2918E21ddb93AA452731a12672A3d9F75a",
      "value": {
        "_hex": "0x4563918244f40000"
      },
      "nonce": 300,
      "data": "0x",
      "r": "0x9993b167681daad627fbf17a7077aa3ea08488936ef046c5b4677d5ce80da565",
      "s": "0x65ff333e2f987fec6d053147440a230906d858df07cd96fa9cf0725d5b411468",
      "v": 28,
      "creates": null,
      "raw": "0xf86f82012c850d382b0b9c83015f9094b1abce2918e21ddb93aa452731a12672a3d9f75a884563918244f40000801ca09993b167681daad627fbf17a7077aa3ea08488936ef046c5b4677d5ce80da565a065ff333e2f987fec6d053147440a230906d858df07cd96fa9cf0725d5b411468",
      "networkId": 0,
      "chainId": 0
    }
  ]
}