{
  "hash": "0xafa3b5c88d4ad63aafcd9dc6199e8dc71cb0251e734fd22ba9eb337375a48bc0",
  "parentHash": "0xbd43a3bed61fe21ec42fcebc19437403a7e0862a9d54bb2d06f1f9427355db79",
  "number": 46850,
  "timestamp": 1438930291,
  "nonce": "0x4d19c894627210e4",
  "difficulty": 1458872661036,
  "gasLimit": {
    "_hex": "0x7f0c"
  },
  "gasUsed": {
    "_hex": "0x5208"
  },
  "miner": "0x9746c7e1ef2bd21FF3997fa467593a89cb852BD0",
  "extraData": "0x476574682f76312e302e312f77696e646f77732f676f312e342e32",
  "transactions": [
    {
      "hash": "0xeff469d74dad47280f6f3312bccf4522d21bfe1b1dd5adc6a0354d8fc0aa8592",
      "blockHash": "0xafa3b5c88d4ad63aafcd9dc6199e8dc71cb0251e734fd22ba9eb337375a48bc0",
      "blockNumber": 46850,
      "transactionIndex": 0,
      "confirmations": null,
      "from": "0x2Fe86C0450Bf1bE6001d119aA87f6f33117bD699",
      "gasPrice": {
        "_hex": "0xd7e8e5537"
      },
      "gasLimit": {
        "_hex": "0x5208"
      },
      "to": "0x32Be343B94f860124dC4fEe278FDCBD38C102D88",
      "value": {
        "_hex": "0x36374c273c2ab80000"
      },
      "nonce": 1,
      "data": "0x",
      "r": "0xf1fdefa5e0b3e0e033e592fc9a5590d45aa3c5a4afc20fe5d541ca46a00b62c8",
      "s": "0x1a6d431b32735eeba7b5b9d9db8e699d8550267943dc10f81b8a7d3d8a270501",
      "v": 27,
      "creates": null,
      "raw": "0xf86d01850d7e8e55378252089432be343b94f860124dc4fee278fdcbd38c102d888936374c273c2ab80000801ba0f1fdefa5e0b3e0e033e592fc9a5590d45aa3c5a4afc20fe5d541ca46a00b62c8a01a6d431b32735eeba7b5b9d9db8e699d8550267943dc10f81b8a7d3d8a270501",
      "networkId": 0,
      "chainId": 0
    }
  ]
}