{
  "hash": "0xf80ecafa676e50ab6cb8f6ea161009abe83427cb27bbdea54472c22f9d6614b2",
  "parentHash": "0x774d23d0b12adef94f7e6b47a1e6e272059ebc7c42383b7be1db0729e61f5dbb",
  "number": 89958,
  "timestamp": 1439631760,
  "nonce": "0x542a2cb847373293",
  "difficulty": 3351604684503,
  "gasLimit": {
    "_hex": "0x2fefd8"
  },
  "gasUsed": {
    "_hex": "0x5208"
  },
  "miner": "0xe6A7a1d47ff21B6321162AEA7C6CB457D5476Bca",
  "extraData": "0x476574682f76312e302e312d38326566323666362f6c696e75782f676f312e34",
  "transactions": [
    {
      "hash": "0xc532494a5300e0f9e8a340acebef37f3f5df3768266bbcd818def8aba25a60f1",
      "blockHash": "0xf80ecafa676e50ab6cb8f6ea161009abe83427cb27bbdea54472c22f9d6614b2",
      "blockNumber": 89958,
      "transactionIndex": 0,
      "confirmations": null,
      "from": "0x7fa165177F28D171bA7C17f765c1904344Ec64CB",
      "gasPrice": {
        "_hex": "0xd70968ea7"
      },
      "gasLimit": {
        "_hex": "0x5208"
      },
      "to": "0x32Be343B94f860124dC4fEe278FDCBD38C102D88",
      "value": {
        "_hex": "0x17121e096370a5000"
      },
      "nonce": 17,
      "data": "0x",
      "r": "0xb6d9e18b987362822f789755a42898b5ee32fbf2a711487f5a068f8cbfa5dd58",
      "s": "0x1c6d101fffb16ae33d50166f87002c3a17ffd87f4876c029914e99914f24fbe8",
      "v": 28,
      "creates": null,
      "raw": "0xf86d11850d70968ea78252089432be343b94f860124dc4fee278fdcbd38c102d8889017121e096370a5000801ca0b6d9e18b987362822f789755a42898b5ee32fbf2a711487f5a068f8cbfa5dd58a01c6d101fffb16ae33d50166f87002c3a17ffd87f4876c029914e99914f24fbe8",
      "networkId": 0,
      "chainId": 0
    }
  ]
}