{
  "hash": "0x8f32e3a21b0a1cbd5c99c5519018e0a007e13053b243b8470f53c1a980a42968",
  "parentHash": "0x91029e131b1f571e83db35bee2a5e9f0eebdb971963beb44ec0074d73766465f",
  "number": 53123,
  "timestamp": 1439032748,
  "nonce": "0x4a4ecfc62c42fcd6",
  "difficulty": 1575468852954,
  "gasLimit": {
    "_hex": "0x2010c8"
  },
  "gasUsed": {
    "_hex": "0x546c"
  },
  "miner": "0xEF247E639d49461D25F57e9362CadE3120910Ce0",
  "extraData": "0x476574682f76312e302e312f6c696e75782f676f312e342e32",
  "transactions": [
    {
      "hash": "0x896c2fd8b7f1ffec70ebc87154dbf521765a4222e451a174593420e8b5788c71",
      "blockHash": "0x8f32e3a21b0a1cbd5c99c5519018e0a007e13053b243b8470f53c1a980a42968",
      "blockNumber": 53123,
      "transactionIndex": 0,
      "confirmations": null,
      "from": "0x77a17122Fa31b98f1711D32A99F03Ec326F33D08",
      "gasPrice": {
        "_hex": "0x110c8f7d8de"
      },
      "gasLimit": {
        "_hex": "0xc350"
      },
      "to": "0x2910543Af39abA0Cd09dBb2D50200b3E800A63D2",
      "value": {
        "_hex": "0x8ac7230489e80000"
      },
      "nonce": 1,
      "data": "0x454e32473733444e47",
      "r": "0xd968e70fef411833708e71222aed7e30811f2bbff76064f6b63313d8dccd8c49",
      "s": "0xcc52934f8e0c982eb6f77be40693b624bf9d8c15aa997cf700b232d9e078eb7c",
      "v": 27,
      "creates": null,
      "raw": "0xf87601860110c8f7d8de82c350942910543af39aba0cd09dbb2d50200b3e800a63d2888ac7230489e8000089454e32473733444e471ba0d968e70fef411833708e71222aed7e30811f2bbff76064f6b63313d8dccd8c49a0cc52934f8e0c982eb6f77be40693b624bf9d8c15aa997cf700b232d9e078eb7c",
      "networkId": 0,
      "chainId": 0
    }
  ]
}