{
  "hash": "0xb17572c10257e3ab30206d7d68ff435845c66891753927fae588b46520c333d5",
  "parentHash": "0x7210f0e4843ee975818dbac5b33672418cc78e9caedc9c0cc5eeac51d6128e7b",
  "number": 62091,
  "timestamp": 1439183277,
  "nonce": "0x8d1699db5ac8fc12",
  "difficulty": 1752258849664,
  "gasLimit": {
    "_hex": "0x2fefd8"
  },
  "gasUsed": {
    "_hex": "0x5208"
  },
  "miner": "0x9D49F602b0fdb924Bd63DDE2Bd0907E4A07c63a7",
  "extraData": "0x476574682f76312e302e312f6c696e75782f676f312e342e32",
  "transactions": [
    {
      "hash": "0x236962c23b5cf3f7ea1657441d53ceded341856b8974c5eb8c78a7b1a2a27b1b",
      "blockHash": "0xb17572c10257e3ab30206d7d68ff435845c66891753927fae588b46520c333d5",
      "blockNumber": 62091,
      "transactionIndex": 0,
      "confirmations": null,
      "from": "0x2910543Af39abA0Cd09dBb2D50200b3E800A63D2",
      "gasPrice": {
        "_hex": "0xce1e394f1"
      },
      "gasLimit": {
        "_hex": "0x5208"
      },
      "to": "0xfCf927eb31d037c2d6eC70e2D4b5211A64aD4a72",
      "value": {
        "_hex": "0x657a1bca248d38000"
      },
      "nonce": 106,
      "data": "0x",
      "r": "0x49032e98a957187b1dbd2d2e3575255886988ba4722c43987aa36ff3cc5accd2",
      "s": "0x23de7d96599717d5b49d9210f32c29b129ff827b2237ceed32842741ba9d4699",
      "v": 27,
      "creates": null,
      "raw": "0xf86d6a850ce1e394f182520894fcf927eb31d037c2d6ec70e2d4b5211a64ad4a72890657a1bca248d38000801ba049032e98a957187b1dbd2d2e3575255886988ba4722c43987aa36ff3cc5accd2a023de7d96599717d5b49d9210f32c29b129ff827b2237ceed32842741ba9d4699",
      "networkId": 0,
      "chainId": 0
    }
  ]
}