{
  "hash": "0xc84c30a5dee509f5c913b9c65309a7675fe27c597997b1261218978ee14a3cc4",
  "parentHash": "0xcebdf4f8aff2d8ce4229d32bf8b7ec68dcb56bf89247e4181cdcb723a14dc01f",
  "number": 112789,
  "timestamp": 1440013206,
  "nonce": "0x111a49683036b443",
  "difficulty": 4438910673575,
  "gasLimit": {
    "_hex": "0x2fefd8"
  },
  "gasUsed": {
    "_hex": "0xf618"
  },
  "miner": "0xe6A7a1d47ff21B6321162AEA7C6CB457D5476Bca",
  "extraData": "0x476574682f76312e302e312d38326566323666362f6c696e75782f676f312e34",
  "transactions": [
    {
      "hash": "0xab5f59392429428455699548b0b30e2df4b821effea9fef534ac777795c4efcb",
      "blockHash": "0xc84c30a5dee509f5c913b9c65309a7675fe27c597997b1261218978ee14a3cc4",
      "blockNumber": 112789,
      "transactionIndex": 0,
      "confirmations": null,
      "from": "0x3b01EBd2419f6d39DB6AB4471e6382848716641F",
      "gasPrice": {
        "_hex": "0xcafccfa87"
      },
      "gasLimit": {
        "_hex": "0x5208"
      },
      "to": "0x32Be343B94f860124dC4fEe278FDCBD38C102D88",
      "value": {
        "_hex": "0x32d6a22c05f9e0000"
      },
      "nonce": 5,
      "data": "0x",
      "r": "0x54a91b6f8b2810597db8675b09b4511a2ecff2c591c8f152b695c1a523ecc633",
      "s": "0x52e8017a4934614acec7522adf78b3b5d98a0d55f5d3ceb550bc9204832f6de3",
      "v": 27,
      "creates": null,
      "raw": "0xf86d05850cafccfa878252089432be343b94f860124dc4fee278fdcbd38c102d8889032d6a22c05f9e0000801ba054a91b6f8b2810597db8675b09b4511a2ecff2c591c8f152b695c1a523ecc633a052e8017a4934614acec7522adf78b3b5d98a0d55f5d3ceb550bc9204832f6de3",
      "networkId": 0,
      "chainId": 0
    },
    {
      "hash": "0x13ba94deaf24d69521a18943ded1f26459e11216a784c8ee989964891878ec0a",
      "blockHash": "0xc84c30a5dee509f5c913b9c65309a7675fe27c597997b1261218978ee14a3cc4",
      "blockNumber": 112789,
      "transactionIndex": 1,
      "confirmations": null,
      "from": "0x6d84df1cFAD609EAc476cBC2553390bFC23Cf6Fc",
      "gasPrice": {
        "_hex": "0xcafccfa87"
      },
      "gasLimit": {
        "_hex": "0x5208"
      },
      "to": "0x32Be343B94f860124dC4fEe278FDCBD38C102D88",
      "value": {
        "_hex": "0x89f18f2dc7fde0000"
      },
      "nonce": 7,
      "data": "0x",
      "r": "0x57ab2248ec9da2e78c9bc722c410ff7562d68d931edd3ea3242eec9b44532a83",
      "s": "0x07ce6da6e43c8b39e3a0a3e7b41d2f013a53f3a8ed28260c8ff0af580cba351f",
      "v": 28,
      "creates": null,
      "raw": "0xf86d07850cafccfa878252089432be343b94f860124dc4fee278fdcbd38c102d8889089f18f2dc7fde0000801ca057ab2248ec9da2e78c9bc722c410ff7562d68d931edd3ea3242eec9b44532a83a007ce6da6e43c8b39e3a0a3e7b41d2f013a53f3a8ed28260c8ff0af580cba351f",
      "networkId": 0,
      "chainId": 0
    },
    {
      "hash": "0x27109e7ae4105cc0af22748441cd1a1afddcf4bd6d674bff15cdf03bb7417f5b",
      "blockHash": "0xc84c30a5dee509f5c913b9c65309a7675fe27c597997b1261218978ee14a3cc4",
      "blockNumber": 112789,
      "transactionIndex": 2,
      "confirmations": null,
      "from": "0x8101538Df7E005d06CA303f609631c4029130687",
      "gasPrice": {
        "_hex": "0xcafccfa87"
      },
      "gasLimit": {
        "_hex": "0x5208"
      },
      "to": "0x32Be343B94f860124dC4fEe278FDCBD38C102D88",
      "value": {
        "_hex": "0x8455e90fc70a1000"
      },
      "nonce": 6,
      "data": "0x",
      "r": "0x75a7f60c5e4a2c57638e62957b88a3844ba7ae5b8b967e33870dfd717a1cf5d0",
      "s": "0x5b19b44c65c097a15e8d7ea27bf4d40472d0b47a70d482d687085999e062b8b6",
      "v": 27,
      "creates": null,
      "raw": "0xf86c06850cafccfa878252089432be343b94f860124dc4fee278fdcbd38c102d88888455e90fc70a1000801ba075a7f60c5e4a2c57638e62957b88a3844ba7ae5b8b967e33870dfd717a1cf5d0a05b19b44c65c097a15e8d7ea27bf4d40472d0b47a70d482d687085999e062b8b6",
      "networkId": 0,
      "chainId": 0
    }
  ]
}