{
  "hash": "0xb2d1947787dba17094e468b64e5bc2b12180bd52b203a8ea8d4f7df2f55a8a83",
  "parentHash": "0x049152372ee4fed7f38a06e8b7d7ceb3b09a91af8624a274318024ff6e6d8f14",
  "number": 59530,
  "timestamp": 1439139781,
  "nonce": "0x2c9f93832a353722",
  "difficulty": 1696379332756,
  "gasLimit": {
    "_hex": "0x2fefd8"
  },
  "gasUsed": {
    "_hex": "0x5208"
  },
  "miner": "0x9746c7e1ef2bd21FF3997fa467593a89cb852BD0",
  "extraData": "0x476574682f76312e302e312f77696e646f77732f676f312e342e32",
  "transactions": [
    {
      "hash": "0x1c47cda3e59a160bfc25a1452334c2b8430f833df32fdc6e131eee945b151905",
      "blockHash": "0xb2d1947787dba17094e468b64e5bc2b12180bd52b203a8ea8d4f7df2f55a8a83",
      "blockNumber": 59530,
      "transactionIndex": 0,
      "confirmations": null,
      "from": "0x87898CE53471043FcCa0a2aF4E1dC6d8B3fCf607",
      "gasPrice": {
        "_hex": "0xd877b5e07"
      },
      "gasLimit": {
        "_hex": "0x5208"
      },
      "to": "0xBFdD9820a04283b289957956353b5F3C1F665EcF",
      "value": {
        "_hex": "0x4563918244f40000"
      },
      "nonce": 7,
      "data": "0x",
      "r": "0x063a181af8cb139316d91e6845a1a79e0cebec2edada571f422352a5c243abec",
      "s": "0x10f4751c06df9fd8c9f237f86036e5fdbd7a2592f6b5bf6c480e170d45161750",
      "v": 27,
      "creates": null,
      "raw": "0xf86c07850d877b5e0782520894bfdd9820a04283b289957956353b5f3c1f665ecf884563918244f40000801ba0063a181af8cb139316d91e6845a1a79e0cebec2edada571f422352a5c243abeca010f4751c06df9fd8c9f237f86036e5fdbd7a2592f6b5bf6c480e170d45161750",
      "networkId": 0,
      "chainId": 0
    }
  ]
}