{
  "hash": "0xb5708dd61c5d0926550aaa1af8c698afb8b73c4d65baf0ce24e508ece4ccccbc",
  "parentHash": "0xbf6beb86f3b4d2b9f1a6900f1588467d939801c84091230b7125fcecee8aa475",
  "number": 79389,
  "timestamp": 1439468731,
  "nonce": "0x6a2809240538ee67",
  "difficulty": 2350768051459,
  "gasLimit": {
    "_hex": "0x2fefd8"
  },
  "gasUsed": {
    "_hex": "0xa410"
  },
  "miner": "0x8eB3747b8397C48BC29fd5Df6765AbCEfbDffFCA",
  "extraData": "0x476574682f76312e302e312d38326566323666362f6c696e75782f676f312e34",
  "transactions": [
    {
      "hash": "0x15f6b6b92e0d9fc86e4d7ef9e6743d60fd5ed1c1fdccde7812c317f55a5037de",
      "blockHash": "0xb5708dd61c5d0926550aaa1af8c698afb8b73c4d65baf0ce24e508ece4ccccbc",
      "blockNumber": 79389,
      "transactionIndex": 0,
      "confirmations": null,
      "from": "0xF87481A262E993a75F791E7859E71BaC36A606Eb",
      "gasPrice": {
        "_hex": "0xd10cda534"
      },
      "gasLimit": {
        "_hex": "0x5208"
      },
      "to": "0x32Be343B94f860124dC4fEe278FDCBD38C102D88",
      "value": {
        "_hex": "0xb0f0d675e1e0d8000"
      },
      "nonce": 18,
      "data": "0x",
      "r": "0x6e85a551105770e6b490f4498b8654b032c91672c3bace2b0655799d657554ec",
      "s": "0x008fc75e68d865b6cc3e3f34b994f316aa18c29d0a3b8a8591767f887256ca26",
      "v": 28,
      "creates": null,
      "raw": "0xf86c12850d10cda5348252089432be343b94f860124dc4fee278fdcbd38c102d88890b0f0d675e1e0d8000801ca06e85a551105770e6b490f4498b8654b032c91672c3bace2b0655799d657554ec9f8fc75e68d865b6cc3e3f34b994f316aa18c29d0a3b8a8591767f887256ca26",
      "networkId": 0,
      "chainId": 0
    },
    {
      "hash": "0x85af4184229a58c6625654ef6f8e6ef75297729641b1d459c3e5fe5d40a01fd6",
      "blockHash": "0xb5708dd61c5d0926550aaa1af8c698afb8b73c4d65baf0ce24e508ece4ccccbc",
      "blockNumber": 79389,
      "transactionIndex": 1,
      "confirmations": null,
      "from": "0x4717DdA36062a4D937DF7601Bd07354806A957EA",
      "gasPrice": {
        "_hex": "0xd10cda534"
      },
      "gasLimit": {
        "_hex": "0x5208"
      },
      "to": "0x32Be343B94f860124dC4fEe278FDCBD38C102D88",
      "value": {
        "_hex": "0xdcac36f29e0cc00"
      },
      "nonce": 2,
      "data": "0x",
      "r": "0xe1f9c9e2c315a8bd5a3dd3275a27af630b24e3deec1938c3c77e0fc42b0930f0",
      "s": "0x1ec527f86a550db5c6930b144fbd539a7153cb2d0ea4ffac0aba64c5732c8f28",
      "v": 27,
      "creates": null,
      "raw": "0xf86c02850d10cda5348252089432be343b94f860124dc4fee278fdcbd38c102d88880dcac36f29e0cc00801ba0e1f9c9e2c315a8bd5a3dd3275a27af630b24e3deec1938c3c77e0fc42b0930f0a01ec527f86a550db5c6930b144fbd539a7153cb2d0ea4ffac0aba64c5732c8f28",
      "networkId": 0,
      "chainId": 0
    }
  ]
}