{
  "hash": "0x007bf54096a2159799a7199e7bab0efc088768b861ed18aab94dc5c7a7632a86",
  "parentHash": "0x47fcb8a8ba3907090d69532f1648d93f164468fe912f085f46ff0a6db8d24be8",
  "number": 82631,
  "timestamp": 1439522651,
  "nonce": "0x3c836860b981f794",
  "difficulty": 2365978235472,
  "gasLimit": {
    "_hex": "0x2fefd8"
  },
  "gasUsed": {
    "_hex": "0xa674"
  },
  "miner": "0xbb7B8287f3F0a933474a79eAe42CBCa977791171",
  "extraData": "0x476574682f4c5649562f76312e302e312f6c696e75782f676f312e342e32",
  "transactions": [
    {
      "hash": "0xcaf9c9ca00b84a911b6427a935e7108cfbfbdb79d35bbacb8f7247bdc26ceae0",
      "blockHash": "0x007bf54096a2159799a7199e7bab0efc088768b861ed18aab94dc5c7a7632a86",
      "blockNumber": 82631,
      "transactionIndex": 0,
      "confirmations": null,
      "from": "0xD5A7BeC332aDDE18b3104b5792546aA59b879b52",
      "gasPrice": {
        "_hex": "0x110c8f7d8de"
      },
      "gasLimit": {
        "_hex": "0xc350"
      },
      "to": "0x2910543Af39abA0Cd09dBb2D50200b3E800A63D2",
      "value": {
        "_hex": "0xb1a2bc2ec500000"
      },
      "nonce": 3,
      "data": "0x454e4e4a3243415930",
      "r": "0x133c062026bfd5b0ff22ca902ddb9e193f6d8ae1532df91f04ed977f48902e0d",
      "s": "0x727a6527f0a19102d2d2864e66d0f80df1196797d0b40dd39925789884515d23",
      "v": 27,
      "creates": null,
      "raw": "0xf87603860110c8f7d8de82c350942910543af39aba0cd09dbb2d50200b3e800a63d2880b1a2bc2ec50000089454e4e4a32434159301ba0133c062026bfd5b0ff22ca902ddb9e193f6d8ae1532df91f04ed977f48902e0da0727a6527f0a19102d2d2864e66d0f80df1196797d0b40dd39925789884515d23",
      "networkId": 0,
      "chainId": 0
    },
    {
      "hash": "0xe7fa3dbd629db5c14d3413c3b8ca0b46457c196dbd28921110429c92f19e7f3c",
      "blockHash": "0x007bf54096a2159799a7199e7bab0efc088768b861ed18aab94dc5c7a7632a86",
      "blockNumber": 82631,
      "transactionIndex": 1,
      "confirmations": null,
      "from": "0x2910543Af39abA0Cd09dBb2D50200b3E800A63D2",
      "gasPrice": {
        "_hex": "0xdac7b75b1"
      },
      "gasLimit": {
        "_hex": "0x5208"
      },
      "to": "0x184BDE3Ce2E854Cdc2018432AbE1b612B4BfE7E0",
      "value": {
        "_hex": "0x533284bcb4778000"
      },
      "nonce": 515,
      "data": "0x",
      "r": "0xc87659c8bc70444c108c68601b63296012d0030ba7eacc9fa3e51512d5bf5c87",
      "s": "0x68ffee482cd2c02e1211372c3dc1c0bc850007843aec9f88dd6a9a7caa581c53",
      "v": 27,
      "creates": null,
      "raw": "0xf86e820203850dac7b75b182520894184bde3ce2e854cdc2018432abe1b612b4bfe7e088533284bcb4778000801ba0c87659c8bc70444c108c68601b63296012d0030ba7eacc9fa3e51512d5bf5c87a068ffee482cd2c02e1211372c3dc1c0bc850007843aec9f88dd6a9a7caa581c53",
      "networkId": 0,
      "chainId": 0
    }
  ]
}