{
  "hash": "0x5b9c83625096702063939eb66da336490002c84d63dcb88b9a537bba490513d3",
  "parentHash": "0xd6e7b76abd755b520755d06b45ee714fc09695eb61a0f2d2e6d0fe6a36fca225",
  "number": 82993,
  "timestamp": 1439528180,
  "nonce": "0x3a965b1d910bd8d8",
  "difficulty": 2405481224015,
  "gasLimit": {
    "_hex": "0x2fefd8"
  },
  "gasUsed": {
    "_hex": "0x5208"
  },
  "miner": "0x6dC8a46AB80ED97E4073b96F78554A536E2e7152",
  "extraData": "0x",
  "transactions": [
    {
      "hash": "0xe6be587bc65feecb1f0e159edec77df697bc457a27e955d1f6ea02bf3839d8e7",
      "blockHash": "0x5b9c83625096702063939eb66da336490002c84d63dcb88b9a537bba490513d3",
      "blockNumber": 82993,
      "transactionIndex": 0,
      "confirmations": null,
      "from": "0xF11940EA05aA9CC3F13aCF5C5cA6EDCF312E3Aec",
      "gasPrice": {
        "_hex": "0xdb6731c92"
      },
      "gasLimit": {
        "_hex": "0x15f90"
      },
      "to": "0x59C62d3D43f9EA1c4118d98c188AA5d028b8bB8E",
      "value": {
        "_hex": "0x8ac7230489e80000"
      },
      "nonce": 7,
      "data": "0x",
      "r": "0xe421f55dd939e3f64b1ad57effc93fe8b1dd2c0efa6ca1e7ab249dd814c81638",
      "s": "0x0b4fc8b48d4a41f216dfa711d3c59bb20e5f5c1a4606bbc8454337118227e325",
      "v": 27,
      "creates": null,
      "raw": "0xf86d07850db6731c9283015f909459c62d3d43f9ea1c4118d98c188aa5d028b8bb8e888ac7230489e80000801ba0e421f55dd939e3f64b1ad57effc93fe8b1dd2c0efa6ca1e7ab249dd814c81638a00b4fc8b48d4a41f216dfa711d3c59bb20e5f5c1a4606bbc8454337118227e325",
      "networkId": 0,
      "chainId": 0
    }
  ]
}