{
  "hash": "0x4d2912b2187a0be62967479426c6ac21007a809a94b7087bfff8d4c518cd0f41",
  "parentHash": "0xe69690061d69734250b67bfd728051a0d5bccfb852bed6c3a2e7b534de94bbf1",
  "number": 77499,
  "timestamp": 1439438360,
  "nonce": "0xf10091915c4eba80",
  "difficulty": 2237060482169,
  "gasLimit": {
    "_hex": "0x2fefd8"
  },
  "gasUsed": {
    "_hex": "0x101af"
  },
  "miner": "0x88D74a59454F6cF3B51ef6b9136AFb6b9D405A88",
  "extraData": "0x476574682f76312e302e312d38326566323666362f6c696e75782f676f312e34",
  "transactions": [
    {
      "hash": "0xb0122bbe0053c134fd2916372bc601b080a4584a5f184d1dca9eb023f238330c",
      "blockHash": "0x4d2912b2187a0be62967479426c6ac21007a809a94b7087bfff8d4c518cd0f41",
      "blockNumber": 77499,
      "transactionIndex": 0,
      "confirmations": null,
      "from": "0x770d98d31b4353FceEE8560c4CCf803e88C0c4e0",
      "gasPrice": {
        "_hex": "0xd98a97847"
      },
      "gasLimit": {
        "_hex": "0x15f90"
      },
      "to": "0xCAc7000C7dBaa2E33Af15325AF5D435E011C7BdD",
      "value": {
        "_hex": "0x899fd3009805a8d0"
      },
      "nonce": 18,
      "data": "0xb214faa54131313131313131410000000000000000000000000000000000000000000000",
      "r": "0xb00184d87a5432904a2d0b3b0b6d672ce331f7afa9646226157ec7b7ad8182ec",
      "s": "0x31b08ad2e1f7d349d38fdcecda925c71052dee38fceaf997bbcf527d764abdba",
      "v": 27,
      "creates": null,
      "raw": "0xf89112850d98a9784783015f9094cac7000c7dbaa2e33af15325af5d435e011c7bdd88899fd3009805a8d0a4b214faa541313131313131314100000000000000000000000000000000000000000000001ba0b00184d87a5432904a2d0b3b0b6d672ce331f7afa9646226157ec7b7ad8182eca031b08ad2e1f7d349d38fdcecda925c71052dee38fceaf997bbcf527d764abdba",
      "networkId": 0,
      "chainId": 0
    },
    {
      "hash": "0xbe939d25c0b136fac28d36dd9137b482c8a8d1aae99512b7b2b7f57caf1d496e",
      "blockHash": "0x4d2912b2187a0be62967479426c6ac21007a809a94b7087bfff8d4c518cd0f41",
      "blockNumber": 77499,
      "transactionIndex": 1,
      "confirmations": null,
      "from": "0x9F3a74Fd5e7edCC1162993171381cbB632b7cFF0",
      "gasPrice": {
        "_hex": "0xce7e1455c"
      },
      "gasLimit": {
        "_hex": "0x5208"
      },
      "to": "0x51b0ba4F2C8a9e2FbD35c9A5a0a3d74EDC973327",
      "value": {
        "_hex": "0x1b1ae4d6e2ef500000"
      },
      "nonce": 10,
      "data": "0x",
      "r": "0x4e3335499ed69fbcaeff5e1699df9ae78ce0ab022b695dc8c554051da6b3a434",
      "s": "0x5499c2748f5a7600d75169fdd9118e34f4cc07bd3d5aa42dd4978650717e4199",
      "v": 27,
      "creates": null,
      "raw": "0xf86d0a850ce7e1455c8252089451b0ba4f2c8a9e2fbd35c9a5a0a3d74edc973327891b1ae4d6e2ef500000801ba04e3335499ed69fbcaeff5e1699df9ae78ce0ab022b695dc8c554051da6b3a434a05499c2748f5a7600d75169fdd9118e34f4cc07bd3d5aa42dd4978650717e4199",
      "networkId": 0,
      "chainId": 0
    },
    {
      "hash": "0x8ea006dcbdb68efe65fe8e63c7d354ab0a17e1d2f54d40b2964d2b7a06b1767b",
      "blockHash": "0x4d2912b2187a0be62967479426c6ac21007a809a94b7087bfff8d4c518cd0f41",
      "blockNumber": 77499,
      "transactionIndex": 2,
      "confirmations": null,
      "from": "0x9F3a74Fd5e7edCC1162993171381cbB632b7cFF0",
      "gasPrice": {
        "_hex": "0xce7e1455c"
      },
      "gasLimit": {
        "_hex": "0x5208"
      },
      "to": "0xa074c9eF930d1304E8C1033063b0deF4cdfb1449",
      "value": {
        "_hex": "0x1b1ae4d6e2ef500000"
      },
      "nonce": 11,
      "data": "0x",
      "r": "0x743ef6fffe1a2d721e05ebbfe5d1f488fb300046278ab6dbb2b3fc8063a3a857",
      "s": "0x5c151e3701d6c177f2b656c07c92f53d42921d0ebd9e413b58e0ba002f5a66d2",
      "v": 28,
      "creates": null,
      "raw": "0xf86d0b850ce7e1455c82520894a074c9ef930d1304e8c1033063b0def4cdfb1449891b1ae4d6e2ef500000801ca0743ef6fffe1a2d721e05ebbfe5d1f488fb300046278ab6dbb2b3fc8063a3a857a05c151e3701d6c177f2b656c07c92f53d42921d0ebd9e413b58e0ba002f5a66d2",
      "networkId": 0,
      "chainId": 0
    }
  ]
}