{
  "hash": "0x46c29edece4cb192fa156a0749f23994096f7a8949b781e6ba399b325c58a40f",
  "parentHash": "0xb287a517571110656ef4e78c19a82893abf702f5cc67e740dd62ec9219e06758",
  "number": 120641,
  "timestamp": 1440163528,
  "nonce": "0x20a037b9fea81030",
  "difficulty": 4417468174602,
  "gasLimit": {
    "_hex": "0x2fefd8"
  },
  "gasUsed": {
    "_hex": "0xa410"
  },
  "miner": "0xe6A7a1d47ff21B6321162AEA7C6CB457D5476Bca",
  "extraData": "0xd783010002844765746887676f312e342e32856c696e7578",
  "transactions": [
    {
      "hash": "0x78c8c8037c0d5c79df4f5cb348e37fc1ecea04c65e34f748e205961b966ffc2f",
      "blockHash": "0x46c29edece4cb192fa156a0749f23994096f7a8949b781e6ba399b325c58a40f",
      "blockNumber": 120641,
      "transactionIndex": 0,
      "confirmations": null,
      "from": "0xFBb1b73C4f0BDa4f67dcA266ce6Ef42f520fBB98",
      "gasPrice": {
        "_hex": "0xba43b7400"
      },
      "gasLimit": {
        "_hex": "0x5208"
      },
      "to": "0xb406315733467Ea62738DdAAF37E2D35fF76CF89",
      "value": {
        "_hex": "0x1b6bd57752daf400"
      },
      "nonce": 255,
      "data": "0x",
      "r": "0x4058472dc97f2dcec33e72883195229512c4e149bb372444a6b9e4c89c97bb7d",
      "s": "0x3de15ca92f0be8c5758e02c311e16f027d6021af3120a9f5088dc6e83fad9bf3",
      "v": 28,
      "creates": null,
      "raw": "0xf86d81ff850ba43b740082520894b406315733467ea62738ddaaf37e2d35ff76cf89881b6bd57752daf400801ca04058472dc97f2dcec33e72883195229512c4e149bb372444a6b9e4c89c97bb7da03de15ca92f0be8c5758e02c311e16f027d6021af3120a9f5088dc6e83fad9bf3",
      "networkId": 0,
      "chainId": 0
    },
    {
      "hash": "0x867be1e0d882324e49190869ac28e791e586016cf58dee03ad1e29e0b9f9f331",
      "blockHash": "0x46c29edece4cb192fa156a0749f23994096f7a8949b781e6ba399b325c58a40f",
      "blockNumber": 120641,
      "transactionIndex": 1,
      "confirmations": null,
      "from": "0x02d7FFc396D24b1dBfca72ce1ae8a22dfa5DA000",
      "gasPrice": {
        "_hex": "0xba43b7400"
      },
      "gasLimit": {
        "_hex": "0x5208"
      },
      "to": "0xFBb1b73C4f0BDa4f67dcA266ce6Ef42f520fBB98",
      "value": {
        "_hex": "0x55de2ec818ea86000"
      },
      "nonce": 3,
      "data": "0x",
      "r": "0x70e693f6d3ce9796a241667c07c125105e01f406b1f814b595c2a5354855732e",
      "s": "0x37a248626148b4c3b96d683a02fdac2ed6da2062dc857462352d12aa5596ab5c",
      "v": 28,
      "creates": null,
      "raw": "0xf86d03850ba43b740082520894fbb1b73c4f0bda4f67dca266ce6ef42f520fbb9889055de2ec818ea86000801ca070e693f6d3ce9796a241667c07c125105e01f406b1f814b595c2a5354855732ea037a248626148b4c3b96d683a02fdac2ed6da2062dc857462352d12aa5596ab5c",
      "networkId": 0,
      "chainId": 0
    }
  ]
}