{
  "hash": "0x3ee4bb0356d882355c113c0aa33da8346998b2a568cdb3f53a8636d902cbfaf0",
  "parentHash": "0x6aa5af1d16a53c413065b13dd1431e60bd3feed8756d59b16919db175eeb773f",
  "number": 114512,
  "timestamp": 1440041666,
  "nonce": "0x9a4d7bce411efa41",
  "difficulty": 4505686766676,
  "gasLimit": {
    "_hex": "0x2fefd8"
  },
  "gasUsed": {
    "_hex": "0x520c"
  },
  "miner": "0xe6A7a1d47ff21B6321162AEA7C6CB457D5476Bca",
  "extraData": "0x476574682f76312e302e312d38326566323666362f6c696e75782f676f312e34",
  "transactions": [
    {
      "hash": "0x3879c0638a6b06153fac6ad7cb7f67888861944483017db25d75ab49de13f062",
      "blockHash": "0x3ee4bb0356d882355c113c0aa33da8346998b2a568cdb3f53a8636d902cbfaf0",
      "blockNumber": 114512,
      "transactionIndex": 0,
      "confirmations": null,
      "from": "0xfA86CA27bf2854d98870837Fb6F6Dfe4bF6453fc",
      "gasPrice": {
        "_hex": "0xd0afe8110"
      },
      "gasLimit": {
        "_hex": "0x7530"
      },
      "to": "0x70a8184C570BA3e6DCD397243dCe1173b464f3EE",
      "value": {
        "_hex": "0x28ee522f13e57a000"
      },
      "nonce": 2,
      "data": "0x00",
      "r": "0xb5b79e97c98622b167312472196ad9f7b9917cfc89b9dfe64f2bac81c1305b9f",
      "s": "0x3bebfdc868157b0ffa7170414ed62a7a84d82d13fc6a8a9b986863a897af0647",
      "v": 28,
      "creates": null,
      "raw": "0xf86d02850d0afe81108275309470a8184c570ba3e6dcd397243dce1173b464f3ee89028ee522f13e57a000001ca0b5b79e97c98622b167312472196ad9f7b9917cfc89b9dfe64f2bac81c1305b9fa03bebfdc868157b0ffa7170414ed62a7a84d82d13fc6a8a9b986863a897af0647",
      "networkId": 0,
      "chainId": 0
    }
  ]
}