{
  "hash": "0x17d603981b52303716530f725105e22a03bb07d3d27ee10751a9578dddfb4a86",
  "parentHash": "0x376daf5702a21840c7478b6e682332d3ced992358f2ea3fcf44d46cc44c604d9",
  "number": 77674,
  "timestamp": 1439440892,
  "nonce": "0xdce7171563a5c030",
  "difficulty": 2271132436126,
  "gasLimit": {
    "_hex": "0x2fefd8"
  },
  "gasUsed": {
    "_hex": "0x546c"
  },
  "miner": "0x02dE7d35a60bf6A216411476040ec648668769D7",
  "extraData": "0x476574682f76312e302e312f77696e646f77732f676f312e342e32",
  "transactions": [
    {
      "hash": "0x894fcc120fbb729e905ac58d8d0adfd6e1c1aa7df048715a9f14cb2f565caffe",
      "blockHash": "0x17d603981b52303716530f725105e22a03bb07d3d27ee10751a9578dddfb4a86",
      "blockNumber": 77674,
      "transactionIndex": 0,
      "confirmations": null,
      "from": "0x211B29cefC79aE976744FDEbcebd3cbB32c51303",
      "gasPrice": {
        "_hex": "0x110c8f7d8de"
      },
      "gasLimit": {
        "_hex": "0xc350"
      },
      "to": "0x2910543Af39abA0Cd09dBb2D50200b3E800A63D2",
      "value": {
        "_hex": "0x14542ba12a337c00000"
      },
      "nonce": 1,
      "data": "0x454e4e5a395a475052",
      "r": "0xfa30b83dff024ef2707e401be03a52884ba1208f0318d1c2af2851f66a09e10c",
      "s": "0xaf2f216f84d0fa5e43abdcf5f444de13585b04408c5a6f5f01c6c09e1736c1db",
      "v": 28,
      "creates": null,
      "raw": "0xf87801860110c8f7d8de82c350942910543af39aba0cd09dbb2d50200b3e800a63d28a014542ba12a337c0000089454e4e5a395a4750521ca0fa30b83dff024ef2707e401be03a52884ba1208f0318d1c2af2851f66a09e10ca0af2f216f84d0fa5e43abdcf5f444de13585b04408c5a6f5f01c6c09e1736c1db",
      "networkId": 0,
      "chainId": 0
    }
  ]
}