{
  "hash": "0xbbf6df805a2ce5ddd406aeb602f85fc3c490e5bbac6f3f6e48a96ce3bcdcf685",
  "parentHash": "0xc37ccee5498f2755b79f83962c32a29511ff29c67ed16ee8dab72a2cbbeb243a",
  "number": 86220,
  "timestamp": 1439575372,
  "nonce": "0xb395a689329853cf",
  "difficulty": 2818082550548,
  "gasLimit": {
    "_hex": "0x2fefd8"
  },
  "gasUsed": {
    "_hex": "0xa410"
  },
  "miner": "0x123843545FB525C8E134c9A5F15ADA6865cc3848",
  "extraData": "0x476574682f76312e302e312f77696e646f77732f676f312e342e32",
  "transactions": [
    {
      "hash": "0xb821a3b5b94b81e276ad747ac344f0e534f4a949ac49c7545cb65e130ae6d608",
      "blockHash": "0xbbf6df805a2ce5ddd406aeb602f85fc3c490e5bbac6f3f6e48a96ce3bcdcf685",
      "blockNumber": 86220,
      "transactionIndex": 0,
      "confirmations": null,
      "from": "0x8461Ecc4a6A45eb1a5b947FB86B88069b91fcD6F",
      "gasPrice": {
        "_hex": "0x10e43e3b6f8"
      },
      "gasLimit": {
        "_hex": "0x7530"
      },
      "to": "0x854e8cd9A003ADA8ddD686A542A4930101bBa0A2",
      "value": {
        "_hex": "0xde0b6b3a7640000"
      },
      "nonce": 3,
      "data": "0x",
      "r": "0xab9fc7698e91e7efd9cac75a7fe8f31a785f4c06382042ddcf1a0eeea7f50dab",
      "s": "0x2aeafb34bdd65c2355eaa2e07be749becd37293d2a2c8b93ec936e5e5614dbb1",
      "v": 28,
      "creates": null,
      "raw": "0xf86d0386010e43e3b6f882753094854e8cd9a003ada8ddd686a542a4930101bba0a2880de0b6b3a7640000801ca0ab9fc7698e91e7efd9cac75a7fe8f31a785f4c06382042ddcf1a0eeea7f50daba02aeafb34bdd65c2355eaa2e07be749becd37293d2a2c8b93ec936e5e5614dbb1",
      "networkId": 0,
      "chainId": 0
    },
    {
      "hash": "0xb5ea6184fdd6ca69a5b9f35baf63434131851602a641cc37aff90f9e4481c16b",
      "blockHash": "0xbbf6df805a2ce5ddd406aeb602f85fc3c490e5bbac6f3f6e48a96ce3bcdcf685",
      "blockNumber": 86220,
      "transactionIndex": 1,
      "confirmations": null,
      "from": "0x32Be343B94f860124dC4fEe278FDCBD38C102D88",
      "gasPrice": {
        "_hex": "0xd66b39389"
      },
      "gasLimit": {
        "_hex": "0x5208"
      },
      "to": "0xCD1e66ED539dd92Fc40bBAa1FA16de8c02C14D45",
      "value": {
        "_hex": "0xde0b6b3a7640000"
      },
      "nonce": 751,
      "data": "0x",
      "r": "0xdfe5b27f00fc69cbbb1ec52323a2acea236fd22badbe8d670b4819138c67f8db",
      "s": "0x2b5bf7910ffcac6f7e00a6e93d1cab47a5f36283c96e71b5c3b68ca30d706a09",
      "v": 28,
      "creates": null,
      "raw": "0xf86e8202ef850d66b3938982520894cd1e66ed539dd92fc40bbaa1fa16de8c02c14d45880de0b6b3a7640000801ca0dfe5b27f00fc69cbbb1ec52323a2acea236fd22badbe8d670b4819138c67f8dba02b5bf7910ffcac6f7e00a6e93d1cab47a5f36283c96e71b5c3b68ca30d706a09",
      "networkId": 0,
      "chainId": 0
    }
  ]
}