{
  "hash": "0xc977779e029402b0ef91578212d9463fef26d5bdae9202fa356859549efb9bb6",
  "parentHash": "0x301f528a11cdc75ac4e6d2ed3ff3f0d482461bc20d6d81ebda75743f1eeb490c",
  "number": 80099,
  "timestamp": 1439480234,
  "nonce": "0x207f963a10e044b1",
  "difficulty": 2341405092992,
  "gasLimit": {
    "_hex": "0x2fefd8"
  },
  "gasUsed": {
    "_hex": "0x5208"
  },
  "miner": "0xA21Ba94e45f0E168dA824fC67aC9cb5Cb577a8aF",
  "extraData": "0x",
  "transactions": [
    {
      "hash": "0x1e601cc898b3bed378fa582824bd67db9e12419721d9776c93380686a43a9275",
      "blockHash": "0xc977779e029402b0ef91578212d9463fef26d5bdae9202fa356859549efb9bb6",
      "blockNumber": 80099,
      "transactionIndex": 0,
      "confirmations": null,
      "from": "0x32Be343B94f860124dC4fEe278FDCBD38C102D88",
      "gasPrice": {
        "_hex": "0xd92a7c197"
      },
      "gasLimit": {
        "_hex": "0x5208"
      },
      "to": "0xD378eb142Ad654E0bd8296DafCc5c4874EC40445",
      "value": {
        "_hex": "0x15ad4006843cf9000"
      },
      "nonce": 510,
      "data": "0x",
      "r": "0x35fbdf90296544eea9735e69a8948ecacdec7e541976bbec7ab584254dccf25c",
      "s": "0x1137d99db70f09a1423e954774304a7931e8b43baf5dbaecc43b4978c8c12df7",
      "v": 28,
      "creates": null,
      "raw": "0xf86f8201fe850d92a7c19782520894d378eb142ad654e0bd8296dafcc5c4874ec4044589015ad4006843cf9000801ca035fbdf90296544eea9735e69a8948ecacdec7e541976bbec7ab584254dccf25ca01137d99db70f09a1423e954774304a7931e8b43baf5dbaecc43b4978c8c12df7",
      "networkId": 0,
      "chainId": 0
    }
  ]
}