{
  "hash": "0x98d44fd55f2201baa2b7615c4813747fabd909675ed295c2fecab6f098a839df",
  "parentHash": "0xb2456e8ed1a72a447250bddb6981cfd8c43d87f3f8a9115f246946e4eb200c1d",
  "number": 106384,
  "timestamp": 1439903260,
  "nonce": "0x9587ac122f14250b",
  "difficulty": 4479329276039,
  "gasLimit": {
    "_hex": "0x2fefd8"
  },
  "gasUsed": {
    "_hex": "0xaa37"
  },
  "miner": "0xf927a40C8B7F6E07c5af7FA2155B4864a4112B13",
  "extraData": "0x",
  "transactions": [
    {
      "hash": "0xf6cc56986eb346ef075568ee2fe3d5d2b949c0b62b7e6d8b08b56ddba0460157",
      "blockHash": "0x98d44fd55f2201baa2b7615c4813747fabd909675ed295c2fecab6f098a839df",
      "blockNumber": 106384,
      "transactionIndex": 0,
      "confirmations": null,
      "from": "0x87C5B5874A18B4306DF8a752a6C8cc3E82daFc19",
      "gasPrice": {
        "_hex": "0x1034f4fd321"
      },
      "gasLimit": {
        "_hex": "0x493e0"
      },
      "to": "0xD79B4C6791784184e2755B2fC1659eaaB0f80456",
      "value": {
        "_hex": "0x0"
      },
      "nonce": 342,
      "data": "0x03750d9400000000000000000000000087c5b5874a18b4306df8a752a6c8cc3e82dafc196b6b6b0000000000000000000000000000000000000000000000000000000000",
      "r": "0xc1ef9849a1f41f4b0471df74415c54b4b6ccb4181a68301b4431ea40ebdaaec0",
      "s": "0x4854c4e194d0995326585357c4287426cc1840ed2d76bf164bef0fd360865fab",
      "v": 27,
      "creates": null,
      "raw": "0xf8ad8201568601034f4fd321830493e094d79b4c6791784184e2755b2fc1659eaab0f8045680b84403750d9400000000000000000000000087c5b5874a18b4306df8a752a6c8cc3e82dafc196b6b6b00000000000000000000000000000000000000000000000000000000001ba0c1ef9849a1f41f4b0471df74415c54b4b6ccb4181a68301b4431ea40ebdaaec0a04854c4e194d0995326585357c4287426cc1840ed2d76bf164bef0fd360865fab",
      "networkId": 0,
      "chainId": 0
    }
  ]
}