{
  "hash": "0xb1acc75955adb29923cd9e1d5d9158fff577e751ff9f7ba734f0f1a2bcf8c402",
  "parentHash": "0xeaaa49e7c375ab37892ece62b975586a041e5c0072312288795be7b145001bef",
  "number": 66883,
  "timestamp": 1439261953,
  "nonce": "0x1d94f0c7628c7c0b",
  "difficulty": 1953669666859,
  "gasLimit": {
    "_hex": "0x2fefd8"
  },
  "gasUsed": {
    "_hex": "0xa410"
  },
  "miner": "0xbb7B8287f3F0a933474a79eAe42CBCa977791171",
  "extraData": "0x476574682f4c5649562f76312e302e312f6c696e75782f676f312e342e32",
  "transactions": [
    {
      "hash": "0x773669dbbf2f0d62b457286a0a680fc97bd71943f1527de42b1aa0acb9084615",
      "blockHash": "0xb1acc75955adb29923cd9e1d5d9158fff577e751ff9f7ba734f0f1a2bcf8c402",
      "blockNumber": 66883,
      "transactionIndex": 0,
      "confirmations": null,
      "from": "0xE0336f8aCEa5Cf5d01f2aC2f6704Bf53A853908a",
      "gasPrice": {
        "_hex": "0xdb2816147"
      },
      "gasLimit": {
        "_hex": "0x15f90"
      },
      "to": "0x84542513E426C184fAD116922bb5695D25EEfC7b",
      "value": {
        "_hex": "0x3"
      },
      "nonce": 1,
      "data": "0x",
      "r": "0xbb03e6f0bf9c707578c9d09606996c8ce0afe0d78fe93a2bf83259abc73d9326",
      "s": "0x0f247155bc4d637fb70aeb61602aa56ba75dac72469942374dc6e154e7df881c",
      "v": 28,
      "creates": null,
      "raw": "0xf86501850db281614783015f909484542513e426c184fad116922bb5695d25eefc7b03801ca0bb03e6f0bf9c707578c9d09606996c8ce0afe0d78fe93a2bf83259abc73d9326a00f247155bc4d637fb70aeb61602aa56ba75dac72469942374dc6e154e7df881c",
      "networkId": 0,
      "chainId": 0
    },
    {
      "hash": "0xf9913b902fa6b52ea29293a98e6374a30f1afb12b1098de1e41af612e6dfc4bc",
      "blockHash": "0xb1acc75955adb29923cd9e1d5d9158fff577e751ff9f7ba734f0f1a2bcf8c402",
      "blockNumber": 66883,
      "transactionIndex": 1,
      "confirmations": null,
      "from": "0x54bCb8e7F73cDA3d73f4D38b2d0847e600BA0df8",
      "gasPrice": {
        "_hex": "0xcdd77033a"
      },
      "gasLimit": {
        "_hex": "0x15f90"
      },
      "to": "0x42979fca296FEA2C163EA66E1900acDe7886F86F",
      "value": {
        "_hex": "0xaa87bee538000"
      },
      "nonce": 1,
      "data": "0x",
      "r": "0x69dab1791107acfe035954622a61f66ef1785e9ada4ff77f45548cb75f149e83",
      "s": "0x73f2b1f3b1fee5e145652cc855a82c11de23df1c7c64e23007295374553cff11",
      "v": 27,
      "creates": null,
      "raw": "0xf86c01850cdd77033a83015f909442979fca296fea2c163ea66e1900acde7886f86f870aa87bee538000801ba069dab1791107acfe035954622a61f66ef1785e9ada4ff77f45548cb75f149e83a073f2b1f3b1fee5e145652cc855a82c11de23df1c7c64e23007295374553cff11",
      "networkId": 0,
      "chainId": 0
    }
  ]
}