{
  "hash": "0xa93322cb49a7fba66b7b810dcbc3afa8b412d1820efdf3d7c82f4ffdd1ba82fc",
  "parentHash": "0x046b2f246f734a8d82bf6b37f3ba92993c7e18dae5ba30ce9b428aa9b0c6fc2b",
  "number": 95701,
  "timestamp": 1439728298,
  "nonce": "0x4a07c389cc57d09a",
  "difficulty": 3619700716088,
  "gasLimit": {
    "_hex": "0x2fefd8"
  },
  "gasUsed": {
    "_hex": "0x5208"
  },
  "miner": "0xe6A7a1d47ff21B6321162AEA7C6CB457D5476Bca",
  "extraData": "0x476574682f76312e302e312d38326566323666362f6c696e75782f676f312e34",
  "transactions": [
    {
      "hash": "0x53e292e1242d9e0f1021f95f7cc4b1deb34a4fa9024a6861a377cc9cb8762933",
      "blockHash": "0xa93322cb49a7fba66b7b810dcbc3afa8b412d1820efdf3d7c82f4ffdd1ba82fc",
      "blockNumber": 95701,
      "transactionIndex": 0,
      "confirmations": null,
      "from": "0xd70c667add50d3d9989Ef58A81a698c09f415Bff",
      "gasPrice": {
        "_hex": "0xd96db091b"
      },
      "gasLimit": {
        "_hex": "0x15f90"
      },
      "to": "0x86d3856ad0105B9d4199936c1fd203664BA325dC",
      "value": {
        "_hex": "0x117c6b5300fe0000"
      },
      "nonce": 5,
      "data": "0x",
      "r": "0x0d08f7c73cada188f405b885ddc8151cfb447fed635854e9dda1883aa8734ba1",
      "s": "0x2d7e0696315ecb6a706e6b16448b51d19f147e8f994521bee87895707802f9cb",
      "v": 27,
      "creates": null,
      "raw": "0xf86d05850d96db091b83015f909486d3856ad0105b9d4199936c1fd203664ba325dc88117c6b5300fe0000801ba00d08f7c73cada188f405b885ddc8151cfb447fed635854e9dda1883aa8734ba1a02d7e0696315ecb6a706e6b16448b51d19f147e8f994521bee87895707802f9cb",
      "networkId": 0,
      "chainId": 0
    }
  ]
}