{
  "hash": "0x1c28870176e4bbb1623eec4129bffa2b2ba4f9464590ae4af9fa5f0753c1a549",
  "parentHash": "0x576ce38a20b2d067db71454f58131c27f76a57fb350d7f06e1517578f53b152e",
  "number": 79902,
  "timestamp": 1439477034,
  "nonce": "0x28c78d54e07707aa",
  "difficulty": 2349476810418,
  "gasLimit": {
    "_hex": "0x2fefd8"
  },
  "gasUsed": {
    "_hex": "0xa410"
  },
  "miner": "0xe6A7a1d47ff21B6321162AEA7C6CB457D5476Bca",
  "extraData": "0x476574682f76312e302e312d38326566323666362f6c696e75782f676f312e34",
  "transactions": [
    {
      "hash": "0x064f7f42150a4ca89d8e64a394f17c78ceb2b7ff3bbd1820ab9e1be8711f7ff0",
      "blockHash": "0x1c28870176e4bbb1623eec4129bffa2b2ba4f9464590ae4af9fa5f0753c1a549",
      "blockNumber": 79902,
      "transactionIndex": 0,
      "confirmations": null,
      "from": "0x32Be343B94f860124dC4fEe278FDCBD38C102D88",
      "gasPrice": {
        "_hex": "0xd40b6e03d"
      },
      "gasLimit": {
        "_hex": "0x5208"
      },
      "to": "0x46b34D03448b2Fb4af3f37441230EB080D852637",
      "value": {
        "_hex": "0x9935f581f050000"
      },
      "nonce": 466,
      "data": "0x",
      "r": "0x8c5b45f4fa38c8024a3730d170118a7452f524ee0c9a81c3bf85c3b20ae7fe1a",
      "s": "0x56cab7e5bfb5a565cdef2d0da183af03a8ad7ee97216da413a0b05ccb732410f",
      "v": 28,
      "creates": null,
      "raw": "0xf86e8201d2850d40b6e03d8252089446b34d03448b2fb4af3f37441230eb080d8526378809935f581f050000801ca08c5b45f4fa38c8024a3730d170118a7452f524ee0c9a81c3bf85c3b20ae7fe1aa056cab7e5bfb5a565cdef2d0da183af03a8ad7ee97216da413a0b05ccb732410f",
      "networkId": 0,
      "chainId": 0
    },
    {
      "hash": "0xe181559c4c78f6576c75177eb4218fc7456a971bd8e24a7db0238bcab89bd56d",
      "blockHash": "0x1c28870176e4bbb1623eec4129bffa2b2ba4f9464590ae4af9fa5f0753c1a549",
      "blockNumber": 79902,
      "transactionIndex": 1,
      "confirmations": null,
      "from": "0x32Be343B94f860124dC4fEe278FDCBD38C102D88",
      "gasPrice": {
        "_hex": "0xd40b6e03d"
      },
      "gasLimit": {
        "_hex": "0x5208"
      },
      "to": "0x72bb27Cb99f3E2C2CF90A98F707d30E4A201A071",
      "value": {
        "_hex": "0xb99b5333b7dd70000"
      },
      "nonce": 467,
      "data": "0x",
      "r": "0xb614233d966c39c323e20196e2e7d7f75ea8c564aa372c1359cd906f2eed66ba",
      "s": "0x77d6274d209fb0453e02554dafef6239839526f008e0a9ecab692f80d2d23f04",
      "v": 28,
      "creates": null,
      "raw": "0xf86f8201d3850d40b6e03d8252089472bb27cb99f3e2c2cf90a98f707d30e4a201a071890b99b5333b7dd70000801ca0b614233d966c39c323e20196e2e7d7f75ea8c564aa372c1359cd906f2eed66baa077d6274d209fb0453e02554dafef6239839526f008e0a9ecab692f80d2d23f04",
      "networkId": 0,
      "chainId": 0
    }
  ]
}