{
  "hash": "0x7880af699aa77968b9f8167b8d49a1aab522e1bc0e4e0f004a4ac001e9d54ddc",
  "parentHash": "0x121af501280504c617a7054da5cf6920c52d7d3d1d1f454400b39367b9b9b916",
  "number": 112709,
  "timestamp": 1440011851,
  "nonce": "0x108d852c16ca724d",
  "difficulty": 4425967291696,
  "gasLimit": {
    "_hex": "0x2fefd8"
  },
  "gasUsed": {
    "_hex": "0x5208"
  },
  "miner": "0x458F183347F45a4001807728A89F31E9Da9D4A58",
  "extraData": "0x476574682f76312e302e312d38326566323666362f6c696e75782f676f312e34",
  "transactions": [
    {
      "hash": "0x701ea45216e502290cdc3111bcd7e5c7abb3d16190a8cbb11298d2a0f2310916",
      "blockHash": "0x7880af699aa77968b9f8167b8d49a1aab522e1bc0e4e0f004a4ac001e9d54ddc",
      "blockNumber": 112709,
      "transactionIndex": 0,
      "confirmations": null,
      "from": "0xdCB14605B0EE4F372D223e5DF87aa9e760886D01",
      "gasPrice": {
        "_hex": "0xdaa47bfac"
      },
      "gasLimit": {
        "_hex": "0x5208"
      },
      "to": "0x32Be343B94f860124dC4fEe278FDCBD38C102D88",
      "value": {
        "_hex": "0x19781135bb3182000"
      },
      "nonce": 10,
      "data": "0x",
      "r": "0x87d69a7636d4d93fc247223fdf351667c98b0d241ee0f9e600320d93879cb063",
      "s": "0x571475a4a9aa1ac909c6634c8e8b8c7cf90ab4ceaed3ba25690d74bb0f2de648",
      "v": 27,
      "creates": null,
      "raw": "0xf86d0a850daa47bfac8252089432be343b94f860124dc4fee278fdcbd38c102d8889019781135bb3182000801ba087d69a7636d4d93fc247223fdf351667c98b0d241ee0f9e600320d93879cb063a0571475a4a9aa1ac909c6634c8e8b8c7cf90ab4ceaed3ba25690d74bb0f2de648",
      "networkId": 0,
      "chainId": 0
    }
  ]
}