{
  "hash": "0x769866870367b775d7480d7ebc3c17c888617e75fa56321ef697b464cb3f58e3",
  "parentHash": "0x056913fb4c3ebe19e571975dd2ded78bbbf64733081f782540f4c3b1424502ea",
  "number": 74471,
  "timestamp": 1439386490,
  "nonce": "0xcd36e14c5040e3d6",
  "difficulty": 2218285548142,
  "gasLimit": {
    "_hex": "0x2fefd8"
  },
  "gasUsed": {
    "_hex": "0xf87c"
  },
  "miner": "0x9D49F602b0fdb924Bd63DDE2Bd0907E4A07c63a7",
  "extraData": "0x476574682f76312e302e312f6c696e75782f676f312e342e32",
  "transactions": [
    {
      "hash": "0x0add94bf67c7a0060736923625c96ad04cbdc2d77cbb73100657f53efd79e367",
      "blockHash": "0x769866870367b775d7480d7ebc3c17c888617e75fa56321ef697b464cb3f58e3",
      "blockNumber": 74471,
      "transactionIndex": 0,
      "confirmations": null,
      "from": "0x8461Ecc4a6A45eb1a5b947FB86B88069b91fcD6F",
      "gasPrice": {
        "_hex": "0xfefd30d038"
      },
      "gasLimit": {
        "_hex": "0x7530"
      },
      "to": "0xB0adb3A9A5D88F64452acFdc1D83CCF5600d5A02",
      "value": {
        "_hex": "0xde0b6b3a7640000"
      },
      "nonce": 0,
      "data": "0x",
      "r": "0x5cd2c6dd02cf61db063f0e92b88cbd69795c46ee9cebb93e54e316137254b6ef",
      "s": "0x4d4de26e367776d036a6023ee64697116fb3747d4ba7580129a72f2fe28a0b84",
      "v": 27,
      "creates": null,
      "raw": "0xf86c8085fefd30d03882753094b0adb3a9a5d88f64452acfdc1d83ccf5600d5a02880de0b6b3a7640000801ba05cd2c6dd02cf61db063f0e92b88cbd69795c46ee9cebb93e54e316137254b6efa04d4de26e367776d036a6023ee64697116fb3747d4ba7580129a72f2fe28a0b84",
      "networkId": 0,
      "chainId": 0
    },
    {
      "hash": "0x3383d43d2ac1d94696d7d6bed2cb5fb57343486cd426192051b484c504b8f055",
      "blockHash": "0x769866870367b775d7480d7ebc3c17c888617e75fa56321ef697b464cb3f58e3",
      "blockNumber": 74471,
      "transactionIndex": 1,
      "confirmations": null,
      "from": "0xC13Dad778D7BcE116BD97f744625D57f7124c38A",
      "gasPrice": {
        "_hex": "0xd9ed185c6"
      },
      "gasLimit": {
        "_hex": "0x15f90"
      },
      "to": "0x2910543Af39abA0Cd09dBb2D50200b3E800A63D2",
      "value": {
        "_hex": "0x8ac7230489e80000"
      },
      "nonce": 3,
      "data": "0x454e47464542323730",
      "r": "0xd7d9934b7ae149a16a416aefd5ef380f7b2d80293724e39a7d0bcb9354a2c45f",
      "s": "0x3b18dc0077ba14fd1cf4b95db4c335e7ee91dc22e20992a32d329efe0833dcb2",
      "v": 28,
      "creates": null,
      "raw": "0xf87603850d9ed185c683015f90942910543af39aba0cd09dbb2d50200b3e800a63d2888ac7230489e8000089454e474645423237301ca0d7d9934b7ae149a16a416aefd5ef380f7b2d80293724e39a7d0bcb9354a2c45fa03b18dc0077ba14fd1cf4b95db4c335e7ee91dc22e20992a32d329efe0833dcb2",
      "networkId": 0,
      "chainId": 0
    },
    {
      "hash": "0x0f1817967fe26471ace42dbc6ac47fd75b9f052761b03f2c660fe9f41af4acd1",
      "blockHash": "0x769866870367b775d7480d7ebc3c17c888617e75fa56321ef697b464cb3f58e3",
      "blockNumber": 74471,
      "transactionIndex": 2,
      "confirmations": null,
      "from": "0x0037ce3d4B7f8729C8607D8D0248252Be68202c0",
      "gasPrice": {
        "_hex": "0xd18c43942"
      },
      "gasLimit": {
        "_hex": "0x15f90"
      },
      "to": "0xDC6A542F97876923583019b526335fD1fB0DfC6A",
      "value": {
        "_hex": "0x1950ed49ba5b6c0000"
      },
      "nonce": 8,
      "data": "0x",
      "r": "0xc7788bf5cccb599b4b82244e25f5c3242dbaefaa4072764d0a1b5d139c71da4a",
      "s": "0x64ec671ef00b3e673e25485ab509aa605f91bbbe816efa3be4eca1b67f46bba0",
      "v": 28,
      "creates": null,
      "raw": "0xf86e08850d18c4394283015f9094dc6a542f97876923583019b526335fd1fb0dfc6a891950ed49ba5b6c0000801ca0c7788bf5cccb599b4b82244e25f5c3242dbaefaa4072764d0a1b5d139c71da4aa064ec671ef00b3e673e25485ab509aa605f91bbbe816efa3be4eca1b67f46bba0",
      "networkId": 0,
      "chainId": 0
    }
  ]
}