{
  "hash": "0x51e0231a5925980fd3ad7635d22824698080c5e3904af041ccd3bbdae0f1ca46",
  "parentHash": "0x5353240149a9d528163198a9991d5e814edb5f805b83793db4586d826b14c620",
  "number": 121663,
  "timestamp": 1440180554,
  "nonce": "0xd3e56015e1c93566",
  "difficulty": 4482107354893,
  "gasLimit": {
    "_hex": "0x2fefd8"
  },
  "gasUsed": {
    "_hex": "0x5208"
  },
  "miner": "0x790b8a3cE86E707ED0eD32bF89B3269692a23CC1",
  "extraData": "0xd783010002844765746887676f312e342e32856c696e7578",
  "transactions": [
    {
      "hash": "0xb227b449d51501b0680ac0fb3e9d2bf774ebda64c3a5032ffa44de0fd96b0be6",
      "blockHash": "0x51e0231a5925980fd3ad7635d22824698080c5e3904af041ccd3bbdae0f1ca46",
      "blockNumber": 121663,
      "transactionIndex": 0,
      "confirmations": null,
      "from": "0x007f7f58D3eb5b7510A301eCC749FC1fCDDBE14D",
      "gasPrice": {
        "_hex": "0xba43b7400"
      },
      "gasLimit": {
        "_hex": "0x15f90"
      },
      "to": "0xb1abce2918E21ddb93AA452731a12672A3d9F75a",
      "value": {
        "_hex": "0x4563918244f40000"
      },
      "nonce": 377,
      "data": "0x",
      "r": "0x734bfb678fd1106dfc9f112841b033ddc4883c821132b43d349e7d3586d9d3b7",
      "s": "0x0852a6a0b536e14b9a2b8e85e06ac8b9d64166855aa774e27bf5dc84738a5e67",
      "v": 27,
      "creates": null,
      "raw": "0xf86f820179850ba43b740083015f9094b1abce2918e21ddb93aa452731a12672a3d9f75a884563918244f40000801ba0734bfb678fd1106dfc9f112841b033ddc4883c821132b43d349e7d3586d9d3b7a00852a6a0b536e14b9a2b8e85e06ac8b9d64166855aa774e27bf5dc84738a5e67",
      "networkId": 0,
      "chainId": 0
    }
  ]
}