{
  "hash": "0xb3301653b920aeeeb2edba50d98c271189543cea4a92a7038ad178920ba53974",
  "parentHash": "0x58bbc3f566900072865eb5e5278d2e0b594bba8bd5db760b16c8278f63f05d81",
  "number": 78532,
  "timestamp": 1439455179,
  "nonce": "0x0d476ada455e8253",
  "difficulty": 2295426085393,
  "gasLimit": {
    "_hex": "0x2fefd8"
  },
  "gasUsed": {
    "_hex": "0x5208"
  },
  "miner": "0x9746c7e1ef2bd21FF3997fa467593a89cb852BD0",
  "extraData": "0x476574682f76312e302e312f77696e646f77732f676f312e342e32",
  "transactions": [
    {
      "hash": "0xd1215c20acabe934f92b011550fa77e8ed1ac023de453a249894850b4450e7b9",
      "blockHash": "0xb3301653b920aeeeb2edba50d98c271189543cea4a92a7038ad178920ba53974",
      "blockNumber": 78532,
      "transactionIndex": 0,
      "confirmations": null,
      "from": "0xeB1325C8D9d3ea8D74aC11F4B00F1B2367686319",
      "gasPrice": {
        "_hex": "0xd811f1156"
      },
      "gasLimit": {
        "_hex": "0x15f90"
      },
      "to": "0x3010cacF5965f60685011055570972e92B4479aB",
      "value": {
        "_hex": "0x56bc75e2d63100000"
      },
      "nonce": 2,
      "data": "0x",
      "r": "0xacf6ed4278eb45ac58a72edc832716513a03760f8322f10a1a4c632214ecd24d",
      "s": "0x28929f11a175b4ab7d17df5af2d420f48582e31d04a2fa81abd3b31c9f4b8e47",
      "v": 27,
      "creates": null,
      "raw": "0xf86e02850d811f115683015f90943010cacf5965f60685011055570972e92b4479ab89056bc75e2d63100000801ba0acf6ed4278eb45ac58a72edc832716513a03760f8322f10a1a4c632214ecd24da028929f11a175b4ab7d17df5af2d420f48582e31d04a2fa81abd3b31c9f4b8e47",
      "networkId": 0,
      "chainId": 0
    }
  ]
}