{
  "hash": "0xc30b06bd5313e55a72eb9f7c4d02a408766cb9f0ca1cb1f8e9dd969547393e4d",
  "parentHash": "0x57f925c95c938c163798878f7060d8e70447546b557da800c6a49af7eddd437e",
  "number": 118091,
  "timestamp": 1440120408,
  "nonce": "0xdd0176437d646107",
  "difficulty": 4324888362066,
  "gasLimit": {
    "_hex": "0x2fefd8"
  },
  "gasUsed": {
    "_hex": "0x5208"
  },
  "miner": "0xbb7B8287f3F0a933474a79eAe42CBCa977791171",
  "extraData": "0xd783010003844765746887676f312e342e32856c696e7578",
  "transactions": [
    {
      "hash": "0x150c855610a9994dd9d2f83ed7000c6d0668cac299aba04faf07af942228e971",
      "blockHash": "0xc30b06bd5313e55a72eb9f7c4d02a408766cb9f0ca1cb1f8e9dd969547393e4d",
      "blockNumber": 118091,
      "transactionIndex": 0,
      "confirmations": null,
      "from": "0x2910543Af39abA0Cd09dBb2D50200b3E800A63D2",
      "gasPrice": {
        "_hex": "0xd468c1330"
      },
      "gasLimit": {
        "_hex": "0x5208"
      },
      "to": "0x162Ba503276214b509F97586BD842110D103D517",
      "value": {
        "_hex": "0x1c7d1ab461c43be000"
      },
      "nonce": 1149,
      "data": "0x",
      "r": "0x87aaacd96951a1f84b72b720fa3ed524109a1b5f4af96df5e69b3902bf9bfb5a",
      "s": "0x365b3c73fd629ad03a6fbdd6b2bb3fe24f6c69c5bbd7830156f017260029e198",
      "v": 28,
      "creates": null,
      "raw": "0xf86f82047d850d468c133082520894162ba503276214b509f97586bd842110d103d517891c7d1ab461c43be000801ca087aaacd96951a1f84b72b720fa3ed524109a1b5f4af96df5e69b3902bf9bfb5aa0365b3c73fd629ad03a6fbdd6b2bb3fe24f6c69c5bbd7830156f017260029e198",
      "networkId": 0,
      "chainId": 0
    }
  ]
}