{
  "hash": "0x67a9779feb3fdf29670e12cfb642056f0bf520e7af44ac6295c31a25d51b9b41",
  "parentHash": "0x9785781858016340e49fa80f7c44731d55a655edf8380062d1cbadd01545f07f",
  "number": 60442,
  "timestamp": 1439155816,
  "nonce": "0xf2a0a0f570f1defa",
  "difficulty": 1733030886871,
  "gasLimit": {
    "_hex": "0x2fefd8"
  },
  "gasUsed": {
    "_hex": "0x18471"
  },
  "miner": "0xf8E0CA3Ed80bd541b94BEdCf259e8CF2141A9523",
  "extraData": "0x476574682f76312e302e312f77696e646f77732f676f312e342e32",
  "transactions": [
    {
      "hash": "0x9c5c323d430590b1e54113c774f393bf0b664e5087d928d8615097d9b9e7572e",
      "blockHash": "0x67a9779feb3fdf29670e12cfb642056f0bf520e7af44ac6295c31a25d51b9b41",
      "blockNumber": 60442,
      "transactionIndex": 0,
      "confirmations": null,
      "from": "0xe6282e5294D064DD01851808dE43b9be32066E72",
      "gasPrice": {
        "_hex": "0x118bf09f8a7"
      },
      "gasLimit": {
        "_hex": "0x15f90"
      },
      "to": "0x2910543Af39abA0Cd09dBb2D50200b3E800A63D2",
      "value": {
        "_hex": "0xde0b6b3a7640000"
      },
      "nonce": 7,
      "data": "0x454e39595456545230",
      "r": "0x3ba381730df624382021ccc8d4219ddb5c0115f3f1b5b55ed1797171e58d8176",
      "s": "0x06fb6213f7da7544777d5f116866191f0b2bf575a06c336f197a8f63788ce0e8",
      "v": 27,
      "creates": null,
      "raw": "0xf87707860118bf09f8a783015f90942910543af39aba0cd09dbb2d50200b3e800a63d2880de0b6b3a764000089454e395954565452301ba03ba381730df624382021ccc8d4219ddb5c0115f3f1b5b55ed1797171e58d8176a006fb6213f7da7544777d5f116866191f0b2bf575a06c336f197a8f63788ce0e8",
      "networkId": 0,
      "chainId": 0
    },
    {
      "hash": "0x310a9e3774665c66aec2977c9b69d949c21dd19dafbaec9526e98050e95147c1",
      "blockHash": "0x67a9779feb3fdf29670e12cfb642056f0bf520e7af44ac6295c31a25d51b9b41",
      "blockNumber": 60442,
      "transactionIndex": 1,
      "confirmations": null,
      "from": "0x249502491a53b217181420Cc4A6dE23a720636CA",
      "gasPrice": {
        "_hex": "0xdca166fe1"
      },
      "gasLimit": {
        "_hex": "0x5208"
      },
      "to": "0x32Be343B94f860124dC4fEe278FDCBD38C102D88",
      "value": {
        "_hex": "0x6c6b8efab891380000"
      },
      "nonce": 2,
      "data": "0x",
      "r": "0xbd83e5cbc0dcae26fc27c00734ce44fca37e753a843d63e496086ae6d8317ef3",
      "s": "0x692c30b0531278f5a6047636028560cd2f0fae1b393d194b9fc30aa69912e08f",
      "v": 27,
      "creates": null,
      "raw": "0xf86d02850dca166fe18252089432be343b94f860124dc4fee278fdcbd38c102d88896c6b8efab891380000801ba0bd83e5cbc0dcae26fc27c00734ce44fca37e753a843d63e496086ae6d8317ef3a0692c30b0531278f5a6047636028560cd2f0fae1b393d194b9fc30aa69912e08f",
      "networkId": 0,
      "chainId": 0
    },
    {
      "hash": "0x85078e64edda019ae77fafdb91bf6aa64f9eab22172a24703ef0596058b6a67c",
      "blockHash": "0x67a9779feb3fdf29670e12cfb642056f0bf520e7af44ac6295c31a25d51b9b41",
      "blockNumber": 60442,
      "transactionIndex": 2,
      "confirmations": null,
      "from": "0x4705E331214F54eE19677a920BeB64e5206Fd610",
      "gasPrice": {
        "_hex": "0xd61a6c43c"
      },
      "gasLimit": {
        "_hex": "0x61a80"
      },
      "to": "0x020522bF9B8eD6FF41E2fa6765a17E20E2767D64",
      "value": {
        "_hex": "0x56bc75e2d63100000"
      },
      "nonce": 0,
      "data": "0x",
      "r": "0xc8ef973f3760b3b480b436629cf62158e3118e3d96795aaccd981a06a2e2a290",
      "s": "0x07417a695406cc4f892a00b9aa59217969a9b65f07fb72991c8b68a421e41d1c",
      "v": 28,
      "creates": null,
      "raw": "0xf86e80850d61a6c43c83061a8094020522bf9b8ed6ff41e2fa6765a17e20e2767d6489056bc75e2d63100000801ca0c8ef973f3760b3b480b436629cf62158e3118e3d96795aaccd981a06a2e2a290a007417a695406cc4f892a00b9aa59217969a9b65f07fb72991c8b68a421e41d1c",
      "networkId": 0,
      "chainId": 0
    }
  ]
}