{
  "hash": "0x91e81d4bee55193dfe09f44b3fcb5950696270f4a2573742afc6dc230d623522",
  "parentHash": "0xf523e4307fe4b9e6d1f4e8850271227e460fdee92f9e168f094270f91bb07ce8",
  "number": 115864,
  "timestamp": 1440064670,
  "nonce": "0xa66dda865c6ef499",
  "difficulty": 4549169913232,
  "gasLimit": {
    "_hex": "0x2fefd8"
  },
  "gasUsed": {
    "_hex": "0xa9308"
  },
  "miner": "0xe6A7a1d47ff21B6321162AEA7C6CB457D5476Bca",
  "extraData": "0x476574682f76312e302e312d38326566323666362f6c696e75782f676f312e34",
  "transactions": [
    {
      "hash": "0x26c8d6c86587c9679c0ab65d092c857d23ebb04dc9f10f31125d59b599fab609",
      "blockHash": "0x91e81d4bee55193dfe09f44b3fcb5950696270f4a2573742afc6dc230d623522",
      "blockNumber": 115864,
      "transactionIndex": 0,
      "confirmations": null,
      "from": "0x9D551f41feD6FC27B719777c224DfeCcE170004d",
      "gasPrice": {
        "_hex": "0xd776ac5c6"
      },
      "gasLimit": {
        "_hex": "0x15f90"
      },
      "to": "0x27B5b2873c459B6ed3802C07a67449D4c584d29B",
      "value": {
        "_hex": "0x29a1d95552430a36"
      },
      "nonce": 23,
      "data": "0x",
      "r": "0x8fb821d47fcc36106e7d9b36a7d6c1fd071cd8df248ae9e9e3261d1a24538842",
      "s": "0x78dc47e8e04c1af97e75926218c9a0e3870895f076b20153fc52fbbd4bd8cb18",
      "v": 27,
      "creates": null,
      "raw": "0xf86d17850d776ac5c683015f909427b5b2873c459b6ed3802c07a67449d4c584d29b8829a1d95552430a36801ba08fb821d47fcc36106e7d9b36a7d6c1fd071cd8df248ae9e9e3261d1a24538842a078dc47e8e04c1af97e75926218c9a0e3870895f076b20153fc52fbbd4bd8cb18",
      "networkId": 0,
      "chainId": 0
    },
    {
      "hash": "0xa5faca5b26e22ae124a72aad9cc705dd61597418ffa8cb7f9c3e5481e2d99806",
      "blockHash": "0x91e81d4bee55193dfe09f44b3fcb5950696270f4a2573742afc6dc230d623522",
      "blockNumber": 115864,
      "transactionIndex": 1,
      "confirmations": null,
      "from": "0x9D551f41feD6FC27B719777c224DfeCcE170004d",
      "gasPrice": {
        "_hex": "0xd776ac5c6"
      },
      "gasLimit": {
        "_hex": "0x15f90"
      },
      "to": "0xc1F479503E1c1Faa9ca5736CE190804960580F38",
      "value": {
        "_hex": "0x1a3658358a3bfbb8"
      },
      "nonce": 24,
      "data": "0x",
      "r": "0xebed8c60b66b7b9ef3abfb1b685568f924dd7e118b6b0ff6637686386ae3c702",
      "s": "0x277e15996fe17ae1c8ec598a57385c5985ebad674732f924a8529a145138f7f4",
      "v": 27,
      "creates": null,
      "raw": "0xf86d18850d776ac5c683015f9094c1f479503e1c1faa9ca5736ce190804960580f38881a3658358a3bfbb8801ba0ebed8c60b66b7b9ef3abfb1b685568f924dd7e118b6b0ff6637686386ae3c702a0277e15996fe17ae1c8ec598a57385c5985ebad674732f924a8529a145138f7f4",
      "networkId": 0,
      "chainId": 0
    },
    {
      "hash": "0x1350d2f11cb38b88fbc31191d705d69140560aee7a071be2d9058ac0447e941e",
      "blockHash": "0x91e81d4bee55193dfe09f44b3fcb5950696270f4a2573742afc6dc230d623522",
      "blockNumber": 115864,
      "transactionIndex": 2,
      "confirmations": null,
      "from": "0x9D551f41feD6FC27B719777c224DfeCcE170004d",
      "gasPrice": {
        "_hex": "0xd776ac5c6"
      },
      "gasLimit": {
        "_hex": "0x15f90"
      },
      "to": "0x5F8beD872590656DbaD937e60468CF7b0ECf12BF",
      "value": {
        "_hex": "0x5d04775fe5c3c648"
      },
      "nonce": 25,
      "data": "0x",
      "r": "0x7a1d74782b6abed5e7ba5548511678142d28d4552a2878c06249d7ece53b39d0",
      "s": "0x1460148acd63a57b873dc103d3b51b83bbde759259d0a11e927d852b86512fdf",
      "v": 28,
      "creates": null,
      "raw": "0xf86d19850d776ac5c683015f90945f8bed872590656dbad937e60468cf7b0ecf12bf885d04775fe5c3c648801ca07a1d74782b6abed5e7ba5548511678142d28d4552a2878c06249d7ece53b39d0a01460148acd63a57b873dc103d3b51b83bbde759259d0a11e927d852b86512fdf",
      "networkId": 0,
      "chainId": 0
    },
    {
      "hash": "0xa112da025e8e1bc39a6453f798f1cd87b6aedfd40db5956b2b9298dee34fd711",
      "blockHash": "0x91e81d4bee55193dfe09f44b3fcb5950696270f4a2573742afc6dc230d623522",
      "blockNumber": 115864,
      "transactionIndex": 3,
      "confirmations": null,
      "from": "0x9D551f41feD6FC27B719777c224DfeCcE170004d",
      "gasPrice": {
        "_hex": "0xd776ac5c6"
      },
      "gasLimit": {
        "_hex": "0x15f90"
      },
      "to": "0x7C8DB6DAEA570E518f36c83653E7cc0fcF87C232",
      "value": {
        "_hex": "0x661eb0b254eb75db"
      },
      "nonce": 26,
      "data": "0x",
      "r": "0x30b649aedab8fedadf9ca62514eb4d898653edc7d37cc288798dd432e96a4668",
      "s": "0x4d4d36dc66be32bfc1768ea592258ebb29678e72f557ad2ada1f3203ca981072",
      "v": 28,
      "creates": null,
      "raw": "0xf86d1a850d776ac5c683015f90947c8db6daea570e518f36c83653e7cc0fcf87c23288661eb0b254eb75db801ca030b649aedab8fedadf9ca62514eb4d898653edc7d37cc288798dd432e96a4668a04d4d36dc66be32bfc1768ea592258ebb29678e72f557ad2ada1f3203ca981072",
      "networkId": 0,
      "chainId": 0
    },
    {
      "hash": "0x655c3b240bd71d6a42639dfc80cfe4fec873cdfa6778e35a61157ca1fc43b1d9",
      "blockHash": "0x91e81d4bee55193dfe09f44b3fcb5950696270f4a2573742afc6dc230d623522",
      "blockNumber": 115864,
      "transactionIndex": 4,
      "confirmations": null,
      "from": "0x9D551f41feD6FC27B719777c224DfeCcE170004d",
      "gasPrice": {
        "_hex": "0xd776ac5c6"
      },
      "gasLimit": {
        "_hex": "0x15f90"
      },
      "to": "0xdF53003346d65C5e7A646Bc034f2b7D32FcBE56A",
      "value": {
        "_hex": "0xed7031a9c70edf8"
      },
      "nonce": 27,
      "data": "0x",
      "r": "0x1c5574d180b4a65a95bf9f0315bd2ef1cd07bf368d2e891d8a2ec9c37b685437",
      "s": "0x127a072d4748e9a9a8e6cc643f0199dd9bf6c565ce4d4b1a8e5b08eb28c5cc16",
      "v": 28,
      "creates": null,
      "raw": "0xf86d1b850d776ac5c683015f9094df53003346d65c5e7a646bc034f2b7d32fcbe56a880ed7031a9c70edf8801ca01c5574d180b4a65a95bf9f0315bd2ef1cd07bf368d2e891d8a2ec9c37b685437a0127a072d4748e9a9a8e6cc643f0199dd9bf6c565ce4d4b1a8e5b08eb28c5cc16",
      "networkId": 0,
      "chainId": 0
    },
    {
      "hash": "0x9012f40b8e27cdfdf9ab56bca1c5c20dbaf98b78446282e8d5c66c39a8439d91",
      "blockHash": "0x91e81d4bee55193dfe09f44b3fcb5950696270f4a2573742afc6dc230d623522",
      "blockNumber": 115864,
      "transactionIndex": 5,
      "confirmations": null,
      "from": "0x9D551f41feD6FC27B719777c224DfeCcE170004d",
      "gasPrice": {
        "_hex": "0xd776ac5c6"
      },
      "gasLimit": {
        "_hex": "0x15f90"
      },
      "to": "0xeeb66aFe554366d685C7832C6c93727Ba577378D",
      "value": {
        "_hex": "0xb46baeecbd0c000"
      },
      "nonce": 28,
      "data": "0x",
      "r": "0xc51db403aebdd3212fc56ef98bcf8d0de964cbc3f2e55b42e8385cef080fa83d",
      "s": "0x6bd20da96b3f619032a0097797adad545c2c621c3a9e60681e2e3f570258c898",
      "v": 27,
      "creates": null,
      "raw": "0xf86d1c850d776ac5c683015f9094eeb66afe554366d685c7832c6c93727ba577378d880b46baeecbd0c000801ba0c51db403aebdd3212fc56ef98bcf8d0de964cbc3f2e55b42e8385cef080fa83da06bd20da96b3f619032a0097797adad545c2c621c3a9e60681e2e3f570258c898",
      "networkId": 0,
      "chainId": 0
    },
    {
      "hash": "0x6744426fd7d74b540969316502936d7e75e53a21504139337b84b798ef5a348b",
      "blockHash": "0x91e81d4bee55193dfe09f44b3fcb5950696270f4a2573742afc6dc230d623522",
      "blockNumber": 115864,
      "transactionIndex": 6,
      "confirmations": null,
      "from": "0x9D551f41feD6FC27B719777c224DfeCcE170004d",
      "gasPrice": {
        "_hex": "0xd776ac5c6"
      },
      "gasLimit": {
        "_hex": "0x15f90"
      },
      "to": "0xf2711F78854D3b5CE29fA3c550a9328D7df40706",
      "value": {
        "_hex": "0x6dcc2e84ebce8d3e"
      },
      "nonce": 29,
      "data": "0x",
      "r": "0x39a2dbeeb34ed61976570f8d4a8045681c11575e7eb2cf2d3312e9d5515bbc63",
      "s": "0x1aa014f53cb4932c0a4dfa7f0f3f7e1be3d97c2d14b282729a914f10c8789897",
      "v": 27,
      "creates": null,
      "raw": "0xf86d1d850d776ac5c683015f9094f2711f78854d3b5ce29fa3c550a9328d7df40706886dcc2e84ebce8d3e801ba039a2dbeeb34ed61976570f8d4a8045681c11575e7eb2cf2d3312e9d5515bbc63a01aa014f53cb4932c0a4dfa7f0f3f7e1be3d97c2d14b282729a914f10c8789897",
      "networkId": 0,
      "chainId": 0
    },
    {
      "hash": "0x8edb6f096151b9ad060ca4be06f560457ab415d53d21336d47e54106d4f2dc25",
      "blockHash": "0x91e81d4bee55193dfe09f44b3fcb5950696270f4a2573742afc6dc230d623522",
      "blockNumber": 115864,
      "transactionIndex": 7,
      "confirmations": null,
      "from": "0x9D551f41feD6FC27B719777c224DfeCcE170004d",
      "gasPrice": {
        "_hex": "0xd776ac5c6"
      },
      "gasLimit": {
        "_hex": "0x15f90"
      },
      "to": "0x2927CD65394568Daa1A93bF8e9cf2D956e1020cb",
      "value": {
        "_hex": "0xe9fa5a94506cf58"
      },
      "nonce": 30,
      "data": "0x",
      "r": "0x08e4f9d3bdf2e7d2122494ce94308bd72bfdb46f047f564fde25c3f82e26d8e5",
      "s": "0x069fc7d4a973cf628221da792f2932617ae335d0c68fe5c50c7d245bd7c192ed",
      "v": 28,
      "creates": null,
      "raw": "0xf86d1e850d776ac5c683015f90942927cd65394568daa1a93bf8e9cf2d956e1020cb880e9fa5a94506cf58801ca008e4f9d3bdf2e7d2122494ce94308bd72bfdb46f047f564fde25c3f82e26d8e5a0069fc7d4a973cf628221da792f2932617ae335d0c68fe5c50c7d245bd7c192ed",
      "networkId": 0,
      "chainId": 0
    },
    {
      "hash": "0x099eaeb6b25fde6804746988e64ee20ad7e155a5d5587d79c453c873f20f77cb",
      "blockHash": "0x91e81d4bee55193dfe09f44b3fcb5950696270f4a2573742afc6dc230d623522",
      "blockNumber": 115864,
      "transactionIndex": 8,
      "confirmations": null,
      "from": "0x9D551f41feD6FC27B719777c224DfeCcE170004d",
      "gasPrice": {
        "_hex": "0xd776ac5c6"
      },
      "gasLimit": {
        "_hex": "0x15f90"
      },
      "to": "0x2f982922411a39C79BCD2D293Ca79cf7A9A37313",
      "value": {
        "_hex": "0x2e2f6c7a35d80119"
      },
      "nonce": 31,
      "data": "0x",
      "r": "0x9c91ec1dbe5757a0a479783e418575eb7aef3b0cf4243cdabf9ee41eab9720bc",
      "s": "0x6fe13b75273b257c8f5385c47d454a2afda1e7484e97156bf86bbcbeb30fe11c",
      "v": 28,
      "creates": null,
      "raw": "0xf86d1f850d776ac5c683015f90942f982922411a39c79bcd2d293ca79cf7a9a37313882e2f6c7a35d80119801ca09c91ec1dbe5757a0a479783e418575eb7aef3b0cf4243cdabf9ee41eab9720bca06fe13b75273b257c8f5385c47d454a2afda1e7484e97156bf86bbcbeb30fe11c",
      "networkId": 0,
      "chainId": 0
    },
    {
      "hash": "0xed63bebc13f5855245effd87fe4e06edef3ab1908e96fd058e94f353b20202f0",
      "blockHash": "0x91e81d4bee55193dfe09f44b3fcb5950696270f4a2573742afc6dc230d623522",
      "blockNumber": 115864,
      "transactionIndex": 9,
      "confirmations": null,
      "from": "0x9D551f41feD6FC27B719777c224DfeCcE170004d",
      "gasPrice": {
        "_hex": "0xd776ac5c6"
      },
      "gasLimit": {
        "_hex": "0x15f90"
      },
      "to": "0x0F9c57Ebf3A5ba27b543bB64220caA7b4478B04b",
      "value": {
        "_hex": "0x15df52a77e9f55ae"
      },
      "nonce": 32,
      "data": "0x",
      "r": "0x251922ed67db6d3ced90e6e3cf91432a3e7655551dd1794f79e4f47c4ff4b2c2",
      "s": "0x12a13d8d8cc2e2308587b735e1e48ff7f710f581ecc4f5bedd9190b95cc8033e",
      "v": 27,
      "creates": null,
      "raw": "0xf86d20850d776ac5c683015f90940f9c57ebf3a5ba27b543bb64220caa7b4478b04b8815df52a77e9f55ae801ba0251922ed67db6d3ced90e6e3cf91432a3e7655551dd1794f79e4f47c4ff4b2c2a012a13d8d8cc2e2308587b735e1e48ff7f710f581ecc4f5bedd9190b95cc8033e",
      "networkId": 0,
      "chainId": 0
    },
    {
      "hash": "0xb595eaffe4bfb2f82275b24a01c3113660f5386b9384bf035d29aff5c7354862",
      "blockHash": "0x91e81d4bee55193dfe09f44b3fcb5950696270f4a2573742afc6dc230d623522",
      "blockNumber": 115864,
      "transactionIndex": 10,
      "confirmations": null,
      "from": "0x9D551f41feD6FC27B719777c224DfeCcE170004d",
      "gasPrice": {
        "_hex": "0xd776ac5c6"
      },
      "gasLimit": {
        "_hex": "0x15f90"
      },
      "to": "0xb2e806F75188C71A4271c047563d6f623107696A",
      "value": {
        "_hex": "0x14c747939efc0013"
      },
      "nonce": 33,
      "data": "0x",
      "r": "0x40d59fc1fb494868999c7349a6b5fec8d5a682b1209831514eedbb1d476d4ad1",
      "s": "0x104ba59b06e54c7fe6c271d926f07bdc441fc92999a5df423777f169a8c8d4e5",
      "v": 27,
      "creates": null,
      "raw": "0xf86d21850d776ac5c683015f9094b2e806f75188c71a4271c047563d6f623107696a8814c747939efc0013801ba040d59fc1fb494868999c7349a6b5fec8d5a682b1209831514eedbb1d476d4ad1a0104ba59b06e54c7fe6c271d926f07bdc441fc92999a5df423777f169a8c8d4e5",
      "networkId": 0,
      "chainId": 0
    },
    {
      "hash": "0x7bbea4d818380c1e413f8bc55f4e71de8d1bc663a10e2e75ca5d8e49791b50b3",
      "blockHash": "0x91e81d4bee55193dfe09f44b3fcb5950696270f4a2573742afc6dc230d623522",
      "blockNumber": 115864,
      "transactionIndex": 11,
      "confirmations": null,
      "from": "0x9D551f41feD6FC27B719777c224DfeCcE170004d",
      "gasPrice": {
        "_hex": "0xd776ac5c6"
      },
      "gasLimit": {
        "_hex": "0x15f90"
      },
      "to": "0x3775A879e18FD8e6E515100d29fA80bD58AA571C",
      "value": {
        "_hex": "0x20801d81e9d79b7d"
      },
      "nonce": 34,
      "data": "0x",
      "r": "0x5efafecacdf41eddbb37e2f83107a45c87a2c447a32c392c078ab4511e30cd77",
      "s": "0x3fbfac4cbbb143159b997a6a7104622707b3e542bceb1cb0c2c4f7aa96a758f4",
      "v": 28,
      "creates": null,
      "raw": "0xf86d22850d776ac5c683015f90943775a879e18fd8e6e515100d29fa80bd58aa571c8820801d81e9d79b7d801ca05efafecacdf41eddbb37e2f83107a45c87a2c447a32c392c078ab4511e30cd77a03fbfac4cbbb143159b997a6a7104622707b3e542bceb1cb0c2c4f7aa96a758f4",
      "networkId": 0,
      "chainId": 0
    },
    {
      "hash": "0x4d5b7c416895a036f9abe1efd55ff2366d52316ccc8804f71dda4f47fdaa7cbf",
      "blockHash": "0x91e81d4bee55193dfe09f44b3fcb5950696270f4a2573742afc6dc230d623522",
      "blockNumber": 115864,
      "transactionIndex": 12,
      "confirmations": null,
      "from": "0x9D551f41feD6FC27B719777c224DfeCcE170004d",
      "gasPrice": {
        "_hex": "0xd776ac5c6"
      },
      "gasLimit": {
        "_hex": "0x15f90"
      },
      "to": "0xED5fc0A526e8a986166d7486F815bE1253320104",
      "value": {
        "_hex": "0x14b314efb3f39b31"
      },
      "nonce": 35,
      "data": "0x",
      "r": "0x5f82e117fb597b93fe6616ef756a1a4bc5f75b1e7c0532fb909585fc9ed934cc",
      "s": "0x3b1f9fd791d29e5f5704b50a5e7586d03ac02e699085032c4e06263a4da5b124",
      "v": 27,
      "creates": null,
      "raw": "0xf86d23850d776ac5c683015f9094ed5fc0a526e8a986166d7486f815be12533201048814b314efb3f39b31801ba05f82e117fb597b93fe6616ef756a1a4bc5f75b1e7c0532fb909585fc9ed934cca03b1f9fd791d29e5f5704b50a5e7586d03ac02e699085032c4e06263a4da5b124",
      "networkId": 0,
      "chainId": 0
    },
    {
      "hash": "0x4aea53f2302603eb14af8416d69388ab114c3bbcaeef04dcb84efe36ceefb26e",
      "blockHash": "0x91e81d4bee55193dfe09f44b3fcb5950696270f4a2573742afc6dc230d623522",
      "blockNumber": 115864,
      "transactionIndex": 13,
      "confirmations": null,
      "from": "0x9D551f41feD6FC27B719777c224DfeCcE170004d",
      "gasPrice": {
        "_hex": "0xd776ac5c6"
      },
      "gasLimit": {
        "_hex": "0x15f90"
      },
      "to": "0xED5fc0A526e8a986166d7486F815bE1253320104",
      "value": {
        "_hex": "0x14b314efb3f39b31"
      },
      "nonce": 36,
      "data": "0x",
      "r": "0x3f24915b16ec20a9a7a1d039580cef1f55fd64fb5cbbdce51b0e92e12cd36e58",
      "s": "0x47770746ad6d876762f3b347aa910cf1e8b86be73f836df83b2519dfd82d1608",
      "v": 28,
      "creates": null,
      "raw": "0xf86d24850d776ac5c683015f9094ed5fc0a526e8a986166d7486f815be12533201048814b314efb3f39b31801ca03f24915b16ec20a9a7a1d039580cef1f55fd64fb5cbbdce51b0e92e12cd36e58a047770746ad6d876762f3b347aa910cf1e8b86be73f836df83b2519dfd82d1608",
      "networkId": 0,
      "chainId": 0
    },
    {
      "hash": "0x6f2fa2fac5c8ae7d0477b6b02ae51106b8b088a3222f10fa91ff7c406d76c2f7",
      "blockHash": "0x91e81d4bee55193dfe09f44b3fcb5950696270f4a2573742afc6dc230d623522",
      "blockNumber": 115864,
      "transactionIndex": 14,
      "confirmations": null,
      "from": "0x9D551f41feD6FC27B719777c224DfeCcE170004d",
      "gasPrice": {
        "_hex": "0xd776ac5c6"
      },
      "gasLimit": {
        "_hex": "0x15f90"
      },
      "to": "0x3D5C4B04c87615AD5Ea311b02e2898666416832f",
      "value": {
        "_hex": "0x2ed797797ed991d0"
      },
      "nonce": 37,
      "data": "0x",
      "r": "0x50544183e95c3977266a2a8a1589f1a0c7b533212b3a0f8d48ab9212c1726ca3",
      "s": "0x6872049913d90fa87b240efa1c463db57d882476651f2aad6f5afc3d2434dd4f",
      "v": 28,
      "creates": null,
      "raw": "0xf86d25850d776ac5c683015f90943d5c4b04c87615ad5ea311b02e2898666416832f882ed797797ed991d0801ca050544183e95c3977266a2a8a1589f1a0c7b533212b3a0f8d48ab9212c1726ca3a06872049913d90fa87b240efa1c463db57d882476651f2aad6f5afc3d2434dd4f",
      "networkId": 0,
      "chainId": 0
    },
    {
      "hash": "0x51bd5fc4a39b247458afb2f24b78eff78b69bb21f112a8282f4d251317ee7cb6",
      "blockHash": "0x91e81d4bee55193dfe09f44b3fcb5950696270f4a2573742afc6dc230d623522",
      "blockNumber": 115864,
      "transactionIndex": 15,
      "confirmations": null,
      "from": "0x9D551f41feD6FC27B719777c224DfeCcE170004d",
      "gasPrice": {
        "_hex": "0xd776ac5c6"
      },
      "gasLimit": {
        "_hex": "0x15f90"
      },
      "to": "0x1c5882903DB408D54A042Ff314258d9080d1c158",
      "value": {
        "_hex": "0x10896494a3255775"
      },
      "nonce": 38,
      "data": "0x",
      "r": "0x54ba318329504f04d1a51c9a21c90ddb3b03d6bd55be05c313a42411ce372c3e",
      "s": "0x212df9dd6dd43f133539074412aecfb128c385b83844a9fc0ceb4db9b6f26beb",
      "v": 27,
      "creates": null,
      "raw": "0xf86d26850d776ac5c683015f90941c5882903db408d54a042ff314258d9080d1c1588810896494a3255775801ba054ba318329504f04d1a51c9a21c90ddb3b03d6bd55be05c313a42411ce372c3ea0212df9dd6dd43f133539074412aecfb128c385b83844a9fc0ceb4db9b6f26beb",
      "networkId": 0,
      "chainId": 0
    },
    {
      "hash": "0xbacd9fe5e2b1292c9f569da3d4547544c851732356571d5ee7a9a51118e74c4a",
      "blockHash": "0x91e81d4bee55193dfe09f44b3fcb5950696270f4a2573742afc6dc230d623522",
      "blockNumber": 115864,
      "transactionIndex": 16,
      "confirmations": null,
      "from": "0x9D551f41feD6FC27B719777c224DfeCcE170004d",
      "gasPrice": {
        "_hex": "0xd776ac5c6"
      },
      "gasLimit": {
        "_hex": "0x15f90"
      },
      "to": "0x0F7606315036EF870B5D92Cd9e52b8d4f771a7eA",
      "value": {
        "_hex": "0x1cdc44e60d1a3926"
      },
      "nonce": 39,
      "data": "0x",
      "r": "0x069857a1abc31fa8222fc7b1e41a9fd41f8c6d8d74b1a6261adbe3f858bfce28",
      "s": "0x793d5228a1fd2c70b492bc4b1f67034146b80da7c46d35ddd6d275d147db8ef5",
      "v": 28,
      "creates": null,
      "raw": "0xf86d27850d776ac5c683015f90940f7606315036ef870b5d92cd9e52b8d4f771a7ea881cdc44e60d1a3926801ca0069857a1abc31fa8222fc7b1e41a9fd41f8c6d8d74b1a6261adbe3f858bfce28a0793d5228a1fd2c70b492bc4b1f67034146b80da7c46d35ddd6d275d147db8ef5",
      "networkId": 0,
      "chainId": 0
    },
    {
      "hash": "0x1ad5f7706bd5b21f6b7b4f3f410ac5b8f55aca0d0167e10bb33417cb480762c8",
      "blockHash": "0x91e81d4bee55193dfe09f44b3fcb5950696270f4a2573742afc6dc230d623522",
      "blockNumber": 115864,
      "transactionIndex": 17,
      "confirmations": null,
      "from": "0x9D551f41feD6FC27B719777c224DfeCcE170004d",
      "gasPrice": {
        "_hex": "0xd776ac5c6"
      },
      "gasLimit": {
        "_hex": "0x15f90"
      },
      "to": "0x36d85Dc3683156e63Bf880A9fAb7788CF8143a27",
      "value": {
        "_hex": "0x14c4cce965b63722"
      },
      "nonce": 40,
      "data": "0x",
      "r": "0x8ec185fea9db3bc6603221a8a9b4095209913fe614d299678dc7fe76bfaacbb5",
      "s": "0x32707cb0acec6932ca14a29f6566084aa8b95579acf006b5dd8e8af492e0f938",
      "v": 27,
      "creates": null,
      "raw": "0xf86d28850d776ac5c683015f909436d85dc3683156e63bf880a9fab7788cf8143a278814c4cce965b63722801ba08ec185fea9db3bc6603221a8a9b4095209913fe614d299678dc7fe76bfaacbb5a032707cb0acec6932ca14a29f6566084aa8b95579acf006b5dd8e8af492e0f938",
      "networkId": 0,
      "chainId": 0
    },
    {
      "hash": "0x20993179eff21c96587cff0398def27208f8805420d680c1d9953205e85a71fd",
      "blockHash": "0x91e81d4bee55193dfe09f44b3fcb5950696270f4a2573742afc6dc230d623522",
      "blockNumber": 115864,
      "transactionIndex": 18,
      "confirmations": null,
      "from": "0x9D551f41feD6FC27B719777c224DfeCcE170004d",
      "gasPrice": {
        "_hex": "0xd776ac5c6"
      },
      "gasLimit": {
        "_hex": "0x15f90"
      },
      "to": "0x6363a8Ecb033C9305b730dF97d63Ee93b2EEb511",
      "value": {
        "_hex": "0xedc9fb5cd2e9b1f"
      },
      "nonce": 41,
      "data": "0x",
      "r": "0xc9b74ab9ed546eabec67b8603cf15504972ce37531b9cb88f6d8a314b8a024af",
      "s": "0x08fbf6e96834edd87b9a6479d9977721e6fccdc34e9c4d57ace72147b949925f",
      "v": 28,
      "creates": null,
      "raw": "0xf86d29850d776ac5c683015f90946363a8ecb033c9305b730df97d63ee93b2eeb511880edc9fb5cd2e9b1f801ca0c9b74ab9ed546eabec67b8603cf15504972ce37531b9cb88f6d8a314b8a024afa008fbf6e96834edd87b9a6479d9977721e6fccdc34e9c4d57ace72147b949925f",
      "networkId": 0,
      "chainId": 0
    },
    {
      "hash": "0x0aa234f12866aee6b91af34dea2cda8acb278c834aa1f99602f09ab81b980f7c",
      "blockHash": "0x91e81d4bee55193dfe09f44b3fcb5950696270f4a2573742afc6dc230d623522",
      "blockNumber": 115864,
      "transactionIndex": 19,
      "confirmations": null,
      "from": "0x9D551f41feD6FC27B719777c224DfeCcE170004d",
      "gasPrice": {
        "_hex": "0xd776ac5c6"
      },
      "gasLimit": {
        "_hex": "0x15f90"
      },
      "to": "0xdB95f8c8c1Baa07339Ebd8aBB1F1826008d7FEf7",
      "value": {
        "_hex": "0x16e0750a1e7b96b1"
      },
      "nonce": 42,
      "data": "0x",
      "r": "0x7a916760e226b7a45d08c3c9ff51bbb169caa20fd76965a92e12fcf1740ebd81",
      "s": "0x5340c321fc11ee0beb4413b82827b475a412c0ff43792e6132bf5f841b9fd642",
      "v": 28,
      "creates": null,
      "raw": "0xf86d2a850d776ac5c683015f9094db95f8c8c1baa07339ebd8abb1f1826008d7fef78816e0750a1e7b96b1801ca07a916760e226b7a45d08c3c9ff51bbb169caa20fd76965a92e12fcf1740ebd81a05340c321fc11ee0beb4413b82827b475a412c0ff43792e6132bf5f841b9fd642",
      "networkId": 0,
      "chainId": 0
    },
    {
      "hash": "0x854b85508ef6b7a190c88ee82e912b19f0f18a4e15c2b7f306c8a13b08511a2b",
      "blockHash": "0x91e81d4bee55193dfe09f44b3fcb5950696270f4a2573742afc6dc230d623522",
      "blockNumber": 115864,
      "transactionIndex": 20,
      "confirmations": null,
      "from": "0x9D551f41feD6FC27B719777c224DfeCcE170004d",
      "gasPrice": {
        "_hex": "0xd776ac5c6"
      },
      "gasLimit": {
        "_hex": "0x15f90"
      },
      "to": "0x4F68024B7CEB5ca92e7308BD08e523c632C0c739",
      "value": {
        "_hex": "0x431c1df9071ad4f2"
      },
      "nonce": 43,
      "data": "0x",
      "r": "0x1a933a6297deb417ac20e956df8d04b134a52d17d905ea8991c7ffc030f6c30d",
      "s": "0x6753a5bf22a4c7dbbd387da409904b8f92bb5b8f7513a1ec59a179cfa84de57e",
      "v": 28,
      "creates": null,
      "raw": "0xf86d2b850d776ac5c683015f90944f68024b7ceb5ca92e7308bd08e523c632c0c73988431c1df9071ad4f2801ca01a933a6297deb417ac20e956df8d04b134a52d17d905ea8991c7ffc030f6c30da06753a5bf22a4c7dbbd387da409904b8f92bb5b8f7513a1ec59a179cfa84de57e",
      "networkId": 0,
      "chainId": 0
    },
    {
      "hash": "0xe4bb636d0d0f3b9094d85298753aab7eafef0917039f8ddf62bc396b4eaf1859",
      "blockHash": "0x91e81d4bee55193dfe09f44b3fcb5950696270f4a2573742afc6dc230d623522",
      "blockNumber": 115864,
      "transactionIndex": 21,
      "confirmations": null,
      "from": "0x9D551f41feD6FC27B719777c224DfeCcE170004d",
      "gasPrice": {
        "_hex": "0xd776ac5c6"
      },
      "gasLimit": {
        "_hex": "0x15f90"
      },
      "to": "0x5B40711F65053004dc86F296Dd8F09862E00998F",
      "value": {
        "_hex": "0x27c085266917bee6"
      },
      "nonce": 44,
      "data": "0x",
      "r": "0xae4c51aab45195f3828c93ca525d0cafdfec4e1fdec36c3e50b901921ef0a0ca",
      "s": "0x4624ad90f757b9fca4126351c50f8c056ffb8645824398cfd169fb325ce6d237",
      "v": 27,
      "creates": null,
      "raw": "0xf86d2c850d776ac5c683015f90945b40711f65053004dc86f296dd8f09862e00998f8827c085266917bee6801ba0ae4c51aab45195f3828c93ca525d0cafdfec4e1fdec36c3e50b901921ef0a0caa04624ad90f757b9fca4126351c50f8c056ffb8645824398cfd169fb325ce6d237",
      "networkId": 0,
      "chainId": 0
    },
    {
      "hash": "0x1ab2c8d1b0fa2e43924e1a4c716363ed5738c892c9a1763b1f43002b6359a996",
      "blockHash": "0x91e81d4bee55193dfe09f44b3fcb5950696270f4a2573742afc6dc230d623522",
      "blockNumber": 115864,
      "transactionIndex": 22,
      "confirmations": null,
      "from": "0x9D551f41feD6FC27B719777c224DfeCcE170004d",
      "gasPrice": {
        "_hex": "0xd776ac5c6"
      },
      "gasLimit": {
        "_hex": "0x15f90"
      },
      "to": "0x34f0F706648F334eDf39e555766d4EACD54D61dC",
      "value": {
        "_hex": "0x3bca85552e56575a"
      },
      "nonce": 45,
      "data": "0x",
      "r": "0xc4d822263992eeb68282a410133d78d633c07e4b8d276c1a03aaeef9b3824bb3",
      "s": "0x3a9b45eb39fe5c69491c78fa5ab9a21da30523e785eed11c6cc6c452adcddbdd",
      "v": 27,
      "creates": null,
      "raw": "0xf86d2d850d776ac5c683015f909434f0f706648f334edf39e555766d4eacd54d61dc883bca85552e56575a801ba0c4d822263992eeb68282a410133d78d633c07e4b8d276c1a03aaeef9b3824bb3a03a9b45eb39fe5c69491c78fa5ab9a21da30523e785eed11c6cc6c452adcddbdd",
      "networkId": 0,
      "chainId": 0
    },
    {
      "hash": "0xe3ce34a3b02982f83cae22fed6c8f55c657a53f3fe116f4127dcb72964dc674d",
      "blockHash": "0x91e81d4bee55193dfe09f44b3fcb5950696270f4a2573742afc6dc230d623522",
      "blockNumber": 115864,
      "transactionIndex": 23,
      "confirmations": null,
      "from": "0x9D551f41feD6FC27B719777c224DfeCcE170004d",
      "gasPrice": {
        "_hex": "0xd776ac5c6"
      },
      "gasLimit": {
        "_hex": "0x15f90"
      },
      "to": "0x94b7fDF01f4E5d76b2C31eEb846f91F427606C98",
      "value": {
        "_hex": "0x387e24c57f2ce6cd"
      },
      "nonce": 46,
      "data": "0x",
      "r": "0x2f94c9688043d9a5c15dc15eb703ea578c0d162d0b90801ee27c710287bf0ab6",
      "s": "0x0deed96dc6854d80aff6715fd9e001fbc23668f81c1869bacd4c47ea2db90b67",
      "v": 28,
      "creates": null,
      "raw": "0xf86d2e850d776ac5c683015f909494b7fdf01f4e5d76b2c31eeb846f91f427606c9888387e24c57f2ce6cd801ca02f94c9688043d9a5c15dc15eb703ea578c0d162d0b90801ee27c710287bf0ab6a00deed96dc6854d80aff6715fd9e001fbc23668f81c1869bacd4c47ea2db90b67",
      "networkId": 0,
      "chainId": 0
    },
    {
      "hash": "0xa4b0f616ac1f34a06186e03db56649e59be7ffa5623fb7c79f4bf7a409a10167",
      "blockHash": "0x91e81d4bee55193dfe09f44b3fcb5950696270f4a2573742afc6dc230d623522",
      "blockNumber": 115864,
      "transactionIndex": 24,
      "confirmations": null,
      "from": "0x9D551f41feD6FC27B719777c224DfeCcE170004d",
      "gasPrice": {
        "_hex": "0xd776ac5c6"
      },
      "gasLimit": {
        "_hex": "0x15f90"
      },
      "to": "0xdD9705A4a2a661729aDbfe2F72E272EAFCad6b55",
      "value": {
        "_hex": "0x1ddecd49597aee9c"
      },
      "nonce": 47,
      "data": "0x",
      "r": "0x1a7d3350ffe283617a37c4c4724cc4802f0fca7eb9a74d6b6b6e207f19e09717",
      "s": "0x53cd50ea38f2354caea109e04521c0448adbe98341c1b65f424f086be522bebb",
      "v": 27,
      "creates": null,
      "raw": "0xf86d2f850d776ac5c683015f9094dd9705a4a2a661729adbfe2f72e272eafcad6b55881ddecd49597aee9c801ba01a7d3350ffe283617a37c4c4724cc4802f0fca7eb9a74d6b6b6e207f19e09717a053cd50ea38f2354caea109e04521c0448adbe98341c1b65f424f086be522bebb",
      "networkId": 0,
      "chainId": 0
    },
    {
      "hash": "0x3b088225d9090ef6b3a669ad87e121bb79330a6a85716e3bf9299b54867956a9",
      "blockHash": "0x91e81d4bee55193dfe09f44b3fcb5950696270f4a2573742afc6dc230d623522",
      "blockNumber": 115864,
      "transactionIndex": 25,
      "confirmations": null,
      "from": "0x9D551f41feD6FC27B719777c224DfeCcE170004d",
      "gasPrice": {
        "_hex": "0xd776ac5c6"
      },
      "gasLimit": {
        "_hex": "0x15f90"
      },
      "to": "0x9DDd75762f6d7abA204Ce1A413E6a2230f238f76",
      "value": {
        "_hex": "0xe54e3431e740a40"
      },
      "nonce": 48,
      "data": "0x",
      "r": "0x380daf89f79fd58b9768678158b81871a1ddb9b95f157a59b870e6f5ac8fdc82",
      "s": "0x2d713bc736153d166332cf3ca8bb6705ff8d6824b60b3ead5afe1e60d1bc9633",
      "v": 28,
      "creates": null,
      "raw": "0xf86d30850d776ac5c683015f90949ddd75762f6d7aba204ce1a413e6a2230f238f76880e54e3431e740a40801ca0380daf89f79fd58b9768678158b81871a1ddb9b95f157a59b870e6f5ac8fdc82a02d713bc736153d166332cf3ca8bb6705ff8d6824b60b3ead5afe1e60d1bc9633",
      "networkId": 0,
      "chainId": 0
    },
    {
      "hash": "0xee55d0e1da026c00e1361bfaa483881f7527590b7367b924073144778c6c7f4e",
      "blockHash": "0x91e81d4bee55193dfe09f44b3fcb5950696270f4a2573742afc6dc230d623522",
      "blockNumber": 115864,
      "transactionIndex": 26,
      "confirmations": null,
      "from": "0x9D551f41feD6FC27B719777c224DfeCcE170004d",
      "gasPrice": {
        "_hex": "0xd776ac5c6"
      },
      "gasLimit": {
        "_hex": "0x15f90"
      },
      "to": "0xa6998e08F465186605830fE7766Ea0A3D39CCD22",
      "value": {
        "_hex": "0x1329881cef7ab521"
      },
      "nonce": 49,
      "data": "0x",
      "r": "0xf248c3591abc2df0ec38ed607af62f58c7b77757fdb542dbefad3dc460f13a0c",
      "s": "0x606e92f0e89b4b4a5b6a7f6bf0795365d64152caa7a155832ed7e58835edaab1",
      "v": 28,
      "creates": null,
      "raw": "0xf86d31850d776ac5c683015f9094a6998e08f465186605830fe7766ea0a3d39ccd22881329881cef7ab521801ca0f248c3591abc2df0ec38ed607af62f58c7b77757fdb542dbefad3dc460f13a0ca0606e92f0e89b4b4a5b6a7f6bf0795365d64152caa7a155832ed7e58835edaab1",
      "networkId": 0,
      "chainId": 0
    },
    {
      "hash": "0xe886a40a486acef10024879b692f6a410338bf093270dfc2dd3a9a8ffe3738c8",
      "blockHash": "0x91e81d4bee55193dfe09f44b3fcb5950696270f4a2573742afc6dc230d623522",
      "blockNumber": 115864,
      "transactionIndex": 27,
      "confirmations": null,
      "from": "0x9D551f41feD6FC27B719777c224DfeCcE170004d",
      "gasPrice": {
        "_hex": "0xd776ac5c6"
      },
      "gasLimit": {
        "_hex": "0x15f90"
      },
      "to": "0x81a5B5bf30f76A06d8948ce6bb551a4b3487AD0A",
      "value": {
        "_hex": "0xeed114dc0a3ada6"
      },
      "nonce": 50,
      "data": "0x",
      "r": "0x26933d017e009ca01b071b5f857675b54f8be8c28f2e81b975c1feb0f5c2616e",
      "s": "0x7f3db32bd1df4a4cd80d9816aa5d22a194baa3ab62b451216c8e806ef9153afa",
      "v": 28,
      "creates": null,
      "raw": "0xf86d32850d776ac5c683015f909481a5b5bf30f76a06d8948ce6bb551a4b3487ad0a880eed114dc0a3ada6801ca026933d017e009ca01b071b5f857675b54f8be8c28f2e81b975c1feb0f5c2616ea07f3db32bd1df4a4cd80d9816aa5d22a194baa3ab62b451216c8e806ef9153afa",
      "networkId": 0,
      "chainId": 0
    },
    {
      "hash": "0x1c58c725d5485517ac13082146d2e391cdb1e6ff25ab6adc3a76c28d96b21540",
      "blockHash": "0x91e81d4bee55193dfe09f44b3fcb5950696270f4a2573742afc6dc230d623522",
      "blockNumber": 115864,
      "transactionIndex": 28,
      "confirmations": null,
      "from": "0x9D551f41feD6FC27B719777c224DfeCcE170004d",
      "gasPrice": {
        "_hex": "0xd776ac5c6"
      },
      "gasLimit": {
        "_hex": "0x15f90"
      },
      "to": "0xA80A8ecbF729C98404eE20b39945Ad8DEBd08C61",
      "value": {
        "_hex": "0xf2b2e5cd24f268f"
      },
      "nonce": 51,
      "data": "0x",
      "r": "0xb979e3a5ce41fa4e03cab65f47c641c3f56ed1ff3b36bc68dcd0a3b014faaa41",
      "s": "0x2a903f7bf6442d6985d59710fd550d59d4fbb80bd468b2edd868f7b66a464efa",
      "v": 27,
      "creates": null,
      "raw": "0xf86d33850d776ac5c683015f9094a80a8ecbf729c98404ee20b39945ad8debd08c61880f2b2e5cd24f268f801ba0b979e3a5ce41fa4e03cab65f47c641c3f56ed1ff3b36bc68dcd0a3b014faaa41a02a903f7bf6442d6985d59710fd550d59d4fbb80bd468b2edd868f7b66a464efa",
      "networkId": 0,
      "chainId": 0
    },
    {
      "hash": "0xe0eacc6ffe3e7e4d3829907f0c75dc366e929c72afe185ec3c912dcb55534e02",
      "blockHash": "0x91e81d4bee55193dfe09f44b3fcb5950696270f4a2573742afc6dc230d623522",
      "blockNumber": 115864,
      "transactionIndex": 29,
      "confirmations": null,
      "from": "0x9D551f41feD6FC27B719777c224DfeCcE170004d",
      "gasPrice": {
        "_hex": "0xd776ac5c6"
      },
      "gasLimit": {
        "_hex": "0x15f90"
      },
      "to": "0xf705E3BD1dEE6AE0dE482E7249b121b4F0CB2CF5",
      "value": {
        "_hex": "0x1ea9a7a02bf13ed7"
      },
      "nonce": 52,
      "data": "0x",
      "r": "0x21ea8e2631463a84171cb60f59dcdb1b56d1f79c6575d75a3780ac4a7b94eb5c",
      "s": "0x6f3497b3c4d9c3e4548a76e9fdc59e8c5c89f5465a9876033108ac83b9ab479e",
      "v": 28,
      "creates": null,
      "raw": "0xf86d34850d776ac5c683015f9094f705e3bd1dee6ae0de482e7249b121b4f0cb2cf5881ea9a7a02bf13ed7801ca021ea8e2631463a84171cb60f59dcdb1b56d1f79c6575d75a3780ac4a7b94eb5ca06f3497b3c4d9c3e4548a76e9fdc59e8c5c89f5465a9876033108ac83b9ab479e",
      "networkId": 0,
      "chainId": 0
    },
    {
      "hash": "0x36f0ddab915cae97a49a76928f45154b422f8958dde10d8e5abceaa0e161d8dd",
      "blockHash": "0x91e81d4bee55193dfe09f44b3fcb5950696270f4a2573742afc6dc230d623522",
      "blockNumber": 115864,
      "transactionIndex": 30,
      "confirmations": null,
      "from": "0x9D551f41feD6FC27B719777c224DfeCcE170004d",
      "gasPrice": {
        "_hex": "0xd776ac5c6"
      },
      "gasLimit": {
        "_hex": "0x15f90"
      },
      "to": "0x108b54b7E3c09F8127CB8B28ffA3AD4001b32998",
      "value": {
        "_hex": "0x306740ee6139d322"
      },
      "nonce": 53,
      "data": "0x",
      "r": "0x8b3d7cc47b0703774732dd91898d9dc0fc00dff11abf5a5853519260f6e333ab",
      "s": "0x5fe131733ea917d50709a8cc281b45a944e40eaab9fdecc3074aabcda5f2c524",
      "v": 28,
      "creates": null,
      "raw": "0xf86d35850d776ac5c683015f9094108b54b7e3c09f8127cb8b28ffa3ad4001b3299888306740ee6139d322801ca08b3d7cc47b0703774732dd91898d9dc0fc00dff11abf5a5853519260f6e333aba05fe131733ea917d50709a8cc281b45a944e40eaab9fdecc3074aabcda5f2c524",
      "networkId": 0,
      "chainId": 0
    },
    {
      "hash": "0xc4b340d18bce997b0f413b0cf94aa68930fe976b89eecd0d6c151b8fc0aac3cf",
      "blockHash": "0x91e81d4bee55193dfe09f44b3fcb5950696270f4a2573742afc6dc230d623522",
      "blockNumber": 115864,
      "transactionIndex": 31,
      "confirmations": null,
      "from": "0x9D551f41feD6FC27B719777c224DfeCcE170004d",
      "gasPrice": {
        "_hex": "0xd776ac5c6"
      },
      "gasLimit": {
        "_hex": "0x15f90"
      },
      "to": "0x5F03b61cc63cA0b9E5D70A11E7CcA53447c38aE7",
      "value": {
        "_hex": "0x1d5ae05152ced6a5"
      },
      "nonce": 54,
      "data": "0x",
      "r": "0x2993f936a217fcfcab5d46fc458ed512fbe6412cc3a31b0dc92593dd2246af74",
      "s": "0x4560c727c68df28ba6e99f6316b0a07d5310b4db11e0158207e3a70515fa6605",
      "v": 28,
      "creates": null,
      "raw": "0xf86d36850d776ac5c683015f90945f03b61cc63ca0b9e5d70a11e7cca53447c38ae7881d5ae05152ced6a5801ca02993f936a217fcfcab5d46fc458ed512fbe6412cc3a31b0dc92593dd2246af74a04560c727c68df28ba6e99f6316b0a07d5310b4db11e0158207e3a70515fa6605",
      "networkId": 0,
      "chainId": 0
    },
    {
      "hash": "0x5a527245f9f61c66f6f5d4c02469e22d0e8ab6ef2e18dc498f34e95053ecbe11",
      "blockHash": "0x91e81d4bee55193dfe09f44b3fcb5950696270f4a2573742afc6dc230d623522",
      "blockNumber": 115864,
      "transactionIndex": 32,
      "confirmations": null,
      "from": "0x32Be343B94f860124dC4fEe278FDCBD38C102D88",
      "gasPrice": {
        "_hex": "0xcf217a003"
      },
      "gasLimit": {
        "_hex": "0x5208"
      },
      "to": "0xB9A0a0410aA5e26bFa66Cc3ACAF0A6FC61Df5588",
      "value": {
        "_hex": "0x9cd1aa2149ea0000"
      },
      "nonce": 1451,
      "data": "0x",
      "r": "0x1aefd6a9c196124ee0f0158eac52c56d3438ddd8f04e4731173d51e2601081f1",
      "s": "0x18c9dbc929a511b119ae3c8665edb26e19275bfff75b93976d74af6ffbb3acfb",
      "v": 28,
      "creates": null,
      "raw": "0xf86e8205ab850cf217a00382520894b9a0a0410aa5e26bfa66cc3acaf0a6fc61df5588889cd1aa2149ea0000801ca01aefd6a9c196124ee0f0158eac52c56d3438ddd8f04e4731173d51e2601081f1a018c9dbc929a511b119ae3c8665edb26e19275bfff75b93976d74af6ffbb3acfb",
      "networkId": 0,
      "chainId": 0
    }
  ]
}