{
  "hash": "0xf260767018f226743049e1f617c6c9b444a845da634a4a3c59b7143a131aceca",
  "parentHash": "0x3167330b63687315b2d2bdacf6eff7c67af2d692dac54a9ceb46a1a0b3774087",
  "number": 95289,
  "timestamp": 1439721929,
  "nonce": "0x6944fda177a1475d",
  "difficulty": 3556803809037,
  "gasLimit": {
    "_hex": "0x2fefd8"
  },
  "gasUsed": {
    "_hex": "0xf618"
  },
  "miner": "0xf927a40C8B7F6E07c5af7FA2155B4864a4112B13",
  "extraData": "0x",
  "transactions": [
    {
      "hash": "0x4a4158a21c975c6de1a4ca89047c7cb856236fc27fbf3e0e16e007c0fab3bbca",
      "blockHash": "0xf260767018f226743049e1f617c6c9b444a845da634a4a3c59b7143a131aceca",
      "blockNumber": 95289,
      "transactionIndex": 0,
      "confirmations": null,
      "from": "0x32Be343B94f860124dC4fEe278FDCBD38C102D88",
      "gasPrice": {
        "_hex": "0xd99f6f404"
      },
      "gasLimit": {
        "_hex": "0x5208"
      },
      "to": "0xa1b5EF12a15fd534557A53f73bA0CB451BA86701",
      "value": {
        "_hex": "0x45400a8fd5330000"
      },
      "nonce": 982,
      "data": "0x",
      "r": "0xbc9244f3787fa581be9795c02aebcab9509f0c2e73292f75b484884157addb00",
      "s": "0x2d3ca1b66b955d0b8915e0491044da9ebbd5e5b57c691acf8313b1d8f540be12",
      "v": 28,
      "creates": null,
      "raw": "0xf86e8203d6850d99f6f40482520894a1b5ef12a15fd534557a53f73ba0cb451ba867018845400a8fd5330000801ca0bc9244f3787fa581be9795c02aebcab9509f0c2e73292f75b484884157addb00a02d3ca1b66b955d0b8915e0491044da9ebbd5e5b57c691acf8313b1d8f540be12",
      "networkId": 0,
      "chainId": 0
    },
    {
      "hash": "0x308dfd9da6296ee19b3b1321e70e42afefa021742344ab75ded22eb32defc804",
      "blockHash": "0xf260767018f226743049e1f617c6c9b444a845da634a4a3c59b7143a131aceca",
      "blockNumber": 95289,
      "transactionIndex": 1,
      "confirmations": null,
      "from": "0x120A270bbC009644e35F0bB6ab13f95b8199c4ad",
      "gasPrice": {
        "_hex": "0xd3f52cbbb"
      },
      "gasLimit": {
        "_hex": "0x3d090"
      },
      "to": "0xc3877edF798a7713bE2fBbB90f594797D3e8C05C",
      "value": {
        "_hex": "0x1e32bad667c37000"
      },
      "nonce": 594,
      "data": "0x",
      "r": "0x64e3ec792bf6f345ebceda835d6c084737f2609112e5b490545f21ba1dc7b5e3",
      "s": "0x454d23e5028d740cea6ecbc85d65f10e473e7ba91fef9d00733b3441f43323d3",
      "v": 27,
      "creates": null,
      "raw": "0xf86f820252850d3f52cbbb8303d09094c3877edf798a7713be2fbbb90f594797d3e8c05c881e32bad667c37000801ba064e3ec792bf6f345ebceda835d6c084737f2609112e5b490545f21ba1dc7b5e3a0454d23e5028d740cea6ecbc85d65f10e473e7ba91fef9d00733b3441f43323d3",
      "networkId": 0,
      "chainId": 0
    },
    {
      "hash": "0x22c9013dbb85ce3f417a644f5b23fa94f11f2cb3a08cf5d7928a9a185471cb26",
      "blockHash": "0xf260767018f226743049e1f617c6c9b444a845da634a4a3c59b7143a131aceca",
      "blockNumber": 95289,
      "transactionIndex": 2,
      "confirmations": null,
      "from": "0x19939AD9F09d103B670c9EE56cA41d5764380f8A",
      "gasPrice": {
        "_hex": "0xba43b7400"
      },
      "gasLimit": {
        "_hex": "0x5208"
      },
      "to": "0xC47Aaa860008be6f65B58c6C6E02a84e666EfE31",
      "value": {
        "_hex": "0x23a6be6a03bd6000"
      },
      "nonce": 3,
      "data": "0x",
      "r": "0xb86d3c6575357e823dee9f4a260533d40cb84d555263f61ab0b47372ba677c94",
      "s": "0x2a1dc0615f5a913bca309292e60695846e6910ac6042dc795974ca985b3bfe6b",
      "v": 28,
      "creates": null,
      "raw": "0xf86c03850ba43b740082520894c47aaa860008be6f65b58c6c6e02a84e666efe318823a6be6a03bd6000801ca0b86d3c6575357e823dee9f4a260533d40cb84d555263f61ab0b47372ba677c94a02a1dc0615f5a913bca309292e60695846e6910ac6042dc795974ca985b3bfe6b",
      "networkId": 0,
      "chainId": 0
    }
  ]
}