{
  "hash": "0xebf3cd98a74a41bbd410d747be7b14a041e8517f94132263b0cdf5f46479ca31",
  "parentHash": "0x788a04b0cff5e1e99058b1fe8898a365d9b0020151435abf586c466c269ca646",
  "number": 104202,
  "timestamp": 1439866044,
  "nonce": "0x2568a8aadb54f254",
  "difficulty": 4266975685290,
  "gasLimit": {
    "_hex": "0x2fefd8"
  },
  "gasUsed": {
    "_hex": "0x5208"
  },
  "miner": "0xe6A7a1d47ff21B6321162AEA7C6CB457D5476Bca",
  "extraData": "0x476574682f76312e302e312d38326566323666362f6c696e75782f676f312e34",
  "transactions": [
    {
      "hash": "0xe2902bd6114cbc953edd8e24ece65b632303098948fe62e7cc2c0cda90ba1b8b",
      "blockHash": "0xebf3cd98a74a41bbd410d747be7b14a041e8517f94132263b0cdf5f46479ca31",
      "blockNumber": 104202,
      "transactionIndex": 0,
      "confirmations": null,
      "from": "0x9Fa9952255B2b06639A04D63804d4BdFFf6E2d7e",
      "gasPrice": {
        "_hex": "0xdf3941690"
      },
      "gasLimit": {
        "_hex": "0x15f90"
      },
      "to": "0xE12517204a15E890f12755207271102F4800A0c4",
      "value": {
        "_hex": "0x2b5e3af16b1880000"
      },
      "nonce": 16,
      "data": "0x",
      "r": "0x2856f0dea719e7188ebe06d50768bd818d8935689b98772ab590d594be786349",
      "s": "0x0f4083d4752e0b4cabf52626ac23775509a314b1d2a51c6bea4046e0b726a941",
      "v": 28,
      "creates": null,
      "raw": "0xf86e10850df394169083015f9094e12517204a15e890f12755207271102f4800a0c48902b5e3af16b1880000801ca02856f0dea719e7188ebe06d50768bd818d8935689b98772ab590d594be786349a00f4083d4752e0b4cabf52626ac23775509a314b1d2a51c6bea4046e0b726a941",
      "networkId": 0,
      "chainId": 0
    }
  ]
}