{
  "hash": "0xb0f5e6ecdfd5dc68c1b0cfb9e52ae40fff15aeb7271bc1231057bf8b81855353",
  "parentHash": "0x64cd70ac435463fe2e93a99f4de32c2957415bada691fab5aa65ba9a0433df28",
  "number": 75457,
  "timestamp": 1439403740,
  "nonce": "0x003b9f0c64c4402a",
  "difficulty": 2205066585780,
  "gasLimit": {
    "_hex": "0x2fefd5"
  },
  "gasUsed": {
    "_hex": "0x5208"
  },
  "miner": "0xf8E0CA3Ed80bd541b94BEdCf259e8CF2141A9523",
  "extraData": "0x476574682f76312e302e312f77696e646f77732f676f312e342e32",
  "transactions": [
    {
      "hash": "0x32fe400051c53709e90eeff989891825e5c307283328ad675ed45d3f99775c33",
      "blockHash": "0xb0f5e6ecdfd5dc68c1b0cfb9e52ae40fff15aeb7271bc1231057bf8b81855353",
      "blockNumber": 75457,
      "transactionIndex": 0,
      "confirmations": null,
      "from": "0x9E0Afd592B1e40BEe26816E360f02eebF04aD74B",
      "gasPrice": {
        "_hex": "0xdf8475800"
      },
      "gasLimit": {
        "_hex": "0x5208"
      },
      "to": "0x81c039692a575005F2f5F26C6F69DbA26a8F6408",
      "value": {
        "_hex": "0x1158e460913d00000"
      },
      "nonce": 4,
      "data": "0x",
      "r": "0x7f162eb0fa3115c10dfbb0e301ffc1feca0c4b294362fc4ed0d893ed1dfd7f38",
      "s": "0x1c66f194cb3a47051bd41cd815f5c2adea544f11f517a31fc7f338fd2348d3e8",
      "v": 27,
      "creates": null,
      "raw": "0xf86d04850df84758008252089481c039692a575005f2f5f26c6f69dba26a8f64088901158e460913d00000801ba07f162eb0fa3115c10dfbb0e301ffc1feca0c4b294362fc4ed0d893ed1dfd7f38a01c66f194cb3a47051bd41cd815f5c2adea544f11f517a31fc7f338fd2348d3e8",
      "networkId": 0,
      "chainId": 0
    }
  ]
}