{
  "hash": "0xf2dddd591d3d9866249f04974ad04ea67939dfc740e95f24c8b6bfa45a01409f",
  "parentHash": "0x5a8847b71756a7daf24148d87c0068cf52bc3573cd41061c82ec9ba79adce3c0",
  "number": 112653,
  "timestamp": 1440010819,
  "nonce": "0x0dc8babdca1ee938",
  "difficulty": 4425996838321,
  "gasLimit": {
    "_hex": "0x2fefd8"
  },
  "gasUsed": {
    "_hex": "0x5208"
  },
  "miner": "0xbb7B8287f3F0a933474a79eAe42CBCa977791171",
  "extraData": "0x476574682f4c5649562f76312e302e312f6c696e75782f676f312e342e32",
  "transactions": [
    {
      "hash": "0x5df1ae69383056829eb79189bccfbe80397f80b6ccfe3357a702009bc5adcfcf",
      "blockHash": "0xf2dddd591d3d9866249f04974ad04ea67939dfc740e95f24c8b6bfa45a01409f",
      "blockNumber": 112653,
      "transactionIndex": 0,
      "confirmations": null,
      "from": "0x4AC5223Dd6a8E0a7500086541bb69a066De729BF",
      "gasPrice": {
        "_hex": "0xba43b7400"
      },
      "gasLimit": {
        "_hex": "0x5208"
      },
      "to": "0xC47Aaa860008be6f65B58c6C6E02a84e666EfE31",
      "value": {
        "_hex": "0x7626dd3f68b6f400"
      },
      "nonce": 1,
      "data": "0x",
      "r": "0xf4163ef30a533d28665a87c65d6b7ecbb0e09ddda018ecbeb6c1f2286f71bd09",
      "s": "0x1d2075527698cebd33f102a54d578ae00f5fe01bde30f4d614f4007a6af1b5ae",
      "v": 27,
      "creates": null,
      "raw": "0xf86c01850ba43b740082520894c47aaa860008be6f65b58c6c6e02a84e666efe31887626dd3f68b6f400801ba0f4163ef30a533d28665a87c65d6b7ecbb0e09ddda018ecbeb6c1f2286f71bd09a01d2075527698cebd33f102a54d578ae00f5fe01bde30f4d614f4007a6af1b5ae",
      "networkId": 0,
      "chainId": 0
    }
  ]
}