{
  "hash": "0x52889394c533a8cf49fa4ba7804c48862782736efa8ca204fe63de7a340bd32c",
  "parentHash": "0x62992095333fde0d8ae9cedb8ab24faefd9b59084279cd63f666e044493521e8",
  "number": 106406,
  "timestamp": 1439903640,
  "nonce": "0xc809b2c58392ca56",
  "difficulty": 4496849083054,
  "gasLimit": {
    "_hex": "0x2fefd8"
  },
  "gasUsed": {
    "_hex": "0x1b497"
  },
  "miner": "0xe6A7a1d47ff21B6321162AEA7C6CB457D5476Bca",
  "extraData": "0x476574682f76312e302e312d38326566323666362f6c696e75782f676f312e34",
  "transactions": [
    {
      "hash": "0x0a251ec0f055f4f3c5ff8813975fe1db02c93b48c6a1c0a8b12d75f15f7d7c37",
      "blockHash": "0x52889394c533a8cf49fa4ba7804c48862782736efa8ca204fe63de7a340bd32c",
      "blockNumber": 106406,
      "transactionIndex": 0,
      "confirmations": null,
      "from": "0x87C5B5874A18B4306DF8a752a6C8cc3E82daFc19",
      "gasPrice": {
        "_hex": "0x119c07dfae9"
      },
      "gasLimit": {
        "_hex": "0x493e0"
      },
      "to": "0xD79B4C6791784184e2755B2fC1659eaaB0f80456",
      "value": {
        "_hex": "0xf986935130628e7"
      },
      "nonce": 350,
      "data": "0x8d2161860000000000000000000000000000000000000000000000000000000000000007d3d96ceed0cfca4794c2a5a3d3aeefe69da0a2a669e66a5651f30b64831c3db0",
      "r": "0x05f615d4c466744655f4a9e769ca60c5040f050dac5fcc078a9e2ed0a52b6543",
      "s": "0x04566efddacb1feba745900d97f6bf1f40497548d49df1a8f596ba429a12fd40",
      "v": 28,
      "creates": null,
      "raw": "0xf8b582015e860119c07dfae9830493e094d79b4c6791784184e2755b2fc1659eaab0f80456880f986935130628e7b8448d2161860000000000000000000000000000000000000000000000000000000000000007d3d96ceed0cfca4794c2a5a3d3aeefe69da0a2a669e66a5651f30b64831c3db01ca005f615d4c466744655f4a9e769ca60c5040f050dac5fcc078a9e2ed0a52b6543a004566efddacb1feba745900d97f6bf1f40497548d49df1a8f596ba429a12fd40",
      "networkId": 0,
      "chainId": 0
    }
  ]
}