{
  "hash": "0x5aae898e521fc9266c08525e3295600d3725a1f2264594df3e9d7ba99a0f42ea",
  "parentHash": "0x919fd4ac57ecfca876fa02f51562b49d2bc3237cb4a717c7f4c99d6eedcf33de",
  "number": 46649,
  "timestamp": 1438926840,
  "nonce": "0xca920248dd51cd69",
  "difficulty": 1455350175506,
  "gasLimit": {
    "_hex": "0x6e39"
  },
  "gasUsed": {
    "_hex": "0x5208"
  },
  "miner": "0xe6A7a1d47ff21B6321162AEA7C6CB457D5476Bca",
  "extraData": "0x657468706f6f6c2e6f7267",
  "transactions": [
    {
      "hash": "0x55810e46e4802d8f13c80a71d79a284030d26b98c5759e7b162c30c19e0f997d",
      "blockHash": "0x5aae898e521fc9266c08525e3295600d3725a1f2264594df3e9d7ba99a0f42ea",
      "blockNumber": 46649,
      "transactionIndex": 0,
      "confirmations": null,
      "from": "0xB0bF4A71F730782368Ef660FE6D298F432F95450",
      "gasPrice": {
        "_hex": "0xdd4806bd5"
      },
      "gasLimit": {
        "_hex": "0x5208"
      },
      "to": "0x32Be343B94f860124dC4fEe278FDCBD38C102D88",
      "value": {
        "_hex": "0x46791b4ecbd5b80000"
      },
      "nonce": 0,
      "data": "0x",
      "r": "0xa7e355ce4f83e231c7e2073c6e2d74f3805662911443491252a88e0a2c81391c",
      "s": "0x26a57d7b93a7bb7f64f828735e48020f8261a610f5976fd4d7e5d63d98570324",
      "v": 28,
      "creates": null,
      "raw": "0xf86d80850dd4806bd58252089432be343b94f860124dc4fee278fdcbd38c102d888946791b4ecbd5b80000801ca0a7e355ce4f83e231c7e2073c6e2d74f3805662911443491252a88e0a2c81391ca026a57d7b93a7bb7f64f828735e48020f8261a610f5976fd4d7e5d63d98570324",
      "networkId": 0,
      "chainId": 0
    }
  ]
}