{
  "hash": "0xc5539c44495ebf56826a247ee32fc2f5d7adc6ea2884081f675ca3266fdfdbf5",
  "parentHash": "0xb323652942f4d59ded48bfc54c53ddae9f88cc58244cc367078d6f9f8cb5cb18",
  "number": 110449,
  "timestamp": 1439973977,
  "nonce": "0xc06f7e66d41824e4",
  "difficulty": 4375581886800,
  "gasLimit": {
    "_hex": "0x2fefd8"
  },
  "gasUsed": {
    "_hex": "0x5208"
  },
  "miner": "0xeB1325C8D9d3ea8D74aC11F4B00F1B2367686319",
  "extraData": "0x",
  "transactions": [
    {
      "hash": "0x1f48ff51fc255c82059ecf14240ce5e9e527a8f83249ff1d80b5869e36a099c1",
      "blockHash": "0xc5539c44495ebf56826a247ee32fc2f5d7adc6ea2884081f675ca3266fdfdbf5",
      "blockNumber": 110449,
      "transactionIndex": 0,
      "confirmations": null,
      "from": "0x3668a45E28EDD089fcBe31209de076cef5F06501",
      "gasPrice": {
        "_hex": "0xdd23b234e"
      },
      "gasLimit": {
        "_hex": "0x5208"
      },
      "to": "0x32Be343B94f860124dC4fEe278FDCBD38C102D88",
      "value": {
        "_hex": "0x1b1adcdb9d9c5c0000"
      },
      "nonce": 2,
      "data": "0x",
      "r": "0x9db8c40816c45fd98ed745024743283e349de86dacf95e270ed932b1c747fa34",
      "s": "0x2bbddc3f2514cf419ab8f56d23520009258cb293e74e2fee83fc7a043a64b1d2",
      "v": 28,
      "creates": null,
      "raw": "0xf86d02850dd23b234e8252089432be343b94f860124dc4fee278fdcbd38c102d88891b1adcdb9d9c5c0000801ca09db8c40816c45fd98ed745024743283e349de86dacf95e270ed932b1c747fa34a02bbddc3f2514cf419ab8f56d23520009258cb293e74e2fee83fc7a043a64b1d2",
      "networkId": 0,
      "chainId": 0
    }
  ]
}