{
  "hash": "0xbdfda6b8de005be3cecf2286383ed1ef950cb0567ac70ff1b712695177fa8265",
  "parentHash": "0x8b019dfb0f561e192e95cc0f4d637971bc344c11b89fbfaff0965d769ae71470",
  "number": 109262,
  "timestamp": 1439953619,
  "nonce": "0x02a648fbf694b57c",
  "difficulty": 4455981820286,
  "gasLimit": {
    "_hex": "0x2fefd8"
  },
  "gasUsed": {
    "_hex": "0x5208"
  },
  "miner": "0x580992B51e3925e23280EfB93d3047C82f17E038",
  "extraData": "0x476574682f76312e302e312f6c696e75782f676f312e342e32",
  "transactions": [
    {
      "hash": "0x88304ea311b3c7ce3d65bd4481eab6d4a33036e850055552d4593a4833b839a5",
      "blockHash": "0xbdfda6b8de005be3cecf2286383ed1ef950cb0567ac70ff1b712695177fa8265",
      "blockNumber": 109262,
      "transactionIndex": 0,
      "confirmations": null,
      "from": "0x007f7f58D3eb5b7510A301eCC749FC1fCDDBE14D",
      "gasPrice": {
        "_hex": "0xd382b0b9c"
      },
      "gasLimit": {
        "_hex": "0x15f90"
      },
      "to": "0xb1abce2918E21ddb93AA452731a12672A3d9F75a",
      "value": {
        "_hex": "0x4563918244f40000"
      },
      "nonce": 263,
      "data": "0x",
      "r": "0xf60a4cd29c7c4d0c74abe5968f396ca9b01038f88f23362f0867bd1497f94797",
      "s": "0x469301edba8ac0b52ba39fda70e715bbc9b0cb37a7502ba764b9946497e3215a",
      "v": 28,
      "creates": null,
      "raw": "0xf86f820107850d382b0b9c83015f9094b1abce2918e21ddb93aa452731a12672a3d9f75a884563918244f40000801ca0f60a4cd29c7c4d0c74abe5968f396ca9b01038f88f23362f0867bd1497f94797a0469301edba8ac0b52ba39fda70e715bbc9b0cb37a7502ba764b9946497e3215a",
      "networkId": 0,
      "chainId": 0
    }
  ]
}