{
  "hash": "0x4013fc12ee6aaaeb04616b87297fcd7ca69b6705c1b23f1415715fa7457c3c08",
  "parentHash": "0x35ae084786aa7589a366b797bac81b39d4a0aa9db0dc7f1ac76b36e9418a8ad0",
  "number": 94237,
  "timestamp": 1439704871,
  "nonce": "0x7f9d0ecb3669c64e",
  "difficulty": 3468066091722,
  "gasLimit": {
    "_hex": "0x2fefd8"
  },
  "gasUsed": {
    "_hex": "0xa410"
  },
  "miner": "0xDFAEf2eeE901dde3f2f790b3D81c491D2EeEaeB4",
  "extraData": "0xd983010001844765746887676f312e342e328777696e646f7773",
  "transactions": [
    {
      "hash": "0x59bffbe7ecb6b346434c5c2e5e41b0f4fbcfb12967e1dc7ea1e9ce4bf11a6bc3",
      "blockHash": "0x4013fc12ee6aaaeb04616b87297fcd7ca69b6705c1b23f1415715fa7457c3c08",
      "blockNumber": 94237,
      "transactionIndex": 0,
      "confirmations": null,
      "from": "0xb1abce2918E21ddb93AA452731a12672A3d9F75a",
      "gasPrice": {
        "_hex": "0xd204e565d"
      },
      "gasLimit": {
        "_hex": "0x5208"
      },
      "to": "0x32Be343B94f860124dC4fEe278FDCBD38C102D88",
      "value": {
        "_hex": "0x455f5cbfbdf50400"
      },
      "nonce": 16,
      "data": "0x",
      "r": "0x8a6335ee5ac5ed110f7d9fe3fd18e3239598848b0bc0866d8b53168318b3ed8c",
      "s": "0x239f02ef9b752dd7dde770b0d19d6a67fef3d9e6c4670357c6f7d7fe517c9168",
      "v": 27,
      "creates": null,
      "raw": "0xf86c10850d204e565d8252089432be343b94f860124dc4fee278fdcbd38c102d8888455f5cbfbdf50400801ba08a6335ee5ac5ed110f7d9fe3fd18e3239598848b0bc0866d8b53168318b3ed8ca0239f02ef9b752dd7dde770b0d19d6a67fef3d9e6c4670357c6f7d7fe517c9168",
      "networkId": 0,
      "chainId": 0
    },
    {
      "hash": "0x684fededf2ef8c88e23d94a9af739e9f30a8513ba06dc2d8dbb65148c56a84d5",
      "blockHash": "0x4013fc12ee6aaaeb04616b87297fcd7ca69b6705c1b23f1415715fa7457c3c08",
      "blockNumber": 94237,
      "transactionIndex": 1,
      "confirmations": null,
      "from": "0xa6BDc31c431B8F97848c9D60cbbe9660dc450eB7",
      "gasPrice": {
        "_hex": "0xd204e565d"
      },
      "gasLimit": {
        "_hex": "0x5208"
      },
      "to": "0x32Be343B94f860124dC4fEe278FDCBD38C102D88",
      "value": {
        "_hex": "0x455f5286b9bff400"
      },
      "nonce": 107,
      "data": "0x",
      "r": "0x47942b6c0ea94307128a8025b8126c11291bf9ac4c52c1762507e1cc9c73ee7e",
      "s": "0x7ca7aeb1550f99d3c0ee944ddea51d53efa6fa5eec7a6f543230bd1f1093c970",
      "v": 27,
      "creates": null,
      "raw": "0xf86c6b850d204e565d8252089432be343b94f860124dc4fee278fdcbd38c102d8888455f5286b9bff400801ba047942b6c0ea94307128a8025b8126c11291bf9ac4c52c1762507e1cc9c73ee7ea07ca7aeb1550f99d3c0ee944ddea51d53efa6fa5eec7a6f543230bd1f1093c970",
      "networkId": 0,
      "chainId": 0
    }
  ]
}