{
  "hash": "0x78c9110aa41e73d20f50d21e98e877ab75ab36702302e1679d3ecb8aaebf4d87",
  "parentHash": "0x310121c929dbb18bbff31a7462924ab1d1d83c51a50ce7dbca9e0a06bbf39ec4",
  "number": 64979,
  "timestamp": 1439229414,
  "nonce": "0x40ef54a4759c0510",
  "difficulty": 1910711182730,
  "gasLimit": {
    "_hex": "0x2fefd8"
  },
  "gasUsed": {
    "_hex": "0xa410"
  },
  "miner": "0x88D74a59454F6cF3B51ef6b9136AFb6b9D405A88",
  "extraData": "0x476574682f76312e302e312d38326566323666362f6c696e75782f676f312e34",
  "transactions": [
    {
      "hash": "0xad1411b20bce9ecf9efc277337ab3c57fa54270b80ff4abc53a7ba1fff0946ef",
      "blockHash": "0x78c9110aa41e73d20f50d21e98e877ab75ab36702302e1679d3ecb8aaebf4d87",
      "blockNumber": 64979,
      "transactionIndex": 0,
      "confirmations": null,
      "from": "0xF084eAbAFbDEc8489139e086dA1E50930C670873",
      "gasPrice": {
        "_hex": "0xba43b7400"
      },
      "gasLimit": {
        "_hex": "0x5208"
      },
      "to": "0x99B403fACa38461FC2E69f24e935654958287B06",
      "value": {
        "_hex": "0x1d7684e6875b000"
      },
      "nonce": 1,
      "data": "0x",
      "r": "0x640c51f0c26a97d133b9af0a21fa6566589975a1075562ce3e1ab9554e847796",
      "s": "0x0ba54b7c3514acdbf4344f6b1f07348c3ab1be449b525f6288580c1e28834673",
      "v": 27,
      "creates": null,
      "raw": "0xf86c01850ba43b74008252089499b403faca38461fc2e69f24e935654958287b068801d7684e6875b000801ba0640c51f0c26a97d133b9af0a21fa6566589975a1075562ce3e1ab9554e847796a00ba54b7c3514acdbf4344f6b1f07348c3ab1be449b525f6288580c1e28834673",
      "networkId": 0,
      "chainId": 0
    },
    {
      "hash": "0xfb4b0967ac3e7e9ee8f2bff282847483e295c1ddd7005d932806242a0ab7fce6",
      "blockHash": "0x78c9110aa41e73d20f50d21e98e877ab75ab36702302e1679d3ecb8aaebf4d87",
      "blockNumber": 64979,
      "transactionIndex": 1,
      "confirmations": null,
      "from": "0x96E80964D3a8579bB8ddadA6293F61eC08470F75",
      "gasPrice": {
        "_hex": "0xba43b7400"
      },
      "gasLimit": {
        "_hex": "0x5208"
      },
      "to": "0xAeA19377dE256B89aBad1080340d280d7608Cedb",
      "value": {
        "_hex": "0x233f501ceb77000"
      },
      "nonce": 1,
      "data": "0x",
      "r": "0x66e0ae067c8071a24b0b2e03dfdb2e1911a41305483c250adb68803c23051529",
      "s": "0x7c4b656686ac54f35a1351a8a93ce80abf14ca5ca9dac53443e9dc1fe8144dc8",
      "v": 27,
      "creates": null,
      "raw": "0xf86c01850ba43b740082520894aea19377de256b89abad1080340d280d7608cedb880233f501ceb77000801ba066e0ae067c8071a24b0b2e03dfdb2e1911a41305483c250adb68803c23051529a07c4b656686ac54f35a1351a8a93ce80abf14ca5ca9dac53443e9dc1fe8144dc8",
      "networkId": 0,
      "chainId": 0
    }
  ]
}