{
  "hash": "0x0acc05322788c8f919a732f2ce9d678c18b0d67595971a12945b0fc198b29515",
  "parentHash": "0x741b48e85f7a90e2b2c42ef86eea3811e2fc320c1fb13fec9f40c8caaca89b9e",
  "number": 107520,
  "timestamp": 1439923812,
  "nonce": "0x3a1fc33c8cf453f4",
  "difficulty": 4430868922836,
  "gasLimit": {
    "_hex": "0x2fefd8"
  },
  "gasUsed": {
    "_hex": "0x5208"
  },
  "miner": "0xe6A7a1d47ff21B6321162AEA7C6CB457D5476Bca",
  "extraData": "0x476574682f76312e302e312d38326566323666362f6c696e75782f676f312e34",
  "transactions": [
    {
      "hash": "0x5d3687294adc99b0e0cafd5601597b663f3682c4a56517e0a6908fd9c016eb4e",
      "blockHash": "0x0acc05322788c8f919a732f2ce9d678c18b0d67595971a12945b0fc198b29515",
      "blockNumber": 107520,
      "transactionIndex": 0,
      "confirmations": null,
      "from": "0x120A270bbC009644e35F0bB6ab13f95b8199c4ad",
      "gasPrice": {
        "_hex": "0xce12619bc"
      },
      "gasLimit": {
        "_hex": "0x3d090"
      },
      "to": "0xF7d656314a325997c2adD0c4A788975eFbdDF659",
      "value": {
        "_hex": "0x1d4610bd237e5000"
      },
      "nonce": 809,
      "data": "0x",
      "r": "0x2c909c9b610e853cc7bd3983083fff30651498bef28051a30c109a953dcbd30d",
      "s": "0x0e827d6dab9f9fd245c5fc95f9ad6a73e45a86a3b3c6c7f4c582c856de40725e",
      "v": 28,
      "creates": null,
      "raw": "0xf86f820329850ce12619bc8303d09094f7d656314a325997c2add0c4a788975efbddf659881d4610bd237e5000801ca02c909c9b610e853cc7bd3983083fff30651498bef28051a30c109a953dcbd30da00e827d6dab9f9fd245c5fc95f9ad6a73e45a86a3b3c6c7f4c582c856de40725e",
      "networkId": 0,
      "chainId": 0
    }
  ]
}