{
  "hash": "0x888430926cd5b05ec7502dd4284ab45f88bc294f51d229a54274267f8f411f2c",
  "parentHash": "0xefdefbad54c2566d9eb86937acde5739f75cb5215915fac7de0b1a9e67a6f3d9",
  "number": 112394,
  "timestamp": 1440006801,
  "nonce": "0x6b502733a85521ec",
  "difficulty": 4406725386521,
  "gasLimit": {
    "_hex": "0x2fefd8"
  },
  "gasUsed": {
    "_hex": "0x546c"
  },
  "miner": "0xe6A7a1d47ff21B6321162AEA7C6CB457D5476Bca",
  "extraData": "0x476574682f76312e302e312d38326566323666362f6c696e75782f676f312e34",
  "transactions": [
    {
      "hash": "0x0ade821122982de5627215e73d6f1c7523a5af9daab63c4a1d3f38c3b1692b27",
      "blockHash": "0x888430926cd5b05ec7502dd4284ab45f88bc294f51d229a54274267f8f411f2c",
      "blockNumber": 112394,
      "transactionIndex": 0,
      "confirmations": null,
      "from": "0xffBC3DA0381Ec339C1C049eb1Ed9ee34fDCea6ca",
      "gasPrice": {
        "_hex": "0xd1edc7923"
      },
      "gasLimit": {
        "_hex": "0x55f0"
      },
      "to": "0x2910543Af39abA0Cd09dBb2D50200b3E800A63D2",
      "value": {
        "_hex": "0x3076be07628f380000"
      },
      "nonce": 7,
      "data": "0x454e4d453338544b38",
      "r": "0xea306e528041ae2d3de6b3036c55ae7164970b90991cc7e19a3c312f9374b395",
      "s": "0x22a98f6f6a78d78c5bae50423441caeaf725ff83bfc73769eb7f8a00b2b42459",
      "v": 28,
      "creates": null,
      "raw": "0xf87607850d1edc79238255f0942910543af39aba0cd09dbb2d50200b3e800a63d2893076be07628f38000089454e4d453338544b381ca0ea306e528041ae2d3de6b3036c55ae7164970b90991cc7e19a3c312f9374b395a022a98f6f6a78d78c5bae50423441caeaf725ff83bfc73769eb7f8a00b2b42459",
      "networkId": 0,
      "chainId": 0
    }
  ]
}