{
  "hash": "0x51473d855b0869a18ddd047fabe5d8231e7724e9056cc0481b99f136e0c52c34",
  "parentHash": "0xc1b8db142aff6100b03269bb7e806822e25db023d8fe040f36ecf0b829b4b0fb",
  "number": 104741,
  "timestamp": 1439874647,
  "nonce": "0x6440cbe927f3ab00",
  "difficulty": 4370016720074,
  "gasLimit": {
    "_hex": "0x2fefd8"
  },
  "gasUsed": {
    "_hex": "0x5208"
  },
  "miner": "0xf927a40C8B7F6E07c5af7FA2155B4864a4112B13",
  "extraData": "0x",
  "transactions": [
    {
      "hash": "0xe616184c6b1daf4be05134bf60c5f7feb50c756c955638db36f16841d999f427",
      "blockHash": "0x51473d855b0869a18ddd047fabe5d8231e7724e9056cc0481b99f136e0c52c34",
      "blockNumber": 104741,
      "transactionIndex": 0,
      "confirmations": null,
      "from": "0xEF247E639d49461D25F57e9362CadE3120910Ce0",
      "gasPrice": {
        "_hex": "0xdd5a646e3"
      },
      "gasLimit": {
        "_hex": "0x15f90"
      },
      "to": "0xF87481A262E993a75F791E7859E71BaC36A606Eb",
      "value": {
        "_hex": "0x29a2241af62c00000"
      },
      "nonce": 39,
      "data": "0x",
      "r": "0xa795f4a4c88ff05218b92b0dbcdf75d895a265bf2d1436dc7afdeaee601bf4b1",
      "s": "0x6e3418ccda8f6b298c58327535a41c52f328519034dcc3b4e363acf2b1261a9a",
      "v": 27,
      "creates": null,
      "raw": "0xf86e27850dd5a646e383015f9094f87481a262e993a75f791e7859e71bac36a606eb89029a2241af62c00000801ba0a795f4a4c88ff05218b92b0dbcdf75d895a265bf2d1436dc7afdeaee601bf4b1a06e3418ccda8f6b298c58327535a41c52f328519034dcc3b4e363acf2b1261a9a",
      "networkId": 0,
      "chainId": 0
    }
  ]
}