{
  "hash": "0x867c01978714041e4141cb5501ced2dfb04d4ebf348799730b9fb344e515bf79",
  "parentHash": "0x7c96c721fbfc849fc5b935736ac98ff358dde2b6a1f2f2dfec7ae4b52700304b",
  "number": 113406,
  "timestamp": 1440022983,
  "nonce": "0x7027fedbaa61b3f6",
  "difficulty": 4466848414018,
  "gasLimit": {
    "_hex": "0x2fefd8"
  },
  "gasUsed": {
    "_hex": "0xf618"
  },
  "miner": "0xbb7B8287f3F0a933474a79eAe42CBCa977791171",
  "extraData": "0x476574682f4c5649562f76312e302e312f6c696e75782f676f312e342e32",
  "transactions": [
    {
      "hash": "0xaed2e49447e239de83fde7da4715b0ef7be36c18ac93437a29ccebecec839c9c",
      "blockHash": "0x867c01978714041e4141cb5501ced2dfb04d4ebf348799730b9fb344e515bf79",
      "blockNumber": 113406,
      "transactionIndex": 0,
      "confirmations": null,
      "from": "0x787F9C02fc5F4970ae51F2B5f7B4ee7c22B875B6",
      "gasPrice": {
        "_hex": "0xd961873cb"
      },
      "gasLimit": {
        "_hex": "0x5208"
      },
      "to": "0x32Be343B94f860124dC4fEe278FDCBD38C102D88",
      "value": {
        "_hex": "0x503ac2e4e2fcc00"
      },
      "nonce": 2,
      "data": "0x",
      "r": "0x5ac30a7ea2b2a7973706ed4dd504c235918f4bd5185f99b08dbb3becad558385",
      "s": "0x55ccf8d1f0a8a0ae353162f30e5016da5f8d076dfbbd4e211f00ffa20120a1f2",
      "v": 28,
      "creates": null,
      "raw": "0xf86c02850d961873cb8252089432be343b94f860124dc4fee278fdcbd38c102d88880503ac2e4e2fcc00801ca05ac30a7ea2b2a7973706ed4dd504c235918f4bd5185f99b08dbb3becad558385a055ccf8d1f0a8a0ae353162f30e5016da5f8d076dfbbd4e211f00ffa20120a1f2",
      "networkId": 0,
      "chainId": 0
    },
    {
      "hash": "0x7c9f10aec2230a8a72841143297e0839a760c4fa652ec3078f7b9a7daae08804",
      "blockHash": "0x867c01978714041e4141cb5501ced2dfb04d4ebf348799730b9fb344e515bf79",
      "blockNumber": 113406,
      "transactionIndex": 1,
      "confirmations": null,
      "from": "0x3c2d298f2Ecb86371A124a58501d6DAd585868F9",
      "gasPrice": {
        "_hex": "0xd961873cb"
      },
      "gasLimit": {
        "_hex": "0x5208"
      },
      "to": "0x32Be343B94f860124dC4fEe278FDCBD38C102D88",
      "value": {
        "_hex": "0x1b1a308f323f5800"
      },
      "nonce": 0,
      "data": "0x",
      "r": "0xfd7b534b76777a716eda2f0fedca6d9b45440eb55541e4f35b6c9de6d2f05cc2",
      "s": "0x5d7cb46d17d6286dc81deb8d926e29c71fc830b41a169f4c87c99b51fa66ca80",
      "v": 27,
      "creates": null,
      "raw": "0xf86c80850d961873cb8252089432be343b94f860124dc4fee278fdcbd38c102d88881b1a308f323f5800801ba0fd7b534b76777a716eda2f0fedca6d9b45440eb55541e4f35b6c9de6d2f05cc2a05d7cb46d17d6286dc81deb8d926e29c71fc830b41a169f4c87c99b51fa66ca80",
      "networkId": 0,
      "chainId": 0
    },
    {
      "hash": "0xc0913b530af26996fae153b90a4a4449f926ff18fe5631f400c719a971920d6a",
      "blockHash": "0x867c01978714041e4141cb5501ced2dfb04d4ebf348799730b9fb344e515bf79",
      "blockNumber": 113406,
      "transactionIndex": 2,
      "confirmations": null,
      "from": "0xc517a1ceF7630dc7FeBd59e9f7fb80F56EaCB21E",
      "gasPrice": {
        "_hex": "0xd961873cb"
      },
      "gasLimit": {
        "_hex": "0x5208"
      },
      "to": "0x32Be343B94f860124dC4fEe278FDCBD38C102D88",
      "value": {
        "_hex": "0x157f0aa3fb4092000"
      },
      "nonce": 3,
      "data": "0x",
      "r": "0xd23a42f0c4749a4fab9f28c371abf4e9d35d0a80ad3451b5313f1ea96e03c003",
      "s": "0x4d7862ec2577ab8f67d38d3df07667f65307e2904ddc8d786ec37be8ecbf9a8b",
      "v": 28,
      "creates": null,
      "raw": "0xf86d03850d961873cb8252089432be343b94f860124dc4fee278fdcbd38c102d88890157f0aa3fb4092000801ca0d23a42f0c4749a4fab9f28c371abf4e9d35d0a80ad3451b5313f1ea96e03c003a04d7862ec2577ab8f67d38d3df07667f65307e2904ddc8d786ec37be8ecbf9a8b",
      "networkId": 0,
      "chainId": 0
    }
  ]
}