{
  "hash": "0xa6b381bfcbc6e5d0b62dd7e703c24d4a84e836ced7181848baa2ad0a61ae8d77",
  "parentHash": "0xf2d374e818faf1fc37cf9c899a8eaceb982f03ebdb8b4df4a3af86f3d88d8291",
  "number": 51378,
  "timestamp": 1439003847,
  "nonce": "0xe79d5797fb30303d",
  "difficulty": 1567355553573,
  "gasLimit": {
    "_hex": "0xa9e9e"
  },
  "gasUsed": {
    "_hex": "0x30d40"
  },
  "miner": "0xf927a40C8B7F6E07c5af7FA2155B4864a4112B13",
  "extraData": "0x476574682f76312e302e312f6c696e75782f676f312e342e32",
  "transactions": [
    {
      "hash": "0xad4bad3ad73f79b8060b9f2cef14f44f58a4c65f740a7d0df7bbce0819089ac5",
      "blockHash": "0xa6b381bfcbc6e5d0b62dd7e703c24d4a84e836ced7181848baa2ad0a61ae8d77",
      "blockNumber": 51378,
      "transactionIndex": 0,
      "confirmations": null,
      "from": "0xf88a65846C19D8fc76fFf545fEAa7bbc7114F667",
      "gasPrice": {
        "_hex": "0xd7594e8dd"
      },
      "gasLimit": {
        "_hex": "0x30d40"
      },
      "to": "0x109C4f2CCc82C4d77Bde15F306707320294Aea3F",
      "value": {
        "_hex": "0xde0b6b3a7640000"
      },
      "nonce": 11,
      "data": "0x",
      "r": "0xc20717461f5fd5e33c05678fb0deae4b294c5244624c26f01930034f280095e6",
      "s": "0x4cb82d2d8cf68338ba573121e73c37a10ffd275c9b3f3b39850296a111fdb561",
      "v": 28,
      "creates": null,
      "raw": "0xf86d0b850d7594e8dd83030d4094109c4f2ccc82c4d77bde15f306707320294aea3f880de0b6b3a7640000801ca0c20717461f5fd5e33c05678fb0deae4b294c5244624c26f01930034f280095e6a04cb82d2d8cf68338ba573121e73c37a10ffd275c9b3f3b39850296a111fdb561",
      "networkId": 0,
      "chainId": 0
    }
  ]
}