{
  "hash": "0x3ec5f08d0426c73fa70a5fd2e00eea2d754ffc65a609a195f6e5739fcaed2cba",
  "parentHash": "0xc91bb28852b03d0fc67b3fa9475c4aef289d8964a066d110ec54771990c83723",
  "number": 68656,
  "timestamp": 1439291439,
  "nonce": "0x60c4e38b9698d029",
  "difficulty": 2020185896839,
  "gasLimit": {
    "_hex": "0x2fefd8"
  },
  "gasUsed": {
    "_hex": "0x3b81c"
  },
  "miner": "0x9746c7e1ef2bd21FF3997fa467593a89cb852BD0",
  "extraData": "0x476574682f76312e302e312f77696e646f77732f676f312e342e32",
  "transactions": [
    {
      "hash": "0x670520cfb8d8b6bd4795dd5bb56915adbad019e18c1644ef1f7e9dd4badbcde9",
      "blockHash": "0x3ec5f08d0426c73fa70a5fd2e00eea2d754ffc65a609a195f6e5739fcaed2cba",
      "blockNumber": 68656,
      "transactionIndex": 0,
      "confirmations": null,
      "from": "0x24203d894FB34d38efddB120928CeEd17D3d6573",
      "gasPrice": {
        "_hex": "0xba43b7400"
      },
      "gasLimit": {
        "_hex": "0x15f90"
      },
      "to": "0x793AE8C1b1a160BFc07BFB0d04F85eab1A71F4f2",
      "value": {
        "_hex": "0x0"
      },
      "nonce": 0,
      "data": "0x3ba15036",
      "r": "0xc47743c5b36bf8804b2b6e0a52a974fbe1a0d121517c96668fbdf08391e57dbe",
      "s": "0x7ebd5c366fa2e1cdb9d0cfdf68514cf30ebde77343e51b43c7261c050b30f80d",
      "v": 27,
      "creates": null,
      "raw": "0xf86980850ba43b740083015f9094793ae8c1b1a160bfc07bfb0d04f85eab1a71f4f280843ba150361ba0c47743c5b36bf8804b2b6e0a52a974fbe1a0d121517c96668fbdf08391e57dbea07ebd5c366fa2e1cdb9d0cfdf68514cf30ebde77343e51b43c7261c050b30f80d",
      "networkId": 0,
      "chainId": 0
    },
    {
      "hash": "0xd9c546a5721384f3cb9a42162ca38bcf799408d2b7e436b3aee6df448593c13b",
      "blockHash": "0x3ec5f08d0426c73fa70a5fd2e00eea2d754ffc65a609a195f6e5739fcaed2cba",
      "blockNumber": 68656,
      "transactionIndex": 1,
      "confirmations": null,
      "from": "0xfA1B6D8a0B0648A91E74175d69154Ceada0f07C4",
      "gasPrice": {
        "_hex": "0xba43b7400"
      },
      "gasLimit": {
        "_hex": "0x15f90"
      },
      "to": "0x793AE8C1b1a160BFc07BFB0d04F85eab1A71F4f2",
      "value": {
        "_hex": "0x0"
      },
      "nonce": 0,
      "data": "0x3ba15036",
      "r": "0xb56bac80bed7d272720c820ae42e0b94649223de71feb51e1fbf4f02e5a11af7",
      "s": "0x5229d758125e0242b5cde0862ec7b7b1ec99b1b8c0478b42e886fe036fe8c3ea",
      "v": 28,
      "creates": null,
      "raw": "0xf86980850ba43b740083015f9094793ae8c1b1a160bfc07bfb0d04f85eab1a71f4f280843ba150361ca0b56bac80bed7d272720c820ae42e0b94649223de71feb51e1fbf4f02e5a11af7a05229d758125e0242b5cde0862ec7b7b1ec99b1b8c0478b42e886fe036fe8c3ea",
      "networkId": 0,
      "chainId": 0
    },
    {
      "hash": "0x5f9232012cfdd74b0f17dfb0217b851cb5ba286748aaf912a2a0692a55cfad78",
      "blockHash": "0x3ec5f08d0426c73fa70a5fd2e00eea2d754ffc65a609a195f6e5739fcaed2cba",
      "blockNumber": 68656,
      "transactionIndex": 2,
      "confirmations": null,
      "from": "0xf47Fb3f80B2f87Aebe94682A80A80BAA61e4cFC9",
      "gasPrice": {
        "_hex": "0xba43b7400"
      },
      "gasLimit": {
        "_hex": "0x15f90"
      },
      "to": "0x793AE8C1b1a160BFc07BFB0d04F85eab1A71F4f2",
      "value": {
        "_hex": "0x0"
      },
      "nonce": 0,
      "data": "0x3ba15036",
      "r": "0xbf032fe9eb4dc3ee1783b8d6f9b817d1ed03549bd25a917aeb5e034e23c38b31",
      "s": "0x527284de991720161c0028f763e4cb32fbca530190682bab93f717b9cf0c70f2",
      "v": 27,
      "creates": null,
      "raw": "0xf86980850ba43b740083015f9094793ae8c1b1a160bfc07bfb0d04f85eab1a71f4f280843ba150361ba0bf032fe9eb4dc3ee1783b8d6f9b817d1ed03549bd25a917aeb5e034e23c38b31a0527284de991720161c0028f763e4cb32fbca530190682bab93f717b9cf0c70f2",
      "networkId": 0,
      "chainId": 0
    },
    {
      "hash": "0x1e1acf7c6d1eaa17f3a50960739d4b8cd915ba5df9b58a6da4ee94486afd379f",
      "blockHash": "0x3ec5f08d0426c73fa70a5fd2e00eea2d754ffc65a609a195f6e5739fcaed2cba",
      "blockNumber": 68656,
      "transactionIndex": 3,
      "confirmations": null,
      "from": "0x5d331fDbC48F5e2f69c144B8AA0ff3E902b76da2",
      "gasPrice": {
        "_hex": "0xba43b7400"
      },
      "gasLimit": {
        "_hex": "0x15f90"
      },
      "to": "0x793AE8C1b1a160BFc07BFB0d04F85eab1A71F4f2",
      "value": {
        "_hex": "0x0"
      },
      "nonce": 0,
      "data": "0x3ba15036",
      "r": "0x528e3f3e7341642fca851e7890b5bf89c466e6f5d4cae35fd5c651381368c3cc",
      "s": "0x570f14227b1604e0004fbb6388bbd5975067860642a1ac98788a62ac7b9c15ab",
      "v": 27,
      "creates": null,
      "raw": "0xf86980850ba43b740083015f9094793ae8c1b1a160bfc07bfb0d04f85eab1a71f4f280843ba150361ba0528e3f3e7341642fca851e7890b5bf89c466e6f5d4cae35fd5c651381368c3cca0570f14227b1604e0004fbb6388bbd5975067860642a1ac98788a62ac7b9c15ab",
      "networkId": 0,
      "chainId": 0
    },
    {
      "hash": "0xddd1bafa383a714701c9b1e8cd91b3da48c4ead479646c9502be66d6ec386d40",
      "blockHash": "0x3ec5f08d0426c73fa70a5fd2e00eea2d754ffc65a609a195f6e5739fcaed2cba",
      "blockNumber": 68656,
      "transactionIndex": 4,
      "confirmations": null,
      "from": "0x127A702eEf1aD1918eD3f540F0452f588bC93BFE",
      "gasPrice": {
        "_hex": "0xba43b7400"
      },
      "gasLimit": {
        "_hex": "0x15f90"
      },
      "to": "0x793AE8C1b1a160BFc07BFB0d04F85eab1A71F4f2",
      "value": {
        "_hex": "0x0"
      },
      "nonce": 0,
      "data": "0x3ba15036",
      "r": "0x024131e913219a01ba0dc0da472f799f4fd98285d19d8c7afc1760032e27bd8a",
      "s": "0x643e7329e72591317930882ac524d91c5c80fbc1c7f08e0c0261ae497152c9b6",
      "v": 28,
      "creates": null,
      "raw": "0xf86980850ba43b740083015f9094793ae8c1b1a160bfc07bfb0d04f85eab1a71f4f280843ba150361ca0024131e913219a01ba0dc0da472f799f4fd98285d19d8c7afc1760032e27bd8aa0643e7329e72591317930882ac524d91c5c80fbc1c7f08e0c0261ae497152c9b6",
      "networkId": 0,
      "chainId": 0
    }
  ]
}