{
  "hash": "0xfa34673bf699690754a6b441ecc93e85e61da8b0301fcbf36766c2509e459eeb",
  "parentHash": "0x70c7d52553b4ea8c353391d345bba91de5b14b406c4fa36c6911e2524526cfd3",
  "number": 88412,
  "timestamp": 1439607617,
  "nonce": "0xe3df259fb1340adf",
  "difficulty": 3211232390156,
  "gasLimit": {
    "_hex": "0x2fefd8"
  },
  "gasUsed": {
    "_hex": "0x14820"
  },
  "miner": "0x4705E331214F54eE19677a920BeB64e5206Fd610",
  "extraData": "0x",
  "transactions": [
    {
      "hash": "0x0116d1677af6166142949ebb62bdc619c0eb2d17c2575dddf5487be3c027cb49",
      "blockHash": "0xfa34673bf699690754a6b441ecc93e85e61da8b0301fcbf36766c2509e459eeb",
      "blockNumber": 88412,
      "transactionIndex": 0,
      "confirmations": null,
      "from": "0xf2Ae859397af92154241eAd0aC7c4ce3bea76E8F",
      "gasPrice": {
        "_hex": "0xd807e2aed"
      },
      "gasLimit": {
        "_hex": "0x15f90"
      },
      "to": "0xC2B34a73703b5274E7B7ec06F35895bA696Bac3f",
      "value": {
        "_hex": "0x2386f26fc10000"
      },
      "nonce": 22,
      "data": "0x",
      "r": "0x7960f4c35c4c971fec6d6309770bcf9692f031eb71f292336c98788127a83cde",
      "s": "0x4ffb492f06ab745351f945ed30b680ff8854a6911e299494932b8f8b7b58a9ce",
      "v": 27,
      "creates": null,
      "raw": "0xf86c16850d807e2aed83015f9094c2b34a73703b5274e7b7ec06f35895ba696bac3f872386f26fc10000801ba07960f4c35c4c971fec6d6309770bcf9692f031eb71f292336c98788127a83cdea04ffb492f06ab745351f945ed30b680ff8854a6911e299494932b8f8b7b58a9ce",
      "networkId": 0,
      "chainId": 0
    },
    {
      "hash": "0x8a01764fa6091c5972fe3991c59657846349ec367e5942dfa218961c30480729",
      "blockHash": "0xfa34673bf699690754a6b441ecc93e85e61da8b0301fcbf36766c2509e459eeb",
      "blockNumber": 88412,
      "transactionIndex": 1,
      "confirmations": null,
      "from": "0xc93a69dFC0fb3E867D9207599f7fe87d51619635",
      "gasPrice": {
        "_hex": "0xba43b7400"
      },
      "gasLimit": {
        "_hex": "0x5208"
      },
      "to": "0xC47Aaa860008be6f65B58c6C6E02a84e666EfE31",
      "value": {
        "_hex": "0x45611d639b27b6000"
      },
      "nonce": 3,
      "data": "0x",
      "r": "0x4375017ebc9bf2bc682e49028a3ba2744f0a86e1d7b258dab359b2d3f91d8544",
      "s": "0x27f03bee400cb6482f8a7f68499d153d5e652f68755e9d1294253530c29258ea",
      "v": 28,
      "creates": null,
      "raw": "0xf86d03850ba43b740082520894c47aaa860008be6f65b58c6c6e02a84e666efe3189045611d639b27b6000801ca04375017ebc9bf2bc682e49028a3ba2744f0a86e1d7b258dab359b2d3f91d8544a027f03bee400cb6482f8a7f68499d153d5e652f68755e9d1294253530c29258ea",
      "networkId": 0,
      "chainId": 0
    },
    {
      "hash": "0x120bbefda1f0680e9df261ebfb79daef91e290ff9a62d4b04bbcac8cbf9f1aa1",
      "blockHash": "0xfa34673bf699690754a6b441ecc93e85e61da8b0301fcbf36766c2509e459eeb",
      "blockNumber": 88412,
      "transactionIndex": 2,
      "confirmations": null,
      "from": "0xb2169f1326FE9745321aD99563654089bAdf09eb",
      "gasPrice": {
        "_hex": "0xba43b7400"
      },
      "gasLimit": {
        "_hex": "0x5208"
      },
      "to": "0xC47Aaa860008be6f65B58c6C6E02a84e666EfE31",
      "value": {
        "_hex": "0x56bb1dfbbfe2c0710"
      },
      "nonce": 15,
      "data": "0x",
      "r": "0x910915771cd74283710cc2353ea90cbdcf181284825dc4a124f6c6c00cd74bd6",
      "s": "0x335c12fd6e1303f515425adc4c037b6a81f336432503adb818f8e2a1edb6378a",
      "v": 27,
      "creates": null,
      "raw": "0xf86d0f850ba43b740082520894c47aaa860008be6f65b58c6c6e02a84e666efe3189056bb1dfbbfe2c0710801ba0910915771cd74283710cc2353ea90cbdcf181284825dc4a124f6c6c00cd74bd6a0335c12fd6e1303f515425adc4c037b6a81f336432503adb818f8e2a1edb6378a",
      "networkId": 0,
      "chainId": 0
    },
    {
      "hash": "0xeea3fb462dad34f5df6aa7794682c876511f7a7e804abdecb08aae4568248561",
      "blockHash": "0xfa34673bf699690754a6b441ecc93e85e61da8b0301fcbf36766c2509e459eeb",
      "blockNumber": 88412,
      "transactionIndex": 3,
      "confirmations": null,
      "from": "0x2C6dA0AeEF23c6a9eA4a8f19c0810e505FDEb231",
      "gasPrice": {
        "_hex": "0xba43b7400"
      },
      "gasLimit": {
        "_hex": "0x5208"
      },
      "to": "0xC47Aaa860008be6f65B58c6C6E02a84e666EfE31",
      "value": {
        "_hex": "0xad7793de9613c0710"
      },
      "nonce": 7,
      "data": "0x",
      "r": "0xe2661a47fee278b2e541ed1571c863c56a5ec1fcbaba8dd9cd51e32251c4157b",
      "s": "0x070e1a275e77162a7b0bed3164e46055ed415ccf56e190dd7ad0a2a156082c81",
      "v": 28,
      "creates": null,
      "raw": "0xf86d07850ba43b740082520894c47aaa860008be6f65b58c6c6e02a84e666efe31890ad7793de9613c0710801ca0e2661a47fee278b2e541ed1571c863c56a5ec1fcbaba8dd9cd51e32251c4157ba0070e1a275e77162a7b0bed3164e46055ed415ccf56e190dd7ad0a2a156082c81",
      "networkId": 0,
      "chainId": 0
    }
  ]
}