{
  "hash": "0x8b7c143cac6e4b74ba00bee8aa0867a1d04326a4aa73ffd583602c4758e6843f",
  "parentHash": "0xad1d611b4d35dfe7325d34a40cd81bac15b1ecf8ff1bf8d5b0da232840fa3cc2",
  "number": 93701,
  "timestamp": 1439696385,
  "nonce": "0x32377508f9449e00",
  "difficulty": 3414516874015,
  "gasLimit": {
    "_hex": "0x2fefd8"
  },
  "gasUsed": {
    "_hex": "0xf618"
  },
  "miner": "0xe6A7a1d47ff21B6321162AEA7C6CB457D5476Bca",
  "extraData": "0x476574682f76312e302e312d38326566323666362f6c696e75782f676f312e34",
  "transactions": [
    {
      "hash": "0xd5455757fa0263eaa939b09605087e6f5fc18da05fec57196ea2e9b941803db1",
      "blockHash": "0x8b7c143cac6e4b74ba00bee8aa0867a1d04326a4aa73ffd583602c4758e6843f",
      "blockNumber": 93701,
      "transactionIndex": 0,
      "confirmations": null,
      "from": "0x86d3856ad0105B9d4199936c1fd203664BA325dC",
      "gasPrice": {
        "_hex": "0xdc33aca81"
      },
      "gasLimit": {
        "_hex": "0x5208"
      },
      "to": "0x32Be343B94f860124dC4fEe278FDCBD38C102D88",
      "value": {
        "_hex": "0x46c2788bceac2c00"
      },
      "nonce": 15,
      "data": "0x",
      "r": "0xbaee73f90b7b5c42a8cb67dd2b977e2fc586fc682dd03ea22873ff0478baea68",
      "s": "0x3769e167258d6d43841c2ec34bb7a64dda2ccd9874e379de49b1cb79f6a496a9",
      "v": 28,
      "creates": null,
      "raw": "0xf86c0f850dc33aca818252089432be343b94f860124dc4fee278fdcbd38c102d888846c2788bceac2c00801ca0baee73f90b7b5c42a8cb67dd2b977e2fc586fc682dd03ea22873ff0478baea68a03769e167258d6d43841c2ec34bb7a64dda2ccd9874e379de49b1cb79f6a496a9",
      "networkId": 0,
      "chainId": 0
    },
    {
      "hash": "0x52be0be54499789e04e68355e2363b23e0cefa7715bd4550de752cb55322449b",
      "blockHash": "0x8b7c143cac6e4b74ba00bee8aa0867a1d04326a4aa73ffd583602c4758e6843f",
      "blockNumber": 93701,
      "transactionIndex": 1,
      "confirmations": null,
      "from": "0xa70a9a7040d542C632D8e0bE7c5513A8a5Bbc752",
      "gasPrice": {
        "_hex": "0xdc33aca81"
      },
      "gasLimit": {
        "_hex": "0x5208"
      },
      "to": "0x32Be343B94f860124dC4fEe278FDCBD38C102D88",
      "value": {
        "_hex": "0x45638eb07e8de800"
      },
      "nonce": 138,
      "data": "0x",
      "r": "0x887ed250d07b31fbf2904e9c6c8343aa250c9fa8ebd3cc52fd64a2f5edf6f535",
      "s": "0x253f66e2eea4070b4ed2d433ba56b91a6b7beb1e091425ec3abd75e32b509a05",
      "v": 27,
      "creates": null,
      "raw": "0xf86d818a850dc33aca818252089432be343b94f860124dc4fee278fdcbd38c102d888845638eb07e8de800801ba0887ed250d07b31fbf2904e9c6c8343aa250c9fa8ebd3cc52fd64a2f5edf6f535a0253f66e2eea4070b4ed2d433ba56b91a6b7beb1e091425ec3abd75e32b509a05",
      "networkId": 0,
      "chainId": 0
    },
    {
      "hash": "0x60165233b3b4796ade01031a044d9e9947d16a08c33039a9d965352035461a13",
      "blockHash": "0x8b7c143cac6e4b74ba00bee8aa0867a1d04326a4aa73ffd583602c4758e6843f",
      "blockNumber": 93701,
      "transactionIndex": 2,
      "confirmations": null,
      "from": "0x2707836DbE604b0eBfdb0F20870dD749C8572676",
      "gasPrice": {
        "_hex": "0xdc33aca81"
      },
      "gasLimit": {
        "_hex": "0x5208"
      },
      "to": "0x32Be343B94f860124dC4fEe278FDCBD38C102D88",
      "value": {
        "_hex": "0x28a856fbc4f6de00000"
      },
      "nonce": 1,
      "data": "0x",
      "r": "0xaf1c6a3e5710aff25d8336e177aca235279e738ccc29e7b88a14a608b9ddff43",
      "s": "0x22c400f808681f0da5730a912d6626717547fcb9007639742fb36fdd8c840007",
      "v": 28,
      "creates": null,
      "raw": "0xf86e01850dc33aca818252089432be343b94f860124dc4fee278fdcbd38c102d888a028a856fbc4f6de00000801ca0af1c6a3e5710aff25d8336e177aca235279e738ccc29e7b88a14a608b9ddff43a022c400f808681f0da5730a912d6626717547fcb9007639742fb36fdd8c840007",
      "networkId": 0,
      "chainId": 0
    }
  ]
}