{
  "hash": "0x6cbd7c5ee22fa397ae91b19fa7702151aec73ffb2ee57707ad8d92f5f1dcfbb4",
  "parentHash": "0x98ba0a3234f4d0000a3d86f7f2637b02acfe44899b707c37fb0aa29f3062f82c",
  "number": 103511,
  "timestamp": 1439854563,
  "nonce": "0x85ea5ed62bc8e6b5",
  "difficulty": 4182746744623,
  "gasLimit": {
    "_hex": "0x2fefd8"
  },
  "gasUsed": {
    "_hex": "0xa410"
  },
  "miner": "0x790b8a3cE86E707ED0eD32bF89B3269692a23CC1",
  "extraData": "0xd783010001844765746887676f312e342e32856c696e7578",
  "transactions": [
    {
      "hash": "0x1e4d024f8bca77eda9bad2793eb02d86b98f08d9e698de48a8088e622cf96a98",
      "blockHash": "0x6cbd7c5ee22fa397ae91b19fa7702151aec73ffb2ee57707ad8d92f5f1dcfbb4",
      "blockNumber": 103511,
      "transactionIndex": 0,
      "confirmations": null,
      "from": "0x1088F2CB8324A270c8D7E71083449a0722820D99",
      "gasPrice": {
        "_hex": "0xd37572ed0"
      },
      "gasLimit": {
        "_hex": "0x5208"
      },
      "to": "0xFBb1b73C4f0BDa4f67dcA266ce6Ef42f520fBB98",
      "value": {
        "_hex": "0x7731935954e2e980"
      },
      "nonce": 2,
      "data": "0x",
      "r": "0xf1e01eb05c01ffd40653570cc9d3d054f03ea1ff1f5efd06f4887d254bcff618",
      "s": "0x2919e2f6663bc877854f604f7a06a30dfdac3fc2a9d9fe5e570a9b5388b932f3",
      "v": 27,
      "creates": null,
      "raw": "0xf86c02850d37572ed082520894fbb1b73c4f0bda4f67dca266ce6ef42f520fbb98887731935954e2e980801ba0f1e01eb05c01ffd40653570cc9d3d054f03ea1ff1f5efd06f4887d254bcff618a02919e2f6663bc877854f604f7a06a30dfdac3fc2a9d9fe5e570a9b5388b932f3",
      "networkId": 0,
      "chainId": 0
    },
    {
      "hash": "0x7bfc8f7ea0b5068f5662cd89d464d1108f74babc0370526a687009f0252da168",
      "blockHash": "0x6cbd7c5ee22fa397ae91b19fa7702151aec73ffb2ee57707ad8d92f5f1dcfbb4",
      "blockNumber": 103511,
      "transactionIndex": 1,
      "confirmations": null,
      "from": "0x120A270bbC009644e35F0bB6ab13f95b8199c4ad",
      "gasPrice": {
        "_hex": "0xcdcd7f0e6"
      },
      "gasLimit": {
        "_hex": "0x3d090"
      },
      "to": "0x53EC61F7F0fefae963Ce7d7FfC53592A3a09b1d5",
      "value": {
        "_hex": "0xdc0f9463f3565400"
      },
      "nonce": 722,
      "data": "0x",
      "r": "0xfbdf3ee6d07cc30c5a4e5d4d317cd4118ef19385866d5e43b1805410297e3f0d",
      "s": "0x1b73891003dd074cdb23b080af84749ce29dc97ac4245e59e0213b77af826f69",
      "v": 27,
      "creates": null,
      "raw": "0xf86f8202d2850cdcd7f0e68303d0909453ec61f7f0fefae963ce7d7ffc53592a3a09b1d588dc0f9463f3565400801ba0fbdf3ee6d07cc30c5a4e5d4d317cd4118ef19385866d5e43b1805410297e3f0da01b73891003dd074cdb23b080af84749ce29dc97ac4245e59e0213b77af826f69",
      "networkId": 0,
      "chainId": 0
    }
  ]
}