{
  "hash": "0xe5f17861eacb64dc88edf62cdece34751c081b1e0eda3dcb8657a60a4f63d82c",
  "parentHash": "0x064f749efce13992f33e71782c586728448073487632ed714a4009686ad7af2c",
  "number": 102622,
  "timestamp": 1439840716,
  "nonce": "0x7e2d5d233cb48f96",
  "difficulty": 4013124898211,
  "gasLimit": {
    "_hex": "0x2fefd8"
  },
  "gasUsed": {
    "_hex": "0x5208"
  },
  "miner": "0xe6A7a1d47ff21B6321162AEA7C6CB457D5476Bca",
  "extraData": "0x476574682f76312e302e312d38326566323666362f6c696e75782f676f312e34",
  "transactions": [
    {
      "hash": "0x09e32e14f5f8aa20eae927570959465d340e04d1519cd4e5382050b543a972ab",
      "blockHash": "0xe5f17861eacb64dc88edf62cdece34751c081b1e0eda3dcb8657a60a4f63d82c",
      "blockNumber": 102622,
      "transactionIndex": 0,
      "confirmations": null,
      "from": "0xCEFA54c1A83A0eCC31Dd4E329e0D4B42869b1eb9",
      "gasPrice": {
        "_hex": "0xdd6052067"
      },
      "gasLimit": {
        "_hex": "0x7a120"
      },
      "to": "0xBBDa93a81B882774e1c9b5e3F933Fa35DaC8bc88",
      "value": {
        "_hex": "0x148e7506e98c20000"
      },
      "nonce": 0,
      "data": "0x",
      "r": "0x44a8fe32298e8f5eb92344055657c92543af607ec165d61ad43c4ec16dfe37b2",
      "s": "0x1f052fdb7f31e49199ea58b7594c07f57f67aab7a012396e61652a22f9571f79",
      "v": 28,
      "creates": null,
      "raw": "0xf86e80850dd60520678307a12094bbda93a81b882774e1c9b5e3f933fa35dac8bc88890148e7506e98c20000801ca044a8fe32298e8f5eb92344055657c92543af607ec165d61ad43c4ec16dfe37b2a01f052fdb7f31e49199ea58b7594c07f57f67aab7a012396e61652a22f9571f79",
      "networkId": 0,
      "chainId": 0
    }
  ]
}