{
  "hash": "0x89b6cc2a2246916dba8c7fe1a276adddcb406f888fca5cd38354256fa4f14efa",
  "parentHash": "0xc414e2e5abd32a1c3dbc9b8e39d64b6b9b00d950020ba5f49fa2deedc5697272",
  "number": 102172,
  "timestamp": 1439833984,
  "nonce": "0xa3d5cb1e8d25ced4",
  "difficulty": 3908902596713,
  "gasLimit": {
    "_hex": "0x2fefd8"
  },
  "gasUsed": {
    "_hex": "0xa410"
  },
  "miner": "0x790b8a3cE86E707ED0eD32bF89B3269692a23CC1",
  "extraData": "0xd783010001844765746887676f312e342e32856c696e7578",
  "transactions": [
    {
      "hash": "0xca5b1b89e541111ca394613f55b67fae5f627b80af713d61fae4618f232abf7f",
      "blockHash": "0x89b6cc2a2246916dba8c7fe1a276adddcb406f888fca5cd38354256fa4f14efa",
      "blockNumber": 102172,
      "transactionIndex": 0,
      "confirmations": null,
      "from": "0x9Fa9952255B2b06639A04D63804d4BdFFf6E2d7e",
      "gasPrice": {
        "_hex": "0xdc1ebd7c6"
      },
      "gasLimit": {
        "_hex": "0x15f90"
      },
      "to": "0xE12517204a15E890f12755207271102F4800A0c4",
      "value": {
        "_hex": "0x2b5e3af16b1880000"
      },
      "nonce": 15,
      "data": "0x",
      "r": "0xfab6da5bbeda16058754307c900a2d51a7b3a04dfb6491966bf99adabb1f9d8f",
      "s": "0x4f5c991250abc2ed58fc57a2e14d8ef30d930581073d30da23bd9bfafd38f98a",
      "v": 27,
      "creates": null,
      "raw": "0xf86e0f850dc1ebd7c683015f9094e12517204a15e890f12755207271102f4800a0c48902b5e3af16b1880000801ba0fab6da5bbeda16058754307c900a2d51a7b3a04dfb6491966bf99adabb1f9d8fa04f5c991250abc2ed58fc57a2e14d8ef30d930581073d30da23bd9bfafd38f98a",
      "networkId": 0,
      "chainId": 0
    },
    {
      "hash": "0x24141106fcccba21b7f4d622de3069d1dbeebcbdca69f0591b8d57a373e80e4e",
      "blockHash": "0x89b6cc2a2246916dba8c7fe1a276adddcb406f888fca5cd38354256fa4f14efa",
      "blockNumber": 102172,
      "transactionIndex": 1,
      "confirmations": null,
      "from": "0x76d4a9bc9612bE738A81d0fE632b00B971E2bB9a",
      "gasPrice": {
        "_hex": "0xcb32e649e"
      },
      "gasLimit": {
        "_hex": "0x55f0"
      },
      "to": "0xb50405193Dc0c7077dD65252C15C39242F0aCB76",
      "value": {
        "_hex": "0x15af1d78b58c40000"
      },
      "nonce": 9,
      "data": "0x",
      "r": "0xf84856fae42c0f85a26ecb3f2c196359c148db210e5ef48f29c4b2f3d236666a",
      "s": "0x4e251822fc1aba6278be22b766dbf94ab85cc1d8c7c3465111a85e331bd36cff",
      "v": 27,
      "creates": null,
      "raw": "0xf86d09850cb32e649e8255f094b50405193dc0c7077dd65252c15c39242f0acb7689015af1d78b58c40000801ba0f84856fae42c0f85a26ecb3f2c196359c148db210e5ef48f29c4b2f3d236666aa04e251822fc1aba6278be22b766dbf94ab85cc1d8c7c3465111a85e331bd36cff",
      "networkId": 0,
      "chainId": 0
    }
  ]
}