{
  "hash": "0x4747a51a64a47bc21201042cc361b0bb69ab049d5e11a87c3f9621b6166142fc",
  "parentHash": "0xf115e4f41b730a3589df70cceef05509d9b349b1268e3b830e95534482aa8934",
  "number": 46324,
  "timestamp": 1438921289,
  "nonce": "0x458a72c275458cc9",
  "difficulty": 1461816465326,
  "gasLimit": {
    "_hex": "0x5a74"
  },
  "gasUsed": {
    "_hex": "0x5208"
  },
  "miner": "0xbb7B8287f3F0a933474a79eAe42CBCa977791171",
  "extraData": "0x476574682f4c5649562f76312e302e312f6c696e75782f676f312e342e32",
  "transactions": [
    {
      "hash": "0x84f105f753095d3b00bad565bb598c3c7e70a708f68d3494839b904698229136",
      "blockHash": "0x4747a51a64a47bc21201042cc361b0bb69ab049d5e11a87c3f9621b6166142fc",
      "blockNumber": 46324,
      "transactionIndex": 0,
      "confirmations": null,
      "from": "0x232CB1cd49993c144A3F88B3611E233569a86bd6",
      "gasPrice": {
        "_hex": "0x530351d866"
      },
      "gasLimit": {
        "_hex": "0x5208"
      },
      "to": "0xCbF478675787C70C5696b1335EBCdaBF401298F9",
      "value": {
        "_hex": "0xde0b6b3a7640000"
      },
      "nonce": 0,
      "data": "0x",
      "r": "0x631b92143c375c20f7d7f2077ae7643bedca12e932d7c425ec20188cd7b9983b",
      "s": "0x3ddd05f6951a568726db59f28ef54b716d837266ebff6b36aeebc6e259592b8c",
      "v": 27,
      "creates": null,
      "raw": "0xf86c8085530351d86682520894cbf478675787c70c5696b1335ebcdabf401298f9880de0b6b3a7640000801ba0631b92143c375c20f7d7f2077ae7643bedca12e932d7c425ec20188cd7b9983ba03ddd05f6951a568726db59f28ef54b716d837266ebff6b36aeebc6e259592b8c",
      "networkId": 0,
      "chainId": 0
    }
  ]
}