{
  "hash": "0xb7915614565b17d787d60f1f2abfa0fbe0b21c7516520037c30d6fa67371fecf",
  "parentHash": "0xa63be0c90fe31fceb452a64efa2c25eaee946ba3b2120698ccb23ce9ea15478e",
  "number": 118984,
  "timestamp": 1440134712,
  "nonce": "0xeae8a8ef2155c5b7",
  "difficulty": 4424817764616,
  "gasLimit": {
    "_hex": "0x2fefd8"
  },
  "gasUsed": {
    "_hex": "0x18326"
  },
  "miner": "0x790b8a3cE86E707ED0eD32bF89B3269692a23CC1",
  "extraData": "0xd783010002844765746887676f312e342e32856c696e7578",
  "transactions": [
    {
      "hash": "0x64e8cc242d58e08f244804d09df89ba5229373cb0e1a1f56ff663a5a39fd5ce8",
      "blockHash": "0xb7915614565b17d787d60f1f2abfa0fbe0b21c7516520037c30d6fa67371fecf",
      "blockNumber": 118984,
      "transactionIndex": 0,
      "confirmations": null,
      "from": "0x7468Ba29Ea3929021a7ae188927B7758C28E6599",
      "gasPrice": {
        "_hex": "0xd8364fc25"
      },
      "gasLimit": {
        "_hex": "0x249f0"
      },
      "to": "0xE28e72FCf78647ADCe1F1252F240bbfaebD63BcC",
      "value": {
        "_hex": "0x83d6c7aab6360000"
      },
      "nonce": 1,
      "data": "0x45466f3a",
      "r": "0x45f1a00f75c137273c78ee307f8e32ccf18ccea7c858688b656fc032ed69b08a",
      "s": "0x199b303edb5c1cbde62611658b74416ac816a01e2dd6042386e27718f6dd4c01",
      "v": 28,
      "creates": null,
      "raw": "0xf87101850d8364fc25830249f094e28e72fcf78647adce1f1252f240bbfaebd63bcc8883d6c7aab63600008445466f3a1ca045f1a00f75c137273c78ee307f8e32ccf18ccea7c858688b656fc032ed69b08aa0199b303edb5c1cbde62611658b74416ac816a01e2dd6042386e27718f6dd4c01",
      "networkId": 0,
      "chainId": 0
    }
  ]
}