{
  "hash": "0xaf124c648a1b3a71ee004f4c85b73442404ea39021223497e37ba1efa79a8d9b",
  "parentHash": "0xa1c0634972a00b646bd32bb8141e67c7e3697478b833f9d60d5302d64d172227",
  "number": 57799,
  "timestamp": 1439109876,
  "nonce": "0xd232abaaa4423c94",
  "difficulty": 1729349795481,
  "gasLimit": {
    "_hex": "0x2fefd8"
  },
  "gasUsed": {
    "_hex": "0xa674"
  },
  "miner": "0xbb7B8287f3F0a933474a79eAe42CBCa977791171",
  "extraData": "0x476574682f4c5649562f76312e302e312f6c696e75782f676f312e342e32",
  "transactions": [
    {
      "hash": "0xa54d59fc37e090adb80b07c6504d5e2a77e84cb0b8e387c7561cacdd72ed44e6",
      "blockHash": "0xaf124c648a1b3a71ee004f4c85b73442404ea39021223497e37ba1efa79a8d9b",
      "blockNumber": 57799,
      "transactionIndex": 0,
      "confirmations": null,
      "from": "0x4A82694fa29d9E213202A1a209285df6E745c209",
      "gasPrice": {
        "_hex": "0x110c8f7d8de"
      },
      "gasLimit": {
        "_hex": "0xc350"
      },
      "to": "0x2910543Af39abA0Cd09dBb2D50200b3E800A63D2",
      "value": {
        "_hex": "0xd36b5f58ea17700000"
      },
      "nonce": 0,
      "data": "0x454e5846454d313352",
      "r": "0x7c49bcdb2fbae2fefaf13d95e03891467d41c160b7008be453b96c10b6dc81d9",
      "s": "0x3425090021dcbb112ddc127d14b7a9bf199d7c6050e03b59a4347e7c47f287c0",
      "v": 28,
      "creates": null,
      "raw": "0xf87780860110c8f7d8de82c350942910543af39aba0cd09dbb2d50200b3e800a63d289d36b5f58ea1770000089454e5846454d3133521ca07c49bcdb2fbae2fefaf13d95e03891467d41c160b7008be453b96c10b6dc81d9a03425090021dcbb112ddc127d14b7a9bf199d7c6050e03b59a4347e7c47f287c0",
      "networkId": 0,
      "chainId": 0
    },
    {
      "hash": "0xb80875f23efd617f830f1003442622805fd46e58a9b50aa14ecfec12ec4f0aa7",
      "blockHash": "0xaf124c648a1b3a71ee004f4c85b73442404ea39021223497e37ba1efa79a8d9b",
      "blockNumber": 57799,
      "transactionIndex": 1,
      "confirmations": null,
      "from": "0xF90b585a1e878eE18838B2688687e670bCf29D35",
      "gasPrice": {
        "_hex": "0xdf1722245"
      },
      "gasLimit": {
        "_hex": "0x55f0"
      },
      "to": "0xBc91527B31Fbbe397F91C2b9273Ea32b0d9a19a0",
      "value": {
        "_hex": "0x16dedf44bdd8000"
      },
      "nonce": 1,
      "data": "0x",
      "r": "0xeaa29d303e8152fb8cc93540a8438030dae11798154f860d53f0b914082b72d6",
      "s": "0x5ef205eb5321ae4042235b663e197a04e8630ccaadb7156fe2c8a8dacad4fa4c",
      "v": 27,
      "creates": null,
      "raw": "0xf86c01850df17222458255f094bc91527b31fbbe397f91c2b9273ea32b0d9a19a088016dedf44bdd8000801ba0eaa29d303e8152fb8cc93540a8438030dae11798154f860d53f0b914082b72d6a05ef205eb5321ae4042235b663e197a04e8630ccaadb7156fe2c8a8dacad4fa4c",
      "networkId": 0,
      "chainId": 0
    }
  ]
}