{
  "hash": "0xe028513c8d87cb2811172914341d4c9c1d4d95631522459471fe03b72012d685",
  "parentHash": "0x95d302b4d7d0919d0fd038610d1796690cd28d442c1ebf7152931127c87910d4",
  "number": 47534,
  "timestamp": 1438942350,
  "nonce": "0x06859b631a6a98b2",
  "difficulty": 1447401598296,
  "gasLimit": {
    "_hex": "0xcbbf"
  },
  "gasUsed": {
    "_hex": "0xa410"
  },
  "miner": "0xf927a40C8B7F6E07c5af7FA2155B4864a4112B13",
  "extraData": "0x476574682f76312e302e312f6c696e75782f676f312e342e32",
  "transactions": [
    {
      "hash": "0xe61160b476213ba57107853b8a6a2b5b9428f5be70c4fb2f434864bb6a9cf300",
      "blockHash": "0xe028513c8d87cb2811172914341d4c9c1d4d95631522459471fe03b72012d685",
      "blockNumber": 47534,
      "transactionIndex": 0,
      "confirmations": null,
      "from": "0x0A2A9354E81F171976131FECbeE823802e9B13ea",
      "gasPrice": {
        "_hex": "0x1e449a9400"
      },
      "gasLimit": {
        "_hex": "0x5208"
      },
      "to": "0x4a7C6662593951F4D9FCD1009738CCCfC9D3f774",
      "value": {
        "_hex": "0x532e13de667f60000"
      },
      "nonce": 1,
      "data": "0x",
      "r": "0xb1a52f3b02b7a5d845be3e120e181a0da078a8d89a274714c5e9e95214f66dc7",
      "s": "0x3dfb299c2f27f001e5f1b82e9930e23ad24a2ded829eb6afa828b641711c18a8",
      "v": 27,
      "creates": null,
      "raw": "0xf86d01851e449a9400825208944a7c6662593951f4d9fcd1009738cccfc9d3f774890532e13de667f60000801ba0b1a52f3b02b7a5d845be3e120e181a0da078a8d89a274714c5e9e95214f66dc7a03dfb299c2f27f001e5f1b82e9930e23ad24a2ded829eb6afa828b641711c18a8",
      "networkId": 0,
      "chainId": 0
    },
    {
      "hash": "0x5ab8872e0eff654ddad4d5228ece21ec06f84f36df2e2269c18c95776fd28780",
      "blockHash": "0xe028513c8d87cb2811172914341d4c9c1d4d95631522459471fe03b72012d685",
      "blockNumber": 47534,
      "transactionIndex": 1,
      "confirmations": null,
      "from": "0xa9f5E7bf6Cbf6fEc55B30850Eb492b47A376d050",
      "gasPrice": {
        "_hex": "0x1db166210e"
      },
      "gasLimit": {
        "_hex": "0x5208"
      },
      "to": "0x32Be343B94f860124dC4fEe278FDCBD38C102D88",
      "value": {
        "_hex": "0x15af13f4f47ce40000"
      },
      "nonce": 1,
      "data": "0x",
      "r": "0x1f3f031821260aaad8d5c840ba0819a3091cac91843c25aa1e4b8cdaaf55101b",
      "s": "0x201e5e32732b5f1e7101e955c20c283933b6d5acbdbb6b6188ed930879046ca4",
      "v": 27,
      "creates": null,
      "raw": "0xf86d01851db166210e8252089432be343b94f860124dc4fee278fdcbd38c102d888915af13f4f47ce40000801ba01f3f031821260aaad8d5c840ba0819a3091cac91843c25aa1e4b8cdaaf55101ba0201e5e32732b5f1e7101e955c20c283933b6d5acbdbb6b6188ed930879046ca4",
      "networkId": 0,
      "chainId": 0
    }
  ]
}