{
  "hash": "0x79091466f95fefc44020f556d81f031a912118c6f011e0a34cf4f98b9d300e21",
  "parentHash": "0xc752f5d151a61745c2a424838752905d2d10c9ef6a6237661bb21b280a089d10",
  "number": 47051,
  "timestamp": 1438933636,
  "nonce": "0xe5e6ab7e29b507f6",
  "difficulty": 1453859954970,
  "gasLimit": {
    "_hex": "0x933c"
  },
  "gasUsed": {
    "_hex": "0x5208"
  },
  "miner": "0xbb7B8287f3F0a933474a79eAe42CBCa977791171",
  "extraData": "0x476574682f4c5649562f76312e302e312f6c696e75782f676f312e342e32",
  "transactions": [
    {
      "hash": "0xf509f6db95484b7b4357fc13b339b9b95cf47086077b86e6b208717874bd43fb",
      "blockHash": "0x79091466f95fefc44020f556d81f031a912118c6f011e0a34cf4f98b9d300e21",
      "blockNumber": 47051,
      "transactionIndex": 0,
      "confirmations": null,
      "from": "0xe6A7a1d47ff21B6321162AEA7C6CB457D5476Bca",
      "gasPrice": {
        "_hex": "0xe21705f42"
      },
      "gasLimit": {
        "_hex": "0x5208"
      },
      "to": "0xA4A6b8BBB93728d873271331dD99b612147e068f",
      "value": {
        "_hex": "0x1f9ad7c2c8b4f8e4"
      },
      "nonce": 35,
      "data": "0x",
      "r": "0x08ac503d4df1b9a12097c3eeec353a0470db1a47419a15c90cfcd46ccec27a47",
      "s": "0x009d87df072a553d4b8358243357974a7efe28ca42a7dd698b90fa51f89ca027",
      "v": 28,
      "creates": null,
      "raw": "0xf86b23850e21705f4282520894a4a6b8bbb93728d873271331dd99b612147e068f881f9ad7c2c8b4f8e4801ca008ac503d4df1b9a12097c3eeec353a0470db1a47419a15c90cfcd46ccec27a479f9d87df072a553d4b8358243357974a7efe28ca42a7dd698b90fa51f89ca027",
      "networkId": 0,
      "chainId": 0
    }
  ]
}