{
  "hash": "0x57d3b7e82f3a1d3bb28bc96b83ed0bad7c0390ed372746ff68b2f5007d54a61f",
  "parentHash": "0xc552c38430f4563136ce42b40e1bbad07f70fe843a5b07c681a894642508e237",
  "number": 112082,
  "timestamp": 1440001545,
  "nonce": "0xd43ae7417a7edfb7",
  "difficulty": 4381143173000,
  "gasLimit": {
    "_hex": "0x2fefd8"
  },
  "gasUsed": {
    "_hex": "0xa410"
  },
  "miner": "0xe6A7a1d47ff21B6321162AEA7C6CB457D5476Bca",
  "extraData": "0x476574682f76312e302e312d38326566323666362f6c696e75782f676f312e34",
  "transactions": [
    {
      "hash": "0x918272e41c18f604868cbb070c4bb3ed6470b4d6b1507de0e5c5f9dd1bedb1e2",
      "blockHash": "0x57d3b7e82f3a1d3bb28bc96b83ed0bad7c0390ed372746ff68b2f5007d54a61f",
      "blockNumber": 112082,
      "transactionIndex": 0,
      "confirmations": null,
      "from": "0x32Be343B94f860124dC4fEe278FDCBD38C102D88",
      "gasPrice": {
        "_hex": "0xd2862ddb2"
      },
      "gasLimit": {
        "_hex": "0x5208"
      },
      "to": "0x82f600f520d879ecc6101C4e8cdD6522Fdd24778",
      "value": {
        "_hex": "0x8ac7230489e80000"
      },
      "nonce": 1330,
      "data": "0x",
      "r": "0x87b233578d9ea455441fed3f91c217d26dc4955e1d88e7855d7ee7434fa2323f",
      "s": "0x55107960a28e2dbc66317edbffe4ecb1cd484d2790079324d84f1ddc1d40590e",
      "v": 28,
      "creates": null,
      "raw": "0xf86e820532850d2862ddb28252089482f600f520d879ecc6101c4e8cdd6522fdd24778888ac7230489e80000801ca087b233578d9ea455441fed3f91c217d26dc4955e1d88e7855d7ee7434fa2323fa055107960a28e2dbc66317edbffe4ecb1cd484d2790079324d84f1ddc1d40590e",
      "networkId": 0,
      "chainId": 0
    },
    {
      "hash": "0x10621845970dd88f7c6f7d50535d49681050ae9c63e57b1c2757989a68bbf78a",
      "blockHash": "0x57d3b7e82f3a1d3bb28bc96b83ed0bad7c0390ed372746ff68b2f5007d54a61f",
      "blockNumber": 112082,
      "transactionIndex": 1,
      "confirmations": null,
      "from": "0x32Be343B94f860124dC4fEe278FDCBD38C102D88",
      "gasPrice": {
        "_hex": "0xd2862ddb2"
      },
      "gasLimit": {
        "_hex": "0x5208"
      },
      "to": "0xF1AB8836c80BfC0D9FeD8e66aaa761bA8908d2CC",
      "value": {
        "_hex": "0x7fc2023f7ce08800"
      },
      "nonce": 1331,
      "data": "0x",
      "r": "0xd039b41e8a7c3c78ea92a6121536e7bed59cf78d8e9c8dd9e0af2ee039b48f3d",
      "s": "0x1ce9b198cf0b6fa88dbee3699db0dd2d309581552e5a6eb528d02126e8f95262",
      "v": 28,
      "creates": null,
      "raw": "0xf86e820533850d2862ddb282520894f1ab8836c80bfc0d9fed8e66aaa761ba8908d2cc887fc2023f7ce08800801ca0d039b41e8a7c3c78ea92a6121536e7bed59cf78d8e9c8dd9e0af2ee039b48f3da01ce9b198cf0b6fa88dbee3699db0dd2d309581552e5a6eb528d02126e8f95262",
      "networkId": 0,
      "chainId": 0
    }
  ]
}