{
  "hash": "0xe46ac082efb797b16fe90e88612ecc31886eea9b1fd568173a0cff7381c0d62a",
  "parentHash": "0xa02581e7e06aa473b11d5f9ae2b6d8950907d0c914752406ece49929d44ee652",
  "number": 58229,
  "timestamp": 1439117150,
  "nonce": "0xeeb64c22fd4c760a",
  "difficulty": 1720838073547,
  "gasLimit": {
    "_hex": "0x2fefd5"
  },
  "gasUsed": {
    "_hex": "0x5208"
  },
  "miner": "0x47ff6576639c2e94762eA5443978D7681C0E78DC",
  "extraData": "0x476574682f76312e302e312f6c696e75782f676f312e342e32",
  "transactions": [
    {
      "hash": "0x4c9bb804c44ce828d607fe1d8be6e68a7bfdcdec3c1df9b7306456aa56a24e10",
      "blockHash": "0xe46ac082efb797b16fe90e88612ecc31886eea9b1fd568173a0cff7381c0d62a",
      "blockNumber": 58229,
      "transactionIndex": 0,
      "confirmations": null,
      "from": "0xe6282e5294D064DD01851808dE43b9be32066E72",
      "gasPrice": {
        "_hex": "0x115fbe322a9"
      },
      "gasLimit": {
        "_hex": "0x15f90"
      },
      "to": "0xc6D811C8bfcA27E0281D4F54f1d451b0f296f497",
      "value": {
        "_hex": "0x1"
      },
      "nonce": 0,
      "data": "0x",
      "r": "0xeef20b93fcc7072c6857aa41dec88120d56c08d6b949ec2d610f000a980552f9",
      "s": "0x508033eed2ea9a27a92d1c1cd72c2d7bb0cfac8d7c3a7039a17e58a5885ad5f0",
      "v": 27,
      "creates": null,
      "raw": "0xf86680860115fbe322a983015f9094c6d811c8bfca27e0281d4f54f1d451b0f296f49701801ba0eef20b93fcc7072c6857aa41dec88120d56c08d6b949ec2d610f000a980552f9a0508033eed2ea9a27a92d1c1cd72c2d7bb0cfac8d7c3a7039a17e58a5885ad5f0",
      "networkId": 0,
      "chainId": 0
    }
  ]
}