{
  "hash": "0xd8a884c4e9947930987e8f6a07d7ddb715b669302e5c10b80308d2bf2046a668",
  "parentHash": "0x18f34f47a17c55c7ee7f95d72b870339da726e7a20a62fcde95b1ae5b3b3be76",
  "number": 80236,
  "timestamp": 1439482385,
  "nonce": "0x0df285fa77c6da51",
  "difficulty": 2377077054420,
  "gasLimit": {
    "_hex": "0x2fefd8"
  },
  "gasUsed": {
    "_hex": "0x1b4ad"
  },
  "miner": "0x580992B51e3925e23280EfB93d3047C82f17E038",
  "extraData": "0x476574682f76312e302e312f6c696e75782f676f312e342e32",
  "transactions": [
    {
      "hash": "0xa97c274a304b3bce2a42e552ba118756ef4f9b3592c062aa2f81d02371ef6760",
      "blockHash": "0xd8a884c4e9947930987e8f6a07d7ddb715b669302e5c10b80308d2bf2046a668",
      "blockNumber": 80236,
      "transactionIndex": 0,
      "confirmations": null,
      "from": "0x87C5B5874A18B4306DF8a752a6C8cc3E82daFc19",
      "gasPrice": {
        "_hex": "0x10cd35ff8d6"
      },
      "gasLimit": {
        "_hex": "0x493e0"
      },
      "to": "0xC4c51de1AbF5D60DBd329eC0F999Fd8f021ae9fC",
      "value": {
        "_hex": "0x3526a2e984d8b9af"
      },
      "nonce": 148,
      "data": "0x8d216186000000000000000000000000000000000000000000000000000000000000001ad3d96ceed0cfca4794c2a5a3d3aeefe69da0a2a669e66a5651f30b64831c3db0",
      "r": "0x3929617c53603d2180935e9b5b274cf64f3705faabee3e1e79c1a8aa136b86c7",
      "s": "0x67cc443a987d6dc8c68c0e8d7979707b7d832825de4f1cc880b44dfb5d0f04a5",
      "v": 28,
      "creates": null,
      "raw": "0xf8b4819486010cd35ff8d6830493e094c4c51de1abf5d60dbd329ec0f999fd8f021ae9fc883526a2e984d8b9afb8448d216186000000000000000000000000000000000000000000000000000000000000001ad3d96ceed0cfca4794c2a5a3d3aeefe69da0a2a669e66a5651f30b64831c3db01ca03929617c53603d2180935e9b5b274cf64f3705faabee3e1e79c1a8aa136b86c7a067cc443a987d6dc8c68c0e8d7979707b7d832825de4f1cc880b44dfb5d0f04a5",
      "networkId": 0,
      "chainId": 0
    }
  ]
}