{
  "hash": "0x5a8c188e6ccd21b997df026e39b3b2437865b8c09af7734b1bd168e87ccee863",
  "parentHash": "0x2e3a2fc152095edd1d834682b4d3f18131e86aa4343957c232dc4b6a628b4e09",
  "number": 92832,
  "timestamp": 1439677685,
  "nonce": "0xf72be278891e6a03",
  "difficulty": 3647556816511,
  "gasLimit": {
    "_hex": "0x2fefd8"
  },
  "gasUsed": {
    "_hex": "0x546c"
  },
  "miner": "0x4D52F282d1B4Ca07065FA433f90BDbb3b7c2928F",
  "extraData": "0x476574682f76312e302e312f77696e646f77732f676f312e342e32",
  "transactions": [
    {
      "hash": "0x2ff812610aa291a76a47811e7c3af2e1df51954d6a13932508756967a6c9e3ed",
      "blockHash": "0x5a8c188e6ccd21b997df026e39b3b2437865b8c09af7734b1bd168e87ccee863",
      "blockNumber": 92832,
      "transactionIndex": 0,
      "confirmations": null,
      "from": "0x4ad047faE67eF162FE68FedbC27d3B65cAF10C36",
      "gasPrice": {
        "_hex": "0x110c8f7d8de"
      },
      "gasLimit": {
        "_hex": "0xc350"
      },
      "to": "0x2910543Af39abA0Cd09dBb2D50200b3E800A63D2",
      "value": {
        "_hex": "0x1b1ae4d6e2ef500000"
      },
      "nonce": 3,
      "data": "0x454e4837585a564152",
      "r": "0x5ce34b0daa3f25d1ed3b58082eda001a499540329db58f8798ede9a6c774e438",
      "s": "0x507dc25e7414d823cbc5b19c3d85f9b4095cdb34d518d3c1cca606f99a0a38e9",
      "v": 27,
      "creates": null,
      "raw": "0xf87703860110c8f7d8de82c350942910543af39aba0cd09dbb2d50200b3e800a63d2891b1ae4d6e2ef50000089454e4837585a5641521ba05ce34b0daa3f25d1ed3b58082eda001a499540329db58f8798ede9a6c774e438a0507dc25e7414d823cbc5b19c3d85f9b4095cdb34d518d3c1cca606f99a0a38e9",
      "networkId": 0,
      "chainId": 0
    }
  ]
}