{
  "hash": "0x92802b2f5a5a95cdf6a64578f83d6afcd70e992a673549463d91e4ae737a5b75",
  "parentHash": "0xd5c9557369e280021dd9f5451e94c63bd021fa76a87fb5c7431fd44dad6a243d",
  "number": 65013,
  "timestamp": 1439230007,
  "nonce": "0x489536d391ae5c32",
  "difficulty": 1912570271277,
  "gasLimit": {
    "_hex": "0x2fefd8"
  },
  "gasUsed": {
    "_hex": "0x1cee0"
  },
  "miner": "0xbb7B8287f3F0a933474a79eAe42CBCa977791171",
  "extraData": "0x476574682f4c5649562f76312e302e312f6c696e75782f676f312e342e32",
  "transactions": [
    {
      "hash": "0x76bdbe50d024977ef413e2f4e0840a24811c80c63b6305f8dd5a42315e95a2db",
      "blockHash": "0x92802b2f5a5a95cdf6a64578f83d6afcd70e992a673549463d91e4ae737a5b75",
      "blockNumber": 65013,
      "transactionIndex": 0,
      "confirmations": null,
      "from": "0x73557a256cF3729C21b2b391f47B18551b9a2D5B",
      "gasPrice": {
        "_hex": "0xd894dc3a9"
      },
      "gasLimit": {
        "_hex": "0x5208"
      },
      "to": "0x32Be343B94f860124dC4fEe278FDCBD38C102D88",
      "value": {
        "_hex": "0x455f3089d82cb000"
      },
      "nonce": 0,
      "data": "0x",
      "r": "0x3007093e3589c4c205a5bda5d036fa62fd71533c5d0cd2b395f12dbee492d0ea",
      "s": "0x66ba3ff8ab5d8c1d7150f55d213f30d9ff8a7e1f73f5d36ece8ae58f8349ce82",
      "v": 28,
      "creates": null,
      "raw": "0xf86c80850d894dc3a98252089432be343b94f860124dc4fee278fdcbd38c102d8888455f3089d82cb000801ca03007093e3589c4c205a5bda5d036fa62fd71533c5d0cd2b395f12dbee492d0eaa066ba3ff8ab5d8c1d7150f55d213f30d9ff8a7e1f73f5d36ece8ae58f8349ce82",
      "networkId": 0,
      "chainId": 0
    },
    {
      "hash": "0x5b891f12b3cdc4d43c7784e6dd39f7b6f5f6a28825973f872a73481214d06e15",
      "blockHash": "0x92802b2f5a5a95cdf6a64578f83d6afcd70e992a673549463d91e4ae737a5b75",
      "blockNumber": 65013,
      "transactionIndex": 1,
      "confirmations": null,
      "from": "0x7B9E6152d8edFd1275cdf62126B457616EFAC6a7",
      "gasPrice": {
        "_hex": "0xba43b7400"
      },
      "gasLimit": {
        "_hex": "0x15f90"
      },
      "to": "0x793AE8C1b1a160BFc07BFB0d04F85eab1A71F4f2",
      "value": {
        "_hex": "0x0"
      },
      "nonce": 0,
      "data": "0x3ba15036",
      "r": "0x77246ca709659e75644f1035915c6ffac764cd7a34bfc2a5c518ae9b9b8788b5",
      "s": "0x3b39cf2769140f9801c4a1f2bfd46f2815ebf501d9edf0d81260297167b14a30",
      "v": 28,
      "creates": null,
      "raw": "0xf86980850ba43b740083015f9094793ae8c1b1a160bfc07bfb0d04f85eab1a71f4f280843ba150361ca077246ca709659e75644f1035915c6ffac764cd7a34bfc2a5c518ae9b9b8788b5a03b39cf2769140f9801c4a1f2bfd46f2815ebf501d9edf0d81260297167b14a30",
      "networkId": 0,
      "chainId": 0
    },
    {
      "hash": "0x1a414a62c4081272699565f3f2379724ee4f91c91832c3e80c37a4cea20be129",
      "blockHash": "0x92802b2f5a5a95cdf6a64578f83d6afcd70e992a673549463d91e4ae737a5b75",
      "blockNumber": 65013,
      "transactionIndex": 2,
      "confirmations": null,
      "from": "0xf38435a2F627f87Bd4B02865de4310a082FF0483",
      "gasPrice": {
        "_hex": "0xba43b7400"
      },
      "gasLimit": {
        "_hex": "0x15f90"
      },
      "to": "0x793AE8C1b1a160BFc07BFB0d04F85eab1A71F4f2",
      "value": {
        "_hex": "0x0"
      },
      "nonce": 0,
      "data": "0x3ba15036",
      "r": "0x72443e95a89774d0b3a6495bfee5129b1ca351159f3290737e62fd32a17378c6",
      "s": "0x439f98371a3a2785e8d8648a6f8dd9b47d8210b1e0a2f3f72de0dad5bc580e69",
      "v": 27,
      "creates": null,
      "raw": "0xf86980850ba43b740083015f9094793ae8c1b1a160bfc07bfb0d04f85eab1a71f4f280843ba150361ba072443e95a89774d0b3a6495bfee5129b1ca351159f3290737e62fd32a17378c6a0439f98371a3a2785e8d8648a6f8dd9b47d8210b1e0a2f3f72de0dad5bc580e69",
      "networkId": 0,
      "chainId": 0
    }
  ]
}