{
  "hash": "0x0969c970f65cc7b01f8b2d060cbaddf048d7d2409d67cf7f3acd577b5db1a753",
  "parentHash": "0xd016c887bee234e05d9be3e5c435086b0e5242086b7ec6571cb9a4ce353df347",
  "number": 64638,
  "timestamp": 1439223994,
  "nonce": "0x7232c77bb49c7f4e",
  "difficulty": 1887605581686,
  "gasLimit": {
    "_hex": "0x2fefd8"
  },
  "gasUsed": {
    "_hex": "0x29040"
  },
  "miner": "0xeB1325C8D9d3ea8D74aC11F4B00F1B2367686319",
  "extraData": "0x476574682f76312e302e312f77696e646f77732f676f312e342e32",
  "transactions": [
    {
      "hash": "0xcace18c3adab2904feee0c40c61b4b525f5b52cfc16b802605799e692e250dbd",
      "blockHash": "0x0969c970f65cc7b01f8b2d060cbaddf048d7d2409d67cf7f3acd577b5db1a753",
      "blockNumber": 64638,
      "transactionIndex": 0,
      "confirmations": null,
      "from": "0x32Be343B94f860124dC4fEe278FDCBD38C102D88",
      "gasPrice": {
        "_hex": "0xd7f3f4cab"
      },
      "gasLimit": {
        "_hex": "0x5208"
      },
      "to": "0x120A270bbC009644e35F0bB6ab13f95b8199c4ad",
      "value": {
        "_hex": "0x5150ae84a8cdf00000"
      },
      "nonce": 180,
      "data": "0x",
      "r": "0x710ee4adb6b32e066c50ec8bc78ecc3a2d8f65976531dbdeb300bb4092edd31e",
      "s": "0x6457b428932f97841c82c544d3af7fb895ccb25af5911d77c5ff6fc0d75995fe",
      "v": 27,
      "creates": null,
      "raw": "0xf86e81b4850d7f3f4cab82520894120a270bbc009644e35f0bb6ab13f95b8199c4ad895150ae84a8cdf00000801ba0710ee4adb6b32e066c50ec8bc78ecc3a2d8f65976531dbdeb300bb4092edd31ea06457b428932f97841c82c544d3af7fb895ccb25af5911d77c5ff6fc0d75995fe",
      "networkId": 0,
      "chainId": 0
    },
    {
      "hash": "0xe5f3f47f1a8e607294f6ba52fb4ba6f89126171f49d48571489e2eba4d60f3ea",
      "blockHash": "0x0969c970f65cc7b01f8b2d060cbaddf048d7d2409d67cf7f3acd577b5db1a753",
      "blockNumber": 64638,
      "transactionIndex": 1,
      "confirmations": null,
      "from": "0x32Be343B94f860124dC4fEe278FDCBD38C102D88",
      "gasPrice": {
        "_hex": "0xd7f3f4cab"
      },
      "gasLimit": {
        "_hex": "0x5208"
      },
      "to": "0xFBb1b73C4f0BDa4f67dcA266ce6Ef42f520fBB98",
      "value": {
        "_hex": "0x3c95d0ced8d14e000"
      },
      "nonce": 181,
      "data": "0x",
      "r": "0x33a0f4190c36292f2d598531df03c701ee41438fe5dbe061e58e52eb2f43aea5",
      "s": "0x16671bde7fbabe9537cef4762fc0c355e21f363b917af638a30d37f65fc9239d",
      "v": 27,
      "creates": null,
      "raw": "0xf86e81b5850d7f3f4cab82520894fbb1b73c4f0bda4f67dca266ce6ef42f520fbb988903c95d0ced8d14e000801ba033a0f4190c36292f2d598531df03c701ee41438fe5dbe061e58e52eb2f43aea5a016671bde7fbabe9537cef4762fc0c355e21f363b917af638a30d37f65fc9239d",
      "networkId": 0,
      "chainId": 0
    },
    {
      "hash": "0x521518ee3fa2c46d12338c60efee5de4edaa4b358ac818135bcdc3c71da58685",
      "blockHash": "0x0969c970f65cc7b01f8b2d060cbaddf048d7d2409d67cf7f3acd577b5db1a753",
      "blockNumber": 64638,
      "transactionIndex": 2,
      "confirmations": null,
      "from": "0x41b0ECDb594EcDd5b110e63486F079682C196877",
      "gasPrice": {
        "_hex": "0xba43b7400"
      },
      "gasLimit": {
        "_hex": "0x5208"
      },
      "to": "0xe438FC467FBa78a8A2e7b856da6114fE045aA62B",
      "value": {
        "_hex": "0xc1c23435b07000"
      },
      "nonce": 1,
      "data": "0x",
      "r": "0x2c7ddfaff462b317046d7d3df1be8eb87ecdf121ab5d1bd0d7d1308ae7cf17c8",
      "s": "0x3bb9e269579047b0f480b3935ce2f56dc765dac44ae64f96eac4f8c15e4ee94e",
      "v": 27,
      "creates": null,
      "raw": "0xf86b01850ba43b740082520894e438fc467fba78a8a2e7b856da6114fe045aa62b87c1c23435b07000801ba02c7ddfaff462b317046d7d3df1be8eb87ecdf121ab5d1bd0d7d1308ae7cf17c8a03bb9e269579047b0f480b3935ce2f56dc765dac44ae64f96eac4f8c15e4ee94e",
      "networkId": 0,
      "chainId": 0
    },
    {
      "hash": "0xa32e914585a50b49237c6cd321853af5e89c7d24a9184949064fedd0b0092b68",
      "blockHash": "0x0969c970f65cc7b01f8b2d060cbaddf048d7d2409d67cf7f3acd577b5db1a753",
      "blockNumber": 64638,
      "transactionIndex": 3,
      "confirmations": null,
      "from": "0xC581c04C32a98eFF14C2aC4D83dAa005F05Da624",
      "gasPrice": {
        "_hex": "0xba43b7400"
      },
      "gasLimit": {
        "_hex": "0x5208"
      },
      "to": "0x23aFc83CF20C1B7714Db5223f8b0edE6E6FF0AEc",
      "value": {
        "_hex": "0xc1c23435b07000"
      },
      "nonce": 1,
      "data": "0x",
      "r": "0x42891fece8d753512b556de45acb660f7abdc48abce45d5c1b25566d6866ccb3",
      "s": "0x32002652dc4007ef65fc01188d7e634d2505aa271c78a62b67d7d448c3261ae1",
      "v": 28,
      "creates": null,
      "raw": "0xf86b01850ba43b74008252089423afc83cf20c1b7714db5223f8b0ede6e6ff0aec87c1c23435b07000801ca042891fece8d753512b556de45acb660f7abdc48abce45d5c1b25566d6866ccb3a032002652dc4007ef65fc01188d7e634d2505aa271c78a62b67d7d448c3261ae1",
      "networkId": 0,
      "chainId": 0
    },
    {
      "hash": "0x8692ae177d05de95532b298c59ba483609fa364b9fc47a0a97a35a0f377e98d7",
      "blockHash": "0x0969c970f65cc7b01f8b2d060cbaddf048d7d2409d67cf7f3acd577b5db1a753",
      "blockNumber": 64638,
      "transactionIndex": 4,
      "confirmations": null,
      "from": "0xdBdC8a1573d1247D3b5C532D0e6434239Af1c6Bc",
      "gasPrice": {
        "_hex": "0xba43b7400"
      },
      "gasLimit": {
        "_hex": "0x5208"
      },
      "to": "0x2A7B74289D69f49B0405e8Af3EFa592BAA0fd8EB",
      "value": {
        "_hex": "0x653580cf6eb000"
      },
      "nonce": 1,
      "data": "0x",
      "r": "0x8ae3a03b34647ce0d2b1930fad616dd1cdbad30ee7ec86ed860917d46583a575",
      "s": "0x5e13b4399652a46978bf8395da5e2f4898474e2787ccaee15cc4283be8eff52d",
      "v": 28,
      "creates": null,
      "raw": "0xf86b01850ba43b7400825208942a7b74289d69f49b0405e8af3efa592baa0fd8eb87653580cf6eb000801ca08ae3a03b34647ce0d2b1930fad616dd1cdbad30ee7ec86ed860917d46583a575a05e13b4399652a46978bf8395da5e2f4898474e2787ccaee15cc4283be8eff52d",
      "networkId": 0,
      "chainId": 0
    },
    {
      "hash": "0x620f6f3603521861730a89cfb1d5fb86eb25d649bba4d764a4eceffba2ffb7b3",
      "blockHash": "0x0969c970f65cc7b01f8b2d060cbaddf048d7d2409d67cf7f3acd577b5db1a753",
      "blockNumber": 64638,
      "transactionIndex": 5,
      "confirmations": null,
      "from": "0xD8e2D53B984eF362De967E9e7df5eE434700D0f1",
      "gasPrice": {
        "_hex": "0xba43b7400"
      },
      "gasLimit": {
        "_hex": "0x5208"
      },
      "to": "0x646d2cE09D7a666d4FF2f9BB52b6100B796588AD",
      "value": {
        "_hex": "0x937bda828f9000"
      },
      "nonce": 1,
      "data": "0x",
      "r": "0x5a096a6b12d73bd535d8d27724312f89de6f35fa674e9995aeae680af2bacd40",
      "s": "0x3593bdef8f5a244e9d03fa6f6f519bcd8a4193c92eb058fbb27c8bde5accb7f1",
      "v": 28,
      "creates": null,
      "raw": "0xf86b01850ba43b740082520894646d2ce09d7a666d4ff2f9bb52b6100b796588ad87937bda828f9000801ca05a096a6b12d73bd535d8d27724312f89de6f35fa674e9995aeae680af2bacd40a03593bdef8f5a244e9d03fa6f6f519bcd8a4193c92eb058fbb27c8bde5accb7f1",
      "networkId": 0,
      "chainId": 0
    },
    {
      "hash": "0xc1abcb1ffe7bdc666aea16f4334671b51fda3cbba43b9e18502095ca15b582ce",
      "blockHash": "0x0969c970f65cc7b01f8b2d060cbaddf048d7d2409d67cf7f3acd577b5db1a753",
      "blockNumber": 64638,
      "transactionIndex": 6,
      "confirmations": null,
      "from": "0x72617AaaC569c2c6bE8DB1595cCDF7541e57e507",
      "gasPrice": {
        "_hex": "0xba43b7400"
      },
      "gasLimit": {
        "_hex": "0x5208"
      },
      "to": "0x1c914c3D59635fae955e2eB1Ba114346635AE4F3",
      "value": {
        "_hex": "0xd8e5610f40e000"
      },
      "nonce": 1,
      "data": "0x",
      "r": "0xab34d63a0a47cefb601e9dd793f034103c08d02760466175586f975fb60d874e",
      "s": "0x61e343d08279e2a05fcd6d8e2814af5db6ecd6fd56f791e54a8a5789768400e1",
      "v": 28,
      "creates": null,
      "raw": "0xf86b01850ba43b7400825208941c914c3d59635fae955e2eb1ba114346635ae4f387d8e5610f40e000801ca0ab34d63a0a47cefb601e9dd793f034103c08d02760466175586f975fb60d874ea061e343d08279e2a05fcd6d8e2814af5db6ecd6fd56f791e54a8a5789768400e1",
      "networkId": 0,
      "chainId": 0
    },
    {
      "hash": "0x2b3c59047a3d17c45b9a84ff3cb50e8831743be3e15decc3b018a52a98b78f9d",
      "blockHash": "0x0969c970f65cc7b01f8b2d060cbaddf048d7d2409d67cf7f3acd577b5db1a753",
      "blockNumber": 64638,
      "transactionIndex": 7,
      "confirmations": null,
      "from": "0xC3C23b0e71476525dd331f08916523fF626CDD0f",
      "gasPrice": {
        "_hex": "0xba43b7400"
      },
      "gasLimit": {
        "_hex": "0x5208"
      },
      "to": "0x468A38bCA5f3c6C36d959caFa2C4908A30989352",
      "value": {
        "_hex": "0x4e1253f5de4000"
      },
      "nonce": 1,
      "data": "0x",
      "r": "0x9c455834983ea15c49f99f02a53336068ed5f79b14c4a35d6b93e5f1bd964b8f",
      "s": "0x011c5f23e9ff227b34b92e2048694a95cfd45bd5268f2d2f7fb2e91cd5d92266",
      "v": 28,
      "creates": null,
      "raw": "0xf86b01850ba43b740082520894468a38bca5f3c6c36d959cafa2c4908a30989352874e1253f5de4000801ca09c455834983ea15c49f99f02a53336068ed5f79b14c4a35d6b93e5f1bd964b8fa0011c5f23e9ff227b34b92e2048694a95cfd45bd5268f2d2f7fb2e91cd5d92266",
      "networkId": 0,
      "chainId": 0
    }
  ]
}