{
  "hash": "0x30a1cb53f012abb98fe3dff69efea63fb0fdb1c9db508e9ea0b26ba6298b60a8",
  "parentHash": "0xc658e6ab3c2a690bf4626133aeb75c8800b09c3ce998da6ed93d79f51c8aeda0",
  "number": 87981,
  "timestamp": 1439600600,
  "nonce": "0x9ce5f2daa292baa1",
  "difficulty": 3194194906609,
  "gasLimit": {
    "_hex": "0x2fefd8"
  },
  "gasUsed": {
    "_hex": "0x5208"
  },
  "miner": "0xf32866D5cE9a9b5673e076be48AbCd6ED48ADe78",
  "extraData": "0x476574682f76312e302e312d37666266393930632f6c696e75782f676f312e34",
  "transactions": [
    {
      "hash": "0xd1ed462c6a915d58da150453814e6b9f1d2c494eac184bb6e76f0051feef6b89",
      "blockHash": "0x30a1cb53f012abb98fe3dff69efea63fb0fdb1c9db508e9ea0b26ba6298b60a8",
      "blockNumber": 87981,
      "transactionIndex": 0,
      "confirmations": null,
      "from": "0x120A270bbC009644e35F0bB6ab13f95b8199c4ad",
      "gasPrice": {
        "_hex": "0xcba89c110"
      },
      "gasLimit": {
        "_hex": "0x3d090"
      },
      "to": "0x8f717ec1552f4C440084fBa1154A81DC003EbdC0",
      "value": {
        "_hex": "0x4563918244f400000"
      },
      "nonce": 509,
      "data": "0x",
      "r": "0xe0babcd3160da990b9aa8f8a2db4630a654af9031a488cb2b2f63c59c38203be",
      "s": "0x7582cec02b7ce25cbda5b06d7a2c8b767b7cebe58393e2e4e64c23d95706cc1e",
      "v": 28,
      "creates": null,
      "raw": "0xf8708201fd850cba89c1108303d090948f717ec1552f4c440084fba1154a81dc003ebdc08904563918244f400000801ca0e0babcd3160da990b9aa8f8a2db4630a654af9031a488cb2b2f63c59c38203bea07582cec02b7ce25cbda5b06d7a2c8b767b7cebe58393e2e4e64c23d95706cc1e",
      "networkId": 0,
      "chainId": 0
    }
  ]
}