{
  "hash": "0xcc63edaa390d1717fc29d2777945e246e6eb2303e5bb416fb895c9eab35bac87",
  "parentHash": "0xeb54b9bb6a754fe09fd44214aa5054e321cc5619821f0910e8b9a15e008970fa",
  "number": 89577,
  "timestamp": 1439625595,
  "nonce": "0x3cc4273135fba266",
  "difficulty": 3333802571990,
  "gasLimit": {
    "_hex": "0x2fefd8"
  },
  "gasUsed": {
    "_hex": "0x5c490"
  },
  "miner": "0xe6A7a1d47ff21B6321162AEA7C6CB457D5476Bca",
  "extraData": "0x476574682f76312e302e312d38326566323666362f6c696e75782f676f312e34",
  "transactions": [
    {
      "hash": "0x0214ffb81fa81463dc4fc61dd60b66df30f228ad15fb3a4a4653e86247b34d7a",
      "blockHash": "0xcc63edaa390d1717fc29d2777945e246e6eb2303e5bb416fb895c9eab35bac87",
      "blockNumber": 89577,
      "transactionIndex": 0,
      "confirmations": null,
      "from": "0x78293691c74717191d1D417b531f398350D54e89",
      "gasPrice": {
        "_hex": "0xd6a8b40a5"
      },
      "gasLimit": {
        "_hex": "0x15f90"
      },
      "to": "0xc597A5d92F5dC1137D847db733cfe02c6d209f13",
      "value": {
        "_hex": "0x5f9717817ce403e8"
      },
      "nonce": 0,
      "data": "0x",
      "r": "0xdf7db0db8ce3a3d29427d8d41f0490f4125c2a208406abadc83a973dea136aa7",
      "s": "0x20d17cdecd950dc11a228fd75c14831d9ccda441fc4e0b4897aac4ba397761ac",
      "v": 27,
      "creates": null,
      "raw": "0xf86d80850d6a8b40a583015f9094c597a5d92f5dc1137d847db733cfe02c6d209f13885f9717817ce403e8801ba0df7db0db8ce3a3d29427d8d41f0490f4125c2a208406abadc83a973dea136aa7a020d17cdecd950dc11a228fd75c14831d9ccda441fc4e0b4897aac4ba397761ac",
      "networkId": 0,
      "chainId": 0
    },
    {
      "hash": "0x41477b4fb25f53ada8115a22722e555af2ea23747dff6f2462424dd8af3ce4d9",
      "blockHash": "0xcc63edaa390d1717fc29d2777945e246e6eb2303e5bb416fb895c9eab35bac87",
      "blockNumber": 89577,
      "transactionIndex": 1,
      "confirmations": null,
      "from": "0xD99d94142876F98Ad27DFB1093E48B2a23070E38",
      "gasPrice": {
        "_hex": "0xd6a8b40a5"
      },
      "gasLimit": {
        "_hex": "0x15f90"
      },
      "to": "0xc597A5d92F5dC1137D847db733cfe02c6d209f13",
      "value": {
        "_hex": "0x1d902b16a4c69f060"
      },
      "nonce": 0,
      "data": "0x",
      "r": "0x3e5b5d0f3892fff9b617a77d76bd04b8356da6a95d5efb3392e0586d8758f106",
      "s": "0x54a030ce7349fe350fee550cf9a25c9245371e3332bd5934813607a093e7a15e",
      "v": 27,
      "creates": null,
      "raw": "0xf86e80850d6a8b40a583015f9094c597a5d92f5dc1137d847db733cfe02c6d209f138901d902b16a4c69f060801ba03e5b5d0f3892fff9b617a77d76bd04b8356da6a95d5efb3392e0586d8758f106a054a030ce7349fe350fee550cf9a25c9245371e3332bd5934813607a093e7a15e",
      "networkId": 0,
      "chainId": 0
    },
    {
      "hash": "0x77eb0f4d5d5c1bee24890f0fe23fc668267c8d34e778ecef7679d5be1f22f60d",
      "blockHash": "0xcc63edaa390d1717fc29d2777945e246e6eb2303e5bb416fb895c9eab35bac87",
      "blockNumber": 89577,
      "transactionIndex": 2,
      "confirmations": null,
      "from": "0x6F8fE9e968e02B5c2aefAB2575D2802652072C38",
      "gasPrice": {
        "_hex": "0xd6a8b40a5"
      },
      "gasLimit": {
        "_hex": "0x15f90"
      },
      "to": "0xc597A5d92F5dC1137D847db733cfe02c6d209f13",
      "value": {
        "_hex": "0x8a9c8114d09a0000"
      },
      "nonce": 0,
      "data": "0x",
      "r": "0xc1c52369f082c39a77d51ca4f80e883295130418829f0d930fd8e0bfe7bf64bf",
      "s": "0x42c506a70fb2511ad923fe29fa840ed537ce79ad7342b62e7f7769ed72fae236",
      "v": 27,
      "creates": null,
      "raw": "0xf86d80850d6a8b40a583015f9094c597a5d92f5dc1137d847db733cfe02c6d209f13888a9c8114d09a0000801ba0c1c52369f082c39a77d51ca4f80e883295130418829f0d930fd8e0bfe7bf64bfa042c506a70fb2511ad923fe29fa840ed537ce79ad7342b62e7f7769ed72fae236",
      "networkId": 0,
      "chainId": 0
    },
    {
      "hash": "0xbec8d8a56ab40ad705d331e6486b8db04a62582ecc9f30d119ec2c19eb9f603f",
      "blockHash": "0xcc63edaa390d1717fc29d2777945e246e6eb2303e5bb416fb895c9eab35bac87",
      "blockNumber": 89577,
      "transactionIndex": 3,
      "confirmations": null,
      "from": "0x07D6e0B28173fFfb4Fb33952d4AD43D0C0e76A28",
      "gasPrice": {
        "_hex": "0xd6a8b40a5"
      },
      "gasLimit": {
        "_hex": "0x15f90"
      },
      "to": "0xc597A5d92F5dC1137D847db733cfe02c6d209f13",
      "value": {
        "_hex": "0x375838dee4420000"
      },
      "nonce": 0,
      "data": "0x",
      "r": "0xece186f750ee0fcc259d813e906db149de41d9dad1f4983898ab071eadea1e9f",
      "s": "0x44a8776583bb2ef24219b6605686e2c741f3285b69461c6b018d720616d631c3",
      "v": 27,
      "creates": null,
      "raw": "0xf86d80850d6a8b40a583015f9094c597a5d92f5dc1137d847db733cfe02c6d209f1388375838dee4420000801ba0ece186f750ee0fcc259d813e906db149de41d9dad1f4983898ab071eadea1e9fa044a8776583bb2ef24219b6605686e2c741f3285b69461c6b018d720616d631c3",
      "networkId": 0,
      "chainId": 0
    },
    {
      "hash": "0x446e000fbd05ae925f0dbc4f69342af6105aba721dbaa0e8d80ffaa4a32ec7c2",
      "blockHash": "0xcc63edaa390d1717fc29d2777945e246e6eb2303e5bb416fb895c9eab35bac87",
      "blockNumber": 89577,
      "transactionIndex": 4,
      "confirmations": null,
      "from": "0x233F3C75EBD6f86937dcc9ACC919c65CfB8D72aB",
      "gasPrice": {
        "_hex": "0xd6a8b40a5"
      },
      "gasLimit": {
        "_hex": "0x15f90"
      },
      "to": "0xc597A5d92F5dC1137D847db733cfe02c6d209f13",
      "value": {
        "_hex": "0x6bed744bb2368000"
      },
      "nonce": 0,
      "data": "0x",
      "r": "0x2de8454120abc3449cd44f1c9c1434c5fe5098f1e4627a8210aee50026c580af",
      "s": "0x094bfa22edfe746ef492b98da9ebe888c39838f022905eaf3fd5439e83b0b81b",
      "v": 28,
      "creates": null,
      "raw": "0xf86d80850d6a8b40a583015f9094c597a5d92f5dc1137d847db733cfe02c6d209f13886bed744bb2368000801ca02de8454120abc3449cd44f1c9c1434c5fe5098f1e4627a8210aee50026c580afa0094bfa22edfe746ef492b98da9ebe888c39838f022905eaf3fd5439e83b0b81b",
      "networkId": 0,
      "chainId": 0
    },
    {
      "hash": "0xa49f9e831093dd0b6339dfa05caf2867d60266c131b8e5f54857ed3f3d6b5ccc",
      "blockHash": "0xcc63edaa390d1717fc29d2777945e246e6eb2303e5bb416fb895c9eab35bac87",
      "blockNumber": 89577,
      "transactionIndex": 5,
      "confirmations": null,
      "from": "0xfD1e5ef2A7a53dB5Db821C04f6B9A3443eBD1Aa2",
      "gasPrice": {
        "_hex": "0xd6a8b40a5"
      },
      "gasLimit": {
        "_hex": "0x15f90"
      },
      "to": "0xc597A5d92F5dC1137D847db733cfe02c6d209f13",
      "value": {
        "_hex": "0x9328f2d52a92000"
      },
      "nonce": 0,
      "data": "0x",
      "r": "0x61b92531f0d07896067675a7d29f39230f93245f3bd8cc4608e874abce19a1be",
      "s": "0x56d15fcb262fe48db556a450ae0fc7a6b800559e30024f00e1fb8d96a7045f2f",
      "v": 28,
      "creates": null,
      "raw": "0xf86d80850d6a8b40a583015f9094c597a5d92f5dc1137d847db733cfe02c6d209f138809328f2d52a92000801ca061b92531f0d07896067675a7d29f39230f93245f3bd8cc4608e874abce19a1bea056d15fcb262fe48db556a450ae0fc7a6b800559e30024f00e1fb8d96a7045f2f",
      "networkId": 0,
      "chainId": 0
    },
    {
      "hash": "0x622413b4471c0d4a1531fdbc06e534586dc520714decc19d48069ee15a97897d",
      "blockHash": "0xcc63edaa390d1717fc29d2777945e246e6eb2303e5bb416fb895c9eab35bac87",
      "blockNumber": 89577,
      "transactionIndex": 6,
      "confirmations": null,
      "from": "0x4E35be1c5dEe94A847D50307170230e640152575",
      "gasPrice": {
        "_hex": "0xd6a8b40a5"
      },
      "gasLimit": {
        "_hex": "0x15f90"
      },
      "to": "0xc597A5d92F5dC1137D847db733cfe02c6d209f13",
      "value": {
        "_hex": "0x11577f6744717d5f0"
      },
      "nonce": 1,
      "data": "0x",
      "r": "0x2234d2f02ffaad2e3e508b2caac68e1952cd9fe831babc6bc273fee480d3006d",
      "s": "0x6683faaf58fa9360e30782507567b62d9280d89f92a96cdd085a071e46143c29",
      "v": 27,
      "creates": null,
      "raw": "0xf86e01850d6a8b40a583015f9094c597a5d92f5dc1137d847db733cfe02c6d209f1389011577f6744717d5f0801ba02234d2f02ffaad2e3e508b2caac68e1952cd9fe831babc6bc273fee480d3006da06683faaf58fa9360e30782507567b62d9280d89f92a96cdd085a071e46143c29",
      "networkId": 0,
      "chainId": 0
    },
    {
      "hash": "0x08df64d2deb63d9f98a000ad19b7fa4dfef68bf43694fce3287229cf5d27e71d",
      "blockHash": "0xcc63edaa390d1717fc29d2777945e246e6eb2303e5bb416fb895c9eab35bac87",
      "blockNumber": 89577,
      "transactionIndex": 7,
      "confirmations": null,
      "from": "0xeAB2453c6ffcB1f58FA3e60Db9C76d965898C826",
      "gasPrice": {
        "_hex": "0xd6a8b40a5"
      },
      "gasLimit": {
        "_hex": "0x15f90"
      },
      "to": "0xc597A5d92F5dC1137D847db733cfe02c6d209f13",
      "value": {
        "_hex": "0x96124887044e2c18"
      },
      "nonce": 0,
      "data": "0x",
      "r": "0xfae73c529f000841917f2a2003ebd1a0ca89d654e991c05bed75d5b3c5a15190",
      "s": "0x68db6d3ccb678d8e656661aec00a666c91206128ac01dcb605df614e29034ae2",
      "v": 28,
      "creates": null,
      "raw": "0xf86d80850d6a8b40a583015f9094c597a5d92f5dc1137d847db733cfe02c6d209f138896124887044e2c18801ca0fae73c529f000841917f2a2003ebd1a0ca89d654e991c05bed75d5b3c5a15190a068db6d3ccb678d8e656661aec00a666c91206128ac01dcb605df614e29034ae2",
      "networkId": 0,
      "chainId": 0
    },
    {
      "hash": "0xe96d0e9ab9e3b29af0b12836c2bff2ae48cd0ba518bcab605a1ecb31e74fb2d5",
      "blockHash": "0xcc63edaa390d1717fc29d2777945e246e6eb2303e5bb416fb895c9eab35bac87",
      "blockNumber": 89577,
      "transactionIndex": 8,
      "confirmations": null,
      "from": "0x7cA26E2f6d958364eC65090AAf788bD0a67fe130",
      "gasPrice": {
        "_hex": "0xd6a8b40a5"
      },
      "gasLimit": {
        "_hex": "0x15f90"
      },
      "to": "0xc597A5d92F5dC1137D847db733cfe02c6d209f13",
      "value": {
        "_hex": "0x40e98df7b6ec716d0"
      },
      "nonce": 1,
      "data": "0x",
      "r": "0x7e9c8e77c16bf5888118630bdfcfbb0d132179973dab2d54b24d5ade2352a54f",
      "s": "0x362a89bfe41c0962582d8df504459043f1ae25346f01f514ea87d470aa173790",
      "v": 27,
      "creates": null,
      "raw": "0xf86e01850d6a8b40a583015f9094c597a5d92f5dc1137d847db733cfe02c6d209f1389040e98df7b6ec716d0801ba07e9c8e77c16bf5888118630bdfcfbb0d132179973dab2d54b24d5ade2352a54fa0362a89bfe41c0962582d8df504459043f1ae25346f01f514ea87d470aa173790",
      "networkId": 0,
      "chainId": 0
    },
    {
      "hash": "0x8ec2209a619c1a2718a3407ecc997299bd0527d7a1fc679bb9ed5f24aafe4be3",
      "blockHash": "0xcc63edaa390d1717fc29d2777945e246e6eb2303e5bb416fb895c9eab35bac87",
      "blockNumber": 89577,
      "transactionIndex": 9,
      "confirmations": null,
      "from": "0x3545FcD68a755C8464b5aa1687F81303508d6507",
      "gasPrice": {
        "_hex": "0xd6a8b40a5"
      },
      "gasLimit": {
        "_hex": "0x15f90"
      },
      "to": "0xc597A5d92F5dC1137D847db733cfe02c6d209f13",
      "value": {
        "_hex": "0x8a78fa2260d90000"
      },
      "nonce": 0,
      "data": "0x",
      "r": "0x84ee6f6a9dbe6b4c08bf962d553252bcdce6b342a1b5cb068c3f18a5bd59265d",
      "s": "0x53b8f2e9e014ebb517edcc73c79686e33131a1add3aa5fcb02b50cbf3aea40cc",
      "v": 28,
      "creates": null,
      "raw": "0xf86d80850d6a8b40a583015f9094c597a5d92f5dc1137d847db733cfe02c6d209f13888a78fa2260d90000801ca084ee6f6a9dbe6b4c08bf962d553252bcdce6b342a1b5cb068c3f18a5bd59265da053b8f2e9e014ebb517edcc73c79686e33131a1add3aa5fcb02b50cbf3aea40cc",
      "networkId": 0,
      "chainId": 0
    },
    {
      "hash": "0xbd8f0ef8fbb8f86d8a3b976a52ebb4f3563f09ca6f191589ededdef30cc81e58",
      "blockHash": "0xcc63edaa390d1717fc29d2777945e246e6eb2303e5bb416fb895c9eab35bac87",
      "blockNumber": 89577,
      "transactionIndex": 10,
      "confirmations": null,
      "from": "0x6B2942dA5B3c46D4048195e43f9218347F1521FD",
      "gasPrice": {
        "_hex": "0xd6a8b40a5"
      },
      "gasLimit": {
        "_hex": "0x15f90"
      },
      "to": "0xc597A5d92F5dC1137D847db733cfe02c6d209f13",
      "value": {
        "_hex": "0x421b212b214658000"
      },
      "nonce": 0,
      "data": "0x",
      "r": "0x609a2ec242cb811248c1caec578acc1143c86b966ac09126eb281c57934e5342",
      "s": "0x65bc9bc1a1fa359d349ce15fac5432d45f07bfb848c9e8eb2ef15e6035a621cc",
      "v": 27,
      "creates": null,
      "raw": "0xf86e80850d6a8b40a583015f9094c597a5d92f5dc1137d847db733cfe02c6d209f13890421b212b214658000801ba0609a2ec242cb811248c1caec578acc1143c86b966ac09126eb281c57934e5342a065bc9bc1a1fa359d349ce15fac5432d45f07bfb848c9e8eb2ef15e6035a621cc",
      "networkId": 0,
      "chainId": 0
    },
    {
      "hash": "0x83d5904ce46314a95d083948635d679252d5d744b447849f4bcf8360d64663d6",
      "blockHash": "0xcc63edaa390d1717fc29d2777945e246e6eb2303e5bb416fb895c9eab35bac87",
      "blockNumber": 89577,
      "transactionIndex": 11,
      "confirmations": null,
      "from": "0x654C5Ab883F5816f49a6E6548452520ce62a047d",
      "gasPrice": {
        "_hex": "0xd6a8b40a5"
      },
      "gasLimit": {
        "_hex": "0x15f90"
      },
      "to": "0xc597A5d92F5dC1137D847db733cfe02c6d209f13",
      "value": {
        "_hex": "0x1ba9d9ea33df1df0"
      },
      "nonce": 2,
      "data": "0x",
      "r": "0x7cd37eb4544c013be6b69b148327dce5fbc43229c0ac3e8dbed074ca7c25a20d",
      "s": "0x7f3e0e4d4a7d1b2195eda3f86c882bd0e393393cb61cbf50ab2e40d833fd42c5",
      "v": 27,
      "creates": null,
      "raw": "0xf86d02850d6a8b40a583015f9094c597a5d92f5dc1137d847db733cfe02c6d209f13881ba9d9ea33df1df0801ba07cd37eb4544c013be6b69b148327dce5fbc43229c0ac3e8dbed074ca7c25a20da07f3e0e4d4a7d1b2195eda3f86c882bd0e393393cb61cbf50ab2e40d833fd42c5",
      "networkId": 0,
      "chainId": 0
    },
    {
      "hash": "0x6d2eeb4250aecebb50a0ba3942c417325b315ad9a3f2f22777e7992a295e52ad",
      "blockHash": "0xcc63edaa390d1717fc29d2777945e246e6eb2303e5bb416fb895c9eab35bac87",
      "blockNumber": 89577,
      "transactionIndex": 12,
      "confirmations": null,
      "from": "0xe1BB24DEb355245B12dBD1dEE569aA6765Ebe21a",
      "gasPrice": {
        "_hex": "0xd6a8b40a5"
      },
      "gasLimit": {
        "_hex": "0x15f90"
      },
      "to": "0xc597A5d92F5dC1137D847db733cfe02c6d209f13",
      "value": {
        "_hex": "0xdb614c3ee160000"
      },
      "nonce": 0,
      "data": "0x",
      "r": "0xbc3c04aafd75b2059efa88ce1c6e267e3ba285c4d7cbee0e645aef414dd4c8d5",
      "s": "0x1ad74103098c18ac8cbb70140a54381561593dae766004854f846bcfa81c9429",
      "v": 27,
      "creates": null,
      "raw": "0xf86d80850d6a8b40a583015f9094c597a5d92f5dc1137d847db733cfe02c6d209f13880db614c3ee160000801ba0bc3c04aafd75b2059efa88ce1c6e267e3ba285c4d7cbee0e645aef414dd4c8d5a01ad74103098c18ac8cbb70140a54381561593dae766004854f846bcfa81c9429",
      "networkId": 0,
      "chainId": 0
    },
    {
      "hash": "0x87a59c0854f82564296eba11a63ab944e35a5cb86786338dc03fa8e518607fca",
      "blockHash": "0xcc63edaa390d1717fc29d2777945e246e6eb2303e5bb416fb895c9eab35bac87",
      "blockNumber": 89577,
      "transactionIndex": 13,
      "confirmations": null,
      "from": "0x4835b2f84407499A34fE1240dd3148257bFa9E87",
      "gasPrice": {
        "_hex": "0xd6a8b40a5"
      },
      "gasLimit": {
        "_hex": "0x15f90"
      },
      "to": "0xc597A5d92F5dC1137D847db733cfe02c6d209f13",
      "value": {
        "_hex": "0x56bb16aaf9a8c2450"
      },
      "nonce": 2,
      "data": "0x",
      "r": "0x5958fb8e20fbecfa256e552e1dd586b5c4c14c3a5451b920ac17262441e2467f",
      "s": "0x23ff8d2690f5fca30386039ad8cc76e832915b833a23dfc2ac88644dc7d20747",
      "v": 27,
      "creates": null,
      "raw": "0xf86e02850d6a8b40a583015f9094c597a5d92f5dc1137d847db733cfe02c6d209f1389056bb16aaf9a8c2450801ba05958fb8e20fbecfa256e552e1dd586b5c4c14c3a5451b920ac17262441e2467fa023ff8d2690f5fca30386039ad8cc76e832915b833a23dfc2ac88644dc7d20747",
      "networkId": 0,
      "chainId": 0
    },
    {
      "hash": "0xe197184c674d72c2e674fe47e24cd369b997cc2ee0d15a61fdea2e6b855224c1",
      "blockHash": "0xcc63edaa390d1717fc29d2777945e246e6eb2303e5bb416fb895c9eab35bac87",
      "blockNumber": 89577,
      "transactionIndex": 14,
      "confirmations": null,
      "from": "0x338043c8592eDAdd5969B5529090D7eE1C466e14",
      "gasPrice": {
        "_hex": "0xd6a8b40a5"
      },
      "gasLimit": {
        "_hex": "0x15f90"
      },
      "to": "0xc597A5d92F5dC1137D847db733cfe02c6d209f13",
      "value": {
        "_hex": "0x115401d26eac0f830"
      },
      "nonce": 0,
      "data": "0x",
      "r": "0xb72dffb02621de254eb6c6c41cde7e7122a4a2d52721fe24d3f8de548a8cb4e2",
      "s": "0x6e4fd58b6a40c5dc5edfd8f389b3ca8559ef527ed4dbd7cb45eaf26a7994519b",
      "v": 27,
      "creates": null,
      "raw": "0xf86e80850d6a8b40a583015f9094c597a5d92f5dc1137d847db733cfe02c6d209f13890115401d26eac0f830801ba0b72dffb02621de254eb6c6c41cde7e7122a4a2d52721fe24d3f8de548a8cb4e2a06e4fd58b6a40c5dc5edfd8f389b3ca8559ef527ed4dbd7cb45eaf26a7994519b",
      "networkId": 0,
      "chainId": 0
    },
    {
      "hash": "0xfa473dedb4b80b8bf0b74c61f696a9969d0e9a3ac3a62c707c76c19d92274af3",
      "blockHash": "0xcc63edaa390d1717fc29d2777945e246e6eb2303e5bb416fb895c9eab35bac87",
      "blockNumber": 89577,
      "transactionIndex": 15,
      "confirmations": null,
      "from": "0xAD4288f5D37e94bAc47b5482c81f364b0743Dd54",
      "gasPrice": {
        "_hex": "0xd6a8b40a5"
      },
      "gasLimit": {
        "_hex": "0x15f90"
      },
      "to": "0xc597A5d92F5dC1137D847db733cfe02c6d209f13",
      "value": {
        "_hex": "0x347964ae6ec91286a0"
      },
      "nonce": 0,
      "data": "0x",
      "r": "0x8d74d287fb19967a1735a1738e95c3154de79eff842bfd2dbdd952594b5ce87e",
      "s": "0x6c2bf0e1838e33b2d5c2d101e5ecdb87d3617179f2eff1d943b52bd6b257bb59",
      "v": 27,
      "creates": null,
      "raw": "0xf86e80850d6a8b40a583015f9094c597a5d92f5dc1137d847db733cfe02c6d209f1389347964ae6ec91286a0801ba08d74d287fb19967a1735a1738e95c3154de79eff842bfd2dbdd952594b5ce87ea06c2bf0e1838e33b2d5c2d101e5ecdb87d3617179f2eff1d943b52bd6b257bb59",
      "networkId": 0,
      "chainId": 0
    },
    {
      "hash": "0xd9b0b08932ad13b9035bee6d10aaad55557fe5acbcdb9b21e501a15bb1464fc9",
      "blockHash": "0xcc63edaa390d1717fc29d2777945e246e6eb2303e5bb416fb895c9eab35bac87",
      "blockNumber": 89577,
      "transactionIndex": 16,
      "confirmations": null,
      "from": "0x48fd93dbcc39f6531B44901Ff472112eAc83C917",
      "gasPrice": {
        "_hex": "0xd6a8b40a5"
      },
      "gasLimit": {
        "_hex": "0x15f90"
      },
      "to": "0xc597A5d92F5dC1137D847db733cfe02c6d209f13",
      "value": {
        "_hex": "0x599dccbeaac44000"
      },
      "nonce": 0,
      "data": "0x",
      "r": "0x1d200406c6b176a23a49779b133480adc34f2b3ec78aca551bb3610bdcea25b6",
      "s": "0x11023cc15990d16a6770b4997f01c3203eeeeb6f185bdc4bf91ffacfc4dac237",
      "v": 27,
      "creates": null,
      "raw": "0xf86d80850d6a8b40a583015f9094c597a5d92f5dc1137d847db733cfe02c6d209f1388599dccbeaac44000801ba01d200406c6b176a23a49779b133480adc34f2b3ec78aca551bb3610bdcea25b6a011023cc15990d16a6770b4997f01c3203eeeeb6f185bdc4bf91ffacfc4dac237",
      "networkId": 0,
      "chainId": 0
    },
    {
      "hash": "0xcc72294fd71fe5cfe893a9ca1b2de180959681449ed1092844d796465119899b",
      "blockHash": "0xcc63edaa390d1717fc29d2777945e246e6eb2303e5bb416fb895c9eab35bac87",
      "blockNumber": 89577,
      "transactionIndex": 17,
      "confirmations": null,
      "from": "0x72b5633FE477fe542E742FAcFd690c137854F216",
      "gasPrice": {
        "_hex": "0xd3d37f23a"
      },
      "gasLimit": {
        "_hex": "0x15f90"
      },
      "to": "0x74533118b0e108FE2FD428a492065fA66C3e7a49",
      "value": {
        "_hex": "0xde0b6b3a7640000"
      },
      "nonce": 0,
      "data": "0x",
      "r": "0x61307fa8ef9d1c9d83fa514759120d3d880c0092eaa74f87d875de67e9262f70",
      "s": "0x20026a67c18250510d791807ef495f18af68d79466cd37a1761997eb3b05ecbf",
      "v": 28,
      "creates": null,
      "raw": "0xf86d80850d3d37f23a83015f909474533118b0e108fe2fd428a492065fa66c3e7a49880de0b6b3a7640000801ca061307fa8ef9d1c9d83fa514759120d3d880c0092eaa74f87d875de67e9262f70a020026a67c18250510d791807ef495f18af68d79466cd37a1761997eb3b05ecbf",
      "networkId": 0,
      "chainId": 0
    }
  ]
}