{
  "hash": "0xb12cf6cde33e126c749e271ff098deeca55c1683fe3094281c0c73587d502fab",
  "parentHash": "0xa4161990152f804367afec73caf4bfecd164ea79c7aa500a7fea6951536b92b8",
  "number": 81954,
  "timestamp": 1439510673,
  "nonce": "0x62cae4cf0a44888d",
  "difficulty": 2414016129186,
  "gasLimit": {
    "_hex": "0x2fefd8"
  },
  "gasUsed": {
    "_hex": "0x14756"
  },
  "miner": "0xf927a40C8B7F6E07c5af7FA2155B4864a4112B13",
  "extraData": "0x",
  "transactions": [
    {
      "hash": "0x4698353e4d9b12a682dc529d908b011fa0d8629e60e55378c6f5fd7ee9d08240",
      "blockHash": "0xb12cf6cde33e126c749e271ff098deeca55c1683fe3094281c0c73587d502fab",
      "blockNumber": 81954,
      "transactionIndex": 0,
      "confirmations": null,
      "from": "0x82f39B2758aE42277B86d69F75E628d958EbCAb0",
      "gasPrice": {
        "_hex": "0x110c8f7d8de"
      },
      "gasLimit": {
        "_hex": "0xc350"
      },
      "to": "0x2910543Af39abA0Cd09dBb2D50200b3E800A63D2",
      "value": {
        "_hex": "0x362ed9526c0aee0000"
      },
      "nonce": 2,
      "data": "0x454e34483356554547",
      "r": "0x3c80b5449fd89001ebeba85672eb5c610bed6981c29a4b636993e3064ebde5b2",
      "s": "0x4fe288daf86f8f5120e81c21779f8ccaca6d559f4d524a6c485961c9182f983b",
      "v": 28,
      "creates": null,
      "raw": "0xf87702860110c8f7d8de82c350942910543af39aba0cd09dbb2d50200b3e800a63d289362ed9526c0aee000089454e344833565545471ca03c80b5449fd89001ebeba85672eb5c610bed6981c29a4b636993e3064ebde5b2a04fe288daf86f8f5120e81c21779f8ccaca6d559f4d524a6c485961c9182f983b",
      "networkId": 0,
      "chainId": 0
    },
    {
      "hash": "0x7c13079ab1440cf5e5b2dfbb57e093543420b79aca7fcea99640415df82e7bb1",
      "blockHash": "0xb12cf6cde33e126c749e271ff098deeca55c1683fe3094281c0c73587d502fab",
      "blockNumber": 81954,
      "transactionIndex": 1,
      "confirmations": null,
      "from": "0x0D82Cd113DC35DdDA93f38166cD5CDe8b88e36A1",
      "gasPrice": {
        "_hex": "0xde8e5dd3f"
      },
      "gasLimit": {
        "_hex": "0x15f90"
      },
      "to": "0x3cb6797fD58b6A4a6D3107f686f09df04b62f6E4",
      "value": {
        "_hex": "0x0"
      },
      "nonce": 4,
      "data": "0x748dc522",
      "r": "0x6d006b05a4f8f9d2003cd198b1979fabadc3a5ce1a074837c63b275e8a4a2fc7",
      "s": "0x277256710e4992ddd1c2cf4107959a482c08d0ea848cdd0f34b55246981d7678",
      "v": 27,
      "creates": null,
      "raw": "0xf86904850de8e5dd3f83015f90943cb6797fd58b6a4a6d3107f686f09df04b62f6e48084748dc5221ba06d006b05a4f8f9d2003cd198b1979fabadc3a5ce1a074837c63b275e8a4a2fc7a0277256710e4992ddd1c2cf4107959a482c08d0ea848cdd0f34b55246981d7678",
      "networkId": 0,
      "chainId": 0
    }
  ]
}