{
  "hash": "0x685b467d3de73dc44593eebfbb7126c0ec32114274a0a5e4d51abb70ddcbaa2b",
  "parentHash": "0xe55af836cc26ca03f2d28b1f8e19450b71582f0a5d75100aed6946cf15ed27f9",
  "number": 95096,
  "timestamp": 1439718904,
  "nonce": "0x75e6dea090505434",
  "difficulty": 3500031820464,
  "gasLimit": {
    "_hex": "0x2fefd8"
  },
  "gasUsed": {
    "_hex": "0x5208"
  },
  "miner": "0x007f7f58D3eb5b7510A301eCC749FC1fCDDBE14D",
  "extraData": "0x476574682f76312e302e312f77696e646f77732f676f312e342e32",
  "transactions": [
    {
      "hash": "0xf5c3402c66ee26df1c6c5827d6f1f421f773630a7352085bf2accf56e5511672",
      "blockHash": "0x685b467d3de73dc44593eebfbb7126c0ec32114274a0a5e4d51abb70ddcbaa2b",
      "blockNumber": 95096,
      "transactionIndex": 0,
      "confirmations": null,
      "from": "0x859217617481BD9b6E3e38f6aE9BB677F0D26154",
      "gasPrice": {
        "_hex": "0xcd28d70cd"
      },
      "gasLimit": {
        "_hex": "0x5208"
      },
      "to": "0x32Be343B94f860124dC4fEe278FDCBD38C102D88",
      "value": {
        "_hex": "0x5150aa68d1d6340000"
      },
      "nonce": 10,
      "data": "0x",
      "r": "0xa8522dada1f25da0d8d80319d1c432958e562e7212c4f84af3fd667ebddbdb0d",
      "s": "0x13cb422999bd5fb81ae59325dd0dae539de6c658abd270894d006dd5b995f52d",
      "v": 28,
      "creates": null,
      "raw": "0xf86d0a850cd28d70cd8252089432be343b94f860124dc4fee278fdcbd38c102d88895150aa68d1d6340000801ca0a8522dada1f25da0d8d80319d1c432958e562e7212c4f84af3fd667ebddbdb0da013cb422999bd5fb81ae59325dd0dae539de6c658abd270894d006dd5b995f52d",
      "networkId": 0,
      "chainId": 0
    }
  ]
}