{
  "hash": "0xcff72593c0a56509d549eaa2b59d7833b48443a075ca2b14e9f031001c1cc047",
  "parentHash": "0x9f97e14fea9e4852606a185265b52e0624449e6dbd0601cbb79d09cd6e14940f",
  "number": 101986,
  "timestamp": 1439830962,
  "nonce": "0xbb3904855f401a43",
  "difficulty": 3928122807411,
  "gasLimit": {
    "_hex": "0x2fefd8"
  },
  "gasUsed": {
    "_hex": "0xf618"
  },
  "miner": "0xe6A7a1d47ff21B6321162AEA7C6CB457D5476Bca",
  "extraData": "0x476574682f76312e302e312d38326566323666362f6c696e75782f676f312e34",
  "transactions": [
    {
      "hash": "0x1f5bf773cfe99db56e668ceef8a43e74aac7154465ed3a1204e60489174a2e1d",
      "blockHash": "0xcff72593c0a56509d549eaa2b59d7833b48443a075ca2b14e9f031001c1cc047",
      "blockNumber": 101986,
      "transactionIndex": 0,
      "confirmations": null,
      "from": "0xa70a9a7040d542C632D8e0bE7c5513A8a5Bbc752",
      "gasPrice": {
        "_hex": "0xd66bca394"
      },
      "gasLimit": {
        "_hex": "0x5208"
      },
      "to": "0x32Be343B94f860124dC4fEe278FDCBD38C102D88",
      "value": {
        "_hex": "0x455f3a06449e9c00"
      },
      "nonce": 216,
      "data": "0x",
      "r": "0x1bf54e662244fed3aa85f20af2f275513b09f7102a4d0021616bb9cd1062f154",
      "s": "0x68da317bf3ba05783687f2283efe8719d0d45300ceda8a49e8a2cce5bd0126f3",
      "v": 27,
      "creates": null,
      "raw": "0xf86d81d8850d66bca3948252089432be343b94f860124dc4fee278fdcbd38c102d8888455f3a06449e9c00801ba01bf54e662244fed3aa85f20af2f275513b09f7102a4d0021616bb9cd1062f154a068da317bf3ba05783687f2283efe8719d0d45300ceda8a49e8a2cce5bd0126f3",
      "networkId": 0,
      "chainId": 0
    },
    {
      "hash": "0x4d432f8e762f7b105f14f8ea3eef6ae12940a1fcb0521c2d782b7f421391bc9e",
      "blockHash": "0xcff72593c0a56509d549eaa2b59d7833b48443a075ca2b14e9f031001c1cc047",
      "blockNumber": 101986,
      "transactionIndex": 1,
      "confirmations": null,
      "from": "0x08D90a139AA9949d1acc691e41b1C091Ca8263eF",
      "gasPrice": {
        "_hex": "0xd66bca394"
      },
      "gasLimit": {
        "_hex": "0x5208"
      },
      "to": "0x32Be343B94f860124dC4fEe278FDCBD38C102D88",
      "value": {
        "_hex": "0x15aef218f1697d0000"
      },
      "nonce": 1,
      "data": "0x",
      "r": "0xc47478bd86600e88efc1898acb2b21b0af22252e196318c9f024bd93558fef0b",
      "s": "0x3252ce9a297ddef339f70a6b3f407c0f63e8f9f4d826f9317e24a52a50e1b00a",
      "v": 28,
      "creates": null,
      "raw": "0xf86d01850d66bca3948252089432be343b94f860124dc4fee278fdcbd38c102d888915aef218f1697d0000801ca0c47478bd86600e88efc1898acb2b21b0af22252e196318c9f024bd93558fef0ba03252ce9a297ddef339f70a6b3f407c0f63e8f9f4d826f9317e24a52a50e1b00a",
      "networkId": 0,
      "chainId": 0
    },
    {
      "hash": "0x2716ff82fb62726cfb4370c824fd0f28ee74fd69fe24db154ce235e7fd949745",
      "blockHash": "0xcff72593c0a56509d549eaa2b59d7833b48443a075ca2b14e9f031001c1cc047",
      "blockNumber": 101986,
      "transactionIndex": 2,
      "confirmations": null,
      "from": "0xCe9c625962110c153781F6A98559BDfa3A37a0Dc",
      "gasPrice": {
        "_hex": "0xd66bca394"
      },
      "gasLimit": {
        "_hex": "0x5208"
      },
      "to": "0x32Be343B94f860124dC4fEe278FDCBD38C102D88",
      "value": {
        "_hex": "0x7dcb1f17ee51000000"
      },
      "nonce": 1,
      "data": "0x",
      "r": "0x0608cd69efc59fc26843f435c43a0b5b633602da4d41da86fbd22a3a7b0fe4cb",
      "s": "0x558ca8400fdf040f2260f1a6722930b33b034d91a0bfb2b705e3c5745807fd67",
      "v": 27,
      "creates": null,
      "raw": "0xf86d01850d66bca3948252089432be343b94f860124dc4fee278fdcbd38c102d88897dcb1f17ee51000000801ba00608cd69efc59fc26843f435c43a0b5b633602da4d41da86fbd22a3a7b0fe4cba0558ca8400fdf040f2260f1a6722930b33b034d91a0bfb2b705e3c5745807fd67",
      "networkId": 0,
      "chainId": 0
    }
  ]
}