{
  "hash": "0x3d8d11378076306aaa239e5e2cb091bad23567e9c96dcdfb473572d0ac7e789b",
  "parentHash": "0xc5818de4405d6f0d43db1d19f2ded7f74d65274942e31622dd30e31d661d82cc",
  "number": 114045,
  "timestamp": 1440033856,
  "nonce": "0x29790054d089d0a3",
  "difficulty": 4459970218557,
  "gasLimit": {
    "_hex": "0x2fefd8"
  },
  "gasUsed": {
    "_hex": "0x18326"
  },
  "miner": "0x580992B51e3925e23280EfB93d3047C82f17E038",
  "extraData": "0x476574682f76312e302e312f6c696e75782f676f312e342e32",
  "transactions": [
    {
      "hash": "0x1b688889c7a504ad1d23a9850a136618884e88115a4749f641acc4add46d17e7",
      "blockHash": "0x3d8d11378076306aaa239e5e2cb091bad23567e9c96dcdfb473572d0ac7e789b",
      "blockNumber": 114045,
      "transactionIndex": 0,
      "confirmations": null,
      "from": "0x412a68f6C645559cC977Fc4964047a201d1bb0e2",
      "gasPrice": {
        "_hex": "0xd3d37f23a"
      },
      "gasLimit": {
        "_hex": "0x249f0"
      },
      "to": "0xE28e72FCf78647ADCe1F1252F240bbfaebD63BcC",
      "value": {
        "_hex": "0x2b5e3af16b1880000"
      },
      "nonce": 4,
      "data": "0x45466f3a",
      "r": "0x52486693e3e6a1f72787a207c72facb7d1e2c0a5d533806b4825d7bdffe3ee46",
      "s": "0x781723cfe995ed2fa5a70fdb09de6cf472690ead8a64f6eb456cc3b347996c65",
      "v": 27,
      "creates": null,
      "raw": "0xf87204850d3d37f23a830249f094e28e72fcf78647adce1f1252f240bbfaebd63bcc8902b5e3af16b18800008445466f3a1ba052486693e3e6a1f72787a207c72facb7d1e2c0a5d533806b4825d7bdffe3ee46a0781723cfe995ed2fa5a70fdb09de6cf472690ead8a64f6eb456cc3b347996c65",
      "networkId": 0,
      "chainId": 0
    }
  ]
}