{
  "hash": "0xaae31b800d05565fa3b75ec3bf3ff2b4623b78341e9ca223714dcbecd13c8021",
  "parentHash": "0x61b467073d0b4b4f538234db4d6bc51f16c4ff151bde0d6e1ab3567a8c818413",
  "number": 113347,
  "timestamp": 1440021810,
  "nonce": "0xfbd8dab7d5f716b0",
  "difficulty": 4504112743673,
  "gasLimit": {
    "_hex": "0x2fefd8"
  },
  "gasUsed": {
    "_hex": "0x5208"
  },
  "miner": "0x3738B70e6241841FFb3e1f733d77C15EBc227278",
  "extraData": "0x476574682f76312e302e302f77696e646f77732f676f312e342e32",
  "transactions": [
    {
      "hash": "0x428eb337113363d45757277af0d3490a57f58f06b130d8f68c4531d6f76f57c0",
      "blockHash": "0xaae31b800d05565fa3b75ec3bf3ff2b4623b78341e9ca223714dcbecd13c8021",
      "blockNumber": 113347,
      "transactionIndex": 0,
      "confirmations": null,
      "from": "0x0DBaD90C967BFfeA4d6B589c0d2AF50A0eA16304",
      "gasPrice": {
        "_hex": "0xd48049079"
      },
      "gasLimit": {
        "_hex": "0x5208"
      },
      "to": "0x32Be343B94f860124dC4fEe278FDCBD38C102D88",
      "value": {
        "_hex": "0x2ca45f5548f12a000"
      },
      "nonce": 5,
      "data": "0x",
      "r": "0x82d99f69c533fbd15227477f1f8986ab0d5220ea0abe05cc8ec54ad12afd2449",
      "s": "0x2f34411c8a61bd61ecda627b31348ce9e0b8bfb635ecfe912f5dacf947488319",
      "v": 28,
      "creates": null,
      "raw": "0xf86d05850d480490798252089432be343b94f860124dc4fee278fdcbd38c102d888902ca45f5548f12a000801ca082d99f69c533fbd15227477f1f8986ab0d5220ea0abe05cc8ec54ad12afd2449a02f34411c8a61bd61ecda627b31348ce9e0b8bfb635ecfe912f5dacf947488319",
      "networkId": 0,
      "chainId": 0
    }
  ]
}