{
  "hash": "0xf4c3657590f6bb3163ad6c866839217278cbca9e30143c5ce4470847f57b38b4",
  "parentHash": "0x9fb5f0426d5797faada1243e57684a8fec039763f53393f88429b0362be40d42",
  "number": 111319,
  "timestamp": 1439988091,
  "nonce": "0x55cd909bf8ec3026",
  "difficulty": 4435355088686,
  "gasLimit": {
    "_hex": "0x2fefd8"
  },
  "gasUsed": {
    "_hex": "0x5208"
  },
  "miner": "0x790b8a3cE86E707ED0eD32bF89B3269692a23CC1",
  "extraData": "0xd783010001844765746887676f312e342e32856c696e7578",
  "transactions": [
    {
      "hash": "0xf50ce03d2e3a538493b59dfcc3841ac34750b8a0de336a5982090113c69c8cb1",
      "blockHash": "0xf4c3657590f6bb3163ad6c866839217278cbca9e30143c5ce4470847f57b38b4",
      "blockNumber": 111319,
      "transactionIndex": 0,
      "confirmations": null,
      "from": "0x120A270bbC009644e35F0bB6ab13f95b8199c4ad",
      "gasPrice": {
        "_hex": "0xd445fe9f3"
      },
      "gasLimit": {
        "_hex": "0x3d090"
      },
      "to": "0xdDbddD1BBd38fFADE0305d30f02028D92e9f3Aa8",
      "value": {
        "_hex": "0x25f273933db5700000"
      },
      "nonce": 874,
      "data": "0x",
      "r": "0xadae5d76ac6e365599eef422faee204c300fed79f053298923446f666120fbce",
      "s": "0x7f1ccd80ec03264c1ba838a53b3f0b19224cd97431b02af39d78d4a8dc70fbae",
      "v": 28,
      "creates": null,
      "raw": "0xf87082036a850d445fe9f38303d09094ddbddd1bbd38ffade0305d30f02028d92e9f3aa88925f273933db5700000801ca0adae5d76ac6e365599eef422faee204c300fed79f053298923446f666120fbcea07f1ccd80ec03264c1ba838a53b3f0b19224cd97431b02af39d78d4a8dc70fbae",
      "networkId": 0,
      "chainId": 0
    }
  ]
}