{
  "hash": "0xe800f725ac075f44183a844df2fbdc26452cef95cec66098bc46f5cdb94d9426",
  "parentHash": "0x645f0a35b9612e24d838080e4edeaa05123eeb0f3941f703dcc9507d1333915b",
  "number": 51212,
  "timestamp": 1439001245,
  "nonce": "0x9ef05a41fa3555ab",
  "difficulty": 1564328255356,
  "gasLimit": {
    "_hex": "0x9a902"
  },
  "gasUsed": {
    "_hex": "0x546c"
  },
  "miner": "0xe6A7a1d47ff21B6321162AEA7C6CB457D5476Bca",
  "extraData": "0x657468706f6f6c2e6f7267",
  "transactions": [
    {
      "hash": "0x7268fe3ef42f0fd0041a61f11d3dd85fb0b10be11fe2379fe7dbbd6652cbdd9f",
      "blockHash": "0xe800f725ac075f44183a844df2fbdc26452cef95cec66098bc46f5cdb94d9426",
      "blockNumber": 51212,
      "transactionIndex": 0,
      "confirmations": null,
      "from": "0x01c4Ad90B6A33Cc301b7F8d0b4024f51186c385B",
      "gasPrice": {
        "_hex": "0xcdd3f9412"
      },
      "gasLimit": {
        "_hex": "0x15f90"
      },
      "to": "0x2910543Af39abA0Cd09dBb2D50200b3E800A63D2",
      "value": {
        "_hex": "0xde0b6b3a7640000"
      },
      "nonce": 0,
      "data": "0x454e4432414b4b5847",
      "r": "0x6a61ebbf556dfafab115309223f4d203022a35ef231911919630b80d247eb9c6",
      "s": "0x03412ab0646771e7300ccce052020f4059a97865a7aebc9db4ab3ca3f381c4bd",
      "v": 27,
      "creates": null,
      "raw": "0xf87680850cdd3f941283015f90942910543af39aba0cd09dbb2d50200b3e800a63d2880de0b6b3a764000089454e4432414b4b58471ba06a61ebbf556dfafab115309223f4d203022a35ef231911919630b80d247eb9c6a003412ab0646771e7300ccce052020f4059a97865a7aebc9db4ab3ca3f381c4bd",
      "networkId": 0,
      "chainId": 0
    }
  ]
}