{
  "hash": "0x4f8b8b2620bd11f3afe8e5a0f5c9c42d98cc8b08b940ac99bc79d4dab36ef120",
  "parentHash": "0x1a9caa845317b94a178e64d7b86753cff8e3ed90d80b8a8a672cd3c057ca7707",
  "number": 51364,
  "timestamp": 1439003631,
  "nonce": "0x2249ba78efc4fab6",
  "difficulty": 1571956772328,
  "gasLimit": {
    "_hex": "0xa8445"
  },
  "gasUsed": {
    "_hex": "0x546c"
  },
  "miner": "0xFC51D7bFF03328dC190c416DFf3Db6CEb8dbdA7B",
  "extraData": "0x476574682f76312e302e312f77696e646f77732f676f312e342e32",
  "transactions": [
    {
      "hash": "0xbf0e0a8c9cecf29900715344c495ae5baed48c662b68103b0f5cd3a27c7ebdbd",
      "blockHash": "0x4f8b8b2620bd11f3afe8e5a0f5c9c42d98cc8b08b940ac99bc79d4dab36ef120",
      "blockNumber": 51364,
      "transactionIndex": 0,
      "confirmations": null,
      "from": "0x34BDAF0a5ed72734a4c4c6CE6Cc8132EC81fb2a8",
      "gasPrice": {
        "_hex": "0xdb2816147"
      },
      "gasLimit": {
        "_hex": "0x61a8"
      },
      "to": "0x46018d9a643A0d10FE11a8e0CDe17c4367f1dBd7",
      "value": {
        "_hex": "0xde0b6b3a7640000"
      },
      "nonce": 1,
      "data": "0x454e37465148485647",
      "r": "0xf6eeecdaccb98e6b726b15dc874be4d46ef6d9aba1c00140e81c09e2bae609b7",
      "s": "0x27ff18d39bfe1f090f96bab31dc66fba5b0161e59269b9ec9e4cbc8fa1ee879e",
      "v": 27,
      "creates": null,
      "raw": "0xf87501850db28161478261a89446018d9a643a0d10fe11a8e0cde17c4367f1dbd7880de0b6b3a764000089454e374651484856471ba0f6eeecdaccb98e6b726b15dc874be4d46ef6d9aba1c00140e81c09e2bae609b7a027ff18d39bfe1f090f96bab31dc66fba5b0161e59269b9ec9e4cbc8fa1ee879e",
      "networkId": 0,
      "chainId": 0
    }
  ]
}