{
  "hash": "0xfb9b7e1cab05c4362380fe6649f9bb725e25872977de34f8e9924436c5b29555",
  "parentHash": "0xa7ecbba3c88670ef65548adb22ebb2ebc8ce69a4517b89cea9245941523bfbae",
  "number": 105459,
  "timestamp": 1439887959,
  "nonce": "0xd4a44e64505d6cc3",
  "difficulty": 4395321230213,
  "gasLimit": {
    "_hex": "0x2fefd8"
  },
  "gasUsed": {
    "_hex": "0x5208"
  },
  "miner": "0xe6A7a1d47ff21B6321162AEA7C6CB457D5476Bca",
  "extraData": "0x476574682f76312e302e312d38326566323666362f6c696e75782f676f312e34",
  "transactions": [
    {
      "hash": "0xba22fd94a8d621d32da0ff2d1e33e3077c48da9b5fa2eb91eacff9f564393730",
      "blockHash": "0xfb9b7e1cab05c4362380fe6649f9bb725e25872977de34f8e9924436c5b29555",
      "blockNumber": 105459,
      "transactionIndex": 0,
      "confirmations": null,
      "from": "0x7C197542A77e913547d2E58e8d3c6F224f6f0f98",
      "gasPrice": {
        "_hex": "0xd076f85e1"
      },
      "gasLimit": {
        "_hex": "0x5208"
      },
      "to": "0x32Be343B94f860124dC4fEe278FDCBD38C102D88",
      "value": {
        "_hex": "0xe2a2e7ee6c0f1000"
      },
      "nonce": 3,
      "data": "0x",
      "r": "0x07c0368b782e7231713366b159f268887a37bba791ce2e120e4c4566e84b54ff",
      "s": "0x156b2a698afa6d92806d232fdf4342b076dae8336c8549b2debd25a97568dd91",
      "v": 27,
      "creates": null,
      "raw": "0xf86c03850d076f85e18252089432be343b94f860124dc4fee278fdcbd38c102d8888e2a2e7ee6c0f1000801ba007c0368b782e7231713366b159f268887a37bba791ce2e120e4c4566e84b54ffa0156b2a698afa6d92806d232fdf4342b076dae8336c8549b2debd25a97568dd91",
      "networkId": 0,
      "chainId": 0
    }
  ]
}