{
  "hash": "0xc66ed5205c3acf30e3d7cd8054c1c0a0dd2967316a653dab4f416b10a3657ac0",
  "parentHash": "0xc5b690f7487e843c0ed5efac7a1230cde0c8f2ff0a019687864be7bcf8ff034e",
  "number": 109517,
  "timestamp": 1439957939,
  "nonce": "0x3d24cdca792e7a95",
  "difficulty": 4440642421013,
  "gasLimit": {
    "_hex": "0x2fefd8"
  },
  "gasUsed": {
    "_hex": "0x5208"
  },
  "miner": "0xe6A7a1d47ff21B6321162AEA7C6CB457D5476Bca",
  "extraData": "0x476574682f76312e302e312d38326566323666362f6c696e75782f676f312e34",
  "transactions": [
    {
      "hash": "0x4d7c2b6246936cd26d60bc6f95c4bc39fdcf83202a849e895085cda683d79bb0",
      "blockHash": "0xc66ed5205c3acf30e3d7cd8054c1c0a0dd2967316a653dab4f416b10a3657ac0",
      "blockNumber": 109517,
      "transactionIndex": 0,
      "confirmations": null,
      "from": "0xf8a58969d2FbBf009542432480fe2D49037Ed976",
      "gasPrice": {
        "_hex": "0xdb2f59b28"
      },
      "gasLimit": {
        "_hex": "0x5208"
      },
      "to": "0x32Be343B94f860124dC4fEe278FDCBD38C102D88",
      "value": {
        "_hex": "0x6f0151dc58222800"
      },
      "nonce": 1,
      "data": "0x",
      "r": "0x678b671c0e5f5c1c5d4fb55485153d8ec792cc1d0708b5c1ee1552be5547dd0d",
      "s": "0x60f65f0a8afc4ee7b6827db36e18132bf6e31d0d73746407453fbda31842a425",
      "v": 28,
      "creates": null,
      "raw": "0xf86c01850db2f59b288252089432be343b94f860124dc4fee278fdcbd38c102d88886f0151dc58222800801ca0678b671c0e5f5c1c5d4fb55485153d8ec792cc1d0708b5c1ee1552be5547dd0da060f65f0a8afc4ee7b6827db36e18132bf6e31d0d73746407453fbda31842a425",
      "networkId": 0,
      "chainId": 0
    }
  ]
}