{
  "hash": "0xd5b8ef23eb39a567e368310268a08587adc382556082b26409d1390febc6a55c",
  "parentHash": "0xa3660afce3885d85b16b2a0f516aa873de79d63143ac7a0e90d93fe16c7e5cee",
  "number": 103285,
  "timestamp": 1439850699,
  "nonce": "0xa82e1767937f6da2",
  "difficulty": 4182859434788,
  "gasLimit": {
    "_hex": "0x2fefd8"
  },
  "gasUsed": {
    "_hex": "0x5208"
  },
  "miner": "0xbb7B8287f3F0a933474a79eAe42CBCa977791171",
  "extraData": "0x476574682f4c5649562f76312e302e312f6c696e75782f676f312e342e32",
  "transactions": [
    {
      "hash": "0x34e1bc32be032ea6081805226944f5a3b677dac4500ed796b84c37a09a7d32f7",
      "blockHash": "0xd5b8ef23eb39a567e368310268a08587adc382556082b26409d1390febc6a55c",
      "blockNumber": 103285,
      "transactionIndex": 0,
      "confirmations": null,
      "from": "0xBb7f43EDfd8bf08B022fEd5BD91e3f9dE7e74D09",
      "gasPrice": {
        "_hex": "0xdc4e8e8ca"
      },
      "gasLimit": {
        "_hex": "0x5208"
      },
      "to": "0x32Be343B94f860124dC4fEe278FDCBD38C102D88",
      "value": {
        "_hex": "0x8ac2ae1ecb5c5000"
      },
      "nonce": 2,
      "data": "0x",
      "r": "0x69219ad7c31cef2b7d4e84f1120914a7e77a00eb1b5335babea107cad1155923",
      "s": "0x4ad12a7faf1ca1870ad0f2521f2e250057e09e0909aa59c61b14fdebddab0011",
      "v": 28,
      "creates": null,
      "raw": "0xf86c02850dc4e8e8ca8252089432be343b94f860124dc4fee278fdcbd38c102d88888ac2ae1ecb5c5000801ca069219ad7c31cef2b7d4e84f1120914a7e77a00eb1b5335babea107cad1155923a04ad12a7faf1ca1870ad0f2521f2e250057e09e0909aa59c61b14fdebddab0011",
      "networkId": 0,
      "chainId": 0
    }
  ]
}