{
  "hash": "0xc282618145408755e4c976d1d81c7c3e52d36518ceb17342ddc1d59094c3f12a",
  "parentHash": "0x6742ab3afd6dd9b84df25dcb331c8b3f74d0b6ee7e678c26ff97be7e9c153e1c",
  "number": 118921,
  "timestamp": 1440133729,
  "nonce": "0xec888063dd621252",
  "difficulty": 4392560811292,
  "gasLimit": {
    "_hex": "0x2fefd8"
  },
  "gasUsed": {
    "_hex": "0x5208"
  },
  "miner": "0xe6A7a1d47ff21B6321162AEA7C6CB457D5476Bca",
  "extraData": "0xd783010002844765746887676f312e342e32856c696e7578",
  "transactions": [
    {
      "hash": "0xbcf0b15ea5cdb51b3600b54ff9e8ffcb2d25b5e6bf606942fe4d0a018009f107",
      "blockHash": "0xc282618145408755e4c976d1d81c7c3e52d36518ceb17342ddc1d59094c3f12a",
      "blockNumber": 118921,
      "transactionIndex": 0,
      "confirmations": null,
      "from": "0xFBb1b73C4f0BDa4f67dcA266ce6Ef42f520fBB98",
      "gasPrice": {
        "_hex": "0xba43b7400"
      },
      "gasLimit": {
        "_hex": "0x5208"
      },
      "to": "0x1Fabd401B08dF84f615091C14C6db1a5E0BeaD0c",
      "value": {
        "_hex": "0x5b751dbb4c226000"
      },
      "nonce": 243,
      "data": "0x",
      "r": "0x7099d0976dad182c34e4b4bd4a19e6e4d2860724320e18c00d1bfc3700a927e8",
      "s": "0x07f5e90fecabbce7be97fcb7f348327b16ba2ff06e7e0fa535aa6331efb32dca",
      "v": 28,
      "creates": null,
      "raw": "0xf86d81f3850ba43b7400825208941fabd401b08df84f615091c14c6db1a5e0bead0c885b751dbb4c226000801ca07099d0976dad182c34e4b4bd4a19e6e4d2860724320e18c00d1bfc3700a927e8a007f5e90fecabbce7be97fcb7f348327b16ba2ff06e7e0fa535aa6331efb32dca",
      "networkId": 0,
      "chainId": 0
    }
  ]
}