{
  "hash": "0x7005823f044a136f99431d98073987d67b4b86846965b26488c2ff1bc14aafdf",
  "parentHash": "0x7ccb0f2299a9875cdd0e978f1d644ce0917f53a701bb1516aa8243c456abce92",
  "number": 68723,
  "timestamp": 1439292711,
  "nonce": "0x15b8837df1d9aef9",
  "difficulty": 2019183591322,
  "gasLimit": {
    "_hex": "0x2fefd8"
  },
  "gasUsed": {
    "_hex": "0x9400"
  },
  "miner": "0xe6A7a1d47ff21B6321162AEA7C6CB457D5476Bca",
  "extraData": "0x476574682f76312e302e312d38326566323666362f6c696e75782f676f312e34",
  "transactions": [
    {
      "hash": "0x9c7c0d314ef834252666994c8dbfa261be344b3dd14350b804581f1b1c3edebc",
      "blockHash": "0x7005823f044a136f99431d98073987d67b4b86846965b26488c2ff1bc14aafdf",
      "blockNumber": 68723,
      "transactionIndex": 0,
      "confirmations": null,
      "from": "0xc8ebccC5F5689Fa8659d83713341e5aD19349448",
      "gasPrice": {
        "_hex": "0xe0ed7f956"
      },
      "gasLimit": {
        "_hex": "0x61a80"
      },
      "to": "0x5Fe5B7546D1628f7348B023A0393de1FC825A4fD",
      "value": {
        "_hex": "0xde0b6b3a7640000"
      },
      "nonce": 33,
      "data": "0xb595b8b50000000000000000000000000000000000000000000000000000000000000001",
      "r": "0xd67a024576426059d9612fb4d2111952558c9146e0f8e6e7239c0dee8394879b",
      "s": "0x18431c032d7eb3f2f17f3f8a71382f0dff6fb616034b4cba436a26961520387f",
      "v": 27,
      "creates": null,
      "raw": "0xf89121850e0ed7f95683061a80945fe5b7546d1628f7348b023a0393de1fc825a4fd880de0b6b3a7640000a4b595b8b500000000000000000000000000000000000000000000000000000000000000011ba0d67a024576426059d9612fb4d2111952558c9146e0f8e6e7239c0dee8394879ba018431c032d7eb3f2f17f3f8a71382f0dff6fb616034b4cba436a26961520387f",
      "networkId": 0,
      "chainId": 0
    }
  ]
}