{
  "hash": "0x8e2a359df472fc0bb09d343569ad5de67b1b33948f899037d9de8ade5ca84814",
  "parentHash": "0x48a07f63d6e7ff9629b0a1d366444274c2309b61d77fe5056e59e9b9d1c8ea61",
  "number": 49123,
  "timestamp": 1438968487,
  "nonce": "0x527fe1d29e7f2e85",
  "difficulty": 1476390203771,
  "gasLimit": {
    "_hex": "0x2677e"
  },
  "gasUsed": {
    "_hex": "0x5208"
  },
  "miner": "0xab84940B570d6358ed6A9Dbf7e0bc8Ec8F5A6E89",
  "extraData": "0x322831652933",
  "transactions": [
    {
      "hash": "0xdc799b4109bbe91f475f79430f64cc60af686ea56353fbff126746cec72fcd38",
      "blockHash": "0x8e2a359df472fc0bb09d343569ad5de67b1b33948f899037d9de8ade5ca84814",
      "blockNumber": 49123,
      "transactionIndex": 0,
      "confirmations": null,
      "from": "0x268724e66A4DC6904f398c8F7EC7ab30E56c8A68",
      "gasPrice": {
        "_hex": "0xcdd56d8ee"
      },
      "gasLimit": {
        "_hex": "0x15f90"
      },
      "to": "0x15f1B352110D68901d8f67AAC46A6cFafE031477",
      "value": {
        "_hex": "0x82195bc4c37f10000"
      },
      "nonce": 0,
      "data": "0x",
      "r": "0xd76ad7d8c86e57aad367b2188347bf29d852b869ab3b4adce4028684e21099de",
      "s": "0x6c368ddb0903ff23028d09d99c30e3520d8fe967aa1a665f82d07ae9a1be2df6",
      "v": 27,
      "creates": null,
      "raw": "0xf86e80850cdd56d8ee83015f909415f1b352110d68901d8f67aac46a6cfafe03147789082195bc4c37f10000801ba0d76ad7d8c86e57aad367b2188347bf29d852b869ab3b4adce4028684e21099dea06c368ddb0903ff23028d09d99c30e3520d8fe967aa1a665f82d07ae9a1be2df6",
      "networkId": 0,
      "chainId": 0
    }
  ]
}