{
  "hash": "0x39b2637a8e3e3dbf0255c3e04720aaa1b9d0a7ed343dfe34a8c84e1dbe1afea2",
  "parentHash": "0x954e80fb277b44d0466d462adac4dfc37a3e1e9f22319f6349810970449d31f2",
  "number": 110389,
  "timestamp": 1439972897,
  "nonce": "0x26110eebe6c28c49",
  "difficulty": 4371342209206,
  "gasLimit": {
    "_hex": "0x2fefd8"
  },
  "gasUsed": {
    "_hex": "0x4ce78"
  },
  "miner": "0xbb7B8287f3F0a933474a79eAe42CBCa977791171",
  "extraData": "0x476574682f4c5649562f76312e302e312f6c696e75782f676f312e342e32",
  "transactions": [
    {
      "hash": "0xc0bbc129647d908ac46197e49a70ab51596358e9b44e8a761a478fe33ecb3ef0",
      "blockHash": "0x39b2637a8e3e3dbf0255c3e04720aaa1b9d0a7ed343dfe34a8c84e1dbe1afea2",
      "blockNumber": 110389,
      "transactionIndex": 0,
      "confirmations": null,
      "from": "0xe6A7a1d47ff21B6321162AEA7C6CB457D5476Bca",
      "gasPrice": {
        "_hex": "0xd1978c1e0"
      },
      "gasLimit": {
        "_hex": "0x55f0"
      },
      "to": "0xC2B0FB302729ef0f4aa96C0E02cC2346459294DF",
      "value": {
        "_hex": "0x1d1b9ae8e6cbb52c"
      },
      "nonce": 4598,
      "data": "0x",
      "r": "0x804bd91c519ed3f50080968ec27cfc4d029c7d81a3e79c734e9a0a749bebd3be",
      "s": "0x55948fce9e111c82705660dbb7a8872f50ade5437e8c67156f90b8af31b86d9e",
      "v": 27,
      "creates": null,
      "raw": "0xf86e8211f6850d1978c1e08255f094c2b0fb302729ef0f4aa96c0e02cc2346459294df881d1b9ae8e6cbb52c801ba0804bd91c519ed3f50080968ec27cfc4d029c7d81a3e79c734e9a0a749bebd3bea055948fce9e111c82705660dbb7a8872f50ade5437e8c67156f90b8af31b86d9e",
      "networkId": 0,
      "chainId": 0
    },
    {
      "hash": "0x2658714d1a49709278424c87ec793ac8303acdce48aea30ee7e57e0288f0ca10",
      "blockHash": "0x39b2637a8e3e3dbf0255c3e04720aaa1b9d0a7ed343dfe34a8c84e1dbe1afea2",
      "blockNumber": 110389,
      "transactionIndex": 1,
      "confirmations": null,
      "from": "0xe6A7a1d47ff21B6321162AEA7C6CB457D5476Bca",
      "gasPrice": {
        "_hex": "0xd1978c1e0"
      },
      "gasLimit": {
        "_hex": "0x55f0"
      },
      "to": "0x20b2a17fFa355d7Bcb269812A39e8F57D750A5b3",
      "value": {
        "_hex": "0x1dbefdb5bb16f828"
      },
      "nonce": 4599,
      "data": "0x",
      "r": "0xfba0953cea242c14b984355ba3dc35d763289b832b0b5defe2f2ee1a80354486",
      "s": "0x599281b8e61c5585b83ce9db4e36937fe9e89981d88a423ac774c1c1afcad69c",
      "v": 28,
      "creates": null,
      "raw": "0xf86e8211f7850d1978c1e08255f09420b2a17ffa355d7bcb269812a39e8f57d750a5b3881dbefdb5bb16f828801ca0fba0953cea242c14b984355ba3dc35d763289b832b0b5defe2f2ee1a80354486a0599281b8e61c5585b83ce9db4e36937fe9e89981d88a423ac774c1c1afcad69c",
      "networkId": 0,
      "chainId": 0
    },
    {
      "hash": "0x9c413f435bcb7c528e0fb0db480744a8db3e04be41d4c5d45559d19177041f56",
      "blockHash": "0x39b2637a8e3e3dbf0255c3e04720aaa1b9d0a7ed343dfe34a8c84e1dbe1afea2",
      "blockNumber": 110389,
      "transactionIndex": 2,
      "confirmations": null,
      "from": "0xe6A7a1d47ff21B6321162AEA7C6CB457D5476Bca",
      "gasPrice": {
        "_hex": "0xd1978c1e0"
      },
      "gasLimit": {
        "_hex": "0x55f0"
      },
      "to": "0xee04bfEDEa5A989165311fe3d04136ce8841208f",
      "value": {
        "_hex": "0x39617f2e8c18d3e4"
      },
      "nonce": 4600,
      "data": "0x",
      "r": "0xc788ab436aaf6a5ba97cdc3ff34648dde4de48d34ec65d44b67f34d4c5bdc2fb",
      "s": "0x1620e3d10005db709a79aef886e062356c25534d950dcf37ddc2c69d071a5eb5",
      "v": 27,
      "creates": null,
      "raw": "0xf86e8211f8850d1978c1e08255f094ee04bfedea5a989165311fe3d04136ce8841208f8839617f2e8c18d3e4801ba0c788ab436aaf6a5ba97cdc3ff34648dde4de48d34ec65d44b67f34d4c5bdc2fba01620e3d10005db709a79aef886e062356c25534d950dcf37ddc2c69d071a5eb5",
      "networkId": 0,
      "chainId": 0
    },
    {
      "hash": "0x486d78670f60d860fafa0d3f782f901949117f95e6c5ec70a6837d41381edd9c",
      "blockHash": "0x39b2637a8e3e3dbf0255c3e04720aaa1b9d0a7ed343dfe34a8c84e1dbe1afea2",
      "blockNumber": 110389,
      "transactionIndex": 3,
      "confirmations": null,
      "from": "0xe6A7a1d47ff21B6321162AEA7C6CB457D5476Bca",
      "gasPrice": {
        "_hex": "0xd1978c1e0"
      },
      "gasLimit": {
        "_hex": "0x55f0"
      },
      "to": "0x6Ca7109e3020A822bc419d4F8d35F6b929398407",
      "value": {
        "_hex": "0x49c95f1b9bf71c40"
      },
      "nonce": 4601,
      "data": "0x",
      "r": "0x414badb24504d9849b1e922016fe556bb0e6182804eb79e5908c098bcc8952bf",
      "s": "0x2a40243767c212c2855dcd12c65eb1394410efacb531627c3573166a3f968955",
      "v": 27,
      "creates": null,
      "raw": "0xf86e8211f9850d1978c1e08255f0946ca7109e3020a822bc419d4f8d35f6b9293984078849c95f1b9bf71c40801ba0414badb24504d9849b1e922016fe556bb0e6182804eb79e5908c098bcc8952bfa02a40243767c212c2855dcd12c65eb1394410efacb531627c3573166a3f968955",
      "networkId": 0,
      "chainId": 0
    },
    {
      "hash": "0xae4d411c3fb78ea1345235996af3f62a5113c709df9c93e41af46cba9636f096",
      "blockHash": "0x39b2637a8e3e3dbf0255c3e04720aaa1b9d0a7ed343dfe34a8c84e1dbe1afea2",
      "blockNumber": 110389,
      "transactionIndex": 4,
      "confirmations": null,
      "from": "0xe6A7a1d47ff21B6321162AEA7C6CB457D5476Bca",
      "gasPrice": {
        "_hex": "0xd1978c1e0"
      },
      "gasLimit": {
        "_hex": "0x55f0"
      },
      "to": "0xF9d39b090fBC6669b52606272a0Cea56BDAb638A",
      "value": {
        "_hex": "0x4ddeca86364e0d50"
      },
      "nonce": 4602,
      "data": "0x",
      "r": "0x9f1e2988aa9420715d4e2ec497d5d793d7c61aca4e6682f4bfdc55037096503d",
      "s": "0x3972f2429e26b8d1dbe78f6cc760e7fd09596638fe37a1dcce53113554ae7f61",
      "v": 28,
      "creates": null,
      "raw": "0xf86e8211fa850d1978c1e08255f094f9d39b090fbc6669b52606272a0cea56bdab638a884ddeca86364e0d50801ca09f1e2988aa9420715d4e2ec497d5d793d7c61aca4e6682f4bfdc55037096503da03972f2429e26b8d1dbe78f6cc760e7fd09596638fe37a1dcce53113554ae7f61",
      "networkId": 0,
      "chainId": 0
    },
    {
      "hash": "0x4a98f2f6b86af107476886d40f49a70abec3147c0753c4d7b8f8e0950bcc7222",
      "blockHash": "0x39b2637a8e3e3dbf0255c3e04720aaa1b9d0a7ed343dfe34a8c84e1dbe1afea2",
      "blockNumber": 110389,
      "transactionIndex": 5,
      "confirmations": null,
      "from": "0xe6A7a1d47ff21B6321162AEA7C6CB457D5476Bca",
      "gasPrice": {
        "_hex": "0xd1978c1e0"
      },
      "gasLimit": {
        "_hex": "0x55f0"
      },
      "to": "0x0D3111E6CfA28bc8745057bD71E0D10FEB4C7AE7",
      "value": {
        "_hex": "0x5607cf13fc8faa38"
      },
      "nonce": 4603,
      "data": "0x",
      "r": "0x422bac8004b3e59bced24a360157e265ac041d80556dd0cd706bfd6be7135431",
      "s": "0x60c5115a742594f77122b07e35ed74e938e851bf3badcb1f6e56566cae3bc5d0",
      "v": 28,
      "creates": null,
      "raw": "0xf86e8211fb850d1978c1e08255f0940d3111e6cfa28bc8745057bd71e0d10feb4c7ae7885607cf13fc8faa38801ca0422bac8004b3e59bced24a360157e265ac041d80556dd0cd706bfd6be7135431a060c5115a742594f77122b07e35ed74e938e851bf3badcb1f6e56566cae3bc5d0",
      "networkId": 0,
      "chainId": 0
    },
    {
      "hash": "0xdb94c379c55b9d182ed951c4215448fca35b1e87b91ecca0cd645367c95c809d",
      "blockHash": "0x39b2637a8e3e3dbf0255c3e04720aaa1b9d0a7ed343dfe34a8c84e1dbe1afea2",
      "blockNumber": 110389,
      "transactionIndex": 6,
      "confirmations": null,
      "from": "0xe6A7a1d47ff21B6321162AEA7C6CB457D5476Bca",
      "gasPrice": {
        "_hex": "0xd1978c1e0"
      },
      "gasLimit": {
        "_hex": "0x55f0"
      },
      "to": "0xB1A4B41b8e75a153841c99c62d18588d45e7b406",
      "value": {
        "_hex": "0x57354169ca48ee80"
      },
      "nonce": 4604,
      "data": "0x",
      "r": "0xf44a25bac45d59e2d806bd7d429cb049639dbf3c4fbf393d62f2acf925acc8ba",
      "s": "0x440fe57b8a7fbbc3743a20222522d36de6de72ce82df227a7fab960f596ba7f5",
      "v": 27,
      "creates": null,
      "raw": "0xf86e8211fc850d1978c1e08255f094b1a4b41b8e75a153841c99c62d18588d45e7b4068857354169ca48ee80801ba0f44a25bac45d59e2d806bd7d429cb049639dbf3c4fbf393d62f2acf925acc8baa0440fe57b8a7fbbc3743a20222522d36de6de72ce82df227a7fab960f596ba7f5",
      "networkId": 0,
      "chainId": 0
    },
    {
      "hash": "0xd98ac8b59e7e32e652b82b865cf7c58cea7f708f01056a605877f718a187ce9d",
      "blockHash": "0x39b2637a8e3e3dbf0255c3e04720aaa1b9d0a7ed343dfe34a8c84e1dbe1afea2",
      "blockNumber": 110389,
      "transactionIndex": 7,
      "confirmations": null,
      "from": "0xe6A7a1d47ff21B6321162AEA7C6CB457D5476Bca",
      "gasPrice": {
        "_hex": "0xd1978c1e0"
      },
      "gasLimit": {
        "_hex": "0x55f0"
      },
      "to": "0x10BD1134A760f6b35247e3cb33673a18bC95a7E7",
      "value": {
        "_hex": "0x5e179d1d7a114a68"
      },
      "nonce": 4605,
      "data": "0x",
      "r": "0xfb1d5380b7b806a9f80d8645eb5b0367bb2461f97dd64733b1cd7e3922bca357",
      "s": "0x0c50da71ef56c6132fee6f035fbf0b3b338e03cc40d2136c3e3ff8f5ddad0399",
      "v": 28,
      "creates": null,
      "raw": "0xf86e8211fd850d1978c1e08255f09410bd1134a760f6b35247e3cb33673a18bc95a7e7885e179d1d7a114a68801ca0fb1d5380b7b806a9f80d8645eb5b0367bb2461f97dd64733b1cd7e3922bca357a00c50da71ef56c6132fee6f035fbf0b3b338e03cc40d2136c3e3ff8f5ddad0399",
      "networkId": 0,
      "chainId": 0
    },
    {
      "hash": "0x88c2aebfcc532478cfc05aa637a2b048abfebb223a42c5c08616a259bc4cd1a9",
      "blockHash": "0x39b2637a8e3e3dbf0255c3e04720aaa1b9d0a7ed343dfe34a8c84e1dbe1afea2",
      "blockNumber": 110389,
      "transactionIndex": 8,
      "confirmations": null,
      "from": "0xe6A7a1d47ff21B6321162AEA7C6CB457D5476Bca",
      "gasPrice": {
        "_hex": "0xd1978c1e0"
      },
      "gasLimit": {
        "_hex": "0x55f0"
      },
      "to": "0x923707da8Dd7Ff41a0bDD87b62c9E5DfA9c420a5",
      "value": {
        "_hex": "0x5ee44b3d00106028"
      },
      "nonce": 4606,
      "data": "0x",
      "r": "0x7ab24ae44b19289027bb54bfa7fad53cea8373aae5b7821afeb58b940d86cca2",
      "s": "0x725f1a26e27bfd99c98fde034aedb3f7908584d96c211168de7f67cc0049717b",
      "v": 27,
      "creates": null,
      "raw": "0xf86e8211fe850d1978c1e08255f094923707da8dd7ff41a0bdd87b62c9e5dfa9c420a5885ee44b3d00106028801ba07ab24ae44b19289027bb54bfa7fad53cea8373aae5b7821afeb58b940d86cca2a0725f1a26e27bfd99c98fde034aedb3f7908584d96c211168de7f67cc0049717b",
      "networkId": 0,
      "chainId": 0
    },
    {
      "hash": "0x388a27d08acb3a06dce9be04d8ee1fa4adb89ce050ffd0ceab28efded000ff1b",
      "blockHash": "0x39b2637a8e3e3dbf0255c3e04720aaa1b9d0a7ed343dfe34a8c84e1dbe1afea2",
      "blockNumber": 110389,
      "transactionIndex": 9,
      "confirmations": null,
      "from": "0xe6A7a1d47ff21B6321162AEA7C6CB457D5476Bca",
      "gasPrice": {
        "_hex": "0xd1978c1e0"
      },
      "gasLimit": {
        "_hex": "0x55f0"
      },
      "to": "0x2435CaC661de90FF84BF79A55629C5bc30B40a0d",
      "value": {
        "_hex": "0x60ec1ffb28c11ae8"
      },
      "nonce": 4607,
      "data": "0x",
      "r": "0x1a2446b847ee91ed45ee2bc32ec49806c9cc95373d20571d5298c0d42923ddd1",
      "s": "0x64e6353d5bcccb84448bf29c24cbf53771cf2f2d89ead308502120151b408ffb",
      "v": 28,
      "creates": null,
      "raw": "0xf86e8211ff850d1978c1e08255f0942435cac661de90ff84bf79a55629c5bc30b40a0d8860ec1ffb28c11ae8801ca01a2446b847ee91ed45ee2bc32ec49806c9cc95373d20571d5298c0d42923ddd1a064e6353d5bcccb84448bf29c24cbf53771cf2f2d89ead308502120151b408ffb",
      "networkId": 0,
      "chainId": 0
    },
    {
      "hash": "0x316159d64715fd149bff82d0a27ef111d6527a13afe6c25cf97a1cd244162291",
      "blockHash": "0x39b2637a8e3e3dbf0255c3e04720aaa1b9d0a7ed343dfe34a8c84e1dbe1afea2",
      "blockNumber": 110389,
      "transactionIndex": 10,
      "confirmations": null,
      "from": "0xe6A7a1d47ff21B6321162AEA7C6CB457D5476Bca",
      "gasPrice": {
        "_hex": "0xd1978c1e0"
      },
      "gasLimit": {
        "_hex": "0x55f0"
      },
      "to": "0xB4EcAAfC5fB10d5D30A931de851f3FF1DaD41141",
      "value": {
        "_hex": "0x628738be7f9cee28"
      },
      "nonce": 4608,
      "data": "0x",
      "r": "0x8e58e8622832ab0cb03005a81e38836ba4c163e4a08b0825bea95a1df2fc2cad",
      "s": "0x4b78a23779577cf9b2b5766b3ec988a843b3bd1d32dffd660457b14c19eb72de",
      "v": 27,
      "creates": null,
      "raw": "0xf86e821200850d1978c1e08255f094b4ecaafc5fb10d5d30a931de851f3ff1dad4114188628738be7f9cee28801ba08e58e8622832ab0cb03005a81e38836ba4c163e4a08b0825bea95a1df2fc2cada04b78a23779577cf9b2b5766b3ec988a843b3bd1d32dffd660457b14c19eb72de",
      "networkId": 0,
      "chainId": 0
    },
    {
      "hash": "0x9a0dc2de23d8cdf500f44ba4dd30a6806674570fa0e193f6b3b75cf5c7677691",
      "blockHash": "0x39b2637a8e3e3dbf0255c3e04720aaa1b9d0a7ed343dfe34a8c84e1dbe1afea2",
      "blockNumber": 110389,
      "transactionIndex": 11,
      "confirmations": null,
      "from": "0xe6A7a1d47ff21B6321162AEA7C6CB457D5476Bca",
      "gasPrice": {
        "_hex": "0xd1978c1e0"
      },
      "gasLimit": {
        "_hex": "0x55f0"
      },
      "to": "0x3F6DDbC103F2999640fe4AFc6884708fa691C2b8",
      "value": {
        "_hex": "0x6d019e787324f268"
      },
      "nonce": 4609,
      "data": "0x",
      "r": "0x47f05620711762b7f03bd8ba91844eea98a35f9c99e0517f2e27397bedc9b16b",
      "s": "0x08f00d44cff9d8d9b47f227b281d61b335c38c81a8daab3e30f9c0d8fe94f351",
      "v": 27,
      "creates": null,
      "raw": "0xf86e821201850d1978c1e08255f0943f6ddbc103f2999640fe4afc6884708fa691c2b8886d019e787324f268801ba047f05620711762b7f03bd8ba91844eea98a35f9c99e0517f2e27397bedc9b16ba008f00d44cff9d8d9b47f227b281d61b335c38c81a8daab3e30f9c0d8fe94f351",
      "networkId": 0,
      "chainId": 0
    },
    {
      "hash": "0x4b27943c4c933821f9fb55e448e52e34570802e307cb5f4f9ca7c8b79d5b28cd",
      "blockHash": "0x39b2637a8e3e3dbf0255c3e04720aaa1b9d0a7ed343dfe34a8c84e1dbe1afea2",
      "blockNumber": 110389,
      "transactionIndex": 12,
      "confirmations": null,
      "from": "0xe6A7a1d47ff21B6321162AEA7C6CB457D5476Bca",
      "gasPrice": {
        "_hex": "0xd1978c1e0"
      },
      "gasLimit": {
        "_hex": "0x55f0"
      },
      "to": "0x610821723ac6726cBCec2037C83743dfbDADa663",
      "value": {
        "_hex": "0x8fcb0fa397481700"
      },
      "nonce": 4610,
      "data": "0x",
      "r": "0xe6391205ddd8115aea6609290db400c93003f06cdaadeb5387b2ada04020d8b1",
      "s": "0x661e0202940c5af421dd4a7c0fd524c524a410262ebc1b73291f79be8c03fcee",
      "v": 27,
      "creates": null,
      "raw": "0xf86e821202850d1978c1e08255f094610821723ac6726cbcec2037c83743dfbdada663888fcb0fa397481700801ba0e6391205ddd8115aea6609290db400c93003f06cdaadeb5387b2ada04020d8b1a0661e0202940c5af421dd4a7c0fd524c524a410262ebc1b73291f79be8c03fcee",
      "networkId": 0,
      "chainId": 0
    },
    {
      "hash": "0x48a4f6bc4a558a3e5b932470293a9ca50f57aa6ec4a6ccaafe15dc02f06a38b9",
      "blockHash": "0x39b2637a8e3e3dbf0255c3e04720aaa1b9d0a7ed343dfe34a8c84e1dbe1afea2",
      "blockNumber": 110389,
      "transactionIndex": 13,
      "confirmations": null,
      "from": "0xC15233674F0Cb7729e4Ab8aB733430C40580914d",
      "gasPrice": {
        "_hex": "0xcfd45d70d"
      },
      "gasLimit": {
        "_hex": "0x5208"
      },
      "to": "0x32Be343B94f860124dC4fEe278FDCBD38C102D88",
      "value": {
        "_hex": "0x5f13daa042250000"
      },
      "nonce": 8,
      "data": "0x",
      "r": "0x742e56eb59bcc556c91b46391ba57196190a04b63e27ebdff2e55b102559699c",
      "s": "0x1c466065b81ce8c3aa4b39282d0420a24d39a3c297d12f08f485a27db374a9a3",
      "v": 27,
      "creates": null,
      "raw": "0xf86c08850cfd45d70d8252089432be343b94f860124dc4fee278fdcbd38c102d88885f13daa042250000801ba0742e56eb59bcc556c91b46391ba57196190a04b63e27ebdff2e55b102559699ca01c466065b81ce8c3aa4b39282d0420a24d39a3c297d12f08f485a27db374a9a3",
      "networkId": 0,
      "chainId": 0
    },
    {
      "hash": "0x707bbf3bcd5d08d6b98ea70cf73f5d3eea03c312603d14be496947e7fad288a0",
      "blockHash": "0x39b2637a8e3e3dbf0255c3e04720aaa1b9d0a7ed343dfe34a8c84e1dbe1afea2",
      "blockNumber": 110389,
      "transactionIndex": 14,
      "confirmations": null,
      "from": "0xcA422f88253D0492F13F304eBCF34892B3c07AEc",
      "gasPrice": {
        "_hex": "0xcfd45d70d"
      },
      "gasLimit": {
        "_hex": "0x5208"
      },
      "to": "0x32Be343B94f860124dC4fEe278FDCBD38C102D88",
      "value": {
        "_hex": "0x2839f389e3f248000"
      },
      "nonce": 6,
      "data": "0x",
      "r": "0x1a85a2a2c5ad71b8edc1d66affa4e6d2bfd089b4afb0c60a2620f43b7b46d1a5",
      "s": "0x46b459cfda1606e64b1b50ded8d22b29cc084e5c8ad1555eb71f745cf34c5278",
      "v": 28,
      "creates": null,
      "raw": "0xf86d06850cfd45d70d8252089432be343b94f860124dc4fee278fdcbd38c102d888902839f389e3f248000801ca01a85a2a2c5ad71b8edc1d66affa4e6d2bfd089b4afb0c60a2620f43b7b46d1a5a046b459cfda1606e64b1b50ded8d22b29cc084e5c8ad1555eb71f745cf34c5278",
      "networkId": 0,
      "chainId": 0
    }
  ]
}