{
  "hash": "0x2f2152b8b233db2a9fb2797921233567209e765136e748a5803c5404c2ec6039",
  "parentHash": "0xe2bef5a9cf2f9dbf0bc0e829869ebbfb8eb4b02025329561730aa7285d1c30eb",
  "number": 115243,
  "timestamp": 1440053914,
  "nonce": "0xdcc61ef722707aee",
  "difficulty": 4533983167739,
  "gasLimit": {
    "_hex": "0x2fefd8"
  },
  "gasUsed": {
    "_hex": "0x5208"
  },
  "miner": "0xe6A7a1d47ff21B6321162AEA7C6CB457D5476Bca",
  "extraData": "0x476574682f76312e302e312d38326566323666362f6c696e75782f676f312e34",
  "transactions": [
    {
      "hash": "0x4ec144cd7db82e631e0a4a3c72ec0b48ef869ac230d9b0e5f080b7ea9eb98cc6",
      "blockHash": "0x2f2152b8b233db2a9fb2797921233567209e765136e748a5803c5404c2ec6039",
      "blockNumber": 115243,
      "transactionIndex": 0,
      "confirmations": null,
      "from": "0x32Be343B94f860124dC4fEe278FDCBD38C102D88",
      "gasPrice": {
        "_hex": "0xd2e933ffd"
      },
      "gasLimit": {
        "_hex": "0x5208"
      },
      "to": "0xCaf1C12c783fCcC4066e87a376F94518141dEF80",
      "value": {
        "_hex": "0xcf9c98bd0fd80000"
      },
      "nonce": 1419,
      "data": "0x",
      "r": "0x517888dc2c907d484ab33d09683bea4744f4177a5f85337baf713d74ef9e8da1",
      "s": "0x4003326e15ae20c19aff2e6b18a8b486582e38444b2e6d3124c5ef5fde28d7d2",
      "v": 28,
      "creates": null,
      "raw": "0xf86e82058b850d2e933ffd82520894caf1c12c783fccc4066e87a376f94518141def8088cf9c98bd0fd80000801ca0517888dc2c907d484ab33d09683bea4744f4177a5f85337baf713d74ef9e8da1a04003326e15ae20c19aff2e6b18a8b486582e38444b2e6d3124c5ef5fde28d7d2",
      "networkId": 0,
      "chainId": 0
    }
  ]
}