{
  "hash": "0x7cd0676de9e3ed692dd940195104495ac092c1e0dff48450f75319242af9d08f",
  "parentHash": "0xb770fe7cad7f10c5391070173d36eb1425e73d70148575c53ee19d99634d6747",
  "number": 120764,
  "timestamp": 1440165408,
  "nonce": "0x25aa47a76cb65ecd",
  "difficulty": 4449876208073,
  "gasLimit": {
    "_hex": "0x2fefd8"
  },
  "gasUsed": {
    "_hex": "0xa410"
  },
  "miner": "0xf927a40C8B7F6E07c5af7FA2155B4864a4112B13",
  "extraData": "0xd783010100844765746887676f312e342e32856c696e7578",
  "transactions": [
    {
      "hash": "0x745b86eed701b0a4e5d345524a7507530473d7aaa5ae10987b986be9e81970a8",
      "blockHash": "0x7cd0676de9e3ed692dd940195104495ac092c1e0dff48450f75319242af9d08f",
      "blockNumber": 120764,
      "transactionIndex": 0,
      "confirmations": null,
      "from": "0xa70a9a7040d542C632D8e0bE7c5513A8a5Bbc752",
      "gasPrice": {
        "_hex": "0xba43b7400"
      },
      "gasLimit": {
        "_hex": "0x5208"
      },
      "to": "0x32Be343B94f860124dC4fEe278FDCBD38C102D88",
      "value": {
        "_hex": "0x455fd68a17f06000"
      },
      "nonce": 329,
      "data": "0x",
      "r": "0x9628943e60a4448f1f7989ef1a243663cfea8dbeec5a054becddb2004c949fe8",
      "s": "0x3458b270f1c56cf3fbbcb90eebb1f577912f7b47182709fa6d664c51300e79a4",
      "v": 27,
      "creates": null,
      "raw": "0xf86e820149850ba43b74008252089432be343b94f860124dc4fee278fdcbd38c102d8888455fd68a17f06000801ba09628943e60a4448f1f7989ef1a243663cfea8dbeec5a054becddb2004c949fe8a03458b270f1c56cf3fbbcb90eebb1f577912f7b47182709fa6d664c51300e79a4",
      "networkId": 0,
      "chainId": 0
    },
    {
      "hash": "0xdec63625979f6c1ad19358e162020aaf1cb94720a50af177d464aa876a036ce7",
      "blockHash": "0x7cd0676de9e3ed692dd940195104495ac092c1e0dff48450f75319242af9d08f",
      "blockNumber": 120764,
      "transactionIndex": 1,
      "confirmations": null,
      "from": "0x141fa78c66d63e2F123f9B8530B9c03Fd94D9420",
      "gasPrice": {
        "_hex": "0xba43b7400"
      },
      "gasLimit": {
        "_hex": "0x5208"
      },
      "to": "0x32Be343B94f860124dC4fEe278FDCBD38C102D88",
      "value": {
        "_hex": "0x6eca061a6ae6000"
      },
      "nonce": 1,
      "data": "0x",
      "r": "0x7274ee39581cb829b81c46b3dbe36513302ced346d2bd0c7ed63c34ffc00ac29",
      "s": "0x224a4b736d53b25ebd964c76d153159207d8f30c81a674137968dd5382e62b73",
      "v": 28,
      "creates": null,
      "raw": "0xf86c01850ba43b74008252089432be343b94f860124dc4fee278fdcbd38c102d888806eca061a6ae6000801ca07274ee39581cb829b81c46b3dbe36513302ced346d2bd0c7ed63c34ffc00ac29a0224a4b736d53b25ebd964c76d153159207d8f30c81a674137968dd5382e62b73",
      "networkId": 0,
      "chainId": 0
    }
  ]
}