{
  "hash": "0x7e0c7f8240333d1fa206cbe22f51dc17e7b3a990f88dc6596cb24707b5989ca3",
  "parentHash": "0x34ee35f8e669f9a2ed3b055f35b537ebbb09e3e21bb9a38659b7d5e989729184",
  "number": 71006,
  "timestamp": 1439328936,
  "nonce": "0xb69b9bbd4d948cab",
  "difficulty": 2160397454072,
  "gasLimit": {
    "_hex": "0x2fefd8"
  },
  "gasUsed": {
    "_hex": "0x5208"
  },
  "miner": "0xF78645Ea06d743C6B52a11EB3f3d486bbb4Cf01F",
  "extraData": "0x",
  "transactions": [
    {
      "hash": "0x57a89a9391c00e6d4d31fffd64c2b67c5c20f202818a62aca30f3cae3d48e607",
      "blockHash": "0x7e0c7f8240333d1fa206cbe22f51dc17e7b3a990f88dc6596cb24707b5989ca3",
      "blockNumber": 71006,
      "transactionIndex": 0,
      "confirmations": null,
      "from": "0xee5379D0c1ca47327368027455074C26D9952628",
      "gasPrice": {
        "_hex": "0xdc9a19201"
      },
      "gasLimit": {
        "_hex": "0x15f90"
      },
      "to": "0x029b539130345336FA435C807F08B86a344A1BFe",
      "value": {
        "_hex": "0xd5b7ca6845040000"
      },
      "nonce": 3,
      "data": "0x",
      "r": "0xa20e7943d4832e3067e5c4cb0f4f00d0e07f3a78435ee583eed5da3491811228",
      "s": "0x520e98e02ce3ea733327f847e4570eaedb8fcb39135b4479de76b47e4f4ac1c5",
      "v": 27,
      "creates": null,
      "raw": "0xf86d03850dc9a1920183015f9094029b539130345336fa435c807f08b86a344a1bfe88d5b7ca6845040000801ba0a20e7943d4832e3067e5c4cb0f4f00d0e07f3a78435ee583eed5da3491811228a0520e98e02ce3ea733327f847e4570eaedb8fcb39135b4479de76b47e4f4ac1c5",
      "networkId": 0,
      "chainId": 0
    }
  ]
}