{
  "hash": "0xa1febc48d3d4133e0eec881ea4c5c3ad8f1de75087a5a0a568586b0a1baecf9e",
  "parentHash": "0x06b5bc1871afc432d231adf3c9ac1e4deca84cb3ad2fe9e0912bb2db9b4f096c",
  "number": 116298,
  "timestamp": 1440071687,
  "nonce": "0xa82324712aa4182d",
  "difficulty": 4598063475095,
  "gasLimit": {
    "_hex": "0x2fefd8"
  },
  "gasUsed": {
    "_hex": "0x5208"
  },
  "miner": "0xe6A7a1d47ff21B6321162AEA7C6CB457D5476Bca",
  "extraData": "0x476574682f76312e302e312d38326566323666362f6c696e75782f676f312e34",
  "transactions": [
    {
      "hash": "0x66c6c9f2610cd092f76856e3b846d61774b734ac264d85f28acb4b7eb6a835f5",
      "blockHash": "0xa1febc48d3d4133e0eec881ea4c5c3ad8f1de75087a5a0a568586b0a1baecf9e",
      "blockNumber": 116298,
      "transactionIndex": 0,
      "confirmations": null,
      "from": "0x4D67f4F0Db45b3B5a3424B39ed8d972F710381D5",
      "gasPrice": {
        "_hex": "0xde16c3574"
      },
      "gasLimit": {
        "_hex": "0x5208"
      },
      "to": "0x32Be343B94f860124dC4fEe278FDCBD38C102D88",
      "value": {
        "_hex": "0x2f9df7cf3fb05e000"
      },
      "nonce": 48,
      "data": "0x",
      "r": "0x317c47854e7c451a8a3380c70b79936cc6c2b3068b1ab821c203ea1ae4c97470",
      "s": "0x6038e7152d347db743100022b44ed694bc3e8d5ef17644bf97ce744208f2b630",
      "v": 28,
      "creates": null,
      "raw": "0xf86d30850de16c35748252089432be343b94f860124dc4fee278fdcbd38c102d888902f9df7cf3fb05e000801ca0317c47854e7c451a8a3380c70b79936cc6c2b3068b1ab821c203ea1ae4c97470a06038e7152d347db743100022b44ed694bc3e8d5ef17644bf97ce744208f2b630",
      "networkId": 0,
      "chainId": 0
    }
  ]
}