{
  "hash": "0x6fdc7f71fe996ce65fbb230c2c406ca789e84193e60cb275c596f5814bea9868",
  "parentHash": "0x5114ef9b46a210b6d3876159ccf850bb591f4176eeb35aaa35eac2264848d96d",
  "number": 48967,
  "timestamp": 1438965731,
  "nonce": "0xe66883a3450515e5",
  "difficulty": 1483644360071,
  "gasLimit": {
    "_hex": "0x221ff"
  },
  "gasUsed": {
    "_hex": "0x546c"
  },
  "miner": "0xbb7B8287f3F0a933474a79eAe42CBCa977791171",
  "extraData": "0x476574682f4c5649562f76312e302e312f6c696e75782f676f312e342e32",
  "transactions": [
    {
      "hash": "0x451b5790c15a0f8b3f090b740a63d1ce1eeec6000c272b5efca11d3a8abada95",
      "blockHash": "0x6fdc7f71fe996ce65fbb230c2c406ca789e84193e60cb275c596f5814bea9868",
      "blockNumber": 48967,
      "transactionIndex": 0,
      "confirmations": null,
      "from": "0xf13e1B3e962978440FB6a81EC7eFcD5282B2ff99",
      "gasPrice": {
        "_hex": "0xd829211eb"
      },
      "gasLimit": {
        "_hex": "0x15f90"
      },
      "to": "0x2910543Af39abA0Cd09dBb2D50200b3E800A63D2",
      "value": {
        "_hex": "0xde0b6b3a7640000"
      },
      "nonce": 0,
      "data": "0x454e325a4454505152",
      "r": "0x4458302a259f8d9ef1987b719cc79b569f6e2045a1754c5af4b6c14e939ea5b2",
      "s": "0x49da37af38a2ef6fb4f64fc1c9640c57eab79c179fe2c462adcbbe68064e4b3a",
      "v": 28,
      "creates": null,
      "raw": "0xf87680850d829211eb83015f90942910543af39aba0cd09dbb2d50200b3e800a63d2880de0b6b3a764000089454e325a44545051521ca04458302a259f8d9ef1987b719cc79b569f6e2045a1754c5af4b6c14e939ea5b2a049da37af38a2ef6fb4f64fc1c9640c57eab79c179fe2c462adcbbe68064e4b3a",
      "networkId": 0,
      "chainId": 0
    }
  ]
}