{
  "hash": "0x2b84974d861b15c3801e451fb3577457cbaa54c534da369a67a8861c077241e2",
  "parentHash": "0x475b3e8e126c0b39be368874922e998a0470b3bcfc62fb9c9bb80534fc737167",
  "number": 113276,
  "timestamp": 1440020582,
  "nonce": "0xbf83f0c497e60753",
  "difficulty": 4523988054974,
  "gasLimit": {
    "_hex": "0x2fefd8"
  },
  "gasUsed": {
    "_hex": "0x5208"
  },
  "miner": "0x580992B51e3925e23280EfB93d3047C82f17E038",
  "extraData": "0x476574682f76312e302e312f6c696e75782f676f312e342e32",
  "transactions": [
    {
      "hash": "0x4ee85e4baead0bf5e71860edf078a17843403ef7497151e5f1e8e5872faa2fbb",
      "blockHash": "0x2b84974d861b15c3801e451fb3577457cbaa54c534da369a67a8861c077241e2",
      "blockNumber": 113276,
      "transactionIndex": 0,
      "confirmations": null,
      "from": "0x32Be343B94f860124dC4fEe278FDCBD38C102D88",
      "gasPrice": {
        "_hex": "0xcd42a6812"
      },
      "gasLimit": {
        "_hex": "0x5208"
      },
      "to": "0xDa1d8D4c5fcF90F031f912409052224a15B83101",
      "value": {
        "_hex": "0x8aa39c121a270000"
      },
      "nonce": 1359,
      "data": "0x",
      "r": "0x1732de049b8536bd7c4ee67d4070e3f21065ecd9621adbbcb138b00752d1b354",
      "s": "0x2e2294e14b08523cc00cb0806dac46b893687cf4ac0d5651fa5733fe65346175",
      "v": 28,
      "creates": null,
      "raw": "0xf86e82054f850cd42a681282520894da1d8d4c5fcf90f031f912409052224a15b83101888aa39c121a270000801ca01732de049b8536bd7c4ee67d4070e3f21065ecd9621adbbcb138b00752d1b354a02e2294e14b08523cc00cb0806dac46b893687cf4ac0d5651fa5733fe65346175",
      "networkId": 0,
      "chainId": 0
    }
  ]
}