{
  "hash": "0xf2ca34d4495fa2503824bba9a18f9aa5c5d8da0b63d768ee3daef61a784dea65",
  "parentHash": "0x682bad268d70232e820fd4938f041e32a35d08be4180c733f2ba18fbd78eeff9",
  "number": 64527,
  "timestamp": 1439222354,
  "nonce": "0x4657caed4ca1aba0",
  "difficulty": 1875686476802,
  "gasLimit": {
    "_hex": "0x2fefd8"
  },
  "gasUsed": {
    "_hex": "0x23b44"
  },
  "miner": "0x0037ce3d4B7f8729C8607D8D0248252Be68202c0",
  "extraData": "0x476574682f76312e302e312f77696e646f77732f676f312e342e32",
  "transactions": [
    {
      "hash": "0x829be18a3a6da47dde91786f8a572e1b71db602ac823f25390baccef96b91d0f",
      "blockHash": "0xf2ca34d4495fa2503824bba9a18f9aa5c5d8da0b63d768ee3daef61a784dea65",
      "blockNumber": 64527,
      "transactionIndex": 0,
      "confirmations": null,
      "from": "0x52216e23190E8398A68c70757236aCFeEF34F3c5",
      "gasPrice": {
        "_hex": "0xba43b7400"
      },
      "gasLimit": {
        "_hex": "0x15f90"
      },
      "to": "0x793AE8C1b1a160BFc07BFB0d04F85eab1A71F4f2",
      "value": {
        "_hex": "0x0"
      },
      "nonce": 0,
      "data": "0x3ba15036",
      "r": "0xaba5c6acb4db5ec2b87aa57649cca62c347608566374edefda35d672584abd6d",
      "s": "0x023d6ad24a3b99834a7bcd1936764b3150bf91546aa905561624a7b93098d1f3",
      "v": 28,
      "creates": null,
      "raw": "0xf86980850ba43b740083015f9094793ae8c1b1a160bfc07bfb0d04f85eab1a71f4f280843ba150361ca0aba5c6acb4db5ec2b87aa57649cca62c347608566374edefda35d672584abd6da0023d6ad24a3b99834a7bcd1936764b3150bf91546aa905561624a7b93098d1f3",
      "networkId": 0,
      "chainId": 0
    },
    {
      "hash": "0x1b01df1de2b1766710ba96015f79b9e485f2fde0e7226c1cd3f3167b5b23553b",
      "blockHash": "0xf2ca34d4495fa2503824bba9a18f9aa5c5d8da0b63d768ee3daef61a784dea65",
      "blockNumber": 64527,
      "transactionIndex": 1,
      "confirmations": null,
      "from": "0x20a8D178f543EaFdab3638E52c6546b6Db0536c2",
      "gasPrice": {
        "_hex": "0xba43b7400"
      },
      "gasLimit": {
        "_hex": "0x15f90"
      },
      "to": "0x793AE8C1b1a160BFc07BFB0d04F85eab1A71F4f2",
      "value": {
        "_hex": "0x0"
      },
      "nonce": 0,
      "data": "0x3ba15036",
      "r": "0x4c32c177b5000ecd9ecc506237d8b489d684dc16076b8e6b2bea689e88e64a6a",
      "s": "0x2706813e5ad51c24109063ad1167c8827f0d717e0e8d3a17b09b62cea04d1c8f",
      "v": 28,
      "creates": null,
      "raw": "0xf86980850ba43b740083015f9094793ae8c1b1a160bfc07bfb0d04f85eab1a71f4f280843ba150361ca04c32c177b5000ecd9ecc506237d8b489d684dc16076b8e6b2bea689e88e64a6aa02706813e5ad51c24109063ad1167c8827f0d717e0e8d3a17b09b62cea04d1c8f",
      "networkId": 0,
      "chainId": 0
    },
    {
      "hash": "0x2e30f617a5fc9c29e5863aacf51b7c2e6dba4770fb4991c7bc0730db642cd01d",
      "blockHash": "0xf2ca34d4495fa2503824bba9a18f9aa5c5d8da0b63d768ee3daef61a784dea65",
      "blockNumber": 64527,
      "transactionIndex": 2,
      "confirmations": null,
      "from": "0xB5512b430FC2E9F3867cB3B5B9b15D4f1f51943d",
      "gasPrice": {
        "_hex": "0xba43b7400"
      },
      "gasLimit": {
        "_hex": "0x15f90"
      },
      "to": "0x793AE8C1b1a160BFc07BFB0d04F85eab1A71F4f2",
      "value": {
        "_hex": "0x0"
      },
      "nonce": 0,
      "data": "0x3ba15036",
      "r": "0x82a8ec7ffeab5f753d75995543ba682ef78f6fecfd6efb89a58621d64c51a02b",
      "s": "0x2b856da55b64d62ab257c6fed0e2f3fd478527ac4722a327d7e96a2f207288c6",
      "v": 28,
      "creates": null,
      "raw": "0xf86980850ba43b740083015f9094793ae8c1b1a160bfc07bfb0d04f85eab1a71f4f280843ba150361ca082a8ec7ffeab5f753d75995543ba682ef78f6fecfd6efb89a58621d64c51a02ba02b856da55b64d62ab257c6fed0e2f3fd478527ac4722a327d7e96a2f207288c6",
      "networkId": 0,
      "chainId": 0
    }
  ]
}