{
  "hash": "0xd96255385beceaab07be71ac629c18da2d5ece42652b0d7a7eadadb8d36a4884",
  "parentHash": "0x2fbfcebdebc8cc7871ff5d919f6ce9eedb274d59cb0428110fa8a29b1aac7256",
  "number": 95658,
  "timestamp": 1439727435,
  "nonce": "0xe53b0d93bef98ee4",
  "difficulty": 3617952260962,
  "gasLimit": {
    "_hex": "0x2fefd8"
  },
  "gasUsed": {
    "_hex": "0xf618"
  },
  "miner": "0x790b8a3cE86E707ED0eD32bF89B3269692a23CC1",
  "extraData": "0xd783010001844765746887676f312e342e32856c696e7578",
  "transactions": [
    {
      "hash": "0xffcf854f695b82ba03ea3988e4967552dc881003940d4255221aeaff43d09af5",
      "blockHash": "0xd96255385beceaab07be71ac629c18da2d5ece42652b0d7a7eadadb8d36a4884",
      "blockNumber": 95658,
      "transactionIndex": 0,
      "confirmations": null,
      "from": "0x2e1A591a3Bd5FCE3c1E095c205Bd202C29541e70",
      "gasPrice": {
        "_hex": "0xe28de0d0e"
      },
      "gasLimit": {
        "_hex": "0x15f90"
      },
      "to": "0xE37619a47076d668A13AB535aA1c01E8a32541EF",
      "value": {
        "_hex": "0x1bc16d674ec80000"
      },
      "nonce": 3,
      "data": "0x",
      "r": "0x41572f89107c55adc89e062a048d608abc0121b156a1f2298aa6098693193e88",
      "s": "0x718512b476b3d7981307959907d59084e70222e68b041b889afa191a74993d68",
      "v": 28,
      "creates": null,
      "raw": "0xf86d03850e28de0d0e83015f9094e37619a47076d668a13ab535aa1c01e8a32541ef881bc16d674ec80000801ca041572f89107c55adc89e062a048d608abc0121b156a1f2298aa6098693193e88a0718512b476b3d7981307959907d59084e70222e68b041b889afa191a74993d68",
      "networkId": 0,
      "chainId": 0
    },
    {
      "hash": "0x7cb371f99ccfc457fd594893a4a11e1766c64a4afcf922cae46046fae209cfa7",
      "blockHash": "0xd96255385beceaab07be71ac629c18da2d5ece42652b0d7a7eadadb8d36a4884",
      "blockNumber": 95658,
      "transactionIndex": 1,
      "confirmations": null,
      "from": "0x32Be343B94f860124dC4fEe278FDCBD38C102D88",
      "gasPrice": {
        "_hex": "0xdd31d1dc7"
      },
      "gasLimit": {
        "_hex": "0x5208"
      },
      "to": "0xd12Cd8A37F074e7eAFae618C986Ff825666198bd",
      "value": {
        "_hex": "0x1554d4d93d6d5900000"
      },
      "nonce": 988,
      "data": "0x",
      "r": "0x4d18a7a4f5c288bc9ce1e68649385ca9f28de2af58dbda1e1fc4a5a4d16a8457",
      "s": "0x15e4143f4a809ed4401de47bdbd8b5cbfc9c0285a58e4a2b57aca222bbcbfea2",
      "v": 28,
      "creates": null,
      "raw": "0xf8708203dc850dd31d1dc782520894d12cd8a37f074e7eafae618c986ff825666198bd8a01554d4d93d6d5900000801ca04d18a7a4f5c288bc9ce1e68649385ca9f28de2af58dbda1e1fc4a5a4d16a8457a015e4143f4a809ed4401de47bdbd8b5cbfc9c0285a58e4a2b57aca222bbcbfea2",
      "networkId": 0,
      "chainId": 0
    },
    {
      "hash": "0x0c4cf723413c89715fe82496cdbaa8ba1f671675f2d27ba862e0e1992489fad5",
      "blockHash": "0xd96255385beceaab07be71ac629c18da2d5ece42652b0d7a7eadadb8d36a4884",
      "blockNumber": 95658,
      "transactionIndex": 2,
      "confirmations": null,
      "from": "0x557C2806B6ceA65a66F415bb2Ed1ce897B340745",
      "gasPrice": {
        "_hex": "0xdd31d1dc7"
      },
      "gasLimit": {
        "_hex": "0x5208"
      },
      "to": "0x32Be343B94f860124dC4fEe278FDCBD38C102D88",
      "value": {
        "_hex": "0x2a7fe8a542e862000"
      },
      "nonce": 5,
      "data": "0x",
      "r": "0xbb90a27f40317e9417a00208d793e8e85409b8facb8df05f67e0163e72eb7bb8",
      "s": "0x6e4694aeee6513779087df6d1835ddded242e7f541cb55a43c7b01debec0dfed",
      "v": 28,
      "creates": null,
      "raw": "0xf86d05850dd31d1dc78252089432be343b94f860124dc4fee278fdcbd38c102d888902a7fe8a542e862000801ca0bb90a27f40317e9417a00208d793e8e85409b8facb8df05f67e0163e72eb7bb8a06e4694aeee6513779087df6d1835ddded242e7f541cb55a43c7b01debec0dfed",
      "networkId": 0,
      "chainId": 0
    }
  ]
}