{
  "hash": "0x7ac2df7a941cd97b6794cd8f6ac3c07eeb1aa902abf4b2ed8bbffa7212535f43",
  "parentHash": "0xec34546f05b52229486497ad74f00d124c0949b988af719cb771898eeddac025",
  "number": 94956,
  "timestamp": 1439716662,
  "nonce": "0x27ce1fb62cdf5b63",
  "difficulty": 3513789200983,
  "gasLimit": {
    "_hex": "0x2fefd8"
  },
  "gasUsed": {
    "_hex": "0x5208"
  },
  "miner": "0xe6A7a1d47ff21B6321162AEA7C6CB457D5476Bca",
  "extraData": "0x476574682f76312e302e312d38326566323666362f6c696e75782f676f312e34",
  "transactions": [
    {
      "hash": "0x84371b924354386ca089eb85ddb43ba8779f83b8b1605bf432c2ef704b0ea5d0",
      "blockHash": "0x7ac2df7a941cd97b6794cd8f6ac3c07eeb1aa902abf4b2ed8bbffa7212535f43",
      "blockNumber": 94956,
      "transactionIndex": 0,
      "confirmations": null,
      "from": "0x23f2D0fd3B4C98Fb1698564deB4898275E2e831f",
      "gasPrice": {
        "_hex": "0xd8b7aa580"
      },
      "gasLimit": {
        "_hex": "0x5208"
      },
      "to": "0x32Be343B94f860124dC4fEe278FDCBD38C102D88",
      "value": {
        "_hex": "0x8ac2cbea53860000"
      },
      "nonce": 14,
      "data": "0x",
      "r": "0x04046d279976380ee7a6166f054b3005d1f573cb1958f9994fa8faa6d1db58a9",
      "s": "0x1ff02e4fbdbd7f2bfb39619fc7e818bd541aaefb99692fe88babce7f7a5909a5",
      "v": 28,
      "creates": null,
      "raw": "0xf86c0e850d8b7aa5808252089432be343b94f860124dc4fee278fdcbd38c102d88888ac2cbea53860000801ca004046d279976380ee7a6166f054b3005d1f573cb1958f9994fa8faa6d1db58a9a01ff02e4fbdbd7f2bfb39619fc7e818bd541aaefb99692fe88babce7f7a5909a5",
      "networkId": 0,
      "chainId": 0
    }
  ]
}