{
  "hash": "0xd47ded5a10d0688e40df056f0b7cb6638a6aeaeecb96f0a1b2ccc7a10681f72f",
  "parentHash": "0x8b711e5bea0a755cdb0b8ba9194d41ee9100c605294a3d380ee4131f9674336c",
  "number": 47380,
  "timestamp": 1438939310,
  "nonce": "0xb4ba218d49683142",
  "difficulty": 1450257941192,
  "gasLimit": {
    "_hex": "0xb7a9"
  },
  "gasUsed": {
    "_hex": "0xa410"
  },
  "miner": "0xeB1325C8D9d3ea8D74aC11F4B00F1B2367686319",
  "extraData": "0x476574682f76312e302e312f77696e646f77732f676f312e342e32",
  "transactions": [
    {
      "hash": "0xfa68383d0721fac5f9b81860e8ff8674ec7f5e724d018bfc4475a5a62542e701",
      "blockHash": "0xd47ded5a10d0688e40df056f0b7cb6638a6aeaeecb96f0a1b2ccc7a10681f72f",
      "blockNumber": 47380,
      "transactionIndex": 0,
      "confirmations": null,
      "from": "0xD678C8d3430cbE0d7a6F36487f3Cb6E5f27e4CA6",
      "gasPrice": {
        "_hex": "0x1cab560c35"
      },
      "gasLimit": {
        "_hex": "0x5208"
      },
      "to": "0x32Be343B94f860124dC4fEe278FDCBD38C102D88",
      "value": {
        "_hex": "0x8abdf33cbb665000"
      },
      "nonce": 0,
      "data": "0x",
      "r": "0x069034b9250b96924cdf688f589cad79459d2cbb9ffcf4f15cdec91c0537e6ba",
      "s": "0x2c051af7c7f69e5ba0ae208ebd655362ac1a4aaa707f001677e45d2180ddf67a",
      "v": 27,
      "creates": null,
      "raw": "0xf86c80851cab560c358252089432be343b94f860124dc4fee278fdcbd38c102d88888abdf33cbb665000801ba0069034b9250b96924cdf688f589cad79459d2cbb9ffcf4f15cdec91c0537e6baa02c051af7c7f69e5ba0ae208ebd655362ac1a4aaa707f001677e45d2180ddf67a",
      "networkId": 0,
      "chainId": 0
    },
    {
      "hash": "0x7df17dbbf254e768c8e5b2c4a5c4f2c81f59f5d641f44e094865e66761684b64",
      "blockHash": "0xd47ded5a10d0688e40df056f0b7cb6638a6aeaeecb96f0a1b2ccc7a10681f72f",
      "blockNumber": 47380,
      "transactionIndex": 1,
      "confirmations": null,
      "from": "0x6e6bD2E762ecBa2B68ddB39b05916A9531AA0EA6",
      "gasPrice": {
        "_hex": "0x1cab560c35"
      },
      "gasLimit": {
        "_hex": "0x5208"
      },
      "to": "0x32Be343B94f860124dC4fEe278FDCBD38C102D88",
      "value": {
        "_hex": "0x56bbe2e65948e4000"
      },
      "nonce": 0,
      "data": "0x",
      "r": "0x3c1bfaba1c98353bb86fc14a5bc8392dd843096577e24c98a98a91e896da6616",
      "s": "0x79291abb12f9a0ac632ee4a5791359f6a5626ad5ea70edf1c72f8c4191ce1ae7",
      "v": 27,
      "creates": null,
      "raw": "0xf86d80851cab560c358252089432be343b94f860124dc4fee278fdcbd38c102d8889056bbe2e65948e4000801ba03c1bfaba1c98353bb86fc14a5bc8392dd843096577e24c98a98a91e896da6616a079291abb12f9a0ac632ee4a5791359f6a5626ad5ea70edf1c72f8c4191ce1ae7",
      "networkId": 0,
      "chainId": 0
    }
  ]
}