{
  "hash": "0x034bddb93a53e00be61c41613149b4eca04612732c3ed996440f877c2e5752c6",
  "parentHash": "0xc67f900b0275503f749dd069634195c3ccc8c63563b8ae53e71cb7419d2358b2",
  "number": 101921,
  "timestamp": 1439830038,
  "nonce": "0xb03bd81614be9693",
  "difficulty": 3907111323639,
  "gasLimit": {
    "_hex": "0x2fefd8"
  },
  "gasUsed": {
    "_hex": "0x5208"
  },
  "miner": "0x623d2411c3bb3340784155F9a688b0085251aB5c",
  "extraData": "0x",
  "transactions": [
    {
      "hash": "0x4d11df0ef0bb6cc18224fb43d9d61c18f10af843cc013735d22935d185c2fe3d",
      "blockHash": "0x034bddb93a53e00be61c41613149b4eca04612732c3ed996440f877c2e5752c6",
      "blockNumber": 101921,
      "transactionIndex": 0,
      "confirmations": null,
      "from": "0x16C9b930E32c92004105d7F66801C75c61E3408D",
      "gasPrice": {
        "_hex": "0xdb3d5b883"
      },
      "gasLimit": {
        "_hex": "0x5208"
      },
      "to": "0x32Be343B94f860124dC4fEe278FDCBD38C102D88",
      "value": {
        "_hex": "0x28a852de4b568a0000"
      },
      "nonce": 0,
      "data": "0x",
      "r": "0x182b56c688d401bf4e068c3c0993471114cd470f7196bfbbc7400ed35e8452eb",
      "s": "0x1cccf33039cc875b0278845781389cb79a78ac1166954037788fef3c10a48571",
      "v": 27,
      "creates": null,
      "raw": "0xf86d80850db3d5b8838252089432be343b94f860124dc4fee278fdcbd38c102d888928a852de4b568a0000801ba0182b56c688d401bf4e068c3c0993471114cd470f7196bfbbc7400ed35e8452eba01cccf33039cc875b0278845781389cb79a78ac1166954037788fef3c10a48571",
      "networkId": 0,
      "chainId": 0
    }
  ]
}