{
  "hash": "0xed8dc7572e455d92c1de84728eba793745e9faea0d535e4910acaf90f7dc2b64",
  "parentHash": "0x49d91c3faadea9d5c2f412022428afda187d293a2b4ac7f05b4a7586fd78a081",
  "number": 71068,
  "timestamp": 1439329981,
  "nonce": "0xbff469d5c9910aba",
  "difficulty": 2154061505850,
  "gasLimit": {
    "_hex": "0x2fefd8"
  },
  "gasUsed": {
    "_hex": "0x100c9"
  },
  "miner": "0xE8CfAf09a32020eF1C065904a244b4dD6E7C69c6",
  "extraData": "0x",
  "transactions": [
    {
      "hash": "0x3b1fdca915584386a0db499780efb6f0513e62e19c88a299d7b3dfe5e6ab5826",
      "blockHash": "0xed8dc7572e455d92c1de84728eba793745e9faea0d535e4910acaf90f7dc2b64",
      "blockNumber": 71068,
      "transactionIndex": 0,
      "confirmations": null,
      "from": "0x32Be343B94f860124dC4fEe278FDCBD38C102D88",
      "gasPrice": {
        "_hex": "0xd8708fe8e"
      },
      "gasLimit": {
        "_hex": "0x5208"
      },
      "to": "0xCD8C2959c5781245a5DcD72CFfAb01004d804Aa7",
      "value": {
        "_hex": "0x2386f26fc10000"
      },
      "nonce": 264,
      "data": "0x",
      "r": "0xb085115645b1ff9ff507341d10483d08ad6a061a4e7551e011a40fa0c0d54f2e",
      "s": "0x3315596a9683efb356a638f224880283ba2a45d73a9efe80d397ac7182ea9277",
      "v": 27,
      "creates": null,
      "raw": "0xf86d820108850d8708fe8e82520894cd8c2959c5781245a5dcd72cffab01004d804aa7872386f26fc10000801ba0b085115645b1ff9ff507341d10483d08ad6a061a4e7551e011a40fa0c0d54f2ea03315596a9683efb356a638f224880283ba2a45d73a9efe80d397ac7182ea9277",
      "networkId": 0,
      "chainId": 0
    },
    {
      "hash": "0x7216f66f129695a72d7044b14e2f5dd03fb277300e9369f3e1c03aa70a10f8f3",
      "blockHash": "0xed8dc7572e455d92c1de84728eba793745e9faea0d535e4910acaf90f7dc2b64",
      "blockNumber": 71068,
      "transactionIndex": 1,
      "confirmations": null,
      "from": "0x17580B766f7453525ca4C6A88b01b50570EA088C",
      "gasPrice": {
        "_hex": "0xd360f44b1"
      },
      "gasLimit": {
        "_hex": "0x61a80"
      },
      "to": "0x5Fe5B7546D1628f7348B023A0393de1FC825A4fD",
      "value": {
        "_hex": "0x8ac7230489e80000"
      },
      "nonce": 98,
      "data": "0xb595b8b50000000000000000000000000000000000000000000000000000000000000001",
      "r": "0xfb68473b5c75123bc4aafcbf369214b3bcd65fec20912b70e8d74910db43d84a",
      "s": "0x5dfca78b7b0fc5663e5398b38451b68b9a3fd3431ead476ae8a9941624950417",
      "v": 27,
      "creates": null,
      "raw": "0xf89162850d360f44b183061a80945fe5b7546d1628f7348b023a0393de1fc825a4fd888ac7230489e80000a4b595b8b500000000000000000000000000000000000000000000000000000000000000011ba0fb68473b5c75123bc4aafcbf369214b3bcd65fec20912b70e8d74910db43d84aa05dfca78b7b0fc5663e5398b38451b68b9a3fd3431ead476ae8a9941624950417",
      "networkId": 0,
      "chainId": 0
    }
  ]
}