{
  "hash": "0xbe623ce009204959f215b8d66ed9a5881de4a6101e90785ec18195638095351f",
  "parentHash": "0x48aca9edb03266866615a9617eec7a922992f000b49fc66f79f4e6e25ed1db09",
  "number": 108375,
  "timestamp": 1439939263,
  "nonce": "0xc7d39baa0174ab7e",
  "difficulty": 4338365614055,
  "gasLimit": {
    "_hex": "0x2fefd8"
  },
  "gasUsed": {
    "_hex": "0x5208"
  },
  "miner": "0x580992B51e3925e23280EfB93d3047C82f17E038",
  "extraData": "0x476574682f76312e302e312f6c696e75782f676f312e342e32",
  "transactions": [
    {
      "hash": "0x55e2099438540551681ae9ad63b9720d2cf7f11332be3754ea3178d0907be000",
      "blockHash": "0xbe623ce009204959f215b8d66ed9a5881de4a6101e90785ec18195638095351f",
      "blockNumber": 108375,
      "transactionIndex": 0,
      "confirmations": null,
      "from": "0xe63a1879EC438Fd87bc623f66301B703087d3C4c",
      "gasPrice": {
        "_hex": "0xd0893142e"
      },
      "gasLimit": {
        "_hex": "0x5208"
      },
      "to": "0x656Ed7fF71A6cFf2CF368297896634F9E6955e0a",
      "value": {
        "_hex": "0x25a5419af66253c0000"
      },
      "nonce": 5,
      "data": "0x",
      "r": "0x54254bcc22d8c8aaa37f8a83a48910c26bcd0f8761e248fba88a7a31213a971e",
      "s": "0x30c36de0722f8893f933fdc352e843d43bf20023edc96ed437d33614ab830672",
      "v": 28,
      "creates": null,
      "raw": "0xf86e05850d0893142e82520894656ed7ff71a6cff2cf368297896634f9e6955e0a8a025a5419af66253c0000801ca054254bcc22d8c8aaa37f8a83a48910c26bcd0f8761e248fba88a7a31213a971ea030c36de0722f8893f933fdc352e843d43bf20023edc96ed437d33614ab830672",
      "networkId": 0,
      "chainId": 0
    }
  ]
}