{
  "hash": "0x12b2bc087e62406b7b30aea779005d5d051374a5280f49029765255757ae49fe",
  "parentHash": "0xea0d5e755818255adede58dad711652de0b93850f1a74dc2189dfae1bd5e92dc",
  "number": 116391,
  "timestamp": 1440073433,
  "nonce": "0xa121be227475dbaa",
  "difficulty": 4586800573765,
  "gasLimit": {
    "_hex": "0x2fefd8"
  },
  "gasUsed": {
    "_hex": "0xa410"
  },
  "miner": "0x52bc44d5378309EE2abF1539BF71dE1b7d7bE3b5",
  "extraData": "0x476574682f76312e302e312d39353236303766382f6c696e75782f676f312e34",
  "transactions": [
    {
      "hash": "0xfb88456cdb9a669ffae548d633dc1281c44af5bd430d08805ccabc150dfd9b16",
      "blockHash": "0x12b2bc087e62406b7b30aea779005d5d051374a5280f49029765255757ae49fe",
      "blockNumber": 116391,
      "transactionIndex": 0,
      "confirmations": null,
      "from": "0xa70a9a7040d542C632D8e0bE7c5513A8a5Bbc752",
      "gasPrice": {
        "_hex": "0xdd40c5088"
      },
      "gasLimit": {
        "_hex": "0x5208"
      },
      "to": "0x32Be343B94f860124dC4fEe278FDCBD38C102D88",
      "value": {
        "_hex": "0x455f232693cdb000"
      },
      "nonce": 314,
      "data": "0x",
      "r": "0x239a0a81e53928c3613277d7ac0d84ef3157041163c3f221b2c4481267c50f86",
      "s": "0x70be2b4b20cd074ed40d052f96180fdd43369c22eabdb19269093a3452c15ae3",
      "v": 28,
      "creates": null,
      "raw": "0xf86e82013a850dd40c50888252089432be343b94f860124dc4fee278fdcbd38c102d8888455f232693cdb000801ca0239a0a81e53928c3613277d7ac0d84ef3157041163c3f221b2c4481267c50f86a070be2b4b20cd074ed40d052f96180fdd43369c22eabdb19269093a3452c15ae3",
      "networkId": 0,
      "chainId": 0
    },
    {
      "hash": "0x50cb9542baf49702564e95c9abf3a7d2fb46224e69240e534c7a747af861a167",
      "blockHash": "0x12b2bc087e62406b7b30aea779005d5d051374a5280f49029765255757ae49fe",
      "blockNumber": 116391,
      "transactionIndex": 1,
      "confirmations": null,
      "from": "0x89Ea4C778D3f3D6BE70883BB9995D41Bd4c453Ab",
      "gasPrice": {
        "_hex": "0xdd40c5088"
      },
      "gasLimit": {
        "_hex": "0x5208"
      },
      "to": "0x32Be343B94f860124dC4fEe278FDCBD38C102D88",
      "value": {
        "_hex": "0x550db429e7feb000"
      },
      "nonce": 7,
      "data": "0x",
      "r": "0xe43fb973fc7453bc10490f87beae00a54bc4198ff9f22440a2cc2abfc98658ee",
      "s": "0x1e649a623861e78a2a80211df28ebf2f7543386641c127f07380655ecd2c69a6",
      "v": 28,
      "creates": null,
      "raw": "0xf86c07850dd40c50888252089432be343b94f860124dc4fee278fdcbd38c102d8888550db429e7feb000801ca0e43fb973fc7453bc10490f87beae00a54bc4198ff9f22440a2cc2abfc98658eea01e649a623861e78a2a80211df28ebf2f7543386641c127f07380655ecd2c69a6",
      "networkId": 0,
      "chainId": 0
    }
  ]
}