{
  "hash": "0xb7770660e20c5c3ea081cad56cc2c45d41dd8e9be9acdaf4c49e993f317675fc",
  "parentHash": "0x00da59f2b577c1aed3bb9abf0cf5b5dcd8bc916edb23f15e9a6e50bcf5ee9fc8",
  "number": 62519,
  "timestamp": 1439190127,
  "nonce": "0x39a850eb42987be8",
  "difficulty": 1765911885334,
  "gasLimit": {
    "_hex": "0x2fefd8"
  },
  "gasUsed": {
    "_hex": "0x546c"
  },
  "miner": "0xB4f6A8f7Cd91Cd4bcADcc0a20e417c392E5f50A4",
  "extraData": "0x57686f2061726520796f753f",
  "transactions": [
    {
      "hash": "0xd291380e6304e3d1f3e49167ea3406b38e919edac129ced7a7cf2cb046581c4f",
      "blockHash": "0xb7770660e20c5c3ea081cad56cc2c45d41dd8e9be9acdaf4c49e993f317675fc",
      "blockNumber": 62519,
      "transactionIndex": 0,
      "confirmations": null,
      "from": "0x23Abd9E93e7957e5b636be6579051C15E5CE0B0E",
      "gasPrice": {
        "_hex": "0xd39ab600a"
      },
      "gasLimit": {
        "_hex": "0x15f90"
      },
      "to": "0x2910543Af39abA0Cd09dBb2D50200b3E800A63D2",
      "value": {
        "_hex": "0x3a3546500757af00000"
      },
      "nonce": 0,
      "data": "0x454e38504454594538",
      "r": "0x850ae6a32fc616c8a4f8a6befc567b94a67cefb787dba90ef10bf602c0258ff7",
      "s": "0x3fad34b3290dadd18815da9c302b30036c83b532dd796971d990c5e930e63354",
      "v": 28,
      "creates": null,
      "raw": "0xf87880850d39ab600a83015f90942910543af39aba0cd09dbb2d50200b3e800a63d28a03a3546500757af0000089454e385044545945381ca0850ae6a32fc616c8a4f8a6befc567b94a67cefb787dba90ef10bf602c0258ff7a03fad34b3290dadd18815da9c302b30036c83b532dd796971d990c5e930e63354",
      "networkId": 0,
      "chainId": 0
    }
  ]
}