{
  "hash": "0xc7a66c72c0318d70539301444ae459b187c8386f29972c2c99828c635b727032",
  "parentHash": "0x54866e614d8a6d048d8a7a9d906338eb96f104ab2baa85a3e2dedbd8abae1861",
  "number": 63107,
  "timestamp": 1439199253,
  "nonce": "0x43dfd5ab3570b140",
  "difficulty": 1804135423906,
  "gasLimit": {
    "_hex": "0x2fefd8"
  },
  "gasUsed": {
    "_hex": "0x546c"
  },
  "miner": "0x235236386b79A71D7Fcd0827D95FDE47b6Ea113F",
  "extraData": "0xdd809b302e392e34302b2b616339392d5257696e646f2f6d73762f4a4954",
  "transactions": [
    {
      "hash": "0x1676f7f876fb435a3da1bc7721f361a935a45bc6ddaece29c8becd2f5201dcce",
      "blockHash": "0xc7a66c72c0318d70539301444ae459b187c8386f29972c2c99828c635b727032",
      "blockNumber": 63107,
      "transactionIndex": 0,
      "confirmations": null,
      "from": "0x250Eb7c66F869DDF49DA85F3393e980c029Aa434",
      "gasPrice": {
        "_hex": "0x110c8f7d8de"
      },
      "gasLimit": {
        "_hex": "0xc350"
      },
      "to": "0x2910543Af39abA0Cd09dBb2D50200b3E800A63D2",
      "value": {
        "_hex": "0x2540be400"
      },
      "nonce": 0,
      "data": "0x454e4342354b334638",
      "r": "0xe33309411f34faef7645a437c5278eb8fdea21ceaca4f44a36113ccfa5f66830",
      "s": "0xec47dfb245a25c6474fc4cd487b6e635935cb52f0589ba3bbf1417a988083e95",
      "v": 28,
      "creates": null,
      "raw": "0xf87380860110c8f7d8de82c350942910543af39aba0cd09dbb2d50200b3e800a63d28502540be40089454e4342354b3346381ca0e33309411f34faef7645a437c5278eb8fdea21ceaca4f44a36113ccfa5f66830a0ec47dfb245a25c6474fc4cd487b6e635935cb52f0589ba3bbf1417a988083e95",
      "networkId": 0,
      "chainId": 0
    }
  ]
}