{
  "hash": "0xb0d48141652402ccfd9310fcdb2758383bf8b8a1dda82d656913595012da276c",
  "parentHash": "0xc0432073ea66b06b7b50eafcf107d1be270f9bd9286ff9aec146a4aa00230707",
  "number": 106052,
  "timestamp": 1439897803,
  "nonce": "0x208b0e77fb4bebd1",
  "difficulty": 4475134176975,
  "gasLimit": {
    "_hex": "0x2fefd8"
  },
  "gasUsed": {
    "_hex": "0xa410"
  },
  "miner": "0xf8E0CA3Ed80bd541b94BEdCf259e8CF2141A9523",
  "extraData": "0x476574682f76312e302e312f77696e646f77732f676f312e342e32",
  "transactions": [
    {
      "hash": "0x51fa35a2bf900b15fec4d1d6ef1a640ff881d13352908eab7ce7f9159c098e17",
      "blockHash": "0xb0d48141652402ccfd9310fcdb2758383bf8b8a1dda82d656913595012da276c",
      "blockNumber": 106052,
      "transactionIndex": 0,
      "confirmations": null,
      "from": "0x8F79f76381Aad7B98C19aF55eE75fdfEeb012211",
      "gasPrice": {
        "_hex": "0xde9b8bf81"
      },
      "gasLimit": {
        "_hex": "0x5208"
      },
      "to": "0x32Be343B94f860124dC4fEe278FDCBD38C102D88",
      "value": {
        "_hex": "0x2fb42bfb682b88000"
      },
      "nonce": 44,
      "data": "0x",
      "r": "0x1e8220c80f16557997081f5d7843f6d1c9fa6934895e6e44b68e009be34aa400",
      "s": "0x1b2bb9887579a5cf7be731a388ef89a445756ee8bff56e0a4f73b2c93959aa0a",
      "v": 28,
      "creates": null,
      "raw": "0xf86d2c850de9b8bf818252089432be343b94f860124dc4fee278fdcbd38c102d888902fb42bfb682b88000801ca01e8220c80f16557997081f5d7843f6d1c9fa6934895e6e44b68e009be34aa400a01b2bb9887579a5cf7be731a388ef89a445756ee8bff56e0a4f73b2c93959aa0a",
      "networkId": 0,
      "chainId": 0
    },
    {
      "hash": "0x2c0b4018bd70fdad6a69c17af23b00159dd6311cf6ca16b649fc2f09374369a4",
      "blockHash": "0xb0d48141652402ccfd9310fcdb2758383bf8b8a1dda82d656913595012da276c",
      "blockNumber": 106052,
      "transactionIndex": 1,
      "confirmations": null,
      "from": "0xD0317e8d007a61B8d740516E8a268D4faDADccbF",
      "gasPrice": {
        "_hex": "0xcf11225b8"
      },
      "gasLimit": {
        "_hex": "0x15f90"
      },
      "to": "0xdeE4977F74E6Aef6D627191c9A45D2627e331150",
      "value": {
        "_hex": "0xd02ab486cedc0000"
      },
      "nonce": 7,
      "data": "0x",
      "r": "0xf95708cbd34b84d7a31b0c603aa0362888b60eadabcd6be02d5f897f4961b955",
      "s": "0x09a932331354acc3c79d698e21d098ba62a8ce50017866fc622dbb654b992c4c",
      "v": 28,
      "creates": null,
      "raw": "0xf86d07850cf11225b883015f9094dee4977f74e6aef6d627191c9a45d2627e33115088d02ab486cedc0000801ca0f95708cbd34b84d7a31b0c603aa0362888b60eadabcd6be02d5f897f4961b955a009a932331354acc3c79d698e21d098ba62a8ce50017866fc622dbb654b992c4c",
      "networkId": 0,
      "chainId": 0
    }
  ]
}