{
  "hash": "0xee42ebd6264726617bd7178c23c2655b26b2639678a2e6ccfb3dd7bc716a57fc",
  "parentHash": "0x7bbe5508e166b58e872e6bddc17ca4c016b500718acb6f43bb5d09b1adcbe95a",
  "number": 84004,
  "timestamp": 1439543775,
  "nonce": "0xdde6d0e26838b4f3",
  "difficulty": 2477907898112,
  "gasLimit": {
    "_hex": "0x2fefd8"
  },
  "gasUsed": {
    "_hex": "0x5208"
  },
  "miner": "0x0089508679abF8c71BF6781687120e3E6a84584D",
  "extraData": "0x",
  "transactions": [
    {
      "hash": "0xef23823d8f91c0d14b4fe2a359eef9308490434bf29d277f53c34dac98443f41",
      "blockHash": "0xee42ebd6264726617bd7178c23c2655b26b2639678a2e6ccfb3dd7bc716a57fc",
      "blockNumber": 84004,
      "transactionIndex": 0,
      "confirmations": null,
      "from": "0x32Be343B94f860124dC4fEe278FDCBD38C102D88",
      "gasPrice": {
        "_hex": "0xd64e2261a"
      },
      "gasLimit": {
        "_hex": "0x5208"
      },
      "to": "0x566B3E44014f2a2587e054AdFA915861AE82Fe39",
      "value": {
        "_hex": "0x36dbd14226fe78000"
      },
      "nonce": 671,
      "data": "0x",
      "r": "0x1fb9fe739abacc9e6ad5839c14f832aef480155a369b62f3bf1d708e16a146b2",
      "s": "0x70db4429186dc99ed3280a9e886f8c5814d33f3bc534176c77209cd95c9d927c",
      "v": 28,
      "creates": null,
      "raw": "0xf86f82029f850d64e2261a82520894566b3e44014f2a2587e054adfa915861ae82fe3989036dbd14226fe78000801ca01fb9fe739abacc9e6ad5839c14f832aef480155a369b62f3bf1d708e16a146b2a070db4429186dc99ed3280a9e886f8c5814d33f3bc534176c77209cd95c9d927c",
      "networkId": 0,
      "chainId": 0
    }
  ]
}