{
  "hash": "0x7823156a84613ec42cb81bfaf5316352afc9e3e2571ba437f5d7e6bdca135c72",
  "parentHash": "0x51e957f81f2e61ac0e122f69dcc6ae4bb1ae3950fc141e7212c966ec08bc7fd5",
  "number": 50201,
  "timestamp": 1438985343,
  "nonce": "0xff98c251e246cbea",
  "difficulty": 1515641435154,
  "gasLimit": {
    "_hex": "0x563b5"
  },
  "gasUsed": {
    "_hex": "0x546c"
  },
  "miner": "0x24339341F29d2aaD7d3c591c0f9931e7D4bFEd6e",
  "extraData": "0x476574682f76312e302e312f6c696e75782f676f312e342e32",
  "transactions": [
    {
      "hash": "0x0d9b2b26f8ebf26029b4ecc1112a59ec99478e99cb900cd280abdaa4d79c9d12",
      "blockHash": "0x7823156a84613ec42cb81bfaf5316352afc9e3e2571ba437f5d7e6bdca135c72",
      "blockNumber": 50201,
      "transactionIndex": 0,
      "confirmations": null,
      "from": "0xd2f1998e1cB1580CeC4F6c047dCd3dCeC54CF73c",
      "gasPrice": {
        "_hex": "0x110c8f7d8de"
      },
      "gasLimit": {
        "_hex": "0xc350"
      },
      "to": "0x2910543Af39abA0Cd09dBb2D50200b3E800A63D2",
      "value": {
        "_hex": "0xac9ae05a71ebc0000"
      },
      "nonce": 0,
      "data": "0x454e384e3444525238",
      "r": "0x7084ad98e5c54f015ff4209a6f0b0e3705d16fab37476f6a9b40ef126caf4ffd",
      "s": "0x4a2c55a1fa9e1c19db6a15e9a367e682fb75149381a4dd3b3a2d0d454444be77",
      "v": 28,
      "creates": null,
      "raw": "0xf87780860110c8f7d8de82c350942910543af39aba0cd09dbb2d50200b3e800a63d2890ac9ae05a71ebc000089454e384e34445252381ca07084ad98e5c54f015ff4209a6f0b0e3705d16fab37476f6a9b40ef126caf4ffda04a2c55a1fa9e1c19db6a15e9a367e682fb75149381a4dd3b3a2d0d454444be77",
      "networkId": 0,
      "chainId": 0
    }
  ]
}