{
  "hash": "0xef9ebde878cd6b2fa2142d94e1f7c4933153368efb6ebf001afce5c253981ab5",
  "parentHash": "0x63f72334863b7b03f463744f83bdbe22cd3bc2405332b6503bcc858cb96c50d6",
  "number": 76159,
  "timestamp": 1439415775,
  "nonce": "0x8d2c151fe387cd27",
  "difficulty": 2239603905596,
  "gasLimit": {
    "_hex": "0x2fefd8"
  },
  "gasUsed": {
    "_hex": "0x3814b"
  },
  "miner": "0xe6A7a1d47ff21B6321162AEA7C6CB457D5476Bca",
  "extraData": "0x476574682f76312e302e312d38326566323666362f6c696e75782f676f312e34",
  "transactions": [
    {
      "hash": "0x206638d53465778f7db0bc0760fddfdffb14bfd049bab778242fe7678af13b9c",
      "blockHash": "0xef9ebde878cd6b2fa2142d94e1f7c4933153368efb6ebf001afce5c253981ab5",
      "blockNumber": 76159,
      "transactionIndex": 0,
      "confirmations": null,
      "from": "0x64CF897D51472Dc7CfF0e6368EB15B9e2d5168E3",
      "gasPrice": {
        "_hex": "0x746a528800"
      },
      "gasLimit": {
        "_hex": "0x5b04"
      },
      "to": "0x9bc6B0dEB59eF75AeDe905EBa5a779514F43D409",
      "value": {
        "_hex": "0x6be0cc388733580000"
      },
      "nonce": 11,
      "data": "0x",
      "r": "0x4517994dc770a428bbac5efea5ca887b4c81b659af963f812596ded97c34484d",
      "s": "0x8837a3f2763f30adaa5112ddc9c851201274b88162376e5156cf3a79b627d06d",
      "v": 27,
      "creates": null,
      "raw": "0xf86d0b85746a528800825b04949bc6b0deb59ef75aede905eba5a779514f43d409896be0cc388733580000801ba04517994dc770a428bbac5efea5ca887b4c81b659af963f812596ded97c34484da08837a3f2763f30adaa5112ddc9c851201274b88162376e5156cf3a79b627d06d",
      "networkId": 0,
      "chainId": 0
    },
    {
      "hash": "0xca0a6febe18ce25e13e7b2dd4ad496613cf55da7a873988f0abd3247d023056c",
      "blockHash": "0xef9ebde878cd6b2fa2142d94e1f7c4933153368efb6ebf001afce5c253981ab5",
      "blockNumber": 76159,
      "transactionIndex": 1,
      "confirmations": null,
      "from": "0x77b97786B0FB73e55d9E92d4B182beFBF346F979",
      "gasPrice": {
        "_hex": "0x174876e800"
      },
      "gasLimit": {
        "_hex": "0x2dc6c0"
      },
      "to": null,
      "value": {
        "_hex": "0x0"
      },
      "nonce": 0,
      "data": "0x60606040525b33600060006101000a81548173ffffffffffffffffffffffffffffffffffffffff021916908302179055505b610272806100406000396000f30060606040526000357c010000000000000000000000000000000000000000000000000000000090048063084d72f41461005a5780635a58cd4c1461008557806374580e2f14610092578063a6b756c5146100a557610058565b005b61006b60048035906020015061023f565b604051808261ffff16815260200191505060405180910390f35b610090600450610144565b005b6100a36004803590602001506100be565b005b6100bc6004803590602001803590602001506101b6565b005b3373ffffffffffffffffffffffffffffffffffffffff16600060009054906101000a900473ffffffffffffffffffffffffffffffffffffffff1673ffffffffffffffffffffffffffffffffffffffff1614156101405780600060006101000a81548173ffffffffffffffffffffffffffffffffffffffff021916908302179055505b5b50565b3373ffffffffffffffffffffffffffffffffffffffff16600060009054906101000a900473ffffffffffffffffffffffffffffffffffffffff1673ffffffffffffffffffffffffffffffffffffffff1614156101b3573373ffffffffffffffffffffffffffffffffffffffff16ff5b5b565b600060009054906101000a900473ffffffffffffffffffffffffffffffffffffffff1673ffffffffffffffffffffffffffffffffffffffff163373ffffffffffffffffffffffffffffffffffffffff16141561023a57806001600050600084815260200190815260200160002060006101000a81548161ffff021916908302179055505b5b5050565b60006001600050600083815260200190815260200160002060009054906101000a900461ffff16905061026d565b91905056",
      "r": "0xa7e861540230d525153f3ed547a8e58430437509e635dda371bba2fb73b3c596",
      "s": "0x2f8252ecdc5398244a721f77c73efd0760fc9c7fccdfd20824ebaab008fe9012",
      "v": 28,
      "creates": "0xe37673A8e0aAa536828f0d5B0Ddba12fece1115c",
      "raw": "0xf903058085174876e800832dc6c08080b902b260606040525b33600060006101000a81548173ffffffffffffffffffffffffffffffffffffffff021916908302179055505b610272806100406000396000f30060606040526000357c010000000000000000000000000000000000000000000000000000000090048063084d72f41461005a5780635a58cd4c1461008557806374580e2f14610092578063a6b756c5146100a557610058565b005b61006b60048035906020015061023f565b604051808261ffff16815260200191505060405180910390f35b610090600450610144565b005b6100a36004803590602001506100be565b005b6100bc6004803590602001803590602001506101b6565b005b3373ffffffffffffffffffffffffffffffffffffffff16600060009054906101000a900473ffffffffffffffffffffffffffffffffffffffff1673ffffffffffffffffffffffffffffffffffffffff1614156101405780600060006101000a81548173ffffffffffffffffffffffffffffffffffffffff021916908302179055505b5b50565b3373ffffffffffffffffffffffffffffffffffffffff16600060009054906101000a900473ffffffffffffffffffffffffffffffffffffffff1673ffffffffffffffffffffffffffffffffffffffff1614156101b3573373ffffffffffffffffffffffffffffffffffffffff16ff5b5b565b600060009054906101000a900473ffffffffffffffffffffffffffffffffffffffff1673ffffffffffffffffffffffffffffffffffffffff163373ffffffffffffffffffffffffffffffffffffffff16141561023a57806001600050600084815260200190815260200160002060006101000a81548161ffff021916908302179055505b5b5050565b60006001600050600083815260200190815260200160002060009054906101000a900461ffff16905061026d565b919050561ca0a7e861540230d525153f3ed547a8e58430437509e635dda371bba2fb73b3c596a02f8252ecdc5398244a721f77c73efd0760fc9c7fccdfd20824ebaab008fe9012",
      "networkId": 0,
      "chainId": 0
    }
  ]
}