{
  "hash": "0xab8b56942fe440f11bf494f1f21ba6cc52ede89089eb1553e08c16cf8e4b4cf1",
  "parentHash": "0x99f6389bf05aa385e6eede71459288304c41605feedc1dc6d7f815459ce76f32",
  "number": 119799,
  "timestamp": 1440148836,
  "nonce": "0x9b1eaea17a2e4309",
  "difficulty": 4409291283578,
  "gasLimit": {
    "_hex": "0x2fefd8"
  },
  "gasUsed": {
    "_hex": "0x5208"
  },
  "miner": "0xe6A7a1d47ff21B6321162AEA7C6CB457D5476Bca",
  "extraData": "0xd783010002844765746887676f312e342e32856c696e7578",
  "transactions": [
    {
      "hash": "0x2bcf723ff093562d6056340a7f8704573421b993e62ef3517cf5ec7ee5c8c9a9",
      "blockHash": "0xab8b56942fe440f11bf494f1f21ba6cc52ede89089eb1553e08c16cf8e4b4cf1",
      "blockNumber": 119799,
      "transactionIndex": 0,
      "confirmations": null,
      "from": "0x608f4b86321a68453f9adf6F06F7Fc3E621739ad",
      "gasPrice": {
        "_hex": "0xba43b7400"
      },
      "gasLimit": {
        "_hex": "0x5208"
      },
      "to": "0x32Be343B94f860124dC4fEe278FDCBD38C102D88",
      "value": {
        "_hex": "0x455fd68a17f06000"
      },
      "nonce": 45,
      "data": "0x",
      "r": "0x9ccfaff9e5499efb57ec1e433abd37d029c7a3bc3f9b3124847734c27174b975",
      "s": "0x5edaf70a5744bf6df9f0a1c234f576d116638fd6149b2156cbfee1775627ebac",
      "v": 27,
      "creates": null,
      "raw": "0xf86c2d850ba43b74008252089432be343b94f860124dc4fee278fdcbd38c102d8888455fd68a17f06000801ba09ccfaff9e5499efb57ec1e433abd37d029c7a3bc3f9b3124847734c27174b975a05edaf70a5744bf6df9f0a1c234f576d116638fd6149b2156cbfee1775627ebac",
      "networkId": 0,
      "chainId": 0
    }
  ]
}