{
  "hash": "0xc89d08f567414fc3d1fe0509657dce8ebf57012476ca120bd9e0c0a90674b689",
  "parentHash": "0x8c2aea4feaf4aa9f8178d617aa237bc863021ca49aab3151b3747d1caa04a423",
  "number": 79994,
  "timestamp": 1439478494,
  "nonce": "0xc88204dfd3752fd7",
  "difficulty": 2347157777223,
  "gasLimit": {
    "_hex": "0x2fefd8"
  },
  "gasUsed": {
    "_hex": "0x5208"
  },
  "miner": "0xf927a40C8B7F6E07c5af7FA2155B4864a4112B13",
  "extraData": "0x",
  "transactions": [
    {
      "hash": "0xb1bcb9998552903e636fef31140d9c8335a5b74a28c5d6ca0393e903f8fb61f2",
      "blockHash": "0xc89d08f567414fc3d1fe0509657dce8ebf57012476ca120bd9e0c0a90674b689",
      "blockNumber": 79994,
      "transactionIndex": 0,
      "confirmations": null,
      "from": "0x32Be343B94f860124dC4fEe278FDCBD38C102D88",
      "gasPrice": {
        "_hex": "0xd6205b3bb"
      },
      "gasLimit": {
        "_hex": "0x5208"
      },
      "to": "0x2237202dcd4E21eed6Fb8f10843068cB31495938",
      "value": {
        "_hex": "0xdbd2fc137a30000"
      },
      "nonce": 502,
      "data": "0x",
      "r": "0x596a84a6419973293573aeb65c1aade24d485bb49bb865b29fd6944588f3a59d",
      "s": "0x7818340598175f82c60d6d8a167d1027fc4600b846e1afccf952e19d5c35adf8",
      "v": 27,
      "creates": null,
      "raw": "0xf86e8201f6850d6205b3bb825208942237202dcd4e21eed6fb8f10843068cb31495938880dbd2fc137a30000801ba0596a84a6419973293573aeb65c1aade24d485bb49bb865b29fd6944588f3a59da07818340598175f82c60d6d8a167d1027fc4600b846e1afccf952e19d5c35adf8",
      "networkId": 0,
      "chainId": 0
    }
  ]
}