{
  "hash": "0x2cc09251a7366338b42737400a17ebefd397afdb52973b80b14cdddb40dddbf0",
  "parentHash": "0xf45b64072fb048d988610b2d8888a5596423d58856204dc29443dcbc514f2ff8",
  "number": 115612,
  "timestamp": 1440060178,
  "nonce": "0xd0627bedfd46904b",
  "difficulty": 4593951037038,
  "gasLimit": {
    "_hex": "0x2fefd8"
  },
  "gasUsed": {
    "_hex": "0x5208"
  },
  "miner": "0xbb7B8287f3F0a933474a79eAe42CBCa977791171",
  "extraData": "0x476574682f4c5649562f76312e302e312f6c696e75782f676f312e342e32",
  "transactions": [
    {
      "hash": "0xb0ba1e3d35716817ca9f0506ef4320d0bad120ccce7bb2f3c527fd65da840840",
      "blockHash": "0x2cc09251a7366338b42737400a17ebefd397afdb52973b80b14cdddb40dddbf0",
      "blockNumber": 115612,
      "transactionIndex": 0,
      "confirmations": null,
      "from": "0x32Be343B94f860124dC4fEe278FDCBD38C102D88",
      "gasPrice": {
        "_hex": "0xce24da1ae"
      },
      "gasLimit": {
        "_hex": "0x5208"
      },
      "to": "0x65d6F6040D1B3E8E8bFD5F70B46A2dB2ADBFca9a",
      "value": {
        "_hex": "0x4189a8a8234e94000"
      },
      "nonce": 1441,
      "data": "0x",
      "r": "0xa1c263c5cbebc718ac1198463e499c1c24e359e050a3e266520012346f35dce5",
      "s": "0x7308d93fc84ee94f149926678dc47d98ce3b3eba013a72f359c31528cbd84d6a",
      "v": 28,
      "creates": null,
      "raw": "0xf86f8205a1850ce24da1ae8252089465d6f6040d1b3e8e8bfd5f70b46a2db2adbfca9a8904189a8a8234e94000801ca0a1c263c5cbebc718ac1198463e499c1c24e359e050a3e266520012346f35dce5a07308d93fc84ee94f149926678dc47d98ce3b3eba013a72f359c31528cbd84d6a",
      "networkId": 0,
      "chainId": 0
    }
  ]
}