{
  "hash": "0x6aeff212bd3361443efa212d318e5557fa337105451a3314eb632a4253730588",
  "parentHash": "0x680135a2107effda4d256cbc0f7ea0fbb3aaf22c0608fabd186ae39484d9bb7a",
  "number": 95610,
  "timestamp": 1439726635,
  "nonce": "0xe99b26f9fe132058",
  "difficulty": 3621507865857,
  "gasLimit": {
    "_hex": "0x2fefd8"
  },
  "gasUsed": {
    "_hex": "0x19a28"
  },
  "miner": "0xC603Ab5ef41fC61AA8b76bEddb09e3Cfcbb174BD",
  "extraData": "0x476574682f76312e302e312f77696e646f77732f676f312e342e32",
  "transactions": [
    {
      "hash": "0x9a80ea28fd9c9ca2fe26b1cce5467cb9cbcf318abd51450b1259f2ebe9d10b76",
      "blockHash": "0x6aeff212bd3361443efa212d318e5557fa337105451a3314eb632a4253730588",
      "blockNumber": 95610,
      "transactionIndex": 0,
      "confirmations": null,
      "from": "0x63738Ec4C9adec404749B5747F3bbE2147de632F",
      "gasPrice": {
        "_hex": "0xcaf1382de"
      },
      "gasLimit": {
        "_hex": "0x15f90"
      },
      "to": "0x557C2806B6ceA65a66F415bb2Ed1ce897B340745",
      "value": {
        "_hex": "0x8ac7230489e80000"
      },
      "nonce": 8,
      "data": "0x",
      "r": "0xd933c0b49bc4778d52967a4e1f741a5035a926ced193ff01050e4a22a73cbc15",
      "s": "0x6fc109872f021316b07bb364f895e933532b31b9b5c2a25b45726e1d99936955",
      "v": 27,
      "creates": null,
      "raw": "0xf86d08850caf1382de83015f9094557c2806b6cea65a66f415bb2ed1ce897b340745888ac7230489e80000801ba0d933c0b49bc4778d52967a4e1f741a5035a926ced193ff01050e4a22a73cbc15a06fc109872f021316b07bb364f895e933532b31b9b5c2a25b45726e1d99936955",
      "networkId": 0,
      "chainId": 0
    },
    {
      "hash": "0x8e7b6c4f426d45585daa8b220369ad3ac4188fca67d77bb6e17c2625cb84cee7",
      "blockHash": "0x6aeff212bd3361443efa212d318e5557fa337105451a3314eb632a4253730588",
      "blockNumber": 95610,
      "transactionIndex": 1,
      "confirmations": null,
      "from": "0x63738Ec4C9adec404749B5747F3bbE2147de632F",
      "gasPrice": {
        "_hex": "0xcaf1382de"
      },
      "gasLimit": {
        "_hex": "0x15f90"
      },
      "to": "0x557C2806B6ceA65a66F415bb2Ed1ce897B340745",
      "value": {
        "_hex": "0x8ac7230489e80000"
      },
      "nonce": 9,
      "data": "0x",
      "r": "0xcc23c5fbdf5519974b329f209f7ea3447668dfc4d476ae111059503125b39caa",
      "s": "0x06f53ff14789a3417085203ffc38ad24a9f22709913dc51d0a9835ef880717ed",
      "v": 27,
      "creates": null,
      "raw": "0xf86d09850caf1382de83015f9094557c2806b6cea65a66f415bb2ed1ce897b340745888ac7230489e80000801ba0cc23c5fbdf5519974b329f209f7ea3447668dfc4d476ae111059503125b39caaa006f53ff14789a3417085203ffc38ad24a9f22709913dc51d0a9835ef880717ed",
      "networkId": 0,
      "chainId": 0
    },
    {
      "hash": "0x88bb9910589bd3614dd9b7c67638a4fb0f6f68a565682e60b601272fc624d4b1",
      "blockHash": "0x6aeff212bd3361443efa212d318e5557fa337105451a3314eb632a4253730588",
      "blockNumber": 95610,
      "transactionIndex": 2,
      "confirmations": null,
      "from": "0x63738Ec4C9adec404749B5747F3bbE2147de632F",
      "gasPrice": {
        "_hex": "0xcaf1382de"
      },
      "gasLimit": {
        "_hex": "0x15f90"
      },
      "to": "0x557C2806B6ceA65a66F415bb2Ed1ce897B340745",
      "value": {
        "_hex": "0x8ac7230489e80000"
      },
      "nonce": 10,
      "data": "0x",
      "r": "0xe053ac1e5c266e5fa0871dafbf2e4ee46c81970192f0562d2a2d55c4154ae5a5",
      "s": "0x2b88be6b29f024cd82256706e76332456062e7db89e547c4525bb284199b278b",
      "v": 28,
      "creates": null,
      "raw": "0xf86d0a850caf1382de83015f9094557c2806b6cea65a66f415bb2ed1ce897b340745888ac7230489e80000801ca0e053ac1e5c266e5fa0871dafbf2e4ee46c81970192f0562d2a2d55c4154ae5a5a02b88be6b29f024cd82256706e76332456062e7db89e547c4525bb284199b278b",
      "networkId": 0,
      "chainId": 0
    },
    {
      "hash": "0xd09b7b047c545f421ab516c2eab4b2102348a1d60c2b5e95c888afa85092249a",
      "blockHash": "0x6aeff212bd3361443efa212d318e5557fa337105451a3314eb632a4253730588",
      "blockNumber": 95610,
      "transactionIndex": 3,
      "confirmations": null,
      "from": "0x63738Ec4C9adec404749B5747F3bbE2147de632F",
      "gasPrice": {
        "_hex": "0xcaf1382de"
      },
      "gasLimit": {
        "_hex": "0x15f90"
      },
      "to": "0x557C2806B6ceA65a66F415bb2Ed1ce897B340745",
      "value": {
        "_hex": "0x8ac7230489e80000"
      },
      "nonce": 11,
      "data": "0x",
      "r": "0x5fe3151e9f6a7b461898d841281e5e0a4ca79c5e2caf0ab9992b44dc60798499",
      "s": "0x54008761c4fecdd3cc03079287b0461304a2d2b48aac1b90dfd64479b266cadf",
      "v": 27,
      "creates": null,
      "raw": "0xf86d0b850caf1382de83015f9094557c2806b6cea65a66f415bb2ed1ce897b340745888ac7230489e80000801ba05fe3151e9f6a7b461898d841281e5e0a4ca79c5e2caf0ab9992b44dc60798499a054008761c4fecdd3cc03079287b0461304a2d2b48aac1b90dfd64479b266cadf",
      "networkId": 0,
      "chainId": 0
    },
    {
      "hash": "0xa58bcd316ffed5e3f7926a85c5144c37c89b987e46095bc5784b6c57540b7577",
      "blockHash": "0x6aeff212bd3361443efa212d318e5557fa337105451a3314eb632a4253730588",
      "blockNumber": 95610,
      "transactionIndex": 4,
      "confirmations": null,
      "from": "0x63738Ec4C9adec404749B5747F3bbE2147de632F",
      "gasPrice": {
        "_hex": "0xcaf1382de"
      },
      "gasLimit": {
        "_hex": "0x15f90"
      },
      "to": "0x557C2806B6ceA65a66F415bb2Ed1ce897B340745",
      "value": {
        "_hex": "0x8ac7230489e80000"
      },
      "nonce": 12,
      "data": "0x",
      "r": "0x180d66a0b572755abd665810f8304dee42aea1e8acb3d6f366522ef060713b0f",
      "s": "0x5ef0dc7fbdbe36d334b63ac4bd2d2ea5df7a882088f2cecee3b04bcb258354d9",
      "v": 27,
      "creates": null,
      "raw": "0xf86d0c850caf1382de83015f9094557c2806b6cea65a66f415bb2ed1ce897b340745888ac7230489e80000801ba0180d66a0b572755abd665810f8304dee42aea1e8acb3d6f366522ef060713b0fa05ef0dc7fbdbe36d334b63ac4bd2d2ea5df7a882088f2cecee3b04bcb258354d9",
      "networkId": 0,
      "chainId": 0
    }
  ]
}