{
  "hash": "0x585f9ab0533d221d23153168405c39e7318f7d91d54829f642cfc4385e7d025a",
  "parentHash": "0x65d2641c4c2afa78c1fed8e3b2a728970760526291cd780c71d19a0a329db02b",
  "number": 85699,
  "timestamp": 1439567467,
  "nonce": "0xa120d7641847c89f",
  "difficulty": 2781346659529,
  "gasLimit": {
    "_hex": "0x2fefd8"
  },
  "gasUsed": {
    "_hex": "0x5208"
  },
  "miner": "0xe6A7a1d47ff21B6321162AEA7C6CB457D5476Bca",
  "extraData": "0x476574682f76312e302e312d38326566323666362f6c696e75782f676f312e34",
  "transactions": [
    {
      "hash": "0xd67ac4e0aee9241e9fba9b5efd0d4e16da314b65128205c46258c0cde71e91b1",
      "blockHash": "0x585f9ab0533d221d23153168405c39e7318f7d91d54829f642cfc4385e7d025a",
      "blockNumber": 85699,
      "transactionIndex": 0,
      "confirmations": null,
      "from": "0x85A12ea0FD4A0818d18A21653927028f92e24538",
      "gasPrice": {
        "_hex": "0xd9b48d8fd"
      },
      "gasLimit": {
        "_hex": "0x15f90"
      },
      "to": "0x55e32F27209a6CbdA0fAF5119b76b0FBfC01f532",
      "value": {
        "_hex": "0x10a3911977743bc00"
      },
      "nonce": 1,
      "data": "0x",
      "r": "0xb840aeb0909ab61146ecff2297571fad84073612d27814b751a6d44805e1ca97",
      "s": "0x15b4018a0f3c19a0bdc8e91f0e22b132d4c4265747a00499e0db654cf90676c4",
      "v": 28,
      "creates": null,
      "raw": "0xf86e01850d9b48d8fd83015f909455e32f27209a6cbda0faf5119b76b0fbfc01f53289010a3911977743bc00801ca0b840aeb0909ab61146ecff2297571fad84073612d27814b751a6d44805e1ca97a015b4018a0f3c19a0bdc8e91f0e22b132d4c4265747a00499e0db654cf90676c4",
      "networkId": 0,
      "chainId": 0
    }
  ]
}