{
  "hash": "0x32a7dc6b7f161ad480a207cdc05e8849e5484c6b79c60eeb9f122a705df5c7d6",
  "parentHash": "0x767eb5602e1708e5a59f01dfa73c4ab8f392da8a75ba9b0b57fb40c8e52dd5c0",
  "number": 69071,
  "timestamp": 1439297900,
  "nonce": "0xabd416b5a8d20753",
  "difficulty": 2050896025780,
  "gasLimit": {
    "_hex": "0x2fefd8"
  },
  "gasUsed": {
    "_hex": "0x5208"
  },
  "miner": "0xf8E0CA3Ed80bd541b94BEdCf259e8CF2141A9523",
  "extraData": "0x476574682f76312e302e312f77696e646f77732f676f312e342e32",
  "transactions": [
    {
      "hash": "0xe3a73458b3051aa15a0ab2c99c10cd8b5e31e7ebd56e20d3bdf40f69f7d0a7c0",
      "blockHash": "0x32a7dc6b7f161ad480a207cdc05e8849e5484c6b79c60eeb9f122a705df5c7d6",
      "blockNumber": 69071,
      "transactionIndex": 0,
      "confirmations": null,
      "from": "0x6747f922385c9a6F9cfDf095F34345257DD597bE",
      "gasPrice": {
        "_hex": "0xba43b7400"
      },
      "gasLimit": {
        "_hex": "0x5208"
      },
      "to": "0xA941415Fb29Fca10bA4beA1E0521D2BBba2f6A71",
      "value": {
        "_hex": "0x1fcbfa42bd6000"
      },
      "nonce": 153,
      "data": "0x",
      "r": "0xbb331b3cae906311dd3b2631b2feab6ddb5aec2435ea3425ec7a45a588181e1c",
      "s": "0x2f14e051f913933bfabd664d1b63bfcb606300d01eff809d96d0115719de2198",
      "v": 27,
      "creates": null,
      "raw": "0xf86c8199850ba43b740082520894a941415fb29fca10ba4bea1e0521d2bbba2f6a71871fcbfa42bd6000801ba0bb331b3cae906311dd3b2631b2feab6ddb5aec2435ea3425ec7a45a588181e1ca02f14e051f913933bfabd664d1b63bfcb606300d01eff809d96d0115719de2198",
      "networkId": 0,
      "chainId": 0
    }
  ]
}