{
  "hash": "0x4b123fb755d578a51a5bc360250649e656dccc16829e7724f497fda462fb5346",
  "parentHash": "0xc0e51df27de2427abb5da6c85bfcb528a41e981cc20621d670ee73ea01c64a29",
  "number": 116823,
  "timestamp": 1440098112,
  "nonce": "0x2a1c0b57bf472617",
  "difficulty": 4338233219468,
  "gasLimit": {
    "_hex": "0x2fefd8"
  },
  "gasUsed": {
    "_hex": "0x19a28"
  },
  "miner": "0xe6A7a1d47ff21B6321162AEA7C6CB457D5476Bca",
  "extraData": "0xd783010002844765746887676f312e342e32856c696e7578",
  "transactions": [
    {
      "hash": "0x120cb3134e33125750a1b1fa396ca6eb09917a4f15c72f7507e08c32ce3b1a33",
      "blockHash": "0x4b123fb755d578a51a5bc360250649e656dccc16829e7724f497fda462fb5346",
      "blockNumber": 116823,
      "transactionIndex": 0,
      "confirmations": null,
      "from": "0xe6A7a1d47ff21B6321162AEA7C6CB457D5476Bca",
      "gasPrice": {
        "_hex": "0xba43b7400"
      },
      "gasLimit": {
        "_hex": "0x55f0"
      },
      "to": "0x771b12Bc207A1c4823e77075B17F8D329ACD77A3",
      "value": {
        "_hex": "0x7446083f84fecb18"
      },
      "nonce": 5787,
      "data": "0x",
      "r": "0x157a6f04c4260f58f67fee6e2cfca474f53cc4701344c9c8ba4ac11a50911c4c",
      "s": "0x66d0240402a7aad3706c83ca61123b98989c9fbc8bdf935fd397f152c3d15782",
      "v": 28,
      "creates": null,
      "raw": "0xf86e82169b850ba43b74008255f094771b12bc207a1c4823e77075b17f8d329acd77a3887446083f84fecb18801ca0157a6f04c4260f58f67fee6e2cfca474f53cc4701344c9c8ba4ac11a50911c4ca066d0240402a7aad3706c83ca61123b98989c9fbc8bdf935fd397f152c3d15782",
      "networkId": 0,
      "chainId": 0
    },
    {
      "hash": "0xaaa5a9b23147636515a1cf0aba620bf0f5dfef31c5c85619a477b185ee2893c3",
      "blockHash": "0x4b123fb755d578a51a5bc360250649e656dccc16829e7724f497fda462fb5346",
      "blockNumber": 116823,
      "transactionIndex": 1,
      "confirmations": null,
      "from": "0xe6A7a1d47ff21B6321162AEA7C6CB457D5476Bca",
      "gasPrice": {
        "_hex": "0xba43b7400"
      },
      "gasLimit": {
        "_hex": "0x55f0"
      },
      "to": "0x9B7280891dc19fd3A2e754cB9007203820650403",
      "value": {
        "_hex": "0x744a07edbb995970"
      },
      "nonce": 5788,
      "data": "0x",
      "r": "0x2a0a6d8733f16b3e816485fbd911afffe3e07ad56449969ee6ca3ce2c8331029",
      "s": "0x3d401873c9895301b942b4edc80217b84cd94c02ba55689b44b6bf0a0e5a591f",
      "v": 28,
      "creates": null,
      "raw": "0xf86e82169c850ba43b74008255f0949b7280891dc19fd3a2e754cb900720382065040388744a07edbb995970801ca02a0a6d8733f16b3e816485fbd911afffe3e07ad56449969ee6ca3ce2c8331029a03d401873c9895301b942b4edc80217b84cd94c02ba55689b44b6bf0a0e5a591f",
      "networkId": 0,
      "chainId": 0
    },
    {
      "hash": "0x7a74a0f5f48a16dfe0d69f66293690be0f3526552253051285104d50efbe9914",
      "blockHash": "0x4b123fb755d578a51a5bc360250649e656dccc16829e7724f497fda462fb5346",
      "blockNumber": 116823,
      "transactionIndex": 2,
      "confirmations": null,
      "from": "0xe6A7a1d47ff21B6321162AEA7C6CB457D5476Bca",
      "gasPrice": {
        "_hex": "0xba43b7400"
      },
      "gasLimit": {
        "_hex": "0x55f0"
      },
      "to": "0x727A42a8D67fcaa0Ab81D46f1EE66bfc9b8789AC",
      "value": {
        "_hex": "0x74cf0b63b1e1fdc0"
      },
      "nonce": 5789,
      "data": "0x",
      "r": "0xd0aa2df51635c33122005278a515d75fbc807255b04f92bd406cb22bb2c26136",
      "s": "0x6ee22884ff2e2b837fa044be3ef77be1f4a7f24ec5b88dcdf02ddbcb25ac8685",
      "v": 27,
      "creates": null,
      "raw": "0xf86e82169d850ba43b74008255f094727a42a8d67fcaa0ab81d46f1ee66bfc9b8789ac8874cf0b63b1e1fdc0801ba0d0aa2df51635c33122005278a515d75fbc807255b04f92bd406cb22bb2c26136a06ee22884ff2e2b837fa044be3ef77be1f4a7f24ec5b88dcdf02ddbcb25ac8685",
      "networkId": 0,
      "chainId": 0
    },
    {
      "hash": "0xd3097c00a6252dc0719b4006375401ea28574b76ce8544f4f1db535a4c2bcde6",
      "blockHash": "0x4b123fb755d578a51a5bc360250649e656dccc16829e7724f497fda462fb5346",
      "blockNumber": 116823,
      "transactionIndex": 3,
      "confirmations": null,
      "from": "0xe6A7a1d47ff21B6321162AEA7C6CB457D5476Bca",
      "gasPrice": {
        "_hex": "0xba43b7400"
      },
      "gasLimit": {
        "_hex": "0x55f0"
      },
      "to": "0x972ad000397A3c903299F1353d6d4b85eE4E4e2A",
      "value": {
        "_hex": "0x762179214dfa7f60"
      },
      "nonce": 5790,
      "data": "0x",
      "r": "0xb860df0e53c46997e13a5a0e9a660cceab6894eee843fae1d161f8339aab2903",
      "s": "0x0ca7622f3a0d51f2b4d843931d376064289c3b4ba0f388c3b3ddc3174a02e56f",
      "v": 27,
      "creates": null,
      "raw": "0xf86e82169e850ba43b74008255f094972ad000397a3c903299f1353d6d4b85ee4e4e2a88762179214dfa7f60801ba0b860df0e53c46997e13a5a0e9a660cceab6894eee843fae1d161f8339aab2903a00ca7622f3a0d51f2b4d843931d376064289c3b4ba0f388c3b3ddc3174a02e56f",
      "networkId": 0,
      "chainId": 0
    },
    {
      "hash": "0xd141529b647dd5beb07422ea90f14ac0246554d5026dbf3a0901e1d5ffb919e8",
      "blockHash": "0x4b123fb755d578a51a5bc360250649e656dccc16829e7724f497fda462fb5346",
      "blockNumber": 116823,
      "transactionIndex": 4,
      "confirmations": null,
      "from": "0xe6A7a1d47ff21B6321162AEA7C6CB457D5476Bca",
      "gasPrice": {
        "_hex": "0xba43b7400"
      },
      "gasLimit": {
        "_hex": "0x55f0"
      },
      "to": "0xe34490Fc3A3A1939465ae913D44BfCAf74b59b5D",
      "value": {
        "_hex": "0x7872298c9eaec448"
      },
      "nonce": 5791,
      "data": "0x",
      "r": "0x11457f32209134eb4494fe7198a7561d7494dcfb83835d6195d5ceb4b9121596",
      "s": "0x6aec83978ce5c9242510494f5d8203e488d88249dc15084d5e1e9a8e48d9a732",
      "v": 28,
      "creates": null,
      "raw": "0xf86e82169f850ba43b74008255f094e34490fc3a3a1939465ae913d44bfcaf74b59b5d887872298c9eaec448801ca011457f32209134eb4494fe7198a7561d7494dcfb83835d6195d5ceb4b9121596a06aec83978ce5c9242510494f5d8203e488d88249dc15084d5e1e9a8e48d9a732",
      "networkId": 0,
      "chainId": 0
    }
  ]
}