{
  "hash": "0x857e46b02bcfaef83be71545fd06c950f4dcb3ceacc4aeb609ce4bbd9d52250a",
  "parentHash": "0xa87176bc322d933113d643df143f6812d950f4a2455d3c914974826d38b4fd81",
  "number": 62404,
  "timestamp": 1439188223,
  "nonce": "0x80f4d7cbd841b699",
  "difficulty": 1766798578606,
  "gasLimit": {
    "_hex": "0x2fe3de"
  },
  "gasUsed": {
    "_hex": "0x546c"
  },
  "miner": "0xA10C59651885FeAaac91F871082a23BBbaBeDfCf",
  "extraData": "0x476574682f76312e302e302f77696e646f77732f676f312e342e32",
  "transactions": [
    {
      "hash": "0xf5cad8bcff5da75b7e0b2b01b5e9d73886978907f337795cde9d761340d8885c",
      "blockHash": "0x857e46b02bcfaef83be71545fd06c950f4dcb3ceacc4aeb609ce4bbd9d52250a",
      "blockNumber": 62404,
      "transactionIndex": 0,
      "confirmations": null,
      "from": "0xD09cb2e6082d693A13E8d2f68DD1DD8461F55840",
      "gasPrice": {
        "_hex": "0x110c8f7d8de"
      },
      "gasLimit": {
        "_hex": "0xc350"
      },
      "to": "0x2910543Af39abA0Cd09dBb2D50200b3E800A63D2",
      "value": {
        "_hex": "0x1b181e4bf2343c0000"
      },
      "nonce": 3,
      "data": "0x454e36314a33313647",
      "r": "0x40b11d0140a4e01194e7c0b1d3f76d63a06222f5847938d6674c6562e43fa4d3",
      "s": "0x24215e5ef36fa694e30063fef133651118861c962ac057b01870c3ec802804af",
      "v": 28,
      "creates": null,
      "raw": "0xf87703860110c8f7d8de82c350942910543af39aba0cd09dbb2d50200b3e800a63d2891b181e4bf2343c000089454e36314a333136471ca040b11d0140a4e01194e7c0b1d3f76d63a06222f5847938d6674c6562e43fa4d3a024215e5ef36fa694e30063fef133651118861c962ac057b01870c3ec802804af",
      "networkId": 0,
      "chainId": 0
    }
  ]
}