{
  "hash": "0x1da01aeb2664d11e7f5fecc61d749e65a0193b58e4491f3757fa4e172c8dd38e",
  "parentHash": "0x9fdef5009d48dc7c03a86ef368abe6a0bcba69f62d42c61d43254f21291fbb79",
  "number": 87876,
  "timestamp": 1439598904,
  "nonce": "0x5f66c782bb629329",
  "difficulty": 3189559258506,
  "gasLimit": {
    "_hex": "0x2fefd8"
  },
  "gasUsed": {
    "_hex": "0x14a84"
  },
  "miner": "0xe6A7a1d47ff21B6321162AEA7C6CB457D5476Bca",
  "extraData": "0x476574682f76312e302e312d38326566323666362f6c696e75782f676f312e34",
  "transactions": [
    {
      "hash": "0x036ba45d83ffc2cc1b62c6dd0be08b7d0d1f022d92d84d736db77e5d5cb4a931",
      "blockHash": "0x1da01aeb2664d11e7f5fecc61d749e65a0193b58e4491f3757fa4e172c8dd38e",
      "blockNumber": 87876,
      "transactionIndex": 0,
      "confirmations": null,
      "from": "0x4ad047faE67eF162FE68FedbC27d3B65cAF10C36",
      "gasPrice": {
        "_hex": "0x110c8f7d8de"
      },
      "gasLimit": {
        "_hex": "0xc350"
      },
      "to": "0x2910543Af39abA0Cd09dBb2D50200b3E800A63D2",
      "value": {
        "_hex": "0x56bc75e2d63100000"
      },
      "nonce": 1,
      "data": "0x454e4837585a564152",
      "r": "0x640723e8532c9d6dcd98415ae5d5560f6fe5ce339e80a59c7612ac41513517b1",
      "s": "0xa31a43b0783ec0c89b1cf228142a72daa031b9d1f9390881d303c883123f11f4",
      "v": 28,
      "creates": null,
      "raw": "0xf87701860110c8f7d8de82c350942910543af39aba0cd09dbb2d50200b3e800a63d289056bc75e2d6310000089454e4837585a5641521ca0640723e8532c9d6dcd98415ae5d5560f6fe5ce339e80a59c7612ac41513517b1a0a31a43b0783ec0c89b1cf228142a72daa031b9d1f9390881d303c883123f11f4",
      "networkId": 0,
      "chainId": 0
    },
    {
      "hash": "0xd352a585827192fb7f8c8f337c83f96eb88e1185acc710d7e705d72032411c45",
      "blockHash": "0x1da01aeb2664d11e7f5fecc61d749e65a0193b58e4491f3757fa4e172c8dd38e",
      "blockNumber": 87876,
      "transactionIndex": 1,
      "confirmations": null,
      "from": "0x32Be343B94f860124dC4fEe278FDCBD38C102D88",
      "gasPrice": {
        "_hex": "0xdb70ad3b2"
      },
      "gasLimit": {
        "_hex": "0x5208"
      },
      "to": "0xB6E50cCE61484289924ffb2629ea923272af1Ac1",
      "value": {
        "_hex": "0x1e4c049eed4650000"
      },
      "nonce": 806,
      "data": "0x",
      "r": "0xe867c9fb4920f46a9db56c1402271bd37ff96ce54f4876effa5bbe94b4d0c02a",
      "s": "0x4c1bd76556fba637662d553bf2ef5519b6d841118a91750323bd59884d2cc60f",
      "v": 28,
      "creates": null,
      "raw": "0xf86f820326850db70ad3b282520894b6e50cce61484289924ffb2629ea923272af1ac18901e4c049eed4650000801ca0e867c9fb4920f46a9db56c1402271bd37ff96ce54f4876effa5bbe94b4d0c02aa04c1bd76556fba637662d553bf2ef5519b6d841118a91750323bd59884d2cc60f",
      "networkId": 0,
      "chainId": 0
    },
    {
      "hash": "0x3bebad8a20f5ce2fefe2f70c324b31a8c69cc565880d86e558864f8ff1d98fb5",
      "blockHash": "0x1da01aeb2664d11e7f5fecc61d749e65a0193b58e4491f3757fa4e172c8dd38e",
      "blockNumber": 87876,
      "transactionIndex": 2,
      "confirmations": null,
      "from": "0x031778CE7A0BB1Aac0f29615378Fb240ed41c51b",
      "gasPrice": {
        "_hex": "0xdb70ad3b2"
      },
      "gasLimit": {
        "_hex": "0x5208"
      },
      "to": "0x32Be343B94f860124dC4fEe278FDCBD38C102D88",
      "value": {
        "_hex": "0xdbf5b04fb5d7000"
      },
      "nonce": 0,
      "data": "0x",
      "r": "0xd075e01e079ff22b6752bf86de6157ee7f98e4d131b2062ad73b508ae65a71f4",
      "s": "0x0062206148756958cbf5e3368f89e5112fab692e4fa286ab4b4dbb660713e93f",
      "v": 28,
      "creates": null,
      "raw": "0xf86b80850db70ad3b28252089432be343b94f860124dc4fee278fdcbd38c102d88880dbf5b04fb5d7000801ca0d075e01e079ff22b6752bf86de6157ee7f98e4d131b2062ad73b508ae65a71f49f62206148756958cbf5e3368f89e5112fab692e4fa286ab4b4dbb660713e93f",
      "networkId": 0,
      "chainId": 0
    },
    {
      "hash": "0x4345bd55581430674b568975b13ef67350a7ad97bacd77f282ccbaffd3b8ed2b",
      "blockHash": "0x1da01aeb2664d11e7f5fecc61d749e65a0193b58e4491f3757fa4e172c8dd38e",
      "blockNumber": 87876,
      "transactionIndex": 3,
      "confirmations": null,
      "from": "0x32Be343B94f860124dC4fEe278FDCBD38C102D88",
      "gasPrice": {
        "_hex": "0xdb70ad3b2"
      },
      "gasLimit": {
        "_hex": "0x5208"
      },
      "to": "0xeAB2453c6ffcB1f58FA3e60Db9C76d965898C826",
      "value": {
        "_hex": "0x963cea76bd9c3000"
      },
      "nonce": 807,
      "data": "0x",
      "r": "0xd85b243039239340fcc3ff0ec4dcd59db9bee0155bbd9ece0a83439b4f63d8a0",
      "s": "0x639fde1c08f0f4235e2f403635e8fbe928ab7cc2a146c63ca04121deaa21a10b",
      "v": 28,
      "creates": null,
      "raw": "0xf86e820327850db70ad3b282520894eab2453c6ffcb1f58fa3e60db9c76d965898c82688963cea76bd9c3000801ca0d85b243039239340fcc3ff0ec4dcd59db9bee0155bbd9ece0a83439b4f63d8a0a0639fde1c08f0f4235e2f403635e8fbe928ab7cc2a146c63ca04121deaa21a10b",
      "networkId": 0,
      "chainId": 0
    }
  ]
}