{
  "hash": "0x2f31d6fc4b3d3f479ae4b39f1634fd3ac7f54b6565887af84556902e7af13679",
  "parentHash": "0xda494089c9f50f4d7233a756dacac57e20dea3b47c90aa491695847811abbd6a",
  "number": 84613,
  "timestamp": 1439552116,
  "nonce": "0x43422ca2e43b0dba",
  "difficulty": 2587776598637,
  "gasLimit": {
    "_hex": "0x2fefd8"
  },
  "gasUsed": {
    "_hex": "0x5208"
  },
  "miner": "0x36a3706566A8f9b27e7d604f4702900Acd31f32E",
  "extraData": "0x476574682f76312e302e312f6c696e75782f676f312e342e32",
  "transactions": [
    {
      "hash": "0xafaa95d3235bff779b4cef58a51076c385d22fc53965d362d70eefddcec0deaf",
      "blockHash": "0x2f31d6fc4b3d3f479ae4b39f1634fd3ac7f54b6565887af84556902e7af13679",
      "blockNumber": 84613,
      "transactionIndex": 0,
      "confirmations": null,
      "from": "0x695b4cCE085856d9e1f9Ff3e79942023359E5fbC",
      "gasPrice": {
        "_hex": "0xdd08d81a1"
      },
      "gasLimit": {
        "_hex": "0x5208"
      },
      "to": "0xBb8F3Dd31Dd284Cc1Deeec5Ac356aD38296Ea6A0",
      "value": {
        "_hex": "0x2710"
      },
      "nonce": 0,
      "data": "0x",
      "r": "0x4ebe0f41d8db980c8d5063d843757e9d406798b7eda073c88636b6c3871664ef",
      "s": "0x667b28fede64fd57509d207fb3474f5b6e0f904fb605804b211ff3c54cf78477",
      "v": 28,
      "creates": null,
      "raw": "0xf86680850dd08d81a182520894bb8f3dd31dd284cc1deeec5ac356ad38296ea6a0822710801ca04ebe0f41d8db980c8d5063d843757e9d406798b7eda073c88636b6c3871664efa0667b28fede64fd57509d207fb3474f5b6e0f904fb605804b211ff3c54cf78477",
      "networkId": 0,
      "chainId": 0
    }
  ]
}