{
  "hash": "0xf213b242d0f2a103ebad18c035e75d93791581a41daf28b934e3bd49b51590ea",
  "parentHash": "0x33deb0ff43fee5e53c15e63801a2bd502b99ef7cbf82d4a4f5240df98a7b5143",
  "number": 112263,
  "timestamp": 1440004651,
  "nonce": "0x23a368ed92d63a06",
  "difficulty": 4383188349028,
  "gasLimit": {
    "_hex": "0x2fefd8"
  },
  "gasUsed": {
    "_hex": "0x5208"
  },
  "miner": "0xe6A7a1d47ff21B6321162AEA7C6CB457D5476Bca",
  "extraData": "0x476574682f76312e302e312d38326566323666362f6c696e75782f676f312e34",
  "transactions": [
    {
      "hash": "0x3f6aaad166a8230f0e07246d0429d681fdfc39b47244d413319df32b5009e826",
      "blockHash": "0xf213b242d0f2a103ebad18c035e75d93791581a41daf28b934e3bd49b51590ea",
      "blockNumber": 112263,
      "transactionIndex": 0,
      "confirmations": null,
      "from": "0xFBb1b73C4f0BDa4f67dcA266ce6Ef42f520fBB98",
      "gasPrice": {
        "_hex": "0xcc10def31"
      },
      "gasLimit": {
        "_hex": "0x5208"
      },
      "to": "0x2678D3A52f796B7Fc9BA469579de3891af5f8A95",
      "value": {
        "_hex": "0xde0b6b3a7640000"
      },
      "nonce": 220,
      "data": "0x",
      "r": "0x18b8b19edf12f5368af9da083c164e254ee75c3f25396b3f665c6d0aa3c8cffe",
      "s": "0x5384139abbc33199c38cfe71d9905011713789b85aa47593addedb95ec506f74",
      "v": 28,
      "creates": null,
      "raw": "0xf86d81dc850cc10def31825208942678d3a52f796b7fc9ba469579de3891af5f8a95880de0b6b3a7640000801ca018b8b19edf12f5368af9da083c164e254ee75c3f25396b3f665c6d0aa3c8cffea05384139abbc33199c38cfe71d9905011713789b85aa47593addedb95ec506f74",
      "networkId": 0,
      "chainId": 0
    }
  ]
}