{
  "hash": "0xec5acd0d7bb4054bcb69162ac08b62a2775493b47bcf80fbe0d8ab867047aa76",
  "parentHash": "0xe7a459387c6ebf92c85dd025bddbc8ea3b4888a05d8e486593f354a659b4b0d2",
  "number": 79485,
  "timestamp": 1439470500,
  "nonce": "0xe5c052059a75bbaa",
  "difficulty": 2332447535003,
  "gasLimit": {
    "_hex": "0x2fefd8"
  },
  "gasUsed": {
    "_hex": "0x5208"
  },
  "miner": "0x8eB3747b8397C48BC29fd5Df6765AbCEfbDffFCA",
  "extraData": "0x476574682f76312e302e312d38326566323666362f6c696e75782f676f312e34",
  "transactions": [
    {
      "hash": "0x48723a331d66e2548b045a25d64cb63ea38dbf141df7944cc240d88c8c7a80b6",
      "blockHash": "0xec5acd0d7bb4054bcb69162ac08b62a2775493b47bcf80fbe0d8ab867047aa76",
      "blockNumber": 79485,
      "transactionIndex": 0,
      "confirmations": null,
      "from": "0x4d67f2AB8599fef5Fc413999Aa01FD7fcE70B43D",
      "gasPrice": {
        "_hex": "0xdafa12092"
      },
      "gasLimit": {
        "_hex": "0x55f0"
      },
      "to": "0x60f7C29656Fc491e766750556fE4F0E407f81eB5",
      "value": {
        "_hex": "0x1bc16d674ec80000"
      },
      "nonce": 5,
      "data": "0x",
      "r": "0xd83ca2de4ad2f9f67db30bd455d36fc406330ff7bb92ba98baf8c1b6c8197559",
      "s": "0x3984d6d970e864854fbf6a8a38ef343db28e6c719af5153ffba76ceb3c80bddf",
      "v": 28,
      "creates": null,
      "raw": "0xf86c05850dafa120928255f09460f7c29656fc491e766750556fe4f0e407f81eb5881bc16d674ec80000801ca0d83ca2de4ad2f9f67db30bd455d36fc406330ff7bb92ba98baf8c1b6c8197559a03984d6d970e864854fbf6a8a38ef343db28e6c719af5153ffba76ceb3c80bddf",
      "networkId": 0,
      "chainId": 0
    }
  ]
}