{
  "hash": "0xec747a7fc65d256d86e0efc27349c270c5d2748830c5b2e38e380e5655b1f291",
  "parentHash": "0xf3d6e008fa333cef40b24a702405c124f683394ae984fdaa0f4225ffdf839d27",
  "number": 82652,
  "timestamp": 1439522970,
  "nonce": "0xb1eaf5bf8d764452",
  "difficulty": 2367127854601,
  "gasLimit": {
    "_hex": "0x2fefd8"
  },
  "gasUsed": {
    "_hex": "0xa410"
  },
  "miner": "0x88D74a59454F6cF3B51ef6b9136AFb6b9D405A88",
  "extraData": "0x476574682f76312e302e312d38326566323666362f6c696e75782f676f312e34",
  "transactions": [
    {
      "hash": "0x15dc2944ba778351912f665b63f05bfd07b26745d7145146e5d09df091e78afe",
      "blockHash": "0xec747a7fc65d256d86e0efc27349c270c5d2748830c5b2e38e380e5655b1f291",
      "blockNumber": 82652,
      "transactionIndex": 0,
      "confirmations": null,
      "from": "0x47ff6576639c2e94762eA5443978D7681C0E78DC",
      "gasPrice": {
        "_hex": "0xcfab2a390"
      },
      "gasLimit": {
        "_hex": "0x5208"
      },
      "to": "0x3620db64D25D412bAb4C8d93E2e0D7e64e8Cb933",
      "value": {
        "_hex": "0x5ccec5d16f6cc0000"
      },
      "nonce": 24,
      "data": "0x",
      "r": "0x4539adbd370822de790b67994f7c6f44fae2c196043768becc0625f03de06af5",
      "s": "0x0f1b156deefb18b8537c48a4e6563f7f5bf5beb4ff47da2fd48007a767c7714f",
      "v": 27,
      "creates": null,
      "raw": "0xf86d18850cfab2a390825208943620db64d25d412bab4c8d93e2e0d7e64e8cb9338905ccec5d16f6cc0000801ba04539adbd370822de790b67994f7c6f44fae2c196043768becc0625f03de06af5a00f1b156deefb18b8537c48a4e6563f7f5bf5beb4ff47da2fd48007a767c7714f",
      "networkId": 0,
      "chainId": 0
    },
    {
      "hash": "0xfeffdffe7a01691d5b3c0148f23784d61537f3213b170403f8863d54a603667f",
      "blockHash": "0xec747a7fc65d256d86e0efc27349c270c5d2748830c5b2e38e380e5655b1f291",
      "blockNumber": 82652,
      "transactionIndex": 1,
      "confirmations": null,
      "from": "0xa8E7201ff619fAFFc332E6aD37Ed41e301bf014a",
      "gasPrice": {
        "_hex": "0xcbcee6a77"
      },
      "gasLimit": {
        "_hex": "0x15f90"
      },
      "to": "0x00C865a16eD3c930DD70B642507639D199C62180",
      "value": {
        "_hex": "0x27e60d44813f80000"
      },
      "nonce": 3,
      "data": "0x",
      "r": "0x102f16a90dd7ba414cffe6d08ad08a3ddfa828bed538d490ee3c718874dc5dc3",
      "s": "0x6326f7a0d0c563d9d7a9a6c727b94b6b701c5f9d2d5a2c8929c7d43c4491dc9c",
      "v": 28,
      "creates": null,
      "raw": "0xf86e03850cbcee6a7783015f909400c865a16ed3c930dd70b642507639d199c6218089027e60d44813f80000801ca0102f16a90dd7ba414cffe6d08ad08a3ddfa828bed538d490ee3c718874dc5dc3a06326f7a0d0c563d9d7a9a6c727b94b6b701c5f9d2d5a2c8929c7d43c4491dc9c",
      "networkId": 0,
      "chainId": 0
    }
  ]
}