{
  "hash": "0x456934cd6bfff77f111816de01040fb0a83acc37ff27a66479353355ff66b6be",
  "parentHash": "0x0221544bb26c29f2a64e48f7c280827d71960042d9f074e77d642fa61dedc4ee",
  "number": 110514,
  "timestamp": 1439975031,
  "nonce": "0xddbbf8d16eedee26",
  "difficulty": 4369143179816,
  "gasLimit": {
    "_hex": "0x2fefd8"
  },
  "gasUsed": {
    "_hex": "0x1ec30"
  },
  "miner": "0x790b8a3cE86E707ED0eD32bF89B3269692a23CC1",
  "extraData": "0xd783010001844765746887676f312e342e32856c696e7578",
  "transactions": [
    {
      "hash": "0xbdd7645302dabae551a7f0c08929404cdd3eb1940b87ec834bc210121c889771",
      "blockHash": "0x456934cd6bfff77f111816de01040fb0a83acc37ff27a66479353355ff66b6be",
      "blockNumber": 110514,
      "transactionIndex": 0,
      "confirmations": null,
      "from": "0x3FF679B0823a026F2378E5f5F22A6F127cC85828",
      "gasPrice": {
        "_hex": "0x10adb70e97a"
      },
      "gasLimit": {
        "_hex": "0x61a8"
      },
      "to": "0xD5C99f3AD1fA58DfC24962640F981070e5647749",
      "value": {
        "_hex": "0x16345785d8a0000"
      },
      "nonce": 6,
      "data": "0x",
      "r": "0xf20db9e6b5a7e3ecb4e9bc56fb195ec7888dda9722aac489c5f7907ef52ea6df",
      "s": "0x5818dd73fe5bb3a95ce5a2224000cf40b84e664b4a1542e4917f7859044626d2",
      "v": 27,
      "creates": null,
      "raw": "0xf86d0686010adb70e97a8261a894d5c99f3ad1fa58dfc24962640f981070e564774988016345785d8a0000801ba0f20db9e6b5a7e3ecb4e9bc56fb195ec7888dda9722aac489c5f7907ef52ea6dfa05818dd73fe5bb3a95ce5a2224000cf40b84e664b4a1542e4917f7859044626d2",
      "networkId": 0,
      "chainId": 0
    },
    {
      "hash": "0x3b6343c4f9e26e9b2f28bc18eb61485fe0a73132901d444a86e4b957324e600c",
      "blockHash": "0x456934cd6bfff77f111816de01040fb0a83acc37ff27a66479353355ff66b6be",
      "blockNumber": 110514,
      "transactionIndex": 1,
      "confirmations": null,
      "from": "0x8B887D1b0311823A819f180063eCa8D40EA8524a",
      "gasPrice": {
        "_hex": "0xdb9a05b3c"
      },
      "gasLimit": {
        "_hex": "0x5208"
      },
      "to": "0x32Be343B94f860124dC4fEe278FDCBD38C102D88",
      "value": {
        "_hex": "0xddc50cf9d7bdc00"
      },
      "nonce": 0,
      "data": "0x",
      "r": "0x1521231f73bd91987544f2339b48e8e882d260f0f955d8e92f45fb0f538f779b",
      "s": "0x07885088dd2b26bae0096b434b2d1b8ebf318238da2025a4f363ebd3c45c5df5",
      "v": 27,
      "creates": null,
      "raw": "0xf86c80850db9a05b3c8252089432be343b94f860124dc4fee278fdcbd38c102d88880ddc50cf9d7bdc00801ba01521231f73bd91987544f2339b48e8e882d260f0f955d8e92f45fb0f538f779ba007885088dd2b26bae0096b434b2d1b8ebf318238da2025a4f363ebd3c45c5df5",
      "networkId": 0,
      "chainId": 0
    },
    {
      "hash": "0xbde0bccb8a5d143c1d7153ba051285db8528e63da8246d4a83c2440485e76004",
      "blockHash": "0x456934cd6bfff77f111816de01040fb0a83acc37ff27a66479353355ff66b6be",
      "blockNumber": 110514,
      "transactionIndex": 2,
      "confirmations": null,
      "from": "0x9ac4E9D48C027208905CF2A81f304664A5dAeF87",
      "gasPrice": {
        "_hex": "0xdb9a05b3c"
      },
      "gasLimit": {
        "_hex": "0x5208"
      },
      "to": "0x32Be343B94f860124dC4fEe278FDCBD38C102D88",
      "value": {
        "_hex": "0xa39dd79f99724000"
      },
      "nonce": 1,
      "data": "0x",
      "r": "0xd9a27995211bd2f5c06f3ea23739380c32407ac27085d58e85ac5bc16788bcb5",
      "s": "0x0b7749c1d493bfa5036969e7035b9317966bf9e9612bdd7af76b8981238cb051",
      "v": 28,
      "creates": null,
      "raw": "0xf86c01850db9a05b3c8252089432be343b94f860124dc4fee278fdcbd38c102d8888a39dd79f99724000801ca0d9a27995211bd2f5c06f3ea23739380c32407ac27085d58e85ac5bc16788bcb5a00b7749c1d493bfa5036969e7035b9317966bf9e9612bdd7af76b8981238cb051",
      "networkId": 0,
      "chainId": 0
    },
    {
      "hash": "0xd259f0057e5329218f277d0ac13538ebfe2319b3907a98fa4755bbc89e7c8f00",
      "blockHash": "0x456934cd6bfff77f111816de01040fb0a83acc37ff27a66479353355ff66b6be",
      "blockNumber": 110514,
      "transactionIndex": 3,
      "confirmations": null,
      "from": "0x6E1d699d3d1210A11c9f4749A04BC3866D98581D",
      "gasPrice": {
        "_hex": "0xdb9a05b3c"
      },
      "gasLimit": {
        "_hex": "0x5208"
      },
      "to": "0x32Be343B94f860124dC4fEe278FDCBD38C102D88",
      "value": {
        "_hex": "0x6c6b8ef5a7b3580000"
      },
      "nonce": 0,
      "data": "0x",
      "r": "0xacdfefd57bb9a7a530296ade39f95f64601e73e1c4d912d3660624e222b30688",
      "s": "0x2455240d2aed09e1aec28605a9cc753bbb577bd0f291af08d5094d8f8c9e60e3",
      "v": 27,
      "creates": null,
      "raw": "0xf86d80850db9a05b3c8252089432be343b94f860124dc4fee278fdcbd38c102d88896c6b8ef5a7b3580000801ba0acdfefd57bb9a7a530296ade39f95f64601e73e1c4d912d3660624e222b30688a02455240d2aed09e1aec28605a9cc753bbb577bd0f291af08d5094d8f8c9e60e3",
      "networkId": 0,
      "chainId": 0
    },
    {
      "hash": "0xe7ff71380b9cf709122ad55aefc399cc5f1b21499174a1b85e56fa892cc9e4c8",
      "blockHash": "0x456934cd6bfff77f111816de01040fb0a83acc37ff27a66479353355ff66b6be",
      "blockNumber": 110514,
      "transactionIndex": 4,
      "confirmations": null,
      "from": "0x7BD85B8e7546f88b3560CC11380C61eb7c9F95db",
      "gasPrice": {
        "_hex": "0xdb9a05b3c"
      },
      "gasLimit": {
        "_hex": "0x5208"
      },
      "to": "0x32Be343B94f860124dC4fEe278FDCBD38C102D88",
      "value": {
        "_hex": "0x8ac2bd207fffe000"
      },
      "nonce": 0,
      "data": "0x",
      "r": "0x883750752c0a3dd0ba5d3dca9d3c43f5bbaa1132f060bbfd2b0c5988e2ce8f65",
      "s": "0x2769ad91f277de8fbbafe355b45f495484c615a0e6976f30632c979ff7b1e005",
      "v": 27,
      "creates": null,
      "raw": "0xf86c80850db9a05b3c8252089432be343b94f860124dc4fee278fdcbd38c102d88888ac2bd207fffe000801ba0883750752c0a3dd0ba5d3dca9d3c43f5bbaa1132f060bbfd2b0c5988e2ce8f65a02769ad91f277de8fbbafe355b45f495484c615a0e6976f30632c979ff7b1e005",
      "networkId": 0,
      "chainId": 0
    },
    {
      "hash": "0x731e102a1ee5a9081fd11c38745b3fa1b95ea9de02ce9b91720d3567c4630be2",
      "blockHash": "0x456934cd6bfff77f111816de01040fb0a83acc37ff27a66479353355ff66b6be",
      "blockNumber": 110514,
      "transactionIndex": 5,
      "confirmations": null,
      "from": "0xCeC4fF1eD13686d78234A6F8377d9d65d67f0c5a",
      "gasPrice": {
        "_hex": "0xdb9a05b3c"
      },
      "gasLimit": {
        "_hex": "0x5208"
      },
      "to": "0x32Be343B94f860124dC4fEe278FDCBD38C102D88",
      "value": {
        "_hex": "0x2f2159f2041c8400"
      },
      "nonce": 0,
      "data": "0x",
      "r": "0x946ad2df205d9323145d85bfcd055d15f230ae0669dab1bf9a4ec20600ea924a",
      "s": "0x0a6d24e5bbfb8c9541791708f248a577929ebfaf4a7ac06a84e8b6c5411e52a8",
      "v": 27,
      "creates": null,
      "raw": "0xf86c80850db9a05b3c8252089432be343b94f860124dc4fee278fdcbd38c102d88882f2159f2041c8400801ba0946ad2df205d9323145d85bfcd055d15f230ae0669dab1bf9a4ec20600ea924aa00a6d24e5bbfb8c9541791708f248a577929ebfaf4a7ac06a84e8b6c5411e52a8",
      "networkId": 0,
      "chainId": 0
    }
  ]
}