{
  "hash": "0xcbd1e669d829163c4e3f0b8c7440c292c701c50590a20d681eb6562b3a17263a",
  "parentHash": "0x088b0f4366ddf6fa38112386a8d8b1ef646f1a6412ca2ec11f07276820e63ab9",
  "number": 55130,
  "timestamp": 1439065766,
  "nonce": "0xe0bd4206b4e2528b",
  "difficulty": 1641840007738,
  "gasLimit": {
    "_hex": "0x2fefd8"
  },
  "gasUsed": {
    "_hex": "0x7a120"
  },
  "miner": "0xFC51D7bFF03328dC190c416DFf3Db6CEb8dbdA7B",
  "extraData": "0x476574682f76312e302e312f77696e646f77732f676f312e342e32",
  "transactions": [
    {
      "hash": "0xa5f212ef5933ff4ae5caca8851f7f5091d4fc31948ebc19d6c2552e1f64dcf92",
      "blockHash": "0xcbd1e669d829163c4e3f0b8c7440c292c701c50590a20d681eb6562b3a17263a",
      "blockNumber": 55130,
      "transactionIndex": 0,
      "confirmations": null,
      "from": "0x0ae3F81a67725a8A7758FeB8684c6c17dA20755D",
      "gasPrice": {
        "_hex": "0xcbd37f502"
      },
      "gasLimit": {
        "_hex": "0x7a120"
      },
      "to": "0xA327075af2a223A1C83a36aDa1126afE7430f955",
      "value": {
        "_hex": "0x8ac7230489e80000"
      },
      "nonce": 2,
      "data": "0x",
      "r": "0x3819dfb2669c3cd8e5cc85522178334d360f6ba5227cf5e92459330464f43276",
      "s": "0x0c3a561ffb355a2d066ff9c64dd9b8ba3dd0706c4ffe5dd2a1a0d336f3ac9ee8",
      "v": 28,
      "creates": null,
      "raw": "0xf86d02850cbd37f5028307a12094a327075af2a223a1c83a36ada1126afe7430f955888ac7230489e80000801ca03819dfb2669c3cd8e5cc85522178334d360f6ba5227cf5e92459330464f43276a00c3a561ffb355a2d066ff9c64dd9b8ba3dd0706c4ffe5dd2a1a0d336f3ac9ee8",
      "networkId": 0,
      "chainId": 0
    }
  ]
}