{
  "hash": "0x907440a455dd1333be5b35bf85ea3d5bb131df0c05e7bfe24e624371ba4e2df2",
  "parentHash": "0x28519d16984155cf5754fd596b2d43dc149d1a408d9b4dcf8f116c97463670c7",
  "number": 91700,
  "timestamp": 1439660022,
  "nonce": "0x33e41e75139232f4",
  "difficulty": 3491205901630,
  "gasLimit": {
    "_hex": "0x2fefd8"
  },
  "gasUsed": {
    "_hex": "0x5208"
  },
  "miner": "0xe6A7a1d47ff21B6321162AEA7C6CB457D5476Bca",
  "extraData": "0x476574682f76312e302e312d38326566323666362f6c696e75782f676f312e34",
  "transactions": [
    {
      "hash": "0x94038e1e1685baff84ec0dae69e6010ab4246b92ecc37438067d57079378ee25",
      "blockHash": "0x907440a455dd1333be5b35bf85ea3d5bb131df0c05e7bfe24e624371ba4e2df2",
      "blockNumber": 91700,
      "transactionIndex": 0,
      "confirmations": null,
      "from": "0xC3fe64D1af00F0d9c324E4387EF7533f7D788e95",
      "gasPrice": {
        "_hex": "0xddbe01100"
      },
      "gasLimit": {
        "_hex": "0x5208"
      },
      "to": "0x32Be343B94f860124dC4fEe278FDCBD38C102D88",
      "value": {
        "_hex": "0x1af94ff5c94e18000"
      },
      "nonce": 11,
      "data": "0x",
      "r": "0x11bf314411d36a99e3d6c893e7d0092896f4d77402ec711213e8b5d3bf489082",
      "s": "0x492c49e2d7c59f8224f7c9227cc53bbac4d2ce6531cecdc21c79d4f0b220cd85",
      "v": 27,
      "creates": null,
      "raw": "0xf86d0b850ddbe011008252089432be343b94f860124dc4fee278fdcbd38c102d888901af94ff5c94e18000801ba011bf314411d36a99e3d6c893e7d0092896f4d77402ec711213e8b5d3bf489082a0492c49e2d7c59f8224f7c9227cc53bbac4d2ce6531cecdc21c79d4f0b220cd85",
      "networkId": 0,
      "chainId": 0
    }
  ]
}