{
  "hash": "0xf4125f847f714914e092ece2f8af66b6cd9ed9016589873c54e235375d4c06b6",
  "parentHash": "0x1673abbed3d00e1878f79066239170a1a8acd53c82265b80ddfc4d96f6ce4a0f",
  "number": 69920,
  "timestamp": 1439311865,
  "nonce": "0x485cd8298fa90186",
  "difficulty": 2108564972214,
  "gasLimit": {
    "_hex": "0x2fefd8"
  },
  "gasUsed": {
    "_hex": "0xa410"
  },
  "miner": "0x88D74a59454F6cF3B51ef6b9136AFb6b9D405A88",
  "extraData": "0x476574682f76312e302e312d37666266393930632f6c696e75782f676f312e34",
  "transactions": [
    {
      "hash": "0x188a4870720c7fd572b1ad064ffc5238271ee9c7b95aa030fa22bc65e7285c39",
      "blockHash": "0xf4125f847f714914e092ece2f8af66b6cd9ed9016589873c54e235375d4c06b6",
      "blockNumber": 69920,
      "transactionIndex": 0,
      "confirmations": null,
      "from": "0x132dDeF595eE2Bb0092F7484f2DCBCBfeE0DCB65",
      "gasPrice": {
        "_hex": "0xd7d40ace3"
      },
      "gasLimit": {
        "_hex": "0x15f90"
      },
      "to": "0x6d921977dEFE5f4e0682CA512De1D07b1f4802E1",
      "value": {
        "_hex": "0xde0b6b3a7640000"
      },
      "nonce": 0,
      "data": "0x",
      "r": "0xe593796b58f6f6f2a72718c29d4fb414a12c5ce770e101a27d1e0e9cd5481299",
      "s": "0x4c6098ead0cc542f9478c4b30d6c963366ff2a91008dcbfd39a55cae29839af8",
      "v": 27,
      "creates": null,
      "raw": "0xf86d80850d7d40ace383015f90946d921977defe5f4e0682ca512de1d07b1f4802e1880de0b6b3a7640000801ba0e593796b58f6f6f2a72718c29d4fb414a12c5ce770e101a27d1e0e9cd5481299a04c6098ead0cc542f9478c4b30d6c963366ff2a91008dcbfd39a55cae29839af8",
      "networkId": 0,
      "chainId": 0
    },
    {
      "hash": "0xac837022305697e8aed36484c032cc77b41f6af11f48e186816189616f5cb328",
      "blockHash": "0xf4125f847f714914e092ece2f8af66b6cd9ed9016589873c54e235375d4c06b6",
      "blockNumber": 69920,
      "transactionIndex": 1,
      "confirmations": null,
      "from": "0x88a0A05437262a1b65f41A978Cb16CB1f0BFCfE0",
      "gasPrice": {
        "_hex": "0xd6d60ff23"
      },
      "gasLimit": {
        "_hex": "0x15f90"
      },
      "to": "0xC6318573a1Eb70B7B3d53F007d46fcEB3CFcEEaC",
      "value": {
        "_hex": "0xcdff97fabcb4600000"
      },
      "nonce": 7,
      "data": "0x",
      "r": "0x1545206d189bf3bfa9f94f9e44c58f0687ac843ffcb3da4c74c945ac16dc90a5",
      "s": "0x0bade86b78a519b8f8173c81203102209fb3ca3a3f18ac337b02e92ef41aa824",
      "v": 28,
      "creates": null,
      "raw": "0xf86e07850d6d60ff2383015f9094c6318573a1eb70b7b3d53f007d46fceb3cfceeac89cdff97fabcb4600000801ca01545206d189bf3bfa9f94f9e44c58f0687ac843ffcb3da4c74c945ac16dc90a5a00bade86b78a519b8f8173c81203102209fb3ca3a3f18ac337b02e92ef41aa824",
      "networkId": 0,
      "chainId": 0
    }
  ]
}