{
  "hash": "0xcfad73671f15dbb770ed729c6c0a7a91c728b0089522f2897a68674b86b0b68b",
  "parentHash": "0x44ebe30a400a3dbc6c5a5f76a6f9056ffa88f7442c76244346bd88eb76d1494e",
  "number": 48372,
  "timestamp": 1438956069,
  "nonce": "0x5e4be379b2160c3d",
  "difficulty": 1454340979828,
  "gasLimit": {
    "_hex": "0x16358"
  },
  "gasUsed": {
    "_hex": "0x5208"
  },
  "miner": "0xe6A7a1d47ff21B6321162AEA7C6CB457D5476Bca",
  "extraData": "0x657468706f6f6c2e6f7267",
  "transactions": [
    {
      "hash": "0x790716741de60b6570e1f9873543b41768f1358354d4d9c36115e0864573f144",
      "blockHash": "0xcfad73671f15dbb770ed729c6c0a7a91c728b0089522f2897a68674b86b0b68b",
      "blockNumber": 48372,
      "transactionIndex": 0,
      "confirmations": null,
      "from": "0x85A2F6ea94D05E8C1d9Ae2F4910338a358e98DeD",
      "gasPrice": {
        "_hex": "0xcbe9ba620"
      },
      "gasLimit": {
        "_hex": "0x15f90"
      },
      "to": "0x1d11039E8aba91dB85Cd57374db27D992c384305",
      "value": {
        "_hex": "0xb1a2bc2ec50000"
      },
      "nonce": 0,
      "data": "0x",
      "r": "0xf3dd03a718d366c78eefa3608bfa122d50c9bedbedf7bc642fea20046ff7983b",
      "s": "0x4ba6748afd788cd2607ad3717a4c6d491643c6f500563cdca82df499f0417b14",
      "v": 28,
      "creates": null,
      "raw": "0xf86c80850cbe9ba62083015f90941d11039e8aba91db85cd57374db27d992c38430587b1a2bc2ec50000801ca0f3dd03a718d366c78eefa3608bfa122d50c9bedbedf7bc642fea20046ff7983ba04ba6748afd788cd2607ad3717a4c6d491643c6f500563cdca82df499f0417b14",
      "networkId": 0,
      "chainId": 0
    }
  ]
}