{
  "hash": "0xe54bbf73a4c57180a05cf289df294821d5a4a1a0974360c8083e4bc44acd5985",
  "parentHash": "0x09d8ee593481177416e09c2894d8b4aea9207bee6b8d5a8017abb25c84b3f443",
  "number": 49635,
  "timestamp": 1438976638,
  "nonce": "0x3a789104fa84b72e",
  "difficulty": 1482078170471,
  "gasLimit": {
    "_hex": "0x38662"
  },
  "gasUsed": {
    "_hex": "0x5208"
  },
  "miner": "0xf927a40C8B7F6E07c5af7FA2155B4864a4112B13",
  "extraData": "0x476574682f76312e302e312f6c696e75782f676f312e342e32",
  "transactions": [
    {
      "hash": "0x3d1f7b134f6739b35769753fa6911484c8f3e90989ea752b8e83831063ef4a38",
      "blockHash": "0xe54bbf73a4c57180a05cf289df294821d5a4a1a0974360c8083e4bc44acd5985",
      "blockNumber": 49635,
      "transactionIndex": 0,
      "confirmations": null,
      "from": "0xbb7B8287f3F0a933474a79eAe42CBCa977791171",
      "gasPrice": {
        "_hex": "0x746a528800"
      },
      "gasLimit": {
        "_hex": "0x61a8"
      },
      "to": "0x43E68aAD0BC1F4D601BB7a0af8e9aF3f8ED44458",
      "value": {
        "_hex": "0x6c6b935b8bbd400000"
      },
      "nonce": 3,
      "data": "0x",
      "r": "0x7c42021dcc98f96011a5cefbe73bb6a6dcf6f7004f79ab612505790d1ddb5bed",
      "s": "0x63d3dc9ba18b4ef87d3eb9c902ccd8a39493562cc1e507364c4392513aea98e8",
      "v": 27,
      "creates": null,
      "raw": "0xf86d0385746a5288008261a89443e68aad0bc1f4d601bb7a0af8e9af3f8ed44458896c6b935b8bbd400000801ba07c42021dcc98f96011a5cefbe73bb6a6dcf6f7004f79ab612505790d1ddb5beda063d3dc9ba18b4ef87d3eb9c902ccd8a39493562cc1e507364c4392513aea98e8",
      "networkId": 0,
      "chainId": 0
    }
  ]
}