{
  "hash": "0xaaf1006b6b460515811b169327ba4aa064caae5ae3c25540466a57628c260700",
  "parentHash": "0xb8e81c50f0f40ac4e514f039f1555c6ef23187130aa943ad2b45ed4d66e8f8ec",
  "number": 56889,
  "timestamp": 1439094115,
  "nonce": "0xd4f0454b1398be06",
  "difficulty": 1709387683624,
  "gasLimit": {
    "_hex": "0x2fefd8"
  },
  "gasUsed": {
    "_hex": "0x5208"
  },
  "miner": "0x64bE1C1A0198370F53B2081e15478BE3135D6beF",
  "extraData": "0x476574682f76312e302e312f77696e646f77732f676f312e342e32",
  "transactions": [
    {
      "hash": "0xcd56c47f5437922966f7e8f4b287afd8dc65b09dfa29d9b57a6b4fb1107ebcae",
      "blockHash": "0xaaf1006b6b460515811b169327ba4aa064caae5ae3c25540466a57628c260700",
      "blockNumber": 56889,
      "transactionIndex": 0,
      "confirmations": null,
      "from": "0x33fb577a4D214Fe010d32cca7c3eEda63F87cEEF",
      "gasPrice": {
        "_hex": "0xd7d40ace3"
      },
      "gasLimit": {
        "_hex": "0x15f90"
      },
      "to": "0xa64015e0870ff579f8827b39b538C1eda5eF25A0",
      "value": {
        "_hex": "0x38d7ea4c68000"
      },
      "nonce": 1,
      "data": "0x",
      "r": "0xc3d556ba0a8e5723d4d6336648f63589c07e16c8acc7d1506fe54fce2363e664",
      "s": "0x61ffb3dc71766e58270fdd6a80b3c25e456cd54808ddb4d267015865abb7bf93",
      "v": 28,
      "creates": null,
      "raw": "0xf86c01850d7d40ace383015f9094a64015e0870ff579f8827b39b538c1eda5ef25a087038d7ea4c68000801ca0c3d556ba0a8e5723d4d6336648f63589c07e16c8acc7d1506fe54fce2363e664a061ffb3dc71766e58270fdd6a80b3c25e456cd54808ddb4d267015865abb7bf93",
      "networkId": 0,
      "chainId": 0
    }
  ]
}