{
  "hash": "0xf9c42589009b5cb11a97dc0d9373ddb8bf932677ba4143f948c466a4ed33d097",
  "parentHash": "0xd68af9d8fd611334785ad911745f8339906ffa31acfa8c46bfbd32d667c71cfd",
  "number": 96491,
  "timestamp": 1439741212,
  "nonce": "0x2019cfa9450d48ca",
  "difficulty": 3672768034512,
  "gasLimit": {
    "_hex": "0x2fefd8"
  },
  "gasUsed": {
    "_hex": "0x5208"
  },
  "miner": "0xf927a40C8B7F6E07c5af7FA2155B4864a4112B13",
  "extraData": "0x",
  "transactions": [
    {
      "hash": "0xb2246a4dfb111f681f1938b2b263797d461f41873b24caa0c2e8801025b7de94",
      "blockHash": "0xf9c42589009b5cb11a97dc0d9373ddb8bf932677ba4143f948c466a4ed33d097",
      "blockNumber": 96491,
      "transactionIndex": 0,
      "confirmations": null,
      "from": "0xb1abce2918E21ddb93AA452731a12672A3d9F75a",
      "gasPrice": {
        "_hex": "0xda4f70b15"
      },
      "gasLimit": {
        "_hex": "0x5208"
      },
      "to": "0x32Be343B94f860124dC4fEe278FDCBD38C102D88",
      "value": {
        "_hex": "0x455f323d3cdc3c00"
      },
      "nonce": 58,
      "data": "0x",
      "r": "0x975dd3af91fdc22e61204eb3ad7bef78c8709642386f4b28e3ea2e445d3d9c52",
      "s": "0x45b29cf8ee402a13e98cd249b8782190fb772119ae9f81c98936299860c58416",
      "v": 27,
      "creates": null,
      "raw": "0xf86c3a850da4f70b158252089432be343b94f860124dc4fee278fdcbd38c102d8888455f323d3cdc3c00801ba0975dd3af91fdc22e61204eb3ad7bef78c8709642386f4b28e3ea2e445d3d9c52a045b29cf8ee402a13e98cd249b8782190fb772119ae9f81c98936299860c58416",
      "networkId": 0,
      "chainId": 0
    }
  ]
}