{
  "hash": "0x5e3ac1087a0ea35bb64faa4c98eeaa0814455a05a13833588546564a84eafa1e",
  "parentHash": "0x7edf08edab455fa50720ffb01d07e9bfd8c463e85b2e361a919da15fff31e7bb",
  "number": 81521,
  "timestamp": 1439503099,
  "nonce": "0x65d41f1eaa9e46d7",
  "difficulty": 2450960875495,
  "gasLimit": {
    "_hex": "0x2fefd8"
  },
  "gasUsed": {
    "_hex": "0x5208"
  },
  "miner": "0xf8E0CA3Ed80bd541b94BEdCf259e8CF2141A9523",
  "extraData": "0x476574682f76312e302e312f77696e646f77732f676f312e342e32",
  "transactions": [
    {
      "hash": "0x086f869d5651c3b974af80a30e31d9a9824a7efefcf2cdfe61a6270ad30c7b63",
      "blockHash": "0x5e3ac1087a0ea35bb64faa4c98eeaa0814455a05a13833588546564a84eafa1e",
      "blockNumber": 81521,
      "transactionIndex": 0,
      "confirmations": null,
      "from": "0x2910543Af39abA0Cd09dBb2D50200b3E800A63D2",
      "gasPrice": {
        "_hex": "0xccf7c4232"
      },
      "gasLimit": {
        "_hex": "0x5208"
      },
      "to": "0x1806e563f8c84B03B70f9Ec12E1db85971D845DE",
      "value": {
        "_hex": "0x56bb59ab42b2f8000"
      },
      "nonce": 487,
      "data": "0x",
      "r": "0x7ed0306190568f5cced0b6d77c125c1168586449ecf0f595339a7549d850117a",
      "s": "0x0d1a60b0adace610ea5f77f3065b8c5f0d8b5cbb2d0f4e9d88e74c6c8da172ed",
      "v": 28,
      "creates": null,
      "raw": "0xf86f8201e7850ccf7c4232825208941806e563f8c84b03b70f9ec12e1db85971d845de89056bb59ab42b2f8000801ca07ed0306190568f5cced0b6d77c125c1168586449ecf0f595339a7549d850117aa00d1a60b0adace610ea5f77f3065b8c5f0d8b5cbb2d0f4e9d88e74c6c8da172ed",
      "networkId": 0,
      "chainId": 0
    }
  ]
}