{
  "hash": "0x01edf581e64620454589c21281eaa4e222d23c8103a66d2e1e5d0731beb2e7a7",
  "parentHash": "0x781776e7b8caf7c6fbe99faf2f2cb1de41f9d49cf72090fd2938df52ce20bc7f",
  "number": 122127,
  "timestamp": 1440188518,
  "nonce": "0x24b1e2738ec2518e",
  "difficulty": 4481859442425,
  "gasLimit": {
    "_hex": "0x2fefd8"
  },
  "gasUsed": {
    "_hex": "0x5208"
  },
  "miner": "0x88D74a59454F6cF3B51ef6b9136AFb6b9D405A88",
  "extraData": "0x",
  "transactions": [
    {
      "hash": "0xb20f90ec9c6b012192fb263976b6ed147c2960b76afaf9c012ae48e0c344fd24",
      "blockHash": "0x01edf581e64620454589c21281eaa4e222d23c8103a66d2e1e5d0731beb2e7a7",
      "blockNumber": 122127,
      "transactionIndex": 0,
      "confirmations": null,
      "from": "0xc0fA87135254768597352383959A855181c4aAf6",
      "gasPrice": {
        "_hex": "0xba43b7400"
      },
      "gasLimit": {
        "_hex": "0x7a120"
      },
      "to": "0xBBDa93a81B882774e1c9b5e3F933Fa35DaC8bc88",
      "value": {
        "_hex": "0x8ac7230489e80000"
      },
      "nonce": 2,
      "data": "0x",
      "r": "0x2765624d1f580dec603cc7f57d59c1af1286977cfc1f62813f3e8af3c62996fc",
      "s": "0x653ab2136377fec5f99f1beb863c5a11b8007710f5148067a5b4844d26614f25",
      "v": 28,
      "creates": null,
      "raw": "0xf86d02850ba43b74008307a12094bbda93a81b882774e1c9b5e3f933fa35dac8bc88888ac7230489e80000801ca02765624d1f580dec603cc7f57d59c1af1286977cfc1f62813f3e8af3c62996fca0653ab2136377fec5f99f1beb863c5a11b8007710f5148067a5b4844d26614f25",
      "networkId": 0,
      "chainId": 0
    }
  ]
}