{
  "hash": "0xb445ca16a578b6311e2b67555a87187c6b06adaa0f75cedb29c42ca61fe3988a",
  "parentHash": "0x31c52289b5ee57fff280cdc7b3c3a766f9ae3c344df3d0aee6b13cb175b92782",
  "number": 80605,
  "timestamp": 1439487964,
  "nonce": "0xc59a2bcc97575441",
  "difficulty": 2422670844988,
  "gasLimit": {
    "_hex": "0x2fefd8"
  },
  "gasUsed": {
    "_hex": "0x15a38"
  },
  "miner": "0xC603Ab5ef41fC61AA8b76bEddb09e3Cfcbb174BD",
  "extraData": "0x476574682f76312e302e312f77696e646f77732f676f312e342e32",
  "transactions": [
    {
      "hash": "0x718bd499bd5d36c1d626f97efed6469218dc6f363f57dac651e784de54a8e597",
      "blockHash": "0xb445ca16a578b6311e2b67555a87187c6b06adaa0f75cedb29c42ca61fe3988a",
      "blockNumber": 80605,
      "transactionIndex": 0,
      "confirmations": null,
      "from": "0x475351efe1D9cf36276Ff2b7aE1D38bDB072E22c",
      "gasPrice": {
        "_hex": "0xd6bd60364"
      },
      "gasLimit": {
        "_hex": "0x30d40"
      },
      "to": "0xc2ac6849Aec3938FB8c9B36F1c07be76f766637E",
      "value": {
        "_hex": "0x56bc75e2d63100000"
      },
      "nonce": 8,
      "data": "0x",
      "r": "0x6a9b126b83195f9526d5498a4403ba65a4cf2e155c8315ae1f26ea543afda0d3",
      "s": "0x3936a31d9f8109c3c1d989fc7bfe77195e24159a37298e8e2611471ad92e960a",
      "v": 27,
      "creates": null,
      "raw": "0xf86e08850d6bd6036483030d4094c2ac6849aec3938fb8c9b36f1c07be76f766637e89056bc75e2d63100000801ba06a9b126b83195f9526d5498a4403ba65a4cf2e155c8315ae1f26ea543afda0d3a03936a31d9f8109c3c1d989fc7bfe77195e24159a37298e8e2611471ad92e960a",
      "networkId": 0,
      "chainId": 0
    }
  ]
}