{
  "hash": "0x51770378a6db52b7f481873d746160b3a5bc1c14781c9be1132236f3ce256701",
  "parentHash": "0x574247286b48d712bcf57dac260552a0d06144b181c75b2da43703c9486d8ac3",
  "number": 67709,
  "timestamp": 1439276116,
  "nonce": "0xcaba0f5a60cf007f",
  "difficulty": 1943962089821,
  "gasLimit": {
    "_hex": "0x2fefd8"
  },
  "gasUsed": {
    "_hex": "0x5208"
  },
  "miner": "0xEF247E639d49461D25F57e9362CadE3120910Ce0",
  "extraData": "0x476574682f76312e302e312f6c696e75782f676f312e342e32",
  "transactions": [
    {
      "hash": "0xee5b0456082fdf6543a6678a60600280e36fce2936b41669e06c3dff4c79ace3",
      "blockHash": "0x51770378a6db52b7f481873d746160b3a5bc1c14781c9be1132236f3ce256701",
      "blockNumber": 67709,
      "transactionIndex": 0,
      "confirmations": null,
      "from": "0x9Eb13f2Df9A75B34f1e48D8eC2aF7DfbDabA1764",
      "gasPrice": {
        "_hex": "0xd015d71d4"
      },
      "gasLimit": {
        "_hex": "0x15f90"
      },
      "to": "0x608F680cB915b87F83f3d369bBbb796D778c6162",
      "value": {
        "_hex": "0x0"
      },
      "nonce": 0,
      "data": "0x",
      "r": "0x753ff0a772ab8b61b8956403da3918f58bb0310e7a4e7cf42e93a3c683ade03b",
      "s": "0x211c5bad357df6a8ceee10dec9b905a20cad61dc64e0ba7fd185b68c0c916c34",
      "v": 28,
      "creates": null,
      "raw": "0xf86580850d015d71d483015f9094608f680cb915b87f83f3d369bbbb796d778c616280801ca0753ff0a772ab8b61b8956403da3918f58bb0310e7a4e7cf42e93a3c683ade03ba0211c5bad357df6a8ceee10dec9b905a20cad61dc64e0ba7fd185b68c0c916c34",
      "networkId": 0,
      "chainId": 0
    }
  ]
}