{
  "hash": "0x85c4f517ab2ea7893d165280e4d995a2015bd934f90e40f6ccd78c259ea23013",
  "parentHash": "0x6f770837979c43900ad65e54e2619a73828ad15d69008f9c784af72962f4e8bf",
  "number": 84231,
  "timestamp": 1439546742,
  "nonce": "0xb7ddf9d8777bfd41",
  "difficulty": 2530415831677,
  "gasLimit": {
    "_hex": "0x2fefd8"
  },
  "gasUsed": {
    "_hex": "0x5d9f"
  },
  "miner": "0x0037ce3d4B7f8729C8607D8D0248252Be68202c0",
  "extraData": "0x476574682f76312e302e312f77696e646f77732f676f312e342e32",
  "transactions": [
    {
      "hash": "0x216ca223aaa4341de95207e2304f398420629799de61adcf01d343e39262c1f5",
      "blockHash": "0x85c4f517ab2ea7893d165280e4d995a2015bd934f90e40f6ccd78c259ea23013",
      "blockNumber": 84231,
      "transactionIndex": 0,
      "confirmations": null,
      "from": "0xCD1e66ED539dd92Fc40bBAa1FA16de8c02C14D45",
      "gasPrice": {
        "_hex": "0xccd389d1a"
      },
      "gasLimit": {
        "_hex": "0x15f90"
      },
      "to": "0xCAc7000C7dBaa2E33Af15325AF5D435E011C7BdD",
      "value": {
        "_hex": "0x9b3438d86b4b2a660"
      },
      "nonce": 3,
      "data": "0xb214faa5464d425756524833430000000000000000000000000000000000000000000000",
      "r": "0x42fc5533888b45e459a711772adc5f291af47333894eba1e82635403cfc95604",
      "s": "0x7ab572607b0ba0a959c0f4ee7026a8f514ab04fa923e0cffbdfbb31f516e7f12",
      "v": 28,
      "creates": null,
      "raw": "0xf89203850ccd389d1a83015f9094cac7000c7dbaa2e33af15325af5d435e011c7bdd8909b3438d86b4b2a660a4b214faa5464d4257565248334300000000000000000000000000000000000000000000001ca042fc5533888b45e459a711772adc5f291af47333894eba1e82635403cfc95604a07ab572607b0ba0a959c0f4ee7026a8f514ab04fa923e0cffbdfbb31f516e7f12",
      "networkId": 0,
      "chainId": 0
    }
  ]
}