{
  "hash": "0x2fc85117b7b96e79996a5cfce3d356beedc0f015d9fa6a0600311e0ade4f613d",
  "parentHash": "0x09db6fe4a5199f96ccc88d3de491a770e1433a0504bf7e1165076af576ef0ce8",
  "number": 52566,
  "timestamp": 1439023640,
  "nonce": "0xc9bebedf5f4d8eb0",
  "difficulty": 1567133599381,
  "gasLimit": {
    "_hex": "0x158914"
  },
  "gasUsed": {
    "_hex": "0xf4240"
  },
  "miner": "0xbb7B8287f3F0a933474a79eAe42CBCa977791171",
  "extraData": "0x476574682f4c5649562f76312e302e312f6c696e75782f676f312e342e32",
  "transactions": [
    {
      "hash": "0x19fdaf886c0f53123daf3dde1c9ff2ebb59e7e7fb6a80d19bab2d0796e0cccab",
      "blockHash": "0x2fc85117b7b96e79996a5cfce3d356beedc0f015d9fa6a0600311e0ade4f613d",
      "blockNumber": 52566,
      "transactionIndex": 0,
      "confirmations": null,
      "from": "0x54dAeb3E8a6BBC797E4aD2b0339f134b186e4637",
      "gasPrice": {
        "_hex": "0xe7d27df17"
      },
      "gasLimit": {
        "_hex": "0x7a120"
      },
      "to": "0xBAA54d6E90c3F4d7Ebec11bD180134C7eD8eBb52",
      "value": {
        "_hex": "0x16345785d8a0000"
      },
      "nonce": 730,
      "data": "0x",
      "r": "0x449ccd40f8260a1364dc123bde3750147c8f6820218a7aa85e2463617c599a7e",
      "s": "0x2c4000833b6d5ff8672674ffbda5fb6d4cb847704d2e763f7e0e5e72d32437ad",
      "v": 28,
      "creates": null,
      "raw": "0xf86f8202da850e7d27df178307a12094baa54d6e90c3f4d7ebec11bd180134c7ed8ebb5288016345785d8a0000801ca0449ccd40f8260a1364dc123bde3750147c8f6820218a7aa85e2463617c599a7ea02c4000833b6d5ff8672674ffbda5fb6d4cb847704d2e763f7e0e5e72d32437ad",
      "networkId": 0,
      "chainId": 0
    },
    {
      "hash": "0xbd64277d854ba2ae81120479ba3055cdae518d2f238feed651f84707f8b743b8",
      "blockHash": "0x2fc85117b7b96e79996a5cfce3d356beedc0f015d9fa6a0600311e0ade4f613d",
      "blockNumber": 52566,
      "transactionIndex": 1,
      "confirmations": null,
      "from": "0x54dAeb3E8a6BBC797E4aD2b0339f134b186e4637",
      "gasPrice": {
        "_hex": "0xe7d27df17"
      },
      "gasLimit": {
        "_hex": "0x7a120"
      },
      "to": "0xBAA54d6E90c3F4d7Ebec11bD180134C7eD8eBb52",
      "value": {
        "_hex": "0x16345785d8a0000"
      },
      "nonce": 731,
      "data": "0x",
      "r": "0x5a19abd3c3ebb4dec3134f8ac3879d0b1bbbd7af8297e2325178fe51341f4fbd",
      "s": "0x19db5db6d9b29637215355b493e457c7d0de12878039db19ccff24fd3171a225",
      "v": 27,
      "creates": null,
      "raw": "0xf86f8202db850e7d27df178307a12094baa54d6e90c3f4d7ebec11bd180134c7ed8ebb5288016345785d8a0000801ba05a19abd3c3ebb4dec3134f8ac3879d0b1bbbd7af8297e2325178fe51341f4fbda019db5db6d9b29637215355b493e457c7d0de12878039db19ccff24fd3171a225",
      "networkId": 0,
      "chainId": 0
    }
  ]
}