{
  "hash": "0xdfda9c88874bc69871b29be9046c232c7e5f8d01809cf679fd2773954e2258a9",
  "parentHash": "0x5402c5b372cec183a16b3f54ad3f0c1fd54d6771ae3b36ea4c2c7ab3f7b9ff7f",
  "number": 105322,
  "timestamp": 1439885558,
  "nonce": "0x9d15e160af322d87",
  "difficulty": 4363317797622,
  "gasLimit": {
    "_hex": "0x2fefd8"
  },
  "gasUsed": {
    "_hex": "0x3d860"
  },
  "miner": "0xe6A7a1d47ff21B6321162AEA7C6CB457D5476Bca",
  "extraData": "0x476574682f76312e302e312d38326566323666362f6c696e75782f676f312e34",
  "transactions": [
    {
      "hash": "0x91edab5b0762aba59bfa1d649845a50e35a941cb2a255b9fdf74aa81d4030c09",
      "blockHash": "0xdfda9c88874bc69871b29be9046c232c7e5f8d01809cf679fd2773954e2258a9",
      "blockNumber": 105322,
      "transactionIndex": 0,
      "confirmations": null,
      "from": "0x2435CaC661de90FF84BF79A55629C5bc30B40a0d",
      "gasPrice": {
        "_hex": "0xdfd888543"
      },
      "gasLimit": {
        "_hex": "0x5208"
      },
      "to": "0xFBb1b73C4f0BDa4f67dcA266ce6Ef42f520fBB98",
      "value": {
        "_hex": "0x1ea1389a84cc47e8"
      },
      "nonce": 0,
      "data": "0x",
      "r": "0x7f845d2e2c6d7d316834b086cc3ecaab6a77fd108f4a3c7ec13e0c917367b205",
      "s": "0x07314fb701fce81e5543bb9513d96a9ac55c49a039e6ae0a0c2ca873cca214fb",
      "v": 27,
      "creates": null,
      "raw": "0xf86c80850dfd88854382520894fbb1b73c4f0bda4f67dca266ce6ef42f520fbb98881ea1389a84cc47e8801ba07f845d2e2c6d7d316834b086cc3ecaab6a77fd108f4a3c7ec13e0c917367b205a007314fb701fce81e5543bb9513d96a9ac55c49a039e6ae0a0c2ca873cca214fb",
      "networkId": 0,
      "chainId": 0
    },
    {
      "hash": "0x8d3dc48b830f1f4d48e4a025a7dc7529b684149417954ea1f561e95be70b71e9",
      "blockHash": "0xdfda9c88874bc69871b29be9046c232c7e5f8d01809cf679fd2773954e2258a9",
      "blockNumber": 105322,
      "transactionIndex": 1,
      "confirmations": null,
      "from": "0xc1BED23F5A2bA19A363215fC2c288FD8ee533E15",
      "gasPrice": {
        "_hex": "0xdfd888543"
      },
      "gasLimit": {
        "_hex": "0x5208"
      },
      "to": "0xFBb1b73C4f0BDa4f67dcA266ce6Ef42f520fBB98",
      "value": {
        "_hex": "0x2549398346ab77e8"
      },
      "nonce": 0,
      "data": "0x",
      "r": "0x14283dd48f65bb38e01acde30ba8577ab8d7bbe3db573c04e7c16554f9ac6032",
      "s": "0x4d3ea2f07cb1e6746cb3109070b6e049e05069335ce9765eba9509af9ce1caf6",
      "v": 28,
      "creates": null,
      "raw": "0xf86c80850dfd88854382520894fbb1b73c4f0bda4f67dca266ce6ef42f520fbb98882549398346ab77e8801ca014283dd48f65bb38e01acde30ba8577ab8d7bbe3db573c04e7c16554f9ac6032a04d3ea2f07cb1e6746cb3109070b6e049e05069335ce9765eba9509af9ce1caf6",
      "networkId": 0,
      "chainId": 0
    },
    {
      "hash": "0x31d1472fdbdd7b74d33f489c1252cd4e9ca080355f36680dbb839c1815bad93a",
      "blockHash": "0xdfda9c88874bc69871b29be9046c232c7e5f8d01809cf679fd2773954e2258a9",
      "blockNumber": 105322,
      "transactionIndex": 2,
      "confirmations": null,
      "from": "0xD9666150A9dA92d9108198a4072970805a8B3428",
      "gasPrice": {
        "_hex": "0xd78b99643"
      },
      "gasLimit": {
        "_hex": "0x5208"
      },
      "to": "0x32Be343B94f860124dC4fEe278FDCBD38C102D88",
      "value": {
        "_hex": "0x8ac2d1ed5639b800"
      },
      "nonce": 76,
      "data": "0x",
      "r": "0x2fd89add9a89a179507bcf6df41f3453306e67482e42c85be76fda4340efd491",
      "s": "0x035b30c41cc38316e8b5da4d8b23c10ffaef5c379b2256b956d221b3dcf64e98",
      "v": 28,
      "creates": null,
      "raw": "0xf86c4c850d78b996438252089432be343b94f860124dc4fee278fdcbd38c102d88888ac2d1ed5639b800801ca02fd89add9a89a179507bcf6df41f3453306e67482e42c85be76fda4340efd491a0035b30c41cc38316e8b5da4d8b23c10ffaef5c379b2256b956d221b3dcf64e98",
      "networkId": 0,
      "chainId": 0
    },
    {
      "hash": "0xa385481f941c8c8465e9c59028b58c90c0e5b9948c9f442aef0aa28aec7043e8",
      "blockHash": "0xdfda9c88874bc69871b29be9046c232c7e5f8d01809cf679fd2773954e2258a9",
      "blockNumber": 105322,
      "transactionIndex": 3,
      "confirmations": null,
      "from": "0xe6A7a1d47ff21B6321162AEA7C6CB457D5476Bca",
      "gasPrice": {
        "_hex": "0xce9bf4e05"
      },
      "gasLimit": {
        "_hex": "0x55f0"
      },
      "to": "0xB89C0F465b0472fa5A58eCDd01eD937205ae4d06",
      "value": {
        "_hex": "0x48d5145b02e63978"
      },
      "nonce": 3775,
      "data": "0x",
      "r": "0xb1654d30651680a630ea1655fb38b57453d35f68b5cb9ebb366d82df9045bb17",
      "s": "0x33e7515634f92ba88c0f8f745a516d419ce553f4039fcaad41a44f463ed58448",
      "v": 27,
      "creates": null,
      "raw": "0xf86e820ebf850ce9bf4e058255f094b89c0f465b0472fa5a58ecdd01ed937205ae4d068848d5145b02e63978801ba0b1654d30651680a630ea1655fb38b57453d35f68b5cb9ebb366d82df9045bb17a033e7515634f92ba88c0f8f745a516d419ce553f4039fcaad41a44f463ed58448",
      "networkId": 0,
      "chainId": 0
    },
    {
      "hash": "0x0d2d91d79f03d2bacd60b8c5f79e8ea24ff265f17d6593b20fe644b4584ab673",
      "blockHash": "0xdfda9c88874bc69871b29be9046c232c7e5f8d01809cf679fd2773954e2258a9",
      "blockNumber": 105322,
      "transactionIndex": 4,
      "confirmations": null,
      "from": "0xe6A7a1d47ff21B6321162AEA7C6CB457D5476Bca",
      "gasPrice": {
        "_hex": "0xce9bf4e05"
      },
      "gasLimit": {
        "_hex": "0x55f0"
      },
      "to": "0x3fc4eAB8A8df5a124043b29146709935c65F1f7d",
      "value": {
        "_hex": "0x4a18fe128646db20"
      },
      "nonce": 3776,
      "data": "0x",
      "r": "0xc90e94b0bbc3073250473e69781f6093f6968806bbbfe37673cfa65f362b3289",
      "s": "0x5b9779641abe562d6f9e486416b9172aab1e43389e0dca9757f3b612a32b3d4c",
      "v": 27,
      "creates": null,
      "raw": "0xf86e820ec0850ce9bf4e058255f0943fc4eab8a8df5a124043b29146709935c65f1f7d884a18fe128646db20801ba0c90e94b0bbc3073250473e69781f6093f6968806bbbfe37673cfa65f362b3289a05b9779641abe562d6f9e486416b9172aab1e43389e0dca9757f3b612a32b3d4c",
      "networkId": 0,
      "chainId": 0
    },
    {
      "hash": "0x8f92ccfe72413e932d160255e6cdf840f011ead4da11998bed62d9bdd415a799",
      "blockHash": "0xdfda9c88874bc69871b29be9046c232c7e5f8d01809cf679fd2773954e2258a9",
      "blockNumber": 105322,
      "transactionIndex": 5,
      "confirmations": null,
      "from": "0xe6A7a1d47ff21B6321162AEA7C6CB457D5476Bca",
      "gasPrice": {
        "_hex": "0xce9bf4e05"
      },
      "gasLimit": {
        "_hex": "0x55f0"
      },
      "to": "0xc544B25bb91b87e380dda392687c6216b0260671",
      "value": {
        "_hex": "0x4a1fee4e6f04a9f0"
      },
      "nonce": 3777,
      "data": "0x",
      "r": "0xd0ad810fa1fe22d321c1f3262755ae54157d246a6e5f305cbf0c286bdab662f3",
      "s": "0x5c4c78fd969976ee7304ee2c1cceb445d28d5ac51a78aa528c3b4f073de07fe9",
      "v": 28,
      "creates": null,
      "raw": "0xf86e820ec1850ce9bf4e058255f094c544b25bb91b87e380dda392687c6216b0260671884a1fee4e6f04a9f0801ca0d0ad810fa1fe22d321c1f3262755ae54157d246a6e5f305cbf0c286bdab662f3a05c4c78fd969976ee7304ee2c1cceb445d28d5ac51a78aa528c3b4f073de07fe9",
      "networkId": 0,
      "chainId": 0
    },
    {
      "hash": "0xad98f0be204fadf849c95867aa1ac3ad52aaec76504d28b217e6d68e370a0829",
      "blockHash": "0xdfda9c88874bc69871b29be9046c232c7e5f8d01809cf679fd2773954e2258a9",
      "blockNumber": 105322,
      "transactionIndex": 6,
      "confirmations": null,
      "from": "0xe6A7a1d47ff21B6321162AEA7C6CB457D5476Bca",
      "gasPrice": {
        "_hex": "0xce9bf4e05"
      },
      "gasLimit": {
        "_hex": "0x55f0"
      },
      "to": "0x2374d8ad849F04E476f8D13457503f7cca23892E",
      "value": {
        "_hex": "0x4a486a3c024cfb40"
      },
      "nonce": 3778,
      "data": "0x",
      "r": "0xdfd9ac3f45affdd8b5134adda89f6f27bf381eacee14eb53277156c209a5d61f",
      "s": "0x400bfe2c9883dd7f66bf0f4a343b3d2e4235ab15924411bf721896232c1798f9",
      "v": 28,
      "creates": null,
      "raw": "0xf86e820ec2850ce9bf4e058255f0942374d8ad849f04e476f8d13457503f7cca23892e884a486a3c024cfb40801ca0dfd9ac3f45affdd8b5134adda89f6f27bf381eacee14eb53277156c209a5d61fa0400bfe2c9883dd7f66bf0f4a343b3d2e4235ab15924411bf721896232c1798f9",
      "networkId": 0,
      "chainId": 0
    },
    {
      "hash": "0xcba87d8375e3ab7a508b074c016cfdf436750dd3fdeb62e4a65a6c09179d0134",
      "blockHash": "0xdfda9c88874bc69871b29be9046c232c7e5f8d01809cf679fd2773954e2258a9",
      "blockNumber": 105322,
      "transactionIndex": 7,
      "confirmations": null,
      "from": "0xe6A7a1d47ff21B6321162AEA7C6CB457D5476Bca",
      "gasPrice": {
        "_hex": "0xce9bf4e05"
      },
      "gasLimit": {
        "_hex": "0x55f0"
      },
      "to": "0x528419cd4425d074D168Ae82CdFc335076b09B2F",
      "value": {
        "_hex": "0x4a5b81e7948d0fb0"
      },
      "nonce": 3779,
      "data": "0x",
      "r": "0x769a6f9f632e5a9c400dcadd455f443e55720d80cd7d0aecf95a242fc3f09f52",
      "s": "0x2f2e7af5de49f248d3a6bb48f945c0ec6adbdd6a19fd6cbc05eed48000e971ab",
      "v": 27,
      "creates": null,
      "raw": "0xf86e820ec3850ce9bf4e058255f094528419cd4425d074d168ae82cdfc335076b09b2f884a5b81e7948d0fb0801ba0769a6f9f632e5a9c400dcadd455f443e55720d80cd7d0aecf95a242fc3f09f52a02f2e7af5de49f248d3a6bb48f945c0ec6adbdd6a19fd6cbc05eed48000e971ab",
      "networkId": 0,
      "chainId": 0
    },
    {
      "hash": "0x50d175ab4450319b9987d56970a34000a96e43a1481313ca0df1d3c7aafb09e2",
      "blockHash": "0xdfda9c88874bc69871b29be9046c232c7e5f8d01809cf679fd2773954e2258a9",
      "blockNumber": 105322,
      "transactionIndex": 8,
      "confirmations": null,
      "from": "0xe6A7a1d47ff21B6321162AEA7C6CB457D5476Bca",
      "gasPrice": {
        "_hex": "0xce9bf4e05"
      },
      "gasLimit": {
        "_hex": "0x55f0"
      },
      "to": "0x99DD8707E14E7A8D702b2700f6e8072DF8ee91D7",
      "value": {
        "_hex": "0x4a7676f6e09cbb48"
      },
      "nonce": 3780,
      "data": "0x",
      "r": "0xe9d2893715e353a3c1e94eb403b3e040897977204afffe93ffcde6318800db75",
      "s": "0x3dc5efbada9b33374ba3a0d185793f38c05da883420adcf455261fdec06ae0e6",
      "v": 27,
      "creates": null,
      "raw": "0xf86e820ec4850ce9bf4e058255f09499dd8707e14e7a8d702b2700f6e8072df8ee91d7884a7676f6e09cbb48801ba0e9d2893715e353a3c1e94eb403b3e040897977204afffe93ffcde6318800db75a03dc5efbada9b33374ba3a0d185793f38c05da883420adcf455261fdec06ae0e6",
      "networkId": 0,
      "chainId": 0
    },
    {
      "hash": "0xa25b2d3febb11bf7914a9656adeb4eaabb609105e3a7494f7a93117fac4fe1cc",
      "blockHash": "0xdfda9c88874bc69871b29be9046c232c7e5f8d01809cf679fd2773954e2258a9",
      "blockNumber": 105322,
      "transactionIndex": 9,
      "confirmations": null,
      "from": "0xe6A7a1d47ff21B6321162AEA7C6CB457D5476Bca",
      "gasPrice": {
        "_hex": "0xce9bf4e05"
      },
      "gasLimit": {
        "_hex": "0x55f0"
      },
      "to": "0xF2B3F8Eb4e663dA275b8C57fe45A0E8D489Eac2E",
      "value": {
        "_hex": "0x4c0f0a82522297c0"
      },
      "nonce": 3781,
      "data": "0x",
      "r": "0x739e8977d6916779c6e6e94a221c081b0ace708fcc62e00c8993547cd4474b7d",
      "s": "0x7c6e25a9461f115981c19933e71565ac47a0636051d04e17551f9d4f57f914d4",
      "v": 27,
      "creates": null,
      "raw": "0xf86e820ec5850ce9bf4e058255f094f2b3f8eb4e663da275b8c57fe45a0e8d489eac2e884c0f0a82522297c0801ba0739e8977d6916779c6e6e94a221c081b0ace708fcc62e00c8993547cd4474b7da07c6e25a9461f115981c19933e71565ac47a0636051d04e17551f9d4f57f914d4",
      "networkId": 0,
      "chainId": 0
    },
    {
      "hash": "0x5505641bf90047a73600acd80296a12babf6b7902fd91e6e47a07a384248fcea",
      "blockHash": "0xdfda9c88874bc69871b29be9046c232c7e5f8d01809cf679fd2773954e2258a9",
      "blockNumber": 105322,
      "transactionIndex": 10,
      "confirmations": null,
      "from": "0xe6A7a1d47ff21B6321162AEA7C6CB457D5476Bca",
      "gasPrice": {
        "_hex": "0xce9bf4e05"
      },
      "gasLimit": {
        "_hex": "0x55f0"
      },
      "to": "0xE7dAdedf7cEBAaBa85903823D254601B1D459C9B",
      "value": {
        "_hex": "0x4c584f1113f4c2f8"
      },
      "nonce": 3782,
      "data": "0x",
      "r": "0x99b057445c76a40493c28bf870643ece05dfa5e939362a3773323362356bce38",
      "s": "0x4726a06f9935af0bb840708b96fffbb35edba4e6ce35d4ecee77b9d575679ddd",
      "v": 27,
      "creates": null,
      "raw": "0xf86e820ec6850ce9bf4e058255f094e7dadedf7cebaaba85903823d254601b1d459c9b884c584f1113f4c2f8801ba099b057445c76a40493c28bf870643ece05dfa5e939362a3773323362356bce38a04726a06f9935af0bb840708b96fffbb35edba4e6ce35d4ecee77b9d575679ddd",
      "networkId": 0,
      "chainId": 0
    },
    {
      "hash": "0x2d7da293e80117e839f26fe4a77263b86937b2c5b34f5cd3db48f53e88f68a9d",
      "blockHash": "0xdfda9c88874bc69871b29be9046c232c7e5f8d01809cf679fd2773954e2258a9",
      "blockNumber": 105322,
      "transactionIndex": 11,
      "confirmations": null,
      "from": "0xe6A7a1d47ff21B6321162AEA7C6CB457D5476Bca",
      "gasPrice": {
        "_hex": "0xce9bf4e05"
      },
      "gasLimit": {
        "_hex": "0x55f0"
      },
      "to": "0xC711d87af18Db9a7EbE2CFB279b73c8785E55d41",
      "value": {
        "_hex": "0x4cec82b6584a5c48"
      },
      "nonce": 3783,
      "data": "0x",
      "r": "0x2cc125d39fbedb8ff265cd7efa0e22c85957529f7e48af2e1fa716b360092289",
      "s": "0x09dbc80f8ea693fbc9f71cfa26d9b45bf56f618fa2a378fb2ffdc810a41a22b1",
      "v": 27,
      "creates": null,
      "raw": "0xf86e820ec7850ce9bf4e058255f094c711d87af18db9a7ebe2cfb279b73c8785e55d41884cec82b6584a5c48801ba02cc125d39fbedb8ff265cd7efa0e22c85957529f7e48af2e1fa716b360092289a009dbc80f8ea693fbc9f71cfa26d9b45bf56f618fa2a378fb2ffdc810a41a22b1",
      "networkId": 0,
      "chainId": 0
    }
  ]
}