{
  "hash": "0x7ab741b984df2f94d74a3585d4123e89f7450ffaf068aeec11bad30b2556e2b6",
  "parentHash": "0x18e320f30726879545c6cfd8482a8e954c698ca4b57f8925d75c19058b791ad0",
  "number": 119558,
  "timestamp": 1440145004,
  "nonce": "0xa8fb7ef590d8b23a",
  "difficulty": 4385798051906,
  "gasLimit": {
    "_hex": "0x2fefd8"
  },
  "gasUsed": {
    "_hex": "0x5208"
  },
  "miner": "0xe6A7a1d47ff21B6321162AEA7C6CB457D5476Bca",
  "extraData": "0xd783010002844765746887676f312e342e32856c696e7578",
  "transactions": [
    {
      "hash": "0x3d573157c4d4e929e2afa2192c28a15574fd44116271582001adce1c77e8cef1",
      "blockHash": "0x7ab741b984df2f94d74a3585d4123e89f7450ffaf068aeec11bad30b2556e2b6",
      "blockNumber": 119558,
      "transactionIndex": 0,
      "confirmations": null,
      "from": "0x9dc5018E753A410593259039296bBfd28E29f894",
      "gasPrice": {
        "_hex": "0xd41777b6f"
      },
      "gasLimit": {
        "_hex": "0x61a8"
      },
      "to": "0x50056353D06a71b1f427499419D04F81f5dE4F20",
      "value": {
        "_hex": "0x83bf11c7d932a938"
      },
      "nonce": 7,
      "data": "0x",
      "r": "0x86e3c3b992de009a492aaec865538987bdfbde742201f76a95a93268a2b86935",
      "s": "0x1f70dae5eadf7d40e383b8212bcf44e1012bd0df746f8403ab267088f38fc5b0",
      "v": 28,
      "creates": null,
      "raw": "0xf86c07850d41777b6f8261a89450056353d06a71b1f427499419d04f81f5de4f208883bf11c7d932a938801ca086e3c3b992de009a492aaec865538987bdfbde742201f76a95a93268a2b86935a01f70dae5eadf7d40e383b8212bcf44e1012bd0df746f8403ab267088f38fc5b0",
      "networkId": 0,
      "chainId": 0
    }
  ]
}