{
  "hash": "0xbcc967075e2f1f5871c145b7ec8d747d527415054bb41fc20f2d1815e043f462",
  "parentHash": "0xb696bb4a6b0a70d572f59af8e72ff886cd074561b95e852a205c66657ffbca9e",
  "number": 96256,
  "timestamp": 1439737439,
  "nonce": "0xe7d8c10d46572528",
  "difficulty": 3674664757629,
  "gasLimit": {
    "_hex": "0x2fefd8"
  },
  "gasUsed": {
    "_hex": "0xa410"
  },
  "miner": "0x7E6930B63D03e88F5928C5cd6ee3FCee4D714F7F",
  "extraData": "0x",
  "transactions": [
    {
      "hash": "0x9883120429b67b1ba775aafc589304743288c9ff95a33326bd9992039c19d2f7",
      "blockHash": "0xbcc967075e2f1f5871c145b7ec8d747d527415054bb41fc20f2d1815e043f462",
      "blockNumber": 96256,
      "transactionIndex": 0,
      "confirmations": null,
      "from": "0xb1abce2918E21ddb93AA452731a12672A3d9F75a",
      "gasPrice": {
        "_hex": "0xcf074db7b"
      },
      "gasLimit": {
        "_hex": "0x5208"
      },
      "to": "0x32Be343B94f860124dC4fEe278FDCBD38C102D88",
      "value": {
        "_hex": "0x8ac2fd978938a000"
      },
      "nonce": 53,
      "data": "0x",
      "r": "0x00232b337239fd6ef2a3bf42b3de4acc6e4e967370fb6b2bec4eecb202f92bd2",
      "s": "0x4dda0932891487d14abf9b250b3f8a0ff79b861ba16cfdf798abbfa0835312f1",
      "v": 28,
      "creates": null,
      "raw": "0xf86b35850cf074db7b8252089432be343b94f860124dc4fee278fdcbd38c102d88888ac2fd978938a000801c9f232b337239fd6ef2a3bf42b3de4acc6e4e967370fb6b2bec4eecb202f92bd2a04dda0932891487d14abf9b250b3f8a0ff79b861ba16cfdf798abbfa0835312f1",
      "networkId": 0,
      "chainId": 0
    },
    {
      "hash": "0xbee0a9d70c276a22cd584168be046d9423a496d186f17e071df7699312009a4b",
      "blockHash": "0xbcc967075e2f1f5871c145b7ec8d747d527415054bb41fc20f2d1815e043f462",
      "blockNumber": 96256,
      "transactionIndex": 1,
      "confirmations": null,
      "from": "0xa70a9a7040d542C632D8e0bE7c5513A8a5Bbc752",
      "gasPrice": {
        "_hex": "0xcf074db7b"
      },
      "gasLimit": {
        "_hex": "0x5208"
      },
      "to": "0x32Be343B94f860124dC4fEe278FDCBD38C102D88",
      "value": {
        "_hex": "0x340692e2301d3000"
      },
      "nonce": 160,
      "data": "0x",
      "r": "0x8824c44530f92ae062abe07a1c9c57c57a8d56070c9e2d4cc6339422e772c957",
      "s": "0x0e29fc9a9d861373493c0ca4d5de1da57eca75ba20d5d5950aa6b75345e789bb",
      "v": 27,
      "creates": null,
      "raw": "0xf86d81a0850cf074db7b8252089432be343b94f860124dc4fee278fdcbd38c102d8888340692e2301d3000801ba08824c44530f92ae062abe07a1c9c57c57a8d56070c9e2d4cc6339422e772c957a00e29fc9a9d861373493c0ca4d5de1da57eca75ba20d5d5950aa6b75345e789bb",
      "networkId": 0,
      "chainId": 0
    }
  ]
}