{
  "hash": "0xc115aa1b358eb5f3a5156557efbe14d78ede586bf1fbacebef29cfb36b625a02",
  "parentHash": "0x09975b14161045ed483bedc4e9959b75d73abbe6d392b62181f7e9f961ad3d6d",
  "number": 51907,
  "timestamp": 1439012929,
  "nonce": "0xc6a57765b874ab19",
  "difficulty": 1560384468607,
  "gasLimit": {
    "_hex": "0xedbb5"
  },
  "gasUsed": {
    "_hex": "0x5208"
  },
  "miner": "0xf927a40C8B7F6E07c5af7FA2155B4864a4112B13",
  "extraData": "0x476574682f76312e302e312f6c696e75782f676f312e342e32",
  "transactions": [
    {
      "hash": "0x7319c1066b69b919588d0b58e389bd0e963e0fda738d2a14fce4f83878d632e4",
      "blockHash": "0xc115aa1b358eb5f3a5156557efbe14d78ede586bf1fbacebef29cfb36b625a02",
      "blockNumber": 51907,
      "transactionIndex": 0,
      "confirmations": null,
      "from": "0x01434e4Ac3238bEC44a39ad642aBaBBB68D097e6",
      "gasPrice": {
        "_hex": "0x45d964b800"
      },
      "gasLimit": {
        "_hex": "0x5208"
      },
      "to": "0xb891F05f7E7E5F3767E96bF020C5b49dbEC895C0",
      "value": {
        "_hex": "0x2b5e3af16b1880000"
      },
      "nonce": 4,
      "data": "0x",
      "r": "0x15e800d25c4410bb909a7058b026463e7ee99ad9965a9dc92f7395122b210189",
      "s": "0x21113e75dd76356f98bb30cbe2c386e477802126ccf0210348ac7b7d27a0b5fd",
      "v": 27,
      "creates": null,
      "raw": "0xf86d048545d964b80082520894b891f05f7e7e5f3767e96bf020c5b49dbec895c08902b5e3af16b1880000801ba015e800d25c4410bb909a7058b026463e7ee99ad9965a9dc92f7395122b210189a021113e75dd76356f98bb30cbe2c386e477802126ccf0210348ac7b7d27a0b5fd",
      "networkId": 0,
      "chainId": 0
    }
  ]
}