{
  "hash": "0xc10a96bb24e249a1b3bdba049df12c93f08d0172fd7f36d292aae4a8e2f204f8",
  "parentHash": "0x5ab5c48665fd86415dc9671424d7699821bcdaeb1bfed364fa93646307f3107b",
  "number": 111177,
  "timestamp": 1439986001,
  "nonce": "0xd4a9a2753f607407",
  "difficulty": 4409517309799,
  "gasLimit": {
    "_hex": "0x2fefd8"
  },
  "gasUsed": {
    "_hex": "0x5208"
  },
  "miner": "0x9D49F602b0fdb924Bd63DDE2Bd0907E4A07c63a7",
  "extraData": "0x476574682f76312e302e312f6c696e75782f676f312e342e32",
  "transactions": [
    {
      "hash": "0xc32743d03d0eea4fe78498646fe00635201b5d9564e62477c038a3335b8ddc98",
      "blockHash": "0xc10a96bb24e249a1b3bdba049df12c93f08d0172fd7f36d292aae4a8e2f204f8",
      "blockNumber": 111177,
      "transactionIndex": 0,
      "confirmations": null,
      "from": "0xb1abce2918E21ddb93AA452731a12672A3d9F75a",
      "gasPrice": {
        "_hex": "0xccb473427"
      },
      "gasLimit": {
        "_hex": "0x5208"
      },
      "to": "0x32Be343B94f860124dC4fEe278FDCBD38C102D88",
      "value": {
        "_hex": "0x455f77ff591d5400"
      },
      "nonce": 178,
      "data": "0x",
      "r": "0xe7f4d06bb661e795c4c3dbe0a3aef0d40e8486aeb9bd5ca225fb191dfa3d7cd6",
      "s": "0x048dcccf767566e236f6059536ccf4255c6d2ae7d56b750674168a05b3ed2f80",
      "v": 28,
      "creates": null,
      "raw": "0xf86d81b2850ccb4734278252089432be343b94f860124dc4fee278fdcbd38c102d8888455f77ff591d5400801ca0e7f4d06bb661e795c4c3dbe0a3aef0d40e8486aeb9bd5ca225fb191dfa3d7cd6a0048dcccf767566e236f6059536ccf4255c6d2ae7d56b750674168a05b3ed2f80",
      "networkId": 0,
      "chainId": 0
    }
  ]
}