{
  "hash": "0xc0e1370db7d470b325a7ab36bf969c0d43aebcbcdce94fc98ddadfb27b02b66f",
  "parentHash": "0x1b9ac0fba81bd65c81e8bb73ce18c6952a03d6b58ba7c8ee9635a9633bda8eea",
  "number": 85396,
  "timestamp": 1439562971,
  "nonce": "0xeb5aa3b3d8692247",
  "difficulty": 2736988034281,
  "gasLimit": {
    "_hex": "0x2fd820"
  },
  "gasUsed": {
    "_hex": "0x5208"
  },
  "miner": "0xEF247E639d49461D25F57e9362CadE3120910Ce0",
  "extraData": "0x476574682f76312e302e312f6c696e75782f676f312e342e32",
  "transactions": [
    {
      "hash": "0x98e31403896076767b3f0bbb8b1c72db52a9a00f106db67e456cb331faebd146",
      "blockHash": "0xc0e1370db7d470b325a7ab36bf969c0d43aebcbcdce94fc98ddadfb27b02b66f",
      "blockNumber": 85396,
      "transactionIndex": 0,
      "confirmations": null,
      "from": "0xa16E760E170A19a36e1b42357a1e6A1A206B9F39",
      "gasPrice": {
        "_hex": "0xe297d2ef8"
      },
      "gasLimit": {
        "_hex": "0x15f90"
      },
      "to": "0x1151790FE5F7C3113dfb07Dc3914B1916EcC8a7A",
      "value": {
        "_hex": "0x2749bb802f218000"
      },
      "nonce": 0,
      "data": "0x",
      "r": "0x645683a1c9620685445897a29dbec3653f5eea261c8b51c760fd0f4fe4091592",
      "s": "0x04591a907b8db5a30481809ccc81df9907602c92413369cfa196d2febd75edce",
      "v": 28,
      "creates": null,
      "raw": "0xf86d80850e297d2ef883015f90941151790fe5f7c3113dfb07dc3914b1916ecc8a7a882749bb802f218000801ca0645683a1c9620685445897a29dbec3653f5eea261c8b51c760fd0f4fe4091592a004591a907b8db5a30481809ccc81df9907602c92413369cfa196d2febd75edce",
      "networkId": 0,
      "chainId": 0
    }
  ]
}