{
  "hash": "0xdcd62ff9c38cb19008c02cc7a60990fb4bcf1d3fe5e230f248e3330e7a6367b6",
  "parentHash": "0x93d9dc63fac669159aec496de7cda49ee7e9d95c1183a21f04398a24d502dcfc",
  "number": 98104,
  "timestamp": 1439767034,
  "nonce": "0x4b555e4fd36255bd",
  "difficulty": 3884155843871,
  "gasLimit": {
    "_hex": "0x2fefd8"
  },
  "gasUsed": {
    "_hex": "0x520c"
  },
  "miner": "0x0D4EcC7d750180EBf4A9Df728B6669B5Bceb5E40",
  "extraData": "0x",
  "transactions": [
    {
      "hash": "0xf56e3cb70ed27b0331ec8195b7d19d40235e669888a52575f046fb81c6eb439d",
      "blockHash": "0xdcd62ff9c38cb19008c02cc7a60990fb4bcf1d3fe5e230f248e3330e7a6367b6",
      "blockNumber": 98104,
      "transactionIndex": 0,
      "confirmations": null,
      "from": "0xA5F3c4Dde63C00B799f04cF4Dd600e06735d63B8",
      "gasPrice": {
        "_hex": "0xde4604910"
      },
      "gasLimit": {
        "_hex": "0x7530"
      },
      "to": "0x46c8c916C391050385369DA998f134b69AB7Bb22",
      "value": {
        "_hex": "0x2386f26fc10000"
      },
      "nonce": 0,
      "data": "0x00",
      "r": "0x96b25d95737d0e903a252a1d9212c497c98cd0ac14c7af4eb9341e57fae9b996",
      "s": "0x50d96e798b718976bb6c213d6bd116c549ba4bec0847c6c726a567c52ef452d0",
      "v": 27,
      "creates": null,
      "raw": "0xf86b80850de46049108275309446c8c916c391050385369da998f134b69ab7bb22872386f26fc10000001ba096b25d95737d0e903a252a1d9212c497c98cd0ac14c7af4eb9341e57fae9b996a050d96e798b718976bb6c213d6bd116c549ba4bec0847c6c726a567c52ef452d0",
      "networkId": 0,
      "chainId": 0
    }
  ]
}