{
  "hash": "0xf950366c31360d1f98be55d4d770cab209560138822184bf5008e953249d95a5",
  "parentHash": "0x886894ec942b63714b3c8880cad4f654560da41fa9fc4ad42b4c2677f48124ef",
  "number": 94618,
  "timestamp": 1439711154,
  "nonce": "0xaf2607998776b1c7",
  "difficulty": 3503651129589,
  "gasLimit": {
    "_hex": "0x2fefd8"
  },
  "gasUsed": {
    "_hex": "0x5208"
  },
  "miner": "0x9746c7e1ef2bd21FF3997fa467593a89cb852BD0",
  "extraData": "0x476574682f76312e302e312f77696e646f77732f676f312e342e32",
  "transactions": [
    {
      "hash": "0x065b17e0175b43f503152eebae41854a6e3c0f2224c9557966c2e37cecb611a6",
      "blockHash": "0xf950366c31360d1f98be55d4d770cab209560138822184bf5008e953249d95a5",
      "blockNumber": 94618,
      "transactionIndex": 0,
      "confirmations": null,
      "from": "0x32Be343B94f860124dC4fEe278FDCBD38C102D88",
      "gasPrice": {
        "_hex": "0xd32b211e8"
      },
      "gasLimit": {
        "_hex": "0x5208"
      },
      "to": "0x031778CE7A0BB1Aac0f29615378Fb240ed41c51b",
      "value": {
        "_hex": "0xdc14c034980a400"
      },
      "nonce": 961,
      "data": "0x",
      "r": "0x25e7660a715d888a888c0b4da3ae8f880b99ed54673f5fcc9740779b82eb209e",
      "s": "0x11a2a3e6a3e9959a7d8b1f39f8ac9f7a4bc4de0af5b5440af49c516eb0ba5b5d",
      "v": 28,
      "creates": null,
      "raw": "0xf86e8203c1850d32b211e882520894031778ce7a0bb1aac0f29615378fb240ed41c51b880dc14c034980a400801ca025e7660a715d888a888c0b4da3ae8f880b99ed54673f5fcc9740779b82eb209ea011a2a3e6a3e9959a7d8b1f39f8ac9f7a4bc4de0af5b5440af49c516eb0ba5b5d",
      "networkId": 0,
      "chainId": 0
    }
  ]
}