{
  "hash": "0x55e491c01f8f59e89f55be863167f512cec3c0c3444832d7967d32a8d629efff",
  "parentHash": "0xfd62391bee9efc7ae8a661964cc833b97498be5820a6b24a2799a5b82f50c676",
  "number": 78965,
  "timestamp": 1439462308,
  "nonce": "0xaaa0ac7e6c6f3940",
  "difficulty": 2298672335063,
  "gasLimit": {
    "_hex": "0x2fefd8"
  },
  "gasUsed": {
    "_hex": "0x5208"
  },
  "miner": "0x88C96e25787Fd9e2746F7Ce708f2285eCC16348f",
  "extraData": "0x476574682f76312e302e312f77696e646f77732f676f312e342e32",
  "transactions": [
    {
      "hash": "0x07701d78e660f645e2c8017a6f7b5b4495828750804f7b1a37384c8258fa4a52",
      "blockHash": "0x55e491c01f8f59e89f55be863167f512cec3c0c3444832d7967d32a8d629efff",
      "blockNumber": 78965,
      "transactionIndex": 0,
      "confirmations": null,
      "from": "0xB48CB04D046210A9F58175Ad35FCe298428e0969",
      "gasPrice": {
        "_hex": "0xd5a33acf6"
      },
      "gasLimit": {
        "_hex": "0x15f90"
      },
      "to": "0xc597A5d92F5dC1137D847db733cfe02c6d209f13",
      "value": {
        "_hex": "0x167a820b0ef060000"
      },
      "nonce": 0,
      "data": "0x",
      "r": "0x9928d8f962e089448785811845ce936d892397347bc5a2cf89453ed665d07d2c",
      "s": "0x2b78420ee7b2fbd1d369839e9882227bbb5a6ffd7f3ed7a8efbff079639066ff",
      "v": 27,
      "creates": null,
      "raw": "0xf86e80850d5a33acf683015f9094c597a5d92f5dc1137d847db733cfe02c6d209f13890167a820b0ef060000801ba09928d8f962e089448785811845ce936d892397347bc5a2cf89453ed665d07d2ca02b78420ee7b2fbd1d369839e9882227bbb5a6ffd7f3ed7a8efbff079639066ff",
      "networkId": 0,
      "chainId": 0
    }
  ]
}