{
  "hash": "0x0cb13b8df569a3cb3466b15409ce5301b2e22da409c1566b30ccf533883d480a",
  "parentHash": "0x18dd7ac6bc55e90037672fc1ff707ed1623c63cc4af0bf5c62db00e32e92e671",
  "number": 53613,
  "timestamp": 1439040582,
  "nonce": "0x7fdec56ea5900080",
  "difficulty": 1592391044430,
  "gasLimit": {
    "_hex": "0x2d257d"
  },
  "gasUsed": {
    "_hex": "0xf618"
  },
  "miner": "0xeB1325C8D9d3ea8D74aC11F4B00F1B2367686319",
  "extraData": "0x476574682f76312e302e312f77696e646f77732f676f312e342e32",
  "transactions": [
    {
      "hash": "0x91e63f6c164d83b37688545a246dbda48b9d8485184a93807484b7350f0ffc2a",
      "blockHash": "0x0cb13b8df569a3cb3466b15409ce5301b2e22da409c1566b30ccf533883d480a",
      "blockNumber": 53613,
      "transactionIndex": 0,
      "confirmations": null,
      "from": "0xDC6A542F97876923583019b526335fD1fB0DfC6A",
      "gasPrice": {
        "_hex": "0xe26c29ab0"
      },
      "gasLimit": {
        "_hex": "0x5208"
      },
      "to": "0x32Be343B94f860124dC4fEe278FDCBD38C102D88",
      "value": {
        "_hex": "0xddc2dd746e46800"
      },
      "nonce": 0,
      "data": "0x",
      "r": "0xbfdcf1afa6b7525fe11354bc6410f03e3021ddd10b9b868bb085b299c326b81f",
      "s": "0x5716afaa0cb2448c62abbc2845cd7dbdcb7c0b7a46f2becde98c7d98269ed106",
      "v": 27,
      "creates": null,
      "raw": "0xf86c80850e26c29ab08252089432be343b94f860124dc4fee278fdcbd38c102d88880ddc2dd746e46800801ba0bfdcf1afa6b7525fe11354bc6410f03e3021ddd10b9b868bb085b299c326b81fa05716afaa0cb2448c62abbc2845cd7dbdcb7c0b7a46f2becde98c7d98269ed106",
      "networkId": 0,
      "chainId": 0
    },
    {
      "hash": "0xa8cb5e136e8989b577e954de5d6b36ee76a2d6dc84fe70a4191ab0a2d44edf07",
      "blockHash": "0x0cb13b8df569a3cb3466b15409ce5301b2e22da409c1566b30ccf533883d480a",
      "blockNumber": 53613,
      "transactionIndex": 1,
      "confirmations": null,
      "from": "0xf2881e3e520bF84469Fa00a56449D357FB1af54A",
      "gasPrice": {
        "_hex": "0xe26c29ab0"
      },
      "gasLimit": {
        "_hex": "0x5208"
      },
      "to": "0x32Be343B94f860124dC4fEe278FDCBD38C102D88",
      "value": {
        "_hex": "0x56be65c4372518000"
      },
      "nonce": 0,
      "data": "0x",
      "r": "0x642f43bfb36d43b2ec3370a4a41d9bd56f9c46d888c70944cda270ea1546b78a",
      "s": "0x49bbd00eb16e964f98fede2e79869b82607f32beda827fecb12becd68c3b3043",
      "v": 28,
      "creates": null,
      "raw": "0xf86d80850e26c29ab08252089432be343b94f860124dc4fee278fdcbd38c102d8889056be65c4372518000801ca0642f43bfb36d43b2ec3370a4a41d9bd56f9c46d888c70944cda270ea1546b78aa049bbd00eb16e964f98fede2e79869b82607f32beda827fecb12becd68c3b3043",
      "networkId": 0,
      "chainId": 0
    },
    {
      "hash": "0x8340060cb0b41256121bebc62b7189a95f60e89dba636a2ea93352b5cbec36c7",
      "blockHash": "0x0cb13b8df569a3cb3466b15409ce5301b2e22da409c1566b30ccf533883d480a",
      "blockNumber": 53613,
      "transactionIndex": 2,
      "confirmations": null,
      "from": "0x32Be343B94f860124dC4fEe278FDCBD38C102D88",
      "gasPrice": {
        "_hex": "0xe26c29ab0"
      },
      "gasLimit": {
        "_hex": "0x5208"
      },
      "to": "0x2C076d91b9ca5475Cd168B018707EeA87204BAaC",
      "value": {
        "_hex": "0x2c68af0bb140000"
      },
      "nonce": 38,
      "data": "0x",
      "r": "0x82a1189d33e1a80a8dcd13eefa5d96e33934972f574980f032ade47d5892831a",
      "s": "0x5343af91a205e2c34687a5ee7722ff1766767b838fb845dcd60f69cce5e39e2d",
      "v": 28,
      "creates": null,
      "raw": "0xf86c26850e26c29ab0825208942c076d91b9ca5475cd168b018707eea87204baac8802c68af0bb140000801ca082a1189d33e1a80a8dcd13eefa5d96e33934972f574980f032ade47d5892831aa05343af91a205e2c34687a5ee7722ff1766767b838fb845dcd60f69cce5e39e2d",
      "networkId": 0,
      "chainId": 0
    }
  ]
}