{
  "hash": "0xaa47f3fffbe7ea664e11e6f4c30b64c5bd21b049e11bfe7df4070a750d8c2f07",
  "parentHash": "0xa7dcbe22e017f7a3b8d72510daa588fbcee8e3daeab1d88ae3a0c3e6a232b8a4",
  "number": 109659,
  "timestamp": 1439960460,
  "nonce": "0x82dead884c8988e2",
  "difficulty": 4440567251696,
  "gasLimit": {
    "_hex": "0x2fefd8"
  },
  "gasUsed": {
    "_hex": "0x1167a"
  },
  "miner": "0xf927a40C8B7F6E07c5af7FA2155B4864a4112B13",
  "extraData": "0x",
  "transactions": [
    {
      "hash": "0xcff2d17d75148048a9599a43647f255c74b39454b9720657562aa9542350bbf2",
      "blockHash": "0xaa47f3fffbe7ea664e11e6f4c30b64c5bd21b049e11bfe7df4070a750d8c2f07",
      "blockNumber": 109659,
      "transactionIndex": 0,
      "confirmations": null,
      "from": "0x13F26856CBaCaAba9c4488a31C72E605fAe029FC",
      "gasPrice": {
        "_hex": "0xd800006a1"
      },
      "gasLimit": {
        "_hex": "0x15f90"
      },
      "to": "0x47071214D1ef76EeB26E9aC3EC6cC965ab8eb75B",
      "value": {
        "_hex": "0x0"
      },
      "nonce": 3,
      "data": "0x90b98a110000000000000000000000006fa7ff1d620ed12be714f58111d4aafa49f837a900000000000000000000000000000000000000000000000000000000000003e8",
      "r": "0xe99669d5537e43ab3de9bccc6ae355a480cc26ff8b0de80706a032cf12fbfee9",
      "s": "0x4e4518dafac352ede07c9e00fe785263712f9a08c704d43cea196ff5f2af9715",
      "v": 27,
      "creates": null,
      "raw": "0xf8aa03850d800006a183015f909447071214d1ef76eeb26e9ac3ec6cc965ab8eb75b80b84490b98a110000000000000000000000006fa7ff1d620ed12be714f58111d4aafa49f837a900000000000000000000000000000000000000000000000000000000000003e81ba0e99669d5537e43ab3de9bccc6ae355a480cc26ff8b0de80706a032cf12fbfee9a04e4518dafac352ede07c9e00fe785263712f9a08c704d43cea196ff5f2af9715",
      "networkId": 0,
      "chainId": 0
    },
    {
      "hash": "0x7361b1b27b75295329b3e9970fd5d906f2612e2879002e9267dee2c9938dfb98",
      "blockHash": "0xaa47f3fffbe7ea664e11e6f4c30b64c5bd21b049e11bfe7df4070a750d8c2f07",
      "blockNumber": 109659,
      "transactionIndex": 1,
      "confirmations": null,
      "from": "0x9729efC5198d5ed4d98Fa76745093D41d89FB143",
      "gasPrice": {
        "_hex": "0xcfcd13e08"
      },
      "gasLimit": {
        "_hex": "0x5208"
      },
      "to": "0x32Be343B94f860124dC4fEe278FDCBD38C102D88",
      "value": {
        "_hex": "0xd84c3effdcaf400000"
      },
      "nonce": 1,
      "data": "0x",
      "r": "0x16d55dc7bfe9d7e6af9fb99c002dd7989fe6464c14c0609dc45bdcdce9982b3e",
      "s": "0x267c096bbf46ecbc95c615d270d96e0dc0965235ebd16cebc71870eaaa863aea",
      "v": 27,
      "creates": null,
      "raw": "0xf86d01850cfcd13e088252089432be343b94f860124dc4fee278fdcbd38c102d8889d84c3effdcaf400000801ba016d55dc7bfe9d7e6af9fb99c002dd7989fe6464c14c0609dc45bdcdce9982b3ea0267c096bbf46ecbc95c615d270d96e0dc0965235ebd16cebc71870eaaa863aea",
      "networkId": 0,
      "chainId": 0
    }
  ]
}