{
  "hash": "0x51b5f397e5ca450a462648ad6c021f1ac41e98e52dd0257b6fd2e74306e2624e",
  "parentHash": "0x66f967757ddd1d24c5c482a732b1f03dbcf11e4e43b58f980c5033d8c8137511",
  "number": 61456,
  "timestamp": 1439172699,
  "nonce": "0xcbe892ac2557d6e5",
  "difficulty": 1734514448913,
  "gasLimit": {
    "_hex": "0x2fefd8"
  },
  "gasUsed": {
    "_hex": "0x5520"
  },
  "miner": "0xf927a40C8B7F6E07c5af7FA2155B4864a4112B13",
  "extraData": "0x476574682f76312e302e312f6c696e75782f676f312e342e32",
  "transactions": [
    {
      "hash": "0x4f921b9965c331c945639b2e716b396f3e0a03d37a39d5189351550aa37bc3f5",
      "blockHash": "0x51b5f397e5ca450a462648ad6c021f1ac41e98e52dd0257b6fd2e74306e2624e",
      "blockNumber": 61456,
      "transactionIndex": 0,
      "confirmations": null,
      "from": "0xc8ebccC5F5689Fa8659d83713341e5aD19349448",
      "gasPrice": {
        "_hex": "0xcec60ed1f"
      },
      "gasLimit": {
        "_hex": "0x15f90"
      },
      "to": "0xC7d3E431Be6222543364408a94C12C0D089Be305",
      "value": {
        "_hex": "0x0"
      },
      "nonce": 22,
      "data": "0x3ba15036",
      "r": "0x9a2bef84d9a920356242b27ebae3d8006f06b732e6984064067be8884ac7d7c6",
      "s": "0x3c4f870aabe98eea06c46923fdb40e5a50e4c0ee971d35ef98ee53735ca226e7",
      "v": 27,
      "creates": null,
      "raw": "0xf86916850cec60ed1f83015f9094c7d3e431be6222543364408a94c12c0d089be30580843ba150361ba09a2bef84d9a920356242b27ebae3d8006f06b732e6984064067be8884ac7d7c6a03c4f870aabe98eea06c46923fdb40e5a50e4c0ee971d35ef98ee53735ca226e7",
      "networkId": 0,
      "chainId": 0
    }
  ]
}