{
  "hash": "0x71ba94c0241e51465389e598c3324ec4108795ba8e60f10d2ca0718dac9cef07",
  "parentHash": "0x0cdfc443f0c513a595fa5978c6264998acfa9be5d2062317aa5273c761b31c50",
  "number": 111325,
  "timestamp": 1439988150,
  "nonce": "0x9da6f74aebf4eceb",
  "difficulty": 4439685430602,
  "gasLimit": {
    "_hex": "0x2fefd8"
  },
  "gasUsed": {
    "_hex": "0xa410"
  },
  "miner": "0x52bc44d5378309EE2abF1539BF71dE1b7d7bE3b5",
  "extraData": "0x476574682f76312e302e312d63303261396266632f6c696e75782f676f312e34",
  "transactions": [
    {
      "hash": "0xa64456b225dd226bb8815e25e6818cffde8175a4419efa2640924118d9481479",
      "blockHash": "0x71ba94c0241e51465389e598c3324ec4108795ba8e60f10d2ca0718dac9cef07",
      "blockNumber": 111325,
      "transactionIndex": 0,
      "confirmations": null,
      "from": "0x513cc87Fc09c7Dedae9A780a66dc47ebeE4B5C5A",
      "gasPrice": {
        "_hex": "0xd7d40ace3"
      },
      "gasLimit": {
        "_hex": "0x5208"
      },
      "to": "0x5e1E5C470DFbE20120224C1358Bb193e5837C840",
      "value": {
        "_hex": "0x29a2241af62c0000"
      },
      "nonce": 5,
      "data": "0x",
      "r": "0x28515367230bbdafdc418979f23b0c128e96801ec3e842b442f1a985eb01b29a",
      "s": "0x0ff950e98e0bd61d45ec6ede7b918777280ea822a04012204b69c7ee5723b770",
      "v": 27,
      "creates": null,
      "raw": "0xf86c05850d7d40ace3825208945e1e5c470dfbe20120224c1358bb193e5837c8408829a2241af62c0000801ba028515367230bbdafdc418979f23b0c128e96801ec3e842b442f1a985eb01b29aa00ff950e98e0bd61d45ec6ede7b918777280ea822a04012204b69c7ee5723b770",
      "networkId": 0,
      "chainId": 0
    },
    {
      "hash": "0x966c1697b19509e0ed2d4e2ec2e6b79de249ae7a1a15851435cbfed4bab2153b",
      "blockHash": "0x71ba94c0241e51465389e598c3324ec4108795ba8e60f10d2ca0718dac9cef07",
      "blockNumber": 111325,
      "transactionIndex": 1,
      "confirmations": null,
      "from": "0xB4e3465C5C57c9c8c5Aa2Ccda3156F21F165De45",
      "gasPrice": {
        "_hex": "0xd03001a57"
      },
      "gasLimit": {
        "_hex": "0x15f90"
      },
      "to": "0x1177848589133f5C4E69EdFcb18bBCd9cACE72D1",
      "value": {
        "_hex": "0x470de4df820000"
      },
      "nonce": 0,
      "data": "0x",
      "r": "0xd0be9cb17bd731fe787051faafd119097fafc60774ff795ebccaff4f7dbeec6e",
      "s": "0x3208ddbf076f24f3195c3e027b842c1adeb03014c03496d46eb20c5a7a2051aa",
      "v": 27,
      "creates": null,
      "raw": "0xf86c80850d03001a5783015f90941177848589133f5c4e69edfcb18bbcd9cace72d187470de4df820000801ba0d0be9cb17bd731fe787051faafd119097fafc60774ff795ebccaff4f7dbeec6ea03208ddbf076f24f3195c3e027b842c1adeb03014c03496d46eb20c5a7a2051aa",
      "networkId": 0,
      "chainId": 0
    }
  ]
}