{
  "hash": "0x6d11aeb6768019521e15c2028db50fcdf6b40e554d0808f16015d60c1a95b1e8",
  "parentHash": "0xc01837c4636dfedea9846afdbcb43986c3a6a6efa9f7ff3fd03992b7d8d14027",
  "number": 73169,
  "timestamp": 1439364191,
  "nonce": "0x25c8d4e33c384a4f",
  "difficulty": 2222967372377,
  "gasLimit": {
    "_hex": "0x2fefd8"
  },
  "gasUsed": {
    "_hex": "0x5208"
  },
  "miner": "0xe6A7a1d47ff21B6321162AEA7C6CB457D5476Bca",
  "extraData": "0x476574682f76312e302e312d38326566323666362f6c696e75782f676f312e34",
  "transactions": [
    {
      "hash": "0x4654d05c0b8c4eb10e73e6f6f13fc21ad60df37b1153e8583342a8883723fb27",
      "blockHash": "0x6d11aeb6768019521e15c2028db50fcdf6b40e554d0808f16015d60c1a95b1e8",
      "blockNumber": 73169,
      "transactionIndex": 0,
      "confirmations": null,
      "from": "0xa996A83814728F5f8a7e000D466BcA6c2AFFf559",
      "gasPrice": {
        "_hex": "0xd7d40ace3"
      },
      "gasLimit": {
        "_hex": "0x15f90"
      },
      "to": "0x6d921977dEFE5f4e0682CA512De1D07b1f4802E1",
      "value": {
        "_hex": "0x45400a8fd5330000"
      },
      "nonce": 0,
      "data": "0x",
      "r": "0xe2786f0d09bf35c19a01248e3932a4df8be29218126d8ce57c2e0b9a113f54e4",
      "s": "0x18cdbb07380034f1072cbe768e2ef802674918579018415ced36c5dd6daefc9d",
      "v": 28,
      "creates": null,
      "raw": "0xf86d80850d7d40ace383015f90946d921977defe5f4e0682ca512de1d07b1f4802e18845400a8fd5330000801ca0e2786f0d09bf35c19a01248e3932a4df8be29218126d8ce57c2e0b9a113f54e4a018cdbb07380034f1072cbe768e2ef802674918579018415ced36c5dd6daefc9d",
      "networkId": 0,
      "chainId": 0
    }
  ]
}