{
  "hash": "0x3313db882e635c04e6b771e66a03a064436a24dacabb2336a21101ccd699070f",
  "parentHash": "0xbd790230a4f4fc795b214b7382c94c55ac0e75f013c2a8292f7a9b8a56efb3a1",
  "number": 97696,
  "timestamp": 1439760358,
  "nonce": "0x4f3dfa2338ab978e",
  "difficulty": 3835343490545,
  "gasLimit": {
    "_hex": "0x2fefd8"
  },
  "gasUsed": {
    "_hex": "0x546c"
  },
  "miner": "0xC603Ab5ef41fC61AA8b76bEddb09e3Cfcbb174BD",
  "extraData": "0x476574682f76312e302e312f77696e646f77732f676f312e342e32",
  "transactions": [
    {
      "hash": "0xa58291944a6fdd47bd5aa7c11e03c869516b85e8033ae08610ace3702bd61e3e",
      "blockHash": "0x3313db882e635c04e6b771e66a03a064436a24dacabb2336a21101ccd699070f",
      "blockNumber": 97696,
      "transactionIndex": 0,
      "confirmations": null,
      "from": "0xA88577a073FbAF33C4cD202e00ea70ef711b4006",
      "gasPrice": {
        "_hex": "0x110c8f7d8de"
      },
      "gasLimit": {
        "_hex": "0xc350"
      },
      "to": "0x2910543Af39abA0Cd09dBb2D50200b3E800A63D2",
      "value": {
        "_hex": "0x8e1bc9bf040000"
      },
      "nonce": 4,
      "data": "0x454e484e3745414347",
      "r": "0xbe56285757d22d2f6a45fce12fe63b3323c420e5a5ef8eef4e231d1189084fc6",
      "s": "0xf1f059fb7b4e605ff0956ff5526d654238e04d98b0cb9de9d10fad0486ee4bf0",
      "v": 28,
      "creates": null,
      "raw": "0xf87504860110c8f7d8de82c350942910543af39aba0cd09dbb2d50200b3e800a63d2878e1bc9bf04000089454e484e37454143471ca0be56285757d22d2f6a45fce12fe63b3323c420e5a5ef8eef4e231d1189084fc6a0f1f059fb7b4e605ff0956ff5526d654238e04d98b0cb9de9d10fad0486ee4bf0",
      "networkId": 0,
      "chainId": 0
    }
  ]
}