{
  "hash": "0xc72c9cf42a3e1ad4006658e21129abc1fb8086f3af8124154c9b00f6f41e690b",
  "parentHash": "0xa4b37a58fb97fb7a1a1bd5f5ef0869d7de6ca177457bf12506ead4781601f930",
  "number": 71581,
  "timestamp": 1439338431,
  "nonce": "0x1efe7110f3cd9ea2",
  "difficulty": 2174005508891,
  "gasLimit": {
    "_hex": "0x2fefd8"
  },
  "gasUsed": {
    "_hex": "0x93b2"
  },
  "miner": "0x88D74a59454F6cF3B51ef6b9136AFb6b9D405A88",
  "extraData": "0x476574682f76312e302e312d37666266393930632f6c696e75782f676f312e34",
  "transactions": [
    {
      "hash": "0x6fa54aab25317ebc83d0ace736e9481a858149f65a225bb1ccb6eb5e8bc60c90",
      "blockHash": "0xc72c9cf42a3e1ad4006658e21129abc1fb8086f3af8124154c9b00f6f41e690b",
      "blockNumber": 71581,
      "transactionIndex": 0,
      "confirmations": null,
      "from": "0x17580B766f7453525ca4C6A88b01b50570EA088C",
      "gasPrice": {
        "_hex": "0xd100f835d"
      },
      "gasLimit": {
        "_hex": "0x61a80"
      },
      "to": "0x5Fe5B7546D1628f7348B023A0393de1FC825A4fD",
      "value": {
        "_hex": "0xde0b6b3a7640000"
      },
      "nonce": 223,
      "data": "0xb595b8b50000000000000000000000000000000000000000000000000000000000000000",
      "r": "0xc65518ee5f71f349428242b45d0e70d342b0381aa4d12b0e8deb1b79c1194989",
      "s": "0x2e231b3cb49556eb0764e283affc0adcfb15f1ad0d9ffd270930b8d2c9300ca6",
      "v": 27,
      "creates": null,
      "raw": "0xf89281df850d100f835d83061a80945fe5b7546d1628f7348b023a0393de1fc825a4fd880de0b6b3a7640000a4b595b8b500000000000000000000000000000000000000000000000000000000000000001ba0c65518ee5f71f349428242b45d0e70d342b0381aa4d12b0e8deb1b79c1194989a02e231b3cb49556eb0764e283affc0adcfb15f1ad0d9ffd270930b8d2c9300ca6",
      "networkId": 0,
      "chainId": 0
    }
  ]
}