{
  "hash": "0x072e358d4b4dd309af6b5314413d03a7aa8a186b1b0082397f6f8997d0a63a68",
  "parentHash": "0x2cdda2984c039e367533ce9353ef42449c549bb837f0fa2b5f6e99c7f67556a6",
  "number": 48540,
  "timestamp": 1438958697,
  "nonce": "0x0b2f28ea3e1356af",
  "difficulty": 1470018556790,
  "gasLimit": {
    "_hex": "0x19233"
  },
  "gasUsed": {
    "_hex": "0x546c"
  },
  "miner": "0x01d9DA08cc6Fb97c0DE1B6F4C28910A0859Ed1A1",
  "extraData": "0x476574682f76312e302e312f6c696e75782f676f312e342e32",
  "transactions": [
    {
      "hash": "0x9a447ec63aad6a271a2ae9cb10d2a977ae907a7a599deca5586c52913cc47787",
      "blockHash": "0x072e358d4b4dd309af6b5314413d03a7aa8a186b1b0082397f6f8997d0a63a68",
      "blockNumber": 48540,
      "transactionIndex": 0,
      "confirmations": null,
      "from": "0xFa78997D2C35062BE8197CBfa061371D0547CcD2",
      "gasPrice": {
        "_hex": "0xe11312026"
      },
      "gasLimit": {
        "_hex": "0x15f90"
      },
      "to": "0x2910543Af39abA0Cd09dBb2D50200b3E800A63D2",
      "value": {
        "_hex": "0xa05b9b476ba380000"
      },
      "nonce": 0,
      "data": "0x454e51343033375047",
      "r": "0x9da6bfaae19dc3288919c9329c2daeca57154fb7dead6a7a3f1618fe6ab2fca2",
      "s": "0x4015693c76dde40924b04d294f1db96b8299bd20ba3bacd51d36d73a1612987d",
      "v": 28,
      "creates": null,
      "raw": "0xf87780850e1131202683015f90942910543af39aba0cd09dbb2d50200b3e800a63d2890a05b9b476ba38000089454e513430333750471ca09da6bfaae19dc3288919c9329c2daeca57154fb7dead6a7a3f1618fe6ab2fca2a04015693c76dde40924b04d294f1db96b8299bd20ba3bacd51d36d73a1612987d",
      "networkId": 0,
      "chainId": 0
    }
  ]
}