{
  "hash": "0xe4551e85f8eecbc05bab3bb55bd2fb85882cf9cb7148ccbf5a7426c725b69c1f",
  "parentHash": "0x48b3a0ebab13f6f5525a82eaca37a03cac900b6f5652512e0862d193d707f5b3",
  "number": 107513,
  "timestamp": 1439923723,
  "nonce": "0xdb28e6ecf196f42d",
  "difficulty": 4424386835155,
  "gasLimit": {
    "_hex": "0x2fefd8"
  },
  "gasUsed": {
    "_hex": "0x5208"
  },
  "miner": "0x77EC9ad4A7E9418774C29415CAaF4Ee0da96eF64",
  "extraData": "0x",
  "transactions": [
    {
      "hash": "0x791483b681610b7a83b948a508bfa249dcf6f588d039f34bce169f28a65b41a5",
      "blockHash": "0xe4551e85f8eecbc05bab3bb55bd2fb85882cf9cb7148ccbf5a7426c725b69c1f",
      "blockNumber": 107513,
      "transactionIndex": 0,
      "confirmations": null,
      "from": "0x32Be343B94f860124dC4fEe278FDCBD38C102D88",
      "gasPrice": {
        "_hex": "0xda079da08"
      },
      "gasLimit": {
        "_hex": "0x5208"
      },
      "to": "0xE3291e02d1d7b6A7F4aAA164c56Cf21FD30D0eb5",
      "value": {
        "_hex": "0xa2a139825f2c200000"
      },
      "nonce": 1222,
      "data": "0x",
      "r": "0xe6972361792141a9d7e3a18e346a246d5462fb3aa623753d1271271190a3ec97",
      "s": "0x542e8034c87ae77ca473676fa44630e34b6af1d7703616975a0afb43bb28b3f8",
      "v": 28,
      "creates": null,
      "raw": "0xf86f8204c6850da079da0882520894e3291e02d1d7b6a7f4aaa164c56cf21fd30d0eb589a2a139825f2c200000801ca0e6972361792141a9d7e3a18e346a246d5462fb3aa623753d1271271190a3ec97a0542e8034c87ae77ca473676fa44630e34b6af1d7703616975a0afb43bb28b3f8",
      "networkId": 0,
      "chainId": 0
    }
  ]
}