{
  "hash": "0x0edc3dd1659a688fe94f8dc669b9f1a7ea8264f1bf16c79c6039499a2295a044",
  "parentHash": "0x725fa1500db01f819fdd14d15cfab4aa60f55b1bb12dd527c8e1cd6402142dba",
  "number": 47188,
  "timestamp": 1438935780,
  "nonce": "0x5208b5f398a3ffef",
  "difficulty": 1460239199121,
  "gasLimit": {
    "_hex": "0xa0cd"
  },
  "gasUsed": {
    "_hex": "0x5208"
  },
  "miner": "0x9252A9C83D5703eDC585CfDcE80d5F903D357514",
  "extraData": "0x476574682f76312e302e312f6c696e75782f676f312e342e32",
  "transactions": [
    {
      "hash": "0xbbb259027dddd9258dc77a4b81bd84d91a87d22ee812a810c34f728187c4d349",
      "blockHash": "0x0edc3dd1659a688fe94f8dc669b9f1a7ea8264f1bf16c79c6039499a2295a044",
      "blockNumber": 47188,
      "transactionIndex": 0,
      "confirmations": null,
      "from": "0xdCd8Aa0E6fD68B057C5AC5e362619808A175CE87",
      "gasPrice": {
        "_hex": "0xdf8475800"
      },
      "gasLimit": {
        "_hex": "0x5208"
      },
      "to": "0x5B3e850E39e6f2C7dD38707b649e2B3536F14C0b",
      "value": {
        "_hex": "0xde0b6b3a7640000"
      },
      "nonce": 0,
      "data": "0x",
      "r": "0xf2a936531a76cd9c55a113eb9b43e21d74ffb5de8c9cf4affe25b6eb482c143b",
      "s": "0x22c1934403ad5ccab2035efb7384e387e5fa6f56da257a73d0b6d502427ac692",
      "v": 27,
      "creates": null,
      "raw": "0xf86c80850df8475800825208945b3e850e39e6f2c7dd38707b649e2b3536f14c0b880de0b6b3a7640000801ba0f2a936531a76cd9c55a113eb9b43e21d74ffb5de8c9cf4affe25b6eb482c143ba022c1934403ad5ccab2035efb7384e387e5fa6f56da257a73d0b6d502427ac692",
      "networkId": 0,
      "chainId": 0
    }
  ]
}