{
  "hash": "0x23983121446796abc708825c8fd6c03c78f69e8f63610fe6613bc0432c7199ca",
  "parentHash": "0xbf98bd48db587f6e86554b0ab9250dd36eebd872b3d16b4c2d436f54ffe13417",
  "number": 68990,
  "timestamp": 1439296808,
  "nonce": "0x566accc665774ad7",
  "difficulty": 2033962086234,
  "gasLimit": {
    "_hex": "0x2fefd8"
  },
  "gasUsed": {
    "_hex": "0x111bb4"
  },
  "miner": "0xEF247E639d49461D25F57e9362CadE3120910Ce0",
  "extraData": "0x476574682f76312e302e312f6c696e75782f676f312e342e32",
  "transactions": [
    {
      "hash": "0x33cc85cb9ff0d723dd4279f65ebb78f817a757efc96ef007438e5eb414a851bd",
      "blockHash": "0x23983121446796abc708825c8fd6c03c78f69e8f63610fe6613bc0432c7199ca",
      "blockNumber": 68990,
      "transactionIndex": 0,
      "confirmations": null,
      "from": "0x101F34688b6EcD69Ad153AA441DC0329e5DD645B",
      "gasPrice": {
        "_hex": "0xba43b7400"
      },
      "gasLimit": {
        "_hex": "0x15f90"
      },
      "to": "0x793AE8C1b1a160BFc07BFB0d04F85eab1A71F4f2",
      "value": {
        "_hex": "0x0"
      },
      "nonce": 0,
      "data": "0x3ba15036",
      "r": "0x9df8879eebca2cf6447421093cd9374d2ba065d231a4cf0d43ab734c0f64695c",
      "s": "0x7f6718a1bfd9b2f37272791f731e89b3c052125d8b53ceb27b6ed2e9c034a0c8",
      "v": 28,
      "creates": null,
      "raw": "0xf86980850ba43b740083015f9094793ae8c1b1a160bfc07bfb0d04f85eab1a71f4f280843ba150361ca09df8879eebca2cf6447421093cd9374d2ba065d231a4cf0d43ab734c0f64695ca07f6718a1bfd9b2f37272791f731e89b3c052125d8b53ceb27b6ed2e9c034a0c8",
      "networkId": 0,
      "chainId": 0
    },
    {
      "hash": "0x4864bdf1731d7582265680960ed03f8f13ae8925c8b46774789c11166677782e",
      "blockHash": "0x23983121446796abc708825c8fd6c03c78f69e8f63610fe6613bc0432c7199ca",
      "blockNumber": 68990,
      "transactionIndex": 1,
      "confirmations": null,
      "from": "0x4cF7e6AF75fA7e73DDf098AE17a18F5C5A19f527",
      "gasPrice": {
        "_hex": "0xba43b7400"
      },
      "gasLimit": {
        "_hex": "0x15f90"
      },
      "to": "0x793AE8C1b1a160BFc07BFB0d04F85eab1A71F4f2",
      "value": {
        "_hex": "0x0"
      },
      "nonce": 0,
      "data": "0x3ba15036",
      "r": "0xdb28d1b94490e11a616bf5c360f35d27cb2fa9c5aff2105e6a360eca55710d62",
      "s": "0x7a33e751491799e1d7a922c9a7a23ac50e4b9bdbc33ccfe480583a6edae42c6b",
      "v": 28,
      "creates": null,
      "raw": "0xf86980850ba43b740083015f9094793ae8c1b1a160bfc07bfb0d04f85eab1a71f4f280843ba150361ca0db28d1b94490e11a616bf5c360f35d27cb2fa9c5aff2105e6a360eca55710d62a07a33e751491799e1d7a922c9a7a23ac50e4b9bdbc33ccfe480583a6edae42c6b",
      "networkId": 0,
      "chainId": 0
    },
    {
      "hash": "0xfd501734c513cc283adf32d07c83f4017b33bf390b6c7a6386017075d8665caa",
      "blockHash": "0x23983121446796abc708825c8fd6c03c78f69e8f63610fe6613bc0432c7199ca",
      "blockNumber": 68990,
      "transactionIndex": 2,
      "confirmations": null,
      "from": "0x8A2aaBa303FE72A487Ec054c54867323B94fEebb",
      "gasPrice": {
        "_hex": "0xba43b7400"
      },
      "gasLimit": {
        "_hex": "0x15f90"
      },
      "to": "0x793AE8C1b1a160BFc07BFB0d04F85eab1A71F4f2",
      "value": {
        "_hex": "0x0"
      },
      "nonce": 0,
      "data": "0x3ba15036",
      "r": "0xba6e5eb103e91a5470b5b2a41d5b3020b4c38ce365a1c3a6da1e1971cc67b535",
      "s": "0x32fa1be412b968dcdf5c84e522a3c1efa0df1f09f9269bd0511f34eb8ee18760",
      "v": 28,
      "creates": null,
      "raw": "0xf86980850ba43b740083015f9094793ae8c1b1a160bfc07bfb0d04f85eab1a71f4f280843ba150361ca0ba6e5eb103e91a5470b5b2a41d5b3020b4c38ce365a1c3a6da1e1971cc67b535a032fa1be412b968dcdf5c84e522a3c1efa0df1f09f9269bd0511f34eb8ee18760",
      "networkId": 0,
      "chainId": 0
    },
    {
      "hash": "0x685ba139dbbc7dcb1b841fc37a02aaa14ec651474ff5c2530fe58b617eca4ec9",
      "blockHash": "0x23983121446796abc708825c8fd6c03c78f69e8f63610fe6613bc0432c7199ca",
      "blockNumber": 68990,
      "transactionIndex": 3,
      "confirmations": null,
      "from": "0xf5Ced1b97849293E45CAa5C74921f414904a9B95",
      "gasPrice": {
        "_hex": "0xba43b7400"
      },
      "gasLimit": {
        "_hex": "0x15f90"
      },
      "to": "0x793AE8C1b1a160BFc07BFB0d04F85eab1A71F4f2",
      "value": {
        "_hex": "0x0"
      },
      "nonce": 0,
      "data": "0x3ba15036",
      "r": "0x2603643633e600a0cad46ddb0030d7d25247d34d9a46324c29ca7962ff93454c",
      "s": "0x314f20b7b61186c06134f58993bd39e7c361dfaf3d7668904b51b0925c551b17",
      "v": 27,
      "creates": null,
      "raw": "0xf86980850ba43b740083015f9094793ae8c1b1a160bfc07bfb0d04f85eab1a71f4f280843ba150361ba02603643633e600a0cad46ddb0030d7d25247d34d9a46324c29ca7962ff93454ca0314f20b7b61186c06134f58993bd39e7c361dfaf3d7668904b51b0925c551b17",
      "networkId": 0,
      "chainId": 0
    },
    {
      "hash": "0x5e67c40a1715ab3359865c1956ebdeeb3cca7bae32f3d3ed1d36e1820d868598",
      "blockHash": "0x23983121446796abc708825c8fd6c03c78f69e8f63610fe6613bc0432c7199ca",
      "blockNumber": 68990,
      "transactionIndex": 4,
      "confirmations": null,
      "from": "0x4DC64f7E95D75AdF7b3CEe5d21115b57a03765Ab",
      "gasPrice": {
        "_hex": "0xba43b7400"
      },
      "gasLimit": {
        "_hex": "0x15f90"
      },
      "to": "0x793AE8C1b1a160BFc07BFB0d04F85eab1A71F4f2",
      "value": {
        "_hex": "0x0"
      },
      "nonce": 0,
      "data": "0x3ba15036",
      "r": "0x17723fa69fa37c4a2a0e732ab004f2e939edf575f59db8e0bacce765530ba4ba",
      "s": "0x5aa3df388b0f44588e31512305a98231c6fc7b991e031aaef26134caa13d7246",
      "v": 28,
      "creates": null,
      "raw": "0xf86980850ba43b740083015f9094793ae8c1b1a160bfc07bfb0d04f85eab1a71f4f280843ba150361ca017723fa69fa37c4a2a0e732ab004f2e939edf575f59db8e0bacce765530ba4baa05aa3df388b0f44588e31512305a98231c6fc7b991e031aaef26134caa13d7246",
      "networkId": 0,
      "chainId": 0
    },
    {
      "hash": "0x51da8030ff7412d3564122aedf835fa98487b59cf8ed45fe6bff8b885fdad34c",
      "blockHash": "0x23983121446796abc708825c8fd6c03c78f69e8f63610fe6613bc0432c7199ca",
      "blockNumber": 68990,
      "transactionIndex": 5,
      "confirmations": null,
      "from": "0x3033d1adC1E5FCdAC81274833f33a445674CBf55",
      "gasPrice": {
        "_hex": "0xba43b7400"
      },
      "gasLimit": {
        "_hex": "0x15f90"
      },
      "to": "0x793AE8C1b1a160BFc07BFB0d04F85eab1A71F4f2",
      "value": {
        "_hex": "0x0"
      },
      "nonce": 0,
      "data": "0x3ba15036",
      "r": "0x61ac8fbae2cbe88bbb6961ceb61032b545834f1419da25823724af76bbc515e3",
      "s": "0x62ba44f61f8e5af85e5aab1c6cd50cc3cb7d5b65a1b4797682c647282d319509",
      "v": 27,
      "creates": null,
      "raw": "0xf86980850ba43b740083015f9094793ae8c1b1a160bfc07bfb0d04f85eab1a71f4f280843ba150361ba061ac8fbae2cbe88bbb6961ceb61032b545834f1419da25823724af76bbc515e3a062ba44f61f8e5af85e5aab1c6cd50cc3cb7d5b65a1b4797682c647282d319509",
      "networkId": 0,
      "chainId": 0
    },
    {
      "hash": "0x3ee5fba07725587aa7de29e6efefab51c50f88f34ad5100ea4655d78df9066c7",
      "blockHash": "0x23983121446796abc708825c8fd6c03c78f69e8f63610fe6613bc0432c7199ca",
      "blockNumber": 68990,
      "transactionIndex": 6,
      "confirmations": null,
      "from": "0x51f0473F176e2dfC10BdABcD13C9f7eBc2a7C793",
      "gasPrice": {
        "_hex": "0xba43b7400"
      },
      "gasLimit": {
        "_hex": "0x15f90"
      },
      "to": "0x793AE8C1b1a160BFc07BFB0d04F85eab1A71F4f2",
      "value": {
        "_hex": "0x0"
      },
      "nonce": 0,
      "data": "0x3ba15036",
      "r": "0x5c3a83bd1b4ab71478aefb741f9162d75a89d471d2f21048df92c93033aace59",
      "s": "0x63d22876f5bdfb062821fd4405d5aaf38fdef3482285ac9569cff25a3d1dd5f6",
      "v": 27,
      "creates": null,
      "raw": "0xf86980850ba43b740083015f9094793ae8c1b1a160bfc07bfb0d04f85eab1a71f4f280843ba150361ba05c3a83bd1b4ab71478aefb741f9162d75a89d471d2f21048df92c93033aace59a063d22876f5bdfb062821fd4405d5aaf38fdef3482285ac9569cff25a3d1dd5f6",
      "networkId": 0,
      "chainId": 0
    },
    {
      "hash": "0x86998e4b9727b3aaac5f80251adeeea0941f390f727a16d00e06ef975e657607",
      "blockHash": "0x23983121446796abc708825c8fd6c03c78f69e8f63610fe6613bc0432c7199ca",
      "blockNumber": 68990,
      "transactionIndex": 7,
      "confirmations": null,
      "from": "0xda68c9e72ed550750ed6172E11b2a9D69b8f48fE",
      "gasPrice": {
        "_hex": "0xba43b7400"
      },
      "gasLimit": {
        "_hex": "0x15f90"
      },
      "to": "0x793AE8C1b1a160BFc07BFB0d04F85eab1A71F4f2",
      "value": {
        "_hex": "0x0"
      },
      "nonce": 0,
      "data": "0x3ba15036",
      "r": "0xc0cbf8bcd48a76291b8f8aa12e4eb717033f2a780898f6c242247a4459f78606",
      "s": "0x767dfc88fd616548a0762eb1aac88c8cfdbffb7c763f1fbff90edd571377f0cd",
      "v": 27,
      "creates": null,
      "raw": "0xf86980850ba43b740083015f9094793ae8c1b1a160bfc07bfb0d04f85eab1a71f4f280843ba150361ba0c0cbf8bcd48a76291b8f8aa12e4eb717033f2a780898f6c242247a4459f78606a0767dfc88fd616548a0762eb1aac88c8cfdbffb7c763f1fbff90edd571377f0cd",
      "networkId": 0,
      "chainId": 0
    },
    {
      "hash": "0x54092761e3acffe8ae276c2a6a48f7467ae5671dd1108de894f8e6a630504d81",
      "blockHash": "0x23983121446796abc708825c8fd6c03c78f69e8f63610fe6613bc0432c7199ca",
      "blockNumber": 68990,
      "transactionIndex": 8,
      "confirmations": null,
      "from": "0x8da76380dd7286c9DFd12434Cdd64723f4CDE3eb",
      "gasPrice": {
        "_hex": "0xba43b7400"
      },
      "gasLimit": {
        "_hex": "0x15f90"
      },
      "to": "0x793AE8C1b1a160BFc07BFB0d04F85eab1A71F4f2",
      "value": {
        "_hex": "0x0"
      },
      "nonce": 0,
      "data": "0x3ba15036",
      "r": "0xed33ed7e0b6d2bb4aaf470556f417c93b7bf14f2711657bd80445a3d3f8c3d4c",
      "s": "0x6474ab1ccb57d53cad1aac5b9c1eb75306287e546781b1c3aa787e7228c76cf7",
      "v": 27,
      "creates": null,
      "raw": "0xf86980850ba43b740083015f9094793ae8c1b1a160bfc07bfb0d04f85eab1a71f4f280843ba150361ba0ed33ed7e0b6d2bb4aaf470556f417c93b7bf14f2711657bd80445a3d3f8c3d4ca06474ab1ccb57d53cad1aac5b9c1eb75306287e546781b1c3aa787e7228c76cf7",
      "networkId": 0,
      "chainId": 0
    },
    {
      "hash": "0x03bd00b43618b5da918ab7e98d8344beec9b6f13404f6dfc3bf8c096fde494f6",
      "blockHash": "0x23983121446796abc708825c8fd6c03c78f69e8f63610fe6613bc0432c7199ca",
      "blockNumber": 68990,
      "transactionIndex": 9,
      "confirmations": null,
      "from": "0x90e0AFbf91774e9104cd1eAd9adF52dB47941473",
      "gasPrice": {
        "_hex": "0xba43b7400"
      },
      "gasLimit": {
        "_hex": "0x15f90"
      },
      "to": "0x793AE8C1b1a160BFc07BFB0d04F85eab1A71F4f2",
      "value": {
        "_hex": "0x0"
      },
      "nonce": 0,
      "data": "0x3ba15036",
      "r": "0x51485b7567c11fe71c23402cadee3fcdbe3489ed67d9c5017050424fa53ee482",
      "s": "0x0267084e0f5e250d9b3df7e35b4fde07c072fa475d57285922c60cb7d5e90600",
      "v": 27,
      "creates": null,
      "raw": "0xf86980850ba43b740083015f9094793ae8c1b1a160bfc07bfb0d04f85eab1a71f4f280843ba150361ba051485b7567c11fe71c23402cadee3fcdbe3489ed67d9c5017050424fa53ee482a00267084e0f5e250d9b3df7e35b4fde07c072fa475d57285922c60cb7d5e90600",
      "networkId": 0,
      "chainId": 0
    },
    {
      "hash": "0x7a25f952affad6e9f1eb2ba3506fab987663e21e464a0f637e44d1c4bd3cf2c8",
      "blockHash": "0x23983121446796abc708825c8fd6c03c78f69e8f63610fe6613bc0432c7199ca",
      "blockNumber": 68990,
      "transactionIndex": 10,
      "confirmations": null,
      "from": "0xA844d6cC57503F60660126FE2F1C5b1d7336DCe6",
      "gasPrice": {
        "_hex": "0xba43b7400"
      },
      "gasLimit": {
        "_hex": "0x15f90"
      },
      "to": "0x793AE8C1b1a160BFc07BFB0d04F85eab1A71F4f2",
      "value": {
        "_hex": "0x0"
      },
      "nonce": 0,
      "data": "0x3ba15036",
      "r": "0x9fc13cdc1ec7ab7ee418dfb8a80157afee8e260784930c56d11f45e3929658c1",
      "s": "0x21da78bd2c5c2c801747063baeec111f5535ed4df7f29f11e0c5ff6e5325a756",
      "v": 28,
      "creates": null,
      "raw": "0xf86980850ba43b740083015f9094793ae8c1b1a160bfc07bfb0d04f85eab1a71f4f280843ba150361ca09fc13cdc1ec7ab7ee418dfb8a80157afee8e260784930c56d11f45e3929658c1a021da78bd2c5c2c801747063baeec111f5535ed4df7f29f11e0c5ff6e5325a756",
      "networkId": 0,
      "chainId": 0
    },
    {
      "hash": "0x736a685cac8ec40eaaf80789e90ec94dfd1ad5c082022a0fe591c26e38e9de7e",
      "blockHash": "0x23983121446796abc708825c8fd6c03c78f69e8f63610fe6613bc0432c7199ca",
      "blockNumber": 68990,
      "transactionIndex": 11,
      "confirmations": null,
      "from": "0xD117Ee50F0823e01C7B65459BcEbdA7E7Ba178Fd",
      "gasPrice": {
        "_hex": "0xba43b7400"
      },
      "gasLimit": {
        "_hex": "0x15f90"
      },
      "to": "0x793AE8C1b1a160BFc07BFB0d04F85eab1A71F4f2",
      "value": {
        "_hex": "0x0"
      },
      "nonce": 0,
      "data": "0x3ba15036",
      "r": "0xe81cf99e09d7939b573ae198bfb3a134d20bccc2d6b26ffec02d90435822f549",
      "s": "0x41ec74289aede59a41576fcc5d969daf48080f224908f999faba5e8684d016f2",
      "v": 27,
      "creates": null,
      "raw": "0xf86980850ba43b740083015f9094793ae8c1b1a160bfc07bfb0d04f85eab1a71f4f280843ba150361ba0e81cf99e09d7939b573ae198bfb3a134d20bccc2d6b26ffec02d90435822f549a041ec74289aede59a41576fcc5d969daf48080f224908f999faba5e8684d016f2",
      "networkId": 0,
      "chainId": 0
    },
    {
      "hash": "0x78e4c00c98d57349ffbb8427e3f585489a5d45c6b398b2bae695646fef277597",
      "blockHash": "0x23983121446796abc708825c8fd6c03c78f69e8f63610fe6613bc0432c7199ca",
      "blockNumber": 68990,
      "transactionIndex": 12,
      "confirmations": null,
      "from": "0x17047BCC434eC02A022B437c1Edaad760106ec96",
      "gasPrice": {
        "_hex": "0xba43b7400"
      },
      "gasLimit": {
        "_hex": "0x15f90"
      },
      "to": "0x793AE8C1b1a160BFc07BFB0d04F85eab1A71F4f2",
      "value": {
        "_hex": "0x0"
      },
      "nonce": 0,
      "data": "0x3ba15036",
      "r": "0xba4f2faadf1bcff486e577b43c0224a500483ad081eed925125a969cd41e5d3a",
      "s": "0x3b91e97865b6b205332f4a65c7f75cd5fd18cecb1264c37424096e529cdd3016",
      "v": 28,
      "creates": null,
      "raw": "0xf86980850ba43b740083015f9094793ae8c1b1a160bfc07bfb0d04f85eab1a71f4f280843ba150361ca0ba4f2faadf1bcff486e577b43c0224a500483ad081eed925125a969cd41e5d3aa03b91e97865b6b205332f4a65c7f75cd5fd18cecb1264c37424096e529cdd3016",
      "networkId": 0,
      "chainId": 0
    },
    {
      "hash": "0x65eaa2eca3e814c8c33045ebfc07a4d936ab3bbd320e62d73c855a187b9dc870",
      "blockHash": "0x23983121446796abc708825c8fd6c03c78f69e8f63610fe6613bc0432c7199ca",
      "blockNumber": 68990,
      "transactionIndex": 13,
      "confirmations": null,
      "from": "0xbD9E6e86e74AFaE6136f9dB6A31f707534548Cbd",
      "gasPrice": {
        "_hex": "0xba43b7400"
      },
      "gasLimit": {
        "_hex": "0x15f90"
      },
      "to": "0x793AE8C1b1a160BFc07BFB0d04F85eab1A71F4f2",
      "value": {
        "_hex": "0x0"
      },
      "nonce": 0,
      "data": "0x3ba15036",
      "r": "0x32f3d62748853b70d8c2db85595b64b24c52c59e2ac780e06d2157e638f0cb3d",
      "s": "0x1ccfe049dd70183abfb61e89f2e44f99ab63e115bf4a4039549f22366075c9f0",
      "v": 28,
      "creates": null,
      "raw": "0xf86980850ba43b740083015f9094793ae8c1b1a160bfc07bfb0d04f85eab1a71f4f280843ba150361ca032f3d62748853b70d8c2db85595b64b24c52c59e2ac780e06d2157e638f0cb3da01ccfe049dd70183abfb61e89f2e44f99ab63e115bf4a4039549f22366075c9f0",
      "networkId": 0,
      "chainId": 0
    },
    {
      "hash": "0x0ee3646b3b773c7135aaa431b242b285fcc3395f5fe2a9ce372039aace875515",
      "blockHash": "0x23983121446796abc708825c8fd6c03c78f69e8f63610fe6613bc0432c7199ca",
      "blockNumber": 68990,
      "transactionIndex": 14,
      "confirmations": null,
      "from": "0x2fB5E8AbdBdE157B5E85FF8E5E75C7fbf566dCC9",
      "gasPrice": {
        "_hex": "0xba43b7400"
      },
      "gasLimit": {
        "_hex": "0x15f90"
      },
      "to": "0x793AE8C1b1a160BFc07BFB0d04F85eab1A71F4f2",
      "value": {
        "_hex": "0x0"
      },
      "nonce": 0,
      "data": "0x3ba15036",
      "r": "0xe93b87a69275202601f1779d0f4df80ea86b8c5e7c680770e00254b077047001",
      "s": "0x62ec3d2b957b08b56096d29d0e6d6696be23ad27697c237c37a02c6224b843ab",
      "v": 28,
      "creates": null,
      "raw": "0xf86980850ba43b740083015f9094793ae8c1b1a160bfc07bfb0d04f85eab1a71f4f280843ba150361ca0e93b87a69275202601f1779d0f4df80ea86b8c5e7c680770e00254b077047001a062ec3d2b957b08b56096d29d0e6d6696be23ad27697c237c37a02c6224b843ab",
      "networkId": 0,
      "chainId": 0
    },
    {
      "hash": "0x35ec783b19d0af9d5967fd4bbd81624bf805b5fcb845f759165c55595770988d",
      "blockHash": "0x23983121446796abc708825c8fd6c03c78f69e8f63610fe6613bc0432c7199ca",
      "blockNumber": 68990,
      "transactionIndex": 15,
      "confirmations": null,
      "from": "0x8960a86e1Beb7F40F4613b41b4b8eF10574cF714",
      "gasPrice": {
        "_hex": "0xba43b7400"
      },
      "gasLimit": {
        "_hex": "0x15f90"
      },
      "to": "0x793AE8C1b1a160BFc07BFB0d04F85eab1A71F4f2",
      "value": {
        "_hex": "0x0"
      },
      "nonce": 0,
      "data": "0x3ba15036",
      "r": "0x8471db80311968f96632b89f1c7cba4132887cd21321991ada40d71222ba98f0",
      "s": "0x5d01fbf99e1237ba3e44764923deeedc86e72d106ea3470e4f4bb5614d188d1d",
      "v": 28,
      "creates": null,
      "raw": "0xf86980850ba43b740083015f9094793ae8c1b1a160bfc07bfb0d04f85eab1a71f4f280843ba150361ca08471db80311968f96632b89f1c7cba4132887cd21321991ada40d71222ba98f0a05d01fbf99e1237ba3e44764923deeedc86e72d106ea3470e4f4bb5614d188d1d",
      "networkId": 0,
      "chainId": 0
    },
    {
      "hash": "0xb1508a514136886fdc9e3a250b4986fe81332acd3967c6a9e8342d82abd8f39e",
      "blockHash": "0x23983121446796abc708825c8fd6c03c78f69e8f63610fe6613bc0432c7199ca",
      "blockNumber": 68990,
      "transactionIndex": 16,
      "confirmations": null,
      "from": "0xb7a6086E070666B297bf77e5471d8Cc838655F7b",
      "gasPrice": {
        "_hex": "0xba43b7400"
      },
      "gasLimit": {
        "_hex": "0x15f90"
      },
      "to": "0x793AE8C1b1a160BFc07BFB0d04F85eab1A71F4f2",
      "value": {
        "_hex": "0x0"
      },
      "nonce": 0,
      "data": "0x3ba15036",
      "r": "0x037d630f7dd8aeb7f7d54a6727ee450710cf6e00a8f13eaec846d0eae5055ab6",
      "s": "0x4cc54a1d09f27cce35db5e1590a2a0518dcfc3fc7b4ec0c291df617b857b375e",
      "v": 27,
      "creates": null,
      "raw": "0xf86980850ba43b740083015f9094793ae8c1b1a160bfc07bfb0d04f85eab1a71f4f280843ba150361ba0037d630f7dd8aeb7f7d54a6727ee450710cf6e00a8f13eaec846d0eae5055ab6a04cc54a1d09f27cce35db5e1590a2a0518dcfc3fc7b4ec0c291df617b857b375e",
      "networkId": 0,
      "chainId": 0
    },
    {
      "hash": "0x8f49e1719d34dd11c8d14a6f1d3efee537ee8e289c5830c0536e08f1bad04c4b",
      "blockHash": "0x23983121446796abc708825c8fd6c03c78f69e8f63610fe6613bc0432c7199ca",
      "blockNumber": 68990,
      "transactionIndex": 17,
      "confirmations": null,
      "from": "0x52C7acB70804318f64F8915A5b5E4b3159650adD",
      "gasPrice": {
        "_hex": "0xba43b7400"
      },
      "gasLimit": {
        "_hex": "0x15f90"
      },
      "to": "0x793AE8C1b1a160BFc07BFB0d04F85eab1A71F4f2",
      "value": {
        "_hex": "0x0"
      },
      "nonce": 0,
      "data": "0x3ba15036",
      "r": "0x8cb782eda453cb7c80b43d61b3d42c5d9d95d68d2a89b64752fa8dfa6071f047",
      "s": "0x66869b5e9a8ba3a07a261e464255882bba951e39a4b17982a959a06d5b578b61",
      "v": 28,
      "creates": null,
      "raw": "0xf86980850ba43b740083015f9094793ae8c1b1a160bfc07bfb0d04f85eab1a71f4f280843ba150361ca08cb782eda453cb7c80b43d61b3d42c5d9d95d68d2a89b64752fa8dfa6071f047a066869b5e9a8ba3a07a261e464255882bba951e39a4b17982a959a06d5b578b61",
      "networkId": 0,
      "chainId": 0
    },
    {
      "hash": "0xc99935841e272b3bd7fcdbe3e06d82c9c3d248ff2e013bbd4ad3359c2b4097d7",
      "blockHash": "0x23983121446796abc708825c8fd6c03c78f69e8f63610fe6613bc0432c7199ca",
      "blockNumber": 68990,
      "transactionIndex": 18,
      "confirmations": null,
      "from": "0x525ABD9160d8BD844c85974Cc382318fBdc4d731",
      "gasPrice": {
        "_hex": "0xba43b7400"
      },
      "gasLimit": {
        "_hex": "0x15f90"
      },
      "to": "0x793AE8C1b1a160BFc07BFB0d04F85eab1A71F4f2",
      "value": {
        "_hex": "0x0"
      },
      "nonce": 0,
      "data": "0x3ba15036",
      "r": "0x039566278da3ecd58ce32fe2986fa88151da8d080d30e2bb8fe0060e02bcdae2",
      "s": "0x3d013d531bb60eac659b8cc6468cff75b1dbbf32acbe9172c68555d042e7dbcc",
      "v": 28,
      "creates": null,
      "raw": "0xf86980850ba43b740083015f9094793ae8c1b1a160bfc07bfb0d04f85eab1a71f4f280843ba150361ca0039566278da3ecd58ce32fe2986fa88151da8d080d30e2bb8fe0060e02bcdae2a03d013d531bb60eac659b8cc6468cff75b1dbbf32acbe9172c68555d042e7dbcc",
      "networkId": 0,
      "chainId": 0
    },
    {
      "hash": "0x0c7a5d2d6564edd3861264a7a3f26f36c9f16a033610ba5c7ea023d8614941eb",
      "blockHash": "0x23983121446796abc708825c8fd6c03c78f69e8f63610fe6613bc0432c7199ca",
      "blockNumber": 68990,
      "transactionIndex": 19,
      "confirmations": null,
      "from": "0xA2C0eCA659Ee6420c7882Db61597ca9D0D1e44A6",
      "gasPrice": {
        "_hex": "0xba43b7400"
      },
      "gasLimit": {
        "_hex": "0x15f90"
      },
      "to": "0x793AE8C1b1a160BFc07BFB0d04F85eab1A71F4f2",
      "value": {
        "_hex": "0x0"
      },
      "nonce": 0,
      "data": "0x3ba15036",
      "r": "0x4e2707d9a83d8e8c5fb27bc7ca1249bdbc8d1a6a347ba3bfb36451a619ef74fa",
      "s": "0x7e8dec0b730c3330ab041d0d8b3e6155906c910ab28fbb09e65665d726b32cc0",
      "v": 27,
      "creates": null,
      "raw": "0xf86980850ba43b740083015f9094793ae8c1b1a160bfc07bfb0d04f85eab1a71f4f280843ba150361ba04e2707d9a83d8e8c5fb27bc7ca1249bdbc8d1a6a347ba3bfb36451a619ef74faa07e8dec0b730c3330ab041d0d8b3e6155906c910ab28fbb09e65665d726b32cc0",
      "networkId": 0,
      "chainId": 0
    },
    {
      "hash": "0xfc35c8b695ff27502ba5b8ad04e9ef1308b86f3e93095a3b3e74bd292bd7ed46",
      "blockHash": "0x23983121446796abc708825c8fd6c03c78f69e8f63610fe6613bc0432c7199ca",
      "blockNumber": 68990,
      "transactionIndex": 20,
      "confirmations": null,
      "from": "0xfF7b96745B3F433D2019B0beCCfA24349482DF88",
      "gasPrice": {
        "_hex": "0xba43b7400"
      },
      "gasLimit": {
        "_hex": "0x15f90"
      },
      "to": "0x793AE8C1b1a160BFc07BFB0d04F85eab1A71F4f2",
      "value": {
        "_hex": "0x0"
      },
      "nonce": 0,
      "data": "0x3ba15036",
      "r": "0x6c9dc8b6ea2d02a38ebae4547c5318141949bf0d0aa46aabb2f6e51a0d289ba9",
      "s": "0x152461bec0a338d61759bfc4752ad357b902341274b221f540619ba71839ff89",
      "v": 27,
      "creates": null,
      "raw": "0xf86980850ba43b740083015f9094793ae8c1b1a160bfc07bfb0d04f85eab1a71f4f280843ba150361ba06c9dc8b6ea2d02a38ebae4547c5318141949bf0d0aa46aabb2f6e51a0d289ba9a0152461bec0a338d61759bfc4752ad357b902341274b221f540619ba71839ff89",
      "networkId": 0,
      "chainId": 0
    },
    {
      "hash": "0x93d2a931001b480414f2523eeb82acfaeb2cf270659d06d20ebf85c9590202a3",
      "blockHash": "0x23983121446796abc708825c8fd6c03c78f69e8f63610fe6613bc0432c7199ca",
      "blockNumber": 68990,
      "transactionIndex": 21,
      "confirmations": null,
      "from": "0xC6E69B70815e5CF5C19466822A8F08A570Fa9EB3",
      "gasPrice": {
        "_hex": "0xba43b7400"
      },
      "gasLimit": {
        "_hex": "0x15f90"
      },
      "to": "0x793AE8C1b1a160BFc07BFB0d04F85eab1A71F4f2",
      "value": {
        "_hex": "0x0"
      },
      "nonce": 0,
      "data": "0x3ba15036",
      "r": "0xf67936ea70f67569be1fd7090bcf18f63cc197aced82f01eec29cea983d193f6",
      "s": "0x0defd447edf5552c75bb119be55932faf1a0bf15c29c8c145f6a3dedf2ed80f1",
      "v": 28,
      "creates": null,
      "raw": "0xf86980850ba43b740083015f9094793ae8c1b1a160bfc07bfb0d04f85eab1a71f4f280843ba150361ca0f67936ea70f67569be1fd7090bcf18f63cc197aced82f01eec29cea983d193f6a00defd447edf5552c75bb119be55932faf1a0bf15c29c8c145f6a3dedf2ed80f1",
      "networkId": 0,
      "chainId": 0
    },
    {
      "hash": "0x6786ab3f2a28136d3cb0c11bc1ae8973d1d397842e8495953532ea293260aaf9",
      "blockHash": "0x23983121446796abc708825c8fd6c03c78f69e8f63610fe6613bc0432c7199ca",
      "blockNumber": 68990,
      "transactionIndex": 22,
      "confirmations": null,
      "from": "0xF30E3dc0553011c3327658Ec283c331B062fEc1f",
      "gasPrice": {
        "_hex": "0xba43b7400"
      },
      "gasLimit": {
        "_hex": "0x15f90"
      },
      "to": "0x793AE8C1b1a160BFc07BFB0d04F85eab1A71F4f2",
      "value": {
        "_hex": "0x0"
      },
      "nonce": 0,
      "data": "0x3ba15036",
      "r": "0xc4b22d88479116deb6ee6f09bae7ff258c09a079b3b697dd5aaa153e5c546566",
      "s": "0x661c0131abad508c4b167a83f9fe924040b02a24c164dc14cd8bb66a5eb711a8",
      "v": 27,
      "creates": null,
      "raw": "0xf86980850ba43b740083015f9094793ae8c1b1a160bfc07bfb0d04f85eab1a71f4f280843ba150361ba0c4b22d88479116deb6ee6f09bae7ff258c09a079b3b697dd5aaa153e5c546566a0661c0131abad508c4b167a83f9fe924040b02a24c164dc14cd8bb66a5eb711a8",
      "networkId": 0,
      "chainId": 0
    }
  ]
}