{
  "hash": "0x1fc2900802d5ae1b19a8febd834617cff1f2c1f5e4ca09bc8689e9d24da89608",
  "parentHash": "0xc6924902c6906ecd3c5db4fc140954107d77de69010f7764b94f92c6ce5a9967",
  "number": 55845,
  "timestamp": 1439077945,
  "nonce": "0x6a8cbe40542c9bf8",
  "difficulty": 1612306764479,
  "gasLimit": {
    "_hex": "0x2fefd5"
  },
  "gasUsed": {
    "_hex": "0x565d"
  },
  "miner": "0xEF247E639d49461D25F57e9362CadE3120910Ce0",
  "extraData": "0x476574682f76312e302e312f6c696e75782f676f312e342e32",
  "transactions": [
    {
      "hash": "0x2445341653d6ee360c09af2014d1f69b8ecebf9285668de9ff7541bc1b97fa85",
      "blockHash": "0x1fc2900802d5ae1b19a8febd834617cff1f2c1f5e4ca09bc8689e9d24da89608",
      "blockNumber": 55845,
      "transactionIndex": 0,
      "confirmations": null,
      "from": "0xFD2605a2bF58fDbB90db1Da55dF61628B47F9e8c",
      "gasPrice": {
        "_hex": "0xdb7e0c91d"
      },
      "gasLimit": {
        "_hex": "0x186a0"
      },
      "to": "0x7573ACa378B8417623caD233954fdE810CaD9fB4",
      "value": {
        "_hex": "0x0"
      },
      "nonce": 20,
      "data": "0x5e0572a7000000000000000000000000000000000000000000000000000000005ebf87f3",
      "r": "0x557f9df7af0901904804297df5c17bd9029d2560f7d2ca529d8b415f3903f763",
      "s": "0x3df388756fcc719575e55ebd30476ceaf10696b5790a47e0111382c8167cb2c4",
      "v": 28,
      "creates": null,
      "raw": "0xf88914850db7e0c91d830186a0947573aca378b8417623cad233954fde810cad9fb480a45e0572a7000000000000000000000000000000000000000000000000000000005ebf87f31ca0557f9df7af0901904804297df5c17bd9029d2560f7d2ca529d8b415f3903f763a03df388756fcc719575e55ebd30476ceaf10696b5790a47e0111382c8167cb2c4",
      "networkId": 0,
      "chainId": 0
    }
  ]
}