{
  "hash": "0x73a5e0326259af0433fea4a4f4c50e0a1d9415b019bff24f0044112c4bf3a92b",
  "parentHash": "0x5f5df7d6eb591e732f086d392b90548c6719ac49e004ac3afefaca74a5027a48",
  "number": 112774,
  "timestamp": 1440012953,
  "nonce": "0x08f432a901b4600d",
  "difficulty": 4445425698444,
  "gasLimit": {
    "_hex": "0x2fefd8"
  },
  "gasUsed": {
    "_hex": "0xf618"
  },
  "miner": "0x790b8a3cE86E707ED0eD32bF89B3269692a23CC1",
  "extraData": "0xd783010001844765746887676f312e342e32856c696e7578",
  "transactions": [
    {
      "hash": "0xfdfe9e195eedf8c88cc6bbf4fd964ddc8aefb5fe085ecb86c8b84dc8408ac896",
      "blockHash": "0x73a5e0326259af0433fea4a4f4c50e0a1d9415b019bff24f0044112c4bf3a92b",
      "blockNumber": 112774,
      "transactionIndex": 0,
      "confirmations": null,
      "from": "0xEa4933866ad977Ce24bBb244ECc2C79463454Fe4",
      "gasPrice": {
        "_hex": "0xd4f383925"
      },
      "gasLimit": {
        "_hex": "0x5208"
      },
      "to": "0x32Be343B94f860124dC4fEe278FDCBD38C102D88",
      "value": {
        "_hex": "0x1ccb262b20346800"
      },
      "nonce": 6,
      "data": "0x",
      "r": "0xb13400a0a015a5f777a1fee1a906f8bea19aa8b40782d0756c9e2161f13b5e06",
      "s": "0x6b7dbf75f4a4458210054c4d1110a1d27a98146e7e9dea014efc64d932017d74",
      "v": 28,
      "creates": null,
      "raw": "0xf86c06850d4f3839258252089432be343b94f860124dc4fee278fdcbd38c102d88881ccb262b20346800801ca0b13400a0a015a5f777a1fee1a906f8bea19aa8b40782d0756c9e2161f13b5e06a06b7dbf75f4a4458210054c4d1110a1d27a98146e7e9dea014efc64d932017d74",
      "networkId": 0,
      "chainId": 0
    },
    {
      "hash": "0xa16b50aa3320717957c6f677e00e6cbda530c9e49fd215bf1811638c7c5239cd",
      "blockHash": "0x73a5e0326259af0433fea4a4f4c50e0a1d9415b019bff24f0044112c4bf3a92b",
      "blockNumber": 112774,
      "transactionIndex": 1,
      "confirmations": null,
      "from": "0x8C37447a7930187595EC51FEA6f749C4F8a96cD4",
      "gasPrice": {
        "_hex": "0xd4f383925"
      },
      "gasLimit": {
        "_hex": "0x5208"
      },
      "to": "0x32Be343B94f860124dC4fEe278FDCBD38C102D88",
      "value": {
        "_hex": "0xbb9dc5ed6f38a000"
      },
      "nonce": 10,
      "data": "0x",
      "r": "0x4cea21804380d25daafc62fa234fee4972bdd79d9b2959ff61f392f9916538ac",
      "s": "0x747484b1f520d80fc01b030ef71ede6745c661b8a308d87db0c8931cff8944c0",
      "v": 28,
      "creates": null,
      "raw": "0xf86c0a850d4f3839258252089432be343b94f860124dc4fee278fdcbd38c102d8888bb9dc5ed6f38a000801ca04cea21804380d25daafc62fa234fee4972bdd79d9b2959ff61f392f9916538aca0747484b1f520d80fc01b030ef71ede6745c661b8a308d87db0c8931cff8944c0",
      "networkId": 0,
      "chainId": 0
    },
    {
      "hash": "0xb699d9bc2931b54fe1fc23154606f0a9330f8e49148a4dca0df24b16b13f3d82",
      "blockHash": "0x73a5e0326259af0433fea4a4f4c50e0a1d9415b019bff24f0044112c4bf3a92b",
      "blockNumber": 112774,
      "transactionIndex": 2,
      "confirmations": null,
      "from": "0xFCb0b0382b155BE6Dd68dcdB7f29d2366D1C7502",
      "gasPrice": {
        "_hex": "0xd4f383925"
      },
      "gasLimit": {
        "_hex": "0x5208"
      },
      "to": "0x32Be343B94f860124dC4fEe278FDCBD38C102D88",
      "value": {
        "_hex": "0x23fa2a4babe58000"
      },
      "nonce": 6,
      "data": "0x",
      "r": "0x1903d5f15dfec6dcae2e2dea3de6c3729d899f6093dc277770bd2a2dbb4297f8",
      "s": "0x35a8e7cdd3951a15502399233923aa7773fbf3e122eabe569aadfb6df4b7748a",
      "v": 27,
      "creates": null,
      "raw": "0xf86c06850d4f3839258252089432be343b94f860124dc4fee278fdcbd38c102d888823fa2a4babe58000801ba01903d5f15dfec6dcae2e2dea3de6c3729d899f6093dc277770bd2a2dbb4297f8a035a8e7cdd3951a15502399233923aa7773fbf3e122eabe569aadfb6df4b7748a",
      "networkId": 0,
      "chainId": 0
    }
  ]
}