{
  "hash": "0xd91595b71b9292447f1889b33a067fb19ef9d06fbd01a4753da9cc72f5fc51c8",
  "parentHash": "0x2ec9fb6c1fbf74352790660545ac26025b9ca74215341d008234f27a850dc75f",
  "number": 115325,
  "timestamp": 1440055295,
  "nonce": "0xfcc035ec2cae66fb",
  "difficulty": 4551684183858,
  "gasLimit": {
    "_hex": "0x2fefd8"
  },
  "gasUsed": {
    "_hex": "0xa410"
  },
  "miner": "0x35e8e5dC5FBd97c5b421A80B596C030a2Be2A04D",
  "extraData": "0x476574682f76312e302e312f6c696e75782f676f312e342e32",
  "transactions": [
    {
      "hash": "0xd581a6349151281b6002c89050bfd71b69b3ae214a56370ad356ed45abe31077",
      "blockHash": "0xd91595b71b9292447f1889b33a067fb19ef9d06fbd01a4753da9cc72f5fc51c8",
      "blockNumber": 115325,
      "transactionIndex": 0,
      "confirmations": null,
      "from": "0x9B7280891dc19fd3A2e754cB9007203820650403",
      "gasPrice": {
        "_hex": "0xd7c9e3a43"
      },
      "gasLimit": {
        "_hex": "0x5208"
      },
      "to": "0x32Be343B94f860124dC4fEe278FDCBD38C102D88",
      "value": {
        "_hex": "0xc91f880e17195000"
      },
      "nonce": 11,
      "data": "0x",
      "r": "0x87747cf512aa840686e0392e0f7b9bcdf3c723c1024c09da6e16aa2967f194fe",
      "s": "0x0de3fc9cdd6164674b603d624a0ba1ca11cdc74c5d8f6d0ac648e1ceecf293a6",
      "v": 28,
      "creates": null,
      "raw": "0xf86c0b850d7c9e3a438252089432be343b94f860124dc4fee278fdcbd38c102d8888c91f880e17195000801ca087747cf512aa840686e0392e0f7b9bcdf3c723c1024c09da6e16aa2967f194fea00de3fc9cdd6164674b603d624a0ba1ca11cdc74c5d8f6d0ac648e1ceecf293a6",
      "networkId": 0,
      "chainId": 0
    },
    {
      "hash": "0x38164d6cc6f76794db0a7ec2f49fb7b7f772b2253665f6d9e5abca7fa7b24ce3",
      "blockHash": "0xd91595b71b9292447f1889b33a067fb19ef9d06fbd01a4753da9cc72f5fc51c8",
      "blockNumber": 115325,
      "transactionIndex": 1,
      "confirmations": null,
      "from": "0x0dd48f729D5084545452A08F5E5AB412d7c2888a",
      "gasPrice": {
        "_hex": "0xcd01555c5"
      },
      "gasLimit": {
        "_hex": "0x15f90"
      },
      "to": "0x2533B90f7afF15196EaA7e4719E057c85dEF3A47",
      "value": {
        "_hex": "0x144767220a0a20000"
      },
      "nonce": 6,
      "data": "0x",
      "r": "0x3dd7d515da82e46149c9bf52b054041446440a8c590359a65a3a11676c558764",
      "s": "0x16828e2574bb2158b68492c7f282160020203c28bedf52a8e2957d82c59ecbce",
      "v": 28,
      "creates": null,
      "raw": "0xf86e06850cd01555c583015f90942533b90f7aff15196eaa7e4719e057c85def3a47890144767220a0a20000801ca03dd7d515da82e46149c9bf52b054041446440a8c590359a65a3a11676c558764a016828e2574bb2158b68492c7f282160020203c28bedf52a8e2957d82c59ecbce",
      "networkId": 0,
      "chainId": 0
    }
  ]
}