{
  "hash": "0x30b97cbcab7c237f4582ed1d477fb78a588aba72ef84db579a73ffb84bdc5477",
  "parentHash": "0x1fe73d9f394d633f0355cbe75ac1164169b6b9a98da25f592cc22814224d2469",
  "number": 91890,
  "timestamp": 1439663296,
  "nonce": "0xcefe3b9bceb133a8",
  "difficulty": 3474121858288,
  "gasLimit": {
    "_hex": "0x2fefd8"
  },
  "gasUsed": {
    "_hex": "0x5208"
  },
  "miner": "0xe6A7a1d47ff21B6321162AEA7C6CB457D5476Bca",
  "extraData": "0x476574682f76312e302e312d38326566323666362f6c696e75782f676f312e34",
  "transactions": [
    {
      "hash": "0x0bdc90d7bcb72545d12975faa38758850b9cba62d15af9f944accab1af226191",
      "blockHash": "0x30b97cbcab7c237f4582ed1d477fb78a588aba72ef84db579a73ffb84bdc5477",
      "blockNumber": 91890,
      "transactionIndex": 0,
      "confirmations": null,
      "from": "0xA80A8ecbF729C98404eE20b39945Ad8DEBd08C61",
      "gasPrice": {
        "_hex": "0xdc5140ad0"
      },
      "gasLimit": {
        "_hex": "0x15f90"
      },
      "to": "0xd001423ff4428020C98CE20ff5E69814A1a196cE",
      "value": {
        "_hex": "0xb1a2bc2ec50000"
      },
      "nonce": 0,
      "data": "0x",
      "r": "0x1ea42bf4f969e75135e1d543477c7f516e2f10048a56bb1b3591ddace55f2c97",
      "s": "0x27906995d3207ca328e192ef825a1b4fa8ac4c9754caa66e08283b36b7e7add3",
      "v": 28,
      "creates": null,
      "raw": "0xf86c80850dc5140ad083015f9094d001423ff4428020c98ce20ff5e69814a1a196ce87b1a2bc2ec50000801ca01ea42bf4f969e75135e1d543477c7f516e2f10048a56bb1b3591ddace55f2c97a027906995d3207ca328e192ef825a1b4fa8ac4c9754caa66e08283b36b7e7add3",
      "networkId": 0,
      "chainId": 0
    }
  ]
}