{
  "hash": "0xc894d34c68337408c09df0302bd09c7a6351d7805dacc361fbfe414033b73fbb",
  "parentHash": "0x4c6c3a3e7d5c941008ebbb5bfdc156987f49ccf89466fee24f1abf696aa736ab",
  "number": 99943,
  "timestamp": 1439798108,
  "nonce": "0x967a73710d027cbc",
  "difficulty": 3851203382697,
  "gasLimit": {
    "_hex": "0x2fefd8"
  },
  "gasUsed": {
    "_hex": "0xf618"
  },
  "miner": "0x007f7f58D3eb5b7510A301eCC749FC1fCDDBE14D",
  "extraData": "0x476574682f76312e302e312f77696e646f77732f676f312e342e32",
  "transactions": [
    {
      "hash": "0x104b71cdb0033ac6e30d3b4dae6d301157a6e63596f57edef3771fafdf979ced",
      "blockHash": "0xc894d34c68337408c09df0302bd09c7a6351d7805dacc361fbfe414033b73fbb",
      "blockNumber": 99943,
      "transactionIndex": 0,
      "confirmations": null,
      "from": "0xe6A7a1d47ff21B6321162AEA7C6CB457D5476Bca",
      "gasPrice": {
        "_hex": "0xd03a35a27"
      },
      "gasLimit": {
        "_hex": "0x55f0"
      },
      "to": "0x83467Bcd87d0E6b641A9c2868e63Cb239adf1dc4",
      "value": {
        "_hex": "0xde5d8fc96df9b5c"
      },
      "nonce": 3025,
      "data": "0x",
      "r": "0x5febe5642d6de159d054195fe53ae8478aa5c984c71945dcaa56d8243e02eff8",
      "s": "0x6a814a8e23334f488dce61423ac68c7ae98c8010621c0b67b6809d745771250a",
      "v": 27,
      "creates": null,
      "raw": "0xf86e820bd1850d03a35a278255f09483467bcd87d0e6b641a9c2868e63cb239adf1dc4880de5d8fc96df9b5c801ba05febe5642d6de159d054195fe53ae8478aa5c984c71945dcaa56d8243e02eff8a06a814a8e23334f488dce61423ac68c7ae98c8010621c0b67b6809d745771250a",
      "networkId": 0,
      "chainId": 0
    },
    {
      "hash": "0x408ff09a150503dbf62d66c34139884d0ecf5a04a475742946ce6995336c258b",
      "blockHash": "0xc894d34c68337408c09df0302bd09c7a6351d7805dacc361fbfe414033b73fbb",
      "blockNumber": 99943,
      "transactionIndex": 1,
      "confirmations": null,
      "from": "0xe6A7a1d47ff21B6321162AEA7C6CB457D5476Bca",
      "gasPrice": {
        "_hex": "0xd03a35a27"
      },
      "gasLimit": {
        "_hex": "0x55f0"
      },
      "to": "0x45fe0E379195681d4C1002eA4Def348C19a320df",
      "value": {
        "_hex": "0xdea875fe394baac"
      },
      "nonce": 3026,
      "data": "0x",
      "r": "0x2d61d52782fdbb9626f74741cf4743b3ce32b1b11bbc25fc57072fc1a83e5187",
      "s": "0x6b99057f6e4e64102118dd2cb8134aa3372b674a68e4443771dcb4838545413a",
      "v": 28,
      "creates": null,
      "raw": "0xf86e820bd2850d03a35a278255f09445fe0e379195681d4c1002ea4def348c19a320df880dea875fe394baac801ca02d61d52782fdbb9626f74741cf4743b3ce32b1b11bbc25fc57072fc1a83e5187a06b99057f6e4e64102118dd2cb8134aa3372b674a68e4443771dcb4838545413a",
      "networkId": 0,
      "chainId": 0
    },
    {
      "hash": "0x29f8602f6eb313e6c58374550e3b2ab60ac564a2c9d85d85d65032f8ea60dfe4",
      "blockHash": "0xc894d34c68337408c09df0302bd09c7a6351d7805dacc361fbfe414033b73fbb",
      "blockNumber": 99943,
      "transactionIndex": 2,
      "confirmations": null,
      "from": "0xe6A7a1d47ff21B6321162AEA7C6CB457D5476Bca",
      "gasPrice": {
        "_hex": "0xd03a35a27"
      },
      "gasLimit": {
        "_hex": "0x55f0"
      },
      "to": "0x834e9B529AC9Fa63B39A06f8D8C9B0D6791FA5dF",
      "value": {
        "_hex": "0xe035ce154092fec"
      },
      "nonce": 3027,
      "data": "0x",
      "r": "0x0c05644552f45cb9fbe20ac718d6ee6e274c7a426b260c3e359486f219c016d1",
      "s": "0x10b0aad66cbe3f67cabd4203918ba64f8f65bd6d08e65afcc098e03a4edff5d0",
      "v": 27,
      "creates": null,
      "raw": "0xf86e820bd3850d03a35a278255f094834e9b529ac9fa63b39a06f8d8c9b0d6791fa5df880e035ce154092fec801ba00c05644552f45cb9fbe20ac718d6ee6e274c7a426b260c3e359486f219c016d1a010b0aad66cbe3f67cabd4203918ba64f8f65bd6d08e65afcc098e03a4edff5d0",
      "networkId": 0,
      "chainId": 0
    }
  ]
}