{
  "hash": "0x741614f0a7d969c58b24a24e0ece6a98e8638c8356b48336a5059718114c1186",
  "parentHash": "0xdf0ff086d52272c36221532c55f9d9089326e36bc8e7e29469ff1472ec9b8ae3",
  "number": 73452,
  "timestamp": 1439369663,
  "nonce": "0xa9f4d549f76d6230",
  "difficulty": 2200215509185,
  "gasLimit": {
    "_hex": "0x2fefd5"
  },
  "gasUsed": {
    "_hex": "0x5208"
  },
  "miner": "0x9746c7e1ef2bd21FF3997fa467593a89cb852BD0",
  "extraData": "0x476574682f76312e302e312f77696e646f77732f676f312e342e32",
  "transactions": [
    {
      "hash": "0x3cf6cc05ede50d252d625adc29d0b7f429c33dddd348a3a02a3c5549fa207759",
      "blockHash": "0x741614f0a7d969c58b24a24e0ece6a98e8638c8356b48336a5059718114c1186",
      "blockNumber": 73452,
      "transactionIndex": 0,
      "confirmations": null,
      "from": "0xECe1152682b7598FE2d1E21eC15533885435Ac85",
      "gasPrice": {
        "_hex": "0xd7d40ace3"
      },
      "gasLimit": {
        "_hex": "0x15f90"
      },
      "to": "0xe3A29c590ae7Bf0D32A7121373bf5C94ADbeCa4a",
      "value": {
        "_hex": "0x56bc75e2d63100000"
      },
      "nonce": 0,
      "data": "0x",
      "r": "0xc7edf8cac5bf6b6e40507631e928328d0f0cfcb429ae73d7f558b51fd60b67d6",
      "s": "0x3d3dbcfe0c5197fbf6c3758159ad4620c2d744ace3aff367a68aeb62d9828e3e",
      "v": 28,
      "creates": null,
      "raw": "0xf86e80850d7d40ace383015f9094e3a29c590ae7bf0d32a7121373bf5c94adbeca4a89056bc75e2d63100000801ca0c7edf8cac5bf6b6e40507631e928328d0f0cfcb429ae73d7f558b51fd60b67d6a03d3dbcfe0c5197fbf6c3758159ad4620c2d744ace3aff367a68aeb62d9828e3e",
      "networkId": 0,
      "chainId": 0
    }
  ]
}