{
  "hash": "0x00710a9bede3992b0fd8af45b0b30e74154210e316d08799f37ea652e3097860",
  "parentHash": "0x02044c2ea15460af73a859599ebcda41e886b6c7146453fcad22728598665b8a",
  "number": 73044,
  "timestamp": 1439362212,
  "nonce": "0x4b457f960ec73cbc",
  "difficulty": 2226259232249,
  "gasLimit": {
    "_hex": "0x2fefd8"
  },
  "gasUsed": {
    "_hex": "0x5208"
  },
  "miner": "0x7E6930B63D03e88F5928C5cd6ee3FCee4D714F7F",
  "extraData": "0x",
  "transactions": [
    {
      "hash": "0xae7cf8bf77946b74b2cbfe263af49093796d535c52cb7aa7e322bc1539ed5872",
      "blockHash": "0x00710a9bede3992b0fd8af45b0b30e74154210e316d08799f37ea652e3097860",
      "blockNumber": 73044,
      "transactionIndex": 0,
      "confirmations": null,
      "from": "0x79d5794171E11dd5C2f0e26E1C187319db2FE6f7",
      "gasPrice": {
        "_hex": "0xd565e9832"
      },
      "gasLimit": {
        "_hex": "0x5208"
      },
      "to": "0x32Be343B94f860124dC4fEe278FDCBD38C102D88",
      "value": {
        "_hex": "0x455f40b592c23800"
      },
      "nonce": 16,
      "data": "0x",
      "r": "0x470f1ff036f71e8fa446200296bc1c61ffe6086ebc899f4b361fe3ac477d2e01",
      "s": "0x6ed74669828a7bb672e4a66fa989f86d060cfbb1303180d647b5b2f0fd2e051a",
      "v": 27,
      "creates": null,
      "raw": "0xf86c10850d565e98328252089432be343b94f860124dc4fee278fdcbd38c102d8888455f40b592c23800801ba0470f1ff036f71e8fa446200296bc1c61ffe6086ebc899f4b361fe3ac477d2e01a06ed74669828a7bb672e4a66fa989f86d060cfbb1303180d647b5b2f0fd2e051a",
      "networkId": 0,
      "chainId": 0
    }
  ]
}