{
  "hash": "0x6235be352481368721cd978cee3c1e05ce31419b0e353ac7d67eb35c549b6a4e",
  "parentHash": "0x15b5ba0b97c879e8d44c316da66b5fe5cdcd5a4b2698b760ec313eae328a3430",
  "number": 46214,
  "timestamp": 1438919394,
  "nonce": "0x8145fcb3e251a8cd",
  "difficulty": 1456136476803,
  "gasLimit": {
    "_hex": "0x54fc"
  },
  "gasUsed": {
    "_hex": "0x54f4"
  },
  "miner": "0xbb7B8287f3F0a933474a79eAe42CBCa977791171",
  "extraData": "0x476574682f4c5649562f76312e302e312f6c696e75782f676f312e342e32",
  "transactions": [
    {
      "hash": "0xe17d4d0c4596ea7d5166ad5da600a6fdc49e26e0680135a2f7300eedfd0d8314",
      "blockHash": "0x6235be352481368721cd978cee3c1e05ce31419b0e353ac7d67eb35c549b6a4e",
      "blockNumber": 46214,
      "transactionIndex": 0,
      "confirmations": null,
      "from": "0xA1E4380A3B1f749673E270229993eE55F35663b4",
      "gasPrice": {
        "_hex": "0x2d79883d2000"
      },
      "gasLimit": {
        "_hex": "0x54f6"
      },
      "to": "0xc9D4035F4A9226D50f79b73Aafb5d874a1B6537e",
      "value": {
        "_hex": "0x7a69"
      },
      "nonce": 1,
      "data": "0x74796d3474406469676978",
      "r": "0x1c48defe76d367bb92b4fc0628aca42a4d8037062865635d955673e57eddfbfa",
      "s": "0x65f766849f97b15f01d0877636fbed0fa4e39f8834896c0354f56ac44dcb50a6",
      "v": 28,
      "creates": null,
      "raw": "0xf87201862d79883d20008254f694c9d4035f4a9226d50f79b73aafb5d874a1b6537e827a698b74796d34744064696769781ca01c48defe76d367bb92b4fc0628aca42a4d8037062865635d955673e57eddfbfaa065f766849f97b15f01d0877636fbed0fa4e39f8834896c0354f56ac44dcb50a6",
      "networkId": 0,
      "chainId": 0
    }
  ]
}