{
  "hash": "0xe6daf124ac530c9a7526984d9e6f0a4d27c3acfc09bf3879bd2ede8b1e641d1f",
  "parentHash": "0x9f735c8dcae7040e125ca43c6b4b85f01173bf6ae10d70a17058ba5588d50138",
  "number": 68434,
  "timestamp": 1439287847,
  "nonce": "0x16077780ab22c666",
  "difficulty": 2010398953890,
  "gasLimit": {
    "_hex": "0x2fefd8"
  },
  "gasUsed": {
    "_hex": "0x133c9c"
  },
  "miner": "0x47ff6576639c2e94762eA5443978D7681C0E78DC",
  "extraData": "0x476574682f76312e302e312f6c696e75782f676f312e342e32",
  "transactions": [
    {
      "hash": "0xe4541dcc8da04dbb953f6f829a87c3a33682648e8fb656410e89d33f7871beef",
      "blockHash": "0xe6daf124ac530c9a7526984d9e6f0a4d27c3acfc09bf3879bd2ede8b1e641d1f",
      "blockNumber": 68434,
      "transactionIndex": 0,
      "confirmations": null,
      "from": "0x3C7C43b14DA4A055BE428987A690D3F2B338228c",
      "gasPrice": {
        "_hex": "0xba43b7400"
      },
      "gasLimit": {
        "_hex": "0x15f90"
      },
      "to": "0x793AE8C1b1a160BFc07BFB0d04F85eab1A71F4f2",
      "value": {
        "_hex": "0x0"
      },
      "nonce": 0,
      "data": "0x3ba15036",
      "r": "0x8d72b83359197ae2bd653c6fc4f08ac30845f51a7450bde8a44340f4d11b50bd",
      "s": "0x6396ecde2ee498fdfc7b55566fc5e8358054bdc9248081532df3d59f476e3db7",
      "v": 28,
      "creates": null,
      "raw": "0xf86980850ba43b740083015f9094793ae8c1b1a160bfc07bfb0d04f85eab1a71f4f280843ba150361ca08d72b83359197ae2bd653c6fc4f08ac30845f51a7450bde8a44340f4d11b50bda06396ecde2ee498fdfc7b55566fc5e8358054bdc9248081532df3d59f476e3db7",
      "networkId": 0,
      "chainId": 0
    },
    {
      "hash": "0x2ea86a724db33ad6fef91bb6a407fcfbc83b6d06c8b5624fa29676b4eba52698",
      "blockHash": "0xe6daf124ac530c9a7526984d9e6f0a4d27c3acfc09bf3879bd2ede8b1e641d1f",
      "blockNumber": 68434,
      "transactionIndex": 1,
      "confirmations": null,
      "from": "0x6c83B3f5c405E3De531aEc9541F146786a30AC6F",
      "gasPrice": {
        "_hex": "0xba43b7400"
      },
      "gasLimit": {
        "_hex": "0x15f90"
      },
      "to": "0x793AE8C1b1a160BFc07BFB0d04F85eab1A71F4f2",
      "value": {
        "_hex": "0x0"
      },
      "nonce": 0,
      "data": "0x3ba15036",
      "r": "0x4b19754a64b090eb0340e2cd1173410a1e19be5c418d96547b9d5ae98d6b3f3c",
      "s": "0x20d4c5e8d789ac36eb5c1c2749ef1f2c076238234509a5960e75f8f9b6530dc6",
      "v": 27,
      "creates": null,
      "raw": "0xf86980850ba43b740083015f9094793ae8c1b1a160bfc07bfb0d04f85eab1a71f4f280843ba150361ba04b19754a64b090eb0340e2cd1173410a1e19be5c418d96547b9d5ae98d6b3f3ca020d4c5e8d789ac36eb5c1c2749ef1f2c076238234509a5960e75f8f9b6530dc6",
      "networkId": 0,
      "chainId": 0
    },
    {
      "hash": "0x6a8ceae98d56ad7fd423b6794f8d336db68684e69fd3769a4717f1f8b2785d25",
      "blockHash": "0xe6daf124ac530c9a7526984d9e6f0a4d27c3acfc09bf3879bd2ede8b1e641d1f",
      "blockNumber": 68434,
      "transactionIndex": 2,
      "confirmations": null,
      "from": "0xb1792f5E416e5B3C7C4940C53C3de3357D5a366C",
      "gasPrice": {
        "_hex": "0xba43b7400"
      },
      "gasLimit": {
        "_hex": "0x15f90"
      },
      "to": "0x793AE8C1b1a160BFc07BFB0d04F85eab1A71F4f2",
      "value": {
        "_hex": "0x0"
      },
      "nonce": 0,
      "data": "0x3ba15036",
      "r": "0x292d0c4ce37898ae0c532e323580fe54d3b979b7538010b7f46bc54182ca2acc",
      "s": "0x1992e0dfeabb649c0ff24fa0187962264417495b93ce3f30aefce6d5c27c965e",
      "v": 28,
      "creates": null,
      "raw": "0xf86980850ba43b740083015f9094793ae8c1b1a160bfc07bfb0d04f85eab1a71f4f280843ba150361ca0292d0c4ce37898ae0c532e323580fe54d3b979b7538010b7f46bc54182ca2acca01992e0dfeabb649c0ff24fa0187962264417495b93ce3f30aefce6d5c27c965e",
      "networkId": 0,
      "chainId": 0
    },
    {
      "hash": "0x183458ae1ebf67ae1be5dad36a34d520595b8e3cf56d7d14ccdb905d0b1231fb",
      "blockHash": "0xe6daf124ac530c9a7526984d9e6f0a4d27c3acfc09bf3879bd2ede8b1e641d1f",
      "blockNumber": 68434,
      "transactionIndex": 3,
      "confirmations": null,
      "from": "0x3d8b48f50F63FC839A2Ee90280492Dfaa293FB60",
      "gasPrice": {
        "_hex": "0xba43b7400"
      },
      "gasLimit": {
        "_hex": "0x15f90"
      },
      "to": "0x793AE8C1b1a160BFc07BFB0d04F85eab1A71F4f2",
      "value": {
        "_hex": "0x0"
      },
      "nonce": 0,
      "data": "0x3ba15036",
      "r": "0xb0177b68b1709604918494b35b0ab7c37fd6f5eeccd2d7fe90df64e2feb607c8",
      "s": "0x147fe30c812a2eeb1fff3d607ccb4a063afd6b63a8545db4bab48c14f2c96097",
      "v": 28,
      "creates": null,
      "raw": "0xf86980850ba43b740083015f9094793ae8c1b1a160bfc07bfb0d04f85eab1a71f4f280843ba150361ca0b0177b68b1709604918494b35b0ab7c37fd6f5eeccd2d7fe90df64e2feb607c8a0147fe30c812a2eeb1fff3d607ccb4a063afd6b63a8545db4bab48c14f2c96097",
      "networkId": 0,
      "chainId": 0
    },
    {
      "hash": "0x17446f82ff33b1be79a5d49bf447054a24b17dd04e14fe2fdf07365def765503",
      "blockHash": "0xe6daf124ac530c9a7526984d9e6f0a4d27c3acfc09bf3879bd2ede8b1e641d1f",
      "blockNumber": 68434,
      "transactionIndex": 4,
      "confirmations": null,
      "from": "0x82D7a28615b4B7629b36d67c18780d4C0AC9e13B",
      "gasPrice": {
        "_hex": "0xba43b7400"
      },
      "gasLimit": {
        "_hex": "0x15f90"
      },
      "to": "0x793AE8C1b1a160BFc07BFB0d04F85eab1A71F4f2",
      "value": {
        "_hex": "0x0"
      },
      "nonce": 0,
      "data": "0x3ba15036",
      "r": "0x393491a6d8da025767d8c9dd4c97f6398f21fbf151e2f0145a0adaa064db654d",
      "s": "0x76e620afe8fbb4c48b9d4aa6b19ede0bdeca04d4cd286ff8a589aae2dcbc1c89",
      "v": 28,
      "creates": null,
      "raw": "0xf86980850ba43b740083015f9094793ae8c1b1a160bfc07bfb0d04f85eab1a71f4f280843ba150361ca0393491a6d8da025767d8c9dd4c97f6398f21fbf151e2f0145a0adaa064db654da076e620afe8fbb4c48b9d4aa6b19ede0bdeca04d4cd286ff8a589aae2dcbc1c89",
      "networkId": 0,
      "chainId": 0
    },
    {
      "hash": "0x9f697852b9d8935de07703fc0856c53cc532aad94412dc37f6c151ba46068e11",
      "blockHash": "0xe6daf124ac530c9a7526984d9e6f0a4d27c3acfc09bf3879bd2ede8b1e641d1f",
      "blockNumber": 68434,
      "transactionIndex": 5,
      "confirmations": null,
      "from": "0xa82BBbD8753802A71617ab947229F8681E05deA0",
      "gasPrice": {
        "_hex": "0xba43b7400"
      },
      "gasLimit": {
        "_hex": "0x15f90"
      },
      "to": "0x793AE8C1b1a160BFc07BFB0d04F85eab1A71F4f2",
      "value": {
        "_hex": "0x0"
      },
      "nonce": 0,
      "data": "0x3ba15036",
      "r": "0xfedc34537cefc04747c23dc5e0448c80f5970ce38e022a12bcad9584d965cb54",
      "s": "0x795da48d846c65bb7503e9134469e84fca1406af489e66bf8d4e8bcf2cc46318",
      "v": 27,
      "creates": null,
      "raw": "0xf86980850ba43b740083015f9094793ae8c1b1a160bfc07bfb0d04f85eab1a71f4f280843ba150361ba0fedc34537cefc04747c23dc5e0448c80f5970ce38e022a12bcad9584d965cb54a0795da48d846c65bb7503e9134469e84fca1406af489e66bf8d4e8bcf2cc46318",
      "networkId": 0,
      "chainId": 0
    },
    {
      "hash": "0x86eeb98478bfa6015d1b4e31174347cb81aa0dea4ab160fda250fdee37c2725c",
      "blockHash": "0xe6daf124ac530c9a7526984d9e6f0a4d27c3acfc09bf3879bd2ede8b1e641d1f",
      "blockNumber": 68434,
      "transactionIndex": 6,
      "confirmations": null,
      "from": "0x3811Cff8d1F549e8f080942519fd44706921573D",
      "gasPrice": {
        "_hex": "0xba43b7400"
      },
      "gasLimit": {
        "_hex": "0x15f90"
      },
      "to": "0x793AE8C1b1a160BFc07BFB0d04F85eab1A71F4f2",
      "value": {
        "_hex": "0x0"
      },
      "nonce": 0,
      "data": "0x3ba15036",
      "r": "0x4ee5506de1d41b23749a35d91d44e08067ce3b5c3122f31196324c2a1b98c20e",
      "s": "0x0a83dfe0460274748abb68f1a0ec851312459e36fb0c206f0a3f4a6d0a7dd74e",
      "v": 28,
      "creates": null,
      "raw": "0xf86980850ba43b740083015f9094793ae8c1b1a160bfc07bfb0d04f85eab1a71f4f280843ba150361ca04ee5506de1d41b23749a35d91d44e08067ce3b5c3122f31196324c2a1b98c20ea00a83dfe0460274748abb68f1a0ec851312459e36fb0c206f0a3f4a6d0a7dd74e",
      "networkId": 0,
      "chainId": 0
    },
    {
      "hash": "0xb92337381d00dd2898853e276d12889acce15af1d9c72bbd90ffb6f28d1d095e",
      "blockHash": "0xe6daf124ac530c9a7526984d9e6f0a4d27c3acfc09bf3879bd2ede8b1e641d1f",
      "blockNumber": 68434,
      "transactionIndex": 7,
      "confirmations": null,
      "from": "0xc9cEbC914336FE4798d9cB8C735A808A21f9f613",
      "gasPrice": {
        "_hex": "0xba43b7400"
      },
      "gasLimit": {
        "_hex": "0x15f90"
      },
      "to": "0x793AE8C1b1a160BFc07BFB0d04F85eab1A71F4f2",
      "value": {
        "_hex": "0x0"
      },
      "nonce": 0,
      "data": "0x3ba15036",
      "r": "0x4688bf991b20c721893deb9a34e3e83c677aa155e707aabb3de78ba1c7feed7b",
      "s": "0x39da20858e72cfe425c08693a44c7cd6b456f66e322d9851c73b2ccdf4cc699c",
      "v": 28,
      "creates": null,
      "raw": "0xf86980850ba43b740083015f9094793ae8c1b1a160bfc07bfb0d04f85eab1a71f4f280843ba150361ca04688bf991b20c721893deb9a34e3e83c677aa155e707aabb3de78ba1c7feed7ba039da20858e72cfe425c08693a44c7cd6b456f66e322d9851c73b2ccdf4cc699c",
      "networkId": 0,
      "chainId": 0
    },
    {
      "hash": "0x839345c849a1fd414d5c3f4904f20341999f5808d0a1914ff3b3b6d93c8eae10",
      "blockHash": "0xe6daf124ac530c9a7526984d9e6f0a4d27c3acfc09bf3879bd2ede8b1e641d1f",
      "blockNumber": 68434,
      "transactionIndex": 8,
      "confirmations": null,
      "from": "0xDA72851d88C0c7A0e2000E72e2d7959470Ef435d",
      "gasPrice": {
        "_hex": "0xba43b7400"
      },
      "gasLimit": {
        "_hex": "0x15f90"
      },
      "to": "0x793AE8C1b1a160BFc07BFB0d04F85eab1A71F4f2",
      "value": {
        "_hex": "0x0"
      },
      "nonce": 0,
      "data": "0x3ba15036",
      "r": "0x253a58a1cfbd40684a03f2422149e77da4c53639e95894a1995eb3357f5071dc",
      "s": "0x4c617d29a40405c871b03e09c35e82d170925a388dbba7b77cda49e20fbeb092",
      "v": 27,
      "creates": null,
      "raw": "0xf86980850ba43b740083015f9094793ae8c1b1a160bfc07bfb0d04f85eab1a71f4f280843ba150361ba0253a58a1cfbd40684a03f2422149e77da4c53639e95894a1995eb3357f5071dca04c617d29a40405c871b03e09c35e82d170925a388dbba7b77cda49e20fbeb092",
      "networkId": 0,
      "chainId": 0
    },
    {
      "hash": "0x1bec82dc15050b61b81a784e32c25f9cf8e81836d725d77780bc29bec50307a6",
      "blockHash": "0xe6daf124ac530c9a7526984d9e6f0a4d27c3acfc09bf3879bd2ede8b1e641d1f",
      "blockNumber": 68434,
      "transactionIndex": 9,
      "confirmations": null,
      "from": "0x7301971fe63330De23ea059Ee5A6C8f7A5333Af7",
      "gasPrice": {
        "_hex": "0xba43b7400"
      },
      "gasLimit": {
        "_hex": "0x15f90"
      },
      "to": "0x793AE8C1b1a160BFc07BFB0d04F85eab1A71F4f2",
      "value": {
        "_hex": "0x0"
      },
      "nonce": 0,
      "data": "0x3ba15036",
      "r": "0xd2136bb3d3290fb0e7dddad980848961a5d73cf26d8928d68dbe7f16f6360b08",
      "s": "0x43524c9fd6737fc68f874c70193792c1b1dd30cb462da95772c83082c9f2e19b",
      "v": 28,
      "creates": null,
      "raw": "0xf86980850ba43b740083015f9094793ae8c1b1a160bfc07bfb0d04f85eab1a71f4f280843ba150361ca0d2136bb3d3290fb0e7dddad980848961a5d73cf26d8928d68dbe7f16f6360b08a043524c9fd6737fc68f874c70193792c1b1dd30cb462da95772c83082c9f2e19b",
      "networkId": 0,
      "chainId": 0
    },
    {
      "hash": "0xcd7d2cf0360ac6f048bc1c5bf560e1a39c46640c353dd02ebb10e034ddbacde8",
      "blockHash": "0xe6daf124ac530c9a7526984d9e6f0a4d27c3acfc09bf3879bd2ede8b1e641d1f",
      "blockNumber": 68434,
      "transactionIndex": 10,
      "confirmations": null,
      "from": "0x309a1f8b75d1A013506E85A7F387B8C8090EB4e1",
      "gasPrice": {
        "_hex": "0xba43b7400"
      },
      "gasLimit": {
        "_hex": "0x15f90"
      },
      "to": "0x793AE8C1b1a160BFc07BFB0d04F85eab1A71F4f2",
      "value": {
        "_hex": "0x0"
      },
      "nonce": 0,
      "data": "0x3ba15036",
      "r": "0xb3e8247cbb5713b0b08acd2a19cf5e43b7d24cfb4d76ec21a951eb4805f84aae",
      "s": "0x2fb1deb334d3e139e0fa8bc9a31cd624e3fb2b32eb2a3ceebde18ae59e13d97d",
      "v": 27,
      "creates": null,
      "raw": "0xf86980850ba43b740083015f9094793ae8c1b1a160bfc07bfb0d04f85eab1a71f4f280843ba150361ba0b3e8247cbb5713b0b08acd2a19cf5e43b7d24cfb4d76ec21a951eb4805f84aaea02fb1deb334d3e139e0fa8bc9a31cd624e3fb2b32eb2a3ceebde18ae59e13d97d",
      "networkId": 0,
      "chainId": 0
    },
    {
      "hash": "0x1caad0230a0346a6d93869bb30004c83104e2ad1e65b06ad1e1893fdbf77f20f",
      "blockHash": "0xe6daf124ac530c9a7526984d9e6f0a4d27c3acfc09bf3879bd2ede8b1e641d1f",
      "blockNumber": 68434,
      "transactionIndex": 11,
      "confirmations": null,
      "from": "0xe1AC1A8d0dF85DfB4eCD4499E1AFa2a8061D6d09",
      "gasPrice": {
        "_hex": "0xba43b7400"
      },
      "gasLimit": {
        "_hex": "0x15f90"
      },
      "to": "0x793AE8C1b1a160BFc07BFB0d04F85eab1A71F4f2",
      "value": {
        "_hex": "0x0"
      },
      "nonce": 0,
      "data": "0x3ba15036",
      "r": "0xde0f7f84770a910053cd0354ac6c863cb2c6d55fe8db402b1f9c3422a97ce234",
      "s": "0x4dbc5608f212c8a29df5fca795eaa4b6c52104de1abdebb7d99098267e85cb74",
      "v": 27,
      "creates": null,
      "raw": "0xf86980850ba43b740083015f9094793ae8c1b1a160bfc07bfb0d04f85eab1a71f4f280843ba150361ba0de0f7f84770a910053cd0354ac6c863cb2c6d55fe8db402b1f9c3422a97ce234a04dbc5608f212c8a29df5fca795eaa4b6c52104de1abdebb7d99098267e85cb74",
      "networkId": 0,
      "chainId": 0
    },
    {
      "hash": "0xf3bd245b9c4dc5d9b5e7de65103dd80beadfdfdc07a4ff8d20b8ea0dc63d2a19",
      "blockHash": "0xe6daf124ac530c9a7526984d9e6f0a4d27c3acfc09bf3879bd2ede8b1e641d1f",
      "blockNumber": 68434,
      "transactionIndex": 12,
      "confirmations": null,
      "from": "0xc40036EDe2d971ca7A1f4812Eada96B06c8513bC",
      "gasPrice": {
        "_hex": "0xba43b7400"
      },
      "gasLimit": {
        "_hex": "0x15f90"
      },
      "to": "0x793AE8C1b1a160BFc07BFB0d04F85eab1A71F4f2",
      "value": {
        "_hex": "0x0"
      },
      "nonce": 0,
      "data": "0x3ba15036",
      "r": "0x297d240e5d3702f42881c3a5814de490cefd08b682ebaa4fb65a1d1951abdfa7",
      "s": "0x6ddc2e909e6a6ec3771278c24a5cc2a63299941b8cf7c37486879ebc66294b96",
      "v": 27,
      "creates": null,
      "raw": "0xf86980850ba43b740083015f9094793ae8c1b1a160bfc07bfb0d04f85eab1a71f4f280843ba150361ba0297d240e5d3702f42881c3a5814de490cefd08b682ebaa4fb65a1d1951abdfa7a06ddc2e909e6a6ec3771278c24a5cc2a63299941b8cf7c37486879ebc66294b96",
      "networkId": 0,
      "chainId": 0
    },
    {
      "hash": "0x747cf29dd900592a52f413c8dafa3d8c4a46d68890813bad89d67bdc90c27f77",
      "blockHash": "0xe6daf124ac530c9a7526984d9e6f0a4d27c3acfc09bf3879bd2ede8b1e641d1f",
      "blockNumber": 68434,
      "transactionIndex": 13,
      "confirmations": null,
      "from": "0x636F3A63A881643a3cbE4C906284bbd315E541ab",
      "gasPrice": {
        "_hex": "0xba43b7400"
      },
      "gasLimit": {
        "_hex": "0x15f90"
      },
      "to": "0x793AE8C1b1a160BFc07BFB0d04F85eab1A71F4f2",
      "value": {
        "_hex": "0x0"
      },
      "nonce": 0,
      "data": "0x3ba15036",
      "r": "0x2eb03f8d9734d2fd9c8f06cc6b9aa361faebd201aafcfc6aa70878ac649b5190",
      "s": "0x1f5b20904f45732ff6c4cd54edf11b96756fcb508d323fc0e176a8f231c82bd2",
      "v": 28,
      "creates": null,
      "raw": "0xf86980850ba43b740083015f9094793ae8c1b1a160bfc07bfb0d04f85eab1a71f4f280843ba150361ca02eb03f8d9734d2fd9c8f06cc6b9aa361faebd201aafcfc6aa70878ac649b5190a01f5b20904f45732ff6c4cd54edf11b96756fcb508d323fc0e176a8f231c82bd2",
      "networkId": 0,
      "chainId": 0
    },
    {
      "hash": "0x4a87f706714eac95ffcad545950e019f28cbf67626bbdd1328e871df15f92b32",
      "blockHash": "0xe6daf124ac530c9a7526984d9e6f0a4d27c3acfc09bf3879bd2ede8b1e641d1f",
      "blockNumber": 68434,
      "transactionIndex": 14,
      "confirmations": null,
      "from": "0xe311b530D342689Afa07508D9F99ff50790de6aB",
      "gasPrice": {
        "_hex": "0xba43b7400"
      },
      "gasLimit": {
        "_hex": "0x15f90"
      },
      "to": "0x793AE8C1b1a160BFc07BFB0d04F85eab1A71F4f2",
      "value": {
        "_hex": "0x0"
      },
      "nonce": 0,
      "data": "0x3ba15036",
      "r": "0xbe4d031fba320baebcca5d9dd6f3364d6c3f007d1de1de65d52671a65012cf34",
      "s": "0x3ea8e8076cb2e63246ddcc5874f60d76c51aa1778c9e4b027e95800b91a021df",
      "v": 27,
      "creates": null,
      "raw": "0xf86980850ba43b740083015f9094793ae8c1b1a160bfc07bfb0d04f85eab1a71f4f280843ba150361ba0be4d031fba320baebcca5d9dd6f3364d6c3f007d1de1de65d52671a65012cf34a03ea8e8076cb2e63246ddcc5874f60d76c51aa1778c9e4b027e95800b91a021df",
      "networkId": 0,
      "chainId": 0
    },
    {
      "hash": "0xb1179dae998e60456de7179b9cf4fe6f5fe405c922ac442db381eba37a2fc31e",
      "blockHash": "0xe6daf124ac530c9a7526984d9e6f0a4d27c3acfc09bf3879bd2ede8b1e641d1f",
      "blockNumber": 68434,
      "transactionIndex": 15,
      "confirmations": null,
      "from": "0xf928ff449bcDe87b8755819Fa8D262D5c8D2352B",
      "gasPrice": {
        "_hex": "0xba43b7400"
      },
      "gasLimit": {
        "_hex": "0x15f90"
      },
      "to": "0x793AE8C1b1a160BFc07BFB0d04F85eab1A71F4f2",
      "value": {
        "_hex": "0x0"
      },
      "nonce": 0,
      "data": "0x3ba15036",
      "r": "0x16e14ea5bac75978c7874bb0bf80d77f8b541af89d3b4dff56441095a4bb35d3",
      "s": "0x41e4f0517812bb004db7978522682b92416b99780ad881a14d45d15b9f97a180",
      "v": 27,
      "creates": null,
      "raw": "0xf86980850ba43b740083015f9094793ae8c1b1a160bfc07bfb0d04f85eab1a71f4f280843ba150361ba016e14ea5bac75978c7874bb0bf80d77f8b541af89d3b4dff56441095a4bb35d3a041e4f0517812bb004db7978522682b92416b99780ad881a14d45d15b9f97a180",
      "networkId": 0,
      "chainId": 0
    },
    {
      "hash": "0x66c83987d2cc6bc0c69c96dfd4808715ee67edfb867cc3e2894ebddc38e4890a",
      "blockHash": "0xe6daf124ac530c9a7526984d9e6f0a4d27c3acfc09bf3879bd2ede8b1e641d1f",
      "blockNumber": 68434,
      "transactionIndex": 16,
      "confirmations": null,
      "from": "0x124717c55B2982693C7785B5eaa7aCD2880C5D48",
      "gasPrice": {
        "_hex": "0xba43b7400"
      },
      "gasLimit": {
        "_hex": "0x15f90"
      },
      "to": "0x793AE8C1b1a160BFc07BFB0d04F85eab1A71F4f2",
      "value": {
        "_hex": "0x0"
      },
      "nonce": 0,
      "data": "0x3ba15036",
      "r": "0x20de841f03627ab71a128d1f3fa4449ee8bacf51dc569ef4932274da602735bb",
      "s": "0x03ba2a70f629f5527dee5d0700b250e2bf7a34f36804c6fdb14377c90b8d0e83",
      "v": 27,
      "creates": null,
      "raw": "0xf86980850ba43b740083015f9094793ae8c1b1a160bfc07bfb0d04f85eab1a71f4f280843ba150361ba020de841f03627ab71a128d1f3fa4449ee8bacf51dc569ef4932274da602735bba003ba2a70f629f5527dee5d0700b250e2bf7a34f36804c6fdb14377c90b8d0e83",
      "networkId": 0,
      "chainId": 0
    },
    {
      "hash": "0xb0bfa5b5eada95e9da6fe9e62b44659359cb9b6a64a4d3dc65670e1e1c02cb4e",
      "blockHash": "0xe6daf124ac530c9a7526984d9e6f0a4d27c3acfc09bf3879bd2ede8b1e641d1f",
      "blockNumber": 68434,
      "transactionIndex": 17,
      "confirmations": null,
      "from": "0xb3Ac99Fc53fAEDbE62160E7c06392C9754A7Fd0c",
      "gasPrice": {
        "_hex": "0xba43b7400"
      },
      "gasLimit": {
        "_hex": "0x15f90"
      },
      "to": "0x793AE8C1b1a160BFc07BFB0d04F85eab1A71F4f2",
      "value": {
        "_hex": "0x0"
      },
      "nonce": 0,
      "data": "0x3ba15036",
      "r": "0x09ef3d75322d64cf4bc5cbac3bfe98f206a6db9a3d06077b9daba7ec7453932d",
      "s": "0x25761fdfdf460e6024453641c4fff3ecc9ef436efb68eb486c192651a24221ca",
      "v": 27,
      "creates": null,
      "raw": "0xf86980850ba43b740083015f9094793ae8c1b1a160bfc07bfb0d04f85eab1a71f4f280843ba150361ba009ef3d75322d64cf4bc5cbac3bfe98f206a6db9a3d06077b9daba7ec7453932da025761fdfdf460e6024453641c4fff3ecc9ef436efb68eb486c192651a24221ca",
      "networkId": 0,
      "chainId": 0
    },
    {
      "hash": "0x1e237ceb45ebaf56781a4fc886c37445dcd9f28b633bcd2f9d6a513c6adb7ec4",
      "blockHash": "0xe6daf124ac530c9a7526984d9e6f0a4d27c3acfc09bf3879bd2ede8b1e641d1f",
      "blockNumber": 68434,
      "transactionIndex": 18,
      "confirmations": null,
      "from": "0x6747f922385c9a6F9cfDf095F34345257DD597bE",
      "gasPrice": {
        "_hex": "0xba43b7400"
      },
      "gasLimit": {
        "_hex": "0x5208"
      },
      "to": "0xE5e040a70138fF4906073e2FFE9Ad6eA1407d9Fc",
      "value": {
        "_hex": "0x1fcbfa42bd6000"
      },
      "nonce": 87,
      "data": "0x",
      "r": "0xa00951a6e69dac303574adbcc612768dcb16894e44657856c8124eda0be33d68",
      "s": "0x4a568886e26d13267035a0999374a639a0b9b6cbbebefe3dc0e402d566ba3f65",
      "v": 28,
      "creates": null,
      "raw": "0xf86b57850ba43b740082520894e5e040a70138ff4906073e2ffe9ad6ea1407d9fc871fcbfa42bd6000801ca0a00951a6e69dac303574adbcc612768dcb16894e44657856c8124eda0be33d68a04a568886e26d13267035a0999374a639a0b9b6cbbebefe3dc0e402d566ba3f65",
      "networkId": 0,
      "chainId": 0
    },
    {
      "hash": "0xda0d8fcecb4c81b45737d4c40c49498ab08c5887e285a3738bc5285d9ab3fdd6",
      "blockHash": "0xe6daf124ac530c9a7526984d9e6f0a4d27c3acfc09bf3879bd2ede8b1e641d1f",
      "blockNumber": 68434,
      "transactionIndex": 19,
      "confirmations": null,
      "from": "0xe3320c8Aa51E372F04AAcbe28576C25583A8BAAA",
      "gasPrice": {
        "_hex": "0xba43b7400"
      },
      "gasLimit": {
        "_hex": "0x15f90"
      },
      "to": "0x793AE8C1b1a160BFc07BFB0d04F85eab1A71F4f2",
      "value": {
        "_hex": "0x0"
      },
      "nonce": 0,
      "data": "0x3ba15036",
      "r": "0x085115d69e470f5d862501b83732d57ce8623789ac0e8f311b01670b8af787a6",
      "s": "0x0de2326adb9f946caa6918fa42f7e2fc8a08b060d14576aff4cd63bdfd2c2bc4",
      "v": 28,
      "creates": null,
      "raw": "0xf86980850ba43b740083015f9094793ae8c1b1a160bfc07bfb0d04f85eab1a71f4f280843ba150361ca0085115d69e470f5d862501b83732d57ce8623789ac0e8f311b01670b8af787a6a00de2326adb9f946caa6918fa42f7e2fc8a08b060d14576aff4cd63bdfd2c2bc4",
      "networkId": 0,
      "chainId": 0
    },
    {
      "hash": "0x79e050f558f489c18695cc16dc534538c7f6299da87b249352e2c6c1f9bda9a9",
      "blockHash": "0xe6daf124ac530c9a7526984d9e6f0a4d27c3acfc09bf3879bd2ede8b1e641d1f",
      "blockNumber": 68434,
      "transactionIndex": 20,
      "confirmations": null,
      "from": "0xc34477640E46f8Cc61Ad2c43f08E16a59C1577bA",
      "gasPrice": {
        "_hex": "0xba43b7400"
      },
      "gasLimit": {
        "_hex": "0x15f90"
      },
      "to": "0x793AE8C1b1a160BFc07BFB0d04F85eab1A71F4f2",
      "value": {
        "_hex": "0x0"
      },
      "nonce": 0,
      "data": "0x3ba15036",
      "r": "0xdf2429315c7167d48226fec97adbfc956a4d931d601da270fc8d211e82834681",
      "s": "0x191f61a96ea2f289e8d109012e680c697319461314a86fe8532ff05708e28bb1",
      "v": 28,
      "creates": null,
      "raw": "0xf86980850ba43b740083015f9094793ae8c1b1a160bfc07bfb0d04f85eab1a71f4f280843ba150361ca0df2429315c7167d48226fec97adbfc956a4d931d601da270fc8d211e82834681a0191f61a96ea2f289e8d109012e680c697319461314a86fe8532ff05708e28bb1",
      "networkId": 0,
      "chainId": 0
    },
    {
      "hash": "0xa65ba025a9610ea1df700d60fcd7a011057ec4c401e4a4bc3fbb0f81ed8024ec",
      "blockHash": "0xe6daf124ac530c9a7526984d9e6f0a4d27c3acfc09bf3879bd2ede8b1e641d1f",
      "blockNumber": 68434,
      "transactionIndex": 21,
      "confirmations": null,
      "from": "0x124569ce1C9af3F3304e696D45dEA95dc5AC3663",
      "gasPrice": {
        "_hex": "0xba43b7400"
      },
      "gasLimit": {
        "_hex": "0x15f90"
      },
      "to": "0x793AE8C1b1a160BFc07BFB0d04F85eab1A71F4f2",
      "value": {
        "_hex": "0x0"
      },
      "nonce": 0,
      "data": "0x3ba15036",
      "r": "0x1b19d6daa2d82797b910d94f26c4905dd9fee605894dd53c4cbb210238871d7a",
      "s": "0x2b5c6fdb3ed7936b65300a45e55f875e6d67cc6a5f9e81672cf3650f59f7a437",
      "v": 28,
      "creates": null,
      "raw": "0xf86980850ba43b740083015f9094793ae8c1b1a160bfc07bfb0d04f85eab1a71f4f280843ba150361ca01b19d6daa2d82797b910d94f26c4905dd9fee605894dd53c4cbb210238871d7aa02b5c6fdb3ed7936b65300a45e55f875e6d67cc6a5f9e81672cf3650f59f7a437",
      "networkId": 0,
      "chainId": 0
    },
    {
      "hash": "0xa65d4f0be1b6370c5eaca271f704614c066099420d99657be3a1dd0d630f5caa",
      "blockHash": "0xe6daf124ac530c9a7526984d9e6f0a4d27c3acfc09bf3879bd2ede8b1e641d1f",
      "blockNumber": 68434,
      "transactionIndex": 22,
      "confirmations": null,
      "from": "0x7c090a2979c6667A3D2311d6c842c55C1988F418",
      "gasPrice": {
        "_hex": "0xba43b7400"
      },
      "gasLimit": {
        "_hex": "0x15f90"
      },
      "to": "0x793AE8C1b1a160BFc07BFB0d04F85eab1A71F4f2",
      "value": {
        "_hex": "0x0"
      },
      "nonce": 0,
      "data": "0x3ba15036",
      "r": "0x038a1c7da843543a051befb8c57625d7e682e44e7958b5854c82b124b36538e5",
      "s": "0x382c70947a05e92698790e5fcf22fdb27f1db3c061e7c84e26bf5b67fb36b4f9",
      "v": 27,
      "creates": null,
      "raw": "0xf86980850ba43b740083015f9094793ae8c1b1a160bfc07bfb0d04f85eab1a71f4f280843ba150361ba0038a1c7da843543a051befb8c57625d7e682e44e7958b5854c82b124b36538e5a0382c70947a05e92698790e5fcf22fdb27f1db3c061e7c84e26bf5b67fb36b4f9",
      "networkId": 0,
      "chainId": 0
    },
    {
      "hash": "0x34819767a12df56aa68becf09b137d2f77d3844bf25942c5f83caf1b13e818de",
      "blockHash": "0xe6daf124ac530c9a7526984d9e6f0a4d27c3acfc09bf3879bd2ede8b1e641d1f",
      "blockNumber": 68434,
      "transactionIndex": 23,
      "confirmations": null,
      "from": "0x3F08337A0c155f8b683cEFC1688D3198b195C6D6",
      "gasPrice": {
        "_hex": "0xba43b7400"
      },
      "gasLimit": {
        "_hex": "0x15f90"
      },
      "to": "0x793AE8C1b1a160BFc07BFB0d04F85eab1A71F4f2",
      "value": {
        "_hex": "0x0"
      },
      "nonce": 0,
      "data": "0x3ba15036",
      "r": "0xe8e5ac10d8d9e962bca3c79d5519f86516954eccdcd2484059517755b556afda",
      "s": "0x1b8efcf7c08887c53b9757e7549fd51cf14d5b819fa74935f3d837ab7ad09100",
      "v": 27,
      "creates": null,
      "raw": "0xf86980850ba43b740083015f9094793ae8c1b1a160bfc07bfb0d04f85eab1a71f4f280843ba150361ba0e8e5ac10d8d9e962bca3c79d5519f86516954eccdcd2484059517755b556afdaa01b8efcf7c08887c53b9757e7549fd51cf14d5b819fa74935f3d837ab7ad09100",
      "networkId": 0,
      "chainId": 0
    },
    {
      "hash": "0x8ea7a3b59b2ead3e1e7e716ae7fb0e5b0bb4f4d0b4c5c8de825cba683edb13e6",
      "blockHash": "0xe6daf124ac530c9a7526984d9e6f0a4d27c3acfc09bf3879bd2ede8b1e641d1f",
      "blockNumber": 68434,
      "transactionIndex": 24,
      "confirmations": null,
      "from": "0xB7576e9d314Df41EC5506494293Afb1bd5D3f65d",
      "gasPrice": {
        "_hex": "0xba43b7400"
      },
      "gasLimit": {
        "_hex": "0x5260"
      },
      "to": "0xd4d4669f5BA9F4C27d38Ef02a358c339B5560C47",
      "value": {
        "_hex": "0xde0b6b3a7640000"
      },
      "nonce": 2,
      "data": "0x",
      "r": "0x94ea81b8767a3279e51672157f0c508af9d6177d7d38ba2e2f0f56f91a789962",
      "s": "0x198373b92de1b7333299e42dbc46575f32af5447fe7c4ef47b752f6ca6ef7322",
      "v": 28,
      "creates": null,
      "raw": "0xf86c02850ba43b740082526094d4d4669f5ba9f4c27d38ef02a358c339b5560c47880de0b6b3a7640000801ca094ea81b8767a3279e51672157f0c508af9d6177d7d38ba2e2f0f56f91a789962a0198373b92de1b7333299e42dbc46575f32af5447fe7c4ef47b752f6ca6ef7322",
      "networkId": 0,
      "chainId": 0
    },
    {
      "hash": "0x6acce997ff808d74b59d5844aadf4ba1c55a800af0686de13fbf97a298f884a1",
      "blockHash": "0xe6daf124ac530c9a7526984d9e6f0a4d27c3acfc09bf3879bd2ede8b1e641d1f",
      "blockNumber": 68434,
      "transactionIndex": 25,
      "confirmations": null,
      "from": "0x3EC4de4CA67934B7A899dfC70D2B8B7D55222254",
      "gasPrice": {
        "_hex": "0xba43b7400"
      },
      "gasLimit": {
        "_hex": "0x15f90"
      },
      "to": "0x793AE8C1b1a160BFc07BFB0d04F85eab1A71F4f2",
      "value": {
        "_hex": "0x0"
      },
      "nonce": 0,
      "data": "0x3ba15036",
      "r": "0xcc32ae0548fe62c176ce50196432762f264d49b7764e320acb3304f7fb1550c5",
      "s": "0x0d29b7f2738605dac1f6e5e2afa792d32d6c4a06e7ba452d2f56d579bf6d0dec",
      "v": 28,
      "creates": null,
      "raw": "0xf86980850ba43b740083015f9094793ae8c1b1a160bfc07bfb0d04f85eab1a71f4f280843ba150361ca0cc32ae0548fe62c176ce50196432762f264d49b7764e320acb3304f7fb1550c5a00d29b7f2738605dac1f6e5e2afa792d32d6c4a06e7ba452d2f56d579bf6d0dec",
      "networkId": 0,
      "chainId": 0
    },
    {
      "hash": "0x1492ee1f56b7a690d6e2c9138a86131b4ccc835fc26108654e2e6b9520202337",
      "blockHash": "0xe6daf124ac530c9a7526984d9e6f0a4d27c3acfc09bf3879bd2ede8b1e641d1f",
      "blockNumber": 68434,
      "transactionIndex": 26,
      "confirmations": null,
      "from": "0x6f1883a6DDB87e3931Bbe8b61eDe06246C44364D",
      "gasPrice": {
        "_hex": "0xba43b7400"
      },
      "gasLimit": {
        "_hex": "0x15f90"
      },
      "to": "0x793AE8C1b1a160BFc07BFB0d04F85eab1A71F4f2",
      "value": {
        "_hex": "0x0"
      },
      "nonce": 0,
      "data": "0x3ba15036",
      "r": "0x5bfe9d1e0335fc265db8f0589817418128bcc9eb99dba84671c9517d34074a0f",
      "s": "0x69e219d7cae7e5e6c1453fec07c0212c990f26b804b6163f689c4168d090e764",
      "v": 27,
      "creates": null,
      "raw": "0xf86980850ba43b740083015f9094793ae8c1b1a160bfc07bfb0d04f85eab1a71f4f280843ba150361ba05bfe9d1e0335fc265db8f0589817418128bcc9eb99dba84671c9517d34074a0fa069e219d7cae7e5e6c1453fec07c0212c990f26b804b6163f689c4168d090e764",
      "networkId": 0,
      "chainId": 0
    }
  ]
}