{
  "hash": "0xf5ef8315decda4a5b82d51a0d8c8a1c4b81ad697d0cb6a37a1111710e65c1355",
  "parentHash": "0x0a04004163ccb71d41e1d46a43e64038097bc9e83af357594ba3e190dd6a1258",
  "number": 49750,
  "timestamp": 1438978424,
  "nonce": "0x497185882299d641",
  "difficulty": 1492952618590,
  "gasLimit": {
    "_hex": "0x3d56b"
  },
  "gasUsed": {
    "_hex": "0xa5ec"
  },
  "miner": "0xbb7B8287f3F0a933474a79eAe42CBCa977791171",
  "extraData": "0x476574682f4c5649562f76312e302e312f6c696e75782f676f312e342e32",
  "transactions": [
    {
      "hash": "0x46f50aeb82fd5c370ff22985f44c6652e5fc5a1736c0cf42ab9fc51cfc4a70eb",
      "blockHash": "0xf5ef8315decda4a5b82d51a0d8c8a1c4b81ad697d0cb6a37a1111710e65c1355",
      "blockNumber": 49750,
      "transactionIndex": 0,
      "confirmations": null,
      "from": "0x858079E02403b10748B71A02195b6608Abaf6b8f",
      "gasPrice": {
        "_hex": "0xd8364fc25"
      },
      "gasLimit": {
        "_hex": "0x59d8"
      },
      "to": "0xcb2Ff4305625D98A9E13C9cA10ca47cf2345e1F8",
      "value": {
        "_hex": "0x3cb957c1235190000"
      },
      "nonce": 1,
      "data": "0x4d696e75733730",
      "r": "0x02b788c337e1b137ac77ee48ffbadf6210b70d7606e1ffba6ba35c55f4a05e42",
      "s": "0x29dbce5c5b645aaaf46602041827440c7a45a174cf7622b94bc392cf17cc722c",
      "v": 27,
      "creates": null,
      "raw": "0xf87401850d8364fc258259d894cb2ff4305625d98a9e13c9ca10ca47cf2345e1f88903cb957c1235190000874d696e757337301ba002b788c337e1b137ac77ee48ffbadf6210b70d7606e1ffba6ba35c55f4a05e42a029dbce5c5b645aaaf46602041827440c7a45a174cf7622b94bc392cf17cc722c",
      "networkId": 0,
      "chainId": 0
    },
    {
      "hash": "0xf1e032acc78dedbaa4de6855e66ff7fdd90fc1929243848afe36a08d1918ef98",
      "blockHash": "0xf5ef8315decda4a5b82d51a0d8c8a1c4b81ad697d0cb6a37a1111710e65c1355",
      "blockNumber": 49750,
      "transactionIndex": 1,
      "confirmations": null,
      "from": "0x4Eaf4CaDd87499C20bA3412B1D222f9a72DA7AFF",
      "gasPrice": {
        "_hex": "0xce3642365"
      },
      "gasLimit": {
        "_hex": "0x5208"
      },
      "to": "0x32Be343B94f860124dC4fEe278FDCBD38C102D88",
      "value": {
        "_hex": "0x2b5df8dd8b6364000"
      },
      "nonce": 1,
      "data": "0x",
      "r": "0x956079c88fba30fb0d8d8f32f765026c8936d98eb58853a5325c2cef3a3e52fa",
      "s": "0x1ea4d4287572f779d06884a367d999ae95885f1b5fd2f576e34d44f698dba5df",
      "v": 27,
      "creates": null,
      "raw": "0xf86d01850ce36423658252089432be343b94f860124dc4fee278fdcbd38c102d888902b5df8dd8b6364000801ba0956079c88fba30fb0d8d8f32f765026c8936d98eb58853a5325c2cef3a3e52faa01ea4d4287572f779d06884a367d999ae95885f1b5fd2f576e34d44f698dba5df",
      "networkId": 0,
      "chainId": 0
    }
  ]
}