{
  "hash": "0x1e882a3bbdfcc60cf901f56668c360dc1118c717449fe8fd1dca924cb4987fc8",
  "parentHash": "0x128c1adf6c5e4d9e6b29cd7399ee2e7abaa2a73ed2dd0a51d6388301c7b63e0e",
  "number": 81723,
  "timestamp": 1439506604,
  "nonce": "0x4712c76e59108fde",
  "difficulty": 2429455111541,
  "gasLimit": {
    "_hex": "0x2fefd8"
  },
  "gasUsed": {
    "_hex": "0x546c"
  },
  "miner": "0x88D74a59454F6cF3B51ef6b9136AFb6b9D405A88",
  "extraData": "0x476574682f76312e302e312d38326566323666362f6c696e75782f676f312e34",
  "transactions": [
    {
      "hash": "0xcd241a793dc19e75d0ec8dbad5a69080201dcb2a121fb1d5355dde1dd4d46578",
      "blockHash": "0x1e882a3bbdfcc60cf901f56668c360dc1118c717449fe8fd1dca924cb4987fc8",
      "blockNumber": 81723,
      "transactionIndex": 0,
      "confirmations": null,
      "from": "0x72393d37B451effB9e1Ff3b8552712e2A970D8c2",
      "gasPrice": {
        "_hex": "0x110c8f7d8de"
      },
      "gasLimit": {
        "_hex": "0xc350"
      },
      "to": "0x2910543Af39abA0Cd09dBb2D50200b3E800A63D2",
      "value": {
        "_hex": "0xde0b6b3a7640000"
      },
      "nonce": 0,
      "data": "0x454e41315648385247",
      "r": "0x042905dc8dbaa50941ab0e97213fd764852f5d9eaf5e64a44667eee96d3a78c7",
      "s": "0x695eb638cab2a4b0051bbe18fb97387bd5fb8725722a950878588925e5efc493",
      "v": 27,
      "creates": null,
      "raw": "0xf87680860110c8f7d8de82c350942910543af39aba0cd09dbb2d50200b3e800a63d2880de0b6b3a764000089454e413156483852471ba0042905dc8dbaa50941ab0e97213fd764852f5d9eaf5e64a44667eee96d3a78c7a0695eb638cab2a4b0051bbe18fb97387bd5fb8725722a950878588925e5efc493",
      "networkId": 0,
      "chainId": 0
    }
  ]
}