{
  "hash": "0x8ba221a840e50fbb4e68fd199cf4f3f6c5315b4fc6908fdfb9f006facffc59c4",
  "parentHash": "0xc0a66698fc450200afb76f210f4141ae273da250d2ea9c9893b5bd3edfedb77c",
  "number": 119740,
  "timestamp": 1440148079,
  "nonce": "0x5e435e6677c743c6",
  "difficulty": 4385702898259,
  "gasLimit": {
    "_hex": "0x2fefd8"
  },
  "gasUsed": {
    "_hex": "0x5208"
  },
  "miner": "0x9746c7e1ef2bd21FF3997fa467593a89cb852BD0",
  "extraData": "0x476574682f76312e302e312f77696e646f77732f676f312e342e32",
  "transactions": [
    {
      "hash": "0x70b0105cca8de0c1856f630b0c42044b918d19408be6d7eacbd5837d06114535",
      "blockHash": "0x8ba221a840e50fbb4e68fd199cf4f3f6c5315b4fc6908fdfb9f006facffc59c4",
      "blockNumber": 119740,
      "transactionIndex": 0,
      "confirmations": null,
      "from": "0x608f4b86321a68453f9adf6F06F7Fc3E621739ad",
      "gasPrice": {
        "_hex": "0xba43b7400"
      },
      "gasLimit": {
        "_hex": "0x5208"
      },
      "to": "0x32Be343B94f860124dC4fEe278FDCBD38C102D88",
      "value": {
        "_hex": "0x455fd68a17f06000"
      },
      "nonce": 42,
      "data": "0x",
      "r": "0xd1604334ec3e634058982e3f9b6295e81d0e9583c43a712f796aa876f1a7057b",
      "s": "0x2431504b621fe54732777a49f97c42d49d6f87d605980b72b25094f8eba0ccab",
      "v": 28,
      "creates": null,
      "raw": "0xf86c2a850ba43b74008252089432be343b94f860124dc4fee278fdcbd38c102d8888455fd68a17f06000801ca0d1604334ec3e634058982e3f9b6295e81d0e9583c43a712f796aa876f1a7057ba02431504b621fe54732777a49f97c42d49d6f87d605980b72b25094f8eba0ccab",
      "networkId": 0,
      "chainId": 0
    }
  ]
}