{
  "hash": "0xc28292a3d8927faf80e3e46e13beabc3aa05150ef2638dbcb2ad6cb29214ed60",
  "parentHash": "0x3bc49435591701252ae59e6e5ee72db2b08492a8085672a15d6f54b5061d701f",
  "number": 93750,
  "timestamp": 1439697119,
  "nonce": "0xf8072a8ddf30e1d1",
  "difficulty": 3422843288092,
  "gasLimit": {
    "_hex": "0x2fefd8"
  },
  "gasUsed": {
    "_hex": "0xa410"
  },
  "miner": "0xe6A7a1d47ff21B6321162AEA7C6CB457D5476Bca",
  "extraData": "0x476574682f76312e302e312d38326566323666362f6c696e75782f676f312e34",
  "transactions": [
    {
      "hash": "0x1720fe0f7ed726de8e4fe860f852f98ab09c8c83ea5f99a24372edd0851ee0db",
      "blockHash": "0xc28292a3d8927faf80e3e46e13beabc3aa05150ef2638dbcb2ad6cb29214ed60",
      "blockNumber": 93750,
      "transactionIndex": 0,
      "confirmations": null,
      "from": "0xa6BDc31c431B8F97848c9D60cbbe9660dc450eB7",
      "gasPrice": {
        "_hex": "0xdee45ad0e"
      },
      "gasLimit": {
        "_hex": "0x5208"
      },
      "to": "0x32Be343B94f860124dC4fEe278FDCBD38C102D88",
      "value": {
        "_hex": "0x455f24fa9123b400"
      },
      "nonce": 106,
      "data": "0x",
      "r": "0x8ca1718e47fd63e6a56a19ecea72f1be759ee599f63105b7e6a7f29570efe24d",
      "s": "0x271364313fc603d3d9698f4dd822fb9fdb8e790df4cd3ffde1778ac1822eff4c",
      "v": 27,
      "creates": null,
      "raw": "0xf86c6a850dee45ad0e8252089432be343b94f860124dc4fee278fdcbd38c102d8888455f24fa9123b400801ba08ca1718e47fd63e6a56a19ecea72f1be759ee599f63105b7e6a7f29570efe24da0271364313fc603d3d9698f4dd822fb9fdb8e790df4cd3ffde1778ac1822eff4c",
      "networkId": 0,
      "chainId": 0
    },
    {
      "hash": "0x092d11f41a9845419ad7b047a51a259112bb10df9915e27b48c7df4ac2e1ebf4",
      "blockHash": "0xc28292a3d8927faf80e3e46e13beabc3aa05150ef2638dbcb2ad6cb29214ed60",
      "blockNumber": 93750,
      "transactionIndex": 1,
      "confirmations": null,
      "from": "0x120A270bbC009644e35F0bB6ab13f95b8199c4ad",
      "gasPrice": {
        "_hex": "0xd16c336d6"
      },
      "gasLimit": {
        "_hex": "0x3d090"
      },
      "to": "0x3caA5682CB707e1971F13e2Ca68693f8F4ac9322",
      "value": {
        "_hex": "0xde0b6b3a7640000"
      },
      "nonce": 567,
      "data": "0x",
      "r": "0x7f9783c9d68ec97e7d837bcdf3342519967eafec3eda935f69fcb2311f4de88e",
      "s": "0x049b505ea13264a3e43517a2c84e4335f13825eed862b2c8c20748187fb5c5a5",
      "v": 28,
      "creates": null,
      "raw": "0xf86f820237850d16c336d68303d090943caa5682cb707e1971f13e2ca68693f8f4ac9322880de0b6b3a7640000801ca07f9783c9d68ec97e7d837bcdf3342519967eafec3eda935f69fcb2311f4de88ea0049b505ea13264a3e43517a2c84e4335f13825eed862b2c8c20748187fb5c5a5",
      "networkId": 0,
      "chainId": 0
    }
  ]
}