{
  "hash": "0x49594081b06d06209fcaa6dad1bedf9175404e2103fbedb29c8ddc1123ee0d0d",
  "parentHash": "0xf8bed200441eeaaf404dce15ae0a21e79ce667e86d64f795b48caf96d25d96f8",
  "number": 108383,
  "timestamp": 1439939377,
  "nonce": "0x618d1e9f74a65e87",
  "difficulty": 4338361476669,
  "gasLimit": {
    "_hex": "0x2fefd8"
  },
  "gasUsed": {
    "_hex": "0x5208"
  },
  "miner": "0x7E6930B63D03e88F5928C5cd6ee3FCee4D714F7F",
  "extraData": "0x",
  "transactions": [
    {
      "hash": "0xf528aaef4346d1c2bec19d9c71eb5887b18a9815a492a1efa107f453d5f7fd0c",
      "blockHash": "0x49594081b06d06209fcaa6dad1bedf9175404e2103fbedb29c8ddc1123ee0d0d",
      "blockNumber": 108383,
      "transactionIndex": 0,
      "confirmations": null,
      "from": "0x2f86ba8019945f39edE131D38d4d8780884DA553",
      "gasPrice": {
        "_hex": "0xe110c334c"
      },
      "gasLimit": {
        "_hex": "0x5208"
      },
      "to": "0x32Be343B94f860124dC4fEe278FDCBD38C102D88",
      "value": {
        "_hex": "0xd8d71071b709a80000"
      },
      "nonce": 29,
      "data": "0x",
      "r": "0x985aa599339f26ffacae246d353bf7010effde1b03543a0069e30dc0799b876f",
      "s": "0x4c44abf717d615c5e3fed503edd4eeb6a74802c03a0f8dd6c43d956810999271",
      "v": 27,
      "creates": null,
      "raw": "0xf86d1d850e110c334c8252089432be343b94f860124dc4fee278fdcbd38c102d8889d8d71071b709a80000801ba0985aa599339f26ffacae246d353bf7010effde1b03543a0069e30dc0799b876fa04c44abf717d615c5e3fed503edd4eeb6a74802c03a0f8dd6c43d956810999271",
      "networkId": 0,
      "chainId": 0
    }
  ]
}