{
  "hash": "0x9ba6e8c1de167dcb2776dc9cabd92c22e84b20d0ef278407677acbe80111cbe6",
  "parentHash": "0x4a30586a4fdd8228774aff7a012e17aa37d54f984116122dcfbe7f1aeb221d72",
  "number": 105313,
  "timestamp": 1439885431,
  "nonce": "0x90e59b8835739fa6",
  "difficulty": 4356935571841,
  "gasLimit": {
    "_hex": "0x2fefd8"
  },
  "gasUsed": {
    "_hex": "0x3d860"
  },
  "miner": "0xe6A7a1d47ff21B6321162AEA7C6CB457D5476Bca",
  "extraData": "0x476574682f76312e302e312d38326566323666362f6c696e75782f676f312e34",
  "transactions": [
    {
      "hash": "0x35e8e2ba9a428f563c62dd7ea192009c7fa3a170e71620067d755a7cec29de7a",
      "blockHash": "0x9ba6e8c1de167dcb2776dc9cabd92c22e84b20d0ef278407677acbe80111cbe6",
      "blockNumber": 105313,
      "transactionIndex": 0,
      "confirmations": null,
      "from": "0x3f6da2f18Ce077B065ac7bcae884bF439a222B35",
      "gasPrice": {
        "_hex": "0xdb2b6b718"
      },
      "gasLimit": {
        "_hex": "0x5208"
      },
      "to": "0xFBb1b73C4f0BDa4f67dcA266ce6Ef42f520fBB98",
      "value": {
        "_hex": "0x2b5df4b6a952c9740"
      },
      "nonce": 3,
      "data": "0x",
      "r": "0xce9c33cbd18382d62374c9ad60236335766572110c49f26f14706283749b57f7",
      "s": "0x751dafae4a0be87cd7cb45b9fbbedb5fa45edadd7519d56d1869f7ebc0e63f46",
      "v": 28,
      "creates": null,
      "raw": "0xf86d03850db2b6b71882520894fbb1b73c4f0bda4f67dca266ce6ef42f520fbb988902b5df4b6a952c9740801ca0ce9c33cbd18382d62374c9ad60236335766572110c49f26f14706283749b57f7a0751dafae4a0be87cd7cb45b9fbbedb5fa45edadd7519d56d1869f7ebc0e63f46",
      "networkId": 0,
      "chainId": 0
    },
    {
      "hash": "0x361941ababd1cd3efc0db76cb5a0bdaa88b62daa13896bd7907373249c2ac402",
      "blockHash": "0x9ba6e8c1de167dcb2776dc9cabd92c22e84b20d0ef278407677acbe80111cbe6",
      "blockNumber": 105313,
      "transactionIndex": 1,
      "confirmations": null,
      "from": "0xe6A7a1d47ff21B6321162AEA7C6CB457D5476Bca",
      "gasPrice": {
        "_hex": "0xcd3f02cbc"
      },
      "gasLimit": {
        "_hex": "0x55f0"
      },
      "to": "0x1543667B9bad3e41865C3233E1764d8dda8E1F3D",
      "value": {
        "_hex": "0x221ee3b59feef010"
      },
      "nonce": 3673,
      "data": "0x",
      "r": "0x7737c05d7f005bbf257e3cb2fc54570769867e0cfa72716c359815090b70f139",
      "s": "0x2648a468658ffa27439832aa5968c47327b26b0ad2675b5a191084b7594a855b",
      "v": 27,
      "creates": null,
      "raw": "0xf86e820e59850cd3f02cbc8255f0941543667b9bad3e41865c3233e1764d8dda8e1f3d88221ee3b59feef010801ba07737c05d7f005bbf257e3cb2fc54570769867e0cfa72716c359815090b70f139a02648a468658ffa27439832aa5968c47327b26b0ad2675b5a191084b7594a855b",
      "networkId": 0,
      "chainId": 0
    },
    {
      "hash": "0x6861a9429d711019622c456b22685535aa7835600c6f8e772049b3fab02ba47c",
      "blockHash": "0x9ba6e8c1de167dcb2776dc9cabd92c22e84b20d0ef278407677acbe80111cbe6",
      "blockNumber": 105313,
      "transactionIndex": 2,
      "confirmations": null,
      "from": "0xe6A7a1d47ff21B6321162AEA7C6CB457D5476Bca",
      "gasPrice": {
        "_hex": "0xcd3f02cbc"
      },
      "gasLimit": {
        "_hex": "0x55f0"
      },
      "to": "0x3Fef71cB8Ac8711ECa473049D813b003A76D1eaA",
      "value": {
        "_hex": "0x2264e9e48a3a6c24"
      },
      "nonce": 3674,
      "data": "0x",
      "r": "0x2325726f1f003f793150c12ae8c1714b268b9f42bba7f882ce9c6f29858342c3",
      "s": "0x5469f44dda9558d635ccc3b3942c81f575492ecbaa61fb08fcc72b31e9f9136e",
      "v": 28,
      "creates": null,
      "raw": "0xf86e820e5a850cd3f02cbc8255f0943fef71cb8ac8711eca473049d813b003a76d1eaa882264e9e48a3a6c24801ca02325726f1f003f793150c12ae8c1714b268b9f42bba7f882ce9c6f29858342c3a05469f44dda9558d635ccc3b3942c81f575492ecbaa61fb08fcc72b31e9f9136e",
      "networkId": 0,
      "chainId": 0
    },
    {
      "hash": "0x112e046664e5efa5c29afff359191795de0c29c58651422365abe2ec1d1c8da5",
      "blockHash": "0x9ba6e8c1de167dcb2776dc9cabd92c22e84b20d0ef278407677acbe80111cbe6",
      "blockNumber": 105313,
      "transactionIndex": 3,
      "confirmations": null,
      "from": "0xe6A7a1d47ff21B6321162AEA7C6CB457D5476Bca",
      "gasPrice": {
        "_hex": "0xcd3f02cbc"
      },
      "gasLimit": {
        "_hex": "0x55f0"
      },
      "to": "0x1918175e6aB029996E0BC00238AeA5f89f3F84ad",
      "value": {
        "_hex": "0x226982ad4f7290b0"
      },
      "nonce": 3675,
      "data": "0x",
      "r": "0xaae2709970a1387982ea727801b638e94c692b475870b517b6942352515b0627",
      "s": "0x74d9b801936cd5834ab625a81c02959700315e0a10bce1e4f6448af66ec19f0d",
      "v": 28,
      "creates": null,
      "raw": "0xf86e820e5b850cd3f02cbc8255f0941918175e6ab029996e0bc00238aea5f89f3f84ad88226982ad4f7290b0801ca0aae2709970a1387982ea727801b638e94c692b475870b517b6942352515b0627a074d9b801936cd5834ab625a81c02959700315e0a10bce1e4f6448af66ec19f0d",
      "networkId": 0,
      "chainId": 0
    },
    {
      "hash": "0x27c8aa54bfad723a01d94a493cff5431340c131c4eab9841334d88eedb1bcebe",
      "blockHash": "0x9ba6e8c1de167dcb2776dc9cabd92c22e84b20d0ef278407677acbe80111cbe6",
      "blockNumber": 105313,
      "transactionIndex": 4,
      "confirmations": null,
      "from": "0xe6A7a1d47ff21B6321162AEA7C6CB457D5476Bca",
      "gasPrice": {
        "_hex": "0xcd3f02cbc"
      },
      "gasLimit": {
        "_hex": "0x55f0"
      },
      "to": "0x4fE031a312590cD9cC645aF0AE2AdC977D45cec9",
      "value": {
        "_hex": "0x227ab7ee9a1166c8"
      },
      "nonce": 3676,
      "data": "0x",
      "r": "0xeb1ba6ad53ffc64b82a1978c0a2df22feb9d2404016e63ce084b06c9f368db87",
      "s": "0x40949a607f40869686e8232e8d87ef10b35779859bdacd74b4db63f4bd39842a",
      "v": 28,
      "creates": null,
      "raw": "0xf86e820e5c850cd3f02cbc8255f0944fe031a312590cd9cc645af0ae2adc977d45cec988227ab7ee9a1166c8801ca0eb1ba6ad53ffc64b82a1978c0a2df22feb9d2404016e63ce084b06c9f368db87a040949a607f40869686e8232e8d87ef10b35779859bdacd74b4db63f4bd39842a",
      "networkId": 0,
      "chainId": 0
    },
    {
      "hash": "0xdcecc755a0c1ed3f64ff5c601e91ec268e0790b5746b80fb39c8d4aacd35f782",
      "blockHash": "0x9ba6e8c1de167dcb2776dc9cabd92c22e84b20d0ef278407677acbe80111cbe6",
      "blockNumber": 105313,
      "transactionIndex": 5,
      "confirmations": null,
      "from": "0xe6A7a1d47ff21B6321162AEA7C6CB457D5476Bca",
      "gasPrice": {
        "_hex": "0xcd3f02cbc"
      },
      "gasLimit": {
        "_hex": "0x55f0"
      },
      "to": "0x683FEDdafc2A8542744a4587DE0C45626D7B8E68",
      "value": {
        "_hex": "0x228a9b7c71fc0c70"
      },
      "nonce": 3677,
      "data": "0x",
      "r": "0xfeb7695f75d6735cfbf5f9d363a30294e153e40e12f1ec664ef2e0badb703dac",
      "s": "0x01546833be4c6d6d4246f547a7c508395e30208bd9c4cd055d6d540677c7ac0d",
      "v": 28,
      "creates": null,
      "raw": "0xf86e820e5d850cd3f02cbc8255f094683feddafc2a8542744a4587de0c45626d7b8e6888228a9b7c71fc0c70801ca0feb7695f75d6735cfbf5f9d363a30294e153e40e12f1ec664ef2e0badb703daca001546833be4c6d6d4246f547a7c508395e30208bd9c4cd055d6d540677c7ac0d",
      "networkId": 0,
      "chainId": 0
    },
    {
      "hash": "0x2a97c40c235aead3c858025d5dc84f052f5a8f11e396acc927667a690990aba5",
      "blockHash": "0x9ba6e8c1de167dcb2776dc9cabd92c22e84b20d0ef278407677acbe80111cbe6",
      "blockNumber": 105313,
      "transactionIndex": 6,
      "confirmations": null,
      "from": "0xe6A7a1d47ff21B6321162AEA7C6CB457D5476Bca",
      "gasPrice": {
        "_hex": "0xcd3f02cbc"
      },
      "gasLimit": {
        "_hex": "0x55f0"
      },
      "to": "0x9aB9F7a4B85412bfbe2f4F63b1C98808851C4F32",
      "value": {
        "_hex": "0x231af9a6244d7e14"
      },
      "nonce": 3678,
      "data": "0x",
      "r": "0xa7aa049c8134b7db9822aaef4ec9b192ce45d7f8e7523340243853d690b29ece",
      "s": "0x0781c4378dd0814539c5a68e4a7db2fa81b28c27fc700690300399119b180f07",
      "v": 28,
      "creates": null,
      "raw": "0xf86e820e5e850cd3f02cbc8255f0949ab9f7a4b85412bfbe2f4f63b1c98808851c4f3288231af9a6244d7e14801ca0a7aa049c8134b7db9822aaef4ec9b192ce45d7f8e7523340243853d690b29ecea00781c4378dd0814539c5a68e4a7db2fa81b28c27fc700690300399119b180f07",
      "networkId": 0,
      "chainId": 0
    },
    {
      "hash": "0x0830390dd7baedc88c6bf76be5e1cfa97829e63e46ae541b0e7e4ae8dee18e4b",
      "blockHash": "0x9ba6e8c1de167dcb2776dc9cabd92c22e84b20d0ef278407677acbe80111cbe6",
      "blockNumber": 105313,
      "transactionIndex": 7,
      "confirmations": null,
      "from": "0xe6A7a1d47ff21B6321162AEA7C6CB457D5476Bca",
      "gasPrice": {
        "_hex": "0xcd3f02cbc"
      },
      "gasLimit": {
        "_hex": "0x55f0"
      },
      "to": "0x20b2a17fFa355d7Bcb269812A39e8F57D750A5b3",
      "value": {
        "_hex": "0x2338c0581f39540c"
      },
      "nonce": 3679,
      "data": "0x",
      "r": "0xbfa19e8f7ecdd9a141c58edc5349d88a330bb6baf7590785fd703885cff481a2",
      "s": "0x1c82af5a3bb59edce1e1cc00a06dafd6045d5dd7c1475fb20f6d54a1e5c45a2d",
      "v": 28,
      "creates": null,
      "raw": "0xf86e820e5f850cd3f02cbc8255f09420b2a17ffa355d7bcb269812a39e8f57d750a5b3882338c0581f39540c801ca0bfa19e8f7ecdd9a141c58edc5349d88a330bb6baf7590785fd703885cff481a2a01c82af5a3bb59edce1e1cc00a06dafd6045d5dd7c1475fb20f6d54a1e5c45a2d",
      "networkId": 0,
      "chainId": 0
    },
    {
      "hash": "0x44dfff2efb07798544e631a394730c6d3fcde5f2ac7db7df0ed9b8661601288f",
      "blockHash": "0x9ba6e8c1de167dcb2776dc9cabd92c22e84b20d0ef278407677acbe80111cbe6",
      "blockNumber": 105313,
      "transactionIndex": 8,
      "confirmations": null,
      "from": "0xe6A7a1d47ff21B6321162AEA7C6CB457D5476Bca",
      "gasPrice": {
        "_hex": "0xcd3f02cbc"
      },
      "gasLimit": {
        "_hex": "0x55f0"
      },
      "to": "0x4245FB34599786Dd82dB47c0f4f2B276001a72CF",
      "value": {
        "_hex": "0x2378ed0c2fb9d3e4"
      },
      "nonce": 3680,
      "data": "0x",
      "r": "0xbf75cd04d0c1697980982a1b0c4075d4738c129747691fd1f7ffe25f57d00b0b",
      "s": "0x643bff5c03a4f4e2be1652630ae1432356ccce89ce3d66f45aef19619c086d26",
      "v": 27,
      "creates": null,
      "raw": "0xf86e820e60850cd3f02cbc8255f0944245fb34599786dd82db47c0f4f2b276001a72cf882378ed0c2fb9d3e4801ba0bf75cd04d0c1697980982a1b0c4075d4738c129747691fd1f7ffe25f57d00b0ba0643bff5c03a4f4e2be1652630ae1432356ccce89ce3d66f45aef19619c086d26",
      "networkId": 0,
      "chainId": 0
    },
    {
      "hash": "0x6e031f893db929c025e56ddbe39b997f5c377e0ba62af224a8be1b38533ae484",
      "blockHash": "0x9ba6e8c1de167dcb2776dc9cabd92c22e84b20d0ef278407677acbe80111cbe6",
      "blockNumber": 105313,
      "transactionIndex": 9,
      "confirmations": null,
      "from": "0xe6A7a1d47ff21B6321162AEA7C6CB457D5476Bca",
      "gasPrice": {
        "_hex": "0xcd3f02cbc"
      },
      "gasLimit": {
        "_hex": "0x55f0"
      },
      "to": "0x0A38ff322A11A9bA4f9a7C668F79025e8CEadc45",
      "value": {
        "_hex": "0x238b3abc1f8be740"
      },
      "nonce": 3681,
      "data": "0x",
      "r": "0x43934d55fa06062ce262e23707e587bae163c8719cca8f46e725f7d69d12e449",
      "s": "0x0db9e2fd8d8aea90a4e555130f11b25503ee1b4e96079575ec052f54a7f53044",
      "v": 28,
      "creates": null,
      "raw": "0xf86e820e61850cd3f02cbc8255f0940a38ff322a11a9ba4f9a7c668f79025e8ceadc4588238b3abc1f8be740801ca043934d55fa06062ce262e23707e587bae163c8719cca8f46e725f7d69d12e449a00db9e2fd8d8aea90a4e555130f11b25503ee1b4e96079575ec052f54a7f53044",
      "networkId": 0,
      "chainId": 0
    },
    {
      "hash": "0x3ce40ab551be6e91fc1105a149cc2312f9cd8c34fd76c07057afee8b81ceba0d",
      "blockHash": "0x9ba6e8c1de167dcb2776dc9cabd92c22e84b20d0ef278407677acbe80111cbe6",
      "blockNumber": 105313,
      "transactionIndex": 10,
      "confirmations": null,
      "from": "0xe6A7a1d47ff21B6321162AEA7C6CB457D5476Bca",
      "gasPrice": {
        "_hex": "0xcd3f02cbc"
      },
      "gasLimit": {
        "_hex": "0x55f0"
      },
      "to": "0x52Dc504a422f0E2A9e7632A34a50f1a82F8224c7",
      "value": {
        "_hex": "0x238b83142b2945fc"
      },
      "nonce": 3682,
      "data": "0x",
      "r": "0xbf08cbc2459e0046286335bb37d38eb8579b037f3179fa509950715813d7749d",
      "s": "0x5dac8b48d5b5a8090a9064eba01ba139698ff8720922d01785c7fd7b766cb7a6",
      "v": 27,
      "creates": null,
      "raw": "0xf86e820e62850cd3f02cbc8255f09452dc504a422f0e2a9e7632a34a50f1a82f8224c788238b83142b2945fc801ba0bf08cbc2459e0046286335bb37d38eb8579b037f3179fa509950715813d7749da05dac8b48d5b5a8090a9064eba01ba139698ff8720922d01785c7fd7b766cb7a6",
      "networkId": 0,
      "chainId": 0
    },
    {
      "hash": "0xe6c26b6d1bf46de4644fafcf77beb801c6cf6c2c369a52e49b5f36ae9f2e8cb3",
      "blockHash": "0x9ba6e8c1de167dcb2776dc9cabd92c22e84b20d0ef278407677acbe80111cbe6",
      "blockNumber": 105313,
      "transactionIndex": 11,
      "confirmations": null,
      "from": "0xe6A7a1d47ff21B6321162AEA7C6CB457D5476Bca",
      "gasPrice": {
        "_hex": "0xcd3f02cbc"
      },
      "gasLimit": {
        "_hex": "0x55f0"
      },
      "to": "0xb26EE724AA819BddDf6d87754C61669f000AbF6A",
      "value": {
        "_hex": "0x23d75b00e0df8f40"
      },
      "nonce": 3683,
      "data": "0x",
      "r": "0x0a57c0ba1990cf72f232693965842a9b30397a0fcf1f08375f78943bfa5a338d",
      "s": "0x6e2655e0bdf4265ff31787042031cfe6555d01bec43908c06f2dee7f7a00a94b",
      "v": 28,
      "creates": null,
      "raw": "0xf86e820e63850cd3f02cbc8255f094b26ee724aa819bdddf6d87754c61669f000abf6a8823d75b00e0df8f40801ca00a57c0ba1990cf72f232693965842a9b30397a0fcf1f08375f78943bfa5a338da06e2655e0bdf4265ff31787042031cfe6555d01bec43908c06f2dee7f7a00a94b",
      "networkId": 0,
      "chainId": 0
    }
  ]
}