{
  "hash": "0xb8ce48c4a4b9f947030adb168bbc0071425ea1d59b365b9cf2f605bf244f9ddb",
  "parentHash": "0x2f49184e339edfdcc6d5cbd5e8ba10a5aa6df41267cdbb2ed7e7e396a82db20e",
  "number": 62562,
  "timestamp": 1439190789,
  "nonce": "0x9cbc43567474a7f8",
  "difficulty": 1771948961319,
  "gasLimit": {
    "_hex": "0x2fefd8"
  },
  "gasUsed": {
    "_hex": "0x13906"
  },
  "miner": "0xbb7B8287f3F0a933474a79eAe42CBCa977791171",
  "extraData": "0x476574682f4c5649562f76312e302e312f6c696e75782f676f312e342e32",
  "transactions": [
    {
      "hash": "0x9b34ec71a645ab8020efddf66d2feb728c20369e711e5f75353d5344a6f0c3a6",
      "blockHash": "0xb8ce48c4a4b9f947030adb168bbc0071425ea1d59b365b9cf2f605bf244f9ddb",
      "blockNumber": 62562,
      "transactionIndex": 0,
      "confirmations": null,
      "from": "0xD9E6086071980fE3484b6BaABA07A10b47B046A6",
      "gasPrice": {
        "_hex": "0x1120ddffb37"
      },
      "gasLimit": {
        "_hex": "0x30d40"
      },
      "to": "0xfBc128067A2FE13C11BBC6cc55f29AA1F27630DA",
      "value": {
        "_hex": "0xde0b6b3a7640000"
      },
      "nonce": 5,
      "data": "0x",
      "r": "0x26a5206288eac44b47f51db050250a1e6285a0d6fcde156dd76c97c29380179e",
      "s": "0x2a0938e90fea3aeda812add40965633dd3a86af34bdfbecf9a1bbd6db926e6cb",
      "v": 28,
      "creates": null,
      "raw": "0xf86e058601120ddffb3783030d4094fbc128067a2fe13c11bbc6cc55f29aa1f27630da880de0b6b3a7640000801ca026a5206288eac44b47f51db050250a1e6285a0d6fcde156dd76c97c29380179ea02a0938e90fea3aeda812add40965633dd3a86af34bdfbecf9a1bbd6db926e6cb",
      "networkId": 0,
      "chainId": 0
    },
    {
      "hash": "0x1aae01cdd46cebd8aed7a979c5cfcd60eb5664b1c4d70a2bb2a280eb4ad53b30",
      "blockHash": "0xb8ce48c4a4b9f947030adb168bbc0071425ea1d59b365b9cf2f605bf244f9ddb",
      "blockNumber": 62562,
      "transactionIndex": 1,
      "confirmations": null,
      "from": "0xE2beA3e7d349ab64EBD9873418e78912e13CD35f",
      "gasPrice": {
        "_hex": "0xd6904da89"
      },
      "gasLimit": {
        "_hex": "0x15f90"
      },
      "to": "0x6C18EB3a3cbFc8fc6EeC1d80aB1d0dc5510FA0b1",
      "value": {
        "_hex": "0x38d7ea4c68000"
      },
      "nonce": 28,
      "data": "0xa55526db",
      "r": "0x7d87af2f6317dca818a0bc09f3efedbd16cb2be2ba8b135d927bedf15bbdb4e3",
      "s": "0x7cbb994835991b61376a6a138a1bc17e1456f0ec6dff2b39e74ab8e2dad00f67",
      "v": 27,
      "creates": null,
      "raw": "0xf8701c850d6904da8983015f90946c18eb3a3cbfc8fc6eec1d80ab1d0dc5510fa0b187038d7ea4c6800084a55526db1ba07d87af2f6317dca818a0bc09f3efedbd16cb2be2ba8b135d927bedf15bbdb4e3a07cbb994835991b61376a6a138a1bc17e1456f0ec6dff2b39e74ab8e2dad00f67",
      "networkId": 0,
      "chainId": 0
    }
  ]
}