{
  "hash": "0x5f890fe75b8a44e445fb32b3b26c9894b15d0758152950bb456d2b22080c1e7b",
  "parentHash": "0xa429281ef6649e6b0b2dfbce1a435ad9e4133580289f3629d98a016be70d0628",
  "number": 46531,
  "timestamp": 1438924658,
  "nonce": "0x70073b75ab4489d8",
  "difficulty": 1465353553577,
  "gasLimit": {
    "_hex": "0x66cd"
  },
  "gasUsed": {
    "_hex": "0x5208"
  },
  "miner": "0x3222BA3F3e79eA0e31467EEE7639B57923558cCD",
  "extraData": "0x476574682f76312e302e302f77696e646f77732f676f312e342e32",
  "transactions": [
    {
      "hash": "0x4a2042dd817031297440b8f419752aa8546237bf826b440cadf38eeccb7444bc",
      "blockHash": "0x5f890fe75b8a44e445fb32b3b26c9894b15d0758152950bb456d2b22080c1e7b",
      "blockNumber": 46531,
      "transactionIndex": 0,
      "confirmations": null,
      "from": "0x0785A86bE9c2D68DbAEbaf1DB72641680529E2FD",
      "gasPrice": {
        "_hex": "0x746a528800"
      },
      "gasLimit": {
        "_hex": "0x61a8"
      },
      "to": "0xe1F5B8dc9336BC9637eA97c3f3b13Cd363F88854",
      "value": {
        "_hex": "0x929589c9981040000"
      },
      "nonce": 0,
      "data": "0x",
      "r": "0x35391713e5622f672782024b4a1801f432723bdc9bbc23b9a3a5d7a56fb9d465",
      "s": "0x76335ad453694c2c8e2fab448fd7949a5881dc71bec785a14ac0caa6ff0d135f",
      "v": 28,
      "creates": null,
      "raw": "0xf86d8085746a5288008261a894e1f5b8dc9336bc9637ea97c3f3b13cd363f88854890929589c9981040000801ca035391713e5622f672782024b4a1801f432723bdc9bbc23b9a3a5d7a56fb9d465a076335ad453694c2c8e2fab448fd7949a5881dc71bec785a14ac0caa6ff0d135f",
      "networkId": 0,
      "chainId": 0
    }
  ]
}