{
  "hash": "0x2993b01df56b7b9c03578e551fe3ac1f75599d7a2b9cd09a1f9a3e3611ab6207",
  "parentHash": "0x261a82f5347580b01c58d5bf93d62fc32a45748e09bb6e09eb82f49621f71a20",
  "number": 110953,
  "timestamp": 1439982222,
  "nonce": "0x728a3e321ff51d39",
  "difficulty": 4418256043550,
  "gasLimit": {
    "_hex": "0x2fefd8"
  },
  "gasUsed": {
    "_hex": "0x5208"
  },
  "miner": "0xe6A7a1d47ff21B6321162AEA7C6CB457D5476Bca",
  "extraData": "0x476574682f76312e302e312d38326566323666362f6c696e75782f676f312e34",
  "transactions": [
    {
      "hash": "0xa722c43190746bd6f6f609f8e321d7a276dfb1b4e20ec83b3b5f978f9dfc5db4",
      "blockHash": "0x2993b01df56b7b9c03578e551fe3ac1f75599d7a2b9cd09a1f9a3e3611ab6207",
      "blockNumber": 110953,
      "transactionIndex": 0,
      "confirmations": null,
      "from": "0xa6BDc31c431B8F97848c9D60cbbe9660dc450eB7",
      "gasPrice": {
        "_hex": "0xccecaa228"
      },
      "gasLimit": {
        "_hex": "0x5208"
      },
      "to": "0x32Be343B94f860124dC4fEe278FDCBD38C102D88",
      "value": {
        "_hex": "0x478a936ab5828400"
      },
      "nonce": 195,
      "data": "0x",
      "r": "0x6624349727cd9ef5b50ee320107297b92ce8911b353ce82c015a93a815c95e8e",
      "s": "0x09a1baaaf9a1bdb44f0d7af370768ff41d1e7cdb0d34fa243f7fa7e337d0f482",
      "v": 27,
      "creates": null,
      "raw": "0xf86d81c3850ccecaa2288252089432be343b94f860124dc4fee278fdcbd38c102d8888478a936ab5828400801ba06624349727cd9ef5b50ee320107297b92ce8911b353ce82c015a93a815c95e8ea009a1baaaf9a1bdb44f0d7af370768ff41d1e7cdb0d34fa243f7fa7e337d0f482",
      "networkId": 0,
      "chainId": 0
    }
  ]
}