{
  "hash": "0xa8dccbca7728804a4cc28c67feb544b41b6cdd731d014c39c6aacdd88ae82438",
  "parentHash": "0xec90550312ff63b8db994140179d4b4d42cca5f2866c69c8111fdba2014fe4af",
  "number": 114714,
  "timestamp": 1440045023,
  "nonce": "0x94ac67278a83a678",
  "difficulty": 4474883449360,
  "gasLimit": {
    "_hex": "0x2fefd8"
  },
  "gasUsed": {
    "_hex": "0x5208"
  },
  "miner": "0xe6A7a1d47ff21B6321162AEA7C6CB457D5476Bca",
  "extraData": "0x476574682f76312e302e312d38326566323666362f6c696e75782f676f312e34",
  "transactions": [
    {
      "hash": "0xe10e81c2b9390bb270a5bfdea20026972bc4f8a08f5ac591aeaba4e479d3e5a1",
      "blockHash": "0xa8dccbca7728804a4cc28c67feb544b41b6cdd731d014c39c6aacdd88ae82438",
      "blockNumber": 114714,
      "transactionIndex": 0,
      "confirmations": null,
      "from": "0x0379A72424E50f656bc46BC7857a9722B9635Dea",
      "gasPrice": {
        "_hex": "0xba43b7400"
      },
      "gasLimit": {
        "_hex": "0x5208"
      },
      "to": "0xC47Aaa860008be6f65B58c6C6E02a84e666EfE31",
      "value": {
        "_hex": "0xddcfbbb7a606000"
      },
      "nonce": 0,
      "data": "0x",
      "r": "0x511cdd48d5986197f3250a4abf185cc8d3d5a9ff15cecbdfb76033b2442df0c1",
      "s": "0x692749aeeea5b7cb357caf6bc712d10991fdbd1a3df0f28f6a5ed6aa52582fe1",
      "v": 27,
      "creates": null,
      "raw": "0xf86c80850ba43b740082520894c47aaa860008be6f65b58c6c6e02a84e666efe31880ddcfbbb7a606000801ba0511cdd48d5986197f3250a4abf185cc8d3d5a9ff15cecbdfb76033b2442df0c1a0692749aeeea5b7cb357caf6bc712d10991fdbd1a3df0f28f6a5ed6aa52582fe1",
      "networkId": 0,
      "chainId": 0
    }
  ]
}