{
  "hash": "0xcc8d8df6606814a7e989838b8e6d7b2241a740924073c1bd855dee702b20e6b0",
  "parentHash": "0xddb10863641cceb50d9890e91fe202315139cfde137cb07cd2222b2b8ef74652",
  "number": 93625,
  "timestamp": 1439694657,
  "nonce": "0xf2d862eef9350a8b",
  "difficulty": 3454797421647,
  "gasLimit": {
    "_hex": "0x2fefd8"
  },
  "gasUsed": {
    "_hex": "0xf618"
  },
  "miner": "0xbb7B8287f3F0a933474a79eAe42CBCa977791171",
  "extraData": "0x476574682f4c5649562f76312e302e312f6c696e75782f676f312e342e32",
  "transactions": [
    {
      "hash": "0xa4b32a78c193b865a31cd02bcfb9a06bde640e67ad83f676ec8f9b2972341d97",
      "blockHash": "0xcc8d8df6606814a7e989838b8e6d7b2241a740924073c1bd855dee702b20e6b0",
      "blockNumber": 93625,
      "transactionIndex": 0,
      "confirmations": null,
      "from": "0x47e25df8822538a8596b28c637896B4D143c351D",
      "gasPrice": {
        "_hex": "0xd8364fc25"
      },
      "gasLimit": {
        "_hex": "0x15f90"
      },
      "to": "0x2878c60b86FBf89645547fEcFA7f74B067f32E52",
      "value": {
        "_hex": "0x4563918244f40000"
      },
      "nonce": 0,
      "data": "0x",
      "r": "0xe3566c120e58b5413d484f63366388dd878d86ab3274511c9aee14c5f9b8c691",
      "s": "0x2a81d0487c5c9a0e6c9026736168ed92bcae8171a41f90a54c3b6a2a743e4b21",
      "v": 28,
      "creates": null,
      "raw": "0xf86d80850d8364fc2583015f90942878c60b86fbf89645547fecfa7f74b067f32e52884563918244f40000801ca0e3566c120e58b5413d484f63366388dd878d86ab3274511c9aee14c5f9b8c691a02a81d0487c5c9a0e6c9026736168ed92bcae8171a41f90a54c3b6a2a743e4b21",
      "networkId": 0,
      "chainId": 0
    },
    {
      "hash": "0xc58acf1274be0a9852aac98e73bbe3e9b780db9cf4deb27cb9be850fa6caaf04",
      "blockHash": "0xcc8d8df6606814a7e989838b8e6d7b2241a740924073c1bd855dee702b20e6b0",
      "blockNumber": 93625,
      "transactionIndex": 1,
      "confirmations": null,
      "from": "0x0D123Cb78ef69F3189d4b5bD0b091e79EF0Ce877",
      "gasPrice": {
        "_hex": "0xce06878b5"
      },
      "gasLimit": {
        "_hex": "0x5208"
      },
      "to": "0x32Be343B94f860124dC4fEe278FDCBD38C102D88",
      "value": {
        "_hex": "0x21e19dca9712fc00000"
      },
      "nonce": 2,
      "data": "0x",
      "r": "0x05538bb43329c93bd55e46a3484a435d53d25416ce6e86841ede7ac5d7c68270",
      "s": "0x5086b92c645461e955f77b1a05a0d1ac44cf7c7b7dccfdf9fd4e35ca5c7aa5a1",
      "v": 28,
      "creates": null,
      "raw": "0xf86e02850ce06878b58252089432be343b94f860124dc4fee278fdcbd38c102d888a021e19dca9712fc00000801ca005538bb43329c93bd55e46a3484a435d53d25416ce6e86841ede7ac5d7c68270a05086b92c645461e955f77b1a05a0d1ac44cf7c7b7dccfdf9fd4e35ca5c7aa5a1",
      "networkId": 0,
      "chainId": 0
    },
    {
      "hash": "0xfabc468715f706c5f98dcbcb09aa80a375671d5247da4da6ebef4424554e62d6",
      "blockHash": "0xcc8d8df6606814a7e989838b8e6d7b2241a740924073c1bd855dee702b20e6b0",
      "blockNumber": 93625,
      "transactionIndex": 2,
      "confirmations": null,
      "from": "0x4E56D55C77DB136de89EEcCF3754A634a9b8898C",
      "gasPrice": {
        "_hex": "0xce06878b5"
      },
      "gasLimit": {
        "_hex": "0x5208"
      },
      "to": "0x32Be343B94f860124dC4fEe278FDCBD38C102D88",
      "value": {
        "_hex": "0x4e0fc1adf56b6c000"
      },
      "nonce": 1,
      "data": "0x",
      "r": "0xa7be2e558e21eeba998cb07ed169e96287af1c11911e48b9161eda82d8188d3f",
      "s": "0x0721a57f3c8409cf8db60e6698d186321731a39413034c6c6b4ac88983374768",
      "v": 27,
      "creates": null,
      "raw": "0xf86d01850ce06878b58252089432be343b94f860124dc4fee278fdcbd38c102d888904e0fc1adf56b6c000801ba0a7be2e558e21eeba998cb07ed169e96287af1c11911e48b9161eda82d8188d3fa00721a57f3c8409cf8db60e6698d186321731a39413034c6c6b4ac88983374768",
      "networkId": 0,
      "chainId": 0
    }
  ]
}