{
  "hash": "0xaa61ed500f99868309ba14b11e3af9c20bc33c99bcbc5323cf5d941be802d1d7",
  "parentHash": "0x569f1da84eead3d74dc9c5b57499b9ac64d3386bc734a269fff25b21ea3ba326",
  "number": 71015,
  "timestamp": 1439329086,
  "nonce": "0xca188f2846f0eb91",
  "difficulty": 2157232811376,
  "gasLimit": {
    "_hex": "0x2fefd8"
  },
  "gasUsed": {
    "_hex": "0x9400"
  },
  "miner": "0xf927a40C8B7F6E07c5af7FA2155B4864a4112B13",
  "extraData": "0x",
  "transactions": [
    {
      "hash": "0xefd1cee138f50d9a0c022a2fe88426ef29f8ab51dcc955fbb03afb1a91cd671d",
      "blockHash": "0xaa61ed500f99868309ba14b11e3af9c20bc33c99bcbc5323cf5d941be802d1d7",
      "blockNumber": 71015,
      "transactionIndex": 0,
      "confirmations": null,
      "from": "0x17580B766f7453525ca4C6A88b01b50570EA088C",
      "gasPrice": {
        "_hex": "0xd6074170b"
      },
      "gasLimit": {
        "_hex": "0x61a80"
      },
      "to": "0x5Fe5B7546D1628f7348B023A0393de1FC825A4fD",
      "value": {
        "_hex": "0x3782dace9d900000"
      },
      "nonce": 79,
      "data": "0xb595b8b50000000000000000000000000000000000000000000000000000000000000001",
      "r": "0x6b738ffa0e1eea01f7cbbf20ac50a094b81a2580851a59c164b0b3ebd2bc60b1",
      "s": "0x515531995c95e4b54e1be2d278a019bac7647f560d74b9c1e2d5299ecc34acd9",
      "v": 27,
      "creates": null,
      "raw": "0xf8914f850d6074170b83061a80945fe5b7546d1628f7348b023a0393de1fc825a4fd883782dace9d900000a4b595b8b500000000000000000000000000000000000000000000000000000000000000011ba06b738ffa0e1eea01f7cbbf20ac50a094b81a2580851a59c164b0b3ebd2bc60b1a0515531995c95e4b54e1be2d278a019bac7647f560d74b9c1e2d5299ecc34acd9",
      "networkId": 0,
      "chainId": 0
    }
  ]
}