{
  "hash": "0x411e7e4a95b4de3f8972033288b004bad4c51912b8167de9f96bd7206dc14a59",
  "parentHash": "0xaddac7bd9d380dcbe70fcd2145b6456d597c620c398e638c77053c011fe91a97",
  "number": 50526,
  "timestamp": 1438990673,
  "nonce": "0x833a430d294ef5e8",
  "difficulty": 1514842865723,
  "gasLimit": {
    "_hex": "0x684de"
  },
  "gasUsed": {
    "_hex": "0xddfd"
  },
  "miner": "0x0CF120528A0300e8638EB751d18FDD564ba17984",
  "extraData": "0x",
  "transactions": [
    {
      "hash": "0x6da4ae90108cda5b836541634cb426c5d99835c0a600ee6cb6ffd980c8955c46",
      "blockHash": "0x411e7e4a95b4de3f8972033288b004bad4c51912b8167de9f96bd7206dc14a59",
      "blockNumber": 50526,
      "transactionIndex": 0,
      "confirmations": null,
      "from": "0xa7247c53D059EB7c9310F628d7Fc6c6A0a773f08",
      "gasPrice": {
        "_hex": "0xcf2d27498"
      },
      "gasLimit": {
        "_hex": "0x30d40"
      },
      "to": "0x109C4f2CCc82C4d77Bde15F306707320294Aea3F",
      "value": {
        "_hex": "0xde0b6b3a7640000"
      },
      "nonce": 2,
      "data": "0x",
      "r": "0x717c6c4c9f93b2c48600022ba6552c905f6d632fe20e858fefc33bd88d5b4bf4",
      "s": "0x67c7c8fcac1a18efeef781adbb620c9e77dbbba89c513e11eb2ca05f6efef022",
      "v": 27,
      "creates": null,
      "raw": "0xf86d02850cf2d2749883030d4094109c4f2ccc82c4d77bde15f306707320294aea3f880de0b6b3a7640000801ba0717c6c4c9f93b2c48600022ba6552c905f6d632fe20e858fefc33bd88d5b4bf4a067c7c8fcac1a18efeef781adbb620c9e77dbbba89c513e11eb2ca05f6efef022",
      "networkId": 0,
      "chainId": 0
    }
  ]
}