{
  "hash": "0xc82bec8ce108800cf401b3bd049ccd742e91bed8fb201b35aed0ddf050849be8",
  "parentHash": "0x060b384a474f75816e265330b529301bb789a81000c71631b20588ec22dfd1a9",
  "number": 64940,
  "timestamp": 1439228715,
  "nonce": "0x635e329e52691b49",
  "difficulty": 1911653262622,
  "gasLimit": {
    "_hex": "0x2fefd5"
  },
  "gasUsed": {
    "_hex": "0xf7f4"
  },
  "miner": "0x47ff6576639c2e94762eA5443978D7681C0E78DC",
  "extraData": "0x476574682f76312e302e312f6c696e75782f676f312e342e32",
  "transactions": [
    {
      "hash": "0x0d226a7e70554c49c87fb445e7c9ce4f1da52891e828c8a0a72ab6668149661c",
      "blockHash": "0xc82bec8ce108800cf401b3bd049ccd742e91bed8fb201b35aed0ddf050849be8",
      "blockNumber": 64940,
      "transactionIndex": 0,
      "confirmations": null,
      "from": "0x0a3DE155d5Ecd8E81C1Ff9BBF0378301f8d4C623",
      "gasPrice": {
        "_hex": "0xdcf73ecbd"
      },
      "gasLimit": {
        "_hex": "0x55f0"
      },
      "to": "0xB2423E4Aeca605283fA6a9CAab01325d1C71CA7D",
      "value": {
        "_hex": "0x16345785d8a0000"
      },
      "nonce": 4,
      "data": "0x676f617447656e",
      "r": "0xbd67b2b24cc577b9d90cd493cfd2cc366605e4b47565402f2aa303649006e509",
      "s": "0x05b39eb6dffea3db49b03a5c2e3bc6c940c71ff4b2b9892f1017c2e139465888",
      "v": 27,
      "creates": null,
      "raw": "0xf87304850dcf73ecbd8255f094b2423e4aeca605283fa6a9caab01325d1c71ca7d88016345785d8a000087676f617447656e1ba0bd67b2b24cc577b9d90cd493cfd2cc366605e4b47565402f2aa303649006e509a005b39eb6dffea3db49b03a5c2e3bc6c940c71ff4b2b9892f1017c2e139465888",
      "networkId": 0,
      "chainId": 0
    },
    {
      "hash": "0xd02f57b376e51885c6b7f69a95519ed53ead56c1c2164ec715d0d57830beb082",
      "blockHash": "0xc82bec8ce108800cf401b3bd049ccd742e91bed8fb201b35aed0ddf050849be8",
      "blockNumber": 64940,
      "transactionIndex": 1,
      "confirmations": null,
      "from": "0xE627048aE81E90BA47f83A0934dDc1edc38291f9",
      "gasPrice": {
        "_hex": "0xba43b7400"
      },
      "gasLimit": {
        "_hex": "0x5208"
      },
      "to": "0x2b53f3D020aDeB84BdD5A8E25bc7AC263BabDEc4",
      "value": {
        "_hex": "0x1072bbac261c000"
      },
      "nonce": 1,
      "data": "0x",
      "r": "0x8ccec8c955f7ea19cde2402c215996fdfcea2652943879702c534fc18382ac65",
      "s": "0x0dec33f36487baa173115a44a1f675457ebc0c9184019763372f494792cf4e16",
      "v": 28,
      "creates": null,
      "raw": "0xf86c01850ba43b7400825208942b53f3d020adeb84bdd5a8e25bc7ac263babdec48801072bbac261c000801ca08ccec8c955f7ea19cde2402c215996fdfcea2652943879702c534fc18382ac65a00dec33f36487baa173115a44a1f675457ebc0c9184019763372f494792cf4e16",
      "networkId": 0,
      "chainId": 0
    },
    {
      "hash": "0x9fd0e874e55030c40ba4c78766ea5e6c282fc665733894f2fe23f5961eadb7a7",
      "blockHash": "0xc82bec8ce108800cf401b3bd049ccd742e91bed8fb201b35aed0ddf050849be8",
      "blockNumber": 64940,
      "transactionIndex": 2,
      "confirmations": null,
      "from": "0x6822c17D48e8198dFE567c07783d155529d0EAB8",
      "gasPrice": {
        "_hex": "0xba43b7400"
      },
      "gasLimit": {
        "_hex": "0x5208"
      },
      "to": "0x6994b8A5Ae7C04aA8B05e3B2B6D91D83CA0bb85E",
      "value": {
        "_hex": "0x163b86e28a38000"
      },
      "nonce": 1,
      "data": "0x",
      "r": "0x7447ba243317266b05edfdaca5bf24911aaba3437eecf1aa1d6afe11f7b17a2b",
      "s": "0x2e7271eb3bc8c1758f4bd198a3acb4379a0c2cec25b2edab242352ff78d15aa8",
      "v": 27,
      "creates": null,
      "raw": "0xf86c01850ba43b7400825208946994b8a5ae7c04aa8b05e3b2b6d91d83ca0bb85e880163b86e28a38000801ba07447ba243317266b05edfdaca5bf24911aaba3437eecf1aa1d6afe11f7b17a2ba02e7271eb3bc8c1758f4bd198a3acb4379a0c2cec25b2edab242352ff78d15aa8",
      "networkId": 0,
      "chainId": 0
    }
  ]
}