{
  "hash": "0x00f4c9b466dd5622e2399f6e243541c64b3fc472805deda06fa11bd288d985b8",
  "parentHash": "0xb3d889a280b0e329791fe9815f33dbd6f48b6a8acce17aa86f8c8099a0ad4e74",
  "number": 52455,
  "timestamp": 1439021808,
  "nonce": "0xb1334a81fc528dfa",
  "difficulty": 1569451654807,
  "gasLimit": {
    "_hex": "0x13e63c"
  },
  "gasUsed": {
    "_hex": "0x5208"
  },
  "miner": "0x1217627fe41A00f0b828317F43E6d58F47dBfc43",
  "extraData": "0x476574682f76312e302e302d66313265303136312f6c696e75782f676f312e34",
  "transactions": [
    {
      "hash": "0x90658d3ca6ec8bf372abbf4d260eff54582820f3bcc6f455bcd98de1b00ecbb5",
      "blockHash": "0x00f4c9b466dd5622e2399f6e243541c64b3fc472805deda06fa11bd288d985b8",
      "blockNumber": 52455,
      "transactionIndex": 0,
      "confirmations": null,
      "from": "0x5562e886dF729822Ef77862A12f4631658cEa98e",
      "gasPrice": {
        "_hex": "0xda3dc41fa"
      },
      "gasLimit": {
        "_hex": "0x5208"
      },
      "to": "0x32Be343B94f860124dC4fEe278FDCBD38C102D88",
      "value": {
        "_hex": "0x3635c54edba4580000"
      },
      "nonce": 0,
      "data": "0x",
      "r": "0x60bf2c9b20a13aa87051ae265be8d664dfab890e3f7fbf8091997b2beae10168",
      "s": "0x788a73210d7240a14a22adcce6651e25fca0ca086e478ba1671f96c0ec98a308",
      "v": 28,
      "creates": null,
      "raw": "0xf86d80850da3dc41fa8252089432be343b94f860124dc4fee278fdcbd38c102d88893635c54edba4580000801ca060bf2c9b20a13aa87051ae265be8d664dfab890e3f7fbf8091997b2beae10168a0788a73210d7240a14a22adcce6651e25fca0ca086e478ba1671f96c0ec98a308",
      "networkId": 0,
      "chainId": 0
    }
  ]
}