{
  "hash": "0x4088c6f31e843c67b25bff5b17a6bb6c79cfa757192b561557766096edbd1321",
  "parentHash": "0x5752ab4c23db2c873b7845f21e1b137ff42a4b268acb9496ac80882d94fec934",
  "number": 90260,
  "timestamp": 1439637213,
  "nonce": "0x9b087375f061bd48",
  "difficulty": 3299524077071,
  "gasLimit": {
    "_hex": "0x2fefd8"
  },
  "gasUsed": {
    "_hex": "0x5208"
  },
  "miner": "0xf8E0CA3Ed80bd541b94BEdCf259e8CF2141A9523",
  "extraData": "0x476574682f76312e302e312f77696e646f77732f676f312e342e32",
  "transactions": [
    {
      "hash": "0xaa0549707166e05d5dd0dff0be6d1ca1ca27819326c3a1676f6a379a852a98db",
      "blockHash": "0x4088c6f31e843c67b25bff5b17a6bb6c79cfa757192b561557766096edbd1321",
      "blockNumber": 90260,
      "transactionIndex": 0,
      "confirmations": null,
      "from": "0xAF654b2845616930f74573a909B477E23752DcA4",
      "gasPrice": {
        "_hex": "0xba43b7400"
      },
      "gasLimit": {
        "_hex": "0x5266"
      },
      "to": "0x0000000000000000000000000000000000000000",
      "value": {
        "_hex": "0xf7064db109f40000"
      },
      "nonce": 3,
      "data": "0x",
      "r": "0xdb92d226f28b140e4696e4889064987bc70850a5f12ef3133d5e76d6df9facc6",
      "s": "0x5b0d673a63bb21bbece1c330692c3cac8cede24c1b90bfcf259d716327bb09b2",
      "v": 28,
      "creates": null,
      "raw": "0xf86c03850ba43b740082526694000000000000000000000000000000000000000088f7064db109f40000801ca0db92d226f28b140e4696e4889064987bc70850a5f12ef3133d5e76d6df9facc6a05b0d673a63bb21bbece1c330692c3cac8cede24c1b90bfcf259d716327bb09b2",
      "networkId": 0,
      "chainId": 0
    }
  ]
}