{
  "hash": "0x035a60d2fae53db37f1ae8a6c6f64154ae395b53b0d0616ecaca9cec56976159",
  "parentHash": "0x582bcac7e836a837dbed99348d191ca79f1d1142de3bcf32dc760207fe0bf46c",
  "number": 69841,
  "timestamp": 1439310616,
  "nonce": "0xeb97047c33ce6189",
  "difficulty": 2097289782632,
  "gasLimit": {
    "_hex": "0x2fefd8"
  },
  "gasUsed": {
    "_hex": "0x5208"
  },
  "miner": "0xe6A7a1d47ff21B6321162AEA7C6CB457D5476Bca",
  "extraData": "0x476574682f76312e302e312d38326566323666362f6c696e75782f676f312e34",
  "transactions": [
    {
      "hash": "0x6b64933130ed17b005ae6ee203dc0193702af4a6878d53b18cc3af74e9a07073",
      "blockHash": "0x035a60d2fae53db37f1ae8a6c6f64154ae395b53b0d0616ecaca9cec56976159",
      "blockNumber": 69841,
      "transactionIndex": 0,
      "confirmations": null,
      "from": "0x02E816AFC1b5C0f39852131959D946eb3b07b5ad",
      "gasPrice": {
        "_hex": "0xd641f460d"
      },
      "gasLimit": {
        "_hex": "0x15f90"
      },
      "to": "0x775e18be7A50a0Abb8A4e82B1bD697D79F31fE04",
      "value": {
        "_hex": "0x1bc16d674ec80000"
      },
      "nonce": 2,
      "data": "0x",
      "r": "0xfae6f8d0e784050295ae7fb2a21a4d93ab14a97ca1935336385e426344e58547",
      "s": "0x594a7c9ea731be60da9438d9734aa2720840fe7bcd2e8da40ac5ed7ca9ea3d68",
      "v": 27,
      "creates": null,
      "raw": "0xf86d02850d641f460d83015f9094775e18be7a50a0abb8a4e82b1bd697d79f31fe04881bc16d674ec80000801ba0fae6f8d0e784050295ae7fb2a21a4d93ab14a97ca1935336385e426344e58547a0594a7c9ea731be60da9438d9734aa2720840fe7bcd2e8da40ac5ed7ca9ea3d68",
      "networkId": 0,
      "chainId": 0
    }
  ]
}