{
  "hash": "0x1f4c47f314181dbb7e93d926c6b20903126b853f18848671e1589356ca6d441a",
  "parentHash": "0x2f86794783610b4cb70b53dc1fc2e6cf10a7d04621db304499c2bd929515cad1",
  "number": 105376,
  "timestamp": 1439886409,
  "nonce": "0x12e281b174ddd61c",
  "difficulty": 4376091529562,
  "gasLimit": {
    "_hex": "0x2fefd8"
  },
  "gasUsed": {
    "_hex": "0x23e38"
  },
  "miner": "0x7e8504a5e26df87f6D26fA1ba148BE146F42775A",
  "extraData": "0x476574682f76312e302e312f77696e646f77732f676f312e342e32",
  "transactions": [
    {
      "hash": "0x3ef8e490957f33ab9a4a030e95c3a5df453f9a6d3ec969987a164640e3c61b4c",
      "blockHash": "0x1f4c47f314181dbb7e93d926c6b20903126b853f18848671e1589356ca6d441a",
      "blockNumber": 105376,
      "transactionIndex": 0,
      "confirmations": null,
      "from": "0x007f7f58D3eb5b7510A301eCC749FC1fCDDBE14D",
      "gasPrice": {
        "_hex": "0xde90f59a8"
      },
      "gasLimit": {
        "_hex": "0x15f90"
      },
      "to": "0xb1abce2918E21ddb93AA452731a12672A3d9F75a",
      "value": {
        "_hex": "0x4563918244f40000"
      },
      "nonce": 253,
      "data": "0x",
      "r": "0xe20d4db4a1bab1fa6f4d71fce6fd76b45b86ecf5e26ae3df9a4bafe3f83aa7e4",
      "s": "0x72bd4d12e1623f01cc23e8315c2543a4e0059adce96dee85c44a8e012100ba38",
      "v": 28,
      "creates": null,
      "raw": "0xf86e81fd850de90f59a883015f9094b1abce2918e21ddb93aa452731a12672a3d9f75a884563918244f40000801ca0e20d4db4a1bab1fa6f4d71fce6fd76b45b86ecf5e26ae3df9a4bafe3f83aa7e4a072bd4d12e1623f01cc23e8315c2543a4e0059adce96dee85c44a8e012100ba38",
      "networkId": 0,
      "chainId": 0
    },
    {
      "hash": "0x1eebfe7b5694c7b2db7748d781c6cf14af980c5c2206c5df53186bb8d836fdb1",
      "blockHash": "0x1f4c47f314181dbb7e93d926c6b20903126b853f18848671e1589356ca6d441a",
      "blockNumber": 105376,
      "transactionIndex": 1,
      "confirmations": null,
      "from": "0xB415e74b9b5B2058EF3541265aaF7ce09C4953bc",
      "gasPrice": {
        "_hex": "0xd32cdd71b"
      },
      "gasLimit": {
        "_hex": "0x5208"
      },
      "to": "0x32Be343B94f860124dC4fEe278FDCBD38C102D88",
      "value": {
        "_hex": "0xb3a4b9f27709c000"
      },
      "nonce": 7,
      "data": "0x",
      "r": "0x27bfde969fe83fb86400a3b86081ba5d0c4fedccd25cdc5fadb46fbe1e08c934",
      "s": "0x363283924902a222a63c7851f23b96b9c3c210f82d705975561ce51f59eecd2e",
      "v": 28,
      "creates": null,
      "raw": "0xf86c07850d32cdd71b8252089432be343b94f860124dc4fee278fdcbd38c102d8888b3a4b9f27709c000801ca027bfde969fe83fb86400a3b86081ba5d0c4fedccd25cdc5fadb46fbe1e08c934a0363283924902a222a63c7851f23b96b9c3c210f82d705975561ce51f59eecd2e",
      "networkId": 0,
      "chainId": 0
    },
    {
      "hash": "0x031e2f2734487a049bbd1c4bfd37c5d1a91ade6b17283d8c9c924710d20e8ac2",
      "blockHash": "0x1f4c47f314181dbb7e93d926c6b20903126b853f18848671e1589356ca6d441a",
      "blockNumber": 105376,
      "transactionIndex": 2,
      "confirmations": null,
      "from": "0xC15233674F0Cb7729e4Ab8aB733430C40580914d",
      "gasPrice": {
        "_hex": "0xd32cdd71b"
      },
      "gasLimit": {
        "_hex": "0x5208"
      },
      "to": "0x32Be343B94f860124dC4fEe278FDCBD38C102D88",
      "value": {
        "_hex": "0x485b0753c62d0400"
      },
      "nonce": 7,
      "data": "0x",
      "r": "0x25a9db1125a5ba5584d021e8f56300c5f47bce4fb810e157b79cce1e1fac7b53",
      "s": "0x5098bafb6271367143140dee0004be19bbeaa014ce96dd881dba41e7c5265ea0",
      "v": 28,
      "creates": null,
      "raw": "0xf86c07850d32cdd71b8252089432be343b94f860124dc4fee278fdcbd38c102d8888485b0753c62d0400801ca025a9db1125a5ba5584d021e8f56300c5f47bce4fb810e157b79cce1e1fac7b53a05098bafb6271367143140dee0004be19bbeaa014ce96dd881dba41e7c5265ea0",
      "networkId": 0,
      "chainId": 0
    },
    {
      "hash": "0x7b91a6eb4b61d7178d0b5d2ae66f08f52bd0c7736447440d818a70699118678c",
      "blockHash": "0x1f4c47f314181dbb7e93d926c6b20903126b853f18848671e1589356ca6d441a",
      "blockNumber": 105376,
      "transactionIndex": 3,
      "confirmations": null,
      "from": "0xe6A7a1d47ff21B6321162AEA7C6CB457D5476Bca",
      "gasPrice": {
        "_hex": "0xcb06a0a87"
      },
      "gasLimit": {
        "_hex": "0x55f0"
      },
      "to": "0x663555F143e6a4674c0FdF2e73f12fdaf5D51112",
      "value": {
        "_hex": "0x11f05f9c32e23dc8"
      },
      "nonce": 4049,
      "data": "0x",
      "r": "0xc713c64a23b5be2787243d856efc2dd25af09ba564c14b469001181fcbc24a8a",
      "s": "0x2649a6c23345a9d2d7153db43e85fbf840dc6dc6c9076ae40dcd9d1965811321",
      "v": 27,
      "creates": null,
      "raw": "0xf86e820fd1850cb06a0a878255f094663555f143e6a4674c0fdf2e73f12fdaf5d511128811f05f9c32e23dc8801ba0c713c64a23b5be2787243d856efc2dd25af09ba564c14b469001181fcbc24a8aa02649a6c23345a9d2d7153db43e85fbf840dc6dc6c9076ae40dcd9d1965811321",
      "networkId": 0,
      "chainId": 0
    },
    {
      "hash": "0x899ae8acb87f50de8d722c0b0b372d2d413a8c9b7bb90b736517953625d5a03c",
      "blockHash": "0x1f4c47f314181dbb7e93d926c6b20903126b853f18848671e1589356ca6d441a",
      "blockNumber": 105376,
      "transactionIndex": 4,
      "confirmations": null,
      "from": "0xe6A7a1d47ff21B6321162AEA7C6CB457D5476Bca",
      "gasPrice": {
        "_hex": "0xcb06a0a87"
      },
      "gasLimit": {
        "_hex": "0x55f0"
      },
      "to": "0x6923f88FCDC5D737237Ba10C2D830Aa40F4634de",
      "value": {
        "_hex": "0x18cdd7f3fa89c2c0"
      },
      "nonce": 4050,
      "data": "0x",
      "r": "0xa84c831d377ac1484737b759a94db81b26714cc33d0aa97657282db5bde0935f",
      "s": "0x0c80259194b946f8b253cf31d1b80821c0c5c394b3b29f1a40698fb10af67823",
      "v": 27,
      "creates": null,
      "raw": "0xf86e820fd2850cb06a0a878255f0946923f88fcdc5d737237ba10c2d830aa40f4634de8818cdd7f3fa89c2c0801ba0a84c831d377ac1484737b759a94db81b26714cc33d0aa97657282db5bde0935fa00c80259194b946f8b253cf31d1b80821c0c5c394b3b29f1a40698fb10af67823",
      "networkId": 0,
      "chainId": 0
    },
    {
      "hash": "0xd10f6165eff8b2798f49e3b029955c6bc8bfb79a9ad31e2b40e7f0a820a2cfed",
      "blockHash": "0x1f4c47f314181dbb7e93d926c6b20903126b853f18848671e1589356ca6d441a",
      "blockNumber": 105376,
      "transactionIndex": 5,
      "confirmations": null,
      "from": "0xe6A7a1d47ff21B6321162AEA7C6CB457D5476Bca",
      "gasPrice": {
        "_hex": "0xcb06a0a87"
      },
      "gasLimit": {
        "_hex": "0x55f0"
      },
      "to": "0x006c2D0A03D20a1e9B838594F03FC81603e9d350",
      "value": {
        "_hex": "0x1d156820799a9de8"
      },
      "nonce": 4051,
      "data": "0x",
      "r": "0xa62b8244cd5dd920699b4ec3441870286d02f07c470311e6dcc312616645c4c7",
      "s": "0x16852a4d30b1ebd0b3451db374306d46e5ebdafe1c8bda2a527a8281b9b24705",
      "v": 27,
      "creates": null,
      "raw": "0xf86e820fd3850cb06a0a878255f094006c2d0a03d20a1e9b838594f03fc81603e9d350881d156820799a9de8801ba0a62b8244cd5dd920699b4ec3441870286d02f07c470311e6dcc312616645c4c7a016852a4d30b1ebd0b3451db374306d46e5ebdafe1c8bda2a527a8281b9b24705",
      "networkId": 0,
      "chainId": 0
    },
    {
      "hash": "0x3f24b5a77e9fdec2301cba62b5dc0fa2f56b919b39f3ed31ba5e3a9d05d2c9fd",
      "blockHash": "0x1f4c47f314181dbb7e93d926c6b20903126b853f18848671e1589356ca6d441a",
      "blockNumber": 105376,
      "transactionIndex": 6,
      "confirmations": null,
      "from": "0xe6A7a1d47ff21B6321162AEA7C6CB457D5476Bca",
      "gasPrice": {
        "_hex": "0xcb06a0a87"
      },
      "gasLimit": {
        "_hex": "0x55f0"
      },
      "to": "0x3205cd1aC9e2Bb844A056D57E3f2463613554677",
      "value": {
        "_hex": "0x221786e62bb9eca0"
      },
      "nonce": 4052,
      "data": "0x",
      "r": "0x954f29a22d31abc6a92d911c34268fe45e4824f1fb2835f7ecc5f20bb969b851",
      "s": "0x780f4ee78eae6037893a57c62715187e7dd73d5fa4b3c8d85e2b51d54dd4c3ba",
      "v": 28,
      "creates": null,
      "raw": "0xf86e820fd4850cb06a0a878255f0943205cd1ac9e2bb844a056d57e3f246361355467788221786e62bb9eca0801ca0954f29a22d31abc6a92d911c34268fe45e4824f1fb2835f7ecc5f20bb969b851a0780f4ee78eae6037893a57c62715187e7dd73d5fa4b3c8d85e2b51d54dd4c3ba",
      "networkId": 0,
      "chainId": 0
    }
  ]
}