{
  "hash": "0xd4fbccef47048114a0920734e0a9f485f97f6801398fe34cf7ff7ee6e47d3c2d",
  "parentHash": "0x68326fd539c33d0b08b3ff8302bf967426b0877d050d98f001b25a0ea6829adc",
  "number": 77979,
  "timestamp": 1439445995,
  "nonce": "0x2eab86f6c411b13e",
  "difficulty": 2294456797280,
  "gasLimit": {
    "_hex": "0x2fefd8"
  },
  "gasUsed": {
    "_hex": "0xa410"
  },
  "miner": "0x9746c7e1ef2bd21FF3997fa467593a89cb852BD0",
  "extraData": "0x476574682f76312e302e312f77696e646f77732f676f312e342e32",
  "transactions": [
    {
      "hash": "0xa19fb3b63c61ac356d8785896bb2a03dea2e0c9f70656b19bde60e6edd8338b1",
      "blockHash": "0xd4fbccef47048114a0920734e0a9f485f97f6801398fe34cf7ff7ee6e47d3c2d",
      "blockNumber": 77979,
      "transactionIndex": 0,
      "confirmations": null,
      "from": "0x32Be343B94f860124dC4fEe278FDCBD38C102D88",
      "gasPrice": {
        "_hex": "0xd1fac6708"
      },
      "gasLimit": {
        "_hex": "0x5208"
      },
      "to": "0xD378eb142Ad654E0bd8296DafCc5c4874EC40445",
      "value": {
        "_hex": "0x3e4faf3601810000"
      },
      "nonce": 378,
      "data": "0x",
      "r": "0x818e50b954dd280a3dd9a42156179629028a1e93a96027838b02816aa64419a4",
      "s": "0x30c211e2f15d15e80efce3ae18bd79418327a91a3c905a2bbb701117c16aad75",
      "v": 27,
      "creates": null,
      "raw": "0xf86e82017a850d1fac670882520894d378eb142ad654e0bd8296dafcc5c4874ec40445883e4faf3601810000801ba0818e50b954dd280a3dd9a42156179629028a1e93a96027838b02816aa64419a4a030c211e2f15d15e80efce3ae18bd79418327a91a3c905a2bbb701117c16aad75",
      "networkId": 0,
      "chainId": 0
    },
    {
      "hash": "0x0d4b79e624127267baa1a07eece03615f9efa19c3c9f6c66ddef91ee3017110d",
      "blockHash": "0xd4fbccef47048114a0920734e0a9f485f97f6801398fe34cf7ff7ee6e47d3c2d",
      "blockNumber": 77979,
      "transactionIndex": 1,
      "confirmations": null,
      "from": "0x32Be343B94f860124dC4fEe278FDCBD38C102D88",
      "gasPrice": {
        "_hex": "0xd1fac6708"
      },
      "gasLimit": {
        "_hex": "0x5208"
      },
      "to": "0xDbe59f61C5737D77911d230fC6bE4015cB4b78eb",
      "value": {
        "_hex": "0x1156abf16a40f0000"
      },
      "nonce": 379,
      "data": "0x",
      "r": "0xc97f24c0330d001462369b2bac8ea7df7bbbb6b5a29aff680fb841b5b4f579ac",
      "s": "0x07c3504de24121ae4609422639873b78fe54b8f70d996e6ade84c429f63a50d5",
      "v": 27,
      "creates": null,
      "raw": "0xf86f82017b850d1fac670882520894dbe59f61c5737d77911d230fc6be4015cb4b78eb8901156abf16a40f0000801ba0c97f24c0330d001462369b2bac8ea7df7bbbb6b5a29aff680fb841b5b4f579aca007c3504de24121ae4609422639873b78fe54b8f70d996e6ade84c429f63a50d5",
      "networkId": 0,
      "chainId": 0
    }
  ]
}