{
  "hash": "0x051aeaa0f1a9139f951d73c235f040730046634c886d7c4bb3a6c01051066467",
  "parentHash": "0x90702dc5192eb3d90a46df044a71bd7d6d1371a3a261f95a10c4ac9dfec4b5ac",
  "number": 82464,
  "timestamp": 1439519757,
  "nonce": "0x3875236bf2d8536d",
  "difficulty": 2376445790561,
  "gasLimit": {
    "_hex": "0x2fefd8"
  },
  "gasUsed": {
    "_hex": "0x5208"
  },
  "miner": "0x123843545FB525C8E134c9A5F15ADA6865cc3848",
  "extraData": "0x476574682f76312e302e312f77696e646f77732f676f312e342e32",
  "transactions": [
    {
      "hash": "0xb68968cd15b777afade257feea5f28b1a153a3b313396fb711a2e5b320fe9a36",
      "blockHash": "0x051aeaa0f1a9139f951d73c235f040730046634c886d7c4bb3a6c01051066467",
      "blockNumber": 82464,
      "transactionIndex": 0,
      "confirmations": null,
      "from": "0x6d921977dEFE5f4e0682CA512De1D07b1f4802E1",
      "gasPrice": {
        "_hex": "0xdecf57c6b"
      },
      "gasLimit": {
        "_hex": "0x5208"
      },
      "to": "0x32Be343B94f860124dC4fEe278FDCBD38C102D88",
      "value": {
        "_hex": "0x11589cfb5c9f98000"
      },
      "nonce": 13,
      "data": "0x",
      "r": "0xa30d336f7515001cfc2f73fca1d32ca4932ae85a8202b4d11127cdf3c7315bf7",
      "s": "0x002d6302071e19757aaabe721b0c03d15fd4176c6aa7ba6b0d152331f81096fb",
      "v": 28,
      "creates": null,
      "raw": "0xf86c0d850decf57c6b8252089432be343b94f860124dc4fee278fdcbd38c102d8889011589cfb5c9f98000801ca0a30d336f7515001cfc2f73fca1d32ca4932ae85a8202b4d11127cdf3c7315bf79f2d6302071e19757aaabe721b0c03d15fd4176c6aa7ba6b0d152331f81096fb",
      "networkId": 0,
      "chainId": 0
    }
  ]
}