{
  "hash": "0x8611fa1dbb61a476eaf47fdadf2604a259b6ec4bda11894875fd22d7558be803",
  "parentHash": "0x9bc1e246b6de18d608eafca455846d6ae382578e6996ec05085d193ccf17a1ea",
  "number": 46998,
  "timestamp": 1438932914,
  "nonce": "0x249d82f65a8383d2",
  "difficulty": 1451741008400,
  "gasLimit": {
    "_hex": "0x8d9f"
  },
  "gasUsed": {
    "_hex": "0x5208"
  },
  "miner": "0xbb7B8287f3F0a933474a79eAe42CBCa977791171",
  "extraData": "0x476574682f4c5649562f76312e302e312f6c696e75782f676f312e342e32",
  "transactions": [
    {
      "hash": "0x02073f1703255a92fe92690c38562c196b4bfc986d3cb9e5d450326d38f82065",
      "blockHash": "0x8611fa1dbb61a476eaf47fdadf2604a259b6ec4bda11894875fd22d7558be803",
      "blockNumber": 46998,
      "transactionIndex": 0,
      "confirmations": null,
      "from": "0xdf8d48B1eb07b3C217790e6c2DF04DC319E7E848",
      "gasPrice": {
        "_hex": "0x45d964b800"
      },
      "gasLimit": {
        "_hex": "0x5208"
      },
      "to": "0x4f6D4737D7A940382487264886697cF7637F8015",
      "value": {
        "_hex": "0xd9d91407d22c000"
      },
      "nonce": 2,
      "data": "0x",
      "r": "0xe6a710675503aeb3a5be78d82828663fd66b609e2f3ad40b295715050cad433d",
      "s": "0x217275fdaa7bd9a56c9df910974e8ab52305c30510abb13d16925019e60c61b9",
      "v": 28,
      "creates": null,
      "raw": "0xf86c028545d964b800825208944f6d4737d7a940382487264886697cf7637f8015880d9d91407d22c000801ca0e6a710675503aeb3a5be78d82828663fd66b609e2f3ad40b295715050cad433da0217275fdaa7bd9a56c9df910974e8ab52305c30510abb13d16925019e60c61b9",
      "networkId": 0,
      "chainId": 0
    }
  ]
}