{
  "hash": "0x08900f6bc05153eca9012e23bf8ad594f1ade6a36cbce834c6b4c6bbd05b21af",
  "parentHash": "0xc64d8127c8ff6093fd5d724abfca96431b128275d24f1459e824b7afe4905d05",
  "number": 82175,
  "timestamp": 1439514793,
  "nonce": "0x86e7947ce9af5a5f",
  "difficulty": 2391661025818,
  "gasLimit": {
    "_hex": "0x2fefd8"
  },
  "gasUsed": {
    "_hex": "0x5208"
  },
  "miner": "0xB5ebc1ED9a468C33fceC311Cf6AAb5d07774F0ea",
  "extraData": "0x",
  "transactions": [
    {
      "hash": "0x34651d778a37299e512fb93709e7ddc78c0587d0158ad98156314f333cb60c32",
      "blockHash": "0x08900f6bc05153eca9012e23bf8ad594f1ade6a36cbce834c6b4c6bbd05b21af",
      "blockNumber": 82175,
      "transactionIndex": 0,
      "confirmations": null,
      "from": "0x72B904440e90E720d6ac1c2AD79C321DCc1C1a86",
      "gasPrice": {
        "_hex": "0x10e6196ff4c"
      },
      "gasLimit": {
        "_hex": "0x5208"
      },
      "to": "0xD678C8d3430cbE0d7a6F36487f3Cb6E5f27e4CA6",
      "value": {
        "_hex": "0x3635c9adc5dea00000"
      },
      "nonce": 0,
      "data": "0x",
      "r": "0xbd4d549c0970a645acdf14444c0eaf97c44e99eab901272c165da3aa7af5f597",
      "s": "0x34a4ad07570e0092aa2915db101dfecab85ca2dbbb099f7bc1098f62f275e160",
      "v": 28,
      "creates": null,
      "raw": "0xf86e8086010e6196ff4c82520894d678c8d3430cbe0d7a6f36487f3cb6e5f27e4ca6893635c9adc5dea00000801ca0bd4d549c0970a645acdf14444c0eaf97c44e99eab901272c165da3aa7af5f597a034a4ad07570e0092aa2915db101dfecab85ca2dbbb099f7bc1098f62f275e160",
      "networkId": 0,
      "chainId": 0
    }
  ]
}