{
  "hash": "0xbc7aa7ef559db175b64d68a93b98419b8ad3e7c08ebe9dda79cb85d033def08a",
  "parentHash": "0x399b03be8ea70995370438358a08ba8041a0883b5123c13775ff5efe31b1a3b2",
  "number": 102835,
  "timestamp": 1439843903,
  "nonce": "0x5c8b3afba0c2705e",
  "difficulty": 4062310314854,
  "gasLimit": {
    "_hex": "0x2fefd8"
  },
  "gasUsed": {
    "_hex": "0x5208"
  },
  "miner": "0xcf00A85f3826941e7A25BFcF9Aac575d40410852",
  "extraData": "0x476574682f76312e302e312f77696e646f77732f676f312e342e32",
  "transactions": [
    {
      "hash": "0x03c419cb1a4c01fa83f38425641e524b364cf5954973e63eec6169f03726ff48",
      "blockHash": "0xbc7aa7ef559db175b64d68a93b98419b8ad3e7c08ebe9dda79cb85d033def08a",
      "blockNumber": 102835,
      "transactionIndex": 0,
      "confirmations": null,
      "from": "0x120A270bbC009644e35F0bB6ab13f95b8199c4ad",
      "gasPrice": {
        "_hex": "0xd1669be1f"
      },
      "gasLimit": {
        "_hex": "0x3d090"
      },
      "to": "0xb7b6e8868e3DfCD6C7EC726C4fda236266841c8C",
      "value": {
        "_hex": "0xd69fc8d90f1400"
      },
      "nonce": 708,
      "data": "0x",
      "r": "0x57eb18c708382d94098f687e396750c6ee4e3e53f52b0ca6e1f9e6674c9c1fb0",
      "s": "0x068afcad3f074ebd1ec7c87f4d29b8d789b438a7a352ef2d6d2b836a71f7b81d",
      "v": 28,
      "creates": null,
      "raw": "0xf86e8202c4850d1669be1f8303d09094b7b6e8868e3dfcd6c7ec726c4fda236266841c8c87d69fc8d90f1400801ca057eb18c708382d94098f687e396750c6ee4e3e53f52b0ca6e1f9e6674c9c1fb0a0068afcad3f074ebd1ec7c87f4d29b8d789b438a7a352ef2d6d2b836a71f7b81d",
      "networkId": 0,
      "chainId": 0
    }
  ]
}