{
  "hash": "0xbcdf344f4f74ddda962d6f29f1a660eeb755663e6b49cb7d732f7fd49d543ffe",
  "parentHash": "0xd41e785e2618a26b4b4973590afaf1a49490ba9d5a2e2cdc61972826199666ff",
  "number": 97506,
  "timestamp": 1439757237,
  "nonce": "0xc62f72d9b46f8663",
  "difficulty": 3824210191713,
  "gasLimit": {
    "_hex": "0x2fefd8"
  },
  "gasUsed": {
    "_hex": "0x5208"
  },
  "miner": "0xf927a40C8B7F6E07c5af7FA2155B4864a4112B13",
  "extraData": "0x",
  "transactions": [
    {
      "hash": "0x71cf4c4a61b61d542859d91092d2e19591c7933fcd95658f003beccd9e44b7a9",
      "blockHash": "0xbcdf344f4f74ddda962d6f29f1a660eeb755663e6b49cb7d732f7fd49d543ffe",
      "blockNumber": 97506,
      "transactionIndex": 0,
      "confirmations": null,
      "from": "0xa70a9a7040d542C632D8e0bE7c5513A8a5Bbc752",
      "gasPrice": {
        "_hex": "0xd84efb35f"
      },
      "gasLimit": {
        "_hex": "0x5208"
      },
      "to": "0x32Be343B94f860124dC4fEe278FDCBD38C102D88",
      "value": {
        "_hex": "0x478a590df7746000"
      },
      "nonce": 177,
      "data": "0x",
      "r": "0xdf1bf4237329e16157a1c38063174161ed3a8e1c7cc3b125cb54828869c9b819",
      "s": "0x0b05407e589ed6a2d20a4c426ba0a9b813c1eeba3553d99101b2006c6e801b51",
      "v": 28,
      "creates": null,
      "raw": "0xf86d81b1850d84efb35f8252089432be343b94f860124dc4fee278fdcbd38c102d8888478a590df7746000801ca0df1bf4237329e16157a1c38063174161ed3a8e1c7cc3b125cb54828869c9b819a00b05407e589ed6a2d20a4c426ba0a9b813c1eeba3553d99101b2006c6e801b51",
      "networkId": 0,
      "chainId": 0
    }
  ]
}