{
  "hash": "0xe3cea6ea779d7cc81aa6d1284f77bb764794bc5953c1582485da8cc04290b016",
  "parentHash": "0xbb99d637ea601ebec2c6d74898c6d359961b14e461d1ae0e679e2050dbef2208",
  "number": 85468,
  "timestamp": 1439564130,
  "nonce": "0x8ec308c35bd87b25",
  "difficulty": 2744994751323,
  "gasLimit": {
    "_hex": "0x2fefd8"
  },
  "gasUsed": {
    "_hex": "0x19a28"
  },
  "miner": "0x9D49F602b0fdb924Bd63DDE2Bd0907E4A07c63a7",
  "extraData": "0x476574682f76312e302e312f6c696e75782f676f312e342e32",
  "transactions": [
    {
      "hash": "0x22d9af5d8b08d5eec452732450f475e03869dd252f1539e9ee3d5bbc5b8697ed",
      "blockHash": "0xe3cea6ea779d7cc81aa6d1284f77bb764794bc5953c1582485da8cc04290b016",
      "blockNumber": 85468,
      "transactionIndex": 0,
      "confirmations": null,
      "from": "0x2910543Af39abA0Cd09dBb2D50200b3E800A63D2",
      "gasPrice": {
        "_hex": "0xdac36703e"
      },
      "gasLimit": {
        "_hex": "0x5208"
      },
      "to": "0xfbB5F5B2Dd4e470E131C6F275bEAE4fbE36cf104",
      "value": {
        "_hex": "0x7d72420704e0000"
      },
      "nonce": 615,
      "data": "0x",
      "r": "0x55b13305d85dcce0768d9a2c6f5a03a785f3c8b649ea03da6464edfd62739c65",
      "s": "0x48a9542dd4d1786ce5a68ca87993e9906c7064dd02632cb4f86e5e900cf3210e",
      "v": 28,
      "creates": null,
      "raw": "0xf86e820267850dac36703e82520894fbb5f5b2dd4e470e131c6f275beae4fbe36cf1048807d72420704e0000801ca055b13305d85dcce0768d9a2c6f5a03a785f3c8b649ea03da6464edfd62739c65a048a9542dd4d1786ce5a68ca87993e9906c7064dd02632cb4f86e5e900cf3210e",
      "networkId": 0,
      "chainId": 0
    },
    {
      "hash": "0x93c865b4c6f37a9e072554cd650b627dbd1b4abe3239b5d7feebe342cb5e6e58",
      "blockHash": "0xe3cea6ea779d7cc81aa6d1284f77bb764794bc5953c1582485da8cc04290b016",
      "blockNumber": 85468,
      "transactionIndex": 1,
      "confirmations": null,
      "from": "0x2910543Af39abA0Cd09dBb2D50200b3E800A63D2",
      "gasPrice": {
        "_hex": "0xdac36703e"
      },
      "gasLimit": {
        "_hex": "0x5208"
      },
      "to": "0xCDca43540178fF7823Aa78B84F70b90A6BfcD605",
      "value": {
        "_hex": "0x410c3c328d26b8000"
      },
      "nonce": 616,
      "data": "0x",
      "r": "0x49c9e773afef083eba54dec7cca3a1042919d5c276d0d8f70659c364cef46c0e",
      "s": "0x11f619a052aee306763fa5ff25d60bacc712f4b9a034d27704f4d3d8004c3a26",
      "v": 27,
      "creates": null,
      "raw": "0xf86f820268850dac36703e82520894cdca43540178ff7823aa78b84f70b90a6bfcd605890410c3c328d26b8000801ba049c9e773afef083eba54dec7cca3a1042919d5c276d0d8f70659c364cef46c0ea011f619a052aee306763fa5ff25d60bacc712f4b9a034d27704f4d3d8004c3a26",
      "networkId": 0,
      "chainId": 0
    },
    {
      "hash": "0xe00ab1d66008efaae75a2bc26c0546862a497ad49914e8f782a2f513cac7af24",
      "blockHash": "0xe3cea6ea779d7cc81aa6d1284f77bb764794bc5953c1582485da8cc04290b016",
      "blockNumber": 85468,
      "transactionIndex": 2,
      "confirmations": null,
      "from": "0xdb49193CE6f62833b2080DC8759acB57d519967F",
      "gasPrice": {
        "_hex": "0xba43b7400"
      },
      "gasLimit": {
        "_hex": "0x5208"
      },
      "to": "0xC47Aaa860008be6f65B58c6C6E02a84e666EfE31",
      "value": {
        "_hex": "0xad7793de9613c0710"
      },
      "nonce": 3,
      "data": "0x",
      "r": "0x0db9fecf9771e0aeef216e415fc6127bafc72eabb08700e32fdd61e3179c49f8",
      "s": "0x006091636c1efaf18332e889ea494fbdf410453be0c930bf3c67d171c55e889c",
      "v": 27,
      "creates": null,
      "raw": "0xf86c03850ba43b740082520894c47aaa860008be6f65b58c6c6e02a84e666efe31890ad7793de9613c0710801ba00db9fecf9771e0aeef216e415fc6127bafc72eabb08700e32fdd61e3179c49f89f6091636c1efaf18332e889ea494fbdf410453be0c930bf3c67d171c55e889c",
      "networkId": 0,
      "chainId": 0
    },
    {
      "hash": "0xdae132a6bd1f3f87520129be83e61d8923ca295e0cefd6c3d0c2e787fdb1de96",
      "blockHash": "0xe3cea6ea779d7cc81aa6d1284f77bb764794bc5953c1582485da8cc04290b016",
      "blockNumber": 85468,
      "transactionIndex": 3,
      "confirmations": null,
      "from": "0x1D3ffA437e5bce40fCC134f4E0ac62841E4A9E81",
      "gasPrice": {
        "_hex": "0xba43b7400"
      },
      "gasLimit": {
        "_hex": "0x5208"
      },
      "to": "0xC47Aaa860008be6f65B58c6C6E02a84e666EfE31",
      "value": {
        "_hex": "0x4aecec6b8e186000"
      },
      "nonce": 4,
      "data": "0x",
      "r": "0x73690f791eb4a0b06cd5c58e0f4e6e5384493036863a8e57efb42c227b74d816",
      "s": "0x3c8d6c981d5b888d71ee54302eb29858ed69594268791432f0a3cfaa7ed1bdbf",
      "v": 28,
      "creates": null,
      "raw": "0xf86c04850ba43b740082520894c47aaa860008be6f65b58c6c6e02a84e666efe31884aecec6b8e186000801ca073690f791eb4a0b06cd5c58e0f4e6e5384493036863a8e57efb42c227b74d816a03c8d6c981d5b888d71ee54302eb29858ed69594268791432f0a3cfaa7ed1bdbf",
      "networkId": 0,
      "chainId": 0
    },
    {
      "hash": "0xa01c8ad196c26d8f57591bb84a224fb2ce8d65a11c8131ab7803748efcf9a3e6",
      "blockHash": "0xe3cea6ea779d7cc81aa6d1284f77bb764794bc5953c1582485da8cc04290b016",
      "blockNumber": 85468,
      "transactionIndex": 4,
      "confirmations": null,
      "from": "0xD05f85Eb920117eeBBf13dd94FeEA60e9eB34537",
      "gasPrice": {
        "_hex": "0xba43b7400"
      },
      "gasLimit": {
        "_hex": "0x5208"
      },
      "to": "0xC47Aaa860008be6f65B58c6C6E02a84e666EfE31",
      "value": {
        "_hex": "0xa88d609d9429b8f0"
      },
      "nonce": 4,
      "data": "0x",
      "r": "0xd4042ffad8c7dd59996c6169e4d6f2f62335d2928d6e92b30cd97b1d935e680a",
      "s": "0x71ba3c6e8d323d9d235e674e51819dfbc146f611a5edc955a15bed0d7f5fd6f0",
      "v": 28,
      "creates": null,
      "raw": "0xf86c04850ba43b740082520894c47aaa860008be6f65b58c6c6e02a84e666efe3188a88d609d9429b8f0801ca0d4042ffad8c7dd59996c6169e4d6f2f62335d2928d6e92b30cd97b1d935e680aa071ba3c6e8d323d9d235e674e51819dfbc146f611a5edc955a15bed0d7f5fd6f0",
      "networkId": 0,
      "chainId": 0
    }
  ]
}