{
  "hash": "0x5c3648d762c3ad46c2bd699161fe91768442dc7fdbb6c90070fb61a12115f4f3",
  "parentHash": "0x81cc4b33b4d8aaebb6d7c209774e3a10b6f3d422bdfc288a18afb8a6384c08b8",
  "number": 47040,
  "timestamp": 1438933480,
  "nonce": "0xfb5356a3dfc1d493",
  "difficulty": 1453152141162,
  "gasLimit": {
    "_hex": "0x928d"
  },
  "gasUsed": {
    "_hex": "0x5208"
  },
  "miner": "0x9746c7e1ef2bd21FF3997fa467593a89cb852BD0",
  "extraData": "0x476574682f76312e302e312f77696e646f77732f676f312e342e32",
  "transactions": [
    {
      "hash": "0x6629e348215e83ce5294750d2b9d2fe9b049af3f30c4924c73a761f30bea6ae8",
      "blockHash": "0x5c3648d762c3ad46c2bd699161fe91768442dc7fdbb6c90070fb61a12115f4f3",
      "blockNumber": 47040,
      "transactionIndex": 0,
      "confirmations": null,
      "from": "0x1406854D149E081aC09Cb4CA560Da463f3123059",
      "gasPrice": {
        "_hex": "0xd641e6f69"
      },
      "gasLimit": {
        "_hex": "0x7530"
      },
      "to": "0xa0E74ae010D51894734c308D612131056bB721AD",
      "value": {
        "_hex": "0x8ac7230489e80000"
      },
      "nonce": 0,
      "data": "0x",
      "r": "0x864f1d3bd9a87205392e303675304c543782feafe7cbaaf0c5ebce060019cb6a",
      "s": "0x4ae27a7700b495044d2971986fc408ddba066f8a64d5e7b3e8bef0985bb70330",
      "v": 27,
      "creates": null,
      "raw": "0xf86c80850d641e6f6982753094a0e74ae010d51894734c308d612131056bb721ad888ac7230489e80000801ba0864f1d3bd9a87205392e303675304c543782feafe7cbaaf0c5ebce060019cb6aa04ae27a7700b495044d2971986fc408ddba066f8a64d5e7b3e8bef0985bb70330",
      "networkId": 0,
      "chainId": 0
    }
  ]
}