{
  "hash": "0x6a4e065f08da2c357c62d0f8bcb24a5814ca2f666d0503658319063add28da5a",
  "parentHash": "0x93a2f1f684ccc412e82dbd4d3839319d39fc4ba4bfbada006f1253375d250bcd",
  "number": 109343,
  "timestamp": 1439954968,
  "nonce": "0x45d1a246291b89f2",
  "difficulty": 4458115076557,
  "gasLimit": {
    "_hex": "0x2fefd8"
  },
  "gasUsed": {
    "_hex": "0x5208"
  },
  "miner": "0xA21Ba94e45f0E168dA824fC67aC9cb5Cb577a8aF",
  "extraData": "0x",
  "transactions": [
    {
      "hash": "0x038563537236d4fdd4a9339091716389fbc657cbb92245490e60013571163f6b",
      "blockHash": "0x6a4e065f08da2c357c62d0f8bcb24a5814ca2f666d0503658319063add28da5a",
      "blockNumber": 109343,
      "transactionIndex": 0,
      "confirmations": null,
      "from": "0x2910543Af39abA0Cd09dBb2D50200b3E800A63D2",
      "gasPrice": {
        "_hex": "0xcb47c92fb"
      },
      "gasLimit": {
        "_hex": "0x5208"
      },
      "to": "0xC5421FF9a6C1dfE6fE5BE19FA1322E70b77c8cb1",
      "value": {
        "_hex": "0x13fd5965e52e1c000"
      },
      "nonce": 1073,
      "data": "0x",
      "r": "0x0494b90c108cb182bbfc2a3cf3a4b0a5535ffc433f200c8cc4e54d7563a6f4d4",
      "s": "0x17da28fa5705cbefe1a18e5bed70296b30d4945564ce601cf86942ec034cdcc1",
      "v": 28,
      "creates": null,
      "raw": "0xf86f820431850cb47c92fb82520894c5421ff9a6c1dfe6fe5be19fa1322e70b77c8cb189013fd5965e52e1c000801ca00494b90c108cb182bbfc2a3cf3a4b0a5535ffc433f200c8cc4e54d7563a6f4d4a017da28fa5705cbefe1a18e5bed70296b30d4945564ce601cf86942ec034cdcc1",
      "networkId": 0,
      "chainId": 0
    }
  ]
}