{
  "hash": "0xe86a11fda727d4789d5a800aceb37a1c64347f4d0b8f67bfc7602ce2a2e5c5f9",
  "parentHash": "0x20a1c3f651dead977acb23279f73e5c57a0f4a238136830108278bca0d34bf71",
  "number": 121136,
  "timestamp": 1440172141,
  "nonce": "0x29314d87a336e7e1",
  "difficulty": 4393545877428,
  "gasLimit": {
    "_hex": "0x2fefd8"
  },
  "gasUsed": {
    "_hex": "0x5208"
  },
  "miner": "0xa50ec0D39fa913E62f1Bae7074E6F36caA71855b",
  "extraData": "0xd783010100844765746887676f312e342e32856c696e7578",
  "transactions": [
    {
      "hash": "0xa43273bd8559ce2bdd567387ea04fea1d0e39ccd59ea22ce9a9d005abf0a82c9",
      "blockHash": "0xe86a11fda727d4789d5a800aceb37a1c64347f4d0b8f67bfc7602ce2a2e5c5f9",
      "blockNumber": 121136,
      "transactionIndex": 0,
      "confirmations": null,
      "from": "0x3f0073d6bBE51612013aA09BC970e08E84D7BA23",
      "gasPrice": {
        "_hex": "0xba43b7400"
      },
      "gasLimit": {
        "_hex": "0x5208"
      },
      "to": "0x32Be343B94f860124dC4fEe278FDCBD38C102D88",
      "value": {
        "_hex": "0x3a703d9d8ab2140000"
      },
      "nonce": 11,
      "data": "0x",
      "r": "0xf80d554c0c89c9d1517077c0a6c6938def6d452c8f2d9a454912b04ef8797376",
      "s": "0x6744a6b6fba5ad5615fd213b3e18f876d97f8ffbd6e83ddff5720bf7387bb3f7",
      "v": 28,
      "creates": null,
      "raw": "0xf86d0b850ba43b74008252089432be343b94f860124dc4fee278fdcbd38c102d88893a703d9d8ab2140000801ca0f80d554c0c89c9d1517077c0a6c6938def6d452c8f2d9a454912b04ef8797376a06744a6b6fba5ad5615fd213b3e18f876d97f8ffbd6e83ddff5720bf7387bb3f7",
      "networkId": 0,
      "chainId": 0
    }
  ]
}