{
  "hash": "0xc3a7b525b8db81be646f585ffa661073dc99f322a46930f1ae67ccbe6684df48",
  "parentHash": "0x7b2783aae19e60d9fd0ec08dfc5aafb6e459b3eb22e79ce00181b49c00201453",
  "number": 64957,
  "timestamp": 1439229017,
  "nonce": "0xdca9e9b20c3dedc1",
  "difficulty": 1912583039102,
  "gasLimit": {
    "_hex": "0x2fefd8"
  },
  "gasUsed": {
    "_hex": "0xa410"
  },
  "miner": "0xee5379D0c1ca47327368027455074C26D9952628",
  "extraData": "0x476574682f76312e302e312d38326566323666362f6c696e75782f676f312e34",
  "transactions": [
    {
      "hash": "0x2ac030d096370f09c4f7abe007c17a3de3b063345f05a7136f781a6754f28ae4",
      "blockHash": "0xc3a7b525b8db81be646f585ffa661073dc99f322a46930f1ae67ccbe6684df48",
      "blockNumber": 64957,
      "transactionIndex": 0,
      "confirmations": null,
      "from": "0xeF7180da41dF0447A8df5ebfd7e3Ab84555fb1F3",
      "gasPrice": {
        "_hex": "0xba43b7400"
      },
      "gasLimit": {
        "_hex": "0x5208"
      },
      "to": "0x6D5Be066AafE397b55BB0faEcAdc113B75f58020",
      "value": {
        "_hex": "0x163b86e28a38000"
      },
      "nonce": 1,
      "data": "0x",
      "r": "0x73eb3368ab432b766759407403330c8128eabfa0df6c330ce2ade341cc20b912",
      "s": "0x2ba1a91b396cc068b27800f18be77f395abd66c31a1f69ac711a3808a97420fa",
      "v": 28,
      "creates": null,
      "raw": "0xf86c01850ba43b7400825208946d5be066aafe397b55bb0faecadc113b75f58020880163b86e28a38000801ca073eb3368ab432b766759407403330c8128eabfa0df6c330ce2ade341cc20b912a02ba1a91b396cc068b27800f18be77f395abd66c31a1f69ac711a3808a97420fa",
      "networkId": 0,
      "chainId": 0
    },
    {
      "hash": "0x2894372fc785a563344094cf934285cdf10c5501cc687046e0bff9111de331d3",
      "blockHash": "0xc3a7b525b8db81be646f585ffa661073dc99f322a46930f1ae67ccbe6684df48",
      "blockNumber": 64957,
      "transactionIndex": 1,
      "confirmations": null,
      "from": "0x94AB191ec8501CefafE1153959B2907c105F4345",
      "gasPrice": {
        "_hex": "0xba43b7400"
      },
      "gasLimit": {
        "_hex": "0x5208"
      },
      "to": "0x8624961b48421B6f6cEB7E507F1A228a30618E24",
      "value": {
        "_hex": "0x1c045218ee54000"
      },
      "nonce": 1,
      "data": "0x",
      "r": "0x35981aa92f71de458243aef6e1b2a505d1ade52786c8bbbbde8dc0aef7285ebb",
      "s": "0x5621a8559866319fb0b5b015cef3e6f122888415e10375595e9343d41d3d6859",
      "v": 28,
      "creates": null,
      "raw": "0xf86c01850ba43b7400825208948624961b48421b6f6ceb7e507f1a228a30618e248801c045218ee54000801ca035981aa92f71de458243aef6e1b2a505d1ade52786c8bbbbde8dc0aef7285ebba05621a8559866319fb0b5b015cef3e6f122888415e10375595e9343d41d3d6859",
      "networkId": 0,
      "chainId": 0
    }
  ]
}