{
  "hash": "0xa36d9ad586543062760f2d5a83a6bdf5522034806050b2808429b371b6e5a73b",
  "parentHash": "0xef4e415e40fd28e0214401f9254b86041bad705f26c2edee54fe46d564c43f66",
  "number": 68780,
  "timestamp": 1439293694,
  "nonce": "0x3597174ebc15a29e",
  "difficulty": 2020156034767,
  "gasLimit": {
    "_hex": "0x2fefd8"
  },
  "gasUsed": {
    "_hex": "0x5208"
  },
  "miner": "0x64c0f4A860176e4f956550703F0eF522A9eD06F9",
  "extraData": "0x476574682f76312e302e312d38326566323666362f6c696e75782f676f312e34",
  "transactions": [
    {
      "hash": "0xe3f2599375b7bff672880f24a81888b4906ab66e82cdfc620871d437e8f4f9b6",
      "blockHash": "0xa36d9ad586543062760f2d5a83a6bdf5522034806050b2808429b371b6e5a73b",
      "blockNumber": 68780,
      "transactionIndex": 0,
      "confirmations": null,
      "from": "0x120A270bbC009644e35F0bB6ab13f95b8199c4ad",
      "gasPrice": {
        "_hex": "0xd7a795f44"
      },
      "gasLimit": {
        "_hex": "0x15f90"
      },
      "to": "0x8f717ec1552f4C440084fBa1154A81DC003EbdC0",
      "value": {
        "_hex": "0x1b1ae4d6e2ef500000"
      },
      "nonce": 170,
      "data": "0x",
      "r": "0xd4ddae51887c9b4f7eea6534a09646a942ec42ec2c976ca157d33b2b09cc31da",
      "s": "0x6fe88add748788bec066d5e1112b613746dc64a8ef81e91e2069f90e5ab7118b",
      "v": 27,
      "creates": null,
      "raw": "0xf86f81aa850d7a795f4483015f90948f717ec1552f4c440084fba1154a81dc003ebdc0891b1ae4d6e2ef500000801ba0d4ddae51887c9b4f7eea6534a09646a942ec42ec2c976ca157d33b2b09cc31daa06fe88add748788bec066d5e1112b613746dc64a8ef81e91e2069f90e5ab7118b",
      "networkId": 0,
      "chainId": 0
    }
  ]
}