{
  "hash": "0xe8d69cf655e912ecefdf4c8c35d68bc4e4f8f89cd695acb1de107f6c1353fba0",
  "parentHash": "0x0e6d68014f98469cc726e761f2aac2b30b9558b79b351d26166dce1679ea1495",
  "number": 104670,
  "timestamp": 1439873468,
  "nonce": "0xd32661d408d38446",
  "difficulty": 4372188043937,
  "gasLimit": {
    "_hex": "0x2fefd8"
  },
  "gasUsed": {
    "_hex": "0x5208"
  },
  "miner": "0xe6A7a1d47ff21B6321162AEA7C6CB457D5476Bca",
  "extraData": "0x476574682f76312e302e312d38326566323666362f6c696e75782f676f312e34",
  "transactions": [
    {
      "hash": "0x9c96b17250f2c01d66b7f0d78be2e19d43465ea54f41821d70a46adb90305463",
      "blockHash": "0xe8d69cf655e912ecefdf4c8c35d68bc4e4f8f89cd695acb1de107f6c1353fba0",
      "blockNumber": 104670,
      "transactionIndex": 0,
      "confirmations": null,
      "from": "0x120A270bbC009644e35F0bB6ab13f95b8199c4ad",
      "gasPrice": {
        "_hex": "0xcf3d458b3"
      },
      "gasLimit": {
        "_hex": "0x3d090"
      },
      "to": "0xCA092A957744f6385B1aee5dC694143E8A06F805",
      "value": {
        "_hex": "0x16345785d8a0000"
      },
      "nonce": 751,
      "data": "0x",
      "r": "0xd64ab871236ed7fa84358af54854907da85e14bcfe27bb7becc837cb0920f069",
      "s": "0x02c1c1860b50779cd8e67b6464bfc9cb8b98944bdcc393bb7607e816a1418006",
      "v": 28,
      "creates": null,
      "raw": "0xf86f8202ef850cf3d458b38303d09094ca092a957744f6385b1aee5dc694143e8a06f80588016345785d8a0000801ca0d64ab871236ed7fa84358af54854907da85e14bcfe27bb7becc837cb0920f069a002c1c1860b50779cd8e67b6464bfc9cb8b98944bdcc393bb7607e816a1418006",
      "networkId": 0,
      "chainId": 0
    }
  ]
}