{
  "hash": "0x671ac797c5cc6e1db3984e0442fe3f4594c673d0944cf68defae6bca8dda3fb3",
  "parentHash": "0x008ba1c57dcf0e3cec2ac022c391eb54d0d29b69786699018a10fafbdf6e93d5",
  "number": 93585,
  "timestamp": 1439693731,
  "nonce": "0xc076128099d6e3c6",
  "difficulty": 3464950262277,
  "gasLimit": {
    "_hex": "0x2fefd8"
  },
  "gasUsed": {
    "_hex": "0x5208"
  },
  "miner": "0xaEAf103356C2Ee943F748E8655659D29881323E1",
  "extraData": "0x476574682f76312e302e312f77696e646f77732f676f312e342e32",
  "transactions": [
    {
      "hash": "0xc5e99f9d3536c47b5e645dc9009f6e22f74951373b30f86bb8a03d91107f0658",
      "blockHash": "0x671ac797c5cc6e1db3984e0442fe3f4594c673d0944cf68defae6bca8dda3fb3",
      "blockNumber": 93585,
      "transactionIndex": 0,
      "confirmations": null,
      "from": "0x2910543Af39abA0Cd09dBb2D50200b3E800A63D2",
      "gasPrice": {
        "_hex": "0xdccd6c9db"
      },
      "gasLimit": {
        "_hex": "0x5208"
      },
      "to": "0xFD7c9117BbEB649d9b37B3D3C9917f7c12f526B3",
      "value": {
        "_hex": "0x27e3aeb4b6ffe42d00"
      },
      "nonce": 856,
      "data": "0x",
      "r": "0x6aac497c0781c4c39d9c8714df1a90e4668ab9af061b6a3296a2b5df83ff41e3",
      "s": "0x2101144cff0206579dcfb8f7cf024e4238900d889bcc7691f440f01dee2d7b64",
      "v": 27,
      "creates": null,
      "raw": "0xf86f820358850dccd6c9db82520894fd7c9117bbeb649d9b37b3d3c9917f7c12f526b38927e3aeb4b6ffe42d00801ba06aac497c0781c4c39d9c8714df1a90e4668ab9af061b6a3296a2b5df83ff41e3a02101144cff0206579dcfb8f7cf024e4238900d889bcc7691f440f01dee2d7b64",
      "networkId": 0,
      "chainId": 0
    }
  ]
}