{
  "hash": "0x8a2e48a1c37501e48f48443f519df1edb40bf12d98c01919583fdacabf9aefd7",
  "parentHash": "0xef320669e7dbbe702704870f6370d91989a0584b5d257b0d47068f1af2ca64ba",
  "number": 90358,
  "timestamp": 1439638656,
  "nonce": "0x135f39b9a5dc9295",
  "difficulty": 3325363718369,
  "gasLimit": {
    "_hex": "0x2fefd8"
  },
  "gasUsed": {
    "_hex": "0x5208"
  },
  "miner": "0x47ff6576639c2e94762eA5443978D7681C0E78DC",
  "extraData": "0x476574682f76312e302e312f6c696e75782f676f312e342e32",
  "transactions": [
    {
      "hash": "0x22256e4758226c8ee4a2bca0bdb417589bbafcc9f77a14cae27a18d49b4e6255",
      "blockHash": "0x8a2e48a1c37501e48f48443f519df1edb40bf12d98c01919583fdacabf9aefd7",
      "blockNumber": 90358,
      "transactionIndex": 0,
      "confirmations": null,
      "from": "0xa522de7EB6ae1250522A513133a93bd42849475C",
      "gasPrice": {
        "_hex": "0xd7d40ace3"
      },
      "gasLimit": {
        "_hex": "0x15f90"
      },
      "to": "0x859217617481BD9b6E3e38f6aE9BB677F0D26154",
      "value": {
        "_hex": "0x3635c9adc5dea00000"
      },
      "nonce": 3,
      "data": "0x",
      "r": "0xf785b64b84d75350039a0a73235fd8b3796272d9eabf9f272380a7d386afeea1",
      "s": "0x63d73d5f98769e1e2a093f0e000caef86f31aae2ee908814aad4197fe62b3bfb",
      "v": 28,
      "creates": null,
      "raw": "0xf86e03850d7d40ace383015f9094859217617481bd9b6e3e38f6ae9bb677f0d26154893635c9adc5dea00000801ca0f785b64b84d75350039a0a73235fd8b3796272d9eabf9f272380a7d386afeea1a063d73d5f98769e1e2a093f0e000caef86f31aae2ee908814aad4197fe62b3bfb",
      "networkId": 0,
      "chainId": 0
    }
  ]
}