{
  "hash": "0x85fd566b7b47629b957fbb23fa047ff953b04c283b48378a906e87387e6582b0",
  "parentHash": "0xbcb40c329bf93932f8554f5ade9f852a86e869085d56d5ef29f26f6cc2175a6b",
  "number": 86316,
  "timestamp": 1439576635,
  "nonce": "0x78b2bebb853e466e",
  "difficulty": 2851268588167,
  "gasLimit": {
    "_hex": "0x2fefd8"
  },
  "gasUsed": {
    "_hex": "0x5208"
  },
  "miner": "0x53824166ea5271d3425e3194c848A90CA4e97eB2",
  "extraData": "0x476574682f76312e302e312f6c696e75782f676f312e342e32",
  "transactions": [
    {
      "hash": "0xa79ceb782c0e7d35796865867183fb85c6a80e30096ddd2118edefdebd13036e",
      "blockHash": "0x85fd566b7b47629b957fbb23fa047ff953b04c283b48378a906e87387e6582b0",
      "blockNumber": 86316,
      "transactionIndex": 0,
      "confirmations": null,
      "from": "0x2910543Af39abA0Cd09dBb2D50200b3E800A63D2",
      "gasPrice": {
        "_hex": "0xd2539a6f2"
      },
      "gasLimit": {
        "_hex": "0x5208"
      },
      "to": "0xf632DeDFBe89b648180c9d6CE837940411152207",
      "value": {
        "_hex": "0x1157c828fdbef8000"
      },
      "nonce": 659,
      "data": "0x",
      "r": "0x635a0332590785b68b07aaac7733a7929ac7b2095f9880e0c074caa3ca90f7d1",
      "s": "0x68d0f0361e29161b477b4767b003089418e78c754ededccf0c26e1680d8168e4",
      "v": 28,
      "creates": null,
      "raw": "0xf86f820293850d2539a6f282520894f632dedfbe89b648180c9d6ce8379404111522078901157c828fdbef8000801ca0635a0332590785b68b07aaac7733a7929ac7b2095f9880e0c074caa3ca90f7d1a068d0f0361e29161b477b4767b003089418e78c754ededccf0c26e1680d8168e4",
      "networkId": 0,
      "chainId": 0
    }
  ]
}