{
  "hash": "0x414b47faeaee41631bf1cd4ce7f0e3b2786a80b1c0041ef674b304ae59ea377e",
  "parentHash": "0x0d8a25e6398404b8c56f73db7ff86b65f3822aa41340ab7e58047d70e5fb29c1",
  "number": 52575,
  "timestamp": 1439023796,
  "nonce": "0xf39dd7ef59360f2f",
  "difficulty": 1566366903624,
  "gasLimit": {
    "_hex": "0x15b4b6"
  },
  "gasUsed": {
    "_hex": "0xf4240"
  },
  "miner": "0xdd2F1e6e498202e86D8f5442Af596580A4f03c2C",
  "extraData": "0x476574682f76312e302e312d38326566323666362f6c696e75782f676f312e34",
  "transactions": [
    {
      "hash": "0xdc9ad1f364ef926a8f316d131de342a0e49d2d2991b775e7dbaf5f8339bd5039",
      "blockHash": "0x414b47faeaee41631bf1cd4ce7f0e3b2786a80b1c0041ef674b304ae59ea377e",
      "blockNumber": 52575,
      "transactionIndex": 0,
      "confirmations": null,
      "from": "0x54dAeb3E8a6BBC797E4aD2b0339f134b186e4637",
      "gasPrice": {
        "_hex": "0xe7d27df17"
      },
      "gasLimit": {
        "_hex": "0x7a120"
      },
      "to": "0xBAA54d6E90c3F4d7Ebec11bD180134C7eD8eBb52",
      "value": {
        "_hex": "0x16345785d8a0000"
      },
      "nonce": 747,
      "data": "0x",
      "r": "0x8a3190281b3a0b5cf0c62d71059fe1eed1e5a6c58e904fe221a728d68fcc8774",
      "s": "0x12c73264bced95977b2e9e71c6124bc750b961b76ae673d821b393d9ee59058a",
      "v": 27,
      "creates": null,
      "raw": "0xf86f8202eb850e7d27df178307a12094baa54d6e90c3f4d7ebec11bd180134c7ed8ebb5288016345785d8a0000801ba08a3190281b3a0b5cf0c62d71059fe1eed1e5a6c58e904fe221a728d68fcc8774a012c73264bced95977b2e9e71c6124bc750b961b76ae673d821b393d9ee59058a",
      "networkId": 0,
      "chainId": 0
    },
    {
      "hash": "0xae50b6c93374d40195524cbd24aa27da9c1a1c4f00f43bb47bcc85fdaf101f80",
      "blockHash": "0x414b47faeaee41631bf1cd4ce7f0e3b2786a80b1c0041ef674b304ae59ea377e",
      "blockNumber": 52575,
      "transactionIndex": 1,
      "confirmations": null,
      "from": "0x54dAeb3E8a6BBC797E4aD2b0339f134b186e4637",
      "gasPrice": {
        "_hex": "0xe7d27df17"
      },
      "gasLimit": {
        "_hex": "0x7a120"
      },
      "to": "0xBAA54d6E90c3F4d7Ebec11bD180134C7eD8eBb52",
      "value": {
        "_hex": "0x16345785d8a0000"
      },
      "nonce": 748,
      "data": "0x",
      "r": "0xc1727f75a8566e5b9cf06bade1f75cce7dec3a3c0f5ca15aa1e8460f5f018a8a",
      "s": "0x11fc5ccce8ae416034476a5bf7202f8248ba65bb976b5d6ada54f1aff3105080",
      "v": 27,
      "creates": null,
      "raw": "0xf86f8202ec850e7d27df178307a12094baa54d6e90c3f4d7ebec11bd180134c7ed8ebb5288016345785d8a0000801ba0c1727f75a8566e5b9cf06bade1f75cce7dec3a3c0f5ca15aa1e8460f5f018a8aa011fc5ccce8ae416034476a5bf7202f8248ba65bb976b5d6ada54f1aff3105080",
      "networkId": 0,
      "chainId": 0
    }
  ]
}