{
  "hash": "0x480a9af50413d0780dac0835a3cc246e6b26db2a58704d320eee6fdfb0e0f723",
  "parentHash": "0x921c55e117061900ea0254d3dd46679cd456578dcd7850dae6075a34a1bf38fd",
  "number": 109108,
  "timestamp": 1439951124,
  "nonce": "0x5f9f1167eda1fd8a",
  "difficulty": 4425706129335,
  "gasLimit": {
    "_hex": "0x2fefd8"
  },
  "gasUsed": {
    "_hex": "0xa410"
  },
  "miner": "0xe6A7a1d47ff21B6321162AEA7C6CB457D5476Bca",
  "extraData": "0x476574682f76312e302e312d38326566323666362f6c696e75782f676f312e34",
  "transactions": [
    {
      "hash": "0xcd8ee63576bba4fb2847637f0fb5ea6cc881f3b18485ba59858a7094d8af18ee",
      "blockHash": "0x480a9af50413d0780dac0835a3cc246e6b26db2a58704d320eee6fdfb0e0f723",
      "blockNumber": 109108,
      "transactionIndex": 0,
      "confirmations": null,
      "from": "0x007f7f58D3eb5b7510A301eCC749FC1fCDDBE14D",
      "gasPrice": {
        "_hex": "0xd3d382c08"
      },
      "gasLimit": {
        "_hex": "0x15f90"
      },
      "to": "0xb1abce2918E21ddb93AA452731a12672A3d9F75a",
      "value": {
        "_hex": "0x9b41fbf9e0aec0000"
      },
      "nonce": 258,
      "data": "0x",
      "r": "0x4cd56272c9a03b8ab3b585a170178f1cca11abc73d6c433446e8b3c341de9da1",
      "s": "0x6a66147b1dabb3a886f839c5e6f675b4f274bb43b491080f9081d25ed1ffa916",
      "v": 28,
      "creates": null,
      "raw": "0xf870820102850d3d382c0883015f9094b1abce2918e21ddb93aa452731a12672a3d9f75a8909b41fbf9e0aec0000801ca04cd56272c9a03b8ab3b585a170178f1cca11abc73d6c433446e8b3c341de9da1a06a66147b1dabb3a886f839c5e6f675b4f274bb43b491080f9081d25ed1ffa916",
      "networkId": 0,
      "chainId": 0
    },
    {
      "hash": "0xf30290367be60af05e4b74dac83f8ab6e04c6811f80608c4c84c1951125b4dd0",
      "blockHash": "0x480a9af50413d0780dac0835a3cc246e6b26db2a58704d320eee6fdfb0e0f723",
      "blockNumber": 109108,
      "transactionIndex": 1,
      "confirmations": null,
      "from": "0x120A270bbC009644e35F0bB6ab13f95b8199c4ad",
      "gasPrice": {
        "_hex": "0xcaf003695"
      },
      "gasLimit": {
        "_hex": "0x3d090"
      },
      "to": "0x13F26856CBaCaAba9c4488a31C72E605fAe029FC",
      "value": {
        "_hex": "0xde0b6b3a7640000"
      },
      "nonce": 849,
      "data": "0x",
      "r": "0xd9fd3846dc45d98f924aaa918afc6c47280df0c594ba4a581336dfce7df9bd2b",
      "s": "0x1eb45240e8acf7dbb80806ad66844195b3d2e571fa24a8d7f1ddc3fd124354f9",
      "v": 28,
      "creates": null,
      "raw": "0xf86f820351850caf0036958303d0909413f26856cbacaaba9c4488a31c72e605fae029fc880de0b6b3a7640000801ca0d9fd3846dc45d98f924aaa918afc6c47280df0c594ba4a581336dfce7df9bd2ba01eb45240e8acf7dbb80806ad66844195b3d2e571fa24a8d7f1ddc3fd124354f9",
      "networkId": 0,
      "chainId": 0
    }
  ]
}