{
  "hash": "0x9b83e03538a710f165272184cdb17055b7fd08c0fdbe005ab84f086041edd6a7",
  "parentHash": "0x01de93a0f08e8d18958e4b64028737f66523abb43b4a856d90ab20cf455af5f7",
  "number": 119009,
  "timestamp": 1440135291,
  "nonce": "0xbd9bc8f05a1e23c4",
  "difficulty": 4409706549672,
  "gasLimit": {
    "_hex": "0x2fefd8"
  },
  "gasUsed": {
    "_hex": "0x5208"
  },
  "miner": "0x7E6930B63D03e88F5928C5cd6ee3FCee4D714F7F",
  "extraData": "0xd783010003844765746887676f312e342e32856c696e7578",
  "transactions": [
    {
      "hash": "0xe74742d7e6a7a5f5de0c08cd06c8a8a3bb95dc805f03973e6ec8addd64e49ddc",
      "blockHash": "0x9b83e03538a710f165272184cdb17055b7fd08c0fdbe005ab84f086041edd6a7",
      "blockNumber": 119009,
      "transactionIndex": 0,
      "confirmations": null,
      "from": "0x8B454d830feF179e66206840F8F3D1d83bC32b17",
      "gasPrice": {
        "_hex": "0xba43b7400"
      },
      "gasLimit": {
        "_hex": "0x15f90"
      },
      "to": "0xEa63C59e990047BF874D6A47900521D711460B79",
      "value": {
        "_hex": "0xde0b6b3a7640000"
      },
      "nonce": 17,
      "data": "0x",
      "r": "0x766ea836a0c4bb9f2a04f3db7751f61b54a38a594dfc97f39292c8b06b21d7ad",
      "s": "0x5ce65cb865fb0f306ea2fbbbdd891bd874c317143a0f208c9303cbc7641f6606",
      "v": 28,
      "creates": null,
      "raw": "0xf86d11850ba43b740083015f9094ea63c59e990047bf874d6a47900521d711460b79880de0b6b3a7640000801ca0766ea836a0c4bb9f2a04f3db7751f61b54a38a594dfc97f39292c8b06b21d7ada05ce65cb865fb0f306ea2fbbbdd891bd874c317143a0f208c9303cbc7641f6606",
      "networkId": 0,
      "chainId": 0
    }
  ]
}