{
  "hash": "0x60ba2a5971729c828078709d8cfb3baa74f08710fe0f9e21fc689519fca89cad",
  "parentHash": "0xb042319a74194827b7c2622ced2ece41049685b69ab0aa799ee8f33532efb6ed",
  "number": 67490,
  "timestamp": 1439272972,
  "nonce": "0xa772e02ee5da28f9",
  "difficulty": 1916679293817,
  "gasLimit": {
    "_hex": "0x2fefd5"
  },
  "gasUsed": {
    "_hex": "0x5208"
  },
  "miner": "0x39A1BB80a741bF5EC39FB9BE59408Fa0F418fFBf",
  "extraData": "0x476574682f76312e302e312f77696e646f77732f676f312e342e32",
  "transactions": [
    {
      "hash": "0x1542947b378cdfb93772b6b4e3cd044f996555af2d88066a6c29a47d83a88285",
      "blockHash": "0x60ba2a5971729c828078709d8cfb3baa74f08710fe0f9e21fc689519fca89cad",
      "blockNumber": 67490,
      "transactionIndex": 0,
      "confirmations": null,
      "from": "0x120A270bbC009644e35F0bB6ab13f95b8199c4ad",
      "gasPrice": {
        "_hex": "0xd49029d57"
      },
      "gasLimit": {
        "_hex": "0x15f90"
      },
      "to": "0x957523c697993cB24FCf75EfBce4f228325e7383",
      "value": {
        "_hex": "0x1043561a8829300000"
      },
      "nonce": 164,
      "data": "0x",
      "r": "0xadc540a9f8a5a317cf659a1ec6c719570cd9d5c6d892a221fc7e7370fb9ce932",
      "s": "0x3ce849041eef1f079bd792ecd038bfd9a03f66b8ca9a041590895af5bf2f03b5",
      "v": 27,
      "creates": null,
      "raw": "0xf86f81a4850d49029d5783015f9094957523c697993cb24fcf75efbce4f228325e7383891043561a8829300000801ba0adc540a9f8a5a317cf659a1ec6c719570cd9d5c6d892a221fc7e7370fb9ce932a03ce849041eef1f079bd792ecd038bfd9a03f66b8ca9a041590895af5bf2f03b5",
      "networkId": 0,
      "chainId": 0
    }
  ]
}