{
  "hash": "0x841179b05de93a897c86048372b28de765049254a2bfbb6991316aeec1a43d69",
  "parentHash": "0x8820d0be41062b4841b18a471c6bd1513dee06ecac9a47da888c4999928dc1ff",
  "number": 103785,
  "timestamp": 1439858882,
  "nonce": "0xba87894ad4bd6ad3",
  "difficulty": 4231913412861,
  "gasLimit": {
    "_hex": "0x2fefd8"
  },
  "gasUsed": {
    "_hex": "0xf618"
  },
  "miner": "0x77EC9ad4A7E9418774C29415CAaF4Ee0da96eF64",
  "extraData": "0x",
  "transactions": [
    {
      "hash": "0x53a5455a17dd3258363780c153b2f431447d1a416b10bed7f7395584008a5058",
      "blockHash": "0x841179b05de93a897c86048372b28de765049254a2bfbb6991316aeec1a43d69",
      "blockNumber": 103785,
      "transactionIndex": 0,
      "confirmations": null,
      "from": "0x458F183347F45a4001807728A89F31E9Da9D4A58",
      "gasPrice": {
        "_hex": "0xd69b48315"
      },
      "gasLimit": {
        "_hex": "0x15f90"
      },
      "to": "0x7313946aA53dCDd777C90905D75A9B41e17Ca2c9",
      "value": {
        "_hex": "0x4c53ecdc18a60000"
      },
      "nonce": 41,
      "data": "0x",
      "r": "0x6dc347edc3853f03c7b32dbb7d54a3b42ac54fae5d3a62f1b39d7b1604a952ce",
      "s": "0x256595fad30a431084129936adc855170e341c166bfe55527f609d4425aeb8a0",
      "v": 28,
      "creates": null,
      "raw": "0xf86d29850d69b4831583015f90947313946aa53dcdd777c90905d75a9b41e17ca2c9884c53ecdc18a60000801ca06dc347edc3853f03c7b32dbb7d54a3b42ac54fae5d3a62f1b39d7b1604a952cea0256595fad30a431084129936adc855170e341c166bfe55527f609d4425aeb8a0",
      "networkId": 0,
      "chainId": 0
    },
    {
      "hash": "0xdc5d03abebcb5dddcfde794ba291a116cc60e82cb0ddf5ae4356e4b15174d588",
      "blockHash": "0x841179b05de93a897c86048372b28de765049254a2bfbb6991316aeec1a43d69",
      "blockNumber": 103785,
      "transactionIndex": 1,
      "confirmations": null,
      "from": "0x458F183347F45a4001807728A89F31E9Da9D4A58",
      "gasPrice": {
        "_hex": "0xd69b48315"
      },
      "gasLimit": {
        "_hex": "0x15f90"
      },
      "to": "0x7fa165177F28D171bA7C17f765c1904344Ec64CB",
      "value": {
        "_hex": "0x24c6b0f5aec900000"
      },
      "nonce": 42,
      "data": "0x",
      "r": "0x8e4f84c4f1994d49eb34ff9ac461867941f39b35bfe3aab56bcaa269e5426aec",
      "s": "0x79f2177f54ddec76743e02714866381e5723aa8c627ccb29d498ae593bbfa035",
      "v": 27,
      "creates": null,
      "raw": "0xf86e2a850d69b4831583015f90947fa165177f28d171ba7c17f765c1904344ec64cb89024c6b0f5aec900000801ba08e4f84c4f1994d49eb34ff9ac461867941f39b35bfe3aab56bcaa269e5426aeca079f2177f54ddec76743e02714866381e5723aa8c627ccb29d498ae593bbfa035",
      "networkId": 0,
      "chainId": 0
    },
    {
      "hash": "0xcf60cc2860041e12b324ab3882f66142fa1e709fdb64f433da695e37ce8d4da9",
      "blockHash": "0x841179b05de93a897c86048372b28de765049254a2bfbb6991316aeec1a43d69",
      "blockNumber": 103785,
      "transactionIndex": 2,
      "confirmations": null,
      "from": "0x458F183347F45a4001807728A89F31E9Da9D4A58",
      "gasPrice": {
        "_hex": "0xd69b48315"
      },
      "gasLimit": {
        "_hex": "0x15f90"
      },
      "to": "0x1D3ffA437e5bce40fCC134f4E0ac62841E4A9E81",
      "value": {
        "_hex": "0x7759566f6c5c0000"
      },
      "nonce": 43,
      "data": "0x",
      "r": "0x0faeea7be966fcb40af8a7cba2d22e2cecc53d875695820e334fc74dc867c5fa",
      "s": "0x5269cc5f29012c654b9be746cad4b0441e579576f1ec854dd2823595ec04a275",
      "v": 27,
      "creates": null,
      "raw": "0xf86d2b850d69b4831583015f90941d3ffa437e5bce40fcc134f4e0ac62841e4a9e81887759566f6c5c0000801ba00faeea7be966fcb40af8a7cba2d22e2cecc53d875695820e334fc74dc867c5faa05269cc5f29012c654b9be746cad4b0441e579576f1ec854dd2823595ec04a275",
      "networkId": 0,
      "chainId": 0
    }
  ]
}