{
  "hash": "0x8ef0f2c978e6bdd11e1eb7b9b55ce1a4e3b00cd8c0d62061355b64ece5d88b1b",
  "parentHash": "0x37cae1bc7b193c9e2ad0f3cbff682019ac272d20cd36e7c05d20f11c46642a0f",
  "number": 116376,
  "timestamp": 1440073186,
  "nonce": "0xb2c1ac5bf9c25e5e",
  "difficulty": 4584569669413,
  "gasLimit": {
    "_hex": "0x2fefd8"
  },
  "gasUsed": {
    "_hex": "0x5208"
  },
  "miner": "0xe6A7a1d47ff21B6321162AEA7C6CB457D5476Bca",
  "extraData": "0x476574682f76312e302e312d38326566323666362f6c696e75782f676f312e34",
  "transactions": [
    {
      "hash": "0x89e506da558d51b92c73e7ed59825bcb5a7f5f2e5b139cd71c931dfb53c66f0f",
      "blockHash": "0x8ef0f2c978e6bdd11e1eb7b9b55ce1a4e3b00cd8c0d62061355b64ece5d88b1b",
      "blockNumber": 116376,
      "transactionIndex": 0,
      "confirmations": null,
      "from": "0xa70a9a7040d542C632D8e0bE7c5513A8a5Bbc752",
      "gasPrice": {
        "_hex": "0xd10b5b817"
      },
      "gasLimit": {
        "_hex": "0x5208"
      },
      "to": "0x32Be343B94f860124dC4fEe278FDCBD38C102D88",
      "value": {
        "_hex": "0x455f61c04f80dc00"
      },
      "nonce": 313,
      "data": "0x",
      "r": "0xeaca0065789cb2806cfc719d1b95b28ee01920454f7f96b21f32df22194a5bc8",
      "s": "0x2a4e1f55bc99453487d2791b3a36cf7ec858f61e4ae1768a34ab7de1ca7bbd44",
      "v": 28,
      "creates": null,
      "raw": "0xf86e820139850d10b5b8178252089432be343b94f860124dc4fee278fdcbd38c102d8888455f61c04f80dc00801ca0eaca0065789cb2806cfc719d1b95b28ee01920454f7f96b21f32df22194a5bc8a02a4e1f55bc99453487d2791b3a36cf7ec858f61e4ae1768a34ab7de1ca7bbd44",
      "networkId": 0,
      "chainId": 0
    }
  ]
}