{
  "hash": "0x0ed05a065f3bcf8595faa28165475023650106c964b153f9d845051137faccbf",
  "parentHash": "0x10cf429f89669beb38e7834d75524c6544a13b3301c77f92a251a1bfe809b7f5",
  "number": 105327,
  "timestamp": 1439885613,
  "nonce": "0xc6423e15786f3537",
  "difficulty": 4365446242283,
  "gasLimit": {
    "_hex": "0x2fefd8"
  },
  "gasUsed": {
    "_hex": "0x5208"
  },
  "miner": "0x9746c7e1ef2bd21FF3997fa467593a89cb852BD0",
  "extraData": "0x476574682f76312e302e312f77696e646f77732f676f312e342e32",
  "transactions": [
    {
      "hash": "0x3858407ea8d6878ff0692dee59c2b1e2b6313d0f1035ef759aae29ea728e7f3d",
      "blockHash": "0x0ed05a065f3bcf8595faa28165475023650106c964b153f9d845051137faccbf",
      "blockNumber": 105327,
      "transactionIndex": 0,
      "confirmations": null,
      "from": "0xe6A7a1d47ff21B6321162AEA7C6CB457D5476Bca",
      "gasPrice": {
        "_hex": "0xdc46f7d05"
      },
      "gasLimit": {
        "_hex": "0x55f0"
      },
      "to": "0x4a900C6a7785648E677cd96E39603466c0C7744A",
      "value": {
        "_hex": "0x5d1a4f7086729210"
      },
      "nonce": 3806,
      "data": "0x",
      "r": "0x02d1d9979a7d401c22ae7df345b778dd3076f4c60b31c7abadee9d3ec807b62f",
      "s": "0x14cbaa6161acf742306238f207313690b4b36750272a1bbdacbd61676680c41d",
      "v": 28,
      "creates": null,
      "raw": "0xf86e820ede850dc46f7d058255f0944a900c6a7785648e677cd96e39603466c0c7744a885d1a4f7086729210801ca002d1d9979a7d401c22ae7df345b778dd3076f4c60b31c7abadee9d3ec807b62fa014cbaa6161acf742306238f207313690b4b36750272a1bbdacbd61676680c41d",
      "networkId": 0,
      "chainId": 0
    }
  ]
}