{
  "hash": "0xd77f7338c78729d5012e78af188794d010c466347b4e1e9c0980eae397d3e1fa",
  "parentHash": "0xb0a97bcda140c8b55a9a1f560c44666213b3ba4c438ec17c01dfeba589d6094c",
  "number": 98020,
  "timestamp": 1439765742,
  "nonce": "0x287d1361f5ec9689",
  "difficulty": 3865275170197,
  "gasLimit": {
    "_hex": "0x2fefd8"
  },
  "gasUsed": {
    "_hex": "0x5208"
  },
  "miner": "0xe6A7a1d47ff21B6321162AEA7C6CB457D5476Bca",
  "extraData": "0x476574682f76312e302e312d38326566323666362f6c696e75782f676f312e34",
  "transactions": [
    {
      "hash": "0x2869547aa60f3c96ed92a0bd02aefeca97dd8925e69ebe4b06671a1b26b81367",
      "blockHash": "0xd77f7338c78729d5012e78af188794d010c466347b4e1e9c0980eae397d3e1fa",
      "blockNumber": 98020,
      "transactionIndex": 0,
      "confirmations": null,
      "from": "0x19ae27E1b61445EB9f27821A5eB4b3e957319e7e",
      "gasPrice": {
        "_hex": "0xd7a0c5d9a"
      },
      "gasLimit": {
        "_hex": "0x5208"
      },
      "to": "0x32Be343B94f860124dC4fEe278FDCBD38C102D88",
      "value": {
        "_hex": "0xd56e036a6bb0f80000"
      },
      "nonce": 13,
      "data": "0x",
      "r": "0xa72f51cf48fc0c358132b719ccaa1c7cb3222a98c9aa6fe745aa860057fcd3a3",
      "s": "0x30fb2d10ffde6b0f516077a3e17fb911cda563aa6dd0350f9f1be7ca438054df",
      "v": 27,
      "creates": null,
      "raw": "0xf86d0d850d7a0c5d9a8252089432be343b94f860124dc4fee278fdcbd38c102d8889d56e036a6bb0f80000801ba0a72f51cf48fc0c358132b719ccaa1c7cb3222a98c9aa6fe745aa860057fcd3a3a030fb2d10ffde6b0f516077a3e17fb911cda563aa6dd0350f9f1be7ca438054df",
      "networkId": 0,
      "chainId": 0
    }
  ]
}