{
  "hash": "0xb79089de6c21261397f012986373b22b1311efe243c2c3f92304967605792056",
  "parentHash": "0x90bc9b6654e89e29268a6041c362553c395725c0cbbaff19617c4146108edcea",
  "number": 120645,
  "timestamp": 1440163619,
  "nonce": "0xf86c5856bafde5ad",
  "difficulty": 4417466068189,
  "gasLimit": {
    "_hex": "0x2fefd8"
  },
  "gasUsed": {
    "_hex": "0x5208"
  },
  "miner": "0xD0ee3F53eE0fCf3F9fbCcdd17BD1b6441DdC2074",
  "extraData": "0x",
  "transactions": [
    {
      "hash": "0x8ce1e564fa9f5a30ab0c24b8c1257b456370e3d4a1d0ab3e2e53845e180f57ae",
      "blockHash": "0xb79089de6c21261397f012986373b22b1311efe243c2c3f92304967605792056",
      "blockNumber": 120645,
      "transactionIndex": 0,
      "confirmations": null,
      "from": "0x608f4b86321a68453f9adf6F06F7Fc3E621739ad",
      "gasPrice": {
        "_hex": "0xba43b7400"
      },
      "gasLimit": {
        "_hex": "0x5208"
      },
      "to": "0x32Be343B94f860124dC4fEe278FDCBD38C102D88",
      "value": {
        "_hex": "0x796a83abcba76000"
      },
      "nonce": 75,
      "data": "0x",
      "r": "0xf2a56c098173d1dca1061a9a71526d25e97ca5f701d49b7d5598defbca393ad8",
      "s": "0x080bf41d59fe586685ac067df707e69e50aa2dfa75080b5a6de6b21d36e62850",
      "v": 27,
      "creates": null,
      "raw": "0xf86c4b850ba43b74008252089432be343b94f860124dc4fee278fdcbd38c102d8888796a83abcba76000801ba0f2a56c098173d1dca1061a9a71526d25e97ca5f701d49b7d5598defbca393ad8a0080bf41d59fe586685ac067df707e69e50aa2dfa75080b5a6de6b21d36e62850",
      "networkId": 0,
      "chainId": 0
    }
  ]
}