{
  "hash": "0x9166b4524a49f7d78ab13649f480fb3166c1e9a342e59f87ebd465da5470da6c",
  "parentHash": "0x8493eeb7b928c0ac42ba5b8837f156a5ee0e4be4068820442c673bc9b79e7873",
  "number": 55491,
  "timestamp": 1439071471,
  "nonce": "0x0eb5f755a414f15d",
  "difficulty": 1628197789288,
  "gasLimit": {
    "_hex": "0x2fefd8"
  },
  "gasUsed": {
    "_hex": "0x575d"
  },
  "miner": "0x5A8d4616D25AD4928b08383073adb961A87De5d8",
  "extraData": "0x",
  "transactions": [
    {
      "hash": "0x23864cd9b807e296673e3f0f109ca497cc45a9d8e009acca93282eb74efcac33",
      "blockHash": "0x9166b4524a49f7d78ab13649f480fb3166c1e9a342e59f87ebd465da5470da6c",
      "blockNumber": 55491,
      "transactionIndex": 0,
      "confirmations": null,
      "from": "0x288E4356F12D0D3D0F8DF3506E457E7cFd5f4Ab0",
      "gasPrice": {
        "_hex": "0xd24e73553"
      },
      "gasLimit": {
        "_hex": "0x15f90"
      },
      "to": "0xF6bF0eE51FE0ee92500bB22295382E9241eC3b5C",
      "value": {
        "_hex": "0x0"
      },
      "nonce": 18,
      "data": "0x5e0572a70000000000000000000000000000000000000000000000001474ee0f7d16142c",
      "r": "0x81c48aeb7b60bdc03ac3e6904f4ce73c46afb13e016775120a2f1c007ee65711",
      "s": "0x4da59bed67bf0432229515981908634cc0d03a9c7fdf4005de5f471885f57f8c",
      "v": 28,
      "creates": null,
      "raw": "0xf88912850d24e7355383015f9094f6bf0ee51fe0ee92500bb22295382e9241ec3b5c80a45e0572a70000000000000000000000000000000000000000000000001474ee0f7d16142c1ca081c48aeb7b60bdc03ac3e6904f4ce73c46afb13e016775120a2f1c007ee65711a04da59bed67bf0432229515981908634cc0d03a9c7fdf4005de5f471885f57f8c",
      "networkId": 0,
      "chainId": 0
    }
  ]
}