{
  "hash": "0xbf6a79ebc35200d178418b94d5960c6361c5d46cb83aa7fd36b4f92d5104a9d2",
  "parentHash": "0x8ac6063a5d8ac792b1f62898b7e382280636249c395f03c2b2d5edfa0bf0ba5d",
  "number": 85086,
  "timestamp": 1439558324,
  "nonce": "0xe02fe0451b978a64",
  "difficulty": 2721098441655,
  "gasLimit": {
    "_hex": "0x2fefd8"
  },
  "gasUsed": {
    "_hex": "0xa410"
  },
  "miner": "0x007f7f58D3eb5b7510A301eCC749FC1fCDDBE14D",
  "extraData": "0x476574682f76312e302e312f77696e646f77732f676f312e342e32",
  "transactions": [
    {
      "hash": "0x004ed7cec7c94313ed61ee0b9cbf7444e2dfcdf126ff02c1bbba18016e9bb8ce",
      "blockHash": "0xbf6a79ebc35200d178418b94d5960c6361c5d46cb83aa7fd36b4f92d5104a9d2",
      "blockNumber": 85086,
      "transactionIndex": 0,
      "confirmations": null,
      "from": "0x151e1b655BC131b5aCf57Df4C4193029a2Af43bE",
      "gasPrice": {
        "_hex": "0xd2abdad69"
      },
      "gasLimit": {
        "_hex": "0x5208"
      },
      "to": "0x32Be343B94f860124dC4fEe278FDCBD38C102D88",
      "value": {
        "_hex": "0x3635c56b9dbf360000"
      },
      "nonce": 3,
      "data": "0x",
      "r": "0x591c883db1742183017fc2deb652662bf14315b823793af057497326a2c4a906",
      "s": "0x491a4fc7c6cf9068ef4b619a6ee349a8aa6d4fdfc87fe9f86e4ad6ef7c44dd7b",
      "v": 27,
      "creates": null,
      "raw": "0xf86d03850d2abdad698252089432be343b94f860124dc4fee278fdcbd38c102d88893635c56b9dbf360000801ba0591c883db1742183017fc2deb652662bf14315b823793af057497326a2c4a906a0491a4fc7c6cf9068ef4b619a6ee349a8aa6d4fdfc87fe9f86e4ad6ef7c44dd7b",
      "networkId": 0,
      "chainId": 0
    },
    {
      "hash": "0x1fe56e46daacee41bcbf5e7ee8f280900853bdc02526f3103277c849194e3fc3",
      "blockHash": "0xbf6a79ebc35200d178418b94d5960c6361c5d46cb83aa7fd36b4f92d5104a9d2",
      "blockNumber": 85086,
      "transactionIndex": 1,
      "confirmations": null,
      "from": "0x32Be343B94f860124dC4fEe278FDCBD38C102D88",
      "gasPrice": {
        "_hex": "0xd2abdad69"
      },
      "gasLimit": {
        "_hex": "0x5208"
      },
      "to": "0x72bb27Cb99f3E2C2CF90A98F707d30E4A201A071",
      "value": {
        "_hex": "0x579848dee9ab30000"
      },
      "nonce": 722,
      "data": "0x",
      "r": "0xfb6092a2beeaa5ecca44bb67cca3934b6f74122d93e7ebebcb49b6c5339496ce",
      "s": "0x3fd4e5ade6245929afa66d211230e0b38ec9f47cff688243bf11168687a7b7c3",
      "v": 27,
      "creates": null,
      "raw": "0xf86f8202d2850d2abdad698252089472bb27cb99f3e2c2cf90a98f707d30e4a201a071890579848dee9ab30000801ba0fb6092a2beeaa5ecca44bb67cca3934b6f74122d93e7ebebcb49b6c5339496cea03fd4e5ade6245929afa66d211230e0b38ec9f47cff688243bf11168687a7b7c3",
      "networkId": 0,
      "chainId": 0
    }
  ]
}