{
  "hash": "0x3a47e379e5f7bb77f627406a57a057a8b8494a65cf488f4ab90164f90b64c5a9",
  "parentHash": "0xfe273c71f4baf01994f5c82d6c84010fa6e5562357a90e02d85b1a7e9d6769c0",
  "number": 110959,
  "timestamp": 1439982314,
  "nonce": "0x4d18ced054d0e012",
  "difficulty": 4418252883368,
  "gasLimit": {
    "_hex": "0x2fefd8"
  },
  "gasUsed": {
    "_hex": "0x5208"
  },
  "miner": "0x580992B51e3925e23280EfB93d3047C82f17E038",
  "extraData": "0x476574682f76312e302e312f6c696e75782f676f312e342e32",
  "transactions": [
    {
      "hash": "0xaeb44014ace65d01df81374c55b4e8c424e5937bf2ef4d097b4e65187d2ee100",
      "blockHash": "0x3a47e379e5f7bb77f627406a57a057a8b8494a65cf488f4ab90164f90b64c5a9",
      "blockNumber": 110959,
      "transactionIndex": 0,
      "confirmations": null,
      "from": "0x7871C9936A21B89507B5B65C7B13d8216D832D76",
      "gasPrice": {
        "_hex": "0xd9d26eb82"
      },
      "gasLimit": {
        "_hex": "0x15f90"
      },
      "to": "0x108feDb097c1DCfED441480170144D8e19BB217f",
      "value": {
        "_hex": "0x36c3b46fb2973148"
      },
      "nonce": 7,
      "data": "0x",
      "r": "0x66c72b2b52f90515b25c2bbc646f09ebacf493b4c1ed15d9f67ea310e4d16eac",
      "s": "0x79b365139a8d118dbf1da2795b92b9c11f73130150ba126f26891333c46e57fe",
      "v": 27,
      "creates": null,
      "raw": "0xf86d07850d9d26eb8283015f9094108fedb097c1dcfed441480170144d8e19bb217f8836c3b46fb2973148801ba066c72b2b52f90515b25c2bbc646f09ebacf493b4c1ed15d9f67ea310e4d16eaca079b365139a8d118dbf1da2795b92b9c11f73130150ba126f26891333c46e57fe",
      "networkId": 0,
      "chainId": 0
    }
  ]
}