{
  "hash": "0xf7c28991757b2427671b3a6e58e6264cd18a2bf6c138841eb2c882afcaf1af1a",
  "parentHash": "0x13d9814bb7b74b93888be1f01575be155a2ead832c310e7957dabec607c06a01",
  "number": 99971,
  "timestamp": 1439798628,
  "nonce": "0x99bef5dac4933f78",
  "difficulty": 3843676011627,
  "gasLimit": {
    "_hex": "0x2fefd8"
  },
  "gasUsed": {
    "_hex": "0x75eb8"
  },
  "miner": "0xB1A4B41b8e75a153841c99c62d18588d45e7b406",
  "extraData": "0x",
  "transactions": [
    {
      "hash": "0x1351d8e0f8cea85a8ec723ada7a838010f518e19995c95d3caf3c2a6cec9904e",
      "blockHash": "0xf7c28991757b2427671b3a6e58e6264cd18a2bf6c138841eb2c882afcaf1af1a",
      "blockNumber": 99971,
      "transactionIndex": 0,
      "confirmations": null,
      "from": "0xe6A7a1d47ff21B6321162AEA7C6CB457D5476Bca",
      "gasPrice": {
        "_hex": "0xd90202c99"
      },
      "gasLimit": {
        "_hex": "0x55f0"
      },
      "to": "0x378fCAEF49580b550cB7164f14811a5E613BD683",
      "value": {
        "_hex": "0xf3ae3777f1c25f90"
      },
      "nonce": 3397,
      "data": "0x",
      "r": "0xb8a71c350459620eae91524aee6ac584daa5bc990511ac65a999ea4e3f1747af",
      "s": "0x190551605889ba96bd89723df4572ee7ec11b2cb2a6a2ed00554e36d2258f6de",
      "v": 27,
      "creates": null,
      "raw": "0xf86e820d45850d90202c998255f094378fcaef49580b550cb7164f14811a5e613bd68388f3ae3777f1c25f90801ba0b8a71c350459620eae91524aee6ac584daa5bc990511ac65a999ea4e3f1747afa0190551605889ba96bd89723df4572ee7ec11b2cb2a6a2ed00554e36d2258f6de",
      "networkId": 0,
      "chainId": 0
    },
    {
      "hash": "0x3401baee26bb487f6fe5f4c2ff0a04bfa9d15286db3e1ce2674ebd6a25cb046c",
      "blockHash": "0xf7c28991757b2427671b3a6e58e6264cd18a2bf6c138841eb2c882afcaf1af1a",
      "blockNumber": 99971,
      "transactionIndex": 1,
      "confirmations": null,
      "from": "0xe6A7a1d47ff21B6321162AEA7C6CB457D5476Bca",
      "gasPrice": {
        "_hex": "0xd90202c99"
      },
      "gasLimit": {
        "_hex": "0x55f0"
      },
      "to": "0x9B7280891dc19fd3A2e754cB9007203820650403",
      "value": {
        "_hex": "0xf9cfaba0b38421e0"
      },
      "nonce": 3398,
      "data": "0x",
      "r": "0x0c2dee90c8b4fb61623a5a8fff24844425ce909a68676e3340510e6fa040f7ed",
      "s": "0x1b743d6d3d382de1a22b46887011c831b1c558e2e991ae9bdbe034c20185d3b3",
      "v": 28,
      "creates": null,
      "raw": "0xf86e820d46850d90202c998255f0949b7280891dc19fd3a2e754cb900720382065040388f9cfaba0b38421e0801ca00c2dee90c8b4fb61623a5a8fff24844425ce909a68676e3340510e6fa040f7eda01b743d6d3d382de1a22b46887011c831b1c558e2e991ae9bdbe034c20185d3b3",
      "networkId": 0,
      "chainId": 0
    },
    {
      "hash": "0x5176a4392c53d0a0fe8ebb0560e4469f478fa23930a8ce9dee30e48495f98b1e",
      "blockHash": "0xf7c28991757b2427671b3a6e58e6264cd18a2bf6c138841eb2c882afcaf1af1a",
      "blockNumber": 99971,
      "transactionIndex": 2,
      "confirmations": null,
      "from": "0xe6A7a1d47ff21B6321162AEA7C6CB457D5476Bca",
      "gasPrice": {
        "_hex": "0xd90202c99"
      },
      "gasLimit": {
        "_hex": "0x55f0"
      },
      "to": "0xAF654b2845616930f74573a909B477E23752DcA4",
      "value": {
        "_hex": "0xfbdd3932787b56c0"
      },
      "nonce": 3399,
      "data": "0x",
      "r": "0x9513ef60a07ca58dde9f962b23d65eccb5a49fff448b6cfa08c8bc5854da316a",
      "s": "0x292266692eb23e0bee7fa3f7661e75d457d09768e216d3b00bfd75c711be0837",
      "v": 28,
      "creates": null,
      "raw": "0xf86e820d47850d90202c998255f094af654b2845616930f74573a909b477e23752dca488fbdd3932787b56c0801ca09513ef60a07ca58dde9f962b23d65eccb5a49fff448b6cfa08c8bc5854da316aa0292266692eb23e0bee7fa3f7661e75d457d09768e216d3b00bfd75c711be0837",
      "networkId": 0,
      "chainId": 0
    },
    {
      "hash": "0xbc10834f4786b21f480d8ba80be7f43f2238ca1e7cb76a17a9b27504f95a17cb",
      "blockHash": "0xf7c28991757b2427671b3a6e58e6264cd18a2bf6c138841eb2c882afcaf1af1a",
      "blockNumber": 99971,
      "transactionIndex": 3,
      "confirmations": null,
      "from": "0xe6A7a1d47ff21B6321162AEA7C6CB457D5476Bca",
      "gasPrice": {
        "_hex": "0xd90202c99"
      },
      "gasLimit": {
        "_hex": "0x55f0"
      },
      "to": "0x8e33bFA30c0c6eb3652321FF52E2fB3143fa51BF",
      "value": {
        "_hex": "0xfc7323f7a98f6698"
      },
      "nonce": 3400,
      "data": "0x",
      "r": "0x2a760916b4c173fecf67ba83c978eff5ad3f7302d7dc8ac75a134be9dc90b51a",
      "s": "0x46275d9e82b20659e78ec4b31773d14afc0fce6311810a5bba799e6f80f7e7fe",
      "v": 27,
      "creates": null,
      "raw": "0xf86e820d48850d90202c998255f0948e33bfa30c0c6eb3652321ff52e2fb3143fa51bf88fc7323f7a98f6698801ba02a760916b4c173fecf67ba83c978eff5ad3f7302d7dc8ac75a134be9dc90b51aa046275d9e82b20659e78ec4b31773d14afc0fce6311810a5bba799e6f80f7e7fe",
      "networkId": 0,
      "chainId": 0
    },
    {
      "hash": "0x5a448859ee91834c888c9593635aa99392ff08c9d6eedff24111b85174e4a5fa",
      "blockHash": "0xf7c28991757b2427671b3a6e58e6264cd18a2bf6c138841eb2c882afcaf1af1a",
      "blockNumber": 99971,
      "transactionIndex": 4,
      "confirmations": null,
      "from": "0xe6A7a1d47ff21B6321162AEA7C6CB457D5476Bca",
      "gasPrice": {
        "_hex": "0xd90202c99"
      },
      "gasLimit": {
        "_hex": "0x55f0"
      },
      "to": "0xC13Dad778D7BcE116BD97f744625D57f7124c38A",
      "value": {
        "_hex": "0xfeb310a8da3ac168"
      },
      "nonce": 3401,
      "data": "0x",
      "r": "0xa2a39505b6470438716b2d8f49d7c5e27742ba6b1450861a75b480132d4f0bbc",
      "s": "0x1b955c120ab632e793aeedc1f3d5640f5af114a3fc2aef510febd4c9222abaed",
      "v": 28,
      "creates": null,
      "raw": "0xf86e820d49850d90202c998255f094c13dad778d7bce116bd97f744625d57f7124c38a88feb310a8da3ac168801ca0a2a39505b6470438716b2d8f49d7c5e27742ba6b1450861a75b480132d4f0bbca01b955c120ab632e793aeedc1f3d5640f5af114a3fc2aef510febd4c9222abaed",
      "networkId": 0,
      "chainId": 0
    },
    {
      "hash": "0x6cd8d7b42134b2894f2a49487262156bb2ea602d5cffcb817ae08c44874c918b",
      "blockHash": "0xf7c28991757b2427671b3a6e58e6264cd18a2bf6c138841eb2c882afcaf1af1a",
      "blockNumber": 99971,
      "transactionIndex": 5,
      "confirmations": null,
      "from": "0xe6A7a1d47ff21B6321162AEA7C6CB457D5476Bca",
      "gasPrice": {
        "_hex": "0xd90202c99"
      },
      "gasLimit": {
        "_hex": "0x55f0"
      },
      "to": "0x229f76DdF9053EEb247D1aB455af64e6D26029b8",
      "value": {
        "_hex": "0x102542b90e39ce1a8"
      },
      "nonce": 3402,
      "data": "0x",
      "r": "0x9616a9084a94a6e43942cc7978aeb297345bc54ed37c044d2bad7b7cea70e635",
      "s": "0x5dbcbfeb1c7d63c46644ba0fbaff78a67eb91eb070f397ec6d3605c7474e2258",
      "v": 27,
      "creates": null,
      "raw": "0xf86f820d4a850d90202c998255f094229f76ddf9053eeb247d1ab455af64e6d26029b8890102542b90e39ce1a8801ba09616a9084a94a6e43942cc7978aeb297345bc54ed37c044d2bad7b7cea70e635a05dbcbfeb1c7d63c46644ba0fbaff78a67eb91eb070f397ec6d3605c7474e2258",
      "networkId": 0,
      "chainId": 0
    },
    {
      "hash": "0xd9221f16dcc8493f6acf749ee6a9e7a9ca0306c198a8e7b2a40e367c2a4aeb58",
      "blockHash": "0xf7c28991757b2427671b3a6e58e6264cd18a2bf6c138841eb2c882afcaf1af1a",
      "blockNumber": 99971,
      "transactionIndex": 6,
      "confirmations": null,
      "from": "0xe6A7a1d47ff21B6321162AEA7C6CB457D5476Bca",
      "gasPrice": {
        "_hex": "0xd90202c99"
      },
      "gasLimit": {
        "_hex": "0x55f0"
      },
      "to": "0xD9a9A8ec148D2B0F7Cd8B2700013A9AA5cf89910",
      "value": {
        "_hex": "0x1052df023b392ae78"
      },
      "nonce": 3403,
      "data": "0x",
      "r": "0xac668b452cc0a1165d1d6fb59fc40b1dd9be829c578131be0f58b22adbbd16b2",
      "s": "0x6e3cec92746c805324cee2e700326b4cd0c4cda4532e5540e7943be6adee0454",
      "v": 28,
      "creates": null,
      "raw": "0xf86f820d4b850d90202c998255f094d9a9a8ec148d2b0f7cd8b2700013a9aa5cf899108901052df023b392ae78801ca0ac668b452cc0a1165d1d6fb59fc40b1dd9be829c578131be0f58b22adbbd16b2a06e3cec92746c805324cee2e700326b4cd0c4cda4532e5540e7943be6adee0454",
      "networkId": 0,
      "chainId": 0
    },
    {
      "hash": "0x29f87af932e55711356e293126772899a5cd4621174123a25cf741bf65881768",
      "blockHash": "0xf7c28991757b2427671b3a6e58e6264cd18a2bf6c138841eb2c882afcaf1af1a",
      "blockNumber": 99971,
      "transactionIndex": 7,
      "confirmations": null,
      "from": "0xe6A7a1d47ff21B6321162AEA7C6CB457D5476Bca",
      "gasPrice": {
        "_hex": "0xd90202c99"
      },
      "gasLimit": {
        "_hex": "0x55f0"
      },
      "to": "0xFc8bc4ed86dF73001ce6082F3dB914d7c7A9a6cC",
      "value": {
        "_hex": "0x10f342288f6404ad0"
      },
      "nonce": 3404,
      "data": "0x",
      "r": "0x5bab7d0f516b7757494e8773d14f7d227171c3864a2201616ca2fe702a47dcd6",
      "s": "0x22231ba7529c400371279a2c65b9256451c1fc7652a308a590494d89162fabe1",
      "v": 27,
      "creates": null,
      "raw": "0xf86f820d4c850d90202c998255f094fc8bc4ed86df73001ce6082f3db914d7c7a9a6cc89010f342288f6404ad0801ba05bab7d0f516b7757494e8773d14f7d227171c3864a2201616ca2fe702a47dcd6a022231ba7529c400371279a2c65b9256451c1fc7652a308a590494d89162fabe1",
      "networkId": 0,
      "chainId": 0
    },
    {
      "hash": "0x983b8239c1dba404011523ad86eb48dc81ea318e5230f3138f25ab145ad899a9",
      "blockHash": "0xf7c28991757b2427671b3a6e58e6264cd18a2bf6c138841eb2c882afcaf1af1a",
      "blockNumber": 99971,
      "transactionIndex": 8,
      "confirmations": null,
      "from": "0xe6A7a1d47ff21B6321162AEA7C6CB457D5476Bca",
      "gasPrice": {
        "_hex": "0xd90202c99"
      },
      "gasLimit": {
        "_hex": "0x55f0"
      },
      "to": "0xeF0a7407D5b9AF9fA9f38f67aBB66d20686afb55",
      "value": {
        "_hex": "0x110e326e2b6a49fc0"
      },
      "nonce": 3405,
      "data": "0x",
      "r": "0x99dab048314af920a3664a9bf57ccfabd51d8419d940685cabea4f6977432b8d",
      "s": "0x465a88b838dd769ef3fd06f9f92d823a95e1d6d538455fc0c21e94a609962854",
      "v": 28,
      "creates": null,
      "raw": "0xf86f820d4d850d90202c998255f094ef0a7407d5b9af9fa9f38f67abb66d20686afb55890110e326e2b6a49fc0801ca099dab048314af920a3664a9bf57ccfabd51d8419d940685cabea4f6977432b8da0465a88b838dd769ef3fd06f9f92d823a95e1d6d538455fc0c21e94a609962854",
      "networkId": 0,
      "chainId": 0
    },
    {
      "hash": "0x9be9830828ea077e8b68e6d66c172d084c9a35f97853ccefd935517f16077e32",
      "blockHash": "0xf7c28991757b2427671b3a6e58e6264cd18a2bf6c138841eb2c882afcaf1af1a",
      "blockNumber": 99971,
      "transactionIndex": 9,
      "confirmations": null,
      "from": "0xe6A7a1d47ff21B6321162AEA7C6CB457D5476Bca",
      "gasPrice": {
        "_hex": "0xd90202c99"
      },
      "gasLimit": {
        "_hex": "0x55f0"
      },
      "to": "0xE6D67E3661E28eE2DfC1c68D5DeeA3C3bB880059",
      "value": {
        "_hex": "0x1128c9e9123d0df20"
      },
      "nonce": 3406,
      "data": "0x",
      "r": "0x5da49e54ce361f1253c1cc5bb3266c2508e64b0628350a831eca681622537c6d",
      "s": "0x733a79ebf3cdb40c39cbedde260df57db3c2c2601e0571f4c4cc399c2ec4a3c3",
      "v": 27,
      "creates": null,
      "raw": "0xf86f820d4e850d90202c998255f094e6d67e3661e28ee2dfc1c68d5deea3c3bb8800598901128c9e9123d0df20801ba05da49e54ce361f1253c1cc5bb3266c2508e64b0628350a831eca681622537c6da0733a79ebf3cdb40c39cbedde260df57db3c2c2601e0571f4c4cc399c2ec4a3c3",
      "networkId": 0,
      "chainId": 0
    },
    {
      "hash": "0xc0b57cfb5116a975ac45f479631fcbcec1f2f928180615e68a8f6c6a60882995",
      "blockHash": "0xf7c28991757b2427671b3a6e58e6264cd18a2bf6c138841eb2c882afcaf1af1a",
      "blockNumber": 99971,
      "transactionIndex": 10,
      "confirmations": null,
      "from": "0xe6A7a1d47ff21B6321162AEA7C6CB457D5476Bca",
      "gasPrice": {
        "_hex": "0xd90202c99"
      },
      "gasLimit": {
        "_hex": "0x55f0"
      },
      "to": "0x61E20833179bA2eCCc2065e5F733CC8CdA7394c0",
      "value": {
        "_hex": "0x113e04b96c0b9d0b0"
      },
      "nonce": 3407,
      "data": "0x",
      "r": "0x3be3a7c023d7a5032c567fb1e821e7d83c0596adfc40fb83c1997c780747c77a",
      "s": "0x420ff4dbf894d4edee1b0ca1deab5bb9e6378cdbfb7e383196ee824e5a2cbf0c",
      "v": 28,
      "creates": null,
      "raw": "0xf86f820d4f850d90202c998255f09461e20833179ba2eccc2065e5f733cc8cda7394c0890113e04b96c0b9d0b0801ca03be3a7c023d7a5032c567fb1e821e7d83c0596adfc40fb83c1997c780747c77aa0420ff4dbf894d4edee1b0ca1deab5bb9e6378cdbfb7e383196ee824e5a2cbf0c",
      "networkId": 0,
      "chainId": 0
    },
    {
      "hash": "0x6838e0b27eea856a5b68e39512be3d601e6adbeaa4ba87df55e49ea69ebbf8a6",
      "blockHash": "0xf7c28991757b2427671b3a6e58e6264cd18a2bf6c138841eb2c882afcaf1af1a",
      "blockNumber": 99971,
      "transactionIndex": 11,
      "confirmations": null,
      "from": "0xe6A7a1d47ff21B6321162AEA7C6CB457D5476Bca",
      "gasPrice": {
        "_hex": "0xd90202c99"
      },
      "gasLimit": {
        "_hex": "0x55f0"
      },
      "to": "0xB6AC12CefF0375Da80503AcCa54bf3061Fa917a8",
      "value": {
        "_hex": "0x1147abe8a349b5610"
      },
      "nonce": 3408,
      "data": "0x",
      "r": "0x74df4ab6ad40d257f73ce79d86dc242bfafd88aa003575e62cf61f6707e2df6e",
      "s": "0x62eb870655fd960aafc04e7c3edf8deb05fbe3f14bb88720bf47d1694bb9e332",
      "v": 27,
      "creates": null,
      "raw": "0xf86f820d50850d90202c998255f094b6ac12ceff0375da80503acca54bf3061fa917a88901147abe8a349b5610801ba074df4ab6ad40d257f73ce79d86dc242bfafd88aa003575e62cf61f6707e2df6ea062eb870655fd960aafc04e7c3edf8deb05fbe3f14bb88720bf47d1694bb9e332",
      "networkId": 0,
      "chainId": 0
    },
    {
      "hash": "0x11574263236efa0d0068120d5e469bbed6783e608e88a880112c3edd8293524e",
      "blockHash": "0xf7c28991757b2427671b3a6e58e6264cd18a2bf6c138841eb2c882afcaf1af1a",
      "blockNumber": 99971,
      "transactionIndex": 12,
      "confirmations": null,
      "from": "0xe6A7a1d47ff21B6321162AEA7C6CB457D5476Bca",
      "gasPrice": {
        "_hex": "0xd90202c99"
      },
      "gasLimit": {
        "_hex": "0x55f0"
      },
      "to": "0x72E9B6674F1F4eb48556178f40657D8f129bFb79",
      "value": {
        "_hex": "0x11604760a08e53b40"
      },
      "nonce": 3409,
      "data": "0x",
      "r": "0x343a1cec3c130794f3f80f216583d236a8c6473201df24b0ac01531f3c50cd5d",
      "s": "0x2412f049f976991560db54ba1485d45ffafd679f0c635054632bb25032e2a01a",
      "v": 27,
      "creates": null,
      "raw": "0xf86f820d51850d90202c998255f09472e9b6674f1f4eb48556178f40657d8f129bfb7989011604760a08e53b40801ba0343a1cec3c130794f3f80f216583d236a8c6473201df24b0ac01531f3c50cd5da02412f049f976991560db54ba1485d45ffafd679f0c635054632bb25032e2a01a",
      "networkId": 0,
      "chainId": 0
    },
    {
      "hash": "0xc52d4a4040bc2c8530183206aceb3440bf6f7e20dcbdd074535c4e5d0f2889fd",
      "blockHash": "0xf7c28991757b2427671b3a6e58e6264cd18a2bf6c138841eb2c882afcaf1af1a",
      "blockNumber": 99971,
      "transactionIndex": 13,
      "confirmations": null,
      "from": "0xe6A7a1d47ff21B6321162AEA7C6CB457D5476Bca",
      "gasPrice": {
        "_hex": "0xd90202c99"
      },
      "gasLimit": {
        "_hex": "0x55f0"
      },
      "to": "0x02020D22dCF88f5eDd66B382D7da019F161fB7e3",
      "value": {
        "_hex": "0x117393670fc71a1c0"
      },
      "nonce": 3410,
      "data": "0x",
      "r": "0xa57beb4b7dff7819330454f804d02422a8700c9208fb684c0888434047a48328",
      "s": "0x09100714954c8fd612f6b213bc885a34e252b0f80671dba656563626c97b04da",
      "v": 27,
      "creates": null,
      "raw": "0xf86f820d52850d90202c998255f09402020d22dcf88f5edd66b382d7da019f161fb7e3890117393670fc71a1c0801ba0a57beb4b7dff7819330454f804d02422a8700c9208fb684c0888434047a48328a009100714954c8fd612f6b213bc885a34e252b0f80671dba656563626c97b04da",
      "networkId": 0,
      "chainId": 0
    },
    {
      "hash": "0x0db655821e5c5f82935224eb1dc801801900566ffa59e58308b673ef4df9da34",
      "blockHash": "0xf7c28991757b2427671b3a6e58e6264cd18a2bf6c138841eb2c882afcaf1af1a",
      "blockNumber": 99971,
      "transactionIndex": 14,
      "confirmations": null,
      "from": "0xe6A7a1d47ff21B6321162AEA7C6CB457D5476Bca",
      "gasPrice": {
        "_hex": "0xd90202c99"
      },
      "gasLimit": {
        "_hex": "0x55f0"
      },
      "to": "0x48659D8f8C9A2FD44F68daA55d23A608FBE500DC",
      "value": {
        "_hex": "0x11e0a7238575f2ed8"
      },
      "nonce": 3411,
      "data": "0x",
      "r": "0x1c1c0d6b09b921009d9589a623709fa60355e7acbfd682b478c6b4c7df555537",
      "s": "0x7543393287eb592642cc26d7503948c70a7e24284e46bb593eb550692b412d92",
      "v": 28,
      "creates": null,
      "raw": "0xf86f820d53850d90202c998255f09448659d8f8c9a2fd44f68daa55d23a608fbe500dc89011e0a7238575f2ed8801ca01c1c0d6b09b921009d9589a623709fa60355e7acbfd682b478c6b4c7df555537a07543393287eb592642cc26d7503948c70a7e24284e46bb593eb550692b412d92",
      "networkId": 0,
      "chainId": 0
    },
    {
      "hash": "0x0abfd5434b181308e6e5033bbb2cc1691be691f023496f41aac97bf50a363373",
      "blockHash": "0xf7c28991757b2427671b3a6e58e6264cd18a2bf6c138841eb2c882afcaf1af1a",
      "blockNumber": 99971,
      "transactionIndex": 15,
      "confirmations": null,
      "from": "0xe6A7a1d47ff21B6321162AEA7C6CB457D5476Bca",
      "gasPrice": {
        "_hex": "0xd90202c99"
      },
      "gasLimit": {
        "_hex": "0x55f0"
      },
      "to": "0x10d50b62A87413dFD8b111398613F2eB8d819f6C",
      "value": {
        "_hex": "0x11fce3b47dd0a2090"
      },
      "nonce": 3412,
      "data": "0x",
      "r": "0x14e40c04b2e511a7108964e02dae07d1d38ad6efe198f3b79574b3f8a7a6f3aa",
      "s": "0x2759ebc7e3f55d87f84814ce890d4f5ab96c15ad79035074243d6719baca0467",
      "v": 27,
      "creates": null,
      "raw": "0xf86f820d54850d90202c998255f09410d50b62a87413dfd8b111398613f2eb8d819f6c89011fce3b47dd0a2090801ba014e40c04b2e511a7108964e02dae07d1d38ad6efe198f3b79574b3f8a7a6f3aaa02759ebc7e3f55d87f84814ce890d4f5ab96c15ad79035074243d6719baca0467",
      "networkId": 0,
      "chainId": 0
    },
    {
      "hash": "0x1006ff1544a2b8f6c49385379d2924eccba5df1f3fb25e5b2a55137e354bb8b0",
      "blockHash": "0xf7c28991757b2427671b3a6e58e6264cd18a2bf6c138841eb2c882afcaf1af1a",
      "blockNumber": 99971,
      "transactionIndex": 16,
      "confirmations": null,
      "from": "0xe6A7a1d47ff21B6321162AEA7C6CB457D5476Bca",
      "gasPrice": {
        "_hex": "0xd90202c99"
      },
      "gasLimit": {
        "_hex": "0x55f0"
      },
      "to": "0x13065c2648269D5b802D31341006d0b458a187fE",
      "value": {
        "_hex": "0x11fe774f9ca44ee68"
      },
      "nonce": 3413,
      "data": "0x",
      "r": "0x66a0eaaf95937c0b7c5d09fd818a029a058a6694f3a76a9b627da8f8045d0db6",
      "s": "0x6eaed83f3920f3f8dfdfc86027260463bf439c7593883e76910502047dbca816",
      "v": 28,
      "creates": null,
      "raw": "0xf86f820d55850d90202c998255f09413065c2648269d5b802d31341006d0b458a187fe89011fe774f9ca44ee68801ca066a0eaaf95937c0b7c5d09fd818a029a058a6694f3a76a9b627da8f8045d0db6a06eaed83f3920f3f8dfdfc86027260463bf439c7593883e76910502047dbca816",
      "networkId": 0,
      "chainId": 0
    },
    {
      "hash": "0x01c1b77898109f0b73eccb36f3c0f3a7c526296b9975f00fb38bbd191f2436db",
      "blockHash": "0xf7c28991757b2427671b3a6e58e6264cd18a2bf6c138841eb2c882afcaf1af1a",
      "blockNumber": 99971,
      "transactionIndex": 17,
      "confirmations": null,
      "from": "0xe6A7a1d47ff21B6321162AEA7C6CB457D5476Bca",
      "gasPrice": {
        "_hex": "0xd90202c99"
      },
      "gasLimit": {
        "_hex": "0x55f0"
      },
      "to": "0x9dc5018E753A410593259039296bBfd28E29f894",
      "value": {
        "_hex": "0x129afa27676c720e0"
      },
      "nonce": 3414,
      "data": "0x",
      "r": "0x01dc0ac909c7a01811850c1a92130ff2fc46d52d6889d16d7f3c3184a8e60d44",
      "s": "0x037764e3bd2c2808775f38854cfc9ef3aee6a066e2bb2dbe1e74c3b21d3eb510",
      "v": 27,
      "creates": null,
      "raw": "0xf86f820d56850d90202c998255f0949dc5018e753a410593259039296bbfd28e29f894890129afa27676c720e0801ba001dc0ac909c7a01811850c1a92130ff2fc46d52d6889d16d7f3c3184a8e60d44a0037764e3bd2c2808775f38854cfc9ef3aee6a066e2bb2dbe1e74c3b21d3eb510",
      "networkId": 0,
      "chainId": 0
    },
    {
      "hash": "0x628dc66ce265004166563c2e03152964b3e60fab14f67d7c366eb10ac45a1e05",
      "blockHash": "0xf7c28991757b2427671b3a6e58e6264cd18a2bf6c138841eb2c882afcaf1af1a",
      "blockNumber": 99971,
      "transactionIndex": 18,
      "confirmations": null,
      "from": "0xe6A7a1d47ff21B6321162AEA7C6CB457D5476Bca",
      "gasPrice": {
        "_hex": "0xd90202c99"
      },
      "gasLimit": {
        "_hex": "0x55f0"
      },
      "to": "0x91139B30e3d090a8c542CFB2AA1Cc6e3bfFB491C",
      "value": {
        "_hex": "0x1305ca3600a804fd0"
      },
      "nonce": 3415,
      "data": "0x",
      "r": "0x8d6c4e943f598075f407dccdb5a2ab75dd52c43bda797a3777ac91ef3ce76311",
      "s": "0x3ba6343b96ce511fc3d277a8b736315d28490d90ba85c549d1314e92967f31ca",
      "v": 27,
      "creates": null,
      "raw": "0xf86f820d57850d90202c998255f09491139b30e3d090a8c542cfb2aa1cc6e3bffb491c8901305ca3600a804fd0801ba08d6c4e943f598075f407dccdb5a2ab75dd52c43bda797a3777ac91ef3ce76311a03ba6343b96ce511fc3d277a8b736315d28490d90ba85c549d1314e92967f31ca",
      "networkId": 0,
      "chainId": 0
    },
    {
      "hash": "0x08e577e2185ad217d1b5dd0a561896fb989a47ed6b94c179451acf2eeb036f31",
      "blockHash": "0xf7c28991757b2427671b3a6e58e6264cd18a2bf6c138841eb2c882afcaf1af1a",
      "blockNumber": 99971,
      "transactionIndex": 19,
      "confirmations": null,
      "from": "0xe6A7a1d47ff21B6321162AEA7C6CB457D5476Bca",
      "gasPrice": {
        "_hex": "0xd90202c99"
      },
      "gasLimit": {
        "_hex": "0x55f0"
      },
      "to": "0x8101538Df7E005d06CA303f609631c4029130687",
      "value": {
        "_hex": "0x135b7c6ace778caf0"
      },
      "nonce": 3416,
      "data": "0x",
      "r": "0x4ee032f61a5efbd0b5fa1924696cdc5c5352c4d17261bf9f6f60af3cdbe19c66",
      "s": "0x7cafe813d51d1c2e36df125bc4ac5fde94913153ecf57b9e84a87894ff5bc867",
      "v": 28,
      "creates": null,
      "raw": "0xf86f820d58850d90202c998255f0948101538df7e005d06ca303f609631c4029130687890135b7c6ace778caf0801ca04ee032f61a5efbd0b5fa1924696cdc5c5352c4d17261bf9f6f60af3cdbe19c66a07cafe813d51d1c2e36df125bc4ac5fde94913153ecf57b9e84a87894ff5bc867",
      "networkId": 0,
      "chainId": 0
    },
    {
      "hash": "0xe7ca02c66c5f0653fe837c5d8056340222fac91ada92e08f3af6a98abc575360",
      "blockHash": "0xf7c28991757b2427671b3a6e58e6264cd18a2bf6c138841eb2c882afcaf1af1a",
      "blockNumber": 99971,
      "transactionIndex": 20,
      "confirmations": null,
      "from": "0xe6A7a1d47ff21B6321162AEA7C6CB457D5476Bca",
      "gasPrice": {
        "_hex": "0xd90202c99"
      },
      "gasLimit": {
        "_hex": "0x55f0"
      },
      "to": "0xD99b25c518320820D3C5ae9f47378DA32dED5f00",
      "value": {
        "_hex": "0x1366ef3bd9c71af68"
      },
      "nonce": 3417,
      "data": "0x",
      "r": "0x1cb1edc9985de93956f2928d0afd9d0e7c926958d499114a32583c9f7682d5ba",
      "s": "0x1cfa3f7e8e59f6a2888dfb38e10f2bcad6d80dae6be561c77f6a8de740108d98",
      "v": 27,
      "creates": null,
      "raw": "0xf86f820d59850d90202c998255f094d99b25c518320820d3c5ae9f47378da32ded5f008901366ef3bd9c71af68801ba01cb1edc9985de93956f2928d0afd9d0e7c926958d499114a32583c9f7682d5baa01cfa3f7e8e59f6a2888dfb38e10f2bcad6d80dae6be561c77f6a8de740108d98",
      "networkId": 0,
      "chainId": 0
    },
    {
      "hash": "0x16989de8be40e6b5e107ab25b6b239116d36effcdb3c1f1dab9a8d49903695f9",
      "blockHash": "0xf7c28991757b2427671b3a6e58e6264cd18a2bf6c138841eb2c882afcaf1af1a",
      "blockNumber": 99971,
      "transactionIndex": 21,
      "confirmations": null,
      "from": "0xe6A7a1d47ff21B6321162AEA7C6CB457D5476Bca",
      "gasPrice": {
        "_hex": "0xd90202c99"
      },
      "gasLimit": {
        "_hex": "0x55f0"
      },
      "to": "0x9A6eb0bBBE50281644D7a7839147F59819506Ac0",
      "value": {
        "_hex": "0x137e274f858fa2018"
      },
      "nonce": 3418,
      "data": "0x",
      "r": "0xdbcc1718c814071e1dd6c21f7c872667fc413afc2295cb38dc2050f4077712ab",
      "s": "0x3d7143f5c5e8b6d111a2b205dfe059de1272e8abef156c3a8157f622e3193aae",
      "v": 27,
      "creates": null,
      "raw": "0xf86f820d5a850d90202c998255f0949a6eb0bbbe50281644d7a7839147f59819506ac0890137e274f858fa2018801ba0dbcc1718c814071e1dd6c21f7c872667fc413afc2295cb38dc2050f4077712aba03d7143f5c5e8b6d111a2b205dfe059de1272e8abef156c3a8157f622e3193aae",
      "networkId": 0,
      "chainId": 0
    },
    {
      "hash": "0x2eea6df3a6f99bf5e621441c0be0d10340c1de19a85d8c710f78d59e35703c1c",
      "blockHash": "0xf7c28991757b2427671b3a6e58e6264cd18a2bf6c138841eb2c882afcaf1af1a",
      "blockNumber": 99971,
      "transactionIndex": 22,
      "confirmations": null,
      "from": "0xACAB9A83F47D28Fdc1d12772A0B571f80444b5DD",
      "gasPrice": {
        "_hex": "0xd40734c96"
      },
      "gasLimit": {
        "_hex": "0x7a120"
      },
      "to": "0x19939AD9F09d103B670c9EE56cA41d5764380f8A",
      "value": {
        "_hex": "0x2e5a104dcdce0000"
      },
      "nonce": 4,
      "data": "0x",
      "r": "0xbf4d222f19b00f4bf51081387bb71c29bf045ae86bf076e13d5a4ea70f25dbd4",
      "s": "0x395c8cc4cc8c7d8d1207e0f2c1ee53b14ac39b657979b71fa7c9fe3958673ffa",
      "v": 28,
      "creates": null,
      "raw": "0xf86d04850d40734c968307a1209419939ad9f09d103b670c9ee56ca41d5764380f8a882e5a104dcdce0000801ca0bf4d222f19b00f4bf51081387bb71c29bf045ae86bf076e13d5a4ea70f25dbd4a0395c8cc4cc8c7d8d1207e0f2c1ee53b14ac39b657979b71fa7c9fe3958673ffa",
      "networkId": 0,
      "chainId": 0
    }
  ]
}