{
  "hash": "0xf8a17ea0b8fd4a77394ea736630c7ddc1be1b1574e6944c1a9c64c38a679edce",
  "parentHash": "0x099edea0321301055a367a94a0add249df33f793c65c49bdb45eab5c4516e3b1",
  "number": 93595,
  "timestamp": 1439694007,
  "nonce": "0xf6699403a9f6bc6b",
  "difficulty": 3468331521214,
  "gasLimit": {
    "_hex": "0x2fefd8"
  },
  "gasUsed": {
    "_hex": "0x5208"
  },
  "miner": "0x9746c7e1ef2bd21FF3997fa467593a89cb852BD0",
  "extraData": "0x476574682f76312e302e312f77696e646f77732f676f312e342e32",
  "transactions": [
    {
      "hash": "0xbed6ee8dbd058be4d27d4236423cb1659881f1848cec3635e41f148911db9505",
      "blockHash": "0xf8a17ea0b8fd4a77394ea736630c7ddc1be1b1574e6944c1a9c64c38a679edce",
      "blockNumber": 93595,
      "transactionIndex": 0,
      "confirmations": null,
      "from": "0x2d0EFca5E73E90C7707931678dfAeF38C068ac10",
      "gasPrice": {
        "_hex": "0xcf4c0c20c"
      },
      "gasLimit": {
        "_hex": "0x15f90"
      },
      "to": "0x0D123Cb78ef69F3189d4b5bD0b091e79EF0Ce877",
      "value": {
        "_hex": "0x192ff797cfadde80000"
      },
      "nonce": 1,
      "data": "0x",
      "r": "0x099e4e861a22a5d89ed4c869c1604b90da9c72bb08c4dbc0f59a60e9b9a5c26a",
      "s": "0x21b83c13982b36f3250b9f38569aa965723aac6ab853f9b4b93fe00f5d588b45",
      "v": 28,
      "creates": null,
      "raw": "0xf86f01850cf4c0c20c83015f90940d123cb78ef69f3189d4b5bd0b091e79ef0ce8778a0192ff797cfadde80000801ca0099e4e861a22a5d89ed4c869c1604b90da9c72bb08c4dbc0f59a60e9b9a5c26aa021b83c13982b36f3250b9f38569aa965723aac6ab853f9b4b93fe00f5d588b45",
      "networkId": 0,
      "chainId": 0
    }
  ]
}