{
  "hash": "0x7ce9f0c49e6ac13cdbdecc1c882c0a06bfcd8d894fc8a6278d8374c4863aa5e7",
  "parentHash": "0xa1357155e136c2642b773e15f6f0de38098d6d33ad9207c328188fb7f73b91b7",
  "number": 50677,
  "timestamp": 1438992954,
  "nonce": "0x7622c61bfa52e6dd",
  "difficulty": 1528934455492,
  "gasLimit": {
    "_hex": "0x70ecd"
  },
  "gasUsed": {
    "_hex": "0xddfd"
  },
  "miner": "0xbb7B8287f3F0a933474a79eAe42CBCa977791171",
  "extraData": "0x476574682f4c5649562f76312e302e312f6c696e75782f676f312e342e32",
  "transactions": [
    {
      "hash": "0xb361e4fd792c43799bdd522acccaaa30e5416587a6406b5720b440490d8feb77",
      "blockHash": "0x7ce9f0c49e6ac13cdbdecc1c882c0a06bfcd8d894fc8a6278d8374c4863aa5e7",
      "blockNumber": 50677,
      "transactionIndex": 0,
      "confirmations": null,
      "from": "0xf88a65846C19D8fc76fFf545fEAa7bbc7114F667",
      "gasPrice": {
        "_hex": "0xcd1ddd1f1"
      },
      "gasLimit": {
        "_hex": "0x61a80"
      },
      "to": "0x109C4f2CCc82C4d77Bde15F306707320294Aea3F",
      "value": {
        "_hex": "0xde0b6b3a7640000"
      },
      "nonce": 1,
      "data": "0x",
      "r": "0x88638d3bd8c68128f446b60a2a10c42882db7ae191091cfcdbaf48c2b76c1620",
      "s": "0x7bf977e39e7a48c697d1f0c1e9569bfc47286bce5f57afce0dafc7febafa2a70",
      "v": 27,
      "creates": null,
      "raw": "0xf86d01850cd1ddd1f183061a8094109c4f2ccc82c4d77bde15f306707320294aea3f880de0b6b3a7640000801ba088638d3bd8c68128f446b60a2a10c42882db7ae191091cfcdbaf48c2b76c1620a07bf977e39e7a48c697d1f0c1e9569bfc47286bce5f57afce0dafc7febafa2a70",
      "networkId": 0,
      "chainId": 0
    }
  ]
}