{
  "hash": "0xc0a9532c574bdf67b09871218c413dd9e4ebab7641de99ae28b79bdeeeb20d8d",
  "parentHash": "0xebd19ffb3f71b75eb121927c5b5120d28253b6d5b5969bd26dcd8c836289383c",
  "number": 80806,
  "timestamp": 1439491231,
  "nonce": "0x8effa74ecb19877d",
  "difficulty": 2452366943794,
  "gasLimit": {
    "_hex": "0x2fefd8"
  },
  "gasUsed": {
    "_hex": "0x546c"
  },
  "miner": "0x88D74a59454F6cF3B51ef6b9136AFb6b9D405A88",
  "extraData": "0x476574682f76312e302e312d38326566323666362f6c696e75782f676f312e34",
  "transactions": [
    {
      "hash": "0x8ba736108fac8cedc9c6ec6aebe9835d023d16b0ac10bd5daf27c57cd69068c0",
      "blockHash": "0xc0a9532c574bdf67b09871218c413dd9e4ebab7641de99ae28b79bdeeeb20d8d",
      "blockNumber": 80806,
      "transactionIndex": 0,
      "confirmations": null,
      "from": "0x61c9DCe8b2981Cb40e98b0402bC3eB28348F03Ac",
      "gasPrice": {
        "_hex": "0x110c8f7d8de"
      },
      "gasLimit": {
        "_hex": "0xc350"
      },
      "to": "0x2910543Af39abA0Cd09dBb2D50200b3E800A63D2",
      "value": {
        "_hex": "0x429d069189e0000"
      },
      "nonce": 1,
      "data": "0x454e30394746463352",
      "r": "0xb232728f0a501d575e4ea6391ce139ad20d56e09c4f5086f9506f7e731dfc83b",
      "s": "0xd91823595a0101dd0db1d1a10a89775e5f06c26eaa96124bb9b4d52518bd7e2f",
      "v": 28,
      "creates": null,
      "raw": "0xf87601860110c8f7d8de82c350942910543af39aba0cd09dbb2d50200b3e800a63d2880429d069189e000089454e303947464633521ca0b232728f0a501d575e4ea6391ce139ad20d56e09c4f5086f9506f7e731dfc83ba0d91823595a0101dd0db1d1a10a89775e5f06c26eaa96124bb9b4d52518bd7e2f",
      "networkId": 0,
      "chainId": 0
    }
  ]
}