{
  "hash": "0x31285a2a8e9b3f9e3ab3983480fa91ce0a3681c94fdf6454e1fb8d3082b4ef65",
  "parentHash": "0x3a0aaba0b183eb6b848aa03ae0d0e8916512638f8942974e07fa4d48a88a473f",
  "number": 92486,
  "timestamp": 1439672828,
  "nonce": "0x1b1cad7e622b38aa",
  "difficulty": 3521695577437,
  "gasLimit": {
    "_hex": "0x2fefd8"
  },
  "gasUsed": {
    "_hex": "0xa414"
  },
  "miner": "0x88D74a59454F6cF3B51ef6b9136AFb6b9D405A88",
  "extraData": "0x476574682f76312e302e312d38326566323666362f6c696e75782f676f312e34",
  "transactions": [
    {
      "hash": "0xfe7838beedd1c3754cba9cea116bcb3a3e4f67ceba39b754d84d291bfac82817",
      "blockHash": "0x31285a2a8e9b3f9e3ab3983480fa91ce0a3681c94fdf6454e1fb8d3082b4ef65",
      "blockNumber": 92486,
      "transactionIndex": 0,
      "confirmations": null,
      "from": "0xDdFafdbC7c90f1320e54b98F374617fbd01d109f",
      "gasPrice": {
        "_hex": "0x1045c91d541"
      },
      "gasLimit": {
        "_hex": "0x55f0"
      },
      "to": "0x06402aC4416476Bf55199D9c7BE67C387bb6773c",
      "value": {
        "_hex": "0xa968163f0a57b400000"
      },
      "nonce": 4,
      "data": "0x",
      "r": "0xe29e00c6b166e9276245bae9fcb7021fdb846badb07015c7d77a48b616ac040d",
      "s": "0x0b905e28992c67d9ff81dc708d2193f11d1e9d5ac18808844001f5b2d8a15b82",
      "v": 27,
      "creates": null,
      "raw": "0xf86f048601045c91d5418255f09406402ac4416476bf55199d9c7be67c387bb6773c8a0a968163f0a57b400000801ba0e29e00c6b166e9276245bae9fcb7021fdb846badb07015c7d77a48b616ac040da00b905e28992c67d9ff81dc708d2193f11d1e9d5ac18808844001f5b2d8a15b82",
      "networkId": 0,
      "chainId": 0
    },
    {
      "hash": "0x3db4b6f0e1be05a9987ea782986c8a45694ef60a6aa34dd0af2241c782d2e7e1",
      "blockHash": "0x31285a2a8e9b3f9e3ab3983480fa91ce0a3681c94fdf6454e1fb8d3082b4ef65",
      "blockNumber": 92486,
      "transactionIndex": 1,
      "confirmations": null,
      "from": "0x8375eA550366a24550ec93283600485F4Ba8CFE5",
      "gasPrice": {
        "_hex": "0xdf8475800"
      },
      "gasLimit": {
        "_hex": "0xc350"
      },
      "to": "0xb9836ec1f42Bd48331bceaedb74a6Bcdc22832bD",
      "value": {
        "_hex": "0x38d7ea4c68000"
      },
      "nonce": 3,
      "data": "0x00",
      "r": "0xb9fa8b297b2e41927f7cb0eede413297193bbb7a21e943294ce66ea43e089b88",
      "s": "0x3d77a7c381968f56edd485ff857cc9424d772f274325c93e54ad7e49846207d3",
      "v": 28,
      "creates": null,
      "raw": "0xf86b03850df847580082c35094b9836ec1f42bd48331bceaedb74a6bcdc22832bd87038d7ea4c68000001ca0b9fa8b297b2e41927f7cb0eede413297193bbb7a21e943294ce66ea43e089b88a03d77a7c381968f56edd485ff857cc9424d772f274325c93e54ad7e49846207d3",
      "networkId": 0,
      "chainId": 0
    }
  ]
}