{
  "hash": "0xb415142ae660fb4e48fb75ad3e8f5930763af35f39fa96a93bc4c90713d3b2db",
  "parentHash": "0xac8d12dfccad7f046d5d0740a83cc305adf370011aad7bbb8dc84507a2b3b854",
  "number": 56084,
  "timestamp": 1439081746,
  "nonce": "0x2cf923b48be5e130",
  "difficulty": 1630469328774,
  "gasLimit": {
    "_hex": "0x2fefd8"
  },
  "gasUsed": {
    "_hex": "0x54e6"
  },
  "miner": "0x580992B51e3925e23280EfB93d3047C82f17E038",
  "extraData": "0x476574682f76312e302e312f6c696e75782f676f312e342e32",
  "transactions": [
    {
      "hash": "0x51cf7271aea830b5640ef20cdf76a0aee5a0ae2c016560092985cf934e101943",
      "blockHash": "0xb415142ae660fb4e48fb75ad3e8f5930763af35f39fa96a93bc4c90713d3b2db",
      "blockNumber": 56084,
      "transactionIndex": 0,
      "confirmations": null,
      "from": "0x288E4356F12D0D3D0F8DF3506E457E7cFd5f4Ab0",
      "gasPrice": {
        "_hex": "0xce5053269"
      },
      "gasLimit": {
        "_hex": "0x61a8"
      },
      "to": "0xa77436621b16912Aeb744A1313a071Ba6A25a278",
      "value": {
        "_hex": "0x0"
      },
      "nonce": 29,
      "data": "0xb7c15311000000000000000000000000000000000000000000000000000000000000000c",
      "r": "0x2e43bda4a5c0d763fa8dca5d5573e732702075083e7bf561a86f24ef2f8f58db",
      "s": "0x47f734461544b87d8b6bb5bafe3c181456534819a0466887ee761c69cf0532cf",
      "v": 27,
      "creates": null,
      "raw": "0xf8881d850ce50532698261a894a77436621b16912aeb744a1313a071ba6a25a27880a4b7c15311000000000000000000000000000000000000000000000000000000000000000c1ba02e43bda4a5c0d763fa8dca5d5573e732702075083e7bf561a86f24ef2f8f58dba047f734461544b87d8b6bb5bafe3c181456534819a0466887ee761c69cf0532cf",
      "networkId": 0,
      "chainId": 0
    }
  ]
}