{
  "hash": "0x8ee4af21c2b294bf90a620eddd5b8a41ef70d9b55448989864bc6a52a408f834",
  "parentHash": "0x085ab04666ffd873ebad9ed46e5085d3dda3b62a0999e3558d8eab5d2c7c46b0",
  "number": 74992,
  "timestamp": 1439395774,
  "nonce": "0xf7daa457ed2d0289",
  "difficulty": 2191235372144,
  "gasLimit": {
    "_hex": "0x2fefd8"
  },
  "gasUsed": {
    "_hex": "0x8fb5"
  },
  "miner": "0xf8E0CA3Ed80bd541b94BEdCf259e8CF2141A9523",
  "extraData": "0x476574682f76312e302e312f77696e646f77732f676f312e342e32",
  "transactions": [
    {
      "hash": "0x26adb8cc3336a0f832dd4a8ba2dea4fec24c1103471dfbe45033ff0b39239063",
      "blockHash": "0x8ee4af21c2b294bf90a620eddd5b8a41ef70d9b55448989864bc6a52a408f834",
      "blockNumber": 74992,
      "transactionIndex": 0,
      "confirmations": null,
      "from": "0x326Be8F71bFb0379f989aAB1CC1fE37f0a771f60",
      "gasPrice": {
        "_hex": "0x10dba043db9"
      },
      "gasLimit": {
        "_hex": "0x493e0"
      },
      "to": "0xC4c51de1AbF5D60DBd329eC0F999Fd8f021ae9fC",
      "value": {
        "_hex": "0x8ac7230489e80000"
      },
      "nonce": 62,
      "data": "0x8d2161860000000000000000000000000000000000000000000000000000000000000080a1a7cc70b5cab8d21df63a99634a15a31b01dd04ed14ed6cf66537175169e0b3",
      "r": "0xd123cf66bf55349ee4f1f4aff8c2ed51fca8b9ac386d141005b89181e9f38d5b",
      "s": "0x4f2fb97c013b166ca0d5a3ae6447ef89a15bbd5239bd99f73026308f0a8746c7",
      "v": 28,
      "creates": null,
      "raw": "0xf8b33e86010dba043db9830493e094c4c51de1abf5d60dbd329ec0f999fd8f021ae9fc888ac7230489e80000b8448d2161860000000000000000000000000000000000000000000000000000000000000080a1a7cc70b5cab8d21df63a99634a15a31b01dd04ed14ed6cf66537175169e0b31ca0d123cf66bf55349ee4f1f4aff8c2ed51fca8b9ac386d141005b89181e9f38d5ba04f2fb97c013b166ca0d5a3ae6447ef89a15bbd5239bd99f73026308f0a8746c7",
      "networkId": 0,
      "chainId": 0
    }
  ]
}