{
  "hash": "0x7a5cb1307740e376e548319f59fc52ebbf4defd1a7ba5ae89793d8e78f83e29c",
  "parentHash": "0x4cb06dd6c91ac8c309fe5fb6cfb746c6a013da305cdb840b7d4cda6569785210",
  "number": 110420,
  "timestamp": 1439973477,
  "nonce": "0x6eb5dee2fa170a71",
  "difficulty": 4382011276763,
  "gasLimit": {
    "_hex": "0x2fefd8"
  },
  "gasUsed": {
    "_hex": "0xf618"
  },
  "miner": "0xf927a40C8B7F6E07c5af7FA2155B4864a4112B13",
  "extraData": "0x",
  "transactions": [
    {
      "hash": "0x2daaae6b0a8fe92541d05ea0592330bf55683d7c77934c87f72c6ac2c231dfc4",
      "blockHash": "0x7a5cb1307740e376e548319f59fc52ebbf4defd1a7ba5ae89793d8e78f83e29c",
      "blockNumber": 110420,
      "transactionIndex": 0,
      "confirmations": null,
      "from": "0xF18446BCC37B179f7ccc3De19387269cE04023F1",
      "gasPrice": {
        "_hex": "0xd526e8f68"
      },
      "gasLimit": {
        "_hex": "0x5208"
      },
      "to": "0x32Be343B94f860124dC4fEe278FDCBD38C102D88",
      "value": {
        "_hex": "0x2f2b135071479800"
      },
      "nonce": 7,
      "data": "0x",
      "r": "0x6fc9de60d98586501a89d7e66dfdde77dc71747f6f9a94dea2bdc6e411cb857e",
      "s": "0x701db500ad0b5f39e6e110ac735dcacbbad069acf6a0a5883a598c0df718883e",
      "v": 28,
      "creates": null,
      "raw": "0xf86c07850d526e8f688252089432be343b94f860124dc4fee278fdcbd38c102d88882f2b135071479800801ca06fc9de60d98586501a89d7e66dfdde77dc71747f6f9a94dea2bdc6e411cb857ea0701db500ad0b5f39e6e110ac735dcacbbad069acf6a0a5883a598c0df718883e",
      "networkId": 0,
      "chainId": 0
    },
    {
      "hash": "0xea50f8a222dfb55466081958d8bb794a20db2c119f41b897b18b6315f427e0cf",
      "blockHash": "0x7a5cb1307740e376e548319f59fc52ebbf4defd1a7ba5ae89793d8e78f83e29c",
      "blockNumber": 110420,
      "transactionIndex": 1,
      "confirmations": null,
      "from": "0x5248EfBC7319bd65d436374266765D9727253F12",
      "gasPrice": {
        "_hex": "0xd526e8f68"
      },
      "gasLimit": {
        "_hex": "0x5208"
      },
      "to": "0x32Be343B94f860124dC4fEe278FDCBD38C102D88",
      "value": {
        "_hex": "0x2507f62814e53a000"
      },
      "nonce": 10,
      "data": "0x",
      "r": "0xfb268279f258d35290fe0364389acee2b5129d5ebe2cf2dab5b7782cebe05259",
      "s": "0x6f973f6cc05b8da5299a12fe141a43364f7332b7600f8f44e7d18bd14dce7911",
      "v": 27,
      "creates": null,
      "raw": "0xf86d0a850d526e8f688252089432be343b94f860124dc4fee278fdcbd38c102d888902507f62814e53a000801ba0fb268279f258d35290fe0364389acee2b5129d5ebe2cf2dab5b7782cebe05259a06f973f6cc05b8da5299a12fe141a43364f7332b7600f8f44e7d18bd14dce7911",
      "networkId": 0,
      "chainId": 0
    },
    {
      "hash": "0x7068f966072f0c791316ff5588e1c41aaccf853c6bb6406a6153fa027eef5c94",
      "blockHash": "0x7a5cb1307740e376e548319f59fc52ebbf4defd1a7ba5ae89793d8e78f83e29c",
      "blockNumber": 110420,
      "transactionIndex": 2,
      "confirmations": null,
      "from": "0x92857A8BC0A6F66180324f49541C695A3a0Ff944",
      "gasPrice": {
        "_hex": "0xd526e8f68"
      },
      "gasLimit": {
        "_hex": "0x5208"
      },
      "to": "0x32Be343B94f860124dC4fEe278FDCBD38C102D88",
      "value": {
        "_hex": "0x2707bcd4574e44000"
      },
      "nonce": 7,
      "data": "0x",
      "r": "0xd0b2c77b93401b7f4bea4d296d63a8697aff976ab3b30a851c208362f6ee347f",
      "s": "0x2248d1234932c4d33e47bfe28e8b77d57621829119eabb16ce15c50616209eef",
      "v": 27,
      "creates": null,
      "raw": "0xf86d07850d526e8f688252089432be343b94f860124dc4fee278fdcbd38c102d888902707bcd4574e44000801ba0d0b2c77b93401b7f4bea4d296d63a8697aff976ab3b30a851c208362f6ee347fa02248d1234932c4d33e47bfe28e8b77d57621829119eabb16ce15c50616209eef",
      "networkId": 0,
      "chainId": 0
    }
  ]
}