{
  "hash": "0x436ff057f103aaa08c9f8ec6a47315844b65bec418ddd0626efa5ace1c84bd1a",
  "parentHash": "0xf8e8c110a7347e4dc807e817a8b9719e472911e8df5b5e093b656aa5c504beaf",
  "number": 112257,
  "timestamp": 1440004565,
  "nonce": "0x112a90e351f95eb5",
  "difficulty": 4383191484131,
  "gasLimit": {
    "_hex": "0x2fefd8"
  },
  "gasUsed": {
    "_hex": "0xa410"
  },
  "miner": "0xe6A7a1d47ff21B6321162AEA7C6CB457D5476Bca",
  "extraData": "0x476574682f76312e302e312d38326566323666362f6c696e75782f676f312e34",
  "transactions": [
    {
      "hash": "0xa8520bc7cef5d321bc0a8f4be193721b9c8abcc6cdf7bd488f6bb85cd32fe3d0",
      "blockHash": "0x436ff057f103aaa08c9f8ec6a47315844b65bec418ddd0626efa5ace1c84bd1a",
      "blockNumber": 112257,
      "transactionIndex": 0,
      "confirmations": null,
      "from": "0x32Be343B94f860124dC4fEe278FDCBD38C102D88",
      "gasPrice": {
        "_hex": "0xd8182c916"
      },
      "gasLimit": {
        "_hex": "0x5208"
      },
      "to": "0xADf70BC82b3F25584aF5fDBA8417c7C533350F07",
      "value": {
        "_hex": "0xd8d726b7177a80000"
      },
      "nonce": 1335,
      "data": "0x",
      "r": "0x593c070beb63a933dbacc9495d7626a3ad803a52a6decef90848de2aad8c3fca",
      "s": "0x6f3d293ee83d6ad94e4577c9309e38f54ea7d90281fa168103704b7a5fec30c7",
      "v": 28,
      "creates": null,
      "raw": "0xf86f820537850d8182c91682520894adf70bc82b3f25584af5fdba8417c7c533350f07890d8d726b7177a80000801ca0593c070beb63a933dbacc9495d7626a3ad803a52a6decef90848de2aad8c3fcaa06f3d293ee83d6ad94e4577c9309e38f54ea7d90281fa168103704b7a5fec30c7",
      "networkId": 0,
      "chainId": 0
    },
    {
      "hash": "0xe45e5d3fdb8cd0533f9375c64841422207cf96a6cccf55ac9436f2d5bbf4fd27",
      "blockHash": "0x436ff057f103aaa08c9f8ec6a47315844b65bec418ddd0626efa5ace1c84bd1a",
      "blockNumber": 112257,
      "transactionIndex": 1,
      "confirmations": null,
      "from": "0x32Be343B94f860124dC4fEe278FDCBD38C102D88",
      "gasPrice": {
        "_hex": "0xd8182c916"
      },
      "gasLimit": {
        "_hex": "0x5208"
      },
      "to": "0x82f600f520d879ecc6101C4e8cdD6522Fdd24778",
      "value": {
        "_hex": "0x8ac7230489e80000"
      },
      "nonce": 1336,
      "data": "0x",
      "r": "0xaadbaf622006612bae1cea40c8601ac1e3cc8ae4ca79822f90ff0636a1aa2428",
      "s": "0x6867bdd141f4fb20b29645b114bcf07777877d2d140129c6d78ff9ed0fc4045d",
      "v": 28,
      "creates": null,
      "raw": "0xf86e820538850d8182c9168252089482f600f520d879ecc6101c4e8cdd6522fdd24778888ac7230489e80000801ca0aadbaf622006612bae1cea40c8601ac1e3cc8ae4ca79822f90ff0636a1aa2428a06867bdd141f4fb20b29645b114bcf07777877d2d140129c6d78ff9ed0fc4045d",
      "networkId": 0,
      "chainId": 0
    }
  ]
}