{
  "hash": "0xcbb80c2d1785a14accd1e5a3a788e9a9be88780e37d95bf3097304130c2e82da",
  "parentHash": "0x3e12992fa7059f86ee8d15ecd4f1d0209baf938378eaef46cc6956b348f1d366",
  "number": 50295,
  "timestamp": 1438986827,
  "nonce": "0xff64bc98418aa6cb",
  "difficulty": 1514145071816,
  "gasLimit": {
    "_hex": "0x5b558"
  },
  "gasUsed": {
    "_hex": "0x22835"
  },
  "miner": "0x902cA27B08D58442b67bb4Fa988de351468AB59f",
  "extraData": "0x476574682f76312e302e312f77696e646f77732f676f312e342e32",
  "transactions": [
    {
      "hash": "0xcd31cbd995a5363263bde279a5ca00155067db49a1dc0a32b5ddeb6519a0c887",
      "blockHash": "0xcbb80c2d1785a14accd1e5a3a788e9a9be88780e37d95bf3097304130c2e82da",
      "blockNumber": 50295,
      "transactionIndex": 0,
      "confirmations": null,
      "from": "0x881b0A4e9c55d08e31d8d3C022144d75A454211c",
      "gasPrice": {
        "_hex": "0xcf85aac4d"
      },
      "gasLimit": {
        "_hex": "0x5a550"
      },
      "to": "0x109C4f2CCc82C4d77Bde15F306707320294Aea3F",
      "value": {
        "_hex": "0xde0b6b3a7640000"
      },
      "nonce": 3,
      "data": "0x",
      "r": "0xff93f543616752b87e31ab5880ea911e964ae7e79eb1a12b81eeb17564339147",
      "s": "0x1d2984c4cfead2e0df3804d2c83fa149463ef74228349f7ab4c1a3d5239f3df0",
      "v": 28,
      "creates": null,
      "raw": "0xf86d03850cf85aac4d8305a55094109c4f2ccc82c4d77bde15f306707320294aea3f880de0b6b3a7640000801ca0ff93f543616752b87e31ab5880ea911e964ae7e79eb1a12b81eeb17564339147a01d2984c4cfead2e0df3804d2c83fa149463ef74228349f7ab4c1a3d5239f3df0",
      "networkId": 0,
      "chainId": 0
    }
  ]
}