{
  "hash": "0x82c2c33bd72e698105ad3a834f7b3c7ae23165bd0c6e538bf33f0c4e764897da",
  "parentHash": "0x4ff87d99cc882992a31504bdd3bd9518fed2aec423ea7c355571059893ac8573",
  "number": 70165,
  "timestamp": 1439315717,
  "nonce": "0xc69c2f06d3ecd014",
  "difficulty": 2113657392485,
  "gasLimit": {
    "_hex": "0x2fefd8"
  },
  "gasUsed": {
    "_hex": "0x14820"
  },
  "miner": "0xbb7B8287f3F0a933474a79eAe42CBCa977791171",
  "extraData": "0x476574682f4c5649562f76312e302e312f6c696e75782f676f312e342e32",
  "transactions": [
    {
      "hash": "0xfdf1dc7e164f7cc446cbfe5937b700aa91c1c553cbaa19200d0e00395343a97e",
      "blockHash": "0x82c2c33bd72e698105ad3a834f7b3c7ae23165bd0c6e538bf33f0c4e764897da",
      "blockNumber": 70165,
      "transactionIndex": 0,
      "confirmations": null,
      "from": "0x6c0E7ecD7bB748115A529c0d5ee2d26b4791578a",
      "gasPrice": {
        "_hex": "0xde83b6547"
      },
      "gasLimit": {
        "_hex": "0x5208"
      },
      "to": "0x32Be343B94f860124dC4fEe278FDCBD38C102D88",
      "value": {
        "_hex": "0xddc41e089377400"
      },
      "nonce": 0,
      "data": "0x",
      "r": "0x5079e8c5af278ac3ea5c35f0ffe19bcc83d0abec36dbadb2a4061af560167846",
      "s": "0x62f144b0319e17ba792daf154cab0343ea534222154f96ee0aae38301ab469c2",
      "v": 28,
      "creates": null,
      "raw": "0xf86c80850de83b65478252089432be343b94f860124dc4fee278fdcbd38c102d88880ddc41e089377400801ca05079e8c5af278ac3ea5c35f0ffe19bcc83d0abec36dbadb2a4061af560167846a062f144b0319e17ba792daf154cab0343ea534222154f96ee0aae38301ab469c2",
      "networkId": 0,
      "chainId": 0
    },
    {
      "hash": "0x97b0108d9af2ffbe118fed044eaf80a053b393de71c65e10db85fc1022b73148",
      "blockHash": "0x82c2c33bd72e698105ad3a834f7b3c7ae23165bd0c6e538bf33f0c4e764897da",
      "blockNumber": 70165,
      "transactionIndex": 1,
      "confirmations": null,
      "from": "0x8F79f76381Aad7B98C19aF55eE75fdfEeb012211",
      "gasPrice": {
        "_hex": "0xde83b6547"
      },
      "gasLimit": {
        "_hex": "0x5208"
      },
      "to": "0x32Be343B94f860124dC4fEe278FDCBD38C102D88",
      "value": {
        "_hex": "0x1383fc77d29a7f0000"
      },
      "nonce": 5,
      "data": "0x",
      "r": "0x7ceb34c43b8b87d25b685c9ab7eb1dafdea8f8f0ee01665298690704ca49f5c8",
      "s": "0x41c05a19cf7ed6bb9bd36281ba0d44c5f46a7c2eda1781b92369ea5879d925fb",
      "v": 28,
      "creates": null,
      "raw": "0xf86d05850de83b65478252089432be343b94f860124dc4fee278fdcbd38c102d88891383fc77d29a7f0000801ca07ceb34c43b8b87d25b685c9ab7eb1dafdea8f8f0ee01665298690704ca49f5c8a041c05a19cf7ed6bb9bd36281ba0d44c5f46a7c2eda1781b92369ea5879d925fb",
      "networkId": 0,
      "chainId": 0
    },
    {
      "hash": "0x24bc8ea5b0f68548ea83eba8dcfd9024555b4b20a2552ace1374589e3170d347",
      "blockHash": "0x82c2c33bd72e698105ad3a834f7b3c7ae23165bd0c6e538bf33f0c4e764897da",
      "blockNumber": 70165,
      "transactionIndex": 2,
      "confirmations": null,
      "from": "0xA6746D3f18AE6b6F140283BDD39cE2227a55A293",
      "gasPrice": {
        "_hex": "0xde83b6547"
      },
      "gasLimit": {
        "_hex": "0x5208"
      },
      "to": "0x32Be343B94f860124dC4fEe278FDCBD38C102D88",
      "value": {
        "_hex": "0x3635b3757988920000"
      },
      "nonce": 1,
      "data": "0x",
      "r": "0xca0023ab2b6e2faf03b5e8aed88e50f5e766414a6482f9aaa3d581eb48a92faf",
      "s": "0x0f876d530c67c10f3135520c41d0846e5ffc341a872c5094318cdfec34d4e56e",
      "v": 28,
      "creates": null,
      "raw": "0xf86d01850de83b65478252089432be343b94f860124dc4fee278fdcbd38c102d88893635b3757988920000801ca0ca0023ab2b6e2faf03b5e8aed88e50f5e766414a6482f9aaa3d581eb48a92fafa00f876d530c67c10f3135520c41d0846e5ffc341a872c5094318cdfec34d4e56e",
      "networkId": 0,
      "chainId": 0
    },
    {
      "hash": "0xaf13891d86bac439d4d2d06640c036cac955a468cde016906ad60edbe0c69c1b",
      "blockHash": "0x82c2c33bd72e698105ad3a834f7b3c7ae23165bd0c6e538bf33f0c4e764897da",
      "blockNumber": 70165,
      "transactionIndex": 3,
      "confirmations": null,
      "from": "0x120A270bbC009644e35F0bB6ab13f95b8199c4ad",
      "gasPrice": {
        "_hex": "0xddb21441a"
      },
      "gasLimit": {
        "_hex": "0x15f90"
      },
      "to": "0x5D0A4935EEC4434871C16A885443ae9F96589E6f",
      "value": {
        "_hex": "0x352cfad38f18a55000"
      },
      "nonce": 196,
      "data": "0x",
      "r": "0x9f8b83b171a83390c6cf1eebba4f7d51de136c2baaf8e3ead2b3285fd98abd3e",
      "s": "0x3a3c5993afb33dbcd037e26d63dee8b19a280cffeb2ef59074198ab9154d78f6",
      "v": 27,
      "creates": null,
      "raw": "0xf86f81c4850ddb21441a83015f90945d0a4935eec4434871c16a885443ae9f96589e6f89352cfad38f18a55000801ba09f8b83b171a83390c6cf1eebba4f7d51de136c2baaf8e3ead2b3285fd98abd3ea03a3c5993afb33dbcd037e26d63dee8b19a280cffeb2ef59074198ab9154d78f6",
      "networkId": 0,
      "chainId": 0
    }
  ]
}