{
  "hash": "0xa91ff0ae45b1151f08fc7934d2ff9435e5685607abc7b3a2c4306324ad16b154",
  "parentHash": "0x9490f537a79c658c3084fc9ec4f0f0066f1dc7b6f805f76a4a7f63942482bf80",
  "number": 85660,
  "timestamp": 1439566832,
  "nonce": "0x005e925e1e55f338",
  "difficulty": 2790882456567,
  "gasLimit": {
    "_hex": "0x2fefd8"
  },
  "gasUsed": {
    "_hex": "0x546c"
  },
  "miner": "0x790b8a3cE86E707ED0eD32bF89B3269692a23CC1",
  "extraData": "0xd783010001844765746887676f312e342e32856c696e7578",
  "transactions": [
    {
      "hash": "0x1c75963d7a0d6a2a2c50befc5c4f90f9276405c51539141b1d5d3bbf311c907f",
      "blockHash": "0xa91ff0ae45b1151f08fc7934d2ff9435e5685607abc7b3a2c4306324ad16b154",
      "blockNumber": 85660,
      "transactionIndex": 0,
      "confirmations": null,
      "from": "0x0E1801E70B6262861b1134ccBC391F568Afc92F7",
      "gasPrice": {
        "_hex": "0x110c8f7d8de"
      },
      "gasLimit": {
        "_hex": "0xc350"
      },
      "to": "0x2910543Af39abA0Cd09dBb2D50200b3E800A63D2",
      "value": {
        "_hex": "0x3627e8f712373c0000"
      },
      "nonce": 2,
      "data": "0x454e4757324b415630",
      "r": "0x7f2b6f6a283c2f67e6595c5e5c7c69c66ceadc7e6b0e3db4dd432070c07c568c",
      "s": "0x96f325416b0a65d1301dafb694b8be798c22a10e8d93b28ab27f1193162d7d97",
      "v": 28,
      "creates": null,
      "raw": "0xf87702860110c8f7d8de82c350942910543af39aba0cd09dbb2d50200b3e800a63d2893627e8f712373c000089454e4757324b4156301ca07f2b6f6a283c2f67e6595c5e5c7c69c66ceadc7e6b0e3db4dd432070c07c568ca096f325416b0a65d1301dafb694b8be798c22a10e8d93b28ab27f1193162d7d97",
      "networkId": 0,
      "chainId": 0
    }
  ]
}