{
  "hash": "0x5ad855ebd78b86020de08120739fe06213d7784df5da17e368bba5ae62f02f27",
  "parentHash": "0x007122c35cb66b9b1a6ac94c21575e0df6d311e0e3be2db798e70d4b855b2cad",
  "number": 74385,
  "timestamp": 1439385204,
  "nonce": "0xb7319983215ccbfb",
  "difficulty": 2216143030691,
  "gasLimit": {
    "_hex": "0x2fefd8"
  },
  "gasUsed": {
    "_hex": "0xa410"
  },
  "miner": "0x29D19206747E4Db867186f5899D9F7188DF153F6",
  "extraData": "0x",
  "transactions": [
    {
      "hash": "0xebe79823611afea7f07ca2b896e0762e38f56c1f581427aae8cf46da46a3856d",
      "blockHash": "0x5ad855ebd78b86020de08120739fe06213d7784df5da17e368bba5ae62f02f27",
      "blockNumber": 74385,
      "transactionIndex": 0,
      "confirmations": null,
      "from": "0x120A270bbC009644e35F0bB6ab13f95b8199c4ad",
      "gasPrice": {
        "_hex": "0xe2ea27c3c"
      },
      "gasLimit": {
        "_hex": "0x15f90"
      },
      "to": "0xA8471786fF71d0F894e60Ab9e3217a7E842c7b38",
      "value": {
        "_hex": "0x28a857425466f80000"
      },
      "nonce": 276,
      "data": "0x",
      "r": "0x4ab174aebc4bd38af8508788a83810e285aa297b930cede36972d917e16418a2",
      "s": "0x77eba4499d36674396a1091bf57e88e7b4675ea222c33b381256cfca8a3e32ac",
      "v": 28,
      "creates": null,
      "raw": "0xf870820114850e2ea27c3c83015f9094a8471786ff71d0f894e60ab9e3217a7e842c7b388928a857425466f80000801ca04ab174aebc4bd38af8508788a83810e285aa297b930cede36972d917e16418a2a077eba4499d36674396a1091bf57e88e7b4675ea222c33b381256cfca8a3e32ac",
      "networkId": 0,
      "chainId": 0
    },
    {
      "hash": "0x48778b983cc89549f7726e85f9f7d77582b08e0218bf194fd49aa70afe41206f",
      "blockHash": "0x5ad855ebd78b86020de08120739fe06213d7784df5da17e368bba5ae62f02f27",
      "blockNumber": 74385,
      "transactionIndex": 1,
      "confirmations": null,
      "from": "0x120A270bbC009644e35F0bB6ab13f95b8199c4ad",
      "gasPrice": {
        "_hex": "0xe2ea27c3c"
      },
      "gasLimit": {
        "_hex": "0x15f90"
      },
      "to": "0x6baeC65168a4fBB94b9557C65Dfc7cef5c6fBb8a",
      "value": {
        "_hex": "0x27819e93fdc369cc00"
      },
      "nonce": 277,
      "data": "0x",
      "r": "0x8de3081bb6814c312814741dfd526ce37f086e027f616b85a3a442c50c425312",
      "s": "0x3dce534dcd4f66bdda708e7d4f9ad384588dbf12802e0db0dfaab603e2018f1c",
      "v": 27,
      "creates": null,
      "raw": "0xf870820115850e2ea27c3c83015f90946baec65168a4fbb94b9557c65dfc7cef5c6fbb8a8927819e93fdc369cc00801ba08de3081bb6814c312814741dfd526ce37f086e027f616b85a3a442c50c425312a03dce534dcd4f66bdda708e7d4f9ad384588dbf12802e0db0dfaab603e2018f1c",
      "networkId": 0,
      "chainId": 0
    }
  ]
}