{
  "hash": "0x3fd1d5eccbd46fc7a7d49fd21bd734deadead6abb50a3902093451907adb6828",
  "parentHash": "0x9a05515625eb27df0ea8a003730b57be454186973c746fac3d018491f408f640",
  "number": 112967,
  "timestamp": 1440015908,
  "nonce": "0x8df8af134f57cd54",
  "difficulty": 4460543395579,
  "gasLimit": {
    "_hex": "0x2fefd8"
  },
  "gasUsed": {
    "_hex": "0x5208"
  },
  "miner": "0x790b8a3cE86E707ED0eD32bF89B3269692a23CC1",
  "extraData": "0xd783010001844765746887676f312e342e32856c696e7578",
  "transactions": [
    {
      "hash": "0x8a47b7722513d19d720b3a9cc2011ac8e52bdc46440364dbfe03f03f5b61b324",
      "blockHash": "0x3fd1d5eccbd46fc7a7d49fd21bd734deadead6abb50a3902093451907adb6828",
      "blockNumber": 112967,
      "transactionIndex": 0,
      "confirmations": null,
      "from": "0x76899c112A85c5a7d27Ff89f1b97112e900aeEBc",
      "gasPrice": {
        "_hex": "0xba43b7400"
      },
      "gasLimit": {
        "_hex": "0x5208"
      },
      "to": "0xC47Aaa860008be6f65B58c6C6E02a84e666EfE31",
      "value": {
        "_hex": "0xdde4294fd97b6000"
      },
      "nonce": 10,
      "data": "0x",
      "r": "0xc899070383a8bb820df1b4ff3ddeda6cdb1642808e182d7495b0abc7ef4d17a4",
      "s": "0x4a6280983a408dc53a58f007de8adbb2ef4c10ca305ceff1c55718cc30cde16c",
      "v": 28,
      "creates": null,
      "raw": "0xf86c0a850ba43b740082520894c47aaa860008be6f65b58c6c6e02a84e666efe3188dde4294fd97b6000801ca0c899070383a8bb820df1b4ff3ddeda6cdb1642808e182d7495b0abc7ef4d17a4a04a6280983a408dc53a58f007de8adbb2ef4c10ca305ceff1c55718cc30cde16c",
      "networkId": 0,
      "chainId": 0
    }
  ]
}