{
  "hash": "0xcead3e0d1269cea9626c9342a149d96a663cb1569fc27cf75985beb2c026658c",
  "parentHash": "0x8881963bbf4d4bf933b559140dc9872621bbb7df07edd2d00a282a8b9ed0cd64",
  "number": 47234,
  "timestamp": 1438936573,
  "nonce": "0xe486e5a7886f112f",
  "difficulty": 1461657895388,
  "gasLimit": {
    "_hex": "0xa6b3"
  },
  "gasUsed": {
    "_hex": "0x5208"
  },
  "miner": "0xBb12b5a9B85D4AB8CDE6056E9c1b2a4a337D2261",
  "extraData": "0x476574682f76312e302e312d36393865393864392f6c696e75782f676f312e34",
  "transactions": [
    {
      "hash": "0x48b700c4558503232887817bcd139b56ce65b71035ea666c6df30990e9ce0156",
      "blockHash": "0xcead3e0d1269cea9626c9342a149d96a663cb1569fc27cf75985beb2c026658c",
      "blockNumber": 47234,
      "transactionIndex": 0,
      "confirmations": null,
      "from": "0x24339341F29d2aaD7d3c591c0f9931e7D4bFEd6e",
      "gasPrice": {
        "_hex": "0x45d964b800"
      },
      "gasLimit": {
        "_hex": "0x5208"
      },
      "to": "0x56011d6b57A70c27F7cc294905A5DdA65BfBd154",
      "value": {
        "_hex": "0x1043561a8829300000"
      },
      "nonce": 1,
      "data": "0x",
      "r": "0xee4a0e95bdaa5a6b0d3c1c4c06a18615390d44d1f9a2839f0af9ced85606eb35",
      "s": "0x67e4503a9612b7438f68c3c535a3f90c8bd5bfcdf89286a35c53f394bdc32cd1",
      "v": 28,
      "creates": null,
      "raw": "0xf86d018545d964b8008252089456011d6b57a70c27f7cc294905a5dda65bfbd154891043561a8829300000801ca0ee4a0e95bdaa5a6b0d3c1c4c06a18615390d44d1f9a2839f0af9ced85606eb35a067e4503a9612b7438f68c3c535a3f90c8bd5bfcdf89286a35c53f394bdc32cd1",
      "networkId": 0,
      "chainId": 0
    }
  ]
}