{
  "hash": "0x543ba68fa9e62bbcaa9299d3dc3ed5b18dd876153591fdd5e55b033fc3d02032",
  "parentHash": "0x43708a4b9baf190351035fe7dc63ec707df997b706fc64d3bc73bba41b1f071b",
  "number": 94227,
  "timestamp": 1439704627,
  "nonce": "0xbd8aaebe623afdd2",
  "difficulty": 3478245486667,
  "gasLimit": {
    "_hex": "0x2fefd8"
  },
  "gasUsed": {
    "_hex": "0xa410"
  },
  "miner": "0xe6A7a1d47ff21B6321162AEA7C6CB457D5476Bca",
  "extraData": "0x476574682f76312e302e312d38326566323666362f6c696e75782f676f312e34",
  "transactions": [
    {
      "hash": "0x3ffa1bf72c19aeec362a92e09d174ab9605d2cfeff8c39cb79b6e2c71a7d025b",
      "blockHash": "0x543ba68fa9e62bbcaa9299d3dc3ed5b18dd876153591fdd5e55b033fc3d02032",
      "blockNumber": 94227,
      "transactionIndex": 0,
      "confirmations": null,
      "from": "0xb1abce2918E21ddb93AA452731a12672A3d9F75a",
      "gasPrice": {
        "_hex": "0xd440dffc1"
      },
      "gasLimit": {
        "_hex": "0x5208"
      },
      "to": "0x32Be343B94f860124dC4fEe278FDCBD38C102D88",
      "value": {
        "_hex": "0x8ac2e2ceac6eb800"
      },
      "nonce": 15,
      "data": "0x",
      "r": "0x1106c2428f21ff0520d2abd01561e538f6a0e2842d4512b76a3e5e126dcf46f2",
      "s": "0x4c3d977dadb5ca81c59cc2cabdf31b7f53b9474a01928b98edb4650e8627fe3e",
      "v": 28,
      "creates": null,
      "raw": "0xf86c0f850d440dffc18252089432be343b94f860124dc4fee278fdcbd38c102d88888ac2e2ceac6eb800801ca01106c2428f21ff0520d2abd01561e538f6a0e2842d4512b76a3e5e126dcf46f2a04c3d977dadb5ca81c59cc2cabdf31b7f53b9474a01928b98edb4650e8627fe3e",
      "networkId": 0,
      "chainId": 0
    },
    {
      "hash": "0x4932b2993c3a1bdf5e6196d73390601b51215155b919dfb2a9e68b97a3485116",
      "blockHash": "0x543ba68fa9e62bbcaa9299d3dc3ed5b18dd876153591fdd5e55b033fc3d02032",
      "blockNumber": 94227,
      "transactionIndex": 1,
      "confirmations": null,
      "from": "0x2707836DbE604b0eBfdb0F20870dD749C8572676",
      "gasPrice": {
        "_hex": "0xd440dffc1"
      },
      "gasLimit": {
        "_hex": "0x5208"
      },
      "to": "0x32Be343B94f860124dC4fEe278FDCBD38C102D88",
      "value": {
        "_hex": "0x12a0bfdcaa9e4500000"
      },
      "nonce": 2,
      "data": "0x",
      "r": "0x0df170799ccb90a83e37f0838e85c6d92519c8fae996e4caf254a6e6efafa453",
      "s": "0x03c93d71823dae1b23333b75cad9be29bb97e15a4dbe005133e6d73bfbcae38f",
      "v": 27,
      "creates": null,
      "raw": "0xf86e02850d440dffc18252089432be343b94f860124dc4fee278fdcbd38c102d888a012a0bfdcaa9e4500000801ba00df170799ccb90a83e37f0838e85c6d92519c8fae996e4caf254a6e6efafa453a003c93d71823dae1b23333b75cad9be29bb97e15a4dbe005133e6d73bfbcae38f",
      "networkId": 0,
      "chainId": 0
    }
  ]
}