{
  "hash": "0x6098fcabd23b4c0ff59511b83882e523451fc8c3a9ebaabe8d2d1b19d33e349f",
  "parentHash": "0x3ce050cc3af2b9e3ae255e055da6ebb91f0d75eab7111cd4199aaefd6b536254",
  "number": 66411,
  "timestamp": 1439254151,
  "nonce": "0xc6c5dab0845daaf9",
  "difficulty": 1936682946144,
  "gasLimit": {
    "_hex": "0x2fefd8"
  },
  "gasUsed": {
    "_hex": "0x524d"
  },
  "miner": "0xf8E0CA3Ed80bd541b94BEdCf259e8CF2141A9523",
  "extraData": "0x476574682f76312e302e312f77696e646f77732f676f312e342e32",
  "transactions": [
    {
      "hash": "0x52b876524ac59563087eeef746a4257c6240ecb79fd955fac2c80043707a24f9",
      "blockHash": "0x6098fcabd23b4c0ff59511b83882e523451fc8c3a9ebaabe8d2d1b19d33e349f",
      "blockNumber": 66411,
      "transactionIndex": 0,
      "confirmations": null,
      "from": "0x02017Ae4e03d3eB7322e0Fcd8738CA20AFDE53e4",
      "gasPrice": {
        "_hex": "0xd56cf8b24"
      },
      "gasLimit": {
        "_hex": "0x15f90"
      },
      "to": "0x793AE8C1b1a160BFc07BFB0d04F85eab1A71F4f2",
      "value": {
        "_hex": "0x8ac7230489e80000"
      },
      "nonce": 1,
      "data": "0x",
      "r": "0xd9ad14ccc5dded879a86a4e548912236285e3d8d0a9c3c73596e50cfe5c7b314",
      "s": "0x3e4c331f35f418e3ad22f816fb9880c1a319c84a524ca8827d98dbbf475125bb",
      "v": 28,
      "creates": null,
      "raw": "0xf86d01850d56cf8b2483015f9094793ae8c1b1a160bfc07bfb0d04f85eab1a71f4f2888ac7230489e80000801ca0d9ad14ccc5dded879a86a4e548912236285e3d8d0a9c3c73596e50cfe5c7b314a03e4c331f35f418e3ad22f816fb9880c1a319c84a524ca8827d98dbbf475125bb",
      "networkId": 0,
      "chainId": 0
    }
  ]
}