{
  "hash": "0xef9e7f697ea1b5d35889f0bcf667c03f7bff3ce662cb583488e355402d1f1c0d",
  "parentHash": "0x8bc61fb2f5c393ad36b5d5574115b32ea36271802a664588ec0f33f2d53869d6",
  "number": 102850,
  "timestamp": 1439844065,
  "nonce": "0x1512f7d64653d8a6",
  "difficulty": 4080194252935,
  "gasLimit": {
    "_hex": "0x2fefd8"
  },
  "gasUsed": {
    "_hex": "0x5208"
  },
  "miner": "0x31995C46B15C84523cDEE26f49A681b8237e43F5",
  "extraData": "0x476574682f76312e302e312f77696e646f77732f676f312e342e32",
  "transactions": [
    {
      "hash": "0x927727774369cd7d8cae883e6634ae9dd4941c28037994751e2f46e8e511dc1a",
      "blockHash": "0xef9e7f697ea1b5d35889f0bcf667c03f7bff3ce662cb583488e355402d1f1c0d",
      "blockNumber": 102850,
      "transactionIndex": 0,
      "confirmations": null,
      "from": "0xaC49eeb6a55aF554D86d37b4A4eA7940010866E1",
      "gasPrice": {
        "_hex": "0xd23ee12e2"
      },
      "gasLimit": {
        "_hex": "0x15f90"
      },
      "to": "0xc97b6E47df229442524F8f210926557900f81574",
      "value": {
        "_hex": "0x1c9f78d2893e40000"
      },
      "nonce": 9,
      "data": "0x",
      "r": "0x7c2fecb2572fe3ebb20cf465e2a999d9cc0bc85100c5c972933c6841312bdca5",
      "s": "0x521a9984ec45757572f89f657bf3b90ee7f51c730f5c53a797efad127c3931c3",
      "v": 28,
      "creates": null,
      "raw": "0xf86e09850d23ee12e283015f9094c97b6e47df229442524f8f210926557900f815748901c9f78d2893e40000801ca07c2fecb2572fe3ebb20cf465e2a999d9cc0bc85100c5c972933c6841312bdca5a0521a9984ec45757572f89f657bf3b90ee7f51c730f5c53a797efad127c3931c3",
      "networkId": 0,
      "chainId": 0
    }
  ]
}