{
  "hash": "0xdf9dcb0f19cd24598b7925fa99027fb17aae5b9e857400ea80a9cae43f87da90",
  "parentHash": "0x7e9d6224a218d787f0e65cb141a36b63a4d5091b27c1aeabb6a5b6f6b0c265dd",
  "number": 99711,
  "timestamp": 1439794587,
  "nonce": "0x22d67755a89eef24",
  "difficulty": 3787899936803,
  "gasLimit": {
    "_hex": "0x2fefd8"
  },
  "gasUsed": {
    "_hex": "0xa410"
  },
  "miner": "0xe6A7a1d47ff21B6321162AEA7C6CB457D5476Bca",
  "extraData": "0x476574682f76312e302e312d38326566323666362f6c696e75782f676f312e34",
  "transactions": [
    {
      "hash": "0xbf5a9fa20a7d94ca6a0bfc44ea8e848d256116afe1cc880580c99817c118a7b1",
      "blockHash": "0xdf9dcb0f19cd24598b7925fa99027fb17aae5b9e857400ea80a9cae43f87da90",
      "blockNumber": 99711,
      "transactionIndex": 0,
      "confirmations": null,
      "from": "0xe2dc38c86274d7F8d96Ee09dcF2072a329e6eda3",
      "gasPrice": {
        "_hex": "0xdc2612588"
      },
      "gasLimit": {
        "_hex": "0x5208"
      },
      "to": "0x32Be343B94f860124dC4fEe278FDCBD38C102D88",
      "value": {
        "_hex": "0xd0264bd5a6a59000"
      },
      "nonce": 1,
      "data": "0x",
      "r": "0x113cc71e3fb0828b59edcb373fbddc375c75ae97ef09e8afa9d84c9e657cc1b1",
      "s": "0x32e9089605e85d05885a4925c03ecf9f822a683cf1692d3efb3dacc12cc2cef2",
      "v": 28,
      "creates": null,
      "raw": "0xf86c01850dc26125888252089432be343b94f860124dc4fee278fdcbd38c102d8888d0264bd5a6a59000801ca0113cc71e3fb0828b59edcb373fbddc375c75ae97ef09e8afa9d84c9e657cc1b1a032e9089605e85d05885a4925c03ecf9f822a683cf1692d3efb3dacc12cc2cef2",
      "networkId": 0,
      "chainId": 0
    },
    {
      "hash": "0x17f71bcb4812ecca51924ce984cbe83e050ec5110ae39e56f787c2a0ed2188bd",
      "blockHash": "0xdf9dcb0f19cd24598b7925fa99027fb17aae5b9e857400ea80a9cae43f87da90",
      "blockNumber": 99711,
      "transactionIndex": 1,
      "confirmations": null,
      "from": "0xC02516234B2c5eA2fdE935a1a1B079E952047fd5",
      "gasPrice": {
        "_hex": "0xdc2612588"
      },
      "gasLimit": {
        "_hex": "0x5208"
      },
      "to": "0x32Be343B94f860124dC4fEe278FDCBD38C102D88",
      "value": {
        "_hex": "0x10433ff8d102770000"
      },
      "nonce": 1,
      "data": "0x",
      "r": "0x6501aae44309a2a2e57af9fecbbbf8766dd492f049c01f502088be3a6fc426c1",
      "s": "0x2842bae09ce281c4ef58412ac69588bd4846f139494caddc36c51d15e61ef7f3",
      "v": 28,
      "creates": null,
      "raw": "0xf86d01850dc26125888252089432be343b94f860124dc4fee278fdcbd38c102d888910433ff8d102770000801ca06501aae44309a2a2e57af9fecbbbf8766dd492f049c01f502088be3a6fc426c1a02842bae09ce281c4ef58412ac69588bd4846f139494caddc36c51d15e61ef7f3",
      "networkId": 0,
      "chainId": 0
    }
  ]
}