{
  "hash": "0x2a9c6d5f60a3a0a059fce6b64c6580e056c6e822ca47f3b5b3a5e238384ba308",
  "parentHash": "0xbb9bc00ad42009aa23faa8dd38b338bbb11b985d1cacbf3beb9c7ab29b47b17b",
  "number": 51770,
  "timestamp": 1439010609,
  "nonce": "0x36259d1e90b9ad80",
  "difficulty": 1555085624006,
  "gasLimit": {
    "_hex": "0xdb0a7"
  },
  "gasUsed": {
    "_hex": "0x546c"
  },
  "miner": "0xe6A7a1d47ff21B6321162AEA7C6CB457D5476Bca",
  "extraData": "0x657468706f6f6c2e6f7267",
  "transactions": [
    {
      "hash": "0x4dc7817b656e051cb222889b2bf3d8cee8df8f1ad27f259689d9608a295ac480",
      "blockHash": "0x2a9c6d5f60a3a0a059fce6b64c6580e056c6e822ca47f3b5b3a5e238384ba308",
      "blockNumber": 51770,
      "transactionIndex": 0,
      "confirmations": null,
      "from": "0x906886208f866F20Da292360Bd6e5f93adaA69EC",
      "gasPrice": {
        "_hex": "0xdb9d99870"
      },
      "gasLimit": {
        "_hex": "0x15f90"
      },
      "to": "0xf8E0CA3Ed80bd541b94BEdCf259e8CF2141A9523",
      "value": {
        "_hex": "0x16345785d8a0000"
      },
      "nonce": 1,
      "data": "0x454e433933464b3330",
      "r": "0x4d7b15652c59997018599498afb671476e1779eda4ecca779998990f65d5d25f",
      "s": "0x4f95f930930e893487a6cf0615367a697bedbbc7b2d7d3f9d745368eb98938f4",
      "v": 28,
      "creates": null,
      "raw": "0xf87601850db9d9987083015f9094f8e0ca3ed80bd541b94bedcf259e8cf2141a952388016345785d8a000089454e433933464b33301ca04d7b15652c59997018599498afb671476e1779eda4ecca779998990f65d5d25fa04f95f930930e893487a6cf0615367a697bedbbc7b2d7d3f9d745368eb98938f4",
      "networkId": 0,
      "chainId": 0
    }
  ]
}