{
  "hash": "0xf02e9d2316acca97d12bb305dec87721e1bca28e1d0473c98375e9be9def57f4",
  "parentHash": "0x6829b38186f50bf1f25666c3c4941e01b1b0d9f30db2ea23cd3ca9464683ecf5",
  "number": 80527,
  "timestamp": 1439486757,
  "nonce": "0xb1f25d13340da2f6",
  "difficulty": 2425060439165,
  "gasLimit": {
    "_hex": "0x2fefd8"
  },
  "gasUsed": {
    "_hex": "0x5208"
  },
  "miner": "0xf927a40C8B7F6E07c5af7FA2155B4864a4112B13",
  "extraData": "0x",
  "transactions": [
    {
      "hash": "0x1578d7d8e45a9ecacc8b147aa85c31702a9ab6b1ddbdb6c11282fdf06140dede",
      "blockHash": "0xf02e9d2316acca97d12bb305dec87721e1bca28e1d0473c98375e9be9def57f4",
      "blockNumber": 80527,
      "transactionIndex": 0,
      "confirmations": null,
      "from": "0x24bD5904059091d2f9E12d6a26A010CA22ab14E8",
      "gasPrice": {
        "_hex": "0xd69b48315"
      },
      "gasLimit": {
        "_hex": "0x15f90"
      },
      "to": "0xdE8b99F68A20641A07501B9f1DC2CB73251C5909",
      "value": {
        "_hex": "0x3f514193abb840000"
      },
      "nonce": 3,
      "data": "0x",
      "r": "0x2d5a88ebe5b763ae1d818c243a30d9b2684069a63f8790c15eab488bfeb9ad5b",
      "s": "0x0e8a45cf11023f6c6dda939c7f0ad97dcf456e34bf5c3344aa70ca77f6fb3e50",
      "v": 27,
      "creates": null,
      "raw": "0xf86e03850d69b4831583015f9094de8b99f68a20641a07501b9f1dc2cb73251c59098903f514193abb840000801ba02d5a88ebe5b763ae1d818c243a30d9b2684069a63f8790c15eab488bfeb9ad5ba00e8a45cf11023f6c6dda939c7f0ad97dcf456e34bf5c3344aa70ca77f6fb3e50",
      "networkId": 0,
      "chainId": 0
    }
  ]
}