{
  "hash": "0x2d4b905960d7a55e1aa8a56893fc6076d65d8ba5aac5a185d8db2f0e1c606b11",
  "parentHash": "0xb468b62240369d776d7e78e3f9e5053f3d756bf95f093cadb137ebeb5fbbe1fd",
  "number": 108268,
  "timestamp": 1439937444,
  "nonce": "0x26a76bd5119a8892",
  "difficulty": 4349025740877,
  "gasLimit": {
    "_hex": "0x2fefd8"
  },
  "gasUsed": {
    "_hex": "0xf618"
  },
  "miner": "0xe6A7a1d47ff21B6321162AEA7C6CB457D5476Bca",
  "extraData": "0x476574682f76312e302e312d38326566323666362f6c696e75782f676f312e34",
  "transactions": [
    {
      "hash": "0xc9280759663ae07999fc4d40516424d4b018f86125ba8a2c5acd50e3573ad7e4",
      "blockHash": "0x2d4b905960d7a55e1aa8a56893fc6076d65d8ba5aac5a185d8db2f0e1c606b11",
      "blockNumber": 108268,
      "transactionIndex": 0,
      "confirmations": null,
      "from": "0xee5379D0c1ca47327368027455074C26D9952628",
      "gasPrice": {
        "_hex": "0xdf4d7ab35"
      },
      "gasLimit": {
        "_hex": "0x15f90"
      },
      "to": "0x029b539130345336FA435C807F08B86a344A1BFe",
      "value": {
        "_hex": "0x560ad326a76c0000"
      },
      "nonce": 19,
      "data": "0x",
      "r": "0x9065ce9dad3562c1789e65db1fda9b611f73fe88433b9797b147a4cf4d9b808a",
      "s": "0x0e49a6cc10cd9f7d4978ab0bc86754104303f5ee616117345818f370c5c8dff4",
      "v": 27,
      "creates": null,
      "raw": "0xf86d13850df4d7ab3583015f9094029b539130345336fa435c807f08b86a344a1bfe88560ad326a76c0000801ba09065ce9dad3562c1789e65db1fda9b611f73fe88433b9797b147a4cf4d9b808aa00e49a6cc10cd9f7d4978ab0bc86754104303f5ee616117345818f370c5c8dff4",
      "networkId": 0,
      "chainId": 0
    },
    {
      "hash": "0x9a2bd6ff2afb7ec28b7075f1898d2653521a7a95596310ab016d49ff0aaeb143",
      "blockHash": "0x2d4b905960d7a55e1aa8a56893fc6076d65d8ba5aac5a185d8db2f0e1c606b11",
      "blockNumber": 108268,
      "transactionIndex": 1,
      "confirmations": null,
      "from": "0x4D67f4F0Db45b3B5a3424B39ed8d972F710381D5",
      "gasPrice": {
        "_hex": "0xcfefe5009"
      },
      "gasLimit": {
        "_hex": "0x5208"
      },
      "to": "0x32Be343B94f860124dC4fEe278FDCBD38C102D88",
      "value": {
        "_hex": "0x2f9dfd10b807aa000"
      },
      "nonce": 32,
      "data": "0x",
      "r": "0x3b375a32a8874c5c76e964ea1104dcae2546a8d08e102b630f7f4a842dc76c32",
      "s": "0x78fa3802d1b4258d4567c0cc0135291fe49b63e78ec401176360d0048f13c43d",
      "v": 27,
      "creates": null,
      "raw": "0xf86d20850cfefe50098252089432be343b94f860124dc4fee278fdcbd38c102d888902f9dfd10b807aa000801ba03b375a32a8874c5c76e964ea1104dcae2546a8d08e102b630f7f4a842dc76c32a078fa3802d1b4258d4567c0cc0135291fe49b63e78ec401176360d0048f13c43d",
      "networkId": 0,
      "chainId": 0
    },
    {
      "hash": "0x2cd2b5f7b26d8275ea49f5f770aefcca57afd9959fc613d0edce4895840c1597",
      "blockHash": "0x2d4b905960d7a55e1aa8a56893fc6076d65d8ba5aac5a185d8db2f0e1c606b11",
      "blockNumber": 108268,
      "transactionIndex": 2,
      "confirmations": null,
      "from": "0xBBDa93a81B882774e1c9b5e3F933Fa35DaC8bc88",
      "gasPrice": {
        "_hex": "0xcfefe5009"
      },
      "gasLimit": {
        "_hex": "0x5208"
      },
      "to": "0x32Be343B94f860124dC4fEe278FDCBD38C102D88",
      "value": {
        "_hex": "0x40f919e07040b8000"
      },
      "nonce": 14,
      "data": "0x",
      "r": "0x3c835cae4c2e05de83977f93ef46b33fb4afd0d781b3edf075955d5bbc07977b",
      "s": "0x0d9a033d36aca38fcda66c0e489791158ef6aed0aa67ec1d50f48f4d09850f59",
      "v": 27,
      "creates": null,
      "raw": "0xf86d0e850cfefe50098252089432be343b94f860124dc4fee278fdcbd38c102d8889040f919e07040b8000801ba03c835cae4c2e05de83977f93ef46b33fb4afd0d781b3edf075955d5bbc07977ba00d9a033d36aca38fcda66c0e489791158ef6aed0aa67ec1d50f48f4d09850f59",
      "networkId": 0,
      "chainId": 0
    }
  ]
}