{
  "hash": "0x612632f642298629320355c67c5d5577bd146295dc046e4a1701d024130b8bef",
  "parentHash": "0x827250c3064c9493555478b25c3b231f465c8c05b94369061656729ae18d07cb",
  "number": 84348,
  "timestamp": 1439548418,
  "nonce": "0x09e17be3a6a086d3",
  "difficulty": 2539044098725,
  "gasLimit": {
    "_hex": "0x2fefd8"
  },
  "gasUsed": {
    "_hex": "0x5208"
  },
  "miner": "0x580992B51e3925e23280EfB93d3047C82f17E038",
  "extraData": "0x476574682f76312e302e312f6c696e75782f676f312e342e32",
  "transactions": [
    {
      "hash": "0x5be42ebd58332a82391f5bb7cb706a11ca31280a7f1f3385f59afe8949e95edc",
      "blockHash": "0x612632f642298629320355c67c5d5577bd146295dc046e4a1701d024130b8bef",
      "blockNumber": 84348,
      "transactionIndex": 0,
      "confirmations": null,
      "from": "0xa83A3BD5fBcceD1b6e82119B404769f74a89Cab4",
      "gasPrice": {
        "_hex": "0xd9b8ea998"
      },
      "gasLimit": {
        "_hex": "0x15f90"
      },
      "to": "0x4FCD326ae0739D0DA0fC71020adb6aBf9abf3BdA",
      "value": {
        "_hex": "0xde0b6b3a7640000"
      },
      "nonce": 1,
      "data": "0x",
      "r": "0xacf2d8cb5d65971dd16f3a17eeecf2be8ad56b094d9a7cc2485570660907417f",
      "s": "0x7363d9862c86bf53a3953a0b6b70c28f3157ee808b4d988a2a3c735f0590fd30",
      "v": 27,
      "creates": null,
      "raw": "0xf86d01850d9b8ea99883015f90944fcd326ae0739d0da0fc71020adb6abf9abf3bda880de0b6b3a7640000801ba0acf2d8cb5d65971dd16f3a17eeecf2be8ad56b094d9a7cc2485570660907417fa07363d9862c86bf53a3953a0b6b70c28f3157ee808b4d988a2a3c735f0590fd30",
      "networkId": 0,
      "chainId": 0
    }
  ]
}