{
  "hash": "0x6b94c6aea39866f879e47b9babc4e844c51bdc580eb0885ed55aa28fc8128f1e",
  "parentHash": "0x3ede1d93abc7b67bb67092dd3a8b3aaa9aecfb761d97eee862247dfb4c385de1",
  "number": 117835,
  "timestamp": 1440116081,
  "nonce": "0x759c2b7fa8006f53",
  "difficulty": 4354687205218,
  "gasLimit": {
    "_hex": "0x2fefd8"
  },
  "gasUsed": {
    "_hex": "0x5208"
  },
  "miner": "0x8B454d830feF179e66206840F8F3D1d83bC32b17",
  "extraData": "0xd983010002844765746887676f312e342e328777696e646f7773",
  "transactions": [
    {
      "hash": "0xf02b514fafad2a8c906dffc769cc4593b8ca12c406201d10949ccbe85d63586f",
      "blockHash": "0x6b94c6aea39866f879e47b9babc4e844c51bdc580eb0885ed55aa28fc8128f1e",
      "blockNumber": 117835,
      "transactionIndex": 0,
      "confirmations": null,
      "from": "0x9252f10822221Afe05035227D96a9b5B2b50349B",
      "gasPrice": {
        "_hex": "0xba43b7400"
      },
      "gasLimit": {
        "_hex": "0x5208"
      },
      "to": "0x32Be343B94f860124dC4fEe278FDCBD38C102D88",
      "value": {
        "_hex": "0x17418e701755900000"
      },
      "nonce": 4,
      "data": "0x",
      "r": "0x1c2a1bfc616f0782e46f7c6c5812f4a390b127faaf8d52930919be5709d59575",
      "s": "0x0375292111859b9363128488b5c27ab0aaed2e4a5cb0a1b8fe1c1b4cb0abb428",
      "v": 28,
      "creates": null,
      "raw": "0xf86d04850ba43b74008252089432be343b94f860124dc4fee278fdcbd38c102d888917418e701755900000801ca01c2a1bfc616f0782e46f7c6c5812f4a390b127faaf8d52930919be5709d59575a00375292111859b9363128488b5c27ab0aaed2e4a5cb0a1b8fe1c1b4cb0abb428",
      "networkId": 0,
      "chainId": 0
    }
  ]
}