{
  "hash": "0x2d848d61cfe161da6ae4c6a1bd7b3369c1619296c50d99ad87709825ababb21d",
  "parentHash": "0xa0c659fb36198e59527935a847a0a2faa0d63caa42ed9b16d44a96bd02ad1d81",
  "number": 102672,
  "timestamp": 1439841414,
  "nonce": "0x6cbde0789e5a06d8",
  "difficulty": 4044576121770,
  "gasLimit": {
    "_hex": "0x2fefd8"
  },
  "gasUsed": {
    "_hex": "0x5208"
  },
  "miner": "0x790b8a3cE86E707ED0eD32bF89B3269692a23CC1",
  "extraData": "0xd783010001844765746887676f312e342e32856c696e7578",
  "transactions": [
    {
      "hash": "0xf6af55560e1ff1ab1d705223d1e2b6a8818ee13841158623bbd2347959bef6a3",
      "blockHash": "0x2d848d61cfe161da6ae4c6a1bd7b3369c1619296c50d99ad87709825ababb21d",
      "blockNumber": 102672,
      "transactionIndex": 0,
      "confirmations": null,
      "from": "0xa70a9a7040d542C632D8e0bE7c5513A8a5Bbc752",
      "gasPrice": {
        "_hex": "0xce8f3376c"
      },
      "gasLimit": {
        "_hex": "0x5208"
      },
      "to": "0x32Be343B94f860124dC4fEe278FDCBD38C102D88",
      "value": {
        "_hex": "0x4573fb339aeed400"
      },
      "nonce": 221,
      "data": "0x",
      "r": "0xccb9d6f385e384c1ca27fc383524b8ed9fd8007271a01714d81cce31bc32629e",
      "s": "0x0c6834620611a45d24c624213830767aa94c281c3e0196debab72e6c6a2d8ad9",
      "v": 28,
      "creates": null,
      "raw": "0xf86d81dd850ce8f3376c8252089432be343b94f860124dc4fee278fdcbd38c102d88884573fb339aeed400801ca0ccb9d6f385e384c1ca27fc383524b8ed9fd8007271a01714d81cce31bc32629ea00c6834620611a45d24c624213830767aa94c281c3e0196debab72e6c6a2d8ad9",
      "networkId": 0,
      "chainId": 0
    }
  ]
}