{
  "hash": "0x44876af4179262fdb24239199b33e3c77cc3d2a615668736cd9e2fc84a5fad96",
  "parentHash": "0x794bcd64d179b1ba1ce622d9147869746ae899c673dbf4f1c74c6a5ca2a5e69b",
  "number": 79582,
  "timestamp": 1439472014,
  "nonce": "0x90216117962eb2e2",
  "difficulty": 2340406345394,
  "gasLimit": {
    "_hex": "0x2fefd8"
  },
  "gasUsed": {
    "_hex": "0x5208"
  },
  "miner": "0x19dFA9C93e19858130E213C2B35bD3062F5d0a6D",
  "extraData": "0x476574682f76312e302e312d38326566323666362f6c696e75782f676f312e34",
  "transactions": [
    {
      "hash": "0x92380f678944414d90532546e67505a0d80299d0d7551ca0c266357134fbdfcb",
      "blockHash": "0x44876af4179262fdb24239199b33e3c77cc3d2a615668736cd9e2fc84a5fad96",
      "blockNumber": 79582,
      "transactionIndex": 0,
      "confirmations": null,
      "from": "0x2910543Af39abA0Cd09dBb2D50200b3E800A63D2",
      "gasPrice": {
        "_hex": "0xd470c44e7"
      },
      "gasLimit": {
        "_hex": "0x5208"
      },
      "to": "0xdb49193CE6f62833b2080DC8759acB57d519967F",
      "value": {
        "_hex": "0x56bb59ab42b2f8000"
      },
      "nonce": 362,
      "data": "0x",
      "r": "0x73c9f1b3fae6d307f089beca2c248edd49b3985477a888552d1730b6fdcff19e",
      "s": "0x15930d34692186b9584c3a026f6622438a270f1b81d9ca5600d829032b3b79a1",
      "v": 27,
      "creates": null,
      "raw": "0xf86f82016a850d470c44e782520894db49193ce6f62833b2080dc8759acb57d519967f89056bb59ab42b2f8000801ba073c9f1b3fae6d307f089beca2c248edd49b3985477a888552d1730b6fdcff19ea015930d34692186b9584c3a026f6622438a270f1b81d9ca5600d829032b3b79a1",
      "networkId": 0,
      "chainId": 0
    }
  ]
}