{
  "hash": "0x33862f0ef65c262561caad70125762c9ee17056a6d7362988ff18b69a3df5623",
  "parentHash": "0xfe428a4ef71fd8c5a9c238ba9c051f540553a0e83b45a54115dc8209727a80df",
  "number": 96063,
  "timestamp": 1439734322,
  "nonce": "0xbbaa1127cdd791de",
  "difficulty": 3640815041196,
  "gasLimit": {
    "_hex": "0x2fefd8"
  },
  "gasUsed": {
    "_hex": "0x5208"
  },
  "miner": "0x9746c7e1ef2bd21FF3997fa467593a89cb852BD0",
  "extraData": "0x476574682f76312e302e312f77696e646f77732f676f312e342e32",
  "transactions": [
    {
      "hash": "0xd9b835a2621355d1488470d5a288d8c0d4927a5d3b2efad54310cedef2239282",
      "blockHash": "0x33862f0ef65c262561caad70125762c9ee17056a6d7362988ff18b69a3df5623",
      "blockNumber": 96063,
      "transactionIndex": 0,
      "confirmations": null,
      "from": "0xE84Cb28acE3cEb9bd20690967C67eeD15EaCb502",
      "gasPrice": {
        "_hex": "0xd371eb4ff"
      },
      "gasLimit": {
        "_hex": "0x15f90"
      },
      "to": "0xf3fB05B2E8177Ed2D80ac90DF22c2138B021d54f",
      "value": {
        "_hex": "0xde0b6b3a7640000"
      },
      "nonce": 0,
      "data": "0x",
      "r": "0xe8414138b19fcae6d854a2c3f05b648fa4d28290070b3055a2c4e674c18be3ad",
      "s": "0x3d21a252fb4eb1e83623b8c7c5229ed1e0f197e8c67862da5a9f8dac79e51b2c",
      "v": 28,
      "creates": null,
      "raw": "0xf86d80850d371eb4ff83015f9094f3fb05b2e8177ed2d80ac90df22c2138b021d54f880de0b6b3a7640000801ca0e8414138b19fcae6d854a2c3f05b648fa4d28290070b3055a2c4e674c18be3ada03d21a252fb4eb1e83623b8c7c5229ed1e0f197e8c67862da5a9f8dac79e51b2c",
      "networkId": 0,
      "chainId": 0
    }
  ]
}