{
  "hash": "0xaf44cb81459e1e70f6a14088ddfaf505bb332f1f371f1b9fe9d2c2f54764b264",
  "parentHash": "0x48b44627528702f57a97759262182560deab671c7be332e125dd04dd834406a6",
  "number": 119835,
  "timestamp": 1440149524,
  "nonce": "0xe108debe48f19719",
  "difficulty": 4404968532430,
  "gasLimit": {
    "_hex": "0x2fefd8"
  },
  "gasUsed": {
    "_hex": "0x546c"
  },
  "miner": "0x52bc44d5378309EE2abF1539BF71dE1b7d7bE3b5",
  "extraData": "0xd783010002844765746887676f312e342e32856c696e7578",
  "transactions": [
    {
      "hash": "0x2bf45b251b2cead3890a97baf27edace17afe8af863e1faa8877e3e3edbdd349",
      "blockHash": "0xaf44cb81459e1e70f6a14088ddfaf505bb332f1f371f1b9fe9d2c2f54764b264",
      "blockNumber": 119835,
      "transactionIndex": 0,
      "confirmations": null,
      "from": "0x35e8e5dC5FBd97c5b421A80B596C030a2Be2A04D",
      "gasPrice": {
        "_hex": "0xba43b7400"
      },
      "gasLimit": {
        "_hex": "0x55f0"
      },
      "to": "0x2910543Af39abA0Cd09dBb2D50200b3E800A63D2",
      "value": {
        "_hex": "0xad78ebc5ac6200000"
      },
      "nonce": 6,
      "data": "0x454e423451384a3252",
      "r": "0xac1241995c4ecd673bf9083f51029309e0ca9452c5bba570006264a6fdeb2300",
      "s": "0x47067889e74ef230ebc00fc4362644ae80b7177b0dc971ea932ada01ba2706ff",
      "v": 27,
      "creates": null,
      "raw": "0xf87606850ba43b74008255f0942910543af39aba0cd09dbb2d50200b3e800a63d2890ad78ebc5ac620000089454e423451384a32521ba0ac1241995c4ecd673bf9083f51029309e0ca9452c5bba570006264a6fdeb2300a047067889e74ef230ebc00fc4362644ae80b7177b0dc971ea932ada01ba2706ff",
      "networkId": 0,
      "chainId": 0
    }
  ]
}