{
  "hash": "0xc6264edb08d6ebc9bcf234627c5e99601ea6b36dea1aa53fd0058884e078bb99",
  "parentHash": "0x4ae4bd2962084bcda253187d76e97b42f1f16b0977f851b7acb417b5e78964cc",
  "number": 81508,
  "timestamp": 1439502969,
  "nonce": "0x6ed48cd5f2318ed4",
  "difficulty": 2442601652894,
  "gasLimit": {
    "_hex": "0x2fefd8"
  },
  "gasUsed": {
    "_hex": "0x546c"
  },
  "miner": "0x4D52F282d1B4Ca07065FA433f90BDbb3b7c2928F",
  "extraData": "0x476574682f76312e302e312f77696e646f77732f676f312e342e32",
  "transactions": [
    {
      "hash": "0xbf05df77563e0908110857a3bd6829284a059107a91741c85632359ef024349a",
      "blockHash": "0xc6264edb08d6ebc9bcf234627c5e99601ea6b36dea1aa53fd0058884e078bb99",
      "blockNumber": 81508,
      "transactionIndex": 0,
      "confirmations": null,
      "from": "0xFEaA6f0a842422DdD202CF41d44eFf708127136e",
      "gasPrice": {
        "_hex": "0x9184e72a000"
      },
      "gasLimit": {
        "_hex": "0x993f9"
      },
      "to": "0x2910543Af39abA0Cd09dBb2D50200b3E800A63D2",
      "value": {
        "_hex": "0x8ac7230489e80000"
      },
      "nonce": 6,
      "data": "0x454e32544635393930",
      "r": "0x22b1e34658d37daa6053490d28943b692385694424d70bf0e29264276a13041b",
      "s": "0x5b76502c76be42f5b2ed9428958770d1f635f027ea9c4dc7bd0433ddf9b3c431",
      "v": 27,
      "creates": null,
      "raw": "0xf877068609184e72a000830993f9942910543af39aba0cd09dbb2d50200b3e800a63d2888ac7230489e8000089454e325446353939301ba022b1e34658d37daa6053490d28943b692385694424d70bf0e29264276a13041ba05b76502c76be42f5b2ed9428958770d1f635f027ea9c4dc7bd0433ddf9b3c431",
      "networkId": 0,
      "chainId": 0
    }
  ]
}