{
  "hash": "0xcb33d4b47c904747fa64698b5ba63474b86e8112eb5cca040ba8a074fc914ccf",
  "parentHash": "0x680ccf505d8ccc2500ef5b753addd0d6c27bb15df02eb10753910efcdeb8eff0",
  "number": 64753,
  "timestamp": 1439225775,
  "nonce": "0x43764558edb4f2ee",
  "difficulty": 1888501599444,
  "gasLimit": {
    "_hex": "0x2fefd8"
  },
  "gasUsed": {
    "_hex": "0x11074"
  },
  "miner": "0x87898CE53471043FcCa0a2aF4E1dC6d8B3fCf607",
  "extraData": "0x476574682f5369626572696131392f76312e302e312d37666266393930632f6c",
  "transactions": [
    {
      "hash": "0x5b5b425ca53ec4b046f89e0be45c8c1f68f68f7e379923ed24584e4010ab9df1",
      "blockHash": "0xcb33d4b47c904747fa64698b5ba63474b86e8112eb5cca040ba8a074fc914ccf",
      "blockNumber": 64753,
      "transactionIndex": 0,
      "confirmations": null,
      "from": "0xF22b579290f97cAE152e25729eC12A2f3aDa2310",
      "gasPrice": {
        "_hex": "0xba43b7400"
      },
      "gasLimit": {
        "_hex": "0x15f90"
      },
      "to": "0x793AE8C1b1a160BFc07BFB0d04F85eab1A71F4f2",
      "value": {
        "_hex": "0x0"
      },
      "nonce": 0,
      "data": "0x3ba15036",
      "r": "0x1c3b859c4547dd7e15b5175a4d171d44c0dcb3ea7d78e99482759c0328b11b80",
      "s": "0x184f444dc3ac541a33d686455beb7ef36ab8d32cbe8fc680f1d02e48678effd3",
      "v": 27,
      "creates": null,
      "raw": "0xf86980850ba43b740083015f9094793ae8c1b1a160bfc07bfb0d04f85eab1a71f4f280843ba150361ba01c3b859c4547dd7e15b5175a4d171d44c0dcb3ea7d78e99482759c0328b11b80a0184f444dc3ac541a33d686455beb7ef36ab8d32cbe8fc680f1d02e48678effd3",
      "networkId": 0,
      "chainId": 0
    },
    {
      "hash": "0xefced2bf0e2028e0e9fd53a5a143a8824df5655d2253ee552b4f8d9d68820153",
      "blockHash": "0xcb33d4b47c904747fa64698b5ba63474b86e8112eb5cca040ba8a074fc914ccf",
      "blockNumber": 64753,
      "transactionIndex": 1,
      "confirmations": null,
      "from": "0xE38c75494459cCB1727eDB5192AD0E299fcF0c10",
      "gasPrice": {
        "_hex": "0xba43b7400"
      },
      "gasLimit": {
        "_hex": "0x5208"
      },
      "to": "0xBce28A5adfB8D5fE41873FA641A0b8D9F1eecCc1",
      "value": {
        "_hex": "0x937bda828f9000"
      },
      "nonce": 1,
      "data": "0x",
      "r": "0x0716c62beaf913d5603caaffb8058da1d533e2d96fda4986d754daa573a530ca",
      "s": "0x0cc510d49890d2b10919cc723030c20488597bcb41d1b2f81bd84a9a3000112e",
      "v": 28,
      "creates": null,
      "raw": "0xf86b01850ba43b740082520894bce28a5adfb8d5fe41873fa641a0b8d9f1eeccc187937bda828f9000801ca00716c62beaf913d5603caaffb8058da1d533e2d96fda4986d754daa573a530caa00cc510d49890d2b10919cc723030c20488597bcb41d1b2f81bd84a9a3000112e",
      "networkId": 0,
      "chainId": 0
    }
  ]
}