{
  "hash": "0xf22f48ea4ac3708caf01b8c1b959a3790ce60eab5eee216a8945dc7e875a3949",
  "parentHash": "0xfade794da3ded29d7077c7edddccd433b4cc60267373ff552e7cb91dd777d519",
  "number": 82698,
  "timestamp": 1439523822,
  "nonce": "0x84763868469db756",
  "difficulty": 2367114874189,
  "gasLimit": {
    "_hex": "0x2fefd8"
  },
  "gasUsed": {
    "_hex": "0x546c"
  },
  "miner": "0x0193d941b50d91BE6567c7eE1C0Fe7AF498b4137",
  "extraData": "0x4a5ace9e4e",
  "transactions": [
    {
      "hash": "0xace70ce430641daf3fa2c39907d616f6fa1d3ca42456f48aa2e04ec6102964ab",
      "blockHash": "0xf22f48ea4ac3708caf01b8c1b959a3790ce60eab5eee216a8945dc7e875a3949",
      "blockNumber": 82698,
      "transactionIndex": 0,
      "confirmations": null,
      "from": "0x8dc1D5111d09AF25FDfcAc455c7cEC283E6D6775",
      "gasPrice": {
        "_hex": "0x110c8f7d8de"
      },
      "gasLimit": {
        "_hex": "0xc350"
      },
      "to": "0x2910543Af39abA0Cd09dBb2D50200b3E800A63D2",
      "value": {
        "_hex": "0xde0b6b3a7640000"
      },
      "nonce": 0,
      "data": "0x454e31324658434838",
      "r": "0x155e051e949c0760de3cdfe310b5c0eade5b50675418a9d6da6dbc4084ccd899",
      "s": "0x70f9b7046159c6507a9cf2ce9d9c3ca3898992557d6e1898ab7b1d0bdacf0a54",
      "v": 28,
      "creates": null,
      "raw": "0xf87680860110c8f7d8de82c350942910543af39aba0cd09dbb2d50200b3e800a63d2880de0b6b3a764000089454e313246584348381ca0155e051e949c0760de3cdfe310b5c0eade5b50675418a9d6da6dbc4084ccd899a070f9b7046159c6507a9cf2ce9d9c3ca3898992557d6e1898ab7b1d0bdacf0a54",
      "networkId": 0,
      "chainId": 0
    }
  ]
}