{
  "hash": "0x47bad97c49bbc2f6aae3f4355f9a05ade8037bfa8eb01b6aba349897b9f0d18a",
  "parentHash": "0xd9be3f28edf35b49de1cf3311d4e66af07e518a79a5845047238acd9571157e3",
  "number": 113630,
  "timestamp": 1440026909,
  "nonce": "0xa7209dae8ca50993",
  "difficulty": 4449315009918,
  "gasLimit": {
    "_hex": "0x2fefd8"
  },
  "gasUsed": {
    "_hex": "0x546c"
  },
  "miner": "0x7E6930B63D03e88F5928C5cd6ee3FCee4D714F7F",
  "extraData": "0x",
  "transactions": [
    {
      "hash": "0x050fd5db1ff33c78e85859c1686dd16c39eff3bea805f66debff323f2ead4359",
      "blockHash": "0x47bad97c49bbc2f6aae3f4355f9a05ade8037bfa8eb01b6aba349897b9f0d18a",
      "blockNumber": 113630,
      "transactionIndex": 0,
      "confirmations": null,
      "from": "0xE3263cE8af6db3e467584502eD7109125EaE22A5",
      "gasPrice": {
        "_hex": "0x110c8f7d8de"
      },
      "gasLimit": {
        "_hex": "0xc350"
      },
      "to": "0x2910543Af39abA0Cd09dBb2D50200b3E800A63D2",
      "value": {
        "_hex": "0x8ac7230489e80000"
      },
      "nonce": 0,
      "data": "0x454e31525936334d52",
      "r": "0x77080b71402241d4effc126d6aa13d719af0ebfa318f88c872288f6b727cc055",
      "s": "0xfbe06038fb46337ee53f324871e9074569864b8274b3c606c047b542d0f656e7",
      "v": 28,
      "creates": null,
      "raw": "0xf87680860110c8f7d8de82c350942910543af39aba0cd09dbb2d50200b3e800a63d2888ac7230489e8000089454e31525936334d521ca077080b71402241d4effc126d6aa13d719af0ebfa318f88c872288f6b727cc055a0fbe06038fb46337ee53f324871e9074569864b8274b3c606c047b542d0f656e7",
      "networkId": 0,
      "chainId": 0
    }
  ]
}