{
  "hash": "0x3100845630afa413f5ca536013f36061434d18bb1ea98ef44db7ea5d68be9937",
  "parentHash": "0x69e6c79b33d6e46b247b3d9f82dcc3adb04dd850f30bd567bc9cfbcc18c41e27",
  "number": 106936,
  "timestamp": 1439913112,
  "nonce": "0x7eaef095e9745be0",
  "difficulty": 4448520542198,
  "gasLimit": {
    "_hex": "0x2fefd8"
  },
  "gasUsed": {
    "_hex": "0x5208"
  },
  "miner": "0x8Ab68e66cBE9f38Ad5C330a6B888DbC73788254A",
  "extraData": "0xda8098302e392e34302b2b302d524c696e75782f672b2b2f696e74",
  "transactions": [
    {
      "hash": "0x4c6f56a64b6b3fad2a78fea6a784cee2a5d2d5cbb851e40de71b4f07bdc50e2b",
      "blockHash": "0x3100845630afa413f5ca536013f36061434d18bb1ea98ef44db7ea5d68be9937",
      "blockNumber": 106936,
      "transactionIndex": 0,
      "confirmations": null,
      "from": "0x32Be343B94f860124dC4fEe278FDCBD38C102D88",
      "gasPrice": {
        "_hex": "0xd4aa7e22a"
      },
      "gasLimit": {
        "_hex": "0x5208"
      },
      "to": "0xFdC4D4765a942f5Bf96931a9e8Cc7ab8b757Ff4c",
      "value": {
        "_hex": "0x12a27b1b4cdd8b00000"
      },
      "nonce": 1194,
      "data": "0x",
      "r": "0x6563b77ec44282f53b47e0c2a78f4f02b218ef38f127cfcff8219d214614ce4c",
      "s": "0x4d74507082ef8589cee31dbe61b50d54d2ba18404880e1c2a78bccdc964249bb",
      "v": 27,
      "creates": null,
      "raw": "0xf8708204aa850d4aa7e22a82520894fdc4d4765a942f5bf96931a9e8cc7ab8b757ff4c8a012a27b1b4cdd8b00000801ba06563b77ec44282f53b47e0c2a78f4f02b218ef38f127cfcff8219d214614ce4ca04d74507082ef8589cee31dbe61b50d54d2ba18404880e1c2a78bccdc964249bb",
      "networkId": 0,
      "chainId": 0
    }
  ]
}