{
  "hash": "0xa939298871ec9252359fcacd376cb3da2b79f5c67020ee870d6f29074dc6b779",
  "parentHash": "0xa9f01688d35300d54ee43081115338864353fa570d213e59edeb118ea3fc1ab8",
  "number": 113443,
  "timestamp": 1440023661,
  "nonce": "0xa6de9c311e095b49",
  "difficulty": 4460290295345,
  "gasLimit": {
    "_hex": "0x2fefd8"
  },
  "gasUsed": {
    "_hex": "0x5208"
  },
  "miner": "0xe6A7a1d47ff21B6321162AEA7C6CB457D5476Bca",
  "extraData": "0x476574682f76312e302e312d38326566323666362f6c696e75782f676f312e34",
  "transactions": [
    {
      "hash": "0xe678852c77b4d0e1eae87283cc342d32575d7dd2b845e28554aad33073ccf2e5",
      "blockHash": "0xa939298871ec9252359fcacd376cb3da2b79f5c67020ee870d6f29074dc6b779",
      "blockNumber": 113443,
      "transactionIndex": 0,
      "confirmations": null,
      "from": "0x1a8E703197aCd1C0d3aB7ecD62dC01389F076E4b",
      "gasPrice": {
        "_hex": "0xcb84a70d5"
      },
      "gasLimit": {
        "_hex": "0x7a120"
      },
      "to": "0xBBDa93a81B882774e1c9b5e3F933Fa35DaC8bc88",
      "value": {
        "_hex": "0x8ac7230489e80000"
      },
      "nonce": 2,
      "data": "0x",
      "r": "0x49fc8a0cc67773e3a7d8d427621418e56748c58e13283f8e7c4f9074228986d4",
      "s": "0x3e64d005336b950462dc6cfa4c7b617d350740e52b4725c967b5b4f70c3af38f",
      "v": 28,
      "creates": null,
      "raw": "0xf86d02850cb84a70d58307a12094bbda93a81b882774e1c9b5e3f933fa35dac8bc88888ac7230489e80000801ca049fc8a0cc67773e3a7d8d427621418e56748c58e13283f8e7c4f9074228986d4a03e64d005336b950462dc6cfa4c7b617d350740e52b4725c967b5b4f70c3af38f",
      "networkId": 0,
      "chainId": 0
    }
  ]
}