{
  "hash": "0x90839a27b1b84506ff948e8de2d8bcfcba47369e8f26ef3723f088d2b39391e9",
  "parentHash": "0x758752a07e91c2071fff9208df7566966dd55cb32aedea175a9dc86eeb952edc",
  "number": 54449,
  "timestamp": 1439054450,
  "nonce": "0xe89dbb2a7fffbe12",
  "difficulty": 1609428613493,
  "gasLimit": {
    "_hex": "0x2fe3db"
  },
  "gasUsed": {
    "_hex": "0x5208"
  },
  "miner": "0x5F8F73E26CdF436f19Cb24C82F90A15AFe55b592",
  "extraData": "0x476574682f76312e302e312f77696e646f77732f676f312e342e32",
  "transactions": [
    {
      "hash": "0x762d8f56680a33ec3193d2efee31c7f9774f38530e9247f87be1df9ac05a8328",
      "blockHash": "0x90839a27b1b84506ff948e8de2d8bcfcba47369e8f26ef3723f088d2b39391e9",
      "blockNumber": 54449,
      "transactionIndex": 0,
      "confirmations": null,
      "from": "0x255BdD6474cC8262f26a22C38f45940e1Ceea69B",
      "gasPrice": {
        "_hex": "0xe11a68056"
      },
      "gasLimit": {
        "_hex": "0x15f90"
      },
      "to": "0x60780933D9a5A8e8E3ab20CB6382cd314f04065F",
      "value": {
        "_hex": "0xd8c9460063d31c0000"
      },
      "nonce": 1,
      "data": "0x",
      "r": "0x5c1f7c58f597e0d42caee6e59d0b44129a2ab16d506f2dee9c6dcea46547a9aa",
      "s": "0x52d8ff0ff780c7f1929aea141036dbee8d76323ff69f80ca7d849dd2f90b04c2",
      "v": 27,
      "creates": null,
      "raw": "0xf86e01850e11a6805683015f909460780933d9a5a8e8e3ab20cb6382cd314f04065f89d8c9460063d31c0000801ba05c1f7c58f597e0d42caee6e59d0b44129a2ab16d506f2dee9c6dcea46547a9aaa052d8ff0ff780c7f1929aea141036dbee8d76323ff69f80ca7d849dd2f90b04c2",
      "networkId": 0,
      "chainId": 0
    }
  ]
}