{
  "hash": "0xe04ce8d2f6495605152fd7beb1bcbc19c44f87a09c1fef773d4fc175f416dae9",
  "parentHash": "0x3457e741792de552f453356c580919c76786e9adc99fa510aabcc22a169ecad1",
  "number": 64629,
  "timestamp": 1439223823,
  "nonce": "0x0910f862db092554",
  "difficulty": 1890374683465,
  "gasLimit": {
    "_hex": "0x2fefd8"
  },
  "gasUsed": {
    "_hex": "0x23b44"
  },
  "miner": "0xA1623430350C5df1b52B0b57483A5bb45d1796Da",
  "extraData": "0x476574682f76312e302e312d38326566323666362f6c696e75782f676f312e34",
  "transactions": [
    {
      "hash": "0x2217789edff821973bcadc60c64f58ff4d8c4b95c78331102e800dd4978a7d76",
      "blockHash": "0xe04ce8d2f6495605152fd7beb1bcbc19c44f87a09c1fef773d4fc175f416dae9",
      "blockNumber": 64629,
      "transactionIndex": 0,
      "confirmations": null,
      "from": "0xFfE35492CBf1FDc2C4F6CD6352f5C7a44eEfB7Ee",
      "gasPrice": {
        "_hex": "0xba43b7400"
      },
      "gasLimit": {
        "_hex": "0x15f90"
      },
      "to": "0x793AE8C1b1a160BFc07BFB0d04F85eab1A71F4f2",
      "value": {
        "_hex": "0x0"
      },
      "nonce": 0,
      "data": "0x3ba15036",
      "r": "0xdafc09ed8356fe987218a91a482751f162acff3512fe67a4814db185c47bd504",
      "s": "0x6d787f3e141af9cd7611d97b424f79698e9b28c0cfc6bb7496591ae8ebb1da35",
      "v": 27,
      "creates": null,
      "raw": "0xf86980850ba43b740083015f9094793ae8c1b1a160bfc07bfb0d04f85eab1a71f4f280843ba150361ba0dafc09ed8356fe987218a91a482751f162acff3512fe67a4814db185c47bd504a06d787f3e141af9cd7611d97b424f79698e9b28c0cfc6bb7496591ae8ebb1da35",
      "networkId": 0,
      "chainId": 0
    },
    {
      "hash": "0x311da065ad40505c41654b43f66675a764195e5505dabfac1cb567e5c6f82665",
      "blockHash": "0xe04ce8d2f6495605152fd7beb1bcbc19c44f87a09c1fef773d4fc175f416dae9",
      "blockNumber": 64629,
      "transactionIndex": 1,
      "confirmations": null,
      "from": "0xc993D0Ee25635FD58B668F8dc9701EbDeAdF5613",
      "gasPrice": {
        "_hex": "0xba43b7400"
      },
      "gasLimit": {
        "_hex": "0x15f90"
      },
      "to": "0x793AE8C1b1a160BFc07BFB0d04F85eab1A71F4f2",
      "value": {
        "_hex": "0x0"
      },
      "nonce": 0,
      "data": "0x3ba15036",
      "r": "0x32ed17e78d66e512747257f886e830b489a367abdce31e0c782ae18160b0a4ab",
      "s": "0x6981f11c8eaf3f3cea6f9ff11ae2402b2480435f9b680a013d08d8375c294cc4",
      "v": 28,
      "creates": null,
      "raw": "0xf86980850ba43b740083015f9094793ae8c1b1a160bfc07bfb0d04f85eab1a71f4f280843ba150361ca032ed17e78d66e512747257f886e830b489a367abdce31e0c782ae18160b0a4aba06981f11c8eaf3f3cea6f9ff11ae2402b2480435f9b680a013d08d8375c294cc4",
      "networkId": 0,
      "chainId": 0
    },
    {
      "hash": "0x0c7d47934641daca93694c96708e8fb92bdaf54bb9bd09e1edfe3f8090ddf3ef",
      "blockHash": "0xe04ce8d2f6495605152fd7beb1bcbc19c44f87a09c1fef773d4fc175f416dae9",
      "blockNumber": 64629,
      "transactionIndex": 2,
      "confirmations": null,
      "from": "0x3B4A7632d60dCC07f748770819610225D6Eb1012",
      "gasPrice": {
        "_hex": "0xba43b7400"
      },
      "gasLimit": {
        "_hex": "0x15f90"
      },
      "to": "0x793AE8C1b1a160BFc07BFB0d04F85eab1A71F4f2",
      "value": {
        "_hex": "0x0"
      },
      "nonce": 0,
      "data": "0x3ba15036",
      "r": "0xf8c0cc070e9f26a6ef0c41d454c758b4473f89365d76ae29018ff62d2f42c746",
      "s": "0x28a7fc691e370fffa048e96891b3b7cef457e47fbad127a0d5ba49b4ad1eea55",
      "v": 27,
      "creates": null,
      "raw": "0xf86980850ba43b740083015f9094793ae8c1b1a160bfc07bfb0d04f85eab1a71f4f280843ba150361ba0f8c0cc070e9f26a6ef0c41d454c758b4473f89365d76ae29018ff62d2f42c746a028a7fc691e370fffa048e96891b3b7cef457e47fbad127a0d5ba49b4ad1eea55",
      "networkId": 0,
      "chainId": 0
    }
  ]
}