{
  "hash": "0x9a167fe401a9975184302fc70128da908fa3d07c297491d0741035e157757ce3",
  "parentHash": "0xa98105e764d9898a805083b3814cf7a570fa3c0a840b61f51b7f277ad1973d1f",
  "number": 84666,
  "timestamp": 1439552846,
  "nonce": "0x7d3ff9964aa9cebf",
  "difficulty": 2604238707161,
  "gasLimit": {
    "_hex": "0x2fefd8"
  },
  "gasUsed": {
    "_hex": "0x19a28"
  },
  "miner": "0x157c6f2431eB1a95797EE86F7d17b3c0FD47A247",
  "extraData": "0x476574682f76312e302e312f77696e646f77732f676f312e342e32",
  "transactions": [
    {
      "hash": "0xfc080c3557c5cf21fbccffd1d2e5e46ba9ce73b8ad28dce6510700ea5f3cf099",
      "blockHash": "0x9a167fe401a9975184302fc70128da908fa3d07c297491d0741035e157757ce3",
      "blockNumber": 84666,
      "transactionIndex": 0,
      "confirmations": null,
      "from": "0x7aBb10F5bd9BC33B8Ec1A82d64b55b6B18777541",
      "gasPrice": {
        "_hex": "0x174876e800"
      },
      "gasLimit": {
        "_hex": "0x5208"
      },
      "to": "0xe6eC56FCecC4dCDB26a178ca4B921b9172e8739c",
      "value": {
        "_hex": "0x86fbb10f6a22a80000"
      },
      "nonce": 7,
      "data": "0x",
      "r": "0xb201858d33e370cf7d714bc92fea642ee28596dd7f78ff6603f736296cbf4031",
      "s": "0x142b835e9e71a3c4ddd2e1639602d2e6bad4cfe06d459811bca3f8abee2a21b4",
      "v": 27,
      "creates": null,
      "raw": "0xf86d0785174876e80082520894e6ec56fcecc4dcdb26a178ca4b921b9172e8739c8986fbb10f6a22a80000801ba0b201858d33e370cf7d714bc92fea642ee28596dd7f78ff6603f736296cbf4031a0142b835e9e71a3c4ddd2e1639602d2e6bad4cfe06d459811bca3f8abee2a21b4",
      "networkId": 0,
      "chainId": 0
    },
    {
      "hash": "0x5de470016ea656083da79fb59568cac05b7ccd4d8d9d727adc9a6dfe3bc7eeb4",
      "blockHash": "0x9a167fe401a9975184302fc70128da908fa3d07c297491d0741035e157757ce3",
      "blockNumber": 84666,
      "transactionIndex": 1,
      "confirmations": null,
      "from": "0x2910543Af39abA0Cd09dBb2D50200b3E800A63D2",
      "gasPrice": {
        "_hex": "0xdb5f4854a"
      },
      "gasLimit": {
        "_hex": "0x5208"
      },
      "to": "0x141d08EDaDA2C1bA62A2940184Ba03d62d3fFF22",
      "value": {
        "_hex": "0x9309005d83438000"
      },
      "nonce": 565,
      "data": "0x",
      "r": "0x6eb20ed2fc385c3d44f493ec64a5e91e31f93d577579851d7d8ff6db81f1bf8c",
      "s": "0x730a19ac23bf8bc98089287b25a28aaf63d154bbb0b06955b4a3fded062d6a38",
      "v": 28,
      "creates": null,
      "raw": "0xf86e820235850db5f4854a82520894141d08edada2c1ba62a2940184ba03d62d3fff22889309005d83438000801ca06eb20ed2fc385c3d44f493ec64a5e91e31f93d577579851d7d8ff6db81f1bf8ca0730a19ac23bf8bc98089287b25a28aaf63d154bbb0b06955b4a3fded062d6a38",
      "networkId": 0,
      "chainId": 0
    },
    {
      "hash": "0xb7269265c26d6520a1121ea5f71dd46ce637e28f7e17d279d2a605069b8ce734",
      "blockHash": "0x9a167fe401a9975184302fc70128da908fa3d07c297491d0741035e157757ce3",
      "blockNumber": 84666,
      "transactionIndex": 2,
      "confirmations": null,
      "from": "0x80a9558a9ed065218D0b99d2287a7D3Bfb974783",
      "gasPrice": {
        "_hex": "0xd9ac991e1"
      },
      "gasLimit": {
        "_hex": "0x5208"
      },
      "to": "0x32Be343B94f860124dC4fEe278FDCBD38C102D88",
      "value": {
        "_hex": "0x375894dfe4ded2000"
      },
      "nonce": 0,
      "data": "0x",
      "r": "0x6e5e4eb370e5d9e922b29ed542789b7cec3a47b01b402fc3053be7d3e815916a",
      "s": "0x1f44d970e149db7d5b846074a1b5e78eb26926936457c12748a9b2ec7aa49dda",
      "v": 27,
      "creates": null,
      "raw": "0xf86d80850d9ac991e18252089432be343b94f860124dc4fee278fdcbd38c102d88890375894dfe4ded2000801ba06e5e4eb370e5d9e922b29ed542789b7cec3a47b01b402fc3053be7d3e815916aa01f44d970e149db7d5b846074a1b5e78eb26926936457c12748a9b2ec7aa49dda",
      "networkId": 0,
      "chainId": 0
    },
    {
      "hash": "0xe83e57d2c8eef893a98002b906f959a7327c8511e9b421a714a99bf924d49e6a",
      "blockHash": "0x9a167fe401a9975184302fc70128da908fa3d07c297491d0741035e157757ce3",
      "blockNumber": 84666,
      "transactionIndex": 3,
      "confirmations": null,
      "from": "0x32Be343B94f860124dC4fEe278FDCBD38C102D88",
      "gasPrice": {
        "_hex": "0xd9ac991e1"
      },
      "gasLimit": {
        "_hex": "0x5208"
      },
      "to": "0x95671Afd2eEc142078597695337B0685CD91962f",
      "value": {
        "_hex": "0xde0b6b3a7640000"
      },
      "nonce": 690,
      "data": "0x",
      "r": "0x731608a8ca753badf3733971eb9d449714a1215db5bbe40a2812b21ff24b2052",
      "s": "0x7b72c38f35687f54d92468bb0c8c574d47d45022f40a8ba1dc1443c5201e92e6",
      "v": 27,
      "creates": null,
      "raw": "0xf86e8202b2850d9ac991e18252089495671afd2eec142078597695337b0685cd91962f880de0b6b3a7640000801ba0731608a8ca753badf3733971eb9d449714a1215db5bbe40a2812b21ff24b2052a07b72c38f35687f54d92468bb0c8c574d47d45022f40a8ba1dc1443c5201e92e6",
      "networkId": 0,
      "chainId": 0
    },
    {
      "hash": "0x4fea9cb85970422e40de8a8369ca5514a665e25eaae486e9929f3eb5d05b7cb5",
      "blockHash": "0x9a167fe401a9975184302fc70128da908fa3d07c297491d0741035e157757ce3",
      "blockNumber": 84666,
      "transactionIndex": 4,
      "confirmations": null,
      "from": "0x32Be343B94f860124dC4fEe278FDCBD38C102D88",
      "gasPrice": {
        "_hex": "0xd9ac991e1"
      },
      "gasLimit": {
        "_hex": "0x5208"
      },
      "to": "0x94B4EA2caa897785bb092aB92caa27081Ef32c82",
      "value": {
        "_hex": "0x55c7b947918c44000"
      },
      "nonce": 691,
      "data": "0x",
      "r": "0x457407d78dfc7540435a206c7bd32939a4d30bfe74c148b651b38aaf9d0ecc51",
      "s": "0x72ce5cafee4ff8edd2bc620fbfc79024eb9746b75a8e03292e671b4d812d95bb",
      "v": 27,
      "creates": null,
      "raw": "0xf86f8202b3850d9ac991e18252089494b4ea2caa897785bb092ab92caa27081ef32c8289055c7b947918c44000801ba0457407d78dfc7540435a206c7bd32939a4d30bfe74c148b651b38aaf9d0ecc51a072ce5cafee4ff8edd2bc620fbfc79024eb9746b75a8e03292e671b4d812d95bb",
      "networkId": 0,
      "chainId": 0
    }
  ]
}