{
  "hash": "0xc65c5865e76eda8fb1230d7cb775f303d24294c91eb03a0e678d5ea03bbee1d5",
  "parentHash": "0xac9bd92a2b6eb0f2dd395ecd22fd8313441e229cbf6078581c5a374ed87bb356",
  "number": 78743,
  "timestamp": 1439458514,
  "nonce": "0x2768ed08a33a91fd",
  "difficulty": 2309984900639,
  "gasLimit": {
    "_hex": "0x2fefd8"
  },
  "gasUsed": {
    "_hex": "0x7c52"
  },
  "miner": "0xe6A7a1d47ff21B6321162AEA7C6CB457D5476Bca",
  "extraData": "0x476574682f76312e302e312d38326566323666362f6c696e75782f676f312e34",
  "transactions": [
    {
      "hash": "0x01ab23440bf5664f3af5cc2c73e14db74bc79ea32672b4807bb915c27950bf23",
      "blockHash": "0xc65c5865e76eda8fb1230d7cb775f303d24294c91eb03a0e678d5ea03bbee1d5",
      "blockNumber": 78743,
      "transactionIndex": 0,
      "confirmations": null,
      "from": "0x008FC7CBAdFFbD0D7fe44F8DFD60a79d721a1c9C",
      "gasPrice": {
        "_hex": "0xdc99211e5"
      },
      "gasLimit": {
        "_hex": "0x15f90"
      },
      "to": "0x94501FF386c3E84cB8FE37924Daa869151417e55",
      "value": {
        "_hex": "0x0"
      },
      "nonce": 31,
      "data": "0x41c0e1b5",
      "r": "0xc9538117e465f63360001b4334ec187d8a140c989104d9399d42f577bdf4b23c",
      "s": "0x6d8b0319dde9ad371fb20f1483a5a22a315dcbfb3e47b9297ea41ac93ffdbb96",
      "v": 27,
      "creates": null,
      "raw": "0xf8691f850dc99211e583015f909494501ff386c3e84cb8fe37924daa869151417e55808441c0e1b51ba0c9538117e465f63360001b4334ec187d8a140c989104d9399d42f577bdf4b23ca06d8b0319dde9ad371fb20f1483a5a22a315dcbfb3e47b9297ea41ac93ffdbb96",
      "networkId": 0,
      "chainId": 0
    },
    {
      "hash": "0xd1840ba8263c3f2ce9a8e698055d6aa5cb6b76dda8b764f73b047a78c03c3545",
      "blockHash": "0xc65c5865e76eda8fb1230d7cb775f303d24294c91eb03a0e678d5ea03bbee1d5",
      "blockNumber": 78743,
      "transactionIndex": 1,
      "confirmations": null,
      "from": "0x8df03bD37602d97980327B58D940258dC57007B3",
      "gasPrice": {
        "_hex": "0xd7d40ace3"
      },
      "gasLimit": {
        "_hex": "0x15f90"
      },
      "to": "0xbA86D58204A1f1fbe53Ff71aa038BC08cb4057e8",
      "value": {
        "_hex": "0x4563918244f40000"
      },
      "nonce": 3,
      "data": "0x",
      "r": "0x64706c062279317993fcb5443d64ed606fb770cfcbe9f7e5158e2a92c62ff62f",
      "s": "0x025f44d9389f690b74d1172b1f40f472aa59c71e2304f7409308d6726573fbcc",
      "v": 28,
      "creates": null,
      "raw": "0xf86d03850d7d40ace383015f9094ba86d58204a1f1fbe53ff71aa038bc08cb4057e8884563918244f40000801ca064706c062279317993fcb5443d64ed606fb770cfcbe9f7e5158e2a92c62ff62fa0025f44d9389f690b74d1172b1f40f472aa59c71e2304f7409308d6726573fbcc",
      "networkId": 0,
      "chainId": 0
    }
  ]
}