{
  "hash": "0x96b597b02b0b25fb3464345a66aae3810c56941290f4f908c9fba1ed491687a8",
  "parentHash": "0x1bd2febe455317e98a440859a6cd2b328ff7dc1ae46348eec032609a826b8d69",
  "number": 62373,
  "timestamp": 1439187654,
  "nonce": "0xa5c24594010550d8",
  "difficulty": 1772854325055,
  "gasLimit": {
    "_hex": "0x2fefd8"
  },
  "gasUsed": {
    "_hex": "0xa410"
  },
  "miner": "0x3222BA3F3e79eA0e31467EEE7639B57923558cCD",
  "extraData": "0x",
  "transactions": [
    {
      "hash": "0xb478143eeac9fc6f7788429057f1c8f2b7850a0ac195ce87590f56f1fd3df9ad",
      "blockHash": "0x96b597b02b0b25fb3464345a66aae3810c56941290f4f908c9fba1ed491687a8",
      "blockNumber": 62373,
      "transactionIndex": 0,
      "confirmations": null,
      "from": "0x5fF827e73C5B866c300b824fe12719a3DD350513",
      "gasPrice": {
        "_hex": "0xcbd847d23"
      },
      "gasLimit": {
        "_hex": "0x5208"
      },
      "to": "0x32Be343B94f860124dC4fEe278FDCBD38C102D88",
      "value": {
        "_hex": "0x455f8870ed179400"
      },
      "nonce": 6,
      "data": "0x",
      "r": "0xfa73d7a163cae3e476f6c8fea4a089024f92bbd36996a20bc10ea9750db79dfc",
      "s": "0x43ae75ebd8152037109e69b947f079c12ac47234e9d7a6805140c3c00695b2af",
      "v": 27,
      "creates": null,
      "raw": "0xf86c06850cbd847d238252089432be343b94f860124dc4fee278fdcbd38c102d8888455f8870ed179400801ba0fa73d7a163cae3e476f6c8fea4a089024f92bbd36996a20bc10ea9750db79dfca043ae75ebd8152037109e69b947f079c12ac47234e9d7a6805140c3c00695b2af",
      "networkId": 0,
      "chainId": 0
    },
    {
      "hash": "0xd1126f9b227f8557847160d7cb84d4e39256256cbe47dab10d5bcbd2eb41ff2d",
      "blockHash": "0x96b597b02b0b25fb3464345a66aae3810c56941290f4f908c9fba1ed491687a8",
      "blockNumber": 62373,
      "transactionIndex": 1,
      "confirmations": null,
      "from": "0x32Be343B94f860124dC4fEe278FDCBD38C102D88",
      "gasPrice": {
        "_hex": "0xcbd847d23"
      },
      "gasLimit": {
        "_hex": "0x5208"
      },
      "to": "0x120A270bbC009644e35F0bB6ab13f95b8199c4ad",
      "value": {
        "_hex": "0x2b5e3af16b18800000"
      },
      "nonce": 150,
      "data": "0x",
      "r": "0xd264f95bf51bcebccb580603a9f21c41df5960fdd203c2189e25e3ec0da7e670",
      "s": "0x61b5ab5d138c6678a9008cb860868e76a466974ef6f22ec8a2c2699602b3635e",
      "v": 27,
      "creates": null,
      "raw": "0xf86e8196850cbd847d2382520894120a270bbc009644e35f0bb6ab13f95b8199c4ad892b5e3af16b18800000801ba0d264f95bf51bcebccb580603a9f21c41df5960fdd203c2189e25e3ec0da7e670a061b5ab5d138c6678a9008cb860868e76a466974ef6f22ec8a2c2699602b3635e",
      "networkId": 0,
      "chainId": 0
    }
  ]
}