{
  "hash": "0x79f3dab76e0a46788460c0f9e6f6e3d6826c5914506df374877c63245326889a",
  "parentHash": "0x9ecaf769b9f37a2bb590546b4d9990bb7939b6bafbe33f5325a5853cee36f487",
  "number": 65657,
  "timestamp": 1439240752,
  "nonce": "0x43d96b05ff008c85",
  "difficulty": 1936857030420,
  "gasLimit": {
    "_hex": "0x2fefd8"
  },
  "gasUsed": {
    "_hex": "0xa410"
  },
  "miner": "0xf8E0CA3Ed80bd541b94BEdCf259e8CF2141A9523",
  "extraData": "0x476574682f76312e302e312f77696e646f77732f676f312e342e32",
  "transactions": [
    {
      "hash": "0x7b255042da9c966f2272d64d46384399a2a994927660eb6b038a90a2a2a4146c",
      "blockHash": "0x79f3dab76e0a46788460c0f9e6f6e3d6826c5914506df374877c63245326889a",
      "blockNumber": 65657,
      "transactionIndex": 0,
      "confirmations": null,
      "from": "0x323568426ffe039a56c0aF194e87aBde5ee2Ffa2",
      "gasPrice": {
        "_hex": "0xdbc28e82e"
      },
      "gasLimit": {
        "_hex": "0x5208"
      },
      "to": "0x32Be343B94f860124dC4fEe278FDCBD38C102D88",
      "value": {
        "_hex": "0x8ac2ca0161c50000"
      },
      "nonce": 1,
      "data": "0x",
      "r": "0xb78f2387f2e82b0b85939d1779446291c32051b09d6dabbda1655e29f344366a",
      "s": "0x6b2749a91f0dc292c9804906d49137fe8d47e81e24fcc5415d98af60a5f615f2",
      "v": 27,
      "creates": null,
      "raw": "0xf86c01850dbc28e82e8252089432be343b94f860124dc4fee278fdcbd38c102d88888ac2ca0161c50000801ba0b78f2387f2e82b0b85939d1779446291c32051b09d6dabbda1655e29f344366aa06b2749a91f0dc292c9804906d49137fe8d47e81e24fcc5415d98af60a5f615f2",
      "networkId": 0,
      "chainId": 0
    },
    {
      "hash": "0x66c339507b443370108645424a4c10cfb8f2132b9583152fa2d6abe2ec782e11",
      "blockHash": "0x79f3dab76e0a46788460c0f9e6f6e3d6826c5914506df374877c63245326889a",
      "blockNumber": 65657,
      "transactionIndex": 1,
      "confirmations": null,
      "from": "0xC624b0Cd3307f6CFFC473f5019FA380E6811ee58",
      "gasPrice": {
        "_hex": "0xdbc28e82e"
      },
      "gasLimit": {
        "_hex": "0x5208"
      },
      "to": "0x32Be343B94f860124dC4fEe278FDCBD38C102D88",
      "value": {
        "_hex": "0xddc5002b9657c00"
      },
      "nonce": 4,
      "data": "0x",
      "r": "0x34d23c78f23ea492a1f18342fde543b643fb8281ef5663758c7de8e2758f1f1a",
      "s": "0x249e451badeed1c514dc1ad63f6cc0f54ef306cfef1c064daeba03f0838e8332",
      "v": 27,
      "creates": null,
      "raw": "0xf86c04850dbc28e82e8252089432be343b94f860124dc4fee278fdcbd38c102d88880ddc5002b9657c00801ba034d23c78f23ea492a1f18342fde543b643fb8281ef5663758c7de8e2758f1f1aa0249e451badeed1c514dc1ad63f6cc0f54ef306cfef1c064daeba03f0838e8332",
      "networkId": 0,
      "chainId": 0
    }
  ]
}