{
  "hash": "0xea395e045ca0d28ee4098a7e8360d129be75fd113c36c40d541c62c338ced231",
  "parentHash": "0x20b7a19c0bf48fcfa810f11f5d75a8082b88cdde66479286145f45bf582236f9",
  "number": 59779,
  "timestamp": 1439143509,
  "nonce": "0xbf1239614786b69c",
  "difficulty": 1715486925780,
  "gasLimit": {
    "_hex": "0x2fefd8"
  },
  "gasUsed": {
    "_hex": "0x186a0"
  },
  "miner": "0xEF247E639d49461D25F57e9362CadE3120910Ce0",
  "extraData": "0x476574682f76312e302e312f6c696e75782f676f312e342e32",
  "transactions": [
    {
      "hash": "0x5c04519d0eac508b4acb79f7630edf9784d322a8d88d04d4a92b17ce470183a2",
      "blockHash": "0xea395e045ca0d28ee4098a7e8360d129be75fd113c36c40d541c62c338ced231",
      "blockNumber": 59779,
      "transactionIndex": 0,
      "confirmations": null,
      "from": "0x073f70b5bfAde6409E4951EF72BC8F4157677729",
      "gasPrice": {
        "_hex": "0xd137778d2"
      },
      "gasLimit": {
        "_hex": "0x186a0"
      },
      "to": "0x9Ed1a2bc358C216483b6D52b9C404B766E2c87c0",
      "value": {
        "_hex": "0x0"
      },
      "nonce": 20,
      "data": "0x63bd1d4a",
      "r": "0x7d84fcef9b2b7920342bcaa37d0666b55e16671a94d37ba162d0a296ec1f0b17",
      "s": "0x344e08a2c0b7d3a47f4941cfabb1dab72bf63bf5d79f69913a75abba11885322",
      "v": 28,
      "creates": null,
      "raw": "0xf86914850d137778d2830186a0949ed1a2bc358c216483b6d52b9c404b766e2c87c0808463bd1d4a1ca07d84fcef9b2b7920342bcaa37d0666b55e16671a94d37ba162d0a296ec1f0b17a0344e08a2c0b7d3a47f4941cfabb1dab72bf63bf5d79f69913a75abba11885322",
      "networkId": 0,
      "chainId": 0
    }
  ]
}