{
  "hash": "0xa9022770bf5fa6b7d70ecdd800bbc955619ffbc45e79143bf653d1d30274f1d6",
  "parentHash": "0x3c8f05852eaaae0921bd2750cc904e64aef25d2506267e06a19c5409e680ea60",
  "number": 119938,
  "timestamp": 1440151098,
  "nonce": "0xe1fa3a83dd814eee",
  "difficulty": 4428637308259,
  "gasLimit": {
    "_hex": "0x2fefd8"
  },
  "gasUsed": {
    "_hex": "0x5208"
  },
  "miner": "0x580992B51e3925e23280EfB93d3047C82f17E038",
  "extraData": "0x",
  "transactions": [
    {
      "hash": "0x02381534ff3eaf7204bf0418e2fb998a6cdc4cbef37bfed278f56b2e7cdfeee9",
      "blockHash": "0xa9022770bf5fa6b7d70ecdd800bbc955619ffbc45e79143bf653d1d30274f1d6",
      "blockNumber": 119938,
      "transactionIndex": 0,
      "confirmations": null,
      "from": "0x608f4b86321a68453f9adf6F06F7Fc3E621739ad",
      "gasPrice": {
        "_hex": "0xba43b7400"
      },
      "gasLimit": {
        "_hex": "0x5208"
      },
      "to": "0x32Be343B94f860124dC4fEe278FDCBD38C102D88",
      "value": {
        "_hex": "0x455fd68a17f06000"
      },
      "nonce": 49,
      "data": "0x",
      "r": "0x7395a9ed13513d22a3b5fce83dcd02e355b139acaecc1a44b74c03a022ce682f",
      "s": "0x4777322830d358670ff3f233941c2c634b30680c1a451bcb1846834876e8a910",
      "v": 28,
      "creates": null,
      "raw": "0xf86c31850ba43b74008252089432be343b94f860124dc4fee278fdcbd38c102d8888455fd68a17f06000801ca07395a9ed13513d22a3b5fce83dcd02e355b139acaecc1a44b74c03a022ce682fa04777322830d358670ff3f233941c2c634b30680c1a451bcb1846834876e8a910",
      "networkId": 0,
      "chainId": 0
    }
  ]
}