{
  "hash": "0xab3f17fd326599116f7b591bc870ce47459f077346fc90dd6fdc20055a77519d",
  "parentHash": "0x6a60d5349d308c9b996e2d6fe1b369e7503599e9407871898dbf9852f23fb581",
  "number": 82139,
  "timestamp": 1439514339,
  "nonce": "0xca615f520741d087",
  "difficulty": 2382347046292,
  "gasLimit": {
    "_hex": "0x2fefd8"
  },
  "gasUsed": {
    "_hex": "0x546c"
  },
  "miner": "0x7E6930B63D03e88F5928C5cd6ee3FCee4D714F7F",
  "extraData": "0x",
  "transactions": [
    {
      "hash": "0x56f1ca7cceb10f0e79720bf10a1e68127926d316afb695fb61b5463dc78c467a",
      "blockHash": "0xab3f17fd326599116f7b591bc870ce47459f077346fc90dd6fdc20055a77519d",
      "blockNumber": 82139,
      "transactionIndex": 0,
      "confirmations": null,
      "from": "0x08d0864DC32f9ACb36bF4EA447E8DD6726906a15",
      "gasPrice": {
        "_hex": "0x110c8f7d8de"
      },
      "gasLimit": {
        "_hex": "0xc350"
      },
      "to": "0x2910543Af39abA0Cd09dBb2D50200b3E800A63D2",
      "value": {
        "_hex": "0x6c6cf6a1041aca0000"
      },
      "nonce": 0,
      "data": "0x454e394d54394b4b30",
      "r": "0x3e30ccbbfea9bacfc4111da0f1c4870a2924189b98efe72ef2a0d7c55a103a7e",
      "s": "0xdfa5e85417ebe2e8ce0c3cb983cbd0cb63a2ca74794ea7a61f5c52041f5d0062",
      "v": 27,
      "creates": null,
      "raw": "0xf87780860110c8f7d8de82c350942910543af39aba0cd09dbb2d50200b3e800a63d2896c6cf6a1041aca000089454e394d54394b4b301ba03e30ccbbfea9bacfc4111da0f1c4870a2924189b98efe72ef2a0d7c55a103a7ea0dfa5e85417ebe2e8ce0c3cb983cbd0cb63a2ca74794ea7a61f5c52041f5d0062",
      "networkId": 0,
      "chainId": 0
    }
  ]
}