{
  "hash": "0xe73ba20c986caf5860ffae3de14d7811041795f51d01952754dc8e5672b05b43",
  "parentHash": "0x9a1c287f7bfd9a285af4efd4a915251a0d3aa69ccdaefaf61e6b33c98635a313",
  "number": 97189,
  "timestamp": 1439752320,
  "nonce": "0xb924bc7e5c010480",
  "difficulty": 3759552387268,
  "gasLimit": {
    "_hex": "0x2fefd8"
  },
  "gasUsed": {
    "_hex": "0xf618"
  },
  "miner": "0x87898CE53471043FcCa0a2aF4E1dC6d8B3fCf607",
  "extraData": "0x476574682f5369626572696131392f76312e302e312d39393231366634612f6c",
  "transactions": [
    {
      "hash": "0x9b43ba95847f48bbe7cb21d18ed0ad0e3c91c3e67447364df3f6984cfe862715",
      "blockHash": "0xe73ba20c986caf5860ffae3de14d7811041795f51d01952754dc8e5672b05b43",
      "blockNumber": 97189,
      "transactionIndex": 0,
      "confirmations": null,
      "from": "0x120A270bbC009644e35F0bB6ab13f95b8199c4ad",
      "gasPrice": {
        "_hex": "0xd0a8fac77"
      },
      "gasLimit": {
        "_hex": "0x3d090"
      },
      "to": "0xA8a1B4d1070d54aDB24318EE8bA071892F1F8500",
      "value": {
        "_hex": "0x3a8055dc17d846000"
      },
      "nonce": 638,
      "data": "0x",
      "r": "0x2d61e6230c34ba86f2112c5875b0c966188fd3ccec201d7be9f6dbe52519fbe6",
      "s": "0x79a80b393fb65ad7c1bf8c8f4047c01d739ed45967b8156cf8e2095de991d306",
      "v": 28,
      "creates": null,
      "raw": "0xf87082027e850d0a8fac778303d09094a8a1b4d1070d54adb24318ee8ba071892f1f85008903a8055dc17d846000801ca02d61e6230c34ba86f2112c5875b0c966188fd3ccec201d7be9f6dbe52519fbe6a079a80b393fb65ad7c1bf8c8f4047c01d739ed45967b8156cf8e2095de991d306",
      "networkId": 0,
      "chainId": 0
    },
    {
      "hash": "0xbf99d9768c34d1511188ea194c42d7e4e0376d16c9418cdd978eb6bdb6d0fe07",
      "blockHash": "0xe73ba20c986caf5860ffae3de14d7811041795f51d01952754dc8e5672b05b43",
      "blockNumber": 97189,
      "transactionIndex": 1,
      "confirmations": null,
      "from": "0x120A270bbC009644e35F0bB6ab13f95b8199c4ad",
      "gasPrice": {
        "_hex": "0xd0a8fac77"
      },
      "gasLimit": {
        "_hex": "0x3d090"
      },
      "to": "0x36B33F21Ba59c53E3502E52b8e0a7fD311215FFd",
      "value": {
        "_hex": "0x25a34ee3d33bcd2800"
      },
      "nonce": 639,
      "data": "0x",
      "r": "0x9e47d7e94569eb0c9915e9f5f500892c87642963c581dd41ea0937b50e8aeb78",
      "s": "0x42d15178341195cb150f7eec394f739c42c9ca60746e13cc06c87fb7b077eef4",
      "v": 28,
      "creates": null,
      "raw": "0xf87082027f850d0a8fac778303d0909436b33f21ba59c53e3502e52b8e0a7fd311215ffd8925a34ee3d33bcd2800801ca09e47d7e94569eb0c9915e9f5f500892c87642963c581dd41ea0937b50e8aeb78a042d15178341195cb150f7eec394f739c42c9ca60746e13cc06c87fb7b077eef4",
      "networkId": 0,
      "chainId": 0
    },
    {
      "hash": "0x6286314ce285e4bd8d9edaa540124fddf990c069ef1a77bc03b2488509e89b68",
      "blockHash": "0xe73ba20c986caf5860ffae3de14d7811041795f51d01952754dc8e5672b05b43",
      "blockNumber": 97189,
      "transactionIndex": 2,
      "confirmations": null,
      "from": "0x120A270bbC009644e35F0bB6ab13f95b8199c4ad",
      "gasPrice": {
        "_hex": "0xce767fb20"
      },
      "gasLimit": {
        "_hex": "0x3d090"
      },
      "to": "0xf6FC17A34bc34A0B30CecACEe3A3eDDBDB926B24",
      "value": {
        "_hex": "0x247db510ca4534b800"
      },
      "nonce": 640,
      "data": "0x",
      "r": "0xa7e1fad440904f5e6c9139777ea9a02e35b6b789b20e4434682ebd8ed51ddab2",
      "s": "0x40fca417fa5079ae27cf2fbf5eae248bc6b768cd44763aac78bc003460a9f4f9",
      "v": 28,
      "creates": null,
      "raw": "0xf870820280850ce767fb208303d09094f6fc17a34bc34a0b30cecacee3a3eddbdb926b2489247db510ca4534b800801ca0a7e1fad440904f5e6c9139777ea9a02e35b6b789b20e4434682ebd8ed51ddab2a040fca417fa5079ae27cf2fbf5eae248bc6b768cd44763aac78bc003460a9f4f9",
      "networkId": 0,
      "chainId": 0
    }
  ]
}