{
  "hash": "0xaff282c64c4c25eed313dcc8f3d4d9d2d85bae27a61da37c18d2740d31d520af",
  "parentHash": "0xdeff33df54d937404c75f8d5bf85f9f011bb1a5e4ce3a9dff268bdd1659db1fc",
  "number": 81426,
  "timestamp": 1439501522,
  "nonce": "0x146101ed50eac618",
  "difficulty": 2449792152742,
  "gasLimit": {
    "_hex": "0x2fefd8"
  },
  "gasUsed": {
    "_hex": "0x1334d"
  },
  "miner": "0x457C428117c1b8507111392d50876A9D548a6D36",
  "extraData": "0x476574682f76312e302e312f6c696e75782f676f312e342e32",
  "transactions": [
    {
      "hash": "0xe81e3c9f63af218eeeb14c574da6712caa19a0b951b7c2c28358c31714dffeb5",
      "blockHash": "0xaff282c64c4c25eed313dcc8f3d4d9d2d85bae27a61da37c18d2740d31d520af",
      "blockNumber": 81426,
      "transactionIndex": 0,
      "confirmations": null,
      "from": "0x775e18be7A50a0Abb8A4e82B1bD697D79F31fE04",
      "gasPrice": {
        "_hex": "0xd69b48315"
      },
      "gasLimit": {
        "_hex": "0xf4240"
      },
      "to": "0xde0B295669a9FD93d5F28D9Ec85E40f4cb697BAe",
      "value": {
        "_hex": "0x0"
      },
      "nonce": 6,
      "data": "0xf00d4b5d0000000000000000000000007c56d94ebeccb769524379c450873519a9d805ff0000000000000000000000000037a6b811ffeb6e072da21179d11b1406371c63",
      "r": "0xc49b492db69dbe458e7b6e501996114ce761507053022f13ac0b28ef2be4da3e",
      "s": "0x065338be998981f478dffd242719e0debf56acd36b8ed6efc0bca3ab24ce3789",
      "v": 28,
      "creates": null,
      "raw": "0xf8aa06850d69b48315830f424094de0b295669a9fd93d5f28d9ec85e40f4cb697bae80b844f00d4b5d0000000000000000000000007c56d94ebeccb769524379c450873519a9d805ff0000000000000000000000000037a6b811ffeb6e072da21179d11b1406371c631ca0c49b492db69dbe458e7b6e501996114ce761507053022f13ac0b28ef2be4da3ea0065338be998981f478dffd242719e0debf56acd36b8ed6efc0bca3ab24ce3789",
      "networkId": 0,
      "chainId": 0
    },
    {
      "hash": "0xb3e2b4b4ce0b6f26ab120df430242c493ab6a2ee33862091ec26b7d22dfb3b36",
      "blockHash": "0xaff282c64c4c25eed313dcc8f3d4d9d2d85bae27a61da37c18d2740d31d520af",
      "blockNumber": 81426,
      "transactionIndex": 1,
      "confirmations": null,
      "from": "0x32Be343B94f860124dC4fEe278FDCBD38C102D88",
      "gasPrice": {
        "_hex": "0xd48a16d03"
      },
      "gasLimit": {
        "_hex": "0x5208"
      },
      "to": "0x566B3E44014f2a2587e054AdFA915861AE82Fe39",
      "value": {
        "_hex": "0x23e8d25ae4b052000"
      },
      "nonce": 597,
      "data": "0x",
      "r": "0x5fca65212618c77a406b31c3025c439922f9ca6b85160cbf7d85032467fd5917",
      "s": "0x766318fa31320b07c790d4ac7fb96cb92bb2e269194dbae539f2abdc2344d69b",
      "v": 28,
      "creates": null,
      "raw": "0xf86f820255850d48a16d0382520894566b3e44014f2a2587e054adfa915861ae82fe3989023e8d25ae4b052000801ca05fca65212618c77a406b31c3025c439922f9ca6b85160cbf7d85032467fd5917a0766318fa31320b07c790d4ac7fb96cb92bb2e269194dbae539f2abdc2344d69b",
      "networkId": 0,
      "chainId": 0
    },
    {
      "hash": "0x3b1ef051686ebe7483b301625b7553c7c4d4b709b394ccbd917898254f32d69b",
      "blockHash": "0xaff282c64c4c25eed313dcc8f3d4d9d2d85bae27a61da37c18d2740d31d520af",
      "blockNumber": 81426,
      "transactionIndex": 2,
      "confirmations": null,
      "from": "0x0D4EcC7d750180EBf4A9Df728B6669B5Bceb5E40",
      "gasPrice": {
        "_hex": "0xd48a16d03"
      },
      "gasLimit": {
        "_hex": "0x5208"
      },
      "to": "0x32Be343B94f860124dC4fEe278FDCBD38C102D88",
      "value": {
        "_hex": "0x478a6c619e27f400"
      },
      "nonce": 11,
      "data": "0x",
      "r": "0x7403229e864f2fc63223b3a38ff4002c615358c03b1f7adcf253e8e353c725a6",
      "s": "0x7f3c73897ed1887c24a22dcaaee78e2df31032d1e2c8d9f7939faf8df8e94e89",
      "v": 28,
      "creates": null,
      "raw": "0xf86c0b850d48a16d038252089432be343b94f860124dc4fee278fdcbd38c102d8888478a6c619e27f400801ca07403229e864f2fc63223b3a38ff4002c615358c03b1f7adcf253e8e353c725a6a07f3c73897ed1887c24a22dcaaee78e2df31032d1e2c8d9f7939faf8df8e94e89",
      "networkId": 0,
      "chainId": 0
    }
  ]
}