{
  "hash": "0xc76d7bff742c642b62101c2660e3c7aaa8525a4a5a1b4677c4cf29dfa4cdee49",
  "parentHash": "0x1578c527df965aea529fd9bfa90f2c4ed50d9842e51d22d7a8b1c68a0c29d8c9",
  "number": 48597,
  "timestamp": 1438959674,
  "nonce": "0xe3581e588f93edbb",
  "difficulty": 1467856811494,
  "gasLimit": {
    "_hex": "0x1a339"
  },
  "gasUsed": {
    "_hex": "0x546c"
  },
  "miner": "0x88D74a59454F6cF3B51ef6b9136AFb6b9D405A88",
  "extraData": "0x476574682f76312e302e302d66633739643332642f6c696e75782f676f312e34",
  "transactions": [
    {
      "hash": "0x08f7a10a47b8412b2d0f438fb04ea006a47af8a37cb425e50321200a632df7f7",
      "blockHash": "0xc76d7bff742c642b62101c2660e3c7aaa8525a4a5a1b4677c4cf29dfa4cdee49",
      "blockNumber": 48597,
      "transactionIndex": 0,
      "confirmations": null,
      "from": "0xFc39Be41094b1997D2169E8264c2C3BAA6c99bc4",
      "gasPrice": {
        "_hex": "0x1105bbdfd69"
      },
      "gasLimit": {
        "_hex": "0x61a8"
      },
      "to": "0x2910543Af39abA0Cd09dBb2D50200b3E800A63D2",
      "value": {
        "_hex": "0x2086ac351052600000"
      },
      "nonce": 3,
      "data": "0x454e3337314a4d5838",
      "r": "0x142c7e61b24ce2d709121652814e10115432db0434976df4395d3658870847b8",
      "s": "0x59dbc801c7da172bdc91cc9d5cdc129b522cdccd94fb91ae1f05977079951caf",
      "v": 27,
      "creates": null,
      "raw": "0xf877038601105bbdfd698261a8942910543af39aba0cd09dbb2d50200b3e800a63d2892086ac35105260000089454e3337314a4d58381ba0142c7e61b24ce2d709121652814e10115432db0434976df4395d3658870847b8a059dbc801c7da172bdc91cc9d5cdc129b522cdccd94fb91ae1f05977079951caf",
      "networkId": 0,
      "chainId": 0
    }
  ]
}