{
  "hash": "0xf93283571ae16dcecbe1816adc126954a739350cd1523a1559eabeae155fbb63",
  "parentHash": "0x73d88d376f6b4d232d70dc950d9515fad3b5aa241937e362fdbfd74d1c901781",
  "number": 100004,
  "timestamp": 1439799168,
  "nonce": "0x1a455280001cc3f8",
  "difficulty": 3849295379889,
  "gasLimit": {
    "_hex": "0x2fefd8"
  },
  "gasUsed": {
    "_hex": "0x5208"
  },
  "miner": "0x909755D480A27911cB7EeeB5edB918fae50883c0",
  "extraData": "0x476574682f76312e302e312d39383130306634372f6c696e75782f676f312e34",
  "transactions": [
    {
      "hash": "0x6f12399cc2cb42bed5b267899b08a847552e8c42a64f5eb128c1bcbd1974fb0c",
      "blockHash": "0xf93283571ae16dcecbe1816adc126954a739350cd1523a1559eabeae155fbb63",
      "blockNumber": 100004,
      "transactionIndex": 0,
      "confirmations": null,
      "from": "0xcf00A85f3826941e7A25BFcF9Aac575d40410852",
      "gasPrice": {
        "_hex": "0xcb5bea614"
      },
      "gasLimit": {
        "_hex": "0x15f90"
      },
      "to": "0xD9666150A9dA92d9108198a4072970805a8B3428",
      "value": {
        "_hex": "0x4563918244f40000"
      },
      "nonce": 25,
      "data": "0x",
      "r": "0xb23adc880d3735e4389698dddc953fb02f1fa9b57e84d3510a2a4b3597ac2486",
      "s": "0x4e856f95c4e2828933246fb4765a5bfd2ca5959840643bef0e80b4e3a243d064",
      "v": 27,
      "creates": null,
      "raw": "0xf86d19850cb5bea61483015f9094d9666150a9da92d9108198a4072970805a8b3428884563918244f40000801ba0b23adc880d3735e4389698dddc953fb02f1fa9b57e84d3510a2a4b3597ac2486a04e856f95c4e2828933246fb4765a5bfd2ca5959840643bef0e80b4e3a243d064",
      "networkId": 0,
      "chainId": 0
    }
  ]
}