{
  "hash": "0xe61904cd54a264c0354083a6be8fc33288ac4ee5719950d49486f4c0ef35e9f7",
  "parentHash": "0x7882ae86836d4aa25316a2323477cbcc4ffed66c8e2f8a9657e752b35e585588",
  "number": 100106,
  "timestamp": 1439800752,
  "nonce": "0xe42193bec8b92a8d",
  "difficulty": 3845491378006,
  "gasLimit": {
    "_hex": "0x2fefd8"
  },
  "gasUsed": {
    "_hex": "0xa410"
  },
  "miner": "0x790b8a3cE86E707ED0eD32bF89B3269692a23CC1",
  "extraData": "0xd783010001844765746887676f312e342e32856c696e7578",
  "transactions": [
    {
      "hash": "0x959758d9fafbcb56836bac627d99e841222b1e38332243671a52a5f4a8c16d23",
      "blockHash": "0xe61904cd54a264c0354083a6be8fc33288ac4ee5719950d49486f4c0ef35e9f7",
      "blockNumber": 100106,
      "transactionIndex": 0,
      "confirmations": null,
      "from": "0x2910543Af39abA0Cd09dBb2D50200b3E800A63D2",
      "gasPrice": {
        "_hex": "0xd731036ac"
      },
      "gasLimit": {
        "_hex": "0x5208"
      },
      "to": "0x63524E3fe4791aeFcE1e932BBfB3FDF375bfaD89",
      "value": {
        "_hex": "0x2b5d1eb9d79a78000"
      },
      "nonce": 949,
      "data": "0x",
      "r": "0x0223adeee9f851bbcfe702658b8f71d32357c3ff89611634b7087888142f2424",
      "s": "0x6274354c35db16725fb7be774a679a57bcde896f63d8245d353265033f481325",
      "v": 27,
      "creates": null,
      "raw": "0xf86f8203b5850d731036ac8252089463524e3fe4791aefce1e932bbfb3fdf375bfad898902b5d1eb9d79a78000801ba00223adeee9f851bbcfe702658b8f71d32357c3ff89611634b7087888142f2424a06274354c35db16725fb7be774a679a57bcde896f63d8245d353265033f481325",
      "networkId": 0,
      "chainId": 0
    },
    {
      "hash": "0xf0bf7a5508138e53be6e1173fa09d4d0ee2c3231eb3162d0f494efd6d8868460",
      "blockHash": "0xe61904cd54a264c0354083a6be8fc33288ac4ee5719950d49486f4c0ef35e9f7",
      "blockNumber": 100106,
      "transactionIndex": 1,
      "confirmations": null,
      "from": "0xc3DBDB3Efa722db2a3F6041b0ca0042782296ba9",
      "gasPrice": {
        "_hex": "0xd641f460d"
      },
      "gasLimit": {
        "_hex": "0x15f90"
      },
      "to": "0x92857A8BC0A6F66180324f49541C695A3a0Ff944",
      "value": {
        "_hex": "0x2ed6689e54f180000"
      },
      "nonce": 6,
      "data": "0x",
      "r": "0x3e6c629d7e9775fd3673dcf5b4c6de6ffbaf9f402b080b0c804883abd7dc44aa",
      "s": "0x7a2507b98fd75d93d94b3ef56164f46e7920d49dba8a8ce42a75ede1878c739f",
      "v": 28,
      "creates": null,
      "raw": "0xf86e06850d641f460d83015f909492857a8bc0a6f66180324f49541c695a3a0ff9448902ed6689e54f180000801ca03e6c629d7e9775fd3673dcf5b4c6de6ffbaf9f402b080b0c804883abd7dc44aaa07a2507b98fd75d93d94b3ef56164f46e7920d49dba8a8ce42a75ede1878c739f",
      "networkId": 0,
      "chainId": 0
    }
  ]
}