{
  "hash": "0x367da3b58a780633866c974ecef30c9f21030aae97a1c5fe80d79b5ccf8b4034",
  "parentHash": "0x38eb9b10b1bd589954f33f74e27046180ebfbb03b7b2d642989ed9c2357f84a2",
  "number": 112184,
  "timestamp": 1440003282,
  "nonce": "0x9bd252cc4b4ae883",
  "difficulty": 4389655080078,
  "gasLimit": {
    "_hex": "0x2fefd8"
  },
  "gasUsed": {
    "_hex": "0x5208"
  },
  "miner": "0x2134e2a2b718DCa96580ECAC31E653Ea1fdd58DA",
  "extraData": "0x476574682f76312e302e312f77696e646f77732f676f312e342e32",
  "transactions": [
    {
      "hash": "0x3e16795a32c2f896ae73a0d36e6d5a9b3b5601520da889d306cb838d2ef2486a",
      "blockHash": "0x367da3b58a780633866c974ecef30c9f21030aae97a1c5fe80d79b5ccf8b4034",
      "blockNumber": 112184,
      "transactionIndex": 0,
      "confirmations": null,
      "from": "0x32Be343B94f860124dC4fEe278FDCBD38C102D88",
      "gasPrice": {
        "_hex": "0xd62b24c4c"
      },
      "gasLimit": {
        "_hex": "0x5208"
      },
      "to": "0xecA283125c3d55ebDbB1006592B05d43C03A3fc0",
      "value": {
        "_hex": "0x4563918244f40000"
      },
      "nonce": 1332,
      "data": "0x",
      "r": "0xeefa1af5f34e6a11de44ad69d262800daf3754f2ae28c8ca2d13ca29ff77d127",
      "s": "0x0e0dac0c40de52df82b170d8780c14981bb80efe197a6a81bb3e49d799b563c0",
      "v": 27,
      "creates": null,
      "raw": "0xf86e820534850d62b24c4c82520894eca283125c3d55ebdbb1006592b05d43c03a3fc0884563918244f40000801ba0eefa1af5f34e6a11de44ad69d262800daf3754f2ae28c8ca2d13ca29ff77d127a00e0dac0c40de52df82b170d8780c14981bb80efe197a6a81bb3e49d799b563c0",
      "networkId": 0,
      "chainId": 0
    }
  ]
}