{
  "hash": "0x1b57f0627c7f0863d9bbf19a6467560b77a84fcbe46c96cada1c3c09148bdbb3",
  "parentHash": "0x0c118bda38a8969da4ad8b1e1b09f617beeb73a18fb73caeef0c6a3a105aa02b",
  "number": 88484,
  "timestamp": 1439608671,
  "nonce": "0x525e10ff0260fa21",
  "difficulty": 3239552703361,
  "gasLimit": {
    "_hex": "0x2fefd8"
  },
  "gasUsed": {
    "_hex": "0x5208"
  },
  "miner": "0x33b01a7fe4A1a5F774Bb73f89A4eF15a6Ffe1141",
  "extraData": "0x476574682f76312e302e312f6c696e75782f676f312e342e32",
  "transactions": [
    {
      "hash": "0xf9971b24503bc1c91f08cc583787eeb282409558454d91e2027202e645e5f926",
      "blockHash": "0x1b57f0627c7f0863d9bbf19a6467560b77a84fcbe46c96cada1c3c09148bdbb3",
      "blockNumber": 88484,
      "transactionIndex": 0,
      "confirmations": null,
      "from": "0x69048A3936163C3A034f41d8473E7662aC919257",
      "gasPrice": {
        "_hex": "0xda5121930"
      },
      "gasLimit": {
        "_hex": "0x5208"
      },
      "to": "0x32Be343B94f860124dC4fEe278FDCBD38C102D88",
      "value": {
        "_hex": "0xfe39c668055bc0000"
      },
      "nonce": 0,
      "data": "0x",
      "r": "0x0d78b3c5289c53be87d7a6e9464dd3d2728c2302d5ff5338e71cea4fb0bf3c4b",
      "s": "0x2247485b4bf9f2c1d6509ac91eee2ef96699df93e54d8cf78c2ae2a9cfc20b1d",
      "v": 27,
      "creates": null,
      "raw": "0xf86d80850da51219308252089432be343b94f860124dc4fee278fdcbd38c102d88890fe39c668055bc0000801ba00d78b3c5289c53be87d7a6e9464dd3d2728c2302d5ff5338e71cea4fb0bf3c4ba02247485b4bf9f2c1d6509ac91eee2ef96699df93e54d8cf78c2ae2a9cfc20b1d",
      "networkId": 0,
      "chainId": 0
    }
  ]
}