{
  "hash": "0xd316f9598dc9db13b1bcd1f785e93ae83a89669a4d465a92884aee784a7463f9",
  "parentHash": "0x03581e36c4f3b946692df31fe7d1eaa92b93aa14f704f6b153f988a14e88f769",
  "number": 96410,
  "timestamp": 1439739957,
  "nonce": "0x2dba14c8aedf96bd",
  "difficulty": 3663847629546,
  "gasLimit": {
    "_hex": "0x2fefd8"
  },
  "gasUsed": {
    "_hex": "0x5208"
  },
  "miner": "0xA21Ba94e45f0E168dA824fC67aC9cb5Cb577a8aF",
  "extraData": "0x",
  "transactions": [
    {
      "hash": "0x30dd237c9e0333939458595396b6e456bd2330d3ca1b5ab49ed8061a3f9ff51a",
      "blockHash": "0xd316f9598dc9db13b1bcd1f785e93ae83a89669a4d465a92884aee784a7463f9",
      "blockNumber": 96410,
      "transactionIndex": 0,
      "confirmations": null,
      "from": "0x32Be343B94f860124dC4fEe278FDCBD38C102D88",
      "gasPrice": {
        "_hex": "0xd4f9148b7"
      },
      "gasLimit": {
        "_hex": "0x5208"
      },
      "to": "0xE6bB3eBBC072DF39f1ffB1c270a7913A9092716D",
      "value": {
        "_hex": "0x83019dfc17b0000"
      },
      "nonce": 1004,
      "data": "0x",
      "r": "0x5b406b522a3ab48020556e79d5172995049982957bf342b86930a035eb350dfa",
      "s": "0x11bdedf9bb7aed7d25f3f299bf1b0333044cd8fdae3f90f3fb28b336dd8f9927",
      "v": 27,
      "creates": null,
      "raw": "0xf86e8203ec850d4f9148b782520894e6bb3ebbc072df39f1ffb1c270a7913a9092716d88083019dfc17b0000801ba05b406b522a3ab48020556e79d5172995049982957bf342b86930a035eb350dfaa011bdedf9bb7aed7d25f3f299bf1b0333044cd8fdae3f90f3fb28b336dd8f9927",
      "networkId": 0,
      "chainId": 0
    }
  ]
}