{
  "hash": "0xb3a067f44b428c847f9925cc27d1d3bece69be349663aece13efbef8a62a01e9",
  "parentHash": "0x1c85e7e01cd5abae44a577f1dac275bcb95564bba4b2666e85947929dc80cddb",
  "number": 63447,
  "timestamp": 1439204534,
  "nonce": "0xc1b087e999c81075",
  "difficulty": 1839644245122,
  "gasLimit": {
    "_hex": "0x2fefd5"
  },
  "gasUsed": {
    "_hex": "0xa410"
  },
  "miner": "0x88D74a59454F6cF3B51ef6b9136AFb6b9D405A88",
  "extraData": "0x476574682f76312e302e312d37666266393930632f6c696e75782f676f312e34",
  "transactions": [
    {
      "hash": "0xfc8bc55da188762dac5c05ea6acbbe13b1017ee18ecfce90805572d272772fb6",
      "blockHash": "0xb3a067f44b428c847f9925cc27d1d3bece69be349663aece13efbef8a62a01e9",
      "blockNumber": 63447,
      "transactionIndex": 0,
      "confirmations": null,
      "from": "0x120A270bbC009644e35F0bB6ab13f95b8199c4ad",
      "gasPrice": {
        "_hex": "0xccfcf6459"
      },
      "gasLimit": {
        "_hex": "0x15f90"
      },
      "to": "0xE6d0921e5Fa957a2f6f805946F18AC91E3253a52",
      "value": {
        "_hex": "0x1b1fee736a41e43c00"
      },
      "nonce": 100,
      "data": "0x",
      "r": "0xb547065531fc1a5c0a34b9a9a8668cada5b0ce9edbf72ff5b32cf09c83b7f842",
      "s": "0x0718eb15b35b3b6275cef809e4033731dcb30fd20a232682f619a25daec6d568",
      "v": 28,
      "creates": null,
      "raw": "0xf86e64850ccfcf645983015f9094e6d0921e5fa957a2f6f805946f18ac91e3253a52891b1fee736a41e43c00801ca0b547065531fc1a5c0a34b9a9a8668cada5b0ce9edbf72ff5b32cf09c83b7f842a00718eb15b35b3b6275cef809e4033731dcb30fd20a232682f619a25daec6d568",
      "networkId": 0,
      "chainId": 0
    },
    {
      "hash": "0xbf87807e1409ad4dc5f38dc06cf3d6fa6ae18336e1a9623ca16fbaf729e1f0d8",
      "blockHash": "0xb3a067f44b428c847f9925cc27d1d3bece69be349663aece13efbef8a62a01e9",
      "blockNumber": 63447,
      "transactionIndex": 1,
      "confirmations": null,
      "from": "0x120A270bbC009644e35F0bB6ab13f95b8199c4ad",
      "gasPrice": {
        "_hex": "0xccfcf6459"
      },
      "gasLimit": {
        "_hex": "0x15f90"
      },
      "to": "0x3F17fFb99f0518a3d0ff3fAEd1F55e93336A33B0",
      "value": {
        "_hex": "0x470de4df820000"
      },
      "nonce": 101,
      "data": "0x",
      "r": "0x74805e6854b493e46aba093a0c234b439c9c646106f9e6cd48725806aa3ffb43",
      "s": "0x2502b3b894af569530553390e55183c199aa297e3f1181711b14a542800528c8",
      "v": 27,
      "creates": null,
      "raw": "0xf86c65850ccfcf645983015f90943f17ffb99f0518a3d0ff3faed1f55e93336a33b087470de4df820000801ba074805e6854b493e46aba093a0c234b439c9c646106f9e6cd48725806aa3ffb43a02502b3b894af569530553390e55183c199aa297e3f1181711b14a542800528c8",
      "networkId": 0,
      "chainId": 0
    }
  ]
}