{
  "hash": "0x0a07afae8121df0a59cb48438ab94cb6dc488e64f7bfa2fbe4c73f16229d270b",
  "parentHash": "0x861dda916dbb8b5f55627a3b9a65e66e1fe9409f0f5e11a3c4ed07fd1d2a7b89",
  "number": 68770,
  "timestamp": 1439293480,
  "nonce": "0x18ccc7f97f9313dc",
  "difficulty": 2018186594821,
  "gasLimit": {
    "_hex": "0x2fefd8"
  },
  "gasUsed": {
    "_hex": "0x5208"
  },
  "miner": "0x39A1BB80a741bF5EC39FB9BE59408Fa0F418fFBf",
  "extraData": "0x476574682f76312e302e312f77696e646f77732f676f312e342e32",
  "transactions": [
    {
      "hash": "0xe852701d359c88f98cab5e322a8f53a85b522c3fc481b1473429bfffd43b45c0",
      "blockHash": "0x0a07afae8121df0a59cb48438ab94cb6dc488e64f7bfa2fbe4c73f16229d270b",
      "blockNumber": 68770,
      "transactionIndex": 0,
      "confirmations": null,
      "from": "0xEF247E639d49461D25F57e9362CadE3120910Ce0",
      "gasPrice": {
        "_hex": "0xd93ac9cfa"
      },
      "gasLimit": {
        "_hex": "0x15f90"
      },
      "to": "0xF87481A262E993a75F791E7859E71BaC36A606Eb",
      "value": {
        "_hex": "0x1043561a8829300000"
      },
      "nonce": 12,
      "data": "0x",
      "r": "0x979d5ca19da8ebc9fe96416fe90511b6390c5c15aa9d87122db9ceced2bdc471",
      "s": "0x6714098be9999331b3f7f48c4368acfce4f7101701937082f3fd0138237c942e",
      "v": 28,
      "creates": null,
      "raw": "0xf86e0c850d93ac9cfa83015f9094f87481a262e993a75f791e7859e71bac36a606eb891043561a8829300000801ca0979d5ca19da8ebc9fe96416fe90511b6390c5c15aa9d87122db9ceced2bdc471a06714098be9999331b3f7f48c4368acfce4f7101701937082f3fd0138237c942e",
      "networkId": 0,
      "chainId": 0
    }
  ]
}