{
  "hash": "0x1e461a5e9f4111745a0e7bce5c070c667e5e3f8e989efc73e152f61a5658270a",
  "parentHash": "0x5ec28bcbffc6297edca731c88a7e573842461aca50c41da975a1d946f93d25e2",
  "number": 88905,
  "timestamp": 1439615257,
  "nonce": "0x1216996d2cdec5b6",
  "difficulty": 3250481202397,
  "gasLimit": {
    "_hex": "0x2fefd8"
  },
  "gasUsed": {
    "_hex": "0x546c"
  },
  "miner": "0xe6A7a1d47ff21B6321162AEA7C6CB457D5476Bca",
  "extraData": "0x476574682f76312e302e312d38326566323666362f6c696e75782f676f312e34",
  "transactions": [
    {
      "hash": "0xb34c940b4697234800ddd78864eae3fd24783e5b7d01c3a073320abbc7a50bd4",
      "blockHash": "0x1e461a5e9f4111745a0e7bce5c070c667e5e3f8e989efc73e152f61a5658270a",
      "blockNumber": 88905,
      "transactionIndex": 0,
      "confirmations": null,
      "from": "0x1c99fe9BB6C6D1066D912099547fd1f4809eACD9",
      "gasPrice": {
        "_hex": "0x9184e72a000"
      },
      "gasLimit": {
        "_hex": "0x55f0"
      },
      "to": "0xB0cD03bb231E2A3CaC6DB4f828440A6C4451e69D",
      "value": {
        "_hex": "0xd8d726b7177a80000"
      },
      "nonce": 2,
      "data": "0x454e334e5158585738",
      "r": "0x4f51018f58965538e756832003792b10ed519c59cf60aa033c93d13bccc65a17",
      "s": "0x4aeff996c87104251f6a9b308cd5df4096c9b4977306a0d1b7518e48f3e9ca94",
      "v": 27,
      "creates": null,
      "raw": "0xf877028609184e72a0008255f094b0cd03bb231e2a3cac6db4f828440a6c4451e69d890d8d726b7177a8000089454e334e51585857381ba04f51018f58965538e756832003792b10ed519c59cf60aa033c93d13bccc65a17a04aeff996c87104251f6a9b308cd5df4096c9b4977306a0d1b7518e48f3e9ca94",
      "networkId": 0,
      "chainId": 0
    }
  ]
}