{
  "hash": "0x0f5cec7b8a602bfa60942253b32aa167e51da59f8d9a5d6adb20136afc1e62f7",
  "parentHash": "0xc4a119a29e3a9919395b57f331cc83692eb29404e6934c424c1c36873586de70",
  "number": 77721,
  "timestamp": 1439441770,
  "nonce": "0x9a06e247766685f5",
  "difficulty": 2272228927418,
  "gasLimit": {
    "_hex": "0x2fefd8"
  },
  "gasUsed": {
    "_hex": "0x5208"
  },
  "miner": "0xe6A7a1d47ff21B6321162AEA7C6CB457D5476Bca",
  "extraData": "0x476574682f76312e302e312d38326566323666362f6c696e75782f676f312e34",
  "transactions": [
    {
      "hash": "0x366bdb0f345b70975f1ffbf3ce6e8fedd577397d5afe5a4201844adb369172ea",
      "blockHash": "0x0f5cec7b8a602bfa60942253b32aa167e51da59f8d9a5d6adb20136afc1e62f7",
      "blockNumber": 77721,
      "transactionIndex": 0,
      "confirmations": null,
      "from": "0x019D3FA6E3cdA649b26F74395A846575c7bEA14C",
      "gasPrice": {
        "_hex": "0xd829211eb"
      },
      "gasLimit": {
        "_hex": "0x15f90"
      },
      "to": "0x04a2a3ee9C9ea82e1F918ecE209f8A7E6d7521E7",
      "value": {
        "_hex": "0x1158e460913d00000"
      },
      "nonce": 2,
      "data": "0x",
      "r": "0xbdfc11acf1bf59f8eb0f42a3ab4b41d9f21a7b7169cd964185466512f6c41ce4",
      "s": "0x200f7afd128095317209ac00fac853135fa71fb179cf4f8540cb29bc56573e17",
      "v": 27,
      "creates": null,
      "raw": "0xf86e02850d829211eb83015f909404a2a3ee9c9ea82e1f918ece209f8a7e6d7521e78901158e460913d00000801ba0bdfc11acf1bf59f8eb0f42a3ab4b41d9f21a7b7169cd964185466512f6c41ce4a0200f7afd128095317209ac00fac853135fa71fb179cf4f8540cb29bc56573e17",
      "networkId": 0,
      "chainId": 0
    }
  ]
}