{
  "hash": "0x07a86dac395e586cb0c13772a88f36c4d7bd7adc62f89864448141b6cbcb14b0",
  "parentHash": "0x7982db7cb9e54ef4a67823579bc6e99ac633e6bc4282e3c54897c1088b0d24c9",
  "number": 119463,
  "timestamp": 1440143518,
  "nonce": "0xdc524152ee153fce",
  "difficulty": 4387989771131,
  "gasLimit": {
    "_hex": "0x2fefd8"
  },
  "gasUsed": {
    "_hex": "0x5208"
  },
  "miner": "0xe6A7a1d47ff21B6321162AEA7C6CB457D5476Bca",
  "extraData": "0xd783010002844765746887676f312e342e32856c696e7578",
  "transactions": [
    {
      "hash": "0x6bc5cc3acdf34f13b8d81bec9110348e7776fadba061e5dc39c049e19ba6529f",
      "blockHash": "0x07a86dac395e586cb0c13772a88f36c4d7bd7adc62f89864448141b6cbcb14b0",
      "blockNumber": 119463,
      "transactionIndex": 0,
      "confirmations": null,
      "from": "0x3F6DDbC103F2999640fe4AFc6884708fa691C2b8",
      "gasPrice": {
        "_hex": "0xba43b7400"
      },
      "gasLimit": {
        "_hex": "0x5208"
      },
      "to": "0x32Be343B94f860124dC4fEe278FDCBD38C102D88",
      "value": {
        "_hex": "0x2a60704e8b0f6c00"
      },
      "nonce": 9,
      "data": "0x",
      "r": "0x516e0f6c82a7ddc01f7b6bba1f00822d58661d6b9aac09802457a78ccad09862",
      "s": "0x4ac28ab2e4dbb31fb4a5353942ec535bb3445f7c5c81996d48bcd550cbd69c8b",
      "v": 28,
      "creates": null,
      "raw": "0xf86c09850ba43b74008252089432be343b94f860124dc4fee278fdcbd38c102d88882a60704e8b0f6c00801ca0516e0f6c82a7ddc01f7b6bba1f00822d58661d6b9aac09802457a78ccad09862a04ac28ab2e4dbb31fb4a5353942ec535bb3445f7c5c81996d48bcd550cbd69c8b",
      "networkId": 0,
      "chainId": 0
    }
  ]
}