{
  "hash": "0xe3c3b990316d0cc9371e8179013506596ab41980bdbb92f99fe6e0bb4af51935",
  "parentHash": "0x0f7378c9f30c40582e267ff810a974247cebd56037c689c3d99d176c5ecf29d9",
  "number": 68747,
  "timestamp": 1439293042,
  "nonce": "0xe5e1ed7db74bdcde",
  "difficulty": 2021150631023,
  "gasLimit": {
    "_hex": "0x2fefd8"
  },
  "gasUsed": {
    "_hex": "0xaec1"
  },
  "miner": "0xbb7B8287f3F0a933474a79eAe42CBCa977791171",
  "extraData": "0x476574682f4c5649562f76312e302e312f6c696e75782f676f312e342e32",
  "transactions": [
    {
      "hash": "0x5b32b85b0dd606ad641de27b45a55ee2df6c50092c202bf76d3e922cf1bc3b6d",
      "blockHash": "0xe3c3b990316d0cc9371e8179013506596ab41980bdbb92f99fe6e0bb4af51935",
      "blockNumber": 68747,
      "transactionIndex": 0,
      "confirmations": null,
      "from": "0xc8ebccC5F5689Fa8659d83713341e5aD19349448",
      "gasPrice": {
        "_hex": "0xd80358cc7"
      },
      "gasLimit": {
        "_hex": "0x61a80"
      },
      "to": "0x5Fe5B7546D1628f7348B023A0393de1FC825A4fD",
      "value": {
        "_hex": "0xde0b6b3a7640000"
      },
      "nonce": 40,
      "data": "0xb595b8b50000000000000000000000000000000000000000000000000000000000000001",
      "r": "0xc6c2cfacecea6ad60c11e21fc2ed9f1b6825758c6574eac380d27caca815a74b",
      "s": "0x318529c380f71bd47165cb2787746fe705baa9a9d7600fa69a621acafb5d0758",
      "v": 28,
      "creates": null,
      "raw": "0xf89128850d80358cc783061a80945fe5b7546d1628f7348b023a0393de1fc825a4fd880de0b6b3a7640000a4b595b8b500000000000000000000000000000000000000000000000000000000000000011ca0c6c2cfacecea6ad60c11e21fc2ed9f1b6825758c6574eac380d27caca815a74ba0318529c380f71bd47165cb2787746fe705baa9a9d7600fa69a621acafb5d0758",
      "networkId": 0,
      "chainId": 0
    }
  ]
}