{
  "hash": "0xd7bc52f4f1fdd3ba74a2361ded9e4adfd5cc1dff427bae7e5270eaac6c7513c3",
  "parentHash": "0xeb1afaa9288765e0b576b24d34e1e6fdc3d310f66dd963d256c80e938f95af93",
  "number": 120544,
  "timestamp": 1440161616,
  "nonce": "0x7834ab7627fb6223",
  "difficulty": 4436974901283,
  "gasLimit": {
    "_hex": "0x2fefd8"
  },
  "gasUsed": {
    "_hex": "0x5208"
  },
  "miner": "0x9D551f41feD6FC27B719777c224DfeCcE170004d",
  "extraData": "0x476574682f76312e302e322d61303330336666342f6c696e75782f676f312e34",
  "transactions": [
    {
      "hash": "0x362712fdbb6aa057c9c03777a35d59b125e1cedb5271b05b91d109688343c69f",
      "blockHash": "0xd7bc52f4f1fdd3ba74a2361ded9e4adfd5cc1dff427bae7e5270eaac6c7513c3",
      "blockNumber": 120544,
      "transactionIndex": 0,
      "confirmations": null,
      "from": "0x608f4b86321a68453f9adf6F06F7Fc3E621739ad",
      "gasPrice": {
        "_hex": "0xba43b7400"
      },
      "gasLimit": {
        "_hex": "0x5208"
      },
      "to": "0x32Be343B94f860124dC4fEe278FDCBD38C102D88",
      "value": {
        "_hex": "0x455fd68a17f06000"
      },
      "nonce": 71,
      "data": "0x",
      "r": "0xf3127fa389fb5795793df1e5a473b4d537b1a83fca3012d82d0561edad3332aa",
      "s": "0x7b0107bde58b7d140ce58e4b4a0e66612355e60a3e6810df987911ca5a4350d7",
      "v": 27,
      "creates": null,
      "raw": "0xf86c47850ba43b74008252089432be343b94f860124dc4fee278fdcbd38c102d8888455fd68a17f06000801ba0f3127fa389fb5795793df1e5a473b4d537b1a83fca3012d82d0561edad3332aaa07b0107bde58b7d140ce58e4b4a0e66612355e60a3e6810df987911ca5a4350d7",
      "networkId": 0,
      "chainId": 0
    }
  ]
}