{
  "hash": "0xe37e0e2a6b562059347790f5a9e87b731dfda313ea89608e7d7252f6ef86f8ab",
  "parentHash": "0x2cffaf123ef021a976d2b7859c00183fd9262bc42e765923f149a5a3fb7ac9ee",
  "number": 96187,
  "timestamp": 1439736387,
  "nonce": "0x1a897980f1654bd3",
  "difficulty": 3655010760903,
  "gasLimit": {
    "_hex": "0x2fefd5"
  },
  "gasUsed": {
    "_hex": "0xa410"
  },
  "miner": "0x1217627fe41A00f0b828317F43E6d58F47dBfc43",
  "extraData": "0x476574682f76312e302e302d66313265303136312f6c696e75782f676f312e34",
  "transactions": [
    {
      "hash": "0x5a7c10f8627ca6da73e8bbe1c22df4d79b5cccdae871b88c1f5a48155dc95f14",
      "blockHash": "0xe37e0e2a6b562059347790f5a9e87b731dfda313ea89608e7d7252f6ef86f8ab",
      "blockNumber": 96187,
      "transactionIndex": 0,
      "confirmations": null,
      "from": "0xF44F8551ACe933720712C5C491cDB6f2F951736C",
      "gasPrice": {
        "_hex": "0xd7d40ace3"
      },
      "gasLimit": {
        "_hex": "0x15f90"
      },
      "to": "0x032571e10DCD19b1B0441f8D5005ae09D39a7D08",
      "value": {
        "_hex": "0x8ac7230489e80000"
      },
      "nonce": 0,
      "data": "0x",
      "r": "0x1c5676dad01f6bc91433b3e71556f42558dd5ae15a00c06eff9fef228dcdde6e",
      "s": "0x08b6936b3cbcee9b0e950b599021668d966d793a40967bc6a2a7945dd2cdf486",
      "v": 28,
      "creates": null,
      "raw": "0xf86d80850d7d40ace383015f9094032571e10dcd19b1b0441f8d5005ae09d39a7d08888ac7230489e80000801ca01c5676dad01f6bc91433b3e71556f42558dd5ae15a00c06eff9fef228dcdde6ea008b6936b3cbcee9b0e950b599021668d966d793a40967bc6a2a7945dd2cdf486",
      "networkId": 0,
      "chainId": 0
    },
    {
      "hash": "0x3daf6591d97244297b840ce901e88cec4e50d77909c2d03656226947857111b9",
      "blockHash": "0xe37e0e2a6b562059347790f5a9e87b731dfda313ea89608e7d7252f6ef86f8ab",
      "blockNumber": 96187,
      "transactionIndex": 1,
      "confirmations": null,
      "from": "0xc27376f45D21E15edE3b26F2655FceE02Ccc0F2a",
      "gasPrice": {
        "_hex": "0xcfbae8d71"
      },
      "gasLimit": {
        "_hex": "0x55f0"
      },
      "to": "0xA20AA7c6890060F57100f77cC050915b3f336236",
      "value": {
        "_hex": "0xde0b6b3a7640000"
      },
      "nonce": 7,
      "data": "0x",
      "r": "0x8a3ee900b34e687a200986e5a7ad42ea3017be0b5f18f7cc9db9195a5c903157",
      "s": "0x70390a4a2c73ef72dfafc8c73085a6a66f948c238ea1b23068a5fcc0f0c91cba",
      "v": 28,
      "creates": null,
      "raw": "0xf86c07850cfbae8d718255f094a20aa7c6890060f57100f77cc050915b3f336236880de0b6b3a7640000801ca08a3ee900b34e687a200986e5a7ad42ea3017be0b5f18f7cc9db9195a5c903157a070390a4a2c73ef72dfafc8c73085a6a66f948c238ea1b23068a5fcc0f0c91cba",
      "networkId": 0,
      "chainId": 0
    }
  ]
}