{
  "hash": "0xc97284c7958ed95ce84bd3ae2c9c40dd492b6b4ab7fc579bacdc7818214b555b",
  "parentHash": "0x66cb10fd957fbe1d56497ab912b53cbf7946ca0ebe809f895a0f4f2e564f4286",
  "number": 119483,
  "timestamp": 1440143763,
  "nonce": "0xf24a702909249a7f",
  "difficulty": 4387979309360,
  "gasLimit": {
    "_hex": "0x2fefd8"
  },
  "gasUsed": {
    "_hex": "0x5208"
  },
  "miner": "0x4F85e43F44D2B0e6f57C9355806cE3e1B3F40Ab8",
  "extraData": "0x",
  "transactions": [
    {
      "hash": "0x4fdf0f4bb7fb48ce735ef435130b60109ea6c79b0e98079679cd1e238b8ee16b",
      "blockHash": "0xc97284c7958ed95ce84bd3ae2c9c40dd492b6b4ab7fc579bacdc7818214b555b",
      "blockNumber": 119483,
      "transactionIndex": 0,
      "confirmations": null,
      "from": "0x4fb3517DB2E2086Fc2dc2c5d32E982Cfa9C4706f",
      "gasPrice": {
        "_hex": "0xba43b7400"
      },
      "gasLimit": {
        "_hex": "0x5208"
      },
      "to": "0x32Be343B94f860124dC4fEe278FDCBD38C102D88",
      "value": {
        "_hex": "0x46bbed72a7f8c00"
      },
      "nonce": 3,
      "data": "0x",
      "r": "0x726c64ef0d957a4dd66ebe7d2a12f06060125738b7a39ad6cf12cd58610a7cdc",
      "s": "0x22f6578dc72c8dac73e2ba6e8bda230e98b293452fdf386d081bd3857f143eeb",
      "v": 28,
      "creates": null,
      "raw": "0xf86c03850ba43b74008252089432be343b94f860124dc4fee278fdcbd38c102d8888046bbed72a7f8c00801ca0726c64ef0d957a4dd66ebe7d2a12f06060125738b7a39ad6cf12cd58610a7cdca022f6578dc72c8dac73e2ba6e8bda230e98b293452fdf386d081bd3857f143eeb",
      "networkId": 0,
      "chainId": 0
    }
  ]
}