{
  "hash": "0xf8b7185092f557b843c10b5f15facce45ae2a68730fba4881ffdf5d8fe617c1b",
  "parentHash": "0x996e671cd5b9fa19f66e44cb9391c8b64f34e429802952631844e6dc64e573d5",
  "number": 63861,
  "timestamp": 1439211426,
  "nonce": "0x514f73df241f9483",
  "difficulty": 1853981253755,
  "gasLimit": {
    "_hex": "0x2fefd5"
  },
  "gasUsed": {
    "_hex": "0xa410"
  },
  "miner": "0xf927a40C8B7F6E07c5af7FA2155B4864a4112B13",
  "extraData": "0x",
  "transactions": [
    {
      "hash": "0x2d2253dc1d7b726855a80c1bde16dd7c616ae4666076aa9e7365330af88ce117",
      "blockHash": "0xf8b7185092f557b843c10b5f15facce45ae2a68730fba4881ffdf5d8fe617c1b",
      "blockNumber": 63861,
      "transactionIndex": 0,
      "confirmations": null,
      "from": "0x1333a55102f1f4B3df95298b6CE863eF8d5BAf45",
      "gasPrice": {
        "_hex": "0xcba02bb39"
      },
      "gasLimit": {
        "_hex": "0x5208"
      },
      "to": "0x32Be343B94f860124dC4fEe278FDCBD38C102D88",
      "value": {
        "_hex": "0xcf0a747df8144000"
      },
      "nonce": 2,
      "data": "0x",
      "r": "0xd8a3525280eeb10fd474d7f302650c55c07eb8ba1e80fb4c0634261a79b1bb33",
      "s": "0x0a0a0ab4572efafe31a9eedaeb529276263e977865465c44acb17d9c06687046",
      "v": 28,
      "creates": null,
      "raw": "0xf86c02850cba02bb398252089432be343b94f860124dc4fee278fdcbd38c102d8888cf0a747df8144000801ca0d8a3525280eeb10fd474d7f302650c55c07eb8ba1e80fb4c0634261a79b1bb33a00a0a0ab4572efafe31a9eedaeb529276263e977865465c44acb17d9c06687046",
      "networkId": 0,
      "chainId": 0
    },
    {
      "hash": "0xe1b7f4d6fc5699a79168026026feda97aa12542bd5b7fd09eb58622425c217f3",
      "blockHash": "0xf8b7185092f557b843c10b5f15facce45ae2a68730fba4881ffdf5d8fe617c1b",
      "blockNumber": 63861,
      "transactionIndex": 1,
      "confirmations": null,
      "from": "0xf79785E5a846aCea08F94379fCCe79B1054bDB99",
      "gasPrice": {
        "_hex": "0xcba02bb39"
      },
      "gasLimit": {
        "_hex": "0x5208"
      },
      "to": "0x32Be343B94f860124dC4fEe278FDCBD38C102D88",
      "value": {
        "_hex": "0x455f7d86f55ad400"
      },
      "nonce": 3,
      "data": "0x",
      "r": "0x55a640618be35e34590c7a61e087e535e346c8b89b0417bb2e8e83f36cd7c058",
      "s": "0x7bb649f4bf9f75a90c67017b0cb6376b2892d1ee0e2f3bccf8b133be75e211e1",
      "v": 27,
      "creates": null,
      "raw": "0xf86c03850cba02bb398252089432be343b94f860124dc4fee278fdcbd38c102d8888455f7d86f55ad400801ba055a640618be35e34590c7a61e087e535e346c8b89b0417bb2e8e83f36cd7c058a07bb649f4bf9f75a90c67017b0cb6376b2892d1ee0e2f3bccf8b133be75e211e1",
      "networkId": 0,
      "chainId": 0
    }
  ]
}