{
  "hash": "0xb5af9bcb298e5b3dd6623cb1f621cf9a58f9927c832dc0470453f7ee1d8b85c6",
  "parentHash": "0x37c51f24410388a0fd7b159b4aba82665460574b31d263d9ea458d80ef9ca6c9",
  "number": 71962,
  "timestamp": 1439344711,
  "nonce": "0xd297ba4db4845356",
  "difficulty": 2174968507716,
  "gasLimit": {
    "_hex": "0x2fefd8"
  },
  "gasUsed": {
    "_hex": "0x100c9"
  },
  "miner": "0xEF247E639d49461D25F57e9362CadE3120910Ce0",
  "extraData": "0x476574682f76312e302e312f6c696e75782f676f312e342e32",
  "transactions": [
    {
      "hash": "0xcc94e686cea361e3f760ca3ee3f3538dc0d659d7b4d9d448599f2e91e948d5c8",
      "blockHash": "0xb5af9bcb298e5b3dd6623cb1f621cf9a58f9927c832dc0470453f7ee1d8b85c6",
      "blockNumber": 71962,
      "transactionIndex": 0,
      "confirmations": null,
      "from": "0x15D8732393dB8CA39EF7bdd907c12688C623abec",
      "gasPrice": {
        "_hex": "0xdcb2c98ad"
      },
      "gasLimit": {
        "_hex": "0x5208"
      },
      "to": "0x32Be343B94f860124dC4fEe278FDCBD38C102D88",
      "value": {
        "_hex": "0x5770dabe72c2780000"
      },
      "nonce": 0,
      "data": "0x",
      "r": "0xa7f8e4b7e8b3ba694200432965c7d1835c8958574804da4083c8998b876eab17",
      "s": "0x1e9e288c55f0de3a5f969c3bb4ef6acd25f35fc2bb184cd6547b46f480ee0ef9",
      "v": 28,
      "creates": null,
      "raw": "0xf86d80850dcb2c98ad8252089432be343b94f860124dc4fee278fdcbd38c102d88895770dabe72c2780000801ca0a7f8e4b7e8b3ba694200432965c7d1835c8958574804da4083c8998b876eab17a01e9e288c55f0de3a5f969c3bb4ef6acd25f35fc2bb184cd6547b46f480ee0ef9",
      "networkId": 0,
      "chainId": 0
    },
    {
      "hash": "0x984c2f52ae2dc4d026b3a507c23332a21aeb2ca7e96f50d7587141dcc630d856",
      "blockHash": "0xb5af9bcb298e5b3dd6623cb1f621cf9a58f9927c832dc0470453f7ee1d8b85c6",
      "blockNumber": 71962,
      "transactionIndex": 1,
      "confirmations": null,
      "from": "0x17580B766f7453525ca4C6A88b01b50570EA088C",
      "gasPrice": {
        "_hex": "0xd0334c520"
      },
      "gasLimit": {
        "_hex": "0x61a80"
      },
      "to": "0x5Fe5B7546D1628f7348B023A0393de1FC825A4fD",
      "value": {
        "_hex": "0x53444835ec580000"
      },
      "nonce": 312,
      "data": "0xb595b8b50000000000000000000000000000000000000000000000000000000000000001",
      "r": "0x783fa638fac51b473213de629ab531faecc160e68ce92193b153e8dcced0c224",
      "s": "0x1630fe17bb4e35d4f516ad9b5d2bbb6ae66dfaf692c64e0578580b69834abfce",
      "v": 28,
      "creates": null,
      "raw": "0xf893820138850d0334c52083061a80945fe5b7546d1628f7348b023a0393de1fc825a4fd8853444835ec580000a4b595b8b500000000000000000000000000000000000000000000000000000000000000011ca0783fa638fac51b473213de629ab531faecc160e68ce92193b153e8dcced0c224a01630fe17bb4e35d4f516ad9b5d2bbb6ae66dfaf692c64e0578580b69834abfce",
      "networkId": 0,
      "chainId": 0
    }
  ]
}