{
  "hash": "0xcaed26bf2a5a69ee1c48f4e5909bc20812dbffa86283826b9dcd8636b18f0a9b",
  "parentHash": "0x50c65aedf431b1a9c6f8412cd9db53cf05cd829a3b2f8b8aa4293e726d43f6fc",
  "number": 107864,
  "timestamp": 1439930040,
  "nonce": "0xa2157b035592bfbc",
  "difficulty": 4383346674575,
  "gasLimit": {
    "_hex": "0x2fefd8"
  },
  "gasUsed": {
    "_hex": "0xa410"
  },
  "miner": "0xe6A7a1d47ff21B6321162AEA7C6CB457D5476Bca",
  "extraData": "0x476574682f76312e302e312d38326566323666362f6c696e75782f676f312e34",
  "transactions": [
    {
      "hash": "0xc416351df105f092b5209cbca35e5be1b688f3f4789ea4573186a20246b5dfc2",
      "blockHash": "0xcaed26bf2a5a69ee1c48f4e5909bc20812dbffa86283826b9dcd8636b18f0a9b",
      "blockNumber": 107864,
      "transactionIndex": 0,
      "confirmations": null,
      "from": "0x97B9A4CDBD07f595BE3B5bFC82fA8bFbE4a9d0D9",
      "gasPrice": {
        "_hex": "0x119bd3a7b06"
      },
      "gasLimit": {
        "_hex": "0x55f0"
      },
      "to": "0x2b176421eEBBf303fa94aD4fE78362Fa9e4Ca693",
      "value": {
        "_hex": "0x5d423c655aa0000"
      },
      "nonce": 2,
      "data": "0x",
      "r": "0x217582d76f4be80a0d4657d712abf142bf251169889cd3614a6ab6ae4cbbc55a",
      "s": "0x7147fdeef861c48d5d5633bf8695b0f4212b77822e2db5731ccd480618e8368e",
      "v": 27,
      "creates": null,
      "raw": "0xf86d02860119bd3a7b068255f0942b176421eebbf303fa94ad4fe78362fa9e4ca6938805d423c655aa0000801ba0217582d76f4be80a0d4657d712abf142bf251169889cd3614a6ab6ae4cbbc55aa07147fdeef861c48d5d5633bf8695b0f4212b77822e2db5731ccd480618e8368e",
      "networkId": 0,
      "chainId": 0
    },
    {
      "hash": "0x31bff1d2c424216490beffca8624cb79f8ffd6336bd31612c9464765ed46640e",
      "blockHash": "0xcaed26bf2a5a69ee1c48f4e5909bc20812dbffa86283826b9dcd8636b18f0a9b",
      "blockNumber": 107864,
      "transactionIndex": 1,
      "confirmations": null,
      "from": "0x00f222E7C680F9932feCAC767cC279C84C0A3285",
      "gasPrice": {
        "_hex": "0xba43b7400"
      },
      "gasLimit": {
        "_hex": "0x985f6"
      },
      "to": "0x2FdA34cB6C13420bA8b8Af3cB1BA4F7CBb167821",
      "value": {
        "_hex": "0x470de4df820000"
      },
      "nonce": 8,
      "data": "0x",
      "r": "0xd5139ba35ee76340ddf772c1fd40d6db9938729a09826ad5b1a02c5eeb748b93",
      "s": "0x049bb5e7e4270dc9c2407d5725529b0aacb77dbd283f8753fb112cd904ab8d95",
      "v": 27,
      "creates": null,
      "raw": "0xf86c08850ba43b7400830985f6942fda34cb6c13420ba8b8af3cb1ba4f7cbb16782187470de4df820000801ba0d5139ba35ee76340ddf772c1fd40d6db9938729a09826ad5b1a02c5eeb748b93a0049bb5e7e4270dc9c2407d5725529b0aacb77dbd283f8753fb112cd904ab8d95",
      "networkId": 0,
      "chainId": 0
    }
  ]
}