{
  "hash": "0x2fd4dc8ed8eca3011cd26198277e13bb06c1057b4e6abf6908484415cba85a5e",
  "parentHash": "0x5c93011f4387d483cc59c86e8db7f44d470a2261eb4b0833753855c28faac5ef",
  "number": 82401,
  "timestamp": 1439518834,
  "nonce": "0x04edd0825d4fc50f",
  "difficulty": 2372985038420,
  "gasLimit": {
    "_hex": "0x2fefd8"
  },
  "gasUsed": {
    "_hex": "0x5208"
  },
  "miner": "0x157c6f2431eB1a95797EE86F7d17b3c0FD47A247",
  "extraData": "0x476574682f76312e302e312f77696e646f77732f676f312e342e32",
  "transactions": [
    {
      "hash": "0xbb66f310e4abd8763a66e17cbc4744009ef73da76f9759629effba72f1868004",
      "blockHash": "0x2fd4dc8ed8eca3011cd26198277e13bb06c1057b4e6abf6908484415cba85a5e",
      "blockNumber": 82401,
      "transactionIndex": 0,
      "confirmations": null,
      "from": "0x120A270bbC009644e35F0bB6ab13f95b8199c4ad",
      "gasPrice": {
        "_hex": "0xd626a298f"
      },
      "gasLimit": {
        "_hex": "0x3d090"
      },
      "to": "0xC60C0509E9B13B71920cef72F2b77127Df91AA9c",
      "value": {
        "_hex": "0x2b5e3af16b1880000"
      },
      "nonce": 398,
      "data": "0x",
      "r": "0x8128aeb283a8072c9d4683e1625a0c322bc6cf2d85b2d81cfcd4df5fab7d477b",
      "s": "0x08a1a993664ae094d4d45aa3948e2eb1716e0c53190c7ca2e94a6025dba46d58",
      "v": 27,
      "creates": null,
      "raw": "0xf87082018e850d626a298f8303d09094c60c0509e9b13b71920cef72f2b77127df91aa9c8902b5e3af16b1880000801ba08128aeb283a8072c9d4683e1625a0c322bc6cf2d85b2d81cfcd4df5fab7d477ba008a1a993664ae094d4d45aa3948e2eb1716e0c53190c7ca2e94a6025dba46d58",
      "networkId": 0,
      "chainId": 0
    }
  ]
}