{
  "hash": "0xfdd2bfaea0d319a16db1bfe7f4c04858825e00a66715ed0eb9a4cf44d6dff225",
  "parentHash": "0x186193910c86813f9680bc4caab63bc341d443fd8567324e9286d0eb34cd4caf",
  "number": 68471,
  "timestamp": 1439288442,
  "nonce": "0xbc7860aca5eab9d3",
  "difficulty": 2007447334831,
  "gasLimit": {
    "_hex": "0x2fefd8"
  },
  "gasUsed": {
    "_hex": "0x2d1ea"
  },
  "miner": "0x88D74a59454F6cF3B51ef6b9136AFb6b9D405A88",
  "extraData": "0x476574682f76312e302e312d37666266393930632f6c696e75782f676f312e34",
  "transactions": [
    {
      "hash": "0x3406350e81c8a855c635fb1aee4fb18060799188664f51f1661df61388b0d9a0",
      "blockHash": "0xfdd2bfaea0d319a16db1bfe7f4c04858825e00a66715ed0eb9a4cf44d6dff225",
      "blockNumber": 68471,
      "transactionIndex": 0,
      "confirmations": null,
      "from": "0xbB7735934F8229F1fc2e76F7AfD82e14AA1e8E81",
      "gasPrice": {
        "_hex": "0xdb7f18265"
      },
      "gasLimit": {
        "_hex": "0x61a80"
      },
      "to": "0x5Fe5B7546D1628f7348B023A0393de1FC825A4fD",
      "value": {
        "_hex": "0x1bc16d674ec80000"
      },
      "nonce": 5,
      "data": "0xb595b8b50000000000000000000000000000000000000000000000000000000000000000",
      "r": "0x7f8f3fb46ff772ee699234eb8b6114cfadbec90c4cf3f30a737f504088b2817d",
      "s": "0x11ffa158c6f2f0df0551c0d02b249cfd94735ce2121a7f14fbc6c9ff2afda53d",
      "v": 27,
      "creates": null,
      "raw": "0xf89105850db7f1826583061a80945fe5b7546d1628f7348b023a0393de1fc825a4fd881bc16d674ec80000a4b595b8b500000000000000000000000000000000000000000000000000000000000000001ba07f8f3fb46ff772ee699234eb8b6114cfadbec90c4cf3f30a737f504088b2817da011ffa158c6f2f0df0551c0d02b249cfd94735ce2121a7f14fbc6c9ff2afda53d",
      "networkId": 0,
      "chainId": 0
    },
    {
      "hash": "0x2f3e637d57f623bb27d0eb4dc8693f2215354ca395830609329efd8b3a46fd9f",
      "blockHash": "0xfdd2bfaea0d319a16db1bfe7f4c04858825e00a66715ed0eb9a4cf44d6dff225",
      "blockNumber": 68471,
      "transactionIndex": 1,
      "confirmations": null,
      "from": "0x2e8De49475f4C914d4E0F4226532d2d714431168",
      "gasPrice": {
        "_hex": "0xba43b7400"
      },
      "gasLimit": {
        "_hex": "0x5208"
      },
      "to": "0xC58E56f78495a412f788b23113FF5c475bF5F205",
      "value": {
        "_hex": "0x36ef271c4dd000"
      },
      "nonce": 1,
      "data": "0x",
      "r": "0x02d58abb140509de23403500172b44b9e5344a68ea905d440c40f1cd06d80e7b",
      "s": "0x00187fe1b5d9acc091f890001db22110ae1f1faab506d1038066095176a07fe9",
      "v": 27,
      "creates": null,
      "raw": "0xf86a01850ba43b740082520894c58e56f78495a412f788b23113ff5c475bf5f2058736ef271c4dd000801ba002d58abb140509de23403500172b44b9e5344a68ea905d440c40f1cd06d80e7b9f187fe1b5d9acc091f890001db22110ae1f1faab506d1038066095176a07fe9",
      "networkId": 0,
      "chainId": 0
    },
    {
      "hash": "0xaa08065586e9f83104b8afaadf24d2daa9c192c6c341a5813371e65b248098ef",
      "blockHash": "0xfdd2bfaea0d319a16db1bfe7f4c04858825e00a66715ed0eb9a4cf44d6dff225",
      "blockNumber": 68471,
      "transactionIndex": 2,
      "confirmations": null,
      "from": "0xbec737170f99033D7371aD8889db42eC20603D09",
      "gasPrice": {
        "_hex": "0xba43b7400"
      },
      "gasLimit": {
        "_hex": "0x5208"
      },
      "to": "0x1232215C783F56556b53706bF95870Bfb81DC553",
      "value": {
        "_hex": "0x36ef271c4dd000"
      },
      "nonce": 1,
      "data": "0x",
      "r": "0xa8b8264dd45b5c9f6bb2eab701c0a7178d0ee86178d823a6bf9ecc121da760c0",
      "s": "0x16b8bb8a47e9fe650d1e7775db89fcb62bc7c912c077671f9e8ddd5dd89f2b6d",
      "v": 28,
      "creates": null,
      "raw": "0xf86b01850ba43b7400825208941232215c783f56556b53706bf95870bfb81dc5538736ef271c4dd000801ca0a8b8264dd45b5c9f6bb2eab701c0a7178d0ee86178d823a6bf9ecc121da760c0a016b8bb8a47e9fe650d1e7775db89fcb62bc7c912c077671f9e8ddd5dd89f2b6d",
      "networkId": 0,
      "chainId": 0
    },
    {
      "hash": "0x9d29f83494742eee89a00fb50728e1b2c98c7bb57a7889e63a37d07772988326",
      "blockHash": "0xfdd2bfaea0d319a16db1bfe7f4c04858825e00a66715ed0eb9a4cf44d6dff225",
      "blockNumber": 68471,
      "transactionIndex": 3,
      "confirmations": null,
      "from": "0xABC69eCa85aF7f85D42149B4b3c9D88d9dA9F624",
      "gasPrice": {
        "_hex": "0xba43b7400"
      },
      "gasLimit": {
        "_hex": "0x5208"
      },
      "to": "0x596B8426A0d0B6cec02739a696048cBa59ECC174",
      "value": {
        "_hex": "0x36ef271c4dd000"
      },
      "nonce": 1,
      "data": "0x",
      "r": "0x17a73656bf0fd8541d945795869683cbc6d005aeac40c9273cc18e97938263ed",
      "s": "0x22284ef571ae1e0e9b673ec364f6e1c0b2ff086b515d0bf0d06f7ee7820d9669",
      "v": 27,
      "creates": null,
      "raw": "0xf86b01850ba43b740082520894596b8426a0d0b6cec02739a696048cba59ecc1748736ef271c4dd000801ba017a73656bf0fd8541d945795869683cbc6d005aeac40c9273cc18e97938263eda022284ef571ae1e0e9b673ec364f6e1c0b2ff086b515d0bf0d06f7ee7820d9669",
      "networkId": 0,
      "chainId": 0
    },
    {
      "hash": "0xb4d21503d9205086ce698bec768e5aed2aa6fc22feafa5d0e84e92146a0d5386",
      "blockHash": "0xfdd2bfaea0d319a16db1bfe7f4c04858825e00a66715ed0eb9a4cf44d6dff225",
      "blockNumber": 68471,
      "transactionIndex": 4,
      "confirmations": null,
      "from": "0xe04bfFAEc98F74608d9eDBDc60100e98bb57229D",
      "gasPrice": {
        "_hex": "0xba43b7400"
      },
      "gasLimit": {
        "_hex": "0x5208"
      },
      "to": "0x12f76570B97A70D572c014BD2393A5Bddaf61605",
      "value": {
        "_hex": "0x36ef271c4dd000"
      },
      "nonce": 1,
      "data": "0x",
      "r": "0x39dfd12bcb194f360a1bda3b7008c99c00a7f4ad5afcdb423ea4a0aaba8fde10",
      "s": "0x43c735449f0c04fc187aa31879d78c6e3f483cdf9d2b5e3094e3202abed3db20",
      "v": 27,
      "creates": null,
      "raw": "0xf86b01850ba43b74008252089412f76570b97a70d572c014bd2393a5bddaf616058736ef271c4dd000801ba039dfd12bcb194f360a1bda3b7008c99c00a7f4ad5afcdb423ea4a0aaba8fde10a043c735449f0c04fc187aa31879d78c6e3f483cdf9d2b5e3094e3202abed3db20",
      "networkId": 0,
      "chainId": 0
    },
    {
      "hash": "0x64901e8ede9c616743a4d9f4081aa1276d4b44c2f2a9f2b4cd586a91d4e7cacc",
      "blockHash": "0xfdd2bfaea0d319a16db1bfe7f4c04858825e00a66715ed0eb9a4cf44d6dff225",
      "blockNumber": 68471,
      "transactionIndex": 5,
      "confirmations": null,
      "from": "0x850c542E628a52735aeaF93e11142f7b3A7abc82",
      "gasPrice": {
        "_hex": "0xba43b7400"
      },
      "gasLimit": {
        "_hex": "0x5208"
      },
      "to": "0xC1f45F80fAD5878e7f2c7599B3222d100adB0ddd",
      "value": {
        "_hex": "0x36ef271c4dd000"
      },
      "nonce": 1,
      "data": "0x",
      "r": "0xb5288b4fbd99d78dcf7bbc15c95996418aaca94c62d8918db083c26032a7d476",
      "s": "0x63e5033f749239d42b5fae87f8d1dcfcbde42672982636484c740f27db0c3549",
      "v": 27,
      "creates": null,
      "raw": "0xf86b01850ba43b740082520894c1f45f80fad5878e7f2c7599b3222d100adb0ddd8736ef271c4dd000801ba0b5288b4fbd99d78dcf7bbc15c95996418aaca94c62d8918db083c26032a7d476a063e5033f749239d42b5fae87f8d1dcfcbde42672982636484c740f27db0c3549",
      "networkId": 0,
      "chainId": 0
    },
    {
      "hash": "0x22d231c284066ecadf3e99a9872d8e58f06123be76d66dde1455cbbb5c1e7797",
      "blockHash": "0xfdd2bfaea0d319a16db1bfe7f4c04858825e00a66715ed0eb9a4cf44d6dff225",
      "blockNumber": 68471,
      "transactionIndex": 6,
      "confirmations": null,
      "from": "0x7f048aB47EA1946418C0efB45cbD943CEa79831d",
      "gasPrice": {
        "_hex": "0xba43b7400"
      },
      "gasLimit": {
        "_hex": "0x5208"
      },
      "to": "0x2D01EfDf89887D890672f9e11D362Cb9B67471DC",
      "value": {
        "_hex": "0x36ef271c4dd000"
      },
      "nonce": 1,
      "data": "0x",
      "r": "0x44db69ead7736456f40693e1c853e739deb46b299257bc64e6ce1bd9838029b4",
      "s": "0x0abb069ef6a6b2d6d3e97876c9b7157770ce86830fa0dd5c0023d24acf41de5b",
      "v": 28,
      "creates": null,
      "raw": "0xf86b01850ba43b7400825208942d01efdf89887d890672f9e11d362cb9b67471dc8736ef271c4dd000801ca044db69ead7736456f40693e1c853e739deb46b299257bc64e6ce1bd9838029b4a00abb069ef6a6b2d6d3e97876c9b7157770ce86830fa0dd5c0023d24acf41de5b",
      "networkId": 0,
      "chainId": 0
    },
    {
      "hash": "0xdcf345a51e8f49698c46b899c6ef6ab2c8a18c59435c53b7ce0f439e0cbcdd3d",
      "blockHash": "0xfdd2bfaea0d319a16db1bfe7f4c04858825e00a66715ed0eb9a4cf44d6dff225",
      "blockNumber": 68471,
      "transactionIndex": 7,
      "confirmations": null,
      "from": "0x008dBa42C465542c3FAbCb5928B45194B195798F",
      "gasPrice": {
        "_hex": "0xba43b7400"
      },
      "gasLimit": {
        "_hex": "0x5208"
      },
      "to": "0x141a324A242f83E0Cb2bE7598B0a9B2a4570995E",
      "value": {
        "_hex": "0x36ef271c4dd000"
      },
      "nonce": 1,
      "data": "0x",
      "r": "0x28234eb64d8f4b4475d174ea7e6a4174ef4dbef200ab310c889a7251f5e56867",
      "s": "0x4e9c3cad41ac761aed0a90f92f009bbcb541e6351afb484cfa6ab87e7111c9ea",
      "v": 28,
      "creates": null,
      "raw": "0xf86b01850ba43b740082520894141a324a242f83e0cb2be7598b0a9b2a4570995e8736ef271c4dd000801ca028234eb64d8f4b4475d174ea7e6a4174ef4dbef200ab310c889a7251f5e56867a04e9c3cad41ac761aed0a90f92f009bbcb541e6351afb484cfa6ab87e7111c9ea",
      "networkId": 0,
      "chainId": 0
    }
  ]
}