{
  "hash": "0x3537b099df5d0dd22bf94f230a10e7b70804a71fd2ca81b88f29763b071eda55",
  "parentHash": "0x1c8a352ae5e73a46bb735263b916b558b6c007889473a05eb371c1a806a594cb",
  "number": 69858,
  "timestamp": 1439310906,
  "nonce": "0xdc276bf67ac0952f",
  "difficulty": 2100359979446,
  "gasLimit": {
    "_hex": "0x2fefd8"
  },
  "gasUsed": {
    "_hex": "0x5208"
  },
  "miner": "0xf927a40C8B7F6E07c5af7FA2155B4864a4112B13",
  "extraData": "0x",
  "transactions": [
    {
      "hash": "0xeec065fb81c47fc890227f1f86927c6780fe8bc9f16d612b61359206f91e4b71",
      "blockHash": "0x3537b099df5d0dd22bf94f230a10e7b70804a71fd2ca81b88f29763b071eda55",
      "blockNumber": 69858,
      "transactionIndex": 0,
      "confirmations": null,
      "from": "0x120A270bbC009644e35F0bB6ab13f95b8199c4ad",
      "gasPrice": {
        "_hex": "0xe0b63c7af"
      },
      "gasLimit": {
        "_hex": "0x15f90"
      },
      "to": "0xdEA7D66bec3A818126Eb817A7A0012f64251d039",
      "value": {
        "_hex": "0x3635c9adc5dea00000"
      },
      "nonce": 185,
      "data": "0x",
      "r": "0xca658a2e86fec5e262d305c4865e610d09e00b53b65b01a70c8fd8f5c0026175",
      "s": "0x0bb58756f9fbbd634296b5a646fc7ab44f3dd64fbd3e80583f67399690e86d5b",
      "v": 28,
      "creates": null,
      "raw": "0xf86f81b9850e0b63c7af83015f9094dea7d66bec3a818126eb817a7a0012f64251d039893635c9adc5dea00000801ca0ca658a2e86fec5e262d305c4865e610d09e00b53b65b01a70c8fd8f5c0026175a00bb58756f9fbbd634296b5a646fc7ab44f3dd64fbd3e80583f67399690e86d5b",
      "networkId": 0,
      "chainId": 0
    }
  ]
}