{
  "hash": "0x15694e51149523c0b043642293f0b6e08f79b161d0c9299243905ff2b938c3be",
  "parentHash": "0x5d30f7a86dbe623edfe5281c79124bfb194819977332d71bf8758f14a194b71c",
  "number": 100567,
  "timestamp": 1439808610,
  "nonce": "0x40de742e6b9b0f53",
  "difficulty": 3824682058059,
  "gasLimit": {
    "_hex": "0x2fefd8"
  },
  "gasUsed": {
    "_hex": "0x19a28"
  },
  "miner": "0xe6A7a1d47ff21B6321162AEA7C6CB457D5476Bca",
  "extraData": "0x476574682f76312e302e312d38326566323666362f6c696e75782f676f312e34",
  "transactions": [
    {
      "hash": "0x7d6b04316f8f04591b5899f52359f8c1e51eb1466fa86a999a0795f1f3b74e33",
      "blockHash": "0x15694e51149523c0b043642293f0b6e08f79b161d0c9299243905ff2b938c3be",
      "blockNumber": 100567,
      "transactionIndex": 0,
      "confirmations": null,
      "from": "0x1CaC89419da71AC175A5B99CEE0163720430990c",
      "gasPrice": {
        "_hex": "0xdbcebad39"
      },
      "gasLimit": {
        "_hex": "0x5208"
      },
      "to": "0x32Be343B94f860124dC4fEe278FDCBD38C102D88",
      "value": {
        "_hex": "0x175f9af9509f34000"
      },
      "nonce": 6,
      "data": "0x",
      "r": "0x34c84b52452e31c6c29dc438524b69f21edb7102842a82c20a1187f10ae65d0b",
      "s": "0x69ac939a3a5cb561f2e644425c8983a9e3dfe6d9629c8f761fdf00b0b397b558",
      "v": 27,
      "creates": null,
      "raw": "0xf86d06850dbcebad398252089432be343b94f860124dc4fee278fdcbd38c102d88890175f9af9509f34000801ba034c84b52452e31c6c29dc438524b69f21edb7102842a82c20a1187f10ae65d0ba069ac939a3a5cb561f2e644425c8983a9e3dfe6d9629c8f761fdf00b0b397b558",
      "networkId": 0,
      "chainId": 0
    },
    {
      "hash": "0xe21efebd51aaf56a5b4304b2cbf25cbd3c9a0983cb197949714b19ed41170132",
      "blockHash": "0x15694e51149523c0b043642293f0b6e08f79b161d0c9299243905ff2b938c3be",
      "blockNumber": 100567,
      "transactionIndex": 1,
      "confirmations": null,
      "from": "0x972ad000397A3c903299F1353d6d4b85eE4E4e2A",
      "gasPrice": {
        "_hex": "0xdbcebad39"
      },
      "gasLimit": {
        "_hex": "0x5208"
      },
      "to": "0x32Be343B94f860124dC4fEe278FDCBD38C102D88",
      "value": {
        "_hex": "0x20d694da6818a000"
      },
      "nonce": 16,
      "data": "0x",
      "r": "0xfaf600765211e597349a37b6fb6fe7dea38d7c355096a1db68b0d75c75a7fc53",
      "s": "0x6e0543a38ea9b0faf8bfba1660f261d3d1e12ccd5b1d54e1e5341ea7bdd5197f",
      "v": 28,
      "creates": null,
      "raw": "0xf86c10850dbcebad398252089432be343b94f860124dc4fee278fdcbd38c102d888820d694da6818a000801ca0faf600765211e597349a37b6fb6fe7dea38d7c355096a1db68b0d75c75a7fc53a06e0543a38ea9b0faf8bfba1660f261d3d1e12ccd5b1d54e1e5341ea7bdd5197f",
      "networkId": 0,
      "chainId": 0
    },
    {
      "hash": "0xedc504eb2773d68c35bd76e819d1dcd150dd05ba320a25fad3260cabb50686b4",
      "blockHash": "0x15694e51149523c0b043642293f0b6e08f79b161d0c9299243905ff2b938c3be",
      "blockNumber": 100567,
      "transactionIndex": 2,
      "confirmations": null,
      "from": "0x78A5a3e39DB4Cf9824d4DFAbAbcdB36611788C78",
      "gasPrice": {
        "_hex": "0xdbcebad39"
      },
      "gasLimit": {
        "_hex": "0x5208"
      },
      "to": "0x32Be343B94f860124dC4fEe278FDCBD38C102D88",
      "value": {
        "_hex": "0xaa572948514d9800"
      },
      "nonce": 6,
      "data": "0x",
      "r": "0x109e687befa419d8a9e29461db126b0a400e099df368a6f4688370a9aeec2b30",
      "s": "0x7e899549722afb4444c349f9084ed0537358139edba447f3c236b4aab5a08b7e",
      "v": 27,
      "creates": null,
      "raw": "0xf86c06850dbcebad398252089432be343b94f860124dc4fee278fdcbd38c102d8888aa572948514d9800801ba0109e687befa419d8a9e29461db126b0a400e099df368a6f4688370a9aeec2b30a07e899549722afb4444c349f9084ed0537358139edba447f3c236b4aab5a08b7e",
      "networkId": 0,
      "chainId": 0
    },
    {
      "hash": "0xaf50952b03e949e6a00fd9c3655680e6993d98e78bdad1e3665c26f20857e8dd",
      "blockHash": "0x15694e51149523c0b043642293f0b6e08f79b161d0c9299243905ff2b938c3be",
      "blockNumber": 100567,
      "transactionIndex": 3,
      "confirmations": null,
      "from": "0x7884D470204862a0d1A21122F41ee77430396Ee5",
      "gasPrice": {
        "_hex": "0xd7ec943cb"
      },
      "gasLimit": {
        "_hex": "0x15f90"
      },
      "to": "0xd94315Ab1afbEc118d3a72BD890af6987B95E320",
      "value": {
        "_hex": "0x186cc6acd4b0000"
      },
      "nonce": 61,
      "data": "0x",
      "r": "0xf276bafbb36a993312b0bfb43104a2bbd7720b55f2f631b8c2484f435a927fc4",
      "s": "0x29c5993ac1cf868d4e92f414321e6cde909be3cadf50d3b2c3ee239d8252febe",
      "v": 28,
      "creates": null,
      "raw": "0xf86d3d850d7ec943cb83015f9094d94315ab1afbec118d3a72bd890af6987b95e320880186cc6acd4b0000801ca0f276bafbb36a993312b0bfb43104a2bbd7720b55f2f631b8c2484f435a927fc4a029c5993ac1cf868d4e92f414321e6cde909be3cadf50d3b2c3ee239d8252febe",
      "networkId": 0,
      "chainId": 0
    },
    {
      "hash": "0xdd355345644d76e1a5ed3c6d207fb3f3c6b0335032f9ab5247a038ce5e15d477",
      "blockHash": "0x15694e51149523c0b043642293f0b6e08f79b161d0c9299243905ff2b938c3be",
      "blockNumber": 100567,
      "transactionIndex": 4,
      "confirmations": null,
      "from": "0x7884D470204862a0d1A21122F41ee77430396Ee5",
      "gasPrice": {
        "_hex": "0xd7ec943cb"
      },
      "gasLimit": {
        "_hex": "0x15f90"
      },
      "to": "0xd94315Ab1afbEc118d3a72BD890af6987B95E320",
      "value": {
        "_hex": "0x186cc6acd4b0000"
      },
      "nonce": 62,
      "data": "0x",
      "r": "0xfeccb99c6794523197cb0a07b67be7d2603b4ff335c4b87f0193993ec34767f8",
      "s": "0x6c3845793993d2224093e9dfc710f691a666fa617c94e15d3631742453b6d063",
      "v": 27,
      "creates": null,
      "raw": "0xf86d3e850d7ec943cb83015f9094d94315ab1afbec118d3a72bd890af6987b95e320880186cc6acd4b0000801ba0feccb99c6794523197cb0a07b67be7d2603b4ff335c4b87f0193993ec34767f8a06c3845793993d2224093e9dfc710f691a666fa617c94e15d3631742453b6d063",
      "networkId": 0,
      "chainId": 0
    }
  ]
}