{
  "hash": "0x7d0eb855f83e1d71c30938de5d360e1f80fbc6e5075b2b65fb94c4fc7ce44c3e",
  "parentHash": "0x8da310f778c6d4a55474785805ac36d15172416dc8bd6813f67d8d21227cc986",
  "number": 114798,
  "timestamp": 1440046560,
  "nonce": "0x04673479cc5ac734",
  "difficulty": 4461747945292,
  "gasLimit": {
    "_hex": "0x2fefd8"
  },
  "gasUsed": {
    "_hex": "0x2a20"
  },
  "miner": "0xf927a40C8B7F6E07c5af7FA2155B4864a4112B13",
  "extraData": "0x",
  "transactions": [
    {
      "hash": "0x947b47a68584ae1e5dc58bd42d3919e604b93183fe1f16f94723f24a023d48c7",
      "blockHash": "0x7d0eb855f83e1d71c30938de5d360e1f80fbc6e5075b2b65fb94c4fc7ce44c3e",
      "blockNumber": 114798,
      "transactionIndex": 0,
      "confirmations": null,
      "from": "0x6d134bfF5434a4cCe5992A7fb698Ec4755A9B601",
      "gasPrice": {
        "_hex": "0xd9358446d"
      },
      "gasLimit": {
        "_hex": "0x15f90"
      },
      "to": "0x5aA3acAb3d4F9BCE810c3D6cBdE94F476dda12ec",
      "value": {
        "_hex": "0x0"
      },
      "nonce": 2,
      "data": "0x41c0e1b5",
      "r": "0x9f64b655d6d808e86c4a5e578538243cdba4b3c42c78ed4f5a126f62a9321508",
      "s": "0x4c843264b20b687c3f36b9b74fca4ff5360174f04eea13011d7eb2d5fbbf4f42",
      "v": 28,
      "creates": null,
      "raw": "0xf86902850d9358446d83015f90945aa3acab3d4f9bce810c3d6cbde94f476dda12ec808441c0e1b51ca09f64b655d6d808e86c4a5e578538243cdba4b3c42c78ed4f5a126f62a9321508a04c843264b20b687c3f36b9b74fca4ff5360174f04eea13011d7eb2d5fbbf4f42",
      "networkId": 0,
      "chainId": 0
    }
  ]
}