{
  "hash": "0x87ea941021fd3ad0b14724b44cbe885c456984e84bf70d326bb9eb8e6f878e92",
  "parentHash": "0x48950b0387f1f849a7cff9df79e9d3dcd46173db0a23945bd7066b6e0c0ddbbd",
  "number": 116478,
  "timestamp": 1440074871,
  "nonce": "0x39e684462858bc08",
  "difficulty": 4562183163532,
  "gasLimit": {
    "_hex": "0x2fefd8"
  },
  "gasUsed": {
    "_hex": "0xa410"
  },
  "miner": "0x790b8a3cE86E707ED0eD32bF89B3269692a23CC1",
  "extraData": "0xd783010001844765746887676f312e342e32856c696e7578",
  "transactions": [
    {
      "hash": "0xaa14672fd2fbfb9ddb8e9b4fd280a81dda576efbc6be88b7368f4ecbd3b3ac9f",
      "blockHash": "0x87ea941021fd3ad0b14724b44cbe885c456984e84bf70d326bb9eb8e6f878e92",
      "blockNumber": 116478,
      "transactionIndex": 0,
      "confirmations": null,
      "from": "0x120A270bbC009644e35F0bB6ab13f95b8199c4ad",
      "gasPrice": {
        "_hex": "0xdff42ba08"
      },
      "gasLimit": {
        "_hex": "0x3d090"
      },
      "to": "0x79cF00854401d0CB1086d6444382a66f5587c548",
      "value": {
        "_hex": "0xde0b6b3a7640000"
      },
      "nonce": 940,
      "data": "0x",
      "r": "0xfab32237643ec547b2f45a283c954718f05c1e75bdb94e7d9142b50677657508",
      "s": "0x45c4530ad1e9f51871520d2001d7daf92ab1396c3d5b3a1b1c4d49482931e54f",
      "v": 27,
      "creates": null,
      "raw": "0xf86f8203ac850dff42ba088303d0909479cf00854401d0cb1086d6444382a66f5587c548880de0b6b3a7640000801ba0fab32237643ec547b2f45a283c954718f05c1e75bdb94e7d9142b50677657508a045c4530ad1e9f51871520d2001d7daf92ab1396c3d5b3a1b1c4d49482931e54f",
      "networkId": 0,
      "chainId": 0
    },
    {
      "hash": "0x6322d17880764565f02bd7d7545c708f2c0bbafdaecd921ecc5bde25f63432be",
      "blockHash": "0x87ea941021fd3ad0b14724b44cbe885c456984e84bf70d326bb9eb8e6f878e92",
      "blockNumber": 116478,
      "transactionIndex": 1,
      "confirmations": null,
      "from": "0x2910543Af39abA0Cd09dBb2D50200b3E800A63D2",
      "gasPrice": {
        "_hex": "0xd10b807ca"
      },
      "gasLimit": {
        "_hex": "0x5208"
      },
      "to": "0xef15013444529615642Be484eAe67F5dcD7F72e8",
      "value": {
        "_hex": "0x5f254c63f8bc20000"
      },
      "nonce": 1133,
      "data": "0x",
      "r": "0xa970a2d2fb87c4b6c9386f054120457449ee2ca584646f517c5534f1bfa34355",
      "s": "0x47ccc907a858970f94c51afdab8e26dded2af380c08543ed11140e5c1d886a5e",
      "v": 28,
      "creates": null,
      "raw": "0xf86f82046d850d10b807ca82520894ef15013444529615642be484eae67f5dcd7f72e88905f254c63f8bc20000801ca0a970a2d2fb87c4b6c9386f054120457449ee2ca584646f517c5534f1bfa34355a047ccc907a858970f94c51afdab8e26dded2af380c08543ed11140e5c1d886a5e",
      "networkId": 0,
      "chainId": 0
    }
  ]
}