{
  "hash": "0xc01135994e13e754173ed5ed9e4a80df9711262efe06ffb4393ddc48345884b7",
  "parentHash": "0x1a407035d592c5c012d9b3394c584593d54dd7f2a24528a5ddfb1f073ba061d8",
  "number": 60974,
  "timestamp": 1439164471,
  "nonce": "0x111cf242cdd208a9",
  "difficulty": 1746512451470,
  "gasLimit": {
    "_hex": "0x2fefd8"
  },
  "gasUsed": {
    "_hex": "0x5208"
  },
  "miner": "0xA1623430350C5df1b52B0b57483A5bb45d1796Da",
  "extraData": "0x476574682f76312e302e312d38326566323666362f6c696e75782f676f312e34",
  "transactions": [
    {
      "hash": "0xde5a9881202dbe10b8ec4fc9e9b97f196b3180e9ecbe0200ea1948c750bbd4cc",
      "blockHash": "0xc01135994e13e754173ed5ed9e4a80df9711262efe06ffb4393ddc48345884b7",
      "blockNumber": 60974,
      "transactionIndex": 0,
      "confirmations": null,
      "from": "0x120A270bbC009644e35F0bB6ab13f95b8199c4ad",
      "gasPrice": {
        "_hex": "0xdead300ba"
      },
      "gasLimit": {
        "_hex": "0x15f90"
      },
      "to": "0x8b8318a75A35A384Cd6E6bC72970d3dA106886E7",
      "value": {
        "_hex": "0xde0b6b3a7640000"
      },
      "nonce": 60,
      "data": "0x",
      "r": "0x0a693da2be44987502922f764a54c984263932c201f23f98ff9c792f484728b0",
      "s": "0x00e39c5f5cc55fb3d8dfef6dddc8b75ebe20ff13022efb08ebbd6326dc11fb5a",
      "v": 28,
      "creates": null,
      "raw": "0xf86c3c850dead300ba83015f90948b8318a75a35a384cd6e6bc72970d3da106886e7880de0b6b3a7640000801ca00a693da2be44987502922f764a54c984263932c201f23f98ff9c792f484728b09fe39c5f5cc55fb3d8dfef6dddc8b75ebe20ff13022efb08ebbd6326dc11fb5a",
      "networkId": 0,
      "chainId": 0
    }
  ]
}