{
  "hash": "0xbc6ada9e7c34b0ae78dd7db1dc49cfffe9749fc62c37b75613c1b75ffa6b5344",
  "parentHash": "0xff45af1309f928a7369c96e84b8e97cae5f9abf68e02927e7ac0c5f5473dae65",
  "number": 88297,
  "timestamp": 1439605929,
  "nonce": "0x0044d18e86a8045c",
  "difficulty": 3200319106703,
  "gasLimit": {
    "_hex": "0x2fefd8"
  },
  "gasUsed": {
    "_hex": "0x5208"
  },
  "miner": "0x3ce70f7EBbb911d5FF14BB9244ac7C9be2c669B3",
  "extraData": "0xda8098302e392e34302b2b302d524c696e75782f672b2b2f696e74",
  "transactions": [
    {
      "hash": "0x17aa1a0e12fcfabbb8fdafdcdfd2f8f760de6cff1f333835e8a8f532d71a71b1",
      "blockHash": "0xbc6ada9e7c34b0ae78dd7db1dc49cfffe9749fc62c37b75613c1b75ffa6b5344",
      "blockNumber": 88297,
      "transactionIndex": 0,
      "confirmations": null,
      "from": "0x00d148560e3BCb5594F145f32E96a336EEC21921",
      "gasPrice": {
        "_hex": "0xba43b7400"
      },
      "gasLimit": {
        "_hex": "0x5213"
      },
      "to": "0x003a0659d5452a076403d1411E617C9665955d59",
      "value": {
        "_hex": "0x868f1ca0de30000"
      },
      "nonce": 0,
      "data": "0x",
      "r": "0xd5e32858bf8ee30a818b3d7b0d15e04c295f1d5c329fd695db58c755ca98c4a3",
      "s": "0x5227dad0a5e4dd72e5ee346702c8a69aa3712fd02d66f6fec51a8e81a86eecd1",
      "v": 28,
      "creates": null,
      "raw": "0xf86c80850ba43b740082521394003a0659d5452a076403d1411e617c9665955d59880868f1ca0de30000801ca0d5e32858bf8ee30a818b3d7b0d15e04c295f1d5c329fd695db58c755ca98c4a3a05227dad0a5e4dd72e5ee346702c8a69aa3712fd02d66f6fec51a8e81a86eecd1",
      "networkId": 0,
      "chainId": 0
    }
  ]
}