{
  "hash": "0x2699a70f166308210441d2ca87247bfc8b3d7858574283d9f19c5d9da436bf93",
  "parentHash": "0xe191c6c26195a6d00bcda21f8298dbe029c78df2a5784a3d3beba7b3238204de",
  "number": 115498,
  "timestamp": 1440058210,
  "nonce": "0xe153547dc99a6e98",
  "difficulty": 4580574139848,
  "gasLimit": {
    "_hex": "0x2fefd8"
  },
  "gasUsed": {
    "_hex": "0x5208"
  },
  "miner": "0xb6E2d440C46510EC44266A3f58165E3956173df0",
  "extraData": "0x476574682f76312e302e312f77696e646f77732f676f312e342e32",
  "transactions": [
    {
      "hash": "0x276e45818f33f5d22dc54d541079ef8bcdbb9145d38f32a5b9f53be8e2641da9",
      "blockHash": "0x2699a70f166308210441d2ca87247bfc8b3d7858574283d9f19c5d9da436bf93",
      "blockNumber": 115498,
      "transactionIndex": 0,
      "confirmations": null,
      "from": "0x9dc5018E753A410593259039296bBfd28E29f894",
      "gasPrice": {
        "_hex": "0xceb262355"
      },
      "gasLimit": {
        "_hex": "0x61a8"
      },
      "to": "0x50056353D06a71b1f427499419D04F81f5dE4F20",
      "value": {
        "_hex": "0xde6634678e5b7538"
      },
      "nonce": 6,
      "data": "0x",
      "r": "0xfb59dde9eabc5a8d9a529708209df7b32f4d35cb92d1ffb42afd8ee936b4513f",
      "s": "0x37c70d55665eca6349ca3e90dd6484159e11ebbea21052d560dc0b6cd889e253",
      "v": 27,
      "creates": null,
      "raw": "0xf86c06850ceb2623558261a89450056353d06a71b1f427499419d04f81f5de4f2088de6634678e5b7538801ba0fb59dde9eabc5a8d9a529708209df7b32f4d35cb92d1ffb42afd8ee936b4513fa037c70d55665eca6349ca3e90dd6484159e11ebbea21052d560dc0b6cd889e253",
      "networkId": 0,
      "chainId": 0
    }
  ]
}