{
  "hash": "0x1ace9a334992c96f49c4dda5eb46ff51552203ea2cccba04e0ea2844a0c641f5",
  "parentHash": "0xfe34b35fe375bee070a71319d1b546ae539985804231e9fbec0094d3034b2f9b",
  "number": 93314,
  "timestamp": 1439687597,
  "nonce": "0x9aeb60b2b6c96761",
  "difficulty": 3535130151996,
  "gasLimit": {
    "_hex": "0x2fefd8"
  },
  "gasUsed": {
    "_hex": "0xf618"
  },
  "miner": "0x01d9DA08cc6Fb97c0DE1B6F4C28910A0859Ed1A1",
  "extraData": "0x476574682f76312e302e312f6c696e75782f676f312e342e32",
  "transactions": [
    {
      "hash": "0x00335e97abadf54d8f64adfa641bb5b7476d66f7794d26223282c942161aef64",
      "blockHash": "0x1ace9a334992c96f49c4dda5eb46ff51552203ea2cccba04e0ea2844a0c641f5",
      "blockNumber": 93314,
      "transactionIndex": 0,
      "confirmations": null,
      "from": "0x32Be343B94f860124dC4fEe278FDCBD38C102D88",
      "gasPrice": {
        "_hex": "0xdbcc77443"
      },
      "gasLimit": {
        "_hex": "0x5208"
      },
      "to": "0x8c0A6b62918D317e3B431EfB67E3fB5eff333b1c",
      "value": {
        "_hex": "0x56bc75e2d63100000"
      },
      "nonce": 916,
      "data": "0x",
      "r": "0x64db3142a0d08e77d4131d3b59f90a3477c804b456c0f382ee239bded61dda67",
      "s": "0x4221abecc7df15dcc024c4cc5e8568e78677a1e140075fc64fb48d783a6594be",
      "v": 27,
      "creates": null,
      "raw": "0xf86f820394850dbcc77443825208948c0a6b62918d317e3b431efb67e3fb5eff333b1c89056bc75e2d63100000801ba064db3142a0d08e77d4131d3b59f90a3477c804b456c0f382ee239bded61dda67a04221abecc7df15dcc024c4cc5e8568e78677a1e140075fc64fb48d783a6594be",
      "networkId": 0,
      "chainId": 0
    },
    {
      "hash": "0x632a3f53fd6b268fa7144b590e106ba68260391dfc3af7c1db9d8840227d24ab",
      "blockHash": "0x1ace9a334992c96f49c4dda5eb46ff51552203ea2cccba04e0ea2844a0c641f5",
      "blockNumber": 93314,
      "transactionIndex": 1,
      "confirmations": null,
      "from": "0x34d34F0a638F6991e4E2536F41295DF6E934A646",
      "gasPrice": {
        "_hex": "0xdbcc77443"
      },
      "gasLimit": {
        "_hex": "0x5208"
      },
      "to": "0x32Be343B94f860124dC4fEe278FDCBD38C102D88",
      "value": {
        "_hex": "0x4785d6498e138000"
      },
      "nonce": 16,
      "data": "0x",
      "r": "0xff588d0b81a94b9044618101b544ff1704892d23ea28aade2e7350cb052f5b92",
      "s": "0x1f4371dfe5feb48528e760ee757be885e4bcd6d594819df7853148557097e201",
      "v": 28,
      "creates": null,
      "raw": "0xf86c10850dbcc774438252089432be343b94f860124dc4fee278fdcbd38c102d88884785d6498e138000801ca0ff588d0b81a94b9044618101b544ff1704892d23ea28aade2e7350cb052f5b92a01f4371dfe5feb48528e760ee757be885e4bcd6d594819df7853148557097e201",
      "networkId": 0,
      "chainId": 0
    },
    {
      "hash": "0x51f4ce7c58420802363d480b97f7cea749a36288efd0d1d7c701313768570ce4",
      "blockHash": "0x1ace9a334992c96f49c4dda5eb46ff51552203ea2cccba04e0ea2844a0c641f5",
      "blockNumber": 93314,
      "transactionIndex": 2,
      "confirmations": null,
      "from": "0xa6BDc31c431B8F97848c9D60cbbe9660dc450eB7",
      "gasPrice": {
        "_hex": "0xdbcc77443"
      },
      "gasLimit": {
        "_hex": "0x5208"
      },
      "to": "0x32Be343B94f860124dC4fEe278FDCBD38C102D88",
      "value": {
        "_hex": "0x455f2a9bc9e40000"
      },
      "nonce": 103,
      "data": "0x",
      "r": "0x975eb7b473fa901d86c6e2647fd85babb8fe4c9d634aeda58b8a96e70195aec4",
      "s": "0x66d8552b613f4765617215e50762b986db87fd3e0dfedfdf7402272af46ea791",
      "v": 27,
      "creates": null,
      "raw": "0xf86c67850dbcc774438252089432be343b94f860124dc4fee278fdcbd38c102d8888455f2a9bc9e40000801ba0975eb7b473fa901d86c6e2647fd85babb8fe4c9d634aeda58b8a96e70195aec4a066d8552b613f4765617215e50762b986db87fd3e0dfedfdf7402272af46ea791",
      "networkId": 0,
      "chainId": 0
    }
  ]
}