{
  "hash": "0x4c38cd4e68f8faceda838ff935a7d09251b6f0bde06fe6784c61fbee5c1b59c4",
  "parentHash": "0xa91dcfc1a3f31bedc774603c9af34892bd653ad8e3dfcf91c851da6e6f0791b3",
  "number": 110338,
  "timestamp": 1439972048,
  "nonce": "0x8ffa970dc7876a9b",
  "difficulty": 4364970100556,
  "gasLimit": {
    "_hex": "0x2fefd8"
  },
  "gasUsed": {
    "_hex": "0x61698"
  },
  "miner": "0xe6A7a1d47ff21B6321162AEA7C6CB457D5476Bca",
  "extraData": "0x476574682f76312e302e312d38326566323666362f6c696e75782f676f312e34",
  "transactions": [
    {
      "hash": "0x922714272f679bde8a31e16f22c96d48d8327e74e90a1bbc74c86d363bc14e09",
      "blockHash": "0x4c38cd4e68f8faceda838ff935a7d09251b6f0bde06fe6784c61fbee5c1b59c4",
      "blockNumber": 110338,
      "transactionIndex": 0,
      "confirmations": null,
      "from": "0xe6A7a1d47ff21B6321162AEA7C6CB457D5476Bca",
      "gasPrice": {
        "_hex": "0xd1d417240"
      },
      "gasLimit": {
        "_hex": "0x55f0"
      },
      "to": "0xa61ff394e3846F8bfbBF8801afb051730B04Ee75",
      "value": {
        "_hex": "0x5753c2c6af958dd0"
      },
      "nonce": 4327,
      "data": "0x",
      "r": "0xf91ea92a06680681c2203bc10c483cfb0dc020436d9f4b38959c1b6acadb75d6",
      "s": "0x463e226b4cc3b0c3080f1b6ca7530e3c282559142a7c01be4e0aff299789fb08",
      "v": 28,
      "creates": null,
      "raw": "0xf86e8210e7850d1d4172408255f094a61ff394e3846f8bfbbf8801afb051730b04ee75885753c2c6af958dd0801ca0f91ea92a06680681c2203bc10c483cfb0dc020436d9f4b38959c1b6acadb75d6a0463e226b4cc3b0c3080f1b6ca7530e3c282559142a7c01be4e0aff299789fb08",
      "networkId": 0,
      "chainId": 0
    },
    {
      "hash": "0x8eed9a82ead3c99235c5755883fb989ce53667ea716df35b465f884bda9d9542",
      "blockHash": "0x4c38cd4e68f8faceda838ff935a7d09251b6f0bde06fe6784c61fbee5c1b59c4",
      "blockNumber": 110338,
      "transactionIndex": 1,
      "confirmations": null,
      "from": "0xe6A7a1d47ff21B6321162AEA7C6CB457D5476Bca",
      "gasPrice": {
        "_hex": "0xd1d417240"
      },
      "gasLimit": {
        "_hex": "0x55f0"
      },
      "to": "0xE5cd922132641CF77d8a95dE3F3B335Ee6D54d71",
      "value": {
        "_hex": "0x57550992a93b6388"
      },
      "nonce": 4328,
      "data": "0x",
      "r": "0x3d9b4584569f37444794c9e993262b20f2fdb49a2f6a8db7c03cedd9a0b95135",
      "s": "0x09f90c8c9e2a2a2067b23381c1149cfac748823880aeb8205f83d215a10813af",
      "v": 28,
      "creates": null,
      "raw": "0xf86e8210e8850d1d4172408255f094e5cd922132641cf77d8a95de3f3b335ee6d54d718857550992a93b6388801ca03d9b4584569f37444794c9e993262b20f2fdb49a2f6a8db7c03cedd9a0b95135a009f90c8c9e2a2a2067b23381c1149cfac748823880aeb8205f83d215a10813af",
      "networkId": 0,
      "chainId": 0
    },
    {
      "hash": "0x443be24f24e85936544eec5c050437407279bc81ddffd6fb0fa7bcdc1bed858b",
      "blockHash": "0x4c38cd4e68f8faceda838ff935a7d09251b6f0bde06fe6784c61fbee5c1b59c4",
      "blockNumber": 110338,
      "transactionIndex": 2,
      "confirmations": null,
      "from": "0xe6A7a1d47ff21B6321162AEA7C6CB457D5476Bca",
      "gasPrice": {
        "_hex": "0xd1d417240"
      },
      "gasLimit": {
        "_hex": "0x55f0"
      },
      "to": "0xEa5b801969342B44467C9dE87fEfE2C1dB740bd4",
      "value": {
        "_hex": "0x57dacfba2a10cfe8"
      },
      "nonce": 4329,
      "data": "0x",
      "r": "0x03d2c8276f8ed4bc335b8ac7054da0612a6ff14b0becd5ec87d31697f2e6ce5e",
      "s": "0x5c63d343b17fc8cabdf373d9c851dbd07232502782489a40aca257cd4c472f9c",
      "v": 28,
      "creates": null,
      "raw": "0xf86e8210e9850d1d4172408255f094ea5b801969342b44467c9de87fefe2c1db740bd48857dacfba2a10cfe8801ca003d2c8276f8ed4bc335b8ac7054da0612a6ff14b0becd5ec87d31697f2e6ce5ea05c63d343b17fc8cabdf373d9c851dbd07232502782489a40aca257cd4c472f9c",
      "networkId": 0,
      "chainId": 0
    },
    {
      "hash": "0x70b6715a750fba91605b0160b4b4678ea46f80cd17d3dfa6c18cf268ec0bba98",
      "blockHash": "0x4c38cd4e68f8faceda838ff935a7d09251b6f0bde06fe6784c61fbee5c1b59c4",
      "blockNumber": 110338,
      "transactionIndex": 3,
      "confirmations": null,
      "from": "0xe6A7a1d47ff21B6321162AEA7C6CB457D5476Bca",
      "gasPrice": {
        "_hex": "0xd1d417240"
      },
      "gasLimit": {
        "_hex": "0x55f0"
      },
      "to": "0xf295fEAdD38E108Dfb2C5f327160141A69aAd43b",
      "value": {
        "_hex": "0x5804e386e218f048"
      },
      "nonce": 4330,
      "data": "0x",
      "r": "0xc53371ac357a96b0cd20687404b4d5305995c11dacedef0be69f895ebc2bc12f",
      "s": "0x1a1e6d573911dba6d319d4d977b56bcdba0ce83a7f8357e03731ed313a9315de",
      "v": 27,
      "creates": null,
      "raw": "0xf86e8210ea850d1d4172408255f094f295feadd38e108dfb2c5f327160141a69aad43b885804e386e218f048801ba0c53371ac357a96b0cd20687404b4d5305995c11dacedef0be69f895ebc2bc12fa01a1e6d573911dba6d319d4d977b56bcdba0ce83a7f8357e03731ed313a9315de",
      "networkId": 0,
      "chainId": 0
    },
    {
      "hash": "0xe666695af66855abbb54b47404a05ce87b38ee0643e8c930c45fff6cf9fd3753",
      "blockHash": "0x4c38cd4e68f8faceda838ff935a7d09251b6f0bde06fe6784c61fbee5c1b59c4",
      "blockNumber": 110338,
      "transactionIndex": 4,
      "confirmations": null,
      "from": "0xe6A7a1d47ff21B6321162AEA7C6CB457D5476Bca",
      "gasPrice": {
        "_hex": "0xd1d417240"
      },
      "gasLimit": {
        "_hex": "0x55f0"
      },
      "to": "0x4a900C6a7785648E677cd96E39603466c0C7744A",
      "value": {
        "_hex": "0x58f07b70d7d15a58"
      },
      "nonce": 4331,
      "data": "0x",
      "r": "0x427b2421f00e90a048a9db72ae74c67dc37ff0bbe4ce5fe9d65de9aa88274646",
      "s": "0x14814fc956e9de1807fa9bb84958f936c509170a4c7280660a5527b17c57cf76",
      "v": 28,
      "creates": null,
      "raw": "0xf86e8210eb850d1d4172408255f0944a900c6a7785648e677cd96e39603466c0c7744a8858f07b70d7d15a58801ca0427b2421f00e90a048a9db72ae74c67dc37ff0bbe4ce5fe9d65de9aa88274646a014814fc956e9de1807fa9bb84958f936c509170a4c7280660a5527b17c57cf76",
      "networkId": 0,
      "chainId": 0
    },
    {
      "hash": "0xe624cc5ad2ab8750f48e11193c15ad41357d7cecbdf93d1ebe38e6310e138216",
      "blockHash": "0x4c38cd4e68f8faceda838ff935a7d09251b6f0bde06fe6784c61fbee5c1b59c4",
      "blockNumber": 110338,
      "transactionIndex": 5,
      "confirmations": null,
      "from": "0xe6A7a1d47ff21B6321162AEA7C6CB457D5476Bca",
      "gasPrice": {
        "_hex": "0xd1d417240"
      },
      "gasLimit": {
        "_hex": "0x55f0"
      },
      "to": "0xCE09fD3E23b65BaD12809190a19b6BFCFfD48c35",
      "value": {
        "_hex": "0x5909a7be48c08e90"
      },
      "nonce": 4332,
      "data": "0x",
      "r": "0xbc8ec24eeecef071ce49974bdedbd26c53ba8f99b6ec9aff868787a997ec7bcc",
      "s": "0x4a886e9e35c0e40d6822ad34a43e4b2998c7b2c50c0fc504b348c9a87b6f7d5b",
      "v": 28,
      "creates": null,
      "raw": "0xf86e8210ec850d1d4172408255f094ce09fd3e23b65bad12809190a19b6bfcffd48c35885909a7be48c08e90801ca0bc8ec24eeecef071ce49974bdedbd26c53ba8f99b6ec9aff868787a997ec7bcca04a886e9e35c0e40d6822ad34a43e4b2998c7b2c50c0fc504b348c9a87b6f7d5b",
      "networkId": 0,
      "chainId": 0
    },
    {
      "hash": "0xec0f9fff3e5227cba5e77ec422f2fe88b328215d680d543c7e588b3851035eb5",
      "blockHash": "0x4c38cd4e68f8faceda838ff935a7d09251b6f0bde06fe6784c61fbee5c1b59c4",
      "blockNumber": 110338,
      "transactionIndex": 6,
      "confirmations": null,
      "from": "0xe6A7a1d47ff21B6321162AEA7C6CB457D5476Bca",
      "gasPrice": {
        "_hex": "0xd1d417240"
      },
      "gasLimit": {
        "_hex": "0x55f0"
      },
      "to": "0x4b0a38C16B842d68A8721B4CAd662e07cc430652",
      "value": {
        "_hex": "0x5919ab2d02570c90"
      },
      "nonce": 4333,
      "data": "0x",
      "r": "0x6e8e30d427490045beaf4f4ce8a4821a3f31f04bd38f4c97f0c88fcbb87fac8d",
      "s": "0x2451f238755a850acc00b6a79e6938adf4b3985a3e78685c379fb12d93efadc9",
      "v": 28,
      "creates": null,
      "raw": "0xf86e8210ed850d1d4172408255f0944b0a38c16b842d68a8721b4cad662e07cc430652885919ab2d02570c90801ca06e8e30d427490045beaf4f4ce8a4821a3f31f04bd38f4c97f0c88fcbb87fac8da02451f238755a850acc00b6a79e6938adf4b3985a3e78685c379fb12d93efadc9",
      "networkId": 0,
      "chainId": 0
    },
    {
      "hash": "0x0e161bd50201f6dc8035902f2020747b29895429784032900a60133f282eb5df",
      "blockHash": "0x4c38cd4e68f8faceda838ff935a7d09251b6f0bde06fe6784c61fbee5c1b59c4",
      "blockNumber": 110338,
      "transactionIndex": 7,
      "confirmations": null,
      "from": "0xe6A7a1d47ff21B6321162AEA7C6CB457D5476Bca",
      "gasPrice": {
        "_hex": "0xd1d417240"
      },
      "gasLimit": {
        "_hex": "0x55f0"
      },
      "to": "0xe535C1c29F0091324F184de7a5be5520D1b0b008",
      "value": {
        "_hex": "0x597a3bb3facf6d28"
      },
      "nonce": 4334,
      "data": "0x",
      "r": "0x5d15da8f8f2efabafc01186d53ca9c92b5afc74d9394a84c13bb0c96098aedad",
      "s": "0x324228b59f4a9270788e81798cb4f0bb622badf94e43996ec00841c7a0039e5b",
      "v": 27,
      "creates": null,
      "raw": "0xf86e8210ee850d1d4172408255f094e535c1c29f0091324f184de7a5be5520d1b0b00888597a3bb3facf6d28801ba05d15da8f8f2efabafc01186d53ca9c92b5afc74d9394a84c13bb0c96098aedada0324228b59f4a9270788e81798cb4f0bb622badf94e43996ec00841c7a0039e5b",
      "networkId": 0,
      "chainId": 0
    },
    {
      "hash": "0x9b9fb37e9e60dd66f8bbf1a63907d362c390ce89d458ed9b53c782d51671b2bc",
      "blockHash": "0x4c38cd4e68f8faceda838ff935a7d09251b6f0bde06fe6784c61fbee5c1b59c4",
      "blockNumber": 110338,
      "transactionIndex": 8,
      "confirmations": null,
      "from": "0xe6A7a1d47ff21B6321162AEA7C6CB457D5476Bca",
      "gasPrice": {
        "_hex": "0xd1d417240"
      },
      "gasLimit": {
        "_hex": "0x55f0"
      },
      "to": "0xA4b566f129e5810957eF8cC2F750383E488D35Dd",
      "value": {
        "_hex": "0x5991701957bf3af8"
      },
      "nonce": 4335,
      "data": "0x",
      "r": "0x52c3bbb408cccd4b892107ceea356619e648f4d9f8f90aaedf175dfa928804cb",
      "s": "0x0eb9bddf5e2b04050e61c3b37360388e3d97bafae39273dc6971ea0cb1e52e76",
      "v": 27,
      "creates": null,
      "raw": "0xf86e8210ef850d1d4172408255f094a4b566f129e5810957ef8cc2f750383e488d35dd885991701957bf3af8801ba052c3bbb408cccd4b892107ceea356619e648f4d9f8f90aaedf175dfa928804cba00eb9bddf5e2b04050e61c3b37360388e3d97bafae39273dc6971ea0cb1e52e76",
      "networkId": 0,
      "chainId": 0
    },
    {
      "hash": "0x2796ab3446cb31d3a7b03b3297a9f98afce91493bf8d47611cc08bcfc62df38a",
      "blockHash": "0x4c38cd4e68f8faceda838ff935a7d09251b6f0bde06fe6784c61fbee5c1b59c4",
      "blockNumber": 110338,
      "transactionIndex": 9,
      "confirmations": null,
      "from": "0xe6A7a1d47ff21B6321162AEA7C6CB457D5476Bca",
      "gasPrice": {
        "_hex": "0xd1d417240"
      },
      "gasLimit": {
        "_hex": "0x55f0"
      },
      "to": "0xe9B6523ad9492Fc53F2FBb9480958aefC4A4b1c9",
      "value": {
        "_hex": "0x59bd073e6fa38b00"
      },
      "nonce": 4336,
      "data": "0x",
      "r": "0x34f345c6e7ca5f1f9fa9c93d4bd320369445c83932786050500e588695ceb914",
      "s": "0x0bd2803be4f2d4047028fca1a1828dfa169ad8f01429d98cf34589864846f747",
      "v": 27,
      "creates": null,
      "raw": "0xf86e8210f0850d1d4172408255f094e9b6523ad9492fc53f2fbb9480958aefc4a4b1c98859bd073e6fa38b00801ba034f345c6e7ca5f1f9fa9c93d4bd320369445c83932786050500e588695ceb914a00bd2803be4f2d4047028fca1a1828dfa169ad8f01429d98cf34589864846f747",
      "networkId": 0,
      "chainId": 0
    },
    {
      "hash": "0x8507939c1ced6e2f8e2855133860164977cb2819b92723a9d4c75df81ee1cddb",
      "blockHash": "0x4c38cd4e68f8faceda838ff935a7d09251b6f0bde06fe6784c61fbee5c1b59c4",
      "blockNumber": 110338,
      "transactionIndex": 10,
      "confirmations": null,
      "from": "0xe6A7a1d47ff21B6321162AEA7C6CB457D5476Bca",
      "gasPrice": {
        "_hex": "0xd1d417240"
      },
      "gasLimit": {
        "_hex": "0x55f0"
      },
      "to": "0xDdaCBcba2a4fe9313F7CCA044872A9c51bD1E4c8",
      "value": {
        "_hex": "0x5b91fe51536d5ae8"
      },
      "nonce": 4337,
      "data": "0x",
      "r": "0x850cacd943634ed1bc567969d1c236bb10833b85f79e67b3e573e0404f2c27f1",
      "s": "0x1726374b82b3427f0e46fd53f8d10290c8d46a58cd7c7ad4f4cfab61d257e03f",
      "v": 28,
      "creates": null,
      "raw": "0xf86e8210f1850d1d4172408255f094ddacbcba2a4fe9313f7cca044872a9c51bd1e4c8885b91fe51536d5ae8801ca0850cacd943634ed1bc567969d1c236bb10833b85f79e67b3e573e0404f2c27f1a01726374b82b3427f0e46fd53f8d10290c8d46a58cd7c7ad4f4cfab61d257e03f",
      "networkId": 0,
      "chainId": 0
    },
    {
      "hash": "0x01d8aab97b6a387539c69c03887e43726741cf18dad4c3c4c36db6705dc456f5",
      "blockHash": "0x4c38cd4e68f8faceda838ff935a7d09251b6f0bde06fe6784c61fbee5c1b59c4",
      "blockNumber": 110338,
      "transactionIndex": 11,
      "confirmations": null,
      "from": "0xe6A7a1d47ff21B6321162AEA7C6CB457D5476Bca",
      "gasPrice": {
        "_hex": "0xd1d417240"
      },
      "gasLimit": {
        "_hex": "0x55f0"
      },
      "to": "0xb4eb03c9bDD4944DE22085E8e1dB5Ebd36889Bd8",
      "value": {
        "_hex": "0x5bfc7ccd272e0dc8"
      },
      "nonce": 4338,
      "data": "0x",
      "r": "0xe358b0bdc0cd3a6c0848131732e91ee74e04fd768d4555b909400b44f097ecab",
      "s": "0x30925fa368e3dbe51483013399f4a48abab7113f0a77959f1875eea7631cf264",
      "v": 28,
      "creates": null,
      "raw": "0xf86e8210f2850d1d4172408255f094b4eb03c9bdd4944de22085e8e1db5ebd36889bd8885bfc7ccd272e0dc8801ca0e358b0bdc0cd3a6c0848131732e91ee74e04fd768d4555b909400b44f097ecaba030925fa368e3dbe51483013399f4a48abab7113f0a77959f1875eea7631cf264",
      "networkId": 0,
      "chainId": 0
    },
    {
      "hash": "0x499e0e0d5e08ecd54a9ac0a0323505f3df5dd92ead80fb3be5454e495983d20b",
      "blockHash": "0x4c38cd4e68f8faceda838ff935a7d09251b6f0bde06fe6784c61fbee5c1b59c4",
      "blockNumber": 110338,
      "transactionIndex": 12,
      "confirmations": null,
      "from": "0xe6A7a1d47ff21B6321162AEA7C6CB457D5476Bca",
      "gasPrice": {
        "_hex": "0xd1d417240"
      },
      "gasLimit": {
        "_hex": "0x55f0"
      },
      "to": "0x4369BF4867c99a39513Bb176d468A7e326F3a542",
      "value": {
        "_hex": "0x5c11b225fd93cfe0"
      },
      "nonce": 4339,
      "data": "0x",
      "r": "0x79b27e8db7274a6d77845f0f6e6023936d560853865b84ebf603442160f1d327",
      "s": "0x4bdb94fb096e321ea04bb6d1c687bbe7d3e141eb67f7694bb19b80ee799b6bd6",
      "v": 27,
      "creates": null,
      "raw": "0xf86e8210f3850d1d4172408255f0944369bf4867c99a39513bb176d468a7e326f3a542885c11b225fd93cfe0801ba079b27e8db7274a6d77845f0f6e6023936d560853865b84ebf603442160f1d327a04bdb94fb096e321ea04bb6d1c687bbe7d3e141eb67f7694bb19b80ee799b6bd6",
      "networkId": 0,
      "chainId": 0
    },
    {
      "hash": "0xb3e17bb5f3738feac817ab93cf020bc67781231da713a632f29ac5a5a74bd88f",
      "blockHash": "0x4c38cd4e68f8faceda838ff935a7d09251b6f0bde06fe6784c61fbee5c1b59c4",
      "blockNumber": 110338,
      "transactionIndex": 13,
      "confirmations": null,
      "from": "0xe6A7a1d47ff21B6321162AEA7C6CB457D5476Bca",
      "gasPrice": {
        "_hex": "0xd1d417240"
      },
      "gasLimit": {
        "_hex": "0x55f0"
      },
      "to": "0xEa4933866ad977Ce24bBb244ECc2C79463454Fe4",
      "value": {
        "_hex": "0x5cf95b0ce542c568"
      },
      "nonce": 4340,
      "data": "0x",
      "r": "0xd80108a89e19ed56946cc7870aea7fe4d430af586e60a6b339b84239bdb30fab",
      "s": "0x084fd4c973314d008ae7b1eff205151f9e7be8222c9ebaa42a0e45ac54a7e95d",
      "v": 28,
      "creates": null,
      "raw": "0xf86e8210f4850d1d4172408255f094ea4933866ad977ce24bbb244ecc2c79463454fe4885cf95b0ce542c568801ca0d80108a89e19ed56946cc7870aea7fe4d430af586e60a6b339b84239bdb30faba0084fd4c973314d008ae7b1eff205151f9e7be8222c9ebaa42a0e45ac54a7e95d",
      "networkId": 0,
      "chainId": 0
    },
    {
      "hash": "0x26af056a231f83b44aec746ae75adc3f07fa00085dc45c1bfea21234c459652e",
      "blockHash": "0x4c38cd4e68f8faceda838ff935a7d09251b6f0bde06fe6784c61fbee5c1b59c4",
      "blockNumber": 110338,
      "transactionIndex": 14,
      "confirmations": null,
      "from": "0xe6A7a1d47ff21B6321162AEA7C6CB457D5476Bca",
      "gasPrice": {
        "_hex": "0xd1d417240"
      },
      "gasLimit": {
        "_hex": "0x55f0"
      },
      "to": "0x3175a28CF6105466923f11bFFabD279F162aa2f8",
      "value": {
        "_hex": "0x5d9e1f5571d47560"
      },
      "nonce": 4341,
      "data": "0x",
      "r": "0xcba081bafa466a3a947631ed345d109d899c955b8eadc79e5fbd77cd3b4c6316",
      "s": "0x72b2e9c604cf03fd81631869ff9ca957c2b499ff2d8b89a078f0a4b486d7406f",
      "v": 27,
      "creates": null,
      "raw": "0xf86e8210f5850d1d4172408255f0943175a28cf6105466923f11bffabd279f162aa2f8885d9e1f5571d47560801ba0cba081bafa466a3a947631ed345d109d899c955b8eadc79e5fbd77cd3b4c6316a072b2e9c604cf03fd81631869ff9ca957c2b499ff2d8b89a078f0a4b486d7406f",
      "networkId": 0,
      "chainId": 0
    },
    {
      "hash": "0x153a799e17800a997e17840b768ca97f3c8b37590fda7964ab0e7e68067ae2b3",
      "blockHash": "0x4c38cd4e68f8faceda838ff935a7d09251b6f0bde06fe6784c61fbee5c1b59c4",
      "blockNumber": 110338,
      "transactionIndex": 15,
      "confirmations": null,
      "from": "0xe6A7a1d47ff21B6321162AEA7C6CB457D5476Bca",
      "gasPrice": {
        "_hex": "0xd1d417240"
      },
      "gasLimit": {
        "_hex": "0x55f0"
      },
      "to": "0xeCdf9d571849dE520c84eBEd7Ac4551e483eA5b3",
      "value": {
        "_hex": "0x5dc7010dea301d58"
      },
      "nonce": 4342,
      "data": "0x",
      "r": "0x8cf603a5b9fa659584802001ebb3b0b212debfe0398521b86e0d4166e1797da6",
      "s": "0x47cd19163144239c3249acceac0102b5d5652305f7f352e07adccca8ca965f1a",
      "v": 28,
      "creates": null,
      "raw": "0xf86e8210f6850d1d4172408255f094ecdf9d571849de520c84ebed7ac4551e483ea5b3885dc7010dea301d58801ca08cf603a5b9fa659584802001ebb3b0b212debfe0398521b86e0d4166e1797da6a047cd19163144239c3249acceac0102b5d5652305f7f352e07adccca8ca965f1a",
      "networkId": 0,
      "chainId": 0
    },
    {
      "hash": "0xd18a7eb26f301ddade68b2270d1b2116540eb365505a14489bfa265b289776a6",
      "blockHash": "0x4c38cd4e68f8faceda838ff935a7d09251b6f0bde06fe6784c61fbee5c1b59c4",
      "blockNumber": 110338,
      "transactionIndex": 16,
      "confirmations": null,
      "from": "0x1d06b86EBBfD6bA717B6d14c0136dE1D88aa5989",
      "gasPrice": {
        "_hex": "0xced5657a5"
      },
      "gasLimit": {
        "_hex": "0x5208"
      },
      "to": "0x32Be343B94f860124dC4fEe278FDCBD38C102D88",
      "value": {
        "_hex": "0x15bd4b725fc68000"
      },
      "nonce": 7,
      "data": "0x",
      "r": "0x5616d73e3486945143ef666967ebd8bdcff89ed7588f5a44236816257d9ebc27",
      "s": "0x59a24e75abffdbe699c17031fb7d3a0f0cce7f4c77e090857ec0dcd990b0173a",
      "v": 28,
      "creates": null,
      "raw": "0xf86c07850ced5657a58252089432be343b94f860124dc4fee278fdcbd38c102d888815bd4b725fc68000801ca05616d73e3486945143ef666967ebd8bdcff89ed7588f5a44236816257d9ebc27a059a24e75abffdbe699c17031fb7d3a0f0cce7f4c77e090857ec0dcd990b0173a",
      "networkId": 0,
      "chainId": 0
    },
    {
      "hash": "0x5047884ecd487d8d615527d97e2abec7975f3c258c48855d0d1e1c99934fc9ef",
      "blockHash": "0x4c38cd4e68f8faceda838ff935a7d09251b6f0bde06fe6784c61fbee5c1b59c4",
      "blockNumber": 110338,
      "transactionIndex": 17,
      "confirmations": null,
      "from": "0x3D1d22d2A05a3E9b3792561f2FF5f8D879352d6c",
      "gasPrice": {
        "_hex": "0xced5657a5"
      },
      "gasLimit": {
        "_hex": "0x5208"
      },
      "to": "0x32Be343B94f860124dC4fEe278FDCBD38C102D88",
      "value": {
        "_hex": "0x1344e22fc8f82000"
      },
      "nonce": 6,
      "data": "0x",
      "r": "0x5d2767140d256c99072860e2274ef230d13314457c531c0d5f6a37fb9fb2f443",
      "s": "0x663bf51254b33ef2700b652035aa6607c87f86fafed852c9761ebae011e8e7e2",
      "v": 28,
      "creates": null,
      "raw": "0xf86c06850ced5657a58252089432be343b94f860124dc4fee278fdcbd38c102d88881344e22fc8f82000801ca05d2767140d256c99072860e2274ef230d13314457c531c0d5f6a37fb9fb2f443a0663bf51254b33ef2700b652035aa6607c87f86fafed852c9761ebae011e8e7e2",
      "networkId": 0,
      "chainId": 0
    },
    {
      "hash": "0x9d2a6b1de0bbaad6ce96cce5c16a8262d1d18dfe25580d9bf5c6f43dfa5d50df",
      "blockHash": "0x4c38cd4e68f8faceda838ff935a7d09251b6f0bde06fe6784c61fbee5c1b59c4",
      "blockNumber": 110338,
      "transactionIndex": 18,
      "confirmations": null,
      "from": "0x68d3578bFBeEFB9C1e31cE355A29ad3a107F88C5",
      "gasPrice": {
        "_hex": "0xced5657a5"
      },
      "gasLimit": {
        "_hex": "0x5208"
      },
      "to": "0x32Be343B94f860124dC4fEe278FDCBD38C102D88",
      "value": {
        "_hex": "0x1a5220f2bce99800"
      },
      "nonce": 7,
      "data": "0x",
      "r": "0xd064ca0adab2f2e313134d970d9d68d5c076df6d5da85031c13d1946c40c93f3",
      "s": "0x747a91eb1629736ad488b37e316aa8c2dc9b1e7bc8e2e78aa661de8a206613bd",
      "v": 28,
      "creates": null,
      "raw": "0xf86c07850ced5657a58252089432be343b94f860124dc4fee278fdcbd38c102d88881a5220f2bce99800801ca0d064ca0adab2f2e313134d970d9d68d5c076df6d5da85031c13d1946c40c93f3a0747a91eb1629736ad488b37e316aa8c2dc9b1e7bc8e2e78aa661de8a206613bd",
      "networkId": 0,
      "chainId": 0
    }
  ]
}