{
  "hash": "0x9eee9cd2fad1f8aebf21537c193989b85247ae4efd13031a1cc50e8a508ac4b2",
  "parentHash": "0xa962ab7cbeda359614042ddf8058a07a938782adb57be497ed98d418adbbce06",
  "number": 98474,
  "timestamp": 1439773369,
  "nonce": "0x455809b0d63dba70",
  "difficulty": 3865065983213,
  "gasLimit": {
    "_hex": "0x2fefd8"
  },
  "gasUsed": {
    "_hex": "0x546c"
  },
  "miner": "0xe6A7a1d47ff21B6321162AEA7C6CB457D5476Bca",
  "extraData": "0x476574682f76312e302e312d38326566323666362f6c696e75782f676f312e34",
  "transactions": [
    {
      "hash": "0x68a2056a72a675ec7c43c0a24113879f87068295cd24d9cf4444842cb78e0a80",
      "blockHash": "0x9eee9cd2fad1f8aebf21537c193989b85247ae4efd13031a1cc50e8a508ac4b2",
      "blockNumber": 98474,
      "transactionIndex": 0,
      "confirmations": null,
      "from": "0xB3A6Bd41f9d9C3201e050b87198FBdA399342210",
      "gasPrice": {
        "_hex": "0x110c8f7d8de"
      },
      "gasLimit": {
        "_hex": "0xc350"
      },
      "to": "0x2910543Af39abA0Cd09dBb2D50200b3E800A63D2",
      "value": {
        "_hex": "0xde0b6b3a7640000"
      },
      "nonce": 0,
      "data": "0x454e504647514d3138",
      "r": "0xa3c43d5eb8c0f009fb087be4c8b38e1d94a9d05d5bb16a74e02874626ed9a4d4",
      "s": "0xe980124708190cc7ede41132a662a81eec02d2395a84367849a297eafab0b50f",
      "v": 27,
      "creates": null,
      "raw": "0xf87680860110c8f7d8de82c350942910543af39aba0cd09dbb2d50200b3e800a63d2880de0b6b3a764000089454e504647514d31381ba0a3c43d5eb8c0f009fb087be4c8b38e1d94a9d05d5bb16a74e02874626ed9a4d4a0e980124708190cc7ede41132a662a81eec02d2395a84367849a297eafab0b50f",
      "networkId": 0,
      "chainId": 0
    }
  ]
}