{
  "hash": "0x19a61a3df2cfd9ff251ca053eced3a0e8dfec8c61d72452d922dd4e16306d2ce",
  "parentHash": "0x5c8b9223f9951bf32bb1bc4197e1965a8c530234d8d81b412f26d4ae4c1a870d",
  "number": 96209,
  "timestamp": 1439736686,
  "nonce": "0x2230c91336e783c2",
  "difficulty": 3669306446532,
  "gasLimit": {
    "_hex": "0x2fefd8"
  },
  "gasUsed": {
    "_hex": "0x5208"
  },
  "miner": "0xe6A7a1d47ff21B6321162AEA7C6CB457D5476Bca",
  "extraData": "0x476574682f76312e302e312d38326566323666362f6c696e75782f676f312e34",
  "transactions": [
    {
      "hash": "0xcd06dddc6d04c95a1c9606408bc7f91aea6416d83e23b3d1dce8d63c1dded961",
      "blockHash": "0x19a61a3df2cfd9ff251ca053eced3a0e8dfec8c61d72452d922dd4e16306d2ce",
      "blockNumber": 96209,
      "transactionIndex": 0,
      "confirmations": null,
      "from": "0xF109ca710C0Df51c1a86dBA1B0BA0Ed038114463",
      "gasPrice": {
        "_hex": "0xd8e8b665f"
      },
      "gasLimit": {
        "_hex": "0x5208"
      },
      "to": "0x32Be343B94f860124dC4fEe278FDCBD38C102D88",
      "value": {
        "_hex": "0x8ac2caeede81d000"
      },
      "nonce": 12,
      "data": "0x",
      "r": "0xe33e553b21a3012aecec2c8e7fcf17f454511e53a0c48ff6e4102df2249b00b6",
      "s": "0x4c47972ab92b72f5b0513172b1d6555ad39c5049f834323082148121e7e7491d",
      "v": 27,
      "creates": null,
      "raw": "0xf86c0c850d8e8b665f8252089432be343b94f860124dc4fee278fdcbd38c102d88888ac2caeede81d000801ba0e33e553b21a3012aecec2c8e7fcf17f454511e53a0c48ff6e4102df2249b00b6a04c47972ab92b72f5b0513172b1d6555ad39c5049f834323082148121e7e7491d",
      "networkId": 0,
      "chainId": 0
    }
  ]
}