{
  "hash": "0x1cb20dff3ab9e4f020cf379eb3ef0c41ee95417f15dca1e47d9fa8fa6f619b19",
  "parentHash": "0xd42f2408d9faf523a9b0b4618a79faabcb25eda69bb0fd6fbbc522189bc11dd3",
  "number": 76064,
  "timestamp": 1439414290,
  "nonce": "0xe5bb4924cfdbcb26",
  "difficulty": 2242912380234,
  "gasLimit": {
    "_hex": "0x2fefd8"
  },
  "gasUsed": {
    "_hex": "0xa674"
  },
  "miner": "0x893FF53FE9b3DA680472E1948F2294F970D44678",
  "extraData": "0x476574682f76312e302e312f6c696e75782f676f312e342e32",
  "transactions": [
    {
      "hash": "0xee5739e8baf8e5d0878a452e8c6158c5d48a7851b7d411a13c546eccd5283021",
      "blockHash": "0x1cb20dff3ab9e4f020cf379eb3ef0c41ee95417f15dca1e47d9fa8fa6f619b19",
      "blockNumber": 76064,
      "transactionIndex": 0,
      "confirmations": null,
      "from": "0xb2f9c972C1e9737755B3FF1B3088738396395B26",
      "gasPrice": {
        "_hex": "0x110c8f7d8de"
      },
      "gasLimit": {
        "_hex": "0xc350"
      },
      "to": "0x2910543Af39abA0Cd09dBb2D50200b3E800A63D2",
      "value": {
        "_hex": "0x10f0cf064dd59200000"
      },
      "nonce": 1,
      "data": "0x454e35354744473030",
      "r": "0x8cb458997d252c995260ec611fcbf0576a1db687051892a4839e813633c2d8f1",
      "s": "0xb50ec7b620c2ede59247b18e9c0a5413f5ee87b407dac62b4ca228ba18b05511",
      "v": 28,
      "creates": null,
      "raw": "0xf87801860110c8f7d8de82c350942910543af39aba0cd09dbb2d50200b3e800a63d28a010f0cf064dd5920000089454e353547444730301ca08cb458997d252c995260ec611fcbf0576a1db687051892a4839e813633c2d8f1a0b50ec7b620c2ede59247b18e9c0a5413f5ee87b407dac62b4ca228ba18b05511",
      "networkId": 0,
      "chainId": 0
    },
    {
      "hash": "0xed03b326dcb4d7b3dad0eb5fea0bdcea7fbc12a318a473ac1010fd06051c8b06",
      "blockHash": "0x1cb20dff3ab9e4f020cf379eb3ef0c41ee95417f15dca1e47d9fa8fa6f619b19",
      "blockNumber": 76064,
      "transactionIndex": 1,
      "confirmations": null,
      "from": "0xc1A0C41BD9ab5DC2508d9a9bcd51A3Bb6513F48B",
      "gasPrice": {
        "_hex": "0xfdc93e044b"
      },
      "gasLimit": {
        "_hex": "0x15f90"
      },
      "to": "0xcc71a3b4707041559d69f774284f47E8272be370",
      "value": {
        "_hex": "0x8963dd8c2c5e0000"
      },
      "nonce": 0,
      "data": "0x",
      "r": "0x7e4b44858becefcccef7bacbed6429f1ab5a03c35c4885f0b0fe05065f9d1775",
      "s": "0x68826e0a7f15a61005ab5d2940e77866d34ee88f9e700307086565ecec058e3c",
      "v": 28,
      "creates": null,
      "raw": "0xf86d8085fdc93e044b83015f9094cc71a3b4707041559d69f774284f47e8272be370888963dd8c2c5e0000801ca07e4b44858becefcccef7bacbed6429f1ab5a03c35c4885f0b0fe05065f9d1775a068826e0a7f15a61005ab5d2940e77866d34ee88f9e700307086565ecec058e3c",
      "networkId": 0,
      "chainId": 0
    }
  ]
}