{
  "hash": "0x937ec7e73bdc729c369903317f92059d842f017179852aa1ab7ad5ab95cfc1ea",
  "parentHash": "0xdf944200097fb65bd5acadabc8d782008f60145783706bae6640c4b8f1b3999d",
  "number": 73687,
  "timestamp": 1439373108,
  "nonce": "0x2b7494c003aece45",
  "difficulty": 2231530019192,
  "gasLimit": {
    "_hex": "0x2fefd8"
  },
  "gasUsed": {
    "_hex": "0x88ce"
  },
  "miner": "0xec97362a3F81323111b2AaAde44c15794Cec9437",
  "extraData": "0xda8098302e392e34302b2b302d524c696e75782f672b2b2f696e74",
  "transactions": [
    {
      "hash": "0x94761735d0e01380b60864ef41881a58c898154e9ec5421cace40345014c870c",
      "blockHash": "0x937ec7e73bdc729c369903317f92059d842f017179852aa1ab7ad5ab95cfc1ea",
      "blockNumber": 73687,
      "transactionIndex": 0,
      "confirmations": null,
      "from": "0xD1826373C4E0938f0b4302B40324f7f9c546492C",
      "gasPrice": {
        "_hex": "0xd8364fc25"
      },
      "gasLimit": {
        "_hex": "0x30d40"
      },
      "to": "0x91601CBAb0bD60A0BC314a409da5070f135BeC6E",
      "value": {
        "_hex": "0xe8d4a51000"
      },
      "nonce": 7,
      "data": "0x",
      "r": "0x33c9f59a19c5a8ca414eff31af7f856333404461d0497d7d920a5d8ed7b9a192",
      "s": "0x1ee49e5b8750a06ea4f64c51ca534756535ed017d336cb63e8f590cc6d4694b0",
      "v": 27,
      "creates": null,
      "raw": "0xf86a07850d8364fc2583030d409491601cbab0bd60a0bc314a409da5070f135bec6e85e8d4a51000801ba033c9f59a19c5a8ca414eff31af7f856333404461d0497d7d920a5d8ed7b9a192a01ee49e5b8750a06ea4f64c51ca534756535ed017d336cb63e8f590cc6d4694b0",
      "networkId": 0,
      "chainId": 0
    }
  ]
}