{
  "hash": "0xea4ae907dd7a204da4955a81b4b0e971487c0764ca3eef838fdfeb5127b1de88",
  "parentHash": "0xaa64fe8bbd441ebb5da0fabb2a8e1d115271a4fbd7874503c6cfca55e49a59a1",
  "number": 55025,
  "timestamp": 1439064220,
  "nonce": "0x3c0cd72de111417c",
  "difficulty": 1621940145934,
  "gasLimit": {
    "_hex": "0x2fefd8"
  },
  "gasUsed": {
    "_hex": "0xa674"
  },
  "miner": "0xF2d2AfF1320476cb8C6b607199D23175cc595693",
  "extraData": "0x476574682f76312e302e312f77696e646f77732f676f312e342e32",
  "transactions": [
    {
      "hash": "0xe151487aa248740e8742f9dbecfbbcf0b8cf6cb9a1afb9c3ea41ddd4e26a4c82",
      "blockHash": "0xea4ae907dd7a204da4955a81b4b0e971487c0764ca3eef838fdfeb5127b1de88",
      "blockNumber": 55025,
      "transactionIndex": 0,
      "confirmations": null,
      "from": "0x263e57DacBE0149f82Fe65a2664898866fF5B463",
      "gasPrice": {
        "_hex": "0x110c8f7d8de"
      },
      "gasLimit": {
        "_hex": "0xc350"
      },
      "to": "0x2910543Af39abA0Cd09dBb2D50200b3E800A63D2",
      "value": {
        "_hex": "0x80bee0f14ab645c0000"
      },
      "nonce": 0,
      "data": "0x454e44425034573430",
      "r": "0xef63196a1b227f031cf98fa72edf01020d72d885e29783038067ef1484cb6507",
      "s": "0xacba1c8462ec6c74de8e1424b95b0f107f27fa3cf66beea13ec6a4d9d0d041e7",
      "v": 27,
      "creates": null,
      "raw": "0xf87880860110c8f7d8de82c350942910543af39aba0cd09dbb2d50200b3e800a63d28a080bee0f14ab645c000089454e444250345734301ba0ef63196a1b227f031cf98fa72edf01020d72d885e29783038067ef1484cb6507a0acba1c8462ec6c74de8e1424b95b0f107f27fa3cf66beea13ec6a4d9d0d041e7",
      "networkId": 0,
      "chainId": 0
    },
    {
      "hash": "0x38de924905c5f93aea24b3b0d877116c4a6f4cce9e09ae362c52e941840e147a",
      "blockHash": "0xea4ae907dd7a204da4955a81b4b0e971487c0764ca3eef838fdfeb5127b1de88",
      "blockNumber": 55025,
      "transactionIndex": 1,
      "confirmations": null,
      "from": "0x843bd3502f45F8bc4da370b323BdaC3fCF5f19A6",
      "gasPrice": {
        "_hex": "0xd6aa6e82c"
      },
      "gasLimit": {
        "_hex": "0x15f90"
      },
      "to": "0x3c0552a53b84E1F265708FA1AfA9b5E71ccAffFa",
      "value": {
        "_hex": "0x1b9de674df070000"
      },
      "nonce": 2,
      "data": "0x",
      "r": "0x749f84cc3ef683fd33b8d17b3f02e62f02f5d5afb3f865e60dcdec1843dc9d3e",
      "s": "0x4b967f572c84ce1573aff832cb5a2f9830375bbb6dada6e20aeaf73cdcf58ec3",
      "v": 28,
      "creates": null,
      "raw": "0xf86d02850d6aa6e82c83015f90943c0552a53b84e1f265708fa1afa9b5e71ccafffa881b9de674df070000801ca0749f84cc3ef683fd33b8d17b3f02e62f02f5d5afb3f865e60dcdec1843dc9d3ea04b967f572c84ce1573aff832cb5a2f9830375bbb6dada6e20aeaf73cdcf58ec3",
      "networkId": 0,
      "chainId": 0
    }
  ]
}