{
  "hash": "0x1db95d3e74a225270d15ee44a55ce9958f7c2952a43fb26a6ceb80557d4e68ca",
  "parentHash": "0xbb66a6a7be1026962e4edc888da59e129527038406d1dff2518597f9818ac08b",
  "number": 67013,
  "timestamp": 1439264263,
  "nonce": "0x28a7b1766687fefd",
  "difficulty": 1944123386409,
  "gasLimit": {
    "_hex": "0x2fefd8"
  },
  "gasUsed": {
    "_hex": "0x5208"
  },
  "miner": "0x0193d941b50d91BE6567c7eE1C0Fe7AF498b4137",
  "extraData": "0x4a5ace9e4e",
  "transactions": [
    {
      "hash": "0x133c4e42aee9ef8ef9dac9122a4e803a038a695c62f0903b69c5eaf259953951",
      "blockHash": "0x1db95d3e74a225270d15ee44a55ce9958f7c2952a43fb26a6ceb80557d4e68ca",
      "blockNumber": 67013,
      "transactionIndex": 0,
      "confirmations": null,
      "from": "0x95dF4e3445D7662624c48eba74cF9e0a53E9f732",
      "gasPrice": {
        "_hex": "0xcf81fe65a"
      },
      "gasLimit": {
        "_hex": "0x5208"
      },
      "to": "0x43279854AaF8825a6d1fcCf056caF190Ab8a7b76",
      "value": {
        "_hex": "0x6c6b935b8bbd400000"
      },
      "nonce": 2,
      "data": "0x",
      "r": "0x61a03ac0cd25d98d9301a8e99666bf32c3543cea8a9385c0355de3317055bb14",
      "s": "0x10c7dfe09bf0e2dd2ffd755baf6dcdfe14d5654779e5cd3a028501d4990586c9",
      "v": 28,
      "creates": null,
      "raw": "0xf86d02850cf81fe65a8252089443279854aaf8825a6d1fccf056caf190ab8a7b76896c6b935b8bbd400000801ca061a03ac0cd25d98d9301a8e99666bf32c3543cea8a9385c0355de3317055bb14a010c7dfe09bf0e2dd2ffd755baf6dcdfe14d5654779e5cd3a028501d4990586c9",
      "networkId": 0,
      "chainId": 0
    }
  ]
}