{
  "hash": "0xd640a409e401838993bd0e5d16620304c979905a919625df3c64a413bf2966e2",
  "parentHash": "0xad41c7ab0ad1442364132b03300a33057b7f16b524feed818e985eff1e6d968c",
  "number": 102407,
  "timestamp": 1439837524,
  "nonce": "0x9d132f866bd4d6cb",
  "difficulty": 3972286752838,
  "gasLimit": {
    "_hex": "0x2fefd8"
  },
  "gasUsed": {
    "_hex": "0x5208"
  },
  "miner": "0x0eDEd3DA479d0beF8eeC92A76644D3f4E3C177f7",
  "extraData": "0x476574682f76312e302e312f6c696e75782f676f312e342e32",
  "transactions": [
    {
      "hash": "0x224185a18daaa0a11e7034f80490a9b38dcfa86a9be5b2b6b5d66e558e21e293",
      "blockHash": "0xd640a409e401838993bd0e5d16620304c979905a919625df3c64a413bf2966e2",
      "blockNumber": 102407,
      "transactionIndex": 0,
      "confirmations": null,
      "from": "0x56011d6b57A70c27F7cc294905A5DdA65BfBd154",
      "gasPrice": {
        "_hex": "0x45d964b800"
      },
      "gasLimit": {
        "_hex": "0x5208"
      },
      "to": "0x16C9b930E32c92004105d7F66801C75c61E3408D",
      "value": {
        "_hex": "0x28a857425466f80000"
      },
      "nonce": 2,
      "data": "0x",
      "r": "0xb53595635142ca372a7c7fd37d0a0929f43ce5723ee566fb518f54171d245a45",
      "s": "0x587be4e6a631c8a0d020bbc98fda111253049fcdc5c9e4e0824a54fd47274fec",
      "v": 28,
      "creates": null,
      "raw": "0xf86d028545d964b8008252089416c9b930e32c92004105d7f66801c75c61e3408d8928a857425466f80000801ca0b53595635142ca372a7c7fd37d0a0929f43ce5723ee566fb518f54171d245a45a0587be4e6a631c8a0d020bbc98fda111253049fcdc5c9e4e0824a54fd47274fec",
      "networkId": 0,
      "chainId": 0
    }
  ]
}