{
  "hash": "0x1ec86122da11260ae67747a1ed3c7b792cc8fd9ffdbbf0cebafa84f961e100d6",
  "parentHash": "0xb16fc13d7e334466d68ba78d085e51b4f6856f83d44708593ac24e8b0f40ef6f",
  "number": 57292,
  "timestamp": 1439100744,
  "nonce": "0x9c26d8e0afa25007",
  "difficulty": 1740467217465,
  "gasLimit": {
    "_hex": "0x2fefd8"
  },
  "gasUsed": {
    "_hex": "0x546c"
  },
  "miner": "0x88D74a59454F6cF3B51ef6b9136AFb6b9D405A88",
  "extraData": "0x476574682f76312e302e312d37666266393930632f6c696e75782f676f312e34",
  "transactions": [
    {
      "hash": "0xa20b0965325c79de3ceb83c0af688ffbc1dfc1350e25a439ab3e43d412eb80ae",
      "blockHash": "0x1ec86122da11260ae67747a1ed3c7b792cc8fd9ffdbbf0cebafa84f961e100d6",
      "blockNumber": 57292,
      "transactionIndex": 0,
      "confirmations": null,
      "from": "0x1059cBc63E36C43E88F30008ACa7Ce058eeAa096",
      "gasPrice": {
        "_hex": "0x110c8f7d8de"
      },
      "gasLimit": {
        "_hex": "0xc350"
      },
      "to": "0x2910543Af39abA0Cd09dBb2D50200b3E800A63D2",
      "value": {
        "_hex": "0x43c33c1937564800000"
      },
      "nonce": 0,
      "data": "0x454e3335515a394338",
      "r": "0x5d24c6b1ed99196b68faa9899730dbff5078cf11644c34aa3183be9af2157bf1",
      "s": "0xcf4a3198d6c3b3fa3dc8bf34cdc80ec6d897fe694282dd71718da23637ea869c",
      "v": 27,
      "creates": null,
      "raw": "0xf87880860110c8f7d8de82c350942910543af39aba0cd09dbb2d50200b3e800a63d28a043c33c193756480000089454e3335515a3943381ba05d24c6b1ed99196b68faa9899730dbff5078cf11644c34aa3183be9af2157bf1a0cf4a3198d6c3b3fa3dc8bf34cdc80ec6d897fe694282dd71718da23637ea869c",
      "networkId": 0,
      "chainId": 0
    }
  ]
}