{
  "hash": "0x9c5284402f7f24f7161c5e01e73d67f38672d900b21679c80eab238c630a1d68",
  "parentHash": "0x2764a0aa6f0df82ef6bad70e4a7f052cc591eb62192e98ddebeee51e5fbf4641",
  "number": 72226,
  "timestamp": 1439349368,
  "nonce": "0x4547f3a49ea497c4",
  "difficulty": 2174900059803,
  "gasLimit": {
    "_hex": "0x2fefd8"
  },
  "gasUsed": {
    "_hex": "0xae73"
  },
  "miner": "0xe6A7a1d47ff21B6321162AEA7C6CB457D5476Bca",
  "extraData": "0x476574682f76312e302e312d38326566323666362f6c696e75782f676f312e34",
  "transactions": [
    {
      "hash": "0x216a88b69a07642d2d14dbd37994209e59dade9e0b603b8beeaf9518186a4cd7",
      "blockHash": "0x9c5284402f7f24f7161c5e01e73d67f38672d900b21679c80eab238c630a1d68",
      "blockNumber": 72226,
      "transactionIndex": 0,
      "confirmations": null,
      "from": "0x17580B766f7453525ca4C6A88b01b50570EA088C",
      "gasPrice": {
        "_hex": "0xd0ebd6e7e"
      },
      "gasLimit": {
        "_hex": "0x61a80"
      },
      "to": "0x5Fe5B7546D1628f7348B023A0393de1FC825A4fD",
      "value": {
        "_hex": "0x8ac7230489e80000"
      },
      "nonce": 395,
      "data": "0xb595b8b50000000000000000000000000000000000000000000000000000000000000000",
      "r": "0x4ed91840a2753f169c38cde8bfd14fa72d8f6056416563db2b455e3f4b6b2b6e",
      "s": "0x71cbd1efeb7883c8519a13a8f6b34985fd685e464ad590459fdff4956820979f",
      "v": 27,
      "creates": null,
      "raw": "0xf89382018b850d0ebd6e7e83061a80945fe5b7546d1628f7348b023a0393de1fc825a4fd888ac7230489e80000a4b595b8b500000000000000000000000000000000000000000000000000000000000000001ba04ed91840a2753f169c38cde8bfd14fa72d8f6056416563db2b455e3f4b6b2b6ea071cbd1efeb7883c8519a13a8f6b34985fd685e464ad590459fdff4956820979f",
      "networkId": 0,
      "chainId": 0
    }
  ]
}