{
  "hash": "0x0ad989565fc0e55b9ca4fd312298df563a5673f75275e12c1835f1977868bd78",
  "parentHash": "0x7a5382e0a51119e31502237f3be4bde3886be4836436f2eb03b35fcff7b2db76",
  "number": 49817,
  "timestamp": 1438979665,
  "nonce": "0x2b2da7c6df25bb4b",
  "difficulty": 1489300265049,
  "gasLimit": {
    "_hex": "0x40f7e"
  },
  "gasUsed": {
    "_hex": "0xa674"
  },
  "miner": "0xbb7B8287f3F0a933474a79eAe42CBCa977791171",
  "extraData": "0x476574682f4c5649562f76312e302e312f6c696e75782f676f312e342e32",
  "transactions": [
    {
      "hash": "0x0037d01970001789805d319cc98750b25da4c90b6909984eeec6295669e08021",
      "blockHash": "0x0ad989565fc0e55b9ca4fd312298df563a5673f75275e12c1835f1977868bd78",
      "blockNumber": 49817,
      "transactionIndex": 0,
      "confirmations": null,
      "from": "0xE09C68e61998D9c81b14E4ee802BA7ADf6d74CdB",
      "gasPrice": {
        "_hex": "0x110c8f7d8de"
      },
      "gasLimit": {
        "_hex": "0x55f0"
      },
      "to": "0x2910543Af39abA0Cd09dBb2D50200b3E800A63D2",
      "value": {
        "_hex": "0x2386f26fc10000"
      },
      "nonce": 14,
      "data": "0x454e32413658483230",
      "r": "0x1fe6c5313886dae15f5794bc8516fdcf345e261df377bf466d5628870447921b",
      "s": "0x2303d9d0f5cead100ce5b34a28ae44b6454e23ec236de8a6d40df5b913833a72",
      "v": 28,
      "creates": null,
      "raw": "0xf8750e860110c8f7d8de8255f0942910543af39aba0cd09dbb2d50200b3e800a63d2872386f26fc1000089454e324136584832301ca01fe6c5313886dae15f5794bc8516fdcf345e261df377bf466d5628870447921ba02303d9d0f5cead100ce5b34a28ae44b6454e23ec236de8a6d40df5b913833a72",
      "networkId": 0,
      "chainId": 0
    },
    {
      "hash": "0x78f9a0f214cfc68c6727d132b3a05fffb821c3d4ce83e21cf6143126e5911d7d",
      "blockHash": "0x0ad989565fc0e55b9ca4fd312298df563a5673f75275e12c1835f1977868bd78",
      "blockNumber": 49817,
      "transactionIndex": 1,
      "confirmations": null,
      "from": "0xc8b25f8890816e7F491d8EE02BA8b4548c73D3A4",
      "gasPrice": {
        "_hex": "0xddc1370bd"
      },
      "gasLimit": {
        "_hex": "0x5208"
      },
      "to": "0x32Be343B94f860124dC4fEe278FDCBD38C102D88",
      "value": {
        "_hex": "0x1b1ae065f6a9110000"
      },
      "nonce": 1,
      "data": "0x",
      "r": "0x8573ef15c533ed64ff33b8c640d32d862f38f2c9d431489ffdbfef485432da00",
      "s": "0x206f7a3b94b2516bbce6f6cea452fb2cf75d8e9d7906a7431b283ee1a0515c72",
      "v": 27,
      "creates": null,
      "raw": "0xf86d01850ddc1370bd8252089432be343b94f860124dc4fee278fdcbd38c102d88891b1ae065f6a9110000801ba08573ef15c533ed64ff33b8c640d32d862f38f2c9d431489ffdbfef485432da00a0206f7a3b94b2516bbce6f6cea452fb2cf75d8e9d7906a7431b283ee1a0515c72",
      "networkId": 0,
      "chainId": 0
    }
  ]
}