{
  "hash": "0x0d13e395bf6f84f0131140a28495c27e26c4a31ce86b047ec00fc1a157d34b74",
  "parentHash": "0x0d3a4063d4622f74f39ae27a0a654ef8beef833baa5ec3d8c203d14585fd084e",
  "number": 102416,
  "timestamp": 1439837661,
  "nonce": "0x95b7f3afff4f28e1",
  "difficulty": 3966467977113,
  "gasLimit": {
    "_hex": "0x2fefd8"
  },
  "gasUsed": {
    "_hex": "0x5208"
  },
  "miner": "0x7E6930B63D03e88F5928C5cd6ee3FCee4D714F7F",
  "extraData": "0x",
  "transactions": [
    {
      "hash": "0xcc2b83ae8f7cba47914814aa88332b49312261b84b9b3945e69d15ca0be81fbb",
      "blockHash": "0x0d13e395bf6f84f0131140a28495c27e26c4a31ce86b047ec00fc1a157d34b74",
      "blockNumber": 102416,
      "transactionIndex": 0,
      "confirmations": null,
      "from": "0xe2dc38c86274d7F8d96Ee09dcF2072a329e6eda3",
      "gasPrice": {
        "_hex": "0xdb968bceb"
      },
      "gasLimit": {
        "_hex": "0x5208"
      },
      "to": "0x32Be343B94f860124dC4fEe278FDCBD38C102D88",
      "value": {
        "_hex": "0x4582a6989daccc00"
      },
      "nonce": 2,
      "data": "0x",
      "r": "0x86d7378d89b1a8fbd6982c3614d6e12ab0180fee42fcc85d0de750a2d51e4a05",
      "s": "0x3fd5ebe48a2df13887a88049a3f04cb396fc9761e0bde2e3f752848224b197d2",
      "v": 27,
      "creates": null,
      "raw": "0xf86c02850db968bceb8252089432be343b94f860124dc4fee278fdcbd38c102d88884582a6989daccc00801ba086d7378d89b1a8fbd6982c3614d6e12ab0180fee42fcc85d0de750a2d51e4a05a03fd5ebe48a2df13887a88049a3f04cb396fc9761e0bde2e3f752848224b197d2",
      "networkId": 0,
      "chainId": 0
    }
  ]
}