{
  "hash": "0x8fa6f578f5f623d6e3348d1302875865ec334d269271b1fe5c8f507c7fa1de27",
  "parentHash": "0xec928bfcc7d6d38300b564ee1f545903c031d7f13afc370f4fcf676ad6221629",
  "number": 88027,
  "timestamp": 1439601379,
  "nonce": "0x16c130652a133a27",
  "difficulty": 3203549054517,
  "gasLimit": {
    "_hex": "0x2fefd8"
  },
  "gasUsed": {
    "_hex": "0x5208"
  },
  "miner": "0xe6A7a1d47ff21B6321162AEA7C6CB457D5476Bca",
  "extraData": "0x476574682f76312e302e312d38326566323666362f6c696e75782f676f312e34",
  "transactions": [
    {
      "hash": "0xc90c234c2480c291bd8dbc1e4b234fb759ba596d3ca910b4988199a3058b82b8",
      "blockHash": "0x8fa6f578f5f623d6e3348d1302875865ec334d269271b1fe5c8f507c7fa1de27",
      "blockNumber": 88027,
      "transactionIndex": 0,
      "confirmations": null,
      "from": "0xd7C9Da7F000be9dcD742D6437dE28669DAFf0f4B",
      "gasPrice": {
        "_hex": "0xe065f0892"
      },
      "gasLimit": {
        "_hex": "0x55f0"
      },
      "to": "0x931Ac2444b057f80A06A4FB627f26FFA5CE41184",
      "value": {
        "_hex": "0xde0b6b3a7640000"
      },
      "nonce": 2,
      "data": "0x",
      "r": "0xd4f045fcf66096313f96bf4061f909489056cb2b2fac6fa9b07ec5920a4c756d",
      "s": "0x306ebb99c1b8fccc4971d994aea5e3c1c44a7e6f68eb8c3b5d1d518dcfdcc7be",
      "v": 28,
      "creates": null,
      "raw": "0xf86c02850e065f08928255f094931ac2444b057f80a06a4fb627f26ffa5ce41184880de0b6b3a7640000801ca0d4f045fcf66096313f96bf4061f909489056cb2b2fac6fa9b07ec5920a4c756da0306ebb99c1b8fccc4971d994aea5e3c1c44a7e6f68eb8c3b5d1d518dcfdcc7be",
      "networkId": 0,
      "chainId": 0
    }
  ]
}