{
  "hash": "0x4386a8e764e2c5a7b194bb4f08024bb8305546a3f43515bcaa08e859fecae836",
  "parentHash": "0x0784ce88673cdb6c910e319c7db74e0d1d5b2de543a25b8c88c715444dcdb150",
  "number": 68366,
  "timestamp": 1439286666,
  "nonce": "0x9586b731d5416f2a",
  "difficulty": 2018283794154,
  "gasLimit": {
    "_hex": "0x2fefd8"
  },
  "gasUsed": {
    "_hex": "0x5208"
  },
  "miner": "0x3222BA3F3e79eA0e31467EEE7639B57923558cCD",
  "extraData": "0x",
  "transactions": [
    {
      "hash": "0x3f01f736973639f778465ab4221d9d4c9c3747a999b036f928c8fedf112053ca",
      "blockHash": "0x4386a8e764e2c5a7b194bb4f08024bb8305546a3f43515bcaa08e859fecae836",
      "blockNumber": 68366,
      "transactionIndex": 0,
      "confirmations": null,
      "from": "0x6747f922385c9a6F9cfDf095F34345257DD597bE",
      "gasPrice": {
        "_hex": "0xba43b7400"
      },
      "gasLimit": {
        "_hex": "0x5208"
      },
      "to": "0x81dE0f13109B2Fa6c1eA283262DC17648C87795C",
      "value": {
        "_hex": "0x1fcbfa42bd6000"
      },
      "nonce": 63,
      "data": "0x",
      "r": "0x9f156112c8170c84e39396a8f856a4cdcbbfc1c78340790f275112814187026e",
      "s": "0x43146b84c3390da784f56a5a47a4e7694f23c1d71fa3d2f2f15d9d98aff0490f",
      "v": 27,
      "creates": null,
      "raw": "0xf86b3f850ba43b74008252089481de0f13109b2fa6c1ea283262dc17648c87795c871fcbfa42bd6000801ba09f156112c8170c84e39396a8f856a4cdcbbfc1c78340790f275112814187026ea043146b84c3390da784f56a5a47a4e7694f23c1d71fa3d2f2f15d9d98aff0490f",
      "networkId": 0,
      "chainId": 0
    }
  ]
}