{
  "hash": "0x74dfe1153043c96bb502980af353188ea403313ec2e0f6f64d26f8c74d7e0475",
  "parentHash": "0xa00516fe530f9b4cd3af4b441df097175636b68a4ff863800b632233cc1799b0",
  "number": 78836,
  "timestamp": 1439460217,
  "nonce": "0xd33a64e42447025a",
  "difficulty": 2286394206896,
  "gasLimit": {
    "_hex": "0x2fefd8"
  },
  "gasUsed": {
    "_hex": "0x5208"
  },
  "miner": "0x9746c7e1ef2bd21FF3997fa467593a89cb852BD0",
  "extraData": "0x476574682f76312e302e312f77696e646f77732f676f312e342e32",
  "transactions": [
    {
      "hash": "0xe01fcbcb4c4609a23c39ddd793319ac661aef9857074b90ad1176eeeae4c435e",
      "blockHash": "0x74dfe1153043c96bb502980af353188ea403313ec2e0f6f64d26f8c74d7e0475",
      "blockNumber": 78836,
      "transactionIndex": 0,
      "confirmations": null,
      "from": "0x32Be343B94f860124dC4fEe278FDCBD38C102D88",
      "gasPrice": {
        "_hex": "0xcbdbc5f34"
      },
      "gasLimit": {
        "_hex": "0x5208"
      },
      "to": "0x28a9D631e5C22Ee57312DDdc75936822a2243A05",
      "value": {
        "_hex": "0x1b0efccb949ed000"
      },
      "nonce": 403,
      "data": "0x",
      "r": "0xfdae7e4ab8041564d760f0bd41fc60f3d10740ccda2be0950a0ff69af84432b6",
      "s": "0x209380cba349a659e946d1631dfc064f7c6ccae8d5d5e287fdddf23890e44800",
      "v": 27,
      "creates": null,
      "raw": "0xf86e820193850cbdbc5f348252089428a9d631e5c22ee57312dddc75936822a2243a05881b0efccb949ed000801ba0fdae7e4ab8041564d760f0bd41fc60f3d10740ccda2be0950a0ff69af84432b6a0209380cba349a659e946d1631dfc064f7c6ccae8d5d5e287fdddf23890e44800",
      "networkId": 0,
      "chainId": 0
    }
  ]
}