{
  "hash": "0xad02ac3dffc771996de1a7619bfe41a7728356447a54b5ed97fe55ecd5e0d74b",
  "parentHash": "0x3f38a1a5dec7ddaf2d9cb45caefd2f011a8aafc12ff420e5ab46f2b50598f590",
  "number": 71533,
  "timestamp": 1439337684,
  "nonce": "0xe4aa0f8be420dc67",
  "difficulty": 2174017948688,
  "gasLimit": {
    "_hex": "0x2fefd8"
  },
  "gasUsed": {
    "_hex": "0xa410"
  },
  "miner": "0xA21Ba94e45f0E168dA824fC67aC9cb5Cb577a8aF",
  "extraData": "0x",
  "transactions": [
    {
      "hash": "0x5df10f6a4d32aa05a15b9b55885037fb5508e738c00d54ac93c88147e71114c8",
      "blockHash": "0xad02ac3dffc771996de1a7619bfe41a7728356447a54b5ed97fe55ecd5e0d74b",
      "blockNumber": 71533,
      "transactionIndex": 0,
      "confirmations": null,
      "from": "0x796fB5FF91099467f7669c8FB0C68739Fd3a9e40",
      "gasPrice": {
        "_hex": "0xd9fbed1ed"
      },
      "gasLimit": {
        "_hex": "0x5208"
      },
      "to": "0x32Be343B94f860124dC4fEe278FDCBD38C102D88",
      "value": {
        "_hex": "0x6c6b8ef322c27c0000"
      },
      "nonce": 3,
      "data": "0x",
      "r": "0x044275641689005731436972f5b636104e299d8f7685ad6165bf47b28b8b577d",
      "s": "0x35b50252ef7f2d756fc5f31e26e0c1f588d0be0939d05b6ec64476e66d7014f8",
      "v": 28,
      "creates": null,
      "raw": "0xf86d03850d9fbed1ed8252089432be343b94f860124dc4fee278fdcbd38c102d88896c6b8ef322c27c0000801ca0044275641689005731436972f5b636104e299d8f7685ad6165bf47b28b8b577da035b50252ef7f2d756fc5f31e26e0c1f588d0be0939d05b6ec64476e66d7014f8",
      "networkId": 0,
      "chainId": 0
    },
    {
      "hash": "0x51b695449fc2314f0ece433fe3400a2b69312858e2e97b81a751a3b187fd8770",
      "blockHash": "0xad02ac3dffc771996de1a7619bfe41a7728356447a54b5ed97fe55ecd5e0d74b",
      "blockNumber": 71533,
      "transactionIndex": 1,
      "confirmations": null,
      "from": "0xAb375C1F0F01d6eB03790Fd7200132a2FC7E1a1A",
      "gasPrice": {
        "_hex": "0xd9fbed1ed"
      },
      "gasLimit": {
        "_hex": "0x5208"
      },
      "to": "0x32Be343B94f860124dC4fEe278FDCBD38C102D88",
      "value": {
        "_hex": "0xd84c5b405887700000"
      },
      "nonce": 1,
      "data": "0x",
      "r": "0xe1d112b788277f6c8980dc4faa7b022e636689d31ead92ee094500f7b371603e",
      "s": "0x5f1d6b040c4a0694b118c9b8e73d911c8729f39ca0093c42047295b047ed31cf",
      "v": 27,
      "creates": null,
      "raw": "0xf86d01850d9fbed1ed8252089432be343b94f860124dc4fee278fdcbd38c102d8889d84c5b405887700000801ba0e1d112b788277f6c8980dc4faa7b022e636689d31ead92ee094500f7b371603ea05f1d6b040c4a0694b118c9b8e73d911c8729f39ca0093c42047295b047ed31cf",
      "networkId": 0,
      "chainId": 0
    }
  ]
}