{
  "hash": "0x57f9d2e438323670f00b4d467bfcb4a3322ee7e79bf729176cb1fb3f20ee30d3",
  "parentHash": "0x25483bf69a05124826eb84d4bea9615fec2b03d95b336e093afd4042855c1e8d",
  "number": 55776,
  "timestamp": 1439076979,
  "nonce": "0x5e934d0569267da0",
  "difficulty": 1597431149581,
  "gasLimit": {
    "_hex": "0x2fefd8"
  },
  "gasUsed": {
    "_hex": "0xd2c7"
  },
  "miner": "0xbb7B8287f3F0a933474a79eAe42CBCa977791171",
  "extraData": "0x476574682f4c5649562f76312e302e312f6c696e75782f676f312e342e32",
  "transactions": [
    {
      "hash": "0x3342a5c22074aca3ddccf7a1e276be4021f9c49874ba309c911601cfa8ef0722",
      "blockHash": "0x57f9d2e438323670f00b4d467bfcb4a3322ee7e79bf729176cb1fb3f20ee30d3",
      "blockNumber": 55776,
      "transactionIndex": 0,
      "confirmations": null,
      "from": "0x1308A2e95c0160B90803ddCA9B9a5bb55E416d79",
      "gasPrice": {
        "_hex": "0xe8d4a51000"
      },
      "gasLimit": {
        "_hex": "0x15f90"
      },
      "to": "0x025c3B43d57E72D2150E14B2B0c6D923FbFC0474",
      "value": {
        "_hex": "0x3635c9adc5dea00000"
      },
      "nonce": 34,
      "data": "0x",
      "r": "0x15229ba94c7eee7cc448db62241af3eca287673df26ce950bf6420873ab5be00",
      "s": "0x553941d6f5682771e79d65139c5c019d35fc4f7cc158518a77b88529eb1c50f9",
      "v": 28,
      "creates": null,
      "raw": "0xf86e2285e8d4a5100083015f9094025c3b43d57e72d2150e14b2b0c6d923fbfc0474893635c9adc5dea00000801ca015229ba94c7eee7cc448db62241af3eca287673df26ce950bf6420873ab5be00a0553941d6f5682771e79d65139c5c019d35fc4f7cc158518a77b88529eb1c50f9",
      "networkId": 0,
      "chainId": 0
    },
    {
      "hash": "0x015a8a47b14254a7292a905cdb5ceb1ab0452cabcb20449ffabf60153158f2eb",
      "blockHash": "0x57f9d2e438323670f00b4d467bfcb4a3322ee7e79bf729176cb1fb3f20ee30d3",
      "blockNumber": 55776,
      "transactionIndex": 1,
      "confirmations": null,
      "from": "0xc70bA22fe446A85A247bf85BaD1AdDf3ddaF62E9",
      "gasPrice": {
        "_hex": "0xd054454b3"
      },
      "gasLimit": {
        "_hex": "0x15f90"
      },
      "to": "0xb87824547dB80F1fb37D0225B99F1A602f8642AD",
      "value": {
        "_hex": "0x12c"
      },
      "nonce": 16,
      "data": "0x",
      "r": "0x5b970dbda45e848ed1906896de4cc453d7138a93b199b9aa2f6b4653bab1af1b",
      "s": "0x6bd1ba442d8def8fbf961d841488e0842c102038c9cff9f80cb5dabdb0b24350",
      "v": 27,
      "creates": null,
      "raw": "0xf86710850d054454b383015f9094b87824547db80f1fb37d0225b99f1a602f8642ad82012c801ba05b970dbda45e848ed1906896de4cc453d7138a93b199b9aa2f6b4653bab1af1ba06bd1ba442d8def8fbf961d841488e0842c102038c9cff9f80cb5dabdb0b24350",
      "networkId": 0,
      "chainId": 0
    }
  ]
}