{
  "hash": "0x6f3821ab6aa8b379bcad7b2e5394654cfddbc9077c0f4ca7a0aaf2529f282d80",
  "parentHash": "0x62b47dbf970096ffb95a895a5cc618a2ad00fced29579c2b813c9176d99ad4a4",
  "number": 74645,
  "timestamp": 1439389745,
  "nonce": "0x1c836c651905b9a8",
  "difficulty": 2205280042052,
  "gasLimit": {
    "_hex": "0x2fefd8"
  },
  "gasUsed": {
    "_hex": "0x14820"
  },
  "miner": "0xbb7B8287f3F0a933474a79eAe42CBCa977791171",
  "extraData": "0x476574682f4c5649562f76312e302e312f6c696e75782f676f312e342e32",
  "transactions": [
    {
      "hash": "0x7fb2dca1967fc3c56be412b3e93e604cee50eeb4eb0fca51f67c463790fb9ae2",
      "blockHash": "0x6f3821ab6aa8b379bcad7b2e5394654cfddbc9077c0f4ca7a0aaf2529f282d80",
      "blockNumber": 74645,
      "transactionIndex": 0,
      "confirmations": null,
      "from": "0x723E05fF30e4ba7A87b4D7D459eE5B488A9c36d1",
      "gasPrice": {
        "_hex": "0xd7fe6bfe4"
      },
      "gasLimit": {
        "_hex": "0x15f90"
      },
      "to": "0xabceA603089850F8f6bB612A9031554D90A247CF",
      "value": {
        "_hex": "0x3782dace9d900000"
      },
      "nonce": 8,
      "data": "0x",
      "r": "0xd05f6e0b7621c5d8404ac47f42c8ac8310a119e1978386ecf167c6bc94c466f8",
      "s": "0x1a100f33bb69d8289b6b9561e924725235765df6e0451a77fbb8c30b31fc21dc",
      "v": 28,
      "creates": null,
      "raw": "0xf86d08850d7fe6bfe483015f9094abcea603089850f8f6bb612a9031554d90a247cf883782dace9d900000801ca0d05f6e0b7621c5d8404ac47f42c8ac8310a119e1978386ecf167c6bc94c466f8a01a100f33bb69d8289b6b9561e924725235765df6e0451a77fbb8c30b31fc21dc",
      "networkId": 0,
      "chainId": 0
    },
    {
      "hash": "0x675a1832896be0056a7a6147ce3343af6080cde4ad4ecf4b5ee50a7400f11fac",
      "blockHash": "0x6f3821ab6aa8b379bcad7b2e5394654cfddbc9077c0f4ca7a0aaf2529f282d80",
      "blockNumber": 74645,
      "transactionIndex": 1,
      "confirmations": null,
      "from": "0xd5d9a0033e6B0A3ba7634d0e1a9055ad5f452C3D",
      "gasPrice": {
        "_hex": "0xd00cd9a12"
      },
      "gasLimit": {
        "_hex": "0x5208"
      },
      "to": "0x32Be343B94f860124dC4fEe278FDCBD38C102D88",
      "value": {
        "_hex": "0xae56b486452138000"
      },
      "nonce": 5,
      "data": "0x",
      "r": "0xf1ad6867b37e4bd0cba439a963621d9ca8233a6a737d252b927e9106b5a108cf",
      "s": "0x25e16ec20cb19f65a2c91737a4a36df3688d3df11e6f9196a45e2725f13797e3",
      "v": 27,
      "creates": null,
      "raw": "0xf86d05850d00cd9a128252089432be343b94f860124dc4fee278fdcbd38c102d88890ae56b486452138000801ba0f1ad6867b37e4bd0cba439a963621d9ca8233a6a737d252b927e9106b5a108cfa025e16ec20cb19f65a2c91737a4a36df3688d3df11e6f9196a45e2725f13797e3",
      "networkId": 0,
      "chainId": 0
    },
    {
      "hash": "0x64288a5d4487e1630a438766c9c75ad755081e36c78c45f28ec6d3517ad03074",
      "blockHash": "0x6f3821ab6aa8b379bcad7b2e5394654cfddbc9077c0f4ca7a0aaf2529f282d80",
      "blockNumber": 74645,
      "transactionIndex": 2,
      "confirmations": null,
      "from": "0xAba5352947CBaEAcf6B2E11E03EaE0008176aeDF",
      "gasPrice": {
        "_hex": "0xd00cd9a12"
      },
      "gasLimit": {
        "_hex": "0x5208"
      },
      "to": "0x32Be343B94f860124dC4fEe278FDCBD38C102D88",
      "value": {
        "_hex": "0x2c64846195cf9c00"
      },
      "nonce": 1,
      "data": "0x",
      "r": "0x00fe1ade1278cc567b69373ef050ee19e5d3bfae9333258b1c6b9f3710890fb1",
      "s": "0x500b08cbd34b6ee55710b2c5ebeb1f0869b283befc3532cff57aa448940c0e32",
      "v": 28,
      "creates": null,
      "raw": "0xf86b01850d00cd9a128252089432be343b94f860124dc4fee278fdcbd38c102d88882c64846195cf9c00801c9ffe1ade1278cc567b69373ef050ee19e5d3bfae9333258b1c6b9f3710890fb1a0500b08cbd34b6ee55710b2c5ebeb1f0869b283befc3532cff57aa448940c0e32",
      "networkId": 0,
      "chainId": 0
    },
    {
      "hash": "0xe500b6f35291f13ca0572e7c838b9d1a689bc806c19f872ba1ded83fa549821c",
      "blockHash": "0x6f3821ab6aa8b379bcad7b2e5394654cfddbc9077c0f4ca7a0aaf2529f282d80",
      "blockNumber": 74645,
      "transactionIndex": 3,
      "confirmations": null,
      "from": "0xF5EeDc192aB70b08D8354384aD94efD095849E00",
      "gasPrice": {
        "_hex": "0xd00cd9a12"
      },
      "gasLimit": {
        "_hex": "0x5208"
      },
      "to": "0x32Be343B94f860124dC4fEe278FDCBD38C102D88",
      "value": {
        "_hex": "0x3860a38f364f3a000"
      },
      "nonce": 23,
      "data": "0x",
      "r": "0x1bc85fae87c6d04f994b2befdc4e71697a2ae09bb6e1c7b4c138a9782b3437ff",
      "s": "0x357790d905491f27069e47e4e5c283fcfdb12639462f72b891bc2ea3cdea822d",
      "v": 27,
      "creates": null,
      "raw": "0xf86d17850d00cd9a128252089432be343b94f860124dc4fee278fdcbd38c102d888903860a38f364f3a000801ba01bc85fae87c6d04f994b2befdc4e71697a2ae09bb6e1c7b4c138a9782b3437ffa0357790d905491f27069e47e4e5c283fcfdb12639462f72b891bc2ea3cdea822d",
      "networkId": 0,
      "chainId": 0
    }
  ]
}