{
  "hash": "0x2c211e8e78c4daf36301f9ff0340f5b690cb99a06e32103d43761ddd1ffb30bf",
  "parentHash": "0xeed5de0bf2cda541204bedf7d8d17a980251028b4ea4ecfb729a100b4382b3cb",
  "number": 92892,
  "timestamp": 1439678833,
  "nonce": "0xfef8c32e0368711b",
  "difficulty": 3647530727243,
  "gasLimit": {
    "_hex": "0x2fefd8"
  },
  "gasUsed": {
    "_hex": "0xf618"
  },
  "miner": "0x3FF679B0823a026F2378E5f5F22A6F127cC85828",
  "extraData": "0x",
  "transactions": [
    {
      "hash": "0x9389eb4d3eb092e2936e6839e1e6e67eb475ce8a4dedbaca95c78378aaf1c046",
      "blockHash": "0x2c211e8e78c4daf36301f9ff0340f5b690cb99a06e32103d43761ddd1ffb30bf",
      "blockNumber": 92892,
      "transactionIndex": 0,
      "confirmations": null,
      "from": "0x2910543Af39abA0Cd09dBb2D50200b3E800A63D2",
      "gasPrice": {
        "_hex": "0xdd9dd8954"
      },
      "gasLimit": {
        "_hex": "0x5208"
      },
      "to": "0xda00ca1794A3bD7D01FFF65716986835D8678B2b",
      "value": {
        "_hex": "0x3635b7ea4ca6bf8000"
      },
      "nonce": 838,
      "data": "0x",
      "r": "0x4f20d47171202397c10dccd787f283b19d7615c97ff1f0ce996b58fe472113fd",
      "s": "0x326742747387f143541f3e93358d587fd9bea7da2b40afb64beb38bd9071819d",
      "v": 28,
      "creates": null,
      "raw": "0xf86f820346850dd9dd895482520894da00ca1794a3bd7d01fff65716986835d8678b2b893635b7ea4ca6bf8000801ca04f20d47171202397c10dccd787f283b19d7615c97ff1f0ce996b58fe472113fda0326742747387f143541f3e93358d587fd9bea7da2b40afb64beb38bd9071819d",
      "networkId": 0,
      "chainId": 0
    },
    {
      "hash": "0xd21805eb46e0cac1d463f21f071815a505d4dcf07d2d821c5a17d0e46e9b806f",
      "blockHash": "0x2c211e8e78c4daf36301f9ff0340f5b690cb99a06e32103d43761ddd1ffb30bf",
      "blockNumber": 92892,
      "transactionIndex": 1,
      "confirmations": null,
      "from": "0x32Be343B94f860124dC4fEe278FDCBD38C102D88",
      "gasPrice": {
        "_hex": "0xcac22af6b"
      },
      "gasLimit": {
        "_hex": "0x5208"
      },
      "to": "0x835ad98Ab8AF27814f6563b3117d6B0Ab897F83b",
      "value": {
        "_hex": "0x56ba3d73af34f0000"
      },
      "nonce": 905,
      "data": "0x",
      "r": "0x30aa4d1ac1bad2b66104cdb65f170d45b5421edf8b575d83ee491752781c4a3f",
      "s": "0x51e3c5d0a2b54eea6f3aabb797728ca6e380241a3209c9e03e49b776d1428dff",
      "v": 28,
      "creates": null,
      "raw": "0xf86f820389850cac22af6b82520894835ad98ab8af27814f6563b3117d6b0ab897f83b89056ba3d73af34f0000801ca030aa4d1ac1bad2b66104cdb65f170d45b5421edf8b575d83ee491752781c4a3fa051e3c5d0a2b54eea6f3aabb797728ca6e380241a3209c9e03e49b776d1428dff",
      "networkId": 0,
      "chainId": 0
    },
    {
      "hash": "0x648e5ff127a5bfb0761eb1bdddb3fd578da7561e9d704b43a51f2d991cfe6531",
      "blockHash": "0x2c211e8e78c4daf36301f9ff0340f5b690cb99a06e32103d43761ddd1ffb30bf",
      "blockNumber": 92892,
      "transactionIndex": 2,
      "confirmations": null,
      "from": "0x083086B57Dda7C54C143B1953Ab30017C547B42B",
      "gasPrice": {
        "_hex": "0xcac22af6b"
      },
      "gasLimit": {
        "_hex": "0x5208"
      },
      "to": "0x32Be343B94f860124dC4fEe278FDCBD38C102D88",
      "value": {
        "_hex": "0xbed072f61dd2d0000"
      },
      "nonce": 0,
      "data": "0x",
      "r": "0x0666f870e7cbc3532a76df940a23f533b6b28db839e73767fff45abe61280a3f",
      "s": "0x79bd6bc75f1eaea2c1551af2df02deee1b1c01d5ba2f209c5aa1281574740b55",
      "v": 27,
      "creates": null,
      "raw": "0xf86d80850cac22af6b8252089432be343b94f860124dc4fee278fdcbd38c102d88890bed072f61dd2d0000801ba00666f870e7cbc3532a76df940a23f533b6b28db839e73767fff45abe61280a3fa079bd6bc75f1eaea2c1551af2df02deee1b1c01d5ba2f209c5aa1281574740b55",
      "networkId": 0,
      "chainId": 0
    }
  ]
}