{
  "hash": "0xc8ccae4010cb1ca833102d579a5be0202a9c9ceaaffd8c96a62f01332aeccf70",
  "parentHash": "0xf3fdbe30dba9bd7dd00b1a5b97ea776c0e96cf4fc1ba272562048babb3ddf156",
  "number": 64966,
  "timestamp": 1439229152,
  "nonce": "0x522ecca53fed29e2",
  "difficulty": 1913515092669,
  "gasLimit": {
    "_hex": "0x2fefd8"
  },
  "gasUsed": {
    "_hex": "0x5208"
  },
  "miner": "0x0Cb6EEF179Ba9E7036f95bEEB01e250ab85A8c88",
  "extraData": "0x476574682f76312e302e312f77696e646f77732f676f312e342e32",
  "transactions": [
    {
      "hash": "0xc36f81aeac0a0005de5f6a0609c75a98d49717d3be5a5b62abc4ca9a95cf8091",
      "blockHash": "0xc8ccae4010cb1ca833102d579a5be0202a9c9ceaaffd8c96a62f01332aeccf70",
      "blockNumber": 64966,
      "transactionIndex": 0,
      "confirmations": null,
      "from": "0x6B4971F56172Fe56565FD3d6b56F8CA3C91B2baD",
      "gasPrice": {
        "_hex": "0xd90531158"
      },
      "gasLimit": {
        "_hex": "0x15f90"
      },
      "to": "0x4d8b9b150E3c85c4BFcF23Dba3D06d471D13560E",
      "value": {
        "_hex": "0x2386f26fc10000"
      },
      "nonce": 13,
      "data": "0x",
      "r": "0xc3a5e3fb41485f644ebd47f0f3c39a1b30a70d283028c0e5a5417468258ac4c1",
      "s": "0x19185c784d5ff2caea57320476bad5b43b71ccdc7c80d7e24c139aa8ec65b58d",
      "v": 28,
      "creates": null,
      "raw": "0xf86c0d850d9053115883015f90944d8b9b150e3c85c4bfcf23dba3d06d471d13560e872386f26fc10000801ca0c3a5e3fb41485f644ebd47f0f3c39a1b30a70d283028c0e5a5417468258ac4c1a019185c784d5ff2caea57320476bad5b43b71ccdc7c80d7e24c139aa8ec65b58d",
      "networkId": 0,
      "chainId": 0
    }
  ]
}