{
  "hash": "0x71a05bb61f3f32d3524f046a5ac359d89351b9761d28773860bb632bebf8f0ce",
  "parentHash": "0xdd677e8828e2dd30557cccf40a04efc97939ff10ea796628177cc2f0030707a9",
  "number": 56260,
  "timestamp": 1439084431,
  "nonce": "0x4391f897ccd022a9",
  "difficulty": 1651265952715,
  "gasLimit": {
    "_hex": "0x2fefd8"
  },
  "gasUsed": {
    "_hex": "0x9885"
  },
  "miner": "0x1D889aFF5D57138c9819412d63b5d877567B5936",
  "extraData": "0x476574682f76312e302e312f77696e646f77732f676f312e342e32",
  "transactions": [
    {
      "hash": "0x4b9ebc949058b36bd6c41c62284e9c6533fbe694f4985c97be41df1da61a0c89",
      "blockHash": "0x71a05bb61f3f32d3524f046a5ac359d89351b9761d28773860bb632bebf8f0ce",
      "blockNumber": 56260,
      "transactionIndex": 0,
      "confirmations": null,
      "from": "0xFD2605a2bF58fDbB90db1Da55dF61628B47F9e8c",
      "gasPrice": {
        "_hex": "0xd0d8e50d6"
      },
      "gasLimit": {
        "_hex": "0x186a0"
      },
      "to": "0x3de43C2475A639F8b4cd8655ca7c395855274374",
      "value": {
        "_hex": "0x16345785d8a0000"
      },
      "nonce": 28,
      "data": "0x67dd74caf395757e0d74803aae4e8adb875451d99622e911b61c64e044e0bd16a16f18cd",
      "r": "0xa845a6f1923c700de694fc2d5df53df578c1ef659cb4daefaaf55b6e74874c15",
      "s": "0x1efeecf3c646612310fd3f3a036d67fb9d1e3d985353d88a137f519550093b05",
      "v": 27,
      "creates": null,
      "raw": "0xf8911c850d0d8e50d6830186a0943de43c2475a639f8b4cd8655ca7c39585527437488016345785d8a0000a467dd74caf395757e0d74803aae4e8adb875451d99622e911b61c64e044e0bd16a16f18cd1ba0a845a6f1923c700de694fc2d5df53df578c1ef659cb4daefaaf55b6e74874c15a01efeecf3c646612310fd3f3a036d67fb9d1e3d985353d88a137f519550093b05",
      "networkId": 0,
      "chainId": 0
    }
  ]
}