{
  "hash": "0x38e258b11f0a3c491445322451ad8f60e8131a7ef1808ff315623b54cb0d0ddb",
  "parentHash": "0x1b20fd492b77012adf69f72588694a53e4c21700bd0aa3a4febd51015151ea15",
  "number": 95068,
  "timestamp": 1439718491,
  "nonce": "0xb527fdf68f411172",
  "difficulty": 3489804474490,
  "gasLimit": {
    "_hex": "0x2fefd8"
  },
  "gasUsed": {
    "_hex": "0x80ae"
  },
  "miner": "0xaEAf103356C2Ee943F748E8655659D29881323E1",
  "extraData": "0x476574682f76312e302e312f77696e646f77732f676f312e342e32",
  "transactions": [
    {
      "hash": "0x9a9670d6e2cdf5b92ae82c3bb5b2341a1cc31ba442b228aa47fa8a32fce24c03",
      "blockHash": "0x38e258b11f0a3c491445322451ad8f60e8131a7ef1808ff315623b54cb0d0ddb",
      "blockNumber": 95068,
      "transactionIndex": 0,
      "confirmations": null,
      "from": "0xFBb1b73C4f0BDa4f67dcA266ce6Ef42f520fBB98",
      "gasPrice": {
        "_hex": "0xce3793d32"
      },
      "gasLimit": {
        "_hex": "0x15f90"
      },
      "to": "0xCAc7000C7dBaa2E33Af15325AF5D435E011C7BdD",
      "value": {
        "_hex": "0x0"
      },
      "nonce": 65,
      "data": "0x3feb1bd8424954545245583030000000000000000000000000000000000000000000000000000000000000000000000023f6b61e953f76813b95a35cf10584b8b1ffe56900000000000000000000000000000000000000000000002403ad3c95a2572800",
      "r": "0xced021f46e8c873e4a65fc11cf7f73ec9db7739d4192faa817d800704047f785",
      "s": "0x709e7ff945cff8b35716c8d5b4b1766360852514b0051fb2f870bee228314d32",
      "v": 27,
      "creates": null,
      "raw": "0xf8ca41850ce3793d3283015f9094cac7000c7dbaa2e33af15325af5d435e011c7bdd80b8643feb1bd8424954545245583030000000000000000000000000000000000000000000000000000000000000000000000023f6b61e953f76813b95a35cf10584b8b1ffe56900000000000000000000000000000000000000000000002403ad3c95a25728001ba0ced021f46e8c873e4a65fc11cf7f73ec9db7739d4192faa817d800704047f785a0709e7ff945cff8b35716c8d5b4b1766360852514b0051fb2f870bee228314d32",
      "networkId": 0,
      "chainId": 0
    }
  ]
}