{
  "hash": "0x3e7f9418fc9aee395e2b84561492329388627a0c8bea4eb14f0838a07496aded",
  "parentHash": "0x5fa061ee24f2ffcfc3b886d8bbdbbe202472f209512dae0a5a622966db7439a0",
  "number": 96099,
  "timestamp": 1439734933,
  "nonce": "0x3dee389fcdb41263",
  "difficulty": 3630148620532,
  "gasLimit": {
    "_hex": "0x2fefd8"
  },
  "gasUsed": {
    "_hex": "0x5208"
  },
  "miner": "0xe6A7a1d47ff21B6321162AEA7C6CB457D5476Bca",
  "extraData": "0x476574682f76312e302e312d38326566323666362f6c696e75782f676f312e34",
  "transactions": [
    {
      "hash": "0x349852eedf8ab633ea176ef9eb3eeb012ecc2bf572de1127637595a82a2d5cd1",
      "blockHash": "0x3e7f9418fc9aee395e2b84561492329388627a0c8bea4eb14f0838a07496aded",
      "blockNumber": 96099,
      "transactionIndex": 0,
      "confirmations": null,
      "from": "0x0D4EcC7d750180EBf4A9Df728B6669B5Bceb5E40",
      "gasPrice": {
        "_hex": "0xcc675dcba"
      },
      "gasLimit": {
        "_hex": "0x5208"
      },
      "to": "0x32Be343B94f860124dC4fEe278FDCBD38C102D88",
      "value": {
        "_hex": "0x455f798b2902bc00"
      },
      "nonce": 40,
      "data": "0x",
      "r": "0xf48a75e39467b0dc347f87730ad429f5d529b31d3bb299c8948ad805e2b32f5b",
      "s": "0x74397000de0b891aa1dd9ad8d15ccd1be45e9155719782c6be5db1c437433fe3",
      "v": 27,
      "creates": null,
      "raw": "0xf86c28850cc675dcba8252089432be343b94f860124dc4fee278fdcbd38c102d8888455f798b2902bc00801ba0f48a75e39467b0dc347f87730ad429f5d529b31d3bb299c8948ad805e2b32f5ba074397000de0b891aa1dd9ad8d15ccd1be45e9155719782c6be5db1c437433fe3",
      "networkId": 0,
      "chainId": 0
    }
  ]
}