{
  "hash": "0x19ef01bb2901a99947903169b35144f4054d3aec62e5cd3d59385317b78d7829",
  "parentHash": "0xc891e11f44132413ec1ebfb579a0a7a51cb73adc66c3abc812d63308f744fccc",
  "number": 54907,
  "timestamp": 1439062087,
  "nonce": "0xd934437980a37622",
  "difficulty": 1615639526615,
  "gasLimit": {
    "_hex": "0x2fefd8"
  },
  "gasUsed": {
    "_hex": "0x5208"
  },
  "miner": "0x46A8924B526D6b7d939c059FD4FA94b691Ce57Df",
  "extraData": "0x",
  "transactions": [
    {
      "hash": "0x6c4a78e2a6cd311516816422f65cf7b9ebe15dd83a315be63ed77403a83ea391",
      "blockHash": "0x19ef01bb2901a99947903169b35144f4054d3aec62e5cd3d59385317b78d7829",
      "blockNumber": 54907,
      "transactionIndex": 0,
      "confirmations": null,
      "from": "0x5e0320BB4D82AB8Bb5d7291f2C67D1c99aBb3C05",
      "gasPrice": {
        "_hex": "0xf093b9d0a"
      },
      "gasLimit": {
        "_hex": "0x15f90"
      },
      "to": "0x5c021a7942a469B1C8Db66539eFbCFFA4456FaE9",
      "value": {
        "_hex": "0x5af3107a4000"
      },
      "nonce": 1,
      "data": "0x",
      "r": "0x9ccecabbfc42985584da2f4ae9fb35f74e3e1e9a7a0f86dd58999bdf9b364bcd",
      "s": "0x5eddf8012c6b70591866897b8fe0a17663558d935c33669d40cdfb93ceef1844",
      "v": 27,
      "creates": null,
      "raw": "0xf86b01850f093b9d0a83015f90945c021a7942a469b1c8db66539efbcffa4456fae9865af3107a4000801ba09ccecabbfc42985584da2f4ae9fb35f74e3e1e9a7a0f86dd58999bdf9b364bcda05eddf8012c6b70591866897b8fe0a17663558d935c33669d40cdfb93ceef1844",
      "networkId": 0,
      "chainId": 0
    }
  ]
}