{
  "hash": "0x2f552fb59c802c5d87ed31655b540f1252127c6c2a06c12cba349b330e8f5bf8",
  "parentHash": "0xfefecefc9a340fc9183ed26919c748d4421e84d99f3faa25fd8fa798792a8d23",
  "number": 113797,
  "timestamp": 1440029771,
  "nonce": "0x904f015d713cf85d",
  "difficulty": 4442713783163,
  "gasLimit": {
    "_hex": "0x2fefd8"
  },
  "gasUsed": {
    "_hex": "0x5208"
  },
  "miner": "0xF6e1652a0397E078f434d6DDa181b218CFd42e09",
  "extraData": "0x476574682f76312e302e312f6c696e75782f676f312e342e32",
  "transactions": [
    {
      "hash": "0x84a59c777251f0a2cef22febe0811cf3fa90f5220d998a6a7017121624c17418",
      "blockHash": "0x2f552fb59c802c5d87ed31655b540f1252127c6c2a06c12cba349b330e8f5bf8",
      "blockNumber": 113797,
      "transactionIndex": 0,
      "confirmations": null,
      "from": "0x790b8a3cE86E707ED0eD32bF89B3269692a23CC1",
      "gasPrice": {
        "_hex": "0xcef8b1e93"
      },
      "gasLimit": {
        "_hex": "0x15f90"
      },
      "to": "0x4D67f4F0Db45b3B5a3424B39ed8d972F710381D5",
      "value": {
        "_hex": "0x2c2612051fb620000"
      },
      "nonce": 51,
      "data": "0x",
      "r": "0x1de0a5f1c6e612f452e28981edb6664d0d89fcfaf894203f474138734ffa93b1",
      "s": "0x61b94109c888e12e2c22bd55196bec5749906b60f9a61823bc82c954be463de3",
      "v": 28,
      "creates": null,
      "raw": "0xf86e33850cef8b1e9383015f90944d67f4f0db45b3b5a3424b39ed8d972f710381d58902c2612051fb620000801ca01de0a5f1c6e612f452e28981edb6664d0d89fcfaf894203f474138734ffa93b1a061b94109c888e12e2c22bd55196bec5749906b60f9a61823bc82c954be463de3",
      "networkId": 0,
      "chainId": 0
    }
  ]
}