{
  "hash": "0xf644182d09d2293c45bd9abd0c8306d3cd81fb2f9381edba6ab2a3d345e55af0",
  "parentHash": "0x225687c0f8db5da26dd16798df38b7b559fa23e7d83536e86071eb7312508314",
  "number": 67346,
  "timestamp": 1439270511,
  "nonce": "0x9e7cec9d90f6201e",
  "difficulty": 1924213996102,
  "gasLimit": {
    "_hex": "0x2fefd8"
  },
  "gasUsed": {
    "_hex": "0xe3d5"
  },
  "miner": "0x02020D22dCF88f5eDd66B382D7da019F161fB7e3",
  "extraData": "0x",
  "transactions": [
    {
      "hash": "0x8d1a36661e36a20025215c65ff93c3696039582cd2b5d273c0d514ec4f601cbe",
      "blockHash": "0xf644182d09d2293c45bd9abd0c8306d3cd81fb2f9381edba6ab2a3d345e55af0",
      "blockNumber": 67346,
      "transactionIndex": 0,
      "confirmations": null,
      "from": "0xB100987e77FEbA6F022dBd22B80B008e35d3Ff2E",
      "gasPrice": {
        "_hex": "0xd6ea0bb02"
      },
      "gasLimit": {
        "_hex": "0x15f90"
      },
      "to": "0xD251a133116194Faa5aD2Bf40F4baF2Aa97D2ae4",
      "value": {
        "_hex": "0x0"
      },
      "nonce": 20,
      "data": "0xc2ca0ac5000000000000000000000000000000000000000000000000000000000000007b",
      "r": "0x2ea745d4d0301362e4f10dd7da4f0758d7ed600e04ea3daabb10fa60e63e3694",
      "s": "0x4379c146bd44d2a419d725613e5de22e130717c2f86413f4b04fe1ab54672198",
      "v": 27,
      "creates": null,
      "raw": "0xf88914850d6ea0bb0283015f9094d251a133116194faa5ad2bf40f4baf2aa97d2ae480a4c2ca0ac5000000000000000000000000000000000000000000000000000000000000007b1ba02ea745d4d0301362e4f10dd7da4f0758d7ed600e04ea3daabb10fa60e63e3694a04379c146bd44d2a419d725613e5de22e130717c2f86413f4b04fe1ab54672198",
      "networkId": 0,
      "chainId": 0
    },
    {
      "hash": "0x9cd0c81ae721da644f5062bfb7fc04971d2bfdbf6e712331cc99da70600b5213",
      "blockHash": "0xf644182d09d2293c45bd9abd0c8306d3cd81fb2f9381edba6ab2a3d345e55af0",
      "blockNumber": 67346,
      "transactionIndex": 1,
      "confirmations": null,
      "from": "0x5607590059a9Fec1881149a44b36949AEf85d560",
      "gasPrice": {
        "_hex": "0xba43b7400"
      },
      "gasLimit": {
        "_hex": "0x5267"
      },
      "to": "0x6c341709A69F0D286ff289986ECd928bb3a51B7A",
      "value": {
        "_hex": "0xd80ca5846748000"
      },
      "nonce": 1,
      "data": "0x",
      "r": "0xcb285f86591a7a7a3c4de43b1bddb4961126616b9169517ef95f63676e41d3ac",
      "s": "0x8c46130a14f013debab20e16ce7d16532df2f216de464a503d05422a8e33c052",
      "v": 28,
      "creates": null,
      "raw": "0xf86c01850ba43b7400825267946c341709a69f0d286ff289986ecd928bb3a51b7a880d80ca5846748000801ca0cb285f86591a7a7a3c4de43b1bddb4961126616b9169517ef95f63676e41d3aca08c46130a14f013debab20e16ce7d16532df2f216de464a503d05422a8e33c052",
      "networkId": 0,
      "chainId": 0
    }
  ]
}