{
  "hash": "0x50ae540060d5481f6892628c953c1a7d7bf2dc24dd9f4afa95f093ffcb3c1c2e",
  "parentHash": "0xb619208ab380900ee5a95d32dfe700727cd5589c9b28a9a56b4a94de4a49687b",
  "number": 78239,
  "timestamp": 1439450735,
  "nonce": "0x9d576da8237c871d",
  "difficulty": 2285440720250,
  "gasLimit": {
    "_hex": "0x2fefd8"
  },
  "gasUsed": {
    "_hex": "0x5208"
  },
  "miner": "0x31995C46B15C84523cDEE26f49A681b8237e43F5",
  "extraData": "0x476574682f76312e302e312f77696e646f77732f676f312e342e32",
  "transactions": [
    {
      "hash": "0x918c71e8789f4c25fb242991770799ed7d98bc6b41eaf47d1610da4135a190b4",
      "blockHash": "0x50ae540060d5481f6892628c953c1a7d7bf2dc24dd9f4afa95f093ffcb3c1c2e",
      "blockNumber": 78239,
      "transactionIndex": 0,
      "confirmations": null,
      "from": "0x32Be343B94f860124dC4fEe278FDCBD38C102D88",
      "gasPrice": {
        "_hex": "0xd4bd45d7d"
      },
      "gasLimit": {
        "_hex": "0x5208"
      },
      "to": "0xb2169f1326FE9745321aD99563654089bAdf09eb",
      "value": {
        "_hex": "0x8ac7230489e80000"
      },
      "nonce": 389,
      "data": "0x",
      "r": "0x18535d69016696025f816365c5da8beacd3fbc027892db60a25431e57821c55f",
      "s": "0x47a610c8b5d4c0391fdd9a8d8389d0852855afa35c552c7dad798cb64103f121",
      "v": 27,
      "creates": null,
      "raw": "0xf86e820185850d4bd45d7d82520894b2169f1326fe9745321ad99563654089badf09eb888ac7230489e80000801ba018535d69016696025f816365c5da8beacd3fbc027892db60a25431e57821c55fa047a610c8b5d4c0391fdd9a8d8389d0852855afa35c552c7dad798cb64103f121",
      "networkId": 0,
      "chainId": 0
    }
  ]
}