{
  "hash": "0xca94cb159315693392e3253fec0d5abd003c3154459b50f8d1dc36faa1ed74b9",
  "parentHash": "0x8d978363972cb7d195554ebf73c885a4231e25026bf650c2560d34e321cdafd3",
  "number": 76538,
  "timestamp": 1439422233,
  "nonce": "0x1004313b9fc69a2d",
  "difficulty": 2231861237539,
  "gasLimit": {
    "_hex": "0x2fefd8"
  },
  "gasUsed": {
    "_hex": "0x546c"
  },
  "miner": "0xbb7B8287f3F0a933474a79eAe42CBCa977791171",
  "extraData": "0x476574682f4c5649562f76312e302e312f6c696e75782f676f312e342e32",
  "transactions": [
    {
      "hash": "0xef268b74c7a1d87a16575441f7f47744983727f199297db26c83fc375c8850b8",
      "blockHash": "0xca94cb159315693392e3253fec0d5abd003c3154459b50f8d1dc36faa1ed74b9",
      "blockNumber": 76538,
      "transactionIndex": 0,
      "confirmations": null,
      "from": "0x66493587E4BFbAf65E6295308371a78761a2794D",
      "gasPrice": {
        "_hex": "0x1096e0a5c69"
      },
      "gasLimit": {
        "_hex": "0x55f0"
      },
      "to": "0x2910543Af39abA0Cd09dBb2D50200b3E800A63D2",
      "value": {
        "_hex": "0x11c37937e08000"
      },
      "nonce": 4,
      "data": "0x454e37374a5a364338",
      "r": "0xcac92ecafc5a4b58a5b447d74f8fecca3d84b696236c7074b0dd9bf026f9bdf2",
      "s": "0x4d44e91430f4d06490d27a30fb89924fe6eb2a2d0f3120721fe8f443bf90a1ce",
      "v": 28,
      "creates": null,
      "raw": "0xf875048601096e0a5c698255f0942910543af39aba0cd09dbb2d50200b3e800a63d28711c37937e0800089454e37374a5a3643381ca0cac92ecafc5a4b58a5b447d74f8fecca3d84b696236c7074b0dd9bf026f9bdf2a04d44e91430f4d06490d27a30fb89924fe6eb2a2d0f3120721fe8f443bf90a1ce",
      "networkId": 0,
      "chainId": 0
    }
  ]
}