{
  "hash": "0x1b1a3ce0487283c29f078039081bc7cd122199abdb800cc7d39c4701cf49b8c8",
  "parentHash": "0xd56ae100f25951aa566cc447e8a7490fa219fdd0c1fa5204d2e0545999a3cbb2",
  "number": 47102,
  "timestamp": 1438934229,
  "nonce": "0x780c84c43106efe3",
  "difficulty": 1461680895676,
  "gasLimit": {
    "_hex": "0x97c3"
  },
  "gasUsed": {
    "_hex": "0x5208"
  },
  "miner": "0x4947190fcC30D3fb3a16233b259bFe6b3492339a",
  "extraData": "0x476574682f6e75632f76312e302e312f6c696e75782f676f312e342e32",
  "transactions": [
    {
      "hash": "0xc41e8bbcd7a0903aa12b36fe343574d57e553011e280824ba50c870a1f04f9ad",
      "blockHash": "0x1b1a3ce0487283c29f078039081bc7cd122199abdb800cc7d39c4701cf49b8c8",
      "blockNumber": 47102,
      "transactionIndex": 0,
      "confirmations": null,
      "from": "0xe6A7a1d47ff21B6321162AEA7C6CB457D5476Bca",
      "gasPrice": {
        "_hex": "0xcf545cd59"
      },
      "gasLimit": {
        "_hex": "0x5208"
      },
      "to": "0xf88a65846C19D8fc76fFf545fEAa7bbc7114F667",
      "value": {
        "_hex": "0x2a6c366a1c16c238"
      },
      "nonce": 43,
      "data": "0x",
      "r": "0xf64c50f4675bf4008100376e977d279cb8f9c0249ab82c1e65f11cf6ef0f562d",
      "s": "0x0b9b24ebc723a1d8f910e88444189e601c226e5c79812be1ae64221c08154a0b",
      "v": 27,
      "creates": null,
      "raw": "0xf86c2b850cf545cd5982520894f88a65846c19d8fc76fff545feaa7bbc7114f667882a6c366a1c16c238801ba0f64c50f4675bf4008100376e977d279cb8f9c0249ab82c1e65f11cf6ef0f562da00b9b24ebc723a1d8f910e88444189e601c226e5c79812be1ae64221c08154a0b",
      "networkId": 0,
      "chainId": 0
    }
  ]
}