{
  "hash": "0xe0f1b10a4c6799b68871f2409cbca9490f3fdef834bc7ccb79f03397f3a786a7",
  "parentHash": "0xcb85c9619153acb3b843f9a07b4bcf77d67d65f2776c7cc76138bf9bbc8f1980",
  "number": 118909,
  "timestamp": 1440133389,
  "nonce": "0x13c3b38c7abfa480",
  "difficulty": 4401154711808,
  "gasLimit": {
    "_hex": "0x2fefd8"
  },
  "gasUsed": {
    "_hex": "0xf618"
  },
  "miner": "0x580992B51e3925e23280EfB93d3047C82f17E038",
  "extraData": "0x",
  "transactions": [
    {
      "hash": "0xebb5a19ce188a5355df292866853dcb5899ea2907a5f8c7194b3605ec716104b",
      "blockHash": "0xe0f1b10a4c6799b68871f2409cbca9490f3fdef834bc7ccb79f03397f3a786a7",
      "blockNumber": 118909,
      "transactionIndex": 0,
      "confirmations": null,
      "from": "0xF93f1437b05Ad46eF153702cB73E4443f760f4d0",
      "gasPrice": {
        "_hex": "0xd3d37f23a"
      },
      "gasLimit": {
        "_hex": "0x15f90"
      },
      "to": "0x8Be84A3adfBc51c59023B2413766E229108c35DE",
      "value": {
        "_hex": "0xde0b6b3a7640000"
      },
      "nonce": 0,
      "data": "0x",
      "r": "0x703517a2acded360c1396f986b30fa26d2967576c2ad879daec7808f67270427",
      "s": "0x040dd3825873ada26241f2fe7f18d50766459e6ca210042b19ea992fee252f1d",
      "v": 27,
      "creates": null,
      "raw": "0xf86d80850d3d37f23a83015f90948be84a3adfbc51c59023b2413766e229108c35de880de0b6b3a7640000801ba0703517a2acded360c1396f986b30fa26d2967576c2ad879daec7808f67270427a0040dd3825873ada26241f2fe7f18d50766459e6ca210042b19ea992fee252f1d",
      "networkId": 0,
      "chainId": 0
    },
    {
      "hash": "0xd8fa20f31ac0f8a5790fdeb61e844b441c34159d8bb8a05d80a65a8247da739c",
      "blockHash": "0xe0f1b10a4c6799b68871f2409cbca9490f3fdef834bc7ccb79f03397f3a786a7",
      "blockNumber": 118909,
      "transactionIndex": 1,
      "confirmations": null,
      "from": "0xAB271f23c1fC6CCf23FdEC571d5B21eFccCfa449",
      "gasPrice": {
        "_hex": "0xba43b7400"
      },
      "gasLimit": {
        "_hex": "0x5208"
      },
      "to": "0x32Be343B94f860124dC4fEe278FDCBD38C102D88",
      "value": {
        "_hex": "0x1ba575bda17e73000"
      },
      "nonce": 0,
      "data": "0x",
      "r": "0xef4e37a65787a4aa2f488c0ccff9881268c7e2364171094a835c527262ed3264",
      "s": "0x664cef9739ce5e6f35638dff9f4552a4bef254ef34aee7f1a79bd54cd26e486b",
      "v": 28,
      "creates": null,
      "raw": "0xf86d80850ba43b74008252089432be343b94f860124dc4fee278fdcbd38c102d888901ba575bda17e73000801ca0ef4e37a65787a4aa2f488c0ccff9881268c7e2364171094a835c527262ed3264a0664cef9739ce5e6f35638dff9f4552a4bef254ef34aee7f1a79bd54cd26e486b",
      "networkId": 0,
      "chainId": 0
    },
    {
      "hash": "0x883c06da6f204ee05d0d3ff5be4d1a68355f9a4ac2f362a23c53fe231f2b3140",
      "blockHash": "0xe0f1b10a4c6799b68871f2409cbca9490f3fdef834bc7ccb79f03397f3a786a7",
      "blockNumber": 118909,
      "transactionIndex": 2,
      "confirmations": null,
      "from": "0xc53A7310B6BCc3a2FF93E7cfA2AF1d5AD4f5ac76",
      "gasPrice": {
        "_hex": "0xba43b7400"
      },
      "gasLimit": {
        "_hex": "0x5208"
      },
      "to": "0x32Be343B94f860124dC4fEe278FDCBD38C102D88",
      "value": {
        "_hex": "0x19d8b2324b5a06000"
      },
      "nonce": 0,
      "data": "0x",
      "r": "0xdc5948416e6f5a9429697f8e6e22964d30088024e53e8fe38ea7dfa95d1b743d",
      "s": "0x33238dc0665ce1fc67ba3d811be9e981fa4e2a177d63e5ea34ce965d3f5260ef",
      "v": 27,
      "creates": null,
      "raw": "0xf86d80850ba43b74008252089432be343b94f860124dc4fee278fdcbd38c102d8889019d8b2324b5a06000801ba0dc5948416e6f5a9429697f8e6e22964d30088024e53e8fe38ea7dfa95d1b743da033238dc0665ce1fc67ba3d811be9e981fa4e2a177d63e5ea34ce965d3f5260ef",
      "networkId": 0,
      "chainId": 0
    }
  ]
}