{
  "hash": "0x9651ad650725bf6fec6e2807bfba8aa566b5916955dcece5aa7df5c72bd851bd",
  "parentHash": "0x13304d7f1e039998bc5ac7f8a991d236c29dd8fc0fa0d9370710c78e40510bc8",
  "number": 77838,
  "timestamp": 1439443776,
  "nonce": "0x27f4923d38441ad5",
  "difficulty": 2277751369913,
  "gasLimit": {
    "_hex": "0x2fefd8"
  },
  "gasUsed": {
    "_hex": "0x5208"
  },
  "miner": "0x88D74a59454F6cF3B51ef6b9136AFb6b9D405A88",
  "extraData": "0x476574682f76312e302e312d37666266393930632f6c696e75782f676f312e34",
  "transactions": [
    {
      "hash": "0xdb8d4731c0323f6f0b7cd696e274f1f162a51e4ddc586062d3043137b453640e",
      "blockHash": "0x9651ad650725bf6fec6e2807bfba8aa566b5916955dcece5aa7df5c72bd851bd",
      "blockNumber": 77838,
      "transactionIndex": 0,
      "confirmations": null,
      "from": "0x723E05fF30e4ba7A87b4D7D459eE5B488A9c36d1",
      "gasPrice": {
        "_hex": "0xcca322886"
      },
      "gasLimit": {
        "_hex": "0x15f90"
      },
      "to": "0xabceA603089850F8f6bB612A9031554D90A247CF",
      "value": {
        "_hex": "0x4563918244f40000"
      },
      "nonce": 12,
      "data": "0x",
      "r": "0x20832b32a272c697f078501dfbeb7e7f0aedf210aa0950542a4666e0d89e54e1",
      "s": "0x763f28daedd4dc06a98c96498c58077d43357df3143be1ee89b1a1fca0210257",
      "v": 28,
      "creates": null,
      "raw": "0xf86d0c850cca32288683015f9094abcea603089850f8f6bb612a9031554d90a247cf884563918244f40000801ca020832b32a272c697f078501dfbeb7e7f0aedf210aa0950542a4666e0d89e54e1a0763f28daedd4dc06a98c96498c58077d43357df3143be1ee89b1a1fca0210257",
      "networkId": 0,
      "chainId": 0
    }
  ]
}