{
  "hash": "0xfc818476f752f6189c78e06cfaf5c3881a37ebaf2b18bcb0ba49eaecf3d19cf2",
  "parentHash": "0xaaea186b85c2b2be66a7b2a6a4583113388d0f8508a1f16270e618d8fb562280",
  "number": 80875,
  "timestamp": 1439492525,
  "nonce": "0x0174ab047e1c7ad4",
  "difficulty": 2441593501792,
  "gasLimit": {
    "_hex": "0x2fefd8"
  },
  "gasUsed": {
    "_hex": "0x5208"
  },
  "miner": "0x7D45E10A0d63eCCA0694a7cbfF030f4dD87DA0dC",
  "extraData": "0x476574682f76312e302e302f77696e646f77732f676f312e342e32",
  "transactions": [
    {
      "hash": "0xfefc5d01437b1d94099241664f780b046e2c9c33bd66fefe86a00ebe8a619abf",
      "blockHash": "0xfc818476f752f6189c78e06cfaf5c3881a37ebaf2b18bcb0ba49eaecf3d19cf2",
      "blockNumber": 80875,
      "transactionIndex": 0,
      "confirmations": null,
      "from": "0x32Be343B94f860124dC4fEe278FDCBD38C102D88",
      "gasPrice": {
        "_hex": "0xd7040fec3"
      },
      "gasLimit": {
        "_hex": "0x5208"
      },
      "to": "0x859337F6BeF10dEE917c9F7086B47Fc9B019d45b",
      "value": {
        "_hex": "0x176b3eee563784000"
      },
      "nonce": 558,
      "data": "0x",
      "r": "0x5986c1ffd4b1e4e95cdfee61a29910934e035361ed5ea2f1415ec4df67a4abe1",
      "s": "0x55e922f90533466fd7101674571ad3815d65b616958660a630260fbd511206d8",
      "v": 27,
      "creates": null,
      "raw": "0xf86f82022e850d7040fec382520894859337f6bef10dee917c9f7086b47fc9b019d45b890176b3eee563784000801ba05986c1ffd4b1e4e95cdfee61a29910934e035361ed5ea2f1415ec4df67a4abe1a055e922f90533466fd7101674571ad3815d65b616958660a630260fbd511206d8",
      "networkId": 0,
      "chainId": 0
    }
  ]
}