{
  "hash": "0x954f5606769aa56d9b82b2e056a07ef45f61c6976722dfbf7f399e16ca2988d7",
  "parentHash": "0x4ffb4ec8410d75dbc219cf2e025446809cb9c393f29c3e173221f4a76f1a612b",
  "number": 68554,
  "timestamp": 1439289953,
  "nonce": "0x22fb56f5a66da6ef",
  "difficulty": 2008407901114,
  "gasLimit": {
    "_hex": "0x2fefd8"
  },
  "gasUsed": {
    "_hex": "0x41a0a"
  },
  "miner": "0x88D74a59454F6cF3B51ef6b9136AFb6b9D405A88",
  "extraData": "0x476574682f76312e302e312d37666266393930632f6c696e75782f676f312e34",
  "transactions": [
    {
      "hash": "0x51ae6e132c3ec58b208ba54fd0f29ed984dee97929ea9a12a4713dff12b75964",
      "blockHash": "0x954f5606769aa56d9b82b2e056a07ef45f61c6976722dfbf7f399e16ca2988d7",
      "blockNumber": 68554,
      "transactionIndex": 0,
      "confirmations": null,
      "from": "0x17580B766f7453525ca4C6A88b01b50570EA088C",
      "gasPrice": {
        "_hex": "0xdcfbc194c"
      },
      "gasLimit": {
        "_hex": "0x61a80"
      },
      "to": "0x5Fe5B7546D1628f7348B023A0393de1FC825A4fD",
      "value": {
        "_hex": "0xde0b6b3a7640000"
      },
      "nonce": 38,
      "data": "0xb595b8b50000000000000000000000000000000000000000000000000000000000000000",
      "r": "0x8b2cacfd6c78e9767129688718d8d4bb61f85b6160ae141e85e88a652814ad9e",
      "s": "0x18c0ab21ea9d98f66da0268b5d8e1644258c37e2715ddabb93b8f802b259670c",
      "v": 27,
      "creates": null,
      "raw": "0xf89126850dcfbc194c83061a80945fe5b7546d1628f7348b023a0393de1fc825a4fd880de0b6b3a7640000a4b595b8b500000000000000000000000000000000000000000000000000000000000000001ba08b2cacfd6c78e9767129688718d8d4bb61f85b6160ae141e85e88a652814ad9ea018c0ab21ea9d98f66da0268b5d8e1644258c37e2715ddabb93b8f802b259670c",
      "networkId": 0,
      "chainId": 0
    },
    {
      "hash": "0x6fbee68b14c7b3697a05889e9786040b6852f55d14be5a37ce01fabe529420fa",
      "blockHash": "0x954f5606769aa56d9b82b2e056a07ef45f61c6976722dfbf7f399e16ca2988d7",
      "blockNumber": 68554,
      "transactionIndex": 1,
      "confirmations": null,
      "from": "0x6e031502CBa05e338Fb8163584778Ca95Eca0C9a",
      "gasPrice": {
        "_hex": "0xba43b7400"
      },
      "gasLimit": {
        "_hex": "0x5208"
      },
      "to": "0x17245336eA733da9E9070B49E07f7cbF07E2F9f6",
      "value": {
        "_hex": "0x7c58ada8ff2000"
      },
      "nonce": 1,
      "data": "0x",
      "r": "0x9ead798c4b52e32bd9813ce631a5b85e74992df0f49fa8f6af2d1972351272e1",
      "s": "0x78b00d0693325f87b49ef84f3cb1e3d91d02a13ff71cc16c4a3f98f18da82923",
      "v": 28,
      "creates": null,
      "raw": "0xf86b01850ba43b74008252089417245336ea733da9e9070b49e07f7cbf07e2f9f6877c58ada8ff2000801ca09ead798c4b52e32bd9813ce631a5b85e74992df0f49fa8f6af2d1972351272e1a078b00d0693325f87b49ef84f3cb1e3d91d02a13ff71cc16c4a3f98f18da82923",
      "networkId": 0,
      "chainId": 0
    },
    {
      "hash": "0x3b7f150a5e1291abdbeb2c23426fa9c3d53b37d7acadc59844bf2f33d50138b0",
      "blockHash": "0x954f5606769aa56d9b82b2e056a07ef45f61c6976722dfbf7f399e16ca2988d7",
      "blockNumber": 68554,
      "transactionIndex": 2,
      "confirmations": null,
      "from": "0x8d3DFe522f4d122c03a2cC08a7617390D609B8b4",
      "gasPrice": {
        "_hex": "0xba43b7400"
      },
      "gasLimit": {
        "_hex": "0x5208"
      },
      "to": "0x5A82f9daA20F323d73E3C2e31f1D26a1e5ec789e",
      "value": {
        "_hex": "0x7c58ada8ff2000"
      },
      "nonce": 1,
      "data": "0x",
      "r": "0xf02c4d10045df3296a5dd810f2e9e0c28b3c39f5a7717a5f7169cc7287d055be",
      "s": "0x4c43dae5f681a05bf0cb98d1f835105a8f727715e8af70729cd7e9f77e89c790",
      "v": 28,
      "creates": null,
      "raw": "0xf86b01850ba43b7400825208945a82f9daa20f323d73e3c2e31f1d26a1e5ec789e877c58ada8ff2000801ca0f02c4d10045df3296a5dd810f2e9e0c28b3c39f5a7717a5f7169cc7287d055bea04c43dae5f681a05bf0cb98d1f835105a8f727715e8af70729cd7e9f77e89c790",
      "networkId": 0,
      "chainId": 0
    },
    {
      "hash": "0xb85f0c375af7e1f07fc309a4821472a96272f726ba0357c898d82b0939fb5b0e",
      "blockHash": "0x954f5606769aa56d9b82b2e056a07ef45f61c6976722dfbf7f399e16ca2988d7",
      "blockNumber": 68554,
      "transactionIndex": 3,
      "confirmations": null,
      "from": "0x38781b59107EFE78d3A4125A26e70d289C49a00E",
      "gasPrice": {
        "_hex": "0xba43b7400"
      },
      "gasLimit": {
        "_hex": "0x5208"
      },
      "to": "0x08Cf7C87B3Bb28C3E6784b307862Eaf827f4aa6E",
      "value": {
        "_hex": "0x7c58ada8ff2000"
      },
      "nonce": 1,
      "data": "0x",
      "r": "0x7783567a1bdef0617f363d2755c6732694856a0588bc8f5e49c2fdd9aacfe455",
      "s": "0x13ec654d0aed43e47eb2903745d3827af4acf360def72265fc9d540b76868bbe",
      "v": 28,
      "creates": null,
      "raw": "0xf86b01850ba43b74008252089408cf7c87b3bb28c3e6784b307862eaf827f4aa6e877c58ada8ff2000801ca07783567a1bdef0617f363d2755c6732694856a0588bc8f5e49c2fdd9aacfe455a013ec654d0aed43e47eb2903745d3827af4acf360def72265fc9d540b76868bbe",
      "networkId": 0,
      "chainId": 0
    },
    {
      "hash": "0xa565d7de6d9ad628eda21a5013e608227859c30b7334e437268bd3788b8d7a33",
      "blockHash": "0x954f5606769aa56d9b82b2e056a07ef45f61c6976722dfbf7f399e16ca2988d7",
      "blockNumber": 68554,
      "transactionIndex": 4,
      "confirmations": null,
      "from": "0x4C0B59673Bdd9b8c51Fc8ab05D9374Ea3b8C2434",
      "gasPrice": {
        "_hex": "0xba43b7400"
      },
      "gasLimit": {
        "_hex": "0x5208"
      },
      "to": "0xC0855Fc346eecc63859DA34e49F8AA8670d4A67B",
      "value": {
        "_hex": "0x7c58ada8ff2000"
      },
      "nonce": 1,
      "data": "0x",
      "r": "0x66560318bc1cb79b89f391a1d3ce6554ac53cac7415343650ebc3514350e18bd",
      "s": "0x7243ac6fd97a535a5216d53a8192c96d189d23d3aa2020876f07984db6289df7",
      "v": 28,
      "creates": null,
      "raw": "0xf86b01850ba43b740082520894c0855fc346eecc63859da34e49f8aa8670d4a67b877c58ada8ff2000801ca066560318bc1cb79b89f391a1d3ce6554ac53cac7415343650ebc3514350e18bda07243ac6fd97a535a5216d53a8192c96d189d23d3aa2020876f07984db6289df7",
      "networkId": 0,
      "chainId": 0
    },
    {
      "hash": "0xc7373c9d6628a16a30763257cb3ce379ed3858e0214d65e4811d0af4032b6ad8",
      "blockHash": "0x954f5606769aa56d9b82b2e056a07ef45f61c6976722dfbf7f399e16ca2988d7",
      "blockNumber": 68554,
      "transactionIndex": 5,
      "confirmations": null,
      "from": "0xfe01712F7e4C696F74371881bE28A07C197E5aE2",
      "gasPrice": {
        "_hex": "0xba43b7400"
      },
      "gasLimit": {
        "_hex": "0x5208"
      },
      "to": "0xf4f5837Ef31957349089F6160A57205a8B823b96",
      "value": {
        "_hex": "0x7c58ada8ff2000"
      },
      "nonce": 1,
      "data": "0x",
      "r": "0xd4db7d2bab0dec0b8b2afaeece9e71e681622dee7ec95b1fc4a3f2ee7b772117",
      "s": "0x78c55c60e4586eae85e3ee8c765551d9915497c68685f7d5d1698943a9c90f21",
      "v": 27,
      "creates": null,
      "raw": "0xf86b01850ba43b740082520894f4f5837ef31957349089f6160a57205a8b823b96877c58ada8ff2000801ba0d4db7d2bab0dec0b8b2afaeece9e71e681622dee7ec95b1fc4a3f2ee7b772117a078c55c60e4586eae85e3ee8c765551d9915497c68685f7d5d1698943a9c90f21",
      "networkId": 0,
      "chainId": 0
    },
    {
      "hash": "0xe2317e2fcba3bcdcd42ac45e4b869ce0d044c8a784cb0dd45a391bf959946884",
      "blockHash": "0x954f5606769aa56d9b82b2e056a07ef45f61c6976722dfbf7f399e16ca2988d7",
      "blockNumber": 68554,
      "transactionIndex": 6,
      "confirmations": null,
      "from": "0x687C49be0e90EB41956F5892822DC8Bb7706792a",
      "gasPrice": {
        "_hex": "0xba43b7400"
      },
      "gasLimit": {
        "_hex": "0x5208"
      },
      "to": "0xDEf1e51D3Ce3C0014E315814fEC373b1963BD4a8",
      "value": {
        "_hex": "0x7c58ada8ff2000"
      },
      "nonce": 1,
      "data": "0x",
      "r": "0x6e3a488eafe6056cff165801d71ef18d50650966e9c54c1e782b150211a09072",
      "s": "0x7391e47e31cde1c77b533184e1f2559a66956557b5ac974422497d03a01f5551",
      "v": 28,
      "creates": null,
      "raw": "0xf86b01850ba43b740082520894def1e51d3ce3c0014e315814fec373b1963bd4a8877c58ada8ff2000801ca06e3a488eafe6056cff165801d71ef18d50650966e9c54c1e782b150211a09072a07391e47e31cde1c77b533184e1f2559a66956557b5ac974422497d03a01f5551",
      "networkId": 0,
      "chainId": 0
    },
    {
      "hash": "0x7352e5c128b85553cbb243c006de987209f530fdb881a3d809091a4155269a53",
      "blockHash": "0x954f5606769aa56d9b82b2e056a07ef45f61c6976722dfbf7f399e16ca2988d7",
      "blockNumber": 68554,
      "transactionIndex": 7,
      "confirmations": null,
      "from": "0x9a0A94E3Ca92a34AC891f8E3a368D5af3ed62A9C",
      "gasPrice": {
        "_hex": "0xba43b7400"
      },
      "gasLimit": {
        "_hex": "0x5208"
      },
      "to": "0xC1495EDb9fb916DC3Cfa9d964789e52aF50DE93c",
      "value": {
        "_hex": "0x7c58ada8ff2000"
      },
      "nonce": 1,
      "data": "0x",
      "r": "0xd5735def20c65e7c5f24954933099ca6bce2f14207a7601dff1321dec949e9bb",
      "s": "0x47a37a9f263fb12f107fd3488f808beb7b297127fbba2be3c152bfb82f955af8",
      "v": 27,
      "creates": null,
      "raw": "0xf86b01850ba43b740082520894c1495edb9fb916dc3cfa9d964789e52af50de93c877c58ada8ff2000801ba0d5735def20c65e7c5f24954933099ca6bce2f14207a7601dff1321dec949e9bba047a37a9f263fb12f107fd3488f808beb7b297127fbba2be3c152bfb82f955af8",
      "networkId": 0,
      "chainId": 0
    },
    {
      "hash": "0x2fbf57a03415c8a55497c904555f2d82e4fc59d87ca850c5c2b45912ee0602d8",
      "blockHash": "0x954f5606769aa56d9b82b2e056a07ef45f61c6976722dfbf7f399e16ca2988d7",
      "blockNumber": 68554,
      "transactionIndex": 8,
      "confirmations": null,
      "from": "0x56fc2c44476c6B5C54754E0C6aB56FA19F1fE2ad",
      "gasPrice": {
        "_hex": "0xba43b7400"
      },
      "gasLimit": {
        "_hex": "0x5208"
      },
      "to": "0xC8d30056dB6d7d31846fB93F4f779048E89Db548",
      "value": {
        "_hex": "0x7c58ada8ff2000"
      },
      "nonce": 1,
      "data": "0x",
      "r": "0x332762cca333eeb6b999775eb1c9b4184b10d3d62bb2d6aa259e10a0d9cfcd5a",
      "s": "0x12bb4b967c8c8ca5b302e741cbf9c75f98504faf360af78ea2f3b29e5041ef52",
      "v": 27,
      "creates": null,
      "raw": "0xf86b01850ba43b740082520894c8d30056db6d7d31846fb93f4f779048e89db548877c58ada8ff2000801ba0332762cca333eeb6b999775eb1c9b4184b10d3d62bb2d6aa259e10a0d9cfcd5aa012bb4b967c8c8ca5b302e741cbf9c75f98504faf360af78ea2f3b29e5041ef52",
      "networkId": 0,
      "chainId": 0
    },
    {
      "hash": "0x9f877060c43a3a1cbd125349f661bb4551b13d5adfd58b97a489f8c49e4617a9",
      "blockHash": "0x954f5606769aa56d9b82b2e056a07ef45f61c6976722dfbf7f399e16ca2988d7",
      "blockNumber": 68554,
      "transactionIndex": 9,
      "confirmations": null,
      "from": "0x17b4c395793d0808549Fb843199c4E54f0bBA19a",
      "gasPrice": {
        "_hex": "0xba43b7400"
      },
      "gasLimit": {
        "_hex": "0x5208"
      },
      "to": "0x7B80ECc19271F85095613A59df426456cF219A20",
      "value": {
        "_hex": "0x7c58ada8ff2000"
      },
      "nonce": 1,
      "data": "0x",
      "r": "0xe6dc9447e0ab2996594b8f693b1523b0ae0a44cb21f63e28ca319cff9c88385a",
      "s": "0x6a50fd888354fe23e68c831b0e0267f1dc0638d58a6f27e55063b6ad8504500d",
      "v": 27,
      "creates": null,
      "raw": "0xf86b01850ba43b7400825208947b80ecc19271f85095613a59df426456cf219a20877c58ada8ff2000801ba0e6dc9447e0ab2996594b8f693b1523b0ae0a44cb21f63e28ca319cff9c88385aa06a50fd888354fe23e68c831b0e0267f1dc0638d58a6f27e55063b6ad8504500d",
      "networkId": 0,
      "chainId": 0
    },
    {
      "hash": "0x660e7bde9d085419c997d29db9d02953d7e4e56a356b4760380ab4595e8f2cd9",
      "blockHash": "0x954f5606769aa56d9b82b2e056a07ef45f61c6976722dfbf7f399e16ca2988d7",
      "blockNumber": 68554,
      "transactionIndex": 10,
      "confirmations": null,
      "from": "0xB117687F9CF5A2a598A0Ee0C160d776CBd556601",
      "gasPrice": {
        "_hex": "0xba43b7400"
      },
      "gasLimit": {
        "_hex": "0x5208"
      },
      "to": "0x5A882995b927DEC0d85DD0233D3A8fc4591B7FC8",
      "value": {
        "_hex": "0x7c58ada8ff2000"
      },
      "nonce": 1,
      "data": "0x",
      "r": "0x5deb705966271e04b5a1e79786853c57d8b42c23eb9622900e4352b0d29781b7",
      "s": "0x6a3e353160c23a7ce8eafa7315b108f0cd9da57bfeec33dfe8138846ee1bfe76",
      "v": 27,
      "creates": null,
      "raw": "0xf86b01850ba43b7400825208945a882995b927dec0d85dd0233d3a8fc4591b7fc8877c58ada8ff2000801ba05deb705966271e04b5a1e79786853c57d8b42c23eb9622900e4352b0d29781b7a06a3e353160c23a7ce8eafa7315b108f0cd9da57bfeec33dfe8138846ee1bfe76",
      "networkId": 0,
      "chainId": 0
    },
    {
      "hash": "0x3f140657aa7bda5b4ae9e9a558c050aebdaf5acbc098faaf399d0afa50f0239a",
      "blockHash": "0x954f5606769aa56d9b82b2e056a07ef45f61c6976722dfbf7f399e16ca2988d7",
      "blockNumber": 68554,
      "transactionIndex": 11,
      "confirmations": null,
      "from": "0x5d8c7717231787e74E829e651140daF99de895ca",
      "gasPrice": {
        "_hex": "0xba43b7400"
      },
      "gasLimit": {
        "_hex": "0x5208"
      },
      "to": "0x91D0394642a0a0e2B1a74B42a26CaAbf17E3B80c",
      "value": {
        "_hex": "0x7c58ada8ff2000"
      },
      "nonce": 1,
      "data": "0x",
      "r": "0x71a0438bbbb27bbd8140f18536a150d2695dae8bc7e9af41a3a37b0e5c2b1690",
      "s": "0x6a668e86f3f2362ac6777ff28b2632c20200060ea600b4d7c79852e6924bcb52",
      "v": 27,
      "creates": null,
      "raw": "0xf86b01850ba43b74008252089491d0394642a0a0e2b1a74b42a26caabf17e3b80c877c58ada8ff2000801ba071a0438bbbb27bbd8140f18536a150d2695dae8bc7e9af41a3a37b0e5c2b1690a06a668e86f3f2362ac6777ff28b2632c20200060ea600b4d7c79852e6924bcb52",
      "networkId": 0,
      "chainId": 0
    }
  ]
}