{
  "hash": "0x99611cd279eda1292124bad1b355af0b25eda00e6b73bb552fd6f5cffa38522f",
  "parentHash": "0xa8e9f5a1489f9ab05dedb7a1ac3f8e4d827599716f90a7e0349ecf93bcae9c76",
  "number": 56094,
  "timestamp": 1439081872,
  "nonce": "0xb25d828b0f39fe3e",
  "difficulty": 1632060416255,
  "gasLimit": {
    "_hex": "0x2fefd8"
  },
  "gasUsed": {
    "_hex": "0x5208"
  },
  "miner": "0x88D74a59454F6cF3B51ef6b9136AFb6b9D405A88",
  "extraData": "0x476574682f76312e302e312d37666266393930632f6c696e75782f676f312e34",
  "transactions": [
    {
      "hash": "0x6f62a6aeef46ccb8b6ef3db8dc28a943aa68da702db88472a4fc8a90197e58a0",
      "blockHash": "0x99611cd279eda1292124bad1b355af0b25eda00e6b73bb552fd6f5cffa38522f",
      "blockNumber": 56094,
      "transactionIndex": 0,
      "confirmations": null,
      "from": "0x55bAf64fc9eAccFFd7Cc643BB61142E1C6ac093e",
      "gasPrice": {
        "_hex": "0xdfa9c6573"
      },
      "gasLimit": {
        "_hex": "0x15f90"
      },
      "to": "0xfE439e496730A23d448f85fA219972ea04793aB7",
      "value": {
        "_hex": "0xde0b6b3a7640000"
      },
      "nonce": 0,
      "data": "0x",
      "r": "0x1516e9948b1ee7522db6d74a333f3bf0316cdcf945c86689dabf249e1696f1c4",
      "s": "0x2ae147f3b2814258fb4dd2e6c8d45ace26c3951f53cc9ed389143e70b2bfea6c",
      "v": 28,
      "creates": null,
      "raw": "0xf86d80850dfa9c657383015f9094fe439e496730a23d448f85fa219972ea04793ab7880de0b6b3a7640000801ca01516e9948b1ee7522db6d74a333f3bf0316cdcf945c86689dabf249e1696f1c4a02ae147f3b2814258fb4dd2e6c8d45ace26c3951f53cc9ed389143e70b2bfea6c",
      "networkId": 0,
      "chainId": 0
    }
  ]
}