{
  "hash": "0x86e273049fa9d91a2f6d11cd41eccf26e1f2d7955c9c64d948a3e102a82466bd",
  "parentHash": "0xea3e0089a59ba3a3d8182a3d2b0224e7ef2156ed0a16621c9e4ae0e4b2297edc",
  "number": 113382,
  "timestamp": 1440022525,
  "nonce": "0xbc6fbb459f2187d9",
  "difficulty": 4475594058168,
  "gasLimit": {
    "_hex": "0x2fefd8"
  },
  "gasUsed": {
    "_hex": "0xa410"
  },
  "miner": "0xe6A7a1d47ff21B6321162AEA7C6CB457D5476Bca",
  "extraData": "0x476574682f76312e302e312d38326566323666362f6c696e75782f676f312e34",
  "transactions": [
    {
      "hash": "0x9ad19a426b24c10a072aefa425f3f427bb850eb66a70987909d24423ab21555a",
      "blockHash": "0x86e273049fa9d91a2f6d11cd41eccf26e1f2d7955c9c64d948a3e102a82466bd",
      "blockNumber": 113382,
      "transactionIndex": 0,
      "confirmations": null,
      "from": "0x3D31A7CdbF1B9952C1c4d567b97c54fc354E6A7B",
      "gasPrice": {
        "_hex": "0xda58a3953"
      },
      "gasLimit": {
        "_hex": "0x5208"
      },
      "to": "0xFBb1b73C4f0BDa4f67dcA266ce6Ef42f520fBB98",
      "value": {
        "_hex": "0x425e2793da68368"
      },
      "nonce": 0,
      "data": "0x",
      "r": "0x7fb82f4c0f6119d377e8be2bc8ef1ff28ec24cd00ce05bb5757619b0d0a2adac",
      "s": "0x24d7c61dec6d68ef0f9ed1c1bbd747ff8f6bbec81809701a001d3193449b1bc5",
      "v": 28,
      "creates": null,
      "raw": "0xf86c80850da58a395382520894fbb1b73c4f0bda4f67dca266ce6ef42f520fbb98880425e2793da68368801ca07fb82f4c0f6119d377e8be2bc8ef1ff28ec24cd00ce05bb5757619b0d0a2adaca024d7c61dec6d68ef0f9ed1c1bbd747ff8f6bbec81809701a001d3193449b1bc5",
      "networkId": 0,
      "chainId": 0
    },
    {
      "hash": "0x15dd4ef6244541bc3376cc3d6b130f2fc23f4757af8c0cfd6f30145e39327437",
      "blockHash": "0x86e273049fa9d91a2f6d11cd41eccf26e1f2d7955c9c64d948a3e102a82466bd",
      "blockNumber": 113382,
      "transactionIndex": 1,
      "confirmations": null,
      "from": "0x6c98db776a9D494264EE160eF60d52b4474c7845",
      "gasPrice": {
        "_hex": "0xda58a3953"
      },
      "gasLimit": {
        "_hex": "0x5208"
      },
      "to": "0xFBb1b73C4f0BDa4f67dcA266ce6Ef42f520fBB98",
      "value": {
        "_hex": "0x169f7b8bd5744f68"
      },
      "nonce": 1,
      "data": "0x",
      "r": "0xfad07987410aa5ffdb5f571886129916c83fc79e2885a6e9fb07d16ad15a879e",
      "s": "0x541d5fddec0f2acc167927e7209eb2b5f9baf860b5b42de3f067aaed578b27a6",
      "v": 28,
      "creates": null,
      "raw": "0xf86c01850da58a395382520894fbb1b73c4f0bda4f67dca266ce6ef42f520fbb9888169f7b8bd5744f68801ca0fad07987410aa5ffdb5f571886129916c83fc79e2885a6e9fb07d16ad15a879ea0541d5fddec0f2acc167927e7209eb2b5f9baf860b5b42de3f067aaed578b27a6",
      "networkId": 0,
      "chainId": 0
    }
  ]
}