{
  "hash": "0xa5a5f0531cdaad6596f8a944ec128541178cb9d3a02e2a0c8ffe0f7d7015dc4f",
  "parentHash": "0x908428ae167f0805e452e98215fd16852328c6a991dfdd70378e47409f9fb4f0",
  "number": 59347,
  "timestamp": 1439136572,
  "nonce": "0xedaea25da1beb581",
  "difficulty": 1707218857893,
  "gasLimit": {
    "_hex": "0x2fefd8"
  },
  "gasUsed": {
    "_hex": "0x5208"
  },
  "miner": "0x88D74a59454F6cF3B51ef6b9136AFb6b9D405A88",
  "extraData": "0x476574682f76312e302e312d38326566323666362f6c696e75782f676f312e34",
  "transactions": [
    {
      "hash": "0x41684f1a159cbb4e7f1b8ab46ccdfc507f22a04562d98323ada6791cc7e1a81f",
      "blockHash": "0xa5a5f0531cdaad6596f8a944ec128541178cb9d3a02e2a0c8ffe0f7d7015dc4f",
      "blockNumber": 59347,
      "transactionIndex": 0,
      "confirmations": null,
      "from": "0x6866e5e1FaBB4AbceF3EEb9Ea0d8CD6b52dfC9FF",
      "gasPrice": {
        "_hex": "0xd1f33529c"
      },
      "gasLimit": {
        "_hex": "0x15f90"
      },
      "to": "0x01Ad0ACFf478127D9d702B1A13599D706cB759b1",
      "value": {
        "_hex": "0xde0b6b3a7640000"
      },
      "nonce": 0,
      "data": "0x",
      "r": "0x797ac4daf76ddb8e0805268c2d617cb5a902ca9c82ec8fb47d19e7c8e73ba974",
      "s": "0x7a4b5e060a5f4306df935810c26349073df1f6c28d215411213157a251033b55",
      "v": 28,
      "creates": null,
      "raw": "0xf86d80850d1f33529c83015f909401ad0acff478127d9d702b1a13599d706cb759b1880de0b6b3a7640000801ca0797ac4daf76ddb8e0805268c2d617cb5a902ca9c82ec8fb47d19e7c8e73ba974a07a4b5e060a5f4306df935810c26349073df1f6c28d215411213157a251033b55",
      "networkId": 0,
      "chainId": 0
    }
  ]
}