{
  "hash": "0xa0ec29951a2d6536a6dcedccca204f410fe1c36224a340b712e857461aae749e",
  "parentHash": "0x67527e593777a72b85e766f4b6aa8aeee22f6a86540636740860a1ee49df34d5",
  "number": 65065,
  "timestamp": 1439230671,
  "nonce": "0x18c4b6a3c984e3d1",
  "difficulty": 1927558798268,
  "gasLimit": {
    "_hex": "0x2fefd8"
  },
  "gasUsed": {
    "_hex": "0xa410"
  },
  "miner": "0xf8E0CA3Ed80bd541b94BEdCf259e8CF2141A9523",
  "extraData": "0x476574682f76312e302e312f77696e646f77732f676f312e342e32",
  "transactions": [
    {
      "hash": "0xcaa4c5da75a6ba1453a80c7fe2eae691309e0ec31457b88dde2c48684d20c9a7",
      "blockHash": "0xa0ec29951a2d6536a6dcedccca204f410fe1c36224a340b712e857461aae749e",
      "blockNumber": 65065,
      "transactionIndex": 0,
      "confirmations": null,
      "from": "0x32Be343B94f860124dC4fEe278FDCBD38C102D88",
      "gasPrice": {
        "_hex": "0xd8364fc25"
      },
      "gasLimit": {
        "_hex": "0x5208"
      },
      "to": "0xb794F5eA0ba39494cE839613fffBA74279579268",
      "value": {
        "_hex": "0x2a5a058fc295ec000000"
      },
      "nonce": 185,
      "data": "0x",
      "r": "0xb643e4a74318405787da346e8269ea46063ffbe2ba714e3309efed6bfdb030c6",
      "s": "0x07b90fd2dcd489bbeb2480d3c42442d9e3d5b92de11cb134bb95cc76d963204f",
      "v": 28,
      "creates": null,
      "raw": "0xf86f81b9850d8364fc2582520894b794f5ea0ba39494ce839613fffba742795792688a2a5a058fc295ec000000801ca0b643e4a74318405787da346e8269ea46063ffbe2ba714e3309efed6bfdb030c6a007b90fd2dcd489bbeb2480d3c42442d9e3d5b92de11cb134bb95cc76d963204f",
      "networkId": 0,
      "chainId": 0
    },
    {
      "hash": "0x11fc032b9c221fa8032021da903495b8e415764cb0193fac3bdbd7e0b2462ee1",
      "blockHash": "0xa0ec29951a2d6536a6dcedccca204f410fe1c36224a340b712e857461aae749e",
      "blockNumber": 65065,
      "transactionIndex": 1,
      "confirmations": null,
      "from": "0x5D5751819b4F3D26eD0C1Ac571552735271dBeFA",
      "gasPrice": {
        "_hex": "0xd3d37f23a"
      },
      "gasLimit": {
        "_hex": "0x15f90"
      },
      "to": "0x071149784Ee80f7e99c409DfD15ba7528606b302",
      "value": {
        "_hex": "0x30ca024f987b900000"
      },
      "nonce": 0,
      "data": "0x",
      "r": "0xd91abbf278fbf119123389e40d495795806ab13fd7f17b5d370ecc57ca745110",
      "s": "0x3345910642589a8377634443423015c13e64282e0419ab253b8f314672e5bb5f",
      "v": 28,
      "creates": null,
      "raw": "0xf86e80850d3d37f23a83015f9094071149784ee80f7e99c409dfd15ba7528606b3028930ca024f987b900000801ca0d91abbf278fbf119123389e40d495795806ab13fd7f17b5d370ecc57ca745110a03345910642589a8377634443423015c13e64282e0419ab253b8f314672e5bb5f",
      "networkId": 0,
      "chainId": 0
    }
  ]
}