{
  "hash": "0x641334c94fda86dadeb53ee2be0bd9fb96904d17d6d40bc85a25438e95bc894e",
  "parentHash": "0x51bcb6a4bb424b3ae431c8cf5322542b6f870108717161569b489ab30276c4f3",
  "number": 48418,
  "timestamp": 1438956797,
  "nonce": "0x7186a7fb182ecc6d",
  "difficulty": 1461451605976,
  "gasLimit": {
    "_hex": "0x17031"
  },
  "gasUsed": {
    "_hex": "0xa674"
  },
  "miner": "0xab84940B570d6358ed6A9Dbf7e0bc8Ec8F5A6E89",
  "extraData": "0x322831652933",
  "transactions": [
    {
      "hash": "0x6ecaf00644c5c004e803e2f6391ee3d83c6c5d774c58c33e0a087814cf90b7fc",
      "blockHash": "0x641334c94fda86dadeb53ee2be0bd9fb96904d17d6d40bc85a25438e95bc894e",
      "blockNumber": 48418,
      "transactionIndex": 0,
      "confirmations": null,
      "from": "0xE09C68e61998D9c81b14E4ee802BA7ADf6d74CdB",
      "gasPrice": {
        "_hex": "0x110c8f7d8de"
      },
      "gasLimit": {
        "_hex": "0xc350"
      },
      "to": "0x2910543Af39abA0Cd09dBb2D50200b3E800A63D2",
      "value": {
        "_hex": "0x2386f26fc10000"
      },
      "nonce": 6,
      "data": "0x454e32413658483230",
      "r": "0xf7844e34fa54414d1e32a2f9432d52fa68bfb1a3c6994a3082039b4f2cbd7959",
      "s": "0x8550f043be1b55ef5f0bfd44a3954512515c43f18b0a5797e3edb91a3670c7c6",
      "v": 27,
      "creates": null,
      "raw": "0xf87506860110c8f7d8de82c350942910543af39aba0cd09dbb2d50200b3e800a63d2872386f26fc1000089454e324136584832301ba0f7844e34fa54414d1e32a2f9432d52fa68bfb1a3c6994a3082039b4f2cbd7959a08550f043be1b55ef5f0bfd44a3954512515c43f18b0a5797e3edb91a3670c7c6",
      "networkId": 0,
      "chainId": 0
    },
    {
      "hash": "0x45742f3d6e24c2d7ef478e186ea37351c8eb87d3341c4e249e182fe95cf20dee",
      "blockHash": "0x641334c94fda86dadeb53ee2be0bd9fb96904d17d6d40bc85a25438e95bc894e",
      "blockNumber": 48418,
      "transactionIndex": 1,
      "confirmations": null,
      "from": "0xDE06D5EA777a4eb1475e605dbcBf43444e8037ea",
      "gasPrice": {
        "_hex": "0x10dc90d85e7"
      },
      "gasLimit": {
        "_hex": "0x55f0"
      },
      "to": "0x81B0E1aC46A7dfED98187796D0E55Ac64b01F60C",
      "value": {
        "_hex": "0xde0b6b3a7640000"
      },
      "nonce": 1,
      "data": "0x",
      "r": "0x48c9e344a86735df97567cd9dccb3b82f26081689c4355515763742b8d2d85d3",
      "s": "0x4f60cb8ea48fff5e12c028d941a6b39e388b1c4674ca8150529bc5f35dee114f",
      "v": 28,
      "creates": null,
      "raw": "0xf86d0186010dc90d85e78255f09481b0e1ac46a7dfed98187796d0e55ac64b01f60c880de0b6b3a7640000801ca048c9e344a86735df97567cd9dccb3b82f26081689c4355515763742b8d2d85d3a04f60cb8ea48fff5e12c028d941a6b39e388b1c4674ca8150529bc5f35dee114f",
      "networkId": 0,
      "chainId": 0
    }
  ]
}