{
  "hash": "0x3135e189902f1d14d647a05ab7feb7810ac00e77af08ccc286f1e65628e2b722",
  "parentHash": "0xa72c1583f6ccb8ab5ba456ee2e161a984d32c58d61a285c7c205e200110e1d76",
  "number": 110983,
  "timestamp": 1439982712,
  "nonce": "0x9fb4efc1bab4300a",
  "difficulty": 4413927660679,
  "gasLimit": {
    "_hex": "0x2fefd8"
  },
  "gasUsed": {
    "_hex": "0x5208"
  },
  "miner": "0xeB1325C8D9d3ea8D74aC11F4B00F1B2367686319",
  "extraData": "0x",
  "transactions": [
    {
      "hash": "0xb14afa8507cd3db5a740c39783182b7039bffd9ce3ceb1895d690bbfe3ea8c17",
      "blockHash": "0x3135e189902f1d14d647a05ab7feb7810ac00e77af08ccc286f1e65628e2b722",
      "blockNumber": 110983,
      "transactionIndex": 0,
      "confirmations": null,
      "from": "0x72dcecdD4a7374231676f7fA910A678DfC7c98D6",
      "gasPrice": {
        "_hex": "0xd49a919f5"
      },
      "gasLimit": {
        "_hex": "0x15f90"
      },
      "to": "0xBDe8541989cF94E88cA73e2D46a8839414968F9B",
      "value": {
        "_hex": "0xb469471f80140000"
      },
      "nonce": 10,
      "data": "0x",
      "r": "0x9431cd47795165d16db6c52d23f5dd31b2e32e370a3b2009d863e5f1e9afef17",
      "s": "0x4cf4802a9b5bb99ce81a0d0d017bbab06d82ad6be7be3f8b013daed9f890e25b",
      "v": 28,
      "creates": null,
      "raw": "0xf86d0a850d49a919f583015f9094bde8541989cf94e88ca73e2d46a8839414968f9b88b469471f80140000801ca09431cd47795165d16db6c52d23f5dd31b2e32e370a3b2009d863e5f1e9afef17a04cf4802a9b5bb99ce81a0d0d017bbab06d82ad6be7be3f8b013daed9f890e25b",
      "networkId": 0,
      "chainId": 0
    }
  ]
}