{
  "hash": "0xa33c1795400b81ed1686bfba42231a99dda6857f0eebe1a5ccb77930b36f0b06",
  "parentHash": "0xebd0602833091bb0219d272018c8c56e2b943f831c6f49df0b2288f6ac6630a8",
  "number": 49663,
  "timestamp": 1438977076,
  "nonce": "0xd2836bd07be6ca80",
  "difficulty": 1486421601832,
  "gasLimit": {
    "_hex": "0x39bfe"
  },
  "gasUsed": {
    "_hex": "0x546c"
  },
  "miner": "0xe6A7a1d47ff21B6321162AEA7C6CB457D5476Bca",
  "extraData": "0x657468706f6f6c2e6f7267",
  "transactions": [
    {
      "hash": "0x8f592b93230016779859d29f83c29dd929a997e3ef08437e85ebb1c71c5e222d",
      "blockHash": "0xa33c1795400b81ed1686bfba42231a99dda6857f0eebe1a5ccb77930b36f0b06",
      "blockNumber": 49663,
      "transactionIndex": 0,
      "confirmations": null,
      "from": "0x26BAbf42B267FDcf3861fdD4236a5E474848b358",
      "gasPrice": {
        "_hex": "0x10074d5c60f"
      },
      "gasLimit": {
        "_hex": "0x15f90"
      },
      "to": "0x2910543Af39abA0Cd09dBb2D50200b3E800A63D2",
      "value": {
        "_hex": "0x363442e15b11550000"
      },
      "nonce": 0,
      "data": "0x454e42304a42363352",
      "r": "0x2e90aacf61ceb10ca6794f6a03f4aa07f4ad1ea7d374262e384b864714873fe6",
      "s": "0x441de84fb746badc2fca5fc8c5681e3a98e3f30f067f8033e0f9ad35ac373b33",
      "v": 27,
      "creates": null,
      "raw": "0xf8788086010074d5c60f83015f90942910543af39aba0cd09dbb2d50200b3e800a63d289363442e15b1155000089454e42304a423633521ba02e90aacf61ceb10ca6794f6a03f4aa07f4ad1ea7d374262e384b864714873fe6a0441de84fb746badc2fca5fc8c5681e3a98e3f30f067f8033e0f9ad35ac373b33",
      "networkId": 0,
      "chainId": 0
    }
  ]
}