{
  "hash": "0xcf102b72719338ebc67e8c869e37400b90e90c82507a0cd19795341c345737f1",
  "parentHash": "0xc8fc46692e7490732130f04de49d31d0a8339e04d8cbb4d3b681b16259a093f5",
  "number": 70710,
  "timestamp": 1439324340,
  "nonce": "0x4cdc4ac36041bb29",
  "difficulty": 2141568349136,
  "gasLimit": {
    "_hex": "0x2fefd8"
  },
  "gasUsed": {
    "_hex": "0x5208"
  },
  "miner": "0x94b7fDF01f4E5d76b2C31eEb846f91F427606C98",
  "extraData": "0x476574682f76312e302e312d38326566323666362f6c696e75782f676f312e34",
  "transactions": [
    {
      "hash": "0x0155d9128623d3ccb5468c9a424e60db404e458a680181f5f6ac4d9cc0aa0b77",
      "blockHash": "0xcf102b72719338ebc67e8c869e37400b90e90c82507a0cd19795341c345737f1",
      "blockNumber": 70710,
      "transactionIndex": 0,
      "confirmations": null,
      "from": "0x120A270bbC009644e35F0bB6ab13f95b8199c4ad",
      "gasPrice": {
        "_hex": "0xd31902b01"
      },
      "gasLimit": {
        "_hex": "0x15f90"
      },
      "to": "0xc5b8F250e32F63eb28ED6d6ED90A39f18d5eBe51",
      "value": {
        "_hex": "0x163e636da74e800"
      },
      "nonce": 209,
      "data": "0x",
      "r": "0x98f5eec00ea73857d487d77b39f7e23b3fb08f475c3a149b391127d226980e84",
      "s": "0x20aa8cd73b3fbff0a6ea021cc48fd39ac19ca6a011b58a603f7ca395659243ce",
      "v": 28,
      "creates": null,
      "raw": "0xf86e81d1850d31902b0183015f9094c5b8f250e32f63eb28ed6d6ed90a39f18d5ebe51880163e636da74e800801ca098f5eec00ea73857d487d77b39f7e23b3fb08f475c3a149b391127d226980e84a020aa8cd73b3fbff0a6ea021cc48fd39ac19ca6a011b58a603f7ca395659243ce",
      "networkId": 0,
      "chainId": 0
    }
  ]
}