{
  "hash": "0x2717b708cebd7721356de2a9dd7f3097607fa14a0eeaa2ff4a0f4cd7b5944a1f",
  "parentHash": "0x39f05667d802dff4d4c34dad088b2d42625bd91088494be1871dd22b44789bd9",
  "number": 48307,
  "timestamp": 1438955027,
  "nonce": "0x92703cf2ca2d0a1c",
  "difficulty": 1455062555373,
  "gasLimit": {
    "_hex": "0x154a2"
  },
  "gasUsed": {
    "_hex": "0x546c"
  },
  "miner": "0x9746c7e1ef2bd21FF3997fa467593a89cb852BD0",
  "extraData": "0x476574682f76312e302e312f77696e646f77732f676f312e342e32",
  "transactions": [
    {
      "hash": "0xaa0faed1b8c9eb4633ff12679c49e75366bef8dc395aec0b7e97fef50b9c0aa6",
      "blockHash": "0x2717b708cebd7721356de2a9dd7f3097607fa14a0eeaa2ff4a0f4cd7b5944a1f",
      "blockNumber": 48307,
      "transactionIndex": 0,
      "confirmations": null,
      "from": "0x39d4A931402c0c79c457186F24dF8729cf957031",
      "gasPrice": {
        "_hex": "0xd1e656ef7"
      },
      "gasLimit": {
        "_hex": "0x61a8"
      },
      "to": "0x2910543Af39abA0Cd09dBb2D50200b3E800A63D2",
      "value": {
        "_hex": "0x16345785d8a0000"
      },
      "nonce": 2,
      "data": "0x454e334d4451585947",
      "r": "0x15ff86bf65ac5258bb971c117c0eb1181c02443dcd65a6462ff4866ed44f82d7",
      "s": "0x08d5fe8acc7b18ff79945d77fffe46aa7fb08092a4e52e92f56c7591dd01af3a",
      "v": 28,
      "creates": null,
      "raw": "0xf87502850d1e656ef78261a8942910543af39aba0cd09dbb2d50200b3e800a63d288016345785d8a000089454e334d44515859471ca015ff86bf65ac5258bb971c117c0eb1181c02443dcd65a6462ff4866ed44f82d7a008d5fe8acc7b18ff79945d77fffe46aa7fb08092a4e52e92f56c7591dd01af3a",
      "networkId": 0,
      "chainId": 0
    }
  ]
}