{
  "hash": "0x93d0ff72f3babab54da1b0b6ebad3244db7486cfe5947a1c104532db1042fe5e",
  "parentHash": "0x7a8c4ef55577fee075f444bc92c8e91e3b92d6f56c2b0786f1bfc73d4316d545",
  "number": 55506,
  "timestamp": 1439071801,
  "nonce": "0xdd79291826cb2242",
  "difficulty": 1625811572579,
  "gasLimit": {
    "_hex": "0x2fefd8"
  },
  "gasUsed": {
    "_hex": "0xddfd"
  },
  "miner": "0x36a3706566A8f9b27e7d604f4702900Acd31f32E",
  "extraData": "0x476574682f76312e302e312f6c696e75782f676f312e342e32",
  "transactions": [
    {
      "hash": "0xac1b6a51732054749d716e948c258864d7abfe2de3496bd0823700c3ba8a94f6",
      "blockHash": "0x93d0ff72f3babab54da1b0b6ebad3244db7486cfe5947a1c104532db1042fe5e",
      "blockNumber": 55506,
      "transactionIndex": 0,
      "confirmations": null,
      "from": "0xFc39Be41094b1997D2169E8264c2C3BAA6c99bc4",
      "gasPrice": {
        "_hex": "0x10d425d3b0b"
      },
      "gasLimit": {
        "_hex": "0x7a120"
      },
      "to": "0x109C4f2CCc82C4d77Bde15F306707320294Aea3F",
      "value": {
        "_hex": "0xde0b6b3a7640000"
      },
      "nonce": 4,
      "data": "0x",
      "r": "0x73eacf10472af074653dcf44b96c5624984cecf13cdfb9520878ebcedf2117e3",
      "s": "0x501d365f0cbebd71e22b5559d8cfc19dca3a40ff0925e048e599682bab6241e6",
      "v": 27,
      "creates": null,
      "raw": "0xf86e0486010d425d3b0b8307a12094109c4f2ccc82c4d77bde15f306707320294aea3f880de0b6b3a7640000801ba073eacf10472af074653dcf44b96c5624984cecf13cdfb9520878ebcedf2117e3a0501d365f0cbebd71e22b5559d8cfc19dca3a40ff0925e048e599682bab6241e6",
      "networkId": 0,
      "chainId": 0
    }
  ]
}