{
  "hash": "0x6876825830ccd90521871ddfc79e899af634ece2e1222e6232bc3d5ee6f86e7e",
  "parentHash": "0x25f6dd4fad8f42d9e5da2741595c2975aea8f450c99af4424e1e4dbd39ce9853",
  "number": 104329,
  "timestamp": 1439867980,
  "nonce": "0xef94fa75d2b3ea72",
  "difficulty": 4298277605624,
  "gasLimit": {
    "_hex": "0x2fefd8"
  },
  "gasUsed": {
    "_hex": "0x5208"
  },
  "miner": "0xe6A7a1d47ff21B6321162AEA7C6CB457D5476Bca",
  "extraData": "0x476574682f76312e302e312d38326566323666362f6c696e75782f676f312e34",
  "transactions": [
    {
      "hash": "0xdcfcfc5209dcd05072cfcca0e452a534e3a9899c563d9ee75ae8a393ab8716cd",
      "blockHash": "0x6876825830ccd90521871ddfc79e899af634ece2e1222e6232bc3d5ee6f86e7e",
      "blockNumber": 104329,
      "transactionIndex": 0,
      "confirmations": null,
      "from": "0x34d34F0a638F6991e4E2536F41295DF6E934A646",
      "gasPrice": {
        "_hex": "0xdf33df3df"
      },
      "gasLimit": {
        "_hex": "0x5208"
      },
      "to": "0x32Be343B94f860124dC4fEe278FDCBD38C102D88",
      "value": {
        "_hex": "0x455b8ba91ffb6400"
      },
      "nonce": 19,
      "data": "0x",
      "r": "0x3c7e85980f9ac8cab5872cf19c38d7b3817c29ec10b14fbbe9e86be5ec1d128f",
      "s": "0x498a5070069502a4df9bcc92ef558a9112ce382ae56271ac7eb545e89a9259dc",
      "v": 27,
      "creates": null,
      "raw": "0xf86c13850df33df3df8252089432be343b94f860124dc4fee278fdcbd38c102d8888455b8ba91ffb6400801ba03c7e85980f9ac8cab5872cf19c38d7b3817c29ec10b14fbbe9e86be5ec1d128fa0498a5070069502a4df9bcc92ef558a9112ce382ae56271ac7eb545e89a9259dc",
      "networkId": 0,
      "chainId": 0
    }
  ]
}