{
  "hash": "0xf3be4310f3325b2c459ea12780f080a55d595ead0a580f3f0774149b02546fb6",
  "parentHash": "0x2db8c6fae0d0ebaaa95306f962e96c8271049e3bf4cc3a51e3b1a4f708909d1a",
  "number": 84705,
  "timestamp": 1439553449,
  "nonce": "0x66d9e7ffd8c2d14c",
  "difficulty": 2610592342780,
  "gasLimit": {
    "_hex": "0x2fefd8"
  },
  "gasUsed": {
    "_hex": "0xf618"
  },
  "miner": "0x5F8F73E26CdF436f19Cb24C82F90A15AFe55b592",
  "extraData": "0x476574682f76312e302e312f77696e646f77732f676f312e342e32",
  "transactions": [
    {
      "hash": "0x582ae4c3ee8612231d61da9eb77a82f62190a00e20007b4bdb2791008398d826",
      "blockHash": "0xf3be4310f3325b2c459ea12780f080a55d595ead0a580f3f0774149b02546fb6",
      "blockNumber": 84705,
      "transactionIndex": 0,
      "confirmations": null,
      "from": "0x2910543Af39abA0Cd09dBb2D50200b3E800A63D2",
      "gasPrice": {
        "_hex": "0xcbcbaf16e"
      },
      "gasLimit": {
        "_hex": "0x5208"
      },
      "to": "0x4E35be1c5dEe94A847D50307170230e640152575",
      "value": {
        "_hex": "0x1157c828fdbef8000"
      },
      "nonce": 570,
      "data": "0x",
      "r": "0x6e5fef4a85066e84ada65696ded7529f407b4143a8bee40a323adc1be92fbbe1",
      "s": "0x394896adfac242d9e71ea6d9b468001f41c6bd32d13eada04ee12502923e2be1",
      "v": 28,
      "creates": null,
      "raw": "0xf86f82023a850cbcbaf16e825208944e35be1c5dee94a847d50307170230e6401525758901157c828fdbef8000801ca06e5fef4a85066e84ada65696ded7529f407b4143a8bee40a323adc1be92fbbe1a0394896adfac242d9e71ea6d9b468001f41c6bd32d13eada04ee12502923e2be1",
      "networkId": 0,
      "chainId": 0
    },
    {
      "hash": "0xc9968b050ebaddb1d047b7cb40c33c49939dc2eea1c04a02c72d7707b542a341",
      "blockHash": "0xf3be4310f3325b2c459ea12780f080a55d595ead0a580f3f0774149b02546fb6",
      "blockNumber": 84705,
      "transactionIndex": 1,
      "confirmations": null,
      "from": "0x2910543Af39abA0Cd09dBb2D50200b3E800A63D2",
      "gasPrice": {
        "_hex": "0xcbcbaf16e"
      },
      "gasLimit": {
        "_hex": "0x5208"
      },
      "to": "0x18C1a2C6cF4501A3AFcD4c90cF4644C5A58cb1d0",
      "value": {
        "_hex": "0xd018f10d96fb8000"
      },
      "nonce": 571,
      "data": "0x",
      "r": "0x525482f36adf2fba4517ec87c0f07163a5219933d586a4806926e79c60ab1e09",
      "s": "0x0db6b73c52dc7a8ac85c6218b766011372e106499fd50904567f9557494b65a8",
      "v": 27,
      "creates": null,
      "raw": "0xf86e82023b850cbcbaf16e8252089418c1a2c6cf4501a3afcd4c90cf4644c5a58cb1d088d018f10d96fb8000801ba0525482f36adf2fba4517ec87c0f07163a5219933d586a4806926e79c60ab1e09a00db6b73c52dc7a8ac85c6218b766011372e106499fd50904567f9557494b65a8",
      "networkId": 0,
      "chainId": 0
    },
    {
      "hash": "0xa9193565ea77098f17527f84f66719105c32edc1f20299655426402795a0d8fb",
      "blockHash": "0xf3be4310f3325b2c459ea12780f080a55d595ead0a580f3f0774149b02546fb6",
      "blockNumber": 84705,
      "transactionIndex": 2,
      "confirmations": null,
      "from": "0x2910543Af39abA0Cd09dBb2D50200b3E800A63D2",
      "gasPrice": {
        "_hex": "0xcbcbaf16e"
      },
      "gasLimit": {
        "_hex": "0x5208"
      },
      "to": "0xFb89b8778d254A66A7FE21Ca8C9F095375D497f4",
      "value": {
        "_hex": "0x6c6a7723f83f38000"
      },
      "nonce": 572,
      "data": "0x",
      "r": "0xbb82dcaa37c3a17d76ceb3ddf93b62c5af978b3242437893a220d172dfe2d657",
      "s": "0x59eaa91398107ccdbe9225e300d1a20cb5179716025fcac639581daf2c40d73e",
      "v": 27,
      "creates": null,
      "raw": "0xf86f82023c850cbcbaf16e82520894fb89b8778d254a66a7fe21ca8c9f095375d497f48906c6a7723f83f38000801ba0bb82dcaa37c3a17d76ceb3ddf93b62c5af978b3242437893a220d172dfe2d657a059eaa91398107ccdbe9225e300d1a20cb5179716025fcac639581daf2c40d73e",
      "networkId": 0,
      "chainId": 0
    }
  ]
}