{
  "hash": "0x862317081e25f727923feb124696a7312339cad818418826bca0dc141c74055d",
  "parentHash": "0x244f54710da8d372a7967e2ec2d7b1353642b76620bf9109e03627723893c9ef",
  "number": 65108,
  "timestamp": 1439231373,
  "nonce": "0xfcea24304103470a",
  "difficulty": 1930374544879,
  "gasLimit": {
    "_hex": "0x2fefd8"
  },
  "gasUsed": {
    "_hex": "0xf618"
  },
  "miner": "0xE87470b43FA5904a32866396B2f798D898c13978",
  "extraData": "0x",
  "transactions": [
    {
      "hash": "0x90a63f288854b7f9876ff0fa690acd47697e5f9b1b85a53a228db13e1047d87d",
      "blockHash": "0x862317081e25f727923feb124696a7312339cad818418826bca0dc141c74055d",
      "blockNumber": 65108,
      "transactionIndex": 0,
      "confirmations": null,
      "from": "0x63BBedc46A1113Ba7938CF7C18CCb5Aed20eC733",
      "gasPrice": {
        "_hex": "0xd28647cce"
      },
      "gasLimit": {
        "_hex": "0x15f90"
      },
      "to": "0x0A319A7e0C887F104359e1eEe6717BD8f232d3Da",
      "value": {
        "_hex": "0x257853b1dd8e00000"
      },
      "nonce": 1,
      "data": "0x",
      "r": "0x951bb6c2160662ef9bdd71aa0019723a23a9c40d6c1941320fe378dc2d7bdfad",
      "s": "0x4350645d2bdcab12028c4784c32b7c1870bb807a36b0dc327cd151743d0fb338",
      "v": 27,
      "creates": null,
      "raw": "0xf86e01850d28647cce83015f90940a319a7e0c887f104359e1eee6717bd8f232d3da890257853b1dd8e00000801ba0951bb6c2160662ef9bdd71aa0019723a23a9c40d6c1941320fe378dc2d7bdfada04350645d2bdcab12028c4784c32b7c1870bb807a36b0dc327cd151743d0fb338",
      "networkId": 0,
      "chainId": 0
    },
    {
      "hash": "0x43e7273d645797ba2dce2c9d625b10e028e02a3cec2c4b563a741f8ac36de155",
      "blockHash": "0x862317081e25f727923feb124696a7312339cad818418826bca0dc141c74055d",
      "blockNumber": 65108,
      "transactionIndex": 1,
      "confirmations": null,
      "from": "0x411c67710aDece61E5ec396a1a3F029e30589280",
      "gasPrice": {
        "_hex": "0xba43b7400"
      },
      "gasLimit": {
        "_hex": "0x5208"
      },
      "to": "0x991eEa41A6B06AB51449FBfEe8041150fa02DF6e",
      "value": {
        "_hex": "0x47664630dd26000"
      },
      "nonce": 1,
      "data": "0x",
      "r": "0x3fb55b6b5c0688f3bf873c1db55d3d6a9e2c98e8a39e76f22a3fa880cd9689f0",
      "s": "0x0c0ad703d2fa4669f69a0bcc64e3328babdda24b7ba85d6617d93ea353702ccb",
      "v": 28,
      "creates": null,
      "raw": "0xf86c01850ba43b740082520894991eea41a6b06ab51449fbfee8041150fa02df6e88047664630dd26000801ca03fb55b6b5c0688f3bf873c1db55d3d6a9e2c98e8a39e76f22a3fa880cd9689f0a00c0ad703d2fa4669f69a0bcc64e3328babdda24b7ba85d6617d93ea353702ccb",
      "networkId": 0,
      "chainId": 0
    },
    {
      "hash": "0x307b23c6286fc67832c22d85834dbe6f07103e7e540c4fb93719eb3d00a9844d",
      "blockHash": "0x862317081e25f727923feb124696a7312339cad818418826bca0dc141c74055d",
      "blockNumber": 65108,
      "transactionIndex": 2,
      "confirmations": null,
      "from": "0x065C972D8A5CdB748f43F204367c309a23e8316A",
      "gasPrice": {
        "_hex": "0xba43b7400"
      },
      "gasLimit": {
        "_hex": "0x5208"
      },
      "to": "0x6F36Ee2de5F3D5Ed14608385DDEEaDe8487C7db4",
      "value": {
        "_hex": "0x4d2f11674142000"
      },
      "nonce": 1,
      "data": "0x",
      "r": "0x04da26e933d1d2ad6f357938240f35ccf7414c38b0d72dedf5517212814c1fe5",
      "s": "0x481cc122be7dcaae055de50e57c151b0d7c050613d15a20a5cb6ec481f69653d",
      "v": 27,
      "creates": null,
      "raw": "0xf86c01850ba43b7400825208946f36ee2de5f3d5ed14608385ddeeade8487c7db48804d2f11674142000801ba004da26e933d1d2ad6f357938240f35ccf7414c38b0d72dedf5517212814c1fe5a0481cc122be7dcaae055de50e57c151b0d7c050613d15a20a5cb6ec481f69653d",
      "networkId": 0,
      "chainId": 0
    }
  ]
}