{
  "hash": "0xf1b24b8eebf8e5682a6246ed0323cccae1c7c94ce1057e9fbe0556e1d0df8b6f",
  "parentHash": "0x8d71edf5bb85b832086e05c229499c8c9aa6467f600ca8d94c655f2850c499d0",
  "number": 87276,
  "timestamp": 1439589808,
  "nonce": "0x953006e0158f40d2",
  "difficulty": 3085615470675,
  "gasLimit": {
    "_hex": "0x2fefd8"
  },
  "gasUsed": {
    "_hex": "0x5208"
  },
  "miner": "0xeB1325C8D9d3ea8D74aC11F4B00F1B2367686319",
  "extraData": "0x476574682f76312e302e312f77696e646f77732f676f312e342e32",
  "transactions": [
    {
      "hash": "0xad3bc6e0adc77eb0fc595ff23ae8d0021def0c55d1b34e343871b1235f60277c",
      "blockHash": "0xf1b24b8eebf8e5682a6246ed0323cccae1c7c94ce1057e9fbe0556e1d0df8b6f",
      "blockNumber": 87276,
      "transactionIndex": 0,
      "confirmations": null,
      "from": "0x2910543Af39abA0Cd09dBb2D50200b3E800A63D2",
      "gasPrice": {
        "_hex": "0xd1516d346"
      },
      "gasLimit": {
        "_hex": "0x5208"
      },
      "to": "0xb70dba9391682b4a364e77fe99256301a6C0Bf1F",
      "value": {
        "_hex": "0x353f529ee86204000"
      },
      "nonce": 701,
      "data": "0x",
      "r": "0xa10829579502c3c4fe3595d0f404a640ff29900b2bba698cd62cc14b97928d7a",
      "s": "0x4c72e7a61f0159161dfe63f98e4f5f97dc824b5394540959c907681447ba2282",
      "v": 28,
      "creates": null,
      "raw": "0xf86f8202bd850d1516d34682520894b70dba9391682b4a364e77fe99256301a6c0bf1f890353f529ee86204000801ca0a10829579502c3c4fe3595d0f404a640ff29900b2bba698cd62cc14b97928d7aa04c72e7a61f0159161dfe63f98e4f5f97dc824b5394540959c907681447ba2282",
      "networkId": 0,
      "chainId": 0
    }
  ]
}