{
  "hash": "0x34891c7880f7a77abc558250f64bb1ef250eb2d3649dd25206568464965ea914",
  "parentHash": "0x24890dd8df965b94e54351fc6279858c1b34ca471fc441a29b3c29ed3310feb3",
  "number": 102064,
  "timestamp": 1439832300,
  "nonce": "0xc6eb44a947b5388e",
  "difficulty": 3908952922613,
  "gasLimit": {
    "_hex": "0x2fefd8"
  },
  "gasUsed": {
    "_hex": "0x5208"
  },
  "miner": "0xEF247E639d49461D25F57e9362CadE3120910Ce0",
  "extraData": "0x476574682f76312e302e312f6c696e75782f676f312e342e32",
  "transactions": [
    {
      "hash": "0xd105f0ca3e2205d566c031570eeb4bec0bc2aeb28fbf7217f0e036260c40193f",
      "blockHash": "0x34891c7880f7a77abc558250f64bb1ef250eb2d3649dd25206568464965ea914",
      "blockNumber": 102064,
      "transactionIndex": 0,
      "confirmations": null,
      "from": "0x007f7f58D3eb5b7510A301eCC749FC1fCDDBE14D",
      "gasPrice": {
        "_hex": "0xe0cfe7246"
      },
      "gasLimit": {
        "_hex": "0x15f90"
      },
      "to": "0xb1abce2918E21ddb93AA452731a12672A3d9F75a",
      "value": {
        "_hex": "0x4563918244f40000"
      },
      "nonce": 201,
      "data": "0x",
      "r": "0x17a26f79a73db0b2a282875752c12c49d0a9743a532c3edd73f207175d7428e5",
      "s": "0x3d884b6f1d569d154d6db4807950407c402922eb699cc7c0e2afa115719abe01",
      "v": 27,
      "creates": null,
      "raw": "0xf86e81c9850e0cfe724683015f9094b1abce2918e21ddb93aa452731a12672a3d9f75a884563918244f40000801ba017a26f79a73db0b2a282875752c12c49d0a9743a532c3edd73f207175d7428e5a03d884b6f1d569d154d6db4807950407c402922eb699cc7c0e2afa115719abe01",
      "networkId": 0,
      "chainId": 0
    }
  ]
}