{
  "hash": "0xbd9bb8b8c70de9ca628beaad7465fabbee7611f623e9fc2695a0e425078aa246",
  "parentHash": "0xe789088dab234eb2fa5a94b9060eda36312439c5f45533b0af9aee470582abd1",
  "number": 94030,
  "timestamp": 1439701512,
  "nonce": "0x3939739ad0664781",
  "difficulty": 3483426111439,
  "gasLimit": {
    "_hex": "0x2fefd8"
  },
  "gasUsed": {
    "_hex": "0xf618"
  },
  "miner": "0xC603Ab5ef41fC61AA8b76bEddb09e3Cfcbb174BD",
  "extraData": "0x476574682f76312e302e312f77696e646f77732f676f312e342e32",
  "transactions": [
    {
      "hash": "0xec1855a094778db5e09f17d18a4348792c60c1a11d5b6d80114739224210eb4e",
      "blockHash": "0xbd9bb8b8c70de9ca628beaad7465fabbee7611f623e9fc2695a0e425078aa246",
      "blockNumber": 94030,
      "transactionIndex": 0,
      "confirmations": null,
      "from": "0x2910543Af39abA0Cd09dBb2D50200b3E800A63D2",
      "gasPrice": {
        "_hex": "0xdd3601b4b"
      },
      "gasLimit": {
        "_hex": "0x5208"
      },
      "to": "0xFD7c9117BbEB649d9b37B3D3C9917f7c12f526B3",
      "value": {
        "_hex": "0x17f02a2eb154246600"
      },
      "nonce": 865,
      "data": "0x",
      "r": "0x794a3cf18249ee3e0bfc47e7376c6f3cf2c525f4d10391800dedf525970be557",
      "s": "0x1eac4476d412e5a48f3c2dda522bde53587236227a4b79601e124b6668613435",
      "v": 27,
      "creates": null,
      "raw": "0xf86f820361850dd3601b4b82520894fd7c9117bbeb649d9b37b3d3c9917f7c12f526b38917f02a2eb154246600801ba0794a3cf18249ee3e0bfc47e7376c6f3cf2c525f4d10391800dedf525970be557a01eac4476d412e5a48f3c2dda522bde53587236227a4b79601e124b6668613435",
      "networkId": 0,
      "chainId": 0
    },
    {
      "hash": "0x7f82bfe372a3f93bec620e13a60bd1f0105f6775f827274398904dedd672fa36",
      "blockHash": "0xbd9bb8b8c70de9ca628beaad7465fabbee7611f623e9fc2695a0e425078aa246",
      "blockNumber": 94030,
      "transactionIndex": 1,
      "confirmations": null,
      "from": "0x593044670faEfF00a55B5AE051EB7be870B11694",
      "gasPrice": {
        "_hex": "0xd26cbdc7d"
      },
      "gasLimit": {
        "_hex": "0x15f90"
      },
      "to": "0x123d670B2B4685f55Fc8DFEcc898b052B45068F3",
      "value": {
        "_hex": "0xde0b6b3a7640000"
      },
      "nonce": 0,
      "data": "0x",
      "r": "0x89aca292c31c58a3e282e1d53ddbf9ccf88955fb1faf0a393907a5a8af579b45",
      "s": "0x2943a85ce4fc3478625289b20a203d30fe6a9c0d61c1502e2fdfd043fdc8e017",
      "v": 27,
      "creates": null,
      "raw": "0xf86d80850d26cbdc7d83015f9094123d670b2b4685f55fc8dfecc898b052b45068f3880de0b6b3a7640000801ba089aca292c31c58a3e282e1d53ddbf9ccf88955fb1faf0a393907a5a8af579b45a02943a85ce4fc3478625289b20a203d30fe6a9c0d61c1502e2fdfd043fdc8e017",
      "networkId": 0,
      "chainId": 0
    },
    {
      "hash": "0xb96886876154ea40b755c41aa743c63d57472242c40a550b26ea09a6361f6998",
      "blockHash": "0xbd9bb8b8c70de9ca628beaad7465fabbee7611f623e9fc2695a0e425078aa246",
      "blockNumber": 94030,
      "transactionIndex": 2,
      "confirmations": null,
      "from": "0x5F28bcc5faFC8982536A9e4be559657998CdE1E3",
      "gasPrice": {
        "_hex": "0xba43b7400"
      },
      "gasLimit": {
        "_hex": "0x5208"
      },
      "to": "0xC47Aaa860008be6f65B58c6C6E02a84e666EfE31",
      "value": {
        "_hex": "0x145328fdf357d6000"
      },
      "nonce": 14,
      "data": "0x",
      "r": "0x3e35e9524eff9ca440cd37673f32bcffe37379830ce67f878a043d14745b5a02",
      "s": "0x24f4e1ebc3241f4ccb5a867bf1ae0bbc7e4644843f57a5d3df637c9c47eb6375",
      "v": 28,
      "creates": null,
      "raw": "0xf86d0e850ba43b740082520894c47aaa860008be6f65b58c6c6e02a84e666efe31890145328fdf357d6000801ca03e35e9524eff9ca440cd37673f32bcffe37379830ce67f878a043d14745b5a02a024f4e1ebc3241f4ccb5a867bf1ae0bbc7e4644843f57a5d3df637c9c47eb6375",
      "networkId": 0,
      "chainId": 0
    }
  ]
}