{
  "hash": "0x2d5c647c559302378df67d12d2291e8b39b393a46627e7ac6f72d80415fa4375",
  "parentHash": "0xbd3d35d418a6a44989e3acf5cb911c826aacbf4847aed1091d5942ceb90834b1",
  "number": 93804,
  "timestamp": 1439698083,
  "nonce": "0x44dabd06e2b16fe4",
  "difficulty": 3422821254285,
  "gasLimit": {
    "_hex": "0x2fefd8"
  },
  "gasUsed": {
    "_hex": "0x546c"
  },
  "miner": "0x4947190fcC30D3fb3a16233b259bFe6b3492339a",
  "extraData": "0x476574682f76312e302e312d38326566323666362f6c696e75782f676f312e34",
  "transactions": [
    {
      "hash": "0x6544db4b61d34c68a05c1f27ff3f262e3efcf7b697664d91958f8aedbce3158a",
      "blockHash": "0x2d5c647c559302378df67d12d2291e8b39b393a46627e7ac6f72d80415fa4375",
      "blockNumber": 93804,
      "transactionIndex": 0,
      "confirmations": null,
      "from": "0x6310B020fD98044957995092090F17F04e52cdfD",
      "gasPrice": {
        "_hex": "0x110c8f7d8de"
      },
      "gasLimit": {
        "_hex": "0xc350"
      },
      "to": "0x2910543Af39abA0Cd09dBb2D50200b3E800A63D2",
      "value": {
        "_hex": "0xde0b6b3a7640000"
      },
      "nonce": 0,
      "data": "0x454e525a5a52314547",
      "r": "0x2774780bb05e4b334d2545bf1f76f4c48af8b8ead3ece628f368a5d2df8becd1",
      "s": "0x363461d9b33046827d9e52f97c4283a3b369d2d1d0a2171b5c2be2e11b0fad64",
      "v": 28,
      "creates": null,
      "raw": "0xf87680860110c8f7d8de82c350942910543af39aba0cd09dbb2d50200b3e800a63d2880de0b6b3a764000089454e525a5a523145471ca02774780bb05e4b334d2545bf1f76f4c48af8b8ead3ece628f368a5d2df8becd1a0363461d9b33046827d9e52f97c4283a3b369d2d1d0a2171b5c2be2e11b0fad64",
      "networkId": 0,
      "chainId": 0
    }
  ]
}