{
  "hash": "0x27d12f1b3de7e075d450d6499a974ee823f9ca525339c3984ea59234b35303e1",
  "parentHash": "0xbbbf0363c76c162198d197983a13f39ea7f15eefc7872f29116fb7590ecc4dfc",
  "number": 81634,
  "timestamp": 1439505026,
  "nonce": "0x3eb71becf7cefce4",
  "difficulty": 2440180811173,
  "gasLimit": {
    "_hex": "0x2fefd8"
  },
  "gasUsed": {
    "_hex": "0xa410"
  },
  "miner": "0xe6A7a1d47ff21B6321162AEA7C6CB457D5476Bca",
  "extraData": "0x476574682f76312e302e312d38326566323666362f6c696e75782f676f312e34",
  "transactions": [
    {
      "hash": "0x11a8b29733c0cc38507b5fe592fa2ad540666e899710ad06993d3ee7a3f3d56c",
      "blockHash": "0x27d12f1b3de7e075d450d6499a974ee823f9ca525339c3984ea59234b35303e1",
      "blockNumber": 81634,
      "transactionIndex": 0,
      "confirmations": null,
      "from": "0x32Be343B94f860124dC4fEe278FDCBD38C102D88",
      "gasPrice": {
        "_hex": "0xda460ff4e"
      },
      "gasLimit": {
        "_hex": "0x5208"
      },
      "to": "0x8eC407EDf8FAbf4dCDD81b9bf6AC7f07591D1488",
      "value": {
        "_hex": "0x3a1ac4a125f6b0000"
      },
      "nonce": 605,
      "data": "0x",
      "r": "0x4e9f8ae218c10e37cf773d252f5bfbf5e587d2c403565d192616813e4efbd1ac",
      "s": "0x0055582103a5940bad55f39de5685352a30fe2cf670b6a0ec4f9224011904391",
      "v": 27,
      "creates": null,
      "raw": "0xf86e82025d850da460ff4e825208948ec407edf8fabf4dcdd81b9bf6ac7f07591d14888903a1ac4a125f6b0000801ba04e9f8ae218c10e37cf773d252f5bfbf5e587d2c403565d192616813e4efbd1ac9f55582103a5940bad55f39de5685352a30fe2cf670b6a0ec4f9224011904391",
      "networkId": 0,
      "chainId": 0
    },
    {
      "hash": "0x9594e953712891685601c1223602cccb614b195b442b18eca1c939245e000415",
      "blockHash": "0x27d12f1b3de7e075d450d6499a974ee823f9ca525339c3984ea59234b35303e1",
      "blockNumber": 81634,
      "transactionIndex": 1,
      "confirmations": null,
      "from": "0x32Be343B94f860124dC4fEe278FDCBD38C102D88",
      "gasPrice": {
        "_hex": "0xda460ff4e"
      },
      "gasLimit": {
        "_hex": "0x5208"
      },
      "to": "0x5Bf5E9cf9B456d6591073513De7Fd69A9BEF04Bc",
      "value": {
        "_hex": "0x147cbea420823c00"
      },
      "nonce": 606,
      "data": "0x",
      "r": "0xd35cd1d7b5311865c366b2a8318e048b502128d9efe473b999652695d4460df0",
      "s": "0x3a2ae91402949343730a79c411d9023ae24963c76eda3511f0de27e53e842c3a",
      "v": 27,
      "creates": null,
      "raw": "0xf86e82025e850da460ff4e825208945bf5e9cf9b456d6591073513de7fd69a9bef04bc88147cbea420823c00801ba0d35cd1d7b5311865c366b2a8318e048b502128d9efe473b999652695d4460df0a03a2ae91402949343730a79c411d9023ae24963c76eda3511f0de27e53e842c3a",
      "networkId": 0,
      "chainId": 0
    }
  ]
}