{
  "hash": "0x7c7c8c154f4c8007de550cac7572bea42d0e7113727063dd08da8373bcf36d59",
  "parentHash": "0xb2b5385a5ce635990f2c11b598ce14aead12ba66d1ad83b48ca42df9c206dcdf",
  "number": 88778,
  "timestamp": 1439613260,
  "nonce": "0x7c7cbdce54074b53",
  "difficulty": 3252117974430,
  "gasLimit": {
    "_hex": "0x2fefd8"
  },
  "gasUsed": {
    "_hex": "0x5208"
  },
  "miner": "0xe6A7a1d47ff21B6321162AEA7C6CB457D5476Bca",
  "extraData": "0x476574682f76312e302e312d38326566323666362f6c696e75782f676f312e34",
  "transactions": [
    {
      "hash": "0xe77d2f1882b8d587110721585f7f7c13d45bd324d610140b69d7d4a00c44580b",
      "blockHash": "0x7c7c8c154f4c8007de550cac7572bea42d0e7113727063dd08da8373bcf36d59",
      "blockNumber": 88778,
      "transactionIndex": 0,
      "confirmations": null,
      "from": "0x05f74a38293C914C6B14a39f5d8dEa98f22E4FBA",
      "gasPrice": {
        "_hex": "0xd7d40ace3"
      },
      "gasLimit": {
        "_hex": "0x15f90"
      },
      "to": "0xbEB64d852Bb6731CD479E80F7139ADEa5D6A5a28",
      "value": {
        "_hex": "0x2a802f8630a240000"
      },
      "nonce": 4,
      "data": "0x",
      "r": "0xefa588e8d82190a1ea5a1f76bead3a14327a692d6d1dc8d7abaca40d07f1b634",
      "s": "0x7a8d8b43830cf03d55fd02270aff5cb7c9c9479b86bcc891c903beadfc58fb5f",
      "v": 28,
      "creates": null,
      "raw": "0xf86e04850d7d40ace383015f9094beb64d852bb6731cd479e80f7139adea5d6a5a288902a802f8630a240000801ca0efa588e8d82190a1ea5a1f76bead3a14327a692d6d1dc8d7abaca40d07f1b634a07a8d8b43830cf03d55fd02270aff5cb7c9c9479b86bcc891c903beadfc58fb5f",
      "networkId": 0,
      "chainId": 0
    }
  ]
}