{
  "hash": "0x4acb82bb89696f33ab754e52f05fcd83787eaf2d8c8d532504d9b3fa626abd81",
  "parentHash": "0x9879aa5464752d6d9299cf8d004bc1751abc1ec7bb3c1ba310b7ac27d7f15489",
  "number": 120847,
  "timestamp": 1440166880,
  "nonce": "0xe6471d48105af87a",
  "difficulty": 4443318642009,
  "gasLimit": {
    "_hex": "0x2fefd8"
  },
  "gasUsed": {
    "_hex": "0x5208"
  },
  "miner": "0x7E6930B63D03e88F5928C5cd6ee3FCee4D714F7F",
  "extraData": "0xd783010003844765746887676f312e342e32856c696e7578",
  "transactions": [
    {
      "hash": "0xb78519644bcc6ea1554a5ad6713f826e0aa8dfbf22c0695174457ad425aa0c5e",
      "blockHash": "0x4acb82bb89696f33ab754e52f05fcd83787eaf2d8c8d532504d9b3fa626abd81",
      "blockNumber": 120847,
      "transactionIndex": 0,
      "confirmations": null,
      "from": "0x608f4b86321a68453f9adf6F06F7Fc3E621739ad",
      "gasPrice": {
        "_hex": "0xba43b7400"
      },
      "gasLimit": {
        "_hex": "0x5208"
      },
      "to": "0x32Be343B94f860124dC4fEe278FDCBD38C102D88",
      "value": {
        "_hex": "0x455fd68a17f06000"
      },
      "nonce": 82,
      "data": "0x",
      "r": "0x95e7a1322e32c7fa249b2db33d7619a5961a40d721eec820c16d2ac98246b1c0",
      "s": "0x048b528d30c7419d2560ff0f01434ed3dca2de8bbf75f3a5bbb1bcf126fdaca0",
      "v": 27,
      "creates": null,
      "raw": "0xf86c52850ba43b74008252089432be343b94f860124dc4fee278fdcbd38c102d8888455fd68a17f06000801ba095e7a1322e32c7fa249b2db33d7619a5961a40d721eec820c16d2ac98246b1c0a0048b528d30c7419d2560ff0f01434ed3dca2de8bbf75f3a5bbb1bcf126fdaca0",
      "networkId": 0,
      "chainId": 0
    }
  ]
}