{
  "hash": "0x9af1f6b4a3988a111a2d4e2007e2952697a978ad4682fbad3a1472fb6d6df447",
  "parentHash": "0x5d52adff3c0a7aa9abae2cc5d1c8df228c1484452e31d8fda84dc19839cbe656",
  "number": 72295,
  "timestamp": 1439350541,
  "nonce": "0xd7b6dcea32fc3ba3",
  "difficulty": 2167461180067,
  "gasLimit": {
    "_hex": "0x2fefd8"
  },
  "gasUsed": {
    "_hex": "0x5208"
  },
  "miner": "0xe6A7a1d47ff21B6321162AEA7C6CB457D5476Bca",
  "extraData": "0x476574682f76312e302e312d38326566323666362f6c696e75782f676f312e34",
  "transactions": [
    {
      "hash": "0xfc184394850664065a990e6a9d72c87ba1d6007433e49d1ec0c31c31c42a8e3e",
      "blockHash": "0x9af1f6b4a3988a111a2d4e2007e2952697a978ad4682fbad3a1472fb6d6df447",
      "blockNumber": 72295,
      "transactionIndex": 0,
      "confirmations": null,
      "from": "0x7D45E10A0d63eCCA0694a7cbfF030f4dD87DA0dC",
      "gasPrice": {
        "_hex": "0xd7d40ace3"
      },
      "gasLimit": {
        "_hex": "0x15f90"
      },
      "to": "0x6d921977dEFE5f4e0682CA512De1D07b1f4802E1",
      "value": {
        "_hex": "0xde0b6b3a7640000"
      },
      "nonce": 0,
      "data": "0x",
      "r": "0x199eede6088222735266a9dc5c953c75a739b50e5363b1670ee2b8dfd9fd01a3",
      "s": "0x793696c2144242a3e2e2f2d72cca58ddd5b793f2afb2e50bf003d4d000134fff",
      "v": 27,
      "creates": null,
      "raw": "0xf86d80850d7d40ace383015f90946d921977defe5f4e0682ca512de1d07b1f4802e1880de0b6b3a7640000801ba0199eede6088222735266a9dc5c953c75a739b50e5363b1670ee2b8dfd9fd01a3a0793696c2144242a3e2e2f2d72cca58ddd5b793f2afb2e50bf003d4d000134fff",
      "networkId": 0,
      "chainId": 0
    }
  ]
}