{
  "hash": "0x06d30bef7b3be779e843c118fe616a28d957abf1ebf39ac23de4c1fc09eab758",
  "parentHash": "0xf2ca34d4495fa2503824bba9a18f9aa5c5d8da0b63d768ee3daef61a784dea65",
  "number": 64528,
  "timestamp": 1439222369,
  "nonce": "0x54eab80703e45291",
  "difficulty": 1874770614265,
  "gasLimit": {
    "_hex": "0x2fefd8"
  },
  "gasUsed": {
    "_hex": "0x23b44"
  },
  "miner": "0x2134e2a2b718DCa96580ECAC31E653Ea1fdd58DA",
  "extraData": "0x476574682f76312e302e312f77696e646f77732f676f312e342e32",
  "transactions": [
    {
      "hash": "0xb9550265cacae82972a34270807047cef899a2a2c620e553b433f7a36f4d66fd",
      "blockHash": "0x06d30bef7b3be779e843c118fe616a28d957abf1ebf39ac23de4c1fc09eab758",
      "blockNumber": 64528,
      "transactionIndex": 0,
      "confirmations": null,
      "from": "0xe53BDA6bEcD6b70868fC69d9312C1BA44e899B12",
      "gasPrice": {
        "_hex": "0xba43b7400"
      },
      "gasLimit": {
        "_hex": "0x15f90"
      },
      "to": "0x793AE8C1b1a160BFc07BFB0d04F85eab1A71F4f2",
      "value": {
        "_hex": "0x0"
      },
      "nonce": 0,
      "data": "0x3ba15036",
      "r": "0xbfc80ae372c66440a00e9386a7884e7f27849e89de603bd8a2480a1d469abc97",
      "s": "0x25a7febf7e242d1410e7b4dabbe4436daeabfdbee5bd7652112e77048772b237",
      "v": 28,
      "creates": null,
      "raw": "0xf86980850ba43b740083015f9094793ae8c1b1a160bfc07bfb0d04f85eab1a71f4f280843ba150361ca0bfc80ae372c66440a00e9386a7884e7f27849e89de603bd8a2480a1d469abc97a025a7febf7e242d1410e7b4dabbe4436daeabfdbee5bd7652112e77048772b237",
      "networkId": 0,
      "chainId": 0
    },
    {
      "hash": "0x56199c1304e5b3e4de10b8f29adea54ef848a4bfa31b4eb948d58e4a4828e48a",
      "blockHash": "0x06d30bef7b3be779e843c118fe616a28d957abf1ebf39ac23de4c1fc09eab758",
      "blockNumber": 64528,
      "transactionIndex": 1,
      "confirmations": null,
      "from": "0x12b24cEa0a89Eef1f1bD18E2329B61439d36Fc90",
      "gasPrice": {
        "_hex": "0xba43b7400"
      },
      "gasLimit": {
        "_hex": "0x15f90"
      },
      "to": "0x793AE8C1b1a160BFc07BFB0d04F85eab1A71F4f2",
      "value": {
        "_hex": "0x0"
      },
      "nonce": 0,
      "data": "0x3ba15036",
      "r": "0x0cb80a4aa756db7b351a15e85cf994214b79422d57bab3b5f4c42b0a4a165685",
      "s": "0x02282b20ab505c2f0d2ea717fd708490d88d2222f3205bb29c49c790c71ccda3",
      "v": 27,
      "creates": null,
      "raw": "0xf86980850ba43b740083015f9094793ae8c1b1a160bfc07bfb0d04f85eab1a71f4f280843ba150361ba00cb80a4aa756db7b351a15e85cf994214b79422d57bab3b5f4c42b0a4a165685a002282b20ab505c2f0d2ea717fd708490d88d2222f3205bb29c49c790c71ccda3",
      "networkId": 0,
      "chainId": 0
    },
    {
      "hash": "0xf820f4e780e73b284d52b4cb4c30bd5a5bf10ae98405cc44cc34239da62543d6",
      "blockHash": "0x06d30bef7b3be779e843c118fe616a28d957abf1ebf39ac23de4c1fc09eab758",
      "blockNumber": 64528,
      "transactionIndex": 2,
      "confirmations": null,
      "from": "0x83d28958d42998Bdc3A65F3bCC76a8680E21D1f5",
      "gasPrice": {
        "_hex": "0xba43b7400"
      },
      "gasLimit": {
        "_hex": "0x15f90"
      },
      "to": "0x793AE8C1b1a160BFc07BFB0d04F85eab1A71F4f2",
      "value": {
        "_hex": "0x0"
      },
      "nonce": 0,
      "data": "0x3ba15036",
      "r": "0xdf00460521bb37ff5d580a8cef1f994481dd29cc7c66c5e00ca61f5a34a1f42e",
      "s": "0x28deda59bfeb3af4f81b5b6d84dd615899fa27e4e0ce710a257ad770bc0fcdf1",
      "v": 28,
      "creates": null,
      "raw": "0xf86980850ba43b740083015f9094793ae8c1b1a160bfc07bfb0d04f85eab1a71f4f280843ba150361ca0df00460521bb37ff5d580a8cef1f994481dd29cc7c66c5e00ca61f5a34a1f42ea028deda59bfeb3af4f81b5b6d84dd615899fa27e4e0ce710a257ad770bc0fcdf1",
      "networkId": 0,
      "chainId": 0
    }
  ]
}