{
  "hash": "0xacd7ff2da0b980004351fa715c60df3a7ae38d5c94df39ebafb64d9992002020",
  "parentHash": "0xee8be130ca558069abf3e2517bb02925e1f716b465390ae8c414f49a971d1d36",
  "number": 90584,
  "timestamp": 1439642330,
  "nonce": "0xc2a131293651cc98",
  "difficulty": 3331775153078,
  "gasLimit": {
    "_hex": "0x2fefd8"
  },
  "gasUsed": {
    "_hex": "0x5208"
  },
  "miner": "0x09A85B9586468D3FD85e5B9D6BE769F5c6016325",
  "extraData": "0x476574682f76312e302e312f77696e646f77732f676f312e342e32",
  "transactions": [
    {
      "hash": "0xe0f9239ddc9827f5059d5605a0bcc2858c46f838297afc6092ac08c56aa8b0f8",
      "blockHash": "0xacd7ff2da0b980004351fa715c60df3a7ae38d5c94df39ebafb64d9992002020",
      "blockNumber": 90584,
      "transactionIndex": 0,
      "confirmations": null,
      "from": "0x0a3DE155d5Ecd8E81C1Ff9BBF0378301f8d4C623",
      "gasPrice": {
        "_hex": "0xd2d9b3bb0"
      },
      "gasLimit": {
        "_hex": "0x6978"
      },
      "to": "0x003a0659d5452a076403d1411E617C9665955d59",
      "value": {
        "_hex": "0x17979cfe362a0000"
      },
      "nonce": 7,
      "data": "0x",
      "r": "0xbe349ce8843be52ce17594ba4ff848bd2061abcc68a233daff399c5610a79e9a",
      "s": "0x6c641027c882621972a67877d2f4f12158f6c6b926a2e25e4781723ac6bd77d0",
      "v": 27,
      "creates": null,
      "raw": "0xf86c07850d2d9b3bb082697894003a0659d5452a076403d1411e617c9665955d598817979cfe362a0000801ba0be349ce8843be52ce17594ba4ff848bd2061abcc68a233daff399c5610a79e9aa06c641027c882621972a67877d2f4f12158f6c6b926a2e25e4781723ac6bd77d0",
      "networkId": 0,
      "chainId": 0
    }
  ]
}