{
  "hash": "0x29b5cc80758a31a1a8c2a834d9b437152445b09dad90ad3c534facd95fe1144d",
  "parentHash": "0x5f4cb837554b320ab8bbdab1398c500c2a2344354de3186995e5b1a15d6f2831",
  "number": 52572,
  "timestamp": 1439023758,
  "nonce": "0xeffb9fbf843f2f42",
  "difficulty": 1565602822573,
  "gasLimit": {
    "_hex": "0x15a47b"
  },
  "gasUsed": {
    "_hex": "0xf4240"
  },
  "miner": "0xe6A7a1d47ff21B6321162AEA7C6CB457D5476Bca",
  "extraData": "0x657468706f6f6c2e6f7267",
  "transactions": [
    {
      "hash": "0x5809fee8aa444760410fd149bcc48a328f10fd6938f70dbba96401250306765d",
      "blockHash": "0x29b5cc80758a31a1a8c2a834d9b437152445b09dad90ad3c534facd95fe1144d",
      "blockNumber": 52572,
      "transactionIndex": 0,
      "confirmations": null,
      "from": "0x54dAeb3E8a6BBC797E4aD2b0339f134b186e4637",
      "gasPrice": {
        "_hex": "0xe1780dfbb"
      },
      "gasLimit": {
        "_hex": "0x7a120"
      },
      "to": "0xBAA54d6E90c3F4d7Ebec11bD180134C7eD8eBb52",
      "value": {
        "_hex": "0x16345785d8a0000"
      },
      "nonce": 741,
      "data": "0x",
      "r": "0x9e324fcf4c3db918dff696120858aaacdfebc12780415f0875d5f063d9cda7d5",
      "s": "0x40049dac8562240db6916408f164056fbbceeaf65f09a8cdf9d1e2a91cf2cbcc",
      "v": 28,
      "creates": null,
      "raw": "0xf86f8202e5850e1780dfbb8307a12094baa54d6e90c3f4d7ebec11bd180134c7ed8ebb5288016345785d8a0000801ca09e324fcf4c3db918dff696120858aaacdfebc12780415f0875d5f063d9cda7d5a040049dac8562240db6916408f164056fbbceeaf65f09a8cdf9d1e2a91cf2cbcc",
      "networkId": 0,
      "chainId": 0
    },
    {
      "hash": "0x054e90ef72ce94ae1409003b0c05ba89ff9000cd6505f7aba1dd94807074dfe9",
      "blockHash": "0x29b5cc80758a31a1a8c2a834d9b437152445b09dad90ad3c534facd95fe1144d",
      "blockNumber": 52572,
      "transactionIndex": 1,
      "confirmations": null,
      "from": "0x54dAeb3E8a6BBC797E4aD2b0339f134b186e4637",
      "gasPrice": {
        "_hex": "0xe1780dfbb"
      },
      "gasLimit": {
        "_hex": "0x7a120"
      },
      "to": "0xBAA54d6E90c3F4d7Ebec11bD180134C7eD8eBb52",
      "value": {
        "_hex": "0x16345785d8a0000"
      },
      "nonce": 742,
      "data": "0x",
      "r": "0x8ea798ec719f91a48ad1e27b49afbfdaad0fae67f651bd630b3ec9ffa664194b",
      "s": "0x1a9b6fc1cb38b68105642729f13aca245e8f3848ce7ebb7a86773aed13209e69",
      "v": 27,
      "creates": null,
      "raw": "0xf86f8202e6850e1780dfbb8307a12094baa54d6e90c3f4d7ebec11bd180134c7ed8ebb5288016345785d8a0000801ba08ea798ec719f91a48ad1e27b49afbfdaad0fae67f651bd630b3ec9ffa664194ba01a9b6fc1cb38b68105642729f13aca245e8f3848ce7ebb7a86773aed13209e69",
      "networkId": 0,
      "chainId": 0
    }
  ]
}