{
  "hash": "0x97077239051f01e3c35a7545c5b9e0c75b9e140bf8267ce259b831a309d03e80",
  "parentHash": "0x398d5542545a3869aaff0d4c34174c192a195732378e2a6a16975ad2cbe921eb",
  "number": 80908,
  "timestamp": 1439493101,
  "nonce": "0xc6d12138eb97d556",
  "difficulty": 2438009975873,
  "gasLimit": {
    "_hex": "0x2fefd5"
  },
  "gasUsed": {
    "_hex": "0x5208"
  },
  "miner": "0xE300c4587D260cE22a677755Db6429B491A4309E",
  "extraData": "0x",
  "transactions": [
    {
      "hash": "0x90ab7be1676fbf053801979cbbeb457944c73685a73978b383a68ee70c0535b6",
      "blockHash": "0x97077239051f01e3c35a7545c5b9e0c75b9e140bf8267ce259b831a309d03e80",
      "blockNumber": 80908,
      "transactionIndex": 0,
      "confirmations": null,
      "from": "0x2fcf1E26d77BBC0Db15acF1Fc77b4D2f5DdB1019",
      "gasPrice": {
        "_hex": "0xcdaededc3"
      },
      "gasLimit": {
        "_hex": "0x15f90"
      },
      "to": "0xA605684b5727EE93d15CE6f56205B7a43ac58c68",
      "value": {
        "_hex": "0xb1a2bc2ec50000"
      },
      "nonce": 0,
      "data": "0x",
      "r": "0x51b27b43f6fa5223e3ccf2295bbd88a177c578c17575b0e6621b7a9972ca8a22",
      "s": "0x2774aafda8dc5f648cf45229ad51ab000653c9ddef75f7ead1e6e01eec6e13c4",
      "v": 27,
      "creates": null,
      "raw": "0xf86c80850cdaededc383015f9094a605684b5727ee93d15ce6f56205b7a43ac58c6887b1a2bc2ec50000801ba051b27b43f6fa5223e3ccf2295bbd88a177c578c17575b0e6621b7a9972ca8a22a02774aafda8dc5f648cf45229ad51ab000653c9ddef75f7ead1e6e01eec6e13c4",
      "networkId": 0,
      "chainId": 0
    }
  ]
}