{
  "hash": "0xde9c52e7f4e2f3ea99057b2850520d99390f85cc7a381f1dd5d66b67f6c5aa45",
  "parentHash": "0x8f3fe3676745d53630f9455f0f234b19f1b0abc1c28cef81ea6ee09b38a83bbf",
  "number": 68895,
  "timestamp": 1439295285,
  "nonce": "0x6e535431a94319d3",
  "difficulty": 2027044890122,
  "gasLimit": {
    "_hex": "0x2fefd8"
  },
  "gasUsed": {
    "_hex": "0x5208"
  },
  "miner": "0xe6A7a1d47ff21B6321162AEA7C6CB457D5476Bca",
  "extraData": "0x476574682f76312e302e312d38326566323666362f6c696e75782f676f312e34",
  "transactions": [
    {
      "hash": "0x0dd6a180ce6fe1d3981455bb1fc76dbfe4e702a1486098ea52b023669b226936",
      "blockHash": "0xde9c52e7f4e2f3ea99057b2850520d99390f85cc7a381f1dd5d66b67f6c5aa45",
      "blockNumber": 68895,
      "transactionIndex": 0,
      "confirmations": null,
      "from": "0x6747f922385c9a6F9cfDf095F34345257DD597bE",
      "gasPrice": {
        "_hex": "0xba43b7400"
      },
      "gasLimit": {
        "_hex": "0x5208"
      },
      "to": "0x3EfC2eC48F895Da47Ab0e672af515Fd78d6710B0",
      "value": {
        "_hex": "0x1fcbfa42bd6000"
      },
      "nonce": 150,
      "data": "0x",
      "r": "0xa4d40704b06a28332a190c435edf7adb86c140cd9b2dfba4b77f35493ea1f687",
      "s": "0x40dcd1beaff83976b7da8d856071006acbe364a50d7aca9af3a2d3cb2648bea3",
      "v": 27,
      "creates": null,
      "raw": "0xf86c8196850ba43b7400825208943efc2ec48f895da47ab0e672af515fd78d6710b0871fcbfa42bd6000801ba0a4d40704b06a28332a190c435edf7adb86c140cd9b2dfba4b77f35493ea1f687a040dcd1beaff83976b7da8d856071006acbe364a50d7aca9af3a2d3cb2648bea3",
      "networkId": 0,
      "chainId": 0
    }
  ]
}