{
  "hash": "0x40e175775136d0dab502b08ed13cba0c75485bf8caff64be7ac4ab00ac4b9936",
  "parentHash": "0x9e4b7e47c9796178d807ea1cba8ef28e322956d02a47cd89c1e5cc71dc312126",
  "number": 54072,
  "timestamp": 1439048227,
  "nonce": "0x03507978f21b0afd",
  "difficulty": 1602443461673,
  "gasLimit": {
    "_hex": "0x2fefd8"
  },
  "gasUsed": {
    "_hex": "0x546c"
  },
  "miner": "0xbe4532E1B1Db5c913Cf553be76180c1777055403",
  "extraData": "0x476574682f686261722f76312e302e312f6c696e75782f676f312e342e32",
  "transactions": [
    {
      "hash": "0x9614f177839592883b3560e8bc4df3e4c3dede548a1c0dd6c0c93f4a4735aa6e",
      "blockHash": "0x40e175775136d0dab502b08ed13cba0c75485bf8caff64be7ac4ab00ac4b9936",
      "blockNumber": 54072,
      "transactionIndex": 0,
      "confirmations": null,
      "from": "0x4e020779B5ddd3df228a00Cb48C2FC979Da6Ae38",
      "gasPrice": {
        "_hex": "0xdb4a51e6e"
      },
      "gasLimit": {
        "_hex": "0x15f90"
      },
      "to": "0x2910543Af39abA0Cd09dBb2D50200b3E800A63D2",
      "value": {
        "_hex": "0x1b1ae4d6e2ef500000"
      },
      "nonce": 3,
      "data": "0x454e334a4141474852",
      "r": "0x1b16925263c5527ed9c9498c588ac8b2d5e79365c055949949e4b9b2874358ae",
      "s": "0x7b96559895cf0088c8521756319bf95b2913cd7fa3fd8762ab4f4c348a7bb1ca",
      "v": 27,
      "creates": null,
      "raw": "0xf87703850db4a51e6e83015f90942910543af39aba0cd09dbb2d50200b3e800a63d2891b1ae4d6e2ef50000089454e334a41414748521ba01b16925263c5527ed9c9498c588ac8b2d5e79365c055949949e4b9b2874358aea07b96559895cf0088c8521756319bf95b2913cd7fa3fd8762ab4f4c348a7bb1ca",
      "networkId": 0,
      "chainId": 0
    }
  ]
}