{
  "hash": "0x2db3cb2814fc52a47ccc34601dbc76f4a170b0ec6c8e9e6aeda4ea93450a72cc",
  "parentHash": "0x163245d03b126702ad4cc27ab7d27311405c13c03cb51c13d3ee92035bd4d952",
  "number": 101334,
  "timestamp": 1439821364,
  "nonce": "0xfdb9cdcb84ddbdf3",
  "difficulty": 3811283233737,
  "gasLimit": {
    "_hex": "0x2fefd8"
  },
  "gasUsed": {
    "_hex": "0xa674"
  },
  "miner": "0x76d4a9bc9612bE738A81d0fE632b00B971E2bB9a",
  "extraData": "0x",
  "transactions": [
    {
      "hash": "0x0ce08350c4138a7c1931f8ba1011f5ab841420209ebe658b049a163ff06c1ffd",
      "blockHash": "0x2db3cb2814fc52a47ccc34601dbc76f4a170b0ec6c8e9e6aeda4ea93450a72cc",
      "blockNumber": 101334,
      "transactionIndex": 0,
      "confirmations": null,
      "from": "0x35e8e5dC5FBd97c5b421A80B596C030a2Be2A04D",
      "gasPrice": {
        "_hex": "0xd5f0cbc6a"
      },
      "gasLimit": {
        "_hex": "0x55f0"
      },
      "to": "0x2910543Af39abA0Cd09dBb2D50200b3E800A63D2",
      "value": {
        "_hex": "0x70c1cc73b00c80000"
      },
      "nonce": 2,
      "data": "0x454e423451384a3252",
      "r": "0xbb5f6a2b1892ec7bc5782961d1de66c82d0e10f88ea7d09e2bc4a2bb9290e0c7",
      "s": "0x5dc5f993d8d9bbb4a3ce60c6775acb635028e2e3e5199a8b142ed4d3f7ff72c8",
      "v": 27,
      "creates": null,
      "raw": "0xf87602850d5f0cbc6a8255f0942910543af39aba0cd09dbb2d50200b3e800a63d289070c1cc73b00c8000089454e423451384a32521ba0bb5f6a2b1892ec7bc5782961d1de66c82d0e10f88ea7d09e2bc4a2bb9290e0c7a05dc5f993d8d9bbb4a3ce60c6775acb635028e2e3e5199a8b142ed4d3f7ff72c8",
      "networkId": 0,
      "chainId": 0
    },
    {
      "hash": "0x5fec316229307c96dae0a309611ea1e52c5021db46d802b001d7b7e0dc926952",
      "blockHash": "0x2db3cb2814fc52a47ccc34601dbc76f4a170b0ec6c8e9e6aeda4ea93450a72cc",
      "blockNumber": 101334,
      "transactionIndex": 1,
      "confirmations": null,
      "from": "0x9A85C18039488f9A3712773119e8C40d7e1c5071",
      "gasPrice": {
        "_hex": "0xcb6f5d55f"
      },
      "gasLimit": {
        "_hex": "0x15f90"
      },
      "to": "0x0a41Be86378F36BA0823db204723693c0836a3E9",
      "value": {
        "_hex": "0x17da3a04c7b3e0000"
      },
      "nonce": 1,
      "data": "0x",
      "r": "0x2a93fc88ac9bc7b5b19b7ec52395d0f553bd56da668b09064f9b9e903e9c211a",
      "s": "0x2e907e0a1963ab16c2aeb912d95e6bfbdc111d46fb7896cb8160e16e44d1a444",
      "v": 28,
      "creates": null,
      "raw": "0xf86e01850cb6f5d55f83015f90940a41be86378f36ba0823db204723693c0836a3e989017da3a04c7b3e0000801ca02a93fc88ac9bc7b5b19b7ec52395d0f553bd56da668b09064f9b9e903e9c211aa02e907e0a1963ab16c2aeb912d95e6bfbdc111d46fb7896cb8160e16e44d1a444",
      "networkId": 0,
      "chainId": 0
    }
  ]
}