{
  "hash": "0x9370d74881245af214c04042dab7d3814cdc0c489e03925c896fb449de0c1abd",
  "parentHash": "0xc27fe3a9dba03982203b647ee9e083bf54f768bf388e94a5f4876032d5cf60b6",
  "number": 94699,
  "timestamp": 1439712631,
  "nonce": "0xc4e606c801aec6fb",
  "difficulty": 3484849487155,
  "gasLimit": {
    "_hex": "0x2fefd8"
  },
  "gasUsed": {
    "_hex": "0x388bc"
  },
  "miner": "0xf927a40C8B7F6E07c5af7FA2155B4864a4112B13",
  "extraData": "0x",
  "transactions": [
    {
      "hash": "0x04be407012a9527b4fba31b395a9e464401e7d1e715b0c41d6a391ccbe830301",
      "blockHash": "0x9370d74881245af214c04042dab7d3814cdc0c489e03925c896fb449de0c1abd",
      "blockNumber": 94699,
      "transactionIndex": 0,
      "confirmations": null,
      "from": "0xD35075CA61FE59d123969c36A82d1aB2D918AA38",
      "gasPrice": {
        "_hex": "0x110c8f7d8de"
      },
      "gasLimit": {
        "_hex": "0xc350"
      },
      "to": "0x2910543Af39abA0Cd09dBb2D50200b3E800A63D2",
      "value": {
        "_hex": "0x46791fc84e07d00000"
      },
      "nonce": 0,
      "data": "0x454e475537414e4230",
      "r": "0x76be1598143ae5dcc66034d55d759c43603f67d717ed41d15bbd528f624c0b38",
      "s": "0xd4bd8c9c4c4c0fc76a22ae74829fa81da983b0f3a0036599a56bb48eccf24c10",
      "v": 27,
      "creates": null,
      "raw": "0xf87780860110c8f7d8de82c350942910543af39aba0cd09dbb2d50200b3e800a63d28946791fc84e07d0000089454e475537414e42301ba076be1598143ae5dcc66034d55d759c43603f67d717ed41d15bbd528f624c0b38a0d4bd8c9c4c4c0fc76a22ae74829fa81da983b0f3a0036599a56bb48eccf24c10",
      "networkId": 0,
      "chainId": 0
    },
    {
      "hash": "0x2e9d5bbd37461232638544c9b9baf3b101a04f18d08441d54536ea8c03ee851b",
      "blockHash": "0x9370d74881245af214c04042dab7d3814cdc0c489e03925c896fb449de0c1abd",
      "blockNumber": 94699,
      "transactionIndex": 1,
      "confirmations": null,
      "from": "0xe6A7a1d47ff21B6321162AEA7C6CB457D5476Bca",
      "gasPrice": {
        "_hex": "0xe147cbbda"
      },
      "gasLimit": {
        "_hex": "0x55f0"
      },
      "to": "0x4C9560759adF54ABEdd7318d1413C4fA49240074",
      "value": {
        "_hex": "0xf4f3945e375c824"
      },
      "nonce": 2987,
      "data": "0x",
      "r": "0x54e44dba46099e454c1ed74322a009a4ec0a01aa3f1764392d5c8344bf749b13",
      "s": "0x29f5a2e6a20b4d99fb5e9c55a105c4aeddd27d1eabfdebcc9ec75d28a83b3f4c",
      "v": 27,
      "creates": null,
      "raw": "0xf86e820bab850e147cbbda8255f0944c9560759adf54abedd7318d1413c4fa49240074880f4f3945e375c824801ba054e44dba46099e454c1ed74322a009a4ec0a01aa3f1764392d5c8344bf749b13a029f5a2e6a20b4d99fb5e9c55a105c4aeddd27d1eabfdebcc9ec75d28a83b3f4c",
      "networkId": 0,
      "chainId": 0
    },
    {
      "hash": "0x1f06db6b0209484ba77c8451d725d9acdb2cf7915b0332eff3938503c0c35b7c",
      "blockHash": "0x9370d74881245af214c04042dab7d3814cdc0c489e03925c896fb449de0c1abd",
      "blockNumber": 94699,
      "transactionIndex": 2,
      "confirmations": null,
      "from": "0xe6A7a1d47ff21B6321162AEA7C6CB457D5476Bca",
      "gasPrice": {
        "_hex": "0xe147cbbda"
      },
      "gasLimit": {
        "_hex": "0x55f0"
      },
      "to": "0x602E2B65e38bD1B0AB230B35878dF011d74f2c59",
      "value": {
        "_hex": "0x1047695969c1b924"
      },
      "nonce": 2988,
      "data": "0x",
      "r": "0x78d7f6551bda0f1a420bc605bec8ff590980fc0e08cbcfcbb1321fc9981da386",
      "s": "0x659f57c01fe9538ef6ad15a81f540bca0d23727b163afdbcd679f33b4093a209",
      "v": 28,
      "creates": null,
      "raw": "0xf86e820bac850e147cbbda8255f094602e2b65e38bd1b0ab230b35878df011d74f2c59881047695969c1b924801ca078d7f6551bda0f1a420bc605bec8ff590980fc0e08cbcfcbb1321fc9981da386a0659f57c01fe9538ef6ad15a81f540bca0d23727b163afdbcd679f33b4093a209",
      "networkId": 0,
      "chainId": 0
    },
    {
      "hash": "0xdcf99d699295db4e74a27af4ea433766a489b949794526851881ff42515298d2",
      "blockHash": "0x9370d74881245af214c04042dab7d3814cdc0c489e03925c896fb449de0c1abd",
      "blockNumber": 94699,
      "transactionIndex": 3,
      "confirmations": null,
      "from": "0xe6A7a1d47ff21B6321162AEA7C6CB457D5476Bca",
      "gasPrice": {
        "_hex": "0xe147cbbda"
      },
      "gasLimit": {
        "_hex": "0x55f0"
      },
      "to": "0x7409AD0F9A56C154e2a23176962D3e111A72A9Eb",
      "value": {
        "_hex": "0x119f6280eee9d5e0"
      },
      "nonce": 2989,
      "data": "0x",
      "r": "0xa1372b9952f85ffc2fe1c751b95170d9d461259e47c81df109ab1becd85ad6f7",
      "s": "0x7a4f8dc898168a171d36772fa802f1eb621310c4f5c02534a1cdb92cd9d230cb",
      "v": 27,
      "creates": null,
      "raw": "0xf86e820bad850e147cbbda8255f0947409ad0f9a56c154e2a23176962d3e111a72a9eb88119f6280eee9d5e0801ba0a1372b9952f85ffc2fe1c751b95170d9d461259e47c81df109ab1becd85ad6f7a07a4f8dc898168a171d36772fa802f1eb621310c4f5c02534a1cdb92cd9d230cb",
      "networkId": 0,
      "chainId": 0
    },
    {
      "hash": "0xa7457b8caaa16f51065d2b95273597b64f8c661e659d71dc8af11b5ca19a7f14",
      "blockHash": "0x9370d74881245af214c04042dab7d3814cdc0c489e03925c896fb449de0c1abd",
      "blockNumber": 94699,
      "transactionIndex": 4,
      "confirmations": null,
      "from": "0xe6A7a1d47ff21B6321162AEA7C6CB457D5476Bca",
      "gasPrice": {
        "_hex": "0xe147cbbda"
      },
      "gasLimit": {
        "_hex": "0x55f0"
      },
      "to": "0xcabcF33e299eEFB1bBde6Ef75a21853831e8b339",
      "value": {
        "_hex": "0x13e726fe9211fc30"
      },
      "nonce": 2990,
      "data": "0x",
      "r": "0xe5c6db35758b53828621dadcfb801997c51a41d7d974ac3e2bd44f5750fd79c2",
      "s": "0x5937639e167cca1989bc9dbbe9d297239d6fc982842bd58ebdde2dd1d0d59d5c",
      "v": 28,
      "creates": null,
      "raw": "0xf86e820bae850e147cbbda8255f094cabcf33e299eefb1bbde6ef75a21853831e8b3398813e726fe9211fc30801ca0e5c6db35758b53828621dadcfb801997c51a41d7d974ac3e2bd44f5750fd79c2a05937639e167cca1989bc9dbbe9d297239d6fc982842bd58ebdde2dd1d0d59d5c",
      "networkId": 0,
      "chainId": 0
    },
    {
      "hash": "0x095747288e3ed03ec9ce61afb79e0f8e67a5e6cf734876b05eeb8577e0171113",
      "blockHash": "0x9370d74881245af214c04042dab7d3814cdc0c489e03925c896fb449de0c1abd",
      "blockNumber": 94699,
      "transactionIndex": 5,
      "confirmations": null,
      "from": "0xe6A7a1d47ff21B6321162AEA7C6CB457D5476Bca",
      "gasPrice": {
        "_hex": "0xe147cbbda"
      },
      "gasLimit": {
        "_hex": "0x55f0"
      },
      "to": "0x9746c7e1ef2bd21FF3997fa467593a89cb852BD0",
      "value": {
        "_hex": "0x161bbf5438b95758"
      },
      "nonce": 2991,
      "data": "0x",
      "r": "0x1db09f6daad7b22403ac36f318353f69d55fbde5a36a0c3068abcabd435da559",
      "s": "0x383d02f145b796151588f344c0d59ebe29766c35d17e081591b6300e0702d789",
      "v": 28,
      "creates": null,
      "raw": "0xf86e820baf850e147cbbda8255f0949746c7e1ef2bd21ff3997fa467593a89cb852bd088161bbf5438b95758801ca01db09f6daad7b22403ac36f318353f69d55fbde5a36a0c3068abcabd435da559a0383d02f145b796151588f344c0d59ebe29766c35d17e081591b6300e0702d789",
      "networkId": 0,
      "chainId": 0
    },
    {
      "hash": "0xc9bc5ce15b28e904bc256bc6707dd985d6a82d24471cc1fa952fb6acf627db3f",
      "blockHash": "0x9370d74881245af214c04042dab7d3814cdc0c489e03925c896fb449de0c1abd",
      "blockNumber": 94699,
      "transactionIndex": 6,
      "confirmations": null,
      "from": "0xe6A7a1d47ff21B6321162AEA7C6CB457D5476Bca",
      "gasPrice": {
        "_hex": "0xe147cbbda"
      },
      "gasLimit": {
        "_hex": "0x55f0"
      },
      "to": "0xc41fDDa36003210005a385c88A71007e62A81C7D",
      "value": {
        "_hex": "0x1696ef13b12cb92c"
      },
      "nonce": 2992,
      "data": "0x",
      "r": "0x735f6b564f71a0e2cb5c2cc44ddcbf884c2849f4b74d03fe001f1c36380bfff8",
      "s": "0x6b72c0f7b2c99d27eb4029dd3bd3a018368631ad13c142d34e163c5cab158064",
      "v": 27,
      "creates": null,
      "raw": "0xf86e820bb0850e147cbbda8255f094c41fdda36003210005a385c88a71007e62a81c7d881696ef13b12cb92c801ba0735f6b564f71a0e2cb5c2cc44ddcbf884c2849f4b74d03fe001f1c36380bfff8a06b72c0f7b2c99d27eb4029dd3bd3a018368631ad13c142d34e163c5cab158064",
      "networkId": 0,
      "chainId": 0
    },
    {
      "hash": "0x47595e4df58bd794c120bf424f1d074ade26992d1090755079a0e640cf088f28",
      "blockHash": "0x9370d74881245af214c04042dab7d3814cdc0c489e03925c896fb449de0c1abd",
      "blockNumber": 94699,
      "transactionIndex": 7,
      "confirmations": null,
      "from": "0xe6A7a1d47ff21B6321162AEA7C6CB457D5476Bca",
      "gasPrice": {
        "_hex": "0xe147cbbda"
      },
      "gasLimit": {
        "_hex": "0x55f0"
      },
      "to": "0x440875EeE9a37dCF577dab873E86f62298EAD638",
      "value": {
        "_hex": "0x16f9537d1ddbc100"
      },
      "nonce": 2993,
      "data": "0x",
      "r": "0x51683c027f91f5c7a9f367241fef3f3d2d5cc635f317d7547b817506c464a5b0",
      "s": "0x1b0585072afe7ec6031f09c59e862045c455b17c71784a31e533e5e566d569fa",
      "v": 27,
      "creates": null,
      "raw": "0xf86e820bb1850e147cbbda8255f094440875eee9a37dcf577dab873e86f62298ead6388816f9537d1ddbc100801ba051683c027f91f5c7a9f367241fef3f3d2d5cc635f317d7547b817506c464a5b0a01b0585072afe7ec6031f09c59e862045c455b17c71784a31e533e5e566d569fa",
      "networkId": 0,
      "chainId": 0
    },
    {
      "hash": "0x4217a2b354d65a328756975b252113d6a088581b000e834cf7dc06733c231ab8",
      "blockHash": "0x9370d74881245af214c04042dab7d3814cdc0c489e03925c896fb449de0c1abd",
      "blockNumber": 94699,
      "transactionIndex": 8,
      "confirmations": null,
      "from": "0xe6A7a1d47ff21B6321162AEA7C6CB457D5476Bca",
      "gasPrice": {
        "_hex": "0xe147cbbda"
      },
      "gasLimit": {
        "_hex": "0x55f0"
      },
      "to": "0x4F2B8001a7022812Fdd958AA86dD63e2b8B994C1",
      "value": {
        "_hex": "0x17eb57b7f5688e10"
      },
      "nonce": 2994,
      "data": "0x",
      "r": "0xc00d78edca7104860d32af12923649e4d352bb3e6baa7e9b06caf88804d57a43",
      "s": "0x153b19be600e669715a47f71f83475ca023d25e739ca2778ea59ca4d99cad385",
      "v": 28,
      "creates": null,
      "raw": "0xf86e820bb2850e147cbbda8255f0944f2b8001a7022812fdd958aa86dd63e2b8b994c18817eb57b7f5688e10801ca0c00d78edca7104860d32af12923649e4d352bb3e6baa7e9b06caf88804d57a43a0153b19be600e669715a47f71f83475ca023d25e739ca2778ea59ca4d99cad385",
      "networkId": 0,
      "chainId": 0
    },
    {
      "hash": "0x0ba8c1bcbb327afb4777ae911513d22a750e6d57bb75855155d3f2465d9236fa",
      "blockHash": "0x9370d74881245af214c04042dab7d3814cdc0c489e03925c896fb449de0c1abd",
      "blockNumber": 94699,
      "transactionIndex": 9,
      "confirmations": null,
      "from": "0xe6A7a1d47ff21B6321162AEA7C6CB457D5476Bca",
      "gasPrice": {
        "_hex": "0xe147cbbda"
      },
      "gasLimit": {
        "_hex": "0x55f0"
      },
      "to": "0x37E0B394d41C669662b52628639E6E4c1ac3F23D",
      "value": {
        "_hex": "0x1864c8f6d3d7cf70"
      },
      "nonce": 2995,
      "data": "0x",
      "r": "0x15caf8cabb5b24650494cf51c75a57300ce0aeb0865b509bf32081d4c1d23fb4",
      "s": "0x5377ce5bbcddc68352d1ab2be6251efd47e92368e5a00a4af205e919fadd9668",
      "v": 28,
      "creates": null,
      "raw": "0xf86e820bb3850e147cbbda8255f09437e0b394d41c669662b52628639e6e4c1ac3f23d881864c8f6d3d7cf70801ca015caf8cabb5b24650494cf51c75a57300ce0aeb0865b509bf32081d4c1d23fb4a05377ce5bbcddc68352d1ab2be6251efd47e92368e5a00a4af205e919fadd9668",
      "networkId": 0,
      "chainId": 0
    },
    {
      "hash": "0x43a9ddc3a918465ff6e10b7a250e55cf3fd6476a32cdd63c9c82d6da9a590e3b",
      "blockHash": "0x9370d74881245af214c04042dab7d3814cdc0c489e03925c896fb449de0c1abd",
      "blockNumber": 94699,
      "transactionIndex": 10,
      "confirmations": null,
      "from": "0xdCB14605B0EE4F372D223e5DF87aa9e760886D01",
      "gasPrice": {
        "_hex": "0xd57264df4"
      },
      "gasLimit": {
        "_hex": "0x5208"
      },
      "to": "0x32Be343B94f860124dC4fEe278FDCBD38C102D88",
      "value": {
        "_hex": "0x32eaac15fc5e00000"
      },
      "nonce": 6,
      "data": "0x",
      "r": "0x0dd32aba573f2d1b28c3015e0fcac5a6f5ee299b095c0485c37b809912d66c0f",
      "s": "0x1f7ea741514f68c070d115914ab135e58752fea42146d4be9f21867e43b11a53",
      "v": 28,
      "creates": null,
      "raw": "0xf86d06850d57264df48252089432be343b94f860124dc4fee278fdcbd38c102d8889032eaac15fc5e00000801ca00dd32aba573f2d1b28c3015e0fcac5a6f5ee299b095c0485c37b809912d66c0fa01f7ea741514f68c070d115914ab135e58752fea42146d4be9f21867e43b11a53",
      "networkId": 0,
      "chainId": 0
    }
  ]
}