{
  "hash": "0x3e5975bf142733aaee88962c39af77b9843cb713bd61f012f6ee7ab7415b1e90",
  "parentHash": "0x7e202059e5b628ce80afaaf8c907fa98b39fe66077383ea5ee84389b403968fc",
  "number": 83633,
  "timestamp": 1439538225,
  "nonce": "0xab846176c8c969ba",
  "difficulty": 2450343874629,
  "gasLimit": {
    "_hex": "0x2fefd8"
  },
  "gasUsed": {
    "_hex": "0xc454"
  },
  "miner": "0xe6A7a1d47ff21B6321162AEA7C6CB457D5476Bca",
  "extraData": "0x476574682f76312e302e312d38326566323666362f6c696e75782f676f312e34",
  "transactions": [
    {
      "hash": "0x9c39126f021c559e6b726ca59f6b0f5f916aedf7051b11eaee58c0ba77d8810a",
      "blockHash": "0x3e5975bf142733aaee88962c39af77b9843cb713bd61f012f6ee7ab7415b1e90",
      "blockNumber": 83633,
      "transactionIndex": 0,
      "confirmations": null,
      "from": "0xE30fBFf0F73d76643501B77772aBc74377dacE64",
      "gasPrice": {
        "_hex": "0xe1e482fe3"
      },
      "gasLimit": {
        "_hex": "0x15f90"
      },
      "to": "0x1EcEc47EC9F60c6040bc2241d60Fba13edE0e83F",
      "value": {
        "_hex": "0x0"
      },
      "nonce": 2,
      "data": "0xd0679d34000000000000000000000000f2a22f713f87c51076136a1338140aa8fff4ebf300000000000000000000000000000000000000000000000000000000000003e8",
      "r": "0x113e38732b94b0c3eb561495940fd002565d631ea47695f7b699402d50bb6d16",
      "s": "0x03f788014425aa565cd12d463f751404302c6c16cfc315bf4c8040ec9ac38e87",
      "v": 27,
      "creates": null,
      "raw": "0xf8aa02850e1e482fe383015f90941ecec47ec9f60c6040bc2241d60fba13ede0e83f80b844d0679d34000000000000000000000000f2a22f713f87c51076136a1338140aa8fff4ebf300000000000000000000000000000000000000000000000000000000000003e81ba0113e38732b94b0c3eb561495940fd002565d631ea47695f7b699402d50bb6d16a003f788014425aa565cd12d463f751404302c6c16cfc315bf4c8040ec9ac38e87",
      "networkId": 0,
      "chainId": 0
    }
  ]
}