{
  "hash": "0xac5d5b573c22e286400e8b34a4a28345c066dccfddec15ed83f9a038cc16c73e",
  "parentHash": "0xfca0255999160dad8b6c8460a08ef12e5b8d4b14d7c26793c661968e8445cae3",
  "number": 49855,
  "timestamp": 1438980175,
  "nonce": "0xa00dea9ab8461c29",
  "difficulty": 1496583242881,
  "gasLimit": {
    "_hex": "0x42668"
  },
  "gasUsed": {
    "_hex": "0x5208"
  },
  "miner": "0x0A63E1A8C33e351679e3581AC84ce341C32f813a",
  "extraData": "0x476574682f76312e302e312d38326566323666362f6c696e75782f676f312e34",
  "transactions": [
    {
      "hash": "0xf10603ed33b58ef05a1d2d3bb9fe2a9f4e42905ea36c200947888c7935752a5e",
      "blockHash": "0xac5d5b573c22e286400e8b34a4a28345c066dccfddec15ed83f9a038cc16c73e",
      "blockNumber": 49855,
      "transactionIndex": 0,
      "confirmations": null,
      "from": "0x743d4BEc153584BfA955305c168A1435Ec883049",
      "gasPrice": {
        "_hex": "0x9184e72a000"
      },
      "gasLimit": {
        "_hex": "0xd446"
      },
      "to": "0x3175a28CF6105466923f11bFFabD279F162aa2f8",
      "value": {
        "_hex": "0x1e5b8fa8fe2ac0000"
      },
      "nonce": 1,
      "data": "0x",
      "r": "0xf1ff0fd9dbebcc177d2202b3f19a25ec30c734459221c80e8abc133b94cfe253",
      "s": "0x26149e436e7583c11f62573eb5c7d650198255df8326605e20fc6b456adfda87",
      "v": 28,
      "creates": null,
      "raw": "0xf86e018609184e72a00082d446943175a28cf6105466923f11bffabd279f162aa2f88901e5b8fa8fe2ac0000801ca0f1ff0fd9dbebcc177d2202b3f19a25ec30c734459221c80e8abc133b94cfe253a026149e436e7583c11f62573eb5c7d650198255df8326605e20fc6b456adfda87",
      "networkId": 0,
      "chainId": 0
    }
  ]
}