{
  "hash": "0x11e7758099ceb1a004bde646577dfe54c0781dc30bd9265218834a808e576837",
  "parentHash": "0x1d78af79da9f5805ab718cda597eb9ba4e0fcca9dcbaffc7998f8ec66afba481",
  "number": 47546,
  "timestamp": 1438942616,
  "nonce": "0x94ed7139a5793948",
  "difficulty": 1445986741509,
  "gasLimit": {
    "_hex": "0xcdef"
  },
  "gasUsed": {
    "_hex": "0xa674"
  },
  "miner": "0xbb7B8287f3F0a933474a79eAe42CBCa977791171",
  "extraData": "0x476574682f4c5649562f76312e302e312f6c696e75782f676f312e342e32",
  "transactions": [
    {
      "hash": "0x1da51c6293bc8b95ee5303e7154e81821d882c5f6a417281b8c7eb43e37e938a",
      "blockHash": "0x11e7758099ceb1a004bde646577dfe54c0781dc30bd9265218834a808e576837",
      "blockNumber": 47546,
      "transactionIndex": 0,
      "confirmations": null,
      "from": "0xa13CfE826d6D1841DcaE443BE8c387518136b5e8",
      "gasPrice": {
        "_hex": "0x110c8f7d8de"
      },
      "gasLimit": {
        "_hex": "0xc350"
      },
      "to": "0x2910543Af39abA0Cd09dBb2D50200b3E800A63D2",
      "value": {
        "_hex": "0xde0b6b3a7640000"
      },
      "nonce": 0,
      "data": "0x454e30573343543030",
      "r": "0x8e395d13bf15cc967f2ec622158e894c4cafdda6e83555c8fcf2abd4b78f63ac",
      "s": "0x64cc17dbd202520ec3a4a7ea71e373aa86fe0936f1f3ff28075c5bb41735d9ef",
      "v": 28,
      "creates": null,
      "raw": "0xf87680860110c8f7d8de82c350942910543af39aba0cd09dbb2d50200b3e800a63d2880de0b6b3a764000089454e305733435430301ca08e395d13bf15cc967f2ec622158e894c4cafdda6e83555c8fcf2abd4b78f63aca064cc17dbd202520ec3a4a7ea71e373aa86fe0936f1f3ff28075c5bb41735d9ef",
      "networkId": 0,
      "chainId": 0
    },
    {
      "hash": "0xf2d89fe1bc7dcf6dc135b0526d803603ebdc5fdf5e6bcf5276923c26555aca56",
      "blockHash": "0x11e7758099ceb1a004bde646577dfe54c0781dc30bd9265218834a808e576837",
      "blockNumber": 47546,
      "transactionIndex": 1,
      "confirmations": null,
      "from": "0x4a7C6662593951F4D9FCD1009738CCCfC9D3f774",
      "gasPrice": {
        "_hex": "0x1d8e6f9726"
      },
      "gasLimit": {
        "_hex": "0x5208"
      },
      "to": "0x32Be343B94f860124dC4fEe278FDCBD38C102D88",
      "value": {
        "_hex": "0x532d7c559d1d38000"
      },
      "nonce": 1,
      "data": "0x",
      "r": "0xc43d3bb85566ed793546af8cb843f4897b8461eb95349ab1291b406e1e857a24",
      "s": "0x5ea24bdd88cf1d6ca465d9c55f49c8056e8cf0b0cb66a8b2c662fb1f9818fac0",
      "v": 27,
      "creates": null,
      "raw": "0xf86d01851d8e6f97268252089432be343b94f860124dc4fee278fdcbd38c102d88890532d7c559d1d38000801ba0c43d3bb85566ed793546af8cb843f4897b8461eb95349ab1291b406e1e857a24a05ea24bdd88cf1d6ca465d9c55f49c8056e8cf0b0cb66a8b2c662fb1f9818fac0",
      "networkId": 0,
      "chainId": 0
    }
  ]
}