{
  "hash": "0x69bea9395ad655cd52107cc01412bebeedbe0b9f743930d50d39b8c3401f5716",
  "parentHash": "0xcb567d9f15a3a1d64858d1ef5a079c2000d5e1cc4a02e94912cfaaeb8a710212",
  "number": 85299,
  "timestamp": 1439561410,
  "nonce": "0x46e21fb8ebcd8fcc",
  "difficulty": 2754448602433,
  "gasLimit": {
    "_hex": "0x2fefd8"
  },
  "gasUsed": {
    "_hex": "0x19a28"
  },
  "miner": "0xe6A7a1d47ff21B6321162AEA7C6CB457D5476Bca",
  "extraData": "0x476574682f76312e302e312d38326566323666362f6c696e75782f676f312e34",
  "transactions": [
    {
      "hash": "0xbd2bbaeeb1f1b0f67f76a64fb59950b7c3be6d3781ebab9a8bf37c71f40d5484",
      "blockHash": "0x69bea9395ad655cd52107cc01412bebeedbe0b9f743930d50d39b8c3401f5716",
      "blockNumber": 85299,
      "transactionIndex": 0,
      "confirmations": null,
      "from": "0x2910543Af39abA0Cd09dBb2D50200b3E800A63D2",
      "gasPrice": {
        "_hex": "0xdd7f95d7a"
      },
      "gasLimit": {
        "_hex": "0x5208"
      },
      "to": "0xB67b6BB30Bb68ED96f23f1fB8C6Da01B3C37F6D4",
      "value": {
        "_hex": "0x3e7219f0ddc3f8000"
      },
      "nonce": 602,
      "data": "0x",
      "r": "0x3bdc732b2dd30865f5943617dcbcc93a1b5d3e9343f46c64546cdb92a9990420",
      "s": "0x7285b453250c34f934630f92decfc9f0b6aa8918d7941df466bd6045d9ad0d6b",
      "v": 27,
      "creates": null,
      "raw": "0xf86f82025a850dd7f95d7a82520894b67b6bb30bb68ed96f23f1fb8c6da01b3c37f6d48903e7219f0ddc3f8000801ba03bdc732b2dd30865f5943617dcbcc93a1b5d3e9343f46c64546cdb92a9990420a07285b453250c34f934630f92decfc9f0b6aa8918d7941df466bd6045d9ad0d6b",
      "networkId": 0,
      "chainId": 0
    },
    {
      "hash": "0x4b50d1c5fe052f6070143e149858ffef39131b7a6af44b39dfcf012f39e18827",
      "blockHash": "0x69bea9395ad655cd52107cc01412bebeedbe0b9f743930d50d39b8c3401f5716",
      "blockNumber": 85299,
      "transactionIndex": 1,
      "confirmations": null,
      "from": "0x2910543Af39abA0Cd09dBb2D50200b3E800A63D2",
      "gasPrice": {
        "_hex": "0xdd7f95d7a"
      },
      "gasLimit": {
        "_hex": "0x5208"
      },
      "to": "0x900755EB624662556E5c2A2467d2057790397545",
      "value": {
        "_hex": "0xa676ccf2a0cf8000"
      },
      "nonce": 603,
      "data": "0x",
      "r": "0x349c62294ef94beb0af9b7d579a7019a4009993143d3499b54f0a937c30cc9dd",
      "s": "0x790582b1539745658ab4a78e795cd0013946cb194e6801de7ae11f7afff9109b",
      "v": 28,
      "creates": null,
      "raw": "0xf86e82025b850dd7f95d7a82520894900755eb624662556e5c2a2467d205779039754588a676ccf2a0cf8000801ca0349c62294ef94beb0af9b7d579a7019a4009993143d3499b54f0a937c30cc9dda0790582b1539745658ab4a78e795cd0013946cb194e6801de7ae11f7afff9109b",
      "networkId": 0,
      "chainId": 0
    },
    {
      "hash": "0x99156bb18e5d4bde48c35cb7d0b6df53d69d1477bdefcacc498cf065ab8b0fee",
      "blockHash": "0x69bea9395ad655cd52107cc01412bebeedbe0b9f743930d50d39b8c3401f5716",
      "blockNumber": 85299,
      "transactionIndex": 2,
      "confirmations": null,
      "from": "0x2910543Af39abA0Cd09dBb2D50200b3E800A63D2",
      "gasPrice": {
        "_hex": "0xdd7f95d7a"
      },
      "gasLimit": {
        "_hex": "0x5208"
      },
      "to": "0x0398aC7B5CF7d978dB26724AF753A878F0D51610",
      "value": {
        "_hex": "0x1b28b3ca1d5ed38000"
      },
      "nonce": 604,
      "data": "0x",
      "r": "0x9e834857297c5b539649f01d7f301fd09ecad652f7c7ee307f0117f8ce361b28",
      "s": "0x64668012c480332241b1a852ed65ba95c6a59ec36999acb705fabc2e8a7a9283",
      "v": 27,
      "creates": null,
      "raw": "0xf86f82025c850dd7f95d7a825208940398ac7b5cf7d978db26724af753a878f0d51610891b28b3ca1d5ed38000801ba09e834857297c5b539649f01d7f301fd09ecad652f7c7ee307f0117f8ce361b28a064668012c480332241b1a852ed65ba95c6a59ec36999acb705fabc2e8a7a9283",
      "networkId": 0,
      "chainId": 0
    },
    {
      "hash": "0x62de45cf75e82df66b1644d205a17458110773e6d3dd61d66e3bf1457aeefc5b",
      "blockHash": "0x69bea9395ad655cd52107cc01412bebeedbe0b9f743930d50d39b8c3401f5716",
      "blockNumber": 85299,
      "transactionIndex": 3,
      "confirmations": null,
      "from": "0x2910543Af39abA0Cd09dBb2D50200b3E800A63D2",
      "gasPrice": {
        "_hex": "0xdd7f95d7a"
      },
      "gasLimit": {
        "_hex": "0x5208"
      },
      "to": "0xA43B1A989f607Edc8041319870e1A0ae96D84aA0",
      "value": {
        "_hex": "0x56bc641f5cf91f8000"
      },
      "nonce": 605,
      "data": "0x",
      "r": "0xda6aadb8eb03750439dfbfd6bfea87196f69fb9e804950629050df448778bce3",
      "s": "0x7166dddad52d160745beb046c48cbd95422ff4e28e64493569b5e72a5a8cf04b",
      "v": 28,
      "creates": null,
      "raw": "0xf86f82025d850dd7f95d7a82520894a43b1a989f607edc8041319870e1a0ae96d84aa08956bc641f5cf91f8000801ca0da6aadb8eb03750439dfbfd6bfea87196f69fb9e804950629050df448778bce3a07166dddad52d160745beb046c48cbd95422ff4e28e64493569b5e72a5a8cf04b",
      "networkId": 0,
      "chainId": 0
    },
    {
      "hash": "0xfd4ed0558e06bc49b9e88e90cbc32e2fafcbe04124b7c6b5eadeca036ffe9915",
      "blockHash": "0x69bea9395ad655cd52107cc01412bebeedbe0b9f743930d50d39b8c3401f5716",
      "blockNumber": 85299,
      "transactionIndex": 4,
      "confirmations": null,
      "from": "0x7B25Bb9cA8E702217e9333225250E53c36804D48",
      "gasPrice": {
        "_hex": "0xd8b045526"
      },
      "gasLimit": {
        "_hex": "0x15f90"
      },
      "to": "0x4fA3954A093E9916a48C5960B4303d7832b21A9b",
      "value": {
        "_hex": "0x1a055690d9db800000"
      },
      "nonce": 3,
      "data": "0x",
      "r": "0x5f1906877912d8f0b3331d62e06945529996dde7c28e0c3bf9f399a00bd478fa",
      "s": "0x55a7c2e970871098bd131482cbc58407cf6f3ddf05dbb24f5fc307ff3f61c196",
      "v": 28,
      "creates": null,
      "raw": "0xf86e03850d8b04552683015f90944fa3954a093e9916a48c5960b4303d7832b21a9b891a055690d9db800000801ca05f1906877912d8f0b3331d62e06945529996dde7c28e0c3bf9f399a00bd478faa055a7c2e970871098bd131482cbc58407cf6f3ddf05dbb24f5fc307ff3f61c196",
      "networkId": 0,
      "chainId": 0
    }
  ]
}