{
  "hash": "0xf0ece2c76007a392734d1616d237905175d4fbcbb7bfb2a3c9aaf7f40299e0a0",
  "parentHash": "0x8929ca508783fc31904f772df2973573be10295b66be6ab4d8ebfc0803ede83b",
  "number": 121740,
  "timestamp": 1440181752,
  "nonce": "0x1bca834b2ce3cdcb",
  "difficulty": 4488636551581,
  "gasLimit": {
    "_hex": "0x2fefd8"
  },
  "gasUsed": {
    "_hex": "0xa410"
  },
  "miner": "0x790b8a3cE86E707ED0eD32bF89B3269692a23CC1",
  "extraData": "0xd783010002844765746887676f312e342e32856c696e7578",
  "transactions": [
    {
      "hash": "0x83104337c0cd9dd0db3763fc79950dd438a00fe54441d04f2f10b077a4c40eeb",
      "blockHash": "0xf0ece2c76007a392734d1616d237905175d4fbcbb7bfb2a3c9aaf7f40299e0a0",
      "blockNumber": 121740,
      "transactionIndex": 0,
      "confirmations": null,
      "from": "0xb1abce2918E21ddb93AA452731a12672A3d9F75a",
      "gasPrice": {
        "_hex": "0xd91834056"
      },
      "gasLimit": {
        "_hex": "0x5208"
      },
      "to": "0x32Be343B94f860124dC4fEe278FDCBD38C102D88",
      "value": {
        "_hex": "0x455f2d071e3ee800"
      },
      "nonce": 216,
      "data": "0x",
      "r": "0x1d7c61f3d66e9808e4086d7b713619c15a644a348ef636971e356cffc2b26b0a",
      "s": "0x4a9fd354a4ab2ade3bcb6d0bb7185381c2699bdc486c01c79e2c2b12c07ee557",
      "v": 28,
      "creates": null,
      "raw": "0xf86d81d8850d918340568252089432be343b94f860124dc4fee278fdcbd38c102d8888455f2d071e3ee800801ca01d7c61f3d66e9808e4086d7b713619c15a644a348ef636971e356cffc2b26b0aa04a9fd354a4ab2ade3bcb6d0bb7185381c2699bdc486c01c79e2c2b12c07ee557",
      "networkId": 0,
      "chainId": 0
    },
    {
      "hash": "0xd1f46149765e68bdca0720b6fda589040894537063e15dda189b1d63d200f816",
      "blockHash": "0xf0ece2c76007a392734d1616d237905175d4fbcbb7bfb2a3c9aaf7f40299e0a0",
      "blockNumber": 121740,
      "transactionIndex": 1,
      "confirmations": null,
      "from": "0x608f4b86321a68453f9adf6F06F7Fc3E621739ad",
      "gasPrice": {
        "_hex": "0xd91834056"
      },
      "gasLimit": {
        "_hex": "0x5208"
      },
      "to": "0x32Be343B94f860124dC4fEe278FDCBD38C102D88",
      "value": {
        "_hex": "0x4562f372a1bcd400"
      },
      "nonce": 111,
      "data": "0x",
      "r": "0xcbe1cb2352b833124f4624353c290bf6b710320351ca1c8f825395f9f62cd6a3",
      "s": "0x794d53d65f882e65744348cf2ad56df87ca04199476eb2645db0db422e6309a9",
      "v": 27,
      "creates": null,
      "raw": "0xf86c6f850d918340568252089432be343b94f860124dc4fee278fdcbd38c102d88884562f372a1bcd400801ba0cbe1cb2352b833124f4624353c290bf6b710320351ca1c8f825395f9f62cd6a3a0794d53d65f882e65744348cf2ad56df87ca04199476eb2645db0db422e6309a9",
      "networkId": 0,
      "chainId": 0
    }
  ]
}