{
  "hash": "0x418f0b392e028b82048cfdcf62f9ab71285c6bd6c5c771bdb6ed00efdfe2a3ef",
  "parentHash": "0xb3496e2b1400c41553e574f85bd952086cc0fb71dba2228530b0b8c5d0333a5f",
  "number": 96763,
  "timestamp": 1439745215,
  "nonce": "0x62fce11a7d3d3fcd",
  "difficulty": 3774458534520,
  "gasLimit": {
    "_hex": "0x2fefd8"
  },
  "gasUsed": {
    "_hex": "0x5208"
  },
  "miner": "0x0037ce3d4B7f8729C8607D8D0248252Be68202c0",
  "extraData": "0x476574682f76312e302e312f77696e646f77732f676f312e342e32",
  "transactions": [
    {
      "hash": "0xbc0c8ed0b004e5d2a03c375440e0aab07363a503645cce5fa3bb0c4873551252",
      "blockHash": "0x418f0b392e028b82048cfdcf62f9ab71285c6bd6c5c771bdb6ed00efdfe2a3ef",
      "blockNumber": 96763,
      "transactionIndex": 0,
      "confirmations": null,
      "from": "0xa6BDc31c431B8F97848c9D60cbbe9660dc450eB7",
      "gasPrice": {
        "_hex": "0xd6ee4a664"
      },
      "gasLimit": {
        "_hex": "0x5208"
      },
      "to": "0x32Be343B94f860124dC4fEe278FDCBD38C102D88",
      "value": {
        "_hex": "0x455f4392fd63c400"
      },
      "nonce": 126,
      "data": "0x",
      "r": "0x88cdc6562c67579390d346918a5170c3a140be2731653da635b248a46f6b24aa",
      "s": "0x3e26dab5c9d9859f39d5891ecbb4dd4a0bc9d0235ba08360f7f293d8805acef1",
      "v": 27,
      "creates": null,
      "raw": "0xf86c7e850d6ee4a6648252089432be343b94f860124dc4fee278fdcbd38c102d8888455f4392fd63c400801ba088cdc6562c67579390d346918a5170c3a140be2731653da635b248a46f6b24aaa03e26dab5c9d9859f39d5891ecbb4dd4a0bc9d0235ba08360f7f293d8805acef1",
      "networkId": 0,
      "chainId": 0
    }
  ]
}