{
  "hash": "0x07f722b4f28f177a1c8acf0d7d382727670c7a341c49ba6e53d7d3439878101c",
  "parentHash": "0x180cff080bf4f9edf4abb4eb89c1a6913a8e92359612587a3942a4c39bfcb613",
  "number": 65027,
  "timestamp": 1439230150,
  "nonce": "0x30e908f559f5a0c7",
  "difficulty": 1916306212515,
  "gasLimit": {
    "_hex": "0x2fefd8"
  },
  "gasUsed": {
    "_hex": "0x17cd8"
  },
  "miner": "0xdd2F1e6e498202e86D8f5442Af596580A4f03c2C",
  "extraData": "0x476574682f76312e302e312d38326566323666362f6c696e75782f676f312e34",
  "transactions": [
    {
      "hash": "0xe1dda16e832714e98a130c91cdca47bb81222bd4e41cedeef51c3e89b21551d7",
      "blockHash": "0x07f722b4f28f177a1c8acf0d7d382727670c7a341c49ba6e53d7d3439878101c",
      "blockNumber": 65027,
      "transactionIndex": 0,
      "confirmations": null,
      "from": "0x8665D94A5a2b9ce37b3265426E4e07513523C62B",
      "gasPrice": {
        "_hex": "0xba43b7400"
      },
      "gasLimit": {
        "_hex": "0x15f90"
      },
      "to": "0x793AE8C1b1a160BFc07BFB0d04F85eab1A71F4f2",
      "value": {
        "_hex": "0x0"
      },
      "nonce": 0,
      "data": "0x3ba15036",
      "r": "0xae4fa72f03c7e7096aaf4e589d0f7dbade040046a7fe97127b49c82d6aebae47",
      "s": "0x5062b31f9efd3762ae3cfeb1e7dadb2f7ac3463c125574440a073e427d3e092e",
      "v": 27,
      "creates": null,
      "raw": "0xf86980850ba43b740083015f9094793ae8c1b1a160bfc07bfb0d04f85eab1a71f4f280843ba150361ba0ae4fa72f03c7e7096aaf4e589d0f7dbade040046a7fe97127b49c82d6aebae47a05062b31f9efd3762ae3cfeb1e7dadb2f7ac3463c125574440a073e427d3e092e",
      "networkId": 0,
      "chainId": 0
    },
    {
      "hash": "0x3e14b5c7027b0ddb5cedcd2880b445f311e5611adfa61a6fa060568243316f99",
      "blockHash": "0x07f722b4f28f177a1c8acf0d7d382727670c7a341c49ba6e53d7d3439878101c",
      "blockNumber": 65027,
      "transactionIndex": 1,
      "confirmations": null,
      "from": "0xe3D2CC033D83A012041189034e92b101FA507bFC",
      "gasPrice": {
        "_hex": "0xba43b7400"
      },
      "gasLimit": {
        "_hex": "0x15f90"
      },
      "to": "0x793AE8C1b1a160BFc07BFB0d04F85eab1A71F4f2",
      "value": {
        "_hex": "0x0"
      },
      "nonce": 0,
      "data": "0x3ba15036",
      "r": "0x183b6f37bd08eb8e88cbb2b760074ac80106160b7d606c47870e1fce2f9d3ada",
      "s": "0x48c56927c2d1abd6a54015ac522c17d09158c4a04f717ba3edee40053aa7c588",
      "v": 27,
      "creates": null,
      "raw": "0xf86980850ba43b740083015f9094793ae8c1b1a160bfc07bfb0d04f85eab1a71f4f280843ba150361ba0183b6f37bd08eb8e88cbb2b760074ac80106160b7d606c47870e1fce2f9d3adaa048c56927c2d1abd6a54015ac522c17d09158c4a04f717ba3edee40053aa7c588",
      "networkId": 0,
      "chainId": 0
    }
  ]
}