{
  "hash": "0xd5b7348dcc05ce7de3193069cb1e2e8b79f813d405ccfc01738601402251b5fa",
  "parentHash": "0x2d0072443a73aef72389b396957fc6bdd33bbfefb1454c178f4d4a3e27d3ef48",
  "number": 101398,
  "timestamp": 1439822446,
  "nonce": "0xada35f7a130c6d83",
  "difficulty": 3829909304706,
  "gasLimit": {
    "_hex": "0x2fefd8"
  },
  "gasUsed": {
    "_hex": "0xf87c"
  },
  "miner": "0xe6A7a1d47ff21B6321162AEA7C6CB457D5476Bca",
  "extraData": "0x476574682f76312e302e312d38326566323666362f6c696e75782f676f312e34",
  "transactions": [
    {
      "hash": "0x69c12fff6d00eb1fb6dcca833789ddafd09f44248db36703ef06cf2c67a4a167",
      "blockHash": "0xd5b7348dcc05ce7de3193069cb1e2e8b79f813d405ccfc01738601402251b5fa",
      "blockNumber": 101398,
      "transactionIndex": 0,
      "confirmations": null,
      "from": "0xB9231Eb26e5f9E4B4D288f03906704Fab96C87D6",
      "gasPrice": {
        "_hex": "0x110c8f7d8de"
      },
      "gasLimit": {
        "_hex": "0xc350"
      },
      "to": "0x2910543Af39abA0Cd09dBb2D50200b3E800A63D2",
      "value": {
        "_hex": "0x77432217e683600000"
      },
      "nonce": 1,
      "data": "0x454e504b4b59554738",
      "r": "0xf5337c8f405da484f86a5343f9f20136e86bbe52b62d6c2c5a49bd6b32fd875a",
      "s": "0x3a2c3a41d70d8230727c208cadaa7daf8c91a9a61d6bb60b0cc848b18f1d984c",
      "v": 28,
      "creates": null,
      "raw": "0xf87701860110c8f7d8de82c350942910543af39aba0cd09dbb2d50200b3e800a63d28977432217e68360000089454e504b4b595547381ca0f5337c8f405da484f86a5343f9f20136e86bbe52b62d6c2c5a49bd6b32fd875aa03a2c3a41d70d8230727c208cadaa7daf8c91a9a61d6bb60b0cc848b18f1d984c",
      "networkId": 0,
      "chainId": 0
    },
    {
      "hash": "0xcaa6913b5a25d871349e712befa915f57adeafd7a734830ab9e2ec48a9b9013b",
      "blockHash": "0xd5b7348dcc05ce7de3193069cb1e2e8b79f813d405ccfc01738601402251b5fa",
      "blockNumber": 101398,
      "transactionIndex": 1,
      "confirmations": null,
      "from": "0xb1abce2918E21ddb93AA452731a12672A3d9F75a",
      "gasPrice": {
        "_hex": "0xd797ed2ca"
      },
      "gasLimit": {
        "_hex": "0x5208"
      },
      "to": "0x32Be343B94f860124dC4fEe278FDCBD38C102D88",
      "value": {
        "_hex": "0x455f402c3404ac00"
      },
      "nonce": 90,
      "data": "0x",
      "r": "0xb4ff86b119e712cfcafaa510382fbc75486c62cf2c5c80172ab22dc597cbf93c",
      "s": "0x7c806b64ea68279f42190ff3aa736c25c30cad80fb656a1cb2f4a69af613ddc2",
      "v": 27,
      "creates": null,
      "raw": "0xf86c5a850d797ed2ca8252089432be343b94f860124dc4fee278fdcbd38c102d8888455f402c3404ac00801ba0b4ff86b119e712cfcafaa510382fbc75486c62cf2c5c80172ab22dc597cbf93ca07c806b64ea68279f42190ff3aa736c25c30cad80fb656a1cb2f4a69af613ddc2",
      "networkId": 0,
      "chainId": 0
    },
    {
      "hash": "0x8b9dbe893ca81731df0601ff2727894353feda2cbd02c23178157411c7335b96",
      "blockHash": "0xd5b7348dcc05ce7de3193069cb1e2e8b79f813d405ccfc01738601402251b5fa",
      "blockNumber": 101398,
      "transactionIndex": 2,
      "confirmations": null,
      "from": "0xDA4E0Ba268486216E0B3Ad5ccEAa1E7EdB1C2751",
      "gasPrice": {
        "_hex": "0xd797ed2ca"
      },
      "gasLimit": {
        "_hex": "0x5208"
      },
      "to": "0x32Be343B94f860124dC4fEe278FDCBD38C102D88",
      "value": {
        "_hex": "0x1a05122ec0601f000"
      },
      "nonce": 7,
      "data": "0x",
      "r": "0x4a4b56e02ef52a612ce29799ebef79bb4a9c46af5fee873c2eac7985024001ff",
      "s": "0x52bafb07c4a8553ad7818d86c10a5a52b7f0c53683115473ffe923b30bf61f19",
      "v": 27,
      "creates": null,
      "raw": "0xf86d07850d797ed2ca8252089432be343b94f860124dc4fee278fdcbd38c102d888901a05122ec0601f000801ba04a4b56e02ef52a612ce29799ebef79bb4a9c46af5fee873c2eac7985024001ffa052bafb07c4a8553ad7818d86c10a5a52b7f0c53683115473ffe923b30bf61f19",
      "networkId": 0,
      "chainId": 0
    }
  ]
}