{
  "hash": "0x6b5b5055db59754de51c567cb5af33cb4e53bb9f6c41600f7916b07d5420ba33",
  "parentHash": "0x83031a3aff848b282b88382831b5cbc7cf0333e783391da8e24e151e990be940",
  "number": 112780,
  "timestamp": 1440013085,
  "nonce": "0x5a439233cec36b9b",
  "difficulty": 4436748525739,
  "gasLimit": {
    "_hex": "0x2fefd8"
  },
  "gasUsed": {
    "_hex": "0x5208"
  },
  "miner": "0x007f7f58D3eb5b7510A301eCC749FC1fCDDBE14D",
  "extraData": "0x476574682f76312e302e312f77696e646f77732f676f312e342e32",
  "transactions": [
    {
      "hash": "0x9865e4b6b0d389415ea73aa2d4aa8c7d4f2849a41b05333d5ab45c4197cca57c",
      "blockHash": "0x6b5b5055db59754de51c567cb5af33cb4e53bb9f6c41600f7916b07d5420ba33",
      "blockNumber": 112780,
      "transactionIndex": 0,
      "confirmations": null,
      "from": "0xD72ab61a64fEAeE7b5EB3D42B5445858B95d38fd",
      "gasPrice": {
        "_hex": "0xdda2a859b"
      },
      "gasLimit": {
        "_hex": "0x5208"
      },
      "to": "0x32Be343B94f860124dC4fEe278FDCBD38C102D88",
      "value": {
        "_hex": "0x9388a429d60f5800"
      },
      "nonce": 7,
      "data": "0x",
      "r": "0x7f057afe15a8fe9ad50eaf1a6dd75e17692694433dcd5cd8047413450fb7780a",
      "s": "0x0c8ed59e1db5c4a3fd7c7abd24723e5511806069e0d733e12c05ee9d96bdce5c",
      "v": 27,
      "creates": null,
      "raw": "0xf86c07850dda2a859b8252089432be343b94f860124dc4fee278fdcbd38c102d88889388a429d60f5800801ba07f057afe15a8fe9ad50eaf1a6dd75e17692694433dcd5cd8047413450fb7780aa00c8ed59e1db5c4a3fd7c7abd24723e5511806069e0d733e12c05ee9d96bdce5c",
      "networkId": 0,
      "chainId": 0
    }
  ]
}