{
  "hash": "0xaedf29afcd0225ddff258b6efb24117f85c68c7087681581ebad3d76183cc7dc",
  "parentHash": "0xf18517be852699b7a0dfea60b03ff7cf04f855c368a50434d2818babe95da413",
  "number": 64645,
  "timestamp": 1439224112,
  "nonce": "0x1c44a070b20bf834",
  "difficulty": 1886682549812,
  "gasLimit": {
    "_hex": "0x2fefd8"
  },
  "gasUsed": {
    "_hex": "0x47688"
  },
  "miner": "0xd8bd2C0f1FF677215F8b235db85bd5e7f3fBD59D",
  "extraData": "0x",
  "transactions": [
    {
      "hash": "0xba3407800d5847f22f2e5e04f594ba48686321fdb0562d9556f867b1d0d852fd",
      "blockHash": "0xaedf29afcd0225ddff258b6efb24117f85c68c7087681581ebad3d76183cc7dc",
      "blockNumber": 64645,
      "transactionIndex": 0,
      "confirmations": null,
      "from": "0x7b8364a1B071d6742273aaff604ed5B56703e4d0",
      "gasPrice": {
        "_hex": "0xba43b7400"
      },
      "gasLimit": {
        "_hex": "0x15f90"
      },
      "to": "0x793AE8C1b1a160BFc07BFB0d04F85eab1A71F4f2",
      "value": {
        "_hex": "0x0"
      },
      "nonce": 0,
      "data": "0x3ba15036",
      "r": "0xafa446c0ce29b2065ac7a7b358785f56974f28306f7ec7bc87a4517d29963530",
      "s": "0x7d47c308c8c25080f99248ea810dfa73778c435c75ec50462a2ffe9a7f1beceb",
      "v": 28,
      "creates": null,
      "raw": "0xf86980850ba43b740083015f9094793ae8c1b1a160bfc07bfb0d04f85eab1a71f4f280843ba150361ca0afa446c0ce29b2065ac7a7b358785f56974f28306f7ec7bc87a4517d29963530a07d47c308c8c25080f99248ea810dfa73778c435c75ec50462a2ffe9a7f1beceb",
      "networkId": 0,
      "chainId": 0
    },
    {
      "hash": "0xc9c742ba457fd3719ee26a5bf221ca253a384afc0403a0d013ffdcf21bce9b13",
      "blockHash": "0xaedf29afcd0225ddff258b6efb24117f85c68c7087681581ebad3d76183cc7dc",
      "blockNumber": 64645,
      "transactionIndex": 1,
      "confirmations": null,
      "from": "0xC0Af7a3B03D577f1006FAc9391223f2FAE5262bf",
      "gasPrice": {
        "_hex": "0xba43b7400"
      },
      "gasLimit": {
        "_hex": "0x15f90"
      },
      "to": "0x793AE8C1b1a160BFc07BFB0d04F85eab1A71F4f2",
      "value": {
        "_hex": "0x0"
      },
      "nonce": 0,
      "data": "0x3ba15036",
      "r": "0x5f52620e302815123bed682218604af9450a66ff8ec3cdfd263c9bded385a319",
      "s": "0x7dd1a9ae620262eadd100fc3b14285f62aa7f267cdfdc26b78ad4a67ee3cc00f",
      "v": 28,
      "creates": null,
      "raw": "0xf86980850ba43b740083015f9094793ae8c1b1a160bfc07bfb0d04f85eab1a71f4f280843ba150361ca05f52620e302815123bed682218604af9450a66ff8ec3cdfd263c9bded385a319a07dd1a9ae620262eadd100fc3b14285f62aa7f267cdfdc26b78ad4a67ee3cc00f",
      "networkId": 0,
      "chainId": 0
    },
    {
      "hash": "0xc67828c6f4bd0bd914f09ef24d2b0b4714204c688e09da9e488cc6069a1c16b8",
      "blockHash": "0xaedf29afcd0225ddff258b6efb24117f85c68c7087681581ebad3d76183cc7dc",
      "blockNumber": 64645,
      "transactionIndex": 2,
      "confirmations": null,
      "from": "0x016bF4b9c1eAAC343841aD78aF9a553BE14EDa3A",
      "gasPrice": {
        "_hex": "0xba43b7400"
      },
      "gasLimit": {
        "_hex": "0x15f90"
      },
      "to": "0x793AE8C1b1a160BFc07BFB0d04F85eab1A71F4f2",
      "value": {
        "_hex": "0x0"
      },
      "nonce": 0,
      "data": "0x3ba15036",
      "r": "0xd786ed1a04a5b67d62b94433cd1309b4cba5931acf4180712ffec214b6cb4c40",
      "s": "0x714a0b998cb1f9faac85cdd85ee521ae39ae1f5a862835149b083d7f8bfea3bd",
      "v": 28,
      "creates": null,
      "raw": "0xf86980850ba43b740083015f9094793ae8c1b1a160bfc07bfb0d04f85eab1a71f4f280843ba150361ca0d786ed1a04a5b67d62b94433cd1309b4cba5931acf4180712ffec214b6cb4c40a0714a0b998cb1f9faac85cdd85ee521ae39ae1f5a862835149b083d7f8bfea3bd",
      "networkId": 0,
      "chainId": 0
    },
    {
      "hash": "0x136291e103eb49617c198e14fd3db4218d1d712e2511564fa3500b6691ce6a4b",
      "blockHash": "0xaedf29afcd0225ddff258b6efb24117f85c68c7087681581ebad3d76183cc7dc",
      "blockNumber": 64645,
      "transactionIndex": 3,
      "confirmations": null,
      "from": "0xe9F45014eA31803Fd2D4Ca28B4cE05631C7F443E",
      "gasPrice": {
        "_hex": "0xba43b7400"
      },
      "gasLimit": {
        "_hex": "0x15f90"
      },
      "to": "0x793AE8C1b1a160BFc07BFB0d04F85eab1A71F4f2",
      "value": {
        "_hex": "0x0"
      },
      "nonce": 0,
      "data": "0x3ba15036",
      "r": "0x0b0226158a12c609d12c17dc1ae1f2ac698f4d587b9b929bd731b4f4d071f5e5",
      "s": "0x79e96732c852f63a22eceb3b57a464bdba8b659a9463c2452baf0c9beced1bdf",
      "v": 27,
      "creates": null,
      "raw": "0xf86980850ba43b740083015f9094793ae8c1b1a160bfc07bfb0d04f85eab1a71f4f280843ba150361ba00b0226158a12c609d12c17dc1ae1f2ac698f4d587b9b929bd731b4f4d071f5e5a079e96732c852f63a22eceb3b57a464bdba8b659a9463c2452baf0c9beced1bdf",
      "networkId": 0,
      "chainId": 0
    },
    {
      "hash": "0x45f7479417361ba0e96296f3b0046bb55a6545c3e831d0351aafd59a13cb35da",
      "blockHash": "0xaedf29afcd0225ddff258b6efb24117f85c68c7087681581ebad3d76183cc7dc",
      "blockNumber": 64645,
      "transactionIndex": 4,
      "confirmations": null,
      "from": "0x8C20d15E45dD95A2478C5aB0a53Fb69fddA98c3C",
      "gasPrice": {
        "_hex": "0xba43b7400"
      },
      "gasLimit": {
        "_hex": "0x15f90"
      },
      "to": "0x793AE8C1b1a160BFc07BFB0d04F85eab1A71F4f2",
      "value": {
        "_hex": "0x0"
      },
      "nonce": 0,
      "data": "0x3ba15036",
      "r": "0x7c288f2db390403cd34e034fafe9d4cb71d78c60857ccbc2e932b2a46286b122",
      "s": "0x7dc33e00b27b31f8ce5aa9244e53678aa1bdff6da3ac62acf2914446481bf567",
      "v": 27,
      "creates": null,
      "raw": "0xf86980850ba43b740083015f9094793ae8c1b1a160bfc07bfb0d04f85eab1a71f4f280843ba150361ba07c288f2db390403cd34e034fafe9d4cb71d78c60857ccbc2e932b2a46286b122a07dc33e00b27b31f8ce5aa9244e53678aa1bdff6da3ac62acf2914446481bf567",
      "networkId": 0,
      "chainId": 0
    },
    {
      "hash": "0x6e7a694b3383577f154e20a25958bea0b82d2f8854d72f9eac1f575c1fc2fadc",
      "blockHash": "0xaedf29afcd0225ddff258b6efb24117f85c68c7087681581ebad3d76183cc7dc",
      "blockNumber": 64645,
      "transactionIndex": 5,
      "confirmations": null,
      "from": "0x87f859afE55E55Fc86e647c75aC99662a455A949",
      "gasPrice": {
        "_hex": "0xba43b7400"
      },
      "gasLimit": {
        "_hex": "0x15f90"
      },
      "to": "0x793AE8C1b1a160BFc07BFB0d04F85eab1A71F4f2",
      "value": {
        "_hex": "0x0"
      },
      "nonce": 0,
      "data": "0x3ba15036",
      "r": "0xab9c48ecaa4f228c3ee9fba8909981d13d4e17d253b5bc4368da3a07e36bf4d9",
      "s": "0x30f869dca2d6dccab7ae00d66f797b801030f4ca4cc4b1b48e2f634ddf23da61",
      "v": 27,
      "creates": null,
      "raw": "0xf86980850ba43b740083015f9094793ae8c1b1a160bfc07bfb0d04f85eab1a71f4f280843ba150361ba0ab9c48ecaa4f228c3ee9fba8909981d13d4e17d253b5bc4368da3a07e36bf4d9a030f869dca2d6dccab7ae00d66f797b801030f4ca4cc4b1b48e2f634ddf23da61",
      "networkId": 0,
      "chainId": 0
    }
  ]
}