{
  "hash": "0x76de4de2ffe3047978306b0373ccd1be314ae48cfdefec6e5de7c0ad3d7aadb4",
  "parentHash": "0x27262d6bda70bbbb0ff081ed5b6763fa229a7ad6a27e1e7c4a4f4d2eb7ef527c",
  "number": 102609,
  "timestamp": 1439840542,
  "nonce": "0xf12226797258e254",
  "difficulty": 4011172058930,
  "gasLimit": {
    "_hex": "0x2fefd8"
  },
  "gasUsed": {
    "_hex": "0x5208"
  },
  "miner": "0x790b8a3cE86E707ED0eD32bF89B3269692a23CC1",
  "extraData": "0xd783010001844765746887676f312e342e32856c696e7578",
  "transactions": [
    {
      "hash": "0xcaabeaad75c6e5dec952552726af52d95b3973afadecf26a47890359a4bc3306",
      "blockHash": "0x76de4de2ffe3047978306b0373ccd1be314ae48cfdefec6e5de7c0ad3d7aadb4",
      "blockNumber": 102609,
      "transactionIndex": 0,
      "confirmations": null,
      "from": "0xc0fA87135254768597352383959A855181c4aAf6",
      "gasPrice": {
        "_hex": "0xe0d52839a"
      },
      "gasLimit": {
        "_hex": "0x7a120"
      },
      "to": "0xBBDa93a81B882774e1c9b5e3F933Fa35DaC8bc88",
      "value": {
        "_hex": "0x114dca34ce50b0000"
      },
      "nonce": 0,
      "data": "0x",
      "r": "0x8a41aa66bdc4dae12f5479947f934c4daaa156cf6ea184b16882be070b6002ed",
      "s": "0x7dc6dc77aed2da02ef1cc0873cf5cdb19abc9377df2457772acf45e70667b365",
      "v": 28,
      "creates": null,
      "raw": "0xf86e80850e0d52839a8307a12094bbda93a81b882774e1c9b5e3f933fa35dac8bc88890114dca34ce50b0000801ca08a41aa66bdc4dae12f5479947f934c4daaa156cf6ea184b16882be070b6002eda07dc6dc77aed2da02ef1cc0873cf5cdb19abc9377df2457772acf45e70667b365",
      "networkId": 0,
      "chainId": 0
    }
  ]
}