{
  "hash": "0x3a5be81a469f100d48dce87633fdab0d37a94820484f9007b9924964af39ad4a",
  "parentHash": "0x747af7b97f72cbf3f85e366e5d0ac840a738c81a074141810e7a91338c2d5b0e",
  "number": 65075,
  "timestamp": 1439230797,
  "nonce": "0xd1669a8fde5e9637",
  "difficulty": 1931324938444,
  "gasLimit": {
    "_hex": "0x2fefd8"
  },
  "gasUsed": {
    "_hex": "0x5208"
  },
  "miner": "0xE4BA8cF48d11D4cd54fba46C5331b5477DbF5539",
  "extraData": "0x476574682f76312e302e312f77696e646f77732f676f312e342e32",
  "transactions": [
    {
      "hash": "0xf706e81a6c84aa46aab84ead87e4ecaa126cffedec4b36a1a0d3e960c46ec0bc",
      "blockHash": "0x3a5be81a469f100d48dce87633fdab0d37a94820484f9007b9924964af39ad4a",
      "blockNumber": 65075,
      "transactionIndex": 0,
      "confirmations": null,
      "from": "0xE9b9F4aC8114911e13f659915F9A10661F6B5CB1",
      "gasPrice": {
        "_hex": "0xd7d40ace3"
      },
      "gasLimit": {
        "_hex": "0x15f90"
      },
      "to": "0xc597A5d92F5dC1137D847db733cfe02c6d209f13",
      "value": {
        "_hex": "0x2386f26fc10000"
      },
      "nonce": 1,
      "data": "0x",
      "r": "0xdd63907acde7155614411b08777db26b82244e4d4ba6d2d4f12d78fc9a7df729",
      "s": "0x4715170ecebcab1a82a1ce04cc6573c00861f441bde61079c48bc23db54ed3e0",
      "v": 28,
      "creates": null,
      "raw": "0xf86c01850d7d40ace383015f9094c597a5d92f5dc1137d847db733cfe02c6d209f13872386f26fc10000801ca0dd63907acde7155614411b08777db26b82244e4d4ba6d2d4f12d78fc9a7df729a04715170ecebcab1a82a1ce04cc6573c00861f441bde61079c48bc23db54ed3e0",
      "networkId": 0,
      "chainId": 0
    }
  ]
}