{
  "hash": "0xcd5ce09d7e0dbfe0c6c4b647072f8c6c8f8bb8a5da8d7958c22ab8ef6d50943c",
  "parentHash": "0x62450dfe04971bd30c899e3ca2573fdf32c6b93db9902c57d4ebfc08f3021799",
  "number": 50107,
  "timestamp": 1438984016,
  "nonce": "0xa1597311c8cacf48",
  "difficulty": 1511224511314,
  "gasLimit": {
    "_hex": "0x503c6"
  },
  "gasUsed": {
    "_hex": "0x195b2"
  },
  "miner": "0x5146556427FF689250ED1801a783D12138C3Dd5E",
  "extraData": "0x476574682f76312e302e312f6c696e75782f676f312e342e32",
  "transactions": [
    {
      "hash": "0x3f97c969ddf71f515ce5373b1f8e76e9fd7016611d8ce455881009414301789e",
      "blockHash": "0xcd5ce09d7e0dbfe0c6c4b647072f8c6c8f8bb8a5da8d7958c22ab8ef6d50943c",
      "blockNumber": 50107,
      "transactionIndex": 0,
      "confirmations": null,
      "from": "0x834e9B529AC9Fa63B39A06f8D8C9B0D6791FA5dF",
      "gasPrice": {
        "_hex": "0xddce36b09"
      },
      "gasLimit": {
        "_hex": "0x195b2"
      },
      "to": "0x109C4f2CCc82C4d77Bde15F306707320294Aea3F",
      "value": {
        "_hex": "0xde0b6b3a7640000"
      },
      "nonce": 3,
      "data": "0x",
      "r": "0xd6310044ebdf66f5383b809a1bd2a19a9f9b4557583af9b79e9d020638a86b1b",
      "s": "0x7f02e78e0a980f2d7b2ad202a05d4a197324aae0263cdda3f51ecad47dbab5ac",
      "v": 28,
      "creates": null,
      "raw": "0xf86d03850ddce36b09830195b294109c4f2ccc82c4d77bde15f306707320294aea3f880de0b6b3a7640000801ca0d6310044ebdf66f5383b809a1bd2a19a9f9b4557583af9b79e9d020638a86b1ba07f02e78e0a980f2d7b2ad202a05d4a197324aae0263cdda3f51ecad47dbab5ac",
      "networkId": 0,
      "chainId": 0
    }
  ]
}