{
  "hash": "0x2be110b635947a1f6ee9001bde05a2213ec588de9b9defb9f13460c3592e7401",
  "parentHash": "0xeab252125937ea88ecf1a370e9b93b87f0b5f8e2067bb597eb4403f7840d13cc",
  "number": 61093,
  "timestamp": 1439166686,
  "nonce": "0x843ec07b5df759d1",
  "difficulty": 1725297840091,
  "gasLimit": {
    "_hex": "0x2fefd8"
  },
  "gasUsed": {
    "_hex": "0x5788"
  },
  "miner": "0x3FF679B0823a026F2378E5f5F22A6F127cC85828",
  "extraData": "0x",
  "transactions": [
    {
      "hash": "0xedaa6c59a5c59d2d3c4f528ccfba03f306886d4bf856295f730cebf703166e32",
      "blockHash": "0x2be110b635947a1f6ee9001bde05a2213ec588de9b9defb9f13460c3592e7401",
      "blockNumber": 61093,
      "transactionIndex": 0,
      "confirmations": null,
      "from": "0x9E5B4729c3266d77caE7F08C303b191Ac4d6B8CD",
      "gasPrice": {
        "_hex": "0x9184e72a000"
      },
      "gasLimit": {
        "_hex": "0x57e7"
      },
      "to": "0x0000000000000000000000000000000000000000",
      "value": {
        "_hex": "0x0"
      },
      "nonce": 0,
      "data": "0x726567697374657200000000000000000000000000000000000000000000000074616f7465683132323100000000000000000000000000000000000000000000",
      "r": "0x630ba55110cda8f34b253d3eb6ffa25288fd4ada68a85cc3276c4bdddcbe257c",
      "s": "0x0aad381eb92d5e0703653688d4fa91d9df384ede52f92dfc3bcc3809d846cc3c",
      "v": 28,
      "creates": null,
      "raw": "0xf8a6808609184e72a0008257e794000000000000000000000000000000000000000080b840726567697374657200000000000000000000000000000000000000000000000074616f74656831323231000000000000000000000000000000000000000000001ca0630ba55110cda8f34b253d3eb6ffa25288fd4ada68a85cc3276c4bdddcbe257ca00aad381eb92d5e0703653688d4fa91d9df384ede52f92dfc3bcc3809d846cc3c",
      "networkId": 0,
      "chainId": 0
    }
  ]
}