{
  "hash": "0xbbb2700c94379830eda527873f857cbe1290a284fd03eb38f21055cf196aceed",
  "parentHash": "0x8cab45de61d20c850df1d6998eb867d9635761b9b272c51f6d54ac66060be77a",
  "number": 84434,
  "timestamp": 1439549531,
  "nonce": "0x1fddfbc7d8878d6a",
  "difficulty": 2571457175580,
  "gasLimit": {
    "_hex": "0x2fefd8"
  },
  "gasUsed": {
    "_hex": "0x5208"
  },
  "miner": "0xE13f83e0288E460362D9E7421f0601fB88C4fd91",
  "extraData": "0x476574682f76312e302e312f6c696e75782f676f312e342e32",
  "transactions": [
    {
      "hash": "0xbe1a490fb7162ff7f27c15fceaead05350f5cc487894ca6e5dd9aca904bf05da",
      "blockHash": "0xbbb2700c94379830eda527873f857cbe1290a284fd03eb38f21055cf196aceed",
      "blockNumber": 84434,
      "transactionIndex": 0,
      "confirmations": null,
      "from": "0xd1ce10d2AdBa8b18135eF72Aa5296c9503a3501c",
      "gasPrice": {
        "_hex": "0xd539a975e"
      },
      "gasLimit": {
        "_hex": "0x15f90"
      },
      "to": "0xf2cC0eEAAAeD313542CB262B0B8c3972425143f0",
      "value": {
        "_hex": "0x8aa39c121a270000"
      },
      "nonce": 0,
      "data": "0x",
      "r": "0x20952b2f5ac4aec541b4ebc267db70156f10263eac796bf31069056a0f7a5042",
      "s": "0x63f6bbc821bced3ac41a174daf5bd86dddc88112f305e0908609821d597373b5",
      "v": 27,
      "creates": null,
      "raw": "0xf86d80850d539a975e83015f9094f2cc0eeaaaed313542cb262b0b8c3972425143f0888aa39c121a270000801ba020952b2f5ac4aec541b4ebc267db70156f10263eac796bf31069056a0f7a5042a063f6bbc821bced3ac41a174daf5bd86dddc88112f305e0908609821d597373b5",
      "networkId": 0,
      "chainId": 0
    }
  ]
}