{
  "hash": "0x3e3fca92593b55e5c188b14b8702fc4dd1cc66bbad90b11ceef3643b40f48d9b",
  "parentHash": "0x379ed11319ffed9797c171207de9992de6a7095755c4a5f778e1f9ef274ebd4b",
  "number": 117332,
  "timestamp": 1440107573,
  "nonce": "0xd9ee59f38f2a5af1",
  "difficulty": 4331620197284,
  "gasLimit": {
    "_hex": "0x2fefd8"
  },
  "gasUsed": {
    "_hex": "0x5208"
  },
  "miner": "0x608f4b86321a68453f9adf6F06F7Fc3E621739ad",
  "extraData": "0xd783010002844765746887676f312e342e32856c696e7578",
  "transactions": [
    {
      "hash": "0x588afb17a4e7af5210d8783a85f167747900129092fdbd2365cb76f5c14e5952",
      "blockHash": "0x3e3fca92593b55e5c188b14b8702fc4dd1cc66bbad90b11ceef3643b40f48d9b",
      "blockNumber": 117332,
      "transactionIndex": 0,
      "confirmations": null,
      "from": "0x7eD2359220bC2A40b70C40350EcAb732B39c0eF4",
      "gasPrice": {
        "_hex": "0xdb6895161"
      },
      "gasLimit": {
        "_hex": "0x15f90"
      },
      "to": "0xEBbCe19e781ABdA5B8e66d6F6Bd8f77d964244d8",
      "value": {
        "_hex": "0xa7669bd7132640000"
      },
      "nonce": 4,
      "data": "0x",
      "r": "0x8efe3c54b70f56091d4027c13f3a1a2c40fe1abb27edff32122feb4b00cf2bd8",
      "s": "0x2d5d7483fe41bd6e1557685cf698dff6b190d8b96d537530368750f6af70800d",
      "v": 28,
      "creates": null,
      "raw": "0xf86e04850db689516183015f9094ebbce19e781abda5b8e66d6f6bd8f77d964244d8890a7669bd7132640000801ca08efe3c54b70f56091d4027c13f3a1a2c40fe1abb27edff32122feb4b00cf2bd8a02d5d7483fe41bd6e1557685cf698dff6b190d8b96d537530368750f6af70800d",
      "networkId": 0,
      "chainId": 0
    }
  ]
}