{
  "hash": "0xf2c8b0d18d8a05f1385aefc52b4c7df9a000c4778389bee8428545aefa616236",
  "parentHash": "0xf01620c826cf3ece91efafd5df6f8dbdffd5ff7972950a05cd1c4037bfff3e58",
  "number": 116062,
  "timestamp": 1440067723,
  "nonce": "0x77fd4b2174736e7b",
  "difficulty": 4602685452402,
  "gasLimit": {
    "_hex": "0x2fefd8"
  },
  "gasUsed": {
    "_hex": "0xa410"
  },
  "miner": "0x52bc44d5378309EE2abF1539BF71dE1b7d7bE3b5",
  "extraData": "0x476574682f76312e302e312d39353236303766382f6c696e75782f676f312e34",
  "transactions": [
    {
      "hash": "0x82877ae427a629d06f50d54665bbbc04e8e180635115babc0664a01d4d8fae47",
      "blockHash": "0xf2c8b0d18d8a05f1385aefc52b4c7df9a000c4778389bee8428545aefa616236",
      "blockNumber": 116062,
      "transactionIndex": 0,
      "confirmations": null,
      "from": "0x23f2D0fd3B4C98Fb1698564deB4898275E2e831f",
      "gasPrice": {
        "_hex": "0xd76fba336"
      },
      "gasLimit": {
        "_hex": "0x5208"
      },
      "to": "0x32Be343B94f860124dC4fEe278FDCBD38C102D88",
      "value": {
        "_hex": "0x6120ae6066e30c00"
      },
      "nonce": 21,
      "data": "0x",
      "r": "0xfb0327cb67a496a8d7ea7beb0778d8f8992df9ccd3ddec2d3d7ac7877c53fd8a",
      "s": "0x430aea32a2af31a548ec6128126831930b45c4fa732a4bf647eed0b6721a8ab3",
      "v": 28,
      "creates": null,
      "raw": "0xf86c15850d76fba3368252089432be343b94f860124dc4fee278fdcbd38c102d88886120ae6066e30c00801ca0fb0327cb67a496a8d7ea7beb0778d8f8992df9ccd3ddec2d3d7ac7877c53fd8aa0430aea32a2af31a548ec6128126831930b45c4fa732a4bf647eed0b6721a8ab3",
      "networkId": 0,
      "chainId": 0
    },
    {
      "hash": "0xfaf1022a8ab006dce1cdc83df24f6db2d042ec1b657267d2051da143016c7174",
      "blockHash": "0xf2c8b0d18d8a05f1385aefc52b4c7df9a000c4778389bee8428545aefa616236",
      "blockNumber": 116062,
      "transactionIndex": 1,
      "confirmations": null,
      "from": "0x85987614170a7d08Fbae35c5bc179A0110d1fA2F",
      "gasPrice": {
        "_hex": "0xd0d6d8c31"
      },
      "gasLimit": {
        "_hex": "0x15f90"
      },
      "to": "0xE7943eA110BA6403D0bd0cAbF22Fc91a557d68F6",
      "value": {
        "_hex": "0x2386f26fc10000"
      },
      "nonce": 3,
      "data": "0x",
      "r": "0x0dc09f06c4596a13bd882798f01c53c667f68c3234c47996605ea5916b7db4e1",
      "s": "0x5ecdb2dbca5f4b40a723f4ef823c5154e9f002eef490dee08a226b92b73d7584",
      "v": 28,
      "creates": null,
      "raw": "0xf86c03850d0d6d8c3183015f9094e7943ea110ba6403d0bd0cabf22fc91a557d68f6872386f26fc10000801ca00dc09f06c4596a13bd882798f01c53c667f68c3234c47996605ea5916b7db4e1a05ecdb2dbca5f4b40a723f4ef823c5154e9f002eef490dee08a226b92b73d7584",
      "networkId": 0,
      "chainId": 0
    }
  ]
}