{
  "hash": "0x5361059f2efa119592398de3d5befea75df5ac7564bc836cc70d36e8ea6e3fa1",
  "parentHash": "0xe70ab0889b3afba9ee7defa04f034a4c0a174c3d05012648868e6ce5fbd90625",
  "number": 85690,
  "timestamp": 1439567299,
  "nonce": "0xf402d52348c85d6e",
  "difficulty": 2785426872079,
  "gasLimit": {
    "_hex": "0x2fefd8"
  },
  "gasUsed": {
    "_hex": "0xa8d8"
  },
  "miner": "0xA21Ba94e45f0E168dA824fC67aC9cb5Cb577a8aF",
  "extraData": "0x",
  "transactions": [
    {
      "hash": "0xdd7760d4f319d97c6efcfac6c07c7440fa7b037cd8dc5aef9a83916b7c0dd0f9",
      "blockHash": "0x5361059f2efa119592398de3d5befea75df5ac7564bc836cc70d36e8ea6e3fa1",
      "blockNumber": 85690,
      "transactionIndex": 0,
      "confirmations": null,
      "from": "0xCBa25C7a503cc8e0d04971Ca05c762f9b762b48b",
      "gasPrice": {
        "_hex": "0x110c8f7d8de"
      },
      "gasLimit": {
        "_hex": "0xc350"
      },
      "to": "0x2910543Af39abA0Cd09dBb2D50200b3E800A63D2",
      "value": {
        "_hex": "0x14d1120d7b1600000"
      },
      "nonce": 1,
      "data": "0x454e55463439525547",
      "r": "0xc06d15758d939796a17e8ae668552eb947d1d6b1cf8dd78c5c28da6a400f589c",
      "s": "0xe3b0aeee10ffe83592d65436d8eacc48bbbbe3670f1fd13f03ce7b82264de5cc",
      "v": 28,
      "creates": null,
      "raw": "0xf87701860110c8f7d8de82c350942910543af39aba0cd09dbb2d50200b3e800a63d289014d1120d7b160000089454e554634395255471ca0c06d15758d939796a17e8ae668552eb947d1d6b1cf8dd78c5c28da6a400f589ca0e3b0aeee10ffe83592d65436d8eacc48bbbbe3670f1fd13f03ce7b82264de5cc",
      "networkId": 0,
      "chainId": 0
    },
    {
      "hash": "0x4f1c8a299edbb50137513000ca2bac2551f38c3d0ec1376c654ec881141b84b3",
      "blockHash": "0x5361059f2efa119592398de3d5befea75df5ac7564bc836cc70d36e8ea6e3fa1",
      "blockNumber": 85690,
      "transactionIndex": 1,
      "confirmations": null,
      "from": "0x3B4100e30a73b0C734B18Ffa8426d19B19312F1A",
      "gasPrice": {
        "_hex": "0x110c8f7d8de"
      },
      "gasLimit": {
        "_hex": "0xc350"
      },
      "to": "0x2910543Af39abA0Cd09dBb2D50200b3E800A63D2",
      "value": {
        "_hex": "0x8ac7230489e80000"
      },
      "nonce": 0,
      "data": "0x454e52453546394e38",
      "r": "0x151daa9e341277822aadd65b7e10346dd610a175e4d75d8285903d278ca31425",
      "s": "0xc932c5ee426e546a73b426698b34053e3b4639fa492f5e01223aee5f62d0fba5",
      "v": 27,
      "creates": null,
      "raw": "0xf87680860110c8f7d8de82c350942910543af39aba0cd09dbb2d50200b3e800a63d2888ac7230489e8000089454e52453546394e381ba0151daa9e341277822aadd65b7e10346dd610a175e4d75d8285903d278ca31425a0c932c5ee426e546a73b426698b34053e3b4639fa492f5e01223aee5f62d0fba5",
      "networkId": 0,
      "chainId": 0
    }
  ]
}