{
  "hash": "0x17c45c513e5ce9a11f27b65ac97b00f85a0b58f6f08456403a8220fd4269cb0f",
  "parentHash": "0xb6a0acbe55d0f878fa9b262a19b86824852032200181fedbc19e33fc6fcd4fdd",
  "number": 121723,
  "timestamp": 1440181491,
  "nonce": "0x4ee47586b2b692e6",
  "difficulty": 4490837904929,
  "gasLimit": {
    "_hex": "0x2fefd8"
  },
  "gasUsed": {
    "_hex": "0xa410"
  },
  "miner": "0x52bc44d5378309EE2abF1539BF71dE1b7d7bE3b5",
  "extraData": "0xd783010002844765746887676f312e342e32856c696e7578",
  "transactions": [
    {
      "hash": "0x50d28e16f02c66d33d613690d12a29e90c89114c783a65c9bd56b521662341dd",
      "blockHash": "0x17c45c513e5ce9a11f27b65ac97b00f85a0b58f6f08456403a8220fd4269cb0f",
      "blockNumber": 121723,
      "transactionIndex": 0,
      "confirmations": null,
      "from": "0x63738Ec4C9adec404749B5747F3bbE2147de632F",
      "gasPrice": {
        "_hex": "0xd050c1fb8"
      },
      "gasLimit": {
        "_hex": "0x15f90"
      },
      "to": "0x557C2806B6ceA65a66F415bb2Ed1ce897B340745",
      "value": {
        "_hex": "0x8ac7230489e80000"
      },
      "nonce": 67,
      "data": "0x",
      "r": "0x85179aa1146dae8f485fff59852720a70fe78b0ae218a0ef2d836cd46d6c48c3",
      "s": "0x15c305e457af3f02bb00b23d8931dd509c5356bd4d0b55c68a7137e56e740227",
      "v": 27,
      "creates": null,
      "raw": "0xf86d43850d050c1fb883015f9094557c2806b6cea65a66f415bb2ed1ce897b340745888ac7230489e80000801ba085179aa1146dae8f485fff59852720a70fe78b0ae218a0ef2d836cd46d6c48c3a015c305e457af3f02bb00b23d8931dd509c5356bd4d0b55c68a7137e56e740227",
      "networkId": 0,
      "chainId": 0
    },
    {
      "hash": "0x45a15f924096829980fe26a03a6f0cbe22b9a8f417ecea90fa9a2bedcf94f8ca",
      "blockHash": "0x17c45c513e5ce9a11f27b65ac97b00f85a0b58f6f08456403a8220fd4269cb0f",
      "blockNumber": 121723,
      "transactionIndex": 1,
      "confirmations": null,
      "from": "0x63738Ec4C9adec404749B5747F3bbE2147de632F",
      "gasPrice": {
        "_hex": "0xcd60b15fc"
      },
      "gasLimit": {
        "_hex": "0x15f90"
      },
      "to": "0x557C2806B6ceA65a66F415bb2Ed1ce897B340745",
      "value": {
        "_hex": "0x8ac7230489e80000"
      },
      "nonce": 68,
      "data": "0x",
      "r": "0x040791149163821096078ce7000917ec939186e2097b897a1162eb5511fab9dc",
      "s": "0x00ad920d7bbf8f051589fb924043a3f1e459f02a00201536c8601f7279edf07a",
      "v": 27,
      "creates": null,
      "raw": "0xf86c44850cd60b15fc83015f9094557c2806b6cea65a66f415bb2ed1ce897b340745888ac7230489e80000801ba0040791149163821096078ce7000917ec939186e2097b897a1162eb5511fab9dc9fad920d7bbf8f051589fb924043a3f1e459f02a00201536c8601f7279edf07a",
      "networkId": 0,
      "chainId": 0
    }
  ]
}