{
  "hash": "0xfe8a57a76c28bffd52c099125b7092db43bf88ea076cddc33d8fe1e0ce33dcee",
  "parentHash": "0xd1f988332a887fd7c10b22be3fd40bfe895d906f1a21395c8373ce6846c3e74d",
  "number": 112836,
  "timestamp": 1440013993,
  "nonce": "0xced73376bb47bca9",
  "difficulty": 4436718907342,
  "gasLimit": {
    "_hex": "0x2fefd8"
  },
  "gasUsed": {
    "_hex": "0x5208"
  },
  "miner": "0x007f7f58D3eb5b7510A301eCC749FC1fCDDBE14D",
  "extraData": "0x476574682f76312e302e312f77696e646f77732f676f312e342e32",
  "transactions": [
    {
      "hash": "0x881bf3c377e66704acffb897a4524244979e8ade5ed29898be58554f16594aea",
      "blockHash": "0xfe8a57a76c28bffd52c099125b7092db43bf88ea076cddc33d8fe1e0ce33dcee",
      "blockNumber": 112836,
      "transactionIndex": 0,
      "confirmations": null,
      "from": "0x32Be343B94f860124dC4fEe278FDCBD38C102D88",
      "gasPrice": {
        "_hex": "0xd61baaf90"
      },
      "gasLimit": {
        "_hex": "0x5208"
      },
      "to": "0xcf1Ff05a6E5c3E328dDfEB4C867DD56F26CF47D9",
      "value": {
        "_hex": "0x75af5e053fca4000"
      },
      "nonce": 1348,
      "data": "0x",
      "r": "0x3ee4e0cd701dc3c68c828df0dcf8b29e569aa1ecd0a19bdcbd6cd8cd4c37abbc",
      "s": "0x1b836c1b6121824fbba6b8a515d515aa3acba93d8f6b571d7859eab8bda5322e",
      "v": 27,
      "creates": null,
      "raw": "0xf86e820544850d61baaf9082520894cf1ff05a6e5c3e328ddfeb4c867dd56f26cf47d98875af5e053fca4000801ba03ee4e0cd701dc3c68c828df0dcf8b29e569aa1ecd0a19bdcbd6cd8cd4c37abbca01b836c1b6121824fbba6b8a515d515aa3acba93d8f6b571d7859eab8bda5322e",
      "networkId": 0,
      "chainId": 0
    }
  ]
}