{
  "hash": "0xffdc99c7bddd9ae7ba52ce062167ada151af2e7b86929221d022419123c1bdf0",
  "parentHash": "0x7e8c0846e7d8cd5d120c8fc1dce41793e393f8febd9c0e820058c32e86fd44f1",
  "number": 105678,
  "timestamp": 1439891813,
  "nonce": "0x0e3491e9c13a247c",
  "difficulty": 4388772905769,
  "gasLimit": {
    "_hex": "0x2fefd8"
  },
  "gasUsed": {
    "_hex": "0x20fc6"
  },
  "miner": "0x55bAf64fc9eAccFFd7Cc643BB61142E1C6ac093e",
  "extraData": "0x",
  "transactions": [
    {
      "hash": "0x4f4d432689b56d2434c0e332c3e91aecb335e549583b1d8b770ddbfdfb60105f",
      "blockHash": "0xffdc99c7bddd9ae7ba52ce062167ada151af2e7b86929221d022419123c1bdf0",
      "blockNumber": 105678,
      "transactionIndex": 0,
      "confirmations": null,
      "from": "0x412a68f6C645559cC977Fc4964047a201d1bb0e2",
      "gasPrice": {
        "_hex": "0xd46b4e7fc"
      },
      "gasLimit": {
        "_hex": "0x249f0"
      },
      "to": "0xE28e72FCf78647ADCe1F1252F240bbfaebD63BcC",
      "value": {
        "_hex": "0x2b5e3af16b1880000"
      },
      "nonce": 3,
      "data": "0x45466f3a",
      "r": "0x8cafa9ecbdfa4e7651a717c0994a5549bb36cbaa1caec2637af278b7bf9fcf23",
      "s": "0x5eab60771601f3505f82272cb47fa9f89d1331565ead2931b0c0d3edbc472efc",
      "v": 27,
      "creates": null,
      "raw": "0xf87203850d46b4e7fc830249f094e28e72fcf78647adce1f1252f240bbfaebd63bcc8902b5e3af16b18800008445466f3a1ba08cafa9ecbdfa4e7651a717c0994a5549bb36cbaa1caec2637af278b7bf9fcf23a05eab60771601f3505f82272cb47fa9f89d1331565ead2931b0c0d3edbc472efc",
      "networkId": 0,
      "chainId": 0
    },
    {
      "hash": "0x822ddb7c85a7aed80e29f5e54e3644b41db87ee16e0099f33d53d68537ea10c7",
      "blockHash": "0xffdc99c7bddd9ae7ba52ce062167ada151af2e7b86929221d022419123c1bdf0",
      "blockNumber": 105678,
      "transactionIndex": 1,
      "confirmations": null,
      "from": "0xa6BDc31c431B8F97848c9D60cbbe9660dc450eB7",
      "gasPrice": {
        "_hex": "0xcda8dedf1"
      },
      "gasLimit": {
        "_hex": "0x5208"
      },
      "to": "0x32Be343B94f860124dC4fEe278FDCBD38C102D88",
      "value": {
        "_hex": "0x456823c3c96e9c00"
      },
      "nonce": 174,
      "data": "0x",
      "r": "0x49459ea71c1912ee9576e2d79acda4ba6b59afa72f4c492c7c4020a4f52a404b",
      "s": "0x2f34c8d9e8d9275338eaf2f39c30040a7eaff2b9a638145782a8da25ea545c0a",
      "v": 27,
      "creates": null,
      "raw": "0xf86d81ae850cda8dedf18252089432be343b94f860124dc4fee278fdcbd38c102d8888456823c3c96e9c00801ba049459ea71c1912ee9576e2d79acda4ba6b59afa72f4c492c7c4020a4f52a404ba02f34c8d9e8d9275338eaf2f39c30040a7eaff2b9a638145782a8da25ea545c0a",
      "networkId": 0,
      "chainId": 0
    }
  ]
}