{
  "hash": "0xd06b88fe3a91d5540d37266db41533ce3d5a30a279ce81a0210605accf80d7a8",
  "parentHash": "0x42da5f80d69b8d8323539f28ca2c797526247a7b04078a9d2b6c84c7440bdaf6",
  "number": 109387,
  "timestamp": 1439955657,
  "nonce": "0xa241d9fd58035de9",
  "difficulty": 4475540171800,
  "gasLimit": {
    "_hex": "0x2fefd8"
  },
  "gasUsed": {
    "_hex": "0xa410"
  },
  "miner": "0xe64D681b0eBCa2997D5f35e72EbC7777973299D7",
  "extraData": "0x",
  "transactions": [
    {
      "hash": "0x8b920463e09da9efe168456aac70eafaff99b7a7657e63c2662ed5a70a72a831",
      "blockHash": "0xd06b88fe3a91d5540d37266db41533ce3d5a30a279ce81a0210605accf80d7a8",
      "blockNumber": 109387,
      "transactionIndex": 0,
      "confirmations": null,
      "from": "0xc15fa6D616245a5c7B7D75A6dFDcA10C0250BD2B",
      "gasPrice": {
        "_hex": "0xdeb4cd259"
      },
      "gasLimit": {
        "_hex": "0x15f90"
      },
      "to": "0xdeE4977F74E6Aef6D627191c9A45D2627e331150",
      "value": {
        "_hex": "0x1158e460913d00000"
      },
      "nonce": 14,
      "data": "0x",
      "r": "0x68d08d8833243eb096d66146cc86b506add562db114cbd7575aa750339c3e110",
      "s": "0x6931bd09313fa46bfb05339364e4acf8e612b57b21468f1f8bfb3ce43a4cd433",
      "v": 27,
      "creates": null,
      "raw": "0xf86e0e850deb4cd25983015f9094dee4977f74e6aef6d627191c9a45d2627e3311508901158e460913d00000801ba068d08d8833243eb096d66146cc86b506add562db114cbd7575aa750339c3e110a06931bd09313fa46bfb05339364e4acf8e612b57b21468f1f8bfb3ce43a4cd433",
      "networkId": 0,
      "chainId": 0
    },
    {
      "hash": "0xd0735574b19a2e9294e6174988651ba3a2d6f1cab34029db96e8435bbb31ed31",
      "blockHash": "0xd06b88fe3a91d5540d37266db41533ce3d5a30a279ce81a0210605accf80d7a8",
      "blockNumber": 109387,
      "transactionIndex": 1,
      "confirmations": null,
      "from": "0xEF247E639d49461D25F57e9362CadE3120910Ce0",
      "gasPrice": {
        "_hex": "0xd30c2e035"
      },
      "gasLimit": {
        "_hex": "0x15f90"
      },
      "to": "0xF87481A262E993a75F791E7859E71BaC36A606Eb",
      "value": {
        "_hex": "0x1a055690d9db80000"
      },
      "nonce": 43,
      "data": "0x",
      "r": "0xe5696c42dc6206a2b32946e010727e9d81b08a4726181f04eb1e2b608cc24c0c",
      "s": "0x2d4489b50514fd6e616f4ccdb8e60fbc3cb08376c8633e2cf9ab0fbbc46089d8",
      "v": 28,
      "creates": null,
      "raw": "0xf86e2b850d30c2e03583015f9094f87481a262e993a75f791e7859e71bac36a606eb8901a055690d9db80000801ca0e5696c42dc6206a2b32946e010727e9d81b08a4726181f04eb1e2b608cc24c0ca02d4489b50514fd6e616f4ccdb8e60fbc3cb08376c8633e2cf9ab0fbbc46089d8",
      "networkId": 0,
      "chainId": 0
    }
  ]
}