{
  "hash": "0x1c9c99cb1108c99aeee561bc529ed42a749dc19075482458d55cfee06010b1b3",
  "parentHash": "0xbeab994ec49051477826f72be3cef248d4b52471634ced64d97ebd8add3ed17e",
  "number": 77180,
  "timestamp": 1439433089,
  "nonce": "0x0dedbd1de97c74d0",
  "difficulty": 2231690434432,
  "gasLimit": {
    "_hex": "0x2fefd8"
  },
  "gasUsed": {
    "_hex": "0x5208"
  },
  "miner": "0xf927a40C8B7F6E07c5af7FA2155B4864a4112B13",
  "extraData": "0x",
  "transactions": [
    {
      "hash": "0x0601ee8848f7998941aace9e5cc9f9d07209e8939c135c45ecc34de2c9b73f77",
      "blockHash": "0x1c9c99cb1108c99aeee561bc529ed42a749dc19075482458d55cfee06010b1b3",
      "blockNumber": 77180,
      "transactionIndex": 0,
      "confirmations": null,
      "from": "0x120A270bbC009644e35F0bB6ab13f95b8199c4ad",
      "gasPrice": {
        "_hex": "0xcb5071ea3"
      },
      "gasLimit": {
        "_hex": "0x3d090"
      },
      "to": "0x548303a76b24d477704da08a513179F39AE78C7c",
      "value": {
        "_hex": "0x52764241387d6e800"
      },
      "nonce": 320,
      "data": "0x",
      "r": "0x138dee6c061e0742e2b97dee9eb136c12971b7a71262fcc1a2a5cc88f56ae0da",
      "s": "0x3069a1a9a1596e51571afa57649baf1c975014b28e5c49f2ae745158c3948b8c",
      "v": 27,
      "creates": null,
      "raw": "0xf870820140850cb5071ea38303d09094548303a76b24d477704da08a513179f39ae78c7c89052764241387d6e800801ba0138dee6c061e0742e2b97dee9eb136c12971b7a71262fcc1a2a5cc88f56ae0daa03069a1a9a1596e51571afa57649baf1c975014b28e5c49f2ae745158c3948b8c",
      "networkId": 0,
      "chainId": 0
    }
  ]
}