{
  "hash": "0x4b3d357c4c76963979a62ec7b8e4fad0ce2ec3489ec1f26b67301c44592ab435",
  "parentHash": "0x6046c8dda83542136434287fc86448bfbeb738ad4c7ddf4d74db017d5751e067",
  "number": 89716,
  "timestamp": 1439627993,
  "nonce": "0x1688f73bf08c7ada",
  "difficulty": 3328867486678,
  "gasLimit": {
    "_hex": "0x2fefd8"
  },
  "gasUsed": {
    "_hex": "0x5208"
  },
  "miner": "0xd8F5f0458bDA93A6d2ffA08cee7c1A0CbeA410aE",
  "extraData": "0x476574682f76312e302e312f77696e646f77732f676f312e342e32",
  "transactions": [
    {
      "hash": "0x02d9ea5b4bf3ee3449bff5d1eae40f3f9125d29c52d0612d97ed88883eb4fda0",
      "blockHash": "0x4b3d357c4c76963979a62ec7b8e4fad0ce2ec3489ec1f26b67301c44592ab435",
      "blockNumber": 89716,
      "transactionIndex": 0,
      "confirmations": null,
      "from": "0xa21E0cF3793cf75D63930696158E4474aF8383bA",
      "gasPrice": {
        "_hex": "0xd7d40ace3"
      },
      "gasLimit": {
        "_hex": "0x15f90"
      },
      "to": "0x556ca325C21e450b2aFf86D9c8eF0Fa371971c97",
      "value": {
        "_hex": "0x3bd913e6c1df40000"
      },
      "nonce": 11,
      "data": "0x",
      "r": "0xc8e697e45df555ff479cd3ee0434bf800c3262099eaf747734844e93619610c2",
      "s": "0x64add383729c608c57e3ba639523d6711a749910f4e5e64aa7dc7df8c4723e86",
      "v": 28,
      "creates": null,
      "raw": "0xf86e0b850d7d40ace383015f9094556ca325c21e450b2aff86d9c8ef0fa371971c978903bd913e6c1df40000801ca0c8e697e45df555ff479cd3ee0434bf800c3262099eaf747734844e93619610c2a064add383729c608c57e3ba639523d6711a749910f4e5e64aa7dc7df8c4723e86",
      "networkId": 0,
      "chainId": 0
    }
  ]
}