{
  "hash": "0x4cdfb40bd6da9cf4eeb03c91f7f1e4ab47c5ab21b82734adfbf5de4185f14fa4",
  "parentHash": "0xd01d44ca1a4dd052f6b74eed93caceff2b0210a10601e7290a7ed587895d0380",
  "number": 48631,
  "timestamp": 1438960093,
  "nonce": "0xde8511a709b08a6c",
  "difficulty": 1472157512260,
  "gasLimit": {
    "_hex": "0x1afc0"
  },
  "gasUsed": {
    "_hex": "0xa674"
  },
  "miner": "0xC0EdE9a639d107851462c15f2fb729c7c61bBf62",
  "extraData": "0x476574682f76312e302e312f6c696e75782f676f312e342e32",
  "transactions": [
    {
      "hash": "0x6eafe424f653d455299e1be4844bde466d41b55635fb741f6bd176ba734cab83",
      "blockHash": "0x4cdfb40bd6da9cf4eeb03c91f7f1e4ab47c5ab21b82734adfbf5de4185f14fa4",
      "blockNumber": 48631,
      "transactionIndex": 0,
      "confirmations": null,
      "from": "0xddf3AD76353810be6a89d731b787F6F17188612B",
      "gasPrice": {
        "_hex": "0xdff0d3fc5"
      },
      "gasLimit": {
        "_hex": "0x15f90"
      },
      "to": "0x2910543Af39abA0Cd09dBb2D50200b3E800A63D2",
      "value": {
        "_hex": "0x1158e460913d00000"
      },
      "nonce": 0,
      "data": "0x454e4e475639304647",
      "r": "0x77675f69a85aaf03afddb50ed7fd176cbde023ed542a474ce9f68c2184d2aafc",
      "s": "0x050316b7af5a2475abd368ce390f6370a1783b53ffcdd3b56f61077c90142e6a",
      "v": 28,
      "creates": null,
      "raw": "0xf87780850dff0d3fc583015f90942910543af39aba0cd09dbb2d50200b3e800a63d28901158e460913d0000089454e4e4756393046471ca077675f69a85aaf03afddb50ed7fd176cbde023ed542a474ce9f68c2184d2aafca0050316b7af5a2475abd368ce390f6370a1783b53ffcdd3b56f61077c90142e6a",
      "networkId": 0,
      "chainId": 0
    },
    {
      "hash": "0x8e340219d3c483d0bfb33d3d54d423b265f8c9e509bda7df3310d04ff4d0bb3b",
      "blockHash": "0x4cdfb40bd6da9cf4eeb03c91f7f1e4ab47c5ab21b82734adfbf5de4185f14fa4",
      "blockNumber": 48631,
      "transactionIndex": 1,
      "confirmations": null,
      "from": "0xe6A7a1d47ff21B6321162AEA7C6CB457D5476Bca",
      "gasPrice": {
        "_hex": "0xd7ce96bb3"
      },
      "gasLimit": {
        "_hex": "0x55f0"
      },
      "to": "0xA542d5046D885E5fC7Dc4006ADb648C5710Ff0ED",
      "value": {
        "_hex": "0x70b9ae3d3fc96ee0"
      },
      "nonce": 243,
      "data": "0x",
      "r": "0x78fb456dfa0cfd0112c0997634f5f372f6b1efad0336edc482e542df4b0726c6",
      "s": "0x18afe8d176dd47295575c33d0ceb08212b82c9f3fdc6e690b5cd0d18e2cd2be8",
      "v": 28,
      "creates": null,
      "raw": "0xf86d81f3850d7ce96bb38255f094a542d5046d885e5fc7dc4006adb648c5710ff0ed8870b9ae3d3fc96ee0801ca078fb456dfa0cfd0112c0997634f5f372f6b1efad0336edc482e542df4b0726c6a018afe8d176dd47295575c33d0ceb08212b82c9f3fdc6e690b5cd0d18e2cd2be8",
      "networkId": 0,
      "chainId": 0
    }
  ]
}