{
  "hash": "0x2a20761c8308a6256a9061ad947fafd0062f7bcb6a7639f238b601ce8ddc94d4",
  "parentHash": "0x437f9086ef0a41d48a654a45cbd2c3135a8ab6f1be593ed2ccd7ae71c31960ec",
  "number": 119903,
  "timestamp": 1440150591,
  "nonce": "0xdaf5deff6746aeb8",
  "difficulty": 4422173245866,
  "gasLimit": {
    "_hex": "0x2fefd8"
  },
  "gasUsed": {
    "_hex": "0x5208"
  },
  "miner": "0xc15fa6D616245a5c7B7D75A6dFDcA10C0250BD2B",
  "extraData": "0x",
  "transactions": [
    {
      "hash": "0xcea49ad7c82a7ef9d2c4cbc4e19407d114f0c0bd45ccdf58dc8c5430d0a8bf5a",
      "blockHash": "0x2a20761c8308a6256a9061ad947fafd0062f7bcb6a7639f238b601ce8ddc94d4",
      "blockNumber": 119903,
      "transactionIndex": 0,
      "confirmations": null,
      "from": "0xb1abce2918E21ddb93AA452731a12672A3d9F75a",
      "gasPrice": {
        "_hex": "0xba43b7400"
      },
      "gasLimit": {
        "_hex": "0x5208"
      },
      "to": "0x32Be343B94f860124dC4fEe278FDCBD38C102D88",
      "value": {
        "_hex": "0x455fd68a17f06000"
      },
      "nonce": 203,
      "data": "0x",
      "r": "0xeaddfbe59bd378d0aa3eefa6befc80fb6af72eba41230e1a1e8a94acba57193e",
      "s": "0x306926683b073933377f4e6a3def16829c0b319a136263a7e6e0c8cff6746ada",
      "v": 27,
      "creates": null,
      "raw": "0xf86d81cb850ba43b74008252089432be343b94f860124dc4fee278fdcbd38c102d8888455fd68a17f06000801ba0eaddfbe59bd378d0aa3eefa6befc80fb6af72eba41230e1a1e8a94acba57193ea0306926683b073933377f4e6a3def16829c0b319a136263a7e6e0c8cff6746ada",
      "networkId": 0,
      "chainId": 0
    }
  ]
}