{
  "hash": "0x86ee4ffa3ea91499b80d98e13093d307269ab70720dec6ae01a6a2119ac10a26",
  "parentHash": "0xaf5311c674bb623fe616dabfe0d3a3a782fdbdb7505fd7e57b8515015c35afd4",
  "number": 120359,
  "timestamp": 1440158563,
  "nonce": "0xb2f32cee9727bf55",
  "difficulty": 4417616679227,
  "gasLimit": {
    "_hex": "0x2fefd8"
  },
  "gasUsed": {
    "_hex": "0xf618"
  },
  "miner": "0x52bc44d5378309EE2abF1539BF71dE1b7d7bE3b5",
  "extraData": "0xd783010002844765746887676f312e342e32856c696e7578",
  "transactions": [
    {
      "hash": "0xc2b3a4f4a309679f760ced490fe6a837ead98ec815f14b469f9bdbb321b1a1c9",
      "blockHash": "0x86ee4ffa3ea91499b80d98e13093d307269ab70720dec6ae01a6a2119ac10a26",
      "blockNumber": 120359,
      "transactionIndex": 0,
      "confirmations": null,
      "from": "0x29Ab575850dCEf127cd8D646fB3c208b3860C2F0",
      "gasPrice": {
        "_hex": "0xd7d40ace3"
      },
      "gasLimit": {
        "_hex": "0x15f90"
      },
      "to": "0xA10CDF70bc138605c39F8651A78485Fe4F1C3811",
      "value": {
        "_hex": "0x15af1d78b58c40000"
      },
      "nonce": 9,
      "data": "0x",
      "r": "0xe19c64ad7816f3492c78e1f2545e7cb27591ccd25335591801b2731ae2dfd043",
      "s": "0x66bea7c7876687d27f2a48c6305919bf8f2405579427bc5dee36e3b28c3a595b",
      "v": 28,
      "creates": null,
      "raw": "0xf86e09850d7d40ace383015f9094a10cdf70bc138605c39f8651a78485fe4f1c381189015af1d78b58c40000801ca0e19c64ad7816f3492c78e1f2545e7cb27591ccd25335591801b2731ae2dfd043a066bea7c7876687d27f2a48c6305919bf8f2405579427bc5dee36e3b28c3a595b",
      "networkId": 0,
      "chainId": 0
    },
    {
      "hash": "0x9147fefc23e5b372a27b690071492be8ad6bd6da510f708e60a13a7d9c108454",
      "blockHash": "0x86ee4ffa3ea91499b80d98e13093d307269ab70720dec6ae01a6a2119ac10a26",
      "blockNumber": 120359,
      "transactionIndex": 1,
      "confirmations": null,
      "from": "0xEF247E639d49461D25F57e9362CadE3120910Ce0",
      "gasPrice": {
        "_hex": "0xd28ddb2f8"
      },
      "gasLimit": {
        "_hex": "0x15f90"
      },
      "to": "0xF87481A262E993a75F791E7859E71BaC36A606Eb",
      "value": {
        "_hex": "0x5188315f776b80000"
      },
      "nonce": 48,
      "data": "0x",
      "r": "0xc488211afa5ca56ea640226c5902ea4fff752a52f9f4bcd0b55cb1323862a63e",
      "s": "0x3fbc1d743b5ca889f1bbdb71840c8f88e6a264d4ae2d6a791e156d00f49a70bc",
      "v": 27,
      "creates": null,
      "raw": "0xf86e30850d28ddb2f883015f9094f87481a262e993a75f791e7859e71bac36a606eb8905188315f776b80000801ba0c488211afa5ca56ea640226c5902ea4fff752a52f9f4bcd0b55cb1323862a63ea03fbc1d743b5ca889f1bbdb71840c8f88e6a264d4ae2d6a791e156d00f49a70bc",
      "networkId": 0,
      "chainId": 0
    },
    {
      "hash": "0x7c2a04c6ca4693b53887e1c36b4f77953c8e98bba774257be9d1cff53291edc7",
      "blockHash": "0x86ee4ffa3ea91499b80d98e13093d307269ab70720dec6ae01a6a2119ac10a26",
      "blockNumber": 120359,
      "transactionIndex": 2,
      "confirmations": null,
      "from": "0xC272293AD54739bF7aAdd8924Aa3d712D672Eed1",
      "gasPrice": {
        "_hex": "0xba43b7400"
      },
      "gasLimit": {
        "_hex": "0x15f90"
      },
      "to": "0x602b95F91754f9Fc07750f7cE2dD2b5587F29E9B",
      "value": {
        "_hex": "0x2d79883d2000"
      },
      "nonce": 10,
      "data": "0x",
      "r": "0x02cc8f2881b71453fa82fbeaacd3c4b4f9ec0e215738feb4d8d1b287245615cf",
      "s": "0x559d8cbfb8d66e23c05c216b808f39bd5dfafb399708925bf1d30ec9a47cab19",
      "v": 28,
      "creates": null,
      "raw": "0xf86b0a850ba43b740083015f9094602b95f91754f9fc07750f7ce2dd2b5587f29e9b862d79883d2000801ca002cc8f2881b71453fa82fbeaacd3c4b4f9ec0e215738feb4d8d1b287245615cfa0559d8cbfb8d66e23c05c216b808f39bd5dfafb399708925bf1d30ec9a47cab19",
      "networkId": 0,
      "chainId": 0
    }
  ]
}