{
  "hash": "0x1d22a7d23617dfe1eef801dfe06453f01313158751eb09ad275e473c0683dbdc",
  "parentHash": "0x9942c5e138c96ec411066f96c3e0a386d9f8cdf12422999d67037f5ee17e5d91",
  "number": 115702,
  "timestamp": 1440061820,
  "nonce": "0x8b220b930928c89f",
  "difficulty": 4589417706850,
  "gasLimit": {
    "_hex": "0x2fefd8"
  },
  "gasUsed": {
    "_hex": "0xf618"
  },
  "miner": "0xe343732D1eA6921c73683B947937AC902b77aD4f",
  "extraData": "0x476574682f76312e302e312f6c696e75782f676f312e342e32",
  "transactions": [
    {
      "hash": "0xec821eaf59fa1c07e43b27fd6668f1ce98cd49681a50aa356cc667260f4fd275",
      "blockHash": "0x1d22a7d23617dfe1eef801dfe06453f01313158751eb09ad275e473c0683dbdc",
      "blockNumber": 115702,
      "transactionIndex": 0,
      "confirmations": null,
      "from": "0x1332996a46dcBBE02f9cF164Dfc153aB976a9766",
      "gasPrice": {
        "_hex": "0xba43b7400"
      },
      "gasLimit": {
        "_hex": "0x5208"
      },
      "to": "0xC47Aaa860008be6f65B58c6C6E02a84e666EfE31",
      "value": {
        "_hex": "0xb92fcce74430a7a0"
      },
      "nonce": 14,
      "data": "0x",
      "r": "0xa10cb37248074d64389eb6b186353e0e493960ac98fdd983b3a2817c93327a0a",
      "s": "0x55a18b293fc73b91c39b7397dff414e10e379c49de4a3cfd49358875db4a7071",
      "v": 27,
      "creates": null,
      "raw": "0xf86c0e850ba43b740082520894c47aaa860008be6f65b58c6c6e02a84e666efe3188b92fcce74430a7a0801ba0a10cb37248074d64389eb6b186353e0e493960ac98fdd983b3a2817c93327a0aa055a18b293fc73b91c39b7397dff414e10e379c49de4a3cfd49358875db4a7071",
      "networkId": 0,
      "chainId": 0
    },
    {
      "hash": "0x32aba97319441d370ac4b7a82e2e4746e67fea231f5a19e1886e53bade2708e0",
      "blockHash": "0x1d22a7d23617dfe1eef801dfe06453f01313158751eb09ad275e473c0683dbdc",
      "blockNumber": 115702,
      "transactionIndex": 1,
      "confirmations": null,
      "from": "0xc9f1625E65Cda7A2aE5ea1EdF0107872A1baAC99",
      "gasPrice": {
        "_hex": "0xba43b7400"
      },
      "gasLimit": {
        "_hex": "0x5208"
      },
      "to": "0xC47Aaa860008be6f65B58c6C6E02a84e666EfE31",
      "value": {
        "_hex": "0xc499ad43e01c2200"
      },
      "nonce": 3,
      "data": "0x",
      "r": "0xe2cf4883485d2bf0989f746487a642331af064b586213a59f4cc68cbd70513a4",
      "s": "0x059f37d52bbae0ba20566c5829a5c860bbd096a556e84073bb1e1998a85d49bc",
      "v": 27,
      "creates": null,
      "raw": "0xf86c03850ba43b740082520894c47aaa860008be6f65b58c6c6e02a84e666efe3188c499ad43e01c2200801ba0e2cf4883485d2bf0989f746487a642331af064b586213a59f4cc68cbd70513a4a0059f37d52bbae0ba20566c5829a5c860bbd096a556e84073bb1e1998a85d49bc",
      "networkId": 0,
      "chainId": 0
    },
    {
      "hash": "0xf0c7b44d7bbbd56b2a287eafd97c43ba6897d14c9b22741b3c94a9fb4f9fed98",
      "blockHash": "0x1d22a7d23617dfe1eef801dfe06453f01313158751eb09ad275e473c0683dbdc",
      "blockNumber": 115702,
      "transactionIndex": 2,
      "confirmations": null,
      "from": "0xC96Bd2Aa7AcB234ecA4E38E33bF2C080e7680FA5",
      "gasPrice": {
        "_hex": "0xba43b7400"
      },
      "gasLimit": {
        "_hex": "0x5208"
      },
      "to": "0xC47Aaa860008be6f65B58c6C6E02a84e666EfE31",
      "value": {
        "_hex": "0x92609f29effa3790"
      },
      "nonce": 7,
      "data": "0x",
      "r": "0xd51e3f0d762f0c01bb358ed62745ea13d36b21afb8d93bcf88e8c72748a70344",
      "s": "0x33d9825f77786dedf5e5d050739e4302f243784782d8d422893d4f7de5eafa90",
      "v": 27,
      "creates": null,
      "raw": "0xf86c07850ba43b740082520894c47aaa860008be6f65b58c6c6e02a84e666efe318892609f29effa3790801ba0d51e3f0d762f0c01bb358ed62745ea13d36b21afb8d93bcf88e8c72748a70344a033d9825f77786dedf5e5d050739e4302f243784782d8d422893d4f7de5eafa90",
      "networkId": 0,
      "chainId": 0
    }
  ]
}