{
  "hash": "0x6810c68e99a7293299b0231c18690662e33bf93a0054def3d672c99f44084db7",
  "parentHash": "0x7fd6b723ac3a238ebeae1c53fab1bb0dcb4654bf5d4571c7b7b7bc12bbf8b34f",
  "number": 61086,
  "timestamp": 1439166504,
  "nonce": "0x44d0fbb0e9f787b8",
  "difficulty": 1727828425809,
  "gasLimit": {
    "_hex": "0x2fefd8"
  },
  "gasUsed": {
    "_hex": "0xddfd"
  },
  "miner": "0x580992B51e3925e23280EfB93d3047C82f17E038",
  "extraData": "0x476574682f76312e302e312f6c696e75782f676f312e342e32",
  "transactions": [
    {
      "hash": "0x0a4adecdcb8a63fec9714ab615e7e2a83b3776df938a46156dde44bfa46bd34f",
      "blockHash": "0x6810c68e99a7293299b0231c18690662e33bf93a0054def3d672c99f44084db7",
      "blockNumber": 61086,
      "transactionIndex": 0,
      "confirmations": null,
      "from": "0xDa4a85f1DA045634C08e33d4857D9e5f0D44327A",
      "gasPrice": {
        "_hex": "0xde76e64c6"
      },
      "gasLimit": {
        "_hex": "0x7a120"
      },
      "to": "0xA327075af2a223A1C83a36aDa1126afE7430f955",
      "value": {
        "_hex": "0x8ac7230489e80000"
      },
      "nonce": 1,
      "data": "0x",
      "r": "0x49b5c27401b1bb6fe8f5de3aa1ec0992f10e60296d7ffe510bdb1bf40b03b340",
      "s": "0x3305175fa776636f69b3e5e5d6801a96828a043e87f2b1c6cfaa401ca6fdecd5",
      "v": 28,
      "creates": null,
      "raw": "0xf86d01850de76e64c68307a12094a327075af2a223a1c83a36ada1126afe7430f955888ac7230489e80000801ca049b5c27401b1bb6fe8f5de3aa1ec0992f10e60296d7ffe510bdb1bf40b03b340a03305175fa776636f69b3e5e5d6801a96828a043e87f2b1c6cfaa401ca6fdecd5",
      "networkId": 0,
      "chainId": 0
    }
  ]
}