{
  "hash": "0xb04d6531e2e7bfd1ec908091891345c421a9d38a1512df3f9ce2b0349bbbcab9",
  "parentHash": "0xbefb8e544a3d026f99a4825d823eb542d579e7b80803885ef60189d91557c33e",
  "number": 84234,
  "timestamp": 1439546779,
  "nonce": "0xd7a68e4281a1821f",
  "difficulty": 2531650782689,
  "gasLimit": {
    "_hex": "0x2fefd8"
  },
  "gasUsed": {
    "_hex": "0x14a84"
  },
  "miner": "0x05f74a38293C914C6B14a39f5d8dEa98f22E4FBA",
  "extraData": "0x",
  "transactions": [
    {
      "hash": "0xa519880d97c1241cdac4671f07de1734f8a570831a94b2b5fd07ebc3ba7c59fb",
      "blockHash": "0xb04d6531e2e7bfd1ec908091891345c421a9d38a1512df3f9ce2b0349bbbcab9",
      "blockNumber": 84234,
      "transactionIndex": 0,
      "confirmations": null,
      "from": "0x1dD77441844Afe9cC18f15D8C77bcCfb655Ee034",
      "gasPrice": {
        "_hex": "0x110c8f7d8de"
      },
      "gasLimit": {
        "_hex": "0xc350"
      },
      "to": "0x2910543Af39abA0Cd09dBb2D50200b3E800A63D2",
      "value": {
        "_hex": "0x44004c09e76a0000"
      },
      "nonce": 1,
      "data": "0x454e52383835464b52",
      "r": "0xe7cbe280087bc00609f44612f47cda11aac57da29a282d002ec944a9b8806bfe",
      "s": "0xe159091309011627b9b2c5d0e0abe15ef76872cd40525abcd2a4a124feccc48a",
      "v": 28,
      "creates": null,
      "raw": "0xf87601860110c8f7d8de82c350942910543af39aba0cd09dbb2d50200b3e800a63d28844004c09e76a000089454e52383835464b521ca0e7cbe280087bc00609f44612f47cda11aac57da29a282d002ec944a9b8806bfea0e159091309011627b9b2c5d0e0abe15ef76872cd40525abcd2a4a124feccc48a",
      "networkId": 0,
      "chainId": 0
    },
    {
      "hash": "0x743bdd0c4177fa2bddb2b212e72d6bc45023b83619ee20e40bafd2424d767bce",
      "blockHash": "0xb04d6531e2e7bfd1ec908091891345c421a9d38a1512df3f9ce2b0349bbbcab9",
      "blockNumber": 84234,
      "transactionIndex": 1,
      "confirmations": null,
      "from": "0x0D4EcC7d750180EBf4A9Df728B6669B5Bceb5E40",
      "gasPrice": {
        "_hex": "0xd6532ebe4"
      },
      "gasLimit": {
        "_hex": "0x5208"
      },
      "to": "0x32Be343B94f860124dC4fEe278FDCBD38C102D88",
      "value": {
        "_hex": "0x455f5050f2768800"
      },
      "nonce": 25,
      "data": "0x",
      "r": "0x49a762c52b4754f9ccaa4b09fd27313be04db6dfdb8dc705b1c6ef4f8f5c07d1",
      "s": "0x6a7e789e678e9c92ccb609a6e5a4de4f71e51b86ce3c9d99f1871e615fcb72c1",
      "v": 28,
      "creates": null,
      "raw": "0xf86c19850d6532ebe48252089432be343b94f860124dc4fee278fdcbd38c102d8888455f5050f2768800801ca049a762c52b4754f9ccaa4b09fd27313be04db6dfdb8dc705b1c6ef4f8f5c07d1a06a7e789e678e9c92ccb609a6e5a4de4f71e51b86ce3c9d99f1871e615fcb72c1",
      "networkId": 0,
      "chainId": 0
    },
    {
      "hash": "0x36af5a463ca9aa2e0759e869e3942e6a7055f783a901d4e2912877344df9cdbb",
      "blockHash": "0xb04d6531e2e7bfd1ec908091891345c421a9d38a1512df3f9ce2b0349bbbcab9",
      "blockNumber": 84234,
      "transactionIndex": 2,
      "confirmations": null,
      "from": "0x34d34F0a638F6991e4E2536F41295DF6E934A646",
      "gasPrice": {
        "_hex": "0xd6532ebe4"
      },
      "gasLimit": {
        "_hex": "0x5208"
      },
      "to": "0x32Be343B94f860124dC4fEe278FDCBD38C102D88",
      "value": {
        "_hex": "0x41e722e2e5de9400"
      },
      "nonce": 7,
      "data": "0x",
      "r": "0xf4b2151269bcb234babda1ab18d9086b084a7723328f995934130c8357411507",
      "s": "0x6334c7f3ef295566e12710eb39e46bf4136aa5be0907d05bbd34606dc1e56456",
      "v": 28,
      "creates": null,
      "raw": "0xf86c07850d6532ebe48252089432be343b94f860124dc4fee278fdcbd38c102d888841e722e2e5de9400801ca0f4b2151269bcb234babda1ab18d9086b084a7723328f995934130c8357411507a06334c7f3ef295566e12710eb39e46bf4136aa5be0907d05bbd34606dc1e56456",
      "networkId": 0,
      "chainId": 0
    },
    {
      "hash": "0xc9c9732d7ef2a9887067162484abcee63d5e60d4d1f3d800b48c0900ec167b32",
      "blockHash": "0xb04d6531e2e7bfd1ec908091891345c421a9d38a1512df3f9ce2b0349bbbcab9",
      "blockNumber": 84234,
      "transactionIndex": 3,
      "confirmations": null,
      "from": "0x5248EfBC7319bd65d436374266765D9727253F12",
      "gasPrice": {
        "_hex": "0xd6532ebe4"
      },
      "gasLimit": {
        "_hex": "0x5208"
      },
      "to": "0x32Be343B94f860124dC4fEe278FDCBD38C102D88",
      "value": {
        "_hex": "0xddc76aeaee46c00"
      },
      "nonce": 3,
      "data": "0x",
      "r": "0x6f8780917dd8a650c65b9e7187b577039b728c986ce57147cf049be59f96067e",
      "s": "0x7adc4e4d55cc885ef45f95fcefe4cb92636496dc83514b424157c062e8987391",
      "v": 27,
      "creates": null,
      "raw": "0xf86c03850d6532ebe48252089432be343b94f860124dc4fee278fdcbd38c102d88880ddc76aeaee46c00801ba06f8780917dd8a650c65b9e7187b577039b728c986ce57147cf049be59f96067ea07adc4e4d55cc885ef45f95fcefe4cb92636496dc83514b424157c062e8987391",
      "networkId": 0,
      "chainId": 0
    }
  ]
}