{
  "hash": "0x06d64101cfbc04e8d95b605315bfab941c29cba44d353d88055b0f635cf62448",
  "parentHash": "0x03983194a4cbc85a54b089f2c23cf0699c446b023fa1a7e4eecbc67bcd685b3e",
  "number": 83652,
  "timestamp": 1439538558,
  "nonce": "0xfff44934ece036fa",
  "difficulty": 2444363349528,
  "gasLimit": {
    "_hex": "0x2fefd8"
  },
  "gasUsed": {
    "_hex": "0x5208"
  },
  "miner": "0xf927a40C8B7F6E07c5af7FA2155B4864a4112B13",
  "extraData": "0x",
  "transactions": [
    {
      "hash": "0x3d4b49d20813028b85261bbbed428c9f0c7aebdfd4a66264b0c0caa9c300abc3",
      "blockHash": "0x06d64101cfbc04e8d95b605315bfab941c29cba44d353d88055b0f635cf62448",
      "blockNumber": 83652,
      "transactionIndex": 0,
      "confirmations": null,
      "from": "0x4EFfc71B00ADBF237Dca009fF5E8D0DD9E066FEa",
      "gasPrice": {
        "_hex": "0xd76e98c67"
      },
      "gasLimit": {
        "_hex": "0x5208"
      },
      "to": "0x32Be343B94f860124dC4fEe278FDCBD38C102D88",
      "value": {
        "_hex": "0x455f35bb4eb23c00"
      },
      "nonce": 5,
      "data": "0x",
      "r": "0x35d78623bfc97e528729a6d216ab013689c5877bd1d9f20aca19f348c0323b48",
      "s": "0x6675d57f6fc129d68cf5f6cf2827e0c5abbbaefe3f93e82a8b0be5650f402fde",
      "v": 28,
      "creates": null,
      "raw": "0xf86c05850d76e98c678252089432be343b94f860124dc4fee278fdcbd38c102d8888455f35bb4eb23c00801ca035d78623bfc97e528729a6d216ab013689c5877bd1d9f20aca19f348c0323b48a06675d57f6fc129d68cf5f6cf2827e0c5abbbaefe3f93e82a8b0be5650f402fde",
      "networkId": 0,
      "chainId": 0
    }
  ]
}