{
  "hash": "0x5ee6bba594ea95bb5ded0bb330cf7acf54ff764d34d3175c2e6eed3608a2f664",
  "parentHash": "0xa4886891b21d7894cf809a0098c97af4f7d2f28c159caa34415a980a1368f029",
  "number": 82996,
  "timestamp": 1439528211,
  "nonce": "0x375debf987784ebd",
  "difficulty": 2409006598964,
  "gasLimit": {
    "_hex": "0x2fefd8"
  },
  "gasUsed": {
    "_hex": "0x5413"
  },
  "miner": "0xbb7B8287f3F0a933474a79eAe42CBCa977791171",
  "extraData": "0x476574682f4c5649562f76312e302e312f6c696e75782f676f312e342e32",
  "transactions": [
    {
      "hash": "0xd32d7bb71a16fe38128a2a0fa7cf12891c2ad75ee20d4cfa779aebdc555eaf20",
      "blockHash": "0x5ee6bba594ea95bb5ded0bb330cf7acf54ff764d34d3175c2e6eed3608a2f664",
      "blockNumber": 82996,
      "transactionIndex": 0,
      "confirmations": null,
      "from": "0x1c11Aa45C792e202e9ffDc2F12f99D0d209BEf70",
      "gasPrice": {
        "_hex": "0xcd2c96ad2"
      },
      "gasLimit": {
        "_hex": "0x249f0"
      },
      "to": "0x5EaA4180e1Ecc408f65Cae32711C794BD04C1267",
      "value": {
        "_hex": "0x2"
      },
      "nonce": 15,
      "data": "0x45466f3a",
      "r": "0x7437121826d958817e011d04894daa072662fc27941ad1457c8e79b77b1a462d",
      "s": "0x0358de4cd6c7eeeeff0358939966593e363fe11403ed8ab98129c7777e131fa6",
      "v": 28,
      "creates": null,
      "raw": "0xf8690f850cd2c96ad2830249f0945eaa4180e1ecc408f65cae32711c794bd04c1267028445466f3a1ca07437121826d958817e011d04894daa072662fc27941ad1457c8e79b77b1a462da00358de4cd6c7eeeeff0358939966593e363fe11403ed8ab98129c7777e131fa6",
      "networkId": 0,
      "chainId": 0
    }
  ]
}