{
  "hash": "0xe1100316010f5760cb68ad234d773af5807d6e4d3da9fb5b72491389d4f70a0f",
  "parentHash": "0xb25839369c1888e460879f0d9a50a389683873846f08b1ebb88ec1b7c3d72e10",
  "number": 119400,
  "timestamp": 1440142151,
  "nonce": "0x64aa7146af83e699",
  "difficulty": 4415964978051,
  "gasLimit": {
    "_hex": "0x2fefd8"
  },
  "gasUsed": {
    "_hex": "0xf618"
  },
  "miner": "0xbb7B8287f3F0a933474a79eAe42CBCa977791171",
  "extraData": "0xd783010003844765746887676f312e342e32856c696e7578",
  "transactions": [
    {
      "hash": "0x9eff88d58e4947fab952b643248644f3711bdd717e917aa7c7420786774d47c4",
      "blockHash": "0xe1100316010f5760cb68ad234d773af5807d6e4d3da9fb5b72491389d4f70a0f",
      "blockNumber": 119400,
      "transactionIndex": 0,
      "confirmations": null,
      "from": "0x27A2f708f13CFE24f8e5d6E8b7D8E971D2449Ba0",
      "gasPrice": {
        "_hex": "0xd5fc340eb"
      },
      "gasLimit": {
        "_hex": "0x15f90"
      },
      "to": "0x61F642543d22bAf5382908a714E675Cc0b51ea45",
      "value": {
        "_hex": "0x1158e460913d00000"
      },
      "nonce": 14,
      "data": "0x",
      "r": "0xdbd10733dc8d88a76bf388063e46c1c2376c93226642c426c05a67019261d7af",
      "s": "0x2d6b0974bde11c067e700bacbedb7c6156af1726e582a2390c7d7840aab067da",
      "v": 27,
      "creates": null,
      "raw": "0xf86e0e850d5fc340eb83015f909461f642543d22baf5382908a714e675cc0b51ea458901158e460913d00000801ba0dbd10733dc8d88a76bf388063e46c1c2376c93226642c426c05a67019261d7afa02d6b0974bde11c067e700bacbedb7c6156af1726e582a2390c7d7840aab067da",
      "networkId": 0,
      "chainId": 0
    },
    {
      "hash": "0x15da75f2748b39d525b489f74ba135cfcf93807ab66f09be3b82a538d74ad2bf",
      "blockHash": "0xe1100316010f5760cb68ad234d773af5807d6e4d3da9fb5b72491389d4f70a0f",
      "blockNumber": 119400,
      "transactionIndex": 1,
      "confirmations": null,
      "from": "0xce8ff6d2027CA9837abb85FD515752151b6C7d0A",
      "gasPrice": {
        "_hex": "0xba43b7400"
      },
      "gasLimit": {
        "_hex": "0x5208"
      },
      "to": "0x32Be343B94f860124dC4fEe278FDCBD38C102D88",
      "value": {
        "_hex": "0x2d2cc7943298fc00"
      },
      "nonce": 12,
      "data": "0x",
      "r": "0x555c328a218220441e9be7c4b78a57f8e287aef142d8a4687800a7b0f7447fcc",
      "s": "0x47d54c3404e608b29729c301a704482fe612af88931fbae6119573e663c7e2c0",
      "v": 27,
      "creates": null,
      "raw": "0xf86c0c850ba43b74008252089432be343b94f860124dc4fee278fdcbd38c102d88882d2cc7943298fc00801ba0555c328a218220441e9be7c4b78a57f8e287aef142d8a4687800a7b0f7447fcca047d54c3404e608b29729c301a704482fe612af88931fbae6119573e663c7e2c0",
      "networkId": 0,
      "chainId": 0
    },
    {
      "hash": "0x04fcdeef5600b8f388f78547ae088d083f88699ede9f8bbf2f68ba086fe42948",
      "blockHash": "0xe1100316010f5760cb68ad234d773af5807d6e4d3da9fb5b72491389d4f70a0f",
      "blockNumber": 119400,
      "transactionIndex": 2,
      "confirmations": null,
      "from": "0x4Dbfc5Cd4D88480476F951dbCD591396773aE56c",
      "gasPrice": {
        "_hex": "0xba43b7400"
      },
      "gasLimit": {
        "_hex": "0x5208"
      },
      "to": "0x32Be343B94f860124dC4fEe278FDCBD38C102D88",
      "value": {
        "_hex": "0x12b6ef8325ebb2000"
      },
      "nonce": 11,
      "data": "0x",
      "r": "0xfc7179170813a4712142a4ed7b17f3bd875eb00401de0c8fcb0f9f4a484326a6",
      "s": "0x3252867ce5de709484121bdb1434b0fd4be474f454bbd15db403ea71d4661fa6",
      "v": 27,
      "creates": null,
      "raw": "0xf86d0b850ba43b74008252089432be343b94f860124dc4fee278fdcbd38c102d8889012b6ef8325ebb2000801ba0fc7179170813a4712142a4ed7b17f3bd875eb00401de0c8fcb0f9f4a484326a6a03252867ce5de709484121bdb1434b0fd4be474f454bbd15db403ea71d4661fa6",
      "networkId": 0,
      "chainId": 0
    }
  ]
}