{
  "hash": "0x9b53be09d76c9b500ba1f2cbf9f4c5899e9b167d1a42ad3a42a8a780066d52c9",
  "parentHash": "0xbc85203f709532a784316639de23347061bfacf76b8ab01cf24c34d000ab658b",
  "number": 94340,
  "timestamp": 1439706614,
  "nonce": "0xdd7dd2477fcc7682",
  "difficulty": 3483297384206,
  "gasLimit": {
    "_hex": "0x2fefd8"
  },
  "gasUsed": {
    "_hex": "0x5208"
  },
  "miner": "0x790b8a3cE86E707ED0eD32bF89B3269692a23CC1",
  "extraData": "0xd783010001844765746887676f312e342e32856c696e7578",
  "transactions": [
    {
      "hash": "0xde42f3b018eed0ee4d9ada0d8e8946ab91ee433ef69528eba973c0718e426ff0",
      "blockHash": "0x9b53be09d76c9b500ba1f2cbf9f4c5899e9b167d1a42ad3a42a8a780066d52c9",
      "blockNumber": 94340,
      "transactionIndex": 0,
      "confirmations": null,
      "from": "0xc93a69dFC0fb3E867D9207599f7fe87d51619635",
      "gasPrice": {
        "_hex": "0xba43b7400"
      },
      "gasLimit": {
        "_hex": "0x5208"
      },
      "to": "0xC47Aaa860008be6f65B58c6C6E02a84e666EfE31",
      "value": {
        "_hex": "0x6812e624bda1b6000"
      },
      "nonce": 7,
      "data": "0x",
      "r": "0x2eb6e27b4d3e13f6adcbc2809c07ccb6fc2363013acf19a62737b1583d5fd563",
      "s": "0x4894360396f4ba57ebd296a12344349c3057c85472048c960728446a97f8b8cb",
      "v": 27,
      "creates": null,
      "raw": "0xf86d07850ba43b740082520894c47aaa860008be6f65b58c6c6e02a84e666efe318906812e624bda1b6000801ba02eb6e27b4d3e13f6adcbc2809c07ccb6fc2363013acf19a62737b1583d5fd563a04894360396f4ba57ebd296a12344349c3057c85472048c960728446a97f8b8cb",
      "networkId": 0,
      "chainId": 0
    }
  ]
}