{
  "hash": "0x2ca0ffb4f6d66ebceb2c697765534e6b37f9a9c7a4d70d0bd93dac46d6be35cf",
  "parentHash": "0xf7c1555ce4436e5165a175c7eaf622882b82ff731c17c7ddfbb12ec8d5a0b891",
  "number": 111776,
  "timestamp": 1439995954,
  "nonce": "0x71c0cee38101a7d2",
  "difficulty": 4437279574816,
  "gasLimit": {
    "_hex": "0x2fefd8"
  },
  "gasUsed": {
    "_hex": "0x5208"
  },
  "miner": "0xe6A7a1d47ff21B6321162AEA7C6CB457D5476Bca",
  "extraData": "0x476574682f76312e302e312d38326566323666362f6c696e75782f676f312e34",
  "transactions": [
    {
      "hash": "0xd640ec3dbe04b7bf5a00ee403a2c39ef107feef794756849747cc348701ed154",
      "blockHash": "0x2ca0ffb4f6d66ebceb2c697765534e6b37f9a9c7a4d70d0bd93dac46d6be35cf",
      "blockNumber": 111776,
      "transactionIndex": 0,
      "confirmations": null,
      "from": "0x943800a6196105B4937F48570Dc5D0232a962da5",
      "gasPrice": {
        "_hex": "0xba43b7400"
      },
      "gasLimit": {
        "_hex": "0x5b04"
      },
      "to": "0x02d7FFc396D24b1dBfca72ce1ae8a22dfa5DA000",
      "value": {
        "_hex": "0x1aa535d3d0c0000"
      },
      "nonce": 9,
      "data": "0x",
      "r": "0x902aaf8face3c09afe906edbab7d6de1df7c67c5132023250e40b46c4d2383bf",
      "s": "0x64fb011f326ec18d227af72bff57cd793cdbbee8d8886cabeb5757ce9ee6d71e",
      "v": 28,
      "creates": null,
      "raw": "0xf86c09850ba43b7400825b049402d7ffc396d24b1dbfca72ce1ae8a22dfa5da0008801aa535d3d0c0000801ca0902aaf8face3c09afe906edbab7d6de1df7c67c5132023250e40b46c4d2383bfa064fb011f326ec18d227af72bff57cd793cdbbee8d8886cabeb5757ce9ee6d71e",
      "networkId": 0,
      "chainId": 0
    }
  ]
}