{
  "hash": "0x1a0cf44179ebdce06baa45665f24981f4b4ba6d05b07b57454086df5787f43da",
  "parentHash": "0xed7133b05f65d7fea7c2c7168ff4bb80860b981acc11727f09ac7b388584eafd",
  "number": 50573,
  "timestamp": 1438991434,
  "nonce": "0x126287625d661ccc",
  "difficulty": 1524480610089,
  "gasLimit": {
    "_hex": "0x6b55f"
  },
  "gasUsed": {
    "_hex": "0x546c"
  },
  "miner": "0xbcB2E3693d246E1fc00348754334BadEb88b2a11",
  "extraData": "0x476574682f76312e302e302f6c696e75782f676f312e342e32",
  "transactions": [
    {
      "hash": "0x0577cc85af22f73f0fb16c5f5faff6ae5c54cdbefa01b6b40582d20ad6be0b8f",
      "blockHash": "0x1a0cf44179ebdce06baa45665f24981f4b4ba6d05b07b57454086df5787f43da",
      "blockNumber": 50573,
      "transactionIndex": 0,
      "confirmations": null,
      "from": "0x23ba3864dA583dab56f420873C37679690e02F00",
      "gasPrice": {
        "_hex": "0x110c8f7d8de"
      },
      "gasLimit": {
        "_hex": "0xc350"
      },
      "to": "0x2910543Af39abA0Cd09dBb2D50200b3E800A63D2",
      "value": {
        "_hex": "0x10436e874ed604b0000"
      },
      "nonce": 0,
      "data": "0x454e55594451543547",
      "r": "0x18b389ba4d6799f264f499ed9cc860465e183fed30666f7852ca5eef6ad21d88",
      "s": "0xeded23af1719faa7a13fa723cd154f728055008c9278a29ec7c9f66b0c74a6ad",
      "v": 28,
      "creates": null,
      "raw": "0xf87880860110c8f7d8de82c350942910543af39aba0cd09dbb2d50200b3e800a63d28a010436e874ed604b000089454e555944515435471ca018b389ba4d6799f264f499ed9cc860465e183fed30666f7852ca5eef6ad21d88a0eded23af1719faa7a13fa723cd154f728055008c9278a29ec7c9f66b0c74a6ad",
      "networkId": 0,
      "chainId": 0
    }
  ]
}