{
  "hash": "0x2d9b3862f56cd4e0df2618aa89e4779527189ac13c570848f571152c3cbd8e77",
  "parentHash": "0x8a8b30df9d5f3517e0862be63b5b7ffdcaf56fee33709c033eefa1e429fbf30f",
  "number": 89768,
  "timestamp": 1439628748,
  "nonce": "0x4da978f9bfe2dac6",
  "difficulty": 3341875590717,
  "gasLimit": {
    "_hex": "0x2fefd8"
  },
  "gasUsed": {
    "_hex": "0xa410"
  },
  "miner": "0xe6A7a1d47ff21B6321162AEA7C6CB457D5476Bca",
  "extraData": "0x476574682f76312e302e312d38326566323666362f6c696e75782f676f312e34",
  "transactions": [
    {
      "hash": "0xf672922110144dd1a6aab4a7b12efd27cf903ff4300b6025bf115b6e6fa0143a",
      "blockHash": "0x2d9b3862f56cd4e0df2618aa89e4779527189ac13c570848f571152c3cbd8e77",
      "blockNumber": 89768,
      "transactionIndex": 0,
      "confirmations": null,
      "from": "0xe6A7a1d47ff21B6321162AEA7C6CB457D5476Bca",
      "gasPrice": {
        "_hex": "0xd9ac25365"
      },
      "gasLimit": {
        "_hex": "0x55f0"
      },
      "to": "0x0A656Fa14f63cE9DE5d4E2e8c03c2f00918BC1e2",
      "value": {
        "_hex": "0x18a5967095f66530"
      },
      "nonce": 2003,
      "data": "0x",
      "r": "0xe96e08a891419c5136ce036f2a6eef584595ede92f7fea25ee1fa08cea7293ee",
      "s": "0x0c95be082ea781ddd9525024a8d152498a522ad0902227a24c9d544b4cfeea14",
      "v": 27,
      "creates": null,
      "raw": "0xf86e8207d3850d9ac253658255f0940a656fa14f63ce9de5d4e2e8c03c2f00918bc1e28818a5967095f66530801ba0e96e08a891419c5136ce036f2a6eef584595ede92f7fea25ee1fa08cea7293eea00c95be082ea781ddd9525024a8d152498a522ad0902227a24c9d544b4cfeea14",
      "networkId": 0,
      "chainId": 0
    },
    {
      "hash": "0x8232e74d618cc7d362f9e204ac1d8ae244414fb07556cae7df767becbcb494f2",
      "blockHash": "0x2d9b3862f56cd4e0df2618aa89e4779527189ac13c570848f571152c3cbd8e77",
      "blockNumber": 89768,
      "transactionIndex": 1,
      "confirmations": null,
      "from": "0xe6A7a1d47ff21B6321162AEA7C6CB457D5476Bca",
      "gasPrice": {
        "_hex": "0xd9ac25365"
      },
      "gasLimit": {
        "_hex": "0x55f0"
      },
      "to": "0x911C819565DA29661e97381cbde506ACF7aabf65",
      "value": {
        "_hex": "0x18bcdf66b814f6e4"
      },
      "nonce": 2004,
      "data": "0x",
      "r": "0x18fe59f2bdbc59db76423db8c86999cdd16d72b371323cf6482c3078d104b061",
      "s": "0x7e4fa7cb43661a751abe7baa532c24639ecd1d123c48caa8bc9eb43c5da9dad6",
      "v": 27,
      "creates": null,
      "raw": "0xf86e8207d4850d9ac253658255f094911c819565da29661e97381cbde506acf7aabf658818bcdf66b814f6e4801ba018fe59f2bdbc59db76423db8c86999cdd16d72b371323cf6482c3078d104b061a07e4fa7cb43661a751abe7baa532c24639ecd1d123c48caa8bc9eb43c5da9dad6",
      "networkId": 0,
      "chainId": 0
    }
  ]
}