{
  "hash": "0x692d8f5061291a4393ca450b01f29f9d0719cf8c36b9dfbef7bfb848dab72d88",
  "parentHash": "0x466c021008b254c4cb9d319a025759f596b28fd5dee3e64fa85c2362b9d7be33",
  "number": 68633,
  "timestamp": 1439291100,
  "nonce": "0x834d53982cff5258",
  "difficulty": 2023152869342,
  "gasLimit": {
    "_hex": "0x2fefd8"
  },
  "gasUsed": {
    "_hex": "0x19a28"
  },
  "miner": "0xEF247E639d49461D25F57e9362CadE3120910Ce0",
  "extraData": "0x476574682f76312e302e312f6c696e75782f676f312e342e32",
  "transactions": [
    {
      "hash": "0xb6ecde000bfcd2e31285779ee0b2e4dd20f58a967f0f6d548e5911fed9650ca0",
      "blockHash": "0x692d8f5061291a4393ca450b01f29f9d0719cf8c36b9dfbef7bfb848dab72d88",
      "blockNumber": 68633,
      "transactionIndex": 0,
      "confirmations": null,
      "from": "0x476bdAA7869D6C964204AFA1Fa86a5BAD3F3f37b",
      "gasPrice": {
        "_hex": "0xba43b7400"
      },
      "gasLimit": {
        "_hex": "0x5208"
      },
      "to": "0x3bA35e6102d6D6f913026aB2B3833883E234A07D",
      "value": {
        "_hex": "0x17adb9b0233f000"
      },
      "nonce": 1,
      "data": "0x",
      "r": "0x5ddb31673e5cfdb9baf1871a78365354d68e5ea203e1ce011f1a4cac286f8d95",
      "s": "0x09efd6c853baec0eab1e02b9ff20ac35b7c102fc1ecaf078c841b0301a9af9e6",
      "v": 27,
      "creates": null,
      "raw": "0xf86c01850ba43b7400825208943ba35e6102d6d6f913026ab2b3833883e234a07d88017adb9b0233f000801ba05ddb31673e5cfdb9baf1871a78365354d68e5ea203e1ce011f1a4cac286f8d95a009efd6c853baec0eab1e02b9ff20ac35b7c102fc1ecaf078c841b0301a9af9e6",
      "networkId": 0,
      "chainId": 0
    },
    {
      "hash": "0x5195c4075ec350f911016299b60242cb6126a123e0d8b455b18eaad9e65d5ccf",
      "blockHash": "0x692d8f5061291a4393ca450b01f29f9d0719cf8c36b9dfbef7bfb848dab72d88",
      "blockNumber": 68633,
      "transactionIndex": 1,
      "confirmations": null,
      "from": "0x073e9a6475B8941DA144B72DcCbaB16110062a02",
      "gasPrice": {
        "_hex": "0xba43b7400"
      },
      "gasLimit": {
        "_hex": "0x5208"
      },
      "to": "0xAd1b0167640344A99F099f18B55811C295aDc121",
      "value": {
        "_hex": "0x17adb9b0233f000"
      },
      "nonce": 1,
      "data": "0x",
      "r": "0xb421f80c8ded1840811f8d0f77a65e3b56d78359f4726dc3c8301a89f9a27136",
      "s": "0x2c570aaecb22bab2cd6d83bdee2281272b821f1b718b21db9a1b6380f6dae3da",
      "v": 27,
      "creates": null,
      "raw": "0xf86c01850ba43b740082520894ad1b0167640344a99f099f18b55811c295adc12188017adb9b0233f000801ba0b421f80c8ded1840811f8d0f77a65e3b56d78359f4726dc3c8301a89f9a27136a02c570aaecb22bab2cd6d83bdee2281272b821f1b718b21db9a1b6380f6dae3da",
      "networkId": 0,
      "chainId": 0
    },
    {
      "hash": "0xb606aa41425175450985d4986f13017c191b6d82e31c3f6db1b100dd57b9a5ad",
      "blockHash": "0x692d8f5061291a4393ca450b01f29f9d0719cf8c36b9dfbef7bfb848dab72d88",
      "blockNumber": 68633,
      "transactionIndex": 2,
      "confirmations": null,
      "from": "0x58Ff3011878079142059Ab126C3d3D6982777dDd",
      "gasPrice": {
        "_hex": "0xba43b7400"
      },
      "gasLimit": {
        "_hex": "0x5208"
      },
      "to": "0x80fd40Ef993022f8067e9f8d8fD55a6937916cC6",
      "value": {
        "_hex": "0x17adb9b0233f000"
      },
      "nonce": 1,
      "data": "0x",
      "r": "0x33b963b53ae905063ac55c89c20ccdf27fb43c961ae4bc87f10790b4d3ca5d29",
      "s": "0x05294752a3d5cc59e345df6fe179ab8e58eed898548cf97fd66296872e3b7186",
      "v": 27,
      "creates": null,
      "raw": "0xf86c01850ba43b74008252089480fd40ef993022f8067e9f8d8fd55a6937916cc688017adb9b0233f000801ba033b963b53ae905063ac55c89c20ccdf27fb43c961ae4bc87f10790b4d3ca5d29a005294752a3d5cc59e345df6fe179ab8e58eed898548cf97fd66296872e3b7186",
      "networkId": 0,
      "chainId": 0
    },
    {
      "hash": "0x104644ae0e4e0ba346272e2be2cfb6f1039e9d00216728538a28d507a2a4062d",
      "blockHash": "0x692d8f5061291a4393ca450b01f29f9d0719cf8c36b9dfbef7bfb848dab72d88",
      "blockNumber": 68633,
      "transactionIndex": 3,
      "confirmations": null,
      "from": "0xB38132c36011BaACe92428262595328cC5E5981c",
      "gasPrice": {
        "_hex": "0xba43b7400"
      },
      "gasLimit": {
        "_hex": "0x5208"
      },
      "to": "0xF740608E525f9Cc8464d00DCbe07cA40a6F6755D",
      "value": {
        "_hex": "0x17adb9b0233f000"
      },
      "nonce": 1,
      "data": "0x",
      "r": "0x13c4c4b8e9a71fff29e232362eb9ff144f03ae69c511b7397e30feabfdfc7d57",
      "s": "0x613ac53787f2bac7c57417ba60b423e5cf74828ad656e8c56be965b9f3a8ba1d",
      "v": 28,
      "creates": null,
      "raw": "0xf86c01850ba43b740082520894f740608e525f9cc8464d00dcbe07ca40a6f6755d88017adb9b0233f000801ca013c4c4b8e9a71fff29e232362eb9ff144f03ae69c511b7397e30feabfdfc7d57a0613ac53787f2bac7c57417ba60b423e5cf74828ad656e8c56be965b9f3a8ba1d",
      "networkId": 0,
      "chainId": 0
    },
    {
      "hash": "0x173c1a55e9c5ab6ff8865cf54199b98c0e7978d14a87c15e1c4865e050ae28e0",
      "blockHash": "0x692d8f5061291a4393ca450b01f29f9d0719cf8c36b9dfbef7bfb848dab72d88",
      "blockNumber": 68633,
      "transactionIndex": 4,
      "confirmations": null,
      "from": "0x394b6501C6Fa912D9c01a82A93eF6a2f1B55946D",
      "gasPrice": {
        "_hex": "0xba43b7400"
      },
      "gasLimit": {
        "_hex": "0x5208"
      },
      "to": "0xc802976080d5B5fED033084f45Adc31D60A15d2d",
      "value": {
        "_hex": "0x17adb9b0233f000"
      },
      "nonce": 1,
      "data": "0x",
      "r": "0x87e8f707d1acd870ba59d43a19f6be971956cf25a04e8362df4fcccbf1a0940c",
      "s": "0x6da94120ee8e50043cc9a0616afd8c6c6e6292ddf45eb10ff26c1f9dcc2ce0b6",
      "v": 28,
      "creates": null,
      "raw": "0xf86c01850ba43b740082520894c802976080d5b5fed033084f45adc31d60a15d2d88017adb9b0233f000801ca087e8f707d1acd870ba59d43a19f6be971956cf25a04e8362df4fcccbf1a0940ca06da94120ee8e50043cc9a0616afd8c6c6e6292ddf45eb10ff26c1f9dcc2ce0b6",
      "networkId": 0,
      "chainId": 0
    }
  ]
}