{
  "hash": "0x569a10e20ac6535a898dae04ea9b79962b7ff3a6b8eecf2f61b22e56c612253b",
  "parentHash": "0xccbf75797b7b54ec386c12fa56fac4c83013a657946ac904e97717b5d20f42c5",
  "number": 93152,
  "timestamp": 1439683830,
  "nonce": "0x67c04e1b065aba0c",
  "difficulty": 3615500756820,
  "gasLimit": {
    "_hex": "0x2fefd5"
  },
  "gasUsed": {
    "_hex": "0xa410"
  },
  "miner": "0xa50ec0D39fa913E62f1Bae7074E6F36caA71855b",
  "extraData": "0xd783010001844765746887676f312e342e32856c696e7578",
  "transactions": [
    {
      "hash": "0xf87065994707511fb5aa5d5685250e69364345c09d6304bf857bde88542b6e3b",
      "blockHash": "0x569a10e20ac6535a898dae04ea9b79962b7ff3a6b8eecf2f61b22e56c612253b",
      "blockNumber": 93152,
      "transactionIndex": 0,
      "confirmations": null,
      "from": "0x2707836DbE604b0eBfdb0F20870dD749C8572676",
      "gasPrice": {
        "_hex": "0xd13b27b36"
      },
      "gasLimit": {
        "_hex": "0x5208"
      },
      "to": "0x32Be343B94f860124dC4fEe278FDCBD38C102D88",
      "value": {
        "_hex": "0xddc85fae5047400"
      },
      "nonce": 0,
      "data": "0x",
      "r": "0xb87f00557447fcc8e4ce983ec118bda1082987238840a73604e0bead8488b7db",
      "s": "0x7d4b1dec2a3c1730a23fb35bf7250def17e50f1fd2fb485a9ae330aab1e9be04",
      "v": 28,
      "creates": null,
      "raw": "0xf86c80850d13b27b368252089432be343b94f860124dc4fee278fdcbd38c102d88880ddc85fae5047400801ca0b87f00557447fcc8e4ce983ec118bda1082987238840a73604e0bead8488b7dba07d4b1dec2a3c1730a23fb35bf7250def17e50f1fd2fb485a9ae330aab1e9be04",
      "networkId": 0,
      "chainId": 0
    },
    {
      "hash": "0xe24cdf5f140884664c1bc3d3d25db0ad0cfe29341b61312e61b1e2072d32a832",
      "blockHash": "0x569a10e20ac6535a898dae04ea9b79962b7ff3a6b8eecf2f61b22e56c612253b",
      "blockNumber": 93152,
      "transactionIndex": 1,
      "confirmations": null,
      "from": "0x32Be343B94f860124dC4fEe278FDCBD38C102D88",
      "gasPrice": {
        "_hex": "0xcf08bdf09"
      },
      "gasLimit": {
        "_hex": "0x5208"
      },
      "to": "0x04f621c6f3c9A83209915FcbD517CC8502426F32",
      "value": {
        "_hex": "0x65f7e8a46e3c9c00"
      },
      "nonce": 912,
      "data": "0x",
      "r": "0xc5086032c39e320ced1869c6f6df08b939e3509e590593eb65baec12e3798b65",
      "s": "0x73f97f2ef72bdb12fcceaa46a63a162d835d60c83bbe7ec4444ca4461be76969",
      "v": 28,
      "creates": null,
      "raw": "0xf86e820390850cf08bdf098252089404f621c6f3c9a83209915fcbd517cc8502426f328865f7e8a46e3c9c00801ca0c5086032c39e320ced1869c6f6df08b939e3509e590593eb65baec12e3798b65a073f97f2ef72bdb12fcceaa46a63a162d835d60c83bbe7ec4444ca4461be76969",
      "networkId": 0,
      "chainId": 0
    }
  ]
}