{
  "hash": "0x4e09e30ab8cc3e2697e2aea66deba8dbbdac23f2f95919f459b3483d49e2019a",
  "parentHash": "0x86e2b067c512e79405d2c4ae9af981018e9f93d397dfe60976a4d78e56de58ae",
  "number": 47209,
  "timestamp": 1438936127,
  "nonce": "0x473fc08c33071a4b",
  "difficulty": 1459522711920,
  "gasLimit": {
    "_hex": "0xa334"
  },
  "gasUsed": {
    "_hex": "0x5208"
  },
  "miner": "0xf8E0CA3Ed80bd541b94BEdCf259e8CF2141A9523",
  "extraData": "0x476574682f76312e302e312f77696e646f77732f676f312e342e32",
  "transactions": [
    {
      "hash": "0x780eab843135b7b815c2309d3af84750d9188a60b95b90905192b9c20c087ffe",
      "blockHash": "0x4e09e30ab8cc3e2697e2aea66deba8dbbdac23f2f95919f459b3483d49e2019a",
      "blockNumber": 47209,
      "transactionIndex": 0,
      "confirmations": null,
      "from": "0xe6A7a1d47ff21B6321162AEA7C6CB457D5476Bca",
      "gasPrice": {
        "_hex": "0xd26286bf3"
      },
      "gasLimit": {
        "_hex": "0x5208"
      },
      "to": "0x3Fef71cB8Ac8711ECa473049D813b003A76D1eaA",
      "value": {
        "_hex": "0x61483f5f25fc8c40"
      },
      "nonce": 74,
      "data": "0x",
      "r": "0x3fbcfa92b33b6892eb3969c9a78ffa2aa905c867130d5b5baa010c6feef25b0e",
      "s": "0x76e6320bcbd6c5da0b5114aca8cb0b352006abd08c9d225c468421708272664e",
      "v": 28,
      "creates": null,
      "raw": "0xf86c4a850d26286bf3825208943fef71cb8ac8711eca473049d813b003a76d1eaa8861483f5f25fc8c40801ca03fbcfa92b33b6892eb3969c9a78ffa2aa905c867130d5b5baa010c6feef25b0ea076e6320bcbd6c5da0b5114aca8cb0b352006abd08c9d225c468421708272664e",
      "networkId": 0,
      "chainId": 0
    }
  ]
}