{
  "hash": "0x434b38192ee6f5d4d0460afcd09831de5e19f8d1af4e7e8c6049896ac2175524",
  "parentHash": "0x8cbaf8665de3c6c6e38d79bddd2efaf403492e784806346a8ce74d5a8a4e4e4e",
  "number": 103140,
  "timestamp": 1439848377,
  "nonce": "0xe3d789131f4629d6",
  "difficulty": 4184974683623,
  "gasLimit": {
    "_hex": "0x2fefd8"
  },
  "gasUsed": {
    "_hex": "0xa410"
  },
  "miner": "0xC978e305Aaa59952FAb39Ba288d6E9CB09B952E1",
  "extraData": "0x476574682f76312e302e312f77696e646f77732f676f312e342e32",
  "transactions": [
    {
      "hash": "0xd13a85de17fc8a482e7bf57a38d6971b77d3b9562485c9f23307080e1b3b5d81",
      "blockHash": "0x434b38192ee6f5d4d0460afcd09831de5e19f8d1af4e7e8c6049896ac2175524",
      "blockNumber": 103140,
      "transactionIndex": 0,
      "confirmations": null,
      "from": "0x886e83d9133F65B9c27A946f699E88e71A888E4C",
      "gasPrice": {
        "_hex": "0x105bee38fbb"
      },
      "gasLimit": {
        "_hex": "0x15f90"
      },
      "to": "0xCbbdAd70d0ff27254925AD37B5C135EEe1116615",
      "value": {
        "_hex": "0xde0b6b3a7640000"
      },
      "nonce": 9,
      "data": "0x",
      "r": "0xe651a9a83c943814a6078ba75a62a0c0e80c8ed89cd03f1ff14927c2cffe1fdd",
      "s": "0x6b069ceed665689e07f27358b0a948e91dd9a3a07ae8c43c75fc8fbf85ad58a3",
      "v": 27,
      "creates": null,
      "raw": "0xf86e09860105bee38fbb83015f9094cbbdad70d0ff27254925ad37b5c135eee1116615880de0b6b3a7640000801ba0e651a9a83c943814a6078ba75a62a0c0e80c8ed89cd03f1ff14927c2cffe1fdda06b069ceed665689e07f27358b0a948e91dd9a3a07ae8c43c75fc8fbf85ad58a3",
      "networkId": 0,
      "chainId": 0
    },
    {
      "hash": "0xd82becc11c2cc0b4d417704f7e2275cff5fecc929bbb907adb6253c00e04dd35",
      "blockHash": "0x434b38192ee6f5d4d0460afcd09831de5e19f8d1af4e7e8c6049896ac2175524",
      "blockNumber": 103140,
      "transactionIndex": 1,
      "confirmations": null,
      "from": "0x120A270bbC009644e35F0bB6ab13f95b8199c4ad",
      "gasPrice": {
        "_hex": "0xd8a6097a1"
      },
      "gasLimit": {
        "_hex": "0x3d090"
      },
      "to": "0x490692308709B108e5C503101563B70cA37615E9",
      "value": {
        "_hex": "0xf096fb30308000"
      },
      "nonce": 711,
      "data": "0x",
      "r": "0x94e5923fe209db74b0bc92c488666cd85dd9c361e6704f74dfc206114befe6da",
      "s": "0x5d912e1397992f15c490e7fa260e3a649f55f892a5b3a803863e509e5d2270c2",
      "v": 27,
      "creates": null,
      "raw": "0xf86e8202c7850d8a6097a18303d09094490692308709b108e5c503101563b70ca37615e987f096fb30308000801ba094e5923fe209db74b0bc92c488666cd85dd9c361e6704f74dfc206114befe6daa05d912e1397992f15c490e7fa260e3a649f55f892a5b3a803863e509e5d2270c2",
      "networkId": 0,
      "chainId": 0
    }
  ]
}