{
  "hash": "0x59572033d4ac2458a8af1f195174cfff79c0e093c8aa37153aa18e182631e05c",
  "parentHash": "0x62ae73a77d1269ce675d3bd1ff4f9fd8a3956787db8131bb8399efb0b2a6ad3e",
  "number": 88030,
  "timestamp": 1439601448,
  "nonce": "0x32fc34c9f20e371f",
  "difficulty": 3201984058168,
  "gasLimit": {
    "_hex": "0x2fefd8"
  },
  "gasUsed": {
    "_hex": "0xa674"
  },
  "miner": "0x790b8a3cE86E707ED0eD32bF89B3269692a23CC1",
  "extraData": "0xd783010001844765746887676f312e342e32856c696e7578",
  "transactions": [
    {
      "hash": "0xc476644db00b75618a3680dfe90dd1236e7a88d6b191da0f69b57b17d360abd8",
      "blockHash": "0x59572033d4ac2458a8af1f195174cfff79c0e093c8aa37153aa18e182631e05c",
      "blockNumber": 88030,
      "transactionIndex": 0,
      "confirmations": null,
      "from": "0xd7C9Da7F000be9dcD742D6437dE28669DAFf0f4B",
      "gasPrice": {
        "_hex": "0xda1ee1ec1"
      },
      "gasLimit": {
        "_hex": "0x55f0"
      },
      "to": "0x931Ac2444b057f80A06A4FB627f26FFA5CE41184",
      "value": {
        "_hex": "0x2b505a3ab7711c0000"
      },
      "nonce": 3,
      "data": "0x",
      "r": "0x4231042d27760d9a638a61f803765cd10bcc072339cc0e5e938b18307a4346ae",
      "s": "0x29fea708360fcce9bb235610576a0828de4d945344d9eb68968c3c4db8c9d836",
      "v": 27,
      "creates": null,
      "raw": "0xf86d03850da1ee1ec18255f094931ac2444b057f80a06a4fb627f26ffa5ce41184892b505a3ab7711c0000801ba04231042d27760d9a638a61f803765cd10bcc072339cc0e5e938b18307a4346aea029fea708360fcce9bb235610576a0828de4d945344d9eb68968c3c4db8c9d836",
      "networkId": 0,
      "chainId": 0
    },
    {
      "hash": "0x3fc178841c84d1bd60e98ad9bfc72f87bbee7a6acb02007fdba85ead3bd15718",
      "blockHash": "0x59572033d4ac2458a8af1f195174cfff79c0e093c8aa37153aa18e182631e05c",
      "blockNumber": 88030,
      "transactionIndex": 1,
      "confirmations": null,
      "from": "0xC5d30A49174e1a78D4b8a71824e78563cB041e94",
      "gasPrice": {
        "_hex": "0xd641f460d"
      },
      "gasLimit": {
        "_hex": "0x15f90"
      },
      "to": "0x7548566f611b89EBfb57C547FeA0c293A2830aD2",
      "value": {
        "_hex": "0x2b93855d12ba0000"
      },
      "nonce": 2,
      "data": "0x706f6c6f6e69657834",
      "r": "0xced76a9d488351051fa6d6619157427e9f03aeb645284e45b4fcbe08c391e3a9",
      "s": "0x6fde303ff32a655c25c267449df82ac2b4277ec666106fecf9e586b31ce16341",
      "v": 27,
      "creates": null,
      "raw": "0xf87602850d641f460d83015f90947548566f611b89ebfb57c547fea0c293a2830ad2882b93855d12ba000089706f6c6f6e696578341ba0ced76a9d488351051fa6d6619157427e9f03aeb645284e45b4fcbe08c391e3a9a06fde303ff32a655c25c267449df82ac2b4277ec666106fecf9e586b31ce16341",
      "networkId": 0,
      "chainId": 0
    }
  ]
}