{
  "hash": "0x2f400df04b4fc7ecbf7948d6a11ca3865de5d161abe2b841a7ab0c234fe93be2",
  "parentHash": "0x3412227fa07f317e79c451fb06ffc26223dbfa81178c2d532c67d4411003ab11",
  "number": 100412,
  "timestamp": 1439806206,
  "nonce": "0xc261ad4c11aa5867",
  "difficulty": 3800551403682,
  "gasLimit": {
    "_hex": "0x2fefd8"
  },
  "gasUsed": {
    "_hex": "0x5208"
  },
  "miner": "0xe6A7a1d47ff21B6321162AEA7C6CB457D5476Bca",
  "extraData": "0x476574682f76312e302e312d38326566323666362f6c696e75782f676f312e34",
  "transactions": [
    {
      "hash": "0x6a20c6d342bbe3b3d4ddff1cc9398f19be19a969017b768ddf648618129c01d1",
      "blockHash": "0x2f400df04b4fc7ecbf7948d6a11ca3865de5d161abe2b841a7ab0c234fe93be2",
      "blockNumber": 100412,
      "transactionIndex": 0,
      "confirmations": null,
      "from": "0xe0e82eD3e93079cE76aAC1dA7b4bfa990D885A0D",
      "gasPrice": {
        "_hex": "0xd272d5f70"
      },
      "gasLimit": {
        "_hex": "0x5208"
      },
      "to": "0xFBb1b73C4f0BDa4f67dcA266ce6Ef42f520fBB98",
      "value": {
        "_hex": "0x9748f368a44d92080"
      },
      "nonce": 0,
      "data": "0x",
      "r": "0x28bffa32c4b33fd5b3118a08d9b93a73a64950f0ed76906212c2010dc68ebc6e",
      "s": "0x31d44378d722c5a65c21b6d6c3d156d08a1178a3ee9f7066fd7747bb667ea90e",
      "v": 27,
      "creates": null,
      "raw": "0xf86d80850d272d5f7082520894fbb1b73c4f0bda4f67dca266ce6ef42f520fbb988909748f368a44d92080801ba028bffa32c4b33fd5b3118a08d9b93a73a64950f0ed76906212c2010dc68ebc6ea031d44378d722c5a65c21b6d6c3d156d08a1178a3ee9f7066fd7747bb667ea90e",
      "networkId": 0,
      "chainId": 0
    }
  ]
}