{
  "hash": "0x720218b9fd68aaf3195345bd9d32a8fe076d7a0246df51ce2e85a7d56f5f49e6",
  "parentHash": "0x7ba3cf02396255f33f9850e8063a0ba32ff26adf65c4f701270244e0bb21cc85",
  "number": 55086,
  "timestamp": 1439065178,
  "nonce": "0x7d38dc6f7f419999",
  "difficulty": 1629071651229,
  "gasLimit": {
    "_hex": "0x2fefd8"
  },
  "gasUsed": {
    "_hex": "0xddfd"
  },
  "miner": "0x123843545FB525C8E134c9A5F15ADA6865cc3848",
  "extraData": "0x476574682f76312e302e312f77696e646f77732f676f312e342e32",
  "transactions": [
    {
      "hash": "0x74dd6ba4e487c4a8a81637e8df9eb615bfbc5dbd35d5b990977f3086ec5b28fe",
      "blockHash": "0x720218b9fd68aaf3195345bd9d32a8fe076d7a0246df51ce2e85a7d56f5f49e6",
      "blockNumber": 55086,
      "transactionIndex": 0,
      "confirmations": null,
      "from": "0x9B2c46642CAF6B936dc0633da521f1E946B7e18F",
      "gasPrice": {
        "_hex": "0xcff0239ff"
      },
      "gasLimit": {
        "_hex": "0x7a120"
      },
      "to": "0x109C4f2CCc82C4d77Bde15F306707320294Aea3F",
      "value": {
        "_hex": "0xde0b6b3a7640000"
      },
      "nonce": 0,
      "data": "0x",
      "r": "0xde6db2b2499b733267c9219fad5c78941def18793102b0cac766811f0bdf00d3",
      "s": "0x1ddd913d8323510dc8000aaece59dd6efae29064e6d9a358429cd108b3f48222",
      "v": 28,
      "creates": null,
      "raw": "0xf86d80850cff0239ff8307a12094109c4f2ccc82c4d77bde15f306707320294aea3f880de0b6b3a7640000801ca0de6db2b2499b733267c9219fad5c78941def18793102b0cac766811f0bdf00d3a01ddd913d8323510dc8000aaece59dd6efae29064e6d9a358429cd108b3f48222",
      "networkId": 0,
      "chainId": 0
    }
  ]
}