{
  "hash": "0x579a75ceef452d7aec05ba950a6fced806e203ba18d421e302b967e5ffe49686",
  "parentHash": "0xa6ae3bf6280be287f1174a62fda8c8b8b9836a73937676dc643c2de66b97a080",
  "number": 65771,
  "timestamp": 1439242585,
  "nonce": "0x79c731226016e72d",
  "difficulty": 1953928663916,
  "gasLimit": {
    "_hex": "0x2fefd8"
  },
  "gasUsed": {
    "_hex": "0x6819"
  },
  "miner": "0x0037ce3d4B7f8729C8607D8D0248252Be68202c0",
  "extraData": "0x476574682f76312e302e312f77696e646f77732f676f312e342e32",
  "transactions": [
    {
      "hash": "0x85c170f9da03c38bc682ec3e23572c33cd59c4c36086cd8f249c1b284a45c5f9",
      "blockHash": "0x579a75ceef452d7aec05ba950a6fced806e203ba18d421e302b967e5ffe49686",
      "blockNumber": 65771,
      "transactionIndex": 0,
      "confirmations": null,
      "from": "0xFBb1b73C4f0BDa4f67dcA266ce6Ef42f520fBB98",
      "gasPrice": {
        "_hex": "0xdfe461d1b"
      },
      "gasLimit": {
        "_hex": "0x15f90"
      },
      "to": "0xa1A111bc074c9cfa781F0C38e63bD51c91b8af00",
      "value": {
        "_hex": "0x0"
      },
      "nonce": 5,
      "data": "0x201745d54254525800000000000000000000000000000000000000000000000000000000000000000000000000000000fbb1b73c4f0bda4f67dca266ce6ef42f520fbb98",
      "r": "0x169e61311cbd011692c232e432d85d781e7111465393ce3fa7e468c5dbf33b9b",
      "s": "0x3cc7d75fdf44db13a4ef8f0acdc6408adc4e44519d777b2f4e9ecaecafb7d65d",
      "v": 28,
      "creates": null,
      "raw": "0xf8aa05850dfe461d1b83015f9094a1a111bc074c9cfa781f0c38e63bd51c91b8af0080b844201745d54254525800000000000000000000000000000000000000000000000000000000000000000000000000000000fbb1b73c4f0bda4f67dca266ce6ef42f520fbb981ca0169e61311cbd011692c232e432d85d781e7111465393ce3fa7e468c5dbf33b9ba03cc7d75fdf44db13a4ef8f0acdc6408adc4e44519d777b2f4e9ecaecafb7d65d",
      "networkId": 0,
      "chainId": 0
    }
  ]
}