{
  "hash": "0xaff657b47a3ef3160e4971adad2eccf78f7dbf5a3a7485cc7902c904628d5a0b",
  "parentHash": "0xf309d4c19077ca28ec4a5a29d8f8795b30069c29da7c9fd9524b582935b95731",
  "number": 80997,
  "timestamp": 1439494280,
  "nonce": "0x69fb7d1b8e8ebd53",
  "difficulty": 2451113981203,
  "gasLimit": {
    "_hex": "0x2fefd8"
  },
  "gasUsed": {
    "_hex": "0x5208"
  },
  "miner": "0xe6A7a1d47ff21B6321162AEA7C6CB457D5476Bca",
  "extraData": "0x476574682f76312e302e312d38326566323666362f6c696e75782f676f312e34",
  "transactions": [
    {
      "hash": "0x6b06688e6f7f83953923b97261753c1997146a99be60bed27ed3b7521230a949",
      "blockHash": "0xaff657b47a3ef3160e4971adad2eccf78f7dbf5a3a7485cc7902c904628d5a0b",
      "blockNumber": 80997,
      "transactionIndex": 0,
      "confirmations": null,
      "from": "0xBef07d97C3481f9D6aee1c98F9d91a180a32442B",
      "gasPrice": {
        "_hex": "0xda17c50b2"
      },
      "gasLimit": {
        "_hex": "0x15f90"
      },
      "to": "0x9d4020CB4186dF7700247DB29365fb1c9912117c",
      "value": {
        "_hex": "0x1e7e4171bf4d3a00000"
      },
      "nonce": 3,
      "data": "0x",
      "r": "0x94e2a9b62a69e1b7017af414104686ddf868e2196455e96adde7eef5ce8a803e",
      "s": "0x58bd2bcedc9305353d900211df202fc20ef874053f6297c8194390a47840bee2",
      "v": 27,
      "creates": null,
      "raw": "0xf86f03850da17c50b283015f90949d4020cb4186df7700247db29365fb1c9912117c8a01e7e4171bf4d3a00000801ba094e2a9b62a69e1b7017af414104686ddf868e2196455e96adde7eef5ce8a803ea058bd2bcedc9305353d900211df202fc20ef874053f6297c8194390a47840bee2",
      "networkId": 0,
      "chainId": 0
    }
  ]
}