{
  "hash": "0x88c45a7aeb8a2d0ef539f379fd90fe5c97561fb5fcd202054f08809a141fe238",
  "parentHash": "0x8f12bdbed5297ec94698d7e8c06712a2f3a4b4f2fc508cc7c46ee92b2401d2a2",
  "number": 52639,
  "timestamp": 1439024948,
  "nonce": "0xa9f1bb67e61b2be8",
  "difficulty": 1566354953236,
  "gasLimit": {
    "_hex": "0x16c939"
  },
  "gasUsed": {
    "_hex": "0xf4240"
  },
  "miner": "0x76f84927A612Dc4D9E690AFc6275f2Ef1D78a4B0",
  "extraData": "0x476574682f76312e302e312f6c696e75782f676f312e342e32",
  "transactions": [
    {
      "hash": "0xe104b7fe6d0972ca96ed819eb69182fdf797968eb920526df1d3050a0954833f",
      "blockHash": "0x88c45a7aeb8a2d0ef539f379fd90fe5c97561fb5fcd202054f08809a141fe238",
      "blockNumber": 52639,
      "transactionIndex": 0,
      "confirmations": null,
      "from": "0x54dAeb3E8a6BBC797E4aD2b0339f134b186e4637",
      "gasPrice": {
        "_hex": "0xdf4ba21f9"
      },
      "gasLimit": {
        "_hex": "0x7a120"
      },
      "to": "0xBAA54d6E90c3F4d7Ebec11bD180134C7eD8eBb52",
      "value": {
        "_hex": "0x16345785d8a0000"
      },
      "nonce": 835,
      "data": "0x",
      "r": "0xabc08b19df533ba8b768cf85dd2db6d359f713154d1cb6d811db6e9f42723250",
      "s": "0x231125fe71b7e6bf63308be81e1af35e05394a62bc0238b413c6804d53e742ef",
      "v": 27,
      "creates": null,
      "raw": "0xf86f820343850df4ba21f98307a12094baa54d6e90c3f4d7ebec11bd180134c7ed8ebb5288016345785d8a0000801ba0abc08b19df533ba8b768cf85dd2db6d359f713154d1cb6d811db6e9f42723250a0231125fe71b7e6bf63308be81e1af35e05394a62bc0238b413c6804d53e742ef",
      "networkId": 0,
      "chainId": 0
    },
    {
      "hash": "0x93dc5bdfef7c53122761b1a087d9d5e502aa6bafd8d90058f58142a582480a83",
      "blockHash": "0x88c45a7aeb8a2d0ef539f379fd90fe5c97561fb5fcd202054f08809a141fe238",
      "blockNumber": 52639,
      "transactionIndex": 1,
      "confirmations": null,
      "from": "0x54dAeb3E8a6BBC797E4aD2b0339f134b186e4637",
      "gasPrice": {
        "_hex": "0xdada9c769"
      },
      "gasLimit": {
        "_hex": "0x7a120"
      },
      "to": "0xBAA54d6E90c3F4d7Ebec11bD180134C7eD8eBb52",
      "value": {
        "_hex": "0x16345785d8a0000"
      },
      "nonce": 836,
      "data": "0x",
      "r": "0x4a71ad650e118e2f849d91a1ff7c82f64c088b96d9421dd4f38f40bd8ea5ab54",
      "s": "0x44b0b8e52c3e7d3e0c9f64720ae187b4f85b55517aaca86edd916bba1b370778",
      "v": 27,
      "creates": null,
      "raw": "0xf86f820344850dada9c7698307a12094baa54d6e90c3f4d7ebec11bd180134c7ed8ebb5288016345785d8a0000801ba04a71ad650e118e2f849d91a1ff7c82f64c088b96d9421dd4f38f40bd8ea5ab54a044b0b8e52c3e7d3e0c9f64720ae187b4f85b55517aaca86edd916bba1b370778",
      "networkId": 0,
      "chainId": 0
    }
  ]
}