{
  "hash": "0x4d92a7772e712164ea133dcd48a2692a9cb3aa092a5525c9918c70236aef7ed6",
  "parentHash": "0x20c0e7cf7691f128f9c72ca3d12d1a952bca8b877001194147ff6f7ad82a8d28",
  "number": 94373,
  "timestamp": 1439707205,
  "nonce": "0x9e7681c6afb93ab9",
  "difficulty": 3488389886984,
  "gasLimit": {
    "_hex": "0x2fefd8"
  },
  "gasUsed": {
    "_hex": "0xa410"
  },
  "miner": "0x790b8a3cE86E707ED0eD32bF89B3269692a23CC1",
  "extraData": "0xd783010001844765746887676f312e342e32856c696e7578",
  "transactions": [
    {
      "hash": "0x05572f18d89908887b638d1c8c4461ad0c206ce9a671a52f6c449ad707404a91",
      "blockHash": "0x4d92a7772e712164ea133dcd48a2692a9cb3aa092a5525c9918c70236aef7ed6",
      "blockNumber": 94373,
      "transactionIndex": 0,
      "confirmations": null,
      "from": "0x32Be343B94f860124dC4fEe278FDCBD38C102D88",
      "gasPrice": {
        "_hex": "0xdaba1a697"
      },
      "gasLimit": {
        "_hex": "0x5208"
      },
      "to": "0x859337F6BeF10dEE917c9F7086B47Fc9B019d45b",
      "value": {
        "_hex": "0x3bbefa26298424000"
      },
      "nonce": 954,
      "data": "0x",
      "r": "0x7874b69b61e579fca99d9faa3cbbdb4fd6931d7d6e3fd9c7e8a74ee485d728ff",
      "s": "0x360dfaeb457f07aa7f2874c795631b7341dcfd040715016762988b2d4871da1a",
      "v": 28,
      "creates": null,
      "raw": "0xf86f8203ba850daba1a69782520894859337f6bef10dee917c9f7086b47fc9b019d45b8903bbefa26298424000801ca07874b69b61e579fca99d9faa3cbbdb4fd6931d7d6e3fd9c7e8a74ee485d728ffa0360dfaeb457f07aa7f2874c795631b7341dcfd040715016762988b2d4871da1a",
      "networkId": 0,
      "chainId": 0
    },
    {
      "hash": "0x7d594ac35bd55bc054f5a487d3950014261886ceee434cbb5479a1b963983bd7",
      "blockHash": "0x4d92a7772e712164ea133dcd48a2692a9cb3aa092a5525c9918c70236aef7ed6",
      "blockNumber": 94373,
      "transactionIndex": 1,
      "confirmations": null,
      "from": "0x8c0A6b62918D317e3B431EfB67E3fB5eff333b1c",
      "gasPrice": {
        "_hex": "0xba43b7400"
      },
      "gasLimit": {
        "_hex": "0x5208"
      },
      "to": "0xC47Aaa860008be6f65B58c6C6E02a84e666EfE31",
      "value": {
        "_hex": "0x2b5bc6d2c14c36000"
      },
      "nonce": 3,
      "data": "0x",
      "r": "0x2a9d9b081b32f5931be58a541c583d934669910bdd73b4168cc3ad2cb33613d8",
      "s": "0x32b541d608a5dfad3110560f8049b9db8947d88b1d64feb6ddc37bc7af976fd4",
      "v": 27,
      "creates": null,
      "raw": "0xf86d03850ba43b740082520894c47aaa860008be6f65b58c6c6e02a84e666efe318902b5bc6d2c14c36000801ba02a9d9b081b32f5931be58a541c583d934669910bdd73b4168cc3ad2cb33613d8a032b541d608a5dfad3110560f8049b9db8947d88b1d64feb6ddc37bc7af976fd4",
      "networkId": 0,
      "chainId": 0
    }
  ]
}