{
  "hash": "0x98180a5136f21606e501066a9a87d3bf1813bd5fdf2a66dde103c8cf557ba9eb",
  "parentHash": "0xc58d250bf5582302d83c02dec1d4aaabe7bfdf6c4e86bf3b1847bb900969b7d5",
  "number": 107023,
  "timestamp": 1439914708,
  "nonce": "0x81798ae76d392ade",
  "difficulty": 4450647043106,
  "gasLimit": {
    "_hex": "0x2fefd8"
  },
  "gasUsed": {
    "_hex": "0x5208"
  },
  "miner": "0x9746c7e1ef2bd21FF3997fa467593a89cb852BD0",
  "extraData": "0x476574682f76312e302e312f77696e646f77732f676f312e342e32",
  "transactions": [
    {
      "hash": "0x251915dc06f5dde169cb4e1e55e4ce0e688b651a9f2266a54027d33bc1ad728b",
      "blockHash": "0x98180a5136f21606e501066a9a87d3bf1813bd5fdf2a66dde103c8cf557ba9eb",
      "blockNumber": 107023,
      "transactionIndex": 0,
      "confirmations": null,
      "from": "0x8Ab68e66cBE9f38Ad5C330a6B888DbC73788254A",
      "gasPrice": {
        "_hex": "0x9184e72a000"
      },
      "gasLimit": {
        "_hex": "0x76c0"
      },
      "to": "0x0eeE664E0C7c5Fe9f15Ee58e1FD9a5765A8Fe600",
      "value": {
        "_hex": "0x117c5ef5d807a0e08"
      },
      "nonce": 0,
      "data": "0x",
      "r": "0x824c8620efa4a3cafce08f94c84329cc7860d925f5608338846ebc1e599f8b4a",
      "s": "0x280300f4e4eb79d67398e11b2faf4aef111f21320a9849ef35857b75fe5fcf78",
      "v": 28,
      "creates": null,
      "raw": "0xf86e808609184e72a0008276c0940eee664e0c7c5fe9f15ee58e1fd9a5765a8fe600890117c5ef5d807a0e08801ca0824c8620efa4a3cafce08f94c84329cc7860d925f5608338846ebc1e599f8b4aa0280300f4e4eb79d67398e11b2faf4aef111f21320a9849ef35857b75fe5fcf78",
      "networkId": 0,
      "chainId": 0
    }
  ]
}