{
  "hash": "0xed06b8992fd8e9079838d20280d9b7f0786570c5aa6c25b1b1be2482eefd080c",
  "parentHash": "0x988690ec5e92e03f54df8d0ffe3c3ea01b1df58d6828914dcf848c0b0a9d833d",
  "number": 67023,
  "timestamp": 1439264486,
  "nonce": "0x96e7dadf63ffd636",
  "difficulty": 1938433736312,
  "gasLimit": {
    "_hex": "0x2fefd8"
  },
  "gasUsed": {
    "_hex": "0x5208"
  },
  "miner": "0x5B3e850E39e6f2C7dD38707b649e2B3536F14C0b",
  "extraData": "0x476574682f76312e302e312f64617277696e2f676f312e342e32",
  "transactions": [
    {
      "hash": "0x8d82f722fc035c2ceca6a2c3b220a9b7494aa0275a0668c2bd99dbba7f6e8cf4",
      "blockHash": "0xed06b8992fd8e9079838d20280d9b7f0786570c5aa6c25b1b1be2482eefd080c",
      "blockNumber": 67023,
      "transactionIndex": 0,
      "confirmations": null,
      "from": "0x664B099B945b899AaC84DA69dd6D4eEb3D03c8a3",
      "gasPrice": {
        "_hex": "0xba43b7400"
      },
      "gasLimit": {
        "_hex": "0x5b04"
      },
      "to": "0x27e806e70622d2864e1B1f4426D72FFb0457C83a",
      "value": {
        "_hex": "0x34071fa30ef08000"
      },
      "nonce": 11,
      "data": "0x",
      "r": "0x57073a66295cec4f5afb171acdeaf4a19fb1ee4e44dabdf994de8e48cd5b4636",
      "s": "0x4ef5a18ae3662bed66b9b67dd1a9d6da1dba3ce886325d62ce6a90b3947b521c",
      "v": 28,
      "creates": null,
      "raw": "0xf86c0b850ba43b7400825b049427e806e70622d2864e1b1f4426d72ffb0457c83a8834071fa30ef08000801ca057073a66295cec4f5afb171acdeaf4a19fb1ee4e44dabdf994de8e48cd5b4636a04ef5a18ae3662bed66b9b67dd1a9d6da1dba3ce886325d62ce6a90b3947b521c",
      "networkId": 0,
      "chainId": 0
    }
  ]
}