{
  "hash": "0xb4bd787e02c8e33ef71674747c643de89bf041ab14eaa8679c3adc7e0649a847",
  "parentHash": "0x28b9a0986ed64ee8c69b52ecd6e5a78f59b6ab6783f7577aff8bca04c8eb8773",
  "number": 103328,
  "timestamp": 1439851433,
  "nonce": "0x88f12b7ed55d0559",
  "difficulty": 4172638441568,
  "gasLimit": {
    "_hex": "0x2fefd8"
  },
  "gasUsed": {
    "_hex": "0x5208"
  },
  "miner": "0xe6A7a1d47ff21B6321162AEA7C6CB457D5476Bca",
  "extraData": "0x476574682f76312e302e312d38326566323666362f6c696e75782f676f312e34",
  "transactions": [
    {
      "hash": "0x43087a1b9c921a8955218bdd6d3d56f8c85a45bc463774515b91c2ded48ce634",
      "blockHash": "0xb4bd787e02c8e33ef71674747c643de89bf041ab14eaa8679c3adc7e0649a847",
      "blockNumber": 103328,
      "transactionIndex": 0,
      "confirmations": null,
      "from": "0x3175a28CF6105466923f11bFFabD279F162aa2f8",
      "gasPrice": {
        "_hex": "0xd8bfc804d"
      },
      "gasLimit": {
        "_hex": "0x5208"
      },
      "to": "0x32Be343B94f860124dC4fEe278FDCBD38C102D88",
      "value": {
        "_hex": "0x1fe6e68c482dfc00"
      },
      "nonce": 13,
      "data": "0x",
      "r": "0xa9b4a18a18fc1f56e6a2847626345895614a03cf28ee5eade3226d101267cc37",
      "s": "0x30e2ad36364cf69b013cf66f8c740ca6c0324765d836959da50a5380fd70f0aa",
      "v": 28,
      "creates": null,
      "raw": "0xf86c0d850d8bfc804d8252089432be343b94f860124dc4fee278fdcbd38c102d88881fe6e68c482dfc00801ca0a9b4a18a18fc1f56e6a2847626345895614a03cf28ee5eade3226d101267cc37a030e2ad36364cf69b013cf66f8c740ca6c0324765d836959da50a5380fd70f0aa",
      "networkId": 0,
      "chainId": 0
    }
  ]
}