{
  "hash": "0xffa76eae842dff1addffd1b953b3002db17d3d9d3f631a3b9a1da522a1d29d8c",
  "parentHash": "0x569f9b538d0fda6202dd0a7e0f80781867332989c2f30fb0cacb71238e22ea52",
  "number": 75291,
  "timestamp": 1439400744,
  "nonce": "0x5c2187f5a6c63d61",
  "difficulty": 2200807568651,
  "gasLimit": {
    "_hex": "0x2fefd8"
  },
  "gasUsed": {
    "_hex": "0x5208"
  },
  "miner": "0xe6A7a1d47ff21B6321162AEA7C6CB457D5476Bca",
  "extraData": "0x476574682f76312e302e312d38326566323666362f6c696e75782f676f312e34",
  "transactions": [
    {
      "hash": "0x6f6a5b45c74db490fddfbab1e6791e2dec8818031338222114513d7796aab6ef",
      "blockHash": "0xffa76eae842dff1addffd1b953b3002db17d3d9d3f631a3b9a1da522a1d29d8c",
      "blockNumber": 75291,
      "transactionIndex": 0,
      "confirmations": null,
      "from": "0x31995C46B15C84523cDEE26f49A681b8237e43F5",
      "gasPrice": {
        "_hex": "0xd4391a7fb"
      },
      "gasLimit": {
        "_hex": "0x7530"
      },
      "to": "0xa9f5E7bf6Cbf6fEc55B30850Eb492b47A376d050",
      "value": {
        "_hex": "0xbdf3c4bb0328c0000"
      },
      "nonce": 2,
      "data": "0x",
      "r": "0x2d19b49374eacd2a838270473226c7e3352be6ff39a01275ec77baf66a72655b",
      "s": "0x7005d68838f764b2f23122a576cdde86f17a5e37dd164e62ff54ee3e9ec19ec0",
      "v": 27,
      "creates": null,
      "raw": "0xf86d02850d4391a7fb82753094a9f5e7bf6cbf6fec55b30850eb492b47a376d050890bdf3c4bb0328c0000801ba02d19b49374eacd2a838270473226c7e3352be6ff39a01275ec77baf66a72655ba07005d68838f764b2f23122a576cdde86f17a5e37dd164e62ff54ee3e9ec19ec0",
      "networkId": 0,
      "chainId": 0
    }
  ]
}