{
  "hash": "0x7c57507b0d8bce3ddd1c3338a1d162234e8fff61f3e2016f69ffd47157fd576b",
  "parentHash": "0x57c6cc39c9fe3ea6f356a26df1059152233596e7d6f3d08cf50a356838bbd3af",
  "number": 71564,
  "timestamp": 1439338148,
  "nonce": "0x47da9bd9c5b1c143",
  "difficulty": 2181453326610,
  "gasLimit": {
    "_hex": "0x2fefd8"
  },
  "gasUsed": {
    "_hex": "0x93b2"
  },
  "miner": "0xe6A7a1d47ff21B6321162AEA7C6CB457D5476Bca",
  "extraData": "0x476574682f76312e302e312d38326566323666362f6c696e75782f676f312e34",
  "transactions": [
    {
      "hash": "0x97e8bdd67549de62c34bd3d4800e3d21be36a925b1b05ede47468fd2d291512e",
      "blockHash": "0x7c57507b0d8bce3ddd1c3338a1d162234e8fff61f3e2016f69ffd47157fd576b",
      "blockNumber": 71564,
      "transactionIndex": 0,
      "confirmations": null,
      "from": "0x17580B766f7453525ca4C6A88b01b50570EA088C",
      "gasPrice": {
        "_hex": "0xcba7a7468"
      },
      "gasLimit": {
        "_hex": "0x61a80"
      },
      "to": "0x5Fe5B7546D1628f7348B023A0393de1FC825A4fD",
      "value": {
        "_hex": "0x3782dace9d900000"
      },
      "nonce": 217,
      "data": "0xb595b8b50000000000000000000000000000000000000000000000000000000000000000",
      "r": "0x6e765cfd92ea5f5c7a12421cf0bf395bdd6eeeea78edef758834918af739fb4e",
      "s": "0x503e880315a7a16b01c37791e2271a58e317815e599c8d2ff3df986e3b96b031",
      "v": 28,
      "creates": null,
      "raw": "0xf89281d9850cba7a746883061a80945fe5b7546d1628f7348b023a0393de1fc825a4fd883782dace9d900000a4b595b8b500000000000000000000000000000000000000000000000000000000000000001ca06e765cfd92ea5f5c7a12421cf0bf395bdd6eeeea78edef758834918af739fb4ea0503e880315a7a16b01c37791e2271a58e317815e599c8d2ff3df986e3b96b031",
      "networkId": 0,
      "chainId": 0
    }
  ]
}