{
  "hash": "0xb30da2eac5d8a6782b5b959608f0e3d60fab6e18249f7237cba73c62e6640ddc",
  "parentHash": "0x52b20976135122d4c7021799ec6f5801243935b4955844f81832775b432934c4",
  "number": 49259,
  "timestamp": 1438970632,
  "nonce": "0xbce04c06cdd853bc",
  "difficulty": 1480697902255,
  "gasLimit": {
    "_hex": "0x2ab8b"
  },
  "gasUsed": {
    "_hex": "0x546c"
  },
  "miner": "0xf32866D5cE9a9b5673e076be48AbCd6ED48ADe78",
  "extraData": "0x476574682f76312e302e312d38326566323666362f6c696e75782f676f312e34",
  "transactions": [
    {
      "hash": "0xb5400b21762912ba5607359d8c20eecbfeb5a98c78f9f012737ec1c7029defc4",
      "blockHash": "0xb30da2eac5d8a6782b5b959608f0e3d60fab6e18249f7237cba73c62e6640ddc",
      "blockNumber": 49259,
      "transactionIndex": 0,
      "confirmations": null,
      "from": "0xDe50f61a9a1176B7875050872C6Baf0032e6F6FF",
      "gasPrice": {
        "_hex": "0xd251b616e"
      },
      "gasLimit": {
        "_hex": "0x15f90"
      },
      "to": "0x2910543Af39abA0Cd09dBb2D50200b3E800A63D2",
      "value": {
        "_hex": "0xde0b6b3a7640000"
      },
      "nonce": 0,
      "data": "0x454e47503650364147",
      "r": "0xbc86c657bd0eaa919e8910176dbe834e11d28c46ee0165179db87e5aa482ebdf",
      "s": "0x5edd947fc46541200c3037b4831d6e1dec09865659482acca78881d4f868fc88",
      "v": 27,
      "creates": null,
      "raw": "0xf87680850d251b616e83015f90942910543af39aba0cd09dbb2d50200b3e800a63d2880de0b6b3a764000089454e475036503641471ba0bc86c657bd0eaa919e8910176dbe834e11d28c46ee0165179db87e5aa482ebdfa05edd947fc46541200c3037b4831d6e1dec09865659482acca78881d4f868fc88",
      "networkId": 0,
      "chainId": 0
    }
  ]
}