{
  "hash": "0x74dd298fd2e3faff3799c3d18e80493562e23ee69909355234e4fe39f21330cf",
  "parentHash": "0xf1ed0a3ad88f57e9d60a8269b85e8211da7778d158be5b5d5fd305af0675c602",
  "number": 91323,
  "timestamp": 1439653882,
  "nonce": "0xa32cc3a73d878a34",
  "difficulty": 3469271023623,
  "gasLimit": {
    "_hex": "0x2fefd8"
  },
  "gasUsed": {
    "_hex": "0x5208"
  },
  "miner": "0x2C674A948592B20a4B775E1a3991Db043E6CF0FE",
  "extraData": "0x476574682f76312e302e312d38326566323666362f6c696e75782f676f312e34",
  "transactions": [
    {
      "hash": "0xdc37166eb166e027d68ed90988981f6ede9143e1e29ca0eb5c82f8515211146c",
      "blockHash": "0x74dd298fd2e3faff3799c3d18e80493562e23ee69909355234e4fe39f21330cf",
      "blockNumber": 91323,
      "transactionIndex": 0,
      "confirmations": null,
      "from": "0x9B80BD38c4afE0942F8029298A11fACe85ce4cAF",
      "gasPrice": {
        "_hex": "0xd7d40ace3"
      },
      "gasLimit": {
        "_hex": "0x61a8"
      },
      "to": "0x756Fd95F0bC102071dddf04c04d58F8DEf4F2AF2",
      "value": {
        "_hex": "0x8ac7230489e80000"
      },
      "nonce": 2,
      "data": "0x",
      "r": "0xc81df9611d76b54ffc634d064b630fa3ca5cf715ae148506dfb7e469ef706fe5",
      "s": "0x20380b2044febac1ded5c3afb09ac024e840ea03952c822e1ac14fee2562ec91",
      "v": 27,
      "creates": null,
      "raw": "0xf86c02850d7d40ace38261a894756fd95f0bc102071dddf04c04d58f8def4f2af2888ac7230489e80000801ba0c81df9611d76b54ffc634d064b630fa3ca5cf715ae148506dfb7e469ef706fe5a020380b2044febac1ded5c3afb09ac024e840ea03952c822e1ac14fee2562ec91",
      "networkId": 0,
      "chainId": 0
    }
  ]
}