{
  "hash": "0x4869e218b0a8f5784f16193ac66cbf35c4510ace0c9b1486c2e0aa4113a36fd6",
  "parentHash": "0x5de846283f450c97cd86c440fa3059e61780a3ff55f41e63254827e84be0acea",
  "number": 48698,
  "timestamp": 1438961393,
  "nonce": "0xc50f0fe3bca8f700",
  "difficulty": 1471427108389,
  "gasLimit": {
    "_hex": "0x1c439"
  },
  "gasUsed": {
    "_hex": "0xa410"
  },
  "miner": "0xe6A7a1d47ff21B6321162AEA7C6CB457D5476Bca",
  "extraData": "0x657468706f6f6c2e6f7267",
  "transactions": [
    {
      "hash": "0x8ba39f908731171fe96ee4e700e71d170ef8e651fac7040c4d6adb581582793b",
      "blockHash": "0x4869e218b0a8f5784f16193ac66cbf35c4510ace0c9b1486c2e0aa4113a36fd6",
      "blockNumber": 48698,
      "transactionIndex": 0,
      "confirmations": null,
      "from": "0x48040276E9c17DDbe5C8d2976245dCD0235efA43",
      "gasPrice": {
        "_hex": "0xd6646e108"
      },
      "gasLimit": {
        "_hex": "0x15f90"
      },
      "to": "0xD8d0549637b65D58E7FB6cbDd11530b399d1Ddac",
      "value": {
        "_hex": "0x56bc75e2d63100000"
      },
      "nonce": 0,
      "data": "0x",
      "r": "0xaf5f969f1335811f0a782a1ba8f7e7240e79d00a778f89a5c513f65d7f119291",
      "s": "0x332091d93e58265b17bf6806a18bae5dd31587e7c143e182b6957d43e25b6eaf",
      "v": 28,
      "creates": null,
      "raw": "0xf86e80850d6646e10883015f9094d8d0549637b65d58e7fb6cbdd11530b399d1ddac89056bc75e2d63100000801ca0af5f969f1335811f0a782a1ba8f7e7240e79d00a778f89a5c513f65d7f119291a0332091d93e58265b17bf6806a18bae5dd31587e7c143e182b6957d43e25b6eaf",
      "networkId": 0,
      "chainId": 0
    },
    {
      "hash": "0xefe82b23d042e0f9adc3c6113b842f01d51d987452152463a8c5518dc5c894e3",
      "blockHash": "0x4869e218b0a8f5784f16193ac66cbf35c4510ace0c9b1486c2e0aa4113a36fd6",
      "blockNumber": 48698,
      "transactionIndex": 1,
      "confirmations": null,
      "from": "0x9c344098BA615A398F11D009905b177C44a7b602",
      "gasPrice": {
        "_hex": "0x1005009eb22"
      },
      "gasLimit": {
        "_hex": "0x15f90"
      },
      "to": "0xFe0412b699317daB06160e62f01A9dB95A261143",
      "value": {
        "_hex": "0x4563918244f40000"
      },
      "nonce": 5,
      "data": "0x",
      "r": "0x2caac86266bb2c0c777eb56eae4ebde33ad23d61fe23d030d75df8e0e9e2c716",
      "s": "0x0d5467a63ac8302aaf11dd8b7d5912c81af1e790197c9b82cb3f06c90d506d34",
      "v": 28,
      "creates": null,
      "raw": "0xf86e058601005009eb2283015f9094fe0412b699317dab06160e62f01a9db95a261143884563918244f40000801ca02caac86266bb2c0c777eb56eae4ebde33ad23d61fe23d030d75df8e0e9e2c716a00d5467a63ac8302aaf11dd8b7d5912c81af1e790197c9b82cb3f06c90d506d34",
      "networkId": 0,
      "chainId": 0
    }
  ]
}