{
  "hash": "0xafac04aa63ca85c234e63da6f71e49e40930d5990fedb3b2201b5d1c9987aa6f",
  "parentHash": "0x1eff414ce2d774bff31b8828e7b098ce9335492f49c942555d4ce5850b5456d3",
  "number": 79991,
  "timestamp": 1439478476,
  "nonce": "0xe353060ed4e8f5bc",
  "difficulty": 2343722912730,
  "gasLimit": {
    "_hex": "0x2fefd8"
  },
  "gasUsed": {
    "_hex": "0x5208"
  },
  "miner": "0xa6BDc31c431B8F97848c9D60cbbe9660dc450eB7",
  "extraData": "0x",
  "transactions": [
    {
      "hash": "0x2895949533e4ae093a425849683efc6651d28994af8818d14903688569267b3f",
      "blockHash": "0xafac04aa63ca85c234e63da6f71e49e40930d5990fedb3b2201b5d1c9987aa6f",
      "blockNumber": 79991,
      "transactionIndex": 0,
      "confirmations": null,
      "from": "0x6d921977dEFE5f4e0682CA512De1D07b1f4802E1",
      "gasPrice": {
        "_hex": "0xdcaa55b0e"
      },
      "gasLimit": {
        "_hex": "0x5208"
      },
      "to": "0x32Be343B94f860124dC4fEe278FDCBD38C102D88",
      "value": {
        "_hex": "0x3a1d280ab66fe6000"
      },
      "nonce": 11,
      "data": "0x",
      "r": "0xcbceb21957e0f37c775f0f43a5a80e9d8a9a08d6acf9037f194e9795a4fdec44",
      "s": "0x0728f8264e702addf89656849155c4afd5c9748fd73c8a158a50d53f74dcebf2",
      "v": 27,
      "creates": null,
      "raw": "0xf86d0b850dcaa55b0e8252089432be343b94f860124dc4fee278fdcbd38c102d888903a1d280ab66fe6000801ba0cbceb21957e0f37c775f0f43a5a80e9d8a9a08d6acf9037f194e9795a4fdec44a00728f8264e702addf89656849155c4afd5c9748fd73c8a158a50d53f74dcebf2",
      "networkId": 0,
      "chainId": 0
    }
  ]
}