{
  "hash": "0x4eea6c42edfdcde146cb928ce61f8228da669a0af81b4b696451cc54e1d56863",
  "parentHash": "0xbf28111c134b77066e097d3f74231a3386bc10a15452aa8100fc99011208b78c",
  "number": 82179,
  "timestamp": 1439514841,
  "nonce": "0x650b2e8b35071c0d",
  "difficulty": 2393996631730,
  "gasLimit": {
    "_hex": "0x2fefd8"
  },
  "gasUsed": {
    "_hex": "0x5208"
  },
  "miner": "0x0D4EcC7d750180EBf4A9Df728B6669B5Bceb5E40",
  "extraData": "0x",
  "transactions": [
    {
      "hash": "0x31ac215d5dcb856b1f6aa59cf6517d94d91eeb16405b9effd846f4480f61f572",
      "blockHash": "0x4eea6c42edfdcde146cb928ce61f8228da669a0af81b4b696451cc54e1d56863",
      "blockNumber": 82179,
      "transactionIndex": 0,
      "confirmations": null,
      "from": "0xF224EB900B37b4490eeE6A0b6420d85c947D8733",
      "gasPrice": {
        "_hex": "0x746a528800"
      },
      "gasLimit": {
        "_hex": "0x5208"
      },
      "to": "0x22557c67370Abf56E2F3ad5585Ca274470aD61ec",
      "value": {
        "_hex": "0x34954ef7067ec3c000"
      },
      "nonce": 0,
      "data": "0x",
      "r": "0x933dc94ef392eb4601fc150913febff20fd483228c9285a23a27da8eb03d532b",
      "s": "0xdac38a3f9793c5cb97325e055212ecdf1f9f7c1015ba7bbe6dbd1f17d50ad4d8",
      "v": 28,
      "creates": null,
      "raw": "0xf86d8085746a5288008252089422557c67370abf56e2f3ad5585ca274470ad61ec8934954ef7067ec3c000801ca0933dc94ef392eb4601fc150913febff20fd483228c9285a23a27da8eb03d532ba0dac38a3f9793c5cb97325e055212ecdf1f9f7c1015ba7bbe6dbd1f17d50ad4d8",
      "networkId": 0,
      "chainId": 0
    }
  ]
}