{
  "hash": "0x30c209de5337a3d1228c499ed62cd2707d96014703410c86cc882a7671ac4c48",
  "parentHash": "0x103bb203cfb1b86afc8156096c5ed1d906986c13cf4f9ff0a5fddc5f09a874d8",
  "number": 89351,
  "timestamp": 1439622033,
  "nonce": "0xce45d56eda5c9f86",
  "difficulty": 3307947831720,
  "gasLimit": {
    "_hex": "0x2fefd8"
  },
  "gasUsed": {
    "_hex": "0x5208"
  },
  "miner": "0xf8E0CA3Ed80bd541b94BEdCf259e8CF2141A9523",
  "extraData": "0x476574682f76312e302e312f77696e646f77732f676f312e342e32",
  "transactions": [
    {
      "hash": "0x1d9343eca784ee22981c8141b97ffc93c3860e938c0d12d7397bb41b3d80d20a",
      "blockHash": "0x30c209de5337a3d1228c499ed62cd2707d96014703410c86cc882a7671ac4c48",
      "blockNumber": 89351,
      "transactionIndex": 0,
      "confirmations": null,
      "from": "0x663F37156fa35DBA128c9682f13D515b68002002",
      "gasPrice": {
        "_hex": "0xba43b7400"
      },
      "gasLimit": {
        "_hex": "0x5208"
      },
      "to": "0xC47Aaa860008be6f65B58c6C6E02a84e666EfE31",
      "value": {
        "_hex": "0x340a717230e6c6000"
      },
      "nonce": 2,
      "data": "0x",
      "r": "0x6beb18e34a05eedc5674acfd752fabcb6781411298c1a9d9114e863989ab832b",
      "s": "0x77628c14dab5cb5bbd5d65cd00d9b82e43b0f648bf01a5d097250990ba1610e2",
      "v": 27,
      "creates": null,
      "raw": "0xf86d02850ba43b740082520894c47aaa860008be6f65b58c6c6e02a84e666efe31890340a717230e6c6000801ba06beb18e34a05eedc5674acfd752fabcb6781411298c1a9d9114e863989ab832ba077628c14dab5cb5bbd5d65cd00d9b82e43b0f648bf01a5d097250990ba1610e2",
      "networkId": 0,
      "chainId": 0
    }
  ]
}