{
  "hash": "0xe23588e507a77502f1f81e69689a582e99a3ef1540e5dd62d0fb38eef362a668",
  "parentHash": "0x14da3ae5d857a8aad07ca1c2ccfa4373d717fd40dee754f59d13994fe69169a3",
  "number": 109876,
  "timestamp": 1439964142,
  "nonce": "0xb47847e352e2ba27",
  "difficulty": 4395153041209,
  "gasLimit": {
    "_hex": "0x2fefd8"
  },
  "gasUsed": {
    "_hex": "0x5208"
  },
  "miner": "0xe6A7a1d47ff21B6321162AEA7C6CB457D5476Bca",
  "extraData": "0x476574682f76312e302e312d38326566323666362f6c696e75782f676f312e34",
  "transactions": [
    {
      "hash": "0x4b404d346f056698e4a10b18bcc944a7637a4bc513a6055d309ddfe7952c0405",
      "blockHash": "0xe23588e507a77502f1f81e69689a582e99a3ef1540e5dd62d0fb38eef362a668",
      "blockNumber": 109876,
      "transactionIndex": 0,
      "confirmations": null,
      "from": "0x001bC0Ef77194c76bCf47CD4afFa70Fd84c138EA",
      "gasPrice": {
        "_hex": "0xba43b7400"
      },
      "gasLimit": {
        "_hex": "0x5b04"
      },
      "to": "0xB90a2809c2E22c4Ff9997A58Bd5B96fA2195D7Eb",
      "value": {
        "_hex": "0x3635c9adc5dea00000"
      },
      "nonce": 1,
      "data": "0x",
      "r": "0xda2ce811f8256e4640aeb4208865c9df606fab49833b35f4cb53d1cd0fea4dc6",
      "s": "0x45116e19c53d0486c69c2dfe30a7c447c0a8f11aab424b0a2f0e44ebc12c2d2f",
      "v": 28,
      "creates": null,
      "raw": "0xf86d01850ba43b7400825b0494b90a2809c2e22c4ff9997a58bd5b96fa2195d7eb893635c9adc5dea00000801ca0da2ce811f8256e4640aeb4208865c9df606fab49833b35f4cb53d1cd0fea4dc6a045116e19c53d0486c69c2dfe30a7c447c0a8f11aab424b0a2f0e44ebc12c2d2f",
      "networkId": 0,
      "chainId": 0
    }
  ]
}