{
  "hash": "0x0cc3a29497331c3afb8b22cd2fe92f8932335434f2b63b3eb365d98fe682cc5b",
  "parentHash": "0x7e07988e68d77d56ea32bb12fba5b34072a23b65661f7fbd7f90c30266a40c53",
  "number": 100189,
  "timestamp": 1439802340,
  "nonce": "0x443ede61e5171e59",
  "difficulty": 3836076465959,
  "gasLimit": {
    "_hex": "0x2fefd8"
  },
  "gasUsed": {
    "_hex": "0xa410"
  },
  "miner": "0xe6A7a1d47ff21B6321162AEA7C6CB457D5476Bca",
  "extraData": "0x476574682f76312e302e312d38326566323666362f6c696e75782f676f312e34",
  "transactions": [
    {
      "hash": "0x79a9b8f59dacf472807606f0b420a79584e1dba3777d78f45bb3f1a6023a65c8",
      "blockHash": "0x0cc3a29497331c3afb8b22cd2fe92f8932335434f2b63b3eb365d98fe682cc5b",
      "blockNumber": 100189,
      "transactionIndex": 0,
      "confirmations": null,
      "from": "0x34d34F0a638F6991e4E2536F41295DF6E934A646",
      "gasPrice": {
        "_hex": "0xdf6711634"
      },
      "gasLimit": {
        "_hex": "0x5208"
      },
      "to": "0x32Be343B94f860124dC4fEe278FDCBD38C102D88",
      "value": {
        "_hex": "0x99c12aaccec6b000"
      },
      "nonce": 18,
      "data": "0x",
      "r": "0x77f28e744674497c62e8a0e35db63a9dec674cc4da09fb73fe364a82d9f8c021",
      "s": "0x731fd7c30291f49f20b639c5f64aa07cde997d03298a4479ea76b2358157bd47",
      "v": 27,
      "creates": null,
      "raw": "0xf86c12850df67116348252089432be343b94f860124dc4fee278fdcbd38c102d888899c12aaccec6b000801ba077f28e744674497c62e8a0e35db63a9dec674cc4da09fb73fe364a82d9f8c021a0731fd7c30291f49f20b639c5f64aa07cde997d03298a4479ea76b2358157bd47",
      "networkId": 0,
      "chainId": 0
    },
    {
      "hash": "0x86912f690717c87bb9c106c5d29bcf51e16f070b097a5520862eab8537adb13d",
      "blockHash": "0x0cc3a29497331c3afb8b22cd2fe92f8932335434f2b63b3eb365d98fe682cc5b",
      "blockNumber": 100189,
      "transactionIndex": 1,
      "confirmations": null,
      "from": "0x48659D8f8C9A2FD44F68daA55d23A608FBE500DC",
      "gasPrice": {
        "_hex": "0xd6d9651bf"
      },
      "gasLimit": {
        "_hex": "0x15f90"
      },
      "to": "0xBB33a4b72d92FA335a3b591Ce7eE217f7a7338C1",
      "value": {
        "_hex": "0xf9ccd8a1c5080000"
      },
      "nonce": 8,
      "data": "0x",
      "r": "0xcc1c7b83fbec72251f06b2893287ab9ca98767e9f676898982404b2b453b7353",
      "s": "0x7b6750315b628bae1db7ac0603fe5959f13379e8176670571b113f59618db6f7",
      "v": 28,
      "creates": null,
      "raw": "0xf86d08850d6d9651bf83015f9094bb33a4b72d92fa335a3b591ce7ee217f7a7338c188f9ccd8a1c5080000801ca0cc1c7b83fbec72251f06b2893287ab9ca98767e9f676898982404b2b453b7353a07b6750315b628bae1db7ac0603fe5959f13379e8176670571b113f59618db6f7",
      "networkId": 0,
      "chainId": 0
    }
  ]
}