{
  "hash": "0x1ae08de14e5c879e9fe0716e06a44f44369f6b1ffd18185f9f5567979c5024ef",
  "parentHash": "0x08ef63647e88a69ca6ea0bd339a56b5af5c76b7d8135d0e1cef53ec6d811d214",
  "number": 118203,
  "timestamp": 1440122190,
  "nonce": "0x0357c2fcb2ea1ddc",
  "difficulty": 4320609212788,
  "gasLimit": {
    "_hex": "0x2fefd8"
  },
  "gasUsed": {
    "_hex": "0x5208"
  },
  "miner": "0x52bc44d5378309EE2abF1539BF71dE1b7d7bE3b5",
  "extraData": "0xd783010002844765746887676f312e342e32856c696e7578",
  "transactions": [
    {
      "hash": "0x3ab0ca65e257d3a9047ed0497daa36f18c47922d6bfdbb6fe83f9b7d0e937aa8",
      "blockHash": "0x1ae08de14e5c879e9fe0716e06a44f44369f6b1ffd18185f9f5567979c5024ef",
      "blockNumber": 118203,
      "transactionIndex": 0,
      "confirmations": null,
      "from": "0x007f7f58D3eb5b7510A301eCC749FC1fCDDBE14D",
      "gasPrice": {
        "_hex": "0xba43b7400"
      },
      "gasLimit": {
        "_hex": "0x15f90"
      },
      "to": "0xb1abce2918E21ddb93AA452731a12672A3d9F75a",
      "value": {
        "_hex": "0x4563918244f40000"
      },
      "nonce": 335,
      "data": "0x",
      "r": "0x555084334bb3192046560ea55baabb7e87a0214fbd0a90884753d6200a353676",
      "s": "0x6abd75384a97de34180bb86c7e0613904e6da2e031b125c592927736b2432d94",
      "v": 27,
      "creates": null,
      "raw": "0xf86f82014f850ba43b740083015f9094b1abce2918e21ddb93aa452731a12672a3d9f75a884563918244f40000801ba0555084334bb3192046560ea55baabb7e87a0214fbd0a90884753d6200a353676a06abd75384a97de34180bb86c7e0613904e6da2e031b125c592927736b2432d94",
      "networkId": 0,
      "chainId": 0
    }
  ]
}