{
  "hash": "0x93eb5143a6a4131a2b07fdf674ca39fe2a719236dc472e723ab23af3c0148e70",
  "parentHash": "0x03be15827c5dd6e181be6eca5fa9c9c177e543632fa30e204742282488490995",
  "number": 83766,
  "timestamp": 1439540550,
  "nonce": "0x00230863d953c00d",
  "difficulty": 2444330131198,
  "gasLimit": {
    "_hex": "0x2fefd8"
  },
  "gasUsed": {
    "_hex": "0x5208"
  },
  "miner": "0x9746c7e1ef2bd21FF3997fa467593a89cb852BD0",
  "extraData": "0x476574682f76312e302e312f77696e646f77732f676f312e342e32",
  "transactions": [
    {
      "hash": "0x8ba40fb6254d9b2530d311ef5f216432a8f88d152e9598aa715563a9812052e2",
      "blockHash": "0x93eb5143a6a4131a2b07fdf674ca39fe2a719236dc472e723ab23af3c0148e70",
      "blockNumber": 83766,
      "transactionIndex": 0,
      "confirmations": null,
      "from": "0xAaf5B207b88B0dE4Ac40d747CEE06e172dF6E745",
      "gasPrice": {
        "_hex": "0xdb467b7c0"
      },
      "gasLimit": {
        "_hex": "0x5208"
      },
      "to": "0xDA3399B554b6Ab5Da37Dc30F7211076390B672AB",
      "value": {
        "_hex": "0x5e87647a376f6700000"
      },
      "nonce": 1,
      "data": "0x",
      "r": "0x5310a0969919ba9644b2b0f7ef37aafb6c50680747d974b2f96f2ef124f8e8f3",
      "s": "0x58be7eff4387d80fbfd7d296aa46283b5758ee916eb9bd9f02fac39cd78950fa",
      "v": 27,
      "creates": null,
      "raw": "0xf86e01850db467b7c082520894da3399b554b6ab5da37dc30f7211076390b672ab8a05e87647a376f6700000801ba05310a0969919ba9644b2b0f7ef37aafb6c50680747d974b2f96f2ef124f8e8f3a058be7eff4387d80fbfd7d296aa46283b5758ee916eb9bd9f02fac39cd78950fa",
      "networkId": 0,
      "chainId": 0
    }
  ]
}