{
  "hash": "0x5cf44a89fb31213afcb9e6b9cbab16ee76183a85e605794d4c2f590a128ab160",
  "parentHash": "0x030937aa122111ec573a49c65e5699619ee72dfa154290386af55acbb7aa613d",
  "number": 78063,
  "timestamp": 1439447653,
  "nonce": "0xa27811c69acf0781",
  "difficulty": 2285488671212,
  "gasLimit": {
    "_hex": "0x2fefd8"
  },
  "gasUsed": {
    "_hex": "0x5208"
  },
  "miner": "0xf8E0CA3Ed80bd541b94BEdCf259e8CF2141A9523",
  "extraData": "0x476574682f76312e302e312f77696e646f77732f676f312e342e32",
  "transactions": [
    {
      "hash": "0x69d3fa892ab129454d9397d6ad3909dd207609c6025c0e3317ebfdfe8e73f78e",
      "blockHash": "0x5cf44a89fb31213afcb9e6b9cbab16ee76183a85e605794d4c2f590a128ab160",
      "blockNumber": 78063,
      "transactionIndex": 0,
      "confirmations": null,
      "from": "0x1C8eCebAD1FDa19EF7701CF4Ca45033a34a6da31",
      "gasPrice": {
        "_hex": "0xce4339f0b"
      },
      "gasLimit": {
        "_hex": "0x15f90"
      },
      "to": "0x1a3520453582c718a21c42375BC50773255253e1",
      "value": {
        "_hex": "0xb1a2bc2ec50000"
      },
      "nonce": 0,
      "data": "0x",
      "r": "0x531c870cfa73185a3518f69c01146ddf85362695969222c41c25bbf844e0c541",
      "s": "0x48b71860bccb192ab93439a792c5c3657ecf3744032c7682257a8e4ccfb29f2f",
      "v": 28,
      "creates": null,
      "raw": "0xf86c80850ce4339f0b83015f90941a3520453582c718a21c42375bc50773255253e187b1a2bc2ec50000801ca0531c870cfa73185a3518f69c01146ddf85362695969222c41c25bbf844e0c541a048b71860bccb192ab93439a792c5c3657ecf3744032c7682257a8e4ccfb29f2f",
      "networkId": 0,
      "chainId": 0
    }
  ]
}