{
  "hash": "0x164a632c613b22b734569ddc23e13354611402b6bf68d5e6f885d746c6087c46",
  "parentHash": "0x1dfd1ed693fe0236627759e1992b54337f948f9c4414a891537261a0a0f9e30a",
  "number": 88830,
  "timestamp": 1439614257,
  "nonce": "0x7723f9fc0ca36009",
  "difficulty": 3233098269942,
  "gasLimit": {
    "_hex": "0x2fefd8"
  },
  "gasUsed": {
    "_hex": "0x5208"
  },
  "miner": "0x157c6f2431eB1a95797EE86F7d17b3c0FD47A247",
  "extraData": "0x476574682f76312e302e312f77696e646f77732f676f312e342e32",
  "transactions": [
    {
      "hash": "0xd6403c1f4bf57c226776dd3e31e5388a966241d66cabf74209e078bae9b522a8",
      "blockHash": "0x164a632c613b22b734569ddc23e13354611402b6bf68d5e6f885d746c6087c46",
      "blockNumber": 88830,
      "transactionIndex": 0,
      "confirmations": null,
      "from": "0x2910543Af39abA0Cd09dBb2D50200b3E800A63D2",
      "gasPrice": {
        "_hex": "0xd6c846f17"
      },
      "gasLimit": {
        "_hex": "0x5208"
      },
      "to": "0x02020D22dCF88f5eDd66B382D7da019F161fB7e3",
      "value": {
        "_hex": "0x1ea0f33a806fb40000"
      },
      "nonce": 739,
      "data": "0x",
      "r": "0xbeda2642bb828b9f3bc8285372ad9320fa5a17d073b20f3d5bbf3b46c3fafd81",
      "s": "0x7444a6a3be9712936e06e19305065b526bf58ffaf8188f4f0ec91a6c5166b5dc",
      "v": 28,
      "creates": null,
      "raw": "0xf86f8202e3850d6c846f178252089402020d22dcf88f5edd66b382d7da019f161fb7e3891ea0f33a806fb40000801ca0beda2642bb828b9f3bc8285372ad9320fa5a17d073b20f3d5bbf3b46c3fafd81a07444a6a3be9712936e06e19305065b526bf58ffaf8188f4f0ec91a6c5166b5dc",
      "networkId": 0,
      "chainId": 0
    }
  ]
}