{
  "hash": "0x91d0594838629367c58e878aea1a745edc4d6e6ae806b2192dc5261966709197",
  "parentHash": "0x322bb7222b44cbbc0440bcfc25c27cca960a946a99cfd37ed89f875ffd303dbf",
  "number": 83417,
  "timestamp": 1439535040,
  "nonce": "0x9cd05019c3391753",
  "difficulty": 2428964555542,
  "gasLimit": {
    "_hex": "0x2fe3db"
  },
  "gasUsed": {
    "_hex": "0xa410"
  },
  "miner": "0xe87b14B387870E6ed0d84939D874AFdb2045e490",
  "extraData": "0x476574682f76312e302e312f6c696e75782f676f312e342e32",
  "transactions": [
    {
      "hash": "0x5ceaa3bfc1d6b1104160870abc2de4be0022b01d4739c0a3e0e57fa3c4ee5bb8",
      "blockHash": "0x91d0594838629367c58e878aea1a745edc4d6e6ae806b2192dc5261966709197",
      "blockNumber": 83417,
      "transactionIndex": 0,
      "confirmations": null,
      "from": "0x2514be71B2d397F35A618Eb5d6BA6516a0E0c3a5",
      "gasPrice": {
        "_hex": "0xcdb0c9b01"
      },
      "gasLimit": {
        "_hex": "0x5208"
      },
      "to": "0x32Be343B94f860124dC4fEe278FDCBD38C102D88",
      "value": {
        "_hex": "0xac998239c71318000"
      },
      "nonce": 0,
      "data": "0x",
      "r": "0x26ba774c6f1f4398b64b75c69255f293c02b32292859fdbba9edb0b71dc1543b",
      "s": "0x457baec9e247e83c39638be3ef71747289262991c7b67561bec17d320abcafcc",
      "v": 27,
      "creates": null,
      "raw": "0xf86d80850cdb0c9b018252089432be343b94f860124dc4fee278fdcbd38c102d88890ac998239c71318000801ba026ba774c6f1f4398b64b75c69255f293c02b32292859fdbba9edb0b71dc1543ba0457baec9e247e83c39638be3ef71747289262991c7b67561bec17d320abcafcc",
      "networkId": 0,
      "chainId": 0
    },
    {
      "hash": "0xcdb19e347d94893e85f60039c77f71e215688d44c62a5c5a564a6d3e7abf01a0",
      "blockHash": "0x91d0594838629367c58e878aea1a745edc4d6e6ae806b2192dc5261966709197",
      "blockNumber": 83417,
      "transactionIndex": 1,
      "confirmations": null,
      "from": "0xa70a9a7040d542C632D8e0bE7c5513A8a5Bbc752",
      "gasPrice": {
        "_hex": "0xcdb0c9b01"
      },
      "gasLimit": {
        "_hex": "0x5208"
      },
      "to": "0x32Be343B94f860124dC4fEe278FDCBD38C102D88",
      "value": {
        "_hex": "0x478eba3e45591000"
      },
      "nonce": 72,
      "data": "0x",
      "r": "0x01759868e7053b1c2fe6769cd0985e98b08e13663ec1dc5eb1afa9ef9110c621",
      "s": "0x757c55a1a365b8e4cdc23d708dcdc53b3249e05aa55fe008be8d283e6c9658da",
      "v": 28,
      "creates": null,
      "raw": "0xf86c48850cdb0c9b018252089432be343b94f860124dc4fee278fdcbd38c102d8888478eba3e45591000801ca001759868e7053b1c2fe6769cd0985e98b08e13663ec1dc5eb1afa9ef9110c621a0757c55a1a365b8e4cdc23d708dcdc53b3249e05aa55fe008be8d283e6c9658da",
      "networkId": 0,
      "chainId": 0
    }
  ]
}