{
  "hash": "0x71c2f50cf0bedfa8f7bd8c6aecab50c38a6f1e8940ffcd85bd5f3b8d7f576e0b",
  "parentHash": "0x98815e5f7b9ab2d68e6e53d53020080218484eaabc4c550c6e9d8dcae6d581e3",
  "number": 68626,
  "timestamp": 1439291001,
  "nonce": "0x806d7a4a1162b046",
  "difficulty": 2022166930218,
  "gasLimit": {
    "_hex": "0x2fefd8"
  },
  "gasUsed": {
    "_hex": "0x12988c"
  },
  "miner": "0x157c6f2431eB1a95797EE86F7d17b3c0FD47A247",
  "extraData": "0x476574682f76312e302e312f77696e646f77732f676f312e342e32",
  "transactions": [
    {
      "hash": "0x943039ab99892abc79332d9144c09e773d33594edbdf5ec5b58029366a6698dc",
      "blockHash": "0x71c2f50cf0bedfa8f7bd8c6aecab50c38a6f1e8940ffcd85bd5f3b8d7f576e0b",
      "blockNumber": 68626,
      "transactionIndex": 0,
      "confirmations": null,
      "from": "0xF88A2Def459a4840313B08813A3085E62bD26E4e",
      "gasPrice": {
        "_hex": "0xba43b7400"
      },
      "gasLimit": {
        "_hex": "0x15f90"
      },
      "to": "0x793AE8C1b1a160BFc07BFB0d04F85eab1A71F4f2",
      "value": {
        "_hex": "0x0"
      },
      "nonce": 0,
      "data": "0x3ba15036",
      "r": "0x5a225ece940081dd0c85fe370cbcba12961d48657006b9521b9c8275a13aadd1",
      "s": "0x74ad38be69193a4c7f56c2edb7b44c004ff65a184feb7a69190ee6e3c87d2ce7",
      "v": 28,
      "creates": null,
      "raw": "0xf86980850ba43b740083015f9094793ae8c1b1a160bfc07bfb0d04f85eab1a71f4f280843ba150361ca05a225ece940081dd0c85fe370cbcba12961d48657006b9521b9c8275a13aadd1a074ad38be69193a4c7f56c2edb7b44c004ff65a184feb7a69190ee6e3c87d2ce7",
      "networkId": 0,
      "chainId": 0
    },
    {
      "hash": "0x9cc8558d57c7e8f65a15aad896a2036ba852a464316e2d38054dfd2970a91797",
      "blockHash": "0x71c2f50cf0bedfa8f7bd8c6aecab50c38a6f1e8940ffcd85bd5f3b8d7f576e0b",
      "blockNumber": 68626,
      "transactionIndex": 1,
      "confirmations": null,
      "from": "0x66F8f93C8D942521159826f023FaE6Bea2fCb3D0",
      "gasPrice": {
        "_hex": "0xba43b7400"
      },
      "gasLimit": {
        "_hex": "0x15f90"
      },
      "to": "0x793AE8C1b1a160BFc07BFB0d04F85eab1A71F4f2",
      "value": {
        "_hex": "0x0"
      },
      "nonce": 0,
      "data": "0x3ba15036",
      "r": "0x900e913fc7e4bc9541dea3871bc4f0dfe4184b7d73e5dae7db3ccf28a225c6a8",
      "s": "0x43d1ae85194cfeeb5996b86260d07d91e3fdbe30098c4db67f8d9296a1c2ac93",
      "v": 27,
      "creates": null,
      "raw": "0xf86980850ba43b740083015f9094793ae8c1b1a160bfc07bfb0d04f85eab1a71f4f280843ba150361ba0900e913fc7e4bc9541dea3871bc4f0dfe4184b7d73e5dae7db3ccf28a225c6a8a043d1ae85194cfeeb5996b86260d07d91e3fdbe30098c4db67f8d9296a1c2ac93",
      "networkId": 0,
      "chainId": 0
    },
    {
      "hash": "0x57f21a2b9100a1521becb9d3ea05902e7c24b2e7cd66299aa8b5bf54a51fba06",
      "blockHash": "0x71c2f50cf0bedfa8f7bd8c6aecab50c38a6f1e8940ffcd85bd5f3b8d7f576e0b",
      "blockNumber": 68626,
      "transactionIndex": 2,
      "confirmations": null,
      "from": "0x7e3c2Eb24B4e9a798be2286e8789dDEA28967D4b",
      "gasPrice": {
        "_hex": "0xba43b7400"
      },
      "gasLimit": {
        "_hex": "0x15f90"
      },
      "to": "0x793AE8C1b1a160BFc07BFB0d04F85eab1A71F4f2",
      "value": {
        "_hex": "0x0"
      },
      "nonce": 0,
      "data": "0x3ba15036",
      "r": "0x563dbe9b6d6d3647ab4e692ad6f93babcac1e49d88a3ffa5e3cb29b3f3ac8167",
      "s": "0x56e653cba331e28ed5450c64b7c45957f37f2bfac24eddddfdf32495c3fb0121",
      "v": 27,
      "creates": null,
      "raw": "0xf86980850ba43b740083015f9094793ae8c1b1a160bfc07bfb0d04f85eab1a71f4f280843ba150361ba0563dbe9b6d6d3647ab4e692ad6f93babcac1e49d88a3ffa5e3cb29b3f3ac8167a056e653cba331e28ed5450c64b7c45957f37f2bfac24eddddfdf32495c3fb0121",
      "networkId": 0,
      "chainId": 0
    },
    {
      "hash": "0xaa444c3c6151b50fb8229dbc14ea45b6554142a0bc32fbe3c831322f99abd68a",
      "blockHash": "0x71c2f50cf0bedfa8f7bd8c6aecab50c38a6f1e8940ffcd85bd5f3b8d7f576e0b",
      "blockNumber": 68626,
      "transactionIndex": 3,
      "confirmations": null,
      "from": "0xA001dF463464b81EF303B244E25fcbCE459Ba042",
      "gasPrice": {
        "_hex": "0xba43b7400"
      },
      "gasLimit": {
        "_hex": "0x15f90"
      },
      "to": "0x793AE8C1b1a160BFc07BFB0d04F85eab1A71F4f2",
      "value": {
        "_hex": "0x0"
      },
      "nonce": 0,
      "data": "0x3ba15036",
      "r": "0x8eba3031cacedae209ae6a9aaf54cf6b301b24a05c1415d3035b3bf7a9283cf6",
      "s": "0x44a3ffd5dcc5828aeb8c36c8d0437461f1433405bd39f57a99797c7f7e51f995",
      "v": 27,
      "creates": null,
      "raw": "0xf86980850ba43b740083015f9094793ae8c1b1a160bfc07bfb0d04f85eab1a71f4f280843ba150361ba08eba3031cacedae209ae6a9aaf54cf6b301b24a05c1415d3035b3bf7a9283cf6a044a3ffd5dcc5828aeb8c36c8d0437461f1433405bd39f57a99797c7f7e51f995",
      "networkId": 0,
      "chainId": 0
    },
    {
      "hash": "0xa017ade165e20f6280379d0da21f90657f3ebc81494906c4da0f8d5ed5421837",
      "blockHash": "0x71c2f50cf0bedfa8f7bd8c6aecab50c38a6f1e8940ffcd85bd5f3b8d7f576e0b",
      "blockNumber": 68626,
      "transactionIndex": 4,
      "confirmations": null,
      "from": "0x826E4614196fE2A30F373E99Ab439DDBE84381d7",
      "gasPrice": {
        "_hex": "0xba43b7400"
      },
      "gasLimit": {
        "_hex": "0x15f90"
      },
      "to": "0x793AE8C1b1a160BFc07BFB0d04F85eab1A71F4f2",
      "value": {
        "_hex": "0x0"
      },
      "nonce": 0,
      "data": "0x3ba15036",
      "r": "0x5dffb9f780363966f0a6d9e77d3f0723d6cb27d6d559b83638482e1983f4c7f7",
      "s": "0x4c22912e1580e262fe7b7b0dd32c1d9fa7af2081f3597c3750f88c44c78255c9",
      "v": 27,
      "creates": null,
      "raw": "0xf86980850ba43b740083015f9094793ae8c1b1a160bfc07bfb0d04f85eab1a71f4f280843ba150361ba05dffb9f780363966f0a6d9e77d3f0723d6cb27d6d559b83638482e1983f4c7f7a04c22912e1580e262fe7b7b0dd32c1d9fa7af2081f3597c3750f88c44c78255c9",
      "networkId": 0,
      "chainId": 0
    },
    {
      "hash": "0xf6d264fef037555d113545b7c2cea736a656f127d943bf449360d096045ea344",
      "blockHash": "0x71c2f50cf0bedfa8f7bd8c6aecab50c38a6f1e8940ffcd85bd5f3b8d7f576e0b",
      "blockNumber": 68626,
      "transactionIndex": 5,
      "confirmations": null,
      "from": "0x12Ab697CAA725e156dA8e07fFEEe8AeDd33f1EE6",
      "gasPrice": {
        "_hex": "0xba43b7400"
      },
      "gasLimit": {
        "_hex": "0x15f90"
      },
      "to": "0x793AE8C1b1a160BFc07BFB0d04F85eab1A71F4f2",
      "value": {
        "_hex": "0x0"
      },
      "nonce": 0,
      "data": "0x3ba15036",
      "r": "0x75fbe19c88ce69c56f78206b70013e97bf47794ab6a12ca421d8034b361497d5",
      "s": "0x42052b6d251e832dafdbcab24c0ba600570492f174136643986267cf93be30ac",
      "v": 27,
      "creates": null,
      "raw": "0xf86980850ba43b740083015f9094793ae8c1b1a160bfc07bfb0d04f85eab1a71f4f280843ba150361ba075fbe19c88ce69c56f78206b70013e97bf47794ab6a12ca421d8034b361497d5a042052b6d251e832dafdbcab24c0ba600570492f174136643986267cf93be30ac",
      "networkId": 0,
      "chainId": 0
    },
    {
      "hash": "0x5da2421611de9d0ae0cc51cae49874b67bd1dced4aab284bb26b952a822fed60",
      "blockHash": "0x71c2f50cf0bedfa8f7bd8c6aecab50c38a6f1e8940ffcd85bd5f3b8d7f576e0b",
      "blockNumber": 68626,
      "transactionIndex": 6,
      "confirmations": null,
      "from": "0xB9CE1E0E34DCE7Be4D0DA790F206bEa69cE2c224",
      "gasPrice": {
        "_hex": "0xba43b7400"
      },
      "gasLimit": {
        "_hex": "0x15f90"
      },
      "to": "0x793AE8C1b1a160BFc07BFB0d04F85eab1A71F4f2",
      "value": {
        "_hex": "0x0"
      },
      "nonce": 0,
      "data": "0x3ba15036",
      "r": "0x642c68689cc87c1148eafea07b50ab426f13d80267625849c24b6b0b109839d3",
      "s": "0x753549dc865433de5863fca86cc5dd3f19b1287fb50a6f86bb8fa55a468d4be2",
      "v": 27,
      "creates": null,
      "raw": "0xf86980850ba43b740083015f9094793ae8c1b1a160bfc07bfb0d04f85eab1a71f4f280843ba150361ba0642c68689cc87c1148eafea07b50ab426f13d80267625849c24b6b0b109839d3a0753549dc865433de5863fca86cc5dd3f19b1287fb50a6f86bb8fa55a468d4be2",
      "networkId": 0,
      "chainId": 0
    },
    {
      "hash": "0x564430610c80bcbb778174e06bd0e15688dfe11e88701c80b139266f6c5dba13",
      "blockHash": "0x71c2f50cf0bedfa8f7bd8c6aecab50c38a6f1e8940ffcd85bd5f3b8d7f576e0b",
      "blockNumber": 68626,
      "transactionIndex": 7,
      "confirmations": null,
      "from": "0xDe6B086F67C7dfBCB4BbA0f0B3Be2dFF4Bd510a7",
      "gasPrice": {
        "_hex": "0xba43b7400"
      },
      "gasLimit": {
        "_hex": "0x15f90"
      },
      "to": "0x793AE8C1b1a160BFc07BFB0d04F85eab1A71F4f2",
      "value": {
        "_hex": "0x0"
      },
      "nonce": 0,
      "data": "0x3ba15036",
      "r": "0xe0dd5cf1d55062d1210b0c40c3a9024a5422a3239f2ba342f8da396863a20fdb",
      "s": "0x391bea1d1ff8dbfa63583b38631c8c1252e36758c90310c5ad598ea5e5c701c5",
      "v": 27,
      "creates": null,
      "raw": "0xf86980850ba43b740083015f9094793ae8c1b1a160bfc07bfb0d04f85eab1a71f4f280843ba150361ba0e0dd5cf1d55062d1210b0c40c3a9024a5422a3239f2ba342f8da396863a20fdba0391bea1d1ff8dbfa63583b38631c8c1252e36758c90310c5ad598ea5e5c701c5",
      "networkId": 0,
      "chainId": 0
    },
    {
      "hash": "0x9f5f949729c8112e4d46bcbeef895ede24cef79973f010531ad13ee132ad5696",
      "blockHash": "0x71c2f50cf0bedfa8f7bd8c6aecab50c38a6f1e8940ffcd85bd5f3b8d7f576e0b",
      "blockNumber": 68626,
      "transactionIndex": 8,
      "confirmations": null,
      "from": "0xA79dDbbabde78C010617C76A81DEc1E1E5fD289A",
      "gasPrice": {
        "_hex": "0xba43b7400"
      },
      "gasLimit": {
        "_hex": "0x15f90"
      },
      "to": "0x793AE8C1b1a160BFc07BFB0d04F85eab1A71F4f2",
      "value": {
        "_hex": "0x0"
      },
      "nonce": 0,
      "data": "0x3ba15036",
      "r": "0x427da84e50650d5b958a5ff8d75df05837676c6a14e7246951e1f10437089d2d",
      "s": "0x673534843f62612e1ae7e35f515421a1ff86f75f7ee3221b10a367ae28c3de6a",
      "v": 28,
      "creates": null,
      "raw": "0xf86980850ba43b740083015f9094793ae8c1b1a160bfc07bfb0d04f85eab1a71f4f280843ba150361ca0427da84e50650d5b958a5ff8d75df05837676c6a14e7246951e1f10437089d2da0673534843f62612e1ae7e35f515421a1ff86f75f7ee3221b10a367ae28c3de6a",
      "networkId": 0,
      "chainId": 0
    },
    {
      "hash": "0xaf427f6c68b2d877624512393bb226676f6ec868573547bed913b7e302132bf5",
      "blockHash": "0x71c2f50cf0bedfa8f7bd8c6aecab50c38a6f1e8940ffcd85bd5f3b8d7f576e0b",
      "blockNumber": 68626,
      "transactionIndex": 9,
      "confirmations": null,
      "from": "0x5DA37cd0855f0be39Ee8157Ac42Ef60070218cb3",
      "gasPrice": {
        "_hex": "0xba43b7400"
      },
      "gasLimit": {
        "_hex": "0x15f90"
      },
      "to": "0x793AE8C1b1a160BFc07BFB0d04F85eab1A71F4f2",
      "value": {
        "_hex": "0x0"
      },
      "nonce": 0,
      "data": "0x3ba15036",
      "r": "0x53727446af58c0979158c5ecc1ac919ca3ccd4c7e4e7f401fb5aaf14994b0ec4",
      "s": "0x76733f82d0f63f4faf9b08c326caafd59d8da1d50ee17637295fc03b9704f63b",
      "v": 27,
      "creates": null,
      "raw": "0xf86980850ba43b740083015f9094793ae8c1b1a160bfc07bfb0d04f85eab1a71f4f280843ba150361ba053727446af58c0979158c5ecc1ac919ca3ccd4c7e4e7f401fb5aaf14994b0ec4a076733f82d0f63f4faf9b08c326caafd59d8da1d50ee17637295fc03b9704f63b",
      "networkId": 0,
      "chainId": 0
    },
    {
      "hash": "0x61dd3651745072e281384309a3a5b19940fbdb6527e6536302c079abcb4241fc",
      "blockHash": "0x71c2f50cf0bedfa8f7bd8c6aecab50c38a6f1e8940ffcd85bd5f3b8d7f576e0b",
      "blockNumber": 68626,
      "transactionIndex": 10,
      "confirmations": null,
      "from": "0xDce5D410cd7D856aDc7033E79dB7dA12E3Ef814a",
      "gasPrice": {
        "_hex": "0xba43b7400"
      },
      "gasLimit": {
        "_hex": "0x15f90"
      },
      "to": "0x793AE8C1b1a160BFc07BFB0d04F85eab1A71F4f2",
      "value": {
        "_hex": "0x0"
      },
      "nonce": 0,
      "data": "0x3ba15036",
      "r": "0x24a892c20d43a5ff9274e7c436ad6c65a159cb6cfef21456e62282f26df4f0e4",
      "s": "0x59623106e7e9892f5fd62a200a3409d00ef45a6e8e879777f189255c1c20ed7a",
      "v": 27,
      "creates": null,
      "raw": "0xf86980850ba43b740083015f9094793ae8c1b1a160bfc07bfb0d04f85eab1a71f4f280843ba150361ba024a892c20d43a5ff9274e7c436ad6c65a159cb6cfef21456e62282f26df4f0e4a059623106e7e9892f5fd62a200a3409d00ef45a6e8e879777f189255c1c20ed7a",
      "networkId": 0,
      "chainId": 0
    },
    {
      "hash": "0x0d6cb074f3c5e00f819c3e5d91f616131b7f6f02cb685127e72758a0a54ef3de",
      "blockHash": "0x71c2f50cf0bedfa8f7bd8c6aecab50c38a6f1e8940ffcd85bd5f3b8d7f576e0b",
      "blockNumber": 68626,
      "transactionIndex": 11,
      "confirmations": null,
      "from": "0x8c4B8EF3D3cb4a743a0BaCE6609cC7512dD7bC19",
      "gasPrice": {
        "_hex": "0xba43b7400"
      },
      "gasLimit": {
        "_hex": "0x15f90"
      },
      "to": "0x793AE8C1b1a160BFc07BFB0d04F85eab1A71F4f2",
      "value": {
        "_hex": "0x0"
      },
      "nonce": 0,
      "data": "0x3ba15036",
      "r": "0x17abee82d53422e14bd42cf12e0a259a179ce68d4f37f841db2e7dcdae1b3cbe",
      "s": "0x5b691a1d00311de041446bab83c0862f12e5811539107d63d997350146bb9fde",
      "v": 28,
      "creates": null,
      "raw": "0xf86980850ba43b740083015f9094793ae8c1b1a160bfc07bfb0d04f85eab1a71f4f280843ba150361ca017abee82d53422e14bd42cf12e0a259a179ce68d4f37f841db2e7dcdae1b3cbea05b691a1d00311de041446bab83c0862f12e5811539107d63d997350146bb9fde",
      "networkId": 0,
      "chainId": 0
    },
    {
      "hash": "0x9c316161a48b6f46d8f3be9559d8f414204eda86ae7beb2ae1371969c545e34f",
      "blockHash": "0x71c2f50cf0bedfa8f7bd8c6aecab50c38a6f1e8940ffcd85bd5f3b8d7f576e0b",
      "blockNumber": 68626,
      "transactionIndex": 12,
      "confirmations": null,
      "from": "0x4F8fe6d696611d86fD17F868d3949d98298D73Fa",
      "gasPrice": {
        "_hex": "0xba43b7400"
      },
      "gasLimit": {
        "_hex": "0x15f90"
      },
      "to": "0x793AE8C1b1a160BFc07BFB0d04F85eab1A71F4f2",
      "value": {
        "_hex": "0x0"
      },
      "nonce": 0,
      "data": "0x3ba15036",
      "r": "0xb1a19c985c8858af1737a38db02a8b1b7377a70c3798f4459f0f6cac729971b2",
      "s": "0x58ac2b6dd49cfc0fc32e3380a0369a079d7552605f2e8231d869c29711489b55",
      "v": 28,
      "creates": null,
      "raw": "0xf86980850ba43b740083015f9094793ae8c1b1a160bfc07bfb0d04f85eab1a71f4f280843ba150361ca0b1a19c985c8858af1737a38db02a8b1b7377a70c3798f4459f0f6cac729971b2a058ac2b6dd49cfc0fc32e3380a0369a079d7552605f2e8231d869c29711489b55",
      "networkId": 0,
      "chainId": 0
    },
    {
      "hash": "0x231929e557982f6d95f82a159015fee76570855788de2f48d9bfa5c99d8abc60",
      "blockHash": "0x71c2f50cf0bedfa8f7bd8c6aecab50c38a6f1e8940ffcd85bd5f3b8d7f576e0b",
      "blockNumber": 68626,
      "transactionIndex": 13,
      "confirmations": null,
      "from": "0x7029A53aEc258129aD5dCb049f09101EEEf82651",
      "gasPrice": {
        "_hex": "0xba43b7400"
      },
      "gasLimit": {
        "_hex": "0x15f90"
      },
      "to": "0x793AE8C1b1a160BFc07BFB0d04F85eab1A71F4f2",
      "value": {
        "_hex": "0x0"
      },
      "nonce": 0,
      "data": "0x3ba15036",
      "r": "0xc102d2cd908094f58c649b1fe74c553714bd11cd1ecad4bd8b107179b7a2471e",
      "s": "0x4706aea615d02d41874f37fa7d10eca62e727de94968abf4cddad883b3db6f51",
      "v": 27,
      "creates": null,
      "raw": "0xf86980850ba43b740083015f9094793ae8c1b1a160bfc07bfb0d04f85eab1a71f4f280843ba150361ba0c102d2cd908094f58c649b1fe74c553714bd11cd1ecad4bd8b107179b7a2471ea04706aea615d02d41874f37fa7d10eca62e727de94968abf4cddad883b3db6f51",
      "networkId": 0,
      "chainId": 0
    },
    {
      "hash": "0x8413aa59890d86625e3b8cbd0c14380c820f1dc94616e2d45874960198b138ac",
      "blockHash": "0x71c2f50cf0bedfa8f7bd8c6aecab50c38a6f1e8940ffcd85bd5f3b8d7f576e0b",
      "blockNumber": 68626,
      "transactionIndex": 14,
      "confirmations": null,
      "from": "0xAb30a2e06438Cc77Da8Fa2f608d8B67e0A718490",
      "gasPrice": {
        "_hex": "0xba43b7400"
      },
      "gasLimit": {
        "_hex": "0x15f90"
      },
      "to": "0x793AE8C1b1a160BFc07BFB0d04F85eab1A71F4f2",
      "value": {
        "_hex": "0x0"
      },
      "nonce": 0,
      "data": "0x3ba15036",
      "r": "0xe4f8c4c37712e2b7d1ea704b5b0d5ba516fc4c4131db34c951f2fba55b1e2e70",
      "s": "0x193dc6c50751421738927af40cece52225318fcd551e2ade2f7611c07b5295ba",
      "v": 27,
      "creates": null,
      "raw": "0xf86980850ba43b740083015f9094793ae8c1b1a160bfc07bfb0d04f85eab1a71f4f280843ba150361ba0e4f8c4c37712e2b7d1ea704b5b0d5ba516fc4c4131db34c951f2fba55b1e2e70a0193dc6c50751421738927af40cece52225318fcd551e2ade2f7611c07b5295ba",
      "networkId": 0,
      "chainId": 0
    },
    {
      "hash": "0x8dd9794245ba89de163cf31257e0e8732a10d770ee120c579125303566d5050a",
      "blockHash": "0x71c2f50cf0bedfa8f7bd8c6aecab50c38a6f1e8940ffcd85bd5f3b8d7f576e0b",
      "blockNumber": 68626,
      "transactionIndex": 15,
      "confirmations": null,
      "from": "0xA567A26A854e89a79818204620f63C220b6bd950",
      "gasPrice": {
        "_hex": "0xba43b7400"
      },
      "gasLimit": {
        "_hex": "0x15f90"
      },
      "to": "0x793AE8C1b1a160BFc07BFB0d04F85eab1A71F4f2",
      "value": {
        "_hex": "0x0"
      },
      "nonce": 0,
      "data": "0x3ba15036",
      "r": "0xf4fe2141f637e51788c1a8e2e166ea9b9891138f786560ee6d3f12c91e9aee71",
      "s": "0x7b17797b49031a46976b40b3ae720801364d5f7cf18cfe7f5950d3ccb365093e",
      "v": 27,
      "creates": null,
      "raw": "0xf86980850ba43b740083015f9094793ae8c1b1a160bfc07bfb0d04f85eab1a71f4f280843ba150361ba0f4fe2141f637e51788c1a8e2e166ea9b9891138f786560ee6d3f12c91e9aee71a07b17797b49031a46976b40b3ae720801364d5f7cf18cfe7f5950d3ccb365093e",
      "networkId": 0,
      "chainId": 0
    },
    {
      "hash": "0x63144cc8374b115d896bbd25d545eeccd81fabd0d7af0656903a9f245de8a417",
      "blockHash": "0x71c2f50cf0bedfa8f7bd8c6aecab50c38a6f1e8940ffcd85bd5f3b8d7f576e0b",
      "blockNumber": 68626,
      "transactionIndex": 16,
      "confirmations": null,
      "from": "0x631028ff47e59BE70FD40C268Cd70a689387c0d4",
      "gasPrice": {
        "_hex": "0xba43b7400"
      },
      "gasLimit": {
        "_hex": "0x15f90"
      },
      "to": "0x793AE8C1b1a160BFc07BFB0d04F85eab1A71F4f2",
      "value": {
        "_hex": "0x0"
      },
      "nonce": 0,
      "data": "0x3ba15036",
      "r": "0xfc170590f4c26f777245a35a1453ee567b5e8bc379d5880fe5dfbd6d19698f05",
      "s": "0x5117bfd7392abbc814e2f0c87e53b9d974acdeecc026e55273d57d5c1bbba6b1",
      "v": 28,
      "creates": null,
      "raw": "0xf86980850ba43b740083015f9094793ae8c1b1a160bfc07bfb0d04f85eab1a71f4f280843ba150361ca0fc170590f4c26f777245a35a1453ee567b5e8bc379d5880fe5dfbd6d19698f05a05117bfd7392abbc814e2f0c87e53b9d974acdeecc026e55273d57d5c1bbba6b1",
      "networkId": 0,
      "chainId": 0
    },
    {
      "hash": "0xef091eda481990b2a92d78d91aba67a0d99208a75480790ee7b14088fff4e50c",
      "blockHash": "0x71c2f50cf0bedfa8f7bd8c6aecab50c38a6f1e8940ffcd85bd5f3b8d7f576e0b",
      "blockNumber": 68626,
      "transactionIndex": 17,
      "confirmations": null,
      "from": "0xd502FD7463d800Fa50F019A0B24B4aDF1D5778fE",
      "gasPrice": {
        "_hex": "0xba43b7400"
      },
      "gasLimit": {
        "_hex": "0x15f90"
      },
      "to": "0x793AE8C1b1a160BFc07BFB0d04F85eab1A71F4f2",
      "value": {
        "_hex": "0x0"
      },
      "nonce": 0,
      "data": "0x3ba15036",
      "r": "0x80c2dd689c5f46c26d9afc3ba0c9d97926ad94a8281e3e6c62e15b58815ff1dd",
      "s": "0x7f1e52ee99f739c1c17fe26be5e6f1ea5fa9cfaecb3521f1f39925332f4f8827",
      "v": 27,
      "creates": null,
      "raw": "0xf86980850ba43b740083015f9094793ae8c1b1a160bfc07bfb0d04f85eab1a71f4f280843ba150361ba080c2dd689c5f46c26d9afc3ba0c9d97926ad94a8281e3e6c62e15b58815ff1dda07f1e52ee99f739c1c17fe26be5e6f1ea5fa9cfaecb3521f1f39925332f4f8827",
      "networkId": 0,
      "chainId": 0
    },
    {
      "hash": "0xc570588b475bdd5182841d0bebcd446c62c686c7aae47289e4247633e86d9c1f",
      "blockHash": "0x71c2f50cf0bedfa8f7bd8c6aecab50c38a6f1e8940ffcd85bd5f3b8d7f576e0b",
      "blockNumber": 68626,
      "transactionIndex": 18,
      "confirmations": null,
      "from": "0xA781304d89969A39a7b6F9770C9307561E323E8a",
      "gasPrice": {
        "_hex": "0xba43b7400"
      },
      "gasLimit": {
        "_hex": "0x15f90"
      },
      "to": "0x793AE8C1b1a160BFc07BFB0d04F85eab1A71F4f2",
      "value": {
        "_hex": "0x0"
      },
      "nonce": 0,
      "data": "0x3ba15036",
      "r": "0x62c0ed0d99ebe2a329f9833e5267e3900657ce027a4abec8b12735d77ddcd843",
      "s": "0x59538d865f32030ca1afdf0bdfbc2da7cd7549f4fd619255e70c4bad2dc1cf8e",
      "v": 27,
      "creates": null,
      "raw": "0xf86980850ba43b740083015f9094793ae8c1b1a160bfc07bfb0d04f85eab1a71f4f280843ba150361ba062c0ed0d99ebe2a329f9833e5267e3900657ce027a4abec8b12735d77ddcd843a059538d865f32030ca1afdf0bdfbc2da7cd7549f4fd619255e70c4bad2dc1cf8e",
      "networkId": 0,
      "chainId": 0
    },
    {
      "hash": "0x9ca870f2410f1d53b4496ba7d4f7737159323ae1619f91460a98d58332a4c786",
      "blockHash": "0x71c2f50cf0bedfa8f7bd8c6aecab50c38a6f1e8940ffcd85bd5f3b8d7f576e0b",
      "blockNumber": 68626,
      "transactionIndex": 19,
      "confirmations": null,
      "from": "0xA95f4b6C49e02eD6cc7bB494Bf188BddA7249f12",
      "gasPrice": {
        "_hex": "0xba43b7400"
      },
      "gasLimit": {
        "_hex": "0x15f90"
      },
      "to": "0x793AE8C1b1a160BFc07BFB0d04F85eab1A71F4f2",
      "value": {
        "_hex": "0x0"
      },
      "nonce": 0,
      "data": "0x3ba15036",
      "r": "0x739bdab4d9d63cc3168358cecf6b75eea03e08e7a2e6a610745d8b6b93c83e52",
      "s": "0x57f5d12d4289ee6f7aeb91d8aab302efdc6205c88f87bff278de9b8705246709",
      "v": 27,
      "creates": null,
      "raw": "0xf86980850ba43b740083015f9094793ae8c1b1a160bfc07bfb0d04f85eab1a71f4f280843ba150361ba0739bdab4d9d63cc3168358cecf6b75eea03e08e7a2e6a610745d8b6b93c83e52a057f5d12d4289ee6f7aeb91d8aab302efdc6205c88f87bff278de9b8705246709",
      "networkId": 0,
      "chainId": 0
    },
    {
      "hash": "0xf799089b05712dccbab8947b5d111e0f8c5ea19b8f4842edb167532add9ed2eb",
      "blockHash": "0x71c2f50cf0bedfa8f7bd8c6aecab50c38a6f1e8940ffcd85bd5f3b8d7f576e0b",
      "blockNumber": 68626,
      "transactionIndex": 20,
      "confirmations": null,
      "from": "0x3bbe753e3D86d4c7aA531573B98f13a4676A2512",
      "gasPrice": {
        "_hex": "0xba43b7400"
      },
      "gasLimit": {
        "_hex": "0x15f90"
      },
      "to": "0x793AE8C1b1a160BFc07BFB0d04F85eab1A71F4f2",
      "value": {
        "_hex": "0x0"
      },
      "nonce": 0,
      "data": "0x3ba15036",
      "r": "0x2579d2ecde541362ee34ed04aca0031a14734b197bfeb767f9920dace2931f7e",
      "s": "0x7802a0c7a773d9ed218a23e09ff9f98132235f584930bc2da9d1f4fc62e2e200",
      "v": 28,
      "creates": null,
      "raw": "0xf86980850ba43b740083015f9094793ae8c1b1a160bfc07bfb0d04f85eab1a71f4f280843ba150361ca02579d2ecde541362ee34ed04aca0031a14734b197bfeb767f9920dace2931f7ea07802a0c7a773d9ed218a23e09ff9f98132235f584930bc2da9d1f4fc62e2e200",
      "networkId": 0,
      "chainId": 0
    },
    {
      "hash": "0xbae9c985cbd052ff2de58187b1b61ba7a5fd5e020375e531061f1336e1b5081d",
      "blockHash": "0x71c2f50cf0bedfa8f7bd8c6aecab50c38a6f1e8940ffcd85bd5f3b8d7f576e0b",
      "blockNumber": 68626,
      "transactionIndex": 21,
      "confirmations": null,
      "from": "0x04452CFf438E32994b551d0e1DF8434824FD2bD7",
      "gasPrice": {
        "_hex": "0xba43b7400"
      },
      "gasLimit": {
        "_hex": "0x15f90"
      },
      "to": "0x793AE8C1b1a160BFc07BFB0d04F85eab1A71F4f2",
      "value": {
        "_hex": "0x0"
      },
      "nonce": 0,
      "data": "0x3ba15036",
      "r": "0x7039d66ac91cbe1ab37c789e7ce05d6a52773b9bb23aea5548a6d14aef3e94da",
      "s": "0x03a1cb862f3c6dac6c4757ae949bb894e6672ec71183439c5eb36d141f89eb0a",
      "v": 27,
      "creates": null,
      "raw": "0xf86980850ba43b740083015f9094793ae8c1b1a160bfc07bfb0d04f85eab1a71f4f280843ba150361ba07039d66ac91cbe1ab37c789e7ce05d6a52773b9bb23aea5548a6d14aef3e94daa003a1cb862f3c6dac6c4757ae949bb894e6672ec71183439c5eb36d141f89eb0a",
      "networkId": 0,
      "chainId": 0
    },
    {
      "hash": "0x56c765f2ac20424bd1f2ce0f2b48adcbdf159de2306a8cbd029ff468a80c9b7a",
      "blockHash": "0x71c2f50cf0bedfa8f7bd8c6aecab50c38a6f1e8940ffcd85bd5f3b8d7f576e0b",
      "blockNumber": 68626,
      "transactionIndex": 22,
      "confirmations": null,
      "from": "0x835D8b88f120af229B01C47B708D0afa7225A18a",
      "gasPrice": {
        "_hex": "0xba43b7400"
      },
      "gasLimit": {
        "_hex": "0x15f90"
      },
      "to": "0x793AE8C1b1a160BFc07BFB0d04F85eab1A71F4f2",
      "value": {
        "_hex": "0x0"
      },
      "nonce": 0,
      "data": "0x3ba15036",
      "r": "0xe860fa8c7439c19fefb2626e424c6681c4d9bd814adda0e31dcca15303dc35e6",
      "s": "0x45323e1cb1ae8683f27e66f1038e1e95862b18dd9c7b4ea06ed6601b14536f52",
      "v": 27,
      "creates": null,
      "raw": "0xf86980850ba43b740083015f9094793ae8c1b1a160bfc07bfb0d04f85eab1a71f4f280843ba150361ba0e860fa8c7439c19fefb2626e424c6681c4d9bd814adda0e31dcca15303dc35e6a045323e1cb1ae8683f27e66f1038e1e95862b18dd9c7b4ea06ed6601b14536f52",
      "networkId": 0,
      "chainId": 0
    },
    {
      "hash": "0x641f634ab97e7c1d9e74a871127f2637ae6c55d1082bcb16f16150e69495d795",
      "blockHash": "0x71c2f50cf0bedfa8f7bd8c6aecab50c38a6f1e8940ffcd85bd5f3b8d7f576e0b",
      "blockNumber": 68626,
      "transactionIndex": 23,
      "confirmations": null,
      "from": "0xeAd21d5CFfb134488066a3C41F5B1780B4fff829",
      "gasPrice": {
        "_hex": "0xba43b7400"
      },
      "gasLimit": {
        "_hex": "0x15f90"
      },
      "to": "0x793AE8C1b1a160BFc07BFB0d04F85eab1A71F4f2",
      "value": {
        "_hex": "0x0"
      },
      "nonce": 0,
      "data": "0x3ba15036",
      "r": "0xa830cce98b7157c707cc30621dc53dab5f8be47ca89ce49274fc2352f1dee599",
      "s": "0x2cc2ff3933cedb2f240fa9afc01c1c9db8b913ee1e4ce6e73b081de1ffad3442",
      "v": 27,
      "creates": null,
      "raw": "0xf86980850ba43b740083015f9094793ae8c1b1a160bfc07bfb0d04f85eab1a71f4f280843ba150361ba0a830cce98b7157c707cc30621dc53dab5f8be47ca89ce49274fc2352f1dee599a02cc2ff3933cedb2f240fa9afc01c1c9db8b913ee1e4ce6e73b081de1ffad3442",
      "networkId": 0,
      "chainId": 0
    },
    {
      "hash": "0xd04a63b42dfb55c6872cb9471665bd5a88aa01b7b9774b459dad01819acd3a50",
      "blockHash": "0x71c2f50cf0bedfa8f7bd8c6aecab50c38a6f1e8940ffcd85bd5f3b8d7f576e0b",
      "blockNumber": 68626,
      "transactionIndex": 24,
      "confirmations": null,
      "from": "0x8a483A01606f4C6F74b66934941Ea4c9efA87a21",
      "gasPrice": {
        "_hex": "0xba43b7400"
      },
      "gasLimit": {
        "_hex": "0x15f90"
      },
      "to": "0x793AE8C1b1a160BFc07BFB0d04F85eab1A71F4f2",
      "value": {
        "_hex": "0x0"
      },
      "nonce": 0,
      "data": "0x3ba15036",
      "r": "0x1799774abff8d5ec13d653c19deff6ee55050d8599d60fc8fa0d1c8287f4c918",
      "s": "0x1057533f55ae76ff028973bab231be3976bea93eab67e4fb19655ae64276297e",
      "v": 27,
      "creates": null,
      "raw": "0xf86980850ba43b740083015f9094793ae8c1b1a160bfc07bfb0d04f85eab1a71f4f280843ba150361ba01799774abff8d5ec13d653c19deff6ee55050d8599d60fc8fa0d1c8287f4c918a01057533f55ae76ff028973bab231be3976bea93eab67e4fb19655ae64276297e",
      "networkId": 0,
      "chainId": 0
    }
  ]
}