{
  "hash": "0x4142966e11d9db2589d90d3d06ab11eaafcc36b6b593212591745a9fb98259da",
  "parentHash": "0xf1b0ba1fcc37ca5d54e4c38fb4e1045ea5c9bcf7ab22fe9cb225270b1d96a60e",
  "number": 69275,
  "timestamp": 1439301087,
  "nonce": "0x99ccb03042020932",
  "difficulty": 2066931138260,
  "gasLimit": {
    "_hex": "0x2fefd8"
  },
  "gasUsed": {
    "_hex": "0xae510"
  },
  "miner": "0x47ff6576639c2e94762eA5443978D7681C0E78DC",
  "extraData": "0x476574682f76312e302e312f6c696e75782f676f312e342e32",
  "transactions": [
    {
      "hash": "0x2132e564cf3fb4872e85457148e6c36115cc493f3fe9bc447363e78c6336df6f",
      "blockHash": "0x4142966e11d9db2589d90d3d06ab11eaafcc36b6b593212591745a9fb98259da",
      "blockNumber": 69275,
      "transactionIndex": 0,
      "confirmations": null,
      "from": "0xe6A7a1d47ff21B6321162AEA7C6CB457D5476Bca",
      "gasPrice": {
        "_hex": "0xccabee8d2"
      },
      "gasLimit": {
        "_hex": "0x55f0"
      },
      "to": "0x6111E933E5e6297DFd0AAd9aAB64017c69062a08",
      "value": {
        "_hex": "0x562bb0adce5ce550"
      },
      "nonce": 627,
      "data": "0x",
      "r": "0xb50c16686b4b76ef2c0d6ba6f6b2571f78f6675dc26b5e489dba16b345f969f3",
      "s": "0x30e1f78ca764f778789a0ad0aa961c119c5a09802280fb7544c625de8957a2c7",
      "v": 28,
      "creates": null,
      "raw": "0xf86e820273850ccabee8d28255f0946111e933e5e6297dfd0aad9aab64017c69062a0888562bb0adce5ce550801ca0b50c16686b4b76ef2c0d6ba6f6b2571f78f6675dc26b5e489dba16b345f969f3a030e1f78ca764f778789a0ad0aa961c119c5a09802280fb7544c625de8957a2c7",
      "networkId": 0,
      "chainId": 0
    },
    {
      "hash": "0x1361c84cced30fed1c6c125b9d54598e4e3fab11b3a386cd5cc9b3a86dadf7fe",
      "blockHash": "0x4142966e11d9db2589d90d3d06ab11eaafcc36b6b593212591745a9fb98259da",
      "blockNumber": 69275,
      "transactionIndex": 1,
      "confirmations": null,
      "from": "0xe6A7a1d47ff21B6321162AEA7C6CB457D5476Bca",
      "gasPrice": {
        "_hex": "0xccabee8d2"
      },
      "gasLimit": {
        "_hex": "0x55f0"
      },
      "to": "0xad74C8133300eB63De8d69A384B1E8CcFe28DED7",
      "value": {
        "_hex": "0x5a196ca8379692a8"
      },
      "nonce": 628,
      "data": "0x",
      "r": "0x17e518235e8a38cb22f25f09c71a0cff5f52b383f848f64ffba71c5cbff502c0",
      "s": "0x6d722188b58f940fab949e1e8a18c0b07fc1ae10514b58ac212cbd2feb515f0f",
      "v": 27,
      "creates": null,
      "raw": "0xf86e820274850ccabee8d28255f094ad74c8133300eb63de8d69a384b1e8ccfe28ded7885a196ca8379692a8801ba017e518235e8a38cb22f25f09c71a0cff5f52b383f848f64ffba71c5cbff502c0a06d722188b58f940fab949e1e8a18c0b07fc1ae10514b58ac212cbd2feb515f0f",
      "networkId": 0,
      "chainId": 0
    },
    {
      "hash": "0x5aadc43b4ac6f5aa4289e9a0def1c7f9ee4d7802058166e42e41dc86467f5f71",
      "blockHash": "0x4142966e11d9db2589d90d3d06ab11eaafcc36b6b593212591745a9fb98259da",
      "blockNumber": 69275,
      "transactionIndex": 2,
      "confirmations": null,
      "from": "0xe6A7a1d47ff21B6321162AEA7C6CB457D5476Bca",
      "gasPrice": {
        "_hex": "0xccabee8d2"
      },
      "gasLimit": {
        "_hex": "0x55f0"
      },
      "to": "0xa28F8098A723e4ca02E9f4512410C519a252c1a9",
      "value": {
        "_hex": "0x5badadd3e82339a8"
      },
      "nonce": 629,
      "data": "0x",
      "r": "0x961b420e27d28710bd7e79c0b470cacae241c4d2e3a55a044ee724aab22e5fd1",
      "s": "0x5c5fa765ef505c503b74fc9a97045cf2ec672d0e24ff3cc9b18fc9251caa94a4",
      "v": 28,
      "creates": null,
      "raw": "0xf86e820275850ccabee8d28255f094a28f8098a723e4ca02e9f4512410c519a252c1a9885badadd3e82339a8801ca0961b420e27d28710bd7e79c0b470cacae241c4d2e3a55a044ee724aab22e5fd1a05c5fa765ef505c503b74fc9a97045cf2ec672d0e24ff3cc9b18fc9251caa94a4",
      "networkId": 0,
      "chainId": 0
    },
    {
      "hash": "0xa2005b389231b082e6227df762e90f00d00ec89e873849bf998d64be73fbf063",
      "blockHash": "0x4142966e11d9db2589d90d3d06ab11eaafcc36b6b593212591745a9fb98259da",
      "blockNumber": 69275,
      "transactionIndex": 3,
      "confirmations": null,
      "from": "0xe6A7a1d47ff21B6321162AEA7C6CB457D5476Bca",
      "gasPrice": {
        "_hex": "0xccabee8d2"
      },
      "gasLimit": {
        "_hex": "0x55f0"
      },
      "to": "0x90891a4dAE53428129E5E2044f4677213EcCBB59",
      "value": {
        "_hex": "0x5bba34a87bc82300"
      },
      "nonce": 630,
      "data": "0x",
      "r": "0x1fa5c55aa9f9fbe7e1aa9cee965e279df8a96a28dd910717f1896114469ed77a",
      "s": "0x586355dd7580adb1fba1267cd82c5bffb3e7dde3cd7452454356e608230001db",
      "v": 27,
      "creates": null,
      "raw": "0xf86e820276850ccabee8d28255f09490891a4dae53428129e5e2044f4677213eccbb59885bba34a87bc82300801ba01fa5c55aa9f9fbe7e1aa9cee965e279df8a96a28dd910717f1896114469ed77aa0586355dd7580adb1fba1267cd82c5bffb3e7dde3cd7452454356e608230001db",
      "networkId": 0,
      "chainId": 0
    },
    {
      "hash": "0x0e14253e802a0cee331fa505d7d3011fa7bd91872f7b9d18acd8028b99546d44",
      "blockHash": "0x4142966e11d9db2589d90d3d06ab11eaafcc36b6b593212591745a9fb98259da",
      "blockNumber": 69275,
      "transactionIndex": 4,
      "confirmations": null,
      "from": "0xe6A7a1d47ff21B6321162AEA7C6CB457D5476Bca",
      "gasPrice": {
        "_hex": "0xccabee8d2"
      },
      "gasLimit": {
        "_hex": "0x55f0"
      },
      "to": "0x6589D22b54648e5D67Dc008eBd0c836D3DF39c87",
      "value": {
        "_hex": "0x5bda715138a934a0"
      },
      "nonce": 631,
      "data": "0x",
      "r": "0x11ffaf2107eaff09faa6c2630471d06472a5b6da1e8496a14d991ccf590aa05c",
      "s": "0x3f6c90681e40d1abb9e220a80489d2575a8f845378a85ef677516d3d86a9f973",
      "v": 27,
      "creates": null,
      "raw": "0xf86e820277850ccabee8d28255f0946589d22b54648e5d67dc008ebd0c836d3df39c87885bda715138a934a0801ba011ffaf2107eaff09faa6c2630471d06472a5b6da1e8496a14d991ccf590aa05ca03f6c90681e40d1abb9e220a80489d2575a8f845378a85ef677516d3d86a9f973",
      "networkId": 0,
      "chainId": 0
    },
    {
      "hash": "0x119f0c8e6216414223a6d6d9924279fce696d455efb3399ceede3beb3ca52f71",
      "blockHash": "0x4142966e11d9db2589d90d3d06ab11eaafcc36b6b593212591745a9fb98259da",
      "blockNumber": 69275,
      "transactionIndex": 5,
      "confirmations": null,
      "from": "0xe6A7a1d47ff21B6321162AEA7C6CB457D5476Bca",
      "gasPrice": {
        "_hex": "0xccabee8d2"
      },
      "gasLimit": {
        "_hex": "0x55f0"
      },
      "to": "0x1CaC89419da71AC175A5B99CEE0163720430990c",
      "value": {
        "_hex": "0x5ce91c57856744d8"
      },
      "nonce": 632,
      "data": "0x",
      "r": "0xc376b3b5166857dd3100ec02b0f35139adbbd66bdc0f635e1fd065ffae07a928",
      "s": "0x6041625068443c106f60787e33cf7ac682e9999d0147bd04893015f7c7185f79",
      "v": 27,
      "creates": null,
      "raw": "0xf86e820278850ccabee8d28255f0941cac89419da71ac175a5b99cee0163720430990c885ce91c57856744d8801ba0c376b3b5166857dd3100ec02b0f35139adbbd66bdc0f635e1fd065ffae07a928a06041625068443c106f60787e33cf7ac682e9999d0147bd04893015f7c7185f79",
      "networkId": 0,
      "chainId": 0
    },
    {
      "hash": "0x68f2df67687f06b76f3d4c2f34a3ee445712b1f75fdca89e608e03426bd739fa",
      "blockHash": "0x4142966e11d9db2589d90d3d06ab11eaafcc36b6b593212591745a9fb98259da",
      "blockNumber": 69275,
      "transactionIndex": 6,
      "confirmations": null,
      "from": "0xe6A7a1d47ff21B6321162AEA7C6CB457D5476Bca",
      "gasPrice": {
        "_hex": "0xccabee8d2"
      },
      "gasLimit": {
        "_hex": "0x55f0"
      },
      "to": "0x25A0be9f6fCbDE4F61024B86a33dd80F7cbB3cEc",
      "value": {
        "_hex": "0x5e868b76164e6888"
      },
      "nonce": 633,
      "data": "0x",
      "r": "0x089feacc9799c97f14836fb337c2390829a39b71635a18223765f7cd7f25fa98",
      "s": "0x7cdf612efed377133a4385042bf9a25f1527ab41d7d413863691f412f275edd5",
      "v": 28,
      "creates": null,
      "raw": "0xf86e820279850ccabee8d28255f09425a0be9f6fcbde4f61024b86a33dd80f7cbb3cec885e868b76164e6888801ca0089feacc9799c97f14836fb337c2390829a39b71635a18223765f7cd7f25fa98a07cdf612efed377133a4385042bf9a25f1527ab41d7d413863691f412f275edd5",
      "networkId": 0,
      "chainId": 0
    },
    {
      "hash": "0xf1d66f4675620761985047a3b91066c5d097cfc6c63f0b8416e58511341a5ed3",
      "blockHash": "0x4142966e11d9db2589d90d3d06ab11eaafcc36b6b593212591745a9fb98259da",
      "blockNumber": 69275,
      "transactionIndex": 7,
      "confirmations": null,
      "from": "0xe6A7a1d47ff21B6321162AEA7C6CB457D5476Bca",
      "gasPrice": {
        "_hex": "0xccabee8d2"
      },
      "gasLimit": {
        "_hex": "0x55f0"
      },
      "to": "0x702bD0d370bBf0B97B66FE95578c62697c583393",
      "value": {
        "_hex": "0x5fb207232a08b068"
      },
      "nonce": 634,
      "data": "0x",
      "r": "0xa62f7a173919b5ffbb1297e82f24fea721a95e051c4b4d464abef094a36bf27d",
      "s": "0x06db86148c783dc85a866175d59b69f70fd3dba0619ca30ecb6d162bc4d5adce",
      "v": 27,
      "creates": null,
      "raw": "0xf86e82027a850ccabee8d28255f094702bd0d370bbf0b97b66fe95578c62697c583393885fb207232a08b068801ba0a62f7a173919b5ffbb1297e82f24fea721a95e051c4b4d464abef094a36bf27da006db86148c783dc85a866175d59b69f70fd3dba0619ca30ecb6d162bc4d5adce",
      "networkId": 0,
      "chainId": 0
    },
    {
      "hash": "0xc89118c727de36d8218da0dd5e34983dee73e0e0bcebecd07bea2039a4d4f5d9",
      "blockHash": "0x4142966e11d9db2589d90d3d06ab11eaafcc36b6b593212591745a9fb98259da",
      "blockNumber": 69275,
      "transactionIndex": 8,
      "confirmations": null,
      "from": "0xe6A7a1d47ff21B6321162AEA7C6CB457D5476Bca",
      "gasPrice": {
        "_hex": "0xccabee8d2"
      },
      "gasLimit": {
        "_hex": "0x55f0"
      },
      "to": "0x01Ad0ACFf478127D9d702B1A13599D706cB759b1",
      "value": {
        "_hex": "0x69a63971bd166f70"
      },
      "nonce": 635,
      "data": "0x",
      "r": "0x682193d8a19625a62c2fbb9dcfb7defeeeb43bda0451e8655f0803ecc615e316",
      "s": "0x510dfe260fafb0e6dbed1bda200488705ad35bab3df3afab1b8c680f8c985935",
      "v": 28,
      "creates": null,
      "raw": "0xf86e82027b850ccabee8d28255f09401ad0acff478127d9d702b1a13599d706cb759b18869a63971bd166f70801ca0682193d8a19625a62c2fbb9dcfb7defeeeb43bda0451e8655f0803ecc615e316a0510dfe260fafb0e6dbed1bda200488705ad35bab3df3afab1b8c680f8c985935",
      "networkId": 0,
      "chainId": 0
    },
    {
      "hash": "0x1850e80a8e2cd0cf8e916ab1f40d7e7e57cd7f2f2c1f128ea8b59cc51ab1bf36",
      "blockHash": "0x4142966e11d9db2589d90d3d06ab11eaafcc36b6b593212591745a9fb98259da",
      "blockNumber": 69275,
      "transactionIndex": 9,
      "confirmations": null,
      "from": "0xe6A7a1d47ff21B6321162AEA7C6CB457D5476Bca",
      "gasPrice": {
        "_hex": "0xccabee8d2"
      },
      "gasLimit": {
        "_hex": "0x55f0"
      },
      "to": "0x9Fa9952255B2b06639A04D63804d4BdFFf6E2d7e",
      "value": {
        "_hex": "0x69f10e497a4e6970"
      },
      "nonce": 636,
      "data": "0x",
      "r": "0xb5dadc3a2fb280912d666f1d97b39c772031b8deb56db99a25203907a7118351",
      "s": "0x7314d66181143f47a17661c9cce0dfa5d78371a4c645c7bbeeb78353d3978a2c",
      "v": 27,
      "creates": null,
      "raw": "0xf86e82027c850ccabee8d28255f0949fa9952255b2b06639a04d63804d4bdfff6e2d7e8869f10e497a4e6970801ba0b5dadc3a2fb280912d666f1d97b39c772031b8deb56db99a25203907a7118351a07314d66181143f47a17661c9cce0dfa5d78371a4c645c7bbeeb78353d3978a2c",
      "networkId": 0,
      "chainId": 0
    },
    {
      "hash": "0x70aec709aeabea946e02187d0d8fc794ee5674b0da20af72d155d9f73c137299",
      "blockHash": "0x4142966e11d9db2589d90d3d06ab11eaafcc36b6b593212591745a9fb98259da",
      "blockNumber": 69275,
      "transactionIndex": 10,
      "confirmations": null,
      "from": "0xe6A7a1d47ff21B6321162AEA7C6CB457D5476Bca",
      "gasPrice": {
        "_hex": "0xccabee8d2"
      },
      "gasLimit": {
        "_hex": "0x55f0"
      },
      "to": "0x8421b6810A1aee71B0baa38D7E1b5de6f71245d2",
      "value": {
        "_hex": "0x6a079450e65115c0"
      },
      "nonce": 637,
      "data": "0x",
      "r": "0xd107c55d7c3d381789fdc6136f4659169802c61ad975de7c87d77472d908df84",
      "s": "0x05f51f7d804213c2dcb6004aad6ad93aa70a9fb5840c73275f9dca3d4b9e939e",
      "v": 27,
      "creates": null,
      "raw": "0xf86e82027d850ccabee8d28255f0948421b6810a1aee71b0baa38d7e1b5de6f71245d2886a079450e65115c0801ba0d107c55d7c3d381789fdc6136f4659169802c61ad975de7c87d77472d908df84a005f51f7d804213c2dcb6004aad6ad93aa70a9fb5840c73275f9dca3d4b9e939e",
      "networkId": 0,
      "chainId": 0
    },
    {
      "hash": "0x74ad5ea5357f06180ec40d112229448e604f0bde9dc0c7d80f751933074fef0d",
      "blockHash": "0x4142966e11d9db2589d90d3d06ab11eaafcc36b6b593212591745a9fb98259da",
      "blockNumber": 69275,
      "transactionIndex": 11,
      "confirmations": null,
      "from": "0xe6A7a1d47ff21B6321162AEA7C6CB457D5476Bca",
      "gasPrice": {
        "_hex": "0xccabee8d2"
      },
      "gasLimit": {
        "_hex": "0x55f0"
      },
      "to": "0xaC49eeb6a55aF554D86d37b4A4eA7940010866E1",
      "value": {
        "_hex": "0x70b26e5f616731d8"
      },
      "nonce": 638,
      "data": "0x",
      "r": "0xfbdae7d15f07dfd0338d5a777e4924d3a15baac90d3d0a8ad7d0c18faf2af78f",
      "s": "0x430953d023af2363b6a99c76d5ed0efe05e04791f7fd4487a26efebc0718c455",
      "v": 28,
      "creates": null,
      "raw": "0xf86e82027e850ccabee8d28255f094ac49eeb6a55af554d86d37b4a4ea7940010866e18870b26e5f616731d8801ca0fbdae7d15f07dfd0338d5a777e4924d3a15baac90d3d0a8ad7d0c18faf2af78fa0430953d023af2363b6a99c76d5ed0efe05e04791f7fd4487a26efebc0718c455",
      "networkId": 0,
      "chainId": 0
    },
    {
      "hash": "0x4aa652fd4bb7b8b0c749830bebdec81750e065eae4546e9a45b5d6e8994aa72f",
      "blockHash": "0x4142966e11d9db2589d90d3d06ab11eaafcc36b6b593212591745a9fb98259da",
      "blockNumber": 69275,
      "transactionIndex": 12,
      "confirmations": null,
      "from": "0xe6A7a1d47ff21B6321162AEA7C6CB457D5476Bca",
      "gasPrice": {
        "_hex": "0xccabee8d2"
      },
      "gasLimit": {
        "_hex": "0x55f0"
      },
      "to": "0x842aC76913Df36aFcbdfE5fA4872759ed84210Bf",
      "value": {
        "_hex": "0x7314b9c6ac2e9960"
      },
      "nonce": 639,
      "data": "0x",
      "r": "0xbabe93bd21f11adcf0e4267e28d892435d0b4ba88d6b41835506d7821fab1b32",
      "s": "0x79064859c2169cd356cf61efcd502799423dde5f399825a4a1f8b211055d608a",
      "v": 28,
      "creates": null,
      "raw": "0xf86e82027f850ccabee8d28255f094842ac76913df36afcbdfe5fa4872759ed84210bf887314b9c6ac2e9960801ca0babe93bd21f11adcf0e4267e28d892435d0b4ba88d6b41835506d7821fab1b32a079064859c2169cd356cf61efcd502799423dde5f399825a4a1f8b211055d608a",
      "networkId": 0,
      "chainId": 0
    },
    {
      "hash": "0x42004fc737232c6161d78b044e69052b8a59d5aece85d346d1983635d7efa10f",
      "blockHash": "0x4142966e11d9db2589d90d3d06ab11eaafcc36b6b593212591745a9fb98259da",
      "blockNumber": 69275,
      "transactionIndex": 13,
      "confirmations": null,
      "from": "0xe6A7a1d47ff21B6321162AEA7C6CB457D5476Bca",
      "gasPrice": {
        "_hex": "0xccabee8d2"
      },
      "gasLimit": {
        "_hex": "0x55f0"
      },
      "to": "0x49DC75D11428d1D718FC7b71941B71ae6F8bfA3C",
      "value": {
        "_hex": "0x738a43ec2535e4d8"
      },
      "nonce": 640,
      "data": "0x",
      "r": "0x194e99b0f41364a1d8f2e85a4813a91f5065a069d9976d4e694c07c4afb2246c",
      "s": "0x79b7f1bc8ec4b06ee94076d438bb202115181875b0f7fdf1a848c0c18ffd0a9c",
      "v": 28,
      "creates": null,
      "raw": "0xf86e820280850ccabee8d28255f09449dc75d11428d1d718fc7b71941b71ae6f8bfa3c88738a43ec2535e4d8801ca0194e99b0f41364a1d8f2e85a4813a91f5065a069d9976d4e694c07c4afb2246ca079b7f1bc8ec4b06ee94076d438bb202115181875b0f7fdf1a848c0c18ffd0a9c",
      "networkId": 0,
      "chainId": 0
    },
    {
      "hash": "0x723b25341d7d1555bc3e2e049d06e5268bdfdbb1dcb865a66c3f2a13d2119063",
      "blockHash": "0x4142966e11d9db2589d90d3d06ab11eaafcc36b6b593212591745a9fb98259da",
      "blockNumber": 69275,
      "transactionIndex": 14,
      "confirmations": null,
      "from": "0xe6A7a1d47ff21B6321162AEA7C6CB457D5476Bca",
      "gasPrice": {
        "_hex": "0xccabee8d2"
      },
      "gasLimit": {
        "_hex": "0x55f0"
      },
      "to": "0xD924AAC0bCB65C13bE4044f6BeA8aAe34D7a7126",
      "value": {
        "_hex": "0x746a24e4d0818a40"
      },
      "nonce": 641,
      "data": "0x",
      "r": "0xfbf96767a3c324d1b1023bacf9c18695e6b3fdb5fa0137b0c13fd81acf5a7562",
      "s": "0x28219dccf49a28ece1b4002e1d5d2433a7a657dfe7df0d34f2f7099c500c2d4a",
      "v": 27,
      "creates": null,
      "raw": "0xf86e820281850ccabee8d28255f094d924aac0bcb65c13be4044f6bea8aae34d7a712688746a24e4d0818a40801ba0fbf96767a3c324d1b1023bacf9c18695e6b3fdb5fa0137b0c13fd81acf5a7562a028219dccf49a28ece1b4002e1d5d2433a7a657dfe7df0d34f2f7099c500c2d4a",
      "networkId": 0,
      "chainId": 0
    },
    {
      "hash": "0x595a62f33892b42bcfef80c50bac6bb4fdaf03b84c7a9744a88a721fac9ab296",
      "blockHash": "0x4142966e11d9db2589d90d3d06ab11eaafcc36b6b593212591745a9fb98259da",
      "blockNumber": 69275,
      "transactionIndex": 15,
      "confirmations": null,
      "from": "0xe6A7a1d47ff21B6321162AEA7C6CB457D5476Bca",
      "gasPrice": {
        "_hex": "0xccabee8d2"
      },
      "gasLimit": {
        "_hex": "0x55f0"
      },
      "to": "0x3A652ae439FFB94328afa58E11F544aFB5B85f7A",
      "value": {
        "_hex": "0x74ef0be5e613c130"
      },
      "nonce": 642,
      "data": "0x",
      "r": "0x64cc6bc15267f6e8f214fe1bda62c05dcd26b9f47b610409db1df3849a56a2c1",
      "s": "0x25856a5fbab6e1c37b7841f8cc19546ac3d534d25960f1cdbe05c34b5d848f0d",
      "v": 27,
      "creates": null,
      "raw": "0xf86e820282850ccabee8d28255f0943a652ae439ffb94328afa58e11f544afb5b85f7a8874ef0be5e613c130801ba064cc6bc15267f6e8f214fe1bda62c05dcd26b9f47b610409db1df3849a56a2c1a025856a5fbab6e1c37b7841f8cc19546ac3d534d25960f1cdbe05c34b5d848f0d",
      "networkId": 0,
      "chainId": 0
    },
    {
      "hash": "0x8c2fbb008b97bffdfeb6619f73b9d5f943a6f15ad892dd060283b7b230bffebe",
      "blockHash": "0x4142966e11d9db2589d90d3d06ab11eaafcc36b6b593212591745a9fb98259da",
      "blockNumber": 69275,
      "transactionIndex": 16,
      "confirmations": null,
      "from": "0xe6A7a1d47ff21B6321162AEA7C6CB457D5476Bca",
      "gasPrice": {
        "_hex": "0xccabee8d2"
      },
      "gasLimit": {
        "_hex": "0x55f0"
      },
      "to": "0x6c716b5177cC5c983057af4D88F7152ebA2CC0a6",
      "value": {
        "_hex": "0x766a605749eec118"
      },
      "nonce": 643,
      "data": "0x",
      "r": "0x733947e1a35063b1eb9a923d60b8c2f9aa7d3c4ce36cf575ce606154dd6d45c1",
      "s": "0x4e69225bd17d6ff9769197417d24370e0ba00dce05c07529357eddbe752620c1",
      "v": 28,
      "creates": null,
      "raw": "0xf86e820283850ccabee8d28255f0946c716b5177cc5c983057af4d88f7152eba2cc0a688766a605749eec118801ca0733947e1a35063b1eb9a923d60b8c2f9aa7d3c4ce36cf575ce606154dd6d45c1a04e69225bd17d6ff9769197417d24370e0ba00dce05c07529357eddbe752620c1",
      "networkId": 0,
      "chainId": 0
    },
    {
      "hash": "0x2815e28af9a611a239db376964cc09aafc1caeab394662f3bf914f9cebfd255b",
      "blockHash": "0x4142966e11d9db2589d90d3d06ab11eaafcc36b6b593212591745a9fb98259da",
      "blockNumber": 69275,
      "transactionIndex": 17,
      "confirmations": null,
      "from": "0xe6A7a1d47ff21B6321162AEA7C6CB457D5476Bca",
      "gasPrice": {
        "_hex": "0xccabee8d2"
      },
      "gasLimit": {
        "_hex": "0x55f0"
      },
      "to": "0xf79785E5a846aCea08F94379fCCe79B1054bDB99",
      "value": {
        "_hex": "0x76f5fcb007ee71b0"
      },
      "nonce": 644,
      "data": "0x",
      "r": "0xdedbf2149113522b0087f0d0b37a69eabe7259ffc616e7436518d270bff339d0",
      "s": "0x77c206ea0feab7345ac81003c23c335af9540cd02f32531720ac8a7fbc5ea332",
      "v": 27,
      "creates": null,
      "raw": "0xf86e820284850ccabee8d28255f094f79785e5a846acea08f94379fcce79b1054bdb998876f5fcb007ee71b0801ba0dedbf2149113522b0087f0d0b37a69eabe7259ffc616e7436518d270bff339d0a077c206ea0feab7345ac81003c23c335af9540cd02f32531720ac8a7fbc5ea332",
      "networkId": 0,
      "chainId": 0
    },
    {
      "hash": "0xaeccb76bb4c30ec08e3141d88a0559ea2fe5616c53e1f883462018e71a0a73ea",
      "blockHash": "0x4142966e11d9db2589d90d3d06ab11eaafcc36b6b593212591745a9fb98259da",
      "blockNumber": 69275,
      "transactionIndex": 18,
      "confirmations": null,
      "from": "0xe6A7a1d47ff21B6321162AEA7C6CB457D5476Bca",
      "gasPrice": {
        "_hex": "0xccabee8d2"
      },
      "gasLimit": {
        "_hex": "0x55f0"
      },
      "to": "0xE6D67E3661E28eE2DfC1c68D5DeeA3C3bB880059",
      "value": {
        "_hex": "0x7896f0495cb75bb0"
      },
      "nonce": 645,
      "data": "0x",
      "r": "0x507578c411f9c62009638d21f1c89acc7d65db015c30ce62d4ffebc7c6520362",
      "s": "0x221ab0e07bb6aaf1521dbd21cc3cbd78d8fa0ffb17cf5a5290ed1718c1d98bd4",
      "v": 28,
      "creates": null,
      "raw": "0xf86e820285850ccabee8d28255f094e6d67e3661e28ee2dfc1c68d5deea3c3bb880059887896f0495cb75bb0801ca0507578c411f9c62009638d21f1c89acc7d65db015c30ce62d4ffebc7c6520362a0221ab0e07bb6aaf1521dbd21cc3cbd78d8fa0ffb17cf5a5290ed1718c1d98bd4",
      "networkId": 0,
      "chainId": 0
    },
    {
      "hash": "0xb2e47a4e867f16b46d355462a17b618de08e3b9bf354138ed75a9c900f920464",
      "blockHash": "0x4142966e11d9db2589d90d3d06ab11eaafcc36b6b593212591745a9fb98259da",
      "blockNumber": 69275,
      "transactionIndex": 19,
      "confirmations": null,
      "from": "0xe6A7a1d47ff21B6321162AEA7C6CB457D5476Bca",
      "gasPrice": {
        "_hex": "0xccabee8d2"
      },
      "gasLimit": {
        "_hex": "0x55f0"
      },
      "to": "0xc0920452d99591a4e8b190632c52754c72F73328",
      "value": {
        "_hex": "0x793c34c3f3dbfbb8"
      },
      "nonce": 646,
      "data": "0x",
      "r": "0xb2fc118058afd3bbb91e26147f2e7cb2a1d8388e958727e6ab4db616d8b94565",
      "s": "0x57b53681c6e74690d3e0793843074e9e79826ddfe4fc6bf3c969356558e08e9a",
      "v": 27,
      "creates": null,
      "raw": "0xf86e820286850ccabee8d28255f094c0920452d99591a4e8b190632c52754c72f7332888793c34c3f3dbfbb8801ba0b2fc118058afd3bbb91e26147f2e7cb2a1d8388e958727e6ab4db616d8b94565a057b53681c6e74690d3e0793843074e9e79826ddfe4fc6bf3c969356558e08e9a",
      "networkId": 0,
      "chainId": 0
    },
    {
      "hash": "0xd425273bd4144d44faa82b67fb704dd4c34d5f9f66a7be56455cd07ceb38cd56",
      "blockHash": "0x4142966e11d9db2589d90d3d06ab11eaafcc36b6b593212591745a9fb98259da",
      "blockNumber": 69275,
      "transactionIndex": 20,
      "confirmations": null,
      "from": "0xe6A7a1d47ff21B6321162AEA7C6CB457D5476Bca",
      "gasPrice": {
        "_hex": "0xccabee8d2"
      },
      "gasLimit": {
        "_hex": "0x55f0"
      },
      "to": "0x96811Ad897894eC178872117C8BF2f03971A393B",
      "value": {
        "_hex": "0x7a249538cd925f88"
      },
      "nonce": 647,
      "data": "0x",
      "r": "0x774670474676bf56d0045e3a63ea15ddabd50d94613c485a3a47ecc5ad08c6dc",
      "s": "0x5857a6d9b39fc7edb3b17e6cacfda61eb5e932054fdae30f0726e81515ce05f1",
      "v": 28,
      "creates": null,
      "raw": "0xf86e820287850ccabee8d28255f09496811ad897894ec178872117c8bf2f03971a393b887a249538cd925f88801ca0774670474676bf56d0045e3a63ea15ddabd50d94613c485a3a47ecc5ad08c6dca05857a6d9b39fc7edb3b17e6cacfda61eb5e932054fdae30f0726e81515ce05f1",
      "networkId": 0,
      "chainId": 0
    },
    {
      "hash": "0x0e479a8896bc3a6aaf5a89fb2e83c48c0b0cf7b282d8163c2784099a79d13766",
      "blockHash": "0x4142966e11d9db2589d90d3d06ab11eaafcc36b6b593212591745a9fb98259da",
      "blockNumber": 69275,
      "transactionIndex": 21,
      "confirmations": null,
      "from": "0xe6A7a1d47ff21B6321162AEA7C6CB457D5476Bca",
      "gasPrice": {
        "_hex": "0xccabee8d2"
      },
      "gasLimit": {
        "_hex": "0x55f0"
      },
      "to": "0x26163E84886A136fC8034eB4e9F1cc00b1D345f1",
      "value": {
        "_hex": "0x7a9492e9434eb460"
      },
      "nonce": 648,
      "data": "0x",
      "r": "0x6b03d96c985af056ca6a898b7fcc804dd625b31a9a2d83b24b8b559652432607",
      "s": "0x1cfe63aa7d258194c98f96cbd2d04e688cf02656e706e43a6d352dc9aa95446b",
      "v": 27,
      "creates": null,
      "raw": "0xf86e820288850ccabee8d28255f09426163e84886a136fc8034eb4e9f1cc00b1d345f1887a9492e9434eb460801ba06b03d96c985af056ca6a898b7fcc804dd625b31a9a2d83b24b8b559652432607a01cfe63aa7d258194c98f96cbd2d04e688cf02656e706e43a6d352dc9aa95446b",
      "networkId": 0,
      "chainId": 0
    },
    {
      "hash": "0x0442df26dfc8ea6b083bda68512a2da8308eb94a428905312a59f2540241f50e",
      "blockHash": "0x4142966e11d9db2589d90d3d06ab11eaafcc36b6b593212591745a9fb98259da",
      "blockNumber": 69275,
      "transactionIndex": 22,
      "confirmations": null,
      "from": "0xe6A7a1d47ff21B6321162AEA7C6CB457D5476Bca",
      "gasPrice": {
        "_hex": "0xccabee8d2"
      },
      "gasLimit": {
        "_hex": "0x55f0"
      },
      "to": "0x27e806e70622d2864e1B1f4426D72FFb0457C83a",
      "value": {
        "_hex": "0x82a984d61289c0d0"
      },
      "nonce": 649,
      "data": "0x",
      "r": "0xd68c10836de91923a485dc8fb2e9e37a89ef460dba6a873242063ad07282ddd3",
      "s": "0x57cc1bd1cd25c8e629bebf70c9642d9a2dcb7142790df47d082ff71657c08a80",
      "v": 27,
      "creates": null,
      "raw": "0xf86e820289850ccabee8d28255f09427e806e70622d2864e1b1f4426d72ffb0457c83a8882a984d61289c0d0801ba0d68c10836de91923a485dc8fb2e9e37a89ef460dba6a873242063ad07282ddd3a057cc1bd1cd25c8e629bebf70c9642d9a2dcb7142790df47d082ff71657c08a80",
      "networkId": 0,
      "chainId": 0
    },
    {
      "hash": "0x814bb2c7cdce5f1685fa8756d6e71ff7a5b30ca78511d273493b2f267070e506",
      "blockHash": "0x4142966e11d9db2589d90d3d06ab11eaafcc36b6b593212591745a9fb98259da",
      "blockNumber": 69275,
      "transactionIndex": 23,
      "confirmations": null,
      "from": "0xe6A7a1d47ff21B6321162AEA7C6CB457D5476Bca",
      "gasPrice": {
        "_hex": "0xccabee8d2"
      },
      "gasLimit": {
        "_hex": "0x55f0"
      },
      "to": "0x18883522e2679aA9b41E0fA688F20c3802897525",
      "value": {
        "_hex": "0x82c6e8dc1c3e59d8"
      },
      "nonce": 650,
      "data": "0x",
      "r": "0x249135f3cb6f308351f75c3d045c379bee51e3785625094467b57d94ef9b2efa",
      "s": "0x4c69940a4d797371ee8ae316b32c8cef05f47a5926008eb96935a51ffba9bec0",
      "v": 27,
      "creates": null,
      "raw": "0xf86e82028a850ccabee8d28255f09418883522e2679aa9b41e0fa688f20c38028975258882c6e8dc1c3e59d8801ba0249135f3cb6f308351f75c3d045c379bee51e3785625094467b57d94ef9b2efaa04c69940a4d797371ee8ae316b32c8cef05f47a5926008eb96935a51ffba9bec0",
      "networkId": 0,
      "chainId": 0
    },
    {
      "hash": "0xdec16d52d4ff7b6e4a7bf4be863df3e7ed3cd46a5b5fa83514ca9e811f5c6753",
      "blockHash": "0x4142966e11d9db2589d90d3d06ab11eaafcc36b6b593212591745a9fb98259da",
      "blockNumber": 69275,
      "transactionIndex": 24,
      "confirmations": null,
      "from": "0xe6A7a1d47ff21B6321162AEA7C6CB457D5476Bca",
      "gasPrice": {
        "_hex": "0xccabee8d2"
      },
      "gasLimit": {
        "_hex": "0x55f0"
      },
      "to": "0x6964b95BF8BA16b837e2f3Ae8dA7D299553eC1f7",
      "value": {
        "_hex": "0x85553798175c7080"
      },
      "nonce": 651,
      "data": "0x",
      "r": "0x3b09c035975fd7833aaa0fea86dad409d365d294d86b0a34b26a2bd32a8015ed",
      "s": "0x113d63ab818b23c24be1960b750a5aec53a914b810da926cafa41458db5c2a91",
      "v": 28,
      "creates": null,
      "raw": "0xf86e82028b850ccabee8d28255f0946964b95bf8ba16b837e2f3ae8da7d299553ec1f78885553798175c7080801ca03b09c035975fd7833aaa0fea86dad409d365d294d86b0a34b26a2bd32a8015eda0113d63ab818b23c24be1960b750a5aec53a914b810da926cafa41458db5c2a91",
      "networkId": 0,
      "chainId": 0
    },
    {
      "hash": "0x2bab7a05a442bbc75aebea89296f13c6dd33ca4f403269ec3ae0adbfd46edb21",
      "blockHash": "0x4142966e11d9db2589d90d3d06ab11eaafcc36b6b593212591745a9fb98259da",
      "blockNumber": 69275,
      "transactionIndex": 25,
      "confirmations": null,
      "from": "0xe6A7a1d47ff21B6321162AEA7C6CB457D5476Bca",
      "gasPrice": {
        "_hex": "0xccabee8d2"
      },
      "gasLimit": {
        "_hex": "0x55f0"
      },
      "to": "0xF0224ea727d4924A8dd69a8d2d473Cc4c3590423",
      "value": {
        "_hex": "0x923d59a733a43a40"
      },
      "nonce": 652,
      "data": "0x",
      "r": "0x31dbfb7684d9adf2e61ccad99a01e5e17929287434960ad37a677d53ef6bb1c8",
      "s": "0x73ab4707a1244eb4286393656562d2ca0b73600f3e4047b0a8d7a7b48257b4af",
      "v": 27,
      "creates": null,
      "raw": "0xf86e82028c850ccabee8d28255f094f0224ea727d4924a8dd69a8d2d473cc4c359042388923d59a733a43a40801ba031dbfb7684d9adf2e61ccad99a01e5e17929287434960ad37a677d53ef6bb1c8a073ab4707a1244eb4286393656562d2ca0b73600f3e4047b0a8d7a7b48257b4af",
      "networkId": 0,
      "chainId": 0
    },
    {
      "hash": "0x287f98ffa64cd975fab110172a4f0508d9326d29fe5aff8e907446038c281939",
      "blockHash": "0x4142966e11d9db2589d90d3d06ab11eaafcc36b6b593212591745a9fb98259da",
      "blockNumber": 69275,
      "transactionIndex": 26,
      "confirmations": null,
      "from": "0xe6A7a1d47ff21B6321162AEA7C6CB457D5476Bca",
      "gasPrice": {
        "_hex": "0xccabee8d2"
      },
      "gasLimit": {
        "_hex": "0x55f0"
      },
      "to": "0x86d3856ad0105B9d4199936c1fd203664BA325dC",
      "value": {
        "_hex": "0x99cda559de095688"
      },
      "nonce": 653,
      "data": "0x",
      "r": "0xbef17d33df3d33eb9225cf4551b31fe1c7b90b46fad6172537393a8e9eaebb61",
      "s": "0x4f8328dfacaf61c8d9319dc6b91b8996249f4933de39a807cc1aeda9e8204c40",
      "v": 27,
      "creates": null,
      "raw": "0xf86e82028d850ccabee8d28255f09486d3856ad0105b9d4199936c1fd203664ba325dc8899cda559de095688801ba0bef17d33df3d33eb9225cf4551b31fe1c7b90b46fad6172537393a8e9eaebb61a04f8328dfacaf61c8d9319dc6b91b8996249f4933de39a807cc1aeda9e8204c40",
      "networkId": 0,
      "chainId": 0
    },
    {
      "hash": "0x21c29c99af62bd2b2bb8992364a8f0adc3c3f7bba69f966c822cad1845b4b627",
      "blockHash": "0x4142966e11d9db2589d90d3d06ab11eaafcc36b6b593212591745a9fb98259da",
      "blockNumber": 69275,
      "transactionIndex": 27,
      "confirmations": null,
      "from": "0xe6A7a1d47ff21B6321162AEA7C6CB457D5476Bca",
      "gasPrice": {
        "_hex": "0xccabee8d2"
      },
      "gasLimit": {
        "_hex": "0x55f0"
      },
      "to": "0x3B399fF2b96F27056Ab8a7f6e028b0dBaF386279",
      "value": {
        "_hex": "0xa4f3b7187a370860"
      },
      "nonce": 654,
      "data": "0x",
      "r": "0x8ed3cfd5727d0d99415bbb9b6ce1611be5c3c39be47d754d420bfbeec62213f8",
      "s": "0x2a9ca0450382109cfe63d9918090c68c2e95455e5c947ae09359e3e365253166",
      "v": 27,
      "creates": null,
      "raw": "0xf86e82028e850ccabee8d28255f0943b399ff2b96f27056ab8a7f6e028b0dbaf38627988a4f3b7187a370860801ba08ed3cfd5727d0d99415bbb9b6ce1611be5c3c39be47d754d420bfbeec62213f8a02a9ca0450382109cfe63d9918090c68c2e95455e5c947ae09359e3e365253166",
      "networkId": 0,
      "chainId": 0
    },
    {
      "hash": "0x5c4ad041d1da3e630bb52a5621d46c57dfddccc1bbdb1e5fd6d97f585582a039",
      "blockHash": "0x4142966e11d9db2589d90d3d06ab11eaafcc36b6b593212591745a9fb98259da",
      "blockNumber": 69275,
      "transactionIndex": 28,
      "confirmations": null,
      "from": "0xe6A7a1d47ff21B6321162AEA7C6CB457D5476Bca",
      "gasPrice": {
        "_hex": "0xccabee8d2"
      },
      "gasLimit": {
        "_hex": "0x55f0"
      },
      "to": "0x02020D22dCF88f5eDd66B382D7da019F161fB7e3",
      "value": {
        "_hex": "0xabc7f5d4ebd5f0a0"
      },
      "nonce": 655,
      "data": "0x",
      "r": "0xb7b87df9efee572b5f1403a39b0a4fcb54b25a0e71fea6763ae9b692d7935344",
      "s": "0x41b9c6c10ca3429910212cc5a27ad52326f78a177a84bfc09940db308dda1edb",
      "v": 27,
      "creates": null,
      "raw": "0xf86e82028f850ccabee8d28255f09402020d22dcf88f5edd66b382d7da019f161fb7e388abc7f5d4ebd5f0a0801ba0b7b87df9efee572b5f1403a39b0a4fcb54b25a0e71fea6763ae9b692d7935344a041b9c6c10ca3429910212cc5a27ad52326f78a177a84bfc09940db308dda1edb",
      "networkId": 0,
      "chainId": 0
    },
    {
      "hash": "0xd2ab4c7787556692eb6f245e4c8d72af8089288d0c4bc6f29c33e192a429e29d",
      "blockHash": "0x4142966e11d9db2589d90d3d06ab11eaafcc36b6b593212591745a9fb98259da",
      "blockNumber": 69275,
      "transactionIndex": 29,
      "confirmations": null,
      "from": "0xe6A7a1d47ff21B6321162AEA7C6CB457D5476Bca",
      "gasPrice": {
        "_hex": "0xccabee8d2"
      },
      "gasLimit": {
        "_hex": "0x55f0"
      },
      "to": "0xBFdD9820a04283b289957956353b5F3C1F665EcF",
      "value": {
        "_hex": "0xae820fe65c7a41e8"
      },
      "nonce": 656,
      "data": "0x",
      "r": "0xb9295e006bb0c3d63c166bf9ee1fb90738e5b4767419aea5d86648acdd768ba0",
      "s": "0x0f4e95074a7935c58f2df731c8dd0676fbc9cbff8a19942d6d5846b0e4ea11b6",
      "v": 28,
      "creates": null,
      "raw": "0xf86e820290850ccabee8d28255f094bfdd9820a04283b289957956353b5f3c1f665ecf88ae820fe65c7a41e8801ca0b9295e006bb0c3d63c166bf9ee1fb90738e5b4767419aea5d86648acdd768ba0a00f4e95074a7935c58f2df731c8dd0676fbc9cbff8a19942d6d5846b0e4ea11b6",
      "networkId": 0,
      "chainId": 0
    },
    {
      "hash": "0x617707e3bb11093126f20b6d017aaaf0cde540485b57a396195e487aa59dcfa2",
      "blockHash": "0x4142966e11d9db2589d90d3d06ab11eaafcc36b6b593212591745a9fb98259da",
      "blockNumber": 69275,
      "transactionIndex": 30,
      "confirmations": null,
      "from": "0xe6A7a1d47ff21B6321162AEA7C6CB457D5476Bca",
      "gasPrice": {
        "_hex": "0xccabee8d2"
      },
      "gasLimit": {
        "_hex": "0x55f0"
      },
      "to": "0x771b12Bc207A1c4823e77075B17F8D329ACD77A3",
      "value": {
        "_hex": "0xb39e32c92b38b868"
      },
      "nonce": 657,
      "data": "0x",
      "r": "0x109a8b816790e488067c0e651b36c4d7e3be0dc5afe9236dd7899bc5c6e13826",
      "s": "0x3746bc585729f3ba445999754f34345d16ce0a7d58eeba76fde78bc9445eb792",
      "v": 27,
      "creates": null,
      "raw": "0xf86e820291850ccabee8d28255f094771b12bc207a1c4823e77075b17f8d329acd77a388b39e32c92b38b868801ba0109a8b816790e488067c0e651b36c4d7e3be0dc5afe9236dd7899bc5c6e13826a03746bc585729f3ba445999754f34345d16ce0a7d58eeba76fde78bc9445eb792",
      "networkId": 0,
      "chainId": 0
    },
    {
      "hash": "0x0a5d820eba8d266b2f772f5c9d21d49972858ec50a9e363299e04f8e2c389e18",
      "blockHash": "0x4142966e11d9db2589d90d3d06ab11eaafcc36b6b593212591745a9fb98259da",
      "blockNumber": 69275,
      "transactionIndex": 31,
      "confirmations": null,
      "from": "0xe6A7a1d47ff21B6321162AEA7C6CB457D5476Bca",
      "gasPrice": {
        "_hex": "0xccabee8d2"
      },
      "gasLimit": {
        "_hex": "0x55f0"
      },
      "to": "0xB6AC12CefF0375Da80503AcCa54bf3061Fa917a8",
      "value": {
        "_hex": "0xbf89ae5dec9ea0b0"
      },
      "nonce": 658,
      "data": "0x",
      "r": "0x92f439f0be08bdce00295f213e959e454d811fa057c4671a318cb4eeac1818aa",
      "s": "0x1674c82a32c898633006fb8991e68a5d59e8698740f86955eb8b2e18e8e5dcac",
      "v": 28,
      "creates": null,
      "raw": "0xf86e820292850ccabee8d28255f094b6ac12ceff0375da80503acca54bf3061fa917a888bf89ae5dec9ea0b0801ca092f439f0be08bdce00295f213e959e454d811fa057c4671a318cb4eeac1818aaa01674c82a32c898633006fb8991e68a5d59e8698740f86955eb8b2e18e8e5dcac",
      "networkId": 0,
      "chainId": 0
    },
    {
      "hash": "0x24d9231df85e11bbd7c811e72b5867aadece6602bc1c279e16b6987d2d738fac",
      "blockHash": "0x4142966e11d9db2589d90d3d06ab11eaafcc36b6b593212591745a9fb98259da",
      "blockNumber": 69275,
      "transactionIndex": 32,
      "confirmations": null,
      "from": "0xe6A7a1d47ff21B6321162AEA7C6CB457D5476Bca",
      "gasPrice": {
        "_hex": "0xccabee8d2"
      },
      "gasLimit": {
        "_hex": "0x55f0"
      },
      "to": "0xe7523F78ae9eDb81dC7B2A9ca718Ba3776C14f2e",
      "value": {
        "_hex": "0xc0d9f13b4dc3b8c8"
      },
      "nonce": 659,
      "data": "0x",
      "r": "0x064460c32cbe988241ecc16b8c7af51754f1b91fe0318d0db7f9841bbe328c70",
      "s": "0x198304fe746bcc986d5178951ee67c8a38e2c75b042486970b8cb93e3c7b5d4e",
      "v": 28,
      "creates": null,
      "raw": "0xf86e820293850ccabee8d28255f094e7523f78ae9edb81dc7b2a9ca718ba3776c14f2e88c0d9f13b4dc3b8c8801ca0064460c32cbe988241ecc16b8c7af51754f1b91fe0318d0db7f9841bbe328c70a0198304fe746bcc986d5178951ee67c8a38e2c75b042486970b8cb93e3c7b5d4e",
      "networkId": 0,
      "chainId": 0
    },
    {
      "hash": "0x68129edf986c18111fd72293e09ed680059b526f40766e95b67fbf2ecd7bf0d2",
      "blockHash": "0x4142966e11d9db2589d90d3d06ab11eaafcc36b6b593212591745a9fb98259da",
      "blockNumber": 69275,
      "transactionIndex": 33,
      "confirmations": null,
      "from": "0xe6A7a1d47ff21B6321162AEA7C6CB457D5476Bca",
      "gasPrice": {
        "_hex": "0xccabee8d2"
      },
      "gasLimit": {
        "_hex": "0x55f0"
      },
      "to": "0x701aE497d3522329870Ada714AA902424EA8Da01",
      "value": {
        "_hex": "0xc3a726e94ead4200"
      },
      "nonce": 660,
      "data": "0x",
      "r": "0x5d3f4bc34fe89dee555bb4a42836714ab165f1c2fff486ec445f0b41583130d3",
      "s": "0x7bfb2c56b4ce599c6259da42534d3adb747c2edfb337cc1e3ffdd2327b9fed23",
      "v": 27,
      "creates": null,
      "raw": "0xf86e820294850ccabee8d28255f094701ae497d3522329870ada714aa902424ea8da0188c3a726e94ead4200801ba05d3f4bc34fe89dee555bb4a42836714ab165f1c2fff486ec445f0b41583130d3a07bfb2c56b4ce599c6259da42534d3adb747c2edfb337cc1e3ffdd2327b9fed23",
      "networkId": 0,
      "chainId": 0
    }
  ]
}