{
  "hash": "0x9d7beb73e1d7847d720cc1468470b5c2485a9e0a432fb096ec4ccfd74e92cd71",
  "parentHash": "0xc384e8c28d8736c1db794f8c1409703e301dd885510bda9b36f9e5bed02d6a04",
  "number": 72206,
  "timestamp": 1439349104,
  "nonce": "0xe2ebf6899bedf630",
  "difficulty": 2166426092517,
  "gasLimit": {
    "_hex": "0x2fefd8"
  },
  "gasUsed": {
    "_hex": "0x15d82"
  },
  "miner": "0x3222BA3F3e79eA0e31467EEE7639B57923558cCD",
  "extraData": "0x",
  "transactions": [
    {
      "hash": "0x0ef593b5ec85a3c561c0cf8ff847efe7d950a1a0422454b4ed398262cdde5888",
      "blockHash": "0x9d7beb73e1d7847d720cc1468470b5c2485a9e0a432fb096ec4ccfd74e92cd71",
      "blockNumber": 72206,
      "transactionIndex": 0,
      "confirmations": null,
      "from": "0x17580B766f7453525ca4C6A88b01b50570EA088C",
      "gasPrice": {
        "_hex": "0xcef8db56b"
      },
      "gasLimit": {
        "_hex": "0x61a80"
      },
      "to": "0x5Fe5B7546D1628f7348B023A0393de1FC825A4fD",
      "value": {
        "_hex": "0x8ac7230489e80000"
      },
      "nonce": 374,
      "data": "0xb595b8b50000000000000000000000000000000000000000000000000000000000000001",
      "r": "0x4125736bc7d2f10faba071834eece2edafd5e6146688ef2c5f6895acd5285ffa",
      "s": "0x6bb43f3de6b70c74175b65c618b0e331728b92132d289f1fb1d16b89c64b1d13",
      "v": 27,
      "creates": null,
      "raw": "0xf893820176850cef8db56b83061a80945fe5b7546d1628f7348b023a0393de1fc825a4fd888ac7230489e80000a4b595b8b500000000000000000000000000000000000000000000000000000000000000011ba04125736bc7d2f10faba071834eece2edafd5e6146688ef2c5f6895acd5285ffaa06bb43f3de6b70c74175b65c618b0e331728b92132d289f1fb1d16b89c64b1d13",
      "networkId": 0,
      "chainId": 0
    },
    {
      "hash": "0x1fc4c856b17d978f83b56b520a4d99ecc46b5b69b0b0b68e4c8056e48a1953ef",
      "blockHash": "0x9d7beb73e1d7847d720cc1468470b5c2485a9e0a432fb096ec4ccfd74e92cd71",
      "blockNumber": 72206,
      "transactionIndex": 1,
      "confirmations": null,
      "from": "0x17580B766f7453525ca4C6A88b01b50570EA088C",
      "gasPrice": {
        "_hex": "0xcef8db56b"
      },
      "gasLimit": {
        "_hex": "0x61a80"
      },
      "to": "0x5Fe5B7546D1628f7348B023A0393de1FC825A4fD",
      "value": {
        "_hex": "0x8ac7230489e80000"
      },
      "nonce": 375,
      "data": "0xb595b8b50000000000000000000000000000000000000000000000000000000000000001",
      "r": "0xdd9139c2b0d700207f048ec6e92e6b610e3d8b91ab9a410c114ef140cc8a1c6f",
      "s": "0x43ef37d5d37ef7c682b98e8cb1dbe85fff96839103fbe465799fe15dd652ca6e",
      "v": 28,
      "creates": null,
      "raw": "0xf893820177850cef8db56b83061a80945fe5b7546d1628f7348b023a0393de1fc825a4fd888ac7230489e80000a4b595b8b500000000000000000000000000000000000000000000000000000000000000011ca0dd9139c2b0d700207f048ec6e92e6b610e3d8b91ab9a410c114ef140cc8a1c6fa043ef37d5d37ef7c682b98e8cb1dbe85fff96839103fbe465799fe15dd652ca6e",
      "networkId": 0,
      "chainId": 0
    }
  ]
}