{
  "hash": "0x9269f8c2362b43023239038ea73740970bd8c1bc6aedf1ba0233bbe13ec69e80",
  "parentHash": "0x12a068024d2ea5c93a1ded3df03f525d7c5b97d2d8ec54dd3289d8a0a3f78e0d",
  "number": 49377,
  "timestamp": 1438972631,
  "nonce": "0xbedf51b94f05e15f",
  "difficulty": 1476345500596,
  "gasLimit": {
    "_hex": "0x2efef"
  },
  "gasUsed": {
    "_hex": "0xf87c"
  },
  "miner": "0x48040276E9c17DDbe5C8d2976245dCD0235efA43",
  "extraData": "0x476574682f76312e302e312d38326566323666362f6c696e75782f676f312e34",
  "transactions": [
    {
      "hash": "0xa55ebe83a95d941d68b6a8eed235c211bb11bd0b161e8ae993a81a734d0ccda2",
      "blockHash": "0x9269f8c2362b43023239038ea73740970bd8c1bc6aedf1ba0233bbe13ec69e80",
      "blockNumber": 49377,
      "transactionIndex": 0,
      "confirmations": null,
      "from": "0xc749668042E71123A648975E08Ed6382f83E05e2",
      "gasPrice": {
        "_hex": "0x110c8f7d8de"
      },
      "gasLimit": {
        "_hex": "0xc350"
      },
      "to": "0x2910543Af39abA0Cd09dBb2D50200b3E800A63D2",
      "value": {
        "_hex": "0x1b1ae4d6e2ef5000000"
      },
      "nonce": 1,
      "data": "0x454e31545835574d30",
      "r": "0x81257efa65cbcf2044feb6f6b3564488aae9e712e203274cd7961bc3d15c6b97",
      "s": "0x697f86fa8e3c373b4f064efd1c34adb81ba2d2ac36ddac576d3a49437bdfc794",
      "v": 27,
      "creates": null,
      "raw": "0xf87801860110c8f7d8de82c350942910543af39aba0cd09dbb2d50200b3e800a63d28a01b1ae4d6e2ef500000089454e31545835574d301ba081257efa65cbcf2044feb6f6b3564488aae9e712e203274cd7961bc3d15c6b97a0697f86fa8e3c373b4f064efd1c34adb81ba2d2ac36ddac576d3a49437bdfc794",
      "networkId": 0,
      "chainId": 0
    },
    {
      "hash": "0x32e662ba0136809eb0fd069ee2a1dd7064e5601987a6aade9917affae2bbbfa4",
      "blockHash": "0x9269f8c2362b43023239038ea73740970bd8c1bc6aedf1ba0233bbe13ec69e80",
      "blockNumber": 49377,
      "transactionIndex": 1,
      "confirmations": null,
      "from": "0x0617194e49BaAD419B57FB8EBba265E417362835",
      "gasPrice": {
        "_hex": "0xd9f99397f"
      },
      "gasLimit": {
        "_hex": "0x5208"
      },
      "to": "0xc8ebccC5F5689Fa8659d83713341e5aD19349448",
      "value": {
        "_hex": "0x4c0635a9c42fd0000"
      },
      "nonce": 0,
      "data": "0x",
      "r": "0x6f437fd623cf9f3e1b7a935d31c7ff329b901d632f5d21c869ef89c2c139bc0a",
      "s": "0x312607b1797b2cf6d8ff4649ab39a37670e8e97bf9cef4fd237b759e7b66569b",
      "v": 27,
      "creates": null,
      "raw": "0xf86d80850d9f99397f82520894c8ebccc5f5689fa8659d83713341e5ad193494488904c0635a9c42fd0000801ba06f437fd623cf9f3e1b7a935d31c7ff329b901d632f5d21c869ef89c2c139bc0aa0312607b1797b2cf6d8ff4649ab39a37670e8e97bf9cef4fd237b759e7b66569b",
      "networkId": 0,
      "chainId": 0
    },
    {
      "hash": "0x588908ebc7c81720d44d6e91202787579c1cfe7c697865ea7d7b335807bb1d59",
      "blockHash": "0x9269f8c2362b43023239038ea73740970bd8c1bc6aedf1ba0233bbe13ec69e80",
      "blockNumber": 49377,
      "transactionIndex": 2,
      "confirmations": null,
      "from": "0xDe50f61a9a1176B7875050872C6Baf0032e6F6FF",
      "gasPrice": {
        "_hex": "0xd70931e87"
      },
      "gasLimit": {
        "_hex": "0x15f90"
      },
      "to": "0xAA977A3542936031d6D16289441e1C32052Cb913",
      "value": {
        "_hex": "0x8ac7230489e80000"
      },
      "nonce": 3,
      "data": "0x",
      "r": "0xe28c73ee66b340639a81424f5cba7f4aa9c90db6d4205c78d0e7842a25bb19d9",
      "s": "0x543009caa7e4b88a0eb6616c0f3a0058d68be913bdc63934ce13a640cee413a9",
      "v": 27,
      "creates": null,
      "raw": "0xf86d03850d70931e8783015f9094aa977a3542936031d6d16289441e1c32052cb913888ac7230489e80000801ba0e28c73ee66b340639a81424f5cba7f4aa9c90db6d4205c78d0e7842a25bb19d9a0543009caa7e4b88a0eb6616c0f3a0058d68be913bdc63934ce13a640cee413a9",
      "networkId": 0,
      "chainId": 0
    }
  ]
}