{
  "hash": "0x9947851aacf3693bce8a8a4c92e2ded68618262612f4539254d36994a6c5c183",
  "parentHash": "0xb6d36bf12aedb65852ddcb015233f1fe30ef19408544f9914473c7f4e1bb22aa",
  "number": 120383,
  "timestamp": 1440159157,
  "nonce": "0x66793395559f2bdf",
  "difficulty": 4400381432996,
  "gasLimit": {
    "_hex": "0x2fefd8"
  },
  "gasUsed": {
    "_hex": "0x5208"
  },
  "miner": "0xe6A7a1d47ff21B6321162AEA7C6CB457D5476Bca",
  "extraData": "0xd783010002844765746887676f312e342e32856c696e7578",
  "transactions": [
    {
      "hash": "0x43ca71169f7b2c47f81e47d71756fd19c3268ec2bda388305d7bec8be9905443",
      "blockHash": "0x9947851aacf3693bce8a8a4c92e2ded68618262612f4539254d36994a6c5c183",
      "blockNumber": 120383,
      "transactionIndex": 0,
      "confirmations": null,
      "from": "0x9c138F36D624fbF52f1c898A30980d78859A446A",
      "gasPrice": {
        "_hex": "0xba43b7400"
      },
      "gasLimit": {
        "_hex": "0x55f0"
      },
      "to": "0xfa61FFF5ba13ff0DD59B579457F557e0ddeD02dA",
      "value": {
        "_hex": "0x2017a67f731740000"
      },
      "nonce": 3,
      "data": "0x",
      "r": "0x96879c4de7956f42e9160e5f6a294843f709e8baf904ab7914b5ed8e7348dc39",
      "s": "0x4556a0ea63a3087c7d4d6ff5a5c3ec930811a7e35232900866de4b66b7b306d5",
      "v": 27,
      "creates": null,
      "raw": "0xf86d03850ba43b74008255f094fa61fff5ba13ff0dd59b579457f557e0dded02da8902017a67f731740000801ba096879c4de7956f42e9160e5f6a294843f709e8baf904ab7914b5ed8e7348dc39a04556a0ea63a3087c7d4d6ff5a5c3ec930811a7e35232900866de4b66b7b306d5",
      "networkId": 0,
      "chainId": 0
    }
  ]
}