{
  "hash": "0x43f48a052ff90926c37cf9c5c7ab407be80e9dd2a8ed8ccd27d63707e7023b29",
  "parentHash": "0x526bba6cce487b1caf6e7c26af06bd10fd6fd72a1de24b21c13cbf3df764ca0d",
  "number": 106678,
  "timestamp": 1439908557,
  "nonce": "0xa59ec77bbf5c08d6",
  "difficulty": 4457354638271,
  "gasLimit": {
    "_hex": "0x2fefd8"
  },
  "gasUsed": {
    "_hex": "0x5208"
  },
  "miner": "0xa70a9a7040d542C632D8e0bE7c5513A8a5Bbc752",
  "extraData": "0x",
  "transactions": [
    {
      "hash": "0xa577c366a2b7f9a60d3bb063b23fff15ed939d4b4e5369cdd23f39c077cac08d",
      "blockHash": "0x43f48a052ff90926c37cf9c5c7ab407be80e9dd2a8ed8ccd27d63707e7023b29",
      "blockNumber": 106678,
      "transactionIndex": 0,
      "confirmations": null,
      "from": "0xf2881e3e520bF84469Fa00a56449D357FB1af54A",
      "gasPrice": {
        "_hex": "0xdbdafe10a"
      },
      "gasLimit": {
        "_hex": "0x5208"
      },
      "to": "0x32Be343B94f860124dC4fEe278FDCBD38C102D88",
      "value": {
        "_hex": "0xd18992ce2fd98000"
      },
      "nonce": 11,
      "data": "0x",
      "r": "0xaee055d476259d6d4ea44085361f08ce3f42f8aeffdf0548cfe465ce11161904",
      "s": "0x578109c00d6550f0aaa53d6159eab4bba20ac342a2f6a7b8da532a7f130f43e4",
      "v": 27,
      "creates": null,
      "raw": "0xf86c0b850dbdafe10a8252089432be343b94f860124dc4fee278fdcbd38c102d8888d18992ce2fd98000801ba0aee055d476259d6d4ea44085361f08ce3f42f8aeffdf0548cfe465ce11161904a0578109c00d6550f0aaa53d6159eab4bba20ac342a2f6a7b8da532a7f130f43e4",
      "networkId": 0,
      "chainId": 0
    }
  ]
}