{
  "hash": "0xd00032810db4db28edb58cf2cedcb298bb38e3989dd3eb0672cc314aec6acc97",
  "parentHash": "0x14df95655816379cb6039658ef2931dc815c23f161788713ce059c9a161ad835",
  "number": 119475,
  "timestamp": 1440143667,
  "nonce": "0xd0cb1134885ec61f",
  "difficulty": 4392270727571,
  "gasLimit": {
    "_hex": "0x2fefd8"
  },
  "gasUsed": {
    "_hex": "0x5208"
  },
  "miner": "0x9D551f41feD6FC27B719777c224DfeCcE170004d",
  "extraData": "0x476574682f76312e302e322d61303330336666342f6c696e75782f676f312e34",
  "transactions": [
    {
      "hash": "0x574c7487e57b10bf5c636df168bd974f075904e099c8dc044b003cd78e725121",
      "blockHash": "0xd00032810db4db28edb58cf2cedcb298bb38e3989dd3eb0672cc314aec6acc97",
      "blockNumber": 119475,
      "transactionIndex": 0,
      "confirmations": null,
      "from": "0x2Ba293248CEDDE748A4b083fb63829d20D32607d",
      "gasPrice": {
        "_hex": "0xba43b7400"
      },
      "gasLimit": {
        "_hex": "0x5208"
      },
      "to": "0x32Be343B94f860124dC4fEe278FDCBD38C102D88",
      "value": {
        "_hex": "0x76e0e0ed0dad1000"
      },
      "nonce": 2,
      "data": "0x",
      "r": "0x3f7a996b59622f209069b2d35463ca15fcc8ff3d232ce81522a3fa139ca1a851",
      "s": "0x57fb4f928ac809661cf46f9a9556ded4261e9dc656235e0d7235bde8528617a2",
      "v": 28,
      "creates": null,
      "raw": "0xf86c02850ba43b74008252089432be343b94f860124dc4fee278fdcbd38c102d888876e0e0ed0dad1000801ca03f7a996b59622f209069b2d35463ca15fcc8ff3d232ce81522a3fa139ca1a851a057fb4f928ac809661cf46f9a9556ded4261e9dc656235e0d7235bde8528617a2",
      "networkId": 0,
      "chainId": 0
    }
  ]
}