{
  "hash": "0x8488946f0df2f171ca5ca0c830373aac4947c97ca8916930b2c25a47e2e72498",
  "parentHash": "0x40c2430c6b0a301b34488b0d2ba5fa2c15f771773ad4e14cee7840986d006bdd",
  "number": 59558,
  "timestamp": 1439140244,
  "nonce": "0x40b3eab701283eb2",
  "difficulty": 1699690138257,
  "gasLimit": {
    "_hex": "0x2fefd8"
  },
  "gasUsed": {
    "_hex": "0x5208"
  },
  "miner": "0x0338116f55fEd2F5ee9391C8624612Dc9744D149",
  "extraData": "0x476574682f76312e302e312f6c696e75782f676f312e342e32",
  "transactions": [
    {
      "hash": "0x498bfe3aa6a40a58aa813eb500838562bd2e256fb05c21b329047ac5f69d3931",
      "blockHash": "0x8488946f0df2f171ca5ca0c830373aac4947c97ca8916930b2c25a47e2e72498",
      "blockNumber": 59558,
      "transactionIndex": 0,
      "confirmations": null,
      "from": "0x3a35269a1cF41344F2288e9D11bA854991112015",
      "gasPrice": {
        "_hex": "0xddb0fb9d2"
      },
      "gasLimit": {
        "_hex": "0x15f90"
      },
      "to": "0x86d3856ad0105B9d4199936c1fd203664BA325dC",
      "value": {
        "_hex": "0x46c6d6faa27e0000"
      },
      "nonce": 3,
      "data": "0x",
      "r": "0x1449d12bc6f0910f9c6fc4e4de86c14864991b75ea3ee6953a200968d153167b",
      "s": "0x4d981f1521d549ebc3d365573ba5df05f013ff9b899e8683a1c029e54243d131",
      "v": 27,
      "creates": null,
      "raw": "0xf86d03850ddb0fb9d283015f909486d3856ad0105b9d4199936c1fd203664ba325dc8846c6d6faa27e0000801ba01449d12bc6f0910f9c6fc4e4de86c14864991b75ea3ee6953a200968d153167ba04d981f1521d549ebc3d365573ba5df05f013ff9b899e8683a1c029e54243d131",
      "networkId": 0,
      "chainId": 0
    }
  ]
}