{
  "hash": "0x0e3cd9b155f83713ef5f00a7d89fb394360d2c39b08ebde8e8e5eb3ce7cfae9d",
  "parentHash": "0x21ab4b48a26b5a0d109988f00311e26d812645a19b0f51d39c32c88798f42b39",
  "number": 47319,
  "timestamp": 1438938072,
  "nonce": "0xe090754e31e03f48",
  "difficulty": 1452394460796,
  "gasLimit": {
    "_hex": "0xb069"
  },
  "gasUsed": {
    "_hex": "0x5208"
  },
  "miner": "0xe6A7a1d47ff21B6321162AEA7C6CB457D5476Bca",
  "extraData": "0x657468706f6f6c2e6f7267",
  "transactions": [
    {
      "hash": "0xcaddf498e847f075f5b774dec175c14f46b1c86abd977380b4c60c8ab8533883",
      "blockHash": "0x0e3cd9b155f83713ef5f00a7d89fb394360d2c39b08ebde8e8e5eb3ce7cfae9d",
      "blockNumber": 47319,
      "transactionIndex": 0,
      "confirmations": null,
      "from": "0xe6A7a1d47ff21B6321162AEA7C6CB457D5476Bca",
      "gasPrice": {
        "_hex": "0xfad2179fe"
      },
      "gasLimit": {
        "_hex": "0x5208"
      },
      "to": "0x3222BA3F3e79eA0e31467EEE7639B57923558cCD",
      "value": {
        "_hex": "0xb40dac2788441420"
      },
      "nonce": 106,
      "data": "0x",
      "r": "0x122b1c3e8bb44966a10ae4a454d4bfb164506244b1d7882841ad0c9cf9d6cbf4",
      "s": "0x179d04798d3599510ff17cda9e75c2226bf698712513e21cc90e16befa4f2201",
      "v": 28,
      "creates": null,
      "raw": "0xf86c6a850fad2179fe825208943222ba3f3e79ea0e31467eee7639b57923558ccd88b40dac2788441420801ca0122b1c3e8bb44966a10ae4a454d4bfb164506244b1d7882841ad0c9cf9d6cbf4a0179d04798d3599510ff17cda9e75c2226bf698712513e21cc90e16befa4f2201",
      "networkId": 0,
      "chainId": 0
    }
  ]
}