{
  "hash": "0x9d613d419f9e13889e3c7f49c08a9a05e66dc9184fce71ea092d759b779f1bc7",
  "parentHash": "0x7a09f0baed335264513eb29b679ea652994496494409c11ca0ad9d1b7007677d",
  "number": 110298,
  "timestamp": 1439971390,
  "nonce": "0x1bcf6ab25ed32773",
  "difficulty": 4360730308344,
  "gasLimit": {
    "_hex": "0x2fefd8"
  },
  "gasUsed": {
    "_hex": "0x5208"
  },
  "miner": "0xD0ee3F53eE0fCf3F9fbCcdd17BD1b6441DdC2074",
  "extraData": "0x476574682f76312e302e312d38326566323666362f6c696e75782f676f312e34",
  "transactions": [
    {
      "hash": "0x0b8ab124612f8668a5547594800bd3c04118b07a04d49c842fa14624853c385e",
      "blockHash": "0x9d613d419f9e13889e3c7f49c08a9a05e66dc9184fce71ea092d759b779f1bc7",
      "blockNumber": 110298,
      "transactionIndex": 0,
      "confirmations": null,
      "from": "0x007f7f58D3eb5b7510A301eCC749FC1fCDDBE14D",
      "gasPrice": {
        "_hex": "0xd382b0b9c"
      },
      "gasLimit": {
        "_hex": "0x15f90"
      },
      "to": "0xb1abce2918E21ddb93AA452731a12672A3d9F75a",
      "value": {
        "_hex": "0x4563918244f40000"
      },
      "nonce": 286,
      "data": "0x",
      "r": "0x8929a5a9e955c75209a23ca090331ab1aeafde3f4f05275232fe058a1db54427",
      "s": "0x7eebe8ddd80840a1b92e55c1e4b726316c7c69ca91f24575287de9aa2e632e2f",
      "v": 27,
      "creates": null,
      "raw": "0xf86f82011e850d382b0b9c83015f9094b1abce2918e21ddb93aa452731a12672a3d9f75a884563918244f40000801ba08929a5a9e955c75209a23ca090331ab1aeafde3f4f05275232fe058a1db54427a07eebe8ddd80840a1b92e55c1e4b726316c7c69ca91f24575287de9aa2e632e2f",
      "networkId": 0,
      "chainId": 0
    }
  ]
}