{
  "hash": "0xd00831a2c4dffc1c232f01d159c6d5ed4f24c1c114b1d6186c2a797226b6f296",
  "parentHash": "0x8ad276c070ce94a711c4aa770072ed09c2cec5fef182d67e6cc085ebb1e08abd",
  "number": 82918,
  "timestamp": 1439527018,
  "nonce": "0xa2414c7e3f3155eb",
  "difficulty": 2409028998798,
  "gasLimit": {
    "_hex": "0x2fefd8"
  },
  "gasUsed": {
    "_hex": "0xf618"
  },
  "miner": "0xf927a40C8B7F6E07c5af7FA2155B4864a4112B13",
  "extraData": "0x",
  "transactions": [
    {
      "hash": "0xaec4a35abf1f671d22bdc50a441010adfd52b9ab6d8f843404ad0bf0bd0a7c4b",
      "blockHash": "0xd00831a2c4dffc1c232f01d159c6d5ed4f24c1c114b1d6186c2a797226b6f296",
      "blockNumber": 82918,
      "transactionIndex": 0,
      "confirmations": null,
      "from": "0x79d5794171E11dd5C2f0e26E1C187319db2FE6f7",
      "gasPrice": {
        "_hex": "0xcd2e5adc9"
      },
      "gasLimit": {
        "_hex": "0x5208"
      },
      "to": "0x32Be343B94f860124dC4fEe278FDCBD38C102D88",
      "value": {
        "_hex": "0x455f8166d1243c00"
      },
      "nonce": 23,
      "data": "0x",
      "r": "0xc064cbd8a6851a93311aa2500e6ec92d002199f4e323ceaf2997ce7250f26c5b",
      "s": "0x5f990bb31078fdfe4b494c948ab5d11d6124ce1777159fad3b2ed383295e1626",
      "v": 28,
      "creates": null,
      "raw": "0xf86c17850cd2e5adc98252089432be343b94f860124dc4fee278fdcbd38c102d8888455f8166d1243c00801ca0c064cbd8a6851a93311aa2500e6ec92d002199f4e323ceaf2997ce7250f26c5ba05f990bb31078fdfe4b494c948ab5d11d6124ce1777159fad3b2ed383295e1626",
      "networkId": 0,
      "chainId": 0
    },
    {
      "hash": "0xc02e7ecd11c87921c8d58c18f76f4bd47eba7fc1826a666e0332144f2bb41561",
      "blockHash": "0xd00831a2c4dffc1c232f01d159c6d5ed4f24c1c114b1d6186c2a797226b6f296",
      "blockNumber": 82918,
      "transactionIndex": 1,
      "confirmations": null,
      "from": "0xa70a9a7040d542C632D8e0bE7c5513A8a5Bbc752",
      "gasPrice": {
        "_hex": "0xcd2e5adc9"
      },
      "gasLimit": {
        "_hex": "0x5208"
      },
      "to": "0x32Be343B94f860124dC4fEe278FDCBD38C102D88",
      "value": {
        "_hex": "0x478a921b6ed24400"
      },
      "nonce": 65,
      "data": "0x",
      "r": "0x908431fadadd402cd2c7e919714803376bcd287e3e3bdb211f5d2d228799f1b1",
      "s": "0x13f19dd14f209b732121b174915ed0332042629f4d8c15d5f2065de814a92b70",
      "v": 27,
      "creates": null,
      "raw": "0xf86c41850cd2e5adc98252089432be343b94f860124dc4fee278fdcbd38c102d8888478a921b6ed24400801ba0908431fadadd402cd2c7e919714803376bcd287e3e3bdb211f5d2d228799f1b1a013f19dd14f209b732121b174915ed0332042629f4d8c15d5f2065de814a92b70",
      "networkId": 0,
      "chainId": 0
    },
    {
      "hash": "0x9e4c3dc863c17e34f70466bcf70f49e55ec4e1c13ea3dd93622a6c0a864fe208",
      "blockHash": "0xd00831a2c4dffc1c232f01d159c6d5ed4f24c1c114b1d6186c2a797226b6f296",
      "blockNumber": 82918,
      "transactionIndex": 2,
      "confirmations": null,
      "from": "0x32Be343B94f860124dC4fEe278FDCBD38C102D88",
      "gasPrice": {
        "_hex": "0xcd2e5adc9"
      },
      "gasLimit": {
        "_hex": "0x5208"
      },
      "to": "0xb794F5eA0ba39494cE839613fffBA74279579268",
      "value": {
        "_hex": "0xfe1c215e8f839000000"
      },
      "nonce": 636,
      "data": "0x",
      "r": "0xcafe141b87385fdc3e4538568de76e5ddd95d8be1f2e0b5f41f4eb6f0bfeeaa8",
      "s": "0x606c90c565477e473bd87ea9e53da029a55d63d7044629c766932369cc2b9dd7",
      "v": 28,
      "creates": null,
      "raw": "0xf87082027c850cd2e5adc982520894b794f5ea0ba39494ce839613fffba742795792688a0fe1c215e8f839000000801ca0cafe141b87385fdc3e4538568de76e5ddd95d8be1f2e0b5f41f4eb6f0bfeeaa8a0606c90c565477e473bd87ea9e53da029a55d63d7044629c766932369cc2b9dd7",
      "networkId": 0,
      "chainId": 0
    }
  ]
}