{
  "hash": "0x3e0fcf118e6fbe7ca3fd37bba464be3d5d2ea9bf34ecff8a6c8f3307eb1fcdc1",
  "parentHash": "0xbaaeda58eee39d1cf614b2ee9b79ed798e3833bb52c233afd42253c329eb7ac2",
  "number": 121159,
  "timestamp": 1440172414,
  "nonce": "0xcbe5a8c7df870e84",
  "difficulty": 4404273337379,
  "gasLimit": {
    "_hex": "0x2fefd8"
  },
  "gasUsed": {
    "_hex": "0xa410"
  },
  "miner": "0x52bc44d5378309EE2abF1539BF71dE1b7d7bE3b5",
  "extraData": "0xd783010002844765746887676f312e342e32856c696e7578",
  "transactions": [
    {
      "hash": "0xfb0dda1a5a25885d4995828e17c02fd21ca738ff5c2281d78acfe6f141f37974",
      "blockHash": "0x3e0fcf118e6fbe7ca3fd37bba464be3d5d2ea9bf34ecff8a6c8f3307eb1fcdc1",
      "blockNumber": 121159,
      "transactionIndex": 0,
      "confirmations": null,
      "from": "0xD0ee3F53eE0fCf3F9fbCcdd17BD1b6441DdC2074",
      "gasPrice": {
        "_hex": "0xba43b7400"
      },
      "gasLimit": {
        "_hex": "0x15f90"
      },
      "to": "0xdc2d5af138868A1C35b1fdAF8be9844D25BAB533",
      "value": {
        "_hex": "0x2b15553fa61c54000"
      },
      "nonce": 5,
      "data": "0x",
      "r": "0x020a8a16880063c122d65c64cdbf0ceda9d426db28f1a07ae451cad49a8741e0",
      "s": "0x00c69776f80ec2378a2a5212ec386d9ed733bc5d531349fa2774334a23ab75cc",
      "v": 28,
      "creates": null,
      "raw": "0xf86d05850ba43b740083015f9094dc2d5af138868a1c35b1fdaf8be9844d25bab5338902b15553fa61c54000801ca0020a8a16880063c122d65c64cdbf0ceda9d426db28f1a07ae451cad49a8741e09fc69776f80ec2378a2a5212ec386d9ed733bc5d531349fa2774334a23ab75cc",
      "networkId": 0,
      "chainId": 0
    },
    {
      "hash": "0xa4c3e88371740a556e0bfa203bcb66f309bff978593ce728caab17b904e8577b",
      "blockHash": "0x3e0fcf118e6fbe7ca3fd37bba464be3d5d2ea9bf34ecff8a6c8f3307eb1fcdc1",
      "blockNumber": 121159,
      "transactionIndex": 1,
      "confirmations": null,
      "from": "0xD9176cf582B2f51fAD57941e0a84dfBa0Ed3620D",
      "gasPrice": {
        "_hex": "0xba43b7400"
      },
      "gasLimit": {
        "_hex": "0x5208"
      },
      "to": "0x32Be343B94f860124dC4fEe278FDCBD38C102D88",
      "value": {
        "_hex": "0x44290da5f1b260000"
      },
      "nonce": 4,
      "data": "0x",
      "r": "0xc6802449a81116771713c4ebea8df7dd513e7a8a91a9c9213f5993161ae0c875",
      "s": "0x0169d14c1a85e56eea7f9c0e69cc46267e4353f9910bc215f50635850944072d",
      "v": 28,
      "creates": null,
      "raw": "0xf86d04850ba43b74008252089432be343b94f860124dc4fee278fdcbd38c102d8889044290da5f1b260000801ca0c6802449a81116771713c4ebea8df7dd513e7a8a91a9c9213f5993161ae0c875a00169d14c1a85e56eea7f9c0e69cc46267e4353f9910bc215f50635850944072d",
      "networkId": 0,
      "chainId": 0
    }
  ]
}