{
  "hash": "0x2a71b9ac6b20dec91a516c07fb77a030193f870a09a66271fd710a42d42861f4",
  "parentHash": "0x2f0b85b863272c43313d55bf2b056db18ac7aa3552e42513cb37df6f431c6a64",
  "number": 69682,
  "timestamp": 1439308031,
  "nonce": "0xdfc4603b1d6522ed",
  "difficulty": 2084058571959,
  "gasLimit": {
    "_hex": "0x2fefd8"
  },
  "gasUsed": {
    "_hex": "0x546c"
  },
  "miner": "0xbb7B8287f3F0a933474a79eAe42CBCa977791171",
  "extraData": "0x476574682f4c5649562f76312e302e312f6c696e75782f676f312e342e32",
  "transactions": [
    {
      "hash": "0x7ce9bf08afce55921c805d007bbe1674862cab128753cf2ee3f41644287f69f0",
      "blockHash": "0x2a71b9ac6b20dec91a516c07fb77a030193f870a09a66271fd710a42d42861f4",
      "blockNumber": 69682,
      "transactionIndex": 0,
      "confirmations": null,
      "from": "0xe172DFC8f80Cd1F8cD8539dC26082014f5a8e3E8",
      "gasPrice": {
        "_hex": "0x110c8f7d8de"
      },
      "gasLimit": {
        "_hex": "0xc350"
      },
      "to": "0x2910543Af39abA0Cd09dBb2D50200b3E800A63D2",
      "value": {
        "_hex": "0xa21695e64d11f80000"
      },
      "nonce": 0,
      "data": "0x454e44514d4d5a4547",
      "r": "0x13f5569b9dee703cff167d12aaf78ad5bc9e466d8c9b834f18f429f6a3ebe143",
      "s": "0xfb252e633cd85305d02bfa24a08a5c45f84a9d8b3d8113fafdc677c39688430b",
      "v": 27,
      "creates": null,
      "raw": "0xf87780860110c8f7d8de82c350942910543af39aba0cd09dbb2d50200b3e800a63d289a21695e64d11f8000089454e44514d4d5a45471ba013f5569b9dee703cff167d12aaf78ad5bc9e466d8c9b834f18f429f6a3ebe143a0fb252e633cd85305d02bfa24a08a5c45f84a9d8b3d8113fafdc677c39688430b",
      "networkId": 0,
      "chainId": 0
    }
  ]
}