{
  "hash": "0x2c944fd4386b720b9221378d946cb6cd16da7091cbd79a06dcb98bb2b20c140f",
  "parentHash": "0xba8184586b3ea40f218712b79e97939242269bcc5a2036e60f94edc7502cdef9",
  "number": 87687,
  "timestamp": 1439595936,
  "nonce": "0x31a4d2bb8018daf3",
  "difficulty": 3150931874046,
  "gasLimit": {
    "_hex": "0x2fefd8"
  },
  "gasUsed": {
    "_hex": "0x5208"
  },
  "miner": "0x790b8a3cE86E707ED0eD32bF89B3269692a23CC1",
  "extraData": "0xd783010001844765746887676f312e342e32856c696e7578",
  "transactions": [
    {
      "hash": "0x91ac0f564124919758ea26d187ce8da36730a6259656efa941601d6cce409b2c",
      "blockHash": "0x2c944fd4386b720b9221378d946cb6cd16da7091cbd79a06dcb98bb2b20c140f",
      "blockNumber": 87687,
      "transactionIndex": 0,
      "confirmations": null,
      "from": "0xEdD03B3afA58aaE8C5732fF58e26099bc5C10659",
      "gasPrice": {
        "_hex": "0xba43b7400"
      },
      "gasLimit": {
        "_hex": "0x5208"
      },
      "to": "0xC47Aaa860008be6f65B58c6C6E02a84e666EfE31",
      "value": {
        "_hex": "0x8cf22a122aaac35a10"
      },
      "nonce": 3,
      "data": "0x",
      "r": "0x03ed14fc06c65c2244ef5a33c325032dc2564521796fda3e9fbf5e770f8fb23b",
      "s": "0x36d0637870d740193e32e6d95b6a19afe338bfdfe31054c8e9e2a8fcfece8392",
      "v": 27,
      "creates": null,
      "raw": "0xf86d03850ba43b740082520894c47aaa860008be6f65b58c6c6e02a84e666efe31898cf22a122aaac35a10801ba003ed14fc06c65c2244ef5a33c325032dc2564521796fda3e9fbf5e770f8fb23ba036d0637870d740193e32e6d95b6a19afe338bfdfe31054c8e9e2a8fcfece8392",
      "networkId": 0,
      "chainId": 0
    }
  ]
}