{
  "hash": "0x0a3dfee5739bd0c9745ff985aaa13a36c2758c239f6524d0debc00a68132eaf4",
  "parentHash": "0x5d30d99c924d73890bf654b439611f9df2d17127acbdd6d72f9c1781cab5bd69",
  "number": 54643,
  "timestamp": 1439057593,
  "nonce": "0xdae8847b816b1d97",
  "difficulty": 1622014007450,
  "gasLimit": {
    "_hex": "0x2fefd8"
  },
  "gasUsed": {
    "_hex": "0x5208"
  },
  "miner": "0xf927a40C8B7F6E07c5af7FA2155B4864a4112B13",
  "extraData": "0x476574682f76312e302e312f6c696e75782f676f312e342e32",
  "transactions": [
    {
      "hash": "0xf8d9efb2442d730e7032ea138f66761d9ed8ccb19d955fcdc227c3768af74904",
      "blockHash": "0x0a3dfee5739bd0c9745ff985aaa13a36c2758c239f6524d0debc00a68132eaf4",
      "blockNumber": 54643,
      "transactionIndex": 0,
      "confirmations": null,
      "from": "0x02E852cB5c68F09CE16EFa450e5e22e727683e90",
      "gasPrice": {
        "_hex": "0xd832a075f"
      },
      "gasLimit": {
        "_hex": "0x15f90"
      },
      "to": "0xBef07d97C3481f9D6aee1c98F9d91a180a32442B",
      "value": {
        "_hex": "0xdc2b105dc456a60"
      },
      "nonce": 2,
      "data": "0x",
      "r": "0x8fe7533159ccd68267def14e2b38fd0df9870b3c00b6c0d81a65e158f8ee0fc2",
      "s": "0x6a8088dd58c12b82a4990987feb5d007a896dd379982b873c97132ca4dc70c19",
      "v": 28,
      "creates": null,
      "raw": "0xf86d02850d832a075f83015f9094bef07d97c3481f9d6aee1c98f9d91a180a32442b880dc2b105dc456a60801ca08fe7533159ccd68267def14e2b38fd0df9870b3c00b6c0d81a65e158f8ee0fc2a06a8088dd58c12b82a4990987feb5d007a896dd379982b873c97132ca4dc70c19",
      "networkId": 0,
      "chainId": 0
    }
  ]
}