{
  "hash": "0x11c2f0668f420d0df56de3415b144561f99cdbdb9e03f26bf86b5640a70f1b8d",
  "parentHash": "0xf7a5c4c2cf27b9d6982f54b40a5e7a2eb454d289dad4e1db8ba5f2729131c303",
  "number": 59713,
  "timestamp": 1439142428,
  "nonce": "0x191bad752f60176d",
  "difficulty": 1712153105867,
  "gasLimit": {
    "_hex": "0x2fefd8"
  },
  "gasUsed": {
    "_hex": "0x5208"
  },
  "miner": "0xf927a40C8B7F6E07c5af7FA2155B4864a4112B13",
  "extraData": "0x476574682f76312e302e312f6c696e75782f676f312e342e32",
  "transactions": [
    {
      "hash": "0x9d33122f01d27adfec010f6ba360b055b11793ddf019d568bb49f32e1d8bc293",
      "blockHash": "0x11c2f0668f420d0df56de3415b144561f99cdbdb9e03f26bf86b5640a70f1b8d",
      "blockNumber": 59713,
      "transactionIndex": 0,
      "confirmations": null,
      "from": "0x16893e10b99A59afd2C60331E0B49241d4d4d7cC",
      "gasPrice": {
        "_hex": "0xcb35b0ec3"
      },
      "gasLimit": {
        "_hex": "0x15f90"
      },
      "to": "0x35D68Fb24Df0e54D44e6cC32f75f1cc891f57811",
      "value": {
        "_hex": "0x1bc16d674ec80000"
      },
      "nonce": 3,
      "data": "0x",
      "r": "0x0c6f5528f675ed7a94ad47f4ec62b68f8bc39b613a1808a2dd9390af88c035b5",
      "s": "0x1bd65ef9c3190616aadd70c919cf5c301a142d4f7751654e54a3f8129c362158",
      "v": 28,
      "creates": null,
      "raw": "0xf86d03850cb35b0ec383015f909435d68fb24df0e54d44e6cc32f75f1cc891f57811881bc16d674ec80000801ca00c6f5528f675ed7a94ad47f4ec62b68f8bc39b613a1808a2dd9390af88c035b5a01bd65ef9c3190616aadd70c919cf5c301a142d4f7751654e54a3f8129c362158",
      "networkId": 0,
      "chainId": 0
    }
  ]
}