{
  "hash": "0xce5805416a49c511a2358b2dfa79310363a723bac90a2e2ccb12524cc5a36fa7",
  "parentHash": "0xbed600f02b9c02f001f8c3d3b89ddffbf2bf22247023d1b3ce6456d66e3145cc",
  "number": 78655,
  "timestamp": 1439457229,
  "nonce": "0x3b84dbcae3841e46",
  "difficulty": 2292032498362,
  "gasLimit": {
    "_hex": "0x2fefd8"
  },
  "gasUsed": {
    "_hex": "0x1d8a8"
  },
  "miner": "0xe6A7a1d47ff21B6321162AEA7C6CB457D5476Bca",
  "extraData": "0x476574682f76312e302e312d38326566323666362f6c696e75782f676f312e34",
  "transactions": [
    {
      "hash": "0xdb27904f6f6699c15e2ff281dd907a28258d6843e9d04644cabe706b8a6dc692",
      "blockHash": "0xce5805416a49c511a2358b2dfa79310363a723bac90a2e2ccb12524cc5a36fa7",
      "blockNumber": 78655,
      "transactionIndex": 0,
      "confirmations": null,
      "from": "0xc9B2Af9c94d197b843CD016823fc5D8dFFaDd523",
      "gasPrice": {
        "_hex": "0xdc8c281a6"
      },
      "gasLimit": {
        "_hex": "0x5208"
      },
      "to": "0x32Be343B94f860124dC4fEe278FDCBD38C102D88",
      "value": {
        "_hex": "0x43c33bd28b85dc00000"
      },
      "nonce": 0,
      "data": "0x",
      "r": "0x6bdb630eebbe539d4386ccf20ce45ea634ebcc8b487192cacb8f7a348e43f76e",
      "s": "0x2f62ad331bba4738e8c0d3128a7019d894692224d185d22e10942e28d6d3e312",
      "v": 28,
      "creates": null,
      "raw": "0xf86e80850dc8c281a68252089432be343b94f860124dc4fee278fdcbd38c102d888a043c33bd28b85dc00000801ca06bdb630eebbe539d4386ccf20ce45ea634ebcc8b487192cacb8f7a348e43f76ea02f62ad331bba4738e8c0d3128a7019d894692224d185d22e10942e28d6d3e312",
      "networkId": 0,
      "chainId": 0
    },
    {
      "hash": "0x1a7dbfdbe4ad9dfc710a8ad0a60b96ee3ba9aeffa42ad7d420f63366044da2ff",
      "blockHash": "0xce5805416a49c511a2358b2dfa79310363a723bac90a2e2ccb12524cc5a36fa7",
      "blockNumber": 78655,
      "transactionIndex": 1,
      "confirmations": null,
      "from": "0x18E113D8177c691A61Be785852Fa5Bb47aEeBdAf",
      "gasPrice": {
        "_hex": "0xcc01bb846"
      },
      "gasLimit": {
        "_hex": "0x186a0"
      },
      "to": "0xc2ac6849Aec3938FB8c9B36F1c07be76f766637E",
      "value": {
        "_hex": "0x53444835ec580000"
      },
      "nonce": 7,
      "data": "0x",
      "r": "0x6e210ac80bc53f984953f750e38fedc894094ed7f871b3994aa5d8a546fe0c1a",
      "s": "0x52ff54141d1278b641290afeeaba74ac6ac679c4ec6c08adcd890df53431aba6",
      "v": 28,
      "creates": null,
      "raw": "0xf86d07850cc01bb846830186a094c2ac6849aec3938fb8c9b36f1c07be76f766637e8853444835ec580000801ca06e210ac80bc53f984953f750e38fedc894094ed7f871b3994aa5d8a546fe0c1aa052ff54141d1278b641290afeeaba74ac6ac679c4ec6c08adcd890df53431aba6",
      "networkId": 0,
      "chainId": 0
    }
  ]
}