{
  "hash": "0x99c18ca1d9e1d9f865b45865e2e6178ab2208b773237940bd245fae3c9845d44",
  "parentHash": "0xabd48676403dfbdcd1749a8b23bde312e2c0f2c17a4376f12c2323ee65ee15e5",
  "number": 116177,
  "timestamp": 1440069691,
  "nonce": "0x78d1ce2b452ed63f",
  "difficulty": 4586917588165,
  "gasLimit": {
    "_hex": "0x2fefd8"
  },
  "gasUsed": {
    "_hex": "0x5208"
  },
  "miner": "0xe6A7a1d47ff21B6321162AEA7C6CB457D5476Bca",
  "extraData": "0x476574682f76312e302e312d38326566323666362f6c696e75782f676f312e34",
  "transactions": [
    {
      "hash": "0x24831ce2b662bf3c9e7c25ad42567ef164359e74ad1226358e0be0ec46aed375",
      "blockHash": "0x99c18ca1d9e1d9f865b45865e2e6178ab2208b773237940bd245fae3c9845d44",
      "blockNumber": 116177,
      "transactionIndex": 0,
      "confirmations": null,
      "from": "0xeC06c233d618b41076FbfF739Efb85a4999F89Da",
      "gasPrice": {
        "_hex": "0xd7b9416ea"
      },
      "gasLimit": {
        "_hex": "0x5208"
      },
      "to": "0x32Be343B94f860124dC4fEe278FDCBD38C102D88",
      "value": {
        "_hex": "0xed51552594bc400"
      },
      "nonce": 8,
      "data": "0x",
      "r": "0x6f05132fbb15f3b2ec8fd1287ee1119ac4f562aa22cb276e42f41b54c0cad509",
      "s": "0x51ba8d0807f0bee8de7de7916aa1ddb105179fc1342305f0138868e7f4d7aa41",
      "v": 28,
      "creates": null,
      "raw": "0xf86c08850d7b9416ea8252089432be343b94f860124dc4fee278fdcbd38c102d88880ed51552594bc400801ca06f05132fbb15f3b2ec8fd1287ee1119ac4f562aa22cb276e42f41b54c0cad509a051ba8d0807f0bee8de7de7916aa1ddb105179fc1342305f0138868e7f4d7aa41",
      "networkId": 0,
      "chainId": 0
    }
  ]
}