{
  "hash": "0x8636fe080eea4662ea81bbc8a912ddaddbb90c8eccbdd055e9e79cb9601d3283",
  "parentHash": "0x4b3110cf1d88ef278e5774b76b528f5f3f08eefd20161589e1089ee9299b416a",
  "number": 116095,
  "timestamp": 1440068251,
  "nonce": "0xbd6dcbe2d4014b05",
  "difficulty": 4600420498151,
  "gasLimit": {
    "_hex": "0x2fefd8"
  },
  "gasUsed": {
    "_hex": "0x54b0"
  },
  "miner": "0x7E6930B63D03e88F5928C5cd6ee3FCee4D714F7F",
  "extraData": "0x",
  "transactions": [
    {
      "hash": "0x28803f275d134cbd4b9db7959a0d66b4eb130f96ddd0156d35d30701e64bb6d3",
      "blockHash": "0x8636fe080eea4662ea81bbc8a912ddaddbb90c8eccbdd055e9e79cb9601d3283",
      "blockNumber": 116095,
      "transactionIndex": 0,
      "confirmations": null,
      "from": "0x8F68fbE2DCFf038C24F650C9e05Ee478038171cd",
      "gasPrice": {
        "_hex": "0xdb01420c4"
      },
      "gasLimit": {
        "_hex": "0x55f0"
      },
      "to": "0x40B9b889A21Ff1534d018D71Dc406122EBcf3F5A",
      "value": {
        "_hex": "0x3635c9adc5dea00000"
      },
      "nonce": 25,
      "data": "0x4a465343433732393935",
      "r": "0x2924165e54559fb777d40fd08cc3dd92823ea6799d65cc0bd4e73a6e4bffead3",
      "s": "0x1008dc24a695a878c35625a7fd2dcf4a5e1cc1d79259a4d3a701e82f1eaae757",
      "v": 27,
      "creates": null,
      "raw": "0xf87719850db01420c48255f09440b9b889a21ff1534d018d71dc406122ebcf3f5a893635c9adc5dea000008a4a4653434337323939351ba02924165e54559fb777d40fd08cc3dd92823ea6799d65cc0bd4e73a6e4bffead3a01008dc24a695a878c35625a7fd2dcf4a5e1cc1d79259a4d3a701e82f1eaae757",
      "networkId": 0,
      "chainId": 0
    }
  ]
}