{
  "hash": "0xf688c40a08e449de67422a5cbf69bd211057dcb0a8fc38a247e7b30fb838130f",
  "parentHash": "0xdf46d382f36231d703d5d766025a7468c4555873edaecd1dd79b81982bb0e0ca",
  "number": 92904,
  "timestamp": 1439679072,
  "nonce": "0x2f14c1b10fad3924",
  "difficulty": 3647525509412,
  "gasLimit": {
    "_hex": "0x2fefd8"
  },
  "gasUsed": {
    "_hex": "0xf618"
  },
  "miner": "0xe6A7a1d47ff21B6321162AEA7C6CB457D5476Bca",
  "extraData": "0x476574682f76312e302e312d38326566323666362f6c696e75782f676f312e34",
  "transactions": [
    {
      "hash": "0x0335c73f38eda37da3c3156e22ab0b553ade8cc3b66db7b5ff41ff65c193b41a",
      "blockHash": "0xf688c40a08e449de67422a5cbf69bd211057dcb0a8fc38a247e7b30fb838130f",
      "blockNumber": 92904,
      "transactionIndex": 0,
      "confirmations": null,
      "from": "0xda00ca1794A3bD7D01FFF65716986835D8678B2b",
      "gasPrice": {
        "_hex": "0xdedce21b2"
      },
      "gasLimit": {
        "_hex": "0x5208"
      },
      "to": "0x32Be343B94f860124dC4fEe278FDCBD38C102D88",
      "value": {
        "_hex": "0x3635b373b12f780000"
      },
      "nonce": 0,
      "data": "0x",
      "r": "0x26c96d51a60fbec831843319f2dc32243bde2ffcb1989dfd38cc6790e0f15004",
      "s": "0x3b1443b94b44a71b648f3dd2f7827f8352e7d0a7868f58589ca99aa20cef5a39",
      "v": 27,
      "creates": null,
      "raw": "0xf86d80850dedce21b28252089432be343b94f860124dc4fee278fdcbd38c102d88893635b373b12f780000801ba026c96d51a60fbec831843319f2dc32243bde2ffcb1989dfd38cc6790e0f15004a03b1443b94b44a71b648f3dd2f7827f8352e7d0a7868f58589ca99aa20cef5a39",
      "networkId": 0,
      "chainId": 0
    },
    {
      "hash": "0xe12275b46fe3236c28b2a31dd33191cb8dcfffd0e2c99aaef3d045784ceddd87",
      "blockHash": "0xf688c40a08e449de67422a5cbf69bd211057dcb0a8fc38a247e7b30fb838130f",
      "blockNumber": 92904,
      "transactionIndex": 1,
      "confirmations": null,
      "from": "0x7147dFfD3d08ad00917cFEa2b60188439944990b",
      "gasPrice": {
        "_hex": "0xdedce21b2"
      },
      "gasLimit": {
        "_hex": "0x5208"
      },
      "to": "0x32Be343B94f860124dC4fEe278FDCBD38C102D88",
      "value": {
        "_hex": "0x8ac2ac6912a0e000"
      },
      "nonce": 0,
      "data": "0x",
      "r": "0xe7a1bf468672eb47de9edbaf1cb4bc168293a380aaccac4bc1f5449e899bdd65",
      "s": "0x4dd4716e1d999d442cefc441f3b86cc17d086b732ae8bd610731a62f53438969",
      "v": 28,
      "creates": null,
      "raw": "0xf86c80850dedce21b28252089432be343b94f860124dc4fee278fdcbd38c102d88888ac2ac6912a0e000801ca0e7a1bf468672eb47de9edbaf1cb4bc168293a380aaccac4bc1f5449e899bdd65a04dd4716e1d999d442cefc441f3b86cc17d086b732ae8bd610731a62f53438969",
      "networkId": 0,
      "chainId": 0
    },
    {
      "hash": "0x562fd5fc184264a930c9e293874d0ed711f8c5dc2aa553d943a5796fcb9b2e60",
      "blockHash": "0xf688c40a08e449de67422a5cbf69bd211057dcb0a8fc38a247e7b30fb838130f",
      "blockNumber": 92904,
      "transactionIndex": 2,
      "confirmations": null,
      "from": "0x2910543Af39abA0Cd09dBb2D50200b3E800A63D2",
      "gasPrice": {
        "_hex": "0xd9983bd4e"
      },
      "gasLimit": {
        "_hex": "0x5208"
      },
      "to": "0x02020D22dCF88f5eDd66B382D7da019F161fB7e3",
      "value": {
        "_hex": "0x1d024e25dbd8b3a000"
      },
      "nonce": 839,
      "data": "0x",
      "r": "0xa6991c941616676d57bcd87e3232fce2a6972154aad2db355487a83bd57fdf88",
      "s": "0x7c124720d9ee6240abd65a41293c107d22fbae52e62a94bb388ada3bb6896a2d",
      "v": 27,
      "creates": null,
      "raw": "0xf86f820347850d9983bd4e8252089402020d22dcf88f5edd66b382d7da019f161fb7e3891d024e25dbd8b3a000801ba0a6991c941616676d57bcd87e3232fce2a6972154aad2db355487a83bd57fdf88a07c124720d9ee6240abd65a41293c107d22fbae52e62a94bb388ada3bb6896a2d",
      "networkId": 0,
      "chainId": 0
    }
  ]
}