{
  "hash": "0x33f31485fc046ef0294926b194d134817461dfd457585c66a375e69a97256943",
  "parentHash": "0x179d34ad716f26cb95e9c144884e609edd2b893503e1494fb4ccb95f758fa288",
  "number": 52053,
  "timestamp": 1439015310,
  "nonce": "0x2ba80e96da4d5877",
  "difficulty": 1564935373582,
  "gasLimit": {
    "_hex": "0xfec24"
  },
  "gasUsed": {
    "_hex": "0x5208"
  },
  "miner": "0xbb7B8287f3F0a933474a79eAe42CBCa977791171",
  "extraData": "0x476574682f4c5649562f76312e302e312f6c696e75782f676f312e342e32",
  "transactions": [
    {
      "hash": "0x1a148066e31877917e14c7a09bf7f370c8f2f6d0da0332db98bf9a43906341d7",
      "blockHash": "0x33f31485fc046ef0294926b194d134817461dfd457585c66a375e69a97256943",
      "blockNumber": 52053,
      "transactionIndex": 0,
      "confirmations": null,
      "from": "0xeb5f44D72343Df39680AaF77B2CeD6586e6918c2",
      "gasPrice": {
        "_hex": "0x9184e72a000"
      },
      "gasLimit": {
        "_hex": "0x32e6f"
      },
      "to": "0x2AaE9Cd3e67BEfB4D0A4962dE7db0E924bB6610E",
      "value": {
        "_hex": "0x9184e72a000"
      },
      "nonce": 1,
      "data": "0x",
      "r": "0x6a1b7fc1bed1f7db56d28cf3d9562a5b5142d7a4e079546e1044460dc5af69c5",
      "s": "0x7cbb7a7339da213c93f3c45c8c70ad67cc4863ffe16569a9bf71bc022f6ec987",
      "v": 27,
      "creates": null,
      "raw": "0xf86c018609184e72a00083032e6f942aae9cd3e67befb4d0a4962de7db0e924bb6610e8609184e72a000801ba06a1b7fc1bed1f7db56d28cf3d9562a5b5142d7a4e079546e1044460dc5af69c5a07cbb7a7339da213c93f3c45c8c70ad67cc4863ffe16569a9bf71bc022f6ec987",
      "networkId": 0,
      "chainId": 0
    }
  ]
}