{
  "hash": "0x5b05d259e3402ee3b5e605010d5724838006684d73087d6f94a82f88eadc2be2",
  "parentHash": "0x69b1a11cfdd49750dbb0a8ebff192926df014c2c97ff3c229b2c3786507f9f26",
  "number": 99951,
  "timestamp": 1439798268,
  "nonce": "0xc88b695ac38cdaff",
  "difficulty": 3851199709904,
  "gasLimit": {
    "_hex": "0x2fefd8"
  },
  "gasUsed": {
    "_hex": "0x14820"
  },
  "miner": "0xE4C6175183029A0f039bf2DFffa5C6e8F3cA9B23",
  "extraData": "0x",
  "transactions": [
    {
      "hash": "0xa277d1e4ba8172bfd2f0f1d2320c11e1947389a2f18ee2bf4b090f1d7e26537e",
      "blockHash": "0x5b05d259e3402ee3b5e605010d5724838006684d73087d6f94a82f88eadc2be2",
      "blockNumber": 99951,
      "transactionIndex": 0,
      "confirmations": null,
      "from": "0xe6A7a1d47ff21B6321162AEA7C6CB457D5476Bca",
      "gasPrice": {
        "_hex": "0xd86b68f84"
      },
      "gasLimit": {
        "_hex": "0x55f0"
      },
      "to": "0x1E9Cb3929516130db1ac4CB03a20cAe1CEE52F71",
      "value": {
        "_hex": "0x21b1a99ca4f71ad0"
      },
      "nonce": 3135,
      "data": "0x",
      "r": "0x6e8814be5be439ce61ebd5c666caa90bfed59dcc9039d4f7853a9a78c0caa62d",
      "s": "0x4bc0e9534d39341eb4ac69ef5efb1d905209b3b7c82b72455c2da1916b9528e3",
      "v": 27,
      "creates": null,
      "raw": "0xf86e820c3f850d86b68f848255f0941e9cb3929516130db1ac4cb03a20cae1cee52f718821b1a99ca4f71ad0801ba06e8814be5be439ce61ebd5c666caa90bfed59dcc9039d4f7853a9a78c0caa62da04bc0e9534d39341eb4ac69ef5efb1d905209b3b7c82b72455c2da1916b9528e3",
      "networkId": 0,
      "chainId": 0
    },
    {
      "hash": "0xfec54a27a1971a7ab314e0eabc157c565082c5857247ae2383423a13e30c30f4",
      "blockHash": "0x5b05d259e3402ee3b5e605010d5724838006684d73087d6f94a82f88eadc2be2",
      "blockNumber": 99951,
      "transactionIndex": 1,
      "confirmations": null,
      "from": "0xe6A7a1d47ff21B6321162AEA7C6CB457D5476Bca",
      "gasPrice": {
        "_hex": "0xd86b68f84"
      },
      "gasLimit": {
        "_hex": "0x55f0"
      },
      "to": "0x7903428Eb39b4da60a93f8FCB5228b3b431b7B52",
      "value": {
        "_hex": "0x21d0fa63fa4ca680"
      },
      "nonce": 3136,
      "data": "0x",
      "r": "0x9b8f70d6e1be08505543dc7046e25d36cca9f710b9fc514babcc718d6abf794b",
      "s": "0x5c44f31ca776b19255cfb3a58e0357c1c23aaa97688216fd1e83d064534d0604",
      "v": 28,
      "creates": null,
      "raw": "0xf86e820c40850d86b68f848255f0947903428eb39b4da60a93f8fcb5228b3b431b7b528821d0fa63fa4ca680801ca09b8f70d6e1be08505543dc7046e25d36cca9f710b9fc514babcc718d6abf794ba05c44f31ca776b19255cfb3a58e0357c1c23aaa97688216fd1e83d064534d0604",
      "networkId": 0,
      "chainId": 0
    },
    {
      "hash": "0xda0d9b2cb25a92c1c3d8baddee9941238307cd320f15e349dc90f0cb7f45ede8",
      "blockHash": "0x5b05d259e3402ee3b5e605010d5724838006684d73087d6f94a82f88eadc2be2",
      "blockNumber": 99951,
      "transactionIndex": 2,
      "confirmations": null,
      "from": "0xe6A7a1d47ff21B6321162AEA7C6CB457D5476Bca",
      "gasPrice": {
        "_hex": "0xd86b68f84"
      },
      "gasLimit": {
        "_hex": "0x55f0"
      },
      "to": "0x4245FB34599786Dd82dB47c0f4f2B276001a72CF",
      "value": {
        "_hex": "0x21edc3144dfcd030"
      },
      "nonce": 3137,
      "data": "0x",
      "r": "0x528b0c889eb6a6b685c7ddf92561ae2c033a9645277c1bc3125b9e474575d414",
      "s": "0x04de4d698f565bd3d6c7be0807ec44a10fb8ce4624e38ccc03556f2d4c5d99eb",
      "v": 28,
      "creates": null,
      "raw": "0xf86e820c41850d86b68f848255f0944245fb34599786dd82db47c0f4f2b276001a72cf8821edc3144dfcd030801ca0528b0c889eb6a6b685c7ddf92561ae2c033a9645277c1bc3125b9e474575d414a004de4d698f565bd3d6c7be0807ec44a10fb8ce4624e38ccc03556f2d4c5d99eb",
      "networkId": 0,
      "chainId": 0
    },
    {
      "hash": "0x91f36abf6fa0dbc0493b12bd597af2219ed847f96b1752d969848bd63fbb430d",
      "blockHash": "0x5b05d259e3402ee3b5e605010d5724838006684d73087d6f94a82f88eadc2be2",
      "blockNumber": 99951,
      "transactionIndex": 3,
      "confirmations": null,
      "from": "0xe6A7a1d47ff21B6321162AEA7C6CB457D5476Bca",
      "gasPrice": {
        "_hex": "0xd86b68f84"
      },
      "gasLimit": {
        "_hex": "0x55f0"
      },
      "to": "0xc47d9E6C75d388Aeb92574429dAD43A148f2f3ea",
      "value": {
        "_hex": "0x221a4d435b29af68"
      },
      "nonce": 3138,
      "data": "0x",
      "r": "0xff99a97e44374a28201b51507b37ec438bd691b59c920ecedf42d0aaadd1b509",
      "s": "0x2104533a894a051356db3dfd3e9c3cd2dafa90d697454450ed7bc7836d0e572b",
      "v": 28,
      "creates": null,
      "raw": "0xf86e820c42850d86b68f848255f094c47d9e6c75d388aeb92574429dad43a148f2f3ea88221a4d435b29af68801ca0ff99a97e44374a28201b51507b37ec438bd691b59c920ecedf42d0aaadd1b509a02104533a894a051356db3dfd3e9c3cd2dafa90d697454450ed7bc7836d0e572b",
      "networkId": 0,
      "chainId": 0
    }
  ]
}