{
  "hash": "0x95d2a13e117178ea8c78d0b361bf938c0770556c529b5f8ac947c851a4497aeb",
  "parentHash": "0x0e22288d40b01d2ac2457971b5e571b569108ad27dd34d7dbb70cf017e7c5c73",
  "number": 118322,
  "timestamp": 1440124108,
  "nonce": "0x1f765bb5bfdad19c",
  "difficulty": 4322658079305,
  "gasLimit": {
    "_hex": "0x2fefd8"
  },
  "gasUsed": {
    "_hex": "0xa674"
  },
  "miner": "0x52bc44d5378309EE2abF1539BF71dE1b7d7bE3b5",
  "extraData": "0xd783010002844765746887676f312e342e32856c696e7578",
  "transactions": [
    {
      "hash": "0xaefa79324c0cfdcdc35d4eaaa2a5b4f782f61d4cec3777e937f635d63ef979fc",
      "blockHash": "0x95d2a13e117178ea8c78d0b361bf938c0770556c529b5f8ac947c851a4497aeb",
      "blockNumber": 118322,
      "transactionIndex": 0,
      "confirmations": null,
      "from": "0x7450FF7F99eAa9116275DeAC68e428Df5BbCD8b9",
      "gasPrice": {
        "_hex": "0x110c8f7d8de"
      },
      "gasLimit": {
        "_hex": "0xc350"
      },
      "to": "0x2910543Af39abA0Cd09dBb2D50200b3E800A63D2",
      "value": {
        "_hex": "0x6c5db2a4d815dc0000"
      },
      "nonce": 0,
      "data": "0x454e45524d46595847",
      "r": "0x9c55088e9c5cbb6a8943f98b0cbcb4434a92908696960cb84a709b04a3acc859",
      "s": "0xd89c9fb581993761c147d762995c2d774010de868a79aab8decf757f1d56874c",
      "v": 27,
      "creates": null,
      "raw": "0xf87780860110c8f7d8de82c350942910543af39aba0cd09dbb2d50200b3e800a63d2896c5db2a4d815dc000089454e45524d465958471ba09c55088e9c5cbb6a8943f98b0cbcb4434a92908696960cb84a709b04a3acc859a0d89c9fb581993761c147d762995c2d774010de868a79aab8decf757f1d56874c",
      "networkId": 0,
      "chainId": 0
    },
    {
      "hash": "0x02d54c0ab557238d14adf1f03f2f7e8840c4271ffaf09376b301b2f4fbf962a5",
      "blockHash": "0x95d2a13e117178ea8c78d0b361bf938c0770556c529b5f8ac947c851a4497aeb",
      "blockNumber": 118322,
      "transactionIndex": 1,
      "confirmations": null,
      "from": "0xB6AC12CefF0375Da80503AcCa54bf3061Fa917a8",
      "gasPrice": {
        "_hex": "0xba43b7400"
      },
      "gasLimit": {
        "_hex": "0x15f90"
      },
      "to": "0x5fF827e73C5B866c300b824fe12719a3DD350513",
      "value": {
        "_hex": "0x4563918244f40000"
      },
      "nonce": 24,
      "data": "0x",
      "r": "0x41334e1ae51276f7d755efdb5025bd85239729d6159588e720eed008e32123be",
      "s": "0x69c17b20d145e70c506806ecdcdf5a11c29621869ce6e764a18201bc04e864a2",
      "v": 28,
      "creates": null,
      "raw": "0xf86d18850ba43b740083015f90945ff827e73c5b866c300b824fe12719a3dd350513884563918244f40000801ca041334e1ae51276f7d755efdb5025bd85239729d6159588e720eed008e32123bea069c17b20d145e70c506806ecdcdf5a11c29621869ce6e764a18201bc04e864a2",
      "networkId": 0,
      "chainId": 0
    }
  ]
}