{
  "hash": "0x383f12a6c93c0e0020983bb2e29ab748df04767cc903823ed2e60e1f0a453af4",
  "parentHash": "0xcbe332c7b731af6b452f459672b0c123461215bc2ebf601f15542146b18768ec",
  "number": 87501,
  "timestamp": 1439593261,
  "nonce": "0x7ec586c0978b877d",
  "difficulty": 3138717147657,
  "gasLimit": {
    "_hex": "0x2fefd8"
  },
  "gasUsed": {
    "_hex": "0x5208"
  },
  "miner": "0xE706a05a40761915bC70310f7a94e6B2B596dbf8",
  "extraData": "0x476574682f76312e302e312d38326566323666362f6c696e75782f676f312e34",
  "transactions": [
    {
      "hash": "0x5a40252e40f8049ea8cf893ce583ec3bb58fd4b300bf78da9922f8efd73832e0",
      "blockHash": "0x383f12a6c93c0e0020983bb2e29ab748df04767cc903823ed2e60e1f0a453af4",
      "blockNumber": 87501,
      "transactionIndex": 0,
      "confirmations": null,
      "from": "0x120A270bbC009644e35F0bB6ab13f95b8199c4ad",
      "gasPrice": {
        "_hex": "0xd48d4d0b1"
      },
      "gasLimit": {
        "_hex": "0x3d090"
      },
      "to": "0xc5623FA5c297c05c2d965A336b2068CfA0e567FA",
      "value": {
        "_hex": "0x1b49d0af9897da3800"
      },
      "nonce": 501,
      "data": "0x",
      "r": "0x8cd7935f191d2f6cb92d20ae8439616c84d7586eed99ef7ab869a3652a2a54ac",
      "s": "0x43d9c75f4739a16939e15b8588649aa93cdc3f184bfbef72d7d46a13a4f0e837",
      "v": 28,
      "creates": null,
      "raw": "0xf8708201f5850d48d4d0b18303d09094c5623fa5c297c05c2d965a336b2068cfa0e567fa891b49d0af9897da3800801ca08cd7935f191d2f6cb92d20ae8439616c84d7586eed99ef7ab869a3652a2a54aca043d9c75f4739a16939e15b8588649aa93cdc3f184bfbef72d7d46a13a4f0e837",
      "networkId": 0,
      "chainId": 0
    }
  ]
}