{
  "hash": "0x519a4fdb2a86d54a4b872ca37cd6c17ff23af4ce22c0b8e42d2c3cf546b0cce1",
  "parentHash": "0x1678058bbd0db520d0877ba2994ffbf547fac84ff2c45bd6ff5a32bcbbbada24",
  "number": 84289,
  "timestamp": 1439547614,
  "nonce": "0x7d887678d14ad4e3",
  "difficulty": 2530398336089,
  "gasLimit": {
    "_hex": "0x2fefd8"
  },
  "gasUsed": {
    "_hex": "0x3d860"
  },
  "miner": "0xbb7B8287f3F0a933474a79eAe42CBCa977791171",
  "extraData": "0x476574682f4c5649562f76312e302e312f6c696e75782f676f312e342e32",
  "transactions": [
    {
      "hash": "0x662cc02a63c70b376eedb221d2544db592372dc7cbd03b520b3f7b442b6ac3b4",
      "blockHash": "0x519a4fdb2a86d54a4b872ca37cd6c17ff23af4ce22c0b8e42d2c3cf546b0cce1",
      "blockNumber": 84289,
      "transactionIndex": 0,
      "confirmations": null,
      "from": "0xe6A7a1d47ff21B6321162AEA7C6CB457D5476Bca",
      "gasPrice": {
        "_hex": "0xd6f96a019"
      },
      "gasLimit": {
        "_hex": "0x55f0"
      },
      "to": "0x25A0be9f6fCbDE4F61024B86a33dd80F7cbB3cEc",
      "value": {
        "_hex": "0x109e4c9756bc93e40"
      },
      "nonce": 1834,
      "data": "0x",
      "r": "0x8b88a09ae1f182a4c071fae6efd21ad605e4425d71bebdd6433eb2c900d179c5",
      "s": "0x23fc24dfbdc91b3c8512059ca6a96efd20a46a5b11cc3ab649db78668bc25e38",
      "v": 27,
      "creates": null,
      "raw": "0xf86f82072a850d6f96a0198255f09425a0be9f6fcbde4f61024b86a33dd80f7cbb3cec890109e4c9756bc93e40801ba08b88a09ae1f182a4c071fae6efd21ad605e4425d71bebdd6433eb2c900d179c5a023fc24dfbdc91b3c8512059ca6a96efd20a46a5b11cc3ab649db78668bc25e38",
      "networkId": 0,
      "chainId": 0
    },
    {
      "hash": "0xc278d3e7c78553b8308f002b4f9a22782c0c2fda87dabe97d57fce354edb29aa",
      "blockHash": "0x519a4fdb2a86d54a4b872ca37cd6c17ff23af4ce22c0b8e42d2c3cf546b0cce1",
      "blockNumber": 84289,
      "transactionIndex": 1,
      "confirmations": null,
      "from": "0xe6A7a1d47ff21B6321162AEA7C6CB457D5476Bca",
      "gasPrice": {
        "_hex": "0xd6f96a019"
      },
      "gasLimit": {
        "_hex": "0x55f0"
      },
      "to": "0xe70361D11B44B2fBA997417D7AAa26eb69EBfef0",
      "value": {
        "_hex": "0x10a6ffc9d2e64d960"
      },
      "nonce": 1835,
      "data": "0x",
      "r": "0x76b856367c43a7833fd412e563601954ce77b9f7d3f071187ec1151d9c194b6b",
      "s": "0x2c787a5c2270af180f4c414f5a7fac14d1a161c7e5f01fece4abbdba3194aa36",
      "v": 27,
      "creates": null,
      "raw": "0xf86f82072b850d6f96a0198255f094e70361d11b44b2fba997417d7aaa26eb69ebfef089010a6ffc9d2e64d960801ba076b856367c43a7833fd412e563601954ce77b9f7d3f071187ec1151d9c194b6ba02c787a5c2270af180f4c414f5a7fac14d1a161c7e5f01fece4abbdba3194aa36",
      "networkId": 0,
      "chainId": 0
    },
    {
      "hash": "0xbf1cb7b5f1a52feda583412f654715d4898dc440ea44a09b15705926c674653b",
      "blockHash": "0x519a4fdb2a86d54a4b872ca37cd6c17ff23af4ce22c0b8e42d2c3cf546b0cce1",
      "blockNumber": 84289,
      "transactionIndex": 2,
      "confirmations": null,
      "from": "0xe6A7a1d47ff21B6321162AEA7C6CB457D5476Bca",
      "gasPrice": {
        "_hex": "0xd6f96a019"
      },
      "gasLimit": {
        "_hex": "0x55f0"
      },
      "to": "0xB70f652788a24CeB11C0b586677b03679ccaCE6a",
      "value": {
        "_hex": "0x10e43538bda067ed8"
      },
      "nonce": 1836,
      "data": "0x",
      "r": "0xda1110c2fc998cbaff101c93dbbd9872e0785a102c94602a2552639a13dbda6d",
      "s": "0x71bb9ca87ee4da2a11a089895c3421617d8a277e61a482f891b71469fd252b48",
      "v": 27,
      "creates": null,
      "raw": "0xf86f82072c850d6f96a0198255f094b70f652788a24ceb11c0b586677b03679ccace6a89010e43538bda067ed8801ba0da1110c2fc998cbaff101c93dbbd9872e0785a102c94602a2552639a13dbda6da071bb9ca87ee4da2a11a089895c3421617d8a277e61a482f891b71469fd252b48",
      "networkId": 0,
      "chainId": 0
    },
    {
      "hash": "0xfe8777a557924ade17cc6052a0b8a4dc01711e71fc56c8ce328367da5e455b62",
      "blockHash": "0x519a4fdb2a86d54a4b872ca37cd6c17ff23af4ce22c0b8e42d2c3cf546b0cce1",
      "blockNumber": 84289,
      "transactionIndex": 3,
      "confirmations": null,
      "from": "0xe6A7a1d47ff21B6321162AEA7C6CB457D5476Bca",
      "gasPrice": {
        "_hex": "0xd6f96a019"
      },
      "gasLimit": {
        "_hex": "0x55f0"
      },
      "to": "0xBFa71Aba804c2b986D969E175aCFdAC7266CDe9C",
      "value": {
        "_hex": "0x1110707f13a24e3b0"
      },
      "nonce": 1837,
      "data": "0x",
      "r": "0xe79d4af78d7dd86ad4639e47fcb2efd6fffec3f97d925c1959c5858891612099",
      "s": "0x10972be4ac9d27ba48838d274868726c7d6833fa749ebe81bc5ed83f95443eee",
      "v": 27,
      "creates": null,
      "raw": "0xf86f82072d850d6f96a0198255f094bfa71aba804c2b986d969e175acfdac7266cde9c8901110707f13a24e3b0801ba0e79d4af78d7dd86ad4639e47fcb2efd6fffec3f97d925c1959c5858891612099a010972be4ac9d27ba48838d274868726c7d6833fa749ebe81bc5ed83f95443eee",
      "networkId": 0,
      "chainId": 0
    },
    {
      "hash": "0x6aa8d5389f0221b6000d0f3d140fbb4283d214778da894d5e372ad8b8ce605c7",
      "blockHash": "0x519a4fdb2a86d54a4b872ca37cd6c17ff23af4ce22c0b8e42d2c3cf546b0cce1",
      "blockNumber": 84289,
      "transactionIndex": 4,
      "confirmations": null,
      "from": "0xe6A7a1d47ff21B6321162AEA7C6CB457D5476Bca",
      "gasPrice": {
        "_hex": "0xd6f96a019"
      },
      "gasLimit": {
        "_hex": "0x55f0"
      },
      "to": "0x9cF18B3eb373C383a42d06136ba331D766ed9Fbb",
      "value": {
        "_hex": "0x11501be612486dfe8"
      },
      "nonce": 1838,
      "data": "0x",
      "r": "0xee3774adcb411f20430cc24c6b47d6836bfcbdf6d75094c95231c9db5ea1b11d",
      "s": "0x47212f16bdaf1a0985a2ab51491675f5c1bdc9638e4911ecdb7e8d000fdcb994",
      "v": 28,
      "creates": null,
      "raw": "0xf86f82072e850d6f96a0198255f0949cf18b3eb373c383a42d06136ba331d766ed9fbb89011501be612486dfe8801ca0ee3774adcb411f20430cc24c6b47d6836bfcbdf6d75094c95231c9db5ea1b11da047212f16bdaf1a0985a2ab51491675f5c1bdc9638e4911ecdb7e8d000fdcb994",
      "networkId": 0,
      "chainId": 0
    },
    {
      "hash": "0xc9ede58ddc6a0ccad4fbb73f74f3c10e32a777eeb68a56c63ada1e2ab7c21c46",
      "blockHash": "0x519a4fdb2a86d54a4b872ca37cd6c17ff23af4ce22c0b8e42d2c3cf546b0cce1",
      "blockNumber": 84289,
      "transactionIndex": 5,
      "confirmations": null,
      "from": "0xe6A7a1d47ff21B6321162AEA7C6CB457D5476Bca",
      "gasPrice": {
        "_hex": "0xd6f96a019"
      },
      "gasLimit": {
        "_hex": "0x55f0"
      },
      "to": "0xA971748c4C493bC96C7d490E1789481e1E96bB10",
      "value": {
        "_hex": "0x118e7d120ad560cc0"
      },
      "nonce": 1839,
      "data": "0x",
      "r": "0x507344fa59479316b361ad6f8683512650d43565681ad5381971e4da79d5f041",
      "s": "0x32d5cfc31d58bbd0663de656846893d9ddb79e4d6552b74032b5c58246800d9c",
      "v": 28,
      "creates": null,
      "raw": "0xf86f82072f850d6f96a0198255f094a971748c4c493bc96c7d490e1789481e1e96bb10890118e7d120ad560cc0801ca0507344fa59479316b361ad6f8683512650d43565681ad5381971e4da79d5f041a032d5cfc31d58bbd0663de656846893d9ddb79e4d6552b74032b5c58246800d9c",
      "networkId": 0,
      "chainId": 0
    },
    {
      "hash": "0xb650f90ef7309071dea920814c099c1022690e0361ad5e6298019233aff0a3d4",
      "blockHash": "0x519a4fdb2a86d54a4b872ca37cd6c17ff23af4ce22c0b8e42d2c3cf546b0cce1",
      "blockNumber": 84289,
      "transactionIndex": 6,
      "confirmations": null,
      "from": "0xe6A7a1d47ff21B6321162AEA7C6CB457D5476Bca",
      "gasPrice": {
        "_hex": "0xd6f96a019"
      },
      "gasLimit": {
        "_hex": "0x55f0"
      },
      "to": "0x8C37447a7930187595EC51FEA6f749C4F8a96cD4",
      "value": {
        "_hex": "0x11bb0f64bd1e5be20"
      },
      "nonce": 1840,
      "data": "0x",
      "r": "0x1492b3a36f496215522688685a5a82822123d8d2774df1ace3d7da7109eaf0a2",
      "s": "0x665fa173751d09e24a624b84b3b31823f8e8aee3b1fbffaf09732d042448c655",
      "v": 28,
      "creates": null,
      "raw": "0xf86f820730850d6f96a0198255f0948c37447a7930187595ec51fea6f749c4f8a96cd489011bb0f64bd1e5be20801ca01492b3a36f496215522688685a5a82822123d8d2774df1ace3d7da7109eaf0a2a0665fa173751d09e24a624b84b3b31823f8e8aee3b1fbffaf09732d042448c655",
      "networkId": 0,
      "chainId": 0
    },
    {
      "hash": "0x2ba6cccd25d936f265549b86c49c7a04cbc5c671048cb13652d04a64d89b5100",
      "blockHash": "0x519a4fdb2a86d54a4b872ca37cd6c17ff23af4ce22c0b8e42d2c3cf546b0cce1",
      "blockNumber": 84289,
      "transactionIndex": 7,
      "confirmations": null,
      "from": "0xB9A0a0410aA5e26bFa66Cc3ACAF0A6FC61Df5588",
      "gasPrice": {
        "_hex": "0xd3406edf7"
      },
      "gasLimit": {
        "_hex": "0x5208"
      },
      "to": "0x32Be343B94f860124dC4fEe278FDCBD38C102D88",
      "value": {
        "_hex": "0x2b9fd9fe0794ac00"
      },
      "nonce": 1,
      "data": "0x",
      "r": "0x9963da105df488c487b6681d8d29f5335ef98e40a079a85076ae6fe3d858cc02",
      "s": "0x5bc46bc1e883e2b81f030238fa18354e156ef0264c46bc169de23f11976ce0b2",
      "v": 27,
      "creates": null,
      "raw": "0xf86c01850d3406edf78252089432be343b94f860124dc4fee278fdcbd38c102d88882b9fd9fe0794ac00801ba09963da105df488c487b6681d8d29f5335ef98e40a079a85076ae6fe3d858cc02a05bc46bc1e883e2b81f030238fa18354e156ef0264c46bc169de23f11976ce0b2",
      "networkId": 0,
      "chainId": 0
    },
    {
      "hash": "0xf31371d1a54fc5fd26fd0285ea294705338d4406c79e2637da318550d74beeb6",
      "blockHash": "0x519a4fdb2a86d54a4b872ca37cd6c17ff23af4ce22c0b8e42d2c3cf546b0cce1",
      "blockNumber": 84289,
      "transactionIndex": 8,
      "confirmations": null,
      "from": "0xFD6B6e67d15931706d607e2358A1b0aA05f8e256",
      "gasPrice": {
        "_hex": "0xd3406edf7"
      },
      "gasLimit": {
        "_hex": "0x5208"
      },
      "to": "0x32Be343B94f860124dC4fEe278FDCBD38C102D88",
      "value": {
        "_hex": "0x2882de8706784800"
      },
      "nonce": 0,
      "data": "0x",
      "r": "0xdf3192daa2667bc4f285f1f904917026dbaa0c33f41fd7d069020d00ee4c4151",
      "s": "0x0bce528ef5e7254b387d41117fdfdfffe8b9b8bdacfd915e36c2d97498ae80f0",
      "v": 28,
      "creates": null,
      "raw": "0xf86c80850d3406edf78252089432be343b94f860124dc4fee278fdcbd38c102d88882882de8706784800801ca0df3192daa2667bc4f285f1f904917026dbaa0c33f41fd7d069020d00ee4c4151a00bce528ef5e7254b387d41117fdfdfffe8b9b8bdacfd915e36c2d97498ae80f0",
      "networkId": 0,
      "chainId": 0
    },
    {
      "hash": "0x16f0fa1d5626d5d0b4b8e8ac9e38072390926d4512b93ddf8ff75fbfd9e7f7d1",
      "blockHash": "0x519a4fdb2a86d54a4b872ca37cd6c17ff23af4ce22c0b8e42d2c3cf546b0cce1",
      "blockNumber": 84289,
      "transactionIndex": 9,
      "confirmations": null,
      "from": "0x08FE5A3C0709cF74d76cFd0e0Cd9d2A447eA263C",
      "gasPrice": {
        "_hex": "0xd3406edf7"
      },
      "gasLimit": {
        "_hex": "0x5208"
      },
      "to": "0x32Be343B94f860124dC4fEe278FDCBD38C102D88",
      "value": {
        "_hex": "0x51c9feecb5647000"
      },
      "nonce": 3,
      "data": "0x",
      "r": "0x50c83ba76b92eae921462d857baf830d2db31a53dda7d71943d62104424a37fa",
      "s": "0x216966b5dabd90e1dd1eb65fccab67ff1e1d5c73258b9be9cb30f2714c3f802d",
      "v": 27,
      "creates": null,
      "raw": "0xf86c03850d3406edf78252089432be343b94f860124dc4fee278fdcbd38c102d888851c9feecb5647000801ba050c83ba76b92eae921462d857baf830d2db31a53dda7d71943d62104424a37faa0216966b5dabd90e1dd1eb65fccab67ff1e1d5c73258b9be9cb30f2714c3f802d",
      "networkId": 0,
      "chainId": 0
    },
    {
      "hash": "0x50080929eaefe026a041846cab63b83c5dfd45226eb2f8ed5a3c7f5baae37b90",
      "blockHash": "0x519a4fdb2a86d54a4b872ca37cd6c17ff23af4ce22c0b8e42d2c3cf546b0cce1",
      "blockNumber": 84289,
      "transactionIndex": 10,
      "confirmations": null,
      "from": "0x68d3578bFBeEFB9C1e31cE355A29ad3a107F88C5",
      "gasPrice": {
        "_hex": "0xd3406edf7"
      },
      "gasLimit": {
        "_hex": "0x5208"
      },
      "to": "0x32Be343B94f860124dC4fEe278FDCBD38C102D88",
      "value": {
        "_hex": "0x2c6d2252ff872400"
      },
      "nonce": 2,
      "data": "0x",
      "r": "0xf632d25a505224dd0ac383aa3adf9526d1e06d947a379a3854d35b85ae65b156",
      "s": "0x4ad3ff3c678dbd291a515012c8bda9f2468bb7f40cc8951a6858b87a6e7afe04",
      "v": 27,
      "creates": null,
      "raw": "0xf86c02850d3406edf78252089432be343b94f860124dc4fee278fdcbd38c102d88882c6d2252ff872400801ba0f632d25a505224dd0ac383aa3adf9526d1e06d947a379a3854d35b85ae65b156a04ad3ff3c678dbd291a515012c8bda9f2468bb7f40cc8951a6858b87a6e7afe04",
      "networkId": 0,
      "chainId": 0
    },
    {
      "hash": "0x288d7951af383a41fef49a40b720eb7674db931d292337d85177b797141d75ee",
      "blockHash": "0x519a4fdb2a86d54a4b872ca37cd6c17ff23af4ce22c0b8e42d2c3cf546b0cce1",
      "blockNumber": 84289,
      "transactionIndex": 11,
      "confirmations": null,
      "from": "0x5c34E9095588400B7CFF963daa495eFbEFCa083E",
      "gasPrice": {
        "_hex": "0xd3406edf7"
      },
      "gasLimit": {
        "_hex": "0x5208"
      },
      "to": "0x32Be343B94f860124dC4fEe278FDCBD38C102D88",
      "value": {
        "_hex": "0x25db9a886abd7c00"
      },
      "nonce": 1,
      "data": "0x",
      "r": "0x3d32b118fe9c4d583ba80a5a0b230b6f9021e6faf7febd7f559ca83a76bfd942",
      "s": "0x20f73d20859da0cb337b44d6e9594e2764e9f3311693908950690f8006c0c6f8",
      "v": 27,
      "creates": null,
      "raw": "0xf86c01850d3406edf78252089432be343b94f860124dc4fee278fdcbd38c102d888825db9a886abd7c00801ba03d32b118fe9c4d583ba80a5a0b230b6f9021e6faf7febd7f559ca83a76bfd942a020f73d20859da0cb337b44d6e9594e2764e9f3311693908950690f8006c0c6f8",
      "networkId": 0,
      "chainId": 0
    }
  ]
}