{
  "hash": "0x4b85f91a8d2c4d1cea21545275a483508753a252bc0589c3a0ea205d2a1c46d3",
  "parentHash": "0x0344d71c2310913a8ca2fc2c7f08d85c7703c6340a03367bc64f097b2961d67f",
  "number": 102677,
  "timestamp": 1439841495,
  "nonce": "0x948a407498af6e4c",
  "difficulty": 4042599303424,
  "gasLimit": {
    "_hex": "0x2fefd8"
  },
  "gasUsed": {
    "_hex": "0xf618"
  },
  "miner": "0x8eB3747b8397C48BC29fd5Df6765AbCEfbDffFCA",
  "extraData": "0x476574682f76312e302e312f6c696e75782f676f312e342e32",
  "transactions": [
    {
      "hash": "0xbd951e3e4d9531b4134f0d1668416315cda971182556d8eabe94ffc11d672192",
      "blockHash": "0x4b85f91a8d2c4d1cea21545275a483508753a252bc0589c3a0ea205d2a1c46d3",
      "blockNumber": 102677,
      "transactionIndex": 0,
      "confirmations": null,
      "from": "0x0Ce7b863693f133b14151f242f26d3f7a5424887",
      "gasPrice": {
        "_hex": "0xbdfd63e00"
      },
      "gasLimit": {
        "_hex": "0x5208"
      },
      "to": "0x1a9f66a5CD5A0809F3441E952F18540605A9A3df",
      "value": {
        "_hex": "0x56bc75e2d63100000"
      },
      "nonce": 0,
      "data": "0x",
      "r": "0xeaad1f6de4d9144cb73209ec673f36d2ff41a36b4f9cc6687147e10e456e7cc4",
      "s": "0x38eb0387e74b2cf3a3b477c681e754867dec3d51d4152379e9afeb6c844b8f9b",
      "v": 27,
      "creates": null,
      "raw": "0xf86d80850bdfd63e00825208941a9f66a5cd5a0809f3441e952f18540605a9a3df89056bc75e2d63100000801ba0eaad1f6de4d9144cb73209ec673f36d2ff41a36b4f9cc6687147e10e456e7cc4a038eb0387e74b2cf3a3b477c681e754867dec3d51d4152379e9afeb6c844b8f9b",
      "networkId": 0,
      "chainId": 0
    },
    {
      "hash": "0xfaddf347238988e77adb8891c7f1e9b5ea8d2345927ffd455676880fccd49d87",
      "blockHash": "0x4b85f91a8d2c4d1cea21545275a483508753a252bc0589c3a0ea205d2a1c46d3",
      "blockNumber": 102677,
      "transactionIndex": 1,
      "confirmations": null,
      "from": "0x0Ce7b863693f133b14151f242f26d3f7a5424887",
      "gasPrice": {
        "_hex": "0xbdfd63e00"
      },
      "gasLimit": {
        "_hex": "0x5208"
      },
      "to": "0xaB7668Bea763e384bD4aEf98D771f70Db28FFbD4",
      "value": {
        "_hex": "0x56bc75e2d63100000"
      },
      "nonce": 1,
      "data": "0x",
      "r": "0xe7b106c1ed0b54e092da20b238ea70c796e424054d50ea6f7deeef712066ba96",
      "s": "0x573033fc7cde66c48dded75787b8e469afc1eace21eb2727d415ad13bac18432",
      "v": 27,
      "creates": null,
      "raw": "0xf86d01850bdfd63e0082520894ab7668bea763e384bd4aef98d771f70db28ffbd489056bc75e2d63100000801ba0e7b106c1ed0b54e092da20b238ea70c796e424054d50ea6f7deeef712066ba96a0573033fc7cde66c48dded75787b8e469afc1eace21eb2727d415ad13bac18432",
      "networkId": 0,
      "chainId": 0
    },
    {
      "hash": "0x0e2a892c14851bb155ea41f48efdad1f7127410262e77c08e66785876a0b69bf",
      "blockHash": "0x4b85f91a8d2c4d1cea21545275a483508753a252bc0589c3a0ea205d2a1c46d3",
      "blockNumber": 102677,
      "transactionIndex": 2,
      "confirmations": null,
      "from": "0x0Ce7b863693f133b14151f242f26d3f7a5424887",
      "gasPrice": {
        "_hex": "0xbdfd63e00"
      },
      "gasLimit": {
        "_hex": "0x5208"
      },
      "to": "0xCF4742CdCc2858B41F812aC84E2f87e5384bc8eD",
      "value": {
        "_hex": "0x56bc75e2d63100000"
      },
      "nonce": 2,
      "data": "0x",
      "r": "0xe2d128fa082aef34a70563811aeb030ba4f38900e416165b4f93b9b6588798ca",
      "s": "0x0051c025fdb7f4f570d8d3b0319715ad54d133d982361207ed4ba084c3ee8f9a",
      "v": 28,
      "creates": null,
      "raw": "0xf86c02850bdfd63e0082520894cf4742cdcc2858b41f812ac84e2f87e5384bc8ed89056bc75e2d63100000801ca0e2d128fa082aef34a70563811aeb030ba4f38900e416165b4f93b9b6588798ca9f51c025fdb7f4f570d8d3b0319715ad54d133d982361207ed4ba084c3ee8f9a",
      "networkId": 0,
      "chainId": 0
    }
  ]
}