{
  "hash": "0x4e437046a8d227ea74ed45ca9c9ce80527c1bfb00817a2415db666a628e94e5a",
  "parentHash": "0x394946629ad489a9ecdddb26b75e059aeec5dd9df80417986d4684712c24940e",
  "number": 81206,
  "timestamp": 1439497726,
  "nonce": "0x4e30c293208ea974",
  "difficulty": 2459444869560,
  "gasLimit": {
    "_hex": "0x2fefd8"
  },
  "gasUsed": {
    "_hex": "0x5208"
  },
  "miner": "0x2f6BCe4fc330B69C9B4c2694d57C63Ec7B18feC7",
  "extraData": "0x476574682f76312e302e312f77696e646f77732f676f312e342e32",
  "transactions": [
    {
      "hash": "0xde06b536adb9ac52276643822401128f08c18939588673d00e79a0a8fcaa9af0",
      "blockHash": "0x4e437046a8d227ea74ed45ca9c9ce80527c1bfb00817a2415db666a628e94e5a",
      "blockNumber": 81206,
      "transactionIndex": 0,
      "confirmations": null,
      "from": "0xDE72E29D65eAabbD236b21c1d59a486c19AbDad5",
      "gasPrice": {
        "_hex": "0xcc8acb9f5"
      },
      "gasLimit": {
        "_hex": "0x5208"
      },
      "to": "0x32Be343B94f860124dC4fEe278FDCBD38C102D88",
      "value": {
        "_hex": "0xdcada8db7f2c400"
      },
      "nonce": 3,
      "data": "0x",
      "r": "0x65063f28662be4037183adae79dff47273be03604f29e271a787bcad05e6c2ee",
      "s": "0x73d699d2fe8ba8752a67844b2cbb605b710964f8b9bd7bb18538558118dbd52c",
      "v": 28,
      "creates": null,
      "raw": "0xf86c03850cc8acb9f58252089432be343b94f860124dc4fee278fdcbd38c102d88880dcada8db7f2c400801ca065063f28662be4037183adae79dff47273be03604f29e271a787bcad05e6c2eea073d699d2fe8ba8752a67844b2cbb605b710964f8b9bd7bb18538558118dbd52c",
      "networkId": 0,
      "chainId": 0
    }
  ]
}