{
  "hash": "0x0c9080b0e9dd7d57251b82f29afc85163fd5b4f5e3230778e9f4a680172340af",
  "parentHash": "0x2e39884643814158e714e06533dd26399cbbbc97ae572346d7f2a0042ca4d6fb",
  "number": 119460,
  "timestamp": 1440143467,
  "nonce": "0x69b48f70152f6ff2",
  "difficulty": 4385849289337,
  "gasLimit": {
    "_hex": "0x2fefd8"
  },
  "gasUsed": {
    "_hex": "0x5208"
  },
  "miner": "0xD0ee3F53eE0fCf3F9fbCcdd17BD1b6441DdC2074",
  "extraData": "0x",
  "transactions": [
    {
      "hash": "0xb460b92b0a439a30c09c71bd317c88a1656597bb7ef3106fbffd3b4d8df0b783",
      "blockHash": "0x0c9080b0e9dd7d57251b82f29afc85163fd5b4f5e3230778e9f4a680172340af",
      "blockNumber": 119460,
      "transactionIndex": 0,
      "confirmations": null,
      "from": "0x037658E13e294088Cfd16A534b9C1F3B37282eB2",
      "gasPrice": {
        "_hex": "0xba43b7400"
      },
      "gasLimit": {
        "_hex": "0x5208"
      },
      "to": "0x32Be343B94f860124dC4fEe278FDCBD38C102D88",
      "value": {
        "_hex": "0x27197238c2451c00"
      },
      "nonce": 9,
      "data": "0x",
      "r": "0x4d47015193e1f4e96d97f79f00f92068f280046e4d1d6d4cf6a06cfd6278b6ab",
      "s": "0x661814bef2a2107f1f4bf22d1d1c5a08766caa2381c07f87f24cc9a66b7e9509",
      "v": 28,
      "creates": null,
      "raw": "0xf86c09850ba43b74008252089432be343b94f860124dc4fee278fdcbd38c102d888827197238c2451c00801ca04d47015193e1f4e96d97f79f00f92068f280046e4d1d6d4cf6a06cfd6278b6aba0661814bef2a2107f1f4bf22d1d1c5a08766caa2381c07f87f24cc9a66b7e9509",
      "networkId": 0,
      "chainId": 0
    }
  ]
}