{
  "hash": "0xcd9424865bc8d104eda1ccffb38bc0f09300e2c931af9a536f54a14d0da25070",
  "parentHash": "0x1e6661c564e6a37f39a3fddbb7b57b74a1a036490aaf882f08a1ad5b37de8ed1",
  "number": 111042,
  "timestamp": 1439983758,
  "nonce": "0x491ada2dc57d0de7",
  "difficulty": 4407435679996,
  "gasLimit": {
    "_hex": "0x2fefd8"
  },
  "gasUsed": {
    "_hex": "0xa410"
  },
  "miner": "0x35e8e5dC5FBd97c5b421A80B596C030a2Be2A04D",
  "extraData": "0x476574682f76312e302e312f6c696e75782f676f312e342e32",
  "transactions": [
    {
      "hash": "0x8a42aa55ba6789c8e11adccdbecf781a7832c4a8503155df551cdc4e55695786",
      "blockHash": "0xcd9424865bc8d104eda1ccffb38bc0f09300e2c931af9a536f54a14d0da25070",
      "blockNumber": 111042,
      "transactionIndex": 0,
      "confirmations": null,
      "from": "0x32Be343B94f860124dC4fEe278FDCBD38C102D88",
      "gasPrice": {
        "_hex": "0xd6d012c89"
      },
      "gasLimit": {
        "_hex": "0x5208"
      },
      "to": "0x3dd309ba127D104e1bdF8D6b4D361d95be829F21",
      "value": {
        "_hex": "0x8aa39c121a270000"
      },
      "nonce": 1297,
      "data": "0x",
      "r": "0x444e9a8031ddaa21ce110468df2547818ef9b77309fa2d422f7fb869f4a890f3",
      "s": "0x7624d7f65a1d79fc10fdf44ae841625589361b909779723f3adf5c9c7acfc701",
      "v": 27,
      "creates": null,
      "raw": "0xf86e820511850d6d012c89825208943dd309ba127d104e1bdf8d6b4d361d95be829f21888aa39c121a270000801ba0444e9a8031ddaa21ce110468df2547818ef9b77309fa2d422f7fb869f4a890f3a07624d7f65a1d79fc10fdf44ae841625589361b909779723f3adf5c9c7acfc701",
      "networkId": 0,
      "chainId": 0
    },
    {
      "hash": "0x97240f7b49db14a3186197df22c1b20ff4ea35276cfc41e98695b45e62255e70",
      "blockHash": "0xcd9424865bc8d104eda1ccffb38bc0f09300e2c931af9a536f54a14d0da25070",
      "blockNumber": 111042,
      "transactionIndex": 1,
      "confirmations": null,
      "from": "0x1214eF24b6dee99B86365d68BFdef3a735d07917",
      "gasPrice": {
        "_hex": "0xba43b7400"
      },
      "gasLimit": {
        "_hex": "0x17f7ec"
      },
      "to": "0x33F36DffD23cf019833E1d59cBc7138824b12289",
      "value": {
        "_hex": "0x7759566f6c5c0000"
      },
      "nonce": 0,
      "data": "0x",
      "r": "0xdea575865d528a8dca4c46a1b645480d7dca87919f87c933fb423b32b9cdc554",
      "s": "0x5d3a39c00fffac89cfe507fe26d113efbe823dfea0dd89944ac8ceac7fe0e8a3",
      "v": 27,
      "creates": null,
      "raw": "0xf86d80850ba43b74008317f7ec9433f36dffd23cf019833e1d59cbc7138824b12289887759566f6c5c0000801ba0dea575865d528a8dca4c46a1b645480d7dca87919f87c933fb423b32b9cdc554a05d3a39c00fffac89cfe507fe26d113efbe823dfea0dd89944ac8ceac7fe0e8a3",
      "networkId": 0,
      "chainId": 0
    }
  ]
}