{
  "hash": "0x0829fe8f4309a999002d9b35985a9a6ca8a36954802f37f82a1b3677fc1ee1b3",
  "parentHash": "0x64e818ac625f9fbb7048fddaadfd201be8142ea75bb2ded25d7dcb9432e35dfc",
  "number": 95252,
  "timestamp": 1439721330,
  "nonce": "0x3d2028c05823a244",
  "difficulty": 3548146446714,
  "gasLimit": {
    "_hex": "0x2fefd5"
  },
  "gasUsed": {
    "_hex": "0xa410"
  },
  "miner": "0x74016F15e9262E1fAb078146a4002ACc513AfEf0",
  "extraData": "0x476574682f76312e302e312f6c696e75782f676f312e342e32",
  "transactions": [
    {
      "hash": "0x25764a7f0544e58b20a6791edf8d4d8c38edec8036419dc8fc66e4aeac178259",
      "blockHash": "0x0829fe8f4309a999002d9b35985a9a6ca8a36954802f37f82a1b3677fc1ee1b3",
      "blockNumber": 95252,
      "transactionIndex": 0,
      "confirmations": null,
      "from": "0xA1623430350C5df1b52B0b57483A5bb45d1796Da",
      "gasPrice": {
        "_hex": "0xd47f2506a"
      },
      "gasLimit": {
        "_hex": "0x7530"
      },
      "to": "0xf2881e3e520bF84469Fa00a56449D357FB1af54A",
      "value": {
        "_hex": "0x41238cc1a67d60000"
      },
      "nonce": 8,
      "data": "0x",
      "r": "0xb983ac9cf74e7213e18ce38474186085c3a08f11fc67378379f4d3494edd3056",
      "s": "0x09befaf8cabefba8c233a46a47d53098ecb60204e49a65d55dbaa023f2600dae",
      "v": 28,
      "creates": null,
      "raw": "0xf86d08850d47f2506a82753094f2881e3e520bf84469fa00a56449d357fb1af54a89041238cc1a67d60000801ca0b983ac9cf74e7213e18ce38474186085c3a08f11fc67378379f4d3494edd3056a009befaf8cabefba8c233a46a47d53098ecb60204e49a65d55dbaa023f2600dae",
      "networkId": 0,
      "chainId": 0
    },
    {
      "hash": "0x9a38c53a2490072e9f2b2f857f2b2411f681a1874a3231b5ad33256c803f656f",
      "blockHash": "0x0829fe8f4309a999002d9b35985a9a6ca8a36954802f37f82a1b3677fc1ee1b3",
      "blockNumber": 95252,
      "transactionIndex": 1,
      "confirmations": null,
      "from": "0xd70c667add50d3d9989Ef58A81a698c09f415Bff",
      "gasPrice": {
        "_hex": "0xce43a0075"
      },
      "gasLimit": {
        "_hex": "0x15f90"
      },
      "to": "0x853Bff007d269E0526E871360d79d69D602770dc",
      "value": {
        "_hex": "0xa94f1b5c93c40000"
      },
      "nonce": 2,
      "data": "0x",
      "r": "0xe2545fb711281f361786387cdd3bee8755f8364e649151ecebc2ad6982baf0ad",
      "s": "0x38594c09e7cc688eb9329db9edd15cc32dc23e7ffcecbb3bcfe1a3136ca1c541",
      "v": 28,
      "creates": null,
      "raw": "0xf86d02850ce43a007583015f9094853bff007d269e0526e871360d79d69d602770dc88a94f1b5c93c40000801ca0e2545fb711281f361786387cdd3bee8755f8364e649151ecebc2ad6982baf0ada038594c09e7cc688eb9329db9edd15cc32dc23e7ffcecbb3bcfe1a3136ca1c541",
      "networkId": 0,
      "chainId": 0
    }
  ]
}