{
  "hash": "0x883ffe7374c963cbb1920c00b9007c5c9ab60dfa2207ea8a37a8eb253d231230",
  "parentHash": "0x4153dc4a45c535e0c8a80d1358644010c86e1529b3942ddcd724df355066f6f9",
  "number": 65268,
  "timestamp": 1439234101,
  "nonce": "0x33ff7d4e388089af",
  "difficulty": 1941681501019,
  "gasLimit": {
    "_hex": "0x2fefd8"
  },
  "gasUsed": {
    "_hex": "0x5208"
  },
  "miner": "0x580992B51e3925e23280EfB93d3047C82f17E038",
  "extraData": "0x476574682f76312e302e312f6c696e75782f676f312e342e32",
  "transactions": [
    {
      "hash": "0xd0216b817f8e6ba95339510d5663a13ac334eb438b6d484d66d517607752e4b3",
      "blockHash": "0x883ffe7374c963cbb1920c00b9007c5c9ab60dfa2207ea8a37a8eb253d231230",
      "blockNumber": 65268,
      "transactionIndex": 0,
      "confirmations": null,
      "from": "0x4d67f2AB8599fef5Fc413999Aa01FD7fcE70B43D",
      "gasPrice": {
        "_hex": "0xd829211eb"
      },
      "gasLimit": {
        "_hex": "0x55f0"
      },
      "to": "0x284b73e057B56e75a1AE26079031D3bFFDE2E7A7",
      "value": {
        "_hex": "0xf43fc2c04ee0000"
      },
      "nonce": 1,
      "data": "0x",
      "r": "0x48d48af662213c41a540b3712cd1750f6570ace594020095af5cebdb1fea72e6",
      "s": "0x68d4783cf256cb875e5be2b6cf9d78f2b48dc2a4cadeb92ef8a6edd3fef33f7f",
      "v": 28,
      "creates": null,
      "raw": "0xf86c01850d829211eb8255f094284b73e057b56e75a1ae26079031d3bffde2e7a7880f43fc2c04ee0000801ca048d48af662213c41a540b3712cd1750f6570ace594020095af5cebdb1fea72e6a068d4783cf256cb875e5be2b6cf9d78f2b48dc2a4cadeb92ef8a6edd3fef33f7f",
      "networkId": 0,
      "chainId": 0
    }
  ]
}