{
  "hash": "0x3e84fda6c93a5d32b9415af0e4b193bac220b8cb06c7e7400b548ca8514f6350",
  "parentHash": "0xbd4f2fc2200c26d40fbdf7070cbd020622c34f58cc1a510239e21d048c972123",
  "number": 85025,
  "timestamp": 1439557483,
  "nonce": "0x16b033cd263b41ec",
  "difficulty": 2719789882140,
  "gasLimit": {
    "_hex": "0x2fefd5"
  },
  "gasUsed": {
    "_hex": "0x5208"
  },
  "miner": "0x790b8a3cE86E707ED0eD32bF89B3269692a23CC1",
  "extraData": "0xd783010001844765746887676f312e342e32856c696e7578",
  "transactions": [
    {
      "hash": "0x0dcc355406685fb885f7117a4fd326474f784801ecc5cf9f14283c691fbf2006",
      "blockHash": "0x3e84fda6c93a5d32b9415af0e4b193bac220b8cb06c7e7400b548ca8514f6350",
      "blockNumber": 85025,
      "transactionIndex": 0,
      "confirmations": null,
      "from": "0xee5379D0c1ca47327368027455074C26D9952628",
      "gasPrice": {
        "_hex": "0xcc27657db"
      },
      "gasLimit": {
        "_hex": "0x15f90"
      },
      "to": "0xeBe03d9d305540BEe866FC154eFD8C28eCA41A9b",
      "value": {
        "_hex": "0x9cd1aa2149ea0000"
      },
      "nonce": 9,
      "data": "0x",
      "r": "0x19e5d42736eafc7e7eac7e653b035b8847c42f9940c1d2330d4fd7ac467a0a08",
      "s": "0x7d487bff1daedb734519d2d062d9147cb586d1af464fa6115386634d9169bd97",
      "v": 27,
      "creates": null,
      "raw": "0xf86d09850cc27657db83015f9094ebe03d9d305540bee866fc154efd8c28eca41a9b889cd1aa2149ea0000801ba019e5d42736eafc7e7eac7e653b035b8847c42f9940c1d2330d4fd7ac467a0a08a07d487bff1daedb734519d2d062d9147cb586d1af464fa6115386634d9169bd97",
      "networkId": 0,
      "chainId": 0
    }
  ]
}