{
  "hash": "0x8a32ebb5bd9da15e260273d041cee240f9e56b0a76b3caff4ee7571b60786502",
  "parentHash": "0xf5477f4a827752e7609cfbb7666902901c31c74ecc13d584290288ebe6e36de0",
  "number": 104294,
  "timestamp": 1439867471,
  "nonce": "0x023f55012c63a896",
  "difficulty": 4275270878500,
  "gasLimit": {
    "_hex": "0x2fefd8"
  },
  "gasUsed": {
    "_hex": "0x5208"
  },
  "miner": "0xB1A4B41b8e75a153841c99c62d18588d45e7b406",
  "extraData": "0x",
  "transactions": [
    {
      "hash": "0x11041642ad15524c912bbcbce2e14e3ea1848e83bc9a5e2c416d3ee88ef15cd8",
      "blockHash": "0x8a32ebb5bd9da15e260273d041cee240f9e56b0a76b3caff4ee7571b60786502",
      "blockNumber": 104294,
      "transactionIndex": 0,
      "confirmations": null,
      "from": "0x0D4EcC7d750180EBf4A9Df728B6669B5Bceb5E40",
      "gasPrice": {
        "_hex": "0xd365dc62c"
      },
      "gasLimit": {
        "_hex": "0x5208"
      },
      "to": "0x32Be343B94f860124dC4fEe278FDCBD38C102D88",
      "value": {
        "_hex": "0x455f5f838c13c400"
      },
      "nonce": 72,
      "data": "0x",
      "r": "0x3f507c6329bd1c72d1739451b297abfe2ce260f7cb71ecf3947a5798ad6a6c92",
      "s": "0x0217e326996cc0f3593ee0a2ad35609182a381aa780cb3dc5fd3ec38a4f1dd8c",
      "v": 28,
      "creates": null,
      "raw": "0xf86c48850d365dc62c8252089432be343b94f860124dc4fee278fdcbd38c102d8888455f5f838c13c400801ca03f507c6329bd1c72d1739451b297abfe2ce260f7cb71ecf3947a5798ad6a6c92a00217e326996cc0f3593ee0a2ad35609182a381aa780cb3dc5fd3ec38a4f1dd8c",
      "networkId": 0,
      "chainId": 0
    }
  ]
}