{
  "hash": "0x571d17d685aec7df666c35419d6e7fffac735d8754936e6712c525e0ab1dbf28",
  "parentHash": "0x3f86a7a6de267d93c787a664628a3c3a22335c757944dc2ec5292d3f54946552",
  "number": 102137,
  "timestamp": 1439833399,
  "nonce": "0xaa2f27aa0daf1a31",
  "difficulty": 3910828023977,
  "gasLimit": {
    "_hex": "0x2fefd8"
  },
  "gasUsed": {
    "_hex": "0xa410"
  },
  "miner": "0xaEAf103356C2Ee943F748E8655659D29881323E1",
  "extraData": "0x476574682f76312e302e312f77696e646f77732f676f312e342e32",
  "transactions": [
    {
      "hash": "0x9cd3fff5c0c12332fe2f5daea6c236857b1a5461233a6154020c9432f9e3d3f1",
      "blockHash": "0x571d17d685aec7df666c35419d6e7fffac735d8754936e6712c525e0ab1dbf28",
      "blockNumber": 102137,
      "transactionIndex": 0,
      "confirmations": null,
      "from": "0xD9666150A9dA92d9108198a4072970805a8B3428",
      "gasPrice": {
        "_hex": "0xcfb7f0674"
      },
      "gasLimit": {
        "_hex": "0x5208"
      },
      "to": "0x32Be343B94f860124dC4fEe278FDCBD38C102D88",
      "value": {
        "_hex": "0x8ac2fa0dd3272800"
      },
      "nonce": 56,
      "data": "0x",
      "r": "0x36bb5dbf63c7baebd66c0d3f3401996313170eaa4c4f6d59f22bd8d9003aaa8e",
      "s": "0x0156f74c6e4d23bfb8e09e0c39f181a70ff69da311ba700b216f572f5b9474ee",
      "v": 27,
      "creates": null,
      "raw": "0xf86c38850cfb7f06748252089432be343b94f860124dc4fee278fdcbd38c102d88888ac2fa0dd3272800801ba036bb5dbf63c7baebd66c0d3f3401996313170eaa4c4f6d59f22bd8d9003aaa8ea00156f74c6e4d23bfb8e09e0c39f181a70ff69da311ba700b216f572f5b9474ee",
      "networkId": 0,
      "chainId": 0
    },
    {
      "hash": "0x52c48aa170f130a1d1d59359b7ec93f69ff1a3129530c29c8b1e0fed8282afba",
      "blockHash": "0x571d17d685aec7df666c35419d6e7fffac735d8754936e6712c525e0ab1dbf28",
      "blockNumber": 102137,
      "transactionIndex": 1,
      "confirmations": null,
      "from": "0xb50405193Dc0c7077dD65252C15C39242F0aCB76",
      "gasPrice": {
        "_hex": "0xcfb7f0674"
      },
      "gasLimit": {
        "_hex": "0x5208"
      },
      "to": "0x32Be343B94f860124dC4fEe278FDCBD38C102D88",
      "value": {
        "_hex": "0x455f688b8e332800"
      },
      "nonce": 7,
      "data": "0x",
      "r": "0x6d3904f5329732d0e2ff7adb107d1dbd7785a5cd7ff88d943c4fc7e7a0983ce7",
      "s": "0x7756c06a0ecc786fcadb32a88fda7ef0144a49c0ec9cb4133053bba8021ac70d",
      "v": 27,
      "creates": null,
      "raw": "0xf86c07850cfb7f06748252089432be343b94f860124dc4fee278fdcbd38c102d8888455f688b8e332800801ba06d3904f5329732d0e2ff7adb107d1dbd7785a5cd7ff88d943c4fc7e7a0983ce7a07756c06a0ecc786fcadb32a88fda7ef0144a49c0ec9cb4133053bba8021ac70d",
      "networkId": 0,
      "chainId": 0
    }
  ]
}