{
  "hash": "0x41d3ab77ccda7baad02b9009d0c70dc8940d663dfc910f5effc7b554474b11fa",
  "parentHash": "0xce1a25526b706f226f0d0059da737f3d5818d25495fea42de6470ff7d6e14f66",
  "number": 61404,
  "timestamp": 1439171951,
  "nonce": "0xf05781b4da26763c",
  "difficulty": 1732832155417,
  "gasLimit": {
    "_hex": "0x2fefd8"
  },
  "gasUsed": {
    "_hex": "0xa435"
  },
  "miner": "0x1B7047b4338ACf65bE94C1A3e8c5c9338ad7d67C",
  "extraData": "0x476574682f76312e302e312d38326566323666362f6c696e75782f676f312e34",
  "transactions": [
    {
      "hash": "0x07d988ab57b4c7f87cc148437372864662a2dc53805c771d005052eaef7a0285",
      "blockHash": "0x41d3ab77ccda7baad02b9009d0c70dc8940d663dfc910f5effc7b554474b11fa",
      "blockNumber": 61404,
      "transactionIndex": 0,
      "confirmations": null,
      "from": "0x2910543Af39abA0Cd09dBb2D50200b3E800A63D2",
      "gasPrice": {
        "_hex": "0xd3781f73b"
      },
      "gasLimit": {
        "_hex": "0x5208"
      },
      "to": "0xb4Ad43131139584E8f6F31D578E0dC4d11Df6D7b",
      "value": {
        "_hex": "0x2b5e3af16b1880000"
      },
      "nonce": 100,
      "data": "0x",
      "r": "0x69460864198dddaf42b99d77ea873d27fac8b3b5a568118e1362b30c40cee7f6",
      "s": "0x09c04b393c015049fc0f842a7e1b0b2d9a413d8605e3a4a100f5ab3650e7bc9b",
      "v": 27,
      "creates": null,
      "raw": "0xf86d64850d3781f73b82520894b4ad43131139584e8f6f31d578e0dc4d11df6d7b8902b5e3af16b1880000801ba069460864198dddaf42b99d77ea873d27fac8b3b5a568118e1362b30c40cee7f6a009c04b393c015049fc0f842a7e1b0b2d9a413d8605e3a4a100f5ab3650e7bc9b",
      "networkId": 0,
      "chainId": 0
    },
    {
      "hash": "0x0a4d74ab51979d565e4f38953b72bb2624993925b1271a9da2660e3e290001ef",
      "blockHash": "0x41d3ab77ccda7baad02b9009d0c70dc8940d663dfc910f5effc7b554474b11fa",
      "blockNumber": 61404,
      "transactionIndex": 1,
      "confirmations": null,
      "from": "0xc8ebccC5F5689Fa8659d83713341e5aD19349448",
      "gasPrice": {
        "_hex": "0xce1f8a093"
      },
      "gasLimit": {
        "_hex": "0x15f90"
      },
      "to": "0xC7d3E431Be6222543364408a94C12C0D089Be305",
      "value": {
        "_hex": "0x2b5e3af16b1880000"
      },
      "nonce": 21,
      "data": "0x",
      "r": "0x1132b7566ff6dd3d12cc991e339ce2c0826015c15b42c342eee7cddcd9959e80",
      "s": "0x272f880ddd01e82747d2d1cee208d167d160dd3bdb045ec442b75d1192da3795",
      "v": 27,
      "creates": null,
      "raw": "0xf86e15850ce1f8a09383015f9094c7d3e431be6222543364408a94c12c0d089be3058902b5e3af16b1880000801ba01132b7566ff6dd3d12cc991e339ce2c0826015c15b42c342eee7cddcd9959e80a0272f880ddd01e82747d2d1cee208d167d160dd3bdb045ec442b75d1192da3795",
      "networkId": 0,
      "chainId": 0
    }
  ]
}