{
  "hash": "0xdee285b349fbc59acfc22c298cd3d45e286ab45f454e21dd869093be217d44d1",
  "parentHash": "0x29f01ec1b1f6af653bd8297a902ea38987a13fca7654b513da5d46af7cd03062",
  "number": 71847,
  "timestamp": 1439342866,
  "nonce": "0xe1220b67db2b4ec4",
  "difficulty": 2167576938083,
  "gasLimit": {
    "_hex": "0x2fefd8"
  },
  "gasUsed": {
    "_hex": "0x9400"
  },
  "miner": "0x9746c7e1ef2bd21FF3997fa467593a89cb852BD0",
  "extraData": "0x476574682f76312e302e312f77696e646f77732f676f312e342e32",
  "transactions": [
    {
      "hash": "0x617ad5cf1e10177f7d8168db770fb916cab43bebaf6065795ec17c77df511b3d",
      "blockHash": "0xdee285b349fbc59acfc22c298cd3d45e286ab45f454e21dd869093be217d44d1",
      "blockNumber": 71847,
      "transactionIndex": 0,
      "confirmations": null,
      "from": "0x17580B766f7453525ca4C6A88b01b50570EA088C",
      "gasPrice": {
        "_hex": "0xd455a2ac6"
      },
      "gasLimit": {
        "_hex": "0x61a80"
      },
      "to": "0x5Fe5B7546D1628f7348B023A0393de1FC825A4fD",
      "value": {
        "_hex": "0x53444835ec580000"
      },
      "nonce": 268,
      "data": "0xb595b8b50000000000000000000000000000000000000000000000000000000000000001",
      "r": "0x05b5d4d4fd48c7c5e2fb7081a5f71294d3608d92ae4f9c11a9af4531ab2e39dd",
      "s": "0x2bae87c91adf83c35581080639283df60612580e0731c8efbfe5f6af0dd55f9d",
      "v": 27,
      "creates": null,
      "raw": "0xf89382010c850d455a2ac683061a80945fe5b7546d1628f7348b023a0393de1fc825a4fd8853444835ec580000a4b595b8b500000000000000000000000000000000000000000000000000000000000000011ba005b5d4d4fd48c7c5e2fb7081a5f71294d3608d92ae4f9c11a9af4531ab2e39dda02bae87c91adf83c35581080639283df60612580e0731c8efbfe5f6af0dd55f9d",
      "networkId": 0,
      "chainId": 0
    }
  ]
}