{
  "hash": "0xacd3c5975ef30232a4a19f454eb88acdcaa0c2f10fdf8437ae65d1f620664f0f",
  "parentHash": "0x487a67f59ccdc726194300eb64d80d3474bcca742709001de11f28764a51f72e",
  "number": 63947,
  "timestamp": 1439212820,
  "nonce": "0xc5a79470bc009590",
  "difficulty": 1848538664968,
  "gasLimit": {
    "_hex": "0x2fefd8"
  },
  "gasUsed": {
    "_hex": "0xc9c3"
  },
  "miner": "0x52Dc504a422f0E2A9e7632A34a50f1a82F8224c7",
  "extraData": "0x476574682f76312e302e312f6c696e75782f676f312e342e32",
  "transactions": [
    {
      "hash": "0x9264c2ac6271103069a0a53e70ee4531db2aad4dd786bab589ba753f223e2602",
      "blockHash": "0xacd3c5975ef30232a4a19f454eb88acdcaa0c2f10fdf8437ae65d1f620664f0f",
      "blockNumber": 63947,
      "transactionIndex": 0,
      "confirmations": null,
      "from": "0x475351efe1D9cf36276Ff2b7aE1D38bDB072E22c",
      "gasPrice": {
        "_hex": "0xdee2b44a1"
      },
      "gasLimit": {
        "_hex": "0x7a120"
      },
      "to": "0xfBc128067A2FE13C11BBC6cc55f29AA1F27630DA",
      "value": {
        "_hex": "0xde0b6b3a7640000"
      },
      "nonce": 7,
      "data": "0x",
      "r": "0x79a5b7df45e27b2b89d4f05e83ef7302fa22bc3ea095a1c4f5b5aade2f11f56e",
      "s": "0x27af91bf4d05a35aeac0f1b0e2c024a0c44488e109862e35a1947e32d07e1e2e",
      "v": 28,
      "creates": null,
      "raw": "0xf86d07850dee2b44a18307a12094fbc128067a2fe13c11bbc6cc55f29aa1f27630da880de0b6b3a7640000801ca079a5b7df45e27b2b89d4f05e83ef7302fa22bc3ea095a1c4f5b5aade2f11f56ea027af91bf4d05a35aeac0f1b0e2c024a0c44488e109862e35a1947e32d07e1e2e",
      "networkId": 0,
      "chainId": 0
    }
  ]
}