{
  "hash": "0xb746ea2789e433b7b92d1a2e430be3c0077d37ffb75396ff175ab32628543fac",
  "parentHash": "0xdcd75a2f9993bb29d1a7fdc5a113294743491aea94ad1e57a814d56f959da658",
  "number": 96844,
  "timestamp": 1439746701,
  "nonce": "0xc1ff75d4ea11cd11",
  "difficulty": 3739567404202,
  "gasLimit": {
    "_hex": "0x2fefd8"
  },
  "gasUsed": {
    "_hex": "0x5208"
  },
  "miner": "0xe6A7a1d47ff21B6321162AEA7C6CB457D5476Bca",
  "extraData": "0x476574682f76312e302e312d38326566323666362f6c696e75782f676f312e34",
  "transactions": [
    {
      "hash": "0x67e86fb004c9de73be58213e742baa15052a7406c79b625e2ae89f23bc6d0212",
      "blockHash": "0xb746ea2789e433b7b92d1a2e430be3c0077d37ffb75396ff175ab32628543fac",
      "blockNumber": 96844,
      "transactionIndex": 0,
      "confirmations": null,
      "from": "0xc0b9d23f8d37650D0141B559dbD33d94Ea004e07",
      "gasPrice": {
        "_hex": "0xd3b54f8e1"
      },
      "gasLimit": {
        "_hex": "0x5208"
      },
      "to": "0x32Be343B94f860124dC4fEe278FDCBD38C102D88",
      "value": {
        "_hex": "0x104351dd1d15f90000"
      },
      "nonce": 13,
      "data": "0x",
      "r": "0xde6b14cb5db1f334a764fa21ce9ab570b82f96c5dc21fe863baac39021c234ee",
      "s": "0x6d4a0500130f28e0e4fd050b36df5e3b835e69daf94bc1734f356e7c3abc9cf4",
      "v": 27,
      "creates": null,
      "raw": "0xf86d0d850d3b54f8e18252089432be343b94f860124dc4fee278fdcbd38c102d8889104351dd1d15f90000801ba0de6b14cb5db1f334a764fa21ce9ab570b82f96c5dc21fe863baac39021c234eea06d4a0500130f28e0e4fd050b36df5e3b835e69daf94bc1734f356e7c3abc9cf4",
      "networkId": 0,
      "chainId": 0
    }
  ]
}