{
  "hash": "0x19534996ad29ca505aeb1f9f879cb5e0275328411baf340c2097c139c2a9a57a",
  "parentHash": "0x8a7618a3a5ef613e0737145c0fe973606c93ac4917a5b3e093c363222f44dfb1",
  "number": 78765,
  "timestamp": 1439459003,
  "nonce": "0x7060d3e30efa9edd",
  "difficulty": 2298727140344,
  "gasLimit": {
    "_hex": "0x2fefd5"
  },
  "gasUsed": {
    "_hex": "0x19a28"
  },
  "miner": "0xa50ec0D39fa913E62f1Bae7074E6F36caA71855b",
  "extraData": "0xd783010001844765746887676f312e342e32856c696e7578",
  "transactions": [
    {
      "hash": "0x7e98a4b6f5af02a44761004324bfbe210876b1264697da9977960550e74d0f7c",
      "blockHash": "0x19534996ad29ca505aeb1f9f879cb5e0275328411baf340c2097c139c2a9a57a",
      "blockNumber": 78765,
      "transactionIndex": 0,
      "confirmations": null,
      "from": "0x2910543Af39abA0Cd09dBb2D50200b3E800A63D2",
      "gasPrice": {
        "_hex": "0xde5e4163e"
      },
      "gasLimit": {
        "_hex": "0x5208"
      },
      "to": "0xbE4316eE81D409F20Bb3CDa8B5fA705dd93CD145",
      "value": {
        "_hex": "0x727cc712917af8000"
      },
      "nonce": 349,
      "data": "0x",
      "r": "0x741403387ee87c7fde01d16329e0d044448d751ad4713343b41f880ee6f7edf9",
      "s": "0x432c2cd83735a633f05564d2eadd4e0b397cc72d4084fd82ec0ba4ec55e0e8f5",
      "v": 27,
      "creates": null,
      "raw": "0xf86f82015d850de5e4163e82520894be4316ee81d409f20bb3cda8b5fa705dd93cd145890727cc712917af8000801ba0741403387ee87c7fde01d16329e0d044448d751ad4713343b41f880ee6f7edf9a0432c2cd83735a633f05564d2eadd4e0b397cc72d4084fd82ec0ba4ec55e0e8f5",
      "networkId": 0,
      "chainId": 0
    },
    {
      "hash": "0x7670ea5d4090e8692dccfb44e9b27890e4122a570b30fb457cae580a69c2a2b4",
      "blockHash": "0x19534996ad29ca505aeb1f9f879cb5e0275328411baf340c2097c139c2a9a57a",
      "blockNumber": 78765,
      "transactionIndex": 1,
      "confirmations": null,
      "from": "0xa70a9a7040d542C632D8e0bE7c5513A8a5Bbc752",
      "gasPrice": {
        "_hex": "0xce2a00142"
      },
      "gasLimit": {
        "_hex": "0x5208"
      },
      "to": "0x32Be343B94f860124dC4fEe278FDCBD38C102D88",
      "value": {
        "_hex": "0xd02adda2c0cda000"
      },
      "nonce": 54,
      "data": "0x",
      "r": "0x357c1afa9f3338cde8c9b909bcdad5692d2486ec7e1e94c7812067bb1b3deeff",
      "s": "0x75ea7c1c24d20903b133e3901eebfadd85eda32b0099d782c18a3cf136caf772",
      "v": 28,
      "creates": null,
      "raw": "0xf86c36850ce2a001428252089432be343b94f860124dc4fee278fdcbd38c102d8888d02adda2c0cda000801ca0357c1afa9f3338cde8c9b909bcdad5692d2486ec7e1e94c7812067bb1b3deeffa075ea7c1c24d20903b133e3901eebfadd85eda32b0099d782c18a3cf136caf772",
      "networkId": 0,
      "chainId": 0
    },
    {
      "hash": "0x9a40948b5ea18b4680c9f83258ad22beeb162001959871d269a20c782b895ed1",
      "blockHash": "0x19534996ad29ca505aeb1f9f879cb5e0275328411baf340c2097c139c2a9a57a",
      "blockNumber": 78765,
      "transactionIndex": 2,
      "confirmations": null,
      "from": "0x04a2a3ee9C9ea82e1F918ecE209f8A7E6d7521E7",
      "gasPrice": {
        "_hex": "0xce2a00142"
      },
      "gasLimit": {
        "_hex": "0x5208"
      },
      "to": "0x32Be343B94f860124dC4fEe278FDCBD38C102D88",
      "value": {
        "_hex": "0x8ac302056bd75800"
      },
      "nonce": 3,
      "data": "0x",
      "r": "0xcb49b9b0510d09ac96e920a9419bcfb61509081aa082bd5ec925a4cd0137e10d",
      "s": "0x4caacf9ab54070c1c64d27e63a67b003a145e0620845fc29a81716025e201e80",
      "v": 27,
      "creates": null,
      "raw": "0xf86c03850ce2a001428252089432be343b94f860124dc4fee278fdcbd38c102d88888ac302056bd75800801ba0cb49b9b0510d09ac96e920a9419bcfb61509081aa082bd5ec925a4cd0137e10da04caacf9ab54070c1c64d27e63a67b003a145e0620845fc29a81716025e201e80",
      "networkId": 0,
      "chainId": 0
    },
    {
      "hash": "0xe490f08819334d1552c392c88c20a804f7ca1512ceab69739f555bfdef7c57fe",
      "blockHash": "0x19534996ad29ca505aeb1f9f879cb5e0275328411baf340c2097c139c2a9a57a",
      "blockNumber": 78765,
      "transactionIndex": 3,
      "confirmations": null,
      "from": "0xbEB64d852Bb6731CD479E80F7139ADEa5D6A5a28",
      "gasPrice": {
        "_hex": "0xce2a00142"
      },
      "gasLimit": {
        "_hex": "0x5208"
      },
      "to": "0x32Be343B94f860124dC4fEe278FDCBD38C102D88",
      "value": {
        "_hex": "0xddc95b489535800"
      },
      "nonce": 0,
      "data": "0x",
      "r": "0x65257e678bede674dcd4f1d44791bba5ac9c6a42c1e6646484c3cc1cb2ec0bf8",
      "s": "0x628d020352d1e3ed2f585401455b6c43eed4dece917cef9480682b78c1b43f5f",
      "v": 27,
      "creates": null,
      "raw": "0xf86c80850ce2a001428252089432be343b94f860124dc4fee278fdcbd38c102d88880ddc95b489535800801ba065257e678bede674dcd4f1d44791bba5ac9c6a42c1e6646484c3cc1cb2ec0bf8a0628d020352d1e3ed2f585401455b6c43eed4dece917cef9480682b78c1b43f5f",
      "networkId": 0,
      "chainId": 0
    },
    {
      "hash": "0x920ca445a6bc30abc060d67b6ab439f6c6821fcc26fe154c31d55ed021ebd5f5",
      "blockHash": "0x19534996ad29ca505aeb1f9f879cb5e0275328411baf340c2097c139c2a9a57a",
      "blockNumber": 78765,
      "transactionIndex": 4,
      "confirmations": null,
      "from": "0x32Be343B94f860124dC4fEe278FDCBD38C102D88",
      "gasPrice": {
        "_hex": "0xcc3d94e15"
      },
      "gasLimit": {
        "_hex": "0x5208"
      },
      "to": "0xdb49193CE6f62833b2080DC8759acB57d519967F",
      "value": {
        "_hex": "0x2b5c0282441c70000"
      },
      "nonce": 401,
      "data": "0x",
      "r": "0xb9172e15396272928045e399be954cad08e4070705f0e006ad25c6e9fc00baa4",
      "s": "0x5dc44cf91ada602d5e37d368e45659ecf0e43ce4b92db9675d64be144fa569be",
      "v": 27,
      "creates": null,
      "raw": "0xf86f820191850cc3d94e1582520894db49193ce6f62833b2080dc8759acb57d519967f8902b5c0282441c70000801ba0b9172e15396272928045e399be954cad08e4070705f0e006ad25c6e9fc00baa4a05dc44cf91ada602d5e37d368e45659ecf0e43ce4b92db9675d64be144fa569be",
      "networkId": 0,
      "chainId": 0
    }
  ]
}