{
  "hash": "0x17722b78052148f25410700cfa05e981e9448b9fbbf78b9f6ca2c0330a7eb59f",
  "parentHash": "0x808e80c12b7233fd2e3e1d970533a41861dc2e773dcbc7ff8204f86dc7d59959",
  "number": 70146,
  "timestamp": 1439315423,
  "nonce": "0xab31337449fbb04f",
  "difficulty": 2108508165495,
  "gasLimit": {
    "_hex": "0x2fefd5"
  },
  "gasUsed": {
    "_hex": "0xf618"
  },
  "miner": "0x893FF53FE9b3DA680472E1948F2294F970D44678",
  "extraData": "0x476574682f76312e302e312f6c696e75782f676f312e342e32",
  "transactions": [
    {
      "hash": "0x64224f0a90786e264073807ea51b17a7027f0c7a013921dcd537085c1d4ab14c",
      "blockHash": "0x17722b78052148f25410700cfa05e981e9448b9fbbf78b9f6ca2c0330a7eb59f",
      "blockNumber": 70146,
      "transactionIndex": 0,
      "confirmations": null,
      "from": "0x43279854AaF8825a6d1fcCf056caF190Ab8a7b76",
      "gasPrice": {
        "_hex": "0xdadb79e87"
      },
      "gasLimit": {
        "_hex": "0x5208"
      },
      "to": "0x32Be343B94f860124dC4fEe278FDCBD38C102D88",
      "value": {
        "_hex": "0xa2a158a73f75780000"
      },
      "nonce": 3,
      "data": "0x",
      "r": "0x536b020379fa7f6d7054d664937c011ecd64c31232870a936b753fc193827f77",
      "s": "0x2e3e369fcd3298ce2bc3a79112ffd8b78ec0ce46d00f5aef056dce794bab2870",
      "v": 27,
      "creates": null,
      "raw": "0xf86d03850dadb79e878252089432be343b94f860124dc4fee278fdcbd38c102d8889a2a158a73f75780000801ba0536b020379fa7f6d7054d664937c011ecd64c31232870a936b753fc193827f77a02e3e369fcd3298ce2bc3a79112ffd8b78ec0ce46d00f5aef056dce794bab2870",
      "networkId": 0,
      "chainId": 0
    },
    {
      "hash": "0xc925e897a9345981cea3247c8975536eb37f34cbeadaa3bb540f7796ecb45a64",
      "blockHash": "0x17722b78052148f25410700cfa05e981e9448b9fbbf78b9f6ca2c0330a7eb59f",
      "blockNumber": 70146,
      "transactionIndex": 1,
      "confirmations": null,
      "from": "0x120A270bbC009644e35F0bB6ab13f95b8199c4ad",
      "gasPrice": {
        "_hex": "0xd843577b9"
      },
      "gasLimit": {
        "_hex": "0x15f90"
      },
      "to": "0x4723347f5833573E53246F87758C188BF96EfF2b",
      "value": {
        "_hex": "0x68155a43676e00000"
      },
      "nonce": 195,
      "data": "0x",
      "r": "0x4af308ff3270b4d4e0d118deb4b5e59423534d3aa71009fb24707ec7c36e8da4",
      "s": "0x16a2eaf676ec43e319b5c1b4d7923cbf13b5ae6b665d20e3993f15e01e547a26",
      "v": 28,
      "creates": null,
      "raw": "0xf86f81c3850d843577b983015f90944723347f5833573e53246f87758c188bf96eff2b89068155a43676e00000801ca04af308ff3270b4d4e0d118deb4b5e59423534d3aa71009fb24707ec7c36e8da4a016a2eaf676ec43e319b5c1b4d7923cbf13b5ae6b665d20e3993f15e01e547a26",
      "networkId": 0,
      "chainId": 0
    },
    {
      "hash": "0x45c2415ad5f732a24ca5e4ed0544601ca344902faaabdbc70e4b0a95dde00010",
      "blockHash": "0x17722b78052148f25410700cfa05e981e9448b9fbbf78b9f6ca2c0330a7eb59f",
      "blockNumber": 70146,
      "transactionIndex": 2,
      "confirmations": null,
      "from": "0xFD2605a2bF58fDbB90db1Da55dF61628B47F9e8c",
      "gasPrice": {
        "_hex": "0xcb8fdbb90"
      },
      "gasLimit": {
        "_hex": "0x15f90"
      },
      "to": "0x073f70b5bfAde6409E4951EF72BC8F4157677729",
      "value": {
        "_hex": "0x26bad456854c7212c0"
      },
      "nonce": 56,
      "data": "0x",
      "r": "0x175d306c8e0e5f18b53ffdf5dfe894543004d571d1a82f86997f14c79d605f6f",
      "s": "0x341a6b3647819ce040a834215e9580d94e74277116643be8836ab901b2190693",
      "v": 27,
      "creates": null,
      "raw": "0xf86e38850cb8fdbb9083015f9094073f70b5bfade6409e4951ef72bc8f41576777298926bad456854c7212c0801ba0175d306c8e0e5f18b53ffdf5dfe894543004d571d1a82f86997f14c79d605f6fa0341a6b3647819ce040a834215e9580d94e74277116643be8836ab901b2190693",
      "networkId": 0,
      "chainId": 0
    }
  ]
}