{
  "hash": "0x2323fef55adec305117f152221a9bcd94b3ae0da9a08deca31b21e267f85268e",
  "parentHash": "0x2d7016a27829d8e1f389a285b5d744da83a502bca34c6e1ba6dc01c46bf92039",
  "number": 61158,
  "timestamp": 1439167744,
  "nonce": "0x288b58322a92246a",
  "difficulty": 1726127101321,
  "gasLimit": {
    "_hex": "0x2fefd8"
  },
  "gasUsed": {
    "_hex": "0x5208"
  },
  "miner": "0x6bAF48E1C966D16559cE2ddDb616FFa72004851e",
  "extraData": "0x",
  "transactions": [
    {
      "hash": "0x9da1134c56eb88f7a4c07cb77e7b3fea81652a54b5a5a4aef7cf729169864c2a",
      "blockHash": "0x2323fef55adec305117f152221a9bcd94b3ae0da9a08deca31b21e267f85268e",
      "blockNumber": 61158,
      "transactionIndex": 0,
      "confirmations": null,
      "from": "0xF9B617f752edECAE3e909fBB911d2f8192f84209",
      "gasPrice": {
        "_hex": "0x1019e950ee1"
      },
      "gasLimit": {
        "_hex": "0x15f90"
      },
      "to": "0x6800E12aFd6CAa35c8482E7757119ccf6b576FD0",
      "value": {
        "_hex": "0xde0b6b3a7640000"
      },
      "nonce": 2,
      "data": "0x",
      "r": "0x0d9f5929b2b1305ad36b91227f3cd1cda0860d3c96d233131c73b89099e87659",
      "s": "0x10b7e88463170a773840daf69c4a894bd95a4506982ab70cc2eeea1de969ce39",
      "v": 27,
      "creates": null,
      "raw": "0xf86e028601019e950ee183015f90946800e12afd6caa35c8482e7757119ccf6b576fd0880de0b6b3a7640000801ba00d9f5929b2b1305ad36b91227f3cd1cda0860d3c96d233131c73b89099e87659a010b7e88463170a773840daf69c4a894bd95a4506982ab70cc2eeea1de969ce39",
      "networkId": 0,
      "chainId": 0
    }
  ]
}