{
  "hash": "0xf5411cbd03b50c78ce8dbc7f771dd54f8e35b8aa054808b174f1c42a88d1acaa",
  "parentHash": "0xd84e7829f176b454c8905148d3e672adb79242511076c12e46697fc9594eac14",
  "number": 70916,
  "timestamp": 1439327291,
  "nonce": "0x8ce85fb09f28c70a",
  "difficulty": 2162531449196,
  "gasLimit": {
    "_hex": "0x2fefd8"
  },
  "gasUsed": {
    "_hex": "0xa674"
  },
  "miner": "0xf8E0CA3Ed80bd541b94BEdCf259e8CF2141A9523",
  "extraData": "0x476574682f76312e302e312f77696e646f77732f676f312e342e32",
  "transactions": [
    {
      "hash": "0xc418a66971018ee17e5677c5ff1f2e177fedb7e1d2de5ca6779af48447c6efc4",
      "blockHash": "0xf5411cbd03b50c78ce8dbc7f771dd54f8e35b8aa054808b174f1c42a88d1acaa",
      "blockNumber": 70916,
      "transactionIndex": 0,
      "confirmations": null,
      "from": "0x617Ff2CC803e31C9082233b825D025BE3f7b1056",
      "gasPrice": {
        "_hex": "0xd60070a0d"
      },
      "gasLimit": {
        "_hex": "0x15f90"
      },
      "to": "0x2910543Af39abA0Cd09dBb2D50200b3E800A63D2",
      "value": {
        "_hex": "0xad78ebc5ac6200000"
      },
      "nonce": 1,
      "data": "0x454e344d574d474d47",
      "r": "0xf436d4ca61ec8829e07b39f82e0d62497fca729344470240e32be728e77637b6",
      "s": "0x300e577a719bc7fc6829baeae541d0a4291a539f3bd537ceaa723e27694ed2ec",
      "v": 28,
      "creates": null,
      "raw": "0xf87701850d60070a0d83015f90942910543af39aba0cd09dbb2d50200b3e800a63d2890ad78ebc5ac620000089454e344d574d474d471ca0f436d4ca61ec8829e07b39f82e0d62497fca729344470240e32be728e77637b6a0300e577a719bc7fc6829baeae541d0a4291a539f3bd537ceaa723e27694ed2ec",
      "networkId": 0,
      "chainId": 0
    },
    {
      "hash": "0x1dec370cff91fbef8e1ee15cc5153666808319db2bd749c1d5bb61303b150ad0",
      "blockHash": "0xf5411cbd03b50c78ce8dbc7f771dd54f8e35b8aa054808b174f1c42a88d1acaa",
      "blockNumber": 70916,
      "transactionIndex": 1,
      "confirmations": null,
      "from": "0xC99478b218E58F45783fA70f0507cf614938E67d",
      "gasPrice": {
        "_hex": "0xd3d37f23a"
      },
      "gasLimit": {
        "_hex": "0x15f90"
      },
      "to": "0xC3fe64D1af00F0d9c324E4387EF7533f7D788e95",
      "value": {
        "_hex": "0x16345785d8a0000"
      },
      "nonce": 8,
      "data": "0x",
      "r": "0x52a549d3f4a910534f5e0f2f4da2bd7c873976006441089548eb43b40725600b",
      "s": "0x6c5793b0c8576e5e661d2ac62c41a9a5c6b8b5b72487813ea8457e377cf254e5",
      "v": 28,
      "creates": null,
      "raw": "0xf86d08850d3d37f23a83015f9094c3fe64d1af00f0d9c324e4387ef7533f7d788e9588016345785d8a0000801ca052a549d3f4a910534f5e0f2f4da2bd7c873976006441089548eb43b40725600ba06c5793b0c8576e5e661d2ac62c41a9a5c6b8b5b72487813ea8457e377cf254e5",
      "networkId": 0,
      "chainId": 0
    }
  ]
}