{
  "hash": "0xd06b3d28063827e2a521fc000c052be7e3d5ebf4286b86da707c31786f280569",
  "parentHash": "0x3cb835963f740c4a6ba067e2ba8974f2dca8665ca1a5d5f6b9345569379e319a",
  "number": 78015,
  "timestamp": 1439446734,
  "nonce": "0x83133d4a584bdea8",
  "difficulty": 2289969981966,
  "gasLimit": {
    "_hex": "0x2fefd8"
  },
  "gasUsed": {
    "_hex": "0xa410"
  },
  "miner": "0xf927a40C8B7F6E07c5af7FA2155B4864a4112B13",
  "extraData": "0x",
  "transactions": [
    {
      "hash": "0x14372f0cf9f891ad265d4b8876681cd49a987dfc0999567e917dd072b36310c7",
      "blockHash": "0xd06b3d28063827e2a521fc000c052be7e3d5ebf4286b86da707c31786f280569",
      "blockNumber": 78015,
      "transactionIndex": 0,
      "confirmations": null,
      "from": "0x96811Ad897894eC178872117C8BF2f03971A393B",
      "gasPrice": {
        "_hex": "0xdf299ddff"
      },
      "gasLimit": {
        "_hex": "0x5208"
      },
      "to": "0x32Be343B94f860124dC4fEe278FDCBD38C102D88",
      "value": {
        "_hex": "0x455f195d51d36000"
      },
      "nonce": 21,
      "data": "0x",
      "r": "0xeed54a50d1bbe9919f859b5c2c77d95b191e3f8246950670b44a5a54606bc59b",
      "s": "0x582ed439f1e35f9ac0ad1a58d93c943b1a8d11e3e664e3f1445d4e2e04b13131",
      "v": 28,
      "creates": null,
      "raw": "0xf86c15850df299ddff8252089432be343b94f860124dc4fee278fdcbd38c102d8888455f195d51d36000801ca0eed54a50d1bbe9919f859b5c2c77d95b191e3f8246950670b44a5a54606bc59ba0582ed439f1e35f9ac0ad1a58d93c943b1a8d11e3e664e3f1445d4e2e04b13131",
      "networkId": 0,
      "chainId": 0
    },
    {
      "hash": "0xfe7b72c2738852432d53dca2b10739f9b0a529e28bd55c741af27fa9f9d76cf9",
      "blockHash": "0xd06b3d28063827e2a521fc000c052be7e3d5ebf4286b86da707c31786f280569",
      "blockNumber": 78015,
      "transactionIndex": 1,
      "confirmations": null,
      "from": "0x8422A1F7Ab7167e9543976716c1413903bE692eD",
      "gasPrice": {
        "_hex": "0xdf299ddff"
      },
      "gasLimit": {
        "_hex": "0x5208"
      },
      "to": "0x32Be343B94f860124dC4fEe278FDCBD38C102D88",
      "value": {
        "_hex": "0x1bb967c3b6e0e000"
      },
      "nonce": 0,
      "data": "0x",
      "r": "0xff3c23e3185753e2490bb8b728f3ab16142dbdffd9f3a9355eaf6736a41a65bc",
      "s": "0x3eaf0e9503d20364951e273a88ffd8ab3106d2d2b876a39ff980c6f90a6e6308",
      "v": 27,
      "creates": null,
      "raw": "0xf86c80850df299ddff8252089432be343b94f860124dc4fee278fdcbd38c102d88881bb967c3b6e0e000801ba0ff3c23e3185753e2490bb8b728f3ab16142dbdffd9f3a9355eaf6736a41a65bca03eaf0e9503d20364951e273a88ffd8ab3106d2d2b876a39ff980c6f90a6e6308",
      "networkId": 0,
      "chainId": 0
    }
  ]
}