{
  "hash": "0xfdd72e9c9130cb414abf0c5390b425d1e466a140f143f80229b24991fe63b194",
  "parentHash": "0xc221ff78a2df82f5ca4ca351a940600c58229879e99d424416bf4ee2bc991f2d",
  "number": 102895,
  "timestamp": 1439844672,
  "nonce": "0x3692c6ba4024137b",
  "difficulty": 4110166148874,
  "gasLimit": {
    "_hex": "0x2fefd8"
  },
  "gasUsed": {
    "_hex": "0xa410"
  },
  "miner": "0xe6A7a1d47ff21B6321162AEA7C6CB457D5476Bca",
  "extraData": "0x476574682f76312e302e312d38326566323666362f6c696e75782f676f312e34",
  "transactions": [
    {
      "hash": "0x7e2cbc9cd0ce89b66b6b4c32670bb6689a4b5e701e5f3e60f5518c8948c35447",
      "blockHash": "0xfdd72e9c9130cb414abf0c5390b425d1e466a140f143f80229b24991fe63b194",
      "blockNumber": 102895,
      "transactionIndex": 0,
      "confirmations": null,
      "from": "0xD9666150A9dA92d9108198a4072970805a8B3428",
      "gasPrice": {
        "_hex": "0xd77c10731"
      },
      "gasLimit": {
        "_hex": "0x5208"
      },
      "to": "0x32Be343B94f860124dC4fEe278FDCBD38C102D88",
      "value": {
        "_hex": "0x455f40bc8ee5e400"
      },
      "nonce": 59,
      "data": "0x",
      "r": "0xdd0681091a3af09be14d17f06713a0b16e584fbc352278f450186bfd0e8dd413",
      "s": "0x1e16f7634661dae5a2f184e0a7c77653fb947230e45469c23ce316b24a32cd84",
      "v": 28,
      "creates": null,
      "raw": "0xf86c3b850d77c107318252089432be343b94f860124dc4fee278fdcbd38c102d8888455f40bc8ee5e400801ca0dd0681091a3af09be14d17f06713a0b16e584fbc352278f450186bfd0e8dd413a01e16f7634661dae5a2f184e0a7c77653fb947230e45469c23ce316b24a32cd84",
      "networkId": 0,
      "chainId": 0
    },
    {
      "hash": "0x21b6b1d8898654ac0c2e5247ba60495cb2d52ef76ad7951578f8ce9cbd267b90",
      "blockHash": "0xfdd72e9c9130cb414abf0c5390b425d1e466a140f143f80229b24991fe63b194",
      "blockNumber": 102895,
      "transactionIndex": 1,
      "confirmations": null,
      "from": "0xA1432eD2c6b7777A88E8D46d388e70477f208CA5",
      "gasPrice": {
        "_hex": "0xd0935479c"
      },
      "gasLimit": {
        "_hex": "0x15f90"
      },
      "to": "0xFdC4D4765a942f5Bf96931a9e8Cc7ab8b757Ff4c",
      "value": {
        "_hex": "0x7c2422530f5c880000"
      },
      "nonce": 0,
      "data": "0x",
      "r": "0x80532addb350aa4669049daef83a9079790907fb3a3975754b2cd3db8e0a4689",
      "s": "0x428ef6fb2ca564bd015747574f43bcf975eb05b973b0a3c09afd05ad78146650",
      "v": 27,
      "creates": null,
      "raw": "0xf86e80850d0935479c83015f9094fdc4d4765a942f5bf96931a9e8cc7ab8b757ff4c897c2422530f5c880000801ba080532addb350aa4669049daef83a9079790907fb3a3975754b2cd3db8e0a4689a0428ef6fb2ca564bd015747574f43bcf975eb05b973b0a3c09afd05ad78146650",
      "networkId": 0,
      "chainId": 0
    }
  ]
}