{
  "hash": "0x7139e743036bb680d33408d5ce8d2b0225d1f4593c5db8b3763190786c0d5179",
  "parentHash": "0xcac69448029cd26c3c23ec0a0a97f3df1ea6e8f76c2f53c4f215f079f77f9b6b",
  "number": 112917,
  "timestamp": 1440015265,
  "nonce": "0xf749005245f7139d",
  "difficulty": 4456216083126,
  "gasLimit": {
    "_hex": "0x2fefd8"
  },
  "gasUsed": {
    "_hex": "0x546c"
  },
  "miner": "0xf8E0CA3Ed80bd541b94BEdCf259e8CF2141A9523",
  "extraData": "0x476574682f76312e302e312f77696e646f77732f676f312e342e32",
  "transactions": [
    {
      "hash": "0x3ee787b7d2c9d60e630d75afddd84e1f4f9b179a248e3ac0c72bf47af64ed121",
      "blockHash": "0x7139e743036bb680d33408d5ce8d2b0225d1f4593c5db8b3763190786c0d5179",
      "blockNumber": 112917,
      "transactionIndex": 0,
      "confirmations": null,
      "from": "0xBf7d5E6CD66bc79d7759B640cbe188bCFA030cc4",
      "gasPrice": {
        "_hex": "0x1021a0a9cf4"
      },
      "gasLimit": {
        "_hex": "0x15f90"
      },
      "to": "0xe8979Ed3e00D68d395fA3E3cfe40FF67402C402a",
      "value": {
        "_hex": "0xd02ab486cedc0000"
      },
      "nonce": 1,
      "data": "0x746f62697474726578",
      "r": "0x370a19e8d6d4452b49f13a0acc8785a40e4326cb3664a3c2d4335393cebdc44c",
      "s": "0x7953d8586bddaeef05b752a69187cc636404a509c3f4b183380dc07d0275565a",
      "v": 27,
      "creates": null,
      "raw": "0xf877018601021a0a9cf483015f9094e8979ed3e00d68d395fa3e3cfe40ff67402c402a88d02ab486cedc000089746f626974747265781ba0370a19e8d6d4452b49f13a0acc8785a40e4326cb3664a3c2d4335393cebdc44ca07953d8586bddaeef05b752a69187cc636404a509c3f4b183380dc07d0275565a",
      "networkId": 0,
      "chainId": 0
    }
  ]
}