{
  "hash": "0xdd267026810c7a96d916f54ef8d08d5582d4e68cece4d0da156138fc77159d3b",
  "parentHash": "0xdf03316969df4748ce4468404393a1bea81bafb8c455896e42343a86e0318246",
  "number": 78069,
  "timestamp": 1439447731,
  "nonce": "0xf83ba23f44af69fe",
  "difficulty": 2287720047774,
  "gasLimit": {
    "_hex": "0x2fefd8"
  },
  "gasUsed": {
    "_hex": "0x5208"
  },
  "miner": "0x9746c7e1ef2bd21FF3997fa467593a89cb852BD0",
  "extraData": "0x476574682f76312e302e312f77696e646f77732f676f312e342e32",
  "transactions": [
    {
      "hash": "0x6cefb71b19e88bdda0c2fa68ae653168cfae70b0bfc16576e6f93267e4925374",
      "blockHash": "0xdd267026810c7a96d916f54ef8d08d5582d4e68cece4d0da156138fc77159d3b",
      "blockNumber": 78069,
      "transactionIndex": 0,
      "confirmations": null,
      "from": "0x6866e5e1FaBB4AbceF3EEb9Ea0d8CD6b52dfC9FF",
      "gasPrice": {
        "_hex": "0xd7f56f2da"
      },
      "gasLimit": {
        "_hex": "0x15f90"
      },
      "to": "0x01Ad0ACFf478127D9d702B1A13599D706cB759b1",
      "value": {
        "_hex": "0xf2dc7d47f1560000"
      },
      "nonce": 12,
      "data": "0x",
      "r": "0x880a0d7e312c557f6812662c532ec3e3bb795fa4fe170fb11275eceb8c1fe580",
      "s": "0x514d84fa2c729863ac472e3af12fcf6c9fbf9651da6b73ade8470762c6586422",
      "v": 27,
      "creates": null,
      "raw": "0xf86d0c850d7f56f2da83015f909401ad0acff478127d9d702b1a13599d706cb759b188f2dc7d47f1560000801ba0880a0d7e312c557f6812662c532ec3e3bb795fa4fe170fb11275eceb8c1fe580a0514d84fa2c729863ac472e3af12fcf6c9fbf9651da6b73ade8470762c6586422",
      "networkId": 0,
      "chainId": 0
    }
  ]
}