{
  "hash": "0x3041514c501cc638e8f1c43a830f78854759757b8955379f9d68f8ee106eaf11",
  "parentHash": "0x482b3a67cf651270cc7c3d5f56ebbca77bcd554077e17bda8f982dd8411792d1",
  "number": 62267,
  "timestamp": 1439185880,
  "nonce": "0x2b968aff4bc11b9c",
  "difficulty": 1772876727309,
  "gasLimit": {
    "_hex": "0x2fefd5"
  },
  "gasUsed": {
    "_hex": "0x5208"
  },
  "miner": "0x5A8d4616D25AD4928b08383073adb961A87De5d8",
  "extraData": "0x",
  "transactions": [
    {
      "hash": "0x6f63ab0f95cc580e98fe67496daf602412a3778d1b832433b00cbb78ad8fbf40",
      "blockHash": "0x3041514c501cc638e8f1c43a830f78854759757b8955379f9d68f8ee106eaf11",
      "blockNumber": 62267,
      "transactionIndex": 0,
      "confirmations": null,
      "from": "0x32Be343B94f860124dC4fEe278FDCBD38C102D88",
      "gasPrice": {
        "_hex": "0xd8e5ff6af"
      },
      "gasLimit": {
        "_hex": "0x5208"
      },
      "to": "0x120A270bbC009644e35F0bB6ab13f95b8199c4ad",
      "value": {
        "_hex": "0x5150ae84a8cdf00000"
      },
      "nonce": 148,
      "data": "0x",
      "r": "0x72a1edf9d239294c6a662c88627251cae6c41b34af2db27b9c4025ee9fefb828",
      "s": "0x409dde37b994df6cab76d9fc1a8b596ab4fb180013ab79c14382e48eb38f7b26",
      "v": 27,
      "creates": null,
      "raw": "0xf86e8194850d8e5ff6af82520894120a270bbc009644e35f0bb6ab13f95b8199c4ad895150ae84a8cdf00000801ba072a1edf9d239294c6a662c88627251cae6c41b34af2db27b9c4025ee9fefb828a0409dde37b994df6cab76d9fc1a8b596ab4fb180013ab79c14382e48eb38f7b26",
      "networkId": 0,
      "chainId": 0
    }
  ]
}