{
  "hash": "0x668c3faa4abd4c5258fbe95ac32a0189784a12e34380b80c3f1a73bd5bdd94ed",
  "parentHash": "0x52ac820814e1244ca79eedf9fbaf3f16b446da03003d3f549d9ac303a4a2aba0",
  "number": 101462,
  "timestamp": 1439823397,
  "nonce": "0x830a6e3abb71ec6f",
  "difficulty": 3844869812941,
  "gasLimit": {
    "_hex": "0x2fefd8"
  },
  "gasUsed": {
    "_hex": "0x5208"
  },
  "miner": "0xe6A7a1d47ff21B6321162AEA7C6CB457D5476Bca",
  "extraData": "0x476574682f76312e302e312d38326566323666362f6c696e75782f676f312e34",
  "transactions": [
    {
      "hash": "0x7fc106a88d92cb101949ef82225fbcd438e3b9bfd364f268ed0df29655d4fd08",
      "blockHash": "0x668c3faa4abd4c5258fbe95ac32a0189784a12e34380b80c3f1a73bd5bdd94ed",
      "blockNumber": 101462,
      "transactionIndex": 0,
      "confirmations": null,
      "from": "0x833ef381A23744E510a302c665a63D41ba0E28DB",
      "gasPrice": {
        "_hex": "0xda8886d90"
      },
      "gasLimit": {
        "_hex": "0x5208"
      },
      "to": "0x32Be343B94f860124dC4fEe278FDCBD38C102D88",
      "value": {
        "_hex": "0x22d476e7bb0e2c00"
      },
      "nonce": 2,
      "data": "0x",
      "r": "0xa26913d0a4b5e696ba53dee0085894c0225f60c4f202d5911c051eafc50ee948",
      "s": "0x66b5ed6798763cc441fd1e98702680e99a72df8ccad969c19a27958bbd22becd",
      "v": 28,
      "creates": null,
      "raw": "0xf86c02850da8886d908252089432be343b94f860124dc4fee278fdcbd38c102d888822d476e7bb0e2c00801ca0a26913d0a4b5e696ba53dee0085894c0225f60c4f202d5911c051eafc50ee948a066b5ed6798763cc441fd1e98702680e99a72df8ccad969c19a27958bbd22becd",
      "networkId": 0,
      "chainId": 0
    }
  ]
}