{
  "hash": "0xd31f04b5a5bfa25478d7972d03e30200b66dbf826b8d84664d5596fd90ccbe8f",
  "parentHash": "0xad566c82c38bf876e0a7cf2caf4a8b25bbb770d6658495c3ea6862e0aa4268c1",
  "number": 71393,
  "timestamp": 1439335170,
  "nonce": "0xe4c62762a489c056",
  "difficulty": 2182563240183,
  "gasLimit": {
    "_hex": "0x2fefd8"
  },
  "gasUsed": {
    "_hex": "0xe5ba"
  },
  "miner": "0x5B3e850E39e6f2C7dD38707b649e2B3536F14C0b",
  "extraData": "0x476574682f76312e302e312f64617277696e2f676f312e342e32",
  "transactions": [
    {
      "hash": "0xdee86288ea59be440c6d5bfe12d8886a7a8058c707243f1c3ee172006586d7a8",
      "blockHash": "0xd31f04b5a5bfa25478d7972d03e30200b66dbf826b8d84664d5596fd90ccbe8f",
      "blockNumber": 71393,
      "transactionIndex": 0,
      "confirmations": null,
      "from": "0x30beD8049947963394D93412326225E4e3123601",
      "gasPrice": {
        "_hex": "0xd64bf4f21"
      },
      "gasLimit": {
        "_hex": "0x5208"
      },
      "to": "0x32Be343B94f860124dC4fEe278FDCBD38C102D88",
      "value": {
        "_hex": "0xac115b9d3bdcb800"
      },
      "nonce": 3,
      "data": "0x",
      "r": "0x180968810a1b7e00c9807d9197cc884f6e4337c1d2c1ee8c3c4179b7443617da",
      "s": "0x38284474847e9cccc5174e685f61b5496489072de49a8cdaa06ff0b176b8a8fb",
      "v": 27,
      "creates": null,
      "raw": "0xf86c03850d64bf4f218252089432be343b94f860124dc4fee278fdcbd38c102d8888ac115b9d3bdcb800801ba0180968810a1b7e00c9807d9197cc884f6e4337c1d2c1ee8c3c4179b7443617daa038284474847e9cccc5174e685f61b5496489072de49a8cdaa06ff0b176b8a8fb",
      "networkId": 0,
      "chainId": 0
    },
    {
      "hash": "0x11a460b45ae92719ecad5723a257478ad53bffa61fd0c96239b1fb62fb5da5d0",
      "blockHash": "0xd31f04b5a5bfa25478d7972d03e30200b66dbf826b8d84664d5596fd90ccbe8f",
      "blockNumber": 71393,
      "transactionIndex": 1,
      "confirmations": null,
      "from": "0x17580B766f7453525ca4C6A88b01b50570EA088C",
      "gasPrice": {
        "_hex": "0xd2837caef"
      },
      "gasLimit": {
        "_hex": "0x61a80"
      },
      "to": "0x5Fe5B7546D1628f7348B023A0393de1FC825A4fD",
      "value": {
        "_hex": "0x53444835ec580000"
      },
      "nonce": 170,
      "data": "0xb595b8b50000000000000000000000000000000000000000000000000000000000000000",
      "r": "0xf722c98e8a64a37fa64076c064a178cb1a7dd84a8ad64df44874741cf8387e4b",
      "s": "0x3a626a77ee7c906560b5129e08f0d38857d3e81ffa0f500735ba3f4fee8903cc",
      "v": 28,
      "creates": null,
      "raw": "0xf89281aa850d2837caef83061a80945fe5b7546d1628f7348b023a0393de1fc825a4fd8853444835ec580000a4b595b8b500000000000000000000000000000000000000000000000000000000000000001ca0f722c98e8a64a37fa64076c064a178cb1a7dd84a8ad64df44874741cf8387e4ba03a626a77ee7c906560b5129e08f0d38857d3e81ffa0f500735ba3f4fee8903cc",
      "networkId": 0,
      "chainId": 0
    }
  ]
}