{
  "hash": "0xbd5c2888cf39857fb8c34e4d90675ad2642465da091121cefe0ba07356150a39",
  "parentHash": "0x160eae81973aa541c6ba75832fcadc63a2988ab0bf1c11501d1203069ae9f6e4",
  "number": 84323,
  "timestamp": 1439548050,
  "nonce": "0x5df8ce2c735dbccb",
  "difficulty": 2540291739826,
  "gasLimit": {
    "_hex": "0x2fefd8"
  },
  "gasUsed": {
    "_hex": "0x5208"
  },
  "miner": "0xb553EA87675eF890a0318b068C2272d76c1c672C",
  "extraData": "0x",
  "transactions": [
    {
      "hash": "0x4bcc007135db49e7b10a3b08d37d95acd3e040439867234288b20ce57335716e",
      "blockHash": "0xbd5c2888cf39857fb8c34e4d90675ad2642465da091121cefe0ba07356150a39",
      "blockNumber": 84323,
      "transactionIndex": 0,
      "confirmations": null,
      "from": "0x2637e8641e6ef9C8951adf3E0c7058e76D766cbA",
      "gasPrice": {
        "_hex": "0xd0b8b9d17"
      },
      "gasLimit": {
        "_hex": "0x5208"
      },
      "to": "0x32Be343B94f860124dC4fEe278FDCBD38C102D88",
      "value": {
        "_hex": "0x1028d037aed13c000"
      },
      "nonce": 1,
      "data": "0x",
      "r": "0xa235307b0aff6788370a18f218c5227bbaed4a04aaeaf7fa806b34edf597a49c",
      "s": "0x184511484792480ab2421559fa12424d7cf8ff0b05b666965b6dfd48bc67205e",
      "v": 28,
      "creates": null,
      "raw": "0xf86d01850d0b8b9d178252089432be343b94f860124dc4fee278fdcbd38c102d888901028d037aed13c000801ca0a235307b0aff6788370a18f218c5227bbaed4a04aaeaf7fa806b34edf597a49ca0184511484792480ab2421559fa12424d7cf8ff0b05b666965b6dfd48bc67205e",
      "networkId": 0,
      "chainId": 0
    }
  ]
}