{
  "hash": "0x96dd3aebb327e3edadfb484371c7c9eb1b08d1c42ee966da81a7b3f787dad1dc",
  "parentHash": "0x52ee0532d6ef389f80ad3b06e749fb5569befd318eef419bc467b9daf60e0615",
  "number": 110170,
  "timestamp": 1439969221,
  "nonce": "0x41bc1c06eae3312b",
  "difficulty": 4382141872847,
  "gasLimit": {
    "_hex": "0x2fefd8"
  },
  "gasUsed": {
    "_hex": "0x5208"
  },
  "miner": "0x5F8F73E26CdF436f19Cb24C82F90A15AFe55b592",
  "extraData": "0x476574682f76312e302e312f77696e646f77732f676f312e342e32",
  "transactions": [
    {
      "hash": "0xb39034fa9ab18498d05d3898794a661eeff9981260501d8fcdd0afef824bde20",
      "blockHash": "0x96dd3aebb327e3edadfb484371c7c9eb1b08d1c42ee966da81a7b3f787dad1dc",
      "blockNumber": 110170,
      "transactionIndex": 0,
      "confirmations": null,
      "from": "0xa70a9a7040d542C632D8e0bE7c5513A8a5Bbc752",
      "gasPrice": {
        "_hex": "0xcfd23172b"
      },
      "gasLimit": {
        "_hex": "0x5208"
      },
      "to": "0x32Be343B94f860124dC4fEe278FDCBD38C102D88",
      "value": {
        "_hex": "0x340683a3f2448000"
      },
      "nonce": 282,
      "data": "0x",
      "r": "0x2294b1b73026d1bedccce370cbfa8517e2db90395c59da986d398e575c5124ac",
      "s": "0x3259e477196bf19e13db24ca0d734e5fc7b8513eda0fb3fb62229de2d7138728",
      "v": 28,
      "creates": null,
      "raw": "0xf86e82011a850cfd23172b8252089432be343b94f860124dc4fee278fdcbd38c102d8888340683a3f2448000801ca02294b1b73026d1bedccce370cbfa8517e2db90395c59da986d398e575c5124aca03259e477196bf19e13db24ca0d734e5fc7b8513eda0fb3fb62229de2d7138728",
      "networkId": 0,
      "chainId": 0
    }
  ]
}