{
  "hash": "0x005f944f120caac641a6af6b2af107d3bf7207f8b632e1e8dd0a6d79a5331d23",
  "parentHash": "0xb2b7bc88aa0778c81f4503df84cf8db8228c00eb9ee8be6241c8ebe3c528a2a8",
  "number": 105639,
  "timestamp": 1439891035,
  "nonce": "0xfd139749d480986d",
  "difficulty": 4403819734806,
  "gasLimit": {
    "_hex": "0x2fefd8"
  },
  "gasUsed": {
    "_hex": "0x5208"
  },
  "miner": "0xdd2F1e6e498202e86D8f5442Af596580A4f03c2C",
  "extraData": "0x476574682f76312e302e312d38326566323666362f6c696e75782f676f312e34",
  "transactions": [
    {
      "hash": "0x7f5ab15890ab71ca114e987635200cde1cef51a70ec63183387a4331fedd706c",
      "blockHash": "0x005f944f120caac641a6af6b2af107d3bf7207f8b632e1e8dd0a6d79a5331d23",
      "blockNumber": 105639,
      "transactionIndex": 0,
      "confirmations": null,
      "from": "0xE9820EfC74A9fe5fb68bf1e0FBf9945c1302bC0B",
      "gasPrice": {
        "_hex": "0xde7d35f05"
      },
      "gasLimit": {
        "_hex": "0x5208"
      },
      "to": "0x32Be343B94f860124dC4fEe278FDCBD38C102D88",
      "value": {
        "_hex": "0x55de232c98a31c000"
      },
      "nonce": 6,
      "data": "0x",
      "r": "0x39023308f91c0efe86c0d2c33f5fe395d645e746236d31256da91640c7d254fc",
      "s": "0x28027423ed8ff890ded95f861003b6e7e158f981c129a485cc552c66c3c89f10",
      "v": 28,
      "creates": null,
      "raw": "0xf86d06850de7d35f058252089432be343b94f860124dc4fee278fdcbd38c102d8889055de232c98a31c000801ca039023308f91c0efe86c0d2c33f5fe395d645e746236d31256da91640c7d254fca028027423ed8ff890ded95f861003b6e7e158f981c129a485cc552c66c3c89f10",
      "networkId": 0,
      "chainId": 0
    }
  ]
}