{
  "hash": "0xa0fd346384ba94f3c0e1d3c226f82448059388455ecae5a28ea2d750ef4dc612",
  "parentHash": "0x8689f0934c5e60bcd08da529ced9d9d704aee21808b3b8fd4d6941ad03e5b2a3",
  "number": 111206,
  "timestamp": 1439986517,
  "nonce": "0x5d73cdf8efe4d4e1",
  "difficulty": 4394456252068,
  "gasLimit": {
    "_hex": "0x2fefd8"
  },
  "gasUsed": {
    "_hex": "0x5208"
  },
  "miner": "0x3251cce70191B7c0625Addd94Af1e95C87A3D848",
  "extraData": "0x476574682f76312e302e312f6c696e75782f676f312e342e32",
  "transactions": [
    {
      "hash": "0x97b75cf7c2e872e1906787809be78b6f5ea546af06f93387adf9474904d92fb5",
      "blockHash": "0xa0fd346384ba94f3c0e1d3c226f82448059388455ecae5a28ea2d750ef4dc612",
      "blockNumber": 111206,
      "transactionIndex": 0,
      "confirmations": null,
      "from": "0x32Be343B94f860124dC4fEe278FDCBD38C102D88",
      "gasPrice": {
        "_hex": "0xd29cf0bb6"
      },
      "gasLimit": {
        "_hex": "0x5208"
      },
      "to": "0x1C89060f987C518fa079EC2c0a5EbFa30f5d20F7",
      "value": {
        "_hex": "0x12a27b1b4cdd8b00000"
      },
      "nonce": 1301,
      "data": "0x",
      "r": "0x019de840289df6900555ff652294c494946c8e2d624a5c2462dd5be281322dde",
      "s": "0x11194f632931ce55788e22caf50ea4119022cf18dd8339ddef7fae99cd8bd5b0",
      "v": 28,
      "creates": null,
      "raw": "0xf870820515850d29cf0bb6825208941c89060f987c518fa079ec2c0a5ebfa30f5d20f78a012a27b1b4cdd8b00000801ca0019de840289df6900555ff652294c494946c8e2d624a5c2462dd5be281322ddea011194f632931ce55788e22caf50ea4119022cf18dd8339ddef7fae99cd8bd5b0",
      "networkId": 0,
      "chainId": 0
    }
  ]
}