{
  "hash": "0xc84ef6ea51f03840a6f5306327e091464bc7d3ebd0ba5060df8682b80e8cb08d",
  "parentHash": "0x5beba46041c1db7deed17d3dc74e1e77a0c9eeec28426eec7731a69d06237b54",
  "number": 89130,
  "timestamp": 1439618688,
  "nonce": "0xafdc1675fb943585",
  "difficulty": 3261522772950,
  "gasLimit": {
    "_hex": "0x2fefd8"
  },
  "gasUsed": {
    "_hex": "0xa674"
  },
  "miner": "0xe6A7a1d47ff21B6321162AEA7C6CB457D5476Bca",
  "extraData": "0x476574682f76312e302e312d38326566323666362f6c696e75782f676f312e34",
  "transactions": [
    {
      "hash": "0x6d6f719d3f129de6af542c14c3b6e92fd7bde72fe67d80008d1f5d260f511efb",
      "blockHash": "0xc84ef6ea51f03840a6f5306327e091464bc7d3ebd0ba5060df8682b80e8cb08d",
      "blockNumber": 89130,
      "transactionIndex": 0,
      "confirmations": null,
      "from": "0x9d30cB237BC096f17036FC80dd21CA68992ca2d9",
      "gasPrice": {
        "_hex": "0x110c8f7d8de"
      },
      "gasLimit": {
        "_hex": "0xc350"
      },
      "to": "0x2910543Af39abA0Cd09dBb2D50200b3E800A63D2",
      "value": {
        "_hex": "0x10f0cf064dd59200000"
      },
      "nonce": 4,
      "data": "0x454e4e445759415947",
      "r": "0x48c32cfba77e2fea3c3936147709a3b37ed98d3d69fd773d9c60666033547af8",
      "s": "0xf837cda05b54e0707ccf4deece4d682c3ecd18f65c7bd43ebf2c7e025a69a05f",
      "v": 28,
      "creates": null,
      "raw": "0xf87804860110c8f7d8de82c350942910543af39aba0cd09dbb2d50200b3e800a63d28a010f0cf064dd5920000089454e4e4457594159471ca048c32cfba77e2fea3c3936147709a3b37ed98d3d69fd773d9c60666033547af8a0f837cda05b54e0707ccf4deece4d682c3ecd18f65c7bd43ebf2c7e025a69a05f",
      "networkId": 0,
      "chainId": 0
    },
    {
      "hash": "0xf986c08bad41cf3e3032b866060231d66ef959fa02931f7d9876472b60c45c4e",
      "blockHash": "0xc84ef6ea51f03840a6f5306327e091464bc7d3ebd0ba5060df8682b80e8cb08d",
      "blockNumber": 89130,
      "transactionIndex": 1,
      "confirmations": null,
      "from": "0x6d84df1cFAD609EAc476cBC2553390bFC23Cf6Fc",
      "gasPrice": {
        "_hex": "0xcf316db17"
      },
      "gasLimit": {
        "_hex": "0x5208"
      },
      "to": "0x32Be343B94f860124dC4fEe278FDCBD38C102D88",
      "value": {
        "_hex": "0x1c3030b893730c000"
      },
      "nonce": 2,
      "data": "0x",
      "r": "0xb3099e8749143267e009c92435ec42b6823b1ec64b99c5f5ef84142b9510a2b5",
      "s": "0x24cf60601a83c5ad779fc73325e49fab1cc6d11015d04bc7b8839e2136f065eb",
      "v": 27,
      "creates": null,
      "raw": "0xf86d02850cf316db178252089432be343b94f860124dc4fee278fdcbd38c102d888901c3030b893730c000801ba0b3099e8749143267e009c92435ec42b6823b1ec64b99c5f5ef84142b9510a2b5a024cf60601a83c5ad779fc73325e49fab1cc6d11015d04bc7b8839e2136f065eb",
      "networkId": 0,
      "chainId": 0
    }
  ]
}