{
  "hash": "0x8fd2566ef8a63a6dacc8c56782a72bc0787fe220e1ff5d75808b2e53c4b79d81",
  "parentHash": "0xcb5b20a12c4376da6091ae150a75ca4edf6cc1e7bce635fdf56268f751866cfc",
  "number": 106122,
  "timestamp": 1439899006,
  "nonce": "0xc865feda1b29c974",
  "difficulty": 4462005383699,
  "gasLimit": {
    "_hex": "0x2fefd8"
  },
  "gasUsed": {
    "_hex": "0x5208"
  },
  "miner": "0xEF247E639d49461D25F57e9362CadE3120910Ce0",
  "extraData": "0x476574682f76312e302e312f6c696e75782f676f312e342e32",
  "transactions": [
    {
      "hash": "0x42cbaf364ab8419ce6abcf1e1ab21045d9e948f5078bc0949d4e0969d1d8ebf0",
      "blockHash": "0x8fd2566ef8a63a6dacc8c56782a72bc0787fe220e1ff5d75808b2e53c4b79d81",
      "blockNumber": 106122,
      "transactionIndex": 0,
      "confirmations": null,
      "from": "0xca3Ce19d512bEdA23b61bDD59C27Eb1Ec2393c1f",
      "gasPrice": {
        "_hex": "0xd09124f87"
      },
      "gasLimit": {
        "_hex": "0x15f90"
      },
      "to": "0x1332996a46dcBBE02f9cF164Dfc153aB976a9766",
      "value": {
        "_hex": "0x29ce8cca01dd40000"
      },
      "nonce": 4,
      "data": "0x",
      "r": "0x43e5c26f47acea09d039488a3b7f3bffc0f51aefbb99b3713bc14954063eec3e",
      "s": "0x50b577f19ad3934fb060c25481a5440137bc6b54cad87ccb27a3c6d822264488",
      "v": 28,
      "creates": null,
      "raw": "0xf86e04850d09124f8783015f90941332996a46dcbbe02f9cf164dfc153ab976a976689029ce8cca01dd40000801ca043e5c26f47acea09d039488a3b7f3bffc0f51aefbb99b3713bc14954063eec3ea050b577f19ad3934fb060c25481a5440137bc6b54cad87ccb27a3c6d822264488",
      "networkId": 0,
      "chainId": 0
    }
  ]
}