{
  "hash": "0x52811f081d128a8e340d7537c1007e9a320650680f8417a92faee46b6c942ae5",
  "parentHash": "0x86ae0ebef09b8ed6ed2495c617eb8b30475bc5a7f6d84773066a2b2a2188d773",
  "number": 68130,
  "timestamp": 1439283096,
  "nonce": "0xfe621855dafe239e",
  "difficulty": 1965818085639,
  "gasLimit": {
    "_hex": "0x2fefd8"
  },
  "gasUsed": {
    "_hex": "0xa410"
  },
  "miner": "0x47ff6576639c2e94762eA5443978D7681C0E78DC",
  "extraData": "0x476574682f76312e302e312f6c696e75782f676f312e342e32",
  "transactions": [
    {
      "hash": "0x8ed373459ea82df9b42f8e4d44afc41749e9a40abf179a3582598c65b00015ac",
      "blockHash": "0x52811f081d128a8e340d7537c1007e9a320650680f8417a92faee46b6c942ae5",
      "blockNumber": 68130,
      "transactionIndex": 0,
      "confirmations": null,
      "from": "0xcc71a3b4707041559d69f774284f47E8272be370",
      "gasPrice": {
        "_hex": "0xd57476ffd"
      },
      "gasLimit": {
        "_hex": "0x5208"
      },
      "to": "0x32Be343B94f860124dC4fEe278FDCBD38C102D88",
      "value": {
        "_hex": "0xddc7053326ce000"
      },
      "nonce": 0,
      "data": "0x",
      "r": "0x24013ace2e2ed82d22d0cb176f7d387c1b8baa449bdaddbabb7da6c14f41abf8",
      "s": "0x6245391da7eb9942a117da9db882c1e65c1913ecef7900c81e259f9cf9ab6efc",
      "v": 28,
      "creates": null,
      "raw": "0xf86c80850d57476ffd8252089432be343b94f860124dc4fee278fdcbd38c102d88880ddc7053326ce000801ca024013ace2e2ed82d22d0cb176f7d387c1b8baa449bdaddbabb7da6c14f41abf8a06245391da7eb9942a117da9db882c1e65c1913ecef7900c81e259f9cf9ab6efc",
      "networkId": 0,
      "chainId": 0
    },
    {
      "hash": "0x372ecabcea200051f3dfad938ac0c1378ea81d048ad044f6a5c52897b9083283",
      "blockHash": "0x52811f081d128a8e340d7537c1007e9a320650680f8417a92faee46b6c942ae5",
      "blockNumber": 68130,
      "transactionIndex": 1,
      "confirmations": null,
      "from": "0xa70a9a7040d542C632D8e0bE7c5513A8a5Bbc752",
      "gasPrice": {
        "_hex": "0xd57476ffd"
      },
      "gasLimit": {
        "_hex": "0x5208"
      },
      "to": "0x32Be343B94f860124dC4fEe278FDCBD38C102D88",
      "value": {
        "_hex": "0x455f5592b54f5000"
      },
      "nonce": 1,
      "data": "0x",
      "r": "0xca32e5c5d0669e7399844ca8bfcb7fbaa9ea954e36a919b93c59ed9e509ba765",
      "s": "0x203186608c72ec4de51f077ecc3e041121f4f26465cb8775ef02cd9fe1e9291d",
      "v": 27,
      "creates": null,
      "raw": "0xf86c01850d57476ffd8252089432be343b94f860124dc4fee278fdcbd38c102d8888455f5592b54f5000801ba0ca32e5c5d0669e7399844ca8bfcb7fbaa9ea954e36a919b93c59ed9e509ba765a0203186608c72ec4de51f077ecc3e041121f4f26465cb8775ef02cd9fe1e9291d",
      "networkId": 0,
      "chainId": 0
    }
  ]
}