{
  "hash": "0xe01823b2cae743b5768e7d9202280493413bbbc88b61ff84848da20efceebdf1",
  "parentHash": "0xcf68d5a749bb796016e59f14e953cbe3d6ae6e4365b48f866d0bf22557831d37",
  "number": 71226,
  "timestamp": 1439332791,
  "nonce": "0x8b3d1b3ec87edf7d",
  "difficulty": 2139346394954,
  "gasLimit": {
    "_hex": "0x2fefd8"
  },
  "gasUsed": {
    "_hex": "0x93b2"
  },
  "miner": "0xe6A7a1d47ff21B6321162AEA7C6CB457D5476Bca",
  "extraData": "0x476574682f76312e302e312d38326566323666362f6c696e75782f676f312e34",
  "transactions": [
    {
      "hash": "0xd41fe5cdd5217fbf11766d01c1d90e7b2870a809bcb405ef64a1d1e350992929",
      "blockHash": "0xe01823b2cae743b5768e7d9202280493413bbbc88b61ff84848da20efceebdf1",
      "blockNumber": 71226,
      "transactionIndex": 0,
      "confirmations": null,
      "from": "0x17580B766f7453525ca4C6A88b01b50570EA088C",
      "gasPrice": {
        "_hex": "0xd7b05bead"
      },
      "gasLimit": {
        "_hex": "0x61a80"
      },
      "to": "0x5Fe5B7546D1628f7348B023A0393de1FC825A4fD",
      "value": {
        "_hex": "0x53444835ec580000"
      },
      "nonce": 124,
      "data": "0xb595b8b50000000000000000000000000000000000000000000000000000000000000000",
      "r": "0xb07fc02ad7ae2a4425eebacdbd88bb4ce7b2feab55c2a47cdcd755daa2a25a5a",
      "s": "0x2dafca2b3fe036de6eb6781664631508bd234cd0a97f11695c28e1e9d919b88f",
      "v": 27,
      "creates": null,
      "raw": "0xf8917c850d7b05bead83061a80945fe5b7546d1628f7348b023a0393de1fc825a4fd8853444835ec580000a4b595b8b500000000000000000000000000000000000000000000000000000000000000001ba0b07fc02ad7ae2a4425eebacdbd88bb4ce7b2feab55c2a47cdcd755daa2a25a5aa02dafca2b3fe036de6eb6781664631508bd234cd0a97f11695c28e1e9d919b88f",
      "networkId": 0,
      "chainId": 0
    }
  ]
}