{
  "hash": "0x9adf4caf2e5fd893c86f51140d95fe279294e69f51b4cd43b31fbd7abf098a1e",
  "parentHash": "0x8c31ea5dae863ae1b53a9be98947b0d6827542c3999b89db6a291a3be0673010",
  "number": 101047,
  "timestamp": 1439816581,
  "nonce": "0x721a6c3cf42366ac",
  "difficulty": 3861994450489,
  "gasLimit": {
    "_hex": "0x2fefd8"
  },
  "gasUsed": {
    "_hex": "0x5208"
  },
  "miner": "0xD5ADfcb174Ca133e9349650E549fe6E2F3242B3a",
  "extraData": "0x476574682f76312e302e312f77696e646f77732f676f312e342e32",
  "transactions": [
    {
      "hash": "0x1284822e6e94f16b18de0fcfbe3166d85638f08ec7272b6f3b5db1c5ee4c5e45",
      "blockHash": "0x9adf4caf2e5fd893c86f51140d95fe279294e69f51b4cd43b31fbd7abf098a1e",
      "blockNumber": 101047,
      "transactionIndex": 0,
      "confirmations": null,
      "from": "0x2910543Af39abA0Cd09dBb2D50200b3E800A63D2",
      "gasPrice": {
        "_hex": "0xd359d5e5c"
      },
      "gasLimit": {
        "_hex": "0x5208"
      },
      "to": "0x2e3A5f60a5590959B068587c47e643E18E7F5Cdf",
      "value": {
        "_hex": "0x593fa4ce90540000"
      },
      "nonce": 961,
      "data": "0x",
      "r": "0x0b6516dd53981c3e40edcd0c4dbf475d6c62bb071683d3e39f75c1fcd89c2c29",
      "s": "0x07605a75852448072bbe694b2d25ce00dbf816fdcd703da00b59e6fe457ebdad",
      "v": 28,
      "creates": null,
      "raw": "0xf86e8203c1850d359d5e5c825208942e3a5f60a5590959b068587c47e643e18e7f5cdf88593fa4ce90540000801ca00b6516dd53981c3e40edcd0c4dbf475d6c62bb071683d3e39f75c1fcd89c2c29a007605a75852448072bbe694b2d25ce00dbf816fdcd703da00b59e6fe457ebdad",
      "networkId": 0,
      "chainId": 0
    }
  ]
}