{
  "hash": "0xb00c3f7ef51a4f1814c8c8d09ebfc07fbe63a83a1f614a88a06d979e4da66888",
  "parentHash": "0x24efa5d920b291ab8ce73daa45a120f943c98df6badbc2008145e4313277f04a",
  "number": 76501,
  "timestamp": 1439421661,
  "nonce": "0x4c8d593728544491",
  "difficulty": 2224255637601,
  "gasLimit": {
    "_hex": "0x2fefd8"
  },
  "gasUsed": {
    "_hex": "0x1b497"
  },
  "miner": "0xe6A7a1d47ff21B6321162AEA7C6CB457D5476Bca",
  "extraData": "0x476574682f76312e302e312d38326566323666362f6c696e75782f676f312e34",
  "transactions": [
    {
      "hash": "0xfaeb441adede99e1280aeced2761e88b420ac9761a232d7f18910c81b45fe472",
      "blockHash": "0xb00c3f7ef51a4f1814c8c8d09ebfc07fbe63a83a1f614a88a06d979e4da66888",
      "blockNumber": 76501,
      "transactionIndex": 0,
      "confirmations": null,
      "from": "0x8Be84A3adfBc51c59023B2413766E229108c35DE",
      "gasPrice": {
        "_hex": "0xdd9044c1a"
      },
      "gasLimit": {
        "_hex": "0x493e0"
      },
      "to": "0xD79B4C6791784184e2755B2fC1659eaaB0f80456",
      "value": {
        "_hex": "0xde0b6b3a7640000"
      },
      "nonce": 9,
      "data": "0x8d21618600000000000000000000000000000000000000000000000000000000000000e698a5ffd42d20039759efe1d228cc6ad00f8352c5d14b882853d2cc29d1958fe7",
      "r": "0x05de908731ff61d483c3b1688a3900dab91b55dfbb18aa509b5e8e80a3f9d07a",
      "s": "0x5fc443c2f4f7be77ea8796422ac87bf20d29d7b2b8366396bdc360f6f602eae1",
      "v": 28,
      "creates": null,
      "raw": "0xf8b209850dd9044c1a830493e094d79b4c6791784184e2755b2fc1659eaab0f80456880de0b6b3a7640000b8448d21618600000000000000000000000000000000000000000000000000000000000000e698a5ffd42d20039759efe1d228cc6ad00f8352c5d14b882853d2cc29d1958fe71ca005de908731ff61d483c3b1688a3900dab91b55dfbb18aa509b5e8e80a3f9d07aa05fc443c2f4f7be77ea8796422ac87bf20d29d7b2b8366396bdc360f6f602eae1",
      "networkId": 0,
      "chainId": 0
    }
  ]
}