{
  "hash": "0x44146977051d972075b79bf915777b5a7fe4ffa7c61dda1382cf848ba715378c",
  "parentHash": "0xad46274ad724ce30b167a8e2c36268370a5d5ceea25de63b735c059641e2696e",
  "number": 85312,
  "timestamp": 1439561681,
  "nonce": "0x712198ef5a953474",
  "difficulty": 2745045799509,
  "gasLimit": {
    "_hex": "0x2fefd8"
  },
  "gasUsed": {
    "_hex": "0xa410"
  },
  "miner": "0xbb7B8287f3F0a933474a79eAe42CBCa977791171",
  "extraData": "0x476574682f4c5649562f76312e302e312f6c696e75782f676f312e342e32",
  "transactions": [
    {
      "hash": "0x84ab3f504a9a4e8605333937660bf48a10f3e995711c50d9c59eba3164802b23",
      "blockHash": "0x44146977051d972075b79bf915777b5a7fe4ffa7c61dda1382cf848ba715378c",
      "blockNumber": 85312,
      "transactionIndex": 0,
      "confirmations": null,
      "from": "0x897d64aD0a333394b4E4ae8e8DCccdbc71d4E4E8",
      "gasPrice": {
        "_hex": "0xd7d40ace3"
      },
      "gasLimit": {
        "_hex": "0x15f90"
      },
      "to": "0x13aE5B35f82651Ff327d41502F0Aa90DA76D777E",
      "value": {
        "_hex": "0x15f1ba7f471620000"
      },
      "nonce": 1,
      "data": "0x",
      "r": "0x5c96e16617cffdb00644a7347b1f2309faf79cfc0908b40fd07b135dd2a6a91b",
      "s": "0x459c626ba80e9f206786c534a7bc8a9beac11b6f909e7ad76ab45190b06d3c53",
      "v": 28,
      "creates": null,
      "raw": "0xf86e01850d7d40ace383015f909413ae5b35f82651ff327d41502f0aa90da76d777e89015f1ba7f471620000801ca05c96e16617cffdb00644a7347b1f2309faf79cfc0908b40fd07b135dd2a6a91ba0459c626ba80e9f206786c534a7bc8a9beac11b6f909e7ad76ab45190b06d3c53",
      "networkId": 0,
      "chainId": 0
    },
    {
      "hash": "0xdf9f167d0ee1fae80371669185e6abcc59887d971159e82abb720e90e5466925",
      "blockHash": "0x44146977051d972075b79bf915777b5a7fe4ffa7c61dda1382cf848ba715378c",
      "blockNumber": 85312,
      "transactionIndex": 1,
      "confirmations": null,
      "from": "0x88a0A05437262a1b65f41A978Cb16CB1f0BFCfE0",
      "gasPrice": {
        "_hex": "0xd35834335"
      },
      "gasLimit": {
        "_hex": "0x15f90"
      },
      "to": "0xb81b17f58AE6eBbC0c104C748cA0EB9A18516820",
      "value": {
        "_hex": "0x3635c9adc5dea00000"
      },
      "nonce": 14,
      "data": "0x",
      "r": "0xcdd4c0770ec287cf24168951b363fc197d12e59da8731caaadc36be12df5ad91",
      "s": "0x75b3454e1dd2ae42cbabd6b4511e36ffcdecb77870a891e7d2e99923967463a3",
      "v": 27,
      "creates": null,
      "raw": "0xf86e0e850d3583433583015f9094b81b17f58ae6ebbc0c104c748ca0eb9a18516820893635c9adc5dea00000801ba0cdd4c0770ec287cf24168951b363fc197d12e59da8731caaadc36be12df5ad91a075b3454e1dd2ae42cbabd6b4511e36ffcdecb77870a891e7d2e99923967463a3",
      "networkId": 0,
      "chainId": 0
    }
  ]
}