{
  "hash": "0xc73919a90877d07e4cab91f9eadb9177165cfb3a49f4ccf30781ebf87ee1ea61",
  "parentHash": "0xe718ce4d00d1c14153fe774a8fb5fd362b544d034d74849b25028c964e92b250",
  "number": 109346,
  "timestamp": 1439955023,
  "nonce": "0x1faeda2762bba5a2",
  "difficulty": 4455937200176,
  "gasLimit": {
    "_hex": "0x2fefd8"
  },
  "gasUsed": {
    "_hex": "0x5208"
  },
  "miner": "0x55bAf64fc9eAccFFd7Cc643BB61142E1C6ac093e",
  "extraData": "0x",
  "transactions": [
    {
      "hash": "0x50eef09eaaa7ae60f602a620cab7727349f2cab0d8a4409623bc65d0c846a0d9",
      "blockHash": "0xc73919a90877d07e4cab91f9eadb9177165cfb3a49f4ccf30781ebf87ee1ea61",
      "blockNumber": 109346,
      "transactionIndex": 0,
      "confirmations": null,
      "from": "0x007f7f58D3eb5b7510A301eCC749FC1fCDDBE14D",
      "gasPrice": {
        "_hex": "0xd382b0b9c"
      },
      "gasLimit": {
        "_hex": "0x15f90"
      },
      "to": "0xb1abce2918E21ddb93AA452731a12672A3d9F75a",
      "value": {
        "_hex": "0x4563918244f40000"
      },
      "nonce": 266,
      "data": "0x",
      "r": "0x2844f0b157ec587d0c113b4402b628affe138b5ced93ede594b6f952cc062d29",
      "s": "0x6997fb5dc5ca0751c53286ccd6b06690dc3dd1723fdca2775238184908856e41",
      "v": 28,
      "creates": null,
      "raw": "0xf86f82010a850d382b0b9c83015f9094b1abce2918e21ddb93aa452731a12672a3d9f75a884563918244f40000801ca02844f0b157ec587d0c113b4402b628affe138b5ced93ede594b6f952cc062d29a06997fb5dc5ca0751c53286ccd6b06690dc3dd1723fdca2775238184908856e41",
      "networkId": 0,
      "chainId": 0
    }
  ]
}