{
  "hash": "0xb815b22cb8657ca45c69452704c517b3708c0b39a62f1768a1842f8c70f1f719",
  "parentHash": "0x3b620dfef6635748522d3da799f471e960ddedb58c3cc8b8b4d1d1d2a1d02330",
  "number": 93684,
  "timestamp": 1439695845,
  "nonce": "0xf0e300a50a4ae04a",
  "difficulty": 3429562045279,
  "gasLimit": {
    "_hex": "0x2fefd8"
  },
  "gasUsed": {
    "_hex": "0x5208"
  },
  "miner": "0xa70a9a7040d542C632D8e0bE7c5513A8a5Bbc752",
  "extraData": "0x",
  "transactions": [
    {
      "hash": "0xc3a2ef127dd9c6b74398e0b6b2a26add717539e4e28804ec31c098ce34b92377",
      "blockHash": "0xb815b22cb8657ca45c69452704c517b3708c0b39a62f1768a1842f8c70f1f719",
      "blockNumber": 93684,
      "transactionIndex": 0,
      "confirmations": null,
      "from": "0x007f7f58D3eb5b7510A301eCC749FC1fCDDBE14D",
      "gasPrice": {
        "_hex": "0xdba6f320f"
      },
      "gasLimit": {
        "_hex": "0x15f90"
      },
      "to": "0xD9666150A9dA92d9108198a4072970805a8B3428",
      "value": {
        "_hex": "0xde0b6b3a7640000"
      },
      "nonce": 12,
      "data": "0x",
      "r": "0x6d8e914dba71e9c5ca69c6f2987a837d42503306f5f536aa05686aacec36a681",
      "s": "0x196f6b328cf37f839a0932dda8250639ac6b4e78c0429b4ae1f7a6a826ce5bbb",
      "v": 28,
      "creates": null,
      "raw": "0xf86d0c850dba6f320f83015f9094d9666150a9da92d9108198a4072970805a8b3428880de0b6b3a7640000801ca06d8e914dba71e9c5ca69c6f2987a837d42503306f5f536aa05686aacec36a681a0196f6b328cf37f839a0932dda8250639ac6b4e78c0429b4ae1f7a6a826ce5bbb",
      "networkId": 0,
      "chainId": 0
    }
  ]
}