{
  "hash": "0xe2829f1c995974a7a0dc15e1f780dfaa46fb9d253ee9ba6874cad94b3de66d54",
  "parentHash": "0x721f791f2801abde88ea0b5d5ac6fbfefb9bda8e1c50f8fd0ea66bc6be5bac35",
  "number": 64944,
  "timestamp": 1439228767,
  "nonce": "0xdee582d9316f2515",
  "difficulty": 1911652351075,
  "gasLimit": {
    "_hex": "0x2fefd8"
  },
  "gasUsed": {
    "_hex": "0xa410"
  },
  "miner": "0x39A1BB80a741bF5EC39FB9BE59408Fa0F418fFBf",
  "extraData": "0x476574682f76312e302e312f77696e646f77732f676f312e342e32",
  "transactions": [
    {
      "hash": "0x37a81fc72a9e5320629e9f2ed04fd17e3efe9f61993ced1f68270b292521c627",
      "blockHash": "0xe2829f1c995974a7a0dc15e1f780dfaa46fb9d253ee9ba6874cad94b3de66d54",
      "blockNumber": 64944,
      "transactionIndex": 0,
      "confirmations": null,
      "from": "0x6994b8A5Ae7C04aA8B05e3B2B6D91D83CA0bb85E",
      "gasPrice": {
        "_hex": "0xba43b7400"
      },
      "gasLimit": {
        "_hex": "0x5208"
      },
      "to": "0xDEF560844D1D832517417AaeD10B0753Ce21EB46",
      "value": {
        "_hex": "0x17adb9b0233f000"
      },
      "nonce": 1,
      "data": "0x",
      "r": "0xdea501299410dc237e57f4687a1d5298eaaec03b578ad6cd7c203ba91602975c",
      "s": "0x339c6f9965ef3505a6f33d99c7754ff1f45d5715023a2379ef01104fe659aa75",
      "v": 28,
      "creates": null,
      "raw": "0xf86c01850ba43b740082520894def560844d1d832517417aaed10b0753ce21eb4688017adb9b0233f000801ca0dea501299410dc237e57f4687a1d5298eaaec03b578ad6cd7c203ba91602975ca0339c6f9965ef3505a6f33d99c7754ff1f45d5715023a2379ef01104fe659aa75",
      "networkId": 0,
      "chainId": 0
    },
    {
      "hash": "0x483f7b6e5b51d918127bd55c603341cc7b4cc6e251179940908b053f3dcbb1e7",
      "blockHash": "0xe2829f1c995974a7a0dc15e1f780dfaa46fb9d253ee9ba6874cad94b3de66d54",
      "blockNumber": 64944,
      "transactionIndex": 1,
      "confirmations": null,
      "from": "0x2b53f3D020aDeB84BdD5A8E25bc7AC263BabDEc4",
      "gasPrice": {
        "_hex": "0xba43b7400"
      },
      "gasLimit": {
        "_hex": "0x5208"
      },
      "to": "0x4f76e660328594DC773d325cb594e6DA3C26F91F",
      "value": {
        "_hex": "0x11e4ee79bf23000"
      },
      "nonce": 1,
      "data": "0x",
      "r": "0xe2248b2dee20b99b195d6c822024b8f79e4b8e383335784cbb538c435c457b72",
      "s": "0x54fb046a1d7be4dcd851bbab76b285421b0d97ac878e7518b0d3d39d7cdd07e2",
      "v": 28,
      "creates": null,
      "raw": "0xf86c01850ba43b7400825208944f76e660328594dc773d325cb594e6da3c26f91f88011e4ee79bf23000801ca0e2248b2dee20b99b195d6c822024b8f79e4b8e383335784cbb538c435c457b72a054fb046a1d7be4dcd851bbab76b285421b0d97ac878e7518b0d3d39d7cdd07e2",
      "networkId": 0,
      "chainId": 0
    }
  ]
}