{
  "hash": "0x35a100c97f00a17e4c288527e3b990ab03fca310b262a5be412f14f3b9bb88ce",
  "parentHash": "0xbf49f813020db1efc533e2a55b5189ce22a86cd60ea29c8117dc7918e937f56c",
  "number": 48502,
  "timestamp": 1438958254,
  "nonce": "0xc5362f78ed4cf5c2",
  "difficulty": 1461436971686,
  "gasLimit": {
    "_hex": "0x184e9"
  },
  "gasUsed": {
    "_hex": "0x546c"
  },
  "miner": "0x580992B51e3925e23280EfB93d3047C82f17E038",
  "extraData": "0x476574682f76312e302e312f6c696e75782f676f312e342e32",
  "transactions": [
    {
      "hash": "0xbb55515bf9a7276bc03d68e20e06cb450fbcd22016b873a84f114c0b7872574a",
      "blockHash": "0x35a100c97f00a17e4c288527e3b990ab03fca310b262a5be412f14f3b9bb88ce",
      "blockNumber": 48502,
      "transactionIndex": 0,
      "confirmations": null,
      "from": "0x4D88034e04504DEe3e8D9770094ac62CC430EB82",
      "gasPrice": {
        "_hex": "0x746a528800"
      },
      "gasLimit": {
        "_hex": "0x55f0"
      },
      "to": "0x2910543Af39abA0Cd09dBb2D50200b3E800A63D2",
      "value": {
        "_hex": "0x10f0cc9506c44988000"
      },
      "nonce": 0,
      "data": "0x454e4e4b3732444a47",
      "r": "0x547e602ee95efbd2773a22efec020a70c6bc78695d6c19f108b65e04fd5255e7",
      "s": "0x1c77a53ea8878b172156da29fe740fcfd7693ec64ec3700e4125aaa5c1d8439c",
      "v": 28,
      "creates": null,
      "raw": "0xf8778085746a5288008255f0942910543af39aba0cd09dbb2d50200b3e800a63d28a010f0cc9506c4498800089454e4e4b3732444a471ca0547e602ee95efbd2773a22efec020a70c6bc78695d6c19f108b65e04fd5255e7a01c77a53ea8878b172156da29fe740fcfd7693ec64ec3700e4125aaa5c1d8439c",
      "networkId": 0,
      "chainId": 0
    }
  ]
}