{
  "hash": "0x7fca7bd1a714c912a75a98c2ee6dabb7e8b66d69bf3535951b6c829a90007bed",
  "parentHash": "0xa5000bdb44fc435db185ecc4e4f131365c602ccd30b47f267f05785367649ef9",
  "number": 57732,
  "timestamp": 1439108763,
  "nonce": "0xb5c35fb366be409e",
  "difficulty": 1725146678157,
  "gasLimit": {
    "_hex": "0x2fe3de"
  },
  "gasUsed": {
    "_hex": "0x5208"
  },
  "miner": "0x5E418A1728294b2ec7eF61C837d0902ce115aB5F",
  "extraData": "0x476574682f76312e302e302f77696e646f77732f676f312e342e32",
  "transactions": [
    {
      "hash": "0x9c3b418c439f5c27594b9376079d5047539ffceda0ea8b666be5811f2c2274a8",
      "blockHash": "0x7fca7bd1a714c912a75a98c2ee6dabb7e8b66d69bf3535951b6c829a90007bed",
      "blockNumber": 57732,
      "transactionIndex": 0,
      "confirmations": null,
      "from": "0x1908dA5B6FA3132dEc867Ec6A74DdB252292107D",
      "gasPrice": {
        "_hex": "0x746a528800"
      },
      "gasLimit": {
        "_hex": "0x5b04"
      },
      "to": "0x3234d29E2390E0Ac637B3ad0ACA3dF88aC82dC5d",
      "value": {
        "_hex": "0x14d1120d7b160000"
      },
      "nonce": 3,
      "data": "0x",
      "r": "0xf8124bb126257f0f6fb0d625d55ff98cb5ea866b90def90c5c98da562aea22ae",
      "s": "0x93f7ed4969a074ff76839a21e9a7b8293216bfa6283ce15b66db566e0a91cadc",
      "v": 28,
      "creates": null,
      "raw": "0xf86c0385746a528800825b04943234d29e2390e0ac637b3ad0aca3df88ac82dc5d8814d1120d7b160000801ca0f8124bb126257f0f6fb0d625d55ff98cb5ea866b90def90c5c98da562aea22aea093f7ed4969a074ff76839a21e9a7b8293216bfa6283ce15b66db566e0a91cadc",
      "networkId": 0,
      "chainId": 0
    }
  ]
}