{
  "hash": "0x75be5318ac006a67b7da490987cb9fe57ac61379fb411b44ad564a2f7f64e2a0",
  "parentHash": "0x88b769c305c8b802089b784f7e4d012af83240f1054556346f5c182e8d4c66ad",
  "number": 112808,
  "timestamp": 1440013617,
  "nonce": "0x4869783746a56ff7",
  "difficulty": 4423754493991,
  "gasLimit": {
    "_hex": "0x2fefd8"
  },
  "gasUsed": {
    "_hex": "0x5208"
  },
  "miner": "0x007f7f58D3eb5b7510A301eCC749FC1fCDDBE14D",
  "extraData": "0x476574682f76312e302e312f77696e646f77732f676f312e342e32",
  "transactions": [
    {
      "hash": "0xfbdf79351937879ff1c85144cf1e76220c35d1043a7154075e75d1553b8dc4ab",
      "blockHash": "0x75be5318ac006a67b7da490987cb9fe57ac61379fb411b44ad564a2f7f64e2a0",
      "blockNumber": 112808,
      "transactionIndex": 0,
      "confirmations": null,
      "from": "0x378fCAEF49580b550cB7164f14811a5E613BD683",
      "gasPrice": {
        "_hex": "0xd0bfc290a"
      },
      "gasLimit": {
        "_hex": "0x5208"
      },
      "to": "0x32Be343B94f860124dC4fEe278FDCBD38C102D88",
      "value": {
        "_hex": "0x6bd18e47840bbc00"
      },
      "nonce": 5,
      "data": "0x",
      "r": "0xdc1d663723651926c9fd6fd2fb19a0a06f849246fff147a635caf7a838ecebbb",
      "s": "0x08ce79fb80dc43cc14d6aca3b0ea161d7a558ea884dbedbc4adba92ff45cbc70",
      "v": 28,
      "creates": null,
      "raw": "0xf86c05850d0bfc290a8252089432be343b94f860124dc4fee278fdcbd38c102d88886bd18e47840bbc00801ca0dc1d663723651926c9fd6fd2fb19a0a06f849246fff147a635caf7a838ecebbba008ce79fb80dc43cc14d6aca3b0ea161d7a558ea884dbedbc4adba92ff45cbc70",
      "networkId": 0,
      "chainId": 0
    }
  ]
}