{
  "hash": "0x95773cef09aca7e4d4c78d9ea71d6ad88e6af3f4a845f06899fea6904e253e8d",
  "parentHash": "0x77f3ac9dc2a4d7270f2f1c2089d93e22b5f7db37ec10a4713f5407cc98691705",
  "number": 52668,
  "timestamp": 1439025389,
  "nonce": "0x1265fe2ec234e708",
  "difficulty": 1567114544171,
  "gasLimit": {
    "_hex": "0x175348"
  },
  "gasUsed": {
    "_hex": "0x16e360"
  },
  "miner": "0xe6A7a1d47ff21B6321162AEA7C6CB457D5476Bca",
  "extraData": "0x657468706f6f6c2e6f7267",
  "transactions": [
    {
      "hash": "0xf77449bd69c8a18c7238fd29b9917677ee4b8b5eec6b3227c1a40c17581da114",
      "blockHash": "0x95773cef09aca7e4d4c78d9ea71d6ad88e6af3f4a845f06899fea6904e253e8d",
      "blockNumber": 52668,
      "transactionIndex": 0,
      "confirmations": null,
      "from": "0x54dAeb3E8a6BBC797E4aD2b0339f134b186e4637",
      "gasPrice": {
        "_hex": "0xe7d27df17"
      },
      "gasLimit": {
        "_hex": "0x7a120"
      },
      "to": "0xBAA54d6E90c3F4d7Ebec11bD180134C7eD8eBb52",
      "value": {
        "_hex": "0x16345785d8a0000"
      },
      "nonce": 886,
      "data": "0x",
      "r": "0x30fa5a04f8da817a8e049e3d7ca1e31a3952808a48588b37bffecebcbae71c00",
      "s": "0x04c38816418211e955f195dd69d03341ce7068abb4ed3d24e3ba147719094f09",
      "v": 28,
      "creates": null,
      "raw": "0xf86f820376850e7d27df178307a12094baa54d6e90c3f4d7ebec11bd180134c7ed8ebb5288016345785d8a0000801ca030fa5a04f8da817a8e049e3d7ca1e31a3952808a48588b37bffecebcbae71c00a004c38816418211e955f195dd69d03341ce7068abb4ed3d24e3ba147719094f09",
      "networkId": 0,
      "chainId": 0
    },
    {
      "hash": "0x256ea70ff4a204d10ea684aeb28060ef6a126cb3d2ab77e51e4a568f733a4719",
      "blockHash": "0x95773cef09aca7e4d4c78d9ea71d6ad88e6af3f4a845f06899fea6904e253e8d",
      "blockNumber": 52668,
      "transactionIndex": 1,
      "confirmations": null,
      "from": "0x54dAeb3E8a6BBC797E4aD2b0339f134b186e4637",
      "gasPrice": {
        "_hex": "0xdf4ba21f9"
      },
      "gasLimit": {
        "_hex": "0x7a120"
      },
      "to": "0xBAA54d6E90c3F4d7Ebec11bD180134C7eD8eBb52",
      "value": {
        "_hex": "0x16345785d8a0000"
      },
      "nonce": 887,
      "data": "0x",
      "r": "0xeee617592b303eec5cfe9eb60b5c3cc6efafd606fba8189fe9ac92fbd4fec816",
      "s": "0x2787152c56ba54b91192a90863da07258138f2bd98b3015ad3da854b1e86bce6",
      "v": 27,
      "creates": null,
      "raw": "0xf86f820377850df4ba21f98307a12094baa54d6e90c3f4d7ebec11bd180134c7ed8ebb5288016345785d8a0000801ba0eee617592b303eec5cfe9eb60b5c3cc6efafd606fba8189fe9ac92fbd4fec816a02787152c56ba54b91192a90863da07258138f2bd98b3015ad3da854b1e86bce6",
      "networkId": 0,
      "chainId": 0
    },
    {
      "hash": "0x30cc3650c86bef605008450e6047668847ab0b31ab1f143481da7b70fa8bd5e1",
      "blockHash": "0x95773cef09aca7e4d4c78d9ea71d6ad88e6af3f4a845f06899fea6904e253e8d",
      "blockNumber": 52668,
      "transactionIndex": 2,
      "confirmations": null,
      "from": "0x54dAeb3E8a6BBC797E4aD2b0339f134b186e4637",
      "gasPrice": {
        "_hex": "0xdada9c769"
      },
      "gasLimit": {
        "_hex": "0x7a120"
      },
      "to": "0xBAA54d6E90c3F4d7Ebec11bD180134C7eD8eBb52",
      "value": {
        "_hex": "0x16345785d8a0000"
      },
      "nonce": 888,
      "data": "0x",
      "r": "0x4d6855974fb729921e860bdbd1da37bc780cc14d79aff9959862fff715e4dc0c",
      "s": "0x56bc446357eb13944b58f2d096fe706460ef5a1d908844ae553d9c27ca7bccc3",
      "v": 27,
      "creates": null,
      "raw": "0xf86f820378850dada9c7698307a12094baa54d6e90c3f4d7ebec11bd180134c7ed8ebb5288016345785d8a0000801ba04d6855974fb729921e860bdbd1da37bc780cc14d79aff9959862fff715e4dc0ca056bc446357eb13944b58f2d096fe706460ef5a1d908844ae553d9c27ca7bccc3",
      "networkId": 0,
      "chainId": 0
    }
  ]
}