{
  "hash": "0xfd0bdba442bbf3afc48db69946664520dcf2a126fc472fac7c51574811b26290",
  "parentHash": "0x6867191de3eef49869e564f1f204e0de7c9d6e5bde242c38db4e8191a14b5dc6",
  "number": 48971,
  "timestamp": 1438965814,
  "nonce": "0x710ec661ea657d8a",
  "difficulty": 1483643652613,
  "gasLimit": {
    "_hex": "0x2241b"
  },
  "gasUsed": {
    "_hex": "0x5208"
  },
  "miner": "0x400fb5A6482E54E44b2250E75251707514c605C1",
  "extraData": "0x476574682f76312e302e312f77696e646f77732f676f312e342e32",
  "transactions": [
    {
      "hash": "0x81305c9c3811884e6a6278cac98dc14c7211b5fa165ce0e2585b32edf114064e",
      "blockHash": "0xfd0bdba442bbf3afc48db69946664520dcf2a126fc472fac7c51574811b26290",
      "blockNumber": 48971,
      "transactionIndex": 0,
      "confirmations": null,
      "from": "0x761E6CaEC189C230A162EC006530193E67cf9D19",
      "gasPrice": {
        "_hex": "0xd084e95de"
      },
      "gasLimit": {
        "_hex": "0x15f90"
      },
      "to": "0x8143a7314E1e89e35885e25C35362acA01b0F1fF",
      "value": {
        "_hex": "0x281d901f4fdd100000"
      },
      "nonce": 3,
      "data": "0x",
      "r": "0xfca75340bbfe6d71884eacc19380905051c1a3d05d3294f70f4f21e4d4446e9c",
      "s": "0x6c5400184014d7433ebe80280843664249527b8c4a8aa57d71b6d84399d77089",
      "v": 27,
      "creates": null,
      "raw": "0xf86e03850d084e95de83015f90948143a7314e1e89e35885e25c35362aca01b0f1ff89281d901f4fdd100000801ba0fca75340bbfe6d71884eacc19380905051c1a3d05d3294f70f4f21e4d4446e9ca06c5400184014d7433ebe80280843664249527b8c4a8aa57d71b6d84399d77089",
      "networkId": 0,
      "chainId": 0
    }
  ]
}