{
  "hash": "0xebb083d56f41c2ff45172410f330029a7aba2926b8b325b5a71025b2bd53d992",
  "parentHash": "0xe6e674697b2b7b6c098e425178363d2a2d84344c049bb47f655b88d32813c653",
  "number": 48318,
  "timestamp": 1438955374,
  "nonce": "0x4fb56bed04c78c50",
  "difficulty": 1452930771035,
  "gasLimit": {
    "_hex": "0x156ee"
  },
  "gasUsed": {
    "_hex": "0x546c"
  },
  "miner": "0x0037ce3d4B7f8729C8607D8D0248252Be68202c0",
  "extraData": "0x476574682f76312e302e312f77696e646f77732f676f312e342e32",
  "transactions": [
    {
      "hash": "0xd4252d326e404dc72816f993ea48555e9d9f740d493b29d07a97d86f00726634",
      "blockHash": "0xebb083d56f41c2ff45172410f330029a7aba2926b8b325b5a71025b2bd53d992",
      "blockNumber": 48318,
      "transactionIndex": 0,
      "confirmations": null,
      "from": "0x49DC75D11428d1D718FC7b71941B71ae6F8bfA3C",
      "gasPrice": {
        "_hex": "0xf18a8b44c"
      },
      "gasLimit": {
        "_hex": "0x61a8"
      },
      "to": "0x2910543Af39abA0Cd09dBb2D50200b3E800A63D2",
      "value": {
        "_hex": "0x270801d946c940000"
      },
      "nonce": 1,
      "data": "0x454e4d503243575047",
      "r": "0x4107fd4dd37e003c981377e336517d4bf5176b05346ef0f2eb1d204d1d93b8ad",
      "s": "0x27101d198e10b8dad3b966f4dd6274ef218d464a59bc85f17edf3bff3fada4ce",
      "v": 28,
      "creates": null,
      "raw": "0xf87601850f18a8b44c8261a8942910543af39aba0cd09dbb2d50200b3e800a63d2890270801d946c94000089454e4d5032435750471ca04107fd4dd37e003c981377e336517d4bf5176b05346ef0f2eb1d204d1d93b8ada027101d198e10b8dad3b966f4dd6274ef218d464a59bc85f17edf3bff3fada4ce",
      "networkId": 0,
      "chainId": 0
    }
  ]
}