{
  "hash": "0x19e173295a57f5d38694b472636c109325fea48815a3bc77b8e1a1c90a8af31f",
  "parentHash": "0x4c56dd943975c040e6b64fbdf479ceb228205d39d0bdd6ac5d4ad46094edbe27",
  "number": 54534,
  "timestamp": 1439055577,
  "nonce": "0xfc98b6984e1a3aaa",
  "difficulty": 1622827286502,
  "gasLimit": {
    "_hex": "0x2fefd8"
  },
  "gasUsed": {
    "_hex": "0x546c"
  },
  "miner": "0xbb7B8287f3F0a933474a79eAe42CBCa977791171",
  "extraData": "0x476574682f4c5649562f76312e302e312f6c696e75782f676f312e342e32",
  "transactions": [
    {
      "hash": "0x45d72713affe3244e1617e70aaf0adf4af10120b556bc655c315a159a14e904e",
      "blockHash": "0x19e173295a57f5d38694b472636c109325fea48815a3bc77b8e1a1c90a8af31f",
      "blockNumber": 54534,
      "transactionIndex": 0,
      "confirmations": null,
      "from": "0x96DaFd83DdFF7f4eC60d91e8bf1A1FA845bcF680",
      "gasPrice": {
        "_hex": "0x9184e72a000"
      },
      "gasLimit": {
        "_hex": "0x9965e"
      },
      "to": "0x2910543Af39abA0Cd09dBb2D50200b3E800A63D2",
      "value": {
        "_hex": "0x1ab9bfd7f95b940000"
      },
      "nonce": 0,
      "data": "0x454e574543355a4452",
      "r": "0x43ea90325f3470fe1e2528c3a7ac2630af85b75d3eabd68565117ed863e4b374",
      "s": "0x851dc882e52012bdaf4a2636c4e9c7ad1c6727c503b0d683a19a34841381cf97",
      "v": 27,
      "creates": null,
      "raw": "0xf878808609184e72a0008309965e942910543af39aba0cd09dbb2d50200b3e800a63d2891ab9bfd7f95b94000089454e574543355a44521ba043ea90325f3470fe1e2528c3a7ac2630af85b75d3eabd68565117ed863e4b374a0851dc882e52012bdaf4a2636c4e9c7ad1c6727c503b0d683a19a34841381cf97",
      "networkId": 0,
      "chainId": 0
    }
  ]
}