{
  "hash": "0x4f0da023b3dcac7f47b0939746a93ee29db271040a421a3ae46cb713d9faf5d0",
  "parentHash": "0x1ea0bc993f18b7d082b768d9d99b49862c8153972b4f66178ba9fa53565464bd",
  "number": 87698,
  "timestamp": 1439596161,
  "nonce": "0xe38fd6bccd205c4a",
  "difficulty": 3152466656963,
  "gasLimit": {
    "_hex": "0x2fefd8"
  },
  "gasUsed": {
    "_hex": "0xa410"
  },
  "miner": "0xeB1325C8D9d3ea8D74aC11F4B00F1B2367686319",
  "extraData": "0x476574682f76312e302e312f77696e646f77732f676f312e342e32",
  "transactions": [
    {
      "hash": "0xc788e09c55c219c4f10a49e0e16e525b9bc83a9a8d204aa4967b0b151c9d54b9",
      "blockHash": "0x4f0da023b3dcac7f47b0939746a93ee29db271040a421a3ae46cb713d9faf5d0",
      "blockNumber": 87698,
      "transactionIndex": 0,
      "confirmations": null,
      "from": "0x32Be343B94f860124dC4fEe278FDCBD38C102D88",
      "gasPrice": {
        "_hex": "0xdac6aca58"
      },
      "gasLimit": {
        "_hex": "0x5208"
      },
      "to": "0xCD8C2959c5781245a5DcD72CFfAb01004d804Aa7",
      "value": {
        "_hex": "0x49e3fada4df870000"
      },
      "nonce": 795,
      "data": "0x",
      "r": "0x346e4826980ef6a3c6da2b1c63e0d70b4444131a3e0d6e771a2fee1243118128",
      "s": "0x777765403f47ae3938ddd40e4f53617bf100bb0021e25d983dffc76f82eb3da6",
      "v": 28,
      "creates": null,
      "raw": "0xf86f82031b850dac6aca5882520894cd8c2959c5781245a5dcd72cffab01004d804aa789049e3fada4df870000801ca0346e4826980ef6a3c6da2b1c63e0d70b4444131a3e0d6e771a2fee1243118128a0777765403f47ae3938ddd40e4f53617bf100bb0021e25d983dffc76f82eb3da6",
      "networkId": 0,
      "chainId": 0
    },
    {
      "hash": "0x291bb71450e3378e6adf7cafc14a0b5ac32237d77d51f2977ce4ae85c9e5d024",
      "blockHash": "0x4f0da023b3dcac7f47b0939746a93ee29db271040a421a3ae46cb713d9faf5d0",
      "blockNumber": 87698,
      "transactionIndex": 1,
      "confirmations": null,
      "from": "0x32Be343B94f860124dC4fEe278FDCBD38C102D88",
      "gasPrice": {
        "_hex": "0xdac6aca58"
      },
      "gasLimit": {
        "_hex": "0x5208"
      },
      "to": "0x566B3E44014f2a2587e054AdFA915861AE82Fe39",
      "value": {
        "_hex": "0x39e3c06bdce156000"
      },
      "nonce": 796,
      "data": "0x",
      "r": "0x7ba955fafe372bbae53d7ebaaf82b8952c23485b5b406e7df64585dc02c14396",
      "s": "0x6e2dd73b61dc534dc002b944b2c6f0411e70697da74a00f509f4361cd5ffcd8c",
      "v": 28,
      "creates": null,
      "raw": "0xf86f82031c850dac6aca5882520894566b3e44014f2a2587e054adfa915861ae82fe3989039e3c06bdce156000801ca07ba955fafe372bbae53d7ebaaf82b8952c23485b5b406e7df64585dc02c14396a06e2dd73b61dc534dc002b944b2c6f0411e70697da74a00f509f4361cd5ffcd8c",
      "networkId": 0,
      "chainId": 0
    }
  ]
}