{
  "hash": "0xcd69e7d6c894122c13fa5c6141293499bebc92b2b187db98cf6e6cea1834fb16",
  "parentHash": "0x8134f1aca95bb3742d883f2fdb5cd1a752bd0079da8e52d758cbc26e6fad493c",
  "number": 115111,
  "timestamp": 1440051602,
  "nonce": "0xb1adbd99636084e8",
  "difficulty": 4534054513373,
  "gasLimit": {
    "_hex": "0x2fefd8"
  },
  "gasUsed": {
    "_hex": "0x5208"
  },
  "miner": "0xe6A7a1d47ff21B6321162AEA7C6CB457D5476Bca",
  "extraData": "0x476574682f76312e302e312d38326566323666362f6c696e75782f676f312e34",
  "transactions": [
    {
      "hash": "0x62c57bd37964f4d0c037221f5aab712523d28008fffa4ff62f945d1496833577",
      "blockHash": "0xcd69e7d6c894122c13fa5c6141293499bebc92b2b187db98cf6e6cea1834fb16",
      "blockNumber": 115111,
      "transactionIndex": 0,
      "confirmations": null,
      "from": "0x3f07B008B04EE61858d0ec3f88239941889e1A79",
      "gasPrice": {
        "_hex": "0xcec00b13f"
      },
      "gasLimit": {
        "_hex": "0x15f90"
      },
      "to": "0x0Ab4e6aDb862b5F5E711E079d93B247b62aFB62A",
      "value": {
        "_hex": "0x8fe76550a00"
      },
      "nonce": 0,
      "data": "0x",
      "r": "0x323f056adb3c265a15d62ebe45d306314bc7ea5f09851c474db02cc0912b0546",
      "s": "0x260bf1a5b56187a4975fac015d34cb40728d7f71cd06f0e2fcc6e2ddabd65c01",
      "v": 28,
      "creates": null,
      "raw": "0xf86b80850cec00b13f83015f90940ab4e6adb862b5f5e711e079d93b247b62afb62a8608fe76550a00801ca0323f056adb3c265a15d62ebe45d306314bc7ea5f09851c474db02cc0912b0546a0260bf1a5b56187a4975fac015d34cb40728d7f71cd06f0e2fcc6e2ddabd65c01",
      "networkId": 0,
      "chainId": 0
    }
  ]
}