{
  "hash": "0x8cab3794236fe46bdde0310fc2a9ffcf2276507a31b2d93701df19c053c1ebaf",
  "parentHash": "0xa50f5cc64f853701684d4027942c959255ca5c9db18963f931d412e83be7acb9",
  "number": 110542,
  "timestamp": 1439975419,
  "nonce": "0x7c32a8f41ad4d103",
  "difficulty": 4386228883438,
  "gasLimit": {
    "_hex": "0x2fefd8"
  },
  "gasUsed": {
    "_hex": "0x5208"
  },
  "miner": "0x76CB306530455abB4341FC10608d5FD869389acf",
  "extraData": "0xd983010001844765746887676f312e342e328777696e646f7773",
  "transactions": [
    {
      "hash": "0xa16330c4e6905742b0c0fa11d67ec29a9abca91da6acfdaf15921c5b05b276fc",
      "blockHash": "0x8cab3794236fe46bdde0310fc2a9ffcf2276507a31b2d93701df19c053c1ebaf",
      "blockNumber": 110542,
      "transactionIndex": 0,
      "confirmations": null,
      "from": "0x97A2b04809Fd7Dfa5C1d7B25e38Aad46964330F5",
      "gasPrice": {
        "_hex": "0xba43b7400"
      },
      "gasLimit": {
        "_hex": "0x15f90"
      },
      "to": "0xff8f61dC709E5782Dee998189520cb544177BB65",
      "value": {
        "_hex": "0x38d7ea4c68000"
      },
      "nonce": 2,
      "data": "0x",
      "r": "0x6601e80d2e8c3673448cca924a71a108529573c88a8f1c151cd1c5ae2270a8bd",
      "s": "0x7288cd502d9811a9738657bfde0b61b954cb44ba384eaf8337acc8037820f22d",
      "v": 28,
      "creates": null,
      "raw": "0xf86c02850ba43b740083015f9094ff8f61dc709e5782dee998189520cb544177bb6587038d7ea4c68000801ca06601e80d2e8c3673448cca924a71a108529573c88a8f1c151cd1c5ae2270a8bda07288cd502d9811a9738657bfde0b61b954cb44ba384eaf8337acc8037820f22d",
      "networkId": 0,
      "chainId": 0
    }
  ]
}