{
  "hash": "0xe02b2bc1f75bfb50df34ef930c4a6c76e62c1a48ae4464c3701a17c0ae2a7dea",
  "parentHash": "0xc9898d66cb24b42ae170f35ed874bfd398e513fcdf91f98db155e7ea0c5c9bfe",
  "number": 84879,
  "timestamp": 1439555752,
  "nonce": "0x98c215eea718714f",
  "difficulty": 2662026449750,
  "gasLimit": {
    "_hex": "0x2fefd8"
  },
  "gasUsed": {
    "_hex": "0x5208"
  },
  "miner": "0x007f7f58D3eb5b7510A301eCC749FC1fCDDBE14D",
  "extraData": "0x476574682f76312e302e312f77696e646f77732f676f312e342e32",
  "transactions": [
    {
      "hash": "0xf63b80342a676ddb386d4c37868a02f8a72e0b06ff8c28e7fd5340a3a4f84fcd",
      "blockHash": "0xe02b2bc1f75bfb50df34ef930c4a6c76e62c1a48ae4464c3701a17c0ae2a7dea",
      "blockNumber": 84879,
      "transactionIndex": 0,
      "confirmations": null,
      "from": "0x4E9f76CBc24805BF1Db0fb2113B3FAb42F9879Df",
      "gasPrice": {
        "_hex": "0xba43b7400"
      },
      "gasLimit": {
        "_hex": "0x5b04"
      },
      "to": "0x9f78552704fe7e52cC7C3853534aA2C3cf580D54",
      "value": {
        "_hex": "0x4563918244f40000"
      },
      "nonce": 2,
      "data": "0x",
      "r": "0xc524c85b9707cbe7bf0f8c71d81f1e02cc72115bdfd29ef9e01f1f3b549a9b9d",
      "s": "0x773febf93af53eb99d194f6aaabbed5bb18b3f7c06819d90c757c54b07099abb",
      "v": 27,
      "creates": null,
      "raw": "0xf86c02850ba43b7400825b04949f78552704fe7e52cc7c3853534aa2c3cf580d54884563918244f40000801ba0c524c85b9707cbe7bf0f8c71d81f1e02cc72115bdfd29ef9e01f1f3b549a9b9da0773febf93af53eb99d194f6aaabbed5bb18b3f7c06819d90c757c54b07099abb",
      "networkId": 0,
      "chainId": 0
    }
  ]
}