{
  "hash": "0x0be1f564ff43d069471c9a612b9e8e9d2952eb74349124022f253fd09a1f5fa2",
  "parentHash": "0x836d2c387dbc9041ee1a8b26d10da808c5e50f41e8a93f5b9fa2b07e3a475ba7",
  "number": 117615,
  "timestamp": 1440112629,
  "nonce": "0x8e7d51ca29dab702",
  "difficulty": 4316694495474,
  "gasLimit": {
    "_hex": "0x2fefd8"
  },
  "gasUsed": {
    "_hex": "0xa410"
  },
  "miner": "0xe6A7a1d47ff21B6321162AEA7C6CB457D5476Bca",
  "extraData": "0xd783010002844765746887676f312e342e32856c696e7578",
  "transactions": [
    {
      "hash": "0x0b96d020351c37c91bd3db644fcd597f8c21e81692f707e80c1795d70e5052c6",
      "blockHash": "0x0be1f564ff43d069471c9a612b9e8e9d2952eb74349124022f253fd09a1f5fa2",
      "blockNumber": 117615,
      "transactionIndex": 0,
      "confirmations": null,
      "from": "0xFBb1b73C4f0BDa4f67dcA266ce6Ef42f520fBB98",
      "gasPrice": {
        "_hex": "0xba43b7400"
      },
      "gasLimit": {
        "_hex": "0x5208"
      },
      "to": "0x1Fabd401B08dF84f615091C14C6db1a5E0BeaD0c",
      "value": {
        "_hex": "0x19de40a5db8a00c00"
      },
      "nonce": 233,
      "data": "0x",
      "r": "0xb7e3b1c337a69118a2ad95a95f7206eb0a58d47ef976f6fe0c30a3de4720b5bf",
      "s": "0x27fc61c862238f898b1e75424a1941b05da2208b2ce1ee9dbdaf2c2c15a205e6",
      "v": 28,
      "creates": null,
      "raw": "0xf86e81e9850ba43b7400825208941fabd401b08df84f615091c14c6db1a5e0bead0c89019de40a5db8a00c00801ca0b7e3b1c337a69118a2ad95a95f7206eb0a58d47ef976f6fe0c30a3de4720b5bfa027fc61c862238f898b1e75424a1941b05da2208b2ce1ee9dbdaf2c2c15a205e6",
      "networkId": 0,
      "chainId": 0
    },
    {
      "hash": "0x1e971491a9df938b6d34b28af723bccbecc865418b64c4ee8d3c2aa47282f6f3",
      "blockHash": "0x0be1f564ff43d069471c9a612b9e8e9d2952eb74349124022f253fd09a1f5fa2",
      "blockNumber": 117615,
      "transactionIndex": 1,
      "confirmations": null,
      "from": "0xd9c4a7022Acb3543826B6C1667FAd470f65f262E",
      "gasPrice": {
        "_hex": "0xba43b7400"
      },
      "gasLimit": {
        "_hex": "0x5208"
      },
      "to": "0xFBb1b73C4f0BDa4f67dcA266ce6Ef42f520fBB98",
      "value": {
        "_hex": "0x8d5fed5f22fc7e000"
      },
      "nonce": 3,
      "data": "0x",
      "r": "0x497b36e3cce8f66eb7a025cd55191afee7ed23ae371b7108a50d92a8be5cec80",
      "s": "0x1909ca9a94bdf79e02863bce7f4869c814f37b9c534a43203c47abf221c0546d",
      "v": 28,
      "creates": null,
      "raw": "0xf86d03850ba43b740082520894fbb1b73c4f0bda4f67dca266ce6ef42f520fbb988908d5fed5f22fc7e000801ca0497b36e3cce8f66eb7a025cd55191afee7ed23ae371b7108a50d92a8be5cec80a01909ca9a94bdf79e02863bce7f4869c814f37b9c534a43203c47abf221c0546d",
      "networkId": 0,
      "chainId": 0
    }
  ]
}