{
  "hash": "0xbaaefe8a243cea74ddf6a46e1596f17fe49f94a16c313201fc866d2902cd6993",
  "parentHash": "0x250971b5667f75e9213373b80ec86bec46cf49b16c6c00451a4b2ca31396759f",
  "number": 101379,
  "timestamp": 1439822143,
  "nonce": "0xa310caf09619cd20",
  "difficulty": 3820578997702,
  "gasLimit": {
    "_hex": "0x2fefd8"
  },
  "gasUsed": {
    "_hex": "0x5208"
  },
  "miner": "0xe6A7a1d47ff21B6321162AEA7C6CB457D5476Bca",
  "extraData": "0x476574682f76312e302e312d38326566323666362f6c696e75782f676f312e34",
  "transactions": [
    {
      "hash": "0xa9ffd69df3cbddcfa281c14df39d6727cf73fdbfd8168d6fe8527127c067018c",
      "blockHash": "0xbaaefe8a243cea74ddf6a46e1596f17fe49f94a16c313201fc866d2902cd6993",
      "blockNumber": 101379,
      "transactionIndex": 0,
      "confirmations": null,
      "from": "0x13258A1Aa418C990ce59616C26338A44899d854c",
      "gasPrice": {
        "_hex": "0xd4467e50c"
      },
      "gasLimit": {
        "_hex": "0x5208"
      },
      "to": "0x32Be343B94f860124dC4fEe278FDCBD38C102D88",
      "value": {
        "_hex": "0xdf01738736189000"
      },
      "nonce": 3,
      "data": "0x",
      "r": "0xae4af56a6334333bbdfd335278f65751efc4f993c6ab2260b3a0a0f488da5520",
      "s": "0x316e35e3571b51862094e7121b8f59e883c3c32889a8712fe29d3055868c580a",
      "v": 27,
      "creates": null,
      "raw": "0xf86c03850d4467e50c8252089432be343b94f860124dc4fee278fdcbd38c102d8888df01738736189000801ba0ae4af56a6334333bbdfd335278f65751efc4f993c6ab2260b3a0a0f488da5520a0316e35e3571b51862094e7121b8f59e883c3c32889a8712fe29d3055868c580a",
      "networkId": 0,
      "chainId": 0
    }
  ]
}