{
  "hash": "0xec060a2f153fa23324a90f777be4c56d19c7070c50cee72f7c736a1d92130ece",
  "parentHash": "0xd47e76150ff09d0bf2d451cbd0a440a7dcc5421aff4056b62f253696471ad9ca",
  "number": 92219,
  "timestamp": 1439668791,
  "nonce": "0x34886863d5ecf131",
  "difficulty": 3468900485243,
  "gasLimit": {
    "_hex": "0x2fefd8"
  },
  "gasUsed": {
    "_hex": "0xa410"
  },
  "miner": "0xe6A7a1d47ff21B6321162AEA7C6CB457D5476Bca",
  "extraData": "0x476574682f76312e302e312d38326566323666362f6c696e75782f676f312e34",
  "transactions": [
    {
      "hash": "0x000380e53a66e9241aa6e5551958f53bd94958ae8a80d414ef6dc79a939f4445",
      "blockHash": "0xec060a2f153fa23324a90f777be4c56d19c7070c50cee72f7c736a1d92130ece",
      "blockNumber": 92219,
      "transactionIndex": 0,
      "confirmations": null,
      "from": "0x0EB0AcFB7C81a83296b8C023673f362e8FCd88bD",
      "gasPrice": {
        "_hex": "0xd2d794fee"
      },
      "gasLimit": {
        "_hex": "0x5208"
      },
      "to": "0x32Be343B94f860124dC4fEe278FDCBD38C102D88",
      "value": {
        "_hex": "0x6ad7ac3945f5c400"
      },
      "nonce": 4,
      "data": "0x",
      "r": "0x03b74c8b15153cebe4c1fe769724dd8de6f6d49a0401b71b27e97c28602b02ee",
      "s": "0x1497445d1f218d49c449279e137a016f3a376ae014344e7b540632ad1d268a37",
      "v": 28,
      "creates": null,
      "raw": "0xf86c04850d2d794fee8252089432be343b94f860124dc4fee278fdcbd38c102d88886ad7ac3945f5c400801ca003b74c8b15153cebe4c1fe769724dd8de6f6d49a0401b71b27e97c28602b02eea01497445d1f218d49c449279e137a016f3a376ae014344e7b540632ad1d268a37",
      "networkId": 0,
      "chainId": 0
    },
    {
      "hash": "0xe2f44b2c966b425e9dff97bba82a2075c842d5530efd4ed31800e46982642d1e",
      "blockHash": "0xec060a2f153fa23324a90f777be4c56d19c7070c50cee72f7c736a1d92130ece",
      "blockNumber": 92219,
      "transactionIndex": 1,
      "confirmations": null,
      "from": "0xD5bf64B3B17Fb895536953EfE17578a8b7b16880",
      "gasPrice": {
        "_hex": "0xd2d794fee"
      },
      "gasLimit": {
        "_hex": "0x5208"
      },
      "to": "0x32Be343B94f860124dC4fEe278FDCBD38C102D88",
      "value": {
        "_hex": "0x2b5df761bd4fbc000"
      },
      "nonce": 1,
      "data": "0x",
      "r": "0x113fdff7422c004aad55b6baa36eba29eb3ea16cda9ca6bd74900d7c8f74bf7e",
      "s": "0x386c599280c9242be670b0a85b7b9bf21e5e0ceeca722882efa263990c8a0704",
      "v": 27,
      "creates": null,
      "raw": "0xf86d01850d2d794fee8252089432be343b94f860124dc4fee278fdcbd38c102d888902b5df761bd4fbc000801ba0113fdff7422c004aad55b6baa36eba29eb3ea16cda9ca6bd74900d7c8f74bf7ea0386c599280c9242be670b0a85b7b9bf21e5e0ceeca722882efa263990c8a0704",
      "networkId": 0,
      "chainId": 0
    }
  ]
}