{
  "hash": "0x1792c22153ed8c41f3255c1f44f9be260aaa186d233090457d387364994d5a9e",
  "parentHash": "0x74b67936e5bcb74eb25e39366c75c8516499e72a66c1d4a01d3393b74f20a543",
  "number": 121558,
  "timestamp": 1440178831,
  "nonce": "0xa4ff72ca33f88d57",
  "difficulty": 4453802331119,
  "gasLimit": {
    "_hex": "0x2fefd8"
  },
  "gasUsed": {
    "_hex": "0x5208"
  },
  "miner": "0xe6A7a1d47ff21B6321162AEA7C6CB457D5476Bca",
  "extraData": "0xd783010002844765746887676f312e342e32856c696e7578",
  "transactions": [
    {
      "hash": "0xa2e1e1cd03cbcb31a9c395d89c5554e7ef5482485ee96521e50d19f2c7ae9f62",
      "blockHash": "0x1792c22153ed8c41f3255c1f44f9be260aaa186d233090457d387364994d5a9e",
      "blockNumber": 121558,
      "transactionIndex": 0,
      "confirmations": null,
      "from": "0x32Be343B94f860124dC4fEe278FDCBD38C102D88",
      "gasPrice": {
        "_hex": "0xba43b7400"
      },
      "gasLimit": {
        "_hex": "0x5208"
      },
      "to": "0x1A45221Bb8D9c78D59bf1De0B3a361F5da3f965E",
      "value": {
        "_hex": "0x1b9de674df070000"
      },
      "nonce": 1560,
      "data": "0x",
      "r": "0xf6c45d76331fc89ec54e41f33a7b2f1faa7959e24db1c847db6deeeb5cce8dbc",
      "s": "0x2b7962655f0cbd203dabe1f697aa362a3a78ad464f50a39d16919514e83643ee",
      "v": 27,
      "creates": null,
      "raw": "0xf86e820618850ba43b7400825208941a45221bb8d9c78d59bf1de0b3a361f5da3f965e881b9de674df070000801ba0f6c45d76331fc89ec54e41f33a7b2f1faa7959e24db1c847db6deeeb5cce8dbca02b7962655f0cbd203dabe1f697aa362a3a78ad464f50a39d16919514e83643ee",
      "networkId": 0,
      "chainId": 0
    }
  ]
}