{
  "hash": "0x58ce73cca8899f7a0ec805dcce647f5486a0de955b833639d37b21cdaab60e34",
  "parentHash": "0x1a14b8d7e89d1a355a3ba8d3920b40cdf8c3309421e48694df574fd1d43de52a",
  "number": 66395,
  "timestamp": 1439253880,
  "nonce": "0x791216594cca6345",
  "difficulty": 1942368846647,
  "gasLimit": {
    "_hex": "0x2fefd8"
  },
  "gasUsed": {
    "_hex": "0x546c"
  },
  "miner": "0xbb7B8287f3F0a933474a79eAe42CBCa977791171",
  "extraData": "0x476574682f4c5649562f76312e302e312f6c696e75782f676f312e342e32",
  "transactions": [
    {
      "hash": "0x40dd3e7eccdf347386faadd78ac5ff7562b6ad1c99b7077d8e15f5a731a15573",
      "blockHash": "0x58ce73cca8899f7a0ec805dcce647f5486a0de955b833639d37b21cdaab60e34",
      "blockNumber": 66395,
      "transactionIndex": 0,
      "confirmations": null,
      "from": "0xea686c5057093C171c66dB99e01B0eCecB308683",
      "gasPrice": {
        "_hex": "0x110c8f7d8de"
      },
      "gasLimit": {
        "_hex": "0xc350"
      },
      "to": "0x2910543Af39abA0Cd09dBb2D50200b3E800A63D2",
      "value": {
        "_hex": "0x14db7a9681d38b0000"
      },
      "nonce": 0,
      "data": "0x454e484d3852393747",
      "r": "0xdfcfeb9d75f147e4f3a8cfeccdc246fd1f08345c97e2a85e1ab5cee41cfa44df",
      "s": "0x97274de14e5f0aefe03154dabf30678d382d76eabdc6890a8d2dc74a4d88e603",
      "v": 28,
      "creates": null,
      "raw": "0xf87780860110c8f7d8de82c350942910543af39aba0cd09dbb2d50200b3e800a63d28914db7a9681d38b000089454e484d38523937471ca0dfcfeb9d75f147e4f3a8cfeccdc246fd1f08345c97e2a85e1ab5cee41cfa44dfa097274de14e5f0aefe03154dabf30678d382d76eabdc6890a8d2dc74a4d88e603",
      "networkId": 0,
      "chainId": 0
    }
  ]
}