{
  "hash": "0x2dd0c1a3ffbad77928e1dbedf5cfa7644f2ac1a5ceb8594ce4242e1229a8792a",
  "parentHash": "0x6966509cae8c3ebbe5271f16c87a6fa4f584f34dc66704caf9d812888ab4d53a",
  "number": 65114,
  "timestamp": 1439231625,
  "nonce": "0x310fb66fd3ed9259",
  "difficulty": 1924726049771,
  "gasLimit": {
    "_hex": "0x2fefd8"
  },
  "gasUsed": {
    "_hex": "0x17cd8"
  },
  "miner": "0xe6A7a1d47ff21B6321162AEA7C6CB457D5476Bca",
  "extraData": "0x476574682f76312e302e312f6c696e75782f676f312e342e32",
  "transactions": [
    {
      "hash": "0x4ae7bf6f72d3546cb267236969934147b3403bc7c78c247b888ad99b59f73185",
      "blockHash": "0x2dd0c1a3ffbad77928e1dbedf5cfa7644f2ac1a5ceb8594ce4242e1229a8792a",
      "blockNumber": 65114,
      "transactionIndex": 0,
      "confirmations": null,
      "from": "0xD57B6d42B9759FBb58f8420Ac79aDD1e67e727D8",
      "gasPrice": {
        "_hex": "0xba43b7400"
      },
      "gasLimit": {
        "_hex": "0x15f90"
      },
      "to": "0x793AE8C1b1a160BFc07BFB0d04F85eab1A71F4f2",
      "value": {
        "_hex": "0x0"
      },
      "nonce": 0,
      "data": "0x3ba15036",
      "r": "0xa2aeaf4bd37f7fa1f0a35236bb6f5d8eefc9d6333e8bc02612870ea3b2904915",
      "s": "0x1aeda39cdaf29a70f2b1757d05978252478f3828833ce934b19b2e2c7e511c33",
      "v": 28,
      "creates": null,
      "raw": "0xf86980850ba43b740083015f9094793ae8c1b1a160bfc07bfb0d04f85eab1a71f4f280843ba150361ca0a2aeaf4bd37f7fa1f0a35236bb6f5d8eefc9d6333e8bc02612870ea3b2904915a01aeda39cdaf29a70f2b1757d05978252478f3828833ce934b19b2e2c7e511c33",
      "networkId": 0,
      "chainId": 0
    },
    {
      "hash": "0xc3427fae9e5c89c51d667a8a5b2bf66ab0edde4e02f448bdba411666ff7ee327",
      "blockHash": "0x2dd0c1a3ffbad77928e1dbedf5cfa7644f2ac1a5ceb8594ce4242e1229a8792a",
      "blockNumber": 65114,
      "transactionIndex": 1,
      "confirmations": null,
      "from": "0x3056B55a2ab0bd91Bbf857F21b71e2Bd35571644",
      "gasPrice": {
        "_hex": "0xba43b7400"
      },
      "gasLimit": {
        "_hex": "0x15f90"
      },
      "to": "0x793AE8C1b1a160BFc07BFB0d04F85eab1A71F4f2",
      "value": {
        "_hex": "0x0"
      },
      "nonce": 0,
      "data": "0x3ba15036",
      "r": "0xda45017618ef8cfe295bd0b90563c57716c196027ef91c18557e1ab90067597c",
      "s": "0x450c9f7a251864cff78b2b98734a4d810fb3a964bc84d1008eecbe331ceb6e69",
      "v": 28,
      "creates": null,
      "raw": "0xf86980850ba43b740083015f9094793ae8c1b1a160bfc07bfb0d04f85eab1a71f4f280843ba150361ca0da45017618ef8cfe295bd0b90563c57716c196027ef91c18557e1ab90067597ca0450c9f7a251864cff78b2b98734a4d810fb3a964bc84d1008eecbe331ceb6e69",
      "networkId": 0,
      "chainId": 0
    }
  ]
}