{
  "hash": "0x06ba5fdcc54ecdaffd895b27764c3b611f17b6721af7c84ecbf9cab88edd656e",
  "parentHash": "0xca0aa254c128217ad77a2a821ff4e56c675e5c42b9c6476da2914239fb403955",
  "number": 116287,
  "timestamp": 1440071562,
  "nonce": "0xc66f9018df3f859e",
  "difficulty": 4591338981427,
  "gasLimit": {
    "_hex": "0x2fefd8"
  },
  "gasUsed": {
    "_hex": "0x5208"
  },
  "miner": "0xe6A7a1d47ff21B6321162AEA7C6CB457D5476Bca",
  "extraData": "0x476574682f76312e302e312d38326566323666362f6c696e75782f676f312e34",
  "transactions": [
    {
      "hash": "0x1d94c0f97e5b670ae27ad2182373b0bfe64cdc8499949fbc29576bb31e9aac31",
      "blockHash": "0x06ba5fdcc54ecdaffd895b27764c3b611f17b6721af7c84ecbf9cab88edd656e",
      "blockNumber": 116287,
      "transactionIndex": 0,
      "confirmations": null,
      "from": "0x48659D8f8C9A2FD44F68daA55d23A608FBE500DC",
      "gasPrice": {
        "_hex": "0xd7d40ace3"
      },
      "gasLimit": {
        "_hex": "0x15f90"
      },
      "to": "0xBB33a4b72d92FA335a3b591Ce7eE217f7a7338C1",
      "value": {
        "_hex": "0xf9ccd8a1c5080000"
      },
      "nonce": 11,
      "data": "0x",
      "r": "0x4d8d7c71bba1920d71587c602e68712aaf01e03fe455debaba0844586fa21abb",
      "s": "0x5e0a480dd17fc08c93d5ac1b8dfea2616a34a6188851cddc70054998d74687b5",
      "v": 27,
      "creates": null,
      "raw": "0xf86d0b850d7d40ace383015f9094bb33a4b72d92fa335a3b591ce7ee217f7a7338c188f9ccd8a1c5080000801ba04d8d7c71bba1920d71587c602e68712aaf01e03fe455debaba0844586fa21abba05e0a480dd17fc08c93d5ac1b8dfea2616a34a6188851cddc70054998d74687b5",
      "networkId": 0,
      "chainId": 0
    }
  ]
}