{
  "hash": "0xb40cfe26407188bbd9bf71fa02b392287a7c7a01f3b685079a875f9239e780d9",
  "parentHash": "0x55204bb50d2e409e73ed3c500a1f1b104a3c75407be6b11ccb95355256f1efce",
  "number": 111559,
  "timestamp": 1439992350,
  "nonce": "0x2f68061b37a7bc62",
  "difficulty": 4435228193959,
  "gasLimit": {
    "_hex": "0x2fefd8"
  },
  "gasUsed": {
    "_hex": "0xf618"
  },
  "miner": "0x580992B51e3925e23280EfB93d3047C82f17E038",
  "extraData": "0x476574682f76312e302e312f6c696e75782f676f312e342e32",
  "transactions": [
    {
      "hash": "0x219a223136dcea59b6cd495931efd5671877c9581a6b64c4ef199339e924b3b6",
      "blockHash": "0xb40cfe26407188bbd9bf71fa02b392287a7c7a01f3b685079a875f9239e780d9",
      "blockNumber": 111559,
      "transactionIndex": 0,
      "confirmations": null,
      "from": "0x28E5cD7FF6bD8398699Ea469F2580f772c7976f2",
      "gasPrice": {
        "_hex": "0x9184e72a000"
      },
      "gasLimit": {
        "_hex": "0x5208"
      },
      "to": "0x42E6723A0c884E922240e56D7B618BeC96F35800",
      "value": {
        "_hex": "0x1043561a8829300000"
      },
      "nonce": 0,
      "data": "0x",
      "r": "0xad0f97ec832b50da280536e05eb3b31e21962ccbb376f9169d39c96698683088",
      "s": "0x42d73d03adf8cd6210dd53d506fd545829bbc6e33d09d4c423eb244f6b20c777",
      "v": 28,
      "creates": null,
      "raw": "0xf86e808609184e72a0008252089442e6723a0c884e922240e56d7b618bec96f35800891043561a8829300000801ca0ad0f97ec832b50da280536e05eb3b31e21962ccbb376f9169d39c96698683088a042d73d03adf8cd6210dd53d506fd545829bbc6e33d09d4c423eb244f6b20c777",
      "networkId": 0,
      "chainId": 0
    },
    {
      "hash": "0x3bea232844ab366cd05bef5f2f35d63091dc26df9745d44dbf213bd07c110fdd",
      "blockHash": "0xb40cfe26407188bbd9bf71fa02b392287a7c7a01f3b685079a875f9239e780d9",
      "blockNumber": 111559,
      "transactionIndex": 1,
      "confirmations": null,
      "from": "0x120A270bbC009644e35F0bB6ab13f95b8199c4ad",
      "gasPrice": {
        "_hex": "0xddf3a1d16"
      },
      "gasLimit": {
        "_hex": "0x3d090"
      },
      "to": "0xE544B53ffe567c1e8CA46cca46bcAcd61028eA4b",
      "value": {
        "_hex": "0x814c28ed954e2400"
      },
      "nonce": 882,
      "data": "0x",
      "r": "0xb44f06d968098e512634d2907b958ffd38df96f7c6a5d14a72388d5d60edbc1a",
      "s": "0x08b2afa065f3a7f5652c17ca8cee929c335118d724669f71ba563ab5286385da",
      "v": 28,
      "creates": null,
      "raw": "0xf86f820372850ddf3a1d168303d09094e544b53ffe567c1e8ca46cca46bcacd61028ea4b88814c28ed954e2400801ca0b44f06d968098e512634d2907b958ffd38df96f7c6a5d14a72388d5d60edbc1aa008b2afa065f3a7f5652c17ca8cee929c335118d724669f71ba563ab5286385da",
      "networkId": 0,
      "chainId": 0
    },
    {
      "hash": "0xa3513f410e0de82539efc62b06b5d04156a59720e2dcffd42722e1be8ff0cc5a",
      "blockHash": "0xb40cfe26407188bbd9bf71fa02b392287a7c7a01f3b685079a875f9239e780d9",
      "blockNumber": 111559,
      "transactionIndex": 2,
      "confirmations": null,
      "from": "0x32Be343B94f860124dC4fEe278FDCBD38C102D88",
      "gasPrice": {
        "_hex": "0xd76a1f67b"
      },
      "gasLimit": {
        "_hex": "0x5208"
      },
      "to": "0x4245271A2F40593fb9F66A98202b3Dc1a8593cD2",
      "value": {
        "_hex": "0x31708ae0045440000"
      },
      "nonce": 1308,
      "data": "0x",
      "r": "0x749776abbb4d141e8fcafcb4a371374ab4f2cddedd40f5f777050bf21a5a3358",
      "s": "0x250a013731b960ea05d26bc2fbf870c0e9ed02f3094a4ce9d4d8d8d41a888bf2",
      "v": 28,
      "creates": null,
      "raw": "0xf86f82051c850d76a1f67b825208944245271a2f40593fb9f66a98202b3dc1a8593cd289031708ae0045440000801ca0749776abbb4d141e8fcafcb4a371374ab4f2cddedd40f5f777050bf21a5a3358a0250a013731b960ea05d26bc2fbf870c0e9ed02f3094a4ce9d4d8d8d41a888bf2",
      "networkId": 0,
      "chainId": 0
    }
  ]
}