{
  "hash": "0x85fe3e4afeeb448d99ff57f1cffcb2fa9376e08f2f1ce4f618bcace526158935",
  "parentHash": "0xdeadfe86acbaff976b0eaacc1ec9b54afa80009fbf5970ad6f77f9afcd967b1f",
  "number": 119710,
  "timestamp": 1440147520,
  "nonce": "0x39939e8a80d3f1d6",
  "difficulty": 4394292810613,
  "gasLimit": {
    "_hex": "0x2fefd8"
  },
  "gasUsed": {
    "_hex": "0x5208"
  },
  "miner": "0xe6A7a1d47ff21B6321162AEA7C6CB457D5476Bca",
  "extraData": "0xd783010002844765746887676f312e342e32856c696e7578",
  "transactions": [
    {
      "hash": "0x32b50439c1fb187fbf03a9e18ec3312103ea0d5f52a870eceb4a6eea450f8e8c",
      "blockHash": "0x85fe3e4afeeb448d99ff57f1cffcb2fa9376e08f2f1ce4f618bcace526158935",
      "blockNumber": 119710,
      "transactionIndex": 0,
      "confirmations": null,
      "from": "0x0dd48f729D5084545452A08F5E5AB412d7c2888a",
      "gasPrice": {
        "_hex": "0xba43b7400"
      },
      "gasLimit": {
        "_hex": "0x15f90"
      },
      "to": "0x2533B90f7afF15196EaA7e4719E057c85dEF3A47",
      "value": {
        "_hex": "0x20c29fee2ce810000"
      },
      "nonce": 8,
      "data": "0x",
      "r": "0x1c205017515bd6150af1eacc8c91d72cb302ad93b14497635850422b16ef3c5b",
      "s": "0x1df07ed8f2dec4b8b5e31f4272f34933fdb6483493b0001c147664dfe9834f96",
      "v": 27,
      "creates": null,
      "raw": "0xf86e08850ba43b740083015f90942533b90f7aff15196eaa7e4719e057c85def3a4789020c29fee2ce810000801ba01c205017515bd6150af1eacc8c91d72cb302ad93b14497635850422b16ef3c5ba01df07ed8f2dec4b8b5e31f4272f34933fdb6483493b0001c147664dfe9834f96",
      "networkId": 0,
      "chainId": 0
    }
  ]
}