{
  "hash": "0x5024eef4f4f6a31811c7f0912d46f6f2e701c434e56aba82399c8be16f0e9e87",
  "parentHash": "0x2a02f0bbf195d8fec134f63f582669049c0c6524ca71e105de5d803d03f8396d",
  "number": 64040,
  "timestamp": 1439214350,
  "nonce": "0xe0c60ad6a3093b0b",
  "difficulty": 1851227946039,
  "gasLimit": {
    "_hex": "0x2fefd8"
  },
  "gasUsed": {
    "_hex": "0x12346"
  },
  "miner": "0x31995C46B15C84523cDEE26f49A681b8237e43F5",
  "extraData": "0x476574682f76312e302e312f77696e646f77732f676f312e342e32",
  "transactions": [
    {
      "hash": "0x76c5ca394ae0e65723e7eb8f7aa65de2fbe9a06c3d680957a65367c1fce816f0",
      "blockHash": "0x5024eef4f4f6a31811c7f0912d46f6f2e701c434e56aba82399c8be16f0e9e87",
      "blockNumber": 64040,
      "transactionIndex": 0,
      "confirmations": null,
      "from": "0x901375679999F6D4846F257a79d7159ECEb2d47A",
      "gasPrice": {
        "_hex": "0xd8de90e9f"
      },
      "gasLimit": {
        "_hex": "0x15f90"
      },
      "to": "0x237b555850BE6BFf53a0698146371a2F5890A030",
      "value": {
        "_hex": "0x4563918244f40000"
      },
      "nonce": 4,
      "data": "0x",
      "r": "0x73d870ea21f1ec25bca4faf874251ab1202ff732c62f946085f88b20664fd2e0",
      "s": "0x6aceb59e8dd96a4ff1ed7ebb79b4e1dac7b77a60ca37780bcacf2162c67537f3",
      "v": 27,
      "creates": null,
      "raw": "0xf86d04850d8de90e9f83015f9094237b555850be6bff53a0698146371a2f5890a030884563918244f40000801ba073d870ea21f1ec25bca4faf874251ab1202ff732c62f946085f88b20664fd2e0a06aceb59e8dd96a4ff1ed7ebb79b4e1dac7b77a60ca37780bcacf2162c67537f3",
      "networkId": 0,
      "chainId": 0
    },
    {
      "hash": "0x08747d101869670bc6bf54cee29a01c9e3f230ca8de78465a8e3b50fee85e085",
      "blockHash": "0x5024eef4f4f6a31811c7f0912d46f6f2e701c434e56aba82399c8be16f0e9e87",
      "blockNumber": 64040,
      "transactionIndex": 1,
      "confirmations": null,
      "from": "0xc70bA22fe446A85A247bf85BaD1AdDf3ddaF62E9",
      "gasPrice": {
        "_hex": "0xd84e12627"
      },
      "gasLimit": {
        "_hex": "0x15f90"
      },
      "to": "0x7320f8461BbC8104c677FeC0429cC0d963a5Ac40",
      "value": {
        "_hex": "0x0"
      },
      "nonce": 25,
      "data": "0x0a3b0a4f000000000000000000000000c70ba22fe446a85a247bf85bad1addf3ddaf62e9",
      "r": "0x58dd2fddb84e54e705e0edef286f4a8a66b0544635de530143c58f15caef272b",
      "s": "0x5e37c645c0bbc350e96b33c294b8b441a27e754b39884b8c50a97c4a29a31647",
      "v": 28,
      "creates": null,
      "raw": "0xf88919850d84e1262783015f90947320f8461bbc8104c677fec0429cc0d963a5ac4080a40a3b0a4f000000000000000000000000c70ba22fe446a85a247bf85bad1addf3ddaf62e91ca058dd2fddb84e54e705e0edef286f4a8a66b0544635de530143c58f15caef272ba05e37c645c0bbc350e96b33c294b8b441a27e754b39884b8c50a97c4a29a31647",
      "networkId": 0,
      "chainId": 0
    }
  ]
}