{
  "hash": "0x4dffd77541abbf273aa30e49069dfbb757e3aaf37d15b05b0c3c56f57aeefa43",
  "parentHash": "0xe815985719990ca9591dc1a7b34e3d8f2566b933f64df7d92ab39465b7c1bc7d",
  "number": 87648,
  "timestamp": 1439595419,
  "nonce": "0xb5dda5348b632289",
  "difficulty": 3158648662619,
  "gasLimit": {
    "_hex": "0x2fefd8"
  },
  "gasUsed": {
    "_hex": "0xa410"
  },
  "miner": "0xf32866D5cE9a9b5673e076be48AbCd6ED48ADe78",
  "extraData": "0x476574682f76312e302e312d37666266393930632f6c696e75782f676f312e34",
  "transactions": [
    {
      "hash": "0x732cf7b348c274c7abf6401262387251cfe8e4f57ab47e91a5105613a6f2774d",
      "blockHash": "0x4dffd77541abbf273aa30e49069dfbb757e3aaf37d15b05b0c3c56f57aeefa43",
      "blockNumber": 87648,
      "transactionIndex": 0,
      "confirmations": null,
      "from": "0x32Be343B94f860124dC4fEe278FDCBD38C102D88",
      "gasPrice": {
        "_hex": "0xd35e6e521"
      },
      "gasLimit": {
        "_hex": "0x5208"
      },
      "to": "0xcf1Ff05a6E5c3E328dDfEB4C867DD56F26CF47D9",
      "value": {
        "_hex": "0x18c239d68ffe9b0000"
      },
      "nonce": 792,
      "data": "0x",
      "r": "0x18a78abda189cfeabe46bea0fe5944f7145c536a9b3cb4710ee20569de48f512",
      "s": "0x7b68aede6373ddac0d833cea170e1da69d2d93a38fc1bcb6f71b3b4b939aff0d",
      "v": 27,
      "creates": null,
      "raw": "0xf86f820318850d35e6e52182520894cf1ff05a6e5c3e328ddfeb4c867dd56f26cf47d98918c239d68ffe9b0000801ba018a78abda189cfeabe46bea0fe5944f7145c536a9b3cb4710ee20569de48f512a07b68aede6373ddac0d833cea170e1da69d2d93a38fc1bcb6f71b3b4b939aff0d",
      "networkId": 0,
      "chainId": 0
    },
    {
      "hash": "0x3855aed40ecd65f2afc4f55392e9e59075c0748c2494aea1254ef52f95747832",
      "blockHash": "0x4dffd77541abbf273aa30e49069dfbb757e3aaf37d15b05b0c3c56f57aeefa43",
      "blockNumber": 87648,
      "transactionIndex": 1,
      "confirmations": null,
      "from": "0x32Be343B94f860124dC4fEe278FDCBD38C102D88",
      "gasPrice": {
        "_hex": "0xd35e6e521"
      },
      "gasLimit": {
        "_hex": "0x5208"
      },
      "to": "0x492281216bEF882982BEA435606FDb7B96743B77",
      "value": {
        "_hex": "0xdbd2fc137a30000"
      },
      "nonce": 793,
      "data": "0x",
      "r": "0xd9ea7cdfac3ade43694af18121608c2434a1f402bc7363075ee405d4c625f0c5",
      "s": "0x0dff45386af6fb3d0c7ad9512112275dc14bc69915ab744143cc247c9ba90368",
      "v": 28,
      "creates": null,
      "raw": "0xf86e820319850d35e6e52182520894492281216bef882982bea435606fdb7b96743b77880dbd2fc137a30000801ca0d9ea7cdfac3ade43694af18121608c2434a1f402bc7363075ee405d4c625f0c5a00dff45386af6fb3d0c7ad9512112275dc14bc69915ab744143cc247c9ba90368",
      "networkId": 0,
      "chainId": 0
    }
  ]
}