{
  "hash": "0x64dcfc0b58a559d852d69019335a7e1e0ab6df11944b1734dba2e388a53280ed",
  "parentHash": "0x0e9956689342e4ffb13d11b6935de4ad0331a8f12579bbbc0f0462a73c96abe8",
  "number": 117846,
  "timestamp": 1440116253,
  "nonce": "0x1bfcc1cf1765599e",
  "difficulty": 4344062914860,
  "gasLimit": {
    "_hex": "0x2fefd8"
  },
  "gasUsed": {
    "_hex": "0xa410"
  },
  "miner": "0x2134e2a2b718DCa96580ECAC31E653Ea1fdd58DA",
  "extraData": "0x",
  "transactions": [
    {
      "hash": "0x51f690da4a943cbbba911511a8c0d1f6d34b9007d6e84f05f5457f249d1f28a8",
      "blockHash": "0x64dcfc0b58a559d852d69019335a7e1e0ab6df11944b1734dba2e388a53280ed",
      "blockNumber": 117846,
      "transactionIndex": 0,
      "confirmations": null,
      "from": "0x027698B61229ECCa19311e977ADE3C2923D4e414",
      "gasPrice": {
        "_hex": "0xba43b7400"
      },
      "gasLimit": {
        "_hex": "0x5208"
      },
      "to": "0x32Be343B94f860124dC4fEe278FDCBD38C102D88",
      "value": {
        "_hex": "0x27761e8bae069000"
      },
      "nonce": 11,
      "data": "0x",
      "r": "0xcf9fd4021c4adbe26c9653cf9321f0276fcc852444983aa03372c5012e25d238",
      "s": "0x2a4c76c69e5e11bcbec759ae1f75aa20c1acc5ad213c8fe7010cbc364e0a2811",
      "v": 27,
      "creates": null,
      "raw": "0xf86c0b850ba43b74008252089432be343b94f860124dc4fee278fdcbd38c102d888827761e8bae069000801ba0cf9fd4021c4adbe26c9653cf9321f0276fcc852444983aa03372c5012e25d238a02a4c76c69e5e11bcbec759ae1f75aa20c1acc5ad213c8fe7010cbc364e0a2811",
      "networkId": 0,
      "chainId": 0
    },
    {
      "hash": "0xb1e39a514e8d4c2755060bc6ded6300a46e194c5645ddc369326cecfd6c1bf4c",
      "blockHash": "0x64dcfc0b58a559d852d69019335a7e1e0ab6df11944b1734dba2e388a53280ed",
      "blockNumber": 117846,
      "transactionIndex": 1,
      "confirmations": null,
      "from": "0x2D1d94521E896625F8Ec3f65171Fa82262Da6BCF",
      "gasPrice": {
        "_hex": "0xba43b7400"
      },
      "gasLimit": {
        "_hex": "0x5208"
      },
      "to": "0x32Be343B94f860124dC4fEe278FDCBD38C102D88",
      "value": {
        "_hex": "0x10435e8c828a60000"
      },
      "nonce": 14,
      "data": "0x",
      "r": "0xb41275d28f5788c221c4afe2e1d5c10b1c0a3c260de014abf8ff680ab3123c9d",
      "s": "0x5038767c97b72319734372c7c5ce0ef550f42c794683e92f1f76f427e92aee35",
      "v": 28,
      "creates": null,
      "raw": "0xf86d0e850ba43b74008252089432be343b94f860124dc4fee278fdcbd38c102d8889010435e8c828a60000801ca0b41275d28f5788c221c4afe2e1d5c10b1c0a3c260de014abf8ff680ab3123c9da05038767c97b72319734372c7c5ce0ef550f42c794683e92f1f76f427e92aee35",
      "networkId": 0,
      "chainId": 0
    }
  ]
}