{
  "hash": "0x52004de91b3b7bf21ec0e1dc6405704eef54b5e83176f53a507b4c289afd6b55",
  "parentHash": "0x012e6decf53a5dc5beed66a7e50dd7c5e0479a47157baf15f83c9bbe7b4d1a33",
  "number": 64955,
  "timestamp": 1439228981,
  "nonce": "0x8502aab4153fcf5e",
  "difficulty": 1912583495098,
  "gasLimit": {
    "_hex": "0x2fefd8"
  },
  "gasUsed": {
    "_hex": "0x1cee0"
  },
  "miner": "0x2C674A948592B20a4B775E1a3991Db043E6CF0FE",
  "extraData": "0x476574682f76312e302e312d38326566323666362f6c696e75782f676f312e34",
  "transactions": [
    {
      "hash": "0xf1a0205d49c6b2db90086073c47e9b97853789c8816c07b8b7a16997bf0a7981",
      "blockHash": "0x52004de91b3b7bf21ec0e1dc6405704eef54b5e83176f53a507b4c289afd6b55",
      "blockNumber": 64955,
      "transactionIndex": 0,
      "confirmations": null,
      "from": "0x43279854AaF8825a6d1fcCf056caF190Ab8a7b76",
      "gasPrice": {
        "_hex": "0xcf4ff6bb0"
      },
      "gasLimit": {
        "_hex": "0x5208"
      },
      "to": "0x32Be343B94f860124dC4fEe278FDCBD38C102D88",
      "value": {
        "_hex": "0x455f6aa0bcd61c00"
      },
      "nonce": 0,
      "data": "0x",
      "r": "0x9f1ac8af5f2789532b391de2d1de26514b106c8d25105419cd01a93122da0521",
      "s": "0x6c62dea995031ec091e3b4482707790675ff45845db5f29f1a762df2b3c4582a",
      "v": 27,
      "creates": null,
      "raw": "0xf86c80850cf4ff6bb08252089432be343b94f860124dc4fee278fdcbd38c102d8888455f6aa0bcd61c00801ba09f1ac8af5f2789532b391de2d1de26514b106c8d25105419cd01a93122da0521a06c62dea995031ec091e3b4482707790675ff45845db5f29f1a762df2b3c4582a",
      "networkId": 0,
      "chainId": 0
    },
    {
      "hash": "0x4eddebb3275822524d37b850414f628a067507686fe43e737ebecbc41684face",
      "blockHash": "0x52004de91b3b7bf21ec0e1dc6405704eef54b5e83176f53a507b4c289afd6b55",
      "blockNumber": 64955,
      "transactionIndex": 1,
      "confirmations": null,
      "from": "0x94AB191ec8501CefafE1153959B2907c105F4345",
      "gasPrice": {
        "_hex": "0xba43b7400"
      },
      "gasLimit": {
        "_hex": "0x15f90"
      },
      "to": "0x793AE8C1b1a160BFc07BFB0d04F85eab1A71F4f2",
      "value": {
        "_hex": "0x0"
      },
      "nonce": 0,
      "data": "0x3ba15036",
      "r": "0x9ba3d8f2bf25a0420312fd7209c683adcda0d21c13485a677deedd027eea1e95",
      "s": "0x48df78b55e5b1dc28fd99278c4067afaeebd230c2b1c1f8e11e59699ee7403db",
      "v": 27,
      "creates": null,
      "raw": "0xf86980850ba43b740083015f9094793ae8c1b1a160bfc07bfb0d04f85eab1a71f4f280843ba150361ba09ba3d8f2bf25a0420312fd7209c683adcda0d21c13485a677deedd027eea1e95a048df78b55e5b1dc28fd99278c4067afaeebd230c2b1c1f8e11e59699ee7403db",
      "networkId": 0,
      "chainId": 0
    },
    {
      "hash": "0xc2bb6649eacae59acaaf8947461ad9451d3bddb1f6c6104cba8dc357031085e4",
      "blockHash": "0x52004de91b3b7bf21ec0e1dc6405704eef54b5e83176f53a507b4c289afd6b55",
      "blockNumber": 64955,
      "transactionIndex": 2,
      "confirmations": null,
      "from": "0xeF7180da41dF0447A8df5ebfd7e3Ab84555fb1F3",
      "gasPrice": {
        "_hex": "0xba43b7400"
      },
      "gasLimit": {
        "_hex": "0x15f90"
      },
      "to": "0x793AE8C1b1a160BFc07BFB0d04F85eab1A71F4f2",
      "value": {
        "_hex": "0x0"
      },
      "nonce": 0,
      "data": "0x3ba15036",
      "r": "0x6eb0b2b118d237eb755d33ddea51dcbd10baa21de5c4817707329213c07e666d",
      "s": "0x0a0504891cc12de72fd7bdd5ebc130ae80b2f83a1a3ead6abc80ff896bb4f905",
      "v": 27,
      "creates": null,
      "raw": "0xf86980850ba43b740083015f9094793ae8c1b1a160bfc07bfb0d04f85eab1a71f4f280843ba150361ba06eb0b2b118d237eb755d33ddea51dcbd10baa21de5c4817707329213c07e666da00a0504891cc12de72fd7bdd5ebc130ae80b2f83a1a3ead6abc80ff896bb4f905",
      "networkId": 0,
      "chainId": 0
    }
  ]
}