{
  "hash": "0x2851c29b7418739fb3ad7893d80e7208064676e5ee1d5b1c941befd3e0f047c0",
  "parentHash": "0xc72e1543cf89b85996eee3177716a014608a90fe7b4c46e7d5ff30f937a01ba7",
  "number": 51944,
  "timestamp": 1439013533,
  "nonce": "0x65dce27445732ab4",
  "difficulty": 1558093549916,
  "gasLimit": {
    "_hex": "0xf3203"
  },
  "gasUsed": {
    "_hex": "0xa410"
  },
  "miner": "0x2134e2a2b718DCa96580ECAC31E653Ea1fdd58DA",
  "extraData": "0x476574682f76312e302e312f77696e646f77732f676f312e342e32",
  "transactions": [
    {
      "hash": "0xc703b004d6269a99f30e1c3dd974b5a60c401ed6ce9ad68c45984a196e29dcf6",
      "blockHash": "0x2851c29b7418739fb3ad7893d80e7208064676e5ee1d5b1c941befd3e0f047c0",
      "blockNumber": 51944,
      "transactionIndex": 0,
      "confirmations": null,
      "from": "0x1308A2e95c0160B90803ddCA9B9a5bb55E416d79",
      "gasPrice": {
        "_hex": "0xe8d4a51000"
      },
      "gasLimit": {
        "_hex": "0x15f90"
      },
      "to": "0xF3034367F87D24D3077fa9A2E38A8b0cCB1104eF",
      "value": {
        "_hex": "0x709563c4a45b40000"
      },
      "nonce": 10,
      "data": "0x",
      "r": "0x00c5ce11b6eddb605f2acaf3bddf49a5d2081a12ad5e1195bdcc1058a4bf73f2",
      "s": "0x3d9600330a92bd5a4851c255e93e2efb229d217ae06086c47719d055d5ef70bf",
      "v": 27,
      "creates": null,
      "raw": "0xf86d0a85e8d4a5100083015f9094f3034367f87d24d3077fa9a2e38a8b0ccb1104ef890709563c4a45b40000801b9fc5ce11b6eddb605f2acaf3bddf49a5d2081a12ad5e1195bdcc1058a4bf73f2a03d9600330a92bd5a4851c255e93e2efb229d217ae06086c47719d055d5ef70bf",
      "networkId": 0,
      "chainId": 0
    },
    {
      "hash": "0x8883996cc710edcd4e51c37b45c8a7f024f043fb5af817df24dd4fc1b8e7d1e8",
      "blockHash": "0x2851c29b7418739fb3ad7893d80e7208064676e5ee1d5b1c941befd3e0f047c0",
      "blockNumber": 51944,
      "transactionIndex": 1,
      "confirmations": null,
      "from": "0xF5EeDc192aB70b08D8354384aD94efD095849E00",
      "gasPrice": {
        "_hex": "0xd1e47f70a"
      },
      "gasLimit": {
        "_hex": "0x5208"
      },
      "to": "0x32Be343B94f860124dC4fEe278FDCBD38C102D88",
      "value": {
        "_hex": "0xddc77793eeee800"
      },
      "nonce": 0,
      "data": "0x",
      "r": "0xe454317afb261f658504e62641a94cbdbf164479a35fed78496b02daf6bd11e3",
      "s": "0x1d8679a1eb8585c0ba5946982c081f57c14cc88240077358bfc2ac0a1f0ee711",
      "v": 27,
      "creates": null,
      "raw": "0xf86c80850d1e47f70a8252089432be343b94f860124dc4fee278fdcbd38c102d88880ddc77793eeee800801ba0e454317afb261f658504e62641a94cbdbf164479a35fed78496b02daf6bd11e3a01d8679a1eb8585c0ba5946982c081f57c14cc88240077358bfc2ac0a1f0ee711",
      "networkId": 0,
      "chainId": 0
    }
  ]
}