{
  "hash": "0x77240733296307df796134f86120e9781a7000df96ff2033a058c840fff82407",
  "parentHash": "0xe0c7332f160cf7c1d5eab10518defab389e2d789677e1371de94ded5a81a7edc",
  "number": 95627,
  "timestamp": 1439726930,
  "nonce": "0xaaa4a1c2c43d7a06",
  "difficulty": 3612669756086,
  "gasLimit": {
    "_hex": "0x2fefd8"
  },
  "gasUsed": {
    "_hex": "0x1ec30"
  },
  "miner": "0xC603Ab5ef41fC61AA8b76bEddb09e3Cfcbb174BD",
  "extraData": "0x476574682f76312e302e312f77696e646f77732f676f312e342e32",
  "transactions": [
    {
      "hash": "0xcccf6482de31e9eb571f586ba5a30f6ea5b73c800313ea608baf839a06005667",
      "blockHash": "0x77240733296307df796134f86120e9781a7000df96ff2033a058c840fff82407",
      "blockNumber": 95627,
      "transactionIndex": 0,
      "confirmations": null,
      "from": "0x557C2806B6ceA65a66F415bb2Ed1ce897B340745",
      "gasPrice": {
        "_hex": "0xd9f4e032e"
      },
      "gasLimit": {
        "_hex": "0x5208"
      },
      "to": "0x32Be343B94f860124dC4fEe278FDCBD38C102D88",
      "value": {
        "_hex": "0x56bc300ba04424000"
      },
      "nonce": 4,
      "data": "0x",
      "r": "0x335df76ce338cc22678fc9f79ca8f4e4a0943d647d5ba07773dd79a6fe3f82b2",
      "s": "0x4adbfec668084e27867ac564b4498913c29ffdf5935bfda665b45a9e412207c5",
      "v": 27,
      "creates": null,
      "raw": "0xf86d04850d9f4e032e8252089432be343b94f860124dc4fee278fdcbd38c102d8889056bc300ba04424000801ba0335df76ce338cc22678fc9f79ca8f4e4a0943d647d5ba07773dd79a6fe3f82b2a04adbfec668084e27867ac564b4498913c29ffdf5935bfda665b45a9e412207c5",
      "networkId": 0,
      "chainId": 0
    },
    {
      "hash": "0x653cdabfd801fb9238f1185b490d0843ca9f734030fa65c0c9884f4fb7f69536",
      "blockHash": "0x77240733296307df796134f86120e9781a7000df96ff2033a058c840fff82407",
      "blockNumber": 95627,
      "transactionIndex": 1,
      "confirmations": null,
      "from": "0x63738Ec4C9adec404749B5747F3bbE2147de632F",
      "gasPrice": {
        "_hex": "0xd41d7d7aa"
      },
      "gasLimit": {
        "_hex": "0x15f90"
      },
      "to": "0x557C2806B6ceA65a66F415bb2Ed1ce897B340745",
      "value": {
        "_hex": "0x8ac7230489e80000"
      },
      "nonce": 18,
      "data": "0x",
      "r": "0x0309f6ee261eb4e34a92d53c62c4268f7a534c9acd67cef40d455ee9f9d52eee",
      "s": "0x5f94107caeb33de8e45c72a4101d294fd4dc96d18e8b9b8215ef6da2e65d2bd5",
      "v": 27,
      "creates": null,
      "raw": "0xf86d12850d41d7d7aa83015f9094557c2806b6cea65a66f415bb2ed1ce897b340745888ac7230489e80000801ba00309f6ee261eb4e34a92d53c62c4268f7a534c9acd67cef40d455ee9f9d52eeea05f94107caeb33de8e45c72a4101d294fd4dc96d18e8b9b8215ef6da2e65d2bd5",
      "networkId": 0,
      "chainId": 0
    },
    {
      "hash": "0x86a6d91c950b681bf4e4b2127ba3cc42a6ffdccb2b4920e9121477eaf9abd5a2",
      "blockHash": "0x77240733296307df796134f86120e9781a7000df96ff2033a058c840fff82407",
      "blockNumber": 95627,
      "transactionIndex": 2,
      "confirmations": null,
      "from": "0x63738Ec4C9adec404749B5747F3bbE2147de632F",
      "gasPrice": {
        "_hex": "0xd41d7d7aa"
      },
      "gasLimit": {
        "_hex": "0x15f90"
      },
      "to": "0x557C2806B6ceA65a66F415bb2Ed1ce897B340745",
      "value": {
        "_hex": "0x8ac7230489e80000"
      },
      "nonce": 19,
      "data": "0x",
      "r": "0x9e7fdd6578953cc62001af3b876534c4ee8ec3f3f88bb86f2c6556e88c2e806d",
      "s": "0x2fa718430d856f3e5d9b54fe45d92e4e7a38cad2f06b4c4c1f8202c0aed10f15",
      "v": 27,
      "creates": null,
      "raw": "0xf86d13850d41d7d7aa83015f9094557c2806b6cea65a66f415bb2ed1ce897b340745888ac7230489e80000801ba09e7fdd6578953cc62001af3b876534c4ee8ec3f3f88bb86f2c6556e88c2e806da02fa718430d856f3e5d9b54fe45d92e4e7a38cad2f06b4c4c1f8202c0aed10f15",
      "networkId": 0,
      "chainId": 0
    },
    {
      "hash": "0x80e9f3708b4535063c7705c03273e7d28137d25c2e3a9387caea75edf63ae709",
      "blockHash": "0x77240733296307df796134f86120e9781a7000df96ff2033a058c840fff82407",
      "blockNumber": 95627,
      "transactionIndex": 3,
      "confirmations": null,
      "from": "0x63738Ec4C9adec404749B5747F3bbE2147de632F",
      "gasPrice": {
        "_hex": "0xd41d7d7aa"
      },
      "gasLimit": {
        "_hex": "0x15f90"
      },
      "to": "0x557C2806B6ceA65a66F415bb2Ed1ce897B340745",
      "value": {
        "_hex": "0x8ac7230489e80000"
      },
      "nonce": 20,
      "data": "0x",
      "r": "0x5c1ffd0f739f8dba155cd05502d4b0936cd5b015db0df416ca25a4c0b932c7cb",
      "s": "0x74634fb40795ef568f060fb16fca43d382cf3249c4e04ecbd579b0221cf62c4e",
      "v": 28,
      "creates": null,
      "raw": "0xf86d14850d41d7d7aa83015f9094557c2806b6cea65a66f415bb2ed1ce897b340745888ac7230489e80000801ca05c1ffd0f739f8dba155cd05502d4b0936cd5b015db0df416ca25a4c0b932c7cba074634fb40795ef568f060fb16fca43d382cf3249c4e04ecbd579b0221cf62c4e",
      "networkId": 0,
      "chainId": 0
    },
    {
      "hash": "0xa1eeeca05cb269087f3281f9231b8fedbfd78ebc29403b7dec50775152d539e6",
      "blockHash": "0x77240733296307df796134f86120e9781a7000df96ff2033a058c840fff82407",
      "blockNumber": 95627,
      "transactionIndex": 4,
      "confirmations": null,
      "from": "0x63738Ec4C9adec404749B5747F3bbE2147de632F",
      "gasPrice": {
        "_hex": "0xd41d7d7aa"
      },
      "gasLimit": {
        "_hex": "0x15f90"
      },
      "to": "0x557C2806B6ceA65a66F415bb2Ed1ce897B340745",
      "value": {
        "_hex": "0x8ac7230489e80000"
      },
      "nonce": 21,
      "data": "0x",
      "r": "0x4e5eb1c8c63593a38ba7f226731119934e71b983866f6bad1eb72b641ad19b50",
      "s": "0x7b81f3c9968f0f6f20364169fc1a2e71e946462327550262fbe9a2152e19ee5c",
      "v": 27,
      "creates": null,
      "raw": "0xf86d15850d41d7d7aa83015f9094557c2806b6cea65a66f415bb2ed1ce897b340745888ac7230489e80000801ba04e5eb1c8c63593a38ba7f226731119934e71b983866f6bad1eb72b641ad19b50a07b81f3c9968f0f6f20364169fc1a2e71e946462327550262fbe9a2152e19ee5c",
      "networkId": 0,
      "chainId": 0
    },
    {
      "hash": "0x3d1801d3ec3b0a82ccce2f3c30b8339cf96f78d5ecfaac4cf7dd58a74203819e",
      "blockHash": "0x77240733296307df796134f86120e9781a7000df96ff2033a058c840fff82407",
      "blockNumber": 95627,
      "transactionIndex": 5,
      "confirmations": null,
      "from": "0x10c4712a317A10F60fE9347b199400d6BaA89558",
      "gasPrice": {
        "_hex": "0xd2b902ed3"
      },
      "gasLimit": {
        "_hex": "0x15f90"
      },
      "to": "0x5465B1c380c9D2446965E503EB731F08A30ecD25",
      "value": {
        "_hex": "0x4806958090470000"
      },
      "nonce": 2,
      "data": "0x",
      "r": "0x1a52c2b7b4ee84bbf64cd59fce23e25592e9dc7212ccf7ed2276ceb9e173fdcc",
      "s": "0x741952bb15d7c07c04661a67927d693f1dc2435caf3cefb78c35237fe9ed219c",
      "v": 28,
      "creates": null,
      "raw": "0xf86d02850d2b902ed383015f90945465b1c380c9d2446965e503eb731f08a30ecd25884806958090470000801ca01a52c2b7b4ee84bbf64cd59fce23e25592e9dc7212ccf7ed2276ceb9e173fdcca0741952bb15d7c07c04661a67927d693f1dc2435caf3cefb78c35237fe9ed219c",
      "networkId": 0,
      "chainId": 0
    }
  ]
}