{
  "hash": "0x00fde23615f373b39d106ad1292e8efdbb548d1f99832cb1e6bc3da2e019132d",
  "parentHash": "0xd19d3a7a76a05925d85bb57f27b60b69bc11fd08958b1c7a522afb894612512b",
  "number": 80277,
  "timestamp": 1439482957,
  "nonce": "0xf4855ba6f897cf10",
  "difficulty": 2387534511951,
  "gasLimit": {
    "_hex": "0x2fefd8"
  },
  "gasUsed": {
    "_hex": "0xaa37"
  },
  "miner": "0x5c53D4655ABD45d7206858D6CDF7D7c2F036a323",
  "extraData": "0x476574682f76312e302e312d38326566323666362f6c696e75782f676f312e34",
  "transactions": [
    {
      "hash": "0x6b816eb1679c3f25ace7e97ae9fbaa57fdad18abe2fb80e9811e8d5f173c0fee",
      "blockHash": "0x00fde23615f373b39d106ad1292e8efdbb548d1f99832cb1e6bc3da2e019132d",
      "blockNumber": 80277,
      "transactionIndex": 0,
      "confirmations": null,
      "from": "0x87C5B5874A18B4306DF8a752a6C8cc3E82daFc19",
      "gasPrice": {
        "_hex": "0x10e747c0466"
      },
      "gasLimit": {
        "_hex": "0x493e0"
      },
      "to": "0xC4c51de1AbF5D60DBd329eC0F999Fd8f021ae9fC",
      "value": {
        "_hex": "0x0"
      },
      "nonce": 160,
      "data": "0x03750d9400000000000000000000000087c5b5874a18b4306df8a752a6c8cc3e82dafc196b6b6b0000000000000000000000000000000000000000000000000000000000",
      "r": "0x2ddbfb8e279ab110d4a7123d7483b6c4c38307381bca7e946bf178826dde6fa9",
      "s": "0x59c6f717a69192d8c36312659b0aafc48b3b42476dc214a8631abbb2134be080",
      "v": 27,
      "creates": null,
      "raw": "0xf8ac81a086010e747c0466830493e094c4c51de1abf5d60dbd329ec0f999fd8f021ae9fc80b84403750d9400000000000000000000000087c5b5874a18b4306df8a752a6c8cc3e82dafc196b6b6b00000000000000000000000000000000000000000000000000000000001ba02ddbfb8e279ab110d4a7123d7483b6c4c38307381bca7e946bf178826dde6fa9a059c6f717a69192d8c36312659b0aafc48b3b42476dc214a8631abbb2134be080",
      "networkId": 0,
      "chainId": 0
    }
  ]
}