{
  "hash": "0x3e445eef2ba7b160f911cb16f8d3cf62418564029bf1fb06e7978ea22c67b734",
  "parentHash": "0x3708c51fff97c6848a5bcd31254da0baabc36ca399cc20b390f5be8a3904f3c6",
  "number": 96182,
  "timestamp": 1439736283,
  "nonce": "0x5165b46f697de3dc",
  "difficulty": 3653228700673,
  "gasLimit": {
    "_hex": "0x2fefd8"
  },
  "gasUsed": {
    "_hex": "0x5208"
  },
  "miner": "0xbb7B8287f3F0a933474a79eAe42CBCa977791171",
  "extraData": "0x476574682f4c5649562f76312e302e312f6c696e75782f676f312e342e32",
  "transactions": [
    {
      "hash": "0x1e3da6b741608790d6c1409d2fb30d575880655e9945c90400fdc7255acd1f65",
      "blockHash": "0x3e445eef2ba7b160f911cb16f8d3cf62418564029bf1fb06e7978ea22c67b734",
      "blockNumber": 96182,
      "transactionIndex": 0,
      "confirmations": null,
      "from": "0x120A270bbC009644e35F0bB6ab13f95b8199c4ad",
      "gasPrice": {
        "_hex": "0xd084622ee"
      },
      "gasLimit": {
        "_hex": "0x3d090"
      },
      "to": "0x00B88D679472169CBd35a3d02192Fd24734684b4",
      "value": {
        "_hex": "0xebb0f973160323000"
      },
      "nonce": 611,
      "data": "0x",
      "r": "0x67b7d6cd7497f94189e184226d253c3ecce53060bdaf221b71416485e875c8dc",
      "s": "0x661ee10f6c36d597724d15b31ac52dc9fc60d9433cd526578612d0426aee7394",
      "v": 28,
      "creates": null,
      "raw": "0xf870820263850d084622ee8303d0909400b88d679472169cbd35a3d02192fd24734684b4890ebb0f973160323000801ca067b7d6cd7497f94189e184226d253c3ecce53060bdaf221b71416485e875c8dca0661ee10f6c36d597724d15b31ac52dc9fc60d9433cd526578612d0426aee7394",
      "networkId": 0,
      "chainId": 0
    }
  ]
}