{
  "hash": "0xf2208e612ca0c5a4eae2bb94c7e8d6e8e5408c3f98988e7df53a83a5e4c83a78",
  "parentHash": "0xcc37f8de93428d17d4caac96f5d7152da2b5e134a18f6e5b889b3df33a6cca09",
  "number": 59378,
  "timestamp": 1439137291,
  "nonce": "0xf3c3980ed6e4f029",
  "difficulty": 1699726610052,
  "gasLimit": {
    "_hex": "0x2fefd8"
  },
  "gasUsed": {
    "_hex": "0xa410"
  },
  "miner": "0x9746c7e1ef2bd21FF3997fa467593a89cb852BD0",
  "extraData": "0x476574682f76312e302e312f77696e646f77732f676f312e342e32",
  "transactions": [
    {
      "hash": "0x84a126095326f407cc355a6b52fbaab7accab9cb2ae0a24f3433b1862253ed62",
      "blockHash": "0xf2208e612ca0c5a4eae2bb94c7e8d6e8e5408c3f98988e7df53a83a5e4c83a78",
      "blockNumber": 59378,
      "transactionIndex": 0,
      "confirmations": null,
      "from": "0xa04f2Ae02add14C12FaF65Cb259022d0830a8E26",
      "gasPrice": {
        "_hex": "0x10cdbb256fa"
      },
      "gasLimit": {
        "_hex": "0x15f90"
      },
      "to": "0x640534BBfb5dFDA363A3Daf5ceb9B9E00cbB740E",
      "value": {
        "_hex": "0x54b40b1f852bda00000"
      },
      "nonce": 4,
      "data": "0x",
      "r": "0xa0c847bc4570e899774faeae3d5a29267110656a774a5373d99398d879a2d8bc",
      "s": "0x2bf71c97aa5492dfc45170ff8f0afbe89c64c02b9f5898c5eb6b76be971d6d31",
      "v": 27,
      "creates": null,
      "raw": "0xf8700486010cdbb256fa83015f9094640534bbfb5dfda363a3daf5ceb9b9e00cbb740e8a054b40b1f852bda00000801ba0a0c847bc4570e899774faeae3d5a29267110656a774a5373d99398d879a2d8bca02bf71c97aa5492dfc45170ff8f0afbe89c64c02b9f5898c5eb6b76be971d6d31",
      "networkId": 0,
      "chainId": 0
    },
    {
      "hash": "0x294f507dad16f29466734d426b6c35e9313523839ce23e5b6df6654e751de0c6",
      "blockHash": "0xf2208e612ca0c5a4eae2bb94c7e8d6e8e5408c3f98988e7df53a83a5e4c83a78",
      "blockNumber": 59378,
      "transactionIndex": 1,
      "confirmations": null,
      "from": "0x01Ad0ACFf478127D9d702B1A13599D706cB759b1",
      "gasPrice": {
        "_hex": "0xd5e554c74"
      },
      "gasLimit": {
        "_hex": "0x5208"
      },
      "to": "0x32Be343B94f860124dC4fEe278FDCBD38C102D88",
      "value": {
        "_hex": "0x375b0b3a4d530000"
      },
      "nonce": 1,
      "data": "0x",
      "r": "0xfee03fd12c0f26ee04a80c766cf9b872cee3caf2ba47c0ddb82173001d050859",
      "s": "0x587eeb09385d4b086e8d47e99207f0e2a2179fbbbced316367ca367bbac72fda",
      "v": 27,
      "creates": null,
      "raw": "0xf86c01850d5e554c748252089432be343b94f860124dc4fee278fdcbd38c102d8888375b0b3a4d530000801ba0fee03fd12c0f26ee04a80c766cf9b872cee3caf2ba47c0ddb82173001d050859a0587eeb09385d4b086e8d47e99207f0e2a2179fbbbced316367ca367bbac72fda",
      "networkId": 0,
      "chainId": 0
    }
  ]
}