{
  "hash": "0xfa0aa275f7be037e871d3e54786db647095bbe27248595a45ccdf08ae8710fe6",
  "parentHash": "0xf8b8fbcc8df086a8b6872cfa0f2557590d6f708ed6fcbe2ce20d907c6293f864",
  "number": 80408,
  "timestamp": 1439485127,
  "nonce": "0x2b57924e5d9d9f56",
  "difficulty": 2395671580951,
  "gasLimit": {
    "_hex": "0x2fe3de"
  },
  "gasUsed": {
    "_hex": "0xaa37"
  },
  "miner": "0x87cD3b7f4DBBFE553DB92Ac1C97c6C24231c5D26",
  "extraData": "0x476574682f76312e302e302f6c696e75782f676f312e342e32",
  "transactions": [
    {
      "hash": "0x98915c9bcbea83490a135155852c3e9413d977d3379059c5fec30bc1746ea524",
      "blockHash": "0xfa0aa275f7be037e871d3e54786db647095bbe27248595a45ccdf08ae8710fe6",
      "blockNumber": 80408,
      "transactionIndex": 0,
      "confirmations": null,
      "from": "0x87C5B5874A18B4306DF8a752a6C8cc3E82daFc19",
      "gasPrice": {
        "_hex": "0x1121f5cc306"
      },
      "gasLimit": {
        "_hex": "0x493e0"
      },
      "to": "0xC4c51de1AbF5D60DBd329eC0F999Fd8f021ae9fC",
      "value": {
        "_hex": "0x0"
      },
      "nonce": 199,
      "data": "0x03750d9400000000000000000000000087c5b5874a18b4306df8a752a6c8cc3e82dafc196b6b6b0000000000000000000000000000000000000000000000000000000000",
      "r": "0xcf9d6f6ea40faa6201f0c89142808927c8b759a4c76ebd816367da108be5b96d",
      "s": "0x550bec75e499487647761beca906ac8b5656a92c80899c88a5af330b1d1bd833",
      "v": 28,
      "creates": null,
      "raw": "0xf8ac81c78601121f5cc306830493e094c4c51de1abf5d60dbd329ec0f999fd8f021ae9fc80b84403750d9400000000000000000000000087c5b5874a18b4306df8a752a6c8cc3e82dafc196b6b6b00000000000000000000000000000000000000000000000000000000001ca0cf9d6f6ea40faa6201f0c89142808927c8b759a4c76ebd816367da108be5b96da0550bec75e499487647761beca906ac8b5656a92c80899c88a5af330b1d1bd833",
      "networkId": 0,
      "chainId": 0
    }
  ]
}