{
  "hash": "0x056eae17cfa499eeff0d41b3612663afa60d4c0509625526d1d2a738b53b1821",
  "parentHash": "0x36a3524c41ed19be4eb62f666756c23354cf95c207e5d0a5fb7605e3538123cf",
  "number": 108324,
  "timestamp": 1439938300,
  "nonce": "0x6f0bebc5167a7fac",
  "difficulty": 4361756592508,
  "gasLimit": {
    "_hex": "0x2fefd8"
  },
  "gasUsed": {
    "_hex": "0xa410"
  },
  "miner": "0xe6A7a1d47ff21B6321162AEA7C6CB457D5476Bca",
  "extraData": "0x476574682f76312e302e312d38326566323666362f6c696e75782f676f312e34",
  "transactions": [
    {
      "hash": "0x8069e0d313f5da1ac68bec65cc1bcfbb4298a1e703ae7512376b938d80e15b0c",
      "blockHash": "0x056eae17cfa499eeff0d41b3612663afa60d4c0509625526d1d2a738b53b1821",
      "blockNumber": 108324,
      "transactionIndex": 0,
      "confirmations": null,
      "from": "0xFBb1b73C4f0BDa4f67dcA266ce6Ef42f520fBB98",
      "gasPrice": {
        "_hex": "0xd1c62a540"
      },
      "gasLimit": {
        "_hex": "0x5208"
      },
      "to": "0x434EB5ad1A8d64BEa8A9b24c03a7CA7bf7DefcF2",
      "value": {
        "_hex": "0x527a40cfea2cc00"
      },
      "nonce": 168,
      "data": "0x",
      "r": "0xc6bc4ac6b9ada93f7768c96f5cbb8a027a6f468e1c43372f53ab5d5fb7710f09",
      "s": "0x5afe107be5e015830476dfa45d4945b8580f534d805384a25851f866da16d5d9",
      "v": 27,
      "creates": null,
      "raw": "0xf86d81a8850d1c62a54082520894434eb5ad1a8d64bea8a9b24c03a7ca7bf7defcf2880527a40cfea2cc00801ba0c6bc4ac6b9ada93f7768c96f5cbb8a027a6f468e1c43372f53ab5d5fb7710f09a05afe107be5e015830476dfa45d4945b8580f534d805384a25851f866da16d5d9",
      "networkId": 0,
      "chainId": 0
    },
    {
      "hash": "0x3703b568715c27cb06bcb7df8b7095b79876e58261eae2aa51337204b4814478",
      "blockHash": "0x056eae17cfa499eeff0d41b3612663afa60d4c0509625526d1d2a738b53b1821",
      "blockNumber": 108324,
      "transactionIndex": 1,
      "confirmations": null,
      "from": "0xFBb1b73C4f0BDa4f67dcA266ce6Ef42f520fBB98",
      "gasPrice": {
        "_hex": "0xd1c62a540"
      },
      "gasLimit": {
        "_hex": "0x5208"
      },
      "to": "0x62b0559efe3a073EDfe78bBe7CB491A6C65F0806",
      "value": {
        "_hex": "0x6eaffc993244c00"
      },
      "nonce": 169,
      "data": "0x",
      "r": "0x289f12efe5e96c228e3a38ca128b8d06ed626be02c15fe32b0d7ff018ce111de",
      "s": "0x37547b64c264ecddd45f7b29babb7b5b7eb13dc60901b666610e644a77487a74",
      "v": 27,
      "creates": null,
      "raw": "0xf86d81a9850d1c62a5408252089462b0559efe3a073edfe78bbe7cb491a6c65f08068806eaffc993244c00801ba0289f12efe5e96c228e3a38ca128b8d06ed626be02c15fe32b0d7ff018ce111dea037547b64c264ecddd45f7b29babb7b5b7eb13dc60901b666610e644a77487a74",
      "networkId": 0,
      "chainId": 0
    }
  ]
}