{
  "hash": "0x130ca736fb27ee8e7c70c92b980106438e7f2513a2898adaf4b1c481f21ff8ee",
  "parentHash": "0xad0a1e66d784327812b87390ac35dc5ac6203838074616cdba1632b879655a5b",
  "number": 59949,
  "timestamp": 1439146411,
  "nonce": "0xf3829da5828baa02",
  "difficulty": 1735673369632,
  "gasLimit": {
    "_hex": "0x2fe3db"
  },
  "gasUsed": {
    "_hex": "0x5208"
  },
  "miner": "0xbb7B8287f3F0a933474a79eAe42CBCa977791171",
  "extraData": "0x476574682f4c5649562f76312e302e312f6c696e75782f676f312e342e32",
  "transactions": [
    {
      "hash": "0x5db6a856d0ea3a2128c4544bf1c9584b18cc928344f63418e5c4b967e5749219",
      "blockHash": "0x130ca736fb27ee8e7c70c92b980106438e7f2513a2898adaf4b1c481f21ff8ee",
      "blockNumber": 59949,
      "transactionIndex": 0,
      "confirmations": null,
      "from": "0x8155Fa6c51Eb31D808412d748aA086105018122f",
      "gasPrice": {
        "_hex": "0xcc7aa0dc2"
      },
      "gasLimit": {
        "_hex": "0x15f90"
      },
      "to": "0xc955d372Fe1c428D17CD86E05d26F0206F3677b1",
      "value": {
        "_hex": "0x0"
      },
      "nonce": 1,
      "data": "0x",
      "r": "0x35d67b99e4377b484dd6444901ed8102f2d826d92cdf21a6e06e7d7a14c6c611",
      "s": "0x6bbe7c6eea884eb3ccd0fce6943ec8e66be981e040d0560af3548baf91acb5ac",
      "v": 27,
      "creates": null,
      "raw": "0xf86501850cc7aa0dc283015f9094c955d372fe1c428d17cd86e05d26f0206f3677b180801ba035d67b99e4377b484dd6444901ed8102f2d826d92cdf21a6e06e7d7a14c6c611a06bbe7c6eea884eb3ccd0fce6943ec8e66be981e040d0560af3548baf91acb5ac",
      "networkId": 0,
      "chainId": 0
    }
  ]
}