{
  "hash": "0x88a03f0b86e949422b73ae85bf7a15734e488264e2f4a7e5842fb55b8a6e6ad9",
  "parentHash": "0x6025f66ce75a6b1ba70ddf59279544911ec1e1bf42f98f8a8e7adff7da564cde",
  "number": 70353,
  "timestamp": 1439318660,
  "nonce": "0x06c8cc33255266f6",
  "difficulty": 2136437207517,
  "gasLimit": {
    "_hex": "0x2fefd8"
  },
  "gasUsed": {
    "_hex": "0x5208"
  },
  "miner": "0xf927a40C8B7F6E07c5af7FA2155B4864a4112B13",
  "extraData": "0x",
  "transactions": [
    {
      "hash": "0xb94c38077384ce4722cd83c24da8ceed447fa9d358197ee06ba473f7ca4e6adc",
      "blockHash": "0x88a03f0b86e949422b73ae85bf7a15734e488264e2f4a7e5842fb55b8a6e6ad9",
      "blockNumber": 70353,
      "transactionIndex": 0,
      "confirmations": null,
      "from": "0xc97b6E47df229442524F8f210926557900f81574",
      "gasPrice": {
        "_hex": "0xcebd271bb"
      },
      "gasLimit": {
        "_hex": "0x5208"
      },
      "to": "0x32Be343B94f860124dC4fEe278FDCBD38C102D88",
      "value": {
        "_hex": "0x46c2b3092560c800"
      },
      "nonce": 8,
      "data": "0x",
      "r": "0x169e0bd4ada442bb4a6f4479e03212ba3e8ce2b12dc2c7308f9cfcce0dfa6227",
      "s": "0x45b19bc7868f32f58a14ca2cffe9a80cf7d3104883f4801de4dd8b63e0051cb0",
      "v": 27,
      "creates": null,
      "raw": "0xf86c08850cebd271bb8252089432be343b94f860124dc4fee278fdcbd38c102d888846c2b3092560c800801ba0169e0bd4ada442bb4a6f4479e03212ba3e8ce2b12dc2c7308f9cfcce0dfa6227a045b19bc7868f32f58a14ca2cffe9a80cf7d3104883f4801de4dd8b63e0051cb0",
      "networkId": 0,
      "chainId": 0
    }
  ]
}