{
  "hash": "0xd13f7563e84dd6ef81058136b69c1ebb2cc106a42ab01cbd02c43ddaf8282e84",
  "parentHash": "0xee39b18cde95a72e6df0e17b82d4af52fc1c02ab1d563f81b1d086595c81899e",
  "number": 64488,
  "timestamp": 1439221578,
  "nonce": "0x6315e06fb7c71807",
  "difficulty": 1874779553892,
  "gasLimit": {
    "_hex": "0x2fefd8"
  },
  "gasUsed": {
    "_hex": "0xa674"
  },
  "miner": "0xbb7B8287f3F0a933474a79eAe42CBCa977791171",
  "extraData": "0x476574682f4c5649562f76312e302e312f6c696e75782f676f312e342e32",
  "transactions": [
    {
      "hash": "0x89b6b7e81d033628352407ed3056dbfc8fc94091afe3a38bc1787c5bc83b4a3a",
      "blockHash": "0xd13f7563e84dd6ef81058136b69c1ebb2cc106a42ab01cbd02c43ddaf8282e84",
      "blockNumber": 64488,
      "transactionIndex": 0,
      "confirmations": null,
      "from": "0x91050A5cFfadedB4bb6EaafbC9E5013428E96c80",
      "gasPrice": {
        "_hex": "0x110c8f7d8de"
      },
      "gasLimit": {
        "_hex": "0xc350"
      },
      "to": "0x2910543Af39abA0Cd09dBb2D50200b3E800A63D2",
      "value": {
        "_hex": "0x25f273933db5700000"
      },
      "nonce": 0,
      "data": "0x454e5a3259514d4352",
      "r": "0x764a912ad0ac51109419eb93de250589a8832d17e2d25fb40f9aa151c595f81a",
      "s": "0x93ccf97cdc8d9e8d6d89a07ef6d3bd4740fcf286d9064991d5790353f894cb4f",
      "v": 27,
      "creates": null,
      "raw": "0xf87780860110c8f7d8de82c350942910543af39aba0cd09dbb2d50200b3e800a63d28925f273933db570000089454e5a3259514d43521ba0764a912ad0ac51109419eb93de250589a8832d17e2d25fb40f9aa151c595f81aa093ccf97cdc8d9e8d6d89a07ef6d3bd4740fcf286d9064991d5790353f894cb4f",
      "networkId": 0,
      "chainId": 0
    },
    {
      "hash": "0xc34300bcebf82e33152efba2858ea33607e5fe3945adf7040a8efc89426e0801",
      "blockHash": "0xd13f7563e84dd6ef81058136b69c1ebb2cc106a42ab01cbd02c43ddaf8282e84",
      "blockNumber": 64488,
      "transactionIndex": 1,
      "confirmations": null,
      "from": "0x2910543Af39abA0Cd09dBb2D50200b3E800A63D2",
      "gasPrice": {
        "_hex": "0xdc417ac4b"
      },
      "gasLimit": {
        "_hex": "0x5208"
      },
      "to": "0x6a6D69d85A96de30FAFbc28Fe5560C221F0314E6",
      "value": {
        "_hex": "0x6c6b819812855f8000"
      },
      "nonce": 143,
      "data": "0x",
      "r": "0x2c9c0efffd5bd077a843dd350cc142f13581f48312f12e26670d7b3ce06ea842",
      "s": "0x7b582b87eec1da7814b734ad0e69a870e46f5c60c97a0144fdd6877548a0568b",
      "v": 28,
      "creates": null,
      "raw": "0xf86e818f850dc417ac4b825208946a6d69d85a96de30fafbc28fe5560c221f0314e6896c6b819812855f8000801ca02c9c0efffd5bd077a843dd350cc142f13581f48312f12e26670d7b3ce06ea842a07b582b87eec1da7814b734ad0e69a870e46f5c60c97a0144fdd6877548a0568b",
      "networkId": 0,
      "chainId": 0
    }
  ]
}