{
  "hash": "0xfd08f886331768176c82b888ef219f6d94d3b2918e02d02fe08970bb71d9d439",
  "parentHash": "0x7719555745e04914a92174c3f18b63db335ce7be25e10438fb9dfb8ba72555a5",
  "number": 105887,
  "timestamp": 1439895040,
  "nonce": "0xf15780c729f13af4",
  "difficulty": 4455598845582,
  "gasLimit": {
    "_hex": "0x2fefd8"
  },
  "gasUsed": {
    "_hex": "0x5208"
  },
  "miner": "0xe6A7a1d47ff21B6321162AEA7C6CB457D5476Bca",
  "extraData": "0x476574682f76312e302e312d38326566323666362f6c696e75782f676f312e34",
  "transactions": [
    {
      "hash": "0xb0da73f235f8e4358655de7210d4480a54a55d7faa0f8b07c9f8baad66526caf",
      "blockHash": "0xfd08f886331768176c82b888ef219f6d94d3b2918e02d02fe08970bb71d9d439",
      "blockNumber": 105887,
      "transactionIndex": 0,
      "confirmations": null,
      "from": "0xa6BDc31c431B8F97848c9D60cbbe9660dc450eB7",
      "gasPrice": {
        "_hex": "0xd782cc9d2"
      },
      "gasLimit": {
        "_hex": "0x5208"
      },
      "to": "0x32Be343B94f860124dC4fEe278FDCBD38C102D88",
      "value": {
        "_hex": "0x455f35b6a69a7400"
      },
      "nonce": 175,
      "data": "0x",
      "r": "0xc70883937d07403d871161cf73e1c9d4a274d711edfc6f8f442535ab432ae4aa",
      "s": "0x68095532a7699602bd944c808976ee7336774952564fd4c701a12480450b22ce",
      "v": 27,
      "creates": null,
      "raw": "0xf86d81af850d782cc9d28252089432be343b94f860124dc4fee278fdcbd38c102d8888455f35b6a69a7400801ba0c70883937d07403d871161cf73e1c9d4a274d711edfc6f8f442535ab432ae4aaa068095532a7699602bd944c808976ee7336774952564fd4c701a12480450b22ce",
      "networkId": 0,
      "chainId": 0
    }
  ]
}