{
  "hash": "0x5c31877448d562e1aceb2fc2a5d845dadc700da8a13d76edc00ec17fe9e3154e",
  "parentHash": "0x0403457f13305aa93ed5a794aff203795290d8e484a260d073ce8411112c312c",
  "number": 72014,
  "timestamp": 1439345826,
  "nonce": "0x144c7e00de61700c",
  "difficulty": 2160137869864,
  "gasLimit": {
    "_hex": "0x2fefd8"
  },
  "gasUsed": {
    "_hex": "0x546c"
  },
  "miner": "0xe6A7a1d47ff21B6321162AEA7C6CB457D5476Bca",
  "extraData": "0x476574682f76312e302e312d38326566323666362f6c696e75782f676f312e34",
  "transactions": [
    {
      "hash": "0x96b29781b5dd61eb9a6dbca2f1a6f3c1e024435f80cb0e5ee6cd6130a3441b99",
      "blockHash": "0x5c31877448d562e1aceb2fc2a5d845dadc700da8a13d76edc00ec17fe9e3154e",
      "blockNumber": 72014,
      "transactionIndex": 0,
      "confirmations": null,
      "from": "0x293384C42b6F8F2905CE52b7205C2274376c612B",
      "gasPrice": {
        "_hex": "0x110c8f7d8de"
      },
      "gasLimit": {
        "_hex": "0xc350"
      },
      "to": "0x2910543Af39abA0Cd09dBb2D50200b3E800A63D2",
      "value": {
        "_hex": "0xaadec983fcff40000"
      },
      "nonce": 1,
      "data": "0x454e38433943383547",
      "r": "0x73eb50ba42f6633e1a456ab1c8bf1fa586be111d9d3391973ae3f8f1d23ceecd",
      "s": "0x2938b77a73698461683b0bc6966db6d039ad3d2b680198a083b44bfbd157aab2",
      "v": 27,
      "creates": null,
      "raw": "0xf87701860110c8f7d8de82c350942910543af39aba0cd09dbb2d50200b3e800a63d2890aadec983fcff4000089454e384339433835471ba073eb50ba42f6633e1a456ab1c8bf1fa586be111d9d3391973ae3f8f1d23ceecda02938b77a73698461683b0bc6966db6d039ad3d2b680198a083b44bfbd157aab2",
      "networkId": 0,
      "chainId": 0
    }
  ]
}