{
  "hash": "0x561553b1e01b9677d9ba7f4a4ff48a7cdddcbaa14d81e62508d86d75d545f06f",
  "parentHash": "0x4bf6c37fb5566125404d7b170e1c7594530cb88f602fa1c5704f90c8a33feb1b",
  "number": 100895,
  "timestamp": 1439814179,
  "nonce": "0x329d57ec814e1df5",
  "difficulty": 3865837819516,
  "gasLimit": {
    "_hex": "0x2fefd8"
  },
  "gasUsed": {
    "_hex": "0x5208"
  },
  "miner": "0x007f7f58D3eb5b7510A301eCC749FC1fCDDBE14D",
  "extraData": "0x476574682f76312e302e312f77696e646f77732f676f312e342e32",
  "transactions": [
    {
      "hash": "0x452a762e8fe016da3c1917d8fdf9dc337085569c28ca1afcaf648fab9c753e87",
      "blockHash": "0x561553b1e01b9677d9ba7f4a4ff48a7cdddcbaa14d81e62508d86d75d545f06f",
      "blockNumber": 100895,
      "transactionIndex": 0,
      "confirmations": null,
      "from": "0x226E8B888E9F360E1Aea28229C40E2adC5D698b5",
      "gasPrice": {
        "_hex": "0xcc0a504df"
      },
      "gasLimit": {
        "_hex": "0x15f90"
      },
      "to": "0xbA8c9CDA6af013Cc68A076E17c84d4cDbc5960c5",
      "value": {
        "_hex": "0x22b1c8c1227a00000"
      },
      "nonce": 3,
      "data": "0x",
      "r": "0xc544f8fc3688af9865d803371796dc8598aef127cefa17032253629a94485a0d",
      "s": "0x47bf7036bf829638a9dfc586ac04fb769373347f8bb5f58a959a8b432200fd4e",
      "v": 28,
      "creates": null,
      "raw": "0xf86e03850cc0a504df83015f9094ba8c9cda6af013cc68a076e17c84d4cdbc5960c589022b1c8c1227a00000801ca0c544f8fc3688af9865d803371796dc8598aef127cefa17032253629a94485a0da047bf7036bf829638a9dfc586ac04fb769373347f8bb5f58a959a8b432200fd4e",
      "networkId": 0,
      "chainId": 0
    }
  ]
}