{
  "hash": "0x942f99b281ea1ce16949bb4bce82bc866de8d3f15ef2e64704599f2a7a3ecf94",
  "parentHash": "0x6512a9da494ca83e3e59d6ce1bd816b3383495c3fbf7169dfad5b0ddffcff4de",
  "number": 108987,
  "timestamp": 1439949405,
  "nonce": "0xb2b8ffbec89b9f69",
  "difficulty": 4389184669706,
  "gasLimit": {
    "_hex": "0x2fefd8"
  },
  "gasUsed": {
    "_hex": "0x5208"
  },
  "miner": "0x2C674A948592B20a4B775E1a3991Db043E6CF0FE",
  "extraData": "0x476574682f76312e302e312d38326566323666362f6c696e75782f676f312e34",
  "transactions": [
    {
      "hash": "0xeeaefd0b8396fc7becdebbed15b84e4ead518d8e1ad4f6c7f9d829e2e5580db1",
      "blockHash": "0x942f99b281ea1ce16949bb4bce82bc866de8d3f15ef2e64704599f2a7a3ecf94",
      "blockNumber": 108987,
      "transactionIndex": 0,
      "confirmations": null,
      "from": "0x062cBAF3202c032d8aDeCdA64882CA4378BeD5A6",
      "gasPrice": {
        "_hex": "0xcce0da184"
      },
      "gasLimit": {
        "_hex": "0x5208"
      },
      "to": "0x32Be343B94f860124dC4fEe278FDCBD38C102D88",
      "value": {
        "_hex": "0x3635a20c6c567c0000"
      },
      "nonce": 0,
      "data": "0x",
      "r": "0xa9aaafd77f535e14d65e7d2e33785534ad682ee400a2fd1f31ca45f62367baee",
      "s": "0x121b2068d48638804a51352ae593464fcfdd7761f010186a46c4e149353dfe94",
      "v": 28,
      "creates": null,
      "raw": "0xf86d80850cce0da1848252089432be343b94f860124dc4fee278fdcbd38c102d88893635a20c6c567c0000801ca0a9aaafd77f535e14d65e7d2e33785534ad682ee400a2fd1f31ca45f62367baeea0121b2068d48638804a51352ae593464fcfdd7761f010186a46c4e149353dfe94",
      "networkId": 0,
      "chainId": 0
    }
  ]
}