{
  "hash": "0x2e3dcc40bf18d2df53ba6bf2a16be0197afe8a8a9727152e3303a0d107c5b74c",
  "parentHash": "0x039818aad09c768bc039bc1f62ce253e94067915e75a75c71769dd66abeecd22",
  "number": 50507,
  "timestamp": 1438990401,
  "nonce": "0xed3794888351c0f3",
  "difficulty": 1509677437631,
  "gasLimit": {
    "_hex": "0x672df"
  },
  "gasUsed": {
    "_hex": "0x546c"
  },
  "miner": "0xf927a40C8B7F6E07c5af7FA2155B4864a4112B13",
  "extraData": "0x476574682f76312e302e312f6c696e75782f676f312e342e32",
  "transactions": [
    {
      "hash": "0x15cd98574da1dc809cd5960c0f6fc4daa616f43f91d205929cf6fc189609477c",
      "blockHash": "0x2e3dcc40bf18d2df53ba6bf2a16be0197afe8a8a9727152e3303a0d107c5b74c",
      "blockNumber": 50507,
      "transactionIndex": 0,
      "confirmations": null,
      "from": "0xd2f1998e1cB1580CeC4F6c047dCd3dCeC54CF73c",
      "gasPrice": {
        "_hex": "0x110c8f7d8de"
      },
      "gasLimit": {
        "_hex": "0xc350"
      },
      "to": "0x2910543Af39abA0Cd09dBb2D50200b3E800A63D2",
      "value": {
        "_hex": "0x5698eef06670000"
      },
      "nonce": 2,
      "data": "0x454e30393534344330",
      "r": "0xa35d9f33df0bd2416094a55a0e0ffa55e722e7b02d248ead6e7cb19a8b121824",
      "s": "0x01bcf863c6e988e425096b6180124943af8565b182c3d5f9defa4f5a185ac7d2",
      "v": 27,
      "creates": null,
      "raw": "0xf87602860110c8f7d8de82c350942910543af39aba0cd09dbb2d50200b3e800a63d28805698eef0667000089454e303935343443301ba0a35d9f33df0bd2416094a55a0e0ffa55e722e7b02d248ead6e7cb19a8b121824a001bcf863c6e988e425096b6180124943af8565b182c3d5f9defa4f5a185ac7d2",
      "networkId": 0,
      "chainId": 0
    }
  ]
}