{
  "hash": "0x8f5a91f6f7836ba174c51ca50af88da154f292705f2a35edf05dee2bffb89658",
  "parentHash": "0x10879c1a0e8376f24eb8bc789a2d610a4ec5e1800d55af663baf3b721253258e",
  "number": 52558,
  "timestamp": 1439023457,
  "nonce": "0x2e6f1648b3cc006d",
  "difficulty": 1568666246914,
  "gasLimit": {
    "_hex": "0x1572e9"
  },
  "gasUsed": {
    "_hex": "0xf4240"
  },
  "miner": "0x29Ab575850dCEf127cd8D646fB3c208b3860C2F0",
  "extraData": "0x476574682f76312e302e312f6c696e75782f676f312e342e32",
  "transactions": [
    {
      "hash": "0xac510a7e498ee21b2a79fcd42bb92577bfb4fd4f9deb8849c25cb16e423d1c16",
      "blockHash": "0x8f5a91f6f7836ba174c51ca50af88da154f292705f2a35edf05dee2bffb89658",
      "blockNumber": 52558,
      "transactionIndex": 0,
      "confirmations": null,
      "from": "0x54dAeb3E8a6BBC797E4aD2b0339f134b186e4637",
      "gasPrice": {
        "_hex": "0xe7d27df17"
      },
      "gasLimit": {
        "_hex": "0x7a120"
      },
      "to": "0xBAA54d6E90c3F4d7Ebec11bD180134C7eD8eBb52",
      "value": {
        "_hex": "0x16345785d8a0000"
      },
      "nonce": 720,
      "data": "0x",
      "r": "0x312eb1c810910c1cd17f5248c39183c6f26fde7776f9318be9c66fff99bbaaca",
      "s": "0x4c8219b3739e3520a45575bbae474c8236106798bd294a21f1035f6ac5ecca62",
      "v": 28,
      "creates": null,
      "raw": "0xf86f8202d0850e7d27df178307a12094baa54d6e90c3f4d7ebec11bd180134c7ed8ebb5288016345785d8a0000801ca0312eb1c810910c1cd17f5248c39183c6f26fde7776f9318be9c66fff99bbaacaa04c8219b3739e3520a45575bbae474c8236106798bd294a21f1035f6ac5ecca62",
      "networkId": 0,
      "chainId": 0
    },
    {
      "hash": "0xaf8b386a44b1f8e4a94ce6f12980fcacc4924bfaff95c00d4e5f95d93eb4290f",
      "blockHash": "0x8f5a91f6f7836ba174c51ca50af88da154f292705f2a35edf05dee2bffb89658",
      "blockNumber": 52558,
      "transactionIndex": 1,
      "confirmations": null,
      "from": "0x54dAeb3E8a6BBC797E4aD2b0339f134b186e4637",
      "gasPrice": {
        "_hex": "0xe7d27df17"
      },
      "gasLimit": {
        "_hex": "0x7a120"
      },
      "to": "0xBAA54d6E90c3F4d7Ebec11bD180134C7eD8eBb52",
      "value": {
        "_hex": "0x16345785d8a0000"
      },
      "nonce": 721,
      "data": "0x",
      "r": "0x7419e6b1ec4a786906bc54fd451b1626ee5338c473a1f8c144d093d561654896",
      "s": "0x46ea9c1a7227cacbac27a8cb85808b019aae64eab9aba685a85abbeaec616bf4",
      "v": 27,
      "creates": null,
      "raw": "0xf86f8202d1850e7d27df178307a12094baa54d6e90c3f4d7ebec11bd180134c7ed8ebb5288016345785d8a0000801ba07419e6b1ec4a786906bc54fd451b1626ee5338c473a1f8c144d093d561654896a046ea9c1a7227cacbac27a8cb85808b019aae64eab9aba685a85abbeaec616bf4",
      "networkId": 0,
      "chainId": 0
    }
  ]
}