{
  "hash": "0x9e3269b4ba54c4fb4de98d82eeee46a1604fe416337952e2f5c70b158dfe0875",
  "parentHash": "0x92f3b8f0cc577e64f164aad76eb2125da1b5540b085e9fff69c643489bafb4b3",
  "number": 91197,
  "timestamp": 1439651887,
  "nonce": "0xaedc45438ffbc390",
  "difficulty": 3442324644805,
  "gasLimit": {
    "_hex": "0x2fefd8"
  },
  "gasUsed": {
    "_hex": "0x5208"
  },
  "miner": "0xe6A7a1d47ff21B6321162AEA7C6CB457D5476Bca",
  "extraData": "0x476574682f76312e302e312d38326566323666362f6c696e75782f676f312e34",
  "transactions": [
    {
      "hash": "0x515cd554ae9245fb82d699388cb9cbd3211d17b742e85d1051d794c27a0011e7",
      "blockHash": "0x9e3269b4ba54c4fb4de98d82eeee46a1604fe416337952e2f5c70b158dfe0875",
      "blockNumber": 91197,
      "transactionIndex": 0,
      "confirmations": null,
      "from": "0xcEf2F9eDE909391e2b692bb5001b8242F79f812b",
      "gasPrice": {
        "_hex": "0xba43b7400"
      },
      "gasLimit": {
        "_hex": "0x5265"
      },
      "to": "0x8Ba74c19d14CC77E53A2B1DA67e92F2454E56634",
      "value": {
        "_hex": "0x8ac7230489e80000"
      },
      "nonce": 0,
      "data": "0x",
      "r": "0xb6c2b2a032c67442dab1f099d8a9bf3a62b8ce25b176d010b615260995284fbc",
      "s": "0x67db2946bb2d4bbaa1804f1ed487d5d610daee6ad2ebaf402d325b1970c90131",
      "v": 27,
      "creates": null,
      "raw": "0xf86c80850ba43b7400825265948ba74c19d14cc77e53a2b1da67e92f2454e56634888ac7230489e80000801ba0b6c2b2a032c67442dab1f099d8a9bf3a62b8ce25b176d010b615260995284fbca067db2946bb2d4bbaa1804f1ed487d5d610daee6ad2ebaf402d325b1970c90131",
      "networkId": 0,
      "chainId": 0
    }
  ]
}