{
  "hash": "0x4954f2e6051bea5c000fd088e609393d27eedd4fe5d2c734d94d5e227a324413",
  "parentHash": "0x3e924c9f19b52ee2271c5e782f9b581cbde21b37ba58475eb115bff88168430f",
  "number": 103641,
  "timestamp": 1439856663,
  "nonce": "0xefabaf54da2fa774",
  "difficulty": 4203155120141,
  "gasLimit": {
    "_hex": "0x2fefd8"
  },
  "gasUsed": {
    "_hex": "0x5208"
  },
  "miner": "0xe6A7a1d47ff21B6321162AEA7C6CB457D5476Bca",
  "extraData": "0x476574682f76312e302e312d38326566323666362f6c696e75782f676f312e34",
  "transactions": [
    {
      "hash": "0x4ac9f6abd5b8255f35ac7ad2fe0715f743827f050f92a0dbc1dddbd388ba9147",
      "blockHash": "0x4954f2e6051bea5c000fd088e609393d27eedd4fe5d2c734d94d5e227a324413",
      "blockNumber": 103641,
      "transactionIndex": 0,
      "confirmations": null,
      "from": "0xcf00A85f3826941e7A25BFcF9Aac575d40410852",
      "gasPrice": {
        "_hex": "0xcb5bea614"
      },
      "gasLimit": {
        "_hex": "0x15f90"
      },
      "to": "0xD9666150A9dA92d9108198a4072970805a8B3428",
      "value": {
        "_hex": "0x4563918244f40000"
      },
      "nonce": 51,
      "data": "0x",
      "r": "0x43697c73106c4900c8626d58caef0a862f6502258e83450368aedc40adffeaa9",
      "s": "0x68dbac41006eeff69644ff63b13924c2253424574aa3d511b9356afb20370bc4",
      "v": 27,
      "creates": null,
      "raw": "0xf86d33850cb5bea61483015f9094d9666150a9da92d9108198a4072970805a8b3428884563918244f40000801ba043697c73106c4900c8626d58caef0a862f6502258e83450368aedc40adffeaa9a068dbac41006eeff69644ff63b13924c2253424574aa3d511b9356afb20370bc4",
      "networkId": 0,
      "chainId": 0
    }
  ]
}