{
  "hash": "0x57c32178208f544dba7eb8696ba4f7132537c854a74bc303cb335502e3d94b02",
  "parentHash": "0x7212b997610461f85960266b23aade06a5beeda65736790d4c6f892bc16d9f04",
  "number": 51259,
  "timestamp": 1439001903,
  "nonce": "0xd49efaf51c65a430",
  "difficulty": 1569675434270,
  "gasLimit": {
    "_hex": "0x9ec60"
  },
  "gasUsed": {
    "_hex": "0x7f328"
  },
  "miner": "0x3DfCf2bF579C831a03379a140b74f884e49CaFf3",
  "extraData": "0x",
  "transactions": [
    {
      "hash": "0xdd3cc9c269d476bdab210fafe4deaf4812f5887771a0b70258b9c763c076f984",
      "blockHash": "0x57c32178208f544dba7eb8696ba4f7132537c854a74bc303cb335502e3d94b02",
      "blockNumber": 51259,
      "transactionIndex": 0,
      "confirmations": null,
      "from": "0x4cfeF0a00715760Ed2b03C3782D07a4EA9A8dfDc",
      "gasPrice": {
        "_hex": "0xd5590b6be"
      },
      "gasLimit": {
        "_hex": "0x61a8"
      },
      "to": "0x8dd1564B9F5de977842650A81926AF713963C070",
      "value": {
        "_hex": "0x16345785d8a0000"
      },
      "nonce": 3,
      "data": "0x",
      "r": "0xbd50773e2efce34f36db27a752256f594cc7b00492bfa5d964a588440211f817",
      "s": "0x249f217b5ef6fb0e9024e332ea8afbd4c0580a20870fdd02cc497220b1307472",
      "v": 27,
      "creates": null,
      "raw": "0xf86c03850d5590b6be8261a8948dd1564b9f5de977842650a81926af713963c07088016345785d8a0000801ba0bd50773e2efce34f36db27a752256f594cc7b00492bfa5d964a588440211f817a0249f217b5ef6fb0e9024e332ea8afbd4c0580a20870fdd02cc497220b1307472",
      "networkId": 0,
      "chainId": 0
    },
    {
      "hash": "0x166b0e6c23a0c883ebf38bfe3daef062163334d548b2dc98444824479258b77e",
      "blockHash": "0x57c32178208f544dba7eb8696ba4f7132537c854a74bc303cb335502e3d94b02",
      "blockNumber": 51259,
      "transactionIndex": 1,
      "confirmations": null,
      "from": "0x2d9c5fECd2b44fBb6A1EC732ea059F4F1F9d2B5c",
      "gasPrice": {
        "_hex": "0xd4e85eded"
      },
      "gasLimit": {
        "_hex": "0x7a120"
      },
      "to": "0x109C4f2CCc82C4d77Bde15F306707320294Aea3F",
      "value": {
        "_hex": "0xde0b6b3a7640000"
      },
      "nonce": 2,
      "data": "0x",
      "r": "0x5cc580f44028b4e2dec860d11afe024aaea40b1586e270b3fefb13bfdcdff6a2",
      "s": "0x6a01521fe597fd44d652cdeb2ccc7ef2fa2201d2b706731030ddb74b94f509fa",
      "v": 27,
      "creates": null,
      "raw": "0xf86d02850d4e85eded8307a12094109c4f2ccc82c4d77bde15f306707320294aea3f880de0b6b3a7640000801ba05cc580f44028b4e2dec860d11afe024aaea40b1586e270b3fefb13bfdcdff6a2a06a01521fe597fd44d652cdeb2ccc7ef2fa2201d2b706731030ddb74b94f509fa",
      "networkId": 0,
      "chainId": 0
    }
  ]
}