{
  "hash": "0x343309f122b31bf2f87ab3747c1df573596c7bb8c17e32403b005f27d0b4162a",
  "parentHash": "0x0fed2c087d69c8e38b24f7e2e41ecdcecf10d6b1214a012bfc9487bb7374924d",
  "number": 90229,
  "timestamp": 1439636769,
  "nonce": "0xf520dbecb7125161",
  "difficulty": 3294706503269,
  "gasLimit": {
    "_hex": "0x2fefd8"
  },
  "gasUsed": {
    "_hex": "0xa410"
  },
  "miner": "0xC603Ab5ef41fC61AA8b76bEddb09e3Cfcbb174BD",
  "extraData": "0x476574682f76312e302e312f77696e646f77732f676f312e342e32",
  "transactions": [
    {
      "hash": "0xc7dfffbfbe0e06d8ea2311969302dbdf166518f112bc1446d7f1c92ef4c59832",
      "blockHash": "0x343309f122b31bf2f87ab3747c1df573596c7bb8c17e32403b005f27d0b4162a",
      "blockNumber": 90229,
      "transactionIndex": 0,
      "confirmations": null,
      "from": "0x6866e5e1FaBB4AbceF3EEb9Ea0d8CD6b52dfC9FF",
      "gasPrice": {
        "_hex": "0xd50770f19"
      },
      "gasLimit": {
        "_hex": "0x15f90"
      },
      "to": "0x01Ad0ACFf478127D9d702B1A13599D706cB759b1",
      "value": {
        "_hex": "0xd02ab486cedc0000"
      },
      "nonce": 22,
      "data": "0x",
      "r": "0x652414b2bc9cf9692edfa7e4fdb804abbbf669057c08fa58cf648610f0b534f9",
      "s": "0x05e15a8a5c926b0e0382269b849bb7b3d95d095f9b69cab70b1b60c0d88069d8",
      "v": 27,
      "creates": null,
      "raw": "0xf86d16850d50770f1983015f909401ad0acff478127d9d702b1a13599d706cb759b188d02ab486cedc0000801ba0652414b2bc9cf9692edfa7e4fdb804abbbf669057c08fa58cf648610f0b534f9a005e15a8a5c926b0e0382269b849bb7b3d95d095f9b69cab70b1b60c0d88069d8",
      "networkId": 0,
      "chainId": 0
    },
    {
      "hash": "0x05ac1b1b1e9a6b1add06a33cbf91a37f59ee0a356bcf98f0d47d4be4ac647333",
      "blockHash": "0x343309f122b31bf2f87ab3747c1df573596c7bb8c17e32403b005f27d0b4162a",
      "blockNumber": 90229,
      "transactionIndex": 1,
      "confirmations": null,
      "from": "0x47fe9Ce29dA03E8466a067e4321fD32312e39607",
      "gasPrice": {
        "_hex": "0xd1bf04ee7"
      },
      "gasLimit": {
        "_hex": "0x15f90"
      },
      "to": "0x132ACC4ebA2B5039C65849368648bc19f32BEd97",
      "value": {
        "_hex": "0xde0b6b3a7640000"
      },
      "nonce": 1,
      "data": "0x",
      "r": "0x6869169cd712db820f42e39c8163e425b748c02fe6bd3524d95de76ae10e60f8",
      "s": "0x4beb7b22538e3c8a7bdd587b8afa4a59a6788d8b5a921a27225347a6e14b044f",
      "v": 28,
      "creates": null,
      "raw": "0xf86d01850d1bf04ee783015f9094132acc4eba2b5039c65849368648bc19f32bed97880de0b6b3a7640000801ca06869169cd712db820f42e39c8163e425b748c02fe6bd3524d95de76ae10e60f8a04beb7b22538e3c8a7bdd587b8afa4a59a6788d8b5a921a27225347a6e14b044f",
      "networkId": 0,
      "chainId": 0
    }
  ]
}