{
  "hash": "0x92e13a626d25bdebb85f154d171c160e1fb62bccc216e7d37b62a1ff3199c0e5",
  "parentHash": "0x6d38c8506e19c5f2ddc617bcf20454bcd118df21d11f28230153f714a7ad0739",
  "number": 77289,
  "timestamp": 1439434687,
  "nonce": "0x57fb1f3052798eda",
  "difficulty": 2232751381050,
  "gasLimit": {
    "_hex": "0x2fefd8"
  },
  "gasUsed": {
    "_hex": "0x5208"
  },
  "miner": "0xbb7B8287f3F0a933474a79eAe42CBCa977791171",
  "extraData": "0x476574682f4c5649562f76312e302e312f6c696e75782f676f312e342e32",
  "transactions": [
    {
      "hash": "0x17b9c7fc7edf37fcd3f23fd012267a4bf80e811e3a0739fe2f13bfd24737e910",
      "blockHash": "0x92e13a626d25bdebb85f154d171c160e1fb62bccc216e7d37b62a1ff3199c0e5",
      "blockNumber": 77289,
      "transactionIndex": 0,
      "confirmations": null,
      "from": "0xB7268c7705A1866b2A78e882fdfDc8E2a4e1428E",
      "gasPrice": {
        "_hex": "0xdef99a3bb"
      },
      "gasLimit": {
        "_hex": "0x15f90"
      },
      "to": "0x96811Ad897894eC178872117C8BF2f03971A393B",
      "value": {
        "_hex": "0x4563918244f40000"
      },
      "nonce": 16,
      "data": "0x",
      "r": "0xc2fa19855de9d8a0fd5bd0887ede2a0b8ca188e877efc382aabcbe3808f59791",
      "s": "0x4b0f5669f0616454828312ffb799084b75a006f130b08d95fa27597e753515f1",
      "v": 28,
      "creates": null,
      "raw": "0xf86d10850def99a3bb83015f909496811ad897894ec178872117c8bf2f03971a393b884563918244f40000801ca0c2fa19855de9d8a0fd5bd0887ede2a0b8ca188e877efc382aabcbe3808f59791a04b0f5669f0616454828312ffb799084b75a006f130b08d95fa27597e753515f1",
      "networkId": 0,
      "chainId": 0
    }
  ]
}