{
  "hash": "0x45eee455a836f66c38ba4cac5a69e76dfdd13de7cf3a222c353b1ae72e1820a9",
  "parentHash": "0x3edca1aeadfc498b90e97dc2c887f2d5016be49478acc1b15b74bdf0b04b7c40",
  "number": 79336,
  "timestamp": 1439467859,
  "nonce": "0xdce0414b31f36dc9",
  "difficulty": 2347341894848,
  "gasLimit": {
    "_hex": "0x2fefd8"
  },
  "gasUsed": {
    "_hex": "0xa410"
  },
  "miner": "0x88D74a59454F6cF3B51ef6b9136AFb6b9D405A88",
  "extraData": "0x476574682f76312e302e312d37666266393930632f6c696e75782f676f312e34",
  "transactions": [
    {
      "hash": "0x4c5d09f7eca58556ccd0eb5c206f40d68ceb96db4dce20d54eba96890d5012e2",
      "blockHash": "0x45eee455a836f66c38ba4cac5a69e76dfdd13de7cf3a222c353b1ae72e1820a9",
      "blockNumber": 79336,
      "transactionIndex": 0,
      "confirmations": null,
      "from": "0x5170535271F5B9eC438c0447b3daD67b3E2633f2",
      "gasPrice": {
        "_hex": "0xba43b7400"
      },
      "gasLimit": {
        "_hex": "0x5208"
      },
      "to": "0xC47Aaa860008be6f65B58c6C6E02a84e666EfE31",
      "value": {
        "_hex": "0x377f1fd6708c38f0"
      },
      "nonce": 6,
      "data": "0x",
      "r": "0x2d676a22e9ba085cbe0f0af0a197599ba0243c82afaff320309aca2e1d4d8c9a",
      "s": "0x5922d2c10e54a07f27f86ecbc7a798e726286aa6f127743a5351dd548a6fa9b2",
      "v": 28,
      "creates": null,
      "raw": "0xf86c06850ba43b740082520894c47aaa860008be6f65b58c6c6e02a84e666efe3188377f1fd6708c38f0801ca02d676a22e9ba085cbe0f0af0a197599ba0243c82afaff320309aca2e1d4d8c9aa05922d2c10e54a07f27f86ecbc7a798e726286aa6f127743a5351dd548a6fa9b2",
      "networkId": 0,
      "chainId": 0
    },
    {
      "hash": "0xb3a076da64fea744ff97bd2e8167aff48129185ff09f361795839faaf76de598",
      "blockHash": "0x45eee455a836f66c38ba4cac5a69e76dfdd13de7cf3a222c353b1ae72e1820a9",
      "blockNumber": 79336,
      "transactionIndex": 1,
      "confirmations": null,
      "from": "0x8eC407EDf8FAbf4dCDD81b9bf6AC7f07591D1488",
      "gasPrice": {
        "_hex": "0xba43b7400"
      },
      "gasLimit": {
        "_hex": "0x5208"
      },
      "to": "0xC47Aaa860008be6f65B58c6C6E02a84e666EfE31",
      "value": {
        "_hex": "0xdb974c90a9f38f0"
      },
      "nonce": 0,
      "data": "0x",
      "r": "0xe45f8acc431689fcb6db5078f73ec0452071dd253efbee4bb92ec8f47cde632e",
      "s": "0x7c4307fc631633f9eba7ab962aefef7b135771fbf3d0008fc90ee40f58df14eb",
      "v": 28,
      "creates": null,
      "raw": "0xf86c80850ba43b740082520894c47aaa860008be6f65b58c6c6e02a84e666efe31880db974c90a9f38f0801ca0e45f8acc431689fcb6db5078f73ec0452071dd253efbee4bb92ec8f47cde632ea07c4307fc631633f9eba7ab962aefef7b135771fbf3d0008fc90ee40f58df14eb",
      "networkId": 0,
      "chainId": 0
    }
  ]
}