{
  "hash": "0x391c413d0255268c700beaaebe12148bc2e2db854855d8d10e708eab24a31371",
  "parentHash": "0x29a34066679090c422b774b2d6564182dd4cd07cfd7174ddea37d640de002ef2",
  "number": 51430,
  "timestamp": 1439004782,
  "nonce": "0x5f779e1327a504b9",
  "difficulty": 1564287602697,
  "gasLimit": {
    "_hex": "0xb0105"
  },
  "gasUsed": {
    "_hex": "0x10831"
  },
  "miner": "0x0037ce3d4B7f8729C8607D8D0248252Be68202c0",
  "extraData": "0x476574682f76312e302e312f77696e646f77732f676f312e342e32",
  "transactions": [
    {
      "hash": "0xdb5a74883f5c2b10b614527c05b7d819e2cfb9b97d9e252baf4a29aa03d326ad",
      "blockHash": "0x391c413d0255268c700beaaebe12148bc2e2db854855d8d10e708eab24a31371",
      "blockNumber": 51430,
      "transactionIndex": 0,
      "confirmations": null,
      "from": "0x2905726Ed11131A984ce9C0119cB32DBC99dE90B",
      "gasPrice": {
        "_hex": "0x105c0d55110"
      },
      "gasLimit": {
        "_hex": "0x186a0"
      },
      "to": "0xd94BAdbEC21695B7a36ABCb979EFad0108319d18",
      "value": {
        "_hex": "0x5af3107a4000"
      },
      "nonce": 12,
      "data": "0xa69beaba4d656c616e63686f6c6961000000000000000000000000000000000000000000",
      "r": "0x235e72f243829eb561bded10720630a9066be7c6313b93e5ae2b741cf4f65276",
      "s": "0x2ddcb743183bd0eafa885cbd56b34884fd6fe20af54f9e1838a4595f1297aa69",
      "v": 28,
      "creates": null,
      "raw": "0xf8900c860105c0d55110830186a094d94badbec21695b7a36abcb979efad0108319d18865af3107a4000a4a69beaba4d656c616e63686f6c69610000000000000000000000000000000000000000001ca0235e72f243829eb561bded10720630a9066be7c6313b93e5ae2b741cf4f65276a02ddcb743183bd0eafa885cbd56b34884fd6fe20af54f9e1838a4595f1297aa69",
      "networkId": 0,
      "chainId": 0
    }
  ]
}