{
  "hash": "0x5d6b5ba5be814eb78f1d0a653559409fe73a77f4e059f3a800feb073b99c1078",
  "parentHash": "0xe07bb975f51de202e88e6e2b987d6cd4a8665690e01fc0ee77fd93ef8e534a5e",
  "number": 74500,
  "timestamp": 1439387036,
  "nonce": "0x5583f584c1f34d4a",
  "difficulty": 2212868767088,
  "gasLimit": {
    "_hex": "0x2fefd8"
  },
  "gasUsed": {
    "_hex": "0x5208"
  },
  "miner": "0x123843545FB525C8E134c9A5F15ADA6865cc3848",
  "extraData": "0x476574682f76312e302e312f77696e646f77732f676f312e342e32",
  "transactions": [
    {
      "hash": "0x02b4089b641d5bfc90d8139fbddcb570209a71a2ee95fc6638f2ebf9de648edd",
      "blockHash": "0x5d6b5ba5be814eb78f1d0a653559409fe73a77f4e059f3a800feb073b99c1078",
      "blockNumber": 74500,
      "transactionIndex": 0,
      "confirmations": null,
      "from": "0x6E8A26689f7A2FdEfd009CBaaA5310253450DABa",
      "gasPrice": {
        "_hex": "0xd8364fc25"
      },
      "gasLimit": {
        "_hex": "0x15f90"
      },
      "to": "0xd6986162E8B905e6a771C3BCD1b2baa2B0bb386F",
      "value": {
        "_hex": "0xde0b6b3a7640000"
      },
      "nonce": 5,
      "data": "0x",
      "r": "0x718b10935975011bc68a17599d92123dbb50f026ca79500a1124172b8f046ef6",
      "s": "0x1c8865d01fa22fd62b90ec9945a45058cfc892a17cec58ddc56715c74991632e",
      "v": 27,
      "creates": null,
      "raw": "0xf86d05850d8364fc2583015f9094d6986162e8b905e6a771c3bcd1b2baa2b0bb386f880de0b6b3a7640000801ba0718b10935975011bc68a17599d92123dbb50f026ca79500a1124172b8f046ef6a01c8865d01fa22fd62b90ec9945a45058cfc892a17cec58ddc56715c74991632e",
      "networkId": 0,
      "chainId": 0
    }
  ]
}