{
  "hash": "0x5c7e0f811a36605a89614db081f3e6950edb0666e82dbe68c4755469db11bb02",
  "parentHash": "0x87b4aa2861b014dcfa11d07d82304d4cb10aac1b5be9b254ce7d8ee41a7e1dc3",
  "number": 115146,
  "timestamp": 1440052368,
  "nonce": "0xad03b25293d316b8",
  "difficulty": 4531822251527,
  "gasLimit": {
    "_hex": "0x2fefd8"
  },
  "gasUsed": {
    "_hex": "0xf618"
  },
  "miner": "0x52bc44d5378309EE2abF1539BF71dE1b7d7bE3b5",
  "extraData": "0x476574682f76312e302e312d65626434373230372f6c696e75782f676f312e34",
  "transactions": [
    {
      "hash": "0x666b72739e132c98bff21c16a31a04fd1bb1415d54f4cb5c5995f62d67c935df",
      "blockHash": "0x5c7e0f811a36605a89614db081f3e6950edb0666e82dbe68c4755469db11bb02",
      "blockNumber": 115146,
      "transactionIndex": 0,
      "confirmations": null,
      "from": "0x823004a8D39583f74b7e01418FDe2568725243e4",
      "gasPrice": {
        "_hex": "0xdc93e9aaf"
      },
      "gasLimit": {
        "_hex": "0x5208"
      },
      "to": "0xFBb1b73C4f0BDa4f67dcA266ce6Ef42f520fBB98",
      "value": {
        "_hex": "0x1ab45c386ec0888"
      },
      "nonce": 0,
      "data": "0x",
      "r": "0x6ab1f88e2bef226f376ba2ac9f8bfb844e97799fa4d9fb7bac64aeb788b8eb14",
      "s": "0x05cb2cfd343c6a8da846ae12f7d25643779ebbbf3d92e57e43fd9b909b92f091",
      "v": 28,
      "creates": null,
      "raw": "0xf86c80850dc93e9aaf82520894fbb1b73c4f0bda4f67dca266ce6ef42f520fbb988801ab45c386ec0888801ca06ab1f88e2bef226f376ba2ac9f8bfb844e97799fa4d9fb7bac64aeb788b8eb14a005cb2cfd343c6a8da846ae12f7d25643779ebbbf3d92e57e43fd9b909b92f091",
      "networkId": 0,
      "chainId": 0
    },
    {
      "hash": "0x41ed795f21dfdc1ff5a3ad2e0c649e29c9dc4c55d55c5936e0807abfb1440761",
      "blockHash": "0x5c7e0f811a36605a89614db081f3e6950edb0666e82dbe68c4755469db11bb02",
      "blockNumber": 115146,
      "transactionIndex": 1,
      "confirmations": null,
      "from": "0x1C8ec4eb0bf7e12EaAA128F202bee847ee920a63",
      "gasPrice": {
        "_hex": "0xd3b0a4499"
      },
      "gasLimit": {
        "_hex": "0x15f90"
      },
      "to": "0x0a856CdC3EaFBAD120c51220d0F71d4Aa2Dee7AE",
      "value": {
        "_hex": "0x3782dace9d900000"
      },
      "nonce": 0,
      "data": "0x",
      "r": "0x1405f8e95c43813330503108a1233945f96b4f05122c4cbc4161749535cb15ee",
      "s": "0x0282cab4d8a08e94b755e7d45fbb5b07f3487c7b60690737b90ddddd2ffdf7b4",
      "v": 28,
      "creates": null,
      "raw": "0xf86d80850d3b0a449983015f90940a856cdc3eafbad120c51220d0f71d4aa2dee7ae883782dace9d900000801ca01405f8e95c43813330503108a1233945f96b4f05122c4cbc4161749535cb15eea00282cab4d8a08e94b755e7d45fbb5b07f3487c7b60690737b90ddddd2ffdf7b4",
      "networkId": 0,
      "chainId": 0
    },
    {
      "hash": "0x38d0b468737e99c291663b0d0357fc676f51ffd4a5a63eddcf36210636f72eaa",
      "blockHash": "0x5c7e0f811a36605a89614db081f3e6950edb0666e82dbe68c4755469db11bb02",
      "blockNumber": 115146,
      "transactionIndex": 2,
      "confirmations": null,
      "from": "0x744Df4ED8BaC8eBCa76964a93358c3A67a89b003",
      "gasPrice": {
        "_hex": "0xba43b7400"
      },
      "gasLimit": {
        "_hex": "0x5265"
      },
      "to": "0x08FE5A3C0709cF74d76cFd0e0Cd9d2A447eA263C",
      "value": {
        "_hex": "0xde0b6b3a7640000"
      },
      "nonce": 5,
      "data": "0x",
      "r": "0x73c888eaf3bc80e0650939a75441bce33f53bbc15eacd469226ce20f1eb10f40",
      "s": "0xea549e339b3d7824fbc0cf90e3b365c4c3594eeab24c1333f06992511375ef01",
      "v": 27,
      "creates": null,
      "raw": "0xf86c05850ba43b74008252659408fe5a3c0709cf74d76cfd0e0cd9d2a447ea263c880de0b6b3a7640000801ba073c888eaf3bc80e0650939a75441bce33f53bbc15eacd469226ce20f1eb10f40a0ea549e339b3d7824fbc0cf90e3b365c4c3594eeab24c1333f06992511375ef01",
      "networkId": 0,
      "chainId": 0
    }
  ]
}