{
  "hash": "0xe1f75c0d1a69ed206d246e7aee729c3f20bebf90757d4b50d31ebf29eac8c738",
  "parentHash": "0xd08b9f1d370fbc1add5d84e35bc5c93628aec64b0183a1c5f5edccf57b17fd95",
  "number": 63502,
  "timestamp": 1439205541,
  "nonce": "0x7a8ab01fe3fe1fc9",
  "difficulty": 1835146371722,
  "gasLimit": {
    "_hex": "0x2fefd8"
  },
  "gasUsed": {
    "_hex": "0x5208"
  },
  "miner": "0xf927a40C8B7F6E07c5af7FA2155B4864a4112B13",
  "extraData": "0x476574682f76312e302e312f6c696e75782f676f312e342e32",
  "transactions": [
    {
      "hash": "0xd9850635d702d385d1f3d533b28b257645009152c2c10b2d6e2bdce51eaa55e0",
      "blockHash": "0xe1f75c0d1a69ed206d246e7aee729c3f20bebf90757d4b50d31ebf29eac8c738",
      "blockNumber": 63502,
      "transactionIndex": 0,
      "confirmations": null,
      "from": "0xa914cDb571BFd93D64da66a4e108EA134e50D000",
      "gasPrice": {
        "_hex": "0x9184e72a000"
      },
      "gasLimit": {
        "_hex": "0x9965e"
      },
      "to": "0xCb88dAC50e0b4f450f3a5d02c2D65Bc56361313E",
      "value": {
        "_hex": "0xde0b6b3a7640000"
      },
      "nonce": 8,
      "data": "0x",
      "r": "0x943bd92ab17b3c7bc1ed48f483b9f98f8a13d89f698510daf95629b952108937",
      "s": "0x6b70ca7daf17382100749144e0196b7ac03475f007413bd5799410d5001165ac",
      "v": 28,
      "creates": null,
      "raw": "0xf86e088609184e72a0008309965e94cb88dac50e0b4f450f3a5d02c2d65bc56361313e880de0b6b3a7640000801ca0943bd92ab17b3c7bc1ed48f483b9f98f8a13d89f698510daf95629b952108937a06b70ca7daf17382100749144e0196b7ac03475f007413bd5799410d5001165ac",
      "networkId": 0,
      "chainId": 0
    }
  ]
}