{
  "hash": "0x57d1c1c0eee702aa032bba71c0c50054668bdb4b8dbd36940b4a1bf30446604d",
  "parentHash": "0x10c73ce0fb22b04ed2913cd8aa6cdef29b246387a77fc8fcbde111db48f95428",
  "number": 53749,
  "timestamp": 1439042863,
  "nonce": "0x4d6e365bb3615b3b",
  "difficulty": 1597037201294,
  "gasLimit": {
    "_hex": "0x2fefd8"
  },
  "gasUsed": {
    "_hex": "0x5208"
  },
  "miner": "0xf927a40C8B7F6E07c5af7FA2155B4864a4112B13",
  "extraData": "0x",
  "transactions": [
    {
      "hash": "0x886d6f0f3637fab313023178ecf3dc3ca5d1ffd90c8758b6795cc372f5e6cf8c",
      "blockHash": "0x57d1c1c0eee702aa032bba71c0c50054668bdb4b8dbd36940b4a1bf30446604d",
      "blockNumber": 53749,
      "transactionIndex": 0,
      "confirmations": null,
      "from": "0x80459F7950368e582175a9AC45E2d9a1B76932EF",
      "gasPrice": {
        "_hex": "0xd1f1f4650"
      },
      "gasLimit": {
        "_hex": "0x15f90"
      },
      "to": "0x15ce449d4c7f47a4Ea1d1C8Ab5E15F10D8BdFEce",
      "value": {
        "_hex": "0xb1a2bc2ec50000"
      },
      "nonce": 0,
      "data": "0x",
      "r": "0x2791c91af6eed22e68715735e2527bb5abff46390ef6cb5b517597f6168c9250",
      "s": "0x553c1d00fcd3e9e029eb460690204cc48757be0850fef39df5aedc3499a742a3",
      "v": 28,
      "creates": null,
      "raw": "0xf86c80850d1f1f465083015f909415ce449d4c7f47a4ea1d1c8ab5e15f10d8bdfece87b1a2bc2ec50000801ca02791c91af6eed22e68715735e2527bb5abff46390ef6cb5b517597f6168c9250a0553c1d00fcd3e9e029eb460690204cc48757be0850fef39df5aedc3499a742a3",
      "networkId": 0,
      "chainId": 0
    }
  ]
}