{
  "hash": "0xa8d46ad5d796784f05ba89d7ca9c21f7a1914c88f722988a6cda25c6b7573450",
  "parentHash": "0x5d3e8fe205202e5c211f0559d23c337f8898e5a4cdc7de2e40b7f46217225a5c",
  "number": 51667,
  "timestamp": 1439008785,
  "nonce": "0x90242b914b2e96a6",
  "difficulty": 1560429112205,
  "gasLimit": {
    "_hex": "0xccfab"
  },
  "gasUsed": {
    "_hex": "0x7a120"
  },
  "miner": "0xe6A7a1d47ff21B6321162AEA7C6CB457D5476Bca",
  "extraData": "0x657468706f6f6c2e6f7267",
  "transactions": [
    {
      "hash": "0x428e99e7c5a341f7e8dfda9d16ecae00602b91978cfdf6d2add4b2288a2c226a",
      "blockHash": "0xa8d46ad5d796784f05ba89d7ca9c21f7a1914c88f722988a6cda25c6b7573450",
      "blockNumber": 51667,
      "transactionIndex": 0,
      "confirmations": null,
      "from": "0xFCf9f6A78f06227522c6f948ec0119dA31680Ef7",
      "gasPrice": {
        "_hex": "0xd9eee3f8e"
      },
      "gasLimit": {
        "_hex": "0x7a120"
      },
      "to": "0x109C4f2CCc82C4d77Bde15F306707320294Aea3F",
      "value": {
        "_hex": "0xde0b6b3a7640000"
      },
      "nonce": 53,
      "data": "0x",
      "r": "0x2b617fc4751ea8bdd007939e07d23311ce90e39a08f8566e5215892b9735a96c",
      "s": "0x5712856b29966b752721475d9376209db141ba69791566b35e89d6a878cebbfe",
      "v": 28,
      "creates": null,
      "raw": "0xf86d35850d9eee3f8e8307a12094109c4f2ccc82c4d77bde15f306707320294aea3f880de0b6b3a7640000801ca02b617fc4751ea8bdd007939e07d23311ce90e39a08f8566e5215892b9735a96ca05712856b29966b752721475d9376209db141ba69791566b35e89d6a878cebbfe",
      "networkId": 0,
      "chainId": 0
    }
  ]
}