{
  "hash": "0x983470a0f309e126bb90e8ebae66bde97e5090d9052a2e280e489ab4a14e0262",
  "parentHash": "0x6f122db75a3686a2be44dbba8f996721cc02657fdb087807ed12d00d0ba75d47",
  "number": 115434,
  "timestamp": 1440057163,
  "nonce": "0x3ca93a168ac9883a",
  "difficulty": 4567208971412,
  "gasLimit": {
    "_hex": "0x2fefd8"
  },
  "gasUsed": {
    "_hex": "0x5208"
  },
  "miner": "0xdd2F1e6e498202e86D8f5442Af596580A4f03c2C",
  "extraData": "0x476574682f76312e302e312d38326566323666362f6c696e75782f676f312e34",
  "transactions": [
    {
      "hash": "0xed1df1738df4ed32fb2af276a7f49b3fb00625936119058b865465550898677e",
      "blockHash": "0x983470a0f309e126bb90e8ebae66bde97e5090d9052a2e280e489ab4a14e0262",
      "blockNumber": 115434,
      "transactionIndex": 0,
      "confirmations": null,
      "from": "0x037658E13e294088Cfd16A534b9C1F3B37282eB2",
      "gasPrice": {
        "_hex": "0xcd924b82b"
      },
      "gasLimit": {
        "_hex": "0x5208"
      },
      "to": "0x32Be343B94f860124dC4fEe278FDCBD38C102D88",
      "value": {
        "_hex": "0x28590a3ca3653400"
      },
      "nonce": 7,
      "data": "0x",
      "r": "0xd913446663e6992c25fceb735bcf1e3f04fd7d11d5eb319d186e720942e5ff74",
      "s": "0x4fce51f5f1574f34123529558b3a34758387a84692a8483b82684778c3c81ec4",
      "v": 28,
      "creates": null,
      "raw": "0xf86c07850cd924b82b8252089432be343b94f860124dc4fee278fdcbd38c102d888828590a3ca3653400801ca0d913446663e6992c25fceb735bcf1e3f04fd7d11d5eb319d186e720942e5ff74a04fce51f5f1574f34123529558b3a34758387a84692a8483b82684778c3c81ec4",
      "networkId": 0,
      "chainId": 0
    }
  ]
}