{
  "hash": "0x98cae29b74fc4422f8a9c4311e6e4ceda927fc8cadc2de6ee070ee1560c03d2d",
  "parentHash": "0x6b8080cf81e4795581386f108b18dc0d3ec6459685ab49547badcf3e41f42911",
  "number": 74394,
  "timestamp": 1439385327,
  "nonce": "0xe182834e004efe28",
  "difficulty": 2217223017269,
  "gasLimit": {
    "_hex": "0x2fefd8"
  },
  "gasUsed": {
    "_hex": "0x1b432"
  },
  "miner": "0xe6A7a1d47ff21B6321162AEA7C6CB457D5476Bca",
  "extraData": "0x476574682f76312e302e312d38326566323666362f6c696e75782f676f312e34",
  "transactions": [
    {
      "hash": "0x2d31162541328c4c23c5bb2123d3f0144c5271bdb40220cb140aefe4820ec24d",
      "blockHash": "0x98cae29b74fc4422f8a9c4311e6e4ceda927fc8cadc2de6ee070ee1560c03d2d",
      "blockNumber": 74394,
      "transactionIndex": 0,
      "confirmations": null,
      "from": "0x326Be8F71bFb0379f989aAB1CC1fE37f0a771f60",
      "gasPrice": {
        "_hex": "0x1147e7725a8"
      },
      "gasLimit": {
        "_hex": "0x493e0"
      },
      "to": "0x88A91FD7Fb8AAEa8cDAD2C990f1DBDcd28022a02",
      "value": {
        "_hex": "0x8ac7230489e80000"
      },
      "nonce": 54,
      "data": "0x8d21618600000000000000000000000000000000000000000000000000000000000000faf9b251079ffae889435fdd3bbd61ca5fdde58add87c68197c6b30a2e09b0e014",
      "r": "0xe1dacfa81f2aee68340d2f8891b1eb71d9ddb59c925a800a92a61099a6c71a5b",
      "s": "0x4d702d571853d5e977ea316f9db9e4c5d5792abbaf7b455e63015f30e4dd9de8",
      "v": 27,
      "creates": null,
      "raw": "0xf8b3368601147e7725a8830493e09488a91fd7fb8aaea8cdad2c990f1dbdcd28022a02888ac7230489e80000b8448d21618600000000000000000000000000000000000000000000000000000000000000faf9b251079ffae889435fdd3bbd61ca5fdde58add87c68197c6b30a2e09b0e0141ba0e1dacfa81f2aee68340d2f8891b1eb71d9ddb59c925a800a92a61099a6c71a5ba04d702d571853d5e977ea316f9db9e4c5d5792abbaf7b455e63015f30e4dd9de8",
      "networkId": 0,
      "chainId": 0
    }
  ]
}