{
  "hash": "0x31d0f9db9aea02c1df6a15465e1f13d3e328321ad73739f4c92588bd4e8ba9d6",
  "parentHash": "0xb432e12773a16f8149ef84476fdefa69baf6df8a29734bd0e15e72f3ac90d703",
  "number": 94818,
  "timestamp": 1439714646,
  "nonce": "0xa5e917440f49c6df",
  "difficulty": 3496731369190,
  "gasLimit": {
    "_hex": "0x2fefd8"
  },
  "gasUsed": {
    "_hex": "0xf618"
  },
  "miner": "0xE87470b43FA5904a32866396B2f798D898c13978",
  "extraData": "0x",
  "transactions": [
    {
      "hash": "0x41722810a068da314d261a7ab008113b036070a568773f448909f6ec031e80de",
      "blockHash": "0x31d0f9db9aea02c1df6a15465e1f13d3e328321ad73739f4c92588bd4e8ba9d6",
      "blockNumber": 94818,
      "transactionIndex": 0,
      "confirmations": null,
      "from": "0x7339BF89A60F8a29d0Ed436F3198774F8e191f37",
      "gasPrice": {
        "_hex": "0xde029fcba"
      },
      "gasLimit": {
        "_hex": "0x5208"
      },
      "to": "0x32Be343B94f860124dC4fEe278FDCBD38C102D88",
      "value": {
        "_hex": "0xcbb56f137e6af000"
      },
      "nonce": 6,
      "data": "0x",
      "r": "0x32fc264f10c97b8da016e1ab5639b3bf9d6bbce72b8803962ab17f8146f70689",
      "s": "0x705a6cc39b003dec5d5003bdd9073a57388d59dc9e99915a18da594e634aec6b",
      "v": 28,
      "creates": null,
      "raw": "0xf86c06850de029fcba8252089432be343b94f860124dc4fee278fdcbd38c102d8888cbb56f137e6af000801ca032fc264f10c97b8da016e1ab5639b3bf9d6bbce72b8803962ab17f8146f70689a0705a6cc39b003dec5d5003bdd9073a57388d59dc9e99915a18da594e634aec6b",
      "networkId": 0,
      "chainId": 0
    },
    {
      "hash": "0x1594ba683b3974a8cd53c32fceb71421a86b64c181e8c4a390798548e9ebc193",
      "blockHash": "0x31d0f9db9aea02c1df6a15465e1f13d3e328321ad73739f4c92588bd4e8ba9d6",
      "blockNumber": 94818,
      "transactionIndex": 1,
      "confirmations": null,
      "from": "0xb1abce2918E21ddb93AA452731a12672A3d9F75a",
      "gasPrice": {
        "_hex": "0xde029fcba"
      },
      "gasLimit": {
        "_hex": "0x5208"
      },
      "to": "0x32Be343B94f860124dC4fEe278FDCBD38C102D88",
      "value": {
        "_hex": "0x455f2a86d578fc00"
      },
      "nonce": 25,
      "data": "0x",
      "r": "0xeb4e28ef25d4ffbeb1333dbff76209ed0e4c3a96209fd078fe2b736d1ecbdfc8",
      "s": "0x354f70e061183927a53214b2af16cb3c12d5c5a0962068e462b2b978c4501beb",
      "v": 27,
      "creates": null,
      "raw": "0xf86c19850de029fcba8252089432be343b94f860124dc4fee278fdcbd38c102d8888455f2a86d578fc00801ba0eb4e28ef25d4ffbeb1333dbff76209ed0e4c3a96209fd078fe2b736d1ecbdfc8a0354f70e061183927a53214b2af16cb3c12d5c5a0962068e462b2b978c4501beb",
      "networkId": 0,
      "chainId": 0
    },
    {
      "hash": "0xd92eb31823153293744eb1aaed41c282bcc865c5d719f553fa7662a379238d8b",
      "blockHash": "0x31d0f9db9aea02c1df6a15465e1f13d3e328321ad73739f4c92588bd4e8ba9d6",
      "blockNumber": 94818,
      "transactionIndex": 2,
      "confirmations": null,
      "from": "0xB6AC12CefF0375Da80503AcCa54bf3061Fa917a8",
      "gasPrice": {
        "_hex": "0xd97a1b590"
      },
      "gasLimit": {
        "_hex": "0x15f90"
      },
      "to": "0x5fF827e73C5B866c300b824fe12719a3DD350513",
      "value": {
        "_hex": "0xd02ab486cedc0000"
      },
      "nonce": 19,
      "data": "0x",
      "r": "0x7ad28c93c745c8d00374c96813f4332081a7a0d352d39f8caa9255c538074b2f",
      "s": "0x23c7e066109f6c65cd26a5fb35a65fc829c4f5a3de55c41581bf1f389b2fc97e",
      "v": 27,
      "creates": null,
      "raw": "0xf86d13850d97a1b59083015f90945ff827e73c5b866c300b824fe12719a3dd35051388d02ab486cedc0000801ba07ad28c93c745c8d00374c96813f4332081a7a0d352d39f8caa9255c538074b2fa023c7e066109f6c65cd26a5fb35a65fc829c4f5a3de55c41581bf1f389b2fc97e",
      "networkId": 0,
      "chainId": 0
    }
  ]
}