{
  "hash": "0x341d3a6c08b3a8f3f63b3bb5a31ee434b0a32ca31e6a12cef0b60dfb34e67173",
  "parentHash": "0x0047c45b0487da1e97092eae337d3675df613759502fa198984bce6ddca32b30",
  "number": 87104,
  "timestamp": 1439587135,
  "nonce": "0x891ad98ae74bf296",
  "difficulty": 3055691813820,
  "gasLimit": {
    "_hex": "0x2fefd8"
  },
  "gasUsed": {
    "_hex": "0x5208"
  },
  "miner": "0xe6A7a1d47ff21B6321162AEA7C6CB457D5476Bca",
  "extraData": "0x476574682f76312e302e312d38326566323666362f6c696e75782f676f312e34",
  "transactions": [
    {
      "hash": "0x7dc789dc69a04de64137423fc7f429cb0341c62dde6905a2b68967d8fb0dc8a6",
      "blockHash": "0x341d3a6c08b3a8f3f63b3bb5a31ee434b0a32ca31e6a12cef0b60dfb34e67173",
      "blockNumber": 87104,
      "transactionIndex": 0,
      "confirmations": null,
      "from": "0x6625997D5DDC109B93B0e6dD488f416D8592Cd25",
      "gasPrice": {
        "_hex": "0xd1108a2f4"
      },
      "gasLimit": {
        "_hex": "0x5208"
      },
      "to": "0x32Be343B94f860124dC4fEe278FDCBD38C102D88",
      "value": {
        "_hex": "0xd8d6e3b9391a60000"
      },
      "nonce": 3,
      "data": "0x",
      "r": "0x2d3209ac09b1955cbe5bb45666a5e6927b8c33920676de1db292b3ae3588a595",
      "s": "0x106b898efebcadf42946481012e6aaecc6e7d63d79ff471fecfbaee39c29ad0e",
      "v": 28,
      "creates": null,
      "raw": "0xf86d03850d1108a2f48252089432be343b94f860124dc4fee278fdcbd38c102d88890d8d6e3b9391a60000801ca02d3209ac09b1955cbe5bb45666a5e6927b8c33920676de1db292b3ae3588a595a0106b898efebcadf42946481012e6aaecc6e7d63d79ff471fecfbaee39c29ad0e",
      "networkId": 0,
      "chainId": 0
    }
  ]
}