{
  "hash": "0x16ccd9c04ac06ef0f4d7137c75415a11350ffaa64d934b4d0d7efb3a76ba0f52",
  "parentHash": "0x4701074091b4b9f6a7fc2bc6e8a3af05f9e8f3d493f607ea065aeb257b0ad11a",
  "number": 64221,
  "timestamp": 1439217249,
  "nonce": "0x58d8133f12adaf90",
  "difficulty": 1877587586184,
  "gasLimit": {
    "_hex": "0x2fefd8"
  },
  "gasUsed": {
    "_hex": "0x5208"
  },
  "miner": "0x88D74a59454F6cF3B51ef6b9136AFb6b9D405A88",
  "extraData": "0x476574682f76312e302e312d37666266393930632f6c696e75782f676f312e34",
  "transactions": [
    {
      "hash": "0x830e8ce728842c8d0d98a566d4977dbb7bf9286a05a13be7fd3bc231488c7624",
      "blockHash": "0x16ccd9c04ac06ef0f4d7137c75415a11350ffaa64d934b4d0d7efb3a76ba0f52",
      "blockNumber": 64221,
      "transactionIndex": 0,
      "confirmations": null,
      "from": "0x0eDEd3DA479d0beF8eeC92A76644D3f4E3C177f7",
      "gasPrice": {
        "_hex": "0xd06e7c3bc"
      },
      "gasLimit": {
        "_hex": "0x15f90"
      },
      "to": "0x3f0073d6bBE51612013aA09BC970e08E84D7BA23",
      "value": {
        "_hex": "0x4e1003b28d9280000"
      },
      "nonce": 8,
      "data": "0x",
      "r": "0x74c2cd252ec04f2c740dff4091aff580e0d42ab2d3b7069d3a77241e57e22492",
      "s": "0x5e96863d19cb67ec92e622b24e7434ef0a726e0dafa2761d023cc393450f8e45",
      "v": 27,
      "creates": null,
      "raw": "0xf86e08850d06e7c3bc83015f90943f0073d6bbe51612013aa09bc970e08e84d7ba238904e1003b28d9280000801ba074c2cd252ec04f2c740dff4091aff580e0d42ab2d3b7069d3a77241e57e22492a05e96863d19cb67ec92e622b24e7434ef0a726e0dafa2761d023cc393450f8e45",
      "networkId": 0,
      "chainId": 0
    }
  ]
}