{
  "hash": "0x2f3de85eaa0f122acb6e2c25d6d595be93d764815b8a589071db826714e07c70",
  "parentHash": "0x759f1c4e0f6871bb8444d91f01481e41a7aebbb8608c7564b10144530e670c1a",
  "number": 91758,
  "timestamp": 1439661071,
  "nonce": "0x949a5b11eb94eddd",
  "difficulty": 3474176526208,
  "gasLimit": {
    "_hex": "0x2fefd8"
  },
  "gasUsed": {
    "_hex": "0x802e"
  },
  "miner": "0xe6A7a1d47ff21B6321162AEA7C6CB457D5476Bca",
  "extraData": "0x476574682f76312e302e312d38326566323666362f6c696e75782f676f312e34",
  "transactions": [
    {
      "hash": "0x48c1a977ec2eefb70eb2fffe0d496829cd73f97b522139362b4488658361e89b",
      "blockHash": "0x2f3de85eaa0f122acb6e2c25d6d595be93d764815b8a589071db826714e07c70",
      "blockNumber": 91758,
      "transactionIndex": 0,
      "confirmations": null,
      "from": "0xFBb1b73C4f0BDa4f67dcA266ce6Ef42f520fBB98",
      "gasPrice": {
        "_hex": "0xcb3f3e812"
      },
      "gasLimit": {
        "_hex": "0x15f90"
      },
      "to": "0xCAc7000C7dBaa2E33Af15325AF5D435E011C7BdD",
      "value": {
        "_hex": "0x0"
      },
      "nonce": 48,
      "data": "0x3feb1bd84249545452455830300000000000000000000000000000000000000000000000000000000000000000000000cc519a6f707571a4c58f0c4b574643283a0742b80000000000000000000000000000000000000000000000000dbd2fc137a30000",
      "r": "0x01b56d0fe1d258a8e4c22db58d4bd2e8046921f3722f6ead039ae70802a79117",
      "s": "0x51b47fc4be744b12070597ccdb6f13b952a2658d7337025f5b952d9ebd6b68c8",
      "v": 27,
      "creates": null,
      "raw": "0xf8ca30850cb3f3e81283015f9094cac7000c7dbaa2e33af15325af5d435e011c7bdd80b8643feb1bd84249545452455830300000000000000000000000000000000000000000000000000000000000000000000000cc519a6f707571a4c58f0c4b574643283a0742b80000000000000000000000000000000000000000000000000dbd2fc137a300001ba001b56d0fe1d258a8e4c22db58d4bd2e8046921f3722f6ead039ae70802a79117a051b47fc4be744b12070597ccdb6f13b952a2658d7337025f5b952d9ebd6b68c8",
      "networkId": 0,
      "chainId": 0
    }
  ]
}