{
  "hash": "0x597aeade4e3f75dee5149f5ee07a03b16351f2dff658ed07c051d6a57834657b",
  "parentHash": "0x68e5c44812eaab51d546d3d1baa447d6ea7d68cde5cc52a0c65f4b119386541f",
  "number": 48095,
  "timestamp": 1438951274,
  "nonce": "0x77c83db10d8234b0",
  "difficulty": 1463650329322,
  "gasLimit": {
    "_hex": "0x127fd"
  },
  "gasUsed": {
    "_hex": "0xfae0"
  },
  "miner": "0xe6A7a1d47ff21B6321162AEA7C6CB457D5476Bca",
  "extraData": "0x657468706f6f6c2e6f7267",
  "transactions": [
    {
      "hash": "0x46ec35a118f3ded6d4e648a5d3fb05f664e4d6ca238990c266bcecb4be7d9862",
      "blockHash": "0x597aeade4e3f75dee5149f5ee07a03b16351f2dff658ed07c051d6a57834657b",
      "blockNumber": 48095,
      "transactionIndex": 0,
      "confirmations": null,
      "from": "0x91DBB6AaAD149585BE47375c5d6de5Ff09191518",
      "gasPrice": {
        "_hex": "0xdf8475800"
      },
      "gasLimit": {
        "_hex": "0x5208"
      },
      "to": "0x2978C94759CbD863d6334CDE966DEeDFbb7e9572",
      "value": {
        "_hex": "0x71afd498d0000"
      },
      "nonce": 0,
      "data": "0x",
      "r": "0xccb0cdc572649685a89d9afb36c366fe8cf128c15419ca1b25006e43b5471745",
      "s": "0x093f095370e8f3ab3921ee6328b97326b5c964c7a31c85f8e99b1446d84f6eda",
      "v": 28,
      "creates": null,
      "raw": "0xf86b80850df8475800825208942978c94759cbd863d6334cde966deedfbb7e957287071afd498d0000801ca0ccb0cdc572649685a89d9afb36c366fe8cf128c15419ca1b25006e43b5471745a0093f095370e8f3ab3921ee6328b97326b5c964c7a31c85f8e99b1446d84f6eda",
      "networkId": 0,
      "chainId": 0
    },
    {
      "hash": "0xef35d788617680b88d2b38e62c2e8564fdc3275a95a2f5e11bbc5d423cbb8603",
      "blockHash": "0x597aeade4e3f75dee5149f5ee07a03b16351f2dff658ed07c051d6a57834657b",
      "blockNumber": 48095,
      "transactionIndex": 1,
      "confirmations": null,
      "from": "0x24B8B446debD1947955dd084F2C544933346d3ad",
      "gasPrice": {
        "_hex": "0xe233be6b6"
      },
      "gasLimit": {
        "_hex": "0x61a8"
      },
      "to": "0x2910543Af39abA0Cd09dBb2D50200b3E800A63D2",
      "value": {
        "_hex": "0xde0b6b3a7640000"
      },
      "nonce": 0,
      "data": "0x454e39473658393538",
      "r": "0x617766f816d9f9f67e35f0511dfd5b5246d4e943f43f069c0cda2c3bbba43d98",
      "s": "0x0437739bac48c52a3bef59f41eb9df24365653aef4273724a530f954c9dd9f85",
      "v": 27,
      "creates": null,
      "raw": "0xf87580850e233be6b68261a8942910543af39aba0cd09dbb2d50200b3e800a63d2880de0b6b3a764000089454e394736583935381ba0617766f816d9f9f67e35f0511dfd5b5246d4e943f43f069c0cda2c3bbba43d98a00437739bac48c52a3bef59f41eb9df24365653aef4273724a530f954c9dd9f85",
      "networkId": 0,
      "chainId": 0
    },
    {
      "hash": "0xdffa76774b7547cad8273ab24b04f8b9f6eeec8c0f88090a0cbcd5eea7db4d28",
      "blockHash": "0x597aeade4e3f75dee5149f5ee07a03b16351f2dff658ed07c051d6a57834657b",
      "blockNumber": 48095,
      "transactionIndex": 2,
      "confirmations": null,
      "from": "0xac2B6F3cA32EbEFB4eEBaE254D8677097E4c2326",
      "gasPrice": {
        "_hex": "0x45d964b800"
      },
      "gasLimit": {
        "_hex": "0x55f0"
      },
      "to": "0x2910543Af39abA0Cd09dBb2D50200b3E800A63D2",
      "value": {
        "_hex": "0xc7d713b49da0000"
      },
      "nonce": 2,
      "data": "0x454e365a325a464152",
      "r": "0x02ea71404e4529a102d03e2df3dccaf80e56381b00e17d0c32d6c948d87ec679",
      "s": "0x7e2a516bc81e7add8df03113a6457f86febcb68179122427f5bff3ddee06256d",
      "v": 27,
      "creates": null,
      "raw": "0xf875028545d964b8008255f0942910543af39aba0cd09dbb2d50200b3e800a63d2880c7d713b49da000089454e365a325a4641521ba002ea71404e4529a102d03e2df3dccaf80e56381b00e17d0c32d6c948d87ec679a07e2a516bc81e7add8df03113a6457f86febcb68179122427f5bff3ddee06256d",
      "networkId": 0,
      "chainId": 0
    }
  ]
}