{
  "hash": "0xc66d4a909380530f40218307f6fa4840bbfe590a44b215c3865425c44e411ba0",
  "parentHash": "0x9a444102ef5b1a4187608cdefa8a9d8cac46a50bac2caf789b2131f0eefedc57",
  "number": 107411,
  "timestamp": 1439921912,
  "nonce": "0x31f54cec25320dbe",
  "difficulty": 4415807580308,
  "gasLimit": {
    "_hex": "0x2fefd8"
  },
  "gasUsed": {
    "_hex": "0x5208"
  },
  "miner": "0x0D4EcC7d750180EBf4A9Df728B6669B5Bceb5E40",
  "extraData": "0x",
  "transactions": [
    {
      "hash": "0x12f003d6cafaf1fb42347ba9f5180624604036b26361952ad62d4fc4f47582b3",
      "blockHash": "0xc66d4a909380530f40218307f6fa4840bbfe590a44b215c3865425c44e411ba0",
      "blockNumber": 107411,
      "transactionIndex": 0,
      "confirmations": null,
      "from": "0x7366ADF97960d404c38D975e1A8786bEb14B6507",
      "gasPrice": {
        "_hex": "0xdacc4794d"
      },
      "gasLimit": {
        "_hex": "0x15f90"
      },
      "to": "0xB9A0a0410aA5e26bFa66Cc3ACAF0A6FC61Df5588",
      "value": {
        "_hex": "0x3557be428b6860000"
      },
      "nonce": 9,
      "data": "0x",
      "r": "0x2159fb8e266ec8844a0da7b1fdaea49c158a13d7cd40f8ccecad28ea4517c53b",
      "s": "0x5d0866fb4e8ce6819bc00de54a5bf85e761df8b62ef634aa9ededa0ae92274df",
      "v": 27,
      "creates": null,
      "raw": "0xf86e09850dacc4794d83015f9094b9a0a0410aa5e26bfa66cc3acaf0a6fc61df55888903557be428b6860000801ba02159fb8e266ec8844a0da7b1fdaea49c158a13d7cd40f8ccecad28ea4517c53ba05d0866fb4e8ce6819bc00de54a5bf85e761df8b62ef634aa9ededa0ae92274df",
      "networkId": 0,
      "chainId": 0
    }
  ]
}