{
  "hash": "0x3833e29b525ada62ff1499accfe27586533db2311fcfdd005129a80c745b0108",
  "parentHash": "0xc16def0d6edbe5159ae0af282e60a14fd9360f850e21ea2f33dead8fa25b9473",
  "number": 93893,
  "timestamp": 1439699415,
  "nonce": "0xd83b91b76d20885c",
  "difficulty": 3468208313092,
  "gasLimit": {
    "_hex": "0x2fefd8"
  },
  "gasUsed": {
    "_hex": "0x5208"
  },
  "miner": "0x945133f5F817b984e41D4798b45C9B8ed7CE3EAc",
  "extraData": "0x476574682f76312e302e312f77696e646f77732f676f312e342e32",
  "transactions": [
    {
      "hash": "0x23e0ff7913eaf82f4e95790995603831b8182c7d2fcffe511429673739d36498",
      "blockHash": "0x3833e29b525ada62ff1499accfe27586533db2311fcfdd005129a80c745b0108",
      "blockNumber": 93893,
      "transactionIndex": 0,
      "confirmations": null,
      "from": "0x2910543Af39abA0Cd09dBb2D50200b3E800A63D2",
      "gasPrice": {
        "_hex": "0xdeda71d2e"
      },
      "gasLimit": {
        "_hex": "0x5208"
      },
      "to": "0xB28D8847A107E87a4191436D005801b036845EA4",
      "value": {
        "_hex": "0x12dfb0cb5e88000"
      },
      "nonce": 861,
      "data": "0x",
      "r": "0x45aee0aba6815babe262df00b13453daa2e9250705f901fabf0ecfbe491fe015",
      "s": "0x074bfdaef12a6fe74046c26a694fa16f3a42406c4ab3b772b24a740a3687cd58",
      "v": 27,
      "creates": null,
      "raw": "0xf86e82035d850deda71d2e82520894b28d8847a107e87a4191436d005801b036845ea488012dfb0cb5e88000801ba045aee0aba6815babe262df00b13453daa2e9250705f901fabf0ecfbe491fe015a0074bfdaef12a6fe74046c26a694fa16f3a42406c4ab3b772b24a740a3687cd58",
      "networkId": 0,
      "chainId": 0
    }
  ]
}