{
  "hash": "0x8ed806307d108b8bc8fdbb54ecb1ac236749a0dd6379d4e99d99e539514ad937",
  "parentHash": "0xdcd110e24c0d1b187cb6e42e29d906466856ee8f98d7e00f66711572ef8e80d0",
  "number": 89906,
  "timestamp": 1439631018,
  "nonce": "0x93cd8e964ed79535",
  "difficulty": 3335299990329,
  "gasLimit": {
    "_hex": "0x2fefd8"
  },
  "gasUsed": {
    "_hex": "0x19a28"
  },
  "miner": "0xe6A7a1d47ff21B6321162AEA7C6CB457D5476Bca",
  "extraData": "0x476574682f76312e302e312d38326566323666362f6c696e75782f676f312e34",
  "transactions": [
    {
      "hash": "0x8df30277721b2d250d26ed8a87062ee1be952cabe330e352a8cf30bb855c6a75",
      "blockHash": "0x8ed806307d108b8bc8fdbb54ecb1ac236749a0dd6379d4e99d99e539514ad937",
      "blockNumber": 89906,
      "transactionIndex": 0,
      "confirmations": null,
      "from": "0x263D845A19110802000139cbb7a4BBF2B2B8d6C0",
      "gasPrice": {
        "_hex": "0xd9fbdd35e"
      },
      "gasLimit": {
        "_hex": "0x5208"
      },
      "to": "0x32Be343B94f860124dC4fEe278FDCBD38C102D88",
      "value": {
        "_hex": "0x8239a7bd47e53000"
      },
      "nonce": 1,
      "data": "0x",
      "r": "0xc368f86e4e2a82c243993e52a12f902b4ba42911c670aa9b6cd721b0cd535767",
      "s": "0x51b1674d9f5e8240ad17ebf02a4cf5d338882338c93045a585dc48835e2c6d33",
      "v": 28,
      "creates": null,
      "raw": "0xf86c01850d9fbdd35e8252089432be343b94f860124dc4fee278fdcbd38c102d88888239a7bd47e53000801ca0c368f86e4e2a82c243993e52a12f902b4ba42911c670aa9b6cd721b0cd535767a051b1674d9f5e8240ad17ebf02a4cf5d338882338c93045a585dc48835e2c6d33",
      "networkId": 0,
      "chainId": 0
    },
    {
      "hash": "0x043b67b9f5960aeb8760f74a9ba64c3203e0181124a2f5112ad08582d86462bb",
      "blockHash": "0x8ed806307d108b8bc8fdbb54ecb1ac236749a0dd6379d4e99d99e539514ad937",
      "blockNumber": 89906,
      "transactionIndex": 1,
      "confirmations": null,
      "from": "0xb2e4017063376d7eb1a72d91EC8Ff38712ffebdF",
      "gasPrice": {
        "_hex": "0xd9fbdd35e"
      },
      "gasLimit": {
        "_hex": "0x5208"
      },
      "to": "0x32Be343B94f860124dC4fEe278FDCBD38C102D88",
      "value": {
        "_hex": "0x2fadd62d1ce1f800"
      },
      "nonce": 0,
      "data": "0x",
      "r": "0x3d0d11e65310cb23f67c1bc2a766b1341b17eacea1a5c95a4582ed8de9a6d1fc",
      "s": "0x5936698ae6612a4d869231348af43c424557b2d41ba7830ddc4bd588fe29b0bb",
      "v": 27,
      "creates": null,
      "raw": "0xf86c80850d9fbdd35e8252089432be343b94f860124dc4fee278fdcbd38c102d88882fadd62d1ce1f800801ba03d0d11e65310cb23f67c1bc2a766b1341b17eacea1a5c95a4582ed8de9a6d1fca05936698ae6612a4d869231348af43c424557b2d41ba7830ddc4bd588fe29b0bb",
      "networkId": 0,
      "chainId": 0
    },
    {
      "hash": "0x61b5029ba1a5f0ee848081b8a58b790821730caf2f7e66b9bcd3e4361e6f4f75",
      "blockHash": "0x8ed806307d108b8bc8fdbb54ecb1ac236749a0dd6379d4e99d99e539514ad937",
      "blockNumber": 89906,
      "transactionIndex": 2,
      "confirmations": null,
      "from": "0xc08E05f51581aDA37f9DD2edbF7a68fE7E199D55",
      "gasPrice": {
        "_hex": "0xd9fbdd35e"
      },
      "gasLimit": {
        "_hex": "0x5208"
      },
      "to": "0x32Be343B94f860124dC4fEe278FDCBD38C102D88",
      "value": {
        "_hex": "0xdcab186ba6c28000"
      },
      "nonce": 0,
      "data": "0x",
      "r": "0x1e215f3e6f34653f3a7cbacf81b1e14aa1982e2bc98c0734749a0dd3baedd689",
      "s": "0x662fc6bf2f3bc4829af4cf56b0eab71afe24e38508f230fb5df727da91009199",
      "v": 28,
      "creates": null,
      "raw": "0xf86c80850d9fbdd35e8252089432be343b94f860124dc4fee278fdcbd38c102d8888dcab186ba6c28000801ca01e215f3e6f34653f3a7cbacf81b1e14aa1982e2bc98c0734749a0dd3baedd689a0662fc6bf2f3bc4829af4cf56b0eab71afe24e38508f230fb5df727da91009199",
      "networkId": 0,
      "chainId": 0
    },
    {
      "hash": "0xa4d35b03bb9a8f056b455575c672aa7008d87d858d763d77ef233368291b005b",
      "blockHash": "0x8ed806307d108b8bc8fdbb54ecb1ac236749a0dd6379d4e99d99e539514ad937",
      "blockNumber": 89906,
      "transactionIndex": 3,
      "confirmations": null,
      "from": "0xDdaCBcba2a4fe9313F7CCA044872A9c51bD1E4c8",
      "gasPrice": {
        "_hex": "0xd9fbdd35e"
      },
      "gasLimit": {
        "_hex": "0x5208"
      },
      "to": "0x32Be343B94f860124dC4fEe278FDCBD38C102D88",
      "value": {
        "_hex": "0xc2ed944a60256800"
      },
      "nonce": 0,
      "data": "0x",
      "r": "0x4a62245ce51e730cdf569676c5318166dc7e3563ff122cea748c77921bcfbaad",
      "s": "0x43aa1b7bb4e1b0d38b4ef5db85c332abc4e5dc7f74a0ef02b0bee749efcea7c4",
      "v": 27,
      "creates": null,
      "raw": "0xf86c80850d9fbdd35e8252089432be343b94f860124dc4fee278fdcbd38c102d8888c2ed944a60256800801ba04a62245ce51e730cdf569676c5318166dc7e3563ff122cea748c77921bcfbaada043aa1b7bb4e1b0d38b4ef5db85c332abc4e5dc7f74a0ef02b0bee749efcea7c4",
      "networkId": 0,
      "chainId": 0
    },
    {
      "hash": "0xb6089afed51e6b474fd972ef07222ec7bf25e0d703f0b8cfcf1b46451bf1e37e",
      "blockHash": "0x8ed806307d108b8bc8fdbb54ecb1ac236749a0dd6379d4e99d99e539514ad937",
      "blockNumber": 89906,
      "transactionIndex": 4,
      "confirmations": null,
      "from": "0x7C197542A77e913547d2E58e8d3c6F224f6f0f98",
      "gasPrice": {
        "_hex": "0xd9fbdd35e"
      },
      "gasLimit": {
        "_hex": "0x5208"
      },
      "to": "0x32Be343B94f860124dC4fEe278FDCBD38C102D88",
      "value": {
        "_hex": "0x10f4be1bf77ff6000"
      },
      "nonce": 0,
      "data": "0x",
      "r": "0xe5caecc140747b5737314aa4d143135c38976443dfbb4e62691e64160d7d9e58",
      "s": "0x217a874f6e2ccb5d700798c1ca9d83ce68543a9faa43f1c9d3f05959085cdf77",
      "v": 27,
      "creates": null,
      "raw": "0xf86d80850d9fbdd35e8252089432be343b94f860124dc4fee278fdcbd38c102d8889010f4be1bf77ff6000801ba0e5caecc140747b5737314aa4d143135c38976443dfbb4e62691e64160d7d9e58a0217a874f6e2ccb5d700798c1ca9d83ce68543a9faa43f1c9d3f05959085cdf77",
      "networkId": 0,
      "chainId": 0
    }
  ]
}