{
  "hash": "0x9c1e57055b1ddbc3af5818ba277c1695a11a1dfaf082c6982ab06d2735a4f1de",
  "parentHash": "0x843512cbe8dc1208cf422a60e0172921c2f93538316b0128bb7926a5109501c6",
  "number": 71156,
  "timestamp": 1439331692,
  "nonce": "0x96bd2737326a9164",
  "difficulty": 2147737482710,
  "gasLimit": {
    "_hex": "0x2fefd8"
  },
  "gasUsed": {
    "_hex": "0x5208"
  },
  "miner": "0x31995C46B15C84523cDEE26f49A681b8237e43F5",
  "extraData": "0x476574682f76312e302e312f77696e646f77732f676f312e342e32",
  "transactions": [
    {
      "hash": "0xf2c88fbb844e3eab9105199b7464ca40873a6aa6fea5bd51d78607cf6a99ee17",
      "blockHash": "0x9c1e57055b1ddbc3af5818ba277c1695a11a1dfaf082c6982ab06d2735a4f1de",
      "blockNumber": 71156,
      "transactionIndex": 0,
      "confirmations": null,
      "from": "0xAA977A3542936031d6D16289441e1C32052Cb913",
      "gasPrice": {
        "_hex": "0xcf04a921c"
      },
      "gasLimit": {
        "_hex": "0x5208"
      },
      "to": "0x32Be343B94f860124dC4fEe278FDCBD38C102D88",
      "value": {
        "_hex": "0x3635b3c4ed9e580000"
      },
      "nonce": 4,
      "data": "0x",
      "r": "0x0b7a9efc3e3eb37009c5437fd856cf8c0b64f73143855dba5bb90c11437cf009",
      "s": "0x1d73d2835344f7ee4a78954179def47f57cadf2582ad209076bb588bf41b2735",
      "v": 28,
      "creates": null,
      "raw": "0xf86d04850cf04a921c8252089432be343b94f860124dc4fee278fdcbd38c102d88893635b3c4ed9e580000801ca00b7a9efc3e3eb37009c5437fd856cf8c0b64f73143855dba5bb90c11437cf009a01d73d2835344f7ee4a78954179def47f57cadf2582ad209076bb588bf41b2735",
      "networkId": 0,
      "chainId": 0
    }
  ]
}