{
  "hash": "0x8d0212cad41390420a5898586b638bc3cf7fc6b21b888232b76196cfaef68f0a",
  "parentHash": "0xe20af375b9d5a5adf38d4f44a7e29d4b7ae4b7c4f961705dc9490c75ef11b53d",
  "number": 121580,
  "timestamp": 1440179308,
  "nonce": "0x763ba225fef1d7d8",
  "difficulty": 4436426964994,
  "gasLimit": {
    "_hex": "0x2fefd8"
  },
  "gasUsed": {
    "_hex": "0x5208"
  },
  "miner": "0xe6A7a1d47ff21B6321162AEA7C6CB457D5476Bca",
  "extraData": "0xd783010002844765746887676f312e342e32856c696e7578",
  "transactions": [
    {
      "hash": "0x8b1fe741223a0699d6c6b9f185deee4c0405a058a535522188b3cc7c9a204f72",
      "blockHash": "0x8d0212cad41390420a5898586b638bc3cf7fc6b21b888232b76196cfaef68f0a",
      "blockNumber": 121580,
      "transactionIndex": 0,
      "confirmations": null,
      "from": "0x32Be343B94f860124dC4fEe278FDCBD38C102D88",
      "gasPrice": {
        "_hex": "0xba43b7400"
      },
      "gasLimit": {
        "_hex": "0x5208"
      },
      "to": "0xf8520276975f4a52ee4dc848Cb8e7788C92E1F55",
      "value": {
        "_hex": "0x1043329395b96f0000"
      },
      "nonce": 1563,
      "data": "0x",
      "r": "0xc43009b680359661918ab500275e19f2852df94a5fde84c1eda35bea03d440a1",
      "s": "0x34fd559f98da49812ee484d8b90ce130235a654a6ae48967ffc426e599b9a7b2",
      "v": 28,
      "creates": null,
      "raw": "0xf86f82061b850ba43b740082520894f8520276975f4a52ee4dc848cb8e7788c92e1f55891043329395b96f0000801ca0c43009b680359661918ab500275e19f2852df94a5fde84c1eda35bea03d440a1a034fd559f98da49812ee484d8b90ce130235a654a6ae48967ffc426e599b9a7b2",
      "networkId": 0,
      "chainId": 0
    }
  ]
}