{
  "hash": "0x6aaef4e4887777e74fbf30186617f25b6ce93fa6dfc4e98a530f594c15a8b114",
  "parentHash": "0xc78efc74aaf9796519c937d296f5a9ba8a9b5f8142a9f1ab587725a2fbe39ad0",
  "number": 85927,
  "timestamp": 1439570861,
  "nonce": "0x3d39df289fb259da",
  "difficulty": 2789431267636,
  "gasLimit": {
    "_hex": "0x2fefd8"
  },
  "gasUsed": {
    "_hex": "0x5208"
  },
  "miner": "0xe6A7a1d47ff21B6321162AEA7C6CB457D5476Bca",
  "extraData": "0x476574682f76312e302e312d38326566323666362f6c696e75782f676f312e34",
  "transactions": [
    {
      "hash": "0x92aede87ba523f477d43c3c6d28a1afb5d49d9293d5e0ecbb17d22125a097162",
      "blockHash": "0x6aaef4e4887777e74fbf30186617f25b6ce93fa6dfc4e98a530f594c15a8b114",
      "blockNumber": 85927,
      "transactionIndex": 0,
      "confirmations": null,
      "from": "0x32Be343B94f860124dC4fEe278FDCBD38C102D88",
      "gasPrice": {
        "_hex": "0xd68fbb3b6"
      },
      "gasLimit": {
        "_hex": "0x5208"
      },
      "to": "0x066A8A05e59870FBd1e75837Ae8C2849Cb526599",
      "value": {
        "_hex": "0x16345785d8a0000"
      },
      "nonce": 741,
      "data": "0x",
      "r": "0x5365362096b92e314c4b51b04c880aada2b8277e9b5babc3bb6523a9186020cc",
      "s": "0x47062b85cb5bec28111a5043a83da8ad7784d91a3502412471b3a5d1efa22bcc",
      "v": 27,
      "creates": null,
      "raw": "0xf86e8202e5850d68fbb3b682520894066a8a05e59870fbd1e75837ae8c2849cb52659988016345785d8a0000801ba05365362096b92e314c4b51b04c880aada2b8277e9b5babc3bb6523a9186020cca047062b85cb5bec28111a5043a83da8ad7784d91a3502412471b3a5d1efa22bcc",
      "networkId": 0,
      "chainId": 0
    }
  ]
}