{
  "hash": "0xe204d522ebf10215827662be477cd93833964a6c9b8b7a1a2bcaed76a93b25ce",
  "parentHash": "0xfb0e25adcf64fa95474db753e40bee4e544fa6d287c10cf075be5fde12b5bfa0",
  "number": 47344,
  "timestamp": 1438938654,
  "nonce": "0xfc30492093ed75d4",
  "difficulty": 1451681130513,
  "gasLimit": {
    "_hex": "0xb22e"
  },
  "gasUsed": {
    "_hex": "0xa410"
  },
  "miner": "0x01d9DA08cc6Fb97c0DE1B6F4C28910A0859Ed1A1",
  "extraData": "0x476574682f76312e302e312f6c696e75782f676f312e342e32",
  "transactions": [
    {
      "hash": "0x49356fc636becca473acef179b4bc231d3603a2321b84cfe07554a8c5fcb9250",
      "blockHash": "0xe204d522ebf10215827662be477cd93833964a6c9b8b7a1a2bcaed76a93b25ce",
      "blockNumber": 47344,
      "transactionIndex": 0,
      "confirmations": null,
      "from": "0xe6A7a1d47ff21B6321162AEA7C6CB457D5476Bca",
      "gasPrice": {
        "_hex": "0x1309fce881"
      },
      "gasLimit": {
        "_hex": "0x5208"
      },
      "to": "0x139961171236F8260f7D28B94b5a7352Bb114F80",
      "value": {
        "_hex": "0xd9bc121cdcb0d898"
      },
      "nonce": 115,
      "data": "0x",
      "r": "0xbf560e2c1745009e00bbe8bdf4ae4a7a52fdcce771b9cafe31d721763060ff52",
      "s": "0x7526bda3822d8d93c8fb78895d2dfcb3164943adb01fecbcad55e1811ad7b777",
      "v": 28,
      "creates": null,
      "raw": "0xf86c73851309fce88182520894139961171236f8260f7d28b94b5a7352bb114f8088d9bc121cdcb0d898801ca0bf560e2c1745009e00bbe8bdf4ae4a7a52fdcce771b9cafe31d721763060ff52a07526bda3822d8d93c8fb78895d2dfcb3164943adb01fecbcad55e1811ad7b777",
      "networkId": 0,
      "chainId": 0
    },
    {
      "hash": "0x7e3d45c6d515f0b12dad4d5d4b1be055d98fb8b2909d35f0a0cbc2f921d96af2",
      "blockHash": "0xe204d522ebf10215827662be477cd93833964a6c9b8b7a1a2bcaed76a93b25ce",
      "blockNumber": 47344,
      "transactionIndex": 1,
      "confirmations": null,
      "from": "0xe6A7a1d47ff21B6321162AEA7C6CB457D5476Bca",
      "gasPrice": {
        "_hex": "0x1309fce881"
      },
      "gasLimit": {
        "_hex": "0x5208"
      },
      "to": "0xCE09fD3E23b65BaD12809190a19b6BFCFfD48c35",
      "value": {
        "_hex": "0xda58ac4f4312faf8"
      },
      "nonce": 116,
      "data": "0x",
      "r": "0xb03e53ab9355f0de79d93dfd1e8047302f29400dc9577361e8ee2002afbd4bb6",
      "s": "0x01a6205448f3b6faf365255f6da117d71ccf6cf4b090c0da133660f5e76b72ad",
      "v": 27,
      "creates": null,
      "raw": "0xf86c74851309fce88182520894ce09fd3e23b65bad12809190a19b6bfcffd48c3588da58ac4f4312faf8801ba0b03e53ab9355f0de79d93dfd1e8047302f29400dc9577361e8ee2002afbd4bb6a001a6205448f3b6faf365255f6da117d71ccf6cf4b090c0da133660f5e76b72ad",
      "networkId": 0,
      "chainId": 0
    }
  ]
}