{
  "hash": "0xdb28c3ad3a8cbd687e400e17e011379ada5010a9126325affdad7cae2b0749e5",
  "parentHash": "0x84c3c6b42797e8aef794726f8b457b686eb53a3e6f4100089ecdb13e242bee19",
  "number": 103261,
  "timestamp": 1439850253,
  "nonce": "0x90ead9a93121be3d",
  "difficulty": 4199242699148,
  "gasLimit": {
    "_hex": "0x2fefd8"
  },
  "gasUsed": {
    "_hex": "0x5208"
  },
  "miner": "0x92762b7a067B2278454eF38d6cb6a96A4c92834e",
  "extraData": "0x476574682f76312e302e312f6c696e75782f676f312e342e32",
  "transactions": [
    {
      "hash": "0x539507fa24a10b19caf4ce31f808ff2836e06b5b4d370773f02ef82cf879e69a",
      "blockHash": "0xdb28c3ad3a8cbd687e400e17e011379ada5010a9126325affdad7cae2b0749e5",
      "blockNumber": 103261,
      "transactionIndex": 0,
      "confirmations": null,
      "from": "0x32Be343B94f860124dC4fEe278FDCBD38C102D88",
      "gasPrice": {
        "_hex": "0xcb93cae7f"
      },
      "gasLimit": {
        "_hex": "0x5208"
      },
      "to": "0xADdD3ac85c5Ddc42faF88cc4930455A572D73bB6",
      "value": {
        "_hex": "0x263ee25a6cf12800"
      },
      "nonce": 1122,
      "data": "0x",
      "r": "0x819877ef6a81e31ff5b2a425c8876845138925aed440f30e1536b2eef8591e54",
      "s": "0x02836d6823f6f91014b58f9ddf16afd9f50f86979507d1b8e16b230cdeb55928",
      "v": 28,
      "creates": null,
      "raw": "0xf86e820462850cb93cae7f82520894addd3ac85c5ddc42faf88cc4930455a572d73bb688263ee25a6cf12800801ca0819877ef6a81e31ff5b2a425c8876845138925aed440f30e1536b2eef8591e54a002836d6823f6f91014b58f9ddf16afd9f50f86979507d1b8e16b230cdeb55928",
      "networkId": 0,
      "chainId": 0
    }
  ]
}