{
  "hash": "0xbe31acda3b5ac7c45236e03406c601bd76afe687fbb8ebc0c98793e2e056bc85",
  "parentHash": "0x88c51517f394d4b6aee3330d93013f5fc8e3af6f493a9f71ac1972d6f0d3da0a",
  "number": 102478,
  "timestamp": 1439838674,
  "nonce": "0xdd0548c9b581b015",
  "difficulty": 3950974981065,
  "gasLimit": {
    "_hex": "0x2fefd8"
  },
  "gasUsed": {
    "_hex": "0x5208"
  },
  "miner": "0xe6A7a1d47ff21B6321162AEA7C6CB457D5476Bca",
  "extraData": "0x476574682f76312e302e312d38326566323666362f6c696e75782f676f312e34",
  "transactions": [
    {
      "hash": "0x8ccb8aac27c45f8f990fcbec9a0bba87a8af7c7b0590fb3f8d2a27cd06e1fb74",
      "blockHash": "0xbe31acda3b5ac7c45236e03406c601bd76afe687fbb8ebc0c98793e2e056bc85",
      "blockNumber": 102478,
      "transactionIndex": 0,
      "confirmations": null,
      "from": "0xBBDa93a81B882774e1c9b5e3F933Fa35DaC8bc88",
      "gasPrice": {
        "_hex": "0xdbac3b1b1"
      },
      "gasLimit": {
        "_hex": "0x5208"
      },
      "to": "0x32Be343B94f860124dC4fEe278FDCBD38C102D88",
      "value": {
        "_hex": "0x19f34cb38f3ec4000"
      },
      "nonce": 5,
      "data": "0x",
      "r": "0xe24751cb1dba3f294dab87ecf607807f3e45675946603e38ca4399153d3e4f7a",
      "s": "0x3bfd25c4acdb6edacb08a01b806a11d756423f031f4eafaa18979064c983a2e1",
      "v": 27,
      "creates": null,
      "raw": "0xf86d05850dbac3b1b18252089432be343b94f860124dc4fee278fdcbd38c102d8889019f34cb38f3ec4000801ba0e24751cb1dba3f294dab87ecf607807f3e45675946603e38ca4399153d3e4f7aa03bfd25c4acdb6edacb08a01b806a11d756423f031f4eafaa18979064c983a2e1",
      "networkId": 0,
      "chainId": 0
    }
  ]
}