{
  "hash": "0xe9177321af9775bb86128932119fe744b6c951f6bd6eb0a0596ee80d5be47ac0",
  "parentHash": "0x4f13d585e6a3655847f3ad1dbdec7ca245ad3a1b7e052e78d705d5521d19f84a",
  "number": 84819,
  "timestamp": 1439554957,
  "nonce": "0xb7458d0f799105e8",
  "difficulty": 2636175474114,
  "gasLimit": {
    "_hex": "0x2fefd8"
  },
  "gasUsed": {
    "_hex": "0x5208"
  },
  "miner": "0xe6A7a1d47ff21B6321162AEA7C6CB457D5476Bca",
  "extraData": "0x476574682f76312e302e312d38326566323666362f6c696e75782f676f312e34",
  "transactions": [
    {
      "hash": "0x957857550058af11451751d48dee01608a6e7c9d03f524f9ea3c827254cba531",
      "blockHash": "0xe9177321af9775bb86128932119fe744b6c951f6bd6eb0a0596ee80d5be47ac0",
      "blockNumber": 84819,
      "transactionIndex": 0,
      "confirmations": null,
      "from": "0xD0317e8d007a61B8d740516E8a268D4faDADccbF",
      "gasPrice": {
        "_hex": "0xdee510a9f"
      },
      "gasLimit": {
        "_hex": "0x15f90"
      },
      "to": "0xdeE4977F74E6Aef6D627191c9A45D2627e331150",
      "value": {
        "_hex": "0xd02ab486cedc0000"
      },
      "nonce": 0,
      "data": "0x",
      "r": "0x4a48456af0a3a73cf3d4a88499e49da8b2cecf07f5186c09ae3cbb2358b10e31",
      "s": "0x51a7dd69ba1ede81b90a1888e8b4601aebbb03cf26e5033a78731cf268ebc16c",
      "v": 28,
      "creates": null,
      "raw": "0xf86d80850dee510a9f83015f9094dee4977f74e6aef6d627191c9a45d2627e33115088d02ab486cedc0000801ca04a48456af0a3a73cf3d4a88499e49da8b2cecf07f5186c09ae3cbb2358b10e31a051a7dd69ba1ede81b90a1888e8b4601aebbb03cf26e5033a78731cf268ebc16c",
      "networkId": 0,
      "chainId": 0
    }
  ]
}