{
  "hash": "0x4684ec217dba3da054da218e80ca938fcc2ca6a0912d5d48f0417b8c771c2557",
  "parentHash": "0xf9304a2f756a477a0da2d62b58c09334193136533150ff73ce8aa8f8f5c04d9b",
  "number": 101368,
  "timestamp": 1439821993,
  "nonce": "0x6c3d116c80b5dd3a",
  "difficulty": 3811267786195,
  "gasLimit": {
    "_hex": "0x2fefd8"
  },
  "gasUsed": {
    "_hex": "0x106c0"
  },
  "miner": "0x77EC9ad4A7E9418774C29415CAaF4Ee0da96eF64",
  "extraData": "0x",
  "transactions": [
    {
      "hash": "0xa56268e6ea0628542ce3c7ac852aac5079e0433979b79cef6e841f1b1c61d3c3",
      "blockHash": "0x4684ec217dba3da054da218e80ca938fcc2ca6a0912d5d48f0417b8c771c2557",
      "blockNumber": 101368,
      "transactionIndex": 0,
      "confirmations": null,
      "from": "0x8674c218F0351a62C3BA78C34FD2182A93Da94E2",
      "gasPrice": {
        "_hex": "0xba43b7400"
      },
      "gasLimit": {
        "_hex": "0x15f90"
      },
      "to": "0x6b211fdc0d944a84bba8534d631Fad9262ba80b8",
      "value": {
        "_hex": "0x0"
      },
      "nonce": 81,
      "data": "0x541d920c00000000000000000000000000000000000000000000000000000000000000400000000000000000000000000000000000000000000000000000000000000080000000000000000000000000000000000000000000000000000000000000000a4d792070726f6772616d00000000000000000000000000000000000000000000000000000000000000000000000000000000000000000000000000000000000f496e697469616c20636f6d6d69742e0000000000000000000000000000000000",
      "r": "0x1f7c4b79c15299f4d7769541454ef3cae744f0d5555ace737e28bb43393a8560",
      "s": "0x3d643e9e979a4bf5752eb36461a362cc1c879e1292427680752a3a6d835bb8b8",
      "v": 28,
      "creates": null,
      "raw": "0xf9012a51850ba43b740083015f90946b211fdc0d944a84bba8534d631fad9262ba80b880b8c4541d920c00000000000000000000000000000000000000000000000000000000000000400000000000000000000000000000000000000000000000000000000000000080000000000000000000000000000000000000000000000000000000000000000a4d792070726f6772616d00000000000000000000000000000000000000000000000000000000000000000000000000000000000000000000000000000000000f496e697469616c20636f6d6d69742e00000000000000000000000000000000001ca01f7c4b79c15299f4d7769541454ef3cae744f0d5555ace737e28bb43393a8560a03d643e9e979a4bf5752eb36461a362cc1c879e1292427680752a3a6d835bb8b8",
      "networkId": 0,
      "chainId": 0
    }
  ]
}