{
  "hash": "0x882832226d2d8a41ef6bcf2a1deb14bd92dcf0b8b8282e9e29d98990fecef712",
  "parentHash": "0xa6f8ee311ef5bfe9aff4349bc8dddbfd99bd7edabf17ea0bd6c4842adf916b36",
  "number": 47698,
  "timestamp": 1438944900,
  "nonce": "0x697f41dcdbdf5378",
  "difficulty": 1444549159047,
  "gasLimit": {
    "_hex": "0xe611"
  },
  "gasUsed": {
    "_hex": "0x5208"
  },
  "miner": "0xe6A7a1d47ff21B6321162AEA7C6CB457D5476Bca",
  "extraData": "0x657468706f6f6c2e6f7267",
  "transactions": [
    {
      "hash": "0x5bb146a4c8134af090f98b08c3b01113b52d53f66f8c8a9a0de5a80e242210de",
      "blockHash": "0x882832226d2d8a41ef6bcf2a1deb14bd92dcf0b8b8282e9e29d98990fecef712",
      "blockNumber": 47698,
      "transactionIndex": 0,
      "confirmations": null,
      "from": "0xe6A7a1d47ff21B6321162AEA7C6CB457D5476Bca",
      "gasPrice": {
        "_hex": "0xcbce8e75d"
      },
      "gasLimit": {
        "_hex": "0x55f0"
      },
      "to": "0xA42A83f4FB6f632FE7Fae0e97E4180D1a939e4BA",
      "value": {
        "_hex": "0xb36768148fa6b158"
      },
      "nonce": 206,
      "data": "0x",
      "r": "0x0740a4eb8ca6866835e20c037844de2651b08a61cbd3f0e285d7925dd4e80999",
      "s": "0x03a2e959f157ccb17cb718607cbf53222e46b317568be5e9a9901f1cc5d6741a",
      "v": 27,
      "creates": null,
      "raw": "0xf86d81ce850cbce8e75d8255f094a42a83f4fb6f632fe7fae0e97e4180d1a939e4ba88b36768148fa6b158801ba00740a4eb8ca6866835e20c037844de2651b08a61cbd3f0e285d7925dd4e80999a003a2e959f157ccb17cb718607cbf53222e46b317568be5e9a9901f1cc5d6741a",
      "networkId": 0,
      "chainId": 0
    }
  ]
}