{
  "hash": "0x295965759fb5311d7f2c61b80629a098164cdf61baa1fecacc597963a3f9309f",
  "parentHash": "0x2b96a1a47409cc6b3faef76664ed506859ef3030a34e38b1a0507fc32cdd86d9",
  "number": 76605,
  "timestamp": 1439423200,
  "nonce": "0x6b751b95e0712d1e",
  "difficulty": 2246055446421,
  "gasLimit": {
    "_hex": "0x2fefd8"
  },
  "gasUsed": {
    "_hex": "0x5208"
  },
  "miner": "0xe6A7a1d47ff21B6321162AEA7C6CB457D5476Bca",
  "extraData": "0x476574682f76312e302e312d38326566323666362f6c696e75782f676f312e34",
  "transactions": [
    {
      "hash": "0xb57a49dbb515102518a07891cb017015746154fcb0d12d20a1cd2b3d731fb639",
      "blockHash": "0x295965759fb5311d7f2c61b80629a098164cdf61baa1fecacc597963a3f9309f",
      "blockNumber": 76605,
      "transactionIndex": 0,
      "confirmations": null,
      "from": "0x32Be343B94f860124dC4fEe278FDCBD38C102D88",
      "gasPrice": {
        "_hex": "0xd99dc3c62"
      },
      "gasLimit": {
        "_hex": "0x5208"
      },
      "to": "0x9E5B4729c3266d77caE7F08C303b191Ac4d6B8CD",
      "value": {
        "_hex": "0x55e618f9e168f0000"
      },
      "nonce": 353,
      "data": "0x",
      "r": "0x90838984b152914eb9c5af7f760d4beef2bfb62cafeaedda2a9eb62b10424627",
      "s": "0x0259f137fe974867bfcc26be45d183b36dacd281ae8c23b9f35c9ffd251d7248",
      "v": 27,
      "creates": null,
      "raw": "0xf86f820161850d99dc3c62825208949e5b4729c3266d77cae7f08c303b191ac4d6b8cd89055e618f9e168f0000801ba090838984b152914eb9c5af7f760d4beef2bfb62cafeaedda2a9eb62b10424627a00259f137fe974867bfcc26be45d183b36dacd281ae8c23b9f35c9ffd251d7248",
      "networkId": 0,
      "chainId": 0
    }
  ]
}