{
  "hash": "0xcb6a2a972315ec8d589beee47259895cfcc2ba3ea4291721cf4a6ea956bbc594",
  "parentHash": "0x0f2a2faeed2d1b6c5893c99c984f08f256366a1d552da746bd4794b5e4cf184a",
  "number": 108913,
  "timestamp": 1439948236,
  "nonce": "0x225d4a1e99e482e3",
  "difficulty": 4380659052744,
  "gasLimit": {
    "_hex": "0x2fefd8"
  },
  "gasUsed": {
    "_hex": "0x546c"
  },
  "miner": "0x7E6930B63D03e88F5928C5cd6ee3FCee4D714F7F",
  "extraData": "0x",
  "transactions": [
    {
      "hash": "0xb4947b0cdfa6a0eb344a3558062328b21b8925027197da51be674dc458bc1fa9",
      "blockHash": "0xcb6a2a972315ec8d589beee47259895cfcc2ba3ea4291721cf4a6ea956bbc594",
      "blockNumber": 108913,
      "transactionIndex": 0,
      "confirmations": null,
      "from": "0x0193d941b50d91BE6567c7eE1C0Fe7AF498b4137",
      "gasPrice": {
        "_hex": "0xd1ba653e2"
      },
      "gasLimit": {
        "_hex": "0x55f0"
      },
      "to": "0x2910543Af39abA0Cd09dBb2D50200b3E800A63D2",
      "value": {
        "_hex": "0xd8d726b7177a80000"
      },
      "nonce": 3,
      "data": "0x454e524b41434b4547",
      "r": "0x472817e4de9f1e07036ca30580763c314b9a3f6f512f4ce40acf6c4127670a44",
      "s": "0x51c4252e7639386870c5e7e8ac2ff473ee6f5727cf9c689671b34fd0b6eec6be",
      "v": 27,
      "creates": null,
      "raw": "0xf87603850d1ba653e28255f0942910543af39aba0cd09dbb2d50200b3e800a63d2890d8d726b7177a8000089454e524b41434b45471ba0472817e4de9f1e07036ca30580763c314b9a3f6f512f4ce40acf6c4127670a44a051c4252e7639386870c5e7e8ac2ff473ee6f5727cf9c689671b34fd0b6eec6be",
      "networkId": 0,
      "chainId": 0
    }
  ]
}