{
  "hash": "0x3d0f03a6d9f25f7051b784311ffbc0c3abafc0c05be89608e4c42994cbdd7b4e",
  "parentHash": "0x921e4de0913f00b5a5eb2f17716447ece545feb958089ebab9d611e80add16f6",
  "number": 121777,
  "timestamp": 1440182267,
  "nonce": "0x35513ad4f06df815",
  "difficulty": 4499588679278,
  "gasLimit": {
    "_hex": "0x2fefd8"
  },
  "gasUsed": {
    "_hex": "0xa410"
  },
  "miner": "0x9D49F602b0fdb924Bd63DDE2Bd0907E4A07c63a7",
  "extraData": "0x",
  "transactions": [
    {
      "hash": "0x58cfc9b0bd900c203cf552a738a6f689118e99a85c884c67e63b5a4425a81360",
      "blockHash": "0x3d0f03a6d9f25f7051b784311ffbc0c3abafc0c05be89608e4c42994cbdd7b4e",
      "blockNumber": 121777,
      "transactionIndex": 0,
      "confirmations": null,
      "from": "0x120A270bbC009644e35F0bB6ab13f95b8199c4ad",
      "gasPrice": {
        "_hex": "0xcae859e80"
      },
      "gasLimit": {
        "_hex": "0x3d090"
      },
      "to": "0x5DC7667fD89E4CA9860a0d9663A55c5df723eb00",
      "value": {
        "_hex": "0xd6524ad972b9f400"
      },
      "nonce": 985,
      "data": "0x",
      "r": "0xef1cb658b4429b584ff2eaacd9ee9790affcbf08eed584c0b9f98465d075bd43",
      "s": "0x1c1eac15a565002ebd69dfae4d55e12c99fee9d7830ec016cf07e1985e618a60",
      "v": 27,
      "creates": null,
      "raw": "0xf86f8203d9850cae859e808303d090945dc7667fd89e4ca9860a0d9663a55c5df723eb0088d6524ad972b9f400801ba0ef1cb658b4429b584ff2eaacd9ee9790affcbf08eed584c0b9f98465d075bd43a01c1eac15a565002ebd69dfae4d55e12c99fee9d7830ec016cf07e1985e618a60",
      "networkId": 0,
      "chainId": 0
    },
    {
      "hash": "0x5d518c64fe3d248596ad61470fb577657830fc887ba1c7dacbb6a47f50ee4983",
      "blockHash": "0x3d0f03a6d9f25f7051b784311ffbc0c3abafc0c05be89608e4c42994cbdd7b4e",
      "blockNumber": 121777,
      "transactionIndex": 1,
      "confirmations": null,
      "from": "0x120A270bbC009644e35F0bB6ab13f95b8199c4ad",
      "gasPrice": {
        "_hex": "0xcae859e80"
      },
      "gasLimit": {
        "_hex": "0x3d090"
      },
      "to": "0xe053AcD313B1EC82d1AD41b58311ead80B7a50c2",
      "value": {
        "_hex": "0x41ab763763a6e9800"
      },
      "nonce": 986,
      "data": "0x",
      "r": "0x93b77e219daa5becdd2edbd5b8f1a2501acff7d6522a8cf476a19397fb361264",
      "s": "0x2020fa67110b19721a9ed5ba80d7b3f996d93b6a078a424150687236766246ee",
      "v": 27,
      "creates": null,
      "raw": "0xf8708203da850cae859e808303d09094e053acd313b1ec82d1ad41b58311ead80b7a50c289041ab763763a6e9800801ba093b77e219daa5becdd2edbd5b8f1a2501acff7d6522a8cf476a19397fb361264a02020fa67110b19721a9ed5ba80d7b3f996d93b6a078a424150687236766246ee",
      "networkId": 0,
      "chainId": 0
    }
  ]
}