{
  "hash": "0xb9da6135b525ff62db152462e0a2abeb30b7300e8e15ba06d0df04d24c1ebf2f",
  "parentHash": "0x56dfe216ad14365873b63de600bf32016485fe80a9399ba34e8f6e63384cb935",
  "number": 116480,
  "timestamp": 1440074943,
  "nonce": "0x5a36fa9d90ad1749",
  "difficulty": 4557728994247,
  "gasLimit": {
    "_hex": "0x2fefd8"
  },
  "gasUsed": {
    "_hex": "0xa410"
  },
  "miner": "0x7545424138DEc7d41e4AC3918bB8af403ef6CC81",
  "extraData": "0xdd809b302e392e34312b2b616232612d524c696e75782f672b2b2f4a4954",
  "transactions": [
    {
      "hash": "0x8b6b69893f9bd668a285b695f5548f85b82b1efb235df73661e09af43689eeac",
      "blockHash": "0xb9da6135b525ff62db152462e0a2abeb30b7300e8e15ba06d0df04d24c1ebf2f",
      "blockNumber": 116480,
      "transactionIndex": 0,
      "confirmations": null,
      "from": "0xCDA330c8160f0c90B8B528C6Db267acc17381818",
      "gasPrice": {
        "_hex": "0xd5794a348"
      },
      "gasLimit": {
        "_hex": "0x5208"
      },
      "to": "0x32Be343B94f860124dC4fEe278FDCBD38C102D88",
      "value": {
        "_hex": "0x15eff00a01bf800"
      },
      "nonce": 7,
      "data": "0x",
      "r": "0xc7a0a1d9a454ddf12bfffd0d18e37562d5fe84642c92327623fafa763379afa8",
      "s": "0x5a46ea47161f276e527d9f8198a10b90f49dcb13fff615224c0a65d07f8916c8",
      "v": 27,
      "creates": null,
      "raw": "0xf86c07850d5794a3488252089432be343b94f860124dc4fee278fdcbd38c102d8888015eff00a01bf800801ba0c7a0a1d9a454ddf12bfffd0d18e37562d5fe84642c92327623fafa763379afa8a05a46ea47161f276e527d9f8198a10b90f49dcb13fff615224c0a65d07f8916c8",
      "networkId": 0,
      "chainId": 0
    },
    {
      "hash": "0x8f323d06cc94abada9be1b30b99c6523e012fd27f49bc1e532226d9823c6732d",
      "blockHash": "0xb9da6135b525ff62db152462e0a2abeb30b7300e8e15ba06d0df04d24c1ebf2f",
      "blockNumber": 116480,
      "transactionIndex": 1,
      "confirmations": null,
      "from": "0xef15013444529615642Be484eAe67F5dcD7F72e8",
      "gasPrice": {
        "_hex": "0xd5794a348"
      },
      "gasLimit": {
        "_hex": "0x5208"
      },
      "to": "0x32Be343B94f860124dC4fEe278FDCBD38C102D88",
      "value": {
        "_hex": "0x5f2507fc7ce540000"
      },
      "nonce": 1,
      "data": "0x",
      "r": "0xb0fb1768c1b833620006d6abf8fb622ff479f2c3dfd2a0ccb83059bf95a45324",
      "s": "0x441c191f87f001a446bb1132a35a0de075b9a1d01295d27099a04752f136d7a0",
      "v": 28,
      "creates": null,
      "raw": "0xf86d01850d5794a3488252089432be343b94f860124dc4fee278fdcbd38c102d888905f2507fc7ce540000801ca0b0fb1768c1b833620006d6abf8fb622ff479f2c3dfd2a0ccb83059bf95a45324a0441c191f87f001a446bb1132a35a0de075b9a1d01295d27099a04752f136d7a0",
      "networkId": 0,
      "chainId": 0
    }
  ]
}