{
  "hash": "0x47991f011bad50deb7e451173c69a0173eab8222b7d781ffc1ef998715de4e41",
  "parentHash": "0x3996211eb26b6cf28292bcbbdeaac81839e1e57fd99b8796bbb7a896c1c92552",
  "number": 80305,
  "timestamp": 1439483543,
  "nonce": "0xe9c63df32fb7a148",
  "difficulty": 2375897112612,
  "gasLimit": {
    "_hex": "0x2fefd8"
  },
  "gasUsed": {
    "_hex": "0x164ef"
  },
  "miner": "0x88D74a59454F6cF3B51ef6b9136AFb6b9D405A88",
  "extraData": "0x476574682f76312e302e312d37666266393930632f6c696e75782f676f312e34",
  "transactions": [
    {
      "hash": "0x41dddcb54ddbdefd072c7c3a0b6f88c30a16eda7504634a4feed8f2a0b6b8e8c",
      "blockHash": "0x47991f011bad50deb7e451173c69a0173eab8222b7d781ffc1ef998715de4e41",
      "blockNumber": 80305,
      "transactionIndex": 0,
      "confirmations": null,
      "from": "0x87C5B5874A18B4306DF8a752a6C8cc3E82daFc19",
      "gasPrice": {
        "_hex": "0x117461fec8f"
      },
      "gasLimit": {
        "_hex": "0x493e0"
      },
      "to": "0xC4c51de1AbF5D60DBd329eC0F999Fd8f021ae9fC",
      "value": {
        "_hex": "0x0"
      },
      "nonce": 169,
      "data": "0xbd66528a6b6b6b0000000000000000000000000000000000000000000000000000000000",
      "r": "0x39af352102382b3bf7f2752ab5f8d589abb9138dba7533dbd4103358dd3cd664",
      "s": "0x35170181b35733740f559c76e9bac82c933d3cf482e0a115d8cb78859305ea04",
      "v": 28,
      "creates": null,
      "raw": "0xf88b81a9860117461fec8f830493e094c4c51de1abf5d60dbd329ec0f999fd8f021ae9fc80a4bd66528a6b6b6b00000000000000000000000000000000000000000000000000000000001ca039af352102382b3bf7f2752ab5f8d589abb9138dba7533dbd4103358dd3cd664a035170181b35733740f559c76e9bac82c933d3cf482e0a115d8cb78859305ea04",
      "networkId": 0,
      "chainId": 0
    },
    {
      "hash": "0x762f9af29b620b35d046be7d5acee958848a69e096b9b55e1025e4e484e3fe2f",
      "blockHash": "0x47991f011bad50deb7e451173c69a0173eab8222b7d781ffc1ef998715de4e41",
      "blockNumber": 80305,
      "transactionIndex": 1,
      "confirmations": null,
      "from": "0x32Be343B94f860124dC4fEe278FDCBD38C102D88",
      "gasPrice": {
        "_hex": "0xd0f6ede1a"
      },
      "gasLimit": {
        "_hex": "0x5208"
      },
      "to": "0x38FB37D21aC6EFF0F341C48fe251fe34085079cA",
      "value": {
        "_hex": "0x579848dee9ab30000"
      },
      "nonce": 525,
      "data": "0x",
      "r": "0xa989856a67573e68779902c24ab70eaef61bc645192da57a93a93f436f6fde8f",
      "s": "0x4cf85a3efae1269458ed2635d868fb8ab05873f15056fa0f346a3732e42b4bed",
      "v": 27,
      "creates": null,
      "raw": "0xf86f82020d850d0f6ede1a8252089438fb37d21ac6eff0f341c48fe251fe34085079ca890579848dee9ab30000801ba0a989856a67573e68779902c24ab70eaef61bc645192da57a93a93f436f6fde8fa04cf85a3efae1269458ed2635d868fb8ab05873f15056fa0f346a3732e42b4bed",
      "networkId": 0,
      "chainId": 0
    },
    {
      "hash": "0x71998177dee4dae2302e17ea32bcec69ca3478cfea4a0ba3e0ed052633aeffb4",
      "blockHash": "0x47991f011bad50deb7e451173c69a0173eab8222b7d781ffc1ef998715de4e41",
      "blockNumber": 80305,
      "transactionIndex": 2,
      "confirmations": null,
      "from": "0x5520a56e563e93652B6867Cf334eE14fCa33480f",
      "gasPrice": {
        "_hex": "0xba43b7400"
      },
      "gasLimit": {
        "_hex": "0x5208"
      },
      "to": "0xC47Aaa860008be6f65B58c6C6E02a84e666EfE31",
      "value": {
        "_hex": "0xad7793de9613c0710"
      },
      "nonce": 2,
      "data": "0x",
      "r": "0xcfc2fbc8d74dc4a4630d279c893f57fbbc71db8afc29566d8ba66b532d6fd814",
      "s": "0x2ccd99ed37ab889e9d5e76caf5f802e3771327d520999fb79402f986e8caa694",
      "v": 27,
      "creates": null,
      "raw": "0xf86d02850ba43b740082520894c47aaa860008be6f65b58c6c6e02a84e666efe31890ad7793de9613c0710801ba0cfc2fbc8d74dc4a4630d279c893f57fbbc71db8afc29566d8ba66b532d6fd814a02ccd99ed37ab889e9d5e76caf5f802e3771327d520999fb79402f986e8caa694",
      "networkId": 0,
      "chainId": 0
    },
    {
      "hash": "0x3671009d2025127df93eaddf860163e9d8069f9b6be8a7e6ac0d6de9beb4e435",
      "blockHash": "0x47991f011bad50deb7e451173c69a0173eab8222b7d781ffc1ef998715de4e41",
      "blockNumber": 80305,
      "transactionIndex": 3,
      "confirmations": null,
      "from": "0xd17093D77f41dDfBF2438648C87a6F067922912E",
      "gasPrice": {
        "_hex": "0xba43b7400"
      },
      "gasLimit": {
        "_hex": "0x5208"
      },
      "to": "0xC47Aaa860008be6f65B58c6C6E02a84e666EfE31",
      "value": {
        "_hex": "0x1b9a2b7cb20338f0"
      },
      "nonce": 0,
      "data": "0x",
      "r": "0xce6e477f1e3fe100d930293aa81e6217f3018ce10dc91de5a621efb5c063a143",
      "s": "0x26a3ed6bec015616fccd9b9d2c8c87aa314df2d97fa3c4cb3f0b4d6e525f680b",
      "v": 28,
      "creates": null,
      "raw": "0xf86c80850ba43b740082520894c47aaa860008be6f65b58c6c6e02a84e666efe31881b9a2b7cb20338f0801ca0ce6e477f1e3fe100d930293aa81e6217f3018ce10dc91de5a621efb5c063a143a026a3ed6bec015616fccd9b9d2c8c87aa314df2d97fa3c4cb3f0b4d6e525f680b",
      "networkId": 0,
      "chainId": 0
    }
  ]
}