{
  "hash": "0x278a9871346a814612e14a49db516553521a55246d4d487ad965189725bdd1e1",
  "parentHash": "0xa38c82809e8ea496588d58e82f95c28cd6067f53db190b5a14c2593ab7c3c8b3",
  "number": 105437,
  "timestamp": 1439887543,
  "nonce": "0xec7a88c8836babf8",
  "difficulty": 4391042535108,
  "gasLimit": {
    "_hex": "0x2fefd8"
  },
  "gasUsed": {
    "_hex": "0xa410"
  },
  "miner": "0x5F8F73E26CdF436f19Cb24C82F90A15AFe55b592",
  "extraData": "0x476574682f76312e302e312f77696e646f77732f676f312e342e32",
  "transactions": [
    {
      "hash": "0x73545fab4eac8c1e12b7e067f448e2114c6c39b11641e1aeb9343c3ac9f6a20d",
      "blockHash": "0x278a9871346a814612e14a49db516553521a55246d4d487ad965189725bdd1e1",
      "blockNumber": 105437,
      "transactionIndex": 0,
      "confirmations": null,
      "from": "0xD51361E8863b74B1d3BF75246d30f33f9f103e1d",
      "gasPrice": {
        "_hex": "0xd2f3a4236"
      },
      "gasLimit": {
        "_hex": "0x5208"
      },
      "to": "0x32Be343B94f860124dC4fEe278FDCBD38C102D88",
      "value": {
        "_hex": "0xaaa19b306dbcf000"
      },
      "nonce": 5,
      "data": "0x",
      "r": "0x860223cd44a28b05d31755f27246d63182d81003d6b5a245c30b711043e6ddd8",
      "s": "0x2b9396411e72a3411aad7803d6d1a2324ee68e145b7a1226d92bec91078cc16d",
      "v": 27,
      "creates": null,
      "raw": "0xf86c05850d2f3a42368252089432be343b94f860124dc4fee278fdcbd38c102d8888aaa19b306dbcf000801ba0860223cd44a28b05d31755f27246d63182d81003d6b5a245c30b711043e6ddd8a02b9396411e72a3411aad7803d6d1a2324ee68e145b7a1226d92bec91078cc16d",
      "networkId": 0,
      "chainId": 0
    },
    {
      "hash": "0xb140db85c9125046533e367b8b6f8898610e27c88d7d0e86d52a2affc570a48d",
      "blockHash": "0x278a9871346a814612e14a49db516553521a55246d4d487ad965189725bdd1e1",
      "blockNumber": 105437,
      "transactionIndex": 1,
      "confirmations": null,
      "from": "0x68d3578bFBeEFB9C1e31cE355A29ad3a107F88C5",
      "gasPrice": {
        "_hex": "0xd2f3a4236"
      },
      "gasLimit": {
        "_hex": "0x5208"
      },
      "to": "0x32Be343B94f860124dC4fEe278FDCBD38C102D88",
      "value": {
        "_hex": "0x2b522c2c2f01b800"
      },
      "nonce": 6,
      "data": "0x",
      "r": "0xa638203b5209797092bc5791233799e7d30e899acac0070a3b6a23b81d525067",
      "s": "0x3e16b5da67cd3f87e8d886e9685307c725f568c4717f486d8177e63b1e796ff3",
      "v": 27,
      "creates": null,
      "raw": "0xf86c06850d2f3a42368252089432be343b94f860124dc4fee278fdcbd38c102d88882b522c2c2f01b800801ba0a638203b5209797092bc5791233799e7d30e899acac0070a3b6a23b81d525067a03e16b5da67cd3f87e8d886e9685307c725f568c4717f486d8177e63b1e796ff3",
      "networkId": 0,
      "chainId": 0
    }
  ]
}