{
  "hash": "0xdac1a089f404e209e7dcc012909e08206c36e1662d0377f52b1a339a70e79bfb",
  "parentHash": "0x4592ae84b74ced5856b66bae691667e133429b20d4c91c8bd0be78434faed0e7",
  "number": 87135,
  "timestamp": 1439587691,
  "nonce": "0x02c8c3263fddf3ab",
  "difficulty": 3057172917514,
  "gasLimit": {
    "_hex": "0x2fefd8"
  },
  "gasUsed": {
    "_hex": "0xa410"
  },
  "miner": "0xe6A7a1d47ff21B6321162AEA7C6CB457D5476Bca",
  "extraData": "0x476574682f76312e302e312d38326566323666362f6c696e75782f676f312e34",
  "transactions": [
    {
      "hash": "0x993557ee04fbfdb9097cb19538608ac1c6b5ec40b80ebaf4226819409817ea51",
      "blockHash": "0xdac1a089f404e209e7dcc012909e08206c36e1662d0377f52b1a339a70e79bfb",
      "blockNumber": 87135,
      "transactionIndex": 0,
      "confirmations": null,
      "from": "0x2910543Af39abA0Cd09dBb2D50200b3E800A63D2",
      "gasPrice": {
        "_hex": "0xda507c4dd"
      },
      "gasLimit": {
        "_hex": "0x5208"
      },
      "to": "0x5DBAa2ca43Ddf70321B7806a81a6A1988F9019a4",
      "value": {
        "_hex": "0x6de97e09bd18000"
      },
      "nonce": 694,
      "data": "0x",
      "r": "0xf80c589f8325617233760336b001ef0098e07399c4aa9419d382040ac0bdff33",
      "s": "0x1a50daf152b0a1b05fa2db882d38f771cf94b7a1da10b1a869b40b426adab028",
      "v": 28,
      "creates": null,
      "raw": "0xf86e8202b6850da507c4dd825208945dbaa2ca43ddf70321b7806a81a6a1988f9019a48806de97e09bd18000801ca0f80c589f8325617233760336b001ef0098e07399c4aa9419d382040ac0bdff33a01a50daf152b0a1b05fa2db882d38f771cf94b7a1da10b1a869b40b426adab028",
      "networkId": 0,
      "chainId": 0
    },
    {
      "hash": "0x017f9f0657ae52d6979976386eede2d861a88f104d93a7bd091d3bedd88f195c",
      "blockHash": "0xdac1a089f404e209e7dcc012909e08206c36e1662d0377f52b1a339a70e79bfb",
      "blockNumber": 87135,
      "transactionIndex": 1,
      "confirmations": null,
      "from": "0x2910543Af39abA0Cd09dBb2D50200b3E800A63D2",
      "gasPrice": {
        "_hex": "0xda507c4dd"
      },
      "gasLimit": {
        "_hex": "0x5208"
      },
      "to": "0x4Ca2bE31e663B55D31AE89189C50864ae7B5aC7d",
      "value": {
        "_hex": "0x57d1f265660cef8000"
      },
      "nonce": 695,
      "data": "0x",
      "r": "0x205561fac1f47ecf9e0be60a367c5f765615264d81f28479b7d03277320980da",
      "s": "0x4405b6ef861872e79ff731d5a8cae6b4a3eb86c045cbd385bc76c8fa359fdda5",
      "v": 28,
      "creates": null,
      "raw": "0xf86f8202b7850da507c4dd825208944ca2be31e663b55d31ae89189c50864ae7b5ac7d8957d1f265660cef8000801ca0205561fac1f47ecf9e0be60a367c5f765615264d81f28479b7d03277320980daa04405b6ef861872e79ff731d5a8cae6b4a3eb86c045cbd385bc76c8fa359fdda5",
      "networkId": 0,
      "chainId": 0
    }
  ]
}