{
  "hash": "0xb6ef9b45aec84a4e8c92143cc428aa427a883a317b8b7bff1ac1c7b1a305557b",
  "parentHash": "0x421739acc5046d4ea103c493a246812f2e07e736cfea6b21e0116f5763c76b17",
  "number": 119232,
  "timestamp": 1440139180,
  "nonce": "0x27a581c0b3ee49cb",
  "difficulty": 4420368077125,
  "gasLimit": {
    "_hex": "0x2fefd8"
  },
  "gasUsed": {
    "_hex": "0x5208"
  },
  "miner": "0x52bc44d5378309EE2abF1539BF71dE1b7d7bE3b5",
  "extraData": "0xd783010002844765746887676f312e342e32856c696e7578",
  "transactions": [
    {
      "hash": "0x7ab1b890d375e67e4838fcbfbcf3828d1a7d61e129b36f939c6e21e61ae17992",
      "blockHash": "0xb6ef9b45aec84a4e8c92143cc428aa427a883a317b8b7bff1ac1c7b1a305557b",
      "blockNumber": 119232,
      "transactionIndex": 0,
      "confirmations": null,
      "from": "0x17B719A685fC6C0002798e7f8151D0E2E83B7497",
      "gasPrice": {
        "_hex": "0xba43b7400"
      },
      "gasLimit": {
        "_hex": "0x15f90"
      },
      "to": "0x8F79f76381Aad7B98C19aF55eE75fdfEeb012211",
      "value": {
        "_hex": "0x8ac7230489e80000"
      },
      "nonce": 0,
      "data": "0x",
      "r": "0x71cd8e34d077611e21d18414d8430745920e4de8403249993cb3db0a8dac4dfb",
      "s": "0x73d3e4ab86da03123d23656b6c065b6ef1f10fdc7ed484507de25c6b79f07d4f",
      "v": 28,
      "creates": null,
      "raw": "0xf86d80850ba43b740083015f90948f79f76381aad7b98c19af55ee75fdfeeb012211888ac7230489e80000801ca071cd8e34d077611e21d18414d8430745920e4de8403249993cb3db0a8dac4dfba073d3e4ab86da03123d23656b6c065b6ef1f10fdc7ed484507de25c6b79f07d4f",
      "networkId": 0,
      "chainId": 0
    }
  ]
}