{
  "hash": "0x1e9603432e7d1940321ea64548e9251296b52141fb5143cdb6925dc88534201e",
  "parentHash": "0xbcbf222d793b38b4c886ade994613a1b74b8f663dfcf07ad51855e685256a268",
  "number": 120811,
  "timestamp": 1440166279,
  "nonce": "0x89f6334ce6d61886",
  "difficulty": 4452024585877,
  "gasLimit": {
    "_hex": "0x2fefd8"
  },
  "gasUsed": {
    "_hex": "0x5208"
  },
  "miner": "0x790b8a3cE86E707ED0eD32bF89B3269692a23CC1",
  "extraData": "0xd783010002844765746887676f312e342e32856c696e7578",
  "transactions": [
    {
      "hash": "0xf50abe52b6dc7514b1965c978590eb5eaea07f8db47df9edb5432f86d393dd9a",
      "blockHash": "0x1e9603432e7d1940321ea64548e9251296b52141fb5143cdb6925dc88534201e",
      "blockNumber": 120811,
      "transactionIndex": 0,
      "confirmations": null,
      "from": "0x2910543Af39abA0Cd09dBb2D50200b3E800A63D2",
      "gasPrice": {
        "_hex": "0xd8079071c"
      },
      "gasLimit": {
        "_hex": "0x5208"
      },
      "to": "0x14101dABf1212bB2d77C70E121AA394c4293af74",
      "value": {
        "_hex": "0xae3c4579a729e4000"
      },
      "nonce": 1182,
      "data": "0x",
      "r": "0x2a39277dcc3c7ceee67c84fe58ce71d2ca89037d3260e8f5d1e2b852816f073a",
      "s": "0x588c3e4d45d162ef996ac1dca3095f659e81ceefeee48f766b70216e3c6fe856",
      "v": 27,
      "creates": null,
      "raw": "0xf86f82049e850d8079071c8252089414101dabf1212bb2d77c70e121aa394c4293af74890ae3c4579a729e4000801ba02a39277dcc3c7ceee67c84fe58ce71d2ca89037d3260e8f5d1e2b852816f073aa0588c3e4d45d162ef996ac1dca3095f659e81ceefeee48f766b70216e3c6fe856",
      "networkId": 0,
      "chainId": 0
    }
  ]
}