{
  "hash": "0xefca641900d8dc52ea06210044d31bdffd63028e18179db356e292d1d5139f13",
  "parentHash": "0xff5ec8298c68ca1430d418dfd8cf63383e65a2934f87f3da3a802a88f3de44e9",
  "number": 108280,
  "timestamp": 1439937610,
  "nonce": "0x2589bd4464987866",
  "difficulty": 4353268683711,
  "gasLimit": {
    "_hex": "0x2fefd8"
  },
  "gasUsed": {
    "_hex": "0x5208"
  },
  "miner": "0x4b0424c09BaC4Ee3f4376f1D3fA354E8Cb2D3171",
  "extraData": "0x",
  "transactions": [
    {
      "hash": "0xb13768de77216ecf79b4c285c26c9ef91bcfcf20962548df7a17bae79c40bda6",
      "blockHash": "0xefca641900d8dc52ea06210044d31bdffd63028e18179db356e292d1d5139f13",
      "blockNumber": 108280,
      "transactionIndex": 0,
      "confirmations": null,
      "from": "0x5DE860D6869F1f5B252804d304547004Da5d69dF",
      "gasPrice": {
        "_hex": "0xd991c9d77"
      },
      "gasLimit": {
        "_hex": "0x7a120"
      },
      "to": "0xBBDa93a81B882774e1c9b5e3F933Fa35DaC8bc88",
      "value": {
        "_hex": "0x4563918244f40000"
      },
      "nonce": 1,
      "data": "0x",
      "r": "0x01903b3b7868d3c2588a10107c948f70b395adfb44e3bc8078e047696806d46e",
      "s": "0x61e1ac34b03be3763de88a4ebf454139816c40315de5dba86175ddd1836c6afb",
      "v": 27,
      "creates": null,
      "raw": "0xf86d01850d991c9d778307a12094bbda93a81b882774e1c9b5e3f933fa35dac8bc88884563918244f40000801ba001903b3b7868d3c2588a10107c948f70b395adfb44e3bc8078e047696806d46ea061e1ac34b03be3763de88a4ebf454139816c40315de5dba86175ddd1836c6afb",
      "networkId": 0,
      "chainId": 0
    }
  ]
}