{
  "hash": "0x425b81638fdbf54d7844c7588e3ca782e3a74abe42e5a26243a3813310a5008f",
  "parentHash": "0xc3b40a1a8cc81d5be81b74ec426761ecc6a72cb864211450bfd49f58b2ff305e",
  "number": 105238,
  "timestamp": 1439884040,
  "nonce": "0xa58c0b01a6130f26",
  "difficulty": 4350596910897,
  "gasLimit": {
    "_hex": "0x2fefd8"
  },
  "gasUsed": {
    "_hex": "0x5208"
  },
  "miner": "0xc0fA87135254768597352383959A855181c4aAf6",
  "extraData": "0x476574682f76312e302e312f6c696e75782f676f312e342e32",
  "transactions": [
    {
      "hash": "0xb3566e5d4d1c6d1d857cc9a7571c6d92e3bad572a6343af02bb1018342e1e550",
      "blockHash": "0x425b81638fdbf54d7844c7588e3ca782e3a74abe42e5a26243a3813310a5008f",
      "blockNumber": 105238,
      "transactionIndex": 0,
      "confirmations": null,
      "from": "0x32Be343B94f860124dC4fEe278FDCBD38C102D88",
      "gasPrice": {
        "_hex": "0xd74941fda"
      },
      "gasLimit": {
        "_hex": "0x5208"
      },
      "to": "0x974f44449D24d504Bc7CbdB8AEEF4B4f4e906C97",
      "value": {
        "_hex": "0x622e010f54888c00"
      },
      "nonce": 1165,
      "data": "0x",
      "r": "0x9db2d512af9f956c138fe14fa47429cce786b0d859f2f368f20a8c12cd25e0ea",
      "s": "0x19e993a273d45071c4de43f9cd9f5ab6e99c09f2f754882aa4ebabb1e9f70641",
      "v": 28,
      "creates": null,
      "raw": "0xf86e82048d850d74941fda82520894974f44449d24d504bc7cbdb8aeef4b4f4e906c9788622e010f54888c00801ca09db2d512af9f956c138fe14fa47429cce786b0d859f2f368f20a8c12cd25e0eaa019e993a273d45071c4de43f9cd9f5ab6e99c09f2f754882aa4ebabb1e9f70641",
      "networkId": 0,
      "chainId": 0
    }
  ]
}