{
  "hash": "0xeb3118ad54f6753fc92a3f57e253fa52ae4c1605e165ff08b1bdd02ec99a7c34",
  "parentHash": "0x0d42fea6435b29eee48d52266af80e643b71c9b5899f929d52a98217c71ee43e",
  "number": 50976,
  "timestamp": 1438997575,
  "nonce": "0x2fbc2097e52656f3",
  "difficulty": 1547657422051,
  "gasLimit": {
    "_hex": "0x87cb2"
  },
  "gasUsed": {
    "_hex": "0x5208"
  },
  "miner": "0xF0cf0af5BD7d8A3a1CaD12A30b097265d49F255d",
  "extraData": "0x476574682f76312e302e312f6c696e75782f676f312e342e32",
  "transactions": [
    {
      "hash": "0x3f0a317f29739994d94467ed64556e5770ada32f889dce394d88bbd47cd0a07c",
      "blockHash": "0xeb3118ad54f6753fc92a3f57e253fa52ae4c1605e165ff08b1bdd02ec99a7c34",
      "blockNumber": 50976,
      "transactionIndex": 0,
      "confirmations": null,
      "from": "0x3Ad06149b21C55Ff867cc3fb9740D2BCc7101231",
      "gasPrice": {
        "_hex": "0xce3fa20c5"
      },
      "gasLimit": {
        "_hex": "0x15f90"
      },
      "to": "0x1308A2e95c0160B90803ddCA9B9a5bb55E416d79",
      "value": {
        "_hex": "0x21e19e0c9bab2400000"
      },
      "nonce": 7,
      "data": "0x",
      "r": "0x59494ae34ba3ef318b0b16f2a88d54062d881313e95481c6299404d84a0ea0d1",
      "s": "0x0f0365b348d1222a55441e64dd0d3e0396ac7e9183be74f3a66b0263c3909885",
      "v": 27,
      "creates": null,
      "raw": "0xf86f07850ce3fa20c583015f90941308a2e95c0160b90803ddca9b9a5bb55e416d798a021e19e0c9bab2400000801ba059494ae34ba3ef318b0b16f2a88d54062d881313e95481c6299404d84a0ea0d1a00f0365b348d1222a55441e64dd0d3e0396ac7e9183be74f3a66b0263c3909885",
      "networkId": 0,
      "chainId": 0
    }
  ]
}