{
  "hash": "0x32f283aa072684529990c9fd20646df28e3036e8ee2cd4cb2495b949acf2dda1",
  "parentHash": "0x17fa4507b4d39e7cac54b08d380616bf3fe038c36ba748d8c911260079d4dae4",
  "number": 47365,
  "timestamp": 1438938964,
  "nonce": "0x01b2ce5bb5f6f485",
  "difficulty": 1453805535503,
  "gasLimit": {
    "_hex": "0xb56a"
  },
  "gasUsed": {
    "_hex": "0xa410"
  },
  "miner": "0x108b54b7E3c09F8127CB8B28ffA3AD4001b32998",
  "extraData": "0x476574682f76312e302e312f6c696e75782f676f312e342e32",
  "transactions": [
    {
      "hash": "0xa62d4a9cd27d7a918584debc056707df5ff5531a21bafd7e3563d34a45bff4bd",
      "blockHash": "0x32f283aa072684529990c9fd20646df28e3036e8ee2cd4cb2495b949acf2dda1",
      "blockNumber": 47365,
      "transactionIndex": 0,
      "confirmations": null,
      "from": "0x7d7e7c61779adB7706C94D32409A2bb4E994bf60",
      "gasPrice": {
        "_hex": "0x2ba7def3000"
      },
      "gasLimit": {
        "_hex": "0x5208"
      },
      "to": "0x734B61f8167583Fcd27c677b8dB9369C6A3d0689",
      "value": {
        "_hex": "0x38d7ea4c68000"
      },
      "nonce": 4,
      "data": "0x",
      "r": "0x7c649a707ca2a0061aca0d43bc00de3e3b565a618abdcbb5e376b4119cbe3abd",
      "s": "0x29733dae877b1c67c3cf27c8679d5790c7047995d313c594887951922e2cfb8e",
      "v": 27,
      "creates": null,
      "raw": "0xf86c048602ba7def300082520894734b61f8167583fcd27c677b8db9369c6a3d068987038d7ea4c68000801ba07c649a707ca2a0061aca0d43bc00de3e3b565a618abdcbb5e376b4119cbe3abda029733dae877b1c67c3cf27c8679d5790c7047995d313c594887951922e2cfb8e",
      "networkId": 0,
      "chainId": 0
    },
    {
      "hash": "0x990fcea66aaeb575089866f9c27c5334f4b309a340f820e0e67c91e0fc104e20",
      "blockHash": "0x32f283aa072684529990c9fd20646df28e3036e8ee2cd4cb2495b949acf2dda1",
      "blockNumber": 47365,
      "transactionIndex": 1,
      "confirmations": null,
      "from": "0xab265e840933431739e8BE901b21785AAb7d28bE",
      "gasPrice": {
        "_hex": "0x746a528800"
      },
      "gasLimit": {
        "_hex": "0x5208"
      },
      "to": "0xF9A19Aea1193D9b9E4ef2F5B8c9eC8df93a22356",
      "value": {
        "_hex": "0x1bc16d674ec80000"
      },
      "nonce": 2,
      "data": "0x",
      "r": "0x7735db236cc716bcdc93dce71b67dec18b0d796bba1af311f187260e119008c0",
      "s": "0x3a5149abe5cadfeabce1cf4e4721321a17460f756b2db3b866695abaed4a5c69",
      "v": 27,
      "creates": null,
      "raw": "0xf86c0285746a52880082520894f9a19aea1193d9b9e4ef2f5b8c9ec8df93a22356881bc16d674ec80000801ba07735db236cc716bcdc93dce71b67dec18b0d796bba1af311f187260e119008c0a03a5149abe5cadfeabce1cf4e4721321a17460f756b2db3b866695abaed4a5c69",
      "networkId": 0,
      "chainId": 0
    }
  ]
}