{
  "hash": "0xd879c0c85fe665e29ad495478a8cd9183fb418c35c04d18ceacec4ee098079e0",
  "parentHash": "0x6928348c9a218cfce49c16a191543689313dfd5e7d5caf91e47165dd36096a01",
  "number": 47163,
  "timestamp": 1438935310,
  "nonce": "0x23dd3b306843fae0",
  "difficulty": 1458106088082,
  "gasLimit": {
    "_hex": "0x9de9"
  },
  "gasUsed": {
    "_hex": "0x5208"
  },
  "miner": "0xbb7B8287f3F0a933474a79eAe42CBCa977791171",
  "extraData": "0x476574682f4c5649562f76312e302e312f6c696e75782f676f312e342e32",
  "transactions": [
    {
      "hash": "0xb69140298eafb163d0ba778907c22526abb3dc53dfec45a2677b9813d9e3a169",
      "blockHash": "0xd879c0c85fe665e29ad495478a8cd9183fb418c35c04d18ceacec4ee098079e0",
      "blockNumber": 47163,
      "transactionIndex": 0,
      "confirmations": null,
      "from": "0xe6A7a1d47ff21B6321162AEA7C6CB457D5476Bca",
      "gasPrice": {
        "_hex": "0xdbc7fca0d"
      },
      "gasLimit": {
        "_hex": "0x5208"
      },
      "to": "0xb5efa1ED835F579435D9C1447381e285d335B94E",
      "value": {
        "_hex": "0x44cbc3b076c59ef0"
      },
      "nonce": 59,
      "data": "0x",
      "r": "0x04f9058e9347bea78b7d2f6591d99711ce4b70559e07f12a1c0c221ceeef4af3",
      "s": "0x025c2c5cc8a74556670205bf004e64c05e19a301beb4f26d327af78620348511",
      "v": 27,
      "creates": null,
      "raw": "0xf86c3b850dbc7fca0d82520894b5efa1ed835f579435d9c1447381e285d335b94e8844cbc3b076c59ef0801ba004f9058e9347bea78b7d2f6591d99711ce4b70559e07f12a1c0c221ceeef4af3a0025c2c5cc8a74556670205bf004e64c05e19a301beb4f26d327af78620348511",
      "networkId": 0,
      "chainId": 0
    }
  ]
}