{
  "hash": "0xef47b7ad1291f51dbb1a3a4833c3560096b7b23f0a89d8e17ae83e063011b455",
  "parentHash": "0x5cc312aea6658f87857db405424bfbd8538566ab4a4bb3018f94a5464dc362f2",
  "number": 52693,
  "timestamp": 1439025744,
  "nonce": "0x681bf83bfbe9084a",
  "difficulty": 1572475371140,
  "gasLimit": {
    "_hex": "0x17e6a3"
  },
  "gasUsed": {
    "_hex": "0x16e360"
  },
  "miner": "0xeB1325C8D9d3ea8D74aC11F4B00F1B2367686319",
  "extraData": "0x476574682f76312e302e312f77696e646f77732f676f312e342e32",
  "transactions": [
    {
      "hash": "0x00ebb6daa16b998b2d1110994d899251c0917cca9a3734848d378dee093247e0",
      "blockHash": "0xef47b7ad1291f51dbb1a3a4833c3560096b7b23f0a89d8e17ae83e063011b455",
      "blockNumber": 52693,
      "transactionIndex": 0,
      "confirmations": null,
      "from": "0x54dAeb3E8a6BBC797E4aD2b0339f134b186e4637",
      "gasPrice": {
        "_hex": "0xe1780dfbb"
      },
      "gasLimit": {
        "_hex": "0x7a120"
      },
      "to": "0xBAA54d6E90c3F4d7Ebec11bD180134C7eD8eBb52",
      "value": {
        "_hex": "0x16345785d8a0000"
      },
      "nonce": 960,
      "data": "0x",
      "r": "0xa64663b78976c067d3f8b650ecbf52d499e25a0af9f70a34c1d9495fdd1e6240",
      "s": "0x168e6f79c8b84eb7d3f073e6ee2ff558ae87021fda6e8a617edcde5c95db7a01",
      "v": 27,
      "creates": null,
      "raw": "0xf86f8203c0850e1780dfbb8307a12094baa54d6e90c3f4d7ebec11bd180134c7ed8ebb5288016345785d8a0000801ba0a64663b78976c067d3f8b650ecbf52d499e25a0af9f70a34c1d9495fdd1e6240a0168e6f79c8b84eb7d3f073e6ee2ff558ae87021fda6e8a617edcde5c95db7a01",
      "networkId": 0,
      "chainId": 0
    },
    {
      "hash": "0x09f32a0eb192ba93123579a201ec0dd02ce23e81169f75d2a4c57ced30a4caf8",
      "blockHash": "0xef47b7ad1291f51dbb1a3a4833c3560096b7b23f0a89d8e17ae83e063011b455",
      "blockNumber": 52693,
      "transactionIndex": 1,
      "confirmations": null,
      "from": "0x54dAeb3E8a6BBC797E4aD2b0339f134b186e4637",
      "gasPrice": {
        "_hex": "0xdf4ba21f9"
      },
      "gasLimit": {
        "_hex": "0x7a120"
      },
      "to": "0xBAA54d6E90c3F4d7Ebec11bD180134C7eD8eBb52",
      "value": {
        "_hex": "0x16345785d8a0000"
      },
      "nonce": 961,
      "data": "0x",
      "r": "0x3d031dd92dbc0ea909f50affd00636d67eb0bcd02020e0be4774a16a068bb741",
      "s": "0x3860840a4b44ef89a82bf9c5bf577fd8748e769cf19606b82bf04977bdb91768",
      "v": 28,
      "creates": null,
      "raw": "0xf86f8203c1850df4ba21f98307a12094baa54d6e90c3f4d7ebec11bd180134c7ed8ebb5288016345785d8a0000801ca03d031dd92dbc0ea909f50affd00636d67eb0bcd02020e0be4774a16a068bb741a03860840a4b44ef89a82bf9c5bf577fd8748e769cf19606b82bf04977bdb91768",
      "networkId": 0,
      "chainId": 0
    },
    {
      "hash": "0x3f0d5edfe07a8c24cea44f602c432450377b7caf6e4731f6e80080124a6cc8f4",
      "blockHash": "0xef47b7ad1291f51dbb1a3a4833c3560096b7b23f0a89d8e17ae83e063011b455",
      "blockNumber": 52693,
      "transactionIndex": 2,
      "confirmations": null,
      "from": "0x54dAeb3E8a6BBC797E4aD2b0339f134b186e4637",
      "gasPrice": {
        "_hex": "0xd8bd64e50"
      },
      "gasLimit": {
        "_hex": "0x7a120"
      },
      "to": "0xBAA54d6E90c3F4d7Ebec11bD180134C7eD8eBb52",
      "value": {
        "_hex": "0x16345785d8a0000"
      },
      "nonce": 962,
      "data": "0x",
      "r": "0x04c364f175f633cf05dadc63d1bc88bb3a0314b22512288599b1a9f5a0018fdd",
      "s": "0x01f863b991d67fa415619058336abbb52532c5ecca0f68264bce7dddf20f5309",
      "v": 28,
      "creates": null,
      "raw": "0xf86f8203c2850d8bd64e508307a12094baa54d6e90c3f4d7ebec11bd180134c7ed8ebb5288016345785d8a0000801ca004c364f175f633cf05dadc63d1bc88bb3a0314b22512288599b1a9f5a0018fdda001f863b991d67fa415619058336abbb52532c5ecca0f68264bce7dddf20f5309",
      "networkId": 0,
      "chainId": 0
    }
  ]
}