{
  "hash": "0x7081bcf08a9728890bf0a0648363ece885bce0d3d87c436db7b29358ceb83696",
  "parentHash": "0xa35e3c700efbd480042c329701e8e867dc5844808847cf854ea363ae7792f8f8",
  "number": 87236,
  "timestamp": 1439589299,
  "nonce": "0x84a3958e70bc1fbc",
  "difficulty": 3070600353035,
  "gasLimit": {
    "_hex": "0x2fefd8"
  },
  "gasUsed": {
    "_hex": "0x5208"
  },
  "miner": "0xD0317e8d007a61B8d740516E8a268D4faDADccbF",
  "extraData": "0x476574682f76312e302e312f77696e646f77732f676f312e342e32",
  "transactions": [
    {
      "hash": "0x0d4ac0567fc9ba12f6870745b56f4c3b08f06814347188e3f65affa2fd8149a5",
      "blockHash": "0x7081bcf08a9728890bf0a0648363ece885bce0d3d87c436db7b29358ceb83696",
      "blockNumber": 87236,
      "transactionIndex": 0,
      "confirmations": null,
      "from": "0x2910543Af39abA0Cd09dBb2D50200b3E800A63D2",
      "gasPrice": {
        "_hex": "0xcdc5f30a7"
      },
      "gasLimit": {
        "_hex": "0x5208"
      },
      "to": "0x3120869dfC5b2e9D636fd0BFA6717C51146d5F7a",
      "value": {
        "_hex": "0x937278fd3f0878000"
      },
      "nonce": 699,
      "data": "0x",
      "r": "0x6a042145906655314f04afc5c1ba4b1bd8e1be08ae4cca219652ca4cc5d917e8",
      "s": "0x60208ac5610ce93272e67e7fba18ff6726712bf8ad5f3a3abd4ee345e4448c28",
      "v": 27,
      "creates": null,
      "raw": "0xf86f8202bb850cdc5f30a7825208943120869dfc5b2e9d636fd0bfa6717c51146d5f7a890937278fd3f0878000801ba06a042145906655314f04afc5c1ba4b1bd8e1be08ae4cca219652ca4cc5d917e8a060208ac5610ce93272e67e7fba18ff6726712bf8ad5f3a3abd4ee345e4448c28",
      "networkId": 0,
      "chainId": 0
    }
  ]
}