{
  "hash": "0x1669c3c58353de7cb5d3c0420518f0aba012372528d0a322472aeb7f1d38bfa9",
  "parentHash": "0xe561e1a21574ffbd9a58a8460bb63afbd71e8ed4157cfbbe1a1fb6e5947f933f",
  "number": 48461,
  "timestamp": 1438957501,
  "nonce": "0x023ad84fe4162a99",
  "difficulty": 1462157884655,
  "gasLimit": {
    "_hex": "0x179a2"
  },
  "gasUsed": {
    "_hex": "0x546c"
  },
  "miner": "0xe6A7a1d47ff21B6321162AEA7C6CB457D5476Bca",
  "extraData": "0x657468706f6f6c2e6f7267",
  "transactions": [
    {
      "hash": "0xc0f7ca2947a60a25845fd5b3ab0588408a4d201a48b86990c1bee9f47bc36db9",
      "blockHash": "0x1669c3c58353de7cb5d3c0420518f0aba012372528d0a322472aeb7f1d38bfa9",
      "blockNumber": 48461,
      "transactionIndex": 0,
      "confirmations": null,
      "from": "0xf65EaC42da2c53D2a0e9bb399DDeDA9b68c7885c",
      "gasPrice": {
        "_hex": "0xda769948c"
      },
      "gasLimit": {
        "_hex": "0x61a8"
      },
      "to": "0x2910543Af39abA0Cd09dBb2D50200b3E800A63D2",
      "value": {
        "_hex": "0x70c1cc73b00c80000"
      },
      "nonce": 1,
      "data": "0x454e395456414b3930",
      "r": "0x247d7e94451f9b7dbd85851f86a31b4b93acd6236982b1691d22bea60d707733",
      "s": "0x35f5105d177f253a6cf9e860439464a6a5402e2d22eeb66ba8831707646fa636",
      "v": 27,
      "creates": null,
      "raw": "0xf87601850da769948c8261a8942910543af39aba0cd09dbb2d50200b3e800a63d289070c1cc73b00c8000089454e395456414b39301ba0247d7e94451f9b7dbd85851f86a31b4b93acd6236982b1691d22bea60d707733a035f5105d177f253a6cf9e860439464a6a5402e2d22eeb66ba8831707646fa636",
      "networkId": 0,
      "chainId": 0
    }
  ]
}