{
  "hash": "0x5ffb979fb3e19b6c224310ce43b02585068732f8987ead7be7b3b790849e9c23",
  "parentHash": "0xfa5ab215095bc0f0d714221d875d2d67299b127f38f0043806aeee2135a35503",
  "number": 103267,
  "timestamp": 1439850426,
  "nonce": "0xf2dabe8a74a2172c",
  "difficulty": 4191046059140,
  "gasLimit": {
    "_hex": "0x2fefd8"
  },
  "gasUsed": {
    "_hex": "0xf618"
  },
  "miner": "0x77EC9ad4A7E9418774C29415CAaF4Ee0da96eF64",
  "extraData": "0x",
  "transactions": [
    {
      "hash": "0x0c138ace63e7691a73082f6db3a7391e99325e88238755ece7a33ab992a8a56a",
      "blockHash": "0x5ffb979fb3e19b6c224310ce43b02585068732f8987ead7be7b3b790849e9c23",
      "blockNumber": 103267,
      "transactionIndex": 0,
      "confirmations": null,
      "from": "0x60a175bB691fEE8557a7b6D8eFC9E49889486f41",
      "gasPrice": {
        "_hex": "0xd9c1084e1"
      },
      "gasLimit": {
        "_hex": "0x15f90"
      },
      "to": "0xBb7f43EDfd8bf08B022fEd5BD91e3f9dE7e74D09",
      "value": {
        "_hex": "0x4563918244f40000"
      },
      "nonce": 3,
      "data": "0x",
      "r": "0x35f4aef3e3cac9cb2edd155b6cec8ae539b88fb0cd09e1b0b4f69528c0b0b15c",
      "s": "0x5a068d0a00f29d71618acb7cfbde2eab8f963f21629851a7afb272506c2792d8",
      "v": 28,
      "creates": null,
      "raw": "0xf86d03850d9c1084e183015f9094bb7f43edfd8bf08b022fed5bd91e3f9de7e74d09884563918244f40000801ca035f4aef3e3cac9cb2edd155b6cec8ae539b88fb0cd09e1b0b4f69528c0b0b15ca05a068d0a00f29d71618acb7cfbde2eab8f963f21629851a7afb272506c2792d8",
      "networkId": 0,
      "chainId": 0
    },
    {
      "hash": "0x2b877a8a6a2167115ceee4ef31128f92328b3ad3def194b891b7a8a128339141",
      "blockHash": "0x5ffb979fb3e19b6c224310ce43b02585068732f8987ead7be7b3b790849e9c23",
      "blockNumber": 103267,
      "transactionIndex": 1,
      "confirmations": null,
      "from": "0xad7210d76107F888745616FFF7979623b84F928c",
      "gasPrice": {
        "_hex": "0xd7d40ace3"
      },
      "gasLimit": {
        "_hex": "0x61a8"
      },
      "to": "0xF109ca710C0Df51c1a86dBA1B0BA0Ed038114463",
      "value": {
        "_hex": "0x4563918244f40000"
      },
      "nonce": 16,
      "data": "0x",
      "r": "0x8a57a7ab8ea809bea57d0344236024574c00f71e3cac2d840c94bebca7cea1f1",
      "s": "0x58ec41bffd7ef9b39b4660c460882f30711d5748ff48eed8acc966213cbca59f",
      "v": 28,
      "creates": null,
      "raw": "0xf86c10850d7d40ace38261a894f109ca710c0df51c1a86dba1b0ba0ed038114463884563918244f40000801ca08a57a7ab8ea809bea57d0344236024574c00f71e3cac2d840c94bebca7cea1f1a058ec41bffd7ef9b39b4660c460882f30711d5748ff48eed8acc966213cbca59f",
      "networkId": 0,
      "chainId": 0
    },
    {
      "hash": "0x9708f6db91721d17343908b87281f6f584627a3465cf6387088a76f41f55fdae",
      "blockHash": "0x5ffb979fb3e19b6c224310ce43b02585068732f8987ead7be7b3b790849e9c23",
      "blockNumber": 103267,
      "transactionIndex": 2,
      "confirmations": null,
      "from": "0x2159240813A73095a7Ebf7C3b3743e8028aE5f09",
      "gasPrice": {
        "_hex": "0xd5b8fa29e"
      },
      "gasLimit": {
        "_hex": "0x15f90"
      },
      "to": "0x569e4945FEe1e51bd4fa97Fb9CDe169935eAC945",
      "value": {
        "_hex": "0x2386f26fc10000"
      },
      "nonce": 7,
      "data": "0x",
      "r": "0x5d6e5d19531f781d469d8a7e3d77fedbf56eb899ae7383a290d10812e7aa6aac",
      "s": "0x31b4232270a5558fe9ec43c328881a11541333f8f9116cc2659b47b9413a32ea",
      "v": 27,
      "creates": null,
      "raw": "0xf86c07850d5b8fa29e83015f9094569e4945fee1e51bd4fa97fb9cde169935eac945872386f26fc10000801ba05d6e5d19531f781d469d8a7e3d77fedbf56eb899ae7383a290d10812e7aa6aaca031b4232270a5558fe9ec43c328881a11541333f8f9116cc2659b47b9413a32ea",
      "networkId": 0,
      "chainId": 0
    }
  ]
}