{
  "hash": "0x4440cd02b7c1398c36d9923da04934e8d66569f61626ece0e363d4c96388ee2a",
  "parentHash": "0xf599639c38442d94e1efb7aa5c71e53007e5293de50d7b2fcccbd124ed4d12a8",
  "number": 55401,
  "timestamp": 1439070136,
  "nonce": "0xc5362ff43db2283b",
  "difficulty": 1625038253427,
  "gasLimit": {
    "_hex": "0x2fefd8"
  },
  "gasUsed": {
    "_hex": "0x7ab03"
  },
  "miner": "0xF2d2AfF1320476cb8C6b607199D23175cc595693",
  "extraData": "0x476574682f76312e302e312f77696e646f77732f676f312e342e32",
  "transactions": [
    {
      "hash": "0x0484bb915f0452a91bfc705b4be84b1393d1f203556115d69358e7790ddaaaf4",
      "blockHash": "0x4440cd02b7c1398c36d9923da04934e8d66569f61626ece0e363d4c96388ee2a",
      "blockNumber": 55401,
      "transactionIndex": 0,
      "confirmations": null,
      "from": "0x96811Ad897894eC178872117C8BF2f03971A393B",
      "gasPrice": {
        "_hex": "0xdb3e4d3dc"
      },
      "gasLimit": {
        "_hex": "0x5208"
      },
      "to": "0x32Be343B94f860124dC4fEe278FDCBD38C102D88",
      "value": {
        "_hex": "0x38609ff8fc7ddc000"
      },
      "nonce": 0,
      "data": "0x",
      "r": "0x44286addd6376381da281c1f63a3861f42ed5f9fca4a6fd60107a306f33ada2b",
      "s": "0x26694a916c95e7bcdaa30f37bbffc3afe34282789078c2ca45b7f40a23ec256c",
      "v": 27,
      "creates": null,
      "raw": "0xf86d80850db3e4d3dc8252089432be343b94f860124dc4fee278fdcbd38c102d8889038609ff8fc7ddc000801ba044286addd6376381da281c1f63a3861f42ed5f9fca4a6fd60107a306f33ada2ba026694a916c95e7bcdaa30f37bbffc3afe34282789078c2ca45b7f40a23ec256c",
      "networkId": 0,
      "chainId": 0
    },
    {
      "hash": "0xa8e0a8ba5ff5dca6f8b2af38ee435761f1582dc8e1287d5c3709510b9315afc2",
      "blockHash": "0x4440cd02b7c1398c36d9923da04934e8d66569f61626ece0e363d4c96388ee2a",
      "blockNumber": 55401,
      "transactionIndex": 1,
      "confirmations": null,
      "from": "0x8674c218F0351a62C3BA78C34FD2182A93Da94E2",
      "gasPrice": {
        "_hex": "0xd61fc5681"
      },
      "gasLimit": {
        "_hex": "0xf4240"
      },
      "to": null,
      "value": {
        "_hex": "0x0"
      },
      "nonce": 55,
      "data": "0x606060405261066d806100136000396000f3006060604052361561006c5760e060020a600035046309bd5a60811461006e5780630a936fe51461007757806315853113146100ec57806339bfc4a11461011f5780636939cd9714610157578063c36948b5146101e7578063de6f24bb14610219578063fe1e3eca1461030e575b005b61037960025481565b6040805160208181018352600080835233600160a060020a0316815260018252839020805484518184028101840190955280855261038b94928301828280156100e257602002820191906000526020600020905b8160005054815260200190600101908083116100cb575b5050505050905090565b61037960043560243560016020526000828152604090208054829081101561000257506000908152602090200154905081565b610379600435600160a060020a03331660009081526020818152604080832084845290915290205467ffffffffffffffff165b919050565b6103d560043560408051602081810183526000808352600160a060020a0333168152808252838120858252825283902060010180548451601f820184900484028101840190955280855292939290918301828280156101db57820191906000526020600020905b8154815290600101906020018083116101be57829003601f168201915b50505050509050610152565b61044360043560243560006020818152928152604080822090935290815220805467ffffffffffffffff169060010182565b60408051602060248035600481810135601f810185900485028601850190965285855261006c9590359460449490939290920191819084018382808284375094955050505050506000600082604051808280519060200190808383829060006004602084601f0104600302600f01f150909101829003909120600255825467ffffffffffffffff19164217835590516001805482825581855290926020601f92909201919091047fb10e2d527612073b26eecdfd717e6a320cf44b4afac2b0732d9fcbe2b7fa0cf6908101929182156104ae579182015b828111156104ae5782518260005055916020019190600101906102f0565b61006c600435600160a060020a03331660009081526020818152604080832084845282528220805467ffffffffffffffff19168155600181018054848255908452828420919284926105d592601f01919091048101905b808211156105585760008155600101610365565b60408051918252519081900360200190f35b60405180806020018281038252838181518152602001915080519060200190602002808383829060006004602084601f0104600302600f01f1509050019250505060405180910390f35b60405180806020018281038252838181518152602001915080519060200190808383829060006004602084601f0104600302600f01f150905090810190601f1680156104355780820380516001836020036101000a031916815260200191505b509250505060405180910390f35b604051808367ffffffffffffffff16815260200180602001828103825283818154815260200191508054801561049e57820191906000526020600020905b81548152906001019060200180831161048157829003601f168201915b5050935050505060405180910390f35b506104ba929150610365565b5050600160a060020a0384166000908152602081815260408083206002548452825282208454815467ffffffffffffffff191667ffffffffffffffff9190911617815560018581018054918301805483825581875295859020889694959194601f019190910481019291821561055c57600052602060002091601f016020900482015b8281111561055c57825482559160010191906001019061053d565b5090565b50610568929150610365565b50600093505050505b600160a060020a038416600090815260016020526040902080548290811015610002576000918252602090912001547f3078000000000000000000000000000000000000000000000000000000000000146105cf575b600101610571565b50505050565b505050600090505b600160a060020a03331660009081526001602052604090205481101561066957604060002080548391908390811015610002576000918252602090912001541415610661576001600050600033600160a060020a03168152602001908152602001600020600050818154811015610002579060005260206000209001600050600090555b6001016105dd565b505056",
      "r": "0x19426b6e7fe4d30f3b2a4c4a7d63eaa52a55b06f0e9adf198dcfc92961bef999",
      "s": "0x18c7071462763cb52077e34868a5bbecb29b69d7bfe3f2482523902cfab54de2",
      "v": 27,
      "creates": "0xe421ecf0FD7E3D4444E811649D2FDc5B6Ed4112C",
      "raw": "0xf906d337850d61fc5681830f42408080b90680606060405261066d806100136000396000f3006060604052361561006c5760e060020a600035046309bd5a60811461006e5780630a936fe51461007757806315853113146100ec57806339bfc4a11461011f5780636939cd9714610157578063c36948b5146101e7578063de6f24bb14610219578063fe1e3eca1461030e575b005b61037960025481565b6040805160208181018352600080835233600160a060020a0316815260018252839020805484518184028101840190955280855261038b94928301828280156100e257602002820191906000526020600020905b8160005054815260200190600101908083116100cb575b5050505050905090565b61037960043560243560016020526000828152604090208054829081101561000257506000908152602090200154905081565b610379600435600160a060020a03331660009081526020818152604080832084845290915290205467ffffffffffffffff165b919050565b6103d560043560408051602081810183526000808352600160a060020a0333168152808252838120858252825283902060010180548451601f820184900484028101840190955280855292939290918301828280156101db57820191906000526020600020905b8154815290600101906020018083116101be57829003601f168201915b50505050509050610152565b61044360043560243560006020818152928152604080822090935290815220805467ffffffffffffffff169060010182565b60408051602060248035600481810135601f810185900485028601850190965285855261006c9590359460449490939290920191819084018382808284375094955050505050506000600082604051808280519060200190808383829060006004602084601f0104600302600f01f150909101829003909120600255825467ffffffffffffffff19164217835590516001805482825581855290926020601f92909201919091047fb10e2d527612073b26eecdfd717e6a320cf44b4afac2b0732d9fcbe2b7fa0cf6908101929182156104ae579182015b828111156104ae5782518260005055916020019190600101906102f0565b61006c600435600160a060020a03331660009081526020818152604080832084845282528220805467ffffffffffffffff19168155600181018054848255908452828420919284926105d592601f01919091048101905b808211156105585760008155600101610365565b60408051918252519081900360200190f35b60405180806020018281038252838181518152602001915080519060200190602002808383829060006004602084601f0104600302600f01f1509050019250505060405180910390f35b60405180806020018281038252838181518152602001915080519060200190808383829060006004602084601f0104600302600f01f150905090810190601f1680156104355780820380516001836020036101000a031916815260200191505b509250505060405180910390f35b604051808367ffffffffffffffff16815260200180602001828103825283818154815260200191508054801561049e57820191906000526020600020905b81548152906001019060200180831161048157829003601f168201915b5050935050505060405180910390f35b506104ba929150610365565b5050600160a060020a0384166000908152602081815260408083206002548452825282208454815467ffffffffffffffff191667ffffffffffffffff9190911617815560018581018054918301805483825581875295859020889694959194601f019190910481019291821561055c57600052602060002091601f016020900482015b8281111561055c57825482559160010191906001019061053d565b5090565b50610568929150610365565b50600093505050505b600160a060020a038416600090815260016020526040902080548290811015610002576000918252602090912001547f3078000000000000000000000000000000000000000000000000000000000000146105cf575b600101610571565b50505050565b505050600090505b600160a060020a03331660009081526001602052604090205481101561066957604060002080548391908390811015610002576000918252602090912001541415610661576001600050600033600160a060020a03168152602001908152602001600020600050818154811015610002579060005260206000209001600050600090555b6001016105dd565b5050561ba019426b6e7fe4d30f3b2a4c4a7d63eaa52a55b06f0e9adf198dcfc92961bef999a018c7071462763cb52077e34868a5bbecb29b69d7bfe3f2482523902cfab54de2",
      "networkId": 0,
      "chainId": 0
    },
    {
      "hash": "0x5341de0aaf0cad3d1b30c575fed694bbd08c24d4d7402dfe80e6b73b7afd7798",
      "blockHash": "0x4440cd02b7c1398c36d9923da04934e8d66569f61626ece0e363d4c96388ee2a",
      "blockNumber": 55401,
      "transactionIndex": 2,
      "confirmations": null,
      "from": "0x288E4356F12D0D3D0F8DF3506E457E7cFd5f4Ab0",
      "gasPrice": {
        "_hex": "0xce0d47967"
      },
      "gasLimit": {
        "_hex": "0x186a0"
      },
      "to": "0xF6bF0eE51FE0ee92500bB22295382E9241eC3b5C",
      "value": {
        "_hex": "0x38d7ea4c68000"
      },
      "nonce": 16,
      "data": "0xe5423274f4e7914a5248eaf451604b76d9aa8a2447bef6a9e73ef2e6966909634ced74d0",
      "r": "0x7869ed91a1b517f63ad5a5ab896ae555d79396c6e52d5b24bb12f14f2e293339",
      "s": "0x68780e06dbfa33f0d0174fd2aa5b1bf895ae9a714a61b593817c3a90d259d358",
      "v": 27,
      "creates": null,
      "raw": "0xf89010850ce0d47967830186a094f6bf0ee51fe0ee92500bb22295382e9241ec3b5c87038d7ea4c68000a4e5423274f4e7914a5248eaf451604b76d9aa8a2447bef6a9e73ef2e6966909634ced74d01ba07869ed91a1b517f63ad5a5ab896ae555d79396c6e52d5b24bb12f14f2e293339a068780e06dbfa33f0d0174fd2aa5b1bf895ae9a714a61b593817c3a90d259d358",
      "networkId": 0,
      "chainId": 0
    }
  ]
}