{
  "hash": "0x11f0d96f331add6aed5662f12a27dd51f9512f495a230298298695ebb5e9b9aa",
  "parentHash": "0x5c77c2642ecccc5e9157ea8c2b8ea4e2ff19384325365bd4e85aecfb0cdfe5ac",
  "number": 68644,
  "timestamp": 1439291260,
  "nonce": "0x5235d3257c032f9d",
  "difficulty": 2024138323991,
  "gasLimit": {
    "_hex": "0x2fefd8"
  },
  "gasUsed": {
    "_hex": "0x12988c"
  },
  "miner": "0xf927a40C8B7F6E07c5af7FA2155B4864a4112B13",
  "extraData": "0x",
  "transactions": [
    {
      "hash": "0x6dfc08384b1b0052787ac7ec47aa6f3980b22d3a8cc2be324eccae98b5a636bf",
      "blockHash": "0x11f0d96f331add6aed5662f12a27dd51f9512f495a230298298695ebb5e9b9aa",
      "blockNumber": 68644,
      "transactionIndex": 0,
      "confirmations": null,
      "from": "0xA52Cb122fF9de457fA705483539A01b7924bAc02",
      "gasPrice": {
        "_hex": "0xba43b7400"
      },
      "gasLimit": {
        "_hex": "0x15f90"
      },
      "to": "0x793AE8C1b1a160BFc07BFB0d04F85eab1A71F4f2",
      "value": {
        "_hex": "0x0"
      },
      "nonce": 0,
      "data": "0x3ba15036",
      "r": "0x6c0aa2f3c6b4a417053bcc64cd759f6ba5c54b233e4ea8a229043fa36d47c511",
      "s": "0x312064fb0eb46b611de4cd105011a238ad62b6987907757de60fbf62693ec655",
      "v": 28,
      "creates": null,
      "raw": "0xf86980850ba43b740083015f9094793ae8c1b1a160bfc07bfb0d04f85eab1a71f4f280843ba150361ca06c0aa2f3c6b4a417053bcc64cd759f6ba5c54b233e4ea8a229043fa36d47c511a0312064fb0eb46b611de4cd105011a238ad62b6987907757de60fbf62693ec655",
      "networkId": 0,
      "chainId": 0
    },
    {
      "hash": "0x0c3dda7d828c291a2020d5522d526246799b9133c96b51f43c84c94cce088a6c",
      "blockHash": "0x11f0d96f331add6aed5662f12a27dd51f9512f495a230298298695ebb5e9b9aa",
      "blockNumber": 68644,
      "transactionIndex": 1,
      "confirmations": null,
      "from": "0x5994c0E63a99599C93366CFab2141009635895e7",
      "gasPrice": {
        "_hex": "0xba43b7400"
      },
      "gasLimit": {
        "_hex": "0x15f90"
      },
      "to": "0x793AE8C1b1a160BFc07BFB0d04F85eab1A71F4f2",
      "value": {
        "_hex": "0x0"
      },
      "nonce": 0,
      "data": "0x3ba15036",
      "r": "0xa7b2f391ed2708fedc3c6e1bcf5c06c36943a576220518402a8240782d5d1613",
      "s": "0x7b581910702972472fe9098001c81ffe159babf7c219d4e4d14f10748664c983",
      "v": 28,
      "creates": null,
      "raw": "0xf86980850ba43b740083015f9094793ae8c1b1a160bfc07bfb0d04f85eab1a71f4f280843ba150361ca0a7b2f391ed2708fedc3c6e1bcf5c06c36943a576220518402a8240782d5d1613a07b581910702972472fe9098001c81ffe159babf7c219d4e4d14f10748664c983",
      "networkId": 0,
      "chainId": 0
    },
    {
      "hash": "0x6f3a39d0de58801280e914870f57600e42e2db74d256dd6fdd4e6743d7dc9b9d",
      "blockHash": "0x11f0d96f331add6aed5662f12a27dd51f9512f495a230298298695ebb5e9b9aa",
      "blockNumber": 68644,
      "transactionIndex": 2,
      "confirmations": null,
      "from": "0x833AD3784Ea1553b52B37de087b201bA6962B8C1",
      "gasPrice": {
        "_hex": "0xba43b7400"
      },
      "gasLimit": {
        "_hex": "0x15f90"
      },
      "to": "0x793AE8C1b1a160BFc07BFB0d04F85eab1A71F4f2",
      "value": {
        "_hex": "0x0"
      },
      "nonce": 0,
      "data": "0x3ba15036",
      "r": "0x0ed1553e00f8a4376b8d2986131a8a10eb0a85b75366b7729daa66d8fe81275a",
      "s": "0x2285633b18980db09ab567994c67f4a99ef73aa25354bc5d2d6dd42f465ea7f8",
      "v": 27,
      "creates": null,
      "raw": "0xf86980850ba43b740083015f9094793ae8c1b1a160bfc07bfb0d04f85eab1a71f4f280843ba150361ba00ed1553e00f8a4376b8d2986131a8a10eb0a85b75366b7729daa66d8fe81275aa02285633b18980db09ab567994c67f4a99ef73aa25354bc5d2d6dd42f465ea7f8",
      "networkId": 0,
      "chainId": 0
    },
    {
      "hash": "0x3757cc0531e8b7d5a30d570972aa4a41e94c0259c164169416984452da6b35a5",
      "blockHash": "0x11f0d96f331add6aed5662f12a27dd51f9512f495a230298298695ebb5e9b9aa",
      "blockNumber": 68644,
      "transactionIndex": 3,
      "confirmations": null,
      "from": "0x7EE7b14dE74A27B328D8Ea49fC5F492fEBDaCb79",
      "gasPrice": {
        "_hex": "0xba43b7400"
      },
      "gasLimit": {
        "_hex": "0x15f90"
      },
      "to": "0x793AE8C1b1a160BFc07BFB0d04F85eab1A71F4f2",
      "value": {
        "_hex": "0x0"
      },
      "nonce": 0,
      "data": "0x3ba15036",
      "r": "0xacd011fd043c240cbbe88ec580ef9fb937a688352e57654da0602fdfebed46ea",
      "s": "0x38652c3a02840c1f47190264fa9c07617efd98f8fb0c1a8a16a54789c6bd60d5",
      "v": 28,
      "creates": null,
      "raw": "0xf86980850ba43b740083015f9094793ae8c1b1a160bfc07bfb0d04f85eab1a71f4f280843ba150361ca0acd011fd043c240cbbe88ec580ef9fb937a688352e57654da0602fdfebed46eaa038652c3a02840c1f47190264fa9c07617efd98f8fb0c1a8a16a54789c6bd60d5",
      "networkId": 0,
      "chainId": 0
    },
    {
      "hash": "0xf3f059f6932686e9ba4b0ae9f3273c695e8dc2ad8fc018685420a3cba57bf4e7",
      "blockHash": "0x11f0d96f331add6aed5662f12a27dd51f9512f495a230298298695ebb5e9b9aa",
      "blockNumber": 68644,
      "transactionIndex": 4,
      "confirmations": null,
      "from": "0x4AA183E3c5682AeD393c96CC529CB548cee6b193",
      "gasPrice": {
        "_hex": "0xba43b7400"
      },
      "gasLimit": {
        "_hex": "0x15f90"
      },
      "to": "0x793AE8C1b1a160BFc07BFB0d04F85eab1A71F4f2",
      "value": {
        "_hex": "0x0"
      },
      "nonce": 0,
      "data": "0x3ba15036",
      "r": "0x95cf9dba3df7dfc06eeef9235b87c75bd7cddb880cf67bf2c045a33e06b23e15",
      "s": "0x065bcd5d8688313a401b60342e97595bfb4ba66182f813b9b69545683e3c149f",
      "v": 27,
      "creates": null,
      "raw": "0xf86980850ba43b740083015f9094793ae8c1b1a160bfc07bfb0d04f85eab1a71f4f280843ba150361ba095cf9dba3df7dfc06eeef9235b87c75bd7cddb880cf67bf2c045a33e06b23e15a0065bcd5d8688313a401b60342e97595bfb4ba66182f813b9b69545683e3c149f",
      "networkId": 0,
      "chainId": 0
    },
    {
      "hash": "0xc70ce5d09b981cc35591ebe2fa21638472a5086b510b72c4dda2000088d07390",
      "blockHash": "0x11f0d96f331add6aed5662f12a27dd51f9512f495a230298298695ebb5e9b9aa",
      "blockNumber": 68644,
      "transactionIndex": 5,
      "confirmations": null,
      "from": "0xFE7dfafA39B0A9D157238A22aba85e7f6c51bdCC",
      "gasPrice": {
        "_hex": "0xba43b7400"
      },
      "gasLimit": {
        "_hex": "0x15f90"
      },
      "to": "0x793AE8C1b1a160BFc07BFB0d04F85eab1A71F4f2",
      "value": {
        "_hex": "0x0"
      },
      "nonce": 0,
      "data": "0x3ba15036",
      "r": "0x9559f34129c7821e5af46a47501a1d18b393ff5fafd2e8c7ebad379b096382fe",
      "s": "0x3e1b21996c47d6ced84dab8b7fb76ab4b86d7404e27f0d140c33be0fc1a93e34",
      "v": 27,
      "creates": null,
      "raw": "0xf86980850ba43b740083015f9094793ae8c1b1a160bfc07bfb0d04f85eab1a71f4f280843ba150361ba09559f34129c7821e5af46a47501a1d18b393ff5fafd2e8c7ebad379b096382fea03e1b21996c47d6ced84dab8b7fb76ab4b86d7404e27f0d140c33be0fc1a93e34",
      "networkId": 0,
      "chainId": 0
    },
    {
      "hash": "0xf3b733d646843f246265d119b96282f63dc86f472d7a5c08f57bd3f72aef7ca2",
      "blockHash": "0x11f0d96f331add6aed5662f12a27dd51f9512f495a230298298695ebb5e9b9aa",
      "blockNumber": 68644,
      "transactionIndex": 6,
      "confirmations": null,
      "from": "0x5EB458dE0AD4972746AB87ED80F8c4229022c1d4",
      "gasPrice": {
        "_hex": "0xba43b7400"
      },
      "gasLimit": {
        "_hex": "0x15f90"
      },
      "to": "0x793AE8C1b1a160BFc07BFB0d04F85eab1A71F4f2",
      "value": {
        "_hex": "0x0"
      },
      "nonce": 0,
      "data": "0x3ba15036",
      "r": "0x64ef553d0311b0be1e0df26fd2eb8de1eb28f2edb20f1d5cd767b61da4d53e85",
      "s": "0x72918142de381b015f1e364cf5a1aa008cb4c38b3fa53b44bf56ee42903fc2b1",
      "v": 27,
      "creates": null,
      "raw": "0xf86980850ba43b740083015f9094793ae8c1b1a160bfc07bfb0d04f85eab1a71f4f280843ba150361ba064ef553d0311b0be1e0df26fd2eb8de1eb28f2edb20f1d5cd767b61da4d53e85a072918142de381b015f1e364cf5a1aa008cb4c38b3fa53b44bf56ee42903fc2b1",
      "networkId": 0,
      "chainId": 0
    },
    {
      "hash": "0x20ff7d6553b85c6f6ab7ad68ed2f643f5fee8c06e5b07c43cff2849e58a3d2c9",
      "blockHash": "0x11f0d96f331add6aed5662f12a27dd51f9512f495a230298298695ebb5e9b9aa",
      "blockNumber": 68644,
      "transactionIndex": 7,
      "confirmations": null,
      "from": "0xA08bCA744646eCaa41C93ffA7f87cD7bBb48A070",
      "gasPrice": {
        "_hex": "0xba43b7400"
      },
      "gasLimit": {
        "_hex": "0x15f90"
      },
      "to": "0x793AE8C1b1a160BFc07BFB0d04F85eab1A71F4f2",
      "value": {
        "_hex": "0x0"
      },
      "nonce": 0,
      "data": "0x3ba15036",
      "r": "0x4a5ed69dd181791c14041362f42f10b64ecc763db5c792ea1e2fc4565c12c000",
      "s": "0x01e86c5b61b381ed064a622ceb18c71b1253611a35aaa50b84cdb5fd0a1ed78c",
      "v": 27,
      "creates": null,
      "raw": "0xf86980850ba43b740083015f9094793ae8c1b1a160bfc07bfb0d04f85eab1a71f4f280843ba150361ba04a5ed69dd181791c14041362f42f10b64ecc763db5c792ea1e2fc4565c12c000a001e86c5b61b381ed064a622ceb18c71b1253611a35aaa50b84cdb5fd0a1ed78c",
      "networkId": 0,
      "chainId": 0
    },
    {
      "hash": "0x4cdf2a6d720e542a241bb8eb370f633955b21431913bd1fc8685e6bbd22894f1",
      "blockHash": "0x11f0d96f331add6aed5662f12a27dd51f9512f495a230298298695ebb5e9b9aa",
      "blockNumber": 68644,
      "transactionIndex": 8,
      "confirmations": null,
      "from": "0x489Ae7f41B0e07cbb700FF545b29a49F9a1a5E27",
      "gasPrice": {
        "_hex": "0xba43b7400"
      },
      "gasLimit": {
        "_hex": "0x15f90"
      },
      "to": "0x793AE8C1b1a160BFc07BFB0d04F85eab1A71F4f2",
      "value": {
        "_hex": "0x0"
      },
      "nonce": 0,
      "data": "0x3ba15036",
      "r": "0xe18c28fe4b5afaec907ffecb1ddcbc92a9f7245bc4e0f431c7f6285b24788da2",
      "s": "0x026e3fd0e34cc91c2778c1c00b335e62c49ea1692eb7af78bb42dde4689c906b",
      "v": 27,
      "creates": null,
      "raw": "0xf86980850ba43b740083015f9094793ae8c1b1a160bfc07bfb0d04f85eab1a71f4f280843ba150361ba0e18c28fe4b5afaec907ffecb1ddcbc92a9f7245bc4e0f431c7f6285b24788da2a0026e3fd0e34cc91c2778c1c00b335e62c49ea1692eb7af78bb42dde4689c906b",
      "networkId": 0,
      "chainId": 0
    },
    {
      "hash": "0x3ef0f4d8386d708cdbc7b49638f13b0ded2b764878363179fe8b149e217430d2",
      "blockHash": "0x11f0d96f331add6aed5662f12a27dd51f9512f495a230298298695ebb5e9b9aa",
      "blockNumber": 68644,
      "transactionIndex": 9,
      "confirmations": null,
      "from": "0x5095EEdD09596070D07dDd273dc8d7712Ed627cA",
      "gasPrice": {
        "_hex": "0xba43b7400"
      },
      "gasLimit": {
        "_hex": "0x15f90"
      },
      "to": "0x793AE8C1b1a160BFc07BFB0d04F85eab1A71F4f2",
      "value": {
        "_hex": "0x0"
      },
      "nonce": 0,
      "data": "0x3ba15036",
      "r": "0xd9ab43830cb65e7bb307ffd5d2952d0e4dd4b294afb5ac4237da84f560391774",
      "s": "0x51ed157facde4f1493f76e58b4d06d94ebca9f880c5b75073fa5937cc1ff33db",
      "v": 27,
      "creates": null,
      "raw": "0xf86980850ba43b740083015f9094793ae8c1b1a160bfc07bfb0d04f85eab1a71f4f280843ba150361ba0d9ab43830cb65e7bb307ffd5d2952d0e4dd4b294afb5ac4237da84f560391774a051ed157facde4f1493f76e58b4d06d94ebca9f880c5b75073fa5937cc1ff33db",
      "networkId": 0,
      "chainId": 0
    },
    {
      "hash": "0x19949b89ba9b9cc020fe8a0ab4f34aa43313c6ddf9ee6de3839208d64a03583c",
      "blockHash": "0x11f0d96f331add6aed5662f12a27dd51f9512f495a230298298695ebb5e9b9aa",
      "blockNumber": 68644,
      "transactionIndex": 10,
      "confirmations": null,
      "from": "0x8562D46081cB30e96e6A2082A20e3b86D4eeb03F",
      "gasPrice": {
        "_hex": "0xba43b7400"
      },
      "gasLimit": {
        "_hex": "0x15f90"
      },
      "to": "0x793AE8C1b1a160BFc07BFB0d04F85eab1A71F4f2",
      "value": {
        "_hex": "0x0"
      },
      "nonce": 0,
      "data": "0x3ba15036",
      "r": "0x461132fb3a2d8e1678f68a3e1d84db1cbd8c4731dbf8d7ebe147c86ca42b98c5",
      "s": "0x355bce2e936d76c96fd9f5dc816440604d14a57812664c90adfd2fd675369f33",
      "v": 28,
      "creates": null,
      "raw": "0xf86980850ba43b740083015f9094793ae8c1b1a160bfc07bfb0d04f85eab1a71f4f280843ba150361ca0461132fb3a2d8e1678f68a3e1d84db1cbd8c4731dbf8d7ebe147c86ca42b98c5a0355bce2e936d76c96fd9f5dc816440604d14a57812664c90adfd2fd675369f33",
      "networkId": 0,
      "chainId": 0
    },
    {
      "hash": "0x9879d61c47c8b5b0492788a0247698f4ae34cd0f4ed671c4acb62bd53cb36706",
      "blockHash": "0x11f0d96f331add6aed5662f12a27dd51f9512f495a230298298695ebb5e9b9aa",
      "blockNumber": 68644,
      "transactionIndex": 11,
      "confirmations": null,
      "from": "0x5df6E2F1849a9eD09c9Cd48f1180f50b5E5c8E8F",
      "gasPrice": {
        "_hex": "0xba43b7400"
      },
      "gasLimit": {
        "_hex": "0x15f90"
      },
      "to": "0x793AE8C1b1a160BFc07BFB0d04F85eab1A71F4f2",
      "value": {
        "_hex": "0x0"
      },
      "nonce": 0,
      "data": "0x3ba15036",
      "r": "0xd510c87cf58f5ef1ea4fd5972a7b6b847e667be1503ebb6c4af5b1f02ba28f66",
      "s": "0x2d4edc01666da68f2c5f6c51075a142304b5bdf812b8894a2f2b013e91e9ddc3",
      "v": 27,
      "creates": null,
      "raw": "0xf86980850ba43b740083015f9094793ae8c1b1a160bfc07bfb0d04f85eab1a71f4f280843ba150361ba0d510c87cf58f5ef1ea4fd5972a7b6b847e667be1503ebb6c4af5b1f02ba28f66a02d4edc01666da68f2c5f6c51075a142304b5bdf812b8894a2f2b013e91e9ddc3",
      "networkId": 0,
      "chainId": 0
    },
    {
      "hash": "0xb1616da2ba3888b9ff2055302209b2200c14ae310f9fd2ff1a8957eaaa572a1c",
      "blockHash": "0x11f0d96f331add6aed5662f12a27dd51f9512f495a230298298695ebb5e9b9aa",
      "blockNumber": 68644,
      "transactionIndex": 12,
      "confirmations": null,
      "from": "0xd973139DBaa0f7fc419331A30613057Bcc5e7879",
      "gasPrice": {
        "_hex": "0xba43b7400"
      },
      "gasLimit": {
        "_hex": "0x15f90"
      },
      "to": "0x793AE8C1b1a160BFc07BFB0d04F85eab1A71F4f2",
      "value": {
        "_hex": "0x0"
      },
      "nonce": 0,
      "data": "0x3ba15036",
      "r": "0x783ddb36a091499693d814e26a79b0799fadea6f8c9c36ad1738dbc013e12b3d",
      "s": "0x00be43cc878306c2c0aaa8d5764fbe1894c65175d7dbeac6f7401db179bf2354",
      "v": 27,
      "creates": null,
      "raw": "0xf86880850ba43b740083015f9094793ae8c1b1a160bfc07bfb0d04f85eab1a71f4f280843ba150361ba0783ddb36a091499693d814e26a79b0799fadea6f8c9c36ad1738dbc013e12b3d9fbe43cc878306c2c0aaa8d5764fbe1894c65175d7dbeac6f7401db179bf2354",
      "networkId": 0,
      "chainId": 0
    },
    {
      "hash": "0x9c3bae7ad35c929f0ebba159f5cd8ff08e781687efa96fa9123c9f9eb522dbe6",
      "blockHash": "0x11f0d96f331add6aed5662f12a27dd51f9512f495a230298298695ebb5e9b9aa",
      "blockNumber": 68644,
      "transactionIndex": 13,
      "confirmations": null,
      "from": "0x9D4eC3179D745FA3359a78B084432e0D808e6B5F",
      "gasPrice": {
        "_hex": "0xba43b7400"
      },
      "gasLimit": {
        "_hex": "0x15f90"
      },
      "to": "0x793AE8C1b1a160BFc07BFB0d04F85eab1A71F4f2",
      "value": {
        "_hex": "0x0"
      },
      "nonce": 0,
      "data": "0x3ba15036",
      "r": "0x815c65a4f52993f2553b82278661ca68b928f66f2a3760d16f2caf0314ffc214",
      "s": "0x462a13eabf884ead499c56254e3c871f97dbd9c52fbdab1727c0c696e8208c76",
      "v": 27,
      "creates": null,
      "raw": "0xf86980850ba43b740083015f9094793ae8c1b1a160bfc07bfb0d04f85eab1a71f4f280843ba150361ba0815c65a4f52993f2553b82278661ca68b928f66f2a3760d16f2caf0314ffc214a0462a13eabf884ead499c56254e3c871f97dbd9c52fbdab1727c0c696e8208c76",
      "networkId": 0,
      "chainId": 0
    },
    {
      "hash": "0x5461fb1d0444e23a27bebd74567770634906ca792fe74d73812d5185209564b0",
      "blockHash": "0x11f0d96f331add6aed5662f12a27dd51f9512f495a230298298695ebb5e9b9aa",
      "blockNumber": 68644,
      "transactionIndex": 14,
      "confirmations": null,
      "from": "0x1b9472748f76ee7B41aA671856A5Ca23cB9DA170",
      "gasPrice": {
        "_hex": "0xba43b7400"
      },
      "gasLimit": {
        "_hex": "0x15f90"
      },
      "to": "0x793AE8C1b1a160BFc07BFB0d04F85eab1A71F4f2",
      "value": {
        "_hex": "0x0"
      },
      "nonce": 0,
      "data": "0x3ba15036",
      "r": "0xa7b9b15c218fb440a1fef9601f6080d8b50fa0b69134ef9cf495975860ea5188",
      "s": "0x4b186c2238df8a72ba07a88bd85dfaf5a6529cce2125a4912859d6f71a2c5f0c",
      "v": 27,
      "creates": null,
      "raw": "0xf86980850ba43b740083015f9094793ae8c1b1a160bfc07bfb0d04f85eab1a71f4f280843ba150361ba0a7b9b15c218fb440a1fef9601f6080d8b50fa0b69134ef9cf495975860ea5188a04b186c2238df8a72ba07a88bd85dfaf5a6529cce2125a4912859d6f71a2c5f0c",
      "networkId": 0,
      "chainId": 0
    },
    {
      "hash": "0x4ae420a109a2a1c11a0787cff8ae47cce5403ed7a98bb171253bf21ec54474a6",
      "blockHash": "0x11f0d96f331add6aed5662f12a27dd51f9512f495a230298298695ebb5e9b9aa",
      "blockNumber": 68644,
      "transactionIndex": 15,
      "confirmations": null,
      "from": "0x44Cf020682707d8022AB87991057be78288cA1a1",
      "gasPrice": {
        "_hex": "0xba43b7400"
      },
      "gasLimit": {
        "_hex": "0x15f90"
      },
      "to": "0x793AE8C1b1a160BFc07BFB0d04F85eab1A71F4f2",
      "value": {
        "_hex": "0x0"
      },
      "nonce": 0,
      "data": "0x3ba15036",
      "r": "0xb0d61e5b776652e0bfe312372d56cc2195301fed83badde49dc1b223c1ace4fb",
      "s": "0x2c46b03689e2fabd5b0607ee1cdacf43a7879e884eadb6e4b425a0ea6d96210f",
      "v": 28,
      "creates": null,
      "raw": "0xf86980850ba43b740083015f9094793ae8c1b1a160bfc07bfb0d04f85eab1a71f4f280843ba150361ca0b0d61e5b776652e0bfe312372d56cc2195301fed83badde49dc1b223c1ace4fba02c46b03689e2fabd5b0607ee1cdacf43a7879e884eadb6e4b425a0ea6d96210f",
      "networkId": 0,
      "chainId": 0
    },
    {
      "hash": "0x6014e5ecc01fb72553980425764ddd7450c5054d2f7b5d96b514767ef13aa6b0",
      "blockHash": "0x11f0d96f331add6aed5662f12a27dd51f9512f495a230298298695ebb5e9b9aa",
      "blockNumber": 68644,
      "transactionIndex": 16,
      "confirmations": null,
      "from": "0xE328e09929a46531059a8d528eBBB24413373A2e",
      "gasPrice": {
        "_hex": "0xba43b7400"
      },
      "gasLimit": {
        "_hex": "0x15f90"
      },
      "to": "0x793AE8C1b1a160BFc07BFB0d04F85eab1A71F4f2",
      "value": {
        "_hex": "0x0"
      },
      "nonce": 0,
      "data": "0x3ba15036",
      "r": "0xacefea5d2391861baab0e1bf6662cd7447f6c3418d5a3f3f85103839a9c58749",
      "s": "0x2d60cd6bafb19d385c018730bd4ae4f4071ae76baf8eefff376cdd15cfed13d5",
      "v": 27,
      "creates": null,
      "raw": "0xf86980850ba43b740083015f9094793ae8c1b1a160bfc07bfb0d04f85eab1a71f4f280843ba150361ba0acefea5d2391861baab0e1bf6662cd7447f6c3418d5a3f3f85103839a9c58749a02d60cd6bafb19d385c018730bd4ae4f4071ae76baf8eefff376cdd15cfed13d5",
      "networkId": 0,
      "chainId": 0
    },
    {
      "hash": "0xc603e7c04df6737adddc5d20ba46bae2ca2edd874b45f8e811306c0ba01305ba",
      "blockHash": "0x11f0d96f331add6aed5662f12a27dd51f9512f495a230298298695ebb5e9b9aa",
      "blockNumber": 68644,
      "transactionIndex": 17,
      "confirmations": null,
      "from": "0xB33f1f5bFe33EAbCFd0963ab3d75f9Db468a4581",
      "gasPrice": {
        "_hex": "0xba43b7400"
      },
      "gasLimit": {
        "_hex": "0x15f90"
      },
      "to": "0x793AE8C1b1a160BFc07BFB0d04F85eab1A71F4f2",
      "value": {
        "_hex": "0x0"
      },
      "nonce": 0,
      "data": "0x3ba15036",
      "r": "0x5484be989a4544d208e3c6524a0c491248956f15b48accbf998ad0aa75d9c81b",
      "s": "0x764601057376f79fd33ac2cee726dbf4b44638fb5a8ef1c8cb194c688e7214ba",
      "v": 28,
      "creates": null,
      "raw": "0xf86980850ba43b740083015f9094793ae8c1b1a160bfc07bfb0d04f85eab1a71f4f280843ba150361ca05484be989a4544d208e3c6524a0c491248956f15b48accbf998ad0aa75d9c81ba0764601057376f79fd33ac2cee726dbf4b44638fb5a8ef1c8cb194c688e7214ba",
      "networkId": 0,
      "chainId": 0
    },
    {
      "hash": "0x9b4a02657e0b59d920a58e191f11f68f2162179c77deffb3a829e110e32ee173",
      "blockHash": "0x11f0d96f331add6aed5662f12a27dd51f9512f495a230298298695ebb5e9b9aa",
      "blockNumber": 68644,
      "transactionIndex": 18,
      "confirmations": null,
      "from": "0xd7196c9cF873468228035cD6A2502Eb913F2174C",
      "gasPrice": {
        "_hex": "0xba43b7400"
      },
      "gasLimit": {
        "_hex": "0x15f90"
      },
      "to": "0x793AE8C1b1a160BFc07BFB0d04F85eab1A71F4f2",
      "value": {
        "_hex": "0x0"
      },
      "nonce": 0,
      "data": "0x3ba15036",
      "r": "0xc025a8b042478d3b53df5e5a5339b0db7bd536b16957a8c994d599eb8759c6bb",
      "s": "0x177d930e6a869ae7485e88ab9164b80f8bb7aed7ba5e90718d16455da07d18b3",
      "v": 27,
      "creates": null,
      "raw": "0xf86980850ba43b740083015f9094793ae8c1b1a160bfc07bfb0d04f85eab1a71f4f280843ba150361ba0c025a8b042478d3b53df5e5a5339b0db7bd536b16957a8c994d599eb8759c6bba0177d930e6a869ae7485e88ab9164b80f8bb7aed7ba5e90718d16455da07d18b3",
      "networkId": 0,
      "chainId": 0
    },
    {
      "hash": "0x931de6b35ae62795144d025be7cc7aa14850bf5c4a6744b1d5a274dac8b40e5c",
      "blockHash": "0x11f0d96f331add6aed5662f12a27dd51f9512f495a230298298695ebb5e9b9aa",
      "blockNumber": 68644,
      "transactionIndex": 19,
      "confirmations": null,
      "from": "0x5D87484146eBcaE5b9c56d4EdCB54b866f2690d3",
      "gasPrice": {
        "_hex": "0xba43b7400"
      },
      "gasLimit": {
        "_hex": "0x15f90"
      },
      "to": "0x793AE8C1b1a160BFc07BFB0d04F85eab1A71F4f2",
      "value": {
        "_hex": "0x0"
      },
      "nonce": 0,
      "data": "0x3ba15036",
      "r": "0x9add4d478d8a0ba909516cc7492f6214d2f39deeb497897f704404f84b3789df",
      "s": "0x24e13235f6ae5b99e35942f34f2a761cc8c4b71a699aa72acdbf39b454c6e7c7",
      "v": 27,
      "creates": null,
      "raw": "0xf86980850ba43b740083015f9094793ae8c1b1a160bfc07bfb0d04f85eab1a71f4f280843ba150361ba09add4d478d8a0ba909516cc7492f6214d2f39deeb497897f704404f84b3789dfa024e13235f6ae5b99e35942f34f2a761cc8c4b71a699aa72acdbf39b454c6e7c7",
      "networkId": 0,
      "chainId": 0
    },
    {
      "hash": "0x2a002151d53a64064833d8d35c7f5625ddc605a0f7d40bc10fc9cd4eea34eac3",
      "blockHash": "0x11f0d96f331add6aed5662f12a27dd51f9512f495a230298298695ebb5e9b9aa",
      "blockNumber": 68644,
      "transactionIndex": 20,
      "confirmations": null,
      "from": "0xc32f1C81E94bf589bf68eDf1613D44Ae75E78c97",
      "gasPrice": {
        "_hex": "0xba43b7400"
      },
      "gasLimit": {
        "_hex": "0x15f90"
      },
      "to": "0x793AE8C1b1a160BFc07BFB0d04F85eab1A71F4f2",
      "value": {
        "_hex": "0x0"
      },
      "nonce": 0,
      "data": "0x3ba15036",
      "r": "0x9e78f1e019aeb1c7aedca70fb868607ef6d8224dbef7f9673e6199140dbdeba1",
      "s": "0x789775b766bb3ec01218ec60091990f854f1a76c9a87200adf9423a7030a9e89",
      "v": 27,
      "creates": null,
      "raw": "0xf86980850ba43b740083015f9094793ae8c1b1a160bfc07bfb0d04f85eab1a71f4f280843ba150361ba09e78f1e019aeb1c7aedca70fb868607ef6d8224dbef7f9673e6199140dbdeba1a0789775b766bb3ec01218ec60091990f854f1a76c9a87200adf9423a7030a9e89",
      "networkId": 0,
      "chainId": 0
    },
    {
      "hash": "0x897a62f55125e494731e9626336a8990f4b7da1918273ab3a76e162dd814b92b",
      "blockHash": "0x11f0d96f331add6aed5662f12a27dd51f9512f495a230298298695ebb5e9b9aa",
      "blockNumber": 68644,
      "transactionIndex": 21,
      "confirmations": null,
      "from": "0x1799Aac869488a85A53d9EAc8Dc7A956f818efEa",
      "gasPrice": {
        "_hex": "0xba43b7400"
      },
      "gasLimit": {
        "_hex": "0x15f90"
      },
      "to": "0x793AE8C1b1a160BFc07BFB0d04F85eab1A71F4f2",
      "value": {
        "_hex": "0x0"
      },
      "nonce": 0,
      "data": "0x3ba15036",
      "r": "0xe999ddf75a3f18b4e17a135d323e1bad113433c7efde579180409506902cb907",
      "s": "0x26416a873a4f54080304f89a3f69b64aa96147912e536d34aee59705c96e90db",
      "v": 27,
      "creates": null,
      "raw": "0xf86980850ba43b740083015f9094793ae8c1b1a160bfc07bfb0d04f85eab1a71f4f280843ba150361ba0e999ddf75a3f18b4e17a135d323e1bad113433c7efde579180409506902cb907a026416a873a4f54080304f89a3f69b64aa96147912e536d34aee59705c96e90db",
      "networkId": 0,
      "chainId": 0
    },
    {
      "hash": "0xa37ef8ac062a42b0fcba2c9ebb2b56388a4d33565b05294fed39b4b1a6f3d601",
      "blockHash": "0x11f0d96f331add6aed5662f12a27dd51f9512f495a230298298695ebb5e9b9aa",
      "blockNumber": 68644,
      "transactionIndex": 22,
      "confirmations": null,
      "from": "0x43DDCaEA426b38E8AabB100CfafeF27bB7e7d7bc",
      "gasPrice": {
        "_hex": "0xba43b7400"
      },
      "gasLimit": {
        "_hex": "0x15f90"
      },
      "to": "0x793AE8C1b1a160BFc07BFB0d04F85eab1A71F4f2",
      "value": {
        "_hex": "0x0"
      },
      "nonce": 0,
      "data": "0x3ba15036",
      "r": "0x8d53ffb7538f55b022653259259455127f8824e480dbf6514a77db8079e5a0da",
      "s": "0x7461278728eaca7fb4d32275670827bc05d6c07bc86e4f56dc22e774f065853d",
      "v": 28,
      "creates": null,
      "raw": "0xf86980850ba43b740083015f9094793ae8c1b1a160bfc07bfb0d04f85eab1a71f4f280843ba150361ca08d53ffb7538f55b022653259259455127f8824e480dbf6514a77db8079e5a0daa07461278728eaca7fb4d32275670827bc05d6c07bc86e4f56dc22e774f065853d",
      "networkId": 0,
      "chainId": 0
    },
    {
      "hash": "0x809722068e98e44ca09bdc4aaa722c6c775add4cd3c92a5d056973b2067b6bed",
      "blockHash": "0x11f0d96f331add6aed5662f12a27dd51f9512f495a230298298695ebb5e9b9aa",
      "blockNumber": 68644,
      "transactionIndex": 23,
      "confirmations": null,
      "from": "0xB03c04204FEF0536F5490aAE9946Af3c9A9F469E",
      "gasPrice": {
        "_hex": "0xba43b7400"
      },
      "gasLimit": {
        "_hex": "0x15f90"
      },
      "to": "0x793AE8C1b1a160BFc07BFB0d04F85eab1A71F4f2",
      "value": {
        "_hex": "0x0"
      },
      "nonce": 0,
      "data": "0x3ba15036",
      "r": "0x465e2e5c1939a8ec8592a29f1f95c2901eff3c6cf0a5f5c0296111ffd5b83d5d",
      "s": "0x4a48c855fc4db991e42f1d227ad6ca291627bb1c308eaf2bead995fe25a73894",
      "v": 28,
      "creates": null,
      "raw": "0xf86980850ba43b740083015f9094793ae8c1b1a160bfc07bfb0d04f85eab1a71f4f280843ba150361ca0465e2e5c1939a8ec8592a29f1f95c2901eff3c6cf0a5f5c0296111ffd5b83d5da04a48c855fc4db991e42f1d227ad6ca291627bb1c308eaf2bead995fe25a73894",
      "networkId": 0,
      "chainId": 0
    },
    {
      "hash": "0x640007777f6da9835cc06c1b22dfa381252c20ec0a67bf46bfb636dfe4b39429",
      "blockHash": "0x11f0d96f331add6aed5662f12a27dd51f9512f495a230298298695ebb5e9b9aa",
      "blockNumber": 68644,
      "transactionIndex": 24,
      "confirmations": null,
      "from": "0x774D8076092A28cAf37656B640aDF4572753dD63",
      "gasPrice": {
        "_hex": "0xba43b7400"
      },
      "gasLimit": {
        "_hex": "0x15f90"
      },
      "to": "0x793AE8C1b1a160BFc07BFB0d04F85eab1A71F4f2",
      "value": {
        "_hex": "0x0"
      },
      "nonce": 0,
      "data": "0x3ba15036",
      "r": "0x537d601023eae5ed2704112e864879f60d46554da20ce4525fdf6742693d1e78",
      "s": "0x318859470c77c13c141f8bc51abe69f0ab93ccd93b198ae52927da545ba58b10",
      "v": 27,
      "creates": null,
      "raw": "0xf86980850ba43b740083015f9094793ae8c1b1a160bfc07bfb0d04f85eab1a71f4f280843ba150361ba0537d601023eae5ed2704112e864879f60d46554da20ce4525fdf6742693d1e78a0318859470c77c13c141f8bc51abe69f0ab93ccd93b198ae52927da545ba58b10",
      "networkId": 0,
      "chainId": 0
    }
  ]
}