{
  "hash": "0xf8f9083390037a09a98a2f2b3ccdd611c71b0356889be7b7f14af71e767ac853",
  "parentHash": "0xe6ce336d37e2f71bf73e800142f499b529f2380af67b704e086b2f2b48d7a933",
  "number": 63855,
  "timestamp": 1439211364,
  "nonce": "0xce5b1673d0c46045",
  "difficulty": 1852172933581,
  "gasLimit": {
    "_hex": "0x2fefd8"
  },
  "gasUsed": {
    "_hex": "0x5208"
  },
  "miner": "0x123843545FB525C8E134c9A5F15ADA6865cc3848",
  "extraData": "0x476574682f76312e302e312f77696e646f77732f676f312e342e32",
  "transactions": [
    {
      "hash": "0xf7caee8455f4066fb53cdcd2a08050e6a56db0eda0365eda970519eca10aa89c",
      "blockHash": "0xf8f9083390037a09a98a2f2b3ccdd611c71b0356889be7b7f14af71e767ac853",
      "blockNumber": 63855,
      "transactionIndex": 0,
      "confirmations": null,
      "from": "0x98EaB1a51ef0aB03f4A0BabcB61113A3AF9886C6",
      "gasPrice": {
        "_hex": "0x746a528800"
      },
      "gasLimit": {
        "_hex": "0x5b04"
      },
      "to": "0x1333a55102f1f4B3df95298b6CE863eF8d5BAf45",
      "value": {
        "_hex": "0xcf0e7cf350d40000"
      },
      "nonce": 2,
      "data": "0x",
      "r": "0xbf8fe40298fde24b19930e057426bb7714b8d01495341ab5ffcb07e1abcb194f",
      "s": "0xe21562c083eea4930d069fc90dbaf6e13a5345ff337eaaef457d5c202257906f",
      "v": 27,
      "creates": null,
      "raw": "0xf86c0285746a528800825b04941333a55102f1f4b3df95298b6ce863ef8d5baf4588cf0e7cf350d40000801ba0bf8fe40298fde24b19930e057426bb7714b8d01495341ab5ffcb07e1abcb194fa0e21562c083eea4930d069fc90dbaf6e13a5345ff337eaaef457d5c202257906f",
      "networkId": 0,
      "chainId": 0
    }
  ]
}