{
  "hash": "0x8a3ee852aef3c9b85f469056443f2771d4052307c5f98a1d8a6ade69ef880e7e",
  "parentHash": "0x9c9e66679077255da9a7da5c02de40f900c0301e994e85246021c258236fb188",
  "number": 52435,
  "timestamp": 1439021467,
  "nonce": "0x55c22ed8137dbf82",
  "difficulty": 1567923473402,
  "gasLimit": {
    "_hex": "0x13c554"
  },
  "gasUsed": {
    "_hex": "0x7a120"
  },
  "miner": "0xf927a40C8B7F6E07c5af7FA2155B4864a4112B13",
  "extraData": "0x476574682f76312e302e302f6c696e75782f676f312e342e32",
  "transactions": [
    {
      "hash": "0xd43c16f7abd4e3cb60bc0f237b9c35db575cc5a87b3387088cac20256f39554a",
      "blockHash": "0x8a3ee852aef3c9b85f469056443f2771d4052307c5f98a1d8a6ade69ef880e7e",
      "blockNumber": 52435,
      "transactionIndex": 0,
      "confirmations": null,
      "from": "0xf3d688F06bbDBf50f9932C4145cbe48ECDF68904",
      "gasPrice": {
        "_hex": "0xdf68c8bf5"
      },
      "gasLimit": {
        "_hex": "0x7a120"
      },
      "to": "0x109C4f2CCc82C4d77Bde15F306707320294Aea3F",
      "value": {
        "_hex": "0xde0b6b3a7640000"
      },
      "nonce": 1,
      "data": "0x",
      "r": "0x6f8b1868c22dce0ffbb318c05185feadb574d827472973a62d543559d093af4d",
      "s": "0x32e0999407a1bbb2849b7ed2b120ffc4c2a52570e75a97f1187e5ec4ba345556",
      "v": 28,
      "creates": null,
      "raw": "0xf86d01850df68c8bf58307a12094109c4f2ccc82c4d77bde15f306707320294aea3f880de0b6b3a7640000801ca06f8b1868c22dce0ffbb318c05185feadb574d827472973a62d543559d093af4da032e0999407a1bbb2849b7ed2b120ffc4c2a52570e75a97f1187e5ec4ba345556",
      "networkId": 0,
      "chainId": 0
    }
  ]
}