{
  "hash": "0x2c25286d8dbc4553d4a52c7611b28ce30defd27271b106d6b5876707c3f7ee9f",
  "parentHash": "0xa49ee2efd1865bc320ff597b1260a64d262bfc085be0c154d5cd791b22f99707",
  "number": 93203,
  "timestamp": 1439685013,
  "nonce": "0xaba8d783af3ac62b",
  "difficulty": 3599625299911,
  "gasLimit": {
    "_hex": "0x2fefd8"
  },
  "gasUsed": {
    "_hex": "0x5208"
  },
  "miner": "0x47ff6576639c2e94762eA5443978D7681C0E78DC",
  "extraData": "0x476574682f76312e302e312f6c696e75782f676f312e342e32",
  "transactions": [
    {
      "hash": "0xf923b1e66bb0f5d5851c1a43a8b7b4657ae222f285b004c4900887600b19a4bb",
      "blockHash": "0x2c25286d8dbc4553d4a52c7611b28ce30defd27271b106d6b5876707c3f7ee9f",
      "blockNumber": 93203,
      "transactionIndex": 0,
      "confirmations": null,
      "from": "0x1eA4715504C6Af107B0194F4F7B1cb6fCccD6F4b",
      "gasPrice": {
        "_hex": "0xba43b7400"
      },
      "gasLimit": {
        "_hex": "0x5208"
      },
      "to": "0x8aa50dfc95Ab047128ccDc6Af4BA2dDbA8D0A874",
      "value": {
        "_hex": "0x20042ddce883236000"
      },
      "nonce": 0,
      "data": "0x",
      "r": "0x46cb748d4aa882a4dec81a804a9f003f57f874f52c8674dbf6be4c95b867e6e2",
      "s": "0x9a8baa27627e83a2e7a47f354b6e46acf4000d2e08426e9ccb2f648f3533fd6f",
      "v": 27,
      "creates": null,
      "raw": "0xf86d80850ba43b7400825208948aa50dfc95ab047128ccdc6af4ba2ddba8d0a8748920042ddce883236000801ba046cb748d4aa882a4dec81a804a9f003f57f874f52c8674dbf6be4c95b867e6e2a09a8baa27627e83a2e7a47f354b6e46acf4000d2e08426e9ccb2f648f3533fd6f",
      "networkId": 0,
      "chainId": 0
    }
  ]
}