{
  "hash": "0xf6ebe3d45b6beacc01b2abbced408e29fbe2a09d49bc2a8f7cb0f4aa67aa2074",
  "parentHash": "0xd07760969742cb719199cdb1c60ea7765c1abb4b3d806263e3b134413c32a6a8",
  "number": 103258,
  "timestamp": 1439850180,
  "nonce": "0x986ca343c3847ca9",
  "difficulty": 4201295113954,
  "gasLimit": {
    "_hex": "0x2fefd8"
  },
  "gasUsed": {
    "_hex": "0x5208"
  },
  "miner": "0x580992B51e3925e23280EfB93d3047C82f17E038",
  "extraData": "0x476574682f76312e302e312f6c696e75782f676f312e342e32",
  "transactions": [
    {
      "hash": "0xec38ae407d75568a2769cf71c551af884a2d98fd311038bc38951538e99018b0",
      "blockHash": "0xf6ebe3d45b6beacc01b2abbced408e29fbe2a09d49bc2a8f7cb0f4aa67aa2074",
      "blockNumber": 103258,
      "transactionIndex": 0,
      "confirmations": null,
      "from": "0xfE439e496730A23d448f85fA219972ea04793aB7",
      "gasPrice": {
        "_hex": "0xd23c433a0"
      },
      "gasLimit": {
        "_hex": "0x5208"
      },
      "to": "0x32Be343B94f860124dC4fEe278FDCBD38C102D88",
      "value": {
        "_hex": "0x14c32d20eb2dfe0000"
      },
      "nonce": 9,
      "data": "0x",
      "r": "0xc3265093aeddf40f03e68cab84e794d75c795045771ab4cdd420761846bcad38",
      "s": "0x1b668e67d138c4f77890c47710e91a010d26b17e3e4a9c33c698473a94dda7f3",
      "v": 27,
      "creates": null,
      "raw": "0xf86d09850d23c433a08252089432be343b94f860124dc4fee278fdcbd38c102d888914c32d20eb2dfe0000801ba0c3265093aeddf40f03e68cab84e794d75c795045771ab4cdd420761846bcad38a01b668e67d138c4f77890c47710e91a010d26b17e3e4a9c33c698473a94dda7f3",
      "networkId": 0,
      "chainId": 0
    }
  ]
}