{
  "hash": "0x5c5019dfd626559f75b0fc27547561bf6d1c2c8d56f20f9474feaa322d1e4958",
  "parentHash": "0x36bcd0f365691e8d7600135e70c4eeae346f4457e169df4450c1cf135981de36",
  "number": 88832,
  "timestamp": 1439614292,
  "nonce": "0xa906f16e336219ea",
  "difficulty": 3233097499111,
  "gasLimit": {
    "_hex": "0x2fefd8"
  },
  "gasUsed": {
    "_hex": "0x5208"
  },
  "miner": "0xe6A7a1d47ff21B6321162AEA7C6CB457D5476Bca",
  "extraData": "0x476574682f76312e302e312d38326566323666362f6c696e75782f676f312e34",
  "transactions": [
    {
      "hash": "0xb000f39f9319cc2e888035954328a2b9cf08d939574529f02ee0793ae5759055",
      "blockHash": "0x5c5019dfd626559f75b0fc27547561bf6d1c2c8d56f20f9474feaa322d1e4958",
      "blockNumber": 88832,
      "transactionIndex": 0,
      "confirmations": null,
      "from": "0x9943C02b44B13e025fc0B938790F5d336BD920f9",
      "gasPrice": {
        "_hex": "0xd5341da0e"
      },
      "gasLimit": {
        "_hex": "0x15f90"
      },
      "to": "0x23f2D0fd3B4C98Fb1698564deB4898275E2e831f",
      "value": {
        "_hex": "0x4563918244f40000"
      },
      "nonce": 2,
      "data": "0x",
      "r": "0x8fb6049a5f4690fc94e34fae863ee6013e33c6df4eff9d2367962056d81c4f0d",
      "s": "0x5fcb794d9aa694efdea82a3e0bd0afc494232865e0099492a0c3c2bac744f72a",
      "v": 28,
      "creates": null,
      "raw": "0xf86d02850d5341da0e83015f909423f2d0fd3b4c98fb1698564deb4898275e2e831f884563918244f40000801ca08fb6049a5f4690fc94e34fae863ee6013e33c6df4eff9d2367962056d81c4f0da05fcb794d9aa694efdea82a3e0bd0afc494232865e0099492a0c3c2bac744f72a",
      "networkId": 0,
      "chainId": 0
    }
  ]
}