{
  "hash": "0x3388e2545c71149558b5faa0f20eea0a6de0b716b174966f27143b6e6680ba16",
  "parentHash": "0x479cb72e3972949126ca373ca704b800ef6299fd4d708e1d9c2d6cf056103a8d",
  "number": 106102,
  "timestamp": 1439898559,
  "nonce": "0x81314821c4db9947",
  "difficulty": 4462016021960,
  "gasLimit": {
    "_hex": "0x2fefd8"
  },
  "gasUsed": {
    "_hex": "0xf618"
  },
  "miner": "0xe6A7a1d47ff21B6321162AEA7C6CB457D5476Bca",
  "extraData": "0x476574682f76312e302e312d38326566323666362f6c696e75782f676f312e34",
  "transactions": [
    {
      "hash": "0x0d0b412a71ec2b0fb0eb11abeb75c3ec4b3eeffc26755749c2611fa2c4a6ef1e",
      "blockHash": "0x3388e2545c71149558b5faa0f20eea0a6de0b716b174966f27143b6e6680ba16",
      "blockNumber": 106102,
      "transactionIndex": 0,
      "confirmations": null,
      "from": "0x4c74B6F32c9680aCB5Fe0e72B7Aa95C612540A04",
      "gasPrice": {
        "_hex": "0xceb757cef"
      },
      "gasLimit": {
        "_hex": "0x5208"
      },
      "to": "0x32Be343B94f860124dC4fEe278FDCBD38C102D88",
      "value": {
        "_hex": "0x1a051453a65356000"
      },
      "nonce": 40,
      "data": "0x",
      "r": "0x28649b0fa132ee61e7dd398f89f154a12edbf5981be986782ab8ca97d49427f9",
      "s": "0x5e02dc5afb3c68dc143d6eeb8079d97cbde279fef9fafeeee1285b7461a95da9",
      "v": 27,
      "creates": null,
      "raw": "0xf86d28850ceb757cef8252089432be343b94f860124dc4fee278fdcbd38c102d888901a051453a65356000801ba028649b0fa132ee61e7dd398f89f154a12edbf5981be986782ab8ca97d49427f9a05e02dc5afb3c68dc143d6eeb8079d97cbde279fef9fafeeee1285b7461a95da9",
      "networkId": 0,
      "chainId": 0
    },
    {
      "hash": "0xd4380236940671e1088510fb6b53b45d97b06daaae057199b58cfff01f363e6c",
      "blockHash": "0x3388e2545c71149558b5faa0f20eea0a6de0b716b174966f27143b6e6680ba16",
      "blockNumber": 106102,
      "transactionIndex": 1,
      "confirmations": null,
      "from": "0x556ca325C21e450b2aFf86D9c8eF0Fa371971c97",
      "gasPrice": {
        "_hex": "0xceb757cef"
      },
      "gasLimit": {
        "_hex": "0x5208"
      },
      "to": "0x32Be343B94f860124dC4fEe278FDCBD38C102D88",
      "value": {
        "_hex": "0x83d2a3d77db36000"
      },
      "nonce": 16,
      "data": "0x",
      "r": "0x4cf46264c09f51d5c60be4221b11bf0614cf82e1d1a35296dfb7cf7519dfb558",
      "s": "0x0ecca688e30b02c1223b287adda6c724dcd503f3f702d6434c6527ffcbf28161",
      "v": 28,
      "creates": null,
      "raw": "0xf86c10850ceb757cef8252089432be343b94f860124dc4fee278fdcbd38c102d888883d2a3d77db36000801ca04cf46264c09f51d5c60be4221b11bf0614cf82e1d1a35296dfb7cf7519dfb558a00ecca688e30b02c1223b287adda6c724dcd503f3f702d6434c6527ffcbf28161",
      "networkId": 0,
      "chainId": 0
    },
    {
      "hash": "0x81af5fe6607c13570fcda6548f8ee722e66d0b18cb217f0be5dd62bfa90ababb",
      "blockHash": "0x3388e2545c71149558b5faa0f20eea0a6de0b716b174966f27143b6e6680ba16",
      "blockNumber": 106102,
      "transactionIndex": 2,
      "confirmations": null,
      "from": "0x9799B868C884690465A1e50A97D76a8B107F7583",
      "gasPrice": {
        "_hex": "0xceb757cef"
      },
      "gasLimit": {
        "_hex": "0x5208"
      },
      "to": "0x32Be343B94f860124dC4fEe278FDCBD38C102D88",
      "value": {
        "_hex": "0x11dddcd7b45e7b000"
      },
      "nonce": 1,
      "data": "0x",
      "r": "0xbc0cda2148ab486bc5f985365d8474e7c534ec0b4a666686a90ba3ba0bbd8d4c",
      "s": "0x65f5f2389ace4a7468bc58cb57ad7469962040a054d9e75509114eeb05dbf033",
      "v": 27,
      "creates": null,
      "raw": "0xf86d01850ceb757cef8252089432be343b94f860124dc4fee278fdcbd38c102d8889011dddcd7b45e7b000801ba0bc0cda2148ab486bc5f985365d8474e7c534ec0b4a666686a90ba3ba0bbd8d4ca065f5f2389ace4a7468bc58cb57ad7469962040a054d9e75509114eeb05dbf033",
      "networkId": 0,
      "chainId": 0
    }
  ]
}