{
  "hash": "0x1e384fc6b8e263af73ba87d891f41781d83d9de0f72b01c61811cbe0563a9edf",
  "parentHash": "0xe209b6a71f0f98ac02038c5b7f6750c72f09796583dfba9204128c2008c8bda7",
  "number": 77376,
  "timestamp": 1439436129,
  "nonce": "0x0351bad904c819ce",
  "difficulty": 2233818690456,
  "gasLimit": {
    "_hex": "0x2fefd8"
  },
  "gasUsed": {
    "_hex": "0x5208"
  },
  "miner": "0x31995C46B15C84523cDEE26f49A681b8237e43F5",
  "extraData": "0x476574682f76312e302e312f77696e646f77732f676f312e342e32",
  "transactions": [
    {
      "hash": "0x11a38beae6f310b6093b9763eab93fee174a3684698d562c763c1db7d514889b",
      "blockHash": "0x1e384fc6b8e263af73ba87d891f41781d83d9de0f72b01c61811cbe0563a9edf",
      "blockNumber": 77376,
      "transactionIndex": 0,
      "confirmations": null,
      "from": "0x84542513E426C184fAD116922bb5695D25EEfC7b",
      "gasPrice": {
        "_hex": "0xce962d5be"
      },
      "gasLimit": {
        "_hex": "0x15f90"
      },
      "to": "0xC7F13fb553585546Dbbf3D0e4b52b20Bb52Af854",
      "value": {
        "_hex": "0xde0b6b3a7640000"
      },
      "nonce": 0,
      "data": "0x",
      "r": "0xef1c9d92217c0afa3e4bf1465d6342dfb6c5e6e6b2691009aeee287c12aa1132",
      "s": "0x4c765731d80b86e39600afb0e29cb77fe614617a5525531b3853c4e1e5a2ee97",
      "v": 28,
      "creates": null,
      "raw": "0xf86d80850ce962d5be83015f9094c7f13fb553585546dbbf3d0e4b52b20bb52af854880de0b6b3a7640000801ca0ef1c9d92217c0afa3e4bf1465d6342dfb6c5e6e6b2691009aeee287c12aa1132a04c765731d80b86e39600afb0e29cb77fe614617a5525531b3853c4e1e5a2ee97",
      "networkId": 0,
      "chainId": 0
    }
  ]
}