{
  "hash": "0x0f296590928a63c942a60c9bd0b232a6670e1f04681da834965d3c84727ddaa1",
  "parentHash": "0x0f22e644a8d1f6b0b767734c240c6fd79ecc985b9b97b3cb5924bf95745a9017",
  "number": 99845,
  "timestamp": 1439796527,
  "nonce": "0x7bdf166f9d025066",
  "difficulty": 3832489285322,
  "gasLimit": {
    "_hex": "0x2fefd8"
  },
  "gasUsed": {
    "_hex": "0x5208"
  },
  "miner": "0xC603Ab5ef41fC61AA8b76bEddb09e3Cfcbb174BD",
  "extraData": "0x476574682f76312e302e312f77696e646f77732f676f312e342e32",
  "transactions": [
    {
      "hash": "0xd2e549cec14aeb509eec192b84c0b5a7d2c81a4fbd7a8768e74cafd37f01629b",
      "blockHash": "0x0f296590928a63c942a60c9bd0b232a6670e1f04681da834965d3c84727ddaa1",
      "blockNumber": 99845,
      "transactionIndex": 0,
      "confirmations": null,
      "from": "0x790b8a3cE86E707ED0eD32bF89B3269692a23CC1",
      "gasPrice": {
        "_hex": "0xd2f4e7c1b"
      },
      "gasLimit": {
        "_hex": "0x15f90"
      },
      "to": "0x4D67f4F0Db45b3B5a3424B39ed8d972F710381D5",
      "value": {
        "_hex": "0x2f9e3fb2098f20000"
      },
      "nonce": 24,
      "data": "0x",
      "r": "0xd4412b2748b7950208ba394dc6a9cf548d26456b076988680cdbe5a4891cda1b",
      "s": "0x3668bcd94a0cae39c6c0a5f9a7ef2aae391d185e50f8e73b337de9492941673d",
      "v": 27,
      "creates": null,
      "raw": "0xf86e18850d2f4e7c1b83015f90944d67f4f0db45b3b5a3424b39ed8d972f710381d58902f9e3fb2098f20000801ba0d4412b2748b7950208ba394dc6a9cf548d26456b076988680cdbe5a4891cda1ba03668bcd94a0cae39c6c0a5f9a7ef2aae391d185e50f8e73b337de9492941673d",
      "networkId": 0,
      "chainId": 0
    }
  ]
}