{
  "hash": "0x515835e2c906561b85b0e57d9d75813d42ecfbe4883f50b93329e9052344e8b0",
  "parentHash": "0xbcb320aae1b0a2fd0b8faff265c44b03e531b029de32f2e7a8c8f2c20660a955",
  "number": 72576,
  "timestamp": 1439354947,
  "nonce": "0x1de1e84a214e8c4d",
  "difficulty": 2191866560022,
  "gasLimit": {
    "_hex": "0x2fefd8"
  },
  "gasUsed": {
    "_hex": "0x1b198"
  },
  "miner": "0x93641e54c9aA6F9038FE7Adb03629a1747326Cd6",
  "extraData": "0x476574682f76312e302e312f77696e646f77732f676f312e342e32",
  "transactions": [
    {
      "hash": "0xb1f876894efd7ba2d54d8b8eef953e69d387331f3834e54759668a3c6b877aa3",
      "blockHash": "0x515835e2c906561b85b0e57d9d75813d42ecfbe4883f50b93329e9052344e8b0",
      "blockNumber": 72576,
      "transactionIndex": 0,
      "confirmations": null,
      "from": "0x326Be8F71bFb0379f989aAB1CC1fE37f0a771f60",
      "gasPrice": {
        "_hex": "0x10838eedc74"
      },
      "gasLimit": {
        "_hex": "0x15f90"
      },
      "to": "0x8dD3Da3fAB45051Ed2Cd677c0e53c9dE0011944c",
      "value": {
        "_hex": "0x0"
      },
      "nonce": 7,
      "data": "0x8d21618600000000000000000000000000000000000000000000000000000000000000806361740000000000000000000000000000000000000000000000000000000000",
      "r": "0x9af9bcad972c1da59f9d1d40bdc5bfd12920015c123d29733caaff67f11b2b8d",
      "s": "0x1d09d7ad17aa1c70baa8698b66af1de2d103f5fec23626330c9952bb5a7e4f97",
      "v": 28,
      "creates": null,
      "raw": "0xf8ab0786010838eedc7483015f90948dd3da3fab45051ed2cd677c0e53c9de0011944c80b8448d216186000000000000000000000000000000000000000000000000000000000000008063617400000000000000000000000000000000000000000000000000000000001ca09af9bcad972c1da59f9d1d40bdc5bfd12920015c123d29733caaff67f11b2b8da01d09d7ad17aa1c70baa8698b66af1de2d103f5fec23626330c9952bb5a7e4f97",
      "networkId": 0,
      "chainId": 0
    },
    {
      "hash": "0x9f7ea0227b7058ef6dfa9c58d3683113992c54f5ac10a6a54de11f715d3bae5a",
      "blockHash": "0x515835e2c906561b85b0e57d9d75813d42ecfbe4883f50b93329e9052344e8b0",
      "blockNumber": 72576,
      "transactionIndex": 1,
      "confirmations": null,
      "from": "0x585aE8Cf889282751b3C38c38A9C833D96d0dc59",
      "gasPrice": {
        "_hex": "0xceb8d7a0f"
      },
      "gasLimit": {
        "_hex": "0x5208"
      },
      "to": "0x32Be343B94f860124dC4fEe278FDCBD38C102D88",
      "value": {
        "_hex": "0xd02690ac9a35b000"
      },
      "nonce": 2,
      "data": "0x",
      "r": "0x12f7ab9b5f5dbc51d9e76d8b222440f64c7bc9f27ef119e0a2eba93823ee11de",
      "s": "0x3f12d8e47f3cba24cf94dcc8d62e00bbddd3160aa96a0d78d24164ded2a3c559",
      "v": 27,
      "creates": null,
      "raw": "0xf86c02850ceb8d7a0f8252089432be343b94f860124dc4fee278fdcbd38c102d8888d02690ac9a35b000801ba012f7ab9b5f5dbc51d9e76d8b222440f64c7bc9f27ef119e0a2eba93823ee11dea03f12d8e47f3cba24cf94dcc8d62e00bbddd3160aa96a0d78d24164ded2a3c559",
      "networkId": 0,
      "chainId": 0
    }
  ]
}