{
  "hash": "0x1d7ea4fc14f5bb099894d3f83f5768257cd03ef0c3e5e95f016a530cc2ed6fa9",
  "parentHash": "0xd1f500f745ab64b0a5f054c128544c7b9623a6f8b0f4f27ad08a6fe96e119be0",
  "number": 102349,
  "timestamp": 1439836599,
  "nonce": "0xb7bf5e24934cdc59",
  "difficulty": 3949106993732,
  "gasLimit": {
    "_hex": "0x2fefd8"
  },
  "gasUsed": {
    "_hex": "0x5208"
  },
  "miner": "0x5B034036Ae40b7C5d7bbbF041D07b7f76E200039",
  "extraData": "0x476574682f76312e302e312f77696e646f77732f676f312e342e32",
  "transactions": [
    {
      "hash": "0x9f57467a36440ae89f09be74999f9272eb1b4f578e3eba7206234ef9e14d1d38",
      "blockHash": "0x1d7ea4fc14f5bb099894d3f83f5768257cd03ef0c3e5e95f016a530cc2ed6fa9",
      "blockNumber": 102349,
      "transactionIndex": 0,
      "confirmations": null,
      "from": "0x120A270bbC009644e35F0bB6ab13f95b8199c4ad",
      "gasPrice": {
        "_hex": "0xd928400c9"
      },
      "gasLimit": {
        "_hex": "0x3d090"
      },
      "to": "0xCA092A957744f6385B1aee5dC694143E8A06F805",
      "value": {
        "_hex": "0x6ae9c508fda8000"
      },
      "nonce": 695,
      "data": "0x",
      "r": "0xefff55bf2fa5210814abf02557faa743a432ec0e20ecf1b3e48ab20746a7c8e1",
      "s": "0x45a1be4ecc6f252bd720749a46dec29d05f5e8959774b60a9460afd748e6f2f0",
      "v": 28,
      "creates": null,
      "raw": "0xf86f8202b7850d928400c98303d09094ca092a957744f6385b1aee5dc694143e8a06f8058806ae9c508fda8000801ca0efff55bf2fa5210814abf02557faa743a432ec0e20ecf1b3e48ab20746a7c8e1a045a1be4ecc6f252bd720749a46dec29d05f5e8959774b60a9460afd748e6f2f0",
      "networkId": 0,
      "chainId": 0
    }
  ]
}