{
  "hash": "0x6f4eb7cb5938f0115b2ea11edf3735057bd90d14eead8bc74dd0a37c5f4d08c3",
  "parentHash": "0xa0858747c547f59fb3b1235ec29cfab7d0597f6f05f62c0213f033fab7538682",
  "number": 121295,
  "timestamp": 1440174760,
  "nonce": "0x18160cca367449a3",
  "difficulty": 4421439494186,
  "gasLimit": {
    "_hex": "0x2fefd8"
  },
  "gasUsed": {
    "_hex": "0x5208"
  },
  "miner": "0xe6A7a1d47ff21B6321162AEA7C6CB457D5476Bca",
  "extraData": "0xd783010002844765746887676f312e342e32856c696e7578",
  "transactions": [
    {
      "hash": "0xeec0489ec2521f10f7f597bcceaedc0be7ca167f25833beda8bb3cba15fc57da",
      "blockHash": "0x6f4eb7cb5938f0115b2ea11edf3735057bd90d14eead8bc74dd0a37c5f4d08c3",
      "blockNumber": 121295,
      "transactionIndex": 0,
      "confirmations": null,
      "from": "0x120A270bbC009644e35F0bB6ab13f95b8199c4ad",
      "gasPrice": {
        "_hex": "0xba43b7400"
      },
      "gasLimit": {
        "_hex": "0x3d090"
      },
      "to": "0xCA092A957744f6385B1aee5dC694143E8A06F805",
      "value": {
        "_hex": "0x51de6b5192b8400"
      },
      "nonce": 971,
      "data": "0x",
      "r": "0x185c95246f37b26b7439f8dc3ec772ddce8a9bd98ee35823ff749e98bf7a4ce0",
      "s": "0x5bd11ed9ebe2ee8f98c812d33cdd95db0627989a416777470318201f4d4376e9",
      "v": 27,
      "creates": null,
      "raw": "0xf86f8203cb850ba43b74008303d09094ca092a957744f6385b1aee5dc694143e8a06f80588051de6b5192b8400801ba0185c95246f37b26b7439f8dc3ec772ddce8a9bd98ee35823ff749e98bf7a4ce0a05bd11ed9ebe2ee8f98c812d33cdd95db0627989a416777470318201f4d4376e9",
      "networkId": 0,
      "chainId": 0
    }
  ]
}