{
  "hash": "0xbde6380edfb3e06a9ee463335eff7ff30ae7d9b73c391cae8a77800b653cfe0d",
  "parentHash": "0xf6709e6eafe9bdb615b4e62b96a46643cfad3de0d2ea7aa296486b5bbfbebabf",
  "number": 64625,
  "timestamp": 1439223745,
  "nonce": "0xa203dcd0d4a14954",
  "difficulty": 1890375584867,
  "gasLimit": {
    "_hex": "0x2fefd8"
  },
  "gasUsed": {
    "_hex": "0x28fb0"
  },
  "miner": "0x10C3eedde6fBda160041f479fCaf26bb38316fCd",
  "extraData": "0x476574682f76312e302e312d38326566323666362f6c696e75782f676f312e34",
  "transactions": [
    {
      "hash": "0x2de05825ecb641c95638ba1a240741f0009772b81ebe674dc00da1dfab7b1b5c",
      "blockHash": "0xbde6380edfb3e06a9ee463335eff7ff30ae7d9b73c391cae8a77800b653cfe0d",
      "blockNumber": 64625,
      "transactionIndex": 0,
      "confirmations": null,
      "from": "0x455B9296921a74D1fc41617f43B8303e6F3ed76C",
      "gasPrice": {
        "_hex": "0x110c8f7d8de"
      },
      "gasLimit": {
        "_hex": "0xc350"
      },
      "to": "0x2910543Af39abA0Cd09dBb2D50200b3E800A63D2",
      "value": {
        "_hex": "0xe3ad522df9e3160000"
      },
      "nonce": 0,
      "data": "0x454e38563656473630",
      "r": "0x01a73405104fcf48ac3f961aaf1f1cb6b200e61d73ea40ac5cd0e98309ada809",
      "s": "0xd0221df6e5e72a2a769a1c5fbdc5ce672e8f790370b5f2855231cf0ca870688e",
      "v": 27,
      "creates": null,
      "raw": "0xf87780860110c8f7d8de82c350942910543af39aba0cd09dbb2d50200b3e800a63d289e3ad522df9e316000089454e385636564736301ba001a73405104fcf48ac3f961aaf1f1cb6b200e61d73ea40ac5cd0e98309ada809a0d0221df6e5e72a2a769a1c5fbdc5ce672e8f790370b5f2855231cf0ca870688e",
      "networkId": 0,
      "chainId": 0
    },
    {
      "hash": "0x3628944525c3d73cde1d52d08af78abae3dbfed7c8ad796517a461dae76b75b7",
      "blockHash": "0xbde6380edfb3e06a9ee463335eff7ff30ae7d9b73c391cae8a77800b653cfe0d",
      "blockNumber": 64625,
      "transactionIndex": 1,
      "confirmations": null,
      "from": "0x8914Dae142b9E9f06d3790E1D936B81baf4d0D29",
      "gasPrice": {
        "_hex": "0xba43b7400"
      },
      "gasLimit": {
        "_hex": "0x15f90"
      },
      "to": "0x793AE8C1b1a160BFc07BFB0d04F85eab1A71F4f2",
      "value": {
        "_hex": "0x0"
      },
      "nonce": 0,
      "data": "0x3ba15036",
      "r": "0x83ac4a20b0bde288a88f44199d21ad1fb5171546324e511830105edcc3a43c68",
      "s": "0x17ae577fc683171a5b7e568f60ae2e805eb3f3a233b2528e542955312b2ae643",
      "v": 27,
      "creates": null,
      "raw": "0xf86980850ba43b740083015f9094793ae8c1b1a160bfc07bfb0d04f85eab1a71f4f280843ba150361ba083ac4a20b0bde288a88f44199d21ad1fb5171546324e511830105edcc3a43c68a017ae577fc683171a5b7e568f60ae2e805eb3f3a233b2528e542955312b2ae643",
      "networkId": 0,
      "chainId": 0
    },
    {
      "hash": "0x34ced3c2a4304c25d4d174f437525c247b7a19c4ebf6a7a07790c5fcb4e6025a",
      "blockHash": "0xbde6380edfb3e06a9ee463335eff7ff30ae7d9b73c391cae8a77800b653cfe0d",
      "blockNumber": 64625,
      "transactionIndex": 2,
      "confirmations": null,
      "from": "0xe6DA3b0556D4Bd23FF25dEaE3e4a1745D97103c0",
      "gasPrice": {
        "_hex": "0xba43b7400"
      },
      "gasLimit": {
        "_hex": "0x15f90"
      },
      "to": "0x793AE8C1b1a160BFc07BFB0d04F85eab1A71F4f2",
      "value": {
        "_hex": "0x0"
      },
      "nonce": 0,
      "data": "0x3ba15036",
      "r": "0x1746486064442691f6089349c66b50653685a194c18738a6745fe03178677b12",
      "s": "0x609af4ebfe451f0ddb08b5a77352abff337e6a6bf26b190bf798ef96a598a02d",
      "v": 27,
      "creates": null,
      "raw": "0xf86980850ba43b740083015f9094793ae8c1b1a160bfc07bfb0d04f85eab1a71f4f280843ba150361ba01746486064442691f6089349c66b50653685a194c18738a6745fe03178677b12a0609af4ebfe451f0ddb08b5a77352abff337e6a6bf26b190bf798ef96a598a02d",
      "networkId": 0,
      "chainId": 0
    },
    {
      "hash": "0x1f84378d119ea31ee72927f1e711be5fc7ae97efd9739ed1e249b93581b56aaa",
      "blockHash": "0xbde6380edfb3e06a9ee463335eff7ff30ae7d9b73c391cae8a77800b653cfe0d",
      "blockNumber": 64625,
      "transactionIndex": 3,
      "confirmations": null,
      "from": "0x565339163909DF18CE256d1Ed3e9282faDcEb0c2",
      "gasPrice": {
        "_hex": "0xba43b7400"
      },
      "gasLimit": {
        "_hex": "0x15f90"
      },
      "to": "0x793AE8C1b1a160BFc07BFB0d04F85eab1A71F4f2",
      "value": {
        "_hex": "0x0"
      },
      "nonce": 0,
      "data": "0x3ba15036",
      "r": "0x2cb83ba09a974125e3ed39c44b26d8cee8c0c7726df323ca339569bccebb4492",
      "s": "0x7749145871c7cec556fa87397bd18662d0258a2ca7dd3ee57a7fbe62fea13f28",
      "v": 27,
      "creates": null,
      "raw": "0xf86980850ba43b740083015f9094793ae8c1b1a160bfc07bfb0d04f85eab1a71f4f280843ba150361ba02cb83ba09a974125e3ed39c44b26d8cee8c0c7726df323ca339569bccebb4492a07749145871c7cec556fa87397bd18662d0258a2ca7dd3ee57a7fbe62fea13f28",
      "networkId": 0,
      "chainId": 0
    }
  ]
}