{
  "hash": "0x6e79334466bedc31205a4be81864d569c3f7a37602b028445b6e69668cae2cb1",
  "parentHash": "0xe250e3a8b2da3aa789dea1a23b374ce0856b52bb857910306a32b19d2e161df3",
  "number": 94785,
  "timestamp": 1439714055,
  "nonce": "0xf456fb0e7b61159d",
  "difficulty": 3498452937166,
  "gasLimit": {
    "_hex": "0x2fefd8"
  },
  "gasUsed": {
    "_hex": "0x5208"
  },
  "miner": "0xbb7B8287f3F0a933474a79eAe42CBCa977791171",
  "extraData": "0x476574682f4c5649562f76312e302e312f6c696e75782f676f312e342e32",
  "transactions": [
    {
      "hash": "0x61eb6fcd79eccff1caa31683bd3327a290008755f727591aba59fa72217d900b",
      "blockHash": "0x6e79334466bedc31205a4be81864d569c3f7a37602b028445b6e69668cae2cb1",
      "blockNumber": 94785,
      "transactionIndex": 0,
      "confirmations": null,
      "from": "0xDdaCBcba2a4fe9313F7CCA044872A9c51bD1E4c8",
      "gasPrice": {
        "_hex": "0xcd59a1e67"
      },
      "gasLimit": {
        "_hex": "0x5208"
      },
      "to": "0x32Be343B94f860124dC4fEe278FDCBD38C102D88",
      "value": {
        "_hex": "0x3b04502ec8130c00"
      },
      "nonce": 1,
      "data": "0x",
      "r": "0x0eb90670e352ef0b8917ae82724928f8639e7c1c19c15e637650310535e59988",
      "s": "0x303450a074377ead91546b4171ef240b0ea0ab0df6eed6b04380e4957380d0f2",
      "v": 27,
      "creates": null,
      "raw": "0xf86c01850cd59a1e678252089432be343b94f860124dc4fee278fdcbd38c102d88883b04502ec8130c00801ba00eb90670e352ef0b8917ae82724928f8639e7c1c19c15e637650310535e59988a0303450a074377ead91546b4171ef240b0ea0ab0df6eed6b04380e4957380d0f2",
      "networkId": 0,
      "chainId": 0
    }
  ]
}