{
  "hash": "0x23cab3af3a202d150968f2541eae3b4a19380582bada3f823a899ea497c36fe4",
  "parentHash": "0x0f7b764dbb88befa591fc91585c86684c34c29a68a747cb3edadbb400913a003",
  "number": 84277,
  "timestamp": 1439547434,
  "nonce": "0x33c067aba48bc9d4",
  "difficulty": 2530401955854,
  "gasLimit": {
    "_hex": "0x2fefd8"
  },
  "gasUsed": {
    "_hex": "0x854d0"
  },
  "miner": "0xe6A7a1d47ff21B6321162AEA7C6CB457D5476Bca",
  "extraData": "0x476574682f76312e302e312d38326566323666362f6c696e75782f676f312e34",
  "transactions": [
    {
      "hash": "0xd760ce93df170f07bb7e9216905bc4b7d197e116c50927e5b01e17330898ca44",
      "blockHash": "0x23cab3af3a202d150968f2541eae3b4a19380582bada3f823a899ea497c36fe4",
      "blockNumber": 84277,
      "transactionIndex": 0,
      "confirmations": null,
      "from": "0xe6A7a1d47ff21B6321162AEA7C6CB457D5476Bca",
      "gasPrice": {
        "_hex": "0xddca11405"
      },
      "gasLimit": {
        "_hex": "0x55f0"
      },
      "to": "0xF53cEB46156c2a0bC1a7aAd59774F5DfDA068CEc",
      "value": {
        "_hex": "0x442e7108890f4838"
      },
      "nonce": 1677,
      "data": "0x",
      "r": "0xb866676adb25571ffd35e8a3580919a397711356a776af61314469f8f4051f4b",
      "s": "0x40dc7f3252c57f40c169712c8cf220f85783da2401b3e271054fe182f0ac0d49",
      "v": 28,
      "creates": null,
      "raw": "0xf86e82068d850ddca114058255f094f53ceb46156c2a0bc1a7aad59774f5dfda068cec88442e7108890f4838801ca0b866676adb25571ffd35e8a3580919a397711356a776af61314469f8f4051f4ba040dc7f3252c57f40c169712c8cf220f85783da2401b3e271054fe182f0ac0d49",
      "networkId": 0,
      "chainId": 0
    },
    {
      "hash": "0xe30c2b1fb0ef3a847384d5731024af7eb16d5aa0dc1296a36fa246eeca3090d3",
      "blockHash": "0x23cab3af3a202d150968f2541eae3b4a19380582bada3f823a899ea497c36fe4",
      "blockNumber": 84277,
      "transactionIndex": 1,
      "confirmations": null,
      "from": "0xe6A7a1d47ff21B6321162AEA7C6CB457D5476Bca",
      "gasPrice": {
        "_hex": "0xddca11405"
      },
      "gasLimit": {
        "_hex": "0x55f0"
      },
      "to": "0xCadcea36EC3feB740167E4370777fab1549F8759",
      "value": {
        "_hex": "0x445dffe603cc4008"
      },
      "nonce": 1678,
      "data": "0x",
      "r": "0x1e52323cd30053f30547942e29c45ae2673c7705109874ffcd2ef5cae14a1c1f",
      "s": "0x461c037e7c7ad2eb50c295fb1ef36b5b46308ae89bbb4ebfdd5c9a50b070e570",
      "v": 27,
      "creates": null,
      "raw": "0xf86e82068e850ddca114058255f094cadcea36ec3feb740167e4370777fab1549f875988445dffe603cc4008801ba01e52323cd30053f30547942e29c45ae2673c7705109874ffcd2ef5cae14a1c1fa0461c037e7c7ad2eb50c295fb1ef36b5b46308ae89bbb4ebfdd5c9a50b070e570",
      "networkId": 0,
      "chainId": 0
    },
    {
      "hash": "0x664fa6767b17fbce1c996e6b749c7d9c09349ed7673e39ad8e69e64d5cad0528",
      "blockHash": "0x23cab3af3a202d150968f2541eae3b4a19380582bada3f823a899ea497c36fe4",
      "blockNumber": 84277,
      "transactionIndex": 2,
      "confirmations": null,
      "from": "0xe6A7a1d47ff21B6321162AEA7C6CB457D5476Bca",
      "gasPrice": {
        "_hex": "0xddca11405"
      },
      "gasLimit": {
        "_hex": "0x55f0"
      },
      "to": "0x49DC75D11428d1D718FC7b71941B71ae6F8bfA3C",
      "value": {
        "_hex": "0x44cbd4ac1652b7d0"
      },
      "nonce": 1679,
      "data": "0x",
      "r": "0x4aff5f2b1f0da9eaab880a1e101af50dc196c15c768b03ab69edd12afaeb4757",
      "s": "0x0461def3c10899dd5e311337fc6052c1409690f6411128937fde5578c098867c",
      "v": 27,
      "creates": null,
      "raw": "0xf86e82068f850ddca114058255f09449dc75d11428d1d718fc7b71941b71ae6f8bfa3c8844cbd4ac1652b7d0801ba04aff5f2b1f0da9eaab880a1e101af50dc196c15c768b03ab69edd12afaeb4757a00461def3c10899dd5e311337fc6052c1409690f6411128937fde5578c098867c",
      "networkId": 0,
      "chainId": 0
    },
    {
      "hash": "0xf56d67f677e6d617b47a010399bdaad9af949657758100da4bfa590b9c79537a",
      "blockHash": "0x23cab3af3a202d150968f2541eae3b4a19380582bada3f823a899ea497c36fe4",
      "blockNumber": 84277,
      "transactionIndex": 3,
      "confirmations": null,
      "from": "0xe6A7a1d47ff21B6321162AEA7C6CB457D5476Bca",
      "gasPrice": {
        "_hex": "0xddca11405"
      },
      "gasLimit": {
        "_hex": "0x55f0"
      },
      "to": "0xcA8f4Fb1A28593337AeE456Acc76ABD4C3c83257",
      "value": {
        "_hex": "0x44da4c275b72b7d8"
      },
      "nonce": 1680,
      "data": "0x",
      "r": "0x071ecc7cf0e5d223837f233f3f2163d1734e86ecad122495b7c053d29e716b12",
      "s": "0x709e620a8d497212bb05589ba5f18653a4337ab5a0478947c7c3728e4da177fd",
      "v": 28,
      "creates": null,
      "raw": "0xf86e820690850ddca114058255f094ca8f4fb1a28593337aee456acc76abd4c3c832578844da4c275b72b7d8801ca0071ecc7cf0e5d223837f233f3f2163d1734e86ecad122495b7c053d29e716b12a0709e620a8d497212bb05589ba5f18653a4337ab5a0478947c7c3728e4da177fd",
      "networkId": 0,
      "chainId": 0
    },
    {
      "hash": "0x5c85907b57c3312dc8527b72d012724651796b32db86c50044c079484549fc63",
      "blockHash": "0x23cab3af3a202d150968f2541eae3b4a19380582bada3f823a899ea497c36fe4",
      "blockNumber": 84277,
      "transactionIndex": 4,
      "confirmations": null,
      "from": "0xe6A7a1d47ff21B6321162AEA7C6CB457D5476Bca",
      "gasPrice": {
        "_hex": "0xddca11405"
      },
      "gasLimit": {
        "_hex": "0x55f0"
      },
      "to": "0x2118baa5B9d6423676CF5502Eb6eaeD859228c33",
      "value": {
        "_hex": "0x451b9c670d17a040"
      },
      "nonce": 1681,
      "data": "0x",
      "r": "0xc5f31ffc90883a81fb5c955927b8a22bf823653c0b91ca96611969adf3174533",
      "s": "0x7cfd952281ef37438798e3b8bbc4a694f310032ea4f79a9f358dac9d6d21d59b",
      "v": 27,
      "creates": null,
      "raw": "0xf86e820691850ddca114058255f0942118baa5b9d6423676cf5502eb6eaed859228c3388451b9c670d17a040801ba0c5f31ffc90883a81fb5c955927b8a22bf823653c0b91ca96611969adf3174533a07cfd952281ef37438798e3b8bbc4a694f310032ea4f79a9f358dac9d6d21d59b",
      "networkId": 0,
      "chainId": 0
    },
    {
      "hash": "0x82b27b2dc3f882ff6cbcffe481bbd391f2c754c285ddd8a4e2bb492281c0bcd3",
      "blockHash": "0x23cab3af3a202d150968f2541eae3b4a19380582bada3f823a899ea497c36fe4",
      "blockNumber": 84277,
      "transactionIndex": 5,
      "confirmations": null,
      "from": "0xe6A7a1d47ff21B6321162AEA7C6CB457D5476Bca",
      "gasPrice": {
        "_hex": "0xddca11405"
      },
      "gasLimit": {
        "_hex": "0x55f0"
      },
      "to": "0x9DedD6eC380c0FC0058bA1c2a8035e9ba583F34F",
      "value": {
        "_hex": "0x4604098fc2a333d8"
      },
      "nonce": 1682,
      "data": "0x",
      "r": "0xe7bdb696abe3b2c6ef151afa588920c158c26bf333f76f45c06f5ede96804a08",
      "s": "0x30cceed80b8427a1a56da2feedc65643d8960130786a382682690a7f483f3a88",
      "v": 28,
      "creates": null,
      "raw": "0xf86e820692850ddca114058255f0949dedd6ec380c0fc0058ba1c2a8035e9ba583f34f884604098fc2a333d8801ca0e7bdb696abe3b2c6ef151afa588920c158c26bf333f76f45c06f5ede96804a08a030cceed80b8427a1a56da2feedc65643d8960130786a382682690a7f483f3a88",
      "networkId": 0,
      "chainId": 0
    },
    {
      "hash": "0xa73cd4d0f367d25a5071527cab2899b8d50d7d811356633396df1ad72dbd2497",
      "blockHash": "0x23cab3af3a202d150968f2541eae3b4a19380582bada3f823a899ea497c36fe4",
      "blockNumber": 84277,
      "transactionIndex": 6,
      "confirmations": null,
      "from": "0xe6A7a1d47ff21B6321162AEA7C6CB457D5476Bca",
      "gasPrice": {
        "_hex": "0xddca11405"
      },
      "gasLimit": {
        "_hex": "0x55f0"
      },
      "to": "0x8101538Df7E005d06CA303f609631c4029130687",
      "value": {
        "_hex": "0x461eef0b91af9060"
      },
      "nonce": 1683,
      "data": "0x",
      "r": "0x34ffda80fa7f5a996d215670beb73f36bdb9606cd75a6d1e2fe6fff9638c7be5",
      "s": "0x4d0e8a3c3598917346f9973126fde335acc584b648e3a324a920ec1960c537f7",
      "v": 27,
      "creates": null,
      "raw": "0xf86e820693850ddca114058255f0948101538df7e005d06ca303f609631c402913068788461eef0b91af9060801ba034ffda80fa7f5a996d215670beb73f36bdb9606cd75a6d1e2fe6fff9638c7be5a04d0e8a3c3598917346f9973126fde335acc584b648e3a324a920ec1960c537f7",
      "networkId": 0,
      "chainId": 0
    },
    {
      "hash": "0xa269ab97656d40f79252e4df083e2a86f3337e86aa314d20d60302108c5b10a3",
      "blockHash": "0x23cab3af3a202d150968f2541eae3b4a19380582bada3f823a899ea497c36fe4",
      "blockNumber": 84277,
      "transactionIndex": 7,
      "confirmations": null,
      "from": "0xe6A7a1d47ff21B6321162AEA7C6CB457D5476Bca",
      "gasPrice": {
        "_hex": "0xddca11405"
      },
      "gasLimit": {
        "_hex": "0x55f0"
      },
      "to": "0x683FEDdafc2A8542744a4587DE0C45626D7B8E68",
      "value": {
        "_hex": "0x46d69fc0681c5b70"
      },
      "nonce": 1684,
      "data": "0x",
      "r": "0xa1d4e10ac599066214e60cf08cb8cb709418b5335c97d5ebaa129639427527f0",
      "s": "0x66c3002f60a0b445470d5e252abe83747d4e68bf1dbf585b58cbfbe1eb60b1b0",
      "v": 27,
      "creates": null,
      "raw": "0xf86e820694850ddca114058255f094683feddafc2a8542744a4587de0c45626d7b8e688846d69fc0681c5b70801ba0a1d4e10ac599066214e60cf08cb8cb709418b5335c97d5ebaa129639427527f0a066c3002f60a0b445470d5e252abe83747d4e68bf1dbf585b58cbfbe1eb60b1b0",
      "networkId": 0,
      "chainId": 0
    },
    {
      "hash": "0xfcab8893927a76634ced7c2d44ad63b7c45ed63acd7937bcad161625cb0b227d",
      "blockHash": "0x23cab3af3a202d150968f2541eae3b4a19380582bada3f823a899ea497c36fe4",
      "blockNumber": 84277,
      "transactionIndex": 8,
      "confirmations": null,
      "from": "0xe6A7a1d47ff21B6321162AEA7C6CB457D5476Bca",
      "gasPrice": {
        "_hex": "0xddca11405"
      },
      "gasLimit": {
        "_hex": "0x55f0"
      },
      "to": "0xA4b566f129e5810957eF8cC2F750383E488D35Dd",
      "value": {
        "_hex": "0x46e4802177ee4870"
      },
      "nonce": 1685,
      "data": "0x",
      "r": "0xd9f48a99e7008ef178074eb0492c14ef460d77314d60920d35871fbe055c6efe",
      "s": "0x4dbc96aa394162e7557ceb66b0277bdc60726ab597989b9b6e2abbd616387da0",
      "v": 27,
      "creates": null,
      "raw": "0xf86e820695850ddca114058255f094a4b566f129e5810957ef8cc2f750383e488d35dd8846e4802177ee4870801ba0d9f48a99e7008ef178074eb0492c14ef460d77314d60920d35871fbe055c6efea04dbc96aa394162e7557ceb66b0277bdc60726ab597989b9b6e2abbd616387da0",
      "networkId": 0,
      "chainId": 0
    },
    {
      "hash": "0x672a4ad63fca8d42784f13692f0e4142f3907c8fe06b32873b317901b53aab9e",
      "blockHash": "0x23cab3af3a202d150968f2541eae3b4a19380582bada3f823a899ea497c36fe4",
      "blockNumber": 84277,
      "transactionIndex": 9,
      "confirmations": null,
      "from": "0xe6A7a1d47ff21B6321162AEA7C6CB457D5476Bca",
      "gasPrice": {
        "_hex": "0xddca11405"
      },
      "gasLimit": {
        "_hex": "0x55f0"
      },
      "to": "0x8B454d830feF179e66206840F8F3D1d83bC32b17",
      "value": {
        "_hex": "0x47ac2a4aa7e4bf28"
      },
      "nonce": 1686,
      "data": "0x",
      "r": "0x186998404f2d1e7322515684c9da0169d2a8482d02d4c71beecef066a9bcc3d0",
      "s": "0x219df9fa4e2bb175607ec3108fbf4c2ced20894fa99c0470b15cd1f40064aabe",
      "v": 28,
      "creates": null,
      "raw": "0xf86e820696850ddca114058255f0948b454d830fef179e66206840f8f3d1d83bc32b178847ac2a4aa7e4bf28801ca0186998404f2d1e7322515684c9da0169d2a8482d02d4c71beecef066a9bcc3d0a0219df9fa4e2bb175607ec3108fbf4c2ced20894fa99c0470b15cd1f40064aabe",
      "networkId": 0,
      "chainId": 0
    },
    {
      "hash": "0x5d8b97de87d7b3d41d69aa0fb58eea904de9888d01580c8a0f7fa65f97408e0e",
      "blockHash": "0x23cab3af3a202d150968f2541eae3b4a19380582bada3f823a899ea497c36fe4",
      "blockNumber": 84277,
      "transactionIndex": 10,
      "confirmations": null,
      "from": "0xe6A7a1d47ff21B6321162AEA7C6CB457D5476Bca",
      "gasPrice": {
        "_hex": "0xddca11405"
      },
      "gasLimit": {
        "_hex": "0x55f0"
      },
      "to": "0xC711d87af18Db9a7EbE2CFB279b73c8785E55d41",
      "value": {
        "_hex": "0x486aca736dc45c80"
      },
      "nonce": 1687,
      "data": "0x",
      "r": "0xe87e4fafce81f99a6475c6b9ad02ccabeb462e0f4afcfe42d720270216d5d7bd",
      "s": "0x137e0b2ad3c0fe9a2f6aa49bd874cd14426983cd0c7ecf1d5e8ffa4883694c98",
      "v": 27,
      "creates": null,
      "raw": "0xf86e820697850ddca114058255f094c711d87af18db9a7ebe2cfb279b73c8785e55d4188486aca736dc45c80801ba0e87e4fafce81f99a6475c6b9ad02ccabeb462e0f4afcfe42d720270216d5d7bda0137e0b2ad3c0fe9a2f6aa49bd874cd14426983cd0c7ecf1d5e8ffa4883694c98",
      "networkId": 0,
      "chainId": 0
    },
    {
      "hash": "0x15423d288d836c1eb2f410771679ab5946ff3a5060b1328856417a955ac37ab0",
      "blockHash": "0x23cab3af3a202d150968f2541eae3b4a19380582bada3f823a899ea497c36fe4",
      "blockNumber": 84277,
      "transactionIndex": 11,
      "confirmations": null,
      "from": "0xe6A7a1d47ff21B6321162AEA7C6CB457D5476Bca",
      "gasPrice": {
        "_hex": "0xddca11405"
      },
      "gasLimit": {
        "_hex": "0x55f0"
      },
      "to": "0xF9d39b090fBC6669b52606272a0Cea56BDAb638A",
      "value": {
        "_hex": "0x48a7e40495c00b20"
      },
      "nonce": 1688,
      "data": "0x",
      "r": "0x5a29730fb3a68461b451eecb5679f7cc96e7b45a95044f5b26e4a6fec8e77de9",
      "s": "0x52fcf311eaa505dd1bdb755b28536813298fd41f69005abee3a5b67f1baac5c7",
      "v": 28,
      "creates": null,
      "raw": "0xf86e820698850ddca114058255f094f9d39b090fbc6669b52606272a0cea56bdab638a8848a7e40495c00b20801ca05a29730fb3a68461b451eecb5679f7cc96e7b45a95044f5b26e4a6fec8e77de9a052fcf311eaa505dd1bdb755b28536813298fd41f69005abee3a5b67f1baac5c7",
      "networkId": 0,
      "chainId": 0
    },
    {
      "hash": "0x22265c3542398fd4ed803d3f0efa3d1acf71595e23a77c2d42d260318b824959",
      "blockHash": "0x23cab3af3a202d150968f2541eae3b4a19380582bada3f823a899ea497c36fe4",
      "blockNumber": 84277,
      "transactionIndex": 12,
      "confirmations": null,
      "from": "0xe6A7a1d47ff21B6321162AEA7C6CB457D5476Bca",
      "gasPrice": {
        "_hex": "0xddca11405"
      },
      "gasLimit": {
        "_hex": "0x55f0"
      },
      "to": "0xDD6f935a791F13ce18c10310c688E09cfc4a5d60",
      "value": {
        "_hex": "0x48bf237ed266beb8"
      },
      "nonce": 1689,
      "data": "0x",
      "r": "0xd83a69dd261dc30c1311ec308c2bc8926eb6b3a088d1a146a5cad1259ebc55b7",
      "s": "0x2d8c1ebb6a3e0fc0574a379d479fec0c34bbbc1d2e57500157a84631225cf490",
      "v": 28,
      "creates": null,
      "raw": "0xf86e820699850ddca114058255f094dd6f935a791f13ce18c10310c688e09cfc4a5d608848bf237ed266beb8801ca0d83a69dd261dc30c1311ec308c2bc8926eb6b3a088d1a146a5cad1259ebc55b7a02d8c1ebb6a3e0fc0574a379d479fec0c34bbbc1d2e57500157a84631225cf490",
      "networkId": 0,
      "chainId": 0
    },
    {
      "hash": "0x2262b584af2fbcf7f39d242bcb6f39c62357a5e8927e97c246a2e6dd1ee865a8",
      "blockHash": "0x23cab3af3a202d150968f2541eae3b4a19380582bada3f823a899ea497c36fe4",
      "blockNumber": 84277,
      "transactionIndex": 13,
      "confirmations": null,
      "from": "0xe6A7a1d47ff21B6321162AEA7C6CB457D5476Bca",
      "gasPrice": {
        "_hex": "0xddca11405"
      },
      "gasLimit": {
        "_hex": "0x55f0"
      },
      "to": "0xa69Dd2F55e5A3d4CB2B4b3eE2f613562b57a1D2F",
      "value": {
        "_hex": "0x492cab8dac2e0620"
      },
      "nonce": 1690,
      "data": "0x",
      "r": "0x238aa5e40c5de5e3f17c43228a42227041e07eea2dcc56966728cddd75348176",
      "s": "0x462ec2a9893624934a75838341d9b2c0274e9d98bf7615b297cc7bbb50992224",
      "v": 28,
      "creates": null,
      "raw": "0xf86e82069a850ddca114058255f094a69dd2f55e5a3d4cb2b4b3ee2f613562b57a1d2f88492cab8dac2e0620801ca0238aa5e40c5de5e3f17c43228a42227041e07eea2dcc56966728cddd75348176a0462ec2a9893624934a75838341d9b2c0274e9d98bf7615b297cc7bbb50992224",
      "networkId": 0,
      "chainId": 0
    },
    {
      "hash": "0xed0b4a5e913fbcbccdeee3813edea664fb39df9846e70c1888637d45e5a8fb80",
      "blockHash": "0x23cab3af3a202d150968f2541eae3b4a19380582bada3f823a899ea497c36fe4",
      "blockNumber": 84277,
      "transactionIndex": 14,
      "confirmations": null,
      "from": "0xe6A7a1d47ff21B6321162AEA7C6CB457D5476Bca",
      "gasPrice": {
        "_hex": "0xdb75e5ce5"
      },
      "gasLimit": {
        "_hex": "0x55f0"
      },
      "to": "0x357A01795bfA480a007fB4B1B6eDf2e8C23f1840",
      "value": {
        "_hex": "0x49b6c36434660d80"
      },
      "nonce": 1691,
      "data": "0x",
      "r": "0x4329ee7a4c46db23a4435972b0409b039ecfb516d6a81494410cf3d55e02b3d0",
      "s": "0x45ba076fd0175a08d81eebd17b71e9a686dbd506257f2b10e679201d67b82714",
      "v": 28,
      "creates": null,
      "raw": "0xf86e82069b850db75e5ce58255f094357a01795bfa480a007fb4b1b6edf2e8c23f18408849b6c36434660d80801ca04329ee7a4c46db23a4435972b0409b039ecfb516d6a81494410cf3d55e02b3d0a045ba076fd0175a08d81eebd17b71e9a686dbd506257f2b10e679201d67b82714",
      "networkId": 0,
      "chainId": 0
    },
    {
      "hash": "0x4132b0b717e03779c8e5ab74913084112ace7f91d0f7c8cb9ceaebe4f856ff89",
      "blockHash": "0x23cab3af3a202d150968f2541eae3b4a19380582bada3f823a899ea497c36fe4",
      "blockNumber": 84277,
      "transactionIndex": 15,
      "confirmations": null,
      "from": "0xe6A7a1d47ff21B6321162AEA7C6CB457D5476Bca",
      "gasPrice": {
        "_hex": "0xdb75e5ce5"
      },
      "gasLimit": {
        "_hex": "0x55f0"
      },
      "to": "0x5A698FA3F55962225Cd42eb7bE1ECA74d666d1b6",
      "value": {
        "_hex": "0x4a2ac55f10744c68"
      },
      "nonce": 1692,
      "data": "0x",
      "r": "0x0155c5a59ef372acae24ca85ef714a64e3f60285832094145fc30a5bd8e31e78",
      "s": "0x5a233d9818fcf7c3363eacacde47fd9f35c00607185c5d35d711debb661339c8",
      "v": 28,
      "creates": null,
      "raw": "0xf86e82069c850db75e5ce58255f0945a698fa3f55962225cd42eb7be1eca74d666d1b6884a2ac55f10744c68801ca00155c5a59ef372acae24ca85ef714a64e3f60285832094145fc30a5bd8e31e78a05a233d9818fcf7c3363eacacde47fd9f35c00607185c5d35d711debb661339c8",
      "networkId": 0,
      "chainId": 0
    },
    {
      "hash": "0x872555bcedf0348fe4ce88372967522124db9b6e19ef0532033edfeced27c939",
      "blockHash": "0x23cab3af3a202d150968f2541eae3b4a19380582bada3f823a899ea497c36fe4",
      "blockNumber": 84277,
      "transactionIndex": 16,
      "confirmations": null,
      "from": "0xe6A7a1d47ff21B6321162AEA7C6CB457D5476Bca",
      "gasPrice": {
        "_hex": "0xdb75e5ce5"
      },
      "gasLimit": {
        "_hex": "0x55f0"
      },
      "to": "0x1463cEF3d9007Db05b7C3B8981D38602EE0D855a",
      "value": {
        "_hex": "0x4ae63152dbe0fea8"
      },
      "nonce": 1693,
      "data": "0x",
      "r": "0x7941b4d2ae8f5c5ddcc4fc6659553dcee7c82d28ae9976bbb6a96d65598769a0",
      "s": "0x31e03a54e69946969e31fcb4cee7b4abd63bbe384b65e21f84dcf9a1b3223f8f",
      "v": 27,
      "creates": null,
      "raw": "0xf86e82069d850db75e5ce58255f0941463cef3d9007db05b7c3b8981d38602ee0d855a884ae63152dbe0fea8801ba07941b4d2ae8f5c5ddcc4fc6659553dcee7c82d28ae9976bbb6a96d65598769a0a031e03a54e69946969e31fcb4cee7b4abd63bbe384b65e21f84dcf9a1b3223f8f",
      "networkId": 0,
      "chainId": 0
    },
    {
      "hash": "0x6816ea553a582b855ac547f66ed4b577c2aaa381d0c6dfd6471e866c57628a00",
      "blockHash": "0x23cab3af3a202d150968f2541eae3b4a19380582bada3f823a899ea497c36fe4",
      "blockNumber": 84277,
      "transactionIndex": 17,
      "confirmations": null,
      "from": "0xe6A7a1d47ff21B6321162AEA7C6CB457D5476Bca",
      "gasPrice": {
        "_hex": "0xdb75e5ce5"
      },
      "gasLimit": {
        "_hex": "0x55f0"
      },
      "to": "0xB5ebc1ED9a468C33fceC311Cf6AAb5d07774F0ea",
      "value": {
        "_hex": "0x4af00c03ccb5dad0"
      },
      "nonce": 1694,
      "data": "0x",
      "r": "0x6b62fddad7666d6b6cc7db0e1b47b946340a91a5b15b039a0e787cc2528008c0",
      "s": "0x34e1ce9300b375735a39fbe2f04f3e0f043f0fcce99d90fe3ac864f66c363a2c",
      "v": 28,
      "creates": null,
      "raw": "0xf86e82069e850db75e5ce58255f094b5ebc1ed9a468c33fcec311cf6aab5d07774f0ea884af00c03ccb5dad0801ca06b62fddad7666d6b6cc7db0e1b47b946340a91a5b15b039a0e787cc2528008c0a034e1ce9300b375735a39fbe2f04f3e0f043f0fcce99d90fe3ac864f66c363a2c",
      "networkId": 0,
      "chainId": 0
    },
    {
      "hash": "0xa01c2ac3381e778c5697f6acda096a0a5211c415ede6c4dc0885634bd0b27673",
      "blockHash": "0x23cab3af3a202d150968f2541eae3b4a19380582bada3f823a899ea497c36fe4",
      "blockNumber": 84277,
      "transactionIndex": 18,
      "confirmations": null,
      "from": "0xe6A7a1d47ff21B6321162AEA7C6CB457D5476Bca",
      "gasPrice": {
        "_hex": "0xd933c9342"
      },
      "gasLimit": {
        "_hex": "0x55f0"
      },
      "to": "0xad7210d76107F888745616FFF7979623b84F928c",
      "value": {
        "_hex": "0x4b34baba3ec66898"
      },
      "nonce": 1695,
      "data": "0x",
      "r": "0xa7529476ca23f5f640f8dfb14e7ce770ddb9e76a72bcaf47e5277b3317340468",
      "s": "0x001d9993b5606382da2ae388338ebb1a8ece67654bc73338ffb92910542f79fc",
      "v": 27,
      "creates": null,
      "raw": "0xf86d82069f850d933c93428255f094ad7210d76107f888745616fff7979623b84f928c884b34baba3ec66898801ba0a7529476ca23f5f640f8dfb14e7ce770ddb9e76a72bcaf47e5277b33173404689f1d9993b5606382da2ae388338ebb1a8ece67654bc73338ffb92910542f79fc",
      "networkId": 0,
      "chainId": 0
    },
    {
      "hash": "0xd5ac5b9f19790be242aafba1893f369fb05c5e5f008fd5745c775b6d8ceb2602",
      "blockHash": "0x23cab3af3a202d150968f2541eae3b4a19380582bada3f823a899ea497c36fe4",
      "blockNumber": 84277,
      "transactionIndex": 19,
      "confirmations": null,
      "from": "0xe6A7a1d47ff21B6321162AEA7C6CB457D5476Bca",
      "gasPrice": {
        "_hex": "0xd933c9342"
      },
      "gasLimit": {
        "_hex": "0x55f0"
      },
      "to": "0x837A2A346557050c8cF0fb24b84Aa695E8Add19f",
      "value": {
        "_hex": "0x4b488c3eb88469c8"
      },
      "nonce": 1696,
      "data": "0x",
      "r": "0x53518f7a32b9f748bb152f260e448415315bb037128cdabeaf9bf0bfebd16185",
      "s": "0x75e952e91a98da68510dbdc08193de7b9ca4d7b5326ef62f166f9be82e98ac08",
      "v": 27,
      "creates": null,
      "raw": "0xf86e8206a0850d933c93428255f094837a2a346557050c8cf0fb24b84aa695e8add19f884b488c3eb88469c8801ba053518f7a32b9f748bb152f260e448415315bb037128cdabeaf9bf0bfebd16185a075e952e91a98da68510dbdc08193de7b9ca4d7b5326ef62f166f9be82e98ac08",
      "networkId": 0,
      "chainId": 0
    },
    {
      "hash": "0xb6c757ef60772c4f80561ae682a74705f4c4ae2732f5e9f1caea140ecb795ddd",
      "blockHash": "0x23cab3af3a202d150968f2541eae3b4a19380582bada3f823a899ea497c36fe4",
      "blockNumber": 84277,
      "transactionIndex": 20,
      "confirmations": null,
      "from": "0xe6A7a1d47ff21B6321162AEA7C6CB457D5476Bca",
      "gasPrice": {
        "_hex": "0xd933c9342"
      },
      "gasLimit": {
        "_hex": "0x55f0"
      },
      "to": "0xD9a9A8ec148D2B0F7Cd8B2700013A9AA5cf89910",
      "value": {
        "_hex": "0x4c080d9b65358e48"
      },
      "nonce": 1697,
      "data": "0x",
      "r": "0x47393e752dc37ce3b5adefacf086acfcf92681393fb0fc377b7f0b61ae7a9e28",
      "s": "0x0226c9ae1b0d73e156805a07a865e67053669090631b486e7398ccf07e7ea81b",
      "v": 27,
      "creates": null,
      "raw": "0xf86e8206a1850d933c93428255f094d9a9a8ec148d2b0f7cd8b2700013a9aa5cf89910884c080d9b65358e48801ba047393e752dc37ce3b5adefacf086acfcf92681393fb0fc377b7f0b61ae7a9e28a00226c9ae1b0d73e156805a07a865e67053669090631b486e7398ccf07e7ea81b",
      "networkId": 0,
      "chainId": 0
    },
    {
      "hash": "0x4766e6e7e37429bd7c2dcc7120dccd5cfc9f6b2e0301b487d466da35cfc59d1d",
      "blockHash": "0x23cab3af3a202d150968f2541eae3b4a19380582bada3f823a899ea497c36fe4",
      "blockNumber": 84277,
      "transactionIndex": 21,
      "confirmations": null,
      "from": "0xe6A7a1d47ff21B6321162AEA7C6CB457D5476Bca",
      "gasPrice": {
        "_hex": "0xd933c9342"
      },
      "gasLimit": {
        "_hex": "0x55f0"
      },
      "to": "0xFCb0b0382b155BE6Dd68dcdB7f29d2366D1C7502",
      "value": {
        "_hex": "0x4c8870f591f7c930"
      },
      "nonce": 1698,
      "data": "0x",
      "r": "0x5b2ec51701579ddfb116a23acd2dab6f528babc1579428fcd4553869e3ffde33",
      "s": "0x7f4b7a6f642e5ca30b6b3244e11fea100e0de3c18ab2f8007f7c3e30041322bf",
      "v": 27,
      "creates": null,
      "raw": "0xf86e8206a2850d933c93428255f094fcb0b0382b155be6dd68dcdb7f29d2366d1c7502884c8870f591f7c930801ba05b2ec51701579ddfb116a23acd2dab6f528babc1579428fcd4553869e3ffde33a07f4b7a6f642e5ca30b6b3244e11fea100e0de3c18ab2f8007f7c3e30041322bf",
      "networkId": 0,
      "chainId": 0
    },
    {
      "hash": "0xa0bf5824079a1dc866708875d786726154ca1844b5bdb54d6bde580fc388b341",
      "blockHash": "0x23cab3af3a202d150968f2541eae3b4a19380582bada3f823a899ea497c36fe4",
      "blockNumber": 84277,
      "transactionIndex": 22,
      "confirmations": null,
      "from": "0xe6A7a1d47ff21B6321162AEA7C6CB457D5476Bca",
      "gasPrice": {
        "_hex": "0xd933c9342"
      },
      "gasLimit": {
        "_hex": "0x55f0"
      },
      "to": "0x0a856CdC3EaFBAD120c51220d0F71d4Aa2Dee7AE",
      "value": {
        "_hex": "0x4ccdfdcf4fd4d348"
      },
      "nonce": 1699,
      "data": "0x",
      "r": "0x4555d28b19cc0ae452b6f150576e507be4d722c3ea68b2fe4c8149af3d634c84",
      "s": "0x40c609aac2bf910ddd66101f1f00ae4a94d13fc423e623ee2765a761c71a09ee",
      "v": 27,
      "creates": null,
      "raw": "0xf86e8206a3850d933c93428255f0940a856cdc3eafbad120c51220d0f71d4aa2dee7ae884ccdfdcf4fd4d348801ba04555d28b19cc0ae452b6f150576e507be4d722c3ea68b2fe4c8149af3d634c84a040c609aac2bf910ddd66101f1f00ae4a94d13fc423e623ee2765a761c71a09ee",
      "networkId": 0,
      "chainId": 0
    },
    {
      "hash": "0xa444f95fc1fcfcbbd2803aea197a51191b49a6ffbc3b7167ff68237d217f2b73",
      "blockHash": "0x23cab3af3a202d150968f2541eae3b4a19380582bada3f823a899ea497c36fe4",
      "blockNumber": 84277,
      "transactionIndex": 23,
      "confirmations": null,
      "from": "0xe6A7a1d47ff21B6321162AEA7C6CB457D5476Bca",
      "gasPrice": {
        "_hex": "0xd933c9342"
      },
      "gasLimit": {
        "_hex": "0x55f0"
      },
      "to": "0x6589D22b54648e5D67Dc008eBd0c836D3DF39c87",
      "value": {
        "_hex": "0x4ceffe2cd3c88968"
      },
      "nonce": 1700,
      "data": "0x",
      "r": "0x337c63349e41ba68b7e0bc0781b662d53be8a6360b330629fd804d920a5453b6",
      "s": "0x2970d6b10933c112abeeb9ebd25f5e58483d52bad81e8323fbcc1b10ab5ff49f",
      "v": 28,
      "creates": null,
      "raw": "0xf86e8206a4850d933c93428255f0946589d22b54648e5d67dc008ebd0c836d3df39c87884ceffe2cd3c88968801ca0337c63349e41ba68b7e0bc0781b662d53be8a6360b330629fd804d920a5453b6a02970d6b10933c112abeeb9ebd25f5e58483d52bad81e8323fbcc1b10ab5ff49f",
      "networkId": 0,
      "chainId": 0
    },
    {
      "hash": "0xa1ad528bfe543582d781c5cd81ee1d49a0148864c7659641e88ac140dcc5e2eb",
      "blockHash": "0x23cab3af3a202d150968f2541eae3b4a19380582bada3f823a899ea497c36fe4",
      "blockNumber": 84277,
      "transactionIndex": 24,
      "confirmations": null,
      "from": "0xe6A7a1d47ff21B6321162AEA7C6CB457D5476Bca",
      "gasPrice": {
        "_hex": "0xd933c9342"
      },
      "gasLimit": {
        "_hex": "0x55f0"
      },
      "to": "0x1333a55102f1f4B3df95298b6CE863eF8d5BAf45",
      "value": {
        "_hex": "0x4d12b3c24c564380"
      },
      "nonce": 1701,
      "data": "0x",
      "r": "0xf46e1098bbba1cc3638e88d95bf07c8a05cff739b89a5719e1fa99b48e6de518",
      "s": "0x259fcbe80c92ed228a173a551677d5df22574034a07b7666ec008591d3ac12d4",
      "v": 27,
      "creates": null,
      "raw": "0xf86e8206a5850d933c93428255f0941333a55102f1f4b3df95298b6ce863ef8d5baf45884d12b3c24c564380801ba0f46e1098bbba1cc3638e88d95bf07c8a05cff739b89a5719e1fa99b48e6de518a0259fcbe80c92ed228a173a551677d5df22574034a07b7666ec008591d3ac12d4",
      "networkId": 0,
      "chainId": 0
    },
    {
      "hash": "0xb7c7f42a36b5d7629722c0363d382006c7364986375e8401c090a8e0709f538a",
      "blockHash": "0x23cab3af3a202d150968f2541eae3b4a19380582bada3f823a899ea497c36fe4",
      "blockNumber": 84277,
      "transactionIndex": 25,
      "confirmations": null,
      "from": "0xe6A7a1d47ff21B6321162AEA7C6CB457D5476Bca",
      "gasPrice": {
        "_hex": "0xd933c9342"
      },
      "gasLimit": {
        "_hex": "0x55f0"
      },
      "to": "0x19aF4b2766b8115B49E1fd31Ae71CaA12E706A96",
      "value": {
        "_hex": "0x4d24aeefe7424378"
      },
      "nonce": 1702,
      "data": "0x",
      "r": "0x00d32501eb41e28a75b1ec32cac939e9f6ef5216aaa6ad1994fe086ca8e41691",
      "s": "0x798b8a072a1aed8cbf4556e33020b878e7548267e50d756c8152642dcc77f8ce",
      "v": 27,
      "creates": null,
      "raw": "0xf86d8206a6850d933c93428255f09419af4b2766b8115b49e1fd31ae71caa12e706a96884d24aeefe7424378801b9fd32501eb41e28a75b1ec32cac939e9f6ef5216aaa6ad1994fe086ca8e41691a0798b8a072a1aed8cbf4556e33020b878e7548267e50d756c8152642dcc77f8ce",
      "networkId": 0,
      "chainId": 0
    }
  ]
}