{
  "hash": "0x02616241328f65783811fdf8f1d4adfd73f4a9c01f82981cc1122590025bed16",
  "parentHash": "0x67ca63b7ea24ff19fd49f7bdc08a296d8a436262f4e4f57dad657064823016aa",
  "number": 47720,
  "timestamp": 1438945339,
  "nonce": "0x643cdd6cd6a58eea",
  "difficulty": 1443135370210,
  "gasLimit": {
    "_hex": "0xe91b"
  },
  "gasUsed": {
    "_hex": "0x5208"
  },
  "miner": "0x9746c7e1ef2bd21FF3997fa467593a89cb852BD0",
  "extraData": "0x476574682f76312e302e312f77696e646f77732f676f312e342e32",
  "transactions": [
    {
      "hash": "0x7f9155fa819936a564402394d6f9972dec5cf4e6c380f7a037e71575fda26502",
      "blockHash": "0x02616241328f65783811fdf8f1d4adfd73f4a9c01f82981cc1122590025bed16",
      "blockNumber": 47720,
      "transactionIndex": 0,
      "confirmations": null,
      "from": "0xe6A7a1d47ff21B6321162AEA7C6CB457D5476Bca",
      "gasPrice": {
        "_hex": "0xcdaaec7e1"
      },
      "gasLimit": {
        "_hex": "0x55f0"
      },
      "to": "0xA6C45aF12785c7c425684AD94576184afe192c05",
      "value": {
        "_hex": "0x643569683da5bcf90"
      },
      "nonce": 223,
      "data": "0x",
      "r": "0x13fe22da6954925c2062af6022564b95df5526def89beca544d656f214943c62",
      "s": "0x541348a9a6e3ccc54cc63803f1250ec50eaa368b565ea7b3eb92311aee39549f",
      "v": 27,
      "creates": null,
      "raw": "0xf86e81df850cdaaec7e18255f094a6c45af12785c7c425684ad94576184afe192c05890643569683da5bcf90801ba013fe22da6954925c2062af6022564b95df5526def89beca544d656f214943c62a0541348a9a6e3ccc54cc63803f1250ec50eaa368b565ea7b3eb92311aee39549f",
      "networkId": 0,
      "chainId": 0
    }
  ]
}