{
  "hash": "0x86a270ce225926c4380cd1777c680c9d4498a540f71566a19532d8a2f45baddc",
  "parentHash": "0xfd54f77c67d4d326213c5392073e56002645b4afa2b424eef3c77066e1c8a190",
  "number": 93522,
  "timestamp": 1439692102,
  "nonce": "0xef61b9cf892da80d",
  "difficulty": 3490447696312,
  "gasLimit": {
    "_hex": "0x2fefd8"
  },
  "gasUsed": {
    "_hex": "0xa410"
  },
  "miner": "0x33F36DffD23cf019833E1d59cBc7138824b12289",
  "extraData": "0xda8098302e392e34312b2b302d524c696e75782f672b2b2f696e74",
  "transactions": [
    {
      "hash": "0xaac7b7af73b2ceb9104fed83808a4509cd02ab062caf42e3147b54cbb2843730",
      "blockHash": "0x86a270ce225926c4380cd1777c680c9d4498a540f71566a19532d8a2f45baddc",
      "blockNumber": 93522,
      "transactionIndex": 0,
      "confirmations": null,
      "from": "0xBFdD9820a04283b289957956353b5F3C1F665EcF",
      "gasPrice": {
        "_hex": "0xcd1765a4c"
      },
      "gasLimit": {
        "_hex": "0x5208"
      },
      "to": "0x32Be343B94f860124dC4fEe278FDCBD38C102D88",
      "value": {
        "_hex": "0x2707c0215ee9d2000"
      },
      "nonce": 42,
      "data": "0x",
      "r": "0x732b97e072d7b385d41064ffcfb92f64296437b28c4f697e0e65a8fc9866e641",
      "s": "0x0d3e2c2ca3afe9bbc249326573263648ae1c35a9f54394cb9101c244c0e7dfd4",
      "v": 27,
      "creates": null,
      "raw": "0xf86d2a850cd1765a4c8252089432be343b94f860124dc4fee278fdcbd38c102d888902707c0215ee9d2000801ba0732b97e072d7b385d41064ffcfb92f64296437b28c4f697e0e65a8fc9866e641a00d3e2c2ca3afe9bbc249326573263648ae1c35a9f54394cb9101c244c0e7dfd4",
      "networkId": 0,
      "chainId": 0
    },
    {
      "hash": "0xa8df223d48ed27de5a0982f759f853fae957398c7b9f8c56235b7a7c0fb35686",
      "blockHash": "0x86a270ce225926c4380cd1777c680c9d4498a540f71566a19532d8a2f45baddc",
      "blockNumber": 93522,
      "transactionIndex": 1,
      "confirmations": null,
      "from": "0xf2cC0eEAAAeD313542CB262B0B8c3972425143f0",
      "gasPrice": {
        "_hex": "0xcd1765a4c"
      },
      "gasLimit": {
        "_hex": "0x5208"
      },
      "to": "0x32Be343B94f860124dC4fEe278FDCBD38C102D88",
      "value": {
        "_hex": "0x453bef11573c2c00"
      },
      "nonce": 9,
      "data": "0x",
      "r": "0xacf1a4ce975a9ee394d233b2c1543970872f881b1ff00d0c8a5044cb1263fcf9",
      "s": "0x1048c989ba29d2b55cd638fd4bc4cc730af771188d0e89ac060cc1f3db85d843",
      "v": 27,
      "creates": null,
      "raw": "0xf86c09850cd1765a4c8252089432be343b94f860124dc4fee278fdcbd38c102d8888453bef11573c2c00801ba0acf1a4ce975a9ee394d233b2c1543970872f881b1ff00d0c8a5044cb1263fcf9a01048c989ba29d2b55cd638fd4bc4cc730af771188d0e89ac060cc1f3db85d843",
      "networkId": 0,
      "chainId": 0
    }
  ]
}