{
  "hash": "0x2ede842b159c78205d4671967d47e7e5dcfaaba8c79b079cfab089bc236d9ee4",
  "parentHash": "0x33ef28a35cba842a8050121fd50280cb1384cf978419a7c0d17dfff3269a993b",
  "number": 112424,
  "timestamp": 1440007285,
  "nonce": "0x73b9e347a5c0dcce",
  "difficulty": 4406709626871,
  "gasLimit": {
    "_hex": "0x2fefd8"
  },
  "gasUsed": {
    "_hex": "0x5208"
  },
  "miner": "0xe6A7a1d47ff21B6321162AEA7C6CB457D5476Bca",
  "extraData": "0x476574682f76312e302e312d38326566323666362f6c696e75782f676f312e34",
  "transactions": [
    {
      "hash": "0xb1afed958d76c9e4510c7f3164e503b41747ffdcea848f1142b020a68f1238dd",
      "blockHash": "0x2ede842b159c78205d4671967d47e7e5dcfaaba8c79b079cfab089bc236d9ee4",
      "blockNumber": 112424,
      "transactionIndex": 0,
      "confirmations": null,
      "from": "0x7fa165177F28D171bA7C17f765c1904344Ec64CB",
      "gasPrice": {
        "_hex": "0xe0319398c"
      },
      "gasLimit": {
        "_hex": "0x5208"
      },
      "to": "0x32Be343B94f860124dC4fEe278FDCBD38C102D88",
      "value": {
        "_hex": "0x30396d89d55346000"
      },
      "nonce": 25,
      "data": "0x",
      "r": "0x54cc9c841337253a7746a3be8f158200eb31dd0601a7a02c32ee337d5e46385e",
      "s": "0x3da01a1b0aec8933b88a4c253f49308575af1463372d1c6c5e9cb71bf693d105",
      "v": 27,
      "creates": null,
      "raw": "0xf86d19850e0319398c8252089432be343b94f860124dc4fee278fdcbd38c102d8889030396d89d55346000801ba054cc9c841337253a7746a3be8f158200eb31dd0601a7a02c32ee337d5e46385ea03da01a1b0aec8933b88a4c253f49308575af1463372d1c6c5e9cb71bf693d105",
      "networkId": 0,
      "chainId": 0
    }
  ]
}