{
  "hash": "0x042694ef06e0252cd4f51cbbebb551632209d4efceb900d85754aa7c1e940e05",
  "parentHash": "0x0d60fe234a42604727b1c3b41c3dfc3a7cc73b3cc1554024689a16ce148762de",
  "number": 47340,
  "timestamp": 1438938515,
  "nonce": "0x16ae443682632419",
  "difficulty": 1451681822728,
  "gasLimit": {
    "_hex": "0xb182"
  },
  "gasUsed": {
    "_hex": "0x5208"
  },
  "miner": "0x3222BA3F3e79eA0e31467EEE7639B57923558cCD",
  "extraData": "0x476574682f76312e302e302f77696e646f77732f676f312e342e32",
  "transactions": [
    {
      "hash": "0x109143e1d472201b04eead5b37ddba458bee79dd01efc2e433c909d6bdd67b96",
      "blockHash": "0x042694ef06e0252cd4f51cbbebb551632209d4efceb900d85754aa7c1e940e05",
      "blockNumber": 47340,
      "transactionIndex": 0,
      "confirmations": null,
      "from": "0xe6A7a1d47ff21B6321162AEA7C6CB457D5476Bca",
      "gasPrice": {
        "_hex": "0x1281ae53ab"
      },
      "gasLimit": {
        "_hex": "0x5208"
      },
      "to": "0x3D4e0cCd5BeefBa5131A2DAb7E019c6A7928F32e",
      "value": {
        "_hex": "0xcf6e55378cb5c5a0"
      },
      "nonce": 114,
      "data": "0x",
      "r": "0xfe7532457a26631a11c167c852f57c7c1f34d3f02bf4b16d0c4bf4da9f3e2690",
      "s": "0x1257ed468da60cb8c649293515b8ea9f89ab93983506f3fa3cd51e676b939cb4",
      "v": 27,
      "creates": null,
      "raw": "0xf86c72851281ae53ab825208943d4e0ccd5beefba5131a2dab7e019c6a7928f32e88cf6e55378cb5c5a0801ba0fe7532457a26631a11c167c852f57c7c1f34d3f02bf4b16d0c4bf4da9f3e2690a01257ed468da60cb8c649293515b8ea9f89ab93983506f3fa3cd51e676b939cb4",
      "networkId": 0,
      "chainId": 0
    }
  ]
}