{
  "hash": "0x92454f81f152e674868797d7076c796e21877e5ffc088ddd25335438bc48aaf3",
  "parentHash": "0x5566f214e85e62f8f07d19e67246c38a31a10c14145a3a014a2100981233d642",
  "number": 119363,
  "timestamp": 1440141564,
  "nonce": "0x0de33f858f3ef137",
  "difficulty": 4409520463568,
  "gasLimit": {
    "_hex": "0x2fefd8"
  },
  "gasUsed": {
    "_hex": "0x38658"
  },
  "miner": "0x8df03bD37602d97980327B58D940258dC57007B3",
  "extraData": "0x",
  "transactions": [
    {
      "hash": "0xea086e8092dde85eaa51600bb63ebab6dfaaa5e6bbfb8ff9e36c53c78faf669a",
      "blockHash": "0x92454f81f152e674868797d7076c796e21877e5ffc088ddd25335438bc48aaf3",
      "blockNumber": 119363,
      "transactionIndex": 0,
      "confirmations": null,
      "from": "0x6589D22b54648e5D67Dc008eBd0c836D3DF39c87",
      "gasPrice": {
        "_hex": "0xba43b7400"
      },
      "gasLimit": {
        "_hex": "0x5208"
      },
      "to": "0x32Be343B94f860124dC4fEe278FDCBD38C102D88",
      "value": {
        "_hex": "0x32406c799dca4400"
      },
      "nonce": 12,
      "data": "0x",
      "r": "0x14c34508e796a69d1431b13f413a54b867930ab6dc528a04a04ac1571faa8568",
      "s": "0x1fadc6eebf4c162eda66b2f2953a7d195b09b719461114eaba7288b6819c7b84",
      "v": 27,
      "creates": null,
      "raw": "0xf86c0c850ba43b74008252089432be343b94f860124dc4fee278fdcbd38c102d888832406c799dca4400801ba014c34508e796a69d1431b13f413a54b867930ab6dc528a04a04ac1571faa8568a01fadc6eebf4c162eda66b2f2953a7d195b09b719461114eaba7288b6819c7b84",
      "networkId": 0,
      "chainId": 0
    },
    {
      "hash": "0x6c10a9d02a75aa0e8decd35f516aff8b2f9a7cf37c9c99266c2df44acf865559",
      "blockHash": "0x92454f81f152e674868797d7076c796e21877e5ffc088ddd25335438bc48aaf3",
      "blockNumber": 119363,
      "transactionIndex": 1,
      "confirmations": null,
      "from": "0xE6D67E3661E28eE2DfC1c68D5DeeA3C3bB880059",
      "gasPrice": {
        "_hex": "0xba43b7400"
      },
      "gasLimit": {
        "_hex": "0x5208"
      },
      "to": "0x32Be343B94f860124dC4fEe278FDCBD38C102D88",
      "value": {
        "_hex": "0x49f3f4de5d9e4800"
      },
      "nonce": 13,
      "data": "0x",
      "r": "0xf03dee789c3b9382acfa04d9e328fec3889d75add2c329173ae854bdd80e0e57",
      "s": "0x607f8a457e58e2b5acfe93bdf894039d164a4ddee790ad5ed595b4ec447b275a",
      "v": 28,
      "creates": null,
      "raw": "0xf86c0d850ba43b74008252089432be343b94f860124dc4fee278fdcbd38c102d888849f3f4de5d9e4800801ca0f03dee789c3b9382acfa04d9e328fec3889d75add2c329173ae854bdd80e0e57a0607f8a457e58e2b5acfe93bdf894039d164a4ddee790ad5ed595b4ec447b275a",
      "networkId": 0,
      "chainId": 0
    },
    {
      "hash": "0x31ae800d1affe47df9e2a8a849e78653e030c64528104e40f816c617c4712e4b",
      "blockHash": "0x92454f81f152e674868797d7076c796e21877e5ffc088ddd25335438bc48aaf3",
      "blockNumber": 119363,
      "transactionIndex": 2,
      "confirmations": null,
      "from": "0x3cD73157C6a0aB907B9dFe60F75c74Bb99D98e7b",
      "gasPrice": {
        "_hex": "0xba43b7400"
      },
      "gasLimit": {
        "_hex": "0x5208"
      },
      "to": "0x32Be343B94f860124dC4fEe278FDCBD38C102D88",
      "value": {
        "_hex": "0x4eef3931b2501800"
      },
      "nonce": 6,
      "data": "0x",
      "r": "0x1badf00fb1dd01a5ad786f45d33c3ccada258f538e1c9efab59f0f61ba2f2dfe",
      "s": "0x79ccb6f16145096c33ba3247833281b995b6e1b69c44406c0a05c7c0be7ef13a",
      "v": 27,
      "creates": null,
      "raw": "0xf86c06850ba43b74008252089432be343b94f860124dc4fee278fdcbd38c102d88884eef3931b2501800801ba01badf00fb1dd01a5ad786f45d33c3ccada258f538e1c9efab59f0f61ba2f2dfea079ccb6f16145096c33ba3247833281b995b6e1b69c44406c0a05c7c0be7ef13a",
      "networkId": 0,
      "chainId": 0
    },
    {
      "hash": "0x2c8aa4ee43767e1f5c5d5fde1a61c816183501fc4a4ab2906dca6a552596fb42",
      "blockHash": "0x92454f81f152e674868797d7076c796e21877e5ffc088ddd25335438bc48aaf3",
      "blockNumber": 119363,
      "transactionIndex": 3,
      "confirmations": null,
      "from": "0x97A2b04809Fd7Dfa5C1d7B25e38Aad46964330F5",
      "gasPrice": {
        "_hex": "0xba43b7400"
      },
      "gasLimit": {
        "_hex": "0x15f90"
      },
      "to": "0xff8f61dC709E5782Dee998189520cb544177BB65",
      "value": {
        "_hex": "0x38d7ea4c68000"
      },
      "nonce": 4,
      "data": "0x",
      "r": "0xf9154b7e10c2e2fc6a9e0bebc1a9493c2b875151e54285d003de4e5cb5219226",
      "s": "0x139812158e6b1b48c7d0bdbbe0d9652e610ac07e2cf1ae5c3a124f7be4441e84",
      "v": 28,
      "creates": null,
      "raw": "0xf86c04850ba43b740083015f9094ff8f61dc709e5782dee998189520cb544177bb6587038d7ea4c68000801ca0f9154b7e10c2e2fc6a9e0bebc1a9493c2b875151e54285d003de4e5cb5219226a0139812158e6b1b48c7d0bdbbe0d9652e610ac07e2cf1ae5c3a124f7be4441e84",
      "networkId": 0,
      "chainId": 0
    },
    {
      "hash": "0x934e3482e7fb431f141eac7c971b5e8f12cc5162588b60360d546500ebcf3ace",
      "blockHash": "0x92454f81f152e674868797d7076c796e21877e5ffc088ddd25335438bc48aaf3",
      "blockNumber": 119363,
      "transactionIndex": 4,
      "confirmations": null,
      "from": "0x52292dB8B133f37fDA9D9F4E996A3140b41E7634",
      "gasPrice": {
        "_hex": "0xba43b7400"
      },
      "gasLimit": {
        "_hex": "0x15f90"
      },
      "to": "0x23f2D0fd3B4C98Fb1698564deB4898275E2e831f",
      "value": {
        "_hex": "0x9b6e64a8ec60000"
      },
      "nonce": 3,
      "data": "0x",
      "r": "0x0acc8835dea26eea8854e3f44cdf2bbc3b10ea0af2dd5f64bf97c5c6cbd3b14b",
      "s": "0x2a09f017b7ab0cb75248d70ee22c8d725b271b56a4982f950b9bce21f77003a9",
      "v": 28,
      "creates": null,
      "raw": "0xf86d03850ba43b740083015f909423f2d0fd3b4c98fb1698564deb4898275e2e831f8809b6e64a8ec60000801ca00acc8835dea26eea8854e3f44cdf2bbc3b10ea0af2dd5f64bf97c5c6cbd3b14ba02a09f017b7ab0cb75248d70ee22c8d725b271b56a4982f950b9bce21f77003a9",
      "networkId": 0,
      "chainId": 0
    },
    {
      "hash": "0x92eaa178fa88670931a521535526e9998a44cc9e29d191e3f50639d3cbf1d57e",
      "blockHash": "0x92454f81f152e674868797d7076c796e21877e5ffc088ddd25335438bc48aaf3",
      "blockNumber": 119363,
      "transactionIndex": 5,
      "confirmations": null,
      "from": "0xb7B3690EFa6b3f08D4EC289fF655C4b7bb15EE39",
      "gasPrice": {
        "_hex": "0xba43b7400"
      },
      "gasLimit": {
        "_hex": "0x5208"
      },
      "to": "0x32Be343B94f860124dC4fEe278FDCBD38C102D88",
      "value": {
        "_hex": "0x29b3aaa232cd6c00"
      },
      "nonce": 11,
      "data": "0x",
      "r": "0x063728ef46c136b0ab3b21ab087cc54aea96905736f32c9132d0b22a49ba1d1a",
      "s": "0x124384091c9fb99986d1a01974d7c621d67488582562acfa7500744f4a1a1475",
      "v": 27,
      "creates": null,
      "raw": "0xf86c0b850ba43b74008252089432be343b94f860124dc4fee278fdcbd38c102d888829b3aaa232cd6c00801ba0063728ef46c136b0ab3b21ab087cc54aea96905736f32c9132d0b22a49ba1d1aa0124384091c9fb99986d1a01974d7c621d67488582562acfa7500744f4a1a1475",
      "networkId": 0,
      "chainId": 0
    },
    {
      "hash": "0xcdaf2135a8f7c196b5104008cb547d5fddd4fb719fbf91a3ecf2c7d96f50fec7",
      "blockHash": "0x92454f81f152e674868797d7076c796e21877e5ffc088ddd25335438bc48aaf3",
      "blockNumber": 119363,
      "transactionIndex": 6,
      "confirmations": null,
      "from": "0x19aF4b2766b8115B49E1fd31Ae71CaA12E706A96",
      "gasPrice": {
        "_hex": "0xba43b7400"
      },
      "gasLimit": {
        "_hex": "0x5208"
      },
      "to": "0x32Be343B94f860124dC4fEe278FDCBD38C102D88",
      "value": {
        "_hex": "0x4250deee5df4c000"
      },
      "nonce": 12,
      "data": "0x",
      "r": "0x5ad8f084f85f7c3991694796eedceb29b84f28aacfad90d273470942668b117a",
      "s": "0x0a81441fd67c794f0bfc6d35fa7ce570ec56bea63d513eb5b832d01f508687a2",
      "v": 28,
      "creates": null,
      "raw": "0xf86c0c850ba43b74008252089432be343b94f860124dc4fee278fdcbd38c102d88884250deee5df4c000801ca05ad8f084f85f7c3991694796eedceb29b84f28aacfad90d273470942668b117aa00a81441fd67c794f0bfc6d35fa7ce570ec56bea63d513eb5b832d01f508687a2",
      "networkId": 0,
      "chainId": 0
    },
    {
      "hash": "0xfe8644050729411f5ae884323cfc58cbbd311b2474b8155522c37f95bf9076f6",
      "blockHash": "0x92454f81f152e674868797d7076c796e21877e5ffc088ddd25335438bc48aaf3",
      "blockNumber": 119363,
      "transactionIndex": 7,
      "confirmations": null,
      "from": "0x702bD0d370bBf0B97B66FE95578c62697c583393",
      "gasPrice": {
        "_hex": "0xba43b7400"
      },
      "gasLimit": {
        "_hex": "0x5208"
      },
      "to": "0x32Be343B94f860124dC4fEe278FDCBD38C102D88",
      "value": {
        "_hex": "0x55f328f3c44b5800"
      },
      "nonce": 12,
      "data": "0x",
      "r": "0x22690c15089ff76533cde5841f35a00423fb6b621ed0ac6e187f69fd8ba8d373",
      "s": "0x55be1ef2a3ccdb55daa44dcb443a7a1b128becf3e05d5264f832734221628402",
      "v": 27,
      "creates": null,
      "raw": "0xf86c0c850ba43b74008252089432be343b94f860124dc4fee278fdcbd38c102d888855f328f3c44b5800801ba022690c15089ff76533cde5841f35a00423fb6b621ed0ac6e187f69fd8ba8d373a055be1ef2a3ccdb55daa44dcb443a7a1b128becf3e05d5264f832734221628402",
      "networkId": 0,
      "chainId": 0
    },
    {
      "hash": "0x03f6b9f7f333a644ef850b7a33135dc45c03166f221bc0a895ae21ad536b7bb2",
      "blockHash": "0x92454f81f152e674868797d7076c796e21877e5ffc088ddd25335438bc48aaf3",
      "blockNumber": 119363,
      "transactionIndex": 8,
      "confirmations": null,
      "from": "0x99181ED48C7c51532622dA23e20E2B38392476A7",
      "gasPrice": {
        "_hex": "0xba43b7400"
      },
      "gasLimit": {
        "_hex": "0x5208"
      },
      "to": "0x32Be343B94f860124dC4fEe278FDCBD38C102D88",
      "value": {
        "_hex": "0x32c9fc4860603000"
      },
      "nonce": 16,
      "data": "0x",
      "r": "0x3061b2e69c2c0bafccb0b83fdc3447222c946b94856dd27d07095adef0fb74a4",
      "s": "0x3d29f587545afb77bb5c0fecb17a44ead6308cc601c4835d7a1f03aa02488b75",
      "v": 28,
      "creates": null,
      "raw": "0xf86c10850ba43b74008252089432be343b94f860124dc4fee278fdcbd38c102d888832c9fc4860603000801ca03061b2e69c2c0bafccb0b83fdc3447222c946b94856dd27d07095adef0fb74a4a03d29f587545afb77bb5c0fecb17a44ead6308cc601c4835d7a1f03aa02488b75",
      "networkId": 0,
      "chainId": 0
    },
    {
      "hash": "0xd4ab763550482159d472388481f8d157d67760ec2a04e4bb8228590c710e4c77",
      "blockHash": "0x92454f81f152e674868797d7076c796e21877e5ffc088ddd25335438bc48aaf3",
      "blockNumber": 119363,
      "transactionIndex": 9,
      "confirmations": null,
      "from": "0x61E20833179bA2eCCc2065e5F733CC8CdA7394c0",
      "gasPrice": {
        "_hex": "0xba43b7400"
      },
      "gasLimit": {
        "_hex": "0x5208"
      },
      "to": "0x32Be343B94f860124dC4fEe278FDCBD38C102D88",
      "value": {
        "_hex": "0x4a25aac5ec9db800"
      },
      "nonce": 11,
      "data": "0x",
      "r": "0x8895f530b8a30e434411959b8cf8522c1102c385b87080b46d91f4d5d48469cd",
      "s": "0x454cf8d82151f8bf969564fa98aa00d0e8a02b01e2a18749d1a72e6ea7aab80d",
      "v": 28,
      "creates": null,
      "raw": "0xf86c0b850ba43b74008252089432be343b94f860124dc4fee278fdcbd38c102d88884a25aac5ec9db800801ca08895f530b8a30e434411959b8cf8522c1102c385b87080b46d91f4d5d48469cda0454cf8d82151f8bf969564fa98aa00d0e8a02b01e2a18749d1a72e6ea7aab80d",
      "networkId": 0,
      "chainId": 0
    },
    {
      "hash": "0x813cd09e395f6651340d1693b7400473ab5cfea67e4f828dbb49c1def7355e5c",
      "blockHash": "0x92454f81f152e674868797d7076c796e21877e5ffc088ddd25335438bc48aaf3",
      "blockNumber": 119363,
      "transactionIndex": 10,
      "confirmations": null,
      "from": "0xC8E61bFB4846B622B084B98Bc586388aFCb70d5F",
      "gasPrice": {
        "_hex": "0xba43b7400"
      },
      "gasLimit": {
        "_hex": "0x5208"
      },
      "to": "0x32Be343B94f860124dC4fEe278FDCBD38C102D88",
      "value": {
        "_hex": "0x52d298535b40a800"
      },
      "nonce": 12,
      "data": "0x",
      "r": "0x1f9431194740302ce4840bf08c39ac684c856ce4babc6c28c4287970523a3df7",
      "s": "0x284ffe32a36a6edcde7053e2ec3f81ae5192d14d36fa2f431c733aa5e2f71d65",
      "v": 28,
      "creates": null,
      "raw": "0xf86c0c850ba43b74008252089432be343b94f860124dc4fee278fdcbd38c102d888852d298535b40a800801ca01f9431194740302ce4840bf08c39ac684c856ce4babc6c28c4287970523a3df7a0284ffe32a36a6edcde7053e2ec3f81ae5192d14d36fa2f431c733aa5e2f71d65",
      "networkId": 0,
      "chainId": 0
    }
  ]
}