{
  "hash": "0xfa88c46c92fea58adef4cf876a8b47039044ca3c7b181b66f7240a5a32bc526a",
  "parentHash": "0x6e4d352e5cd7a6e35db57c3cdf46d1ac16fbd91ffd9834f31c60e2909ce3c9d2",
  "number": 54760,
  "timestamp": 1439059579,
  "nonce": "0xfa3009f4ccfbf026",
  "difficulty": 1621199589867,
  "gasLimit": {
    "_hex": "0x2fefd8"
  },
  "gasUsed": {
    "_hex": "0x5208"
  },
  "miner": "0x1D889aFF5D57138c9819412d63b5d877567B5936",
  "extraData": "0x476574682f76312e302e312f77696e646f77732f676f312e342e32",
  "transactions": [
    {
      "hash": "0xb6ee6eae5c1f4d18b8d14d9545f8a52f84ef08fd663c71f371c92d5bcdec704a",
      "blockHash": "0xfa88c46c92fea58adef4cf876a8b47039044ca3c7b181b66f7240a5a32bc526a",
      "blockNumber": 54760,
      "transactionIndex": 0,
      "confirmations": null,
      "from": "0xCdA1B886e3A795c9BA77914e0A2fe5676F0F5cCF",
      "gasPrice": {
        "_hex": "0xd7db72f24"
      },
      "gasLimit": {
        "_hex": "0x15f90"
      },
      "to": "0x4278273854a158e72fcf5E752fD5fDA7238eBea8",
      "value": {
        "_hex": "0xde0b6b3a7640000"
      },
      "nonce": 0,
      "data": "0x",
      "r": "0xaa167a78dffb252ee867acad1a603f4ce49a409e448312d98326b1132904b106",
      "s": "0x1939c65ce0d135dc9e5e352db4af5a87acf8929d73519109af4b6b363ae7df64",
      "v": 28,
      "creates": null,
      "raw": "0xf86d80850d7db72f2483015f90944278273854a158e72fcf5e752fd5fda7238ebea8880de0b6b3a7640000801ca0aa167a78dffb252ee867acad1a603f4ce49a409e448312d98326b1132904b106a01939c65ce0d135dc9e5e352db4af5a87acf8929d73519109af4b6b363ae7df64",
      "networkId": 0,
      "chainId": 0
    }
  ]
}