{
  "hash": "0x813b6152840dc456d515c373a40879d6f6c91780bfda906272c8376b424a7466",
  "parentHash": "0x940055ce4447e822bb81b4663f7581725893f322985c90ed408b07fef796fa83",
  "number": 79899,
  "timestamp": 1439476990,
  "nonce": "0x35adfb5601524df9",
  "difficulty": 2348330724715,
  "gasLimit": {
    "_hex": "0x2fefd8"
  },
  "gasUsed": {
    "_hex": "0x14820"
  },
  "miner": "0x55bAf64fc9eAccFFd7Cc643BB61142E1C6ac093e",
  "extraData": "0x",
  "transactions": [
    {
      "hash": "0x6562bdaa9749f641208725816c4903481b92896c8ede8cbaffa77c8bcb720db7",
      "blockHash": "0x813b6152840dc456d515c373a40879d6f6c91780bfda906272c8376b424a7466",
      "blockNumber": 79899,
      "transactionIndex": 0,
      "confirmations": null,
      "from": "0xf2881e3e520bF84469Fa00a56449D357FB1af54A",
      "gasPrice": {
        "_hex": "0xda564515d"
      },
      "gasLimit": {
        "_hex": "0x5208"
      },
      "to": "0x32Be343B94f860124dC4fEe278FDCBD38C102D88",
      "value": {
        "_hex": "0x15c50bd9bc183e000"
      },
      "nonce": 5,
      "data": "0x",
      "r": "0x029b3dc462cdd5b2332836ece6c049ac1c2ddd7b4069604d6fff885bcbaaac03",
      "s": "0x5766f3dcce96a1fb158ad0fdfe09cc76c22fe1fde528c21a983cca03c445b15c",
      "v": 27,
      "creates": null,
      "raw": "0xf86d05850da564515d8252089432be343b94f860124dc4fee278fdcbd38c102d8889015c50bd9bc183e000801ba0029b3dc462cdd5b2332836ece6c049ac1c2ddd7b4069604d6fff885bcbaaac03a05766f3dcce96a1fb158ad0fdfe09cc76c22fe1fde528c21a983cca03c445b15c",
      "networkId": 0,
      "chainId": 0
    },
    {
      "hash": "0xe7c3d22581250cfbc971ac427db07d5ec4e9595c70937bd4151df764551ed84a",
      "blockHash": "0x813b6152840dc456d515c373a40879d6f6c91780bfda906272c8376b424a7466",
      "blockNumber": 79899,
      "transactionIndex": 1,
      "confirmations": null,
      "from": "0x98f2c2754c77b49993EEA4Dcd2D9ABa71B696B60",
      "gasPrice": {
        "_hex": "0xda564515d"
      },
      "gasLimit": {
        "_hex": "0x5208"
      },
      "to": "0x32Be343B94f860124dC4fEe278FDCBD38C102D88",
      "value": {
        "_hex": "0x8ac2c39c951de000"
      },
      "nonce": 1,
      "data": "0x",
      "r": "0xd3f2a1fe2bbc269e0ce4da5de3a872f9d6193df77f258e60a6bbf1d649cd2c6d",
      "s": "0x2950880bd05481dbd59a5aa6ea159febbfb2539f6a9978727b1e0ee54e358861",
      "v": 28,
      "creates": null,
      "raw": "0xf86c01850da564515d8252089432be343b94f860124dc4fee278fdcbd38c102d88888ac2c39c951de000801ca0d3f2a1fe2bbc269e0ce4da5de3a872f9d6193df77f258e60a6bbf1d649cd2c6da02950880bd05481dbd59a5aa6ea159febbfb2539f6a9978727b1e0ee54e358861",
      "networkId": 0,
      "chainId": 0
    },
    {
      "hash": "0x4440560debe44ff401a482d86512e2f8253aaed60233a98c6057d005f9968beb",
      "blockHash": "0x813b6152840dc456d515c373a40879d6f6c91780bfda906272c8376b424a7466",
      "blockNumber": 79899,
      "transactionIndex": 2,
      "confirmations": null,
      "from": "0xa6BDc31c431B8F97848c9D60cbbe9660dc450eB7",
      "gasPrice": {
        "_hex": "0xda564515d"
      },
      "gasLimit": {
        "_hex": "0x5208"
      },
      "to": "0x32Be343B94f860124dC4fEe278FDCBD38C102D88",
      "value": {
        "_hex": "0x8d4f6228d3d2c000"
      },
      "nonce": 38,
      "data": "0x",
      "r": "0x5eebde66204c9be1f81e9a4de83596f6186889dd98c4952114309425769a2977",
      "s": "0x3dc2cfaf475bb22a7d2c91525c23242d631a407f4600c33a768d8dec3b705ce9",
      "v": 27,
      "creates": null,
      "raw": "0xf86c26850da564515d8252089432be343b94f860124dc4fee278fdcbd38c102d88888d4f6228d3d2c000801ba05eebde66204c9be1f81e9a4de83596f6186889dd98c4952114309425769a2977a03dc2cfaf475bb22a7d2c91525c23242d631a407f4600c33a768d8dec3b705ce9",
      "networkId": 0,
      "chainId": 0
    },
    {
      "hash": "0x57f60d102a5cc3ed6d70c5cecf137c0d26d485d27cb2ebc64d6c1c7624d01d7b",
      "blockHash": "0x813b6152840dc456d515c373a40879d6f6c91780bfda906272c8376b424a7466",
      "blockNumber": 79899,
      "transactionIndex": 3,
      "confirmations": null,
      "from": "0x2910543Af39abA0Cd09dBb2D50200b3E800A63D2",
      "gasPrice": {
        "_hex": "0xcfd734f59"
      },
      "gasLimit": {
        "_hex": "0x5208"
      },
      "to": "0xC887EBd9F4498FeE41153EbCAe11Bc2EfB8d7150",
      "value": {
        "_hex": "0x302367fbb36aff8000"
      },
      "nonce": 378,
      "data": "0x",
      "r": "0xfdeeb0adf3cef10231242a0db5c42a8e1ae04540b933c5673b8d629212ea2247",
      "s": "0x7f59ea6b00813f32c758b173e66922db7766ddec20afb6818c4e641760551747",
      "v": 28,
      "creates": null,
      "raw": "0xf86f82017a850cfd734f5982520894c887ebd9f4498fee41153ebcae11bc2efb8d715089302367fbb36aff8000801ca0fdeeb0adf3cef10231242a0db5c42a8e1ae04540b933c5673b8d629212ea2247a07f59ea6b00813f32c758b173e66922db7766ddec20afb6818c4e641760551747",
      "networkId": 0,
      "chainId": 0
    }
  ]
}