{
  "hash": "0xd5b3917ceed4af2bbd94c5deeeb269bb9f4f55ca748771197752cebd5b3c8c10",
  "parentHash": "0xcc9ccd62f9d05669d23c648b5b15fbc37312111f0d0b4ecfcf0ddd922319b0a0",
  "number": 71787,
  "timestamp": 1439341962,
  "nonce": "0xc6d745ccb57e2094",
  "difficulty": 2169710265448,
  "gasLimit": {
    "_hex": "0x2fefd8"
  },
  "gasUsed": {
    "_hex": "0x5208"
  },
  "miner": "0xe6A7a1d47ff21B6321162AEA7C6CB457D5476Bca",
  "extraData": "0x476574682f76312e302e312d38326566323666362f6c696e75782f676f312e34",
  "transactions": [
    {
      "hash": "0xf6a965771a97595df9f3dccf170e4d74d4702f0d34b0a43759fd277dbbb6229b",
      "blockHash": "0xd5b3917ceed4af2bbd94c5deeeb269bb9f4f55ca748771197752cebd5b3c8c10",
      "blockNumber": 71787,
      "transactionIndex": 0,
      "confirmations": null,
      "from": "0xe043F7B6fc487e0Ad927C9bEcd1D586F30eE1639",
      "gasPrice": {
        "_hex": "0xd8b607ebd"
      },
      "gasLimit": {
        "_hex": "0x5208"
      },
      "to": "0x06725632199fccdc1Ec4F28e2c23C2b5144CFDA2",
      "value": {
        "_hex": "0x56bc75e2d63100000"
      },
      "nonce": 2,
      "data": "0x",
      "r": "0xf76ad87d3141d72e58723588dbe0b0ddf62829d3c2ace87f87e833c4f4e97a70",
      "s": "0x1e6507e8ed757f60adacbc9788d20daf7b1e294ebe5b96a07cc58695d9dc8c56",
      "v": 28,
      "creates": null,
      "raw": "0xf86d02850d8b607ebd8252089406725632199fccdc1ec4f28e2c23c2b5144cfda289056bc75e2d63100000801ca0f76ad87d3141d72e58723588dbe0b0ddf62829d3c2ace87f87e833c4f4e97a70a01e6507e8ed757f60adacbc9788d20daf7b1e294ebe5b96a07cc58695d9dc8c56",
      "networkId": 0,
      "chainId": 0
    }
  ]
}