{
  "hash": "0xa3df576a5eae3fb10f43bdf9b0a803a58356f8a9ba925b05e05ea329161f34a6",
  "parentHash": "0x5a97e70c569c494a6fb19c9a5d59c5085543022bacd4284b3150837cffa337c0",
  "number": 82811,
  "timestamp": 1439525639,
  "nonce": "0xbabb6af1c1660cfd",
  "difficulty": 2375187446651,
  "gasLimit": {
    "_hex": "0x2fefd8"
  },
  "gasUsed": {
    "_hex": "0x546c"
  },
  "miner": "0x123843545FB525C8E134c9A5F15ADA6865cc3848",
  "extraData": "0x476574682f76312e302e312f77696e646f77732f676f312e342e32",
  "transactions": [
    {
      "hash": "0x95f45ed6fc99b90c7785083e380240bdd9d9851afe2ad34d78ec834a3625a2b6",
      "blockHash": "0xa3df576a5eae3fb10f43bdf9b0a803a58356f8a9ba925b05e05ea329161f34a6",
      "blockNumber": 82811,
      "transactionIndex": 0,
      "confirmations": null,
      "from": "0xaFfc99d5eBb4A84FE7788d97dce274b038240438",
      "gasPrice": {
        "_hex": "0x110c8f7d8de"
      },
      "gasLimit": {
        "_hex": "0xc350"
      },
      "to": "0x2910543Af39abA0Cd09dBb2D50200b3E800A63D2",
      "value": {
        "_hex": "0x2386f26fc10000"
      },
      "nonce": 0,
      "data": "0x454e51313654353738",
      "r": "0x633a15e86ea355a2ee2876a9fa8c5165152d9b41183f7d0335a306e244bfbf9f",
      "s": "0x5e9b0d32d22ec2531db3b3720f15b592cb831ab81c89d60f903ce30d47b08f6f",
      "v": 28,
      "creates": null,
      "raw": "0xf87580860110c8f7d8de82c350942910543af39aba0cd09dbb2d50200b3e800a63d2872386f26fc1000089454e513136543537381ca0633a15e86ea355a2ee2876a9fa8c5165152d9b41183f7d0335a306e244bfbf9fa05e9b0d32d22ec2531db3b3720f15b592cb831ab81c89d60f903ce30d47b08f6f",
      "networkId": 0,
      "chainId": 0
    }
  ]
}