{
  "hash": "0x80bf5e4a2fcfb5c7ad728899c32b0a11f65909e5098207589c6fbff84dfdf31b",
  "parentHash": "0x338dbd7f34b8b1a5fb1f0df9c0830db95e08d6714d20cd12af75bdb40bb2fa41",
  "number": 108372,
  "timestamp": 1439939207,
  "nonce": "0xe8c1344cd7d687e3",
  "difficulty": 4340486026344,
  "gasLimit": {
    "_hex": "0x2fefd8"
  },
  "gasUsed": {
    "_hex": "0x5208"
  },
  "miner": "0x9D49F602b0fdb924Bd63DDE2Bd0907E4A07c63a7",
  "extraData": "0x476574682f76312e302e312f6c696e75782f676f312e342e32",
  "transactions": [
    {
      "hash": "0x303f6b8434651146f50b1db6bd1c23e473f3a164037151afcafa47516e1962f2",
      "blockHash": "0x80bf5e4a2fcfb5c7ad728899c32b0a11f65909e5098207589c6fbff84dfdf31b",
      "blockNumber": 108372,
      "transactionIndex": 0,
      "confirmations": null,
      "from": "0x65553f5e8FA2eDfCe37Aec51A90ed28777dDe402",
      "gasPrice": {
        "_hex": "0xe06e34192"
      },
      "gasLimit": {
        "_hex": "0x5208"
      },
      "to": "0xFBb1b73C4f0BDa4f67dcA266ce6Ef42f520fBB98",
      "value": {
        "_hex": "0x1708a4c934faf70"
      },
      "nonce": 1,
      "data": "0x",
      "r": "0xff09e1672f1f69b15d8a9a4d4562e480bf11cea868b9ce13501f6b3c4efba5e5",
      "s": "0x228e943a5bb7a8cc32220da96bea52b9f69189e4d26cedd26773460c99ae0a85",
      "v": 28,
      "creates": null,
      "raw": "0xf86c01850e06e3419282520894fbb1b73c4f0bda4f67dca266ce6ef42f520fbb988801708a4c934faf70801ca0ff09e1672f1f69b15d8a9a4d4562e480bf11cea868b9ce13501f6b3c4efba5e5a0228e943a5bb7a8cc32220da96bea52b9f69189e4d26cedd26773460c99ae0a85",
      "networkId": 0,
      "chainId": 0
    }
  ]
}