{
  "hash": "0x2085e43df7c219c84d88f1b7baea773bae1e9abfd49c9be586bf83ab417d3dd2",
  "parentHash": "0x8468c89bfc780a8e667a68bf1be20e66f1cd6ad39f2cee35c9a8e37f1bc47aa7",
  "number": 64297,
  "timestamp": 1439218494,
  "nonce": "0x69de26047802d401",
  "difficulty": 1875737905338,
  "gasLimit": {
    "_hex": "0x2fefd8"
  },
  "gasUsed": {
    "_hex": "0x546c"
  },
  "miner": "0x38E8Ac573F0718497B99B698bB6A6D4A25404300",
  "extraData": "0x476574682f76312e302e312f77696e646f77732f676f312e342e32",
  "transactions": [
    {
      "hash": "0x1c1d67c5c9d9388904f37b19e387fa041bf39b43df04f0c9dd17c0eb085ca8f1",
      "blockHash": "0x2085e43df7c219c84d88f1b7baea773bae1e9abfd49c9be586bf83ab417d3dd2",
      "blockNumber": 64297,
      "transactionIndex": 0,
      "confirmations": null,
      "from": "0x22e2488e2da26A49ae84c01Bd54B21F2947891c6",
      "gasPrice": {
        "_hex": "0x110c8f7d8de"
      },
      "gasLimit": {
        "_hex": "0xc350"
      },
      "to": "0x2910543Af39abA0Cd09dBb2D50200b3E800A63D2",
      "value": {
        "_hex": "0xde0b6b3a7640000"
      },
      "nonce": 0,
      "data": "0x454e33484643584e30",
      "r": "0x1c525e7688643cb3fffef73e4ba7a48801622ef0c956c9eb57b0143f09db3e92",
      "s": "0x418405b72aae98d8e42879a08b4af48827e75058b69e8f4dc6dec69510afd333",
      "v": 28,
      "creates": null,
      "raw": "0xf87680860110c8f7d8de82c350942910543af39aba0cd09dbb2d50200b3e800a63d2880de0b6b3a764000089454e33484643584e301ca01c525e7688643cb3fffef73e4ba7a48801622ef0c956c9eb57b0143f09db3e92a0418405b72aae98d8e42879a08b4af48827e75058b69e8f4dc6dec69510afd333",
      "networkId": 0,
      "chainId": 0
    }
  ]
}