{
  "hash": "0xe2654c32aedfa3dab6b67e214521e31840b33442641fde218f2d0c626b9c2efb",
  "parentHash": "0x248aa72797030211e2d3805d97ef4b8602594b3bf4932380b9f48fd6189420dc",
  "number": 85212,
  "timestamp": 1439560116,
  "nonce": "0xe16ba4b784e6439c",
  "difficulty": 2745078523200,
  "gasLimit": {
    "_hex": "0x2fefd8"
  },
  "gasUsed": {
    "_hex": "0x5208"
  },
  "miner": "0xa50ec0D39fa913E62f1Bae7074E6F36caA71855b",
  "extraData": "0xd783010001844765746887676f312e342e32856c696e7578",
  "transactions": [
    {
      "hash": "0x4ff8abf2817bc0f4889be7dea04d27661d46a2a228c22d119f2737f62a38486f",
      "blockHash": "0xe2654c32aedfa3dab6b67e214521e31840b33442641fde218f2d0c626b9c2efb",
      "blockNumber": 85212,
      "transactionIndex": 0,
      "confirmations": null,
      "from": "0xAF654b2845616930f74573a909B477E23752DcA4",
      "gasPrice": {
        "_hex": "0xba43b7400"
      },
      "gasLimit": {
        "_hex": "0x5266"
      },
      "to": "0x014e478251F22a79fA7014f285647d91462A9669",
      "value": {
        "_hex": "0x7e49b1c9400e0000"
      },
      "nonce": 2,
      "data": "0x",
      "r": "0x7e60e890267b2d82a2e6f85fe4b11f81d5f359afa264b8b4d8a8d82a06437971",
      "s": "0x37ebc98df96c2ff1a141e78b8207430dd731fe0e31aecf14926e1fc96f83df31",
      "v": 28,
      "creates": null,
      "raw": "0xf86c02850ba43b740082526694014e478251f22a79fa7014f285647d91462a9669887e49b1c9400e0000801ca07e60e890267b2d82a2e6f85fe4b11f81d5f359afa264b8b4d8a8d82a06437971a037ebc98df96c2ff1a141e78b8207430dd731fe0e31aecf14926e1fc96f83df31",
      "networkId": 0,
      "chainId": 0
    }
  ]
}