{
  "hash": "0x50f9250fac6b2ab763dc8cab429553983deeb97a34c3da31090c15be823f4051",
  "parentHash": "0xb9d33c6be83440966c6f044b9522f4d711ec5bf453acf393b8a8c7bb38c36f8f",
  "number": 104012,
  "timestamp": 1439862734,
  "nonce": "0xa057ae6d45ee1a1d",
  "difficulty": 4267072332391,
  "gasLimit": {
    "_hex": "0x2fefd8"
  },
  "gasUsed": {
    "_hex": "0x5208"
  },
  "miner": "0x007f7f58D3eb5b7510A301eCC749FC1fCDDBE14D",
  "extraData": "0x476574682f76312e302e312f77696e646f77732f676f312e342e32",
  "transactions": [
    {
      "hash": "0x554cf380dd29711050a2090d74004c22db913ecc9185f3ebc2a4a86e08a72a0d",
      "blockHash": "0x50f9250fac6b2ab763dc8cab429553983deeb97a34c3da31090c15be823f4051",
      "blockNumber": 104012,
      "transactionIndex": 0,
      "confirmations": null,
      "from": "0x32Be343B94f860124dC4fEe278FDCBD38C102D88",
      "gasPrice": {
        "_hex": "0xceac36db6"
      },
      "gasLimit": {
        "_hex": "0x5208"
      },
      "to": "0xdE79c5895EB57d39465fD6dFF8D7746D487019cd",
      "value": {
        "_hex": "0x634bfa57d37628000"
      },
      "nonce": 1144,
      "data": "0x",
      "r": "0x794d3c795a9dc4cd8c9c400dd40b55d0fd9cb97273ead422f23c0b3a0c632d80",
      "s": "0x034f089c0688bc1ca2762a98aa66a0e10c66f46427747f1e099a088024682e73",
      "v": 27,
      "creates": null,
      "raw": "0xf86f820478850ceac36db682520894de79c5895eb57d39465fd6dff8d7746d487019cd890634bfa57d37628000801ba0794d3c795a9dc4cd8c9c400dd40b55d0fd9cb97273ead422f23c0b3a0c632d80a0034f089c0688bc1ca2762a98aa66a0e10c66f46427747f1e099a088024682e73",
      "networkId": 0,
      "chainId": 0
    }
  ]
}