{
  "hash": "0x00e4fe64c00d765c72b3778802a60e0eaf2f06583d5b75b39c34b9847f9469ab",
  "parentHash": "0xd55c89087594c63ce29ece53175262315d013b9a7a27ce6a5f826507c37b0a9c",
  "number": 53377,
  "timestamp": 1439036632,
  "nonce": "0xcc84ab1263d59b0f",
  "difficulty": 1592435844429,
  "gasLimit": {
    "_hex": "0x263bb5"
  },
  "gasUsed": {
    "_hex": "0x5208"
  },
  "miner": "0xf8E0CA3Ed80bd541b94BEdCf259e8CF2141A9523",
  "extraData": "0x476574682f76312e302e312f77696e646f77732f676f312e342e32",
  "transactions": [
    {
      "hash": "0x5b16d7daf3c39d17262404168fbbd5ddba14b7c58ad3932164188f77d219afd5",
      "blockHash": "0x00e4fe64c00d765c72b3778802a60e0eaf2f06583d5b75b39c34b9847f9469ab",
      "blockNumber": 53377,
      "transactionIndex": 0,
      "confirmations": null,
      "from": "0x262A8bFD7D9dC5dD3Ad78161B6Bb560824373655",
      "gasPrice": {
        "_hex": "0xddda4c0b0"
      },
      "gasLimit": {
        "_hex": "0x15f90"
      },
      "to": "0x7Cd05927fE0AA3b6552db959e7539aE28dCBBDcf",
      "value": {
        "_hex": "0x5150ae84a8cdf00000"
      },
      "nonce": 0,
      "data": "0x",
      "r": "0xd8f64d36a91190e8f352121670005f96359c20113d9a75dc1745cfb54a155819",
      "s": "0x1fa76ed171ba0a1ec369cf4c489020d84fae71c36d968d36b2050f7ec50ad1dc",
      "v": 28,
      "creates": null,
      "raw": "0xf86e80850ddda4c0b083015f90947cd05927fe0aa3b6552db959e7539ae28dcbbdcf895150ae84a8cdf00000801ca0d8f64d36a91190e8f352121670005f96359c20113d9a75dc1745cfb54a155819a01fa76ed171ba0a1ec369cf4c489020d84fae71c36d968d36b2050f7ec50ad1dc",
      "networkId": 0,
      "chainId": 0
    }
  ]
}