{
  "hash": "0x6874ec5bcf357ae6015abbd4af035974a315da2262e12df199c6c1ac571ed679",
  "parentHash": "0x676a6ac390b22c692d2d6251e771cc7d3feb2eb8979faeb71159287118601ac9",
  "number": 97459,
  "timestamp": 1439756510,
  "nonce": "0xea2086f2a6ae4040",
  "difficulty": 3818633816926,
  "gasLimit": {
    "_hex": "0x2fefd8"
  },
  "gasUsed": {
    "_hex": "0x5208"
  },
  "miner": "0x55bAf64fc9eAccFFd7Cc643BB61142E1C6ac093e",
  "extraData": "0x",
  "transactions": [
    {
      "hash": "0xed41bbd15fb4f058532d1fcb9165a7d10952045f74ac1c344ab48e9caeb774d3",
      "blockHash": "0x6874ec5bcf357ae6015abbd4af035974a315da2262e12df199c6c1ac571ed679",
      "blockNumber": 97459,
      "transactionIndex": 0,
      "confirmations": null,
      "from": "0x8d304933a1F93F268bFDcFF9FFE6846a75167279",
      "gasPrice": {
        "_hex": "0xcdf652c76"
      },
      "gasLimit": {
        "_hex": "0x5208"
      },
      "to": "0x32Be343B94f860124dC4fEe278FDCBD38C102D88",
      "value": {
        "_hex": "0x46c13815ee16000"
      },
      "nonce": 6,
      "data": "0x",
      "r": "0x6ecea7d514672389893aa14f180f69888053942534cd1de2319276bfc9b04d28",
      "s": "0x246293c95a618b5951eda03cb1d4b207202b0487a6b0f61309f13e4120b47127",
      "v": 27,
      "creates": null,
      "raw": "0xf86c06850cdf652c768252089432be343b94f860124dc4fee278fdcbd38c102d8888046c13815ee16000801ba06ecea7d514672389893aa14f180f69888053942534cd1de2319276bfc9b04d28a0246293c95a618b5951eda03cb1d4b207202b0487a6b0f61309f13e4120b47127",
      "networkId": 0,
      "chainId": 0
    }
  ]
}