{
  "hash": "0x0f6681783ed792fafc991c22f1c3d2897ace480a1e2e88acff8eee87cecb05d7",
  "parentHash": "0x1b5185516ed8fe4ed5c00c3335f187ccb5245504fc27dacc2543651e0ea99852",
  "number": 50481,
  "timestamp": 1438989930,
  "nonce": "0x4042b0bfcf8f1ac0",
  "difficulty": 1509682116796,
  "gasLimit": {
    "_hex": "0x66099"
  },
  "gasUsed": {
    "_hex": "0x5208"
  },
  "miner": "0xC675Ed3881D37b10308F37E4E04d8224E3ff86Cb",
  "extraData": "0x476574682f76312e302e312f6c696e75782f676f312e342e32",
  "transactions": [
    {
      "hash": "0xa0a047f2bbccec51c6ba4b8409d70d16a721d426cf506f35ae3a5b7c6683becd",
      "blockHash": "0x0f6681783ed792fafc991c22f1c3d2897ace480a1e2e88acff8eee87cecb05d7",
      "blockNumber": 50481,
      "transactionIndex": 0,
      "confirmations": null,
      "from": "0x4eC68687B54dba931f2Ab0c35B4487b16F10f2e9",
      "gasPrice": {
        "_hex": "0xd9eed04f4"
      },
      "gasLimit": {
        "_hex": "0x5208"
      },
      "to": "0x32Be343B94f860124dC4fEe278FDCBD38C102D88",
      "value": {
        "_hex": "0x299dbb7c6e54ac00"
      },
      "nonce": 1,
      "data": "0x",
      "r": "0xdc6dccd2f681feee8364c1d7d76b5420a346064a68d81e58f51e8400828c28c4",
      "s": "0x25b34eb0ab79a7f3d8669159f0c53baa0bd05ff7df07ee0225532c48e88569dd",
      "v": 27,
      "creates": null,
      "raw": "0xf86c01850d9eed04f48252089432be343b94f860124dc4fee278fdcbd38c102d8888299dbb7c6e54ac00801ba0dc6dccd2f681feee8364c1d7d76b5420a346064a68d81e58f51e8400828c28c4a025b34eb0ab79a7f3d8669159f0c53baa0bd05ff7df07ee0225532c48e88569dd",
      "networkId": 0,
      "chainId": 0
    }
  ]
}