{
  "hash": "0x9a0bb18178ef59b7c7e7d4efae20a385772d5f8264a1aeb77edf5378ec0be1ec",
  "parentHash": "0x78c2053641b7637088cf540268287096cce110975a9685d3d97a826d9e0e4dfe",
  "number": 74911,
  "timestamp": 1439394529,
  "nonce": "0xbf53e6fe90f2a05a",
  "difficulty": 2192326741536,
  "gasLimit": {
    "_hex": "0x2fefd8"
  },
  "gasUsed": {
    "_hex": "0xad77"
  },
  "miner": "0xa50ec0D39fa913E62f1Bae7074E6F36caA71855b",
  "extraData": "0x",
  "transactions": [
    {
      "hash": "0xec84383421d823eab4f3604f7b16522f77d320c1046886e1e36fe87b5805e9d3",
      "blockHash": "0x9a0bb18178ef59b7c7e7d4efae20a385772d5f8264a1aeb77edf5378ec0be1ec",
      "blockNumber": 74911,
      "transactionIndex": 0,
      "confirmations": null,
      "from": "0x87C5B5874A18B4306DF8a752a6C8cc3E82daFc19",
      "gasPrice": {
        "_hex": "0x106e7dca692"
      },
      "gasLimit": {
        "_hex": "0x493e0"
      },
      "to": "0xC4c51de1AbF5D60DBd329eC0F999Fd8f021ae9fC",
      "value": {
        "_hex": "0x0"
      },
      "nonce": 23,
      "data": "0x03750d94000000000000000000000000326be8f71bfb0379f989aab1cc1fe37f0a771f606334663235343433376132336331653200000000000000000000000000000000",
      "r": "0x5a007edc32b79339f2d18fffb8cfde238766d9b442fd29b057aac21bd1f6a9fe",
      "s": "0x43fa6e790a9ce4c2c7477b726d769b8e3efe79859d342473adc23e3eeccece31",
      "v": 27,
      "creates": null,
      "raw": "0xf8ab17860106e7dca692830493e094c4c51de1abf5d60dbd329ec0f999fd8f021ae9fc80b84403750d94000000000000000000000000326be8f71bfb0379f989aab1cc1fe37f0a771f6063346632353434333761323363316532000000000000000000000000000000001ba05a007edc32b79339f2d18fffb8cfde238766d9b442fd29b057aac21bd1f6a9fea043fa6e790a9ce4c2c7477b726d769b8e3efe79859d342473adc23e3eeccece31",
      "networkId": 0,
      "chainId": 0
    }
  ]
}