{
  "hash": "0xba106b55b6ab9de88bdc3ce4d9bee43c30c9630714ef15db266128c88c0cc205",
  "parentHash": "0xca9f9dc8f075e8f4072786ca1b5aa9f39d494da68ad9a4f47f49d168ba28ff11",
  "number": 104137,
  "timestamp": 1439864990,
  "nonce": "0xaab2ba999fc96e13",
  "difficulty": 4256603952210,
  "gasLimit": {
    "_hex": "0x2fefd8"
  },
  "gasUsed": {
    "_hex": "0x5208"
  },
  "miner": "0xe6A7a1d47ff21B6321162AEA7C6CB457D5476Bca",
  "extraData": "0x476574682f76312e302e312d38326566323666362f6c696e75782f676f312e34",
  "transactions": [
    {
      "hash": "0xf728481f84fdf3eb38e1fed819a00f5632e3729d1a0a68e96ff49f5f7c4ac4eb",
      "blockHash": "0xba106b55b6ab9de88bdc3ce4d9bee43c30c9630714ef15db266128c88c0cc205",
      "blockNumber": 104137,
      "transactionIndex": 0,
      "confirmations": null,
      "from": "0x32Be343B94f860124dC4fEe278FDCBD38C102D88",
      "gasPrice": {
        "_hex": "0xcda2d7bab"
      },
      "gasLimit": {
        "_hex": "0x5208"
      },
      "to": "0xD7Add146Fd01cC02354e9dE91df7d38D918E9C5D",
      "value": {
        "_hex": "0x45400a8fd5330000"
      },
      "nonce": 1146,
      "data": "0x",
      "r": "0x71277a4f58f4a39587ca50d21338da8036df9991a866e6c61f6cbdbaff07375c",
      "s": "0x5cf0feed84424c9e530544c97f27339278ed802349116134524697a79882ebd2",
      "v": 27,
      "creates": null,
      "raw": "0xf86e82047a850cda2d7bab82520894d7add146fd01cc02354e9de91df7d38d918e9c5d8845400a8fd5330000801ba071277a4f58f4a39587ca50d21338da8036df9991a866e6c61f6cbdbaff07375ca05cf0feed84424c9e530544c97f27339278ed802349116134524697a79882ebd2",
      "networkId": 0,
      "chainId": 0
    }
  ]
}