{
  "hash": "0xd502de89b5c17945260c47e465e8821cabeb1e2b1fcdf4f7e04644b41cf9d044",
  "parentHash": "0x97f3366690f2d12f41814ce0316443f46d06b2138d540a1eb693b53f0cb48ce1",
  "number": 69033,
  "timestamp": 1439297442,
  "nonce": "0x49e1258c74b0ccba",
  "difficulty": 2036933265044,
  "gasLimit": {
    "_hex": "0x2fefd8"
  },
  "gasUsed": {
    "_hex": "0x29040"
  },
  "miner": "0x0Cb6EEF179Ba9E7036f95bEEB01e250ab85A8c88",
  "extraData": "0x476574682f76312e302e312f77696e646f77732f676f312e342e32",
  "transactions": [
    {
      "hash": "0xcf5cf2199f35d33b9ebefd9c9882d9647e8a59ad9441509d8502e076402a1337",
      "blockHash": "0xd502de89b5c17945260c47e465e8821cabeb1e2b1fcdf4f7e04644b41cf9d044",
      "blockNumber": 69033,
      "transactionIndex": 0,
      "confirmations": null,
      "from": "0xD4FD73Bc0985f4315760809bfb0657Eb9e3aC50C",
      "gasPrice": {
        "_hex": "0xba43b7400"
      },
      "gasLimit": {
        "_hex": "0x5208"
      },
      "to": "0x064637D068e92F3fad1d6d95E1227845D700d35c",
      "value": {
        "_hex": "0x1d7684e6875b000"
      },
      "nonce": 1,
      "data": "0x",
      "r": "0xfe9b68c87374cb7a3150a3431db443fb13776ffcdbb622c85030909745d7995b",
      "s": "0x68f8980dcc23d7309a288992b33e5e935dfb0c1fa03193d8fe0f35301a09d0fc",
      "v": 27,
      "creates": null,
      "raw": "0xf86c01850ba43b740082520894064637d068e92f3fad1d6d95e1227845d700d35c8801d7684e6875b000801ba0fe9b68c87374cb7a3150a3431db443fb13776ffcdbb622c85030909745d7995ba068f8980dcc23d7309a288992b33e5e935dfb0c1fa03193d8fe0f35301a09d0fc",
      "networkId": 0,
      "chainId": 0
    },
    {
      "hash": "0xdd68dd203a3ea33df6fb6be49646270c36602c502c1e9edadfaa43f1ca43fbd1",
      "blockHash": "0xd502de89b5c17945260c47e465e8821cabeb1e2b1fcdf4f7e04644b41cf9d044",
      "blockNumber": 69033,
      "transactionIndex": 1,
      "confirmations": null,
      "from": "0x82fa714Fe9be2BD095953d4812458a20C71810d0",
      "gasPrice": {
        "_hex": "0xba43b7400"
      },
      "gasLimit": {
        "_hex": "0x5208"
      },
      "to": "0x3FBBEf0B4AfbBfDb1C6e0a555d81C7B0A6edfa07",
      "value": {
        "_hex": "0x1d7684e6875b000"
      },
      "nonce": 1,
      "data": "0x",
      "r": "0xf2de892f0a635d5e94b9a7c5713fc0b31f0cee47d546d601f61e750ea039e905",
      "s": "0x49ab963b8001079e16504924157ba2944ab6f899911c7e23c4284b63a4c8e317",
      "v": 28,
      "creates": null,
      "raw": "0xf86c01850ba43b7400825208943fbbef0b4afbbfdb1c6e0a555d81c7b0a6edfa078801d7684e6875b000801ca0f2de892f0a635d5e94b9a7c5713fc0b31f0cee47d546d601f61e750ea039e905a049ab963b8001079e16504924157ba2944ab6f899911c7e23c4284b63a4c8e317",
      "networkId": 0,
      "chainId": 0
    },
    {
      "hash": "0xbd2e746e8d0849fb74efb513f76e47f667e17ef611b7472f88c03728b5845a0f",
      "blockHash": "0xd502de89b5c17945260c47e465e8821cabeb1e2b1fcdf4f7e04644b41cf9d044",
      "blockNumber": 69033,
      "transactionIndex": 2,
      "confirmations": null,
      "from": "0x0FFE0F7de6BDc33EBba305D138970843acfba7C5",
      "gasPrice": {
        "_hex": "0xba43b7400"
      },
      "gasLimit": {
        "_hex": "0x5208"
      },
      "to": "0xdeF5E616a1EE801Fa9180B1eacae3b7b3cCC3e66",
      "value": {
        "_hex": "0x1d7684e6875b000"
      },
      "nonce": 1,
      "data": "0x",
      "r": "0xf36a8f722ce577051efbb06ba67c487e2176a2c83d8d43505b7cce2564ccadc7",
      "s": "0x4dd9f56d6334633e5336508146858495d233f2b6e744c6c8c836a2bf2542be52",
      "v": 28,
      "creates": null,
      "raw": "0xf86c01850ba43b740082520894def5e616a1ee801fa9180b1eacae3b7b3ccc3e668801d7684e6875b000801ca0f36a8f722ce577051efbb06ba67c487e2176a2c83d8d43505b7cce2564ccadc7a04dd9f56d6334633e5336508146858495d233f2b6e744c6c8c836a2bf2542be52",
      "networkId": 0,
      "chainId": 0
    },
    {
      "hash": "0xeeecbff85a4ce2ae1a4e4487670807ddc3c1d47676b69d23d744a43e8d02f9ae",
      "blockHash": "0xd502de89b5c17945260c47e465e8821cabeb1e2b1fcdf4f7e04644b41cf9d044",
      "blockNumber": 69033,
      "transactionIndex": 3,
      "confirmations": null,
      "from": "0x0d5e336E24dB7A6c0da9B5980d66486A53fDCe6D",
      "gasPrice": {
        "_hex": "0xba43b7400"
      },
      "gasLimit": {
        "_hex": "0x5208"
      },
      "to": "0x5626052Dc26588Fe02CB91F859b462A2eC1BC303",
      "value": {
        "_hex": "0x1d7684e6875b000"
      },
      "nonce": 1,
      "data": "0x",
      "r": "0x4b22ab25422672c65b48adc5fd7a29114d1f7cfdce1788af5e0c112c07e97126",
      "s": "0x60e18e89f774c7cea320054ec85c2ed5b14f97b398b3f148eb16e2786cf5acbc",
      "v": 27,
      "creates": null,
      "raw": "0xf86c01850ba43b7400825208945626052dc26588fe02cb91f859b462a2ec1bc3038801d7684e6875b000801ba04b22ab25422672c65b48adc5fd7a29114d1f7cfdce1788af5e0c112c07e97126a060e18e89f774c7cea320054ec85c2ed5b14f97b398b3f148eb16e2786cf5acbc",
      "networkId": 0,
      "chainId": 0
    },
    {
      "hash": "0x51a5c0dec5d001e366236a12de93468fb8f45a69261c70569cb3f1de79fb2b12",
      "blockHash": "0xd502de89b5c17945260c47e465e8821cabeb1e2b1fcdf4f7e04644b41cf9d044",
      "blockNumber": 69033,
      "transactionIndex": 4,
      "confirmations": null,
      "from": "0x4F220172A819c7f0Ea131d9DD7CD16ad3886FE24",
      "gasPrice": {
        "_hex": "0xba43b7400"
      },
      "gasLimit": {
        "_hex": "0x5208"
      },
      "to": "0x7bC37EB17cb496318E825384CE7146DCaaB873b1",
      "value": {
        "_hex": "0x1d7684e6875b000"
      },
      "nonce": 1,
      "data": "0x",
      "r": "0x34997dc1def7910884b24ff2a3828f213a7e794094b00ccc9f05bbc90d928c1d",
      "s": "0x1d0fabfa4743de35721cd4b715a7251f75707218ce696e481c8732283404ebb6",
      "v": 28,
      "creates": null,
      "raw": "0xf86c01850ba43b7400825208947bc37eb17cb496318e825384ce7146dcaab873b18801d7684e6875b000801ca034997dc1def7910884b24ff2a3828f213a7e794094b00ccc9f05bbc90d928c1da01d0fabfa4743de35721cd4b715a7251f75707218ce696e481c8732283404ebb6",
      "networkId": 0,
      "chainId": 0
    },
    {
      "hash": "0xeb51ee085d0c48b94f7177178603c1870ca15c7bba81550901a5df551554934c",
      "blockHash": "0xd502de89b5c17945260c47e465e8821cabeb1e2b1fcdf4f7e04644b41cf9d044",
      "blockNumber": 69033,
      "transactionIndex": 5,
      "confirmations": null,
      "from": "0xF43d6DAA616C9336ef60f9175bc4fC7Db3bF088d",
      "gasPrice": {
        "_hex": "0xba43b7400"
      },
      "gasLimit": {
        "_hex": "0x5208"
      },
      "to": "0xaeEd5aF87D03C0e9dbd70e56C7D1971EA83a0Bc4",
      "value": {
        "_hex": "0x1d7684e6875b000"
      },
      "nonce": 1,
      "data": "0x",
      "r": "0x734001134e2a5d1b24f87e1323fc7ff365ce1c5eb3510cc5399405cd5f0067a5",
      "s": "0x1df894784293d176918b3930c1af0ea46b492e169f9615dda739099fd4debbd9",
      "v": 28,
      "creates": null,
      "raw": "0xf86c01850ba43b740082520894aeed5af87d03c0e9dbd70e56c7d1971ea83a0bc48801d7684e6875b000801ca0734001134e2a5d1b24f87e1323fc7ff365ce1c5eb3510cc5399405cd5f0067a5a01df894784293d176918b3930c1af0ea46b492e169f9615dda739099fd4debbd9",
      "networkId": 0,
      "chainId": 0
    },
    {
      "hash": "0x05436653cc30246ff7b8df1d4635bfc3d5bb007432cc274f8e880fedeed4bcf6",
      "blockHash": "0xd502de89b5c17945260c47e465e8821cabeb1e2b1fcdf4f7e04644b41cf9d044",
      "blockNumber": 69033,
      "transactionIndex": 6,
      "confirmations": null,
      "from": "0xa02FcCFF30307FFa3F84ff17673A1a7fDADD9b88",
      "gasPrice": {
        "_hex": "0xba43b7400"
      },
      "gasLimit": {
        "_hex": "0x5208"
      },
      "to": "0x4829FDEf3a853cFf1f478ee90E073DfC311Ca363",
      "value": {
        "_hex": "0x1d7684e6875b000"
      },
      "nonce": 1,
      "data": "0x",
      "r": "0x75fcc597d6484d22cf0844fc705ed6707538133f19360ad70f42bb6e4fc7fc19",
      "s": "0x533955ccb292ddc1c40a9b5a31c51ec65d346257dd25f97c4cf437fa60df3130",
      "v": 28,
      "creates": null,
      "raw": "0xf86c01850ba43b7400825208944829fdef3a853cff1f478ee90e073dfc311ca3638801d7684e6875b000801ca075fcc597d6484d22cf0844fc705ed6707538133f19360ad70f42bb6e4fc7fc19a0533955ccb292ddc1c40a9b5a31c51ec65d346257dd25f97c4cf437fa60df3130",
      "networkId": 0,
      "chainId": 0
    },
    {
      "hash": "0x97c9412c5f8152b673a2dd7c865a3c086be12d6ed3cbaa54d193bed0f9d66519",
      "blockHash": "0xd502de89b5c17945260c47e465e8821cabeb1e2b1fcdf4f7e04644b41cf9d044",
      "blockNumber": 69033,
      "transactionIndex": 7,
      "confirmations": null,
      "from": "0xD50c87deD40c8783B9f3F04E5aB8AF7F56350D28",
      "gasPrice": {
        "_hex": "0xba43b7400"
      },
      "gasLimit": {
        "_hex": "0x5208"
      },
      "to": "0x52d81F184518E75272cE87A995C66Fae39b0EE91",
      "value": {
        "_hex": "0x1d7684e6875b000"
      },
      "nonce": 1,
      "data": "0x",
      "r": "0x0afacdce784050abb853b2f9888db2e0532625b1e91aee77effe5b9c9ca73a2f",
      "s": "0x3a4f820027575d956d1b0d995769f924c1b471f1adb446fc642e0eb1a91d9f27",
      "v": 27,
      "creates": null,
      "raw": "0xf86c01850ba43b74008252089452d81f184518e75272ce87a995c66fae39b0ee918801d7684e6875b000801ba00afacdce784050abb853b2f9888db2e0532625b1e91aee77effe5b9c9ca73a2fa03a4f820027575d956d1b0d995769f924c1b471f1adb446fc642e0eb1a91d9f27",
      "networkId": 0,
      "chainId": 0
    }
  ]
}