{
  "hash": "0x497396d4128d023dbdfcb1fdc77f8c1e2d1728d9155cd5ee40bba4aec659dca5",
  "parentHash": "0xfd380a1ad1ce64125f662c6c3ecb670101a37ffecb4fa8005e671d1220fbfeff",
  "number": 105378,
  "timestamp": 1439886480,
  "nonce": "0xe75eae87b0fca0a1",
  "difficulty": 4371819046020,
  "gasLimit": {
    "_hex": "0x2fefd8"
  },
  "gasUsed": {
    "_hex": "0x9eef8"
  },
  "miner": "0xe6A7a1d47ff21B6321162AEA7C6CB457D5476Bca",
  "extraData": "0x476574682f76312e302e312d38326566323666362f6c696e75782f676f312e34",
  "transactions": [
    {
      "hash": "0x176069465fbbc7b8a6d711c33b1c70a1a66074da2c9d7542315ce0eb960393ae",
      "blockHash": "0x497396d4128d023dbdfcb1fdc77f8c1e2d1728d9155cd5ee40bba4aec659dca5",
      "blockNumber": 105378,
      "transactionIndex": 0,
      "confirmations": null,
      "from": "0x2b176421eEBBf303fa94aD4fE78362Fa9e4Ca693",
      "gasPrice": {
        "_hex": "0xcec167ed9"
      },
      "gasLimit": {
        "_hex": "0x5208"
      },
      "to": "0x32Be343B94f860124dC4fEe278FDCBD38C102D88",
      "value": {
        "_hex": "0x1e912577facda4000"
      },
      "nonce": 7,
      "data": "0x",
      "r": "0xb275f2dff3cbe3cac210cfe6768b03adca0ac89086e1a625048eb3c43a459f9b",
      "s": "0x405473c35274c986f1b57a0042b1df2a15aacf7b850763ca078731eb6aa4cc3f",
      "v": 28,
      "creates": null,
      "raw": "0xf86d07850cec167ed98252089432be343b94f860124dc4fee278fdcbd38c102d888901e912577facda4000801ca0b275f2dff3cbe3cac210cfe6768b03adca0ac89086e1a625048eb3c43a459f9ba0405473c35274c986f1b57a0042b1df2a15aacf7b850763ca078731eb6aa4cc3f",
      "networkId": 0,
      "chainId": 0
    },
    {
      "hash": "0xb814fa6b52b0e7615b8cc48d0ce3e3d0be1182deab4fe8da74320568f0d74323",
      "blockHash": "0x497396d4128d023dbdfcb1fdc77f8c1e2d1728d9155cd5ee40bba4aec659dca5",
      "blockNumber": 105378,
      "transactionIndex": 1,
      "confirmations": null,
      "from": "0x0D81FD2bB264D9Ee0F432599b443ae1B691f6134",
      "gasPrice": {
        "_hex": "0xcec167ed9"
      },
      "gasLimit": {
        "_hex": "0x5208"
      },
      "to": "0x32Be343B94f860124dC4fEe278FDCBD38C102D88",
      "value": {
        "_hex": "0xc2c148edca338800"
      },
      "nonce": 7,
      "data": "0x",
      "r": "0x3ee60dad630f281415dcf6b08ddf7a5519461dbb72cfd81cb456aee6202b0de5",
      "s": "0x4d1c5d0a9daf45f4945497ecd81ecca69a4570d00f48ff21cc42c6b5c883cb3e",
      "v": 28,
      "creates": null,
      "raw": "0xf86c07850cec167ed98252089432be343b94f860124dc4fee278fdcbd38c102d8888c2c148edca338800801ca03ee60dad630f281415dcf6b08ddf7a5519461dbb72cfd81cb456aee6202b0de5a04d1c5d0a9daf45f4945497ecd81ecca69a4570d00f48ff21cc42c6b5c883cb3e",
      "networkId": 0,
      "chainId": 0
    },
    {
      "hash": "0xe7cd5588838477b3fd39d7a4047a5a46ab41e4cfc3a9050b6304039adbd4a768",
      "blockHash": "0x497396d4128d023dbdfcb1fdc77f8c1e2d1728d9155cd5ee40bba4aec659dca5",
      "blockNumber": 105378,
      "transactionIndex": 2,
      "confirmations": null,
      "from": "0x1CaC89419da71AC175A5B99CEE0163720430990c",
      "gasPrice": {
        "_hex": "0xcec167ed9"
      },
      "gasLimit": {
        "_hex": "0x5208"
      },
      "to": "0x32Be343B94f860124dC4fEe278FDCBD38C102D88",
      "value": {
        "_hex": "0x1d84c992563d90000"
      },
      "nonce": 7,
      "data": "0x",
      "r": "0xb739e35ab4e7dfec3268a38c0d49b9e6aec88fa76b3c7a2fccba3eddccde8a55",
      "s": "0x513e40b0195f788fe21b06d8600a82457444203712860373a5e615cf61963f54",
      "v": 27,
      "creates": null,
      "raw": "0xf86d07850cec167ed98252089432be343b94f860124dc4fee278fdcbd38c102d888901d84c992563d90000801ba0b739e35ab4e7dfec3268a38c0d49b9e6aec88fa76b3c7a2fccba3eddccde8a55a0513e40b0195f788fe21b06d8600a82457444203712860373a5e615cf61963f54",
      "networkId": 0,
      "chainId": 0
    },
    {
      "hash": "0x00d0724217daf71610582eef7250ad1afaab41b5ea93d1a5cae02da4571aa1cb",
      "blockHash": "0x497396d4128d023dbdfcb1fdc77f8c1e2d1728d9155cd5ee40bba4aec659dca5",
      "blockNumber": 105378,
      "transactionIndex": 3,
      "confirmations": null,
      "from": "0x0f7E5465DB8bC57940471E530a83Fb7Ac5b82d7f",
      "gasPrice": {
        "_hex": "0xcec167ed9"
      },
      "gasLimit": {
        "_hex": "0x5208"
      },
      "to": "0x32Be343B94f860124dC4fEe278FDCBD38C102D88",
      "value": {
        "_hex": "0x2894a104c9549800"
      },
      "nonce": 6,
      "data": "0x",
      "r": "0xdf4f9ac020f7cfc8515eb2aaa246b83cf703c86197a2365c1786dba23f674b74",
      "s": "0x09bf630a568acc07b443b9decae2e49e0bef3af6ab0cbb6d9f593a20286bf01f",
      "v": 28,
      "creates": null,
      "raw": "0xf86c06850cec167ed98252089432be343b94f860124dc4fee278fdcbd38c102d88882894a104c9549800801ca0df4f9ac020f7cfc8515eb2aaa246b83cf703c86197a2365c1786dba23f674b74a009bf630a568acc07b443b9decae2e49e0bef3af6ab0cbb6d9f593a20286bf01f",
      "networkId": 0,
      "chainId": 0
    },
    {
      "hash": "0x5eb2a4cecb4b0bf8952f9b8e39e53c5d4851c7b1177a29166b871d0672daf9f5",
      "blockHash": "0x497396d4128d023dbdfcb1fdc77f8c1e2d1728d9155cd5ee40bba4aec659dca5",
      "blockNumber": 105378,
      "transactionIndex": 4,
      "confirmations": null,
      "from": "0x972ad000397A3c903299F1353d6d4b85eE4E4e2A",
      "gasPrice": {
        "_hex": "0xcec167ed9"
      },
      "gasLimit": {
        "_hex": "0x5208"
      },
      "to": "0x32Be343B94f860124dC4fEe278FDCBD38C102D88",
      "value": {
        "_hex": "0x10e50ba600885b000"
      },
      "nonce": 18,
      "data": "0x",
      "r": "0xc8a8ba086403901ada318830a0b543dbda3a11d881f9e24449d92d93aff4e8aa",
      "s": "0x0fa1fb7e8f569f15a9638278f507fc92708dd8a5ceb811654501ef87b5af7c19",
      "v": 27,
      "creates": null,
      "raw": "0xf86d12850cec167ed98252089432be343b94f860124dc4fee278fdcbd38c102d8889010e50ba600885b000801ba0c8a8ba086403901ada318830a0b543dbda3a11d881f9e24449d92d93aff4e8aaa00fa1fb7e8f569f15a9638278f507fc92708dd8a5ceb811654501ef87b5af7c19",
      "networkId": 0,
      "chainId": 0
    },
    {
      "hash": "0x7e0edea9b89c9ced11b2681851aee57e76202d6b8c00cdcc9c8ab8bb1efab579",
      "blockHash": "0x497396d4128d023dbdfcb1fdc77f8c1e2d1728d9155cd5ee40bba4aec659dca5",
      "blockNumber": 105378,
      "transactionIndex": 5,
      "confirmations": null,
      "from": "0xc15fa6D616245a5c7B7D75A6dFDcA10C0250BD2B",
      "gasPrice": {
        "_hex": "0xce86c9ea7"
      },
      "gasLimit": {
        "_hex": "0x15f90"
      },
      "to": "0xdeE4977F74E6Aef6D627191c9A45D2627e331150",
      "value": {
        "_hex": "0xb469471f80140000"
      },
      "nonce": 12,
      "data": "0x",
      "r": "0x88b9c3be27396a581cb35ef2f1d452a3e96e9e0e08284b69fb98793e491bf505",
      "s": "0x1210bb9b3a8cda96f77e0bdaef94bb9baeb45d2bc535f6f1e9180d7c9bea1f42",
      "v": 27,
      "creates": null,
      "raw": "0xf86d0c850ce86c9ea783015f9094dee4977f74e6aef6d627191c9a45d2627e33115088b469471f80140000801ba088b9c3be27396a581cb35ef2f1d452a3e96e9e0e08284b69fb98793e491bf505a01210bb9b3a8cda96f77e0bdaef94bb9baeb45d2bc535f6f1e9180d7c9bea1f42",
      "networkId": 0,
      "chainId": 0
    },
    {
      "hash": "0xdd9fdfa11bafefe5b5338f39ad5775abf3601a19ac2f161ce41b4381660aeae2",
      "blockHash": "0x497396d4128d023dbdfcb1fdc77f8c1e2d1728d9155cd5ee40bba4aec659dca5",
      "blockNumber": 105378,
      "transactionIndex": 6,
      "confirmations": null,
      "from": "0xe6A7a1d47ff21B6321162AEA7C6CB457D5476Bca",
      "gasPrice": {
        "_hex": "0xcb06a0a87"
      },
      "gasLimit": {
        "_hex": "0x55f0"
      },
      "to": "0x02f4c7248513B56356B261cB797fBC618c410569",
      "value": {
        "_hex": "0x246bdca9933500d0"
      },
      "nonce": 4053,
      "data": "0x",
      "r": "0xb8bb529cfa90b73040e2d51183108f8a25fe329e8e0492078ad781abfa492d7a",
      "s": "0x04e9f5384d61151252c9b520b0a8082c665145f902b3f8960db85e72b6abb196",
      "v": 28,
      "creates": null,
      "raw": "0xf86e820fd5850cb06a0a878255f09402f4c7248513b56356b261cb797fbc618c41056988246bdca9933500d0801ca0b8bb529cfa90b73040e2d51183108f8a25fe329e8e0492078ad781abfa492d7aa004e9f5384d61151252c9b520b0a8082c665145f902b3f8960db85e72b6abb196",
      "networkId": 0,
      "chainId": 0
    },
    {
      "hash": "0xc686b122eb38a22a5f64472b246fd579c4066f510518f69021e1538755830049",
      "blockHash": "0x497396d4128d023dbdfcb1fdc77f8c1e2d1728d9155cd5ee40bba4aec659dca5",
      "blockNumber": 105378,
      "transactionIndex": 7,
      "confirmations": null,
      "from": "0xe6A7a1d47ff21B6321162AEA7C6CB457D5476Bca",
      "gasPrice": {
        "_hex": "0xde409ff2e"
      },
      "gasLimit": {
        "_hex": "0x55f0"
      },
      "to": "0xfEE4dEb01301A2633e0046305A31fcA8d04F416c",
      "value": {
        "_hex": "0x3521d1c41fc29a28"
      },
      "nonce": 4054,
      "data": "0x",
      "r": "0x34c7c3502f3e74e9ee5de368b917c69a9fc0f1eeca3427dff763d8b971634866",
      "s": "0x2a630b0030caf956568b9b501d070930f41f428e8d43c3a2e5ce26cada4e9793",
      "v": 27,
      "creates": null,
      "raw": "0xf86e820fd6850de409ff2e8255f094fee4deb01301a2633e0046305a31fca8d04f416c883521d1c41fc29a28801ba034c7c3502f3e74e9ee5de368b917c69a9fc0f1eeca3427dff763d8b971634866a02a630b0030caf956568b9b501d070930f41f428e8d43c3a2e5ce26cada4e9793",
      "networkId": 0,
      "chainId": 0
    },
    {
      "hash": "0x727677014497e6befa94e887b11773c42d9ee3d30a4963e4105184f984f13585",
      "blockHash": "0x497396d4128d023dbdfcb1fdc77f8c1e2d1728d9155cd5ee40bba4aec659dca5",
      "blockNumber": 105378,
      "transactionIndex": 8,
      "confirmations": null,
      "from": "0xe6A7a1d47ff21B6321162AEA7C6CB457D5476Bca",
      "gasPrice": {
        "_hex": "0xde409ff2e"
      },
      "gasLimit": {
        "_hex": "0x55f0"
      },
      "to": "0xc7Dda420b6e858441b9Ea42B762dF14C59552fbb",
      "value": {
        "_hex": "0x3a956d25d66dd40c"
      },
      "nonce": 4055,
      "data": "0x",
      "r": "0x578219cd405d88bbbc05055cfaa3d006786cf1c641576b851b4762a7ed612ad9",
      "s": "0x3b7c13261db2a41ee3ee54e25579fd5c6aaa9e08bdbd55741c5552c783be2022",
      "v": 28,
      "creates": null,
      "raw": "0xf86e820fd7850de409ff2e8255f094c7dda420b6e858441b9ea42b762df14c59552fbb883a956d25d66dd40c801ca0578219cd405d88bbbc05055cfaa3d006786cf1c641576b851b4762a7ed612ad9a03b7c13261db2a41ee3ee54e25579fd5c6aaa9e08bdbd55741c5552c783be2022",
      "networkId": 0,
      "chainId": 0
    },
    {
      "hash": "0x2343313cee71fd1e5156e961cc4fad6f7eb891750a4935ef2510d63929b2652a",
      "blockHash": "0x497396d4128d023dbdfcb1fdc77f8c1e2d1728d9155cd5ee40bba4aec659dca5",
      "blockNumber": 105378,
      "transactionIndex": 9,
      "confirmations": null,
      "from": "0xe6A7a1d47ff21B6321162AEA7C6CB457D5476Bca",
      "gasPrice": {
        "_hex": "0xde409ff2e"
      },
      "gasLimit": {
        "_hex": "0x55f0"
      },
      "to": "0x996369610F6aF04368872864ea319A09787B608D",
      "value": {
        "_hex": "0x3c62bcd03f4507d4"
      },
      "nonce": 4056,
      "data": "0x",
      "r": "0x4594f3014b191291fbd19032db13e98d235ef4f1958cd844c2390b6f53f7bab6",
      "s": "0x599697f84197b512c1ea22936eadc61008fd9aaf193becb3df3572c59739b798",
      "v": 27,
      "creates": null,
      "raw": "0xf86e820fd8850de409ff2e8255f094996369610f6af04368872864ea319a09787b608d883c62bcd03f4507d4801ba04594f3014b191291fbd19032db13e98d235ef4f1958cd844c2390b6f53f7bab6a0599697f84197b512c1ea22936eadc61008fd9aaf193becb3df3572c59739b798",
      "networkId": 0,
      "chainId": 0
    },
    {
      "hash": "0x0d3498bf89b7b40f6e356147ef8c4d2aa40bc004661c61b8fcc7b0eb50752931",
      "blockHash": "0x497396d4128d023dbdfcb1fdc77f8c1e2d1728d9155cd5ee40bba4aec659dca5",
      "blockNumber": 105378,
      "transactionIndex": 10,
      "confirmations": null,
      "from": "0xe6A7a1d47ff21B6321162AEA7C6CB457D5476Bca",
      "gasPrice": {
        "_hex": "0xde409ff2e"
      },
      "gasLimit": {
        "_hex": "0x55f0"
      },
      "to": "0x228ed249A4299B231F83A502c12d904e48C5842c",
      "value": {
        "_hex": "0x41d18314891ada90"
      },
      "nonce": 4057,
      "data": "0x",
      "r": "0x9ca8b2018deddc80b6fa14119a3d8794ce8287fdd9355e0e4c32bb902003cbae",
      "s": "0x0031cf83955775fc04e454db46eeaa71dddd4e62e46f833cdbd8f19ec3ff941c",
      "v": 28,
      "creates": null,
      "raw": "0xf86d820fd9850de409ff2e8255f094228ed249a4299b231f83a502c12d904e48c5842c8841d18314891ada90801ca09ca8b2018deddc80b6fa14119a3d8794ce8287fdd9355e0e4c32bb902003cbae9f31cf83955775fc04e454db46eeaa71dddd4e62e46f833cdbd8f19ec3ff941c",
      "networkId": 0,
      "chainId": 0
    },
    {
      "hash": "0x3c207e51e3d185a673da439607d941e829ce17da31c703015392dbe0fe7b2010",
      "blockHash": "0x497396d4128d023dbdfcb1fdc77f8c1e2d1728d9155cd5ee40bba4aec659dca5",
      "blockNumber": 105378,
      "transactionIndex": 11,
      "confirmations": null,
      "from": "0xe6A7a1d47ff21B6321162AEA7C6CB457D5476Bca",
      "gasPrice": {
        "_hex": "0xde409ff2e"
      },
      "gasLimit": {
        "_hex": "0x55f0"
      },
      "to": "0x9DedD6eC380c0FC0058bA1c2a8035e9ba583F34F",
      "value": {
        "_hex": "0x432f2970ff7e5570"
      },
      "nonce": 4058,
      "data": "0x",
      "r": "0x3fad560f85f9db5725a6f3f1c95ffba54323bca91bf0ee90300ebf4d089feb19",
      "s": "0x125262ec3e1f81f4d49a10696a2e8e94860bc1249ae9228b53baaa2ffb831748",
      "v": 27,
      "creates": null,
      "raw": "0xf86e820fda850de409ff2e8255f0949dedd6ec380c0fc0058ba1c2a8035e9ba583f34f88432f2970ff7e5570801ba03fad560f85f9db5725a6f3f1c95ffba54323bca91bf0ee90300ebf4d089feb19a0125262ec3e1f81f4d49a10696a2e8e94860bc1249ae9228b53baaa2ffb831748",
      "networkId": 0,
      "chainId": 0
    },
    {
      "hash": "0x1b0983160eaf098f55bf25fc695fe60b3b76bfbceb7fe85e2142f3ab89c48dde",
      "blockHash": "0x497396d4128d023dbdfcb1fdc77f8c1e2d1728d9155cd5ee40bba4aec659dca5",
      "blockNumber": 105378,
      "transactionIndex": 12,
      "confirmations": null,
      "from": "0xe6A7a1d47ff21B6321162AEA7C6CB457D5476Bca",
      "gasPrice": {
        "_hex": "0xde409ff2e"
      },
      "gasLimit": {
        "_hex": "0x55f0"
      },
      "to": "0x923707da8Dd7Ff41a0bDD87b62c9E5DfA9c420a5",
      "value": {
        "_hex": "0x469f1143af0b1d20"
      },
      "nonce": 4059,
      "data": "0x",
      "r": "0x90a492f2a4464d1232bcccfb98c889c1cae844f578383e871d964039d621bb0d",
      "s": "0x608391405064718a1fe17a93a1d6b262a06003e1b7a3abfa26214127ae7c8350",
      "v": 28,
      "creates": null,
      "raw": "0xf86e820fdb850de409ff2e8255f094923707da8dd7ff41a0bdd87b62c9e5dfa9c420a588469f1143af0b1d20801ca090a492f2a4464d1232bcccfb98c889c1cae844f578383e871d964039d621bb0da0608391405064718a1fe17a93a1d6b262a06003e1b7a3abfa26214127ae7c8350",
      "networkId": 0,
      "chainId": 0
    },
    {
      "hash": "0x4a082f80bd6406a3b983786da1190ae6e6de12a39d814149867f5db0a2637d1c",
      "blockHash": "0x497396d4128d023dbdfcb1fdc77f8c1e2d1728d9155cd5ee40bba4aec659dca5",
      "blockNumber": 105378,
      "transactionIndex": 13,
      "confirmations": null,
      "from": "0xe6A7a1d47ff21B6321162AEA7C6CB457D5476Bca",
      "gasPrice": {
        "_hex": "0xde409ff2e"
      },
      "gasLimit": {
        "_hex": "0x55f0"
      },
      "to": "0xd4dc4b9843C73687bfc779afB40669da5F766Ef6",
      "value": {
        "_hex": "0x48bfdbf1bd756b68"
      },
      "nonce": 4060,
      "data": "0x",
      "r": "0xbd079d78e1d293752c473e3ac79c76f4124e3a2a742d02cd46fc139ab6cdc7a2",
      "s": "0x5e222a5f62d4e4d1d0af2f54a6bd5621e5b6d3a57e68c40e5853e20faef1f0b3",
      "v": 28,
      "creates": null,
      "raw": "0xf86e820fdc850de409ff2e8255f094d4dc4b9843c73687bfc779afb40669da5f766ef68848bfdbf1bd756b68801ca0bd079d78e1d293752c473e3ac79c76f4124e3a2a742d02cd46fc139ab6cdc7a2a05e222a5f62d4e4d1d0af2f54a6bd5621e5b6d3a57e68c40e5853e20faef1f0b3",
      "networkId": 0,
      "chainId": 0
    },
    {
      "hash": "0x8c18ef885b47e2960e03157f3894dfd198c9a8bf17067e0702de4b104d9cd6f2",
      "blockHash": "0x497396d4128d023dbdfcb1fdc77f8c1e2d1728d9155cd5ee40bba4aec659dca5",
      "blockNumber": 105378,
      "transactionIndex": 14,
      "confirmations": null,
      "from": "0xe6A7a1d47ff21B6321162AEA7C6CB457D5476Bca",
      "gasPrice": {
        "_hex": "0xde409ff2e"
      },
      "gasLimit": {
        "_hex": "0x55f0"
      },
      "to": "0xacc8dECDFDCbed202B8632947c60487494F5D2c7",
      "value": {
        "_hex": "0x4cf79f934329e090"
      },
      "nonce": 4061,
      "data": "0x",
      "r": "0x8120df231107297e6a1d0259acf0f9484bb1fc463a35e86521093031eadbad5e",
      "s": "0x5714c095e901846b0299d1c3fc2f2f8c4a28aa9d0fc75d8193b3fa28fa31528e",
      "v": 27,
      "creates": null,
      "raw": "0xf86e820fdd850de409ff2e8255f094acc8decdfdcbed202b8632947c60487494f5d2c7884cf79f934329e090801ba08120df231107297e6a1d0259acf0f9484bb1fc463a35e86521093031eadbad5ea05714c095e901846b0299d1c3fc2f2f8c4a28aa9d0fc75d8193b3fa28fa31528e",
      "networkId": 0,
      "chainId": 0
    },
    {
      "hash": "0xe698626b805c26e30d59aa9eb7c170b68fa194a74e36bb4feca1a384b3825a1d",
      "blockHash": "0x497396d4128d023dbdfcb1fdc77f8c1e2d1728d9155cd5ee40bba4aec659dca5",
      "blockNumber": 105378,
      "transactionIndex": 15,
      "confirmations": null,
      "from": "0xe6A7a1d47ff21B6321162AEA7C6CB457D5476Bca",
      "gasPrice": {
        "_hex": "0xde409ff2e"
      },
      "gasLimit": {
        "_hex": "0x55f0"
      },
      "to": "0x1c69e6202df7794272b70FaEa8f7408c856B1f08",
      "value": {
        "_hex": "0x4e67ec94ba7a5d68"
      },
      "nonce": 4062,
      "data": "0x",
      "r": "0x2826f096bbebbbbd72393435631bc0a614bf15aa22408205ded1ad337d7a11d1",
      "s": "0x3b047f7911f8effcba298989018a1d9d67b016dbf0d5148f57574baeaa118b1e",
      "v": 28,
      "creates": null,
      "raw": "0xf86e820fde850de409ff2e8255f0941c69e6202df7794272b70faea8f7408c856b1f08884e67ec94ba7a5d68801ca02826f096bbebbbbd72393435631bc0a614bf15aa22408205ded1ad337d7a11d1a03b047f7911f8effcba298989018a1d9d67b016dbf0d5148f57574baeaa118b1e",
      "networkId": 0,
      "chainId": 0
    },
    {
      "hash": "0x9476ea034364389d18bca7f652121fa531ff081395b7a8778e04b05dc52ead06",
      "blockHash": "0x497396d4128d023dbdfcb1fdc77f8c1e2d1728d9155cd5ee40bba4aec659dca5",
      "blockNumber": 105378,
      "transactionIndex": 16,
      "confirmations": null,
      "from": "0xe6A7a1d47ff21B6321162AEA7C6CB457D5476Bca",
      "gasPrice": {
        "_hex": "0xde409ff2e"
      },
      "gasLimit": {
        "_hex": "0x55f0"
      },
      "to": "0xaA35779Ef4dfBEd0B3D6F46F5f11cb86261B17A5",
      "value": {
        "_hex": "0x521411c560dbe0a0"
      },
      "nonce": 4063,
      "data": "0x",
      "r": "0x4666574dde559beffdf359d3d99c1b2e24a00b841db963b5054a625e94a57006",
      "s": "0x07312a38b4a862e96a29ef0f8b33760658cae9c36aebc3acde8d925396e16bcb",
      "v": 28,
      "creates": null,
      "raw": "0xf86e820fdf850de409ff2e8255f094aa35779ef4dfbed0b3d6f46f5f11cb86261b17a588521411c560dbe0a0801ca04666574dde559beffdf359d3d99c1b2e24a00b841db963b5054a625e94a57006a007312a38b4a862e96a29ef0f8b33760658cae9c36aebc3acde8d925396e16bcb",
      "networkId": 0,
      "chainId": 0
    },
    {
      "hash": "0xd9bf4f25f6c62b33b7b57704c644fff8692449ef0b5b5156876dfc33814fbad6",
      "blockHash": "0x497396d4128d023dbdfcb1fdc77f8c1e2d1728d9155cd5ee40bba4aec659dca5",
      "blockNumber": 105378,
      "transactionIndex": 17,
      "confirmations": null,
      "from": "0xe6A7a1d47ff21B6321162AEA7C6CB457D5476Bca",
      "gasPrice": {
        "_hex": "0xde409ff2e"
      },
      "gasLimit": {
        "_hex": "0x55f0"
      },
      "to": "0xc08E05f51581aDA37f9DD2edbF7a68fE7E199D55",
      "value": {
        "_hex": "0x5c89feec33586510"
      },
      "nonce": 4064,
      "data": "0x",
      "r": "0x7110bc3f704c476d75e9c2cf88b875f4678b9395b708561d37d74387180edac2",
      "s": "0x47404de3e725d93fdebeed1c1e69d35ef2400e8940f364c9941aa5adc7c581d0",
      "v": 27,
      "creates": null,
      "raw": "0xf86e820fe0850de409ff2e8255f094c08e05f51581ada37f9dd2edbf7a68fe7e199d55885c89feec33586510801ba07110bc3f704c476d75e9c2cf88b875f4678b9395b708561d37d74387180edac2a047404de3e725d93fdebeed1c1e69d35ef2400e8940f364c9941aa5adc7c581d0",
      "networkId": 0,
      "chainId": 0
    },
    {
      "hash": "0xc753b184c9f37790184712833569f78da90a56c397e0539964291386b9342148",
      "blockHash": "0x497396d4128d023dbdfcb1fdc77f8c1e2d1728d9155cd5ee40bba4aec659dca5",
      "blockNumber": 105378,
      "transactionIndex": 18,
      "confirmations": null,
      "from": "0xe6A7a1d47ff21B6321162AEA7C6CB457D5476Bca",
      "gasPrice": {
        "_hex": "0xde409ff2e"
      },
      "gasLimit": {
        "_hex": "0x55f0"
      },
      "to": "0x8421b6810A1aee71B0baa38D7E1b5de6f71245d2",
      "value": {
        "_hex": "0x5d1c9030ba540598"
      },
      "nonce": 4065,
      "data": "0x",
      "r": "0x46794c25f5fe0bb2cf8525b573bf454112198edfb1876c6b7c3cfa7f6730dfe7",
      "s": "0x708329f484864e28811cdbeac0d475fad68790aa55f45abd9c78d4f81f8c7a3e",
      "v": 27,
      "creates": null,
      "raw": "0xf86e820fe1850de409ff2e8255f0948421b6810a1aee71b0baa38d7e1b5de6f71245d2885d1c9030ba540598801ba046794c25f5fe0bb2cf8525b573bf454112198edfb1876c6b7c3cfa7f6730dfe7a0708329f484864e28811cdbeac0d475fad68790aa55f45abd9c78d4f81f8c7a3e",
      "networkId": 0,
      "chainId": 0
    },
    {
      "hash": "0x9d02a85f86ea9fee68dfe60d6851196b4c7c49267460666c4192a1f11f110653",
      "blockHash": "0x497396d4128d023dbdfcb1fdc77f8c1e2d1728d9155cd5ee40bba4aec659dca5",
      "blockNumber": 105378,
      "transactionIndex": 19,
      "confirmations": null,
      "from": "0xe6A7a1d47ff21B6321162AEA7C6CB457D5476Bca",
      "gasPrice": {
        "_hex": "0xde409ff2e"
      },
      "gasLimit": {
        "_hex": "0x55f0"
      },
      "to": "0xEa5b801969342B44467C9dE87fEfE2C1dB740bd4",
      "value": {
        "_hex": "0x6fade3d72439ffd8"
      },
      "nonce": 4066,
      "data": "0x",
      "r": "0x5591b67c709b1b3a17468183840f58acef6c718f4172b2f3d5b0a04a6801d0b6",
      "s": "0x547b2f95a1a107545a2686ff4f12eb391e4d274a640ca3aa4b973a907575adff",
      "v": 28,
      "creates": null,
      "raw": "0xf86e820fe2850de409ff2e8255f094ea5b801969342b44467c9de87fefe2c1db740bd4886fade3d72439ffd8801ca05591b67c709b1b3a17468183840f58acef6c718f4172b2f3d5b0a04a6801d0b6a0547b2f95a1a107545a2686ff4f12eb391e4d274a640ca3aa4b973a907575adff",
      "networkId": 0,
      "chainId": 0
    },
    {
      "hash": "0xe950cafbe4494042602462d15eb42787d356670335378f4cd709b40a691a931b",
      "blockHash": "0x497396d4128d023dbdfcb1fdc77f8c1e2d1728d9155cd5ee40bba4aec659dca5",
      "blockNumber": 105378,
      "transactionIndex": 20,
      "confirmations": null,
      "from": "0xe6A7a1d47ff21B6321162AEA7C6CB457D5476Bca",
      "gasPrice": {
        "_hex": "0xde409ff2e"
      },
      "gasLimit": {
        "_hex": "0x55f0"
      },
      "to": "0xB5ebc1ED9a468C33fceC311Cf6AAb5d07774F0ea",
      "value": {
        "_hex": "0x83410c82b033f0a0"
      },
      "nonce": 4067,
      "data": "0x",
      "r": "0x776000a2d7a53fdf58f44f6572843489de1373699c293c433e57e2971911dc73",
      "s": "0x71a0f189801fcfa1cc77dc8b95d276060addf326816aee093e545db84b4a2c73",
      "v": 28,
      "creates": null,
      "raw": "0xf86e820fe3850de409ff2e8255f094b5ebc1ed9a468c33fcec311cf6aab5d07774f0ea8883410c82b033f0a0801ca0776000a2d7a53fdf58f44f6572843489de1373699c293c433e57e2971911dc73a071a0f189801fcfa1cc77dc8b95d276060addf326816aee093e545db84b4a2c73",
      "networkId": 0,
      "chainId": 0
    },
    {
      "hash": "0x544d8f0b53e9b224a8a93fecf66cdc09a0f26ccb518560b187e4773e28b39eee",
      "blockHash": "0x497396d4128d023dbdfcb1fdc77f8c1e2d1728d9155cd5ee40bba4aec659dca5",
      "blockNumber": 105378,
      "transactionIndex": 21,
      "confirmations": null,
      "from": "0xe6A7a1d47ff21B6321162AEA7C6CB457D5476Bca",
      "gasPrice": {
        "_hex": "0xde409ff2e"
      },
      "gasLimit": {
        "_hex": "0x55f0"
      },
      "to": "0xec4B2cCFC84A4C62d73D56c44917986aAAaEe10f",
      "value": {
        "_hex": "0x83ea16be6c6ca570"
      },
      "nonce": 4068,
      "data": "0x",
      "r": "0x8ce758786e96a9987f32e183224d734b58e2fa9a9094188b8bd0f1b68961f0d1",
      "s": "0x099164e682bd22ef9180173581e850bb1f374141fef0771a7cb4ce29e32fc4ef",
      "v": 27,
      "creates": null,
      "raw": "0xf86e820fe4850de409ff2e8255f094ec4b2ccfc84a4c62d73d56c44917986aaaaee10f8883ea16be6c6ca570801ba08ce758786e96a9987f32e183224d734b58e2fa9a9094188b8bd0f1b68961f0d1a0099164e682bd22ef9180173581e850bb1f374141fef0771a7cb4ce29e32fc4ef",
      "networkId": 0,
      "chainId": 0
    },
    {
      "hash": "0x285358077141e290711eef9686dc1d03656fb05df3eafaec43a5b8240eb01b94",
      "blockHash": "0x497396d4128d023dbdfcb1fdc77f8c1e2d1728d9155cd5ee40bba4aec659dca5",
      "blockNumber": 105378,
      "transactionIndex": 22,
      "confirmations": null,
      "from": "0xe6A7a1d47ff21B6321162AEA7C6CB457D5476Bca",
      "gasPrice": {
        "_hex": "0xde409ff2e"
      },
      "gasLimit": {
        "_hex": "0x55f0"
      },
      "to": "0xcCA04dde313A912347DBE3b8f78E73Ab14B51CbE",
      "value": {
        "_hex": "0x975aeaac58ca5940"
      },
      "nonce": 4069,
      "data": "0x",
      "r": "0x5da2da0e10741f7d4e89e9c480e92dfbbefb99a14f9b9e41acd88fe3d20767c9",
      "s": "0x580a19afb422d5a9827b0790510e4b7fce0785ca5e051aa404f481238c461fc5",
      "v": 28,
      "creates": null,
      "raw": "0xf86e820fe5850de409ff2e8255f094cca04dde313a912347dbe3b8f78e73ab14b51cbe88975aeaac58ca5940801ca05da2da0e10741f7d4e89e9c480e92dfbbefb99a14f9b9e41acd88fe3d20767c9a0580a19afb422d5a9827b0790510e4b7fce0785ca5e051aa404f481238c461fc5",
      "networkId": 0,
      "chainId": 0
    },
    {
      "hash": "0x6ff0be65ae829893c326d989d144ca83b4c6e2f19d0f31b8df1c188b3a50646a",
      "blockHash": "0x497396d4128d023dbdfcb1fdc77f8c1e2d1728d9155cd5ee40bba4aec659dca5",
      "blockNumber": 105378,
      "transactionIndex": 23,
      "confirmations": null,
      "from": "0xe6A7a1d47ff21B6321162AEA7C6CB457D5476Bca",
      "gasPrice": {
        "_hex": "0xde409ff2e"
      },
      "gasLimit": {
        "_hex": "0x55f0"
      },
      "to": "0x99181ED48C7c51532622dA23e20E2B38392476A7",
      "value": {
        "_hex": "0xc602f4c1388e9718"
      },
      "nonce": 4070,
      "data": "0x",
      "r": "0xf265caf359c6cda2fed1f4a8dd5246114174b4cc04763d3bc38e8acbd110da9b",
      "s": "0x0d0b101548b379a57a2883d0742075b241b290181c816fc85b089fb81ca9d9db",
      "v": 28,
      "creates": null,
      "raw": "0xf86e820fe6850de409ff2e8255f09499181ed48c7c51532622da23e20e2b38392476a788c602f4c1388e9718801ca0f265caf359c6cda2fed1f4a8dd5246114174b4cc04763d3bc38e8acbd110da9ba00d0b101548b379a57a2883d0742075b241b290181c816fc85b089fb81ca9d9db",
      "networkId": 0,
      "chainId": 0
    },
    {
      "hash": "0x5eb5b0f68cda89fcd00a045f238c9bfab52c1c15b0e7610dbfbf7741b8b209ac",
      "blockHash": "0x497396d4128d023dbdfcb1fdc77f8c1e2d1728d9155cd5ee40bba4aec659dca5",
      "blockNumber": 105378,
      "transactionIndex": 24,
      "confirmations": null,
      "from": "0xe6A7a1d47ff21B6321162AEA7C6CB457D5476Bca",
      "gasPrice": {
        "_hex": "0xde409ff2e"
      },
      "gasLimit": {
        "_hex": "0x55f0"
      },
      "to": "0x72E9B6674F1F4eb48556178f40657D8f129bFb79",
      "value": {
        "_hex": "0xe0560110e785a8d8"
      },
      "nonce": 4071,
      "data": "0x",
      "r": "0x1b46a3ae2d51fbb30d4cecd0991f9f592f61e4684dca7d53745c499885b41c51",
      "s": "0x2fd205be1470e370c24396259c99bc22db1c781dd81c4d3e14be8b38c20cb212",
      "v": 27,
      "creates": null,
      "raw": "0xf86e820fe7850de409ff2e8255f09472e9b6674f1f4eb48556178f40657d8f129bfb7988e0560110e785a8d8801ba01b46a3ae2d51fbb30d4cecd0991f9f592f61e4684dca7d53745c499885b41c51a02fd205be1470e370c24396259c99bc22db1c781dd81c4d3e14be8b38c20cb212",
      "networkId": 0,
      "chainId": 0
    },
    {
      "hash": "0x84966dea6d519010d200df834e29160ba316fbb13248aeeb257fdec356ef9d9f",
      "blockHash": "0x497396d4128d023dbdfcb1fdc77f8c1e2d1728d9155cd5ee40bba4aec659dca5",
      "blockNumber": 105378,
      "transactionIndex": 25,
      "confirmations": null,
      "from": "0xe6A7a1d47ff21B6321162AEA7C6CB457D5476Bca",
      "gasPrice": {
        "_hex": "0xde409ff2e"
      },
      "gasLimit": {
        "_hex": "0x55f0"
      },
      "to": "0xE6D67E3661E28eE2DfC1c68D5DeeA3C3bB880059",
      "value": {
        "_hex": "0x1023473365521fa80"
      },
      "nonce": 4072,
      "data": "0x",
      "r": "0x7a7cdfb498cc8161820fa5a455192f847bc61d708483c169bbded01375b08efd",
      "s": "0x2bcdab4ccc0465bdea227162d670f0402e69efc2fc3b1e23e1fe15fda6b73e02",
      "v": 28,
      "creates": null,
      "raw": "0xf86f820fe8850de409ff2e8255f094e6d67e3661e28ee2dfc1c68d5deea3c3bb8800598901023473365521fa80801ca07a7cdfb498cc8161820fa5a455192f847bc61d708483c169bbded01375b08efda02bcdab4ccc0465bdea227162d670f0402e69efc2fc3b1e23e1fe15fda6b73e02",
      "networkId": 0,
      "chainId": 0
    },
    {
      "hash": "0x41ed581b248ec3df643ee90c878ebce05759097c1bc83714f3554e2cc8c5c731",
      "blockHash": "0x497396d4128d023dbdfcb1fdc77f8c1e2d1728d9155cd5ee40bba4aec659dca5",
      "blockNumber": 105378,
      "transactionIndex": 26,
      "confirmations": null,
      "from": "0xe6A7a1d47ff21B6321162AEA7C6CB457D5476Bca",
      "gasPrice": {
        "_hex": "0xdc1796f07"
      },
      "gasLimit": {
        "_hex": "0x55f0"
      },
      "to": "0x04a6c6a293340Fc3f2244D097b0CFD84d5317bA5",
      "value": {
        "_hex": "0x23f8849d996a77460"
      },
      "nonce": 4073,
      "data": "0x",
      "r": "0x35df1a3ab64eaf5338ee2a792cf9c983ea7bbccc269fc041100e10dfd228d6b1",
      "s": "0x63c0e9a51a8171244c13ed3b66a6b07b7ebd4134d32ac6a50b7a9de547ee40c0",
      "v": 28,
      "creates": null,
      "raw": "0xf86f820fe9850dc1796f078255f09404a6c6a293340fc3f2244d097b0cfd84d5317ba589023f8849d996a77460801ca035df1a3ab64eaf5338ee2a792cf9c983ea7bbccc269fc041100e10dfd228d6b1a063c0e9a51a8171244c13ed3b66a6b07b7ebd4134d32ac6a50b7a9de547ee40c0",
      "networkId": 0,
      "chainId": 0
    },
    {
      "hash": "0x6b35349ee85013fcf4672960250f7bbd3fbfe3171c77bc66e2d129c049dddd2a",
      "blockHash": "0x497396d4128d023dbdfcb1fdc77f8c1e2d1728d9155cd5ee40bba4aec659dca5",
      "blockNumber": 105378,
      "transactionIndex": 27,
      "confirmations": null,
      "from": "0xe6A7a1d47ff21B6321162AEA7C6CB457D5476Bca",
      "gasPrice": {
        "_hex": "0xdc1796f07"
      },
      "gasLimit": {
        "_hex": "0x55f0"
      },
      "to": "0xdCB14605B0EE4F372D223e5DF87aa9e760886D01",
      "value": {
        "_hex": "0x2fe5666d3be718a40"
      },
      "nonce": 4074,
      "data": "0x",
      "r": "0x6b1eba719d9294823717e309560f3d4fb2127ec89901c66080a26fba835dd332",
      "s": "0x503c409a59ac05d762a3c795553d9155de48c02c7e2a29ff11f933a509fdc342",
      "v": 27,
      "creates": null,
      "raw": "0xf86f820fea850dc1796f078255f094dcb14605b0ee4f372d223e5df87aa9e760886d018902fe5666d3be718a40801ba06b1eba719d9294823717e309560f3d4fb2127ec89901c66080a26fba835dd332a0503c409a59ac05d762a3c795553d9155de48c02c7e2a29ff11f933a509fdc342",
      "networkId": 0,
      "chainId": 0
    },
    {
      "hash": "0xd4bf1c9262384a9fae43a6fe95200520f1249900a453e1d63d48a8c9cff2e6c1",
      "blockHash": "0x497396d4128d023dbdfcb1fdc77f8c1e2d1728d9155cd5ee40bba4aec659dca5",
      "blockNumber": 105378,
      "transactionIndex": 28,
      "confirmations": null,
      "from": "0xe6A7a1d47ff21B6321162AEA7C6CB457D5476Bca",
      "gasPrice": {
        "_hex": "0xdc1796f07"
      },
      "gasLimit": {
        "_hex": "0x55f0"
      },
      "to": "0x3222BA3F3e79eA0e31467EEE7639B57923558cCD",
      "value": {
        "_hex": "0x463a48a6e1d754500"
      },
      "nonce": 4075,
      "data": "0x",
      "r": "0x7594c4d6bbd91429b5a5677f216b3aaf24f723096bdda7df03b8b94127d91738",
      "s": "0x1ce18e56b0aca848bdd7ae1617e6e911041176b84f5562980b4eb79f8b5be70c",
      "v": 28,
      "creates": null,
      "raw": "0xf86f820feb850dc1796f078255f0943222ba3f3e79ea0e31467eee7639b57923558ccd890463a48a6e1d754500801ca07594c4d6bbd91429b5a5677f216b3aaf24f723096bdda7df03b8b94127d91738a01ce18e56b0aca848bdd7ae1617e6e911041176b84f5562980b4eb79f8b5be70c",
      "networkId": 0,
      "chainId": 0
    },
    {
      "hash": "0x76dcc04ca3e949e0c31777a0149518f7a84ec69513bc83c5e47e86a76cc0f258",
      "blockHash": "0x497396d4128d023dbdfcb1fdc77f8c1e2d1728d9155cd5ee40bba4aec659dca5",
      "blockNumber": 105378,
      "transactionIndex": 29,
      "confirmations": null,
      "from": "0xe6A7a1d47ff21B6321162AEA7C6CB457D5476Bca",
      "gasPrice": {
        "_hex": "0xdc1796f07"
      },
      "gasLimit": {
        "_hex": "0x55f0"
      },
      "to": "0x097738363B1662599ad0777E19461601F5EC8dF9",
      "value": {
        "_hex": "0x7e4fb8e037a7bb8a0"
      },
      "nonce": 4076,
      "data": "0x",
      "r": "0xa950af648d9fb2672c03dc3b951447dc728173ee637fa0ee9e8c8e0c2f81590a",
      "s": "0x43f07f9e0d109e47e98bb88a2b880aca6a3782b1ad997a8008b5dc8db3ef04d6",
      "v": 28,
      "creates": null,
      "raw": "0xf86f820fec850dc1796f078255f094097738363b1662599ad0777e19461601f5ec8df98907e4fb8e037a7bb8a0801ca0a950af648d9fb2672c03dc3b951447dc728173ee637fa0ee9e8c8e0c2f81590aa043f07f9e0d109e47e98bb88a2b880aca6a3782b1ad997a8008b5dc8db3ef04d6",
      "networkId": 0,
      "chainId": 0
    },
    {
      "hash": "0xf1d38c3e09d1df03adddef9cedb2652b5f9b7d190be0f99d6f31f29bffa213d7",
      "blockHash": "0x497396d4128d023dbdfcb1fdc77f8c1e2d1728d9155cd5ee40bba4aec659dca5",
      "blockNumber": 105378,
      "transactionIndex": 30,
      "confirmations": null,
      "from": "0xe6A7a1d47ff21B6321162AEA7C6CB457D5476Bca",
      "gasPrice": {
        "_hex": "0xdc1796f07"
      },
      "gasLimit": {
        "_hex": "0x55f0"
      },
      "to": "0x0912001e29BbaF75C23069A22D9B9602BE86FEB7",
      "value": {
        "_hex": "0xe984f5149d3f7b700"
      },
      "nonce": 4077,
      "data": "0x",
      "r": "0x026a2decfc414dce9c56feb3d11d787fb077bbde85c8d4819afe6c257a5bbf3f",
      "s": "0x14ef17191596e7056bc93b0a9cc4ac2c790ef05f2f827cc831b0bb7d57f64e7e",
      "v": 28,
      "creates": null,
      "raw": "0xf86f820fed850dc1796f078255f0940912001e29bbaf75c23069a22d9b9602be86feb7890e984f5149d3f7b700801ca0026a2decfc414dce9c56feb3d11d787fb077bbde85c8d4819afe6c257a5bbf3fa014ef17191596e7056bc93b0a9cc4ac2c790ef05f2f827cc831b0bb7d57f64e7e",
      "networkId": 0,
      "chainId": 0
    }
  ]
}