{
  "hash": "0x728f7d08142f2d0004323d32299d67b5bf445b62014e2f174ddd5a792aefd66b",
  "parentHash": "0xe567540f905d68c04335a228fed4bc36daf04138fed59567663ad3d6b1470276",
  "number": 93945,
  "timestamp": 1439700168,
  "nonce": "0x9fbe6adfc6894218",
  "difficulty": 3485162732796,
  "gasLimit": {
    "_hex": "0x2fefd8"
  },
  "gasUsed": {
    "_hex": "0x14820"
  },
  "miner": "0xA560c68C8252c7BA1cA82B9C5C0d15CBa39c039b",
  "extraData": "0x",
  "transactions": [
    {
      "hash": "0x1abf25bdedb78deaa96b404a5299e8ed15f71c35e848e934214c5826609218aa",
      "blockHash": "0x728f7d08142f2d0004323d32299d67b5bf445b62014e2f174ddd5a792aefd66b",
      "blockNumber": 93945,
      "transactionIndex": 0,
      "confirmations": null,
      "from": "0x007f7f58D3eb5b7510A301eCC749FC1fCDDBE14D",
      "gasPrice": {
        "_hex": "0xcfa82ac37"
      },
      "gasLimit": {
        "_hex": "0x15f90"
      },
      "to": "0xb1abce2918E21ddb93AA452731a12672A3d9F75a",
      "value": {
        "_hex": "0x4563918244f40000"
      },
      "nonce": 16,
      "data": "0x",
      "r": "0x7dd2f637bd93f1ca13314b774237c271865d4083b083c7274a87e5d3837cb66b",
      "s": "0x412b52bfcb278e50e3a6cd37b3dce9b9501933ab1ac2a602ceb4566f4dcd3125",
      "v": 27,
      "creates": null,
      "raw": "0xf86d10850cfa82ac3783015f9094b1abce2918e21ddb93aa452731a12672a3d9f75a884563918244f40000801ba07dd2f637bd93f1ca13314b774237c271865d4083b083c7274a87e5d3837cb66ba0412b52bfcb278e50e3a6cd37b3dce9b9501933ab1ac2a602ceb4566f4dcd3125",
      "networkId": 0,
      "chainId": 0
    },
    {
      "hash": "0x7086d8364cefe8017c1d6f1b4a44f641d37b4fae415b03e29ba7150e5fa265b4",
      "blockHash": "0x728f7d08142f2d0004323d32299d67b5bf445b62014e2f174ddd5a792aefd66b",
      "blockNumber": 93945,
      "transactionIndex": 1,
      "confirmations": null,
      "from": "0x007f7f58D3eb5b7510A301eCC749FC1fCDDBE14D",
      "gasPrice": {
        "_hex": "0xcfa82ac37"
      },
      "gasLimit": {
        "_hex": "0x15f90"
      },
      "to": "0xb1abce2918E21ddb93AA452731a12672A3d9F75a",
      "value": {
        "_hex": "0x4563918244f40000"
      },
      "nonce": 17,
      "data": "0x",
      "r": "0x39a1f791e680e6975242d25b4a61b5572006039115a41991b6c29346cc169a1f",
      "s": "0x2d8603f29b7b9446ce7c49c743590049bef32c6dfeab4457bf1e1aaa4ec30b04",
      "v": 28,
      "creates": null,
      "raw": "0xf86d11850cfa82ac3783015f9094b1abce2918e21ddb93aa452731a12672a3d9f75a884563918244f40000801ca039a1f791e680e6975242d25b4a61b5572006039115a41991b6c29346cc169a1fa02d8603f29b7b9446ce7c49c743590049bef32c6dfeab4457bf1e1aaa4ec30b04",
      "networkId": 0,
      "chainId": 0
    },
    {
      "hash": "0xa6b9ed385f33ac6e7bcc6eef3c265074b642183fa27a33b60021e33e51b4b779",
      "blockHash": "0x728f7d08142f2d0004323d32299d67b5bf445b62014e2f174ddd5a792aefd66b",
      "blockNumber": 93945,
      "transactionIndex": 2,
      "confirmations": null,
      "from": "0x007f7f58D3eb5b7510A301eCC749FC1fCDDBE14D",
      "gasPrice": {
        "_hex": "0xcfa82ac37"
      },
      "gasLimit": {
        "_hex": "0x15f90"
      },
      "to": "0xb1abce2918E21ddb93AA452731a12672A3d9F75a",
      "value": {
        "_hex": "0x4563918244f40000"
      },
      "nonce": 18,
      "data": "0x",
      "r": "0x14739489876c317d2921cfc3151ef05c087dc6e8a4af06f277090abf0320c1b8",
      "s": "0x7c052f577b9fba2b975fb822f087e0776c0e89ad12ce4ae6c499b1795b7d16bf",
      "v": 28,
      "creates": null,
      "raw": "0xf86d12850cfa82ac3783015f9094b1abce2918e21ddb93aa452731a12672a3d9f75a884563918244f40000801ca014739489876c317d2921cfc3151ef05c087dc6e8a4af06f277090abf0320c1b8a07c052f577b9fba2b975fb822f087e0776c0e89ad12ce4ae6c499b1795b7d16bf",
      "networkId": 0,
      "chainId": 0
    },
    {
      "hash": "0xb9a4ce31dda03e191540c2eedd5c84f04499796cc9e29bb05a9f8f1005b212b4",
      "blockHash": "0x728f7d08142f2d0004323d32299d67b5bf445b62014e2f174ddd5a792aefd66b",
      "blockNumber": 93945,
      "transactionIndex": 3,
      "confirmations": null,
      "from": "0x007f7f58D3eb5b7510A301eCC749FC1fCDDBE14D",
      "gasPrice": {
        "_hex": "0xcfa82ac37"
      },
      "gasLimit": {
        "_hex": "0x15f90"
      },
      "to": "0xb1abce2918E21ddb93AA452731a12672A3d9F75a",
      "value": {
        "_hex": "0x4563918244f40000"
      },
      "nonce": 19,
      "data": "0x",
      "r": "0xd9e7a343382b607522afa2848c0842146e8bd3516db6b317b0a507fc76daa778",
      "s": "0x587da384a971d3a0acf7a88a65e05a8b7eedb7a2c1ccffdb0cba7df19afe0cd9",
      "v": 28,
      "creates": null,
      "raw": "0xf86d13850cfa82ac3783015f9094b1abce2918e21ddb93aa452731a12672a3d9f75a884563918244f40000801ca0d9e7a343382b607522afa2848c0842146e8bd3516db6b317b0a507fc76daa778a0587da384a971d3a0acf7a88a65e05a8b7eedb7a2c1ccffdb0cba7df19afe0cd9",
      "networkId": 0,
      "chainId": 0
    }
  ]
}