{
  "hash": "0xfd9c4eff458db11224526f3f5b2f1aee08e51290ba6aa6ac4dec994de3fb0b3d",
  "parentHash": "0x90419ba62f7a6dfc8d0f34450c50a84f94cda5a19f4df0d14580880f1b542844",
  "number": 117932,
  "timestamp": 1440117767,
  "nonce": "0x173d724904adfbb9",
  "difficulty": 4344018379752,
  "gasLimit": {
    "_hex": "0x2fefd8"
  },
  "gasUsed": {
    "_hex": "0xf618"
  },
  "miner": "0xD0ee3F53eE0fCf3F9fbCcdd17BD1b6441DdC2074",
  "extraData": "0x",
  "transactions": [
    {
      "hash": "0xa8411c558b2c58975ae1503f3adad429b026244beb262815345e6ec9c1661cf2",
      "blockHash": "0xfd9c4eff458db11224526f3f5b2f1aee08e51290ba6aa6ac4dec994de3fb0b3d",
      "blockNumber": 117932,
      "transactionIndex": 0,
      "confirmations": null,
      "from": "0x295f7067f6e4182a32a4eFF344Af3daADFdE10E5",
      "gasPrice": {
        "_hex": "0xba43b7400"
      },
      "gasLimit": {
        "_hex": "0x5208"
      },
      "to": "0x32Be343B94f860124dC4fEe278FDCBD38C102D88",
      "value": {
        "_hex": "0x1100bc44d74201000"
      },
      "nonce": 4,
      "data": "0x",
      "r": "0x2bbc740d7357422cf5b33a34228a776664f518c48b6c6290e7f75ed4893318df",
      "s": "0x6b5dca4adb3d2f0af5b817ef1f8be0636fdc9fc8f7fce463a0308afe886189a6",
      "v": 28,
      "creates": null,
      "raw": "0xf86d04850ba43b74008252089432be343b94f860124dc4fee278fdcbd38c102d888901100bc44d74201000801ca02bbc740d7357422cf5b33a34228a776664f518c48b6c6290e7f75ed4893318dfa06b5dca4adb3d2f0af5b817ef1f8be0636fdc9fc8f7fce463a0308afe886189a6",
      "networkId": 0,
      "chainId": 0
    },
    {
      "hash": "0x2b4666af4d8003cfbefe3cc486c8ee61c180a330fe647376ff1e43828ded8e08",
      "blockHash": "0xfd9c4eff458db11224526f3f5b2f1aee08e51290ba6aa6ac4dec994de3fb0b3d",
      "blockNumber": 117932,
      "transactionIndex": 1,
      "confirmations": null,
      "from": "0xA338ba84d5d4734988a5Ed5CabC55ed61371e198",
      "gasPrice": {
        "_hex": "0xba43b7400"
      },
      "gasLimit": {
        "_hex": "0x5208"
      },
      "to": "0x32Be343B94f860124dC4fEe278FDCBD38C102D88",
      "value": {
        "_hex": "0x8f6011e4e62f6800"
      },
      "nonce": 3,
      "data": "0x",
      "r": "0x060bbc8c3b0ae2c00679c403306b1ad6e60f98319652f71b238e305559beeb23",
      "s": "0x0807403cd5f3fe4db5bc6d834b5e35c9e00d14498db59f2a14f26b77438c1e57",
      "v": 27,
      "creates": null,
      "raw": "0xf86c03850ba43b74008252089432be343b94f860124dc4fee278fdcbd38c102d88888f6011e4e62f6800801ba0060bbc8c3b0ae2c00679c403306b1ad6e60f98319652f71b238e305559beeb23a00807403cd5f3fe4db5bc6d834b5e35c9e00d14498db59f2a14f26b77438c1e57",
      "networkId": 0,
      "chainId": 0
    },
    {
      "hash": "0x61431c62d380f4e2513475847453697d217abe471658e619c270b56b2392f114",
      "blockHash": "0xfd9c4eff458db11224526f3f5b2f1aee08e51290ba6aa6ac4dec994de3fb0b3d",
      "blockNumber": 117932,
      "transactionIndex": 2,
      "confirmations": null,
      "from": "0x58cAfc9A3273821ec5691840ABfc256952Df94B8",
      "gasPrice": {
        "_hex": "0xba43b7400"
      },
      "gasLimit": {
        "_hex": "0x5208"
      },
      "to": "0x32Be343B94f860124dC4fEe278FDCBD38C102D88",
      "value": {
        "_hex": "0xa9e6b01706e9e000"
      },
      "nonce": 3,
      "data": "0x",
      "r": "0x5b1c59851ff9ab14f7309de53fa3c22d7d5fee79461b2271f0b604537e40b1f1",
      "s": "0x5ce73c1ffba9eb46e5005ebd4bfa9bb7c7fb9718f8757bdbf958d3b1c77aedca",
      "v": 27,
      "creates": null,
      "raw": "0xf86c03850ba43b74008252089432be343b94f860124dc4fee278fdcbd38c102d8888a9e6b01706e9e000801ba05b1c59851ff9ab14f7309de53fa3c22d7d5fee79461b2271f0b604537e40b1f1a05ce73c1ffba9eb46e5005ebd4bfa9bb7c7fb9718f8757bdbf958d3b1c77aedca",
      "networkId": 0,
      "chainId": 0
    }
  ]
}