{
  "hash": "0x5508345a3e72919663f1aec7356f8d375244689c317b5ff916108e68ec2d1ad8",
  "parentHash": "0xf83ff1760c589006d62c9f2edcb7fd57d9eed1d792b29b8873f6924bed22c8f4",
  "number": 94264,
  "timestamp": 1439705425,
  "nonce": "0x21fe581a4b9cf9b6",
  "difficulty": 3469748729065,
  "gasLimit": {
    "_hex": "0x2fefd5"
  },
  "gasUsed": {
    "_hex": "0x5208"
  },
  "miner": "0x9D49F602b0fdb924Bd63DDE2Bd0907E4A07c63a7",
  "extraData": "0x476574682f76312e302e312f6c696e75782f676f312e342e32",
  "transactions": [
    {
      "hash": "0x910755dbaadd5e01389eebe73ae527823f10ef0e4aca0d5c8f2e103470685ec8",
      "blockHash": "0x5508345a3e72919663f1aec7356f8d375244689c317b5ff916108e68ec2d1ad8",
      "blockNumber": 94264,
      "transactionIndex": 0,
      "confirmations": null,
      "from": "0x77EC9ad4A7E9418774C29415CAaF4Ee0da96eF64",
      "gasPrice": {
        "_hex": "0xd5317495f"
      },
      "gasLimit": {
        "_hex": "0x15f90"
      },
      "to": "0x6A8CC233E14F874983bB2F37D1DE706f6910Ef0b",
      "value": {
        "_hex": "0xcbd47b6eaa8cc0000"
      },
      "nonce": 1,
      "data": "0x",
      "r": "0xe709de89d6e1b675f73e315a47793753d1bb34a4234ca4d8a3ea6f49856d1143",
      "s": "0x70ba755b383b5b8d65cbe35292e098fedd8c41c7225b473a4c6db1808ba72ae2",
      "v": 28,
      "creates": null,
      "raw": "0xf86e01850d5317495f83015f90946a8cc233e14f874983bb2f37d1de706f6910ef0b890cbd47b6eaa8cc0000801ca0e709de89d6e1b675f73e315a47793753d1bb34a4234ca4d8a3ea6f49856d1143a070ba755b383b5b8d65cbe35292e098fedd8c41c7225b473a4c6db1808ba72ae2",
      "networkId": 0,
      "chainId": 0
    }
  ]
}