{
  "hash": "0xb0f74b4bee2613c5e2360afec62ad093d0da1f57d61d4f3568e5bf32cc3cafb4",
  "parentHash": "0xa8d764fdba29c9b8ccb7065f417f114063131d464f90880124a7c6921e8d71de",
  "number": 100547,
  "timestamp": 1439808270,
  "nonce": "0x5aac020d30131ccb",
  "difficulty": 3824691176824,
  "gasLimit": {
    "_hex": "0x2fefd8"
  },
  "gasUsed": {
    "_hex": "0x5208"
  },
  "miner": "0xe6A7a1d47ff21B6321162AEA7C6CB457D5476Bca",
  "extraData": "0x476574682f76312e302e312d38326566323666362f6c696e75782f676f312e34",
  "transactions": [
    {
      "hash": "0xc98b965a7d692d9be6a2b67af3ffebc3195a05b9d71889dc9431a9f465bac6b9",
      "blockHash": "0xb0f74b4bee2613c5e2360afec62ad093d0da1f57d61d4f3568e5bf32cc3cafb4",
      "blockNumber": 100547,
      "transactionIndex": 0,
      "confirmations": null,
      "from": "0x007f7f58D3eb5b7510A301eCC749FC1fCDDBE14D",
      "gasPrice": {
        "_hex": "0xe0cfe7246"
      },
      "gasLimit": {
        "_hex": "0x15f90"
      },
      "to": "0xb1abce2918E21ddb93AA452731a12672A3d9F75a",
      "value": {
        "_hex": "0x4563918244f40000"
      },
      "nonce": 166,
      "data": "0x",
      "r": "0x1322e63b954740d269fd83d16d22297d25232c64e08a122fc18e863f834f090e",
      "s": "0x64f6bfc8d37a1b482cd007c4a3ef92f1d8568c1610538ad10682c8a8fac2977f",
      "v": 27,
      "creates": null,
      "raw": "0xf86e81a6850e0cfe724683015f9094b1abce2918e21ddb93aa452731a12672a3d9f75a884563918244f40000801ba01322e63b954740d269fd83d16d22297d25232c64e08a122fc18e863f834f090ea064f6bfc8d37a1b482cd007c4a3ef92f1d8568c1610538ad10682c8a8fac2977f",
      "networkId": 0,
      "chainId": 0
    }
  ]
}