{
  "hash": "0xfae876a0562824466d7763364144325e1ff393d65502bf3dbfab70f48505705b",
  "parentHash": "0x1cce234f17b3f4f62b666c3e10480e9618c854a9df8a7c33c26208141b8f7681",
  "number": 64225,
  "timestamp": 1439217291,
  "nonce": "0x722a84102a37f994",
  "difficulty": 1877586690881,
  "gasLimit": {
    "_hex": "0x2fefd8"
  },
  "gasUsed": {
    "_hex": "0x5208"
  },
  "miner": "0x6e8514a1a6cB23D6fF33f62fFAbBa5172417cCEA",
  "extraData": "0x",
  "transactions": [
    {
      "hash": "0xda2560e89dbc3356ef294c3293caad5bee1a75bd80afc473c3a8347feb1ab0a0",
      "blockHash": "0xfae876a0562824466d7763364144325e1ff393d65502bf3dbfab70f48505705b",
      "blockNumber": 64225,
      "transactionIndex": 0,
      "confirmations": null,
      "from": "0x6866e5e1FaBB4AbceF3EEb9Ea0d8CD6b52dfC9FF",
      "gasPrice": {
        "_hex": "0xd6008eca8"
      },
      "gasLimit": {
        "_hex": "0x15f90"
      },
      "to": "0x01Ad0ACFf478127D9d702B1A13599D706cB759b1",
      "value": {
        "_hex": "0x4563918244f40000"
      },
      "nonce": 4,
      "data": "0x",
      "r": "0x13095c1cdbd497e3629b387949c0dc43cb3c651f48dd71d9c7ca18684e3adfd0",
      "s": "0x5246383a9719464c5f634014cf8a0bf5df302359d251f342ca91c94f606ef8f8",
      "v": 27,
      "creates": null,
      "raw": "0xf86d04850d6008eca883015f909401ad0acff478127d9d702b1a13599d706cb759b1884563918244f40000801ba013095c1cdbd497e3629b387949c0dc43cb3c651f48dd71d9c7ca18684e3adfd0a05246383a9719464c5f634014cf8a0bf5df302359d251f342ca91c94f606ef8f8",
      "networkId": 0,
      "chainId": 0
    }
  ]
}