{
  "hash": "0xb607931040c7c1fb159f99215e6dffa4b458656e315835c85f958e08bb728c5b",
  "parentHash": "0x5a0778fe2d01d8afac733597aa2718c4ba8e962f79b873c4cddabac7b73cb668",
  "number": 51391,
  "timestamp": 1439004121,
  "nonce": "0x1d668268624c13ad",
  "difficulty": 1566588002221,
  "gasLimit": {
    "_hex": "0xab7b3"
  },
  "gasUsed": {
    "_hex": "0x7a120"
  },
  "miner": "0x29D19206747E4Db867186f5899D9F7188DF153F6",
  "extraData": "0x",
  "transactions": [
    {
      "hash": "0xb81da86a139f1d25a34c937a17bc0fb02fd7ad266130484c949b1b64054e9794",
      "blockHash": "0xb607931040c7c1fb159f99215e6dffa4b458656e315835c85f958e08bb728c5b",
      "blockNumber": 51391,
      "transactionIndex": 0,
      "confirmations": null,
      "from": "0xFCf9f6A78f06227522c6f948ec0119dA31680Ef7",
      "gasPrice": {
        "_hex": "0xe633060ce"
      },
      "gasLimit": {
        "_hex": "0x7a120"
      },
      "to": "0x109C4f2CCc82C4d77Bde15F306707320294Aea3F",
      "value": {
        "_hex": "0xde0b6b3a7640000"
      },
      "nonce": 10,
      "data": "0x",
      "r": "0xa99eabe249e60de7788e988502813f225e8783af3c196a7a68cfcd91e9014d22",
      "s": "0x7af716c26e89583e3b14e7cccdefe70f324fd5e07f099bc5d92bc276b913a7ab",
      "v": 27,
      "creates": null,
      "raw": "0xf86d0a850e633060ce8307a12094109c4f2ccc82c4d77bde15f306707320294aea3f880de0b6b3a7640000801ba0a99eabe249e60de7788e988502813f225e8783af3c196a7a68cfcd91e9014d22a07af716c26e89583e3b14e7cccdefe70f324fd5e07f099bc5d92bc276b913a7ab",
      "networkId": 0,
      "chainId": 0
    }
  ]
}