{
  "hash": "0xd7de3ac44bd047b7b6572d02727ae49d166b7d88e82db39c9788c3c56577e553",
  "parentHash": "0xa5f1b979736bf312b16b85bfbf4f16758ceef15dbfc57557028e1c2a5bd42e1f",
  "number": 64407,
  "timestamp": 1439220188,
  "nonce": "0xa399dd57d8a409a2",
  "difficulty": 1873882451605,
  "gasLimit": {
    "_hex": "0x2fefd8"
  },
  "gasUsed": {
    "_hex": "0xa410"
  },
  "miner": "0xf927a40C8B7F6E07c5af7FA2155B4864a4112B13",
  "extraData": "0x",
  "transactions": [
    {
      "hash": "0xddf26372bce127b4c7547588c248adbc39874815dafc75405c7fed6ce2c7a34b",
      "blockHash": "0xd7de3ac44bd047b7b6572d02727ae49d166b7d88e82db39c9788c3c56577e553",
      "blockNumber": 64407,
      "transactionIndex": 0,
      "confirmations": null,
      "from": "0xdD81AaddCc8448A5fC0ac28DB93ec6801C21E8Ef",
      "gasPrice": {
        "_hex": "0xd9cc72a83"
      },
      "gasLimit": {
        "_hex": "0x5208"
      },
      "to": "0x32Be343B94f860124dC4fEe278FDCBD38C102D88",
      "value": {
        "_hex": "0x22b182f6e00f4a000"
      },
      "nonce": 3,
      "data": "0x",
      "r": "0xc6d7f1e54a78ad869abaa3529498a6ad886f3eb3ce1109d45ad8003457bfd6dd",
      "s": "0x2f44474f25f45be8aaf9cc84f07300f5908be280533a3403f23c2b38174d0fd3",
      "v": 27,
      "creates": null,
      "raw": "0xf86d03850d9cc72a838252089432be343b94f860124dc4fee278fdcbd38c102d8889022b182f6e00f4a000801ba0c6d7f1e54a78ad869abaa3529498a6ad886f3eb3ce1109d45ad8003457bfd6dda02f44474f25f45be8aaf9cc84f07300f5908be280533a3403f23c2b38174d0fd3",
      "networkId": 0,
      "chainId": 0
    },
    {
      "hash": "0x06a299dc499d895e9db8b9a5484f7a0bb2fc7f228acc678d219fcec586438b50",
      "blockHash": "0xd7de3ac44bd047b7b6572d02727ae49d166b7d88e82db39c9788c3c56577e553",
      "blockNumber": 64407,
      "transactionIndex": 1,
      "confirmations": null,
      "from": "0x3F98e477a361F777DA14611a7e419A75Fd238b6b",
      "gasPrice": {
        "_hex": "0xd2d973ca7"
      },
      "gasLimit": {
        "_hex": "0x15f90"
      },
      "to": "0x097738363B1662599ad0777E19461601F5EC8dF9",
      "value": {
        "_hex": "0x1043561a8829300000"
      },
      "nonce": 12,
      "data": "0x",
      "r": "0xc13120aabe1d0fbb9528a638c436757802947e00e6579d4f93fa1860da7e9d5f",
      "s": "0x1a979b96d3a73799453738121f4cdf901414bf5fd2c1a84802cc2fc94618c366",
      "v": 28,
      "creates": null,
      "raw": "0xf86e0c850d2d973ca783015f9094097738363b1662599ad0777e19461601f5ec8df9891043561a8829300000801ca0c13120aabe1d0fbb9528a638c436757802947e00e6579d4f93fa1860da7e9d5fa01a979b96d3a73799453738121f4cdf901414bf5fd2c1a84802cc2fc94618c366",
      "networkId": 0,
      "chainId": 0
    }
  ]
}