{
  "hash": "0xa85842a20755232169db76c5bd4ad4672c1551fca4b07d0bd139cd0e6fef684d",
  "parentHash": "0xc751d07fca9ff9bf7b1bee2625dc028608ec20bab292a8e52d3247785fad3cdd",
  "number": 47204,
  "timestamp": 1438935987,
  "nonce": "0x169b5bc47fdac77f",
  "difficulty": 1461663122693,
  "gasLimit": {
    "_hex": "0xa271"
  },
  "gasUsed": {
    "_hex": "0x5208"
  },
  "miner": "0xC0EdE9a639d107851462c15f2fb729c7c61bBf62",
  "extraData": "0x476574682f76312e302e312f6c696e75782f676f312e342e32",
  "transactions": [
    {
      "hash": "0x22f9724050cad0d6ece9e01eeb868f94a1b7fd990136a70b10285868e10c53ea",
      "blockHash": "0xa85842a20755232169db76c5bd4ad4672c1551fca4b07d0bd139cd0e6fef684d",
      "blockNumber": 47204,
      "transactionIndex": 0,
      "confirmations": null,
      "from": "0x7d7e7c61779adB7706C94D32409A2bb4E994bf60",
      "gasPrice": {
        "_hex": "0x2ba7def3000"
      },
      "gasLimit": {
        "_hex": "0x5208"
      },
      "to": "0x734B61f8167583Fcd27c677b8dB9369C6A3d0689",
      "value": {
        "_hex": "0x38d7ea4c68000"
      },
      "nonce": 2,
      "data": "0x",
      "r": "0x986fabd58794a4e60aa7a13b8890deb90231399b6fbdd43f0a45353a380df11f",
      "s": "0x25c90eee4ef6b05f075a1b4606b1a97e2b2dc91762655b3e91f4d24542f2cf6c",
      "v": 27,
      "creates": null,
      "raw": "0xf86c028602ba7def300082520894734b61f8167583fcd27c677b8db9369c6a3d068987038d7ea4c68000801ba0986fabd58794a4e60aa7a13b8890deb90231399b6fbdd43f0a45353a380df11fa025c90eee4ef6b05f075a1b4606b1a97e2b2dc91762655b3e91f4d24542f2cf6c",
      "networkId": 0,
      "chainId": 0
    }
  ]
}