{
  "hash": "0xe23cdbe51897d9bed4569906a96afd7419405fd51b7bdea04be0e46daf14404f",
  "parentHash": "0xb75e88eabb0351a2d220909a0a0cf62fd5019543d158fc6f149045a8a533466b",
  "number": 102299,
  "timestamp": 1439835824,
  "nonce": "0xaafaad8d2549f5e4",
  "difficulty": 3929894667642,
  "gasLimit": {
    "_hex": "0x2fefd8"
  },
  "gasUsed": {
    "_hex": "0x5208"
  },
  "miner": "0xe6A7a1d47ff21B6321162AEA7C6CB457D5476Bca",
  "extraData": "0x476574682f76312e302e312d38326566323666362f6c696e75782f676f312e34",
  "transactions": [
    {
      "hash": "0xd9638fd426391825ebb3593817f13158c93f89dc3d5c0649fca4f70320f85c5a",
      "blockHash": "0xe23cdbe51897d9bed4569906a96afd7419405fd51b7bdea04be0e46daf14404f",
      "blockNumber": 102299,
      "transactionIndex": 0,
      "confirmations": null,
      "from": "0x94045ffcd478a2F8719D1bAA44674971afE4D38A",
      "gasPrice": {
        "_hex": "0xd1f217cbf"
      },
      "gasLimit": {
        "_hex": "0x15f90"
      },
      "to": "0x99EeA495a82E66C97304a6b07FA8Cb29eeb781A5",
      "value": {
        "_hex": "0x1e71c400840360000"
      },
      "nonce": 1,
      "data": "0x",
      "r": "0xea8ecd3c12ee01650fb5ef143f87738ee6476914f84da27cbfe5f066aed0ddd6",
      "s": "0x124fae89602453cd396d144b7dcc424d414c0ab1df38bbc220fdd45332f75332",
      "v": 27,
      "creates": null,
      "raw": "0xf86e01850d1f217cbf83015f909499eea495a82e66c97304a6b07fa8cb29eeb781a58901e71c400840360000801ba0ea8ecd3c12ee01650fb5ef143f87738ee6476914f84da27cbfe5f066aed0ddd6a0124fae89602453cd396d144b7dcc424d414c0ab1df38bbc220fdd45332f75332",
      "networkId": 0,
      "chainId": 0
    }
  ]
}