{
  "hash": "0xcde3fb1200af0e0df528d6f65e172e2da62cf4ced9bd41a5e9b2f1412877e96c",
  "parentHash": "0xefc706290f596e0ab22ac3629fea1752439d1f9bf85d33c81987972bbb8b40a8",
  "number": 106162,
  "timestamp": 1439899595,
  "nonce": "0x8b9a857cd451e5aa",
  "difficulty": 4479447820663,
  "gasLimit": {
    "_hex": "0x2fefd8"
  },
  "gasUsed": {
    "_hex": "0x5208"
  },
  "miner": "0xa50ec0D39fa913E62f1Bae7074E6F36caA71855b",
  "extraData": "0xd783010001844765746887676f312e342e32856c696e7578",
  "transactions": [
    {
      "hash": "0xd8e644c6502399776ef1edbd60ad4de2544e365c8c45bca189eb2cd4308de1ed",
      "blockHash": "0xcde3fb1200af0e0df528d6f65e172e2da62cf4ced9bd41a5e9b2f1412877e96c",
      "blockNumber": 106162,
      "transactionIndex": 0,
      "confirmations": null,
      "from": "0x32Be343B94f860124dC4fEe278FDCBD38C102D88",
      "gasPrice": {
        "_hex": "0xd74d70b57"
      },
      "gasLimit": {
        "_hex": "0x5208"
      },
      "to": "0x1261A4Ab33Df25bdf1Dc8922c51266a9b4bE9179",
      "value": {
        "_hex": "0x840c12165dd78000"
      },
      "nonce": 1185,
      "data": "0x",
      "r": "0xa6cfa8ec53d08c6b999dacf66c95be769fb2ff407f7bfc537bea10fe50482b85",
      "s": "0x5b5874826803f8ed8f68220ed766a1b4994e96b910e27df38b9461988a77476e",
      "v": 27,
      "creates": null,
      "raw": "0xf86e8204a1850d74d70b57825208941261a4ab33df25bdf1dc8922c51266a9b4be917988840c12165dd78000801ba0a6cfa8ec53d08c6b999dacf66c95be769fb2ff407f7bfc537bea10fe50482b85a05b5874826803f8ed8f68220ed766a1b4994e96b910e27df38b9461988a77476e",
      "networkId": 0,
      "chainId": 0
    }
  ]
}