{
  "hash": "0x707d8faafb0e85383f813527d64fab43989bf4afcd85b2d80b05d2078bc4e90f",
  "parentHash": "0xeaabd3026e0710fda91a71471654849a04e67cf2a24839417069b2aa3b1c15b0",
  "number": 68619,
  "timestamp": 1439290861,
  "nonce": "0x00eebf8e9fab65ea",
  "difficulty": 2021181471570,
  "gasLimit": {
    "_hex": "0x2fefd8"
  },
  "gasUsed": {
    "_hex": "0x29040"
  },
  "miner": "0x70C6b45fe0A5116E97B112B806A76E2F51E24413",
  "extraData": "0x476574682f76312e302e312f77696e646f77732f676f312e342e32",
  "transactions": [
    {
      "hash": "0x9723a0df6ec5ab5fb40c702be31989d672e155d58e9cc7a8cd1a01257a8f98dd",
      "blockHash": "0x707d8faafb0e85383f813527d64fab43989bf4afcd85b2d80b05d2078bc4e90f",
      "blockNumber": 68619,
      "transactionIndex": 0,
      "confirmations": null,
      "from": "0x96811Ad897894eC178872117C8BF2f03971A393B",
      "gasPrice": {
        "_hex": "0xe2f394aeb"
      },
      "gasLimit": {
        "_hex": "0x5208"
      },
      "to": "0x32Be343B94f860124dC4fEe278FDCBD38C102D88",
      "value": {
        "_hex": "0x1037f335a1d770000"
      },
      "nonce": 11,
      "data": "0x",
      "r": "0xa976981ac2958fd0ee825fe48164838002469399a918704f57ded7c30fb435bf",
      "s": "0x43d39de104aa4e2167f77bcb7db6305bc3602d90f928b8e194cd5e0ba10bf546",
      "v": 27,
      "creates": null,
      "raw": "0xf86d0b850e2f394aeb8252089432be343b94f860124dc4fee278fdcbd38c102d888901037f335a1d770000801ba0a976981ac2958fd0ee825fe48164838002469399a918704f57ded7c30fb435bfa043d39de104aa4e2167f77bcb7db6305bc3602d90f928b8e194cd5e0ba10bf546",
      "networkId": 0,
      "chainId": 0
    },
    {
      "hash": "0x324aaf0b3636c53a659becb12248d5f794ee490253cfe1b574dd481c318190af",
      "blockHash": "0x707d8faafb0e85383f813527d64fab43989bf4afcd85b2d80b05d2078bc4e90f",
      "blockNumber": 68619,
      "transactionIndex": 1,
      "confirmations": null,
      "from": "0xEC141ED29e960B93f72CD70721D0d7f64532E94f",
      "gasPrice": {
        "_hex": "0xba43b7400"
      },
      "gasLimit": {
        "_hex": "0x5208"
      },
      "to": "0xBAA7974F0A2876A6C269C2B2B4b4546c45E14386",
      "value": {
        "_hex": "0x13572147582a000"
      },
      "nonce": 1,
      "data": "0x",
      "r": "0x6a2ad1dc8986a8d65f2053dbe1876f1a7633504d074f2c83dacc50a362720bd9",
      "s": "0x06ca7e1a20cdb93a10edf155fde9d1e13ca0dc334eaa14c3b817b899f17a3aea",
      "v": 27,
      "creates": null,
      "raw": "0xf86c01850ba43b740082520894baa7974f0a2876a6c269c2b2b4b4546c45e1438688013572147582a000801ba06a2ad1dc8986a8d65f2053dbe1876f1a7633504d074f2c83dacc50a362720bd9a006ca7e1a20cdb93a10edf155fde9d1e13ca0dc334eaa14c3b817b899f17a3aea",
      "networkId": 0,
      "chainId": 0
    },
    {
      "hash": "0x8d65327d14cea111f5f682dc53758a1ea9409723d922e2c53d71f360c3ac6e66",
      "blockHash": "0x707d8faafb0e85383f813527d64fab43989bf4afcd85b2d80b05d2078bc4e90f",
      "blockNumber": 68619,
      "transactionIndex": 2,
      "confirmations": null,
      "from": "0x3109638D5DD274F79D1D0aAE4efB01b4aC8d98f7",
      "gasPrice": {
        "_hex": "0xba43b7400"
      },
      "gasLimit": {
        "_hex": "0x5208"
      },
      "to": "0xb57F7057cbFed7fe42Fa6B0F4495032BfCAB782B",
      "value": {
        "_hex": "0x13572147582a000"
      },
      "nonce": 1,
      "data": "0x",
      "r": "0x9f790f5313ff8145762e7f42a3d0df004ca7051c4b6623efedab1555fdfad880",
      "s": "0x78b9fd7b4a632a057b34b446eb29fdf08ce81d3160c7f668334427fe969a28e9",
      "v": 27,
      "creates": null,
      "raw": "0xf86c01850ba43b740082520894b57f7057cbfed7fe42fa6b0f4495032bfcab782b88013572147582a000801ba09f790f5313ff8145762e7f42a3d0df004ca7051c4b6623efedab1555fdfad880a078b9fd7b4a632a057b34b446eb29fdf08ce81d3160c7f668334427fe969a28e9",
      "networkId": 0,
      "chainId": 0
    },
    {
      "hash": "0x49a6276b73b2b4a295fc4d8f51266b22477dc638010bb2f3abdb3fbdb8ad8125",
      "blockHash": "0x707d8faafb0e85383f813527d64fab43989bf4afcd85b2d80b05d2078bc4e90f",
      "blockNumber": 68619,
      "transactionIndex": 3,
      "confirmations": null,
      "from": "0x5B640CAcD1Be583fB4B55667cd423a87DacF0763",
      "gasPrice": {
        "_hex": "0xba43b7400"
      },
      "gasLimit": {
        "_hex": "0x5208"
      },
      "to": "0x6b6A3407FD51ec9664E7d094C648C793c6D7FF14",
      "value": {
        "_hex": "0x13572147582a000"
      },
      "nonce": 1,
      "data": "0x",
      "r": "0x1b1de71786d0799d3f48c445c800b0fa7ef30f37cc36813b29d23f71b1e5e8a0",
      "s": "0x6dfd133b7076aacf2129c98c6aeb02af2a906de5e373a79725137badb662bd99",
      "v": 27,
      "creates": null,
      "raw": "0xf86c01850ba43b7400825208946b6a3407fd51ec9664e7d094c648c793c6d7ff1488013572147582a000801ba01b1de71786d0799d3f48c445c800b0fa7ef30f37cc36813b29d23f71b1e5e8a0a06dfd133b7076aacf2129c98c6aeb02af2a906de5e373a79725137badb662bd99",
      "networkId": 0,
      "chainId": 0
    },
    {
      "hash": "0x00d80821ecc0a6ef20fd70707dbb00e844e505ce41b2e2f5a56d0cd3f66f79fb",
      "blockHash": "0x707d8faafb0e85383f813527d64fab43989bf4afcd85b2d80b05d2078bc4e90f",
      "blockNumber": 68619,
      "transactionIndex": 4,
      "confirmations": null,
      "from": "0xcf2FC960Da75c0bA178AE7a7B38E4245c788BD2c",
      "gasPrice": {
        "_hex": "0xba43b7400"
      },
      "gasLimit": {
        "_hex": "0x5208"
      },
      "to": "0xfe812c2F33C9F1c5DC96634B19d40E0bFeD62543",
      "value": {
        "_hex": "0x13572147582a000"
      },
      "nonce": 1,
      "data": "0x",
      "r": "0xab157b3e90064fa4748e7a67643fc33882d5a5df601be2bb953483123d1967b2",
      "s": "0x1ac6de6596769fd9d914c222f570b5f2a41ced026472481f711363cc51902022",
      "v": 27,
      "creates": null,
      "raw": "0xf86c01850ba43b740082520894fe812c2f33c9f1c5dc96634b19d40e0bfed6254388013572147582a000801ba0ab157b3e90064fa4748e7a67643fc33882d5a5df601be2bb953483123d1967b2a01ac6de6596769fd9d914c222f570b5f2a41ced026472481f711363cc51902022",
      "networkId": 0,
      "chainId": 0
    },
    {
      "hash": "0x44b6a7bd7744072626c360d0c8df7d82d68484eb8b08efa7f39ba2ed4b30e7a8",
      "blockHash": "0x707d8faafb0e85383f813527d64fab43989bf4afcd85b2d80b05d2078bc4e90f",
      "blockNumber": 68619,
      "transactionIndex": 5,
      "confirmations": null,
      "from": "0x5ccA9fD3Ade1BDacC509EF84D39e8353f78271E4",
      "gasPrice": {
        "_hex": "0xba43b7400"
      },
      "gasLimit": {
        "_hex": "0x5208"
      },
      "to": "0xB92f012aEBaE32FB8aac968497722E66d63f2558",
      "value": {
        "_hex": "0x13572147582a000"
      },
      "nonce": 1,
      "data": "0x",
      "r": "0x181852503c0b422dbfd9ccae4e5fb4b1cac1073587145ed18db26ef660fcc333",
      "s": "0x7268b2ce96d3a8c5b6177a8219f89ced43810cac636fd01c4f2d49cf5dd8d292",
      "v": 27,
      "creates": null,
      "raw": "0xf86c01850ba43b740082520894b92f012aebae32fb8aac968497722e66d63f255888013572147582a000801ba0181852503c0b422dbfd9ccae4e5fb4b1cac1073587145ed18db26ef660fcc333a07268b2ce96d3a8c5b6177a8219f89ced43810cac636fd01c4f2d49cf5dd8d292",
      "networkId": 0,
      "chainId": 0
    },
    {
      "hash": "0x0ed4cc8d3702699793030e2cdc61aacc7dc1582a5003c373b77147f64ed4e165",
      "blockHash": "0x707d8faafb0e85383f813527d64fab43989bf4afcd85b2d80b05d2078bc4e90f",
      "blockNumber": 68619,
      "transactionIndex": 6,
      "confirmations": null,
      "from": "0x7998Ecb59fC0a080520aC686E222e9b3c9DbB0Bd",
      "gasPrice": {
        "_hex": "0xba43b7400"
      },
      "gasLimit": {
        "_hex": "0x5208"
      },
      "to": "0x835D417794F96824eAdfF239227Ca51Ac4Cc522a",
      "value": {
        "_hex": "0x13572147582a000"
      },
      "nonce": 1,
      "data": "0x",
      "r": "0x5a59de953b05fabf03296cbd01ce813e627a37737980539b284331dd1fb9d71e",
      "s": "0x33c0201eda2f42cf0ebdf8c4cb3bc4493aa09cf79356a708eb7409c50b90edbf",
      "v": 28,
      "creates": null,
      "raw": "0xf86c01850ba43b740082520894835d417794f96824eadff239227ca51ac4cc522a88013572147582a000801ca05a59de953b05fabf03296cbd01ce813e627a37737980539b284331dd1fb9d71ea033c0201eda2f42cf0ebdf8c4cb3bc4493aa09cf79356a708eb7409c50b90edbf",
      "networkId": 0,
      "chainId": 0
    },
    {
      "hash": "0xdf3b6eaae02828bba23e128a79478f5af53c54fad2c6da6d50d5fab991432ace",
      "blockHash": "0x707d8faafb0e85383f813527d64fab43989bf4afcd85b2d80b05d2078bc4e90f",
      "blockNumber": 68619,
      "transactionIndex": 7,
      "confirmations": null,
      "from": "0x47489ee0b2D039fe7916eeE9bF2c1564dD0f93D2",
      "gasPrice": {
        "_hex": "0xba43b7400"
      },
      "gasLimit": {
        "_hex": "0x5208"
      },
      "to": "0xbcFE2F138aEd5E8106e82deE370A8A2BBD5cba92",
      "value": {
        "_hex": "0x13572147582a000"
      },
      "nonce": 1,
      "data": "0x",
      "r": "0x389f943b08438c3120649d3663880918b2cd5e73ba806212b07560e620f2dfc1",
      "s": "0x0e9efc62a83eb28c1fd021d6c268a7247e54788ad1216e81376c258a9aa0ea8b",
      "v": 27,
      "creates": null,
      "raw": "0xf86c01850ba43b740082520894bcfe2f138aed5e8106e82dee370a8a2bbd5cba9288013572147582a000801ba0389f943b08438c3120649d3663880918b2cd5e73ba806212b07560e620f2dfc1a00e9efc62a83eb28c1fd021d6c268a7247e54788ad1216e81376c258a9aa0ea8b",
      "networkId": 0,
      "chainId": 0
    }
  ]
}