{
  "hash": "0xaa26ee3b5ce62b6e8a9bbbd92effba634ff71612e4cf0e6a75c9a6cc7759059e",
  "parentHash": "0x374e36a7996e781f2ed01dfabc838a7190e92cc3849d43e25da85a3d997e9444",
  "number": 94662,
  "timestamp": 1439711874,
  "nonce": "0xf1dc46700a94ac27",
  "difficulty": 3500212905741,
  "gasLimit": {
    "_hex": "0x2fefd8"
  },
  "gasUsed": {
    "_hex": "0x5208"
  },
  "miner": "0xe6A7a1d47ff21B6321162AEA7C6CB457D5476Bca",
  "extraData": "0x476574682f76312e302e312d38326566323666362f6c696e75782f676f312e34",
  "transactions": [
    {
      "hash": "0xe7a81a76add661ed58b241f098af7584e649b885f125d843a05f8d69bfd5fb0d",
      "blockHash": "0xaa26ee3b5ce62b6e8a9bbbd92effba634ff71612e4cf0e6a75c9a6cc7759059e",
      "blockNumber": 94662,
      "transactionIndex": 0,
      "confirmations": null,
      "from": "0xe6A7a1d47ff21B6321162AEA7C6CB457D5476Bca",
      "gasPrice": {
        "_hex": "0xd8d93cdad"
      },
      "gasLimit": {
        "_hex": "0x55f0"
      },
      "to": "0x82b25DdBdf31a6d7F0C93E1aC4c13f155AfAF7fd",
      "value": {
        "_hex": "0x8f930535f4ef7688"
      },
      "nonce": 2835,
      "data": "0x",
      "r": "0xe6f2cab205b90d849bf41416f7d213c0f3c24ecdc4b8f97f9181565dcbf64c2d",
      "s": "0x2fe693d86846a83b2cf977773e010238aecc23ff5c95e1e3bc1ec7d178bbbec0",
      "v": 27,
      "creates": null,
      "raw": "0xf86e820b13850d8d93cdad8255f09482b25ddbdf31a6d7f0c93e1ac4c13f155afaf7fd888f930535f4ef7688801ba0e6f2cab205b90d849bf41416f7d213c0f3c24ecdc4b8f97f9181565dcbf64c2da02fe693d86846a83b2cf977773e010238aecc23ff5c95e1e3bc1ec7d178bbbec0",
      "networkId": 0,
      "chainId": 0
    }
  ]
}