{
  "hash": "0xe23d51f621824cde7b1d4166b218abca1d0bfb6a5599de045e2fc39ca9c329b3",
  "parentHash": "0xe4d999d037f3fcef02c2008975e3bbbcffa6c2de6493ee3c53b0d2e89b0319e6",
  "number": 46670,
  "timestamp": 1438927188,
  "nonce": "0x0e7f85367a7908bb",
  "difficulty": 1460329372297,
  "gasLimit": {
    "_hex": "0x7019"
  },
  "gasUsed": {
    "_hex": "0x5208"
  },
  "miner": "0xe6A7a1d47ff21B6321162AEA7C6CB457D5476Bca",
  "extraData": "0x657468706f6f6c2e6f7267",
  "transactions": [
    {
      "hash": "0x9890f72c07dd764ce6b9bf0791ed18b1bfef629e3be7c633dfef3e2346835742",
      "blockHash": "0xe23d51f621824cde7b1d4166b218abca1d0bfb6a5599de045e2fc39ca9c329b3",
      "blockNumber": 46670,
      "transactionIndex": 0,
      "confirmations": null,
      "from": "0xb583f9403De6C5B2c83D7e2DE9928331176071b8",
      "gasPrice": {
        "_hex": "0xce8475f8a"
      },
      "gasLimit": {
        "_hex": "0x5208"
      },
      "to": "0x32Be343B94f860124dC4fEe278FDCBD38C102D88",
      "value": {
        "_hex": "0xddc93e534151c00"
      },
      "nonce": 0,
      "data": "0x",
      "r": "0xe1f0712adf73017540304112ddb229a66f7fbdf4b2bd504b49e380a958207787",
      "s": "0x21e1f5ea03db63d6e1a7d5b521f4276bd22363c42056f7bf813ab6d2c58c7e68",
      "v": 28,
      "creates": null,
      "raw": "0xf86c80850ce8475f8a8252089432be343b94f860124dc4fee278fdcbd38c102d88880ddc93e534151c00801ca0e1f0712adf73017540304112ddb229a66f7fbdf4b2bd504b49e380a958207787a021e1f5ea03db63d6e1a7d5b521f4276bd22363c42056f7bf813ab6d2c58c7e68",
      "networkId": 0,
      "chainId": 0
    }
  ]
}