{
  "hash": "0xd8663c4993bb44b56e154ad1478bcc538280b5a3e608ec82efa511251d8d75da",
  "parentHash": "0x74aa788bd446e4fb34239fd2148d926c8ee4818abe9cfbed69bdd89f94659ea0",
  "number": 94968,
  "timestamp": 1439716851,
  "nonce": "0x44fc0b47dc7bf6d2",
  "difficulty": 3520653741107,
  "gasLimit": {
    "_hex": "0x2fefd8"
  },
  "gasUsed": {
    "_hex": "0xa410"
  },
  "miner": "0xe6A7a1d47ff21B6321162AEA7C6CB457D5476Bca",
  "extraData": "0x476574682f76312e302e312d38326566323666362f6c696e75782f676f312e34",
  "transactions": [
    {
      "hash": "0x99be293574128fcae6e538968fc397a6cadb71a446d087897abba6535a1c84a1",
      "blockHash": "0xd8663c4993bb44b56e154ad1478bcc538280b5a3e608ec82efa511251d8d75da",
      "blockNumber": 94968,
      "transactionIndex": 0,
      "confirmations": null,
      "from": "0x6cf94E97b229262AF23908265c2cf7e810686fa7",
      "gasPrice": {
        "_hex": "0xda34732db"
      },
      "gasLimit": {
        "_hex": "0x15f90"
      },
      "to": "0xD913f0771949753c4726ACAA2bD3619C5C20FF77",
      "value": {
        "_hex": "0x33c39f3cd4350000"
      },
      "nonce": 3,
      "data": "0x",
      "r": "0xd8a10c9160702a7c75f35ab82612089e0f1a03f951bcc2cdfbcae4cd0590e60b",
      "s": "0x53d987c9fbdb07f77c6768816a7a37f6d14404e75745f6130eef4361ab9ee235",
      "v": 28,
      "creates": null,
      "raw": "0xf86d03850da34732db83015f9094d913f0771949753c4726acaa2bd3619c5c20ff778833c39f3cd4350000801ca0d8a10c9160702a7c75f35ab82612089e0f1a03f951bcc2cdfbcae4cd0590e60ba053d987c9fbdb07f77c6768816a7a37f6d14404e75745f6130eef4361ab9ee235",
      "networkId": 0,
      "chainId": 0
    },
    {
      "hash": "0xf91dad3bf3d63959ad05dc6ecbc0f40c51f5a77907a91be6ff4bce878183f265",
      "blockHash": "0xd8663c4993bb44b56e154ad1478bcc538280b5a3e608ec82efa511251d8d75da",
      "blockNumber": 94968,
      "transactionIndex": 1,
      "confirmations": null,
      "from": "0x9943C02b44B13e025fc0B938790F5d336BD920f9",
      "gasPrice": {
        "_hex": "0xd125120bc"
      },
      "gasLimit": {
        "_hex": "0x15f90"
      },
      "to": "0x23f2D0fd3B4C98Fb1698564deB4898275E2e831f",
      "value": {
        "_hex": "0x4563918244f40000"
      },
      "nonce": 4,
      "data": "0x",
      "r": "0x29df23843e9ad49718222c4d12d79646f44366f31d230e0fd55410b03195036f",
      "s": "0x71e861d844307eee3ca0c8016a96ea1afd959069a45d2df8cc8f601cbb12a907",
      "v": 28,
      "creates": null,
      "raw": "0xf86d04850d125120bc83015f909423f2d0fd3b4c98fb1698564deb4898275e2e831f884563918244f40000801ca029df23843e9ad49718222c4d12d79646f44366f31d230e0fd55410b03195036fa071e861d844307eee3ca0c8016a96ea1afd959069a45d2df8cc8f601cbb12a907",
      "networkId": 0,
      "chainId": 0
    }
  ]
}