{
  "hash": "0x73e1b2b7f2724df0e12491d595d0796bf599615a6e9b955725e54d54eadb76e7",
  "parentHash": "0xc72a0412b2414bc9de8491b28c75d1a9ea6dc0cfce42dd75e0ee932aaab6d59a",
  "number": 76366,
  "timestamp": 1439419235,
  "nonce": "0xc0fdea310235c192",
  "difficulty": 2227552060641,
  "gasLimit": {
    "_hex": "0x2fefd8"
  },
  "gasUsed": {
    "_hex": "0x12568"
  },
  "miner": "0xBD744E3F13D79B33F6c8E1d5E32F8E9BA2866c46",
  "extraData": "0x476574682f76312e302e312d39613032663533372f6c696e75782f676f312e34",
  "transactions": [
    {
      "hash": "0x40b62b361602c1c3721288f8603749a61f1184e9643d56c9b897acd267db2d44",
      "blockHash": "0x73e1b2b7f2724df0e12491d595d0796bf599615a6e9b955725e54d54eadb76e7",
      "blockNumber": 76366,
      "transactionIndex": 0,
      "confirmations": null,
      "from": "0x0e320219838E859b2F9f18B72e3d4073cA50B37D",
      "gasPrice": {
        "_hex": "0xd7d56985a"
      },
      "gasLimit": {
        "_hex": "0x2dc6c0"
      },
      "to": "0x35E57F2b08596f1946ECD9D31975eC3c2D7e1C1D",
      "value": {
        "_hex": "0x0"
      },
      "nonce": 11,
      "data": "0xc0336629",
      "r": "0x22ac8776b1508b7b0217096288213576e59421233606011db3806172685d12bf",
      "s": "0x2b6047f283639bb329f0d4ebf15e7f11c7bad192cd431f11018e547c0560c644",
      "v": 27,
      "creates": null,
      "raw": "0xf8690b850d7d56985a832dc6c09435e57f2b08596f1946ecd9d31975ec3c2d7e1c1d8084c03366291ba022ac8776b1508b7b0217096288213576e59421233606011db3806172685d12bfa02b6047f283639bb329f0d4ebf15e7f11c7bad192cd431f11018e547c0560c644",
      "networkId": 0,
      "chainId": 0
    }
  ]
}