{
  "hash": "0x540faacd52748f7cd2d003f82156ef4fcb1dd4dfe18e5dea417b7fe2bf23d903",
  "parentHash": "0xb4a1346b89adb2fcd9777ea5df70833177942218b59d7a7159347c7478856eb4",
  "number": 118618,
  "timestamp": 1440128795,
  "nonce": "0xfba6a1713597d4fb",
  "difficulty": 4335187712688,
  "gasLimit": {
    "_hex": "0x2fefd8"
  },
  "gasUsed": {
    "_hex": "0xf618"
  },
  "miner": "0xe6A7a1d47ff21B6321162AEA7C6CB457D5476Bca",
  "extraData": "0xd783010002844765746887676f312e342e32856c696e7578",
  "transactions": [
    {
      "hash": "0x8319e537cf966b9be999554e0e7eac9aae0cf713766b44f0e920202b3eab3d27",
      "blockHash": "0x540faacd52748f7cd2d003f82156ef4fcb1dd4dfe18e5dea417b7fe2bf23d903",
      "blockNumber": 118618,
      "transactionIndex": 0,
      "confirmations": null,
      "from": "0x40B9b889A21Ff1534d018D71Dc406122EBcf3F5A",
      "gasPrice": {
        "_hex": "0xba43b7400"
      },
      "gasLimit": {
        "_hex": "0x15f90"
      },
      "to": "0x645B979F8ce622236DB26feB803455d40C328615",
      "value": {
        "_hex": "0x3635c9adc5dea00000"
      },
      "nonce": 63,
      "data": "0x",
      "r": "0xbc2aea54e3f411df17153b6aa892e360ca6c1b7347163fde2b98f2a2155cea43",
      "s": "0x2ab5efbfccdfdbb75791f7d77027a021c75be2d579d50c84ba6300b27b4512fe",
      "v": 27,
      "creates": null,
      "raw": "0xf86e3f850ba43b740083015f9094645b979f8ce622236db26feb803455d40c328615893635c9adc5dea00000801ba0bc2aea54e3f411df17153b6aa892e360ca6c1b7347163fde2b98f2a2155cea43a02ab5efbfccdfdbb75791f7d77027a021c75be2d579d50c84ba6300b27b4512fe",
      "networkId": 0,
      "chainId": 0
    },
    {
      "hash": "0xe1fc721d65687157f132a92e3201e4a166b7bb570d3fec86185b5b8f20b4140b",
      "blockHash": "0x540faacd52748f7cd2d003f82156ef4fcb1dd4dfe18e5dea417b7fe2bf23d903",
      "blockNumber": 118618,
      "transactionIndex": 1,
      "confirmations": null,
      "from": "0x40B9b889A21Ff1534d018D71Dc406122EBcf3F5A",
      "gasPrice": {
        "_hex": "0xba43b7400"
      },
      "gasLimit": {
        "_hex": "0x15f90"
      },
      "to": "0x0BB92951EDA0205db5Aa86DCa8D391F449aEe1b9",
      "value": {
        "_hex": "0x1b1ae4d6e2ef500000"
      },
      "nonce": 64,
      "data": "0x",
      "r": "0x6c93ebfaa97d823fac8477e84840f05ee36a61ea4ed8419fb934ceea69e3ebb0",
      "s": "0x6e79bf9c47c9e6dabb294258c3c16b5564271b77f61f7f3cc696347297684d7e",
      "v": 28,
      "creates": null,
      "raw": "0xf86e40850ba43b740083015f90940bb92951eda0205db5aa86dca8d391f449aee1b9891b1ae4d6e2ef500000801ca06c93ebfaa97d823fac8477e84840f05ee36a61ea4ed8419fb934ceea69e3ebb0a06e79bf9c47c9e6dabb294258c3c16b5564271b77f61f7f3cc696347297684d7e",
      "networkId": 0,
      "chainId": 0
    },
    {
      "hash": "0x857daed444aae5445f394514ff8d33ff2dea04fa25f3d5c6ad357cd6a8b3bb18",
      "blockHash": "0x540faacd52748f7cd2d003f82156ef4fcb1dd4dfe18e5dea417b7fe2bf23d903",
      "blockNumber": 118618,
      "transactionIndex": 2,
      "confirmations": null,
      "from": "0x790b8a3cE86E707ED0eD32bF89B3269692a23CC1",
      "gasPrice": {
        "_hex": "0xba43b7400"
      },
      "gasLimit": {
        "_hex": "0x15f90"
      },
      "to": "0x4D67f4F0Db45b3B5a3424B39ed8d972F710381D5",
      "value": {
        "_hex": "0x2b480699e53fe0000"
      },
      "nonce": 64,
      "data": "0x",
      "r": "0xe375e421046417b01d33726ab82aa024c7bdf959fb30ec2ec1fe46cd6c97af11",
      "s": "0x65fe322df70ea3d77e590122096e8d581983de827a105e51062982832665dd4b",
      "v": 28,
      "creates": null,
      "raw": "0xf86e40850ba43b740083015f90944d67f4f0db45b3b5a3424b39ed8d972f710381d58902b480699e53fe0000801ca0e375e421046417b01d33726ab82aa024c7bdf959fb30ec2ec1fe46cd6c97af11a065fe322df70ea3d77e590122096e8d581983de827a105e51062982832665dd4b",
      "networkId": 0,
      "chainId": 0
    }
  ]
}