{
  "hash": "0x848c3b211c3ca29423cf171b72becd85adadfa805a947c75c993b15023eb0198",
  "parentHash": "0x5783e20de04c9d9e0bad90ddd9448a594613db83e3b5ca01bc60d495ba149521",
  "number": 122387,
  "timestamp": 1440193492,
  "nonce": "0x64f51f659fc73572",
  "difficulty": 4486099350252,
  "gasLimit": {
    "_hex": "0x2fefd8"
  },
  "gasUsed": {
    "_hex": "0xc432"
  },
  "miner": "0xf927a40C8B7F6E07c5af7FA2155B4864a4112B13",
  "extraData": "0xd783010100844765746887676f312e342e32856c696e7578",
  "transactions": [
    {
      "hash": "0x8b6fcb743569c259e3db27cb128037f953a81ac28a25a77b0ec4fc12d4bdd7c3",
      "blockHash": "0x848c3b211c3ca29423cf171b72becd85adadfa805a947c75c993b15023eb0198",
      "blockNumber": 122387,
      "transactionIndex": 0,
      "confirmations": null,
      "from": "0x276e2f360f94f35DDc4a45F16Ca8771A746a4582",
      "gasPrice": {
        "_hex": "0xd56736425"
      },
      "gasLimit": {
        "_hex": "0x15f90"
      },
      "to": "0xA1A040D54C897B7e7476CEa14525C5C2Ab7C3C00",
      "value": {
        "_hex": "0x0"
      },
      "nonce": 9,
      "data": "0x90b98a11000000000000000000000000e0381e00e1f4e8f39afebf6d93ca0c31a3b59a9f0000000000000000000000000000000000000000000000000000000000001388",
      "r": "0x8f4647f617b5cc4a254897d173be7971d5b823ab8685d4ee1d3da96abc4d5e0d",
      "s": "0x46f0885b8ddc65cfa734b78fbb7635f3f42fa9fdd02114fb695daceb7d4100f5",
      "v": 27,
      "creates": null,
      "raw": "0xf8aa09850d5673642583015f9094a1a040d54c897b7e7476cea14525c5c2ab7c3c0080b84490b98a11000000000000000000000000e0381e00e1f4e8f39afebf6d93ca0c31a3b59a9f00000000000000000000000000000000000000000000000000000000000013881ba08f4647f617b5cc4a254897d173be7971d5b823ab8685d4ee1d3da96abc4d5e0da046f0885b8ddc65cfa734b78fbb7635f3f42fa9fdd02114fb695daceb7d4100f5",
      "networkId": 0,
      "chainId": 0
    }
  ]
}