{
  "hash": "0x16358484211a797efcd7f1c9ae32ca1c43d93d850aed11f01319211a99d32698",
  "parentHash": "0xd720d7f58c1abace262370fbddc48cd65799010c3db0fe5dd5914c2663a3b1e8",
  "number": 52601,
  "timestamp": 1439024151,
  "nonce": "0xa1dc4b667da8939d",
  "difficulty": 1567892446470,
  "gasLimit": {
    "_hex": "0x161e0a"
  },
  "gasUsed": {
    "_hex": "0x546c"
  },
  "miner": "0xbcB2E3693d246E1fc00348754334BadEb88b2a11",
  "extraData": "0x476574682f76312e302e302f6c696e75782f676f312e342e32",
  "transactions": [
    {
      "hash": "0x0ebe8bc588dd88656c2eb776441e48da724442f50b2c79928800a9609ed849d7",
      "blockHash": "0x16358484211a797efcd7f1c9ae32ca1c43d93d850aed11f01319211a99d32698",
      "blockNumber": 52601,
      "transactionIndex": 0,
      "confirmations": null,
      "from": "0xc12b7F40Df9A2F7bf983661422AB84c9c1f50858",
      "gasPrice": {
        "_hex": "0x110c8f7d8de"
      },
      "gasLimit": {
        "_hex": "0xc350"
      },
      "to": "0x2910543Af39abA0Cd09dBb2D50200b3E800A63D2",
      "value": {
        "_hex": "0x1b1ae4d6e2ef500000"
      },
      "nonce": 0,
      "data": "0x454e42484e39425830",
      "r": "0x9ab3156aa92110e9c1d7d1d8b7029b1a9399d64ba8888c89d872f661f461bddb",
      "s": "0x6fd869b85dc0084806b7faee2f4247f2ba7cb5cf6f6a924ca7caea60c333b25b",
      "v": 28,
      "creates": null,
      "raw": "0xf87780860110c8f7d8de82c350942910543af39aba0cd09dbb2d50200b3e800a63d2891b1ae4d6e2ef50000089454e42484e394258301ca09ab3156aa92110e9c1d7d1d8b7029b1a9399d64ba8888c89d872f661f461bddba06fd869b85dc0084806b7faee2f4247f2ba7cb5cf6f6a924ca7caea60c333b25b",
      "networkId": 0,
      "chainId": 0
    }
  ]
}