{
  "hash": "0xc510cdbf16bbd0bed4a3facdb8ecd1b6985357187e9bc3a301c598ef0e174ca3",
  "parentHash": "0x6f980d45759704aa1412482b5576032af85ba51175bc715af68d5e015337c96a",
  "number": 97634,
  "timestamp": 1439759239,
  "nonce": "0x4defc79c014ec865",
  "difficulty": 3839119147638,
  "gasLimit": {
    "_hex": "0x2fefd8"
  },
  "gasUsed": {
    "_hex": "0x5208"
  },
  "miner": "0xe6A7a1d47ff21B6321162AEA7C6CB457D5476Bca",
  "extraData": "0x476574682f76312e302e312d38326566323666362f6c696e75782f676f312e34",
  "transactions": [
    {
      "hash": "0x2d95995f090966d4f503f562df48950cfa964822a6444a6d8fbf0e61836f6bb5",
      "blockHash": "0xc510cdbf16bbd0bed4a3facdb8ecd1b6985357187e9bc3a301c598ef0e174ca3",
      "blockNumber": 97634,
      "transactionIndex": 0,
      "confirmations": null,
      "from": "0x13aE5B35f82651Ff327d41502F0Aa90DA76D777E",
      "gasPrice": {
        "_hex": "0xd183ccb9b"
      },
      "gasLimit": {
        "_hex": "0x5208"
      },
      "to": "0x32Be343B94f860124dC4fEe278FDCBD38C102D88",
      "value": {
        "_hex": "0x455f5f54fb25f400"
      },
      "nonce": 5,
      "data": "0x",
      "r": "0x0dec6672e1cb3dcc1827803b591bf48a7ebe56c0004d69f6d8ff2ecce5d1448b",
      "s": "0x76505ccaab79651ff751602b24573d28de1d5f04e49a84a4bebe5da2d6c805a7",
      "v": 27,
      "creates": null,
      "raw": "0xf86c05850d183ccb9b8252089432be343b94f860124dc4fee278fdcbd38c102d8888455f5f54fb25f400801ba00dec6672e1cb3dcc1827803b591bf48a7ebe56c0004d69f6d8ff2ecce5d1448ba076505ccaab79651ff751602b24573d28de1d5f04e49a84a4bebe5da2d6c805a7",
      "networkId": 0,
      "chainId": 0
    }
  ]
}