{
  "hash": "0x06177549971adbb0a1d343db8b4bb9289de24b3243f5f2d8e15b6d5df75d5357",
  "parentHash": "0xd534cd6db19d5d700782a2d60352800f17eeea6f3d40fde18c9bfa52dcdedd4a",
  "number": 119382,
  "timestamp": 1440141840,
  "nonce": "0x7679b46073ea749a",
  "difficulty": 4415974453693,
  "gasLimit": {
    "_hex": "0x2fefd8"
  },
  "gasUsed": {
    "_hex": "0xa410"
  },
  "miner": "0x52bc44d5378309EE2abF1539BF71dE1b7d7bE3b5",
  "extraData": "0xd783010002844765746887676f312e342e32856c696e7578",
  "transactions": [
    {
      "hash": "0xd591a50482fba53537bca5518114072456bea9c1a36659d4a1d7025eebf0ce78",
      "blockHash": "0x06177549971adbb0a1d343db8b4bb9289de24b3243f5f2d8e15b6d5df75d5357",
      "blockNumber": 119382,
      "transactionIndex": 0,
      "confirmations": null,
      "from": "0xe6A7a1d47ff21B6321162AEA7C6CB457D5476Bca",
      "gasPrice": {
        "_hex": "0xba43b7400"
      },
      "gasLimit": {
        "_hex": "0x55f0"
      },
      "to": "0x10BD1134A760f6b35247e3cb33673a18bC95a7E7",
      "value": {
        "_hex": "0x18319f74bf5a1ff0"
      },
      "nonce": 6336,
      "data": "0x",
      "r": "0xc3f5caf202ac543f30445d5491c3aa74b943ac78c2cd995676105c3d0ddfeba2",
      "s": "0x087ba29efb9b148eadde69e0c1beeaecd6582779da44f06557e24674ca18beb0",
      "v": 28,
      "creates": null,
      "raw": "0xf86e8218c0850ba43b74008255f09410bd1134a760f6b35247e3cb33673a18bc95a7e78818319f74bf5a1ff0801ca0c3f5caf202ac543f30445d5491c3aa74b943ac78c2cd995676105c3d0ddfeba2a0087ba29efb9b148eadde69e0c1beeaecd6582779da44f06557e24674ca18beb0",
      "networkId": 0,
      "chainId": 0
    },
    {
      "hash": "0x8fe21b04defecb9158b53a5feaf7bb3a81a567b04b2ca3591cea89046e4fc800",
      "blockHash": "0x06177549971adbb0a1d343db8b4bb9289de24b3243f5f2d8e15b6d5df75d5357",
      "blockNumber": 119382,
      "transactionIndex": 1,
      "confirmations": null,
      "from": "0xe6A7a1d47ff21B6321162AEA7C6CB457D5476Bca",
      "gasPrice": {
        "_hex": "0xba43b7400"
      },
      "gasLimit": {
        "_hex": "0x55f0"
      },
      "to": "0xA1A13F48D504123E1d50e360267F894e8e43838c",
      "value": {
        "_hex": "0x18893837ebbffbec"
      },
      "nonce": 6337,
      "data": "0x",
      "r": "0xba0c803c23590a156be932689b226f6db6c46a0c631ed5d0c98e2b9e393a5926",
      "s": "0x529124c21a93a7ccebb3788845d3e2f1fc6a33614f5d7d5db67a2026f0a7c745",
      "v": 27,
      "creates": null,
      "raw": "0xf86e8218c1850ba43b74008255f094a1a13f48d504123e1d50e360267f894e8e43838c8818893837ebbffbec801ba0ba0c803c23590a156be932689b226f6db6c46a0c631ed5d0c98e2b9e393a5926a0529124c21a93a7ccebb3788845d3e2f1fc6a33614f5d7d5db67a2026f0a7c745",
      "networkId": 0,
      "chainId": 0
    }
  ]
}