{
  "hash": "0x220523034f78364eb0be40fb41e33a6603efc716a14b7a92b1f2706f28814dcb",
  "parentHash": "0xb2190cce2817f48913e02d8d3bbf835c74b017f89a7bcb4cf7dce99ca59b8be0",
  "number": 101923,
  "timestamp": 1439830056,
  "nonce": "0xc9959d469e97f967",
  "difficulty": 3907110392112,
  "gasLimit": {
    "_hex": "0x2fefd8"
  },
  "gasUsed": {
    "_hex": "0x5208"
  },
  "miner": "0x8df03bD37602d97980327B58D940258dC57007B3",
  "extraData": "0x",
  "transactions": [
    {
      "hash": "0x9b061063db14a7b834efb5a8969105fe87591bbd6207ba7cdfa24bf9a884ebb0",
      "blockHash": "0x220523034f78364eb0be40fb41e33a6603efc716a14b7a92b1f2706f28814dcb",
      "blockNumber": 101923,
      "transactionIndex": 0,
      "confirmations": null,
      "from": "0xf00955cEDD33a99B4a993aABeb4239e268aaD294",
      "gasPrice": {
        "_hex": "0xd69e5b4c4"
      },
      "gasLimit": {
        "_hex": "0x5208"
      },
      "to": "0x32Be343B94f860124dC4fEe278FDCBD38C102D88",
      "value": {
        "_hex": "0x533fefc0cb0a5000"
      },
      "nonce": 0,
      "data": "0x",
      "r": "0xbe2422d9584115c9689942d0fc65cb6dcbe30d64754e068505f663f4bd4f2275",
      "s": "0x7e966bbbd797636b2a46ad9b6ad0db2dd26e3f547e14417481f4b70288d3be24",
      "v": 27,
      "creates": null,
      "raw": "0xf86c80850d69e5b4c48252089432be343b94f860124dc4fee278fdcbd38c102d8888533fefc0cb0a5000801ba0be2422d9584115c9689942d0fc65cb6dcbe30d64754e068505f663f4bd4f2275a07e966bbbd797636b2a46ad9b6ad0db2dd26e3f547e14417481f4b70288d3be24",
      "networkId": 0,
      "chainId": 0
    }
  ]
}