{
  "hash": "0x1b17d349873af45979d1124dc615b9b45796d9e8151349e1c16149409c28aa0e",
  "parentHash": "0xa771c6bfa7e3e307f5ebf9b0a7fef97f865be4a5aeea12672203ebd94ffc7f29",
  "number": 78309,
  "timestamp": 1439451803,
  "nonce": "0x440b33e04c4c214a",
  "difficulty": 2276511633810,
  "gasLimit": {
    "_hex": "0x2fefd8"
  },
  "gasUsed": {
    "_hex": "0x5208"
  },
  "miner": "0x02dE7d35a60bf6A216411476040ec648668769D7",
  "extraData": "0x476574682f76312e302e312f77696e646f77732f676f312e342e32",
  "transactions": [
    {
      "hash": "0xaab1674a5e3e06ca40780f2d21112bce1c8dccc2215b7781121a00a3de490f8d",
      "blockHash": "0x1b17d349873af45979d1124dc615b9b45796d9e8151349e1c16149409c28aa0e",
      "blockNumber": 78309,
      "transactionIndex": 0,
      "confirmations": null,
      "from": "0xc597A5d92F5dC1137D847db733cfe02c6d209f13",
      "gasPrice": {
        "_hex": "0xcfa2110a8"
      },
      "gasLimit": {
        "_hex": "0x15f90"
      },
      "to": "0x460A1fBd987e6E83974c9f5749ec2802B6890c9b",
      "value": {
        "_hex": "0x45400a8fd5330000"
      },
      "nonce": 8,
      "data": "0x",
      "r": "0x45b08be6d6af9adc1f4321c25870adc91689c798eec934a27c6f047b8bd97add",
      "s": "0x2fe135d914b10c62cd98fc6e51169d4e6c4dfff7c69b7223a21a50aac0d361d6",
      "v": 27,
      "creates": null,
      "raw": "0xf86d08850cfa2110a883015f9094460a1fbd987e6e83974c9f5749ec2802b6890c9b8845400a8fd5330000801ba045b08be6d6af9adc1f4321c25870adc91689c798eec934a27c6f047b8bd97adda02fe135d914b10c62cd98fc6e51169d4e6c4dfff7c69b7223a21a50aac0d361d6",
      "networkId": 0,
      "chainId": 0
    }
  ]
}