{
  "hash": "0x8e9d083fcc9465303594f80d0dc4a95e7cf37e189fab3b97af8482e0d9cf33fa",
  "parentHash": "0x8c84a6aecca9968e75a9784328568375b63b4f12700bf8d2280a417620c21c0b",
  "number": 116367,
  "timestamp": 1440073050,
  "nonce": "0x4fb4638570525b60",
  "difficulty": 4586813696726,
  "gasLimit": {
    "_hex": "0x2fefd8"
  },
  "gasUsed": {
    "_hex": "0x546c"
  },
  "miner": "0x790b8a3cE86E707ED0eD32bF89B3269692a23CC1",
  "extraData": "0xd783010001844765746887676f312e342e32856c696e7578",
  "transactions": [
    {
      "hash": "0x839181641d20c21b818e4b4d77e38eff830d98fe5d194f7b28380ce17259f7d9",
      "blockHash": "0x8e9d083fcc9465303594f80d0dc4a95e7cf37e189fab3b97af8482e0d9cf33fa",
      "blockNumber": 116367,
      "transactionIndex": 0,
      "confirmations": null,
      "from": "0x475a6193572d4a4e59d7BE09CB960DDd8c530e2F",
      "gasPrice": {
        "_hex": "0x110c8f7d8de"
      },
      "gasLimit": {
        "_hex": "0xc350"
      },
      "to": "0x2910543Af39abA0Cd09dBb2D50200b3E800A63D2",
      "value": {
        "_hex": "0x242b899eeabc220000"
      },
      "nonce": 0,
      "data": "0x454e46453039413652",
      "r": "0x9a4973483fb8f2a93f9b2592bdd5fdeb4249b5d033bb8e6f14c17baabc83a5a5",
      "s": "0xed4f727094654d176e9d1d87d5a12cd4163634059316df6c94f88c47060805f9",
      "v": 27,
      "creates": null,
      "raw": "0xf87780860110c8f7d8de82c350942910543af39aba0cd09dbb2d50200b3e800a63d289242b899eeabc22000089454e464530394136521ba09a4973483fb8f2a93f9b2592bdd5fdeb4249b5d033bb8e6f14c17baabc83a5a5a0ed4f727094654d176e9d1d87d5a12cd4163634059316df6c94f88c47060805f9",
      "networkId": 0,
      "chainId": 0
    }
  ]
}