{
  "hash": "0x1b34dae61ff4026ffdc813fec823dbd00c3407416226928e8ad6ed81627351ed",
  "parentHash": "0xd3ceba987766e4d962df2430b3033bdf31fac4e6fcbfa30135ec8167cd8bcf3f",
  "number": 47404,
  "timestamp": 1438939693,
  "nonce": "0xd6be1cf3f5024190",
  "difficulty": 1453089087079,
  "gasLimit": {
    "_hex": "0xb9a2"
  },
  "gasUsed": {
    "_hex": "0x5208"
  },
  "miner": "0xf927a40C8B7F6E07c5af7FA2155B4864a4112B13",
  "extraData": "0x476574682f76312e302e312f6c696e75782f676f312e342e32",
  "transactions": [
    {
      "hash": "0xf01e1efc6f7f9120d79436580cdebf039cd605d73c6bf18209f5a573d85ef524",
      "blockHash": "0x1b34dae61ff4026ffdc813fec823dbd00c3407416226928e8ad6ed81627351ed",
      "blockNumber": 47404,
      "transactionIndex": 0,
      "confirmations": null,
      "from": "0x9dF32A501C0b781c0281022f42A1293FfD7B892a",
      "gasPrice": {
        "_hex": "0x1264c45600"
      },
      "gasLimit": {
        "_hex": "0x5208"
      },
      "to": "0x3994edd5d1447C91d3Db3A7D483E745E0378F6E6",
      "value": {
        "_hex": "0x10f0cf064dd59200000"
      },
      "nonce": 4,
      "data": "0x",
      "r": "0xecca207bce945bb36970d6c2f26eed8d1c0b7a010eae8849c04f213c34891b91",
      "s": "0x1ad29cdbaa5b04a938d45f8b88cce2ff6b5b2691087dd58a8641a430969c32d3",
      "v": 28,
      "creates": null,
      "raw": "0xf86e04851264c45600825208943994edd5d1447c91d3db3a7d483e745e0378f6e68a010f0cf064dd59200000801ca0ecca207bce945bb36970d6c2f26eed8d1c0b7a010eae8849c04f213c34891b91a01ad29cdbaa5b04a938d45f8b88cce2ff6b5b2691087dd58a8641a430969c32d3",
      "networkId": 0,
      "chainId": 0
    }
  ]
}