{
  "hash": "0xfe570a6b475d4bf0df08734d7cb2ff365e35d4efd09f1729e30c7bc127d96b3c",
  "parentHash": "0x380e0e8aa8e723e5fd9d73763ef8789816879713ca56da5dbcec50d6a1f647df",
  "number": 108877,
  "timestamp": 1439947746,
  "nonce": "0x94b4d5eb7990d085",
  "difficulty": 4363599206764,
  "gasLimit": {
    "_hex": "0x2fefd8"
  },
  "gasUsed": {
    "_hex": "0x14a84"
  },
  "miner": "0xe6A7a1d47ff21B6321162AEA7C6CB457D5476Bca",
  "extraData": "0x476574682f76312e302e312d38326566323666362f6c696e75782f676f312e34",
  "transactions": [
    {
      "hash": "0x1548726dba672e27406f38dcfac896eca78d733d0e8a050e5fb6c7f8660d0ddb",
      "blockHash": "0xfe570a6b475d4bf0df08734d7cb2ff365e35d4efd09f1729e30c7bc127d96b3c",
      "blockNumber": 108877,
      "transactionIndex": 0,
      "confirmations": null,
      "from": "0x21c3a8BbA267c8Cca27b1A9afABaD86F607af708",
      "gasPrice": {
        "_hex": "0x110c8f7d8de"
      },
      "gasLimit": {
        "_hex": "0xc350"
      },
      "to": "0x2910543Af39abA0Cd09dBb2D50200b3E800A63D2",
      "value": {
        "_hex": "0x1e4958b9325f0cc0000"
      },
      "nonce": 0,
      "data": "0x454e56323632523947",
      "r": "0xf22d2cf91cf27d5f6c0523a20ef5e8ef33e9bac33c8342b49d1d614ec15c0ed5",
      "s": "0x0d59e4f1b12e604e6dccaf5e1311f5799cec2917db364d4b2921d7807d343275",
      "v": 28,
      "creates": null,
      "raw": "0xf87880860110c8f7d8de82c350942910543af39aba0cd09dbb2d50200b3e800a63d28a01e4958b9325f0cc000089454e563236325239471ca0f22d2cf91cf27d5f6c0523a20ef5e8ef33e9bac33c8342b49d1d614ec15c0ed5a00d59e4f1b12e604e6dccaf5e1311f5799cec2917db364d4b2921d7807d343275",
      "networkId": 0,
      "chainId": 0
    },
    {
      "hash": "0xd628416bd8572e6fb056b3d52652f740b288ce36d187e2bfdafadb61e9e5ce9a",
      "blockHash": "0xfe570a6b475d4bf0df08734d7cb2ff365e35d4efd09f1729e30c7bc127d96b3c",
      "blockNumber": 108877,
      "transactionIndex": 1,
      "confirmations": null,
      "from": "0x32Be343B94f860124dC4fEe278FDCBD38C102D88",
      "gasPrice": {
        "_hex": "0xd7a3da354"
      },
      "gasLimit": {
        "_hex": "0x5208"
      },
      "to": "0x338043c8592eDAdd5969B5529090D7eE1C466e14",
      "value": {
        "_hex": "0x1a031e21b2df70000"
      },
      "nonce": 1262,
      "data": "0x",
      "r": "0xadbb006f7510733796a196966279cbc3926f0cf71d31aff99fc73627d8b2483e",
      "s": "0x634cbe320bb5fcaf34a7333453c536a11a6f3a79a1510a05dcb5712d1df513c9",
      "v": 27,
      "creates": null,
      "raw": "0xf86f8204ee850d7a3da35482520894338043c8592edadd5969b5529090d7ee1c466e148901a031e21b2df70000801ba0adbb006f7510733796a196966279cbc3926f0cf71d31aff99fc73627d8b2483ea0634cbe320bb5fcaf34a7333453c536a11a6f3a79a1510a05dcb5712d1df513c9",
      "networkId": 0,
      "chainId": 0
    },
    {
      "hash": "0x838550a6dd98151fabeeb3a542d971c5295111c02b98aa0d215b31f030e12461",
      "blockHash": "0xfe570a6b475d4bf0df08734d7cb2ff365e35d4efd09f1729e30c7bc127d96b3c",
      "blockNumber": 108877,
      "transactionIndex": 2,
      "confirmations": null,
      "from": "0x9047CED017a0355797e9f5f079cD8380705bC543",
      "gasPrice": {
        "_hex": "0xd641f460d"
      },
      "gasLimit": {
        "_hex": "0x15f90"
      },
      "to": "0xefe8745972E5cF49d99F05a72ad83A23db5D0A07",
      "value": {
        "_hex": "0xde0b6b3a7640000"
      },
      "nonce": 0,
      "data": "0x",
      "r": "0x088cdfc961194578f621e7edddeb0bc4760de273fa80cbe8e4e717a36a32d8ed",
      "s": "0x124bc39b04b37ea53ff038f91eab29bae2001ca39cfc257e62d00aa8822be808",
      "v": 27,
      "creates": null,
      "raw": "0xf86d80850d641f460d83015f9094efe8745972e5cf49d99f05a72ad83a23db5d0a07880de0b6b3a7640000801ba0088cdfc961194578f621e7edddeb0bc4760de273fa80cbe8e4e717a36a32d8eda0124bc39b04b37ea53ff038f91eab29bae2001ca39cfc257e62d00aa8822be808",
      "networkId": 0,
      "chainId": 0
    },
    {
      "hash": "0xd01af7afcf2abfd64ba1ddd7cfab2ec37b6cec05fa5b1f63c395a17b93d644c8",
      "blockHash": "0xfe570a6b475d4bf0df08734d7cb2ff365e35d4efd09f1729e30c7bc127d96b3c",
      "blockNumber": 108877,
      "transactionIndex": 3,
      "confirmations": null,
      "from": "0x9047CED017a0355797e9f5f079cD8380705bC543",
      "gasPrice": {
        "_hex": "0xd641f460d"
      },
      "gasLimit": {
        "_hex": "0x15f90"
      },
      "to": "0xefe8745972E5cF49d99F05a72ad83A23db5D0A07",
      "value": {
        "_hex": "0xde0b6b3a7640000"
      },
      "nonce": 1,
      "data": "0x",
      "r": "0x981150396a6e4b4f8611c72478c30ece316d9fb34f03544cf8bb753eab028ed7",
      "s": "0x22a2c48d4d70b1974caee1680876da21efc415b4ad37ac37237409e64851ae9b",
      "v": 28,
      "creates": null,
      "raw": "0xf86d01850d641f460d83015f9094efe8745972e5cf49d99f05a72ad83a23db5d0a07880de0b6b3a7640000801ca0981150396a6e4b4f8611c72478c30ece316d9fb34f03544cf8bb753eab028ed7a022a2c48d4d70b1974caee1680876da21efc415b4ad37ac37237409e64851ae9b",
      "networkId": 0,
      "chainId": 0
    }
  ]
}