{
  "hash": "0x3313897c85ee17b021ee46cd3a939e0e55f464fd245fbe8e7904cc99db1d8be7",
  "parentHash": "0x62656145b4b42cfebffa2d75e58e001b0fb51a4a5bedda60b99121e91b6193fe",
  "number": 77911,
  "timestamp": 1439444912,
  "nonce": "0xe677735214f14c9e",
  "difficulty": 2289998372663,
  "gasLimit": {
    "_hex": "0x2fefd8"
  },
  "gasUsed": {
    "_hex": "0xa410"
  },
  "miner": "0xa50ec0D39fa913E62f1Bae7074E6F36caA71855b",
  "extraData": "0xd783010001844765746887676f312e342e32856c696e7578",
  "transactions": [
    {
      "hash": "0x7388e110a813addd1a002ad6d153610d088ae8b296447d865aad641c6095f142",
      "blockHash": "0x3313897c85ee17b021ee46cd3a939e0e55f464fd245fbe8e7904cc99db1d8be7",
      "blockNumber": 77911,
      "transactionIndex": 0,
      "confirmations": null,
      "from": "0x120A270bbC009644e35F0bB6ab13f95b8199c4ad",
      "gasPrice": {
        "_hex": "0xcfe5a7c5e"
      },
      "gasLimit": {
        "_hex": "0x3d090"
      },
      "to": "0xEAbb11145f81CfBBdb8a8B5d0eEb4C7E0b56A3F8",
      "value": {
        "_hex": "0x2b69b9889a3038e400"
      },
      "nonce": 324,
      "data": "0x",
      "r": "0x55194f68cbcfbbc97553cbc1fb8b159bdda078e2e6901929e4eb6afc99bdc32b",
      "s": "0x2c984736d96922d0f02eb7f3d8506439b2d5f7969c99704dc3c2ee626fc688e2",
      "v": 28,
      "creates": null,
      "raw": "0xf870820144850cfe5a7c5e8303d09094eabb11145f81cfbbdb8a8b5d0eeb4c7e0b56a3f8892b69b9889a3038e400801ca055194f68cbcfbbc97553cbc1fb8b159bdda078e2e6901929e4eb6afc99bdc32ba02c984736d96922d0f02eb7f3d8506439b2d5f7969c99704dc3c2ee626fc688e2",
      "networkId": 0,
      "chainId": 0
    },
    {
      "hash": "0xee6a77ea72c9fe17042a89b25c4c316c09e2b45a0fc0ae68c2a7f14c00757bd8",
      "blockHash": "0x3313897c85ee17b021ee46cd3a939e0e55f464fd245fbe8e7904cc99db1d8be7",
      "blockNumber": 77911,
      "transactionIndex": 1,
      "confirmations": null,
      "from": "0x2910543Af39abA0Cd09dBb2D50200b3E800A63D2",
      "gasPrice": {
        "_hex": "0xceaeeed9e"
      },
      "gasLimit": {
        "_hex": "0x5208"
      },
      "to": "0xb4Ad43131139584E8f6F31D578E0dC4d11Df6D7b",
      "value": {
        "_hex": "0x2b5e3af16b1880000"
      },
      "nonce": 340,
      "data": "0x",
      "r": "0xa0b099b6672e98505b4c561c769e5b593f894a817c2fb49d6400a6bf0d0b735b",
      "s": "0x523d41e0ae7aa65d8b26ef2bc9fe91110bc710aada66a7260ec030903d275646",
      "v": 28,
      "creates": null,
      "raw": "0xf86f820154850ceaeeed9e82520894b4ad43131139584e8f6f31d578e0dc4d11df6d7b8902b5e3af16b1880000801ca0a0b099b6672e98505b4c561c769e5b593f894a817c2fb49d6400a6bf0d0b735ba0523d41e0ae7aa65d8b26ef2bc9fe91110bc710aada66a7260ec030903d275646",
      "networkId": 0,
      "chainId": 0
    }
  ]
}