{
  "hash": "0x314566b067247827e1b39fde028a447fecae3b1ecf977cce483f05196d4f494d",
  "parentHash": "0x91048a798512825edfed79ba92f6f2748ba56c51e49c59163880586be7891e57",
  "number": 68660,
  "timestamp": 1439291515,
  "nonce": "0x9e65c5621ba20e53",
  "difficulty": 2020184933540,
  "gasLimit": {
    "_hex": "0x2fefd8"
  },
  "gasUsed": {
    "_hex": "0x19a28"
  },
  "miner": "0xf927a40C8B7F6E07c5af7FA2155B4864a4112B13",
  "extraData": "0x",
  "transactions": [
    {
      "hash": "0x9577bf174f7430ae74aaf3908f202f02036597c9e79b9af67227fa1153f726a7",
      "blockHash": "0x314566b067247827e1b39fde028a447fecae3b1ecf977cce483f05196d4f494d",
      "blockNumber": 68660,
      "transactionIndex": 0,
      "confirmations": null,
      "from": "0x4EC4073e557675aDed6F50847877782Fe3b84e94",
      "gasPrice": {
        "_hex": "0xba43b7400"
      },
      "gasLimit": {
        "_hex": "0x5208"
      },
      "to": "0xA79A188EeaF48A16BeE95c2f07B22D108ca1B5D8",
      "value": {
        "_hex": "0x1d7684e6875b000"
      },
      "nonce": 1,
      "data": "0x",
      "r": "0x914c9ede01bc919322a552b7401e4961f6ea924f64eaeb3d269fc803cf99b9f1",
      "s": "0x48412c6d5452b12b181a36fc5111c3483f05d3f909793737e3ec2ac5f963e077",
      "v": 27,
      "creates": null,
      "raw": "0xf86c01850ba43b740082520894a79a188eeaf48a16bee95c2f07b22d108ca1b5d88801d7684e6875b000801ba0914c9ede01bc919322a552b7401e4961f6ea924f64eaeb3d269fc803cf99b9f1a048412c6d5452b12b181a36fc5111c3483f05d3f909793737e3ec2ac5f963e077",
      "networkId": 0,
      "chainId": 0
    },
    {
      "hash": "0xd12bcb8f2b36fe30e738731a6f6b3c177b562c342dfb53870955ca5e93888134",
      "blockHash": "0x314566b067247827e1b39fde028a447fecae3b1ecf977cce483f05196d4f494d",
      "blockNumber": 68660,
      "transactionIndex": 1,
      "confirmations": null,
      "from": "0xe5c24F0Eb8b884E180431f9bFd5418827605aEA0",
      "gasPrice": {
        "_hex": "0xba43b7400"
      },
      "gasLimit": {
        "_hex": "0x5208"
      },
      "to": "0xBa1ccAAFAf02bf0bed9FBd4Ada0A2e7b454747ae",
      "value": {
        "_hex": "0x1d7684e6875b000"
      },
      "nonce": 1,
      "data": "0x",
      "r": "0x1642efe909577a2700d590a28f42f81cae0dc577c689f7bcd663f2b7a8802923",
      "s": "0x006243336f84bee51c7168f7705b8ba8eb148c571aceca43728937377782280b",
      "v": 27,
      "creates": null,
      "raw": "0xf86b01850ba43b740082520894ba1ccaafaf02bf0bed9fbd4ada0a2e7b454747ae8801d7684e6875b000801ba01642efe909577a2700d590a28f42f81cae0dc577c689f7bcd663f2b7a88029239f6243336f84bee51c7168f7705b8ba8eb148c571aceca43728937377782280b",
      "networkId": 0,
      "chainId": 0
    },
    {
      "hash": "0x3e360e0b5793ba68877453aff6ea588aa62711726e4a147dc1c99c0bc3979df8",
      "blockHash": "0x314566b067247827e1b39fde028a447fecae3b1ecf977cce483f05196d4f494d",
      "blockNumber": 68660,
      "transactionIndex": 2,
      "confirmations": null,
      "from": "0x24203d894FB34d38efddB120928CeEd17D3d6573",
      "gasPrice": {
        "_hex": "0xba43b7400"
      },
      "gasLimit": {
        "_hex": "0x5208"
      },
      "to": "0x3C7C187E2b4448216F90D20DB51E0AC26dEa0d0F",
      "value": {
        "_hex": "0x1d7684e6875b000"
      },
      "nonce": 1,
      "data": "0x",
      "r": "0x7e121045994edc89416b55fe31207e9d94b1a7d69db497336aaf15db437b9386",
      "s": "0x440ef92e85dfdc055292c926171adc4318ae756972ce3517a04014767e48606f",
      "v": 27,
      "creates": null,
      "raw": "0xf86c01850ba43b7400825208943c7c187e2b4448216f90d20db51e0ac26dea0d0f8801d7684e6875b000801ba07e121045994edc89416b55fe31207e9d94b1a7d69db497336aaf15db437b9386a0440ef92e85dfdc055292c926171adc4318ae756972ce3517a04014767e48606f",
      "networkId": 0,
      "chainId": 0
    },
    {
      "hash": "0x80630b90c1f8651120e1d5761083bcbdcc6d26e5f44ac226162f71d1cc4d1572",
      "blockHash": "0x314566b067247827e1b39fde028a447fecae3b1ecf977cce483f05196d4f494d",
      "blockNumber": 68660,
      "transactionIndex": 3,
      "confirmations": null,
      "from": "0x0E6788A59Df4090Ad4b616ed8AB0EBC2b7747cdF",
      "gasPrice": {
        "_hex": "0xba43b7400"
      },
      "gasLimit": {
        "_hex": "0x5208"
      },
      "to": "0x7262696500F27Dc72e09919B352d7A3d0D8D85B7",
      "value": {
        "_hex": "0x1d7684e6875b000"
      },
      "nonce": 1,
      "data": "0x",
      "r": "0x142283c67c328281f060eb875e991858a659f73237e982aa5f28a3465e405c36",
      "s": "0x095722bc7d3d4070dbafb1c7fafb29ea14a26ecdf4830cd1a6a5f8ad2af3dbed",
      "v": 27,
      "creates": null,
      "raw": "0xf86c01850ba43b7400825208947262696500f27dc72e09919b352d7a3d0d8d85b78801d7684e6875b000801ba0142283c67c328281f060eb875e991858a659f73237e982aa5f28a3465e405c36a0095722bc7d3d4070dbafb1c7fafb29ea14a26ecdf4830cd1a6a5f8ad2af3dbed",
      "networkId": 0,
      "chainId": 0
    },
    {
      "hash": "0x0e21bb0604bffab0314d3d2fe698fa995cacefa75ec7984757d483df3682deec",
      "blockHash": "0x314566b067247827e1b39fde028a447fecae3b1ecf977cce483f05196d4f494d",
      "blockNumber": 68660,
      "transactionIndex": 4,
      "confirmations": null,
      "from": "0xfA1B6D8a0B0648A91E74175d69154Ceada0f07C4",
      "gasPrice": {
        "_hex": "0xba43b7400"
      },
      "gasLimit": {
        "_hex": "0x5208"
      },
      "to": "0xD8fE4d9435Ce101F18378713E1A890b21684f9Cb",
      "value": {
        "_hex": "0x1d7684e6875b000"
      },
      "nonce": 1,
      "data": "0x",
      "r": "0x94cf107f2465c1d68b5582af1f1a2033216231f45fd44983728800bb7b8fb22e",
      "s": "0x70fc3881de892a0e5a7d869ade20d693b2d3a825db80715f6627930a8a094b2f",
      "v": 27,
      "creates": null,
      "raw": "0xf86c01850ba43b740082520894d8fe4d9435ce101f18378713e1a890b21684f9cb8801d7684e6875b000801ba094cf107f2465c1d68b5582af1f1a2033216231f45fd44983728800bb7b8fb22ea070fc3881de892a0e5a7d869ade20d693b2d3a825db80715f6627930a8a094b2f",
      "networkId": 0,
      "chainId": 0
    }
  ]
}