{
  "hash": "0xe17233fa78a7d2e71d459c5453eded5b6c5b6351872c52ae9cd3e48a2d9a8010",
  "parentHash": "0xa6465544978054032422f424d470b05dccccf7c77acb20a9ba86f90233e8356e",
  "number": 70241,
  "timestamp": 1439316989,
  "nonce": "0x43a121f97389791d",
  "difficulty": 2117770477126,
  "gasLimit": {
    "_hex": "0x2fefd8"
  },
  "gasUsed": {
    "_hex": "0xa410"
  },
  "miner": "0x88D74a59454F6cF3B51ef6b9136AFb6b9D405A88",
  "extraData": "0x476574682f76312e302e312d37666266393930632f6c696e75782f676f312e34",
  "transactions": [
    {
      "hash": "0x536dc872daefdbf94a3e6e972d43615af5d100c3fcd03b9134051d8a63ed2715",
      "blockHash": "0xe17233fa78a7d2e71d459c5453eded5b6c5b6351872c52ae9cd3e48a2d9a8010",
      "blockNumber": 70241,
      "transactionIndex": 0,
      "confirmations": null,
      "from": "0x2910543Af39abA0Cd09dBb2D50200b3E800A63D2",
      "gasPrice": {
        "_hex": "0xda6779b2e"
      },
      "gasLimit": {
        "_hex": "0x5208"
      },
      "to": "0x6b9dA62D6f23b9768C91f5f5b2F75AA6AcBbD0A0",
      "value": {
        "_hex": "0x1157c828fdbef8000"
      },
      "nonce": 238,
      "data": "0x",
      "r": "0xe0fbdc37f17e25304c5e15efc38d318c4c6612a83814a325cd3704c3782552f2",
      "s": "0x7d51bc32f022b714088211e1fa10f2b2d3cbc5e4c07012a9c9ddf2df845e8f90",
      "v": 28,
      "creates": null,
      "raw": "0xf86e81ee850da6779b2e825208946b9da62d6f23b9768c91f5f5b2f75aa6acbbd0a08901157c828fdbef8000801ca0e0fbdc37f17e25304c5e15efc38d318c4c6612a83814a325cd3704c3782552f2a07d51bc32f022b714088211e1fa10f2b2d3cbc5e4c07012a9c9ddf2df845e8f90",
      "networkId": 0,
      "chainId": 0
    },
    {
      "hash": "0x846b9a0452047d9d654afe838e52d9d0ccf5b7655329f92d5f753ca78d499b75",
      "blockHash": "0xe17233fa78a7d2e71d459c5453eded5b6c5b6351872c52ae9cd3e48a2d9a8010",
      "blockNumber": 70241,
      "transactionIndex": 1,
      "confirmations": null,
      "from": "0x648310636739808b3DaEf45378991Debb5dD2C49",
      "gasPrice": {
        "_hex": "0xba43b7400"
      },
      "gasLimit": {
        "_hex": "0x5208"
      },
      "to": "0x608F680cB915b87F83f3d369bBbb796D778c6162",
      "value": {
        "_hex": "0x8a60d192005fff"
      },
      "nonce": 0,
      "data": "0x",
      "r": "0xb57a25ba1515a3e1b51f886846affc3c0edaf48483a2332510cb4ed7e32f7473",
      "s": "0x1d59ea349745d532e5c3e9079a3d812738bf429f743d389cb31de60b5be69525",
      "v": 27,
      "creates": null,
      "raw": "0xf86b80850ba43b740082520894608f680cb915b87f83f3d369bbbb796d778c6162878a60d192005fff801ba0b57a25ba1515a3e1b51f886846affc3c0edaf48483a2332510cb4ed7e32f7473a01d59ea349745d532e5c3e9079a3d812738bf429f743d389cb31de60b5be69525",
      "networkId": 0,
      "chainId": 0
    }
  ]
}