{
  "hash": "0xc6ef851f3361351dfe87eeed93c100eb5965d99e2bf0aaa757630a3ffe46d5a9",
  "parentHash": "0x769464f702c4b6b5d96e9ebd24dfb40e172c1796411ba9facdfda9250c633129",
  "number": 65524,
  "timestamp": 1439238444,
  "nonce": "0xdd615cf2134a18f1",
  "difficulty": 1951126008283,
  "gasLimit": {
    "_hex": "0x2fefd8"
  },
  "gasUsed": {
    "_hex": "0x546c"
  },
  "miner": "0x39A1BB80a741bF5EC39FB9BE59408Fa0F418fFBf",
  "extraData": "0x476574682f76312e302e312f77696e646f77732f676f312e342e32",
  "transactions": [
    {
      "hash": "0xe1b3400c0de5b5f8e96c8f111eaa94a8ee838b9ad65b557996083b96c338064c",
      "blockHash": "0xc6ef851f3361351dfe87eeed93c100eb5965d99e2bf0aaa757630a3ffe46d5a9",
      "blockNumber": 65524,
      "transactionIndex": 0,
      "confirmations": null,
      "from": "0x9EEF442d291A447d74c5d253c49Ef324eAc1d8f0",
      "gasPrice": {
        "_hex": "0x110c8f7d8de"
      },
      "gasLimit": {
        "_hex": "0xc350"
      },
      "to": "0x2910543Af39abA0Cd09dBb2D50200b3E800A63D2",
      "value": {
        "_hex": "0x14db7a9681d38b0000"
      },
      "nonce": 6,
      "data": "0x454e36435148484752",
      "r": "0x2fc652600b54f0ef3dae2759f5368f9b382723c9289f9385233eef835ab219cf",
      "s": "0x64c04fae57d24c156982394bfeb919268b02fa02b3da740bf27f8c4511441edd",
      "v": 27,
      "creates": null,
      "raw": "0xf87706860110c8f7d8de82c350942910543af39aba0cd09dbb2d50200b3e800a63d28914db7a9681d38b000089454e364351484847521ba02fc652600b54f0ef3dae2759f5368f9b382723c9289f9385233eef835ab219cfa064c04fae57d24c156982394bfeb919268b02fa02b3da740bf27f8c4511441edd",
      "networkId": 0,
      "chainId": 0
    }
  ]
}