{
  "hash": "0x8b5d045411ef99e40c283bdb02946ddbad024594918930d26787e3216b89cfa8",
  "parentHash": "0x56569965b69364b03baf02a0ac66563c08c3ea68517d179b8547c7015c8652dc",
  "number": 54917,
  "timestamp": 1439062433,
  "nonce": "0x6efd0dfc4b99c095",
  "difficulty": 1612485137767,
  "gasLimit": {
    "_hex": "0x2fefd8"
  },
  "gasUsed": {
    "_hex": "0x5208"
  },
  "miner": "0x785ffdDd5cE55c6DF963f345e68d3F2024E5Acb1",
  "extraData": "0x476574682f4d69676e6f7474652f76312e302e312f6c696e75782f676f312e34",
  "transactions": [
    {
      "hash": "0xe0fb0dff35204e92238e44c6717b8d3290efe7bb3de9770b3dd6742386956916",
      "blockHash": "0x8b5d045411ef99e40c283bdb02946ddbad024594918930d26787e3216b89cfa8",
      "blockNumber": 54917,
      "transactionIndex": 0,
      "confirmations": null,
      "from": "0xCA092A957744f6385B1aee5dC694143E8A06F805",
      "gasPrice": {
        "_hex": "0xdc2a6fe31"
      },
      "gasLimit": {
        "_hex": "0x15f90"
      },
      "to": "0x0dF7ae2e9c38Dbc402E44788BBe3A9bA9179d677",
      "value": {
        "_hex": "0xde0b6b3a7640000"
      },
      "nonce": 22,
      "data": "0x",
      "r": "0x64c6462e8f0a53cdf052255410fcb08831537340bc78e9417a364554f69ffd88",
      "s": "0x189d839c72bff0a7bd2dda0700b3a188bf98e4bf581373b7b9fbb416c1f1970c",
      "v": 27,
      "creates": null,
      "raw": "0xf86d16850dc2a6fe3183015f90940df7ae2e9c38dbc402e44788bbe3a9ba9179d677880de0b6b3a7640000801ba064c6462e8f0a53cdf052255410fcb08831537340bc78e9417a364554f69ffd88a0189d839c72bff0a7bd2dda0700b3a188bf98e4bf581373b7b9fbb416c1f1970c",
      "networkId": 0,
      "chainId": 0
    }
  ]
}