{
  "hash": "0x44168697fe6dcc31ed004f11c89f6a5520b980099970cc337b4c435ac24e07a8",
  "parentHash": "0x41aec14641fb8ba5f773bea0f83a62f5f849f87d160e53ae35a57e74c76d8203",
  "number": 83958,
  "timestamp": 1439543253,
  "nonce": "0x417a335d883b475f",
  "difficulty": 2468260984956,
  "gasLimit": {
    "_hex": "0x2fefd8"
  },
  "gasUsed": {
    "_hex": "0x5208"
  },
  "miner": "0x580992B51e3925e23280EfB93d3047C82f17E038",
  "extraData": "0x476574682f76312e302e312f6c696e75782f676f312e342e32",
  "transactions": [
    {
      "hash": "0x6743db1996889f036f19b637fcc79ade7908b5e0574222e624c406ffc58c5375",
      "blockHash": "0x44168697fe6dcc31ed004f11c89f6a5520b980099970cc337b4c435ac24e07a8",
      "blockNumber": 83958,
      "transactionIndex": 0,
      "confirmations": null,
      "from": "0x05f74a38293C914C6B14a39f5d8dEa98f22E4FBA",
      "gasPrice": {
        "_hex": "0xd69682f84"
      },
      "gasLimit": {
        "_hex": "0x15f90"
      },
      "to": "0xbEB64d852Bb6731CD479E80F7139ADEa5D6A5a28",
      "value": {
        "_hex": "0xde0b6b3a7640000"
      },
      "nonce": 2,
      "data": "0x",
      "r": "0xa433ae251be4e1791f12ae766c7ac71f2d6d813d122d94383aded775d7a41e78",
      "s": "0x4b67615fc0abb376f0e72c1586ea2d94e36298a1b3b31808056c406a7bfb1fde",
      "v": 28,
      "creates": null,
      "raw": "0xf86d02850d69682f8483015f9094beb64d852bb6731cd479e80f7139adea5d6a5a28880de0b6b3a7640000801ca0a433ae251be4e1791f12ae766c7ac71f2d6d813d122d94383aded775d7a41e78a04b67615fc0abb376f0e72c1586ea2d94e36298a1b3b31808056c406a7bfb1fde",
      "networkId": 0,
      "chainId": 0
    }
  ]
}