{
  "hash": "0x17d4e6bc3f7e1750cdba0f67f2d55bead30656473b74415851bb3055730ce7cf",
  "parentHash": "0xb1bb59544912c9e4d5a63fd219ee2d9e456ffec645331a89c6ea10377604c6a5",
  "number": 110964,
  "timestamp": 1439982443,
  "nonce": "0xbc15d94a38ed9524",
  "difficulty": 4416093427570,
  "gasLimit": {
    "_hex": "0x2fefd8"
  },
  "gasUsed": {
    "_hex": "0x5208"
  },
  "miner": "0xa50ec0D39fa913E62f1Bae7074E6F36caA71855b",
  "extraData": "0xd783010001844765746887676f312e342e32856c696e7578",
  "transactions": [
    {
      "hash": "0x6bb22b6d79e496879bf2bde650866222d852c4ca53ac1e6a5c0022c42ca77d95",
      "blockHash": "0x17d4e6bc3f7e1750cdba0f67f2d55bead30656473b74415851bb3055730ce7cf",
      "blockNumber": 110964,
      "transactionIndex": 0,
      "confirmations": null,
      "from": "0x007f7f58D3eb5b7510A301eCC749FC1fCDDBE14D",
      "gasPrice": {
        "_hex": "0xd382b0b9c"
      },
      "gasLimit": {
        "_hex": "0x15f90"
      },
      "to": "0xb1abce2918E21ddb93AA452731a12672A3d9F75a",
      "value": {
        "_hex": "0x4563918244f40000"
      },
      "nonce": 299,
      "data": "0x",
      "r": "0xd9f62e1c4b0006997271199b4be9952b461a5dd974da6b7d5ce77e0823d6e7a8",
      "s": "0x0d836187f9d50edb07300f0df57712a7a0147a72b956186fbfaf3729d4b2314b",
      "v": 27,
      "creates": null,
      "raw": "0xf86f82012b850d382b0b9c83015f9094b1abce2918e21ddb93aa452731a12672a3d9f75a884563918244f40000801ba0d9f62e1c4b0006997271199b4be9952b461a5dd974da6b7d5ce77e0823d6e7a8a00d836187f9d50edb07300f0df57712a7a0147a72b956186fbfaf3729d4b2314b",
      "networkId": 0,
      "chainId": 0
    }
  ]
}