{
  "hash": "0x421739acc5046d4ea103c493a246812f2e07e736cfea6b21e0116f5763c76b17",
  "parentHash": "0x05a12bac7a6cb3dd2dec13cfc22e0e7226a8c649c9655ec5e2eb65b209cb4b57",
  "number": 119231,
  "timestamp": 1440139083,
  "nonce": "0xd511c203a898fa37",
  "difficulty": 4422527514387,
  "gasLimit": {
    "_hex": "0x2fefd8"
  },
  "gasUsed": {
    "_hex": "0x5208"
  },
  "miner": "0xe6A7a1d47ff21B6321162AEA7C6CB457D5476Bca",
  "extraData": "0xd783010002844765746887676f312e342e32856c696e7578",
  "transactions": [
    {
      "hash": "0xf8ea1a81745b8c9ca300568015b21f031ee60d1374acbf00b76393c727e4374a",
      "blockHash": "0x421739acc5046d4ea103c493a246812f2e07e736cfea6b21e0116f5763c76b17",
      "blockNumber": 119231,
      "transactionIndex": 0,
      "confirmations": null,
      "from": "0x9b4b6E7551cEc7a4C42b6Eff2BE246698938E6E4",
      "gasPrice": {
        "_hex": "0xba43b7400"
      },
      "gasLimit": {
        "_hex": "0x5208"
      },
      "to": "0x32Be343B94f860124dC4fEe278FDCBD38C102D88",
      "value": {
        "_hex": "0xe6b178539646000"
      },
      "nonce": 1,
      "data": "0x",
      "r": "0x943d707e0d6328d350711c6b4aaff742caf124c787412756e5dfd8531dd699db",
      "s": "0x5fc88e5e38f442231595b028ca9ff001ae3a56d5058237813f111768901257e1",
      "v": 28,
      "creates": null,
      "raw": "0xf86c01850ba43b74008252089432be343b94f860124dc4fee278fdcbd38c102d88880e6b178539646000801ca0943d707e0d6328d350711c6b4aaff742caf124c787412756e5dfd8531dd699dba05fc88e5e38f442231595b028ca9ff001ae3a56d5058237813f111768901257e1",
      "networkId": 0,
      "chainId": 0
    }
  ]
}