{
  "hash": "0x013560dd1b0cfc99413e61a720699066e20b367e622da929775f43e5a6ad4b92",
  "parentHash": "0x04991e567189629640b86bf2883d1ad3aab57087ccb0d5fc7e41141d324500a7",
  "number": 99074,
  "timestamp": 1439783879,
  "nonce": "0x55612717d393da1d",
  "difficulty": 3827231142775,
  "gasLimit": {
    "_hex": "0x2fefd8"
  },
  "gasUsed": {
    "_hex": "0xa674"
  },
  "miner": "0x902867f1117f42F8e2c2e12b94f30D98CB736b51",
  "extraData": "0x476574682f76312e302e312f6c696e75782f676f312e342e32",
  "transactions": [
    {
      "hash": "0x45ac5c2dc62af317a4a7af64e25410f22391c8dd98e3ecad5abffb0971aadf98",
      "blockHash": "0x013560dd1b0cfc99413e61a720699066e20b367e622da929775f43e5a6ad4b92",
      "blockNumber": 99074,
      "transactionIndex": 0,
      "confirmations": null,
      "from": "0x007f7f58D3eb5b7510A301eCC749FC1fCDDBE14D",
      "gasPrice": {
        "_hex": "0xe0cfe7246"
      },
      "gasLimit": {
        "_hex": "0x15f90"
      },
      "to": "0xb1abce2918E21ddb93AA452731a12672A3d9F75a",
      "value": {
        "_hex": "0x4563918244f40000"
      },
      "nonce": 146,
      "data": "0x",
      "r": "0x978386bf7cc702f8c28ac581cf7ce4a3ce442675b463723b026f019e6da5efd0",
      "s": "0x5ac86d7a4eff2349e174499fde1a37d70831744bdcea3eee551d9aef268f20f3",
      "v": 27,
      "creates": null,
      "raw": "0xf86e8192850e0cfe724683015f9094b1abce2918e21ddb93aa452731a12672a3d9f75a884563918244f40000801ba0978386bf7cc702f8c28ac581cf7ce4a3ce442675b463723b026f019e6da5efd0a05ac86d7a4eff2349e174499fde1a37d70831744bdcea3eee551d9aef268f20f3",
      "networkId": 0,
      "chainId": 0
    },
    {
      "hash": "0xe72c494e906bee6a520623ce73e765586e996d93c92b49e0c224330f6563382c",
      "blockHash": "0x013560dd1b0cfc99413e61a720699066e20b367e622da929775f43e5a6ad4b92",
      "blockNumber": 99074,
      "transactionIndex": 1,
      "confirmations": null,
      "from": "0x2dd325FDfFB97B19995284aFA5abDB574a1Df16a",
      "gasPrice": {
        "_hex": "0xd4be89f70"
      },
      "gasLimit": {
        "_hex": "0x15f90"
      },
      "to": "0x2910543Af39abA0Cd09dBb2D50200b3E800A63D2",
      "value": {
        "_hex": "0x22b1c8c1227a00000"
      },
      "nonce": 6,
      "data": "0x454e47454d4d595630",
      "r": "0xd2f0352b00cfa017ff6382b31fb272fbba91eebdce4e8f9e04d180e945d885a2",
      "s": "0x5999bee28c160d7598b739789e9043fec967ec659b65dec535dd006dfa84f2a8",
      "v": 28,
      "creates": null,
      "raw": "0xf87706850d4be89f7083015f90942910543af39aba0cd09dbb2d50200b3e800a63d289022b1c8c1227a0000089454e47454d4d5956301ca0d2f0352b00cfa017ff6382b31fb272fbba91eebdce4e8f9e04d180e945d885a2a05999bee28c160d7598b739789e9043fec967ec659b65dec535dd006dfa84f2a8",
      "networkId": 0,
      "chainId": 0
    }
  ]
}