{
  "hash": "0x95e4929070894b6415db43487c439c716499f192cb3a17f0dfae66480e67208a",
  "parentHash": "0x95c299b17cd7e823c0ff6150e8497bfd0f011622c0227d9ac6d9a1dffe21d481",
  "number": 102761,
  "timestamp": 1439842769,
  "nonce": "0xa08d8111504580a1",
  "difficulty": 4046508562661,
  "gasLimit": {
    "_hex": "0x2fefd8"
  },
  "gasUsed": {
    "_hex": "0x5208"
  },
  "miner": "0xe6A7a1d47ff21B6321162AEA7C6CB457D5476Bca",
  "extraData": "0x476574682f76312e302e312d38326566323666362f6c696e75782f676f312e34",
  "transactions": [
    {
      "hash": "0x4ee856144c9e99fd69bf41a07f2034bfdbf8adf83ed0a848de5f79caa3fcde99",
      "blockHash": "0x95e4929070894b6415db43487c439c716499f192cb3a17f0dfae66480e67208a",
      "blockNumber": 102761,
      "transactionIndex": 0,
      "confirmations": null,
      "from": "0x8378f6e5447D7C2A6069e070afe3fb2703251b94",
      "gasPrice": {
        "_hex": "0xd662bc08b"
      },
      "gasLimit": {
        "_hex": "0x5208"
      },
      "to": "0xFBb1b73C4f0BDa4f67dcA266ce6Ef42f520fBB98",
      "value": {
        "_hex": "0x6e96d5a0b6d275a8"
      },
      "nonce": 0,
      "data": "0x",
      "r": "0xa4b22e6906076a04736159e2a1fc6adaf1cf16a37ac3b303cb5f69a056f09f1f",
      "s": "0x6729ef87714f2c0c48b4a62632ec9cfde953e397e5005da5f807c1d6081fb570",
      "v": 27,
      "creates": null,
      "raw": "0xf86c80850d662bc08b82520894fbb1b73c4f0bda4f67dca266ce6ef42f520fbb98886e96d5a0b6d275a8801ba0a4b22e6906076a04736159e2a1fc6adaf1cf16a37ac3b303cb5f69a056f09f1fa06729ef87714f2c0c48b4a62632ec9cfde953e397e5005da5f807c1d6081fb570",
      "networkId": 0,
      "chainId": 0
    }
  ]
}