{
  "hash": "0xdb1675fa1437866bfe5c6e9a67b8e5fd316f2c8a9a0134bef9c690ef48ada6a9",
  "parentHash": "0xcdf8389960d20c3534df90b13c98853e405da64a5f02cd13a2a79502458522db",
  "number": 66889,
  "timestamp": 1439262058,
  "nonce": "0x4b58405398d617b8",
  "difficulty": 1951761321444,
  "gasLimit": {
    "_hex": "0x2fefd8"
  },
  "gasUsed": {
    "_hex": "0xf618"
  },
  "miner": "0x6541237dAaFf6688A79f9F2F370Ca0E7Ee20BD33",
  "extraData": "0x476574682f76312e302e312f77696e646f77732f676f312e342e32",
  "transactions": [
    {
      "hash": "0x5985e4940327d8dbbc687510f6961e47ed2aa829c0f76b230bbde7abed1f73c4",
      "blockHash": "0xdb1675fa1437866bfe5c6e9a67b8e5fd316f2c8a9a0134bef9c690ef48ada6a9",
      "blockNumber": 66889,
      "transactionIndex": 0,
      "confirmations": null,
      "from": "0x827039b481254dee41Ef8f8333AdF1aba69a2f5A",
      "gasPrice": {
        "_hex": "0xddde9690a"
      },
      "gasLimit": {
        "_hex": "0x5208"
      },
      "to": "0x32Be343B94f860124dC4fEe278FDCBD38C102D88",
      "value": {
        "_hex": "0x5b937784804fa400"
      },
      "nonce": 1,
      "data": "0x",
      "r": "0x836f69d90fc6fb778317324aa5f0c311b39d8ada4d4212444ded94c90ce31c69",
      "s": "0x4c529c99dab2972b99fd502a597cdee60bc517dbd45dec9e8532137fc99c94df",
      "v": 27,
      "creates": null,
      "raw": "0xf86c01850ddde9690a8252089432be343b94f860124dc4fee278fdcbd38c102d88885b937784804fa400801ba0836f69d90fc6fb778317324aa5f0c311b39d8ada4d4212444ded94c90ce31c69a04c529c99dab2972b99fd502a597cdee60bc517dbd45dec9e8532137fc99c94df",
      "networkId": 0,
      "chainId": 0
    },
    {
      "hash": "0x5d6279fdb6d2cfaa6996a5c48b557038b75b9976f8750c1a35ee4ce669e17813",
      "blockHash": "0xdb1675fa1437866bfe5c6e9a67b8e5fd316f2c8a9a0134bef9c690ef48ada6a9",
      "blockNumber": 66889,
      "transactionIndex": 1,
      "confirmations": null,
      "from": "0x79d5794171E11dd5C2f0e26E1C187319db2FE6f7",
      "gasPrice": {
        "_hex": "0xddde9690a"
      },
      "gasLimit": {
        "_hex": "0x5208"
      },
      "to": "0x32Be343B94f860124dC4fEe278FDCBD38C102D88",
      "value": {
        "_hex": "0x47af8a3c7bfb8400"
      },
      "nonce": 5,
      "data": "0x",
      "r": "0xde45d30cd5fa1dfa4194cfbf957f33b1eeaf08493fe4abc6ca24757f311ba92b",
      "s": "0x258310080275c37b9df3c6f980b380536ebffdf69ffd490faf8804140949dc3a",
      "v": 27,
      "creates": null,
      "raw": "0xf86c05850ddde9690a8252089432be343b94f860124dc4fee278fdcbd38c102d888847af8a3c7bfb8400801ba0de45d30cd5fa1dfa4194cfbf957f33b1eeaf08493fe4abc6ca24757f311ba92ba0258310080275c37b9df3c6f980b380536ebffdf69ffd490faf8804140949dc3a",
      "networkId": 0,
      "chainId": 0
    },
    {
      "hash": "0x0e475eae5fa83d2f87004dd23dc1e128e21173a45e92f0d4f0c55f95d50a6d1f",
      "blockHash": "0xdb1675fa1437866bfe5c6e9a67b8e5fd316f2c8a9a0134bef9c690ef48ada6a9",
      "blockNumber": 66889,
      "transactionIndex": 2,
      "confirmations": null,
      "from": "0x5584a5A361e70D0757D8Ca2B151f041136C9C28a",
      "gasPrice": {
        "_hex": "0xd7c98d078"
      },
      "gasLimit": {
        "_hex": "0x15f90"
      },
      "to": "0x42979fca296FEA2C163EA66E1900acDe7886F86F",
      "value": {
        "_hex": "0x1296c58125484e90000"
      },
      "nonce": 4,
      "data": "0x",
      "r": "0xd07c0c3e788e8d0b86be69fb6e1d8a758081078a585884c494428528864ca94b",
      "s": "0x7bcef08b8aea1692821dfd5e6ef8b7b83b44b2455d914d93250fbb1a48bb0d10",
      "v": 27,
      "creates": null,
      "raw": "0xf86f04850d7c98d07883015f909442979fca296fea2c163ea66e1900acde7886f86f8a01296c58125484e90000801ba0d07c0c3e788e8d0b86be69fb6e1d8a758081078a585884c494428528864ca94ba07bcef08b8aea1692821dfd5e6ef8b7b83b44b2455d914d93250fbb1a48bb0d10",
      "networkId": 0,
      "chainId": 0
    }
  ]
}