{
  "hash": "0x7fb5480ecf44392fd84ae25c62b2a46bbdede95e13007f059ca3c923060c2d73",
  "parentHash": "0x0efff85bcf2fa8d1648fac26a395103d46179fb86fc373b4640cec5cb13a369f",
  "number": 49233,
  "timestamp": 1438970230,
  "nonce": "0xec126afb1ad76bc2",
  "difficulty": 1479257198784,
  "gasLimit": {
    "_hex": "0x29b9e"
  },
  "gasUsed": {
    "_hex": "0x546c"
  },
  "miner": "0xF2d2AfF1320476cb8C6b607199D23175cc595693",
  "extraData": "0x476574682f76312e302e312f77696e646f77732f676f312e342e32",
  "transactions": [
    {
      "hash": "0xad51fb9bed695466625c94a72dd0ddd9b14943b86c03a184cd52095e716f6ead",
      "blockHash": "0x7fb5480ecf44392fd84ae25c62b2a46bbdede95e13007f059ca3c923060c2d73",
      "blockNumber": 49233,
      "transactionIndex": 0,
      "confirmations": null,
      "from": "0xE528A0e5a267D667e9393a6584E19b34Dc9BE973",
      "gasPrice": {
        "_hex": "0x110c8f7d8de"
      },
      "gasLimit": {
        "_hex": "0xc350"
      },
      "to": "0x2910543Af39abA0Cd09dBb2D50200b3E800A63D2",
      "value": {
        "_hex": "0x3635c9adc5dea00000"
      },
      "nonce": 0,
      "data": "0x454e52344851514d52",
      "r": "0xac31efb8c4a76b836bf2ad37cf6a72b74ea9c151646d57be4418f04d3375a3b5",
      "s": "0x791753fa82eedca43b7ec85d68ca4f8e4a922b10cdecdde3df91f44082984cbf",
      "v": 28,
      "creates": null,
      "raw": "0xf87780860110c8f7d8de82c350942910543af39aba0cd09dbb2d50200b3e800a63d2893635c9adc5dea0000089454e52344851514d521ca0ac31efb8c4a76b836bf2ad37cf6a72b74ea9c151646d57be4418f04d3375a3b5a0791753fa82eedca43b7ec85d68ca4f8e4a922b10cdecdde3df91f44082984cbf",
      "networkId": 0,
      "chainId": 0
    }
  ]
}