{
  "hash": "0x662ab9521771d47af0f053260542615903a9c4cb531d6ae118204d3e3a697186",
  "parentHash": "0xe6c346ac3783d8cd9f883e8251fc8cc9bd2ef31183f68f79c4a83dd42d8fd63d",
  "number": 75328,
  "timestamp": 1439401477,
  "nonce": "0x148b5a96c2545012",
  "difficulty": 2195431372948,
  "gasLimit": {
    "_hex": "0x2fefd8"
  },
  "gasUsed": {
    "_hex": "0x5208"
  },
  "miner": "0xf8E0CA3Ed80bd541b94BEdCf259e8CF2141A9523",
  "extraData": "0x476574682f76312e302e312f77696e646f77732f676f312e342e32",
  "transactions": [
    {
      "hash": "0xeaec1d6972a6cc3f0c773681d7cdd495280ca7fbb85af985b02e572076eb7dc4",
      "blockHash": "0x662ab9521771d47af0f053260542615903a9c4cb531d6ae118204d3e3a697186",
      "blockNumber": 75328,
      "transactionIndex": 0,
      "confirmations": null,
      "from": "0x32Be343B94f860124dC4fEe278FDCBD38C102D88",
      "gasPrice": {
        "_hex": "0xdf28c9317"
      },
      "gasLimit": {
        "_hex": "0x5208"
      },
      "to": "0x7d18A54Bd3051327D87eD7B3E6B3d95B772e5180",
      "value": {
        "_hex": "0x1156abf16a40f0000"
      },
      "nonce": 336,
      "data": "0x",
      "r": "0x253cc3e422e56ea1b1b286f31133479fa23dd433879ea955c742c2d7e5b27e9f",
      "s": "0x0d0cb2b35f0a5564f0041660c57f7984f157bce5bdcb74c1d60b798c21e1e155",
      "v": 28,
      "creates": null,
      "raw": "0xf86f820150850df28c9317825208947d18a54bd3051327d87ed7b3e6b3d95b772e51808901156abf16a40f0000801ca0253cc3e422e56ea1b1b286f31133479fa23dd433879ea955c742c2d7e5b27e9fa00d0cb2b35f0a5564f0041660c57f7984f157bce5bdcb74c1d60b798c21e1e155",
      "networkId": 0,
      "chainId": 0
    }
  ]
}