{
  "hash": "0x0d591a1e45e9370f4f4b6bc35573fb290c3cfdb835d9cf4635b233ad3cda09fb",
  "parentHash": "0xa8819087a15c233b051a61effb90f2566a4053b395ffc45c4f6d8865d84ae7ca",
  "number": 67262,
  "timestamp": 1439268989,
  "nonce": "0xbb0b4a8b3a9b6861",
  "difficulty": 1924233264468,
  "gasLimit": {
    "_hex": "0x2fefd8"
  },
  "gasUsed": {
    "_hex": "0x546c"
  },
  "miner": "0x35c6f22E8fFA3d3aEf1EE7744BdbA64E1b188a15",
  "extraData": "0x476574682f76312e302e312f6c696e75782f676f312e342e32",
  "transactions": [
    {
      "hash": "0xb848d863067975c38b3d44cff22d05cafca1827761ae4ebb615c2f19361d72cd",
      "blockHash": "0x0d591a1e45e9370f4f4b6bc35573fb290c3cfdb835d9cf4635b233ad3cda09fb",
      "blockNumber": 67262,
      "transactionIndex": 0,
      "confirmations": null,
      "from": "0x6170DD0687bD55ca88b87AdEf51CFDc55c4DD458",
      "gasPrice": {
        "_hex": "0x110c8f7d8de"
      },
      "gasLimit": {
        "_hex": "0xc350"
      },
      "to": "0x2910543Af39abA0Cd09dBb2D50200b3E800A63D2",
      "value": {
        "_hex": "0x6c5db2a4d815dc0000"
      },
      "nonce": 1,
      "data": "0x454e33325158365238",
      "r": "0x436dfb7132a3882ccf4bd11990275800591345ef20d259bb3f8353c958275f5d",
      "s": "0x7634b50c147f49880a4b09db99ada8b14ff6550cd47c64e554c4a85d5ac9e4ef",
      "v": 28,
      "creates": null,
      "raw": "0xf87701860110c8f7d8de82c350942910543af39aba0cd09dbb2d50200b3e800a63d2896c5db2a4d815dc000089454e333251583652381ca0436dfb7132a3882ccf4bd11990275800591345ef20d259bb3f8353c958275f5da07634b50c147f49880a4b09db99ada8b14ff6550cd47c64e554c4a85d5ac9e4ef",
      "networkId": 0,
      "chainId": 0
    }
  ]
}