{
  "hash": "0xc55d572fe54fa2e248aec66ca73c5f10fba72f08f8f82621d686896716d18db6",
  "parentHash": "0xfde9725e9ce9359cd1fe55cc3f04255b9216fcb646e515b8cac0ccd67edcc684",
  "number": 114158,
  "timestamp": 1440035844,
  "nonce": "0x5cb7266ecee9cfe4",
  "difficulty": 4462088362679,
  "gasLimit": {
    "_hex": "0x2fefd8"
  },
  "gasUsed": {
    "_hex": "0x5208"
  },
  "miner": "0x9252A9C83D5703eDC585CfDcE80d5F903D357514",
  "extraData": "0x476574682f76312e302e312f6c696e75782f676f312e342e32",
  "transactions": [
    {
      "hash": "0x700d910ec78549761bfac5ab26bf5bc1921bf1a757aeb92ff58559891cd12038",
      "blockHash": "0xc55d572fe54fa2e248aec66ca73c5f10fba72f08f8f82621d686896716d18db6",
      "blockNumber": 114158,
      "transactionIndex": 0,
      "confirmations": null,
      "from": "0x4D67f4F0Db45b3B5a3424B39ed8d972F710381D5",
      "gasPrice": {
        "_hex": "0xd198659e5"
      },
      "gasLimit": {
        "_hex": "0x5208"
      },
      "to": "0x32Be343B94f860124dC4fEe278FDCBD38C102D88",
      "value": {
        "_hex": "0x2f9dfdf6a39ddc000"
      },
      "nonce": 43,
      "data": "0x",
      "r": "0x149584547256064db8ca8faa6897e51d7e89fbd34bb7194c21c8594a20cc6a01",
      "s": "0x3b2a2a03d88b78abe95c4b455fcc0d564fa375d45fb769818e2f70b3d048f279",
      "v": 28,
      "creates": null,
      "raw": "0xf86d2b850d198659e58252089432be343b94f860124dc4fee278fdcbd38c102d888902f9dfdf6a39ddc000801ca0149584547256064db8ca8faa6897e51d7e89fbd34bb7194c21c8594a20cc6a01a03b2a2a03d88b78abe95c4b455fcc0d564fa375d45fb769818e2f70b3d048f279",
      "networkId": 0,
      "chainId": 0
    }
  ]
}