{
  "hash": "0x5d8c0f61454261d1fa72236e144c53bbbb35a4410b6dc8eeb53523d44bad28a8",
  "parentHash": "0x8ae71d6014cdb8ae8ba3bd37763b581d74400bbdc64fd0864bb3f2b82e0b5013",
  "number": 121452,
  "timestamp": 1440177273,
  "nonce": "0xa179acb0046fd06f",
  "difficulty": 4436494660020,
  "gasLimit": {
    "_hex": "0x2fefd8"
  },
  "gasUsed": {
    "_hex": "0x5208"
  },
  "miner": "0x580992B51e3925e23280EfB93d3047C82f17E038",
  "extraData": "0x",
  "transactions": [
    {
      "hash": "0xd28e4afbe5b14f0feadd2b96f859b8fd60231bc0039fbd21127696c7fd2000d2",
      "blockHash": "0x5d8c0f61454261d1fa72236e144c53bbbb35a4410b6dc8eeb53523d44bad28a8",
      "blockNumber": 121452,
      "transactionIndex": 0,
      "confirmations": null,
      "from": "0xa1386CA983F174C3d74D76a96Bc57CFDa8Aa4283",
      "gasPrice": {
        "_hex": "0xcd01555c5"
      },
      "gasLimit": {
        "_hex": "0x15f90"
      },
      "to": "0x5E06B039f5B9ee1dD293a238387a74A3f11d4606",
      "value": {
        "_hex": "0xb1a2bc2ec50000"
      },
      "nonce": 0,
      "data": "0x",
      "r": "0xa2dac659a15da2ae5834c56541f9c5feee695b85dbeeae42e1d1ec14bab9d505",
      "s": "0x5e58c8db93743976e015ccb4317a3269ecf230c386316d1f9945c89f0c5f67bf",
      "v": 28,
      "creates": null,
      "raw": "0xf86c80850cd01555c583015f90945e06b039f5b9ee1dd293a238387a74a3f11d460687b1a2bc2ec50000801ca0a2dac659a15da2ae5834c56541f9c5feee695b85dbeeae42e1d1ec14bab9d505a05e58c8db93743976e015ccb4317a3269ecf230c386316d1f9945c89f0c5f67bf",
      "networkId": 0,
      "chainId": 0
    }
  ]
}