{
  "hash": "0x8a8895746f6b76de32a4b171c8c660d63f60718594328c010410664246629c67",
  "parentHash": "0x6e204040fc29504330cf497c1dcbbac3ec1beea143a209b65800a0a7b971c8f8",
  "number": 84219,
  "timestamp": 1439546571,
  "nonce": "0xfe8e65daee098720",
  "difficulty": 2525482048839,
  "gasLimit": {
    "_hex": "0x2fefd8"
  },
  "gasUsed": {
    "_hex": "0x5208"
  },
  "miner": "0x34f0F706648F334eDf39e555766d4EACD54D61dC",
  "extraData": "0x476574682f76312e302e312d38326566323666362f6c696e75782f676f312e34",
  "transactions": [
    {
      "hash": "0xc2f8ac7e9db9810f24095fe3adda4c9d09acc8a63846424303488467070b4d4f",
      "blockHash": "0x8a8895746f6b76de32a4b171c8c660d63f60718594328c010410664246629c67",
      "blockNumber": 84219,
      "transactionIndex": 0,
      "confirmations": null,
      "from": "0x32Be343B94f860124dC4fEe278FDCBD38C102D88",
      "gasPrice": {
        "_hex": "0xced1f2861"
      },
      "gasLimit": {
        "_hex": "0x5208"
      },
      "to": "0x4320e8dCA0a42083Ab538B27fA9A1dd174b2dCE8",
      "value": {
        "_hex": "0x7245f1b5145f88000"
      },
      "nonce": 676,
      "data": "0x",
      "r": "0x1e352264af51306f75d27fddb0d24f3e1518ae67548c932d13925ae8563d1991",
      "s": "0x48a424a4ee585f10b7bdaab30cbe4185800c86469378ddbda70b991b5831a741",
      "v": 28,
      "creates": null,
      "raw": "0xf86f8202a4850ced1f2861825208944320e8dca0a42083ab538b27fa9a1dd174b2dce88907245f1b5145f88000801ca01e352264af51306f75d27fddb0d24f3e1518ae67548c932d13925ae8563d1991a048a424a4ee585f10b7bdaab30cbe4185800c86469378ddbda70b991b5831a741",
      "networkId": 0,
      "chainId": 0
    }
  ]
}