{
  "hash": "0xe3ad3c6b996c230a952f5f5df463b40bdb4b94586e0e73bcbb839ab57899a1e6",
  "parentHash": "0x8a606024de04d38c96096afa8e33d60958f7b83ab1a4d53c369d25ff4b75b217",
  "number": 51984,
  "timestamp": 1439014176,
  "nonce": "0x70daef92f5a8a00c",
  "difficulty": 1561132231305,
  "gasLimit": {
    "_hex": "0xf76d1"
  },
  "gasUsed": {
    "_hex": "0xddfd"
  },
  "miner": "0xf8E0CA3Ed80bd541b94BEdCf259e8CF2141A9523",
  "extraData": "0x476574682f76312e302e312f77696e646f77732f676f312e342e32",
  "transactions": [
    {
      "hash": "0xbfc78cd7a3f8dbf533d0491fa64c859e7a1564626fc468727930443cffad89bd",
      "blockHash": "0xe3ad3c6b996c230a952f5f5df463b40bdb4b94586e0e73bcbb839ab57899a1e6",
      "blockNumber": 51984,
      "transactionIndex": 0,
      "confirmations": null,
      "from": "0x885936eaee918456Ee4e71C32497C0114AE56476",
      "gasPrice": {
        "_hex": "0xe015abcb9"
      },
      "gasLimit": {
        "_hex": "0x7a120"
      },
      "to": "0xA327075af2a223A1C83a36aDa1126afE7430f955",
      "value": {
        "_hex": "0x8ac7230489e80000"
      },
      "nonce": 0,
      "data": "0x",
      "r": "0x4c1d1d3eb94ce36215af5190eceb82bb4257f14379c2f29d5a78a814258257fc",
      "s": "0x544cd47b0051917d2db1ee4a8b1f471d54e84f7a56a95ab828eb0b8727d284eb",
      "v": 27,
      "creates": null,
      "raw": "0xf86d80850e015abcb98307a12094a327075af2a223a1c83a36ada1126afe7430f955888ac7230489e80000801ba04c1d1d3eb94ce36215af5190eceb82bb4257f14379c2f29d5a78a814258257fca0544cd47b0051917d2db1ee4a8b1f471d54e84f7a56a95ab828eb0b8727d284eb",
      "networkId": 0,
      "chainId": 0
    }
  ]
}