{
  "hash": "0xa1ad56f9689c2f05b2d599663924e2b12c9802ed49360531ded1f38336abe8df",
  "parentHash": "0x8873f1d237b1569d9566693237f8bf85f3772a6ce5da0ed068a49443b4d1423c",
  "number": 75508,
  "timestamp": 1439404570,
  "nonce": "0x66381bdb84a84ffb",
  "difficulty": 2210443187698,
  "gasLimit": {
    "_hex": "0x2fefd8"
  },
  "gasUsed": {
    "_hex": "0x5208"
  },
  "miner": "0x88D74a59454F6cF3B51ef6b9136AFb6b9D405A88",
  "extraData": "0x476574682f76312e302e312d37666266393930632f6c696e75782f676f312e34",
  "transactions": [
    {
      "hash": "0x501b8f3ed80f3a3c8bfc0bb2dc989c3150432fbdf7542d009eec17b9af251f8f",
      "blockHash": "0xa1ad56f9689c2f05b2d599663924e2b12c9802ed49360531ded1f38336abe8df",
      "blockNumber": 75508,
      "transactionIndex": 0,
      "confirmations": null,
      "from": "0x120A270bbC009644e35F0bB6ab13f95b8199c4ad",
      "gasPrice": {
        "_hex": "0xddb0995c1"
      },
      "gasLimit": {
        "_hex": "0x3d090"
      },
      "to": "0x0C834b0a01810533a5417Ee59c7bB6b5D3956A82",
      "value": {
        "_hex": "0x26411070339ae52800"
      },
      "nonce": 295,
      "data": "0x",
      "r": "0xcd622c9d409975e521a8ca4ec5f715985ba83278c2895f673a343dd19cacb37b",
      "s": "0x52b08af3d0eca528f880677a5d68058c1378c36d29160b1b5e33f11f760fc92c",
      "v": 27,
      "creates": null,
      "raw": "0xf870820127850ddb0995c18303d090940c834b0a01810533a5417ee59c7bb6b5d3956a828926411070339ae52800801ba0cd622c9d409975e521a8ca4ec5f715985ba83278c2895f673a343dd19cacb37ba052b08af3d0eca528f880677a5d68058c1378c36d29160b1b5e33f11f760fc92c",
      "networkId": 0,
      "chainId": 0
    }
  ]
}