{
  "hash": "0x51236a576e2f34a4e19bae8aa8524c1886640ba8d68759e520d0380679c7f697",
  "parentHash": "0x5f8feea85dd6e003cd21f4d0938296dd79272398aacaeb23c7d7ae77a210561b",
  "number": 83945,
  "timestamp": 1439542972,
  "nonce": "0xdcd84184b6a0e867",
  "difficulty": 2476715696936,
  "gasLimit": {
    "_hex": "0x2fefd8"
  },
  "gasUsed": {
    "_hex": "0x5208"
  },
  "miner": "0xe6A7a1d47ff21B6321162AEA7C6CB457D5476Bca",
  "extraData": "0x476574682f76312e302e312d38326566323666362f6c696e75782f676f312e34",
  "transactions": [
    {
      "hash": "0xf9ed09b3894eee07a8bcec8f8e2c2f9d06623d7ce9ad64c7c69e8f99f089a88a",
      "blockHash": "0x51236a576e2f34a4e19bae8aa8524c1886640ba8d68759e520d0380679c7f697",
      "blockNumber": 83945,
      "transactionIndex": 0,
      "confirmations": null,
      "from": "0xEe38Df16452Bb041e346cAa6679EFC57c8bD4603",
      "gasPrice": {
        "_hex": "0xdf5eb256d"
      },
      "gasLimit": {
        "_hex": "0x15f90"
      },
      "to": "0x2Ce503E789353D6299b829A1a1409E26cB30a230",
      "value": {
        "_hex": "0xb8507a820728200000"
      },
      "nonce": 1,
      "data": "0x",
      "r": "0x973e3e0b277592c4c675dd3af935671ba8f19f117863cba8012acb10e51924fb",
      "s": "0x02b26978f4904efc9ceba4cc02a38cf8bbf90be7901d999409672caf2b9e5cbb",
      "v": 27,
      "creates": null,
      "raw": "0xf86e01850df5eb256d83015f90942ce503e789353d6299b829a1a1409e26cb30a23089b8507a820728200000801ba0973e3e0b277592c4c675dd3af935671ba8f19f117863cba8012acb10e51924fba002b26978f4904efc9ceba4cc02a38cf8bbf90be7901d999409672caf2b9e5cbb",
      "networkId": 0,
      "chainId": 0
    }
  ]
}