{
  "hash": "0x727a3f59e1ff4473167c3c338258235552b3ed38898bfca4e85017007d4f46a0",
  "parentHash": "0x772863a1c7b47e9ca61f7ff6e92371cdeba8c5eb55b6b88720595060409796c5",
  "number": 90354,
  "timestamp": 1439638567,
  "nonce": "0xc8c6e9bdbcaa8a76",
  "difficulty": 3325365304027,
  "gasLimit": {
    "_hex": "0x2fefd8"
  },
  "gasUsed": {
    "_hex": "0x5208"
  },
  "miner": "0xBf034FB91a14C1FdC209f70e194C5704a6D844eB",
  "extraData": "0x",
  "transactions": [
    {
      "hash": "0x745a3e2deacae64c8e3234d38279315ce3fa34629677e636b7b0c9672e3494ac",
      "blockHash": "0x727a3f59e1ff4473167c3c338258235552b3ed38898bfca4e85017007d4f46a0",
      "blockNumber": 90354,
      "transactionIndex": 0,
      "confirmations": null,
      "from": "0xD0317e8d007a61B8d740516E8a268D4faDADccbF",
      "gasPrice": {
        "_hex": "0xda6b8c8f6"
      },
      "gasLimit": {
        "_hex": "0x15f90"
      },
      "to": "0xdeE4977F74E6Aef6D627191c9A45D2627e331150",
      "value": {
        "_hex": "0xd02ab486cedc0000"
      },
      "nonce": 4,
      "data": "0x",
      "r": "0x3adeb94915c11142b895f334c7da569b16a09a54c98e2a0d26f27de34bb120e5",
      "s": "0x0bebda4c7007b1152a0a42d228b304ad7af0baeca323355fede95aced4bd3c94",
      "v": 28,
      "creates": null,
      "raw": "0xf86d04850da6b8c8f683015f9094dee4977f74e6aef6d627191c9a45d2627e33115088d02ab486cedc0000801ca03adeb94915c11142b895f334c7da569b16a09a54c98e2a0d26f27de34bb120e5a00bebda4c7007b1152a0a42d228b304ad7af0baeca323355fede95aced4bd3c94",
      "networkId": 0,
      "chainId": 0
    }
  ]
}