{
  "hash": "0xb2f6ac63c1ad30c31d34f1d6d098e31066abeff0b2cc2e8b64ccfec69afee2d0",
  "parentHash": "0xcf3780703a825b0909c6df981d8d4f34d13938c7c7463c7e861db007985bd83a",
  "number": 91427,
  "timestamp": 1439655586,
  "nonce": "0x96c6df0f4ff6f3a2",
  "difficulty": 3469228012671,
  "gasLimit": {
    "_hex": "0x2fefd8"
  },
  "gasUsed": {
    "_hex": "0x546c"
  },
  "miner": "0x790b8a3cE86E707ED0eD32bF89B3269692a23CC1",
  "extraData": "0xd783010001844765746887676f312e342e32856c696e7578",
  "transactions": [
    {
      "hash": "0x2ea3b3388dbffd0e029afa9bf2bae5c0c7032fc782b4634628e24ee417b2d752",
      "blockHash": "0xb2f6ac63c1ad30c31d34f1d6d098e31066abeff0b2cc2e8b64ccfec69afee2d0",
      "blockNumber": 91427,
      "transactionIndex": 0,
      "confirmations": null,
      "from": "0x3872f48dC5e3f817BC6B2aD2d030fc5e0471193d",
      "gasPrice": {
        "_hex": "0x110c8f7d8de"
      },
      "gasLimit": {
        "_hex": "0xc350"
      },
      "to": "0x2910543Af39abA0Cd09dBb2D50200b3E800A63D2",
      "value": {
        "_hex": "0x429d069189e0000"
      },
      "nonce": 4,
      "data": "0x454e31343431363138",
      "r": "0xda9947a490196534e670d0347cbe6aacdaca38f0f677cfee22caef250ff8e877",
      "s": "0x548d581d5282603e894b9b9c9a5af43945d7c3cce342f276ae010ccdf9911ed3",
      "v": 28,
      "creates": null,
      "raw": "0xf87604860110c8f7d8de82c350942910543af39aba0cd09dbb2d50200b3e800a63d2880429d069189e000089454e313434313631381ca0da9947a490196534e670d0347cbe6aacdaca38f0f677cfee22caef250ff8e877a0548d581d5282603e894b9b9c9a5af43945d7c3cce342f276ae010ccdf9911ed3",
      "networkId": 0,
      "chainId": 0
    }
  ]
}