{
  "hash": "0xf2230d2d2337fdf66cacb25df8e0ff86d7e10a34d4b8802195f1cb19e90680a7",
  "parentHash": "0xcb51d1c257c993e1419feed9c8e44537a9101e4fcdc0af5bc91dd8cafbaa0b5c",
  "number": 87453,
  "timestamp": 1439592377,
  "nonce": "0x217401508efd886b",
  "difficulty": 3132610747876,
  "gasLimit": {
    "_hex": "0x2fefd8"
  },
  "gasUsed": {
    "_hex": "0xa410"
  },
  "miner": "0xe6A7a1d47ff21B6321162AEA7C6CB457D5476Bca",
  "extraData": "0x476574682f76312e302e312d38326566323666362f6c696e75782f676f312e34",
  "transactions": [
    {
      "hash": "0xa89b82ced730e1a2a5f87c361ee446840021ae6bf64744367c388d524f7c9932",
      "blockHash": "0xf2230d2d2337fdf66cacb25df8e0ff86d7e10a34d4b8802195f1cb19e90680a7",
      "blockNumber": 87453,
      "transactionIndex": 0,
      "confirmations": null,
      "from": "0x6E2035C3Cb6EB480e07749D4fa252837d91BFE2D",
      "gasPrice": {
        "_hex": "0xe2cde030a"
      },
      "gasLimit": {
        "_hex": "0x5208"
      },
      "to": "0x32Be343B94f860124dC4fEe278FDCBD38C102D88",
      "value": {
        "_hex": "0xdca686979076c00"
      },
      "nonce": 0,
      "data": "0x",
      "r": "0x970f3b7cef4ce6cca242104130839eb3272f57d46a051e5daadecb55a247e297",
      "s": "0x0de4f8be93b0b2c47ddcdeff90000654a0b5904faaf0fb45f0f280de17129eef",
      "v": 27,
      "creates": null,
      "raw": "0xf86c80850e2cde030a8252089432be343b94f860124dc4fee278fdcbd38c102d88880dca686979076c00801ba0970f3b7cef4ce6cca242104130839eb3272f57d46a051e5daadecb55a247e297a00de4f8be93b0b2c47ddcdeff90000654a0b5904faaf0fb45f0f280de17129eef",
      "networkId": 0,
      "chainId": 0
    },
    {
      "hash": "0x2a7e13b24f8204a7ac3e660b6beeeb2c9d85d191dad7eaf9d07c446d140f67cb",
      "blockHash": "0xf2230d2d2337fdf66cacb25df8e0ff86d7e10a34d4b8802195f1cb19e90680a7",
      "blockNumber": 87453,
      "transactionIndex": 1,
      "confirmations": null,
      "from": "0x01Ad0ACFf478127D9d702B1A13599D706cB759b1",
      "gasPrice": {
        "_hex": "0xe2cde030a"
      },
      "gasLimit": {
        "_hex": "0x5208"
      },
      "to": "0x32Be343B94f860124dC4fEe278FDCBD38C102D88",
      "value": {
        "_hex": "0x455f06b14e77ec00"
      },
      "nonce": 28,
      "data": "0x",
      "r": "0x2ef5614b1aa1b9d542c2365449007392c664e6c47501834f5ab1ef458d828528",
      "s": "0x752bf13ac27c4f6f94ce17fe943ae9cdc3cbf5062619317ad69940f0566dc275",
      "v": 28,
      "creates": null,
      "raw": "0xf86c1c850e2cde030a8252089432be343b94f860124dc4fee278fdcbd38c102d8888455f06b14e77ec00801ca02ef5614b1aa1b9d542c2365449007392c664e6c47501834f5ab1ef458d828528a0752bf13ac27c4f6f94ce17fe943ae9cdc3cbf5062619317ad69940f0566dc275",
      "networkId": 0,
      "chainId": 0
    }
  ]
}