{
  "hash": "0xe2394918b7267dfc4ae76df30f8b24d6f104cad41dcf0691125e30f4eb7a7888",
  "parentHash": "0x865edb1ebe97668266d2d087f03e4cb922a85f9a7c17da3c6dc1056df5e28036",
  "number": 83929,
  "timestamp": 1439542770,
  "nonce": "0x7c7491479232d7c2",
  "difficulty": 2474302929032,
  "gasLimit": {
    "_hex": "0x2fefd8"
  },
  "gasUsed": {
    "_hex": "0xa410"
  },
  "miner": "0xf927a40C8B7F6E07c5af7FA2155B4864a4112B13",
  "extraData": "0x",
  "transactions": [
    {
      "hash": "0xb86c884f09d97d8dc065c022e9ebf21dc892da6e84bc123bb7fff3b7495b0f6a",
      "blockHash": "0xe2394918b7267dfc4ae76df30f8b24d6f104cad41dcf0691125e30f4eb7a7888",
      "blockNumber": 83929,
      "transactionIndex": 0,
      "confirmations": null,
      "from": "0xcd0Af3474e22F069EC3407870DD770443d5b12B0",
      "gasPrice": {
        "_hex": "0xd8280a26d"
      },
      "gasLimit": {
        "_hex": "0x7a120"
      },
      "to": "0x0bCa038BF4ACAd3Cbf73463EccC7717dDCDc3D83",
      "value": {
        "_hex": "0x87727c4a0fd0000"
      },
      "nonce": 16,
      "data": "0x",
      "r": "0x451bdcde99220d6db2954ec74175dd969b5dee091fd7e5c6ab63685a99e7379d",
      "s": "0x51ba83e5cb7f640a65b5fef4e0dc46bc4387031958e1b5098d7fe84a61e47fee",
      "v": 28,
      "creates": null,
      "raw": "0xf86d10850d8280a26d8307a120940bca038bf4acad3cbf73463eccc7717ddcdc3d8388087727c4a0fd0000801ca0451bdcde99220d6db2954ec74175dd969b5dee091fd7e5c6ab63685a99e7379da051ba83e5cb7f640a65b5fef4e0dc46bc4387031958e1b5098d7fe84a61e47fee",
      "networkId": 0,
      "chainId": 0
    },
    {
      "hash": "0x51ad5ab599578a1249f6f1ad78b624f41a8083fed167b54e4538942ca00d650e",
      "blockHash": "0xe2394918b7267dfc4ae76df30f8b24d6f104cad41dcf0691125e30f4eb7a7888",
      "blockNumber": 83929,
      "transactionIndex": 1,
      "confirmations": null,
      "from": "0x0bCa038BF4ACAd3Cbf73463EccC7717dDCDc3D83",
      "gasPrice": {
        "_hex": "0xd37245502"
      },
      "gasLimit": {
        "_hex": "0x5208"
      },
      "to": "0x32Be343B94f860124dC4fEe278FDCBD38C102D88",
      "value": {
        "_hex": "0x56bc336f809460000"
      },
      "nonce": 4,
      "data": "0x",
      "r": "0x4f88cb0c59c771162f003fd688edbdb1b46cd2f3df335ff16a44d47da723cbc2",
      "s": "0x622e5f9d49e1d3f3a7bed4dca26d513a005130e79ad304fa032634c4e0cff143",
      "v": 27,
      "creates": null,
      "raw": "0xf86d04850d372455028252089432be343b94f860124dc4fee278fdcbd38c102d8889056bc336f809460000801ba04f88cb0c59c771162f003fd688edbdb1b46cd2f3df335ff16a44d47da723cbc2a0622e5f9d49e1d3f3a7bed4dca26d513a005130e79ad304fa032634c4e0cff143",
      "networkId": 0,
      "chainId": 0
    }
  ]
}