{
  "hash": "0x8252b8dc694933760afc14b95f55c1f27e1a78a0b5343dc61d3c9006af9231a5",
  "parentHash": "0xcd564c94d635e2faf62c459c903f651fc372d633ac9d260cca2e04a33602dffe",
  "number": 89638,
  "timestamp": 1439626715,
  "nonce": "0xe9034dfbda5c18cf",
  "difficulty": 3312683670573,
  "gasLimit": {
    "_hex": "0x2fefd8"
  },
  "gasUsed": {
    "_hex": "0x5208"
  },
  "miner": "0xe6A7a1d47ff21B6321162AEA7C6CB457D5476Bca",
  "extraData": "0x476574682f76312e302e312d38326566323666362f6c696e75782f676f312e34",
  "transactions": [
    {
      "hash": "0x9ca8c64e173b809578b785305cb8cfdecc3854a18d85158e216d7260acf16159",
      "blockHash": "0x8252b8dc694933760afc14b95f55c1f27e1a78a0b5343dc61d3c9006af9231a5",
      "blockNumber": 89638,
      "transactionIndex": 0,
      "confirmations": null,
      "from": "0x198D56231387bCe73779303B332E48A8b29aAe06",
      "gasPrice": {
        "_hex": "0xd6fe7ffe8"
      },
      "gasLimit": {
        "_hex": "0x5208"
      },
      "to": "0x32Be343B94f860124dC4fEe278FDCBD38C102D88",
      "value": {
        "_hex": "0x1bab5114d79a8400"
      },
      "nonce": 0,
      "data": "0x",
      "r": "0x663c048fec379deda08cb93c88292f8ae393f47af1812c472ac15b6489e676c3",
      "s": "0x440fcd62317473bb4ab1444713687eb9419731cee265582b87eb7137eef3f7a5",
      "v": 28,
      "creates": null,
      "raw": "0xf86c80850d6fe7ffe88252089432be343b94f860124dc4fee278fdcbd38c102d88881bab5114d79a8400801ca0663c048fec379deda08cb93c88292f8ae393f47af1812c472ac15b6489e676c3a0440fcd62317473bb4ab1444713687eb9419731cee265582b87eb7137eef3f7a5",
      "networkId": 0,
      "chainId": 0
    }
  ]
}