{
  "hash": "0xfb77bdfeb0a2bd77b3a8211141a21e2b4d90f0e72b47e8b2d1d556fbf7430ac2",
  "parentHash": "0xace950418384192b930f33335237f852063f54e9d8439231d521a5e876482ddf",
  "number": 121845,
  "timestamp": 1440183588,
  "nonce": "0x3373ae68a0497511",
  "difficulty": 4490772592750,
  "gasLimit": {
    "_hex": "0x2fefd8"
  },
  "gasUsed": {
    "_hex": "0x546c"
  },
  "miner": "0x52bc44d5378309EE2abF1539BF71dE1b7d7bE3b5",
  "extraData": "0xd783010002844765746887676f312e342e32856c696e7578",
  "transactions": [
    {
      "hash": "0xbc3b8005597c352be66415b98b2e66ff33229e3fe4a84f5ef992686b3b90784a",
      "blockHash": "0xfb77bdfeb0a2bd77b3a8211141a21e2b4d90f0e72b47e8b2d1d556fbf7430ac2",
      "blockNumber": 121845,
      "transactionIndex": 0,
      "confirmations": null,
      "from": "0x0c925AD5eB352C8Ef76d0C222D115b0791B962a1",
      "gasPrice": {
        "_hex": "0x110c8f7d8de"
      },
      "gasLimit": {
        "_hex": "0xc350"
      },
      "to": "0x2910543Af39abA0Cd09dBb2D50200b3E800A63D2",
      "value": {
        "_hex": "0x1b0d04202f47ec0000"
      },
      "nonce": 1,
      "data": "0x454e32444a44443430",
      "r": "0x171888be6a2e9ca48c35894c146df05f63a432085b209a5a342c35392690ff47",
      "s": "0x594a85a17e46af3222eb906fbed06c7da120a3c024a9ea035c5b6d25f925f62d",
      "v": 28,
      "creates": null,
      "raw": "0xf87701860110c8f7d8de82c350942910543af39aba0cd09dbb2d50200b3e800a63d2891b0d04202f47ec000089454e32444a444434301ca0171888be6a2e9ca48c35894c146df05f63a432085b209a5a342c35392690ff47a0594a85a17e46af3222eb906fbed06c7da120a3c024a9ea035c5b6d25f925f62d",
      "networkId": 0,
      "chainId": 0
    }
  ]
}