{
  "hash": "0x148003f8fb7d550f0121b027572b1e282149047558c18c49ee730750c5e9c5be",
  "parentHash": "0xadf37639f20006ccad7f89d46855fbbcb45c3046b3a5def1cd4a74be0fdecb78",
  "number": 89893,
  "timestamp": 1439630784,
  "nonce": "0xa7bda4c215ed49ef",
  "difficulty": 3343457942701,
  "gasLimit": {
    "_hex": "0x2fefd8"
  },
  "gasUsed": {
    "_hex": "0x5208"
  },
  "miner": "0x790b8a3cE86E707ED0eD32bF89B3269692a23CC1",
  "extraData": "0xd783010001844765746887676f312e342e32856c696e7578",
  "transactions": [
    {
      "hash": "0x825be5c8e799bc8235eb0dbe497166f24c4cb0d7c8cde4f4477b80df9da711e6",
      "blockHash": "0x148003f8fb7d550f0121b027572b1e282149047558c18c49ee730750c5e9c5be",
      "blockNumber": 89893,
      "transactionIndex": 0,
      "confirmations": null,
      "from": "0xf0c896DB24137eDA6Ec88cF1a95217F8604aE55e",
      "gasPrice": {
        "_hex": "0xe10b906ea"
      },
      "gasLimit": {
        "_hex": "0x5208"
      },
      "to": "0x32Be343B94f860124dC4fEe278FDCBD38C102D88",
      "value": {
        "_hex": "0x222657bf76ea6e000"
      },
      "nonce": 1,
      "data": "0x",
      "r": "0x4bbbbbf40bcd566943ef600a70459b32db70c5b644227223cde9c0027c591cd7",
      "s": "0x2d28ddae20f9cb6754c24b6b4116824138f90c049436c94ccdc01049e2b0db13",
      "v": 28,
      "creates": null,
      "raw": "0xf86d01850e10b906ea8252089432be343b94f860124dc4fee278fdcbd38c102d88890222657bf76ea6e000801ca04bbbbbf40bcd566943ef600a70459b32db70c5b644227223cde9c0027c591cd7a02d28ddae20f9cb6754c24b6b4116824138f90c049436c94ccdc01049e2b0db13",
      "networkId": 0,
      "chainId": 0
    }
  ]
}