{
  "hash": "0x715c313274f73007cda05c7389a11f0750d622119f15308b44f5f8775848f787",
  "parentHash": "0x4a417f3688ca2dfd61f7ce6276ea96dfb17658998d5e005ffbcf7ac34233a7bc",
  "number": 74068,
  "timestamp": 1439379833,
  "nonce": "0xd6e55e49d1e486f4",
  "difficulty": 2236883148126,
  "gasLimit": {
    "_hex": "0x2fefd8"
  },
  "gasUsed": {
    "_hex": "0x546c"
  },
  "miner": "0xe6A7a1d47ff21B6321162AEA7C6CB457D5476Bca",
  "extraData": "0x476574682f76312e302e312d38326566323666362f6c696e75782f676f312e34",
  "transactions": [
    {
      "hash": "0x68ed5f5585a82f30d7413325bcdef9cbcfc9336abbec302298d9364a5232aa62",
      "blockHash": "0x715c313274f73007cda05c7389a11f0750d622119f15308b44f5f8775848f787",
      "blockNumber": 74068,
      "transactionIndex": 0,
      "confirmations": null,
      "from": "0xCD06F8C1b5CDBD28e2D96b6346c3e85a0483ba24",
      "gasPrice": {
        "_hex": "0x110c8f7d8de"
      },
      "gasLimit": {
        "_hex": "0xc350"
      },
      "to": "0x2910543Af39abA0Cd09dBb2D50200b3E800A63D2",
      "value": {
        "_hex": "0x30ca024f987b900000"
      },
      "nonce": 0,
      "data": "0x454e3457384b415247",
      "r": "0x5c8d45d1b347673b45cb2505d485210db07d0891c70b27b4eb0ef7ebf871b154",
      "s": "0x74a7638d917ab6d6ea90bf5a39c68804869f8a7c4fead3d1569ab34be7cbf33e",
      "v": 27,
      "creates": null,
      "raw": "0xf87780860110c8f7d8de82c350942910543af39aba0cd09dbb2d50200b3e800a63d28930ca024f987b90000089454e3457384b4152471ba05c8d45d1b347673b45cb2505d485210db07d0891c70b27b4eb0ef7ebf871b154a074a7638d917ab6d6ea90bf5a39c68804869f8a7c4fead3d1569ab34be7cbf33e",
      "networkId": 0,
      "chainId": 0
    }
  ]
}