{
  "hash": "0x87ee380e58b90bb2e6eaf160649288d3d838f4fe3fd53a8f2b46f88fbd8e8205",
  "parentHash": "0xc5b2766d066fd864cfa0817e651b0f9b4e8d32696e5ae8f33b0ddd5dc97e3847",
  "number": 57100,
  "timestamp": 1439097421,
  "nonce": "0x95da6aece263910d",
  "difficulty": 1726962319639,
  "gasLimit": {
    "_hex": "0x2fd7de"
  },
  "gasUsed": {
    "_hex": "0xa410"
  },
  "miner": "0x9746c7e1ef2bd21FF3997fa467593a89cb852BD0",
  "extraData": "0x476574682f76312e302e312f77696e646f77732f676f312e342e32",
  "transactions": [
    {
      "hash": "0x6e38e8bc58a63bbacf1449ba8fee7721efd17dedd8962bbca87ed7fbe2a67910",
      "blockHash": "0x87ee380e58b90bb2e6eaf160649288d3d838f4fe3fd53a8f2b46f88fbd8e8205",
      "blockNumber": 57100,
      "transactionIndex": 0,
      "confirmations": null,
      "from": "0x7b0813f6450be6d2d27984878f03ee858471fF1c",
      "gasPrice": {
        "_hex": "0xdbe738e8b"
      },
      "gasLimit": {
        "_hex": "0x5208"
      },
      "to": "0x32Be343B94f860124dC4fEe278FDCBD38C102D88",
      "value": {
        "_hex": "0x218ae15041d75600000"
      },
      "nonce": 1,
      "data": "0x",
      "r": "0xe2378c52b58dd2074adc3c873f7aa97d50c8156af225a5239078ad7c952d3b99",
      "s": "0x30f0f1b51ea4b0d6cd4b984c7ac82de483978a10409d121114d95bcf3f54fda6",
      "v": 27,
      "creates": null,
      "raw": "0xf86e01850dbe738e8b8252089432be343b94f860124dc4fee278fdcbd38c102d888a0218ae15041d75600000801ba0e2378c52b58dd2074adc3c873f7aa97d50c8156af225a5239078ad7c952d3b99a030f0f1b51ea4b0d6cd4b984c7ac82de483978a10409d121114d95bcf3f54fda6",
      "networkId": 0,
      "chainId": 0
    },
    {
      "hash": "0xffcbedb04c93ab27063e43312f54d552ddc40ee49b06fa3fd6f36b7dae760be9",
      "blockHash": "0x87ee380e58b90bb2e6eaf160649288d3d838f4fe3fd53a8f2b46f88fbd8e8205",
      "blockNumber": 57100,
      "transactionIndex": 1,
      "confirmations": null,
      "from": "0x3D0768da09CE77d25e2d998E6a7b6eD4b9116c2D",
      "gasPrice": {
        "_hex": "0xd3d37f23a"
      },
      "gasLimit": {
        "_hex": "0x5208"
      },
      "to": "0x03c4C03f163D51105bBC0E1a63077cB04210aa83",
      "value": {
        "_hex": "0x16345785d8a0000"
      },
      "nonce": 35,
      "data": "0x",
      "r": "0x9571d7be0e87814fd47ce530f0cb5ec54235e83637bed5660d1d09ea39b240bb",
      "s": "0x7722d7b1ccff1c1ff26958b2a3573d0239aba09b81f7fa05dbabf1a7a005e6cc",
      "v": 27,
      "creates": null,
      "raw": "0xf86c23850d3d37f23a8252089403c4c03f163d51105bbc0e1a63077cb04210aa8388016345785d8a0000801ba09571d7be0e87814fd47ce530f0cb5ec54235e83637bed5660d1d09ea39b240bba07722d7b1ccff1c1ff26958b2a3573d0239aba09b81f7fa05dbabf1a7a005e6cc",
      "networkId": 0,
      "chainId": 0
    }
  ]
}