{
  "hash": "0x46169176b8048cd18d974ea78374f7114c8b716f270a1be5a2057b82231471b9",
  "parentHash": "0x0231a743b8b9fe4c6dfc434a2c3a50f0316b398c7738ad5d1b9ddc9c6bb62ffe",
  "number": 46640,
  "timestamp": 1438926655,
  "nonce": "0xf6606f195986877c",
  "difficulty": 1454641289370,
  "gasLimit": {
    "_hex": "0x6d83"
  },
  "gasUsed": {
    "_hex": "0x5208"
  },
  "miner": "0xf8E0CA3Ed80bd541b94BEdCf259e8CF2141A9523",
  "extraData": "0x476574682f76312e302e312f77696e646f77732f676f312e342e32",
  "transactions": [
    {
      "hash": "0xcba6978097c771bf983a7d877ffdd905cd9abc3a366e42ef194e5907b5e6842a",
      "blockHash": "0x46169176b8048cd18d974ea78374f7114c8b716f270a1be5a2057b82231471b9",
      "blockNumber": 46640,
      "transactionIndex": 0,
      "confirmations": null,
      "from": "0x64bE1C1A0198370F53B2081e15478BE3135D6beF",
      "gasPrice": {
        "_hex": "0x2c3c865675"
      },
      "gasLimit": {
        "_hex": "0x55f0"
      },
      "to": "0x90cA42f0308bF15db201F40e41faA6Dd7a96bEA7",
      "value": {
        "_hex": "0x8ac7230489e80000"
      },
      "nonce": 0,
      "data": "0x",
      "r": "0x0fcc1fe71ae4ab5c81a1157acf8d533be1caa612c57cfaaf6426d856e3b2bdb4",
      "s": "0x7afa85e50dba3d5e8f9163ba72fa612679546e81bc7bb4d082c5bd6744baff85",
      "v": 28,
      "creates": null,
      "raw": "0xf86c80852c3c8656758255f09490ca42f0308bf15db201f40e41faa6dd7a96bea7888ac7230489e80000801ca00fcc1fe71ae4ab5c81a1157acf8d533be1caa612c57cfaaf6426d856e3b2bdb4a07afa85e50dba3d5e8f9163ba72fa612679546e81bc7bb4d082c5bd6744baff85",
      "networkId": 0,
      "chainId": 0
    }
  ]
}