{
  "hash": "0x18174e2c53e525c83535689825dbaf48cba6ea2f8693e20fc54cd157b97e13d1",
  "parentHash": "0xd727ba1ebd88638440e0b291adb91846a4ce07ebe7b98c4aa582d0ccef0ea5ac",
  "number": 102061,
  "timestamp": 1439832243,
  "nonce": "0x6d2094826a21a536",
  "difficulty": 3910863455876,
  "gasLimit": {
    "_hex": "0x2fefd8"
  },
  "gasUsed": {
    "_hex": "0x5208"
  },
  "miner": "0xe6A7a1d47ff21B6321162AEA7C6CB457D5476Bca",
  "extraData": "0x476574682f76312e302e312d38326566323666362f6c696e75782f676f312e34",
  "transactions": [
    {
      "hash": "0x0a9cfb3e7cf5dc71ba513c6f89508d95f14bfca4384565d1ae50335d548bb7eb",
      "blockHash": "0x18174e2c53e525c83535689825dbaf48cba6ea2f8693e20fc54cd157b97e13d1",
      "blockNumber": 102061,
      "transactionIndex": 0,
      "confirmations": null,
      "from": "0x007f7f58D3eb5b7510A301eCC749FC1fCDDBE14D",
      "gasPrice": {
        "_hex": "0xe0cfe7246"
      },
      "gasLimit": {
        "_hex": "0x15f90"
      },
      "to": "0xb1abce2918E21ddb93AA452731a12672A3d9F75a",
      "value": {
        "_hex": "0x4563918244f40000"
      },
      "nonce": 200,
      "data": "0x",
      "r": "0xcdb0c2c27ab36b29d4d4b37dfe2ee18034b2e762aa633a4bd68f4bae8f7e03c1",
      "s": "0x63fa19fde29551fcc7ed7c4703b0d83e2298b1288c82c05e13edb24d51a3d913",
      "v": 27,
      "creates": null,
      "raw": "0xf86e81c8850e0cfe724683015f9094b1abce2918e21ddb93aa452731a12672a3d9f75a884563918244f40000801ba0cdb0c2c27ab36b29d4d4b37dfe2ee18034b2e762aa633a4bd68f4bae8f7e03c1a063fa19fde29551fcc7ed7c4703b0d83e2298b1288c82c05e13edb24d51a3d913",
      "networkId": 0,
      "chainId": 0
    }
  ]
}