{
  "hash": "0x568b9e4bee657c30d97d454856ed7573d39de33fd4790fa31412e36e880d9883",
  "parentHash": "0x91db623d8f210371b7c35fb116cb57433d19d8253136a81e97ff1c8f049936dd",
  "number": 55803,
  "timestamp": 1439077394,
  "nonce": "0x5c6a2d6f1b6fe54d",
  "difficulty": 1601330738741,
  "gasLimit": {
    "_hex": "0x2fefd8"
  },
  "gasUsed": {
    "_hex": "0x5208"
  },
  "miner": "0x2134e2a2b718DCa96580ECAC31E653Ea1fdd58DA",
  "extraData": "0x476574682f76312e302e312f77696e646f77732f676f312e342e32",
  "transactions": [
    {
      "hash": "0x8eb8834af715212a6aefe480cb67822ec5cdb25b9f9dd8e41f732a49db8951e1",
      "blockHash": "0x568b9e4bee657c30d97d454856ed7573d39de33fd4790fa31412e36e880d9883",
      "blockNumber": 55803,
      "transactionIndex": 0,
      "confirmations": null,
      "from": "0xDeDbaA6D17975d4edc31195983F9AFaB1529CD47",
      "gasPrice": {
        "_hex": "0xcc629fba9"
      },
      "gasLimit": {
        "_hex": "0x5208"
      },
      "to": "0x32Be343B94f860124dC4fEe278FDCBD38C102D88",
      "value": {
        "_hex": "0x1a90199bfe91ee0000"
      },
      "nonce": 1,
      "data": "0x",
      "r": "0xed92c363943258eed5bfd1945745e5cf922b95ec3cfed5145d1cd5e6c1035ded",
      "s": "0x265920b6996de4124660d90ef5c0fcabe6a19728ba9ad41753234cb650100f15",
      "v": 28,
      "creates": null,
      "raw": "0xf86d01850cc629fba98252089432be343b94f860124dc4fee278fdcbd38c102d88891a90199bfe91ee0000801ca0ed92c363943258eed5bfd1945745e5cf922b95ec3cfed5145d1cd5e6c1035deda0265920b6996de4124660d90ef5c0fcabe6a19728ba9ad41753234cb650100f15",
      "networkId": 0,
      "chainId": 0
    }
  ]
}