{
  "hash": "0x39546e28ba0b3fb71cedc5f35da07dc220f4765ab7a461bebda82434a488c5e6",
  "parentHash": "0x821953479ab72e086109209462078ecea16e14c01d992ad473a25c767df9b5e5",
  "number": 65104,
  "timestamp": 1439231342,
  "nonce": "0x2456a01c6c8c3fb2",
  "difficulty": 1928491253090,
  "gasLimit": {
    "_hex": "0x2fefd8"
  },
  "gasUsed": {
    "_hex": "0xa410"
  },
  "miner": "0xe6A7a1d47ff21B6321162AEA7C6CB457D5476Bca",
  "extraData": "0x476574682f76312e302e312f6c696e75782f676f312e342e32",
  "transactions": [
    {
      "hash": "0x90a4282c400306120b65bb5df51fc292220fb5fc264f4f4880300d58f6d2e46c",
      "blockHash": "0x39546e28ba0b3fb71cedc5f35da07dc220f4765ab7a461bebda82434a488c5e6",
      "blockNumber": 65104,
      "transactionIndex": 0,
      "confirmations": null,
      "from": "0x22E3017D88daE290C9038d5B0aC38C2FE3B02249",
      "gasPrice": {
        "_hex": "0xba43b7400"
      },
      "gasLimit": {
        "_hex": "0x5208"
      },
      "to": "0x411c67710aDece61E5ec396a1a3F029e30589280",
      "value": {
        "_hex": "0x45f41363441f000"
      },
      "nonce": 1,
      "data": "0x",
      "r": "0x304bedf56321497b08651d9dc0dd59afc3e94dcbb0d543b31feb9086bdf7c85c",
      "s": "0x3e05f70c820a66158124f94617b1917b325497bb316fb7c5caadf8250adbc97d",
      "v": 28,
      "creates": null,
      "raw": "0xf86c01850ba43b740082520894411c67710adece61e5ec396a1a3f029e3058928088045f41363441f000801ca0304bedf56321497b08651d9dc0dd59afc3e94dcbb0d543b31feb9086bdf7c85ca03e05f70c820a66158124f94617b1917b325497bb316fb7c5caadf8250adbc97d",
      "networkId": 0,
      "chainId": 0
    },
    {
      "hash": "0x8eee151e5450f294ea155043fad34f95270f348daab5223802cf9facbedba730",
      "blockHash": "0x39546e28ba0b3fb71cedc5f35da07dc220f4765ab7a461bebda82434a488c5e6",
      "blockNumber": 65104,
      "transactionIndex": 1,
      "confirmations": null,
      "from": "0x1380d17b608EC3f7A62169A244580aFFe5c26164",
      "gasPrice": {
        "_hex": "0xba43b7400"
      },
      "gasLimit": {
        "_hex": "0x5208"
      },
      "to": "0x065C972D8A5CdB748f43F204367c309a23e8316A",
      "value": {
        "_hex": "0x4bbcde99a83b000"
      },
      "nonce": 1,
      "data": "0x",
      "r": "0x43d569730c54ad6b381488551e262412d59a57a76e57d7ca2435ab246d405ba7",
      "s": "0x306f43a21666d022de8c14dc24937b0308b086ba50d23c839bf226e38fbf02c4",
      "v": 28,
      "creates": null,
      "raw": "0xf86c01850ba43b740082520894065c972d8a5cdb748f43f204367c309a23e8316a8804bbcde99a83b000801ca043d569730c54ad6b381488551e262412d59a57a76e57d7ca2435ab246d405ba7a0306f43a21666d022de8c14dc24937b0308b086ba50d23c839bf226e38fbf02c4",
      "networkId": 0,
      "chainId": 0
    }
  ]
}