{
  "hash": "0xabad99e253beb633764b42ea4ded2c18fe0e81498d578f9297674e3f0f2be074",
  "parentHash": "0x8ac7d6e07b9c607762c57905f65ceaa471cf2f5991e2d198df73ab6f0717fbdf",
  "number": 47791,
  "timestamp": 1438946357,
  "nonce": "0x4cc7daf679ece12b",
  "difficulty": 1453731708533,
  "gasLimit": {
    "_hex": "0xf317"
  },
  "gasUsed": {
    "_hex": "0x5208"
  },
  "miner": "0x3F98e477a361F777DA14611a7e419A75Fd238b6b",
  "extraData": "0x476574682f76312e302e312f6c696e75782f676f312e342e32",
  "transactions": [
    {
      "hash": "0x7339a7556911837f2cf72b9a8f5f615a98847f99add71652c1cfcc8716c176a2",
      "blockHash": "0xabad99e253beb633764b42ea4ded2c18fe0e81498d578f9297674e3f0f2be074",
      "blockNumber": 47791,
      "transactionIndex": 0,
      "confirmations": null,
      "from": "0xe6A7a1d47ff21B6321162AEA7C6CB457D5476Bca",
      "gasPrice": {
        "_hex": "0xd4e2fd4e8"
      },
      "gasLimit": {
        "_hex": "0x55f0"
      },
      "to": "0xacc8dECDFDCbed202B8632947c60487494F5D2c7",
      "value": {
        "_hex": "0x305a3b8bf61034500"
      },
      "nonce": 239,
      "data": "0x",
      "r": "0xfecedecff6a6ef2badb83129dc7ce2b93ea5f82228f83bdbe3522f7129c6ef15",
      "s": "0x2c95a4f1df5b4b2f005cb4bcf07ef12399607b315afb5c8b51d917e62f6bdeff",
      "v": 28,
      "creates": null,
      "raw": "0xf86e81ef850d4e2fd4e88255f094acc8decdfdcbed202b8632947c60487494f5d2c7890305a3b8bf61034500801ca0fecedecff6a6ef2badb83129dc7ce2b93ea5f82228f83bdbe3522f7129c6ef15a02c95a4f1df5b4b2f005cb4bcf07ef12399607b315afb5c8b51d917e62f6bdeff",
      "networkId": 0,
      "chainId": 0
    }
  ]
}