{
  "hash": "0x67e85264bc06d288ec1633ef655abc78a0b5b9c232706b08f52e654fc22249ca",
  "parentHash": "0x78867dc49b656c081a80db42b356f9375974a4016c68fbc07b2ab4f54fe2541b",
  "number": 102128,
  "timestamp": 1439833305,
  "nonce": "0x1768335286e01855",
  "difficulty": 3908923099779,
  "gasLimit": {
    "_hex": "0x2fefd8"
  },
  "gasUsed": {
    "_hex": "0x5208"
  },
  "miner": "0x7E6930B63D03e88F5928C5cd6ee3FCee4D714F7F",
  "extraData": "0x",
  "transactions": [
    {
      "hash": "0x1e944c4114fc84006ef5083c59065e0e78c930531d914594b4c59bc0216b1458",
      "blockHash": "0x67e85264bc06d288ec1633ef655abc78a0b5b9c232706b08f52e654fc22249ca",
      "blockNumber": 102128,
      "transactionIndex": 0,
      "confirmations": null,
      "from": "0x2910543Af39abA0Cd09dBb2D50200b3E800A63D2",
      "gasPrice": {
        "_hex": "0xde83923ef"
      },
      "gasLimit": {
        "_hex": "0x5208"
      },
      "to": "0x548938756fCb5655A7523f66C01F1cd40aa620bE",
      "value": {
        "_hex": "0x15181ff25a98000"
      },
      "nonce": 984,
      "data": "0x",
      "r": "0x76c42effe468ef9ef64fc4882616963e3a000ed6f93351a3aab60f6313f29b52",
      "s": "0x3739a6183f41d61c7054f93b2b8a5df41f2929a77f0e9461ca0ab0fd1c67b146",
      "v": 28,
      "creates": null,
      "raw": "0xf86e8203d8850de83923ef82520894548938756fcb5655a7523f66c01f1cd40aa620be88015181ff25a98000801ca076c42effe468ef9ef64fc4882616963e3a000ed6f93351a3aab60f6313f29b52a03739a6183f41d61c7054f93b2b8a5df41f2929a77f0e9461ca0ab0fd1c67b146",
      "networkId": 0,
      "chainId": 0
    }
  ]
}