{
  "hash": "0xd34fd600e6350928cf12c53a255877457d4dc007112429f92f3296a56918bcf2",
  "parentHash": "0xf23891d67560f46e2e458996a5cb08d63474a6e09e2904bc5418a329e43655e2",
  "number": 115354,
  "timestamp": 1440055810,
  "nonce": "0x8d03865d22e06de5",
  "difficulty": 4549446496371,
  "gasLimit": {
    "_hex": "0x2fefd8"
  },
  "gasUsed": {
    "_hex": "0x5208"
  },
  "miner": "0x52bc44d5378309EE2abF1539BF71dE1b7d7bE3b5",
  "extraData": "0x476574682f76312e302e312d61383839306436312f6c696e75782f676f312e34",
  "transactions": [
    {
      "hash": "0x6d1a66b3f91141dd8dac0a23e8489aba7f55e42d83983786b8387f3e60b82a10",
      "blockHash": "0xd34fd600e6350928cf12c53a255877457d4dc007112429f92f3296a56918bcf2",
      "blockNumber": 115354,
      "transactionIndex": 0,
      "confirmations": null,
      "from": "0xa69Dd2F55e5A3d4CB2B4b3eE2f613562b57a1D2F",
      "gasPrice": {
        "_hex": "0xdc524e2a5"
      },
      "gasLimit": {
        "_hex": "0x5208"
      },
      "to": "0x32Be343B94f860124dC4fEe278FDCBD38C102D88",
      "value": {
        "_hex": "0x2b3dbcc6fa5a0000"
      },
      "nonce": 6,
      "data": "0x",
      "r": "0x738ce095806d005109ca8dc95555fd680c8f6abf9205bb5d1274a76df0d6bc0c",
      "s": "0x401eabade2a9244acf7a72d6c3023347aabe9e9b8a41062218569127a3ae51d3",
      "v": 27,
      "creates": null,
      "raw": "0xf86c06850dc524e2a58252089432be343b94f860124dc4fee278fdcbd38c102d88882b3dbcc6fa5a0000801ba0738ce095806d005109ca8dc95555fd680c8f6abf9205bb5d1274a76df0d6bc0ca0401eabade2a9244acf7a72d6c3023347aabe9e9b8a41062218569127a3ae51d3",
      "networkId": 0,
      "chainId": 0
    }
  ]
}