{
  "hash": "0x6c4ee8b0574c6a09a321bbea01981d397a1d097024aaa9374979ee3e7ee7e70e",
  "parentHash": "0x0a7dc90d4af02fd3498c04893e795b37c5e0368e658b112b9f9c895508e834a0",
  "number": 67895,
  "timestamp": 1439279082,
  "nonce": "0xd2ce35b66c6e3b29",
  "difficulty": 1949622413117,
  "gasLimit": {
    "_hex": "0x2fefd8"
  },
  "gasUsed": {
    "_hex": "0x5208"
  },
  "miner": "0x88D74a59454F6cF3B51ef6b9136AFb6b9D405A88",
  "extraData": "0x476574682f76312e302e312d37666266393930632f6c696e75782f676f312e34",
  "transactions": [
    {
      "hash": "0xa049b8ddb50c328b51801eeb99123d5b49fa1635445b9eb5c6a38afa41fbd96d",
      "blockHash": "0x6c4ee8b0574c6a09a321bbea01981d397a1d097024aaa9374979ee3e7ee7e70e",
      "blockNumber": 67895,
      "transactionIndex": 0,
      "confirmations": null,
      "from": "0x43c2AeB7b46cbB31eE7f9A86BDAfB5C87cD486a3",
      "gasPrice": {
        "_hex": "0xba43b7400"
      },
      "gasLimit": {
        "_hex": "0x5267"
      },
      "to": "0xf79785E5a846aCea08F94379fCCe79B1054bDB99",
      "value": {
        "_hex": "0x4563918244f40000"
      },
      "nonce": 5,
      "data": "0x",
      "r": "0xf8d7f9b92fa6b3a86579064e0a9f48224a4117770b9fde12e859a650186c24a5",
      "s": "0x136e6aa03a47ae228bc1bbb9281a9fb86d6733f94e542e405986f56ad6f774c7",
      "v": 28,
      "creates": null,
      "raw": "0xf86c05850ba43b740082526794f79785e5a846acea08f94379fcce79b1054bdb99884563918244f40000801ca0f8d7f9b92fa6b3a86579064e0a9f48224a4117770b9fde12e859a650186c24a5a0136e6aa03a47ae228bc1bbb9281a9fb86d6733f94e542e405986f56ad6f774c7",
      "networkId": 0,
      "chainId": 0
    }
  ]
}