{
  "hash": "0x36aadb0bb2b98a8833a02b9c385b5a9b7208974b7e1dd339eb1dabd290d9a077",
  "parentHash": "0x4e07c17a4d90c63c10f690b703a81e8ed466c44322c10385f8e6e22b2d4f3f1c",
  "number": 99976,
  "timestamp": 1439798701,
  "nonce": "0x38361c270d145bcf",
  "difficulty": 3845550972852,
  "gasLimit": {
    "_hex": "0x2fefd8"
  },
  "gasUsed": {
    "_hex": "0x6baa8"
  },
  "miner": "0xf8E0CA3Ed80bd541b94BEdCf259e8CF2141A9523",
  "extraData": "0x476574682f76312e302e312f77696e646f77732f676f312e342e32",
  "transactions": [
    {
      "hash": "0xe071e1cabbb522920279e66a5664d0ca1f89542efdbc057628cccb9b4fddf78a",
      "blockHash": "0x36aadb0bb2b98a8833a02b9c385b5a9b7208974b7e1dd339eb1dabd290d9a077",
      "blockNumber": 99976,
      "transactionIndex": 0,
      "confirmations": null,
      "from": "0xe6A7a1d47ff21B6321162AEA7C6CB457D5476Bca",
      "gasPrice": {
        "_hex": "0xce6852019"
      },
      "gasLimit": {
        "_hex": "0x55f0"
      },
      "to": "0x065317E0625de4403Cc8D0804Eb46426Cd5B033F",
      "value": {
        "_hex": "0x2169a83e4f37593b0"
      },
      "nonce": 3453,
      "data": "0x",
      "r": "0x2fcbee97c6ff0051bc06ab89cc1d9a55cfd46869b502912da18584f3e0276342",
      "s": "0x4820da498567b2f695047997b079b7ad892ebaee1ed8e378389549d5f030aeaa",
      "v": 28,
      "creates": null,
      "raw": "0xf86f820d7d850ce68520198255f094065317e0625de4403cc8d0804eb46426cd5b033f8902169a83e4f37593b0801ca02fcbee97c6ff0051bc06ab89cc1d9a55cfd46869b502912da18584f3e0276342a04820da498567b2f695047997b079b7ad892ebaee1ed8e378389549d5f030aeaa",
      "networkId": 0,
      "chainId": 0
    },
    {
      "hash": "0x957a43e440927ce533f24b330ad1e3ab89d1e052db8043131a7f39e0ede6dab7",
      "blockHash": "0x36aadb0bb2b98a8833a02b9c385b5a9b7208974b7e1dd339eb1dabd290d9a077",
      "blockNumber": 99976,
      "transactionIndex": 1,
      "confirmations": null,
      "from": "0xe6A7a1d47ff21B6321162AEA7C6CB457D5476Bca",
      "gasPrice": {
        "_hex": "0xce6852019"
      },
      "gasLimit": {
        "_hex": "0x55f0"
      },
      "to": "0x226E8B888E9F360E1Aea28229C40E2adC5D698b5",
      "value": {
        "_hex": "0x224dff491723ab2f0"
      },
      "nonce": 3454,
      "data": "0x",
      "r": "0xcf1731e2ad5bac66aaebfa92c89828a133eb0ceef3120ae564b6624c2ea26dde",
      "s": "0x14aae056bc6fa7c58032e4a52c8d6be1636bc6d3b20c7ac6df06433639eeed72",
      "v": 28,
      "creates": null,
      "raw": "0xf86f820d7e850ce68520198255f094226e8b888e9f360e1aea28229c40e2adc5d698b5890224dff491723ab2f0801ca0cf1731e2ad5bac66aaebfa92c89828a133eb0ceef3120ae564b6624c2ea26ddea014aae056bc6fa7c58032e4a52c8d6be1636bc6d3b20c7ac6df06433639eeed72",
      "networkId": 0,
      "chainId": 0
    },
    {
      "hash": "0x05e3140e9f52cd1d37ded036315106ee738649dfac989779b2ba6d400f77efe7",
      "blockHash": "0x36aadb0bb2b98a8833a02b9c385b5a9b7208974b7e1dd339eb1dabd290d9a077",
      "blockNumber": 99976,
      "transactionIndex": 2,
      "confirmations": null,
      "from": "0xe6A7a1d47ff21B6321162AEA7C6CB457D5476Bca",
      "gasPrice": {
        "_hex": "0xce6852019"
      },
      "gasLimit": {
        "_hex": "0x55f0"
      },
      "to": "0x19d1f826fce0c97733e0202eFCCc4A5608e8Eb6d",
      "value": {
        "_hex": "0x22f6c653ba113fe68"
      },
      "nonce": 3455,
      "data": "0x",
      "r": "0x3ca360a1b559ffd32196d2fc696d58b89daa5a6ec8b17de31d23de42929b0f50",
      "s": "0x58f3773f7c402317b978ad9a3a4673541c6183f1110eb72ecf5483833b1a8840",
      "v": 28,
      "creates": null,
      "raw": "0xf86f820d7f850ce68520198255f09419d1f826fce0c97733e0202efccc4a5608e8eb6d89022f6c653ba113fe68801ca03ca360a1b559ffd32196d2fc696d58b89daa5a6ec8b17de31d23de42929b0f50a058f3773f7c402317b978ad9a3a4673541c6183f1110eb72ecf5483833b1a8840",
      "networkId": 0,
      "chainId": 0
    },
    {
      "hash": "0xfc4445b2133cbc18a1a506b6cf0d1eb05bc671c0a3cc86b6b3804d423743415b",
      "blockHash": "0x36aadb0bb2b98a8833a02b9c385b5a9b7208974b7e1dd339eb1dabd290d9a077",
      "blockNumber": 99976,
      "transactionIndex": 3,
      "confirmations": null,
      "from": "0xe6A7a1d47ff21B6321162AEA7C6CB457D5476Bca",
      "gasPrice": {
        "_hex": "0xce6852019"
      },
      "gasLimit": {
        "_hex": "0x55f0"
      },
      "to": "0x59cC965F1643a68ad7a4272ff1654d4af4343ea7",
      "value": {
        "_hex": "0x2441c34dcfb961df0"
      },
      "nonce": 3456,
      "data": "0x",
      "r": "0xaef94df6715b496ae479c6b5c0277203c1e5b6603aeca791951988bfbbd34e7e",
      "s": "0x6f7a96d23f8ae118312df381a776c3b674b3dd2d3b9c81e0a377dfe96eb92fb8",
      "v": 28,
      "creates": null,
      "raw": "0xf86f820d80850ce68520198255f09459cc965f1643a68ad7a4272ff1654d4af4343ea78902441c34dcfb961df0801ca0aef94df6715b496ae479c6b5c0277203c1e5b6603aeca791951988bfbbd34e7ea06f7a96d23f8ae118312df381a776c3b674b3dd2d3b9c81e0a377dfe96eb92fb8",
      "networkId": 0,
      "chainId": 0
    },
    {
      "hash": "0x3a9694b137fa7ee4fa41ed270f066c4853ca1036c227d04e155e16c486c75bb4",
      "blockHash": "0x36aadb0bb2b98a8833a02b9c385b5a9b7208974b7e1dd339eb1dabd290d9a077",
      "blockNumber": 99976,
      "transactionIndex": 4,
      "confirmations": null,
      "from": "0xe6A7a1d47ff21B6321162AEA7C6CB457D5476Bca",
      "gasPrice": {
        "_hex": "0xce6852019"
      },
      "gasLimit": {
        "_hex": "0x55f0"
      },
      "to": "0xBa9CF76D809cF9f2e3f180AFb33f0adb0826D7DF",
      "value": {
        "_hex": "0x24b10fd98924e99f0"
      },
      "nonce": 3457,
      "data": "0x",
      "r": "0x1d20b6b4526cdeb0d1f3d3a17ccae0960d3813e4b5c630448239584e60527828",
      "s": "0x5980f137e428924f13a17d2542cd467b8627f9ef498a5b39b5cd42c2fe3954e5",
      "v": 28,
      "creates": null,
      "raw": "0xf86f820d81850ce68520198255f094ba9cf76d809cf9f2e3f180afb33f0adb0826d7df89024b10fd98924e99f0801ca01d20b6b4526cdeb0d1f3d3a17ccae0960d3813e4b5c630448239584e60527828a05980f137e428924f13a17d2542cd467b8627f9ef498a5b39b5cd42c2fe3954e5",
      "networkId": 0,
      "chainId": 0
    },
    {
      "hash": "0xe75f41ba5fb0a4c8a7887283d62e31035e9762cc59fbad6e8c7f4da1ec64caf4",
      "blockHash": "0x36aadb0bb2b98a8833a02b9c385b5a9b7208974b7e1dd339eb1dabd290d9a077",
      "blockNumber": 99976,
      "transactionIndex": 5,
      "confirmations": null,
      "from": "0xe6A7a1d47ff21B6321162AEA7C6CB457D5476Bca",
      "gasPrice": {
        "_hex": "0xce6852019"
      },
      "gasLimit": {
        "_hex": "0x55f0"
      },
      "to": "0xcA422f88253D0492F13F304eBCF34892B3c07AEc",
      "value": {
        "_hex": "0x24b2a02e6fe0ca080"
      },
      "nonce": 3458,
      "data": "0x",
      "r": "0x610d3069dff9e5c796680b5c964fd84d78f28e03ebac7bde7b62178add94c547",
      "s": "0x6f8c7cbbf7e04051bf68794bbe20b11a4c1793c83c2f3899b963160012c7a84a",
      "v": 27,
      "creates": null,
      "raw": "0xf86f820d82850ce68520198255f094ca422f88253d0492f13f304ebcf34892b3c07aec89024b2a02e6fe0ca080801ba0610d3069dff9e5c796680b5c964fd84d78f28e03ebac7bde7b62178add94c547a06f8c7cbbf7e04051bf68794bbe20b11a4c1793c83c2f3899b963160012c7a84a",
      "networkId": 0,
      "chainId": 0
    },
    {
      "hash": "0xd68031f9004139664abb6aa762704a88e4dc764d0526e752703b4b4c52e7990f",
      "blockHash": "0x36aadb0bb2b98a8833a02b9c385b5a9b7208974b7e1dd339eb1dabd290d9a077",
      "blockNumber": 99976,
      "transactionIndex": 6,
      "confirmations": null,
      "from": "0xe6A7a1d47ff21B6321162AEA7C6CB457D5476Bca",
      "gasPrice": {
        "_hex": "0xce6852019"
      },
      "gasLimit": {
        "_hex": "0x55f0"
      },
      "to": "0x267069452478cA39b3f5F1A4fFdD4131f50Bc977",
      "value": {
        "_hex": "0x2552c957051959540"
      },
      "nonce": 3459,
      "data": "0x",
      "r": "0xf8615b31ab9b7bc6323fe19afd3726de5abfe28e4c0dce0c2500e38c0699de59",
      "s": "0x2b972544eee551a02dd0e074345d540bbce0ecb0ba8e22cdf613f3bf753b95df",
      "v": 28,
      "creates": null,
      "raw": "0xf86f820d83850ce68520198255f094267069452478ca39b3f5f1a4ffdd4131f50bc9778902552c957051959540801ca0f8615b31ab9b7bc6323fe19afd3726de5abfe28e4c0dce0c2500e38c0699de59a02b972544eee551a02dd0e074345d540bbce0ecb0ba8e22cdf613f3bf753b95df",
      "networkId": 0,
      "chainId": 0
    },
    {
      "hash": "0xbb4a2c25c6737034fb32cd2e1fa68976521513a2a657f6753bf172d692af7292",
      "blockHash": "0x36aadb0bb2b98a8833a02b9c385b5a9b7208974b7e1dd339eb1dabd290d9a077",
      "blockNumber": 99976,
      "transactionIndex": 7,
      "confirmations": null,
      "from": "0xe6A7a1d47ff21B6321162AEA7C6CB457D5476Bca",
      "gasPrice": {
        "_hex": "0xce6852019"
      },
      "gasLimit": {
        "_hex": "0x55f0"
      },
      "to": "0x164d6C84C4D54AA3E22A5b2B72cFb968eDe862C5",
      "value": {
        "_hex": "0x26335f85c7bde4e80"
      },
      "nonce": 3460,
      "data": "0x",
      "r": "0x3eaa93956fae3faa2626ccedd2636189d4ea5bb84e4ea93c49831148706928dd",
      "s": "0x4023719896a0f866aa688c020b4eb1f7d9f403ba2026768a0af94a635099a060",
      "v": 27,
      "creates": null,
      "raw": "0xf86f820d84850ce68520198255f094164d6c84c4d54aa3e22a5b2b72cfb968ede862c589026335f85c7bde4e80801ba03eaa93956fae3faa2626ccedd2636189d4ea5bb84e4ea93c49831148706928dda04023719896a0f866aa688c020b4eb1f7d9f403ba2026768a0af94a635099a060",
      "networkId": 0,
      "chainId": 0
    },
    {
      "hash": "0x26d82e8a594c0962d0f356d6142d95ed0f9d72fdbb27ffed68007a9d42428536",
      "blockHash": "0x36aadb0bb2b98a8833a02b9c385b5a9b7208974b7e1dd339eb1dabd290d9a077",
      "blockNumber": 99976,
      "transactionIndex": 8,
      "confirmations": null,
      "from": "0xe6A7a1d47ff21B6321162AEA7C6CB457D5476Bca",
      "gasPrice": {
        "_hex": "0xce6852019"
      },
      "gasLimit": {
        "_hex": "0x55f0"
      },
      "to": "0xB5EDD17d2582A94610ebf0C6832c1652EBBBe210",
      "value": {
        "_hex": "0x26835e0136805e2d0"
      },
      "nonce": 3461,
      "data": "0x",
      "r": "0x1c809b4a02f8dec227049ca7a548ff9cd31c9d1cad9647cec92d0adb82f11ff4",
      "s": "0x208915856aad2521d79ab7cc0d3d7208075a346429f764e1cf95a87a02d61e6f",
      "v": 27,
      "creates": null,
      "raw": "0xf86f820d85850ce68520198255f094b5edd17d2582a94610ebf0c6832c1652ebbbe21089026835e0136805e2d0801ba01c809b4a02f8dec227049ca7a548ff9cd31c9d1cad9647cec92d0adb82f11ff4a0208915856aad2521d79ab7cc0d3d7208075a346429f764e1cf95a87a02d61e6f",
      "networkId": 0,
      "chainId": 0
    },
    {
      "hash": "0x504b11e8375c133cefd80865b01045c22aac5dc53a6bac9feb6bda65b0df6e85",
      "blockHash": "0x36aadb0bb2b98a8833a02b9c385b5a9b7208974b7e1dd339eb1dabd290d9a077",
      "blockNumber": 99976,
      "transactionIndex": 9,
      "confirmations": null,
      "from": "0xe6A7a1d47ff21B6321162AEA7C6CB457D5476Bca",
      "gasPrice": {
        "_hex": "0xce6852019"
      },
      "gasLimit": {
        "_hex": "0x55f0"
      },
      "to": "0xa114c802ef29776f05f9c6925cE915232e8ae102",
      "value": {
        "_hex": "0x26c4fca5cd88d4100"
      },
      "nonce": 3462,
      "data": "0x",
      "r": "0xfa66bb861025e767bf1934386ee9e21dcb08fe897f4156b78add2595704dd457",
      "s": "0x4cc6bf56b60d382d48f8a5ea2710cc6915fe4243bfd6a781cdba43f5ce943686",
      "v": 28,
      "creates": null,
      "raw": "0xf86f820d86850ce68520198255f094a114c802ef29776f05f9c6925ce915232e8ae10289026c4fca5cd88d4100801ca0fa66bb861025e767bf1934386ee9e21dcb08fe897f4156b78add2595704dd457a04cc6bf56b60d382d48f8a5ea2710cc6915fe4243bfd6a781cdba43f5ce943686",
      "networkId": 0,
      "chainId": 0
    },
    {
      "hash": "0x404c8a34d25fd7fa8f2d990ec167b77788b94a773594b54706cc9c963cd3d6f9",
      "blockHash": "0x36aadb0bb2b98a8833a02b9c385b5a9b7208974b7e1dd339eb1dabd290d9a077",
      "blockNumber": 99976,
      "transactionIndex": 10,
      "confirmations": null,
      "from": "0xe6A7a1d47ff21B6321162AEA7C6CB457D5476Bca",
      "gasPrice": {
        "_hex": "0xce6852019"
      },
      "gasLimit": {
        "_hex": "0x55f0"
      },
      "to": "0x04a6c6a293340Fc3f2244D097b0CFD84d5317bA5",
      "value": {
        "_hex": "0x276e29e3dc00080a0"
      },
      "nonce": 3463,
      "data": "0x",
      "r": "0x75afd74e52d3f2f05d4994781fccdd3350b411e17cdcc98cd16dfe44722f5b48",
      "s": "0x02aeb2aab25fcbd461225a1bb0c9d26100b691e588820b3faa811abd5735c37f",
      "v": 28,
      "creates": null,
      "raw": "0xf86f820d87850ce68520198255f09404a6c6a293340fc3f2244d097b0cfd84d5317ba5890276e29e3dc00080a0801ca075afd74e52d3f2f05d4994781fccdd3350b411e17cdcc98cd16dfe44722f5b48a002aeb2aab25fcbd461225a1bb0c9d26100b691e588820b3faa811abd5735c37f",
      "networkId": 0,
      "chainId": 0
    },
    {
      "hash": "0x33cebbf9785c6243aad75443a7ba60b746c08a63e526cbbf5736c2d8df88ea5c",
      "blockHash": "0x36aadb0bb2b98a8833a02b9c385b5a9b7208974b7e1dd339eb1dabd290d9a077",
      "blockNumber": 99976,
      "transactionIndex": 11,
      "confirmations": null,
      "from": "0xe6A7a1d47ff21B6321162AEA7C6CB457D5476Bca",
      "gasPrice": {
        "_hex": "0xce6852019"
      },
      "gasLimit": {
        "_hex": "0x55f0"
      },
      "to": "0x50087E7383C8865C1C136b8777C4350B8ed472CE",
      "value": {
        "_hex": "0x28e9327000dad48c0"
      },
      "nonce": 3464,
      "data": "0x",
      "r": "0x1c7d20ed10c68879a08e9062b5ddb6fcc6a3d56592acf17fe58d87c9a8160135",
      "s": "0x6045aa857e604a0e884ea266029fd5371f18c20662f2f11441ff7d47381aa177",
      "v": 28,
      "creates": null,
      "raw": "0xf86f820d88850ce68520198255f09450087e7383c8865c1c136b8777c4350b8ed472ce89028e9327000dad48c0801ca01c7d20ed10c68879a08e9062b5ddb6fcc6a3d56592acf17fe58d87c9a8160135a06045aa857e604a0e884ea266029fd5371f18c20662f2f11441ff7d47381aa177",
      "networkId": 0,
      "chainId": 0
    },
    {
      "hash": "0xf0c3c50d26a77a8625d28bf3814d466fdbf7f1550e1d907b52f8a53a38c2e9af",
      "blockHash": "0x36aadb0bb2b98a8833a02b9c385b5a9b7208974b7e1dd339eb1dabd290d9a077",
      "blockNumber": 99976,
      "transactionIndex": 12,
      "confirmations": null,
      "from": "0xe6A7a1d47ff21B6321162AEA7C6CB457D5476Bca",
      "gasPrice": {
        "_hex": "0xce6852019"
      },
      "gasLimit": {
        "_hex": "0x55f0"
      },
      "to": "0x123843545FB525C8E134c9A5F15ADA6865cc3848",
      "value": {
        "_hex": "0x295bb185c9da2d310"
      },
      "nonce": 3465,
      "data": "0x",
      "r": "0x021d9341cd97c40fc8303eb34e1d8a3909da1e4a44958a4db998dca15f35ba60",
      "s": "0x21cbb6c45968001df72606ac4129705f7d75c58f206d96f0d1979fe29d3cbf4b",
      "v": 27,
      "creates": null,
      "raw": "0xf86f820d89850ce68520198255f094123843545fb525c8e134c9a5f15ada6865cc3848890295bb185c9da2d310801ba0021d9341cd97c40fc8303eb34e1d8a3909da1e4a44958a4db998dca15f35ba60a021cbb6c45968001df72606ac4129705f7d75c58f206d96f0d1979fe29d3cbf4b",
      "networkId": 0,
      "chainId": 0
    },
    {
      "hash": "0xdecc4e6176738e7313bf363a7fbeb39e00268af3f4bb2e050592afbba0a5c531",
      "blockHash": "0x36aadb0bb2b98a8833a02b9c385b5a9b7208974b7e1dd339eb1dabd290d9a077",
      "blockNumber": 99976,
      "transactionIndex": 13,
      "confirmations": null,
      "from": "0xe6A7a1d47ff21B6321162AEA7C6CB457D5476Bca",
      "gasPrice": {
        "_hex": "0xce6852019"
      },
      "gasLimit": {
        "_hex": "0x55f0"
      },
      "to": "0xd0DF24FD0DfcDc3850D1590dAA1D03ca7706b11B",
      "value": {
        "_hex": "0x29e804b96faf292e0"
      },
      "nonce": 3466,
      "data": "0x",
      "r": "0x35daca358635284c6a97386fecd0535e8d8462204ce921d518851abf078cbc9f",
      "s": "0x2b00fb9026668ba9f7aba98187aa90624beccf97f52787331e10cf1c4b469384",
      "v": 28,
      "creates": null,
      "raw": "0xf86f820d8a850ce68520198255f094d0df24fd0dfcdc3850d1590daa1d03ca7706b11b89029e804b96faf292e0801ca035daca358635284c6a97386fecd0535e8d8462204ce921d518851abf078cbc9fa02b00fb9026668ba9f7aba98187aa90624beccf97f52787331e10cf1c4b469384",
      "networkId": 0,
      "chainId": 0
    },
    {
      "hash": "0x5df2341b1db916f7ae3778e923e7fb1f6e8af0e4a868f8a354e0c9386a31ac6f",
      "blockHash": "0x36aadb0bb2b98a8833a02b9c385b5a9b7208974b7e1dd339eb1dabd290d9a077",
      "blockNumber": 99976,
      "transactionIndex": 14,
      "confirmations": null,
      "from": "0xe6A7a1d47ff21B6321162AEA7C6CB457D5476Bca",
      "gasPrice": {
        "_hex": "0xce6852019"
      },
      "gasLimit": {
        "_hex": "0x55f0"
      },
      "to": "0x06BcFDb20583cc822f2031724E36F3678BBCa6E9",
      "value": {
        "_hex": "0x29fdd3614802da1a0"
      },
      "nonce": 3467,
      "data": "0x",
      "r": "0x8c92c0d0ef800d7348373f88be7e4eccb1f9c85dfc4857f2f58a2884a65ee27a",
      "s": "0x45a062ae39cfe837f3ae4b8322ea413ceb45ee353101bfc3c92a76cd40c87fd2",
      "v": 28,
      "creates": null,
      "raw": "0xf86f820d8b850ce68520198255f09406bcfdb20583cc822f2031724e36f3678bbca6e989029fdd3614802da1a0801ca08c92c0d0ef800d7348373f88be7e4eccb1f9c85dfc4857f2f58a2884a65ee27aa045a062ae39cfe837f3ae4b8322ea413ceb45ee353101bfc3c92a76cd40c87fd2",
      "networkId": 0,
      "chainId": 0
    },
    {
      "hash": "0x1dbce6b3aa7784a3e03bae07435a6729ad0f4160a48372de4ed7a5e14a01ab26",
      "blockHash": "0x36aadb0bb2b98a8833a02b9c385b5a9b7208974b7e1dd339eb1dabd290d9a077",
      "blockNumber": 99976,
      "transactionIndex": 15,
      "confirmations": null,
      "from": "0xe6A7a1d47ff21B6321162AEA7C6CB457D5476Bca",
      "gasPrice": {
        "_hex": "0xce6852019"
      },
      "gasLimit": {
        "_hex": "0x55f0"
      },
      "to": "0x0A38f5Ba343D4eA8641F955ecf98e1c43dF1B5a3",
      "value": {
        "_hex": "0x2a4bfc0aee436a910"
      },
      "nonce": 3468,
      "data": "0x",
      "r": "0x0a48ae4ac068477f11d56dbfe5f1e43d6521905c216f21d37b38803504ed5e35",
      "s": "0x7fa7e1f850fc405e6a13bfe10214f05dee90e790342b4acab58c5c122fe18dc0",
      "v": 27,
      "creates": null,
      "raw": "0xf86f820d8c850ce68520198255f0940a38f5ba343d4ea8641f955ecf98e1c43df1b5a38902a4bfc0aee436a910801ba00a48ae4ac068477f11d56dbfe5f1e43d6521905c216f21d37b38803504ed5e35a07fa7e1f850fc405e6a13bfe10214f05dee90e790342b4acab58c5c122fe18dc0",
      "networkId": 0,
      "chainId": 0
    },
    {
      "hash": "0xb3581b8e3b485a6ef1351276689748b63bfcf492a201270e5ee3f5eea45a118f",
      "blockHash": "0x36aadb0bb2b98a8833a02b9c385b5a9b7208974b7e1dd339eb1dabd290d9a077",
      "blockNumber": 99976,
      "transactionIndex": 16,
      "confirmations": null,
      "from": "0xe6A7a1d47ff21B6321162AEA7C6CB457D5476Bca",
      "gasPrice": {
        "_hex": "0xce6852019"
      },
      "gasLimit": {
        "_hex": "0x55f0"
      },
      "to": "0xa61ff394e3846F8bfbBF8801afb051730B04Ee75",
      "value": {
        "_hex": "0x2aaa646bf3556cc80"
      },
      "nonce": 3469,
      "data": "0x",
      "r": "0xe303fed0fbe7c1a094beebbffde47add8e7d94c238b456b331883f0d89440083",
      "s": "0x53f9f9794049a673af2c74faee20e6e09151ec944a19167b3f030b9f6aee5c64",
      "v": 28,
      "creates": null,
      "raw": "0xf86f820d8d850ce68520198255f094a61ff394e3846f8bfbbf8801afb051730b04ee758902aaa646bf3556cc80801ca0e303fed0fbe7c1a094beebbffde47add8e7d94c238b456b331883f0d89440083a053f9f9794049a673af2c74faee20e6e09151ec944a19167b3f030b9f6aee5c64",
      "networkId": 0,
      "chainId": 0
    },
    {
      "hash": "0x9ff4b93dcdc1fb389277caacfbeb583ba5aa914220e70cdaa59e2e408149ee5f",
      "blockHash": "0x36aadb0bb2b98a8833a02b9c385b5a9b7208974b7e1dd339eb1dabd290d9a077",
      "blockNumber": 99976,
      "transactionIndex": 17,
      "confirmations": null,
      "from": "0xe6A7a1d47ff21B6321162AEA7C6CB457D5476Bca",
      "gasPrice": {
        "_hex": "0xce6852019"
      },
      "gasLimit": {
        "_hex": "0x55f0"
      },
      "to": "0x945133f5F817b984e41D4798b45C9B8ed7CE3EAc",
      "value": {
        "_hex": "0x2ae2fa6d9acf4e6d0"
      },
      "nonce": 3470,
      "data": "0x",
      "r": "0x3e4cc82544f01964fb8c2c813bde3e97dc2a5876515e80433129839e94a61f3f",
      "s": "0x2ca5a26b0128be5a3af96f259e67698183fd20e556284924c4ad9204a55c10f3",
      "v": 28,
      "creates": null,
      "raw": "0xf86f820d8e850ce68520198255f094945133f5f817b984e41d4798b45c9b8ed7ce3eac8902ae2fa6d9acf4e6d0801ca03e4cc82544f01964fb8c2c813bde3e97dc2a5876515e80433129839e94a61f3fa02ca5a26b0128be5a3af96f259e67698183fd20e556284924c4ad9204a55c10f3",
      "networkId": 0,
      "chainId": 0
    },
    {
      "hash": "0xdc5394a62d78a4c5cb7bbb722215ef83e592f52b9895dab3c18f79dea3861136",
      "blockHash": "0x36aadb0bb2b98a8833a02b9c385b5a9b7208974b7e1dd339eb1dabd290d9a077",
      "blockNumber": 99976,
      "transactionIndex": 18,
      "confirmations": null,
      "from": "0xe6A7a1d47ff21B6321162AEA7C6CB457D5476Bca",
      "gasPrice": {
        "_hex": "0xce6852019"
      },
      "gasLimit": {
        "_hex": "0x55f0"
      },
      "to": "0x4Dbfc5Cd4D88480476F951dbCD591396773aE56c",
      "value": {
        "_hex": "0x2aeafc2cae0c6b4b0"
      },
      "nonce": 3471,
      "data": "0x",
      "r": "0xf75a27577a5e0384a51bec18c04b65c6a7b48e86b3c9c3f689b7fd82c8314624",
      "s": "0x0bc1218e9f32de9f0467742d28fe2c44192cfcb0b47cfe9e21ff749eab0fd2c3",
      "v": 27,
      "creates": null,
      "raw": "0xf86f820d8f850ce68520198255f0944dbfc5cd4d88480476f951dbcd591396773ae56c8902aeafc2cae0c6b4b0801ba0f75a27577a5e0384a51bec18c04b65c6a7b48e86b3c9c3f689b7fd82c8314624a00bc1218e9f32de9f0467742d28fe2c44192cfcb0b47cfe9e21ff749eab0fd2c3",
      "networkId": 0,
      "chainId": 0
    },
    {
      "hash": "0xa2a2e6d50d5274061c636b5d9620952225f4c8edd33cabe70299761fa8b0e3a5",
      "blockHash": "0x36aadb0bb2b98a8833a02b9c385b5a9b7208974b7e1dd339eb1dabd290d9a077",
      "blockNumber": 99976,
      "transactionIndex": 19,
      "confirmations": null,
      "from": "0xe6A7a1d47ff21B6321162AEA7C6CB457D5476Bca",
      "gasPrice": {
        "_hex": "0xce6852019"
      },
      "gasLimit": {
        "_hex": "0x55f0"
      },
      "to": "0x795dAa7Cd2C81b20de241CE0751981faC4930070",
      "value": {
        "_hex": "0x2afb8b5e3fe788e50"
      },
      "nonce": 3472,
      "data": "0x",
      "r": "0x2788a6049e69fd02cac58cdea5cc609880078ed22be98956e064ec8b6093457a",
      "s": "0x64556e04a5aced4ce16a301c5718db33536df31f67917355507e2f2c55130c3f",
      "v": 28,
      "creates": null,
      "raw": "0xf86f820d90850ce68520198255f094795daa7cd2c81b20de241ce0751981fac49300708902afb8b5e3fe788e50801ca02788a6049e69fd02cac58cdea5cc609880078ed22be98956e064ec8b6093457aa064556e04a5aced4ce16a301c5718db33536df31f67917355507e2f2c55130c3f",
      "networkId": 0,
      "chainId": 0
    },
    {
      "hash": "0xd1910cf3e480f0baa0ba2d1a7a2e9932b847098a784a309a15ae211a42131a04",
      "blockHash": "0x36aadb0bb2b98a8833a02b9c385b5a9b7208974b7e1dd339eb1dabd290d9a077",
      "blockNumber": 99976,
      "transactionIndex": 20,
      "confirmations": null,
      "from": "0xe6A7a1d47ff21B6321162AEA7C6CB457D5476Bca",
      "gasPrice": {
        "_hex": "0xce6852019"
      },
      "gasLimit": {
        "_hex": "0x55f0"
      },
      "to": "0x5248EfBC7319bd65d436374266765D9727253F12",
      "value": {
        "_hex": "0x2bf682b07af8fde30"
      },
      "nonce": 3473,
      "data": "0x",
      "r": "0x5fd8e51ef1cd3588db3340ab61fb3c8f5a3fbcff8c1ca1485c7efbc3f34cac80",
      "s": "0x1d65c42b94bbd7eb4c4dff3d7eb8e6d1fe1b71edccca6f180ab79bcc96678a9b",
      "v": 28,
      "creates": null,
      "raw": "0xf86f820d91850ce68520198255f0945248efbc7319bd65d436374266765d9727253f128902bf682b07af8fde30801ca05fd8e51ef1cd3588db3340ab61fb3c8f5a3fbcff8c1ca1485c7efbc3f34cac80a01d65c42b94bbd7eb4c4dff3d7eb8e6d1fe1b71edccca6f180ab79bcc96678a9b",
      "networkId": 0,
      "chainId": 0
    }
  ]
}