{
  "hash": "0x4e980b7e774caaa2ef1d368ce699f4b3e2f735482a0416198979262651726616",
  "parentHash": "0xfc04b67a89579b947bbe9e39854c1a73c8111db8a7836d5a376d8c0cd4a123c1",
  "number": 95130,
  "timestamp": 1439719414,
  "nonce": "0xcd0417de7bdbd2bd",
  "difficulty": 3513716317246,
  "gasLimit": {
    "_hex": "0x2fefd8"
  },
  "gasUsed": {
    "_hex": "0x5208"
  },
  "miner": "0xf927a40C8B7F6E07c5af7FA2155B4864a4112B13",
  "extraData": "0x",
  "transactions": [
    {
      "hash": "0x0a14308c05169279a72615264e9cd0fd434d416b2faaf64541fa3f3a920a8b97",
      "blockHash": "0x4e980b7e774caaa2ef1d368ce699f4b3e2f735482a0416198979262651726616",
      "blockNumber": 95130,
      "transactionIndex": 0,
      "confirmations": null,
      "from": "0x7fa165177F28D171bA7C17f765c1904344Ec64CB",
      "gasPrice": {
        "_hex": "0xd93cfa0be"
      },
      "gasLimit": {
        "_hex": "0x5208"
      },
      "to": "0x32Be343B94f860124dC4fEe278FDCBD38C102D88",
      "value": {
        "_hex": "0x455f37bddcf61000"
      },
      "nonce": 20,
      "data": "0x",
      "r": "0x837bd44e4e7f67f80900281017dccf705b9e950b40e2d7f63c32ec2464c63552",
      "s": "0x1b0aa1d07a30c7062d8e7f4af9dccc13520d862cbd8e504127750ad20739fbf5",
      "v": 27,
      "creates": null,
      "raw": "0xf86c14850d93cfa0be8252089432be343b94f860124dc4fee278fdcbd38c102d8888455f37bddcf61000801ba0837bd44e4e7f67f80900281017dccf705b9e950b40e2d7f63c32ec2464c63552a01b0aa1d07a30c7062d8e7f4af9dccc13520d862cbd8e504127750ad20739fbf5",
      "networkId": 0,
      "chainId": 0
    }
  ]
}