{
  "hash": "0xab813ac7a2738799aead1cb187e8eed0a26494ae9c6b58ff4e8d34878bae5fb4",
  "parentHash": "0x0acf0fbbb8caf96504afcfddab3abb2072a84691808f6e514a88e070a005523a",
  "number": 120029,
  "timestamp": 1440152779,
  "nonce": "0xe405a079fff78f9c",
  "difficulty": 4404866661644,
  "gasLimit": {
    "_hex": "0x2fefd8"
  },
  "gasUsed": {
    "_hex": "0x5208"
  },
  "miner": "0x007f7f58D3eb5b7510A301eCC749FC1fCDDBE14D",
  "extraData": "0x",
  "transactions": [
    {
      "hash": "0x30c1823ae943f14dbc5b7c5db400bcf4bd08998a0ba316673aa6ee27beb21b50",
      "blockHash": "0xab813ac7a2738799aead1cb187e8eed0a26494ae9c6b58ff4e8d34878bae5fb4",
      "blockNumber": 120029,
      "transactionIndex": 0,
      "confirmations": null,
      "from": "0xB76CeFA8d0680c6dA05CA47e1C4B70aA092B69a9",
      "gasPrice": {
        "_hex": "0xba43b7400"
      },
      "gasLimit": {
        "_hex": "0x15f90"
      },
      "to": "0xeC06c233d618b41076FbfF739Efb85a4999F89Da",
      "value": {
        "_hex": "0x18d75b8423f30000"
      },
      "nonce": 11,
      "data": "0x",
      "r": "0x9102fc8aa03fe1436a4d66b19a7805e92437cc4d2905e8d4f3217e342467f504",
      "s": "0x464c08610582503b548628dc92a198827db5eec9b2f7b16c5a83b8208f5b28fb",
      "v": 28,
      "creates": null,
      "raw": "0xf86d0b850ba43b740083015f9094ec06c233d618b41076fbff739efb85a4999f89da8818d75b8423f30000801ca09102fc8aa03fe1436a4d66b19a7805e92437cc4d2905e8d4f3217e342467f504a0464c08610582503b548628dc92a198827db5eec9b2f7b16c5a83b8208f5b28fb",
      "networkId": 0,
      "chainId": 0
    }
  ]
}