{
  "hash": "0x53f9d7d0f923a7dc64cc39822ac82acbba0e14024e5b4c67740f3557517a3e85",
  "parentHash": "0x4b7d019cfc41fcf8c33a443b589d27df9e430479786fe2c2e9636af30ca0e1ec",
  "number": 95427,
  "timestamp": 1439723990,
  "nonce": "0xa5492f2dbdc70976",
  "difficulty": 3581142280555,
  "gasLimit": {
    "_hex": "0x2fefd8"
  },
  "gasUsed": {
    "_hex": "0x546c"
  },
  "miner": "0xa6BDc31c431B8F97848c9D60cbbe9660dc450eB7",
  "extraData": "0x",
  "transactions": [
    {
      "hash": "0xff43277134a9480e01b2a75dab7b7abcef84932ee75f7e9a6ea9e1585b8d2796",
      "blockHash": "0x53f9d7d0f923a7dc64cc39822ac82acbba0e14024e5b4c67740f3557517a3e85",
      "blockNumber": 95427,
      "transactionIndex": 0,
      "confirmations": null,
      "from": "0x48Aad76dd8eE44231675609abcE5e895D9b54A31",
      "gasPrice": {
        "_hex": "0x1015e36ed1e"
      },
      "gasLimit": {
        "_hex": "0x55f0"
      },
      "to": "0x2910543Af39abA0Cd09dBb2D50200b3E800A63D2",
      "value": {
        "_hex": "0x4563918244f40000"
      },
      "nonce": 1,
      "data": "0x454e54314834395730",
      "r": "0xb390a525a24b5d81705206aed82cb15687400e2f36497791bc9406b879066a44",
      "s": "0x7d3cd57807e14cee5a5cb74196a923587dbcc78f47570203422fcf9dd7c16fa9",
      "v": 27,
      "creates": null,
      "raw": "0xf876018601015e36ed1e8255f0942910543af39aba0cd09dbb2d50200b3e800a63d2884563918244f4000089454e543148343957301ba0b390a525a24b5d81705206aed82cb15687400e2f36497791bc9406b879066a44a07d3cd57807e14cee5a5cb74196a923587dbcc78f47570203422fcf9dd7c16fa9",
      "networkId": 0,
      "chainId": 0
    }
  ]
}