{
  "hash": "0xe11335a3d738a55285581766b4c97d70e55c5ea03d440a802d06538eca9fc824",
  "parentHash": "0x5414cf25e5307b9eb4531284d33b482a6c79145eaacfdee87d383500d112921f",
  "number": 71433,
  "timestamp": 1439335951,
  "nonce": "0x55d982c5baf4f64b",
  "difficulty": 2176167992039,
  "gasLimit": {
    "_hex": "0x2fefd8"
  },
  "gasUsed": {
    "_hex": "0x14225"
  },
  "miner": "0x33e9C19860FE62371ABE3Ed6e64F7F03a0468344",
  "extraData": "0x476574682f76312e302e312d38326566323666362f6c696e75782f676f312e34",
  "transactions": [
    {
      "hash": "0x59c56c6e77fe120bb8fd63aaae44113e44a884ec6e963983d7c3fc916150414a",
      "blockHash": "0xe11335a3d738a55285581766b4c97d70e55c5ea03d440a802d06538eca9fc824",
      "blockNumber": 71433,
      "transactionIndex": 0,
      "confirmations": null,
      "from": "0x17580B766f7453525ca4C6A88b01b50570EA088C",
      "gasPrice": {
        "_hex": "0xd66e6fb30"
      },
      "gasLimit": {
        "_hex": "0x61a80"
      },
      "to": "0x5Fe5B7546D1628f7348B023A0393de1FC825A4fD",
      "value": {
        "_hex": "0x1bc16d674ec80000"
      },
      "nonce": 186,
      "data": "0xb595b8b50000000000000000000000000000000000000000000000000000000000000000",
      "r": "0x7181e1008217db2e22fe82b33089f97374eb262d6c852429454aa6ffd7487389",
      "s": "0x2a2778dac44ff3605a68e01bd66c19d38cc4fc159e72385dfef91c393702e066",
      "v": 28,
      "creates": null,
      "raw": "0xf89281ba850d66e6fb3083061a80945fe5b7546d1628f7348b023a0393de1fc825a4fd881bc16d674ec80000a4b595b8b500000000000000000000000000000000000000000000000000000000000000001ca07181e1008217db2e22fe82b33089f97374eb262d6c852429454aa6ffd7487389a02a2778dac44ff3605a68e01bd66c19d38cc4fc159e72385dfef91c393702e066",
      "networkId": 0,
      "chainId": 0
    },
    {
      "hash": "0x38d7317710094561af001471dad8c185efc1c11364dbdb13908792f8761e4747",
      "blockHash": "0xe11335a3d738a55285581766b4c97d70e55c5ea03d440a802d06538eca9fc824",
      "blockNumber": 71433,
      "transactionIndex": 1,
      "confirmations": null,
      "from": "0x17580B766f7453525ca4C6A88b01b50570EA088C",
      "gasPrice": {
        "_hex": "0xd66e6fb30"
      },
      "gasLimit": {
        "_hex": "0x61a80"
      },
      "to": "0x5Fe5B7546D1628f7348B023A0393de1FC825A4fD",
      "value": {
        "_hex": "0x1bc16d674ec80000"
      },
      "nonce": 187,
      "data": "0xb595b8b50000000000000000000000000000000000000000000000000000000000000000",
      "r": "0xb0f3eb77f8431169c134a762e21012054e0c14bd61137c486a4311567ebbeeeb",
      "s": "0x4dc386fe2fa185ca19d258f0a0c6814b263a8df329c174059ca08af23fc0cf92",
      "v": 27,
      "creates": null,
      "raw": "0xf89281bb850d66e6fb3083061a80945fe5b7546d1628f7348b023a0393de1fc825a4fd881bc16d674ec80000a4b595b8b500000000000000000000000000000000000000000000000000000000000000001ba0b0f3eb77f8431169c134a762e21012054e0c14bd61137c486a4311567ebbeeeba04dc386fe2fa185ca19d258f0a0c6814b263a8df329c174059ca08af23fc0cf92",
      "networkId": 0,
      "chainId": 0
    }
  ]
}