{
  "hash": "0xab188a7fc09aab5d314db80da0d5737ac8261af9e753ba323e95196fa2cc96c5",
  "parentHash": "0xc90630ccb4e66709b25b221373ce6e5eee8770adf65860af048b121951c708b4",
  "number": 52618,
  "timestamp": 1439024547,
  "nonce": "0xc1733fb58f77992b",
  "difficulty": 1568655026978,
  "gasLimit": {
    "_hex": "0x1667f5"
  },
  "gasUsed": {
    "_hex": "0x10decc"
  },
  "miner": "0xf927a40C8B7F6E07c5af7FA2155B4864a4112B13",
  "extraData": "0x",
  "transactions": [
    {
      "hash": "0xbab49e2d8034696576228c80a42c3f836fa7262ce846ad72b94284cbdfd945f8",
      "blockHash": "0xab188a7fc09aab5d314db80da0d5737ac8261af9e753ba323e95196fa2cc96c5",
      "blockNumber": 52618,
      "transactionIndex": 0,
      "confirmations": null,
      "from": "0x4BbCbF38b3C90163A84b1cD2a93b58b2a3348d87",
      "gasPrice": {
        "_hex": "0x110c8f7d8de"
      },
      "gasLimit": {
        "_hex": "0xc350"
      },
      "to": "0x2910543Af39abA0Cd09dBb2D50200b3E800A63D2",
      "value": {
        "_hex": "0x4563918244f40000"
      },
      "nonce": 1,
      "data": "0x454e51523457374e30",
      "r": "0x91002168c5214ae920b70a5b7e50a8d18171a30043b60c83200c4f08558a0fa1",
      "s": "0xa105362aca68ccc6c7feb39b7c507e3d07d6a9c5fe738624afd997a7879a3c4f",
      "v": 28,
      "creates": null,
      "raw": "0xf87601860110c8f7d8de82c350942910543af39aba0cd09dbb2d50200b3e800a63d2884563918244f4000089454e51523457374e301ca091002168c5214ae920b70a5b7e50a8d18171a30043b60c83200c4f08558a0fa1a0a105362aca68ccc6c7feb39b7c507e3d07d6a9c5fe738624afd997a7879a3c4f",
      "networkId": 0,
      "chainId": 0
    },
    {
      "hash": "0xfcdf27ea0900f00810ee63e821099419fd4da850b09899f52b25c391ce613b7f",
      "blockHash": "0xab188a7fc09aab5d314db80da0d5737ac8261af9e753ba323e95196fa2cc96c5",
      "blockNumber": 52618,
      "transactionIndex": 1,
      "confirmations": null,
      "from": "0x54dAeb3E8a6BBC797E4aD2b0339f134b186e4637",
      "gasPrice": {
        "_hex": "0xdce5b224a"
      },
      "gasLimit": {
        "_hex": "0x7a120"
      },
      "to": "0xBAA54d6E90c3F4d7Ebec11bD180134C7eD8eBb52",
      "value": {
        "_hex": "0x16345785d8a0000"
      },
      "nonce": 801,
      "data": "0x",
      "r": "0x6e9693a409d5d11bb1f912131b5d1650325d05ba86a71ea9718362f3eb5246b7",
      "s": "0x724e96eba8f894dba0e5549f246dd0a35c566164075e3c584cbe50c1db821080",
      "v": 27,
      "creates": null,
      "raw": "0xf86f820321850dce5b224a8307a12094baa54d6e90c3f4d7ebec11bd180134c7ed8ebb5288016345785d8a0000801ba06e9693a409d5d11bb1f912131b5d1650325d05ba86a71ea9718362f3eb5246b7a0724e96eba8f894dba0e5549f246dd0a35c566164075e3c584cbe50c1db821080",
      "networkId": 0,
      "chainId": 0
    },
    {
      "hash": "0x7bfb715250a67b8a5826af1d105dde581258d3efd60f25a082ef7b6c575f1012",
      "blockHash": "0xab188a7fc09aab5d314db80da0d5737ac8261af9e753ba323e95196fa2cc96c5",
      "blockNumber": 52618,
      "transactionIndex": 2,
      "confirmations": null,
      "from": "0x54dAeb3E8a6BBC797E4aD2b0339f134b186e4637",
      "gasPrice": {
        "_hex": "0xe1780dfbb"
      },
      "gasLimit": {
        "_hex": "0x7a120"
      },
      "to": "0xBAA54d6E90c3F4d7Ebec11bD180134C7eD8eBb52",
      "value": {
        "_hex": "0x16345785d8a0000"
      },
      "nonce": 802,
      "data": "0x",
      "r": "0x0661ad5eb0a803d94b66d1934a7cea678cc013880f279cc0ffa935b3313df488",
      "s": "0x221e6dadfce405a04606383e8127e521c65a6c006cf595a55a2c579fcf17ff2c",
      "v": 27,
      "creates": null,
      "raw": "0xf86f820322850e1780dfbb8307a12094baa54d6e90c3f4d7ebec11bd180134c7ed8ebb5288016345785d8a0000801ba00661ad5eb0a803d94b66d1934a7cea678cc013880f279cc0ffa935b3313df488a0221e6dadfce405a04606383e8127e521c65a6c006cf595a55a2c579fcf17ff2c",
      "networkId": 0,
      "chainId": 0
    },
    {
      "hash": "0x105c08ef9dd44d9f028fe664bf9b6a04c04d44a8fd6dced265df0ca3a5d45624",
      "blockHash": "0xab188a7fc09aab5d314db80da0d5737ac8261af9e753ba323e95196fa2cc96c5",
      "blockNumber": 52618,
      "transactionIndex": 3,
      "confirmations": null,
      "from": "0xeD17Ea8E9fd42159037deE95ea173a56c54f55ce",
      "gasPrice": {
        "_hex": "0xdf1003b45"
      },
      "gasLimit": {
        "_hex": "0x5208"
      },
      "to": "0x32Be343B94f860124dC4fEe278FDCBD38C102D88",
      "value": {
        "_hex": "0x4d31b0cd2a13d4000"
      },
      "nonce": 5,
      "data": "0x",
      "r": "0x95cefbc897b6324b296e4fee7f44990f1314ef5b63d099bdebaa9be90fae7127",
      "s": "0x0a3209df070052744167cde0fe9964c6bc2dca87fce20ef127c46acae1d9a0be",
      "v": 28,
      "creates": null,
      "raw": "0xf86d05850df1003b458252089432be343b94f860124dc4fee278fdcbd38c102d888904d31b0cd2a13d4000801ca095cefbc897b6324b296e4fee7f44990f1314ef5b63d099bdebaa9be90fae7127a00a3209df070052744167cde0fe9964c6bc2dca87fce20ef127c46acae1d9a0be",
      "networkId": 0,
      "chainId": 0
    },
    {
      "hash": "0x3bc1b5717d92894e2fc878c1efdd5606e3433afd86fe29366cff3cd30e224db3",
      "blockHash": "0xab188a7fc09aab5d314db80da0d5737ac8261af9e753ba323e95196fa2cc96c5",
      "blockNumber": 52618,
      "transactionIndex": 4,
      "confirmations": null,
      "from": "0x1463cEF3d9007Db05b7C3B8981D38602EE0D855a",
      "gasPrice": {
        "_hex": "0xdf1003b45"
      },
      "gasLimit": {
        "_hex": "0x5208"
      },
      "to": "0x32Be343B94f860124dC4fEe278FDCBD38C102D88",
      "value": {
        "_hex": "0x1bbcf5c4be414000"
      },
      "nonce": 0,
      "data": "0x",
      "r": "0x746f8da9ea17c6425e32631b6e744327efe44fd5c93f761fc089e62b0bd1be4c",
      "s": "0x41fbad9555fbbf62d78412c9aec49fd50cf229930491311aa16b3de06810c2db",
      "v": 28,
      "creates": null,
      "raw": "0xf86c80850df1003b458252089432be343b94f860124dc4fee278fdcbd38c102d88881bbcf5c4be414000801ca0746f8da9ea17c6425e32631b6e744327efe44fd5c93f761fc089e62b0bd1be4ca041fbad9555fbbf62d78412c9aec49fd50cf229930491311aa16b3de06810c2db",
      "networkId": 0,
      "chainId": 0
    },
    {
      "hash": "0x38967067a406e3cb825635c221bcb1eee0509442d52691a4f30477bfce35de99",
      "blockHash": "0xab188a7fc09aab5d314db80da0d5737ac8261af9e753ba323e95196fa2cc96c5",
      "blockNumber": 52618,
      "transactionIndex": 5,
      "confirmations": null,
      "from": "0x8c62BeD016C5a2F6954504Dbc4640ded5FB14eE3",
      "gasPrice": {
        "_hex": "0xdf1003b45"
      },
      "gasLimit": {
        "_hex": "0x5208"
      },
      "to": "0x32Be343B94f860124dC4fEe278FDCBD38C102D88",
      "value": {
        "_hex": "0xddc3f1116dd4000"
      },
      "nonce": 0,
      "data": "0x",
      "r": "0x4635e3efd605e9835bf509cc9b951cc9a0bd8d10d1c65ec5c8002e9aadd0bf79",
      "s": "0x737d377e3b56843ec55355a5d501d73a2a64b3534348de680546cacd65bcb8c6",
      "v": 28,
      "creates": null,
      "raw": "0xf86c80850df1003b458252089432be343b94f860124dc4fee278fdcbd38c102d88880ddc3f1116dd4000801ca04635e3efd605e9835bf509cc9b951cc9a0bd8d10d1c65ec5c8002e9aadd0bf79a0737d377e3b56843ec55355a5d501d73a2a64b3534348de680546cacd65bcb8c6",
      "networkId": 0,
      "chainId": 0
    },
    {
      "hash": "0x4e2f6b6ac2d85706b321cd372d86ad15dac1f2f94d2e80f06ec7a1a9491f38b4",
      "blockHash": "0xab188a7fc09aab5d314db80da0d5737ac8261af9e753ba323e95196fa2cc96c5",
      "blockNumber": 52618,
      "transactionIndex": 6,
      "confirmations": null,
      "from": "0x439632734cdF5a84774156c1938CbeDe2eF398F0",
      "gasPrice": {
        "_hex": "0xdf1003b45"
      },
      "gasLimit": {
        "_hex": "0x5208"
      },
      "to": "0x32Be343B94f860124dC4fEe278FDCBD38C102D88",
      "value": {
        "_hex": "0x4e478215b99f880000"
      },
      "nonce": 4,
      "data": "0x",
      "r": "0xed3315832c1a80bc95b707da749bf3c66a9151b83fe43a150f2d2fbddf38ef94",
      "s": "0x76007b032ec1c3a0e503d3a70079070d39a54d663a28dfb8611cbc3918294134",
      "v": 28,
      "creates": null,
      "raw": "0xf86d04850df1003b458252089432be343b94f860124dc4fee278fdcbd38c102d88894e478215b99f880000801ca0ed3315832c1a80bc95b707da749bf3c66a9151b83fe43a150f2d2fbddf38ef94a076007b032ec1c3a0e503d3a70079070d39a54d663a28dfb8611cbc3918294134",
      "networkId": 0,
      "chainId": 0
    }
  ]
}