{
  "hash": "0xa5ed9bd9b0a191ce9d6eda9da11958083786b7193a62920053ee14b5ced453de",
  "parentHash": "0xf31526b561dbe039a1c407006e138d8760c868e2b6b72be7e7ba0d04a65fd87b",
  "number": 73861,
  "timestamp": 1439376280,
  "nonce": "0x1ed690ef77790990",
  "difficulty": 2224955748977,
  "gasLimit": {
    "_hex": "0x2fefd8"
  },
  "gasUsed": {
    "_hex": "0xa410"
  },
  "miner": "0x47ff6576639c2e94762eA5443978D7681C0E78DC",
  "extraData": "0x476574682f76312e302e312f6c696e75782f676f312e342e32",
  "transactions": [
    {
      "hash": "0x3c2478cd9e1a925e57b566abef1081fcee8b1bed182ca0b88c1af8ce6051b961",
      "blockHash": "0xa5ed9bd9b0a191ce9d6eda9da11958083786b7193a62920053ee14b5ced453de",
      "blockNumber": 73861,
      "transactionIndex": 0,
      "confirmations": null,
      "from": "0xc597A5d92F5dC1137D847db733cfe02c6d209f13",
      "gasPrice": {
        "_hex": "0xddaa99b2f"
      },
      "gasLimit": {
        "_hex": "0x15f90"
      },
      "to": "0xCa23d1Bc8ffa9E53F1C22644d7EaBb6e26E4468A",
      "value": {
        "_hex": "0xde0b6b3a7640000"
      },
      "nonce": 4,
      "data": "0x",
      "r": "0x2f5e17b3c19feceeb1e7c857777cae85a4d874b073b5954fc88df1fa9188e523",
      "s": "0x68688b338c9527905a57b90c5f25eea61d0103e81e59317fba70954b31bb8ac2",
      "v": 28,
      "creates": null,
      "raw": "0xf86d04850ddaa99b2f83015f9094ca23d1bc8ffa9e53f1c22644d7eabb6e26e4468a880de0b6b3a7640000801ca02f5e17b3c19feceeb1e7c857777cae85a4d874b073b5954fc88df1fa9188e523a068688b338c9527905a57b90c5f25eea61d0103e81e59317fba70954b31bb8ac2",
      "networkId": 0,
      "chainId": 0
    },
    {
      "hash": "0xecbfc8c33586acdc1454544a181affd533cdd0a94da41183d92b23377773e85d",
      "blockHash": "0xa5ed9bd9b0a191ce9d6eda9da11958083786b7193a62920053ee14b5ced453de",
      "blockNumber": 73861,
      "transactionIndex": 1,
      "confirmations": null,
      "from": "0xc597A5d92F5dC1137D847db733cfe02c6d209f13",
      "gasPrice": {
        "_hex": "0xddaa99b2f"
      },
      "gasLimit": {
        "_hex": "0x15f90"
      },
      "to": "0x6beec71ecB0326Dc98dff793dDF44A360a8889Af",
      "value": {
        "_hex": "0xd8d4ee47f07e70000"
      },
      "nonce": 5,
      "data": "0x",
      "r": "0x7a92b90dccca974362a03a26db898aa11242416fb78f10acc44c140a330c3ebb",
      "s": "0x7b2c33a8a7e71374e87d6798e9eb320a2a5d7fb83c8486272a399137f8d35283",
      "v": 28,
      "creates": null,
      "raw": "0xf86e05850ddaa99b2f83015f90946beec71ecb0326dc98dff793ddf44a360a8889af890d8d4ee47f07e70000801ca07a92b90dccca974362a03a26db898aa11242416fb78f10acc44c140a330c3ebba07b2c33a8a7e71374e87d6798e9eb320a2a5d7fb83c8486272a399137f8d35283",
      "networkId": 0,
      "chainId": 0
    }
  ]
}