{
  "hash": "0x72b81d746d434eb19db78fdf59aa7d5fc9d68686fb67d9f825903d2473054c3d",
  "parentHash": "0x1c9f925a6a0326226dc0c70f1d033bb242d1106ba44fcdfe8c64e278848494e6",
  "number": 111446,
  "timestamp": 1439990343,
  "nonce": "0x1a14fcf97bf8f7fd",
  "difficulty": 4446129509280,
  "gasLimit": {
    "_hex": "0x2fefd8"
  },
  "gasUsed": {
    "_hex": "0x5208"
  },
  "miner": "0x0037ce3d4B7f8729C8607D8D0248252Be68202c0",
  "extraData": "0x476574682f76312e302e312f77696e646f77732f676f312e342e32",
  "transactions": [
    {
      "hash": "0x55b32d56b1f60a0047db4ed4bb78d767951974b9d34437aacce15c5b5bb41b57",
      "blockHash": "0x72b81d746d434eb19db78fdf59aa7d5fc9d68686fb67d9f825903d2473054c3d",
      "blockNumber": 111446,
      "transactionIndex": 0,
      "confirmations": null,
      "from": "0x120A270bbC009644e35F0bB6ab13f95b8199c4ad",
      "gasPrice": {
        "_hex": "0xcd96478da"
      },
      "gasLimit": {
        "_hex": "0x3d090"
      },
      "to": "0xdDbddD1BBd38fFADE0305d30f02028D92e9f3Aa8",
      "value": {
        "_hex": "0x25f273933db5700000"
      },
      "nonce": 875,
      "data": "0x",
      "r": "0x61d9e4fb5968fbc091610db5aec861e54db999ab78330b3833f8401cace1b827",
      "s": "0x1f8cb64cd30e0e247bed1452348a1f4b649622c1d55309a3b32cdc8de80dee44",
      "v": 28,
      "creates": null,
      "raw": "0xf87082036b850cd96478da8303d09094ddbddd1bbd38ffade0305d30f02028d92e9f3aa88925f273933db5700000801ca061d9e4fb5968fbc091610db5aec861e54db999ab78330b3833f8401cace1b827a01f8cb64cd30e0e247bed1452348a1f4b649622c1d55309a3b32cdc8de80dee44",
      "networkId": 0,
      "chainId": 0
    }
  ]
}