{
  "hash": "0x33f9601b00ae5424b4617564b3aca4133cf5a204d70e8c5a5da99eed9ffaaeca",
  "parentHash": "0x95d2920ae5ea41e501ad77416c7158e8ab6cfed4706584ba79445aa68cc3310a",
  "number": 79006,
  "timestamp": 1439463077,
  "nonce": "0x559fffd114ab8e10",
  "difficulty": 2293055979094,
  "gasLimit": {
    "_hex": "0x2fefd8"
  },
  "gasUsed": {
    "_hex": "0xcb43"
  },
  "miner": "0xe6A7a1d47ff21B6321162AEA7C6CB457D5476Bca",
  "extraData": "0x476574682f76312e302e312d38326566323666362f6c696e75782f676f312e34",
  "transactions": [
    {
      "hash": "0xc5efab81761393ec33190430949bc1fe897226ac5ffe8014f12ea963f1d605eb",
      "blockHash": "0x33f9601b00ae5424b4617564b3aca4133cf5a204d70e8c5a5da99eed9ffaaeca",
      "blockNumber": 79006,
      "transactionIndex": 0,
      "confirmations": null,
      "from": "0xF32124626031dC61D64D3bC92A7Dece6A4B46a37",
      "gasPrice": {
        "_hex": "0xd23f74e51"
      },
      "gasLimit": {
        "_hex": "0x493e0"
      },
      "to": "0xD79B4C6791784184e2755B2fC1659eaaB0f80456",
      "value": {
        "_hex": "0x35f1f9"
      },
      "nonce": 2,
      "data": "0x8d2161860000000000000000000000000000000000000000000000000000000000000080d3ae1e5ad243a93fe239b41ec3ff97bfaca73beee6948eb7903dbe0dd3852a9f",
      "r": "0x2bcd22582f4b4e16be1f63eb748023e84fe7c8acf597cb7fe4b4e5eb221a0201",
      "s": "0xa73189d6793c7ca423a76875bef8a9174207bf1f41d89662b080b2a9864631af",
      "v": 27,
      "creates": null,
      "raw": "0xf8ad02850d23f74e51830493e094d79b4c6791784184e2755b2fc1659eaab0f804568335f1f9b8448d2161860000000000000000000000000000000000000000000000000000000000000080d3ae1e5ad243a93fe239b41ec3ff97bfaca73beee6948eb7903dbe0dd3852a9f1ba02bcd22582f4b4e16be1f63eb748023e84fe7c8acf597cb7fe4b4e5eb221a0201a0a73189d6793c7ca423a76875bef8a9174207bf1f41d89662b080b2a9864631af",
      "networkId": 0,
      "chainId": 0
    },
    {
      "hash": "0xec748bb03ff7284b85cc1f39b143e8e779db5d2323190d4086230fc72bc91c0f",
      "blockHash": "0x33f9601b00ae5424b4617564b3aca4133cf5a204d70e8c5a5da99eed9ffaaeca",
      "blockNumber": 79006,
      "transactionIndex": 1,
      "confirmations": null,
      "from": "0x2910543Af39abA0Cd09dBb2D50200b3E800A63D2",
      "gasPrice": {
        "_hex": "0xce71a6e9c"
      },
      "gasLimit": {
        "_hex": "0x5208"
      },
      "to": "0xf6C18B7E62F1cA3C6183003c524d09120ca136cb",
      "value": {
        "_hex": "0x16b8755b6835b8000"
      },
      "nonce": 351,
      "data": "0x",
      "r": "0xc15649109f2594af7220223829f8b78561ba8c4c9105b9a8b7b6b4393108cbdf",
      "s": "0x7747ff9a133fa1fd11a8048d4356c51dfca07349960c4b31a8306004f45ffc12",
      "v": 28,
      "creates": null,
      "raw": "0xf86f82015f850ce71a6e9c82520894f6c18b7e62f1ca3c6183003c524d09120ca136cb89016b8755b6835b8000801ca0c15649109f2594af7220223829f8b78561ba8c4c9105b9a8b7b6b4393108cbdfa07747ff9a133fa1fd11a8048d4356c51dfca07349960c4b31a8306004f45ffc12",
      "networkId": 0,
      "chainId": 0
    }
  ]
}