{
  "hash": "0x4ca0b54e3cc9828b5558656accd65a6cd8ef9f994d18c37b4c6195ca951c99ab",
  "parentHash": "0x13bb308eaa62f27b1252efe1cb7cf910c8581b6f08cb40eb8ad74325e9728022",
  "number": 87291,
  "timestamp": 1439590075,
  "nonce": "0x71b15e828e9344a3",
  "difficulty": 3090133202100,
  "gasLimit": {
    "_hex": "0x2fefd8"
  },
  "gasUsed": {
    "_hex": "0x5208"
  },
  "miner": "0xe6A7a1d47ff21B6321162AEA7C6CB457D5476Bca",
  "extraData": "0x476574682f76312e302e312d38326566323666362f6c696e75782f676f312e34",
  "transactions": [
    {
      "hash": "0xdb8df109e73766a14cf817da7252f2c787eda24c4b7681de8373e5ca6774bbc5",
      "blockHash": "0x4ca0b54e3cc9828b5558656accd65a6cd8ef9f994d18c37b4c6195ca951c99ab",
      "blockNumber": 87291,
      "transactionIndex": 0,
      "confirmations": null,
      "from": "0xBFa71Aba804c2b986D969E175aCFdAC7266CDe9C",
      "gasPrice": {
        "_hex": "0xd1238b35f"
      },
      "gasLimit": {
        "_hex": "0x7530"
      },
      "to": "0xa9f5E7bf6Cbf6fEc55B30850Eb492b47A376d050",
      "value": {
        "_hex": "0x107ad8f556c6c0000"
      },
      "nonce": 1,
      "data": "0x",
      "r": "0xbd7014aae432f6d3fdcf53be6313f3baff7ac93d36ad49962a3935add957f77c",
      "s": "0x0127527613ef20f90bd36694e070d410f0b51aad75d311c13f14de796b5e7e94",
      "v": 27,
      "creates": null,
      "raw": "0xf86d01850d1238b35f82753094a9f5e7bf6cbf6fec55b30850eb492b47a376d050890107ad8f556c6c0000801ba0bd7014aae432f6d3fdcf53be6313f3baff7ac93d36ad49962a3935add957f77ca00127527613ef20f90bd36694e070d410f0b51aad75d311c13f14de796b5e7e94",
      "networkId": 0,
      "chainId": 0
    }
  ]
}