{
  "hash": "0xd73f25cdf3d4b530733ce115e5df6066fbc31fed7980494974fa41be90bd291a",
  "parentHash": "0x04326386d9795cd1a19a43572a7b75b1b50bb5db61ef7ce27a4c911cb97f1b81",
  "number": 82549,
  "timestamp": 1439521332,
  "nonce": "0xd3e8e06de576eeb7",
  "difficulty": 2366001363402,
  "gasLimit": {
    "_hex": "0x2fefd8"
  },
  "gasUsed": {
    "_hex": "0x5208"
  },
  "miner": "0xe090Ffdced499691fA9379752a59F8A058c1eE4A",
  "extraData": "0x476574682f76312e302e312f6c696e75782f676f312e342e32",
  "transactions": [
    {
      "hash": "0xfc4a1476c4e8737e2d2fe7632fc656ae0af270e6d7994d6a39524805c377d46b",
      "blockHash": "0xd73f25cdf3d4b530733ce115e5df6066fbc31fed7980494974fa41be90bd291a",
      "blockNumber": 82549,
      "transactionIndex": 0,
      "confirmations": null,
      "from": "0x0C81b19Df1E50dA2c912C0a25173B5614E7D4917",
      "gasPrice": {
        "_hex": "0x9184e72a000"
      },
      "gasLimit": {
        "_hex": "0x1453d"
      },
      "to": "0x0000000000000000000000000000000000000000",
      "value": {
        "_hex": "0x3bf4322f000"
      },
      "nonce": 0,
      "data": "0x",
      "r": "0x82b3f169a1148d021f94e3a22e108327ae18912feb11f5ab0aaf52d2e537f61c",
      "s": "0x22c63ea6ec16476c99f89c6a0a818f1d8c693735ef10a51362e24032a3717493",
      "v": 28,
      "creates": null,
      "raw": "0xf86c808609184e72a0008301453d9400000000000000000000000000000000000000008603bf4322f000801ca082b3f169a1148d021f94e3a22e108327ae18912feb11f5ab0aaf52d2e537f61ca022c63ea6ec16476c99f89c6a0a818f1d8c693735ef10a51362e24032a3717493",
      "networkId": 0,
      "chainId": 0
    }
  ]
}