{
  "hash": "0xbb3bcae3bba85179c23a758bc0a9d23a7e1da22e3a0ce75803faf563f5daf670",
  "parentHash": "0xb149545acffaf109d322fd7296bea157d28187c737c915b020232c17dbeb9e8e",
  "number": 89872,
  "timestamp": 1439630509,
  "nonce": "0xe103a0d9271971d1",
  "difficulty": 3335313508714,
  "gasLimit": {
    "_hex": "0x2fefd8"
  },
  "gasUsed": {
    "_hex": "0xf618"
  },
  "miner": "0xe6A7a1d47ff21B6321162AEA7C6CB457D5476Bca",
  "extraData": "0x476574682f76312e302e312d38326566323666362f6c696e75782f676f312e34",
  "transactions": [
    {
      "hash": "0xe35775119bfe3d15a759de0ed7d83ea3344355433cc729a65b0932d480fe9b65",
      "blockHash": "0xbb3bcae3bba85179c23a758bc0a9d23a7e1da22e3a0ce75803faf563f5daf670",
      "blockNumber": 89872,
      "transactionIndex": 0,
      "confirmations": null,
      "from": "0xC711d87af18Db9a7EbE2CFB279b73c8785E55d41",
      "gasPrice": {
        "_hex": "0xcab89c47b"
      },
      "gasLimit": {
        "_hex": "0x5208"
      },
      "to": "0x32Be343B94f860124dC4fEe278FDCBD38C102D88",
      "value": {
        "_hex": "0x6042e63257d03000"
      },
      "nonce": 2,
      "data": "0x",
      "r": "0x8407f2360c38c9d916c5e48d8bf9bed0ecac128f14aa3ce7da7f1234599bd4e1",
      "s": "0x7af1711060bdbbbd10a65ae56bcaa652bb298d30c069b95ee47a311629cae0ff",
      "v": 27,
      "creates": null,
      "raw": "0xf86c02850cab89c47b8252089432be343b94f860124dc4fee278fdcbd38c102d88886042e63257d03000801ba08407f2360c38c9d916c5e48d8bf9bed0ecac128f14aa3ce7da7f1234599bd4e1a07af1711060bdbbbd10a65ae56bcaa652bb298d30c069b95ee47a311629cae0ff",
      "networkId": 0,
      "chainId": 0
    },
    {
      "hash": "0x0c51500feda74426332f601cf6581e1765a76462baeefb100836760a2847339a",
      "blockHash": "0xbb3bcae3bba85179c23a758bc0a9d23a7e1da22e3a0ce75803faf563f5daf670",
      "blockNumber": 89872,
      "transactionIndex": 1,
      "confirmations": null,
      "from": "0x463eADDDA71F29F36365F889EA7E6fcDBe1cF0c8",
      "gasPrice": {
        "_hex": "0xcab89c47b"
      },
      "gasLimit": {
        "_hex": "0x5208"
      },
      "to": "0x32Be343B94f860124dC4fEe278FDCBD38C102D88",
      "value": {
        "_hex": "0x8dde8209271af800"
      },
      "nonce": 2,
      "data": "0x",
      "r": "0x1c6ca4bb1d08a05a199e018eea7e777b1b67c5bb69b77cb5d66342fab8342601",
      "s": "0x44d773c724deabd27c640856512142753bb652e7cf289491f9a1e97e2a6b32fd",
      "v": 28,
      "creates": null,
      "raw": "0xf86c02850cab89c47b8252089432be343b94f860124dc4fee278fdcbd38c102d88888dde8209271af800801ca01c6ca4bb1d08a05a199e018eea7e777b1b67c5bb69b77cb5d66342fab8342601a044d773c724deabd27c640856512142753bb652e7cf289491f9a1e97e2a6b32fd",
      "networkId": 0,
      "chainId": 0
    },
    {
      "hash": "0x9628235a26e6875e74a9168367064672f49bdd2df27b6a07023189ceb2c6ee7e",
      "blockHash": "0xbb3bcae3bba85179c23a758bc0a9d23a7e1da22e3a0ce75803faf563f5daf670",
      "blockNumber": 89872,
      "transactionIndex": 2,
      "confirmations": null,
      "from": "0x090d50347263c6E24312c2A4f42C456f4AcC40Ca",
      "gasPrice": {
        "_hex": "0xcab89c47b"
      },
      "gasLimit": {
        "_hex": "0x5208"
      },
      "to": "0x32Be343B94f860124dC4fEe278FDCBD38C102D88",
      "value": {
        "_hex": "0x31c4da4d928fec00"
      },
      "nonce": 2,
      "data": "0x",
      "r": "0x533135e36c925f9621651d217d112c77a9aa54c492b755db647476ec5c5cd81f",
      "s": "0x7990b556a61a416841337cfb384a0dfed681d92a4560ab0fd8047f0ea83fa4c0",
      "v": 27,
      "creates": null,
      "raw": "0xf86c02850cab89c47b8252089432be343b94f860124dc4fee278fdcbd38c102d888831c4da4d928fec00801ba0533135e36c925f9621651d217d112c77a9aa54c492b755db647476ec5c5cd81fa07990b556a61a416841337cfb384a0dfed681d92a4560ab0fd8047f0ea83fa4c0",
      "networkId": 0,
      "chainId": 0
    }
  ]
}