{
  "hash": "0x011e3292ce720272ff41b9e23c1a92439958ec1165d7454ab6e9fa2a8f3b288e",
  "parentHash": "0xedf6111fa00005ae1793c42a22595ecaa00b9446e2e9f2c8b8015b42e66f1897",
  "number": 107445,
  "timestamp": 1439922612,
  "nonce": "0x6dafc3fe9aa4f5c9",
  "difficulty": 4398574148731,
  "gasLimit": {
    "_hex": "0x2fefd8"
  },
  "gasUsed": {
    "_hex": "0xa674"
  },
  "miner": "0xfC25864D8326b4CB335C6942218e5F4Ee8D1E1EF",
  "extraData": "0x476574682f76312e302e312f77696e646f77732f676f312e342e32",
  "transactions": [
    {
      "hash": "0xfaae7a5c11d2daeb04e4193801d91207ab4131e87c98507ff57880edb463aa2d",
      "blockHash": "0x011e3292ce720272ff41b9e23c1a92439958ec1165d7454ab6e9fa2a8f3b288e",
      "blockNumber": 107445,
      "transactionIndex": 0,
      "confirmations": null,
      "from": "0x93235f340D2863e18D2F4c52996516138D220267",
      "gasPrice": {
        "_hex": "0x110c8f7d8de"
      },
      "gasLimit": {
        "_hex": "0xc350"
      },
      "to": "0x2910543Af39abA0Cd09dBb2D50200b3E800A63D2",
      "value": {
        "_hex": "0x3fecaff854a4a0000"
      },
      "nonce": 1,
      "data": "0x454e37464135525030",
      "r": "0xf966361feb6674f23fa280ea86d1803c10828936d67613ca4bbac5645919bc5a",
      "s": "0x6f96f7280688e0b52ecef19c43cdb8dd9dd19b818718d99d61d6899d8326ad57",
      "v": 28,
      "creates": null,
      "raw": "0xf87701860110c8f7d8de82c350942910543af39aba0cd09dbb2d50200b3e800a63d28903fecaff854a4a000089454e374641355250301ca0f966361feb6674f23fa280ea86d1803c10828936d67613ca4bbac5645919bc5aa06f96f7280688e0b52ecef19c43cdb8dd9dd19b818718d99d61d6899d8326ad57",
      "networkId": 0,
      "chainId": 0
    },
    {
      "hash": "0xecded345bfcb2e1b8dd47cb32e1b7bdba287350f233ef87143fbd9203e6d81b0",
      "blockHash": "0x011e3292ce720272ff41b9e23c1a92439958ec1165d7454ab6e9fa2a8f3b288e",
      "blockNumber": 107445,
      "transactionIndex": 1,
      "confirmations": null,
      "from": "0x32Be343B94f860124dC4fEe278FDCBD38C102D88",
      "gasPrice": {
        "_hex": "0xcfc7897bc"
      },
      "gasLimit": {
        "_hex": "0x5208"
      },
      "to": "0x8C4E227F9D4D31e1Fdb1Ad0Ad3AA64Ce3f528bab",
      "value": {
        "_hex": "0x10f0cccddeae9600000"
      },
      "nonce": 1218,
      "data": "0x",
      "r": "0x08531c8ffa8f354e16989c35f4bba2b9cbcdd42d5236181b834965ebff846be6",
      "s": "0x0b2a5bc05f3538eaf36e768bcb1947741d50d8f1de6d050c7609f441737e96d3",
      "v": 28,
      "creates": null,
      "raw": "0xf8708204c2850cfc7897bc825208948c4e227f9d4d31e1fdb1ad0ad3aa64ce3f528bab8a010f0cccddeae9600000801ca008531c8ffa8f354e16989c35f4bba2b9cbcdd42d5236181b834965ebff846be6a00b2a5bc05f3538eaf36e768bcb1947741d50d8f1de6d050c7609f441737e96d3",
      "networkId": 0,
      "chainId": 0
    }
  ]
}