{
  "hash": "0xe9d2158122d3c24b3183c6891169adefd95f130b6e2c46d4b1eaab1cdae6c2e0",
  "parentHash": "0x182f56aaa2df0624e0a75603f3ef5dec5fbb60e725d5daf6c9d69be627ce2d6b",
  "number": 92115,
  "timestamp": 1439667002,
  "nonce": "0x63ca0c37447b911c",
  "difficulty": 3475725393717,
  "gasLimit": {
    "_hex": "0x2fefd8"
  },
  "gasUsed": {
    "_hex": "0x5208"
  },
  "miner": "0x790b8a3cE86E707ED0eD32bF89B3269692a23CC1",
  "extraData": "0xd783010001844765746887676f312e342e32856c696e7578",
  "transactions": [
    {
      "hash": "0x0319b7df1eaeadff62ac46899942f332fe2dbfda8af8744ae68794f9a4a9ad03",
      "blockHash": "0xe9d2158122d3c24b3183c6891169adefd95f130b6e2c46d4b1eaab1cdae6c2e0",
      "blockNumber": 92115,
      "transactionIndex": 0,
      "confirmations": null,
      "from": "0xadB278005820C084109D69a604a0fce4CeD4aDa4",
      "gasPrice": {
        "_hex": "0xdd9dbf741"
      },
      "gasLimit": {
        "_hex": "0x15f90"
      },
      "to": "0x0EB0AcFB7C81a83296b8C023673f362e8FCd88bD",
      "value": {
        "_hex": "0xde0b6b3a7640000"
      },
      "nonce": 0,
      "data": "0x",
      "r": "0xacdc639b2761a12f5d793191241cfad5cd79781bc73f2ee2d1b25ed7a7355143",
      "s": "0x043ea0a988369811278139da37934715f874f56a342e6ff12aba3107436b9384",
      "v": 28,
      "creates": null,
      "raw": "0xf86d80850dd9dbf74183015f90940eb0acfb7c81a83296b8c023673f362e8fcd88bd880de0b6b3a7640000801ca0acdc639b2761a12f5d793191241cfad5cd79781bc73f2ee2d1b25ed7a7355143a0043ea0a988369811278139da37934715f874f56a342e6ff12aba3107436b9384",
      "networkId": 0,
      "chainId": 0
    }
  ]
}