{
  "hash": "0x7379fdbd2f6e55aefb967f7a7d433738271673844de0e4c97f08b38d1fddcceb",
  "parentHash": "0xf53ae9e466f5684cc9323613b618ca37748e31689b511b220b9215cdf7d6f22c",
  "number": 92325,
  "timestamp": 1439670259,
  "nonce": "0xb1e944537fd5bd84",
  "difficulty": 3506320625634,
  "gasLimit": {
    "_hex": "0x2fefd8"
  },
  "gasUsed": {
    "_hex": "0x546c"
  },
  "miner": "0x31995C46B15C84523cDEE26f49A681b8237e43F5",
  "extraData": "0x476574682f76312e302e312f77696e646f77732f676f312e342e32",
  "transactions": [
    {
      "hash": "0x11bfed13d5ad83dfdb5f4dd3d0fa4394b126aec57fc9942ea383e7232e02d1da",
      "blockHash": "0x7379fdbd2f6e55aefb967f7a7d433738271673844de0e4c97f08b38d1fddcceb",
      "blockNumber": 92325,
      "transactionIndex": 0,
      "confirmations": null,
      "from": "0x31995C46B15C84523cDEE26f49A681b8237e43F5",
      "gasPrice": {
        "_hex": "0xd332412c4"
      },
      "gasLimit": {
        "_hex": "0x7530"
      },
      "to": "0x2910543Af39abA0Cd09dBb2D50200b3E800A63D2",
      "value": {
        "_hex": "0x70c1cc73b00c80000"
      },
      "nonce": 5,
      "data": "0x454e3651304d384252",
      "r": "0x712580ebf02759900911ca1e9cfcb654797d298844f11aa54746c1a51026ba3d",
      "s": "0x7e8c2e3692997bdce8df1ff712d1b9e1c7b35fcff3538365ee453e56954b1fad",
      "v": 28,
      "creates": null,
      "raw": "0xf87605850d332412c4827530942910543af39aba0cd09dbb2d50200b3e800a63d289070c1cc73b00c8000089454e3651304d3842521ca0712580ebf02759900911ca1e9cfcb654797d298844f11aa54746c1a51026ba3da07e8c2e3692997bdce8df1ff712d1b9e1c7b35fcff3538365ee453e56954b1fad",
      "networkId": 0,
      "chainId": 0
    }
  ]
}