{
  "hash": "0x316f1bd753871b3b96b222a913805032078151260029704a777e8539afaa8f92",
  "parentHash": "0xce56d59cf882d498a89a1a14ba168ff5dd5dc338aa673249c39ac63d66ab0208",
  "number": 68754,
  "timestamp": 1439293151,
  "nonce": "0x1531048c37f9001f",
  "difficulty": 2022136074634,
  "gasLimit": {
    "_hex": "0x2fefd8"
  },
  "gasUsed": {
    "_hex": "0x5208"
  },
  "miner": "0x580992B51e3925e23280EfB93d3047C82f17E038",
  "extraData": "0x476574682f76312e302e312f6c696e75782f676f312e342e32",
  "transactions": [
    {
      "hash": "0x77e6bc25e95bcbabfcfae41191661e6299e3a72ab340539af3c8816425b52f1e",
      "blockHash": "0x316f1bd753871b3b96b222a913805032078151260029704a777e8539afaa8f92",
      "blockNumber": 68754,
      "transactionIndex": 0,
      "confirmations": null,
      "from": "0xF87481A262E993a75F791E7859E71BaC36A606Eb",
      "gasPrice": {
        "_hex": "0xcde5febce"
      },
      "gasLimit": {
        "_hex": "0x5208"
      },
      "to": "0x32Be343B94f860124dC4fEe278FDCBD38C102D88",
      "value": {
        "_hex": "0xda92fb936e7570000"
      },
      "nonce": 9,
      "data": "0x",
      "r": "0x39846817a59f7d268e342ab3290a16a8f6875216b4444b981dd6503a12bc3f26",
      "s": "0x2796a9fd9a2b77c338cf021282a8611333c410a640e5d7ff8d0ad66d2bf63114",
      "v": 28,
      "creates": null,
      "raw": "0xf86d09850cde5febce8252089432be343b94f860124dc4fee278fdcbd38c102d88890da92fb936e7570000801ca039846817a59f7d268e342ab3290a16a8f6875216b4444b981dd6503a12bc3f26a02796a9fd9a2b77c338cf021282a8611333c410a640e5d7ff8d0ad66d2bf63114",
      "networkId": 0,
      "chainId": 0
    }
  ]
}