{
  "hash": "0xab9908b3f8d2a3d4c21400bb78c81477f84c537523bcdaf548b1308d43b691d4",
  "parentHash": "0x0a041045da23fd5563329429182d509eb301b8222c773aac50737d359d7ed19a",
  "number": 64961,
  "timestamp": 1439229076,
  "nonce": "0xa192526e310c0013",
  "difficulty": 1912582127112,
  "gasLimit": {
    "_hex": "0x2fefd8"
  },
  "gasUsed": {
    "_hex": "0xa410"
  },
  "miner": "0xbb7B8287f3F0a933474a79eAe42CBCa977791171",
  "extraData": "0x476574682f4c5649562f76312e302e312f6c696e75782f676f312e342e32",
  "transactions": [
    {
      "hash": "0xae5bd2dab487eac5ed2bbe15d4e897be7e4169c340f7ce97e4b5c5f3c4b19c48",
      "blockHash": "0xab9908b3f8d2a3d4c21400bb78c81477f84c537523bcdaf548b1308d43b691d4",
      "blockNumber": 64961,
      "transactionIndex": 0,
      "confirmations": null,
      "from": "0x6D5Be066AafE397b55BB0faEcAdc113B75f58020",
      "gasPrice": {
        "_hex": "0xba43b7400"
      },
      "gasLimit": {
        "_hex": "0x5208"
      },
      "to": "0x90BF64FfEb204D3C69051bACc3d058f1d99F41B2",
      "value": {
        "_hex": "0x17adb9b0233f000"
      },
      "nonce": 1,
      "data": "0x",
      "r": "0x71869374ffbaaab6361ea95c194ebd7e415280b5f082e978ceb17b57bfa5f3ac",
      "s": "0x7122758f650fb08f3f4b74d27939a4a9c915154a60485a1e9e877316269f5b98",
      "v": 28,
      "creates": null,
      "raw": "0xf86c01850ba43b74008252089490bf64ffeb204d3c69051bacc3d058f1d99f41b288017adb9b0233f000801ca071869374ffbaaab6361ea95c194ebd7e415280b5f082e978ceb17b57bfa5f3aca07122758f650fb08f3f4b74d27939a4a9c915154a60485a1e9e877316269f5b98",
      "networkId": 0,
      "chainId": 0
    },
    {
      "hash": "0x4dd2e49a6a263005b46f982b994b47501056bb3c39260f875fa81bff298dcef2",
      "blockHash": "0xab9908b3f8d2a3d4c21400bb78c81477f84c537523bcdaf548b1308d43b691d4",
      "blockNumber": 64961,
      "transactionIndex": 1,
      "confirmations": null,
      "from": "0x8624961b48421B6f6cEB7E507F1A228a30618E24",
      "gasPrice": {
        "_hex": "0xba43b7400"
      },
      "gasLimit": {
        "_hex": "0x5208"
      },
      "to": "0x685bc76108850B7e31250673af0498eEAFC66B1f",
      "value": {
        "_hex": "0x1d7684e6875b000"
      },
      "nonce": 1,
      "data": "0x",
      "r": "0xd148455604f52651e40b46441c2edf9e4ac570e2686c07d1c4415411cc02dca9",
      "s": "0x1cd5f75b189058c5da0482e5dfd684edb7b01dfd52fa1f46524e6a859fd942c5",
      "v": 28,
      "creates": null,
      "raw": "0xf86c01850ba43b740082520894685bc76108850b7e31250673af0498eeafc66b1f8801d7684e6875b000801ca0d148455604f52651e40b46441c2edf9e4ac570e2686c07d1c4415411cc02dca9a01cd5f75b189058c5da0482e5dfd684edb7b01dfd52fa1f46524e6a859fd942c5",
      "networkId": 0,
      "chainId": 0
    }
  ]
}