{
  "hash": "0x60b3e89f262c9edb6c927ed14b3fd9a3e8a14a870a2ea61637f07f0dd8a1870f",
  "parentHash": "0x4c9c71f82329bd3934e5efb445d2cf4fc1e9d15d3f15cebdeb781883f4a7804b",
  "number": 92812,
  "timestamp": 1439677466,
  "nonce": "0x916811db73631bbc",
  "difficulty": 3636894923420,
  "gasLimit": {
    "_hex": "0x2fefd8"
  },
  "gasUsed": {
    "_hex": "0x5208"
  },
  "miner": "0x8293b65bD915B9FF87F6aDAb479da2e5b6633fDB",
  "extraData": "0x476574682f76312e302e312f77696e646f77732f676f312e342e32",
  "transactions": [
    {
      "hash": "0x0792baee0c653de6381c9c74c71e83b8d06592b92de1d80a802240c56f3f3dd4",
      "blockHash": "0x60b3e89f262c9edb6c927ed14b3fd9a3e8a14a870a2ea61637f07f0dd8a1870f",
      "blockNumber": 92812,
      "transactionIndex": 0,
      "confirmations": null,
      "from": "0x2910543Af39abA0Cd09dBb2D50200b3E800A63D2",
      "gasPrice": {
        "_hex": "0xd4b3b82c2"
      },
      "gasLimit": {
        "_hex": "0x5208"
      },
      "to": "0x5439f91E9Bf71DcE4c201C53e5D8cd51dD5633c5",
      "value": {
        "_hex": "0x11c37937e08000"
      },
      "nonce": 835,
      "data": "0x",
      "r": "0xfa3fba7d0574f5718259035e7fa4edfc34918bbf209222559e6a102c5fa59249",
      "s": "0x3d3517ba2914645428d95c699250ed431a5f18a59351709ab28be38add8a5090",
      "v": 28,
      "creates": null,
      "raw": "0xf86d820343850d4b3b82c2825208945439f91e9bf71dce4c201c53e5d8cd51dd5633c58711c37937e08000801ca0fa3fba7d0574f5718259035e7fa4edfc34918bbf209222559e6a102c5fa59249a03d3517ba2914645428d95c699250ed431a5f18a59351709ab28be38add8a5090",
      "networkId": 0,
      "chainId": 0
    }
  ]
}