{
  "hash": "0xb4053d9bd0b7cf4c91ff6247299c81a83472140abe849f2e6bf4bfc2bb70dbde",
  "parentHash": "0x881f4d9b3d9c6351175ee3dd030da52df1777400a5b64c3a39ae395d9c397c47",
  "number": 112590,
  "timestamp": 1440009798,
  "nonce": "0x96f273733d11170c",
  "difficulty": 4432518272451,
  "gasLimit": {
    "_hex": "0x2fefd8"
  },
  "gasUsed": {
    "_hex": "0x5208"
  },
  "miner": "0x9827C93917a0c59899BEfBa58d104A788782e1d4",
  "extraData": "0xd983010001844765746887676f312e342e328777696e646f7773",
  "transactions": [
    {
      "hash": "0x3b54f4038ce8573f195533e3c083a24bc914c56e6df1c052d2b4480841317ecf",
      "blockHash": "0xb4053d9bd0b7cf4c91ff6247299c81a83472140abe849f2e6bf4bfc2bb70dbde",
      "blockNumber": 112590,
      "transactionIndex": 0,
      "confirmations": null,
      "from": "0x4048bC540ee6410E07c3A022f49c446a5F9190fF",
      "gasPrice": {
        "_hex": "0xccf3f9a1e"
      },
      "gasLimit": {
        "_hex": "0x5208"
      },
      "to": "0x32Be343B94f860124dC4fEe278FDCBD38C102D88",
      "value": {
        "_hex": "0x45631638c413e4000"
      },
      "nonce": 0,
      "data": "0x",
      "r": "0xdf19db7359d50a0e7c43ab37237beccc89baade9d5113cc59af8269dc7ae2c52",
      "s": "0x3f5b7e8222acff4b2eb008c340b5545c925fd73b89317d618b963fae18c428f2",
      "v": 28,
      "creates": null,
      "raw": "0xf86d80850ccf3f9a1e8252089432be343b94f860124dc4fee278fdcbd38c102d8889045631638c413e4000801ca0df19db7359d50a0e7c43ab37237beccc89baade9d5113cc59af8269dc7ae2c52a03f5b7e8222acff4b2eb008c340b5545c925fd73b89317d618b963fae18c428f2",
      "networkId": 0,
      "chainId": 0
    }
  ]
}