{
  "hash": "0xeb6bff2263a5118e4af2605861fa9c333c11daa4e7a4619375f2945298725a04",
  "parentHash": "0x25a52fd3af6c239bd289fe90bb986354e9de9953d012aa4d4495250cff59a618",
  "number": 68501,
  "timestamp": 1439288987,
  "nonce": "0x05bde735144f08ad",
  "difficulty": 2007440155651,
  "gasLimit": {
    "_hex": "0x2fefd8"
  },
  "gasUsed": {
    "_hex": "0x5976b"
  },
  "miner": "0x01d9DA08cc6Fb97c0DE1B6F4C28910A0859Ed1A1",
  "extraData": "0x476574682f76312e302e312f6c696e75782f676f312e342e32",
  "transactions": [
    {
      "hash": "0xd3d7500780be75855cd74a1297e4b0f3897b81d9315ad9c3e44882a5de890e83",
      "blockHash": "0xeb6bff2263a5118e4af2605861fa9c333c11daa4e7a4619375f2945298725a04",
      "blockNumber": 68501,
      "transactionIndex": 0,
      "confirmations": null,
      "from": "0xd268fB48FA174088a25a120aFF0fd8eb0C2d4c87",
      "gasPrice": {
        "_hex": "0xde51add5f"
      },
      "gasLimit": {
        "_hex": "0x1f328"
      },
      "to": "0x93e8f703C29337500d426549633F2Be43d63A0fA",
      "value": {
        "_hex": "0x1bc16d674ec80000"
      },
      "nonce": 3,
      "data": "0x",
      "r": "0x490532abd01d42c40a641ce435131e8116b5cdef73993649dd72bd54c4a595a5",
      "s": "0x7035a19672d7fbe3e415333f81c2bcccdc79192941a416a3b907f690ed58a81f",
      "v": 27,
      "creates": null,
      "raw": "0xf86d03850de51add5f8301f3289493e8f703c29337500d426549633f2be43d63a0fa881bc16d674ec80000801ba0490532abd01d42c40a641ce435131e8116b5cdef73993649dd72bd54c4a595a5a07035a19672d7fbe3e415333f81c2bcccdc79192941a416a3b907f690ed58a81f",
      "networkId": 0,
      "chainId": 0
    },
    {
      "hash": "0x7786c8751f2dbacaa30a2caf9fd18e40c06029b7683e20d2176016a1e26b3072",
      "blockHash": "0xeb6bff2263a5118e4af2605861fa9c333c11daa4e7a4619375f2945298725a04",
      "blockNumber": 68501,
      "transactionIndex": 1,
      "confirmations": null,
      "from": "0x17580B766f7453525ca4C6A88b01b50570EA088C",
      "gasPrice": {
        "_hex": "0xcf6391346"
      },
      "gasLimit": {
        "_hex": "0x61a80"
      },
      "to": "0x5Fe5B7546D1628f7348B023A0393de1FC825A4fD",
      "value": {
        "_hex": "0x4563918244f40000"
      },
      "nonce": 32,
      "data": "0xb595b8b50000000000000000000000000000000000000000000000000000000000000000",
      "r": "0x3ab72fa93203f87a5c19657b247f8ad6ddd7b50e95d9c1347895183ad9e84195",
      "s": "0x172a8c465cc0a1594a909a04b8a8dbc27fa447b560205bebcaf22cdc701312c6",
      "v": 27,
      "creates": null,
      "raw": "0xf89120850cf639134683061a80945fe5b7546d1628f7348b023a0393de1fc825a4fd884563918244f40000a4b595b8b500000000000000000000000000000000000000000000000000000000000000001ba03ab72fa93203f87a5c19657b247f8ad6ddd7b50e95d9c1347895183ad9e84195a0172a8c465cc0a1594a909a04b8a8dbc27fa447b560205bebcaf22cdc701312c6",
      "networkId": 0,
      "chainId": 0
    },
    {
      "hash": "0x94865f2f1a1d9ac4e2798c1f86fe24bedaf025d3e5b2ed118032f187a465d553",
      "blockHash": "0xeb6bff2263a5118e4af2605861fa9c333c11daa4e7a4619375f2945298725a04",
      "blockNumber": 68501,
      "transactionIndex": 2,
      "confirmations": null,
      "from": "0xa0563131B6F8343513Aff2B3AE336C325aA67f89",
      "gasPrice": {
        "_hex": "0xba43b7400"
      },
      "gasLimit": {
        "_hex": "0x5208"
      },
      "to": "0xEcB4D432602E91459ac24e450f20e3849B6AE9C3",
      "value": {
        "_hex": "0x937bda828f9000"
      },
      "nonce": 1,
      "data": "0x",
      "r": "0xbdcc16c043633ea7f9a70b7e942fd660f5b4b2ce66b274b147fcd13223af1468",
      "s": "0x47b02d2a60e976342106b989fe5b7bd4179789bbded20637930a17999ff4dec8",
      "v": 27,
      "creates": null,
      "raw": "0xf86b01850ba43b740082520894ecb4d432602e91459ac24e450f20e3849b6ae9c387937bda828f9000801ba0bdcc16c043633ea7f9a70b7e942fd660f5b4b2ce66b274b147fcd13223af1468a047b02d2a60e976342106b989fe5b7bd4179789bbded20637930a17999ff4dec8",
      "networkId": 0,
      "chainId": 0
    },
    {
      "hash": "0x5c42ac92f1739e3a18327e8bbb560ab580e6ea891bcd35d171a9423946c37cb4",
      "blockHash": "0xeb6bff2263a5118e4af2605861fa9c333c11daa4e7a4619375f2945298725a04",
      "blockNumber": 68501,
      "transactionIndex": 3,
      "confirmations": null,
      "from": "0xC3d8FD925aBd21f3EDDeE6fC1afaA4513275E8C2",
      "gasPrice": {
        "_hex": "0xba43b7400"
      },
      "gasLimit": {
        "_hex": "0x5208"
      },
      "to": "0x7864040dAaDE04DCc649eaCb6baB5279AEd4c920",
      "value": {
        "_hex": "0x937bda828f9000"
      },
      "nonce": 1,
      "data": "0x",
      "r": "0xe5ba8727fd955e1576a467ab9438809dd5c176f1bdc97c84bbfaeaff077bcf55",
      "s": "0x6e306576bc284682cf66863464e20d58cc4dfd34249eb2c005dfecbcfcc33efa",
      "v": 28,
      "creates": null,
      "raw": "0xf86b01850ba43b7400825208947864040daade04dcc649eacb6bab5279aed4c92087937bda828f9000801ca0e5ba8727fd955e1576a467ab9438809dd5c176f1bdc97c84bbfaeaff077bcf55a06e306576bc284682cf66863464e20d58cc4dfd34249eb2c005dfecbcfcc33efa",
      "networkId": 0,
      "chainId": 0
    },
    {
      "hash": "0x18ac6f661475e8887ea50acc75cfa4a5c4e16b61352a8931daad0274245a6daa",
      "blockHash": "0xeb6bff2263a5118e4af2605861fa9c333c11daa4e7a4619375f2945298725a04",
      "blockNumber": 68501,
      "transactionIndex": 4,
      "confirmations": null,
      "from": "0x36893Eaa3BCFBfF9dA472cF38d82c80bdAEc7F04",
      "gasPrice": {
        "_hex": "0xba43b7400"
      },
      "gasLimit": {
        "_hex": "0x5208"
      },
      "to": "0x2CB041676092Af3590C3b992deD6bCFEF9e422A7",
      "value": {
        "_hex": "0x937bda828f9000"
      },
      "nonce": 1,
      "data": "0x",
      "r": "0x0cfcca56db8568bb9ad44b57266b3e086ba31b44326baadbea349f54422507f8",
      "s": "0x0fde25a527cec001753d74c9362dbd7eeec12d7827963768d39e67938cc96374",
      "v": 27,
      "creates": null,
      "raw": "0xf86b01850ba43b7400825208942cb041676092af3590c3b992ded6bcfef9e422a787937bda828f9000801ba00cfcca56db8568bb9ad44b57266b3e086ba31b44326baadbea349f54422507f8a00fde25a527cec001753d74c9362dbd7eeec12d7827963768d39e67938cc96374",
      "networkId": 0,
      "chainId": 0
    },
    {
      "hash": "0xd0e4404d9bbde6ae1db4fc3429595ce481d73646a16a5ade0d945460f04fdc8e",
      "blockHash": "0xeb6bff2263a5118e4af2605861fa9c333c11daa4e7a4619375f2945298725a04",
      "blockNumber": 68501,
      "transactionIndex": 5,
      "confirmations": null,
      "from": "0x6F46E2353028A6EE46c11437324E394F60c53bE8",
      "gasPrice": {
        "_hex": "0xba43b7400"
      },
      "gasLimit": {
        "_hex": "0x5208"
      },
      "to": "0x338a57C2dA211d6F910B5BDcD2a078B81268f2F3",
      "value": {
        "_hex": "0x937bda828f9000"
      },
      "nonce": 1,
      "data": "0x",
      "r": "0x5b1ee5c01038b760ba8481a8bd63165c924034f18b290f73b1a4bd64872817cf",
      "s": "0x75f95fbad96af344340437465c23d4c9425e18d99993147bb8ae80cce1cbda4b",
      "v": 27,
      "creates": null,
      "raw": "0xf86b01850ba43b740082520894338a57c2da211d6f910b5bdcd2a078b81268f2f387937bda828f9000801ba05b1ee5c01038b760ba8481a8bd63165c924034f18b290f73b1a4bd64872817cfa075f95fbad96af344340437465c23d4c9425e18d99993147bb8ae80cce1cbda4b",
      "networkId": 0,
      "chainId": 0
    },
    {
      "hash": "0x4c0734b96d913c469c6803d38aab6928fb52fc2d925ec58e083267766395c242",
      "blockHash": "0xeb6bff2263a5118e4af2605861fa9c333c11daa4e7a4619375f2945298725a04",
      "blockNumber": 68501,
      "transactionIndex": 6,
      "confirmations": null,
      "from": "0x119b7AF8e98b1F44903373A62cB28aeB0a9BB72D",
      "gasPrice": {
        "_hex": "0xba43b7400"
      },
      "gasLimit": {
        "_hex": "0x5208"
      },
      "to": "0x95ED185c726Ba52cAD31fe7e166e2Fd941c2a0B2",
      "value": {
        "_hex": "0x937bda828f9000"
      },
      "nonce": 1,
      "data": "0x",
      "r": "0xa70704d82d13ac4cd644945f53cd522d18a702c3e3cf7a8aa725ef2efbb20733",
      "s": "0x6d0dd3d538e4cecda0b65e17515d6533e59d93677adec48c090e52234c7f307c",
      "v": 27,
      "creates": null,
      "raw": "0xf86b01850ba43b74008252089495ed185c726ba52cad31fe7e166e2fd941c2a0b287937bda828f9000801ba0a70704d82d13ac4cd644945f53cd522d18a702c3e3cf7a8aa725ef2efbb20733a06d0dd3d538e4cecda0b65e17515d6533e59d93677adec48c090e52234c7f307c",
      "networkId": 0,
      "chainId": 0
    },
    {
      "hash": "0x05fef1ece906471994203c2a0ef530b194880b68e5a27d953cd956841e0252f7",
      "blockHash": "0xeb6bff2263a5118e4af2605861fa9c333c11daa4e7a4619375f2945298725a04",
      "blockNumber": 68501,
      "transactionIndex": 7,
      "confirmations": null,
      "from": "0xE70bb002A9A312478bB1C044ca5C3f36CBAa1D89",
      "gasPrice": {
        "_hex": "0xba43b7400"
      },
      "gasLimit": {
        "_hex": "0x5208"
      },
      "to": "0xdA8f26874DAfC2085812d5750228BA8310ca2d33",
      "value": {
        "_hex": "0x937bda828f9000"
      },
      "nonce": 1,
      "data": "0x",
      "r": "0xef80107d2b75e8186b39e1f13f9ecc42b4c058fa634cf40926fdbd7b68128150",
      "s": "0x192a639d7fb918656d9e913925a28a791c83379d67540db6608237a1ffa9324c",
      "v": 27,
      "creates": null,
      "raw": "0xf86b01850ba43b740082520894da8f26874dafc2085812d5750228ba8310ca2d3387937bda828f9000801ba0ef80107d2b75e8186b39e1f13f9ecc42b4c058fa634cf40926fdbd7b68128150a0192a639d7fb918656d9e913925a28a791c83379d67540db6608237a1ffa9324c",
      "networkId": 0,
      "chainId": 0
    },
    {
      "hash": "0x9a06cbde07c596978ac5f500c2acbc99e05de21e645ea4fa7a9b4534390b3ab7",
      "blockHash": "0xeb6bff2263a5118e4af2605861fa9c333c11daa4e7a4619375f2945298725a04",
      "blockNumber": 68501,
      "transactionIndex": 8,
      "confirmations": null,
      "from": "0x8749f57068557fd510fcF6F822C3045d2af0b629",
      "gasPrice": {
        "_hex": "0xba43b7400"
      },
      "gasLimit": {
        "_hex": "0x5208"
      },
      "to": "0x67A745d2B7E681A661b256E1b88f5A78cB45eC16",
      "value": {
        "_hex": "0x937bda828f9000"
      },
      "nonce": 1,
      "data": "0x",
      "r": "0x804ca3f20105c8386d4a41ad9f59abeb168beb67b099205f73db3acfbddbb57a",
      "s": "0x284eff92c3cac15342ee1eb5a5f4872c2350f7e8ee95aca770401807deaf5bea",
      "v": 27,
      "creates": null,
      "raw": "0xf86b01850ba43b74008252089467a745d2b7e681a661b256e1b88f5a78cb45ec1687937bda828f9000801ba0804ca3f20105c8386d4a41ad9f59abeb168beb67b099205f73db3acfbddbb57aa0284eff92c3cac15342ee1eb5a5f4872c2350f7e8ee95aca770401807deaf5bea",
      "networkId": 0,
      "chainId": 0
    },
    {
      "hash": "0xb871633ecf843a79a6fdd42c16baaf93b3f1d7229178164a87dc80fb09ce93da",
      "blockHash": "0xeb6bff2263a5118e4af2605861fa9c333c11daa4e7a4619375f2945298725a04",
      "blockNumber": 68501,
      "transactionIndex": 9,
      "confirmations": null,
      "from": "0x835358639D25707FC1C956B234368e6B84A1D73E",
      "gasPrice": {
        "_hex": "0xba43b7400"
      },
      "gasLimit": {
        "_hex": "0x5208"
      },
      "to": "0x16EAF5D034f3c17f6FCC588636E0b313c4F297AD",
      "value": {
        "_hex": "0x937bda828f9000"
      },
      "nonce": 1,
      "data": "0x",
      "r": "0x7cdb21646153d63ae5d6f2f4b0d614c8ce13885a98542cff8714db0089d66445",
      "s": "0x177c745a626849d42cce74c08947a333714552feffdcdec4cc5f574fb69ca5e0",
      "v": 28,
      "creates": null,
      "raw": "0xf86b01850ba43b74008252089416eaf5d034f3c17f6fcc588636e0b313c4f297ad87937bda828f9000801ca07cdb21646153d63ae5d6f2f4b0d614c8ce13885a98542cff8714db0089d66445a0177c745a626849d42cce74c08947a333714552feffdcdec4cc5f574fb69ca5e0",
      "networkId": 0,
      "chainId": 0
    },
    {
      "hash": "0xe6d3cb58199a9ca7ef0d9d8161c111d75f26cdabc70e737ba62ac2579bf421cd",
      "blockHash": "0xeb6bff2263a5118e4af2605861fa9c333c11daa4e7a4619375f2945298725a04",
      "blockNumber": 68501,
      "transactionIndex": 10,
      "confirmations": null,
      "from": "0x6747f922385c9a6F9cfDf095F34345257DD597bE",
      "gasPrice": {
        "_hex": "0xba43b7400"
      },
      "gasLimit": {
        "_hex": "0x5208"
      },
      "to": "0x3de7d5d49D236c03de0C03df886784a71712CC11",
      "value": {
        "_hex": "0x1fcbfa42bd6000"
      },
      "nonce": 113,
      "data": "0x",
      "r": "0x64a86289b914d23f2c45ae53f17698ed058f533a83ac05aafeb67b81ef95c0e7",
      "s": "0x53851bf7e9f67c9ee505f35ad9bfe86e2b470ffd3c4469e1311c7c88511f85a3",
      "v": 27,
      "creates": null,
      "raw": "0xf86b71850ba43b7400825208943de7d5d49d236c03de0c03df886784a71712cc11871fcbfa42bd6000801ba064a86289b914d23f2c45ae53f17698ed058f533a83ac05aafeb67b81ef95c0e7a053851bf7e9f67c9ee505f35ad9bfe86e2b470ffd3c4469e1311c7c88511f85a3",
      "networkId": 0,
      "chainId": 0
    },
    {
      "hash": "0xa4309acc31df9d814442ce033cc2bb6ec37a3861142146261278805608eb4e89",
      "blockHash": "0xeb6bff2263a5118e4af2605861fa9c333c11daa4e7a4619375f2945298725a04",
      "blockNumber": 68501,
      "transactionIndex": 11,
      "confirmations": null,
      "from": "0x1eBE6170Dd18E865a74a13eadb89e3F21E2D774e",
      "gasPrice": {
        "_hex": "0xba43b7400"
      },
      "gasLimit": {
        "_hex": "0x5208"
      },
      "to": "0x693d930F8e9796aBB6c5c1F3123b8c0f14332C4E",
      "value": {
        "_hex": "0x937bda828f9000"
      },
      "nonce": 1,
      "data": "0x",
      "r": "0x402254e72570b6331a51047371da6f94b20dab3393995d51da3333515e938bc3",
      "s": "0x3eaff4d7f6a5e9b7a74beb75113e50d00a3308259cec906014b0eda1573ca47d",
      "v": 28,
      "creates": null,
      "raw": "0xf86b01850ba43b740082520894693d930f8e9796abb6c5c1f3123b8c0f14332c4e87937bda828f9000801ca0402254e72570b6331a51047371da6f94b20dab3393995d51da3333515e938bc3a03eaff4d7f6a5e9b7a74beb75113e50d00a3308259cec906014b0eda1573ca47d",
      "networkId": 0,
      "chainId": 0
    },
    {
      "hash": "0x94533b8b3485d0951994759a8eceb26f78fde38b8052d6731fd261aead9c6164",
      "blockHash": "0xeb6bff2263a5118e4af2605861fa9c333c11daa4e7a4619375f2945298725a04",
      "blockNumber": 68501,
      "transactionIndex": 12,
      "confirmations": null,
      "from": "0x9155044B423550B75dEc825d4907f165604EcD96",
      "gasPrice": {
        "_hex": "0xba43b7400"
      },
      "gasLimit": {
        "_hex": "0x5208"
      },
      "to": "0x408d29220b2dF46090F23ab1EFf61a3e7eD1dD24",
      "value": {
        "_hex": "0x937bda828f9000"
      },
      "nonce": 1,
      "data": "0x",
      "r": "0x68939665ab1e64696420010dae282ee0bd5f857b2358332534dd3244571fc6a6",
      "s": "0x33a67fd7fcdf84ed0134e89f15e0bd626b3d3dcaa73c7ff0bfbf1dffae87549a",
      "v": 28,
      "creates": null,
      "raw": "0xf86b01850ba43b740082520894408d29220b2df46090f23ab1eff61a3e7ed1dd2487937bda828f9000801ca068939665ab1e64696420010dae282ee0bd5f857b2358332534dd3244571fc6a6a033a67fd7fcdf84ed0134e89f15e0bd626b3d3dcaa73c7ff0bfbf1dffae87549a",
      "networkId": 0,
      "chainId": 0
    },
    {
      "hash": "0xefbc5faad461ea4074a4cd4969f280f00c3182477f23c45793c9ca8531667abf",
      "blockHash": "0xeb6bff2263a5118e4af2605861fa9c333c11daa4e7a4619375f2945298725a04",
      "blockNumber": 68501,
      "transactionIndex": 13,
      "confirmations": null,
      "from": "0x4a17DA8eD09F59309A0749645A9dCcaDE7a7616F",
      "gasPrice": {
        "_hex": "0xba43b7400"
      },
      "gasLimit": {
        "_hex": "0x5208"
      },
      "to": "0x10cAF5dF0dA6d9d3b87fC7a479cA360369aBcE5b",
      "value": {
        "_hex": "0x937bda828f9000"
      },
      "nonce": 1,
      "data": "0x",
      "r": "0xf30afbb321f6fdd3b8fe832209551ea85b919f98d7b2418654213fcbf6f31c1f",
      "s": "0x509f10641a57c4902077e63099cbd6ce883475a983d95a82b7212a2d540ea90a",
      "v": 27,
      "creates": null,
      "raw": "0xf86b01850ba43b74008252089410caf5df0da6d9d3b87fc7a479ca360369abce5b87937bda828f9000801ba0f30afbb321f6fdd3b8fe832209551ea85b919f98d7b2418654213fcbf6f31c1fa0509f10641a57c4902077e63099cbd6ce883475a983d95a82b7212a2d540ea90a",
      "networkId": 0,
      "chainId": 0
    },
    {
      "hash": "0x881f1e70850066e7e69b7f7fc5d6614d51264e64868ca4e3e8e25767353aaf33",
      "blockHash": "0xeb6bff2263a5118e4af2605861fa9c333c11daa4e7a4619375f2945298725a04",
      "blockNumber": 68501,
      "transactionIndex": 14,
      "confirmations": null,
      "from": "0x8c0A7EcC685daE69b125a6Afdd33726299728fAD",
      "gasPrice": {
        "_hex": "0xba43b7400"
      },
      "gasLimit": {
        "_hex": "0x5208"
      },
      "to": "0xE2AAE26A1263Fd248aBAF160690889157Dbcc689",
      "value": {
        "_hex": "0x937bda828f9000"
      },
      "nonce": 1,
      "data": "0x",
      "r": "0xd8f9811993bc5fee08bc1c65e33d8f7023cc84bb531948e0639b60384f03cff3",
      "s": "0x0431facc5bc9511006b162b68256e1f37601bf0a5fc94345248c2020a9582d85",
      "v": 28,
      "creates": null,
      "raw": "0xf86b01850ba43b740082520894e2aae26a1263fd248abaf160690889157dbcc68987937bda828f9000801ca0d8f9811993bc5fee08bc1c65e33d8f7023cc84bb531948e0639b60384f03cff3a00431facc5bc9511006b162b68256e1f37601bf0a5fc94345248c2020a9582d85",
      "networkId": 0,
      "chainId": 0
    },
    {
      "hash": "0x5437ced1ec3b71147cb5428dea48a0c5eb4982b9f882aa6b3b1e715f6f51e0e8",
      "blockHash": "0xeb6bff2263a5118e4af2605861fa9c333c11daa4e7a4619375f2945298725a04",
      "blockNumber": 68501,
      "transactionIndex": 15,
      "confirmations": null,
      "from": "0x9bFAB56856DBf8EC5A00C61D9B0664543A5573e7",
      "gasPrice": {
        "_hex": "0xba43b7400"
      },
      "gasLimit": {
        "_hex": "0x5208"
      },
      "to": "0x47213dE9efcAFb94A4c80EBf832363Fc604B697e",
      "value": {
        "_hex": "0x937bda828f9000"
      },
      "nonce": 1,
      "data": "0x",
      "r": "0x621a58a9f1ab5c3f47d4f88e77802249864c6e6864f508d5de50bc0d915580f7",
      "s": "0x17e489a4b763ace874701628f4a0753ea80974cbea54a757b6789253a822b603",
      "v": 28,
      "creates": null,
      "raw": "0xf86b01850ba43b74008252089447213de9efcafb94a4c80ebf832363fc604b697e87937bda828f9000801ca0621a58a9f1ab5c3f47d4f88e77802249864c6e6864f508d5de50bc0d915580f7a017e489a4b763ace874701628f4a0753ea80974cbea54a757b6789253a822b603",
      "networkId": 0,
      "chainId": 0
    }
  ]
}