{
  "hash": "0x363a9c52d79e7f5766cd1caf974e53a981297e95157aef5ca4f72ad56d1b9cf8",
  "parentHash": "0xe4f32692de44fed78530c3939b30e46904cfa980f50b99dea6f0d9087ac68e05",
  "number": 106401,
  "timestamp": 1439903554,
  "nonce": "0x2956b62f03a8b836",
  "difficulty": 4490269399908,
  "gasLimit": {
    "_hex": "0x2fefd8"
  },
  "gasUsed": {
    "_hex": "0x5208"
  },
  "miner": "0x580992B51e3925e23280EfB93d3047C82f17E038",
  "extraData": "0x476574682f76312e302e312f6c696e75782f676f312e342e32",
  "transactions": [
    {
      "hash": "0xd78a56d6b634aa6e99dc484cf1024a7336382bb055ca0fa1d3537f36110ef7dd",
      "blockHash": "0x363a9c52d79e7f5766cd1caf974e53a981297e95157aef5ca4f72ad56d1b9cf8",
      "blockNumber": 106401,
      "transactionIndex": 0,
      "confirmations": null,
      "from": "0x95A466C2ba3A392003E9ef63F4442236C6E1B40E",
      "gasPrice": {
        "_hex": "0xcc4f9ab81"
      },
      "gasLimit": {
        "_hex": "0x5208"
      },
      "to": "0x32Be343B94f860124dC4fEe278FDCBD38C102D88",
      "value": {
        "_hex": "0x4f166c70c0292400"
      },
      "nonce": 4,
      "data": "0x",
      "r": "0x68c514ef71ab72d53b8d9d3a1130400fe22247a1d89729cabe576068b6d4e714",
      "s": "0x76e7b1e0c54530acf0a36f61ad73e0076dd7a48a4fbb1f7fc80f8a4adeb713ab",
      "v": 28,
      "creates": null,
      "raw": "0xf86c04850cc4f9ab818252089432be343b94f860124dc4fee278fdcbd38c102d88884f166c70c0292400801ca068c514ef71ab72d53b8d9d3a1130400fe22247a1d89729cabe576068b6d4e714a076e7b1e0c54530acf0a36f61ad73e0076dd7a48a4fbb1f7fc80f8a4adeb713ab",
      "networkId": 0,
      "chainId": 0
    }
  ]
}