{
  "hash": "0xeaad3de10f64bcf4d10813281065c6b4df0562ea5df842b172c7d30c67bf4699",
  "parentHash": "0x2895e6c21a460a3014442f760969f1b2762b4ea06a37b7a273288f48a3d49812",
  "number": 50961,
  "timestamp": 1438997205,
  "nonce": "0xca73f3acb68ee7c5",
  "difficulty": 1551443273183,
  "gasLimit": {
    "_hex": "0x8656f"
  },
  "gasUsed": {
    "_hex": "0x5208"
  },
  "miner": "0x29Ab575850dCEf127cd8D646fB3c208b3860C2F0",
  "extraData": "0x476574682f76312e302e312f6c696e75782f676f312e342e32",
  "transactions": [
    {
      "hash": "0x8d93376d570f2fa708492b8db01cf7368a57ecc21f1bab4a075105e240fa5d29",
      "blockHash": "0xeaad3de10f64bcf4d10813281065c6b4df0562ea5df842b172c7d30c67bf4699",
      "blockNumber": 50961,
      "transactionIndex": 0,
      "confirmations": null,
      "from": "0x3F3F51FA40eC00Cd81D0898bF65F7F07b4cd146A",
      "gasPrice": {
        "_hex": "0xd006e3b89"
      },
      "gasLimit": {
        "_hex": "0x5208"
      },
      "to": "0x32Be343B94f860124dC4fEe278FDCBD38C102D88",
      "value": {
        "_hex": "0x13b93fa16f33000"
      },
      "nonce": 1,
      "data": "0x",
      "r": "0x4d3e9360d5234e4e0c2f0d9e63df5566247ed9dab8c282ef441c88facd1558c6",
      "s": "0x57837924d5df2e3558dc2e4c223a6c2ae391a0769bacb38747aeb97568819c45",
      "v": 27,
      "creates": null,
      "raw": "0xf86c01850d006e3b898252089432be343b94f860124dc4fee278fdcbd38c102d8888013b93fa16f33000801ba04d3e9360d5234e4e0c2f0d9e63df5566247ed9dab8c282ef441c88facd1558c6a057837924d5df2e3558dc2e4c223a6c2ae391a0769bacb38747aeb97568819c45",
      "networkId": 0,
      "chainId": 0
    }
  ]
}