{
  "hash": "0x73d6de9f595975c25d12922125d85624b370129cbf99f98fe8e7cc3af343b687",
  "parentHash": "0x11bbdd3a2c7d39b0a61c2c50bb2e940f7821ceb01c7971d3333316027082cb3c",
  "number": 71418,
  "timestamp": 1439335722,
  "nonce": "0x8707815782b1fd42",
  "difficulty": 2175109558700,
  "gasLimit": {
    "_hex": "0x2fefd8"
  },
  "gasUsed": {
    "_hex": "0xae73"
  },
  "miner": "0xe6A7a1d47ff21B6321162AEA7C6CB457D5476Bca",
  "extraData": "0x476574682f76312e302e312d38326566323666362f6c696e75782f676f312e34",
  "transactions": [
    {
      "hash": "0x4e6b217ca95cda7c4da553feda97635aba6437d7cb69507306fe2ddea1d652dd",
      "blockHash": "0x73d6de9f595975c25d12922125d85624b370129cbf99f98fe8e7cc3af343b687",
      "blockNumber": 71418,
      "transactionIndex": 0,
      "confirmations": null,
      "from": "0x17580B766f7453525ca4C6A88b01b50570EA088C",
      "gasPrice": {
        "_hex": "0xe220666e6"
      },
      "gasLimit": {
        "_hex": "0x61a80"
      },
      "to": "0x5Fe5B7546D1628f7348B023A0393de1FC825A4fD",
      "value": {
        "_hex": "0x1bc16d674ec80000"
      },
      "nonce": 182,
      "data": "0xb595b8b50000000000000000000000000000000000000000000000000000000000000000",
      "r": "0xb1aac4927ed52ef45945e4b69f17a04132da78bee15c021bb6876cea53020d2f",
      "s": "0x62773e38f08c57ca95f418f75b5e823e4acb1c18f35f98418e8789bbf615b286",
      "v": 27,
      "creates": null,
      "raw": "0xf89281b6850e220666e683061a80945fe5b7546d1628f7348b023a0393de1fc825a4fd881bc16d674ec80000a4b595b8b500000000000000000000000000000000000000000000000000000000000000001ba0b1aac4927ed52ef45945e4b69f17a04132da78bee15c021bb6876cea53020d2fa062773e38f08c57ca95f418f75b5e823e4acb1c18f35f98418e8789bbf615b286",
      "networkId": 0,
      "chainId": 0
    }
  ]
}