{
  "hash": "0x676c1eabbf3919612607b9c2370f78151735e43ae74f63259525c29aea971a5b",
  "parentHash": "0xe3ffeb2e6cbcb66104db41a9c53902603f76a6e5275aa52631bab0bd23ae54f4",
  "number": 94771,
  "timestamp": 1439713925,
  "nonce": "0xd3092381727a0a1b",
  "difficulty": 3484819576578,
  "gasLimit": {
    "_hex": "0x2fefd8"
  },
  "gasUsed": {
    "_hex": "0xf618"
  },
  "miner": "0x007f7f58D3eb5b7510A301eCC749FC1fCDDBE14D",
  "extraData": "0x476574682f76312e302e312f77696e646f77732f676f312e342e32",
  "transactions": [
    {
      "hash": "0x529b2e3e940578b141c4a7015181b4790b6e85ef9016294b4a4ff472ee5b8507",
      "blockHash": "0x676c1eabbf3919612607b9c2370f78151735e43ae74f63259525c29aea971a5b",
      "blockNumber": 94771,
      "transactionIndex": 0,
      "confirmations": null,
      "from": "0x2cf4364bc4C7C3333aB9963C4B3473664f42D83A",
      "gasPrice": {
        "_hex": "0xd6606e2ce"
      },
      "gasLimit": {
        "_hex": "0x5208"
      },
      "to": "0x32Be343B94f860124dC4fEe278FDCBD38C102D88",
      "value": {
        "_hex": "0x115746e9dd6f87000"
      },
      "nonce": 2,
      "data": "0x",
      "r": "0xd8895ae31aa47415d1924b73bb15c31f3dfb54d924d1c48ba984c1b6d7f5c1c6",
      "s": "0x53e978640e58ccc953d76fd90e959205286cc2801e66e2b303fb522aa59e4686",
      "v": 28,
      "creates": null,
      "raw": "0xf86d02850d6606e2ce8252089432be343b94f860124dc4fee278fdcbd38c102d88890115746e9dd6f87000801ca0d8895ae31aa47415d1924b73bb15c31f3dfb54d924d1c48ba984c1b6d7f5c1c6a053e978640e58ccc953d76fd90e959205286cc2801e66e2b303fb522aa59e4686",
      "networkId": 0,
      "chainId": 0
    },
    {
      "hash": "0x742f57e58fb818cb2011721529c431a5288098c260384eb6608dfc20eb3a4313",
      "blockHash": "0x676c1eabbf3919612607b9c2370f78151735e43ae74f63259525c29aea971a5b",
      "blockNumber": 94771,
      "transactionIndex": 1,
      "confirmations": null,
      "from": "0xe6F63A7e7F8dc774F8E3504c9b0c5458D7E28ED8",
      "gasPrice": {
        "_hex": "0xd6606e2ce"
      },
      "gasLimit": {
        "_hex": "0x5208"
      },
      "to": "0x32Be343B94f860124dC4fEe278FDCBD38C102D88",
      "value": {
        "_hex": "0x8ba530f4b53bf000"
      },
      "nonce": 1,
      "data": "0x",
      "r": "0x48cd6812f54e1a886e2dfd80ace7285782316b3e2a4b44db2434ddde15411e4c",
      "s": "0x1fa5bc0ed635f36ffc303de4d2c69ae4b33779976ceb9f2e98ba4313348ee724",
      "v": 28,
      "creates": null,
      "raw": "0xf86c01850d6606e2ce8252089432be343b94f860124dc4fee278fdcbd38c102d88888ba530f4b53bf000801ca048cd6812f54e1a886e2dfd80ace7285782316b3e2a4b44db2434ddde15411e4ca01fa5bc0ed635f36ffc303de4d2c69ae4b33779976ceb9f2e98ba4313348ee724",
      "networkId": 0,
      "chainId": 0
    },
    {
      "hash": "0x2415b44cb6e49a44e2d071a3ca02c44c2b2744c633b2d6dae6bdc4057f71a2d6",
      "blockHash": "0x676c1eabbf3919612607b9c2370f78151735e43ae74f63259525c29aea971a5b",
      "blockNumber": 94771,
      "transactionIndex": 2,
      "confirmations": null,
      "from": "0x02dE7d35a60bf6A216411476040ec648668769D7",
      "gasPrice": {
        "_hex": "0xd01198da9"
      },
      "gasLimit": {
        "_hex": "0x15f90"
      },
      "to": "0x1f3EDc0Ca76d024aDa0fCd867C53B681FfB55E31",
      "value": {
        "_hex": "0x147416defa9ae20000"
      },
      "nonce": 1,
      "data": "0x",
      "r": "0xe02a7b1a95c864008413be05bbc942f0230ce6f7d4b8b77036746588475d217d",
      "s": "0x107fadee5e1022920411f79eb3ee3023f0e8c65de553df44b518220bd76017fb",
      "v": 27,
      "creates": null,
      "raw": "0xf86e01850d01198da983015f90941f3edc0ca76d024ada0fcd867c53b681ffb55e3189147416defa9ae20000801ba0e02a7b1a95c864008413be05bbc942f0230ce6f7d4b8b77036746588475d217da0107fadee5e1022920411f79eb3ee3023f0e8c65de553df44b518220bd76017fb",
      "networkId": 0,
      "chainId": 0
    }
  ]
}