{
  "hash": "0x2f80a389f8750d3eed7fee420d2f48860521791a6e09413cbaf58647d91be550",
  "parentHash": "0x49010f9a8decfbb0af5be9e06295d391631d04ddd0e64c85ba5ecafe468e877d",
  "number": 81106,
  "timestamp": 1439496330,
  "nonce": "0xe9cd4da0e2be98f6",
  "difficulty": 2440334407117,
  "gasLimit": {
    "_hex": "0x2fefd8"
  },
  "gasUsed": {
    "_hex": "0x5208"
  },
  "miner": "0xe6A7a1d47ff21B6321162AEA7C6CB457D5476Bca",
  "extraData": "0x476574682f76312e302e312d38326566323666362f6c696e75782f676f312e34",
  "transactions": [
    {
      "hash": "0x049e5e67cab1e724aa52b55191024d5b89d2081ac1f21237e77b3761544f9820",
      "blockHash": "0x2f80a389f8750d3eed7fee420d2f48860521791a6e09413cbaf58647d91be550",
      "blockNumber": 81106,
      "transactionIndex": 0,
      "confirmations": null,
      "from": "0x496F5843F6D24cd98D255e4c23d1E1F023227545",
      "gasPrice": {
        "_hex": "0x746a528800"
      },
      "gasLimit": {
        "_hex": "0x5266"
      },
      "to": "0x117D2945355d346cE6637d6D5CC9A9E46CB43B73",
      "value": {
        "_hex": "0x3635c9adc5dea00000"
      },
      "nonce": 1,
      "data": "0x",
      "r": "0xf1fc4cb0bcb03e91972ebceed499f5227a748ad7ee05ad7a82cbf54812db2639",
      "s": "0x54a7884343fc3b368628d227e3c848dee00bd03e0ba20aeba589e682c31897cb",
      "v": 28,
      "creates": null,
      "raw": "0xf86d0185746a52880082526694117d2945355d346ce6637d6d5cc9a9e46cb43b73893635c9adc5dea00000801ca0f1fc4cb0bcb03e91972ebceed499f5227a748ad7ee05ad7a82cbf54812db2639a054a7884343fc3b368628d227e3c848dee00bd03e0ba20aeba589e682c31897cb",
      "networkId": 0,
      "chainId": 0
    }
  ]
}