{
  "hash": "0x5cb7a0f81586e5b0a8beb05bfd0e6e73dcaa4cd91c9cb0448fcc904a3b544268",
  "parentHash": "0xe3624a3d7b24b21cdce317754d3c9ed19c8e94d01859e78ba5f8c5a6a4c87063",
  "number": 79580,
  "timestamp": 1439471976,
  "nonce": "0xca604b5d4ff9c390",
  "difficulty": 2340406903390,
  "gasLimit": {
    "_hex": "0x2fefd8"
  },
  "gasUsed": {
    "_hex": "0x5208"
  },
  "miner": "0xf8E0CA3Ed80bd541b94BEdCf259e8CF2141A9523",
  "extraData": "0x476574682f76312e302e312f77696e646f77732f676f312e342e32",
  "transactions": [
    {
      "hash": "0x3c11de86bf449d8a28053d8569de59bb878d87b38612c2d0a61b007728ace03b",
      "blockHash": "0x5cb7a0f81586e5b0a8beb05bfd0e6e73dcaa4cd91c9cb0448fcc904a3b544268",
      "blockNumber": 79580,
      "transactionIndex": 0,
      "confirmations": null,
      "from": "0x1fD9a6Cd56f72c125F5d08c22454Caf30303Fd1C",
      "gasPrice": {
        "_hex": "0xd7d40ace3"
      },
      "gasLimit": {
        "_hex": "0x15f90"
      },
      "to": "0xb1A2a1e9b8AC33fdcB2118b73A875b096AEd24aD",
      "value": {
        "_hex": "0x45400a8fd5330000"
      },
      "nonce": 0,
      "data": "0x",
      "r": "0xbca658afc30c15f218d3b06ffd3165503658d152dfce72c983d456467636807e",
      "s": "0x41150598dcb8acd7decbaf1a455ff09fdc53bfaccff1abddaa7da17633f234bc",
      "v": 27,
      "creates": null,
      "raw": "0xf86d80850d7d40ace383015f9094b1a2a1e9b8ac33fdcb2118b73a875b096aed24ad8845400a8fd5330000801ba0bca658afc30c15f218d3b06ffd3165503658d152dfce72c983d456467636807ea041150598dcb8acd7decbaf1a455ff09fdc53bfaccff1abddaa7da17633f234bc",
      "networkId": 0,
      "chainId": 0
    }
  ]
}