{
  "hash": "0x1c4638a25f02adee157888a192433895eabe4ad552cccac4cb3d6abb41f852df",
  "parentHash": "0x3876e0e5a225c7174569863d926d274380caa00097030663336e8ad687a248a4",
  "number": 86230,
  "timestamp": 1439575526,
  "nonce": "0x7c6fdad38751e849",
  "difficulty": 2820832566015,
  "gasLimit": {
    "_hex": "0x2fefd8"
  },
  "gasUsed": {
    "_hex": "0x5208"
  },
  "miner": "0xe6A7a1d47ff21B6321162AEA7C6CB457D5476Bca",
  "extraData": "0x476574682f76312e302e312d38326566323666362f6c696e75782f676f312e34",
  "transactions": [
    {
      "hash": "0xe417e3f69abcc5c04ce41b8092185ebcdab157e718dca76187b38cdfd9902ec0",
      "blockHash": "0x1c4638a25f02adee157888a192433895eabe4ad552cccac4cb3d6abb41f852df",
      "blockNumber": 86230,
      "transactionIndex": 0,
      "confirmations": null,
      "from": "0x2910543Af39abA0Cd09dBb2D50200b3E800A63D2",
      "gasPrice": {
        "_hex": "0xdcf72ead3"
      },
      "gasLimit": {
        "_hex": "0x5208"
      },
      "to": "0x012f396A2B5eB83559BaC515E5210df2C8C362BA",
      "value": {
        "_hex": "0x15ae0141220e38000"
      },
      "nonce": 654,
      "data": "0x",
      "r": "0x5450709e90d08ea544fa2dff06d088b22ccb60ba4d56faff19478b9d1770f962",
      "s": "0x56280945460aa22b457fe4227c26e085a1100162141fd796cce6ab38b4de9514",
      "v": 28,
      "creates": null,
      "raw": "0xf86f82028e850dcf72ead382520894012f396a2b5eb83559bac515e5210df2c8c362ba89015ae0141220e38000801ca05450709e90d08ea544fa2dff06d088b22ccb60ba4d56faff19478b9d1770f962a056280945460aa22b457fe4227c26e085a1100162141fd796cce6ab38b4de9514",
      "networkId": 0,
      "chainId": 0
    }
  ]
}