{
  "hash": "0x5155b351025f7d2810f15523b2f1f8dfd419c2c082d94e8c35018f0ef22132c1",
  "parentHash": "0x840f217c43cc8a21d7328197c9ebb29bd6b590431306e063b2800988ca9fca84",
  "number": 121712,
  "timestamp": 1440181307,
  "nonce": "0xa6eff687ea7f1d49",
  "difficulty": 4493037124212,
  "gasLimit": {
    "_hex": "0x2fefd8"
  },
  "gasUsed": {
    "_hex": "0xa410"
  },
  "miner": "0x9D551f41feD6FC27B719777c224DfeCcE170004d",
  "extraData": "0x476574682f76312e302e322d61303330336666342f6c696e75782f676f312e34",
  "transactions": [
    {
      "hash": "0x4d1acef979fb1ecdeb0c319c9b658177bc147c1bd51feac157edc55534d173f7",
      "blockHash": "0x5155b351025f7d2810f15523b2f1f8dfd419c2c082d94e8c35018f0ef22132c1",
      "blockNumber": 121712,
      "transactionIndex": 0,
      "confirmations": null,
      "from": "0x295f7067f6e4182a32a4eFF344Af3daADFdE10E5",
      "gasPrice": {
        "_hex": "0xd38f32047"
      },
      "gasLimit": {
        "_hex": "0x5208"
      },
      "to": "0x32Be343B94f860124dC4fEe278FDCBD38C102D88",
      "value": {
        "_hex": "0x125d82116d3469000"
      },
      "nonce": 5,
      "data": "0x",
      "r": "0x42aeba897ca63fe6aaa25c7730519e382d254987bdd7f1a062e4355938899661",
      "s": "0x121db5abb194e5e8042b5beeab37bbbe15a298b45a3ae3d12938e5539718f9a3",
      "v": 27,
      "creates": null,
      "raw": "0xf86d05850d38f320478252089432be343b94f860124dc4fee278fdcbd38c102d88890125d82116d3469000801ba042aeba897ca63fe6aaa25c7730519e382d254987bdd7f1a062e4355938899661a0121db5abb194e5e8042b5beeab37bbbe15a298b45a3ae3d12938e5539718f9a3",
      "networkId": 0,
      "chainId": 0
    },
    {
      "hash": "0xb3d1ea8df0f96004da2b7bbf961e000610958681ba8bd9400e0e222544d8d095",
      "blockHash": "0x5155b351025f7d2810f15523b2f1f8dfd419c2c082d94e8c35018f0ef22132c1",
      "blockNumber": 121712,
      "transactionIndex": 1,
      "confirmations": null,
      "from": "0x494E9242DCB2A208fF82E5E639a15b4B4623AA57",
      "gasPrice": {
        "_hex": "0xd38f32047"
      },
      "gasLimit": {
        "_hex": "0x5208"
      },
      "to": "0x32Be343B94f860124dC4fEe278FDCBD38C102D88",
      "value": {
        "_hex": "0x5716ff80c8ac58000"
      },
      "nonce": 3,
      "data": "0x",
      "r": "0xff357224bbecc31bf32400ac101d46adfd8224234420aabecc2398ca628cafe9",
      "s": "0x52a0d309007d31c3e49789f1ebcb8ce7e5b3547c4175d1f721a6ecec211edb2d",
      "v": 28,
      "creates": null,
      "raw": "0xf86d03850d38f320478252089432be343b94f860124dc4fee278fdcbd38c102d888905716ff80c8ac58000801ca0ff357224bbecc31bf32400ac101d46adfd8224234420aabecc2398ca628cafe9a052a0d309007d31c3e49789f1ebcb8ce7e5b3547c4175d1f721a6ecec211edb2d",
      "networkId": 0,
      "chainId": 0
    }
  ]
}