{
  "hash": "0x96a04629f0f384732a60e6d499c82a53973aa797994da02d6ccb9867c487ebc1",
  "parentHash": "0xa3ebc37dcae98161d620e091dc843960f8e305266b85d980c048f51a725c9405",
  "number": 79824,
  "timestamp": 1439475759,
  "nonce": "0x6dac5f2394828270",
  "difficulty": 2351794209875,
  "gasLimit": {
    "_hex": "0x2fefd8"
  },
  "gasUsed": {
    "_hex": "0x1b4ad"
  },
  "miner": "0xF2d2AfF1320476cb8C6b607199D23175cc595693",
  "extraData": "0x476574682f76312e302e312f77696e646f77732f676f312e342e32",
  "transactions": [
    {
      "hash": "0x7681c6d1fc48ccf31d894df4c46d90017da6a4f2bc55fa9cc9d1213efde0a34f",
      "blockHash": "0x96a04629f0f384732a60e6d499c82a53973aa797994da02d6ccb9867c487ebc1",
      "blockNumber": 79824,
      "transactionIndex": 0,
      "confirmations": null,
      "from": "0x87C5B5874A18B4306DF8a752a6C8cc3E82daFc19",
      "gasPrice": {
        "_hex": "0x1044cd5622f"
      },
      "gasLimit": {
        "_hex": "0x493e0"
      },
      "to": "0xC4c51de1AbF5D60DBd329eC0F999Fd8f021ae9fC",
      "value": {
        "_hex": "0x14d1120d7b1600000"
      },
      "nonce": 109,
      "data": "0x8d21618600000000000000000000000000000000000000000000000000000000000000808d5adaad541502933bfca57b79fdcf7b21a9ea7dbcf2e9321d253f5db02ac8f3",
      "r": "0x83766d8ee39a75204a85aa3bc3fd59067e5905968c1ecc1a8ac4a92252e8f710",
      "s": "0x79b4a744a1a558f64e9fdb86e0e7599a9f74beb9bc0d5622561c219f77867d28",
      "v": 28,
      "creates": null,
      "raw": "0xf8b46d8601044cd5622f830493e094c4c51de1abf5d60dbd329ec0f999fd8f021ae9fc89014d1120d7b1600000b8448d21618600000000000000000000000000000000000000000000000000000000000000808d5adaad541502933bfca57b79fdcf7b21a9ea7dbcf2e9321d253f5db02ac8f31ca083766d8ee39a75204a85aa3bc3fd59067e5905968c1ecc1a8ac4a92252e8f710a079b4a744a1a558f64e9fdb86e0e7599a9f74beb9bc0d5622561c219f77867d28",
      "networkId": 0,
      "chainId": 0
    }
  ]
}