{
  "hash": "0xb3c5407378c0101505b3fce3f95efcc7cf13d6bfc40127aaf512c9f27db26717",
  "parentHash": "0xd48e2af2e678c0b2acbc49285407b4a3c1b8a281c61f02ee294bff93008a30f8",
  "number": 106787,
  "timestamp": 1439910601,
  "nonce": "0xe5f1c6bc63276b10",
  "difficulty": 4429092939641,
  "gasLimit": {
    "_hex": "0x2fefd8"
  },
  "gasUsed": {
    "_hex": "0x5208"
  },
  "miner": "0x623d2411c3bb3340784155F9a688b0085251aB5c",
  "extraData": "0x",
  "transactions": [
    {
      "hash": "0x9edfd8356d4eef16b073d5b53b262c67e6d42b824de532e20cb0eaa0f32da2c9",
      "blockHash": "0xb3c5407378c0101505b3fce3f95efcc7cf13d6bfc40127aaf512c9f27db26717",
      "blockNumber": 106787,
      "transactionIndex": 0,
      "confirmations": null,
      "from": "0x7e8504a5e26df87f6D26fA1ba148BE146F42775A",
      "gasPrice": {
        "_hex": "0xdb21956d2"
      },
      "gasLimit": {
        "_hex": "0x15f90"
      },
      "to": "0x9f78552704fe7e52cC7C3853534aA2C3cf580D54",
      "value": {
        "_hex": "0x1236efcbcbb340000"
      },
      "nonce": 3,
      "data": "0x",
      "r": "0x7181cf33da9f14b338c00e8440064573ba75f0b716983070994453caf95b375a",
      "s": "0x469556d148944088ca715390581c8b4e8a1ac23f062dce90cd03f5086d2a7a3a",
      "v": 27,
      "creates": null,
      "raw": "0xf86e03850db21956d283015f90949f78552704fe7e52cc7c3853534aa2c3cf580d548901236efcbcbb340000801ba07181cf33da9f14b338c00e8440064573ba75f0b716983070994453caf95b375aa0469556d148944088ca715390581c8b4e8a1ac23f062dce90cd03f5086d2a7a3a",
      "networkId": 0,
      "chainId": 0
    }
  ]
}