{
  "hash": "0xd70531732cd10c9250fd2b45f447c34e8b7820d99e83de79c061ee20a1c52f7c",
  "parentHash": "0x3cd1c848e547a59b05b9bc016946a1fccb46e6b05f29a066e3e091569a8e1bc1",
  "number": 98274,
  "timestamp": 1439769860,
  "nonce": "0xd9e86f8a2feffc32",
  "difficulty": 3880285937087,
  "gasLimit": {
    "_hex": "0x2fefd8"
  },
  "gasUsed": {
    "_hex": "0xa410"
  },
  "miner": "0xe64D681b0eBCa2997D5f35e72EbC7777973299D7",
  "extraData": "0x",
  "transactions": [
    {
      "hash": "0xe75e0802cd7765609525415bf4177f87be7135ca1e40a6ec364c01315a5070b5",
      "blockHash": "0xd70531732cd10c9250fd2b45f447c34e8b7820d99e83de79c061ee20a1c52f7c",
      "blockNumber": 98274,
      "transactionIndex": 0,
      "confirmations": null,
      "from": "0xA10C59651885FeAaac91F871082a23BBbaBeDfCf",
      "gasPrice": {
        "_hex": "0x1082d25984f"
      },
      "gasLimit": {
        "_hex": "0x5208"
      },
      "to": "0x4c74B6F32c9680aCB5Fe0e72B7Aa95C612540A04",
      "value": {
        "_hex": "0x19274b259f6540000"
      },
      "nonce": 35,
      "data": "0x",
      "r": "0xecb927edfd28ee16d803a9270067ea88d6c53fc28ce1b902df47f424be7a48ab",
      "s": "0x22adda56c5e09358abe93bfd1302dcf3293b466d53917617f7c92828ef84fdd0",
      "v": 28,
      "creates": null,
      "raw": "0xf86e238601082d25984f825208944c74b6f32c9680acb5fe0e72b7aa95c612540a0489019274b259f6540000801ca0ecb927edfd28ee16d803a9270067ea88d6c53fc28ce1b902df47f424be7a48aba022adda56c5e09358abe93bfd1302dcf3293b466d53917617f7c92828ef84fdd0",
      "networkId": 0,
      "chainId": 0
    },
    {
      "hash": "0x50467bbddf605ea3111542dc3ade22dc9f95ec0a26e190be3d21e6f5019581e1",
      "blockHash": "0xd70531732cd10c9250fd2b45f447c34e8b7820d99e83de79c061ee20a1c52f7c",
      "blockNumber": 98274,
      "transactionIndex": 1,
      "confirmations": null,
      "from": "0x0Bce1f08Ac26719f94701275c8cAfF71f7D27AAC",
      "gasPrice": {
        "_hex": "0xd7121bd82"
      },
      "gasLimit": {
        "_hex": "0x15f90"
      },
      "to": "0x528419cd4425d074D168Ae82CdFc335076b09B2F",
      "value": {
        "_hex": "0xfa6847066df460000"
      },
      "nonce": 0,
      "data": "0x",
      "r": "0x0a44b5bd0eab54640b61785dea791c2ac994a9c94e28a6496ba661c26de91dc1",
      "s": "0x58a2e35a72e47a8f57fda0444cf0a3facc74eb33464414fe464adfd46546fb5e",
      "v": 27,
      "creates": null,
      "raw": "0xf86e80850d7121bd8283015f9094528419cd4425d074d168ae82cdfc335076b09b2f890fa6847066df460000801ba00a44b5bd0eab54640b61785dea791c2ac994a9c94e28a6496ba661c26de91dc1a058a2e35a72e47a8f57fda0444cf0a3facc74eb33464414fe464adfd46546fb5e",
      "networkId": 0,
      "chainId": 0
    }
  ]
}