{
  "hash": "0x792debad0f95d9c19527b8768061e15895d680c6e15ffaec9ea90130d62eb621",
  "parentHash": "0xd147c2030838600ac00a1cb89915e6156de9001a2d06d51b3761cc848cfbd828",
  "number": 93476,
  "timestamp": 1439691107,
  "nonce": "0x6c50e7a95b1c9ff9",
  "difficulty": 3504128138703,
  "gasLimit": {
    "_hex": "0x2fefd8"
  },
  "gasUsed": {
    "_hex": "0xf618"
  },
  "miner": "0x8B454d830feF179e66206840F8F3D1d83bC32b17",
  "extraData": "0x476574682f76312e302e312f77696e646f77732f676f312e342e32",
  "transactions": [
    {
      "hash": "0x1475421275d9e6a59bd673baff8e834a9026da9d2cacd9f93328efafcfdc855f",
      "blockHash": "0x792debad0f95d9c19527b8768061e15895d680c6e15ffaec9ea90130d62eb621",
      "blockNumber": 93476,
      "transactionIndex": 0,
      "confirmations": null,
      "from": "0x2910543Af39abA0Cd09dBb2D50200b3E800A63D2",
      "gasPrice": {
        "_hex": "0xe22d9e11e"
      },
      "gasLimit": {
        "_hex": "0x5208"
      },
      "to": "0x0A63E1A8C33e351679e3581AC84ce341C32f813a",
      "value": {
        "_hex": "0x821a9f10c8119f8000"
      },
      "nonce": 852,
      "data": "0x",
      "r": "0x33e60345b04c2d2adb0e62c318155a9cc4d529d4855bdfb5e03b2218d3c398fb",
      "s": "0x52782e0ef7cc5f2ccd037b7438128ce534fe03d060d19d5cbc5e79852d973f61",
      "v": 27,
      "creates": null,
      "raw": "0xf86f820354850e22d9e11e825208940a63e1a8c33e351679e3581ac84ce341c32f813a89821a9f10c8119f8000801ba033e60345b04c2d2adb0e62c318155a9cc4d529d4855bdfb5e03b2218d3c398fba052782e0ef7cc5f2ccd037b7438128ce534fe03d060d19d5cbc5e79852d973f61",
      "networkId": 0,
      "chainId": 0
    },
    {
      "hash": "0xaf41a950ceff5865afef325ccfc373380a6aee4f2e6a8519810ebe80c8b634a1",
      "blockHash": "0x792debad0f95d9c19527b8768061e15895d680c6e15ffaec9ea90130d62eb621",
      "blockNumber": 93476,
      "transactionIndex": 1,
      "confirmations": null,
      "from": "0xa70a9a7040d542C632D8e0bE7c5513A8a5Bbc752",
      "gasPrice": {
        "_hex": "0xd5f99fdb8"
      },
      "gasLimit": {
        "_hex": "0x5208"
      },
      "to": "0x32Be343B94f860124dC4fEe278FDCBD38C102D88",
      "value": {
        "_hex": "0x455f4879f26cd000"
      },
      "nonce": 135,
      "data": "0x",
      "r": "0x1bf018f66630d07c4cd00834f1f349fa90b2a68dcd37ef84117c271378c58ab3",
      "s": "0x31b9cc0cd49fd092676d1a1ce99efc1736b61bd30dfcc4b3cd646098479347d0",
      "v": 27,
      "creates": null,
      "raw": "0xf86d8187850d5f99fdb88252089432be343b94f860124dc4fee278fdcbd38c102d8888455f4879f26cd000801ba01bf018f66630d07c4cd00834f1f349fa90b2a68dcd37ef84117c271378c58ab3a031b9cc0cd49fd092676d1a1ce99efc1736b61bd30dfcc4b3cd646098479347d0",
      "networkId": 0,
      "chainId": 0
    },
    {
      "hash": "0xd6252d31129eb581eef68e15e2959fb3af97d22156550ac3c040b800c0154aac",
      "blockHash": "0x792debad0f95d9c19527b8768061e15895d680c6e15ffaec9ea90130d62eb621",
      "blockNumber": 93476,
      "transactionIndex": 2,
      "confirmations": null,
      "from": "0x9aF2A2c26f76aE3F045B517Fb8781637f89b58d6",
      "gasPrice": {
        "_hex": "0xd5f99fdb8"
      },
      "gasLimit": {
        "_hex": "0x5208"
      },
      "to": "0x32Be343B94f860124dC4fEe278FDCBD38C102D88",
      "value": {
        "_hex": "0x3635b3a142002c0000"
      },
      "nonce": 0,
      "data": "0x",
      "r": "0x2eaf1ed40523e029ea98e6fa0026d8f6d33b8dbfdc534d98de6cab4c0e17c8e7",
      "s": "0x3588209f537eb3795108682ef30ba5bd38d04650a2013eb44dbb12b255bad46a",
      "v": 27,
      "creates": null,
      "raw": "0xf86d80850d5f99fdb88252089432be343b94f860124dc4fee278fdcbd38c102d88893635b3a142002c0000801ba02eaf1ed40523e029ea98e6fa0026d8f6d33b8dbfdc534d98de6cab4c0e17c8e7a03588209f537eb3795108682ef30ba5bd38d04650a2013eb44dbb12b255bad46a",
      "networkId": 0,
      "chainId": 0
    }
  ]
}