{
  "hash": "0xdeafd82ebf09d229771b7966226375bee21d474ec7406d6a1fe7c9d24ca298d3",
  "parentHash": "0x8ebecfe383b99c02dc5715d0f7b63a8cb752f850bd9e8cc5036f69b736f8a620",
  "number": 93327,
  "timestamp": 1439687853,
  "nonce": "0x6099a85be482e8d4",
  "difficulty": 3529950058767,
  "gasLimit": {
    "_hex": "0x2fefd8"
  },
  "gasUsed": {
    "_hex": "0xe1d6"
  },
  "miner": "0x790b8a3cE86E707ED0eD32bF89B3269692a23CC1",
  "extraData": "0xd783010001844765746887676f312e342e32856c696e7578",
  "transactions": [
    {
      "hash": "0xeac26754406843b3c8e4257a666088eb8478a519c822b0f5da84faa234dab6d4",
      "blockHash": "0xdeafd82ebf09d229771b7966226375bee21d474ec7406d6a1fe7c9d24ca298d3",
      "blockNumber": 93327,
      "transactionIndex": 0,
      "confirmations": null,
      "from": "0xFBb1b73C4f0BDa4f67dcA266ce6Ef42f520fBB98",
      "gasPrice": {
        "_hex": "0xd548d59be"
      },
      "gasLimit": {
        "_hex": "0x15f90"
      },
      "to": "0xCAc7000C7dBaa2E33Af15325AF5D435E011C7BdD",
      "value": {
        "_hex": "0x0"
      },
      "nonce": 56,
      "data": "0x3feb1bd84249545452455830300000000000000000000000000000000000000000000000000000000000000000000000f124648677b85ef68daa86d4ea657548b4a48b390000000000000000000000000000000000000000000000000dbd2fc137a30000",
      "r": "0x78169ee2e32a70d4bce8c23c66fbbf774af54952d54ae3572c46b06a71b7da3f",
      "s": "0x4897a6afe52e0da7c95de6fe66190c2bbf9d94f63508e823b33a4402ef433f4c",
      "v": 28,
      "creates": null,
      "raw": "0xf8ca38850d548d59be83015f9094cac7000c7dbaa2e33af15325af5d435e011c7bdd80b8643feb1bd84249545452455830300000000000000000000000000000000000000000000000000000000000000000000000f124648677b85ef68daa86d4ea657548b4a48b390000000000000000000000000000000000000000000000000dbd2fc137a300001ca078169ee2e32a70d4bce8c23c66fbbf774af54952d54ae3572c46b06a71b7da3fa04897a6afe52e0da7c95de6fe66190c2bbf9d94f63508e823b33a4402ef433f4c",
      "networkId": 0,
      "chainId": 0
    }
  ]
}