{
  "hash": "0xc5457170513fbbb2d8800a9aa662115dfc2433704fd422294b3f3ea0b77ccceb",
  "parentHash": "0x768a190038f709c3c24f299032aa5393ae40e40e9e3d1731d37eba6a1c6cd108",
  "number": 70854,
  "timestamp": 1439326384,
  "nonce": "0x653ed9bf5256acc1",
  "difficulty": 2154116458364,
  "gasLimit": {
    "_hex": "0x2fefd8"
  },
  "gasUsed": {
    "_hex": "0x5208"
  },
  "miner": "0x9746c7e1ef2bd21FF3997fa467593a89cb852BD0",
  "extraData": "0x476574682f76312e302e312f77696e646f77732f676f312e342e32",
  "transactions": [
    {
      "hash": "0xd84a0c9e9cc5fb69ec62d4d1466c1eaeb15dd5c1cadb1206f8141af00e183641",
      "blockHash": "0xc5457170513fbbb2d8800a9aa662115dfc2433704fd422294b3f3ea0b77ccceb",
      "blockNumber": 70854,
      "transactionIndex": 0,
      "confirmations": null,
      "from": "0x4C935bB250778b3C4c7F7E07FC251FA630314aAb",
      "gasPrice": {
        "_hex": "0xd7604a775"
      },
      "gasLimit": {
        "_hex": "0x15f90"
      },
      "to": "0x09c932038d924D69Ea7002a7c0Eb2Ecafa204964",
      "value": {
        "_hex": "0xde0b6b3a7640000"
      },
      "nonce": 0,
      "data": "0x",
      "r": "0x1966537cb1e39cb5fc861f1aa1742a5cec57f17abc7a960fc4df9da775032908",
      "s": "0x2aa7dd979cba44e35f5b4992b534f89c97617de3e18c1c2ccdbbdc329de74a74",
      "v": 28,
      "creates": null,
      "raw": "0xf86d80850d7604a77583015f909409c932038d924d69ea7002a7c0eb2ecafa204964880de0b6b3a7640000801ca01966537cb1e39cb5fc861f1aa1742a5cec57f17abc7a960fc4df9da775032908a02aa7dd979cba44e35f5b4992b534f89c97617de3e18c1c2ccdbbdc329de74a74",
      "networkId": 0,
      "chainId": 0
    }
  ]
}