{
  "hash": "0x32ecad9c47cb25506cc5a7fa769463eb4a2067de3b9a2c2a469f7cce0b4b872c",
  "parentHash": "0x7848fd2b048e510c979774c5f95320b9727e4eed2ecda1ae4ed5af348cd1ca25",
  "number": 112711,
  "timestamp": 1440011872,
  "nonce": "0xc64960ffe77011b5",
  "difficulty": 4425966236463,
  "gasLimit": {
    "_hex": "0x2fefd8"
  },
  "gasUsed": {
    "_hex": "0xf618"
  },
  "miner": "0xe6A7a1d47ff21B6321162AEA7C6CB457D5476Bca",
  "extraData": "0x476574682f76312e302e312d38326566323666362f6c696e75782f676f312e34",
  "transactions": [
    {
      "hash": "0xe359b9a1d554868209f65f20dd20eafa6534e7ee118332b77dcbc903fe55648e",
      "blockHash": "0x32ecad9c47cb25506cc5a7fa769463eb4a2067de3b9a2c2a469f7cce0b4b872c",
      "blockNumber": 112711,
      "transactionIndex": 0,
      "confirmations": null,
      "from": "0x2910543Af39abA0Cd09dBb2D50200b3E800A63D2",
      "gasPrice": {
        "_hex": "0xdc7b06b9c"
      },
      "gasLimit": {
        "_hex": "0x5208"
      },
      "to": "0x2675436DF4af8065911a28F8845afEE29BD0452e",
      "value": {
        "_hex": "0x3cb83b898fd388000"
      },
      "nonce": 1110,
      "data": "0x",
      "r": "0x53eb886fb9780a2098bcf01ae660aafe0118af04bd2d9c4a7f2cdfbc4e484c13",
      "s": "0x5f807d4d676c7f848ba18548e63b21fa6115459bf289a81c2ccac67732d1fc9a",
      "v": 28,
      "creates": null,
      "raw": "0xf86f820456850dc7b06b9c825208942675436df4af8065911a28f8845afee29bd0452e8903cb83b898fd388000801ca053eb886fb9780a2098bcf01ae660aafe0118af04bd2d9c4a7f2cdfbc4e484c13a05f807d4d676c7f848ba18548e63b21fa6115459bf289a81c2ccac67732d1fc9a",
      "networkId": 0,
      "chainId": 0
    },
    {
      "hash": "0xc55d2136f677d4d51ad3659b12ab07b96fe7bb85c563574000868b9789ba138a",
      "blockHash": "0x32ecad9c47cb25506cc5a7fa769463eb4a2067de3b9a2c2a469f7cce0b4b872c",
      "blockNumber": 112711,
      "transactionIndex": 1,
      "confirmations": null,
      "from": "0xD924AAC0bCB65C13bE4044f6BeA8aAe34D7a7126",
      "gasPrice": {
        "_hex": "0xd64d65238"
      },
      "gasLimit": {
        "_hex": "0x5208"
      },
      "to": "0x32Be343B94f860124dC4fEe278FDCBD38C102D88",
      "value": {
        "_hex": "0x50286cb119c4cc00"
      },
      "nonce": 10,
      "data": "0x",
      "r": "0x28f0b4a226e461adf3f42d2ad7ccf2d038d48123c76dbc3b0aacd2ae1d5115c9",
      "s": "0x47007086ed38d88ae722d230dc92346fe5e3d4cc856c1f3f3f67e1dd6627b2d9",
      "v": 27,
      "creates": null,
      "raw": "0xf86c0a850d64d652388252089432be343b94f860124dc4fee278fdcbd38c102d888850286cb119c4cc00801ba028f0b4a226e461adf3f42d2ad7ccf2d038d48123c76dbc3b0aacd2ae1d5115c9a047007086ed38d88ae722d230dc92346fe5e3d4cc856c1f3f3f67e1dd6627b2d9",
      "networkId": 0,
      "chainId": 0
    },
    {
      "hash": "0xb3fe4ae74b853d70725aa1ad4310adcec84db2cc8d3b51229b75c8930ab48efe",
      "blockHash": "0x32ecad9c47cb25506cc5a7fa769463eb4a2067de3b9a2c2a469f7cce0b4b872c",
      "blockNumber": 112711,
      "transactionIndex": 2,
      "confirmations": null,
      "from": "0xA5fb3E4399E8F18643f969D0Ce65CC352fc252C6",
      "gasPrice": {
        "_hex": "0xd64d65238"
      },
      "gasLimit": {
        "_hex": "0x5208"
      },
      "to": "0x32Be343B94f860124dC4fEe278FDCBD38C102D88",
      "value": {
        "_hex": "0x9090b2821c679000"
      },
      "nonce": 12,
      "data": "0x",
      "r": "0xace899ffd4e341405def94aeebc9961a211741a162a45c518c670e5c06d85e1c",
      "s": "0x79e46e8e7bf1f64f48187da369186609016af1cc2884cc94c5e0cac557f4d37e",
      "v": 28,
      "creates": null,
      "raw": "0xf86c0c850d64d652388252089432be343b94f860124dc4fee278fdcbd38c102d88889090b2821c679000801ca0ace899ffd4e341405def94aeebc9961a211741a162a45c518c670e5c06d85e1ca079e46e8e7bf1f64f48187da369186609016af1cc2884cc94c5e0cac557f4d37e",
      "networkId": 0,
      "chainId": 0
    }
  ]
}