{
  "hash": "0x2a8d424be7bf1663b9e57aea00df056418ac7cae28430448fcf7dcc1ce23546b",
  "parentHash": "0x814733f7aa61cb35133c1785c2c70a5485efecce7ade1daf726d235079eaa6c4",
  "number": 60369,
  "timestamp": 1439154235,
  "nonce": "0xec9cb710b88c789a",
  "difficulty": 1749198844750,
  "gasLimit": {
    "_hex": "0x2fefd8"
  },
  "gasUsed": {
    "_hex": "0x5208"
  },
  "miner": "0x785ffdDd5cE55c6DF963f345e68d3F2024E5Acb1",
  "extraData": "0x457468657265756d20474f212121212121",
  "transactions": [
    {
      "hash": "0xc981cd03e2d906c1a5279034420650614666553e65e6246a25f4f52dd0956ac9",
      "blockHash": "0x2a8d424be7bf1663b9e57aea00df056418ac7cae28430448fcf7dcc1ce23546b",
      "blockNumber": 60369,
      "transactionIndex": 0,
      "confirmations": null,
      "from": "0xa072691C8DD7cD4237fF72a75C1A9506d0Ce5B9E",
      "gasPrice": {
        "_hex": "0x114ae08ee51"
      },
      "gasLimit": {
        "_hex": "0x15f90"
      },
      "to": "0xE61f07672D088d1df25512d8a9A7A9B9a47A9654",
      "value": {
        "_hex": "0x56bc75e2d63100000"
      },
      "nonce": 4,
      "data": "0x",
      "r": "0xa603db26528f6318d94816198fc79c68b94749d92efbd717aaa45459e6f2d825",
      "s": "0x7b102955a5d06859a403cacedd5f28bf43476e6ef6ae93987887ab49f6875d23",
      "v": 27,
      "creates": null,
      "raw": "0xf86f04860114ae08ee5183015f9094e61f07672d088d1df25512d8a9a7a9b9a47a965489056bc75e2d63100000801ba0a603db26528f6318d94816198fc79c68b94749d92efbd717aaa45459e6f2d825a07b102955a5d06859a403cacedd5f28bf43476e6ef6ae93987887ab49f6875d23",
      "networkId": 0,
      "chainId": 0
    }
  ]
}