{
  "hash": "0xde63ca800bac535287a44a35ce29115f8fd56203aabb7f3749bea42df44d467a",
  "parentHash": "0x33228b0e4bac30ada2363fce16e2791f348a058557bb20f3f8bca887239ec9ed",
  "number": 85658,
  "timestamp": 1439566813,
  "nonce": "0x4777ef9ff25af0a8",
  "difficulty": 2790883121965,
  "gasLimit": {
    "_hex": "0x2fefd8"
  },
  "gasUsed": {
    "_hex": "0xa410"
  },
  "miner": "0xe6A7a1d47ff21B6321162AEA7C6CB457D5476Bca",
  "extraData": "0x476574682f76312e302e312d38326566323666362f6c696e75782f676f312e34",
  "transactions": [
    {
      "hash": "0x388a1bd015246f7dcec1fed79497fd279eb155fec0708882a8c5e2c58fe6df9d",
      "blockHash": "0xde63ca800bac535287a44a35ce29115f8fd56203aabb7f3749bea42df44d467a",
      "blockNumber": 85658,
      "transactionIndex": 0,
      "confirmations": null,
      "from": "0xC47Aaa860008be6f65B58c6C6E02a84e666EfE31",
      "gasPrice": {
        "_hex": "0xce084698e"
      },
      "gasLimit": {
        "_hex": "0x15f90"
      },
      "to": "0xa5DeA32f1c92f91fF156d2ADd2524e153Ae4d8F9",
      "value": {
        "_hex": "0xad78b2edc21596d59"
      },
      "nonce": 15,
      "data": "0x",
      "r": "0xf8bc6d31a50e819c3c79b513b7636676ecc02cadff58d325d085e46493aa3e6b",
      "s": "0x55e85628408ed0c048c9d7e45d62f5b64a1a718f0c1901c8bcf25f2e456f6a77",
      "v": 28,
      "creates": null,
      "raw": "0xf86e0f850ce084698e83015f9094a5dea32f1c92f91ff156d2add2524e153ae4d8f9890ad78b2edc21596d59801ca0f8bc6d31a50e819c3c79b513b7636676ecc02cadff58d325d085e46493aa3e6ba055e85628408ed0c048c9d7e45d62f5b64a1a718f0c1901c8bcf25f2e456f6a77",
      "networkId": 0,
      "chainId": 0
    },
    {
      "hash": "0xdbe220d6586a7996ad3a583f299ddc3ca8a551e5caccb4bedba2b20aada9a8f4",
      "blockHash": "0xde63ca800bac535287a44a35ce29115f8fd56203aabb7f3749bea42df44d467a",
      "blockNumber": 85658,
      "transactionIndex": 1,
      "confirmations": null,
      "from": "0xa02Ee357e3f58B351a9Afb4063Ed995ba744350a",
      "gasPrice": {
        "_hex": "0xba43b7400"
      },
      "gasLimit": {
        "_hex": "0x5208"
      },
      "to": "0xC47Aaa860008be6f65B58c6C6E02a84e666EfE31",
      "value": {
        "_hex": "0x4fa57bd1872fc00"
      },
      "nonce": 1,
      "data": "0x",
      "r": "0x59189d6ef97109cd60f663d830ec52d0c8b594bdf906f2999630b807883c1b10",
      "s": "0x2b9b234e419753aa824c916e6cceab25230f292b56304ae08125d98d9bef3f7d",
      "v": 27,
      "creates": null,
      "raw": "0xf86c01850ba43b740082520894c47aaa860008be6f65b58c6c6e02a84e666efe318804fa57bd1872fc00801ba059189d6ef97109cd60f663d830ec52d0c8b594bdf906f2999630b807883c1b10a02b9b234e419753aa824c916e6cceab25230f292b56304ae08125d98d9bef3f7d",
      "networkId": 0,
      "chainId": 0
    }
  ]
}