{
  "hash": "0x144348cca89f13b39e74552e60a666847149eb987a72d03603285e161e39b812",
  "parentHash": "0x219f2fa2e4d575d79aabc8f09bfc67a15b19796188a74a51b559b743c1d3703b",
  "number": 106254,
  "timestamp": 1439901245,
  "nonce": "0xb1059d402158d525",
  "difficulty": 4466294659016,
  "gasLimit": {
    "_hex": "0x2fefd8"
  },
  "gasUsed": {
    "_hex": "0x1bdbe"
  },
  "miner": "0xe6A7a1d47ff21B6321162AEA7C6CB457D5476Bca",
  "extraData": "0x476574682f76312e302e312d38326566323666362f6c696e75782f676f312e34",
  "transactions": [
    {
      "hash": "0x581a805dcaf23a2996b8788acaa175f1135af24b8d8d714e73630952ca368841",
      "blockHash": "0x144348cca89f13b39e74552e60a666847149eb987a72d03603285e161e39b812",
      "blockNumber": 106254,
      "transactionIndex": 0,
      "confirmations": null,
      "from": "0xbCab99c9250A69cCD7395f2543ed52FF1e220398",
      "gasPrice": {
        "_hex": "0x11abd576e15"
      },
      "gasLimit": {
        "_hex": "0x249f0"
      },
      "to": "0xE28e72FCf78647ADCe1F1252F240bbfaebD63BcC",
      "value": {
        "_hex": "0x8ac7230489e80000"
      },
      "nonce": 0,
      "data": "0x45466f3a",
      "r": "0x26ed5b0cd16fa3c0aea3aac23b71a66556e6a25bea19bff34c7a512e03d5f111",
      "s": "0x21c83355041cb8fd3a5e5f5f5f095d6ea9b3002435178de5f898d59e389d391c",
      "v": 28,
      "creates": null,
      "raw": "0xf8728086011abd576e15830249f094e28e72fcf78647adce1f1252f240bbfaebd63bcc888ac7230489e800008445466f3a1ca026ed5b0cd16fa3c0aea3aac23b71a66556e6a25bea19bff34c7a512e03d5f111a021c83355041cb8fd3a5e5f5f5f095d6ea9b3002435178de5f898d59e389d391c",
      "networkId": 0,
      "chainId": 0
    }
  ]
}