{
  "hash": "0x2aa352cc3c734263d6cd4b712167fab9aeb248833a1c87fc568410617560456c",
  "parentHash": "0x598e35a4f2fe9b342427514a4ee089d3ca2c4ffd10ee1f8f08ed141f1b8ea5ba",
  "number": 82277,
  "timestamp": 1439516568,
  "nonce": "0xdb47df5aa8308f49",
  "difficulty": 2377659450437,
  "gasLimit": {
    "_hex": "0x2fefd8"
  },
  "gasUsed": {
    "_hex": "0xa410"
  },
  "miner": "0xe6A7a1d47ff21B6321162AEA7C6CB457D5476Bca",
  "extraData": "0x476574682f76312e302e312d38326566323666362f6c696e75782f676f312e34",
  "transactions": [
    {
      "hash": "0xcbc287dc99ca05a78417dc4bf13c36cf3579b7a3f12f685a0f5c4696306e3798",
      "blockHash": "0x2aa352cc3c734263d6cd4b712167fab9aeb248833a1c87fc568410617560456c",
      "blockNumber": 82277,
      "transactionIndex": 0,
      "confirmations": null,
      "from": "0x120A270bbC009644e35F0bB6ab13f95b8199c4ad",
      "gasPrice": {
        "_hex": "0xce77e6fb6"
      },
      "gasLimit": {
        "_hex": "0x3d090"
      },
      "to": "0x4F0eaeC741E237568f785f0d6C0A4e3189D3324D",
      "value": {
        "_hex": "0xde0b6b3a7640000"
      },
      "nonce": 396,
      "data": "0x",
      "r": "0xf75ad93f173cbdd20c1a472e3658289f6d518feaf85c6e786f3e4d10d4dc7754",
      "s": "0x58b37b4c968f73f2ebcd8ae1ce6aab82e708581470d353c15b5e8932754f090e",
      "v": 27,
      "creates": null,
      "raw": "0xf86f82018c850ce77e6fb68303d090944f0eaec741e237568f785f0d6c0a4e3189d3324d880de0b6b3a7640000801ba0f75ad93f173cbdd20c1a472e3658289f6d518feaf85c6e786f3e4d10d4dc7754a058b37b4c968f73f2ebcd8ae1ce6aab82e708581470d353c15b5e8932754f090e",
      "networkId": 0,
      "chainId": 0
    },
    {
      "hash": "0xc055018fa18941bad4c55907bb6d97044c2a555cfad70b7f9b60433f31a218fb",
      "blockHash": "0x2aa352cc3c734263d6cd4b712167fab9aeb248833a1c87fc568410617560456c",
      "blockNumber": 82277,
      "transactionIndex": 1,
      "confirmations": null,
      "from": "0x120A270bbC009644e35F0bB6ab13f95b8199c4ad",
      "gasPrice": {
        "_hex": "0xcc66d08f9"
      },
      "gasLimit": {
        "_hex": "0x3d090"
      },
      "to": "0xf5140B81D6039E878BD404912f2b1E66fE6DAF09",
      "value": {
        "_hex": "0x579a814e10a740000"
      },
      "nonce": 397,
      "data": "0x",
      "r": "0xa807228d23189ed4a6f1cd0ea669882b2598ca73487630f2ef6f6f076b2de09a",
      "s": "0x2082307e764b34a05928e65cc759b597eb7b4c72459b573118a424e41fa32382",
      "v": 28,
      "creates": null,
      "raw": "0xf87082018d850cc66d08f98303d09094f5140b81d6039e878bd404912f2b1e66fe6daf09890579a814e10a740000801ca0a807228d23189ed4a6f1cd0ea669882b2598ca73487630f2ef6f6f076b2de09aa02082307e764b34a05928e65cc759b597eb7b4c72459b573118a424e41fa32382",
      "networkId": 0,
      "chainId": 0
    }
  ]
}