{
  "hash": "0x2f1b21d329aedb01e085832fdde5e523c78917a6268adf40cd1830107b4040cb",
  "parentHash": "0x3bf5d1565228fa4b5adf81ec4b04b03b5b96df1793292782c98f5ad291ee7938",
  "number": 60660,
  "timestamp": 1439159549,
  "nonce": "0xf4ce48a64f7854b5",
  "difficulty": 1731294307053,
  "gasLimit": {
    "_hex": "0x2fefd8"
  },
  "gasUsed": {
    "_hex": "0x5208"
  },
  "miner": "0xf927a40C8B7F6E07c5af7FA2155B4864a4112B13",
  "extraData": "0x476574682f76312e302e312f6c696e75782f676f312e342e32",
  "transactions": [
    {
      "hash": "0xd6e314942707f45a23f660f73bb8586dca92ae7ba0122f8ecb9318d095044a04",
      "blockHash": "0x2f1b21d329aedb01e085832fdde5e523c78917a6268adf40cd1830107b4040cb",
      "blockNumber": 60660,
      "transactionIndex": 0,
      "confirmations": null,
      "from": "0xAd9DbFc10FaF86e12b09d148F456a5568609b7Ab",
      "gasPrice": {
        "_hex": "0xdb2631682"
      },
      "gasLimit": {
        "_hex": "0x5208"
      },
      "to": "0x32Be343B94f860124dC4fEe278FDCBD38C102D88",
      "value": {
        "_hex": "0xd8d710855e82080000"
      },
      "nonce": 0,
      "data": "0x",
      "r": "0x79588c234aa349d43f197150035aef801a397f0094bf868aec600a804cd01521",
      "s": "0x37116d5aaf146e9e419895144afa6db5b59bf52afb14992f7ae300d510e68128",
      "v": 28,
      "creates": null,
      "raw": "0xf86d80850db26316828252089432be343b94f860124dc4fee278fdcbd38c102d8889d8d710855e82080000801ca079588c234aa349d43f197150035aef801a397f0094bf868aec600a804cd01521a037116d5aaf146e9e419895144afa6db5b59bf52afb14992f7ae300d510e68128",
      "networkId": 0,
      "chainId": 0
    }
  ]
}