{
  "hash": "0x0f11f518c23b2e098a424328a581b41cd7a6de73df33052d630f8d9179417eab",
  "parentHash": "0x74dd298fd2e3faff3799c3d18e80493562e23ee69909355234e4fe39f21330cf",
  "number": 91324,
  "timestamp": 1439653904,
  "nonce": "0x37dea5a1b0a1759c",
  "difficulty": 3467577043631,
  "gasLimit": {
    "_hex": "0x2fefd8"
  },
  "gasUsed": {
    "_hex": "0x5208"
  },
  "miner": "0xe6A7a1d47ff21B6321162AEA7C6CB457D5476Bca",
  "extraData": "0x476574682f76312e302e312d38326566323666362f6c696e75782f676f312e34",
  "transactions": [
    {
      "hash": "0xe31aea1be02b5cae7942b9804b3b05529a316677c26b8b813c10a87d1dec15a3",
      "blockHash": "0x0f11f518c23b2e098a424328a581b41cd7a6de73df33052d630f8d9179417eab",
      "blockNumber": 91324,
      "transactionIndex": 0,
      "confirmations": null,
      "from": "0x3ce70f7EBbb911d5FF14BB9244ac7C9be2c669B3",
      "gasPrice": {
        "_hex": "0xcd01555c5"
      },
      "gasLimit": {
        "_hex": "0x5208"
      },
      "to": "0x664254957B416b15EE4A881B59Deab3c4159E549",
      "value": {
        "_hex": "0xd02ab486cedc0000"
      },
      "nonce": 2,
      "data": "0x",
      "r": "0x75ea29cd145910fd5989a1838e3ba62d448eeca58f8a33625c0688024408af44",
      "s": "0x40143fec317d1f7ea4d2f0ec06bd61771b1ac18e20bea45714823ec1bc6a6426",
      "v": 27,
      "creates": null,
      "raw": "0xf86c02850cd01555c582520894664254957b416b15ee4a881b59deab3c4159e54988d02ab486cedc0000801ba075ea29cd145910fd5989a1838e3ba62d448eeca58f8a33625c0688024408af44a040143fec317d1f7ea4d2f0ec06bd61771b1ac18e20bea45714823ec1bc6a6426",
      "networkId": 0,
      "chainId": 0
    }
  ]
}