{
  "hash": "0xbbba00f0e2217bc8070ede66b03d6ae572f9de08aa2aeb35a2312524a97e2e88",
  "parentHash": "0x158759368194709436e337ed031ae27015cc66dd576c895f6df43133333c26c5",
  "number": 70825,
  "timestamp": 1439326073,
  "nonce": "0x22889531fdf5e234",
  "difficulty": 2146773744998,
  "gasLimit": {
    "_hex": "0x2fefd8"
  },
  "gasUsed": {
    "_hex": "0x5208"
  },
  "miner": "0xe6A7a1d47ff21B6321162AEA7C6CB457D5476Bca",
  "extraData": "0x476574682f76312e302e312d38326566323666362f6c696e75782f676f312e34",
  "transactions": [
    {
      "hash": "0x019ca51616d2ee9dd630a8b6e3bc2dcd0b3ab5cdbe4ac828e804737b4665579a",
      "blockHash": "0xbbba00f0e2217bc8070ede66b03d6ae572f9de08aa2aeb35a2312524a97e2e88",
      "blockNumber": 70825,
      "transactionIndex": 0,
      "confirmations": null,
      "from": "0x29Ab575850dCEf127cd8D646fB3c208b3860C2F0",
      "gasPrice": {
        "_hex": "0xdc6500402"
      },
      "gasLimit": {
        "_hex": "0x15f90"
      },
      "to": "0xA10CDF70bc138605c39F8651A78485Fe4F1C3811",
      "value": {
        "_hex": "0x2b31d2425f6740000"
      },
      "nonce": 5,
      "data": "0x",
      "r": "0xef1cceb778d79fe02d8f793202b280d4945d4ebf7d05fafea1563b3171f1b36a",
      "s": "0x48b3320a119a3125d1086615966a40055b170b2f078d938e427c64f53ae086fb",
      "v": 28,
      "creates": null,
      "raw": "0xf86e05850dc650040283015f9094a10cdf70bc138605c39f8651a78485fe4f1c38118902b31d2425f6740000801ca0ef1cceb778d79fe02d8f793202b280d4945d4ebf7d05fafea1563b3171f1b36aa048b3320a119a3125d1086615966a40055b170b2f078d938e427c64f53ae086fb",
      "networkId": 0,
      "chainId": 0
    }
  ]
}