{
  "hash": "0x126e976d3f318841831992b89b520e2719b74c2426bab07733fc7d73010d6d30",
  "parentHash": "0x99f9af493fd46d6a433ab5ca616900e1a371d4a7703ce90227d80c989ba4d469",
  "number": 95331,
  "timestamp": 1439722609,
  "nonce": "0xd4d790c9d0ad030d",
  "difficulty": 3549845932319,
  "gasLimit": {
    "_hex": "0x2fefd8"
  },
  "gasUsed": {
    "_hex": "0xf618"
  },
  "miner": "0xe6A7a1d47ff21B6321162AEA7C6CB457D5476Bca",
  "extraData": "0x476574682f76312e302e312d38326566323666362f6c696e75782f676f312e34",
  "transactions": [
    {
      "hash": "0x0e5428de54b8b02abaec67c655909a3e0030d8e913bb069d18ac913f877e0e55",
      "blockHash": "0x126e976d3f318841831992b89b520e2719b74c2426bab07733fc7d73010d6d30",
      "blockNumber": 95331,
      "transactionIndex": 0,
      "confirmations": null,
      "from": "0x63738Ec4C9adec404749B5747F3bbE2147de632F",
      "gasPrice": {
        "_hex": "0xd7d40ace3"
      },
      "gasLimit": {
        "_hex": "0x55f0"
      },
      "to": "0x557C2806B6ceA65a66F415bb2Ed1ce897B340745",
      "value": {
        "_hex": "0xde0b6b3a7640000"
      },
      "nonce": 0,
      "data": "0x",
      "r": "0x8c9ecd888c34872dd72ac72bb07288fa84370686e71c66992ffe1faafccb78bc",
      "s": "0x577eec1f4a0611e5af5ce6b3187c0af6fc519810b3de05fddf8f9997516de28d",
      "v": 28,
      "creates": null,
      "raw": "0xf86c80850d7d40ace38255f094557c2806b6cea65a66f415bb2ed1ce897b340745880de0b6b3a7640000801ca08c9ecd888c34872dd72ac72bb07288fa84370686e71c66992ffe1faafccb78bca0577eec1f4a0611e5af5ce6b3187c0af6fc519810b3de05fddf8f9997516de28d",
      "networkId": 0,
      "chainId": 0
    },
    {
      "hash": "0x6692b26178bc48b6caba8f0068b23c040c96e4f0a31a8670de96235a774e230e",
      "blockHash": "0x126e976d3f318841831992b89b520e2719b74c2426bab07733fc7d73010d6d30",
      "blockNumber": 95331,
      "transactionIndex": 1,
      "confirmations": null,
      "from": "0x5F8F73E26CdF436f19Cb24C82F90A15AFe55b592",
      "gasPrice": {
        "_hex": "0xd3d37f23a"
      },
      "gasLimit": {
        "_hex": "0x15f90"
      },
      "to": "0x7229C03FFcDA05dB1dBD01A08cec6d0D0FBF065a",
      "value": {
        "_hex": "0x8ac7230489e80000"
      },
      "nonce": 0,
      "data": "0x",
      "r": "0x53386c6dbcccc647d0990c355bd7f28757b710608964f059eda3f85e460078b9",
      "s": "0x7f57ecf58ec8467cfb52d6d0458ed185943f2546ecfa85df658dcb1118f6247b",
      "v": 27,
      "creates": null,
      "raw": "0xf86d80850d3d37f23a83015f90947229c03ffcda05db1dbd01a08cec6d0d0fbf065a888ac7230489e80000801ba053386c6dbcccc647d0990c355bd7f28757b710608964f059eda3f85e460078b9a07f57ecf58ec8467cfb52d6d0458ed185943f2546ecfa85df658dcb1118f6247b",
      "networkId": 0,
      "chainId": 0
    },
    {
      "hash": "0x3ae2b6173e6bc7fb759115ae0de765ca85062de599667bee21e32d78e0b1e0e2",
      "blockHash": "0x126e976d3f318841831992b89b520e2719b74c2426bab07733fc7d73010d6d30",
      "blockNumber": 95331,
      "transactionIndex": 2,
      "confirmations": null,
      "from": "0xc597A5d92F5dC1137D847db733cfe02c6d209f13",
      "gasPrice": {
        "_hex": "0xce75b2dbb"
      },
      "gasLimit": {
        "_hex": "0x15f90"
      },
      "to": "0xc5bf5AeD09274C24524b98AA32EC56150B7306c2",
      "value": {
        "_hex": "0x28a8901a63f41e000"
      },
      "nonce": 33,
      "data": "0x",
      "r": "0x9ae9f02a44791793852b3eb9f6d774f54ea84e9c9ba14c3c93f1a55cdaec66e1",
      "s": "0x15f2a2b370bffee643458b0bc817a8526024e7f833efc623305d8dc996fe0374",
      "v": 28,
      "creates": null,
      "raw": "0xf86e21850ce75b2dbb83015f9094c5bf5aed09274c24524b98aa32ec56150b7306c289028a8901a63f41e000801ca09ae9f02a44791793852b3eb9f6d774f54ea84e9c9ba14c3c93f1a55cdaec66e1a015f2a2b370bffee643458b0bc817a8526024e7f833efc623305d8dc996fe0374",
      "networkId": 0,
      "chainId": 0
    }
  ]
}