{
  "hash": "0xf7c9fb5c03921c58daf9fde3530bf465d3b07006c2770bf50f482a49524ba9cf",
  "parentHash": "0xb0bbadca2258a91880ea4e62089020cacd72549a450b9e90ce5b9a3b9e3d6efe",
  "number": 54295,
  "timestamp": 1439051844,
  "nonce": "0x3d289ea9dfb3f264",
  "difficulty": 1604749850507,
  "gasLimit": {
    "_hex": "0x2fefd8"
  },
  "gasUsed": {
    "_hex": "0x5208"
  },
  "miner": "0xf927a40C8B7F6E07c5af7FA2155B4864a4112B13",
  "extraData": "0x",
  "transactions": [
    {
      "hash": "0x482ed5de9bd2b705e9d39a4ce20e5cbff84c70bbc9933e8f31ee0201743b2175",
      "blockHash": "0xf7c9fb5c03921c58daf9fde3530bf465d3b07006c2770bf50f482a49524ba9cf",
      "blockNumber": 54295,
      "transactionIndex": 0,
      "confirmations": null,
      "from": "0x88c7F66b99e7f9235A092a57AfAB243B0F9A6364",
      "gasPrice": {
        "_hex": "0xcf832b8f8"
      },
      "gasLimit": {
        "_hex": "0x5208"
      },
      "to": "0x32Be343B94f860124dC4fEe278FDCBD38C102D88",
      "value": {
        "_hex": "0xddc8ecb06067800"
      },
      "nonce": 0,
      "data": "0x",
      "r": "0xb5b5ce4fa9fa2e97d443f76400dcf7079aca7dec9ab56ff816892f80d58c2e74",
      "s": "0x21a3735ab97992287a73731f0b0f587fe1aa4dda51533bb8b1167d8324219b83",
      "v": 27,
      "creates": null,
      "raw": "0xf86c80850cf832b8f88252089432be343b94f860124dc4fee278fdcbd38c102d88880ddc8ecb06067800801ba0b5b5ce4fa9fa2e97d443f76400dcf7079aca7dec9ab56ff816892f80d58c2e74a021a3735ab97992287a73731f0b0f587fe1aa4dda51533bb8b1167d8324219b83",
      "networkId": 0,
      "chainId": 0
    }
  ]
}