{
  "hash": "0x26cb95b0aaacd519e3e2d5e7da702fd61dd04cef11cfcbfd00b4c795d7949bcb",
  "parentHash": "0xd99a4af63fa76aae02f92f2f5b53a5e5e63bd1757c0cf57f5b69260c8d16e14b",
  "number": 73782,
  "timestamp": 1439374957,
  "nonce": "0xc576ac6b7761b2e7",
  "difficulty": 2219551255773,
  "gasLimit": {
    "_hex": "0x2fefd8"
  },
  "gasUsed": {
    "_hex": "0x5208"
  },
  "miner": "0x55bAf64fc9eAccFFd7Cc643BB61142E1C6ac093e",
  "extraData": "0x",
  "transactions": [
    {
      "hash": "0x431f9bb4b92c5fae85ad43253f33802197764f6cada1811ec80cac6d096448a1",
      "blockHash": "0x26cb95b0aaacd519e3e2d5e7da702fd61dd04cef11cfcbfd00b4c795d7949bcb",
      "blockNumber": 73782,
      "transactionIndex": 0,
      "confirmations": null,
      "from": "0x2910543Af39abA0Cd09dBb2D50200b3E800A63D2",
      "gasPrice": {
        "_hex": "0xccb7c7647"
      },
      "gasLimit": {
        "_hex": "0x5208"
      },
      "to": "0xCb75F1f9cC69e3B1A27b8d9C08bB73A58Ede24bE",
      "value": {
        "_hex": "0x22bcd36c16adac84000"
      },
      "nonce": 292,
      "data": "0x",
      "r": "0x46736a73a59f9244568ea6ea2b4a35a1287204e850cd3ca4294028144c35a248",
      "s": "0x328faa11c4ac996686e6b9c7bfb8d5c921d9f5312a5315a78db615c43ed4beb6",
      "v": 27,
      "creates": null,
      "raw": "0xf870820124850ccb7c764782520894cb75f1f9cc69e3b1a27b8d9c08bb73a58ede24be8a022bcd36c16adac84000801ba046736a73a59f9244568ea6ea2b4a35a1287204e850cd3ca4294028144c35a248a0328faa11c4ac996686e6b9c7bfb8d5c921d9f5312a5315a78db615c43ed4beb6",
      "networkId": 0,
      "chainId": 0
    }
  ]
}