{
  "hash": "0xf49d7aa6d5ba342b702a58196bcb8dd32c7efa5628748d1500d116d1db01dffa",
  "parentHash": "0x8063355463ec6a8ba07a41eaa67d64e63cf0fcdb376da1f259be080e01b7d494",
  "number": 53113,
  "timestamp": 1439032598,
  "nonce": "0x81be73cda0f139f1",
  "difficulty": 1575470731060,
  "gasLimit": {
    "_hex": "0x1fd0fa"
  },
  "gasUsed": {
    "_hex": "0x5208"
  },
  "miner": "0xeB1325C8D9d3ea8D74aC11F4B00F1B2367686319",
  "extraData": "0x476574682f76312e302e312f77696e646f77732f676f312e342e32",
  "transactions": [
    {
      "hash": "0x1d3c6cde30a941aa37bebcead20af11e8a9498306fe34e26487ad4fca8ab3d8e",
      "blockHash": "0xf49d7aa6d5ba342b702a58196bcb8dd32c7efa5628748d1500d116d1db01dffa",
      "blockNumber": 53113,
      "transactionIndex": 0,
      "confirmations": null,
      "from": "0x09d6CEFd75b0c4b3F8f1D687A522C96123F1F539",
      "gasPrice": {
        "_hex": "0x107d04d200a"
      },
      "gasLimit": {
        "_hex": "0x5208"
      },
      "to": "0x09BFb16C3f990AabAF72B06b7042C71B3bDcB4F6",
      "value": {
        "_hex": "0x6c6b935b8bbd400000"
      },
      "nonce": 3,
      "data": "0x",
      "r": "0x88dce165c25c454cc986d203178f6093d310e7155718d2ad1367fa5f28e6c815",
      "s": "0x3c5c28b9fa61955fa637410bba9bea2b1746e88cd45488083b06817893a162d2",
      "v": 28,
      "creates": null,
      "raw": "0xf86e03860107d04d200a8252089409bfb16c3f990aabaf72b06b7042c71b3bdcb4f6896c6b935b8bbd400000801ca088dce165c25c454cc986d203178f6093d310e7155718d2ad1367fa5f28e6c815a03c5c28b9fa61955fa637410bba9bea2b1746e88cd45488083b06817893a162d2",
      "networkId": 0,
      "chainId": 0
    }
  ]
}