{
  "hash": "0x4e30b475260a5a851ba99c74a39f86373ff8f6a4af102f0d066309d1d8ab4700",
  "parentHash": "0x3f3f35a90bf0d32d9b18041ce6fdcd94f8a8786eafbca45188fcb38bd9380a14",
  "number": 120076,
  "timestamp": 1440153583,
  "nonce": "0x1ed7692c3052d1eb",
  "difficulty": 4411299115912,
  "gasLimit": {
    "_hex": "0x2fefd8"
  },
  "gasUsed": {
    "_hex": "0x5208"
  },
  "miner": "0xe6A7a1d47ff21B6321162AEA7C6CB457D5476Bca",
  "extraData": "0xd783010002844765746887676f312e342e32856c696e7578",
  "transactions": [
    {
      "hash": "0x70e2fa2870986ab0d87ff3464e9356792ee11409121dfa0f111528cb97d24d5d",
      "blockHash": "0x4e30b475260a5a851ba99c74a39f86373ff8f6a4af102f0d066309d1d8ab4700",
      "blockNumber": 120076,
      "transactionIndex": 0,
      "confirmations": null,
      "from": "0x744Df4ED8BaC8eBCa76964a93358c3A67a89b003",
      "gasPrice": {
        "_hex": "0xba43b7400"
      },
      "gasLimit": {
        "_hex": "0x5266"
      },
      "to": "0x08FE5A3C0709cF74d76cFd0e0Cd9d2A447eA263C",
      "value": {
        "_hex": "0xac5cb4322e5a0000"
      },
      "nonce": 6,
      "data": "0x",
      "r": "0x702d1c647282a1d98cb14507d4df40641de6d792677fb9c7a81a1aa7da50b1c4",
      "s": "0xe5fcff8f9321f7d9d45622a64d3635201555d68582d8cc22a24fd8f8470defe4",
      "v": 28,
      "creates": null,
      "raw": "0xf86c06850ba43b74008252669408fe5a3c0709cf74d76cfd0e0cd9d2a447ea263c88ac5cb4322e5a0000801ca0702d1c647282a1d98cb14507d4df40641de6d792677fb9c7a81a1aa7da50b1c4a0e5fcff8f9321f7d9d45622a64d3635201555d68582d8cc22a24fd8f8470defe4",
      "networkId": 0,
      "chainId": 0
    }
  ]
}