{
  "hash": "0x9fcf8e0b4d4fc480ead2aae50f4f9ab22eb15e4b6284dc6d223d539fc6cc0ab3",
  "parentHash": "0xbb2f17719be7a1fec2c18f5e6a50cb04846f2b9be361c33e37108a030e08365c",
  "number": 57340,
  "timestamp": 1439101604,
  "nonce": "0x35a35155bbc59dfb",
  "difficulty": 1738758422679,
  "gasLimit": {
    "_hex": "0x2fefd8"
  },
  "gasUsed": {
    "_hex": "0x5208"
  },
  "miner": "0xf927a40C8B7F6E07c5af7FA2155B4864a4112B13",
  "extraData": "0x476574682f76312e302e312f6c696e75782f676f312e342e32",
  "transactions": [
    {
      "hash": "0xff7629a6fba659ce9d03ef06c22a18a3bde24d48acd350b79d2b07e7a8792bf1",
      "blockHash": "0x9fcf8e0b4d4fc480ead2aae50f4f9ab22eb15e4b6284dc6d223d539fc6cc0ab3",
      "blockNumber": 57340,
      "transactionIndex": 0,
      "confirmations": null,
      "from": "0xa8a97ab562BC801a2C5f47b58ED0f7b0C3076a1c",
      "gasPrice": {
        "_hex": "0x746a528800"
      },
      "gasLimit": {
        "_hex": "0x5b04"
      },
      "to": "0xa8a97ab562BC801a2C5f47b58ED0f7b0C3076a1c",
      "value": {
        "_hex": "0x55759c5f9edb0000"
      },
      "nonce": 4,
      "data": "0x",
      "r": "0x97da1c6b691fda7c6778d0cce38e46a924d0bc66805e6bb07d613102798c6eeb",
      "s": "0x801d6b979def01d2c51b067e3bd0a22c530b1efbb7eca3fc175fb124b3f4431c",
      "v": 27,
      "creates": null,
      "raw": "0xf86c0485746a528800825b0494a8a97ab562bc801a2c5f47b58ed0f7b0c3076a1c8855759c5f9edb0000801ba097da1c6b691fda7c6778d0cce38e46a924d0bc66805e6bb07d613102798c6eeba0801d6b979def01d2c51b067e3bd0a22c530b1efbb7eca3fc175fb124b3f4431c",
      "networkId": 0,
      "chainId": 0
    }
  ]
}