{
  "hash": "0xdaee53da1d5c09f3408901bb00981fcb511b2fba07e8a10821d2fc52688fd555",
  "parentHash": "0x681577cab0e54c26369be15598b5b1047640cb76d65bf039d2ef67e0465ba70e",
  "number": 83294,
  "timestamp": 1439533243,
  "nonce": "0x72d6d74063a42153",
  "difficulty": 2415988756472,
  "gasLimit": {
    "_hex": "0x2fefd8"
  },
  "gasUsed": {
    "_hex": "0x5208"
  },
  "miner": "0x9746c7e1ef2bd21FF3997fa467593a89cb852BD0",
  "extraData": "0x476574682f76312e302e312f77696e646f77732f676f312e342e32",
  "transactions": [
    {
      "hash": "0x0cabe3425d8dc1844049fc96f7b0681167239e95fb91894f7370850af641a208",
      "blockHash": "0xdaee53da1d5c09f3408901bb00981fcb511b2fba07e8a10821d2fc52688fd555",
      "blockNumber": 83294,
      "transactionIndex": 0,
      "confirmations": null,
      "from": "0x6DE55b563cE6E319cCB403032Da3BE5Ad4ec4FcF",
      "gasPrice": {
        "_hex": "0xdea58e22f"
      },
      "gasLimit": {
        "_hex": "0x55f0"
      },
      "to": "0x931Ac2444b057f80A06A4FB627f26FFA5CE41184",
      "value": {
        "_hex": "0x16b6cb080af8ac0000"
      },
      "nonce": 1,
      "data": "0x",
      "r": "0x71059451ed0a1dfc65d443a61f178ad40a8aee98b3689b5a0fa5242c7b094825",
      "s": "0x3a0c96ef8f82b6f7e7f3a92c0e66f9252a5fb6fa4c9544b728aefea1bbd6b52d",
      "v": 28,
      "creates": null,
      "raw": "0xf86d01850dea58e22f8255f094931ac2444b057f80a06a4fb627f26ffa5ce411848916b6cb080af8ac0000801ca071059451ed0a1dfc65d443a61f178ad40a8aee98b3689b5a0fa5242c7b094825a03a0c96ef8f82b6f7e7f3a92c0e66f9252a5fb6fa4c9544b728aefea1bbd6b52d",
      "networkId": 0,
      "chainId": 0
    }
  ]
}