{
  "hash": "0xc6c78990c45c14f42984ed4a261fe4f77f1c7eaafaf965e7a4852e76efbd14be",
  "parentHash": "0xa084c625d4d6a9fb882ab7f679cfccbd7d6d30f749255522ef85de4759e3697a",
  "number": 107289,
  "timestamp": 1439919789,
  "nonce": "0xcb7bcb063e0d3810",
  "difficulty": 4420186283715,
  "gasLimit": {
    "_hex": "0x2fefd8"
  },
  "gasUsed": {
    "_hex": "0xba90"
  },
  "miner": "0x580992B51e3925e23280EfB93d3047C82f17E038",
  "extraData": "0x476574682f76312e302e312f6c696e75782f676f312e342e32",
  "transactions": [
    {
      "hash": "0xd8b256241ece79bbf5081616fdb5de80c5a06cda609a064672bd2b8f5c519865",
      "blockHash": "0xc6c78990c45c14f42984ed4a261fe4f77f1c7eaafaf965e7a4852e76efbd14be",
      "blockNumber": 107289,
      "transactionIndex": 0,
      "confirmations": null,
      "from": "0xc469E0161968f12A38E4c1A1c153a18207e040c8",
      "gasPrice": {
        "_hex": "0xda38702bd"
      },
      "gasLimit": {
        "_hex": "0x15f90"
      },
      "to": "0x4d6387f3B967dA39B11DE111158D49754C31985d",
      "value": {
        "_hex": "0x0"
      },
      "nonce": 12,
      "data": "0x26a183750000000000000000000000000000000000000000000000000000000000000001",
      "r": "0xda32f2018e73926554a5f29e1cf28180087bb5f1cdb3b2865bc7212a3b57e4ed",
      "s": "0x7c1b23614ff5f63afd8c25af90cafc693b465d7ef0e8afb2b0fdd3bfc7755306",
      "v": 28,
      "creates": null,
      "raw": "0xf8890c850da38702bd83015f90944d6387f3b967da39b11de111158d49754c31985d80a426a1837500000000000000000000000000000000000000000000000000000000000000011ca0da32f2018e73926554a5f29e1cf28180087bb5f1cdb3b2865bc7212a3b57e4eda07c1b23614ff5f63afd8c25af90cafc693b465d7ef0e8afb2b0fdd3bfc7755306",
      "networkId": 0,
      "chainId": 0
    },
    {
      "hash": "0x5639f66e028f34ef860ded25bcd2df309ef53a9472ddd7aa7f256cb9cba346fb",
      "blockHash": "0xc6c78990c45c14f42984ed4a261fe4f77f1c7eaafaf965e7a4852e76efbd14be",
      "blockNumber": 107289,
      "transactionIndex": 1,
      "confirmations": null,
      "from": "0x97A2b04809Fd7Dfa5C1d7B25e38Aad46964330F5",
      "gasPrice": {
        "_hex": "0xba43b7400"
      },
      "gasLimit": {
        "_hex": "0x15f90"
      },
      "to": "0x7892e574CADDBB5E9491DE9F26C1F2747F442eeE",
      "value": {
        "_hex": "0x38d7ea4c68000"
      },
      "nonce": 0,
      "data": "0x",
      "r": "0x9817e0990a984d0d1cb62d7f3deb451314a8ca6b02c5282cdeec701efa3b5cd4",
      "s": "0x2c6c3bf4a8a470ec533fdaf3ca005ab1711aa4b2d51572138f8deb723a6b5307",
      "v": 27,
      "creates": null,
      "raw": "0xf86c80850ba43b740083015f90947892e574caddbb5e9491de9f26c1f2747f442eee87038d7ea4c68000801ba09817e0990a984d0d1cb62d7f3deb451314a8ca6b02c5282cdeec701efa3b5cd4a02c6c3bf4a8a470ec533fdaf3ca005ab1711aa4b2d51572138f8deb723a6b5307",
      "networkId": 0,
      "chainId": 0
    }
  ]
}