{
  "hash": "0xb0a62d0d1680ac1c273b0883fede7f545f255063e9f83a5e52f13b1d2f2feae3",
  "parentHash": "0xafa3b5c88d4ad63aafcd9dc6199e8dc71cb0251e734fd22ba9eb337375a48bc0",
  "number": 46851,
  "timestamp": 1438930310,
  "nonce": "0x545b9b743fa22eef",
  "difficulty": 1458160320870,
  "gasLimit": {
    "_hex": "0x7f2a"
  },
  "gasUsed": {
    "_hex": "0x5208"
  },
  "miner": "0xf32866D5cE9a9b5673e076be48AbCd6ED48ADe78",
  "extraData": "0x476574682f76312e302e312d38326566323666362f6c696e75782f676f312e34",
  "transactions": [
    {
      "hash": "0xdfaa5915539c6694fd30f26727f8ffc0118d2ed1e07318c53bee0d0014f38f4a",
      "blockHash": "0xb0a62d0d1680ac1c273b0883fede7f545f255063e9f83a5e52f13b1d2f2feae3",
      "blockNumber": 46851,
      "transactionIndex": 0,
      "confirmations": null,
      "from": "0xFd1356C729AbA6307fdddAF2abF89c2563bBc1bF",
      "gasPrice": {
        "_hex": "0xd7e8e5537"
      },
      "gasLimit": {
        "_hex": "0x5208"
      },
      "to": "0x32Be343B94f860124dC4fEe278FDCBD38C102D88",
      "value": {
        "_hex": "0x8ac2c5778e979000"
      },
      "nonce": 0,
      "data": "0x",
      "r": "0x5f14f56d0ca425db13afa02b221ffae555209830b87936fa723309df655c3ee7",
      "s": "0x53a4afd347a09524fccbf3e71cec78caf188f87e164fc02f86ce143e6f53ae49",
      "v": 28,
      "creates": null,
      "raw": "0xf86c80850d7e8e55378252089432be343b94f860124dc4fee278fdcbd38c102d88888ac2c5778e979000801ca05f14f56d0ca425db13afa02b221ffae555209830b87936fa723309df655c3ee7a053a4afd347a09524fccbf3e71cec78caf188f87e164fc02f86ce143e6f53ae49",
      "networkId": 0,
      "chainId": 0
    }
  ]
}