{
  "hash": "0x967ad29c9dec2c27f68a7b0203693bb06977801f6d72bc5e3bd5404f2ba423e4",
  "parentHash": "0xd9027d36f8d42be8ead034218b511ed0cb881d7debca7290966d4e2642243ffa",
  "number": 121889,
  "timestamp": 1440184434,
  "nonce": "0x37d0e1a2696d9e6c",
  "difficulty": 4473241265084,
  "gasLimit": {
    "_hex": "0x2fefd8"
  },
  "gasUsed": {
    "_hex": "0x33450"
  },
  "miner": "0xe6A7a1d47ff21B6321162AEA7C6CB457D5476Bca",
  "extraData": "0xd783010002844765746887676f312e342e32856c696e7578",
  "transactions": [
    {
      "hash": "0x978f3df71ede6f62e14a40e53ae60f71f9f724a583a2d59679801aa1d044b26a",
      "blockHash": "0x967ad29c9dec2c27f68a7b0203693bb06977801f6d72bc5e3bd5404f2ba423e4",
      "blockNumber": 121889,
      "transactionIndex": 0,
      "confirmations": null,
      "from": "0x6111E933E5e6297DFd0AAd9aAB64017c69062a08",
      "gasPrice": {
        "_hex": "0xd36daec70"
      },
      "gasLimit": {
        "_hex": "0x5208"
      },
      "to": "0x32Be343B94f860124dC4fEe278FDCBD38C102D88",
      "value": {
        "_hex": "0x485b7d2253d04800"
      },
      "nonce": 22,
      "data": "0x",
      "r": "0xa7100ab6a1c30a27a99ed7b9ac5e070594a86824305d030be62b83e503e9fbf1",
      "s": "0x644210fcb3aa7ef7de9eeaeaaa5c4a87353a09527e1e790493b424f2f61a1dfe",
      "v": 28,
      "creates": null,
      "raw": "0xf86c16850d36daec708252089432be343b94f860124dc4fee278fdcbd38c102d8888485b7d2253d04800801ca0a7100ab6a1c30a27a99ed7b9ac5e070594a86824305d030be62b83e503e9fbf1a0644210fcb3aa7ef7de9eeaeaaa5c4a87353a09527e1e790493b424f2f61a1dfe",
      "networkId": 0,
      "chainId": 0
    },
    {
      "hash": "0x988567b8d1eaee4f19ad975d3fd6c8c021d516ca840fd553ae710421d72cbec7",
      "blockHash": "0x967ad29c9dec2c27f68a7b0203693bb06977801f6d72bc5e3bd5404f2ba423e4",
      "blockNumber": 121889,
      "transactionIndex": 1,
      "confirmations": null,
      "from": "0xD9a9A8ec148D2B0F7Cd8B2700013A9AA5cf89910",
      "gasPrice": {
        "_hex": "0xd36daec70"
      },
      "gasLimit": {
        "_hex": "0x5208"
      },
      "to": "0x32Be343B94f860124dC4fEe278FDCBD38C102D88",
      "value": {
        "_hex": "0x1c79ea6d34ac1800"
      },
      "nonce": 13,
      "data": "0x",
      "r": "0xb57123c01636e2ce27ad2675b009cdb9a0fc2a6f7a3e7be86aca49391599489a",
      "s": "0x793b28ad797640fa65daaa3804d15cd835306ebd82eaa6d86e9b19e58374be3c",
      "v": 27,
      "creates": null,
      "raw": "0xf86c0d850d36daec708252089432be343b94f860124dc4fee278fdcbd38c102d88881c79ea6d34ac1800801ba0b57123c01636e2ce27ad2675b009cdb9a0fc2a6f7a3e7be86aca49391599489aa0793b28ad797640fa65daaa3804d15cd835306ebd82eaa6d86e9b19e58374be3c",
      "networkId": 0,
      "chainId": 0
    },
    {
      "hash": "0x387092cad7fb2301579ed1dd6cdc377c934a9a5a2932929529f5daef7729e2ea",
      "blockHash": "0x967ad29c9dec2c27f68a7b0203693bb06977801f6d72bc5e3bd5404f2ba423e4",
      "blockNumber": 121889,
      "transactionIndex": 2,
      "confirmations": null,
      "from": "0xD924AAC0bCB65C13bE4044f6BeA8aAe34D7a7126",
      "gasPrice": {
        "_hex": "0xd36daec70"
      },
      "gasLimit": {
        "_hex": "0x5208"
      },
      "to": "0x32Be343B94f860124dC4fEe278FDCBD38C102D88",
      "value": {
        "_hex": "0x52087a09002cb400"
      },
      "nonce": 14,
      "data": "0x",
      "r": "0x2b1b24c627f0f6ffb86e01edb1f00a06adb43e3afa8e3739f2a7768838889177",
      "s": "0x7988651cbe580319993edab62aae8a123970f8011cf98bcfc966b3b347b5fed9",
      "v": 28,
      "creates": null,
      "raw": "0xf86c0e850d36daec708252089432be343b94f860124dc4fee278fdcbd38c102d888852087a09002cb400801ca02b1b24c627f0f6ffb86e01edb1f00a06adb43e3afa8e3739f2a7768838889177a07988651cbe580319993edab62aae8a123970f8011cf98bcfc966b3b347b5fed9",
      "networkId": 0,
      "chainId": 0
    },
    {
      "hash": "0x6bba16e6cf4777c0c7d434a439cc0d5512dab801cd5a796a4859fbc85719bc92",
      "blockHash": "0x967ad29c9dec2c27f68a7b0203693bb06977801f6d72bc5e3bd5404f2ba423e4",
      "blockNumber": 121889,
      "transactionIndex": 3,
      "confirmations": null,
      "from": "0xCadcea36EC3feB740167E4370777fab1549F8759",
      "gasPrice": {
        "_hex": "0xd36daec70"
      },
      "gasLimit": {
        "_hex": "0x5208"
      },
      "to": "0x32Be343B94f860124dC4fEe278FDCBD38C102D88",
      "value": {
        "_hex": "0x1bd24966cc843400"
      },
      "nonce": 15,
      "data": "0x",
      "r": "0x6a0275a5e39e9b780f3ac846454d84b5a4f2d73cdf097bee7050e853b1b6a878",
      "s": "0x13880d163b9db2c44654110d9832403e7ee96234de380bdce30ee4690f6b63f3",
      "v": 27,
      "creates": null,
      "raw": "0xf86c0f850d36daec708252089432be343b94f860124dc4fee278fdcbd38c102d88881bd24966cc843400801ba06a0275a5e39e9b780f3ac846454d84b5a4f2d73cdf097bee7050e853b1b6a878a013880d163b9db2c44654110d9832403e7ee96234de380bdce30ee4690f6b63f3",
      "networkId": 0,
      "chainId": 0
    },
    {
      "hash": "0x2fb86f7f50994971897c124759fb7d1ad4043e39d1ab4439896957dbd9accfe0",
      "blockHash": "0x967ad29c9dec2c27f68a7b0203693bb06977801f6d72bc5e3bd5404f2ba423e4",
      "blockNumber": 121889,
      "transactionIndex": 4,
      "confirmations": null,
      "from": "0xe7523F78ae9eDb81dC7B2A9ca718Ba3776C14f2e",
      "gasPrice": {
        "_hex": "0xd36daec70"
      },
      "gasLimit": {
        "_hex": "0x5208"
      },
      "to": "0x32Be343B94f860124dC4fEe278FDCBD38C102D88",
      "value": {
        "_hex": "0x67a6f3d0c38b9c00"
      },
      "nonce": 13,
      "data": "0x",
      "r": "0x2e21b5a02ca913e0de2aba3778bc9d96bf0c4dd78f2f11d813de518891b2755e",
      "s": "0x41a0af4ef84a1f0fb080d8116cbf4f3ee1329f3c94cb0926df67efdc47328cdc",
      "v": 28,
      "creates": null,
      "raw": "0xf86c0d850d36daec708252089432be343b94f860124dc4fee278fdcbd38c102d888867a6f3d0c38b9c00801ca02e21b5a02ca913e0de2aba3778bc9d96bf0c4dd78f2f11d813de518891b2755ea041a0af4ef84a1f0fb080d8116cbf4f3ee1329f3c94cb0926df67efdc47328cdc",
      "networkId": 0,
      "chainId": 0
    },
    {
      "hash": "0xa888d6bc0ff1e29555bb5c44d4a8cd7b90666f82e8d1d3446c470f01b79843de",
      "blockHash": "0x967ad29c9dec2c27f68a7b0203693bb06977801f6d72bc5e3bd5404f2ba423e4",
      "blockNumber": 121889,
      "transactionIndex": 5,
      "confirmations": null,
      "from": "0xBDda295a4aa9E3A60063548157510B47c6BE932f",
      "gasPrice": {
        "_hex": "0xd36daec70"
      },
      "gasLimit": {
        "_hex": "0x5208"
      },
      "to": "0x32Be343B94f860124dC4fEe278FDCBD38C102D88",
      "value": {
        "_hex": "0x2546b02e24796800"
      },
      "nonce": 13,
      "data": "0x",
      "r": "0x5a5c0891cc31a5ec2dd1b866c55e5eddb21b2d41bbe92fd865a2f2ed74fa156a",
      "s": "0x66dfbda68a0fcf7411bec3e993abeab9d6d06fe3d1e49be86ba28d79cc8b0341",
      "v": 28,
      "creates": null,
      "raw": "0xf86c0d850d36daec708252089432be343b94f860124dc4fee278fdcbd38c102d88882546b02e24796800801ca05a5c0891cc31a5ec2dd1b866c55e5eddb21b2d41bbe92fd865a2f2ed74fa156aa066dfbda68a0fcf7411bec3e993abeab9d6d06fe3d1e49be86ba28d79cc8b0341",
      "networkId": 0,
      "chainId": 0
    },
    {
      "hash": "0xf6878e934a791b4d684bc83358423d2e3365121e529478f3ba2cdca81f38260b",
      "blockHash": "0x967ad29c9dec2c27f68a7b0203693bb06977801f6d72bc5e3bd5404f2ba423e4",
      "blockNumber": 121889,
      "transactionIndex": 6,
      "confirmations": null,
      "from": "0xbb30e448B72d6Fdd44973A4C7a312F92f22C8F07",
      "gasPrice": {
        "_hex": "0xd36daec70"
      },
      "gasLimit": {
        "_hex": "0x5208"
      },
      "to": "0x32Be343B94f860124dC4fEe278FDCBD38C102D88",
      "value": {
        "_hex": "0x3034a267f5e12800"
      },
      "nonce": 18,
      "data": "0x",
      "r": "0x5a59e8645ca2683a7d0bac7d73e095cd5b1c1062dfc7c8df3642d683fccd9bdb",
      "s": "0x4fadfcafd1b84704439552a63488f4104176be289a1f43237503476cd07d556d",
      "v": 27,
      "creates": null,
      "raw": "0xf86c12850d36daec708252089432be343b94f860124dc4fee278fdcbd38c102d88883034a267f5e12800801ba05a59e8645ca2683a7d0bac7d73e095cd5b1c1062dfc7c8df3642d683fccd9bdba04fadfcafd1b84704439552a63488f4104176be289a1f43237503476cd07d556d",
      "networkId": 0,
      "chainId": 0
    },
    {
      "hash": "0xeb3d7e4c5cd6cc70d3e964f23a8cc80968c7277041a10a8df31ee9ecc1c90107",
      "blockHash": "0x967ad29c9dec2c27f68a7b0203693bb06977801f6d72bc5e3bd5404f2ba423e4",
      "blockNumber": 121889,
      "transactionIndex": 7,
      "confirmations": null,
      "from": "0x1c69e6202df7794272b70FaEa8f7408c856B1f08",
      "gasPrice": {
        "_hex": "0xd36daec70"
      },
      "gasLimit": {
        "_hex": "0x5208"
      },
      "to": "0x32Be343B94f860124dC4fEe278FDCBD38C102D88",
      "value": {
        "_hex": "0x1c49b0ed6465f000"
      },
      "nonce": 14,
      "data": "0x",
      "r": "0x3cc9ea19f1e1b83d2c3efbe80656fd69c37d0e589acb4d0e325d7450a5fc58c3",
      "s": "0x6e06f1a4365d76ea2fc5176abd8a2af3167b5ed1af5b33330c33efeaa12f9009",
      "v": 27,
      "creates": null,
      "raw": "0xf86c0e850d36daec708252089432be343b94f860124dc4fee278fdcbd38c102d88881c49b0ed6465f000801ba03cc9ea19f1e1b83d2c3efbe80656fd69c37d0e589acb4d0e325d7450a5fc58c3a06e06f1a4365d76ea2fc5176abd8a2af3167b5ed1af5b33330c33efeaa12f9009",
      "networkId": 0,
      "chainId": 0
    },
    {
      "hash": "0x7ec54c2a6f518a68216a8b3dc7e850fbbeba2fbbdf12e954bf982441852ecff5",
      "blockHash": "0x967ad29c9dec2c27f68a7b0203693bb06977801f6d72bc5e3bd5404f2ba423e4",
      "blockNumber": 121889,
      "transactionIndex": 8,
      "confirmations": null,
      "from": "0xB89C0F465b0472fa5A58eCDd01eD937205ae4d06",
      "gasPrice": {
        "_hex": "0xd36daec70"
      },
      "gasLimit": {
        "_hex": "0x5208"
      },
      "to": "0x32Be343B94f860124dC4fEe278FDCBD38C102D88",
      "value": {
        "_hex": "0x1f02a34938331800"
      },
      "nonce": 15,
      "data": "0x",
      "r": "0xa3c9a86f9d8250423256311d13d305d1644d634c231580a60784ce034c6ad849",
      "s": "0x76c3a0da7ab4c28a60dfc9b28e289d3c7928b5231663abf5a65fad36257ad9f4",
      "v": 28,
      "creates": null,
      "raw": "0xf86c0f850d36daec708252089432be343b94f860124dc4fee278fdcbd38c102d88881f02a34938331800801ca0a3c9a86f9d8250423256311d13d305d1644d634c231580a60784ce034c6ad849a076c3a0da7ab4c28a60dfc9b28e289d3c7928b5231663abf5a65fad36257ad9f4",
      "networkId": 0,
      "chainId": 0
    },
    {
      "hash": "0xfe9ac330e16e061626009ee3bf4d58e4f7115d97ffc9266d771dd8a6c1f7ef36",
      "blockHash": "0x967ad29c9dec2c27f68a7b0203693bb06977801f6d72bc5e3bd5404f2ba423e4",
      "blockNumber": 121889,
      "transactionIndex": 9,
      "confirmations": null,
      "from": "0xe6A7a1d47ff21B6321162AEA7C6CB457D5476Bca",
      "gasPrice": {
        "_hex": "0xba43b7400"
      },
      "gasLimit": {
        "_hex": "0x55f0"
      },
      "to": "0x3131059fec5c802096c71004E5C3E87f67ED96d0",
      "value": {
        "_hex": "0xdf111d1ce1e3e6b0"
      },
      "nonce": 6701,
      "data": "0x",
      "r": "0xd7aad9671e5d59acdfb0649d0fad5b86802d512e4294775c76dedbb1a1269cb6",
      "s": "0x13140ab4008d550f1a0ec00d7d2751c4d75880c048f50d36734b7e4cba164a7a",
      "v": 27,
      "creates": null,
      "raw": "0xf86e821a2d850ba43b74008255f0943131059fec5c802096c71004e5c3e87f67ed96d088df111d1ce1e3e6b0801ba0d7aad9671e5d59acdfb0649d0fad5b86802d512e4294775c76dedbb1a1269cb6a013140ab4008d550f1a0ec00d7d2751c4d75880c048f50d36734b7e4cba164a7a",
      "networkId": 0,
      "chainId": 0
    }
  ]
}