{
  "hash": "0xa4c8956d712dfd6ac792ba050c965f638c90a9613cef1172a12d283a53ab328e",
  "parentHash": "0x19a9fd54dd8d9c1f0887d37503955334368436fe6801ae1e519268b9ed5a77da",
  "number": 53961,
  "timestamp": 1439046377,
  "nonce": "0x976516c98968ddb2",
  "difficulty": 1606381712886,
  "gasLimit": {
    "_hex": "0x2fefd5"
  },
  "gasUsed": {
    "_hex": "0x19c8c"
  },
  "miner": "0x0eDEd3DA479d0beF8eeC92A76644D3f4E3C177f7",
  "extraData": "0x476574682f76312e302e312f6c696e75782f676f312e342e32",
  "transactions": [
    {
      "hash": "0xb5693bfce6aa3f11e4d925aac53327ca4572a084d6c236c6b5552b8e5958e389",
      "blockHash": "0xa4c8956d712dfd6ac792ba050c965f638c90a9613cef1172a12d283a53ab328e",
      "blockNumber": 53961,
      "transactionIndex": 0,
      "confirmations": null,
      "from": "0xA61887818F914A20E31077290B83715A6b2d6eF9",
      "gasPrice": {
        "_hex": "0xe23b0ce6a"
      },
      "gasLimit": {
        "_hex": "0x15f90"
      },
      "to": "0xe8D649ccD65bFFbe7BeFD589C5130bCe1FAdEa07",
      "value": {
        "_hex": "0x65ea1a3062d69f0000"
      },
      "nonce": 0,
      "data": "0x",
      "r": "0x6bc31d15941ab2717bdf285d382a62b406fd46f3782b7d420262dc3d44718370",
      "s": "0x0928fd2b87ba0809d6a8dd6c8655b6c18190f982927ad403acc34502b1c23c7e",
      "v": 27,
      "creates": null,
      "raw": "0xf86e80850e23b0ce6a83015f9094e8d649ccd65bffbe7befd589c5130bce1fadea078965ea1a3062d69f0000801ba06bc31d15941ab2717bdf285d382a62b406fd46f3782b7d420262dc3d44718370a00928fd2b87ba0809d6a8dd6c8655b6c18190f982927ad403acc34502b1c23c7e",
      "networkId": 0,
      "chainId": 0
    },
    {
      "hash": "0x3ecf5977357948c1ee5cae9edf4969cac58c8fe81eff822b04d38b983cbbe6a4",
      "blockHash": "0xa4c8956d712dfd6ac792ba050c965f638c90a9613cef1172a12d283a53ab328e",
      "blockNumber": 53961,
      "transactionIndex": 1,
      "confirmations": null,
      "from": "0x50851F0A477440DdfD402D389A84CA4a91A52AD6",
      "gasPrice": {
        "_hex": "0xd6efc17af"
      },
      "gasLimit": {
        "_hex": "0x5208"
      },
      "to": "0x32Be343B94f860124dC4fEe278FDCBD38C102D88",
      "value": {
        "_hex": "0x1158a02aff2507000"
      },
      "nonce": 2,
      "data": "0x",
      "r": "0xe02fc3f54653bc85e74f6d95188bef81b8b2dd9b1bc299f1bbda9263057f23cc",
      "s": "0x4b11ffdb27a1fc84b71ba9ec2cfcef4724881afa4933a4aff90aad4f8b12f0ef",
      "v": 27,
      "creates": null,
      "raw": "0xf86d02850d6efc17af8252089432be343b94f860124dc4fee278fdcbd38c102d888901158a02aff2507000801ba0e02fc3f54653bc85e74f6d95188bef81b8b2dd9b1bc299f1bbda9263057f23cca04b11ffdb27a1fc84b71ba9ec2cfcef4724881afa4933a4aff90aad4f8b12f0ef",
      "networkId": 0,
      "chainId": 0
    },
    {
      "hash": "0x04ebfd43e45594d668efc889e0b99a1c4d8c6fae4fc1edb83d774c57640d85e5",
      "blockHash": "0xa4c8956d712dfd6ac792ba050c965f638c90a9613cef1172a12d283a53ab328e",
      "blockNumber": 53961,
      "transactionIndex": 2,
      "confirmations": null,
      "from": "0x86d3856ad0105B9d4199936c1fd203664BA325dC",
      "gasPrice": {
        "_hex": "0xd6efc17af"
      },
      "gasLimit": {
        "_hex": "0x5208"
      },
      "to": "0x32Be343B94f860124dC4fEe278FDCBD38C102D88",
      "value": {
        "_hex": "0x455f4389ad343400"
      },
      "nonce": 1,
      "data": "0x",
      "r": "0xc0d0fac16518adb27ce05db505380ed2de1d3a9919e2a825a9d95ebeaa1f6623",
      "s": "0x75407f49fbd57c84ec53b8ddad24431fff2065d4a91a244f42ee09a112132f4f",
      "v": 28,
      "creates": null,
      "raw": "0xf86c01850d6efc17af8252089432be343b94f860124dc4fee278fdcbd38c102d8888455f4389ad343400801ca0c0d0fac16518adb27ce05db505380ed2de1d3a9919e2a825a9d95ebeaa1f6623a075407f49fbd57c84ec53b8ddad24431fff2065d4a91a244f42ee09a112132f4f",
      "networkId": 0,
      "chainId": 0
    },
    {
      "hash": "0xc5ad9370b8f966b5b4f9625f0dda837f6c085b20072074047f42b9d926d67bb0",
      "blockHash": "0xa4c8956d712dfd6ac792ba050c965f638c90a9613cef1172a12d283a53ab328e",
      "blockNumber": 53961,
      "transactionIndex": 3,
      "confirmations": null,
      "from": "0xeEdc88E60ca35E52381d99aE64711EB55960b67F",
      "gasPrice": {
        "_hex": "0xd6efc17af"
      },
      "gasLimit": {
        "_hex": "0x5208"
      },
      "to": "0x32Be343B94f860124dC4fEe278FDCBD38C102D88",
      "value": {
        "_hex": "0xddc68bb0fa43400"
      },
      "nonce": 0,
      "data": "0x",
      "r": "0x03f17cd7236ec278b9e5b93d58de87733fca998e8bfef7f24e29da6540a2467c",
      "s": "0x2ecc8592fc7a32e4ca4ab652365da6ad9ad0fe959fc8f6ead8417bcb67db1844",
      "v": 28,
      "creates": null,
      "raw": "0xf86c80850d6efc17af8252089432be343b94f860124dc4fee278fdcbd38c102d88880ddc68bb0fa43400801ca003f17cd7236ec278b9e5b93d58de87733fca998e8bfef7f24e29da6540a2467ca02ecc8592fc7a32e4ca4ab652365da6ad9ad0fe959fc8f6ead8417bcb67db1844",
      "networkId": 0,
      "chainId": 0
    },
    {
      "hash": "0xb0a7df7ad97bcbf85f7aff26eb2cfff12b3b2739f62edbf1842389c1eb3edaca",
      "blockHash": "0xa4c8956d712dfd6ac792ba050c965f638c90a9613cef1172a12d283a53ab328e",
      "blockNumber": 53961,
      "transactionIndex": 4,
      "confirmations": null,
      "from": "0xaFCc7DBB8356D842d43Ae7E23c8422b022A30803",
      "gasPrice": {
        "_hex": "0xcc9e01bd5"
      },
      "gasLimit": {
        "_hex": "0x15f90"
      },
      "to": "0x2910543Af39abA0Cd09dBb2D50200b3E800A63D2",
      "value": {
        "_hex": "0x21e19e0c9bab2400000"
      },
      "nonce": 3,
      "data": "0x454e305133425a4847",
      "r": "0xc5543f21c9d7792cc35ae9c4933766e5ce6e8b8706841a43607d95936b7c43ce",
      "s": "0x0528469deda3d97f1668ea7a054279bb4ccc427013b21867eb9daebe73621683",
      "v": 28,
      "creates": null,
      "raw": "0xf87803850cc9e01bd583015f90942910543af39aba0cd09dbb2d50200b3e800a63d28a021e19e0c9bab240000089454e305133425a48471ca0c5543f21c9d7792cc35ae9c4933766e5ce6e8b8706841a43607d95936b7c43cea00528469deda3d97f1668ea7a054279bb4ccc427013b21867eb9daebe73621683",
      "networkId": 0,
      "chainId": 0
    }
  ]
}