{
  "hash": "0x97a703fc440aec8fe18cf8c2aa5c9e61c1e491183e0dd4a23f95b0038bca2c25",
  "parentHash": "0x2d31033b438aa2e783abe3afbb92b3e32c2aa14e9a2dbf49221dade91b8cc7c0",
  "number": 84385,
  "timestamp": 1439548975,
  "nonce": "0x8452ada235c7f085",
  "difficulty": 2552706973987,
  "gasLimit": {
    "_hex": "0x2fefd5"
  },
  "gasUsed": {
    "_hex": "0xf618"
  },
  "miner": "0xe6A7a1d47ff21B6321162AEA7C6CB457D5476Bca",
  "extraData": "0x476574682f76312e302e312d38326566323666362f6c696e75782f676f312e34",
  "transactions": [
    {
      "hash": "0x8f23f29e29aa66f58eeed808f252083b1dd606005d00c1bf54dee646a30f8693",
      "blockHash": "0x97a703fc440aec8fe18cf8c2aa5c9e61c1e491183e0dd4a23f95b0038bca2c25",
      "blockNumber": 84385,
      "transactionIndex": 0,
      "confirmations": null,
      "from": "0xe6A7a1d47ff21B6321162AEA7C6CB457D5476Bca",
      "gasPrice": {
        "_hex": "0xceb834c83"
      },
      "gasLimit": {
        "_hex": "0x55f0"
      },
      "to": "0x4245FB34599786Dd82dB47c0f4f2B276001a72CF",
      "value": {
        "_hex": "0x12f6a128d131d540"
      },
      "nonce": 1936,
      "data": "0x",
      "r": "0x03c7cf00432b1464e2f83a268cccfcfd653b7f07fe301707e11d71ff10166843",
      "s": "0x621c83ead5ea44d585e267ad05756f001b464b6af5786d7319ba0ab0d8affc31",
      "v": 28,
      "creates": null,
      "raw": "0xf86e820790850ceb834c838255f0944245fb34599786dd82db47c0f4f2b276001a72cf8812f6a128d131d540801ca003c7cf00432b1464e2f83a268cccfcfd653b7f07fe301707e11d71ff10166843a0621c83ead5ea44d585e267ad05756f001b464b6af5786d7319ba0ab0d8affc31",
      "networkId": 0,
      "chainId": 0
    },
    {
      "hash": "0x4ec2fc01adf997d92a1f54bd063fb5c71b11af20a8cd863b39a3675919e04ec4",
      "blockHash": "0x97a703fc440aec8fe18cf8c2aa5c9e61c1e491183e0dd4a23f95b0038bca2c25",
      "blockNumber": 84385,
      "transactionIndex": 1,
      "confirmations": null,
      "from": "0xe6A7a1d47ff21B6321162AEA7C6CB457D5476Bca",
      "gasPrice": {
        "_hex": "0xceb834c83"
      },
      "gasLimit": {
        "_hex": "0x55f0"
      },
      "to": "0x144BC9FE471D3C71D8e09D58060d78661B1D4F32",
      "value": {
        "_hex": "0x2a10303149337680"
      },
      "nonce": 1937,
      "data": "0x",
      "r": "0x8d307c985c9d345bbb3ac9acce8112f328396c6764dce7e4de71a6f8655f198f",
      "s": "0x3e82aff662022e49d43795da5f4e4340788c43779bf92f73842233dbd1796f71",
      "v": 27,
      "creates": null,
      "raw": "0xf86e820791850ceb834c838255f094144bc9fe471d3c71d8e09d58060d78661b1d4f32882a10303149337680801ba08d307c985c9d345bbb3ac9acce8112f328396c6764dce7e4de71a6f8655f198fa03e82aff662022e49d43795da5f4e4340788c43779bf92f73842233dbd1796f71",
      "networkId": 0,
      "chainId": 0
    },
    {
      "hash": "0x6d5d29adad20b2f964ccee2cee9a392765916f9895772603fb0499c1c5f1f1ee",
      "blockHash": "0x97a703fc440aec8fe18cf8c2aa5c9e61c1e491183e0dd4a23f95b0038bca2c25",
      "blockNumber": 84385,
      "transactionIndex": 2,
      "confirmations": null,
      "from": "0xe6A7a1d47ff21B6321162AEA7C6CB457D5476Bca",
      "gasPrice": {
        "_hex": "0xceb834c83"
      },
      "gasLimit": {
        "_hex": "0x55f0"
      },
      "to": "0xF928B4834e4E886e04630Af5b4Ea8eBf46Fb205b",
      "value": {
        "_hex": "0x2c1c805c440fedee0"
      },
      "nonce": 1938,
      "data": "0x",
      "r": "0xe356ddcec955576d79ba05bc23a1b22ead63443457bd204a5a959bfede0efe24",
      "s": "0x04df6885059230585525c7d00cf25f274711e21c4f0edbcf6ac67f89ccd33fe5",
      "v": 28,
      "creates": null,
      "raw": "0xf86f820792850ceb834c838255f094f928b4834e4e886e04630af5b4ea8ebf46fb205b8902c1c805c440fedee0801ca0e356ddcec955576d79ba05bc23a1b22ead63443457bd204a5a959bfede0efe24a004df6885059230585525c7d00cf25f274711e21c4f0edbcf6ac67f89ccd33fe5",
      "networkId": 0,
      "chainId": 0
    }
  ]
}