{
  "hash": "0x6a9c37812ff7cc66c5d94239b45c47cf27c5b98e40c48b2d5542da646db72213",
  "parentHash": "0xa805c12b77d45df8c9a2b030cd5ff4a8580058433caf59cb909b66c122f57d70",
  "number": 72245,
  "timestamp": 1439349719,
  "nonce": "0x6c89a240e812574b",
  "difficulty": 2171711584186,
  "gasLimit": {
    "_hex": "0x2fefd8"
  },
  "gasUsed": {
    "_hex": "0xaec1"
  },
  "miner": "0x9271AB1be3177bF3E3B684a8783698F1B9D600a2",
  "extraData": "0x476574682f76312e302e312f77696e646f77732f676f312e342e32",
  "transactions": [
    {
      "hash": "0xef6389ed119c4e2d169a416e920bf2b110015d14ae68ef3916c7d23c4789fefc",
      "blockHash": "0x6a9c37812ff7cc66c5d94239b45c47cf27c5b98e40c48b2d5542da646db72213",
      "blockNumber": 72245,
      "transactionIndex": 0,
      "confirmations": null,
      "from": "0x17580B766f7453525ca4C6A88b01b50570EA088C",
      "gasPrice": {
        "_hex": "0xd3ad4105c"
      },
      "gasLimit": {
        "_hex": "0x61a80"
      },
      "to": "0x5Fe5B7546D1628f7348B023A0393de1FC825A4fD",
      "value": {
        "_hex": "0x8ac7230489e80000"
      },
      "nonce": 413,
      "data": "0xb595b8b50000000000000000000000000000000000000000000000000000000000000001",
      "r": "0xac2fc864ef5a050f316e4d0c5be711cbaaa6a3b3ffce0856042d20d7f7d929b9",
      "s": "0x784e670d0c2e12958f257b77a56bd08598e141f2da0d483550f8e24082bd4bed",
      "v": 27,
      "creates": null,
      "raw": "0xf89382019d850d3ad4105c83061a80945fe5b7546d1628f7348b023a0393de1fc825a4fd888ac7230489e80000a4b595b8b500000000000000000000000000000000000000000000000000000000000000011ba0ac2fc864ef5a050f316e4d0c5be711cbaaa6a3b3ffce0856042d20d7f7d929b9a0784e670d0c2e12958f257b77a56bd08598e141f2da0d483550f8e24082bd4bed",
      "networkId": 0,
      "chainId": 0
    }
  ]
}