{
  "hash": "0xfa28a7eb54de50d8d618917ffd8c66ca8309b168aa46628e80274bb1ad55be67",
  "parentHash": "0xc81eda6c1194be9e0c21f75e6e3e381f9b9b0b9686e19db4067967daf7a3830f",
  "number": 114701,
  "timestamp": 1440044796,
  "nonce": "0x88ecef206900087e",
  "difficulty": 4481450203299,
  "gasLimit": {
    "_hex": "0x2fefd8"
  },
  "gasUsed": {
    "_hex": "0xa410"
  },
  "miner": "0x52bc44d5378309EE2abF1539BF71dE1b7d7bE3b5",
  "extraData": "0x476574682f76312e302e312d65626434373230372f6c696e75782f676f312e34",
  "transactions": [
    {
      "hash": "0x69118db79849e2f02455a2ac224aa85071baa0183409cdc983ff686ce1abd8ee",
      "blockHash": "0xfa28a7eb54de50d8d618917ffd8c66ca8309b168aa46628e80274bb1ad55be67",
      "blockNumber": 114701,
      "transactionIndex": 0,
      "confirmations": null,
      "from": "0x0c5aa6cDcC0582B50e5D76B1aA092071b5c3eC74",
      "gasPrice": {
        "_hex": "0xdb74224fe"
      },
      "gasLimit": {
        "_hex": "0x15f90"
      },
      "to": "0x0a856CdC3EaFBAD120c51220d0F71d4Aa2Dee7AE",
      "value": {
        "_hex": "0x2e8f5ab9756f80000"
      },
      "nonce": 0,
      "data": "0x",
      "r": "0x3b8695b7fde9050856461a11fd9f858ea3d2fd27503c9bdd2bf2475e2f74c867",
      "s": "0x1604d63030557170af592ea9ab022826cff7b5c42865e761798f49fdf35df653",
      "v": 28,
      "creates": null,
      "raw": "0xf86e80850db74224fe83015f90940a856cdc3eafbad120c51220d0f71d4aa2dee7ae8902e8f5ab9756f80000801ca03b8695b7fde9050856461a11fd9f858ea3d2fd27503c9bdd2bf2475e2f74c867a01604d63030557170af592ea9ab022826cff7b5c42865e761798f49fdf35df653",
      "networkId": 0,
      "chainId": 0
    },
    {
      "hash": "0x5320693503ec7d09a74ed1e6334571ef3570ed9afe0f3c2eea03c5de247501d0",
      "blockHash": "0xfa28a7eb54de50d8d618917ffd8c66ca8309b168aa46628e80274bb1ad55be67",
      "blockNumber": 114701,
      "transactionIndex": 1,
      "confirmations": null,
      "from": "0x0D3111E6CfA28bc8745057bD71E0D10FEB4C7AE7",
      "gasPrice": {
        "_hex": "0xdb74224fe"
      },
      "gasLimit": {
        "_hex": "0x15f90"
      },
      "to": "0x0a856CdC3EaFBAD120c51220d0F71d4Aa2Dee7AE",
      "value": {
        "_hex": "0x2ba78145719690000"
      },
      "nonce": 0,
      "data": "0x",
      "r": "0x7ef0efa40ab4cf08ac141145eb515183603fd0ebac4535e7863782d789e79199",
      "s": "0x6cd9d7e987a7ebf8eb26f0e3ad4e1db6adbea5a3cb42b4a78dea11578ca1d1f1",
      "v": 28,
      "creates": null,
      "raw": "0xf86e80850db74224fe83015f90940a856cdc3eafbad120c51220d0f71d4aa2dee7ae8902ba78145719690000801ca07ef0efa40ab4cf08ac141145eb515183603fd0ebac4535e7863782d789e79199a06cd9d7e987a7ebf8eb26f0e3ad4e1db6adbea5a3cb42b4a78dea11578ca1d1f1",
      "networkId": 0,
      "chainId": 0
    }
  ]
}