{
  "hash": "0xb105b6aab5ac8765e235fc6e4b91f663a1f323cd03a69e76fcc70a21e6530dc7",
  "parentHash": "0x8cc34cfe4e1c5cc49eb8f7d6242f5f7a84da3539b5ab68faedee634776ee5b47",
  "number": 47206,
  "timestamp": 1438936040,
  "nonce": "0x9b406386663e9624",
  "difficulty": 1461662774205,
  "gasLimit": {
    "_hex": "0xa2bf"
  },
  "gasUsed": {
    "_hex": "0x5208"
  },
  "miner": "0x5F8F73E26CdF436f19Cb24C82F90A15AFe55b592",
  "extraData": "0x476574682f76312e302e312f77696e646f77732f676f312e342e32",
  "transactions": [
    {
      "hash": "0x14df8cf6c3eea37c2af1917cccf78d379b4b7f6ea6c01e572e3d2c051404a938",
      "blockHash": "0xb105b6aab5ac8765e235fc6e4b91f663a1f323cd03a69e76fcc70a21e6530dc7",
      "blockNumber": 47206,
      "transactionIndex": 0,
      "confirmations": null,
      "from": "0xe6A7a1d47ff21B6321162AEA7C6CB457D5476Bca",
      "gasPrice": {
        "_hex": "0xdcd483506"
      },
      "gasLimit": {
        "_hex": "0x5208"
      },
      "to": "0x0C9A9E318c2FbF98388cCC81141392c066fbbC19",
      "value": {
        "_hex": "0x56d60b6db261f1b8"
      },
      "nonce": 72,
      "data": "0x",
      "r": "0x82af118ce9772b6fcf3a41ca61cbde2a983037dbada3b67e38496b20f3bc8693",
      "s": "0x50c6ba33fbf80002b6dd297c221554550c3c8e0ac90e57f6b4649eb346532cd6",
      "v": 28,
      "creates": null,
      "raw": "0xf86c48850dcd483506825208940c9a9e318c2fbf98388ccc81141392c066fbbc198856d60b6db261f1b8801ca082af118ce9772b6fcf3a41ca61cbde2a983037dbada3b67e38496b20f3bc8693a050c6ba33fbf80002b6dd297c221554550c3c8e0ac90e57f6b4649eb346532cd6",
      "networkId": 0,
      "chainId": 0
    }
  ]
}