{
  "hash": "0x71d3e2ce5e235ea6be665b3737e74de7b75093c50a66e77b4c0d96700a544aff",
  "parentHash": "0xc8835790a7c41dc2bfda9bd9c498e9013d4c8903662895e30ba918ce06eca008",
  "number": 72475,
  "timestamp": 1439353139,
  "nonce": "0xe8639c83e9f000b6",
  "difficulty": 2205850586924,
  "gasLimit": {
    "_hex": "0x2fefd8"
  },
  "gasUsed": {
    "_hex": "0x5208"
  },
  "miner": "0xc8ebccC5F5689Fa8659d83713341e5aD19349448",
  "extraData": "0x476574682f76312e302e312f6c696e75782f676f312e342e32",
  "transactions": [
    {
      "hash": "0xd500af651dbcbeaf128e776f67948f0d8efbca96e411d8e58e08fb409746cc23",
      "blockHash": "0x71d3e2ce5e235ea6be665b3737e74de7b75093c50a66e77b4c0d96700a544aff",
      "blockNumber": 72475,
      "transactionIndex": 0,
      "confirmations": null,
      "from": "0x1308A2e95c0160B90803ddCA9B9a5bb55E416d79",
      "gasPrice": {
        "_hex": "0x9184e72a000"
      },
      "gasLimit": {
        "_hex": "0x15f90"
      },
      "to": "0x3ADae6DC6D92773Ae29A2b571B02b9358FB226d8",
      "value": {
        "_hex": "0x446129db7d7db400"
      },
      "nonce": 117,
      "data": "0x",
      "r": "0x99dcc4b1c0a808b5cb63a99634eda9a4791428ee8edd0c294e107d14f0ec44a4",
      "s": "0x2bec09301cfa9039bff2ccbae11bc6480837f25dd45f0f86f3e012203e9db211",
      "v": 28,
      "creates": null,
      "raw": "0xf86e758609184e72a00083015f90943adae6dc6d92773ae29a2b571b02b9358fb226d888446129db7d7db400801ca099dcc4b1c0a808b5cb63a99634eda9a4791428ee8edd0c294e107d14f0ec44a4a02bec09301cfa9039bff2ccbae11bc6480837f25dd45f0f86f3e012203e9db211",
      "networkId": 0,
      "chainId": 0
    }
  ]
}