{
  "hash": "0xc6827d283b9960264b44a311837f18345648cee40b615df1b021d3ff32d4ea51",
  "parentHash": "0x2dd506d6333f8587667cd52c01e50b904a51f8fa898f3faf532f201cefb37c73",
  "number": 47937,
  "timestamp": 1438948590,
  "nonce": "0xdf754329fc09c927",
  "difficulty": 1465107968762,
  "gasLimit": {
    "_hex": "0x10a20"
  },
  "gasUsed": {
    "_hex": "0xa410"
  },
  "miner": "0x9746c7e1ef2bd21FF3997fa467593a89cb852BD0",
  "extraData": "0x476574682f76312e302e312f77696e646f77732f676f312e342e32",
  "transactions": [
    {
      "hash": "0x6a9eac20d0dd46d4bcc18d27569e626c9e911a8899e9382a752af00a55f86fc2",
      "blockHash": "0xc6827d283b9960264b44a311837f18345648cee40b615df1b021d3ff32d4ea51",
      "blockNumber": 47937,
      "transactionIndex": 0,
      "confirmations": null,
      "from": "0xBB33a4b72d92FA335a3b591Ce7eE217f7a7338C1",
      "gasPrice": {
        "_hex": "0xda2637971"
      },
      "gasLimit": {
        "_hex": "0x5208"
      },
      "to": "0x32Be343B94f860124dC4fEe278FDCBD38C102D88",
      "value": {
        "_hex": "0xddc58427f864800"
      },
      "nonce": 0,
      "data": "0x",
      "r": "0xd0b1625311e5f92c690efaad5600db00c33f5eb13ce5dbbec252fd38d32ca929",
      "s": "0x775793e8543af2973ad096b673ab1b125646e160fc5f805d5e182300ead89a8a",
      "v": 27,
      "creates": null,
      "raw": "0xf86c80850da26379718252089432be343b94f860124dc4fee278fdcbd38c102d88880ddc58427f864800801ba0d0b1625311e5f92c690efaad5600db00c33f5eb13ce5dbbec252fd38d32ca929a0775793e8543af2973ad096b673ab1b125646e160fc5f805d5e182300ead89a8a",
      "networkId": 0,
      "chainId": 0
    },
    {
      "hash": "0x2be6711fb3c834d4539f515ca3c53ea4e733cd1bfd5e0ca470d57cfec2c93759",
      "blockHash": "0xc6827d283b9960264b44a311837f18345648cee40b615df1b021d3ff32d4ea51",
      "blockNumber": 47937,
      "transactionIndex": 1,
      "confirmations": null,
      "from": "0x7C1D0c9ad434e14754deeA395231be017047e40C",
      "gasPrice": {
        "_hex": "0xda2637971"
      },
      "gasLimit": {
        "_hex": "0x5208"
      },
      "to": "0x32Be343B94f860124dC4fEe278FDCBD38C102D88",
      "value": {
        "_hex": "0xddc58427f864800"
      },
      "nonce": 0,
      "data": "0x",
      "r": "0x1d0a7213343d8ba138d04e8a72339fa31a9f5f0cbcb70489d5f40a931fff1df8",
      "s": "0x6ffbb2bfec138c4952877374de5e20690d0a83e07003237a94fbb760d7a6f469",
      "v": 27,
      "creates": null,
      "raw": "0xf86c80850da26379718252089432be343b94f860124dc4fee278fdcbd38c102d88880ddc58427f864800801ba01d0a7213343d8ba138d04e8a72339fa31a9f5f0cbcb70489d5f40a931fff1df8a06ffbb2bfec138c4952877374de5e20690d0a83e07003237a94fbb760d7a6f469",
      "networkId": 0,
      "chainId": 0
    }
  ]
}