{
  "hash": "0x0efdead50fb4aca8c0da24c92575816594b3f9fc6bee080287619dbab73cb48c",
  "parentHash": "0x5efd00e00b14399053b890acd691be7bd4fe0d8961706f41573311172e981751",
  "number": 70501,
  "timestamp": 1439320677,
  "nonce": "0xa4725264cb8a81e5",
  "difficulty": 2148954227104,
  "gasLimit": {
    "_hex": "0x2fefd5"
  },
  "gasUsed": {
    "_hex": "0xa410"
  },
  "miner": "0x5F8F73E26CdF436f19Cb24C82F90A15AFe55b592",
  "extraData": "0x476574682f76312e302e312f77696e646f77732f676f312e342e32",
  "transactions": [
    {
      "hash": "0x5e5cc23da0c9f7cc4ea27e888e61d65fd8e1be3337d55e701fbe3873a5d230b1",
      "blockHash": "0x0efdead50fb4aca8c0da24c92575816594b3f9fc6bee080287619dbab73cb48c",
      "blockNumber": 70501,
      "transactionIndex": 0,
      "confirmations": null,
      "from": "0x649b57A861ECd8f4700b08dDF2342977420eF981",
      "gasPrice": {
        "_hex": "0xe1a62f125"
      },
      "gasLimit": {
        "_hex": "0x5208"
      },
      "to": "0x32Be343B94f860124dC4fEe278FDCBD38C102D88",
      "value": {
        "_hex": "0x14ce91500055fc000"
      },
      "nonce": 0,
      "data": "0x",
      "r": "0xf1fc4a58a2dce391386b18ab3bd7e613a8786d983b2c57dd81b97b685e1bf3fa",
      "s": "0x3e43b149527b9b3e2cdae4ef684f0585bebc0056612a527e46691c849f996802",
      "v": 28,
      "creates": null,
      "raw": "0xf86d80850e1a62f1258252089432be343b94f860124dc4fee278fdcbd38c102d8889014ce91500055fc000801ca0f1fc4a58a2dce391386b18ab3bd7e613a8786d983b2c57dd81b97b685e1bf3faa03e43b149527b9b3e2cdae4ef684f0585bebc0056612a527e46691c849f996802",
      "networkId": 0,
      "chainId": 0
    },
    {
      "hash": "0x053b32d49d66c83cb33b0f3c867d72ca172f4496eba38fb60b30b91c3384036e",
      "blockHash": "0x0efdead50fb4aca8c0da24c92575816594b3f9fc6bee080287619dbab73cb48c",
      "blockNumber": 70501,
      "transactionIndex": 1,
      "confirmations": null,
      "from": "0x7e5C0D990Aea6492841db80EF3E829a921502d17",
      "gasPrice": {
        "_hex": "0xd23ee12e2"
      },
      "gasLimit": {
        "_hex": "0x15f90"
      },
      "to": "0x0f7E5465DB8bC57940471E530a83Fb7Ac5b82d7f",
      "value": {
        "_hex": "0xb1a2bc2ec50000"
      },
      "nonce": 0,
      "data": "0x",
      "r": "0x43d41df55482b9236e66d332a384baf8d0118d053fb4f37dbb2f952e37f988bb",
      "s": "0x4fa8622814968d90405c269f2cb0bbb9de1ad216b0f7adeca5c7dda5541495fa",
      "v": 28,
      "creates": null,
      "raw": "0xf86c80850d23ee12e283015f90940f7e5465db8bc57940471e530a83fb7ac5b82d7f87b1a2bc2ec50000801ca043d41df55482b9236e66d332a384baf8d0118d053fb4f37dbb2f952e37f988bba04fa8622814968d90405c269f2cb0bbb9de1ad216b0f7adeca5c7dda5541495fa",
      "networkId": 0,
      "chainId": 0
    }
  ]
}