{
  "hash": "0x799474aecb0d6241a33c741ec161b479d4eaadd04702dcfba2c33d5fcd4c4cd6",
  "parentHash": "0x166bce201e22248c6304eeee26b0e02fdb90bd4e278f726781025189263e262c",
  "number": 53235,
  "timestamp": 1439034474,
  "nonce": "0x3fbded4e4f40946e",
  "difficulty": 1581613947219,
  "gasLimit": {
    "_hex": "0x2257e3"
  },
  "gasUsed": {
    "_hex": "0x7a120"
  },
  "miner": "0xF2d2AfF1320476cb8C6b607199D23175cc595693",
  "extraData": "0x476574682f76312e302e312f77696e646f77732f676f312e342e32",
  "transactions": [
    {
      "hash": "0xeb27f7fa7c0d13dd8eb13a72716bf286c8bd92af16eec18d5fc555abcf66b910",
      "blockHash": "0x799474aecb0d6241a33c741ec161b479d4eaadd04702dcfba2c33d5fcd4c4cd6",
      "blockNumber": 53235,
      "transactionIndex": 0,
      "confirmations": null,
      "from": "0x8674c218F0351a62C3BA78C34FD2182A93Da94E2",
      "gasPrice": {
        "_hex": "0xba43b7400"
      },
      "gasLimit": {
        "_hex": "0x7a120"
      },
      "to": "0x18991fC52465c9Cb2cA762947e855beb2ddfff72",
      "value": {
        "_hex": "0x0"
      },
      "nonce": 8,
      "data": "0xde6f24bb0000000000000000000000008674c218f0351a62c3ba78c34fd2182a93da94e20000000000000000000000000000000000000000000000000000000000000040000000000000000000000000000000000000000000000000000000000000000568656c6c6f000000000000000000000000000000000000000000000000000000",
      "r": "0x69e7155c23ec715ac906523a3e8fa29437e1e2d454e2b456f16103fa5df399fc",
      "s": "0x79bbdf302fb63dca6dbe94b2273bb9d53a219d88b778222ae694574d45a55563",
      "v": 27,
      "creates": null,
      "raw": "0xf8ea08850ba43b74008307a1209418991fc52465c9cb2ca762947e855beb2ddfff7280b884de6f24bb0000000000000000000000008674c218f0351a62c3ba78c34fd2182a93da94e20000000000000000000000000000000000000000000000000000000000000040000000000000000000000000000000000000000000000000000000000000000568656c6c6f0000000000000000000000000000000000000000000000000000001ba069e7155c23ec715ac906523a3e8fa29437e1e2d454e2b456f16103fa5df399fca079bbdf302fb63dca6dbe94b2273bb9d53a219d88b778222ae694574d45a55563",
      "networkId": 0,
      "chainId": 0
    }
  ]
}