{
  "hash": "0x42d9fdb6e13a325a1bea9ce67071c16f448f00625ab7c57b80c7e0aa6ed73e4d",
  "parentHash": "0x0b70a472f88651ec486e899156a81cf83e29aa74353f22fdd37a6210a7ca97f9",
  "number": 68977,
  "timestamp": 1439296598,
  "nonce": "0x34625402e2e066dc",
  "difficulty": 2032972333570,
  "gasLimit": {
    "_hex": "0x2fefd8"
  },
  "gasUsed": {
    "_hex": "0xa410"
  },
  "miner": "0x47ff6576639c2e94762eA5443978D7681C0E78DC",
  "extraData": "0x476574682f76312e302e312f6c696e75782f676f312e342e32",
  "transactions": [
    {
      "hash": "0xf62c0f481335dbccb8fefd000204a48f65eee496f254ce80ca2436f7e86dcb5e",
      "blockHash": "0x42d9fdb6e13a325a1bea9ce67071c16f448f00625ab7c57b80c7e0aa6ed73e4d",
      "blockNumber": 68977,
      "transactionIndex": 0,
      "confirmations": null,
      "from": "0xDb3a5789D1DC4d90F1F20D313d124dBfEe2E84a7",
      "gasPrice": {
        "_hex": "0xba43b7400"
      },
      "gasLimit": {
        "_hex": "0x5208"
      },
      "to": "0x32D6e7c7F78B3E2B7dA62bEac24Ff0691113ad31",
      "value": {
        "_hex": "0x11e4ee79bf23000"
      },
      "nonce": 1,
      "data": "0x",
      "r": "0x78437706ff9889aae94b1ee5c8bd832698ecc64cb283dc99a6b4b9c7f8a793a7",
      "s": "0x2e808324c2d7b3a1f87eb515c35e69a0f0f2f8db84de72b4f57e16502a5c1d37",
      "v": 28,
      "creates": null,
      "raw": "0xf86c01850ba43b74008252089432d6e7c7f78b3e2b7da62beac24ff0691113ad3188011e4ee79bf23000801ca078437706ff9889aae94b1ee5c8bd832698ecc64cb283dc99a6b4b9c7f8a793a7a02e808324c2d7b3a1f87eb515c35e69a0f0f2f8db84de72b4f57e16502a5c1d37",
      "networkId": 0,
      "chainId": 0
    },
    {
      "hash": "0x18e07aaaf7f9d4ccd2c15fd62717ec6fb8d339f37555173be467a8937d8d2c7f",
      "blockHash": "0x42d9fdb6e13a325a1bea9ce67071c16f448f00625ab7c57b80c7e0aa6ed73e4d",
      "blockNumber": 68977,
      "transactionIndex": 1,
      "confirmations": null,
      "from": "0x29539dfB246bb1eb36757774f3Ee9D2C314B5004",
      "gasPrice": {
        "_hex": "0xba43b7400"
      },
      "gasLimit": {
        "_hex": "0x5208"
      },
      "to": "0x34be093Ff4157023B3Fe77a6cD5b00333f2D58CF",
      "value": {
        "_hex": "0x11e4ee79bf23000"
      },
      "nonce": 1,
      "data": "0x",
      "r": "0xbdf753e2457d399ea39413c17c93c0a3898cb7f63d0bb91e3cbfdf095ef5c8e0",
      "s": "0x67047a94ded81cacb4e56dbbf9a6c30c92707d8a63ce96e798eed6122079699c",
      "v": 27,
      "creates": null,
      "raw": "0xf86c01850ba43b74008252089434be093ff4157023b3fe77a6cd5b00333f2d58cf88011e4ee79bf23000801ba0bdf753e2457d399ea39413c17c93c0a3898cb7f63d0bb91e3cbfdf095ef5c8e0a067047a94ded81cacb4e56dbbf9a6c30c92707d8a63ce96e798eed6122079699c",
      "networkId": 0,
      "chainId": 0
    }
  ]
}