{
  "hash": "0xff9a01c26dad1cd4b3fc88e28e3d62bf4fe07c4c3d6e49c396fff973480f16d3",
  "parentHash": "0x49da668a2da1156eb7488bdf7a73bf6f50b7956fab4ab021efe661b50cda4880",
  "number": 109780,
  "timestamp": 1439962235,
  "nonce": "0x22b7512e7512bbd2",
  "difficulty": 4451357517607,
  "gasLimit": {
    "_hex": "0x2fefd8"
  },
  "gasUsed": {
    "_hex": "0x5208"
  },
  "miner": "0xe6A7a1d47ff21B6321162AEA7C6CB457D5476Bca",
  "extraData": "0x476574682f76312e302e312d38326566323666362f6c696e75782f676f312e34",
  "transactions": [
    {
      "hash": "0xc47be279f773c65a1983b2558f6958d5b89698ef11c2c8624ca0040cb4f3e198",
      "blockHash": "0xff9a01c26dad1cd4b3fc88e28e3d62bf4fe07c4c3d6e49c396fff973480f16d3",
      "blockNumber": 109780,
      "transactionIndex": 0,
      "confirmations": null,
      "from": "0x32Be343B94f860124dC4fEe278FDCBD38C102D88",
      "gasPrice": {
        "_hex": "0xd8b2eb47b"
      },
      "gasLimit": {
        "_hex": "0x5208"
      },
      "to": "0x9010245ce84719A3F83c85072ea496e51c00066E",
      "value": {
        "_hex": "0x487a9a304539440000"
      },
      "nonce": 1281,
      "data": "0x",
      "r": "0xcf33f8e4bcce1b494b99e74ee1b318c319f46a9d181063d89ce7885a5ff88c2f",
      "s": "0x4a79cef31c883d071fb324e2cbec35e9943ed2418ae83860ad35e57853ae53b8",
      "v": 27,
      "creates": null,
      "raw": "0xf86f820501850d8b2eb47b825208949010245ce84719a3f83c85072ea496e51c00066e89487a9a304539440000801ba0cf33f8e4bcce1b494b99e74ee1b318c319f46a9d181063d89ce7885a5ff88c2fa04a79cef31c883d071fb324e2cbec35e9943ed2418ae83860ad35e57853ae53b8",
      "networkId": 0,
      "chainId": 0
    }
  ]
}