{
  "hash": "0xee445cc146ab2c3698a57e2c97f19aea91d4d48830b308f6b31af92d1c7e87b1",
  "parentHash": "0x8767ba06c8387a53421b04e99762c5a5d6fbc5296b14a83572c2fec06ccb5a22",
  "number": 121687,
  "timestamp": 1440181017,
  "nonce": "0xb4a10006855382d5",
  "difficulty": 4473348983276,
  "gasLimit": {
    "_hex": "0x2fefd8"
  },
  "gasUsed": {
    "_hex": "0x1ec30"
  },
  "miner": "0xe6A7a1d47ff21B6321162AEA7C6CB457D5476Bca",
  "extraData": "0xd783010002844765746887676f312e342e32856c696e7578",
  "transactions": [
    {
      "hash": "0x0ffc49ffb72bab01e30aa6f55ea2df2f80b44055dc795c33414351ef92a066e7",
      "blockHash": "0xee445cc146ab2c3698a57e2c97f19aea91d4d48830b308f6b31af92d1c7e87b1",
      "blockNumber": 121687,
      "transactionIndex": 0,
      "confirmations": null,
      "from": "0x1E550f4ecF22cBCb73da4fc090FBf5a5c748b0F1",
      "gasPrice": {
        "_hex": "0xdc6a1b34f"
      },
      "gasLimit": {
        "_hex": "0x5208"
      },
      "to": "0x32Be343B94f860124dC4fEe278FDCBD38C102D88",
      "value": {
        "_hex": "0xd1a43338ff2fe000"
      },
      "nonce": 12,
      "data": "0x",
      "r": "0x32257eb8000c64b4d95d99832f86b4b1a866fc7d958d1474f65428d32bf8d5e0",
      "s": "0x7756637b3b7eba55236e26cdfec14fcf6136e2f186acceb5a0d5bdadff215163",
      "v": 27,
      "creates": null,
      "raw": "0xf86c0c850dc6a1b34f8252089432be343b94f860124dc4fee278fdcbd38c102d8888d1a43338ff2fe000801ba032257eb8000c64b4d95d99832f86b4b1a866fc7d958d1474f65428d32bf8d5e0a07756637b3b7eba55236e26cdfec14fcf6136e2f186acceb5a0d5bdadff215163",
      "networkId": 0,
      "chainId": 0
    },
    {
      "hash": "0x5186fe432e9db58bff347c7a0d2e715aabc8e94bcbc1c27c9a7e6f29140df754",
      "blockHash": "0xee445cc146ab2c3698a57e2c97f19aea91d4d48830b308f6b31af92d1c7e87b1",
      "blockNumber": 121687,
      "transactionIndex": 1,
      "confirmations": null,
      "from": "0xabceA603089850F8f6bB612A9031554D90A247CF",
      "gasPrice": {
        "_hex": "0xdc6a1b34f"
      },
      "gasLimit": {
        "_hex": "0x5208"
      },
      "to": "0x32Be343B94f860124dC4fEe278FDCBD38C102D88",
      "value": {
        "_hex": "0x9dc65500813cc000"
      },
      "nonce": 38,
      "data": "0x",
      "r": "0x3ba8a1e6d4730823a748f2e34eb09dff1bca10fa7008af0fcb84cd32a9ca9112",
      "s": "0x7de36303ce8f56aba859cd9598325589989e7550351298e1944809d0cb8145f8",
      "v": 28,
      "creates": null,
      "raw": "0xf86c26850dc6a1b34f8252089432be343b94f860124dc4fee278fdcbd38c102d88889dc65500813cc000801ca03ba8a1e6d4730823a748f2e34eb09dff1bca10fa7008af0fcb84cd32a9ca9112a07de36303ce8f56aba859cd9598325589989e7550351298e1944809d0cb8145f8",
      "networkId": 0,
      "chainId": 0
    },
    {
      "hash": "0x5c77716ff1880e8e0236ceb51b674ce5b312a722ff94dbe1706bb4438094d4ea",
      "blockHash": "0xee445cc146ab2c3698a57e2c97f19aea91d4d48830b308f6b31af92d1c7e87b1",
      "blockNumber": 121687,
      "transactionIndex": 2,
      "confirmations": null,
      "from": "0x8F79f76381Aad7B98C19aF55eE75fdfEeb012211",
      "gasPrice": {
        "_hex": "0xdc6a1b34f"
      },
      "gasLimit": {
        "_hex": "0x5208"
      },
      "to": "0x32Be343B94f860124dC4fEe278FDCBD38C102D88",
      "value": {
        "_hex": "0xa15405479377a0000"
      },
      "nonce": 55,
      "data": "0x",
      "r": "0xe5ae198f3f361e2f0b5394a20e314052637b4718f74c1d3a3cd55e010dc64402",
      "s": "0x048d2506bdba8eca2f1828d018e0ba7142fd0174120d07a97c3fc13dc20edc11",
      "v": 28,
      "creates": null,
      "raw": "0xf86d37850dc6a1b34f8252089432be343b94f860124dc4fee278fdcbd38c102d88890a15405479377a0000801ca0e5ae198f3f361e2f0b5394a20e314052637b4718f74c1d3a3cd55e010dc64402a0048d2506bdba8eca2f1828d018e0ba7142fd0174120d07a97c3fc13dc20edc11",
      "networkId": 0,
      "chainId": 0
    },
    {
      "hash": "0x186fef88220421925e4144ddc0ad2eb6e26f3cff70f1248ebf872477f3ae561b",
      "blockHash": "0xee445cc146ab2c3698a57e2c97f19aea91d4d48830b308f6b31af92d1c7e87b1",
      "blockNumber": 121687,
      "transactionIndex": 3,
      "confirmations": null,
      "from": "0x63738Ec4C9adec404749B5747F3bbE2147de632F",
      "gasPrice": {
        "_hex": "0xdab27a5d9"
      },
      "gasLimit": {
        "_hex": "0x15f90"
      },
      "to": "0x557C2806B6ceA65a66F415bb2Ed1ce897B340745",
      "value": {
        "_hex": "0x8ac7230489e80000"
      },
      "nonce": 62,
      "data": "0x",
      "r": "0x26015f965e769a9e4ae867b5d0f661cce75a09441eaa1e714cef1c62b0ac256f",
      "s": "0x6452efef7f14298706b4dc311bcd912127272c4dec8cf74a942c6469d0b207b0",
      "v": 27,
      "creates": null,
      "raw": "0xf86d3e850dab27a5d983015f9094557c2806b6cea65a66f415bb2ed1ce897b340745888ac7230489e80000801ba026015f965e769a9e4ae867b5d0f661cce75a09441eaa1e714cef1c62b0ac256fa06452efef7f14298706b4dc311bcd912127272c4dec8cf74a942c6469d0b207b0",
      "networkId": 0,
      "chainId": 0
    },
    {
      "hash": "0x2c7855bfcd42b1536d6261398423d7ec50ceb01ea35bac1c7cdf08ea09a00909",
      "blockHash": "0xee445cc146ab2c3698a57e2c97f19aea91d4d48830b308f6b31af92d1c7e87b1",
      "blockNumber": 121687,
      "transactionIndex": 4,
      "confirmations": null,
      "from": "0x63738Ec4C9adec404749B5747F3bbE2147de632F",
      "gasPrice": {
        "_hex": "0xd80d16483"
      },
      "gasLimit": {
        "_hex": "0x15f90"
      },
      "to": "0x557C2806B6ceA65a66F415bb2Ed1ce897B340745",
      "value": {
        "_hex": "0x8ac7230489e80000"
      },
      "nonce": 63,
      "data": "0x",
      "r": "0x51deef655daac0185d11e4a060148e10579ad3200237bd4d26a50ce4793efdf0",
      "s": "0x6f4fb98325f7ab69a08ea017364fbe617786b9690b3dfc4e22af18a4c6b4c5c6",
      "v": 27,
      "creates": null,
      "raw": "0xf86d3f850d80d1648383015f9094557c2806b6cea65a66f415bb2ed1ce897b340745888ac7230489e80000801ba051deef655daac0185d11e4a060148e10579ad3200237bd4d26a50ce4793efdf0a06f4fb98325f7ab69a08ea017364fbe617786b9690b3dfc4e22af18a4c6b4c5c6",
      "networkId": 0,
      "chainId": 0
    },
    {
      "hash": "0x4b0f404831b5d4838272804d8c013741c0892c3328c76cad3658004544cbdf9a",
      "blockHash": "0xee445cc146ab2c3698a57e2c97f19aea91d4d48830b308f6b31af92d1c7e87b1",
      "blockNumber": 121687,
      "transactionIndex": 5,
      "confirmations": null,
      "from": "0x63738Ec4C9adec404749B5747F3bbE2147de632F",
      "gasPrice": {
        "_hex": "0xd0b214c4c"
      },
      "gasLimit": {
        "_hex": "0x15f90"
      },
      "to": "0x557C2806B6ceA65a66F415bb2Ed1ce897B340745",
      "value": {
        "_hex": "0x8ac7230489e80000"
      },
      "nonce": 64,
      "data": "0x",
      "r": "0x8ecc085b67aea3179922c325caea9a503ffe53f6d73428c15521c026ef210ca7",
      "s": "0x1c8b76ae5985d363d6a2ad4c0aa880766e2aecf510ded866fb85ea2c4b3cf911",
      "v": 27,
      "creates": null,
      "raw": "0xf86d40850d0b214c4c83015f9094557c2806b6cea65a66f415bb2ed1ce897b340745888ac7230489e80000801ba08ecc085b67aea3179922c325caea9a503ffe53f6d73428c15521c026ef210ca7a01c8b76ae5985d363d6a2ad4c0aa880766e2aecf510ded866fb85ea2c4b3cf911",
      "networkId": 0,
      "chainId": 0
    }
  ]
}