{
  "hash": "0x67c6fd7bbcd49aa27feb9943688e874d9cbe7013f158aad5a0051ae48a03208f",
  "parentHash": "0x75070e9c384be5c7781943527dd6aa63605a7de37c8b5a60c3dce393e3e69caf",
  "number": 101517,
  "timestamp": 1439824127,
  "nonce": "0x1284e88c89c9ad36",
  "difficulty": 3865551185266,
  "gasLimit": {
    "_hex": "0x2fefd8"
  },
  "gasUsed": {
    "_hex": "0x5208"
  },
  "miner": "0x9D49F602b0fdb924Bd63DDE2Bd0907E4A07c63a7",
  "extraData": "0x476574682f76312e302e312f6c696e75782f676f312e342e32",
  "transactions": [
    {
      "hash": "0x9e22697a31dc2e9486fc4ae4dab8b6e370e2743545de14b408b3391c782c3fc1",
      "blockHash": "0x67c6fd7bbcd49aa27feb9943688e874d9cbe7013f158aad5a0051ae48a03208f",
      "blockNumber": 101517,
      "transactionIndex": 0,
      "confirmations": null,
      "from": "0xb1abce2918E21ddb93AA452731a12672A3d9F75a",
      "gasPrice": {
        "_hex": "0xd2198803f"
      },
      "gasLimit": {
        "_hex": "0x5208"
      },
      "to": "0x32Be343B94f860124dC4fEe278FDCBD38C102D88",
      "value": {
        "_hex": "0x455f5143174b2800"
      },
      "nonce": 92,
      "data": "0x",
      "r": "0xb99fed1f51abbd0f946b3ec77c1f3f72881fc074f543a3e05a7efd67aadae514",
      "s": "0x50e0a3c2bcb86b038069b9ba15730e64798ad6a624a8a6a283cf137ee158c7f7",
      "v": 28,
      "creates": null,
      "raw": "0xf86c5c850d2198803f8252089432be343b94f860124dc4fee278fdcbd38c102d8888455f5143174b2800801ca0b99fed1f51abbd0f946b3ec77c1f3f72881fc074f543a3e05a7efd67aadae514a050e0a3c2bcb86b038069b9ba15730e64798ad6a624a8a6a283cf137ee158c7f7",
      "networkId": 0,
      "chainId": 0
    }
  ]
}