{
  "hash": "0xa8174c6511f88ecb15f93083ba9d4a7757aa9dc29652040238bac1bd2dc1b3b1",
  "parentHash": "0xf7e0feb0be68c2111394cbeaba33a62f5e23ba69e9348ebb226d748876c9d5e2",
  "number": 82352,
  "timestamp": 1439517902,
  "nonce": "0x7fa345880b694ea2",
  "difficulty": 2371840491547,
  "gasLimit": {
    "_hex": "0x2fefd8"
  },
  "gasUsed": {
    "_hex": "0x5208"
  },
  "miner": "0xf927a40C8B7F6E07c5af7FA2155B4864a4112B13",
  "extraData": "0x",
  "transactions": [
    {
      "hash": "0x15b5c97dd5af5b0f5bdef28658eccd2cb03f1e4bd36f05f825b7c282423a608e",
      "blockHash": "0xa8174c6511f88ecb15f93083ba9d4a7757aa9dc29652040238bac1bd2dc1b3b1",
      "blockNumber": 82352,
      "transactionIndex": 0,
      "confirmations": null,
      "from": "0xEcf24cDd7c22928C441E694De4aA31B0fAb59778",
      "gasPrice": {
        "_hex": "0x106a7c2f0c6"
      },
      "gasLimit": {
        "_hex": "0x15f90"
      },
      "to": "0x61264E7C3EFE9bF95076404CD19b26D309111c77",
      "value": {
        "_hex": "0x4e1003b28d9280000"
      },
      "nonce": 1,
      "data": "0x",
      "r": "0x311a656b9e61bcbe42ea99209336236eba30d83eda4277806f844e75ceec8e29",
      "s": "0x06c42f5c2c980c7f95422b152791d9bf2f7cf76a6154ba83eb361c0d0f7062d0",
      "v": 28,
      "creates": null,
      "raw": "0xf86f01860106a7c2f0c683015f909461264e7c3efe9bf95076404cd19b26d309111c778904e1003b28d9280000801ca0311a656b9e61bcbe42ea99209336236eba30d83eda4277806f844e75ceec8e29a006c42f5c2c980c7f95422b152791d9bf2f7cf76a6154ba83eb361c0d0f7062d0",
      "networkId": 0,
      "chainId": 0
    }
  ]
}