{
  "hash": "0xf7a9cf3a70287c3720168ef412115cb49afa9984bc99726c8316f33a67b39951",
  "parentHash": "0xf85425d5f2cf1a892aba56b684fd4e5c2e08b14fafe077d7d525a84950230e33",
  "number": 112616,
  "timestamp": 1440010241,
  "nonce": "0xf168af4d953b3421",
  "difficulty": 4428178028985,
  "gasLimit": {
    "_hex": "0x2fefd8"
  },
  "gasUsed": {
    "_hex": "0x546c"
  },
  "miner": "0xC0EdE9a639d107851462c15f2fb729c7c61bBf62",
  "extraData": "0xda8098302e392e34312b2b302d524c696e75782f672b2b2f696e74",
  "transactions": [
    {
      "hash": "0x0983f72daf545efeb28d6da874adf616cc61164328e922a0026cef2b123cb782",
      "blockHash": "0xf7a9cf3a70287c3720168ef412115cb49afa9984bc99726c8316f33a67b39951",
      "blockNumber": 112616,
      "transactionIndex": 0,
      "confirmations": null,
      "from": "0xF03462EC92AD7d5F732197D6F2408C5B2CD44361",
      "gasPrice": {
        "_hex": "0xcc312a079"
      },
      "gasLimit": {
        "_hex": "0x55f0"
      },
      "to": "0x2910543Af39abA0Cd09dBb2D50200b3E800A63D2",
      "value": {
        "_hex": "0x1158e460913d00000"
      },
      "nonce": 6,
      "data": "0x454e4d553133373852",
      "r": "0xad6688458ae6064d0b56f2df0b3d6a7295513cb123f25170b6730e76730af419",
      "s": "0x21f29b35509761fc6146cc036b82423f9c3f4ff29ce97bcfdd638dc6226537f4",
      "v": 28,
      "creates": null,
      "raw": "0xf87606850cc312a0798255f0942910543af39aba0cd09dbb2d50200b3e800a63d28901158e460913d0000089454e4d5531333738521ca0ad6688458ae6064d0b56f2df0b3d6a7295513cb123f25170b6730e76730af419a021f29b35509761fc6146cc036b82423f9c3f4ff29ce97bcfdd638dc6226537f4",
      "networkId": 0,
      "chainId": 0
    }
  ]
}