{
  "hash": "0xd459ac20ee35bb25f48df9cfcd9ad1628d598c19cb766adcf6bec7e28ff1b326",
  "parentHash": "0xb9852c1bcc30ef3a5e1f2eb32154283a7ebdefb2d620efca9e962d41a61617d1",
  "number": 116796,
  "timestamp": 1440097446,
  "nonce": "0x0b15e4bc03bdd4bf",
  "difficulty": 4340365984920,
  "gasLimit": {
    "_hex": "0x2fefd8"
  },
  "gasUsed": {
    "_hex": "0x5208"
  },
  "miner": "0xe6A7a1d47ff21B6321162AEA7C6CB457D5476Bca",
  "extraData": "0xd783010002844765746887676f312e342e32856c696e7578",
  "transactions": [
    {
      "hash": "0x83698d6bd88e730e2613b19c13d5c50da975aa418b3531538b71001d42f3bf67",
      "blockHash": "0xd459ac20ee35bb25f48df9cfcd9ad1628d598c19cb766adcf6bec7e28ff1b326",
      "blockNumber": 116796,
      "transactionIndex": 0,
      "confirmations": null,
      "from": "0xc8ebccC5F5689Fa8659d83713341e5aD19349448",
      "gasPrice": {
        "_hex": "0xba43b7400"
      },
      "gasLimit": {
        "_hex": "0x5208"
      },
      "to": "0x0F87Fb507513e749081E34373c84E95e85b5c057",
      "value": {
        "_hex": "0x42994b995cdc6000"
      },
      "nonce": 77,
      "data": "0x",
      "r": "0x4d47c649d3b0d2c22d61f6f7f599601510bf229619fa58fd8ab9e773cefe127e",
      "s": "0x7599525f20064f57d5a3e13d1889af78a54c43b9580b3dd8408a062fdd2f789d",
      "v": 27,
      "creates": null,
      "raw": "0xf86c4d850ba43b7400825208940f87fb507513e749081e34373c84e95e85b5c0578842994b995cdc6000801ba04d47c649d3b0d2c22d61f6f7f599601510bf229619fa58fd8ab9e773cefe127ea07599525f20064f57d5a3e13d1889af78a54c43b9580b3dd8408a062fdd2f789d",
      "networkId": 0,
      "chainId": 0
    }
  ]
}