{
  "hash": "0x1fd30bfc5e298739f7380a036f0489063b51a219bb509a42429a57f6871e838a",
  "parentHash": "0x0d0bfaf4f783baa53911b2e956947cd0d21f2696333f11b2d6bc5f458ce51acc",
  "number": 108276,
  "timestamp": 1439937554,
  "nonce": "0x4bce5633694fdbc9",
  "difficulty": 4353270759512,
  "gasLimit": {
    "_hex": "0x2fefd8"
  },
  "gasUsed": {
    "_hex": "0x5208"
  },
  "miner": "0xe6A7a1d47ff21B6321162AEA7C6CB457D5476Bca",
  "extraData": "0x476574682f76312e302e312d38326566323666362f6c696e75782f676f312e34",
  "transactions": [
    {
      "hash": "0xd98f406c966b6b30b3c41dc0804b1355a586b6aef904bd62f88b8ff0e8181216",
      "blockHash": "0x1fd30bfc5e298739f7380a036f0489063b51a219bb509a42429a57f6871e838a",
      "blockNumber": 108276,
      "transactionIndex": 0,
      "confirmations": null,
      "from": "0x574FDcb2165600BA7FcF526D999380208DB10382",
      "gasPrice": {
        "_hex": "0xe1cf29021"
      },
      "gasLimit": {
        "_hex": "0x7a120"
      },
      "to": "0xBBDa93a81B882774e1c9b5e3F933Fa35DaC8bc88",
      "value": {
        "_hex": "0x8c2a687ce7720000"
      },
      "nonce": 1,
      "data": "0x",
      "r": "0x3097c22d08d6c9fce602474705e92e1b6bbc8de3a4091efff26e99196e8f8221",
      "s": "0x480f7ea5134fa15584afaada43b647f4225b8deab07d334d848fc6b857a05339",
      "v": 28,
      "creates": null,
      "raw": "0xf86d01850e1cf290218307a12094bbda93a81b882774e1c9b5e3f933fa35dac8bc88888c2a687ce7720000801ca03097c22d08d6c9fce602474705e92e1b6bbc8de3a4091efff26e99196e8f8221a0480f7ea5134fa15584afaada43b647f4225b8deab07d334d848fc6b857a05339",
      "networkId": 0,
      "chainId": 0
    }
  ]
}