{
  "hash": "0x9c661279449b845b9c34d2938cd42cb73510b8220d888341372427ea1be28b13",
  "parentHash": "0x7333a1876919827dd07a319cd87bb6cbd4a316622c548a38255a38547782a2ce",
  "number": 108347,
  "timestamp": 1439938724,
  "nonce": "0x33f7022273bee7fa",
  "difficulty": 4355360035887,
  "gasLimit": {
    "_hex": "0x2fefd8"
  },
  "gasUsed": {
    "_hex": "0xa410"
  },
  "miner": "0xC759dc67E0c3816fdC56A2f5bb29920fc07e767D",
  "extraData": "0x476574682f76312e302e312f77696e646f77732f676f312e342e32",
  "transactions": [
    {
      "hash": "0xc5459b6065e421e5f265b206ab159eecc377347ca9e86a48833095a27a4dc036",
      "blockHash": "0x9c661279449b845b9c34d2938cd42cb73510b8220d888341372427ea1be28b13",
      "blockNumber": 108347,
      "transactionIndex": 0,
      "confirmations": null,
      "from": "0x656Ed7fF71A6cFf2CF368297896634F9E6955e0a",
      "gasPrice": {
        "_hex": "0xd73a41529"
      },
      "gasLimit": {
        "_hex": "0x5208"
      },
      "to": "0x32Be343B94f860124dC4fEe278FDCBD38C102D88",
      "value": {
        "_hex": "0x21e0bfbb7dc13c00000"
      },
      "nonce": 3,
      "data": "0x",
      "r": "0x5ea35b17b0f5bdb8080ab6df59e26dfff4ca756e80e55fa16e0ba5e9976887ee",
      "s": "0x008040004853b04cae13566724b0b215d42f69589973d777ea19ac8aee624c75",
      "v": 28,
      "creates": null,
      "raw": "0xf86d03850d73a415298252089432be343b94f860124dc4fee278fdcbd38c102d888a021e0bfbb7dc13c00000801ca05ea35b17b0f5bdb8080ab6df59e26dfff4ca756e80e55fa16e0ba5e9976887ee9f8040004853b04cae13566724b0b215d42f69589973d777ea19ac8aee624c75",
      "networkId": 0,
      "chainId": 0
    },
    {
      "hash": "0x12bb56e474531833df43b08e811a1c15459fb69cdf5dd02beba567d7d6498763",
      "blockHash": "0x9c661279449b845b9c34d2938cd42cb73510b8220d888341372427ea1be28b13",
      "blockNumber": 108347,
      "transactionIndex": 1,
      "confirmations": null,
      "from": "0x3A3A7cdFbBd0d889E44CE9f87515a2C989E51a49",
      "gasPrice": {
        "_hex": "0xd73a41529"
      },
      "gasLimit": {
        "_hex": "0x5208"
      },
      "to": "0x32Be343B94f860124dC4fEe278FDCBD38C102D88",
      "value": {
        "_hex": "0x36e2df061502800"
      },
      "nonce": 0,
      "data": "0x",
      "r": "0xb984aa2ecaec6e997c719afdf2ab5f724b2f53d07166f713471f47b5ec582228",
      "s": "0x53b740bbb6195086338633c08e3caf4f632775f3d792052775801c84ce8cdc65",
      "v": 27,
      "creates": null,
      "raw": "0xf86c80850d73a415298252089432be343b94f860124dc4fee278fdcbd38c102d8888036e2df061502800801ba0b984aa2ecaec6e997c719afdf2ab5f724b2f53d07166f713471f47b5ec582228a053b740bbb6195086338633c08e3caf4f632775f3d792052775801c84ce8cdc65",
      "networkId": 0,
      "chainId": 0
    }
  ]
}