{
  "hash": "0x149dd1f09222fbdcacd7880374974f7ce42f9cf4f8f9c5e409e301c0de56c712",
  "parentHash": "0xcf21187198f51ac550c45c88ec24734d1415094271649486b56afc02b2bbcd92",
  "number": 80265,
  "timestamp": 1439482769,
  "nonce": "0x96523801b970bd1d",
  "difficulty": 2387537927349,
  "gasLimit": {
    "_hex": "0x2fefd8"
  },
  "gasUsed": {
    "_hex": "0x17a15"
  },
  "miner": "0xe090Ffdced499691fA9379752a59F8A058c1eE4A",
  "extraData": "0x476574682f76312e302e312f6c696e75782f676f312e342e32",
  "transactions": [
    {
      "hash": "0x141bd68a163d174cfa91e4c46b24cbdc772c9693453bc790d47e5f7580867af0",
      "blockHash": "0x149dd1f09222fbdcacd7880374974f7ce42f9cf4f8f9c5e409e301c0de56c712",
      "blockNumber": 80265,
      "transactionIndex": 0,
      "confirmations": null,
      "from": "0x87C5B5874A18B4306DF8a752a6C8cc3E82daFc19",
      "gasPrice": {
        "_hex": "0x11287b3862a"
      },
      "gasLimit": {
        "_hex": "0x493e0"
      },
      "to": "0xC4c51de1AbF5D60DBd329eC0F999Fd8f021ae9fC",
      "value": {
        "_hex": "0x30a736eb9edad6a0"
      },
      "nonce": 156,
      "data": "0x8d216186000000000000000000000000000000000000000000000000000000000000001ad3d96ceed0cfca4794c2a5a3d3aeefe69da0a2a669e66a5651f30b64831c3db0",
      "r": "0xa4338afae6a1464c02332320c1f1476bb32bd0ca32e0815c5dcf03a459642efc",
      "s": "0x06e752ac743e7420e017cc273a52fff2bbc7feaa0984119795ca3aa07be07326",
      "v": 28,
      "creates": null,
      "raw": "0xf8b4819c86011287b3862a830493e094c4c51de1abf5d60dbd329ec0f999fd8f021ae9fc8830a736eb9edad6a0b8448d216186000000000000000000000000000000000000000000000000000000000000001ad3d96ceed0cfca4794c2a5a3d3aeefe69da0a2a669e66a5651f30b64831c3db01ca0a4338afae6a1464c02332320c1f1476bb32bd0ca32e0815c5dcf03a459642efca006e752ac743e7420e017cc273a52fff2bbc7feaa0984119795ca3aa07be07326",
      "networkId": 0,
      "chainId": 0
    }
  ]
}