{
  "hash": "0x6ab8f8082db151cb534cbf8b6c8c532f6fbe6b8873e24acf813ad35a1fe6f9b7",
  "parentHash": "0x6ea500b229288530c9977462189c0fd9f1f20a28a5f482489c8fb421a1892610",
  "number": 80585,
  "timestamp": 1439487737,
  "nonce": "0xab2851942835691e",
  "difficulty": 2413231499308,
  "gasLimit": {
    "_hex": "0x2fefd8"
  },
  "gasUsed": {
    "_hex": "0x19a28"
  },
  "miner": "0x8964Bb67A8103e116bF15dF338b95916CaD4a775",
  "extraData": "0x4d657a697469",
  "transactions": [
    {
      "hash": "0x90c601fd42f71ccb4935dced5147714754d3adb287fbd6c5da2849b183c63503",
      "blockHash": "0x6ab8f8082db151cb534cbf8b6c8c532f6fbe6b8873e24acf813ad35a1fe6f9b7",
      "blockNumber": 80585,
      "transactionIndex": 0,
      "confirmations": null,
      "from": "0x32Be343B94f860124dC4fEe278FDCBD38C102D88",
      "gasPrice": {
        "_hex": "0xe20223c92"
      },
      "gasLimit": {
        "_hex": "0x5208"
      },
      "to": "0xCD8C2959c5781245a5DcD72CFfAb01004d804Aa7",
      "value": {
        "_hex": "0x1864dda0d9ce070000"
      },
      "nonce": 541,
      "data": "0x",
      "r": "0x38063f650a822d0448038c4a1a80f3dfd4d72469fd0d8462a297733afc7c427d",
      "s": "0x13e0d4e2587c35cc4e2a3ec261e1c2daddb49e6ac109b5b9d4fdeaf503611e0d",
      "v": 27,
      "creates": null,
      "raw": "0xf86f82021d850e20223c9282520894cd8c2959c5781245a5dcd72cffab01004d804aa7891864dda0d9ce070000801ba038063f650a822d0448038c4a1a80f3dfd4d72469fd0d8462a297733afc7c427da013e0d4e2587c35cc4e2a3ec261e1c2daddb49e6ac109b5b9d4fdeaf503611e0d",
      "networkId": 0,
      "chainId": 0
    },
    {
      "hash": "0x6087e82aa1c2a4c0111f100c0cbb83883adbc40bb900b6a12b762f3fcf51c6e9",
      "blockHash": "0x6ab8f8082db151cb534cbf8b6c8c532f6fbe6b8873e24acf813ad35a1fe6f9b7",
      "blockNumber": 80585,
      "transactionIndex": 1,
      "confirmations": null,
      "from": "0x32Be343B94f860124dC4fEe278FDCBD38C102D88",
      "gasPrice": {
        "_hex": "0xe20223c92"
      },
      "gasLimit": {
        "_hex": "0x5208"
      },
      "to": "0x76899c112A85c5a7d27Ff89f1b97112e900aeEBc",
      "value": {
        "_hex": "0x4806958090470000"
      },
      "nonce": 542,
      "data": "0x",
      "r": "0x54c3964d3e7637674c1ab3199eb51417cd4987cde2450c6cf5a8d2828aad989a",
      "s": "0x02675c52b4ffc22061514cc003095cde8f2b023db241c0d9cf72963529c41932",
      "v": 27,
      "creates": null,
      "raw": "0xf86e82021e850e20223c928252089476899c112a85c5a7d27ff89f1b97112e900aeebc884806958090470000801ba054c3964d3e7637674c1ab3199eb51417cd4987cde2450c6cf5a8d2828aad989aa002675c52b4ffc22061514cc003095cde8f2b023db241c0d9cf72963529c41932",
      "networkId": 0,
      "chainId": 0
    },
    {
      "hash": "0xd5bf4771f9ad00cfd2c1b5f86d27a64e1f65bc516aa8f0e2943a6d41041333f3",
      "blockHash": "0x6ab8f8082db151cb534cbf8b6c8c532f6fbe6b8873e24acf813ad35a1fe6f9b7",
      "blockNumber": 80585,
      "transactionIndex": 2,
      "confirmations": null,
      "from": "0x32Be343B94f860124dC4fEe278FDCBD38C102D88",
      "gasPrice": {
        "_hex": "0xe20223c92"
      },
      "gasLimit": {
        "_hex": "0x5208"
      },
      "to": "0x2fcf1E26d77BBC0Db15acF1Fc77b4D2f5DdB1019",
      "value": {
        "_hex": "0x6ee22eaacb5f0000"
      },
      "nonce": 543,
      "data": "0x",
      "r": "0x924458ca51d9c2c2f5aaf9ee02ce58bf55cee728cca6840546735c2276523ee4",
      "s": "0x51bff166c119bb0ff63b7476f27bf89f998ed0b12e4c0493db5caaba37119bb4",
      "v": 27,
      "creates": null,
      "raw": "0xf86e82021f850e20223c92825208942fcf1e26d77bbc0db15acf1fc77b4d2f5ddb1019886ee22eaacb5f0000801ba0924458ca51d9c2c2f5aaf9ee02ce58bf55cee728cca6840546735c2276523ee4a051bff166c119bb0ff63b7476f27bf89f998ed0b12e4c0493db5caaba37119bb4",
      "networkId": 0,
      "chainId": 0
    },
    {
      "hash": "0xf6b576349b811a0defb9348a8a9a541fb9054b97a433395e6c5888c652b8631b",
      "blockHash": "0x6ab8f8082db151cb534cbf8b6c8c532f6fbe6b8873e24acf813ad35a1fe6f9b7",
      "blockNumber": 80585,
      "transactionIndex": 3,
      "confirmations": null,
      "from": "0x32Be343B94f860124dC4fEe278FDCBD38C102D88",
      "gasPrice": {
        "_hex": "0xe20223c92"
      },
      "gasLimit": {
        "_hex": "0x5208"
      },
      "to": "0x28a9D631e5C22Ee57312DDdc75936822a2243A05",
      "value": {
        "_hex": "0x6315917cecc38c00"
      },
      "nonce": 544,
      "data": "0x",
      "r": "0x24d17695a6d33af6361a02e99009c176edc42a17ff6977bb7502d261dfb20ce6",
      "s": "0x765238d6e3ffbf304222ec0370368a3a9e4385c19866da8d8ab49379374f9fb9",
      "v": 27,
      "creates": null,
      "raw": "0xf86e820220850e20223c928252089428a9d631e5c22ee57312dddc75936822a2243a05886315917cecc38c00801ba024d17695a6d33af6361a02e99009c176edc42a17ff6977bb7502d261dfb20ce6a0765238d6e3ffbf304222ec0370368a3a9e4385c19866da8d8ab49379374f9fb9",
      "networkId": 0,
      "chainId": 0
    },
    {
      "hash": "0xfe37086ddca9bb700c976a062dda3fa7828f8303246856eea6388e0f8bf7329a",
      "blockHash": "0x6ab8f8082db151cb534cbf8b6c8c532f6fbe6b8873e24acf813ad35a1fe6f9b7",
      "blockNumber": 80585,
      "transactionIndex": 4,
      "confirmations": null,
      "from": "0xf3388b9335792F21F2bDA79f6BAC28748de523CA",
      "gasPrice": {
        "_hex": "0xdb5ba9542"
      },
      "gasLimit": {
        "_hex": "0x15f90"
      },
      "to": "0xf2cC0eEAAAeD313542CB262B0B8c3972425143f0",
      "value": {
        "_hex": "0x45400a8fd5330000"
      },
      "nonce": 0,
      "data": "0x",
      "r": "0x3a0b6d0d09a151d8d42c4a86ea3630f76d1009fe10fccb75edf824b61663b1b3",
      "s": "0x76176ccba6a71e3ecf1050fe150de1d7646a036aa462d48572ccac3fd779c27d",
      "v": 28,
      "creates": null,
      "raw": "0xf86d80850db5ba954283015f9094f2cc0eeaaaed313542cb262b0b8c3972425143f08845400a8fd5330000801ca03a0b6d0d09a151d8d42c4a86ea3630f76d1009fe10fccb75edf824b61663b1b3a076176ccba6a71e3ecf1050fe150de1d7646a036aa462d48572ccac3fd779c27d",
      "networkId": 0,
      "chainId": 0
    }
  ]
}