{
  "hash": "0xa81e21b7d7f7c0b6df5565af24e63aeebfc852afbf9f29b0e9e64eea3a2b88c4",
  "parentHash": "0x01d6179e7bdadfd080d87525ae2a72a66e3be78a5b42db491eb04a5789eaa63b",
  "number": 113715,
  "timestamp": 1440028198,
  "nonce": "0xfbdea6d360a25b4a",
  "difficulty": 4447097961222,
  "gasLimit": {
    "_hex": "0x2fefd8"
  },
  "gasUsed": {
    "_hex": "0x5208"
  },
  "miner": "0x53824166ea5271d3425e3194c848A90CA4e97eB2",
  "extraData": "0x",
  "transactions": [
    {
      "hash": "0x301fae6f9376d16267810a77541a24e391d46598fb0c2a5879677ee1f6a7cee5",
      "blockHash": "0xa81e21b7d7f7c0b6df5565af24e63aeebfc852afbf9f29b0e9e64eea3a2b88c4",
      "blockNumber": 113715,
      "transactionIndex": 0,
      "confirmations": null,
      "from": "0x27A2f708f13CFE24f8e5d6E8b7D8E971D2449Ba0",
      "gasPrice": {
        "_hex": "0xd8364fc25"
      },
      "gasLimit": {
        "_hex": "0x15f90"
      },
      "to": "0x61F642543d22bAf5382908a714E675Cc0b51ea45",
      "value": {
        "_hex": "0x21d3bd55e803c0000"
      },
      "nonce": 13,
      "data": "0x",
      "r": "0xbe644076c9c472c1e9c72b34dcb89219b50864a2a576ff9e29b7882d4d705d18",
      "s": "0x363e816528f4a5daca615b026a798132e187580dd701a0455bae56c64bff7b5f",
      "v": 28,
      "creates": null,
      "raw": "0xf86e0d850d8364fc2583015f909461f642543d22baf5382908a714e675cc0b51ea4589021d3bd55e803c0000801ca0be644076c9c472c1e9c72b34dcb89219b50864a2a576ff9e29b7882d4d705d18a0363e816528f4a5daca615b026a798132e187580dd701a0455bae56c64bff7b5f",
      "networkId": 0,
      "chainId": 0
    }
  ]
}