{
  "hash": "0x8bcee37daea88b2912153c37180b916f67d4dea3062e3a39bf8b7d8c1caed970",
  "parentHash": "0xd5120369aa8f2b5cd178ae6290481d0c820efc058c4a41954c17157317307c35",
  "number": 116634,
  "timestamp": 1440092441,
  "nonce": "0x3f96f50d3f812f33",
  "difficulty": 4460771517039,
  "gasLimit": {
    "_hex": "0x2fefd8"
  },
  "gasUsed": {
    "_hex": "0x546c"
  },
  "miner": "0xe6A7a1d47ff21B6321162AEA7C6CB457D5476Bca",
  "extraData": "0xd783010002844765746887676f312e342e32856c696e7578",
  "transactions": [
    {
      "hash": "0xab1fc0f9ef7808c4c60473c9e431fb82b3ec45c76a125e8996478cf342c3ff7b",
      "blockHash": "0x8bcee37daea88b2912153c37180b916f67d4dea3062e3a39bf8b7d8c1caed970",
      "blockNumber": 116634,
      "transactionIndex": 0,
      "confirmations": null,
      "from": "0x271e8fC01E1C9E1621fD3d108e348450b2498541",
      "gasPrice": {
        "_hex": "0xd7d40ace3"
      },
      "gasLimit": {
        "_hex": "0x55f0"
      },
      "to": "0x2910543Af39abA0Cd09dBb2D50200b3E800A63D2",
      "value": {
        "_hex": "0x28c418afbbb5c0000"
      },
      "nonce": 16,
      "data": "0x454e30334b52455730",
      "r": "0xc9c57b3e169f7c63aef51ccabd3547adfa91fde1c4be59ded818cefbf2af0ee8",
      "s": "0x6310a65db494f9dd00b58fcb5479fd5c7b1743bc6ba39f1f06e5f55720c2254d",
      "v": 27,
      "creates": null,
      "raw": "0xf87610850d7d40ace38255f0942910543af39aba0cd09dbb2d50200b3e800a63d289028c418afbbb5c000089454e30334b524557301ba0c9c57b3e169f7c63aef51ccabd3547adfa91fde1c4be59ded818cefbf2af0ee8a06310a65db494f9dd00b58fcb5479fd5c7b1743bc6ba39f1f06e5f55720c2254d",
      "networkId": 0,
      "chainId": 0
    }
  ]
}