{
  "hash": "0x0397a15967ff0252bb1c6c70e4833881088192ad60111f8fe1dfebe4db9d8dd8",
  "parentHash": "0x80f9492fe82b5ae389ce90692b502f90a05a85f5ff999603c6f6653fb90938cd",
  "number": 95374,
  "timestamp": 1439723252,
  "nonce": "0xc5dd956a6431d7a4",
  "difficulty": 3568945490600,
  "gasLimit": {
    "_hex": "0x2fefd8"
  },
  "gasUsed": {
    "_hex": "0x5208"
  },
  "miner": "0xe6A7a1d47ff21B6321162AEA7C6CB457D5476Bca",
  "extraData": "0x476574682f76312e302e312d38326566323666362f6c696e75782f676f312e34",
  "transactions": [
    {
      "hash": "0xbc633497b16158915083721bad8ed6a6cb5ee63f8cc0d3c40e9cef3f4812086c",
      "blockHash": "0x0397a15967ff0252bb1c6c70e4833881088192ad60111f8fe1dfebe4db9d8dd8",
      "blockNumber": 95374,
      "transactionIndex": 0,
      "confirmations": null,
      "from": "0xaA7C5c36F2422615C33f44b2C8f8883451eD8D0d",
      "gasPrice": {
        "_hex": "0xd829211eb"
      },
      "gasLimit": {
        "_hex": "0x15f90"
      },
      "to": "0x6bb0A71c0b9EDB37fCEe7973D687012cb1149745",
      "value": {
        "_hex": "0x0"
      },
      "nonce": 0,
      "data": "0x",
      "r": "0x681de053b36a327238afde9e234eff02f8a8d8cb965d32077d35f79dfed5139b",
      "s": "0x489857c388f42cde8b279e079ecd56676089a37a1b3b74ac32b3869702d71c41",
      "v": 28,
      "creates": null,
      "raw": "0xf86580850d829211eb83015f90946bb0a71c0b9edb37fcee7973d687012cb114974580801ca0681de053b36a327238afde9e234eff02f8a8d8cb965d32077d35f79dfed5139ba0489857c388f42cde8b279e079ecd56676089a37a1b3b74ac32b3869702d71c41",
      "networkId": 0,
      "chainId": 0
    }
  ]
}