{
  "hash": "0x1079bfdd9db62728d85328c498dec8e779b26ac935de5d1b2a996a67fb3eda6a",
  "parentHash": "0x8438b2c05c42b209f88573e2f6c9f6130b661be924292d8b1675d399814dda88",
  "number": 101237,
  "timestamp": 1439819652,
  "nonce": "0x886f315105b27c4a",
  "difficulty": 3820643671948,
  "gasLimit": {
    "_hex": "0x2fefd8"
  },
  "gasUsed": {
    "_hex": "0x5208"
  },
  "miner": "0xf927a40C8B7F6E07c5af7FA2155B4864a4112B13",
  "extraData": "0x",
  "transactions": [
    {
      "hash": "0xcd730b72e59a405f7be745f65eb5b734dfa5cbccfa62347a5dd9f3e067450b4b",
      "blockHash": "0x1079bfdd9db62728d85328c498dec8e779b26ac935de5d1b2a996a67fb3eda6a",
      "blockNumber": 101237,
      "transactionIndex": 0,
      "confirmations": null,
      "from": "0x9A6eb0bBBE50281644D7a7839147F59819506Ac0",
      "gasPrice": {
        "_hex": "0xd687439e9"
      },
      "gasLimit": {
        "_hex": "0x5208"
      },
      "to": "0x32Be343B94f860124dC4fEe278FDCBD38C102D88",
      "value": {
        "_hex": "0x137de29172493b000"
      },
      "nonce": 3,
      "data": "0x",
      "r": "0x2f057fd7080174abcf138fc81d91b559fd73263e43e3adadf6b5241df205bb07",
      "s": "0x2077161020ba8b68ced5289a4c5e96dee7628e4da75a9871f98a5b559e9963c3",
      "v": 27,
      "creates": null,
      "raw": "0xf86d03850d687439e98252089432be343b94f860124dc4fee278fdcbd38c102d88890137de29172493b000801ba02f057fd7080174abcf138fc81d91b559fd73263e43e3adadf6b5241df205bb07a02077161020ba8b68ced5289a4c5e96dee7628e4da75a9871f98a5b559e9963c3",
      "networkId": 0,
      "chainId": 0
    }
  ]
}