{
  "hash": "0x8b852393f57069e7a8f649dd06ce14fb145c89a9af01e636d20b2f56b2d57247",
  "parentHash": "0xb10e96df5e95c9a0b45a95fc5d45708d42204d7315b7271ca4bd9c985686a45f",
  "number": 80560,
  "timestamp": 1439487272,
  "nonce": "0xd9fd84c0c8544fb3",
  "difficulty": 2421501178814,
  "gasLimit": {
    "_hex": "0x2fefd8"
  },
  "gasUsed": {
    "_hex": "0xf618"
  },
  "miner": "0xf927a40C8B7F6E07c5af7FA2155B4864a4112B13",
  "extraData": "0x",
  "transactions": [
    {
      "hash": "0xdd2d9116e63d794bb16d525d653f3cc946d0b8a993445a7b6481c2e1699c6d78",
      "blockHash": "0x8b852393f57069e7a8f649dd06ce14fb145c89a9af01e636d20b2f56b2d57247",
      "blockNumber": 80560,
      "transactionIndex": 0,
      "confirmations": null,
      "from": "0x900755EB624662556E5c2A2467d2057790397545",
      "gasPrice": {
        "_hex": "0xba43b7400"
      },
      "gasLimit": {
        "_hex": "0x5208"
      },
      "to": "0xC47Aaa860008be6f65B58c6C6E02a84e666EfE31",
      "value": {
        "_hex": "0x44b096deffe0be000"
      },
      "nonce": 0,
      "data": "0x",
      "r": "0xdae9220f0dda384ed17a64045faa3d8f1332d695245a75393d534451cd791726",
      "s": "0x6cf5ce8090b748f8a7a8b02c686dfdf5cebf0d4aba3a80107dde3584f87bec6f",
      "v": 27,
      "creates": null,
      "raw": "0xf86d80850ba43b740082520894c47aaa860008be6f65b58c6c6e02a84e666efe3189044b096deffe0be000801ba0dae9220f0dda384ed17a64045faa3d8f1332d695245a75393d534451cd791726a06cf5ce8090b748f8a7a8b02c686dfdf5cebf0d4aba3a80107dde3584f87bec6f",
      "networkId": 0,
      "chainId": 0
    },
    {
      "hash": "0xdd9e8e8e295c63f8d0f9b4b82023bb9740ed3561f3e3eb23e7d020598490419c",
      "blockHash": "0x8b852393f57069e7a8f649dd06ce14fb145c89a9af01e636d20b2f56b2d57247",
      "blockNumber": 80560,
      "transactionIndex": 1,
      "confirmations": null,
      "from": "0x95D26518548e038C30909c1B24E95c7Cb9CDbFd9",
      "gasPrice": {
        "_hex": "0xba43b7400"
      },
      "gasLimit": {
        "_hex": "0x5208"
      },
      "to": "0xC47Aaa860008be6f65B58c6C6E02a84e666EfE31",
      "value": {
        "_hex": "0x1158a8b10e6cc6000"
      },
      "nonce": 1,
      "data": "0x",
      "r": "0xac954f42feac83b49d048ba05eb2b37a4c9eb2c69ced724ea2e735b3e2f057bb",
      "s": "0x0e68ddd84a66c3722eb6a067a6017bc2f23e56c536257ebf585d557653bfe16b",
      "v": 27,
      "creates": null,
      "raw": "0xf86d01850ba43b740082520894c47aaa860008be6f65b58c6c6e02a84e666efe318901158a8b10e6cc6000801ba0ac954f42feac83b49d048ba05eb2b37a4c9eb2c69ced724ea2e735b3e2f057bba00e68ddd84a66c3722eb6a067a6017bc2f23e56c536257ebf585d557653bfe16b",
      "networkId": 0,
      "chainId": 0
    },
    {
      "hash": "0x4000f09c6b3547146ceb5caa562e85ab09c7a435564fbd0c32090c32722e4c51",
      "blockHash": "0x8b852393f57069e7a8f649dd06ce14fb145c89a9af01e636d20b2f56b2d57247",
      "blockNumber": 80560,
      "transactionIndex": 2,
      "confirmations": null,
      "from": "0xCEefaA615a3c5A880728F1E1769095F45a6D1782",
      "gasPrice": {
        "_hex": "0xba43b7400"
      },
      "gasLimit": {
        "_hex": "0x5208"
      },
      "to": "0xC47Aaa860008be6f65B58c6C6E02a84e666EfE31",
      "value": {
        "_hex": "0x15aee1c932bc06000"
      },
      "nonce": 0,
      "data": "0x",
      "r": "0xdc26f1cc5d2a9ac458b5c90e543885fa43c859e666edb4ae1ee3eb275bf76cf8",
      "s": "0x1ccaf2de598537a2917a4eab2424cee3345768e7e8b3806da2568681dc2dc9e0",
      "v": 28,
      "creates": null,
      "raw": "0xf86d80850ba43b740082520894c47aaa860008be6f65b58c6c6e02a84e666efe3189015aee1c932bc06000801ca0dc26f1cc5d2a9ac458b5c90e543885fa43c859e666edb4ae1ee3eb275bf76cf8a01ccaf2de598537a2917a4eab2424cee3345768e7e8b3806da2568681dc2dc9e0",
      "networkId": 0,
      "chainId": 0
    }
  ]
}