{
  "hash": "0x8648dc268a6270148e94a35e5b6cf00b33144e0a3bcc2765f616ac01998a6985",
  "parentHash": "0x4b59d70a37370df59e3cce4cff7af4c1d0fac10f30404ce56400aed6a7729440",
  "number": 69864,
  "timestamp": 1439311026,
  "nonce": "0xe75ef6ed2e674f2b",
  "difficulty": 2100358477152,
  "gasLimit": {
    "_hex": "0x2fefd8"
  },
  "gasUsed": {
    "_hex": "0x5208"
  },
  "miner": "0xEF247E639d49461D25F57e9362CadE3120910Ce0",
  "extraData": "0x476574682f76312e302e312f6c696e75782f676f312e342e32",
  "transactions": [
    {
      "hash": "0x3d944d8465beb7b46cb92245f08b335b72ff6698c46d2ea1c89c61a394fd3713",
      "blockHash": "0x8648dc268a6270148e94a35e5b6cf00b33144e0a3bcc2765f616ac01998a6985",
      "blockNumber": 69864,
      "transactionIndex": 0,
      "confirmations": null,
      "from": "0x2910543Af39abA0Cd09dBb2D50200b3E800A63D2",
      "gasPrice": {
        "_hex": "0xdeed4694b"
      },
      "gasLimit": {
        "_hex": "0x5208"
      },
      "to": "0xddDfeCf1F02cDBAdd9292Ba977b8462D670ed4eb",
      "value": {
        "_hex": "0x973ef5667913f78000"
      },
      "nonce": 229,
      "data": "0x",
      "r": "0xa843f2b6dd80d8fb21e805d537c54a4eb391c8603e797d6bbb3fa2e40add376b",
      "s": "0x59a1fd4dd6249ea4042459e01034f0f80b31e30c3025fc8207632b3ff927b2d3",
      "v": 28,
      "creates": null,
      "raw": "0xf86e81e5850deed4694b82520894dddfecf1f02cdbadd9292ba977b8462d670ed4eb89973ef5667913f78000801ca0a843f2b6dd80d8fb21e805d537c54a4eb391c8603e797d6bbb3fa2e40add376ba059a1fd4dd6249ea4042459e01034f0f80b31e30c3025fc8207632b3ff927b2d3",
      "networkId": 0,
      "chainId": 0
    }
  ]
}