{
  "hash": "0x5c5ef24949e6f4ae5701e1ea61615cbe6962091bf43fe9ee93dd69f5cb1e08cf",
  "parentHash": "0xbd463a38f28e58169874ac34ec18e0115ab912e570172be3fa3ec3f07233e652",
  "number": 107650,
  "timestamp": 1439926169,
  "nonce": "0x2881306764cff236",
  "difficulty": 4396319493385,
  "gasLimit": {
    "_hex": "0x2fefd8"
  },
  "gasUsed": {
    "_hex": "0x5208"
  },
  "miner": "0x9D49F602b0fdb924Bd63DDE2Bd0907E4A07c63a7",
  "extraData": "0x476574682f76312e302e312f6c696e75782f676f312e342e32",
  "transactions": [
    {
      "hash": "0xd50bd96eafa0b7e7dc9a0ffba599fec0617723cb875f822e01ded174c7de7182",
      "blockHash": "0x5c5ef24949e6f4ae5701e1ea61615cbe6962091bf43fe9ee93dd69f5cb1e08cf",
      "blockNumber": 107650,
      "transactionIndex": 0,
      "confirmations": null,
      "from": "0x120A270bbC009644e35F0bB6ab13f95b8199c4ad",
      "gasPrice": {
        "_hex": "0xd385e0bd9"
      },
      "gasLimit": {
        "_hex": "0x3d090"
      },
      "to": "0xdDbddD1BBd38fFADE0305d30f02028D92e9f3Aa8",
      "value": {
        "_hex": "0x192d2d08f5c1441000"
      },
      "nonce": 813,
      "data": "0x",
      "r": "0x4f933b7f9e919670179eef54df3f3682dfa009cfb98b19422b603c5f2c971fb4",
      "s": "0x768b5e98dac1763266011f149ad6f35ab7202bf344703f4e5a8362099e4e3758",
      "v": 28,
      "creates": null,
      "raw": "0xf87082032d850d385e0bd98303d09094ddbddd1bbd38ffade0305d30f02028d92e9f3aa889192d2d08f5c1441000801ca04f933b7f9e919670179eef54df3f3682dfa009cfb98b19422b603c5f2c971fb4a0768b5e98dac1763266011f149ad6f35ab7202bf344703f4e5a8362099e4e3758",
      "networkId": 0,
      "chainId": 0
    }
  ]
}