{
  "hash": "0x790f1dceca689e9737989612dbcd1d3134207cdc64c58f1d3272b62eb9dddf0c",
  "parentHash": "0x7226835208f5da45d30374e902c28f8df05f55a37520b759e0348b69081669b6",
  "number": 75505,
  "timestamp": 1439404545,
  "nonce": "0xc1df85836b2c9c7d",
  "difficulty": 2207208393304,
  "gasLimit": {
    "_hex": "0x2fefd8"
  },
  "gasUsed": {
    "_hex": "0x8f9f"
  },
  "miner": "0x9746c7e1ef2bd21FF3997fa467593a89cb852BD0",
  "extraData": "0x476574682f76312e302e312f77696e646f77732f676f312e342e32",
  "transactions": [
    {
      "hash": "0xced0c0eecfdad510505638cdab5fbd9317ed58fe728a46c703e9da047d0774bc",
      "blockHash": "0x790f1dceca689e9737989612dbcd1d3134207cdc64c58f1d3272b62eb9dddf0c",
      "blockNumber": 75505,
      "transactionIndex": 0,
      "confirmations": null,
      "from": "0x326Be8F71bFb0379f989aAB1CC1fE37f0a771f60",
      "gasPrice": {
        "_hex": "0x109332fa355"
      },
      "gasLimit": {
        "_hex": "0x493e0"
      },
      "to": "0xD79B4C6791784184e2755B2fC1659eaaB0f80456",
      "value": {
        "_hex": "0xde0b6b3a7640000"
      },
      "nonce": 100,
      "data": "0x8d21618600000000000000000000000000000000000000000000000000000000000000c0359ad738e7c7889ebf13e5cdd395ef977d1a72b53c41d5278757d061b8aee6e2",
      "r": "0x0a29e5411d9a9c2b1d57e2496bd5819a58b0935be36b244f9c99d2b9111cec47",
      "s": "0x6412fb4cc981c2d21d815f1b1db33861f1fc7cac2d55f36c93353e3be68d7fed",
      "v": 27,
      "creates": null,
      "raw": "0xf8b364860109332fa355830493e094d79b4c6791784184e2755b2fc1659eaab0f80456880de0b6b3a7640000b8448d21618600000000000000000000000000000000000000000000000000000000000000c0359ad738e7c7889ebf13e5cdd395ef977d1a72b53c41d5278757d061b8aee6e21ba00a29e5411d9a9c2b1d57e2496bd5819a58b0935be36b244f9c99d2b9111cec47a06412fb4cc981c2d21d815f1b1db33861f1fc7cac2d55f36c93353e3be68d7fed",
      "networkId": 0,
      "chainId": 0
    }
  ]
}