{
  "hash": "0x5c93011f4387d483cc59c86e8db7f44d470a2261eb4b0833753855c28faac5ef",
  "parentHash": "0xe1a1e514b098d68369bd82f979a3d2e122c4fad6c515fd1627f48fbb80635787",
  "number": 82400,
  "timestamp": 1439518817,
  "nonce": "0xe5fdb93a2db165e6",
  "difficulty": 2374144288560,
  "gasLimit": {
    "_hex": "0x2fefd8"
  },
  "gasUsed": {
    "_hex": "0xa674"
  },
  "miner": "0x8B454d830feF179e66206840F8F3D1d83bC32b17",
  "extraData": "0x476574682f76312e302e312f77696e646f77732f676f312e342e32",
  "transactions": [
    {
      "hash": "0x0b1cd2d31823603027b32bbd6585f48fdbb81bd5bbbf41766df1bebb19cdce5f",
      "blockHash": "0x5c93011f4387d483cc59c86e8db7f44d470a2261eb4b0833753855c28faac5ef",
      "blockNumber": 82400,
      "transactionIndex": 0,
      "confirmations": null,
      "from": "0xDA875e4e2f3cAbE4f37e0eAed7D1F6dcc6ffef43",
      "gasPrice": {
        "_hex": "0x110c8f7d8de"
      },
      "gasLimit": {
        "_hex": "0xc350"
      },
      "to": "0x2910543Af39abA0Cd09dBb2D50200b3E800A63D2",
      "value": {
        "_hex": "0x1b1ae4d6e2ef500000"
      },
      "nonce": 1,
      "data": "0x454e48313832543047",
      "r": "0x17cfba12b8b0927b7270d456242c82734c95474390ccabf72cf1f8b60cb04273",
      "s": "0xffee2ef0acdaaa694d49069a5022b2f7022637b8887233f063605e545573fdd5",
      "v": 27,
      "creates": null,
      "raw": "0xf87701860110c8f7d8de82c350942910543af39aba0cd09dbb2d50200b3e800a63d2891b1ae4d6e2ef50000089454e483138325430471ba017cfba12b8b0927b7270d456242c82734c95474390ccabf72cf1f8b60cb04273a0ffee2ef0acdaaa694d49069a5022b2f7022637b8887233f063605e545573fdd5",
      "networkId": 0,
      "chainId": 0
    },
    {
      "hash": "0x9c64085494fcd304bdfc189425d1bf97d9b0dd91524ad8d0676db9f57b025c86",
      "blockHash": "0x5c93011f4387d483cc59c86e8db7f44d470a2261eb4b0833753855c28faac5ef",
      "blockNumber": 82400,
      "transactionIndex": 1,
      "confirmations": null,
      "from": "0xEF247E639d49461D25F57e9362CadE3120910Ce0",
      "gasPrice": {
        "_hex": "0xd4def5fcc"
      },
      "gasLimit": {
        "_hex": "0x15f90"
      },
      "to": "0xF87481A262E993a75F791E7859E71BaC36A606Eb",
      "value": {
        "_hex": "0xd55ef90a2da180000"
      },
      "nonce": 22,
      "data": "0x",
      "r": "0xfa12f02095b53baad61f33b7bab404e368465e50953714043f4e64139ee0397b",
      "s": "0x74e9ca5efe7c694bc5cf06a5d7c7d7ae556572fcee6af3a9594039fe2e8dcad4",
      "v": 27,
      "creates": null,
      "raw": "0xf86e16850d4def5fcc83015f9094f87481a262e993a75f791e7859e71bac36a606eb890d55ef90a2da180000801ba0fa12f02095b53baad61f33b7bab404e368465e50953714043f4e64139ee0397ba074e9ca5efe7c694bc5cf06a5d7c7d7ae556572fcee6af3a9594039fe2e8dcad4",
      "networkId": 0,
      "chainId": 0
    }
  ]
}