{
  "hash": "0xc38681705151e838f08005572bf50a579527ed24fccd66bbca10d6d52d3dedd9",
  "parentHash": "0xe5ff57a50bad5a0e278b7730194681be8b82ee05c42b6246772aa37b6b6580ff",
  "number": 53988,
  "timestamp": 1439046884,
  "nonce": "0x2b32079c8c11de8c",
  "difficulty": 1608731357632,
  "gasLimit": {
    "_hex": "0x2fefd8"
  },
  "gasUsed": {
    "_hex": "0x97799"
  },
  "miner": "0x9746c7e1ef2bd21FF3997fa467593a89cb852BD0",
  "extraData": "0x476574682f76312e302e312f77696e646f77732f676f312e342e32",
  "transactions": [
    {
      "hash": "0x66789902917aba8ee12c16bd5ece26445999e9e881505930bc012fa267a09ce1",
      "blockHash": "0xc38681705151e838f08005572bf50a579527ed24fccd66bbca10d6d52d3dedd9",
      "blockNumber": 53988,
      "transactionIndex": 0,
      "confirmations": null,
      "from": "0x50851F0A477440DdfD402D389A84CA4a91A52AD6",
      "gasPrice": {
        "_hex": "0xdde4aa7e4"
      },
      "gasLimit": {
        "_hex": "0x5208"
      },
      "to": "0x32Be343B94f860124dC4fEe278FDCBD38C102D88",
      "value": {
        "_hex": "0x703700df09a0b80000"
      },
      "nonce": 3,
      "data": "0x",
      "r": "0xd085639fad3db4cc471aba2adb790147d30d18b8237880752f97dcf49c7dc1ee",
      "s": "0x6f08e32892c892b0d78d997234d0ef17eb0460e36b52aa96a13e52093df03ee6",
      "v": 27,
      "creates": null,
      "raw": "0xf86d03850dde4aa7e48252089432be343b94f860124dc4fee278fdcbd38c102d8889703700df09a0b80000801ba0d085639fad3db4cc471aba2adb790147d30d18b8237880752f97dcf49c7dc1eea06f08e32892c892b0d78d997234d0ef17eb0460e36b52aa96a13e52093df03ee6",
      "networkId": 0,
      "chainId": 0
    },
    {
      "hash": "0xbfbfe16b01fd48d8135a96d636aba47dff641d30fc93356c236cb14fd531d7d2",
      "blockHash": "0xc38681705151e838f08005572bf50a579527ed24fccd66bbca10d6d52d3dedd9",
      "blockNumber": 53988,
      "transactionIndex": 1,
      "confirmations": null,
      "from": "0xF87481A262E993a75F791E7859E71BaC36A606Eb",
      "gasPrice": {
        "_hex": "0xdde4aa7e4"
      },
      "gasLimit": {
        "_hex": "0x5208"
      },
      "to": "0x32Be343B94f860124dC4fEe278FDCBD38C102D88",
      "value": {
        "_hex": "0x821a6a5ba9e478000"
      },
      "nonce": 2,
      "data": "0x",
      "r": "0x004f17bac726eb726c5992f0a76ec3a247f8c8362d3491b9db25d6289c399bf7",
      "s": "0x0ee9b5daf15f0152510d8553cebdcf24ff6ec910be0c3cde8ba936327cf0cc2c",
      "v": 27,
      "creates": null,
      "raw": "0xf86c02850dde4aa7e48252089432be343b94f860124dc4fee278fdcbd38c102d88890821a6a5ba9e478000801b9f4f17bac726eb726c5992f0a76ec3a247f8c8362d3491b9db25d6289c399bf7a00ee9b5daf15f0152510d8553cebdcf24ff6ec910be0c3cde8ba936327cf0cc2c",
      "networkId": 0,
      "chainId": 0
    },
    {
      "hash": "0x0d5756cee81324cd162a9bf9c4012f33c097402ec7cef6baa6ba032dbbb89b9f",
      "blockHash": "0xc38681705151e838f08005572bf50a579527ed24fccd66bbca10d6d52d3dedd9",
      "blockNumber": 53988,
      "transactionIndex": 2,
      "confirmations": null,
      "from": "0x2d11763B4999FB3b61Ca8d19C8C77a743079f7bd",
      "gasPrice": {
        "_hex": "0xd2a533a9d"
      },
      "gasLimit": {
        "_hex": "0x7a120"
      },
      "to": "0x109C4f2CCc82C4d77Bde15F306707320294Aea3F",
      "value": {
        "_hex": "0xde0b6b3a7640000"
      },
      "nonce": 1,
      "data": "0x",
      "r": "0x8c92f053efb3e79f99ec2fb2ed784f3912ccb84def3f956473b910910e8df084",
      "s": "0x5916fafd53d0201ce2dff6880dfae45cca12dc259e1d35c8cbc931e3dfd42f79",
      "v": 28,
      "creates": null,
      "raw": "0xf86d01850d2a533a9d8307a12094109c4f2ccc82c4d77bde15f306707320294aea3f880de0b6b3a7640000801ca08c92f053efb3e79f99ec2fb2ed784f3912ccb84def3f956473b910910e8df084a05916fafd53d0201ce2dff6880dfae45cca12dc259e1d35c8cbc931e3dfd42f79",
      "networkId": 0,
      "chainId": 0
    },
    {
      "hash": "0x3b3a67e92d538be477533caa93ddb7b99a389bba13c0bc2397136b8e4dcea877",
      "blockHash": "0xc38681705151e838f08005572bf50a579527ed24fccd66bbca10d6d52d3dedd9",
      "blockNumber": 53988,
      "transactionIndex": 3,
      "confirmations": null,
      "from": "0x2d11763B4999FB3b61Ca8d19C8C77a743079f7bd",
      "gasPrice": {
        "_hex": "0xd2a533a9d"
      },
      "gasLimit": {
        "_hex": "0x7a120"
      },
      "to": "0xBAA54d6E90c3F4d7Ebec11bD180134C7eD8eBb52",
      "value": {
        "_hex": "0x16345785d8a0000"
      },
      "nonce": 2,
      "data": "0x",
      "r": "0x46a89c4a52b091b2555fa2984bed08e3a3124d074e7e9955689ef6039e8d07a6",
      "s": "0x6b834caac95eb3ce221e7b6a37a73d6699a8692bda511e313562dc6352e9386d",
      "v": 27,
      "creates": null,
      "raw": "0xf86d02850d2a533a9d8307a12094baa54d6e90c3f4d7ebec11bd180134c7ed8ebb5288016345785d8a0000801ba046a89c4a52b091b2555fa2984bed08e3a3124d074e7e9955689ef6039e8d07a6a06b834caac95eb3ce221e7b6a37a73d6699a8692bda511e313562dc6352e9386d",
      "networkId": 0,
      "chainId": 0
    },
    {
      "hash": "0x6a34133e98b7f4ec55ca9d15fac5c56fc35d30965a65fd9c4b3dce124530ba6f",
      "blockHash": "0xc38681705151e838f08005572bf50a579527ed24fccd66bbca10d6d52d3dedd9",
      "blockNumber": 53988,
      "transactionIndex": 4,
      "confirmations": null,
      "from": "0x06b106649AA8c421ddCd1B8c32cD0418CF30dA1f",
      "gasPrice": {
        "_hex": "0xd23ee12e2"
      },
      "gasLimit": {
        "_hex": "0x15f90"
      },
      "to": "0x2910543Af39abA0Cd09dBb2D50200b3E800A63D2",
      "value": {
        "_hex": "0x65a4da25d3016c00000"
      },
      "nonce": 1,
      "data": "0x454e45413350525130",
      "r": "0x4a798234d95fe83998439f0bd3438d1b3924be9002483f03ac201f6cb5df0f8e",
      "s": "0x083b56d7974e21163784d540f5accfe9bc67648eddaa8b158b22cb3573a72b9f",
      "v": 27,
      "creates": null,
      "raw": "0xf87801850d23ee12e283015f90942910543af39aba0cd09dbb2d50200b3e800a63d28a065a4da25d3016c0000089454e454133505251301ba04a798234d95fe83998439f0bd3438d1b3924be9002483f03ac201f6cb5df0f8ea0083b56d7974e21163784d540f5accfe9bc67648eddaa8b158b22cb3573a72b9f",
      "networkId": 0,
      "chainId": 0
    }
  ]
}