{
  "hash": "0xc1718a0b7ec6ed3551fcb0cab0fe23e18ea9390a1a4b3d6c037211b9653a1d44",
  "parentHash": "0x4b1f74e7994468076b258627c1abb50f57e7b3be3d64061175ca8fcbdfc711de",
  "number": 59469,
  "timestamp": 1439138670,
  "nonce": "0x29f19efb95c5ba8a",
  "difficulty": 1707194029072,
  "gasLimit": {
    "_hex": "0x2fe3de"
  },
  "gasUsed": {
    "_hex": "0x546c"
  },
  "miner": "0x356CEFb4Eb836DC68403308309E075a31DD991D2",
  "extraData": "0x476574682f76312e302e302f6c696e75782f676f312e342e32",
  "transactions": [
    {
      "hash": "0xefefa9f7f4ec8186c8d5cc86285e4c75ce00e6d67fb6403b059f633a7acaea67",
      "blockHash": "0xc1718a0b7ec6ed3551fcb0cab0fe23e18ea9390a1a4b3d6c037211b9653a1d44",
      "blockNumber": 59469,
      "transactionIndex": 0,
      "confirmations": null,
      "from": "0x2c5b7d7B195A371bf9abdDB42fe04F2F1D9A9910",
      "gasPrice": {
        "_hex": "0x110c8f7d8de"
      },
      "gasLimit": {
        "_hex": "0xc350"
      },
      "to": "0x2910543Af39abA0Cd09dBb2D50200b3E800A63D2",
      "value": {
        "_hex": "0xa4cc799563c380000"
      },
      "nonce": 0,
      "data": "0x454e5a32514d464438",
      "r": "0xa63e2dba8f3665bde4e53221bd1d746e08d6b2d50be9ea08cd3db73735347078",
      "s": "0x02d9b78958a63d315b2fc9d31ccc57da43d208d9ed1cda5a388b192f1c98b68d",
      "v": 27,
      "creates": null,
      "raw": "0xf87780860110c8f7d8de82c350942910543af39aba0cd09dbb2d50200b3e800a63d2890a4cc799563c38000089454e5a32514d4644381ba0a63e2dba8f3665bde4e53221bd1d746e08d6b2d50be9ea08cd3db73735347078a002d9b78958a63d315b2fc9d31ccc57da43d208d9ed1cda5a388b192f1c98b68d",
      "networkId": 0,
      "chainId": 0
    }
  ]
}