{
  "hash": "0xda01511ae02a7a7bca85d86d8afe47f84245f21d24e834c59722e765fe33f741",
  "parentHash": "0x63913a4f6c8f83a968feadfd9853c46c4c4e3c27639b1838d30af09645469899",
  "number": 52688,
  "timestamp": 1439025658,
  "nonce": "0x1cea90bf7076b9f4",
  "difficulty": 1571708685074,
  "gasLimit": {
    "_hex": "0x17c8e0"
  },
  "gasUsed": {
    "_hex": "0x16e360"
  },
  "miner": "0xa50ec0D39fa913E62f1Bae7074E6F36caA71855b",
  "extraData": "0x",
  "transactions": [
    {
      "hash": "0x58707eeec52c260a930a8a4afa4e0dcc9c693b5fc9f390cfd2485ad6658f88d9",
      "blockHash": "0xda01511ae02a7a7bca85d86d8afe47f84245f21d24e834c59722e765fe33f741",
      "blockNumber": 52688,
      "transactionIndex": 0,
      "confirmations": null,
      "from": "0x54dAeb3E8a6BBC797E4aD2b0339f134b186e4637",
      "gasPrice": {
        "_hex": "0xe1780dfbb"
      },
      "gasLimit": {
        "_hex": "0x7a120"
      },
      "to": "0xBAA54d6E90c3F4d7Ebec11bD180134C7eD8eBb52",
      "value": {
        "_hex": "0x16345785d8a0000"
      },
      "nonce": 945,
      "data": "0x",
      "r": "0x4127d208022ffa0723142a822bf6eeeab43695e7cb1a6ddafedb32b494de5c4f",
      "s": "0x64b38c22aa433a963a0d55029e82b78c2181ab7d643ed16e58aefc34914edfe4",
      "v": 27,
      "creates": null,
      "raw": "0xf86f8203b1850e1780dfbb8307a12094baa54d6e90c3f4d7ebec11bd180134c7ed8ebb5288016345785d8a0000801ba04127d208022ffa0723142a822bf6eeeab43695e7cb1a6ddafedb32b494de5c4fa064b38c22aa433a963a0d55029e82b78c2181ab7d643ed16e58aefc34914edfe4",
      "networkId": 0,
      "chainId": 0
    },
    {
      "hash": "0xf40e274dd328f8b59e925c1a7f45df6d562bb9673865a158e734fbacc85cc49e",
      "blockHash": "0xda01511ae02a7a7bca85d86d8afe47f84245f21d24e834c59722e765fe33f741",
      "blockNumber": 52688,
      "transactionIndex": 1,
      "confirmations": null,
      "from": "0x54dAeb3E8a6BBC797E4aD2b0339f134b186e4637",
      "gasPrice": {
        "_hex": "0xe7d27df17"
      },
      "gasLimit": {
        "_hex": "0x7a120"
      },
      "to": "0xBAA54d6E90c3F4d7Ebec11bD180134C7eD8eBb52",
      "value": {
        "_hex": "0x16345785d8a0000"
      },
      "nonce": 946,
      "data": "0x",
      "r": "0x37d8204c90027aea6df098bf001a885e9bda53dd57da6be25610bd5e7b3b31fe",
      "s": "0x3a3ef0100c29f339dff56214b485a58616e6d433a42c14c61fbb7eed657e5fd2",
      "v": 27,
      "creates": null,
      "raw": "0xf86f8203b2850e7d27df178307a12094baa54d6e90c3f4d7ebec11bd180134c7ed8ebb5288016345785d8a0000801ba037d8204c90027aea6df098bf001a885e9bda53dd57da6be25610bd5e7b3b31fea03a3ef0100c29f339dff56214b485a58616e6d433a42c14c61fbb7eed657e5fd2",
      "networkId": 0,
      "chainId": 0
    },
    {
      "hash": "0xc6f7d223ff41ab2aa51320a495c8a23fd43a4db2296941562e24a0ecfec8236e",
      "blockHash": "0xda01511ae02a7a7bca85d86d8afe47f84245f21d24e834c59722e765fe33f741",
      "blockNumber": 52688,
      "transactionIndex": 2,
      "confirmations": null,
      "from": "0x54dAeb3E8a6BBC797E4aD2b0339f134b186e4637",
      "gasPrice": {
        "_hex": "0xdada9c769"
      },
      "gasLimit": {
        "_hex": "0x7a120"
      },
      "to": "0xBAA54d6E90c3F4d7Ebec11bD180134C7eD8eBb52",
      "value": {
        "_hex": "0x16345785d8a0000"
      },
      "nonce": 947,
      "data": "0x",
      "r": "0xdaf44ea851c97b53d3ec0b515f511aed1dfb0105e3cbb69ce5cca77951ab8bbd",
      "s": "0x3a948132653df2748333a2d3d0f24f6245561f2eb3f68801f5f62bd0040050cc",
      "v": 28,
      "creates": null,
      "raw": "0xf86f8203b3850dada9c7698307a12094baa54d6e90c3f4d7ebec11bd180134c7ed8ebb5288016345785d8a0000801ca0daf44ea851c97b53d3ec0b515f511aed1dfb0105e3cbb69ce5cca77951ab8bbda03a948132653df2748333a2d3d0f24f6245561f2eb3f68801f5f62bd0040050cc",
      "networkId": 0,
      "chainId": 0
    }
  ]
}