{
  "hash": "0x39899e41b1ffc4b12fd5d2559715cdbb9039efcea716cf36f15f230208eb2d56",
  "parentHash": "0xd499693ef08cb675db72367504700f1aaa921c77dec10c67be32ebd91956c534",
  "number": 122329,
  "timestamp": 1440192275,
  "nonce": "0x425b93917820af12",
  "difficulty": 4473006640372,
  "gasLimit": {
    "_hex": "0x2fefd8"
  },
  "gasUsed": {
    "_hex": "0x5208"
  },
  "miner": "0x580992B51e3925e23280EfB93d3047C82f17E038",
  "extraData": "0x",
  "transactions": [
    {
      "hash": "0x48678bb2c35ed019c71addc496884c16aec43c4ee9939ff2d7d1051110a1df54",
      "blockHash": "0x39899e41b1ffc4b12fd5d2559715cdbb9039efcea716cf36f15f230208eb2d56",
      "blockNumber": 122329,
      "transactionIndex": 0,
      "confirmations": null,
      "from": "0xee8bB0274117C9A1D3695E19bea188c382EC1A8E",
      "gasPrice": {
        "_hex": "0xd9ef79bd8"
      },
      "gasLimit": {
        "_hex": "0x15f90"
      },
      "to": "0x9b0a028EAfDeCdE3AFc0fD00B7937098388b7C8a",
      "value": {
        "_hex": "0x5f67824bf5ec09958"
      },
      "nonce": 3,
      "data": "0x",
      "r": "0x6c2a112ae57491d4af5ee235748f056c706064f9eeb3e438d472cb54d552445f",
      "s": "0x59f0bb904e052af4ae096446fe7a1dfe029c0bd65ccd6d0d78baab7a81d79e1f",
      "v": 27,
      "creates": null,
      "raw": "0xf86e03850d9ef79bd883015f90949b0a028eafdecde3afc0fd00b7937098388b7c8a8905f67824bf5ec09958801ba06c2a112ae57491d4af5ee235748f056c706064f9eeb3e438d472cb54d552445fa059f0bb904e052af4ae096446fe7a1dfe029c0bd65ccd6d0d78baab7a81d79e1f",
      "networkId": 0,
      "chainId": 0
    }
  ]
}