{
  "hash": "0x56fe3c287eae054af5069dc8dadfd53f244688217b61467bb9974f5edccce67e",
  "parentHash": "0x2b1702e557253543df48f0fc065164ae870d29c978b1a4b77b6d3de212f68a54",
  "number": 58047,
  "timestamp": 1439114147,
  "nonce": "0xbf954bd386adf4e5",
  "difficulty": 1709151728572,
  "gasLimit": {
    "_hex": "0x2fefd8"
  },
  "gasUsed": {
    "_hex": "0x5208"
  },
  "miner": "0x47ff6576639c2e94762eA5443978D7681C0E78DC",
  "extraData": "0x476574682f76312e302e312f6c696e75782f676f312e342e32",
  "transactions": [
    {
      "hash": "0x7f175b811dbb7aeef98b2cf78c364184e54c7d636cebeccccde5c26a28955fbc",
      "blockHash": "0x56fe3c287eae054af5069dc8dadfd53f244688217b61467bb9974f5edccce67e",
      "blockNumber": 58047,
      "transactionIndex": 0,
      "confirmations": null,
      "from": "0x051219f568c86EA6DD6Dd2cC8052c31504F33d44",
      "gasPrice": {
        "_hex": "0x108bf3f53d7"
      },
      "gasLimit": {
        "_hex": "0x15f90"
      },
      "to": "0x1463cEF3d9007Db05b7C3B8981D38602EE0D855a",
      "value": {
        "_hex": "0x4563918244f40000"
      },
      "nonce": 1,
      "data": "0x",
      "r": "0x8ab598a4b4671559f0303e6bedd60b9f0369b011852eaf8370c8366c57704a53",
      "s": "0x4a2902430fcea98b7bb96f6667233a0d60aab8e318dee9ef2a19bcd2f849cee9",
      "v": 28,
      "creates": null,
      "raw": "0xf86e01860108bf3f53d783015f90941463cef3d9007db05b7c3b8981d38602ee0d855a884563918244f40000801ca08ab598a4b4671559f0303e6bedd60b9f0369b011852eaf8370c8366c57704a53a04a2902430fcea98b7bb96f6667233a0d60aab8e318dee9ef2a19bcd2f849cee9",
      "networkId": 0,
      "chainId": 0
    }
  ]
}