{
  "hash": "0x691bb1fe7afe79bc41135dad6cefefc23820a2a8161595d9033188a34877c9a0",
  "parentHash": "0x581f0ff061f2a0463f4c093d539c1fcfe6f3bc1dc8d49aef2cad9c98ef2fc4ce",
  "number": 89185,
  "timestamp": 1439619449,
  "nonce": "0x7337937afc783dcd",
  "difficulty": 3285477034584,
  "gasLimit": {
    "_hex": "0x2fefd8"
  },
  "gasUsed": {
    "_hex": "0x5208"
  },
  "miner": "0x88D74a59454F6cF3B51ef6b9136AFb6b9D405A88",
  "extraData": "0x476574682f76312e302e312d37666266393930632f6c696e75782f676f312e34",
  "transactions": [
    {
      "hash": "0xf59c4269a719af72a21925b114fc3661cea1869cebf4d34d680dcefcd3fc662f",
      "blockHash": "0x691bb1fe7afe79bc41135dad6cefefc23820a2a8161595d9033188a34877c9a0",
      "blockNumber": 89185,
      "transactionIndex": 0,
      "confirmations": null,
      "from": "0x0e2eD0C2048E434193301F549ac76A9E081C29B2",
      "gasPrice": {
        "_hex": "0xdfb5f4f7e"
      },
      "gasLimit": {
        "_hex": "0x5208"
      },
      "to": "0x32Be343B94f860124dC4fEe278FDCBD38C102D88",
      "value": {
        "_hex": "0x8e0d1a794a9c400000"
      },
      "nonce": 0,
      "data": "0x",
      "r": "0xb9dfd4d90701acc71a38c2e4defef27a6fedc2ac755a7b124ff2b894618d3a85",
      "s": "0x3994eb3ca4e3efc0759d9688edebb741f9c066cce3b17fb90193aae43a2e4bf1",
      "v": 27,
      "creates": null,
      "raw": "0xf86d80850dfb5f4f7e8252089432be343b94f860124dc4fee278fdcbd38c102d88898e0d1a794a9c400000801ba0b9dfd4d90701acc71a38c2e4defef27a6fedc2ac755a7b124ff2b894618d3a85a03994eb3ca4e3efc0759d9688edebb741f9c066cce3b17fb90193aae43a2e4bf1",
      "networkId": 0,
      "chainId": 0
    }
  ]
}