{
  "hash": "0x96aa6a1102333c3b09c6a4889b88e143581d54268d1707ad864db26d2b21498f",
  "parentHash": "0x7aed1ae1b9b132df147b67dbb340f45d8a64242340ee6fe7f574dbd67bd74d5c",
  "number": 100695,
  "timestamp": 1439810712,
  "nonce": "0xa89e7a1accb8f1da",
  "difficulty": 3839592853586,
  "gasLimit": {
    "_hex": "0x2fefd8"
  },
  "gasUsed": {
    "_hex": "0x5208"
  },
  "miner": "0xe6A7a1d47ff21B6321162AEA7C6CB457D5476Bca",
  "extraData": "0x476574682f76312e302e312d38326566323666362f6c696e75782f676f312e34",
  "transactions": [
    {
      "hash": "0xd8e569f519fb3a031a32486fe3ad2480517414b9b9e1ef6fab476884f0109d0f",
      "blockHash": "0x96aa6a1102333c3b09c6a4889b88e143581d54268d1707ad864db26d2b21498f",
      "blockNumber": 100695,
      "transactionIndex": 0,
      "confirmations": null,
      "from": "0x7884D470204862a0d1A21122F41ee77430396Ee5",
      "gasPrice": {
        "_hex": "0xd500be8b7"
      },
      "gasLimit": {
        "_hex": "0x15f90"
      },
      "to": "0x7884D470204862a0d1A21122F41ee77430396Ee5",
      "value": {
        "_hex": "0x4064976a8dd0000"
      },
      "nonce": 64,
      "data": "0x",
      "r": "0xea964a21b5c53cd98f7ffca10672415bee5d1f431247903e9c9f15b8f6e7b67f",
      "s": "0x5fac731680d373645d4622b1bf994b094c5e251df61ad5ba61df4b068df271e1",
      "v": 27,
      "creates": null,
      "raw": "0xf86d40850d500be8b783015f90947884d470204862a0d1a21122f41ee77430396ee58804064976a8dd0000801ba0ea964a21b5c53cd98f7ffca10672415bee5d1f431247903e9c9f15b8f6e7b67fa05fac731680d373645d4622b1bf994b094c5e251df61ad5ba61df4b068df271e1",
      "networkId": 0,
      "chainId": 0
    }
  ]
}