{
  "hash": "0xa330adde42ff2136667a656e3622a6899e08d7d03eaa4480130d0e53a6133cac",
  "parentHash": "0xf9918f58de4ad52530087ff28523e6ce0a5a967ac9191dfa0f9b8bc573e85dc1",
  "number": 94964,
  "timestamp": 1439716755,
  "nonce": "0x5f2b632d020bcc19",
  "difficulty": 3520655419886,
  "gasLimit": {
    "_hex": "0x2fefd8"
  },
  "gasUsed": {
    "_hex": "0xa410"
  },
  "miner": "0xe6A7a1d47ff21B6321162AEA7C6CB457D5476Bca",
  "extraData": "0x476574682f76312e302e312d38326566323666362f6c696e75782f676f312e34",
  "transactions": [
    {
      "hash": "0xb7c597f06b68eef064a91d7c1e6e3605dd9f498f08263d15fa63ad39cfd62834",
      "blockHash": "0xa330adde42ff2136667a656e3622a6899e08d7d03eaa4480130d0e53a6133cac",
      "blockNumber": 94964,
      "transactionIndex": 0,
      "confirmations": null,
      "from": "0x8b06F59751d5260f1d1d7ec4B399c04609B9d974",
      "gasPrice": {
        "_hex": "0xdb13c4635"
      },
      "gasLimit": {
        "_hex": "0x15f90"
      },
      "to": "0x7884D470204862a0d1A21122F41ee77430396Ee5",
      "value": {
        "_hex": "0x55d4a800"
      },
      "nonce": 3,
      "data": "0x",
      "r": "0x7b79c228fbb0575c2739c9292e2fe94dae70347597665b39bfa689e2c1b125f4",
      "s": "0x00144ffe451c0565d26dcb2a6b1aa71190b2084f468809c1877f09f0dfeb2762",
      "v": 27,
      "creates": null,
      "raw": "0xf86803850db13c463583015f90947884d470204862a0d1a21122f41ee77430396ee58455d4a800801ba07b79c228fbb0575c2739c9292e2fe94dae70347597665b39bfa689e2c1b125f49f144ffe451c0565d26dcb2a6b1aa71190b2084f468809c1877f09f0dfeb2762",
      "networkId": 0,
      "chainId": 0
    },
    {
      "hash": "0x02d6703857dec18e3a7fcc862e7b8a7dfcbce8ad3a651e4ab0ed501de121ea5b",
      "blockHash": "0xa330adde42ff2136667a656e3622a6899e08d7d03eaa4480130d0e53a6133cac",
      "blockNumber": 94964,
      "transactionIndex": 1,
      "confirmations": null,
      "from": "0x8b06F59751d5260f1d1d7ec4B399c04609B9d974",
      "gasPrice": {
        "_hex": "0xd8ada65f2"
      },
      "gasLimit": {
        "_hex": "0x15f90"
      },
      "to": "0x7884D470204862a0d1A21122F41ee77430396Ee5",
      "value": {
        "_hex": "0x55d4a800"
      },
      "nonce": 4,
      "data": "0x",
      "r": "0xfad81ed3f81ff98790d1e2bb18c16fb14c2ada0d11026a24d50783f1cab398a0",
      "s": "0x2817612eb2c3aa84fde4e0c05b33ae421186282bc631dca05e87ed2195aa3add",
      "v": 28,
      "creates": null,
      "raw": "0xf86904850d8ada65f283015f90947884d470204862a0d1a21122f41ee77430396ee58455d4a800801ca0fad81ed3f81ff98790d1e2bb18c16fb14c2ada0d11026a24d50783f1cab398a0a02817612eb2c3aa84fde4e0c05b33ae421186282bc631dca05e87ed2195aa3add",
      "networkId": 0,
      "chainId": 0
    }
  ]
}