{
  "hash": "0xb230f1fcc05e0b27a346c4eb8f6255427ee730035428919bd2b9dd38d24588d4",
  "parentHash": "0x395b5dd10e9937540c75d2ca5123d7d3bf875d0320359b73747f78db0c5d85ca",
  "number": 100868,
  "timestamp": 1439813668,
  "nonce": "0xd420c07413314d2a",
  "difficulty": 3856423662343,
  "gasLimit": {
    "_hex": "0x2fefd8"
  },
  "gasUsed": {
    "_hex": "0xf618"
  },
  "miner": "0x9D49F602b0fdb924Bd63DDE2Bd0907E4A07c63a7",
  "extraData": "0x476574682f76312e302e312f6c696e75782f676f312e342e32",
  "transactions": [
    {
      "hash": "0x87f92e92a747814b1d87bbd18c6524c8b3c2b3ead60270ee1d6ef207b0932b5e",
      "blockHash": "0xb230f1fcc05e0b27a346c4eb8f6255427ee730035428919bd2b9dd38d24588d4",
      "blockNumber": 100868,
      "transactionIndex": 0,
      "confirmations": null,
      "from": "0x32Be343B94f860124dC4fEe278FDCBD38C102D88",
      "gasPrice": {
        "_hex": "0xdc48cf48a"
      },
      "gasLimit": {
        "_hex": "0x5208"
      },
      "to": "0x090041473c833bf54B1197fD120F895C537c26B0",
      "value": {
        "_hex": "0xde0b6b3a7640000"
      },
      "nonce": 1070,
      "data": "0x",
      "r": "0x731ae46eb9403a652c4138a250b229506fddccd7a51a65426029341182c589d9",
      "s": "0x16b0069b287705f03708724fea8fc39b816d247bbb657545f8016a97b9d22e0e",
      "v": 27,
      "creates": null,
      "raw": "0xf86e82042e850dc48cf48a82520894090041473c833bf54b1197fd120f895c537c26b0880de0b6b3a7640000801ba0731ae46eb9403a652c4138a250b229506fddccd7a51a65426029341182c589d9a016b0069b287705f03708724fea8fc39b816d247bbb657545f8016a97b9d22e0e",
      "networkId": 0,
      "chainId": 0
    },
    {
      "hash": "0x68eef19ef13d65384ee17a672bf60fa8c906c1e34f78de996d68c14bf8fc0515",
      "blockHash": "0xb230f1fcc05e0b27a346c4eb8f6255427ee730035428919bd2b9dd38d24588d4",
      "blockNumber": 100868,
      "transactionIndex": 1,
      "confirmations": null,
      "from": "0x022A006FcC619ebf387F413eF06932bAbd47AE0E",
      "gasPrice": {
        "_hex": "0xdc48cf48a"
      },
      "gasLimit": {
        "_hex": "0x5208"
      },
      "to": "0x32Be343B94f860124dC4fEe278FDCBD38C102D88",
      "value": {
        "_hex": "0x11b3fef9c1a351000"
      },
      "nonce": 6,
      "data": "0x",
      "r": "0x9a9d1c91f190b11cc4e0ba1f5cd50107a9d37adef075d662a9708dab6867f244",
      "s": "0x78456cf4cf782b1337ed5c8f70d5598b3208858bc9056a031c1c680e09cac1b8",
      "v": 27,
      "creates": null,
      "raw": "0xf86d06850dc48cf48a8252089432be343b94f860124dc4fee278fdcbd38c102d8889011b3fef9c1a351000801ba09a9d1c91f190b11cc4e0ba1f5cd50107a9d37adef075d662a9708dab6867f244a078456cf4cf782b1337ed5c8f70d5598b3208858bc9056a031c1c680e09cac1b8",
      "networkId": 0,
      "chainId": 0
    },
    {
      "hash": "0x0e36c153c121990bfaaa5ae93bc301affacffb8a8bf0bb06b4f10bdf516231ed",
      "blockHash": "0xb230f1fcc05e0b27a346c4eb8f6255427ee730035428919bd2b9dd38d24588d4",
      "blockNumber": 100868,
      "transactionIndex": 2,
      "confirmations": null,
      "from": "0x3D1d22d2A05a3E9b3792561f2FF5f8D879352d6c",
      "gasPrice": {
        "_hex": "0xdc48cf48a"
      },
      "gasLimit": {
        "_hex": "0x5208"
      },
      "to": "0x32Be343B94f860124dC4fEe278FDCBD38C102D88",
      "value": {
        "_hex": "0x179b4cb3f1ad0800"
      },
      "nonce": 4,
      "data": "0x",
      "r": "0x2a852ff453fe1fc0843074d692f9f2c3893425b923d0dff74baa59686801f2c6",
      "s": "0x754b5e7294baa62e39083e5d5f8032eb206efb8c534b0d4a6300db687731f28a",
      "v": 27,
      "creates": null,
      "raw": "0xf86c04850dc48cf48a8252089432be343b94f860124dc4fee278fdcbd38c102d8888179b4cb3f1ad0800801ba02a852ff453fe1fc0843074d692f9f2c3893425b923d0dff74baa59686801f2c6a0754b5e7294baa62e39083e5d5f8032eb206efb8c534b0d4a6300db687731f28a",
      "networkId": 0,
      "chainId": 0
    }
  ]
}