{
  "hash": "0xca37a2e197d553e14217c3428e084002a59f7d95e6a83a21613594de2da00475",
  "parentHash": "0x86ab923b404be9a76db61047d307b2557674f24bef0b2a9870fd646ba3e1d370",
  "number": 110404,
  "timestamp": 1439973225,
  "nonce": "0xa49a6a29533fc297",
  "difficulty": 4382019634797,
  "gasLimit": {
    "_hex": "0x2fefd8"
  },
  "gasUsed": {
    "_hex": "0x19a28"
  },
  "miner": "0xD0317e8d007a61B8d740516E8a268D4faDADccbF",
  "extraData": "0x",
  "transactions": [
    {
      "hash": "0x2396227a42b113ca2075285418728b1592f50a5f8f56a0680d302b4f0389a630",
      "blockHash": "0xca37a2e197d553e14217c3428e084002a59f7d95e6a83a21613594de2da00475",
      "blockNumber": 110404,
      "transactionIndex": 0,
      "confirmations": null,
      "from": "0x52191276589069F70F0E46bcCc718d793d1Aa1D0",
      "gasPrice": {
        "_hex": "0xdf45bbf36"
      },
      "gasLimit": {
        "_hex": "0x5208"
      },
      "to": "0x32Be343B94f860124dC4fEe278FDCBD38C102D88",
      "value": {
        "_hex": "0x242c9b9ea40b0c000"
      },
      "nonce": 14,
      "data": "0x",
      "r": "0xaba62ea6b391489f754abcf668540662034e0e851c97c51720fdda35ad27b8d4",
      "s": "0x69709e62d8c4c23e798a8381ee9d4fe771dc8f7d370fe3473a02ef0cf863a351",
      "v": 27,
      "creates": null,
      "raw": "0xf86d0e850df45bbf368252089432be343b94f860124dc4fee278fdcbd38c102d88890242c9b9ea40b0c000801ba0aba62ea6b391489f754abcf668540662034e0e851c97c51720fdda35ad27b8d4a069709e62d8c4c23e798a8381ee9d4fe771dc8f7d370fe3473a02ef0cf863a351",
      "networkId": 0,
      "chainId": 0
    },
    {
      "hash": "0x3ea240b1db377342a487fc213a1be6f916de3bfc5a8f0b0da9e3a484f3a7e340",
      "blockHash": "0xca37a2e197d553e14217c3428e084002a59f7d95e6a83a21613594de2da00475",
      "blockNumber": 110404,
      "transactionIndex": 1,
      "confirmations": null,
      "from": "0x0912001e29BbaF75C23069A22D9B9602BE86FEB7",
      "gasPrice": {
        "_hex": "0xdf45bbf36"
      },
      "gasLimit": {
        "_hex": "0x5208"
      },
      "to": "0x32Be343B94f860124dC4fEe278FDCBD38C102D88",
      "value": {
        "_hex": "0xd3107989f18a08000"
      },
      "nonce": 7,
      "data": "0x",
      "r": "0x4f7592b199505a5b88fa1d814ab690b7f24eac1b192d008aa4ae0fe3f095e14d",
      "s": "0x2fee8fe2bbfb6b87121e7cf94b0171bf9229423faff16ffda1152a2f9f7f7c36",
      "v": 28,
      "creates": null,
      "raw": "0xf86d07850df45bbf368252089432be343b94f860124dc4fee278fdcbd38c102d88890d3107989f18a08000801ca04f7592b199505a5b88fa1d814ab690b7f24eac1b192d008aa4ae0fe3f095e14da02fee8fe2bbfb6b87121e7cf94b0171bf9229423faff16ffda1152a2f9f7f7c36",
      "networkId": 0,
      "chainId": 0
    },
    {
      "hash": "0x8187be76b2a299822a4fe9636b0e4a4040f3cd552bdd099358055a4a7f06b86c",
      "blockHash": "0xca37a2e197d553e14217c3428e084002a59f7d95e6a83a21613594de2da00475",
      "blockNumber": 110404,
      "transactionIndex": 2,
      "confirmations": null,
      "from": "0xe6A7a1d47ff21B6321162AEA7C6CB457D5476Bca",
      "gasPrice": {
        "_hex": "0xde7bb22da"
      },
      "gasLimit": {
        "_hex": "0x55f0"
      },
      "to": "0xb62A0BF317fceb39ed916f0F9E60e623Ad309127",
      "value": {
        "_hex": "0x1be7b665dee40a2c"
      },
      "nonce": 4619,
      "data": "0x",
      "r": "0xefcf53f4d784529655b000332b0a10e1721852b2a578bf27da113399219931e4",
      "s": "0x1c7538075d4fc2c458d2906a59af3fd454e4add7d52e71fec4c47b01e10e9c19",
      "v": 28,
      "creates": null,
      "raw": "0xf86e82120b850de7bb22da8255f094b62a0bf317fceb39ed916f0f9e60e623ad309127881be7b665dee40a2c801ca0efcf53f4d784529655b000332b0a10e1721852b2a578bf27da113399219931e4a01c7538075d4fc2c458d2906a59af3fd454e4add7d52e71fec4c47b01e10e9c19",
      "networkId": 0,
      "chainId": 0
    },
    {
      "hash": "0x2d60ad73eda85721502199b09d4e17710a8fa2960736859cf21a7fc70f955967",
      "blockHash": "0xca37a2e197d553e14217c3428e084002a59f7d95e6a83a21613594de2da00475",
      "blockNumber": 110404,
      "transactionIndex": 3,
      "confirmations": null,
      "from": "0xe6A7a1d47ff21B6321162AEA7C6CB457D5476Bca",
      "gasPrice": {
        "_hex": "0xde7bb22da"
      },
      "gasLimit": {
        "_hex": "0x55f0"
      },
      "to": "0x0B5Ec5ACa458C1693E5Abdc8cA6989c2CBFeB81b",
      "value": {
        "_hex": "0xa4e2d7f14f18b050"
      },
      "nonce": 4620,
      "data": "0x",
      "r": "0x147dc1bb543f0677b10440af872a744484ce2a6a887ec152064a6a65bfc36c95",
      "s": "0x2ad0356da6ccf004828db9204854c8b54382203a1067f57099fedbf188e5f996",
      "v": 27,
      "creates": null,
      "raw": "0xf86e82120c850de7bb22da8255f0940b5ec5aca458c1693e5abdc8ca6989c2cbfeb81b88a4e2d7f14f18b050801ba0147dc1bb543f0677b10440af872a744484ce2a6a887ec152064a6a65bfc36c95a02ad0356da6ccf004828db9204854c8b54382203a1067f57099fedbf188e5f996",
      "networkId": 0,
      "chainId": 0
    },
    {
      "hash": "0x25dcdc94d43b03ba216f5a9235caf6b33cabbf4fa3c0bfce37cc26fa3a09d12f",
      "blockHash": "0xca37a2e197d553e14217c3428e084002a59f7d95e6a83a21613594de2da00475",
      "blockNumber": 110404,
      "transactionIndex": 4,
      "confirmations": null,
      "from": "0xE300c4587D260cE22a677755Db6429B491A4309E",
      "gasPrice": {
        "_hex": "0xd8bbacacd"
      },
      "gasLimit": {
        "_hex": "0x15f90"
      },
      "to": "0x28e44357aa686897cd4A46125e239497723aC38b",
      "value": {
        "_hex": "0xd04aadfa99d68000"
      },
      "nonce": 26,
      "data": "0x",
      "r": "0x1ce1511078e6f14f625e98bafbdcb97024096d70352a06e8c18d590b137666ad",
      "s": "0x56af2d8285a4dfdea9eead7146b45223628d4c14e5051a68216d54ed0409342e",
      "v": 28,
      "creates": null,
      "raw": "0xf86d1a850d8bbacacd83015f909428e44357aa686897cd4a46125e239497723ac38b88d04aadfa99d68000801ca01ce1511078e6f14f625e98bafbdcb97024096d70352a06e8c18d590b137666ada056af2d8285a4dfdea9eead7146b45223628d4c14e5051a68216d54ed0409342e",
      "networkId": 0,
      "chainId": 0
    }
  ]
}