{
  "hash": "0x54c68c8a066be49acbabd7042893a24254030737a3113c0760b85e265b3d711b",
  "parentHash": "0x7d603a1fb2100d7a2927259fcd22bc818ced315b4ab6cb889512a1f0b414589e",
  "number": 68299,
  "timestamp": 1439285562,
  "nonce": "0x1bdd6f4c58ee2e6a",
  "difficulty": 2003571446159,
  "gasLimit": {
    "_hex": "0x2fefd8"
  },
  "gasUsed": {
    "_hex": "0x17cd8"
  },
  "miner": "0xf927a40C8B7F6E07c5af7FA2155B4864a4112B13",
  "extraData": "0x",
  "transactions": [
    {
      "hash": "0x7a038a2ab2e590527cf728a44f10fc99494d9977fa07ba79ad14638a1fe3007e",
      "blockHash": "0x54c68c8a066be49acbabd7042893a24254030737a3113c0760b85e265b3d711b",
      "blockNumber": 68299,
      "transactionIndex": 0,
      "confirmations": null,
      "from": "0xAf6EC5954DA05b5E2a5CB68F2154a8D1d2f20Bb9",
      "gasPrice": {
        "_hex": "0xba43b7400"
      },
      "gasLimit": {
        "_hex": "0x15f90"
      },
      "to": "0x793AE8C1b1a160BFc07BFB0d04F85eab1A71F4f2",
      "value": {
        "_hex": "0x0"
      },
      "nonce": 0,
      "data": "0x3ba15036",
      "r": "0x88ea7d0e1c61d4fbaa72a2316b5a13a72099d6dbe900fc182b4ce5f24e627d37",
      "s": "0x31c0802becce6e240088065ef06106667a01514523a04fd92b88407b52d8dcf1",
      "v": 27,
      "creates": null,
      "raw": "0xf86980850ba43b740083015f9094793ae8c1b1a160bfc07bfb0d04f85eab1a71f4f280843ba150361ba088ea7d0e1c61d4fbaa72a2316b5a13a72099d6dbe900fc182b4ce5f24e627d37a031c0802becce6e240088065ef06106667a01514523a04fd92b88407b52d8dcf1",
      "networkId": 0,
      "chainId": 0
    },
    {
      "hash": "0x7ba78c38578d883f93ca511e14b1e398088b0891a76c29f207e3413cd4be3129",
      "blockHash": "0x54c68c8a066be49acbabd7042893a24254030737a3113c0760b85e265b3d711b",
      "blockNumber": 68299,
      "transactionIndex": 1,
      "confirmations": null,
      "from": "0xE849c689AF33eB86bd7f8c1643fd4e8B9C777F03",
      "gasPrice": {
        "_hex": "0xba43b7400"
      },
      "gasLimit": {
        "_hex": "0x15f90"
      },
      "to": "0x793AE8C1b1a160BFc07BFB0d04F85eab1A71F4f2",
      "value": {
        "_hex": "0x0"
      },
      "nonce": 0,
      "data": "0x3ba15036",
      "r": "0xd98ff5a5a634cd1783792a4b8e5e68c819283941f6bc4ed920898bb39b93aa80",
      "s": "0x778d52d90028f3e19a44941a62c0ef824c95a0baefc684aa347d2541f48bf0c5",
      "v": 28,
      "creates": null,
      "raw": "0xf86980850ba43b740083015f9094793ae8c1b1a160bfc07bfb0d04f85eab1a71f4f280843ba150361ca0d98ff5a5a634cd1783792a4b8e5e68c819283941f6bc4ed920898bb39b93aa80a0778d52d90028f3e19a44941a62c0ef824c95a0baefc684aa347d2541f48bf0c5",
      "networkId": 0,
      "chainId": 0
    }
  ]
}