{
  "hash": "0x3b82e88aaa9e69c14a72d4ec2bd0cb1e54f330a0c4120cf313f60383afbb3c3f",
  "parentHash": "0x7d0b565c599ad0e607aba2a3c470fea88d502c4bd3720010ee9157ae3171141e",
  "number": 119435,
  "timestamp": 1440142946,
  "nonce": "0x45c6cc7b956f6c20",
  "difficulty": 4379442459853,
  "gasLimit": {
    "_hex": "0x2fefd8"
  },
  "gasUsed": {
    "_hex": "0x5208"
  },
  "miner": "0x790b8a3cE86E707ED0eD32bF89B3269692a23CC1",
  "extraData": "0xd783010002844765746887676f312e342e32856c696e7578",
  "transactions": [
    {
      "hash": "0x2afd9818949eb9b53ef5e6e199e72a4d62ca02cff2fd02aebcc5572d38373299",
      "blockHash": "0x3b82e88aaa9e69c14a72d4ec2bd0cb1e54f330a0c4120cf313f60383afbb3c3f",
      "blockNumber": 119435,
      "transactionIndex": 0,
      "confirmations": null,
      "from": "0xC3fe64D1af00F0d9c324E4387EF7533f7D788e95",
      "gasPrice": {
        "_hex": "0xba43b7400"
      },
      "gasLimit": {
        "_hex": "0x5208"
      },
      "to": "0x32Be343B94f860124dC4fEe278FDCBD38C102D88",
      "value": {
        "_hex": "0x50e74c080616c000"
      },
      "nonce": 21,
      "data": "0x",
      "r": "0x5f9f7f638b366395cc0cf02ebca8c9404ef4380c3930a76e682bbb18061d9d5f",
      "s": "0x67d55da4127ce52b6e0ebe0d8e8873b6d17fa735949a193dfbb23ff90cf804d9",
      "v": 27,
      "creates": null,
      "raw": "0xf86c15850ba43b74008252089432be343b94f860124dc4fee278fdcbd38c102d888850e74c080616c000801ba05f9f7f638b366395cc0cf02ebca8c9404ef4380c3930a76e682bbb18061d9d5fa067d55da4127ce52b6e0ebe0d8e8873b6d17fa735949a193dfbb23ff90cf804d9",
      "networkId": 0,
      "chainId": 0
    }
  ]
}