{
  "hash": "0xc8aea9c3d2bdc645711b03f15bae9397a56b7f1bc41573313e1dcbe0a0c37e15",
  "parentHash": "0xf248f1f88ea9166a1cb3be2824440ad4514c087f3b19747158efd3892fa5bbd3",
  "number": 48524,
  "timestamp": 1438958513,
  "nonce": "0x8b2ead87fa6ff081",
  "difficulty": 1467153026953,
  "gasLimit": {
    "_hex": "0x18cd2"
  },
  "gasUsed": {
    "_hex": "0x546c"
  },
  "miner": "0xBb12b5a9B85D4AB8CDE6056E9c1b2a4a337D2261",
  "extraData": "0x476574682f76312e302e312d36393865393864392f6c696e75782f676f312e34",
  "transactions": [
    {
      "hash": "0x396f20517b58bc1b20f517e17cee3588280b2507267ac8411a7a0e687ea029ca",
      "blockHash": "0xc8aea9c3d2bdc645711b03f15bae9397a56b7f1bc41573313e1dcbe0a0c37e15",
      "blockNumber": 48524,
      "transactionIndex": 0,
      "confirmations": null,
      "from": "0xD2a5A024230a57Ccc666760b89b0e26CAFd189C7",
      "gasPrice": {
        "_hex": "0x10b801911d2"
      },
      "gasLimit": {
        "_hex": "0x15f90"
      },
      "to": "0x2910543Af39abA0Cd09dBb2D50200b3E800A63D2",
      "value": {
        "_hex": "0x3635c9adc5dea00000"
      },
      "nonce": 0,
      "data": "0x454e33444537353247",
      "r": "0xb4ec010b7f19594f3d26c5a8bd4796dafed1dc280d0b34c3f6601ab4accb9ade",
      "s": "0x12150050ff612f8a7e2ba7dd4fd931a51de5fa87aadc6ad58f7bf0ed1205c711",
      "v": 28,
      "creates": null,
      "raw": "0xf8788086010b801911d283015f90942910543af39aba0cd09dbb2d50200b3e800a63d2893635c9adc5dea0000089454e334445373532471ca0b4ec010b7f19594f3d26c5a8bd4796dafed1dc280d0b34c3f6601ab4accb9adea012150050ff612f8a7e2ba7dd4fd931a51de5fa87aadc6ad58f7bf0ed1205c711",
      "networkId": 0,
      "chainId": 0
    }
  ]
}