{
  "hash": "0x81575119e7f5c4a07b4434a2c53a49ea5317629d269d3ffe00b06485e113cd53",
  "parentHash": "0x6964629ba5e1755857c1a21933ce9a86645b46be262414ad777607784fe9af37",
  "number": 60035,
  "timestamp": 1439148033,
  "nonce": "0x256491c8d37e495e",
  "difficulty": 1725515454313,
  "gasLimit": {
    "_hex": "0x2fefd8"
  },
  "gasUsed": {
    "_hex": "0xf618"
  },
  "miner": "0x84BDA1c0A280B67d35727441B56e102aDCc594ac",
  "extraData": "0x476574682f76312e302e312f77696e646f77732f676f312e342e32",
  "transactions": [
    {
      "hash": "0xe61d3e492478bdd1ea31eaf03b25b9a792477b550e00aa2bc546afbc36c9cb86",
      "blockHash": "0x81575119e7f5c4a07b4434a2c53a49ea5317629d269d3ffe00b06485e113cd53",
      "blockNumber": 60035,
      "transactionIndex": 0,
      "confirmations": null,
      "from": "0xa577C0A78748B2600891DD16806a6823cB439316",
      "gasPrice": {
        "_hex": "0xd69f4d9f1"
      },
      "gasLimit": {
        "_hex": "0x5208"
      },
      "to": "0x32Be343B94f860124dC4fEe278FDCBD38C102D88",
      "value": {
        "_hex": "0xee966e83d3679800"
      },
      "nonce": 1,
      "data": "0x",
      "r": "0x0ec1cc91d761529d1e0e3bc9ae42d80f4ea7184f2e37439f733131c4648ecf14",
      "s": "0x28615a64f687b72b660e056cb4172a942e7f1dfd902069aa277b2cf6a6103f95",
      "v": 28,
      "creates": null,
      "raw": "0xf86c01850d69f4d9f18252089432be343b94f860124dc4fee278fdcbd38c102d8888ee966e83d3679800801ca00ec1cc91d761529d1e0e3bc9ae42d80f4ea7184f2e37439f733131c4648ecf14a028615a64f687b72b660e056cb4172a942e7f1dfd902069aa277b2cf6a6103f95",
      "networkId": 0,
      "chainId": 0
    },
    {
      "hash": "0x72fc1d1879fae094114d12b90d6a8022c55f118e06ae70d0c9828ca76974d950",
      "blockHash": "0x81575119e7f5c4a07b4434a2c53a49ea5317629d269d3ffe00b06485e113cd53",
      "blockNumber": 60035,
      "transactionIndex": 1,
      "confirmations": null,
      "from": "0xAA977A3542936031d6D16289441e1C32052Cb913",
      "gasPrice": {
        "_hex": "0xd69f4d9f1"
      },
      "gasLimit": {
        "_hex": "0x5208"
      },
      "to": "0x32Be343B94f860124dC4fEe278FDCBD38C102D88",
      "value": {
        "_hex": "0x1043400ab275c80000"
      },
      "nonce": 1,
      "data": "0x",
      "r": "0x40a0e9b2336bf0db3aa891628b4e9f2680035d280cd85e6ee0b4ce99857b1cc2",
      "s": "0x0314177fefd5b38c757e2ebb4d23a6308e9b780756c5b4df1109e55dbedef5d4",
      "v": 27,
      "creates": null,
      "raw": "0xf86d01850d69f4d9f18252089432be343b94f860124dc4fee278fdcbd38c102d88891043400ab275c80000801ba040a0e9b2336bf0db3aa891628b4e9f2680035d280cd85e6ee0b4ce99857b1cc2a00314177fefd5b38c757e2ebb4d23a6308e9b780756c5b4df1109e55dbedef5d4",
      "networkId": 0,
      "chainId": 0
    },
    {
      "hash": "0x135da7ffd826dd773958548ea00dec814ef632bcc21f9fb85352140b236adbf4",
      "blockHash": "0x81575119e7f5c4a07b4434a2c53a49ea5317629d269d3ffe00b06485e113cd53",
      "blockNumber": 60035,
      "transactionIndex": 2,
      "confirmations": null,
      "from": "0xd223eD5b348a82910987CbBc7875a7AE62E1Ba53",
      "gasPrice": {
        "_hex": "0xd69f4d9f1"
      },
      "gasLimit": {
        "_hex": "0x5208"
      },
      "to": "0x32Be343B94f860124dC4fEe278FDCBD38C102D88",
      "value": {
        "_hex": "0x28c3d3e9f3fd4e000"
      },
      "nonce": 0,
      "data": "0x",
      "r": "0x1f4de1fc31b5bf7d7799e49a6dbddbee907ce97511911e41d22cf5ac9cb637d7",
      "s": "0x40acc0f61cc6c81a1db961f733bfaee373094c463a254d3ca876d8fc1b868022",
      "v": 27,
      "creates": null,
      "raw": "0xf86d80850d69f4d9f18252089432be343b94f860124dc4fee278fdcbd38c102d8889028c3d3e9f3fd4e000801ba01f4de1fc31b5bf7d7799e49a6dbddbee907ce97511911e41d22cf5ac9cb637d7a040acc0f61cc6c81a1db961f733bfaee373094c463a254d3ca876d8fc1b868022",
      "networkId": 0,
      "chainId": 0
    }
  ]
}