{
  "hash": "0x6f308aeced17f51c6f786bf9a46d4a312545a741399d2ba5c2aa90c35b19d77c",
  "parentHash": "0x3b4a411074bca32bc1741b52890a8ffcb3587728fdb5f37a88beb4fe0853bb2c",
  "number": 84266,
  "timestamp": 1439547290,
  "nonce": "0x46eb121d173e2be8",
  "difficulty": 2526701338841,
  "gasLimit": {
    "_hex": "0x2fefd8"
  },
  "gasUsed": {
    "_hex": "0x7b324"
  },
  "miner": "0x47ff6576639c2e94762eA5443978D7681C0E78DC",
  "extraData": "0x476574682f76312e302e312f6c696e75782f676f312e342e32",
  "transactions": [
    {
      "hash": "0x1c1a11eeab7d4fd461aba351a2cc93b1afe0ee0f0e4bb2d03b227e1cd99113f2",
      "blockHash": "0x6f308aeced17f51c6f786bf9a46d4a312545a741399d2ba5c2aa90c35b19d77c",
      "blockNumber": 84266,
      "transactionIndex": 0,
      "confirmations": null,
      "from": "0x2cb5495a505336c2465410d1cae095b8e1Ba5CDd",
      "gasPrice": {
        "_hex": "0xffa3119945"
      },
      "gasLimit": {
        "_hex": "0x55f0"
      },
      "to": "0x2910543Af39abA0Cd09dBb2D50200b3E800A63D2",
      "value": {
        "_hex": "0xa2a15d09519be00000"
      },
      "nonce": 3,
      "data": "0x454e51475447413347",
      "r": "0x77983638934d8834b162d696d8b624d389c2ba136f0f6a89e028e44943252e16",
      "s": "0x3ffaac6ea92332fb513c01e260acd216884d15b04b891fcd13dc4d0ba639a17e",
      "v": 27,
      "creates": null,
      "raw": "0xf8760385ffa31199458255f0942910543af39aba0cd09dbb2d50200b3e800a63d289a2a15d09519be0000089454e514754474133471ba077983638934d8834b162d696d8b624d389c2ba136f0f6a89e028e44943252e16a03ffaac6ea92332fb513c01e260acd216884d15b04b891fcd13dc4d0ba639a17e",
      "networkId": 0,
      "chainId": 0
    },
    {
      "hash": "0x5273d2acf0f68b6d78c6a61c3b5792436f956c291daa06dd53b1903559580779",
      "blockHash": "0x6f308aeced17f51c6f786bf9a46d4a312545a741399d2ba5c2aa90c35b19d77c",
      "blockNumber": 84266,
      "transactionIndex": 1,
      "confirmations": null,
      "from": "0xe6A7a1d47ff21B6321162AEA7C6CB457D5476Bca",
      "gasPrice": {
        "_hex": "0xd95925c55"
      },
      "gasLimit": {
        "_hex": "0x55f0"
      },
      "to": "0x908CABeD14f5632705F9D7BdB95d672b164446A8",
      "value": {
        "_hex": "0x28663d76b4849f30"
      },
      "nonce": 1587,
      "data": "0x",
      "r": "0xa546896941bd7b90b01decfee3f2aa5c0a1ffa961d5557d9d432008b3925e2d6",
      "s": "0x12ce90a94971e186cefadd1f5d3b5bb5f00af06ab6b881439ee0681050f107ff",
      "v": 28,
      "creates": null,
      "raw": "0xf86e820633850d95925c558255f094908cabed14f5632705f9d7bdb95d672b164446a88828663d76b4849f30801ca0a546896941bd7b90b01decfee3f2aa5c0a1ffa961d5557d9d432008b3925e2d6a012ce90a94971e186cefadd1f5d3b5bb5f00af06ab6b881439ee0681050f107ff",
      "networkId": 0,
      "chainId": 0
    },
    {
      "hash": "0xc98d81f7714d4667119a3978a319a51cc595e0e57753ca08f403ce117ac78adf",
      "blockHash": "0x6f308aeced17f51c6f786bf9a46d4a312545a741399d2ba5c2aa90c35b19d77c",
      "blockNumber": 84266,
      "transactionIndex": 2,
      "confirmations": null,
      "from": "0xe6A7a1d47ff21B6321162AEA7C6CB457D5476Bca",
      "gasPrice": {
        "_hex": "0xd95925c55"
      },
      "gasLimit": {
        "_hex": "0x55f0"
      },
      "to": "0xe2073a029bBF0eE2A933ceeFa9b3658973320CA5",
      "value": {
        "_hex": "0x28793e8d9a5df824"
      },
      "nonce": 1588,
      "data": "0x",
      "r": "0xd0d6ac845656b0939db92701e1ef1b5a4bed753693e5e04f46787a6bdcf19bcf",
      "s": "0x6a7f21ebdacba02161b7e25154f0d5a30df68f4188926e12b2ae0fc8a849bf75",
      "v": 27,
      "creates": null,
      "raw": "0xf86e820634850d95925c558255f094e2073a029bbf0ee2a933ceefa9b3658973320ca58828793e8d9a5df824801ba0d0d6ac845656b0939db92701e1ef1b5a4bed753693e5e04f46787a6bdcf19bcfa06a7f21ebdacba02161b7e25154f0d5a30df68f4188926e12b2ae0fc8a849bf75",
      "networkId": 0,
      "chainId": 0
    },
    {
      "hash": "0x509b0f2a100797f9b17ebcb1f55083b281a295a4f78ca7545b1c439f6445ef5e",
      "blockHash": "0x6f308aeced17f51c6f786bf9a46d4a312545a741399d2ba5c2aa90c35b19d77c",
      "blockNumber": 84266,
      "transactionIndex": 3,
      "confirmations": null,
      "from": "0xe6A7a1d47ff21B6321162AEA7C6CB457D5476Bca",
      "gasPrice": {
        "_hex": "0xd95925c55"
      },
      "gasLimit": {
        "_hex": "0x55f0"
      },
      "to": "0xFD6B6e67d15931706d607e2358A1b0aA05f8e256",
      "value": {
        "_hex": "0x2887199ca247d5f8"
      },
      "nonce": 1589,
      "data": "0x",
      "r": "0x8511f460cb129e9d187e24252e444e6883d226a2d39023d4894c4937c605e3c6",
      "s": "0x029cf32f65486ea95dcadeb244f1f90ad44223e61d5cd23a9e80d45befd31f78",
      "v": 27,
      "creates": null,
      "raw": "0xf86e820635850d95925c558255f094fd6b6e67d15931706d607e2358a1b0aa05f8e256882887199ca247d5f8801ba08511f460cb129e9d187e24252e444e6883d226a2d39023d4894c4937c605e3c6a0029cf32f65486ea95dcadeb244f1f90ad44223e61d5cd23a9e80d45befd31f78",
      "networkId": 0,
      "chainId": 0
    },
    {
      "hash": "0x168506be232f64ec4ea8bb568c5d86ad08003dc4abd61a48c7f47b13e527eb85",
      "blockHash": "0x6f308aeced17f51c6f786bf9a46d4a312545a741399d2ba5c2aa90c35b19d77c",
      "blockNumber": 84266,
      "transactionIndex": 4,
      "confirmations": null,
      "from": "0xe6A7a1d47ff21B6321162AEA7C6CB457D5476Bca",
      "gasPrice": {
        "_hex": "0xd95925c55"
      },
      "gasLimit": {
        "_hex": "0x55f0"
      },
      "to": "0x5323A068accf78eACa5cE1a689e8a5591827787C",
      "value": {
        "_hex": "0x289802400f020410"
      },
      "nonce": 1590,
      "data": "0x",
      "r": "0xb8b6c88ad478152836a30366b6c2d3419d6a934d284e6c07ce8083afa06b044c",
      "s": "0x65d74357098eef831d280543e5ca7a23732414337e6dd86378d5b725d04e06a7",
      "v": 27,
      "creates": null,
      "raw": "0xf86e820636850d95925c558255f0945323a068accf78eaca5ce1a689e8a5591827787c88289802400f020410801ba0b8b6c88ad478152836a30366b6c2d3419d6a934d284e6c07ce8083afa06b044ca065d74357098eef831d280543e5ca7a23732414337e6dd86378d5b725d04e06a7",
      "networkId": 0,
      "chainId": 0
    },
    {
      "hash": "0x5222f6951291a5a4d2f972ba01b2a034a23db8a395000a56c0d24b5e71ef3144",
      "blockHash": "0x6f308aeced17f51c6f786bf9a46d4a312545a741399d2ba5c2aa90c35b19d77c",
      "blockNumber": 84266,
      "transactionIndex": 5,
      "confirmations": null,
      "from": "0xe6A7a1d47ff21B6321162AEA7C6CB457D5476Bca",
      "gasPrice": {
        "_hex": "0xd95925c55"
      },
      "gasLimit": {
        "_hex": "0x55f0"
      },
      "to": "0x0Bce1f08Ac26719f94701275c8cAfF71f7D27AAC",
      "value": {
        "_hex": "0x28e04c2ebb66f7e4"
      },
      "nonce": 1591,
      "data": "0x",
      "r": "0xa4fc8fa1b1ccbe70b00571ebbbe0f9297afc13e1a11dced2217ea81d146932b1",
      "s": "0x7d1217a94fb1d7acf079258ea95be33d039b1b7368dd3040c62f95e0d5d8042d",
      "v": 27,
      "creates": null,
      "raw": "0xf86e820637850d95925c558255f0940bce1f08ac26719f94701275c8caff71f7d27aac8828e04c2ebb66f7e4801ba0a4fc8fa1b1ccbe70b00571ebbbe0f9297afc13e1a11dced2217ea81d146932b1a07d1217a94fb1d7acf079258ea95be33d039b1b7368dd3040c62f95e0d5d8042d",
      "networkId": 0,
      "chainId": 0
    },
    {
      "hash": "0xf4e4328c61dda7ac7dd8a4681de5157eec238075d101391ba69e5437e7a22420",
      "blockHash": "0x6f308aeced17f51c6f786bf9a46d4a312545a741399d2ba5c2aa90c35b19d77c",
      "blockNumber": 84266,
      "transactionIndex": 6,
      "confirmations": null,
      "from": "0xe6A7a1d47ff21B6321162AEA7C6CB457D5476Bca",
      "gasPrice": {
        "_hex": "0xd95925c55"
      },
      "gasLimit": {
        "_hex": "0x55f0"
      },
      "to": "0x229f76DdF9053EEb247D1aB455af64e6D26029b8",
      "value": {
        "_hex": "0x28f750a17e1a9ad8"
      },
      "nonce": 1592,
      "data": "0x",
      "r": "0x773088d35bb179794a9baca3416da407bd94b60e4319aa78950dad9ad1a50fad",
      "s": "0x06d0dff711ec58f0bd42aa474b149fcc9ae1dac576b6bb36bc238e3e65e275fc",
      "v": 27,
      "creates": null,
      "raw": "0xf86e820638850d95925c558255f094229f76ddf9053eeb247d1ab455af64e6d26029b88828f750a17e1a9ad8801ba0773088d35bb179794a9baca3416da407bd94b60e4319aa78950dad9ad1a50fada006d0dff711ec58f0bd42aa474b149fcc9ae1dac576b6bb36bc238e3e65e275fc",
      "networkId": 0,
      "chainId": 0
    },
    {
      "hash": "0xfd43ebc22a17c37eb8026091569f1c9339f0c6cadce749bdf5893ea92de6e910",
      "blockHash": "0x6f308aeced17f51c6f786bf9a46d4a312545a741399d2ba5c2aa90c35b19d77c",
      "blockNumber": 84266,
      "transactionIndex": 7,
      "confirmations": null,
      "from": "0xe6A7a1d47ff21B6321162AEA7C6CB457D5476Bca",
      "gasPrice": {
        "_hex": "0xd95925c55"
      },
      "gasLimit": {
        "_hex": "0x55f0"
      },
      "to": "0xE5cd922132641CF77d8a95dE3F3B335Ee6D54d71",
      "value": {
        "_hex": "0x290bf05cb7f25e20"
      },
      "nonce": 1593,
      "data": "0x",
      "r": "0x24d89d35c9cf485c4863fe8f2af4dcff9eff7934db41b65488c602ef895a4e49",
      "s": "0x104574b28b2e684465609439686944e621a32b06b285ea08d324e4f6a4bed00a",
      "v": 28,
      "creates": null,
      "raw": "0xf86e820639850d95925c558255f094e5cd922132641cf77d8a95de3f3b335ee6d54d7188290bf05cb7f25e20801ca024d89d35c9cf485c4863fe8f2af4dcff9eff7934db41b65488c602ef895a4e49a0104574b28b2e684465609439686944e621a32b06b285ea08d324e4f6a4bed00a",
      "networkId": 0,
      "chainId": 0
    },
    {
      "hash": "0xa3d92a5fc216729da818df7b98cb005c0cd896e2dfc5d5bed82360ccf4b11081",
      "blockHash": "0x6f308aeced17f51c6f786bf9a46d4a312545a741399d2ba5c2aa90c35b19d77c",
      "blockNumber": 84266,
      "transactionIndex": 8,
      "confirmations": null,
      "from": "0xe6A7a1d47ff21B6321162AEA7C6CB457D5476Bca",
      "gasPrice": {
        "_hex": "0xd95925c55"
      },
      "gasLimit": {
        "_hex": "0x55f0"
      },
      "to": "0x0617194e49BaAD419B57FB8EBba265E417362835",
      "value": {
        "_hex": "0x290fa9cf23cca004"
      },
      "nonce": 1594,
      "data": "0x",
      "r": "0xa5728d641d1679fbd04d0ca9e6c11c7dad4f4b8156751aebbd5f4aaa2b56d217",
      "s": "0x234cb65d937e8b227e29ac43242c8894b8089c59a0e27d826bd726e807539cc9",
      "v": 27,
      "creates": null,
      "raw": "0xf86e82063a850d95925c558255f0940617194e49baad419b57fb8ebba265e41736283588290fa9cf23cca004801ba0a5728d641d1679fbd04d0ca9e6c11c7dad4f4b8156751aebbd5f4aaa2b56d217a0234cb65d937e8b227e29ac43242c8894b8089c59a0e27d826bd726e807539cc9",
      "networkId": 0,
      "chainId": 0
    },
    {
      "hash": "0x2297266d42e9b8f077237e443f28acd208e31abece6364f9f529e1459ac11110",
      "blockHash": "0x6f308aeced17f51c6f786bf9a46d4a312545a741399d2ba5c2aa90c35b19d77c",
      "blockNumber": 84266,
      "transactionIndex": 9,
      "confirmations": null,
      "from": "0xe6A7a1d47ff21B6321162AEA7C6CB457D5476Bca",
      "gasPrice": {
        "_hex": "0xd95925c55"
      },
      "gasLimit": {
        "_hex": "0x55f0"
      },
      "to": "0x6bAF48E1C966D16559cE2ddDb616FFa72004851e",
      "value": {
        "_hex": "0x29200f73a3712ba8"
      },
      "nonce": 1595,
      "data": "0x",
      "r": "0x987a1b74f95d952c994f26ddb8cc14d34a8fc181f15d032dfadfd7056144baf6",
      "s": "0x65d222b80686e17a3e0b2611ac228390dd4fff21d482e25d48cbdbaef986ade1",
      "v": 27,
      "creates": null,
      "raw": "0xf86e82063b850d95925c558255f0946baf48e1c966d16559ce2dddb616ffa72004851e8829200f73a3712ba8801ba0987a1b74f95d952c994f26ddb8cc14d34a8fc181f15d032dfadfd7056144baf6a065d222b80686e17a3e0b2611ac228390dd4fff21d482e25d48cbdbaef986ade1",
      "networkId": 0,
      "chainId": 0
    },
    {
      "hash": "0x6f6983865e63d8fd9811198fa36a2ee11ef7f6c1a125b4c562ee310cf21b24a9",
      "blockHash": "0x6f308aeced17f51c6f786bf9a46d4a312545a741399d2ba5c2aa90c35b19d77c",
      "blockNumber": 84266,
      "transactionIndex": 10,
      "confirmations": null,
      "from": "0xe6A7a1d47ff21B6321162AEA7C6CB457D5476Bca",
      "gasPrice": {
        "_hex": "0xd95925c55"
      },
      "gasLimit": {
        "_hex": "0x55f0"
      },
      "to": "0x9653c9859b18f8777Fe4eEc9a67c9F64F3D6F62a",
      "value": {
        "_hex": "0x293b2bb4397c03e4"
      },
      "nonce": 1596,
      "data": "0x",
      "r": "0x45b6314e9446c62e577bf141b4126cd6bf5570310f2dcd0a25026ce24b217ffa",
      "s": "0x2008c428f85abc1c53582ce13725e4080355afd06ac60fd08aac5fb66d6828d2",
      "v": 27,
      "creates": null,
      "raw": "0xf86e82063c850d95925c558255f0949653c9859b18f8777fe4eec9a67c9f64f3d6f62a88293b2bb4397c03e4801ba045b6314e9446c62e577bf141b4126cd6bf5570310f2dcd0a25026ce24b217ffaa02008c428f85abc1c53582ce13725e4080355afd06ac60fd08aac5fb66d6828d2",
      "networkId": 0,
      "chainId": 0
    },
    {
      "hash": "0xb905850ca52a20e87f2682527fb85ff9a2aba30b9476c03f2a43f6c4c13d20bd",
      "blockHash": "0x6f308aeced17f51c6f786bf9a46d4a312545a741399d2ba5c2aa90c35b19d77c",
      "blockNumber": 84266,
      "transactionIndex": 11,
      "confirmations": null,
      "from": "0xe6A7a1d47ff21B6321162AEA7C6CB457D5476Bca",
      "gasPrice": {
        "_hex": "0xd95925c55"
      },
      "gasLimit": {
        "_hex": "0x55f0"
      },
      "to": "0xA80A8ecbF729C98404eE20b39945Ad8DEBd08C61",
      "value": {
        "_hex": "0x296991333443bf58"
      },
      "nonce": 1597,
      "data": "0x",
      "r": "0xbb50c614549f910a55a65159404b2acd8ce17d195f73bec5950482272d7c6a61",
      "s": "0x512e25ae23eca08f8ea27fc9b36b923f830aaf4c32fc8fe74b28e3a48c4fad82",
      "v": 27,
      "creates": null,
      "raw": "0xf86e82063d850d95925c558255f094a80a8ecbf729c98404ee20b39945ad8debd08c6188296991333443bf58801ba0bb50c614549f910a55a65159404b2acd8ce17d195f73bec5950482272d7c6a61a0512e25ae23eca08f8ea27fc9b36b923f830aaf4c32fc8fe74b28e3a48c4fad82",
      "networkId": 0,
      "chainId": 0
    },
    {
      "hash": "0xc3dddc6c4981d92dc6ceaa77a6b488ae452d29d0f24770671feae3cb3a12559d",
      "blockHash": "0x6f308aeced17f51c6f786bf9a46d4a312545a741399d2ba5c2aa90c35b19d77c",
      "blockNumber": 84266,
      "transactionIndex": 12,
      "confirmations": null,
      "from": "0xe6A7a1d47ff21B6321162AEA7C6CB457D5476Bca",
      "gasPrice": {
        "_hex": "0xd95925c55"
      },
      "gasLimit": {
        "_hex": "0x55f0"
      },
      "to": "0x440875EeE9a37dCF577dab873E86f62298EAD638",
      "value": {
        "_hex": "0x29735ad6176c71d8"
      },
      "nonce": 1598,
      "data": "0x",
      "r": "0x898e092ea41eec02d725df61c4e6fac0f368fe95524115b9a24a4d43f0fd4f6e",
      "s": "0x51b06dc5df63610caa7e3d3753f32b0ba54d2f61f335e58598adbec7a0813b6b",
      "v": 28,
      "creates": null,
      "raw": "0xf86e82063e850d95925c558255f094440875eee9a37dcf577dab873e86f62298ead6388829735ad6176c71d8801ca0898e092ea41eec02d725df61c4e6fac0f368fe95524115b9a24a4d43f0fd4f6ea051b06dc5df63610caa7e3d3753f32b0ba54d2f61f335e58598adbec7a0813b6b",
      "networkId": 0,
      "chainId": 0
    },
    {
      "hash": "0x7e6e9196bd1eff8b2e7bdc3180c9d1821717df3623d13c523d0056bdf6a3338c",
      "blockHash": "0x6f308aeced17f51c6f786bf9a46d4a312545a741399d2ba5c2aa90c35b19d77c",
      "blockNumber": 84266,
      "transactionIndex": 13,
      "confirmations": null,
      "from": "0xe6A7a1d47ff21B6321162AEA7C6CB457D5476Bca",
      "gasPrice": {
        "_hex": "0xd95925c55"
      },
      "gasLimit": {
        "_hex": "0x55f0"
      },
      "to": "0xda076E9eE5a5156B3e7F206401899C854fc1d5Fd",
      "value": {
        "_hex": "0x299093a6ae36f630"
      },
      "nonce": 1599,
      "data": "0x",
      "r": "0xc8e1a956619f3a0f0db47f509e32184ca649b1478cd049ba8fe77828d193ea60",
      "s": "0x1e109bde8de62eb843580774e20ca46a289f74ba2fff8eacd7c601687ef66595",
      "v": 27,
      "creates": null,
      "raw": "0xf86e82063f850d95925c558255f094da076e9ee5a5156b3e7f206401899c854fc1d5fd88299093a6ae36f630801ba0c8e1a956619f3a0f0db47f509e32184ca649b1478cd049ba8fe77828d193ea60a01e109bde8de62eb843580774e20ca46a289f74ba2fff8eacd7c601687ef66595",
      "networkId": 0,
      "chainId": 0
    },
    {
      "hash": "0xda1caa64aa6b8b2878c594bed8efb6cfbc3e58e82f89d15ffe38c8a6e722c639",
      "blockHash": "0x6f308aeced17f51c6f786bf9a46d4a312545a741399d2ba5c2aa90c35b19d77c",
      "blockNumber": 84266,
      "transactionIndex": 14,
      "confirmations": null,
      "from": "0xe6A7a1d47ff21B6321162AEA7C6CB457D5476Bca",
      "gasPrice": {
        "_hex": "0xd95925c55"
      },
      "gasLimit": {
        "_hex": "0x55f0"
      },
      "to": "0x8fA33bA169f6aFf86fB3C9E172bddA7CA6D2A66a",
      "value": {
        "_hex": "0x2995bcce704b5220"
      },
      "nonce": 1600,
      "data": "0x",
      "r": "0x1bb4f0138c3f3ac2158c037c5e1e45cade5649e8a4e5bba69ce892c2d55b446d",
      "s": "0x06f920e55b2c05d90bdc9e2c1f5ce2536a61362e5d767b50171c3ef698a132d2",
      "v": 27,
      "creates": null,
      "raw": "0xf86e820640850d95925c558255f0948fa33ba169f6aff86fb3c9e172bdda7ca6d2a66a882995bcce704b5220801ba01bb4f0138c3f3ac2158c037c5e1e45cade5649e8a4e5bba69ce892c2d55b446da006f920e55b2c05d90bdc9e2c1f5ce2536a61362e5d767b50171c3ef698a132d2",
      "networkId": 0,
      "chainId": 0
    },
    {
      "hash": "0xc7b2c9dbb868e7ebe22c3a97f8f35225ccdb637af769ee81490b6b2632f7cfe1",
      "blockHash": "0x6f308aeced17f51c6f786bf9a46d4a312545a741399d2ba5c2aa90c35b19d77c",
      "blockNumber": 84266,
      "transactionIndex": 15,
      "confirmations": null,
      "from": "0xe6A7a1d47ff21B6321162AEA7C6CB457D5476Bca",
      "gasPrice": {
        "_hex": "0xd95925c55"
      },
      "gasLimit": {
        "_hex": "0x55f0"
      },
      "to": "0xc197252bAf4a4D2974eAB91039594F789A8C207c",
      "value": {
        "_hex": "0x29b3800e8eac4c08"
      },
      "nonce": 1601,
      "data": "0x",
      "r": "0xab399e090427a049bf7fd729dd03168e53f57023d3e3a70153028f8b60411986",
      "s": "0x6da3b0968bd294de7abc9c939309308008be60d15dd413e3f90a656e7df68c6c",
      "v": 28,
      "creates": null,
      "raw": "0xf86e820641850d95925c558255f094c197252baf4a4d2974eab91039594f789a8c207c8829b3800e8eac4c08801ca0ab399e090427a049bf7fd729dd03168e53f57023d3e3a70153028f8b60411986a06da3b0968bd294de7abc9c939309308008be60d15dd413e3f90a656e7df68c6c",
      "networkId": 0,
      "chainId": 0
    },
    {
      "hash": "0x667b0f4d37b29d307d99613194bea3b1750d82749f8d98083d0c2ee76cbc5dde",
      "blockHash": "0x6f308aeced17f51c6f786bf9a46d4a312545a741399d2ba5c2aa90c35b19d77c",
      "blockNumber": 84266,
      "transactionIndex": 16,
      "confirmations": null,
      "from": "0x1543667B9bad3e41865C3233E1764d8dda8E1F3D",
      "gasPrice": {
        "_hex": "0xd61cac424"
      },
      "gasLimit": {
        "_hex": "0x5208"
      },
      "to": "0x32Be343B94f860124dC4fEe278FDCBD38C102D88",
      "value": {
        "_hex": "0x2181e5add43a7400"
      },
      "nonce": 9,
      "data": "0x",
      "r": "0x4a3c609a145e8f933cd2f6d4f7f69aaaab6c6b9944a9577db135e095a79f7666",
      "s": "0x4afe46640a12a4666f40f2b59bd4a498ef17ef370f82266fe2faf9a0544b2c8e",
      "v": 27,
      "creates": null,
      "raw": "0xf86c09850d61cac4248252089432be343b94f860124dc4fee278fdcbd38c102d88882181e5add43a7400801ba04a3c609a145e8f933cd2f6d4f7f69aaaab6c6b9944a9577db135e095a79f7666a04afe46640a12a4666f40f2b59bd4a498ef17ef370f82266fe2faf9a0544b2c8e",
      "networkId": 0,
      "chainId": 0
    },
    {
      "hash": "0xf841f3f43b826833b0798793a25cced8af5a83c741c90806066a6006da27cf52",
      "blockHash": "0x6f308aeced17f51c6f786bf9a46d4a312545a741399d2ba5c2aa90c35b19d77c",
      "blockNumber": 84266,
      "transactionIndex": 17,
      "confirmations": null,
      "from": "0x3cD73157C6a0aB907B9dFe60F75c74Bb99D98e7b",
      "gasPrice": {
        "_hex": "0xd61cac424"
      },
      "gasLimit": {
        "_hex": "0x5208"
      },
      "to": "0x32Be343B94f860124dC4fEe278FDCBD38C102D88",
      "value": {
        "_hex": "0x197db8864d5b7c00"
      },
      "nonce": 0,
      "data": "0x",
      "r": "0x0aab0dd0e9d3bb256763afdd431bc04049a954ea07ca8d138a3021aec214a4d7",
      "s": "0x38bcd8eb431a31e320f5cb526bc290f8a0b53a23ce53576e17d0629b0bd8fc25",
      "v": 27,
      "creates": null,
      "raw": "0xf86c80850d61cac4248252089432be343b94f860124dc4fee278fdcbd38c102d8888197db8864d5b7c00801ba00aab0dd0e9d3bb256763afdd431bc04049a954ea07ca8d138a3021aec214a4d7a038bcd8eb431a31e320f5cb526bc290f8a0b53a23ce53576e17d0629b0bd8fc25",
      "networkId": 0,
      "chainId": 0
    },
    {
      "hash": "0x4aa3687ae27328460fbaf668d771c15ae09e352b0455751d85ae6a754dbbd262",
      "blockHash": "0x6f308aeced17f51c6f786bf9a46d4a312545a741399d2ba5c2aa90c35b19d77c",
      "blockNumber": 84266,
      "transactionIndex": 18,
      "confirmations": null,
      "from": "0xBDda295a4aa9E3A60063548157510B47c6BE932f",
      "gasPrice": {
        "_hex": "0xd61cac424"
      },
      "gasLimit": {
        "_hex": "0x5208"
      },
      "to": "0x32Be343B94f860124dC4fEe278FDCBD38C102D88",
      "value": {
        "_hex": "0x1b49e5a78655c800"
      },
      "nonce": 3,
      "data": "0x",
      "r": "0x47b3478e2df6a49dc92f7badb4aa6b784bb2977c906a37df35480cb3c2de2eeb",
      "s": "0x1c8faec5bbf0f4ceace18a2b2567eb4391405fac3deeef8ea54267f4c9e0c54d",
      "v": 28,
      "creates": null,
      "raw": "0xf86c03850d61cac4248252089432be343b94f860124dc4fee278fdcbd38c102d88881b49e5a78655c800801ca047b3478e2df6a49dc92f7badb4aa6b784bb2977c906a37df35480cb3c2de2eeba01c8faec5bbf0f4ceace18a2b2567eb4391405fac3deeef8ea54267f4c9e0c54d",
      "networkId": 0,
      "chainId": 0
    },
    {
      "hash": "0xa895ded927082f3cf767815c268ac04faac42bc0b263bc0eaf61e2ac8290804b",
      "blockHash": "0x6f308aeced17f51c6f786bf9a46d4a312545a741399d2ba5c2aa90c35b19d77c",
      "blockNumber": 84266,
      "transactionIndex": 19,
      "confirmations": null,
      "from": "0xb71F25995CC5De7A465fB37688126E07654Fa662",
      "gasPrice": {
        "_hex": "0xd61cac424"
      },
      "gasLimit": {
        "_hex": "0x5208"
      },
      "to": "0x32Be343B94f860124dC4fEe278FDCBD38C102D88",
      "value": {
        "_hex": "0x1b8af42d04b80800"
      },
      "nonce": 3,
      "data": "0x",
      "r": "0x9a287a1c29f34bdec9ed0d79583c3716f0a1e629112a7877c65367f468837d74",
      "s": "0x4367e2a6c18efe04df0e45309abff6ae49b4661b8236e95279b9f9a095645f4a",
      "v": 28,
      "creates": null,
      "raw": "0xf86c03850d61cac4248252089432be343b94f860124dc4fee278fdcbd38c102d88881b8af42d04b80800801ca09a287a1c29f34bdec9ed0d79583c3716f0a1e629112a7877c65367f468837d74a04367e2a6c18efe04df0e45309abff6ae49b4661b8236e95279b9f9a095645f4a",
      "networkId": 0,
      "chainId": 0
    },
    {
      "hash": "0x2b1e27554e9e3c40adee01935eec9ab6d3383fac5606c66e1841a3c58fcb2a0a",
      "blockHash": "0x6f308aeced17f51c6f786bf9a46d4a312545a741399d2ba5c2aa90c35b19d77c",
      "blockNumber": 84266,
      "transactionIndex": 20,
      "confirmations": null,
      "from": "0x519DC97eF09491aE962A8F13fe144c71feca4662",
      "gasPrice": {
        "_hex": "0xd61cac424"
      },
      "gasLimit": {
        "_hex": "0x5208"
      },
      "to": "0x32Be343B94f860124dC4fEe278FDCBD38C102D88",
      "value": {
        "_hex": "0x107a222d5d50dc00"
      },
      "nonce": 4,
      "data": "0x",
      "r": "0xc525ff9dab8ce99a58d54b49f0049cbfbcda948b9310c1b2c67739fdafa6c03c",
      "s": "0x44527d397372abd782a4e87aba57d535fa04651a5382c1c2e9537451eaf8bd74",
      "v": 27,
      "creates": null,
      "raw": "0xf86c04850d61cac4248252089432be343b94f860124dc4fee278fdcbd38c102d8888107a222d5d50dc00801ba0c525ff9dab8ce99a58d54b49f0049cbfbcda948b9310c1b2c67739fdafa6c03ca044527d397372abd782a4e87aba57d535fa04651a5382c1c2e9537451eaf8bd74",
      "networkId": 0,
      "chainId": 0
    },
    {
      "hash": "0x5b0c206a7e81eb1030cf64a8d3c5e3b2393d14e5b6086e224c73a15134974864",
      "blockHash": "0x6f308aeced17f51c6f786bf9a46d4a312545a741399d2ba5c2aa90c35b19d77c",
      "blockNumber": 84266,
      "transactionIndex": 21,
      "confirmations": null,
      "from": "0xAba5352947CBaEAcf6B2E11E03EaE0008176aeDF",
      "gasPrice": {
        "_hex": "0xd61cac424"
      },
      "gasLimit": {
        "_hex": "0x5208"
      },
      "to": "0x32Be343B94f860124dC4fEe278FDCBD38C102D88",
      "value": {
        "_hex": "0x1288bbc3ffcd1800"
      },
      "nonce": 3,
      "data": "0x",
      "r": "0xdb3077ada27c6be54a4ad6830047906e3fb025733b104613eed87966b460fd89",
      "s": "0x2d1dab2a5cb2d9094a4dfeadefaeafa4b318a3c3d7106a1906049c552afef337",
      "v": 28,
      "creates": null,
      "raw": "0xf86c03850d61cac4248252089432be343b94f860124dc4fee278fdcbd38c102d88881288bbc3ffcd1800801ca0db3077ada27c6be54a4ad6830047906e3fb025733b104613eed87966b460fd89a02d1dab2a5cb2d9094a4dfeadefaeafa4b318a3c3d7106a1906049c552afef337",
      "networkId": 0,
      "chainId": 0
    },
    {
      "hash": "0x73e7895938cbc6a98c02eae28c06929d3c1209b4ec2004e80787e95af6295955",
      "blockHash": "0x6f308aeced17f51c6f786bf9a46d4a312545a741399d2ba5c2aa90c35b19d77c",
      "blockNumber": 84266,
      "transactionIndex": 22,
      "confirmations": null,
      "from": "0x34d34F0a638F6991e4E2536F41295DF6E934A646",
      "gasPrice": {
        "_hex": "0xd61cac424"
      },
      "gasLimit": {
        "_hex": "0x5208"
      },
      "to": "0x32Be343B94f860124dC4fEe278FDCBD38C102D88",
      "value": {
        "_hex": "0x375b0a1e3fa85800"
      },
      "nonce": 8,
      "data": "0x",
      "r": "0x32be57db8c9b4ccd14bfd314926168c824b0ad4af37613ff298ca616f5e96e73",
      "s": "0x0b0e81913b0179cd6f2d794f2f158cf30e25c0af980abccddf3cbccece0bbe93",
      "v": 28,
      "creates": null,
      "raw": "0xf86c08850d61cac4248252089432be343b94f860124dc4fee278fdcbd38c102d8888375b0a1e3fa85800801ca032be57db8c9b4ccd14bfd314926168c824b0ad4af37613ff298ca616f5e96e73a00b0e81913b0179cd6f2d794f2f158cf30e25c0af980abccddf3cbccece0bbe93",
      "networkId": 0,
      "chainId": 0
    },
    {
      "hash": "0x9eede6c78b2b2dccb3493aff6d958096474a3f3794ba368cd3de205a59a90bc7",
      "blockHash": "0x6f308aeced17f51c6f786bf9a46d4a312545a741399d2ba5c2aa90c35b19d77c",
      "blockNumber": 84266,
      "transactionIndex": 23,
      "confirmations": null,
      "from": "0xD042e5C2443591c48f1FBa5F6bAf8E7193f454B9",
      "gasPrice": {
        "_hex": "0xd61cac424"
      },
      "gasLimit": {
        "_hex": "0x5208"
      },
      "to": "0x32Be343B94f860124dC4fEe278FDCBD38C102D88",
      "value": {
        "_hex": "0x1d59a44f2d81a000"
      },
      "nonce": 4,
      "data": "0x",
      "r": "0xc30d538a2bfce9b59baf0b2d4d8a1f3c2280da894d2b7bf5479c9db79bb8cb97",
      "s": "0x4492c8bd848741686927e4bd9b4d68e47807291d05aeb878fbc40595dda2870d",
      "v": 27,
      "creates": null,
      "raw": "0xf86c04850d61cac4248252089432be343b94f860124dc4fee278fdcbd38c102d88881d59a44f2d81a000801ba0c30d538a2bfce9b59baf0b2d4d8a1f3c2280da894d2b7bf5479c9db79bb8cb97a04492c8bd848741686927e4bd9b4d68e47807291d05aeb878fbc40595dda2870d",
      "networkId": 0,
      "chainId": 0
    }
  ]
}