{
  "hash": "0x67636e4463146d25fa8bcc41f573a16a9ad96fe63d476347a1de0d7e4ec0bad4",
  "parentHash": "0x46ebf33127fd25fe9ed4123746999ae8592441adf6bd2e22e2871b608904106b",
  "number": 58548,
  "timestamp": 1439122629,
  "nonce": "0xf48088e3768bed63",
  "difficulty": 1709884355215,
  "gasLimit": {
    "_hex": "0x2fefd8"
  },
  "gasUsed": {
    "_hex": "0xa410"
  },
  "miner": "0xE4Dd37247830493DE1Df7c758DD746DCdE19419e",
  "extraData": "0x476574682f76312e302e312f77696e646f77732f676f312e342e32",
  "transactions": [
    {
      "hash": "0x59daa2af1e473fe9fde53b0aabde5347c7e949f35e2a5f59bcea4b82bee54ba1",
      "blockHash": "0x67636e4463146d25fa8bcc41f573a16a9ad96fe63d476347a1de0d7e4ec0bad4",
      "blockNumber": 58548,
      "transactionIndex": 0,
      "confirmations": null,
      "from": "0x901375679999F6D4846F257a79d7159ECEb2d47A",
      "gasPrice": {
        "_hex": "0xda6addd34"
      },
      "gasLimit": {
        "_hex": "0x15f90"
      },
      "to": "0x237b555850BE6BFf53a0698146371a2F5890A030",
      "value": {
        "_hex": "0xde0b6b3a7640000"
      },
      "nonce": 0,
      "data": "0x",
      "r": "0x6edc57abe1378f1ab25f8cc1035ad147e00af0f5df782f668b8705c0e20eadf5",
      "s": "0x3c9ca4f8ac2b80f10510b76bb4f37d816ffc4e95ffe145be1bb173d9fcd84b29",
      "v": 27,
      "creates": null,
      "raw": "0xf86d80850da6addd3483015f9094237b555850be6bff53a0698146371a2f5890a030880de0b6b3a7640000801ba06edc57abe1378f1ab25f8cc1035ad147e00af0f5df782f668b8705c0e20eadf5a03c9ca4f8ac2b80f10510b76bb4f37d816ffc4e95ffe145be1bb173d9fcd84b29",
      "networkId": 0,
      "chainId": 0
    },
    {
      "hash": "0xc32d7e933ca6db00cc5b30d7c92efba263bf8743d185ee3f2bfada44cac91ecc",
      "blockHash": "0x67636e4463146d25fa8bcc41f573a16a9ad96fe63d476347a1de0d7e4ec0bad4",
      "blockNumber": 58548,
      "transactionIndex": 1,
      "confirmations": null,
      "from": "0xD6e6b0E55C9b50F68269e40E31f8Ce7a8B43f9fC",
      "gasPrice": {
        "_hex": "0xcdbb0e37d"
      },
      "gasLimit": {
        "_hex": "0x15f90"
      },
      "to": "0x0Db50d943315f83aa62d0cB2a6D1Eb6c1d0538FD",
      "value": {
        "_hex": "0x23a60883e2c8e0000"
      },
      "nonce": 1,
      "data": "0x",
      "r": "0x748fffd0041b0c1fbdf695db2a167a496fe8bc3f93a9ff5e4f5a2a8cfccb44b6",
      "s": "0x7fbf55edd6d52d8a1a4d755887158a4a38cfb9ee2f632c1ed022b1cae5984b91",
      "v": 27,
      "creates": null,
      "raw": "0xf86e01850cdbb0e37d83015f90940db50d943315f83aa62d0cb2a6d1eb6c1d0538fd89023a60883e2c8e0000801ba0748fffd0041b0c1fbdf695db2a167a496fe8bc3f93a9ff5e4f5a2a8cfccb44b6a07fbf55edd6d52d8a1a4d755887158a4a38cfb9ee2f632c1ed022b1cae5984b91",
      "networkId": 0,
      "chainId": 0
    }
  ]
}