{
  "hash": "0x8bff96d7b032f617597275ef0bd8e8996184c1ae803558a2e5d4366325ba0a63",
  "parentHash": "0x158fa35d300122183f8f879499aec5752f483a43bf239f42013f6668930a4cb4",
  "number": 69861,
  "timestamp": 1439310958,
  "nonce": "0xfb7a36456e558133",
  "difficulty": 2099333912530,
  "gasLimit": {
    "_hex": "0x2fefd8"
  },
  "gasUsed": {
    "_hex": "0x5208"
  },
  "miner": "0x47ff6576639c2e94762eA5443978D7681C0E78DC",
  "extraData": "0x476574682f76312e302e312f6c696e75782f676f312e342e32",
  "transactions": [
    {
      "hash": "0x93b8a873b59258ca8ae53f0ab6397bf719573d5370889cfadaae40c2ad5e167e",
      "blockHash": "0x8bff96d7b032f617597275ef0bd8e8996184c1ae803558a2e5d4366325ba0a63",
      "blockNumber": 69861,
      "transactionIndex": 0,
      "confirmations": null,
      "from": "0x32Be343B94f860124dC4fEe278FDCBD38C102D88",
      "gasPrice": {
        "_hex": "0xd291c83da"
      },
      "gasLimit": {
        "_hex": "0x5208"
      },
      "to": "0x91BF47807BEAb6EBf094d9a11C18F6C3fB30aCe7",
      "value": {
        "_hex": "0x29a2241af62c0000"
      },
      "nonce": 239,
      "data": "0x",
      "r": "0x8a0943b1539238ee141e5f05c213a92f03df4aab7cddf2d730cf6cb82aab0476",
      "s": "0x6ab962dbc5e905b0fb6e53e885342b68ea248d3561804128f7b8c32ada1ba150",
      "v": 27,
      "creates": null,
      "raw": "0xf86d81ef850d291c83da8252089491bf47807beab6ebf094d9a11c18f6c3fb30ace78829a2241af62c0000801ba08a0943b1539238ee141e5f05c213a92f03df4aab7cddf2d730cf6cb82aab0476a06ab962dbc5e905b0fb6e53e885342b68ea248d3561804128f7b8c32ada1ba150",
      "networkId": 0,
      "chainId": 0
    }
  ]
}