{
  "hash": "0xc1b5037a50af3783447ce042182a1f7eadd9d1efbf6c2b56ada17c9322098567",
  "parentHash": "0x24b58f9591078e1a5327c76103a9e7b2d86d4c935bf449eeae80e2fc4010df24",
  "number": 91804,
  "timestamp": 1439661770,
  "nonce": "0xee9f6faa5cbbbd8a",
  "difficulty": 3477551864494,
  "gasLimit": {
    "_hex": "0x2fefd8"
  },
  "gasUsed": {
    "_hex": "0x5208"
  },
  "miner": "0x88D74a59454F6cF3B51ef6b9136AFb6b9D405A88",
  "extraData": "0x476574682f76312e302e312d37666266393930632f6c696e75782f676f312e34",
  "transactions": [
    {
      "hash": "0x8fe92692bec330210ed8ddcccdd8b926964dc1f297cca5d413810edb69d7e272",
      "blockHash": "0xc1b5037a50af3783447ce042182a1f7eadd9d1efbf6c2b56ada17c9322098567",
      "blockNumber": 91804,
      "transactionIndex": 0,
      "confirmations": null,
      "from": "0xa6BDc31c431B8F97848c9D60cbbe9660dc450eB7",
      "gasPrice": {
        "_hex": "0xcb74990e7"
      },
      "gasLimit": {
        "_hex": "0x5208"
      },
      "to": "0x32Be343B94f860124dC4fEe278FDCBD38C102D88",
      "value": {
        "_hex": "0x478aa681d300f000"
      },
      "nonce": 95,
      "data": "0x",
      "r": "0x38cc0e2f5486ef294bcb4a177d02765546e7e083c2e456749a8e9f99d3cde1c4",
      "s": "0x04a46c9093545a165a6d68a3e1edd135f7262b2e03008d385e52ec8ed8847ec1",
      "v": 28,
      "creates": null,
      "raw": "0xf86c5f850cb74990e78252089432be343b94f860124dc4fee278fdcbd38c102d8888478aa681d300f000801ca038cc0e2f5486ef294bcb4a177d02765546e7e083c2e456749a8e9f99d3cde1c4a004a46c9093545a165a6d68a3e1edd135f7262b2e03008d385e52ec8ed8847ec1",
      "networkId": 0,
      "chainId": 0
    }
  ]
}