{
  "hash": "0xe23df19f048bf0b92ee0186c5dcbd39548a58b4b502e7ffb3f331b850e0c785f",
  "parentHash": "0x002184677864d881a766395904495f56ba07243e3f0b8879fcb84d8153bfb584",
  "number": 75746,
  "timestamp": 1439408497,
  "nonce": "0x64b4b38d09a80cd4",
  "difficulty": 2227716704600,
  "gasLimit": {
    "_hex": "0x2fefd8"
  },
  "gasUsed": {
    "_hex": "0x546c"
  },
  "miner": "0xe6A7a1d47ff21B6321162AEA7C6CB457D5476Bca",
  "extraData": "0x476574682f76312e302e312d38326566323666362f6c696e75782f676f312e34",
  "transactions": [
    {
      "hash": "0xbd360e605e629f63a779e8b6ebc040ea3d6f929accb1cf34abf76f7e65a81cac",
      "blockHash": "0xe23df19f048bf0b92ee0186c5dcbd39548a58b4b502e7ffb3f331b850e0c785f",
      "blockNumber": 75746,
      "transactionIndex": 0,
      "confirmations": null,
      "from": "0x008FC7CBAdFFbD0D7fe44F8DFD60a79d721a1c9C",
      "gasPrice": {
        "_hex": "0xd56dadc5f"
      },
      "gasLimit": {
        "_hex": "0x55f0"
      },
      "to": "0x2910543Af39abA0Cd09dBb2D50200b3E800A63D2",
      "value": {
        "_hex": "0x30ca024f987b900000"
      },
      "nonce": 16,
      "data": "0x454e50443650335052",
      "r": "0x0f53e9f0555e3bbfc0f1ff76c50f0f69482dd1721d7dca622573b98a76224c13",
      "s": "0x5fe816cb89a755599a786ebd8765da6daa48c0951699da55c0c0a0a42ce99ffe",
      "v": 27,
      "creates": null,
      "raw": "0xf87610850d56dadc5f8255f0942910543af39aba0cd09dbb2d50200b3e800a63d28930ca024f987b90000089454e504436503350521ba00f53e9f0555e3bbfc0f1ff76c50f0f69482dd1721d7dca622573b98a76224c13a05fe816cb89a755599a786ebd8765da6daa48c0951699da55c0c0a0a42ce99ffe",
      "networkId": 0,
      "chainId": 0
    }
  ]
}