{
  "hash": "0x844c31d0876a7ab238095d35dcf283525f3775a7702d2028e0881a426e193869",
  "parentHash": "0xcfdf40c4cbaf55228da682a43fbccdb469a8f02c35144925c1edf690091660fd",
  "number": 108216,
  "timestamp": 1439936514,
  "nonce": "0x84f7e39177397db8",
  "difficulty": 4357555244858,
  "gasLimit": {
    "_hex": "0x2fefd5"
  },
  "gasUsed": {
    "_hex": "0x5208"
  },
  "miner": "0xe6A7a1d47ff21B6321162AEA7C6CB457D5476Bca",
  "extraData": "0x476574682f76312e302e312d38326566323666362f6c696e75782f676f312e34",
  "transactions": [
    {
      "hash": "0x7612d2166d87d0de453f25ca666dbe36e6fa6f829ed7b010fe9cd833efd36d05",
      "blockHash": "0x844c31d0876a7ab238095d35dcf283525f3775a7702d2028e0881a426e193869",
      "blockNumber": 108216,
      "transactionIndex": 0,
      "confirmations": null,
      "from": "0x2910543Af39abA0Cd09dBb2D50200b3E800A63D2",
      "gasPrice": {
        "_hex": "0xd48bb69a5"
      },
      "gasLimit": {
        "_hex": "0x5208"
      },
      "to": "0x40328669c1Cde50A6aDAB908672E7E4F8d708b50",
      "value": {
        "_hex": "0x1bae6b9b5d3ba000"
      },
      "nonce": 1064,
      "data": "0x",
      "r": "0xf3ab8c34a93ff30102936ff1ba5742c065a94de5589fc1e984c1ea9aee2a0134",
      "s": "0x02d1626647f6bbfc510c91dcb81ac3df6d8607809a72b4d90c7e5706e2e805e7",
      "v": 27,
      "creates": null,
      "raw": "0xf86e820428850d48bb69a58252089440328669c1cde50a6adab908672e7e4f8d708b50881bae6b9b5d3ba000801ba0f3ab8c34a93ff30102936ff1ba5742c065a94de5589fc1e984c1ea9aee2a0134a002d1626647f6bbfc510c91dcb81ac3df6d8607809a72b4d90c7e5706e2e805e7",
      "networkId": 0,
      "chainId": 0
    }
  ]
}