{
  "hash": "0xf48429445dd8afcc21dc4184386c49c0f801f11deae5f75e53ed84877f1b26f0",
  "parentHash": "0xd4a6812644e65a302fc7d00f7a49c150e23dcad20da933b6f38bca6e05831e1a",
  "number": 108174,
  "timestamp": 1439935545,
  "nonce": "0xd0e79d773598c254",
  "difficulty": 4370362121313,
  "gasLimit": {
    "_hex": "0x2fefd8"
  },
  "gasUsed": {
    "_hex": "0x19a28"
  },
  "miner": "0x9746c7e1ef2bd21FF3997fa467593a89cb852BD0",
  "extraData": "0x476574682f76312e302e312f77696e646f77732f676f312e342e32",
  "transactions": [
    {
      "hash": "0x12cffa328ac48d0db4a6cac41c4376d52ac16e2029a06e5e83ee0c902e2673c3",
      "blockHash": "0xf48429445dd8afcc21dc4184386c49c0f801f11deae5f75e53ed84877f1b26f0",
      "blockNumber": 108174,
      "transactionIndex": 0,
      "confirmations": null,
      "from": "0xf89583486CA3C0c21C34400638aBE4b53F993457",
      "gasPrice": {
        "_hex": "0xd6cfce237"
      },
      "gasLimit": {
        "_hex": "0x7a120"
      },
      "to": "0xBBDa93a81B882774e1c9b5e3F933Fa35DaC8bc88",
      "value": {
        "_hex": "0x6f05b59d3b20000"
      },
      "nonce": 1,
      "data": "0x",
      "r": "0xa328670d9153cb6be265bc6a583de2afa033d06482b3fd278ead3a275ac86a7b",
      "s": "0x1242212ce9db011a63fd044880c239989b8d9497930accfda357535a8283de52",
      "v": 27,
      "creates": null,
      "raw": "0xf86d01850d6cfce2378307a12094bbda93a81b882774e1c9b5e3f933fa35dac8bc888806f05b59d3b20000801ba0a328670d9153cb6be265bc6a583de2afa033d06482b3fd278ead3a275ac86a7ba01242212ce9db011a63fd044880c239989b8d9497930accfda357535a8283de52",
      "networkId": 0,
      "chainId": 0
    },
    {
      "hash": "0x2907c56cb1d319d5c8dd6aa603dd7ea29f2599de4d68e93f7497a01a78c623d4",
      "blockHash": "0xf48429445dd8afcc21dc4184386c49c0f801f11deae5f75e53ed84877f1b26f0",
      "blockNumber": 108174,
      "transactionIndex": 1,
      "confirmations": null,
      "from": "0x458F183347F45a4001807728A89F31E9Da9D4A58",
      "gasPrice": {
        "_hex": "0xd3cd734c2"
      },
      "gasLimit": {
        "_hex": "0x15f90"
      },
      "to": "0x7fa165177F28D171bA7C17f765c1904344Ec64CB",
      "value": {
        "_hex": "0xd02ab486cedc0000"
      },
      "nonce": 44,
      "data": "0x",
      "r": "0xf2f80edb165425d4dee4715850083768b24d484dff7663a8e4a8be554c105c77",
      "s": "0x5b723afb538db1f98b13c89b8ddbc101a255ef263748ed1945aea0e3aace61e8",
      "v": 27,
      "creates": null,
      "raw": "0xf86d2c850d3cd734c283015f90947fa165177f28d171ba7c17f765c1904344ec64cb88d02ab486cedc0000801ba0f2f80edb165425d4dee4715850083768b24d484dff7663a8e4a8be554c105c77a05b723afb538db1f98b13c89b8ddbc101a255ef263748ed1945aea0e3aace61e8",
      "networkId": 0,
      "chainId": 0
    },
    {
      "hash": "0x2725eb790ebabaff64c602376ab536b98a86a8ea8a19ea5e4246824220b1970f",
      "blockHash": "0xf48429445dd8afcc21dc4184386c49c0f801f11deae5f75e53ed84877f1b26f0",
      "blockNumber": 108174,
      "transactionIndex": 2,
      "confirmations": null,
      "from": "0x458F183347F45a4001807728A89F31E9Da9D4A58",
      "gasPrice": {
        "_hex": "0xd3cd734c2"
      },
      "gasLimit": {
        "_hex": "0x15f90"
      },
      "to": "0x1D3ffA437e5bce40fCC134f4E0ac62841E4A9E81",
      "value": {
        "_hex": "0x29a2241af62c0000"
      },
      "nonce": 45,
      "data": "0x",
      "r": "0x0a0c1791bdb0c618016ce03fa2caa62878d565010b4ab832f950e897f02ce5c2",
      "s": "0x121fd514fc765a0d50b627e13085c06255ff144a6b244127d17a73c0849b2746",
      "v": 27,
      "creates": null,
      "raw": "0xf86d2d850d3cd734c283015f90941d3ffa437e5bce40fcc134f4e0ac62841e4a9e818829a2241af62c0000801ba00a0c1791bdb0c618016ce03fa2caa62878d565010b4ab832f950e897f02ce5c2a0121fd514fc765a0d50b627e13085c06255ff144a6b244127d17a73c0849b2746",
      "networkId": 0,
      "chainId": 0
    },
    {
      "hash": "0x3959bdc2ae590376b52a12b50eb3c295359b6d41317abcc51b558ee83bccf413",
      "blockHash": "0xf48429445dd8afcc21dc4184386c49c0f801f11deae5f75e53ed84877f1b26f0",
      "blockNumber": 108174,
      "transactionIndex": 3,
      "confirmations": null,
      "from": "0x458F183347F45a4001807728A89F31E9Da9D4A58",
      "gasPrice": {
        "_hex": "0xd3cd734c2"
      },
      "gasLimit": {
        "_hex": "0x15f90"
      },
      "to": "0x7313946aA53dCDd777C90905D75A9B41e17Ca2c9",
      "value": {
        "_hex": "0x1bc16d674ec80000"
      },
      "nonce": 46,
      "data": "0x",
      "r": "0xcfeed86f7a7366ab19e979df8d4d101363a0b4b02252aa79b98a1c0f70ad3ff8",
      "s": "0x51a00230417a13c567018db3e460a221ec69feca64cf5cdf5eaec24a76e4afb8",
      "v": 28,
      "creates": null,
      "raw": "0xf86d2e850d3cd734c283015f90947313946aa53dcdd777c90905d75a9b41e17ca2c9881bc16d674ec80000801ca0cfeed86f7a7366ab19e979df8d4d101363a0b4b02252aa79b98a1c0f70ad3ff8a051a00230417a13c567018db3e460a221ec69feca64cf5cdf5eaec24a76e4afb8",
      "networkId": 0,
      "chainId": 0
    },
    {
      "hash": "0xa85d47a8e1a312975f2f793c0754f0820e275f427e420dddbee379069ed7e476",
      "blockHash": "0xf48429445dd8afcc21dc4184386c49c0f801f11deae5f75e53ed84877f1b26f0",
      "blockNumber": 108174,
      "transactionIndex": 4,
      "confirmations": null,
      "from": "0x120A270bbC009644e35F0bB6ab13f95b8199c4ad",
      "gasPrice": {
        "_hex": "0xd31c724b4"
      },
      "gasLimit": {
        "_hex": "0x3d090"
      },
      "to": "0xdDbddD1BBd38fFADE0305d30f02028D92e9f3Aa8",
      "value": {
        "_hex": "0x2b5e3af16b18800000"
      },
      "nonce": 828,
      "data": "0x",
      "r": "0x3656566c9fcf552d8ab9b69b8f8656b27e7dbc8a40860d04cdfbd66b2b48d36e",
      "s": "0x083897900bed6d9552d3f5251ef0c668fa778296a823cee17cd53a6b8b43f85b",
      "v": 27,
      "creates": null,
      "raw": "0xf87082033c850d31c724b48303d09094ddbddd1bbd38ffade0305d30f02028d92e9f3aa8892b5e3af16b18800000801ba03656566c9fcf552d8ab9b69b8f8656b27e7dbc8a40860d04cdfbd66b2b48d36ea0083897900bed6d9552d3f5251ef0c668fa778296a823cee17cd53a6b8b43f85b",
      "networkId": 0,
      "chainId": 0
    }
  ]
}