{
  "hash": "0x9e8558b2200fab161b77849f1a8d334b65f6eec1303c03e1c5450abab25e7618",
  "parentHash": "0xda9d716709af711dd51c1c05dd82385bb79d067edc9ed226ed5612fadd638703",
  "number": 84436,
  "timestamp": 1439549583,
  "nonce": "0x106811b6fe62399b",
  "difficulty": 2568946600016,
  "gasLimit": {
    "_hex": "0x2fefd8"
  },
  "gasUsed": {
    "_hex": "0x5208"
  },
  "miner": "0x007f7f58D3eb5b7510A301eCC749FC1fCDDBE14D",
  "extraData": "0x476574682f76312e302e312f77696e646f77732f676f312e342e32",
  "transactions": [
    {
      "hash": "0xf4ffff56864d1f4e72fadff03b7e6490885448aa286bb793becf9b829717938d",
      "blockHash": "0x9e8558b2200fab161b77849f1a8d334b65f6eec1303c03e1c5450abab25e7618",
      "blockNumber": 84436,
      "transactionIndex": 0,
      "confirmations": null,
      "from": "0xB6AC12CefF0375Da80503AcCa54bf3061Fa917a8",
      "gasPrice": {
        "_hex": "0xd3f618fba"
      },
      "gasLimit": {
        "_hex": "0x15f90"
      },
      "to": "0x5fF827e73C5B866c300b824fe12719a3DD350513",
      "value": {
        "_hex": "0x1158e460913d00000"
      },
      "nonce": 17,
      "data": "0x",
      "r": "0x753a4064ebfb283f4b6f9433da1ab04678df4384ae4eff4cfa2b0be1a58e99e4",
      "s": "0x4041a2e1e748217496009d7c00aa81f00a9f766abb9fea8b25bfbc16c74bc565",
      "v": 28,
      "creates": null,
      "raw": "0xf86e11850d3f618fba83015f90945ff827e73c5b866c300b824fe12719a3dd3505138901158e460913d00000801ca0753a4064ebfb283f4b6f9433da1ab04678df4384ae4eff4cfa2b0be1a58e99e4a04041a2e1e748217496009d7c00aa81f00a9f766abb9fea8b25bfbc16c74bc565",
      "networkId": 0,
      "chainId": 0
    }
  ]
}