{
  "hash": "0xba3c19254cee8fa9bdc0a27e168ed78ca1821ad3a41dc756b1277873b5b193f7",
  "parentHash": "0xd269b66033b1d94d2ac511e986490ed222364984e55e73e80e6ee133d44ff65a",
  "number": 56110,
  "timestamp": 1439082134,
  "nonce": "0xa5cd3965f9de98d2",
  "difficulty": 1636845732482,
  "gasLimit": {
    "_hex": "0x2fefd8"
  },
  "gasUsed": {
    "_hex": "0x5208"
  },
  "miner": "0x53824166ea5271d3425e3194c848A90CA4e97eB2",
  "extraData": "0x476574682f76312e302e312f6c696e75782f676f312e342e32",
  "transactions": [
    {
      "hash": "0x47f2cc26bad6db9686014c64d9b4ad12a72b15f73e7e7cfe295030ae883d0a35",
      "blockHash": "0xba3c19254cee8fa9bdc0a27e168ed78ca1821ad3a41dc756b1277873b5b193f7",
      "blockNumber": 56110,
      "transactionIndex": 0,
      "confirmations": null,
      "from": "0xA6C45aF12785c7c425684AD94576184afe192c05",
      "gasPrice": {
        "_hex": "0xba43b7400"
      },
      "gasLimit": {
        "_hex": "0x5b04"
      },
      "to": "0xEe2e3665531f220d70d01CCaBb559537a2663174",
      "value": {
        "_hex": "0xd02ab486cedc0000"
      },
      "nonce": 3,
      "data": "0x",
      "r": "0x3cccc6145ea41dc5b61da0732857b78d17ee97d050601e1132c9786c9fdc9bf0",
      "s": "0x46adc830b65ef22810636416c41d3ec92f7b13267ec41dc81224dc8249a1d799",
      "v": 27,
      "creates": null,
      "raw": "0xf86c03850ba43b7400825b0494ee2e3665531f220d70d01ccabb559537a266317488d02ab486cedc0000801ba03cccc6145ea41dc5b61da0732857b78d17ee97d050601e1132c9786c9fdc9bf0a046adc830b65ef22810636416c41d3ec92f7b13267ec41dc81224dc8249a1d799",
      "networkId": 0,
      "chainId": 0
    }
  ]
}