{
  "hash": "0xfe892fa5becfafd7d0c311daa8b45ad63192ab48122a06cf1ec90b85d7d06149",
  "parentHash": "0x72b201282a90040baeeeeeab45d9be8a52c5c2effa694bcb27d308185ba7662e",
  "number": 80031,
  "timestamp": 1439479045,
  "nonce": "0xbfd2429509e20831",
  "difficulty": 2352884766119,
  "gasLimit": {
    "_hex": "0x2fefd8"
  },
  "gasUsed": {
    "_hex": "0xa25e"
  },
  "miner": "0xe090Ffdced499691fA9379752a59F8A058c1eE4A",
  "extraData": "0x476574682f76312e302e312f6c696e75782f676f312e342e32",
  "transactions": [
    {
      "hash": "0xa8f6b5d3599efb119a0cce85702511fc6b00009cc8fe50eb7a3436359a5cb2bb",
      "blockHash": "0xfe892fa5becfafd7d0c311daa8b45ad63192ab48122a06cf1ec90b85d7d06149",
      "blockNumber": 80031,
      "transactionIndex": 0,
      "confirmations": null,
      "from": "0x008FC7CBAdFFbD0D7fe44F8DFD60a79d721a1c9C",
      "gasPrice": {
        "_hex": "0xcedeb9c33"
      },
      "gasLimit": {
        "_hex": "0x30d40"
      },
      "to": "0x5F99D7Ece6B00868103daB44ceeAB57B9197eDCa",
      "value": {
        "_hex": "0xde0b6b3a7640000"
      },
      "nonce": 51,
      "data": "0x",
      "r": "0xd6de6bb245c3d8ea571fa41bbc930e74c00c7d0c29790b52f00d060d966da3cb",
      "s": "0x198e18889dad1072104f4da4c0bb6ac9db41d936899506e5aed06a52f66d7fb7",
      "v": 27,
      "creates": null,
      "raw": "0xf86d33850cedeb9c3383030d40945f99d7ece6b00868103dab44ceeab57b9197edca880de0b6b3a7640000801ba0d6de6bb245c3d8ea571fa41bbc930e74c00c7d0c29790b52f00d060d966da3cba0198e18889dad1072104f4da4c0bb6ac9db41d936899506e5aed06a52f66d7fb7",
      "networkId": 0,
      "chainId": 0
    }
  ]
}