{
  "hash": "0x84a3c3bbf30a63417c30a4fcb0b97dace7eab3a1a935c7fd27465ad4a54d9ed2",
  "parentHash": "0x47a51dbc6d4994ed9452b050b4200959c7072be1947c18e24ce75d2e65064405",
  "number": 73729,
  "timestamp": 1439373971,
  "nonce": "0xabc242b6c9f9228a",
  "difficulty": 2222818978227,
  "gasLimit": {
    "_hex": "0x2fefd8"
  },
  "gasUsed": {
    "_hex": "0x5208"
  },
  "miner": "0xe6A7a1d47ff21B6321162AEA7C6CB457D5476Bca",
  "extraData": "0x476574682f76312e302e312d38326566323666362f6c696e75782f676f312e34",
  "transactions": [
    {
      "hash": "0x57d51ee87bc7019e2a4cb3ae5022185368719e837d0b274bba116cb0063c478e",
      "blockHash": "0x84a3c3bbf30a63417c30a4fcb0b97dace7eab3a1a935c7fd27465ad4a54d9ed2",
      "blockNumber": 73729,
      "transactionIndex": 0,
      "confirmations": null,
      "from": "0x2b7F73efA4A4CB9Dc35d2a340A277023e184D505",
      "gasPrice": {
        "_hex": "0xd322f4222"
      },
      "gasLimit": {
        "_hex": "0x5208"
      },
      "to": "0x32Be343B94f860124dC4fEe278FDCBD38C102D88",
      "value": {
        "_hex": "0x2086a7fa92f61e0000"
      },
      "nonce": 0,
      "data": "0x",
      "r": "0xd369ec93bbf583617b711060584dd24b36a1b2727e37f580f47eac651bfae575",
      "s": "0x37014fe31148da82c1c6ec0c1199ef6d4825445ca5233f9ccdb729b45d133fd5",
      "v": 27,
      "creates": null,
      "raw": "0xf86d80850d322f42228252089432be343b94f860124dc4fee278fdcbd38c102d88892086a7fa92f61e0000801ba0d369ec93bbf583617b711060584dd24b36a1b2727e37f580f47eac651bfae575a037014fe31148da82c1c6ec0c1199ef6d4825445ca5233f9ccdb729b45d133fd5",
      "networkId": 0,
      "chainId": 0
    }
  ]
}