{
  "hash": "0x0191ae820a9d730aa91c754215cf126e62ffad9203c84d7197c754f59ef9fd17",
  "parentHash": "0x889d18b8791f43688d07e0b588e94de746a020d4337c61e5285cd97556a6416e",
  "number": 65343,
  "timestamp": 1439235323,
  "nonce": "0x9a153b5af8d2b447",
  "difficulty": 1942612450882,
  "gasLimit": {
    "_hex": "0x2fefd8"
  },
  "gasUsed": {
    "_hex": "0xbe6c"
  },
  "miner": "0x9D49F602b0fdb924Bd63DDE2Bd0907E4A07c63a7",
  "extraData": "0x476574682f76312e302e312f6c696e75782f676f312e342e32",
  "transactions": [
    {
      "hash": "0xe4d32c020729b974fb501aad96bc1f4b19798d6564e7ac30ad90a4e281803055",
      "blockHash": "0x0191ae820a9d730aa91c754215cf126e62ffad9203c84d7197c754f59ef9fd17",
      "blockNumber": 65343,
      "transactionIndex": 0,
      "confirmations": null,
      "from": "0x064823C5A099cf6b35fcd0B92983D58a614fd5c5",
      "gasPrice": {
        "_hex": "0xba43b7400"
      },
      "gasLimit": {
        "_hex": "0x15f90"
      },
      "to": "0x793AE8C1b1a160BFc07BFB0d04F85eab1A71F4f2",
      "value": {
        "_hex": "0x0"
      },
      "nonce": 0,
      "data": "0x3ba15036",
      "r": "0xc2056b81990eea77e0cdde0d35a777b0cc75874a3012a73aabe938623082eda1",
      "s": "0x76bec9dd5dcaab3666bc107a9ce0907e157a8822221f4db995dc16792f1d8cbc",
      "v": 27,
      "creates": null,
      "raw": "0xf86980850ba43b740083015f9094793ae8c1b1a160bfc07bfb0d04f85eab1a71f4f280843ba150361ba0c2056b81990eea77e0cdde0d35a777b0cc75874a3012a73aabe938623082eda1a076bec9dd5dcaab3666bc107a9ce0907e157a8822221f4db995dc16792f1d8cbc",
      "networkId": 0,
      "chainId": 0
    }
  ]
}