{
  "hash": "0xefc5e788770c15dd52947540f1e38da657042ae9bf413c6acf9f716551eb4908",
  "parentHash": "0x9cefad2d1f437e1900a7ce48e295efbd0a85a8806c71bdbc7fcfbf27a0f0e73b",
  "number": 117868,
  "timestamp": 1440116715,
  "nonce": "0x77faf03b7ef72a9b",
  "difficulty": 4327115668886,
  "gasLimit": {
    "_hex": "0x2fefd8"
  },
  "gasUsed": {
    "_hex": "0xf618"
  },
  "miner": "0x52bc44d5378309EE2abF1539BF71dE1b7d7bE3b5",
  "extraData": "0xd783010002844765746887676f312e342e32856c696e7578",
  "transactions": [
    {
      "hash": "0xd84165e46585c21ed27d61eb25e58eef9a0987074152393299965969a674791a",
      "blockHash": "0xefc5e788770c15dd52947540f1e38da657042ae9bf413c6acf9f716551eb4908",
      "blockNumber": 117868,
      "transactionIndex": 0,
      "confirmations": null,
      "from": "0x4Dbfc5Cd4D88480476F951dbCD591396773aE56c",
      "gasPrice": {
        "_hex": "0xba43b7400"
      },
      "gasLimit": {
        "_hex": "0x5208"
      },
      "to": "0x32Be343B94f860124dC4fEe278FDCBD38C102D88",
      "value": {
        "_hex": "0xca38d3f8d2d89800"
      },
      "nonce": 10,
      "data": "0x",
      "r": "0x99b9d6b6796e811ac73499c6a13b1c2d91e7d0d74e3cd32ed192e656b6c455aa",
      "s": "0x7d8fdb4d4022dad35e0482c42932adc358a593b02ac12a630e5e82f29bee0f38",
      "v": 27,
      "creates": null,
      "raw": "0xf86c0a850ba43b74008252089432be343b94f860124dc4fee278fdcbd38c102d8888ca38d3f8d2d89800801ba099b9d6b6796e811ac73499c6a13b1c2d91e7d0d74e3cd32ed192e656b6c455aaa07d8fdb4d4022dad35e0482c42932adc358a593b02ac12a630e5e82f29bee0f38",
      "networkId": 0,
      "chainId": 0
    },
    {
      "hash": "0x20d2a0c94952630e39b5d8d67073c74a8a51d24dced125eec560cef64900c55f",
      "blockHash": "0xefc5e788770c15dd52947540f1e38da657042ae9bf413c6acf9f716551eb4908",
      "blockNumber": 117868,
      "transactionIndex": 1,
      "confirmations": null,
      "from": "0xa61ff394e3846F8bfbBF8801afb051730B04Ee75",
      "gasPrice": {
        "_hex": "0xba43b7400"
      },
      "gasLimit": {
        "_hex": "0x5208"
      },
      "to": "0x32Be343B94f860124dC4fEe278FDCBD38C102D88",
      "value": {
        "_hex": "0x65af5425c7eff000"
      },
      "nonce": 23,
      "data": "0x",
      "r": "0xc6172784b78d667a038ae1f6bed281313888d2d2956375cee51abf9ae1457147",
      "s": "0x4e305d6910908403dcf06822e434a73f0e260364811f4a7015f0cebff4b740fe",
      "v": 27,
      "creates": null,
      "raw": "0xf86c17850ba43b74008252089432be343b94f860124dc4fee278fdcbd38c102d888865af5425c7eff000801ba0c6172784b78d667a038ae1f6bed281313888d2d2956375cee51abf9ae1457147a04e305d6910908403dcf06822e434a73f0e260364811f4a7015f0cebff4b740fe",
      "networkId": 0,
      "chainId": 0
    },
    {
      "hash": "0xf71311394a2fdc8d6ea8202f40398d51a588ea79f2c9cefd0385de678eea18ab",
      "blockHash": "0xefc5e788770c15dd52947540f1e38da657042ae9bf413c6acf9f716551eb4908",
      "blockNumber": 117868,
      "transactionIndex": 2,
      "confirmations": null,
      "from": "0xce8ff6d2027CA9837abb85FD515752151b6C7d0A",
      "gasPrice": {
        "_hex": "0xba43b7400"
      },
      "gasLimit": {
        "_hex": "0x5208"
      },
      "to": "0x32Be343B94f860124dC4fEe278FDCBD38C102D88",
      "value": {
        "_hex": "0x1965067442a42000"
      },
      "nonce": 11,
      "data": "0x",
      "r": "0xea8065254dc495179f18cbe7c0491294306ac4ea7db8e65db55ad6ee255bda2d",
      "s": "0x317bae5c877fde41448d4ebb4fea4967d9d194679b419a97d3840f62bf90db36",
      "v": 28,
      "creates": null,
      "raw": "0xf86c0b850ba43b74008252089432be343b94f860124dc4fee278fdcbd38c102d88881965067442a42000801ca0ea8065254dc495179f18cbe7c0491294306ac4ea7db8e65db55ad6ee255bda2da0317bae5c877fde41448d4ebb4fea4967d9d194679b419a97d3840f62bf90db36",
      "networkId": 0,
      "chainId": 0
    }
  ]
}