{
  "hash": "0xf3f00ff6b44eaf5b3cfb74780c496da108d3aa04d9d70b518727861015ee4675",
  "parentHash": "0xfac2eab16c8714cb7657691003b17daae8e0bde2148835dd2f3a864c6ffd585a",
  "number": 111866,
  "timestamp": 1439997515,
  "nonce": "0x951c67cba7845bb9",
  "difficulty": 4432900848681,
  "gasLimit": {
    "_hex": "0x2fefd8"
  },
  "gasUsed": {
    "_hex": "0x5208"
  },
  "miner": "0xe6A7a1d47ff21B6321162AEA7C6CB457D5476Bca",
  "extraData": "0x476574682f76312e302e312d38326566323666362f6c696e75782f676f312e34",
  "transactions": [
    {
      "hash": "0x2fc0a4e3e97cd89bf0ed1e14d104dff77bf7501a6448d221396cbc0da092f9d7",
      "blockHash": "0xf3f00ff6b44eaf5b3cfb74780c496da108d3aa04d9d70b518727861015ee4675",
      "blockNumber": 111866,
      "transactionIndex": 0,
      "confirmations": null,
      "from": "0xB9A0a0410aA5e26bFa66Cc3ACAF0A6FC61Df5588",
      "gasPrice": {
        "_hex": "0xcc8de8233"
      },
      "gasLimit": {
        "_hex": "0x5208"
      },
      "to": "0x32Be343B94f860124dC4fEe278FDCBD38C102D88",
      "value": {
        "_hex": "0x62b46b852cb900000"
      },
      "nonce": 9,
      "data": "0x",
      "r": "0x5a12b558728e2a998c4041fac686b8ce12f9d0632e3bea2a8446ab090f80532a",
      "s": "0x354125af634f3a069b3ad45d1e47be021dbe4899abcffa7a21b53604fcc72f68",
      "v": 27,
      "creates": null,
      "raw": "0xf86d09850cc8de82338252089432be343b94f860124dc4fee278fdcbd38c102d8889062b46b852cb900000801ba05a12b558728e2a998c4041fac686b8ce12f9d0632e3bea2a8446ab090f80532aa0354125af634f3a069b3ad45d1e47be021dbe4899abcffa7a21b53604fcc72f68",
      "networkId": 0,
      "chainId": 0
    }
  ]
}