{
  "hash": "0x2b52c06129cc0f2432ac88f02f93121c2f662b4cacfc24751c25e64b7d5d1587",
  "parentHash": "0x37b44330d75fc3cc8942d95f321de8bf41164104d6e0888ce6122e37b3734d0f",
  "number": 60297,
  "timestamp": 1439153041,
  "nonce": "0x824758f492ae86ff",
  "difficulty": 1747506475340,
  "gasLimit": {
    "_hex": "0x2fefd8"
  },
  "gasUsed": {
    "_hex": "0xf618"
  },
  "miner": "0x0037ce3d4B7f8729C8607D8D0248252Be68202c0",
  "extraData": "0x476574682f76312e302e312f77696e646f77732f676f312e342e32",
  "transactions": [
    {
      "hash": "0x2dbe2f8d343a3c90d9d4d77220c8b5499b6cdbe60ab563857aebf94cff61f747",
      "blockHash": "0x2b52c06129cc0f2432ac88f02f93121c2f662b4cacfc24751c25e64b7d5d1587",
      "blockNumber": 60297,
      "transactionIndex": 0,
      "confirmations": null,
      "from": "0x71f913897f689FE1c71FF4a8009CBfe512660C6C",
      "gasPrice": {
        "_hex": "0xde0b63922"
      },
      "gasLimit": {
        "_hex": "0x5208"
      },
      "to": "0x32Be343B94f860124dC4fEe278FDCBD38C102D88",
      "value": {
        "_hex": "0x455f7a0b3790b800"
      },
      "nonce": 0,
      "data": "0x",
      "r": "0xdd2a2b32c12bc616c8e7c4f6eb98d05004ea1c984c9020b07ba48261a005a42d",
      "s": "0x05b023fce47bc0599a6434232adce5bab4b35d84568bf2d51390badab025a64e",
      "v": 28,
      "creates": null,
      "raw": "0xf86c80850de0b639228252089432be343b94f860124dc4fee278fdcbd38c102d8888455f7a0b3790b800801ca0dd2a2b32c12bc616c8e7c4f6eb98d05004ea1c984c9020b07ba48261a005a42da005b023fce47bc0599a6434232adce5bab4b35d84568bf2d51390badab025a64e",
      "networkId": 0,
      "chainId": 0
    },
    {
      "hash": "0x18da3aed510a718cadebd43dfea7e5bc8b7b58bf4b19bec46ad46ad18db6b855",
      "blockHash": "0x2b52c06129cc0f2432ac88f02f93121c2f662b4cacfc24751c25e64b7d5d1587",
      "blockNumber": 60297,
      "transactionIndex": 1,
      "confirmations": null,
      "from": "0xc955d372Fe1c428D17CD86E05d26F0206F3677b1",
      "gasPrice": {
        "_hex": "0xde0b63922"
      },
      "gasLimit": {
        "_hex": "0x5208"
      },
      "to": "0x32Be343B94f860124dC4fEe278FDCBD38C102D88",
      "value": {
        "_hex": "0x56bc2ebc345328000"
      },
      "nonce": 2,
      "data": "0x",
      "r": "0xc4744868411819b113f06358f0403562cf03020720e89535467d5736ccefb476",
      "s": "0x73e93b1426aba065df8c191242433e8054d7556c4a4250d0583057c39fd28aff",
      "v": 27,
      "creates": null,
      "raw": "0xf86d02850de0b639228252089432be343b94f860124dc4fee278fdcbd38c102d8889056bc2ebc345328000801ba0c4744868411819b113f06358f0403562cf03020720e89535467d5736ccefb476a073e93b1426aba065df8c191242433e8054d7556c4a4250d0583057c39fd28aff",
      "networkId": 0,
      "chainId": 0
    },
    {
      "hash": "0x750a8ad78bc158c4d8b2f07f18bed1c4ac676cdec92689cb7b4c09258466f694",
      "blockHash": "0x2b52c06129cc0f2432ac88f02f93121c2f662b4cacfc24751c25e64b7d5d1587",
      "blockNumber": 60297,
      "transactionIndex": 2,
      "confirmations": null,
      "from": "0x2910543Af39abA0Cd09dBb2D50200b3E800A63D2",
      "gasPrice": {
        "_hex": "0xddb257048"
      },
      "gasLimit": {
        "_hex": "0x5208"
      },
      "to": "0xDe7Fea21Fe516d824641ae65F97b60552568E30A",
      "value": {
        "_hex": "0xdcef33a6f838000"
      },
      "nonce": 17,
      "data": "0x",
      "r": "0xe80dfeea28dc62c2803a093c59d777340cc7f5f09c578ddd595d8b7a97641f94",
      "s": "0x5c992ae827ce2a380f56764046c4834d00a4c9c1c1fc651c960a3df17d503249",
      "v": 28,
      "creates": null,
      "raw": "0xf86c11850ddb25704882520894de7fea21fe516d824641ae65f97b60552568e30a880dcef33a6f838000801ca0e80dfeea28dc62c2803a093c59d777340cc7f5f09c578ddd595d8b7a97641f94a05c992ae827ce2a380f56764046c4834d00a4c9c1c1fc651c960a3df17d503249",
      "networkId": 0,
      "chainId": 0
    }
  ]
}