{
  "hash": "0x69842f6e3b096263ec201fece6ec85fcb758845bc567a8727695ad97e253eca0",
  "parentHash": "0x4d81f0513bbfef6223689f02217cc3ed30dd6484f3c8152b224ce69271bc716f",
  "number": 63258,
  "timestamp": 1439201673,
  "nonce": "0xeb82789e4add8233",
  "difficulty": 1812048581965,
  "gasLimit": {
    "_hex": "0x2fefd5"
  },
  "gasUsed": {
    "_hex": "0x5208"
  },
  "miner": "0x0037ce3d4B7f8729C8607D8D0248252Be68202c0",
  "extraData": "0x476574682f76312e302e312f77696e646f77732f676f312e342e32",
  "transactions": [
    {
      "hash": "0xef845456a6c8ae4008805e2a0461d81322f8213f90a16baf60815eedee856a8e",
      "blockHash": "0x69842f6e3b096263ec201fece6ec85fcb758845bc567a8727695ad97e253eca0",
      "blockNumber": 63258,
      "transactionIndex": 0,
      "confirmations": null,
      "from": "0x32Be343B94f860124dC4fEe278FDCBD38C102D88",
      "gasPrice": {
        "_hex": "0xde3654ad5"
      },
      "gasLimit": {
        "_hex": "0x5208"
      },
      "to": "0x526384ca4cF099ECa3f719e8ac32dEf6eaDB1E80",
      "value": {
        "_hex": "0xf3f9b1637b8a98000"
      },
      "nonce": 161,
      "data": "0x",
      "r": "0x67943ff70ffebb1b6eeb8234d1147c7046197fd15ca46a38392b98899b0c22b3",
      "s": "0x65ddccada9d36316e961355ac2ff27c1e73d0c3a69f2f40354777a99f5cf4b2b",
      "v": 28,
      "creates": null,
      "raw": "0xf86e81a1850de3654ad582520894526384ca4cf099eca3f719e8ac32def6eadb1e80890f3f9b1637b8a98000801ca067943ff70ffebb1b6eeb8234d1147c7046197fd15ca46a38392b98899b0c22b3a065ddccada9d36316e961355ac2ff27c1e73d0c3a69f2f40354777a99f5cf4b2b",
      "networkId": 0,
      "chainId": 0
    }
  ]
}