{
  "hash": "0xf0c7fa221032a2c7b6250045baf3bb423671bfaf585e46ba517323ffa4b438d0",
  "parentHash": "0x2fa05ebe28958bb8ad2170e1fc150cadaa686a596bcb37b49334897b3e76cc0d",
  "number": 66881,
  "timestamp": 1439261907,
  "nonce": "0x22f1af0f38e26c7f",
  "difficulty": 1953670132650,
  "gasLimit": {
    "_hex": "0x2fefd5"
  },
  "gasUsed": {
    "_hex": "0xa410"
  },
  "miner": "0x52Dc504a422f0E2A9e7632A34a50f1a82F8224c7",
  "extraData": "0x476574682f76312e302e312f6c696e75782f676f312e342e32",
  "transactions": [
    {
      "hash": "0x305d43c06967805e55295ec12463f101ee1478c7bb3beabb98cc96676ba5bfed",
      "blockHash": "0xf0c7fa221032a2c7b6250045baf3bb423671bfaf585e46ba517323ffa4b438d0",
      "blockNumber": 66881,
      "transactionIndex": 0,
      "confirmations": null,
      "from": "0x1584A2C066b7a455dbD6aE2807a7334e83c35fa5",
      "gasPrice": {
        "_hex": "0xd6b187d36"
      },
      "gasLimit": {
        "_hex": "0x15f90"
      },
      "to": null,
      "value": {
        "_hex": "0x6f05b59d3b2000000"
      },
      "nonce": 0,
      "data": "0x",
      "r": "0x2e3b582522bf52fc5796290c2d41fd11b7de96cff547cd87e7b712159cc11e69",
      "s": "0x709a662934db3751949ba72f5a8d48e8edfb6196730b1226de5e44cfa173a4ac",
      "v": 28,
      "creates": "0x1a54BE38F6EE09a73230CEDbCbB9eb8bc5C4E8D0",
      "raw": "0xf85a80850d6b187d3683015f90808906f05b59d3b2000000801ca02e3b582522bf52fc5796290c2d41fd11b7de96cff547cd87e7b712159cc11e69a0709a662934db3751949ba72f5a8d48e8edfb6196730b1226de5e44cfa173a4ac",
      "networkId": 0,
      "chainId": 0
    },
    {
      "hash": "0x17fb0c998cbc4895b7d9128361f1d80251f4af7aa1a6520f33d2c7d2ed1f6380",
      "blockHash": "0xf0c7fa221032a2c7b6250045baf3bb423671bfaf585e46ba517323ffa4b438d0",
      "blockNumber": 66881,
      "transactionIndex": 1,
      "confirmations": null,
      "from": "0xB7f5530DF01aeFE061dAbFA6E778eE694157A71f",
      "gasPrice": {
        "_hex": "0xd3efddcd4"
      },
      "gasLimit": {
        "_hex": "0x15f90"
      },
      "to": "0x42979fca296FEA2C163EA66E1900acDe7886F86F",
      "value": {
        "_hex": "0xe35fa931a0000"
      },
      "nonce": 1,
      "data": "0x",
      "r": "0xdeeed2f779e6855eab308f08969f34d2f5dd25a7ff9ccdb2dd4f006b998dc387",
      "s": "0x2d0c309c7da130ab8c9614ccf95920635de4f55e0c6519ec74b4bc2bee77b1e2",
      "v": 28,
      "creates": null,
      "raw": "0xf86c01850d3efddcd483015f909442979fca296fea2c163ea66e1900acde7886f86f870e35fa931a0000801ca0deeed2f779e6855eab308f08969f34d2f5dd25a7ff9ccdb2dd4f006b998dc387a02d0c309c7da130ab8c9614ccf95920635de4f55e0c6519ec74b4bc2bee77b1e2",
      "networkId": 0,
      "chainId": 0
    }
  ]
}