{
  "hash": "0xcd09d22ffcee4bbecc199d743671107f723dde04215d60d6361f2cf2e6f3f824",
  "parentHash": "0xacf926f9013c760af4f463caf52a1c1dd97dd39785a26786bce954ff29cd062d",
  "number": 118991,
  "timestamp": 1440134911,
  "nonce": "0xc49866258cd54401",
  "difficulty": 4422654045736,
  "gasLimit": {
    "_hex": "0x2fefd8"
  },
  "gasUsed": {
    "_hex": "0x5208"
  },
  "miner": "0x48CD680bb700F6b7DE89Dd9FF4932CcC158c3e05",
  "extraData": "0x",
  "transactions": [
    {
      "hash": "0xd86c344e6bbb3a9a5a83d7633fa6fce52a28c2c149320d597c8d33d75ffea456",
      "blockHash": "0xcd09d22ffcee4bbecc199d743671107f723dde04215d60d6361f2cf2e6f3f824",
      "blockNumber": 118991,
      "transactionIndex": 0,
      "confirmations": null,
      "from": "0x632b9149D70178a7333634275E82d5953F27967B",
      "gasPrice": {
        "_hex": "0xdfde45d46"
      },
      "gasLimit": {
        "_hex": "0x15f90"
      },
      "to": "0x8B87d514623d1127f9b56DB60FA1498C1C4bF72e",
      "value": {
        "_hex": "0x8ac7230489e80000"
      },
      "nonce": 4,
      "data": "0x",
      "r": "0xe04f44449d53e5ef1bfc68189283f0c3a1d92a03863c8b690be72cd00c92637a",
      "s": "0x06fc7ef9f00bc2d9bef15ccda54e0499c702b7bc4d7bdabb48b98b5f933270c8",
      "v": 28,
      "creates": null,
      "raw": "0xf86d04850dfde45d4683015f90948b87d514623d1127f9b56db60fa1498c1c4bf72e888ac7230489e80000801ca0e04f44449d53e5ef1bfc68189283f0c3a1d92a03863c8b690be72cd00c92637aa006fc7ef9f00bc2d9bef15ccda54e0499c702b7bc4d7bdabb48b98b5f933270c8",
      "networkId": 0,
      "chainId": 0
    }
  ]
}