{
  "hash": "0xb828e780d70cbcdea94d701d226569a314124398fac2d4443b8f47c58d9f27ac",
  "parentHash": "0xa29014030fb2794a535f493a55621c7a2d7e1478aa0d3ad6da5dbb4454191e48",
  "number": 85423,
  "timestamp": 1439563323,
  "nonce": "0x21837147598ac1bb",
  "difficulty": 2749033433473,
  "gasLimit": {
    "_hex": "0x2fefd8"
  },
  "gasUsed": {
    "_hex": "0x546c"
  },
  "miner": "0x52Dc504a422f0E2A9e7632A34a50f1a82F8224c7",
  "extraData": "0x476574682f76312e302e312f6c696e75782f676f312e342e32",
  "transactions": [
    {
      "hash": "0xe4d3bacb44d3e57a31daced12eac13b253aa03031760dac3f77882a800114bd6",
      "blockHash": "0xb828e780d70cbcdea94d701d226569a314124398fac2d4443b8f47c58d9f27ac",
      "blockNumber": 85423,
      "transactionIndex": 0,
      "confirmations": null,
      "from": "0x2E0C57B47150f95aa6A7E16aB9b1CBf54328979A",
      "gasPrice": {
        "_hex": "0x110c8f7d8de"
      },
      "gasLimit": {
        "_hex": "0xc350"
      },
      "to": "0x2910543Af39abA0Cd09dBb2D50200b3E800A63D2",
      "value": {
        "_hex": "0x55005f0c614480000"
      },
      "nonce": 1,
      "data": "0x454e50363252333530",
      "r": "0x74cd980880707ff1285150b0b3ed0b5824c51dca09b714a220c4e977442895c7",
      "s": "0xacc06d8d756e795aa08ae1fa5a64a33af767f59788afe55cb86345ef14e99723",
      "v": 27,
      "creates": null,
      "raw": "0xf87701860110c8f7d8de82c350942910543af39aba0cd09dbb2d50200b3e800a63d289055005f0c61448000089454e503632523335301ba074cd980880707ff1285150b0b3ed0b5824c51dca09b714a220c4e977442895c7a0acc06d8d756e795aa08ae1fa5a64a33af767f59788afe55cb86345ef14e99723",
      "networkId": 0,
      "chainId": 0
    }
  ]
}