{
  "hash": "0x965ab7a3ffd2324d072d62c9bd2219599a4cb85d1e3368afa52c67276d1f8965",
  "parentHash": "0x5974d345f9c47120aadddf41512536e405c6f4e615e09a08417bfa154a494895",
  "number": 84897,
  "timestamp": 1439555965,
  "nonce": "0xe07fe9a55b53530c",
  "difficulty": 2675050672307,
  "gasLimit": {
    "_hex": "0x2fefd8"
  },
  "gasUsed": {
    "_hex": "0x5208"
  },
  "miner": "0xe6A7a1d47ff21B6321162AEA7C6CB457D5476Bca",
  "extraData": "0x476574682f76312e302e312d38326566323666362f6c696e75782f676f312e34",
  "transactions": [
    {
      "hash": "0x008ffa89f9e36ba392107322165d7c9939c5936eb3864a170b67a28c5a119e45",
      "blockHash": "0x965ab7a3ffd2324d072d62c9bd2219599a4cb85d1e3368afa52c67276d1f8965",
      "blockNumber": 84897,
      "transactionIndex": 0,
      "confirmations": null,
      "from": "0xFDD502a74e813bCFa355cEdA3C176f6A6871aF7F",
      "gasPrice": {
        "_hex": "0xd4522dbbf"
      },
      "gasLimit": {
        "_hex": "0x15f90"
      },
      "to": "0x9ecD1Bc07d16eb926077282970FA5240cc983F25",
      "value": {
        "_hex": "0x15aef9f1c31c7f0000"
      },
      "nonce": 0,
      "data": "0x",
      "r": "0xf272211c1ff587ee4569fd876196c8d3689a731d1a36e6c7c2011b3023199917",
      "s": "0x23b4508e22689af47e943df684e329e346718b0b5515d0cb73ad505871f03387",
      "v": 27,
      "creates": null,
      "raw": "0xf86e80850d4522dbbf83015f90949ecd1bc07d16eb926077282970fa5240cc983f258915aef9f1c31c7f0000801ba0f272211c1ff587ee4569fd876196c8d3689a731d1a36e6c7c2011b3023199917a023b4508e22689af47e943df684e329e346718b0b5515d0cb73ad505871f03387",
      "networkId": 0,
      "chainId": 0
    }
  ]
}