{
  "hash": "0x4d54bf18a975ccb26b3d9310481eb5377f1f43e1cd3796792ec33b1d5bafc76e",
  "parentHash": "0x22da03f647c65a49b9770d293c4da432053fef9533698b819aea4071369df85c",
  "number": 101722,
  "timestamp": 1439827175,
  "nonce": "0xa52420f84d3d90cd",
  "difficulty": 3867344611507,
  "gasLimit": {
    "_hex": "0x2fefd8"
  },
  "gasUsed": {
    "_hex": "0x5208"
  },
  "miner": "0x458F183347F45a4001807728A89F31E9Da9D4A58",
  "extraData": "0x476574682f76312e302e312d38326566323666362f6c696e75782f676f312e34",
  "transactions": [
    {
      "hash": "0xe343c8c278f074ddc9264412b8ea3c0fadc32cc5ca4586997da146806823f9db",
      "blockHash": "0x4d54bf18a975ccb26b3d9310481eb5377f1f43e1cd3796792ec33b1d5bafc76e",
      "blockNumber": 101722,
      "transactionIndex": 0,
      "confirmations": null,
      "from": "0x32Be343B94f860124dC4fEe278FDCBD38C102D88",
      "gasPrice": {
        "_hex": "0xd7942ef89"
      },
      "gasLimit": {
        "_hex": "0x5208"
      },
      "to": "0x7BBab06B74112eA1c7550FA97c6efAdA136eC531",
      "value": {
        "_hex": "0x2386f26fc10000"
      },
      "nonce": 1084,
      "data": "0x",
      "r": "0x8edb7cd8b90177916848b3a1892fa39bccbbcc2577be21749725d89205f5e587",
      "s": "0x551c0be9c78ae55643b9114a74a0d28264f81c0c7f57576ac84271a87c75399b",
      "v": 28,
      "creates": null,
      "raw": "0xf86d82043c850d7942ef89825208947bbab06b74112ea1c7550fa97c6efada136ec531872386f26fc10000801ca08edb7cd8b90177916848b3a1892fa39bccbbcc2577be21749725d89205f5e587a0551c0be9c78ae55643b9114a74a0d28264f81c0c7f57576ac84271a87c75399b",
      "networkId": 0,
      "chainId": 0
    }
  ]
}