{
  "hash": "0x6f2b99d4c4005ece454e074e3293029e2cf92f95b52da26ee1e1a5a5d7f0746a",
  "parentHash": "0xfed7aa25f3d88c03beea782736fa77578571e86c337df9d7b69b3c45462d253f",
  "number": 69234,
  "timestamp": 1439300357,
  "nonce": "0x7dc0bfa40d1a1da9",
  "difficulty": 2067950735748,
  "gasLimit": {
    "_hex": "0x2fefd8"
  },
  "gasUsed": {
    "_hex": "0x10731"
  },
  "miner": "0xEF247E639d49461D25F57e9362CadE3120910Ce0",
  "extraData": "0x476574682f76312e302e312f6c696e75782f676f312e342e32",
  "transactions": [
    {
      "hash": "0x64c5271fa269b9484c8804b2f7404c55a1bdeeafa175dd38532880f378180e71",
      "blockHash": "0x6f2b99d4c4005ece454e074e3293029e2cf92f95b52da26ee1e1a5a5d7f0746a",
      "blockNumber": 69234,
      "transactionIndex": 0,
      "confirmations": null,
      "from": "0x2905726Ed11131A984ce9C0119cB32DBC99dE90B",
      "gasPrice": {
        "_hex": "0x11b3da4e044"
      },
      "gasLimit": {
        "_hex": "0x30d40"
      },
      "to": "0xd94BAdbEC21695B7a36ABCb979EFad0108319d18",
      "value": {
        "_hex": "0x5af3107a4000"
      },
      "nonce": 25,
      "data": "0xa69beaba5374616c6b657200000000000000000000000000000000000000000000000000",
      "r": "0x1e36d8a4db31dfdb7e0d9a5f4e15b9fc342824e37055ee358bf2413160e2c3f0",
      "s": "0x5e9647279b6cd80b54110dee4b8b841fda7e702653d3be3371dfceba90ecc528",
      "v": 28,
      "creates": null,
      "raw": "0xf8901986011b3da4e04483030d4094d94badbec21695b7a36abcb979efad0108319d18865af3107a4000a4a69beaba5374616c6b6572000000000000000000000000000000000000000000000000001ca01e36d8a4db31dfdb7e0d9a5f4e15b9fc342824e37055ee358bf2413160e2c3f0a05e9647279b6cd80b54110dee4b8b841fda7e702653d3be3371dfceba90ecc528",
      "networkId": 0,
      "chainId": 0
    }
  ]
}