{
  "hash": "0x23942e5f58a2a203213d4f395e32e59f12f3a64ab124bc6ea504a7f3cd306e0e",
  "parentHash": "0xc1a03dba4458bf4e4da98accc8fd70a30c02a39304475690a7a45811f6cb4199",
  "number": 115041,
  "timestamp": 1440050650,
  "nonce": "0x42c2f4762c9ac141",
  "difficulty": 4516415596380,
  "gasLimit": {
    "_hex": "0x2fefd8"
  },
  "gasUsed": {
    "_hex": "0x5208"
  },
  "miner": "0xe6A7a1d47ff21B6321162AEA7C6CB457D5476Bca",
  "extraData": "0x476574682f76312e302e312d38326566323666362f6c696e75782f676f312e34",
  "transactions": [
    {
      "hash": "0x6596edc6dcd9c0d37150d7c9900b5650dd685c02c512daa697165187cc26a923",
      "blockHash": "0x23942e5f58a2a203213d4f395e32e59f12f3a64ab124bc6ea504a7f3cd306e0e",
      "blockNumber": 115041,
      "transactionIndex": 0,
      "confirmations": null,
      "from": "0x32Be343B94f860124dC4fEe278FDCBD38C102D88",
      "gasPrice": {
        "_hex": "0xdc4b5a3c0"
      },
      "gasLimit": {
        "_hex": "0x5208"
      },
      "to": "0xfB3FA1AC08aba9cc3bf0FE9D483820688F65B410",
      "value": {
        "_hex": "0x3635a626d36ee00000"
      },
      "nonce": 1403,
      "data": "0x",
      "r": "0xd622a153d93298bf27b31f7d25efd0e0fbf35968217edbbc71b11570eefa7f4a",
      "s": "0x79c1f086af05321c5340803200c1b6492519d116c630944afaa83d900d4664c8",
      "v": 27,
      "creates": null,
      "raw": "0xf86f82057b850dc4b5a3c082520894fb3fa1ac08aba9cc3bf0fe9d483820688f65b410893635a626d36ee00000801ba0d622a153d93298bf27b31f7d25efd0e0fbf35968217edbbc71b11570eefa7f4aa079c1f086af05321c5340803200c1b6492519d116c630944afaa83d900d4664c8",
      "networkId": 0,
      "chainId": 0
    }
  ]
}