{
  "hash": "0xef0561d75d92c6b3d982b5d729bccbad9444c2600bf069fe4b5bc16436595209",
  "parentHash": "0xda8c554481adc8a721774180799e72f88f5448029d15e8154c11379d6a8cc914",
  "number": 111476,
  "timestamp": 1439990835,
  "nonce": "0xd0ec2defdc8c6355",
  "difficulty": 4446113608709,
  "gasLimit": {
    "_hex": "0x2fefd8"
  },
  "gasUsed": {
    "_hex": "0x5208"
  },
  "miner": "0xe6A7a1d47ff21B6321162AEA7C6CB457D5476Bca",
  "extraData": "0x476574682f76312e302e312d38326566323666362f6c696e75782f676f312e34",
  "transactions": [
    {
      "hash": "0x7cda8abe1396b9a65a4d9528799aaf1178e5808fa5dd9d2b792b04d1f7f5290f",
      "blockHash": "0xef0561d75d92c6b3d982b5d729bccbad9444c2600bf069fe4b5bc16436595209",
      "blockNumber": 111476,
      "transactionIndex": 0,
      "confirmations": null,
      "from": "0x623d2411c3bb3340784155F9a688b0085251aB5c",
      "gasPrice": {
        "_hex": "0xd03686e9e"
      },
      "gasLimit": {
        "_hex": "0x55f0"
      },
      "to": "0xB9eE81c1A5CdE84454DC603a8000836118627cfd",
      "value": {
        "_hex": "0x7ea28327577080000"
      },
      "nonce": 3,
      "data": "0x",
      "r": "0x9a15400c4f98ebbe19a8eaa421814f944ebd4a25077c524cd7085021fecd5091",
      "s": "0x3ec0e811b0de339897ec9028a47a5fcb91b5ca6d7e8342ba18a1275c78cd27e5",
      "v": 28,
      "creates": null,
      "raw": "0xf86d03850d03686e9e8255f094b9ee81c1a5cde84454dc603a8000836118627cfd8907ea28327577080000801ca09a15400c4f98ebbe19a8eaa421814f944ebd4a25077c524cd7085021fecd5091a03ec0e811b0de339897ec9028a47a5fcb91b5ca6d7e8342ba18a1275c78cd27e5",
      "networkId": 0,
      "chainId": 0
    }
  ]
}