{
  "hash": "0xec789d6abc22ed564d38a925ed82550078caa9cc91fba941459981931db2736a",
  "parentHash": "0x990b8cc74bf89fe82d4d56d774a3e3a3801e913bea7f50918d5ca6aa36ae7d74",
  "number": 71994,
  "timestamp": 1439345352,
  "nonce": "0xe54ba489efac0058",
  "difficulty": 2164366172540,
  "gasLimit": {
    "_hex": "0x2fefd8"
  },
  "gasUsed": {
    "_hex": "0xae73"
  },
  "miner": "0x82b25DdBdf31a6d7F0C93E1aC4c13f155AfAF7fd",
  "extraData": "0x",
  "transactions": [
    {
      "hash": "0xd92eca5568553090bcdaeecea0df2a9acf71d120d0cc269dda81912a96ab0bf8",
      "blockHash": "0xec789d6abc22ed564d38a925ed82550078caa9cc91fba941459981931db2736a",
      "blockNumber": 71994,
      "transactionIndex": 0,
      "confirmations": null,
      "from": "0x17580B766f7453525ca4C6A88b01b50570EA088C",
      "gasPrice": {
        "_hex": "0xcb34a4701"
      },
      "gasLimit": {
        "_hex": "0x61a80"
      },
      "to": "0x5Fe5B7546D1628f7348B023A0393de1FC825A4fD",
      "value": {
        "_hex": "0x3782dace9d900000"
      },
      "nonce": 318,
      "data": "0xb595b8b50000000000000000000000000000000000000000000000000000000000000000",
      "r": "0xb770a4e58bdc67e1b182af292b8664fbe8d5a670627372f0ce43674e4635aab4",
      "s": "0x7f0f0d6b78de3d77f7539ea5086dc161e6df066cbe0ddad03b3c26edc347928c",
      "v": 28,
      "creates": null,
      "raw": "0xf89382013e850cb34a470183061a80945fe5b7546d1628f7348b023a0393de1fc825a4fd883782dace9d900000a4b595b8b500000000000000000000000000000000000000000000000000000000000000001ca0b770a4e58bdc67e1b182af292b8664fbe8d5a670627372f0ce43674e4635aab4a07f0f0d6b78de3d77f7539ea5086dc161e6df066cbe0ddad03b3c26edc347928c",
      "networkId": 0,
      "chainId": 0
    }
  ]
}