{
  "hash": "0x14c3b0262ae445fe7892660df964be714fcfb2438e70c502aa3ad45fa4af6997",
  "parentHash": "0x6fdfb2d48e6f58039301a6eb25a93253e2287faaa3eb98c218830bb21b23a678",
  "number": 102441,
  "timestamp": 1439838113,
  "nonce": "0x162285cea4df92bd",
  "difficulty": 3960650170632,
  "gasLimit": {
    "_hex": "0x2fefd8"
  },
  "gasUsed": {
    "_hex": "0x89da"
  },
  "miner": "0xE13f83e0288E460362D9E7421f0601fB88C4fd91",
  "extraData": "0x476574682f76312e302e312f6c696e75782f676f312e342e32",
  "transactions": [
    {
      "hash": "0x1bf948d739a8cc88dd556eca8ee8a46fc5a73b8c615f50f43f916bca2ad29a5a",
      "blockHash": "0x14c3b0262ae445fe7892660df964be714fcfb2438e70c502aa3ad45fa4af6997",
      "blockNumber": 102441,
      "transactionIndex": 0,
      "confirmations": null,
      "from": "0x4B85e9D2e433D7EcA29f8A7A859Cf0346702c89a",
      "gasPrice": {
        "_hex": "0xd09573bb0"
      },
      "gasLimit": {
        "_hex": "0x15f90"
      },
      "to": "0x4A94787103A50a04f64a95cDcE2c968643D05ABd",
      "value": {
        "_hex": "0x0"
      },
      "nonce": 5,
      "data": "0x90b98a11000000000000000000000000457a7e74fe5fe8a2fd3036fa19b7e084869ccd6300000000000000000000000000000000000000000000000000000000000001f4",
      "r": "0x16e71e4743b4ed3ce9c3b95c163135be7092aef6ef23f787622c5e82c2ba11bd",
      "s": "0x46886ea62da9021b1f7f5108ce14d0f6e0a9f2a79115ce8ad706e1982ed760a5",
      "v": 28,
      "creates": null,
      "raw": "0xf8aa05850d09573bb083015f90944a94787103a50a04f64a95cdce2c968643d05abd80b84490b98a11000000000000000000000000457a7e74fe5fe8a2fd3036fa19b7e084869ccd6300000000000000000000000000000000000000000000000000000000000001f41ca016e71e4743b4ed3ce9c3b95c163135be7092aef6ef23f787622c5e82c2ba11bda046886ea62da9021b1f7f5108ce14d0f6e0a9f2a79115ce8ad706e1982ed760a5",
      "networkId": 0,
      "chainId": 0
    }
  ]
}