{
  "hash": "0xbf062dcc32114c3fda0eb0b9195145e422fcfd48a5dabd18094980d3b1aa903b",
  "parentHash": "0xcfffdb0591cf6bcd6b3d8a12f67de70f2819ae61fb487bf6f1ce09a9e6099b48",
  "number": 52165,
  "timestamp": 1439017316,
  "nonce": "0x40fdc996329a1e86",
  "difficulty": 1555771869225,
  "gasLimit": {
    "_hex": "0x10b2d4"
  },
  "gasUsed": {
    "_hex": "0x7a120"
  },
  "miner": "0xF2d2AfF1320476cb8C6b607199D23175cc595693",
  "extraData": "0x476574682f76312e302e312f77696e646f77732f676f312e342e32",
  "transactions": [
    {
      "hash": "0xaec5fcca26f2a36e9ae1ba825fe0239cc0c3b2382b5c194e6e0cc2344e58853a",
      "blockHash": "0xbf062dcc32114c3fda0eb0b9195145e422fcfd48a5dabd18094980d3b1aa903b",
      "blockNumber": 52165,
      "transactionIndex": 0,
      "confirmations": null,
      "from": "0xcf6594A6A1DC7a49F777e0CFDAca094c36721080",
      "gasPrice": {
        "_hex": "0xd641f460d"
      },
      "gasLimit": {
        "_hex": "0x7a120"
      },
      "to": "0xBAA54d6E90c3F4d7Ebec11bD180134C7eD8eBb52",
      "value": {
        "_hex": "0x16345785d8a0000"
      },
      "nonce": 0,
      "data": "0x",
      "r": "0x848df0d94f0b3bab183743e1bddb5dce0e7b847741bd081eb29f24a26396b3c0",
      "s": "0x2f27ea468867fc011573b75d5284090cb5580352e351dee27cb8e05ad6403935",
      "v": 27,
      "creates": null,
      "raw": "0xf86d80850d641f460d8307a12094baa54d6e90c3f4d7ebec11bd180134c7ed8ebb5288016345785d8a0000801ba0848df0d94f0b3bab183743e1bddb5dce0e7b847741bd081eb29f24a26396b3c0a02f27ea468867fc011573b75d5284090cb5580352e351dee27cb8e05ad6403935",
      "networkId": 0,
      "chainId": 0
    }
  ]
}