{
  "hash": "0xac133730f6f14b8342c6971bf75fe9cdb73d520100f7ac59c14cde73d0dc7e43",
  "parentHash": "0x024934008a9eafbfc331a676a0b3f114208ac6f57f8bee523fa53a5b7bd84afb",
  "number": 64634,
  "timestamp": 1439223918,
  "nonce": "0x1fda3de244535df1",
  "difficulty": 1889450747992,
  "gasLimit": {
    "_hex": "0x2fefd8"
  },
  "gasUsed": {
    "_hex": "0x77038"
  },
  "miner": "0xf8E0CA3Ed80bd541b94BEdCf259e8CF2141A9523",
  "extraData": "0x476574682f76312e302e312f77696e646f77732f676f312e342e32",
  "transactions": [
    {
      "hash": "0x75e02c04596c2723929a87b24d3430346fbaba8b1b2b7d35ac66b304719f9022",
      "blockHash": "0xac133730f6f14b8342c6971bf75fe9cdb73d520100f7ac59c14cde73d0dc7e43",
      "blockNumber": 64634,
      "transactionIndex": 0,
      "confirmations": null,
      "from": "0xD8e2D53B984eF362De967E9e7df5eE434700D0f1",
      "gasPrice": {
        "_hex": "0xba43b7400"
      },
      "gasLimit": {
        "_hex": "0x15f90"
      },
      "to": "0x793AE8C1b1a160BFc07BFB0d04F85eab1A71F4f2",
      "value": {
        "_hex": "0x0"
      },
      "nonce": 0,
      "data": "0x3ba15036",
      "r": "0x03fea7fa4e80c1b835682a4a6d52964d5820688298422dd833c01267b659b0c1",
      "s": "0x0bd64220949d1095af202c76f426407a856fe2a44c6516f49d058f7e6423ffac",
      "v": 28,
      "creates": null,
      "raw": "0xf86980850ba43b740083015f9094793ae8c1b1a160bfc07bfb0d04f85eab1a71f4f280843ba150361ca003fea7fa4e80c1b835682a4a6d52964d5820688298422dd833c01267b659b0c1a00bd64220949d1095af202c76f426407a856fe2a44c6516f49d058f7e6423ffac",
      "networkId": 0,
      "chainId": 0
    },
    {
      "hash": "0x3af4eea663b69c39605aea2d8810ae8558e5abc6b9da5fb601149cc1b4f75e5c",
      "blockHash": "0xac133730f6f14b8342c6971bf75fe9cdb73d520100f7ac59c14cde73d0dc7e43",
      "blockNumber": 64634,
      "transactionIndex": 1,
      "confirmations": null,
      "from": "0xD73Ec3B8Cbbe16c4f27f5922a5729EEb85303392",
      "gasPrice": {
        "_hex": "0xba43b7400"
      },
      "gasLimit": {
        "_hex": "0x15f90"
      },
      "to": "0x793AE8C1b1a160BFc07BFB0d04F85eab1A71F4f2",
      "value": {
        "_hex": "0x0"
      },
      "nonce": 0,
      "data": "0x3ba15036",
      "r": "0x79f6bec490dce12bbec80008b1969932c0a986d9a905690c6fb9f78279d22240",
      "s": "0x15c9026cb46e803db691cb09bab07cbda44f311043cce195a8a81be9829462ef",
      "v": 27,
      "creates": null,
      "raw": "0xf86980850ba43b740083015f9094793ae8c1b1a160bfc07bfb0d04f85eab1a71f4f280843ba150361ba079f6bec490dce12bbec80008b1969932c0a986d9a905690c6fb9f78279d22240a015c9026cb46e803db691cb09bab07cbda44f311043cce195a8a81be9829462ef",
      "networkId": 0,
      "chainId": 0
    },
    {
      "hash": "0x3a52e1fce645b3bdb3cbac0e61dee7f2e7ad135e06467641659b755c75540aba",
      "blockHash": "0xac133730f6f14b8342c6971bf75fe9cdb73d520100f7ac59c14cde73d0dc7e43",
      "blockNumber": 64634,
      "transactionIndex": 2,
      "confirmations": null,
      "from": "0xC581c04C32a98eFF14C2aC4D83dAa005F05Da624",
      "gasPrice": {
        "_hex": "0xba43b7400"
      },
      "gasLimit": {
        "_hex": "0x15f90"
      },
      "to": "0x793AE8C1b1a160BFc07BFB0d04F85eab1A71F4f2",
      "value": {
        "_hex": "0x0"
      },
      "nonce": 0,
      "data": "0x3ba15036",
      "r": "0x2d122c6c8fd718c541de6a15f9d2308e01eaf0ad9d67c5bc4138b9ec93711d0a",
      "s": "0x017c359f737e334ea9cb976eb66147fa2fe500f475cdae633aedc2c806a7fe37",
      "v": 27,
      "creates": null,
      "raw": "0xf86980850ba43b740083015f9094793ae8c1b1a160bfc07bfb0d04f85eab1a71f4f280843ba150361ba02d122c6c8fd718c541de6a15f9d2308e01eaf0ad9d67c5bc4138b9ec93711d0aa0017c359f737e334ea9cb976eb66147fa2fe500f475cdae633aedc2c806a7fe37",
      "networkId": 0,
      "chainId": 0
    },
    {
      "hash": "0x512b6631622e8e0c92ce530bbaf7dbca535b0f1c9c38ff5c7b710b29b3728326",
      "blockHash": "0xac133730f6f14b8342c6971bf75fe9cdb73d520100f7ac59c14cde73d0dc7e43",
      "blockNumber": 64634,
      "transactionIndex": 3,
      "confirmations": null,
      "from": "0xC3C23b0e71476525dd331f08916523fF626CDD0f",
      "gasPrice": {
        "_hex": "0xba43b7400"
      },
      "gasLimit": {
        "_hex": "0x15f90"
      },
      "to": "0x793AE8C1b1a160BFc07BFB0d04F85eab1A71F4f2",
      "value": {
        "_hex": "0x0"
      },
      "nonce": 0,
      "data": "0x3ba15036",
      "r": "0xcb538f2331551457e38eb468ef66ab05d410b291c7040b458ac1ec30fe6bb15c",
      "s": "0x14afef329746614bb112df4663f327e4855449bc7d5bfbff9c70b0b49f588ba5",
      "v": 28,
      "creates": null,
      "raw": "0xf86980850ba43b740083015f9094793ae8c1b1a160bfc07bfb0d04f85eab1a71f4f280843ba150361ca0cb538f2331551457e38eb468ef66ab05d410b291c7040b458ac1ec30fe6bb15ca014afef329746614bb112df4663f327e4855449bc7d5bfbff9c70b0b49f588ba5",
      "networkId": 0,
      "chainId": 0
    },
    {
      "hash": "0x4fd00055c41c0a4789eb35e218c43f42142f7aea8d0b3b35d3b447c75fd61f06",
      "blockHash": "0xac133730f6f14b8342c6971bf75fe9cdb73d520100f7ac59c14cde73d0dc7e43",
      "blockNumber": 64634,
      "transactionIndex": 4,
      "confirmations": null,
      "from": "0x64b91466Aa386917d7364F6242784bF3d2093B57",
      "gasPrice": {
        "_hex": "0xba43b7400"
      },
      "gasLimit": {
        "_hex": "0x15f90"
      },
      "to": "0x793AE8C1b1a160BFc07BFB0d04F85eab1A71F4f2",
      "value": {
        "_hex": "0x0"
      },
      "nonce": 0,
      "data": "0x3ba15036",
      "r": "0x5d36e4957fdc7b7fa5c8b60818efe8669524630c46df9a23c97f4d098b0851c6",
      "s": "0x437eb01a67db2dae9415b5fbf1de33500b80ce86d7ef9df5443ce5b55994ab12",
      "v": 28,
      "creates": null,
      "raw": "0xf86980850ba43b740083015f9094793ae8c1b1a160bfc07bfb0d04f85eab1a71f4f280843ba150361ca05d36e4957fdc7b7fa5c8b60818efe8669524630c46df9a23c97f4d098b0851c6a0437eb01a67db2dae9415b5fbf1de33500b80ce86d7ef9df5443ce5b55994ab12",
      "networkId": 0,
      "chainId": 0
    },
    {
      "hash": "0xd142d3b08cc5f9dd98460865aa4749d5edcfdc7191f12f7b8be4b5ff15eccbdc",
      "blockHash": "0xac133730f6f14b8342c6971bf75fe9cdb73d520100f7ac59c14cde73d0dc7e43",
      "blockNumber": 64634,
      "transactionIndex": 5,
      "confirmations": null,
      "from": "0xeFfD11492fcF695e6BAEcB464E177483290F7803",
      "gasPrice": {
        "_hex": "0xba43b7400"
      },
      "gasLimit": {
        "_hex": "0x15f90"
      },
      "to": "0x793AE8C1b1a160BFc07BFB0d04F85eab1A71F4f2",
      "value": {
        "_hex": "0x0"
      },
      "nonce": 0,
      "data": "0x3ba15036",
      "r": "0xe4555824a9e4fb5761c59cd2dd578a40a95cb25220434635bbe4885aba1879b9",
      "s": "0x10b78d8a067fe4a9d803afda7cb215015ced3970e52414dd7d4487eea0f8f939",
      "v": 28,
      "creates": null,
      "raw": "0xf86980850ba43b740083015f9094793ae8c1b1a160bfc07bfb0d04f85eab1a71f4f280843ba150361ca0e4555824a9e4fb5761c59cd2dd578a40a95cb25220434635bbe4885aba1879b9a010b78d8a067fe4a9d803afda7cb215015ced3970e52414dd7d4487eea0f8f939",
      "networkId": 0,
      "chainId": 0
    },
    {
      "hash": "0x9794302fbd6dadf3ccb31f4c9245c3224838787e589ced56962e48e6e901bc55",
      "blockHash": "0xac133730f6f14b8342c6971bf75fe9cdb73d520100f7ac59c14cde73d0dc7e43",
      "blockNumber": 64634,
      "transactionIndex": 6,
      "confirmations": null,
      "from": "0xAd8f7C1349B760389C4B11F80EE1eFF1B90CE40E",
      "gasPrice": {
        "_hex": "0xba43b7400"
      },
      "gasLimit": {
        "_hex": "0x15f90"
      },
      "to": "0x793AE8C1b1a160BFc07BFB0d04F85eab1A71F4f2",
      "value": {
        "_hex": "0x0"
      },
      "nonce": 0,
      "data": "0x3ba15036",
      "r": "0x6a7f420a70599a66f219ea0707f7b72de29e034ed952f9abfe9a8494ddf54943",
      "s": "0x7d3027d0b2985259a4a0fee07e2667c1e1b93018659583d436dac20923eac4bd",
      "v": 28,
      "creates": null,
      "raw": "0xf86980850ba43b740083015f9094793ae8c1b1a160bfc07bfb0d04f85eab1a71f4f280843ba150361ca06a7f420a70599a66f219ea0707f7b72de29e034ed952f9abfe9a8494ddf54943a07d3027d0b2985259a4a0fee07e2667c1e1b93018659583d436dac20923eac4bd",
      "networkId": 0,
      "chainId": 0
    },
    {
      "hash": "0x908f7cc71e95bce25157209be82534e07eea15f969b5b6ed756c2ed55aa399ba",
      "blockHash": "0xac133730f6f14b8342c6971bf75fe9cdb73d520100f7ac59c14cde73d0dc7e43",
      "blockNumber": 64634,
      "transactionIndex": 7,
      "confirmations": null,
      "from": "0x72617AaaC569c2c6bE8DB1595cCDF7541e57e507",
      "gasPrice": {
        "_hex": "0xba43b7400"
      },
      "gasLimit": {
        "_hex": "0x15f90"
      },
      "to": "0x793AE8C1b1a160BFc07BFB0d04F85eab1A71F4f2",
      "value": {
        "_hex": "0x0"
      },
      "nonce": 0,
      "data": "0x3ba15036",
      "r": "0xd63f0e5a18368810561e81251dbe34a51a50d35273f50fca08f53eeb3d1724b0",
      "s": "0x03ca3420ef4d03a8a526cee546c591b29c4c0e3ef1b8d5371e50207dab4710e5",
      "v": 27,
      "creates": null,
      "raw": "0xf86980850ba43b740083015f9094793ae8c1b1a160bfc07bfb0d04f85eab1a71f4f280843ba150361ba0d63f0e5a18368810561e81251dbe34a51a50d35273f50fca08f53eeb3d1724b0a003ca3420ef4d03a8a526cee546c591b29c4c0e3ef1b8d5371e50207dab4710e5",
      "networkId": 0,
      "chainId": 0
    },
    {
      "hash": "0x9cde295e21298b11b61a42ef5fba5996b4fb0facb9ff19ac7e7bf6e2b31decd2",
      "blockHash": "0xac133730f6f14b8342c6971bf75fe9cdb73d520100f7ac59c14cde73d0dc7e43",
      "blockNumber": 64634,
      "transactionIndex": 8,
      "confirmations": null,
      "from": "0xdBdC8a1573d1247D3b5C532D0e6434239Af1c6Bc",
      "gasPrice": {
        "_hex": "0xba43b7400"
      },
      "gasLimit": {
        "_hex": "0x15f90"
      },
      "to": "0x793AE8C1b1a160BFc07BFB0d04F85eab1A71F4f2",
      "value": {
        "_hex": "0x0"
      },
      "nonce": 0,
      "data": "0x3ba15036",
      "r": "0x534eeb5c76ce3afcd51a4cb5374b28fe8b81717fabd0bb1d717199525a29c7ee",
      "s": "0x15d5ebec341d5af8b60ed969d5c535e233a01adb7b699be832d637c0fc0bd89c",
      "v": 28,
      "creates": null,
      "raw": "0xf86980850ba43b740083015f9094793ae8c1b1a160bfc07bfb0d04f85eab1a71f4f280843ba150361ca0534eeb5c76ce3afcd51a4cb5374b28fe8b81717fabd0bb1d717199525a29c7eea015d5ebec341d5af8b60ed969d5c535e233a01adb7b699be832d637c0fc0bd89c",
      "networkId": 0,
      "chainId": 0
    },
    {
      "hash": "0xccc2f5bab83c97f3b46a4f5ba285773c8788f5923a3a4ddf1b0bb328cfc8a820",
      "blockHash": "0xac133730f6f14b8342c6971bf75fe9cdb73d520100f7ac59c14cde73d0dc7e43",
      "blockNumber": 64634,
      "transactionIndex": 9,
      "confirmations": null,
      "from": "0x41b0ECDb594EcDd5b110e63486F079682C196877",
      "gasPrice": {
        "_hex": "0xba43b7400"
      },
      "gasLimit": {
        "_hex": "0x15f90"
      },
      "to": "0x793AE8C1b1a160BFc07BFB0d04F85eab1A71F4f2",
      "value": {
        "_hex": "0x0"
      },
      "nonce": 0,
      "data": "0x3ba15036",
      "r": "0x2baafc539abc1560ed93e9fb40428cda28145acbb08c7cd6b60b2ca042a0881c",
      "s": "0x06621ae25ab6e0dd94679ea6a3b430bad0bc014ffe9dc0896b739c37ce4cfdb7",
      "v": 28,
      "creates": null,
      "raw": "0xf86980850ba43b740083015f9094793ae8c1b1a160bfc07bfb0d04f85eab1a71f4f280843ba150361ca02baafc539abc1560ed93e9fb40428cda28145acbb08c7cd6b60b2ca042a0881ca006621ae25ab6e0dd94679ea6a3b430bad0bc014ffe9dc0896b739c37ce4cfdb7",
      "networkId": 0,
      "chainId": 0
    }
  ]
}