{
  "hash": "0xaefb186f139d558b0d07ebb7104fcaaa2c6a307beda36a7005d8bd23417e7843",
  "parentHash": "0x634334298da2f4ac19f3228d160a38c01f82c3b999b62d3c03ad1a2671d0a522",
  "number": 54762,
  "timestamp": 1439059640,
  "nonce": "0x6f44949bd7805c2b",
  "difficulty": 1619616773667,
  "gasLimit": {
    "_hex": "0x2fefd8"
  },
  "gasUsed": {
    "_hex": "0x546c"
  },
  "miner": "0xa50ec0D39fa913E62f1Bae7074E6F36caA71855b",
  "extraData": "0x",
  "transactions": [
    {
      "hash": "0x87a462f61f6758cdbae6b7900c495cc12b488b924439f51b245fdebadad8b46a",
      "blockHash": "0xaefb186f139d558b0d07ebb7104fcaaa2c6a307beda36a7005d8bd23417e7843",
      "blockNumber": 54762,
      "transactionIndex": 0,
      "confirmations": null,
      "from": "0x88a0A05437262a1b65f41A978Cb16CB1f0BFCfE0",
      "gasPrice": {
        "_hex": "0xd27e204c7"
      },
      "gasLimit": {
        "_hex": "0x15f90"
      },
      "to": "0x2910543Af39abA0Cd09dBb2D50200b3E800A63D2",
      "value": {
        "_hex": "0x6c262fca09784c0000"
      },
      "nonce": 2,
      "data": "0x454e3646414e385047",
      "r": "0x036096eeea2fc17a64312fa2333eea3c4cefebc0f806d55c9587cd5178647a89",
      "s": "0x4759983d7d40552d55b6171ff6a198102fc6567c423a4ebea5d1236cd3d8ff10",
      "v": 27,
      "creates": null,
      "raw": "0xf87702850d27e204c783015f90942910543af39aba0cd09dbb2d50200b3e800a63d2896c262fca09784c000089454e3646414e3850471ba0036096eeea2fc17a64312fa2333eea3c4cefebc0f806d55c9587cd5178647a89a04759983d7d40552d55b6171ff6a198102fc6567c423a4ebea5d1236cd3d8ff10",
      "networkId": 0,
      "chainId": 0
    }
  ]
}