{
  "hash": "0xc2bfb66c6a1a0ffb03a4d285bc920713111fb6ed18a9b8ca9bd67de22046969d",
  "parentHash": "0xad5e8f23dcddd9564ffe0504ad4f98ca434ff36b27738a8323f7d3e3b842d47f",
  "number": 96637,
  "timestamp": 1439743407,
  "nonce": "0x97c28f4fbb7299c1",
  "difficulty": 3726899462618,
  "gasLimit": {
    "_hex": "0x2fefd8"
  },
  "gasUsed": {
    "_hex": "0x5208"
  },
  "miner": "0xbb7B8287f3F0a933474a79eAe42CBCa977791171",
  "extraData": "0x476574682f4c5649562f76312e302e312f6c696e75782f676f312e342e32",
  "transactions": [
    {
      "hash": "0x0e09debec6dfe877364e4c1eafef95a845c9710f311b1bbced833995f86212b0",
      "blockHash": "0xc2bfb66c6a1a0ffb03a4d285bc920713111fb6ed18a9b8ca9bd67de22046969d",
      "blockNumber": 96637,
      "transactionIndex": 0,
      "confirmations": null,
      "from": "0xcf00A85f3826941e7A25BFcF9Aac575d40410852",
      "gasPrice": {
        "_hex": "0xcb5bea614"
      },
      "gasLimit": {
        "_hex": "0x15f90"
      },
      "to": "0xD9666150A9dA92d9108198a4072970805a8B3428",
      "value": {
        "_hex": "0x4563918244f40000"
      },
      "nonce": 5,
      "data": "0x",
      "r": "0xc72f2e2ff0d5cb8c971fc52c25e187c791104919d7cbb10d0f91651f15ef7146",
      "s": "0x7a59d588c31f8de1d9d8a040bbace7f3c6fe34dd49536b133f35c6581a80ec78",
      "v": 28,
      "creates": null,
      "raw": "0xf86d05850cb5bea61483015f9094d9666150a9da92d9108198a4072970805a8b3428884563918244f40000801ca0c72f2e2ff0d5cb8c971fc52c25e187c791104919d7cbb10d0f91651f15ef7146a07a59d588c31f8de1d9d8a040bbace7f3c6fe34dd49536b133f35c6581a80ec78",
      "networkId": 0,
      "chainId": 0
    }
  ]
}