{
  "hash": "0x782f634e8158e40a5c3c2b6b9a40ab72917b21c169f2177550546da888f2ca4f",
  "parentHash": "0x95652edf313763520aa35c756b7a0fec53ba3aec26cbf35189ab50e2ba7d95df",
  "number": 119572,
  "timestamp": 1440145256,
  "nonce": "0x7824a90bb9ab0e80",
  "difficulty": 4385790732319,
  "gasLimit": {
    "_hex": "0x2fefd8"
  },
  "gasUsed": {
    "_hex": "0x5208"
  },
  "miner": "0x52bc44d5378309EE2abF1539BF71dE1b7d7bE3b5",
  "extraData": "0xd783010002844765746887676f312e342e32856c696e7578",
  "transactions": [
    {
      "hash": "0x833c9f4a02aad6263323d207ff04db291fd193e64268632e43056174e96f56bf",
      "blockHash": "0x782f634e8158e40a5c3c2b6b9a40ab72917b21c169f2177550546da888f2ca4f",
      "blockNumber": 119572,
      "transactionIndex": 0,
      "confirmations": null,
      "from": "0x632b9149D70178a7333634275E82d5953F27967B",
      "gasPrice": {
        "_hex": "0xba43b7400"
      },
      "gasLimit": {
        "_hex": "0x15f90"
      },
      "to": "0x8B87d514623d1127f9b56DB60FA1498C1C4bF72e",
      "value": {
        "_hex": "0x4563918244f400000"
      },
      "nonce": 6,
      "data": "0x",
      "r": "0x095eecbb7d197ddc55f18a02749fcf3864aaf8e91fa283cda3ed7ff5c18639d7",
      "s": "0x3b34f673f664583d0fdf7fd4bc3a021ea119067cd65e7c185159f9ca645a0a88",
      "v": 28,
      "creates": null,
      "raw": "0xf86e06850ba43b740083015f90948b87d514623d1127f9b56db60fa1498c1c4bf72e8904563918244f400000801ca0095eecbb7d197ddc55f18a02749fcf3864aaf8e91fa283cda3ed7ff5c18639d7a03b34f673f664583d0fdf7fd4bc3a021ea119067cd65e7c185159f9ca645a0a88",
      "networkId": 0,
      "chainId": 0
    }
  ]
}