{
  "hash": "0x5d733967d2a745516c8aa35b03d381927654b8ee0b589053ea91d66c2fe6b054",
  "parentHash": "0x0465ac3597af5e07f6aa972d1debd98d75e9a6fee0f7a0765a500d1a3d507b7e",
  "number": 47183,
  "timestamp": 1438935710,
  "nonce": "0x93bfc8788af9ce74",
  "difficulty": 1459527235635,
  "gasLimit": {
    "_hex": "0xa03a"
  },
  "gasUsed": {
    "_hex": "0x5208"
  },
  "miner": "0xab84940B570d6358ed6A9Dbf7e0bc8Ec8F5A6E89",
  "extraData": "0x322831652933",
  "transactions": [
    {
      "hash": "0x45e16ce212686dc6c55266b30724238e083790743ad3f4039bc9c043fc7929a9",
      "blockHash": "0x5d733967d2a745516c8aa35b03d381927654b8ee0b589053ea91d66c2fe6b054",
      "blockNumber": 47183,
      "transactionIndex": 0,
      "confirmations": null,
      "from": "0xe6A7a1d47ff21B6321162AEA7C6CB457D5476Bca",
      "gasPrice": {
        "_hex": "0xdc3d392f2"
      },
      "gasLimit": {
        "_hex": "0x5208"
      },
      "to": "0x9835c2d4f081a497739C2D75E4F00ecAfCB9ebd6",
      "value": {
        "_hex": "0x4f3ec6e87b832828"
      },
      "nonce": 68,
      "data": "0x",
      "r": "0x273b2600e6f73e636b41e1e94d38a11bc0d2a1d2aeff7b3c6d9f70b98762a6e6",
      "s": "0x019cfbaba264cce0c42029526c89779eb6f5a62efc91effb5e11a29077af6090",
      "v": 27,
      "creates": null,
      "raw": "0xf86c44850dc3d392f2825208949835c2d4f081a497739c2d75e4f00ecafcb9ebd6884f3ec6e87b832828801ba0273b2600e6f73e636b41e1e94d38a11bc0d2a1d2aeff7b3c6d9f70b98762a6e6a0019cfbaba264cce0c42029526c89779eb6f5a62efc91effb5e11a29077af6090",
      "networkId": 0,
      "chainId": 0
    }
  ]
}