{
  "hash": "0x9a468d6f360c0a2bbad1e04cb61a4f645b2180b94c888815c3908634a5e76541",
  "parentHash": "0xa13a32ad5af9684db274ac16df7b325af3c68bf2bef53246002e6f5ec4e86dea",
  "number": 95027,
  "timestamp": 1439717895,
  "nonce": "0x08edcf28167d5e4e",
  "difficulty": 3501770041306,
  "gasLimit": {
    "_hex": "0x2fefd8"
  },
  "gasUsed": {
    "_hex": "0x5208"
  },
  "miner": "0xe6A7a1d47ff21B6321162AEA7C6CB457D5476Bca",
  "extraData": "0x476574682f76312e302e312d38326566323666362f6c696e75782f676f312e34",
  "transactions": [
    {
      "hash": "0xa4354ffdbdc20326759493774b89347c0ae3bffeb41456f3fc2c00497f0e7c05",
      "blockHash": "0x9a468d6f360c0a2bbad1e04cb61a4f645b2180b94c888815c3908634a5e76541",
      "blockNumber": 95027,
      "transactionIndex": 0,
      "confirmations": null,
      "from": "0xE9820EfC74A9fe5fb68bf1e0FBf9945c1302bC0B",
      "gasPrice": {
        "_hex": "0xd9548484a"
      },
      "gasLimit": {
        "_hex": "0x5208"
      },
      "to": "0x32Be343B94f860124dC4fEe278FDCBD38C102D88",
      "value": {
        "_hex": "0x43a735081da1bc000"
      },
      "nonce": 3,
      "data": "0x",
      "r": "0x70b75bb5dfbf48983291cbdadf399bef1c79f1801fcdd5c3bf1da1792a0189a4",
      "s": "0x02c3e1a3cbd74781eec5bbd73f5313c2a91664d822a65898616a1b9e4f6de445",
      "v": 28,
      "creates": null,
      "raw": "0xf86d03850d9548484a8252089432be343b94f860124dc4fee278fdcbd38c102d8889043a735081da1bc000801ca070b75bb5dfbf48983291cbdadf399bef1c79f1801fcdd5c3bf1da1792a0189a4a002c3e1a3cbd74781eec5bbd73f5313c2a91664d822a65898616a1b9e4f6de445",
      "networkId": 0,
      "chainId": 0
    }
  ]
}