{
  "hash": "0x5bc971a5b1d3117c4ace150dcd3109a966138cd3d3d3c42a5b12ef6d237edc79",
  "parentHash": "0xc0be359a0d2f8a22678dc69934577f97fb41cadc09ec6e94c37494550de9624d",
  "number": 81866,
  "timestamp": 1439509229,
  "nonce": "0xe939cbc6e7eee91d",
  "difficulty": 2414041453362,
  "gasLimit": {
    "_hex": "0x2fefd8"
  },
  "gasUsed": {
    "_hex": "0x5208"
  },
  "miner": "0x52Dc504a422f0E2A9e7632A34a50f1a82F8224c7",
  "extraData": "0x476574682f76312e302e312f6c696e75782f676f312e342e32",
  "transactions": [
    {
      "hash": "0x2560ba3c1d9f96aa8ac1715e0791becdc5852e2d688c208c7e59d808420d40ea",
      "blockHash": "0x5bc971a5b1d3117c4ace150dcd3109a966138cd3d3d3c42a5b12ef6d237edc79",
      "blockNumber": 81866,
      "transactionIndex": 0,
      "confirmations": null,
      "from": "0x120A270bbC009644e35F0bB6ab13f95b8199c4ad",
      "gasPrice": {
        "_hex": "0xce38933e7"
      },
      "gasLimit": {
        "_hex": "0x3d090"
      },
      "to": "0xb7b6e8868e3DfCD6C7EC726C4fda236266841c8C",
      "value": {
        "_hex": "0x16e9419cc5f7000"
      },
      "nonce": 394,
      "data": "0x",
      "r": "0xb68b015b282431a4c4c7e2d3efa695abaed932e483ce0ac264f7be67ac8c805f",
      "s": "0x09e34c7c0614dd6c9381ee74e5dde46879e121bbda326bef9c8e9e3d831fe1f1",
      "v": 27,
      "creates": null,
      "raw": "0xf86f82018a850ce38933e78303d09094b7b6e8868e3dfcd6c7ec726c4fda236266841c8c88016e9419cc5f7000801ba0b68b015b282431a4c4c7e2d3efa695abaed932e483ce0ac264f7be67ac8c805fa009e34c7c0614dd6c9381ee74e5dde46879e121bbda326bef9c8e9e3d831fe1f1",
      "networkId": 0,
      "chainId": 0
    }
  ]
}