{
  "hash": "0xef67d472d402455185087ef72eb9fdb0958f73281f8aecd88d1c2197a2b13229",
  "parentHash": "0x1d8520a5c3d48e6ef44cef22bb48d5db7572bb5b459326883ff2f8fd22b88549",
  "number": 86381,
  "timestamp": 1439577374,
  "nonce": "0x5236f82416837302",
  "difficulty": 2877821573312,
  "gasLimit": {
    "_hex": "0x2fefd8"
  },
  "gasUsed": {
    "_hex": "0x546c"
  },
  "miner": "0xA21Ba94e45f0E168dA824fC67aC9cb5Cb577a8aF",
  "extraData": "0x",
  "transactions": [
    {
      "hash": "0x04b5f4de0b9850562b67246a0c535f6799ac0db9d6711dbbba1736a3788837ae",
      "blockHash": "0xef67d472d402455185087ef72eb9fdb0958f73281f8aecd88d1c2197a2b13229",
      "blockNumber": 86381,
      "transactionIndex": 0,
      "confirmations": null,
      "from": "0x090cebef292c3EB081a05fd8aAF7d39bf07B89d4",
      "gasPrice": {
        "_hex": "0x110c8f7d8de"
      },
      "gasLimit": {
        "_hex": "0xc350"
      },
      "to": "0x2910543Af39abA0Cd09dBb2D50200b3E800A63D2",
      "value": {
        "_hex": "0x8ac7230489e80000"
      },
      "nonce": 1,
      "data": "0x454e4b524439563547",
      "r": "0xcc7fc5e7b0fa04325872f74acd046dba547f36b80cba0201c3978b005e813214",
      "s": "0x7cd35bb596006bf8e9f42841a4196d385f631778987d75b3aacb1f1815387f96",
      "v": 27,
      "creates": null,
      "raw": "0xf87601860110c8f7d8de82c350942910543af39aba0cd09dbb2d50200b3e800a63d2888ac7230489e8000089454e4b5244395635471ba0cc7fc5e7b0fa04325872f74acd046dba547f36b80cba0201c3978b005e813214a07cd35bb596006bf8e9f42841a4196d385f631778987d75b3aacb1f1815387f96",
      "networkId": 0,
      "chainId": 0
    }
  ]
}