{
  "hash": "0xa5994d4560f5912867bc158abad168aed3ae5d40fc41a4017b2153b14e5e6a75",
  "parentHash": "0xf4a2ccc5bf7a0bf8efe09f9b302094a134cdef696115dfcc019757b69bd36f35",
  "number": 80662,
  "timestamp": 1439488833,
  "nonce": "0xab56d3007d5d2f64",
  "difficulty": 2430949108277,
  "gasLimit": {
    "_hex": "0x2fefd8"
  },
  "gasUsed": {
    "_hex": "0x6ed7"
  },
  "miner": "0xe090Ffdced499691fA9379752a59F8A058c1eE4A",
  "extraData": "0x476574682f76312e302e312f6c696e75782f676f312e342e32",
  "transactions": [
    {
      "hash": "0xce05b164e9fd8b936c6cee7fc517cf34bc756e44a1bd925cb64ab544db9a9e67",
      "blockHash": "0xa5994d4560f5912867bc158abad168aed3ae5d40fc41a4017b2153b14e5e6a75",
      "blockNumber": 80662,
      "transactionIndex": 0,
      "confirmations": null,
      "from": "0x87C5B5874A18B4306DF8a752a6C8cc3E82daFc19",
      "gasPrice": {
        "_hex": "0x10d98d6192b"
      },
      "gasLimit": {
        "_hex": "0x493e0"
      },
      "to": "0xC4c51de1AbF5D60DBd329eC0F999Fd8f021ae9fC",
      "value": {
        "_hex": "0x0"
      },
      "nonce": 277,
      "data": "0xbd66528a6b6b6b0000000000000000000000000000000000000000000000000000000000",
      "r": "0x8a841a8382dc6630b93425308d6c93b1902976e7c59d5355229bbbca5ba6df80",
      "s": "0x5d3a6be599427e5b298601baa5485a5d341f9daf3dfe20ea6406211205240437",
      "v": 28,
      "creates": null,
      "raw": "0xf88c82011586010d98d6192b830493e094c4c51de1abf5d60dbd329ec0f999fd8f021ae9fc80a4bd66528a6b6b6b00000000000000000000000000000000000000000000000000000000001ca08a841a8382dc6630b93425308d6c93b1902976e7c59d5355229bbbca5ba6df80a05d3a6be599427e5b298601baa5485a5d341f9daf3dfe20ea6406211205240437",
      "networkId": 0,
      "chainId": 0
    }
  ]
}