{
  "hash": "0x3eea83aabc3ba3d48429b8775f57c4fd5f7ac01ac80510ae3f1e8ae74296df0f",
  "parentHash": "0x7a4f36a5188af8d618eb15969891dacfa304b7113bb33eed2150a83c8b21f7d3",
  "number": 49164,
  "timestamp": 1438969118,
  "nonce": "0x24a76458d98c9149",
  "difficulty": 1475662273598,
  "gasLimit": {
    "_hex": "0x27ad4"
  },
  "gasUsed": {
    "_hex": "0xa410"
  },
  "miner": "0x3FF679B0823a026F2378E5f5F22A6F127cC85828",
  "extraData": "0x476574682f76312e302e302f6c696e75782f676f312e342e32",
  "transactions": [
    {
      "hash": "0x3558469e1e812bc1c5ad40abe7a4c8dfc8a0b5a1fc59ed01bf3524a7961d02a6",
      "blockHash": "0x3eea83aabc3ba3d48429b8775f57c4fd5f7ac01ac80510ae3f1e8ae74296df0f",
      "blockNumber": 49164,
      "transactionIndex": 0,
      "confirmations": null,
      "from": "0x2f66bFbF2262efcC8d2Bd0444FC5b0696298fF1E",
      "gasPrice": {
        "_hex": "0xcb9d5a9b8"
      },
      "gasLimit": {
        "_hex": "0x15f90"
      },
      "to": "0x32b7C0BDFD488A3c81cCAD7ff2a2fB7A12a5575b",
      "value": {
        "_hex": "0x4563918244f40000"
      },
      "nonce": 1,
      "data": "0x",
      "r": "0x2966f969810d0b727a17e46e0a1f132938543c53d505bae3cd7fa84f905e8c15",
      "s": "0x217cec3510be9a1687ecc873e63ee30a8c59942911bb0bcf003033ed570a4bcb",
      "v": 27,
      "creates": null,
      "raw": "0xf86d01850cb9d5a9b883015f909432b7c0bdfd488a3c81ccad7ff2a2fb7a12a5575b884563918244f40000801ba02966f969810d0b727a17e46e0a1f132938543c53d505bae3cd7fa84f905e8c15a0217cec3510be9a1687ecc873e63ee30a8c59942911bb0bcf003033ed570a4bcb",
      "networkId": 0,
      "chainId": 0
    },
    {
      "hash": "0xc05f92f9d9f1ffdebdef7c75931f8cbe40ad523b4e15799a2688d08f6f1af6d6",
      "blockHash": "0x3eea83aabc3ba3d48429b8775f57c4fd5f7ac01ac80510ae3f1e8ae74296df0f",
      "blockNumber": 49164,
      "transactionIndex": 1,
      "confirmations": null,
      "from": "0x38d2e9154964b41C8d50A7487D391E7eE2c3D3c2",
      "gasPrice": {
        "_hex": "0xdfaf0f307"
      },
      "gasLimit": {
        "_hex": "0x5208"
      },
      "to": "0x0000000000000000000000000000000000000000",
      "value": {
        "_hex": "0x8ac7230489e80000"
      },
      "nonce": 1,
      "data": "0x",
      "r": "0xa088221d5fe802eb0f395277016c5b4aa812270922e90cfced8582c088629f50",
      "s": "0x74a021c19578c073a48c5ae5346cfe61ba0022fa71f8a8e79c08da48376a55bf",
      "v": 28,
      "creates": null,
      "raw": "0xf86c01850dfaf0f307825208940000000000000000000000000000000000000000888ac7230489e80000801ca0a088221d5fe802eb0f395277016c5b4aa812270922e90cfced8582c088629f50a074a021c19578c073a48c5ae5346cfe61ba0022fa71f8a8e79c08da48376a55bf",
      "networkId": 0,
      "chainId": 0
    }
  ]
}