{
  "hash": "0xff6ca9fa8e1f13ccd6b8bab1eebc1d7cd2a16197ed6a526d9cac93d084792ccb",
  "parentHash": "0xc48320eff35bb08c2795effd446ddf6f8c91d9ebf455e36a4ecb2c6dd07c3ec8",
  "number": 90128,
  "timestamp": 1439635022,
  "nonce": "0xbf63c72b502c140a",
  "difficulty": 3315726607877,
  "gasLimit": {
    "_hex": "0x2fefd8"
  },
  "gasUsed": {
    "_hex": "0x5208"
  },
  "miner": "0xe6A7a1d47ff21B6321162AEA7C6CB457D5476Bca",
  "extraData": "0x476574682f76312e302e312d38326566323666362f6c696e75782f676f312e34",
  "transactions": [
    {
      "hash": "0x6f0a3bec6d82f9d641d20ce78d017d2422f0d29f046ee118470b2ec43956ed71",
      "blockHash": "0xff6ca9fa8e1f13ccd6b8bab1eebc1d7cd2a16197ed6a526d9cac93d084792ccb",
      "blockNumber": 90128,
      "transactionIndex": 0,
      "confirmations": null,
      "from": "0x6c341709A69F0D286ff289986ECd928bb3a51B7A",
      "gasPrice": {
        "_hex": "0xba43b7400"
      },
      "gasLimit": {
        "_hex": "0x5265"
      },
      "to": "0x03C35F24417CCdA67f219B253D597C521A393F3C",
      "value": {
        "_hex": "0x7567f52d4fce0000"
      },
      "nonce": 6,
      "data": "0x",
      "r": "0xf874780755094447f5501ea4f9bf6c976938d1c530be51a09956b56bf040204a",
      "s": "0x3b7ebe26ba0c6f2e651f34fcaded42645c0136d54f97fb4633469f258026b7e5",
      "v": 27,
      "creates": null,
      "raw": "0xf86c06850ba43b74008252659403c35f24417ccda67f219b253d597c521a393f3c887567f52d4fce0000801ba0f874780755094447f5501ea4f9bf6c976938d1c530be51a09956b56bf040204aa03b7ebe26ba0c6f2e651f34fcaded42645c0136d54f97fb4633469f258026b7e5",
      "networkId": 0,
      "chainId": 0
    }
  ]
}