{
  "hash": "0x13a4b644cb6e78891fc6941ef6a7605a05e072f4c2d86fe701de4aed1bbf7c70",
  "parentHash": "0xc10eca894c7c9f9f33d724b942115a5c7a33b51601c2bc76076628f51dd26419",
  "number": 93382,
  "timestamp": 1439689352,
  "nonce": "0x6dc9455e968cca38",
  "difficulty": 3507591115258,
  "gasLimit": {
    "_hex": "0x2fefd8"
  },
  "gasUsed": {
    "_hex": "0xa410"
  },
  "miner": "0x2C674A948592B20a4B775E1a3991Db043E6CF0FE",
  "extraData": "0x476574682f76312e302e312d38326566323666362f6c696e75782f676f312e34",
  "transactions": [
    {
      "hash": "0x4d6f2401b95032e190b819b6682fb938f7519a0cf8cda79681a7f6e652f88813",
      "blockHash": "0x13a4b644cb6e78891fc6941ef6a7605a05e072f4c2d86fe701de4aed1bbf7c70",
      "blockNumber": 93382,
      "transactionIndex": 0,
      "confirmations": null,
      "from": "0xa6BDc31c431B8F97848c9D60cbbe9660dc450eB7",
      "gasPrice": {
        "_hex": "0xd5a66db9a"
      },
      "gasLimit": {
        "_hex": "0x5208"
      },
      "to": "0x32Be343B94f860124dC4fEe278FDCBD38C102D88",
      "value": {
        "_hex": "0x34065b881d6ed800"
      },
      "nonce": 105,
      "data": "0x",
      "r": "0x57478f1dd2f6a0fe62f21b60f934a220f5c7fd7d454c6db58bb1fae985f3f989",
      "s": "0x2e3ac5a4585e8b18219f78a728739c87b9931c9b16bc7de930c9bf1230289501",
      "v": 27,
      "creates": null,
      "raw": "0xf86c69850d5a66db9a8252089432be343b94f860124dc4fee278fdcbd38c102d888834065b881d6ed800801ba057478f1dd2f6a0fe62f21b60f934a220f5c7fd7d454c6db58bb1fae985f3f989a02e3ac5a4585e8b18219f78a728739c87b9931c9b16bc7de930c9bf1230289501",
      "networkId": 0,
      "chainId": 0
    },
    {
      "hash": "0x583a0da2fb636646f1dc7aeecd10ed5fa3c3d7a0bb7de2978beb940af4653786",
      "blockHash": "0x13a4b644cb6e78891fc6941ef6a7605a05e072f4c2d86fe701de4aed1bbf7c70",
      "blockNumber": 93382,
      "transactionIndex": 1,
      "confirmations": null,
      "from": "0xa70a9a7040d542C632D8e0bE7c5513A8a5Bbc752",
      "gasPrice": {
        "_hex": "0xd5a66db9a"
      },
      "gasLimit": {
        "_hex": "0x5208"
      },
      "to": "0x32Be343B94f860124dC4fEe278FDCBD38C102D88",
      "value": {
        "_hex": "0x8cedf83009fc8800"
      },
      "nonce": 133,
      "data": "0x",
      "r": "0xf9c8972349874cf0f714be3c0a0c69afcc0ddd8b15097af4c335d0dbec457f72",
      "s": "0x7f75ed08da9b220a8ac3d5a55294d8483db87df121d4bd92440954ad0c143e2e",
      "v": 27,
      "creates": null,
      "raw": "0xf86d8185850d5a66db9a8252089432be343b94f860124dc4fee278fdcbd38c102d88888cedf83009fc8800801ba0f9c8972349874cf0f714be3c0a0c69afcc0ddd8b15097af4c335d0dbec457f72a07f75ed08da9b220a8ac3d5a55294d8483db87df121d4bd92440954ad0c143e2e",
      "networkId": 0,
      "chainId": 0
    }
  ]
}