{
  "hash": "0xc520585241ecf5012743de4e51de4bc610191c8e4a9599f68689a1b738fbdc00",
  "parentHash": "0x2037d156965dc4c18fb023b99f32c6d79ce1258c20e5a25eefc1d8b16bfb29b8",
  "number": 97840,
  "timestamp": 1439762789,
  "nonce": "0xe6c2399274156e1f",
  "difficulty": 3831534092644,
  "gasLimit": {
    "_hex": "0x2fefd8"
  },
  "gasUsed": {
    "_hex": "0x5208"
  },
  "miner": "0xe6A7a1d47ff21B6321162AEA7C6CB457D5476Bca",
  "extraData": "0x476574682f76312e302e312d38326566323666362f6c696e75782f676f312e34",
  "transactions": [
    {
      "hash": "0x88a4ed0282670d384f370ed8c711b18b80b131edbc44b8de036503190e39b716",
      "blockHash": "0xc520585241ecf5012743de4e51de4bc610191c8e4a9599f68689a1b738fbdc00",
      "blockNumber": 97840,
      "transactionIndex": 0,
      "confirmations": null,
      "from": "0x120A270bbC009644e35F0bB6ab13f95b8199c4ad",
      "gasPrice": {
        "_hex": "0xdf074252e"
      },
      "gasLimit": {
        "_hex": "0x3d090"
      },
      "to": "0xA5F3c4Dde63C00B799f04cF4Dd600e06735d63B8",
      "value": {
        "_hex": "0xa61e5e8882c7000"
      },
      "nonce": 648,
      "data": "0x",
      "r": "0x8b2e3508b5fa509ca03de7eac2cb1186cbd2ad55024f2e94457699d740941e17",
      "s": "0x2b2b237ea41111c0bbee8e9fe93263fc5efc3408337aa6d38a206ef514c013d3",
      "v": 27,
      "creates": null,
      "raw": "0xf86f820288850df074252e8303d09094a5f3c4dde63c00b799f04cf4dd600e06735d63b8880a61e5e8882c7000801ba08b2e3508b5fa509ca03de7eac2cb1186cbd2ad55024f2e94457699d740941e17a02b2b237ea41111c0bbee8e9fe93263fc5efc3408337aa6d38a206ef514c013d3",
      "networkId": 0,
      "chainId": 0
    }
  ]
}