{
  "hash": "0xe8e41b526a1e77d404cd0164b2e508a491055f67d01884629df24b27574f5b8a",
  "parentHash": "0xd4c9e013e3ab66be1f90cd013f099e530bbacf78ce0e6e0458f9cb772c9a074b",
  "number": 89840,
  "timestamp": 1439629922,
  "nonce": "0x7e7d11450c209f5c",
  "difficulty": 3348380330767,
  "gasLimit": {
    "_hex": "0x2fefd8"
  },
  "gasUsed": {
    "_hex": "0xa410"
  },
  "miner": "0xf927a40C8B7F6E07c5af7FA2155B4864a4112B13",
  "extraData": "0x",
  "transactions": [
    {
      "hash": "0x206b71e3c061880fe502953ad69e62d601b1d15d15f5a18c385fff0705ec9dfa",
      "blockHash": "0xe8e41b526a1e77d404cd0164b2e508a491055f67d01884629df24b27574f5b8a",
      "blockNumber": 89840,
      "transactionIndex": 0,
      "confirmations": null,
      "from": "0xaa71fa80d26F718E6A3c87e41D817b8D10944a63",
      "gasPrice": {
        "_hex": "0xcd1222045"
      },
      "gasLimit": {
        "_hex": "0x5208"
      },
      "to": "0x32Be343B94f860124dC4fEe278FDCBD38C102D88",
      "value": {
        "_hex": "0xca2bc0059ceac000"
      },
      "nonce": 3,
      "data": "0x",
      "r": "0x0083c7ca03b3fade8dbac198766a0fad3191823d4542400e69339b7ba7f5028b",
      "s": "0x5e6e5558c54ac4d2b1bdd29a27540945da65e278c88db6a406921597f801b080",
      "v": 27,
      "creates": null,
      "raw": "0xf86b03850cd12220458252089432be343b94f860124dc4fee278fdcbd38c102d8888ca2bc0059ceac000801b9f83c7ca03b3fade8dbac198766a0fad3191823d4542400e69339b7ba7f5028ba05e6e5558c54ac4d2b1bdd29a27540945da65e278c88db6a406921597f801b080",
      "networkId": 0,
      "chainId": 0
    },
    {
      "hash": "0x978e7f91d7c66133ab102e3351921debad744ac648a65c54313c12344f5fa2ff",
      "blockHash": "0xe8e41b526a1e77d404cd0164b2e508a491055f67d01884629df24b27574f5b8a",
      "blockNumber": 89840,
      "transactionIndex": 1,
      "confirmations": null,
      "from": "0xe70361D11B44B2fBA997417D7AAa26eb69EBfef0",
      "gasPrice": {
        "_hex": "0xcd1222045"
      },
      "gasLimit": {
        "_hex": "0x5208"
      },
      "to": "0x32Be343B94f860124dC4fEe278FDCBD38C102D88",
      "value": {
        "_hex": "0x1faf0f9a891ead000"
      },
      "nonce": 3,
      "data": "0x",
      "r": "0xb61fc0b2c82bd788d316dde054e0f823d90fe33d7f41dcea3251d17dfc403031",
      "s": "0x6f951f15014c8acb13e29ab058c18f7f42712c669699b8b145d8707a951bc490",
      "v": 27,
      "creates": null,
      "raw": "0xf86d03850cd12220458252089432be343b94f860124dc4fee278fdcbd38c102d888901faf0f9a891ead000801ba0b61fc0b2c82bd788d316dde054e0f823d90fe33d7f41dcea3251d17dfc403031a06f951f15014c8acb13e29ab058c18f7f42712c669699b8b145d8707a951bc490",
      "networkId": 0,
      "chainId": 0
    }
  ]
}