{
  "hash": "0x5244b86e264ced8a075172e549e97cbeafaf899cd74e54f9d80414b8721cfb8b",
  "parentHash": "0xdcbecb3d5daaa64b4297dcdd9d4351f6f0961d52f54a90ff2bc2b4921600c200",
  "number": 111198,
  "timestamp": 1439986361,
  "nonce": "0xac4718e68e199e29",
  "difficulty": 4398754004692,
  "gasLimit": {
    "_hex": "0x2fefd8"
  },
  "gasUsed": {
    "_hex": "0x5208"
  },
  "miner": "0xe6A7a1d47ff21B6321162AEA7C6CB457D5476Bca",
  "extraData": "0x476574682f76312e302e312d38326566323666362f6c696e75782f676f312e34",
  "transactions": [
    {
      "hash": "0xf448a95a235cbcfee88487378d2b027ce4ae30088bfc183c80162361a382d0e2",
      "blockHash": "0x5244b86e264ced8a075172e549e97cbeafaf899cd74e54f9d80414b8721cfb8b",
      "blockNumber": 111198,
      "transactionIndex": 0,
      "confirmations": null,
      "from": "0xA542d5046D885E5fC7Dc4006ADb648C5710Ff0ED",
      "gasPrice": {
        "_hex": "0x746a528800"
      },
      "gasLimit": {
        "_hex": "0x5b04"
      },
      "to": "0xE3a44b84A68C84F674E1e8c17445742DE48D9501",
      "value": {
        "_hex": "0x6edea12c26988000"
      },
      "nonce": 5,
      "data": "0x",
      "r": "0xeb24356d14569d71bdbccb5993574ac243880c10ead077714fa457c02f012ae0",
      "s": "0x3a7e29137092daae9a712950e8d2330b5e51bf7da8b69d24f811af5983e037f4",
      "v": 27,
      "creates": null,
      "raw": "0xf86c0585746a528800825b0494e3a44b84a68c84f674e1e8c17445742de48d9501886edea12c26988000801ba0eb24356d14569d71bdbccb5993574ac243880c10ead077714fa457c02f012ae0a03a7e29137092daae9a712950e8d2330b5e51bf7da8b69d24f811af5983e037f4",
      "networkId": 0,
      "chainId": 0
    }
  ]
}