{
  "hash": "0x8372ee6e943825033879bf498aa2bfc91119f8ffc174bb300d07572da86568b3",
  "parentHash": "0x359a341f00e779c07b3c848455ddd45777c14d4c2a6b21455faeefeed06db07f",
  "number": 68564,
  "timestamp": 1439290106,
  "nonce": "0x8cc0aa8eaec03407",
  "difficulty": 2010367798558,
  "gasLimit": {
    "_hex": "0x2fefd8"
  },
  "gasUsed": {
    "_hex": "0x4ce78"
  },
  "miner": "0x580992B51e3925e23280EfB93d3047C82f17E038",
  "extraData": "0x476574682f76312e302e312f6c696e75782f676f312e342e32",
  "transactions": [
    {
      "hash": "0x3da0e8753437b25e9c35e04f354e6936ba4859c54df66364d59849c6b5452ea0",
      "blockHash": "0x8372ee6e943825033879bf498aa2bfc91119f8ffc174bb300d07572da86568b3",
      "blockNumber": 68564,
      "transactionIndex": 0,
      "confirmations": null,
      "from": "0xC1495EDb9fb916DC3Cfa9d964789e52aF50DE93c",
      "gasPrice": {
        "_hex": "0xba43b7400"
      },
      "gasLimit": {
        "_hex": "0x5208"
      },
      "to": "0x9A863D99DB6a3A252E3e16D01273f874C23f8548",
      "value": {
        "_hex": "0x937bda828f9000"
      },
      "nonce": 1,
      "data": "0x",
      "r": "0xc16405bd1aca27c25956d77898b285c2f7dea2dfd98c0d55d3dc67b9d734677a",
      "s": "0x00429e509888af8f04211b39b7bcba485863b70904bbb6c8e7cd69e48cc40f40",
      "v": 27,
      "creates": null,
      "raw": "0xf86a01850ba43b7400825208949a863d99db6a3a252e3e16d01273f874c23f854887937bda828f9000801ba0c16405bd1aca27c25956d77898b285c2f7dea2dfd98c0d55d3dc67b9d734677a9f429e509888af8f04211b39b7bcba485863b70904bbb6c8e7cd69e48cc40f40",
      "networkId": 0,
      "chainId": 0
    },
    {
      "hash": "0xb2f1c1fdde20856ca40d05af44d83d4ad63a0040e76db0d5f58743471c8b7a24",
      "blockHash": "0x8372ee6e943825033879bf498aa2bfc91119f8ffc174bb300d07572da86568b3",
      "blockNumber": 68564,
      "transactionIndex": 1,
      "confirmations": null,
      "from": "0xbDf5FD55744C3886D7bDd1801BA8e5B791102DCb",
      "gasPrice": {
        "_hex": "0xba43b7400"
      },
      "gasLimit": {
        "_hex": "0x5208"
      },
      "to": "0xb7CFd02Fd59D228C1ACA50689EAffa50AAF1384c",
      "value": {
        "_hex": "0x937bda828f9000"
      },
      "nonce": 1,
      "data": "0x",
      "r": "0xcd7940523a5defac1d911c86c9bfceb32e255f395ba83919155eb11f0e936df4",
      "s": "0x2ff05d5b19509e14e68ecd2edfe530eb375be4ae8a6da11b229c3f06676f4533",
      "v": 28,
      "creates": null,
      "raw": "0xf86b01850ba43b740082520894b7cfd02fd59d228c1aca50689eaffa50aaf1384c87937bda828f9000801ca0cd7940523a5defac1d911c86c9bfceb32e255f395ba83919155eb11f0e936df4a02ff05d5b19509e14e68ecd2edfe530eb375be4ae8a6da11b229c3f06676f4533",
      "networkId": 0,
      "chainId": 0
    },
    {
      "hash": "0x64ddcda6aafa0ed9b656fd2e785b3ac625605314a90903d6406bd3522b3b4f77",
      "blockHash": "0x8372ee6e943825033879bf498aa2bfc91119f8ffc174bb300d07572da86568b3",
      "blockNumber": 68564,
      "transactionIndex": 2,
      "confirmations": null,
      "from": "0xf1ac916F565B58d58B67477144e1496DA31cAaf6",
      "gasPrice": {
        "_hex": "0xba43b7400"
      },
      "gasLimit": {
        "_hex": "0x5208"
      },
      "to": "0x83f38C1c24748c571c8D1dE965504D01412a4a82",
      "value": {
        "_hex": "0x937bda828f9000"
      },
      "nonce": 1,
      "data": "0x",
      "r": "0xcd699d1b0569f7a47c1296c5c791f8f418da7362b562be907e1329642aade476",
      "s": "0x515be70f5a7ab7f87d607015430236d5ee70742d2a736580f0c763c0ad071109",
      "v": 28,
      "creates": null,
      "raw": "0xf86b01850ba43b74008252089483f38c1c24748c571c8d1de965504d01412a4a8287937bda828f9000801ca0cd699d1b0569f7a47c1296c5c791f8f418da7362b562be907e1329642aade476a0515be70f5a7ab7f87d607015430236d5ee70742d2a736580f0c763c0ad071109",
      "networkId": 0,
      "chainId": 0
    },
    {
      "hash": "0x84966e8bc6862d61777334e4041ef87ad1c0a165685257dfe09c18924bcffe04",
      "blockHash": "0x8372ee6e943825033879bf498aa2bfc91119f8ffc174bb300d07572da86568b3",
      "blockNumber": 68564,
      "transactionIndex": 3,
      "confirmations": null,
      "from": "0x585039e6dBf87c59C63a33050e939A4dC6ac6b30",
      "gasPrice": {
        "_hex": "0xba43b7400"
      },
      "gasLimit": {
        "_hex": "0x5208"
      },
      "to": "0x4fA363bFA647527426D6408728635B116cEADCC8",
      "value": {
        "_hex": "0x937bda828f9000"
      },
      "nonce": 1,
      "data": "0x",
      "r": "0xe3d3cd057d7a6641b606ad7d6f8ca1d3df9aff78904964cb73b781631a5eb6b4",
      "s": "0x0f5df9a9b3265051ac45f2d363b7e8077ad6d0692070618c7ccb4da360d2d198",
      "v": 27,
      "creates": null,
      "raw": "0xf86b01850ba43b7400825208944fa363bfa647527426d6408728635b116ceadcc887937bda828f9000801ba0e3d3cd057d7a6641b606ad7d6f8ca1d3df9aff78904964cb73b781631a5eb6b4a00f5df9a9b3265051ac45f2d363b7e8077ad6d0692070618c7ccb4da360d2d198",
      "networkId": 0,
      "chainId": 0
    },
    {
      "hash": "0x118c199004024726ae9a5a15eb07464410d89658b000f54a1bd11afa3b1978ca",
      "blockHash": "0x8372ee6e943825033879bf498aa2bfc91119f8ffc174bb300d07572da86568b3",
      "blockNumber": 68564,
      "transactionIndex": 4,
      "confirmations": null,
      "from": "0x2595B7D0df4E9b7850a4b25fBB773A684eB28E14",
      "gasPrice": {
        "_hex": "0xba43b7400"
      },
      "gasLimit": {
        "_hex": "0x5208"
      },
      "to": "0x75AEF2aaa36c9c2B8e97A48c49A89cd673d156ad",
      "value": {
        "_hex": "0x937bda828f9000"
      },
      "nonce": 1,
      "data": "0x",
      "r": "0x65c55d20d1b54229fae19e9e57b7e3fa1df75a18bb7e576099c60b67c3ce3467",
      "s": "0x710bf94ca4f5a16821d5d671509fb665420c90c4fc29be14dff5131e9e544556",
      "v": 27,
      "creates": null,
      "raw": "0xf86b01850ba43b74008252089475aef2aaa36c9c2b8e97a48c49a89cd673d156ad87937bda828f9000801ba065c55d20d1b54229fae19e9e57b7e3fa1df75a18bb7e576099c60b67c3ce3467a0710bf94ca4f5a16821d5d671509fb665420c90c4fc29be14dff5131e9e544556",
      "networkId": 0,
      "chainId": 0
    },
    {
      "hash": "0x0fe6d242dd9ce07e30e8f381db3c34b44b812740cc3094f946127db2df2f4e2a",
      "blockHash": "0x8372ee6e943825033879bf498aa2bfc91119f8ffc174bb300d07572da86568b3",
      "blockNumber": 68564,
      "transactionIndex": 5,
      "confirmations": null,
      "from": "0x5A882995b927DEC0d85DD0233D3A8fc4591B7FC8",
      "gasPrice": {
        "_hex": "0xba43b7400"
      },
      "gasLimit": {
        "_hex": "0x5208"
      },
      "to": "0xefd0F53b95c807257cA06071afF590E4251F5bbB",
      "value": {
        "_hex": "0x937bda828f9000"
      },
      "nonce": 1,
      "data": "0x",
      "r": "0x2a5b1e82acd8dfd82cdead0981f7a1c1e529262fb47bb9421f2d73e6d45f779f",
      "s": "0x063b37645846e3e2240809a1f0786b03c6e33cf4601254067a823b08fbde72cd",
      "v": 27,
      "creates": null,
      "raw": "0xf86b01850ba43b740082520894efd0f53b95c807257ca06071aff590e4251f5bbb87937bda828f9000801ba02a5b1e82acd8dfd82cdead0981f7a1c1e529262fb47bb9421f2d73e6d45f779fa0063b37645846e3e2240809a1f0786b03c6e33cf4601254067a823b08fbde72cd",
      "networkId": 0,
      "chainId": 0
    },
    {
      "hash": "0xfef1706ac4d200d2c4fe6902d0e0f86d4a6c92aafc300383a00b16af6f95e984",
      "blockHash": "0x8372ee6e943825033879bf498aa2bfc91119f8ffc174bb300d07572da86568b3",
      "blockNumber": 68564,
      "transactionIndex": 6,
      "confirmations": null,
      "from": "0x93D9e21bC7156361Ea8FBB0104435B736BDBC49A",
      "gasPrice": {
        "_hex": "0xba43b7400"
      },
      "gasLimit": {
        "_hex": "0x5208"
      },
      "to": "0x340247D6E80bD3b14Bf8A8Bc63C864cbA4df26cd",
      "value": {
        "_hex": "0x937bda828f9000"
      },
      "nonce": 1,
      "data": "0x",
      "r": "0x767b5699d919b7066b81d5b346e33a9479f25cf50c25da612c48c7e0e0a39776",
      "s": "0x4b18a21ecbac8aac48e864fe113a67f8f171f1ab780417c12524f2848b51b361",
      "v": 28,
      "creates": null,
      "raw": "0xf86b01850ba43b740082520894340247d6e80bd3b14bf8a8bc63c864cba4df26cd87937bda828f9000801ca0767b5699d919b7066b81d5b346e33a9479f25cf50c25da612c48c7e0e0a39776a04b18a21ecbac8aac48e864fe113a67f8f171f1ab780417c12524f2848b51b361",
      "networkId": 0,
      "chainId": 0
    },
    {
      "hash": "0xa146dd29f886b5ab500b6f08ebd83fb1469ab7425b0239a39dace899dc614aa5",
      "blockHash": "0x8372ee6e943825033879bf498aa2bfc91119f8ffc174bb300d07572da86568b3",
      "blockNumber": 68564,
      "transactionIndex": 7,
      "confirmations": null,
      "from": "0x4af01b1640B5494c4fb0B283b71698De0e1d4228",
      "gasPrice": {
        "_hex": "0xba43b7400"
      },
      "gasLimit": {
        "_hex": "0x5208"
      },
      "to": "0x101543e0791be1b31Ce58683a59ea1Fb91054AF7",
      "value": {
        "_hex": "0x937bda828f9000"
      },
      "nonce": 1,
      "data": "0x",
      "r": "0x565e57df953ff4810d0cedfc5dbca7f9a00cd551946b1dde3d46a85b4f5bdb0d",
      "s": "0x212b6b1509ed72bdf35687ecbe051017cd159f90c3fb00c22c6dabf193d41d03",
      "v": 28,
      "creates": null,
      "raw": "0xf86b01850ba43b740082520894101543e0791be1b31ce58683a59ea1fb91054af787937bda828f9000801ca0565e57df953ff4810d0cedfc5dbca7f9a00cd551946b1dde3d46a85b4f5bdb0da0212b6b1509ed72bdf35687ecbe051017cd159f90c3fb00c22c6dabf193d41d03",
      "networkId": 0,
      "chainId": 0
    },
    {
      "hash": "0xae1a21ea926e0fac0d9d94997da6000f823e4bbfbd1657257a5323617669463e",
      "blockHash": "0x8372ee6e943825033879bf498aa2bfc91119f8ffc174bb300d07572da86568b3",
      "blockNumber": 68564,
      "transactionIndex": 8,
      "confirmations": null,
      "from": "0xFfb0220e3F2ef137a6B34196c8FB7488636183a2",
      "gasPrice": {
        "_hex": "0xba43b7400"
      },
      "gasLimit": {
        "_hex": "0x5208"
      },
      "to": "0x043B49D2D396c76fdF30C7CAaa41b3F1fff0E706",
      "value": {
        "_hex": "0x937bda828f9000"
      },
      "nonce": 1,
      "data": "0x",
      "r": "0x0d8a7b4ca25b99c14bcc411717c6ac9f541a27064161d5e1fa76efa8cc3044ce",
      "s": "0x2f127997f6fe7d7db6c5a0972076ec77ad00d50bf4f049d7459364510644e299",
      "v": 27,
      "creates": null,
      "raw": "0xf86b01850ba43b740082520894043b49d2d396c76fdf30c7caaa41b3f1fff0e70687937bda828f9000801ba00d8a7b4ca25b99c14bcc411717c6ac9f541a27064161d5e1fa76efa8cc3044cea02f127997f6fe7d7db6c5a0972076ec77ad00d50bf4f049d7459364510644e299",
      "networkId": 0,
      "chainId": 0
    },
    {
      "hash": "0xbb1cd845c93be479d88d04accc8aceedf2c3e8a7db436a9b866e8555df07dd9f",
      "blockHash": "0x8372ee6e943825033879bf498aa2bfc91119f8ffc174bb300d07572da86568b3",
      "blockNumber": 68564,
      "transactionIndex": 9,
      "confirmations": null,
      "from": "0x48D61d7c5b9ED0767e530cbfe3960E4A0d112269",
      "gasPrice": {
        "_hex": "0xba43b7400"
      },
      "gasLimit": {
        "_hex": "0x5208"
      },
      "to": "0x3cC0FbfB7DBC88C9362f6cAfc49bDa77a583996a",
      "value": {
        "_hex": "0x937bda828f9000"
      },
      "nonce": 1,
      "data": "0x",
      "r": "0x5562c1c524a4a9fe26fec03781590540c4b3b54deddf20da37f76adf8814b499",
      "s": "0x4c664624bea021caaf81114170cc55c457de927c33aa2e1e882dca696611ff87",
      "v": 27,
      "creates": null,
      "raw": "0xf86b01850ba43b7400825208943cc0fbfb7dbc88c9362f6cafc49bda77a583996a87937bda828f9000801ba05562c1c524a4a9fe26fec03781590540c4b3b54deddf20da37f76adf8814b499a04c664624bea021caaf81114170cc55c457de927c33aa2e1e882dca696611ff87",
      "networkId": 0,
      "chainId": 0
    },
    {
      "hash": "0x613e612edbfbdbb77ac3d30044f6ea0b38074af9cecf201d2b325d0627df2cfb",
      "blockHash": "0x8372ee6e943825033879bf498aa2bfc91119f8ffc174bb300d07572da86568b3",
      "blockNumber": 68564,
      "transactionIndex": 10,
      "confirmations": null,
      "from": "0x3A96D476c6F64a6Ed641C577FD1E1A9dE97EF0A4",
      "gasPrice": {
        "_hex": "0xba43b7400"
      },
      "gasLimit": {
        "_hex": "0x5208"
      },
      "to": "0x63C2158D62429ee93D343be37B44efFDd896DbeB",
      "value": {
        "_hex": "0x937bda828f9000"
      },
      "nonce": 1,
      "data": "0x",
      "r": "0xfbfb6717434bb0c028f9a94e6a3ff6d0afd9d03b845d03be20ae250ecf371b83",
      "s": "0x4dad554271382a311c2698e2f401bcb9781e2f5f8265767b8342c4dac1db17a5",
      "v": 27,
      "creates": null,
      "raw": "0xf86b01850ba43b74008252089463c2158d62429ee93d343be37b44effdd896dbeb87937bda828f9000801ba0fbfb6717434bb0c028f9a94e6a3ff6d0afd9d03b845d03be20ae250ecf371b83a04dad554271382a311c2698e2f401bcb9781e2f5f8265767b8342c4dac1db17a5",
      "networkId": 0,
      "chainId": 0
    },
    {
      "hash": "0x9736c3c625969eadcdcf104c3844a4c715e3dd57152f4079c99571ef0eb63ca1",
      "blockHash": "0x8372ee6e943825033879bf498aa2bfc91119f8ffc174bb300d07572da86568b3",
      "blockNumber": 68564,
      "transactionIndex": 11,
      "confirmations": null,
      "from": "0xa229CcFC90535F38957Da1311dc4793f0Bfd02aA",
      "gasPrice": {
        "_hex": "0xba43b7400"
      },
      "gasLimit": {
        "_hex": "0x5208"
      },
      "to": "0x046A624ac65bfd90b084564EAf74a48e4A643115",
      "value": {
        "_hex": "0x937bda828f9000"
      },
      "nonce": 1,
      "data": "0x",
      "r": "0x403bc5282d219e233585d9a9e0c1267220d905851232ae0f71f36a0e96cf840a",
      "s": "0x776aaa07f0d4bc091c3bec854522d601f96d536043ccb6dae4b5e07f1e9d7a5c",
      "v": 27,
      "creates": null,
      "raw": "0xf86b01850ba43b740082520894046a624ac65bfd90b084564eaf74a48e4a64311587937bda828f9000801ba0403bc5282d219e233585d9a9e0c1267220d905851232ae0f71f36a0e96cf840aa0776aaa07f0d4bc091c3bec854522d601f96d536043ccb6dae4b5e07f1e9d7a5c",
      "networkId": 0,
      "chainId": 0
    },
    {
      "hash": "0x493dd8836acfb1774521fe0b8741d7414a1da27254e4609f7b6d1bc6dcb93fb5",
      "blockHash": "0x8372ee6e943825033879bf498aa2bfc91119f8ffc174bb300d07572da86568b3",
      "blockNumber": 68564,
      "transactionIndex": 12,
      "confirmations": null,
      "from": "0xAa51Ff0434F653bE1f667b4b21a83C42B19a5E23",
      "gasPrice": {
        "_hex": "0xba43b7400"
      },
      "gasLimit": {
        "_hex": "0x5208"
      },
      "to": "0x58D5d273a376bFEdc5203d4DE6f53fB7676bb134",
      "value": {
        "_hex": "0x937bda828f9000"
      },
      "nonce": 1,
      "data": "0x",
      "r": "0x076eb6c1966a4c1e10f3ebbde703fb79cb48dfdf1b08351568ed8b8b3ef1a560",
      "s": "0x61b1aa28f21ec01353c6a0db882504ce3faa57c92cc27d5428e007bc7abbb672",
      "v": 27,
      "creates": null,
      "raw": "0xf86b01850ba43b74008252089458d5d273a376bfedc5203d4de6f53fb7676bb13487937bda828f9000801ba0076eb6c1966a4c1e10f3ebbde703fb79cb48dfdf1b08351568ed8b8b3ef1a560a061b1aa28f21ec01353c6a0db882504ce3faa57c92cc27d5428e007bc7abbb672",
      "networkId": 0,
      "chainId": 0
    },
    {
      "hash": "0xce459e34d98e6b9d0a5c55f5141ef4ba8fcf6d1c5bcdd98b87a5fd1026d1bcf6",
      "blockHash": "0x8372ee6e943825033879bf498aa2bfc91119f8ffc174bb300d07572da86568b3",
      "blockNumber": 68564,
      "transactionIndex": 13,
      "confirmations": null,
      "from": "0x91D0394642a0a0e2B1a74B42a26CaAbf17E3B80c",
      "gasPrice": {
        "_hex": "0xba43b7400"
      },
      "gasLimit": {
        "_hex": "0x5208"
      },
      "to": "0x050DCB8C66E9d164FE7d53357fdC4B9E806ddB24",
      "value": {
        "_hex": "0x937bda828f9000"
      },
      "nonce": 1,
      "data": "0x",
      "r": "0x8fc6ce87f92322b30315e026131d88b4a65c93aee63a61d5c616433f73200bf2",
      "s": "0x6c12eac35e58203fc4e207efee287cf99de4b9c6eb4edb2265ecd54fc8b40808",
      "v": 27,
      "creates": null,
      "raw": "0xf86b01850ba43b740082520894050dcb8c66e9d164fe7d53357fdc4b9e806ddb2487937bda828f9000801ba08fc6ce87f92322b30315e026131d88b4a65c93aee63a61d5c616433f73200bf2a06c12eac35e58203fc4e207efee287cf99de4b9c6eb4edb2265ecd54fc8b40808",
      "networkId": 0,
      "chainId": 0
    },
    {
      "hash": "0x85646bdaa81b210673e9f5d2092a74e407229baef79b8702dad0809700c2d634",
      "blockHash": "0x8372ee6e943825033879bf498aa2bfc91119f8ffc174bb300d07572da86568b3",
      "blockNumber": 68564,
      "transactionIndex": 14,
      "confirmations": null,
      "from": "0x5A82f9daA20F323d73E3C2e31f1D26a1e5ec789e",
      "gasPrice": {
        "_hex": "0xba43b7400"
      },
      "gasLimit": {
        "_hex": "0x5208"
      },
      "to": "0x029b9c31F72b36722E16Fc1251371d5525fDe25C",
      "value": {
        "_hex": "0x937bda828f9000"
      },
      "nonce": 1,
      "data": "0x",
      "r": "0xdc8ae4d080ef0118a7483fd40417c50b4808abb9643ad2888efd0924a9271ddb",
      "s": "0x6b8f2bef30a1278372e8c5e2bb3ef7803de62cc2484019ffb8e51f19e1cb58fa",
      "v": 28,
      "creates": null,
      "raw": "0xf86b01850ba43b740082520894029b9c31f72b36722e16fc1251371d5525fde25c87937bda828f9000801ca0dc8ae4d080ef0118a7483fd40417c50b4808abb9643ad2888efd0924a9271ddba06b8f2bef30a1278372e8c5e2bb3ef7803de62cc2484019ffb8e51f19e1cb58fa",
      "networkId": 0,
      "chainId": 0
    }
  ]
}