{
  "hash": "0x40cf7fc0d4e67217e97325688b7edc596639fd2aaf0f70f4fd797d19267ba95d",
  "parentHash": "0x6ea9b037cbabbeabca98ba442985f8b01a25343edec82e47406e982edcdc4df7",
  "number": 120099,
  "timestamp": 1440153884,
  "nonce": "0x2c6f0b97868a5fcb",
  "difficulty": 4417753602809,
  "gasLimit": {
    "_hex": "0x2fefd8"
  },
  "gasUsed": {
    "_hex": "0x14820"
  },
  "miner": "0xc15fa6D616245a5c7B7D75A6dFDcA10C0250BD2B",
  "extraData": "0x",
  "transactions": [
    {
      "hash": "0x7a06e6742414f18b03ae8083be2c0f82d928f23b1672c7c00fd878717f73cfcd",
      "blockHash": "0x40cf7fc0d4e67217e97325688b7edc596639fd2aaf0f70f4fd797d19267ba95d",
      "blockNumber": 120099,
      "transactionIndex": 0,
      "confirmations": null,
      "from": "0x48659D8f8C9A2FD44F68daA55d23A608FBE500DC",
      "gasPrice": {
        "_hex": "0xdbb89565b"
      },
      "gasLimit": {
        "_hex": "0x15f90"
      },
      "to": "0xBB33a4b72d92FA335a3b591Ce7eE217f7a7338C1",
      "value": {
        "_hex": "0xd02ab486cedc0000"
      },
      "nonce": 12,
      "data": "0x",
      "r": "0x7a3494316ecaae09a837c6582164251ac74301df7af0f59dc1cf382a2311f1b7",
      "s": "0x70d8d1b72a60272d2e4fd0404aba9f30e67e3a6a6a6b10392b966ecc8ef4a029",
      "v": 27,
      "creates": null,
      "raw": "0xf86d0c850dbb89565b83015f9094bb33a4b72d92fa335a3b591ce7ee217f7a7338c188d02ab486cedc0000801ba07a3494316ecaae09a837c6582164251ac74301df7af0f59dc1cf382a2311f1b7a070d8d1b72a60272d2e4fd0404aba9f30e67e3a6a6a6b10392b966ecc8ef4a029",
      "networkId": 0,
      "chainId": 0
    },
    {
      "hash": "0x1be3b22fb235049ecd1825c716a0df306398047447bbb7fe09a8f34686b06f1b",
      "blockHash": "0x40cf7fc0d4e67217e97325688b7edc596639fd2aaf0f70f4fd797d19267ba95d",
      "blockNumber": 120099,
      "transactionIndex": 1,
      "confirmations": null,
      "from": "0xdeE4977F74E6Aef6D627191c9A45D2627e331150",
      "gasPrice": {
        "_hex": "0xba43b7400"
      },
      "gasLimit": {
        "_hex": "0x5208"
      },
      "to": "0x32Be343B94f860124dC4fEe278FDCBD38C102D88",
      "value": {
        "_hex": "0x15aee1c932bc06000"
      },
      "nonce": 29,
      "data": "0x",
      "r": "0xef643b86928f0aa9a500087ec31a5a788ab664c39dcfc2f180f500f124001dbb",
      "s": "0x31cc61610201e61ab5c87449bd0968beea71d73ee22658b7687d997b37cb1080",
      "v": 27,
      "creates": null,
      "raw": "0xf86d1d850ba43b74008252089432be343b94f860124dc4fee278fdcbd38c102d8889015aee1c932bc06000801ba0ef643b86928f0aa9a500087ec31a5a788ab664c39dcfc2f180f500f124001dbba031cc61610201e61ab5c87449bd0968beea71d73ee22658b7687d997b37cb1080",
      "networkId": 0,
      "chainId": 0
    },
    {
      "hash": "0xf6cdfce9037c041392c570e8c43130c4b751f858478bc534ececd6445e3aa900",
      "blockHash": "0x40cf7fc0d4e67217e97325688b7edc596639fd2aaf0f70f4fd797d19267ba95d",
      "blockNumber": 120099,
      "transactionIndex": 2,
      "confirmations": null,
      "from": "0x3668a45E28EDD089fcBe31209de076cef5F06501",
      "gasPrice": {
        "_hex": "0xba43b7400"
      },
      "gasLimit": {
        "_hex": "0x5208"
      },
      "to": "0x32Be343B94f860124dC4fEe278FDCBD38C102D88",
      "value": {
        "_hex": "0x208696b69eed7c0000"
      },
      "nonce": 3,
      "data": "0x",
      "r": "0xe6b862fc2bc625606fce7429f9823e3325c3b9b5afacc9c4f104be1a0a2dca9b",
      "s": "0x71d1086fc308dd33df935e8ca37b84f6f2d2a267010b4dab34571194d3b9c4bf",
      "v": 27,
      "creates": null,
      "raw": "0xf86d03850ba43b74008252089432be343b94f860124dc4fee278fdcbd38c102d8889208696b69eed7c0000801ba0e6b862fc2bc625606fce7429f9823e3325c3b9b5afacc9c4f104be1a0a2dca9ba071d1086fc308dd33df935e8ca37b84f6f2d2a267010b4dab34571194d3b9c4bf",
      "networkId": 0,
      "chainId": 0
    },
    {
      "hash": "0x0d63b4402c780b19fb1e8c26ae593a139e47c3bf947ece64866bd9a336d1a177",
      "blockHash": "0x40cf7fc0d4e67217e97325688b7edc596639fd2aaf0f70f4fd797d19267ba95d",
      "blockNumber": 120099,
      "transactionIndex": 3,
      "confirmations": null,
      "from": "0x08FE5A3C0709cF74d76cFd0e0Cd9d2A447eA263C",
      "gasPrice": {
        "_hex": "0xba43b7400"
      },
      "gasLimit": {
        "_hex": "0x5208"
      },
      "to": "0x32Be343B94f860124dC4fEe278FDCBD38C102D88",
      "value": {
        "_hex": "0xac58f93a01566000"
      },
      "nonce": 10,
      "data": "0x",
      "r": "0x5c2484ff7401050beec66c456856b77fd1289a3184e1bb75647cf0f5283bc8a0",
      "s": "0x280c86a5211672f227c349f14fd327bf0f2bc5b56024f140928b1415822869d2",
      "v": 27,
      "creates": null,
      "raw": "0xf86c0a850ba43b74008252089432be343b94f860124dc4fee278fdcbd38c102d8888ac58f93a01566000801ba05c2484ff7401050beec66c456856b77fd1289a3184e1bb75647cf0f5283bc8a0a0280c86a5211672f227c349f14fd327bf0f2bc5b56024f140928b1415822869d2",
      "networkId": 0,
      "chainId": 0
    }
  ]
}