{
  "hash": "0x9630796d896b1b9b2dfadb41eacf147ea6113357cf2ba0767374eda7250114af",
  "parentHash": "0x1a66884afe805fffcd2009d41200e52afbabb0a6eed9db3e939835d853ce744b",
  "number": 83230,
  "timestamp": 1439532290,
  "nonce": "0x68c55e382f04fbfb",
  "difficulty": 2413648958534,
  "gasLimit": {
    "_hex": "0x2fefd8"
  },
  "gasUsed": {
    "_hex": "0xa410"
  },
  "miner": "0xf927a40C8B7F6E07c5af7FA2155B4864a4112B13",
  "extraData": "0x",
  "transactions": [
    {
      "hash": "0x5a10a54f41c1012edc67f347e8e7f8e926a00c46454f8ea03cb7543eed1ac9b8",
      "blockHash": "0x9630796d896b1b9b2dfadb41eacf147ea6113357cf2ba0767374eda7250114af",
      "blockNumber": 83230,
      "transactionIndex": 0,
      "confirmations": null,
      "from": "0x82226e5858223d7aac5A9b3193c8c1fd4Bb4E1F3",
      "gasPrice": {
        "_hex": "0xda1737644"
      },
      "gasLimit": {
        "_hex": "0x5208"
      },
      "to": "0x32Be343B94f860124dC4fEe278FDCBD38C102D88",
      "value": {
        "_hex": "0x8ac6dd2244c2a8000"
      },
      "nonce": 2,
      "data": "0x",
      "r": "0x91caa60a61573f731cee8558b7bf3b84ad7744d485a12e021be9a7498f27fe98",
      "s": "0x3fda097008029b1f836358a594494afc0bca43e82a5a29fcbc8dd242f78df068",
      "v": 27,
      "creates": null,
      "raw": "0xf86d02850da17376448252089432be343b94f860124dc4fee278fdcbd38c102d888908ac6dd2244c2a8000801ba091caa60a61573f731cee8558b7bf3b84ad7744d485a12e021be9a7498f27fe98a03fda097008029b1f836358a594494afc0bca43e82a5a29fcbc8dd242f78df068",
      "networkId": 0,
      "chainId": 0
    },
    {
      "hash": "0x4714a15714ce833ba078f8d6faa90d950668ec7114a14f6d9d21415004a259e9",
      "blockHash": "0x9630796d896b1b9b2dfadb41eacf147ea6113357cf2ba0767374eda7250114af",
      "blockNumber": 83230,
      "transactionIndex": 1,
      "confirmations": null,
      "from": "0x09D6b0F8DE057aC9116C0f321eA4017444de0801",
      "gasPrice": {
        "_hex": "0xda1737644"
      },
      "gasLimit": {
        "_hex": "0x5208"
      },
      "to": "0x32Be343B94f860124dC4fEe278FDCBD38C102D88",
      "value": {
        "_hex": "0x82194eba68a620000"
      },
      "nonce": 0,
      "data": "0x",
      "r": "0xaa1a3e9396a8d1943f05f9cc404e1803a1d120345f0471457f24f4747839f994",
      "s": "0x4758c9fccc19c22afd275d2408ba41e82ee335d105ec724f4d739e39a3771715",
      "v": 28,
      "creates": null,
      "raw": "0xf86d80850da17376448252089432be343b94f860124dc4fee278fdcbd38c102d8889082194eba68a620000801ca0aa1a3e9396a8d1943f05f9cc404e1803a1d120345f0471457f24f4747839f994a04758c9fccc19c22afd275d2408ba41e82ee335d105ec724f4d739e39a3771715",
      "networkId": 0,
      "chainId": 0
    }
  ]
}