{
  "hash": "0x9c46f494742b2eae398ad6d753de4aa28f3fb52fe1bf8e26e11f8ef0bf1e21e1",
  "parentHash": "0xe55af4460b5cdcb8d24f84492620c4759307a71ceb9a3c0e66fe4fbe2a2f15c0",
  "number": 86107,
  "timestamp": 1439573462,
  "nonce": "0x3b1f622f2c50813c",
  "difficulty": 2811248726454,
  "gasLimit": {
    "_hex": "0x2fefd8"
  },
  "gasUsed": {
    "_hex": "0x546c"
  },
  "miner": "0xf927a40C8B7F6E07c5af7FA2155B4864a4112B13",
  "extraData": "0x",
  "transactions": [
    {
      "hash": "0xf438e8b0f901fc58b0e283fb23aedf6b5fbf655233be23d416e36accbde859e7",
      "blockHash": "0x9c46f494742b2eae398ad6d753de4aa28f3fb52fe1bf8e26e11f8ef0bf1e21e1",
      "blockNumber": 86107,
      "transactionIndex": 0,
      "confirmations": null,
      "from": "0x5338Ef70eaC9DD9af5a0503B5EfAd1039e67E725",
      "gasPrice": {
        "_hex": "0x110c8f7d8de"
      },
      "gasLimit": {
        "_hex": "0xc350"
      },
      "to": "0x2910543Af39abA0Cd09dBb2D50200b3E800A63D2",
      "value": {
        "_hex": "0x3641957c44f9b50000"
      },
      "nonce": 3,
      "data": "0x454e35524850523547",
      "r": "0xbc2cbc1d2da079616e6738e45d8344ed8c5acd27c5d352cb0d5ddae48968fdf9",
      "s": "0x82f585cc874758302a31483929f4d2f4e7387810c076e665dd7171dec4ddc0f2",
      "v": 28,
      "creates": null,
      "raw": "0xf87703860110c8f7d8de82c350942910543af39aba0cd09dbb2d50200b3e800a63d2893641957c44f9b5000089454e355248505235471ca0bc2cbc1d2da079616e6738e45d8344ed8c5acd27c5d352cb0d5ddae48968fdf9a082f585cc874758302a31483929f4d2f4e7387810c076e665dd7171dec4ddc0f2",
      "networkId": 0,
      "chainId": 0
    }
  ]
}