{
  "hash": "0x6047bf50f5ac02624a841399d3b67d91650568c00394394688bd2c214afedb76",
  "parentHash": "0xf985b011075ac38cc970da1dfc0f405c3dea16e0fddd7f794a7ef54f774201dc",
  "number": 54716,
  "timestamp": 1439058773,
  "nonce": "0x4665b219f8579b02",
  "difficulty": 1619625655066,
  "gasLimit": {
    "_hex": "0x2fefd8"
  },
  "gasUsed": {
    "_hex": "0x5208"
  },
  "miner": "0xf927a40C8B7F6E07c5af7FA2155B4864a4112B13",
  "extraData": "0x",
  "transactions": [
    {
      "hash": "0xb40a4516e78ec350a0d7600286f3483e875530401a16a823615603c1dcbaac4d",
      "blockHash": "0x6047bf50f5ac02624a841399d3b67d91650568c00394394688bd2c214afedb76",
      "blockNumber": 54716,
      "transactionIndex": 0,
      "confirmations": null,
      "from": "0x77028E409cC43A3Bd33D21A9Fc53eC606E94910E",
      "gasPrice": {
        "_hex": "0x10a267d7a33"
      },
      "gasLimit": {
        "_hex": "0x15f90"
      },
      "to": "0x7874B74Bc832E6506F11C2a01c7a6269B4b4FF16",
      "value": {
        "_hex": "0x3635c9adc5dea00000"
      },
      "nonce": 3,
      "data": "0x",
      "r": "0x8a23e8967994f9a560e6da325f5e17720a3751332e431dbc9cb763a31c114be5",
      "s": "0x63d7269d9c7126a2c6ecf7504ada2a2d92951efd824b05dd0df2f2ae7421d371",
      "v": 28,
      "creates": null,
      "raw": "0xf86f0386010a267d7a3383015f90947874b74bc832e6506f11c2a01c7a6269b4b4ff16893635c9adc5dea00000801ca08a23e8967994f9a560e6da325f5e17720a3751332e431dbc9cb763a31c114be5a063d7269d9c7126a2c6ecf7504ada2a2d92951efd824b05dd0df2f2ae7421d371",
      "networkId": 0,
      "chainId": 0
    }
  ]
}