{
  "hash": "0x36e0cbc57ec0143027410d3f28f3f6e92bc315b7cf1ec5836d8bdae882ff0c07",
  "parentHash": "0x5d727c9c0332742e2d06435fe092075d261ee860350e98953a4e5caf9d1c7eef",
  "number": 49148,
  "timestamp": 1438968870,
  "nonce": "0x8331be32bdbbc9fe",
  "difficulty": 1475665088201,
  "gasLimit": {
    "_hex": "0x271ef"
  },
  "gasUsed": {
    "_hex": "0x5208"
  },
  "miner": "0x3222BA3F3e79eA0e31467EEE7639B57923558cCD",
  "extraData": "0x476574682f76312e302e302f77696e646f77732f676f312e342e32",
  "transactions": [
    {
      "hash": "0x7372e4d70fcdbe5566f1c78df67f7841aa8751195d8e03495e3b856ce700646b",
      "blockHash": "0x36e0cbc57ec0143027410d3f28f3f6e92bc315b7cf1ec5836d8bdae882ff0c07",
      "blockNumber": 49148,
      "transactionIndex": 0,
      "confirmations": null,
      "from": "0x28921e4e2C9d84F4c0f0C0cEb991f45751a0fe93",
      "gasPrice": {
        "_hex": "0xff95c61ac9"
      },
      "gasLimit": {
        "_hex": "0x15f90"
      },
      "to": "0x6B3686623e6F565f3b676Ce4e24D3e4bBc716DA7",
      "value": {
        "_hex": "0x3e8"
      },
      "nonce": 0,
      "data": "0x",
      "r": "0x199c28e560f2395dc9e02560e2bb61327d7061f80f3737cbbc0eee29dac164fe",
      "s": "0x76ff2ddeb0d98b3d9f73b76fb0a17c66020c487e03b9952ed2156d87dfadb38b",
      "v": 27,
      "creates": null,
      "raw": "0xf8678085ff95c61ac983015f90946b3686623e6f565f3b676ce4e24d3e4bbc716da78203e8801ba0199c28e560f2395dc9e02560e2bb61327d7061f80f3737cbbc0eee29dac164fea076ff2ddeb0d98b3d9f73b76fb0a17c66020c487e03b9952ed2156d87dfadb38b",
      "networkId": 0,
      "chainId": 0
    }
  ]
}