{
  "hash": "0xee15e19cc6afdc8dc1e0980a3e5c58758b34c7b3bc643bdab28da570cc25ceb3",
  "parentHash": "0x1b8588ec06eca612d2c7039235c8fd3224817d57a359bc4327da70dc95d4b1e5",
  "number": 49629,
  "timestamp": 1438976552,
  "nonce": "0x3ea57fd2dd04e731",
  "difficulty": 1480632593905,
  "gasLimit": {
    "_hex": "0x38126"
  },
  "gasUsed": {
    "_hex": "0x5208"
  },
  "miner": "0x0Cb6EEF179Ba9E7036f95bEEB01e250ab85A8c88",
  "extraData": "0x476574682f76312e302e302f77696e646f77732f676f312e342e32",
  "transactions": [
    {
      "hash": "0x0a184951a711205059d07c25e0582aee3484cb3cd2211681c4cbfe6abf936a88",
      "blockHash": "0xee15e19cc6afdc8dc1e0980a3e5c58758b34c7b3bc643bdab28da570cc25ceb3",
      "blockNumber": 49629,
      "transactionIndex": 0,
      "confirmations": null,
      "from": "0x28921e4e2C9d84F4c0f0C0cEb991f45751a0fe93",
      "gasPrice": {
        "_hex": "0x10174da370c"
      },
      "gasLimit": {
        "_hex": "0x15f90"
      },
      "to": "0x6B3686623e6F565f3b676Ce4e24D3e4bBc716DA7",
      "value": {
        "_hex": "0xc7d713b49da0000"
      },
      "nonce": 3,
      "data": "0x",
      "r": "0x905b46b5228d10021fccf7ded76ed7fec5776fd702be6888ad01036eff304661",
      "s": "0x0ee42733fa2978dcf44954d7db9e3823ba4c0743fcaa1f033f2e67f2bb4f8a44",
      "v": 27,
      "creates": null,
      "raw": "0xf86e0386010174da370c83015f90946b3686623e6f565f3b676ce4e24d3e4bbc716da7880c7d713b49da0000801ba0905b46b5228d10021fccf7ded76ed7fec5776fd702be6888ad01036eff304661a00ee42733fa2978dcf44954d7db9e3823ba4c0743fcaa1f033f2e67f2bb4f8a44",
      "networkId": 0,
      "chainId": 0
    }
  ]
}