{
  "hash": "0x6f924c7c7eca36c533234c62ed2ee1a08a064a426a83d479b42b9bf754575369",
  "parentHash": "0xbb5c8426f7baedefefe355db7e29364554cfdf672437fe6deed8337a0d4af889",
  "number": 98244,
  "timestamp": 1439769345,
  "nonce": "0x2c7a19ce37861616",
  "difficulty": 3876512308179,
  "gasLimit": {
    "_hex": "0x2fefd5"
  },
  "gasUsed": {
    "_hex": "0xa410"
  },
  "miner": "0x9746c7e1ef2bd21FF3997fa467593a89cb852BD0",
  "extraData": "0x476574682f76312e302e312f77696e646f77732f676f312e342e32",
  "transactions": [
    {
      "hash": "0xf5d3e5617dc80231f29748676db6ededce96384e186d3e44f68f273b69d803ee",
      "blockHash": "0x6f924c7c7eca36c533234c62ed2ee1a08a064a426a83d479b42b9bf754575369",
      "blockNumber": 98244,
      "transactionIndex": 0,
      "confirmations": null,
      "from": "0xFBb1b73C4f0BDa4f67dcA266ce6Ef42f520fBB98",
      "gasPrice": {
        "_hex": "0xd1d780f2b"
      },
      "gasLimit": {
        "_hex": "0x15f90"
      },
      "to": "0x770d98d31b4353FceEE8560c4CCf803e88C0c4e0",
      "value": {
        "_hex": "0xde0b6b3a7640000"
      },
      "nonce": 76,
      "data": "0x",
      "r": "0xb2fdb55ab74d3098b928a0820cec60286ac5057cd688837d8ae37f6c72c65015",
      "s": "0x16e7b3ef5fb282fd8f3a3bb3c3e75fa0d9dbf8999baec8de0ec9b4ff2c054915",
      "v": 27,
      "creates": null,
      "raw": "0xf86d4c850d1d780f2b83015f9094770d98d31b4353fceee8560c4ccf803e88c0c4e0880de0b6b3a7640000801ba0b2fdb55ab74d3098b928a0820cec60286ac5057cd688837d8ae37f6c72c65015a016e7b3ef5fb282fd8f3a3bb3c3e75fa0d9dbf8999baec8de0ec9b4ff2c054915",
      "networkId": 0,
      "chainId": 0
    },
    {
      "hash": "0x395650c92dd7a1a6898c7fd9ee09c15c9378d8e6e5f5103f1da79e570e7e0f08",
      "blockHash": "0x6f924c7c7eca36c533234c62ed2ee1a08a064a426a83d479b42b9bf754575369",
      "blockNumber": 98244,
      "transactionIndex": 1,
      "confirmations": null,
      "from": "0x120A270bbC009644e35F0bB6ab13f95b8199c4ad",
      "gasPrice": {
        "_hex": "0xcd520831a"
      },
      "gasLimit": {
        "_hex": "0x3d090"
      },
      "to": "0xef39804Fd2836Ef471E13ecFa2B91C42C368cE76",
      "value": {
        "_hex": "0x4563918244f40000"
      },
      "nonce": 654,
      "data": "0x",
      "r": "0xf7c03a6ea05d134356768cd788a913688a0f2e3950c37473d263126daaa8d439",
      "s": "0x23f1c8b4b823c8f479e4ae14a6c7228655564505fafce3f081d9e4ce98e69bf5",
      "v": 27,
      "creates": null,
      "raw": "0xf86f82028e850cd520831a8303d09094ef39804fd2836ef471e13ecfa2b91c42c368ce76884563918244f40000801ba0f7c03a6ea05d134356768cd788a913688a0f2e3950c37473d263126daaa8d439a023f1c8b4b823c8f479e4ae14a6c7228655564505fafce3f081d9e4ce98e69bf5",
      "networkId": 0,
      "chainId": 0
    }
  ]
}