{
  "hash": "0x4ecebdf4b1a5906701a6e49e0403db0eff0e17f82ad0e219cd9699e974f2a198",
  "parentHash": "0xed3bcc795492686115369091f5f728a5bda8a2d889b181707c997e1c4de7f53c",
  "number": 78170,
  "timestamp": 1439449512,
  "nonce": "0x78ddb929c1d03486",
  "difficulty": 2279886589152,
  "gasLimit": {
    "_hex": "0x2fefd8"
  },
  "gasUsed": {
    "_hex": "0x5208"
  },
  "miner": "0xf8E0CA3Ed80bd541b94BEdCf259e8CF2141A9523",
  "extraData": "0x476574682f76312e302e312f77696e646f77732f676f312e342e32",
  "transactions": [
    {
      "hash": "0xf49aaa2fb1b5523c295d9b054efeb7cebd15d246b4f7e36c875b94640351ea56",
      "blockHash": "0x4ecebdf4b1a5906701a6e49e0403db0eff0e17f82ad0e219cd9699e974f2a198",
      "blockNumber": 78170,
      "transactionIndex": 0,
      "confirmations": null,
      "from": "0x32Be343B94f860124dC4fEe278FDCBD38C102D88",
      "gasPrice": {
        "_hex": "0xe08d1e1c9"
      },
      "gasLimit": {
        "_hex": "0x5208"
      },
      "to": "0xdCd8Aa0E6fD68B057C5AC5e362619808A175CE87",
      "value": {
        "_hex": "0x10f0cf064dd59200000"
      },
      "nonce": 387,
      "data": "0x",
      "r": "0x6edad47a6ffd257693edea6de49d45ee965a4ddfe38d16154f7f753c8dbcd23d",
      "s": "0x4eaafa433ca0c1c7e2a514463a009c28e43eb7975e64438a54ce3d5469339ae3",
      "v": 28,
      "creates": null,
      "raw": "0xf870820183850e08d1e1c982520894dcd8aa0e6fd68b057c5ac5e362619808a175ce878a010f0cf064dd59200000801ca06edad47a6ffd257693edea6de49d45ee965a4ddfe38d16154f7f753c8dbcd23da04eaafa433ca0c1c7e2a514463a009c28e43eb7975e64438a54ce3d5469339ae3",
      "networkId": 0,
      "chainId": 0
    }
  ]
}