{
  "hash": "0x274dedd63ee1f9ff8f1b73f891e00354054079ef5fca6faac2756938ddd51eaf",
  "parentHash": "0xe528eceeba940168ee4ff212da002f0ab9cd7098a9f4d5aac021d6ea10796a7d",
  "number": 69001,
  "timestamp": 1439296949,
  "nonce": "0xe32e7ebfbe0ccc44",
  "difficulty": 2036941035343,
  "gasLimit": {
    "_hex": "0x2fdfee"
  },
  "gasUsed": {
    "_hex": "0x57288"
  },
  "miner": "0x88D74a59454F6cF3B51ef6b9136AFb6b9D405A88",
  "extraData": "0x476574682f76312e302e312d38326566323666362f6c696e75782f676f312e34",
  "transactions": [
    {
      "hash": "0xf96f58d7472a4c09a60a79ace152fba3824410e235f88e566fbad8cf18c4725a",
      "blockHash": "0x274dedd63ee1f9ff8f1b73f891e00354054079ef5fca6faac2756938ddd51eaf",
      "blockNumber": 69001,
      "transactionIndex": 0,
      "confirmations": null,
      "from": "0xF1CDf512d207d61f8aA6D29234c5eB17fe0FfB4F",
      "gasPrice": {
        "_hex": "0xba43b7400"
      },
      "gasLimit": {
        "_hex": "0x5208"
      },
      "to": "0x17A8259bCFdFd084E6c29B574dD24bCaaD70d3F5",
      "value": {
        "_hex": "0x163b86e28a38000"
      },
      "nonce": 1,
      "data": "0x",
      "r": "0x0dfdc9b94f84d541127d09e1daa33a2b341ebdde0d19c658e138bc3d7ede1678",
      "s": "0x69e95090a98c9aef385474e11db2d76e4dd3e62b7e441b610f4c2cc8c373aca2",
      "v": 27,
      "creates": null,
      "raw": "0xf86c01850ba43b74008252089417a8259bcfdfd084e6c29b574dd24bcaad70d3f5880163b86e28a38000801ba00dfdc9b94f84d541127d09e1daa33a2b341ebdde0d19c658e138bc3d7ede1678a069e95090a98c9aef385474e11db2d76e4dd3e62b7e441b610f4c2cc8c373aca2",
      "networkId": 0,
      "chainId": 0
    },
    {
      "hash": "0xf21f8a6cee4dce179dfa2f0a8174cbc9b49f9ab6a85abd9bd9f900ff15739415",
      "blockHash": "0x274dedd63ee1f9ff8f1b73f891e00354054079ef5fca6faac2756938ddd51eaf",
      "blockNumber": 69001,
      "transactionIndex": 1,
      "confirmations": null,
      "from": "0x5a961D10b45F3dB145F7d02A58B27E4C43979f39",
      "gasPrice": {
        "_hex": "0xba43b7400"
      },
      "gasLimit": {
        "_hex": "0x5208"
      },
      "to": "0xd4Fba50B5efaeda0E1ee9137d80B24043E45191e",
      "value": {
        "_hex": "0x163b86e28a38000"
      },
      "nonce": 1,
      "data": "0x",
      "r": "0x69fb5c1131c86ecda9414acf39c3c14470c0d83e31210069b115f1608f996dc4",
      "s": "0x7ff1abebf2961fa7fe49f78d89adc9ebd1662e71df515d0ee311ccfaf46f8407",
      "v": 28,
      "creates": null,
      "raw": "0xf86c01850ba43b740082520894d4fba50b5efaeda0e1ee9137d80b24043e45191e880163b86e28a38000801ca069fb5c1131c86ecda9414acf39c3c14470c0d83e31210069b115f1608f996dc4a07ff1abebf2961fa7fe49f78d89adc9ebd1662e71df515d0ee311ccfaf46f8407",
      "networkId": 0,
      "chainId": 0
    },
    {
      "hash": "0xe0dfb468ad2d8a601088e998d8dccfddf3fac3ca19308e80220ee65ffe61c1a4",
      "blockHash": "0x274dedd63ee1f9ff8f1b73f891e00354054079ef5fca6faac2756938ddd51eaf",
      "blockNumber": 69001,
      "transactionIndex": 2,
      "confirmations": null,
      "from": "0x2D694F71fb46d4CceE8F463f9220B3527Ca961ce",
      "gasPrice": {
        "_hex": "0xba43b7400"
      },
      "gasLimit": {
        "_hex": "0x5208"
      },
      "to": "0x2C59c406B8613ae780e9ceA017020CDb5553D0FF",
      "value": {
        "_hex": "0x163b86e28a38000"
      },
      "nonce": 1,
      "data": "0x",
      "r": "0x9f14646031e9608046a5b0fefd0d6c6e7058eef2a726902c7dfd08d303988fec",
      "s": "0x3c58a4dd71d4e21c39f353446b44bdcab4eaaad4d8964ce43f5889a34e18a9c8",
      "v": 28,
      "creates": null,
      "raw": "0xf86c01850ba43b7400825208942c59c406b8613ae780e9cea017020cdb5553d0ff880163b86e28a38000801ca09f14646031e9608046a5b0fefd0d6c6e7058eef2a726902c7dfd08d303988feca03c58a4dd71d4e21c39f353446b44bdcab4eaaad4d8964ce43f5889a34e18a9c8",
      "networkId": 0,
      "chainId": 0
    },
    {
      "hash": "0x93f9094333adde58b66ee9e5cd64efba3736ff25d9a60c3f4c8e4068d28bf729",
      "blockHash": "0x274dedd63ee1f9ff8f1b73f891e00354054079ef5fca6faac2756938ddd51eaf",
      "blockNumber": 69001,
      "transactionIndex": 3,
      "confirmations": null,
      "from": "0x5D5fe3Ed924f010c7e90E9FcBdb2808A1d35Ef6c",
      "gasPrice": {
        "_hex": "0xba43b7400"
      },
      "gasLimit": {
        "_hex": "0x5208"
      },
      "to": "0x6745c89f43c6281DEA84DF5605324F2346Ab8056",
      "value": {
        "_hex": "0x163b86e28a38000"
      },
      "nonce": 1,
      "data": "0x",
      "r": "0x8c5798a172db96ad11375a09931a89aa271d368283110fe043bd411770ed80a9",
      "s": "0x476a8307b5ddc8857de2be1aad1f0eaec73422bb6febb0d445ddae3ca1878ff2",
      "v": 27,
      "creates": null,
      "raw": "0xf86c01850ba43b7400825208946745c89f43c6281dea84df5605324f2346ab8056880163b86e28a38000801ba08c5798a172db96ad11375a09931a89aa271d368283110fe043bd411770ed80a9a0476a8307b5ddc8857de2be1aad1f0eaec73422bb6febb0d445ddae3ca1878ff2",
      "networkId": 0,
      "chainId": 0
    },
    {
      "hash": "0x691850b9388b3ed2dca60b29c66a33e7a0531c8b39b381109d65945468ada779",
      "blockHash": "0x274dedd63ee1f9ff8f1b73f891e00354054079ef5fca6faac2756938ddd51eaf",
      "blockNumber": 69001,
      "transactionIndex": 4,
      "confirmations": null,
      "from": "0x66769D04E8c073Ce9AF1Da7c2c12A328C0dEC898",
      "gasPrice": {
        "_hex": "0xba43b7400"
      },
      "gasLimit": {
        "_hex": "0x5208"
      },
      "to": "0xA06801349A90582742CA419C7b7Fc2C6Ad9E748b",
      "value": {
        "_hex": "0x163b86e28a38000"
      },
      "nonce": 1,
      "data": "0x",
      "r": "0x8dcf01f968351fb133f5bdefb0f874b672aa8a8761f8e9a9d286fe90836a11fe",
      "s": "0x7cc253799285958b9b40d9bb24cea1c148ddc013dcf9a2cfa86d91386e09e11a",
      "v": 28,
      "creates": null,
      "raw": "0xf86c01850ba43b740082520894a06801349a90582742ca419c7b7fc2c6ad9e748b880163b86e28a38000801ca08dcf01f968351fb133f5bdefb0f874b672aa8a8761f8e9a9d286fe90836a11fea07cc253799285958b9b40d9bb24cea1c148ddc013dcf9a2cfa86d91386e09e11a",
      "networkId": 0,
      "chainId": 0
    },
    {
      "hash": "0x6dc44fa00c896dddbd43674da18e6e2d6fb94a529946aa84484a88d5573b48dc",
      "blockHash": "0x274dedd63ee1f9ff8f1b73f891e00354054079ef5fca6faac2756938ddd51eaf",
      "blockNumber": 69001,
      "transactionIndex": 5,
      "confirmations": null,
      "from": "0xf6f0F42e6B7797c28823C8237c7eAf45f9822a28",
      "gasPrice": {
        "_hex": "0xba43b7400"
      },
      "gasLimit": {
        "_hex": "0x5208"
      },
      "to": "0xb7af3D76ca533dd5805943fa727ab7c0062948Af",
      "value": {
        "_hex": "0x163b86e28a38000"
      },
      "nonce": 1,
      "data": "0x",
      "r": "0x17c0867d1ef2847ca52df8cac866154f9af8f92155e40781e319129efcb6cf0c",
      "s": "0x1c816bddb4de51cdd2b8c5f03ec0d9c68295179da7ec662250915ea6df19689f",
      "v": 27,
      "creates": null,
      "raw": "0xf86c01850ba43b740082520894b7af3d76ca533dd5805943fa727ab7c0062948af880163b86e28a38000801ba017c0867d1ef2847ca52df8cac866154f9af8f92155e40781e319129efcb6cf0ca01c816bddb4de51cdd2b8c5f03ec0d9c68295179da7ec662250915ea6df19689f",
      "networkId": 0,
      "chainId": 0
    },
    {
      "hash": "0x3e02971087d2d9ef853744ab8d94348830bd2a7eb478e528147a6214fb5f119a",
      "blockHash": "0x274dedd63ee1f9ff8f1b73f891e00354054079ef5fca6faac2756938ddd51eaf",
      "blockNumber": 69001,
      "transactionIndex": 6,
      "confirmations": null,
      "from": "0x3CD661F1A161a033EcfDC4D1a6e4e0e39F524Ad3",
      "gasPrice": {
        "_hex": "0xba43b7400"
      },
      "gasLimit": {
        "_hex": "0x5208"
      },
      "to": "0xBA2431BBC96D0436622A2bC2c9dA858669e49e06",
      "value": {
        "_hex": "0x163b86e28a38000"
      },
      "nonce": 1,
      "data": "0x",
      "r": "0xe1c9bc7a9805dd65ed5020d1b01d723971a6eab6ef367729a37f6e93c7c859f9",
      "s": "0x6dc432a16519b215ff4a4c8afaa7d01b2c08a94aa439c50a270e2248628d20ad",
      "v": 28,
      "creates": null,
      "raw": "0xf86c01850ba43b740082520894ba2431bbc96d0436622a2bc2c9da858669e49e06880163b86e28a38000801ca0e1c9bc7a9805dd65ed5020d1b01d723971a6eab6ef367729a37f6e93c7c859f9a06dc432a16519b215ff4a4c8afaa7d01b2c08a94aa439c50a270e2248628d20ad",
      "networkId": 0,
      "chainId": 0
    },
    {
      "hash": "0xe8e8147c8c5a6979793df3ef8937f297a3a171caab665d536d59070ac02758df",
      "blockHash": "0x274dedd63ee1f9ff8f1b73f891e00354054079ef5fca6faac2756938ddd51eaf",
      "blockNumber": 69001,
      "transactionIndex": 7,
      "confirmations": null,
      "from": "0x9e6a61d5693cF2ac2ee961D1ddAda50D92AC9e06",
      "gasPrice": {
        "_hex": "0xba43b7400"
      },
      "gasLimit": {
        "_hex": "0x5208"
      },
      "to": "0x8196E0932106E3eAB15A3B71514d47639101dA37",
      "value": {
        "_hex": "0x163b86e28a38000"
      },
      "nonce": 1,
      "data": "0x",
      "r": "0x0db5ddea4e42500e4c5e6c4cf543347492149bd6d85b8fa838e7aef0418f9c86",
      "s": "0x6535e8e2e157ea2fb7902f4af971b386a2441625b07a1a3d5429cab2cb9311c0",
      "v": 27,
      "creates": null,
      "raw": "0xf86c01850ba43b7400825208948196e0932106e3eab15a3b71514d47639101da37880163b86e28a38000801ba00db5ddea4e42500e4c5e6c4cf543347492149bd6d85b8fa838e7aef0418f9c86a06535e8e2e157ea2fb7902f4af971b386a2441625b07a1a3d5429cab2cb9311c0",
      "networkId": 0,
      "chainId": 0
    },
    {
      "hash": "0x660e5933a93ca38c52413d520dfb828f266b147dcabc846fdd22b1b88ff33947",
      "blockHash": "0x274dedd63ee1f9ff8f1b73f891e00354054079ef5fca6faac2756938ddd51eaf",
      "blockNumber": 69001,
      "transactionIndex": 8,
      "confirmations": null,
      "from": "0xd3dA5aBa44a85575c1d2585Ff7394BFFd03e1543",
      "gasPrice": {
        "_hex": "0xba43b7400"
      },
      "gasLimit": {
        "_hex": "0x5208"
      },
      "to": "0xE856a33a56F4E522ae2D9Bc7b4e69f18a6ADd1E1",
      "value": {
        "_hex": "0x163b86e28a38000"
      },
      "nonce": 1,
      "data": "0x",
      "r": "0xf40b00b98bd0924176a6bc45615e5ef5ee9e7d9250e59a441ea2b110764385c9",
      "s": "0x6c5de2dfae87980b63c09430032aae9ed68ebab2c4078d8420daf25308ddc17a",
      "v": 28,
      "creates": null,
      "raw": "0xf86c01850ba43b740082520894e856a33a56f4e522ae2d9bc7b4e69f18a6add1e1880163b86e28a38000801ca0f40b00b98bd0924176a6bc45615e5ef5ee9e7d9250e59a441ea2b110764385c9a06c5de2dfae87980b63c09430032aae9ed68ebab2c4078d8420daf25308ddc17a",
      "networkId": 0,
      "chainId": 0
    },
    {
      "hash": "0xa5b1079e3972f9ba921f9f3d02bc51782c7dbf3ce4cbfda30f2238e6452fe9a5",
      "blockHash": "0x274dedd63ee1f9ff8f1b73f891e00354054079ef5fca6faac2756938ddd51eaf",
      "blockNumber": 69001,
      "transactionIndex": 9,
      "confirmations": null,
      "from": "0x33206327136ef16D5D5D7c6E7773A7BA3932Fcf9",
      "gasPrice": {
        "_hex": "0xba43b7400"
      },
      "gasLimit": {
        "_hex": "0x5208"
      },
      "to": "0xB44cae5c2c8D9883Ba28276f7BA25611f666E27a",
      "value": {
        "_hex": "0x163b86e28a38000"
      },
      "nonce": 1,
      "data": "0x",
      "r": "0xbfe7cbdb2429937b2ec178b6680b8640e87c6e87bd6eb51320fea24cfdb30bb5",
      "s": "0x1d5b12bacca65fb579de2c41219c52b0bd90de050d48417a56dea64da88bb342",
      "v": 27,
      "creates": null,
      "raw": "0xf86c01850ba43b740082520894b44cae5c2c8d9883ba28276f7ba25611f666e27a880163b86e28a38000801ba0bfe7cbdb2429937b2ec178b6680b8640e87c6e87bd6eb51320fea24cfdb30bb5a01d5b12bacca65fb579de2c41219c52b0bd90de050d48417a56dea64da88bb342",
      "networkId": 0,
      "chainId": 0
    },
    {
      "hash": "0x4549d98020a240708486015d665c9b02cf674c89de274cdb4b8290075091cda5",
      "blockHash": "0x274dedd63ee1f9ff8f1b73f891e00354054079ef5fca6faac2756938ddd51eaf",
      "blockNumber": 69001,
      "transactionIndex": 10,
      "confirmations": null,
      "from": "0x6d979CeE527E0157056E2824e86A7b9c030d8779",
      "gasPrice": {
        "_hex": "0xba43b7400"
      },
      "gasLimit": {
        "_hex": "0x5208"
      },
      "to": "0x8bC939be16b82aC187e8dB0Ed5BC674B7E5507FB",
      "value": {
        "_hex": "0x163b86e28a38000"
      },
      "nonce": 1,
      "data": "0x",
      "r": "0x1021f24499f9ef7bb8fbf94bab823e5e1204a041db8d8cf32e7f8d4b73073eb0",
      "s": "0x017501252d0fcec27315db0db49f03abf13db48d3149a64c1ab314f746182acd",
      "v": 28,
      "creates": null,
      "raw": "0xf86c01850ba43b7400825208948bc939be16b82ac187e8db0ed5bc674b7e5507fb880163b86e28a38000801ca01021f24499f9ef7bb8fbf94bab823e5e1204a041db8d8cf32e7f8d4b73073eb0a0017501252d0fcec27315db0db49f03abf13db48d3149a64c1ab314f746182acd",
      "networkId": 0,
      "chainId": 0
    },
    {
      "hash": "0xcaeabf3140f8ca21cebe520def272f65bc91a5f08a2690a180f9940a184e3581",
      "blockHash": "0x274dedd63ee1f9ff8f1b73f891e00354054079ef5fca6faac2756938ddd51eaf",
      "blockNumber": 69001,
      "transactionIndex": 11,
      "confirmations": null,
      "from": "0xc1fb4AB7aCC695753388d2195F1aD6a99397e8b0",
      "gasPrice": {
        "_hex": "0xba43b7400"
      },
      "gasLimit": {
        "_hex": "0x5208"
      },
      "to": "0x919204cbe07899fb7EA65bAFefdBbfebD5a8847d",
      "value": {
        "_hex": "0x163b86e28a38000"
      },
      "nonce": 1,
      "data": "0x",
      "r": "0x539bdb257b05c83428542702b0c26f94e091eed251096225e3c16db3552513f5",
      "s": "0x2d6a337231d5682885331c8d8fec48fa5c24f948ab63e1b81db2609113a33dd8",
      "v": 28,
      "creates": null,
      "raw": "0xf86c01850ba43b740082520894919204cbe07899fb7ea65bafefdbbfebd5a8847d880163b86e28a38000801ca0539bdb257b05c83428542702b0c26f94e091eed251096225e3c16db3552513f5a02d6a337231d5682885331c8d8fec48fa5c24f948ab63e1b81db2609113a33dd8",
      "networkId": 0,
      "chainId": 0
    },
    {
      "hash": "0x59b11764bbd6d419122c0359586bd230b3765452b94dce5f5c3c30dccdc5b42e",
      "blockHash": "0x274dedd63ee1f9ff8f1b73f891e00354054079ef5fca6faac2756938ddd51eaf",
      "blockNumber": 69001,
      "transactionIndex": 12,
      "confirmations": null,
      "from": "0xd0cc662bFDea2689583ec968fc4ab526B1f946a8",
      "gasPrice": {
        "_hex": "0xba43b7400"
      },
      "gasLimit": {
        "_hex": "0x5208"
      },
      "to": "0xDC6596130F2916656a55C252A89c87aF720Fc38a",
      "value": {
        "_hex": "0x163b86e28a38000"
      },
      "nonce": 1,
      "data": "0x",
      "r": "0xfb15c75102bad333e683311aac65bfc9ed59b4ad0ede83b75cae6dd1382f4dea",
      "s": "0x6eb0338b46eda812343c51fde34c85efc28661a1c9263d99c2e25c0e400cd6e1",
      "v": 28,
      "creates": null,
      "raw": "0xf86c01850ba43b740082520894dc6596130f2916656a55c252a89c87af720fc38a880163b86e28a38000801ca0fb15c75102bad333e683311aac65bfc9ed59b4ad0ede83b75cae6dd1382f4deaa06eb0338b46eda812343c51fde34c85efc28661a1c9263d99c2e25c0e400cd6e1",
      "networkId": 0,
      "chainId": 0
    },
    {
      "hash": "0x504f49725292151e7bb0c8f094e2a2493ca66c044c70e1e40157dbd8d73f3bdb",
      "blockHash": "0x274dedd63ee1f9ff8f1b73f891e00354054079ef5fca6faac2756938ddd51eaf",
      "blockNumber": 69001,
      "transactionIndex": 13,
      "confirmations": null,
      "from": "0x934d3bB3Ca92c33CDEC0d490136D38FF8dDF31e2",
      "gasPrice": {
        "_hex": "0xba43b7400"
      },
      "gasLimit": {
        "_hex": "0x5208"
      },
      "to": "0xBb0957aB71420Fd651CD9fe0979496519F51D07b",
      "value": {
        "_hex": "0x163b86e28a38000"
      },
      "nonce": 1,
      "data": "0x",
      "r": "0x42b8135a356bb54bb0cb2aaa6e0927e3dbc615fd069672b8cedd8df7932e106e",
      "s": "0x16cfe5ed337a400ef70573d588617211933990e39bf54eb7693e6c2479f94fee",
      "v": 28,
      "creates": null,
      "raw": "0xf86c01850ba43b740082520894bb0957ab71420fd651cd9fe0979496519f51d07b880163b86e28a38000801ca042b8135a356bb54bb0cb2aaa6e0927e3dbc615fd069672b8cedd8df7932e106ea016cfe5ed337a400ef70573d588617211933990e39bf54eb7693e6c2479f94fee",
      "networkId": 0,
      "chainId": 0
    },
    {
      "hash": "0x4ed9c83ee9d839596a30bcdad2cfeed297fe1dd9ece3abac18054f5c90945be8",
      "blockHash": "0x274dedd63ee1f9ff8f1b73f891e00354054079ef5fca6faac2756938ddd51eaf",
      "blockNumber": 69001,
      "transactionIndex": 14,
      "confirmations": null,
      "from": "0xF57eD42D1684BD96f3C6d6fdEEa1D4285409dF55",
      "gasPrice": {
        "_hex": "0xba43b7400"
      },
      "gasLimit": {
        "_hex": "0x5208"
      },
      "to": "0xAc60064787B321e2CA3fbEBD9e51C7A15193F11d",
      "value": {
        "_hex": "0x163b86e28a38000"
      },
      "nonce": 1,
      "data": "0x",
      "r": "0xad14fb7d8ef3e09199fe9686fbbea6f88c4318bcad22ca8d67cdb61e88de492f",
      "s": "0x7aadda9c03610f070f9c75614205c82db7cc19078ab12f4bdce195ab2e14ed60",
      "v": 28,
      "creates": null,
      "raw": "0xf86c01850ba43b740082520894ac60064787b321e2ca3fbebd9e51c7a15193f11d880163b86e28a38000801ca0ad14fb7d8ef3e09199fe9686fbbea6f88c4318bcad22ca8d67cdb61e88de492fa07aadda9c03610f070f9c75614205c82db7cc19078ab12f4bdce195ab2e14ed60",
      "networkId": 0,
      "chainId": 0
    },
    {
      "hash": "0xbce377a6224d4033ee72c1daa0073fd5c4ce16dac18b8d93439a725c2d7cad37",
      "blockHash": "0x274dedd63ee1f9ff8f1b73f891e00354054079ef5fca6faac2756938ddd51eaf",
      "blockNumber": 69001,
      "transactionIndex": 15,
      "confirmations": null,
      "from": "0xFE09Cf880F86A909399C79b33d889b582757A33c",
      "gasPrice": {
        "_hex": "0xba43b7400"
      },
      "gasLimit": {
        "_hex": "0x5208"
      },
      "to": "0x32bdF46Dd1E04ccb09b148e8365d11802f44E6d9",
      "value": {
        "_hex": "0x163b86e28a38000"
      },
      "nonce": 1,
      "data": "0x",
      "r": "0xbabc2a27cff096e1b32f128c63212ed31a549e947bbddc3be41b9714ce5bd84f",
      "s": "0x1beaa00e3e63edae0fa3206b44e08c7c1d79dc93b672cf8a200e3aa2b2256533",
      "v": 28,
      "creates": null,
      "raw": "0xf86c01850ba43b74008252089432bdf46dd1e04ccb09b148e8365d11802f44e6d9880163b86e28a38000801ca0babc2a27cff096e1b32f128c63212ed31a549e947bbddc3be41b9714ce5bd84fa01beaa00e3e63edae0fa3206b44e08c7c1d79dc93b672cf8a200e3aa2b2256533",
      "networkId": 0,
      "chainId": 0
    },
    {
      "hash": "0xeb66e09b1647cc7daa90132c8ec245c34163425e53e43eb38f9005f18df1bee6",
      "blockHash": "0x274dedd63ee1f9ff8f1b73f891e00354054079ef5fca6faac2756938ddd51eaf",
      "blockNumber": 69001,
      "transactionIndex": 16,
      "confirmations": null,
      "from": "0xd0ea8dADaB8E64017584671562E0c8E1a0d79bCe",
      "gasPrice": {
        "_hex": "0xba43b7400"
      },
      "gasLimit": {
        "_hex": "0x5208"
      },
      "to": "0xfb4b25e3dE99e25D92801DF0f27F0CeEb5Cfb7a1",
      "value": {
        "_hex": "0x163b86e28a38000"
      },
      "nonce": 1,
      "data": "0x",
      "r": "0x80838c86485d20e306e0eb1024fe5f31d55d8a37fb2d8284930f3489beeb90b9",
      "s": "0x14709df45d461964bcb08400b0a85357158bda590a65ad9fbbfd387c3f1f4719",
      "v": 27,
      "creates": null,
      "raw": "0xf86c01850ba43b740082520894fb4b25e3de99e25d92801df0f27f0ceeb5cfb7a1880163b86e28a38000801ba080838c86485d20e306e0eb1024fe5f31d55d8a37fb2d8284930f3489beeb90b9a014709df45d461964bcb08400b0a85357158bda590a65ad9fbbfd387c3f1f4719",
      "networkId": 0,
      "chainId": 0
    }
  ]
}