{
  "hash": "0x429c2027a362f22e6cfa7992d1f82892a7028901de10f70a8d0e56aee5205c3f",
  "parentHash": "0x5e883ead996a4144ccb9f5d762f361cc9e1e89bf09ace74c38539213da4a37e4",
  "number": 87489,
  "timestamp": 1439593100,
  "nonce": "0x57d958ec5d62af75",
  "difficulty": 3135657975714,
  "gasLimit": {
    "_hex": "0x2fefd8"
  },
  "gasUsed": {
    "_hex": "0xe216"
  },
  "miner": "0xa50ec0D39fa913E62f1Bae7074E6F36caA71855b",
  "extraData": "0xd783010001844765746887676f312e342e32856c696e7578",
  "transactions": [
    {
      "hash": "0x8f4b4ffaf8da311373d147f2af09a8fb7f4ec964a8ca39b26efdea145b5b85d8",
      "blockHash": "0x429c2027a362f22e6cfa7992d1f82892a7028901de10f70a8d0e56aee5205c3f",
      "blockNumber": 87489,
      "transactionIndex": 0,
      "confirmations": null,
      "from": "0xFBb1b73C4f0BDa4f67dcA266ce6Ef42f520fBB98",
      "gasPrice": {
        "_hex": "0xd2f0d26d6"
      },
      "gasLimit": {
        "_hex": "0x15f90"
      },
      "to": "0xCAc7000C7dBaa2E33Af15325AF5D435E011C7BdD",
      "value": {
        "_hex": "0x0"
      },
      "nonce": 35,
      "data": "0x3feb1bd84249545452455830300000000000000000000000000000000000000000000000000000000000000000000000f2ae859397af92154241ead0ac7c4ce3bea76e8f000000000000000000000000000000000000000000000000b157b9387fc51000",
      "r": "0x1f9b61daadd8f63cd4581b0acd0af405932db82b2868f5bf9cc8e84578379470",
      "s": "0x22f516020738b9725cf1a8cef979046ec847ce697da92d0bdeeb6d9b6f3bf4c5",
      "v": 27,
      "creates": null,
      "raw": "0xf8ca23850d2f0d26d683015f9094cac7000c7dbaa2e33af15325af5d435e011c7bdd80b8643feb1bd84249545452455830300000000000000000000000000000000000000000000000000000000000000000000000f2ae859397af92154241ead0ac7c4ce3bea76e8f000000000000000000000000000000000000000000000000b157b9387fc510001ba01f9b61daadd8f63cd4581b0acd0af405932db82b2868f5bf9cc8e84578379470a022f516020738b9725cf1a8cef979046ec847ce697da92d0bdeeb6d9b6f3bf4c5",
      "networkId": 0,
      "chainId": 0
    }
  ]
}