{
  "hash": "0x609a1139fa57680bdf27fa32dfab9687e6dd5600d131cc697fe22ff5381dab6e",
  "parentHash": "0x2bf4a919677eba7d3174f3b7bfb84f7aacbba22e7b1d600f3536e187aef47ec9",
  "number": 121765,
  "timestamp": 1440182153,
  "nonce": "0x30b6300b5c5fcefc",
  "difficulty": 4482052855717,
  "gasLimit": {
    "_hex": "0x2fefd8"
  },
  "gasUsed": {
    "_hex": "0x14820"
  },
  "miner": "0xe6A7a1d47ff21B6321162AEA7C6CB457D5476Bca",
  "extraData": "0xd783010002844765746887676f312e342e32856c696e7578",
  "transactions": [
    {
      "hash": "0xd08b1f65327fd6aaa20c36939b5cff450dacbe7ae025f8f246d2d3269511b5ea",
      "blockHash": "0x609a1139fa57680bdf27fa32dfab9687e6dd5600d131cc697fe22ff5381dab6e",
      "blockNumber": 121765,
      "transactionIndex": 0,
      "confirmations": null,
      "from": "0xfa61FFF5ba13ff0DD59B579457F557e0ddeD02dA",
      "gasPrice": {
        "_hex": "0xd19445100"
      },
      "gasLimit": {
        "_hex": "0x5208"
      },
      "to": "0x32Be343B94f860124dC4fEe278FDCBD38C102D88",
      "value": {
        "_hex": "0xfab23d52871e400"
      },
      "nonce": 4,
      "data": "0x",
      "r": "0x14d215e6407fbeb4cb7eb5e5a6697102c3316c50a5dd8d259397ef74963b2cd7",
      "s": "0x0ff2c0f4b64b45d0b134ac95d31ffc737f0a5c7926bacb5c7726654e43d33918",
      "v": 28,
      "creates": null,
      "raw": "0xf86c04850d194451008252089432be343b94f860124dc4fee278fdcbd38c102d88880fab23d52871e400801ca014d215e6407fbeb4cb7eb5e5a6697102c3316c50a5dd8d259397ef74963b2cd7a00ff2c0f4b64b45d0b134ac95d31ffc737f0a5c7926bacb5c7726654e43d33918",
      "networkId": 0,
      "chainId": 0
    },
    {
      "hash": "0xf55b66f97b3b7fc8d283832f62e73b5c5040c276c512a0c0303d23d7fe4fc499",
      "blockHash": "0x609a1139fa57680bdf27fa32dfab9687e6dd5600d131cc697fe22ff5381dab6e",
      "blockNumber": 121765,
      "transactionIndex": 1,
      "confirmations": null,
      "from": "0xa70a9a7040d542C632D8e0bE7c5513A8a5Bbc752",
      "gasPrice": {
        "_hex": "0xd19445100"
      },
      "gasLimit": {
        "_hex": "0x5208"
      },
      "to": "0x32Be343B94f860124dC4fEe278FDCBD38C102D88",
      "value": {
        "_hex": "0x455f5f012979e400"
      },
      "nonce": 339,
      "data": "0x",
      "r": "0x68752cfc2134f7bb1071658da125698eccc6650e09c18d35b85737461f376c68",
      "s": "0x4602b957d89100431a1bf1bfeae20fe5748f119fbb6f9225a73d0611c7724d58",
      "v": 27,
      "creates": null,
      "raw": "0xf86e820153850d194451008252089432be343b94f860124dc4fee278fdcbd38c102d8888455f5f012979e400801ba068752cfc2134f7bb1071658da125698eccc6650e09c18d35b85737461f376c68a04602b957d89100431a1bf1bfeae20fe5748f119fbb6f9225a73d0611c7724d58",
      "networkId": 0,
      "chainId": 0
    },
    {
      "hash": "0x920de2a54a3ea8800359a775ce3c5360745bdda1b55591a7b637d09cf4d051c7",
      "blockHash": "0x609a1139fa57680bdf27fa32dfab9687e6dd5600d131cc697fe22ff5381dab6e",
      "blockNumber": 121765,
      "transactionIndex": 2,
      "confirmations": null,
      "from": "0x608f4b86321a68453f9adf6F06F7Fc3E621739ad",
      "gasPrice": {
        "_hex": "0xd19445100"
      },
      "gasLimit": {
        "_hex": "0x5208"
      },
      "to": "0x32Be343B94f860124dC4fEe278FDCBD38C102D88",
      "value": {
        "_hex": "0x455f5f012979e400"
      },
      "nonce": 112,
      "data": "0x",
      "r": "0xcaf93af2d78f4bad107acd594fde6896522e566b176c2844641589b6d0d8da4f",
      "s": "0x5c53a01cd6c5407a0f51c8289873da2cf218dbeb67a73c85465b46549ef43759",
      "v": 28,
      "creates": null,
      "raw": "0xf86c70850d194451008252089432be343b94f860124dc4fee278fdcbd38c102d8888455f5f012979e400801ca0caf93af2d78f4bad107acd594fde6896522e566b176c2844641589b6d0d8da4fa05c53a01cd6c5407a0f51c8289873da2cf218dbeb67a73c85465b46549ef43759",
      "networkId": 0,
      "chainId": 0
    },
    {
      "hash": "0x783994aeab05ffd6faee9a68b47d59bc2ac7870c912dedc4644d66c57b21a44f",
      "blockHash": "0x609a1139fa57680bdf27fa32dfab9687e6dd5600d131cc697fe22ff5381dab6e",
      "blockNumber": 121765,
      "transactionIndex": 3,
      "confirmations": null,
      "from": "0x2910543Af39abA0Cd09dBb2D50200b3E800A63D2",
      "gasPrice": {
        "_hex": "0xcd0eb4fb8"
      },
      "gasLimit": {
        "_hex": "0x5208"
      },
      "to": "0x72EFA2985C74A70e747bD02C1D72407a926Fa357",
      "value": {
        "_hex": "0x352029a44392ef8000"
      },
      "nonce": 1200,
      "data": "0x",
      "r": "0xbbf842e8ccc46d86ce3b2f6cbe11a1054dd519aaeede98a3a651fa9a27a69624",
      "s": "0x6fc1c19772f26aec540e60f6616d4c63ba5612c44a1cbe777c0f2af8d597bd01",
      "v": 27,
      "creates": null,
      "raw": "0xf86f8204b0850cd0eb4fb88252089472efa2985c74a70e747bd02c1d72407a926fa35789352029a44392ef8000801ba0bbf842e8ccc46d86ce3b2f6cbe11a1054dd519aaeede98a3a651fa9a27a69624a06fc1c19772f26aec540e60f6616d4c63ba5612c44a1cbe777c0f2af8d597bd01",
      "networkId": 0,
      "chainId": 0
    }
  ]
}