{
  "hash": "0x297c807dbdec8b83c973c005f7491baf3eaf60da602bce70586cb9e689a9ad78",
  "parentHash": "0x5866b95b3371bb0a66d974e0d84003b70b2e414cd62256c0376b645793f01e39",
  "number": 49906,
  "timestamp": 1438981032,
  "nonce": "0x43729226a39a1ea9",
  "difficulty": 1495843573396,
  "gasLimit": {
    "_hex": "0x453ad"
  },
  "gasUsed": {
    "_hex": "0x546c"
  },
  "miner": "0x48040276E9c17DDbe5C8d2976245dCD0235efA43",
  "extraData": "0x476574682f76312e302e312d38326566323666362f6c696e75782f676f312e34",
  "transactions": [
    {
      "hash": "0xadc80e33d70622683e2c2c988d0967579cf84434e96b5c39c0d116fedb18611f",
      "blockHash": "0x297c807dbdec8b83c973c005f7491baf3eaf60da602bce70586cb9e689a9ad78",
      "blockNumber": 49906,
      "transactionIndex": 0,
      "confirmations": null,
      "from": "0x09c177F1AE442411dDACf187D46Db956148360E7",
      "gasPrice": {
        "_hex": "0x110c8f7d8de"
      },
      "gasLimit": {
        "_hex": "0xc350"
      },
      "to": "0x2910543Af39abA0Cd09dBb2D50200b3E800A63D2",
      "value": {
        "_hex": "0x0"
      },
      "nonce": 2,
      "data": "0x454e31554d35375030",
      "r": "0x55557aaa8c340fdf76747617d2368f0bcef39322a58df4dc5565264202d0f9bf",
      "s": "0xb77c202a3fcc289bdac820d8326d10b8fbf1ee5f40de918264befff0ab69ae80",
      "v": 28,
      "creates": null,
      "raw": "0xf86e02860110c8f7d8de82c350942910543af39aba0cd09dbb2d50200b3e800a63d28089454e31554d353750301ca055557aaa8c340fdf76747617d2368f0bcef39322a58df4dc5565264202d0f9bfa0b77c202a3fcc289bdac820d8326d10b8fbf1ee5f40de918264befff0ab69ae80",
      "networkId": 0,
      "chainId": 0
    }
  ]
}