{
  "hash": "0xb589e94e7e566afb3c5a1caf00f4316317b43046c087f21ef3bb5aa2086f4409",
  "parentHash": "0x2fa16622f756df8ba333b9b1abe6dfc7bbc038dc1ac35d309b80c2dce4295a4b",
  "number": 117850,
  "timestamp": 1440116327,
  "nonce": "0x516fb2ca2f91996f",
  "difficulty": 4339820666931,
  "gasLimit": {
    "_hex": "0x2fefd8"
  },
  "gasUsed": {
    "_hex": "0x14820"
  },
  "miner": "0xe6A7a1d47ff21B6321162AEA7C6CB457D5476Bca",
  "extraData": "0xd783010002844765746887676f312e342e32856c696e7578",
  "transactions": [
    {
      "hash": "0x8a0aa4dcfa423f1756c122cf9cff828ed1b6a3cbb20385c2bf5b4eba3c826b40",
      "blockHash": "0xb589e94e7e566afb3c5a1caf00f4316317b43046c087f21ef3bb5aa2086f4409",
      "blockNumber": 117850,
      "transactionIndex": 0,
      "confirmations": null,
      "from": "0x1Fab7BE036A5C6A69b2B05D6e172FF4e5b2a5e6B",
      "gasPrice": {
        "_hex": "0xba43b7400"
      },
      "gasLimit": {
        "_hex": "0x5208"
      },
      "to": "0x32Be343B94f860124dC4fEe278FDCBD38C102D88",
      "value": {
        "_hex": "0x101eb2ee7b5fc0000"
      },
      "nonce": 10,
      "data": "0x",
      "r": "0x8fc8db145388113b46d5ed7e316cee009d9f5f8f220e36870edfec8152e48106",
      "s": "0x1bc9521b04c1995b61ab5f29a4516a8e2b84ffb5eef915a985e16aa8dfd4a67a",
      "v": 28,
      "creates": null,
      "raw": "0xf86d0a850ba43b74008252089432be343b94f860124dc4fee278fdcbd38c102d88890101eb2ee7b5fc0000801ca08fc8db145388113b46d5ed7e316cee009d9f5f8f220e36870edfec8152e48106a01bc9521b04c1995b61ab5f29a4516a8e2b84ffb5eef915a985e16aa8dfd4a67a",
      "networkId": 0,
      "chainId": 0
    },
    {
      "hash": "0xce3dd93756dc4cd60e701322815ab63b61138178b82468cddc20e6ca237f3640",
      "blockHash": "0xb589e94e7e566afb3c5a1caf00f4316317b43046c087f21ef3bb5aa2086f4409",
      "blockNumber": 117850,
      "transactionIndex": 1,
      "confirmations": null,
      "from": "0x79d5794171E11dd5C2f0e26E1C187319db2FE6f7",
      "gasPrice": {
        "_hex": "0xba43b7400"
      },
      "gasLimit": {
        "_hex": "0x5208"
      },
      "to": "0x32Be343B94f860124dC4fEe278FDCBD38C102D88",
      "value": {
        "_hex": "0xed73ff0cdb9f800"
      },
      "nonce": 44,
      "data": "0x",
      "r": "0x830097274576a9d80c06841b4fdf0439235c54de6c11f9c08f2bc38a73541284",
      "s": "0x41fce44391ee6f8427f05114514ce824d53f75a0d9629de393111db8eb798181",
      "v": 28,
      "creates": null,
      "raw": "0xf86c2c850ba43b74008252089432be343b94f860124dc4fee278fdcbd38c102d88880ed73ff0cdb9f800801ca0830097274576a9d80c06841b4fdf0439235c54de6c11f9c08f2bc38a73541284a041fce44391ee6f8427f05114514ce824d53f75a0d9629de393111db8eb798181",
      "networkId": 0,
      "chainId": 0
    },
    {
      "hash": "0xd3ebe945f0606b19ba5d93233be90e8c93f23d3d3f0a5d0a1584c89de0c24f9b",
      "blockHash": "0xb589e94e7e566afb3c5a1caf00f4316317b43046c087f21ef3bb5aa2086f4409",
      "blockNumber": 117850,
      "transactionIndex": 2,
      "confirmations": null,
      "from": "0x267069452478cA39b3f5F1A4fFdD4131f50Bc977",
      "gasPrice": {
        "_hex": "0xba43b7400"
      },
      "gasLimit": {
        "_hex": "0x5208"
      },
      "to": "0x32Be343B94f860124dC4fEe278FDCBD38C102D88",
      "value": {
        "_hex": "0xa9c3da31bb5bb000"
      },
      "nonce": 13,
      "data": "0x",
      "r": "0x8614391fcb59d0e91919b7ceecb55e61f7869f1fc26f0263bd2205df6e877750",
      "s": "0x0bfe5719afb191475c33347d0b4549fff4ed1f28d1b3ee90cd40c8fc238e1d67",
      "v": 27,
      "creates": null,
      "raw": "0xf86c0d850ba43b74008252089432be343b94f860124dc4fee278fdcbd38c102d8888a9c3da31bb5bb000801ba08614391fcb59d0e91919b7ceecb55e61f7869f1fc26f0263bd2205df6e877750a00bfe5719afb191475c33347d0b4549fff4ed1f28d1b3ee90cd40c8fc238e1d67",
      "networkId": 0,
      "chainId": 0
    },
    {
      "hash": "0xd0d054ce9ac14dc4f6f3550e80853ef5e6638986a80d073a665d3335fbb4e568",
      "blockHash": "0xb589e94e7e566afb3c5a1caf00f4316317b43046c087f21ef3bb5aa2086f4409",
      "blockNumber": 117850,
      "transactionIndex": 3,
      "confirmations": null,
      "from": "0x19aF4b2766b8115B49E1fd31Ae71CaA12E706A96",
      "gasPrice": {
        "_hex": "0xba43b7400"
      },
      "gasLimit": {
        "_hex": "0x5208"
      },
      "to": "0x32Be343B94f860124dC4fEe278FDCBD38C102D88",
      "value": {
        "_hex": "0x2d80fe5066b99c00"
      },
      "nonce": 11,
      "data": "0x",
      "r": "0x40c5d331bfe547ed8123be89c833d6a08e808f74f93b9e66c17864fa46638bf4",
      "s": "0x2694595e7a30b4fc334b9dd06322bc5d03b3916bfb263a77b68c878e6f8bc162",
      "v": 28,
      "creates": null,
      "raw": "0xf86c0b850ba43b74008252089432be343b94f860124dc4fee278fdcbd38c102d88882d80fe5066b99c00801ca040c5d331bfe547ed8123be89c833d6a08e808f74f93b9e66c17864fa46638bf4a02694595e7a30b4fc334b9dd06322bc5d03b3916bfb263a77b68c878e6f8bc162",
      "networkId": 0,
      "chainId": 0
    }
  ]
}