{
  "hash": "0x962bbe7ef3bb1502dbcaad4ff390a296124ed747e3639f02237f38a5a7a2bed6",
  "parentHash": "0x4b734f01abbf1bb83abb9a212e1e4b23d3bca9f5bc3366eea88a5fee0a552a06",
  "number": 100910,
  "timestamp": 1439814363,
  "nonce": "0x217a60dad17d3efa",
  "difficulty": 3867718980678,
  "gasLimit": {
    "_hex": "0x2fefd8"
  },
  "gasUsed": {
    "_hex": "0x5208"
  },
  "miner": "0xa50ec0D39fa913E62f1Bae7074E6F36caA71855b",
  "extraData": "0xd783010001844765746887676f312e342e32856c696e7578",
  "transactions": [
    {
      "hash": "0xa83e6d070b88f6d3e8fcc01cc64ae7d9deb80001771440e706593b726a2c1c3c",
      "blockHash": "0x962bbe7ef3bb1502dbcaad4ff390a296124ed747e3639f02237f38a5a7a2bed6",
      "blockNumber": 100910,
      "transactionIndex": 0,
      "confirmations": null,
      "from": "0xa70a9a7040d542C632D8e0bE7c5513A8a5Bbc752",
      "gasPrice": {
        "_hex": "0xdc7570961"
      },
      "gasLimit": {
        "_hex": "0x5208"
      },
      "to": "0x32Be343B94f860124dC4fEe278FDCBD38C102D88",
      "value": {
        "_hex": "0x455f2739a89cb000"
      },
      "nonce": 207,
      "data": "0x",
      "r": "0xc515f5af3bdfbd4ab3d0df506d3d043e9f8d55727ae83605c9193b531f575b97",
      "s": "0x3cd2eb81185faab285f01eba3909139b14298b59ebcad2d59fe2a4d5c8b29a18",
      "v": 27,
      "creates": null,
      "raw": "0xf86d81cf850dc75709618252089432be343b94f860124dc4fee278fdcbd38c102d8888455f2739a89cb000801ba0c515f5af3bdfbd4ab3d0df506d3d043e9f8d55727ae83605c9193b531f575b97a03cd2eb81185faab285f01eba3909139b14298b59ebcad2d59fe2a4d5c8b29a18",
      "networkId": 0,
      "chainId": 0
    }
  ]
}