{
  "hash": "0xc8892e4c150d1866af93425d27e8db0d61832e9a5defceefb90cc404a5c5e04b",
  "parentHash": "0xda4b5c8192d5a896630c3facd1118fd1ec72ba90b44d36467f1e0c37ab75c988",
  "number": 101321,
  "timestamp": 1439821143,
  "nonce": "0xc9c9def8fe706657",
  "difficulty": 3809428613260,
  "gasLimit": {
    "_hex": "0x2fefd8"
  },
  "gasUsed": {
    "_hex": "0x5208"
  },
  "miner": "0xbb7B8287f3F0a933474a79eAe42CBCa977791171",
  "extraData": "0x476574682f4c5649562f76312e302e312f6c696e75782f676f312e342e32",
  "transactions": [
    {
      "hash": "0xed6d318669b20acdffaf5946ad69f9ccdf3b33acad3f84dd08817a8e9ea1734a",
      "blockHash": "0xc8892e4c150d1866af93425d27e8db0d61832e9a5defceefb90cc404a5c5e04b",
      "blockNumber": 101321,
      "transactionIndex": 0,
      "confirmations": null,
      "from": "0x383Ad663AFd1716301FC92d469d9985b97cfBCB0",
      "gasPrice": {
        "_hex": "0xe0ca2b070"
      },
      "gasLimit": {
        "_hex": "0x5208"
      },
      "to": "0x32Be343B94f860124dC4fEe278FDCBD38C102D88",
      "value": {
        "_hex": "0x212ecdf114cb6c000"
      },
      "nonce": 3,
      "data": "0x",
      "r": "0x522666de0d4cc3914e2b5c45b620bcf0d7a6dbfc93433dbab5cc83b41f89bc07",
      "s": "0x48ea0af0d6ed4aaf0b31b4fc55c86bfa0be8d976a5467b415109616784c7c73a",
      "v": 27,
      "creates": null,
      "raw": "0xf86d03850e0ca2b0708252089432be343b94f860124dc4fee278fdcbd38c102d88890212ecdf114cb6c000801ba0522666de0d4cc3914e2b5c45b620bcf0d7a6dbfc93433dbab5cc83b41f89bc07a048ea0af0d6ed4aaf0b31b4fc55c86bfa0be8d976a5467b415109616784c7c73a",
      "networkId": 0,
      "chainId": 0
    }
  ]
}