{
  "hash": "0x93d3aab7a7b8ceae6a1e06bed2737bf04a44553f078f81e2677f0fbcc5680a24",
  "parentHash": "0xe39b7a4b146a9293a9923088cb4b3524661fa46d417dcf2b200be223a1f10166",
  "number": 86503,
  "timestamp": 1439579199,
  "nonce": "0x9295d49d44212d2b",
  "difficulty": 2891865741537,
  "gasLimit": {
    "_hex": "0x2fefd8"
  },
  "gasUsed": {
    "_hex": "0x5208"
  },
  "miner": "0x70137010922f2fC2964b3792907F79FBB75fEbe8",
  "extraData": "0x476574682f76312e302e302f6c696e75782f676f312e342e32",
  "transactions": [
    {
      "hash": "0x2521031d6eef30e02d24c08f7240146faaf17cded8699432d44024cbb18fc42e",
      "blockHash": "0x93d3aab7a7b8ceae6a1e06bed2737bf04a44553f078f81e2677f0fbcc5680a24",
      "blockNumber": 86503,
      "transactionIndex": 0,
      "confirmations": null,
      "from": "0x89054430DcdC28AC15fA635EF87c105E602bf70c",
      "gasPrice": {
        "_hex": "0xd3d37f23a"
      },
      "gasLimit": {
        "_hex": "0x15f90"
      },
      "to": "0xeFFFe92E81e65eA3AD7C8C87D370e1CD31b0cac4",
      "value": {
        "_hex": "0x6b"
      },
      "nonce": 0,
      "data": "0x",
      "r": "0xa298606d6c51222a0b1c76d34df11865086dd4849015c6ed98e25263f8659364",
      "s": "0x63b57690693b50c4a49193e4fa88e43a55ad46881abb9e351094fed6da6302d2",
      "v": 28,
      "creates": null,
      "raw": "0xf86580850d3d37f23a83015f9094efffe92e81e65ea3ad7c8c87d370e1cd31b0cac46b801ca0a298606d6c51222a0b1c76d34df11865086dd4849015c6ed98e25263f8659364a063b57690693b50c4a49193e4fa88e43a55ad46881abb9e351094fed6da6302d2",
      "networkId": 0,
      "chainId": 0
    }
  ]
}