{
  "hash": "0x97e1bfb670dff97e93465ca267f5635d7d5bc8bc749eda1855f99a86d9b9c11c",
  "parentHash": "0x04644dee06d2e713db9cafcecbdd93f194dcc1e6c371c01aabfa7ee5ef9a616b",
  "number": 60862,
  "timestamp": 1439162808,
  "nonce": "0xc24ed6118ae70e1d",
  "difficulty": 1736332084052,
  "gasLimit": {
    "_hex": "0x2fefd8"
  },
  "gasUsed": {
    "_hex": "0x5208"
  },
  "miner": "0x55bAf64fc9eAccFFd7Cc643BB61142E1C6ac093e",
  "extraData": "0x",
  "transactions": [
    {
      "hash": "0x8050af33c445c9b445f5538cfa40706c67b3d9e9530c7dfeaffd78919c0d187a",
      "blockHash": "0x97e1bfb670dff97e93465ca267f5635d7d5bc8bc749eda1855f99a86d9b9c11c",
      "blockNumber": 60862,
      "transactionIndex": 0,
      "confirmations": null,
      "from": "0x00C865a16eD3c930DD70B642507639D199C62180",
      "gasPrice": {
        "_hex": "0xd415354e0"
      },
      "gasLimit": {
        "_hex": "0x5208"
      },
      "to": "0x32Be343B94f860124dC4fEe278FDCBD38C102D88",
      "value": {
        "_hex": "0x10b25790cf0b4c0000"
      },
      "nonce": 1,
      "data": "0x",
      "r": "0xa4263b1570fefeb0b2ef6906a20ed4ba651026696dd99d195ae194caf26b2a1e",
      "s": "0x0f88e15ca4cd034f1da3f0b960b40cee10566e5eab80cc4f61051d729c34efa3",
      "v": 28,
      "creates": null,
      "raw": "0xf86d01850d415354e08252089432be343b94f860124dc4fee278fdcbd38c102d888910b25790cf0b4c0000801ca0a4263b1570fefeb0b2ef6906a20ed4ba651026696dd99d195ae194caf26b2a1ea00f88e15ca4cd034f1da3f0b960b40cee10566e5eab80cc4f61051d729c34efa3",
      "networkId": 0,
      "chainId": 0
    }
  ]
}