{
  "hash": "0x59264c7b41fb22c5ab02a8aef7736b9e8820be81e4fedcdeed4902e55408d04b",
  "parentHash": "0xa07daea40ca3498de9a5eac93d34dacb29a45853f76512f4abf13c59c4789567",
  "number": 106886,
  "timestamp": 1439912318,
  "nonce": "0xafdb9f0a78a589a5",
  "difficulty": 4448547057528,
  "gasLimit": {
    "_hex": "0x2fefd8"
  },
  "gasUsed": {
    "_hex": "0x5208"
  },
  "miner": "0xe6A7a1d47ff21B6321162AEA7C6CB457D5476Bca",
  "extraData": "0x476574682f76312e302e312d38326566323666362f6c696e75782f676f312e34",
  "transactions": [
    {
      "hash": "0x60ec8fde69f5c857a5761d54b3d9c23d57e578403d3216cff10ddcb71c0051e7",
      "blockHash": "0x59264c7b41fb22c5ab02a8aef7736b9e8820be81e4fedcdeed4902e55408d04b",
      "blockNumber": 106886,
      "transactionIndex": 0,
      "confirmations": null,
      "from": "0x259ce58778abd156fC9084AB53322FEA6EeC550E",
      "gasPrice": {
        "_hex": "0xded787823"
      },
      "gasLimit": {
        "_hex": "0x15f90"
      },
      "to": "0xD3A57C79fde37eD4Ed9991638f3C0a59413a3C0F",
      "value": {
        "_hex": "0x4563918244f40000"
      },
      "nonce": 3,
      "data": "0x",
      "r": "0x3b9d1319433d70bc4d82b2b9f3a2cd7d7aa36370ed3899c4ddc1b1a412e61f81",
      "s": "0x35749961c026a96d28a1e4c6378447b22b291cb0d76a10406209ac69533063d5",
      "v": 27,
      "creates": null,
      "raw": "0xf86d03850ded78782383015f9094d3a57c79fde37ed4ed9991638f3c0a59413a3c0f884563918244f40000801ba03b9d1319433d70bc4d82b2b9f3a2cd7d7aa36370ed3899c4ddc1b1a412e61f81a035749961c026a96d28a1e4c6378447b22b291cb0d76a10406209ac69533063d5",
      "networkId": 0,
      "chainId": 0
    }
  ]
}