{
  "hash": "0xfa57aa0a4a2b4b5077f420bbb9f1abcfaaa3ee42293cea56ea4ad9df308c1be8",
  "parentHash": "0xe1d56f4ed9a45d137d7265e1d5fb99bdd91f53354365775a4a1b703a5e44982a",
  "number": 54825,
  "timestamp": 1439060590,
  "nonce": "0x70e6a9215a055217",
  "difficulty": 1612502822399,
  "gasLimit": {
    "_hex": "0x2fefd8"
  },
  "gasUsed": {
    "_hex": "0xf618"
  },
  "miner": "0x9746c7e1ef2bd21FF3997fa467593a89cb852BD0",
  "extraData": "0x476574682f76312e302e312f77696e646f77732f676f312e342e32",
  "transactions": [
    {
      "hash": "0xa46070a3cb0e0fb7c3d5b82aaa456dd7966f24e845855cce12e2ec28333a3c06",
      "blockHash": "0xfa57aa0a4a2b4b5077f420bbb9f1abcfaaa3ee42293cea56ea4ad9df308c1be8",
      "blockNumber": 54825,
      "transactionIndex": 0,
      "confirmations": null,
      "from": "0x0998b6F1124aa2dB79848a78316a03A6bC8c880D",
      "gasPrice": {
        "_hex": "0xd8fbc4d55"
      },
      "gasLimit": {
        "_hex": "0x5208"
      },
      "to": "0x32Be343B94f860124dC4fEe278FDCBD38C102D88",
      "value": {
        "_hex": "0xddc5e3c320a6c00"
      },
      "nonce": 0,
      "data": "0x",
      "r": "0xcbe689a31df36b60db7b3ccfd609b10af68decd5f600de7f4b7fc7e23bf91e5b",
      "s": "0x79fd42da04cd24379fdc8c2210512b9be9bbd31ca0e8b98ca4304003f1bca076",
      "v": 27,
      "creates": null,
      "raw": "0xf86c80850d8fbc4d558252089432be343b94f860124dc4fee278fdcbd38c102d88880ddc5e3c320a6c00801ba0cbe689a31df36b60db7b3ccfd609b10af68decd5f600de7f4b7fc7e23bf91e5ba079fd42da04cd24379fdc8c2210512b9be9bbd31ca0e8b98ca4304003f1bca076",
      "networkId": 0,
      "chainId": 0
    },
    {
      "hash": "0x1d31a775de39f8d41fcced175436fc2653a51ada160934f1d6b428d0b6febfb2",
      "blockHash": "0xfa57aa0a4a2b4b5077f420bbb9f1abcfaaa3ee42293cea56ea4ad9df308c1be8",
      "blockNumber": 54825,
      "transactionIndex": 1,
      "confirmations": null,
      "from": "0x835cFb953639ABaB9F2612b8d92C997771Ae6312",
      "gasPrice": {
        "_hex": "0xd8fbc4d55"
      },
      "gasLimit": {
        "_hex": "0x5208"
      },
      "to": "0x32Be343B94f860124dC4fEe278FDCBD38C102D88",
      "value": {
        "_hex": "0x455f390acf9a6c00"
      },
      "nonce": 4,
      "data": "0x",
      "r": "0xf6c39becc77d60b3990616ed8801d7ff18fe53fa56436bee575a34d48cdbf0a3",
      "s": "0x610529233a15d159c36917edb4185959441e5a36a917417c54f5b6538e9f0046",
      "v": 27,
      "creates": null,
      "raw": "0xf86c04850d8fbc4d558252089432be343b94f860124dc4fee278fdcbd38c102d8888455f390acf9a6c00801ba0f6c39becc77d60b3990616ed8801d7ff18fe53fa56436bee575a34d48cdbf0a3a0610529233a15d159c36917edb4185959441e5a36a917417c54f5b6538e9f0046",
      "networkId": 0,
      "chainId": 0
    },
    {
      "hash": "0x17ff029f2c2f01a7ad07b6ec198fd3ed0aa305f3eb120f031aeebc829498340f",
      "blockHash": "0xfa57aa0a4a2b4b5077f420bbb9f1abcfaaa3ee42293cea56ea4ad9df308c1be8",
      "blockNumber": 54825,
      "transactionIndex": 2,
      "confirmations": null,
      "from": "0x5129857C8008747c19d683Fc29eEF4618f9932b8",
      "gasPrice": {
        "_hex": "0xd8fbc4d55"
      },
      "gasLimit": {
        "_hex": "0x5208"
      },
      "to": "0x32Be343B94f860124dC4fEe278FDCBD38C102D88",
      "value": {
        "_hex": "0xa2a158b0da26880000"
      },
      "nonce": 1,
      "data": "0x",
      "r": "0x0fbd6808b880f2e2af09adbeddc9568e32e560598912b529f8c5ec40baed7006",
      "s": "0x23241c9b540fd250a6562c8f04c770e6c105fe92000611e546ef2b6e4b8838f4",
      "v": 27,
      "creates": null,
      "raw": "0xf86d01850d8fbc4d558252089432be343b94f860124dc4fee278fdcbd38c102d8889a2a158b0da26880000801ba00fbd6808b880f2e2af09adbeddc9568e32e560598912b529f8c5ec40baed7006a023241c9b540fd250a6562c8f04c770e6c105fe92000611e546ef2b6e4b8838f4",
      "networkId": 0,
      "chainId": 0
    }
  ]
}