{
  "hash": "0x13e8280cba83c43577db7101059db1cdd135eb8dd7cafde34d9ed2bd66720c60",
  "parentHash": "0x5ce61355ef095f266d3fb59291c0eb7644d75069f0308f85aecc43e06873f9ae",
  "number": 60301,
  "timestamp": 1439153106,
  "nonce": "0x80e7b2d6103972a9",
  "difficulty": 1747505642064,
  "gasLimit": {
    "_hex": "0x2fefd8"
  },
  "gasUsed": {
    "_hex": "0x5208"
  },
  "miner": "0xf927a40C8B7F6E07c5af7FA2155B4864a4112B13",
  "extraData": "0x476574682f76312e302e312f6c696e75782f676f312e342e32",
  "transactions": [
    {
      "hash": "0x67e74cb446c91848533e8986fb99916a71b25e84d8de37a81fba8714ca56ee5d",
      "blockHash": "0x13e8280cba83c43577db7101059db1cdd135eb8dd7cafde34d9ed2bd66720c60",
      "blockNumber": 60301,
      "transactionIndex": 0,
      "confirmations": null,
      "from": "0x2910543Af39abA0Cd09dBb2D50200b3E800A63D2",
      "gasPrice": {
        "_hex": "0xd4ab1ff19"
      },
      "gasLimit": {
        "_hex": "0x5208"
      },
      "to": "0xF82890B42d44a4a6a8b91d83ceb018553526bBB3",
      "value": {
        "_hex": "0xa676ccf2a0cf8000"
      },
      "nonce": 18,
      "data": "0x",
      "r": "0x9c0db104aee9d2704e2859f3942da4ae9502e5fff6610aae15d7d3a1ae4c8b85",
      "s": "0x44a40e683cbe2b3b3b3f75df2e279789ef390ed2bedb808da43a3a0859eedcff",
      "v": 28,
      "creates": null,
      "raw": "0xf86c12850d4ab1ff1982520894f82890b42d44a4a6a8b91d83ceb018553526bbb388a676ccf2a0cf8000801ca09c0db104aee9d2704e2859f3942da4ae9502e5fff6610aae15d7d3a1ae4c8b85a044a40e683cbe2b3b3b3f75df2e279789ef390ed2bedb808da43a3a0859eedcff",
      "networkId": 0,
      "chainId": 0
    }
  ]
}