{
  "hash": "0x3347be925c26e684118c764d66b65e8e60ca0242b0857e55a400b45baa7435ee",
  "parentHash": "0x845f799746ddeabebd6d9457122ca0e3620d7d3798536617cfa0a811b9d5b0d3",
  "number": 112978,
  "timestamp": 1440016049,
  "nonce": "0xda86b91dc8a996b9",
  "difficulty": 4471440835835,
  "gasLimit": {
    "_hex": "0x2fefd8"
  },
  "gasUsed": {
    "_hex": "0x5208"
  },
  "miner": "0xe6A7a1d47ff21B6321162AEA7C6CB457D5476Bca",
  "extraData": "0x476574682f76312e302e312d38326566323666362f6c696e75782f676f312e34",
  "transactions": [
    {
      "hash": "0xcde481b93f276a9beee088c432cac1335d9071fbc29c7aebc1c3b2de793c9b3b",
      "blockHash": "0x3347be925c26e684118c764d66b65e8e60ca0242b0857e55a400b45baa7435ee",
      "blockNumber": 112978,
      "transactionIndex": 0,
      "confirmations": null,
      "from": "0x4D67f4F0Db45b3B5a3424B39ed8d972F710381D5",
      "gasPrice": {
        "_hex": "0xce79fc7e4"
      },
      "gasLimit": {
        "_hex": "0x5208"
      },
      "to": "0x32Be343B94f860124dC4fEe278FDCBD38C102D88",
      "value": {
        "_hex": "0x33f4354f29ff24000"
      },
      "nonce": 40,
      "data": "0x",
      "r": "0xbac992a4f53bbc6157a08c2dada53c27a3b30f474d1aefd0c4e7f07d55e396cf",
      "s": "0x590dc89a86d9296fcd573c8c0b141f4454962b64c01332b6bbc703117d858c17",
      "v": 28,
      "creates": null,
      "raw": "0xf86d28850ce79fc7e48252089432be343b94f860124dc4fee278fdcbd38c102d8889033f4354f29ff24000801ca0bac992a4f53bbc6157a08c2dada53c27a3b30f474d1aefd0c4e7f07d55e396cfa0590dc89a86d9296fcd573c8c0b141f4454962b64c01332b6bbc703117d858c17",
      "networkId": 0,
      "chainId": 0
    }
  ]
}