{
  "hash": "0x69c44379ac02d564c2264956b3efa007e7e96634056a25e33a88a9c0b9f2d78b",
  "parentHash": "0x87f98197abad28daad0f3120d8873f4fac345e70ea307b8d30a0081cebc2f500",
  "number": 85271,
  "timestamp": 1439561029,
  "nonce": "0x1dacf7f78c547ae9",
  "difficulty": 2746399904515,
  "gasLimit": {
    "_hex": "0x2fefd8"
  },
  "gasUsed": {
    "_hex": "0x5208"
  },
  "miner": "0xe6A7a1d47ff21B6321162AEA7C6CB457D5476Bca",
  "extraData": "0x476574682f76312e302e312d38326566323666362f6c696e75782f676f312e34",
  "transactions": [
    {
      "hash": "0x076b48b61318231f3abeff0d7758a023c2de783accbe8ad43718bb276983e41e",
      "blockHash": "0x69c44379ac02d564c2264956b3efa007e7e96634056a25e33a88a9c0b9f2d78b",
      "blockNumber": 85271,
      "transactionIndex": 0,
      "confirmations": null,
      "from": "0x007f7f58D3eb5b7510A301eCC749FC1fCDDBE14D",
      "gasPrice": {
        "_hex": "0xd81d03795"
      },
      "gasLimit": {
        "_hex": "0x15f90"
      },
      "to": "0xD9666150A9dA92d9108198a4072970805a8B3428",
      "value": {
        "_hex": "0x154017c3185120000"
      },
      "nonce": 2,
      "data": "0x",
      "r": "0x173ef47f5041d30006743c4db5533c03204a6984fa3e20f40e810f565a05fae7",
      "s": "0x7f84a9f3724fcd60e15be7b759479976d03d316c93671ed35e5adeaeba926696",
      "v": 27,
      "creates": null,
      "raw": "0xf86e02850d81d0379583015f9094d9666150a9da92d9108198a4072970805a8b3428890154017c3185120000801ba0173ef47f5041d30006743c4db5533c03204a6984fa3e20f40e810f565a05fae7a07f84a9f3724fcd60e15be7b759479976d03d316c93671ed35e5adeaeba926696",
      "networkId": 0,
      "chainId": 0
    }
  ]
}