{
  "hash": "0x1c667de8c9e6ba08cd02c2c905364dace6938dcae1b3961b82ef13f827840a2f",
  "parentHash": "0x04400341f1608582d667ea4914d8268152abe29fb6658d02f561480cbd07ead9",
  "number": 111167,
  "timestamp": 1439985885,
  "nonce": "0xaf7028d71d98d937",
  "difficulty": 4396622947343,
  "gasLimit": {
    "_hex": "0x2fefd8"
  },
  "gasUsed": {
    "_hex": "0x5208"
  },
  "miner": "0xe6A7a1d47ff21B6321162AEA7C6CB457D5476Bca",
  "extraData": "0x476574682f76312e302e312d38326566323666362f6c696e75782f676f312e34",
  "transactions": [
    {
      "hash": "0x57d17e9c41ed2d961ecd66860453f03245d6f95ec781febd0e69124b276f9b39",
      "blockHash": "0x1c667de8c9e6ba08cd02c2c905364dace6938dcae1b3961b82ef13f827840a2f",
      "blockNumber": 111167,
      "transactionIndex": 0,
      "confirmations": null,
      "from": "0x007f7f58D3eb5b7510A301eCC749FC1fCDDBE14D",
      "gasPrice": {
        "_hex": "0xd382b0b9c"
      },
      "gasLimit": {
        "_hex": "0x15f90"
      },
      "to": "0xb1abce2918E21ddb93AA452731a12672A3d9F75a",
      "value": {
        "_hex": "0x4563918244f40000"
      },
      "nonce": 304,
      "data": "0x",
      "r": "0xda78bc19f21c94f2dc2196fa82667e1d529c2b1c409def74925b48581d07d899",
      "s": "0x4775f3c40f403800b7c53c1629013f495dc57124f914b7675eea33cb83c9b08f",
      "v": 28,
      "creates": null,
      "raw": "0xf86f820130850d382b0b9c83015f9094b1abce2918e21ddb93aa452731a12672a3d9f75a884563918244f40000801ca0da78bc19f21c94f2dc2196fa82667e1d529c2b1c409def74925b48581d07d899a04775f3c40f403800b7c53c1629013f495dc57124f914b7675eea33cb83c9b08f",
      "networkId": 0,
      "chainId": 0
    }
  ]
}