{
  "hash": "0x244ed14afb964c847752897e318f35bdb848756f9340dae13aba4d0c43e4cb75",
  "parentHash": "0x81c4f74fab81a3f886fe02ee184eaff742e01133771c59a079fdb037d2eef3d1",
  "number": 68849,
  "timestamp": 1439294684,
  "nonce": "0x37b2b2a4fc9ec1e2",
  "difficulty": 2015213452356,
  "gasLimit": {
    "_hex": "0x2fefd8"
  },
  "gasUsed": {
    "_hex": "0x5208"
  },
  "miner": "0xf927a40C8B7F6E07c5af7FA2155B4864a4112B13",
  "extraData": "0x",
  "transactions": [
    {
      "hash": "0x4d30613f23732e250160f8ff193c5bca9ea04da353a6590b937c89e3a68278d0",
      "blockHash": "0x244ed14afb964c847752897e318f35bdb848756f9340dae13aba4d0c43e4cb75",
      "blockNumber": 68849,
      "transactionIndex": 0,
      "confirmations": null,
      "from": "0x6747f922385c9a6F9cfDf095F34345257DD597bE",
      "gasPrice": {
        "_hex": "0xba43b7400"
      },
      "gasLimit": {
        "_hex": "0x5208"
      },
      "to": "0x0F062D0a923C527212C123ec4dc7C989B5a891C8",
      "value": {
        "_hex": "0x1fcbfa42bd6000"
      },
      "nonce": 127,
      "data": "0x",
      "r": "0x74f1e72a7eafff762c6ec17f8b02f96b401481df034caafa977fa7c652ac1f34",
      "s": "0x097ed23efd9d319ae1ccbecf8cd566bb5a06fb8b8fad6d1fe438f93a24fdef42",
      "v": 27,
      "creates": null,
      "raw": "0xf86b7f850ba43b7400825208940f062d0a923c527212c123ec4dc7c989b5a891c8871fcbfa42bd6000801ba074f1e72a7eafff762c6ec17f8b02f96b401481df034caafa977fa7c652ac1f34a0097ed23efd9d319ae1ccbecf8cd566bb5a06fb8b8fad6d1fe438f93a24fdef42",
      "networkId": 0,
      "chainId": 0
    }
  ]
}