{
  "hash": "0xad1adb1c3f99e62d07e48a7a5ea33517c5f6f3d325f5265f7b268370069cd876",
  "parentHash": "0x685a053c0f0f7be80fe03585a27fea93dd29c98fdfd011b6d82169cbdd604a2f",
  "number": 101217,
  "timestamp": 1439819275,
  "nonce": "0x06833e5aa54ec29c",
  "difficulty": 3839353933682,
  "gasLimit": {
    "_hex": "0x2fefd8"
  },
  "gasUsed": {
    "_hex": "0x5208"
  },
  "miner": "0xa70a9a7040d542C632D8e0bE7c5513A8a5Bbc752",
  "extraData": "0x",
  "transactions": [
    {
      "hash": "0x5be68b4bdd7c5da2057618aa6079b6e590fba63f0dae99e5c88da2bcef122fd8",
      "blockHash": "0xad1adb1c3f99e62d07e48a7a5ea33517c5f6f3d325f5265f7b268370069cd876",
      "blockNumber": 101217,
      "transactionIndex": 0,
      "confirmations": null,
      "from": "0xc15fa6D616245a5c7B7D75A6dFDcA10C0250BD2B",
      "gasPrice": {
        "_hex": "0xdefd708c6"
      },
      "gasLimit": {
        "_hex": "0x15f90"
      },
      "to": "0xdeE4977F74E6Aef6D627191c9A45D2627e331150",
      "value": {
        "_hex": "0xd02ab486cedc0000"
      },
      "nonce": 11,
      "data": "0x",
      "r": "0xdd92fa21e9ffd04da552bc9992a74f896752767e2cd4696515693130413c8fa9",
      "s": "0x2d7c4fe36434ae6336226bc1753cbb0ca8b458a7df34ee7bed8933c5bd7d9097",
      "v": 27,
      "creates": null,
      "raw": "0xf86d0b850defd708c683015f9094dee4977f74e6aef6d627191c9a45d2627e33115088d02ab486cedc0000801ba0dd92fa21e9ffd04da552bc9992a74f896752767e2cd4696515693130413c8fa9a02d7c4fe36434ae6336226bc1753cbb0ca8b458a7df34ee7bed8933c5bd7d9097",
      "networkId": 0,
      "chainId": 0
    }
  ]
}