{
  "hash": "0x781a9037b91cc38d7a0dc613bee7c59b3e60a2e5ab80dfcbd723331326298c3f",
  "parentHash": "0x023a6a901269b44a8708e775518a5cec4544510c7861f6e974dbe250a1caa246",
  "number": 51857,
  "timestamp": 1439012125,
  "nonce": "0x3c82bd9600f5d366",
  "difficulty": 1560393769253,
  "gasLimit": {
    "_hex": "0xe7209"
  },
  "gasUsed": {
    "_hex": "0x7a120"
  },
  "miner": "0x9746c7e1ef2bd21FF3997fa467593a89cb852BD0",
  "extraData": "0x476574682f76312e302e312f77696e646f77732f676f312e342e32",
  "transactions": [
    {
      "hash": "0xb8c161bbeb550e0e55d573363fa578455145444c12c4047f2921db78f0aae2fa",
      "blockHash": "0x781a9037b91cc38d7a0dc613bee7c59b3e60a2e5ab80dfcbd723331326298c3f",
      "blockNumber": 51857,
      "transactionIndex": 0,
      "confirmations": null,
      "from": "0xFCf9f6A78f06227522c6f948ec0119dA31680Ef7",
      "gasPrice": {
        "_hex": "0xd392e0cc7"
      },
      "gasLimit": {
        "_hex": "0x7a120"
      },
      "to": "0x109C4f2CCc82C4d77Bde15F306707320294Aea3F",
      "value": {
        "_hex": "0xde0b6b3a7640000"
      },
      "nonce": 58,
      "data": "0x",
      "r": "0x9db6a29b040562c81531ae47650598c24f42658dd714cecb7cfb4d8be7d167be",
      "s": "0x0ad23c61ac45ba653d442e24968b083327a73223c94c6052dee0ccc579b886ba",
      "v": 27,
      "creates": null,
      "raw": "0xf86d3a850d392e0cc78307a12094109c4f2ccc82c4d77bde15f306707320294aea3f880de0b6b3a7640000801ba09db6a29b040562c81531ae47650598c24f42658dd714cecb7cfb4d8be7d167bea00ad23c61ac45ba653d442e24968b083327a73223c94c6052dee0ccc579b886ba",
      "networkId": 0,
      "chainId": 0
    }
  ]
}