{
  "hash": "0x95d1f5e0deea403e71172eac5d8d9c83a1f5390aaf0a419d112191e6418347fc",
  "parentHash": "0x32321b5ee17b0519a39fccab5541ead4311096269f6588c2a0e3f3da48c41bd9",
  "number": 76094,
  "timestamp": 1439414752,
  "nonce": "0xa9c9a18614759a73",
  "difficulty": 2245095765275,
  "gasLimit": {
    "_hex": "0x2fefd8"
  },
  "gasUsed": {
    "_hex": "0x5208"
  },
  "miner": "0x8c6e4B005B8b30B027f9fFB8FA9BE1dFF6E72ABB",
  "extraData": "0x476574682f76312e302e312f6c696e75782f676f312e342e32",
  "transactions": [
    {
      "hash": "0xc14155b5a57f645b74c67a87fbbc6c9bfc39b4ef2c1a6450cfb1b83b3ffd40f2",
      "blockHash": "0x95d1f5e0deea403e71172eac5d8d9c83a1f5390aaf0a419d112191e6418347fc",
      "blockNumber": 76094,
      "transactionIndex": 0,
      "confirmations": null,
      "from": "0x2910543Af39abA0Cd09dBb2D50200b3E800A63D2",
      "gasPrice": {
        "_hex": "0xd52cb6bf3"
      },
      "gasLimit": {
        "_hex": "0x5208"
      },
      "to": "0x77b97786B0FB73e55d9E92d4B182beFBF346F979",
      "value": {
        "_hex": "0xdcef33a6f838000"
      },
      "nonce": 319,
      "data": "0x",
      "r": "0xec84156d4aee2828faaf2bf08afa13208e524b45b992ed095cc5cdf250cbb966",
      "s": "0x4a5e127d24554c70b99eda802ee5ac117fae3b46909c9328e6bcdb13508c90f1",
      "v": 27,
      "creates": null,
      "raw": "0xf86e82013f850d52cb6bf38252089477b97786b0fb73e55d9e92d4b182befbf346f979880dcef33a6f838000801ba0ec84156d4aee2828faaf2bf08afa13208e524b45b992ed095cc5cdf250cbb966a04a5e127d24554c70b99eda802ee5ac117fae3b46909c9328e6bcdb13508c90f1",
      "networkId": 0,
      "chainId": 0
    }
  ]
}