{
  "hash": "0x477b5a261aedf8b9272c007886f73b655d0962315dd5c7352a5d3647f3251fdb",
  "parentHash": "0x00d3d0198a377ae1dbe660867c0527b2bcf89cbfb8b6f899b84d2dc672f58bbf",
  "number": 100248,
  "timestamp": 1439803428,
  "nonce": "0x943e882dd6c25970",
  "difficulty": 3822960369128,
  "gasLimit": {
    "_hex": "0x2fefd8"
  },
  "gasUsed": {
    "_hex": "0x5208"
  },
  "miner": "0x580992B51e3925e23280EfB93d3047C82f17E038",
  "extraData": "0x476574682f76312e302e312f6c696e75782f676f312e342e32",
  "transactions": [
    {
      "hash": "0xd05e91e0e946837c069ff0d29ab59becd7bc703c4733b4b49c8a82e1b6822728",
      "blockHash": "0x477b5a261aedf8b9272c007886f73b655d0962315dd5c7352a5d3647f3251fdb",
      "blockNumber": 100248,
      "transactionIndex": 0,
      "confirmations": null,
      "from": "0xA6C45aF12785c7c425684AD94576184afe192c05",
      "gasPrice": {
        "_hex": "0xba43b7400"
      },
      "gasLimit": {
        "_hex": "0x5b04"
      },
      "to": "0xEe2e3665531f220d70d01CCaBb559537a2663174",
      "value": {
        "_hex": "0x340aad21b3b700000"
      },
      "nonce": 6,
      "data": "0x",
      "r": "0x8bf8d0d4f84c461b43b370e13db53f0bd94590c91e9d295a6bccc6770bb87110",
      "s": "0x2df1f9010f8090c4c759b8846a433750dbdf38d36538fe1629a334ef080e5c47",
      "v": 27,
      "creates": null,
      "raw": "0xf86d06850ba43b7400825b0494ee2e3665531f220d70d01ccabb559537a2663174890340aad21b3b700000801ba08bf8d0d4f84c461b43b370e13db53f0bd94590c91e9d295a6bccc6770bb87110a02df1f9010f8090c4c759b8846a433750dbdf38d36538fe1629a334ef080e5c47",
      "networkId": 0,
      "chainId": 0
    }
  ]
}