{
  "hash": "0x1aa5ba26a2669addffde3e69cb028c3f865b3254d7519fdfc8c3ea8461a9e7ac",
  "parentHash": "0x04ed6bf34c13304c63742320cb10b1d3dd184df5cfea3ca7d8e4c3b00af35be6",
  "number": 91912,
  "timestamp": 1439663703,
  "nonce": "0x27121a2143bd6aa8",
  "difficulty": 3474112747050,
  "gasLimit": {
    "_hex": "0x2fefd8"
  },
  "gasUsed": {
    "_hex": "0x5208"
  },
  "miner": "0x77EC9ad4A7E9418774C29415CAaF4Ee0da96eF64",
  "extraData": "0x",
  "transactions": [
    {
      "hash": "0x08b3969d8aaf131e3a7bc525ed9a208fdd3311cca1cbd8f8ebd67bcd82e99828",
      "blockHash": "0x1aa5ba26a2669addffde3e69cb028c3f865b3254d7519fdfc8c3ea8461a9e7ac",
      "blockNumber": 91912,
      "transactionIndex": 0,
      "confirmations": null,
      "from": "0x5F28bcc5faFC8982536A9e4be559657998CdE1E3",
      "gasPrice": {
        "_hex": "0xba43b7400"
      },
      "gasLimit": {
        "_hex": "0x5208"
      },
      "to": "0xC47Aaa860008be6f65B58c6C6E02a84e666EfE31",
      "value": {
        "_hex": "0xad7677a70295b8710"
      },
      "nonce": 13,
      "data": "0x",
      "r": "0xc601e62f8d454f5ddca1ef01434ed79af38a571bad34fc3c41f837875cfa9603",
      "s": "0x5910df3a70a1489180a8d4360bd7bd74e27ba03de8fe90024d118da024808654",
      "v": 27,
      "creates": null,
      "raw": "0xf86d0d850ba43b740082520894c47aaa860008be6f65b58c6c6e02a84e666efe31890ad7677a70295b8710801ba0c601e62f8d454f5ddca1ef01434ed79af38a571bad34fc3c41f837875cfa9603a05910df3a70a1489180a8d4360bd7bd74e27ba03de8fe90024d118da024808654",
      "networkId": 0,
      "chainId": 0
    }
  ]
}