{
  "hash": "0x292f8a6fc1d32dbf52a11c14eaa8593d2c3444d2062b48a1fea0098eeadab16e",
  "parentHash": "0x64326b03f48febced145506d5486e4590a6116c8521bbff324f2044eeaff2f15",
  "number": 122392,
  "timestamp": 1440193551,
  "nonce": "0xb05651b370349b77",
  "difficulty": 4492672922939,
  "gasLimit": {
    "_hex": "0x2fefd8"
  },
  "gasUsed": {
    "_hex": "0xa410"
  },
  "miner": "0x5fA54d061A07E621f6878B553E127b064c2a3aec",
  "extraData": "0xd983010100844765746887676f312e342e328777696e646f7773",
  "transactions": [
    {
      "hash": "0xbe7b2b1cf1decc966de88ad8d4c153584781d737c1b5402c4067aac9915cb304",
      "blockHash": "0x292f8a6fc1d32dbf52a11c14eaa8593d2c3444d2062b48a1fea0098eeadab16e",
      "blockNumber": 122392,
      "transactionIndex": 0,
      "confirmations": null,
      "from": "0xee8bB0274117C9A1D3695E19bea188c382EC1A8E",
      "gasPrice": {
        "_hex": "0xd8b1ef426"
      },
      "gasLimit": {
        "_hex": "0x15f90"
      },
      "to": "0x9b0a028EAfDeCdE3AFc0fD00B7937098388b7C8a",
      "value": {
        "_hex": "0x82183138924111b98"
      },
      "nonce": 5,
      "data": "0x",
      "r": "0x67dab47449a53c36d6b432e33a50038905211cf8a60c3b5dde2bb752f87395e2",
      "s": "0x23c9d8f97b132aa1bd97bf9858cb3212514a0388d7146202774fa096e37be0f9",
      "v": 28,
      "creates": null,
      "raw": "0xf86e05850d8b1ef42683015f90949b0a028eafdecde3afc0fd00b7937098388b7c8a89082183138924111b98801ca067dab47449a53c36d6b432e33a50038905211cf8a60c3b5dde2bb752f87395e2a023c9d8f97b132aa1bd97bf9858cb3212514a0388d7146202774fa096e37be0f9",
      "networkId": 0,
      "chainId": 0
    },
    {
      "hash": "0x27226f9a3a78cbc411a4f0aba52f3379f6d463b309700c413438e6942dc77fa8",
      "blockHash": "0x292f8a6fc1d32dbf52a11c14eaa8593d2c3444d2062b48a1fea0098eeadab16e",
      "blockNumber": 122392,
      "transactionIndex": 1,
      "confirmations": null,
      "from": "0xFFf1471A813EaF20Ade11C3d58E3a64157216587",
      "gasPrice": {
        "_hex": "0xd8b1ef426"
      },
      "gasLimit": {
        "_hex": "0x15f90"
      },
      "to": "0x9b0a028EAfDeCdE3AFc0fD00B7937098388b7C8a",
      "value": {
        "_hex": "0x4517d7067e2d1118"
      },
      "nonce": 7,
      "data": "0x",
      "r": "0x6afb8c9e8f7618d09cd8793a84248a924e6798b48efd9ba81bd45b5fe001832c",
      "s": "0x16467845c4b61f9facdad2ff5a1042af892b643a191093af6f3435f44c0e6e10",
      "v": 27,
      "creates": null,
      "raw": "0xf86d07850d8b1ef42683015f90949b0a028eafdecde3afc0fd00b7937098388b7c8a884517d7067e2d1118801ba06afb8c9e8f7618d09cd8793a84248a924e6798b48efd9ba81bd45b5fe001832ca016467845c4b61f9facdad2ff5a1042af892b643a191093af6f3435f44c0e6e10",
      "networkId": 0,
      "chainId": 0
    }
  ]
}