{
  "hash": "0x8b8824b45492c2d354842556b02acafe2b61565a8e34870595196b8cc8ef5eba",
  "parentHash": "0x523d7df6a5f3b0ba735b487d7855e2af1f70fe809f56d8c5ca733c95d5a1e999",
  "number": 68152,
  "timestamp": 1439283388,
  "nonce": "0x5561d6d3a972d0e9",
  "difficulty": 1969656160694,
  "gasLimit": {
    "_hex": "0x2fefd8"
  },
  "gasUsed": {
    "_hex": "0x5208"
  },
  "miner": "0x040F866D0793aEbf4DaCDA92B2F2128e8599B5CF",
  "extraData": "0x476574682f76312e302e312f6c696e75782f676f312e342e32",
  "transactions": [
    {
      "hash": "0x16aac5172b480cffeec2db6345482feae6550fee817a3b5021ac390942243394",
      "blockHash": "0x8b8824b45492c2d354842556b02acafe2b61565a8e34870595196b8cc8ef5eba",
      "blockNumber": 68152,
      "transactionIndex": 0,
      "confirmations": null,
      "from": "0xc44108A2D949A9bd5Cc53A6e455005e1334C8F08",
      "gasPrice": {
        "_hex": "0xba43b7400"
      },
      "gasLimit": {
        "_hex": "0x5208"
      },
      "to": "0xC9C5B6b71d990b30878e954398393cA080Ca04de",
      "value": {
        "_hex": "0x36ef271c4dd000"
      },
      "nonce": 1,
      "data": "0x",
      "r": "0x9b1eb5c2000cffcfff9652c42955bc059542df6d101f6aa23e953fb51c8d923a",
      "s": "0x4f37a2fa9e874217daf565a4f78c2ad8fd2762db0ad773dd9102d989d5a2035b",
      "v": 28,
      "creates": null,
      "raw": "0xf86b01850ba43b740082520894c9c5b6b71d990b30878e954398393ca080ca04de8736ef271c4dd000801ca09b1eb5c2000cffcfff9652c42955bc059542df6d101f6aa23e953fb51c8d923aa04f37a2fa9e874217daf565a4f78c2ad8fd2762db0ad773dd9102d989d5a2035b",
      "networkId": 0,
      "chainId": 0
    }
  ]
}