{
  "hash": "0x759ad954dd1fb70420b85a1dd8eb41bdaed03d6fd370b0dac56550271f37a2a0",
  "parentHash": "0x3bda5692ebc13c1cf5d8b69b8110579be49bba7c42bbed2d44b97a115936271f",
  "number": 46836,
  "timestamp": 1438930049,
  "nonce": "0x7e12ef4f90e7b2f4",
  "difficulty": 1457451108392,
  "gasLimit": {
    "_hex": "0x7d86"
  },
  "gasUsed": {
    "_hex": "0x5208"
  },
  "miner": "0xbb7B8287f3F0a933474a79eAe42CBCa977791171",
  "extraData": "0x476574682f4c5649562f76312e302e312f6c696e75782f676f312e342e32",
  "transactions": [
    {
      "hash": "0xd1819eb071c187a46db31850d63153b1aed127d6b5ca9d0535c1a69ee6867dd2",
      "blockHash": "0x759ad954dd1fb70420b85a1dd8eb41bdaed03d6fd370b0dac56550271f37a2a0",
      "blockNumber": 46836,
      "transactionIndex": 0,
      "confirmations": null,
      "from": "0x2Fe86C0450Bf1bE6001d119aA87f6f33117bD699",
      "gasPrice": {
        "_hex": "0xe20980159"
      },
      "gasLimit": {
        "_hex": "0x5208"
      },
      "to": "0x32Be343B94f860124dC4fEe278FDCBD38C102D88",
      "value": {
        "_hex": "0x71dbea981665c40000"
      },
      "nonce": 0,
      "data": "0x",
      "r": "0xb01bd47d6637db1414692286f0aa2246ab916c19bb606a8f839afaa8d45231b4",
      "s": "0x67f27005fd83bf3585655f5ef04d10bbe1308ba0290ec68590432e398da0bbc0",
      "v": 28,
      "creates": null,
      "raw": "0xf86d80850e209801598252089432be343b94f860124dc4fee278fdcbd38c102d888971dbea981665c40000801ca0b01bd47d6637db1414692286f0aa2246ab916c19bb606a8f839afaa8d45231b4a067f27005fd83bf3585655f5ef04d10bbe1308ba0290ec68590432e398da0bbc0",
      "networkId": 0,
      "chainId": 0
    }
  ]
}