{
  "hash": "0x1fd5a8d6ea1fb996821d7d9387858f86417f743f7529ccf74b40613805d15a3f",
  "parentHash": "0x8d81a8a0b7bbc0185d3e4aa7d4e9c64f2cde1f60a7a9d3ef9a2753b1ec58613d",
  "number": 49069,
  "timestamp": 1438967446,
  "nonce": "0x95ae7cb5f8e532dc",
  "difficulty": 1482178173301,
  "gasLimit": {
    "_hex": "0x25167"
  },
  "gasUsed": {
    "_hex": "0xa674"
  },
  "miner": "0xf927a40C8B7F6E07c5af7FA2155B4864a4112B13",
  "extraData": "0x476574682f76312e302e312f6c696e75782f676f312e342e32",
  "transactions": [
    {
      "hash": "0xf96e49450c9d7f82dfc0afc4c96fb29d284c1d83e9cdb2e94d507769be959ae6",
      "blockHash": "0x1fd5a8d6ea1fb996821d7d9387858f86417f743f7529ccf74b40613805d15a3f",
      "blockNumber": 49069,
      "transactionIndex": 0,
      "confirmations": null,
      "from": "0xA9Bfc410dDdb20711E45c07387eaB30a054e19aC",
      "gasPrice": {
        "_hex": "0x110c8f7d8de"
      },
      "gasLimit": {
        "_hex": "0xc350"
      },
      "to": "0x2910543Af39abA0Cd09dBb2D50200b3E800A63D2",
      "value": {
        "_hex": "0x3e5774bb09f3380000"
      },
      "nonce": 0,
      "data": "0x454e46324134585838",
      "r": "0xa7524dc44ecc87dac1b776a5b92345bcf767a55eca4790e04260f6768c3cfc1d",
      "s": "0x77a3f648ed398f2f91cd9ab0ffc0b737ff582c3c8ff22850d5f2544c3a24c69c",
      "v": 27,
      "creates": null,
      "raw": "0xf87780860110c8f7d8de82c350942910543af39aba0cd09dbb2d50200b3e800a63d2893e5774bb09f338000089454e463241345858381ba0a7524dc44ecc87dac1b776a5b92345bcf767a55eca4790e04260f6768c3cfc1da077a3f648ed398f2f91cd9ab0ffc0b737ff582c3c8ff22850d5f2544c3a24c69c",
      "networkId": 0,
      "chainId": 0
    },
    {
      "hash": "0xb2208dfc7190b211558f8ec8e0a558f596fc6baedaeea1ad9f8e3bb4d3ef95ff",
      "blockHash": "0x1fd5a8d6ea1fb996821d7d9387858f86417f743f7529ccf74b40613805d15a3f",
      "blockNumber": 49069,
      "transactionIndex": 1,
      "confirmations": null,
      "from": "0x671110d96aAFf11523CC546Bf9940EedFfB2faF7",
      "gasPrice": {
        "_hex": "0x396b680482"
      },
      "gasLimit": {
        "_hex": "0x15f90"
      },
      "to": "0x0F129d108a8C30aD6976b47A78895E3c4C4B56E3",
      "value": {
        "_hex": "0x3635c9adc5dea00000"
      },
      "nonce": 7,
      "data": "0x",
      "r": "0xcf6f1d7d849fe620b093c6fa0fc847a43cc2e447354dbe46523680210a62a997",
      "s": "0x4d4600f6e2d293dbe263efb3344fd1272071111c303948e7b9d49cc1b9313ca1",
      "v": 27,
      "creates": null,
      "raw": "0xf86e0785396b68048283015f90940f129d108a8c30ad6976b47a78895e3c4c4b56e3893635c9adc5dea00000801ba0cf6f1d7d849fe620b093c6fa0fc847a43cc2e447354dbe46523680210a62a997a04d4600f6e2d293dbe263efb3344fd1272071111c303948e7b9d49cc1b9313ca1",
      "networkId": 0,
      "chainId": 0
    }
  ]
}