{
  "hash": "0x1edb1bbdb580040e081a24fffbeca5abed8592e69ed07b3700f96586d9fb1312",
  "parentHash": "0xae3cb68086d8b9ac1954407c02721ddbbe664be8af97650f283e93e651917614",
  "number": 103616,
  "timestamp": 1439856217,
  "nonce": "0x49d2e3b063213131",
  "difficulty": 4197015169503,
  "gasLimit": {
    "_hex": "0x2fefd8"
  },
  "gasUsed": {
    "_hex": "0x5208"
  },
  "miner": "0xC603Ab5ef41fC61AA8b76bEddb09e3Cfcbb174BD",
  "extraData": "0x476574682f76312e302e312f77696e646f77732f676f312e342e32",
  "transactions": [
    {
      "hash": "0x3f81fb74b17880f7a2696da04754b91017edf0b857245d5710d172ff01b07db2",
      "blockHash": "0x1edb1bbdb580040e081a24fffbeca5abed8592e69ed07b3700f96586d9fb1312",
      "blockNumber": 103616,
      "transactionIndex": 0,
      "confirmations": null,
      "from": "0xc8ebccC5F5689Fa8659d83713341e5aD19349448",
      "gasPrice": {
        "_hex": "0xd62a3b9fd"
      },
      "gasLimit": {
        "_hex": "0x5208"
      },
      "to": "0x0F87Fb507513e749081E34373c84E95e85b5c057",
      "value": {
        "_hex": "0x455f477ebe432618"
      },
      "nonce": 74,
      "data": "0x",
      "r": "0x538ff39c376451e7809e6b72fd46a4e2f96c9dc2d7d86175dee500435ae88eac",
      "s": "0x105a95d232808561bd579e2f9ad51afa0ba3f2cea6f233fc3a8e038f0c06b4f5",
      "v": 28,
      "creates": null,
      "raw": "0xf86c4a850d62a3b9fd825208940f87fb507513e749081e34373c84e95e85b5c05788455f477ebe432618801ca0538ff39c376451e7809e6b72fd46a4e2f96c9dc2d7d86175dee500435ae88eaca0105a95d232808561bd579e2f9ad51afa0ba3f2cea6f233fc3a8e038f0c06b4f5",
      "networkId": 0,
      "chainId": 0
    }
  ]
}