{
  "hash": "0x81cff34c93aa920935355266aeafcaf914a7051ad7725f7e6e73faba3934a6e6",
  "parentHash": "0xc665db6441ee5164fbc1a41d5bd7ec23d2b8edbd8f5797b8fc36fcdf9f67e6db",
  "number": 79520,
  "timestamp": 1439470994,
  "nonce": "0x83eee06be35e426e",
  "difficulty": 2342710329857,
  "gasLimit": {
    "_hex": "0x2fefd8"
  },
  "gasUsed": {
    "_hex": "0x546c"
  },
  "miner": "0xe6A7a1d47ff21B6321162AEA7C6CB457D5476Bca",
  "extraData": "0x476574682f76312e302e312d38326566323666362f6c696e75782f676f312e34",
  "transactions": [
    {
      "hash": "0x5f9501f7be5243bcbce2ee52b3738a8a7f13590540cd647657c5af0576836d70",
      "blockHash": "0x81cff34c93aa920935355266aeafcaf914a7051ad7725f7e6e73faba3934a6e6",
      "blockNumber": 79520,
      "transactionIndex": 0,
      "confirmations": null,
      "from": "0x3bBC13d04ACcc0707AEBDcAeF087d0B87E0b5Ee3",
      "gasPrice": {
        "_hex": "0x110c8f7d8de"
      },
      "gasLimit": {
        "_hex": "0xc350"
      },
      "to": "0x2910543Af39abA0Cd09dBb2D50200b3E800A63D2",
      "value": {
        "_hex": "0xbe4709033915180000"
      },
      "nonce": 0,
      "data": "0x454e4e575856423830",
      "r": "0xdbbde3e2c03d4ddce0189fd16cffc5aee031226b941b6cf1d7232b11547443e4",
      "s": "0x412f9921197dc9982fcf8201ff365d08db1a5eb3461d6003beb8183aaa2c70cc",
      "v": 28,
      "creates": null,
      "raw": "0xf87780860110c8f7d8de82c350942910543af39aba0cd09dbb2d50200b3e800a63d289be470903391518000089454e4e5758564238301ca0dbbde3e2c03d4ddce0189fd16cffc5aee031226b941b6cf1d7232b11547443e4a0412f9921197dc9982fcf8201ff365d08db1a5eb3461d6003beb8183aaa2c70cc",
      "networkId": 0,
      "chainId": 0
    }
  ]
}