{
  "hash": "0xeeac670176ec8e345d0477bffa2e7ee3133d47ac279e20544d9c363ca9d0b887",
  "parentHash": "0xc7b3e889ff234d15c03d2e2d96a94178fec0adb78fba2a304d4c85a8d88931f5",
  "number": 89440,
  "timestamp": 1439623617,
  "nonce": "0xb607a41cf96e2c49",
  "difficulty": 3293407903084,
  "gasLimit": {
    "_hex": "0x2fefd8"
  },
  "gasUsed": {
    "_hex": "0x5208"
  },
  "miner": "0x123843545FB525C8E134c9A5F15ADA6865cc3848",
  "extraData": "0x476574682f76312e302e312f77696e646f77732f676f312e342e32",
  "transactions": [
    {
      "hash": "0xe04125c3bbb6f833b590671c5f1ce928523c5ad246102f6322b2a06b866a6b0e",
      "blockHash": "0xeeac670176ec8e345d0477bffa2e7ee3133d47ac279e20544d9c363ca9d0b887",
      "blockNumber": 89440,
      "transactionIndex": 0,
      "confirmations": null,
      "from": "0xc597A5d92F5dC1137D847db733cfe02c6d209f13",
      "gasPrice": {
        "_hex": "0xd7f84ec96"
      },
      "gasLimit": {
        "_hex": "0x15f90"
      },
      "to": "0x9eDef03C73bf73CA99d5a51a0A08763fF1Cea877",
      "value": {
        "_hex": "0x421721fca7e704000"
      },
      "nonce": 29,
      "data": "0x",
      "r": "0x7128128d99b239f90dfd62589ea7b1a6170e80951b16f4016d192662a548291a",
      "s": "0x0a70dc3afbe407770d376f3a7c3babd6bea26bcd6f5e053276929152b57dd575",
      "v": 27,
      "creates": null,
      "raw": "0xf86e1d850d7f84ec9683015f90949edef03c73bf73ca99d5a51a0a08763ff1cea877890421721fca7e704000801ba07128128d99b239f90dfd62589ea7b1a6170e80951b16f4016d192662a548291aa00a70dc3afbe407770d376f3a7c3babd6bea26bcd6f5e053276929152b57dd575",
      "networkId": 0,
      "chainId": 0
    }
  ]
}