{
  "hash": "0x99f95914c7722a1ad40e6af1ce4eab4f7d7e60dc724040b22a0bce6c54dcee8a",
  "parentHash": "0xe69a1541ab3b43433551369a8852e463e43ac566c2479f733ef7bf5a7bcad94c",
  "number": 76531,
  "timestamp": 1439422066,
  "nonce": "0x8ac0cf5f63dc182f",
  "difficulty": 2232953143041,
  "gasLimit": {
    "_hex": "0x2fefd8"
  },
  "gasUsed": {
    "_hex": "0x5318"
  },
  "miner": "0xe6A7a1d47ff21B6321162AEA7C6CB457D5476Bca",
  "extraData": "0x476574682f76312e302e312d38326566323666362f6c696e75782f676f312e34",
  "transactions": [
    {
      "hash": "0xdf5eb1de284d0420a9864a611375fd66b7cb421c538bd429d371fc81da418554",
      "blockHash": "0x99f95914c7722a1ad40e6af1ce4eab4f7d7e60dc724040b22a0bce6c54dcee8a",
      "blockNumber": 76531,
      "transactionIndex": 0,
      "confirmations": null,
      "from": "0x3FF679B0823a026F2378E5f5F22A6F127cC85828",
      "gasPrice": {
        "_hex": "0x108c85ef086"
      },
      "gasLimit": {
        "_hex": "0x61a8"
      },
      "to": "0x71800954e6FA0Cbc43c6440d3CC80660F18a8B6F",
      "value": {
        "_hex": "0x50aa25f43cf540000"
      },
      "nonce": 5,
      "data": "0x74657374",
      "r": "0xeacb75d1aae72cc6a6af9b0c9a33829af081c279f491e97ddc2576e4333509c1",
      "s": "0x1580028cea164667bde71d56b06ea1415ba68fcc69a050f6c85935234a56d13d",
      "v": 28,
      "creates": null,
      "raw": "0xf87205860108c85ef0868261a89471800954e6fa0cbc43c6440d3cc80660f18a8b6f89050aa25f43cf54000084746573741ca0eacb75d1aae72cc6a6af9b0c9a33829af081c279f491e97ddc2576e4333509c1a01580028cea164667bde71d56b06ea1415ba68fcc69a050f6c85935234a56d13d",
      "networkId": 0,
      "chainId": 0
    }
  ]
}