{
  "hash": "0x84bd4185e7361b6209d538232ba1a5a1148d5ebc90f757d399720ab6882eb90a",
  "parentHash": "0x6a3b6b9dfba1be995703b3881bff5d1e6cee20bdf23d1d98b102ff94399dc56e",
  "number": 83756,
  "timestamp": 1439540435,
  "nonce": "0x1a4e2577c07757c9",
  "difficulty": 2434803492882,
  "gasLimit": {
    "_hex": "0x2fefd8"
  },
  "gasUsed": {
    "_hex": "0xa410"
  },
  "miner": "0xf927a40C8B7F6E07c5af7FA2155B4864a4112B13",
  "extraData": "0x",
  "transactions": [
    {
      "hash": "0x48f83edc2a763a41131d3a1e7000a6b93e7c4263664a9e873b57b72202acb60f",
      "blockHash": "0x84bd4185e7361b6209d538232ba1a5a1148d5ebc90f757d399720ab6882eb90a",
      "blockNumber": 83756,
      "transactionIndex": 0,
      "confirmations": null,
      "from": "0x2910543Af39abA0Cd09dBb2D50200b3E800A63D2",
      "gasPrice": {
        "_hex": "0xe046bf110"
      },
      "gasLimit": {
        "_hex": "0x5208"
      },
      "to": "0xD05f85Eb920117eeBBf13dd94FeEA60e9eB34537",
      "value": {
        "_hex": "0x2c5dc1c7f1a9a6000"
      },
      "nonce": 531,
      "data": "0x",
      "r": "0x8b548e087aad02811556dc5f9f0cd8402372c59ab550c6e4389f147620978ef1",
      "s": "0x16ca82ac0d9f2d257fbda4c84b9f8be00d84578b2dedc4c300fd11f219ac9937",
      "v": 28,
      "creates": null,
      "raw": "0xf86f820213850e046bf11082520894d05f85eb920117eebbf13dd94feea60e9eb345378902c5dc1c7f1a9a6000801ca08b548e087aad02811556dc5f9f0cd8402372c59ab550c6e4389f147620978ef1a016ca82ac0d9f2d257fbda4c84b9f8be00d84578b2dedc4c300fd11f219ac9937",
      "networkId": 0,
      "chainId": 0
    },
    {
      "hash": "0x26348009e716beb23f8dcdf24cce8af7e779d892d9909ba9f281b3549da8780a",
      "blockHash": "0x84bd4185e7361b6209d538232ba1a5a1148d5ebc90f757d399720ab6882eb90a",
      "blockNumber": 83756,
      "transactionIndex": 1,
      "confirmations": null,
      "from": "0xc93a69dFC0fb3E867D9207599f7fe87d51619635",
      "gasPrice": {
        "_hex": "0xba43b7400"
      },
      "gasLimit": {
        "_hex": "0x5208"
      },
      "to": "0xC47Aaa860008be6f65B58c6C6E02a84e666EfE31",
      "value": {
        "_hex": "0x1b9a2b7cb20338f0"
      },
      "nonce": 0,
      "data": "0x",
      "r": "0x3574fd1ddc80861ffcf76a55bcf0d35f14d045f88d6cbe81ac58eb4d735f5641",
      "s": "0x1f89b5d3133b53dbe93a8dda4180444705ec1116108799b2ccf894e33cf1598e",
      "v": 28,
      "creates": null,
      "raw": "0xf86c80850ba43b740082520894c47aaa860008be6f65b58c6c6e02a84e666efe31881b9a2b7cb20338f0801ca03574fd1ddc80861ffcf76a55bcf0d35f14d045f88d6cbe81ac58eb4d735f5641a01f89b5d3133b53dbe93a8dda4180444705ec1116108799b2ccf894e33cf1598e",
      "networkId": 0,
      "chainId": 0
    }
  ]
}