{
  "hash": "0xcd978828466450cb673930ebbd127ed847fe2198832063e2a35f6000ddf1677b",
  "parentHash": "0x5a431c63110467347cd0e85310ab3d612e51b7aa0651bf6dee6d2ee5de64370e",
  "number": 85684,
  "timestamp": 1439567175,
  "nonce": "0xbf6de33a3eb845b6",
  "difficulty": 2788150338591,
  "gasLimit": {
    "_hex": "0x2fefd8"
  },
  "gasUsed": {
    "_hex": "0x410e7"
  },
  "miner": "0xe6A7a1d47ff21B6321162AEA7C6CB457D5476Bca",
  "extraData": "0x476574682f76312e302e312d38326566323666362f6c696e75782f676f312e34",
  "transactions": [
    {
      "hash": "0x33d4c6bcfbf695955177983b2f367381e142e2944888ed10e56b0eba9c6a35fa",
      "blockHash": "0xcd978828466450cb673930ebbd127ed847fe2198832063e2a35f6000ddf1677b",
      "blockNumber": 85684,
      "transactionIndex": 0,
      "confirmations": null,
      "from": "0x07DD04f7355E91a3556482a927Dfa3122a2AD580",
      "gasPrice": {
        "_hex": "0xe17e7f720"
      },
      "gasLimit": {
        "_hex": "0xf4240"
      },
      "to": null,
      "value": {
        "_hex": "0x0"
      },
      "nonce": 2,
      "data": "0x60606040526040516102b43803806102b48339016040526060805160600190602001505b5b33600060006101000a81548173ffffffffffffffffffffffffffffffffffffffff021916908302179055505b806001600050908051906020019082805482825590600052602060002090601f01602090048101928215609e579182015b82811115609d5782518260005055916020019190600101906081565b5b50905060c5919060a9565b8082111560c1576000818150600090555060010160a9565b5090565b50505b506101dc806100d86000396000f30060606040526000357c01000000000000000000000000000000000000000000000000000000009004806341c0e1b514610044578063cfae32171461005157610042565b005b61004f6004506100ca565b005b61005c60045061015e565b60405180806020018281038252838181518152602001915080519060200190808383829060006004602084601f0104600302600f01f150905090810190601f1680156100bc5780820380516001836020036101000a031916815260200191505b509250505060405180910390f35b600060009054906101000a900473ffffffffffffffffffffffffffffffffffffffff1673ffffffffffffffffffffffffffffffffffffffff163373ffffffffffffffffffffffffffffffffffffffff16141561015b57600060009054906101000a900473ffffffffffffffffffffffffffffffffffffffff1673ffffffffffffffffffffffffffffffffffffffff16ff5b5b565b60206040519081016040528060008152602001506001600050805480601f016020809104026020016040519081016040528092919081815260200182805480156101cd57820191906000526020600020905b8154815290600101906020018083116101b057829003601f168201915b505050505090506101d9565b9056000000000000000000000000000000000000000000000000000000000000002000000000000000000000000000000000000000000000000000000000000000114f206272617665206e657720776f726c64000000000000000000000000000000",
      "r": "0xf0a4c634b34de7a3917068ac3df16f5927b336cb74b4d4d8be5ddd0407a2b89f",
      "s": "0x5c895194ed2d0f305a2f1cba171da6b8fe50e0c4eb614de43b53b5708a712709",
      "v": 28,
      "creates": "0xED3754Be081E3d77dFC75A5Dfb904F28D9Ce4339",
      "raw": "0xf9036702850e17e7f720830f42408080b9031460606040526040516102b43803806102b48339016040526060805160600190602001505b5b33600060006101000a81548173ffffffffffffffffffffffffffffffffffffffff021916908302179055505b806001600050908051906020019082805482825590600052602060002090601f01602090048101928215609e579182015b82811115609d5782518260005055916020019190600101906081565b5b50905060c5919060a9565b8082111560c1576000818150600090555060010160a9565b5090565b50505b506101dc806100d86000396000f30060606040526000357c01000000000000000000000000000000000000000000000000000000009004806341c0e1b514610044578063cfae32171461005157610042565b005b61004f6004506100ca565b005b61005c60045061015e565b60405180806020018281038252838181518152602001915080519060200190808383829060006004602084601f0104600302600f01f150905090810190601f1680156100bc5780820380516001836020036101000a031916815260200191505b509250505060405180910390f35b600060009054906101000a900473ffffffffffffffffffffffffffffffffffffffff1673ffffffffffffffffffffffffffffffffffffffff163373ffffffffffffffffffffffffffffffffffffffff16141561015b57600060009054906101000a900473ffffffffffffffffffffffffffffffffffffffff1673ffffffffffffffffffffffffffffffffffffffff16ff5b5b565b60206040519081016040528060008152602001506001600050805480601f016020809104026020016040519081016040528092919081815260200182805480156101cd57820191906000526020600020905b8154815290600101906020018083116101b057829003601f168201915b505050505090506101d9565b9056000000000000000000000000000000000000000000000000000000000000002000000000000000000000000000000000000000000000000000000000000000114f206272617665206e657720776f726c640000000000000000000000000000001ca0f0a4c634b34de7a3917068ac3df16f5927b336cb74b4d4d8be5ddd0407a2b89fa05c895194ed2d0f305a2f1cba171da6b8fe50e0c4eb614de43b53b5708a712709",
      "networkId": 0,
      "chainId": 0
    },
    {
      "hash": "0x5142cb77d5fbddb4a093ba5d145f560d7eea785266cdae264a9ad61a7b59ff57",
      "blockHash": "0xcd978828466450cb673930ebbd127ed847fe2198832063e2a35f6000ddf1677b",
      "blockNumber": 85684,
      "transactionIndex": 1,
      "confirmations": null,
      "from": "0x02020D22dCF88f5eDd66B382D7da019F161fB7e3",
      "gasPrice": {
        "_hex": "0xdfa910198"
      },
      "gasLimit": {
        "_hex": "0x15f90"
      },
      "to": "0xCAc7000C7dBaa2E33Af15325AF5D435E011C7BdD",
      "value": {
        "_hex": "0x56bc75e2d63100000"
      },
      "nonce": 8,
      "data": "0xb214faa5384e53354b355737410000000000000000000000000000000000000000000000",
      "r": "0x62aa5269787a1cd5cd6746dae8e0a0e98d8c9ceaf02430b171e40f6f84eeb8b4",
      "s": "0x3d7db57fb0ed2864512da3e735a2021b13d4a76143c17830054c3034e7d05bee",
      "v": 28,
      "creates": null,
      "raw": "0xf89208850dfa91019883015f9094cac7000c7dbaa2e33af15325af5d435e011c7bdd89056bc75e2d63100000a4b214faa5384e53354b3557374100000000000000000000000000000000000000000000001ca062aa5269787a1cd5cd6746dae8e0a0e98d8c9ceaf02430b171e40f6f84eeb8b4a03d7db57fb0ed2864512da3e735a2021b13d4a76143c17830054c3034e7d05bee",
      "networkId": 0,
      "chainId": 0
    },
    {
      "hash": "0x095e391cc6cd3d5767b97375e1f8cb38a7ba32c9d96ca9aa9567e092805ec873",
      "blockHash": "0xcd978828466450cb673930ebbd127ed847fe2198832063e2a35f6000ddf1677b",
      "blockNumber": 85684,
      "transactionIndex": 2,
      "confirmations": null,
      "from": "0xb3395f0a13448d9A660aC4aB2aBBC61F555f3656",
      "gasPrice": {
        "_hex": "0xd7ad68382"
      },
      "gasLimit": {
        "_hex": "0x7530"
      },
      "to": "0x6De181Fc4C140FA31F196e5393516c49EEeBdAd3",
      "value": {
        "_hex": "0x8ac7230489e80000"
      },
      "nonce": 3,
      "data": "0x",
      "r": "0x4ab761f4c22367c820f59a75318fe9c1df19ad8e34e7d9c8c0fb668b39c34ab0",
      "s": "0x7eaee084d85be8b11e555d876aa57a7e75597cb8fbd8aff06a7bf8d28bbdfb63",
      "v": 28,
      "creates": null,
      "raw": "0xf86c03850d7ad68382827530946de181fc4c140fa31f196e5393516c49eeebdad3888ac7230489e80000801ca04ab761f4c22367c820f59a75318fe9c1df19ad8e34e7d9c8c0fb668b39c34ab0a07eaee084d85be8b11e555d876aa57a7e75597cb8fbd8aff06a7bf8d28bbdfb63",
      "networkId": 0,
      "chainId": 0
    }
  ]
}