{
  "hash": "0x5764de5c81d8a7d139ed1b3633f060c06f400ea1c2613befe4f005326c73b829",
  "parentHash": "0x33265eb27e9434dedc5e542e05882264a18dee12e79c5d8619d72e9c36650d4e",
  "number": 105330,
  "timestamp": 1439885669,
  "nonce": "0xd06cc975a745b52c",
  "difficulty": 4363313636441,
  "gasLimit": {
    "_hex": "0x2fefd8"
  },
  "gasUsed": {
    "_hex": "0x6baa8"
  },
  "miner": "0x55bAf64fc9eAccFFd7Cc643BB61142E1C6ac093e",
  "extraData": "0x",
  "transactions": [
    {
      "hash": "0x1ad9b6c27f9cd7a93cac6622f9d9c378e810f9aaf67f858a30ab7513c3b9b25d",
      "blockHash": "0x5764de5c81d8a7d139ed1b3633f060c06f400ea1c2613befe4f005326c73b829",
      "blockNumber": 105330,
      "transactionIndex": 0,
      "confirmations": null,
      "from": "0x64fd89BDC1a51083fa01B387A4F8d02899321850",
      "gasPrice": {
        "_hex": "0xdaf4d6582"
      },
      "gasLimit": {
        "_hex": "0x5208"
      },
      "to": "0x32Be343B94f860124dC4fEe278FDCBD38C102D88",
      "value": {
        "_hex": "0x1c29eb947784d400"
      },
      "nonce": 2,
      "data": "0x",
      "r": "0x07a60b9ae600e4c61dbda2d1c4a6bd0a9af206353b236a0402060160a16b7aab",
      "s": "0x7fb4a469fb14f97e7f3d67843c0d274e9e4795481c8fe487753e5149865ed034",
      "v": 28,
      "creates": null,
      "raw": "0xf86c02850daf4d65828252089432be343b94f860124dc4fee278fdcbd38c102d88881c29eb947784d400801ca007a60b9ae600e4c61dbda2d1c4a6bd0a9af206353b236a0402060160a16b7aaba07fb4a469fb14f97e7f3d67843c0d274e9e4795481c8fe487753e5149865ed034",
      "networkId": 0,
      "chainId": 0
    },
    {
      "hash": "0x95ec5b79dfaad412498f12486a0e820706ceae0b2dcc1c39cfa67c0f3127cc6a",
      "blockHash": "0x5764de5c81d8a7d139ed1b3633f060c06f400ea1c2613befe4f005326c73b829",
      "blockNumber": 105330,
      "transactionIndex": 1,
      "confirmations": null,
      "from": "0x0f36D8B9254f1B059d0B4c4FeEceB82EE24a6180",
      "gasPrice": {
        "_hex": "0xdaf4d6582"
      },
      "gasLimit": {
        "_hex": "0x5208"
      },
      "to": "0x32Be343B94f860124dC4fEe278FDCBD38C102D88",
      "value": {
        "_hex": "0x25e856948bc07400"
      },
      "nonce": 2,
      "data": "0x",
      "r": "0x6cdad2b590b1e6a6ea786d7ee1080efc03bd603834d30721ce56e17ae2653409",
      "s": "0x5ebd75c3a4266269aa4f2ce1ad5451b1e0afa41b8cb85815248ea7ebcf8e3fcd",
      "v": 28,
      "creates": null,
      "raw": "0xf86c02850daf4d65828252089432be343b94f860124dc4fee278fdcbd38c102d888825e856948bc07400801ca06cdad2b590b1e6a6ea786d7ee1080efc03bd603834d30721ce56e17ae2653409a05ebd75c3a4266269aa4f2ce1ad5451b1e0afa41b8cb85815248ea7ebcf8e3fcd",
      "networkId": 0,
      "chainId": 0
    },
    {
      "hash": "0x6bc28aebb1bd33472ba380a7082e4c0f526e1ddc443d198fe601b405f413ae88",
      "blockHash": "0x5764de5c81d8a7d139ed1b3633f060c06f400ea1c2613befe4f005326c73b829",
      "blockNumber": 105330,
      "transactionIndex": 2,
      "confirmations": null,
      "from": "0xe6A7a1d47ff21B6321162AEA7C6CB457D5476Bca",
      "gasPrice": {
        "_hex": "0xd39d42674"
      },
      "gasLimit": {
        "_hex": "0x55f0"
      },
      "to": "0xb3395f0a13448d9A660aC4aB2aBBC61F555f3656",
      "value": {
        "_hex": "0x8676aff5e1080f78"
      },
      "nonce": 3851,
      "data": "0x",
      "r": "0x43353fd34c5b7b85fbb2d115576d075feac71559a2740c918ab6a94d6ff4b79f",
      "s": "0x2ddba31cd24052f591d17eb8c92591272b06d4b4687616c91344bb4d003e6168",
      "v": 28,
      "creates": null,
      "raw": "0xf86e820f0b850d39d426748255f094b3395f0a13448d9a660ac4ab2abbc61f555f3656888676aff5e1080f78801ca043353fd34c5b7b85fbb2d115576d075feac71559a2740c918ab6a94d6ff4b79fa02ddba31cd24052f591d17eb8c92591272b06d4b4687616c91344bb4d003e6168",
      "networkId": 0,
      "chainId": 0
    },
    {
      "hash": "0xaa0a729dffd6d1e7e16fc21047f48e6b5c7bf0ccbaef3f50a5c379009f5b13f8",
      "blockHash": "0x5764de5c81d8a7d139ed1b3633f060c06f400ea1c2613befe4f005326c73b829",
      "blockNumber": 105330,
      "transactionIndex": 3,
      "confirmations": null,
      "from": "0xe6A7a1d47ff21B6321162AEA7C6CB457D5476Bca",
      "gasPrice": {
        "_hex": "0xd39d42674"
      },
      "gasLimit": {
        "_hex": "0x55f0"
      },
      "to": "0x702bD0d370bBf0B97B66FE95578c62697c583393",
      "value": {
        "_hex": "0x867a1d5a1c80e960"
      },
      "nonce": 3852,
      "data": "0x",
      "r": "0x51944e4706bb8952e69c66653c51f16a8b5b044db8495b47e46d8e4a88f72b7b",
      "s": "0x44a2202ff54ffb78011eacf614a8ff33d052a6ee16ec36f6a5d3225bdc891b37",
      "v": 28,
      "creates": null,
      "raw": "0xf86e820f0c850d39d426748255f094702bd0d370bbf0b97b66fe95578c62697c58339388867a1d5a1c80e960801ca051944e4706bb8952e69c66653c51f16a8b5b044db8495b47e46d8e4a88f72b7ba044a2202ff54ffb78011eacf614a8ff33d052a6ee16ec36f6a5d3225bdc891b37",
      "networkId": 0,
      "chainId": 0
    },
    {
      "hash": "0x806e60b82c75aeda77a06f820d37a33ff43f020c6ca4aa9f4836aac7bc7ab26e",
      "blockHash": "0x5764de5c81d8a7d139ed1b3633f060c06f400ea1c2613befe4f005326c73b829",
      "blockNumber": 105330,
      "transactionIndex": 4,
      "confirmations": null,
      "from": "0xe6A7a1d47ff21B6321162AEA7C6CB457D5476Bca",
      "gasPrice": {
        "_hex": "0xd39d42674"
      },
      "gasLimit": {
        "_hex": "0x55f0"
      },
      "to": "0xbc681E36E2BC0d9Cb397811ce7a5821da2D66059",
      "value": {
        "_hex": "0x8b1f09d99227bf08"
      },
      "nonce": 3853,
      "data": "0x",
      "r": "0x12a14e6cc2097396b50ad63ceceac4acca6d8250f616a393584596ec3cb7e64f",
      "s": "0x00d9b7f081b6697b22d22ad3a0c1c1a35b3d8c6c3d7db3ba88167af52701e8c1",
      "v": 27,
      "creates": null,
      "raw": "0xf86d820f0d850d39d426748255f094bc681e36e2bc0d9cb397811ce7a5821da2d66059888b1f09d99227bf08801ba012a14e6cc2097396b50ad63ceceac4acca6d8250f616a393584596ec3cb7e64f9fd9b7f081b6697b22d22ad3a0c1c1a35b3d8c6c3d7db3ba88167af52701e8c1",
      "networkId": 0,
      "chainId": 0
    },
    {
      "hash": "0x2dfea0b19a7d33a11760140bdd1e217d7953c5849a024a08ba4d77ff8ea219cd",
      "blockHash": "0x5764de5c81d8a7d139ed1b3633f060c06f400ea1c2613befe4f005326c73b829",
      "blockNumber": 105330,
      "transactionIndex": 5,
      "confirmations": null,
      "from": "0xe6A7a1d47ff21B6321162AEA7C6CB457D5476Bca",
      "gasPrice": {
        "_hex": "0xd39d42674"
      },
      "gasLimit": {
        "_hex": "0x55f0"
      },
      "to": "0xAD220cCE3937674e425c9693786E3eC3615C900C",
      "value": {
        "_hex": "0x8bf242d3c0892948"
      },
      "nonce": 3854,
      "data": "0x",
      "r": "0xe760789ca25efd44e795db7d985c3c9aff1be3aa73b87fbbbb9aac727e341ec9",
      "s": "0x137eed6b2cf0c2f0c98334f1cdc5b1953933600ba0e75a18f779f3dbd0e5f25b",
      "v": 28,
      "creates": null,
      "raw": "0xf86e820f0e850d39d426748255f094ad220cce3937674e425c9693786e3ec3615c900c888bf242d3c0892948801ca0e760789ca25efd44e795db7d985c3c9aff1be3aa73b87fbbbb9aac727e341ec9a0137eed6b2cf0c2f0c98334f1cdc5b1953933600ba0e75a18f779f3dbd0e5f25b",
      "networkId": 0,
      "chainId": 0
    },
    {
      "hash": "0x2161a582446897dbe84a55b94df10227225cebbf5df5375ca1974a9012d1f850",
      "blockHash": "0x5764de5c81d8a7d139ed1b3633f060c06f400ea1c2613befe4f005326c73b829",
      "blockNumber": 105330,
      "transactionIndex": 6,
      "confirmations": null,
      "from": "0xe6A7a1d47ff21B6321162AEA7C6CB457D5476Bca",
      "gasPrice": {
        "_hex": "0xd39d42674"
      },
      "gasLimit": {
        "_hex": "0x55f0"
      },
      "to": "0x59C7860aBcb1eE791165B63365c3C8657EEe54c5",
      "value": {
        "_hex": "0x8c548c1b0b580690"
      },
      "nonce": 3855,
      "data": "0x",
      "r": "0x4e4f21f37d9e0b57401b91ce97346b8b662e9fa5c48b2b3518d31c2b9d5a5540",
      "s": "0x28006d0540e5fe923ae025131e4d3c82fbae1e55d2bdca249f736aac42bc6af1",
      "v": 28,
      "creates": null,
      "raw": "0xf86e820f0f850d39d426748255f09459c7860abcb1ee791165b63365c3c8657eee54c5888c548c1b0b580690801ca04e4f21f37d9e0b57401b91ce97346b8b662e9fa5c48b2b3518d31c2b9d5a5540a028006d0540e5fe923ae025131e4d3c82fbae1e55d2bdca249f736aac42bc6af1",
      "networkId": 0,
      "chainId": 0
    },
    {
      "hash": "0xefa08bc779b66a6af9663a2189dca1c268c14c1c98c8aa639947b85870c2f917",
      "blockHash": "0x5764de5c81d8a7d139ed1b3633f060c06f400ea1c2613befe4f005326c73b829",
      "blockNumber": 105330,
      "transactionIndex": 7,
      "confirmations": null,
      "from": "0xe6A7a1d47ff21B6321162AEA7C6CB457D5476Bca",
      "gasPrice": {
        "_hex": "0xd39d42674"
      },
      "gasLimit": {
        "_hex": "0x55f0"
      },
      "to": "0x7550E0d09f273C690454B44F794D7D381B2E55EA",
      "value": {
        "_hex": "0x8ce8919ecf27bee0"
      },
      "nonce": 3856,
      "data": "0x",
      "r": "0x32059c63366e964a7a1aeb052f049ab1a6166bde0aca66bd0d408c2f3f155c3d",
      "s": "0x2f36aa3b36078bb1465ad299ff9b744fc46ef039196ac3e96c8ae7b9a78217e8",
      "v": 27,
      "creates": null,
      "raw": "0xf86e820f10850d39d426748255f0947550e0d09f273c690454b44f794d7d381b2e55ea888ce8919ecf27bee0801ba032059c63366e964a7a1aeb052f049ab1a6166bde0aca66bd0d408c2f3f155c3da02f36aa3b36078bb1465ad299ff9b744fc46ef039196ac3e96c8ae7b9a78217e8",
      "networkId": 0,
      "chainId": 0
    },
    {
      "hash": "0x8ad74c008cd788b68b87e258e225a1418f99519a1e012a2016c3d06a82264db7",
      "blockHash": "0x5764de5c81d8a7d139ed1b3633f060c06f400ea1c2613befe4f005326c73b829",
      "blockNumber": 105330,
      "transactionIndex": 8,
      "confirmations": null,
      "from": "0xe6A7a1d47ff21B6321162AEA7C6CB457D5476Bca",
      "gasPrice": {
        "_hex": "0xd39d42674"
      },
      "gasLimit": {
        "_hex": "0x55f0"
      },
      "to": "0xaa71fa80d26F718E6A3c87e41D817b8D10944a63",
      "value": {
        "_hex": "0x8d07d6a834202810"
      },
      "nonce": 3857,
      "data": "0x",
      "r": "0x6d8096962ebce5dcd64e5571c199c1e2cad35fae8324d3a7ee82a3ce9e38b03f",
      "s": "0x630181787e844b00c0b0fa743602ab691dbd5b953f592ad213f6fd11e09c3d08",
      "v": 27,
      "creates": null,
      "raw": "0xf86e820f11850d39d426748255f094aa71fa80d26f718e6a3c87e41d817b8d10944a63888d07d6a834202810801ba06d8096962ebce5dcd64e5571c199c1e2cad35fae8324d3a7ee82a3ce9e38b03fa0630181787e844b00c0b0fa743602ab691dbd5b953f592ad213f6fd11e09c3d08",
      "networkId": 0,
      "chainId": 0
    },
    {
      "hash": "0x3079a50191cfc3289663a1fa72db4fd5f69ff2041424d12909b66a46b2c4e9a3",
      "blockHash": "0x5764de5c81d8a7d139ed1b3633f060c06f400ea1c2613befe4f005326c73b829",
      "blockNumber": 105330,
      "transactionIndex": 9,
      "confirmations": null,
      "from": "0xe6A7a1d47ff21B6321162AEA7C6CB457D5476Bca",
      "gasPrice": {
        "_hex": "0xd39d42674"
      },
      "gasLimit": {
        "_hex": "0x55f0"
      },
      "to": "0x60781265e9850f54AE0Bc9545948d05DeE6FC3e3",
      "value": {
        "_hex": "0x8d70d196259f1e48"
      },
      "nonce": 3858,
      "data": "0x",
      "r": "0x7fc71b1c515787aa272ef92c130a6f31bebcc4c236f357fcaec84b71726aa5cd",
      "s": "0x200abe857eea93d6989c27a330fa9068d57e425f04663846cf0da136b3513a65",
      "v": 27,
      "creates": null,
      "raw": "0xf86e820f12850d39d426748255f09460781265e9850f54ae0bc9545948d05dee6fc3e3888d70d196259f1e48801ba07fc71b1c515787aa272ef92c130a6f31bebcc4c236f357fcaec84b71726aa5cda0200abe857eea93d6989c27a330fa9068d57e425f04663846cf0da136b3513a65",
      "networkId": 0,
      "chainId": 0
    },
    {
      "hash": "0x3b19e8f085789d7643c07bec5b9abea28aeb670387630d684756806afd93957b",
      "blockHash": "0x5764de5c81d8a7d139ed1b3633f060c06f400ea1c2613befe4f005326c73b829",
      "blockNumber": 105330,
      "transactionIndex": 10,
      "confirmations": null,
      "from": "0xe6A7a1d47ff21B6321162AEA7C6CB457D5476Bca",
      "gasPrice": {
        "_hex": "0xd39d42674"
      },
      "gasLimit": {
        "_hex": "0x55f0"
      },
      "to": "0x46b29910396E1cF71678f81101334A180876E9b1",
      "value": {
        "_hex": "0x8ec33b273a04c7e0"
      },
      "nonce": 3859,
      "data": "0x",
      "r": "0x5b579f9139e0f80b8411290519a8b609a245e2777760e790a6884b52b3b49beb",
      "s": "0x561bfdc16d8d156f0331b2e368fc63ebd2e27df924d1cc0564843dcff37e60d0",
      "v": 27,
      "creates": null,
      "raw": "0xf86e820f13850d39d426748255f09446b29910396e1cf71678f81101334a180876e9b1888ec33b273a04c7e0801ba05b579f9139e0f80b8411290519a8b609a245e2777760e790a6884b52b3b49beba0561bfdc16d8d156f0331b2e368fc63ebd2e27df924d1cc0564843dcff37e60d0",
      "networkId": 0,
      "chainId": 0
    },
    {
      "hash": "0x573ec0e2a2223dced2abe6b522349e0afd33225de6537abdfa254a96fce8923f",
      "blockHash": "0x5764de5c81d8a7d139ed1b3633f060c06f400ea1c2613befe4f005326c73b829",
      "blockNumber": 105330,
      "transactionIndex": 11,
      "confirmations": null,
      "from": "0xe6A7a1d47ff21B6321162AEA7C6CB457D5476Bca",
      "gasPrice": {
        "_hex": "0xd39d42674"
      },
      "gasLimit": {
        "_hex": "0x55f0"
      },
      "to": "0x0e308556B1C6EEB7457a08f91D5E132b4a54C9F1",
      "value": {
        "_hex": "0x8fa712158fc7f978"
      },
      "nonce": 3860,
      "data": "0x",
      "r": "0x167399b872ec0663674f6e052ba9cba1bfd5d9a258c8da008c68d537d0939331",
      "s": "0x0174e6e383e3dc335dc5bf3ea1bf8dea4a70c9fa6828b7d606be750b996d8e7c",
      "v": 28,
      "creates": null,
      "raw": "0xf86e820f14850d39d426748255f0940e308556b1c6eeb7457a08f91d5e132b4a54c9f1888fa712158fc7f978801ca0167399b872ec0663674f6e052ba9cba1bfd5d9a258c8da008c68d537d0939331a00174e6e383e3dc335dc5bf3ea1bf8dea4a70c9fa6828b7d606be750b996d8e7c",
      "networkId": 0,
      "chainId": 0
    },
    {
      "hash": "0xfe6cd2c5307982be8ce80b02cbfec03b028a38f42b6cce94524573592518021c",
      "blockHash": "0x5764de5c81d8a7d139ed1b3633f060c06f400ea1c2613befe4f005326c73b829",
      "blockNumber": 105330,
      "transactionIndex": 12,
      "confirmations": null,
      "from": "0xe6A7a1d47ff21B6321162AEA7C6CB457D5476Bca",
      "gasPrice": {
        "_hex": "0xd39d42674"
      },
      "gasLimit": {
        "_hex": "0x55f0"
      },
      "to": "0x014687B2Ed3c3256fe367D6aC47ab2482E055F6b",
      "value": {
        "_hex": "0x903b590198f1f6a8"
      },
      "nonce": 3861,
      "data": "0x",
      "r": "0xf6c207daa9b12980f8e118867b44b6b1bf02cfe4dc6889fa83cd7931f9ea7908",
      "s": "0x513b043d7c7d798033526c3d3fe52486257a8822530ca0b44907ccfeb4eb3100",
      "v": 27,
      "creates": null,
      "raw": "0xf86e820f15850d39d426748255f094014687b2ed3c3256fe367d6ac47ab2482e055f6b88903b590198f1f6a8801ba0f6c207daa9b12980f8e118867b44b6b1bf02cfe4dc6889fa83cd7931f9ea7908a0513b043d7c7d798033526c3d3fe52486257a8822530ca0b44907ccfeb4eb3100",
      "networkId": 0,
      "chainId": 0
    },
    {
      "hash": "0x9d210cbdf15860c85acee76d9d971dd6df89e4a9e25105b7e6ad1a281db0e74c",
      "blockHash": "0x5764de5c81d8a7d139ed1b3633f060c06f400ea1c2613befe4f005326c73b829",
      "blockNumber": 105330,
      "transactionIndex": 13,
      "confirmations": null,
      "from": "0xe6A7a1d47ff21B6321162AEA7C6CB457D5476Bca",
      "gasPrice": {
        "_hex": "0xd39d42674"
      },
      "gasLimit": {
        "_hex": "0x55f0"
      },
      "to": "0xa50ec0D39fa913E62f1Bae7074E6F36caA71855b",
      "value": {
        "_hex": "0x90fdc64945bbc6a8"
      },
      "nonce": 3862,
      "data": "0x",
      "r": "0xeefaed213b26a9020187fad8ad4a79d3007a1b50dd6e098b2cc6b4c8e2b5ba5b",
      "s": "0x4a05b61d57f08794ea94f60bcc1e196f071ccdda0a5a489d9fbc4c536135132d",
      "v": 27,
      "creates": null,
      "raw": "0xf86e820f16850d39d426748255f094a50ec0d39fa913e62f1bae7074e6f36caa71855b8890fdc64945bbc6a8801ba0eefaed213b26a9020187fad8ad4a79d3007a1b50dd6e098b2cc6b4c8e2b5ba5ba04a05b61d57f08794ea94f60bcc1e196f071ccdda0a5a489d9fbc4c536135132d",
      "networkId": 0,
      "chainId": 0
    },
    {
      "hash": "0x8e626b41511dee21541cd70fbc9d0da353dfd1c24e20eb502dc44b388d356b71",
      "blockHash": "0x5764de5c81d8a7d139ed1b3633f060c06f400ea1c2613befe4f005326c73b829",
      "blockNumber": 105330,
      "transactionIndex": 14,
      "confirmations": null,
      "from": "0xe6A7a1d47ff21B6321162AEA7C6CB457D5476Bca",
      "gasPrice": {
        "_hex": "0xd39d42674"
      },
      "gasLimit": {
        "_hex": "0x55f0"
      },
      "to": "0xE21812b7c0Bd57f6922B6A5670BDAec864beEF6b",
      "value": {
        "_hex": "0x913ad033a0cd08f0"
      },
      "nonce": 3863,
      "data": "0x",
      "r": "0x6d2a74e8948cca4a34363d84692c52c4bd619ff83290a640bb5797b44b4b5e15",
      "s": "0x1bc7be5e782c312f98578d60783939c84bf6ac640ad26d03dcd936ba81b965cf",
      "v": 27,
      "creates": null,
      "raw": "0xf86e820f17850d39d426748255f094e21812b7c0bd57f6922b6a5670bdaec864beef6b88913ad033a0cd08f0801ba06d2a74e8948cca4a34363d84692c52c4bd619ff83290a640bb5797b44b4b5e15a01bc7be5e782c312f98578d60783939c84bf6ac640ad26d03dcd936ba81b965cf",
      "networkId": 0,
      "chainId": 0
    },
    {
      "hash": "0x23a08c819243ff58eb4c398a96d63d61b533102b8d7a51ce0250d8ee5db22c7b",
      "blockHash": "0x5764de5c81d8a7d139ed1b3633f060c06f400ea1c2613befe4f005326c73b829",
      "blockNumber": 105330,
      "transactionIndex": 15,
      "confirmations": null,
      "from": "0xe6A7a1d47ff21B6321162AEA7C6CB457D5476Bca",
      "gasPrice": {
        "_hex": "0xd39d42674"
      },
      "gasLimit": {
        "_hex": "0x55f0"
      },
      "to": "0x3234d29E2390E0Ac637B3ad0ACA3dF88aC82dC5d",
      "value": {
        "_hex": "0x9209de31497f4988"
      },
      "nonce": 3864,
      "data": "0x",
      "r": "0x10c4c5aa3f4acb8b750add3c463d53a73dfa01414cb959632d9cbb4713f7e5e6",
      "s": "0x631456b793a708d2071ba3dc0ed2de4469955a5f360ff493bb581634e8f86674",
      "v": 28,
      "creates": null,
      "raw": "0xf86e820f18850d39d426748255f0943234d29e2390e0ac637b3ad0aca3df88ac82dc5d889209de31497f4988801ca010c4c5aa3f4acb8b750add3c463d53a73dfa01414cb959632d9cbb4713f7e5e6a0631456b793a708d2071ba3dc0ed2de4469955a5f360ff493bb581634e8f86674",
      "networkId": 0,
      "chainId": 0
    },
    {
      "hash": "0xbf69ff04cb7dc8cef8ed5dba2a740fd546c7a44d02ced23dfaefa7dd34aea072",
      "blockHash": "0x5764de5c81d8a7d139ed1b3633f060c06f400ea1c2613befe4f005326c73b829",
      "blockNumber": 105330,
      "transactionIndex": 16,
      "confirmations": null,
      "from": "0xe6A7a1d47ff21B6321162AEA7C6CB457D5476Bca",
      "gasPrice": {
        "_hex": "0xd39d42674"
      },
      "gasLimit": {
        "_hex": "0x55f0"
      },
      "to": "0xd8F5f0458bDA93A6d2ffA08cee7c1A0CbeA410aE",
      "value": {
        "_hex": "0x9289672b8148d840"
      },
      "nonce": 3865,
      "data": "0x",
      "r": "0x5255a243d7f3a83629c8f11355c47f9a886c83c72e5fb98162362c8dba279fa7",
      "s": "0x5385191e9d20a1f86d80aadc310dfc0362d915984f5d738e0c52c0cdc3a5a52e",
      "v": 28,
      "creates": null,
      "raw": "0xf86e820f19850d39d426748255f094d8f5f0458bda93a6d2ffa08cee7c1a0cbea410ae889289672b8148d840801ca05255a243d7f3a83629c8f11355c47f9a886c83c72e5fb98162362c8dba279fa7a05385191e9d20a1f86d80aadc310dfc0362d915984f5d738e0c52c0cdc3a5a52e",
      "networkId": 0,
      "chainId": 0
    },
    {
      "hash": "0x44bfade6e40644e73fe3d2ed3c0707e88dd35085962f2ae7b334652a7c87ff32",
      "blockHash": "0x5764de5c81d8a7d139ed1b3633f060c06f400ea1c2613befe4f005326c73b829",
      "blockNumber": 105330,
      "transactionIndex": 17,
      "confirmations": null,
      "from": "0xe6A7a1d47ff21B6321162AEA7C6CB457D5476Bca",
      "gasPrice": {
        "_hex": "0xd39d42674"
      },
      "gasLimit": {
        "_hex": "0x55f0"
      },
      "to": "0x34d34F0a638F6991e4E2536F41295DF6E934A646",
      "value": {
        "_hex": "0x9298d3cdadafee78"
      },
      "nonce": 3866,
      "data": "0x",
      "r": "0xe2060ac94263a529071508a78384d30c1e1c50ef1a957c161ebbffe4f7cc6d75",
      "s": "0x76082906cf297a8287ceb243111afc5f420ef88a2dff206889c34fd6f9724a52",
      "v": 28,
      "creates": null,
      "raw": "0xf86e820f1a850d39d426748255f09434d34f0a638f6991e4e2536f41295df6e934a646889298d3cdadafee78801ca0e2060ac94263a529071508a78384d30c1e1c50ef1a957c161ebbffe4f7cc6d75a076082906cf297a8287ceb243111afc5f420ef88a2dff206889c34fd6f9724a52",
      "networkId": 0,
      "chainId": 0
    },
    {
      "hash": "0x787f613ff0cbfd1319bc8b952132a27a995444282fc36d296cde8c5836ffee34",
      "blockHash": "0x5764de5c81d8a7d139ed1b3633f060c06f400ea1c2613befe4f005326c73b829",
      "blockNumber": 105330,
      "transactionIndex": 18,
      "confirmations": null,
      "from": "0xe6A7a1d47ff21B6321162AEA7C6CB457D5476Bca",
      "gasPrice": {
        "_hex": "0xd39d42674"
      },
      "gasLimit": {
        "_hex": "0x55f0"
      },
      "to": "0x305E8d20Ca61Ba9DD2DD18E1134e7CDB9a13F68D",
      "value": {
        "_hex": "0x94ac7fe44c1eb800"
      },
      "nonce": 3867,
      "data": "0x",
      "r": "0x7713df5d92c60c8ceff87ddfac08d962a833e91e53c2efda69e9186d6604048a",
      "s": "0x0ee496f71c8412bf356510bcdf2bb1072370d2d299be4377fd95c8bd25982f48",
      "v": 28,
      "creates": null,
      "raw": "0xf86e820f1b850d39d426748255f094305e8d20ca61ba9dd2dd18e1134e7cdb9a13f68d8894ac7fe44c1eb800801ca07713df5d92c60c8ceff87ddfac08d962a833e91e53c2efda69e9186d6604048aa00ee496f71c8412bf356510bcdf2bb1072370d2d299be4377fd95c8bd25982f48",
      "networkId": 0,
      "chainId": 0
    },
    {
      "hash": "0xe0024d176bd754af2229c72ef4fde833414afd8d236ff32f42a12c1a371f09a1",
      "blockHash": "0x5764de5c81d8a7d139ed1b3633f060c06f400ea1c2613befe4f005326c73b829",
      "blockNumber": 105330,
      "transactionIndex": 19,
      "confirmations": null,
      "from": "0xe6A7a1d47ff21B6321162AEA7C6CB457D5476Bca",
      "gasPrice": {
        "_hex": "0xd39d42674"
      },
      "gasLimit": {
        "_hex": "0x55f0"
      },
      "to": "0x2561d06bcc264cb07D32663B326f510d61E48f4c",
      "value": {
        "_hex": "0x95fdab69b198d730"
      },
      "nonce": 3868,
      "data": "0x",
      "r": "0x4b536f0b2f9abcdb0eafc93dbfb86384d104e33a845512a9abe1afe573b4a4f6",
      "s": "0x19b68a675afdbb900d5377644b99f409274fdc098a16e4acc4c89a6f60c5c19d",
      "v": 27,
      "creates": null,
      "raw": "0xf86e820f1c850d39d426748255f0942561d06bcc264cb07d32663b326f510d61e48f4c8895fdab69b198d730801ba04b536f0b2f9abcdb0eafc93dbfb86384d104e33a845512a9abe1afe573b4a4f6a019b68a675afdbb900d5377644b99f409274fdc098a16e4acc4c89a6f60c5c19d",
      "networkId": 0,
      "chainId": 0
    },
    {
      "hash": "0x7f23bbbb8a7a2cf681485a5261f117003180ede7724e0da00eb719afd04ecd35",
      "blockHash": "0x5764de5c81d8a7d139ed1b3633f060c06f400ea1c2613befe4f005326c73b829",
      "blockNumber": 105330,
      "transactionIndex": 20,
      "confirmations": null,
      "from": "0x19939AD9F09d103B670c9EE56cA41d5764380f8A",
      "gasPrice": {
        "_hex": "0xba43b7400"
      },
      "gasLimit": {
        "_hex": "0x5208"
      },
      "to": "0xC47Aaa860008be6f65B58c6C6E02a84e666EfE31",
      "value": {
        "_hex": "0x2e565555a0ca6000"
      },
      "nonce": 5,
      "data": "0x",
      "r": "0xf2bde567a4bb6f75a327ea5c47385ec427ad17afbfddd792aac16db3aa0862c1",
      "s": "0x5f963938a4d50167b4fa4f6ae62e41d237a8a107faf7370158cea8418d7cf856",
      "v": 28,
      "creates": null,
      "raw": "0xf86c05850ba43b740082520894c47aaa860008be6f65b58c6c6e02a84e666efe31882e565555a0ca6000801ca0f2bde567a4bb6f75a327ea5c47385ec427ad17afbfddd792aac16db3aa0862c1a05f963938a4d50167b4fa4f6ae62e41d237a8a107faf7370158cea8418d7cf856",
      "networkId": 0,
      "chainId": 0
    }
  ]
}