{
  "hash": "0x22c6e7add921a90f4a0e74b150375fc0a25dcdc1b92f5e4a591430bdbe0a1e93",
  "parentHash": "0x4d73c75269107125236c4119262a950cd142d82cb12d3da1c21b0472d32cae4c",
  "number": 81491,
  "timestamp": 1439502644,
  "nonce": "0xf27999e8ec21fbfc",
  "difficulty": 2441414215007,
  "gasLimit": {
    "_hex": "0x2fefd8"
  },
  "gasUsed": {
    "_hex": "0xf87c"
  },
  "miner": "0x8B454d830feF179e66206840F8F3D1d83bC32b17",
  "extraData": "0x476574682f76312e302e312f77696e646f77732f676f312e342e32",
  "transactions": [
    {
      "hash": "0x64eb98e0aa93bb363fe9c4583258f18ea28628026ce7baca823b61a7203e7d4c",
      "blockHash": "0x22c6e7add921a90f4a0e74b150375fc0a25dcdc1b92f5e4a591430bdbe0a1e93",
      "blockNumber": 81491,
      "transactionIndex": 0,
      "confirmations": null,
      "from": "0xe180De9e86F57BafaCd7904f9826b6b4B26337A3",
      "gasPrice": {
        "_hex": "0x110c8f7d8de"
      },
      "gasLimit": {
        "_hex": "0xc350"
      },
      "to": "0x2910543Af39abA0Cd09dBb2D50200b3E800A63D2",
      "value": {
        "_hex": "0xde0b6b3a7640000"
      },
      "nonce": 0,
      "data": "0x454e434a5033463438",
      "r": "0x096173ead36e3d605a768dc313323610d80b743a06cd0a993bcd6ba7b80fd7aa",
      "s": "0x0cfc9093efe52b73b36289bfc64c281b4c9788bdaacd1ab1e3140f73240a7d1b",
      "v": 28,
      "creates": null,
      "raw": "0xf87680860110c8f7d8de82c350942910543af39aba0cd09dbb2d50200b3e800a63d2880de0b6b3a764000089454e434a50334634381ca0096173ead36e3d605a768dc313323610d80b743a06cd0a993bcd6ba7b80fd7aaa00cfc9093efe52b73b36289bfc64c281b4c9788bdaacd1ab1e3140f73240a7d1b",
      "networkId": 0,
      "chainId": 0
    },
    {
      "hash": "0x5ff57471de1f63de84c4194b6afe65d16db82599093e8083e1c65153199c74dd",
      "blockHash": "0x22c6e7add921a90f4a0e74b150375fc0a25dcdc1b92f5e4a591430bdbe0a1e93",
      "blockNumber": 81491,
      "transactionIndex": 1,
      "confirmations": null,
      "from": "0x32Be343B94f860124dC4fEe278FDCBD38C102D88",
      "gasPrice": {
        "_hex": "0xd337cf214"
      },
      "gasLimit": {
        "_hex": "0x5208"
      },
      "to": "0xb794F5eA0ba39494cE839613fffBA74279579268",
      "value": {
        "_hex": "0x1fc3842bd1f072000000"
      },
      "nonce": 600,
      "data": "0x",
      "r": "0xf6f78abcda22efbff0b0e5079c1b51fb18a3090e9252da476e5a3fabdd27c847",
      "s": "0x5b18fa28bc1a28b187232230af9d0df13af1c751076152342ded644c71f43509",
      "v": 27,
      "creates": null,
      "raw": "0xf870820258850d337cf21482520894b794f5ea0ba39494ce839613fffba742795792688a1fc3842bd1f072000000801ba0f6f78abcda22efbff0b0e5079c1b51fb18a3090e9252da476e5a3fabdd27c847a05b18fa28bc1a28b187232230af9d0df13af1c751076152342ded644c71f43509",
      "networkId": 0,
      "chainId": 0
    },
    {
      "hash": "0x4ec0707ce50f6d25269c18a26e76fe24a4bc0e366515b1abf649dd8d5b79ad5c",
      "blockHash": "0x22c6e7add921a90f4a0e74b150375fc0a25dcdc1b92f5e4a591430bdbe0a1e93",
      "blockNumber": 81491,
      "transactionIndex": 2,
      "confirmations": null,
      "from": "0xe93C41Eb698768D7d6a9e589434e5bc8B2eec540",
      "gasPrice": {
        "_hex": "0xba43b7400"
      },
      "gasLimit": {
        "_hex": "0x5208"
      },
      "to": "0xC47Aaa860008be6f65B58c6C6E02a84e666EfE31",
      "value": {
        "_hex": "0x56bb1dfbbfe2be000"
      },
      "nonce": 0,
      "data": "0x",
      "r": "0x881528e59b9904aa573d72e85fd6008903f81e2fc62e138f44422381ebb79212",
      "s": "0x0e6b66253984aaa9527505bb27b8663c5e3018af30dbf77f5a503c7b7bf9875f",
      "v": 27,
      "creates": null,
      "raw": "0xf86d80850ba43b740082520894c47aaa860008be6f65b58c6c6e02a84e666efe3189056bb1dfbbfe2be000801ba0881528e59b9904aa573d72e85fd6008903f81e2fc62e138f44422381ebb79212a00e6b66253984aaa9527505bb27b8663c5e3018af30dbf77f5a503c7b7bf9875f",
      "networkId": 0,
      "chainId": 0
    }
  ]
}