{
  "hash": "0x5cc9da02fedda93a44386c91168281eba52550c7eb673cc437c741ab0d75be8a",
  "parentHash": "0x6c535e6d2bc5ec5f526bfbbf5232d6d01df8556bbaab8d0ed3c93d2ae28626eb",
  "number": 76565,
  "timestamp": 1439422702,
  "nonce": "0x214ee2a632bf485e",
  "difficulty": 2226411837134,
  "gasLimit": {
    "_hex": "0x2fefd8"
  },
  "gasUsed": {
    "_hex": "0x27772"
  },
  "miner": "0x157c6f2431eB1a95797EE86F7d17b3c0FD47A247",
  "extraData": "0x476574682f76312e302e312f77696e646f77732f676f312e342e32",
  "transactions": [
    {
      "hash": "0x021e84e5d8601d56f8d32f2129bb41ff1a1efe0c7f5686509d2355abfa8f3f64",
      "blockHash": "0x5cc9da02fedda93a44386c91168281eba52550c7eb673cc437c741ab0d75be8a",
      "blockNumber": 76565,
      "transactionIndex": 0,
      "confirmations": null,
      "from": "0x8Be84A3adfBc51c59023B2413766E229108c35DE",
      "gasPrice": {
        "_hex": "0xdb95b1084"
      },
      "gasLimit": {
        "_hex": "0x493e0"
      },
      "to": "0xD79B4C6791784184e2755B2fC1659eaaB0f80456",
      "value": {
        "_hex": "0x0"
      },
      "nonce": 10,
      "data": "0xbd66528a73302e3433393636303333313233343230383400000000000000000000000000",
      "r": "0x3c4cbdec74f2a096d3c39cc7daa106dcbb60cc0f8c8b6aed5ae5cda6d0e017e7",
      "s": "0x4a1728d2e6f3cc6f9cf72fef4a23edab067633844146163bb2054f9444e374a7",
      "v": 28,
      "creates": null,
      "raw": "0xf8890a850db95b1084830493e094d79b4c6791784184e2755b2fc1659eaab0f8045680a4bd66528a73302e34333936363033333132333432303834000000000000000000000000001ca03c4cbdec74f2a096d3c39cc7daa106dcbb60cc0f8c8b6aed5ae5cda6d0e017e7a04a1728d2e6f3cc6f9cf72fef4a23edab067633844146163bb2054f9444e374a7",
      "networkId": 0,
      "chainId": 0
    },
    {
      "hash": "0xf9db12f8fa3e4363445999426f0df938752339d33282da2470625942c30715ec",
      "blockHash": "0x5cc9da02fedda93a44386c91168281eba52550c7eb673cc437c741ab0d75be8a",
      "blockNumber": 76565,
      "transactionIndex": 1,
      "confirmations": null,
      "from": "0x8Be84A3adfBc51c59023B2413766E229108c35DE",
      "gasPrice": {
        "_hex": "0xdb95b1084"
      },
      "gasLimit": {
        "_hex": "0x493e0"
      },
      "to": "0xD79B4C6791784184e2755B2fC1659eaaB0f80456",
      "value": {
        "_hex": "0xde0b6b3a7640000"
      },
      "nonce": 11,
      "data": "0x8d21618600000000000000000000000000000000000000000000000000000000000000e6ba850b206a42f73dca36114d2da3fa10737673f0dff85c1259d4cc172d7b868a",
      "r": "0x66a52fed2d42cb6ab6dfce245b755db9ce291aa909a13e3696cf81ddb0911594",
      "s": "0x30d680b7c836cb7d6f649397daedbfbeb135eb6408a82da63769615c35cc392d",
      "v": 27,
      "creates": null,
      "raw": "0xf8b20b850db95b1084830493e094d79b4c6791784184e2755b2fc1659eaab0f80456880de0b6b3a7640000b8448d21618600000000000000000000000000000000000000000000000000000000000000e6ba850b206a42f73dca36114d2da3fa10737673f0dff85c1259d4cc172d7b868a1ba066a52fed2d42cb6ab6dfce245b755db9ce291aa909a13e3696cf81ddb0911594a030d680b7c836cb7d6f649397daedbfbeb135eb6408a82da63769615c35cc392d",
      "networkId": 0,
      "chainId": 0
    },
    {
      "hash": "0x131da6cde0ad745547a36c78fa268ea7e9afb6c0583797d6850e746dc898af2a",
      "blockHash": "0x5cc9da02fedda93a44386c91168281eba52550c7eb673cc437c741ab0d75be8a",
      "blockNumber": 76565,
      "transactionIndex": 2,
      "confirmations": null,
      "from": "0xA938b9DCabbB3eA3cC14eE810138c803edee9222",
      "gasPrice": {
        "_hex": "0xd1be82221"
      },
      "gasLimit": {
        "_hex": "0x5208"
      },
      "to": "0x32Be343B94f860124dC4fEe278FDCBD38C102D88",
      "value": {
        "_hex": "0xad6f628af91000"
      },
      "nonce": 0,
      "data": "0x",
      "r": "0x9f115e433303c59701de2667c6eefdfbad42db004a79929ed91e758baaa42fe3",
      "s": "0x4896244bd4c2bec0f4eb5485683e313f3ea8e415120a8b7b5b38c7b2d93d7989",
      "v": 28,
      "creates": null,
      "raw": "0xf86b80850d1be822218252089432be343b94f860124dc4fee278fdcbd38c102d8887ad6f628af91000801ca09f115e433303c59701de2667c6eefdfbad42db004a79929ed91e758baaa42fe3a04896244bd4c2bec0f4eb5485683e313f3ea8e415120a8b7b5b38c7b2d93d7989",
      "networkId": 0,
      "chainId": 0
    }
  ]
}