{
  "hash": "0xa5847642dc77f87fb06fb41a64be04f94cc93af06ac63f0830641a4b531f5fb4",
  "parentHash": "0x41468e203b8001be57da53bdda7418a80da0ce2bc6095f6f33a44019bb325170",
  "number": 120589,
  "timestamp": 1440162469,
  "nonce": "0xa73642d20912c714",
  "difficulty": 4426131910946,
  "gasLimit": {
    "_hex": "0x2fefd8"
  },
  "gasUsed": {
    "_hex": "0x5208"
  },
  "miner": "0x790b8a3cE86E707ED0eD32bF89B3269692a23CC1",
  "extraData": "0xd783010002844765746887676f312e342e32856c696e7578",
  "transactions": [
    {
      "hash": "0xbdba4a7aa9899deee244a7f5a1730c233d35fcd5a5a6b8368a420ec0a46751cd",
      "blockHash": "0xa5847642dc77f87fb06fb41a64be04f94cc93af06ac63f0830641a4b531f5fb4",
      "blockNumber": 120589,
      "transactionIndex": 0,
      "confirmations": null,
      "from": "0x32Be343B94f860124dC4fEe278FDCBD38C102D88",
      "gasPrice": {
        "_hex": "0xba43b7400"
      },
      "gasLimit": {
        "_hex": "0x5208"
      },
      "to": "0xC1a85A12432EC645dD75b7BE7C26554e9C57a4CE",
      "value": {
        "_hex": "0x6f05b59d3b20000"
      },
      "nonce": 1526,
      "data": "0x",
      "r": "0x4381550560ec327a6be36eb38c1b590138b9728a5fcc94e3be653f53034d37f8",
      "s": "0x20172eee08db7b8ea511eada28d31efdf56044b94c8350c9edaa1a2b5b0a3f4a",
      "v": 27,
      "creates": null,
      "raw": "0xf86e8205f6850ba43b740082520894c1a85a12432ec645dd75b7be7c26554e9c57a4ce8806f05b59d3b20000801ba04381550560ec327a6be36eb38c1b590138b9728a5fcc94e3be653f53034d37f8a020172eee08db7b8ea511eada28d31efdf56044b94c8350c9edaa1a2b5b0a3f4a",
      "networkId": 0,
      "chainId": 0
    }
  ]
}