{
  "hash": "0x2d788affa55a949dcd3eea3f95c17d2546412b3360460dbf7c83f979bbaaf5a7",
  "parentHash": "0x7e83eea1f4e42838c78f07fbc426ccc08001d492398b6c5153726bc8f37c9207",
  "number": 93311,
  "timestamp": 1439687520,
  "nonce": "0xe2706aacc2b27c5a",
  "difficulty": 3540313626465,
  "gasLimit": {
    "_hex": "0x2fefd8"
  },
  "gasUsed": {
    "_hex": "0x5208"
  },
  "miner": "0xe6A7a1d47ff21B6321162AEA7C6CB457D5476Bca",
  "extraData": "0x476574682f76312e302e312d38326566323666362f6c696e75782f676f312e34",
  "transactions": [
    {
      "hash": "0x1f3c21db9bf98e4cc02429f0e886f9d0ed32ac105bec05fcfe5a204d9b37385e",
      "blockHash": "0x2d788affa55a949dcd3eea3f95c17d2546412b3360460dbf7c83f979bbaaf5a7",
      "blockNumber": 93311,
      "transactionIndex": 0,
      "confirmations": null,
      "from": "0x4b0424c09BaC4Ee3f4376f1D3fA354E8Cb2D3171",
      "gasPrice": {
        "_hex": "0xdb3b49148"
      },
      "gasLimit": {
        "_hex": "0x15f90"
      },
      "to": "0x34d34F0a638F6991e4E2536F41295DF6E934A646",
      "value": {
        "_hex": "0x478a3d3009238000"
      },
      "nonce": 15,
      "data": "0x",
      "r": "0x9c8ad40eac30fface5b3519f7fca53e9e01721f758bf61d73611cb3aaa2cf4b3",
      "s": "0x1fa01dd3680d9124c304ee1af2247847541d8eaa58ad4be1755963d8777ef574",
      "v": 28,
      "creates": null,
      "raw": "0xf86d0f850db3b4914883015f909434d34f0a638f6991e4e2536f41295df6e934a64688478a3d3009238000801ca09c8ad40eac30fface5b3519f7fca53e9e01721f758bf61d73611cb3aaa2cf4b3a01fa01dd3680d9124c304ee1af2247847541d8eaa58ad4be1755963d8777ef574",
      "networkId": 0,
      "chainId": 0
    }
  ]
}