{
  "hash": "0x2e0034984fe1e4617626e92eba5c652eacae9a4a1178481818ddb10525d7d314",
  "parentHash": "0x1124ea20a62d3059b61a17810638abe05565f74fb3e0cf29870cf8aa5eb30488",
  "number": 71608,
  "timestamp": 1439339014,
  "nonce": "0x417da14fb23206e1",
  "difficulty": 2172937247860,
  "gasLimit": {
    "_hex": "0x2fefd8"
  },
  "gasUsed": {
    "_hex": "0xae73"
  },
  "miner": "0xf927a40C8B7F6E07c5af7FA2155B4864a4112B13",
  "extraData": "0x",
  "transactions": [
    {
      "hash": "0x18e85bad0da07034156c182f997f743ad46d9978da425fc7b9004ff8a7bb58e5",
      "blockHash": "0x2e0034984fe1e4617626e92eba5c652eacae9a4a1178481818ddb10525d7d314",
      "blockNumber": 71608,
      "transactionIndex": 0,
      "confirmations": null,
      "from": "0x17580B766f7453525ca4C6A88b01b50570EA088C",
      "gasPrice": {
        "_hex": "0xd9bdff4fb"
      },
      "gasLimit": {
        "_hex": "0x61a80"
      },
      "to": "0x5Fe5B7546D1628f7348B023A0393de1FC825A4fD",
      "value": {
        "_hex": "0x8ac7230489e80000"
      },
      "nonce": 233,
      "data": "0xb595b8b50000000000000000000000000000000000000000000000000000000000000000",
      "r": "0xab91508213733e03466f3f2e307ff4577fc7d137e15b919f95bd09d5085b40dd",
      "s": "0x1b2d8fea66e24a63e6658bf06ff6aa7f6ccd4a5347c448e50a8be7cfbca96dfc",
      "v": 28,
      "creates": null,
      "raw": "0xf89281e9850d9bdff4fb83061a80945fe5b7546d1628f7348b023a0393de1fc825a4fd888ac7230489e80000a4b595b8b500000000000000000000000000000000000000000000000000000000000000001ca0ab91508213733e03466f3f2e307ff4577fc7d137e15b919f95bd09d5085b40dda01b2d8fea66e24a63e6658bf06ff6aa7f6ccd4a5347c448e50a8be7cfbca96dfc",
      "networkId": 0,
      "chainId": 0
    }
  ]
}