{
  "hash": "0xe18b692309d382c9caa908cd58a770c6e60ace1358c652b96bfdd6cadd8b2354",
  "parentHash": "0xb0a2fadffa4626a409df69541757112196e3824e1f0af1b3083058550de8a8a6",
  "number": 102663,
  "timestamp": 1439841294,
  "nonce": "0x4a730c0ec1e66637",
  "difficulty": 4042606050245,
  "gasLimit": {
    "_hex": "0x2fefd8"
  },
  "gasUsed": {
    "_hex": "0x5208"
  },
  "miner": "0x2134e2a2b718DCa96580ECAC31E653Ea1fdd58DA",
  "extraData": "0x476574682f76312e302e312f77696e646f77732f676f312e342e32",
  "transactions": [
    {
      "hash": "0x1538122d01e6c8d523a8b238b86b5c53b47d266b0da21623aff7d02112bebefb",
      "blockHash": "0xe18b692309d382c9caa908cd58a770c6e60ace1358c652b96bfdd6cadd8b2354",
      "blockNumber": 102663,
      "transactionIndex": 0,
      "confirmations": null,
      "from": "0x03Ef98f6F8d29683080690Bd0339dF4CfC8b7989",
      "gasPrice": {
        "_hex": "0xba43b7400"
      },
      "gasLimit": {
        "_hex": "0x5208"
      },
      "to": "0x8d4DB353d3E0EE04217252706DDB6D5bD03a28F5",
      "value": {
        "_hex": "0x10f0cf064dd59200000"
      },
      "nonce": 1,
      "data": "0x",
      "r": "0xc6d7fa3f5089f5da87bfc18819a338e9958fd0bc9d794d5fd0c5c082498e7229",
      "s": "0x37358bacfc32313e8275dba5f6eac35c9f2686fc5447186111e20050bcf8a943",
      "v": 27,
      "creates": null,
      "raw": "0xf86e01850ba43b7400825208948d4db353d3e0ee04217252706ddb6d5bd03a28f58a010f0cf064dd59200000801ba0c6d7fa3f5089f5da87bfc18819a338e9958fd0bc9d794d5fd0c5c082498e7229a037358bacfc32313e8275dba5f6eac35c9f2686fc5447186111e20050bcf8a943",
      "networkId": 0,
      "chainId": 0
    }
  ]
}