{
  "hash": "0xf2cd8cfdc44d2b1a204f5f78453647576e6b3ef9c7751c1ab49272d100ff2afd",
  "parentHash": "0x3e4580d807c1e16d7c064951059458e5723edf355c7b566a020dd7616c33958e",
  "number": 68270,
  "timestamp": 1439285155,
  "nonce": "0x3afddd4bf6b375f7",
  "difficulty": 1994792902345,
  "gasLimit": {
    "_hex": "0x2fefd8"
  },
  "gasUsed": {
    "_hex": "0x5208"
  },
  "miner": "0xf927a40C8B7F6E07c5af7FA2155B4864a4112B13",
  "extraData": "0x",
  "transactions": [
    {
      "hash": "0x4e8392a1bc8bc9405a8ffe408652e0eec7ac088938d06c298710eed138af9f5e",
      "blockHash": "0xf2cd8cfdc44d2b1a204f5f78453647576e6b3ef9c7751c1ab49272d100ff2afd",
      "blockNumber": 68270,
      "transactionIndex": 0,
      "confirmations": null,
      "from": "0x1C8f021d6914cc1f0001Aac43D04DbD0612F6335",
      "gasPrice": {
        "_hex": "0xba43b7400"
      },
      "gasLimit": {
        "_hex": "0x5208"
      },
      "to": "0x6a7dFaa1B41014b6405a74ECcCcc1a2F327727a0",
      "value": {
        "_hex": "0x36ef271c4dd000"
      },
      "nonce": 1,
      "data": "0x",
      "r": "0xb7eb251c84a62b271148a36d0cfb2b0d44ad7d48dedee3eb01bd6d28934fc7bd",
      "s": "0x22efb93aec449022bd0343eef5d9fc671b196b625c8e9d8bb9069b2011a29bed",
      "v": 27,
      "creates": null,
      "raw": "0xf86b01850ba43b7400825208946a7dfaa1b41014b6405a74eccccc1a2f327727a08736ef271c4dd000801ba0b7eb251c84a62b271148a36d0cfb2b0d44ad7d48dedee3eb01bd6d28934fc7bda022efb93aec449022bd0343eef5d9fc671b196b625c8e9d8bb9069b2011a29bed",
      "networkId": 0,
      "chainId": 0
    }
  ]
}