{
  "hash": "0xef58ffd92a8b4d5ba767b98d592a845b8bf6763aa2c6effd8bf58dff77cd99d5",
  "parentHash": "0x44a1df55219cf5986e185d54c9cb31c67c531103989669fe0c8d2380ef0365d0",
  "number": 113643,
  "timestamp": 1440027157,
  "nonce": "0x3438f36036c70350",
  "difficulty": 4442795344287,
  "gasLimit": {
    "_hex": "0x2fefd8"
  },
  "gasUsed": {
    "_hex": "0x5208"
  },
  "miner": "0x623d2411c3bb3340784155F9a688b0085251aB5c",
  "extraData": "0x",
  "transactions": [
    {
      "hash": "0xced6e39e7219f9de93736cb59622c4fc652ecb7b4344b915cae1d1d68a168b75",
      "blockHash": "0xef58ffd92a8b4d5ba767b98d592a845b8bf6763aa2c6effd8bf58dff77cd99d5",
      "blockNumber": 113643,
      "transactionIndex": 0,
      "confirmations": null,
      "from": "0x0311234f736B0D56F1746250780a021BA61b9B4b",
      "gasPrice": {
        "_hex": "0xcedf84630"
      },
      "gasLimit": {
        "_hex": "0x15f90"
      },
      "to": "0xD9BeAC908e0FADE105100Ae3c79b02226930c849",
      "value": {
        "_hex": "0x45400a8fd5330000"
      },
      "nonce": 0,
      "data": "0x",
      "r": "0xf52e11636bfcb10c666f72fae71cba6ff1807ea8165aa7081794933b416f46f6",
      "s": "0x12b590d2d0e23576c4d8b41cf39c4e8fd4e9782f467d9be31766403f25252dbf",
      "v": 28,
      "creates": null,
      "raw": "0xf86d80850cedf8463083015f9094d9beac908e0fade105100ae3c79b02226930c8498845400a8fd5330000801ca0f52e11636bfcb10c666f72fae71cba6ff1807ea8165aa7081794933b416f46f6a012b590d2d0e23576c4d8b41cf39c4e8fd4e9782f467d9be31766403f25252dbf",
      "networkId": 0,
      "chainId": 0
    }
  ]
}