{
  "hash": "0x0b8a9bba6ff03f15dce29ad83b04caf9899d4fa5af6cee856944cb02fda2dfbe",
  "parentHash": "0x474bf9845d9a670ba39ec6b51b4a7b71be23af08bab065cbd5fb25cbe46774c3",
  "number": 51877,
  "timestamp": 1439012390,
  "nonce": "0xdc1c3fd78f083ecd",
  "difficulty": 1563440664189,
  "gasLimit": {
    "_hex": "0xe9212"
  },
  "gasUsed": {
    "_hex": "0x5558"
  },
  "miner": "0xa50ec0D39fa913E62f1Bae7074E6F36caA71855b",
  "extraData": "0x",
  "transactions": [
    {
      "hash": "0x3cb44f4195128b70efc9caea26a1d73fb4c18ef4964a81363cad13fd2974a869",
      "blockHash": "0x0b8a9bba6ff03f15dce29ad83b04caf9899d4fa5af6cee856944cb02fda2dfbe",
      "blockNumber": 51877,
      "transactionIndex": 0,
      "confirmations": null,
      "from": "0x3D0768da09CE77d25e2d998E6a7b6eD4b9116c2D",
      "gasPrice": {
        "_hex": "0xe0d063fd6"
      },
      "gasLimit": {
        "_hex": "0x15f90"
      },
      "to": "0xc6d9d2cD449A754c494264e1809c50e34D64562b",
      "value": {
        "_hex": "0x0"
      },
      "nonce": 28,
      "data": "0x432ced046c696e6167656500000000000000000000000000000000000000000000000000",
      "r": "0x989f103e42c81342aa0126ce05d168eac363209bd997a171d6d8fea8eccb2c5a",
      "s": "0x68d93f2b1792e57ac11d4a198403865e4c6c78fa3f37ba02a57e9589f8a7e26e",
      "v": 28,
      "creates": null,
      "raw": "0xf8891c850e0d063fd683015f9094c6d9d2cd449a754c494264e1809c50e34d64562b80a4432ced046c696e61676565000000000000000000000000000000000000000000000000001ca0989f103e42c81342aa0126ce05d168eac363209bd997a171d6d8fea8eccb2c5aa068d93f2b1792e57ac11d4a198403865e4c6c78fa3f37ba02a57e9589f8a7e26e",
      "networkId": 0,
      "chainId": 0
    }
  ]
}