{
  "hash": "0x5e4abe23bc56863deba3bbbea608e9567a2c821a274918d0a5ae8de3cb808c8d",
  "parentHash": "0x83bdd8c67a63e681cc5ee77a4c84d3d48b32055b2243737c775a088e344b2310",
  "number": 88865,
  "timestamp": 1439614724,
  "nonce": "0x97f6c220d3935d92",
  "difficulty": 3244154270862,
  "gasLimit": {
    "_hex": "0x2fefd8"
  },
  "gasUsed": {
    "_hex": "0x5208"
  },
  "miner": "0xAa9164cC61C67064351596c21760491616AA95F4",
  "extraData": "0x",
  "transactions": [
    {
      "hash": "0x1708db66b2e4dcb413b3b13c0537ad24b6aa1894ceadb0fddf84cd95a3d5e7d3",
      "blockHash": "0x5e4abe23bc56863deba3bbbea608e9567a2c821a274918d0a5ae8de3cb808c8d",
      "blockNumber": 88865,
      "transactionIndex": 0,
      "confirmations": null,
      "from": "0x2910543Af39abA0Cd09dBb2D50200b3E800A63D2",
      "gasPrice": {
        "_hex": "0xcf5809f91"
      },
      "gasLimit": {
        "_hex": "0x5208"
      },
      "to": "0x5a0f0935E8E5591B2f9f2d55f29C626B50292088",
      "value": {
        "_hex": "0xd6b411a0468420000"
      },
      "nonce": 740,
      "data": "0x",
      "r": "0x45a9e983f06c4f5e4b0d58475b61baec07846fededc81ba53c7a5b5472f46c63",
      "s": "0x763b09711efd865e9c9520769245d6eee51cd796540238f571fb77c2f974d811",
      "v": 27,
      "creates": null,
      "raw": "0xf86f8202e4850cf5809f91825208945a0f0935e8e5591b2f9f2d55f29c626b50292088890d6b411a0468420000801ba045a9e983f06c4f5e4b0d58475b61baec07846fededc81ba53c7a5b5472f46c63a0763b09711efd865e9c9520769245d6eee51cd796540238f571fb77c2f974d811",
      "networkId": 0,
      "chainId": 0
    }
  ]
}