{
  "hash": "0x7d758635aea1d088b07cd54d9781585e7db7bdc829a745c9b7f5769930e607ae",
  "parentHash": "0x0d306ee27c7775c9763ee63493912dd6b50fd8ae4ab1a26eca5edecf0050c482",
  "number": 113399,
  "timestamp": 1440022846,
  "nonce": "0x5ab5763636fc1c35",
  "difficulty": 4469033754345,
  "gasLimit": {
    "_hex": "0x2fefd8"
  },
  "gasUsed": {
    "_hex": "0x5208"
  },
  "miner": "0xe6A7a1d47ff21B6321162AEA7C6CB457D5476Bca",
  "extraData": "0x476574682f76312e302e312d38326566323666362f6c696e75782f676f312e34",
  "transactions": [
    {
      "hash": "0xc5905e14554b58836be6f77129d621a12a68a0061d85e3e9deeb8dc24ed53ed4",
      "blockHash": "0x7d758635aea1d088b07cd54d9781585e7db7bdc829a745c9b7f5769930e607ae",
      "blockNumber": 113399,
      "transactionIndex": 0,
      "confirmations": null,
      "from": "0x60781265e9850f54AE0Bc9545948d05DeE6FC3e3",
      "gasPrice": {
        "_hex": "0xd2dd7ffda"
      },
      "gasLimit": {
        "_hex": "0x5208"
      },
      "to": "0x32Be343B94f860124dC4fEe278FDCBD38C102D88",
      "value": {
        "_hex": "0x31b6fb0b66570800"
      },
      "nonce": 12,
      "data": "0x",
      "r": "0xabb1ede1dbfbc0816f8173c6095d84f9317aecedb32b9cd13fd4de7ae283f9cb",
      "s": "0x51359e8cf8a00f5428703f29a2e00b1c7d0c21cfb3256552631dcc92afc1262d",
      "v": 28,
      "creates": null,
      "raw": "0xf86c0c850d2dd7ffda8252089432be343b94f860124dc4fee278fdcbd38c102d888831b6fb0b66570800801ca0abb1ede1dbfbc0816f8173c6095d84f9317aecedb32b9cd13fd4de7ae283f9cba051359e8cf8a00f5428703f29a2e00b1c7d0c21cfb3256552631dcc92afc1262d",
      "networkId": 0,
      "chainId": 0
    }
  ]
}