{
  "hash": "0x24343cd8dc77fd97081986e4154e44fce4fc2affb912a1ee33731d6b55edb7eb",
  "parentHash": "0x1ce0da97f66394159cbde30cb9d89ceabbdee15fd74839b09699459b3fd4dff9",
  "number": 53668,
  "timestamp": 1439041575,
  "nonce": "0xe46aa11e7cecdf87",
  "difficulty": 1590049722580,
  "gasLimit": {
    "_hex": "0x2eb788"
  },
  "gasUsed": {
    "_hex": "0x5208"
  },
  "miner": "0xbe4532E1B1Db5c913Cf553be76180c1777055403",
  "extraData": "0x476574682f686261722f76312e302e312f6c696e75782f676f312e342e32",
  "transactions": [
    {
      "hash": "0x0a0950e232f53097c5d9769f3faef23e287bd13e7430610c024ee3a95c2814b9",
      "blockHash": "0x24343cd8dc77fd97081986e4154e44fce4fc2affb912a1ee33731d6b55edb7eb",
      "blockNumber": 53668,
      "transactionIndex": 0,
      "confirmations": null,
      "from": "0xDC6A542F97876923583019b526335fD1fB0DfC6A",
      "gasPrice": {
        "_hex": "0xdeb39c7ee"
      },
      "gasLimit": {
        "_hex": "0x5208"
      },
      "to": "0x32Be343B94f860124dC4fEe278FDCBD38C102D88",
      "value": {
        "_hex": "0x2c3bff002c1df0000"
      },
      "nonce": 1,
      "data": "0x",
      "r": "0x7ce3c82f34ffb3c1832c95c5b295003e073085272aa0718f52b27979a3e99bff",
      "s": "0x5af3dd01e2df7ba5cc89199e464e0c2cd34af913ec9dbe45669e40b4b7bfc1f2",
      "v": 28,
      "creates": null,
      "raw": "0xf86d01850deb39c7ee8252089432be343b94f860124dc4fee278fdcbd38c102d888902c3bff002c1df0000801ca07ce3c82f34ffb3c1832c95c5b295003e073085272aa0718f52b27979a3e99bffa05af3dd01e2df7ba5cc89199e464e0c2cd34af913ec9dbe45669e40b4b7bfc1f2",
      "networkId": 0,
      "chainId": 0
    }
  ]
}