{
  "hash": "0x78dd53cdd36e41094862feb3a23681da4bb6012408e2e20b2421d8456c1ec1bf",
  "parentHash": "0x277f915ea5ba6c76412d9f9e291284b647bae7a5fcc2d4fe2b028030b1e2fe83",
  "number": 55620,
  "timestamp": 1439073881,
  "nonce": "0x53521dd15bcf08ce",
  "difficulty": 1621033393014,
  "gasLimit": {
    "_hex": "0x2fefd8"
  },
  "gasUsed": {
    "_hex": "0x5208"
  },
  "miner": "0xbb7B8287f3F0a933474a79eAe42CBCa977791171",
  "extraData": "0x476574682f4c5649562f76312e302e312f6c696e75782f676f312e342e32",
  "transactions": [
    {
      "hash": "0x414fd5092fb387e1e9f724364910f01fb56e381f9c5f5f2ebed212ef017f2bf0",
      "blockHash": "0x78dd53cdd36e41094862feb3a23681da4bb6012408e2e20b2421d8456c1ec1bf",
      "blockNumber": 55620,
      "transactionIndex": 0,
      "confirmations": null,
      "from": "0x7F4b4E494e8420c770AAB9922480b003795EC018",
      "gasPrice": {
        "_hex": "0xd540b3fed"
      },
      "gasLimit": {
        "_hex": "0x5208"
      },
      "to": "0x32Be343B94f860124dC4fEe278FDCBD38C102D88",
      "value": {
        "_hex": "0xa2a158c3fa94380000"
      },
      "nonce": 0,
      "data": "0x",
      "r": "0x33e27b440ebc92d4c5d7591ccd92a0ba73435d652f4642345a335060af204353",
      "s": "0x4130ab0f776c33a6411760d13c6b964892c53870f50a8f1c8dd0105cd4e14ab9",
      "v": 28,
      "creates": null,
      "raw": "0xf86d80850d540b3fed8252089432be343b94f860124dc4fee278fdcbd38c102d8889a2a158c3fa94380000801ca033e27b440ebc92d4c5d7591ccd92a0ba73435d652f4642345a335060af204353a04130ab0f776c33a6411760d13c6b964892c53870f50a8f1c8dd0105cd4e14ab9",
      "networkId": 0,
      "chainId": 0
    }
  ]
}