{
  "hash": "0x73b7f01d050d217edb9de0cc8d2284d0bfc18fd448a134eabbd6365e25697ce6",
  "parentHash": "0xbadc1fe40505770d88dbbaef8bac086e5a5e07fa16b6abba4c0c5a1cf8e67309",
  "number": 83579,
  "timestamp": 1439537608,
  "nonce": "0x19a20acf9513f24e",
  "difficulty": 2436044052264,
  "gasLimit": {
    "_hex": "0x2fefd8"
  },
  "gasUsed": {
    "_hex": "0x5208"
  },
  "miner": "0x88D74a59454F6cF3B51ef6b9136AFb6b9D405A88",
  "extraData": "0x476574682f76312e302e312d38326566323666362f6c696e75782f676f312e34",
  "transactions": [
    {
      "hash": "0xdc481a39d8bc8800bd044a2c25c05b196278ed7bffe1fe037dce704d3aebc881",
      "blockHash": "0x73b7f01d050d217edb9de0cc8d2284d0bfc18fd448a134eabbd6365e25697ce6",
      "blockNumber": 83579,
      "transactionIndex": 0,
      "confirmations": null,
      "from": "0x62b0559efe3a073EDfe78bBe7CB491A6C65F0806",
      "gasPrice": {
        "_hex": "0xd50a0b95b"
      },
      "gasLimit": {
        "_hex": "0x15f90"
      },
      "to": "0xb68c4428193f7F71bA7351366022f0c3E81ca552",
      "value": {
        "_hex": "0xb469471f80140000"
      },
      "nonce": 2,
      "data": "0x",
      "r": "0x2564214571119d915ec86d2fd04f7a9a2651054a82df188a5e4b446448ccaa89",
      "s": "0x77ae4fba4e7c104afdf9b24f28d6567d845a17d40da24a6fb40f5d3685109ec0",
      "v": 28,
      "creates": null,
      "raw": "0xf86d02850d50a0b95b83015f9094b68c4428193f7f71ba7351366022f0c3e81ca55288b469471f80140000801ca02564214571119d915ec86d2fd04f7a9a2651054a82df188a5e4b446448ccaa89a077ae4fba4e7c104afdf9b24f28d6567d845a17d40da24a6fb40f5d3685109ec0",
      "networkId": 0,
      "chainId": 0
    }
  ]
}