{
  "hash": "0xdac639b83c8d5b0bdcbcc83728690f9b1e530ccac0408cf76e5828bcaa9be9eb",
  "parentHash": "0x107f81afdfa6094ee1e25d5fb303f9025961567c782155325986a4e59db1a5c1",
  "number": 110647,
  "timestamp": 1439977138,
  "nonce": "0x33fb789da6ea1253",
  "difficulty": 4379753624959,
  "gasLimit": {
    "_hex": "0x2fefd8"
  },
  "gasUsed": {
    "_hex": "0x5208"
  },
  "miner": "0xe6A7a1d47ff21B6321162AEA7C6CB457D5476Bca",
  "extraData": "0x476574682f76312e302e312d38326566323666362f6c696e75782f676f312e34",
  "transactions": [
    {
      "hash": "0xaaeb2640014bc70587c6e5de42e397bf58f4643fabcab4778e032c8ac7903b2d",
      "blockHash": "0xdac639b83c8d5b0bdcbcc83728690f9b1e530ccac0408cf76e5828bcaa9be9eb",
      "blockNumber": 110647,
      "transactionIndex": 0,
      "confirmations": null,
      "from": "0x52bc44d5378309EE2abF1539BF71dE1b7d7bE3b5",
      "gasPrice": {
        "_hex": "0x102a5518457"
      },
      "gasLimit": {
        "_hex": "0x61a8"
      },
      "to": "0x387D649ec193BBbADad77eAF0A42e0eA8c87448c",
      "value": {
        "_hex": "0x1a70268e676b0c0"
      },
      "nonce": 53,
      "data": "0x",
      "r": "0x560628753ca0ca277484bf89bf3d25d5ff7b62e70af3bc60bde9107e85ab70ed",
      "s": "0x4afe2abe40f184d639031f691a8f7e2bd5dbc8cf9023216dc85a7b36efc94ece",
      "v": 27,
      "creates": null,
      "raw": "0xf86d35860102a55184578261a894387d649ec193bbbadad77eaf0a42e0ea8c87448c8801a70268e676b0c0801ba0560628753ca0ca277484bf89bf3d25d5ff7b62e70af3bc60bde9107e85ab70eda04afe2abe40f184d639031f691a8f7e2bd5dbc8cf9023216dc85a7b36efc94ece",
      "networkId": 0,
      "chainId": 0
    }
  ]
}