{
  "hash": "0x8c8f23ae3db88e3b1d11968115b233de926bea82f4d3803112e8e19c861dfbee",
  "parentHash": "0xbae7bd816fcc956e07c871ea28243f3e0f1622b90c9eea088d64464d74b07557",
  "number": 106158,
  "timestamp": 1439899545,
  "nonce": "0xce417dd3f19a722d",
  "difficulty": 4479449956631,
  "gasLimit": {
    "_hex": "0x2fefd8"
  },
  "gasUsed": {
    "_hex": "0x5208"
  },
  "miner": "0xe6A7a1d47ff21B6321162AEA7C6CB457D5476Bca",
  "extraData": "0x476574682f76312e302e312d38326566323666362f6c696e75782f676f312e34",
  "transactions": [
    {
      "hash": "0x14c740fdf0fdf27dd415f9eb701af76f1215006c4c553af6ad9e729327577ed6",
      "blockHash": "0x8c8f23ae3db88e3b1d11968115b233de926bea82f4d3803112e8e19c861dfbee",
      "blockNumber": 106158,
      "transactionIndex": 0,
      "confirmations": null,
      "from": "0xE300c4587D260cE22a677755Db6429B491A4309E",
      "gasPrice": {
        "_hex": "0xccc82479c"
      },
      "gasLimit": {
        "_hex": "0x15f90"
      },
      "to": "0x06EC48800B2DB3eEfa052e98A9b5Fc2Bf783Ee74",
      "value": {
        "_hex": "0x4563918244f40000"
      },
      "nonce": 24,
      "data": "0x",
      "r": "0x43f2f1a92c5c22e1d6dc8a8e01c2868d43e25d49b72ec81d15794685a7c5ade2",
      "s": "0x49255bf66c7d2690a57815e9ee4fc5210733e9264e04597c563c9aa8d1f59a59",
      "v": 27,
      "creates": null,
      "raw": "0xf86d18850ccc82479c83015f909406ec48800b2db3eefa052e98a9b5fc2bf783ee74884563918244f40000801ba043f2f1a92c5c22e1d6dc8a8e01c2868d43e25d49b72ec81d15794685a7c5ade2a049255bf66c7d2690a57815e9ee4fc5210733e9264e04597c563c9aa8d1f59a59",
      "networkId": 0,
      "chainId": 0
    }
  ]
}