{
  "hash": "0xe3075318a2bd525138d5633936cf4ff7643de1c08cca847acaabf15e9bdf2945",
  "parentHash": "0x3698f168a36ddff14369fdb1f762052f2eebf2ff90e8ba11406ebd6aca00f35c",
  "number": 115341,
  "timestamp": 1440055561,
  "nonce": "0x73959420931d1f3b",
  "difficulty": 4547232675957,
  "gasLimit": {
    "_hex": "0x2fefd8"
  },
  "gasUsed": {
    "_hex": "0xf618"
  },
  "miner": "0xbb7B8287f3F0a933474a79eAe42CBCa977791171",
  "extraData": "0x476574682f4c5649562f76312e302e312f6c696e75782f676f312e342e32",
  "transactions": [
    {
      "hash": "0x202d116514b407bb8eaff1441514d413f5c99f8c7ad576918d241ac63af37ae9",
      "blockHash": "0xe3075318a2bd525138d5633936cf4ff7643de1c08cca847acaabf15e9bdf2945",
      "blockNumber": 115341,
      "transactionIndex": 0,
      "confirmations": null,
      "from": "0xc1BED23F5A2bA19A363215fC2c288FD8ee533E15",
      "gasPrice": {
        "_hex": "0xdd471fae8"
      },
      "gasLimit": {
        "_hex": "0x5208"
      },
      "to": "0xFBb1b73C4f0BDa4f67dcA266ce6Ef42f520fBB98",
      "value": {
        "_hex": "0x3206e37c54ea6cc0"
      },
      "nonce": 3,
      "data": "0x",
      "r": "0xd6d6090838686cb02f74a3ea6e3cd951fd64e6f3b287e84a51345974bd7848e8",
      "s": "0x5788206f53b8a8ab97b0b5a4b54ef54fd4b44abcd34d2c1a837cbf6008550638",
      "v": 27,
      "creates": null,
      "raw": "0xf86c03850dd471fae882520894fbb1b73c4f0bda4f67dca266ce6ef42f520fbb98883206e37c54ea6cc0801ba0d6d6090838686cb02f74a3ea6e3cd951fd64e6f3b287e84a51345974bd7848e8a05788206f53b8a8ab97b0b5a4b54ef54fd4b44abcd34d2c1a837cbf6008550638",
      "networkId": 0,
      "chainId": 0
    },
    {
      "hash": "0x5e789a23a85713594b2ea7af55d5945bc396a9504ef4c055ca45f2b194417519",
      "blockHash": "0xe3075318a2bd525138d5633936cf4ff7643de1c08cca847acaabf15e9bdf2945",
      "blockNumber": 115341,
      "transactionIndex": 1,
      "confirmations": null,
      "from": "0x2b176421eEBBf303fa94aD4fE78362Fa9e4Ca693",
      "gasPrice": {
        "_hex": "0xccabf5d78"
      },
      "gasLimit": {
        "_hex": "0x5208"
      },
      "to": "0x32Be343B94f860124dC4fEe278FDCBD38C102D88",
      "value": {
        "_hex": "0xe7eb2c101ca48000"
      },
      "nonce": 12,
      "data": "0x",
      "r": "0x8fea05624ae422dd55cb7f2dab19f803e215dd265b63c9e355409537d9f755a9",
      "s": "0x0c94e68b417e5962eecb8fbeee3feafa935ddbcd844368eb19df562cb6283d45",
      "v": 28,
      "creates": null,
      "raw": "0xf86c0c850ccabf5d788252089432be343b94f860124dc4fee278fdcbd38c102d8888e7eb2c101ca48000801ca08fea05624ae422dd55cb7f2dab19f803e215dd265b63c9e355409537d9f755a9a00c94e68b417e5962eecb8fbeee3feafa935ddbcd844368eb19df562cb6283d45",
      "networkId": 0,
      "chainId": 0
    },
    {
      "hash": "0x830e5e370fcb935ba5a5cbee70857c6a7dde65009b588baa5cda459d38bafa2f",
      "blockHash": "0xe3075318a2bd525138d5633936cf4ff7643de1c08cca847acaabf15e9bdf2945",
      "blockNumber": 115341,
      "transactionIndex": 2,
      "confirmations": null,
      "from": "0x1CaC89419da71AC175A5B99CEE0163720430990c",
      "gasPrice": {
        "_hex": "0xccabf5d78"
      },
      "gasLimit": {
        "_hex": "0x5208"
      },
      "to": "0x32Be343B94f860124dC4fEe278FDCBD38C102D88",
      "value": {
        "_hex": "0xcea70de74cbe9800"
      },
      "nonce": 10,
      "data": "0x",
      "r": "0x1fd5ef3198278b231d29e805e97dec8044f0b2839192996892db64cf80ed300e",
      "s": "0x03b938be39dfd3dbe74873b9f8104ef442ea70c39481302757df87ebe048805a",
      "v": 27,
      "creates": null,
      "raw": "0xf86c0a850ccabf5d788252089432be343b94f860124dc4fee278fdcbd38c102d8888cea70de74cbe9800801ba01fd5ef3198278b231d29e805e97dec8044f0b2839192996892db64cf80ed300ea003b938be39dfd3dbe74873b9f8104ef442ea70c39481302757df87ebe048805a",
      "networkId": 0,
      "chainId": 0
    }
  ]
}