{
  "hash": "0xddf8cb6d54e4cf9392d98af70a34a7b79adf9d71a34c30529583aebef0b59176",
  "parentHash": "0x33b1d7287aa7025410b141c160cdc2faa7984f7e1f984693c4bccdf89d399c19",
  "number": 120595,
  "timestamp": 1440162609,
  "nonce": "0x3d5e0fcd9d7fc99b",
  "difficulty": 4421808463292,
  "gasLimit": {
    "_hex": "0x2fefd8"
  },
  "gasUsed": {
    "_hex": "0xa674"
  },
  "miner": "0xe6A7a1d47ff21B6321162AEA7C6CB457D5476Bca",
  "extraData": "0xd783010002844765746887676f312e342e32856c696e7578",
  "transactions": [
    {
      "hash": "0x0bc77377de3475d7b75a3f42e6aaf257218a32d3497a20b87a556ca4dc7ff10a",
      "blockHash": "0xddf8cb6d54e4cf9392d98af70a34a7b79adf9d71a34c30529583aebef0b59176",
      "blockNumber": 120595,
      "transactionIndex": 0,
      "confirmations": null,
      "from": "0x13848B46ea75BEb7eAa85F59D866d77Fd24cF21a",
      "gasPrice": {
        "_hex": "0x110c8f7d8de"
      },
      "gasLimit": {
        "_hex": "0xc350"
      },
      "to": "0x2910543Af39abA0Cd09dBb2D50200b3E800A63D2",
      "value": {
        "_hex": "0xa8b034ca3dedc700000"
      },
      "nonce": 2,
      "data": "0x454e505942544d3030",
      "r": "0xeb883a1293a165730e5132dab4a183f913fcdf2bcd530d83d5bba2a08a87373f",
      "s": "0x3957741e9aa1c0a317644192507e9b8d12341f31db0b7d2caa6639cc77ea7f36",
      "v": 27,
      "creates": null,
      "raw": "0xf87802860110c8f7d8de82c350942910543af39aba0cd09dbb2d50200b3e800a63d28a0a8b034ca3dedc70000089454e505942544d30301ba0eb883a1293a165730e5132dab4a183f913fcdf2bcd530d83d5bba2a08a87373fa03957741e9aa1c0a317644192507e9b8d12341f31db0b7d2caa6639cc77ea7f36",
      "networkId": 0,
      "chainId": 0
    },
    {
      "hash": "0x0b82d941878c0896b285caf2403c7af13a26871b4f2c2717dbfe27848ba92145",
      "blockHash": "0xddf8cb6d54e4cf9392d98af70a34a7b79adf9d71a34c30529583aebef0b59176",
      "blockNumber": 120595,
      "transactionIndex": 1,
      "confirmations": null,
      "from": "0xD0ee3F53eE0fCf3F9fbCcdd17BD1b6441DdC2074",
      "gasPrice": {
        "_hex": "0xba43b7400"
      },
      "gasLimit": {
        "_hex": "0x15f90"
      },
      "to": "0xdc2d5af138868A1C35b1fdAF8be9844D25BAB533",
      "value": {
        "_hex": "0x3588cd627e29fd800"
      },
      "nonce": 3,
      "data": "0x",
      "r": "0xc8297e838c16382be06d47512eea6b17cb54f61fa552ebe7755c2b707c877343",
      "s": "0x4c6fae68d9ac1c1cd0cf5d1a54d7e6165e44db597c6026da53d4936781f837e3",
      "v": 27,
      "creates": null,
      "raw": "0xf86e03850ba43b740083015f9094dc2d5af138868a1c35b1fdaf8be9844d25bab5338903588cd627e29fd800801ba0c8297e838c16382be06d47512eea6b17cb54f61fa552ebe7755c2b707c877343a04c6fae68d9ac1c1cd0cf5d1a54d7e6165e44db597c6026da53d4936781f837e3",
      "networkId": 0,
      "chainId": 0
    }
  ]
}