{
  "hash": "0x847a4fc6ada032a2a03fbb73df64ee66d1730104ec63ea71655bf712d28da786",
  "parentHash": "0xb433d50eb390aab39077c04a504eac403b3280cbd37c3878746a0742de72171a",
  "number": 59525,
  "timestamp": 1439139720,
  "nonce": "0x6a12d2626dd86dab",
  "difficulty": 1695552235289,
  "gasLimit": {
    "_hex": "0x2fefd5"
  },
  "gasUsed": {
    "_hex": "0xa8d8"
  },
  "miner": "0x5F8F73E26CdF436f19Cb24C82F90A15AFe55b592",
  "extraData": "0x476574682f76312e302e312f77696e646f77732f676f312e342e32",
  "transactions": [
    {
      "hash": "0xbea7299c53a70ba5d1b060ec8b36e3d15cd6586672ff142094aa6780c11b8572",
      "blockHash": "0x847a4fc6ada032a2a03fbb73df64ee66d1730104ec63ea71655bf712d28da786",
      "blockNumber": 59525,
      "transactionIndex": 0,
      "confirmations": null,
      "from": "0xE589Fa76984DB5eC4004b46EE8a59492C30744cE",
      "gasPrice": {
        "_hex": "0x110c8f7d8de"
      },
      "gasLimit": {
        "_hex": "0xc350"
      },
      "to": "0x2910543Af39abA0Cd09dBb2D50200b3E800A63D2",
      "value": {
        "_hex": "0x2b5e3af16b18800000"
      },
      "nonce": 0,
      "data": "0x454e5a353734484e30",
      "r": "0x5ce3c249182ef0aa9a1f3b663ac479dc0468e286fc5ba48af6330262aaa1dbac",
      "s": "0x2f08a92d6b91a50e98d15a2a3e524b7f8112fb778295694c06e24932c121a8da",
      "v": 28,
      "creates": null,
      "raw": "0xf87780860110c8f7d8de82c350942910543af39aba0cd09dbb2d50200b3e800a63d2892b5e3af16b1880000089454e5a353734484e301ca05ce3c249182ef0aa9a1f3b663ac479dc0468e286fc5ba48af6330262aaa1dbaca02f08a92d6b91a50e98d15a2a3e524b7f8112fb778295694c06e24932c121a8da",
      "networkId": 0,
      "chainId": 0
    },
    {
      "hash": "0xa2630b92f2152199ea27527d187a68f6313c7d39b8079636b8a1f5198eea6d8d",
      "blockHash": "0x847a4fc6ada032a2a03fbb73df64ee66d1730104ec63ea71655bf712d28da786",
      "blockNumber": 59525,
      "transactionIndex": 1,
      "confirmations": null,
      "from": "0xB1A4B41b8e75a153841c99c62d18588d45e7b406",
      "gasPrice": {
        "_hex": "0xd6b187d36"
      },
      "gasLimit": {
        "_hex": "0x15f90"
      },
      "to": "0x2910543Af39abA0Cd09dBb2D50200b3E800A63D2",
      "value": {
        "_hex": "0x4563918244f40000"
      },
      "nonce": 0,
      "data": "0x454e46435045515752",
      "r": "0xd8596b75396d12a0900d2861a0e20cfa6f314dc3de58e870057989daea23b701",
      "s": "0x11eceef64ecb69926abbe15699ffc22d9cfe19ece02bfad31f32e4eb45eb179d",
      "v": 27,
      "creates": null,
      "raw": "0xf87680850d6b187d3683015f90942910543af39aba0cd09dbb2d50200b3e800a63d2884563918244f4000089454e464350455157521ba0d8596b75396d12a0900d2861a0e20cfa6f314dc3de58e870057989daea23b701a011eceef64ecb69926abbe15699ffc22d9cfe19ece02bfad31f32e4eb45eb179d",
      "networkId": 0,
      "chainId": 0
    }
  ]
}