{
  "hash": "0x724ca4d1beca601066901110f99145d65f37254bb7a4dc697a634c0c343b10af",
  "parentHash": "0x65522edd355769935046772af08584e00cb552c5dc4eba4c55236f2ce7772a64",
  "number": 62679,
  "timestamp": 1439192583,
  "nonce": "0x3e577c84296f68ee",
  "difficulty": 1767603536429,
  "gasLimit": {
    "_hex": "0x2fefd8"
  },
  "gasUsed": {
    "_hex": "0xddfd"
  },
  "miner": "0x0eDEd3DA479d0beF8eeC92A76644D3f4E3C177f7",
  "extraData": "0x476574682f76312e302e312f6c696e75782f676f312e342e32",
  "transactions": [
    {
      "hash": "0xd2037126bb35685a5c973fac0977e4a9fb7f937778f98dd964c11f7030312067",
      "blockHash": "0x724ca4d1beca601066901110f99145d65f37254bb7a4dc697a634c0c343b10af",
      "blockNumber": 62679,
      "transactionIndex": 0,
      "confirmations": null,
      "from": "0xFc39Be41094b1997D2169E8264c2C3BAA6c99bc4",
      "gasPrice": {
        "_hex": "0x101474ed0c4"
      },
      "gasLimit": {
        "_hex": "0x61a80"
      },
      "to": "0x020522bF9B8eD6FF41E2fa6765a17E20E2767D64",
      "value": {
        "_hex": "0x56bc75e2d63100000"
      },
      "nonce": 7,
      "data": "0x",
      "r": "0x5cda881fe2acdffa048f1e1d66349d27be672e9eaba7242422280bef278128af",
      "s": "0x44f3367a975f47999a9183e3909e534a6e748e4d4efa3f963ededc0f29de7f1f",
      "v": 27,
      "creates": null,
      "raw": "0xf86f07860101474ed0c483061a8094020522bf9b8ed6ff41e2fa6765a17e20e2767d6489056bc75e2d63100000801ba05cda881fe2acdffa048f1e1d66349d27be672e9eaba7242422280bef278128afa044f3367a975f47999a9183e3909e534a6e748e4d4efa3f963ededc0f29de7f1f",
      "networkId": 0,
      "chainId": 0
    }
  ]
}