{
  "hash": "0xaa041eec64e332071b02c4a8013591861de1fe26a65a122c1affba12099af87b",
  "parentHash": "0xd3474f32405e0ea4c912d8f386645ee85677c5935ab359f919f7de25e1a2d52f",
  "number": 60381,
  "timestamp": 1439154570,
  "nonce": "0xd11ab89ab1f7e3c9",
  "difficulty": 1742376871702,
  "gasLimit": {
    "_hex": "0x2fefd8"
  },
  "gasUsed": {
    "_hex": "0x546c"
  },
  "miner": "0xfcd004FbAD7E8FfeE821d8A10D7f0685b14933B1",
  "extraData": "0x",
  "transactions": [
    {
      "hash": "0x9af927ab81ffdcd8355caba0904327d13d5c2cd1489b9311323ab9030ebd92d3",
      "blockHash": "0xaa041eec64e332071b02c4a8013591861de1fe26a65a122c1affba12099af87b",
      "blockNumber": 60381,
      "transactionIndex": 0,
      "confirmations": null,
      "from": "0x17DD0e291d543436BF191b8b23Fa694ce38b522E",
      "gasPrice": {
        "_hex": "0xd7d40ace3"
      },
      "gasLimit": {
        "_hex": "0x55f0"
      },
      "to": "0x2910543Af39abA0Cd09dBb2D50200b3E800A63D2",
      "value": {
        "_hex": "0x31442230f8a30000"
      },
      "nonce": 0,
      "data": "0x454e584136594a4230",
      "r": "0x20d42c22833ad8f46d429150ce71faf2cfe3ad8ea19a0e47254fcfdbf917e45b",
      "s": "0x2e4533ff33593af97cd2e6b14b444344075f4af829ae15522ab5c35056eacfd7",
      "v": 27,
      "creates": null,
      "raw": "0xf87580850d7d40ace38255f0942910543af39aba0cd09dbb2d50200b3e800a63d28831442230f8a3000089454e584136594a42301ba020d42c22833ad8f46d429150ce71faf2cfe3ad8ea19a0e47254fcfdbf917e45ba02e4533ff33593af97cd2e6b14b444344075f4af829ae15522ab5c35056eacfd7",
      "networkId": 0,
      "chainId": 0
    }
  ]
}