{
  "hash": "0x8c29a9fa861d30714ad36b309e19dc2cb39787ac29baf8b81fda662d438a2f05",
  "parentHash": "0x8c6a85f8840d3b5a57a4ec4a00497d7fe32b18a20134ac8bc7186a24f3e5488a",
  "number": 50985,
  "timestamp": 1438997716,
  "nonce": "0x4e43f0f4db752762",
  "difficulty": 1546900254710,
  "gasLimit": {
    "_hex": "0x88769"
  },
  "gasUsed": {
    "_hex": "0x5208"
  },
  "miner": "0x57a5156876AA9d5bA611Db7871966a2a8c1D8f4e",
  "extraData": "0x476574682f76312e302e312d38326566323666362f6c696e75782f676f312e34",
  "transactions": [
    {
      "hash": "0x92ee9c1d3abec81f2acc6aa1f3f37b59ab9196d22eec9458083e7279327f2098",
      "blockHash": "0x8c29a9fa861d30714ad36b309e19dc2cb39787ac29baf8b81fda662d438a2f05",
      "blockNumber": 50985,
      "transactionIndex": 0,
      "confirmations": null,
      "from": "0x3Ad06149b21C55Ff867cc3fb9740D2BCc7101231",
      "gasPrice": {
        "_hex": "0xd3370a263"
      },
      "gasLimit": {
        "_hex": "0x15f90"
      },
      "to": "0x1308A2e95c0160B90803ddCA9B9a5bb55E416d79",
      "value": {
        "_hex": "0x21e19e0c9bab2400000"
      },
      "nonce": 10,
      "data": "0x",
      "r": "0x7d940d227be7c03b052f620e803799c3f583c4fb50d76165cffdf8557f8826c0",
      "s": "0x4cc1950aa9d17c738d30cd63607b4972a1df5e4d938d7268b95c0ab788e5816a",
      "v": 28,
      "creates": null,
      "raw": "0xf86f0a850d3370a26383015f90941308a2e95c0160b90803ddca9b9a5bb55e416d798a021e19e0c9bab2400000801ca07d940d227be7c03b052f620e803799c3f583c4fb50d76165cffdf8557f8826c0a04cc1950aa9d17c738d30cd63607b4972a1df5e4d938d7268b95c0ab788e5816a",
      "networkId": 0,
      "chainId": 0
    }
  ]
}