{
  "hash": "0x3cfd6b9beadda0f51899163fcb52e3ee1f5085cd8996496c6785151df6bf3187",
  "parentHash": "0x7bfd0eaa245760f184cf18bdb1d05bf265ca593f4ca1e7e54cb20b107834fc00",
  "number": 69366,
  "timestamp": 1439302895,
  "nonce": "0x5d87e3e93e41ff71",
  "difficulty": 2057845549325,
  "gasLimit": {
    "_hex": "0x2fefd8"
  },
  "gasUsed": {
    "_hex": "0x5208"
  },
  "miner": "0x47ff6576639c2e94762eA5443978D7681C0E78DC",
  "extraData": "0x476574682f76312e302e312f6c696e75782f676f312e342e32",
  "transactions": [
    {
      "hash": "0xb0b8eecb6b9f744a470b8ebf58ee69fdc3d4c388d13794624d5b47ac480d1119",
      "blockHash": "0x3cfd6b9beadda0f51899163fcb52e3ee1f5085cd8996496c6785151df6bf3187",
      "blockNumber": 69366,
      "transactionIndex": 0,
      "confirmations": null,
      "from": "0x097738363B1662599ad0777E19461601F5EC8dF9",
      "gasPrice": {
        "_hex": "0xd07822e48"
      },
      "gasLimit": {
        "_hex": "0x5208"
      },
      "to": "0x32Be343B94f860124dC4fEe278FDCBD38C102D88",
      "value": {
        "_hex": "0xe18356be1c36a8000"
      },
      "nonce": 14,
      "data": "0x",
      "r": "0x3a6428fded05e391e3e7107992e13c61488df3ac906fd821a25b2f162cadbd31",
      "s": "0x5966aa3232130a4e426243106d886a82423b149ebc63acd645af59b4cd197a37",
      "v": 27,
      "creates": null,
      "raw": "0xf86d0e850d07822e488252089432be343b94f860124dc4fee278fdcbd38c102d88890e18356be1c36a8000801ba03a6428fded05e391e3e7107992e13c61488df3ac906fd821a25b2f162cadbd31a05966aa3232130a4e426243106d886a82423b149ebc63acd645af59b4cd197a37",
      "networkId": 0,
      "chainId": 0
    }
  ]
}