{
  "hash": "0x08f62f3915855d538e55426384f92f3afc6bae9e0516b0aa80990a3bcc0cb09d",
  "parentHash": "0xfb77ef5ce75798aca1fdd4ba639b85fd1321a08a3209c17cf7d6ca71063331c3",
  "number": 99582,
  "timestamp": 1439792575,
  "nonce": "0x3d99e83492eb2252",
  "difficulty": 3782413482312,
  "gasLimit": {
    "_hex": "0x2fefd8"
  },
  "gasUsed": {
    "_hex": "0x5208"
  },
  "miner": "0xf927a40C8B7F6E07c5af7FA2155B4864a4112B13",
  "extraData": "0x",
  "transactions": [
    {
      "hash": "0x67a6dbe580cca19fc9502293697c389a12c378f55ebb3d34fa72d7f9a50efc69",
      "blockHash": "0x08f62f3915855d538e55426384f92f3afc6bae9e0516b0aa80990a3bcc0cb09d",
      "blockNumber": 99582,
      "transactionIndex": 0,
      "confirmations": null,
      "from": "0x7884D470204862a0d1A21122F41ee77430396Ee5",
      "gasPrice": {
        "_hex": "0xcbb87d127"
      },
      "gasLimit": {
        "_hex": "0x15f90"
      },
      "to": "0xd4BcD209ffBd5C85aE53DDE367650a0746f6bE23",
      "value": {
        "_hex": "0x8e1bc9bf040000"
      },
      "nonce": 38,
      "data": "0x",
      "r": "0xed7aa9f9c250af86ffbcd19999fb03ae125fa844fa8e9c4ea02cd5b537293270",
      "s": "0x747395d811be58fb6012d79572e2deb2e41e928bfa3998c463830c18b007c732",
      "v": 28,
      "creates": null,
      "raw": "0xf86c26850cbb87d12783015f9094d4bcd209ffbd5c85ae53dde367650a0746f6be23878e1bc9bf040000801ca0ed7aa9f9c250af86ffbcd19999fb03ae125fa844fa8e9c4ea02cd5b537293270a0747395d811be58fb6012d79572e2deb2e41e928bfa3998c463830c18b007c732",
      "networkId": 0,
      "chainId": 0
    }
  ]
}