{
  "hash": "0x4410875355a2ac4427002d66be1da7ed20d01194f617e0fcf6d31fc6e57821e3",
  "parentHash": "0x228f183b5ca54e02518573e94092a518f5ce2c8f223d913708616c97e3c7ef2b",
  "number": 113306,
  "timestamp": 1440021184,
  "nonce": "0xb1beeaf7fe7fab6e",
  "difficulty": 4488766044731,
  "gasLimit": {
    "_hex": "0x2fefd8"
  },
  "gasUsed": {
    "_hex": "0xa410"
  },
  "miner": "0xe6A7a1d47ff21B6321162AEA7C6CB457D5476Bca",
  "extraData": "0x476574682f76312e302e312d38326566323666362f6c696e75782f676f312e34",
  "transactions": [
    {
      "hash": "0x178c7b0c5ed26f7233a46478af1db500de1daacec479d2babd4e59044cc3038a",
      "blockHash": "0x4410875355a2ac4427002d66be1da7ed20d01194f617e0fcf6d31fc6e57821e3",
      "blockNumber": 113306,
      "transactionIndex": 0,
      "confirmations": null,
      "from": "0xb2Cc35A981a37f727C203350f78142ceCb16fb45",
      "gasPrice": {
        "_hex": "0xcdb5cfddb"
      },
      "gasLimit": {
        "_hex": "0x61a8"
      },
      "to": "0x34fDf2118f88a297b3750FAD5eEB307808d08378",
      "value": {
        "_hex": "0x106033bf82f60000"
      },
      "nonce": 5,
      "data": "0x",
      "r": "0x0eb06cbb59015e72c41fda484fca9f4c60e73326da324d22776903a9e4949ee7",
      "s": "0x150d66ec7e7936cfc325826a5c41a031ce490d1a659df7ce18cbde489682e4f4",
      "v": 28,
      "creates": null,
      "raw": "0xf86c05850cdb5cfddb8261a89434fdf2118f88a297b3750fad5eeb307808d0837888106033bf82f60000801ca00eb06cbb59015e72c41fda484fca9f4c60e73326da324d22776903a9e4949ee7a0150d66ec7e7936cfc325826a5c41a031ce490d1a659df7ce18cbde489682e4f4",
      "networkId": 0,
      "chainId": 0
    },
    {
      "hash": "0xfc250e6d6cafa3abb130c63e16892ee46b4475bfa93d2a4d24aebb3d2d137c80",
      "blockHash": "0x4410875355a2ac4427002d66be1da7ed20d01194f617e0fcf6d31fc6e57821e3",
      "blockNumber": 113306,
      "transactionIndex": 1,
      "confirmations": null,
      "from": "0xF7d656314a325997c2adD0c4A788975eFbdDF659",
      "gasPrice": {
        "_hex": "0xcd1e25167"
      },
      "gasLimit": {
        "_hex": "0x15f90"
      },
      "to": "0xD021d7e87Aa8053C9A196aEF9ad37Aa7CdC44898",
      "value": {
        "_hex": "0x159363b865712800"
      },
      "nonce": 0,
      "data": "0x",
      "r": "0xeb9fdc2749a6af98091d1afe74aacae8f8c833402cf89e2f08ab17cada51ae65",
      "s": "0x0c12a67b04e5d80f4d56b8d5adde1a2bfdd41037ec884b5115566793cb7fcc3e",
      "v": 28,
      "creates": null,
      "raw": "0xf86d80850cd1e2516783015f9094d021d7e87aa8053c9a196aef9ad37aa7cdc4489888159363b865712800801ca0eb9fdc2749a6af98091d1afe74aacae8f8c833402cf89e2f08ab17cada51ae65a00c12a67b04e5d80f4d56b8d5adde1a2bfdd41037ec884b5115566793cb7fcc3e",
      "networkId": 0,
      "chainId": 0
    }
  ]
}