{
  "hash": "0xf8145b68d5270851cfb530f0f3ee7a80020192ef06a9ba365059458e09cf881a",
  "parentHash": "0xe6cedcbcb3f5164e30a0cd4cd567b811557ffad1682dbd6a70e7d6697085a4a2",
  "number": 51224,
  "timestamp": 1439001454,
  "nonce": "0x81590668efb22dc6",
  "difficulty": 1564326017568,
  "gasLimit": {
    "_hex": "0x9b7d1"
  },
  "gasUsed": {
    "_hex": "0x1d5e2"
  },
  "miner": "0xf927a40C8B7F6E07c5af7FA2155B4864a4112B13",
  "extraData": "0x476574682f76312e302e312f6c696e75782f676f312e342e32",
  "transactions": [
    {
      "hash": "0x504fca3a610c604eadb12364bd7fcd1302b5f94b29fca6fd4a0c00e819f110bc",
      "blockHash": "0xf8145b68d5270851cfb530f0f3ee7a80020192ef06a9ba365059458e09cf881a",
      "blockNumber": 51224,
      "transactionIndex": 0,
      "confirmations": null,
      "from": "0x2905726Ed11131A984ce9C0119cB32DBC99dE90B",
      "gasPrice": {
        "_hex": "0xfe29eabd08"
      },
      "gasLimit": {
        "_hex": "0x15f90"
      },
      "to": "0x8bbF81e9A8E936242354047C9905d621E269c7f7",
      "value": {
        "_hex": "0x38d7ea4c68000"
      },
      "nonce": 4,
      "data": "0x77ef5ed3",
      "r": "0x5a2e2afdb9aa27882387742d7b6fa186321e72ff64f6574b9c5b89294d17cb34",
      "s": "0x4e09df6fbd2f6e69a05be7bde34cf1216d75d07a0aba9cfe5bd1da62b1cf1887",
      "v": 28,
      "creates": null,
      "raw": "0xf8700485fe29eabd0883015f90948bbf81e9a8e936242354047c9905d621e269c7f787038d7ea4c680008477ef5ed31ca05a2e2afdb9aa27882387742d7b6fa186321e72ff64f6574b9c5b89294d17cb34a04e09df6fbd2f6e69a05be7bde34cf1216d75d07a0aba9cfe5bd1da62b1cf1887",
      "networkId": 0,
      "chainId": 0
    },
    {
      "hash": "0x4d326f532fae3455b4ee88d87cbcb0d4d414700ded08c7e541a12b0b34bc6557",
      "blockHash": "0xf8145b68d5270851cfb530f0f3ee7a80020192ef06a9ba365059458e09cf881a",
      "blockNumber": 51224,
      "transactionIndex": 1,
      "confirmations": null,
      "from": "0x3F587446d527E3a66c695E46D735838500fA92fe",
      "gasPrice": {
        "_hex": "0xdaf14d3ab"
      },
      "gasLimit": {
        "_hex": "0x15f90"
      },
      "to": "0x625178115fAC44a1af236886151a17d98767bb5e",
      "value": {
        "_hex": "0x2386f26fc10000"
      },
      "nonce": 0,
      "data": "0x",
      "r": "0xa70a99dde336526b090d0d6673740f1b70585328d2333fbdce8eda012b58dbb1",
      "s": "0x7dec27b6319b63e001c9b6e1169b8f1664e010130ccb8ed807b38459fb15b21f",
      "v": 28,
      "creates": null,
      "raw": "0xf86c80850daf14d3ab83015f9094625178115fac44a1af236886151a17d98767bb5e872386f26fc10000801ca0a70a99dde336526b090d0d6673740f1b70585328d2333fbdce8eda012b58dbb1a07dec27b6319b63e001c9b6e1169b8f1664e010130ccb8ed807b38459fb15b21f",
      "networkId": 0,
      "chainId": 0
    },
    {
      "hash": "0xb4f569db4cf8e28854d857f0e495717bb83228f1c8ad8fd240b025c46ca894f1",
      "blockHash": "0xf8145b68d5270851cfb530f0f3ee7a80020192ef06a9ba365059458e09cf881a",
      "blockNumber": 51224,
      "transactionIndex": 2,
      "confirmations": null,
      "from": "0xC555B93156F09101233c6f7CF6eB3c4F196D3346",
      "gasPrice": {
        "_hex": "0xd8c7241d2"
      },
      "gasLimit": {
        "_hex": "0x15f90"
      },
      "to": "0x36DeE907a4DA9858CE11CDDd63FAAF89EF610d71",
      "value": {
        "_hex": "0x4563918244f40000"
      },
      "nonce": 3,
      "data": "0x",
      "r": "0x9964eaf1f67c742c41d4e564bc2ff26fa94cbcab281465af6fa99d2a595ed46d",
      "s": "0x0f703c666f7f802f663fa47b85ac186cc8994b66b5f8f35529f14d477f3e9eda",
      "v": 27,
      "creates": null,
      "raw": "0xf86d03850d8c7241d283015f909436dee907a4da9858ce11cddd63faaf89ef610d71884563918244f40000801ba09964eaf1f67c742c41d4e564bc2ff26fa94cbcab281465af6fa99d2a595ed46da00f703c666f7f802f663fa47b85ac186cc8994b66b5f8f35529f14d477f3e9eda",
      "networkId": 0,
      "chainId": 0
    },
    {
      "hash": "0xdfe434f1eab3365a4657a2f84f52496be8265e512d93aa2b386e0dcc5adaf1a5",
      "blockHash": "0xf8145b68d5270851cfb530f0f3ee7a80020192ef06a9ba365059458e09cf881a",
      "blockNumber": 51224,
      "transactionIndex": 3,
      "confirmations": null,
      "from": "0xc8ebccC5F5689Fa8659d83713341e5aD19349448",
      "gasPrice": {
        "_hex": "0xd828433cf"
      },
      "gasLimit": {
        "_hex": "0x7a120"
      },
      "to": "0x109C4f2CCc82C4d77Bde15F306707320294Aea3F",
      "value": {
        "_hex": "0xde0b6b3a7640000"
      },
      "nonce": 10,
      "data": "0x",
      "r": "0xc166fd8bfc231ba87393a53c93e4207a17609f68ad1dea8016da31671cdcf278",
      "s": "0x235230764b8b434b4e8f1210a0350c074a34e5b48bce351b0e283ac42f80b0ad",
      "v": 27,
      "creates": null,
      "raw": "0xf86d0a850d828433cf8307a12094109c4f2ccc82c4d77bde15f306707320294aea3f880de0b6b3a7640000801ba0c166fd8bfc231ba87393a53c93e4207a17609f68ad1dea8016da31671cdcf278a0235230764b8b434b4e8f1210a0350c074a34e5b48bce351b0e283ac42f80b0ad",
      "networkId": 0,
      "chainId": 0
    }
  ]
}