{
  "hash": "0x838e05a466845a0bdb9b0b94d3937757345bd4e110108c7751c6f66ea9bb6bb7",
  "parentHash": "0x29e953f7892fb9fa351aba58d0ec4f22b91bf39387a90fa1cf8b67ff01602bc7",
  "number": 50916,
  "timestamp": 1438996602,
  "nonce": "0xfc526d7e40c88305",
  "difficulty": 1547668491805,
  "gasLimit": {
    "_hex": "0x83170"
  },
  "gasUsed": {
    "_hex": "0xddfd"
  },
  "miner": "0xf8E0CA3Ed80bd541b94BEdCf259e8CF2141A9523",
  "extraData": "0x476574682f76312e302e312f77696e646f77732f676f312e342e32",
  "transactions": [
    {
      "hash": "0xd83fe5c4afc728f45c4be3f0055978c28e04e2e2aec1af02f92eba8bd862aee9",
      "blockHash": "0x838e05a466845a0bdb9b0b94d3937757345bd4e110108c7751c6f66ea9bb6bb7",
      "blockNumber": 50916,
      "transactionIndex": 0,
      "confirmations": null,
      "from": "0x17580B766f7453525ca4C6A88b01b50570EA088C",
      "gasPrice": {
        "_hex": "0xdab71aaf7"
      },
      "gasLimit": {
        "_hex": "0x7a120"
      },
      "to": "0x109C4f2CCc82C4d77Bde15F306707320294Aea3F",
      "value": {
        "_hex": "0xde0b6b3a7640000"
      },
      "nonce": 6,
      "data": "0x",
      "r": "0x6c0656d629748c60f47994fee49757eb9677ca2140e970873367e3cb22cf31ba",
      "s": "0x6df985c78ca612a466c4ac4a1d4b26ec2c52ad0a62c9911d8677a3185bbcb7a9",
      "v": 27,
      "creates": null,
      "raw": "0xf86d06850dab71aaf78307a12094109c4f2ccc82c4d77bde15f306707320294aea3f880de0b6b3a7640000801ba06c0656d629748c60f47994fee49757eb9677ca2140e970873367e3cb22cf31baa06df985c78ca612a466c4ac4a1d4b26ec2c52ad0a62c9911d8677a3185bbcb7a9",
      "networkId": 0,
      "chainId": 0
    }
  ]
}