{
  "hash": "0xe5e70ae2b0f050a94510c00536108f153dbd5f3957662f8bb897bb3898cba2d7",
  "parentHash": "0x4cb990555570de325a580c0b81235153d1b5a9efd617033054142cd824025bd7",
  "number": 57050,
  "timestamp": 1439096647,
  "nonce": "0xf50a020cf3056c41",
  "difficulty": 1715207394361,
  "gasLimit": {
    "_hex": "0x2fefd8"
  },
  "gasUsed": {
    "_hex": "0x5208"
  },
  "miner": "0x76f84927A612Dc4D9E690AFc6275f2Ef1D78a4B0",
  "extraData": "0x476574682f76312e302e312f6c696e75782f676f312e342e32",
  "transactions": [
    {
      "hash": "0xb515251ac4838ff9439c0641066a55ec3e4bebb9b87eda8706b7925bddb1a321",
      "blockHash": "0xe5e70ae2b0f050a94510c00536108f153dbd5f3957662f8bb897bb3898cba2d7",
      "blockNumber": 57050,
      "transactionIndex": 0,
      "confirmations": null,
      "from": "0x1308A2e95c0160B90803ddCA9B9a5bb55E416d79",
      "gasPrice": {
        "_hex": "0x9184e72a000"
      },
      "gasLimit": {
        "_hex": "0x15f90"
      },
      "to": "0x025c3B43d57E72D2150E14B2B0c6D923FbFC0474",
      "value": {
        "_hex": "0x3635c9adc5dea00000"
      },
      "nonce": 78,
      "data": "0x",
      "r": "0xad7d456268b11e4c78ebd806b067b2b18ea55c0eb7e3d3e093e733c380911d69",
      "s": "0x7ce4e053a370daacbf65e759bc809e440ec920d10565143e07e5027a543e589c",
      "v": 27,
      "creates": null,
      "raw": "0xf86f4e8609184e72a00083015f9094025c3b43d57e72d2150e14b2b0c6d923fbfc0474893635c9adc5dea00000801ba0ad7d456268b11e4c78ebd806b067b2b18ea55c0eb7e3d3e093e733c380911d69a07ce4e053a370daacbf65e759bc809e440ec920d10565143e07e5027a543e589c",
      "networkId": 0,
      "chainId": 0
    }
  ]
}