{
  "hash": "0x59c78b66ab6b438a0c01f929692a74c37d6d0afc2dd02550730d87a2cd7149ca",
  "parentHash": "0x1b67240636d94ba1c43c234e160da96239acb0f5ceeadd2bcf0843fd86dfa39e",
  "number": 58850,
  "timestamp": 1439127729,
  "nonce": "0x5eb52959b9b90989",
  "difficulty": 1706486559611,
  "gasLimit": {
    "_hex": "0x2fefd8"
  },
  "gasUsed": {
    "_hex": "0x546c"
  },
  "miner": "0xeB1325C8D9d3ea8D74aC11F4B00F1B2367686319",
  "extraData": "0x476574682f76312e302e312f77696e646f77732f676f312e342e32",
  "transactions": [
    {
      "hash": "0xf793fde9a122eeac8fd639ec2b31e92d72503230263bc01f7d95eb3a467356b9",
      "blockHash": "0x59c78b66ab6b438a0c01f929692a74c37d6d0afc2dd02550730d87a2cd7149ca",
      "blockNumber": 58850,
      "transactionIndex": 0,
      "confirmations": null,
      "from": "0x0BAf6ecDB91acB3606a8357C0bc4f45cFd2d7e6F",
      "gasPrice": {
        "_hex": "0x110c8f7d8de"
      },
      "gasLimit": {
        "_hex": "0xc350"
      },
      "to": "0x2910543Af39abA0Cd09dBb2D50200b3E800A63D2",
      "value": {
        "_hex": "0x8963dd8c2c5e0000"
      },
      "nonce": 1,
      "data": "0x454e594b5534583738",
      "r": "0x1e0e27fb60d03423a81bbf6ff8b58bb00d0537c0dd5813dd00aa2a9350940f1f",
      "s": "0x29d5a64e58d8c27524891f19b55564cea5fd96e17ab275c64eb5a36f184e5f1f",
      "v": 27,
      "creates": null,
      "raw": "0xf87601860110c8f7d8de82c350942910543af39aba0cd09dbb2d50200b3e800a63d2888963dd8c2c5e000089454e594b55345837381ba01e0e27fb60d03423a81bbf6ff8b58bb00d0537c0dd5813dd00aa2a9350940f1fa029d5a64e58d8c27524891f19b55564cea5fd96e17ab275c64eb5a36f184e5f1f",
      "networkId": 0,
      "chainId": 0
    }
  ]
}