{
  "hash": "0x7fa62a7652763e878816c32f135378b8c2a3155492be4f7ec4a2d2b7ddae2c26",
  "parentHash": "0xb8caa22f159ca21e9ee0c9fe87da5edd782567ae35d2fe114c0f88634a847bde",
  "number": 106090,
  "timestamp": 1439898388,
  "nonce": "0xa705563cf9656bc6",
  "difficulty": 4462022404930,
  "gasLimit": {
    "_hex": "0x2fefd8"
  },
  "gasUsed": {
    "_hex": "0x5208"
  },
  "miner": "0x9746c7e1ef2bd21FF3997fa467593a89cb852BD0",
  "extraData": "0x476574682f76312e302e312f77696e646f77732f676f312e342e32",
  "transactions": [
    {
      "hash": "0x0ce740bdcdb1f437e564b08303f735fb7179f8e9193c2d4e0b5adc068e1df268",
      "blockHash": "0x7fa62a7652763e878816c32f135378b8c2a3155492be4f7ec4a2d2b7ddae2c26",
      "blockNumber": 106090,
      "transactionIndex": 0,
      "confirmations": null,
      "from": "0xFf1Ef60B3bF5d14b5C40388e35A6fbd42700efC6",
      "gasPrice": {
        "_hex": "0xd4e7c440f"
      },
      "gasLimit": {
        "_hex": "0x15f90"
      },
      "to": "0x556ca325C21e450b2aFf86D9c8eF0Fa371971c97",
      "value": {
        "_hex": "0x75f610f70ed20000"
      },
      "nonce": 1,
      "data": "0x",
      "r": "0xcb60bfb61d880d7f771433b95bdeb69e6a2a72daf6e41fef9e6983d816ea4bab",
      "s": "0x2f2dfa004ce0c78736009bb8e3eb66a37a94a5c766205505a76fca8006899c48",
      "v": 28,
      "creates": null,
      "raw": "0xf86d01850d4e7c440f83015f9094556ca325c21e450b2aff86d9c8ef0fa371971c978875f610f70ed20000801ca0cb60bfb61d880d7f771433b95bdeb69e6a2a72daf6e41fef9e6983d816ea4baba02f2dfa004ce0c78736009bb8e3eb66a37a94a5c766205505a76fca8006899c48",
      "networkId": 0,
      "chainId": 0
    }
  ]
}