{
  "hash": "0x1805046d69f344cf3341cd5fcd6d2597d443d9d51c35e4f93580dfde3cf73034",
  "parentHash": "0x92b4a551a66ba87993ea53419791ab76209600691ae47ccbe02ec796b938770f",
  "number": 103731,
  "timestamp": 1439858111,
  "nonce": "0xc70bbaf4988988f7",
  "difficulty": 4207216630222,
  "gasLimit": {
    "_hex": "0x2fefd8"
  },
  "gasUsed": {
    "_hex": "0x5208"
  },
  "miner": "0xa6BDc31c431B8F97848c9D60cbbe9660dc450eB7",
  "extraData": "0x",
  "transactions": [
    {
      "hash": "0x9f879ee2b69b74e31a9e700cb8e4ec97e9cb51206deca3e053dc4cffa78046a9",
      "blockHash": "0x1805046d69f344cf3341cd5fcd6d2597d443d9d51c35e4f93580dfde3cf73034",
      "blockNumber": 103731,
      "transactionIndex": 0,
      "confirmations": null,
      "from": "0xC47Aaa860008be6f65B58c6C6E02a84e666EfE31",
      "gasPrice": {
        "_hex": "0xd3f64bf21"
      },
      "gasLimit": {
        "_hex": "0x15f90"
      },
      "to": "0x4c9DC178a52AC8Cc97B67a702A42d5B3De124aD4",
      "value": {
        "_hex": "0xde0b6b3a7640000"
      },
      "nonce": 79,
      "data": "0x",
      "r": "0xa10c4bdadb69e107373b18cc7b78d4a222af82807d12611d57ef1afe9a0fc7f3",
      "s": "0x5b88464b9da0a6381f2ae4f27dcc0151cc769e4877f4db36e7a91078765d1fb8",
      "v": 27,
      "creates": null,
      "raw": "0xf86d4f850d3f64bf2183015f90944c9dc178a52ac8cc97b67a702a42d5b3de124ad4880de0b6b3a7640000801ba0a10c4bdadb69e107373b18cc7b78d4a222af82807d12611d57ef1afe9a0fc7f3a05b88464b9da0a6381f2ae4f27dcc0151cc769e4877f4db36e7a91078765d1fb8",
      "networkId": 0,
      "chainId": 0
    }
  ]
}