{
  "hash": "0xabc65de7a67b3c360afb6065b12ea0d746294e0c9dd77bfa9dbe15db0b86d7bf",
  "parentHash": "0xab7ba40dd01abcb3c99e432c1c193852e47a5ccf7a6ac440297d4a7d7867286d",
  "number": 58294,
  "timestamp": 1439118296,
  "nonce": "0x4fc2a92b39153768",
  "difficulty": 1714953054189,
  "gasLimit": {
    "_hex": "0x2fefd8"
  },
  "gasUsed": {
    "_hex": "0x5208"
  },
  "miner": "0x9746c7e1ef2bd21FF3997fa467593a89cb852BD0",
  "extraData": "0x476574682f76312e302e312f77696e646f77732f676f312e342e32",
  "transactions": [
    {
      "hash": "0xd1232b341bb117db08b99bab3d30d1251249f672a226f0f44fa614e2545067d4",
      "blockHash": "0xabc65de7a67b3c360afb6065b12ea0d746294e0c9dd77bfa9dbe15db0b86d7bf",
      "blockNumber": 58294,
      "transactionIndex": 0,
      "confirmations": null,
      "from": "0xd7C9Da7F000be9dcD742D6437dE28669DAFf0f4B",
      "gasPrice": {
        "_hex": "0x105ab65ec64"
      },
      "gasLimit": {
        "_hex": "0x5208"
      },
      "to": "0x931Ac2444b057f80A06A4FB627f26FFA5CE41184",
      "value": {
        "_hex": "0x1e5b8fa8fe2ac0000"
      },
      "nonce": 1,
      "data": "0x",
      "r": "0x6a262f51b425671e1301b2b3e35cf5534e952b6d858a12a4c3233b45abd8bd1f",
      "s": "0x29b9967f00d2a82ca4336386866bee6db2203e67931d538c46a623a23e56148a",
      "v": 27,
      "creates": null,
      "raw": "0xf86e01860105ab65ec6482520894931ac2444b057f80a06a4fb627f26ffa5ce411848901e5b8fa8fe2ac0000801ba06a262f51b425671e1301b2b3e35cf5534e952b6d858a12a4c3233b45abd8bd1fa029b9967f00d2a82ca4336386866bee6db2203e67931d538c46a623a23e56148a",
      "networkId": 0,
      "chainId": 0
    }
  ]
}