{
  "hash": "0xf195aa090a278fb37ec6a3181c11b2668ea850074a7fdebec2d22e1d6c5e928b",
  "parentHash": "0x4e4262657e0c71926dca6509f3f62bb2c6dd12213e6c8ef4ed83c5f1f1d760fe",
  "number": 122058,
  "timestamp": 1440187458,
  "nonce": "0x6c7b9f29b4d857d8",
  "difficulty": 4462243686565,
  "gasLimit": {
    "_hex": "0x2fefd8"
  },
  "gasUsed": {
    "_hex": "0x19a28"
  },
  "miner": "0x0037ce3d4B7f8729C8607D8D0248252Be68202c0",
  "extraData": "0x",
  "transactions": [
    {
      "hash": "0x29400507948ff30c891a2db1fc50b379c6c24e4d275de957d8588fb08c669abf",
      "blockHash": "0xf195aa090a278fb37ec6a3181c11b2668ea850074a7fdebec2d22e1d6c5e928b",
      "blockNumber": 122058,
      "transactionIndex": 0,
      "confirmations": null,
      "from": "0x32Be343B94f860124dC4fEe278FDCBD38C102D88",
      "gasPrice": {
        "_hex": "0xcdb7ff216"
      },
      "gasLimit": {
        "_hex": "0x5208"
      },
      "to": "0xBeEC2A78aD28d873e968C60963cD2Fdf396FB594",
      "value": {
        "_hex": "0xcc1eb9684b0560000"
      },
      "nonce": 1594,
      "data": "0x",
      "r": "0xd5b87c450d6ed408d696893c556326240c2796de474bab541cb1bb36e9eb25f5",
      "s": "0x6a59667a5312fe71fa1beab9a5df723e26d4bce7d55eeb5b48479369c9f2e4c7",
      "v": 28,
      "creates": null,
      "raw": "0xf86f82063a850cdb7ff21682520894beec2a78ad28d873e968c60963cd2fdf396fb594890cc1eb9684b0560000801ca0d5b87c450d6ed408d696893c556326240c2796de474bab541cb1bb36e9eb25f5a06a59667a5312fe71fa1beab9a5df723e26d4bce7d55eeb5b48479369c9f2e4c7",
      "networkId": 0,
      "chainId": 0
    },
    {
      "hash": "0x95a13a9747b8a98be1a84c29d7acd9f8bb3c064104034db943c0780ac262f4bf",
      "blockHash": "0xf195aa090a278fb37ec6a3181c11b2668ea850074a7fdebec2d22e1d6c5e928b",
      "blockNumber": 122058,
      "transactionIndex": 1,
      "confirmations": null,
      "from": "0x2910543Af39abA0Cd09dBb2D50200b3E800A63D2",
      "gasPrice": {
        "_hex": "0xcd5c3b705"
      },
      "gasLimit": {
        "_hex": "0x5208"
      },
      "to": "0x19ae27E1b61445EB9f27821A5eB4b3e957319e7e",
      "value": {
        "_hex": "0xa2a14b45d863ff8000"
      },
      "nonce": 1211,
      "data": "0x",
      "r": "0x924030677a89cb644a436ea753195b3008839e6978e5ad7c556a36730f3c83ef",
      "s": "0x767a38605de7a466f1a06068399aa87c6cb10629cf91cabc465e94c65e8068cd",
      "v": 28,
      "creates": null,
      "raw": "0xf86f8204bb850cd5c3b7058252089419ae27e1b61445eb9f27821a5eb4b3e957319e7e89a2a14b45d863ff8000801ca0924030677a89cb644a436ea753195b3008839e6978e5ad7c556a36730f3c83efa0767a38605de7a466f1a06068399aa87c6cb10629cf91cabc465e94c65e8068cd",
      "networkId": 0,
      "chainId": 0
    },
    {
      "hash": "0x5ea80fd3bcfcc46f2babefd494b70431db1f3ab7426f5da3afc60a5468eb01ae",
      "blockHash": "0xf195aa090a278fb37ec6a3181c11b2668ea850074a7fdebec2d22e1d6c5e928b",
      "blockNumber": 122058,
      "transactionIndex": 2,
      "confirmations": null,
      "from": "0x2910543Af39abA0Cd09dBb2D50200b3E800A63D2",
      "gasPrice": {
        "_hex": "0xcd5c3b705"
      },
      "gasLimit": {
        "_hex": "0x5208"
      },
      "to": "0x289B9bA6dC9c12D3130F1115180397C20cCBF220",
      "value": {
        "_hex": "0xa2a14b45d863ff8000"
      },
      "nonce": 1212,
      "data": "0x",
      "r": "0x44b445c8c33ec67ba5997d4c4cf83e62b333c243d2bb025783d0fd79988484bf",
      "s": "0x7ac0aa633640947c356d45720605d4971e09a412ecf7f3aab781a06ef710dfee",
      "v": 28,
      "creates": null,
      "raw": "0xf86f8204bc850cd5c3b70582520894289b9ba6dc9c12d3130f1115180397c20ccbf22089a2a14b45d863ff8000801ca044b445c8c33ec67ba5997d4c4cf83e62b333c243d2bb025783d0fd79988484bfa07ac0aa633640947c356d45720605d4971e09a412ecf7f3aab781a06ef710dfee",
      "networkId": 0,
      "chainId": 0
    },
    {
      "hash": "0x47dcded86fb5b182f3b231b0209486d59061a4ad5e5e92aa837b690130fd2307",
      "blockHash": "0xf195aa090a278fb37ec6a3181c11b2668ea850074a7fdebec2d22e1d6c5e928b",
      "blockNumber": 122058,
      "transactionIndex": 3,
      "confirmations": null,
      "from": "0x2910543Af39abA0Cd09dBb2D50200b3E800A63D2",
      "gasPrice": {
        "_hex": "0xcd5c3b705"
      },
      "gasLimit": {
        "_hex": "0x5208"
      },
      "to": "0x6Ea9d172E15e969316f49CB2D5549fc3b00c1ef3",
      "value": {
        "_hex": "0xa2a14b45d863ff8000"
      },
      "nonce": 1213,
      "data": "0x",
      "r": "0x0a78e3b04be73814853c953b27b490cf43d0f0aece99be3fc80cdbe5f5335f7a",
      "s": "0x47b57fbdbbbf280b768d9c88ff0a033795fa151a6237ef51c33b5fefd02aadf0",
      "v": 27,
      "creates": null,
      "raw": "0xf86f8204bd850cd5c3b705825208946ea9d172e15e969316f49cb2d5549fc3b00c1ef389a2a14b45d863ff8000801ba00a78e3b04be73814853c953b27b490cf43d0f0aece99be3fc80cdbe5f5335f7aa047b57fbdbbbf280b768d9c88ff0a033795fa151a6237ef51c33b5fefd02aadf0",
      "networkId": 0,
      "chainId": 0
    },
    {
      "hash": "0xc07808beccb75493b7bb5f8d0d224eee157490b10e0df7ffab244b432627eb2d",
      "blockHash": "0xf195aa090a278fb37ec6a3181c11b2668ea850074a7fdebec2d22e1d6c5e928b",
      "blockNumber": 122058,
      "transactionIndex": 4,
      "confirmations": null,
      "from": "0x75636cDb109050E43D5D6Ec47E359e218E857ECA",
      "gasPrice": {
        "_hex": "0xba43b7400"
      },
      "gasLimit": {
        "_hex": "0x5208"
      },
      "to": "0x6bADA45e56f1e8705AAB08bd2B2414ae5688e511",
      "value": {
        "_hex": "0x15586102d2b60f00000"
      },
      "nonce": 5,
      "data": "0x",
      "r": "0x93ab224bcdd0369387cccd0ade6765c2b03684db0955cf034ca2682512f5fa6a",
      "s": "0x6af960755b20150e5a3d11a28d05e9d512837390a17c49e267eeb1874e989b28",
      "v": 27,
      "creates": null,
      "raw": "0xf86e05850ba43b7400825208946bada45e56f1e8705aab08bd2b2414ae5688e5118a015586102d2b60f00000801ba093ab224bcdd0369387cccd0ade6765c2b03684db0955cf034ca2682512f5fa6aa06af960755b20150e5a3d11a28d05e9d512837390a17c49e267eeb1874e989b28",
      "networkId": 0,
      "chainId": 0
    }
  ]
}