{
  "hash": "0xe151797856bdc60e24f4e846b1236383f1fe09458312d87714e86f68bde56181",
  "parentHash": "0xce9050c5ac18e816ebe6f7d958fa1398cef4766f98973dfb966b76775d11a666",
  "number": 114415,
  "timestamp": 1440039878,
  "nonce": "0x088049ff8a21098d",
  "difficulty": 4516752646587,
  "gasLimit": {
    "_hex": "0x2fefd8"
  },
  "gasUsed": {
    "_hex": "0x5208"
  },
  "miner": "0xf927a40C8B7F6E07c5af7FA2155B4864a4112B13",
  "extraData": "0x476574682f76312e302e312f6c696e75782f676f312e342e32",
  "transactions": [
    {
      "hash": "0x6b7d896943fdd67f0492b9bb2b61a44de2aeeb1361734da86124ff90a72a1fa0",
      "blockHash": "0xe151797856bdc60e24f4e846b1236383f1fe09458312d87714e86f68bde56181",
      "blockNumber": 114415,
      "transactionIndex": 0,
      "confirmations": null,
      "from": "0x32Be343B94f860124dC4fEe278FDCBD38C102D88",
      "gasPrice": {
        "_hex": "0xd48ff2ca8"
      },
      "gasLimit": {
        "_hex": "0x5208"
      },
      "to": "0xEcea5FdBdd578fA0aFfeA4a57e603828D978f20E",
      "value": {
        "_hex": "0xdbd2fc137a30000"
      },
      "nonce": 1394,
      "data": "0x",
      "r": "0x9813a1b5e0be7bf134d83276c27c6ea14848ebdaf078f126dbf42d5fb4ad2347",
      "s": "0x5de070e38b5b3796ae2bd1c8813c0f17f84b575ab7aa2ff3a5ef91937059215e",
      "v": 28,
      "creates": null,
      "raw": "0xf86e820572850d48ff2ca882520894ecea5fdbdd578fa0affea4a57e603828d978f20e880dbd2fc137a30000801ca09813a1b5e0be7bf134d83276c27c6ea14848ebdaf078f126dbf42d5fb4ad2347a05de070e38b5b3796ae2bd1c8813c0f17f84b575ab7aa2ff3a5ef91937059215e",
      "networkId": 0,
      "chainId": 0
    }
  ]
}