{
  "hash": "0x74417c81aec9cfe29b9876fb4301dcf6b155971e98485fef6d729e48f15f73e5",
  "parentHash": "0x226c5ab355bc8967ae0e88fdc5a21f9336d9caea63ea75aa5d16d1aaec878679",
  "number": 76424,
  "timestamp": 1439420333,
  "nonce": "0xb9040fe213cdfd2b",
  "difficulty": 2225362391971,
  "gasLimit": {
    "_hex": "0x2fefd8"
  },
  "gasUsed": {
    "_hex": "0x70d3"
  },
  "miner": "0xf927a40C8B7F6E07c5af7FA2155B4864a4112B13",
  "extraData": "0x",
  "transactions": [
    {
      "hash": "0x7fa4668f4b31c2a904ab7b4b8afa12f247200941d4de9ef252ee25234f69817f",
      "blockHash": "0x74417c81aec9cfe29b9876fb4301dcf6b155971e98485fef6d729e48f15f73e5",
      "blockNumber": 76424,
      "transactionIndex": 0,
      "confirmations": null,
      "from": "0x8Be84A3adfBc51c59023B2413766E229108c35DE",
      "gasPrice": {
        "_hex": "0xd1825396f"
      },
      "gasLimit": {
        "_hex": "0x493e0"
      },
      "to": "0xD79B4C6791784184e2755B2fC1659eaaB0f80456",
      "value": {
        "_hex": "0x0"
      },
      "nonce": 6,
      "data": "0xbd66528a73302e3635333135393532383730373538333600000000000000000000000000",
      "r": "0x31260aead151b954b91fcf27d29faa2ac3619b1073ec4560b42450f7223edf94",
      "s": "0x5b65da4402286c83db6d8ac222d3235db70a34abce49e103bd74ac74a9b750ef",
      "v": 27,
      "creates": null,
      "raw": "0xf88906850d1825396f830493e094d79b4c6791784184e2755b2fc1659eaab0f8045680a4bd66528a73302e36353331353935323837303735383336000000000000000000000000001ba031260aead151b954b91fcf27d29faa2ac3619b1073ec4560b42450f7223edf94a05b65da4402286c83db6d8ac222d3235db70a34abce49e103bd74ac74a9b750ef",
      "networkId": 0,
      "chainId": 0
    }
  ]
}