{
  "hash": "0x76057149fb212035277daa95fd37ab281daa92cbbfb34ad4dd71eabf70a129ac",
  "parentHash": "0xa8f2e0b84e20de03621b66575eb684ea0e6c9171dadf8fd3d2eafbea179028e2",
  "number": 84620,
  "timestamp": 1439552201,
  "nonce": "0x93786be605eeef6a",
  "difficulty": 2591567902480,
  "gasLimit": {
    "_hex": "0x2fefd8"
  },
  "gasUsed": {
    "_hex": "0x5208"
  },
  "miner": "0x47ff6576639c2e94762eA5443978D7681C0E78DC",
  "extraData": "0x476574682f76312e302e312f6c696e75782f676f312e342e32",
  "transactions": [
    {
      "hash": "0x2f231d670dca2b6d38dc862e4a89f54ebfdf234ab5b8021c53444a7c736b9bc9",
      "blockHash": "0x76057149fb212035277daa95fd37ab281daa92cbbfb34ad4dd71eabf70a129ac",
      "blockNumber": 84620,
      "transactionIndex": 0,
      "confirmations": null,
      "from": "0x7D34Ff59Ae840A7413C6Ba4C5Bb2bA2C75eaB018",
      "gasPrice": {
        "_hex": "0xd6e84ee6a"
      },
      "gasLimit": {
        "_hex": "0x5208"
      },
      "to": "0x1211701be9773a9478E4545e8744F2111C9d613D",
      "value": {
        "_hex": "0x2710"
      },
      "nonce": 0,
      "data": "0x",
      "r": "0xcd0d479bbdd8001d1ef1becc49eca7a07bd8d5870a555cf34b85805c1f5eb31f",
      "s": "0x7016d8c2806d74e4f9ff481a4a4d69d53bebc5f9c93a809f405d2a315933b41d",
      "v": 27,
      "creates": null,
      "raw": "0xf86680850d6e84ee6a825208941211701be9773a9478e4545e8744f2111c9d613d822710801ba0cd0d479bbdd8001d1ef1becc49eca7a07bd8d5870a555cf34b85805c1f5eb31fa07016d8c2806d74e4f9ff481a4a4d69d53bebc5f9c93a809f405d2a315933b41d",
      "networkId": 0,
      "chainId": 0
    }
  ]
}