{
  "hash": "0xc66f512c405b02605c91ed61e820013966bf48ade8fae0922fcf43a3c371df66",
  "parentHash": "0x31a85fd31f82e27d239e24d94a0e523eadd1def125978265124962793363fb97",
  "number": 118821,
  "timestamp": 1440132038,
  "nonce": "0x30713be592669ab3",
  "difficulty": 4388325607253,
  "gasLimit": {
    "_hex": "0x2fefd8"
  },
  "gasUsed": {
    "_hex": "0xa410"
  },
  "miner": "0x608f4b86321a68453f9adf6F06F7Fc3E621739ad",
  "extraData": "0xd783010002844765746887676f312e342e32856c696e7578",
  "transactions": [
    {
      "hash": "0x85ed3ef048424bbd5caeaaab15b7f4bb3f1923190502f058fbc45fdbd686b7ab",
      "blockHash": "0xc66f512c405b02605c91ed61e820013966bf48ade8fae0922fcf43a3c371df66",
      "blockNumber": 118821,
      "transactionIndex": 0,
      "confirmations": null,
      "from": "0x1308A2e95c0160B90803ddCA9B9a5bb55E416d79",
      "gasPrice": {
        "_hex": "0xd27c8ef0c"
      },
      "gasLimit": {
        "_hex": "0x15f90"
      },
      "to": "0x137e1d138A6d96Bac9f75a6C926CE5B343442694",
      "value": {
        "_hex": "0xfa804ca7c8057c00"
      },
      "nonce": 178,
      "data": "0x",
      "r": "0x7945bc70ac09f36fb3fde3925517de86da47375a469e219854f7f42956ea7e74",
      "s": "0x6449bb157e5b76778feb2f4eb655d9f8f7ac09b7e668a41e1ed93a8d9e8a0c26",
      "v": 28,
      "creates": null,
      "raw": "0xf86e81b2850d27c8ef0c83015f9094137e1d138a6d96bac9f75a6c926ce5b34344269488fa804ca7c8057c00801ca07945bc70ac09f36fb3fde3925517de86da47375a469e219854f7f42956ea7e74a06449bb157e5b76778feb2f4eb655d9f8f7ac09b7e668a41e1ed93a8d9e8a0c26",
      "networkId": 0,
      "chainId": 0
    },
    {
      "hash": "0x43c0f954f32d66d438874b3f9e081f87666f58aad1e98073f592ddfc8e9b85cf",
      "blockHash": "0xc66f512c405b02605c91ed61e820013966bf48ade8fae0922fcf43a3c371df66",
      "blockNumber": 118821,
      "transactionIndex": 1,
      "confirmations": null,
      "from": "0x1308A2e95c0160B90803ddCA9B9a5bb55E416d79",
      "gasPrice": {
        "_hex": "0xd27c8ef0c"
      },
      "gasLimit": {
        "_hex": "0x15f90"
      },
      "to": "0xf322005790eE3ce722417e5314f056cB59Df0E0b",
      "value": {
        "_hex": "0x146f8e6c8a3850000"
      },
      "nonce": 179,
      "data": "0x",
      "r": "0xe985a30b208611dc8dccde64983d9275fe8962fa08d492c9344708284324edae",
      "s": "0x0d69835677c270148a7b3241181ecaa5c28ad9a59b9f62ceaed6287458147f61",
      "v": 28,
      "creates": null,
      "raw": "0xf86f81b3850d27c8ef0c83015f9094f322005790ee3ce722417e5314f056cb59df0e0b890146f8e6c8a3850000801ca0e985a30b208611dc8dccde64983d9275fe8962fa08d492c9344708284324edaea00d69835677c270148a7b3241181ecaa5c28ad9a59b9f62ceaed6287458147f61",
      "networkId": 0,
      "chainId": 0
    }
  ]
}