{
  "hash": "0xa69cfd8f12e5f228905d05878acf4fe97312b4eeadd70ee3856535a975c115b4",
  "parentHash": "0x3cfa3184b623df26facd2c1c48aa6bba1346a3d8c96fffee44414e3079869a4a",
  "number": 88002,
  "timestamp": 1439601014,
  "nonce": "0xd4b6a9ee2f363113",
  "difficulty": 3192627629302,
  "gasLimit": {
    "_hex": "0x2fefd8"
  },
  "gasUsed": {
    "_hex": "0xa410"
  },
  "miner": "0xf927a40C8B7F6E07c5af7FA2155B4864a4112B13",
  "extraData": "0x",
  "transactions": [
    {
      "hash": "0xbc1a77cca50339b1c51381a3aab7f712a9609cfb6e87b61896a18420162ea78e",
      "blockHash": "0xa69cfd8f12e5f228905d05878acf4fe97312b4eeadd70ee3856535a975c115b4",
      "blockNumber": 88002,
      "transactionIndex": 0,
      "confirmations": null,
      "from": "0x3120869dfC5b2e9D636fd0BFA6717C51146d5F7a",
      "gasPrice": {
        "_hex": "0xba43b7400"
      },
      "gasLimit": {
        "_hex": "0x5208"
      },
      "to": "0xC47Aaa860008be6f65B58c6C6E02a84e666EfE31",
      "value": {
        "_hex": "0x93723d4dbc3840710"
      },
      "nonce": 1,
      "data": "0x",
      "r": "0xd75410f375fb1735fdd626954476f69ab854654877fbc8dad7fbdb629d5b5eb5",
      "s": "0x31123a6e34e3067715963a378135c1a2f2e68a899289ec1c542c5e62aa68bedd",
      "v": 27,
      "creates": null,
      "raw": "0xf86d01850ba43b740082520894c47aaa860008be6f65b58c6c6e02a84e666efe3189093723d4dbc3840710801ba0d75410f375fb1735fdd626954476f69ab854654877fbc8dad7fbdb629d5b5eb5a031123a6e34e3067715963a378135c1a2f2e68a899289ec1c542c5e62aa68bedd",
      "networkId": 0,
      "chainId": 0
    },
    {
      "hash": "0x9e655b8a1abafac3ce6c9afc6081be38344cb1a27a37544b731d20498a7f231e",
      "blockHash": "0xa69cfd8f12e5f228905d05878acf4fe97312b4eeadd70ee3856535a975c115b4",
      "blockNumber": 88002,
      "transactionIndex": 1,
      "confirmations": null,
      "from": "0x7bfD6E996c199d9b96dBCA90E354FCfcc893f748",
      "gasPrice": {
        "_hex": "0xba43b7400"
      },
      "gasLimit": {
        "_hex": "0x5208"
      },
      "to": "0xC47Aaa860008be6f65B58c6C6E02a84e666EfE31",
      "value": {
        "_hex": "0xc1f28610b51918f0"
      },
      "nonce": 0,
      "data": "0x",
      "r": "0x209130ade35196fec62c06338e020ebda09814966cb3c69f3ff6c865755eca89",
      "s": "0x475ba1d0ba04536e53dfe8969798a0200ff87eed217589ae1414bea10eff332c",
      "v": 27,
      "creates": null,
      "raw": "0xf86c80850ba43b740082520894c47aaa860008be6f65b58c6c6e02a84e666efe3188c1f28610b51918f0801ba0209130ade35196fec62c06338e020ebda09814966cb3c69f3ff6c865755eca89a0475ba1d0ba04536e53dfe8969798a0200ff87eed217589ae1414bea10eff332c",
      "networkId": 0,
      "chainId": 0
    }
  ]
}