{
  "hash": "0xa910d1322de0ab80b173836a88bae4bccfde966a75b1f912af00d86ba1785a93",
  "parentHash": "0x167f775ccc29d4f363085f13886d7fe4057ed6a6655fbc87cc9e926d58627b96",
  "number": 96260,
  "timestamp": 1439737541,
  "nonce": "0xf9ce96b2aa18a0d4",
  "difficulty": 3671076218683,
  "gasLimit": {
    "_hex": "0x2fefd8"
  },
  "gasUsed": {
    "_hex": "0x5208"
  },
  "miner": "0xe6A7a1d47ff21B6321162AEA7C6CB457D5476Bca",
  "extraData": "0x476574682f76312e302e312d38326566323666362f6c696e75782f676f312e34",
  "transactions": [
    {
      "hash": "0x5155311b46af88f242df02982ed938d055fae610e3fa34c2bfb966235159ef2b",
      "blockHash": "0xa910d1322de0ab80b173836a88bae4bccfde966a75b1f912af00d86ba1785a93",
      "blockNumber": 96260,
      "transactionIndex": 0,
      "confirmations": null,
      "from": "0xDdFafdbC7c90f1320e54b98F374617fbd01d109f",
      "gasPrice": {
        "_hex": "0x10ec9078860"
      },
      "gasLimit": {
        "_hex": "0x55f0"
      },
      "to": "0xbB10DF431Fd3ffD79CdAdc58EBFD371D7491941B",
      "value": {
        "_hex": "0xde0b6b3a7640000"
      },
      "nonce": 8,
      "data": "0x",
      "r": "0x00c921dca3e9cf34ae73ed1a25b25d1fad5568a72b499ba36162419ded5834d0",
      "s": "0x6632e891b5418f59d039902e1a5a11e1f89f44ffc39d9786f89c7443bee85bf5",
      "v": 28,
      "creates": null,
      "raw": "0xf86c0886010ec90788608255f094bb10df431fd3ffd79cdadc58ebfd371d7491941b880de0b6b3a7640000801c9fc921dca3e9cf34ae73ed1a25b25d1fad5568a72b499ba36162419ded5834d0a06632e891b5418f59d039902e1a5a11e1f89f44ffc39d9786f89c7443bee85bf5",
      "networkId": 0,
      "chainId": 0
    }
  ]
}