{
  "hash": "0x32d1e232e01dd7b3b7da99b8b43e5f9ef28eec464f180f47b6f7ffe88c6398c7",
  "parentHash": "0x27dd4f1f0fa4ff5df49d4e232a9abc87668c1245fc4b8b4b69934aecc89ac0bc",
  "number": 78300,
  "timestamp": 1439451659,
  "nonce": "0x53e51a517a863bdc",
  "difficulty": 2277625926896,
  "gasLimit": {
    "_hex": "0x2fefd8"
  },
  "gasUsed": {
    "_hex": "0x546c"
  },
  "miner": "0x1217627fe41A00f0b828317F43E6d58F47dBfc43",
  "extraData": "0x476574682f76312e302e302d66313265303136312f6c696e75782f676f312e34",
  "transactions": [
    {
      "hash": "0x3d4984fa0b47bc4dfc0906772bfbd2372e0ba79edac25a4cb8cd2d8a5a13663f",
      "blockHash": "0x32d1e232e01dd7b3b7da99b8b43e5f9ef28eec464f180f47b6f7ffe88c6398c7",
      "blockNumber": 78300,
      "transactionIndex": 0,
      "confirmations": null,
      "from": "0x8D9eD7f4553058c26F7836A3802D3064eB1b363d",
      "gasPrice": {
        "_hex": "0x110c8f7d8de"
      },
      "gasLimit": {
        "_hex": "0xc350"
      },
      "to": "0x2910543Af39abA0Cd09dBb2D50200b3E800A63D2",
      "value": {
        "_hex": "0x4dfe403955b200000"
      },
      "nonce": 0,
      "data": "0x454e41364a42565947",
      "r": "0xb0a7a7380c21e1eb2891c20c369250665c0225be9e1dd8c7c72ca4ed2501b3eb",
      "s": "0x8ca3c7e2deaae4479a46eed4218e65a9d8a818ba02301f57ac69836faf8595c6",
      "v": 28,
      "creates": null,
      "raw": "0xf87780860110c8f7d8de82c350942910543af39aba0cd09dbb2d50200b3e800a63d28904dfe403955b20000089454e41364a425659471ca0b0a7a7380c21e1eb2891c20c369250665c0225be9e1dd8c7c72ca4ed2501b3eba08ca3c7e2deaae4479a46eed4218e65a9d8a818ba02301f57ac69836faf8595c6",
      "networkId": 0,
      "chainId": 0
    }
  ]
}