{
  "hash": "0xf8c8b0ee13d08fe7d10784e6eca202e31347d41523d47702e5cf4a874cd158ba",
  "parentHash": "0xc0879ad7fefb53b9b93dec1fbe400d4d74d357b7cc6d69a5d1ce818814341df1",
  "number": 94212,
  "timestamp": 1439704383,
  "nonce": "0xedfb2af437fe7737",
  "difficulty": 3479950486194,
  "gasLimit": {
    "_hex": "0x2fefd8"
  },
  "gasUsed": {
    "_hex": "0xa410"
  },
  "miner": "0x9746c7e1ef2bd21FF3997fa467593a89cb852BD0",
  "extraData": "0x476574682f76312e302e312f77696e646f77732f676f312e342e32",
  "transactions": [
    {
      "hash": "0x2f539c8e1725c36df3d1f725d7a41d799963c1fdf0c388c9ae0a83e7f03832c8",
      "blockHash": "0xf8c8b0ee13d08fe7d10784e6eca202e31347d41523d47702e5cf4a874cd158ba",
      "blockNumber": 94212,
      "transactionIndex": 0,
      "confirmations": null,
      "from": "0x2910543Af39abA0Cd09dBb2D50200b3E800A63D2",
      "gasPrice": {
        "_hex": "0xd2d72f1af"
      },
      "gasLimit": {
        "_hex": "0x5208"
      },
      "to": "0x2707836DbE604b0eBfdb0F20870dD749C8572676",
      "value": {
        "_hex": "0x12a0c020adfc1c78000"
      },
      "nonce": 868,
      "data": "0x",
      "r": "0xb17ee6ab0698e56006bcdaa9962d77fea90e3a6583f618a32efcb391bcf7f302",
      "s": "0x60ecfc2f3b5f04f7a4eef050ad3a2ae0a5d738fc6442287b07a8ec21affa45e6",
      "v": 28,
      "creates": null,
      "raw": "0xf870820364850d2d72f1af825208942707836dbe604b0ebfdb0f20870dd749c85726768a012a0c020adfc1c78000801ca0b17ee6ab0698e56006bcdaa9962d77fea90e3a6583f618a32efcb391bcf7f302a060ecfc2f3b5f04f7a4eef050ad3a2ae0a5d738fc6442287b07a8ec21affa45e6",
      "networkId": 0,
      "chainId": 0
    },
    {
      "hash": "0xf90a4ed31173744967ec481a8050fe0ddd824005397c24238f51a9be4e9462d2",
      "blockHash": "0xf8c8b0ee13d08fe7d10784e6eca202e31347d41523d47702e5cf4a874cd158ba",
      "blockNumber": 94212,
      "transactionIndex": 1,
      "confirmations": null,
      "from": "0x007f7f58D3eb5b7510A301eCC749FC1fCDDBE14D",
      "gasPrice": {
        "_hex": "0xcd8a77067"
      },
      "gasLimit": {
        "_hex": "0x15f90"
      },
      "to": "0xb1abce2918E21ddb93AA452731a12672A3d9F75a",
      "value": {
        "_hex": "0x4563918244f40000"
      },
      "nonce": 26,
      "data": "0x",
      "r": "0xedb3cf025ba43edc097e96fa18af1647434253726adf4518a5aa760e3c24b44a",
      "s": "0x2951137a555067950762e77ab12ec9d3c7de65ada58f0cf0e39e45afce266502",
      "v": 28,
      "creates": null,
      "raw": "0xf86d1a850cd8a7706783015f9094b1abce2918e21ddb93aa452731a12672a3d9f75a884563918244f40000801ca0edb3cf025ba43edc097e96fa18af1647434253726adf4518a5aa760e3c24b44aa02951137a555067950762e77ab12ec9d3c7de65ada58f0cf0e39e45afce266502",
      "networkId": 0,
      "chainId": 0
    }
  ]
}