{
  "hash": "0xbcd2042fa8c061d67bba28d61a79b0d79bafae5aef839c38066c5a0d488b2901",
  "parentHash": "0x305cd97d57a701023dac930fb9aa38bfb8988909137a801a19e6dd8a92dd5cec",
  "number": 68069,
  "timestamp": 1439282059,
  "nonce": "0x44dc095737099639",
  "difficulty": 1964872735801,
  "gasLimit": {
    "_hex": "0x2fefd2"
  },
  "gasUsed": {
    "_hex": "0x8bee"
  },
  "miner": "0x47ff6576639c2e94762eA5443978D7681C0E78DC",
  "extraData": "0x476574682f76312e302e312f6c696e75782f676f312e342e32",
  "transactions": [
    {
      "hash": "0x19697ed61b0529ed10825e0dee3803ed64ce6ee92d0e507ff145f0fc3ad0fd77",
      "blockHash": "0xbcd2042fa8c061d67bba28d61a79b0d79bafae5aef839c38066c5a0d488b2901",
      "blockNumber": 68069,
      "transactionIndex": 0,
      "confirmations": null,
      "from": "0xFBb1b73C4f0BDa4f67dcA266ce6Ef42f520fBB98",
      "gasPrice": {
        "_hex": "0xcda2876fe"
      },
      "gasLimit": {
        "_hex": "0x15f90"
      },
      "to": "0xCAc7000C7dBaa2E33Af15325AF5D435E011C7BdD",
      "value": {
        "_hex": "0x0"
      },
      "nonce": 26,
      "data": "0x6042a7604249545452455830300000000000000000000000000000000000000000000000000000000000000000000000cac7000c7dbaa2e33af15325af5d435e011c7bdd413131313131313141000000000000000000000000000000000000000000000000000000000000000000000000000000000000000000000022b1c8c1227a0000",
      "r": "0xa73ed40cd1343863df88a1b17a6f3e40180a64e0e029e3e0b52fce281e6a6fbd",
      "s": "0x07b9f838e48ef6c2cb2b5fc6a1dcabbc9c4c6fa978e30691f1fce21eacad462b",
      "v": 28,
      "creates": null,
      "raw": "0xf8ea1a850cda2876fe83015f9094cac7000c7dbaa2e33af15325af5d435e011c7bdd80b8846042a7604249545452455830300000000000000000000000000000000000000000000000000000000000000000000000cac7000c7dbaa2e33af15325af5d435e011c7bdd413131313131313141000000000000000000000000000000000000000000000000000000000000000000000000000000000000000000000022b1c8c1227a00001ca0a73ed40cd1343863df88a1b17a6f3e40180a64e0e029e3e0b52fce281e6a6fbda007b9f838e48ef6c2cb2b5fc6a1dcabbc9c4c6fa978e30691f1fce21eacad462b",
      "networkId": 0,
      "chainId": 0
    }
  ]
}