{
  "hash": "0x14524238ebd47772718411e3998f820ec73d85770d67620d14b44128ee72f0b0",
  "parentHash": "0x1c0ebc2da0bab2bacd4f0420c6a1fdd2135866cb08cda1d3298b5ef477556169",
  "number": 111769,
  "timestamp": 1439995806,
  "nonce": "0x6906c085c7f5a6b1",
  "difficulty": 4443787967777,
  "gasLimit": {
    "_hex": "0x2fefd8"
  },
  "gasUsed": {
    "_hex": "0x5208"
  },
  "miner": "0x47ff6576639c2e94762eA5443978D7681C0E78DC",
  "extraData": "0x",
  "transactions": [
    {
      "hash": "0xe7cca3ebe035b28f8e00ed78554771a84ea19c1d1b76027801c0a20cf8101ee6",
      "blockHash": "0x14524238ebd47772718411e3998f820ec73d85770d67620d14b44128ee72f0b0",
      "blockNumber": 111769,
      "transactionIndex": 0,
      "confirmations": null,
      "from": "0xC8224326e29eD30AEEC1B70ec238A818169ecaBA",
      "gasPrice": {
        "_hex": "0xd7d40ace3"
      },
      "gasLimit": {
        "_hex": "0x15f90"
      },
      "to": "0x61F642543d22bAf5382908a714E675Cc0b51ea45",
      "value": {
        "_hex": "0x4563918244f40000"
      },
      "nonce": 15,
      "data": "0x",
      "r": "0x16bf44836b9ab95bc7d0e1f5899fbe7a7dce13c44a6f2b9743f325bae6e4fb62",
      "s": "0x24afb382154d096b34084d1fa47271c5649b4673ec92b4673177471c5d4e7719",
      "v": 27,
      "creates": null,
      "raw": "0xf86d0f850d7d40ace383015f909461f642543d22baf5382908a714e675cc0b51ea45884563918244f40000801ba016bf44836b9ab95bc7d0e1f5899fbe7a7dce13c44a6f2b9743f325bae6e4fb62a024afb382154d096b34084d1fa47271c5649b4673ec92b4673177471c5d4e7719",
      "networkId": 0,
      "chainId": 0
    }
  ]
}