{
  "hash": "0xcf4d495c5c837c2683f27212fb8b4e876e96c19657fe7c00313bf714068a230c",
  "parentHash": "0xca8a87235c9bcc06f3db0537191911a4c0354c4ca7b46c5468cbb94f94040cb0",
  "number": 86237,
  "timestamp": 1439575609,
  "nonce": "0x22dc8ddd88780428",
  "difficulty": 2824965315863,
  "gasLimit": {
    "_hex": "0x2fefd8"
  },
  "gasUsed": {
    "_hex": "0xa410"
  },
  "miner": "0xC4E15a24b5f80FCeBC7104b922B1baF37FdD708B",
  "extraData": "0x",
  "transactions": [
    {
      "hash": "0x5a3b38e0b95b1bf9ee51e4876159972b8310981086f5d120b7abcc366b729584",
      "blockHash": "0xcf4d495c5c837c2683f27212fb8b4e876e96c19657fe7c00313bf714068a230c",
      "blockNumber": 86237,
      "transactionIndex": 0,
      "confirmations": null,
      "from": "0x6A8CC233E14F874983bB2F37D1DE706f6910Ef0b",
      "gasPrice": {
        "_hex": "0xdc2440825"
      },
      "gasLimit": {
        "_hex": "0x5208"
      },
      "to": "0x32Be343B94f860124dC4fEe278FDCBD38C102D88",
      "value": {
        "_hex": "0x681513b8e9ed90000"
      },
      "nonce": 9,
      "data": "0x",
      "r": "0xb1012fce3c7474503546dde9f1b734da834b651ec8cfca11a97680761dc0eac0",
      "s": "0x47cdcf756102e3e766d29c31a9d31098c58e712953911b0f5b9003f215f06745",
      "v": 28,
      "creates": null,
      "raw": "0xf86d09850dc24408258252089432be343b94f860124dc4fee278fdcbd38c102d88890681513b8e9ed90000801ca0b1012fce3c7474503546dde9f1b734da834b651ec8cfca11a97680761dc0eac0a047cdcf756102e3e766d29c31a9d31098c58e712953911b0f5b9003f215f06745",
      "networkId": 0,
      "chainId": 0
    },
    {
      "hash": "0x0d4452efeb0bbc77c6c9889e3d5b2187213c1eeafa61d9e392ef66e75c9e5382",
      "blockHash": "0xcf4d495c5c837c2683f27212fb8b4e876e96c19657fe7c00313bf714068a230c",
      "blockNumber": 86237,
      "transactionIndex": 1,
      "confirmations": null,
      "from": "0x2FDfeedE63884ABE4F6A3D9476DF6091e0B27934",
      "gasPrice": {
        "_hex": "0xdc2440825"
      },
      "gasLimit": {
        "_hex": "0x5208"
      },
      "to": "0x32Be343B94f860124dC4fEe278FDCBD38C102D88",
      "value": {
        "_hex": "0x56bc30130c2a0c000"
      },
      "nonce": 1,
      "data": "0x",
      "r": "0x781fc83a033a0d91e9ddaf4bf26610673251bc3c7c356b5f72daf626a1171ba6",
      "s": "0x5c5b105ee7bf0fb98ec434dda8171d703503d3b371bebebe5bf4078f0993036b",
      "v": 27,
      "creates": null,
      "raw": "0xf86d01850dc24408258252089432be343b94f860124dc4fee278fdcbd38c102d8889056bc30130c2a0c000801ba0781fc83a033a0d91e9ddaf4bf26610673251bc3c7c356b5f72daf626a1171ba6a05c5b105ee7bf0fb98ec434dda8171d703503d3b371bebebe5bf4078f0993036b",
      "networkId": 0,
      "chainId": 0
    }
  ]
}