{
  "hash": "0x87a9e8e188e7855cd49618d90d74a6cedc487462a9a145da9ef6f5695f6adf7c",
  "parentHash": "0xbf35f1ed9a240aaac2b3205a379008b503a71bfeb837e4e7bdda86332b9267b2",
  "number": 70748,
  "timestamp": 1439324945,
  "nonce": "0x7d1e185e3d2dfec8",
  "difficulty": 2133209501369,
  "gasLimit": {
    "_hex": "0x2fefd8"
  },
  "gasUsed": {
    "_hex": "0x5208"
  },
  "miner": "0xe6A7a1d47ff21B6321162AEA7C6CB457D5476Bca",
  "extraData": "0x476574682f76312e302e312d38326566323666362f6c696e75782f676f312e34",
  "transactions": [
    {
      "hash": "0xa7b7f5b8eb6d4905c664fa443b473805b54a1ca713afafb5d7f981640ae983f5",
      "blockHash": "0x87a9e8e188e7855cd49618d90d74a6cedc487462a9a145da9ef6f5695f6adf7c",
      "blockNumber": 70748,
      "transactionIndex": 0,
      "confirmations": null,
      "from": "0x76d4a9bc9612bE738A81d0fE632b00B971E2bB9a",
      "gasPrice": {
        "_hex": "0xcb2f6c2a9"
      },
      "gasLimit": {
        "_hex": "0x55f0"
      },
      "to": "0xb50405193Dc0c7077dD65252C15C39242F0aCB76",
      "value": {
        "_hex": "0x176b344f2a78c0000"
      },
      "nonce": 3,
      "data": "0x",
      "r": "0xbed9665ba1ea18245838cc722a6115f36b1ba9f3e52e3812ef5d3e0312b1e437",
      "s": "0x2f47f9f4ed58cfcf912a17321b5936807727f082944a168cc77dbd71326a080f",
      "v": 28,
      "creates": null,
      "raw": "0xf86d03850cb2f6c2a98255f094b50405193dc0c7077dd65252c15c39242f0acb76890176b344f2a78c0000801ca0bed9665ba1ea18245838cc722a6115f36b1ba9f3e52e3812ef5d3e0312b1e437a02f47f9f4ed58cfcf912a17321b5936807727f082944a168cc77dbd71326a080f",
      "networkId": 0,
      "chainId": 0
    }
  ]
}