{
  "hash": "0xedf6bc5eebbaf5e82b6879e40584b05d31c380ac27c357445cf3f5c57b68e673",
  "parentHash": "0x57fc625d4772fa370c3f3c04b067beb53a19cde121c599e9b720442817010f7a",
  "number": 88785,
  "timestamp": 1439613378,
  "nonce": "0xd7ae64ac35cfa976",
  "difficulty": 3247354907000,
  "gasLimit": {
    "_hex": "0x2fefd8"
  },
  "gasUsed": {
    "_hex": "0x5208"
  },
  "miner": "0x9D49F602b0fdb924Bd63DDE2Bd0907E4A07c63a7",
  "extraData": "0x476574682f76312e302e312f6c696e75782f676f312e342e32",
  "transactions": [
    {
      "hash": "0x7ae1d71c45f2a9ad6bd89788cf364964a06fec166b3ba7fb132615cb8bcf5763",
      "blockHash": "0xedf6bc5eebbaf5e82b6879e40584b05d31c380ac27c357445cf3f5c57b68e673",
      "blockNumber": 88785,
      "transactionIndex": 0,
      "confirmations": null,
      "from": "0x02020D22dCF88f5eDd66B382D7da019F161fB7e3",
      "gasPrice": {
        "_hex": "0xdf24419f6"
      },
      "gasLimit": {
        "_hex": "0x15f90"
      },
      "to": "0xCDA330c8160f0c90B8B528C6Db267acc17381818",
      "value": {
        "_hex": "0x2386f26fc10000"
      },
      "nonce": 15,
      "data": "0x",
      "r": "0x388b6b9d5c09e1484d8fed5dc28bee0786b4469cf2348274a13c7f15e509f2a8",
      "s": "0x1673d94d3320d2d9bc3c3ef5c53ddc6c628e64d3aebcbe9d3a1f1dacd0520843",
      "v": 28,
      "creates": null,
      "raw": "0xf86c0f850df24419f683015f9094cda330c8160f0c90b8b528c6db267acc17381818872386f26fc10000801ca0388b6b9d5c09e1484d8fed5dc28bee0786b4469cf2348274a13c7f15e509f2a8a01673d94d3320d2d9bc3c3ef5c53ddc6c628e64d3aebcbe9d3a1f1dacd0520843",
      "networkId": 0,
      "chainId": 0
    }
  ]
}