{
  "hash": "0xe79f20a5802f0725b59800729dbe360d992ad2302e652ede7ddaa08041ed98c4",
  "parentHash": "0x4638ef6e5f7f9d8b51f652f253869a08e115addb504ba0b84fb14e863263f307",
  "number": 47612,
  "timestamp": 1438943676,
  "nonce": "0xd9754021ba6eaff5",
  "difficulty": 1445975364800,
  "gasLimit": {
    "_hex": "0xd6c1"
  },
  "gasUsed": {
    "_hex": "0xa410"
  },
  "miner": "0xab84940B570d6358ed6A9Dbf7e0bc8Ec8F5A6E89",
  "extraData": "0x322831652933",
  "transactions": [
    {
      "hash": "0xa14b44afa9a5882c29ddfab48bc0128ed2d68ccdb74008929c6a57e70ea66aac",
      "blockHash": "0xe79f20a5802f0725b59800729dbe360d992ad2302e652ede7ddaa08041ed98c4",
      "blockNumber": 47612,
      "transactionIndex": 0,
      "confirmations": null,
      "from": "0x98F6b8E6213DbC9a5581F4cce6655f95252bDb07",
      "gasPrice": {
        "_hex": "0x45d964b800"
      },
      "gasLimit": {
        "_hex": "0x5208"
      },
      "to": "0x5c59E28366c83f1d262567c1c529185146e68b16",
      "value": {
        "_hex": "0x5e8adca7e45940000"
      },
      "nonce": 0,
      "data": "0x",
      "r": "0xe208e01701a85d6751d73bb6d2de3b28827c9c58ed652646e10f5cd1962f2c40",
      "s": "0x1d3e21c4f9500eda0416cb523c6b65f3220a8f14788e77246fe580b46e9dd1c5",
      "v": 28,
      "creates": null,
      "raw": "0xf86d808545d964b800825208945c59e28366c83f1d262567c1c529185146e68b168905e8adca7e45940000801ca0e208e01701a85d6751d73bb6d2de3b28827c9c58ed652646e10f5cd1962f2c40a01d3e21c4f9500eda0416cb523c6b65f3220a8f14788e77246fe580b46e9dd1c5",
      "networkId": 0,
      "chainId": 0
    },
    {
      "hash": "0x3263afeea8cab7764e5e52180d3b2eb085008790c8d43d60fc8f5a43070fd601",
      "blockHash": "0xe79f20a5802f0725b59800729dbe360d992ad2302e652ede7ddaa08041ed98c4",
      "blockNumber": 47612,
      "transactionIndex": 1,
      "confirmations": null,
      "from": "0x5d7A51290EAAf19876F6Ea7f2Fabf0B12BAE55bd",
      "gasPrice": {
        "_hex": "0xdf8475800"
      },
      "gasLimit": {
        "_hex": "0x5208"
      },
      "to": "0x154230ed91D1e711e56b9C0f88b5ba5fD2B0503f",
      "value": {
        "_hex": "0x455c7684fb670000"
      },
      "nonce": 0,
      "data": "0x",
      "r": "0x30600bab2efa5f8cdac722d69a1a00ffb7131901ac0a85de1eaa13f884ac886b",
      "s": "0x05dd617e237cda254a471943ed476c0ad99639afe2aa11db267170cfcc6156c2",
      "v": 27,
      "creates": null,
      "raw": "0xf86c80850df847580082520894154230ed91d1e711e56b9c0f88b5ba5fd2b0503f88455c7684fb670000801ba030600bab2efa5f8cdac722d69a1a00ffb7131901ac0a85de1eaa13f884ac886ba005dd617e237cda254a471943ed476c0ad99639afe2aa11db267170cfcc6156c2",
      "networkId": 0,
      "chainId": 0
    }
  ]
}