{
  "hash": "0x7418a1728ac2515a9874335b09e0d0a317e8f588ba10619060429c629427a14a",
  "parentHash": "0x941ee642cc170d9271ca97689616a96c419cb0c97c373ec9c4537250446760a6",
  "number": 71453,
  "timestamp": 1439336304,
  "nonce": "0xf24a193bca2cb94d",
  "difficulty": 2180417275373,
  "gasLimit": {
    "_hex": "0x2fefd5"
  },
  "gasUsed": {
    "_hex": "0x93b2"
  },
  "miner": "0xe6A7a1d47ff21B6321162AEA7C6CB457D5476Bca",
  "extraData": "0x476574682f76312e302e312d38326566323666362f6c696e75782f676f312e34",
  "transactions": [
    {
      "hash": "0x0ecfad9fbabc9feaed0f5b0e1266d94d80a8e6cd80ccb53f5ac892dcf4603cfc",
      "blockHash": "0x7418a1728ac2515a9874335b09e0d0a317e8f588ba10619060429c629427a14a",
      "blockNumber": 71453,
      "transactionIndex": 0,
      "confirmations": null,
      "from": "0x17580B766f7453525ca4C6A88b01b50570EA088C",
      "gasPrice": {
        "_hex": "0xd763343b7"
      },
      "gasLimit": {
        "_hex": "0x61a80"
      },
      "to": "0x5Fe5B7546D1628f7348B023A0393de1FC825A4fD",
      "value": {
        "_hex": "0xde0b6b3a7640000"
      },
      "nonce": 194,
      "data": "0xb595b8b50000000000000000000000000000000000000000000000000000000000000000",
      "r": "0x1d57e8a43b58d053cc77a68d351d7dec1c83228829bf093d9fe454747c1b8357",
      "s": "0x5af90fc904023e1eb9ff7a51f1482bb460017f759eba7da88ef6ff263cfdf117",
      "v": 27,
      "creates": null,
      "raw": "0xf89281c2850d763343b783061a80945fe5b7546d1628f7348b023a0393de1fc825a4fd880de0b6b3a7640000a4b595b8b500000000000000000000000000000000000000000000000000000000000000001ba01d57e8a43b58d053cc77a68d351d7dec1c83228829bf093d9fe454747c1b8357a05af90fc904023e1eb9ff7a51f1482bb460017f759eba7da88ef6ff263cfdf117",
      "networkId": 0,
      "chainId": 0
    }
  ]
}