{
  "hash": "0x76e2ecc9f0906ef622179f97b3cea00569513d38c6f8794ffae390b1a06dc833",
  "parentHash": "0x7f08f2e4bd63571be44a1747660e697a3017f0d1c89e6803e96336527d2d9f55",
  "number": 65148,
  "timestamp": 1439232078,
  "nonce": "0x48bacac5ef52daca",
  "difficulty": 1936029000137,
  "gasLimit": {
    "_hex": "0x2fefd8"
  },
  "gasUsed": {
    "_hex": "0x17cd8"
  },
  "miner": "0x35e8e5dC5FBd97c5b421A80B596C030a2Be2A04D",
  "extraData": "0x476574682f76312e302e312f6c696e75782f676f312e342e32",
  "transactions": [
    {
      "hash": "0x19ef1deb2d2a191c7d08764b23a459811bab85ef57b42a8fb463cf4a56ce57c5",
      "blockHash": "0x76e2ecc9f0906ef622179f97b3cea00569513d38c6f8794ffae390b1a06dc833",
      "blockNumber": 65148,
      "transactionIndex": 0,
      "confirmations": null,
      "from": "0xb828469164841C1F62FdA4C5bf09BEE948492734",
      "gasPrice": {
        "_hex": "0xba43b7400"
      },
      "gasLimit": {
        "_hex": "0x15f90"
      },
      "to": "0x793AE8C1b1a160BFc07BFB0d04F85eab1A71F4f2",
      "value": {
        "_hex": "0x0"
      },
      "nonce": 0,
      "data": "0x3ba15036",
      "r": "0x71a2b4f04c0b7df61b402d84c638373c0cf2d1016fc1ca4c0a354cc48802ac83",
      "s": "0x62b7c6812f363aad82ade6bec1cb5b8da0799a4eb3df758f481030b45397ad92",
      "v": 27,
      "creates": null,
      "raw": "0xf86980850ba43b740083015f9094793ae8c1b1a160bfc07bfb0d04f85eab1a71f4f280843ba150361ba071a2b4f04c0b7df61b402d84c638373c0cf2d1016fc1ca4c0a354cc48802ac83a062b7c6812f363aad82ade6bec1cb5b8da0799a4eb3df758f481030b45397ad92",
      "networkId": 0,
      "chainId": 0
    },
    {
      "hash": "0x51dcacc9ccdef86bbf371719ea67e6bc0b88d8361233639819e84d312d897cf1",
      "blockHash": "0x76e2ecc9f0906ef622179f97b3cea00569513d38c6f8794ffae390b1a06dc833",
      "blockNumber": 65148,
      "transactionIndex": 1,
      "confirmations": null,
      "from": "0x460203A07c702c028174455765F3BBB11A302bb9",
      "gasPrice": {
        "_hex": "0xba43b7400"
      },
      "gasLimit": {
        "_hex": "0x15f90"
      },
      "to": "0x793AE8C1b1a160BFc07BFB0d04F85eab1A71F4f2",
      "value": {
        "_hex": "0x0"
      },
      "nonce": 0,
      "data": "0x3ba15036",
      "r": "0xb1e2fd7582145907d5947dcfbd31a009f92efbfe9e406daa5d3abce669507b58",
      "s": "0x49251d0093b803ca0d91b761ddaf75ee3b35510e0ded0a6cee779542f15dd29e",
      "v": 28,
      "creates": null,
      "raw": "0xf86980850ba43b740083015f9094793ae8c1b1a160bfc07bfb0d04f85eab1a71f4f280843ba150361ca0b1e2fd7582145907d5947dcfbd31a009f92efbfe9e406daa5d3abce669507b58a049251d0093b803ca0d91b761ddaf75ee3b35510e0ded0a6cee779542f15dd29e",
      "networkId": 0,
      "chainId": 0
    }
  ]
}