{
  "hash": "0x25773b2eb96dd96036d1ea348e10935b3e9550114dfbfb8282a1d1c8de0e45e7",
  "parentHash": "0x26c48930af16399790c3e456626fe7580784d89a60ff053643cfd2bc69371708",
  "number": 75883,
  "timestamp": 1439411104,
  "nonce": "0x9e83d691d447f437",
  "difficulty": 2230945917613,
  "gasLimit": {
    "_hex": "0x2fefd8"
  },
  "gasUsed": {
    "_hex": "0x8f9f"
  },
  "miner": "0x9746c7e1ef2bd21FF3997fa467593a89cb852BD0",
  "extraData": "0x476574682f76312e302e312f77696e646f77732f676f312e342e32",
  "transactions": [
    {
      "hash": "0x321cdfc7b792e7e578ce93fa112e85f38ff8181011e8a3ea0db4ef8963cf9e3f",
      "blockHash": "0x25773b2eb96dd96036d1ea348e10935b3e9550114dfbfb8282a1d1c8de0e45e7",
      "blockNumber": 75883,
      "transactionIndex": 0,
      "confirmations": null,
      "from": "0x9724Ac4dc56e03379eBA5d157D1513EcC32cBD8f",
      "gasPrice": {
        "_hex": "0xdebe3b1ff"
      },
      "gasLimit": {
        "_hex": "0x493e0"
      },
      "to": "0xD79B4C6791784184e2755B2fC1659eaaB0f80456",
      "value": {
        "_hex": "0x4563918244f40000"
      },
      "nonce": 16,
      "data": "0x8d2161860000000000000000000000000000000000000000000000000000000000000080d1cefca59544cc83bd6e09c12905d7667b39bb08c1b52b8de985384e8cbd46cd",
      "r": "0x8f047b1a14c2d002337b6ab70c36ba76480f21e01746c75def6762f937305572",
      "s": "0x188d4fb54ce14e6b12eda540b85249b573268371fddd0d31d8be61c53508c47c",
      "v": 28,
      "creates": null,
      "raw": "0xf8b210850debe3b1ff830493e094d79b4c6791784184e2755b2fc1659eaab0f80456884563918244f40000b8448d2161860000000000000000000000000000000000000000000000000000000000000080d1cefca59544cc83bd6e09c12905d7667b39bb08c1b52b8de985384e8cbd46cd1ca08f047b1a14c2d002337b6ab70c36ba76480f21e01746c75def6762f937305572a0188d4fb54ce14e6b12eda540b85249b573268371fddd0d31d8be61c53508c47c",
      "networkId": 0,
      "chainId": 0
    }
  ]
}