{
  "hash": "0xf4422f7ee39e321f31f329cce83fbe0ad0bd6283b7ce029eb270e425b95d561f",
  "parentHash": "0x99f27ec2e0b816098b47771d5d01e5e39d0db0914e52e7ba06b913be9384580a",
  "number": 116296,
  "timestamp": 1440071669,
  "nonce": "0x9ba4af836c87889f",
  "difficulty": 4598064571359,
  "gasLimit": {
    "_hex": "0x2fefd8"
  },
  "gasUsed": {
    "_hex": "0x5208"
  },
  "miner": "0xC603Ab5ef41fC61AA8b76bEddb09e3Cfcbb174BD",
  "extraData": "0x476574682f76312e302e312f77696e646f77732f676f312e342e32",
  "transactions": [
    {
      "hash": "0x204cb6ac794ec0b51201ee0e2d73e1f1796a22a19e02db605c1b96aa30ff4ac0",
      "blockHash": "0xf4422f7ee39e321f31f329cce83fbe0ad0bd6283b7ce029eb270e425b95d561f",
      "blockNumber": 116296,
      "transactionIndex": 0,
      "confirmations": null,
      "from": "0xBB33a4b72d92FA335a3b591Ce7eE217f7a7338C1",
      "gasPrice": {
        "_hex": "0xcca6cc8e4"
      },
      "gasLimit": {
        "_hex": "0x5208"
      },
      "to": "0x32Be343B94f860124dC4fEe278FDCBD38C102D88",
      "value": {
        "_hex": "0xf9c8bf64b2961000"
      },
      "nonce": 11,
      "data": "0x",
      "r": "0x47c089db6d9335a545a7e2d915ba581f60e498623cf4d2eee70d869e79e9d67f",
      "s": "0x46cd8c0f9f415d7178438cab05362366a64c3ff81cf1261ad38f70b4b03b579c",
      "v": 28,
      "creates": null,
      "raw": "0xf86c0b850cca6cc8e48252089432be343b94f860124dc4fee278fdcbd38c102d8888f9c8bf64b2961000801ca047c089db6d9335a545a7e2d915ba581f60e498623cf4d2eee70d869e79e9d67fa046cd8c0f9f415d7178438cab05362366a64c3ff81cf1261ad38f70b4b03b579c",
      "networkId": 0,
      "chainId": 0
    }
  ]
}