{
  "hash": "0x67b9b3e2a0f63e693572fcd8e30ca7ea275bc8073dcabcc12d92f85be8efbaa3",
  "parentHash": "0xe2a290f0db0434055a5af1809a8272d908f4a9addf59b865e1531768e82390ae",
  "number": 120608,
  "timestamp": 1440162896,
  "nonce": "0x1fb5e730034ed8c7",
  "difficulty": 4419643054774,
  "gasLimit": {
    "_hex": "0x2fefd8"
  },
  "gasUsed": {
    "_hex": "0xf618"
  },
  "miner": "0x0D2C9857E819cf1275eb59B49033343ccC35fe42",
  "extraData": "0x",
  "transactions": [
    {
      "hash": "0xab687d6631b73199fb4640d751e6cc1de39851ecb06874165a21b62b527153ea",
      "blockHash": "0x67b9b3e2a0f63e693572fcd8e30ca7ea275bc8073dcabcc12d92f85be8efbaa3",
      "blockNumber": 120608,
      "transactionIndex": 0,
      "confirmations": null,
      "from": "0x9D551f41feD6FC27B719777c224DfeCcE170004d",
      "gasPrice": {
        "_hex": "0xd69d299eb"
      },
      "gasLimit": {
        "_hex": "0x15f90"
      },
      "to": "0x21330512a6958cAabd9B69e2227F3c2c85A98DA7",
      "value": {
        "_hex": "0x40"
      },
      "nonce": 94,
      "data": "0x",
      "r": "0xd4caacf719c5cdea796bd115513b63bdf748b160f5ff82e3516ac161d225409d",
      "s": "0x5ab8c9f167529144348614d3d38fdb7a8ef0b79babb602d2d1dd6fa8520fa663",
      "v": 28,
      "creates": null,
      "raw": "0xf8655e850d69d299eb83015f909421330512a6958caabd9b69e2227f3c2c85a98da740801ca0d4caacf719c5cdea796bd115513b63bdf748b160f5ff82e3516ac161d225409da05ab8c9f167529144348614d3d38fdb7a8ef0b79babb602d2d1dd6fa8520fa663",
      "networkId": 0,
      "chainId": 0
    },
    {
      "hash": "0xe29a52af2668396ec26fd97fcea289bfeeeebfcbd1b799f5738ba456b159f049",
      "blockHash": "0x67b9b3e2a0f63e693572fcd8e30ca7ea275bc8073dcabcc12d92f85be8efbaa3",
      "blockNumber": 120608,
      "transactionIndex": 1,
      "confirmations": null,
      "from": "0xB9A0a0410aA5e26bFa66Cc3ACAF0A6FC61Df5588",
      "gasPrice": {
        "_hex": "0xba43b7400"
      },
      "gasLimit": {
        "_hex": "0x5208"
      },
      "to": "0x32Be343B94f860124dC4fEe278FDCBD38C102D88",
      "value": {
        "_hex": "0x761e63badd056000"
      },
      "nonce": 13,
      "data": "0x",
      "r": "0x5cf9d0a34c80e30bf1dd0ed0b142a3800478c09dbd46623e8653cb65282e29a8",
      "s": "0x023fef7bfd0ad3ebced058eee7876eadf29a3d9a462ffb6139e0d53565c24a76",
      "v": 27,
      "creates": null,
      "raw": "0xf86c0d850ba43b74008252089432be343b94f860124dc4fee278fdcbd38c102d8888761e63badd056000801ba05cf9d0a34c80e30bf1dd0ed0b142a3800478c09dbd46623e8653cb65282e29a8a0023fef7bfd0ad3ebced058eee7876eadf29a3d9a462ffb6139e0d53565c24a76",
      "networkId": 0,
      "chainId": 0
    },
    {
      "hash": "0xc24bf632f246ca6fb31594ddc3476c64b993e4895056e039b5a03719faeebba5",
      "blockHash": "0x67b9b3e2a0f63e693572fcd8e30ca7ea275bc8073dcabcc12d92f85be8efbaa3",
      "blockNumber": 120608,
      "transactionIndex": 2,
      "confirmations": null,
      "from": "0x608f4b86321a68453f9adf6F06F7Fc3E621739ad",
      "gasPrice": {
        "_hex": "0xba43b7400"
      },
      "gasLimit": {
        "_hex": "0x5208"
      },
      "to": "0x32Be343B94f860124dC4fEe278FDCBD38C102D88",
      "value": {
        "_hex": "0x4563918244f40000"
      },
      "nonce": 72,
      "data": "0x",
      "r": "0x46dad1b2173e190d7b058bd1e779f3854a27925990a426b67af2655a03bc58d3",
      "s": "0x185285745c997a4f06deb93abe777bd9394580e6f02c119c01374d586ca0c41a",
      "v": 27,
      "creates": null,
      "raw": "0xf86c48850ba43b74008252089432be343b94f860124dc4fee278fdcbd38c102d88884563918244f40000801ba046dad1b2173e190d7b058bd1e779f3854a27925990a426b67af2655a03bc58d3a0185285745c997a4f06deb93abe777bd9394580e6f02c119c01374d586ca0c41a",
      "networkId": 0,
      "chainId": 0
    }
  ]
}