{
  "hash": "0x66a4a8814ce6c5d647173b315e39f61b0b4b71163a8ced653110b4c5ed57637a",
  "parentHash": "0xfa7b414b0989b21dca1eab2d09d086d90e51f86947862fac635988b4841847a2",
  "number": 82044,
  "timestamp": 1439512505,
  "nonce": "0x22ecde9e0f59795b",
  "difficulty": 2397544616734,
  "gasLimit": {
    "_hex": "0x2fefd8"
  },
  "gasUsed": {
    "_hex": "0x5208"
  },
  "miner": "0x580992B51e3925e23280EfB93d3047C82f17E038",
  "extraData": "0x476574682f76312e302e312f6c696e75782f676f312e342e32",
  "transactions": [
    {
      "hash": "0x9ed16c12366124b4ea354effeeeec3c9d9236b0dd4c923f7313a42b598ca2db0",
      "blockHash": "0x66a4a8814ce6c5d647173b315e39f61b0b4b71163a8ced653110b4c5ed57637a",
      "blockNumber": 82044,
      "transactionIndex": 0,
      "confirmations": null,
      "from": "0xb50405193Dc0c7077dD65252C15C39242F0aCB76",
      "gasPrice": {
        "_hex": "0xd78fe35d0"
      },
      "gasLimit": {
        "_hex": "0x5208"
      },
      "to": "0x32Be343B94f860124dC4fEe278FDCBD38C102D88",
      "value": {
        "_hex": "0x1a05117e1759eb000"
      },
      "nonce": 5,
      "data": "0x",
      "r": "0x2403619520ecb8bb47e6bcf2b973777a0ef50c35f60d6d721d6662fd00e8b29a",
      "s": "0x18769987f98b1a7448fa3f0c179b096646cffdf0380d4842fa06015a57d360be",
      "v": 28,
      "creates": null,
      "raw": "0xf86d05850d78fe35d08252089432be343b94f860124dc4fee278fdcbd38c102d888901a05117e1759eb000801ca02403619520ecb8bb47e6bcf2b973777a0ef50c35f60d6d721d6662fd00e8b29aa018769987f98b1a7448fa3f0c179b096646cffdf0380d4842fa06015a57d360be",
      "networkId": 0,
      "chainId": 0
    }
  ]
}