{
  "hash": "0xfcc6ed590e07ab19ba49747c0afa2c9491b372164d547994801f907d6639d753",
  "parentHash": "0xc55d79aadacd519b434c5a8c4fe01855426e9b3e25e0176e294b288244991a8b",
  "number": 110378,
  "timestamp": 1439972771,
  "nonce": "0x67ad3a5197e95c2c",
  "difficulty": 4360688721369,
  "gasLimit": {
    "_hex": "0x2fefd8"
  },
  "gasUsed": {
    "_hex": "0xf618"
  },
  "miner": "0x580992B51e3925e23280EfB93d3047C82f17E038",
  "extraData": "0x476574682f76312e302e312f6c696e75782f676f312e342e32",
  "transactions": [
    {
      "hash": "0x65c320506bedf6c7d18f1f5bb7934b0194995ce34486a7265b164f1fca404ae3",
      "blockHash": "0xfcc6ed590e07ab19ba49747c0afa2c9491b372164d547994801f907d6639d753",
      "blockNumber": 110378,
      "transactionIndex": 0,
      "confirmations": null,
      "from": "0xE6D67E3661E28eE2DfC1c68D5DeeA3C3bB880059",
      "gasPrice": {
        "_hex": "0xd171d3eb2"
      },
      "gasLimit": {
        "_hex": "0x5208"
      },
      "to": "0x32Be343B94f860124dC4fEe278FDCBD38C102D88",
      "value": {
        "_hex": "0xbcb25f9ea739c000"
      },
      "nonce": 8,
      "data": "0x",
      "r": "0x80d29c95b36d23998c5d69ab140158df3e17a0167dd98d254b6dd40540103c24",
      "s": "0x47d18539ac2130d7599b4ad3f4b7bfc47e2e2b0a5434ef5f65e189ed1048a791",
      "v": 27,
      "creates": null,
      "raw": "0xf86c08850d171d3eb28252089432be343b94f860124dc4fee278fdcbd38c102d8888bcb25f9ea739c000801ba080d29c95b36d23998c5d69ab140158df3e17a0167dd98d254b6dd40540103c24a047d18539ac2130d7599b4ad3f4b7bfc47e2e2b0a5434ef5f65e189ed1048a791",
      "networkId": 0,
      "chainId": 0
    },
    {
      "hash": "0xbccd833c8a43324551b0d43a518ddf2d958f240a7417dc00d6cc735e33628f8f",
      "blockHash": "0xfcc6ed590e07ab19ba49747c0afa2c9491b372164d547994801f907d6639d753",
      "blockNumber": 110378,
      "transactionIndex": 1,
      "confirmations": null,
      "from": "0x61E20833179bA2eCCc2065e5F733CC8CdA7394c0",
      "gasPrice": {
        "_hex": "0xd171d3eb2"
      },
      "gasLimit": {
        "_hex": "0x5208"
      },
      "to": "0x32Be343B94f860124dC4fEe278FDCBD38C102D88",
      "value": {
        "_hex": "0xe78d98bedd34f800"
      },
      "nonce": 6,
      "data": "0x",
      "r": "0xdd399c9433eedda8a0276be678e969d8b14fb2533a88050e2e370608b4096f07",
      "s": "0x6fbd450a02230df209eb9b01774b27cd91502cace347208b31d70cd71da42d20",
      "v": 28,
      "creates": null,
      "raw": "0xf86c06850d171d3eb28252089432be343b94f860124dc4fee278fdcbd38c102d8888e78d98bedd34f800801ca0dd399c9433eedda8a0276be678e969d8b14fb2533a88050e2e370608b4096f07a06fbd450a02230df209eb9b01774b27cd91502cace347208b31d70cd71da42d20",
      "networkId": 0,
      "chainId": 0
    },
    {
      "hash": "0xedcb987c4093e88c7cf4017a81effc4130d92d3695341d7aaa5f64ad1d5e7e3c",
      "blockHash": "0xfcc6ed590e07ab19ba49747c0afa2c9491b372164d547994801f907d6639d753",
      "blockNumber": 110378,
      "transactionIndex": 2,
      "confirmations": null,
      "from": "0xC8E61bFB4846B622B084B98Bc586388aFCb70d5F",
      "gasPrice": {
        "_hex": "0xd171d3eb2"
      },
      "gasLimit": {
        "_hex": "0x5208"
      },
      "to": "0x32Be343B94f860124dC4fEe278FDCBD38C102D88",
      "value": {
        "_hex": "0xa707c649ee11e000"
      },
      "nonce": 8,
      "data": "0x",
      "r": "0xaf5a71617c415bf11459128a5b683d5e02c10d87ed0563e02c0bc5d7ea4e5c18",
      "s": "0x4ae16feb4918da13d7998fad5c87c1176e752a8920228e38ac92a333eef95ea6",
      "v": 27,
      "creates": null,
      "raw": "0xf86c08850d171d3eb28252089432be343b94f860124dc4fee278fdcbd38c102d8888a707c649ee11e000801ba0af5a71617c415bf11459128a5b683d5e02c10d87ed0563e02c0bc5d7ea4e5c18a04ae16feb4918da13d7998fad5c87c1176e752a8920228e38ac92a333eef95ea6",
      "networkId": 0,
      "chainId": 0
    }
  ]
}