{
  "hash": "0x9dbfcc19954305118b54d83a720d98e3f828bca5d1e9308b538d5b2beab8477c",
  "parentHash": "0x68fe02f85fafdc999e8157157d243d5a4daca80ec5b349bb11ca47c7b8352f7f",
  "number": 74340,
  "timestamp": 1439384579,
  "nonce": "0x93966cd8f4fbcf1c",
  "difficulty": 2212910974618,
  "gasLimit": {
    "_hex": "0x2fefd8"
  },
  "gasUsed": {
    "_hex": "0xad5d"
  },
  "miner": "0xbb7B8287f3F0a933474a79eAe42CBCa977791171",
  "extraData": "0x476574682f4c5649562f76312e302e312f6c696e75782f676f312e342e32",
  "transactions": [
    {
      "hash": "0x50f980005607036248fe52edd6a402ec82e167091eced1c190124b1a35a2f6f5",
      "blockHash": "0x9dbfcc19954305118b54d83a720d98e3f828bca5d1e9308b538d5b2beab8477c",
      "blockNumber": 74340,
      "transactionIndex": 0,
      "confirmations": null,
      "from": "0x87C5B5874A18B4306DF8a752a6C8cc3E82daFc19",
      "gasPrice": {
        "_hex": "0x118c89ed95e"
      },
      "gasLimit": {
        "_hex": "0x493e0"
      },
      "to": "0x88A91FD7Fb8AAEa8cDAD2C990f1DBDcd28022a02",
      "value": {
        "_hex": "0x0"
      },
      "nonce": 14,
      "data": "0x03750d94000000000000000000000000326be8f71bfb0379f989aab1cc1fe37f0a771f60454a7456784f425a545a4f3675344c6f00000000000000000000000000000000",
      "r": "0x3bdc37905d3ed07fd582ca19d0d054cca8d03901bde28faad0b72d481056aaa0",
      "s": "0x54cfd99bc60fa29437d9fe5eb78546eb0cb2c68f813c3666e96cbf2c3c49651b",
      "v": 27,
      "creates": null,
      "raw": "0xf8ab0e860118c89ed95e830493e09488a91fd7fb8aaea8cdad2c990f1dbdcd28022a0280b84403750d94000000000000000000000000326be8f71bfb0379f989aab1cc1fe37f0a771f60454a7456784f425a545a4f3675344c6f000000000000000000000000000000001ba03bdc37905d3ed07fd582ca19d0d054cca8d03901bde28faad0b72d481056aaa0a054cfd99bc60fa29437d9fe5eb78546eb0cb2c68f813c3666e96cbf2c3c49651b",
      "networkId": 0,
      "chainId": 0
    }
  ]
}