{
  "hash": "0x3fb04adadb3fb5e6fa9e8ce46a9655f7fca807841d16a7db0e310622029c0ac1",
  "parentHash": "0xd611ca6619cdb89c1ebb77fed49b95dee480d641b62c174c5ef341db6e0248cb",
  "number": 116533,
  "timestamp": 1440089071,
  "nonce": "0x3450a690b77889e5",
  "difficulty": 4546586571506,
  "gasLimit": {
    "_hex": "0x2fefd8"
  },
  "gasUsed": {
    "_hex": "0x5208"
  },
  "miner": "0xe6A7a1d47ff21B6321162AEA7C6CB457D5476Bca",
  "extraData": "0xd783010002844765746887676f312e342e32856c696e7578",
  "transactions": [
    {
      "hash": "0xfe0c321698d2d28820c3a1d7d6a4e4c4506a3f70262507996344c4cd61083cc9",
      "blockHash": "0x3fb04adadb3fb5e6fa9e8ce46a9655f7fca807841d16a7db0e310622029c0ac1",
      "blockNumber": 116533,
      "transactionIndex": 0,
      "confirmations": null,
      "from": "0x28D252EC46a4d6Ac35a25a6518da44C6e54EE015",
      "gasPrice": {
        "_hex": "0xd0dc9c1e5"
      },
      "gasLimit": {
        "_hex": "0x5208"
      },
      "to": "0xFBb1b73C4f0BDa4f67dcA266ce6Ef42f520fBB98",
      "value": {
        "_hex": "0x6f0186ca2cb696d8"
      },
      "nonce": 1,
      "data": "0x",
      "r": "0x53827803be9d580ad5a29cff318c2813ca582929afffc79f613abb41fef37c03",
      "s": "0x3f826dd2c3d774795e7659b3340c5dbe6654709c603de1fcf61ce918ebf1cc84",
      "v": 28,
      "creates": null,
      "raw": "0xf86c01850d0dc9c1e582520894fbb1b73c4f0bda4f67dca266ce6ef42f520fbb98886f0186ca2cb696d8801ca053827803be9d580ad5a29cff318c2813ca582929afffc79f613abb41fef37c03a03f826dd2c3d774795e7659b3340c5dbe6654709c603de1fcf61ce918ebf1cc84",
      "networkId": 0,
      "chainId": 0
    }
  ]
}