{
  "hash": "0xed76119cd2045ddabcb90bb36f048fae3d0f141820caeae242f2cd59ab5f187d",
  "parentHash": "0x6c4ecd7c6e407cb337384e9e2e8f766a3015e7c179fdce1644105e80ac015a91",
  "number": 83660,
  "timestamp": 1439538652,
  "nonce": "0x585dbcd20d0cb936",
  "difficulty": 2449139826681,
  "gasLimit": {
    "_hex": "0x2fefd8"
  },
  "gasUsed": {
    "_hex": "0x5208"
  },
  "miner": "0xa50ec0D39fa913E62f1Bae7074E6F36caA71855b",
  "extraData": "0xd783010001844765746887676f312e342e32856c696e7578",
  "transactions": [
    {
      "hash": "0x43c9b25399296485d42a003227e00cc3b98f815bd59784961dc94af2304a8b50",
      "blockHash": "0xed76119cd2045ddabcb90bb36f048fae3d0f141820caeae242f2cd59ab5f187d",
      "blockNumber": 83660,
      "transactionIndex": 0,
      "confirmations": null,
      "from": "0x458F183347F45a4001807728A89F31E9Da9D4A58",
      "gasPrice": {
        "_hex": "0xdaa8a4c28"
      },
      "gasLimit": {
        "_hex": "0x15f90"
      },
      "to": "0x1D3ffA437e5bce40fCC134f4E0ac62841E4A9E81",
      "value": {
        "_hex": "0x75f610f70ed20000"
      },
      "nonce": 17,
      "data": "0x",
      "r": "0x3624a331cfeb8289349bca18954266f0c9a837f37eebb8452da03a0b0aee3f6d",
      "s": "0x2f61c6b3d480f9d06e0b2b206a322143a1909c81e7dee58447443c20cde41846",
      "v": 28,
      "creates": null,
      "raw": "0xf86d11850daa8a4c2883015f90941d3ffa437e5bce40fcc134f4e0ac62841e4a9e818875f610f70ed20000801ca03624a331cfeb8289349bca18954266f0c9a837f37eebb8452da03a0b0aee3f6da02f61c6b3d480f9d06e0b2b206a322143a1909c81e7dee58447443c20cde41846",
      "networkId": 0,
      "chainId": 0
    }
  ]
}