{
  "hash": "0xe4fe4ed49fa485a029c0f4311b30c68967e3470fec203d0d4eee642023e12af8",
  "parentHash": "0x99c2eeac99373c14d22a540e7448b1dfc2cf0e34ce1ed19b11faf8954b0f7805",
  "number": 84310,
  "timestamp": 1439547852,
  "nonce": "0x0933158ce932f3ed",
  "difficulty": 2541536358294,
  "gasLimit": {
    "_hex": "0x2fefd8"
  },
  "gasUsed": {
    "_hex": "0x23e38"
  },
  "miner": "0x77EC9ad4A7E9418774C29415CAaF4Ee0da96eF64",
  "extraData": "0x",
  "transactions": [
    {
      "hash": "0x276ded00615266d402edc09769d808787e13efc703c147660b3d553a077ac6d4",
      "blockHash": "0xe4fe4ed49fa485a029c0f4311b30c68967e3470fec203d0d4eee642023e12af8",
      "blockNumber": 84310,
      "transactionIndex": 0,
      "confirmations": null,
      "from": "0x267069452478cA39b3f5F1A4fFdD4131f50Bc977",
      "gasPrice": {
        "_hex": "0xd95372bd2"
      },
      "gasLimit": {
        "_hex": "0x5208"
      },
      "to": "0x32Be343B94f860124dC4fEe278FDCBD38C102D88",
      "value": {
        "_hex": "0xbde82476b3691000"
      },
      "nonce": 6,
      "data": "0x",
      "r": "0x3767e28e652ac36e22509c4032583880d6641274a23da4e3fbc7141ccec3fec1",
      "s": "0x6ec4bfe3621e4d00bd1a06ba7094d2d780affceba6e35669f9cac98b1e005e1a",
      "v": 27,
      "creates": null,
      "raw": "0xf86c06850d95372bd28252089432be343b94f860124dc4fee278fdcbd38c102d8888bde82476b3691000801ba03767e28e652ac36e22509c4032583880d6641274a23da4e3fbc7141ccec3fec1a06ec4bfe3621e4d00bd1a06ba7094d2d780affceba6e35669f9cac98b1e005e1a",
      "networkId": 0,
      "chainId": 0
    },
    {
      "hash": "0xcd9c0657ea604521be832e5f41cc539134e57214fb2b7f4020f61efb7d5b0c68",
      "blockHash": "0xe4fe4ed49fa485a029c0f4311b30c68967e3470fec203d0d4eee642023e12af8",
      "blockNumber": 84310,
      "transactionIndex": 1,
      "confirmations": null,
      "from": "0x1Fab7BE036A5C6A69b2B05D6e172FF4e5b2a5e6B",
      "gasPrice": {
        "_hex": "0xd95372bd2"
      },
      "gasLimit": {
        "_hex": "0x5208"
      },
      "to": "0x32Be343B94f860124dC4fEe278FDCBD38C102D88",
      "value": {
        "_hex": "0xef6e194a6ffbe000"
      },
      "nonce": 2,
      "data": "0x",
      "r": "0xee41ea5dfb39898baa456117fa6d7de7661d7f2b9ff2571bfdf7dc6fcb3d98f2",
      "s": "0x5c2217ae937143c7fedacbe15eccc04a1ccc355e8c9cd5f4f39b01c62f028a07",
      "v": 28,
      "creates": null,
      "raw": "0xf86c02850d95372bd28252089432be343b94f860124dc4fee278fdcbd38c102d8888ef6e194a6ffbe000801ca0ee41ea5dfb39898baa456117fa6d7de7661d7f2b9ff2571bfdf7dc6fcb3d98f2a05c2217ae937143c7fedacbe15eccc04a1ccc355e8c9cd5f4f39b01c62f028a07",
      "networkId": 0,
      "chainId": 0
    },
    {
      "hash": "0xd2dcc704360ffd2f74759620d09ae85e339246f619afd425933cd49f1cbbfb66",
      "blockHash": "0xe4fe4ed49fa485a029c0f4311b30c68967e3470fec203d0d4eee642023e12af8",
      "blockNumber": 84310,
      "transactionIndex": 2,
      "confirmations": null,
      "from": "0x0912001e29BbaF75C23069A22D9B9602BE86FEB7",
      "gasPrice": {
        "_hex": "0xd95372bd2"
      },
      "gasLimit": {
        "_hex": "0x5208"
      },
      "to": "0x32Be343B94f860124dC4fEe278FDCBD38C102D88",
      "value": {
        "_hex": "0xd1839d53b6c140000"
      },
      "nonce": 2,
      "data": "0x",
      "r": "0x141f037be930aafa7502e4b5930c419b89a41749c0a43446bd20746be92b3d0e",
      "s": "0x554c9ee9e2e8158581b33a167fe5bf736af0367dd5f9c1def240cec15479709c",
      "v": 27,
      "creates": null,
      "raw": "0xf86d02850d95372bd28252089432be343b94f860124dc4fee278fdcbd38c102d88890d1839d53b6c140000801ba0141f037be930aafa7502e4b5930c419b89a41749c0a43446bd20746be92b3d0ea0554c9ee9e2e8158581b33a167fe5bf736af0367dd5f9c1def240cec15479709c",
      "networkId": 0,
      "chainId": 0
    },
    {
      "hash": "0x6cec01d90c75ae5281f2a708ac977fcbaf1f10cbddd03366cb189f84062c3bf8",
      "blockHash": "0xe4fe4ed49fa485a029c0f4311b30c68967e3470fec203d0d4eee642023e12af8",
      "blockNumber": 84310,
      "transactionIndex": 3,
      "confirmations": null,
      "from": "0x52191276589069F70F0E46bcCc718d793d1Aa1D0",
      "gasPrice": {
        "_hex": "0xd734723bb"
      },
      "gasLimit": {
        "_hex": "0x5208"
      },
      "to": "0x32Be343B94f860124dC4fEe278FDCBD38C102D88",
      "value": {
        "_hex": "0x26f54dda8a11be000"
      },
      "nonce": 1,
      "data": "0x",
      "r": "0x3e38701a6643550b3ffb4c58f6377b9ec67c62b75149743ee23cd2225e05fd60",
      "s": "0x7f4f37a73227e9c856bc52a14304db35c5b09e713b7cd553d339b6051f2d4f7c",
      "v": 28,
      "creates": null,
      "raw": "0xf86d01850d734723bb8252089432be343b94f860124dc4fee278fdcbd38c102d8889026f54dda8a11be000801ca03e38701a6643550b3ffb4c58f6377b9ec67c62b75149743ee23cd2225e05fd60a07f4f37a73227e9c856bc52a14304db35c5b09e713b7cd553d339b6051f2d4f7c",
      "networkId": 0,
      "chainId": 0
    },
    {
      "hash": "0x626756aff6f22aa5a6b06819056538690bfb5dd0be2ebfe7e7ffadc0b303d35b",
      "blockHash": "0xe4fe4ed49fa485a029c0f4311b30c68967e3470fec203d0d4eee642023e12af8",
      "blockNumber": 84310,
      "transactionIndex": 4,
      "confirmations": null,
      "from": "0xE6D67E3661E28eE2DfC1c68D5DeeA3C3bB880059",
      "gasPrice": {
        "_hex": "0xd734723bb"
      },
      "gasLimit": {
        "_hex": "0x5208"
      },
      "to": "0x32Be343B94f860124dC4fEe278FDCBD38C102D88",
      "value": {
        "_hex": "0xfb45822b70c35000"
      },
      "nonce": 3,
      "data": "0x",
      "r": "0x909c20ca7ef56542e2e1162b9fa8cc7ffaa58ae680fc154971ff2b47162d5b04",
      "s": "0x05889fa77ab34cda16c186ffeddba6d9844e0f229e411585731e02017581d866",
      "v": 27,
      "creates": null,
      "raw": "0xf86c03850d734723bb8252089432be343b94f860124dc4fee278fdcbd38c102d8888fb45822b70c35000801ba0909c20ca7ef56542e2e1162b9fa8cc7ffaa58ae680fc154971ff2b47162d5b04a005889fa77ab34cda16c186ffeddba6d9844e0f229e411585731e02017581d866",
      "networkId": 0,
      "chainId": 0
    },
    {
      "hash": "0x1e21d287df3b586a9220628b11076de635be823215e291177c2f705e9577fb2c",
      "blockHash": "0xe4fe4ed49fa485a029c0f4311b30c68967e3470fec203d0d4eee642023e12af8",
      "blockNumber": 84310,
      "transactionIndex": 5,
      "confirmations": null,
      "from": "0xb4eb03c9bDD4944DE22085E8e1dB5Ebd36889Bd8",
      "gasPrice": {
        "_hex": "0xd734723bb"
      },
      "gasLimit": {
        "_hex": "0x5208"
      },
      "to": "0x32Be343B94f860124dC4fEe278FDCBD38C102D88",
      "value": {
        "_hex": "0x6cdb3da189655800"
      },
      "nonce": 3,
      "data": "0x",
      "r": "0xfc5b8b220b58b712a7a3fd4f4c8c869f5d0ab10f567c68b3a2c95621684d1f4c",
      "s": "0x599b928f2f269e9cbb2e2748e072dd08ea7245e866f0f49c01b9c8c9adff644e",
      "v": 27,
      "creates": null,
      "raw": "0xf86c03850d734723bb8252089432be343b94f860124dc4fee278fdcbd38c102d88886cdb3da189655800801ba0fc5b8b220b58b712a7a3fd4f4c8c869f5d0ab10f567c68b3a2c95621684d1f4ca0599b928f2f269e9cbb2e2748e072dd08ea7245e866f0f49c01b9c8c9adff644e",
      "networkId": 0,
      "chainId": 0
    },
    {
      "hash": "0x4aaa9a47f259132ad1c4be6da5f489456efd23413b8220f2d57cb46fdb7a5810",
      "blockHash": "0xe4fe4ed49fa485a029c0f4311b30c68967e3470fec203d0d4eee642023e12af8",
      "blockNumber": 84310,
      "transactionIndex": 6,
      "confirmations": null,
      "from": "0xC8E61bFB4846B622B084B98Bc586388aFCb70d5F",
      "gasPrice": {
        "_hex": "0xd734723bb"
      },
      "gasLimit": {
        "_hex": "0x5208"
      },
      "to": "0x32Be343B94f860124dC4fEe278FDCBD38C102D88",
      "value": {
        "_hex": "0xb145a5546533a800"
      },
      "nonce": 3,
      "data": "0x",
      "r": "0x1bcf0aabeb061927b62152fc9c947ac369a4443d69557cebcc12f0f71455db38",
      "s": "0x002bdfa6c64fd8ca2cbee76fbd059a8c090c86bb903134621aded960331347c3",
      "v": 28,
      "creates": null,
      "raw": "0xf86b03850d734723bb8252089432be343b94f860124dc4fee278fdcbd38c102d8888b145a5546533a800801ca01bcf0aabeb061927b62152fc9c947ac369a4443d69557cebcc12f0f71455db389f2bdfa6c64fd8ca2cbee76fbd059a8c090c86bb903134621aded960331347c3",
      "networkId": 0,
      "chainId": 0
    }
  ]
}