{
  "hash": "0x49149b431cc52e0deda99c3198d586fef40240a1c34b7bb108f1322fb54639d7",
  "parentHash": "0x965bad4f3932ceedb4ff78a857946dbb90ea9829d4cf16b3c3c30a60507e4fe5",
  "number": 47024,
  "timestamp": 1438933303,
  "nonce": "0x6ba682773586f384",
  "difficulty": 1450319489290,
  "gasLimit": {
    "_hex": "0x90ad"
  },
  "gasUsed": {
    "_hex": "0x5208"
  },
  "miner": "0xcd39cBcF71Ff4e9592F94db59db4ff45e34b174f",
  "extraData": "0x476574682f76312e302e312f6c696e75782f676f312e342e32",
  "transactions": [
    {
      "hash": "0x39e9a63278e53a16596ce0159422d658eaee8ed1bf8973021f230c6e6ab322f3",
      "blockHash": "0x49149b431cc52e0deda99c3198d586fef40240a1c34b7bb108f1322fb54639d7",
      "blockNumber": 47024,
      "transactionIndex": 0,
      "confirmations": null,
      "from": "0xdEbbdd831e0F20AE6e378252DecDf92f7CF0c658",
      "gasPrice": {
        "_hex": "0xde3424aa7"
      },
      "gasLimit": {
        "_hex": "0x5208"
      },
      "to": "0x4912D994E8eA111bEfbC47d04ef89A132D785D95",
      "value": {
        "_hex": "0x5150ae84a8cdf00000"
      },
      "nonce": 1,
      "data": "0x",
      "r": "0xc63daded6cfb0a410d5a08eab65613775103f43ce827a2aa5ea92176478d6e37",
      "s": "0x7f276d03d19b8e8b5f29c47a1d763027115f61e536e5010bc1019db829455da1",
      "v": 28,
      "creates": null,
      "raw": "0xf86d01850de3424aa7825208944912d994e8ea111befbc47d04ef89a132d785d95895150ae84a8cdf00000801ca0c63daded6cfb0a410d5a08eab65613775103f43ce827a2aa5ea92176478d6e37a07f276d03d19b8e8b5f29c47a1d763027115f61e536e5010bc1019db829455da1",
      "networkId": 0,
      "chainId": 0
    }
  ]
}