{
  "hash": "0xf09158409562a0fc365745247d3ba5d4c710e5c1bb49488f72f6587554d41b1e",
  "parentHash": "0xb4cbb4a5aa1d6d8ecba398483ffe4486ff4a1b8c6e0456c5e262e5cca0da47f5",
  "number": 91187,
  "timestamp": 1439651711,
  "nonce": "0x5a4d50390a312ffb",
  "difficulty": 3435612010959,
  "gasLimit": {
    "_hex": "0x2fefd8"
  },
  "gasUsed": {
    "_hex": "0x546c"
  },
  "miner": "0xc3a9226aE275dF2CAB312B911040634A9C9C9eF6",
  "extraData": "0x476574682f76312e302e312f77696e646f77732f676f312e342e32",
  "transactions": [
    {
      "hash": "0xe5fd90875f035ee6118d236ac6de26eafcdd88f60bd2bbb0627061057ed6514c",
      "blockHash": "0xf09158409562a0fc365745247d3ba5d4c710e5c1bb49488f72f6587554d41b1e",
      "blockNumber": 91187,
      "transactionIndex": 0,
      "confirmations": null,
      "from": "0x849aB80790b28fF1FfD6Ba394eFc7463105C36f7",
      "gasPrice": {
        "_hex": "0x110c8f7d8de"
      },
      "gasLimit": {
        "_hex": "0xc350"
      },
      "to": "0x2910543Af39abA0Cd09dBb2D50200b3E800A63D2",
      "value": {
        "_hex": "0x1d7d843dc3b480000"
      },
      "nonce": 0,
      "data": "0x454e36454d46314452",
      "r": "0xe4248a6937c0a65919d322ac03776c1d07b5aba9979040962079ae2ab8c722c7",
      "s": "0xfb542bad327bca5638f9892a4b9ca881425568385440bb86fbecddc7cacfaf16",
      "v": 27,
      "creates": null,
      "raw": "0xf87780860110c8f7d8de82c350942910543af39aba0cd09dbb2d50200b3e800a63d28901d7d843dc3b48000089454e36454d463144521ba0e4248a6937c0a65919d322ac03776c1d07b5aba9979040962079ae2ab8c722c7a0fb542bad327bca5638f9892a4b9ca881425568385440bb86fbecddc7cacfaf16",
      "networkId": 0,
      "chainId": 0
    }
  ]
}