{
  "hash": "0xec7f686729bcf6f603422b4f613a4e09fcd89478d840f6a920ab89b0993c134a",
  "parentHash": "0x27d6074538f14ec2aaba45b5a33d9b8f1cc42ae811a459e8566b4a04bf7e4331",
  "number": 47983,
  "timestamp": 1438949397,
  "nonce": "0x3e67264a4181a833",
  "difficulty": 1460813930764,
  "gasLimit": {
    "_hex": "0x11383"
  },
  "gasUsed": {
    "_hex": "0x546c"
  },
  "miner": "0xe6A7a1d47ff21B6321162AEA7C6CB457D5476Bca",
  "extraData": "0x657468706f6f6c2e6f7267",
  "transactions": [
    {
      "hash": "0xd62b182112d20090db0d17f32415b54073ae2883e3bcb79872b327ed4f64f896",
      "blockHash": "0xec7f686729bcf6f603422b4f613a4e09fcd89478d840f6a920ab89b0993c134a",
      "blockNumber": 47983,
      "transactionIndex": 0,
      "confirmations": null,
      "from": "0x17dF49518D73b129F0DA36b1c9B40CB66420FDc7",
      "gasPrice": {
        "_hex": "0xd0c47c6b6"
      },
      "gasLimit": {
        "_hex": "0x61a8"
      },
      "to": "0x2910543Af39abA0Cd09dBb2D50200b3E800A63D2",
      "value": {
        "_hex": "0x3635c9adc5dea00000"
      },
      "nonce": 0,
      "data": "0x454e4544374e424747",
      "r": "0xf91ce83e6af6d487db35967c25bb550a1a3de379107f721f0cb775ab6b37220d",
      "s": "0x106e5cf1d8173e6cb04e7671b3b03252ed6c32fb138573ced702d31f7424a611",
      "v": 27,
      "creates": null,
      "raw": "0xf87680850d0c47c6b68261a8942910543af39aba0cd09dbb2d50200b3e800a63d2893635c9adc5dea0000089454e4544374e4247471ba0f91ce83e6af6d487db35967c25bb550a1a3de379107f721f0cb775ab6b37220da0106e5cf1d8173e6cb04e7671b3b03252ed6c32fb138573ced702d31f7424a611",
      "networkId": 0,
      "chainId": 0
    }
  ]
}