{
  "hash": "0xacaca2249eb135c09f0ea945c7efdd7bdb8c875aefadc2228192648df26e3698",
  "parentHash": "0x05fb45ac169c2726468995182b2f5bc1552056c22beea78083c5321e90ec86c4",
  "number": 62190,
  "timestamp": 1439184656,
  "nonce": "0xfbf465816f501e24",
  "difficulty": 1770297890567,
  "gasLimit": {
    "_hex": "0x2fe3de"
  },
  "gasUsed": {
    "_hex": "0x546c"
  },
  "miner": "0x356CEFb4Eb836DC68403308309E075a31DD991D2",
  "extraData": "0x476574682f76312e302e302f6c696e75782f676f312e342e32",
  "transactions": [
    {
      "hash": "0xab01346b5f1da56cb2727e5cb0ecebd07cd39906d79333b2781a7cc6d616db70",
      "blockHash": "0xacaca2249eb135c09f0ea945c7efdd7bdb8c875aefadc2228192648df26e3698",
      "blockNumber": 62190,
      "transactionIndex": 0,
      "confirmations": null,
      "from": "0xbD51eE2Ea143D7b1D6b77E7E44bDD7Da12f485aC",
      "gasPrice": {
        "_hex": "0x110c8f7d8de"
      },
      "gasLimit": {
        "_hex": "0xc350"
      },
      "to": "0x2910543Af39abA0Cd09dBb2D50200b3E800A63D2",
      "value": {
        "_hex": "0x218a2ff3fca62e0000"
      },
      "nonce": 1,
      "data": "0x454e59504257313138",
      "r": "0xb62830b68cb3de32ad24f1a8db6d9389a0de52b057056ab296436e0d56dda7dd",
      "s": "0xc6dce6f69fe4232b875d8e7c640a09b8ed5ccba3adef9857b27f28d6a490bfe8",
      "v": 27,
      "creates": null,
      "raw": "0xf87701860110c8f7d8de82c350942910543af39aba0cd09dbb2d50200b3e800a63d289218a2ff3fca62e000089454e595042573131381ba0b62830b68cb3de32ad24f1a8db6d9389a0de52b057056ab296436e0d56dda7dda0c6dce6f69fe4232b875d8e7c640a09b8ed5ccba3adef9857b27f28d6a490bfe8",
      "networkId": 0,
      "chainId": 0
    }
  ]
}