{
  "hash": "0x64e93ee89ae1c5d9056779a84c82d71ebacef1aff6ecc5a91b6a1930e39365ed",
  "parentHash": "0x9678fbad46ff47d7ce800025699472fcf471e4412ffac3c8d7344eacd480c55a",
  "number": 91760,
  "timestamp": 1439661134,
  "nonce": "0x03ff0e2b5a0ae3ac",
  "difficulty": 3470784604004,
  "gasLimit": {
    "_hex": "0x2fefd8"
  },
  "gasUsed": {
    "_hex": "0x5208"
  },
  "miner": "0x007f7f58D3eb5b7510A301eCC749FC1fCDDBE14D",
  "extraData": "0x476574682f76312e302e312f77696e646f77732f676f312e342e32",
  "transactions": [
    {
      "hash": "0x04ee8e953f1bb1d599364dece64bad1dd582ee3d436483166b71d2d7369fc262",
      "blockHash": "0x64e93ee89ae1c5d9056779a84c82d71ebacef1aff6ecc5a91b6a1930e39365ed",
      "blockNumber": 91760,
      "transactionIndex": 0,
      "confirmations": null,
      "from": "0x120A270bbC009644e35F0bB6ab13f95b8199c4ad",
      "gasPrice": {
        "_hex": "0xcdd8f2cda"
      },
      "gasLimit": {
        "_hex": "0x3d090"
      },
      "to": "0x739f8ab33a41B67952f16778e3CC6D2dEcC3a2d5",
      "value": {
        "_hex": "0x1b1ae4d6e2ef500000"
      },
      "nonce": 538,
      "data": "0x",
      "r": "0x8637e30d2f458c0459614fab8ef5818155490cca06ec86529aa0ddc2c3222584",
      "s": "0x32e8b2c3af0ef852477aa0a50ec9e825da165e49df8d3cbb27585926d1620bda",
      "v": 28,
      "creates": null,
      "raw": "0xf87082021a850cdd8f2cda8303d09094739f8ab33a41b67952f16778e3cc6d2decc3a2d5891b1ae4d6e2ef500000801ca08637e30d2f458c0459614fab8ef5818155490cca06ec86529aa0ddc2c3222584a032e8b2c3af0ef852477aa0a50ec9e825da165e49df8d3cbb27585926d1620bda",
      "networkId": 0,
      "chainId": 0
    }
  ]
}