{
  "hash": "0x82a890a2acc08ab8469f7c989f21c391e2e4644ace26cd7d442da85e75386da8",
  "parentHash": "0xe6641da28ac0b2fc621c9be197b122e8948f5d3d1fb9ccec295e68f9e264f665",
  "number": 101584,
  "timestamp": 1439825044,
  "nonce": "0x5685e58b89ccba58",
  "difficulty": 3890135348504,
  "gasLimit": {
    "_hex": "0x2fefd8"
  },
  "gasUsed": {
    "_hex": "0x2a20"
  },
  "miner": "0xe6A7a1d47ff21B6321162AEA7C6CB457D5476Bca",
  "extraData": "0x476574682f76312e302e312d38326566323666362f6c696e75782f676f312e34",
  "transactions": [
    {
      "hash": "0xc5f774c3159dd24eaa6d3ae668cdf112dfd14208ff2aa21b65aa9a022b3e9dee",
      "blockHash": "0x82a890a2acc08ab8469f7c989f21c391e2e4644ace26cd7d442da85e75386da8",
      "blockNumber": 101584,
      "transactionIndex": 0,
      "confirmations": null,
      "from": "0x8f7f160D267B54245003AaEeDB71b3cDD3A8BB65",
      "gasPrice": {
        "_hex": "0xdc903bed3"
      },
      "gasLimit": {
        "_hex": "0x15f90"
      },
      "to": "0x8eFE9A62099820c58f81bb1573D8619c7f9dfFBe",
      "value": {
        "_hex": "0x0"
      },
      "nonce": 1,
      "data": "0x41c0e1b5",
      "r": "0x3aa42b92a8b4d95c7d5d3b905fa64c6bb538fddbacc5f1d563a09bd412399bc3",
      "s": "0x78fd6d2df5bd1c99e157fd4c672c530d5d020e70b636d42f4f675102ff25ecf8",
      "v": 27,
      "creates": null,
      "raw": "0xf86901850dc903bed383015f90948efe9a62099820c58f81bb1573d8619c7f9dffbe808441c0e1b51ba03aa42b92a8b4d95c7d5d3b905fa64c6bb538fddbacc5f1d563a09bd412399bc3a078fd6d2df5bd1c99e157fd4c672c530d5d020e70b636d42f4f675102ff25ecf8",
      "networkId": 0,
      "chainId": 0
    }
  ]
}