{
  "hash": "0xc581cd0cd611d70119e10b5e472c4935a31c1bf035e251552df8357b44721206",
  "parentHash": "0x45bbbc64f18e056307e450f2594e99396233b6e45cacf56f9e9ac60a65367f99",
  "number": 96803,
  "timestamp": 1439746015,
  "nonce": "0x6ee31d6c025eccd7",
  "difficulty": 3759725386269,
  "gasLimit": {
    "_hex": "0x2fefd8"
  },
  "gasUsed": {
    "_hex": "0x126e2"
  },
  "miner": "0xe6A7a1d47ff21B6321162AEA7C6CB457D5476Bca",
  "extraData": "0x476574682f76312e302e312d38326566323666362f6c696e75782f676f312e34",
  "transactions": [
    {
      "hash": "0x8171cfc5dace52844a946c97bca7662680da1bf3a5bcc85e1a36e16e51bb1b7c",
      "blockHash": "0xc581cd0cd611d70119e10b5e472c4935a31c1bf035e251552df8357b44721206",
      "blockNumber": 96803,
      "transactionIndex": 0,
      "confirmations": null,
      "from": "0x14A7352066364404DB50F0d0d78D754A22198EF4",
      "gasPrice": {
        "_hex": "0x110c8f7d8de"
      },
      "gasLimit": {
        "_hex": "0xc350"
      },
      "to": "0x2910543Af39abA0Cd09dBb2D50200b3E800A63D2",
      "value": {
        "_hex": "0x2f612fc1597b680000"
      },
      "nonce": 1,
      "data": "0x454e56343455444530",
      "r": "0xdc506353a8d940a4203dc71959bbc160335dc67cfa059444a09455963a3794be",
      "s": "0x2add504f09ead1be07d49a31b06f57fcc3a3ca9a598749eddc76881d5ba3d04a",
      "v": 27,
      "creates": null,
      "raw": "0xf87701860110c8f7d8de82c350942910543af39aba0cd09dbb2d50200b3e800a63d2892f612fc1597b68000089454e563434554445301ba0dc506353a8d940a4203dc71959bbc160335dc67cfa059444a09455963a3794bea02add504f09ead1be07d49a31b06f57fcc3a3ca9a598749eddc76881d5ba3d04a",
      "networkId": 0,
      "chainId": 0
    },
    {
      "hash": "0x08eff663916719f4ba8e8b4a23681eb1f014f46cd3895a2adb5cc4a0e1e30766",
      "blockHash": "0xc581cd0cd611d70119e10b5e472c4935a31c1bf035e251552df8357b44721206",
      "blockNumber": 96803,
      "transactionIndex": 1,
      "confirmations": null,
      "from": "0x06C68F0cb0248D0bFFfFf320d1Df4319B48dd82E",
      "gasPrice": {
        "_hex": "0xd6a0b722a"
      },
      "gasLimit": {
        "_hex": "0x15f90"
      },
      "to": "0x37F3D9168942b0BcA3476480969FDA3539C3B949",
      "value": {
        "_hex": "0xde0b6b3a7640000"
      },
      "nonce": 2,
      "data": "0x",
      "r": "0xa525f28261d0cbbd1d8ed02ebcf9bd79e29fcc57acba5d11568af6607a5bd365",
      "s": "0x2970f119740cd7eff4afa11bae1beb6bf067da439d41880ff40ce2f1a9f60975",
      "v": 27,
      "creates": null,
      "raw": "0xf86d02850d6a0b722a83015f909437f3d9168942b0bca3476480969fda3539c3b949880de0b6b3a7640000801ba0a525f28261d0cbbd1d8ed02ebcf9bd79e29fcc57acba5d11568af6607a5bd365a02970f119740cd7eff4afa11bae1beb6bf067da439d41880ff40ce2f1a9f60975",
      "networkId": 0,
      "chainId": 0
    },
    {
      "hash": "0x3ceff5f69a3e7440bccc226cc6f860b0bde81d05440c676c8bbf0c0f19585bd4",
      "blockHash": "0xc581cd0cd611d70119e10b5e472c4935a31c1bf035e251552df8357b44721206",
      "blockNumber": 96803,
      "transactionIndex": 2,
      "confirmations": null,
      "from": "0xFBb1b73C4f0BDa4f67dcA266ce6Ef42f520fBB98",
      "gasPrice": {
        "_hex": "0xd4bdc06a6"
      },
      "gasLimit": {
        "_hex": "0x15f90"
      },
      "to": "0xCAc7000C7dBaa2E33Af15325AF5D435E011C7BdD",
      "value": {
        "_hex": "0x0"
      },
      "nonce": 72,
      "data": "0x3feb1bd84249545452455830300000000000000000000000000000000000000000000000000000000000000000000000725f637bf6266b62d8a4b8f9ec4e6e346d34998d00000000000000000000000000000000000000000000000022359c267290d800",
      "r": "0xe982c9ffe9f90ba5187369131db58bc1ea0ff2b5512aea22426993c07feb6a7f",
      "s": "0x0a43455c15bec830594890d7c33f746ce60a6a5e198cb403d6d2ffc0436f501a",
      "v": 27,
      "creates": null,
      "raw": "0xf8ca48850d4bdc06a683015f9094cac7000c7dbaa2e33af15325af5d435e011c7bdd80b8643feb1bd84249545452455830300000000000000000000000000000000000000000000000000000000000000000000000725f637bf6266b62d8a4b8f9ec4e6e346d34998d00000000000000000000000000000000000000000000000022359c267290d8001ba0e982c9ffe9f90ba5187369131db58bc1ea0ff2b5512aea22426993c07feb6a7fa00a43455c15bec830594890d7c33f746ce60a6a5e198cb403d6d2ffc0436f501a",
      "networkId": 0,
      "chainId": 0
    }
  ]
}