{
  "hash": "0x96eb64638eaab45833f43d23bdce73cf7cfd9e6d2ef5ad39ef1b9700f66f8485",
  "parentHash": "0x9af735eb72e2f06760c1ef1bf30233d6133eba55514b33bed75d95bb5952e9c8",
  "number": 72497,
  "timestamp": 1439353617,
  "nonce": "0xfec0d0203aaba1b5",
  "difficulty": 2201540715465,
  "gasLimit": {
    "_hex": "0x2fefd8"
  },
  "gasUsed": {
    "_hex": "0x5208"
  },
  "miner": "0xe6A7a1d47ff21B6321162AEA7C6CB457D5476Bca",
  "extraData": "0x476574682f76312e302e312d38326566323666362f6c696e75782f676f312e34",
  "transactions": [
    {
      "hash": "0xc5935aa9941fef4efce03007cfc0a072ec50204c3ac95468ddf76a828348f4dd",
      "blockHash": "0x96eb64638eaab45833f43d23bdce73cf7cfd9e6d2ef5ad39ef1b9700f66f8485",
      "blockNumber": 72497,
      "transactionIndex": 0,
      "confirmations": null,
      "from": "0xe8a09f2DdC6D33E1dCE008B1810B5D317Cd7891e",
      "gasPrice": {
        "_hex": "0xccb22c7da"
      },
      "gasLimit": {
        "_hex": "0x15f90"
      },
      "to": "0x6d37bd781411ccDd33792481E2C9CE5b62D3a5B8",
      "value": {
        "_hex": "0xde0b6b3a7640000"
      },
      "nonce": 0,
      "data": "0x",
      "r": "0xb03be0457fa9f66c49419e282d3ccc53ca64c0d12776697f083fba52caabef6f",
      "s": "0x368fd268a8ef1cbd9fa1637373782d205503f6d7284bc7f6c505a4fe40ded93c",
      "v": 28,
      "creates": null,
      "raw": "0xf86d80850ccb22c7da83015f90946d37bd781411ccdd33792481e2c9ce5b62d3a5b8880de0b6b3a7640000801ca0b03be0457fa9f66c49419e282d3ccc53ca64c0d12776697f083fba52caabef6fa0368fd268a8ef1cbd9fa1637373782d205503f6d7284bc7f6c505a4fe40ded93c",
      "networkId": 0,
      "chainId": 0
    }
  ]
}