{
  "hash": "0xcfeacd6915b4aad6a8cbd2789be6053fdb4b0c7c3c4fec3f1f986f6238b4656a",
  "parentHash": "0xfdcaf127611117550281e620f2a6c20f3b7a759a2787a880d6b074082aca6b42",
  "number": 94431,
  "timestamp": 1439708319,
  "nonce": "0x725222445e6f1d01",
  "difficulty": 3481559202123,
  "gasLimit": {
    "_hex": "0x2fefd8"
  },
  "gasUsed": {
    "_hex": "0x546c"
  },
  "miner": "0x8B454d830feF179e66206840F8F3D1d83bC32b17",
  "extraData": "0x476574682f76312e302e312f77696e646f77732f676f312e342e32",
  "transactions": [
    {
      "hash": "0x1a175cb71e0250859062917829601fba0b212b595c7748bd44dc666ccc0992d3",
      "blockHash": "0xcfeacd6915b4aad6a8cbd2789be6053fdb4b0c7c3c4fec3f1f986f6238b4656a",
      "blockNumber": 94431,
      "transactionIndex": 0,
      "confirmations": null,
      "from": "0xD02108d2AE3CAB10CBCF1657AF223E027c8210f6",
      "gasPrice": {
        "_hex": "0x110c8f7d8de"
      },
      "gasLimit": {
        "_hex": "0xc350"
      },
      "to": "0x2910543Af39abA0Cd09dBb2D50200b3E800A63D2",
      "value": {
        "_hex": "0x6c4fd1ee246e780000"
      },
      "nonce": 1,
      "data": "0x454e43304555485552",
      "r": "0x6f44386e24defbd3696b211620102951097f3c7cb8efb1fd4269dc249b48cf6f",
      "s": "0x3ee5f29f88e9b071b947efc6b7a3f217663eb72b9d40be0c74aa4fe08361de0f",
      "v": 27,
      "creates": null,
      "raw": "0xf87701860110c8f7d8de82c350942910543af39aba0cd09dbb2d50200b3e800a63d2896c4fd1ee246e78000089454e433045554855521ba06f44386e24defbd3696b211620102951097f3c7cb8efb1fd4269dc249b48cf6fa03ee5f29f88e9b071b947efc6b7a3f217663eb72b9d40be0c74aa4fe08361de0f",
      "networkId": 0,
      "chainId": 0
    }
  ]
}