{
  "hash": "0x04ce6c88b1f2bfbbd38172c68742f943ac4feaf598c2d7dc4a5048e1ff3810e2",
  "parentHash": "0xbb1d558a1a981479e27438fdded3384d395eed20d39876975395aeb4f67a0dc1",
  "number": 93812,
  "timestamp": 1439698221,
  "nonce": "0x4684695dd1b0bd98",
  "difficulty": 3426162218646,
  "gasLimit": {
    "_hex": "0x2fefd8"
  },
  "gasUsed": {
    "_hex": "0x520c"
  },
  "miner": "0xb553EA87675eF890a0318b068C2272d76c1c672C",
  "extraData": "0x",
  "transactions": [
    {
      "hash": "0x2c926c8146e7c54d52bcd070308d2c3f5286a3b42dd8292a148875041fdea954",
      "blockHash": "0x04ce6c88b1f2bfbbd38172c68742f943ac4feaf598c2d7dc4a5048e1ff3810e2",
      "blockNumber": 93812,
      "transactionIndex": 0,
      "confirmations": null,
      "from": "0x8375eA550366a24550ec93283600485F4Ba8CFE5",
      "gasPrice": {
        "_hex": "0xd845c9b30"
      },
      "gasLimit": {
        "_hex": "0x7530"
      },
      "to": "0x8375eA550366a24550ec93283600485F4Ba8CFE5",
      "value": {
        "_hex": "0xe8d4a51000"
      },
      "nonce": 15,
      "data": "0x00",
      "r": "0xd5018a66d161fe5ba9a6cb0c00d028923d36bcf18361e39f0c515e1a9b82f4f2",
      "s": "0x48f965a471f0295954c7af4fdccf5fc4babf77eba8a26bbf47c6e77ecae942de",
      "v": 28,
      "creates": null,
      "raw": "0xf8690f850d845c9b30827530948375ea550366a24550ec93283600485f4ba8cfe585e8d4a51000001ca0d5018a66d161fe5ba9a6cb0c00d028923d36bcf18361e39f0c515e1a9b82f4f2a048f965a471f0295954c7af4fdccf5fc4babf77eba8a26bbf47c6e77ecae942de",
      "networkId": 0,
      "chainId": 0
    }
  ]
}