{
  "hash": "0x441886f68d9ddb72c3e61367b5ac299e6aa2d509257fae0ff76a5853fdccbad4",
  "parentHash": "0x577521cea4e632ff15637d64dd852b8f56109431f96745058a2f09337f71fced",
  "number": 69197,
  "timestamp": 1439299723,
  "nonce": "0x220eb2984b383b0c",
  "difficulty": 2066950357348,
  "gasLimit": {
    "_hex": "0x2fefd8"
  },
  "gasUsed": {
    "_hex": "0x5208"
  },
  "miner": "0xf927a40C8B7F6E07c5af7FA2155B4864a4112B13",
  "extraData": "0x",
  "transactions": [
    {
      "hash": "0x0fb0ffcd6a9b7f84eb21850d6b2b8971b593029891dddfb905100ebd760d63c4",
      "blockHash": "0x441886f68d9ddb72c3e61367b5ac299e6aa2d509257fae0ff76a5853fdccbad4",
      "blockNumber": 69197,
      "transactionIndex": 0,
      "confirmations": null,
      "from": "0x2910543Af39abA0Cd09dBb2D50200b3E800A63D2",
      "gasPrice": {
        "_hex": "0xd50f58877"
      },
      "gasLimit": {
        "_hex": "0x5208"
      },
      "to": "0x9789Efa70E6Fb22C4f6f7409571dbD1Aee9713EB",
      "value": {
        "_hex": "0x4a6e221e0f8b738000"
      },
      "nonce": 221,
      "data": "0x",
      "r": "0x153ac4279e30efcbe4980f1d1467b88fc6e049c04dc6a7698a5edc60cc76b371",
      "s": "0x3a3d5fbf3bc676a5779f3559c3122014e4b8bba993900b0012a48b723aa40dca",
      "v": 27,
      "creates": null,
      "raw": "0xf86e81dd850d50f58877825208949789efa70e6fb22c4f6f7409571dbd1aee9713eb894a6e221e0f8b738000801ba0153ac4279e30efcbe4980f1d1467b88fc6e049c04dc6a7698a5edc60cc76b371a03a3d5fbf3bc676a5779f3559c3122014e4b8bba993900b0012a48b723aa40dca",
      "networkId": 0,
      "chainId": 0
    }
  ]
}