{
  "hash": "0xb6cfcd9820927af54cd99a134b24eadc3d4afce35cd28c61789d2ac14213073e",
  "parentHash": "0x017685281a11f6514538b113d62c7efb9852922ff308f4596d2c37c6f4717214",
  "number": 102001,
  "timestamp": 1439831194,
  "nonce": "0x6a7f2ef485cf26b3",
  "difficulty": 3918537353379,
  "gasLimit": {
    "_hex": "0x2fefd8"
  },
  "gasUsed": {
    "_hex": "0xf618"
  },
  "miner": "0xe6A7a1d47ff21B6321162AEA7C6CB457D5476Bca",
  "extraData": "0x476574682f76312e302e312d38326566323666362f6c696e75782f676f312e34",
  "transactions": [
    {
      "hash": "0x13ff41b7ea0058a99f93ef9b672237dd481a61530939505328f406028ee15b73",
      "blockHash": "0xb6cfcd9820927af54cd99a134b24eadc3d4afce35cd28c61789d2ac14213073e",
      "blockNumber": 102001,
      "transactionIndex": 0,
      "confirmations": null,
      "from": "0xbD17ef430399DeA108B0ADe7019faB744E721d63",
      "gasPrice": {
        "_hex": "0xcc6ee0bfe"
      },
      "gasLimit": {
        "_hex": "0x5208"
      },
      "to": "0x32Be343B94f860124dC4fEe278FDCBD38C102D88",
      "value": {
        "_hex": "0x33f5b127dd1de400"
      },
      "nonce": 0,
      "data": "0x",
      "r": "0x49b69c60d8f70208bf13851a05038a7dc8fde0cc2b3658856d499de5e8d5f590",
      "s": "0x0a1b2002a185fc36e1e7b31383fc52eae5e7671c6831ee9e514fad00bf2e337f",
      "v": 28,
      "creates": null,
      "raw": "0xf86c80850cc6ee0bfe8252089432be343b94f860124dc4fee278fdcbd38c102d888833f5b127dd1de400801ca049b69c60d8f70208bf13851a05038a7dc8fde0cc2b3658856d499de5e8d5f590a00a1b2002a185fc36e1e7b31383fc52eae5e7671c6831ee9e514fad00bf2e337f",
      "networkId": 0,
      "chainId": 0
    },
    {
      "hash": "0x0fc98b34c6f71cafc8871af37fdc820651df1cbb22ba3566a2a3990c9ce9f3e9",
      "blockHash": "0xb6cfcd9820927af54cd99a134b24eadc3d4afce35cd28c61789d2ac14213073e",
      "blockNumber": 102001,
      "transactionIndex": 1,
      "confirmations": null,
      "from": "0x237a49289Ef006719f48f45dE15C3F6510Bf52e1",
      "gasPrice": {
        "_hex": "0xcc6ee0bfe"
      },
      "gasLimit": {
        "_hex": "0x5208"
      },
      "to": "0x32Be343B94f860124dC4fEe278FDCBD38C102D88",
      "value": {
        "_hex": "0x19c650b8928fa400"
      },
      "nonce": 0,
      "data": "0x",
      "r": "0x62464af2cf14ddc436c999455369846428e3e1c27af41570f48b7400d5c5d357",
      "s": "0x36e8285afe2490b11bd7c82874ca1cb4ef9f98f1ec03a9adf7355ddcad491434",
      "v": 28,
      "creates": null,
      "raw": "0xf86c80850cc6ee0bfe8252089432be343b94f860124dc4fee278fdcbd38c102d888819c650b8928fa400801ca062464af2cf14ddc436c999455369846428e3e1c27af41570f48b7400d5c5d357a036e8285afe2490b11bd7c82874ca1cb4ef9f98f1ec03a9adf7355ddcad491434",
      "networkId": 0,
      "chainId": 0
    },
    {
      "hash": "0x0648c7771ecd25f04418b86d5e311834d542a4dfa1e782d5f64291a39e5aadd0",
      "blockHash": "0xb6cfcd9820927af54cd99a134b24eadc3d4afce35cd28c61789d2ac14213073e",
      "blockNumber": 102001,
      "transactionIndex": 2,
      "confirmations": null,
      "from": "0x49f0609Ed78ee50FAa268a9Bdeb2949fa50d83eD",
      "gasPrice": {
        "_hex": "0xcc6ee0bfe"
      },
      "gasLimit": {
        "_hex": "0x5208"
      },
      "to": "0x32Be343B94f860124dC4fEe278FDCBD38C102D88",
      "value": {
        "_hex": "0xdb917a286e79800"
      },
      "nonce": 0,
      "data": "0x",
      "r": "0x09eea8ded0abd964edb34019e4318898f4f424f625bf0e0df1ea392453786c3a",
      "s": "0x221df69d522b65b2973792bbfba9650ac9a4973d1359d5972431da10b2621862",
      "v": 28,
      "creates": null,
      "raw": "0xf86c80850cc6ee0bfe8252089432be343b94f860124dc4fee278fdcbd38c102d88880db917a286e79800801ca009eea8ded0abd964edb34019e4318898f4f424f625bf0e0df1ea392453786c3aa0221df69d522b65b2973792bbfba9650ac9a4973d1359d5972431da10b2621862",
      "networkId": 0,
      "chainId": 0
    }
  ]
}