{
  "hash": "0x2086069f3c6e5be20f6b100956c7660ce2c461fc2f9847878a8f92f25d1ba99e",
  "parentHash": "0xcf8266a63e128a93b07dc995a87b7f9161249ff03f62ff42ae10ff29ebef5514",
  "number": 113603,
  "timestamp": 1440026512,
  "nonce": "0x12341bf4c4f707d0",
  "difficulty": 4442816529239,
  "gasLimit": {
    "_hex": "0x2fefd8"
  },
  "gasUsed": {
    "_hex": "0x5208"
  },
  "miner": "0x7E6930B63D03e88F5928C5cd6ee3FCee4D714F7F",
  "extraData": "0x",
  "transactions": [
    {
      "hash": "0x6aea16021e1e18b6dd12b135586826784d9538f96423a70415348759cfbb68e1",
      "blockHash": "0x2086069f3c6e5be20f6b100956c7660ce2c461fc2f9847878a8f92f25d1ba99e",
      "blockNumber": 113603,
      "transactionIndex": 0,
      "confirmations": null,
      "from": "0x26163E84886A136fC8034eB4e9F1cc00b1D345f1",
      "gasPrice": {
        "_hex": "0xd6d9651bf"
      },
      "gasLimit": {
        "_hex": "0x15f90"
      },
      "to": "0x6d921977dEFE5f4e0682CA512De1D07b1f4802E1",
      "value": {
        "_hex": "0x1236efcbcbb340000"
      },
      "nonce": 8,
      "data": "0x",
      "r": "0xc74d6c4af124b867a68686b3839d668c8123164dc1ea043b32592a156a5f1e90",
      "s": "0x33f39d43bb2bb225e407aa607939b8be21d40f8cc7b4b55c463da7db73224c49",
      "v": 27,
      "creates": null,
      "raw": "0xf86e08850d6d9651bf83015f90946d921977defe5f4e0682ca512de1d07b1f4802e18901236efcbcbb340000801ba0c74d6c4af124b867a68686b3839d668c8123164dc1ea043b32592a156a5f1e90a033f39d43bb2bb225e407aa607939b8be21d40f8cc7b4b55c463da7db73224c49",
      "networkId": 0,
      "chainId": 0
    }
  ]
}