{
  "hash": "0xdcabe04a3143a9938845f46014fb75bfb9bd9fa044500e1f6524f5896f09dab4",
  "parentHash": "0xcc37185e2480246e613d1846bd7b63692fa82b22265a967bde75c818ed8a95b2",
  "number": 115285,
  "timestamp": 1440054546,
  "nonce": "0x1c3b1a5cbb97eed8",
  "difficulty": 4556153084796,
  "gasLimit": {
    "_hex": "0x2fefd8"
  },
  "gasUsed": {
    "_hex": "0xa410"
  },
  "miner": "0xe6A7a1d47ff21B6321162AEA7C6CB457D5476Bca",
  "extraData": "0x476574682f76312e302e312d38326566323666362f6c696e75782f676f312e34",
  "transactions": [
    {
      "hash": "0x321d13ad22e583536ab650751f8ae87b96d205589ec94793ee8a3467b81860ee",
      "blockHash": "0xdcabe04a3143a9938845f46014fb75bfb9bd9fa044500e1f6524f5896f09dab4",
      "blockNumber": 115285,
      "transactionIndex": 0,
      "confirmations": null,
      "from": "0xe6A7a1d47ff21B6321162AEA7C6CB457D5476Bca",
      "gasPrice": {
        "_hex": "0xd64d3ee64"
      },
      "gasLimit": {
        "_hex": "0x55f0"
      },
      "to": "0x1dbe45A9437978D7Bdc5D468e6be0988a71D153f",
      "value": {
        "_hex": "0x1786d3a8d9f31a1c"
      },
      "nonce": 5132,
      "data": "0x",
      "r": "0x178ecfee87e1e31807441384797fcbe0c9e914e96daad6dfbddb73f1e00743ff",
      "s": "0x76fd726e174e3c1ea2af4a91297ad1cb1476e06fccd37d5cd1268fdfbfcb5f4f",
      "v": 28,
      "creates": null,
      "raw": "0xf86e82140c850d64d3ee648255f0941dbe45a9437978d7bdc5d468e6be0988a71d153f881786d3a8d9f31a1c801ca0178ecfee87e1e31807441384797fcbe0c9e914e96daad6dfbddb73f1e00743ffa076fd726e174e3c1ea2af4a91297ad1cb1476e06fccd37d5cd1268fdfbfcb5f4f",
      "networkId": 0,
      "chainId": 0
    },
    {
      "hash": "0xb8107df1183f11d5c5c5e4e72fa94e410ce3e4a6a3399e7985cbc0299382453a",
      "blockHash": "0xdcabe04a3143a9938845f46014fb75bfb9bd9fa044500e1f6524f5896f09dab4",
      "blockNumber": 115285,
      "transactionIndex": 1,
      "confirmations": null,
      "from": "0xe6A7a1d47ff21B6321162AEA7C6CB457D5476Bca",
      "gasPrice": {
        "_hex": "0xd64d3ee64"
      },
      "gasLimit": {
        "_hex": "0x55f0"
      },
      "to": "0x9C79cd9eDDAC7B87063732BC9629e3404341FB6E",
      "value": {
        "_hex": "0x179e577a6f2b6ce4"
      },
      "nonce": 5133,
      "data": "0x",
      "r": "0xc16ebbbf0b045e2979cb72e40d94d98c26f5ce9c7d4901ae383db1fe9e2a0805",
      "s": "0x405b11701b7a4d97d86f0b7b02481a1c6e3367231b203838ad68e4951d26f9bd",
      "v": 28,
      "creates": null,
      "raw": "0xf86e82140d850d64d3ee648255f0949c79cd9eddac7b87063732bc9629e3404341fb6e88179e577a6f2b6ce4801ca0c16ebbbf0b045e2979cb72e40d94d98c26f5ce9c7d4901ae383db1fe9e2a0805a0405b11701b7a4d97d86f0b7b02481a1c6e3367231b203838ad68e4951d26f9bd",
      "networkId": 0,
      "chainId": 0
    }
  ]
}