{
  "hash": "0x0ee5726a873a7d419335779397328f45a38f71d8952afb015c3a08764aad1b8e",
  "parentHash": "0x12ff5de88401e0830492f275edb1cf0ebcf6bf9161d4504dc29fc1c268b08e06",
  "number": 87388,
  "timestamp": 1439591498,
  "nonce": "0xd259893b621f1f98",
  "difficulty": 3109774734426,
  "gasLimit": {
    "_hex": "0x2fefd8"
  },
  "gasUsed": {
    "_hex": "0x5208"
  },
  "miner": "0xe6A7a1d47ff21B6321162AEA7C6CB457D5476Bca",
  "extraData": "0x476574682f76312e302e312d38326566323666362f6c696e75782f676f312e34",
  "transactions": [
    {
      "hash": "0x56873e17b6444fc03d8720403b936ff486d34a6fd58e8f02e0c3875e5e5edd22",
      "blockHash": "0x0ee5726a873a7d419335779397328f45a38f71d8952afb015c3a08764aad1b8e",
      "blockNumber": 87388,
      "transactionIndex": 0,
      "confirmations": null,
      "from": "0x8dd979d3638B9c8e7a169d955ef8E8Da5B772C51",
      "gasPrice": {
        "_hex": "0xcfdcfec74"
      },
      "gasLimit": {
        "_hex": "0x15f90"
      },
      "to": "0x4243a228C80cfE2A0b049b2585DdE804d8Ff1Dad",
      "value": {
        "_hex": "0xde0b6b3a7640000"
      },
      "nonce": 0,
      "data": "0x",
      "r": "0x833673e40a426a5bab8ad61ed88938ee3fded077c543b036e66ab2edda15bdf5",
      "s": "0x4610313156567bd8a44e4368462fb7ffe74e19eea7d190eae992a8e497b8bca4",
      "v": 27,
      "creates": null,
      "raw": "0xf86d80850cfdcfec7483015f90944243a228c80cfe2a0b049b2585dde804d8ff1dad880de0b6b3a7640000801ba0833673e40a426a5bab8ad61ed88938ee3fded077c543b036e66ab2edda15bdf5a04610313156567bd8a44e4368462fb7ffe74e19eea7d190eae992a8e497b8bca4",
      "networkId": 0,
      "chainId": 0
    }
  ]
}