{
  "hash": "0x2ee0fc7704a14ba601460c87b55a2676965d3f727dd49c503404d587bfb556b9",
  "parentHash": "0xecfcbb64259ce89e9b1094cd705f9ec2b9e079230b634542458755ebf0a8f7a1",
  "number": 65253,
  "timestamp": 1439233868,
  "nonce": "0xf7f66fcf21a4601b",
  "difficulty": 1936950312785,
  "gasLimit": {
    "_hex": "0x2fefd5"
  },
  "gasUsed": {
    "_hex": "0xa410"
  },
  "miner": "0x1E79617E91b265330Cdb34B9a2d2925855323113",
  "extraData": "0xdd809b302e392e34302b2b616339342d5257696e646f2f6d73762f4a4954",
  "transactions": [
    {
      "hash": "0xeb496687d2e1b1ab417cc3c6ec18b914e62fe5ffd2b2afae9b5c56ef3ba3b38c",
      "blockHash": "0x2ee0fc7704a14ba601460c87b55a2676965d3f727dd49c503404d587bfb556b9",
      "blockNumber": 65253,
      "transactionIndex": 0,
      "confirmations": null,
      "from": "0xe917A3BFD05093C2f7cAA0Afd63E9Eeb3EC45fa8",
      "gasPrice": {
        "_hex": "0xba43b7400"
      },
      "gasLimit": {
        "_hex": "0x5208"
      },
      "to": "0x14B01fe46D16D9283a84B92df2385bdC8f6F7475",
      "value": {
        "_hex": "0x7891057f3014000"
      },
      "nonce": 1,
      "data": "0x",
      "r": "0x00b52d8c8429a1353ef9c88dc1492cdc8a030568f885cfb286f9e63b3eda634b",
      "s": "0x394c998551ecfb40b087ad194bbc49a9ea8b15c339862f0c504e87978360298d",
      "v": 28,
      "creates": null,
      "raw": "0xf86b01850ba43b74008252089414b01fe46d16d9283a84b92df2385bdc8f6f74758807891057f3014000801c9fb52d8c8429a1353ef9c88dc1492cdc8a030568f885cfb286f9e63b3eda634ba0394c998551ecfb40b087ad194bbc49a9ea8b15c339862f0c504e87978360298d",
      "networkId": 0,
      "chainId": 0
    },
    {
      "hash": "0x420f0864ff6ff90f987aef8865c293c1ac026b33e4f8c1ec8f767e1c6ab69e8e",
      "blockHash": "0x2ee0fc7704a14ba601460c87b55a2676965d3f727dd49c503404d587bfb556b9",
      "blockNumber": 65253,
      "transactionIndex": 1,
      "confirmations": null,
      "from": "0xf6E4C4178068C99D971410D42D97a0A59a480930",
      "gasPrice": {
        "_hex": "0xba43b7400"
      },
      "gasLimit": {
        "_hex": "0x5208"
      },
      "to": "0xAe3749943D7BE4CF3d5D0BAAb0ec7259322d093B",
      "value": {
        "_hex": "0x7156077b32f1000"
      },
      "nonce": 1,
      "data": "0x",
      "r": "0x740eb446a9673243c3c0c309606f6998216aa8f944f7f177c7ce9df124f5363f",
      "s": "0x3c521de4b6cdd8563f7b1afb39f389874da96ba4ce1d7608dba7b21d7017bcf1",
      "v": 27,
      "creates": null,
      "raw": "0xf86c01850ba43b740082520894ae3749943d7be4cf3d5d0baab0ec7259322d093b8807156077b32f1000801ba0740eb446a9673243c3c0c309606f6998216aa8f944f7f177c7ce9df124f5363fa03c521de4b6cdd8563f7b1afb39f389874da96ba4ce1d7608dba7b21d7017bcf1",
      "networkId": 0,
      "chainId": 0
    }
  ]
}