{
  "hash": "0x17b6b5f26ac960aed1998b2f1460073086f771a9d1868670955eefa017773aef",
  "parentHash": "0x3d3fe3f8a57bddbe8e18ea16e14f95450b7051343d51b52233ce7e07b856abc3",
  "number": 68946,
  "timestamp": 1439296029,
  "nonce": "0xe46446d237bc79b9",
  "difficulty": 2035960026682,
  "gasLimit": {
    "_hex": "0x2fefd8"
  },
  "gasUsed": {
    "_hex": "0xf618"
  },
  "miner": "0xd8bd2C0f1FF677215F8b235db85bd5e7f3fBD59D",
  "extraData": "0x",
  "transactions": [
    {
      "hash": "0x1b355ff3b71dd9633c24540667963fb3a44fad38c1bd2cde5802d1aa15657eb5",
      "blockHash": "0x17b6b5f26ac960aed1998b2f1460073086f771a9d1868670955eefa017773aef",
      "blockNumber": 68946,
      "transactionIndex": 0,
      "confirmations": null,
      "from": "0xC85A4097983038E36f6E2B213670788bA308285f",
      "gasPrice": {
        "_hex": "0xba43b7400"
      },
      "gasLimit": {
        "_hex": "0x5208"
      },
      "to": "0xE76bB0A55DcC3DA4ca385241EAc5718F6bB1D67D",
      "value": {
        "_hex": "0xaa9f075c200000"
      },
      "nonce": 1,
      "data": "0x",
      "r": "0x4676ba434bdc6885377007f62b7f2063bca0506ee42e9da2605e38a69ad51031",
      "s": "0x463f585393f51e21243bd70954c13947870a321382340e4a7cfa21138abf4391",
      "v": 27,
      "creates": null,
      "raw": "0xf86b01850ba43b740082520894e76bb0a55dcc3da4ca385241eac5718f6bb1d67d87aa9f075c200000801ba04676ba434bdc6885377007f62b7f2063bca0506ee42e9da2605e38a69ad51031a0463f585393f51e21243bd70954c13947870a321382340e4a7cfa21138abf4391",
      "networkId": 0,
      "chainId": 0
    },
    {
      "hash": "0x769bd9b2bc5b46d7958a6cbe55c4bc911ecfd9a67d1cb18bfd0d1c14d9f5b5ca",
      "blockHash": "0x17b6b5f26ac960aed1998b2f1460073086f771a9d1868670955eefa017773aef",
      "blockNumber": 68946,
      "transactionIndex": 1,
      "confirmations": null,
      "from": "0xb12b19E6AdaCc3EA23B922554AAe4Bdaf196210b",
      "gasPrice": {
        "_hex": "0xba43b7400"
      },
      "gasLimit": {
        "_hex": "0x5208"
      },
      "to": "0x2b7AC2cD9b501BdC2388E86F23f2D1312c046af3",
      "value": {
        "_hex": "0xaa9f075c200000"
      },
      "nonce": 1,
      "data": "0x",
      "r": "0x766f930061ca9188c569d5ac324cc65d2a1faba4fdc438457d61b6f8fcde47be",
      "s": "0x5c1816d348503d46ea54741c0493c2271b2060c17446597e34ea1032005e27e2",
      "v": 27,
      "creates": null,
      "raw": "0xf86b01850ba43b7400825208942b7ac2cd9b501bdc2388e86f23f2d1312c046af387aa9f075c200000801ba0766f930061ca9188c569d5ac324cc65d2a1faba4fdc438457d61b6f8fcde47bea05c1816d348503d46ea54741c0493c2271b2060c17446597e34ea1032005e27e2",
      "networkId": 0,
      "chainId": 0
    },
    {
      "hash": "0xcc7314ef7841c4f2fdb6b0974966d5d8811fd0988d3526629336a3cfcefcc43d",
      "blockHash": "0x17b6b5f26ac960aed1998b2f1460073086f771a9d1868670955eefa017773aef",
      "blockNumber": 68946,
      "transactionIndex": 2,
      "confirmations": null,
      "from": "0x8aFDbEf3f0c20dd49F796e5196C6cE6B5f7291e8",
      "gasPrice": {
        "_hex": "0xba43b7400"
      },
      "gasLimit": {
        "_hex": "0x5208"
      },
      "to": "0x74d7e96ae0E11F6537CD6811EfCEF7511e69C9f1",
      "value": {
        "_hex": "0xaa9f075c200000"
      },
      "nonce": 1,
      "data": "0x",
      "r": "0x40d158850b887194116995a73521bbbc3310186f255e3c33aa0bdeeefc6bf178",
      "s": "0x5aad44db8d6aae315ab434d7f2d282876f3ff588c6aca9b569ab257213494ad7",
      "v": 28,
      "creates": null,
      "raw": "0xf86b01850ba43b74008252089474d7e96ae0e11f6537cd6811efcef7511e69c9f187aa9f075c200000801ca040d158850b887194116995a73521bbbc3310186f255e3c33aa0bdeeefc6bf178a05aad44db8d6aae315ab434d7f2d282876f3ff588c6aca9b569ab257213494ad7",
      "networkId": 0,
      "chainId": 0
    }
  ]
}