{
  "hash": "0x00150dbece16e4ff279411d41fa54546a9374549dc8342625fd52945e03ff2e6",
  "parentHash": "0x9bb308c42074b183e7600a8c7a1edc83cdeaf358916c813a6a203b3fe23b822c",
  "number": 109668,
  "timestamp": 1439960573,
  "nonce": "0x97015996b611bb3c",
  "difficulty": 4442731260502,
  "gasLimit": {
    "_hex": "0x2fefd8"
  },
  "gasUsed": {
    "_hex": "0x5208"
  },
  "miner": "0xf8E0CA3Ed80bd541b94BEdCf259e8CF2141A9523",
  "extraData": "0x476574682f76312e302e312f77696e646f77732f676f312e342e32",
  "transactions": [
    {
      "hash": "0x9674be44d36ad9d537da2ce5fec28c40ffc36caae6b251a08a6c7597d609d717",
      "blockHash": "0x00150dbece16e4ff279411d41fa54546a9374549dc8342625fd52945e03ff2e6",
      "blockNumber": 109668,
      "transactionIndex": 0,
      "confirmations": null,
      "from": "0x1A22137e525478043F6E1394849e6C23932786C9",
      "gasPrice": {
        "_hex": "0xd03c72ef4"
      },
      "gasLimit": {
        "_hex": "0x5208"
      },
      "to": "0x0a41Be86378F36BA0823db204723693c0836a3E9",
      "value": {
        "_hex": "0x4563891f9a307528"
      },
      "nonce": 4,
      "data": "0x",
      "r": "0xbb968c19f24bae142494b04d24167fd7340d22c006626dcec9839eb2e6f2be43",
      "s": "0x68d1d380ac020b22e87912920ddb4c5e764c8bcc13a0f2f0ee37c0a95f156c21",
      "v": 27,
      "creates": null,
      "raw": "0xf86c04850d03c72ef4825208940a41be86378f36ba0823db204723693c0836a3e9884563891f9a307528801ba0bb968c19f24bae142494b04d24167fd7340d22c006626dcec9839eb2e6f2be43a068d1d380ac020b22e87912920ddb4c5e764c8bcc13a0f2f0ee37c0a95f156c21",
      "networkId": 0,
      "chainId": 0
    }
  ]
}