{
  "hash": "0xf514aaac2aec602531303bc889476ffe7948239a5d24d5b5a4d41e483076b022",
  "parentHash": "0x0c43b02375b90e25874609e26bfeb90c5542b453c76442699deed67d24852527",
  "number": 94685,
  "timestamp": 1439712402,
  "nonce": "0x64820fef7bb61ffe",
  "difficulty": 3484855303131,
  "gasLimit": {
    "_hex": "0x2fefd8"
  },
  "gasUsed": {
    "_hex": "0x5208"
  },
  "miner": "0x157c6f2431eB1a95797EE86F7d17b3c0FD47A247",
  "extraData": "0x476574682f76312e302e312f77696e646f77732f676f312e342e32",
  "transactions": [
    {
      "hash": "0x3686f5fd93dac26420665cca630691f94bc6c8b3c9feeae5a6c6b5e8be61a216",
      "blockHash": "0xf514aaac2aec602531303bc889476ffe7948239a5d24d5b5a4d41e483076b022",
      "blockNumber": 94685,
      "transactionIndex": 0,
      "confirmations": null,
      "from": "0x1543667B9bad3e41865C3233E1764d8dda8E1F3D",
      "gasPrice": {
        "_hex": "0xdd2781932"
      },
      "gasLimit": {
        "_hex": "0x5208"
      },
      "to": "0x32Be343B94f860124dC4fEe278FDCBD38C102D88",
      "value": {
        "_hex": "0x3714a59614545c000"
      },
      "nonce": 10,
      "data": "0x",
      "r": "0x3357bf19794fdbe67dd28657fb91863cb7d0ea864627553514a8a251e63b2cfd",
      "s": "0x453f4afb4ca7e8591dab7dec463a6673b41c8537ef7c231da53a49258c452a1d",
      "v": 27,
      "creates": null,
      "raw": "0xf86d0a850dd27819328252089432be343b94f860124dc4fee278fdcbd38c102d888903714a59614545c000801ba03357bf19794fdbe67dd28657fb91863cb7d0ea864627553514a8a251e63b2cfda0453f4afb4ca7e8591dab7dec463a6673b41c8537ef7c231da53a49258c452a1d",
      "networkId": 0,
      "chainId": 0
    }
  ]
}