{
  "hash": "0x709a0f168ddb352a7d9bf6f47bdf45021165dff7b2447f2e8620198b251a9593",
  "parentHash": "0xbff7d2bf6248981749da15b3987d05626534fd2e511d54ed4a8f6c7a4f18bcc8",
  "number": 78324,
  "timestamp": 1439451973,
  "nonce": "0x0c77eb0c79aeb4c7",
  "difficulty": 2284301908245,
  "gasLimit": {
    "_hex": "0x2fefd8"
  },
  "gasUsed": {
    "_hex": "0xa410"
  },
  "miner": "0xa50ec0D39fa913E62f1Bae7074E6F36caA71855b",
  "extraData": "0xd783010001844765746887676f312e342e32856c696e7578",
  "transactions": [
    {
      "hash": "0x77c1c17463998adbc7e658371bacecabeeddc62b413583b6baa5dc8c44e7b161",
      "blockHash": "0x709a0f168ddb352a7d9bf6f47bdf45021165dff7b2447f2e8620198b251a9593",
      "blockNumber": 78324,
      "transactionIndex": 0,
      "confirmations": null,
      "from": "0xDA4E0Ba268486216E0B3Ad5ccEAa1E7EdB1C2751",
      "gasPrice": {
        "_hex": "0xcf2b18a21"
      },
      "gasLimit": {
        "_hex": "0x5208"
      },
      "to": "0x32Be343B94f860124dC4fEe278FDCBD38C102D88",
      "value": {
        "_hex": "0x8ac2f303b733d000"
      },
      "nonce": 4,
      "data": "0x",
      "r": "0x7308a2bfe557b106f21f960201ea49b1902edb2ff42f2b7e331c61fddffcd06d",
      "s": "0x2eafce3c9d0bdc1033a523aa0134b707ce69eb4017284c5f4026607abb2d1392",
      "v": 28,
      "creates": null,
      "raw": "0xf86c04850cf2b18a218252089432be343b94f860124dc4fee278fdcbd38c102d88888ac2f303b733d000801ca07308a2bfe557b106f21f960201ea49b1902edb2ff42f2b7e331c61fddffcd06da02eafce3c9d0bdc1033a523aa0134b707ce69eb4017284c5f4026607abb2d1392",
      "networkId": 0,
      "chainId": 0
    },
    {
      "hash": "0x7a33401facbe41589eee4201c696b891110d2aed8088d93aaf9ee280e647a531",
      "blockHash": "0x709a0f168ddb352a7d9bf6f47bdf45021165dff7b2447f2e8620198b251a9593",
      "blockNumber": 78324,
      "transactionIndex": 1,
      "confirmations": null,
      "from": "0x460A1fBd987e6E83974c9f5749ec2802B6890c9b",
      "gasPrice": {
        "_hex": "0xcf2b18a21"
      },
      "gasLimit": {
        "_hex": "0x5208"
      },
      "to": "0x32Be343B94f860124dC4fEe278FDCBD38C102D88",
      "value": {
        "_hex": "0x453befa1b21d6400"
      },
      "nonce": 1,
      "data": "0x",
      "r": "0x9707924ec8ac45aa0424cd44b56892a4be61548d1a29d5e0082da0fa9ae59d0c",
      "s": "0x67245878d4d76a9626641898cddd1abe917530dc9a9841ab2c4c1ca5cc92c297",
      "v": 28,
      "creates": null,
      "raw": "0xf86c01850cf2b18a218252089432be343b94f860124dc4fee278fdcbd38c102d8888453befa1b21d6400801ca09707924ec8ac45aa0424cd44b56892a4be61548d1a29d5e0082da0fa9ae59d0ca067245878d4d76a9626641898cddd1abe917530dc9a9841ab2c4c1ca5cc92c297",
      "networkId": 0,
      "chainId": 0
    }
  ]
}