{
  "hash": "0xef8d1b027326213d6fb5950dd8fccde0d1b8244419f77d9445ad85b4a0884ca8",
  "parentHash": "0xc4aaf6f82fb3b52fbdf713ede8c839ba07117a17bffd665e05a115140da8d054",
  "number": 96386,
  "timestamp": 1439739522,
  "nonce": "0x9f2cf4d63607d90b",
  "difficulty": 3656709122181,
  "gasLimit": {
    "_hex": "0x2fefd8"
  },
  "gasUsed": {
    "_hex": "0x5208"
  },
  "miner": "0xe6A7a1d47ff21B6321162AEA7C6CB457D5476Bca",
  "extraData": "0x476574682f76312e302e312d38326566323666362f6c696e75782f676f312e34",
  "transactions": [
    {
      "hash": "0x6d3c960db069f347d078295cd773e24aa710fdd97f78c5447e05cacef92d9236",
      "blockHash": "0xef8d1b027326213d6fb5950dd8fccde0d1b8244419f77d9445ad85b4a0884ca8",
      "blockNumber": 96386,
      "transactionIndex": 0,
      "confirmations": null,
      "from": "0x790b8a3cE86E707ED0eD32bF89B3269692a23CC1",
      "gasPrice": {
        "_hex": "0xd98cc7d51"
      },
      "gasLimit": {
        "_hex": "0x15f90"
      },
      "to": "0x4D67f4F0Db45b3B5a3424B39ed8d972F710381D5",
      "value": {
        "_hex": "0x33f478ca2dde60000"
      },
      "nonce": 11,
      "data": "0x",
      "r": "0x927043b6e9034f6d47a02a9253ccc603ebe7179880cdc3327ebf43fb4cf40832",
      "s": "0x00b773975ca69d82655406ecc434dfeb4f86b4fa467bdcc1a98b1cce0cf8141e",
      "v": 28,
      "creates": null,
      "raw": "0xf86d0b850d98cc7d5183015f90944d67f4f0db45b3b5a3424b39ed8d972f710381d589033f478ca2dde60000801ca0927043b6e9034f6d47a02a9253ccc603ebe7179880cdc3327ebf43fb4cf408329fb773975ca69d82655406ecc434dfeb4f86b4fa467bdcc1a98b1cce0cf8141e",
      "networkId": 0,
      "chainId": 0
    }
  ]
}