{
  "hash": "0x057d78e4c51339849ab15fbd65af3850538cabc821076e8b6c94a9a793cf3bcf",
  "parentHash": "0x2a91e0ae7fec84a7fa0f10f7e48e8e8b03ff4f182caf58873a07005ffb197494",
  "number": 52797,
  "timestamp": 1439027469,
  "nonce": "0x69b927a02b3186f2",
  "difficulty": 1567855813057,
  "gasLimit": {
    "_hex": "0x1a0ad7"
  },
  "gasUsed": {
    "_hex": "0x546c"
  },
  "miner": "0x1D889aFF5D57138c9819412d63b5d877567B5936",
  "extraData": "0x476574682f76312e302e312f77696e646f77732f676f312e342e32",
  "transactions": [
    {
      "hash": "0x24d0e0d2278cca9f593f29096fcf402aa81bd4a3f2853ad799a4c7b631564bc0",
      "blockHash": "0x057d78e4c51339849ab15fbd65af3850538cabc821076e8b6c94a9a793cf3bcf",
      "blockNumber": 52797,
      "transactionIndex": 0,
      "confirmations": null,
      "from": "0xAddB26317227f45c87A2Cb90dC4CFd02fb23cAf8",
      "gasPrice": {
        "_hex": "0x110c8f7d8de"
      },
      "gasLimit": {
        "_hex": "0xc350"
      },
      "to": "0x2910543Af39abA0Cd09dBb2D50200b3E800A63D2",
      "value": {
        "_hex": "0x30ca024f987b900000"
      },
      "nonce": 0,
      "data": "0x454e32444238425a52",
      "r": "0x375a43b67b05a84d3eed09ce52e77968746bde1605b81579e35c9bdbdb539b92",
      "s": "0x34cc99392e410f2fbec7031a4808904da9adbf408a6ac0f61d221956fc70bb36",
      "v": 28,
      "creates": null,
      "raw": "0xf87780860110c8f7d8de82c350942910543af39aba0cd09dbb2d50200b3e800a63d28930ca024f987b90000089454e32444238425a521ca0375a43b67b05a84d3eed09ce52e77968746bde1605b81579e35c9bdbdb539b92a034cc99392e410f2fbec7031a4808904da9adbf408a6ac0f61d221956fc70bb36",
      "networkId": 0,
      "chainId": 0
    }
  ]
}