{
  "hash": "0xc40acd8f9dcf59f369c6049b00fd2450e762a0711487f6c6cf9c76e0af5df68a",
  "parentHash": "0x1a9b6bef32509ac32bb5acc5faf0d5394a82ae6ce5f39c39ffd707b96feba2a0",
  "number": 63117,
  "timestamp": 1439199420,
  "nonce": "0x2da520844589f7d7",
  "difficulty": 1804133273211,
  "gasLimit": {
    "_hex": "0x2fefd8"
  },
  "gasUsed": {
    "_hex": "0x17037"
  },
  "miner": "0x0b05F904e70ccC93c9a94452F71414Ed9c609f49",
  "extraData": "0x",
  "transactions": [
    {
      "hash": "0xe7fe36d5080c48ab126b4d5ee544f1ce86a94d0d9f50ef5fcb77b28123f572ae",
      "blockHash": "0xc40acd8f9dcf59f369c6049b00fd2450e762a0711487f6c6cf9c76e0af5df68a",
      "blockNumber": 63117,
      "transactionIndex": 0,
      "confirmations": null,
      "from": "0x2b5016e2457387956562587115aa8759d8695fdf",
      "gasPrice": {
        "_hex": "0x110c8f7d8de"
      },
      "gasLimit": {
        "_hex": "0xc350"
      },
      "to": "0x2910543Af39abA0Cd09dBb2D50200b3E800A63D2",
      "value": {
        "_hex": "0xa968163f0a57b400000"
      },
      "nonce": 0,
      "data": "0x454e43454252373530",
      "r": "0x351bdd045c025c3c4bdcee52981579ecac710a5365abb1fc1b05edfc476e8362",
      "s": "0xefa612a4497383928f6f6308b08c683331632c471ded9f3978c3121a3a5e5be5",
      "v": 28,
      "creates": null,
      "raw": "0xf87880860110c8f7d8de82c350942910543af39aba0cd09dbb2d50200b3e800a63d28a0a968163f0a57b40000089454e434542523735301ca0351bdd045c025c3c4bdcee52981579ecac710a5365abb1fc1b05edfc476e8362a0efa612a4497383928f6f6308b08c683331632c471ded9f3978c3121a3a5e5be5",
      "networkId": 0,
      "chainId": 0
    },
    {
      "hash": "0xa4ea3b017c4815a2f3a0fb35ba48a0d5342b59119c1772908d88eb6b32514057",
      "blockHash": "0xc40acd8f9dcf59f369c6049b00fd2450e762a0711487f6c6cf9c76e0af5df68a",
      "blockNumber": 63117,
      "transactionIndex": 1,
      "confirmations": null,
      "from": "0x87Ef6D8B6a7cBF9b5c8C97f67eE2adc2a73b3F77",
      "gasPrice": {
        "_hex": "0x10b8410e961"
      },
      "gasLimit": {
        "_hex": "0x7a120"
      },
      "to": "0xfBc128067A2FE13C11BBC6cc55f29AA1F27630DA",
      "value": {
        "_hex": "0xde0b6b3a7640000"
      },
      "nonce": 0,
      "data": "0x",
      "r": "0xb0d9a70609a7245320630e3e3b43867f7b6c6294d9e9e6b91b43e17aff6b17c8",
      "s": "0x2833307623809a9a6ec492a7308b063dcd5d099503420c2b4f1f8db72e60f20e",
      "v": 28,
      "creates": null,
      "raw": "0xf86e8086010b8410e9618307a12094fbc128067a2fe13c11bbc6cc55f29aa1f27630da880de0b6b3a7640000801ca0b0d9a70609a7245320630e3e3b43867f7b6c6294d9e9e6b91b43e17aff6b17c8a02833307623809a9a6ec492a7308b063dcd5d099503420c2b4f1f8db72e60f20e",
      "networkId": 0,
      "chainId": 0
    },
    {
      "hash": "0xa88d357e88665a0d86a06445131c66bb0cb60beefffdb5c5eb345a1f1a3d3158",
      "blockHash": "0xc40acd8f9dcf59f369c6049b00fd2450e762a0711487f6c6cf9c76e0af5df68a",
      "blockNumber": 63117,
      "transactionIndex": 2,
      "confirmations": null,
      "from": "0xCb88dAC50e0b4f450f3a5d02c2D65Bc56361313E",
      "gasPrice": {
        "_hex": "0xd4ee974df"
      },
      "gasLimit": {
        "_hex": "0x5208"
      },
      "to": "0x32Be343B94f860124dC4fEe278FDCBD38C102D88",
      "value": {
        "_hex": "0x18288b932079c00"
      },
      "nonce": 0,
      "data": "0x",
      "r": "0xa16a7776d6c39c20c987c4d4634dfc5c6e406998988a092e399b6b5e8405ff60",
      "s": "0x37e1fb11f0ec561485a3f0081ec7472611569a62bf8ee7bfc392ec64f90d71a6",
      "v": 27,
      "creates": null,
      "raw": "0xf86c80850d4ee974df8252089432be343b94f860124dc4fee278fdcbd38c102d8888018288b932079c00801ba0a16a7776d6c39c20c987c4d4634dfc5c6e406998988a092e399b6b5e8405ff60a037e1fb11f0ec561485a3f0081ec7472611569a62bf8ee7bfc392ec64f90d71a6",
      "networkId": 0,
      "chainId": 0
    }
  ]
}