{
  "hash": "0x65119cf3b5b98a57b13fd382c424cc8762b7a0d5c6a42cc0ff4e0204c50446be",
  "parentHash": "0x0dc33933a0698277ee5e4d0090f4d438381dea93d08b55345246ac605edb986e",
  "number": 46476,
  "timestamp": 1438923763,
  "nonce": "0xe2199154fc19693f",
  "difficulty": 1467511262387,
  "gasLimit": {
    "_hex": "0x6364"
  },
  "gasUsed": {
    "_hex": "0x5208"
  },
  "miner": "0x40dDAE161B79aaebeb68187233fe59bd3B1c2db2",
  "extraData": "0x476574682f76312e302e312f77696e646f77732f676f312e342e32",
  "transactions": [
    {
      "hash": "0x8fa86557cdd765163964d71bb0667667b037bac0fcce9a675358716c6c576333",
      "blockHash": "0x65119cf3b5b98a57b13fd382c424cc8762b7a0d5c6a42cc0ff4e0204c50446be",
      "blockNumber": 46476,
      "transactionIndex": 0,
      "confirmations": null,
      "from": "0xe1F5B8dc9336BC9637eA97c3f3b13Cd363F88854",
      "gasPrice": {
        "_hex": "0x746a528800"
      },
      "gasLimit": {
        "_hex": "0x5208"
      },
      "to": "0x32Be343B94f860124dC4fEe278FDCBD38C102D88",
      "value": {
        "_hex": "0xa2a137bb9fd9b80000"
      },
      "nonce": 0,
      "data": "0x",
      "r": "0x97d488bb2e8f37ae3d7196562cc03bec7a6d3fe59bff4e113577b6580fdcd76b",
      "s": "0x4197f2c41a0c71adf54f425ed2df17d58b38c8be3255f9fa5f7bd0898243d8a9",
      "v": 28,
      "creates": null,
      "raw": "0xf86d8085746a5288008252089432be343b94f860124dc4fee278fdcbd38c102d8889a2a137bb9fd9b80000801ca097d488bb2e8f37ae3d7196562cc03bec7a6d3fe59bff4e113577b6580fdcd76ba04197f2c41a0c71adf54f425ed2df17d58b38c8be3255f9fa5f7bd0898243d8a9",
      "networkId": 0,
      "chainId": 0
    }
  ]
}