{
  "hash": "0xe88d472d4e7b9471004bd7aa1c107cddd5b6703f3c424171e95b50abb9db4034",
  "parentHash": "0xc4a86c4fc8d25da76f1299709279e70c76b47c120d316434eb7553608c807b9d",
  "number": 85642,
  "timestamp": 1439566578,
  "nonce": "0x3d95fd61e22716df",
  "difficulty": 2790888445159,
  "gasLimit": {
    "_hex": "0x2fefd8"
  },
  "gasUsed": {
    "_hex": "0x5208"
  },
  "miner": "0x88D74a59454F6cF3B51ef6b9136AFb6b9D405A88",
  "extraData": "0x476574682f76312e302e312d37666266393930632f6c696e75782f676f312e34",
  "transactions": [
    {
      "hash": "0x9d299fc372eb3c4fddcc0e340f149cbf1cc5f51624d7b63fe85ba8b1b890affc",
      "blockHash": "0xe88d472d4e7b9471004bd7aa1c107cddd5b6703f3c424171e95b50abb9db4034",
      "blockNumber": 85642,
      "transactionIndex": 0,
      "confirmations": null,
      "from": "0xa70a9a7040d542C632D8e0bE7c5513A8a5Bbc752",
      "gasPrice": {
        "_hex": "0xd03500ee9"
      },
      "gasLimit": {
        "_hex": "0x5208"
      },
      "to": "0x32Be343B94f860124dC4fEe278FDCBD38C102D88",
      "value": {
        "_hex": "0x455f666f636c8800"
      },
      "nonce": 88,
      "data": "0x",
      "r": "0x2062431311b8ee40ed1a815a3d9319a3d2b662c4fd8da46321d95270e743cd2c",
      "s": "0x7ca965c362908521bafb30bf9a658949ff219fbc9c662a1e6cdbc856d45d3de9",
      "v": 28,
      "creates": null,
      "raw": "0xf86c58850d03500ee98252089432be343b94f860124dc4fee278fdcbd38c102d8888455f666f636c8800801ca02062431311b8ee40ed1a815a3d9319a3d2b662c4fd8da46321d95270e743cd2ca07ca965c362908521bafb30bf9a658949ff219fbc9c662a1e6cdbc856d45d3de9",
      "networkId": 0,
      "chainId": 0
    }
  ]
}