{
  "hash": "0xd6bdda860bf98a6232d782f6a19a23bf5309e55880ec99eba363b019027223ef",
  "parentHash": "0xc9c709957f78124724564d40e63b3cbadfd3f9c9c707477599ef50e1e9c15372",
  "number": 105320,
  "timestamp": 1439885538,
  "nonce": "0x773505f86b156436",
  "difficulty": 4359059863943,
  "gasLimit": {
    "_hex": "0x2fefd8"
  },
  "gasUsed": {
    "_hex": "0x33450"
  },
  "miner": "0x790b8a3cE86E707ED0eD32bF89B3269692a23CC1",
  "extraData": "0xd783010001844765746887676f312e342e32856c696e7578",
  "transactions": [
    {
      "hash": "0x66fcd30d503e5af2d888e7baa14f726bf93e392e6a338c8ef8cbf554cfab9922",
      "blockHash": "0xd6bdda860bf98a6232d782f6a19a23bf5309e55880ec99eba363b019027223ef",
      "blockNumber": 105320,
      "transactionIndex": 0,
      "confirmations": null,
      "from": "0xD2883586F46d3ae001F84C548013D9447051c0C3",
      "gasPrice": {
        "_hex": "0xdbfec3ecb"
      },
      "gasLimit": {
        "_hex": "0x5208"
      },
      "to": "0x32Be343B94f860124dC4fEe278FDCBD38C102D88",
      "value": {
        "_hex": "0x127b69c2c0f58000"
      },
      "nonce": 2,
      "data": "0x",
      "r": "0x5fb72ddf8e048ec55e328dc42c016005c550e9e918b202ad51a4f1a784d721c6",
      "s": "0x12ffe7774fdd53753a3be4110871b2e088527285480b447b8cbae5c32c21a6e2",
      "v": 28,
      "creates": null,
      "raw": "0xf86c02850dbfec3ecb8252089432be343b94f860124dc4fee278fdcbd38c102d8888127b69c2c0f58000801ca05fb72ddf8e048ec55e328dc42c016005c550e9e918b202ad51a4f1a784d721c6a012ffe7774fdd53753a3be4110871b2e088527285480b447b8cbae5c32c21a6e2",
      "networkId": 0,
      "chainId": 0
    },
    {
      "hash": "0xbaa0676745eea6ffd0e49c8df263620485b84a4974ee0add5c7cdd20c2ed2bff",
      "blockHash": "0xd6bdda860bf98a6232d782f6a19a23bf5309e55880ec99eba363b019027223ef",
      "blockNumber": 105320,
      "transactionIndex": 1,
      "confirmations": null,
      "from": "0xe6A7a1d47ff21B6321162AEA7C6CB457D5476Bca",
      "gasPrice": {
        "_hex": "0xd521ae3d2"
      },
      "gasLimit": {
        "_hex": "0x55f0"
      },
      "to": "0x027698B61229ECCa19311e977ADE3C2923D4e414",
      "value": {
        "_hex": "0x42777b2c435d5f30"
      },
      "nonce": 3759,
      "data": "0x",
      "r": "0xc292d06232d13f6ba4a05b13dc08aa91d0f65dae8ffb439959b79fc224967b4f",
      "s": "0x6a608998b7b78def3434c059122d601f5ffd276dfacbd51a4458ea508128baa6",
      "v": 28,
      "creates": null,
      "raw": "0xf86e820eaf850d521ae3d28255f094027698b61229ecca19311e977ade3c2923d4e4148842777b2c435d5f30801ca0c292d06232d13f6ba4a05b13dc08aa91d0f65dae8ffb439959b79fc224967b4fa06a608998b7b78def3434c059122d601f5ffd276dfacbd51a4458ea508128baa6",
      "networkId": 0,
      "chainId": 0
    },
    {
      "hash": "0x614719a99e4e90cbeb7edd6118abfde86ca58bee8635d4e3d07d6513d43536a2",
      "blockHash": "0xd6bdda860bf98a6232d782f6a19a23bf5309e55880ec99eba363b019027223ef",
      "blockNumber": 105320,
      "transactionIndex": 2,
      "confirmations": null,
      "from": "0xe6A7a1d47ff21B6321162AEA7C6CB457D5476Bca",
      "gasPrice": {
        "_hex": "0xd521ae3d2"
      },
      "gasLimit": {
        "_hex": "0x55f0"
      },
      "to": "0xF0224ea727d4924A8dd69a8d2d473Cc4c3590423",
      "value": {
        "_hex": "0x42e3f830cc7a56b8"
      },
      "nonce": 3760,
      "data": "0x",
      "r": "0xe1ff44da942ea97bbec73835a7b904ba9f5670402fe18492246d0a7f14d4a5f4",
      "s": "0x3be88930eaa98b6cce6fafafe02ec05c19b604f23df8ade841844c5cbe724553",
      "v": 28,
      "creates": null,
      "raw": "0xf86e820eb0850d521ae3d28255f094f0224ea727d4924a8dd69a8d2d473cc4c35904238842e3f830cc7a56b8801ca0e1ff44da942ea97bbec73835a7b904ba9f5670402fe18492246d0a7f14d4a5f4a03be88930eaa98b6cce6fafafe02ec05c19b604f23df8ade841844c5cbe724553",
      "networkId": 0,
      "chainId": 0
    },
    {
      "hash": "0x87ff6681289f84d69a1d7c85fdd600d9d7f070759d163d199dbbacc7929f1941",
      "blockHash": "0xd6bdda860bf98a6232d782f6a19a23bf5309e55880ec99eba363b019027223ef",
      "blockNumber": 105320,
      "transactionIndex": 3,
      "confirmations": null,
      "from": "0xe6A7a1d47ff21B6321162AEA7C6CB457D5476Bca",
      "gasPrice": {
        "_hex": "0xd521ae3d2"
      },
      "gasLimit": {
        "_hex": "0x55f0"
      },
      "to": "0x111bC4e928A5Ad3d615b86f248a5297bb7B8EB81",
      "value": {
        "_hex": "0x431edeb2bd3111d0"
      },
      "nonce": 3761,
      "data": "0x",
      "r": "0x7792b59155ff776ba1d58da6a6266da913ac5e97ed148b41477b989418222635",
      "s": "0x3affda4974a950cb428f5ab9ddbdcd6bedda67d3f109c6ae88909314b1cd8fc8",
      "v": 28,
      "creates": null,
      "raw": "0xf86e820eb1850d521ae3d28255f094111bc4e928a5ad3d615b86f248a5297bb7b8eb8188431edeb2bd3111d0801ca07792b59155ff776ba1d58da6a6266da913ac5e97ed148b41477b989418222635a03affda4974a950cb428f5ab9ddbdcd6bedda67d3f109c6ae88909314b1cd8fc8",
      "networkId": 0,
      "chainId": 0
    },
    {
      "hash": "0x50ed267edc974c888c762ca91c65b8ab7a7d671ac84bab1a7c59fb0372ea86d7",
      "blockHash": "0xd6bdda860bf98a6232d782f6a19a23bf5309e55880ec99eba363b019027223ef",
      "blockNumber": 105320,
      "transactionIndex": 4,
      "confirmations": null,
      "from": "0xe6A7a1d47ff21B6321162AEA7C6CB457D5476Bca",
      "gasPrice": {
        "_hex": "0xd2e325685"
      },
      "gasLimit": {
        "_hex": "0x55f0"
      },
      "to": "0x46e97208BC7F618816Cb502A2b516fb4BC41f1D3",
      "value": {
        "_hex": "0x443d7536801a7ce8"
      },
      "nonce": 3762,
      "data": "0x",
      "r": "0xe01884c1effdf3827cb57cf7da2ebc1d72b79b8bfb84f96060c75d0df9b8f638",
      "s": "0x74c6b24a42a2e15ca2b64ced34b67f3a2b9c461372141018352de18fee80e6af",
      "v": 27,
      "creates": null,
      "raw": "0xf86e820eb2850d2e3256858255f09446e97208bc7f618816cb502a2b516fb4bc41f1d388443d7536801a7ce8801ba0e01884c1effdf3827cb57cf7da2ebc1d72b79b8bfb84f96060c75d0df9b8f638a074c6b24a42a2e15ca2b64ced34b67f3a2b9c461372141018352de18fee80e6af",
      "networkId": 0,
      "chainId": 0
    },
    {
      "hash": "0x620325b4f0f0f3180dc942f74bbe4ed5cacb78fa2f03cff4581f779746adc946",
      "blockHash": "0xd6bdda860bf98a6232d782f6a19a23bf5309e55880ec99eba363b019027223ef",
      "blockNumber": 105320,
      "transactionIndex": 5,
      "confirmations": null,
      "from": "0xe6A7a1d47ff21B6321162AEA7C6CB457D5476Bca",
      "gasPrice": {
        "_hex": "0xd2e325685"
      },
      "gasLimit": {
        "_hex": "0x55f0"
      },
      "to": "0x3F6DDbC103F2999640fe4AFc6884708fa691C2b8",
      "value": {
        "_hex": "0x4498fc4811b81568"
      },
      "nonce": 3763,
      "data": "0x",
      "r": "0x6b8933df794550dd6a42fb37135bded2b24d6b212f45d97b319798db52dc546b",
      "s": "0x65d9b4c631c766f854d303bde4e299110c376b4047be5a63a986f35df06bcfd5",
      "v": 27,
      "creates": null,
      "raw": "0xf86e820eb3850d2e3256858255f0943f6ddbc103f2999640fe4afc6884708fa691c2b8884498fc4811b81568801ba06b8933df794550dd6a42fb37135bded2b24d6b212f45d97b319798db52dc546ba065d9b4c631c766f854d303bde4e299110c376b4047be5a63a986f35df06bcfd5",
      "networkId": 0,
      "chainId": 0
    },
    {
      "hash": "0xe3c6d57b33564b936372b809ce049ec590d13582ffb8379d8df887ae8b65a8a5",
      "blockHash": "0xd6bdda860bf98a6232d782f6a19a23bf5309e55880ec99eba363b019027223ef",
      "blockNumber": 105320,
      "transactionIndex": 6,
      "confirmations": null,
      "from": "0xe6A7a1d47ff21B6321162AEA7C6CB457D5476Bca",
      "gasPrice": {
        "_hex": "0xd2e325685"
      },
      "gasLimit": {
        "_hex": "0x55f0"
      },
      "to": "0x3730a07b6d2d7413d0d76B91935F60bB0b1d8E2F",
      "value": {
        "_hex": "0x4548759b2a0531d8"
      },
      "nonce": 3764,
      "data": "0x",
      "r": "0x27ac9bae17dfbf1b22cb5c4b38afba745f9009784b0a7b858fd2e3c65e0e763b",
      "s": "0x559bf511dbf75fdf05799035c652162bdfdc9f968b8cc5cd52cda4daf71017ba",
      "v": 28,
      "creates": null,
      "raw": "0xf86e820eb4850d2e3256858255f0943730a07b6d2d7413d0d76b91935f60bb0b1d8e2f884548759b2a0531d8801ca027ac9bae17dfbf1b22cb5c4b38afba745f9009784b0a7b858fd2e3c65e0e763ba0559bf511dbf75fdf05799035c652162bdfdc9f968b8cc5cd52cda4daf71017ba",
      "networkId": 0,
      "chainId": 0
    },
    {
      "hash": "0xc2568df1a8faf0c6dee3e6c116f114b9827d1bb492b8c92cee3c2a9aa56ab09b",
      "blockHash": "0xd6bdda860bf98a6232d782f6a19a23bf5309e55880ec99eba363b019027223ef",
      "blockNumber": 105320,
      "transactionIndex": 7,
      "confirmations": null,
      "from": "0xe6A7a1d47ff21B6321162AEA7C6CB457D5476Bca",
      "gasPrice": {
        "_hex": "0xd2e325685"
      },
      "gasLimit": {
        "_hex": "0x55f0"
      },
      "to": "0x2bCc16248fEC82100d969224df6b88525e6048B4",
      "value": {
        "_hex": "0x456772ed1e6c6120"
      },
      "nonce": 3765,
      "data": "0x",
      "r": "0x880d5fdcb1ae62cf8084f939be3c7c87d655fc1260ee9ad408117afa3839f0da",
      "s": "0x7d50baae563b8cc356373a721f5189963b2164f5ed18ac5482de74f4f47b9b30",
      "v": 28,
      "creates": null,
      "raw": "0xf86e820eb5850d2e3256858255f0942bcc16248fec82100d969224df6b88525e6048b488456772ed1e6c6120801ca0880d5fdcb1ae62cf8084f939be3c7c87d655fc1260ee9ad408117afa3839f0daa07d50baae563b8cc356373a721f5189963b2164f5ed18ac5482de74f4f47b9b30",
      "networkId": 0,
      "chainId": 0
    },
    {
      "hash": "0x23e8c702c611534412cf95ed0f31f3756687da2cdddada3a90f14e3ebf465934",
      "blockHash": "0xd6bdda860bf98a6232d782f6a19a23bf5309e55880ec99eba363b019027223ef",
      "blockNumber": 105320,
      "transactionIndex": 8,
      "confirmations": null,
      "from": "0xe6A7a1d47ff21B6321162AEA7C6CB457D5476Bca",
      "gasPrice": {
        "_hex": "0xd2e325685"
      },
      "gasLimit": {
        "_hex": "0x55f0"
      },
      "to": "0x9ac4E9D48C027208905CF2A81f304664A5dAeF87",
      "value": {
        "_hex": "0x4571017cfe324ac8"
      },
      "nonce": 3766,
      "data": "0x",
      "r": "0x4edd83e21f865d3056b9ddad4601af27430c4984a65ea68a6b682bb5e7da712c",
      "s": "0x2e512c77a162be96e37821975bb654c9f3cfae8acdde3d7ba070c1a6b78f98f1",
      "v": 28,
      "creates": null,
      "raw": "0xf86e820eb6850d2e3256858255f0949ac4e9d48c027208905cf2a81f304664a5daef87884571017cfe324ac8801ca04edd83e21f865d3056b9ddad4601af27430c4984a65ea68a6b682bb5e7da712ca02e512c77a162be96e37821975bb654c9f3cfae8acdde3d7ba070c1a6b78f98f1",
      "networkId": 0,
      "chainId": 0
    },
    {
      "hash": "0x8a2fb2b9d33f049c65f4e19db332a6def0f7d25195d35f03919d1e1b1eb8b3e6",
      "blockHash": "0xd6bdda860bf98a6232d782f6a19a23bf5309e55880ec99eba363b019027223ef",
      "blockNumber": 105320,
      "transactionIndex": 9,
      "confirmations": null,
      "from": "0xe6A7a1d47ff21B6321162AEA7C6CB457D5476Bca",
      "gasPrice": {
        "_hex": "0xd2e325685"
      },
      "gasLimit": {
        "_hex": "0x55f0"
      },
      "to": "0x2118baa5B9d6423676CF5502Eb6eaeD859228c33",
      "value": {
        "_hex": "0x4575d186aa502018"
      },
      "nonce": 3767,
      "data": "0x",
      "r": "0x0f9303204a6840f236eb89ac4798108f1bb08dc6b9b8ae9a4dcad1ab7946cb65",
      "s": "0x08e5cf35c1c906acb928836dbe472911dd2937a5b1dce15fe1fdab6e31bc2230",
      "v": 27,
      "creates": null,
      "raw": "0xf86e820eb7850d2e3256858255f0942118baa5b9d6423676cf5502eb6eaed859228c33884575d186aa502018801ba00f9303204a6840f236eb89ac4798108f1bb08dc6b9b8ae9a4dcad1ab7946cb65a008e5cf35c1c906acb928836dbe472911dd2937a5b1dce15fe1fdab6e31bc2230",
      "networkId": 0,
      "chainId": 0
    }
  ]
}