{
  "hash": "0x985a1cd2937ce6e9556848406cbe7b5dcb48a9d227af82bf27a331699c31aa52",
  "parentHash": "0x56992a42765a83d5061dce6ca93bb398d25ff114f47b72938d61a1fe6f4db4d7",
  "number": 74290,
  "timestamp": 1439383792,
  "nonce": "0x1ab7830fefa61acb",
  "difficulty": 2204296790246,
  "gasLimit": {
    "_hex": "0x2fefd8"
  },
  "gasUsed": {
    "_hex": "0x5208"
  },
  "miner": "0x458F183347F45a4001807728A89F31E9Da9D4A58",
  "extraData": "0x476574682f76312e302e312d38326566323666362f6c696e75782f676f312e34",
  "transactions": [
    {
      "hash": "0x313279016eba0e9f1c48f7fec9c44c45bb4245891afc8b2a7f3c77adc5919193",
      "blockHash": "0x985a1cd2937ce6e9556848406cbe7b5dcb48a9d227af82bf27a331699c31aa52",
      "blockNumber": 74290,
      "transactionIndex": 0,
      "confirmations": null,
      "from": "0xE12517204a15E890f12755207271102F4800A0c4",
      "gasPrice": {
        "_hex": "0xdac47f63e"
      },
      "gasLimit": {
        "_hex": "0x5208"
      },
      "to": "0x32Be343B94f860124dC4fEe278FDCBD38C102D88",
      "value": {
        "_hex": "0x4e1e7d384b9e38000"
      },
      "nonce": 5,
      "data": "0x",
      "r": "0x0b8b2a5094fac71bc86c073ff18c049618f63d36e1a0dbf41ad9bbaaec7f1792",
      "s": "0x6eef7d27f3a611e0b5a2999c9bf0d65e4ca28d95289edebe64c2427ebad2f88d",
      "v": 28,
      "creates": null,
      "raw": "0xf86d05850dac47f63e8252089432be343b94f860124dc4fee278fdcbd38c102d888904e1e7d384b9e38000801ca00b8b2a5094fac71bc86c073ff18c049618f63d36e1a0dbf41ad9bbaaec7f1792a06eef7d27f3a611e0b5a2999c9bf0d65e4ca28d95289edebe64c2427ebad2f88d",
      "networkId": 0,
      "chainId": 0
    }
  ]
}