{
  "hash": "0x546d24a6f059f6b2e964af990ed44e5ae7a94cf107885b2c8d787ee70eff5412",
  "parentHash": "0x73eaeed8a74d85da67d6750f256105f12348b13bc876c0070774c11baabf6c0c",
  "number": 87892,
  "timestamp": 1439599113,
  "nonce": "0x237d9f992d8569fd",
  "difficulty": 3189553174911,
  "gasLimit": {
    "_hex": "0x2fefd8"
  },
  "gasUsed": {
    "_hex": "0x5208"
  },
  "miner": "0x88D74a59454F6cF3B51ef6b9136AFb6b9D405A88",
  "extraData": "0x476574682f76312e302e312d38326566323666362f6c696e75782f676f312e34",
  "transactions": [
    {
      "hash": "0x06ec821f902763086833655c7d6b12bb3e3c6c86aa56c60dceb94f74b53bab2b",
      "blockHash": "0x546d24a6f059f6b2e964af990ed44e5ae7a94cf107885b2c8d787ee70eff5412",
      "blockNumber": 87892,
      "transactionIndex": 0,
      "confirmations": null,
      "from": "0xA10C59651885FeAaac91F871082a23BBbaBeDfCf",
      "gasPrice": {
        "_hex": "0xfe36141c25"
      },
      "gasLimit": {
        "_hex": "0x5208"
      },
      "to": "0x4c74B6F32c9680aCB5Fe0e72B7Aa95C612540A04",
      "value": {
        "_hex": "0x15af1d78b58c40000"
      },
      "nonce": 30,
      "data": "0x",
      "r": "0xf255c65f613928552e3a6fc173f330b5e58971cf51099079fb652884d735d43f",
      "s": "0x2a6e2d27e337ad81625c37d865bf2905ff6cac1b686124da947ccde4b99e66ce",
      "v": 27,
      "creates": null,
      "raw": "0xf86d1e85fe36141c25825208944c74b6f32c9680acb5fe0e72b7aa95c612540a0489015af1d78b58c40000801ba0f255c65f613928552e3a6fc173f330b5e58971cf51099079fb652884d735d43fa02a6e2d27e337ad81625c37d865bf2905ff6cac1b686124da947ccde4b99e66ce",
      "networkId": 0,
      "chainId": 0
    }
  ]
}