{
  "hash": "0xf9c7ef6990aa3ca8c9e895411187155e688a6477e1e9c1b5edc501ecfa2bbc9a",
  "parentHash": "0xfcf67ef0b9e3c81d4bf33eb059b789d2d5374c7b01b8c303c2b071aa0b4493fa",
  "number": 70393,
  "timestamp": 1439319168,
  "nonce": "0x583436a71bf5a927",
  "difficulty": 2142695261759,
  "gasLimit": {
    "_hex": "0x2fefd8"
  },
  "gasUsed": {
    "_hex": "0x5208"
  },
  "miner": "0x4705E331214F54eE19677a920BeB64e5206Fd610",
  "extraData": "0x",
  "transactions": [
    {
      "hash": "0xa37aade8e2eb6227c942866df80a79ca5a231c2dd5a5980f49be38fc6e0d6b2c",
      "blockHash": "0xf9c7ef6990aa3ca8c9e895411187155e688a6477e1e9c1b5edc501ecfa2bbc9a",
      "blockNumber": 70393,
      "transactionIndex": 0,
      "confirmations": null,
      "from": "0x267069452478cA39b3f5F1A4fFdD4131f50Bc977",
      "gasPrice": {
        "_hex": "0xd67dc13d4"
      },
      "gasLimit": {
        "_hex": "0x5208"
      },
      "to": "0x32Be343B94f860124dC4fEe278FDCBD38C102D88",
      "value": {
        "_hex": "0x471f639ddc1fcc000"
      },
      "nonce": 2,
      "data": "0x",
      "r": "0xb1e3bd1c8bd6ff0059c6db0a2d313f2535cf2b8b1f05c1517b6718accae4f005",
      "s": "0x1b771cbfebaf5acbfae0e4624e7764290ab444962e8aa541b2bc3156ddf88d29",
      "v": 28,
      "creates": null,
      "raw": "0xf86d02850d67dc13d48252089432be343b94f860124dc4fee278fdcbd38c102d88890471f639ddc1fcc000801ca0b1e3bd1c8bd6ff0059c6db0a2d313f2535cf2b8b1f05c1517b6718accae4f005a01b771cbfebaf5acbfae0e4624e7764290ab444962e8aa541b2bc3156ddf88d29",
      "networkId": 0,
      "chainId": 0
    }
  ]
}