{
  "hash": "0x01553becfc1c7dd3f9e836049c74e94c83034a166df84ca8bee92727bc26e0df",
  "parentHash": "0x5b2538f7f4bfc42bbab00f6e069829ec316f66af91480e6a8e2b3140792dfbec",
  "number": 60320,
  "timestamp": 1439153423,
  "nonce": "0x672ff530b9a545d2",
  "difficulty": 1748355164734,
  "gasLimit": {
    "_hex": "0x2fefd8"
  },
  "gasUsed": {
    "_hex": "0x5208"
  },
  "miner": "0x458F183347F45a4001807728A89F31E9Da9D4A58",
  "extraData": "0x",
  "transactions": [
    {
      "hash": "0xc8be8bf32fe82df7dd12981a61b977b2ef258aebe112d5c1ac8bc9f40063fcda",
      "blockHash": "0x01553becfc1c7dd3f9e836049c74e94c83034a166df84ca8bee92727bc26e0df",
      "blockNumber": 60320,
      "transactionIndex": 0,
      "confirmations": null,
      "from": "0x2910543Af39abA0Cd09dBb2D50200b3E800A63D2",
      "gasPrice": {
        "_hex": "0xda8daade3"
      },
      "gasLimit": {
        "_hex": "0x5208"
      },
      "to": "0x601d7A2c25FF6FDFb9eA3E385707EF1Ab0CD5D28",
      "value": {
        "_hex": "0xde0b6b3a7640000"
      },
      "nonce": 26,
      "data": "0x",
      "r": "0x86f314726ea1173efe4147265dded53a6ae60731916cdc54f4b6856a36486ef3",
      "s": "0x1c53dfe884b968fbc463cdb86a40b8f9afb78d9cb13dc9308dfd0d1f187dec7f",
      "v": 27,
      "creates": null,
      "raw": "0xf86c1a850da8daade382520894601d7a2c25ff6fdfb9ea3e385707ef1ab0cd5d28880de0b6b3a7640000801ba086f314726ea1173efe4147265dded53a6ae60731916cdc54f4b6856a36486ef3a01c53dfe884b968fbc463cdb86a40b8f9afb78d9cb13dc9308dfd0d1f187dec7f",
      "networkId": 0,
      "chainId": 0
    }
  ]
}