{
  "hash": "0x810d1695209e9c7fef52a498b3371baa30c67daa6683476673161595d8dd3c07",
  "parentHash": "0x23602449e1701344050e1095ca871946e7c8093b23128bf64462d43219dc4253",
  "number": 83173,
  "timestamp": 1439531423,
  "nonce": "0x27ded1af49581ff3",
  "difficulty": 2410132304589,
  "gasLimit": {
    "_hex": "0x2fefd8"
  },
  "gasUsed": {
    "_hex": "0xa410"
  },
  "miner": "0xe6A7a1d47ff21B6321162AEA7C6CB457D5476Bca",
  "extraData": "0x476574682f76312e302e312d38326566323666362f6c696e75782f676f312e34",
  "transactions": [
    {
      "hash": "0x8e11c57b2a4b295a8227303893eab6e67744e9c66e47dd6b0fd0fc03b75b060a",
      "blockHash": "0x810d1695209e9c7fef52a498b3371baa30c67daa6683476673161595d8dd3c07",
      "blockNumber": 83173,
      "transactionIndex": 0,
      "confirmations": null,
      "from": "0x0C81b19Df1E50dA2c912C0a25173B5614E7D4917",
      "gasPrice": {
        "_hex": "0x9184e72a000"
      },
      "gasLimit": {
        "_hex": "0x61a8"
      },
      "to": "0xaeceaBd7036D546a02CF20Db5639Cf42098d0BD5",
      "value": {
        "_hex": "0x3b9aca00"
      },
      "nonce": 2,
      "data": "0x",
      "r": "0x6cbe009139f86e616fc4a9055931d653266f4925ea3c88bc1b324a7691574fbf",
      "s": "0x2963b5b8de16bbc8c6afda763492fc58c6150d553ae7b44106547dcf91df450c",
      "v": 27,
      "creates": null,
      "raw": "0xf869028609184e72a0008261a894aeceabd7036d546a02cf20db5639cf42098d0bd5843b9aca00801ba06cbe009139f86e616fc4a9055931d653266f4925ea3c88bc1b324a7691574fbfa02963b5b8de16bbc8c6afda763492fc58c6150d553ae7b44106547dcf91df450c",
      "networkId": 0,
      "chainId": 0
    },
    {
      "hash": "0x4315ef24e39be714cb9f4360f66a4d8c96c2f910a4767c4a764ba389c64f0b5b",
      "blockHash": "0x810d1695209e9c7fef52a498b3371baa30c67daa6683476673161595d8dd3c07",
      "blockNumber": 83173,
      "transactionIndex": 1,
      "confirmations": null,
      "from": "0x902867f1117f42F8e2c2e12b94f30D98CB736b51",
      "gasPrice": {
        "_hex": "0xd3ed2fe59"
      },
      "gasLimit": {
        "_hex": "0x15f90"
      },
      "to": "0xFEb9BF4baED684a842e797779FA8B76Fe1d7BbfE",
      "value": {
        "_hex": "0x4563918244f40000"
      },
      "nonce": 0,
      "data": "0x",
      "r": "0x458716ebc696054480370652d5ee1f4246bbdcf45869b3238261d1e7dd233c3a",
      "s": "0x261f22e6cbbba0daa5d54932330ecc01f517e1cac3210c0bea6e0c28d008bb80",
      "v": 27,
      "creates": null,
      "raw": "0xf86d80850d3ed2fe5983015f9094feb9bf4baed684a842e797779fa8b76fe1d7bbfe884563918244f40000801ba0458716ebc696054480370652d5ee1f4246bbdcf45869b3238261d1e7dd233c3aa0261f22e6cbbba0daa5d54932330ecc01f517e1cac3210c0bea6e0c28d008bb80",
      "networkId": 0,
      "chainId": 0
    }
  ]
}