{
  "hash": "0xccac1c0295182dd0c44a0b6dbab2b8e310d3a8b0a4f4dc64708f911cced431ca",
  "parentHash": "0x7ff66f5130d4ca9024ddb4099fd9ce779fd802eaa922ed4ef411cb63e58d6088",
  "number": 54864,
  "timestamp": 1439061340,
  "nonce": "0x62195195658312d3",
  "difficulty": 1610135000918,
  "gasLimit": {
    "_hex": "0x2fefd8"
  },
  "gasUsed": {
    "_hex": "0x5208"
  },
  "miner": "0xE81c9A6Ebe623E5d483110e0eaF2b10c769b1212",
  "extraData": "0x476574682f76312e302e312f6c696e75782f676f312e342e32",
  "transactions": [
    {
      "hash": "0xa296fde8f8053e068a23977502c5c2207ffb31ea64b38589b4d415789907c954",
      "blockHash": "0xccac1c0295182dd0c44a0b6dbab2b8e310d3a8b0a4f4dc64708f911cced431ca",
      "blockNumber": 54864,
      "transactionIndex": 0,
      "confirmations": null,
      "from": "0xCA092A957744f6385B1aee5dC694143E8A06F805",
      "gasPrice": {
        "_hex": "0xcc85bc7b4"
      },
      "gasLimit": {
        "_hex": "0x15f90"
      },
      "to": "0xaD9cAE8C33a736f37a0f839675665B0669745b27",
      "value": {
        "_hex": "0xf333f11c8fa400"
      },
      "nonce": 21,
      "data": "0x",
      "r": "0xd3cc4a662c6e5eb886aa14a2cb88a2ca8de60cff1402f91e8d96b8748340364c",
      "s": "0x2fb55489c1a4da193409bd5a7e54d41b249754d842e2187fa6bd1960bc3c5cec",
      "v": 28,
      "creates": null,
      "raw": "0xf86c15850cc85bc7b483015f9094ad9cae8c33a736f37a0f839675665b0669745b2787f333f11c8fa400801ca0d3cc4a662c6e5eb886aa14a2cb88a2ca8de60cff1402f91e8d96b8748340364ca02fb55489c1a4da193409bd5a7e54d41b249754d842e2187fa6bd1960bc3c5cec",
      "networkId": 0,
      "chainId": 0
    }
  ]
}