{
  "hash": "0x0fbe59c9e770c3904bab5663a014b1827b3a1676067d8a52908249d880720eaf",
  "parentHash": "0x0e3017fe2d719b81350b0adaed9de972795c5734fb793882e9ebbb80312eba4d",
  "number": 46486,
  "timestamp": 1438924016,
  "nonce": "0x27a047ac29e3ca13",
  "difficulty": 1464646080465,
  "gasLimit": {
    "_hex": "0x643c"
  },
  "gasUsed": {
    "_hex": "0x5208"
  },
  "miner": "0xF6e1652a0397E078f434d6DDa181b218CFd42e09",
  "extraData": "0x476574682f76312e302e312f6c696e75782f676f312e342e32",
  "transactions": [
    {
      "hash": "0x0525cb55f61b71d94a539cbe0148287161d56dd8753350193ee95624f815c908",
      "blockHash": "0x0fbe59c9e770c3904bab5663a014b1827b3a1676067d8a52908249d880720eaf",
      "blockNumber": 46486,
      "transactionIndex": 0,
      "confirmations": null,
      "from": "0xa89AC93b23370472DaAc337E9afdF642543F3E57",
      "gasPrice": {
        "_hex": "0x746a528800"
      },
      "gasLimit": {
        "_hex": "0x5208"
      },
      "to": "0xB5046cb3dC1DEDbd364514a2848E44C1dE4ED147",
      "value": {
        "_hex": "0x3635c9adc5dea00000"
      },
      "nonce": 6,
      "data": "0x",
      "r": "0xf739fb417f6aab06dee95b56fa97d672cce4a1b823c4cfc056a6796e4ab3430a",
      "s": "0x48fb8ea5677903a6bcd2d2fd4598a3253af16059b88da49cead21088a51e5285",
      "v": 28,
      "creates": null,
      "raw": "0xf86d0685746a52880082520894b5046cb3dc1dedbd364514a2848e44c1de4ed147893635c9adc5dea00000801ca0f739fb417f6aab06dee95b56fa97d672cce4a1b823c4cfc056a6796e4ab3430aa048fb8ea5677903a6bcd2d2fd4598a3253af16059b88da49cead21088a51e5285",
      "networkId": 0,
      "chainId": 0
    }
  ]
}