{
  "hash": "0xce8b6029146e6127d941e07ceaa2cf8fe736c0ac8c37fc179be8670af33eb01a",
  "parentHash": "0xd34dcd9b83ea5431052f97f8e75718154c53132ba5442b460a30f5eea45fa579",
  "number": 84698,
  "timestamp": 1439553327,
  "nonce": "0xbca9d3edcf8a970e",
  "difficulty": 2611869536944,
  "gasLimit": {
    "_hex": "0x2fefd8"
  },
  "gasUsed": {
    "_hex": "0x5208"
  },
  "miner": "0x6541237dAaFf6688A79f9F2F370Ca0E7Ee20BD33",
  "extraData": "0x476574682f76312e302e312f77696e646f77732f676f312e342e32",
  "transactions": [
    {
      "hash": "0x128f702d6fff05ea45f955d82733e965d4d21f2c1243ea9775c13ba74f4358f3",
      "blockHash": "0xce8b6029146e6127d941e07ceaa2cf8fe736c0ac8c37fc179be8670af33eb01a",
      "blockNumber": 84698,
      "transactionIndex": 0,
      "confirmations": null,
      "from": "0x2910543Af39abA0Cd09dBb2D50200b3E800A63D2",
      "gasPrice": {
        "_hex": "0xdae768934"
      },
      "gasLimit": {
        "_hex": "0x5208"
      },
      "to": "0xdb49193CE6f62833b2080DC8759acB57d519967F",
      "value": {
        "_hex": "0xad77cf8e18e3f8000"
      },
      "nonce": 569,
      "data": "0x",
      "r": "0x459d02b6c106de074d067f9917275a278e71a40de558730ad35322c6f2b7514e",
      "s": "0x29cd58cad9e84e36bd669a3b68aa6fc515ea20722425908fb17ab25238f42e2b",
      "v": 28,
      "creates": null,
      "raw": "0xf86f820239850dae76893482520894db49193ce6f62833b2080dc8759acb57d519967f890ad77cf8e18e3f8000801ca0459d02b6c106de074d067f9917275a278e71a40de558730ad35322c6f2b7514ea029cd58cad9e84e36bd669a3b68aa6fc515ea20722425908fb17ab25238f42e2b",
      "networkId": 0,
      "chainId": 0
    }
  ]
}