{
  "hash": "0xed615595b6f8bf8f699f434345299dbddf58f7278c6ac3827d64cdd60da42376",
  "parentHash": "0xb80b580cdb185fbc129a1ab736e2a257ac1fcfe9feae709e196cdd3b860b5dec",
  "number": 69153,
  "timestamp": 1439299047,
  "nonce": "0x98e61092ea5f9cbd",
  "difficulty": 2058902880293,
  "gasLimit": {
    "_hex": "0x2fefd5"
  },
  "gasUsed": {
    "_hex": "0x5208"
  },
  "miner": "0x580992B51e3925e23280EfB93d3047C82f17E038",
  "extraData": "0x476574682f76312e302e312f6c696e75782f676f312e342e32",
  "transactions": [
    {
      "hash": "0xb302099db5f95275221052298bf5c9d8b751a974b99683b10901018759d0a4c6",
      "blockHash": "0xed615595b6f8bf8f699f434345299dbddf58f7278c6ac3827d64cdd60da42376",
      "blockNumber": 69153,
      "transactionIndex": 0,
      "confirmations": null,
      "from": "0x52Dc504a422f0E2A9e7632A34a50f1a82F8224c7",
      "gasPrice": {
        "_hex": "0xcf66b7c5e"
      },
      "gasLimit": {
        "_hex": "0x15f90"
      },
      "to": "0x097738363B1662599ad0777E19461601F5EC8dF9",
      "value": {
        "_hex": "0xde0b6b3a7640000"
      },
      "nonce": 1,
      "data": "0x",
      "r": "0xbcd80e59fc5806e3dd6bb75553502bc63ba969f23694868a7d9aea91e164e609",
      "s": "0x24ff630ae5b4063507eed17201813727b93f29493987c02b1ea9694a1b744d75",
      "v": 28,
      "creates": null,
      "raw": "0xf86d01850cf66b7c5e83015f9094097738363b1662599ad0777e19461601f5ec8df9880de0b6b3a7640000801ca0bcd80e59fc5806e3dd6bb75553502bc63ba969f23694868a7d9aea91e164e609a024ff630ae5b4063507eed17201813727b93f29493987c02b1ea9694a1b744d75",
      "networkId": 0,
      "chainId": 0
    }
  ]
}