{
  "hash": "0x5a239895d61ef07c22f3bf28aa5a45404b2ceeb748c3fda5f9b8b267be40117e",
  "parentHash": "0xba6ddd1a24557452d8a637249017d4fbcdfbea3a5ad2a625b023683371cf6d80",
  "number": 88775,
  "timestamp": 1439613206,
  "nonce": "0x95a31f913e10d89e",
  "difficulty": 3250531576174,
  "gasLimit": {
    "_hex": "0x2fefd8"
  },
  "gasUsed": {
    "_hex": "0x546c"
  },
  "miner": "0xe6A7a1d47ff21B6321162AEA7C6CB457D5476Bca",
  "extraData": "0x476574682f76312e302e312d38326566323666362f6c696e75782f676f312e34",
  "transactions": [
    {
      "hash": "0xb5eb82ad31ffeffb96e2743c014b08aeeb3078c651ef72bf0c098156ed14c36e",
      "blockHash": "0x5a239895d61ef07c22f3bf28aa5a45404b2ceeb748c3fda5f9b8b267be40117e",
      "blockNumber": 88775,
      "transactionIndex": 0,
      "confirmations": null,
      "from": "0x34E2849Bea583AB0CC37975190f322b395055582",
      "gasPrice": {
        "_hex": "0x110c8f7d8de"
      },
      "gasLimit": {
        "_hex": "0xc350"
      },
      "to": "0x2910543Af39abA0Cd09dBb2D50200b3E800A63D2",
      "value": {
        "_hex": "0x3ba1910bf341b00000"
      },
      "nonce": 0,
      "data": "0x454e434a5033463438",
      "r": "0xfefdcdc9bea7866b9032e01a8f1781a97e29e9ec50ffc22bb8182b4274346a19",
      "s": "0x30745a89ca57eee443b6e48066e654c2da9599e23b9fa285cdea7790be69ab09",
      "v": 28,
      "creates": null,
      "raw": "0xf87780860110c8f7d8de82c350942910543af39aba0cd09dbb2d50200b3e800a63d2893ba1910bf341b0000089454e434a50334634381ca0fefdcdc9bea7866b9032e01a8f1781a97e29e9ec50ffc22bb8182b4274346a19a030745a89ca57eee443b6e48066e654c2da9599e23b9fa285cdea7790be69ab09",
      "networkId": 0,
      "chainId": 0
    }
  ]
}