{
  "hash": "0xccb3093f3f4159f2680b0662d6e4d884f997faeb74cb2eb6290b944c35b20126",
  "parentHash": "0x1c4240429f61e5ee4f37aaac89b486f8ef970d93154db899863ae2c9905db904",
  "number": 88444,
  "timestamp": 1439608030,
  "nonce": "0x332095a3bc9db4ea",
  "difficulty": 3230091116877,
  "gasLimit": {
    "_hex": "0x2fefd8"
  },
  "gasUsed": {
    "_hex": "0x5208"
  },
  "miner": "0x019D3FA6E3cdA649b26F74395A846575c7bEA14C",
  "extraData": "0x",
  "transactions": [
    {
      "hash": "0x5e55c52aaa1605b62275aed647e89283640cc6401eef7c3b2d688e309d03d24e",
      "blockHash": "0xccb3093f3f4159f2680b0662d6e4d884f997faeb74cb2eb6290b944c35b20126",
      "blockNumber": 88444,
      "transactionIndex": 0,
      "confirmations": null,
      "from": "0x2910543Af39abA0Cd09dBb2D50200b3E800A63D2",
      "gasPrice": {
        "_hex": "0xdad958f05"
      },
      "gasLimit": {
        "_hex": "0x5208"
      },
      "to": "0xD4732AFd58eE1beB46C286BA611b8355aDBfE23c",
      "value": {
        "_hex": "0x47416a89286753000"
      },
      "nonce": 729,
      "data": "0x",
      "r": "0x3f2d2aa8f09e84e39d3ba074049f5af9c6d150c8de3f7797c7728c1111a77159",
      "s": "0x5f24f67b7193b7939386a03308d77f74a6a6c0870752c2e24cc375f6313ebe42",
      "v": 27,
      "creates": null,
      "raw": "0xf86f8202d9850dad958f0582520894d4732afd58ee1beb46c286ba611b8355adbfe23c89047416a89286753000801ba03f2d2aa8f09e84e39d3ba074049f5af9c6d150c8de3f7797c7728c1111a77159a05f24f67b7193b7939386a03308d77f74a6a6c0870752c2e24cc375f6313ebe42",
      "networkId": 0,
      "chainId": 0
    }
  ]
}