{
  "hash": "0xec90550312ff63b8db994140179d4b4d42cca5f2866c69c8111fdba2014fe4af",
  "parentHash": "0xa641a3a6d6495d8f22b55d0ff4161123ac09ab2e6dea317d27e98dab6fada810",
  "number": 114713,
  "timestamp": 1440044989,
  "nonce": "0x840ace81fdbd748e",
  "difficulty": 4477069518460,
  "gasLimit": {
    "_hex": "0x2fefd8"
  },
  "gasUsed": {
    "_hex": "0xafa7"
  },
  "miner": "0xf927a40C8B7F6E07c5af7FA2155B4864a4112B13",
  "extraData": "0x",
  "transactions": [
    {
      "hash": "0x420259714c8d6394fc0563bb4adc36588ab7d320dd150a1fad8f85df6c38ee10",
      "blockHash": "0xec90550312ff63b8db994140179d4b4d42cca5f2866c69c8111fdba2014fe4af",
      "blockNumber": 114713,
      "transactionIndex": 0,
      "confirmations": null,
      "from": "0x02020D22dCF88f5eDd66B382D7da019F161fB7e3",
      "gasPrice": {
        "_hex": "0xd8bb7c3f8"
      },
      "gasLimit": {
        "_hex": "0x15f90"
      },
      "to": "0xCAc7000C7dBaa2E33Af15325AF5D435E011C7BdD",
      "value": {
        "_hex": "0xde0b6b3a7640000"
      },
      "nonce": 33,
      "data": "0xb214faa5384e53354b355737410000000000000000000000000000000000000000000000",
      "r": "0x6a679e933b6ddbfed0fdae9956e84357b1e6824ce676015b86e1e53cf504a722",
      "s": "0x5b62f379fac8f75e149c236fa666ec68a152356887fd1f8a8cfea74bb4a1abd1",
      "v": 28,
      "creates": null,
      "raw": "0xf89121850d8bb7c3f883015f9094cac7000c7dbaa2e33af15325af5d435e011c7bdd880de0b6b3a7640000a4b214faa5384e53354b3557374100000000000000000000000000000000000000000000001ca06a679e933b6ddbfed0fdae9956e84357b1e6824ce676015b86e1e53cf504a722a05b62f379fac8f75e149c236fa666ec68a152356887fd1f8a8cfea74bb4a1abd1",
      "networkId": 0,
      "chainId": 0
    },
    {
      "hash": "0x12ca64485c6f4ccf8766730556d4e9d72112380222d19d75a2dc3bdcebf45bd1",
      "blockHash": "0xec90550312ff63b8db994140179d4b4d42cca5f2866c69c8111fdba2014fe4af",
      "blockNumber": 114713,
      "transactionIndex": 1,
      "confirmations": null,
      "from": "0x02020D22dCF88f5eDd66B382D7da019F161fB7e3",
      "gasPrice": {
        "_hex": "0xd8bb7c3f8"
      },
      "gasLimit": {
        "_hex": "0x15f90"
      },
      "to": "0x4FCD326ae0739D0DA0fC71020adb6aBf9abf3BdA",
      "value": {
        "_hex": "0xde0b6b3a7640000"
      },
      "nonce": 34,
      "data": "0x",
      "r": "0xdcdc1c5f6e77815818b84aaae87f44a09dbb68377ffbf29fa4fc692c05efcc1f",
      "s": "0x7d64c73849e0453ff48be01566033df5270e1d5fd6160b60b74811ae0acf7952",
      "v": 27,
      "creates": null,
      "raw": "0xf86d22850d8bb7c3f883015f90944fcd326ae0739d0da0fc71020adb6abf9abf3bda880de0b6b3a7640000801ba0dcdc1c5f6e77815818b84aaae87f44a09dbb68377ffbf29fa4fc692c05efcc1fa07d64c73849e0453ff48be01566033df5270e1d5fd6160b60b74811ae0acf7952",
      "networkId": 0,
      "chainId": 0
    }
  ]
}