{
  "hash": "0x317970d2d06b1ba79d503b27956ba5b0c4c7660e8d3a129b21a9424d0ca8fa16",
  "parentHash": "0xc4ecdfe9b9deaee047fca781a32a2cab769a4d0254a607d3fd9511548f5e23aa",
  "number": 114821,
  "timestamp": 1440046963,
  "nonce": "0x9acaade93404c91a",
  "difficulty": 4459557661756,
  "gasLimit": {
    "_hex": "0x2fefd8"
  },
  "gasUsed": {
    "_hex": "0x5208"
  },
  "miner": "0xe6A7a1d47ff21B6321162AEA7C6CB457D5476Bca",
  "extraData": "0x476574682f76312e302e312d38326566323666362f6c696e75782f676f312e34",
  "transactions": [
    {
      "hash": "0xc3bc9ab72b4b9cd2381c1e6f43df3ef3c3962dce57c5362ad7ab78eb94850e48",
      "blockHash": "0x317970d2d06b1ba79d503b27956ba5b0c4c7660e8d3a129b21a9424d0ca8fa16",
      "blockNumber": 114821,
      "transactionIndex": 0,
      "confirmations": null,
      "from": "0x2910543Af39abA0Cd09dBb2D50200b3E800A63D2",
      "gasPrice": {
        "_hex": "0xdd188d6f4"
      },
      "gasLimit": {
        "_hex": "0x5208"
      },
      "to": "0xd2922F94cf946a2DE0c0F7e3d3560D2DCb1C2931",
      "value": {
        "_hex": "0x14bf4e9443358000"
      },
      "nonce": 1118,
      "data": "0x",
      "r": "0xfee2690e5b4917177aaa86975242de4129e77df7c7b763b92776610ccab01c8c",
      "s": "0x6f93392491ddf3d5e06274aaa19051b65c8766839c991a8410234c4d242a8f33",
      "v": 27,
      "creates": null,
      "raw": "0xf86e82045e850dd188d6f482520894d2922f94cf946a2de0c0f7e3d3560d2dcb1c29318814bf4e9443358000801ba0fee2690e5b4917177aaa86975242de4129e77df7c7b763b92776610ccab01c8ca06f93392491ddf3d5e06274aaa19051b65c8766839c991a8410234c4d242a8f33",
      "networkId": 0,
      "chainId": 0
    }
  ]
}