{
  "hash": "0x8ea417eb82abc98c06df535d427a184cff4290e877e58c152e162e2e7359ec12",
  "parentHash": "0xc1a0df62c39d6cbfc2758c4fa147eee55e0775b62319915a2040388d000b39b1",
  "number": 113030,
  "timestamp": 1440016885,
  "nonce": "0x70fb5ef23b4497e7",
  "difficulty": 4475781865532,
  "gasLimit": {
    "_hex": "0x2fefd8"
  },
  "gasUsed": {
    "_hex": "0x5208"
  },
  "miner": "0xad5C1768e5974C231b2148169da064e61910f31a",
  "extraData": "0x",
  "transactions": [
    {
      "hash": "0x2e2c235012616cc781a78eba04bd04ab075310f7d4e0e02a4210198d626f1151",
      "blockHash": "0x8ea417eb82abc98c06df535d427a184cff4290e877e58c152e162e2e7359ec12",
      "blockNumber": 113030,
      "transactionIndex": 0,
      "confirmations": null,
      "from": "0x3C869c09696523cED824a070414605Bb76231fF2",
      "gasPrice": {
        "_hex": "0xd7a01c161"
      },
      "gasLimit": {
        "_hex": "0x15f90"
      },
      "to": "0xcC26443fa886eca41C2c5aE022228246e376d352",
      "value": {
        "_hex": "0x1b0d04202f47ec0000"
      },
      "nonce": 1,
      "data": "0x",
      "r": "0x7e39c86c9ba9ec136ef03c82c2c3e324b9d14fdead84fb879ea0803bc0b47a75",
      "s": "0x1dfc4d452f44fe566e057a4e3f75ab2710b794dd1a5db13c86cfcf370f539abd",
      "v": 28,
      "creates": null,
      "raw": "0xf86e01850d7a01c16183015f9094cc26443fa886eca41c2c5ae022228246e376d352891b0d04202f47ec0000801ca07e39c86c9ba9ec136ef03c82c2c3e324b9d14fdead84fb879ea0803bc0b47a75a01dfc4d452f44fe566e057a4e3f75ab2710b794dd1a5db13c86cfcf370f539abd",
      "networkId": 0,
      "chainId": 0
    }
  ]
}