{
  "hash": "0x53b1749f8ffbc362c7dd82a61acb0f69e4393b188274216f42766179b5f4c090",
  "parentHash": "0x90cc2f18b32e3512c2d12ddcab878e4362a65dfd561c563998db534c50cc0e90",
  "number": 65261,
  "timestamp": 1439233966,
  "nonce": "0xf216b38b97f60466",
  "difficulty": 1940735265178,
  "gasLimit": {
    "_hex": "0x2fefd8"
  },
  "gasUsed": {
    "_hex": "0xa410"
  },
  "miner": "0xf8E0CA3Ed80bd541b94BEdCf259e8CF2141A9523",
  "extraData": "0x476574682f76312e302e312f77696e646f77732f676f312e342e32",
  "transactions": [
    {
      "hash": "0x1965138bfeebef214518d199c1fc09ce25aa7f5bc5dc7692420f35c8d4b5dc4d",
      "blockHash": "0x53b1749f8ffbc362c7dd82a61acb0f69e4393b188274216f42766179b5f4c090",
      "blockNumber": 65261,
      "transactionIndex": 0,
      "confirmations": null,
      "from": "0x84Add079ba323bC47e5179E208D6dfE6FA054e76",
      "gasPrice": {
        "_hex": "0xba43b7400"
      },
      "gasLimit": {
        "_hex": "0x5208"
      },
      "to": "0xC721D35B52b0c443F330771c90E78672191E4025",
      "value": {
        "_hex": "0x7b756b1a6222000"
      },
      "nonce": 1,
      "data": "0x",
      "r": "0x45095f16a418e75e3e1f1cf018a6247c533194767c97eb5ac81205313612f8d8",
      "s": "0x6148a67fdc59150fedae01f8b30d76014b26966878601c7fd1008e78f3af8033",
      "v": 27,
      "creates": null,
      "raw": "0xf86c01850ba43b740082520894c721d35b52b0c443f330771c90e78672191e40258807b756b1a6222000801ba045095f16a418e75e3e1f1cf018a6247c533194767c97eb5ac81205313612f8d8a06148a67fdc59150fedae01f8b30d76014b26966878601c7fd1008e78f3af8033",
      "networkId": 0,
      "chainId": 0
    },
    {
      "hash": "0x7feca2fee4c4a638bdabf1044d2b132798660517b7584d205e2bc7187823baaf",
      "blockHash": "0x53b1749f8ffbc362c7dd82a61acb0f69e4393b188274216f42766179b5f4c090",
      "blockNumber": 65261,
      "transactionIndex": 1,
      "confirmations": null,
      "from": "0x0250B7Eda2902FB4102b9a2B8Af659A15Fd6d0EE",
      "gasPrice": {
        "_hex": "0xba43b7400"
      },
      "gasLimit": {
        "_hex": "0x5208"
      },
      "to": "0xF073e771325d740CA7623A25884507eD94e9eB16",
      "value": {
        "_hex": "0x743a6d1664ff000"
      },
      "nonce": 1,
      "data": "0x",
      "r": "0x34b69de50fe825acbaa8c9e01581bd08fb6cf1ca8aa551ff7d1600cd15cae104",
      "s": "0x722503bfaf529e7e85fef1f013e53112087721a259c894a69dfeec390b9f76d6",
      "v": 27,
      "creates": null,
      "raw": "0xf86c01850ba43b740082520894f073e771325d740ca7623a25884507ed94e9eb16880743a6d1664ff000801ba034b69de50fe825acbaa8c9e01581bd08fb6cf1ca8aa551ff7d1600cd15cae104a0722503bfaf529e7e85fef1f013e53112087721a259c894a69dfeec390b9f76d6",
      "networkId": 0,
      "chainId": 0
    }
  ]
}