{
  "hash": "0x19edae4961a78bcc507d0c0dbb89e375eec4fd51f865f2fb39f079c3fcd40eef",
  "parentHash": "0x13ba61bd45e82ec3f961a957f8f1be7c0bee58a28177ecebb28c0771493203e0",
  "number": 54923,
  "timestamp": 1439062540,
  "nonce": "0xb56f69ea8fc14256",
  "difficulty": 1612483984428,
  "gasLimit": {
    "_hex": "0x2fefd8"
  },
  "gasUsed": {
    "_hex": "0x5208"
  },
  "miner": "0x5F8F73E26CdF436f19Cb24C82F90A15AFe55b592",
  "extraData": "0x476574682f76312e302e312f77696e646f77732f676f312e342e32",
  "transactions": [
    {
      "hash": "0x8e5b83564cd824c92ec98cdb346913dab0a92551eb4a8dd90b0553d63538f29a",
      "blockHash": "0x19edae4961a78bcc507d0c0dbb89e375eec4fd51f865f2fb39f079c3fcd40eef",
      "blockNumber": 54923,
      "transactionIndex": 0,
      "confirmations": null,
      "from": "0xCA092A957744f6385B1aee5dC694143E8A06F805",
      "gasPrice": {
        "_hex": "0xcf35d953f"
      },
      "gasLimit": {
        "_hex": "0x15f90"
      },
      "to": "0x862A21351A791698636b05CE75f667d35c1B53bE",
      "value": {
        "_hex": "0xed5057a70624c00"
      },
      "nonce": 23,
      "data": "0x",
      "r": "0x576eec06bf2e3c8823575c4b03ecb57d2adbbe549ea68b231bb36f39595abb37",
      "s": "0x5c759fbd06966b481817795e3053461314cb772fc7ffaff149cda4c6bcc0228e",
      "v": 28,
      "creates": null,
      "raw": "0xf86d17850cf35d953f83015f9094862a21351a791698636b05ce75f667d35c1b53be880ed5057a70624c00801ca0576eec06bf2e3c8823575c4b03ecb57d2adbbe549ea68b231bb36f39595abb37a05c759fbd06966b481817795e3053461314cb772fc7ffaff149cda4c6bcc0228e",
      "networkId": 0,
      "chainId": 0
    }
  ]
}