{
  "hash": "0xa6e6653d3e0c8197adfb072afe87ef7856cc976ba10b9f4509a33dc5d0b96490",
  "parentHash": "0xe2960508807b7d08d2ba82e395a52a3bb4d8e158a1beb68a7a6cddaff95d8cdc",
  "number": 71826,
  "timestamp": 1439342603,
  "nonce": "0xcf730d7ea87f8e4d",
  "difficulty": 2166524232838,
  "gasLimit": {
    "_hex": "0x2fefd8"
  },
  "gasUsed": {
    "_hex": "0x93b2"
  },
  "miner": "0x7E6930B63D03e88F5928C5cd6ee3FCee4D714F7F",
  "extraData": "0x",
  "transactions": [
    {
      "hash": "0x32f85e130b0a877c653aae3fd059787ac38e955ef3231cf22b809c94dc74364d",
      "blockHash": "0xa6e6653d3e0c8197adfb072afe87ef7856cc976ba10b9f4509a33dc5d0b96490",
      "blockNumber": 71826,
      "transactionIndex": 0,
      "confirmations": null,
      "from": "0x17580B766f7453525ca4C6A88b01b50570EA088C",
      "gasPrice": {
        "_hex": "0xd5742a1ed"
      },
      "gasLimit": {
        "_hex": "0x61a80"
      },
      "to": "0x5Fe5B7546D1628f7348B023A0393de1FC825A4fD",
      "value": {
        "_hex": "0x29a2241af62c0000"
      },
      "nonce": 262,
      "data": "0xb595b8b50000000000000000000000000000000000000000000000000000000000000000",
      "r": "0xd76f734bbf213591837c1f3ef3fc1d8eacd6b38f766ecffebd02a932d8c655f3",
      "s": "0x08d978e83171093b64852ae98c87ed6940d70abdd9dc0f5a77118a172cf9d2c0",
      "v": 27,
      "creates": null,
      "raw": "0xf893820106850d5742a1ed83061a80945fe5b7546d1628f7348b023a0393de1fc825a4fd8829a2241af62c0000a4b595b8b500000000000000000000000000000000000000000000000000000000000000001ba0d76f734bbf213591837c1f3ef3fc1d8eacd6b38f766ecffebd02a932d8c655f3a008d978e83171093b64852ae98c87ed6940d70abdd9dc0f5a77118a172cf9d2c0",
      "networkId": 0,
      "chainId": 0
    }
  ]
}