{
  "hash": "0x7972ecf43525a2817587bae4e0866ad4e6455e9aa33f1123069653679d0701a2",
  "parentHash": "0xb689c3435ea2d3c203b8d08c3997356706eb3cfc1029b07fc5f26485b76baec7",
  "number": 54104,
  "timestamp": 1439048795,
  "nonce": "0x689c6124ee76f4a0",
  "difficulty": 1597749578011,
  "gasLimit": {
    "_hex": "0x2fefd8"
  },
  "gasUsed": {
    "_hex": "0x546c"
  },
  "miner": "0xf927a40C8B7F6E07c5af7FA2155B4864a4112B13",
  "extraData": "0x476574682f76312e302e312f6c696e75782f676f312e342e32",
  "transactions": [
    {
      "hash": "0x178d68f747814691e7ca98bd03bb5e4a7441fc8fbee9ee48d2acfe3fe63f03dc",
      "blockHash": "0x7972ecf43525a2817587bae4e0866ad4e6455e9aa33f1123069653679d0701a2",
      "blockNumber": 54104,
      "transactionIndex": 0,
      "confirmations": null,
      "from": "0x5778FFDC9B94c5a59e224eb965b6dE90f222D170",
      "gasPrice": {
        "_hex": "0x110c8f7d8de"
      },
      "gasLimit": {
        "_hex": "0xc350"
      },
      "to": "0x2910543Af39abA0Cd09dBb2D50200b3E800A63D2",
      "value": {
        "_hex": "0x3311fc80a570000"
      },
      "nonce": 1,
      "data": "0x454e464b45584b4652",
      "r": "0xd81d7011c37b954b20be3f5b7541318d016ad0bf3dd3de7f4f9d9a74c0b7508d",
      "s": "0x5c76d0012b8f4f01f7d1227b6bc5128ba1db112d8b02bca39d8d404e0188cb97",
      "v": 28,
      "creates": null,
      "raw": "0xf87601860110c8f7d8de82c350942910543af39aba0cd09dbb2d50200b3e800a63d28803311fc80a57000089454e464b45584b46521ca0d81d7011c37b954b20be3f5b7541318d016ad0bf3dd3de7f4f9d9a74c0b7508da05c76d0012b8f4f01f7d1227b6bc5128ba1db112d8b02bca39d8d404e0188cb97",
      "networkId": 0,
      "chainId": 0
    }
  ]
}