{
  "hash": "0xc78650ee2835a862f6de754fb7663ba96872081dc0d46d968b7ac2550587a205",
  "parentHash": "0xa5f61c653436776f84dead85c426858d1df73fbc5c09b9e3f1f471c2a23b3043",
  "number": 52873,
  "timestamp": 1439028710,
  "nonce": "0x70966bd9763d94de",
  "difficulty": 1570906791746,
  "gasLimit": {
    "_hex": "0x1b222e"
  },
  "gasUsed": {
    "_hex": "0x546c"
  },
  "miner": "0x72e3Ea8234b449531A581F05f1c1E07cceb559d2",
  "extraData": "0x476574682f76312e302e312f6c696e75782f676f312e342e32",
  "transactions": [
    {
      "hash": "0x7d07ecc1df6df9298e877be76b0feb17b901469ddb9c9f55617544b9632e2abb",
      "blockHash": "0xc78650ee2835a862f6de754fb7663ba96872081dc0d46d968b7ac2550587a205",
      "blockNumber": 52873,
      "transactionIndex": 0,
      "confirmations": null,
      "from": "0x333Ad1596401e05Aea2d36Ca47318eF4Cd2cB3DF",
      "gasPrice": {
        "_hex": "0xd4dfa5aef"
      },
      "gasLimit": {
        "_hex": "0x15f90"
      },
      "to": "0x2910543Af39abA0Cd09dBb2D50200b3E800A63D2",
      "value": {
        "_hex": "0x1a3322855dea4a0000"
      },
      "nonce": 1,
      "data": "0x454e4b365733314547",
      "r": "0x060198ab3e39c7150ebf4acf1cc56687ac1569faf350e3994eb7fbd91936a3df",
      "s": "0x2a23058d22b4795e1d311c7b038021c03f4490db3037a6f36a44b5125fbd2b3a",
      "v": 27,
      "creates": null,
      "raw": "0xf87701850d4dfa5aef83015f90942910543af39aba0cd09dbb2d50200b3e800a63d2891a3322855dea4a000089454e4b3657333145471ba0060198ab3e39c7150ebf4acf1cc56687ac1569faf350e3994eb7fbd91936a3dfa02a23058d22b4795e1d311c7b038021c03f4490db3037a6f36a44b5125fbd2b3a",
      "networkId": 0,
      "chainId": 0
    }
  ]
}