{
  "hash": "0x3263e6a487aedabc4de0579d120f1c125c775f884be4dbdb2c1fb579045b40f1",
  "parentHash": "0xf8718c09a9ea69b58f195eac92bb8a5539c5f0aa679e9384d0e32eda32b8d092",
  "number": 48659,
  "timestamp": 1438960569,
  "nonce": "0x26e19bb74c1b6e75",
  "difficulty": 1475030706420,
  "gasLimit": {
    "_hex": "0x1b7a8"
  },
  "gasUsed": {
    "_hex": "0x5208"
  },
  "miner": "0xa50ec0D39fa913E62f1Bae7074E6F36caA71855b",
  "extraData": "0x476574682f76312e302e302f6c696e75782f676f312e342e32",
  "transactions": [
    {
      "hash": "0x30068b27fb497dd8fffc9f1ad822d60f76384e6576e975814c4b389c825072f4",
      "blockHash": "0x3263e6a487aedabc4de0579d120f1c125c775f884be4dbdb2c1fb579045b40f1",
      "blockNumber": 48659,
      "transactionIndex": 0,
      "confirmations": null,
      "from": "0xD47C242eDFfeA091BC54d57df5d1FDB93101476c",
      "gasPrice": {
        "_hex": "0xd1a70ebad"
      },
      "gasLimit": {
        "_hex": "0x5208"
      },
      "to": "0xCF336585500343e6Bd562504cC90D9E319037f31",
      "value": {
        "_hex": "0x9df7db761661404e80"
      },
      "nonce": 0,
      "data": "0x",
      "r": "0xeea0a3be36a80e065bb3678a8f84dd4428e911548abf7a62718643836a0a47af",
      "s": "0x5b135aa25f0f91452e754d9301a544771515eb1fcfaad4e3b26bc90512c35f65",
      "v": 28,
      "creates": null,
      "raw": "0xf86d80850d1a70ebad82520894cf336585500343e6bd562504cc90d9e319037f31899df7db761661404e80801ca0eea0a3be36a80e065bb3678a8f84dd4428e911548abf7a62718643836a0a47afa05b135aa25f0f91452e754d9301a544771515eb1fcfaad4e3b26bc90512c35f65",
      "networkId": 0,
      "chainId": 0
    }
  ]
}