{
  "hash": "0x6fed67adba51bdf5cd57db1282382b2e69a6f9a884c3a3928859461f3e4f0d7b",
  "parentHash": "0xee74003e9c6ede97b5bd22f1454f852d914af2c6d205c9b9dd3b7528633268be",
  "number": 77334,
  "timestamp": 1439435460,
  "nonce": "0xe29577d94f42b30e",
  "difficulty": 2236012414926,
  "gasLimit": {
    "_hex": "0x2fefd8"
  },
  "gasUsed": {
    "_hex": "0x5208"
  },
  "miner": "0xC603Ab5ef41fC61AA8b76bEddb09e3Cfcbb174BD",
  "extraData": "0x476574682f76312e302e312f77696e646f77732f676f312e342e32",
  "transactions": [
    {
      "hash": "0x490a64a4af183870ee8af9c0edfcaeac3d2b95063c396853718d98d0f6751d79",
      "blockHash": "0x6fed67adba51bdf5cd57db1282382b2e69a6f9a884c3a3928859461f3e4f0d7b",
      "blockNumber": 77334,
      "transactionIndex": 0,
      "confirmations": null,
      "from": "0xAd941B747c499E3ad5728C285446813783A33564",
      "gasPrice": {
        "_hex": "0xd1ce39bd4"
      },
      "gasLimit": {
        "_hex": "0x5208"
      },
      "to": "0x32Be343B94f860124dC4fEe278FDCBD38C102D88",
      "value": {
        "_hex": "0x29a1e039a58252000"
      },
      "nonce": 1,
      "data": "0x",
      "r": "0x3651e8afed17db6624f3afefa59873ae3e4a0ea40a8ff231c03d84cc23d046e7",
      "s": "0x0c49c7fb69cf396f4599ca72b625079c4e3f442e83e6f96b1c975ccc82fda5af",
      "v": 28,
      "creates": null,
      "raw": "0xf86d01850d1ce39bd48252089432be343b94f860124dc4fee278fdcbd38c102d8889029a1e039a58252000801ca03651e8afed17db6624f3afefa59873ae3e4a0ea40a8ff231c03d84cc23d046e7a00c49c7fb69cf396f4599ca72b625079c4e3f442e83e6f96b1c975ccc82fda5af",
      "networkId": 0,
      "chainId": 0
    }
  ]
}