{
  "hash": "0x9c4026592f748ddc0e7814e376acebdb980f6980770e73a6be92a962f34be76b",
  "parentHash": "0x9c673a4b7bcad8488139d7f92927e19f58402f8d80b5269571d16265b62320cc",
  "number": 64845,
  "timestamp": 1439227114,
  "nonce": "0x2d221e59e93bd142",
  "difficulty": 1905152020242,
  "gasLimit": {
    "_hex": "0x2fefd8"
  },
  "gasUsed": {
    "_hex": "0xbe6c"
  },
  "miner": "0x123843545FB525C8E134c9A5F15ADA6865cc3848",
  "extraData": "0x476574682f76312e302e312f77696e646f77732f676f312e342e32",
  "transactions": [
    {
      "hash": "0x60aa19eff1cfe78c40058f84ec997431c7cce7e0f0bc66679ab58c3b58170d62",
      "blockHash": "0x9c4026592f748ddc0e7814e376acebdb980f6980770e73a6be92a962f34be76b",
      "blockNumber": 64845,
      "transactionIndex": 0,
      "confirmations": null,
      "from": "0x1D0d76B1658A1a315Bc04BD8bA39A3C472B265De",
      "gasPrice": {
        "_hex": "0xba43b7400"
      },
      "gasLimit": {
        "_hex": "0x15f90"
      },
      "to": "0x793AE8C1b1a160BFc07BFB0d04F85eab1A71F4f2",
      "value": {
        "_hex": "0x0"
      },
      "nonce": 0,
      "data": "0x3ba15036",
      "r": "0xb2a5599e6a0214e56db44154124937d6db704d087968db47a573244ed59a0eb4",
      "s": "0x534c84890fb0dd91f754bec3a74563fd0751359efb8ef10040c7dabd5837787c",
      "v": 28,
      "creates": null,
      "raw": "0xf86980850ba43b740083015f9094793ae8c1b1a160bfc07bfb0d04f85eab1a71f4f280843ba150361ca0b2a5599e6a0214e56db44154124937d6db704d087968db47a573244ed59a0eb4a0534c84890fb0dd91f754bec3a74563fd0751359efb8ef10040c7dabd5837787c",
      "networkId": 0,
      "chainId": 0
    }
  ]
}