{
  "hash": "0x023d79b6e2c6ed16ac30caedb6dca5154455412c22ab5edb15f909015a12c0e1",
  "parentHash": "0x9f5d8c09257e06dd8d7a213e36f091295a084888ef11bfbd1bd7cfe947f0565f",
  "number": 47946,
  "timestamp": 1438948803,
  "nonce": "0x50893fb6d6a84770",
  "difficulty": 1460107256916,
  "gasLimit": {
    "_hex": "0x10be7"
  },
  "gasUsed": {
    "_hex": "0x546c"
  },
  "miner": "0xf8E0CA3Ed80bd541b94BEdCf259e8CF2141A9523",
  "extraData": "0x476574682f76312e302e312f77696e646f77732f676f312e342e32",
  "transactions": [
    {
      "hash": "0x218bf37578b4c87362b56ff70b617cc06f84e06ce5f2015b42d77caf71139313",
      "blockHash": "0x023d79b6e2c6ed16ac30caedb6dca5154455412c22ab5edb15f909015a12c0e1",
      "blockNumber": 47946,
      "transactionIndex": 0,
      "confirmations": null,
      "from": "0xa0A0e65204541Fca9b2fB282cd95138FAE16f809",
      "gasPrice": {
        "_hex": "0xdd2c45814"
      },
      "gasLimit": {
        "_hex": "0x61a8"
      },
      "to": "0x2910543Af39abA0Cd09dBb2D50200b3E800A63D2",
      "value": {
        "_hex": "0xde0b6b3a7640000"
      },
      "nonce": 2,
      "data": "0x454e42425057375430",
      "r": "0x3186b54e734dfc29b836826246de1d1d88d054e18a7df456679aa9a604cc302f",
      "s": "0x7270494ab69a1aefb6258383865b392e8f3180afa73d136475dcd490cb3b2366",
      "v": 28,
      "creates": null,
      "raw": "0xf87502850dd2c458148261a8942910543af39aba0cd09dbb2d50200b3e800a63d2880de0b6b3a764000089454e424250573754301ca03186b54e734dfc29b836826246de1d1d88d054e18a7df456679aa9a604cc302fa07270494ab69a1aefb6258383865b392e8f3180afa73d136475dcd490cb3b2366",
      "networkId": 0,
      "chainId": 0
    }
  ]
}