{
  "hash": "0xf19f515f4f68465900c53eb32dffd8a63c44274de1dd1aa6bd26bf3a16e8ad02",
  "parentHash": "0xba9f47acfb15223bbb21432abaa5798e4f95f6f999a795755a28c702486293f9",
  "number": 50874,
  "timestamp": 1438995993,
  "nonce": "0x21180527e87ac839",
  "difficulty": 1544656385318,
  "gasLimit": {
    "_hex": "0x7ed10"
  },
  "gasUsed": {
    "_hex": "0x5208"
  },
  "miner": "0xf927a40C8B7F6E07c5af7FA2155B4864a4112B13",
  "extraData": "0x476574682f76312e302e312f6c696e75782f676f312e342e32",
  "transactions": [
    {
      "hash": "0x43897dc1df4005c1d6ebba182e1e7556ff9dc5f242ff58f27cb90ce124267f8d",
      "blockHash": "0xf19f515f4f68465900c53eb32dffd8a63c44274de1dd1aa6bd26bf3a16e8ad02",
      "blockNumber": 50874,
      "transactionIndex": 0,
      "confirmations": null,
      "from": "0x3Ad06149b21C55Ff867cc3fb9740D2BCc7101231",
      "gasPrice": {
        "_hex": "0xdc6c08b52"
      },
      "gasLimit": {
        "_hex": "0x15f90"
      },
      "to": "0x1308A2e95c0160B90803ddCA9B9a5bb55E416d79",
      "value": {
        "_hex": "0x3635c9adc5dea00000"
      },
      "nonce": 1,
      "data": "0x",
      "r": "0x8ecf54b18d70304dcd8e88aaee51977c67bf840aa721dad73ae598b52dd663bd",
      "s": "0x3a97acfacb5c5a38bee4c08a224abb80fd8f5db0cd13486756aa881c574aab62",
      "v": 27,
      "creates": null,
      "raw": "0xf86e01850dc6c08b5283015f90941308a2e95c0160b90803ddca9b9a5bb55e416d79893635c9adc5dea00000801ba08ecf54b18d70304dcd8e88aaee51977c67bf840aa721dad73ae598b52dd663bda03a97acfacb5c5a38bee4c08a224abb80fd8f5db0cd13486756aa881c574aab62",
      "networkId": 0,
      "chainId": 0
    }
  ]
}