{
  "hash": "0x606e8e2d31a2f35ad998f34c3018f76fb5f0b31111b1949a4b666c45952031be",
  "parentHash": "0x9147c61878c991a741f9c975aa681f436cb879fe429139a61210e421d1dbc616",
  "number": 73867,
  "timestamp": 1439376368,
  "nonce": "0x898a7d0ac1f4799f",
  "difficulty": 2224954157566,
  "gasLimit": {
    "_hex": "0x2fefd8"
  },
  "gasUsed": {
    "_hex": "0x14820"
  },
  "miner": "0xe6A7a1d47ff21B6321162AEA7C6CB457D5476Bca",
  "extraData": "0x476574682f76312e302e312d38326566323666362f6c696e75782f676f312e34",
  "transactions": [
    {
      "hash": "0x85ff4161119b3fc9ca6ce43766b50ca91d688fa0e25dedc7a1852d2f111efdfc",
      "blockHash": "0x606e8e2d31a2f35ad998f34c3018f76fb5f0b31111b1949a4b666c45952031be",
      "blockNumber": 73867,
      "transactionIndex": 0,
      "confirmations": null,
      "from": "0x675f7F19C4852879594ebC3F517b5094A838408D",
      "gasPrice": {
        "_hex": "0xdff0da43f"
      },
      "gasLimit": {
        "_hex": "0x15f90"
      },
      "to": "0xc597A5d92F5dC1137D847db733cfe02c6d209f13",
      "value": {
        "_hex": "0xd8d36060886798000"
      },
      "nonce": 0,
      "data": "0x",
      "r": "0x4e481b703b65b2cb57601ada87fa28edbc065c795364c1d4543c750cb6379cfe",
      "s": "0x28b576a6a5feb57a62d6c8b37531e42191369def0f3277562a4e9b8044b45f5d",
      "v": 28,
      "creates": null,
      "raw": "0xf86e80850dff0da43f83015f9094c597a5d92f5dc1137d847db733cfe02c6d209f13890d8d36060886798000801ca04e481b703b65b2cb57601ada87fa28edbc065c795364c1d4543c750cb6379cfea028b576a6a5feb57a62d6c8b37531e42191369def0f3277562a4e9b8044b45f5d",
      "networkId": 0,
      "chainId": 0
    },
    {
      "hash": "0x0dfa3a8f694dc435c6fc585aa4800c88eab4a83c3f516ce150a1e03fbccc565c",
      "blockHash": "0x606e8e2d31a2f35ad998f34c3018f76fb5f0b31111b1949a4b666c45952031be",
      "blockNumber": 73867,
      "transactionIndex": 1,
      "confirmations": null,
      "from": "0x55e8a0a88eF14b59dD914fBeECc9376A6a618624",
      "gasPrice": {
        "_hex": "0xdff0da43f"
      },
      "gasLimit": {
        "_hex": "0x15f90"
      },
      "to": "0xc597A5d92F5dC1137D847db733cfe02c6d209f13",
      "value": {
        "_hex": "0xad7641a6b0cd20000"
      },
      "nonce": 0,
      "data": "0x",
      "r": "0x0315b06f5d0e37b4cbab92f581a3999110081d271b7e9d7fb51b5372e746d620",
      "s": "0x2129c1723a5916a17fff14627c9768a02b77bd131c51ad71c7009b0f04060302",
      "v": 28,
      "creates": null,
      "raw": "0xf86e80850dff0da43f83015f9094c597a5d92f5dc1137d847db733cfe02c6d209f13890ad7641a6b0cd20000801ca00315b06f5d0e37b4cbab92f581a3999110081d271b7e9d7fb51b5372e746d620a02129c1723a5916a17fff14627c9768a02b77bd131c51ad71c7009b0f04060302",
      "networkId": 0,
      "chainId": 0
    },
    {
      "hash": "0x679ca59452a59af8b1a6d01b765ee49a3bbf3e83dc0038bd45dc4c5d24c62a0f",
      "blockHash": "0x606e8e2d31a2f35ad998f34c3018f76fb5f0b31111b1949a4b666c45952031be",
      "blockNumber": 73867,
      "transactionIndex": 2,
      "confirmations": null,
      "from": "0x2CaB97690D3bc757061AEA34E7B70Dc221019126",
      "gasPrice": {
        "_hex": "0xdff0da43f"
      },
      "gasLimit": {
        "_hex": "0x15f90"
      },
      "to": "0xc597A5d92F5dC1137D847db733cfe02c6d209f13",
      "value": {
        "_hex": "0x1b650e8a929f0000"
      },
      "nonce": 0,
      "data": "0x",
      "r": "0xdd3faf3bd9ba25fe4885bac7919574cff36e5741a77c0684b59c48e0f4bd0338",
      "s": "0x5efef602903fb06737f80b2a9dadc4cf71a3655fb48af07d28ae7ea62b7dc737",
      "v": 28,
      "creates": null,
      "raw": "0xf86d80850dff0da43f83015f9094c597a5d92f5dc1137d847db733cfe02c6d209f13881b650e8a929f0000801ca0dd3faf3bd9ba25fe4885bac7919574cff36e5741a77c0684b59c48e0f4bd0338a05efef602903fb06737f80b2a9dadc4cf71a3655fb48af07d28ae7ea62b7dc737",
      "networkId": 0,
      "chainId": 0
    },
    {
      "hash": "0x5c720aae19ae9fa2f7994e31b1c373afa74c3b512479b0dfef4fff4998de3d66",
      "blockHash": "0x606e8e2d31a2f35ad998f34c3018f76fb5f0b31111b1949a4b666c45952031be",
      "blockNumber": 73867,
      "transactionIndex": 3,
      "confirmations": null,
      "from": "0x196fD2a85180d94075490F5E912AEAb912DecDf8",
      "gasPrice": {
        "_hex": "0xdff0da43f"
      },
      "gasLimit": {
        "_hex": "0x15f90"
      },
      "to": "0xc597A5d92F5dC1137D847db733cfe02c6d209f13",
      "value": {
        "_hex": "0x4518417883b73be0"
      },
      "nonce": 2,
      "data": "0x",
      "r": "0xfbfdeb7a11d976d79731d89ef4a623c5b64cadb8ff2fe320fde13b4e62584379",
      "s": "0x4ca0a51bf858d4661e4b6eb07e61ba6bdc62b2decbe0fc405a3258c1058917d6",
      "v": 27,
      "creates": null,
      "raw": "0xf86d02850dff0da43f83015f9094c597a5d92f5dc1137d847db733cfe02c6d209f13884518417883b73be0801ba0fbfdeb7a11d976d79731d89ef4a623c5b64cadb8ff2fe320fde13b4e62584379a04ca0a51bf858d4661e4b6eb07e61ba6bdc62b2decbe0fc405a3258c1058917d6",
      "networkId": 0,
      "chainId": 0
    }
  ]
}