{
  "hash": "0x1e744dffdd77ae52e040c9fcefd9866d403aa447ec21c491c16e8f769455e966",
  "parentHash": "0xf2ffb272a9455118e6e5567cdaf1ab9b90f9e685dc211e414791fe9f7712f115",
  "number": 107434,
  "timestamp": 1439922397,
  "nonce": "0xb059cb2cc6dd6147",
  "difficulty": 4405027870875,
  "gasLimit": {
    "_hex": "0x2fefd8"
  },
  "gasUsed": {
    "_hex": "0x5208"
  },
  "miner": "0x9D49F602b0fdb924Bd63DDE2Bd0907E4A07c63a7",
  "extraData": "0x476574682f76312e302e312f6c696e75782f676f312e342e32",
  "transactions": [
    {
      "hash": "0x79982f11e35e930eef36a6e81a5f0471857146bbc5a9c94ba7bc02143222ceda",
      "blockHash": "0x1e744dffdd77ae52e040c9fcefd9866d403aa447ec21c491c16e8f769455e966",
      "blockNumber": 107434,
      "transactionIndex": 0,
      "confirmations": null,
      "from": "0xB4DF81bA9111D11A33ffdCBF58027843a577D08c",
      "gasPrice": {
        "_hex": "0xd64497c04"
      },
      "gasLimit": {
        "_hex": "0x15f90"
      },
      "to": "0x976349705b839e2F5719387Fb27D2519d519da03",
      "value": {
        "_hex": "0x16bcc41e90000"
      },
      "nonce": 3,
      "data": "0x",
      "r": "0x7fa001e449eb7aaab7205536e923efc780017987f31c9d9c6e5a6712b9d3e399",
      "s": "0x418a4103bb1c7c6c73d7a53ca82879ccfcfca26317e47a8b041f7addd791604c",
      "v": 28,
      "creates": null,
      "raw": "0xf86c03850d64497c0483015f9094976349705b839e2f5719387fb27d2519d519da0387016bcc41e90000801ca07fa001e449eb7aaab7205536e923efc780017987f31c9d9c6e5a6712b9d3e399a0418a4103bb1c7c6c73d7a53ca82879ccfcfca26317e47a8b041f7addd791604c",
      "networkId": 0,
      "chainId": 0
    }
  ]
}