{
  "hash": "0xfdb4be367844547d5afb25548795b70c68ac15e471167f001db5793f6ebb9630",
  "parentHash": "0x6fb5a7ddcb9329d5e4ccb379d039ff36d51ea8a45184270cd10983f93aeb1e44",
  "number": 86136,
  "timestamp": 1439573956,
  "nonce": "0x01506467a98fae65",
  "difficulty": 2807123996233,
  "gasLimit": {
    "_hex": "0x2fefd8"
  },
  "gasUsed": {
    "_hex": "0x5208"
  },
  "miner": "0xe6A7a1d47ff21B6321162AEA7C6CB457D5476Bca",
  "extraData": "0x476574682f76312e302e312d38326566323666362f6c696e75782f676f312e34",
  "transactions": [
    {
      "hash": "0xc2694f3158c2d21c6e5627580838c4fd204895fdebe4cbc866e35b56a7cd82e4",
      "blockHash": "0xfdb4be367844547d5afb25548795b70c68ac15e471167f001db5793f6ebb9630",
      "blockNumber": 86136,
      "transactionIndex": 0,
      "confirmations": null,
      "from": "0x6866e5e1FaBB4AbceF3EEb9Ea0d8CD6b52dfC9FF",
      "gasPrice": {
        "_hex": "0xdc1c54192"
      },
      "gasLimit": {
        "_hex": "0x15f90"
      },
      "to": "0x01Ad0ACFf478127D9d702B1A13599D706cB759b1",
      "value": {
        "_hex": "0x4563918244f40000"
      },
      "nonce": 20,
      "data": "0x",
      "r": "0x7f8fb35592dbd6bf0364e8e3ea4d20998cf8d674a48896b25bbc01d7d82a9072",
      "s": "0x21cbdb95dce20050143a6ed461e475da442f5f0e03a484246142a31a9a229d44",
      "v": 28,
      "creates": null,
      "raw": "0xf86d14850dc1c5419283015f909401ad0acff478127d9d702b1a13599d706cb759b1884563918244f40000801ca07f8fb35592dbd6bf0364e8e3ea4d20998cf8d674a48896b25bbc01d7d82a9072a021cbdb95dce20050143a6ed461e475da442f5f0e03a484246142a31a9a229d44",
      "networkId": 0,
      "chainId": 0
    }
  ]
}