{
  "hash": "0xf3fb0328ae64e0f2f979a51e2f013477c1d0d5e41aaf2c53a0a287a4118178af",
  "parentHash": "0xc4f5beba731d3832705e246540a1abdaea5983ace77be2e74959b1192bce1147",
  "number": 50300,
  "timestamp": 1438986952,
  "nonce": "0x8e7628ebf9d6203f",
  "difficulty": 1511927808226,
  "gasLimit": {
    "_hex": "0x5b793"
  },
  "gasUsed": {
    "_hex": "0x5208"
  },
  "miner": "0x1D889aFF5D57138c9819412d63b5d877567B5936",
  "extraData": "0x476574682f76312e302e312f77696e646f77732f676f312e342e32",
  "transactions": [
    {
      "hash": "0xc98724adc8db6d99b6d1f1ddde7beb2f581d10bb6c8034a63457c83ac2e7b589",
      "blockHash": "0xf3fb0328ae64e0f2f979a51e2f013477c1d0d5e41aaf2c53a0a287a4118178af",
      "blockNumber": 50300,
      "transactionIndex": 0,
      "confirmations": null,
      "from": "0xfDFD6134c04A8ab7Eb16f00643f8fEd7daaaECB2",
      "gasPrice": {
        "_hex": "0xd7d40ace3"
      },
      "gasLimit": {
        "_hex": "0x15f90"
      },
      "to": "0x50E13023bD9CA96ad4C53fdfd410CB6b1f420Bdf",
      "value": {
        "_hex": "0x15bcb7218454220000"
      },
      "nonce": 0,
      "data": "0x",
      "r": "0xf99a47a7122135edcd667cd0a477a8aaf55ca8777010d9684c69dba9ccb9a2fd",
      "s": "0x5ab2256abcdea0c9a4ac2ca86650dd28a897474711d998c10b71a9680cc9c3c4",
      "v": 28,
      "creates": null,
      "raw": "0xf86e80850d7d40ace383015f909450e13023bd9ca96ad4c53fdfd410cb6b1f420bdf8915bcb7218454220000801ca0f99a47a7122135edcd667cd0a477a8aaf55ca8777010d9684c69dba9ccb9a2fda05ab2256abcdea0c9a4ac2ca86650dd28a897474711d998c10b71a9680cc9c3c4",
      "networkId": 0,
      "chainId": 0
    }
  ]
}