{
  "hash": "0x2ceb32bb0e674cd9ac6f220e10fbd884996b5485db4cc77d590e4a0cb04c44da",
  "parentHash": "0x57d12fb29148b557316c85c5dc381bd62ce3f73a2a1d0523f0217baf67451a91",
  "number": 95081,
  "timestamp": 1439718698,
  "nonce": "0x1643a4cbd408ed7e",
  "difficulty": 3491503485940,
  "gasLimit": {
    "_hex": "0x2fefd8"
  },
  "gasUsed": {
    "_hex": "0x5208"
  },
  "miner": "0xA1623430350C5df1b52B0b57483A5bb45d1796Da",
  "extraData": "0x476574682f76312e302e312d38326566323666362f6c696e75782f676f312e34",
  "transactions": [
    {
      "hash": "0xc49a3532991f26c2ec35c42de97b3056073c02ed8f8396a2c09bcfbfa63f7630",
      "blockHash": "0x2ceb32bb0e674cd9ac6f220e10fbd884996b5485db4cc77d590e4a0cb04c44da",
      "blockNumber": 95081,
      "transactionIndex": 0,
      "confirmations": null,
      "from": "0x32Be343B94f860124dC4fEe278FDCBD38C102D88",
      "gasPrice": {
        "_hex": "0xd46f532ec"
      },
      "gasLimit": {
        "_hex": "0x5208"
      },
      "to": "0x80bA7fe0Fc041a04C13C6Fdc9616aEd480A8782B",
      "value": {
        "_hex": "0xdbd2fc137a30000"
      },
      "nonce": 971,
      "data": "0x",
      "r": "0xcd103787447e9cca3137c6d536bffae5a97cddc1cfb9e6d651e05179209ab160",
      "s": "0x34e48fd609c50a7deb40167887a8ae7d9ab198d11022f2f256a7eb50a1013878",
      "v": 27,
      "creates": null,
      "raw": "0xf86e8203cb850d46f532ec8252089480ba7fe0fc041a04c13c6fdc9616aed480a8782b880dbd2fc137a30000801ba0cd103787447e9cca3137c6d536bffae5a97cddc1cfb9e6d651e05179209ab160a034e48fd609c50a7deb40167887a8ae7d9ab198d11022f2f256a7eb50a1013878",
      "networkId": 0,
      "chainId": 0
    }
  ]
}