{
  "hash": "0x1e9be4e1e26e301f6ec08c513473d04c3a789cc1cde53aad0637a149ac5a8251",
  "parentHash": "0x1ddd95745b9978ed080c371a0a2fe01e9785acd1010bf1dd2bc3234cfb029ae8",
  "number": 79912,
  "timestamp": 1439477218,
  "nonce": "0x35d23431cd1d266c",
  "difficulty": 2347180721183,
  "gasLimit": {
    "_hex": "0x2fefd8"
  },
  "gasUsed": {
    "_hex": "0x5208"
  },
  "miner": "0xbb7B8287f3F0a933474a79eAe42CBCa977791171",
  "extraData": "0x476574682f4c5649562f76312e302e312f6c696e75782f676f312e342e32",
  "transactions": [
    {
      "hash": "0xc29636a32fcef30a165b2d770412c3b7aa9a6142ce651d7d8a6f8430463c36ff",
      "blockHash": "0x1e9be4e1e26e301f6ec08c513473d04c3a789cc1cde53aad0637a149ac5a8251",
      "blockNumber": 79912,
      "transactionIndex": 0,
      "confirmations": null,
      "from": "0x2910543Af39abA0Cd09dBb2D50200b3E800A63D2",
      "gasPrice": {
        "_hex": "0xcc7219343"
      },
      "gasLimit": {
        "_hex": "0x5208"
      },
      "to": "0xdF938BF4cded288d831F5d003B3921d61BD6E329",
      "value": {
        "_hex": "0x56bb59ab42b2f8000"
      },
      "nonce": 379,
      "data": "0x",
      "r": "0x4d41f240b587224ce61c0f64ff103b8ff1281dfa71a20ede89b74d3d900e5cb5",
      "s": "0x1dcdcfa8c5cd5d59ba3c2b1b169a682adc771572a1e37fa11a0c7c51731acb63",
      "v": 27,
      "creates": null,
      "raw": "0xf86f82017b850cc721934382520894df938bf4cded288d831f5d003b3921d61bd6e32989056bb59ab42b2f8000801ba04d41f240b587224ce61c0f64ff103b8ff1281dfa71a20ede89b74d3d900e5cb5a01dcdcfa8c5cd5d59ba3c2b1b169a682adc771572a1e37fa11a0c7c51731acb63",
      "networkId": 0,
      "chainId": 0
    }
  ]
}