{
  "hash": "0x0ed2107ebd8faf6114c5053771a6069cb8a798c15077af82a5acf9972f9dfe41",
  "parentHash": "0x16b09d09a7cbda342961a1a08589d27e92ef921d34aed1b9fef8c0ec49cd5c3c",
  "number": 121876,
  "timestamp": 1440184261,
  "nonce": "0x89fb85e22c02cd2a",
  "difficulty": 4475432934098,
  "gasLimit": {
    "_hex": "0x2fefd8"
  },
  "gasUsed": {
    "_hex": "0xe6b68"
  },
  "miner": "0xe6A7a1d47ff21B6321162AEA7C6CB457D5476Bca",
  "extraData": "0xd783010002844765746887676f312e342e32856c696e7578",
  "transactions": [
    {
      "hash": "0x9e5b453473722c0e9c47163a78b6f63e89a68f9a20121b6b5988fbd72916e668",
      "blockHash": "0x0ed2107ebd8faf6114c5053771a6069cb8a798c15077af82a5acf9972f9dfe41",
      "blockNumber": 121876,
      "transactionIndex": 0,
      "confirmations": null,
      "from": "0x2910543Af39abA0Cd09dBb2D50200b3E800A63D2",
      "gasPrice": {
        "_hex": "0xda1ad3b27"
      },
      "gasLimit": {
        "_hex": "0x5208"
      },
      "to": "0xDaAC0F7D8959CE050D3D68467a441D60B611eD2A",
      "value": {
        "_hex": "0x1a043a59465d78000"
      },
      "nonce": 1202,
      "data": "0x",
      "r": "0x4435f12e380bacd7b279af6d4a6d37becaf13631ff628b4b04080e1ff241cb5a",
      "s": "0x7b696298cb48a6ece583a0ab6194f9f26071f6a5a76c58f09210976273b73e5e",
      "v": 27,
      "creates": null,
      "raw": "0xf86f8204b2850da1ad3b2782520894daac0f7d8959ce050d3d68467a441d60b611ed2a8901a043a59465d78000801ba04435f12e380bacd7b279af6d4a6d37becaf13631ff628b4b04080e1ff241cb5aa07b696298cb48a6ece583a0ab6194f9f26071f6a5a76c58f09210976273b73e5e",
      "networkId": 0,
      "chainId": 0
    },
    {
      "hash": "0x0440f2119e5d88199e78ba332de9b9bbfc75ad2eb3f99f1adfdbfc75569ecbf3",
      "blockHash": "0x0ed2107ebd8faf6114c5053771a6069cb8a798c15077af82a5acf9972f9dfe41",
      "blockNumber": 121876,
      "transactionIndex": 1,
      "confirmations": null,
      "from": "0x2910543Af39abA0Cd09dBb2D50200b3E800A63D2",
      "gasPrice": {
        "_hex": "0xda1ad3b27"
      },
      "gasLimit": {
        "_hex": "0x5208"
      },
      "to": "0x2C6dA0AeEF23c6a9eA4a8f19c0810e505FDEb231",
      "value": {
        "_hex": "0xad77cf8e18e3f8000"
      },
      "nonce": 1203,
      "data": "0x",
      "r": "0xc31021590586472c0cc822c3a4e560bfaeccf8ca2ceefa2d27f6ae08ccfac3b9",
      "s": "0x409655de7a7eef905363e0ffac372ae7e33190427eab748da669281fddaeaaf4",
      "v": 27,
      "creates": null,
      "raw": "0xf86f8204b3850da1ad3b27825208942c6da0aeef23c6a9ea4a8f19c0810e505fdeb231890ad77cf8e18e3f8000801ba0c31021590586472c0cc822c3a4e560bfaeccf8ca2ceefa2d27f6ae08ccfac3b9a0409655de7a7eef905363e0ffac372ae7e33190427eab748da669281fddaeaaf4",
      "networkId": 0,
      "chainId": 0
    },
    {
      "hash": "0x7fdac694c0a9578f4b9421384bd11c59c1b32560d996bec139e70c1353a57588",
      "blockHash": "0x0ed2107ebd8faf6114c5053771a6069cb8a798c15077af82a5acf9972f9dfe41",
      "blockNumber": 121876,
      "transactionIndex": 2,
      "confirmations": null,
      "from": "0x32Be343B94f860124dC4fEe278FDCBD38C102D88",
      "gasPrice": {
        "_hex": "0xd8a439ed6"
      },
      "gasLimit": {
        "_hex": "0x5208"
      },
      "to": "0x8c0A6b62918D317e3B431EfB67E3fB5eff333b1c",
      "value": {
        "_hex": "0xad76b3568565f0000"
      },
      "nonce": 1579,
      "data": "0x",
      "r": "0x43ef408407c282288d1de3dba18275e5c3b5a1564369c191495de9f51428b010",
      "s": "0x5c883f83d3beebc5528dfe784fb669789c0e7041325389ba557c386d084cb061",
      "v": 27,
      "creates": null,
      "raw": "0xf86f82062b850d8a439ed6825208948c0a6b62918d317e3b431efb67e3fb5eff333b1c890ad76b3568565f0000801ba043ef408407c282288d1de3dba18275e5c3b5a1564369c191495de9f51428b010a05c883f83d3beebc5528dfe784fb669789c0e7041325389ba557c386d084cb061",
      "networkId": 0,
      "chainId": 0
    },
    {
      "hash": "0x44640424fa53bfa7a2a87862fe107a912b55e9cd00a070f1862f30515fef8b19",
      "blockHash": "0x0ed2107ebd8faf6114c5053771a6069cb8a798c15077af82a5acf9972f9dfe41",
      "blockNumber": 121876,
      "transactionIndex": 3,
      "confirmations": null,
      "from": "0xe6A7a1d47ff21B6321162AEA7C6CB457D5476Bca",
      "gasPrice": {
        "_hex": "0xba43b7400"
      },
      "gasLimit": {
        "_hex": "0x55f0"
      },
      "to": "0xbb30e448B72d6Fdd44973A4C7a312F92f22C8F07",
      "value": {
        "_hex": "0x3038de631880bf48"
      },
      "nonce": 6555,
      "data": "0x",
      "r": "0x8a771da604a226b8708b566b59ef2964217f26cc908f2b8b70a95fea59e217c0",
      "s": "0x687aee331121ce40d7638e508102c645d0ef4106d2bc68790580d288be28391e",
      "v": 28,
      "creates": null,
      "raw": "0xf86e82199b850ba43b74008255f094bb30e448b72d6fdd44973a4c7a312f92f22c8f07883038de631880bf48801ca08a771da604a226b8708b566b59ef2964217f26cc908f2b8b70a95fea59e217c0a0687aee331121ce40d7638e508102c645d0ef4106d2bc68790580d288be28391e",
      "networkId": 0,
      "chainId": 0
    },
    {
      "hash": "0xdaa5eb95a19518048065dc3bd3847aa0d1560580a4cc17799b658f2a63728374",
      "blockHash": "0x0ed2107ebd8faf6114c5053771a6069cb8a798c15077af82a5acf9972f9dfe41",
      "blockNumber": 121876,
      "transactionIndex": 4,
      "confirmations": null,
      "from": "0xe6A7a1d47ff21B6321162AEA7C6CB457D5476Bca",
      "gasPrice": {
        "_hex": "0xba43b7400"
      },
      "gasLimit": {
        "_hex": "0x55f0"
      },
      "to": "0x6589D22b54648e5D67Dc008eBd0c836D3DF39c87",
      "value": {
        "_hex": "0x3063eda6f01c08b8"
      },
      "nonce": 6556,
      "data": "0x",
      "r": "0x13a1d2ee9c64fb7de3f28ed7d4e89d377d7e39d95870b9c7bad09ab3ad57c0f4",
      "s": "0x4ee3793e156ae3f4adcd61a22f64609be1dfba6d686636cc66672052a72a4264",
      "v": 28,
      "creates": null,
      "raw": "0xf86e82199c850ba43b74008255f0946589d22b54648e5d67dc008ebd0c836d3df39c87883063eda6f01c08b8801ca013a1d2ee9c64fb7de3f28ed7d4e89d377d7e39d95870b9c7bad09ab3ad57c0f4a04ee3793e156ae3f4adcd61a22f64609be1dfba6d686636cc66672052a72a4264",
      "networkId": 0,
      "chainId": 0
    },
    {
      "hash": "0xc2615ca45c9b1e260b874daaf3efec4f7f6b84e758768157a83236d1a024d266",
      "blockHash": "0x0ed2107ebd8faf6114c5053771a6069cb8a798c15077af82a5acf9972f9dfe41",
      "blockNumber": 121876,
      "transactionIndex": 5,
      "confirmations": null,
      "from": "0xe6A7a1d47ff21B6321162AEA7C6CB457D5476Bca",
      "gasPrice": {
        "_hex": "0xba43b7400"
      },
      "gasLimit": {
        "_hex": "0x55f0"
      },
      "to": "0xe535C1c29F0091324F184de7a5be5520D1b0b008",
      "value": {
        "_hex": "0x30d61c33a870b828"
      },
      "nonce": 6557,
      "data": "0x",
      "r": "0x0937fd28aa882e9d5fffc39398b7774e591a0416a55fdab044165fe0e7f5f8ec",
      "s": "0x27409263e92a82c17b144cf55df6383916e1067ae7a41314a80340f2f0d47f14",
      "v": 27,
      "creates": null,
      "raw": "0xf86e82199d850ba43b74008255f094e535c1c29f0091324f184de7a5be5520d1b0b0088830d61c33a870b828801ba00937fd28aa882e9d5fffc39398b7774e591a0416a55fdab044165fe0e7f5f8eca027409263e92a82c17b144cf55df6383916e1067ae7a41314a80340f2f0d47f14",
      "networkId": 0,
      "chainId": 0
    },
    {
      "hash": "0x27ea0fbbde2d46a6c812ec21b9cfcbc9aa2fe66a846cab6b5ab83d75f5835e35",
      "blockHash": "0x0ed2107ebd8faf6114c5053771a6069cb8a798c15077af82a5acf9972f9dfe41",
      "blockNumber": 121876,
      "transactionIndex": 6,
      "confirmations": null,
      "from": "0xe6A7a1d47ff21B6321162AEA7C6CB457D5476Bca",
      "gasPrice": {
        "_hex": "0xba43b7400"
      },
      "gasLimit": {
        "_hex": "0x55f0"
      },
      "to": "0x519DC97eF09491aE962A8F13fe144c71feca4662",
      "value": {
        "_hex": "0x30e1f01a8ef97bd4"
      },
      "nonce": 6558,
      "data": "0x",
      "r": "0x1839aa938a81670b0c435d21544154794ae264f8533e0c382f2b6ffaf4cd54c5",
      "s": "0x4e70f93d80d68cd2586015c815c4bd315b7b5acb76b39471be9c44869bf0f549",
      "v": 28,
      "creates": null,
      "raw": "0xf86e82199e850ba43b74008255f094519dc97ef09491ae962a8f13fe144c71feca46628830e1f01a8ef97bd4801ca01839aa938a81670b0c435d21544154794ae264f8533e0c382f2b6ffaf4cd54c5a04e70f93d80d68cd2586015c815c4bd315b7b5acb76b39471be9c44869bf0f549",
      "networkId": 0,
      "chainId": 0
    },
    {
      "hash": "0x4898b706336b5dc929af4d05992e7eb29fa2e86be39f93b16ff43f2b093c9e09",
      "blockHash": "0x0ed2107ebd8faf6114c5053771a6069cb8a798c15077af82a5acf9972f9dfe41",
      "blockNumber": 121876,
      "transactionIndex": 7,
      "confirmations": null,
      "from": "0xe6A7a1d47ff21B6321162AEA7C6CB457D5476Bca",
      "gasPrice": {
        "_hex": "0xba43b7400"
      },
      "gasLimit": {
        "_hex": "0x55f0"
      },
      "to": "0x19aF4b2766b8115B49E1fd31Ae71CaA12E706A96",
      "value": {
        "_hex": "0x31793c2bb649d1e4"
      },
      "nonce": 6559,
      "data": "0x",
      "r": "0x8f78b5c2a15f0469c6136854529aa4dddb3dae89a81f1fb983ebfdcb2f6ae1e3",
      "s": "0x425bfc129c71aae78ff36878d2fd56766ce213dedef5771bd1f65ccb3a204ca6",
      "v": 27,
      "creates": null,
      "raw": "0xf86e82199f850ba43b74008255f09419af4b2766b8115b49e1fd31ae71caa12e706a968831793c2bb649d1e4801ba08f78b5c2a15f0469c6136854529aa4dddb3dae89a81f1fb983ebfdcb2f6ae1e3a0425bfc129c71aae78ff36878d2fd56766ce213dedef5771bd1f65ccb3a204ca6",
      "networkId": 0,
      "chainId": 0
    },
    {
      "hash": "0x7bf27893bd2d3bc2620a417f24d81e8662d0d207e50e69594f31f43f0c62ccd6",
      "blockHash": "0x0ed2107ebd8faf6114c5053771a6069cb8a798c15077af82a5acf9972f9dfe41",
      "blockNumber": 121876,
      "transactionIndex": 8,
      "confirmations": null,
      "from": "0xe6A7a1d47ff21B6321162AEA7C6CB457D5476Bca",
      "gasPrice": {
        "_hex": "0xba43b7400"
      },
      "gasLimit": {
        "_hex": "0x55f0"
      },
      "to": "0x8f30e76a8Ddf9FaEf40fd58197421716764B72D8",
      "value": {
        "_hex": "0x31c8cd2c9ced4c30"
      },
      "nonce": 6560,
      "data": "0x",
      "r": "0xd99476705c1277cad4d58c2427398933a79c2c52c5f7afd5de9f30af8541ce87",
      "s": "0x09d754e2a872ddf951a93684b37772c4b24bf87506dda76572453ec5008ea776",
      "v": 27,
      "creates": null,
      "raw": "0xf86e8219a0850ba43b74008255f0948f30e76a8ddf9faef40fd58197421716764b72d88831c8cd2c9ced4c30801ba0d99476705c1277cad4d58c2427398933a79c2c52c5f7afd5de9f30af8541ce87a009d754e2a872ddf951a93684b37772c4b24bf87506dda76572453ec5008ea776",
      "networkId": 0,
      "chainId": 0
    },
    {
      "hash": "0xec597ecb17a0a036f5a628d983c1dff62effe25ac6715c61432b6021902d62bb",
      "blockHash": "0x0ed2107ebd8faf6114c5053771a6069cb8a798c15077af82a5acf9972f9dfe41",
      "blockNumber": 121876,
      "transactionIndex": 9,
      "confirmations": null,
      "from": "0xe6A7a1d47ff21B6321162AEA7C6CB457D5476Bca",
      "gasPrice": {
        "_hex": "0xba43b7400"
      },
      "gasLimit": {
        "_hex": "0x55f0"
      },
      "to": "0xfABFCDb9aD54126a8829d5aB6357F608C6B005d0",
      "value": {
        "_hex": "0x320714a295ddc928"
      },
      "nonce": 6561,
      "data": "0x",
      "r": "0x83b8fc6f24d09cc23748a4bc7da8993a4b48dc0494700e96f92d1e3b3813e5a0",
      "s": "0x084a2c26c97c4aebcb833e7f145f8912ae1ae7f3a682ce3e76086574b5d04aa0",
      "v": 27,
      "creates": null,
      "raw": "0xf86e8219a1850ba43b74008255f094fabfcdb9ad54126a8829d5ab6357f608c6b005d088320714a295ddc928801ba083b8fc6f24d09cc23748a4bc7da8993a4b48dc0494700e96f92d1e3b3813e5a0a0084a2c26c97c4aebcb833e7f145f8912ae1ae7f3a682ce3e76086574b5d04aa0",
      "networkId": 0,
      "chainId": 0
    },
    {
      "hash": "0xd32bb2b6adc82bb650c6b89d3a41cbce1470d59b86e969611b29717462d0a125",
      "blockHash": "0x0ed2107ebd8faf6114c5053771a6069cb8a798c15077af82a5acf9972f9dfe41",
      "blockNumber": 121876,
      "transactionIndex": 10,
      "confirmations": null,
      "from": "0xe6A7a1d47ff21B6321162AEA7C6CB457D5476Bca",
      "gasPrice": {
        "_hex": "0xba43b7400"
      },
      "gasLimit": {
        "_hex": "0x55f0"
      },
      "to": "0x3F6DDbC103F2999640fe4AFc6884708fa691C2b8",
      "value": {
        "_hex": "0x32491ccf989b1004"
      },
      "nonce": 6562,
      "data": "0x",
      "r": "0xc78b81b202fb39fb02e14cfe28339ab58cbd96b9a1e177ab665f2546483c5af0",
      "s": "0x27dc85cf4d9b6611de36eddd41aa41cc8f48d3846212709b8db152b01c9678d1",
      "v": 28,
      "creates": null,
      "raw": "0xf86e8219a2850ba43b74008255f0943f6ddbc103f2999640fe4afc6884708fa691c2b88832491ccf989b1004801ca0c78b81b202fb39fb02e14cfe28339ab58cbd96b9a1e177ab665f2546483c5af0a027dc85cf4d9b6611de36eddd41aa41cc8f48d3846212709b8db152b01c9678d1",
      "networkId": 0,
      "chainId": 0
    },
    {
      "hash": "0x8c0ad6682dbebeb00699032ee6af3a27f6c42e09ebe9ddbcba5419fface25140",
      "blockHash": "0x0ed2107ebd8faf6114c5053771a6069cb8a798c15077af82a5acf9972f9dfe41",
      "blockNumber": 121876,
      "transactionIndex": 11,
      "confirmations": null,
      "from": "0xe6A7a1d47ff21B6321162AEA7C6CB457D5476Bca",
      "gasPrice": {
        "_hex": "0xba43b7400"
      },
      "gasLimit": {
        "_hex": "0x55f0"
      },
      "to": "0x8d629C20608135491B5013f1002586A0383130e5",
      "value": {
        "_hex": "0x3257fc51f137b7d8"
      },
      "nonce": 6563,
      "data": "0x",
      "r": "0xe27f029a5cf4471668daaf3987bc66b5263ff779efcf8966aa0f3cfa03fafb2c",
      "s": "0x0f94a5cb4ff2afc9ef87d3e86801e31762c02f856c41df06cb1305b95f4534d9",
      "v": 28,
      "creates": null,
      "raw": "0xf86e8219a3850ba43b74008255f0948d629c20608135491b5013f1002586a0383130e5883257fc51f137b7d8801ca0e27f029a5cf4471668daaf3987bc66b5263ff779efcf8966aa0f3cfa03fafb2ca00f94a5cb4ff2afc9ef87d3e86801e31762c02f856c41df06cb1305b95f4534d9",
      "networkId": 0,
      "chainId": 0
    },
    {
      "hash": "0x20e14ee91f240b22d57a2f23c778147f3ceace05897c8f6af15860267ef8e29c",
      "blockHash": "0x0ed2107ebd8faf6114c5053771a6069cb8a798c15077af82a5acf9972f9dfe41",
      "blockNumber": 121876,
      "transactionIndex": 12,
      "confirmations": null,
      "from": "0xe6A7a1d47ff21B6321162AEA7C6CB457D5476Bca",
      "gasPrice": {
        "_hex": "0xba43b7400"
      },
      "gasLimit": {
        "_hex": "0x55f0"
      },
      "to": "0x6Db7eb9Cc3980b13aA65Bf2AbC1aacAd356322E3",
      "value": {
        "_hex": "0x325ac79aee1c8a08"
      },
      "nonce": 6564,
      "data": "0x",
      "r": "0x76fa8a6c9dc3f971d54a00f239389a74a89fa1c64b682dd14c296599960de2cf",
      "s": "0x2c5d6ab5961916de2174f3a6e10ff92e7c5a596405ac2585bfcfd8f85132ad42",
      "v": 27,
      "creates": null,
      "raw": "0xf86e8219a4850ba43b74008255f0946db7eb9cc3980b13aa65bf2abc1aacad356322e388325ac79aee1c8a08801ba076fa8a6c9dc3f971d54a00f239389a74a89fa1c64b682dd14c296599960de2cfa02c5d6ab5961916de2174f3a6e10ff92e7c5a596405ac2585bfcfd8f85132ad42",
      "networkId": 0,
      "chainId": 0
    },
    {
      "hash": "0xfa9382990f23a13f1c8a2a77b0bf8682e30ec565dcc76aec6fb922daf6273584",
      "blockHash": "0x0ed2107ebd8faf6114c5053771a6069cb8a798c15077af82a5acf9972f9dfe41",
      "blockNumber": 121876,
      "transactionIndex": 13,
      "confirmations": null,
      "from": "0xe6A7a1d47ff21B6321162AEA7C6CB457D5476Bca",
      "gasPrice": {
        "_hex": "0xba43b7400"
      },
      "gasLimit": {
        "_hex": "0x55f0"
      },
      "to": "0x228ed249A4299B231F83A502c12d904e48C5842c",
      "value": {
        "_hex": "0x32c3c7c9e3d0e1f0"
      },
      "nonce": 6565,
      "data": "0x",
      "r": "0x6605d8bf416a506e56aeaa51962baedf97d02801cd5ad699fea0444950be6f3a",
      "s": "0x3a09e25e0f47d069af6059c1869f3cef479f82cbf277728e7e3f088b2db1b797",
      "v": 27,
      "creates": null,
      "raw": "0xf86e8219a5850ba43b74008255f094228ed249a4299b231f83a502c12d904e48c5842c8832c3c7c9e3d0e1f0801ba06605d8bf416a506e56aeaa51962baedf97d02801cd5ad699fea0444950be6f3aa03a09e25e0f47d069af6059c1869f3cef479f82cbf277728e7e3f088b2db1b797",
      "networkId": 0,
      "chainId": 0
    },
    {
      "hash": "0x687e50bb41cfbd4f205e802764af0458139cc3df6f9254399fd5d3900314dab9",
      "blockHash": "0x0ed2107ebd8faf6114c5053771a6069cb8a798c15077af82a5acf9972f9dfe41",
      "blockNumber": 121876,
      "transactionIndex": 14,
      "confirmations": null,
      "from": "0xe6A7a1d47ff21B6321162AEA7C6CB457D5476Bca",
      "gasPrice": {
        "_hex": "0xba43b7400"
      },
      "gasLimit": {
        "_hex": "0x55f0"
      },
      "to": "0x027698B61229ECCa19311e977ADE3C2923D4e414",
      "value": {
        "_hex": "0x33498c39d44ef5f4"
      },
      "nonce": 6566,
      "data": "0x",
      "r": "0x0382448d0a5662ad5846443ccf48087c6db84b7aa6ded833c42a2972be65db9b",
      "s": "0x0207c33b2953afc602a1e0663c7d7a52b7ae7806f4565d2731ea95651e023754",
      "v": 28,
      "creates": null,
      "raw": "0xf86e8219a6850ba43b74008255f094027698b61229ecca19311e977ade3c2923d4e4148833498c39d44ef5f4801ca00382448d0a5662ad5846443ccf48087c6db84b7aa6ded833c42a2972be65db9ba00207c33b2953afc602a1e0663c7d7a52b7ae7806f4565d2731ea95651e023754",
      "networkId": 0,
      "chainId": 0
    },
    {
      "hash": "0x47677eeddc9c1c7e518bbdde55ee086e52d0b3d901cbecb9c63fdc2b2ae51162",
      "blockHash": "0x0ed2107ebd8faf6114c5053771a6069cb8a798c15077af82a5acf9972f9dfe41",
      "blockNumber": 121876,
      "transactionIndex": 15,
      "confirmations": null,
      "from": "0xe6A7a1d47ff21B6321162AEA7C6CB457D5476Bca",
      "gasPrice": {
        "_hex": "0xba43b7400"
      },
      "gasLimit": {
        "_hex": "0x55f0"
      },
      "to": "0xA5a5181868a8Df772f87DC95aB9B366e974Da936",
      "value": {
        "_hex": "0x3354cc20c0bc5a68"
      },
      "nonce": 6567,
      "data": "0x",
      "r": "0x410f6ffd66436cc38370dc749a84e675a309a2122731e6421e7bd43547e0bbec",
      "s": "0x786423fca87db8a9c28b3e452a61d2fc8da84fed78932c6fc5f12909db85d540",
      "v": 27,
      "creates": null,
      "raw": "0xf86e8219a7850ba43b74008255f094a5a5181868a8df772f87dc95ab9b366e974da936883354cc20c0bc5a68801ba0410f6ffd66436cc38370dc749a84e675a309a2122731e6421e7bd43547e0bbeca0786423fca87db8a9c28b3e452a61d2fc8da84fed78932c6fc5f12909db85d540",
      "networkId": 0,
      "chainId": 0
    },
    {
      "hash": "0x8bc05153649ffccb75aaae4fe84af3a34051d1dd795e831fa0727532a860af77",
      "blockHash": "0x0ed2107ebd8faf6114c5053771a6069cb8a798c15077af82a5acf9972f9dfe41",
      "blockNumber": 121876,
      "transactionIndex": 16,
      "confirmations": null,
      "from": "0xe6A7a1d47ff21B6321162AEA7C6CB457D5476Bca",
      "gasPrice": {
        "_hex": "0xba43b7400"
      },
      "gasLimit": {
        "_hex": "0x55f0"
      },
      "to": "0xF161498A7f225A91C338015ca11833B3399393A8",
      "value": {
        "_hex": "0x338196eef2595d08"
      },
      "nonce": 6568,
      "data": "0x",
      "r": "0xe480904fa17891e9cc248ab1b5d7810bbfd133047b33b687c203538f716bdc6a",
      "s": "0x642b53aa7c1cfa2c6eb5e25547a4d012a7ea160acc5b691ad39490a6168ffcb2",
      "v": 28,
      "creates": null,
      "raw": "0xf86e8219a8850ba43b74008255f094f161498a7f225a91c338015ca11833b3399393a888338196eef2595d08801ca0e480904fa17891e9cc248ab1b5d7810bbfd133047b33b687c203538f716bdc6aa0642b53aa7c1cfa2c6eb5e25547a4d012a7ea160acc5b691ad39490a6168ffcb2",
      "networkId": 0,
      "chainId": 0
    },
    {
      "hash": "0x1ebb23355ba60bcaa983905040d979af6c3b7c9c6659800505ab9afa1ac47f77",
      "blockHash": "0x0ed2107ebd8faf6114c5053771a6069cb8a798c15077af82a5acf9972f9dfe41",
      "blockNumber": 121876,
      "transactionIndex": 17,
      "confirmations": null,
      "from": "0xe6A7a1d47ff21B6321162AEA7C6CB457D5476Bca",
      "gasPrice": {
        "_hex": "0xba43b7400"
      },
      "gasLimit": {
        "_hex": "0x55f0"
      },
      "to": "0xA881a976d37b162a8e82169bf5B83a627d8A1480",
      "value": {
        "_hex": "0x344c1521cf10841c"
      },
      "nonce": 6569,
      "data": "0x",
      "r": "0x0e96b280f927bf2ec9e40789c70e295f31c3161106d59268b9d6a509fa6d0011",
      "s": "0x68af5040c963598426f1189c5f332b5230863792fec3587a19e3bbc95866ddf3",
      "v": 27,
      "creates": null,
      "raw": "0xf86e8219a9850ba43b74008255f094a881a976d37b162a8e82169bf5b83a627d8a148088344c1521cf10841c801ba00e96b280f927bf2ec9e40789c70e295f31c3161106d59268b9d6a509fa6d0011a068af5040c963598426f1189c5f332b5230863792fec3587a19e3bbc95866ddf3",
      "networkId": 0,
      "chainId": 0
    },
    {
      "hash": "0x7eea4e731862dc5b54ade4f773d617ff3dcbd1aae8fabe9a15b7d5f77213769e",
      "blockHash": "0x0ed2107ebd8faf6114c5053771a6069cb8a798c15077af82a5acf9972f9dfe41",
      "blockNumber": 121876,
      "transactionIndex": 18,
      "confirmations": null,
      "from": "0xe6A7a1d47ff21B6321162AEA7C6CB457D5476Bca",
      "gasPrice": {
        "_hex": "0xba43b7400"
      },
      "gasLimit": {
        "_hex": "0x55f0"
      },
      "to": "0x923707da8Dd7Ff41a0bDD87b62c9E5DfA9c420a5",
      "value": {
        "_hex": "0x346b80a9c80e65e0"
      },
      "nonce": 6570,
      "data": "0x",
      "r": "0x93c6825e6afe6687e24ad0c886e984b8328cfca3c080d73c58024f3041182e5a",
      "s": "0x2f7bea4b3412057263fc43c96c9a24284ee4fc1af4580034eb3ccbf2b66226d6",
      "v": 27,
      "creates": null,
      "raw": "0xf86e8219aa850ba43b74008255f094923707da8dd7ff41a0bdd87b62c9e5dfa9c420a588346b80a9c80e65e0801ba093c6825e6afe6687e24ad0c886e984b8328cfca3c080d73c58024f3041182e5aa02f7bea4b3412057263fc43c96c9a24284ee4fc1af4580034eb3ccbf2b66226d6",
      "networkId": 0,
      "chainId": 0
    },
    {
      "hash": "0xb68254156e557de871180897d57b5aab68e3fbb77699de09aa15d0a769666342",
      "blockHash": "0x0ed2107ebd8faf6114c5053771a6069cb8a798c15077af82a5acf9972f9dfe41",
      "blockNumber": 121876,
      "transactionIndex": 19,
      "confirmations": null,
      "from": "0xe6A7a1d47ff21B6321162AEA7C6CB457D5476Bca",
      "gasPrice": {
        "_hex": "0xba43b7400"
      },
      "gasLimit": {
        "_hex": "0x55f0"
      },
      "to": "0xE21812b7c0Bd57f6922B6A5670BDAec864beEF6b",
      "value": {
        "_hex": "0x347974cd145f9480"
      },
      "nonce": 6571,
      "data": "0x",
      "r": "0x86b7aafab05307e06b03f824fce629ab2f57b84c88ef205dae71e268e76998a8",
      "s": "0x44dbbb0b5f6afd0ab0a79ea1a8d6e168336d6054fcc3cc0e7f770ab6fa9522aa",
      "v": 28,
      "creates": null,
      "raw": "0xf86e8219ab850ba43b74008255f094e21812b7c0bd57f6922b6a5670bdaec864beef6b88347974cd145f9480801ca086b7aafab05307e06b03f824fce629ab2f57b84c88ef205dae71e268e76998a8a044dbbb0b5f6afd0ab0a79ea1a8d6e168336d6054fcc3cc0e7f770ab6fa9522aa",
      "networkId": 0,
      "chainId": 0
    },
    {
      "hash": "0x4d92624ffe179a3828d6d3d63cb769a51cb39013aeadefbe77659bc17f960497",
      "blockHash": "0x0ed2107ebd8faf6114c5053771a6069cb8a798c15077af82a5acf9972f9dfe41",
      "blockNumber": 121876,
      "transactionIndex": 20,
      "confirmations": null,
      "from": "0xe6A7a1d47ff21B6321162AEA7C6CB457D5476Bca",
      "gasPrice": {
        "_hex": "0xba43b7400"
      },
      "gasLimit": {
        "_hex": "0x55f0"
      },
      "to": "0x77e41B4125b7c14757e0f07fE36b2E95db757a10",
      "value": {
        "_hex": "0x354c8aea6d192800"
      },
      "nonce": 6572,
      "data": "0x",
      "r": "0xc2b5c72115032eee88ebd412242988a80e536b08d87d7c9c744c21fc23024f1f",
      "s": "0x06afb60907ff37040092c7f2e2552737d12c1157da3dd367af13de7b293ce270",
      "v": 27,
      "creates": null,
      "raw": "0xf86e8219ac850ba43b74008255f09477e41b4125b7c14757e0f07fe36b2e95db757a1088354c8aea6d192800801ba0c2b5c72115032eee88ebd412242988a80e536b08d87d7c9c744c21fc23024f1fa006afb60907ff37040092c7f2e2552737d12c1157da3dd367af13de7b293ce270",
      "networkId": 0,
      "chainId": 0
    },
    {
      "hash": "0x3fa79ad888c327c3526ea9610ad0dff29127a9607e804f1abf75b73c32a612b2",
      "blockHash": "0x0ed2107ebd8faf6114c5053771a6069cb8a798c15077af82a5acf9972f9dfe41",
      "blockNumber": 121876,
      "transactionIndex": 21,
      "confirmations": null,
      "from": "0xe6A7a1d47ff21B6321162AEA7C6CB457D5476Bca",
      "gasPrice": {
        "_hex": "0xba43b7400"
      },
      "gasLimit": {
        "_hex": "0x55f0"
      },
      "to": "0x0e308556B1C6EEB7457a08f91D5E132b4a54C9F1",
      "value": {
        "_hex": "0x354c9142a1f3fe20"
      },
      "nonce": 6573,
      "data": "0x",
      "r": "0x59df3b2a87a4d206daec101aafb8cf5170d37d46e5ba7a5e55efa247139edd1d",
      "s": "0x5feefc6f0d1747f414e8b1899cd3fb345578923549b44674d561e3de70ebc538",
      "v": 27,
      "creates": null,
      "raw": "0xf86e8219ad850ba43b74008255f0940e308556b1c6eeb7457a08f91d5e132b4a54c9f188354c9142a1f3fe20801ba059df3b2a87a4d206daec101aafb8cf5170d37d46e5ba7a5e55efa247139edd1da05feefc6f0d1747f414e8b1899cd3fb345578923549b44674d561e3de70ebc538",
      "networkId": 0,
      "chainId": 0
    },
    {
      "hash": "0x701060c534a922060f1e20923b9bd437eab2ee6872c1a1acc926b79bfd3d1c69",
      "blockHash": "0x0ed2107ebd8faf6114c5053771a6069cb8a798c15077af82a5acf9972f9dfe41",
      "blockNumber": 121876,
      "transactionIndex": 22,
      "confirmations": null,
      "from": "0xe6A7a1d47ff21B6321162AEA7C6CB457D5476Bca",
      "gasPrice": {
        "_hex": "0xba43b7400"
      },
      "gasLimit": {
        "_hex": "0x55f0"
      },
      "to": "0xe33977E292cceF99Ea8828733e97562F3690a8ad",
      "value": {
        "_hex": "0x357331111b7ba498"
      },
      "nonce": 6574,
      "data": "0x",
      "r": "0xa4a4486e55523aadfd0bec1039dc8dadacde8d16b2b538a665be24c0384425ae",
      "s": "0x1e6a69fa56e68a63c7ab14625e3241eb5b8c8aa4bef33a32e89bb6794c46d297",
      "v": 28,
      "creates": null,
      "raw": "0xf86e8219ae850ba43b74008255f094e33977e292ccef99ea8828733e97562f3690a8ad88357331111b7ba498801ca0a4a4486e55523aadfd0bec1039dc8dadacde8d16b2b538a665be24c0384425aea01e6a69fa56e68a63c7ab14625e3241eb5b8c8aa4bef33a32e89bb6794c46d297",
      "networkId": 0,
      "chainId": 0
    },
    {
      "hash": "0xfd570e48f96e27809817262db633d0459aa00e9b68c0478717440190e233a0d4",
      "blockHash": "0x0ed2107ebd8faf6114c5053771a6069cb8a798c15077af82a5acf9972f9dfe41",
      "blockNumber": 121876,
      "transactionIndex": 23,
      "confirmations": null,
      "from": "0xe6A7a1d47ff21B6321162AEA7C6CB457D5476Bca",
      "gasPrice": {
        "_hex": "0xba43b7400"
      },
      "gasLimit": {
        "_hex": "0x55f0"
      },
      "to": "0xec4B2cCFC84A4C62d73D56c44917986aAAaEe10f",
      "value": {
        "_hex": "0x35d4bc345b9c75d8"
      },
      "nonce": 6575,
      "data": "0x",
      "r": "0xe25d8c70036a88a8f6ce3f267cc9cdcb344d65d58804eec3524ba7b31d3d3da1",
      "s": "0x459be3fa158f664f90181165fc3ea5cb8e507341a3492fccbb5f194547259237",
      "v": 28,
      "creates": null,
      "raw": "0xf86e8219af850ba43b74008255f094ec4b2ccfc84a4c62d73d56c44917986aaaaee10f8835d4bc345b9c75d8801ca0e25d8c70036a88a8f6ce3f267cc9cdcb344d65d58804eec3524ba7b31d3d3da1a0459be3fa158f664f90181165fc3ea5cb8e507341a3492fccbb5f194547259237",
      "networkId": 0,
      "chainId": 0
    },
    {
      "hash": "0xafc1f62ee19ca0a56479f48826ac805ca7018b2b772a1c32e3bd61194adde4e4",
      "blockHash": "0x0ed2107ebd8faf6114c5053771a6069cb8a798c15077af82a5acf9972f9dfe41",
      "blockNumber": 121876,
      "transactionIndex": 24,
      "confirmations": null,
      "from": "0xe6A7a1d47ff21B6321162AEA7C6CB457D5476Bca",
      "gasPrice": {
        "_hex": "0xba43b7400"
      },
      "gasLimit": {
        "_hex": "0x55f0"
      },
      "to": "0xcA422f88253D0492F13F304eBCF34892B3c07AEc",
      "value": {
        "_hex": "0x35d523c711e068f0"
      },
      "nonce": 6576,
      "data": "0x",
      "r": "0xdedce0025312e32c2088fac0bb7d97fe4b6c253f5962b40b1aadf9424bc093ec",
      "s": "0x6c8d6c1e830465903fddabc116b40dd725b22dbed23ad2397d930b61a22ef0cc",
      "v": 27,
      "creates": null,
      "raw": "0xf86e8219b0850ba43b74008255f094ca422f88253d0492f13f304ebcf34892b3c07aec8835d523c711e068f0801ba0dedce0025312e32c2088fac0bb7d97fe4b6c253f5962b40b1aadf9424bc093eca06c8d6c1e830465903fddabc116b40dd725b22dbed23ad2397d930b61a22ef0cc",
      "networkId": 0,
      "chainId": 0
    },
    {
      "hash": "0x9d0ea3d1a6f8d666c25183c867a105e3dd64b2ebd29e2030f2840aa8a1d7dd1a",
      "blockHash": "0x0ed2107ebd8faf6114c5053771a6069cb8a798c15077af82a5acf9972f9dfe41",
      "blockNumber": 121876,
      "transactionIndex": 25,
      "confirmations": null,
      "from": "0xe6A7a1d47ff21B6321162AEA7C6CB457D5476Bca",
      "gasPrice": {
        "_hex": "0xba43b7400"
      },
      "gasLimit": {
        "_hex": "0x55f0"
      },
      "to": "0x52EEf4DAe819bae2d76E107069479e904e70b849",
      "value": {
        "_hex": "0x35df9f1d70525200"
      },
      "nonce": 6577,
      "data": "0x",
      "r": "0x8b8ee57a7061bb0068cf65066e99a438fc5cad37576ae011718378f2cd6c0e92",
      "s": "0x3909b2f4026629ff151fb108c693d168969649e019752b9b65f6df3fcb4fe114",
      "v": 27,
      "creates": null,
      "raw": "0xf86e8219b1850ba43b74008255f09452eef4dae819bae2d76e107069479e904e70b8498835df9f1d70525200801ba08b8ee57a7061bb0068cf65066e99a438fc5cad37576ae011718378f2cd6c0e92a03909b2f4026629ff151fb108c693d168969649e019752b9b65f6df3fcb4fe114",
      "networkId": 0,
      "chainId": 0
    },
    {
      "hash": "0x7246b43f1ad280389dd7ec43e2e02c35dbf8218bbd962b2f2e955062bc9e97e0",
      "blockHash": "0x0ed2107ebd8faf6114c5053771a6069cb8a798c15077af82a5acf9972f9dfe41",
      "blockNumber": 121876,
      "transactionIndex": 26,
      "confirmations": null,
      "from": "0xe6A7a1d47ff21B6321162AEA7C6CB457D5476Bca",
      "gasPrice": {
        "_hex": "0xba43b7400"
      },
      "gasLimit": {
        "_hex": "0x55f0"
      },
      "to": "0xF0224ea727d4924A8dd69a8d2d473Cc4c3590423",
      "value": {
        "_hex": "0x3680637059d85408"
      },
      "nonce": 6578,
      "data": "0x",
      "r": "0x13371c20e8032771b8e19b5dd8b0bf0046b9ceb7163523be96dfe911b8a63010",
      "s": "0x74e9f70991ee6f61ee944c3cc7fd4e5f8d8d09088f46804c2db83965996f4edf",
      "v": 28,
      "creates": null,
      "raw": "0xf86e8219b2850ba43b74008255f094f0224ea727d4924a8dd69a8d2d473cc4c3590423883680637059d85408801ca013371c20e8032771b8e19b5dd8b0bf0046b9ceb7163523be96dfe911b8a63010a074e9f70991ee6f61ee944c3cc7fd4e5f8d8d09088f46804c2db83965996f4edf",
      "networkId": 0,
      "chainId": 0
    },
    {
      "hash": "0xf76cbe6d355f5746c6c6eeb9ed98648e49cecd6fa8b6486c701b530e2f0fc3dc",
      "blockHash": "0x0ed2107ebd8faf6114c5053771a6069cb8a798c15077af82a5acf9972f9dfe41",
      "blockNumber": 121876,
      "transactionIndex": 27,
      "confirmations": null,
      "from": "0xe6A7a1d47ff21B6321162AEA7C6CB457D5476Bca",
      "gasPrice": {
        "_hex": "0xba43b7400"
      },
      "gasLimit": {
        "_hex": "0x55f0"
      },
      "to": "0x2B15C5211bdA6A867c582080536f6c61766aA5Af",
      "value": {
        "_hex": "0x38337ac8c6cefe30"
      },
      "nonce": 6579,
      "data": "0x",
      "r": "0x304daf0d172cfd18c408ce894b1e4d6fbb5d3333853432164b238fc246862fef",
      "s": "0x681a00ac460bb39b5095cec125d4b6022ff28e1dfe2ab5f6d433cad6bda965cf",
      "v": 28,
      "creates": null,
      "raw": "0xf86e8219b3850ba43b74008255f0942b15c5211bda6a867c582080536f6c61766aa5af8838337ac8c6cefe30801ca0304daf0d172cfd18c408ce894b1e4d6fbb5d3333853432164b238fc246862fefa0681a00ac460bb39b5095cec125d4b6022ff28e1dfe2ab5f6d433cad6bda965cf",
      "networkId": 0,
      "chainId": 0
    },
    {
      "hash": "0x6038c717147f91979aaca639d6121563b8e9edd13896d566ea61dc8f46c11e4e",
      "blockHash": "0x0ed2107ebd8faf6114c5053771a6069cb8a798c15077af82a5acf9972f9dfe41",
      "blockNumber": 121876,
      "transactionIndex": 28,
      "confirmations": null,
      "from": "0xe6A7a1d47ff21B6321162AEA7C6CB457D5476Bca",
      "gasPrice": {
        "_hex": "0xba43b7400"
      },
      "gasLimit": {
        "_hex": "0x55f0"
      },
      "to": "0xC8E61bFB4846B622B084B98Bc586388aFCb70d5F",
      "value": {
        "_hex": "0x38720cdf32ef2d38"
      },
      "nonce": 6580,
      "data": "0x",
      "r": "0x55090ee580e46109da1c713aa9ce664d6e8db01ebaa0f65b6b8203356b377c26",
      "s": "0x66d8435b9639a105dc48abbcd9cf949d672e82e71b2b76c4089dec6b2cc7bfaa",
      "v": 28,
      "creates": null,
      "raw": "0xf86e8219b4850ba43b74008255f094c8e61bfb4846b622b084b98bc586388afcb70d5f8838720cdf32ef2d38801ca055090ee580e46109da1c713aa9ce664d6e8db01ebaa0f65b6b8203356b377c26a066d8435b9639a105dc48abbcd9cf949d672e82e71b2b76c4089dec6b2cc7bfaa",
      "networkId": 0,
      "chainId": 0
    },
    {
      "hash": "0xb2fcf60ab201414580b7b804b8856d8a18957c12dda1712be01c03c5b3acf381",
      "blockHash": "0x0ed2107ebd8faf6114c5053771a6069cb8a798c15077af82a5acf9972f9dfe41",
      "blockNumber": 121876,
      "transactionIndex": 29,
      "confirmations": null,
      "from": "0xe6A7a1d47ff21B6321162AEA7C6CB457D5476Bca",
      "gasPrice": {
        "_hex": "0xba43b7400"
      },
      "gasLimit": {
        "_hex": "0x55f0"
      },
      "to": "0xbc681E36E2BC0d9Cb397811ce7a5821da2D66059",
      "value": {
        "_hex": "0x38eac035ee71fba8"
      },
      "nonce": 6581,
      "data": "0x",
      "r": "0x02e52381c093421d13b6435e3ee4c2ed751b0e9d0031c08c8242f97020620323",
      "s": "0x6fb7287567ca10ba9a472d140c87ecb31bf542281ff66d7c254f137e85387c58",
      "v": 27,
      "creates": null,
      "raw": "0xf86e8219b5850ba43b74008255f094bc681e36e2bc0d9cb397811ce7a5821da2d660598838eac035ee71fba8801ba002e52381c093421d13b6435e3ee4c2ed751b0e9d0031c08c8242f97020620323a06fb7287567ca10ba9a472d140c87ecb31bf542281ff66d7c254f137e85387c58",
      "networkId": 0,
      "chainId": 0
    },
    {
      "hash": "0xb8356548689b10936fce1cc01ecc7bc1994bb1df225c36b8b12fae1d70bbd3be",
      "blockHash": "0x0ed2107ebd8faf6114c5053771a6069cb8a798c15077af82a5acf9972f9dfe41",
      "blockNumber": 121876,
      "transactionIndex": 30,
      "confirmations": null,
      "from": "0xe6A7a1d47ff21B6321162AEA7C6CB457D5476Bca",
      "gasPrice": {
        "_hex": "0xba43b7400"
      },
      "gasLimit": {
        "_hex": "0x55f0"
      },
      "to": "0x10BD1134A760f6b35247e3cb33673a18bC95a7E7",
      "value": {
        "_hex": "0x39351fb6c3f76360"
      },
      "nonce": 6582,
      "data": "0x",
      "r": "0xd58dc4934118f82af9e9d6cbba7c68114f42f9cdfc68f86ede28a303a8481033",
      "s": "0x599d051f0a7ccbe28f10d52a13dca8397f3841fcfb28b84105ab7b42a55088ad",
      "v": 27,
      "creates": null,
      "raw": "0xf86e8219b6850ba43b74008255f09410bd1134a760f6b35247e3cb33673a18bc95a7e78839351fb6c3f76360801ba0d58dc4934118f82af9e9d6cbba7c68114f42f9cdfc68f86ede28a303a8481033a0599d051f0a7ccbe28f10d52a13dca8397f3841fcfb28b84105ab7b42a55088ad",
      "networkId": 0,
      "chainId": 0
    },
    {
      "hash": "0x0dac31a1e87e3a851440860238a027208d8f50281855e759b7c23f16eab25142",
      "blockHash": "0x0ed2107ebd8faf6114c5053771a6069cb8a798c15077af82a5acf9972f9dfe41",
      "blockNumber": 121876,
      "transactionIndex": 31,
      "confirmations": null,
      "from": "0xe6A7a1d47ff21B6321162AEA7C6CB457D5476Bca",
      "gasPrice": {
        "_hex": "0xba43b7400"
      },
      "gasLimit": {
        "_hex": "0x55f0"
      },
      "to": "0x629e35e0A481d821293F354E0dD27E43a354D061",
      "value": {
        "_hex": "0x395a47b13d1f59f4"
      },
      "nonce": 6583,
      "data": "0x",
      "r": "0x28a2407178e4b819fe97981d40b8b6bba24c18da980030823728511392bf1dde",
      "s": "0x61462ac9b99080ee64913c0944bd1ec63dbc782ea5f1af5a9240aa376b2165e5",
      "v": 27,
      "creates": null,
      "raw": "0xf86e8219b7850ba43b74008255f094629e35e0a481d821293f354e0dd27e43a354d06188395a47b13d1f59f4801ba028a2407178e4b819fe97981d40b8b6bba24c18da980030823728511392bf1ddea061462ac9b99080ee64913c0944bd1ec63dbc782ea5f1af5a9240aa376b2165e5",
      "networkId": 0,
      "chainId": 0
    },
    {
      "hash": "0x56094f44959b605e1ae1915f34e82b5e30e6f62ac6c9e8b95b90703f784029be",
      "blockHash": "0x0ed2107ebd8faf6114c5053771a6069cb8a798c15077af82a5acf9972f9dfe41",
      "blockNumber": 121876,
      "transactionIndex": 32,
      "confirmations": null,
      "from": "0xe6A7a1d47ff21B6321162AEA7C6CB457D5476Bca",
      "gasPrice": {
        "_hex": "0xba43b7400"
      },
      "gasLimit": {
        "_hex": "0x55f0"
      },
      "to": "0x211D45933Ef88c3D7aD0120942CF50ab506e618F",
      "value": {
        "_hex": "0x3af1976b13f4de30"
      },
      "nonce": 6584,
      "data": "0x",
      "r": "0xab7b3cadfbf2574b5bfac9db2ddb55424a6929461406218901520ab3e367e004",
      "s": "0x0d3d9f9f1ea5b9184cb9f17b3e8996f099b3191676d0df007edde42155673a95",
      "v": 28,
      "creates": null,
      "raw": "0xf86e8219b8850ba43b74008255f094211d45933ef88c3d7ad0120942cf50ab506e618f883af1976b13f4de30801ca0ab7b3cadfbf2574b5bfac9db2ddb55424a6929461406218901520ab3e367e004a00d3d9f9f1ea5b9184cb9f17b3e8996f099b3191676d0df007edde42155673a95",
      "networkId": 0,
      "chainId": 0
    },
    {
      "hash": "0x8d230dcd62e8f7645e5b3927c51163261b29d8a50f8c6a280a1436787f96aefb",
      "blockHash": "0x0ed2107ebd8faf6114c5053771a6069cb8a798c15077af82a5acf9972f9dfe41",
      "blockNumber": 121876,
      "transactionIndex": 33,
      "confirmations": null,
      "from": "0xe6A7a1d47ff21B6321162AEA7C6CB457D5476Bca",
      "gasPrice": {
        "_hex": "0xba43b7400"
      },
      "gasLimit": {
        "_hex": "0x55f0"
      },
      "to": "0x7550E0d09f273C690454B44F794D7D381B2E55EA",
      "value": {
        "_hex": "0x3b110223e16b0424"
      },
      "nonce": 6585,
      "data": "0x",
      "r": "0x13a9ffac3615a86b380209d84bbf66167abfcbcc19ce4f8f8d125d2ec976e2b9",
      "s": "0x0c0576fd4f5ab649c0eaa52a396d540813b25aa6224b9b423c681fe36102bf56",
      "v": 27,
      "creates": null,
      "raw": "0xf86e8219b9850ba43b74008255f0947550e0d09f273c690454b44f794d7d381b2e55ea883b110223e16b0424801ba013a9ffac3615a86b380209d84bbf66167abfcbcc19ce4f8f8d125d2ec976e2b9a00c0576fd4f5ab649c0eaa52a396d540813b25aa6224b9b423c681fe36102bf56",
      "networkId": 0,
      "chainId": 0
    },
    {
      "hash": "0x1ece3cce0c05c9bed3c7d546422c57ee991166ee4e222b9443530829a9e3c1ba",
      "blockHash": "0x0ed2107ebd8faf6114c5053771a6069cb8a798c15077af82a5acf9972f9dfe41",
      "blockNumber": 121876,
      "transactionIndex": 34,
      "confirmations": null,
      "from": "0xe6A7a1d47ff21B6321162AEA7C6CB457D5476Bca",
      "gasPrice": {
        "_hex": "0xba43b7400"
      },
      "gasLimit": {
        "_hex": "0x55f0"
      },
      "to": "0xd8F5f0458bDA93A6d2ffA08cee7c1A0CbeA410aE",
      "value": {
        "_hex": "0x3c12bd7fc4549de0"
      },
      "nonce": 6586,
      "data": "0x",
      "r": "0x06800af36be4dae07da6eba4ba8b4151aca8358e8d3f01227561de8b6bf21a18",
      "s": "0x7fb501b788149855dc37d6036765c26c7ccd556af4f5148c2ec39fae1c267345",
      "v": 28,
      "creates": null,
      "raw": "0xf86e8219ba850ba43b74008255f094d8f5f0458bda93a6d2ffa08cee7c1a0cbea410ae883c12bd7fc4549de0801ca006800af36be4dae07da6eba4ba8b4151aca8358e8d3f01227561de8b6bf21a18a07fb501b788149855dc37d6036765c26c7ccd556af4f5148c2ec39fae1c267345",
      "networkId": 0,
      "chainId": 0
    },
    {
      "hash": "0xeac46e4e3a7d2d503f41d2db6f21ffc0eb9298f3cba3b7793f098538aea77ad7",
      "blockHash": "0x0ed2107ebd8faf6114c5053771a6069cb8a798c15077af82a5acf9972f9dfe41",
      "blockNumber": 121876,
      "transactionIndex": 35,
      "confirmations": null,
      "from": "0xe6A7a1d47ff21B6321162AEA7C6CB457D5476Bca",
      "gasPrice": {
        "_hex": "0xba43b7400"
      },
      "gasLimit": {
        "_hex": "0x55f0"
      },
      "to": "0x59C7860aBcb1eE791165B63365c3C8657EEe54c5",
      "value": {
        "_hex": "0x3c382fbabb161e0c"
      },
      "nonce": 6587,
      "data": "0x",
      "r": "0x79a874b2daae25d93da054a00926b13beb3c501cb4985a8dc5af4abae698e1ee",
      "s": "0x5d8dd1c98e03debb819540a310b6e8aba1833100f8c80b798e0d12c3517e2636",
      "v": 28,
      "creates": null,
      "raw": "0xf86e8219bb850ba43b74008255f09459c7860abcb1ee791165b63365c3c8657eee54c5883c382fbabb161e0c801ca079a874b2daae25d93da054a00926b13beb3c501cb4985a8dc5af4abae698e1eea05d8dd1c98e03debb819540a310b6e8aba1833100f8c80b798e0d12c3517e2636",
      "networkId": 0,
      "chainId": 0
    },
    {
      "hash": "0x2ff22dece4a285881f9255ed1441791eea2bf7d34d081047862501b15448fd52",
      "blockHash": "0x0ed2107ebd8faf6114c5053771a6069cb8a798c15077af82a5acf9972f9dfe41",
      "blockNumber": 121876,
      "transactionIndex": 36,
      "confirmations": null,
      "from": "0xe6A7a1d47ff21B6321162AEA7C6CB457D5476Bca",
      "gasPrice": {
        "_hex": "0xba43b7400"
      },
      "gasLimit": {
        "_hex": "0x55f0"
      },
      "to": "0x0a58b1C9aaF19693813c11b8a20D20C2a8Fe8883",
      "value": {
        "_hex": "0x3d01c52aa3091b00"
      },
      "nonce": 6588,
      "data": "0x",
      "r": "0xa1ee5d2b8b5dfec1f1b4b96bf50f9c59effbe9df9d56c171aa0af7ffd427c2d9",
      "s": "0x10725758dcd989bbadb6b0b95980a5e6fd95533adc9b47fb81ec1a230317719c",
      "v": 27,
      "creates": null,
      "raw": "0xf86e8219bc850ba43b74008255f0940a58b1c9aaf19693813c11b8a20d20c2a8fe8883883d01c52aa3091b00801ba0a1ee5d2b8b5dfec1f1b4b96bf50f9c59effbe9df9d56c171aa0af7ffd427c2d9a010725758dcd989bbadb6b0b95980a5e6fd95533adc9b47fb81ec1a230317719c",
      "networkId": 0,
      "chainId": 0
    },
    {
      "hash": "0xbb8660462e52ce4ce0ae997ea70e907cad7bd9518e26e7e5871c94cbb419a292",
      "blockHash": "0x0ed2107ebd8faf6114c5053771a6069cb8a798c15077af82a5acf9972f9dfe41",
      "blockNumber": 121876,
      "transactionIndex": 37,
      "confirmations": null,
      "from": "0xe6A7a1d47ff21B6321162AEA7C6CB457D5476Bca",
      "gasPrice": {
        "_hex": "0xba43b7400"
      },
      "gasLimit": {
        "_hex": "0x55f0"
      },
      "to": "0xadBC4B2dc881a1C624ee11c526e818f91378D410",
      "value": {
        "_hex": "0x3d731c86b8938fe4"
      },
      "nonce": 6589,
      "data": "0x",
      "r": "0xb83c279712f06cda2d2d00715cd1419e7544f29153837988b119055aea8a9fc3",
      "s": "0x3f8538d594aa282d25670a76fe69aec9869aa723523de2e5e3c2c4a8b40d4885",
      "v": 28,
      "creates": null,
      "raw": "0xf86e8219bd850ba43b74008255f094adbc4b2dc881a1c624ee11c526e818f91378d410883d731c86b8938fe4801ca0b83c279712f06cda2d2d00715cd1419e7544f29153837988b119055aea8a9fc3a03f8538d594aa282d25670a76fe69aec9869aa723523de2e5e3c2c4a8b40d4885",
      "networkId": 0,
      "chainId": 0
    },
    {
      "hash": "0xa32d89bf0ec5c7dde7b1eb2fe74c8dd73680794b16ee95794be0d459e66e10e7",
      "blockHash": "0x0ed2107ebd8faf6114c5053771a6069cb8a798c15077af82a5acf9972f9dfe41",
      "blockNumber": 121876,
      "transactionIndex": 38,
      "confirmations": null,
      "from": "0xe6A7a1d47ff21B6321162AEA7C6CB457D5476Bca",
      "gasPrice": {
        "_hex": "0xba43b7400"
      },
      "gasLimit": {
        "_hex": "0x55f0"
      },
      "to": "0x3B6C409e2ADC909C20B59DF21a7c48F44c259F24",
      "value": {
        "_hex": "0x3dd649d43984f010"
      },
      "nonce": 6590,
      "data": "0x",
      "r": "0xdb8c5d2e1cdd912a928d44820b6071de31470136f3d619b3765dd261c40d2f5d",
      "s": "0x6da6fba68b2e28c6aec501767ca1ee50e3396ac002c3702b57cbc7590d23a16b",
      "v": 27,
      "creates": null,
      "raw": "0xf86e8219be850ba43b74008255f0943b6c409e2adc909c20b59df21a7c48f44c259f24883dd649d43984f010801ba0db8c5d2e1cdd912a928d44820b6071de31470136f3d619b3765dd261c40d2f5da06da6fba68b2e28c6aec501767ca1ee50e3396ac002c3702b57cbc7590d23a16b",
      "networkId": 0,
      "chainId": 0
    },
    {
      "hash": "0x2d92463bb659b1e8cbabf1b88086bd90121a4ceea0929491316ea7d9774a8564",
      "blockHash": "0x0ed2107ebd8faf6114c5053771a6069cb8a798c15077af82a5acf9972f9dfe41",
      "blockNumber": 121876,
      "transactionIndex": 39,
      "confirmations": null,
      "from": "0xe6A7a1d47ff21B6321162AEA7C6CB457D5476Bca",
      "gasPrice": {
        "_hex": "0xba43b7400"
      },
      "gasLimit": {
        "_hex": "0x55f0"
      },
      "to": "0xD51361E8863b74B1d3BF75246d30f33f9f103e1d",
      "value": {
        "_hex": "0x3e0efa3aca492428"
      },
      "nonce": 6591,
      "data": "0x",
      "r": "0xf0a8c9c46dd04691603ec06ad5c7bb2c8569827e0c15a204004fb05fa8f6b26e",
      "s": "0x22fb481d3cfc91c3dc4758d20540b21bbfd4029cd7fb3a481977758c6ac54b4b",
      "v": 27,
      "creates": null,
      "raw": "0xf86e8219bf850ba43b74008255f094d51361e8863b74b1d3bf75246d30f33f9f103e1d883e0efa3aca492428801ba0f0a8c9c46dd04691603ec06ad5c7bb2c8569827e0c15a204004fb05fa8f6b26ea022fb481d3cfc91c3dc4758d20540b21bbfd4029cd7fb3a481977758c6ac54b4b",
      "networkId": 0,
      "chainId": 0
    },
    {
      "hash": "0xbf4b1ce0c163a442f1a53413e08b3d3fac58de142e0fc1f641ad79b99c98ec2a",
      "blockHash": "0x0ed2107ebd8faf6114c5053771a6069cb8a798c15077af82a5acf9972f9dfe41",
      "blockNumber": 121876,
      "transactionIndex": 40,
      "confirmations": null,
      "from": "0xe6A7a1d47ff21B6321162AEA7C6CB457D5476Bca",
      "gasPrice": {
        "_hex": "0xba43b7400"
      },
      "gasLimit": {
        "_hex": "0x55f0"
      },
      "to": "0x378fCAEF49580b550cB7164f14811a5E613BD683",
      "value": {
        "_hex": "0x3eac2fcebf226408"
      },
      "nonce": 6592,
      "data": "0x",
      "r": "0xd801c8db2219425195317ebac34cf0484005a36a92c90a852a38bf11137daf29",
      "s": "0x01a2653df53dde776822d2ac0e4c65f864e47fbb15fb2dc1c0fc60caaf693622",
      "v": 28,
      "creates": null,
      "raw": "0xf86e8219c0850ba43b74008255f094378fcaef49580b550cb7164f14811a5e613bd683883eac2fcebf226408801ca0d801c8db2219425195317ebac34cf0484005a36a92c90a852a38bf11137daf29a001a2653df53dde776822d2ac0e4c65f864e47fbb15fb2dc1c0fc60caaf693622",
      "networkId": 0,
      "chainId": 0
    },
    {
      "hash": "0xd22f72b86187db0f5947434702fcc698096e6d442be04391f75b4c63826b2842",
      "blockHash": "0x0ed2107ebd8faf6114c5053771a6069cb8a798c15077af82a5acf9972f9dfe41",
      "blockNumber": 121876,
      "transactionIndex": 41,
      "confirmations": null,
      "from": "0xe6A7a1d47ff21B6321162AEA7C6CB457D5476Bca",
      "gasPrice": {
        "_hex": "0xba43b7400"
      },
      "gasLimit": {
        "_hex": "0x55f0"
      },
      "to": "0x314D012beD8f104C4ab11ad41B96b2c5Ecf7B96c",
      "value": {
        "_hex": "0x3f375029ae4e7e58"
      },
      "nonce": 6593,
      "data": "0x",
      "r": "0x8d4d2d727ba652e693caa9fb3b7570c56603c2c65ff662496524e4c45a0d4b6e",
      "s": "0x63cf6bb12fb0cec6efe261e5159988fd2a328adc843ce573ea41e9445526631a",
      "v": 28,
      "creates": null,
      "raw": "0xf86e8219c1850ba43b74008255f094314d012bed8f104c4ab11ad41b96b2c5ecf7b96c883f375029ae4e7e58801ca08d4d2d727ba652e693caa9fb3b7570c56603c2c65ff662496524e4c45a0d4b6ea063cf6bb12fb0cec6efe261e5159988fd2a328adc843ce573ea41e9445526631a",
      "networkId": 0,
      "chainId": 0
    },
    {
      "hash": "0x7e74216ad1c51e45533c19c1a501a7c1461aa7adeb5eb146dde0d3d7ca34b784",
      "blockHash": "0x0ed2107ebd8faf6114c5053771a6069cb8a798c15077af82a5acf9972f9dfe41",
      "blockNumber": 121876,
      "transactionIndex": 42,
      "confirmations": null,
      "from": "0xe6A7a1d47ff21B6321162AEA7C6CB457D5476Bca",
      "gasPrice": {
        "_hex": "0xba43b7400"
      },
      "gasLimit": {
        "_hex": "0x55f0"
      },
      "to": "0xaa71fa80d26F718E6A3c87e41D817b8D10944a63",
      "value": {
        "_hex": "0x3f428e6b85cde9d8"
      },
      "nonce": 6594,
      "data": "0x",
      "r": "0xf79e2cd3161b732643f5edc608da3aee69d77cddd523e2910438716a4275e840",
      "s": "0x7a69910a8cd8dda672fbe710af7e5c6dbc7ca907b2f03176f7fc5434e4898887",
      "v": 28,
      "creates": null,
      "raw": "0xf86e8219c2850ba43b74008255f094aa71fa80d26f718e6a3c87e41d817b8d10944a63883f428e6b85cde9d8801ca0f79e2cd3161b732643f5edc608da3aee69d77cddd523e2910438716a4275e840a07a69910a8cd8dda672fbe710af7e5c6dbc7ca907b2f03176f7fc5434e4898887",
      "networkId": 0,
      "chainId": 0
    },
    {
      "hash": "0x70f0068ae76ee410b7d97f58b50e23d90d46aaa7a8c21a21a0003274407e29b1",
      "blockHash": "0x0ed2107ebd8faf6114c5053771a6069cb8a798c15077af82a5acf9972f9dfe41",
      "blockNumber": 121876,
      "transactionIndex": 43,
      "confirmations": null,
      "from": "0xe6A7a1d47ff21B6321162AEA7C6CB457D5476Bca",
      "gasPrice": {
        "_hex": "0xba43b7400"
      },
      "gasLimit": {
        "_hex": "0x55f0"
      },
      "to": "0x248aCc54C440214585155Ba4fe5c9706Fb234061",
      "value": {
        "_hex": "0x3f4dc971cb9fb1d4"
      },
      "nonce": 6595,
      "data": "0x",
      "r": "0x2c8b1ea6b6328b6b23ce651ecb82240392d17665ee275944dc77344c874c436c",
      "s": "0x58a9caed7509e76f591ac032cb18fee6407fff2f251e78197f82cf063cad5ea6",
      "v": 27,
      "creates": null,
      "raw": "0xf86e8219c3850ba43b74008255f094248acc54c440214585155ba4fe5c9706fb234061883f4dc971cb9fb1d4801ba02c8b1ea6b6328b6b23ce651ecb82240392d17665ee275944dc77344c874c436ca058a9caed7509e76f591ac032cb18fee6407fff2f251e78197f82cf063cad5ea6",
      "networkId": 0,
      "chainId": 0
    },
    {
      "hash": "0x2daa3b29a2ad01f6dd87914e481690323c96382fe5ed423d30dad2048cb4ab4f",
      "blockHash": "0x0ed2107ebd8faf6114c5053771a6069cb8a798c15077af82a5acf9972f9dfe41",
      "blockNumber": 121876,
      "transactionIndex": 44,
      "confirmations": null,
      "from": "0xe6A7a1d47ff21B6321162AEA7C6CB457D5476Bca",
      "gasPrice": {
        "_hex": "0xba43b7400"
      },
      "gasLimit": {
        "_hex": "0x55f0"
      },
      "to": "0x305E8d20Ca61Ba9DD2DD18E1134e7CDB9a13F68D",
      "value": {
        "_hex": "0x3f732166a7a40ee8"
      },
      "nonce": 6596,
      "data": "0x",
      "r": "0x176038234ed5b7e132fd8efdcc2e3a8493edc9b40ffe805978656f7c894f799d",
      "s": "0x4e6cd5321a17270308193b71a11db83c0ce2f171ba07b710b541492f3bfe998c",
      "v": 27,
      "creates": null,
      "raw": "0xf86e8219c4850ba43b74008255f094305e8d20ca61ba9dd2dd18e1134e7cdb9a13f68d883f732166a7a40ee8801ba0176038234ed5b7e132fd8efdcc2e3a8493edc9b40ffe805978656f7c894f799da04e6cd5321a17270308193b71a11db83c0ce2f171ba07b710b541492f3bfe998c",
      "networkId": 0,
      "chainId": 0
    }
  ]
}