{
  "hash": "0x5e426bb563c6678bcc374a61a20137c26342ed3f2805cf3b9d8a75af316d6b45",
  "parentHash": "0xd0d345fb783e7f25d9efbf55f0a13f0aca1dc2d26b5159812278b916c217011d",
  "number": 97903,
  "timestamp": 1439763756,
  "nonce": "0xaa9aa1e2d09b50db",
  "difficulty": 3844623690023,
  "gasLimit": {
    "_hex": "0x2fefd8"
  },
  "gasUsed": {
    "_hex": "0x5208"
  },
  "miner": "0x88D74a59454F6cF3B51ef6b9136AFb6b9D405A88",
  "extraData": "0x476574682f76312e302e312d38326566323666362f6c696e75782f676f312e34",
  "transactions": [
    {
      "hash": "0x140401f34372ea9ba505891824d2439941d2024e24e0172a72fe14f22aee13fc",
      "blockHash": "0x5e426bb563c6678bcc374a61a20137c26342ed3f2805cf3b9d8a75af316d6b45",
      "blockNumber": 97903,
      "transactionIndex": 0,
      "confirmations": null,
      "from": "0x7fa165177F28D171bA7C17f765c1904344Ec64CB",
      "gasPrice": {
        "_hex": "0xd886f8ee1"
      },
      "gasLimit": {
        "_hex": "0x5208"
      },
      "to": "0x32Be343B94f860124dC4fEe278FDCBD38C102D88",
      "value": {
        "_hex": "0x1969a2137f33d9000"
      },
      "nonce": 21,
      "data": "0x",
      "r": "0xf74b692292122ecc19301b2f7cba0427fcea45919408aec507e8f756b9b1f5f0",
      "s": "0x2eec7610ba373ad96844c4e21d32df9f7988e320db8bff4a691da5849f44bf02",
      "v": 27,
      "creates": null,
      "raw": "0xf86d15850d886f8ee18252089432be343b94f860124dc4fee278fdcbd38c102d888901969a2137f33d9000801ba0f74b692292122ecc19301b2f7cba0427fcea45919408aec507e8f756b9b1f5f0a02eec7610ba373ad96844c4e21d32df9f7988e320db8bff4a691da5849f44bf02",
      "networkId": 0,
      "chainId": 0
    }
  ]
}