{
  "hash": "0x641df822aa1aba8b7517d2aa87210d4a0cc0e939259edc4f79c2911b8b0ee24a",
  "parentHash": "0xbec4d8eb024b03be02517a74a793098ab7a031fe5d44f95c56468808ce506bf2",
  "number": 86530,
  "timestamp": 1439579547,
  "nonce": "0xc16b041dc27e5207",
  "difficulty": 2896095655944,
  "gasLimit": {
    "_hex": "0x2fefd8"
  },
  "gasUsed": {
    "_hex": "0xa410"
  },
  "miner": "0xe6A7a1d47ff21B6321162AEA7C6CB457D5476Bca",
  "extraData": "0x476574682f76312e302e312d38326566323666362f6c696e75782f676f312e34",
  "transactions": [
    {
      "hash": "0xbb049d4fe9e66643c04a6779e94631b5bfe478cce6dac06d15d6116934d39808",
      "blockHash": "0x641df822aa1aba8b7517d2aa87210d4a0cc0e939259edc4f79c2911b8b0ee24a",
      "blockNumber": 86530,
      "transactionIndex": 0,
      "confirmations": null,
      "from": "0x89054430DcdC28AC15fA635EF87c105E602bf70c",
      "gasPrice": {
        "_hex": "0xde726b916"
      },
      "gasLimit": {
        "_hex": "0x15f90"
      },
      "to": "0xeFFFe92E81e65eA3AD7C8C87D370e1CD31b0cac4",
      "value": {
        "_hex": "0x65bfeda25e000"
      },
      "nonce": 2,
      "data": "0x",
      "r": "0xf129440b3bf621b24b429ef8b2d976836348f5a8e6e1de74d1d92094dc621936",
      "s": "0x2d95eb5dab9bea58548cb00a8161055357420e0092808b66c3b0569f93ac25ec",
      "v": 27,
      "creates": null,
      "raw": "0xf86c02850de726b91683015f9094efffe92e81e65ea3ad7c8c87d370e1cd31b0cac487065bfeda25e000801ba0f129440b3bf621b24b429ef8b2d976836348f5a8e6e1de74d1d92094dc621936a02d95eb5dab9bea58548cb00a8161055357420e0092808b66c3b0569f93ac25ec",
      "networkId": 0,
      "chainId": 0
    },
    {
      "hash": "0xef9922475a90701994cec66526cc49f65a08080904a71b1c89a9a659f7bf9ac2",
      "blockHash": "0x641df822aa1aba8b7517d2aa87210d4a0cc0e939259edc4f79c2911b8b0ee24a",
      "blockNumber": 86530,
      "transactionIndex": 1,
      "confirmations": null,
      "from": "0x1308A2e95c0160B90803ddCA9B9a5bb55E416d79",
      "gasPrice": {
        "_hex": "0xce4807d3a"
      },
      "gasLimit": {
        "_hex": "0x15f90"
      },
      "to": "0x3979Be329bFC1Ee0f34A038661aDB14Fc1777805",
      "value": {
        "_hex": "0xcd64299613c80000"
      },
      "nonce": 127,
      "data": "0x",
      "r": "0x61ca90d39290adea700952c618483f025bd37d24c37fce36a5bda0c20cf589fe",
      "s": "0x10eebc3f8a44699dc3fd063d44ee02cc6e6ae05b4631d999d0cb9b68d1800069",
      "v": 27,
      "creates": null,
      "raw": "0xf86d7f850ce4807d3a83015f90943979be329bfc1ee0f34a038661adb14fc177780588cd64299613c80000801ba061ca90d39290adea700952c618483f025bd37d24c37fce36a5bda0c20cf589fea010eebc3f8a44699dc3fd063d44ee02cc6e6ae05b4631d999d0cb9b68d1800069",
      "networkId": 0,
      "chainId": 0
    }
  ]
}