{
  "hash": "0x9f8fb6575f59800c84a997d804beb075b7b7ff607bca07310caeffd828286007",
  "parentHash": "0x6e2373d6349f6436323042d6c1cba33d8eb929a3ecb33d550a133c5aba189f7d",
  "number": 62705,
  "timestamp": 1439193083,
  "nonce": "0x0b08d24b198e34cb",
  "difficulty": 1764149086855,
  "gasLimit": {
    "_hex": "0x2fefd5"
  },
  "gasUsed": {
    "_hex": "0x546c"
  },
  "miner": "0xC49418429e58989172a4ACE0bab0cB8D3F00F97f",
  "extraData": "0x476574682f76312e302e312f6c696e75782f676f312e342e32",
  "transactions": [
    {
      "hash": "0xff9321a90d156101c2ff57e0bdeb759cc2b62e92eedba255afdce958f23792c1",
      "blockHash": "0x9f8fb6575f59800c84a997d804beb075b7b7ff607bca07310caeffd828286007",
      "blockNumber": 62705,
      "transactionIndex": 0,
      "confirmations": null,
      "from": "0x333Ad1596401e05Aea2d36Ca47318eF4Cd2cB3DF",
      "gasPrice": {
        "_hex": "0xd37549571"
      },
      "gasLimit": {
        "_hex": "0x55f0"
      },
      "to": "0x2910543Af39abA0Cd09dBb2D50200b3E800A63D2",
      "value": {
        "_hex": "0xf732b66015a540000"
      },
      "nonce": 5,
      "data": "0x454e59375142373547",
      "r": "0x4503d5d3445c8515143014c069406ab985694d8450f7642589f28b293a1b0d43",
      "s": "0x50e80c0d22e8e300a1b1d9e8176f1fb8ab65cb0af9600b39addda3f6ace3dd7d",
      "v": 27,
      "creates": null,
      "raw": "0xf87605850d375495718255f0942910543af39aba0cd09dbb2d50200b3e800a63d2890f732b66015a54000089454e593751423735471ba04503d5d3445c8515143014c069406ab985694d8450f7642589f28b293a1b0d43a050e80c0d22e8e300a1b1d9e8176f1fb8ab65cb0af9600b39addda3f6ace3dd7d",
      "networkId": 0,
      "chainId": 0
    }
  ]
}