{
  "hash": "0x39f7c6752ab9803de5041d5eacf6dcd0a4e3d7f358eafbda6077921980d82f8b",
  "parentHash": "0xde40725dc8187c84d0ec75ce24bd7d5e3c54dd9137b642e7ffb2633a28cb2a19",
  "number": 119443,
  "timestamp": 1440143135,
  "nonce": "0xe701e6595186f384",
  "difficulty": 4379438283294,
  "gasLimit": {
    "_hex": "0x2fefd8"
  },
  "gasUsed": {
    "_hex": "0x5208"
  },
  "miner": "0x9D49F602b0fdb924Bd63DDE2Bd0907E4A07c63a7",
  "extraData": "0x",
  "transactions": [
    {
      "hash": "0x164e5935e423e82b7d9e8e6a664ee10024fc85531102ec1051c75a9af4888ba2",
      "blockHash": "0x39f7c6752ab9803de5041d5eacf6dcd0a4e3d7f358eafbda6077921980d82f8b",
      "blockNumber": 119443,
      "transactionIndex": 0,
      "confirmations": null,
      "from": "0x0A38f5Ba343D4eA8641F955ecf98e1c43dF1B5a3",
      "gasPrice": {
        "_hex": "0xba43b7400"
      },
      "gasLimit": {
        "_hex": "0x5208"
      },
      "to": "0x32Be343B94f860124dC4fEe278FDCBD38C102D88",
      "value": {
        "_hex": "0x10d6fa17913098000"
      },
      "nonce": 9,
      "data": "0x",
      "r": "0x3a6a5a17f3a0ecd447f3d7def7328fea7664ea1cd51539a0000c1561f072667b",
      "s": "0x1fe33b2be13bd4f5b7e6e6f35b360146ee2cfa84980e0540567f4b95208b6aa2",
      "v": 28,
      "creates": null,
      "raw": "0xf86d09850ba43b74008252089432be343b94f860124dc4fee278fdcbd38c102d8889010d6fa17913098000801ca03a6a5a17f3a0ecd447f3d7def7328fea7664ea1cd51539a0000c1561f072667ba01fe33b2be13bd4f5b7e6e6f35b360146ee2cfa84980e0540567f4b95208b6aa2",
      "networkId": 0,
      "chainId": 0
    }
  ]
}