{
  "hash": "0xd829ceebe23516c38df0130e83b85d9f0e3b4c045b0d4d0e77e8a1bb69dae8c9",
  "parentHash": "0x0a0bf185ec04dac0b898edd557287ada8133fe1f18e6a993fce167521328c063",
  "number": 66656,
  "timestamp": 1439258192,
  "nonce": "0x9033298917a3e9c2",
  "difficulty": 1939465317743,
  "gasLimit": {
    "_hex": "0x2fefd8"
  },
  "gasUsed": {
    "_hex": "0x5208"
  },
  "miner": "0xbb7B8287f3F0a933474a79eAe42CBCa977791171",
  "extraData": "0x476574682f4c5649562f76312e302e312f6c696e75782f676f312e342e32",
  "transactions": [
    {
      "hash": "0xb5000f0bf7a5211413e5f7ab8019490df2a180c6e44cf82f4eb64e8d103f9843",
      "blockHash": "0xd829ceebe23516c38df0130e83b85d9f0e3b4c045b0d4d0e77e8a1bb69dae8c9",
      "blockNumber": 66656,
      "transactionIndex": 0,
      "confirmations": null,
      "from": "0x41B2D34fDE0B1029262B4172C81c1590405B03Ae",
      "gasPrice": {
        "_hex": "0xd3d37f23a"
      },
      "gasLimit": {
        "_hex": "0x15f90"
      },
      "to": "0x1Ba1A80AE240a3089fD7a78292f940d84d7074f4",
      "value": {
        "_hex": "0x874ef557a00f00000"
      },
      "nonce": 3,
      "data": "0x",
      "r": "0xd09cee27d0d360becd72902f783a5b2a358ff6eb9b4aa9a2c45af7620fed866f",
      "s": "0x01f402cae4aa6e83749cf4f518955f22575bac656d66dbee4ffafcad10d213e1",
      "v": 28,
      "creates": null,
      "raw": "0xf86e03850d3d37f23a83015f90941ba1a80ae240a3089fd7a78292f940d84d7074f4890874ef557a00f00000801ca0d09cee27d0d360becd72902f783a5b2a358ff6eb9b4aa9a2c45af7620fed866fa001f402cae4aa6e83749cf4f518955f22575bac656d66dbee4ffafcad10d213e1",
      "networkId": 0,
      "chainId": 0
    }
  ]
}