{
  "hash": "0x468888dde714a1dda9abef521f6a471be5cd0c615a62daff2b5d924ee21e0067",
  "parentHash": "0x77a7a7173eab6a3c6233e674c7f6afd17e606c9203a033dc8a8ad1363f873663",
  "number": 110266,
  "timestamp": 1439970802,
  "nonce": "0x5e8481e84ccc1f48",
  "difficulty": 4373541302652,
  "gasLimit": {
    "_hex": "0x2fefd8"
  },
  "gasUsed": {
    "_hex": "0xa410"
  },
  "miner": "0xe6A7a1d47ff21B6321162AEA7C6CB457D5476Bca",
  "extraData": "0x476574682f76312e302e312d38326566323666362f6c696e75782f676f312e34",
  "transactions": [
    {
      "hash": "0x655ba160bd13879f6cb32d4ea743223437cdf1c3620982c9c860d5bee0c8f0c2",
      "blockHash": "0x468888dde714a1dda9abef521f6a471be5cd0c615a62daff2b5d924ee21e0067",
      "blockNumber": 110266,
      "transactionIndex": 0,
      "confirmations": null,
      "from": "0xeeb66aFe554366d685C7832C6c93727Ba577378D",
      "gasPrice": {
        "_hex": "0xcd18be464"
      },
      "gasLimit": {
        "_hex": "0x5208"
      },
      "to": "0xFBb1b73C4f0BDa4f67dcA266ce6Ef42f520fBB98",
      "value": {
        "_hex": "0x40d5b9386fdf54e0"
      },
      "nonce": 4,
      "data": "0x",
      "r": "0xfb076e4a9aa018b9aebd9d1371940e4c81a725d6cab68e1a62df95746fba292e",
      "s": "0x28d89b2096c674f3d475a83a8fb1fc3225fe6eb03016373c0c67a8276375b7b5",
      "v": 28,
      "creates": null,
      "raw": "0xf86c04850cd18be46482520894fbb1b73c4f0bda4f67dca266ce6ef42f520fbb988840d5b9386fdf54e0801ca0fb076e4a9aa018b9aebd9d1371940e4c81a725d6cab68e1a62df95746fba292ea028d89b2096c674f3d475a83a8fb1fc3225fe6eb03016373c0c67a8276375b7b5",
      "networkId": 0,
      "chainId": 0
    },
    {
      "hash": "0x84510e07590bf67dbb6d0cd7f76c69df164d79a9283b4d98d0e4680201febb26",
      "blockHash": "0x468888dde714a1dda9abef521f6a471be5cd0c615a62daff2b5d924ee21e0067",
      "blockNumber": 110266,
      "transactionIndex": 1,
      "confirmations": null,
      "from": "0x91d32201228cd1Dea4e21d71f7A9e0CeF5de4A39",
      "gasPrice": {
        "_hex": "0xcd01555c5"
      },
      "gasLimit": {
        "_hex": "0x15f90"
      },
      "to": "0x65d6F6040D1B3E8E8bFD5F70B46A2dB2ADBFca9a",
      "value": {
        "_hex": "0x869d529b714a0000"
      },
      "nonce": 7,
      "data": "0x",
      "r": "0x41e7fccfef6e5ee22ada35b4ef951ed027003d7b209df133e4ba1165568f1a43",
      "s": "0x6c271d45a30cb3a08efafe8a0bc59229484e98784ffc4390cca11fa7a465d3f2",
      "v": 27,
      "creates": null,
      "raw": "0xf86d07850cd01555c583015f909465d6f6040d1b3e8e8bfd5f70b46a2db2adbfca9a88869d529b714a0000801ba041e7fccfef6e5ee22ada35b4ef951ed027003d7b209df133e4ba1165568f1a43a06c271d45a30cb3a08efafe8a0bc59229484e98784ffc4390cca11fa7a465d3f2",
      "networkId": 0,
      "chainId": 0
    }
  ]
}