{
  "hash": "0x0d5a3c1fb02570fdaaf90ffd739ea69f766450af4410e9353e7e42f49b2a4ec5",
  "parentHash": "0x88220b299971ecbe94ba4e465e8feb695a525ca4c034ec10213f6ede499e9c92",
  "number": 86149,
  "timestamp": 1439574160,
  "nonce": "0x5fd6058563ece760",
  "difficulty": 2811234651157,
  "gasLimit": {
    "_hex": "0x2fefd8"
  },
  "gasUsed": {
    "_hex": "0xf618"
  },
  "miner": "0xe6A7a1d47ff21B6321162AEA7C6CB457D5476Bca",
  "extraData": "0x476574682f76312e302e312d38326566323666362f6c696e75782f676f312e34",
  "transactions": [
    {
      "hash": "0xd87d7e3c4df4b0a280e491fbbb97ebf50a6ae0cdc3ba9fd8630249ffce89e1e9",
      "blockHash": "0x0d5a3c1fb02570fdaaf90ffd739ea69f766450af4410e9353e7e42f49b2a4ec5",
      "blockNumber": 86149,
      "transactionIndex": 0,
      "confirmations": null,
      "from": "0x2910543Af39abA0Cd09dBb2D50200b3E800A63D2",
      "gasPrice": {
        "_hex": "0xd1f284628"
      },
      "gasLimit": {
        "_hex": "0x5208"
      },
      "to": "0xdEC7d1B05f89c0Ce0870Ea4AeA18138264675478",
      "value": {
        "_hex": "0x95d965059535128000"
      },
      "nonce": 645,
      "data": "0x",
      "r": "0x498c29327a6a1ae2f48381de53b4290e52f4f03ec8d977d2c155151ac31267db",
      "s": "0x0182e16dea793b99dc5a290cef7ca536fe0018ad3d61fc1f9e462ee5614a679b",
      "v": 28,
      "creates": null,
      "raw": "0xf86f820285850d1f28462882520894dec7d1b05f89c0ce0870ea4aea181382646754788995d965059535128000801ca0498c29327a6a1ae2f48381de53b4290e52f4f03ec8d977d2c155151ac31267dba00182e16dea793b99dc5a290cef7ca536fe0018ad3d61fc1f9e462ee5614a679b",
      "networkId": 0,
      "chainId": 0
    },
    {
      "hash": "0xd97d4e5ab91f082b432cabf3937f1982dc82eae1144926bb8dda4857d90ee243",
      "blockHash": "0x0d5a3c1fb02570fdaaf90ffd739ea69f766450af4410e9353e7e42f49b2a4ec5",
      "blockNumber": 86149,
      "transactionIndex": 1,
      "confirmations": null,
      "from": "0x2910543Af39abA0Cd09dBb2D50200b3E800A63D2",
      "gasPrice": {
        "_hex": "0xd1f284628"
      },
      "gasLimit": {
        "_hex": "0x5208"
      },
      "to": "0x012f396A2B5eB83559BaC515E5210df2C8C362BA",
      "value": {
        "_hex": "0x40723be039c0000"
      },
      "nonce": 646,
      "data": "0x",
      "r": "0x88687d7dd78df88306927545eb794a1cd3b71012e0b2f2e3775f75a0cd350451",
      "s": "0x7e2f70679a070380e1d6f37c8871b4aabbfddd0228a4f63108198a809ed04eeb",
      "v": 28,
      "creates": null,
      "raw": "0xf86e820286850d1f28462882520894012f396a2b5eb83559bac515e5210df2c8c362ba88040723be039c0000801ca088687d7dd78df88306927545eb794a1cd3b71012e0b2f2e3775f75a0cd350451a07e2f70679a070380e1d6f37c8871b4aabbfddd0228a4f63108198a809ed04eeb",
      "networkId": 0,
      "chainId": 0
    },
    {
      "hash": "0xdbe31b95b124147103f70734fb0c3facc0c541cab0f1f03d41121c4b094c6b35",
      "blockHash": "0x0d5a3c1fb02570fdaaf90ffd739ea69f766450af4410e9353e7e42f49b2a4ec5",
      "blockNumber": 86149,
      "transactionIndex": 2,
      "confirmations": null,
      "from": "0x2910543Af39abA0Cd09dBb2D50200b3E800A63D2",
      "gasPrice": {
        "_hex": "0xd1f284628"
      },
      "gasLimit": {
        "_hex": "0x5208"
      },
      "to": "0x5c59E28366c83f1d262567c1c529185146e68b16",
      "value": {
        "_hex": "0x3635b7ea4ca6bf8000"
      },
      "nonce": 647,
      "data": "0x",
      "r": "0x2e18186e8652168cdb76be2c0213b6ebd4ad77106f58eaf592a3d39095f48d05",
      "s": "0x0fbd0e4a37600dd6512455944bd6c6a78300a407bdbbd7643dcff5c1d149871c",
      "v": 27,
      "creates": null,
      "raw": "0xf86f820287850d1f284628825208945c59e28366c83f1d262567c1c529185146e68b16893635b7ea4ca6bf8000801ba02e18186e8652168cdb76be2c0213b6ebd4ad77106f58eaf592a3d39095f48d05a00fbd0e4a37600dd6512455944bd6c6a78300a407bdbbd7643dcff5c1d149871c",
      "networkId": 0,
      "chainId": 0
    }
  ]
}