{
  "hash": "0x87e398ef3d6987606518ed6e538f02ff1e8c371fe54737722c8f596dba3ae2ec",
  "parentHash": "0xe68e7326e462b89873519a8d12528f95357d4b71215c57a32fe75c77b74ed5a7",
  "number": 71904,
  "timestamp": 1439343785,
  "nonce": "0xfa8737be373a633c",
  "difficulty": 2168620848106,
  "gasLimit": {
    "_hex": "0x2fefd8"
  },
  "gasUsed": {
    "_hex": "0x5208"
  },
  "miner": "0xe6A7a1d47ff21B6321162AEA7C6CB457D5476Bca",
  "extraData": "0x476574682f76312e302e312d38326566323666362f6c696e75782f676f312e34",
  "transactions": [
    {
      "hash": "0x958c960a78dbe5f507d3eb208c16bb7b4f84f68dfe5567ff31ce9941461897ee",
      "blockHash": "0x87e398ef3d6987606518ed6e538f02ff1e8c371fe54737722c8f596dba3ae2ec",
      "blockNumber": 71904,
      "transactionIndex": 0,
      "confirmations": null,
      "from": "0x26163E84886A136fC8034eB4e9F1cc00b1D345f1",
      "gasPrice": {
        "_hex": "0xd8364fc25"
      },
      "gasLimit": {
        "_hex": "0x15f90"
      },
      "to": "0x6d921977dEFE5f4e0682CA512De1D07b1f4802E1",
      "value": {
        "_hex": "0xde0b6b3a7640000"
      },
      "nonce": 1,
      "data": "0x",
      "r": "0xb435737563dbc1a71c0643ed951c47e13527462293d2dcc2447cb1380effaa6a",
      "s": "0x67ceb22d4fd5b67b01eaef3fc9fd6d4bfd9ce90b0257048188aca1ee162e91b0",
      "v": 28,
      "creates": null,
      "raw": "0xf86d01850d8364fc2583015f90946d921977defe5f4e0682ca512de1d07b1f4802e1880de0b6b3a7640000801ca0b435737563dbc1a71c0643ed951c47e13527462293d2dcc2447cb1380effaa6aa067ceb22d4fd5b67b01eaef3fc9fd6d4bfd9ce90b0257048188aca1ee162e91b0",
      "networkId": 0,
      "chainId": 0
    }
  ]
}