{
  "hash": "0xab024feaa0012017f1e101e92987fc46202523fe1d3b09902f256f587ad407b1",
  "parentHash": "0x73f131d8a05dc932b9554dfd5a31d366d9a285f66c289307262adfe5000a7abe",
  "number": 71190,
  "timestamp": 1439332114,
  "nonce": "0x60cfc405441dc991",
  "difficulty": 2147728777695,
  "gasLimit": {
    "_hex": "0x2fefd8"
  },
  "gasUsed": {
    "_hex": "0x5208"
  },
  "miner": "0x9271AB1be3177bF3E3B684a8783698F1B9D600a2",
  "extraData": "0x476574682f76312e302e312f77696e646f77732f676f312e342e32",
  "transactions": [
    {
      "hash": "0x076c9344e6a58b8a7908baff1974f6d2a897d0abf5a841731cac74a29817efe1",
      "blockHash": "0xab024feaa0012017f1e101e92987fc46202523fe1d3b09902f256f587ad407b1",
      "blockNumber": 71190,
      "transactionIndex": 0,
      "confirmations": null,
      "from": "0x1e7B5e4d1F572BEcf2c00fC90cB4767b4A6E33D4",
      "gasPrice": {
        "_hex": "0xd829211eb"
      },
      "gasLimit": {
        "_hex": "0x15f90"
      },
      "to": "0x3a5e3acAF9E194bFc9bE8a16B3f437D7eA1d7A15",
      "value": {
        "_hex": "0xa"
      },
      "nonce": 0,
      "data": "0x",
      "r": "0xbf7c252921bdb388718623afe501a848fe4d9ae8a609980c494f2dcb327f5ede",
      "s": "0x74cf6dc05af2808694617d2262f3111017a4d08b6cb9ed7b04568f79c5ea44bb",
      "v": 28,
      "creates": null,
      "raw": "0xf86580850d829211eb83015f90943a5e3acaf9e194bfc9be8a16b3f437d7ea1d7a150a801ca0bf7c252921bdb388718623afe501a848fe4d9ae8a609980c494f2dcb327f5edea074cf6dc05af2808694617d2262f3111017a4d08b6cb9ed7b04568f79c5ea44bb",
      "networkId": 0,
      "chainId": 0
    }
  ]
}