{
  "hash": "0xc56eb2af4868d4e1b9f9a7e7e75661a0336d5f690478ff0dcdf9e70fd23c2504",
  "parentHash": "0xf6871002211fd5274c91a4f6d65ae119f3d222839824fdde14c2b67808513bb1",
  "number": 71442,
  "timestamp": 1439336178,
  "nonce": "0x9a75fbc000230807",
  "difficulty": 2177228497698,
  "gasLimit": {
    "_hex": "0x2fefd8"
  },
  "gasUsed": {
    "_hex": "0x14273"
  },
  "miner": "0x458F183347F45a4001807728A89F31E9Da9D4A58",
  "extraData": "0x476574682f76312e302e312d38326566323666362f6c696e75782f676f312e34",
  "transactions": [
    {
      "hash": "0x88e34a3b4fc767b49d5c27ad45deb57211cd8f80687abf5a6eae766765b7f7cf",
      "blockHash": "0xc56eb2af4868d4e1b9f9a7e7e75661a0336d5f690478ff0dcdf9e70fd23c2504",
      "blockNumber": 71442,
      "transactionIndex": 0,
      "confirmations": null,
      "from": "0x17580B766f7453525ca4C6A88b01b50570EA088C",
      "gasPrice": {
        "_hex": "0xd845abd5f"
      },
      "gasLimit": {
        "_hex": "0x61a80"
      },
      "to": "0x5Fe5B7546D1628f7348B023A0393de1FC825A4fD",
      "value": {
        "_hex": "0xde0b6b3a7640000"
      },
      "nonce": 190,
      "data": "0xb595b8b50000000000000000000000000000000000000000000000000000000000000001",
      "r": "0xc41f4f8c96727b772a8d34fc094f80d009545bf17420c7df2536eb0250403ee5",
      "s": "0x534cba6e8f10161aefb959066428bcd95dc850625200ab866996b1e273f34df6",
      "v": 27,
      "creates": null,
      "raw": "0xf89281be850d845abd5f83061a80945fe5b7546d1628f7348b023a0393de1fc825a4fd880de0b6b3a7640000a4b595b8b500000000000000000000000000000000000000000000000000000000000000011ba0c41f4f8c96727b772a8d34fc094f80d009545bf17420c7df2536eb0250403ee5a0534cba6e8f10161aefb959066428bcd95dc850625200ab866996b1e273f34df6",
      "networkId": 0,
      "chainId": 0
    },
    {
      "hash": "0x759e1f47865a787c3d9cec68b4aafd0d82406fa7b6dcd23e85ccccf850622626",
      "blockHash": "0xc56eb2af4868d4e1b9f9a7e7e75661a0336d5f690478ff0dcdf9e70fd23c2504",
      "blockNumber": 71442,
      "transactionIndex": 1,
      "confirmations": null,
      "from": "0x17580B766f7453525ca4C6A88b01b50570EA088C",
      "gasPrice": {
        "_hex": "0xd845abd5f"
      },
      "gasLimit": {
        "_hex": "0x61a80"
      },
      "to": "0x5Fe5B7546D1628f7348B023A0393de1FC825A4fD",
      "value": {
        "_hex": "0x29a2241af62c0000"
      },
      "nonce": 191,
      "data": "0xb595b8b50000000000000000000000000000000000000000000000000000000000000000",
      "r": "0xab45ee0544c84991afb472deb6273256dc9048edc1723519aa936084a6430dd4",
      "s": "0x551b89985833d1be17ad4efeac17c3b41ff87bb2f437387fcf184c0559256b11",
      "v": 28,
      "creates": null,
      "raw": "0xf89281bf850d845abd5f83061a80945fe5b7546d1628f7348b023a0393de1fc825a4fd8829a2241af62c0000a4b595b8b500000000000000000000000000000000000000000000000000000000000000001ca0ab45ee0544c84991afb472deb6273256dc9048edc1723519aa936084a6430dd4a0551b89985833d1be17ad4efeac17c3b41ff87bb2f437387fcf184c0559256b11",
      "networkId": 0,
      "chainId": 0
    }
  ]
}