{
  "hash": "0xfe302b6db24980d35d21937a7d453e07a9f0eda9a041a596e4edc37a28b0170b",
  "parentHash": "0x581f1dda93b815405b8480e5935a51f84346316f44d0f0c716ee72ba4ef5d992",
  "number": 57603,
  "timestamp": 1439106314,
  "nonce": "0xa24a3a559a3b7ce3",
  "difficulty": 1736158844664,
  "gasLimit": {
    "_hex": "0x2fefd8"
  },
  "gasUsed": {
    "_hex": "0x546c"
  },
  "miner": "0x43c2AeB7b46cbB31eE7f9A86BDAfB5C87cD486a3",
  "extraData": "0xdd809b302e392e34302b2b653834372d5257696e646f2f6d73762f4a4954",
  "transactions": [
    {
      "hash": "0xe3c75c105bd112e663c7277b22ec23cc4c0ec78c4da5a2aeff7a5490786776ea",
      "blockHash": "0xfe302b6db24980d35d21937a7d453e07a9f0eda9a041a596e4edc37a28b0170b",
      "blockNumber": 57603,
      "transactionIndex": 0,
      "confirmations": null,
      "from": "0x271e8fC01E1C9E1621fD3d108e348450b2498541",
      "gasPrice": {
        "_hex": "0xd7d40ace3"
      },
      "gasLimit": {
        "_hex": "0x15f90"
      },
      "to": "0x2910543Af39abA0Cd09dBb2D50200b3E800A63D2",
      "value": {
        "_hex": "0xd02ab486cedc0000"
      },
      "nonce": 3,
      "data": "0x454e584136594a4230",
      "r": "0x6f63b9a629e1c08b27de3b2c1b0fa722cc2d07d127814782b5e12981a97d7142",
      "s": "0x0259a8b8fb90ad61f926fb11e15458ee149ced47e0c29322823ca93aa5408926",
      "v": 28,
      "creates": null,
      "raw": "0xf87603850d7d40ace383015f90942910543af39aba0cd09dbb2d50200b3e800a63d288d02ab486cedc000089454e584136594a42301ca06f63b9a629e1c08b27de3b2c1b0fa722cc2d07d127814782b5e12981a97d7142a00259a8b8fb90ad61f926fb11e15458ee149ced47e0c29322823ca93aa5408926",
      "networkId": 0,
      "chainId": 0
    }
  ]
}