{
  "hash": "0xb78af6dd9f2b1b1e7bdb54e0f2e1dbfe01206390ecc1ab2ad9d73e5d6b5a264f",
  "parentHash": "0xadaeeeabff05b26aeb19ff27125af123156ba872c5a32bd6f5ad5178d3469bb0",
  "number": 66694,
  "timestamp": 1439258863,
  "nonce": "0x3113a2ccf1420994",
  "difficulty": 1941351457855,
  "gasLimit": {
    "_hex": "0x2fefd8"
  },
  "gasUsed": {
    "_hex": "0x5208"
  },
  "miner": "0x5F8F73E26CdF436f19Cb24C82F90A15AFe55b592",
  "extraData": "0x476574682f76312e302e312f77696e646f77732f676f312e342e32",
  "transactions": [
    {
      "hash": "0x30e134fd25a9f1fef0e29d1ce415cd2a87ffccf2cf639fe34b6d5f759725c2de",
      "blockHash": "0xb78af6dd9f2b1b1e7bdb54e0f2e1dbfe01206390ecc1ab2ad9d73e5d6b5a264f",
      "blockNumber": 66694,
      "transactionIndex": 0,
      "confirmations": null,
      "from": "0x6bc48997aB00042E0C16e96Cf1fF806034D54874",
      "gasPrice": {
        "_hex": "0xba43b7400"
      },
      "gasLimit": {
        "_hex": "0x5208"
      },
      "to": "0x00818287ff6BA78A461D21bD5832891592dc6C6B",
      "value": {
        "_hex": "0xe1c38bcef60e000"
      },
      "nonce": 2,
      "data": "0x",
      "r": "0xfbd34a0a4a4d070cf6f8cdb1fa138154c8b4cd16970594fae8daa6eabc141578",
      "s": "0x19a0d5173af740e64169c3ba8bc4267f717445a605d83a0f72e4d74eb9e56f0f",
      "v": 27,
      "creates": null,
      "raw": "0xf86c02850ba43b74008252089400818287ff6ba78a461d21bd5832891592dc6c6b880e1c38bcef60e000801ba0fbd34a0a4a4d070cf6f8cdb1fa138154c8b4cd16970594fae8daa6eabc141578a019a0d5173af740e64169c3ba8bc4267f717445a605d83a0f72e4d74eb9e56f0f",
      "networkId": 0,
      "chainId": 0
    }
  ]
}