{
  "hash": "0x2a84a346fc0d9d929f2db10afa7cdad3638a5b0635c6092060cc33cb51ebaadc",
  "parentHash": "0x89684ce2a329e0a71e4f94bf08d4bbc5ea07b111fe23478b0c41a14103cc2791",
  "number": 107854,
  "timestamp": 1439929804,
  "nonce": "0x4e9b7a1630546bc3",
  "difficulty": 4391921500821,
  "gasLimit": {
    "_hex": "0x2fefd8"
  },
  "gasUsed": {
    "_hex": "0xa410"
  },
  "miner": "0xe6A7a1d47ff21B6321162AEA7C6CB457D5476Bca",
  "extraData": "0x476574682f76312e302e312d38326566323666362f6c696e75782f676f312e34",
  "transactions": [
    {
      "hash": "0x22aad25f88b4627a864a0def2800b645fba72bb041c8b64cfc449a42ea8599a8",
      "blockHash": "0x2a84a346fc0d9d929f2db10afa7cdad3638a5b0635c6092060cc33cb51ebaadc",
      "blockNumber": 107854,
      "transactionIndex": 0,
      "confirmations": null,
      "from": "0xf14113F65cC397c91f89d61AbF0901E558E88C8E",
      "gasPrice": {
        "_hex": "0xba43b7400"
      },
      "gasLimit": {
        "_hex": "0x5208"
      },
      "to": "0xC47Aaa860008be6f65B58c6C6E02a84e666EfE31",
      "value": {
        "_hex": "0x1187c9b51046000"
      },
      "nonce": 0,
      "data": "0x",
      "r": "0x5c829fc64f829056b0f557eaf9f2dc2b49bad04aae656130a81bc4821b825c86",
      "s": "0x3cf9e9a0341928ab2200e63f30daded92771773b5334f1fd82e4a50e803a6e92",
      "v": 27,
      "creates": null,
      "raw": "0xf86c80850ba43b740082520894c47aaa860008be6f65b58c6c6e02a84e666efe318801187c9b51046000801ba05c829fc64f829056b0f557eaf9f2dc2b49bad04aae656130a81bc4821b825c86a03cf9e9a0341928ab2200e63f30daded92771773b5334f1fd82e4a50e803a6e92",
      "networkId": 0,
      "chainId": 0
    },
    {
      "hash": "0x8b81dfeeeac26fab0b0f56b142ea8bd637add14097d47800146110d6b5f49ff7",
      "blockHash": "0x2a84a346fc0d9d929f2db10afa7cdad3638a5b0635c6092060cc33cb51ebaadc",
      "blockNumber": 107854,
      "transactionIndex": 1,
      "confirmations": null,
      "from": "0x00f222E7C680F9932feCAC767cC279C84C0A3285",
      "gasPrice": {
        "_hex": "0xba43b7400"
      },
      "gasLimit": {
        "_hex": "0x985f6"
      },
      "to": "0x2FdA34cB6C13420bA8b8Af3cB1BA4F7CBb167821",
      "value": {
        "_hex": "0x6a94d74f430000"
      },
      "nonce": 7,
      "data": "0x",
      "r": "0x8fa017c54f591e3b50f47e0552243a33049224c0c545f66b3fdcf70dc492300f",
      "s": "0x0617b5344e1c89c56aa2ce65317df589c7582458a9c79e61bdd5974eaa2853e8",
      "v": 28,
      "creates": null,
      "raw": "0xf86c07850ba43b7400830985f6942fda34cb6c13420ba8b8af3cb1ba4f7cbb167821876a94d74f430000801ca08fa017c54f591e3b50f47e0552243a33049224c0c545f66b3fdcf70dc492300fa00617b5344e1c89c56aa2ce65317df589c7582458a9c79e61bdd5974eaa2853e8",
      "networkId": 0,
      "chainId": 0
    }
  ]
}