{
  "hash": "0x6414607076e3709f87792b08d5ed40da7fe43478cb0bd594fcf8c0cf0a9b65bd",
  "parentHash": "0x804f2d0eed7c2f8091b22aff6c50df6fa69fd11b2667ea6d3853deac84905bd8",
  "number": 85692,
  "timestamp": 1439567321,
  "nonce": "0x0fe90efdc44ea4de",
  "difficulty": 2785426207982,
  "gasLimit": {
    "_hex": "0x2fefd8"
  },
  "gasUsed": {
    "_hex": "0x5208"
  },
  "miner": "0xe6A7a1d47ff21B6321162AEA7C6CB457D5476Bca",
  "extraData": "0x476574682f76312e302e312d38326566323666362f6c696e75782f676f312e34",
  "transactions": [
    {
      "hash": "0xed2905aca3a99598722e74c78451cb468fe1beae5c06b7d5e685e52442f5a7bf",
      "blockHash": "0x6414607076e3709f87792b08d5ed40da7fe43478cb0bd594fcf8c0cf0a9b65bd",
      "blockNumber": 85692,
      "transactionIndex": 0,
      "confirmations": null,
      "from": "0x4019b21f3dB1F288414aC180f3Ea63315B12a7aC",
      "gasPrice": {
        "_hex": "0xdb84a1f08"
      },
      "gasLimit": {
        "_hex": "0x5208"
      },
      "to": "0x32Be343B94f860124dC4fEe278FDCBD38C102D88",
      "value": {
        "_hex": "0x4be424493057740000"
      },
      "nonce": 5,
      "data": "0x",
      "r": "0x51f2c7ef201385ad52d0ea1f38202036a56ac0ac94fad1ab8594c39a07e86509",
      "s": "0x575d2a78a461704b55a95f4dd7a26db338111100eba114a6fc33c5093d5d5c3b",
      "v": 27,
      "creates": null,
      "raw": "0xf86d05850db84a1f088252089432be343b94f860124dc4fee278fdcbd38c102d88894be424493057740000801ba051f2c7ef201385ad52d0ea1f38202036a56ac0ac94fad1ab8594c39a07e86509a0575d2a78a461704b55a95f4dd7a26db338111100eba114a6fc33c5093d5d5c3b",
      "networkId": 0,
      "chainId": 0
    }
  ]
}