{
  "hash": "0x8c7560f23d4895213f1d506fdb34ab7ffef45a8856cf12ff131ada883716af4b",
  "parentHash": "0x5a95379f4c06c4bdb88d25aa0da983b7080b7f5e1958c80611d72315c6410801",
  "number": 103620,
  "timestamp": 1439856293,
  "nonce": "0x94c73f19b1f80858",
  "difficulty": 4197013168211,
  "gasLimit": {
    "_hex": "0x2fefd8"
  },
  "gasUsed": {
    "_hex": "0x5208"
  },
  "miner": "0x580992B51e3925e23280EfB93d3047C82f17E038",
  "extraData": "0x476574682f76312e302e312f6c696e75782f676f312e342e32",
  "transactions": [
    {
      "hash": "0x0d52bda92f4c55ebdf3e2758f4c74155fcd0943d2c329dd178d2b0ff107a9582",
      "blockHash": "0x8c7560f23d4895213f1d506fdb34ab7ffef45a8856cf12ff131ada883716af4b",
      "blockNumber": 103620,
      "transactionIndex": 0,
      "confirmations": null,
      "from": "0xC603Ab5ef41fC61AA8b76bEddb09e3Cfcbb174BD",
      "gasPrice": {
        "_hex": "0xd82a36d0a"
      },
      "gasLimit": {
        "_hex": "0x15f90"
      },
      "to": "0x8F79f76381Aad7B98C19aF55eE75fdfEeb012211",
      "value": {
        "_hex": "0xa4cc799563c380000"
      },
      "nonce": 35,
      "data": "0x",
      "r": "0x7b2cae6e324be1ee0cc5873be72f70c82f79bb370ab0fe9511eded369d64c51f",
      "s": "0x4d8fa504389dad9091af24517ded364277f8b478fb0c80cb072d3611253453ef",
      "v": 27,
      "creates": null,
      "raw": "0xf86e23850d82a36d0a83015f90948f79f76381aad7b98c19af55ee75fdfeeb012211890a4cc799563c380000801ba07b2cae6e324be1ee0cc5873be72f70c82f79bb370ab0fe9511eded369d64c51fa04d8fa504389dad9091af24517ded364277f8b478fb0c80cb072d3611253453ef",
      "networkId": 0,
      "chainId": 0
    }
  ]
}