{
  "hash": "0x0a9d0fb5dc737d475191d028a2fed61110b3877faa1c350684ccf008d7487caf",
  "parentHash": "0x11580c373cd04ca2a3dd23dff64423bcec40b916cf5cbbd23f4de1e19da5f7d5",
  "number": 62053,
  "timestamp": 1439182770,
  "nonce": "0x1181d1852f3e0cdf",
  "difficulty": 1740329248768,
  "gasLimit": {
    "_hex": "0x2fefd8"
  },
  "gasUsed": {
    "_hex": "0x1045b"
  },
  "miner": "0xF2d2AfF1320476cb8C6b607199D23175cc595693",
  "extraData": "0x476574682f76312e302e312f77696e646f77732f676f312e342e32",
  "transactions": [
    {
      "hash": "0x877c6316d593560e4896833dc267cbc1aee5df4836aa9ce6b07ed4c76f73b82c",
      "blockHash": "0x0a9d0fb5dc737d475191d028a2fed61110b3877faa1c350684ccf008d7487caf",
      "blockNumber": 62053,
      "transactionIndex": 0,
      "confirmations": null,
      "from": "0xAF1EF6DF77a840d59d6093F025A60c3d6BC7d5c8",
      "gasPrice": {
        "_hex": "0xd9006821b"
      },
      "gasLimit": {
        "_hex": "0x7a120"
      },
      "to": "0xfBc128067A2FE13C11BBC6cc55f29AA1F27630DA",
      "value": {
        "_hex": "0xde0b6b3a7640000"
      },
      "nonce": 0,
      "data": "0x",
      "r": "0x2cd18c2bc38386f2aebe7c6437979189ba0bc45f332b72a263ef67dd5a8bb1fb",
      "s": "0x1903ea5a54ce47ac64b72d7fca0303d2cf1adf36b0bb6b440d0a5e4108c9407f",
      "v": 27,
      "creates": null,
      "raw": "0xf86d80850d9006821b8307a12094fbc128067a2fe13c11bbc6cc55f29aa1f27630da880de0b6b3a7640000801ba02cd18c2bc38386f2aebe7c6437979189ba0bc45f332b72a263ef67dd5a8bb1fba01903ea5a54ce47ac64b72d7fca0303d2cf1adf36b0bb6b440d0a5e4108c9407f",
      "networkId": 0,
      "chainId": 0
    }
  ]
}