{
  "hash": "0x8dd4b88fbe29066b0c51a02d5d8cda73f77faad840f980973bec7b49b63710c1",
  "parentHash": "0xa31d6f3d47d81676ef293269fc0fa026ada1618a16446479da9d141bd2d4f158",
  "number": 100492,
  "timestamp": 1439807411,
  "nonce": "0x58eab2f05cc598c7",
  "difficulty": 3822849172027,
  "gasLimit": {
    "_hex": "0x2fefd8"
  },
  "gasUsed": {
    "_hex": "0xf618"
  },
  "miner": "0xe6A7a1d47ff21B6321162AEA7C6CB457D5476Bca",
  "extraData": "0x476574682f76312e302e312d38326566323666362f6c696e75782f676f312e34",
  "transactions": [
    {
      "hash": "0x89017d3e55b5e82ef6e02a21ef571edf22719bc324468a2d667f32611c11c2b5",
      "blockHash": "0x8dd4b88fbe29066b0c51a02d5d8cda73f77faad840f980973bec7b49b63710c1",
      "blockNumber": 100492,
      "transactionIndex": 0,
      "confirmations": null,
      "from": "0x7884D470204862a0d1A21122F41ee77430396Ee5",
      "gasPrice": {
        "_hex": "0xda5beed12"
      },
      "gasLimit": {
        "_hex": "0x15f90"
      },
      "to": "0xF28e1379eA3644B1600fc408f75a4627F974B83D",
      "value": {
        "_hex": "0x186cc6acd4b0000"
      },
      "nonce": 56,
      "data": "0x",
      "r": "0x4c35478d4f948222564fa9f32360ffbbe5ad3d1b9f206a3422b144f44d586825",
      "s": "0x3cda3acf9f21ccd4b5d3fcaacec99fa4659d27e04cd298b636d778606b2d2541",
      "v": 27,
      "creates": null,
      "raw": "0xf86d38850da5beed1283015f9094f28e1379ea3644b1600fc408f75a4627f974b83d880186cc6acd4b0000801ba04c35478d4f948222564fa9f32360ffbbe5ad3d1b9f206a3422b144f44d586825a03cda3acf9f21ccd4b5d3fcaacec99fa4659d27e04cd298b636d778606b2d2541",
      "networkId": 0,
      "chainId": 0
    },
    {
      "hash": "0xc0b589a4cfa780117662566f66286609372bc86fa415d42ff9fdc30ecd2ffcfa",
      "blockHash": "0x8dd4b88fbe29066b0c51a02d5d8cda73f77faad840f980973bec7b49b63710c1",
      "blockNumber": 100492,
      "transactionIndex": 1,
      "confirmations": null,
      "from": "0x54310b3aA88703a725dfa57DE6e646935164802C",
      "gasPrice": {
        "_hex": "0xd82bd838b"
      },
      "gasLimit": {
        "_hex": "0x15f90"
      },
      "to": "0xa7ae731fD9EbF24D5a99104a3c2a65a7240B2B04",
      "value": {
        "_hex": "0x1b1ae4d6e2ef500000"
      },
      "nonce": 4,
      "data": "0x",
      "r": "0x1fe6746f2c0283b797108a12baca5305fc56437600cd139455127e7e326cd8f0",
      "s": "0x46e5a5791bf9996ea80dc726fe6c1019839ea073ecc805114cecaec796caaf27",
      "v": 27,
      "creates": null,
      "raw": "0xf86e04850d82bd838b83015f9094a7ae731fd9ebf24d5a99104a3c2a65a7240b2b04891b1ae4d6e2ef500000801ba01fe6746f2c0283b797108a12baca5305fc56437600cd139455127e7e326cd8f0a046e5a5791bf9996ea80dc726fe6c1019839ea073ecc805114cecaec796caaf27",
      "networkId": 0,
      "chainId": 0
    },
    {
      "hash": "0x5daef9b5f6dc670c136cec85181a77a6d756641047c5d78297c092779276364d",
      "blockHash": "0x8dd4b88fbe29066b0c51a02d5d8cda73f77faad840f980973bec7b49b63710c1",
      "blockNumber": 100492,
      "transactionIndex": 2,
      "confirmations": null,
      "from": "0xA1A13F48D504123E1d50e360267F894e8e43838c",
      "gasPrice": {
        "_hex": "0xba43b7400"
      },
      "gasLimit": {
        "_hex": "0x5208"
      },
      "to": "0xC47Aaa860008be6f65B58c6C6E02a84e666EfE31",
      "value": {
        "_hex": "0x22d8e37635cf84d0"
      },
      "nonce": 3,
      "data": "0x",
      "r": "0xdb775699873b7fbfb506c6d5d0c7bea98e2fdf5d5bc5a3488fdd0a8fe935a2f6",
      "s": "0x65b63d1865880749ea5173696001700e6756af05486a0d937186a3d26dd3e0ff",
      "v": 28,
      "creates": null,
      "raw": "0xf86c03850ba43b740082520894c47aaa860008be6f65b58c6c6e02a84e666efe318822d8e37635cf84d0801ca0db775699873b7fbfb506c6d5d0c7bea98e2fdf5d5bc5a3488fdd0a8fe935a2f6a065b63d1865880749ea5173696001700e6756af05486a0d937186a3d26dd3e0ff",
      "networkId": 0,
      "chainId": 0
    }
  ]
}