{
  "hash": "0x774300953988a6984f7f5e6aef0b50f099082a0da06a989a24547512111968e9",
  "parentHash": "0xb0fd6bda71a5d3b56b8e4e006673dfbd431aa4ed6b81ab6512f0e75d4d18d8f2",
  "number": 112315,
  "timestamp": 1440005550,
  "nonce": "0x446f3a2ff037998f",
  "difficulty": 4396021300643,
  "gasLimit": {
    "_hex": "0x2fefd8"
  },
  "gasUsed": {
    "_hex": "0x5208"
  },
  "miner": "0x458F183347F45a4001807728A89F31E9Da9D4A58",
  "extraData": "0x476574682f76312e302e312d38326566323666362f6c696e75782f676f312e34",
  "transactions": [
    {
      "hash": "0xc345f6e11eab4bc20ade4430d48e44035b59419375fbf59d56bc8e89ccee93d2",
      "blockHash": "0x774300953988a6984f7f5e6aef0b50f099082a0da06a989a24547512111968e9",
      "blockNumber": 112315,
      "transactionIndex": 0,
      "confirmations": null,
      "from": "0x3cD73157C6a0aB907B9dFe60F75c74Bb99D98e7b",
      "gasPrice": {
        "_hex": "0xcfb1bf40f"
      },
      "gasLimit": {
        "_hex": "0x5208"
      },
      "to": "0x32Be343B94f860124dC4fEe278FDCBD38C102D88",
      "value": {
        "_hex": "0xd55eb67ccbbfd8000"
      },
      "nonce": 4,
      "data": "0x",
      "r": "0xb44e935d72d86e4552cbe143bd93dfc05d52a07df99268d12f0597413ebd96ec",
      "s": "0x6cbb4a5340be3640353672ec3085c8378be9f8ddb46edb9f9466606f273cee8a",
      "v": 28,
      "creates": null,
      "raw": "0xf86d04850cfb1bf40f8252089432be343b94f860124dc4fee278fdcbd38c102d88890d55eb67ccbbfd8000801ca0b44e935d72d86e4552cbe143bd93dfc05d52a07df99268d12f0597413ebd96eca06cbb4a5340be3640353672ec3085c8378be9f8ddb46edb9f9466606f273cee8a",
      "networkId": 0,
      "chainId": 0
    }
  ]
}