{
  "hash": "0xc76f799910439858f09f233e8340137de2181eab818a1268b39a181583b033ed",
  "parentHash": "0xf65f3f4738433fd02ef4250e825329fe9e5c46d1bd3718a4c63143abebaf67c4",
  "number": 96661,
  "timestamp": 1439743940,
  "nonce": "0xcecc95db6b470cc6",
  "difficulty": 3726888799887,
  "gasLimit": {
    "_hex": "0x2fefd8"
  },
  "gasUsed": {
    "_hex": "0x5208"
  },
  "miner": "0x8df03bD37602d97980327B58D940258dC57007B3",
  "extraData": "0x",
  "transactions": [
    {
      "hash": "0x1ca9beebc5fa81329b7e1771f978ba228e7ceb39705190ba79be377eb7c5c02a",
      "blockHash": "0xc76f799910439858f09f233e8340137de2181eab818a1268b39a181583b033ed",
      "blockNumber": 96661,
      "transactionIndex": 0,
      "confirmations": null,
      "from": "0xfEE4dEb01301A2633e0046305A31fcA8d04F416c",
      "gasPrice": {
        "_hex": "0xd8adce2c8"
      },
      "gasLimit": {
        "_hex": "0x15f90"
      },
      "to": "0x8132d5ae06e2b76cbF52673A79AA2766b0Ad8437",
      "value": {
        "_hex": "0x233fe48ae17e0000"
      },
      "nonce": 1,
      "data": "0x",
      "r": "0x5db5bcf622ba927ffd5a07c5d5f81023c070fa0f356c600acb4c97a0c5b2f8a0",
      "s": "0x5050d2f0c1d1bf5a4d4f7f9629091fca40d9194e3ca7149e825e42da1551a12c",
      "v": 28,
      "creates": null,
      "raw": "0xf86d01850d8adce2c883015f90948132d5ae06e2b76cbf52673a79aa2766b0ad843788233fe48ae17e0000801ca05db5bcf622ba927ffd5a07c5d5f81023c070fa0f356c600acb4c97a0c5b2f8a0a05050d2f0c1d1bf5a4d4f7f9629091fca40d9194e3ca7149e825e42da1551a12c",
      "networkId": 0,
      "chainId": 0
    }
  ]
}