{
  "hash": "0xd6f6a600b049422b529d6e5e15f8234f6358c8833da80438a6153b07edc353fd",
  "parentHash": "0x8b04efac7c0288398246efacec2be14bf22760d7997357a5412b952c4a9fd475",
  "number": 115132,
  "timestamp": 1440052003,
  "nonce": "0x97d0a8e894f1d253",
  "difficulty": 4540689695048,
  "gasLimit": {
    "_hex": "0x2fefd8"
  },
  "gasUsed": {
    "_hex": "0x5208"
  },
  "miner": "0x52bc44d5378309EE2abF1539BF71dE1b7d7bE3b5",
  "extraData": "0x476574682f76312e302e312d39353236303766382f6c696e75782f676f312e34",
  "transactions": [
    {
      "hash": "0x4a22c34af051f1435ee236c7085984c1261c9dfc97f381115ba3fe2e30b1ff34",
      "blockHash": "0xd6f6a600b049422b529d6e5e15f8234f6358c8833da80438a6153b07edc353fd",
      "blockNumber": 115132,
      "transactionIndex": 0,
      "confirmations": null,
      "from": "0x65553f5e8FA2eDfCe37Aec51A90ed28777dDe402",
      "gasPrice": {
        "_hex": "0xe2b8935e8"
      },
      "gasLimit": {
        "_hex": "0x5208"
      },
      "to": "0xFBb1b73C4f0BDa4f67dcA266ce6Ef42f520fBB98",
      "value": {
        "_hex": "0xd47bbf861f8e00c0"
      },
      "nonce": 7,
      "data": "0x",
      "r": "0x25ee94a560581fb980aff2b9aac243e79c5d15c77706feb325bddd153b225cfe",
      "s": "0x4c41bf501cc1fe15524c3944fd0ff306efbc2e7b5ddef3cde26e8fe9e52b1eb8",
      "v": 28,
      "creates": null,
      "raw": "0xf86c07850e2b8935e882520894fbb1b73c4f0bda4f67dca266ce6ef42f520fbb9888d47bbf861f8e00c0801ca025ee94a560581fb980aff2b9aac243e79c5d15c77706feb325bddd153b225cfea04c41bf501cc1fe15524c3944fd0ff306efbc2e7b5ddef3cde26e8fe9e52b1eb8",
      "networkId": 0,
      "chainId": 0
    }
  ]
}