{
  "hash": "0xcda2bed79d1fb39d7430d73c4d45c021c030cf7673411d53112f0f9da8c17cd9",
  "parentHash": "0x027a185a683c8b8f67189e6af09ec3cb326ee63b003353528a79d5f74d2a9f8c",
  "number": 54920,
  "timestamp": 1439062480,
  "nonce": "0x776931f7c9afbc7e",
  "difficulty": 1611697407250,
  "gasLimit": {
    "_hex": "0x2fefd8"
  },
  "gasUsed": {
    "_hex": "0x5208"
  },
  "miner": "0x9746c7e1ef2bd21FF3997fa467593a89cb852BD0",
  "extraData": "0x476574682f76312e302e312f77696e646f77732f676f312e342e32",
  "transactions": [
    {
      "hash": "0xbd1d5eb74a0864e9a7d85cc582c01b0aa23546c6f8b21474f57133fdade11524",
      "blockHash": "0xcda2bed79d1fb39d7430d73c4d45c021c030cf7673411d53112f0f9da8c17cd9",
      "blockNumber": 54920,
      "transactionIndex": 0,
      "confirmations": null,
      "from": "0xCdA1B886e3A795c9BA77914e0A2fe5676F0F5cCF",
      "gasPrice": {
        "_hex": "0xdf0d4d8a4"
      },
      "gasLimit": {
        "_hex": "0x15f90"
      },
      "to": "0x9aD28d4b9331aAC808DED237E46c6f5d69FCEDF6",
      "value": {
        "_hex": "0x29a2241af62c0000"
      },
      "nonce": 2,
      "data": "0x",
      "r": "0x6d03d8dd3770cc57f24adec8e3c3f5b2b7da4e463879943cda878190b352d6f1",
      "s": "0x4187af8233e92e9e2e178a1af7832a7e9b5c08b53d4e545fa54b1d5962204c6e",
      "v": 27,
      "creates": null,
      "raw": "0xf86d02850df0d4d8a483015f90949ad28d4b9331aac808ded237e46c6f5d69fcedf68829a2241af62c0000801ba06d03d8dd3770cc57f24adec8e3c3f5b2b7da4e463879943cda878190b352d6f1a04187af8233e92e9e2e178a1af7832a7e9b5c08b53d4e545fa54b1d5962204c6e",
      "networkId": 0,
      "chainId": 0
    }
  ]
}