{
  "hash": "0xeca027ea463bbdaf0287a3b1b699a21e2ecb71f5720838ea0da9002687dabb37",
  "parentHash": "0xc2532d16e3dc11377f5f6059a15b0b956d17cb5e885b62359cccec43ac8a9852",
  "number": 121273,
  "timestamp": 1440174426,
  "nonce": "0xeb38a7cefeb8e0eb",
  "difficulty": 4399914593658,
  "gasLimit": {
    "_hex": "0x2fefd8"
  },
  "gasUsed": {
    "_hex": "0xa6b8"
  },
  "miner": "0x52bc44d5378309EE2abF1539BF71dE1b7d7bE3b5",
  "extraData": "0xd783010002844765746887676f312e342e32856c696e7578",
  "transactions": [
    {
      "hash": "0xc42ba9399c07d99c260b9b010202d2a5321a5b49bf6dde10490950ed64edf554",
      "blockHash": "0xeca027ea463bbdaf0287a3b1b699a21e2ecb71f5720838ea0da9002687dabb37",
      "blockNumber": 121273,
      "transactionIndex": 0,
      "confirmations": null,
      "from": "0x27987110221A880826aDB2E7aB5ECA78c6e31aEc",
      "gasPrice": {
        "_hex": "0xba43b7400"
      },
      "gasLimit": {
        "_hex": "0x55f0"
      },
      "to": "0x40B9b889A21Ff1534d018D71Dc406122EBcf3F5A",
      "value": {
        "_hex": "0xb1a2bc2ec50000"
      },
      "nonce": 3,
      "data": "0x44565855423230363833",
      "r": "0x3acefeac42402722e01982204232fd4e54f04c8847fb861c6fe358d633b0e898",
      "s": "0x526d120635160ba8bfe5c90bb9e7a151cd4814394eea0e5eaab87d0e52b3ccc1",
      "v": 27,
      "creates": null,
      "raw": "0xf87503850ba43b74008255f09440b9b889a21ff1534d018d71dc406122ebcf3f5a87b1a2bc2ec500008a445658554232303638331ba03acefeac42402722e01982204232fd4e54f04c8847fb861c6fe358d633b0e898a0526d120635160ba8bfe5c90bb9e7a151cd4814394eea0e5eaab87d0e52b3ccc1",
      "networkId": 0,
      "chainId": 0
    },
    {
      "hash": "0x03dbf536e5cad898497e948a507cd4b73b1caf71853022a3467e6db4e765e32a",
      "blockHash": "0xeca027ea463bbdaf0287a3b1b699a21e2ecb71f5720838ea0da9002687dabb37",
      "blockNumber": 121273,
      "transactionIndex": 1,
      "confirmations": null,
      "from": "0x120A270bbC009644e35F0bB6ab13f95b8199c4ad",
      "gasPrice": {
        "_hex": "0xba43b7400"
      },
      "gasLimit": {
        "_hex": "0x3d090"
      },
      "to": "0x80a2A362F7328959F956E06121ae770b07144F5F",
      "value": {
        "_hex": "0x204d14efdef30fe800"
      },
      "nonce": 969,
      "data": "0x",
      "r": "0xe541259418e105ae4510850e3864cdfa69e879755e1ef2963cd871894adcfdb7",
      "s": "0x5a592b86b836b95722e9c6c0a09fc100d2dcfd3ec369deeefbf89a5924e6410c",
      "v": 28,
      "creates": null,
      "raw": "0xf8708203c9850ba43b74008303d0909480a2a362f7328959f956e06121ae770b07144f5f89204d14efdef30fe800801ca0e541259418e105ae4510850e3864cdfa69e879755e1ef2963cd871894adcfdb7a05a592b86b836b95722e9c6c0a09fc100d2dcfd3ec369deeefbf89a5924e6410c",
      "networkId": 0,
      "chainId": 0
    }
  ]
}