{
  "hash": "0x0a158638674f36e7aa05c515820a680c5c7e83982d0752109eb9af76a10e9fc2",
  "parentHash": "0xd4b336fa5a2e1c728859423de5ce6083b0e091116e6eea7cb0d6692748b1b23a",
  "number": 111992,
  "timestamp": 1440000090,
  "nonce": "0xf7c6102680784663",
  "difficulty": 4381190177822,
  "gasLimit": {
    "_hex": "0x2fefd8"
  },
  "gasUsed": {
    "_hex": "0x5208"
  },
  "miner": "0x8B454d830feF179e66206840F8F3D1d83bC32b17",
  "extraData": "0x476574682f76312e302e312f77696e646f77732f676f312e342e32",
  "transactions": [
    {
      "hash": "0x5609703e97e3476d5bee4d2a5b95da502177493e30b283d4b33b4012d25e29c1",
      "blockHash": "0x0a158638674f36e7aa05c515820a680c5c7e83982d0752109eb9af76a10e9fc2",
      "blockNumber": 111992,
      "transactionIndex": 0,
      "confirmations": null,
      "from": "0x32Be343B94f860124dC4fEe278FDCBD38C102D88",
      "gasPrice": {
        "_hex": "0xdf6f12ffd"
      },
      "gasLimit": {
        "_hex": "0x5208"
      },
      "to": "0x9e8eF88C157272C8710E019DbB2Ef14610815506",
      "value": {
        "_hex": "0xdbd2fc137a30000"
      },
      "nonce": 1324,
      "data": "0x",
      "r": "0x8423f0d234b5cf836bf1776e253da1c0b4fb99565d6dda71b1c587072c50b67b",
      "s": "0x7ba3398f982d42db3fb22be129ed0ab42421f01bb0578678f2dbf68bb7520673",
      "v": 28,
      "creates": null,
      "raw": "0xf86e82052c850df6f12ffd825208949e8ef88c157272c8710e019dbb2ef14610815506880dbd2fc137a30000801ca08423f0d234b5cf836bf1776e253da1c0b4fb99565d6dda71b1c587072c50b67ba07ba3398f982d42db3fb22be129ed0ab42421f01bb0578678f2dbf68bb7520673",
      "networkId": 0,
      "chainId": 0
    }
  ]
}