{
  "hash": "0x783d62feb01d8cf3cf7687aafcb42ba5bdda86ba2131a8ab9c66d09f261a1121",
  "parentHash": "0xce693f729e75fb3b331bc2afebb74b5ffbd1a4db03a5a2db8809f70e4bb02600",
  "number": 69316,
  "timestamp": 1439301895,
  "nonce": "0xf01451cb356438e3",
  "difficulty": 2059868423592,
  "gasLimit": {
    "_hex": "0x2fefd8"
  },
  "gasUsed": {
    "_hex": "0x14a84"
  },
  "miner": "0xC759dc67E0c3816fdC56A2f5bb29920fc07e767D",
  "extraData": "0x476574682f76312e302e312f77696e646f77732f676f312e342e32",
  "transactions": [
    {
      "hash": "0xa4304245c1964f6cd76d9247ee7b20023f52d7b4e434e80fddca23bd94429d94",
      "blockHash": "0x783d62feb01d8cf3cf7687aafcb42ba5bdda86ba2131a8ab9c66d09f261a1121",
      "blockNumber": 69316,
      "transactionIndex": 0,
      "confirmations": null,
      "from": "0xf9811FA19dADbf029F8bfe569ADb18228c80481A",
      "gasPrice": {
        "_hex": "0x110c8f7d8de"
      },
      "gasLimit": {
        "_hex": "0xc350"
      },
      "to": "0x2910543Af39abA0Cd09dBb2D50200b3E800A63D2",
      "value": {
        "_hex": "0x6f05b59d3b20000"
      },
      "nonce": 1,
      "data": "0x454e4d323354595a30",
      "r": "0xb5dea7eb7193a334fa996fdc92bb564cbe57c85a34cc67811318d83005a405b2",
      "s": "0xfa2b6dea413937571e152603c5e68b21dad9e960980edc3b0d39418b16bcd664",
      "v": 28,
      "creates": null,
      "raw": "0xf87601860110c8f7d8de82c350942910543af39aba0cd09dbb2d50200b3e800a63d28806f05b59d3b2000089454e4d323354595a301ca0b5dea7eb7193a334fa996fdc92bb564cbe57c85a34cc67811318d83005a405b2a0fa2b6dea413937571e152603c5e68b21dad9e960980edc3b0d39418b16bcd664",
      "networkId": 0,
      "chainId": 0
    },
    {
      "hash": "0x3cf493dba26bb808826a04c431565ad7cb2797212524261f9c61bc8dba3ab83b",
      "blockHash": "0x783d62feb01d8cf3cf7687aafcb42ba5bdda86ba2131a8ab9c66d09f261a1121",
      "blockNumber": 69316,
      "transactionIndex": 1,
      "confirmations": null,
      "from": "0xF7e66D2622220807d8696064E94ca24b1dC6e7Da",
      "gasPrice": {
        "_hex": "0xd13308380"
      },
      "gasLimit": {
        "_hex": "0x5208"
      },
      "to": "0x32Be343B94f860124dC4fEe278FDCBD38C102D88",
      "value": {
        "_hex": "0x159679d953dde4000"
      },
      "nonce": 9,
      "data": "0x",
      "r": "0x35ac5533091f1ee633c70cc9953e38da11ea7c580296094bd57829823ed02c1f",
      "s": "0x360163fb77c9c3a5187cf90449c0f0af32cc7f8aa5ce73db032930bcd80bc7a1",
      "v": 27,
      "creates": null,
      "raw": "0xf86d09850d133083808252089432be343b94f860124dc4fee278fdcbd38c102d88890159679d953dde4000801ba035ac5533091f1ee633c70cc9953e38da11ea7c580296094bd57829823ed02c1fa0360163fb77c9c3a5187cf90449c0f0af32cc7f8aa5ce73db032930bcd80bc7a1",
      "networkId": 0,
      "chainId": 0
    },
    {
      "hash": "0x350fce67cff950b4f418ddc39068d51b1a032357118b97aa236af9bf47c5ffe5",
      "blockHash": "0x783d62feb01d8cf3cf7687aafcb42ba5bdda86ba2131a8ab9c66d09f261a1121",
      "blockNumber": 69316,
      "transactionIndex": 2,
      "confirmations": null,
      "from": "0x78A5a3e39DB4Cf9824d4DFAbAbcdB36611788C78",
      "gasPrice": {
        "_hex": "0xd13308380"
      },
      "gasLimit": {
        "_hex": "0x5208"
      },
      "to": "0x32Be343B94f860124dC4fEe278FDCBD38C102D88",
      "value": {
        "_hex": "0x28181445926ba400"
      },
      "nonce": 0,
      "data": "0x",
      "r": "0xf08257ae4e703501881d6adf9080d9bdc582b94f10430b00517b650513d0df65",
      "s": "0x0ae17860eb1b36a3c9250bb735b2d88180d601df3e3b85bda30ce694f079bd92",
      "v": 27,
      "creates": null,
      "raw": "0xf86c80850d133083808252089432be343b94f860124dc4fee278fdcbd38c102d888828181445926ba400801ba0f08257ae4e703501881d6adf9080d9bdc582b94f10430b00517b650513d0df65a00ae17860eb1b36a3c9250bb735b2d88180d601df3e3b85bda30ce694f079bd92",
      "networkId": 0,
      "chainId": 0
    },
    {
      "hash": "0x87546758051285bddd277d618840fc3685421c58661b433f64e3243ca9d69904",
      "blockHash": "0x783d62feb01d8cf3cf7687aafcb42ba5bdda86ba2131a8ab9c66d09f261a1121",
      "blockNumber": 69316,
      "transactionIndex": 3,
      "confirmations": null,
      "from": "0x2118baa5B9d6423676CF5502Eb6eaeD859228c33",
      "gasPrice": {
        "_hex": "0xd13308380"
      },
      "gasLimit": {
        "_hex": "0x5208"
      },
      "to": "0x32Be343B94f860124dC4fEe278FDCBD38C102D88",
      "value": {
        "_hex": "0xee828924ffa4000"
      },
      "nonce": 0,
      "data": "0x",
      "r": "0xee343dd81b8a2d0175ecaa3af2af85495e011fad4b76cb02ac9bad258f79fa97",
      "s": "0x233444d016a50fcb0e4b720a23dbb5f91a63c09c2e2024ec25b8cc8dc26eb12b",
      "v": 27,
      "creates": null,
      "raw": "0xf86c80850d133083808252089432be343b94f860124dc4fee278fdcbd38c102d88880ee828924ffa4000801ba0ee343dd81b8a2d0175ecaa3af2af85495e011fad4b76cb02ac9bad258f79fa97a0233444d016a50fcb0e4b720a23dbb5f91a63c09c2e2024ec25b8cc8dc26eb12b",
      "networkId": 0,
      "chainId": 0
    }
  ]
}