{
  "hash": "0x551c4c6bab313947108a1db3babe67b08c9a4e61e1432c139828f6d641f4e440",
  "parentHash": "0x7c8e3c0e1961c822f93d3de014822fdcb87c91d18e7ac2200b4c80b0ed460a84",
  "number": 46721,
  "timestamp": 1438928088,
  "nonce": "0x1b5ec3d3ced23074",
  "difficulty": 1453917149596,
  "gasLimit": {
    "_hex": "0x742b"
  },
  "gasUsed": {
    "_hex": "0x5208"
  },
  "miner": "0xbb7B8287f3F0a933474a79eAe42CBCa977791171",
  "extraData": "0x476574682f4c5649562f76312e302e312f6c696e75782f676f312e342e32",
  "transactions": [
    {
      "hash": "0x059240ec8bda563d278337b0d7fc44819801ae767deec49dae8a1f70d4e171ff",
      "blockHash": "0x551c4c6bab313947108a1db3babe67b08c9a4e61e1432c139828f6d641f4e440",
      "blockNumber": 46721,
      "transactionIndex": 0,
      "confirmations": null,
      "from": "0xa0A0e65204541Fca9b2fB282cd95138FAE16f809",
      "gasPrice": {
        "_hex": "0xe348b98ec"
      },
      "gasLimit": {
        "_hex": "0x5208"
      },
      "to": "0x3B4AF94C39e87281410A3B5Cf880b4a647459363",
      "value": {
        "_hex": "0xde0b6b3a7640000"
      },
      "nonce": 1,
      "data": "0x",
      "r": "0x73cfbabe1da7c0ae3ddcf2ece804892d2c38c4e89d5478297b320a8a4a9309a6",
      "s": "0x5dd43c9343c898a5ae8125bd9e6c78780ebbe2669bc6245514dcbc0ee353d190",
      "v": 27,
      "creates": null,
      "raw": "0xf86c01850e348b98ec825208943b4af94c39e87281410a3b5cf880b4a647459363880de0b6b3a7640000801ba073cfbabe1da7c0ae3ddcf2ece804892d2c38c4e89d5478297b320a8a4a9309a6a05dd43c9343c898a5ae8125bd9e6c78780ebbe2669bc6245514dcbc0ee353d190",
      "networkId": 0,
      "chainId": 0
    }
  ]
}