{
  "hash": "0x4aa67860ef4d23de9f044e5713c81689a1e9a29a655823ba7b91c46bcfb4c740",
  "parentHash": "0x6ea07dfe35ad3e435ff94e3770586696fd9d4571624fc5006f871098227ed85d",
  "number": 119359,
  "timestamp": 1440141400,
  "nonce": "0xd4fdbf644114f906",
  "difficulty": 4413830844225,
  "gasLimit": {
    "_hex": "0x2ff07b"
  },
  "gasUsed": {
    "_hex": "0x5208"
  },
  "miner": "0xe6A7a1d47ff21B6321162AEA7C6CB457D5476Bca",
  "extraData": "0xd783010002844765746887676f312e342e32856c696e7578",
  "transactions": [
    {
      "hash": "0x6d2423472a0876beef9717c3972ccc0008fb9113468319c96eca51976cfb41d4",
      "blockHash": "0x4aa67860ef4d23de9f044e5713c81689a1e9a29a655823ba7b91c46bcfb4c740",
      "blockNumber": 119359,
      "transactionIndex": 0,
      "confirmations": null,
      "from": "0xB89C0F465b0472fa5A58eCDd01eD937205ae4d06",
      "gasPrice": {
        "_hex": "0xba43b7400"
      },
      "gasLimit": {
        "_hex": "0x5208"
      },
      "to": "0x32Be343B94f860124dC4fEe278FDCBD38C102D88",
      "value": {
        "_hex": "0x20df3228d68fd000"
      },
      "nonce": 14,
      "data": "0x",
      "r": "0x86fa2422ca2d735b89fd809b10850dab5fb8ccf20cd0ec5b24e5dc6bfe84ad9b",
      "s": "0x36ce652c6a1ac299971f26f14a1efcf21732e6c862e19348e022b15323740134",
      "v": 28,
      "creates": null,
      "raw": "0xf86c0e850ba43b74008252089432be343b94f860124dc4fee278fdcbd38c102d888820df3228d68fd000801ca086fa2422ca2d735b89fd809b10850dab5fb8ccf20cd0ec5b24e5dc6bfe84ad9ba036ce652c6a1ac299971f26f14a1efcf21732e6c862e19348e022b15323740134",
      "networkId": 0,
      "chainId": 0
    }
  ]
}