{
  "hash": "0xa14c42200064d12a782f9e228bfdc35eb9b268d21ae4ed4758ddc90c289de704",
  "parentHash": "0xee9379e780c702604cc6cf26613c0797bd1d6d46cca1c44dde4e7bd2924068f2",
  "number": 110220,
  "timestamp": 1439970078,
  "nonce": "0x5c4609826d3af8df",
  "difficulty": 4369296310208,
  "gasLimit": {
    "_hex": "0x2fefd8"
  },
  "gasUsed": {
    "_hex": "0x5208"
  },
  "miner": "0x8B454d830feF179e66206840F8F3D1d83bC32b17",
  "extraData": "0x476574682f76312e302e312f77696e646f77732f676f312e342e32",
  "transactions": [
    {
      "hash": "0x0c84e6c2270d4946908464273afd056809250cf20608df953df36954d6e0f16e",
      "blockHash": "0xa14c42200064d12a782f9e228bfdc35eb9b268d21ae4ed4758ddc90c289de704",
      "blockNumber": 110220,
      "transactionIndex": 0,
      "confirmations": null,
      "from": "0xc42333fFCaB0a62138cf32808723Db35bB9dC45b",
      "gasPrice": {
        "_hex": "0xba43b7400"
      },
      "gasLimit": {
        "_hex": "0x7530"
      },
      "to": "0xeeb66aFe554366d685C7832C6c93727Ba577378D",
      "value": {
        "_hex": "0x1bc16d674ec80000"
      },
      "nonce": 1,
      "data": "0x",
      "r": "0x39496a383b66635ae0f3ba55114dd835ff9a541210c91a6919566a832d397950",
      "s": "0x4860edc471b11ce6821d926002af52a69581da2a40974c39cd640568e5bb6044",
      "v": 28,
      "creates": null,
      "raw": "0xf86c01850ba43b740082753094eeb66afe554366d685c7832c6c93727ba577378d881bc16d674ec80000801ca039496a383b66635ae0f3ba55114dd835ff9a541210c91a6919566a832d397950a04860edc471b11ce6821d926002af52a69581da2a40974c39cd640568e5bb6044",
      "networkId": 0,
      "chainId": 0
    }
  ]
}