{
  "hash": "0xd086f27163779b62fcab64b7186446b9c25a48224ed521e7e32724d0b5eb961b",
  "parentHash": "0xddf6046063a94e7034726f3e555f477e3a74c90e2dcd4003fc47420bdce1ef44",
  "number": 76291,
  "timestamp": 1439417957,
  "nonce": "0xe031190bd0233c57",
  "difficulty": 2230837412841,
  "gasLimit": {
    "_hex": "0x2fefd8"
  },
  "gasUsed": {
    "_hex": "0xa410"
  },
  "miner": "0x3222BA3F3e79eA0e31467EEE7639B57923558cCD",
  "extraData": "0x",
  "transactions": [
    {
      "hash": "0xb19d9aaf967f19b00bbc39e18216f63dc80eb957eccde9d8f464566897e58f1d",
      "blockHash": "0xd086f27163779b62fcab64b7186446b9c25a48224ed521e7e32724d0b5eb961b",
      "blockNumber": 76291,
      "transactionIndex": 0,
      "confirmations": null,
      "from": "0xa70a9a7040d542C632D8e0bE7c5513A8a5Bbc752",
      "gasPrice": {
        "_hex": "0xd09b4eda8"
      },
      "gasLimit": {
        "_hex": "0x5208"
      },
      "to": "0x32Be343B94f860124dC4fEe278FDCBD38C102D88",
      "value": {
        "_hex": "0x455f63ff66f9d800"
      },
      "nonce": 44,
      "data": "0x",
      "r": "0x07a46ff1ef1529ffe41d4517d06ede180370847341c1bc02efddaa2d482774fc",
      "s": "0x74a274cc33b02368d5eb84c11f2a8643951ec576090a76c4392e5e09bd1c9ae5",
      "v": 27,
      "creates": null,
      "raw": "0xf86c2c850d09b4eda88252089432be343b94f860124dc4fee278fdcbd38c102d8888455f63ff66f9d800801ba007a46ff1ef1529ffe41d4517d06ede180370847341c1bc02efddaa2d482774fca074a274cc33b02368d5eb84c11f2a8643951ec576090a76c4392e5e09bd1c9ae5",
      "networkId": 0,
      "chainId": 0
    },
    {
      "hash": "0xe497f4dc993d642cd48993715805d51177b88d214dd221c43631a3eddce3d5dd",
      "blockHash": "0xd086f27163779b62fcab64b7186446b9c25a48224ed521e7e32724d0b5eb961b",
      "blockNumber": 76291,
      "transactionIndex": 1,
      "confirmations": null,
      "from": "0xcb9cC6E2f8D39A76462aCC12aa9dBE715613bF49",
      "gasPrice": {
        "_hex": "0xce94c30bd"
      },
      "gasLimit": {
        "_hex": "0x5208"
      },
      "to": "0x32Be343B94f860124dC4fEe278FDCBD38C102D88",
      "value": {
        "_hex": "0x1a12ec84dfb5f400"
      },
      "nonce": 0,
      "data": "0x",
      "r": "0xa1fa88cc467e2979b7447b10c7f644ad55056b78927e8f55d5b5758546bc71a2",
      "s": "0x07c966c9ca5ca62248e9ca8b1275e52bf7415663cc1d90bcdf0b28ffa274da99",
      "v": 27,
      "creates": null,
      "raw": "0xf86c80850ce94c30bd8252089432be343b94f860124dc4fee278fdcbd38c102d88881a12ec84dfb5f400801ba0a1fa88cc467e2979b7447b10c7f644ad55056b78927e8f55d5b5758546bc71a2a007c966c9ca5ca62248e9ca8b1275e52bf7415663cc1d90bcdf0b28ffa274da99",
      "networkId": 0,
      "chainId": 0
    }
  ]
}