{
  "hash": "0x22388d045042f5e427a920f5878912b562ebc152ecc32dd9e61d3a1979b47e24",
  "parentHash": "0x98a404257e5365606570db8c056da4762de21dee7c38421550404736738f6671",
  "number": 47161,
  "timestamp": 1438935281,
  "nonce": "0x93b73b3392af66e9",
  "difficulty": 1458106435722,
  "gasLimit": {
    "_hex": "0x9d9d"
  },
  "gasUsed": {
    "_hex": "0x5208"
  },
  "miner": "0x82efFBAaaf28614E55b2BA440FB198E0e5789B0f",
  "extraData": "0x476574682f44616e6b486173682f76312e302e312f77696e646f77732f676f31",
  "transactions": [
    {
      "hash": "0x3bc82ea99169f3c03516e0d967f81eab5364535c322a3d3e08944ce6d19f333e",
      "blockHash": "0x22388d045042f5e427a920f5878912b562ebc152ecc32dd9e61d3a1979b47e24",
      "blockNumber": 47161,
      "transactionIndex": 0,
      "confirmations": null,
      "from": "0x1406854D149E081aC09Cb4CA560Da463f3123059",
      "gasPrice": {
        "_hex": "0xdf5338713"
      },
      "gasLimit": {
        "_hex": "0x9c40"
      },
      "to": "0x11594d28A010e5c8e92576098d0d543eA32776FC",
      "value": {
        "_hex": "0x8ac7230489e80000"
      },
      "nonce": 3,
      "data": "0x",
      "r": "0xdb2eddc6e1a2e85865bbf52f7d4c214457e72fcdadcdbf4e1ec6fc56f2707075",
      "s": "0x782e031fde7be03cb3d085984e39841c65ac051f278bd4fd7e4cf487184cc863",
      "v": 27,
      "creates": null,
      "raw": "0xf86c03850df5338713829c409411594d28a010e5c8e92576098d0d543ea32776fc888ac7230489e80000801ba0db2eddc6e1a2e85865bbf52f7d4c214457e72fcdadcdbf4e1ec6fc56f2707075a0782e031fde7be03cb3d085984e39841c65ac051f278bd4fd7e4cf487184cc863",
      "networkId": 0,
      "chainId": 0
    }
  ]
}