{
  "hash": "0x6ac7163f57018faa1af60c4d3418ea5c16ed0e6a69f8d9a9e763403879f19b68",
  "parentHash": "0x07785979d515c32bd585fe2017c122f6001bddc145c499dbbeaac140090976f5",
  "number": 55217,
  "timestamp": 1439067160,
  "nonce": "0xa2d8e12ce1014cd6",
  "difficulty": 1637819511796,
  "gasLimit": {
    "_hex": "0x2fefd8"
  },
  "gasUsed": {
    "_hex": "0xa9976"
  },
  "miner": "0x3F98e477a361F777DA14611a7e419A75Fd238b6b",
  "extraData": "0x476574682f76312e302e312f6c696e75782f676f312e342e32",
  "transactions": [
    {
      "hash": "0xa27c9e9aa4f88957b4a9953dd3907810b1cd07c91da56d799f2ce747f4316360",
      "blockHash": "0x6ac7163f57018faa1af60c4d3418ea5c16ed0e6a69f8d9a9e763403879f19b68",
      "blockNumber": 55217,
      "transactionIndex": 0,
      "confirmations": null,
      "from": "0x0ae3F81a67725a8A7758FeB8684c6c17dA20755D",
      "gasPrice": {
        "_hex": "0xe95b95d5f"
      },
      "gasLimit": {
        "_hex": "0x1e8480"
      },
      "to": "0xA327075af2a223A1C83a36aDa1126afE7430f955",
      "value": {
        "_hex": "0x8ac7230489e80000"
      },
      "nonce": 63,
      "data": "0x",
      "r": "0xef565f5650ce488d5b04f2a25802438689f6170eab146745d1b431677959766a",
      "s": "0x5289642439f18287ffd0a3499bf16885c555bbab3fcff06a8e33b6c14c896f2b",
      "v": 27,
      "creates": null,
      "raw": "0xf86d3f850e95b95d5f831e848094a327075af2a223a1c83a36ada1126afe7430f955888ac7230489e80000801ba0ef565f5650ce488d5b04f2a25802438689f6170eab146745d1b431677959766aa05289642439f18287ffd0a3499bf16885c555bbab3fcff06a8e33b6c14c896f2b",
      "networkId": 0,
      "chainId": 0
    }
  ]
}