{
  "hash": "0x4bb6079a8b06887422fd9f12ea4ff05d0c28b003e6d05995e8a2c4174be9b83c",
  "parentHash": "0x0692d6ac15ee23c57593b68e467fa833f9e978139ec30db98b9ac2b8c42af531",
  "number": 77659,
  "timestamp": 1439440664,
  "nonce": "0x7ecbc9d0daace62b",
  "difficulty": 2272245721472,
  "gasLimit": {
    "_hex": "0x2fefd8"
  },
  "gasUsed": {
    "_hex": "0x5208"
  },
  "miner": "0x923707da8Dd7Ff41a0bDD87b62c9E5DfA9c420a5",
  "extraData": "0x",
  "transactions": [
    {
      "hash": "0x5cf8f6d516cc2f9e2203be2b00d610dbae01bcfab62f301e1e11db0d08ee4a06",
      "blockHash": "0x4bb6079a8b06887422fd9f12ea4ff05d0c28b003e6d05995e8a2c4174be9b83c",
      "blockNumber": 77659,
      "transactionIndex": 0,
      "confirmations": null,
      "from": "0x9746c7e1ef2bd21FF3997fa467593a89cb852BD0",
      "gasPrice": {
        "_hex": "0xd890f39e5"
      },
      "gasLimit": {
        "_hex": "0x5208"
      },
      "to": "0xB0bF4A71F730782368Ef660FE6D298F432F95450",
      "value": {
        "_hex": "0x1b1ae4d6e2ef500000"
      },
      "nonce": 20,
      "data": "0x",
      "r": "0x8956de5076329e10b42c2b01aaf26d803bc6a9e57cc0c567e014cad521c05d05",
      "s": "0x627bfa1e9d3cb6900aca239e840e4ef9c743a92cdc3894ddfe7e09c791a70107",
      "v": 27,
      "creates": null,
      "raw": "0xf86d14850d890f39e582520894b0bf4a71f730782368ef660fe6d298f432f95450891b1ae4d6e2ef500000801ba08956de5076329e10b42c2b01aaf26d803bc6a9e57cc0c567e014cad521c05d05a0627bfa1e9d3cb6900aca239e840e4ef9c743a92cdc3894ddfe7e09c791a70107",
      "networkId": 0,
      "chainId": 0
    }
  ]
}