{
  "hash": "0x51e41909bee27069f4b405902d4688266c2e5df74aa812ccbd0589a1dae669f7",
  "parentHash": "0xd942d3a3558a3cf35cd77b62ee2b950b075625f90bc36146357a685ca62e09bb",
  "number": 101459,
  "timestamp": 1439823380,
  "nonce": "0x550e522446e3646d",
  "difficulty": 3839243175085,
  "gasLimit": {
    "_hex": "0x2fefd8"
  },
  "gasUsed": {
    "_hex": "0x5208"
  },
  "miner": "0xe6A7a1d47ff21B6321162AEA7C6CB457D5476Bca",
  "extraData": "0x476574682f76312e302e312d38326566323666362f6c696e75782f676f312e34",
  "transactions": [
    {
      "hash": "0x0cdbfb1dfa9dbca278798ca1f8fc313d88acd7dcf81b9a8b11a732bed1960bc7",
      "blockHash": "0x51e41909bee27069f4b405902d4688266c2e5df74aa812ccbd0589a1dae669f7",
      "blockNumber": 101459,
      "transactionIndex": 0,
      "confirmations": null,
      "from": "0xBc8405A1c3b4f67A4Ba6C70C91eF1F0152B6d3ab",
      "gasPrice": {
        "_hex": "0xdeb06cb3b"
      },
      "gasLimit": {
        "_hex": "0x5208"
      },
      "to": "0x32Be343B94f860124dC4fEe278FDCBD38C102D88",
      "value": {
        "_hex": "0x6095baf4dc31b000"
      },
      "nonce": 3,
      "data": "0x",
      "r": "0x161682a7ebb9342050345bca305e19ef956d1ee24fcf531689e4b80da6d0f9a5",
      "s": "0x083183f4b5f06cc53b089de1603083532d986915ad9cf09dbc511c8249886d66",
      "v": 27,
      "creates": null,
      "raw": "0xf86c03850deb06cb3b8252089432be343b94f860124dc4fee278fdcbd38c102d88886095baf4dc31b000801ba0161682a7ebb9342050345bca305e19ef956d1ee24fcf531689e4b80da6d0f9a5a0083183f4b5f06cc53b089de1603083532d986915ad9cf09dbc511c8249886d66",
      "networkId": 0,
      "chainId": 0
    }
  ]
}