{
  "hash": "0x4b8b863e0afced5dd1905939ccd79cc58595096e38389d7a74020fea59a1fa01",
  "parentHash": "0x0b733a27c84efe2f7f7a3e403ce8091534d7009638b291ca0a78173eae894c20",
  "number": 82481,
  "timestamp": 1439520059,
  "nonce": "0xf7bf7abe4392a1e4",
  "difficulty": 2379924640436,
  "gasLimit": {
    "_hex": "0x2fefd8"
  },
  "gasUsed": {
    "_hex": "0x546c"
  },
  "miner": "0xeB1325C8D9d3ea8D74aC11F4B00F1B2367686319",
  "extraData": "0x476574682f76312e302e312f77696e646f77732f676f312e342e32",
  "transactions": [
    {
      "hash": "0x9300f90f7d7edd17afb9c026206b04307008051f95922a207a479a63cb0cab37",
      "blockHash": "0x4b8b863e0afced5dd1905939ccd79cc58595096e38389d7a74020fea59a1fa01",
      "blockNumber": 82481,
      "transactionIndex": 0,
      "confirmations": null,
      "from": "0x790077820FC227245D3de4CDBd3D801f3dd6B8df",
      "gasPrice": {
        "_hex": "0xd651435ca"
      },
      "gasLimit": {
        "_hex": "0x55f0"
      },
      "to": "0x2910543Af39abA0Cd09dBb2D50200b3E800A63D2",
      "value": {
        "_hex": "0x56bc75e2d63100000"
      },
      "nonce": 0,
      "data": "0x454e45484a47445238",
      "r": "0x53d008adff7a512f0b29167d311fd70904b57823f661bacf8800db4786829fa0",
      "s": "0x4ce46006ab0d6fe919b95d1dac63a45da1ffde5f5e277c1090326f58def6e97d",
      "v": 27,
      "creates": null,
      "raw": "0xf87680850d651435ca8255f0942910543af39aba0cd09dbb2d50200b3e800a63d289056bc75e2d6310000089454e45484a474452381ba053d008adff7a512f0b29167d311fd70904b57823f661bacf8800db4786829fa0a04ce46006ab0d6fe919b95d1dac63a45da1ffde5f5e277c1090326f58def6e97d",
      "networkId": 0,
      "chainId": 0
    }
  ]
}