{
  "hash": "0x2bbcc534ad938787ff4d0f3495ccf9ed98bf93de537706ecbdda7d5b0cf4c018",
  "parentHash": "0xe5e70ae2b0f050a94510c00536108f153dbd5f3957662f8bb897bb3898cba2d7",
  "number": 57051,
  "timestamp": 1439096679,
  "nonce": "0xa06d1fdc7202d735",
  "difficulty": 1714369890751,
  "gasLimit": {
    "_hex": "0x2fefd8"
  },
  "gasUsed": {
    "_hex": "0x5208"
  },
  "miner": "0x01d9DA08cc6Fb97c0DE1B6F4C28910A0859Ed1A1",
  "extraData": "0x476574682f76312e302e312f6c696e75782f676f312e342e32",
  "transactions": [
    {
      "hash": "0x09d3373c8f9867f03171c8d1a13292e8f76faba101a7d78d353e3a3a153db727",
      "blockHash": "0x2bbcc534ad938787ff4d0f3495ccf9ed98bf93de537706ecbdda7d5b0cf4c018",
      "blockNumber": 57051,
      "transactionIndex": 0,
      "confirmations": null,
      "from": "0x7b0813f6450be6d2d27984878f03ee858471fF1c",
      "gasPrice": {
        "_hex": "0xd63526238"
      },
      "gasLimit": {
        "_hex": "0x5208"
      },
      "to": "0x32Be343B94f860124dC4fEe278FDCBD38C102D88",
      "value": {
        "_hex": "0x56bc313f1ba674000"
      },
      "nonce": 0,
      "data": "0x",
      "r": "0x24a9342406a014515c0c382efe432e3aebfed70fdbcc60d63a55a69842d47006",
      "s": "0x27d4a7992fcf216c3de36aeeb44b1562787548968f69748e7498609f1dd9a832",
      "v": 27,
      "creates": null,
      "raw": "0xf86d80850d635262388252089432be343b94f860124dc4fee278fdcbd38c102d8889056bc313f1ba674000801ba024a9342406a014515c0c382efe432e3aebfed70fdbcc60d63a55a69842d47006a027d4a7992fcf216c3de36aeeb44b1562787548968f69748e7498609f1dd9a832",
      "networkId": 0,
      "chainId": 0
    }
  ]
}