{
  "hash": "0xab837179326003b27cbcdf83d1d5ef379604de9d24b69334d248782ecf080e7a",
  "parentHash": "0x836a672ad13d56773bd023667c4b02bf5afe746c8ab7b844fe6d197bcb6bf4cd",
  "number": 115623,
  "timestamp": 1440060401,
  "nonce": "0xc591385195378529",
  "difficulty": 4587220527174,
  "gasLimit": {
    "_hex": "0x2fefd8"
  },
  "gasUsed": {
    "_hex": "0x5208"
  },
  "miner": "0xe6A7a1d47ff21B6321162AEA7C6CB457D5476Bca",
  "extraData": "0x476574682f76312e302e312d38326566323666362f6c696e75782f676f312e34",
  "transactions": [
    {
      "hash": "0x43f71b5ed34390ba5ced6c6aafe6897b44156e17f1f977ce66a5dee0230bf6ad",
      "blockHash": "0xab837179326003b27cbcdf83d1d5ef379604de9d24b69334d248782ecf080e7a",
      "blockNumber": 115623,
      "transactionIndex": 0,
      "confirmations": null,
      "from": "0xC3fe64D1af00F0d9c324E4387EF7533f7D788e95",
      "gasPrice": {
        "_hex": "0xcc34d3929"
      },
      "gasLimit": {
        "_hex": "0x5208"
      },
      "to": "0x32Be343B94f860124dC4fEe278FDCBD38C102D88",
      "value": {
        "_hex": "0x172855d94e424a000"
      },
      "nonce": 19,
      "data": "0x",
      "r": "0xab2ff3e3720dd67166b8f304eba537cbb0caab616cbb869ba05e9646799f5bb8",
      "s": "0x5bc63722ef3c87dd96cb8168cc461b0f6e41b6a45157584a582a622977d16a36",
      "v": 27,
      "creates": null,
      "raw": "0xf86d13850cc34d39298252089432be343b94f860124dc4fee278fdcbd38c102d88890172855d94e424a000801ba0ab2ff3e3720dd67166b8f304eba537cbb0caab616cbb869ba05e9646799f5bb8a05bc63722ef3c87dd96cb8168cc461b0f6e41b6a45157584a582a622977d16a36",
      "networkId": 0,
      "chainId": 0
    }
  ]
}