{
  "hash": "0xa988a7047ffb64b7133995272275d5a8e168bceb17304505f8e6651b004efe4c",
  "parentHash": "0xa85e606ee4e55252cb443fc04982e21e232b3a424c4e1286b3bba4fcd93c874a",
  "number": 60294,
  "timestamp": 1439153006,
  "nonce": "0x99bd878ed8496db0",
  "difficulty": 1746654033564,
  "gasLimit": {
    "_hex": "0x2fefd8"
  },
  "gasUsed": {
    "_hex": "0x5208"
  },
  "miner": "0x39A1BB80a741bF5EC39FB9BE59408Fa0F418fFBf",
  "extraData": "0x476574682f76312e302e312f77696e646f77732f676f312e342e32",
  "transactions": [
    {
      "hash": "0xc9470aa6f288d870cb8e75daaef02524e4db8836a90f8f43405728ec1e93f82a",
      "blockHash": "0xa988a7047ffb64b7133995272275d5a8e168bceb17304505f8e6651b004efe4c",
      "blockNumber": 60294,
      "transactionIndex": 0,
      "confirmations": null,
      "from": "0x2910543Af39abA0Cd09dBb2D50200b3E800A63D2",
      "gasPrice": {
        "_hex": "0xcef33766b"
      },
      "gasLimit": {
        "_hex": "0x5208"
      },
      "to": "0xCbba2f66729Ec94442bbd504a8F45fF68cBE6b7f",
      "value": {
        "_hex": "0x56bb59ab42b2f8000"
      },
      "nonce": 16,
      "data": "0x",
      "r": "0x476b59553db455dbd71fb8c349d128bb2ebc973c6c053f44aba570e5690776aa",
      "s": "0x658d12c2af5dacf03239ec206257b956eae4c76c60166b46a78c1690e0506fbf",
      "v": 28,
      "creates": null,
      "raw": "0xf86d10850cef33766b82520894cbba2f66729ec94442bbd504a8f45ff68cbe6b7f89056bb59ab42b2f8000801ca0476b59553db455dbd71fb8c349d128bb2ebc973c6c053f44aba570e5690776aaa0658d12c2af5dacf03239ec206257b956eae4c76c60166b46a78c1690e0506fbf",
      "networkId": 0,
      "chainId": 0
    }
  ]
}