{
  "hash": "0x57cea6f50f5d57dacd53b37e38f9f3a61d7e9ff9225793565e4a69133704ebc3",
  "parentHash": "0xf4b19baa90743d0d5cd2640577672d7b9fee8fe41f4bb617a16798d8e1a96ee2",
  "number": 79465,
  "timestamp": 1439470153,
  "nonce": "0xb5a2fbffa1ca8b9c",
  "difficulty": 2334731994968,
  "gasLimit": {
    "_hex": "0x2fefd5"
  },
  "gasUsed": {
    "_hex": "0x5208"
  },
  "miner": "0x8964Bb67A8103e116bF15dF338b95916CaD4a775",
  "extraData": "0x4d657a697469",
  "transactions": [
    {
      "hash": "0x7717e8eebe05c1368135ea511b3fa325a274f63891f7f4022dc1209b13d70ee5",
      "blockHash": "0x57cea6f50f5d57dacd53b37e38f9f3a61d7e9ff9225793565e4a69133704ebc3",
      "blockNumber": 79465,
      "transactionIndex": 0,
      "confirmations": null,
      "from": "0x761E6CaEC189C230A162EC006530193E67cf9D19",
      "gasPrice": {
        "_hex": "0xd69b48315"
      },
      "gasLimit": {
        "_hex": "0x15f90"
      },
      "to": "0xb00cc6Bfb8ceCe4A3AC555AfbB614005DD590BE6",
      "value": {
        "_hex": "0xad78ebc5ac6200000"
      },
      "nonce": 4,
      "data": "0x",
      "r": "0x54f46ffe0962f28b75fb70b263459766190c2c217104db31d3b2fa486fbb233c",
      "s": "0x72bc63cd66a56506b4808794ea221c3a448e3bd3616e221d503913b7b6a1e248",
      "v": 28,
      "creates": null,
      "raw": "0xf86e04850d69b4831583015f9094b00cc6bfb8cece4a3ac555afbb614005dd590be6890ad78ebc5ac6200000801ca054f46ffe0962f28b75fb70b263459766190c2c217104db31d3b2fa486fbb233ca072bc63cd66a56506b4808794ea221c3a448e3bd3616e221d503913b7b6a1e248",
      "networkId": 0,
      "chainId": 0
    }
  ]
}