{
  "hash": "0x46158785020e14740aa478676f9f392b6c551f4a752703875e02ad274eb48f6a",
  "parentHash": "0x3843087b81ccd2db4e359425a84addfe46ef764cbf7c789d5444cd0fab6ca105",
  "number": 97014,
  "timestamp": 1439749471,
  "nonce": "0x82b44510bbb63cdb",
  "difficulty": 3746802452770,
  "gasLimit": {
    "_hex": "0x2fefd8"
  },
  "gasUsed": {
    "_hex": "0x5208"
  },
  "miner": "0xe6A7a1d47ff21B6321162AEA7C6CB457D5476Bca",
  "extraData": "0x476574682f76312e302e312d38326566323666362f6c696e75782f676f312e34",
  "transactions": [
    {
      "hash": "0x903d196b5861425eb61cb0aed0261028cabea6fa19cadada6feb2272630d464b",
      "blockHash": "0x46158785020e14740aa478676f9f392b6c551f4a752703875e02ad274eb48f6a",
      "blockNumber": 97014,
      "transactionIndex": 0,
      "confirmations": null,
      "from": "0xA10CDF70bc138605c39F8651A78485Fe4F1C3811",
      "gasPrice": {
        "_hex": "0xd0d32ab2b"
      },
      "gasLimit": {
        "_hex": "0x5208"
      },
      "to": "0x32Be343B94f860124dC4fEe278FDCBD38C102D88",
      "value": {
        "_hex": "0x455f62deb1376800"
      },
      "nonce": 6,
      "data": "0x",
      "r": "0x0f7746ec9daaa1fae7858fecc3aa46ca546cc8dd46330a873a85a7d36e9ca46e",
      "s": "0x3c7fa1fcc90cff2663e056cce83f456b0ffaf0317c4437f0a507b878c97c32be",
      "v": 27,
      "creates": null,
      "raw": "0xf86c06850d0d32ab2b8252089432be343b94f860124dc4fee278fdcbd38c102d8888455f62deb1376800801ba00f7746ec9daaa1fae7858fecc3aa46ca546cc8dd46330a873a85a7d36e9ca46ea03c7fa1fcc90cff2663e056cce83f456b0ffaf0317c4437f0a507b878c97c32be",
      "networkId": 0,
      "chainId": 0
    }
  ]
}