{
  "hash": "0xf3dbbb6e8cf7161e8d8f84edada00b9a26e70cfec0acde66942520094a38dc08",
  "parentHash": "0x5c59ff53927b2ab4a2b38639f7a8d5697072818d7fcba4ff9e3965baa4d70acd",
  "number": 117821,
  "timestamp": 1440115924,
  "nonce": "0xd7fc56102f1a2d72",
  "difficulty": 4350443917039,
  "gasLimit": {
    "_hex": "0x2fefd8"
  },
  "gasUsed": {
    "_hex": "0x5208"
  },
  "miner": "0x790b8a3cE86E707ED0eD32bF89B3269692a23CC1",
  "extraData": "0xd783010002844765746887676f312e342e32856c696e7578",
  "transactions": [
    {
      "hash": "0x787386ccaff2773ff4e9194c9253b496bdb2fc80d6dbdff01cc04ce54dae25b9",
      "blockHash": "0xf3dbbb6e8cf7161e8d8f84edada00b9a26e70cfec0acde66942520094a38dc08",
      "blockNumber": 117821,
      "transactionIndex": 0,
      "confirmations": null,
      "from": "0x3175a28CF6105466923f11bFFabD279F162aa2f8",
      "gasPrice": {
        "_hex": "0xba43b7400"
      },
      "gasLimit": {
        "_hex": "0x5208"
      },
      "to": "0x32Be343B94f860124dC4fEe278FDCBD38C102D88",
      "value": {
        "_hex": "0x1d2affb791161800"
      },
      "nonce": 18,
      "data": "0x",
      "r": "0x38a329ff93d1c7d0b5159c2ea675e0322dfb1850529d8f039891744935690703",
      "s": "0x355d9e834a16945e482de692da0826d522bed59315d7dc88dae671b0ce7bb85c",
      "v": 28,
      "creates": null,
      "raw": "0xf86c12850ba43b74008252089432be343b94f860124dc4fee278fdcbd38c102d88881d2affb791161800801ca038a329ff93d1c7d0b5159c2ea675e0322dfb1850529d8f039891744935690703a0355d9e834a16945e482de692da0826d522bed59315d7dc88dae671b0ce7bb85c",
      "networkId": 0,
      "chainId": 0
    }
  ]
}