{
  "hash": "0xded4d24cd781d513620d9967c40907043fe48caac9bfec0f7972020578732e6d",
  "parentHash": "0x4e65e9917346a1027b6ecf959f9bd06eba75677bde73845bbabd463f0c45f1de",
  "number": 82748,
  "timestamp": 1439524490,
  "nonce": "0x9db4a2658b907551",
  "difficulty": 2381011210733,
  "gasLimit": {
    "_hex": "0x2fefd8"
  },
  "gasUsed": {
    "_hex": "0x1d956"
  },
  "miner": "0x157c6f2431eB1a95797EE86F7d17b3c0FD47A247",
  "extraData": "0x476574682f76312e302e312f77696e646f77732f676f312e342e32",
  "transactions": [
    {
      "hash": "0x75dc7b299adf4e783fb137342a59e936f3a30f99e12e9dfd3bd4067b93daf149",
      "blockHash": "0xded4d24cd781d513620d9967c40907043fe48caac9bfec0f7972020578732e6d",
      "blockNumber": 82748,
      "transactionIndex": 0,
      "confirmations": null,
      "from": "0x1c11Aa45C792e202e9ffDc2F12f99D0d209BEf70",
      "gasPrice": {
        "_hex": "0xe2042fe8c"
      },
      "gasLimit": {
        "_hex": "0x15f90"
      },
      "to": "0x35F0729966012509BFc40c495f469D538e531712",
      "value": {
        "_hex": "0x0"
      },
      "nonce": 4,
      "data": "0x45466f3a",
      "r": "0x387a63634357c47b296b47e411c96a99b640b84130be8d2d3eaf31b0bbf2da1a",
      "s": "0x55b8e7751e7f589448313ce83bc0b401c884be4bb568e02c9cbf836e560ab21c",
      "v": 27,
      "creates": null,
      "raw": "0xf86904850e2042fe8c83015f909435f0729966012509bfc40c495f469d538e531712808445466f3a1ba0387a63634357c47b296b47e411c96a99b640b84130be8d2d3eaf31b0bbf2da1aa055b8e7751e7f589448313ce83bc0b401c884be4bb568e02c9cbf836e560ab21c",
      "networkId": 0,
      "chainId": 0
    },
    {
      "hash": "0x4b301c9e2f5ea8f46ea9b2144f910909eaaf499f23c55525dc3405bdda891fe4",
      "blockHash": "0xded4d24cd781d513620d9967c40907043fe48caac9bfec0f7972020578732e6d",
      "blockNumber": 82748,
      "transactionIndex": 1,
      "confirmations": null,
      "from": "0xc30F3e11B4f34259ce948A5558F73f64fDc9Ed7B",
      "gasPrice": {
        "_hex": "0xd26e0e0b9"
      },
      "gasLimit": {
        "_hex": "0xf4240"
      },
      "to": null,
      "value": {
        "_hex": "0x0"
      },
      "nonce": 1,
      "data": "0x60606040525b33600060006101000a81548173ffffffffffffffffffffffffffffffffffffffff021916908302179055505b60d58061003f6000396000f30060606040526000357c01000000000000000000000000000000000000000000000000000000009004806341c0e1b5146037576035565b005b60406004506042565b005b600060009054906101000a900473ffffffffffffffffffffffffffffffffffffffff1673ffffffffffffffffffffffffffffffffffffffff163373ffffffffffffffffffffffffffffffffffffffff16141560d257600060009054906101000a900473ffffffffffffffffffffffffffffffffffffffff1673ffffffffffffffffffffffffffffffffffffffff16ff5b5b56",
      "r": "0x0b2df4caafd69e59de8c8c592aa43c78c4659a934477697a1f5e7765f93bba9f",
      "s": "0x45ffa1041fb868c823d38159e6d754d2c6614ea4afaa38e88f743b01ab9d97c0",
      "v": 28,
      "creates": "0xb090C8dd5ddd7f505a2a4b66879a8a2b0962a963",
      "raw": "0xf9016701850d26e0e0b9830f42408080b9011460606040525b33600060006101000a81548173ffffffffffffffffffffffffffffffffffffffff021916908302179055505b60d58061003f6000396000f30060606040526000357c01000000000000000000000000000000000000000000000000000000009004806341c0e1b5146037576035565b005b60406004506042565b005b600060009054906101000a900473ffffffffffffffffffffffffffffffffffffffff1673ffffffffffffffffffffffffffffffffffffffff163373ffffffffffffffffffffffffffffffffffffffff16141560d257600060009054906101000a900473ffffffffffffffffffffffffffffffffffffffff1673ffffffffffffffffffffffffffffffffffffffff16ff5b5b561ca00b2df4caafd69e59de8c8c592aa43c78c4659a934477697a1f5e7765f93bba9fa045ffa1041fb868c823d38159e6d754d2c6614ea4afaa38e88f743b01ab9d97c0",
      "networkId": 0,
      "chainId": 0
    }
  ]
}