{
  "hash": "0x9b8f519c3cde410a885928771ae4b4efe9194065a3b8f77a4626a9e8178a546c",
  "parentHash": "0x7d739a9aace52b3eb56204de65133f8fa0f6bc0894822596494285dda5feea88",
  "number": 85419,
  "timestamp": 1439563248,
  "nonce": "0xdbb1f91952f15f70",
  "difficulty": 2749034744315,
  "gasLimit": {
    "_hex": "0x2fefd8"
  },
  "gasUsed": {
    "_hex": "0x5208"
  },
  "miner": "0xe6A7a1d47ff21B6321162AEA7C6CB457D5476Bca",
  "extraData": "0x476574682f76312e302e312d38326566323666362f6c696e75782f676f312e34",
  "transactions": [
    {
      "hash": "0x2742250fd4b54f28fbf2215fb8412d3286728d36275434208f2fa5ee63571778",
      "blockHash": "0x9b8f519c3cde410a885928771ae4b4efe9194065a3b8f77a4626a9e8178a546c",
      "blockNumber": 85419,
      "transactionIndex": 0,
      "confirmations": null,
      "from": "0x2910543Af39abA0Cd09dBb2D50200b3E800A63D2",
      "gasPrice": {
        "_hex": "0xd32900da9"
      },
      "gasLimit": {
        "_hex": "0x5208"
      },
      "to": "0x5a0f0935E8E5591B2f9f2d55f29C626B50292088",
      "value": {
        "_hex": "0x13bc85eb5493914000"
      },
      "nonce": 612,
      "data": "0x",
      "r": "0xf740b9c4d5b7a0730b4382b479fa3db434ca61f0e911d76fbb7ce33e6deef859",
      "s": "0x1d7ddbb7b90cf27f2fb34f076ed047042276419f037447abe15ab9adff5d9de6",
      "v": 28,
      "creates": null,
      "raw": "0xf86f820264850d32900da9825208945a0f0935e8e5591b2f9f2d55f29c626b502920888913bc85eb5493914000801ca0f740b9c4d5b7a0730b4382b479fa3db434ca61f0e911d76fbb7ce33e6deef859a01d7ddbb7b90cf27f2fb34f076ed047042276419f037447abe15ab9adff5d9de6",
      "networkId": 0,
      "chainId": 0
    }
  ]
}