{
  "hash": "0x28f040f5b3515e7f023f9c86f7862486563998fa0965c5394fff3348104e7b68",
  "parentHash": "0x5e86923c8e11c46b217f97cf094237a8908d330846b310e91d933a89b67cc3dc",
  "number": 85804,
  "timestamp": 1439569089,
  "nonce": "0x8555e3eb6d56ed55",
  "difficulty": 2766413204662,
  "gasLimit": {
    "_hex": "0x2fefd8"
  },
  "gasUsed": {
    "_hex": "0x5208"
  },
  "miner": "0x9Fa9952255B2b06639A04D63804d4BdFFf6E2d7e",
  "extraData": "0x476574682f76312e302e312f77696e646f77732f676f312e342e32",
  "transactions": [
    {
      "hash": "0x8453b020628f63ad5f578bfb7847028f783d898b8f643ea81284208ebd05e5ab",
      "blockHash": "0x28f040f5b3515e7f023f9c86f7862486563998fa0965c5394fff3348104e7b68",
      "blockNumber": 85804,
      "transactionIndex": 0,
      "confirmations": null,
      "from": "0x0D4EcC7d750180EBf4A9Df728B6669B5Bceb5E40",
      "gasPrice": {
        "_hex": "0xe1885e1ac"
      },
      "gasLimit": {
        "_hex": "0x5208"
      },
      "to": "0x32Be343B94f860124dC4fEe278FDCBD38C102D88",
      "value": {
        "_hex": "0x340628d622888000"
      },
      "nonce": 31,
      "data": "0x",
      "r": "0xbe8e234b85c89c440f3f23bbbb4810515d967bc6d2316c4e3b084079b0a1fb9a",
      "s": "0x0c2161dd35a7d04ead3e60ea349c0d22dffd7565d5cd7d17a4c19ecf39f9d3b2",
      "v": 27,
      "creates": null,
      "raw": "0xf86c1f850e1885e1ac8252089432be343b94f860124dc4fee278fdcbd38c102d8888340628d622888000801ba0be8e234b85c89c440f3f23bbbb4810515d967bc6d2316c4e3b084079b0a1fb9aa00c2161dd35a7d04ead3e60ea349c0d22dffd7565d5cd7d17a4c19ecf39f9d3b2",
      "networkId": 0,
      "chainId": 0
    }
  ]
}