{
  "hash": "0xb23449c1f96e2ee74865e8b9e72fb5ea024bd5604975e5367ed7e4dc33a37b91",
  "parentHash": "0x794ec08ee2d14161b75c9b73e93ed271728d0436f42212b15d77ec90fd7f3d24",
  "number": 68430,
  "timestamp": 1439287760,
  "nonce": "0xe909b9eaf25e6af0",
  "difficulty": 2012364152788,
  "gasLimit": {
    "_hex": "0x2fefd8"
  },
  "gasUsed": {
    "_hex": "0x14820"
  },
  "miner": "0xde8B4cca204F866220e8e25817668Cd44a5fee88",
  "extraData": "0x",
  "transactions": [
    {
      "hash": "0x1e0e09478e9c53c8351116ebfa8413a84e23230b119f18fca6e8fb0f7791880a",
      "blockHash": "0xb23449c1f96e2ee74865e8b9e72fb5ea024bd5604975e5367ed7e4dc33a37b91",
      "blockNumber": 68430,
      "transactionIndex": 0,
      "confirmations": null,
      "from": "0x825294bf5C8888722248Fd3fB82BC3eC343500b4",
      "gasPrice": {
        "_hex": "0xba43b7400"
      },
      "gasLimit": {
        "_hex": "0x5208"
      },
      "to": "0x3d8b48f50F63FC839A2Ee90280492Dfaa293FB60",
      "value": {
        "_hex": "0x937bda828f9000"
      },
      "nonce": 1,
      "data": "0x",
      "r": "0x1ddeb99efe0830b3516fb8f5491dfaf56b9257a123bd40986f30c306e204c003",
      "s": "0x1ace952885908d8aadaeaef6d1c556aac0643d624aae49a69817bcfb6bdb50b8",
      "v": 28,
      "creates": null,
      "raw": "0xf86b01850ba43b7400825208943d8b48f50f63fc839a2ee90280492dfaa293fb6087937bda828f9000801ca01ddeb99efe0830b3516fb8f5491dfaf56b9257a123bd40986f30c306e204c003a01ace952885908d8aadaeaef6d1c556aac0643d624aae49a69817bcfb6bdb50b8",
      "networkId": 0,
      "chainId": 0
    },
    {
      "hash": "0xc73bba0a8abf4e26fc77a095a54d4956b02ee1f206fbbcd43f3c832563dab7ff",
      "blockHash": "0xb23449c1f96e2ee74865e8b9e72fb5ea024bd5604975e5367ed7e4dc33a37b91",
      "blockNumber": 68430,
      "transactionIndex": 1,
      "confirmations": null,
      "from": "0x6747f922385c9a6F9cfDf095F34345257DD597bE",
      "gasPrice": {
        "_hex": "0xba43b7400"
      },
      "gasLimit": {
        "_hex": "0x5208"
      },
      "to": "0x96C0b0D3c596eB00632822295C4cA24DF5c03BB2",
      "value": {
        "_hex": "0x1fcbfa42bd6000"
      },
      "nonce": 85,
      "data": "0x",
      "r": "0x8500736137c49d60398747f3d673ed8888c2c9964b6a7a7ce0a9cbab43a50993",
      "s": "0x23d85a5e4c23f4dc431b54d64266c4333c019f9aaa16a7da969ec04045a9b4de",
      "v": 28,
      "creates": null,
      "raw": "0xf86b55850ba43b74008252089496c0b0d3c596eb00632822295c4ca24df5c03bb2871fcbfa42bd6000801ca08500736137c49d60398747f3d673ed8888c2c9964b6a7a7ce0a9cbab43a50993a023d85a5e4c23f4dc431b54d64266c4333c019f9aaa16a7da969ec04045a9b4de",
      "networkId": 0,
      "chainId": 0
    },
    {
      "hash": "0x843978f931836e79209ea8db12e76d3b4af9483435c8d3a1760c810b262da27e",
      "blockHash": "0xb23449c1f96e2ee74865e8b9e72fb5ea024bd5604975e5367ed7e4dc33a37b91",
      "blockNumber": 68430,
      "transactionIndex": 2,
      "confirmations": null,
      "from": "0x3715fFAde7173D0EaFa118Ef4F70f94679456B94",
      "gasPrice": {
        "_hex": "0xba43b7400"
      },
      "gasLimit": {
        "_hex": "0x5208"
      },
      "to": "0xb1792f5E416e5B3C7C4940C53C3de3357D5a366C",
      "value": {
        "_hex": "0x937bda828f9000"
      },
      "nonce": 1,
      "data": "0x",
      "r": "0x90dbd0b4a74963f318ac17572b6620239a910a4d8b570c5ea5510d246dac31ee",
      "s": "0x380992ff158d58e2be8b85da9c6a577b56bba519f2d48a27f775f9411ce87ffe",
      "v": 28,
      "creates": null,
      "raw": "0xf86b01850ba43b740082520894b1792f5e416e5b3c7c4940c53c3de3357d5a366c87937bda828f9000801ca090dbd0b4a74963f318ac17572b6620239a910a4d8b570c5ea5510d246dac31eea0380992ff158d58e2be8b85da9c6a577b56bba519f2d48a27f775f9411ce87ffe",
      "networkId": 0,
      "chainId": 0
    },
    {
      "hash": "0x8acd54c25ddefb73dffe8819cd804ba0d16a719b3159d79c1374ed655aa66a96",
      "blockHash": "0xb23449c1f96e2ee74865e8b9e72fb5ea024bd5604975e5367ed7e4dc33a37b91",
      "blockNumber": 68430,
      "transactionIndex": 3,
      "confirmations": null,
      "from": "0x083c54Ec3fa2DA0cbC17aBCB179b58E1408928bA",
      "gasPrice": {
        "_hex": "0xba43b7400"
      },
      "gasLimit": {
        "_hex": "0x5208"
      },
      "to": "0x636F3A63A881643a3cbE4C906284bbd315E541ab",
      "value": {
        "_hex": "0x937bda828f9000"
      },
      "nonce": 1,
      "data": "0x",
      "r": "0x62f189a746838a53107af14e66da49304bbfa2fbaedbf3de517ad15b2907ccff",
      "s": "0x1dbc6e295f910d277683664834c325464519d60cfa9f3e760470ea94b82f1f4d",
      "v": 27,
      "creates": null,
      "raw": "0xf86b01850ba43b740082520894636f3a63a881643a3cbe4c906284bbd315e541ab87937bda828f9000801ba062f189a746838a53107af14e66da49304bbfa2fbaedbf3de517ad15b2907ccffa01dbc6e295f910d277683664834c325464519d60cfa9f3e760470ea94b82f1f4d",
      "networkId": 0,
      "chainId": 0
    }
  ]
}