{
  "hash": "0x61566bba5d62692d94c27adcb64962091b8ec3aa0ce599c1d5b79e47fbfe2da4",
  "parentHash": "0x7f148c5f13d87cf1e9b30c50f8dc9324c2ba9085191e8140175052edf241d7ce",
  "number": 85934,
  "timestamp": 1439570983,
  "nonce": "0xb6ac0cb62d4ca0b6",
  "difficulty": 2785345853354,
  "gasLimit": {
    "_hex": "0x2fefd8"
  },
  "gasUsed": {
    "_hex": "0x546c"
  },
  "miner": "0x79ca0E269c8949Ee9a58aB594a2DbbeFb230edF3",
  "extraData": "0x",
  "transactions": [
    {
      "hash": "0x07180c5f173c88b13d9766f5061ecb66cebbe32092ffb4646bc7adde710c0f18",
      "blockHash": "0x61566bba5d62692d94c27adcb64962091b8ec3aa0ce599c1d5b79e47fbfe2da4",
      "blockNumber": 85934,
      "transactionIndex": 0,
      "confirmations": null,
      "from": "0xb036916Bdacf94B69e5a8A65602975Eb026104dd",
      "gasPrice": {
        "_hex": "0x110c8f7d8de"
      },
      "gasLimit": {
        "_hex": "0xc350"
      },
      "to": "0x2910543Af39abA0Cd09dBb2D50200b3E800A63D2",
      "value": {
        "_hex": "0x105dfb505bf9f0000"
      },
      "nonce": 1,
      "data": "0x454e474e36474e4247",
      "r": "0x1285c38c9ce75d887fa311401ce504388ad86fdf5212ff5a6d1d50d15c7eadae",
      "s": "0x5b9d6eafecdde3afcc2134890bec39cb5f1627744229229c1b1167623fe19a88",
      "v": 27,
      "creates": null,
      "raw": "0xf87701860110c8f7d8de82c350942910543af39aba0cd09dbb2d50200b3e800a63d2890105dfb505bf9f000089454e474e36474e42471ba01285c38c9ce75d887fa311401ce504388ad86fdf5212ff5a6d1d50d15c7eadaea05b9d6eafecdde3afcc2134890bec39cb5f1627744229229c1b1167623fe19a88",
      "networkId": 0,
      "chainId": 0
    }
  ]
}