{
  "hash": "0x2664c73effbf025e19ab948076443ae3782e701a6108480fb995567ce79b88c1",
  "parentHash": "0x4c48c8bae6063180a8490029332e4dbc85f8cff426be5b0449c145c5d73f860c",
  "number": 71260,
  "timestamp": 1439333390,
  "nonce": "0x0a869dfb6cd3ae41",
  "difficulty": 2149809254209,
  "gasLimit": {
    "_hex": "0x2fefd8"
  },
  "gasUsed": {
    "_hex": "0xe608"
  },
  "miner": "0xf8E0CA3Ed80bd541b94BEdCf259e8CF2141A9523",
  "extraData": "0x476574682f76312e302e312f77696e646f77732f676f312e342e32",
  "transactions": [
    {
      "hash": "0x93209ad66dd3cf150ef0c3f3a3771b3c802a0c8a43d36a926f0233fe049fc80b",
      "blockHash": "0x2664c73effbf025e19ab948076443ae3782e701a6108480fb995567ce79b88c1",
      "blockNumber": 71260,
      "transactionIndex": 0,
      "confirmations": null,
      "from": "0x1e7B5e4d1F572BEcf2c00fC90cB4767b4A6E33D4",
      "gasPrice": {
        "_hex": "0xda5b8f29b"
      },
      "gasLimit": {
        "_hex": "0x15f90"
      },
      "to": "0x3a5e3acAF9E194bFc9bE8a16B3f437D7eA1d7A15",
      "value": {
        "_hex": "0xd3175759a92c693"
      },
      "nonce": 2,
      "data": "0x",
      "r": "0xec4532348eb5c42ae80f2faa28514b7c42e97b70508983ce96b39a6f9a616720",
      "s": "0x2adec4ac13d32ead4ba470065325e3f546b319dd296ddb3cf921d733199115f6",
      "v": 28,
      "creates": null,
      "raw": "0xf86d02850da5b8f29b83015f90943a5e3acaf9e194bfc9be8a16b3f437d7ea1d7a15880d3175759a92c693801ca0ec4532348eb5c42ae80f2faa28514b7c42e97b70508983ce96b39a6f9a616720a02adec4ac13d32ead4ba470065325e3f546b319dd296ddb3cf921d733199115f6",
      "networkId": 0,
      "chainId": 0
    },
    {
      "hash": "0x7e283d4246a9c7d1cc9fcc92fa30d3c9d3a8c7caeab28e9eda018d15ccbee775",
      "blockHash": "0x2664c73effbf025e19ab948076443ae3782e701a6108480fb995567ce79b88c1",
      "blockNumber": 71260,
      "transactionIndex": 1,
      "confirmations": null,
      "from": "0x17580B766f7453525ca4C6A88b01b50570EA088C",
      "gasPrice": {
        "_hex": "0xcca56c138"
      },
      "gasLimit": {
        "_hex": "0x61a80"
      },
      "to": "0x5Fe5B7546D1628f7348B023A0393de1FC825A4fD",
      "value": {
        "_hex": "0x3782dace9d900000"
      },
      "nonce": 135,
      "data": "0xb595b8b50000000000000000000000000000000000000000000000000000000000000001",
      "r": "0xf3ef81f3f91ce3c460ae3683d832bbeaac2236fafd2375e16d60ad45d899de8d",
      "s": "0x236e5d5e83978141353a7c26401da6b45bd8ea7193916cf1e5b2bf6b215bdd7d",
      "v": 28,
      "creates": null,
      "raw": "0xf8928187850cca56c13883061a80945fe5b7546d1628f7348b023a0393de1fc825a4fd883782dace9d900000a4b595b8b500000000000000000000000000000000000000000000000000000000000000011ca0f3ef81f3f91ce3c460ae3683d832bbeaac2236fafd2375e16d60ad45d899de8da0236e5d5e83978141353a7c26401da6b45bd8ea7193916cf1e5b2bf6b215bdd7d",
      "networkId": 0,
      "chainId": 0
    }
  ]
}