{
  "hash": "0x563240467814da963f9c46fe418bdc21360bc5e7d96f7f7d774d8caa34f9ea21",
  "parentHash": "0x09bb1abff48bfe823cae264b376de83d19d804362eb9cb03f335e7610a13ea1d",
  "number": 119453,
  "timestamp": 1440143352,
  "nonce": "0xe54b513b75884e5c",
  "difficulty": 4383711941996,
  "gasLimit": {
    "_hex": "0x2fefd8"
  },
  "gasUsed": {
    "_hex": "0xf618"
  },
  "miner": "0x98f7A0eDF3E25675482cA52480B7e07cA828a4b9",
  "extraData": "0x476574682f76312e302e322f6c696e75782f676f312e342e32",
  "transactions": [
    {
      "hash": "0x81d144056296c0b23146cc5b765b57a181d9d44e43a34a44e85fb946366f76f2",
      "blockHash": "0x563240467814da963f9c46fe418bdc21360bc5e7d96f7f7d774d8caa34f9ea21",
      "blockNumber": 119453,
      "transactionIndex": 0,
      "confirmations": null,
      "from": "0x7B578F673507975447C714DF2bdCd15801fe30Fe",
      "gasPrice": {
        "_hex": "0xba43b7400"
      },
      "gasLimit": {
        "_hex": "0x5208"
      },
      "to": "0x32Be343B94f860124dC4fEe278FDCBD38C102D88",
      "value": {
        "_hex": "0xe256da394090000"
      },
      "nonce": 7,
      "data": "0x",
      "r": "0x112512eae62d2a3d17f40429c14dbd6a7dd5d6860a7c4beb330b9e5a8e2761b3",
      "s": "0x0a8b3d8607dbc397eb7b55b213cf79184a85d626e6ca61aba9c438bf2ee5e448",
      "v": 27,
      "creates": null,
      "raw": "0xf86c07850ba43b74008252089432be343b94f860124dc4fee278fdcbd38c102d88880e256da394090000801ba0112512eae62d2a3d17f40429c14dbd6a7dd5d6860a7c4beb330b9e5a8e2761b3a00a8b3d8607dbc397eb7b55b213cf79184a85d626e6ca61aba9c438bf2ee5e448",
      "networkId": 0,
      "chainId": 0
    },
    {
      "hash": "0x1d0d47502a2676a0162dadfa499a5a2e446ae11fd065b696c398d67cdefc499d",
      "blockHash": "0x563240467814da963f9c46fe418bdc21360bc5e7d96f7f7d774d8caa34f9ea21",
      "blockNumber": 119453,
      "transactionIndex": 1,
      "confirmations": null,
      "from": "0x4A29dF8a7967b36664f256F18dAcf2e58E9f1E7E",
      "gasPrice": {
        "_hex": "0xba43b7400"
      },
      "gasLimit": {
        "_hex": "0x5208"
      },
      "to": "0x32Be343B94f860124dC4fEe278FDCBD38C102D88",
      "value": {
        "_hex": "0x613f04dcb8b580000"
      },
      "nonce": 10,
      "data": "0x",
      "r": "0xccf3ac8ed2b5344f7895779de202d5499418b1d86421507e029aa99172e80fb0",
      "s": "0x4b3d2960a41ffd9086ce5983f797c9a8888f896d8ecf247314e2a016c9e3e1db",
      "v": 28,
      "creates": null,
      "raw": "0xf86d0a850ba43b74008252089432be343b94f860124dc4fee278fdcbd38c102d88890613f04dcb8b580000801ca0ccf3ac8ed2b5344f7895779de202d5499418b1d86421507e029aa99172e80fb0a04b3d2960a41ffd9086ce5983f797c9a8888f896d8ecf247314e2a016c9e3e1db",
      "networkId": 0,
      "chainId": 0
    },
    {
      "hash": "0x3e7b6c230d7802e9f3910389b7ce5c4584ce1ba9b31837408edbad5fdb0ad325",
      "blockHash": "0x563240467814da963f9c46fe418bdc21360bc5e7d96f7f7d774d8caa34f9ea21",
      "blockNumber": 119453,
      "transactionIndex": 2,
      "confirmations": null,
      "from": "0x10a3287DC19D160c0EF7dAE4e51670b0394ef951",
      "gasPrice": {
        "_hex": "0xba43b7400"
      },
      "gasLimit": {
        "_hex": "0x5208"
      },
      "to": "0x32Be343B94f860124dC4fEe278FDCBD38C102D88",
      "value": {
        "_hex": "0xdb6288e7868be000"
      },
      "nonce": 7,
      "data": "0x",
      "r": "0xdd390a0481dcd0986d6741ea1ef8094220267faa510f755a4ede1ad83e9e6a6a",
      "s": "0x071cb07a500398c3ef09950bc5bf1fbf7c030cffc134049fcd9f6bd4e52dad6d",
      "v": 27,
      "creates": null,
      "raw": "0xf86c07850ba43b74008252089432be343b94f860124dc4fee278fdcbd38c102d8888db6288e7868be000801ba0dd390a0481dcd0986d6741ea1ef8094220267faa510f755a4ede1ad83e9e6a6aa0071cb07a500398c3ef09950bc5bf1fbf7c030cffc134049fcd9f6bd4e52dad6d",
      "networkId": 0,
      "chainId": 0
    }
  ]
}