{
  "hash": "0x7783c32524db52b35b3efc1cfdd50fe45798a465249262c28c58676fdb7a3dfb",
  "parentHash": "0x4f289a0e91b465df79b559bbc9d288a9c8897bb7d037e16e14a452cd161c62fb",
  "number": 65302,
  "timestamp": 1439234532,
  "nonce": "0x0801b1b315fff8ba",
  "difficulty": 1945469668648,
  "gasLimit": {
    "_hex": "0x2fefd5"
  },
  "gasUsed": {
    "_hex": "0x17cd8"
  },
  "miner": "0x6dED38803DA575897de5d51b7AEF3b86f35945A1",
  "extraData": "0x476574682f76312e302e312f6c696e75782f676f312e342e32",
  "transactions": [
    {
      "hash": "0xcdf3776fecb2fd93823b16d51fb333babc49a108c80eda8de5d55872bda8da84",
      "blockHash": "0x7783c32524db52b35b3efc1cfdd50fe45798a465249262c28c58676fdb7a3dfb",
      "blockNumber": 65302,
      "transactionIndex": 0,
      "confirmations": null,
      "from": "0x7e288A2093d928D44990466F2F9b14BA57886B82",
      "gasPrice": {
        "_hex": "0xba43b7400"
      },
      "gasLimit": {
        "_hex": "0x15f90"
      },
      "to": "0x793AE8C1b1a160BFc07BFB0d04F85eab1A71F4f2",
      "value": {
        "_hex": "0x0"
      },
      "nonce": 0,
      "data": "0x3ba15036",
      "r": "0xfa6a87dfa59319f336b836604657c320f6413be64db68a21a9b25b4514210f2a",
      "s": "0x7e0d90b509e49b3151135902402663e94bd582623cc05a4e4505b91d6907686f",
      "v": 27,
      "creates": null,
      "raw": "0xf86980850ba43b740083015f9094793ae8c1b1a160bfc07bfb0d04f85eab1a71f4f280843ba150361ba0fa6a87dfa59319f336b836604657c320f6413be64db68a21a9b25b4514210f2aa07e0d90b509e49b3151135902402663e94bd582623cc05a4e4505b91d6907686f",
      "networkId": 0,
      "chainId": 0
    },
    {
      "hash": "0x6647f7a2ca2f235801a1aada4029e5743f33be324c7b66bebe6dbf94a533a568",
      "blockHash": "0x7783c32524db52b35b3efc1cfdd50fe45798a465249262c28c58676fdb7a3dfb",
      "blockNumber": 65302,
      "transactionIndex": 1,
      "confirmations": null,
      "from": "0x70F0f06B0d9fa951D3CE6CBc3c9700aBb37A7708",
      "gasPrice": {
        "_hex": "0xba43b7400"
      },
      "gasLimit": {
        "_hex": "0x15f90"
      },
      "to": "0x793AE8C1b1a160BFc07BFB0d04F85eab1A71F4f2",
      "value": {
        "_hex": "0x0"
      },
      "nonce": 0,
      "data": "0x3ba15036",
      "r": "0xec36276fbf3a6ba66de7fee67df4f4781780fe1c22c8b6b6c865971c952fa547",
      "s": "0x3c00a657efd82a89bd2d14f4d6f6c076dfd535a7588601ce2eabba549f49c198",
      "v": 27,
      "creates": null,
      "raw": "0xf86980850ba43b740083015f9094793ae8c1b1a160bfc07bfb0d04f85eab1a71f4f280843ba150361ba0ec36276fbf3a6ba66de7fee67df4f4781780fe1c22c8b6b6c865971c952fa547a03c00a657efd82a89bd2d14f4d6f6c076dfd535a7588601ce2eabba549f49c198",
      "networkId": 0,
      "chainId": 0
    }
  ]
}