{
  "hash": "0xe6263d37011801c870cee273ec854675ecb20f4f79ec1e1c738c9710d2519d91",
  "parentHash": "0x7079b42d4b87e879858ac5896d48d5f2f1c7b3d946b2db5669fa580608df4b71",
  "number": 65245,
  "timestamp": 1439233727,
  "nonce": "0x1ddae9e07f04856a",
  "difficulty": 1938844638911,
  "gasLimit": {
    "_hex": "0x2fefd8"
  },
  "gasUsed": {
    "_hex": "0x5208"
  },
  "miner": "0xFbA3FA1bC5f9f19700A71C09D1932E16fD824138",
  "extraData": "0x476574682f76312e302e312d38326566323666362f6c696e75782f676f312e34",
  "transactions": [
    {
      "hash": "0xe2b23c037f0dc68a58d445d6335416e17a6641b2b2a80a1ab036c11212d9c3a3",
      "blockHash": "0xe6263d37011801c870cee273ec854675ecb20f4f79ec1e1c738c9710d2519d91",
      "blockNumber": 65245,
      "transactionIndex": 0,
      "confirmations": null,
      "from": "0x2910543Af39abA0Cd09dBb2D50200b3E800A63D2",
      "gasPrice": {
        "_hex": "0xcded9375f"
      },
      "gasLimit": {
        "_hex": "0x5208"
      },
      "to": "0x3c3Ca5A5a214208bFCA6b54F57A41b10f5fbe873",
      "value": {
        "_hex": "0x1079bcbdc348b8000"
      },
      "nonce": 169,
      "data": "0x",
      "r": "0x9b2b22fad62e89cc12b74c7fc5bde716c251ff0e9ca07c4da099dc6df7a8a334",
      "s": "0x607e33820caef5b897feb4c996919330239bb66e86dd18d47864f95d5e05e2d1",
      "v": 27,
      "creates": null,
      "raw": "0xf86e81a9850cded9375f825208943c3ca5a5a214208bfca6b54f57a41b10f5fbe8738901079bcbdc348b8000801ba09b2b22fad62e89cc12b74c7fc5bde716c251ff0e9ca07c4da099dc6df7a8a334a0607e33820caef5b897feb4c996919330239bb66e86dd18d47864f95d5e05e2d1",
      "networkId": 0,
      "chainId": 0
    }
  ]
}