{
  "hash": "0x69a00a9fcd45ba2ce33aa6f0ddb9c9772554a9f2947ae7582bc8c628970c0263",
  "parentHash": "0x87824e3c23a1dfea6c174b1f83a947b3be6693877c96c90784964308da6daa31",
  "number": 72255,
  "timestamp": 1439349911,
  "nonce": "0x16c0e3df0c847a63",
  "difficulty": 2169589220787,
  "gasLimit": {
    "_hex": "0x2fefd8"
  },
  "gasUsed": {
    "_hex": "0x24ec8"
  },
  "miner": "0x580992B51e3925e23280EfB93d3047C82f17E038",
  "extraData": "0x476574682f76312e302e312f6c696e75782f676f312e342e32",
  "transactions": [
    {
      "hash": "0x4981056dfb948704a8717c4e3d0a0d8bd0cba29ab3683764dd66798fe4b29b02",
      "blockHash": "0x69a00a9fcd45ba2ce33aa6f0ddb9c9772554a9f2947ae7582bc8c628970c0263",
      "blockNumber": 72255,
      "transactionIndex": 0,
      "confirmations": null,
      "from": "0x17580B766f7453525ca4C6A88b01b50570EA088C",
      "gasPrice": {
        "_hex": "0xd492da8d7"
      },
      "gasLimit": {
        "_hex": "0x61a80"
      },
      "to": "0x5Fe5B7546D1628f7348B023A0393de1FC825A4fD",
      "value": {
        "_hex": "0x8ac7230489e80000"
      },
      "nonce": 423,
      "data": "0xb595b8b50000000000000000000000000000000000000000000000000000000000000000",
      "r": "0x460b88522a7b6a3ee60052d7fedef497329d0154e4b95c60d4439a4a0a9cdd27",
      "s": "0x44450e57c4635afa2e1bb2d0350e328e8cfb23b37c967bb741ce2a56ca984900",
      "v": 27,
      "creates": null,
      "raw": "0xf8938201a7850d492da8d783061a80945fe5b7546d1628f7348b023a0393de1fc825a4fd888ac7230489e80000a4b595b8b500000000000000000000000000000000000000000000000000000000000000001ba0460b88522a7b6a3ee60052d7fedef497329d0154e4b95c60d4439a4a0a9cdd27a044450e57c4635afa2e1bb2d0350e328e8cfb23b37c967bb741ce2a56ca984900",
      "networkId": 0,
      "chainId": 0
    },
    {
      "hash": "0x077112f29588c41d9756c6fc54ca56c2570b6618edf299360811618c58753475",
      "blockHash": "0x69a00a9fcd45ba2ce33aa6f0ddb9c9772554a9f2947ae7582bc8c628970c0263",
      "blockNumber": 72255,
      "transactionIndex": 1,
      "confirmations": null,
      "from": "0x17580B766f7453525ca4C6A88b01b50570EA088C",
      "gasPrice": {
        "_hex": "0xd492da8d7"
      },
      "gasLimit": {
        "_hex": "0x61a80"
      },
      "to": "0x5Fe5B7546D1628f7348B023A0393de1FC825A4fD",
      "value": {
        "_hex": "0x8ac7230489e80000"
      },
      "nonce": 424,
      "data": "0xb595b8b50000000000000000000000000000000000000000000000000000000000000000",
      "r": "0xa849679f56959e2215d0b0c5118085c159dcd1fb59e35c22706ebec7daa8cd33",
      "s": "0x747d290d0fee6df4347435bdf8ad820e6a4e5c5d87a0aac9ac89519f1e68860f",
      "v": 27,
      "creates": null,
      "raw": "0xf8938201a8850d492da8d783061a80945fe5b7546d1628f7348b023a0393de1fc825a4fd888ac7230489e80000a4b595b8b500000000000000000000000000000000000000000000000000000000000000001ba0a849679f56959e2215d0b0c5118085c159dcd1fb59e35c22706ebec7daa8cd33a0747d290d0fee6df4347435bdf8ad820e6a4e5c5d87a0aac9ac89519f1e68860f",
      "networkId": 0,
      "chainId": 0
    },
    {
      "hash": "0xbb326632531a2aacd1aa3d7c4360c16313560a318d14c824fb86179029728059",
      "blockHash": "0x69a00a9fcd45ba2ce33aa6f0ddb9c9772554a9f2947ae7582bc8c628970c0263",
      "blockNumber": 72255,
      "transactionIndex": 2,
      "confirmations": null,
      "from": "0x17580B766f7453525ca4C6A88b01b50570EA088C",
      "gasPrice": {
        "_hex": "0xd492da8d7"
      },
      "gasLimit": {
        "_hex": "0x61a80"
      },
      "to": "0x5Fe5B7546D1628f7348B023A0393de1FC825A4fD",
      "value": {
        "_hex": "0x8ac7230489e80000"
      },
      "nonce": 425,
      "data": "0xb595b8b50000000000000000000000000000000000000000000000000000000000000000",
      "r": "0x8e22c3db253c3f02dad63db79b5bcfa2c0b3d963f4231d4d8971e77a07cb21c3",
      "s": "0x4378a8bcca6c16c27f44f0e53934b113fc4c6be75a532107b3f67b3cb4aed917",
      "v": 27,
      "creates": null,
      "raw": "0xf8938201a9850d492da8d783061a80945fe5b7546d1628f7348b023a0393de1fc825a4fd888ac7230489e80000a4b595b8b500000000000000000000000000000000000000000000000000000000000000001ba08e22c3db253c3f02dad63db79b5bcfa2c0b3d963f4231d4d8971e77a07cb21c3a04378a8bcca6c16c27f44f0e53934b113fc4c6be75a532107b3f67b3cb4aed917",
      "networkId": 0,
      "chainId": 0
    },
    {
      "hash": "0xc0067b2182420393c8f25a40698f2614c68a9f9d7778bb5adb202d7b5aa78d7d",
      "blockHash": "0x69a00a9fcd45ba2ce33aa6f0ddb9c9772554a9f2947ae7582bc8c628970c0263",
      "blockNumber": 72255,
      "transactionIndex": 3,
      "confirmations": null,
      "from": "0x17580B766f7453525ca4C6A88b01b50570EA088C",
      "gasPrice": {
        "_hex": "0xd492da8d7"
      },
      "gasLimit": {
        "_hex": "0x61a80"
      },
      "to": "0x5Fe5B7546D1628f7348B023A0393de1FC825A4fD",
      "value": {
        "_hex": "0x8ac7230489e80000"
      },
      "nonce": 426,
      "data": "0xb595b8b50000000000000000000000000000000000000000000000000000000000000000",
      "r": "0xb995c0e370ce4f108f2aa3d42397f7a9468a28d09f0a9a129dc5952156fd3f58",
      "s": "0x62b0f62c9841ef068753516cea6ae828145b5851eb55c8fbc59fe59abee70c8b",
      "v": 28,
      "creates": null,
      "raw": "0xf8938201aa850d492da8d783061a80945fe5b7546d1628f7348b023a0393de1fc825a4fd888ac7230489e80000a4b595b8b500000000000000000000000000000000000000000000000000000000000000001ca0b995c0e370ce4f108f2aa3d42397f7a9468a28d09f0a9a129dc5952156fd3f58a062b0f62c9841ef068753516cea6ae828145b5851eb55c8fbc59fe59abee70c8b",
      "networkId": 0,
      "chainId": 0
    }
  ]
}