{
  "hash": "0x14ece6c26d244a22ebca6c9f9027c01c62fcb33d8480c50c8d1184c558ea1775",
  "parentHash": "0xdb4d3c21e69714cece24de29801caed8a67eb5d9b2fadea1c8b8ff426f3bb49a",
  "number": 62504,
  "timestamp": 1439189879,
  "nonce": "0x91ebe135ad6667bc",
  "difficulty": 1763330146910,
  "gasLimit": {
    "_hex": "0x2fefd8"
  },
  "gasUsed": {
    "_hex": "0xce4b"
  },
  "miner": "0x9746c7e1ef2bd21FF3997fa467593a89cb852BD0",
  "extraData": "0x476574682f76312e302e312f77696e646f77732f676f312e342e32",
  "transactions": [
    {
      "hash": "0x21ccf4a9c83e3aac70a067e07333cd9bc8e08d70b3916662368d214e2d0cfd5c",
      "blockHash": "0x14ece6c26d244a22ebca6c9f9027c01c62fcb33d8480c50c8d1184c558ea1775",
      "blockNumber": 62504,
      "transactionIndex": 0,
      "confirmations": null,
      "from": "0xE2beA3e7d349ab64EBD9873418e78912e13CD35f",
      "gasPrice": {
        "_hex": "0xe0180c9d4"
      },
      "gasLimit": {
        "_hex": "0x15f90"
      },
      "to": "0x6C18EB3a3cbFc8fc6EeC1d80aB1d0dc5510FA0b1",
      "value": {
        "_hex": "0xde0b6b3a7640000"
      },
      "nonce": 24,
      "data": "0xa55526db",
      "r": "0xb3ace88a77e4ada06b90f53832dfad15b51859683110aa19dc5b607fb0723304",
      "s": "0x158608aa92affb0834e3221fd8abc7ffcf96926f43040cc317795fb99dd26d3c",
      "v": 27,
      "creates": null,
      "raw": "0xf87118850e0180c9d483015f90946c18eb3a3cbfc8fc6eec1d80ab1d0dc5510fa0b1880de0b6b3a764000084a55526db1ba0b3ace88a77e4ada06b90f53832dfad15b51859683110aa19dc5b607fb0723304a0158608aa92affb0834e3221fd8abc7ffcf96926f43040cc317795fb99dd26d3c",
      "networkId": 0,
      "chainId": 0
    },
    {
      "hash": "0x7869f9312671e22aa827b41ab63edbaa48dca25c00d8cf597943c462d98d31b3",
      "blockHash": "0x14ece6c26d244a22ebca6c9f9027c01c62fcb33d8480c50c8d1184c558ea1775",
      "blockNumber": 62504,
      "transactionIndex": 1,
      "confirmations": null,
      "from": "0x32Be343B94f860124dC4fEe278FDCBD38C102D88",
      "gasPrice": {
        "_hex": "0xd60303939"
      },
      "gasLimit": {
        "_hex": "0x5208"
      },
      "to": "0x120A270bbC009644e35F0bB6ab13f95b8199c4ad",
      "value": {
        "_hex": "0x410d586a20a4c00000"
      },
      "nonce": 151,
      "data": "0x",
      "r": "0x0123d49ee23dee652c6a12c40b3acba9c10bc4542e0b9ca4064c14e877d63213",
      "s": "0x1686246d1d37c4ec447a7f075d1df010295c479ffcb1ec16ba8e02f538d26d01",
      "v": 28,
      "creates": null,
      "raw": "0xf86e8197850d6030393982520894120a270bbc009644e35f0bb6ab13f95b8199c4ad89410d586a20a4c00000801ca00123d49ee23dee652c6a12c40b3acba9c10bc4542e0b9ca4064c14e877d63213a01686246d1d37c4ec447a7f075d1df010295c479ffcb1ec16ba8e02f538d26d01",
      "networkId": 0,
      "chainId": 0
    }
  ]
}