{
  "hash": "0xddcb843af9235c52ba433c7bd964e910b473dd23535f870ffaaf422e20c234f3",
  "parentHash": "0x5aa7a1182126131cf5048999756caa2e30c90e6f5ad9cd501e16897767908e3c",
  "number": 110049,
  "timestamp": 1439967221,
  "nonce": "0xee36bf0fab0841cc",
  "difficulty": 4392916897093,
  "gasLimit": {
    "_hex": "0x2fefd8"
  },
  "gasUsed": {
    "_hex": "0xf618"
  },
  "miner": "0xe6A7a1d47ff21B6321162AEA7C6CB457D5476Bca",
  "extraData": "0x476574682f76312e302e312d38326566323666362f6c696e75782f676f312e34",
  "transactions": [
    {
      "hash": "0x0c23715a6f4452caea85bd1011d130f3ae47cfa9deb9113b3d3c71e5567d2b9c",
      "blockHash": "0xddcb843af9235c52ba433c7bd964e910b473dd23535f870ffaaf422e20c234f3",
      "blockNumber": 110049,
      "transactionIndex": 0,
      "confirmations": null,
      "from": "0xC89CD9e30AB1C57c9B7FdF8E51B59a86048d08Fa",
      "gasPrice": {
        "_hex": "0xded7afccb"
      },
      "gasLimit": {
        "_hex": "0x5208"
      },
      "to": "0x32Be343B94f860124dC4fEe278FDCBD38C102D88",
      "value": {
        "_hex": "0x375add5a530ab000"
      },
      "nonce": 0,
      "data": "0x",
      "r": "0xe3efa1b569924c9aed9f71ff05e86ee3e48b963067f34a0135a510c0378b1a09",
      "s": "0x1fb5106eff7f21d80b3643e12af0aa31a83800777694f36092214e89e741d3e1",
      "v": 27,
      "creates": null,
      "raw": "0xf86c80850ded7afccb8252089432be343b94f860124dc4fee278fdcbd38c102d8888375add5a530ab000801ba0e3efa1b569924c9aed9f71ff05e86ee3e48b963067f34a0135a510c0378b1a09a01fb5106eff7f21d80b3643e12af0aa31a83800777694f36092214e89e741d3e1",
      "networkId": 0,
      "chainId": 0
    },
    {
      "hash": "0xee90bfb3e0925ba311a86b15a47f2fa359952e4212310c1570c0d70247cb8cf2",
      "blockHash": "0xddcb843af9235c52ba433c7bd964e910b473dd23535f870ffaaf422e20c234f3",
      "blockNumber": 110049,
      "transactionIndex": 1,
      "confirmations": null,
      "from": "0xfBbf1e41C1B39888464D0F30f598d54262Fcc2E9",
      "gasPrice": {
        "_hex": "0xded7afccb"
      },
      "gasLimit": {
        "_hex": "0x5208"
      },
      "to": "0x32Be343B94f860124dC4fEe278FDCBD38C102D88",
      "value": {
        "_hex": "0xa96815f7a23a0800000"
      },
      "nonce": 2,
      "data": "0x",
      "r": "0x9b94f64a403c99a9a520e6515dd25ce1acc24c3e20e3d74f323f979cd075305b",
      "s": "0x6fad4d17b3f9df2d4c9243de2e6e3ed491258b1d07856181be7fd361b1582970",
      "v": 27,
      "creates": null,
      "raw": "0xf86e02850ded7afccb8252089432be343b94f860124dc4fee278fdcbd38c102d888a0a96815f7a23a0800000801ba09b94f64a403c99a9a520e6515dd25ce1acc24c3e20e3d74f323f979cd075305ba06fad4d17b3f9df2d4c9243de2e6e3ed491258b1d07856181be7fd361b1582970",
      "networkId": 0,
      "chainId": 0
    },
    {
      "hash": "0x5bf2566c1ed3ef0c594a635f789f943d9c94d6890f19203a670d7af3190f1f7d",
      "blockHash": "0xddcb843af9235c52ba433c7bd964e910b473dd23535f870ffaaf422e20c234f3",
      "blockNumber": 110049,
      "transactionIndex": 2,
      "confirmations": null,
      "from": "0x8F79f76381Aad7B98C19aF55eE75fdfEeb012211",
      "gasPrice": {
        "_hex": "0xded7afccb"
      },
      "gasLimit": {
        "_hex": "0x5208"
      },
      "to": "0x32Be343B94f860124dC4fEe278FDCBD38C102D88",
      "value": {
        "_hex": "0x192703bd81b8fb000"
      },
      "nonce": 49,
      "data": "0x",
      "r": "0x9b1a8b144cf79fa7d5c3785251bec0968a2d11214e10ed8f4a4bf0ca68dfe1bb",
      "s": "0x24dab791e0960691c7aea7e667368654466b932d1bb4f1ff74106a53a4572bc7",
      "v": 28,
      "creates": null,
      "raw": "0xf86d31850ded7afccb8252089432be343b94f860124dc4fee278fdcbd38c102d88890192703bd81b8fb000801ca09b1a8b144cf79fa7d5c3785251bec0968a2d11214e10ed8f4a4bf0ca68dfe1bba024dab791e0960691c7aea7e667368654466b932d1bb4f1ff74106a53a4572bc7",
      "networkId": 0,
      "chainId": 0
    }
  ]
}