{
  "hash": "0x67c17608ee62d328cc47cfbffa6436dbb5c2d39df2667b6de9f5df7706d1fdd6",
  "parentHash": "0x1eade1bbf249ea66341258cc4c6069d35719daf1c128e6deeb83dc34a04e6f67",
  "number": 75585,
  "timestamp": 1439405975,
  "nonce": "0x12123a04c78db03b",
  "difficulty": 2213663194982,
  "gasLimit": {
    "_hex": "0x2fefd8"
  },
  "gasUsed": {
    "_hex": "0xa410"
  },
  "miner": "0xe6A7a1d47ff21B6321162AEA7C6CB457D5476Bca",
  "extraData": "0x476574682f76312e302e312d38326566323666362f6c696e75782f676f312e34",
  "transactions": [
    {
      "hash": "0x20210a5aceb2d0e8e006ea44b0dc83e3b6164f8089e6930a7c4ad4fbf09f3b13",
      "blockHash": "0x67c17608ee62d328cc47cfbffa6436dbb5c2d39df2667b6de9f5df7706d1fdd6",
      "blockNumber": 75585,
      "transactionIndex": 0,
      "confirmations": null,
      "from": "0x1467bcfA961fE8067c779935a78B4a73E7393BD8",
      "gasPrice": {
        "_hex": "0xce4fb2a42"
      },
      "gasLimit": {
        "_hex": "0x5208"
      },
      "to": "0x32Be343B94f860124dC4fEe278FDCBD38C102D88",
      "value": {
        "_hex": "0xddc94f349786c00"
      },
      "nonce": 0,
      "data": "0x",
      "r": "0xfa3c784df88612db5131f683a1f038f7a57f706950854c9e5ab0b501c495ecd9",
      "s": "0x22782c86f6f950d89c4fdaec5eb77dccff826295d03cf388dff22d205af1f5e6",
      "v": 27,
      "creates": null,
      "raw": "0xf86c80850ce4fb2a428252089432be343b94f860124dc4fee278fdcbd38c102d88880ddc94f349786c00801ba0fa3c784df88612db5131f683a1f038f7a57f706950854c9e5ab0b501c495ecd9a022782c86f6f950d89c4fdaec5eb77dccff826295d03cf388dff22d205af1f5e6",
      "networkId": 0,
      "chainId": 0
    },
    {
      "hash": "0x3fa149b363d531b53aef7dd21669b9bde654d703574bc224997c83358a87b84f",
      "blockHash": "0x67c17608ee62d328cc47cfbffa6436dbb5c2d39df2667b6de9f5df7706d1fdd6",
      "blockNumber": 75585,
      "transactionIndex": 1,
      "confirmations": null,
      "from": "0xbA86D58204A1f1fbe53Ff71aa038BC08cb4057e8",
      "gasPrice": {
        "_hex": "0xce4fb2a42"
      },
      "gasLimit": {
        "_hex": "0x5208"
      },
      "to": "0x32Be343B94f860124dC4fEe278FDCBD38C102D88",
      "value": {
        "_hex": "0xd0030191accad000"
      },
      "nonce": 2,
      "data": "0x",
      "r": "0x9fb16cb5ee30d63104e2afa08a48b06048ea9ddaf8f80e7fc57bd10f78e413a1",
      "s": "0x7bae4bf0f0056f645f5419c9a9bf8b321fedd52c8aa6bd2537a2d5190a4e0735",
      "v": 28,
      "creates": null,
      "raw": "0xf86c02850ce4fb2a428252089432be343b94f860124dc4fee278fdcbd38c102d8888d0030191accad000801ca09fb16cb5ee30d63104e2afa08a48b06048ea9ddaf8f80e7fc57bd10f78e413a1a07bae4bf0f0056f645f5419c9a9bf8b321fedd52c8aa6bd2537a2d5190a4e0735",
      "networkId": 0,
      "chainId": 0
    }
  ]
}