{
  "hash": "0x55366f34620ea9aa532b52510385eb29caaee1a3ee523587e4f6e08b5e709331",
  "parentHash": "0x86b8cb84446c4bd3c565db3fcd8ef86850973522e29a7a6c34778a9e4f5977ba",
  "number": 69089,
  "timestamp": 1439298165,
  "nonce": "0x10f80203bdd646df",
  "difficulty": 2052895427307,
  "gasLimit": {
    "_hex": "0x2fefd8"
  },
  "gasUsed": {
    "_hex": "0x5208"
  },
  "miner": "0xf927a40C8B7F6E07c5af7FA2155B4864a4112B13",
  "extraData": "0x",
  "transactions": [
    {
      "hash": "0xefc89ba685d964d1dad8a01102dc8cd3810b7f0282f4f0de0c22c8fb2feac897",
      "blockHash": "0x55366f34620ea9aa532b52510385eb29caaee1a3ee523587e4f6e08b5e709331",
      "blockNumber": 69089,
      "transactionIndex": 0,
      "confirmations": null,
      "from": "0x1E8eb0f1e9848AEcCe1755df800C38d75c7161Dd",
      "gasPrice": {
        "_hex": "0xba43b7400"
      },
      "gasLimit": {
        "_hex": "0x5208"
      },
      "to": "0x4a237EeF6c6335B197743406088999E8681b9e29",
      "value": {
        "_hex": "0x7c58ada8ff2000"
      },
      "nonce": 1,
      "data": "0x",
      "r": "0x8e537e4d071a00c46e16bf3d9a0fe256377f0c98d0f7d160902769183fcc8fad",
      "s": "0x3b92e0be506126b4fcadf90a133c831331896e123e8ee08688f10c75d467aced",
      "v": 28,
      "creates": null,
      "raw": "0xf86b01850ba43b7400825208944a237eef6c6335b197743406088999e8681b9e29877c58ada8ff2000801ca08e537e4d071a00c46e16bf3d9a0fe256377f0c98d0f7d160902769183fcc8fada03b92e0be506126b4fcadf90a133c831331896e123e8ee08688f10c75d467aced",
      "networkId": 0,
      "chainId": 0
    }
  ]
}