{
  "hash": "0x8b8aa181dad0ead15a201fe63500c6d615655ba17b74a196ca0700e0fcb4d191",
  "parentHash": "0xb0e51da71d7d138c08fac04a82e759926588d7e6a11414f0919a44e402e88e22",
  "number": 52778,
  "timestamp": 1439027205,
  "nonce": "0x7805581474345b9b",
  "difficulty": 1568625107542,
  "gasLimit": {
    "_hex": "0x199d3b"
  },
  "gasUsed": {
    "_hex": "0x5208"
  },
  "miner": "0x02020D22dCF88f5eDd66B382D7da019F161fB7e3",
  "extraData": "0x",
  "transactions": [
    {
      "hash": "0x2d53ea1c9b57995b9b97478ec5f09a4c6dd8b68467423b655c6c4bd8b0dc01b0",
      "blockHash": "0x8b8aa181dad0ead15a201fe63500c6d615655ba17b74a196ca0700e0fcb4d191",
      "blockNumber": 52778,
      "transactionIndex": 0,
      "confirmations": null,
      "from": "0xdf3b72c5bD71d4814e88A62321a93D4011E3578B",
      "gasPrice": {
        "_hex": "0xd7d40ace3"
      },
      "gasLimit": {
        "_hex": "0x61a8"
      },
      "to": "0x71616E05EFEA08184F8Bca85F6df1E783EAdEb95",
      "value": {
        "_hex": "0x56bc75e2d63100000"
      },
      "nonce": 3,
      "data": "0x",
      "r": "0x40e6d41f45d72cd531e3cf5cd4d0c82da1c9025ef914b127f93d75ba759e5e6a",
      "s": "0x10676c70eb9830831a54f9ddc12d9215089ca8c64161f550c3181d0a1f62b816",
      "v": 27,
      "creates": null,
      "raw": "0xf86d03850d7d40ace38261a89471616e05efea08184f8bca85f6df1e783eadeb9589056bc75e2d63100000801ba040e6d41f45d72cd531e3cf5cd4d0c82da1c9025ef914b127f93d75ba759e5e6aa010676c70eb9830831a54f9ddc12d9215089ca8c64161f550c3181d0a1f62b816",
      "networkId": 0,
      "chainId": 0
    }
  ]
}