{
  "hash": "0xbd1e16859ae21927b8be27cc7a2d48e34f41e02b30a7521dae037d86c37ccc05",
  "parentHash": "0xe03915791de968ebdc31bf473290e44142b983f9d259a0beb5c7e753d2dfb34f",
  "number": 46933,
  "timestamp": 1438931795,
  "nonce": "0x57fda7d4e9e94466",
  "difficulty": 1456722791379,
  "gasLimit": {
    "_hex": "0x86b1"
  },
  "gasUsed": {
    "_hex": "0x5208"
  },
  "miner": "0xc56e71225f1372c990E6829D53A1Ab76d27301cf",
  "extraData": "0x476574682f76312e302e302f77696e646f77732f676f312e342e32",
  "transactions": [
    {
      "hash": "0x5d82f2d9f3d271f6217c400dcae6c47e21695d655524a76baf8d59bd2f765b6f",
      "blockHash": "0xbd1e16859ae21927b8be27cc7a2d48e34f41e02b30a7521dae037d86c37ccc05",
      "blockNumber": 46933,
      "transactionIndex": 0,
      "confirmations": null,
      "from": "0x4019b21f3dB1F288414aC180f3Ea63315B12a7aC",
      "gasPrice": {
        "_hex": "0xd69b00c01"
      },
      "gasLimit": {
        "_hex": "0x5208"
      },
      "to": "0x32Be343B94f860124dC4fEe278FDCBD38C102D88",
      "value": {
        "_hex": "0x3407c25109fde20000"
      },
      "nonce": 2,
      "data": "0x",
      "r": "0x375fae347bb59fa5b93a67c0c79577c7da5f8206f55c35dd3cf6a060c149cfd6",
      "s": "0x0140bac1262b067e18d198b1fa62f3b052906ac2b9de416e1d1a2e2a3b4eb7c4",
      "v": 28,
      "creates": null,
      "raw": "0xf86d02850d69b00c018252089432be343b94f860124dc4fee278fdcbd38c102d88893407c25109fde20000801ca0375fae347bb59fa5b93a67c0c79577c7da5f8206f55c35dd3cf6a060c149cfd6a00140bac1262b067e18d198b1fa62f3b052906ac2b9de416e1d1a2e2a3b4eb7c4",
      "networkId": 0,
      "chainId": 0
    }
  ]
}