{
  "hash": "0x00e1fd9e709fc5158b751709a407745e758f993173d5de7f393860ea7c15504b",
  "parentHash": "0x35b96949c70dee1823e56f1870558150c114a5e8d67200d79d8374b86e1d508d",
  "number": 88273,
  "timestamp": 1439605568,
  "nonce": "0x62ccf132442f7363",
  "difficulty": 3200328262904,
  "gasLimit": {
    "_hex": "0x2fefd8"
  },
  "gasUsed": {
    "_hex": "0x5208"
  },
  "miner": "0x580992B51e3925e23280EfB93d3047C82f17E038",
  "extraData": "0x476574682f76312e302e312f6c696e75782f676f312e342e32",
  "transactions": [
    {
      "hash": "0xc29f7c68888ce4131da59d0a2c88b4848d5f4e1e1b38014f7b03e4a0962d3d7b",
      "blockHash": "0x00e1fd9e709fc5158b751709a407745e758f993173d5de7f393860ea7c15504b",
      "blockNumber": 88273,
      "transactionIndex": 0,
      "confirmations": null,
      "from": "0x003a0659d5452a076403d1411E617C9665955d59",
      "gasPrice": {
        "_hex": "0xba43b7400"
      },
      "gasLimit": {
        "_hex": "0x5213"
      },
      "to": "0x00d148560e3BCb5594F145f32E96a336EEC21921",
      "value": {
        "_hex": "0x63eb89da4ed0000"
      },
      "nonce": 4,
      "data": "0x",
      "r": "0x04d31e87179855521b43077088af426ce86ca69ab1542f5f45da72dc04fd4b98",
      "s": "0x2db9692e60464cae1d65580e205d7ea5beee3ae2a576e09db2dcf6e319977833",
      "v": 27,
      "creates": null,
      "raw": "0xf86c04850ba43b74008252139400d148560e3bcb5594f145f32e96a336eec2192188063eb89da4ed0000801ba004d31e87179855521b43077088af426ce86ca69ab1542f5f45da72dc04fd4b98a02db9692e60464cae1d65580e205d7ea5beee3ae2a576e09db2dcf6e319977833",
      "networkId": 0,
      "chainId": 0
    }
  ]
}