{
  "hash": "0x81dc4451ba3ffec9947fb71602b9bcfe6527184d34397c12888eb6f82c7d81d6",
  "parentHash": "0xfc246b2438303881211eacdf6f2c0744f65173b4aa6779f70f68ce35473a4ac8",
  "number": 110320,
  "timestamp": 1439971717,
  "nonce": "0x65bb1ffee5a80989",
  "difficulty": 4364979466777,
  "gasLimit": {
    "_hex": "0x2fefd8"
  },
  "gasUsed": {
    "_hex": "0x19a28"
  },
  "miner": "0x580992B51e3925e23280EfB93d3047C82f17E038",
  "extraData": "0x476574682f76312e302e312f6c696e75782f676f312e342e32",
  "transactions": [
    {
      "hash": "0xf9a1677fe3a66619f3604e92109f15937f4a4ba9a962a5b8628be021ff38c4cf",
      "blockHash": "0x81dc4451ba3ffec9947fb71602b9bcfe6527184d34397c12888eb6f82c7d81d6",
      "blockNumber": 110320,
      "transactionIndex": 0,
      "confirmations": null,
      "from": "0xBf520BE04Aa6a36a99897062Ca9c440CF4112780",
      "gasPrice": {
        "_hex": "0xe10325f36"
      },
      "gasLimit": {
        "_hex": "0x5208"
      },
      "to": "0x32Be343B94f860124dC4fEe278FDCBD38C102D88",
      "value": {
        "_hex": "0xd8d6de9d018158000"
      },
      "nonce": 3,
      "data": "0x",
      "r": "0xafbff85754a457e31df92809f1991072d92fa74751458ca0f5ca2b27ccddd9e5",
      "s": "0x278569de15c03d75dfe20975db79475c05c1164b515a6d2c27572892a7041d7d",
      "v": 27,
      "creates": null,
      "raw": "0xf86d03850e10325f368252089432be343b94f860124dc4fee278fdcbd38c102d88890d8d6de9d018158000801ba0afbff85754a457e31df92809f1991072d92fa74751458ca0f5ca2b27ccddd9e5a0278569de15c03d75dfe20975db79475c05c1164b515a6d2c27572892a7041d7d",
      "networkId": 0,
      "chainId": 0
    },
    {
      "hash": "0xf320afcc23f3c90fcf9d4cf9165999363d5f65827b280dace520f7bccaf6c48c",
      "blockHash": "0x81dc4451ba3ffec9947fb71602b9bcfe6527184d34397c12888eb6f82c7d81d6",
      "blockNumber": 110320,
      "transactionIndex": 1,
      "confirmations": null,
      "from": "0xe6A7a1d47ff21B6321162AEA7C6CB457D5476Bca",
      "gasPrice": {
        "_hex": "0xcd8db819f"
      },
      "gasLimit": {
        "_hex": "0x55f0"
      },
      "to": "0xB93e0e8caA1e3Ef697AC2D6193fDffe5Aba4d49A",
      "value": {
        "_hex": "0xdc8fbeae82438f8"
      },
      "nonce": 4080,
      "data": "0x",
      "r": "0x703a973a1794f5adfb7254832cc747d4b8ebda363ce43a611d95105b93e0599f",
      "s": "0x586b7b7ec28ae17fc83777b2c9413b7d57ec8dfcc7197481c19c68ad7376482a",
      "v": 28,
      "creates": null,
      "raw": "0xf86e820ff0850cd8db819f8255f094b93e0e8caa1e3ef697ac2d6193fdffe5aba4d49a880dc8fbeae82438f8801ca0703a973a1794f5adfb7254832cc747d4b8ebda363ce43a611d95105b93e0599fa0586b7b7ec28ae17fc83777b2c9413b7d57ec8dfcc7197481c19c68ad7376482a",
      "networkId": 0,
      "chainId": 0
    },
    {
      "hash": "0xe21307c9758fe3083b4979592709c8a377c62c73a06fdafc6fd459b3be900ce5",
      "blockHash": "0x81dc4451ba3ffec9947fb71602b9bcfe6527184d34397c12888eb6f82c7d81d6",
      "blockNumber": 110320,
      "transactionIndex": 2,
      "confirmations": null,
      "from": "0xe6A7a1d47ff21B6321162AEA7C6CB457D5476Bca",
      "gasPrice": {
        "_hex": "0xcd8db819f"
      },
      "gasLimit": {
        "_hex": "0x55f0"
      },
      "to": "0x160aa7EC7e94C7E72bbd4560b1db208E951e4d70",
      "value": {
        "_hex": "0xdedbb0cf3fc19ec"
      },
      "nonce": 4081,
      "data": "0x",
      "r": "0x210f2238a92b024e69b39b7deb66a119fec8498fef5308216ebe62f201cb7f75",
      "s": "0x5dd573a937d35a10ef3dfdba3185fdc806e8410f64d806b231c7617260587e84",
      "v": 28,
      "creates": null,
      "raw": "0xf86e820ff1850cd8db819f8255f094160aa7ec7e94c7e72bbd4560b1db208e951e4d70880dedbb0cf3fc19ec801ca0210f2238a92b024e69b39b7deb66a119fec8498fef5308216ebe62f201cb7f75a05dd573a937d35a10ef3dfdba3185fdc806e8410f64d806b231c7617260587e84",
      "networkId": 0,
      "chainId": 0
    },
    {
      "hash": "0x756c22de8ee87f92ef4d8b7955c83b2ca5800728fe55c28f4e6d3ecb9b533418",
      "blockHash": "0x81dc4451ba3ffec9947fb71602b9bcfe6527184d34397c12888eb6f82c7d81d6",
      "blockNumber": 110320,
      "transactionIndex": 3,
      "confirmations": null,
      "from": "0xe6A7a1d47ff21B6321162AEA7C6CB457D5476Bca",
      "gasPrice": {
        "_hex": "0xcd8db819f"
      },
      "gasLimit": {
        "_hex": "0x55f0"
      },
      "to": "0xD0E41d4Fb831b7c75A921E64137025846f319aF2",
      "value": {
        "_hex": "0xe10b52f79a3e8ec"
      },
      "nonce": 4082,
      "data": "0x",
      "r": "0xc67693a8cb18b8bacbc652ef11be0bf47cff07d387ca061c6802986d48bbd7e8",
      "s": "0x179cca69d0ac0dc93caa105e715110c56468f5a9e280ad3db56e5a64436a931c",
      "v": 28,
      "creates": null,
      "raw": "0xf86e820ff2850cd8db819f8255f094d0e41d4fb831b7c75a921e64137025846f319af2880e10b52f79a3e8ec801ca0c67693a8cb18b8bacbc652ef11be0bf47cff07d387ca061c6802986d48bbd7e8a0179cca69d0ac0dc93caa105e715110c56468f5a9e280ad3db56e5a64436a931c",
      "networkId": 0,
      "chainId": 0
    },
    {
      "hash": "0x7033a242a3764be9638d87ce534d580c718189189a78ffc7f5a6e3909d924202",
      "blockHash": "0x81dc4451ba3ffec9947fb71602b9bcfe6527184d34397c12888eb6f82c7d81d6",
      "blockNumber": 110320,
      "transactionIndex": 4,
      "confirmations": null,
      "from": "0xe6A7a1d47ff21B6321162AEA7C6CB457D5476Bca",
      "gasPrice": {
        "_hex": "0xcd8db819f"
      },
      "gasLimit": {
        "_hex": "0x55f0"
      },
      "to": "0x60c84CBDBAc16e3cd806520Ab204029D7aab5588",
      "value": {
        "_hex": "0xe1ce7a041977810"
      },
      "nonce": 4083,
      "data": "0x",
      "r": "0x7c025bbe47f37816a696c47bbf4b2caf195639a436b15ead69d585c598158ecf",
      "s": "0x090274eb31ef78bf548e6b21611342d6ac2e5eceba6af3e4182e6ff777bb807e",
      "v": 27,
      "creates": null,
      "raw": "0xf86e820ff3850cd8db819f8255f09460c84cbdbac16e3cd806520ab204029d7aab5588880e1ce7a041977810801ba07c025bbe47f37816a696c47bbf4b2caf195639a436b15ead69d585c598158ecfa0090274eb31ef78bf548e6b21611342d6ac2e5eceba6af3e4182e6ff777bb807e",
      "networkId": 0,
      "chainId": 0
    }
  ]
}