{
  "hash": "0xf4908a4de20e27cd73e07f0cde640bc46426aad509b86eff7f266eeed9a7889b",
  "parentHash": "0xa7c9e113560c2f9871f9161e08c99ea6f29f18acd8e4bce69ef2f2b367a5dc23",
  "number": 61525,
  "timestamp": 1439173690,
  "nonce": "0x36afd96622bc8a7d",
  "difficulty": 1743841409492,
  "gasLimit": {
    "_hex": "0x2fefd8"
  },
  "gasUsed": {
    "_hex": "0xa410"
  },
  "miner": "0x88D74a59454F6cF3B51ef6b9136AFb6b9D405A88",
  "extraData": "0x476574682f76312e302e312d37666266393930632f6c696e75782f676f312e34",
  "transactions": [
    {
      "hash": "0x48bddcdc0c528e40d28ccb0bf34b1336453ff13a9cc5d7cfcfb0ff58727d0ff7",
      "blockHash": "0xf4908a4de20e27cd73e07f0cde640bc46426aad509b86eff7f266eeed9a7889b",
      "blockNumber": 61525,
      "transactionIndex": 0,
      "confirmations": null,
      "from": "0xcFc4E6f7f8b011414BfBa42F23AdFAA78d4ecc5E",
      "gasPrice": {
        "_hex": "0xd829211eb"
      },
      "gasLimit": {
        "_hex": "0x15f90"
      },
      "to": "0xA25efBD8dc1f8A6c4F24afD67AeEf72498fa9cC7",
      "value": {
        "_hex": "0x22b1c8c1227a00000"
      },
      "nonce": 0,
      "data": "0x",
      "r": "0xa988646044ad7c0937911df6dd63834e340f3b5a6e1376f37eeff36bbacf0615",
      "s": "0x3cfa8885b2d65195c85fae2da83190801d161d66245e4368e8cdacf9581e815a",
      "v": 27,
      "creates": null,
      "raw": "0xf86e80850d829211eb83015f9094a25efbd8dc1f8a6c4f24afd67aeef72498fa9cc789022b1c8c1227a00000801ba0a988646044ad7c0937911df6dd63834e340f3b5a6e1376f37eeff36bbacf0615a03cfa8885b2d65195c85fae2da83190801d161d66245e4368e8cdacf9581e815a",
      "networkId": 0,
      "chainId": 0
    },
    {
      "hash": "0xa119f300508d8668192e0a2c0a718cd4f0efeade26969c9e5b765bdf19cdedbb",
      "blockHash": "0xf4908a4de20e27cd73e07f0cde640bc46426aad509b86eff7f266eeed9a7889b",
      "blockNumber": 61525,
      "transactionIndex": 1,
      "confirmations": null,
      "from": "0x2910543Af39abA0Cd09dBb2D50200b3E800A63D2",
      "gasPrice": {
        "_hex": "0xcb26bb586"
      },
      "gasLimit": {
        "_hex": "0x5208"
      },
      "to": "0xE8CfAf09a32020eF1C065904a244b4dD6E7C69c6",
      "value": {
        "_hex": "0x54213769935038000"
      },
      "nonce": 101,
      "data": "0x",
      "r": "0xef2275a0526cb07cba786d085c65b7bd54e0073170ecff16c3636a7ee3b7efb3",
      "s": "0x4916bcfd2e963f4361f8306b371083bee3ab99c8de5a691bf358e0aef29ee13f",
      "v": 27,
      "creates": null,
      "raw": "0xf86d65850cb26bb58682520894e8cfaf09a32020ef1c065904a244b4dd6e7c69c689054213769935038000801ba0ef2275a0526cb07cba786d085c65b7bd54e0073170ecff16c3636a7ee3b7efb3a04916bcfd2e963f4361f8306b371083bee3ab99c8de5a691bf358e0aef29ee13f",
      "networkId": 0,
      "chainId": 0
    }
  ]
}