{
  "hash": "0xa27d452511af1aa5c0e396499858afeb718ff93bba2498d1fdc74047fc6a6a6e",
  "parentHash": "0xd832a7d421b3bd48bbfed969e25b031012f26fdcec061b93c3a126257c50a403",
  "number": 68016,
  "timestamp": 1439281347,
  "nonce": "0x4a4a64853b63814e",
  "difficulty": 1944840344791,
  "gasLimit": {
    "_hex": "0x2fefd8"
  },
  "gasUsed": {
    "_hex": "0x5208"
  },
  "miner": "0xf8E0CA3Ed80bd541b94BEdCf259e8CF2141A9523",
  "extraData": "0x476574682f76312e302e312f77696e646f77732f676f312e342e32",
  "transactions": [
    {
      "hash": "0x8111271bb24b76938388c40621576945c55571d0d355d2f0ada10da247fc9c48",
      "blockHash": "0xa27d452511af1aa5c0e396499858afeb718ff93bba2498d1fdc74047fc6a6a6e",
      "blockNumber": 68016,
      "transactionIndex": 0,
      "confirmations": null,
      "from": "0x7fa165177F28D171bA7C17f765c1904344Ec64CB",
      "gasPrice": {
        "_hex": "0xd4f540134"
      },
      "gasLimit": {
        "_hex": "0x5208"
      },
      "to": "0x32Be343B94f860124dC4fEe278FDCBD38C102D88",
      "value": {
        "_hex": "0x70c188368ccde4000"
      },
      "nonce": 6,
      "data": "0x",
      "r": "0x2d8814e1f036a1dd5f65a9cc52ac156d3e9225dce2eab8b178471b2247256964",
      "s": "0x15aeb3ea422c9b8edbf39e0e22f893b9247c85bb56581935c0ec8dc5f6f15014",
      "v": 28,
      "creates": null,
      "raw": "0xf86d06850d4f5401348252089432be343b94f860124dc4fee278fdcbd38c102d8889070c188368ccde4000801ca02d8814e1f036a1dd5f65a9cc52ac156d3e9225dce2eab8b178471b2247256964a015aeb3ea422c9b8edbf39e0e22f893b9247c85bb56581935c0ec8dc5f6f15014",
      "networkId": 0,
      "chainId": 0
    }
  ]
}