{
  "hash": "0x5c94379812aca333666b6e262ec0863fd000df1e5f794ef16a2352798a90eb73",
  "parentHash": "0x854562076da7ad3a6df2b5090cc8bae6db740e00bd05c5bb139ecb97ee130b0a",
  "number": 95957,
  "timestamp": 1439732607,
  "nonce": "0xe0d2a94e2959319f",
  "difficulty": 3619590253253,
  "gasLimit": {
    "_hex": "0x2fefd8"
  },
  "gasUsed": {
    "_hex": "0x5208"
  },
  "miner": "0x785ffdDd5cE55c6DF963f345e68d3F2024E5Acb1",
  "extraData": "0x",
  "transactions": [
    {
      "hash": "0x7310cdee39062f53ec4bce9fcb2206c514eb0b907e374f593862fc5911571ec1",
      "blockHash": "0x5c94379812aca333666b6e262ec0863fd000df1e5f794ef16a2352798a90eb73",
      "blockNumber": 95957,
      "transactionIndex": 0,
      "confirmations": null,
      "from": "0xF11940EA05aA9CC3F13aCF5C5cA6EDCF312E3Aec",
      "gasPrice": {
        "_hex": "0xd53cc4554"
      },
      "gasLimit": {
        "_hex": "0x15f90"
      },
      "to": "0x59C62d3D43f9EA1c4118d98c188AA5d028b8bB8E",
      "value": {
        "_hex": "0x270801d946c940000"
      },
      "nonce": 11,
      "data": "0x",
      "r": "0x0ddcd229dd728eea8840e490dc99325154ea97a4eaa89dbd721808a5f210d468",
      "s": "0x5dd7d290d28f0e1904499ccb997157b089748af62ad0fa1b59cd3aa99af9e1a5",
      "v": 27,
      "creates": null,
      "raw": "0xf86e0b850d53cc455483015f909459c62d3d43f9ea1c4118d98c188aa5d028b8bb8e890270801d946c940000801ba00ddcd229dd728eea8840e490dc99325154ea97a4eaa89dbd721808a5f210d468a05dd7d290d28f0e1904499ccb997157b089748af62ad0fa1b59cd3aa99af9e1a5",
      "networkId": 0,
      "chainId": 0
    }
  ]
}