{
  "hash": "0xa609b10b6c268fed87bb35d58721231b5bd9e74e8fb49c447af897b5625cdfcf",
  "parentHash": "0x72c56d0f67adc0f97b935f71545613c5d9098d4e072426fc130955d824801bfd",
  "number": 47649,
  "timestamp": 1438944256,
  "nonce": "0x49da5fab5ca2cdb5",
  "difficulty": 1443852418784,
  "gasLimit": {
    "_hex": "0xdd29"
  },
  "gasUsed": {
    "_hex": "0x5208"
  },
  "miner": "0xE81c9A6Ebe623E5d483110e0eaF2b10c769b1212",
  "extraData": "0x476574682f76312e302e312f6c696e75782f676f312e342e32",
  "transactions": [
    {
      "hash": "0x9891bc1cd76898568b0da26dd96fe55ddccc3fd7f37363f7c8e54ddf57ea4ac5",
      "blockHash": "0xa609b10b6c268fed87bb35d58721231b5bd9e74e8fb49c447af897b5625cdfcf",
      "blockNumber": 47649,
      "transactionIndex": 0,
      "confirmations": null,
      "from": "0xe6A7a1d47ff21B6321162AEA7C6CB457D5476Bca",
      "gasPrice": {
        "_hex": "0xdabcc1d23"
      },
      "gasLimit": {
        "_hex": "0x55f0"
      },
      "to": "0xf13e1B3e962978440FB6a81EC7eFcD5282B2ff99",
      "value": {
        "_hex": "0x115c0d1d60ec0d04"
      },
      "nonce": 179,
      "data": "0x",
      "r": "0xffd2a4c6f13fc9a1fa8f78ce610b1cbdcbf5c791d4c4aa82a6979be423a62666",
      "s": "0x4763d1f01cbbb5d5239cb85d30475b516d017c64439c8cc453a194b1bc2c9654",
      "v": 28,
      "creates": null,
      "raw": "0xf86d81b3850dabcc1d238255f094f13e1b3e962978440fb6a81ec7efcd5282b2ff9988115c0d1d60ec0d04801ca0ffd2a4c6f13fc9a1fa8f78ce610b1cbdcbf5c791d4c4aa82a6979be423a62666a04763d1f01cbbb5d5239cb85d30475b516d017c64439c8cc453a194b1bc2c9654",
      "networkId": 0,
      "chainId": 0
    }
  ]
}