{
  "hash": "0xdb04f713f5de1495f9abbee9ec2166f27594bdaf5b8546188095741236c90b50",
  "parentHash": "0x2bc65c0a12ecea1700cbe53738278bd0a450ace3cabd60eb073d6139173a8f71",
  "number": 76938,
  "timestamp": 1439428748,
  "nonce": "0x462044cf7dff40f6",
  "difficulty": 2238302748343,
  "gasLimit": {
    "_hex": "0x2fefd8"
  },
  "gasUsed": {
    "_hex": "0x5208"
  },
  "miner": "0x01d9DA08cc6Fb97c0DE1B6F4C28910A0859Ed1A1",
  "extraData": "0x476574682f76312e302e312f6c696e75782f676f312e342e32",
  "transactions": [
    {
      "hash": "0xcebb89afa37f55d254ed6ebab6ec0ebf016ab4961c8f8b3182c39a2d17f872cb",
      "blockHash": "0xdb04f713f5de1495f9abbee9ec2166f27594bdaf5b8546188095741236c90b50",
      "blockNumber": 76938,
      "transactionIndex": 0,
      "confirmations": null,
      "from": "0x94B4EA2caa897785bb092aB92caa27081Ef32c82",
      "gasPrice": {
        "_hex": "0xa7a358200"
      },
      "gasLimit": {
        "_hex": "0x15f90"
      },
      "to": "0xD2a69d19BaD610A0CaE27bb4545C4afd40A207B7",
      "value": {
        "_hex": "0xaa87bee538000"
      },
      "nonce": 3,
      "data": "0x",
      "r": "0xfa72e62bd8d9641b1f5acdcccfcec757371fb77e2ac14856f90334079e484451",
      "s": "0x2a735fed5062fe566d2beeee917ab5f672b877ee127fea0343d3882f22438f5b",
      "v": 28,
      "creates": null,
      "raw": "0xf86c03850a7a35820083015f9094d2a69d19bad610a0cae27bb4545c4afd40a207b7870aa87bee538000801ca0fa72e62bd8d9641b1f5acdcccfcec757371fb77e2ac14856f90334079e484451a02a735fed5062fe566d2beeee917ab5f672b877ee127fea0343d3882f22438f5b",
      "networkId": 0,
      "chainId": 0
    }
  ]
}