{
  "hash": "0xe0c96d14de9067b0507510e5a075b8d55a4380f292568f907a74c4169452b097",
  "parentHash": "0x177fb80e119359d5d9947d1b7589c7f412502f19eb43e9bb18c801f8edb498f7",
  "number": 68595,
  "timestamp": 1439290450,
  "nonce": "0xf0d8df2d3aabb0ba",
  "difficulty": 2021187254228,
  "gasLimit": {
    "_hex": "0x2fefd8"
  },
  "gasUsed": {
    "_hex": "0x19a28"
  },
  "miner": "0xeB1325C8D9d3ea8D74aC11F4B00F1B2367686319",
  "extraData": "0x476574682f76312e302e312f77696e646f77732f676f312e342e32",
  "transactions": [
    {
      "hash": "0x915c479bba3af9c1479185b729afc2cd5a5fb1d3e257c93b071a7012419641fc",
      "blockHash": "0xe0c96d14de9067b0507510e5a075b8d55a4380f292568f907a74c4169452b097",
      "blockNumber": 68595,
      "transactionIndex": 0,
      "confirmations": null,
      "from": "0x4d3949C1AF1bcF312ef354c9DF95Bb0f35A0086B",
      "gasPrice": {
        "_hex": "0xba43b7400"
      },
      "gasLimit": {
        "_hex": "0x5208"
      },
      "to": "0x7ec0d342Ffc78a83DfF3F257BC6e8ccff46A78a8",
      "value": {
        "_hex": "0xf0088de8d15000"
      },
      "nonce": 1,
      "data": "0x",
      "r": "0x1146e47cc56eeebfdba9889530887bc186b3cddb0f4e95956d5a7cb0c62b8a4f",
      "s": "0x3f5fe6a326e0b37d4a6f9c9d355d10f316a0c3c64d431a4c69df19b5f5852102",
      "v": 28,
      "creates": null,
      "raw": "0xf86b01850ba43b7400825208947ec0d342ffc78a83dff3f257bc6e8ccff46a78a887f0088de8d15000801ca01146e47cc56eeebfdba9889530887bc186b3cddb0f4e95956d5a7cb0c62b8a4fa03f5fe6a326e0b37d4a6f9c9d355d10f316a0c3c64d431a4c69df19b5f5852102",
      "networkId": 0,
      "chainId": 0
    },
    {
      "hash": "0x91fa105a8d5f526b0e271615b3ee25dcc21846621b42476e6c81cb130b6ca5ff",
      "blockHash": "0xe0c96d14de9067b0507510e5a075b8d55a4380f292568f907a74c4169452b097",
      "blockNumber": 68595,
      "transactionIndex": 1,
      "confirmations": null,
      "from": "0xEC0301d403cec991F50Ab5aB2334348Dab2AD8F3",
      "gasPrice": {
        "_hex": "0xba43b7400"
      },
      "gasLimit": {
        "_hex": "0x5208"
      },
      "to": "0xBE25a60b08cD53b72461d7668B67C977aC663844",
      "value": {
        "_hex": "0xf0088de8d15000"
      },
      "nonce": 1,
      "data": "0x",
      "r": "0x2c9becb24ed4d67bf664f60492170874da1f7b502b9e33087d8676a0e6d2c5f8",
      "s": "0x2ca7c59ac97bc03ee0312ccfb578f3c5c4bf46af33c325f61f2aae1749e167fd",
      "v": 28,
      "creates": null,
      "raw": "0xf86b01850ba43b740082520894be25a60b08cd53b72461d7668b67c977ac66384487f0088de8d15000801ca02c9becb24ed4d67bf664f60492170874da1f7b502b9e33087d8676a0e6d2c5f8a02ca7c59ac97bc03ee0312ccfb578f3c5c4bf46af33c325f61f2aae1749e167fd",
      "networkId": 0,
      "chainId": 0
    },
    {
      "hash": "0x837b46bf4056d51e4831688c4384fc44f5b03097e6d1374c089a2be6773141c4",
      "blockHash": "0xe0c96d14de9067b0507510e5a075b8d55a4380f292568f907a74c4169452b097",
      "blockNumber": 68595,
      "transactionIndex": 2,
      "confirmations": null,
      "from": "0xB72b2DEe2e6be08902326c57ba368423Db92f907",
      "gasPrice": {
        "_hex": "0xba43b7400"
      },
      "gasLimit": {
        "_hex": "0x5208"
      },
      "to": "0xeDBAAB30a12029F48622657294F85603D5EF5AbF",
      "value": {
        "_hex": "0xf0088de8d15000"
      },
      "nonce": 1,
      "data": "0x",
      "r": "0x283898226556cbc1492faa261e4321a91fb4ea5e02d54f02626aecbeb87adaa8",
      "s": "0x5c257fcdc29619df8cd9ac1640871bb523c7afd392f9107b95cb541b506c1d90",
      "v": 28,
      "creates": null,
      "raw": "0xf86b01850ba43b740082520894edbaab30a12029f48622657294f85603d5ef5abf87f0088de8d15000801ca0283898226556cbc1492faa261e4321a91fb4ea5e02d54f02626aecbeb87adaa8a05c257fcdc29619df8cd9ac1640871bb523c7afd392f9107b95cb541b506c1d90",
      "networkId": 0,
      "chainId": 0
    },
    {
      "hash": "0x43e13db0d138ed724f21e51ae510ab36bcfdde9e2bef619b223ee5e4be55fda9",
      "blockHash": "0xe0c96d14de9067b0507510e5a075b8d55a4380f292568f907a74c4169452b097",
      "blockNumber": 68595,
      "transactionIndex": 3,
      "confirmations": null,
      "from": "0xb9F4Bc0d94574A084F12243b65383832c60177ed",
      "gasPrice": {
        "_hex": "0xba43b7400"
      },
      "gasLimit": {
        "_hex": "0x5208"
      },
      "to": "0xDDFD4BBD912D16038aa2F0DEd6BFe35345Ad0081",
      "value": {
        "_hex": "0xf0088de8d15000"
      },
      "nonce": 1,
      "data": "0x",
      "r": "0x880bf4e705105dc280eabfa5d8b7fae06e3822b6e9c66e8163ed0ee98a9213cc",
      "s": "0x3d319fabc4dcd8ae920991dcb7a5e7725557ee6e1f8482de41ccfc5265e94b29",
      "v": 27,
      "creates": null,
      "raw": "0xf86b01850ba43b740082520894ddfd4bbd912d16038aa2f0ded6bfe35345ad008187f0088de8d15000801ba0880bf4e705105dc280eabfa5d8b7fae06e3822b6e9c66e8163ed0ee98a9213cca03d319fabc4dcd8ae920991dcb7a5e7725557ee6e1f8482de41ccfc5265e94b29",
      "networkId": 0,
      "chainId": 0
    },
    {
      "hash": "0x795c2f9429cecec014d9a5ae77af362a8adc79572b1e2c5fcdefa6f007224d25",
      "blockHash": "0xe0c96d14de9067b0507510e5a075b8d55a4380f292568f907a74c4169452b097",
      "blockNumber": 68595,
      "transactionIndex": 4,
      "confirmations": null,
      "from": "0xa637abE4FC99DD25Db04f96e8922CD97877629f7",
      "gasPrice": {
        "_hex": "0xba43b7400"
      },
      "gasLimit": {
        "_hex": "0x5208"
      },
      "to": "0x5adAAc4c2A6CF90f8026e8F27241a2ea4a82a103",
      "value": {
        "_hex": "0xf0088de8d15000"
      },
      "nonce": 1,
      "data": "0x",
      "r": "0xc50a393e66b10a3f9cb07a5b45ef2c76f9e72b67a4958c6c28ef5ffec51155d7",
      "s": "0x319c980c3a7c49ab057fc78174e9cb256df7ba2fca1df8361bf7dc688dc281d3",
      "v": 27,
      "creates": null,
      "raw": "0xf86b01850ba43b7400825208945adaac4c2a6cf90f8026e8f27241a2ea4a82a10387f0088de8d15000801ba0c50a393e66b10a3f9cb07a5b45ef2c76f9e72b67a4958c6c28ef5ffec51155d7a0319c980c3a7c49ab057fc78174e9cb256df7ba2fca1df8361bf7dc688dc281d3",
      "networkId": 0,
      "chainId": 0
    }
  ]
}