{
  "hash": "0x14b7173f83d6b7c73b7aee23312ee9bdda371d789ec0026ba718cf6bc74ef2d5",
  "parentHash": "0x81e585013fe71db8ba44845efdd456cedf11812ae04a3032aca9442fe3c805b4",
  "number": 68579,
  "timestamp": 1439290312,
  "nonce": "0xa695acaee327e084",
  "difficulty": 2015278316094,
  "gasLimit": {
    "_hex": "0x2fefd8"
  },
  "gasUsed": {
    "_hex": "0x1ec30"
  },
  "miner": "0xf927a40C8B7F6E07c5af7FA2155B4864a4112B13",
  "extraData": "0x",
  "transactions": [
    {
      "hash": "0x318bdb2ffcf5e00ef8f4a5ee218ca97bc40b4276561b43fba41a36d796962334",
      "blockHash": "0x14b7173f83d6b7c73b7aee23312ee9bdda371d789ec0026ba718cf6bc74ef2d5",
      "blockNumber": 68579,
      "transactionIndex": 0,
      "confirmations": null,
      "from": "0xB598fdd55d1B2F388E588b68E8b012eaed3D7Aad",
      "gasPrice": {
        "_hex": "0xba43b7400"
      },
      "gasLimit": {
        "_hex": "0x5208"
      },
      "to": "0x3eee97bf355FCAFcbed5665b3c30165C85af571E",
      "value": {
        "_hex": "0xc1c23435b07000"
      },
      "nonce": 1,
      "data": "0x",
      "r": "0x6f70aedfbf605164c7a498387823222fbef0cee5fa9d78822c36d92d4911bd59",
      "s": "0x2e02019f256d9709aaf9875afffb3ac2a28ec5fe98307970f832f18fdaa00c66",
      "v": 27,
      "creates": null,
      "raw": "0xf86b01850ba43b7400825208943eee97bf355fcafcbed5665b3c30165c85af571e87c1c23435b07000801ba06f70aedfbf605164c7a498387823222fbef0cee5fa9d78822c36d92d4911bd59a02e02019f256d9709aaf9875afffb3ac2a28ec5fe98307970f832f18fdaa00c66",
      "networkId": 0,
      "chainId": 0
    },
    {
      "hash": "0x06ab15d42d9de642ae2383fafe3c833a28b86c8798cce55dcb833e21dcf05da1",
      "blockHash": "0x14b7173f83d6b7c73b7aee23312ee9bdda371d789ec0026ba718cf6bc74ef2d5",
      "blockNumber": 68579,
      "transactionIndex": 1,
      "confirmations": null,
      "from": "0xA5Ac8bd187F7d0e34f4ddDc2c70f6E7420f7318d",
      "gasPrice": {
        "_hex": "0xba43b7400"
      },
      "gasLimit": {
        "_hex": "0x5208"
      },
      "to": "0x2cD844259392844A28cE9b17664e04862A85571F",
      "value": {
        "_hex": "0xc1c23435b07000"
      },
      "nonce": 1,
      "data": "0x",
      "r": "0xeb46694fe74400abe8b05e6500bb1d5a75580a89b6a62d8bb503e995abcaf7dd",
      "s": "0x77531fbe92831ab15a63fddf5442ca458512fe74a778926bab3e8f9ba4c19d5d",
      "v": 28,
      "creates": null,
      "raw": "0xf86b01850ba43b7400825208942cd844259392844a28ce9b17664e04862a85571f87c1c23435b07000801ca0eb46694fe74400abe8b05e6500bb1d5a75580a89b6a62d8bb503e995abcaf7dda077531fbe92831ab15a63fddf5442ca458512fe74a778926bab3e8f9ba4c19d5d",
      "networkId": 0,
      "chainId": 0
    },
    {
      "hash": "0x0326395d351ab7630ab3bd7032d09f2f91d81fa5bce8ed8d0ea5fcec109a32af",
      "blockHash": "0x14b7173f83d6b7c73b7aee23312ee9bdda371d789ec0026ba718cf6bc74ef2d5",
      "blockNumber": 68579,
      "transactionIndex": 2,
      "confirmations": null,
      "from": "0xc1a4213A66464056090aA28e751cDf9d706f23c5",
      "gasPrice": {
        "_hex": "0xba43b7400"
      },
      "gasLimit": {
        "_hex": "0x5208"
      },
      "to": "0x7E9e3a1b2928dB8ee074A3F8ec4b8cf9985dC7F7",
      "value": {
        "_hex": "0xc1c23435b07000"
      },
      "nonce": 1,
      "data": "0x",
      "r": "0xd16a3915e124bbd6f74823dfc05bb242194ce0f1a55c9bde875406be59626458",
      "s": "0x0b130ef9eada531b8bc46097e71ee4a43e943e423abd4410843f1591e825451f",
      "v": 28,
      "creates": null,
      "raw": "0xf86b01850ba43b7400825208947e9e3a1b2928db8ee074a3f8ec4b8cf9985dc7f787c1c23435b07000801ca0d16a3915e124bbd6f74823dfc05bb242194ce0f1a55c9bde875406be59626458a00b130ef9eada531b8bc46097e71ee4a43e943e423abd4410843f1591e825451f",
      "networkId": 0,
      "chainId": 0
    },
    {
      "hash": "0x7cc41b2f3b8f81e28da61e8724eb1d295ef03a2ef63d7ffc19d8071b276d3f6d",
      "blockHash": "0x14b7173f83d6b7c73b7aee23312ee9bdda371d789ec0026ba718cf6bc74ef2d5",
      "blockNumber": 68579,
      "transactionIndex": 3,
      "confirmations": null,
      "from": "0x04F04B0f000d12107Bde142F3A3Cf2d519B1FEE0",
      "gasPrice": {
        "_hex": "0xba43b7400"
      },
      "gasLimit": {
        "_hex": "0x5208"
      },
      "to": "0x447781dB0b7A64b6AfbC75bDaD4e3DbbC1AbD959",
      "value": {
        "_hex": "0xc1c23435b07000"
      },
      "nonce": 1,
      "data": "0x",
      "r": "0x1684fb88eadcf0fcc86c11b537dc2822b987ed0a8589e4eb5fbf0bc0b9166c05",
      "s": "0x6401cc802f441c6fc226eabe5202dcd48bef179114ad7526046c9b39d99a91b3",
      "v": 27,
      "creates": null,
      "raw": "0xf86b01850ba43b740082520894447781db0b7a64b6afbc75bdad4e3dbbc1abd95987c1c23435b07000801ba01684fb88eadcf0fcc86c11b537dc2822b987ed0a8589e4eb5fbf0bc0b9166c05a06401cc802f441c6fc226eabe5202dcd48bef179114ad7526046c9b39d99a91b3",
      "networkId": 0,
      "chainId": 0
    },
    {
      "hash": "0xec3a3656741fe4c97fbab435c9794e2982fe982ce1a0d89e00ccd9d21a6ae0f5",
      "blockHash": "0x14b7173f83d6b7c73b7aee23312ee9bdda371d789ec0026ba718cf6bc74ef2d5",
      "blockNumber": 68579,
      "transactionIndex": 4,
      "confirmations": null,
      "from": "0xCaD3f480d3C14Ef9A9C9dfA8B130354f20A93674",
      "gasPrice": {
        "_hex": "0xba43b7400"
      },
      "gasLimit": {
        "_hex": "0x5208"
      },
      "to": "0x03f3aBb578740b10C28DF354A3aAa15b1Bc13061",
      "value": {
        "_hex": "0xc1c23435b07000"
      },
      "nonce": 1,
      "data": "0x",
      "r": "0x98b9b73676e11f9e34ac31040d20a484a4b4e5b1b68f3a783fbe7d02d8c3db6c",
      "s": "0x4b5bcd7f9ee16cecb8d070bc34eef2552dccdae171a06f687b19b1c4b6ad6e48",
      "v": 27,
      "creates": null,
      "raw": "0xf86b01850ba43b74008252089403f3abb578740b10c28df354a3aaa15b1bc1306187c1c23435b07000801ba098b9b73676e11f9e34ac31040d20a484a4b4e5b1b68f3a783fbe7d02d8c3db6ca04b5bcd7f9ee16cecb8d070bc34eef2552dccdae171a06f687b19b1c4b6ad6e48",
      "networkId": 0,
      "chainId": 0
    },
    {
      "hash": "0x7c76acbf80c518e9757ccfbb7c35482d8e7870f84b1213ca6d9adb3a526a0cec",
      "blockHash": "0x14b7173f83d6b7c73b7aee23312ee9bdda371d789ec0026ba718cf6bc74ef2d5",
      "blockNumber": 68579,
      "transactionIndex": 5,
      "confirmations": null,
      "from": "0xF5Ce3C601af96518c121F35604c212E7d5c6Ab5b",
      "gasPrice": {
        "_hex": "0xba43b7400"
      },
      "gasLimit": {
        "_hex": "0x5208"
      },
      "to": "0xbf586c83bA7ADc64FD85A077CeA9f8Ca03014dae",
      "value": {
        "_hex": "0xc1c23435b07000"
      },
      "nonce": 1,
      "data": "0x",
      "r": "0x16c5983a38b93f045fbcd9f4a07019511278f2a676d5b9e35ce39a52d9ab52c8",
      "s": "0x692edb4cfc7fde39c495d3998e1c297d6f180d960667b3aa1cb03aade62a8ee7",
      "v": 27,
      "creates": null,
      "raw": "0xf86b01850ba43b740082520894bf586c83ba7adc64fd85a077cea9f8ca03014dae87c1c23435b07000801ba016c5983a38b93f045fbcd9f4a07019511278f2a676d5b9e35ce39a52d9ab52c8a0692edb4cfc7fde39c495d3998e1c297d6f180d960667b3aa1cb03aade62a8ee7",
      "networkId": 0,
      "chainId": 0
    }
  ]
}