{
  "hash": "0x8c695e81dfacd04fcdfbaa006fce188fb354aeeaa32c29d584e37f60676010a1",
  "parentHash": "0x3e8d160afd95f207d0abb25e4caa13723c7debe732fc00633989890aa2d1b816",
  "number": 53509,
  "timestamp": 1439038843,
  "nonce": "0xbb52a46a493d8499",
  "difficulty": 1592410786650,
  "gasLimit": {
    "_hex": "0x2a6954"
  },
  "gasUsed": {
    "_hex": "0x14820"
  },
  "miner": "0xf8E0CA3Ed80bd541b94BEdCf259e8CF2141A9523",
  "extraData": "0x476574682f76312e302e312f77696e646f77732f676f312e342e32",
  "transactions": [
    {
      "hash": "0xb958c000649e554aa962d96090e0d11fcba81a5c5936731987057ef09bf53a65",
      "blockHash": "0x8c695e81dfacd04fcdfbaa006fce188fb354aeeaa32c29d584e37f60676010a1",
      "blockNumber": 53509,
      "transactionIndex": 0,
      "confirmations": null,
      "from": "0x3B4AF94C39e87281410A3B5Cf880b4a647459363",
      "gasPrice": {
        "_hex": "0xdc4124677"
      },
      "gasLimit": {
        "_hex": "0x5208"
      },
      "to": "0x32Be343B94f860124dC4fEe278FDCBD38C102D88",
      "value": {
        "_hex": "0x30c9fddb3e6fce0000"
      },
      "nonce": 2,
      "data": "0x",
      "r": "0x2a75f16f16a34224b29f90ac8209b26622d0c5a11b3849a9945d5d49b094ffd0",
      "s": "0x6b2ab3187dadf1bcf46c6b4d69c56ff849ba19679edf2d5fcade073d00ad0306",
      "v": 27,
      "creates": null,
      "raw": "0xf86d02850dc41246778252089432be343b94f860124dc4fee278fdcbd38c102d888930c9fddb3e6fce0000801ba02a75f16f16a34224b29f90ac8209b26622d0c5a11b3849a9945d5d49b094ffd0a06b2ab3187dadf1bcf46c6b4d69c56ff849ba19679edf2d5fcade073d00ad0306",
      "networkId": 0,
      "chainId": 0
    },
    {
      "hash": "0x57c0b3f6b240bf08e934314852163d2978b5b34debf8be830669586da1887112",
      "blockHash": "0x8c695e81dfacd04fcdfbaa006fce188fb354aeeaa32c29d584e37f60676010a1",
      "blockNumber": 53509,
      "transactionIndex": 1,
      "confirmations": null,
      "from": "0x33A3f479f6c3e7F91128348490D1f7E8D2A0FAb5",
      "gasPrice": {
        "_hex": "0xdc4124677"
      },
      "gasLimit": {
        "_hex": "0x5208"
      },
      "to": "0x32Be343B94f860124dC4fEe278FDCBD38C102D88",
      "value": {
        "_hex": "0x455f33d95914e000"
      },
      "nonce": 6,
      "data": "0x",
      "r": "0xe2f563939c3f8d73d0efcb8702c00fb39270f468037f0df92abc0f0d9ac9ee0f",
      "s": "0x7b7b6ef1f828862462159a10ead24899f763b9228ac28f5f00c74bbf69f6c94d",
      "v": 27,
      "creates": null,
      "raw": "0xf86c06850dc41246778252089432be343b94f860124dc4fee278fdcbd38c102d8888455f33d95914e000801ba0e2f563939c3f8d73d0efcb8702c00fb39270f468037f0df92abc0f0d9ac9ee0fa07b7b6ef1f828862462159a10ead24899f763b9228ac28f5f00c74bbf69f6c94d",
      "networkId": 0,
      "chainId": 0
    },
    {
      "hash": "0x0be13ebfa3ed08ef5988a4afd08ca7c08bf3f0ff7d74ddf8dd4f97a3ca0a619d",
      "blockHash": "0x8c695e81dfacd04fcdfbaa006fce188fb354aeeaa32c29d584e37f60676010a1",
      "blockNumber": 53509,
      "transactionIndex": 2,
      "confirmations": null,
      "from": "0x1Ba1A80AE240a3089fD7a78292f940d84d7074f4",
      "gasPrice": {
        "_hex": "0xdc4124677"
      },
      "gasLimit": {
        "_hex": "0x5208"
      },
      "to": "0x32Be343B94f860124dC4fEe278FDCBD38C102D88",
      "value": {
        "_hex": "0x11e3a724cc25460000"
      },
      "nonce": 1,
      "data": "0x",
      "r": "0x932e9214527a98b2880402b960759314c088fdf11359f9c51544caa2133c6690",
      "s": "0x19935275ce38868956ef02e8a0133f801dc5e059e1f5b913737d1edb1060ca2a",
      "v": 27,
      "creates": null,
      "raw": "0xf86d01850dc41246778252089432be343b94f860124dc4fee278fdcbd38c102d888911e3a724cc25460000801ba0932e9214527a98b2880402b960759314c088fdf11359f9c51544caa2133c6690a019935275ce38868956ef02e8a0133f801dc5e059e1f5b913737d1edb1060ca2a",
      "networkId": 0,
      "chainId": 0
    },
    {
      "hash": "0x96615f2e67236f5fa31b04e546a9b47124f3f09ee5b054f405fadffb7c69480f",
      "blockHash": "0x8c695e81dfacd04fcdfbaa006fce188fb354aeeaa32c29d584e37f60676010a1",
      "blockNumber": 53509,
      "transactionIndex": 3,
      "confirmations": null,
      "from": "0x15674e39f68d518367ECDd22cB73534Cb74bDC28",
      "gasPrice": {
        "_hex": "0xdc4124677"
      },
      "gasLimit": {
        "_hex": "0x5208"
      },
      "to": "0x32Be343B94f860124dC4fEe278FDCBD38C102D88",
      "value": {
        "_hex": "0x1ee08322538e82000"
      },
      "nonce": 2,
      "data": "0x",
      "r": "0x446ffbfed67bf5e842c501be3afe5dd9cd997b8e4c87bb73cf1bb3f5bcc18335",
      "s": "0x2c5e5f85c1b9a724acba23cef997765ebbaf302c2228f94775646fa731ca0736",
      "v": 28,
      "creates": null,
      "raw": "0xf86d02850dc41246778252089432be343b94f860124dc4fee278fdcbd38c102d888901ee08322538e82000801ca0446ffbfed67bf5e842c501be3afe5dd9cd997b8e4c87bb73cf1bb3f5bcc18335a02c5e5f85c1b9a724acba23cef997765ebbaf302c2228f94775646fa731ca0736",
      "networkId": 0,
      "chainId": 0
    }
  ]
}