{
  "hash": "0x8dfbc9f1e7acf006962cdc101d28fc5d8e85582cc5a89c154c1fcffe6f8dd0cc",
  "parentHash": "0xb7386b799a898aa8b222aae96d1ce36eb7af2fa8dd56f06bb6277fb5aaeeae9a",
  "number": 75511,
  "timestamp": 1439404660,
  "nonce": "0x1a441d37a38b449d",
  "difficulty": 2209363342982,
  "gasLimit": {
    "_hex": "0x2fefd8"
  },
  "gasUsed": {
    "_hex": "0x15f90"
  },
  "miner": "0x02dE7d35a60bf6A216411476040ec648668769D7",
  "extraData": "0x476574682f76312e302e312f77696e646f77732f676f312e342e32",
  "transactions": [
    {
      "hash": "0x8938f3b180abcd312362c6f67b017c9dad82862151b627708450189c4f76415b",
      "blockHash": "0x8dfbc9f1e7acf006962cdc101d28fc5d8e85582cc5a89c154c1fcffe6f8dd0cc",
      "blockNumber": 75511,
      "transactionIndex": 0,
      "confirmations": null,
      "from": "0x8674c218F0351a62C3BA78C34FD2182A93Da94E2",
      "gasPrice": {
        "_hex": "0xd556fa22e"
      },
      "gasLimit": {
        "_hex": "0x15f90"
      },
      "to": "0xc7413A0CcFBD4010968850c815A2D7CB0dE2bC6c",
      "value": {
        "_hex": "0x0"
      },
      "nonce": 75,
      "data": "0xde6f24bb0000000000000000000000008674c218f0351a62c3ba78c34fd2182a93da94e2000000000000000000000000000000000000000000000000000000000000004000000000000000000000000000000000000000000000000000000000000000036869210000000000000000000000000000000000000000000000000000000000",
      "r": "0x5ea124670f8dcb2f8abc4279b317a2d74f59709b7dcc80dcd164416c1e5c5b2e",
      "s": "0x2f4f67bffcc03167616813b42383134588a3cb34fb2adb1ba1a3733271d3675b",
      "v": 28,
      "creates": null,
      "raw": "0xf8ea4b850d556fa22e83015f9094c7413a0ccfbd4010968850c815a2d7cb0de2bc6c80b884de6f24bb0000000000000000000000008674c218f0351a62c3ba78c34fd2182a93da94e20000000000000000000000000000000000000000000000000000000000000040000000000000000000000000000000000000000000000000000000000000000368692100000000000000000000000000000000000000000000000000000000001ca05ea124670f8dcb2f8abc4279b317a2d74f59709b7dcc80dcd164416c1e5c5b2ea02f4f67bffcc03167616813b42383134588a3cb34fb2adb1ba1a3733271d3675b",
      "networkId": 0,
      "chainId": 0
    }
  ]
}