{
  "hash": "0x40f8a42110b6bea8f6780c5e8f56d15bae6fb8033fbf9626f89f51d1ba60076b",
  "parentHash": "0x367931140204d02a546c3c4734022e3b002fcd2a71d36e09e941575f6dfce80c",
  "number": 113818,
  "timestamp": 1440030096,
  "nonce": "0x26585f6c05601e8f",
  "difficulty": 4444872479589,
  "gasLimit": {
    "_hex": "0x2fefd8"
  },
  "gasUsed": {
    "_hex": "0xf618"
  },
  "miner": "0xe6A7a1d47ff21B6321162AEA7C6CB457D5476Bca",
  "extraData": "0x476574682f76312e302e312d38326566323666362f6c696e75782f676f312e34",
  "transactions": [
    {
      "hash": "0x5c6e00d98a18a01006277bff97317c686aa5617a1118964ea9b7b81beabf0dee",
      "blockHash": "0x40f8a42110b6bea8f6780c5e8f56d15bae6fb8033fbf9626f89f51d1ba60076b",
      "blockNumber": 113818,
      "transactionIndex": 0,
      "confirmations": null,
      "from": "0xfe75342791A8492E5bfef9dbE16D4ec937671C9d",
      "gasPrice": {
        "_hex": "0xd7d40ace3"
      },
      "gasLimit": {
        "_hex": "0x15f90"
      },
      "to": "0xaf9014E2650a9d5A7ae35F4F623a1B1EFBa235ab",
      "value": {
        "_hex": "0x121981b047d77900"
      },
      "nonce": 0,
      "data": "0x",
      "r": "0x97d71701871ce8f0e98e0548a7fcc418c56d98f28dc46ce1779c56590600053f",
      "s": "0x3f5a8904ad40eb4eaa25fdb5e2062509820735454a66c1d8082b7a712513a45a",
      "v": 27,
      "creates": null,
      "raw": "0xf86d80850d7d40ace383015f9094af9014e2650a9d5a7ae35f4f623a1b1efba235ab88121981b047d77900801ba097d71701871ce8f0e98e0548a7fcc418c56d98f28dc46ce1779c56590600053fa03f5a8904ad40eb4eaa25fdb5e2062509820735454a66c1d8082b7a712513a45a",
      "networkId": 0,
      "chainId": 0
    },
    {
      "hash": "0xe7b8c564e27982994ac422d6c4519f178f27fb1c48969225271addc687b24777",
      "blockHash": "0x40f8a42110b6bea8f6780c5e8f56d15bae6fb8033fbf9626f89f51d1ba60076b",
      "blockNumber": 113818,
      "transactionIndex": 1,
      "confirmations": null,
      "from": "0x576F13DdEd1f2AD6B9D55EE8A1B67815ee7C92d9",
      "gasPrice": {
        "_hex": "0xd09b714fb"
      },
      "gasLimit": {
        "_hex": "0x5208"
      },
      "to": "0x32Be343B94f860124dC4fEe278FDCBD38C102D88",
      "value": {
        "_hex": "0xae56b45893b7e0000"
      },
      "nonce": 4,
      "data": "0x",
      "r": "0x5735b8bfd82cb548f43a6b0315c78a3d15c32dd813fe223beeaf403c1e3d7aaf",
      "s": "0x0b4fde5a44d8c9e77d35a2bbf31396918beb5c71eeeb6187c008a315ed25da84",
      "v": 28,
      "creates": null,
      "raw": "0xf86d04850d09b714fb8252089432be343b94f860124dc4fee278fdcbd38c102d88890ae56b45893b7e0000801ca05735b8bfd82cb548f43a6b0315c78a3d15c32dd813fe223beeaf403c1e3d7aafa00b4fde5a44d8c9e77d35a2bbf31396918beb5c71eeeb6187c008a315ed25da84",
      "networkId": 0,
      "chainId": 0
    },
    {
      "hash": "0x5c7dfd5ccd4558af19f40cd4e796b2b545e847471e68cb10395b780efeeb0a4c",
      "blockHash": "0x40f8a42110b6bea8f6780c5e8f56d15bae6fb8033fbf9626f89f51d1ba60076b",
      "blockNumber": 113818,
      "transactionIndex": 2,
      "confirmations": null,
      "from": "0x79204D7826f5d18687B4bB92dF98b98218Ab38B9",
      "gasPrice": {
        "_hex": "0xd09b714fb"
      },
      "gasLimit": {
        "_hex": "0x5208"
      },
      "to": "0x32Be343B94f860124dC4fEe278FDCBD38C102D88",
      "value": {
        "_hex": "0xd8d6e3dec45a20000"
      },
      "nonce": 2,
      "data": "0x",
      "r": "0x86db09cf40684169173b1cee7f2a8293346ff3d5ae419515d4145855b30ab883",
      "s": "0x50a4bc0bfd47e28a228cb604824cc3de3faf1ae7cc02ec51d2bc9846cd5041c3",
      "v": 27,
      "creates": null,
      "raw": "0xf86d02850d09b714fb8252089432be343b94f860124dc4fee278fdcbd38c102d88890d8d6e3dec45a20000801ba086db09cf40684169173b1cee7f2a8293346ff3d5ae419515d4145855b30ab883a050a4bc0bfd47e28a228cb604824cc3de3faf1ae7cc02ec51d2bc9846cd5041c3",
      "networkId": 0,
      "chainId": 0
    }
  ]
}