{
  "hash": "0xbab358bfaaa485b93048e9abd47b2111b69591f5f8622d1cc5d306c2a4b78d6c",
  "parentHash": "0x6c6f534c1f8736bf65a04d7cae35bb77a46ecb3b81bb946e3158f3676d60efcd",
  "number": 81869,
  "timestamp": 1439509286,
  "nonce": "0x8249a21f657edc99",
  "difficulty": 2412862146913,
  "gasLimit": {
    "_hex": "0x2fefd8"
  },
  "gasUsed": {
    "_hex": "0xf618"
  },
  "miner": "0xbb7B8287f3F0a933474a79eAe42CBCa977791171",
  "extraData": "0x476574682f4c5649562f76312e302e312f6c696e75782f676f312e342e32",
  "transactions": [
    {
      "hash": "0x3f6bd471d1ab1f96865c5f47d8e15e425570ba628e9993e966508ae8f2a3eed8",
      "blockHash": "0xbab358bfaaa485b93048e9abd47b2111b69591f5f8622d1cc5d306c2a4b78d6c",
      "blockNumber": 81869,
      "transactionIndex": 0,
      "confirmations": null,
      "from": "0x0D4EcC7d750180EBf4A9Df728B6669B5Bceb5E40",
      "gasPrice": {
        "_hex": "0xceef4e342"
      },
      "gasLimit": {
        "_hex": "0x5208"
      },
      "to": "0x32Be343B94f860124dC4fEe278FDCBD38C102D88",
      "value": {
        "_hex": "0x478a7ee60cb94400"
      },
      "nonce": 13,
      "data": "0x",
      "r": "0x9763f7e7d6ad755206c69bd4b349a6b5e528e1826a23c64560ac42bfe68be096",
      "s": "0x3e0eb470c2b0676356a63617fd88521bfdabbf68f9158e60307fcc0dac4fbbb2",
      "v": 27,
      "creates": null,
      "raw": "0xf86c0d850ceef4e3428252089432be343b94f860124dc4fee278fdcbd38c102d8888478a7ee60cb94400801ba09763f7e7d6ad755206c69bd4b349a6b5e528e1826a23c64560ac42bfe68be096a03e0eb470c2b0676356a63617fd88521bfdabbf68f9158e60307fcc0dac4fbbb2",
      "networkId": 0,
      "chainId": 0
    },
    {
      "hash": "0xb5ea3655bece60871cc88e9502f6b0d738cee783700a605b02468b22d3b0b7da",
      "blockHash": "0xbab358bfaaa485b93048e9abd47b2111b69591f5f8622d1cc5d306c2a4b78d6c",
      "blockNumber": 81869,
      "transactionIndex": 1,
      "confirmations": null,
      "from": "0x6625997D5DDC109B93B0e6dD488f416D8592Cd25",
      "gasPrice": {
        "_hex": "0xceef4e342"
      },
      "gasLimit": {
        "_hex": "0x5208"
      },
      "to": "0x32Be343B94f860124dC4fEe278FDCBD38C102D88",
      "value": {
        "_hex": "0x1b0cfffb3dadb30000"
      },
      "nonce": 2,
      "data": "0x",
      "r": "0x51a9936f30fd363dd9433f275518c619c82393d285ac947cba8fa532f3222cef",
      "s": "0x070cda5d005cb5c274e0d2765ccd638ff1d1e813a21ee46aa8967668d963c354",
      "v": 27,
      "creates": null,
      "raw": "0xf86d02850ceef4e3428252089432be343b94f860124dc4fee278fdcbd38c102d88891b0cfffb3dadb30000801ba051a9936f30fd363dd9433f275518c619c82393d285ac947cba8fa532f3222cefa0070cda5d005cb5c274e0d2765ccd638ff1d1e813a21ee46aa8967668d963c354",
      "networkId": 0,
      "chainId": 0
    },
    {
      "hash": "0xc4cbdf148ce0af67986da76165b3233658b41258774702270321f729a0599b52",
      "blockHash": "0xbab358bfaaa485b93048e9abd47b2111b69591f5f8622d1cc5d306c2a4b78d6c",
      "blockNumber": 81869,
      "transactionIndex": 2,
      "confirmations": null,
      "from": "0x32Be343B94f860124dC4fEe278FDCBD38C102D88",
      "gasPrice": {
        "_hex": "0xceef4e342"
      },
      "gasLimit": {
        "_hex": "0x5208"
      },
      "to": "0xd69E5daDd5C346e6F140B0A0750B8c5e2952fdAa",
      "value": {
        "_hex": "0xecf4d5406fe0800"
      },
      "nonce": 617,
      "data": "0x",
      "r": "0xff6222ab0348a964fc6e7c8e4707c9bb8e44f2ea96c0fac0f81c9700eb81a0f7",
      "s": "0x682f1d6e0c7f1baf3bbaa580cf56ced07589b16c86419e458535bd0321001a29",
      "v": 27,
      "creates": null,
      "raw": "0xf86e820269850ceef4e34282520894d69e5dadd5c346e6f140b0a0750b8c5e2952fdaa880ecf4d5406fe0800801ba0ff6222ab0348a964fc6e7c8e4707c9bb8e44f2ea96c0fac0f81c9700eb81a0f7a0682f1d6e0c7f1baf3bbaa580cf56ced07589b16c86419e458535bd0321001a29",
      "networkId": 0,
      "chainId": 0
    }
  ]
}