{
  "hash": "0xac85a76dc2e5c2e346133c44216d44ab8c393a08d93df9acd5a099059ff94899",
  "parentHash": "0x86ad7766134e88fcfe84e930f7a9364905e8bba54c456c0562a001c7af692c65",
  "number": 67081,
  "timestamp": 1439265584,
  "nonce": "0x1d5c9e7a32055e9a",
  "difficulty": 1927095611515,
  "gasLimit": {
    "_hex": "0x2fefd8"
  },
  "gasUsed": {
    "_hex": "0x5208"
  },
  "miner": "0xf927a40C8B7F6E07c5af7FA2155B4864a4112B13",
  "extraData": "0x",
  "transactions": [
    {
      "hash": "0xe00f002577edf9c285301f35a6a0e05875f9dbdb54ff2cce4ea37ec64626b0dc",
      "blockHash": "0xac85a76dc2e5c2e346133c44216d44ab8c393a08d93df9acd5a099059ff94899",
      "blockNumber": 67081,
      "transactionIndex": 0,
      "confirmations": null,
      "from": "0xD3221E91D252E8f4ec403E46ae6478b7EBaC265c",
      "gasPrice": {
        "_hex": "0x746a528800"
      },
      "gasLimit": {
        "_hex": "0x5b04"
      },
      "to": "0x0d187496799a43E7c43e4324026E32d1Dc80D8E4",
      "value": {
        "_hex": "0xa3ee6e2a294d40000"
      },
      "nonce": 3,
      "data": "0x",
      "r": "0x9c542da9938b1e0d8697a7a2623791253b3dbbe0881d424f1e34d274b685f57b",
      "s": "0xf0837d89053bb82fb64b6cce09943620b95858d1d56fc38a9870bfa977041932",
      "v": 27,
      "creates": null,
      "raw": "0xf86d0385746a528800825b04940d187496799a43e7c43e4324026e32d1dc80d8e4890a3ee6e2a294d40000801ba09c542da9938b1e0d8697a7a2623791253b3dbbe0881d424f1e34d274b685f57ba0f0837d89053bb82fb64b6cce09943620b95858d1d56fc38a9870bfa977041932",
      "networkId": 0,
      "chainId": 0
    }
  ]
}