{
  "hash": "0x3c1c4aad532e975edbdc5fdaf2581ab0dc9d6dabf48edd0e40fe78ac3ad5522d",
  "parentHash": "0x3c43d3dfd57674bbd1153a28017502ef4efa4fb11c64094083ce720c703338b5",
  "number": 48642,
  "timestamp": 1438960331,
  "nonce": "0xe63f75c87860fd5f",
  "difficulty": 1472874583366,
  "gasLimit": {
    "_hex": "0x1b307"
  },
  "gasUsed": {
    "_hex": "0x546c"
  },
  "miner": "0x55D1554b08a5311C5c0A0B6464162192f9D2f884",
  "extraData": "0x476574682f76312e302e312f6c696e75782f676f312e342e32",
  "transactions": [
    {
      "hash": "0xfe23af891b4cb1fcce68861e1bc9982b55a9ed71765b1ebfa5acaa40d3aa59d0",
      "blockHash": "0x3c1c4aad532e975edbdc5fdaf2581ab0dc9d6dabf48edd0e40fe78ac3ad5522d",
      "blockNumber": 48642,
      "transactionIndex": 0,
      "confirmations": null,
      "from": "0xe80E7fEF18a5db15B01473F3ad6B78B2a2F8ACd9",
      "gasPrice": {
        "_hex": "0x11063fe0af5"
      },
      "gasLimit": {
        "_hex": "0x15f90"
      },
      "to": "0x2910543Af39abA0Cd09dBb2D50200b3E800A63D2",
      "value": {
        "_hex": "0x4563918244f40000"
      },
      "nonce": 0,
      "data": "0x454e514a33374b5052",
      "r": "0x185dba35747d2c7e7d19e93d6ecb3ce7b2d1e96019888d25bfa6103c8a3b8714",
      "s": "0x2fc26b1a4b24fc07d7879cecdefa114761215c70e81c3a864d807feacaba213c",
      "v": 28,
      "creates": null,
      "raw": "0xf8778086011063fe0af583015f90942910543af39aba0cd09dbb2d50200b3e800a63d2884563918244f4000089454e514a33374b50521ca0185dba35747d2c7e7d19e93d6ecb3ce7b2d1e96019888d25bfa6103c8a3b8714a02fc26b1a4b24fc07d7879cecdefa114761215c70e81c3a864d807feacaba213c",
      "networkId": 0,
      "chainId": 0
    }
  ]
}