{
  "hash": "0x70e6d98f0384bf8aff49c8cffb84a45ad8bc26b8b75de6b23c233f3006ea4e04",
  "parentHash": "0xa6cfc462e6c27edbe0f20014fe9c78831790345c7220658fbaa9f304c222d732",
  "number": 116489,
  "timestamp": 1440075118,
  "nonce": "0x5348d0a757b96686",
  "difficulty": 4555499196171,
  "gasLimit": {
    "_hex": "0x2fefd8"
  },
  "gasUsed": {
    "_hex": "0xa410"
  },
  "miner": "0x580992B51e3925e23280EfB93d3047C82f17E038",
  "extraData": "0x476574682f76312e302e312f6c696e75782f676f312e342e32",
  "transactions": [
    {
      "hash": "0xd7a604a51391bfeea4f01782f011b7a53dc3be3efee5fa05d923fc2ca34600d4",
      "blockHash": "0x70e6d98f0384bf8aff49c8cffb84a45ad8bc26b8b75de6b23c233f3006ea4e04",
      "blockNumber": 116489,
      "transactionIndex": 0,
      "confirmations": null,
      "from": "0xA1623430350C5df1b52B0b57483A5bb45d1796Da",
      "gasPrice": {
        "_hex": "0xe1a3ad35a"
      },
      "gasLimit": {
        "_hex": "0x7530"
      },
      "to": "0xf2881e3e520bF84469Fa00a56449D357FB1af54A",
      "value": {
        "_hex": "0x8c2a687ce7720000"
      },
      "nonce": 14,
      "data": "0x",
      "r": "0x58200c3f69a9a1d500bca950d034a5376dd4db5d6798b2a92184aedf4299e4cc",
      "s": "0x2b966244177a4600c9afd0c593858d4a943b8fdff4a2ea0f0348ac4b0ab7b18c",
      "v": 28,
      "creates": null,
      "raw": "0xf86c0e850e1a3ad35a82753094f2881e3e520bf84469fa00a56449d357fb1af54a888c2a687ce7720000801ca058200c3f69a9a1d500bca950d034a5376dd4db5d6798b2a92184aedf4299e4cca02b966244177a4600c9afd0c593858d4a943b8fdff4a2ea0f0348ac4b0ab7b18c",
      "networkId": 0,
      "chainId": 0
    },
    {
      "hash": "0xaa7c5833bd7e00ff25a1c619c3c7688f1c35ca387c8da74ebe94dd04195ac19e",
      "blockHash": "0x70e6d98f0384bf8aff49c8cffb84a45ad8bc26b8b75de6b23c233f3006ea4e04",
      "blockNumber": 116489,
      "transactionIndex": 1,
      "confirmations": null,
      "from": "0x79c2eB532397ADb2237Fc3Aa1433b25fFEbaD915",
      "gasPrice": {
        "_hex": "0xd1f217cbf"
      },
      "gasLimit": {
        "_hex": "0x15f90"
      },
      "to": "0xB89C0F465b0472fa5A58eCDd01eD937205ae4d06",
      "value": {
        "_hex": "0x1236efcbcbb340000"
      },
      "nonce": 2,
      "data": "0x",
      "r": "0x8065c1e7aff5b11dfc03efc761e931a14fd9e1802cf1b19521f61adfa6645370",
      "s": "0x6d2a6ef270def70d3c201e8970627b357dc3e95a723092f994f0050444ac11bc",
      "v": 27,
      "creates": null,
      "raw": "0xf86e02850d1f217cbf83015f9094b89c0f465b0472fa5a58ecdd01ed937205ae4d068901236efcbcbb340000801ba08065c1e7aff5b11dfc03efc761e931a14fd9e1802cf1b19521f61adfa6645370a06d2a6ef270def70d3c201e8970627b357dc3e95a723092f994f0050444ac11bc",
      "networkId": 0,
      "chainId": 0
    }
  ]
}