{
  "hash": "0x573cea4e2937901596c20fda8627b4ef2e1224ea4972331960d2cdb0cdf20215",
  "parentHash": "0x375ba15429966fe9de3aff42d2af5225fee5b0d2aff527589ea8a3c5313b1799",
  "number": 103580,
  "timestamp": 1439855615,
  "nonce": "0x73e5ed44b0818355",
  "difficulty": 4201133848674,
  "gasLimit": {
    "_hex": "0x2fefd8"
  },
  "gasUsed": {
    "_hex": "0x5208"
  },
  "miner": "0xa6BDc31c431B8F97848c9D60cbbe9660dc450eB7",
  "extraData": "0x",
  "transactions": [
    {
      "hash": "0x0dac44b04a63f3db980eb23ccf9ece6282155d6366d729373691f86d75af6a9e",
      "blockHash": "0x573cea4e2937901596c20fda8627b4ef2e1224ea4972331960d2cdb0cdf20215",
      "blockNumber": 103580,
      "transactionIndex": 0,
      "confirmations": null,
      "from": "0x120A270bbC009644e35F0bB6ab13f95b8199c4ad",
      "gasPrice": {
        "_hex": "0xd3eb2e7d1"
      },
      "gasLimit": {
        "_hex": "0x3d090"
      },
      "to": "0xfAF02F014b3D636191e04DB4f7fa37aE7f6d3062",
      "value": {
        "_hex": "0x1721dc37aac2cf8000"
      },
      "nonce": 726,
      "data": "0x",
      "r": "0x8472d1a2b3fe915b73d25f5e36c438a4e76c3f25d3016ff9be8b34f7227d687a",
      "s": "0x04f989d794ccaf5585c395d523badbbdd3f1e8c67d133c5fa04d33b98cb2f3ca",
      "v": 28,
      "creates": null,
      "raw": "0xf8708202d6850d3eb2e7d18303d09094faf02f014b3d636191e04db4f7fa37ae7f6d3062891721dc37aac2cf8000801ca08472d1a2b3fe915b73d25f5e36c438a4e76c3f25d3016ff9be8b34f7227d687aa004f989d794ccaf5585c395d523badbbdd3f1e8c67d133c5fa04d33b98cb2f3ca",
      "networkId": 0,
      "chainId": 0
    }
  ]
}