{
  "hash": "0x09d984281b8a5be54c72be283be9cb8cdd6905428431031b0046032a03733d1f",
  "parentHash": "0xf6afae0813dda058a38252fd182ea0294baefa2130c4afc9e7927cbd00b9d644",
  "number": 72243,
  "timestamp": 1439349700,
  "nonce": "0xbbd5febf76b7f3b8",
  "difficulty": 2171712101963,
  "gasLimit": {
    "_hex": "0x2fefd8"
  },
  "gasUsed": {
    "_hex": "0x93f5"
  },
  "miner": "0xbb7B8287f3F0a933474a79eAe42CBCa977791171",
  "extraData": "0x476574682f4c5649562f76312e302e312f6c696e75782f676f312e342e32",
  "transactions": [
    {
      "hash": "0xd8fd4ae10e5bbe166631c4d4c45ab6a14800451dd64d42184288f0ca34e791ac",
      "blockHash": "0x09d984281b8a5be54c72be283be9cb8cdd6905428431031b0046032a03733d1f",
      "blockNumber": 72243,
      "transactionIndex": 0,
      "confirmations": null,
      "from": "0x17580B766f7453525ca4C6A88b01b50570EA088C",
      "gasPrice": {
        "_hex": "0xd812a9f48"
      },
      "gasLimit": {
        "_hex": "0x61a80"
      },
      "to": "0x5Fe5B7546D1628f7348B023A0393de1FC825A4fD",
      "value": {
        "_hex": "0x8ac7230489e80000"
      },
      "nonce": 412,
      "data": "0xb595b8b50000000000000000000000000000000000000000000000000000000000000001",
      "r": "0x5f346ea8db9b805bc793f67ab098b4aa9e04812945edc88becc9d02703736426",
      "s": "0x052dbcbad21d4c6ba38b9901c148c49333652fd96d2543d54502b8b779a1c963",
      "v": 28,
      "creates": null,
      "raw": "0xf89382019c850d812a9f4883061a80945fe5b7546d1628f7348b023a0393de1fc825a4fd888ac7230489e80000a4b595b8b500000000000000000000000000000000000000000000000000000000000000011ca05f346ea8db9b805bc793f67ab098b4aa9e04812945edc88becc9d02703736426a0052dbcbad21d4c6ba38b9901c148c49333652fd96d2543d54502b8b779a1c963",
      "networkId": 0,
      "chainId": 0
    }
  ]
}