{
  "hash": "0x34106342ec703703fbe7986cb89c2b3611a04f02859cf4de79797878a3252ad1",
  "parentHash": "0xffcb0c9b034470de2cd81143f3b4e938b82c7e26e3dce69c3f4a90f376d35534",
  "number": 89038,
  "timestamp": 1439617187,
  "nonce": "0x464911e6cef87c56",
  "difficulty": 3267935000116,
  "gasLimit": {
    "_hex": "0x2fefd8"
  },
  "gasUsed": {
    "_hex": "0x5208"
  },
  "miner": "0x70137010922f2fC2964b3792907F79FBB75fEbe8",
  "extraData": "0x476574682f76312e302e302f6c696e75782f676f312e342e32",
  "transactions": [
    {
      "hash": "0xa24436e4ff0e8a1f34196ca35f33d2b5be4a20c82d160c474beaf634f4dcf5d0",
      "blockHash": "0x34106342ec703703fbe7986cb89c2b3611a04f02859cf4de79797878a3252ad1",
      "blockNumber": 89038,
      "transactionIndex": 0,
      "confirmations": null,
      "from": "0x32Be343B94f860124dC4fEe278FDCBD38C102D88",
      "gasPrice": {
        "_hex": "0xdd1d70b5a"
      },
      "gasLimit": {
        "_hex": "0x5208"
      },
      "to": "0x6BED894B45159c6001dfbC5bd6257A10B9eF2202",
      "value": {
        "_hex": "0x2386f26fc10000"
      },
      "nonce": 839,
      "data": "0x",
      "r": "0xcf47622331ba40b00fe9d2a69b8249676cdb004a8e9c7eae5b3b3b544f9a899f",
      "s": "0x257a950713d344e0f8802aa43b777beaf3381ed787ebeb4f6b911eb344e24beb",
      "v": 28,
      "creates": null,
      "raw": "0xf86d820347850dd1d70b5a825208946bed894b45159c6001dfbc5bd6257a10b9ef2202872386f26fc10000801ca0cf47622331ba40b00fe9d2a69b8249676cdb004a8e9c7eae5b3b3b544f9a899fa0257a950713d344e0f8802aa43b777beaf3381ed787ebeb4f6b911eb344e24beb",
      "networkId": 0,
      "chainId": 0
    }
  ]
}