{
  "hash": "0x6c1272ae484e70a9a39b20e96bf77d316b111cf3b287e102c06a120705ead8f3",
  "parentHash": "0x5ca01fd44435dbc6c38456e23435fd37135d4fa71d648e7b3d12bc0b55c359b1",
  "number": 115461,
  "timestamp": 1440057639,
  "nonce": "0xbe88112abf5e94db",
  "difficulty": 4564964740041,
  "gasLimit": {
    "_hex": "0x2fefd8"
  },
  "gasUsed": {
    "_hex": "0x5208"
  },
  "miner": "0xf927a40C8B7F6E07c5af7FA2155B4864a4112B13",
  "extraData": "0x",
  "transactions": [
    {
      "hash": "0x02afca2fff81b31714c1b9eeaab1d8d21d350210f30ee6d9dd97e59a7165c07e",
      "blockHash": "0x6c1272ae484e70a9a39b20e96bf77d316b111cf3b287e102c06a120705ead8f3",
      "blockNumber": 115461,
      "transactionIndex": 0,
      "confirmations": null,
      "from": "0x5fF827e73C5B866c300b824fe12719a3DD350513",
      "gasPrice": {
        "_hex": "0xd5499a8f9"
      },
      "gasLimit": {
        "_hex": "0x5208"
      },
      "to": "0x32Be343B94f860124dC4fEe278FDCBD38C102D88",
      "value": {
        "_hex": "0xd0266f038a4e8000"
      },
      "nonce": 22,
      "data": "0x",
      "r": "0x504233349a0234662a4821dcd2940462d5ee46e03250e883c915895eb24447d9",
      "s": "0x44ff9fcef86f68992fe0a8578c3fe508e03c3e8cd592b4ee8076e464741259df",
      "v": 27,
      "creates": null,
      "raw": "0xf86c16850d5499a8f98252089432be343b94f860124dc4fee278fdcbd38c102d8888d0266f038a4e8000801ba0504233349a0234662a4821dcd2940462d5ee46e03250e883c915895eb24447d9a044ff9fcef86f68992fe0a8578c3fe508e03c3e8cd592b4ee8076e464741259df",
      "networkId": 0,
      "chainId": 0
    }
  ]
}