{
  "hash": "0x414010a135f34774e8711be7ddd6335973decde4ab6eafe40293cdf5d529cb6e",
  "parentHash": "0xb2f596523599597a20222566c5baca28e6f3cac912989ffc8f88084ddab3e5b3",
  "number": 108392,
  "timestamp": 1439939551,
  "nonce": "0xbaf12fc51a30761f",
  "difficulty": 4327778048611,
  "gasLimit": {
    "_hex": "0x2fefd8"
  },
  "gasUsed": {
    "_hex": "0x14820"
  },
  "miner": "0x7E6930B63D03e88F5928C5cd6ee3FCee4D714F7F",
  "extraData": "0x",
  "transactions": [
    {
      "hash": "0x344d5912365bcd070a76a7569948f08b32ba317e64af9cbf5d6f88a55aa43477",
      "blockHash": "0x414010a135f34774e8711be7ddd6335973decde4ab6eafe40293cdf5d529cb6e",
      "blockNumber": 108392,
      "transactionIndex": 0,
      "confirmations": null,
      "from": "0xFBb1b73C4f0BDa4f67dcA266ce6Ef42f520fBB98",
      "gasPrice": {
        "_hex": "0xdf2bd67ef"
      },
      "gasLimit": {
        "_hex": "0x5208"
      },
      "to": "0xd9c13364c95E5f8e35d4bD4830e974a0652f83D8",
      "value": {
        "_hex": "0x7d203660038c00"
      },
      "nonce": 200,
      "data": "0x",
      "r": "0x175bac5ef34980dce391541a0505ae81ee3ce4ff5b669743ebedb28df2dbe74e",
      "s": "0x01506e7501ac07781c62e2fff2c8c927a3d81d5aa3baf6fd49fd213fa1af5134",
      "v": 28,
      "creates": null,
      "raw": "0xf86c81c8850df2bd67ef82520894d9c13364c95e5f8e35d4bd4830e974a0652f83d8877d203660038c00801ca0175bac5ef34980dce391541a0505ae81ee3ce4ff5b669743ebedb28df2dbe74ea001506e7501ac07781c62e2fff2c8c927a3d81d5aa3baf6fd49fd213fa1af5134",
      "networkId": 0,
      "chainId": 0
    },
    {
      "hash": "0x0a607a99ce61e60535d3b4f1f435bb99164a06bd393e0e4c0da27eb51f1397ac",
      "blockHash": "0x414010a135f34774e8711be7ddd6335973decde4ab6eafe40293cdf5d529cb6e",
      "blockNumber": 108392,
      "transactionIndex": 1,
      "confirmations": null,
      "from": "0xFBb1b73C4f0BDa4f67dcA266ce6Ef42f520fBB98",
      "gasPrice": {
        "_hex": "0xdf2bd67ef"
      },
      "gasLimit": {
        "_hex": "0x5208"
      },
      "to": "0x295f7067f6e4182a32a4eFF344Af3daADFdE10E5",
      "value": {
        "_hex": "0x5dbf73105151800"
      },
      "nonce": 201,
      "data": "0x",
      "r": "0x1acb79320eeb94bb7d725bddd4b7e8082181ba69f293a4a831367287c457ae5c",
      "s": "0x1fa146a135ad9b3c81040afd4f0f1c978648c88914198a3262f9d6ba1d83349f",
      "v": 28,
      "creates": null,
      "raw": "0xf86d81c9850df2bd67ef82520894295f7067f6e4182a32a4eff344af3daadfde10e58805dbf73105151800801ca01acb79320eeb94bb7d725bddd4b7e8082181ba69f293a4a831367287c457ae5ca01fa146a135ad9b3c81040afd4f0f1c978648c88914198a3262f9d6ba1d83349f",
      "networkId": 0,
      "chainId": 0
    },
    {
      "hash": "0xce2fffacdacd8a0f96dbce63b9b4a282db6e84ed6ea7abda8cafe44f0953c7e3",
      "blockHash": "0x414010a135f34774e8711be7ddd6335973decde4ab6eafe40293cdf5d529cb6e",
      "blockNumber": 108392,
      "transactionIndex": 2,
      "confirmations": null,
      "from": "0xFBb1b73C4f0BDa4f67dcA266ce6Ef42f520fBB98",
      "gasPrice": {
        "_hex": "0xdf2bd67ef"
      },
      "gasLimit": {
        "_hex": "0x5208"
      },
      "to": "0x16Aa904405CF81815f608Ffe926ecE969509293C",
      "value": {
        "_hex": "0x7002e5023e5800"
      },
      "nonce": 202,
      "data": "0x",
      "r": "0x41586ada900b587fa8f936b6b80bc76d2b58916d21817cb07f84cf96fa080385",
      "s": "0x5196bccb917cbcfd54b035964bec1639a73e26e44f340c60591f0d118901f8a1",
      "v": 28,
      "creates": null,
      "raw": "0xf86c81ca850df2bd67ef8252089416aa904405cf81815f608ffe926ece969509293c877002e5023e5800801ca041586ada900b587fa8f936b6b80bc76d2b58916d21817cb07f84cf96fa080385a05196bccb917cbcfd54b035964bec1639a73e26e44f340c60591f0d118901f8a1",
      "networkId": 0,
      "chainId": 0
    },
    {
      "hash": "0xcc74717975836f4e3153f073f7c500051048b14e61c670f5eb3a86cfa777772b",
      "blockHash": "0x414010a135f34774e8711be7ddd6335973decde4ab6eafe40293cdf5d529cb6e",
      "blockNumber": 108392,
      "transactionIndex": 3,
      "confirmations": null,
      "from": "0xFBb1b73C4f0BDa4f67dcA266ce6Ef42f520fBB98",
      "gasPrice": {
        "_hex": "0xdf2bd67ef"
      },
      "gasLimit": {
        "_hex": "0x5208"
      },
      "to": "0xe8db85C6f80BF068a4508e3a315b20caCd8B2fcE",
      "value": {
        "_hex": "0x49c954f386a000"
      },
      "nonce": 203,
      "data": "0x",
      "r": "0x45d46675f3c3e9f97ca45b14ec7f7ab09c1b8b9f68fa849a267052391cc5597c",
      "s": "0x76056cb9beee0421e01176aaa69b6f16e3a9d5898d3ac0dd1fe6a1255d7edf3d",
      "v": 28,
      "creates": null,
      "raw": "0xf86c81cb850df2bd67ef82520894e8db85c6f80bf068a4508e3a315b20cacd8b2fce8749c954f386a000801ca045d46675f3c3e9f97ca45b14ec7f7ab09c1b8b9f68fa849a267052391cc5597ca076056cb9beee0421e01176aaa69b6f16e3a9d5898d3ac0dd1fe6a1255d7edf3d",
      "networkId": 0,
      "chainId": 0
    }
  ]
}