{
  "hash": "0x625c7f7797d6fff9bd96c79231a82d8e3fa93ec3b832ec8b5ac72509ed4c15b0",
  "parentHash": "0xdb14fce80203b01a0659077afa4c11eaf1b3837e43ba11eb16e9abfa208abb6d",
  "number": 111894,
  "timestamp": 1439997978,
  "nonce": "0xcfaf9a0ca5900634",
  "difficulty": 4441552494126,
  "gasLimit": {
    "_hex": "0x2fefd8"
  },
  "gasUsed": {
    "_hex": "0x5208"
  },
  "miner": "0x6541237dAaFf6688A79f9F2F370Ca0E7Ee20BD33",
  "extraData": "0x476574682f76312e302e312f77696e646f77732f676f312e342e32",
  "transactions": [
    {
      "hash": "0xf34f4ac3dfe86387e69cb4251974509b47b316498d47886365520a3c7df846d1",
      "blockHash": "0x625c7f7797d6fff9bd96c79231a82d8e3fa93ec3b832ec8b5ac72509ed4c15b0",
      "blockNumber": 111894,
      "transactionIndex": 0,
      "confirmations": null,
      "from": "0x2910543Af39abA0Cd09dBb2D50200b3E800A63D2",
      "gasPrice": {
        "_hex": "0xcf399b6af"
      },
      "gasLimit": {
        "_hex": "0x5208"
      },
      "to": "0x064907236cc3205e5f60Bb0C5168f1F110835afa",
      "value": {
        "_hex": "0xdf27a2cdf448000"
      },
      "nonce": 1098,
      "data": "0x",
      "r": "0xe14f70bd832a40b454dfc991d5f65355bc5cad6854e11a5533f5d4ac876918f6",
      "s": "0x3112f658988466239fda1b2b78e862ada15ac0af45d47a57ac3450adba644dfa",
      "v": 27,
      "creates": null,
      "raw": "0xf86e82044a850cf399b6af82520894064907236cc3205e5f60bb0c5168f1f110835afa880df27a2cdf448000801ba0e14f70bd832a40b454dfc991d5f65355bc5cad6854e11a5533f5d4ac876918f6a03112f658988466239fda1b2b78e862ada15ac0af45d47a57ac3450adba644dfa",
      "networkId": 0,
      "chainId": 0
    }
  ]
}