{
  "hash": "0x6983f33386edc18eb4f005ae8b5ee002a3a7940dd32edb6054d040dda7f8de46",
  "parentHash": "0xad3203be371233b2ca3cb7120b59793aaff91bef8fde6a0dafca6fa9b522baca",
  "number": 115115,
  "timestamp": 1440051639,
  "nonce": "0x898560ab1293a794",
  "difficulty": 4538482299927,
  "gasLimit": {
    "_hex": "0x2fefd8"
  },
  "gasUsed": {
    "_hex": "0x5208"
  },
  "miner": "0xe6A7a1d47ff21B6321162AEA7C6CB457D5476Bca",
  "extraData": "0x476574682f76312e302e312d38326566323666362f6c696e75782f676f312e34",
  "transactions": [
    {
      "hash": "0x7f313c991ddaab48fd097f0e451564676cdd9873ca00b95bad3ab71abaa54bb5",
      "blockHash": "0x6983f33386edc18eb4f005ae8b5ee002a3a7940dd32edb6054d040dda7f8de46",
      "blockNumber": 115115,
      "transactionIndex": 0,
      "confirmations": null,
      "from": "0xa9f5E7bf6Cbf6fEc55B30850Eb492b47A376d050",
      "gasPrice": {
        "_hex": "0xdec8fe1d9"
      },
      "gasLimit": {
        "_hex": "0x5208"
      },
      "to": "0x32Be343B94f860124dC4fEe278FDCBD38C102D88",
      "value": {
        "_hex": "0x8e3f08a018f470000"
      },
      "nonce": 32,
      "data": "0x",
      "r": "0x172bf89a1e6ad690dd48916526573fac00e034733f35bc505e21a66a0d01e579",
      "s": "0x1722d26f4b8ce2e002ebdd2e38dcf0eef0c1743d4a6cf15c9845581c6a9f921c",
      "v": 28,
      "creates": null,
      "raw": "0xf86d20850dec8fe1d98252089432be343b94f860124dc4fee278fdcbd38c102d888908e3f08a018f470000801ca0172bf89a1e6ad690dd48916526573fac00e034733f35bc505e21a66a0d01e579a01722d26f4b8ce2e002ebdd2e38dcf0eef0c1743d4a6cf15c9845581c6a9f921c",
      "networkId": 0,
      "chainId": 0
    }
  ]
}