{
  "hash": "0xd682dc3daaee319426f68995761c91a8fc4577662f23d44a3fdcab6bc691dd12",
  "parentHash": "0x28958d1d9c6c3ff6cdd5ff1c2bd90bee9c1443cb3c6c3cf3340a52cbb569e99e",
  "number": 92642,
  "timestamp": 1439674997,
  "nonce": "0x973da49fb5ca83b9",
  "difficulty": 3566623281354,
  "gasLimit": {
    "_hex": "0x2fefd8"
  },
  "gasUsed": {
    "_hex": "0x5208"
  },
  "miner": "0x77EC9ad4A7E9418774C29415CAaF4Ee0da96eF64",
  "extraData": "0x",
  "transactions": [
    {
      "hash": "0x60bb4b79e38ca556bf502c35d3c9083cd700feee74481c654b2eadb50a07b6d4",
      "blockHash": "0xd682dc3daaee319426f68995761c91a8fc4577662f23d44a3fdcab6bc691dd12",
      "blockNumber": 92642,
      "transactionIndex": 0,
      "confirmations": null,
      "from": "0xC5804Fa54A994b2088fcD6a214E15093d0fc3b64",
      "gasPrice": {
        "_hex": "0xd7d40ace3"
      },
      "gasLimit": {
        "_hex": "0x15f90"
      },
      "to": "0x1e0f112F61045F41ba9213CD9B070Bd92356EC8C",
      "value": {
        "_hex": "0x2386f26fc10000"
      },
      "nonce": 0,
      "data": "0x",
      "r": "0x85c46b643065cc593a5386b210f3d728266a232c8f149762bfff335d94fb2242",
      "s": "0x58f1b68957b6717ab9d0e814ee0d79018d883429279347716e30673c9130ce34",
      "v": 28,
      "creates": null,
      "raw": "0xf86c80850d7d40ace383015f90941e0f112f61045f41ba9213cd9b070bd92356ec8c872386f26fc10000801ca085c46b643065cc593a5386b210f3d728266a232c8f149762bfff335d94fb2242a058f1b68957b6717ab9d0e814ee0d79018d883429279347716e30673c9130ce34",
      "networkId": 0,
      "chainId": 0
    }
  ]
}