{
  "hash": "0x469d5c36a53bf94f724da3c5ed3252453867b7470feb648e84055ae8ec0c2cb4",
  "parentHash": "0x8a5b6737e4646ce950a68178ec3c3a7fb257c109380ec684fa560354db1c5a1f",
  "number": 50438,
  "timestamp": 1438989286,
  "nonce": "0xacdc7306d44991d3",
  "difficulty": 1506008584476,
  "gasLimit": {
    "_hex": "0x62bad"
  },
  "gasUsed": {
    "_hex": "0x15f90"
  },
  "miner": "0xEF247E639d49461D25F57e9362CadE3120910Ce0",
  "extraData": "0x476574682f76312e302e312f6c696e75782f676f312e342e32",
  "transactions": [
    {
      "hash": "0xbe74d4c2d02567478bc8fc17b9e44d4fef03f08dd2416adccb799147dc571a6c",
      "blockHash": "0x469d5c36a53bf94f724da3c5ed3252453867b7470feb648e84055ae8ec0c2cb4",
      "blockNumber": 50438,
      "transactionIndex": 0,
      "confirmations": null,
      "from": "0x17580B766f7453525ca4C6A88b01b50570EA088C",
      "gasPrice": {
        "_hex": "0xdce375430"
      },
      "gasLimit": {
        "_hex": "0x15f90"
      },
      "to": "0x6e38A457C722C6011B2dfa06d49240e797844d66",
      "value": {
        "_hex": "0x0"
      },
      "nonce": 3,
      "data": "0xf3fe12c9000000000000000000000000000000000000000000000000000000000000002000000000000000000000000000000000000000000000000000000000000000204a6574206265616d732063616e2774206d656c7420737465656c206675656c2e",
      "r": "0x97b82b66784c0b4700e947abd73e521d71d91f3b60f7eea0bce8d7ead3a022a2",
      "s": "0x36d9821d1f5a4fad44a989a0cd886b266aee2c725254ebfbb46bbed3c8c6b5b8",
      "v": 28,
      "creates": null,
      "raw": "0xf8ca03850dce37543083015f90946e38a457c722c6011b2dfa06d49240e797844d6680b864f3fe12c9000000000000000000000000000000000000000000000000000000000000002000000000000000000000000000000000000000000000000000000000000000204a6574206265616d732063616e2774206d656c7420737465656c206675656c2e1ca097b82b66784c0b4700e947abd73e521d71d91f3b60f7eea0bce8d7ead3a022a2a036d9821d1f5a4fad44a989a0cd886b266aee2c725254ebfbb46bbed3c8c6b5b8",
      "networkId": 0,
      "chainId": 0
    }
  ]
}