{
  "hash": "0xa6818cebd2d59cf137aaa72d230de11a244496d0a3efb33fd3b37698159ca86d",
  "parentHash": "0x03e3b6341ebace0d4e493c875333b74dd1244e43ab6f8aaaaa804884c4991c90",
  "number": 57921,
  "timestamp": 1439111924,
  "nonce": "0x9a0f1029f4f00623",
  "difficulty": 1727636675412,
  "gasLimit": {
    "_hex": "0x2fefd8"
  },
  "gasUsed": {
    "_hex": "0x5208"
  },
  "miner": "0xC49418429e58989172a4ACE0bab0cB8D3F00F97f",
  "extraData": "0x476574682f76312e302e312f6c696e75782f676f312e342e32",
  "transactions": [
    {
      "hash": "0xefc8ad65d04d5752dbc09e56d755ee0c0022dfbe069fede994e1788fa92f4a24",
      "blockHash": "0xa6818cebd2d59cf137aaa72d230de11a244496d0a3efb33fd3b37698159ca86d",
      "blockNumber": 57921,
      "transactionIndex": 0,
      "confirmations": null,
      "from": "0xdF8510793EEE811c2Dab1c93C6F4473f30FbEF5B",
      "gasPrice": {
        "_hex": "0xd7d40ace3"
      },
      "gasLimit": {
        "_hex": "0x7530"
      },
      "to": "0x32ae73c53E10568A40e6F14f4f606271B013D4E3",
      "value": {
        "_hex": "0x2386f26fc10000"
      },
      "nonce": 0,
      "data": "0x",
      "r": "0xc6419413754b252e6639cda2a66e1b55fbb6af479b201fe8998f9f16a375004e",
      "s": "0x5f9c623ed7d96a64c896c84041f4a537ab0b783900a59a6b62519a4b0ff5bf85",
      "v": 28,
      "creates": null,
      "raw": "0xf86b80850d7d40ace38275309432ae73c53e10568a40e6f14f4f606271b013d4e3872386f26fc10000801ca0c6419413754b252e6639cda2a66e1b55fbb6af479b201fe8998f9f16a375004ea05f9c623ed7d96a64c896c84041f4a537ab0b783900a59a6b62519a4b0ff5bf85",
      "networkId": 0,
      "chainId": 0
    }
  ]
}