{
  "hash": "0x896770ae769a769564919d9f414b2a399354b37b4eab3548f376dfc5b97f69d2",
  "parentHash": "0x1d64b85f780f416010e3294a85288e0a1bffff3adffb97a5793a2033b9ea92c6",
  "number": 119388,
  "timestamp": 1440141926,
  "nonce": "0xe130fdf6f96aca9b",
  "difficulty": 4420285873839,
  "gasLimit": {
    "_hex": "0x2fefd8"
  },
  "gasUsed": {
    "_hex": "0x1ec30"
  },
  "miner": "0x007f7f58D3eb5b7510A301eCC749FC1fCDDBE14D",
  "extraData": "0x",
  "transactions": [
    {
      "hash": "0xd634f3702f3bd602f61e559df9d37acebf5782cf1164103cdd1787b85d5e38c5",
      "blockHash": "0x896770ae769a769564919d9f414b2a399354b37b4eab3548f376dfc5b97f69d2",
      "blockNumber": 119388,
      "transactionIndex": 0,
      "confirmations": null,
      "from": "0x6964b95BF8BA16b837e2f3Ae8dA7D299553eC1f7",
      "gasPrice": {
        "_hex": "0xba43b7400"
      },
      "gasLimit": {
        "_hex": "0x5208"
      },
      "to": "0x32Be343B94f860124dC4fEe278FDCBD38C102D88",
      "value": {
        "_hex": "0x15f3a4fa5eb6e6000"
      },
      "nonce": 12,
      "data": "0x",
      "r": "0xf88e8982e07d1da6a0449228dd6150cc6d2481f0ca39d079634b3a989bb52d44",
      "s": "0x3f6a2dc5066cc38f9dc91f0ab10f1cdcbdc658394c95660682c60066cd958158",
      "v": 28,
      "creates": null,
      "raw": "0xf86d0c850ba43b74008252089432be343b94f860124dc4fee278fdcbd38c102d8889015f3a4fa5eb6e6000801ca0f88e8982e07d1da6a0449228dd6150cc6d2481f0ca39d079634b3a989bb52d44a03f6a2dc5066cc38f9dc91f0ab10f1cdcbdc658394c95660682c60066cd958158",
      "networkId": 0,
      "chainId": 0
    },
    {
      "hash": "0xc22d22fcf47259927e53466c926c4875ed261d323912b47cc8eba75297785151",
      "blockHash": "0x896770ae769a769564919d9f414b2a399354b37b4eab3548f376dfc5b97f69d2",
      "blockNumber": 119388,
      "transactionIndex": 1,
      "confirmations": null,
      "from": "0xa70a9a7040d542C632D8e0bE7c5513A8a5Bbc752",
      "gasPrice": {
        "_hex": "0xba43b7400"
      },
      "gasLimit": {
        "_hex": "0x5208"
      },
      "to": "0x32Be343B94f860124dC4fEe278FDCBD38C102D88",
      "value": {
        "_hex": "0x45727d62f9028000"
      },
      "nonce": 321,
      "data": "0x",
      "r": "0xe7a31a18a1f627d6e2ed34b2a9c7665fd73b2bab201e2a37d526cb7bd8223c66",
      "s": "0x0d3412593b38102f4bc95e7bb7ca2c3a364fc4c96481d7204c88c4d924b3eb0a",
      "v": 28,
      "creates": null,
      "raw": "0xf86e820141850ba43b74008252089432be343b94f860124dc4fee278fdcbd38c102d888845727d62f9028000801ca0e7a31a18a1f627d6e2ed34b2a9c7665fd73b2bab201e2a37d526cb7bd8223c66a00d3412593b38102f4bc95e7bb7ca2c3a364fc4c96481d7204c88c4d924b3eb0a",
      "networkId": 0,
      "chainId": 0
    },
    {
      "hash": "0x342c165db433d031e16597d746557868a69262da63ed1fbafe34d1c9929df2df",
      "blockHash": "0x896770ae769a769564919d9f414b2a399354b37b4eab3548f376dfc5b97f69d2",
      "blockNumber": 119388,
      "transactionIndex": 2,
      "confirmations": null,
      "from": "0xB9970A5666f5b3272552160B85332F0e21653a76",
      "gasPrice": {
        "_hex": "0xba43b7400"
      },
      "gasLimit": {
        "_hex": "0x15f90"
      },
      "to": "0x23f2D0fd3B4C98Fb1698564deB4898275E2e831f",
      "value": {
        "_hex": "0x58d15e176280000"
      },
      "nonce": 5,
      "data": "0x",
      "r": "0x67f9080727cb8a1cfcd4af8b411633d8cb6f1ab2fa8770e8190488698738e407",
      "s": "0x0ad00f7e8713c7893e87287102b6f740687d5bff254697fc432ccdd8086965e8",
      "v": 28,
      "creates": null,
      "raw": "0xf86d05850ba43b740083015f909423f2d0fd3b4c98fb1698564deb4898275e2e831f88058d15e176280000801ca067f9080727cb8a1cfcd4af8b411633d8cb6f1ab2fa8770e8190488698738e407a00ad00f7e8713c7893e87287102b6f740687d5bff254697fc432ccdd8086965e8",
      "networkId": 0,
      "chainId": 0
    },
    {
      "hash": "0x89a6b7ab335dedf9b054a4fc219ba6d275c12a35a37a1366623ec3dcf7aca88d",
      "blockHash": "0x896770ae769a769564919d9f414b2a399354b37b4eab3548f376dfc5b97f69d2",
      "blockNumber": 119388,
      "transactionIndex": 3,
      "confirmations": null,
      "from": "0x18883522e2679aA9b41E0fA688F20c3802897525",
      "gasPrice": {
        "_hex": "0xba43b7400"
      },
      "gasLimit": {
        "_hex": "0x5208"
      },
      "to": "0x32Be343B94f860124dC4fEe278FDCBD38C102D88",
      "value": {
        "_hex": "0x49931d4c53737000"
      },
      "nonce": 12,
      "data": "0x",
      "r": "0xee34ef277572de0c0835fa24c1d614cc256a7efc862062482fd9af776d359fd6",
      "s": "0x47946f90d8cad4995bcf6b01f2abca78ae98cd1495008155ba5ef380e6e45316",
      "v": 27,
      "creates": null,
      "raw": "0xf86c0c850ba43b74008252089432be343b94f860124dc4fee278fdcbd38c102d888849931d4c53737000801ba0ee34ef277572de0c0835fa24c1d614cc256a7efc862062482fd9af776d359fd6a047946f90d8cad4995bcf6b01f2abca78ae98cd1495008155ba5ef380e6e45316",
      "networkId": 0,
      "chainId": 0
    },
    {
      "hash": "0x5d369cea77f5f4e5c9b1b4f3e0d06e47660d45ea75d0f6e828d066b240d6f70e",
      "blockHash": "0x896770ae769a769564919d9f414b2a399354b37b4eab3548f376dfc5b97f69d2",
      "blockNumber": 119388,
      "transactionIndex": 4,
      "confirmations": null,
      "from": "0x9FA0960220d2d51D54f755501E391Da140c2EF63",
      "gasPrice": {
        "_hex": "0xba43b7400"
      },
      "gasLimit": {
        "_hex": "0x5208"
      },
      "to": "0x32Be343B94f860124dC4fEe278FDCBD38C102D88",
      "value": {
        "_hex": "0x31e300f5099c1800"
      },
      "nonce": 10,
      "data": "0x",
      "r": "0xefb1ee740253d2f8dea060390f2ad5f1ed92f14f92c2d4473bebbc6923680356",
      "s": "0x4cc962bfb54df29612862b71e9e2a4e8c2fcca50297ee2520e6d71279a5fd5ba",
      "v": 28,
      "creates": null,
      "raw": "0xf86c0a850ba43b74008252089432be343b94f860124dc4fee278fdcbd38c102d888831e300f5099c1800801ca0efb1ee740253d2f8dea060390f2ad5f1ed92f14f92c2d4473bebbc6923680356a04cc962bfb54df29612862b71e9e2a4e8c2fcca50297ee2520e6d71279a5fd5ba",
      "networkId": 0,
      "chainId": 0
    },
    {
      "hash": "0x603da6b973f2858a1154597ef95a00074b63c5394edf4f38a73853e24244d71b",
      "blockHash": "0x896770ae769a769564919d9f414b2a399354b37b4eab3548f376dfc5b97f69d2",
      "blockNumber": 119388,
      "transactionIndex": 5,
      "confirmations": null,
      "from": "0xe6A7a1d47ff21B6321162AEA7C6CB457D5476Bca",
      "gasPrice": {
        "_hex": "0xba43b7400"
      },
      "gasLimit": {
        "_hex": "0x55f0"
      },
      "to": "0x52191276589069F70F0E46bcCc718d793d1Aa1D0",
      "value": {
        "_hex": "0x1030566c9d2e177e0"
      },
      "nonce": 6357,
      "data": "0x",
      "r": "0x61d9df955cc42029eb5ec3eaf1056a4192d4e0b37c795173cc161500ca1e7913",
      "s": "0x173153079e3633bc39852bba361dad4394c9571c96e5af82434b3dd64274780a",
      "v": 28,
      "creates": null,
      "raw": "0xf86f8218d5850ba43b74008255f09452191276589069f70f0e46bccc718d793d1aa1d08901030566c9d2e177e0801ca061d9df955cc42029eb5ec3eaf1056a4192d4e0b37c795173cc161500ca1e7913a0173153079e3633bc39852bba361dad4394c9571c96e5af82434b3dd64274780a",
      "networkId": 0,
      "chainId": 0
    }
  ]
}