{
  "hash": "0xe784d2144eb4bce0de0c1e71e0cd152cfbfdacb670172b5d771f2cc5b58fb04e",
  "parentHash": "0x9c5284402f7f24f7161c5e01e73d67f38672d900b21679c80eab238c630a1d68",
  "number": 72227,
  "timestamp": 1439349382,
  "nonce": "0x94abc6a803d03d83",
  "difficulty": 2173838096884,
  "gasLimit": {
    "_hex": "0x2fefd8"
  },
  "gasUsed": {
    "_hex": "0x93b2"
  },
  "miner": "0xa50ec0D39fa913E62f1Bae7074E6F36caA71855b",
  "extraData": "0x",
  "transactions": [
    {
      "hash": "0x4fbee666f139308e71d44e911cd5d629721e9901977fbcc70660b35b06a7daef",
      "blockHash": "0xe784d2144eb4bce0de0c1e71e0cd152cfbfdacb670172b5d771f2cc5b58fb04e",
      "blockNumber": 72227,
      "transactionIndex": 0,
      "confirmations": null,
      "from": "0x17580B766f7453525ca4C6A88b01b50570EA088C",
      "gasPrice": {
        "_hex": "0xced50046c"
      },
      "gasLimit": {
        "_hex": "0x61a80"
      },
      "to": "0x5Fe5B7546D1628f7348B023A0393de1FC825A4fD",
      "value": {
        "_hex": "0x8ac7230489e80000"
      },
      "nonce": 396,
      "data": "0xb595b8b50000000000000000000000000000000000000000000000000000000000000000",
      "r": "0xde8b1664ea8683dbae9c05b49bdf6501309734e53dd0797aa3d6919fb53323e3",
      "s": "0x4aa26b2c7ff8881e44612f9c1cb4b865411eaf9ceb8f2cef58eb0e7242e904d4",
      "v": 27,
      "creates": null,
      "raw": "0xf89382018c850ced50046c83061a80945fe5b7546d1628f7348b023a0393de1fc825a4fd888ac7230489e80000a4b595b8b500000000000000000000000000000000000000000000000000000000000000001ba0de8b1664ea8683dbae9c05b49bdf6501309734e53dd0797aa3d6919fb53323e3a04aa26b2c7ff8881e44612f9c1cb4b865411eaf9ceb8f2cef58eb0e7242e904d4",
      "networkId": 0,
      "chainId": 0
    }
  ]
}