{
  "hash": "0x0c5c00897a7767e43b4f6a8d99f60ca44481443e08201e2abb1a3361790c696f",
  "parentHash": "0x66d1fdbad706cde6d8ec8de7d53c2c28240e246c18ccccf80dc2f82de19c5eb7",
  "number": 116182,
  "timestamp": 1440069747,
  "nonce": "0xda91bd0308b90123",
  "difficulty": 4589155105738,
  "gasLimit": {
    "_hex": "0x2fefd8"
  },
  "gasUsed": {
    "_hex": "0x5208"
  },
  "miner": "0xe6A7a1d47ff21B6321162AEA7C6CB457D5476Bca",
  "extraData": "0x476574682f76312e302e312d38326566323666362f6c696e75782f676f312e34",
  "transactions": [
    {
      "hash": "0x8dfff90a04619d9c846b86b6360ecff6aa197b9fd69e6a7a153a992923171d67",
      "blockHash": "0x0c5c00897a7767e43b4f6a8d99f60ca44481443e08201e2abb1a3361790c696f",
      "blockNumber": 116182,
      "transactionIndex": 0,
      "confirmations": null,
      "from": "0xA1623430350C5df1b52B0b57483A5bb45d1796Da",
      "gasPrice": {
        "_hex": "0xce764f476"
      },
      "gasLimit": {
        "_hex": "0x7530"
      },
      "to": "0xf2881e3e520bF84469Fa00a56449D357FB1af54A",
      "value": {
        "_hex": "0x271e3630cca1e0000"
      },
      "nonce": 13,
      "data": "0x",
      "r": "0xa453fdf473656f9e388eeeedf4ae202a83a8adc7d2ccb879bce9d0f68e0c8812",
      "s": "0x503c5de714d78d21ce4ed443d62f949549064daee2a86d7f297dc6181b1739b9",
      "v": 27,
      "creates": null,
      "raw": "0xf86d0d850ce764f47682753094f2881e3e520bf84469fa00a56449d357fb1af54a890271e3630cca1e0000801ba0a453fdf473656f9e388eeeedf4ae202a83a8adc7d2ccb879bce9d0f68e0c8812a0503c5de714d78d21ce4ed443d62f949549064daee2a86d7f297dc6181b1739b9",
      "networkId": 0,
      "chainId": 0
    }
  ]
}