{
  "hash": "0xffca888a3b932bbb0ada4cdd716d5c4d05ea235e07098d7284ecc4d859caf330",
  "parentHash": "0xa3d1d1491f00a8edcb1f3cdcb5e3d3b259df2fb4d3cecb9cda6121294a2010ce",
  "number": 51517,
  "timestamp": 1439006170,
  "nonce": "0xeb6d08caf7f08063",
  "difficulty": 1568095067138,
  "gasLimit": {
    "_hex": "0xba274"
  },
  "gasUsed": {
    "_hex": "0x680bd"
  },
  "miner": "0xf927a40C8B7F6E07c5af7FA2155B4864a4112B13",
  "extraData": "0x476574682f76312e302e312f6c696e75782f676f312e342e32",
  "transactions": [
    {
      "hash": "0x4caccae7ab042c5cc2c6a6107e24143b1906e5734087f9efed6773298f6746f3",
      "blockHash": "0xffca888a3b932bbb0ada4cdd716d5c4d05ea235e07098d7284ecc4d859caf330",
      "blockNumber": 51517,
      "transactionIndex": 0,
      "confirmations": null,
      "from": "0x7C4401aE98F12eF6de39aE24cf9fc51f80EBa16B",
      "gasPrice": {
        "_hex": "0xd7d274acb"
      },
      "gasLimit": {
        "_hex": "0x7a120"
      },
      "to": "0xA327075af2a223A1C83a36aDa1126afE7430f955",
      "value": {
        "_hex": "0x8ac7230489e80000"
      },
      "nonce": 3,
      "data": "0x",
      "r": "0xd9fb78cd2f5afadd444b9f9d07ac708ba3ebacccbb88b6cd4a5084053d779405",
      "s": "0x6d5badf1212766ab025c9dde02fdcaef47f59b8b15c78b26d1e469d9756e994f",
      "v": 27,
      "creates": null,
      "raw": "0xf86d03850d7d274acb8307a12094a327075af2a223a1c83a36ada1126afe7430f955888ac7230489e80000801ba0d9fb78cd2f5afadd444b9f9d07ac708ba3ebacccbb88b6cd4a5084053d779405a06d5badf1212766ab025c9dde02fdcaef47f59b8b15c78b26d1e469d9756e994f",
      "networkId": 0,
      "chainId": 0
    },
    {
      "hash": "0xae0c566b3d2b1bf3583adae4f35b69b4e1c2201af6ef5da020cee4d8fd58c0ce",
      "blockHash": "0xffca888a3b932bbb0ada4cdd716d5c4d05ea235e07098d7284ecc4d859caf330",
      "blockNumber": 51517,
      "transactionIndex": 1,
      "confirmations": null,
      "from": "0xBAD4425E171c3e72975eB46ac0A015DB315a5D8f",
      "gasPrice": {
        "_hex": "0xd70f66086"
      },
      "gasLimit": {
        "_hex": "0x15f90"
      },
      "to": "0x1c7214DE5162a5606CF124ed3A8c3556b1899804",
      "value": {
        "_hex": "0x1043561a8829300000"
      },
      "nonce": 3,
      "data": "0x454e433933464b3330",
      "r": "0x89b86211ee886aaf16267ad18d72a8edf60ecfdb5d97feb6fdcbdea8078ba956",
      "s": "0x040df7a882f4b64b6d58aef4f2833d1101fcec6c7fe06232a7434b60223c0b55",
      "v": 27,
      "creates": null,
      "raw": "0xf87703850d70f6608683015f90941c7214de5162a5606cf124ed3a8c3556b1899804891043561a882930000089454e433933464b33301ba089b86211ee886aaf16267ad18d72a8edf60ecfdb5d97feb6fdcbdea8078ba956a0040df7a882f4b64b6d58aef4f2833d1101fcec6c7fe06232a7434b60223c0b55",
      "networkId": 0,
      "chainId": 0
    },
    {
      "hash": "0xf5d1434450ef205a78972d6582f899c49300b0e651759fb94b0096a063d1caa5",
      "blockHash": "0xffca888a3b932bbb0ada4cdd716d5c4d05ea235e07098d7284ecc4d859caf330",
      "blockNumber": 51517,
      "transactionIndex": 2,
      "confirmations": null,
      "from": "0x120A270bbC009644e35F0bB6ab13f95b8199c4ad",
      "gasPrice": {
        "_hex": "0xd5dd53a34"
      },
      "gasLimit": {
        "_hex": "0x15f90"
      },
      "to": "0xCA092A957744f6385B1aee5dC694143E8A06F805",
      "value": {
        "_hex": "0x15bf4440b1cfc00"
      },
      "nonce": 5,
      "data": "0x",
      "r": "0xe59e136173f245ed1666e329b5888530dc31b8eaf799a0102c50673f101925e5",
      "s": "0x19f420ec11b4c657b4933b0e7742ce3fb01cb079dc8e8ebc06b9b04835326ff2",
      "v": 27,
      "creates": null,
      "raw": "0xf86d05850d5dd53a3483015f9094ca092a957744f6385b1aee5dc694143e8a06f80588015bf4440b1cfc00801ba0e59e136173f245ed1666e329b5888530dc31b8eaf799a0102c50673f101925e5a019f420ec11b4c657b4933b0e7742ce3fb01cb079dc8e8ebc06b9b04835326ff2",
      "networkId": 0,
      "chainId": 0
    },
    {
      "hash": "0x133cd412040623f900b0bf50b42a3fcfc4b3ecab62778c7ae86158d29f300e42",
      "blockHash": "0xffca888a3b932bbb0ada4cdd716d5c4d05ea235e07098d7284ecc4d859caf330",
      "blockNumber": 51517,
      "transactionIndex": 3,
      "confirmations": null,
      "from": "0xAdF1aCFe99BC8C14B304c8D905Ba27657B8A7Bc4",
      "gasPrice": {
        "_hex": "0xd591aa149"
      },
      "gasLimit": {
        "_hex": "0x15f90"
      },
      "to": "0x772839bE0F739D21E2CB761CDA4B3F49A6502481",
      "value": {
        "_hex": "0x56bc75e2d63100000"
      },
      "nonce": 3,
      "data": "0x",
      "r": "0x7eac97ff8dc178e456420a1e073c676cbed9ce6ab511801c65b12a2e4a343a70",
      "s": "0x2b7362a4d5f3ab7a76d256c6bffbe46744b423c480d18834d2867ad260aec89e",
      "v": 28,
      "creates": null,
      "raw": "0xf86e03850d591aa14983015f9094772839be0f739d21e2cb761cda4b3f49a650248189056bc75e2d63100000801ca07eac97ff8dc178e456420a1e073c676cbed9ce6ab511801c65b12a2e4a343a70a02b7362a4d5f3ab7a76d256c6bffbe46744b423c480d18834d2867ad260aec89e",
      "networkId": 0,
      "chainId": 0
    }
  ]
}