{
  "hash": "0xfd4257870a564b320eade9db633f7ac2bcb4ae495d0b02c4754051ebe14f799e",
  "parentHash": "0x33f2fb5221d958081d99c48da9ab21f48fa7417476d850f7e9336cf0c3e6a5d4",
  "number": 116512,
  "timestamp": 1440075442,
  "nonce": "0x60130674696ff122",
  "difficulty": 4562164672508,
  "gasLimit": {
    "_hex": "0x2fefd8"
  },
  "gasUsed": {
    "_hex": "0x5208"
  },
  "miner": "0xe6A7a1d47ff21B6321162AEA7C6CB457D5476Bca",
  "extraData": "0x476574682f76312e302e312d38326566323666362f6c696e75782f676f312e34",
  "transactions": [
    {
      "hash": "0xc189dd7e5c76c37b99e2e25deddcc7608efd10c5ebf5e791d2c79a28d18c4cf2",
      "blockHash": "0xfd4257870a564b320eade9db633f7ac2bcb4ae495d0b02c4754051ebe14f799e",
      "blockNumber": 116512,
      "transactionIndex": 0,
      "confirmations": null,
      "from": "0x32Be343B94f860124dC4fEe278FDCBD38C102D88",
      "gasPrice": {
        "_hex": "0xd435cd85d"
      },
      "gasLimit": {
        "_hex": "0x5208"
      },
      "to": "0x3D31A7CdbF1B9952C1c4d567b97c54fc354E6A7B",
      "value": {
        "_hex": "0x8aa39c121a270000"
      },
      "nonce": 1467,
      "data": "0x",
      "r": "0x1725387fe151f7db4d454740f788c99858862a9d4f9213c715afdf04183159ef",
      "s": "0x1642ecd1946f6ebe2a348e5183ef6141c6c0968f1bbc86f26f0b32ed9c4120df",
      "v": 28,
      "creates": null,
      "raw": "0xf86e8205bb850d435cd85d825208943d31a7cdbf1b9952c1c4d567b97c54fc354e6a7b888aa39c121a270000801ca01725387fe151f7db4d454740f788c99858862a9d4f9213c715afdf04183159efa01642ecd1946f6ebe2a348e5183ef6141c6c0968f1bbc86f26f0b32ed9c4120df",
      "networkId": 0,
      "chainId": 0
    }
  ]
}