{
  "hash": "0x7c3dd08a10445964d7ba643bb12dc45b0ebdc41bca4ed610e94e55aa0cdd9d9b",
  "parentHash": "0x7c30a4f6f535b59ea6bdcb1348a2aeffc232eeb68454bac323e8185e069d89f7",
  "number": 64380,
  "timestamp": 1439219689,
  "nonce": "0xf246290014e5ac58",
  "difficulty": 1878468995575,
  "gasLimit": {
    "_hex": "0x2fefd8"
  },
  "gasUsed": {
    "_hex": "0x5208"
  },
  "miner": "0x39A1BB80a741bF5EC39FB9BE59408Fa0F418fFBf",
  "extraData": "0x476574682f76312e302e312f77696e646f77732f676f312e342e32",
  "transactions": [
    {
      "hash": "0x8fe3353e940a63731c26ceb832dd9147104191d1f70099d4f0c24256afda7b3b",
      "blockHash": "0x7c3dd08a10445964d7ba643bb12dc45b0ebdc41bca4ed610e94e55aa0cdd9d9b",
      "blockNumber": 64380,
      "transactionIndex": 0,
      "confirmations": null,
      "from": "0x27e806e70622d2864e1B1f4426D72FFb0457C83a",
      "gasPrice": {
        "_hex": "0xd14e1f6cc"
      },
      "gasLimit": {
        "_hex": "0x5208"
      },
      "to": "0x32Be343B94f860124dC4fEe278FDCBD38C102D88",
      "value": {
        "_hex": "0x8f503c2f6ff4f000"
      },
      "nonce": 5,
      "data": "0x",
      "r": "0x18e09d940f66cdd8e095e6f077e45b3eed9bb1dde38920af1eb874ab5b6be916",
      "s": "0x5f0643bfbafbace32721a014b22c76b47d8c6f57564c2dfbd1da85184709e672",
      "v": 27,
      "creates": null,
      "raw": "0xf86c05850d14e1f6cc8252089432be343b94f860124dc4fee278fdcbd38c102d88888f503c2f6ff4f000801ba018e09d940f66cdd8e095e6f077e45b3eed9bb1dde38920af1eb874ab5b6be916a05f0643bfbafbace32721a014b22c76b47d8c6f57564c2dfbd1da85184709e672",
      "networkId": 0,
      "chainId": 0
    }
  ]
}