{
  "hash": "0x4111ea71504eb2de7215d28794a3a31f4bcf24a4c01f55e7a03d388558e428ad",
  "parentHash": "0x741740af98db158db1ed079dbd98e231e766d199e7b63eaa0864030d2a63af0a",
  "number": 75810,
  "timestamp": 1439409623,
  "nonce": "0x7566e3701344a173",
  "difficulty": 2227699708531,
  "gasLimit": {
    "_hex": "0x2fefd8"
  },
  "gasUsed": {
    "_hex": "0x8f9f"
  },
  "miner": "0xF2d2AfF1320476cb8C6b607199D23175cc595693",
  "extraData": "0x476574682f76312e302e312f77696e646f77732f676f312e342e32",
  "transactions": [
    {
      "hash": "0xf79a3edb4d457f63b2f8bc3cd977b3db43d533d4224a9c49582bcac851156942",
      "blockHash": "0x4111ea71504eb2de7215d28794a3a31f4bcf24a4c01f55e7a03d388558e428ad",
      "blockNumber": 75810,
      "transactionIndex": 0,
      "confirmations": null,
      "from": "0x326Be8F71bFb0379f989aAB1CC1fE37f0a771f60",
      "gasPrice": {
        "_hex": "0x114b4e8ceb0"
      },
      "gasLimit": {
        "_hex": "0x493e0"
      },
      "to": "0xD79B4C6791784184e2755B2fC1659eaaB0f80456",
      "value": {
        "_hex": "0xde0b6b3a7640000"
      },
      "nonce": 113,
      "data": "0x8d21618600000000000000000000000000000000000000000000000000000000000000804484c983e8139f36a68839b127e693748edefb9fb728697ca63b16937b8ce55a",
      "r": "0x06cd10db16880a45424f9319c860c3b21caa3f4be1fc3aea3257b46d3e511a51",
      "s": "0x79dafecff24c0cd4873bcbb90ce63dbc71499154f8b31da73d92723ecdcac3ba",
      "v": 28,
      "creates": null,
      "raw": "0xf8b371860114b4e8ceb0830493e094d79b4c6791784184e2755b2fc1659eaab0f80456880de0b6b3a7640000b8448d21618600000000000000000000000000000000000000000000000000000000000000804484c983e8139f36a68839b127e693748edefb9fb728697ca63b16937b8ce55a1ca006cd10db16880a45424f9319c860c3b21caa3f4be1fc3aea3257b46d3e511a51a079dafecff24c0cd4873bcbb90ce63dbc71499154f8b31da73d92723ecdcac3ba",
      "networkId": 0,
      "chainId": 0
    }
  ]
}