{
  "hash": "0xc9d7ae9a493d94414451d8ba8424b17bf5fc79ee0f000cb1d6187bbb9e0dcf58",
  "parentHash": "0xf90d4cf6e92676b8084164881f991e41ad2ef912aa8bebc860df8c52532e3a5c",
  "number": 108233,
  "timestamp": 1439936828,
  "nonce": "0x7f775c5a36de9e26",
  "difficulty": 4346920848075,
  "gasLimit": {
    "_hex": "0x2fefd8"
  },
  "gasUsed": {
    "_hex": "0x261ce"
  },
  "miner": "0xe6A7a1d47ff21B6321162AEA7C6CB457D5476Bca",
  "extraData": "0x476574682f76312e302e312d38326566323666362f6c696e75782f676f312e34",
  "transactions": [
    {
      "hash": "0xb4decdac44c24a9ee8024dd68de4e46886f498416dfc62195e18f4e42ef2f884",
      "blockHash": "0xc9d7ae9a493d94414451d8ba8424b17bf5fc79ee0f000cb1d6187bbb9e0dcf58",
      "blockNumber": 108233,
      "transactionIndex": 0,
      "confirmations": null,
      "from": "0xeD3Fd00D62A795a3A07c71B4f4D94003F92f8A86",
      "gasPrice": {
        "_hex": "0xd763b72e8"
      },
      "gasLimit": {
        "_hex": "0x249f0"
      },
      "to": "0xE28e72FCf78647ADCe1F1252F240bbfaebD63BcC",
      "value": {
        "_hex": "0x8ac7230489e80000"
      },
      "nonce": 0,
      "data": "0x45466f3a",
      "r": "0x34c455533bbfd1f2e82f45eaba09e8faee24637d3abd63a12ec0a048d79e136c",
      "s": "0x52a59b1605281086d64045237131995bb2abbc46d6da604283dc90e2cda11b6e",
      "v": 27,
      "creates": null,
      "raw": "0xf87180850d763b72e8830249f094e28e72fcf78647adce1f1252f240bbfaebd63bcc888ac7230489e800008445466f3a1ba034c455533bbfd1f2e82f45eaba09e8faee24637d3abd63a12ec0a048d79e136ca052a59b1605281086d64045237131995bb2abbc46d6da604283dc90e2cda11b6e",
      "networkId": 0,
      "chainId": 0
    },
    {
      "hash": "0xb091bcc57c2dd25a84c01ce874f60e65c8d765d2b75d88dd1038a22f33ffb1df",
      "blockHash": "0xc9d7ae9a493d94414451d8ba8424b17bf5fc79ee0f000cb1d6187bbb9e0dcf58",
      "blockNumber": 108233,
      "transactionIndex": 1,
      "confirmations": null,
      "from": "0xFBb1b73C4f0BDa4f67dcA266ce6Ef42f520fBB98",
      "gasPrice": {
        "_hex": "0xcbcc700bf"
      },
      "gasLimit": {
        "_hex": "0x5208"
      },
      "to": "0xab265e840933431739e8BE901b21785AAb7d28bE",
      "value": {
        "_hex": "0x40b7e20bec28000"
      },
      "nonce": 158,
      "data": "0x",
      "r": "0xc3a9bd47041aa7f2730515791267c8dbbcc355798fe4798b1e14a2214e5b1d6b",
      "s": "0x2d292508ffc04db1a4952eebddd3d9830ea9eae679eb4141dfd54564755f156f",
      "v": 27,
      "creates": null,
      "raw": "0xf86d819e850cbcc700bf82520894ab265e840933431739e8be901b21785aab7d28be88040b7e20bec28000801ba0c3a9bd47041aa7f2730515791267c8dbbcc355798fe4798b1e14a2214e5b1d6ba02d292508ffc04db1a4952eebddd3d9830ea9eae679eb4141dfd54564755f156f",
      "networkId": 0,
      "chainId": 0
    },
    {
      "hash": "0x2363059896998c02e6d20c53ae301a0fbfa4fee9948785ddba0ab89776879e9d",
      "blockHash": "0xc9d7ae9a493d94414451d8ba8424b17bf5fc79ee0f000cb1d6187bbb9e0dcf58",
      "blockNumber": 108233,
      "transactionIndex": 2,
      "confirmations": null,
      "from": "0xFBb1b73C4f0BDa4f67dcA266ce6Ef42f520fBB98",
      "gasPrice": {
        "_hex": "0xcbcc700bf"
      },
      "gasLimit": {
        "_hex": "0x5208"
      },
      "to": "0xE87Edfdb05cA2F0d3102C54726f0854CE44144ed",
      "value": {
        "_hex": "0x1e76a2724195c00"
      },
      "nonce": 159,
      "data": "0x",
      "r": "0x5b9d4d1f50e4a09b0038a3d55fe68ef52a809cd06313f3c54f252ca88ab55cf6",
      "s": "0x4550e1233ed34a099aade513028fce4fc997deb5f398458197e5700ea02b5ec1",
      "v": 28,
      "creates": null,
      "raw": "0xf86d819f850cbcc700bf82520894e87edfdb05ca2f0d3102c54726f0854ce44144ed8801e76a2724195c00801ca05b9d4d1f50e4a09b0038a3d55fe68ef52a809cd06313f3c54f252ca88ab55cf6a04550e1233ed34a099aade513028fce4fc997deb5f398458197e5700ea02b5ec1",
      "networkId": 0,
      "chainId": 0
    }
  ]
}