{
  "hash": "0x9c5fd04d8824f99eef2ea799ea8f6fd64832f2e96e453b1fe4c89ccd9eca92a0",
  "parentHash": "0x7c3a75df50588ecee912623e9b3c7a89d740052670e8230bce6bbd9a5eb72c1d",
  "number": 105352,
  "timestamp": 1439886197,
  "nonce": "0x46a7d4e55d95ae64",
  "difficulty": 4350537787292,
  "gasLimit": {
    "_hex": "0x2fefd8"
  },
  "gasUsed": {
    "_hex": "0x5208"
  },
  "miner": "0xe6A7a1d47ff21B6321162AEA7C6CB457D5476Bca",
  "extraData": "0x476574682f76312e302e312d38326566323666362f6c696e75782f676f312e34",
  "transactions": [
    {
      "hash": "0xe755db26e6844115c5cb34a7ea6390f3445753c4b1b12f5977a165dbc4434b13",
      "blockHash": "0x9c5fd04d8824f99eef2ea799ea8f6fd64832f2e96e453b1fe4c89ccd9eca92a0",
      "blockNumber": 105352,
      "transactionIndex": 0,
      "confirmations": null,
      "from": "0x1Fab7BE036A5C6A69b2B05D6e172FF4e5b2a5e6B",
      "gasPrice": {
        "_hex": "0xd7444581e"
      },
      "gasLimit": {
        "_hex": "0x5208"
      },
      "to": "0x32Be343B94f860124dC4fEe278FDCBD38C102D88",
      "value": {
        "_hex": "0x37a42de499efb2000"
      },
      "nonce": 6,
      "data": "0x",
      "r": "0x092b33d4319e35e74ea885def3b919d4071086345a061105ba0a838d1bec6242",
      "s": "0x037ed612104a9555ae5e43059605f27a46b0fe066ee6ee827478feae2f2a4ac1",
      "v": 27,
      "creates": null,
      "raw": "0xf86d06850d7444581e8252089432be343b94f860124dc4fee278fdcbd38c102d8889037a42de499efb2000801ba0092b33d4319e35e74ea885def3b919d4071086345a061105ba0a838d1bec6242a0037ed612104a9555ae5e43059605f27a46b0fe066ee6ee827478feae2f2a4ac1",
      "networkId": 0,
      "chainId": 0
    }
  ]
}