{
  "hash": "0xc49fe79addafb6a377fde4d1e82c356ae2c2757aac3405816bfc9efe5350ab7f",
  "parentHash": "0xd5d3db6d655d8963b579a4972bf0733b5e5758f9ea175aa1393f72fca00848cf",
  "number": 106725,
  "timestamp": 1439909390,
  "nonce": "0x352a797e0644a0cb",
  "difficulty": 4455153765103,
  "gasLimit": {
    "_hex": "0x2fefd8"
  },
  "gasUsed": {
    "_hex": "0xf618"
  },
  "miner": "0xd70c667add50d3d9989Ef58A81a698c09f415Bff",
  "extraData": "0x",
  "transactions": [
    {
      "hash": "0xd3ddffc9adb7551bdc351e19169c957b9d4fdbdc381491ba71693e4fb2f2011d",
      "blockHash": "0xc49fe79addafb6a377fde4d1e82c356ae2c2757aac3405816bfc9efe5350ab7f",
      "blockNumber": 106725,
      "transactionIndex": 0,
      "confirmations": null,
      "from": "0x120A270bbC009644e35F0bB6ab13f95b8199c4ad",
      "gasPrice": {
        "_hex": "0xd6c080d3c"
      },
      "gasLimit": {
        "_hex": "0x15f90"
      },
      "to": "0x9eE2bcfE9d322cFD264b1aa913ff9e2Ca905C204",
      "value": {
        "_hex": "0x28d5f2dcb45ac86400"
      },
      "nonce": 786,
      "data": "0x",
      "r": "0x81932483c3576e392abf15fc510989c9b7f4020c9a04a54014933d4011d8fb8f",
      "s": "0x1f9f0971e5194004c01ab9cc2235c1aa6df598f66bde1dd1b008daea19722233",
      "v": 28,
      "creates": null,
      "raw": "0xf870820312850d6c080d3c83015f90949ee2bcfe9d322cfd264b1aa913ff9e2ca905c2048928d5f2dcb45ac86400801ca081932483c3576e392abf15fc510989c9b7f4020c9a04a54014933d4011d8fb8fa01f9f0971e5194004c01ab9cc2235c1aa6df598f66bde1dd1b008daea19722233",
      "networkId": 0,
      "chainId": 0
    },
    {
      "hash": "0x582f5d4982865d84f590b7147f3e6087b32004da672395edb0408fe8d43b4c5b",
      "blockHash": "0xc49fe79addafb6a377fde4d1e82c356ae2c2757aac3405816bfc9efe5350ab7f",
      "blockNumber": 106725,
      "transactionIndex": 1,
      "confirmations": null,
      "from": "0xb1abce2918E21ddb93AA452731a12672A3d9F75a",
      "gasPrice": {
        "_hex": "0xd132125ed"
      },
      "gasLimit": {
        "_hex": "0x5208"
      },
      "to": "0x32Be343B94f860124dC4fEe278FDCBD38C102D88",
      "value": {
        "_hex": "0x813c626063bc28000"
      },
      "nonce": 139,
      "data": "0x",
      "r": "0x8bec15f281cd3d5784ca44803dcfbd40ef5e61367f120050ed2a44eff3006373",
      "s": "0x291a895782b5ca09161608d05b729261c3073d6f9018fdfff5fa445b7f51ca97",
      "v": 27,
      "creates": null,
      "raw": "0xf86e818b850d132125ed8252089432be343b94f860124dc4fee278fdcbd38c102d88890813c626063bc28000801ba08bec15f281cd3d5784ca44803dcfbd40ef5e61367f120050ed2a44eff3006373a0291a895782b5ca09161608d05b729261c3073d6f9018fdfff5fa445b7f51ca97",
      "networkId": 0,
      "chainId": 0
    },
    {
      "hash": "0xbb44a818e364015fef94cafcd75ebfcbfa46e3a71e1ce5b4b8f1bd447d233dcb",
      "blockHash": "0xc49fe79addafb6a377fde4d1e82c356ae2c2757aac3405816bfc9efe5350ab7f",
      "blockNumber": 106725,
      "transactionIndex": 2,
      "confirmations": null,
      "from": "0xA938b9DCabbB3eA3cC14eE810138c803edee9222",
      "gasPrice": {
        "_hex": "0xd132125ed"
      },
      "gasLimit": {
        "_hex": "0x5208"
      },
      "to": "0x32Be343B94f860124dC4fEe278FDCBD38C102D88",
      "value": {
        "_hex": "0x2e141a6ff798960000"
      },
      "nonce": 3,
      "data": "0x",
      "r": "0x287740f67e29ec8a076d3dccd9c13387a04fa2e3ccf526e0ebbde28b29cabeb6",
      "s": "0x4742f8a40d9d122a2a03069a9ada3d8d45031fd9ea92494443cae12af8791333",
      "v": 28,
      "creates": null,
      "raw": "0xf86d03850d132125ed8252089432be343b94f860124dc4fee278fdcbd38c102d88892e141a6ff798960000801ca0287740f67e29ec8a076d3dccd9c13387a04fa2e3ccf526e0ebbde28b29cabeb6a04742f8a40d9d122a2a03069a9ada3d8d45031fd9ea92494443cae12af8791333",
      "networkId": 0,
      "chainId": 0
    }
  ]
}