{
  "hash": "0x0c54b58a64fa319c38b8210a703b980d52c98f7f3b8447706c1844f7f4074f6a",
  "parentHash": "0xb19e5026972c6b3380078ad8578603fc8511a4d8c06f63b1f80f16ba8e166fac",
  "number": 115437,
  "timestamp": 1440057298,
  "nonce": "0xd653a35e2cce6b48",
  "difficulty": 4564977800532,
  "gasLimit": {
    "_hex": "0x2fefd8"
  },
  "gasUsed": {
    "_hex": "0xf87c"
  },
  "miner": "0xbb7B8287f3F0a933474a79eAe42CBCa977791171",
  "extraData": "0x476574682f4c5649562f76312e302e312f6c696e75782f676f312e342e32",
  "transactions": [
    {
      "hash": "0x1db0f2640128a8d50fca407e760dd6c2849a501c477e45382fca0819578414bf",
      "blockHash": "0x0c54b58a64fa319c38b8210a703b980d52c98f7f3b8447706c1844f7f4074f6a",
      "blockNumber": 115437,
      "transactionIndex": 0,
      "confirmations": null,
      "from": "0xd0DF24FD0DfcDc3850D1590dAA1D03ca7706b11B",
      "gasPrice": {
        "_hex": "0x1012ddc66f6"
      },
      "gasLimit": {
        "_hex": "0x55f0"
      },
      "to": "0x2910543Af39abA0Cd09dBb2D50200b3E800A63D2",
      "value": {
        "_hex": "0x3e733628714200000"
      },
      "nonce": 13,
      "data": "0x454e364832354d3230",
      "r": "0xa4691acb644626f4a161123b634e3ef649acd04bc12441c392e4ba09d1166ac9",
      "s": "0x021cb33dffecf13199b711e07da6d877e6a6ace4ca9f8dd61ab765ecb525a806",
      "v": 28,
      "creates": null,
      "raw": "0xf8770d8601012ddc66f68255f0942910543af39aba0cd09dbb2d50200b3e800a63d28903e73362871420000089454e364832354d32301ca0a4691acb644626f4a161123b634e3ef649acd04bc12441c392e4ba09d1166ac9a0021cb33dffecf13199b711e07da6d877e6a6ace4ca9f8dd61ab765ecb525a806",
      "networkId": 0,
      "chainId": 0
    },
    {
      "hash": "0xbf79653c46947ea7d48df01847b6b7897c1c443dae5af680b04c2171a647ed1d",
      "blockHash": "0x0c54b58a64fa319c38b8210a703b980d52c98f7f3b8447706c1844f7f4074f6a",
      "blockNumber": 115437,
      "transactionIndex": 1,
      "confirmations": null,
      "from": "0x32Be343B94f860124dC4fEe278FDCBD38C102D88",
      "gasPrice": {
        "_hex": "0xdd9bc1549"
      },
      "gasLimit": {
        "_hex": "0x5208"
      },
      "to": "0xAAc7c655830b2fF580BDFEa1a416E5efAfAb3291",
      "value": {
        "_hex": "0xcb38ae50b1df8000"
      },
      "nonce": 1424,
      "data": "0x",
      "r": "0x6bf6eb6432d97e62b8dc13b11f24ebe375fb323a3720c44bba5af68d7f65aad5",
      "s": "0x594f3b32d2e4a209f769384c46cac21e721134a90bdd4f53ce6ad384e4f082f6",
      "v": 27,
      "creates": null,
      "raw": "0xf86e820590850dd9bc154982520894aac7c655830b2ff580bdfea1a416e5efafab329188cb38ae50b1df8000801ba06bf6eb6432d97e62b8dc13b11f24ebe375fb323a3720c44bba5af68d7f65aad5a0594f3b32d2e4a209f769384c46cac21e721134a90bdd4f53ce6ad384e4f082f6",
      "networkId": 0,
      "chainId": 0
    },
    {
      "hash": "0xfe62433c878db3f4b1d461e8bb017048aa11058ab469df2602ce0326ff4bccf0",
      "blockHash": "0x0c54b58a64fa319c38b8210a703b980d52c98f7f3b8447706c1844f7f4074f6a",
      "blockNumber": 115437,
      "transactionIndex": 2,
      "confirmations": null,
      "from": "0x32Be343B94f860124dC4fEe278FDCBD38C102D88",
      "gasPrice": {
        "_hex": "0xdd9bc1549"
      },
      "gasLimit": {
        "_hex": "0x5208"
      },
      "to": "0xBD5198beaFFEeb7db91FB313C8667Cd238db8DAE",
      "value": {
        "_hex": "0x1b8fb07a4bed0000"
      },
      "nonce": 1425,
      "data": "0x",
      "r": "0xbd11a389ca0580053bd10de8e6a50998e3c33cd9ff06a50f49590f62ab23d2a9",
      "s": "0x6b4a4c14b18a67cf11dc1ba163745520b5cba97e01249bce1d1aae9bcaa04ea3",
      "v": 28,
      "creates": null,
      "raw": "0xf86e820591850dd9bc154982520894bd5198beaffeeb7db91fb313c8667cd238db8dae881b8fb07a4bed0000801ca0bd11a389ca0580053bd10de8e6a50998e3c33cd9ff06a50f49590f62ab23d2a9a06b4a4c14b18a67cf11dc1ba163745520b5cba97e01249bce1d1aae9bcaa04ea3",
      "networkId": 0,
      "chainId": 0
    }
  ]
}