{
  "hash": "0xcd7316b62e00f1c9ad825f57a1e9ad91040ef1e9470ab0f98410060bd26d33d3",
  "parentHash": "0x7a90632b6d657b2b5f1d51af431be7fecdac269a153f3632c376b94641948ea5",
  "number": 59519,
  "timestamp": 1439139586,
  "nonce": "0x96c79a634de7b9e9",
  "difficulty": 1697210070853,
  "gasLimit": {
    "_hex": "0x2fefd8"
  },
  "gasUsed": {
    "_hex": "0x5208"
  },
  "miner": "0xEF247E639d49461D25F57e9362CadE3120910Ce0",
  "extraData": "0x476574682f76312e302e312f6c696e75782f676f312e342e32",
  "transactions": [
    {
      "hash": "0x3e8e429c990ee101d813c29468c1ee0b091b6815c7a2c1532a5caec5bcf64690",
      "blockHash": "0xcd7316b62e00f1c9ad825f57a1e9ad91040ef1e9470ab0f98410060bd26d33d3",
      "blockNumber": 59519,
      "transactionIndex": 0,
      "confirmations": null,
      "from": "0x3056b7BF97104D34E56b79083Cf078e9BEF5F96F",
      "gasPrice": {
        "_hex": "0xdfbce4dfd"
      },
      "gasLimit": {
        "_hex": "0x15f90"
      },
      "to": "0xc544B25bb91b87e380dda392687c6216b0260671",
      "value": {
        "_hex": "0xde0b6b3a7640000"
      },
      "nonce": 2,
      "data": "0x",
      "r": "0x5b73cdae0b510b80e412eee55926d722425abb2119118d8c7e9e3d05c6c644dc",
      "s": "0x6a04f7311eba2be309b17063cd7c3e3a0e43e454b90acba385581c4038f9bf27",
      "v": 28,
      "creates": null,
      "raw": "0xf86d02850dfbce4dfd83015f9094c544b25bb91b87e380dda392687c6216b0260671880de0b6b3a7640000801ca05b73cdae0b510b80e412eee55926d722425abb2119118d8c7e9e3d05c6c644dca06a04f7311eba2be309b17063cd7c3e3a0e43e454b90acba385581c4038f9bf27",
      "networkId": 0,
      "chainId": 0
    }
  ]
}