{
  "hash": "0xe983480fe063924fd0bceec2c3fcf4c47ddd9ef298cb5bacdcc794a085f9d8a6",
  "parentHash": "0xec8b03823fcb75f91ea1be9094b98ee383283ec6285542fdaab7270940e27e0e",
  "number": 50117,
  "timestamp": 1438984118,
  "nonce": "0xcf89c7706f172756",
  "difficulty": 1511222709795,
  "gasLimit": {
    "_hex": "0x50de8"
  },
  "gasUsed": {
    "_hex": "0x12082"
  },
  "miner": "0xe6A7a1d47ff21B6321162AEA7C6CB457D5476Bca",
  "extraData": "0x657468706f6f6c2e6f7267",
  "transactions": [
    {
      "hash": "0x1072369c82285007f94f5f97a8df8b680e9939c321d617f4d4012fdf8f0f4617",
      "blockHash": "0xe983480fe063924fd0bceec2c3fcf4c47ddd9ef298cb5bacdcc794a085f9d8a6",
      "blockNumber": 50117,
      "transactionIndex": 0,
      "confirmations": null,
      "from": "0x834e9B529AC9Fa63B39A06f8D8C9B0D6791FA5dF",
      "gasPrice": {
        "_hex": "0xdc3f8d7b2"
      },
      "gasLimit": {
        "_hex": "0x3109a"
      },
      "to": "0x109C4f2CCc82C4d77Bde15F306707320294Aea3F",
      "value": {
        "_hex": "0xde0b6b3a7640000"
      },
      "nonce": 4,
      "data": "0x",
      "r": "0x8b45cfed133d8b614aaade5b23cceeca62fced01af9f59b108129d378fe88b32",
      "s": "0x5c776b263f1d2d06fd74ed719253d9709ff67cbf210034a5af860b7e621d66c2",
      "v": 27,
      "creates": null,
      "raw": "0xf86d04850dc3f8d7b28303109a94109c4f2ccc82c4d77bde15f306707320294aea3f880de0b6b3a7640000801ba08b45cfed133d8b614aaade5b23cceeca62fced01af9f59b108129d378fe88b32a05c776b263f1d2d06fd74ed719253d9709ff67cbf210034a5af860b7e621d66c2",
      "networkId": 0,
      "chainId": 0
    }
  ]
}