{
  "hash": "0x7d5a1924b1ca577399c0306383b53ccd0232f91287e4e92ec271e4697571dc63",
  "parentHash": "0xebf2b77336a35e8b1c058a424656c2003daf56347054c6327935df729a06f339",
  "number": 110789,
  "timestamp": 1439979490,
  "nonce": "0x23dae55cf4cc65e1",
  "difficulty": 4392529393520,
  "gasLimit": {
    "_hex": "0x2fefd8"
  },
  "gasUsed": {
    "_hex": "0x14820"
  },
  "miner": "0xbb7B8287f3F0a933474a79eAe42CBCa977791171",
  "extraData": "0x476574682f4c5649562f76312e302e312f6c696e75782f676f312e342e32",
  "transactions": [
    {
      "hash": "0xacb9b3a3b45671bdfdd3507fae864b42e06f9d1334121ba33a53cccd568d8131",
      "blockHash": "0x7d5a1924b1ca577399c0306383b53ccd0232f91287e4e92ec271e4697571dc63",
      "blockNumber": 110789,
      "transactionIndex": 0,
      "confirmations": null,
      "from": "0xeC06c233d618b41076FbfF739Efb85a4999F89Da",
      "gasPrice": {
        "_hex": "0xdb0212352"
      },
      "gasLimit": {
        "_hex": "0x5208"
      },
      "to": "0x32Be343B94f860124dC4fEe278FDCBD38C102D88",
      "value": {
        "_hex": "0xf3f9953f6953800"
      },
      "nonce": 6,
      "data": "0x",
      "r": "0xd14c396877dfd766c459a4c9327d782fe24961018b560bf791771247f21899dc",
      "s": "0x2a9ac4b439cb16f1432474fbd0d591edac2afd272035767854d6780eadc1bd5b",
      "v": 27,
      "creates": null,
      "raw": "0xf86c06850db02123528252089432be343b94f860124dc4fee278fdcbd38c102d88880f3f9953f6953800801ba0d14c396877dfd766c459a4c9327d782fe24961018b560bf791771247f21899dca02a9ac4b439cb16f1432474fbd0d591edac2afd272035767854d6780eadc1bd5b",
      "networkId": 0,
      "chainId": 0
    },
    {
      "hash": "0xf3dd448bb9e205e486ac1a9cbe57e6a78dd53dfc569ef6b15872d01678a51985",
      "blockHash": "0x7d5a1924b1ca577399c0306383b53ccd0232f91287e4e92ec271e4697571dc63",
      "blockNumber": 110789,
      "transactionIndex": 1,
      "confirmations": null,
      "from": "0xa70a9a7040d542C632D8e0bE7c5513A8a5Bbc752",
      "gasPrice": {
        "_hex": "0xdb0212352"
      },
      "gasLimit": {
        "_hex": "0x5208"
      },
      "to": "0x32Be343B94f860124dC4fEe278FDCBD38C102D88",
      "value": {
        "_hex": "0x45636f134d1a1800"
      },
      "nonce": 287,
      "data": "0x",
      "r": "0x094f245115a884fec6c46451ccd012be46c6bfcd4a321f038ecf30ed895f19b9",
      "s": "0x088a61607ebea756d9640b613eff8a81b1e83ad347701fd24006a39115b71b5c",
      "v": 27,
      "creates": null,
      "raw": "0xf86e82011f850db02123528252089432be343b94f860124dc4fee278fdcbd38c102d888845636f134d1a1800801ba0094f245115a884fec6c46451ccd012be46c6bfcd4a321f038ecf30ed895f19b9a0088a61607ebea756d9640b613eff8a81b1e83ad347701fd24006a39115b71b5c",
      "networkId": 0,
      "chainId": 0
    },
    {
      "hash": "0x7b787bf3524dd3cd683565dc50aad3be96ee71746f7a9d096cc168c9bb1a60a5",
      "blockHash": "0x7d5a1924b1ca577399c0306383b53ccd0232f91287e4e92ec271e4697571dc63",
      "blockNumber": 110789,
      "transactionIndex": 2,
      "confirmations": null,
      "from": "0xb1abce2918E21ddb93AA452731a12672A3d9F75a",
      "gasPrice": {
        "_hex": "0xdb0212352"
      },
      "gasLimit": {
        "_hex": "0x5208"
      },
      "to": "0x32Be343B94f860124dC4fEe278FDCBD38C102D88",
      "value": {
        "_hex": "0x455f39cc0f755800"
      },
      "nonce": 168,
      "data": "0x",
      "r": "0x85db31bbcb3b8373e1b54302e2af7d658190ae3ac601e50bb88762ba65e1e68b",
      "s": "0x3fb35f283bf8a7d24486a7b15617365d60b5f4051acad1b702d9c3de7d1177e8",
      "v": 28,
      "creates": null,
      "raw": "0xf86d81a8850db02123528252089432be343b94f860124dc4fee278fdcbd38c102d8888455f39cc0f755800801ca085db31bbcb3b8373e1b54302e2af7d658190ae3ac601e50bb88762ba65e1e68ba03fb35f283bf8a7d24486a7b15617365d60b5f4051acad1b702d9c3de7d1177e8",
      "networkId": 0,
      "chainId": 0
    },
    {
      "hash": "0xc8d2d63573a336fd7f135a5e52d5bc97af5529c062faf4154b7863b00e5a1c8c",
      "blockHash": "0x7d5a1924b1ca577399c0306383b53ccd0232f91287e4e92ec271e4697571dc63",
      "blockNumber": 110789,
      "transactionIndex": 3,
      "confirmations": null,
      "from": "0x120A270bbC009644e35F0bB6ab13f95b8199c4ad",
      "gasPrice": {
        "_hex": "0xd474d55a4"
      },
      "gasLimit": {
        "_hex": "0x3d090"
      },
      "to": "0x3143d603E3bC37f2663B18B0E44d3eE04fBbaf49",
      "value": {
        "_hex": "0xde0b6b3a7640000"
      },
      "nonce": 869,
      "data": "0x",
      "r": "0x8a35f6b5e1f39a14004bea5c61c71850fc2fe619363c371085bce4b510db6225",
      "s": "0x475652ac54f3b0db0d9274aeb1a94b8abbdc9a4448e4e600e01d719c05d242a5",
      "v": 27,
      "creates": null,
      "raw": "0xf86f820365850d474d55a48303d090943143d603e3bc37f2663b18b0e44d3ee04fbbaf49880de0b6b3a7640000801ba08a35f6b5e1f39a14004bea5c61c71850fc2fe619363c371085bce4b510db6225a0475652ac54f3b0db0d9274aeb1a94b8abbdc9a4448e4e600e01d719c05d242a5",
      "networkId": 0,
      "chainId": 0
    }
  ]
}