{
  "hash": "0xe71a5e66d4056ee68ea3180c13912bcb2f34f68dfb0be7fa5949805e01ae6765",
  "parentHash": "0x33ad2fb20207fb62fbc970cda63d5e7cdfd8f5e0ff239f0593f248fcd5b52581",
  "number": 101808,
  "timestamp": 1439828379,
  "nonce": "0x76721807dbf0f1fe",
  "difficulty": 3882441168559,
  "gasLimit": {
    "_hex": "0x2fefd8"
  },
  "gasUsed": {
    "_hex": "0x5208"
  },
  "miner": "0xe6A7a1d47ff21B6321162AEA7C6CB457D5476Bca",
  "extraData": "0x476574682f76312e302e312d38326566323666362f6c696e75782f676f312e34",
  "transactions": [
    {
      "hash": "0xcfc0ed116256f59d50e3bbd606aae2878d280499e41e14999bf479c50b4ba1bf",
      "blockHash": "0xe71a5e66d4056ee68ea3180c13912bcb2f34f68dfb0be7fa5949805e01ae6765",
      "blockNumber": 101808,
      "transactionIndex": 0,
      "confirmations": null,
      "from": "0x120A270bbC009644e35F0bB6ab13f95b8199c4ad",
      "gasPrice": {
        "_hex": "0xce27dc124"
      },
      "gasLimit": {
        "_hex": "0x3d090"
      },
      "to": "0xb5425D52895036F7033B9f276A8429905C3cf042",
      "value": {
        "_hex": "0xde0b6b3a7640000"
      },
      "nonce": 687,
      "data": "0x",
      "r": "0x5f59eb392bd915521e202bb0e3db6ed5306f9eb2235764314b5d3a17857fb1a4",
      "s": "0x204dc5000d7e5af6c9ce87c156397e04c1e4b541f9b5b45b0d2afe917e5a1c56",
      "v": 28,
      "creates": null,
      "raw": "0xf86f8202af850ce27dc1248303d09094b5425d52895036f7033b9f276a8429905c3cf042880de0b6b3a7640000801ca05f59eb392bd915521e202bb0e3db6ed5306f9eb2235764314b5d3a17857fb1a4a0204dc5000d7e5af6c9ce87c156397e04c1e4b541f9b5b45b0d2afe917e5a1c56",
      "networkId": 0,
      "chainId": 0
    }
  ]
}