{
  "hash": "0x1607fe31348c004f7ecb4c28cb6c8f47f74e68fb967f062cebdd535e46472ce3",
  "parentHash": "0xdb94aa0d6d71310adf2fdec2a42439941dce1d8117b55ee692b694da68666cb1",
  "number": 52591,
  "timestamp": 1439024004,
  "nonce": "0x11628ab44de3e644",
  "difficulty": 1567894315544,
  "gasLimit": {
    "_hex": "0x15f184"
  },
  "gasUsed": {
    "_hex": "0xf4240"
  },
  "miner": "0xf8E0CA3Ed80bd541b94BEdCf259e8CF2141A9523",
  "extraData": "0x476574682f76312e302e312f77696e646f77732f676f312e342e32",
  "transactions": [
    {
      "hash": "0xa66d6ea68e3b615b3ca4dfe921026ced9b28e9cb49899e7effa294a135cb87d5",
      "blockHash": "0x1607fe31348c004f7ecb4c28cb6c8f47f74e68fb967f062cebdd535e46472ce3",
      "blockNumber": 52591,
      "transactionIndex": 0,
      "confirmations": null,
      "from": "0x54dAeb3E8a6BBC797E4aD2b0339f134b186e4637",
      "gasPrice": {
        "_hex": "0xdf4ba21f9"
      },
      "gasLimit": {
        "_hex": "0x7a120"
      },
      "to": "0xBAA54d6E90c3F4d7Ebec11bD180134C7eD8eBb52",
      "value": {
        "_hex": "0x16345785d8a0000"
      },
      "nonce": 769,
      "data": "0x",
      "r": "0x0f64a120997451f90e63ea2cca7a3850342e1aab29626312aaf73bbec506c5f5",
      "s": "0x45e7d46449885fb37e10dbb2fd527754bb5bc3a5997430b0cab859e986a161c1",
      "v": 27,
      "creates": null,
      "raw": "0xf86f820301850df4ba21f98307a12094baa54d6e90c3f4d7ebec11bd180134c7ed8ebb5288016345785d8a0000801ba00f64a120997451f90e63ea2cca7a3850342e1aab29626312aaf73bbec506c5f5a045e7d46449885fb37e10dbb2fd527754bb5bc3a5997430b0cab859e986a161c1",
      "networkId": 0,
      "chainId": 0
    },
    {
      "hash": "0x5466aed13b47f07f4ccbccd2585dd9c3483647f44c5ec5fbebf84ebbbd516e27",
      "blockHash": "0x1607fe31348c004f7ecb4c28cb6c8f47f74e68fb967f062cebdd535e46472ce3",
      "blockNumber": 52591,
      "transactionIndex": 1,
      "confirmations": null,
      "from": "0x54dAeb3E8a6BBC797E4aD2b0339f134b186e4637",
      "gasPrice": {
        "_hex": "0xe7d27df17"
      },
      "gasLimit": {
        "_hex": "0x7a120"
      },
      "to": "0xBAA54d6E90c3F4d7Ebec11bD180134C7eD8eBb52",
      "value": {
        "_hex": "0x16345785d8a0000"
      },
      "nonce": 770,
      "data": "0x",
      "r": "0xde174994ecbe6c0a589dedebd34900f426bdc647fe6f3e8f300eabf74d67e017",
      "s": "0x70dc364cda1ff44b7fc7703f96ad10470724c0f2bfc832f51b3e90ca693b31bf",
      "v": 28,
      "creates": null,
      "raw": "0xf86f820302850e7d27df178307a12094baa54d6e90c3f4d7ebec11bd180134c7ed8ebb5288016345785d8a0000801ca0de174994ecbe6c0a589dedebd34900f426bdc647fe6f3e8f300eabf74d67e017a070dc364cda1ff44b7fc7703f96ad10470724c0f2bfc832f51b3e90ca693b31bf",
      "networkId": 0,
      "chainId": 0
    }
  ]
}