{
  "hash": "0xeda93becda9dade81abaaba6ff472efafd2370e57568d9989760b6ae2ea67f57",
  "parentHash": "0x87dd8ce0d3d1b42ceca230365e438362ae93fc0f9c050386a7fc0cad734a9177",
  "number": 92505,
  "timestamp": 1439673116,
  "nonce": "0x1aad5a03d331ebf9",
  "difficulty": 3523407594934,
  "gasLimit": {
    "_hex": "0x2fefd8"
  },
  "gasUsed": {
    "_hex": "0x5208"
  },
  "miner": "0x790b8a3cE86E707ED0eD32bF89B3269692a23CC1",
  "extraData": "0xd783010001844765746887676f312e342e32856c696e7578",
  "transactions": [
    {
      "hash": "0x8f6920e0bf669124afb3a563e34ec2bedcd6ec59f859e1e3eb2b8b7e4f87ecc5",
      "blockHash": "0xeda93becda9dade81abaaba6ff472efafd2370e57568d9989760b6ae2ea67f57",
      "blockNumber": 92505,
      "transactionIndex": 0,
      "confirmations": null,
      "from": "0xfCa1d5F162f8D71D9C4225f09AD10676D98152eB",
      "gasPrice": {
        "_hex": "0xd75229a84"
      },
      "gasLimit": {
        "_hex": "0x30d40"
      },
      "to": "0x120A270bbC009644e35F0bB6ab13f95b8199c4ad",
      "value": {
        "_hex": "0x88910454b9ab00"
      },
      "nonce": 0,
      "data": "0x",
      "r": "0xeeca568bebd554b5fa5a1ddbcbf36daf664925118cfa128fd77bef5cfc82f87b",
      "s": "0x3c9cacb410e095f108f3a0abae5e4fc6ea64a94ad3d9333f32a755de6fd48d7d",
      "v": 27,
      "creates": null,
      "raw": "0xf86c80850d75229a8483030d4094120a270bbc009644e35f0bb6ab13f95b8199c4ad8788910454b9ab00801ba0eeca568bebd554b5fa5a1ddbcbf36daf664925118cfa128fd77bef5cfc82f87ba03c9cacb410e095f108f3a0abae5e4fc6ea64a94ad3d9333f32a755de6fd48d7d",
      "networkId": 0,
      "chainId": 0
    }
  ]
}