{
  "hash": "0x80e635ab96c62066808ec83e6d063489de2b7f011a0899dab0193cf3b47f384d",
  "parentHash": "0xf34950e48243dcd91fcf79b769abdc4693ad6b8bddb27fe09e9f97be65ef0cdf",
  "number": 54464,
  "timestamp": 1439054642,
  "nonce": "0x050d0482f41f22f2",
  "difficulty": 1611785020600,
  "gasLimit": {
    "_hex": "0x2fefd8"
  },
  "gasUsed": {
    "_hex": "0x5318"
  },
  "miner": "0xC49418429e58989172a4ACE0bab0cB8D3F00F97f",
  "extraData": "0x476574682f76312e302e312f6c696e75782f676f312e342e32",
  "transactions": [
    {
      "hash": "0xd1ac96f599f5020e4589ec1fcc97fc0273004b5640181a0df8541943fae1eca6",
      "blockHash": "0x80e635ab96c62066808ec83e6d063489de2b7f011a0899dab0193cf3b47f384d",
      "blockNumber": 54464,
      "transactionIndex": 0,
      "confirmations": null,
      "from": "0x3FF679B0823a026F2378E5f5F22A6F127cC85828",
      "gasPrice": {
        "_hex": "0xcb7e69331"
      },
      "gasLimit": {
        "_hex": "0x61a8"
      },
      "to": "0x71800954e6FA0Cbc43c6440d3CC80660F18a8B6F",
      "value": {
        "_hex": "0x29175cf7f1a2180000"
      },
      "nonce": 1,
      "data": "0x74657374",
      "r": "0x8fbf9bc4528dd959b0cb553af60f28c0329a6fae06a6a488a3c3a7c849a2608b",
      "s": "0x4390fc3a3ae172f9f58a0f1ebb58cb219511c8a62050ce4b235521281305ff68",
      "v": 27,
      "creates": null,
      "raw": "0xf87101850cb7e693318261a89471800954e6fa0cbc43c6440d3cc80660f18a8b6f8929175cf7f1a218000084746573741ba08fbf9bc4528dd959b0cb553af60f28c0329a6fae06a6a488a3c3a7c849a2608ba04390fc3a3ae172f9f58a0f1ebb58cb219511c8a62050ce4b235521281305ff68",
      "networkId": 0,
      "chainId": 0
    }
  ]
}