{
  "hash": "0x1b79446730942295b75b0a84f56014f00bade427d74f803bc1a7655d49668fe4",
  "parentHash": "0x221537524b2b8236e73aa3c576553e808bb982f461b977b74a28c2cdce05963d",
  "number": 76498,
  "timestamp": 1439421620,
  "nonce": "0xee5593db2aebc1a3",
  "difficulty": 2225342761049,
  "gasLimit": {
    "_hex": "0x2fefd8"
  },
  "gasUsed": {
    "_hex": "0x70d3"
  },
  "miner": "0xbb7B8287f3F0a933474a79eAe42CBCa977791171",
  "extraData": "0x476574682f4c5649562f76312e302e312f6c696e75782f676f312e342e32",
  "transactions": [
    {
      "hash": "0xa706f043caa491963081ecd5e1fee7f1ca2bf2a3bbe5ade463a072d29995f0ec",
      "blockHash": "0x1b79446730942295b75b0a84f56014f00bade427d74f803bc1a7655d49668fe4",
      "blockNumber": 76498,
      "transactionIndex": 0,
      "confirmations": null,
      "from": "0x8Be84A3adfBc51c59023B2413766E229108c35DE",
      "gasPrice": {
        "_hex": "0xccc8e458e"
      },
      "gasLimit": {
        "_hex": "0x493e0"
      },
      "to": "0xD79B4C6791784184e2755B2fC1659eaaB0f80456",
      "value": {
        "_hex": "0x0"
      },
      "nonce": 8,
      "data": "0xbd66528a73302e3133383132313134313431313336393200000000000000000000000000",
      "r": "0x959832622919e14d8426a26f617264eead676a943ee7094797b6bc35295375d9",
      "s": "0x20e32c13eff4389a8e5c742b12e43bc6511fa458806acbfef48151b2d920cf94",
      "v": 28,
      "creates": null,
      "raw": "0xf88908850ccc8e458e830493e094d79b4c6791784184e2755b2fc1659eaab0f8045680a4bd66528a73302e31333831323131343134313133363932000000000000000000000000001ca0959832622919e14d8426a26f617264eead676a943ee7094797b6bc35295375d9a020e32c13eff4389a8e5c742b12e43bc6511fa458806acbfef48151b2d920cf94",
      "networkId": 0,
      "chainId": 0
    }
  ]
}