{
  "hash": "0x3d33bc924ecb1cb012e0dcd64cd0a5906f508aa2b857960246ac819b7623d725",
  "parentHash": "0x26d301ae2effce6478390272ada6dcbdc7b8991c699de5b1118d20a8ce279678",
  "number": 97115,
  "timestamp": 1439751030,
  "nonce": "0x1936a723bc70a162",
  "difficulty": 3755915873834,
  "gasLimit": {
    "_hex": "0x2fefd8"
  },
  "gasUsed": {
    "_hex": "0xf618"
  },
  "miner": "0xe6A7a1d47ff21B6321162AEA7C6CB457D5476Bca",
  "extraData": "0x476574682f76312e302e312d38326566323666362f6c696e75782f676f312e34",
  "transactions": [
    {
      "hash": "0xda8314109d5eff50e22e997e6cb000a04a101ef60ad856825181cf5bffdbc35a",
      "blockHash": "0x3d33bc924ecb1cb012e0dcd64cd0a5906f508aa2b857960246ac819b7623d725",
      "blockNumber": 97115,
      "transactionIndex": 0,
      "confirmations": null,
      "from": "0x2910543Af39abA0Cd09dBb2D50200b3E800A63D2",
      "gasPrice": {
        "_hex": "0xd88fc9e35"
      },
      "gasLimit": {
        "_hex": "0x5208"
      },
      "to": "0xA143616A882230de7571d01f1916F0A781d6480a",
      "value": {
        "_hex": "0x4fbe280ed59fbb8000"
      },
      "nonce": 917,
      "data": "0x",
      "r": "0x41f0f1d62a68791cb33ea47e8ed6dad0c8dab81d803f7199170cdf0a86e73b5f",
      "s": "0x7ccf57db889d13ab5f7b4d1c49d5c0208ab3c323cd1e8099aa9cfd0c12e4ab79",
      "v": 28,
      "creates": null,
      "raw": "0xf86f820395850d88fc9e3582520894a143616a882230de7571d01f1916f0a781d6480a894fbe280ed59fbb8000801ca041f0f1d62a68791cb33ea47e8ed6dad0c8dab81d803f7199170cdf0a86e73b5fa07ccf57db889d13ab5f7b4d1c49d5c0208ab3c323cd1e8099aa9cfd0c12e4ab79",
      "networkId": 0,
      "chainId": 0
    },
    {
      "hash": "0x60398bdd40163ddd168b1b9bc87aca4c4330fb929ed29bb503668b51969442b3",
      "blockHash": "0x3d33bc924ecb1cb012e0dcd64cd0a5906f508aa2b857960246ac819b7623d725",
      "blockNumber": 97115,
      "transactionIndex": 1,
      "confirmations": null,
      "from": "0xcf00A85f3826941e7A25BFcF9Aac575d40410852",
      "gasPrice": {
        "_hex": "0xcb5bea614"
      },
      "gasLimit": {
        "_hex": "0x15f90"
      },
      "to": "0xD9666150A9dA92d9108198a4072970805a8B3428",
      "value": {
        "_hex": "0x4563918244f40000"
      },
      "nonce": 7,
      "data": "0x",
      "r": "0x85ea538d59a8d3529576b59609502701a1ea62bdeb2584d8ff2d8241c4947e74",
      "s": "0x2a638069c2130ac2592163ad54cb5ff36ba5457b579a2917a53e95026b600e3e",
      "v": 28,
      "creates": null,
      "raw": "0xf86d07850cb5bea61483015f9094d9666150a9da92d9108198a4072970805a8b3428884563918244f40000801ca085ea538d59a8d3529576b59609502701a1ea62bdeb2584d8ff2d8241c4947e74a02a638069c2130ac2592163ad54cb5ff36ba5457b579a2917a53e95026b600e3e",
      "networkId": 0,
      "chainId": 0
    },
    {
      "hash": "0x6089d9a50fde5afb8f972df2c31fbcf0ba37d682bb78df8a8f10cb7813822de6",
      "blockHash": "0x3d33bc924ecb1cb012e0dcd64cd0a5906f508aa2b857960246ac819b7623d725",
      "blockNumber": 97115,
      "transactionIndex": 2,
      "confirmations": null,
      "from": "0xbE285A564cc713aFBDdc5aB18432D7AeEa61599e",
      "gasPrice": {
        "_hex": "0xba43b7400"
      },
      "gasLimit": {
        "_hex": "0x5208"
      },
      "to": "0xC47Aaa860008be6f65B58c6C6E02a84e666EfE31",
      "value": {
        "_hex": "0x3164602a398d7800"
      },
      "nonce": 1,
      "data": "0x",
      "r": "0x17808b4f52dfd1f5670dd382d814f3c37cb9d9b6da77fd25f53bcf15f784d4b4",
      "s": "0x078f66e77fe99db5cf12740f1a1b75a6ce10eeee921f23e292150e7301122771",
      "v": 28,
      "creates": null,
      "raw": "0xf86c01850ba43b740082520894c47aaa860008be6f65b58c6c6e02a84e666efe31883164602a398d7800801ca017808b4f52dfd1f5670dd382d814f3c37cb9d9b6da77fd25f53bcf15f784d4b4a0078f66e77fe99db5cf12740f1a1b75a6ce10eeee921f23e292150e7301122771",
      "networkId": 0,
      "chainId": 0
    }
  ]
}