{
  "hash": "0x3623148f927bbc944d333813fe4e4c69422ae9821ee6b4e9c6dc4523b44d3f4d",
  "parentHash": "0x0dacd705b39e8586e0c2281c2e0262c2d21bea75c0593a6b309c62296a07083e",
  "number": 86698,
  "timestamp": 1439581606,
  "nonce": "0x84524d364b857a6b",
  "difficulty": 2944517718857,
  "gasLimit": {
    "_hex": "0x2fefd8"
  },
  "gasUsed": {
    "_hex": "0xf618"
  },
  "miner": "0xbb7B8287f3F0a933474a79eAe42CBCa977791171",
  "extraData": "0x476574682f4c5649562f76312e302e312f6c696e75782f676f312e342e32",
  "transactions": [
    {
      "hash": "0x482adf9b922ca88c2970706df9875bbbea69f460bb5f5feade5dd06d138b6034",
      "blockHash": "0x3623148f927bbc944d333813fe4e4c69422ae9821ee6b4e9c6dc4523b44d3f4d",
      "blockNumber": 86698,
      "transactionIndex": 0,
      "confirmations": null,
      "from": "0xeFFFe92E81e65eA3AD7C8C87D370e1CD31b0cac4",
      "gasPrice": {
        "_hex": "0xddf3b7615"
      },
      "gasLimit": {
        "_hex": "0x5208"
      },
      "to": "0x32Be343B94f860124dC4fEe278FDCBD38C102D88",
      "value": {
        "_hex": "0x27dcd975422a400"
      },
      "nonce": 0,
      "data": "0x",
      "r": "0x99454aa4c421c91bfad71cdef7fa944590a3c24e9054f266ce9ff27ff13e7f3b",
      "s": "0x3ae26334e9c3b2ec4cd90326016ea3a30ecbabb8310a54e52ae65d379825de30",
      "v": 28,
      "creates": null,
      "raw": "0xf86c80850ddf3b76158252089432be343b94f860124dc4fee278fdcbd38c102d8888027dcd975422a400801ca099454aa4c421c91bfad71cdef7fa944590a3c24e9054f266ce9ff27ff13e7f3ba03ae26334e9c3b2ec4cd90326016ea3a30ecbabb8310a54e52ae65d379825de30",
      "networkId": 0,
      "chainId": 0
    },
    {
      "hash": "0xe822da0295cacc5aa06aaf3f3bfaee34345a2edac6ed7a922c869defb606798d",
      "blockHash": "0x3623148f927bbc944d333813fe4e4c69422ae9821ee6b4e9c6dc4523b44d3f4d",
      "blockNumber": 86698,
      "transactionIndex": 1,
      "confirmations": null,
      "from": "0xE30212B2011Bb56bdBf1BC35690F3a4E0Fd905EA",
      "gasPrice": {
        "_hex": "0xdaaa037d0"
      },
      "gasLimit": {
        "_hex": "0x15f90"
      },
      "to": "0xa9E3dE793dD570894Aadb48ce8990062Fd4bb5Bb",
      "value": {
        "_hex": "0x3635c9adc5dea00000"
      },
      "nonce": 2,
      "data": "0x",
      "r": "0x02dbe419c195f3e005733732edf40e0754a07dcd1f36f464a0a5676cda1e6460",
      "s": "0x2c389fbb1178f6b7e63fcc464c17b5d0c5fb74cdd67927dbad22c33bdb51191c",
      "v": 27,
      "creates": null,
      "raw": "0xf86e02850daaa037d083015f9094a9e3de793dd570894aadb48ce8990062fd4bb5bb893635c9adc5dea00000801ba002dbe419c195f3e005733732edf40e0754a07dcd1f36f464a0a5676cda1e6460a02c389fbb1178f6b7e63fcc464c17b5d0c5fb74cdd67927dbad22c33bdb51191c",
      "networkId": 0,
      "chainId": 0
    },
    {
      "hash": "0x63e88a6575ce1f2daaff429bc81a445642f040e4dfd5f94a15f928990f05aed9",
      "blockHash": "0x3623148f927bbc944d333813fe4e4c69422ae9821ee6b4e9c6dc4523b44d3f4d",
      "blockNumber": 86698,
      "transactionIndex": 2,
      "confirmations": null,
      "from": "0x2910543Af39abA0Cd09dBb2D50200b3E800A63D2",
      "gasPrice": {
        "_hex": "0xcec278b60"
      },
      "gasLimit": {
        "_hex": "0x5208"
      },
      "to": "0x6ca3173089AA3f7661ef2B627647A2ef685d15E3",
      "value": {
        "_hex": "0x43c33afcffc2c9f8000"
      },
      "nonce": 676,
      "data": "0x",
      "r": "0x5602d3b8da5276ebfae89b4c3d515e8c09cb171ddff30c4ba00c24a3d42e81cd",
      "s": "0x10246050a783780e9e614846dfa39c0044ddab13ab6e1633edcf4fc153ea7079",
      "v": 27,
      "creates": null,
      "raw": "0xf8708202a4850cec278b60825208946ca3173089aa3f7661ef2b627647a2ef685d15e38a043c33afcffc2c9f8000801ba05602d3b8da5276ebfae89b4c3d515e8c09cb171ddff30c4ba00c24a3d42e81cda010246050a783780e9e614846dfa39c0044ddab13ab6e1633edcf4fc153ea7079",
      "networkId": 0,
      "chainId": 0
    }
  ]
}