{
  "hash": "0x5c9e692945e150231092a7b7781bbd6e4c24177fa81987de9106db275430ccc3",
  "parentHash": "0x173170749ae03476490d7a74fe026f4a7af62d9b1f4ec7ee66f925b2e1c92b04",
  "number": 63573,
  "timestamp": 1439206642,
  "nonce": "0x80419fa40937f998",
  "difficulty": 1839616613190,
  "gasLimit": {
    "_hex": "0x2fefd8"
  },
  "gasUsed": {
    "_hex": "0x5208"
  },
  "miner": "0xf927a40C8B7F6E07c5af7FA2155B4864a4112B13",
  "extraData": "0x476574682f76312e302e312f6c696e75782f676f312e342e32",
  "transactions": [
    {
      "hash": "0xf85b383daef5ecab2dabe123677e3d2c998fed74f511f564da9bdbab3501ac28",
      "blockHash": "0x5c9e692945e150231092a7b7781bbd6e4c24177fa81987de9106db275430ccc3",
      "blockNumber": 63573,
      "transactionIndex": 0,
      "confirmations": null,
      "from": "0xbB7735934F8229F1fc2e76F7AfD82e14AA1e8E81",
      "gasPrice": {
        "_hex": "0xd68ba2f94"
      },
      "gasLimit": {
        "_hex": "0x7a120"
      },
      "to": "0x576e6acE6eBBaC590a6cb166598BFEbA1697BDB8",
      "value": {
        "_hex": "0xde0b6b3a7640000"
      },
      "nonce": 0,
      "data": "0x",
      "r": "0x69ca52f702aaae3d652f48d3947c06b6ffbd7d8f3f73d841d4704769118fc502",
      "s": "0x53cdb2d51194c296290191f1dbf9444e6217e8069f89c94d49f6e36c7eff98b4",
      "v": 28,
      "creates": null,
      "raw": "0xf86d80850d68ba2f948307a12094576e6ace6ebbac590a6cb166598bfeba1697bdb8880de0b6b3a7640000801ca069ca52f702aaae3d652f48d3947c06b6ffbd7d8f3f73d841d4704769118fc502a053cdb2d51194c296290191f1dbf9444e6217e8069f89c94d49f6e36c7eff98b4",
      "networkId": 0,
      "chainId": 0
    }
  ]
}