{
  "hash": "0x9b30a4342ff09af1a129060660564fb1777a33c6f055b058a051e404a82065b3",
  "parentHash": "0x94e65077ac0ff75049e1539ae0398942655562ad2a6d7704ee90d617205ea4b1",
  "number": 88174,
  "timestamp": 1439603904,
  "nonce": "0xaf37f2278702d3d9",
  "difficulty": 3208188972361,
  "gasLimit": {
    "_hex": "0x2fefd8"
  },
  "gasUsed": {
    "_hex": "0x5208"
  },
  "miner": "0x9Fa9952255B2b06639A04D63804d4BdFFf6E2d7e",
  "extraData": "0x476574682f76312e302e312f77696e646f77732f676f312e342e32",
  "transactions": [
    {
      "hash": "0x1dfe6567638653d59752c233abbed87e8a290bced5558d78a511423ffcda2160",
      "blockHash": "0x9b30a4342ff09af1a129060660564fb1777a33c6f055b058a051e404a82065b3",
      "blockNumber": 88174,
      "transactionIndex": 0,
      "confirmations": null,
      "from": "0x365DE8355B8cDe6EfcC572f8431bFaFe38A32269",
      "gasPrice": {
        "_hex": "0xcc6fd7787"
      },
      "gasLimit": {
        "_hex": "0x5208"
      },
      "to": "0x32Be343B94f860124dC4fEe278FDCBD38C102D88",
      "value": {
        "_hex": "0x3625d4e5f175520000"
      },
      "nonce": 1,
      "data": "0x",
      "r": "0xc3d73931b10ea989c9ba2c6eae4aa02e4acb247c577138ba3718e370c00e8393",
      "s": "0x02b0af7e853298c816178891d959bdda14d57a3e7bdb9b333fd92e820acc83a5",
      "v": 27,
      "creates": null,
      "raw": "0xf86d01850cc6fd77878252089432be343b94f860124dc4fee278fdcbd38c102d88893625d4e5f175520000801ba0c3d73931b10ea989c9ba2c6eae4aa02e4acb247c577138ba3718e370c00e8393a002b0af7e853298c816178891d959bdda14d57a3e7bdb9b333fd92e820acc83a5",
      "networkId": 0,
      "chainId": 0
    }
  ]
}