{
  "hash": "0xf69fde6399ed34d69fc5cfe04d5edc7dfbcd5dc1a8555f22726b76089863b4fa",
  "parentHash": "0x407d013bc1342a70702c1bfa9d952c54d089c5256db9aecb4a7d2985921bf1b1",
  "number": 93487,
  "timestamp": 1439691289,
  "nonce": "0xaf09761236e8a676",
  "difficulty": 3512688985141,
  "gasLimit": {
    "_hex": "0x2fefd8"
  },
  "gasUsed": {
    "_hex": "0x5208"
  },
  "miner": "0xf927a40C8B7F6E07c5af7FA2155B4864a4112B13",
  "extraData": "0x",
  "transactions": [
    {
      "hash": "0xc6092251229d94195977a835c976d914c8fe77fa209ac9629373f88483569b76",
      "blockHash": "0xf69fde6399ed34d69fc5cfe04d5edc7dfbcd5dc1a8555f22726b76089863b4fa",
      "blockNumber": 93487,
      "transactionIndex": 0,
      "confirmations": null,
      "from": "0x58c444CC2658bB485F7985d5889b1d5857614F31",
      "gasPrice": {
        "_hex": "0xd49b58a53"
      },
      "gasLimit": {
        "_hex": "0x15f90"
      },
      "to": "0x0092C5f887DD0e13E43dBDbcedFa02e332C11FDb",
      "value": {
        "_hex": "0xc893d09c8f51500000"
      },
      "nonce": 3,
      "data": "0x",
      "r": "0xbcf3f0c80c9e84c1744d1d99fd046bb07949501f9be0b02eaaea900ae69cab93",
      "s": "0x77041f642634dde054f4624daeb9afe18acd09122bacec2d82f6203ed2d44302",
      "v": 28,
      "creates": null,
      "raw": "0xf86e03850d49b58a5383015f90940092c5f887dd0e13e43dbdbcedfa02e332c11fdb89c893d09c8f51500000801ca0bcf3f0c80c9e84c1744d1d99fd046bb07949501f9be0b02eaaea900ae69cab93a077041f642634dde054f4624daeb9afe18acd09122bacec2d82f6203ed2d44302",
      "networkId": 0,
      "chainId": 0
    }
  ]
}