{
  "hash": "0xd2c3f2590d099a5851234e5a3febdab057716e1fb8efcd31a060a9c13cbf9bcb",
  "parentHash": "0x017227d1da49170a7e34993c2db90ccf0b46fe33b608689b64d636fffb8d7062",
  "number": 98611,
  "timestamp": 1439775905,
  "nonce": "0x8981de1a7b253618",
  "difficulty": 3848055249211,
  "gasLimit": {
    "_hex": "0x2fefd5"
  },
  "gasUsed": {
    "_hex": "0x5208"
  },
  "miner": "0x790b8a3cE86E707ED0eD32bF89B3269692a23CC1",
  "extraData": "0xd783010001844765746887676f312e342e32856c696e7578",
  "transactions": [
    {
      "hash": "0x52dbd9224b941ab2bf9e8c9428f6012c71097ba0f6148a9990c286800bcdf436",
      "blockHash": "0xd2c3f2590d099a5851234e5a3febdab057716e1fb8efcd31a060a9c13cbf9bcb",
      "blockNumber": 98611,
      "transactionIndex": 0,
      "confirmations": null,
      "from": "0x0D483FA9275e81c75D9a77680737287FC329b8f1",
      "gasPrice": {
        "_hex": "0xba43b7400"
      },
      "gasLimit": {
        "_hex": "0x5208"
      },
      "to": "0xC47Aaa860008be6f65B58c6C6E02a84e666EfE31",
      "value": {
        "_hex": "0x1043525f8ffc2bead0"
      },
      "nonce": 0,
      "data": "0x",
      "r": "0x349fddc27014ea6d9c15ff451ccddf2dc4fa4f9ae67e28d8b968db3628b28e9d",
      "s": "0x610441f756c1d26c98088247e56e021dd030e69dbfa208f2131407ca99efe8da",
      "v": 28,
      "creates": null,
      "raw": "0xf86d80850ba43b740082520894c47aaa860008be6f65b58c6c6e02a84e666efe31891043525f8ffc2bead0801ca0349fddc27014ea6d9c15ff451ccddf2dc4fa4f9ae67e28d8b968db3628b28e9da0610441f756c1d26c98088247e56e021dd030e69dbfa208f2131407ca99efe8da",
      "networkId": 0,
      "chainId": 0
    }
  ]
}