{
  "hash": "0x86e1476de0b1b91c8c8ceb557051bf5321e5556732dcf412701fc97a775f975a",
  "parentHash": "0x28071e12e7d77108703feaf8aeba378449869e668e751be2b9081f8f7cf94a13",
  "number": 116530,
  "timestamp": 1440088965,
  "nonce": "0xc7de4910b510be78",
  "difficulty": 4553253119668,
  "gasLimit": {
    "_hex": "0x2fefd8"
  },
  "gasUsed": {
    "_hex": "0xb1f10"
  },
  "miner": "0xe6A7a1d47ff21B6321162AEA7C6CB457D5476Bca",
  "extraData": "0xd783010002844765746887676f312e342e32856c696e7578",
  "transactions": [
    {
      "hash": "0x3c4cb0e3f4844be231969a1f536d1573e4de858736090b70b1bac7905f1a5a0b",
      "blockHash": "0x86e1476de0b1b91c8c8ceb557051bf5321e5556732dcf412701fc97a775f975a",
      "blockNumber": 116530,
      "transactionIndex": 0,
      "confirmations": null,
      "from": "0x120A270bbC009644e35F0bB6ab13f95b8199c4ad",
      "gasPrice": {
        "_hex": "0xde9d764e5"
      },
      "gasLimit": {
        "_hex": "0x3d090"
      },
      "to": "0xBf68a5625ab019BAdB5DEADac8d87dc20456BC41",
      "value": {
        "_hex": "0x4aebdeba934928800"
      },
      "nonce": 958,
      "data": "0x",
      "r": "0x5b6476a7972f288a5cb3bba86547a55bf98fa7e6800acfdb9d9d999890e52873",
      "s": "0x2bc41fdc568ce0775a1f13f2241f75f769a46c9df0fcec029a5403c4dda0f009",
      "v": 28,
      "creates": null,
      "raw": "0xf8708203be850de9d764e58303d09094bf68a5625ab019badb5deadac8d87dc20456bc418904aebdeba934928800801ca05b6476a7972f288a5cb3bba86547a55bf98fa7e6800acfdb9d9d999890e52873a02bc41fdc568ce0775a1f13f2241f75f769a46c9df0fcec029a5403c4dda0f009",
      "networkId": 0,
      "chainId": 0
    },
    {
      "hash": "0xe9329b7d6602c422a75cf0abe865e1ee1e0fe253ec65cd5c7f2c9434ef2b6421",
      "blockHash": "0x86e1476de0b1b91c8c8ceb557051bf5321e5556732dcf412701fc97a775f975a",
      "blockNumber": 116530,
      "transactionIndex": 1,
      "confirmations": null,
      "from": "0x120A270bbC009644e35F0bB6ab13f95b8199c4ad",
      "gasPrice": {
        "_hex": "0xdd9f44821"
      },
      "gasLimit": {
        "_hex": "0x3d090"
      },
      "to": "0x5d115E831147097365fE20188867318d19d3F448",
      "value": {
        "_hex": "0x4bd4130464d917000"
      },
      "nonce": 959,
      "data": "0x",
      "r": "0xf9d50bad29eddaae92679f601b413e261503f8f5c9c9695252d837170ac7e5e8",
      "s": "0x3841959a359b8ba5fb944297ba58fcd9c6b4dabae3b53b3e385a8be27f5cb960",
      "v": 28,
      "creates": null,
      "raw": "0xf8708203bf850dd9f448218303d090945d115e831147097365fe20188867318d19d3f4488904bd4130464d917000801ca0f9d50bad29eddaae92679f601b413e261503f8f5c9c9695252d837170ac7e5e8a03841959a359b8ba5fb944297ba58fcd9c6b4dabae3b53b3e385a8be27f5cb960",
      "networkId": 0,
      "chainId": 0
    },
    {
      "hash": "0x5606b81f1783649f4f2c9dd3b0579e70f0bd631e2ceea90454207ef0d05b46a0",
      "blockHash": "0x86e1476de0b1b91c8c8ceb557051bf5321e5556732dcf412701fc97a775f975a",
      "blockNumber": 116530,
      "transactionIndex": 2,
      "confirmations": null,
      "from": "0xC876c021eCE519A8CB7D3d1b8EEa2D1cEE9929Ba",
      "gasPrice": {
        "_hex": "0xdacea78e0"
      },
      "gasLimit": {
        "_hex": "0x15f90"
      },
      "to": "0x2945A11956a46EB63Fe5bb376738Ad75A2f4D0ED",
      "value": {
        "_hex": "0x0"
      },
      "nonce": 12,
      "data": "0x41c0e1b5",
      "r": "0x4842b3cae973de534558a2bfff58e12f6666a300ebc883c01eada9084c2cc045",
      "s": "0x3fad19d93be29490b276b2926f23e35f21e7e8da973e2e915e0d5484eaeeedc6",
      "v": 27,
      "creates": null,
      "raw": "0xf8690c850dacea78e083015f90942945a11956a46eb63fe5bb376738ad75a2f4d0ed808441c0e1b51ba04842b3cae973de534558a2bfff58e12f6666a300ebc883c01eada9084c2cc045a03fad19d93be29490b276b2926f23e35f21e7e8da973e2e915e0d5484eaeeedc6",
      "networkId": 0,
      "chainId": 0
    },
    {
      "hash": "0xe608280a24ef2f3e5f50edbf84292f735973f8a542f527e0b70a21a85c536ac2",
      "blockHash": "0x86e1476de0b1b91c8c8ceb557051bf5321e5556732dcf412701fc97a775f975a",
      "blockNumber": 116530,
      "transactionIndex": 3,
      "confirmations": null,
      "from": "0xC876c021eCE519A8CB7D3d1b8EEa2D1cEE9929Ba",
      "gasPrice": {
        "_hex": "0xd4be89f70"
      },
      "gasLimit": {
        "_hex": "0xf4240"
      },
      "to": null,
      "value": {
        "_hex": "0x0"
      },
      "nonce": 13,
      "data": "0x60606040526040516101fb3803806101fb8339016040526060805160600190602001805190602001505b5b33600060006101000a81548173ffffffffffffffffffffffffffffffffffffffff021916908302179055505b80600160005081905550816002600050908051906020019082805482825590600052602060002090810192821560aa579160200282015b8281111560a9578251826000505591602001919060010190608d565b5b50905060d1919060b5565b8082111560cd576000818150600090555060010160b5565b5090565b50505b5050610116806100e56000396000f30060606040526000357c010000000000000000000000000000000000000000000000000000000090048063370158ea1461004457806341c0e1b51461006557610042565b005b61004f600450610106565b6040518082815260200191505060405180910390f35b610070600450610072565b005b600060009054906101000a900473ffffffffffffffffffffffffffffffffffffffff1673ffffffffffffffffffffffffffffffffffffffff163373ffffffffffffffffffffffffffffffffffffffff16141561010357600060009054906101000a900473ffffffffffffffffffffffffffffffffffffffff1673ffffffffffffffffffffffffffffffffffffffff16ff5b5b565b6000600160005054905080505b90560000000000000000000000000000000000000000000000000000000000000040000000000000000000000000000000000000000000000000002386f26fc100000000000000000000000000000000000000000000000000000000000000000006000000000000000000000000000000000000000000000000000000000000000100000000000000000000000000000000000000000000000000000000000000020000000000000000000000000000000000000000000000000000000000000003000000000000000000000000000000000000000000000000000000000000000400000000000000000000000000000000000000000000000000000000000000050000000000000000000000000000000000000000000000000000000000000006",
      "r": "0xaf87857360f2803e44bd31b0b38aa7eb1e61edcba2128d3d16333a8b38a9961d",
      "s": "0x2514e77504955f950aa508d68d2ab694f7e5bfec5c7d6f2977b00ae98f229ed6",
      "v": 28,
      "creates": "0x26B13c1Bf44C603Faa299A841E29ab29B945c55d",
      "raw": "0xf9036e0d850d4be89f70830f42408080b9031b60606040526040516101fb3803806101fb8339016040526060805160600190602001805190602001505b5b33600060006101000a81548173ffffffffffffffffffffffffffffffffffffffff021916908302179055505b80600160005081905550816002600050908051906020019082805482825590600052602060002090810192821560aa579160200282015b8281111560a9578251826000505591602001919060010190608d565b5b50905060d1919060b5565b8082111560cd576000818150600090555060010160b5565b5090565b50505b5050610116806100e56000396000f30060606040526000357c010000000000000000000000000000000000000000000000000000000090048063370158ea1461004457806341c0e1b51461006557610042565b005b61004f600450610106565b6040518082815260200191505060405180910390f35b610070600450610072565b005b600060009054906101000a900473ffffffffffffffffffffffffffffffffffffffff1673ffffffffffffffffffffffffffffffffffffffff163373ffffffffffffffffffffffffffffffffffffffff16141561010357600060009054906101000a900473ffffffffffffffffffffffffffffffffffffffff1673ffffffffffffffffffffffffffffffffffffffff16ff5b5b565b6000600160005054905080505b90560000000000000000000000000000000000000000000000000000000000000040000000000000000000000000000000000000000000000000002386f26fc1000000000000000000000000000000000000000000000000000000000000000000060000000000000000000000000000000000000000000000000000000000000001000000000000000000000000000000000000000000000000000000000000000200000000000000000000000000000000000000000000000000000000000000030000000000000000000000000000000000000000000000000000000000000004000000000000000000000000000000000000000000000000000000000000000500000000000000000000000000000000000000000000000000000000000000061ca0af87857360f2803e44bd31b0b38aa7eb1e61edcba2128d3d16333a8b38a9961da02514e77504955f950aa508d68d2ab694f7e5bfec5c7d6f2977b00ae98f229ed6",
      "networkId": 0,
      "chainId": 0
    },
    {
      "hash": "0x1e29883447bd53334cca4ea26967a4e79e08fe0580516d16bde13fb58fe369c3",
      "blockHash": "0x86e1476de0b1b91c8c8ceb557051bf5321e5556732dcf412701fc97a775f975a",
      "blockNumber": 116530,
      "transactionIndex": 4,
      "confirmations": null,
      "from": "0xC876c021eCE519A8CB7D3d1b8EEa2D1cEE9929Ba",
      "gasPrice": {
        "_hex": "0xda5ab78f7"
      },
      "gasLimit": {
        "_hex": "0x15f90"
      },
      "to": "0x26B13c1Bf44C603Faa299A841E29ab29B945c55d",
      "value": {
        "_hex": "0x0"
      },
      "nonce": 14,
      "data": "0x41c0e1b5",
      "r": "0x46728faeafbf255e505b4df9096a541968483e2578660fa4365e05fbb504c0fc",
      "s": "0x2ee130dc11e933718b05f189a4454dbf4a3971fb06261f8de2851ba41e0aeaa4",
      "v": 27,
      "creates": null,
      "raw": "0xf8690e850da5ab78f783015f909426b13c1bf44c603faa299a841e29ab29b945c55d808441c0e1b51ba046728faeafbf255e505b4df9096a541968483e2578660fa4365e05fbb504c0fca02ee130dc11e933718b05f189a4454dbf4a3971fb06261f8de2851ba41e0aeaa4",
      "networkId": 0,
      "chainId": 0
    },
    {
      "hash": "0x2b019001c2ad756f09279f4099d9c8dd84f4ae1b34d0324bb81a7382d29c3b8f",
      "blockHash": "0x86e1476de0b1b91c8c8ceb557051bf5321e5556732dcf412701fc97a775f975a",
      "blockNumber": 116530,
      "transactionIndex": 5,
      "confirmations": null,
      "from": "0xC876c021eCE519A8CB7D3d1b8EEa2D1cEE9929Ba",
      "gasPrice": {
        "_hex": "0xd4225d29d"
      },
      "gasLimit": {
        "_hex": "0x15f90"
      },
      "to": "0x26B13c1Bf44C603Faa299A841E29ab29B945c55d",
      "value": {
        "_hex": "0x0"
      },
      "nonce": 15,
      "data": "0x41c0e1b5",
      "r": "0x125313e4eb1432fb7bf10fc77d9945854f80daee80805a69839abe5cf33ffa85",
      "s": "0x3fc67c11e4ca830f402ac8b1cd5b17f4b8fd09ec35091bd91ebff29e4a86eebf",
      "v": 27,
      "creates": null,
      "raw": "0xf8690f850d4225d29d83015f909426b13c1bf44c603faa299a841e29ab29b945c55d808441c0e1b51ba0125313e4eb1432fb7bf10fc77d9945854f80daee80805a69839abe5cf33ffa85a03fc67c11e4ca830f402ac8b1cd5b17f4b8fd09ec35091bd91ebff29e4a86eebf",
      "networkId": 0,
      "chainId": 0
    },
    {
      "hash": "0x966829ad70faf465fcc8a4058ac76bd6fb8faeccca38671d4c4799590fec0e3a",
      "blockHash": "0x86e1476de0b1b91c8c8ceb557051bf5321e5556732dcf412701fc97a775f975a",
      "blockNumber": 116530,
      "transactionIndex": 6,
      "confirmations": null,
      "from": "0xC876c021eCE519A8CB7D3d1b8EEa2D1cEE9929Ba",
      "gasPrice": {
        "_hex": "0xd163af5d6"
      },
      "gasLimit": {
        "_hex": "0xf4240"
      },
      "to": null,
      "value": {
        "_hex": "0x0"
      },
      "nonce": 16,
      "data": "0x60606040526040516101fb3803806101fb8339016040526060805160600190602001805190602001505b5b33600060006101000a81548173ffffffffffffffffffffffffffffffffffffffff021916908302179055505b80600160005081905550816002600050908051906020019082805482825590600052602060002090810192821560aa579160200282015b8281111560a9578251826000505591602001919060010190608d565b5b50905060d1919060b5565b8082111560cd576000818150600090555060010160b5565b5090565b50505b5050610116806100e56000396000f30060606040526000357c010000000000000000000000000000000000000000000000000000000090048063370158ea1461004457806341c0e1b51461006557610042565b005b61004f600450610106565b6040518082815260200191505060405180910390f35b610070600450610072565b005b600060009054906101000a900473ffffffffffffffffffffffffffffffffffffffff1673ffffffffffffffffffffffffffffffffffffffff163373ffffffffffffffffffffffffffffffffffffffff16141561010357600060009054906101000a900473ffffffffffffffffffffffffffffffffffffffff1673ffffffffffffffffffffffffffffffffffffffff16ff5b5b565b6000600160005054905080505b90560000000000000000000000000000000000000000000000000000000000000040000000000000000000000000000000000000000000000000002386f26fc100000000000000000000000000000000000000000000000000000000000000000006000000000000000000000000000000000000000000000000000000000000000100000000000000000000000000000000000000000000000000000000000000020000000000000000000000000000000000000000000000000000000000000003000000000000000000000000000000000000000000000000000000000000000400000000000000000000000000000000000000000000000000000000000000050000000000000000000000000000000000000000000000000000000000000006",
      "r": "0xf565d6b735e061fdf78faf4aabc51430345d530d1af443ac899dbd2813ad6609",
      "s": "0x3891d1636a409483e96c82e62087b742e672caa18be8a0395e400d2f61348459",
      "v": 27,
      "creates": "0x14C20fD59e3e20C445562d39dCA76F802cB21315",
      "raw": "0xf9036e10850d163af5d6830f42408080b9031b60606040526040516101fb3803806101fb8339016040526060805160600190602001805190602001505b5b33600060006101000a81548173ffffffffffffffffffffffffffffffffffffffff021916908302179055505b80600160005081905550816002600050908051906020019082805482825590600052602060002090810192821560aa579160200282015b8281111560a9578251826000505591602001919060010190608d565b5b50905060d1919060b5565b8082111560cd576000818150600090555060010160b5565b5090565b50505b5050610116806100e56000396000f30060606040526000357c010000000000000000000000000000000000000000000000000000000090048063370158ea1461004457806341c0e1b51461006557610042565b005b61004f600450610106565b6040518082815260200191505060405180910390f35b610070600450610072565b005b600060009054906101000a900473ffffffffffffffffffffffffffffffffffffffff1673ffffffffffffffffffffffffffffffffffffffff163373ffffffffffffffffffffffffffffffffffffffff16141561010357600060009054906101000a900473ffffffffffffffffffffffffffffffffffffffff1673ffffffffffffffffffffffffffffffffffffffff16ff5b5b565b6000600160005054905080505b90560000000000000000000000000000000000000000000000000000000000000040000000000000000000000000000000000000000000000000002386f26fc1000000000000000000000000000000000000000000000000000000000000000000060000000000000000000000000000000000000000000000000000000000000001000000000000000000000000000000000000000000000000000000000000000200000000000000000000000000000000000000000000000000000000000000030000000000000000000000000000000000000000000000000000000000000004000000000000000000000000000000000000000000000000000000000000000500000000000000000000000000000000000000000000000000000000000000061ba0f565d6b735e061fdf78faf4aabc51430345d530d1af443ac899dbd2813ad6609a03891d1636a409483e96c82e62087b742e672caa18be8a0395e400d2f61348459",
      "networkId": 0,
      "chainId": 0
    },
    {
      "hash": "0x4c13c0bf2456eb0b985c7d028260f7d5d68a98eff57c6ce99c01c272d08eefa4",
      "blockHash": "0x86e1476de0b1b91c8c8ceb557051bf5321e5556732dcf412701fc97a775f975a",
      "blockNumber": 116530,
      "transactionIndex": 7,
      "confirmations": null,
      "from": "0xC876c021eCE519A8CB7D3d1b8EEa2D1cEE9929Ba",
      "gasPrice": {
        "_hex": "0xd809b641e"
      },
      "gasLimit": {
        "_hex": "0x15f90"
      },
      "to": "0x14C20fD59e3e20C445562d39dCA76F802cB21315",
      "value": {
        "_hex": "0x0"
      },
      "nonce": 17,
      "data": "0x41c0e1b5",
      "r": "0xc06ff238247e85f33e8d2ed06fc1ff7e08d3258f90182f52b9a72b00af678908",
      "s": "0x55516d6aab19168f443e4cff27cc49d7f273f9a493394fed43108bf0aacb2641",
      "v": 28,
      "creates": null,
      "raw": "0xf86911850d809b641e83015f909414c20fd59e3e20c445562d39dca76f802cb21315808441c0e1b51ca0c06ff238247e85f33e8d2ed06fc1ff7e08d3258f90182f52b9a72b00af678908a055516d6aab19168f443e4cff27cc49d7f273f9a493394fed43108bf0aacb2641",
      "networkId": 0,
      "chainId": 0
    },
    {
      "hash": "0x5b7bf4e38f42933cd295f899dda941037410f315869b5fc83e8effaee217f22f",
      "blockHash": "0x86e1476de0b1b91c8c8ceb557051bf5321e5556732dcf412701fc97a775f975a",
      "blockNumber": 116530,
      "transactionIndex": 8,
      "confirmations": null,
      "from": "0x120A270bbC009644e35F0bB6ab13f95b8199c4ad",
      "gasPrice": {
        "_hex": "0xd76e1babe"
      },
      "gasLimit": {
        "_hex": "0x3d090"
      },
      "to": "0xef39804Fd2836Ef471E13ecFa2B91C42C368cE76",
      "value": {
        "_hex": "0x2b5e3af16b1880000"
      },
      "nonce": 960,
      "data": "0x",
      "r": "0x6370bd223b9093de57937abc14f7bc3c112ec664ae772774889a0e87c967736d",
      "s": "0x0aa92418b5ad3ab06069da6245ac5bcf880fe198a4f5fba276e462ccb9b3da0f",
      "v": 27,
      "creates": null,
      "raw": "0xf8708203c0850d76e1babe8303d09094ef39804fd2836ef471e13ecfa2b91c42c368ce768902b5e3af16b1880000801ba06370bd223b9093de57937abc14f7bc3c112ec664ae772774889a0e87c967736da00aa92418b5ad3ab06069da6245ac5bcf880fe198a4f5fba276e462ccb9b3da0f",
      "networkId": 0,
      "chainId": 0
    },
    {
      "hash": "0xaddf380254d21a8bdda517f9e4f3315d69fd21011b69f98e7f2de3572623b599",
      "blockHash": "0x86e1476de0b1b91c8c8ceb557051bf5321e5556732dcf412701fc97a775f975a",
      "blockNumber": 116530,
      "transactionIndex": 9,
      "confirmations": null,
      "from": "0x120A270bbC009644e35F0bB6ab13f95b8199c4ad",
      "gasPrice": {
        "_hex": "0xcaf35dbb0"
      },
      "gasLimit": {
        "_hex": "0x3d090"
      },
      "to": "0x60d85a32126130b225913C23dF4e5EF8b759fA09",
      "value": {
        "_hex": "0x25f273933db5700000"
      },
      "nonce": 961,
      "data": "0x",
      "r": "0x5dc1f60a38b4ffac5ae3a24b7722bd97c845ffa488430d9d6c76d813ef7a40e9",
      "s": "0x019004b7ccc47785a7079a3d847446c177f3cd18c17a00844456a21e3037759e",
      "v": 28,
      "creates": null,
      "raw": "0xf8708203c1850caf35dbb08303d0909460d85a32126130b225913c23df4e5ef8b759fa098925f273933db5700000801ca05dc1f60a38b4ffac5ae3a24b7722bd97c845ffa488430d9d6c76d813ef7a40e9a0019004b7ccc47785a7079a3d847446c177f3cd18c17a00844456a21e3037759e",
      "networkId": 0,
      "chainId": 0
    }
  ]
}