{
  "hash": "0xdac3a3289394a197cd001ec2051564d4cf03fe4e4ed45fd43c62e680c9dfabbc",
  "parentHash": "0xf333799dbf5badd15d4a1b95338837ced924d70fde5a42856e716bccd9bc8c32",
  "number": 69992,
  "timestamp": 1439313119,
  "nonce": "0x1fa0a3268ab1300d",
  "difficulty": 2108546874332,
  "gasLimit": {
    "_hex": "0x2fefd8"
  },
  "gasUsed": {
    "_hex": "0x5208"
  },
  "miner": "0x9746c7e1ef2bd21FF3997fa467593a89cb852BD0",
  "extraData": "0x476574682f76312e302e312f77696e646f77732f676f312e342e32",
  "transactions": [
    {
      "hash": "0x7eaaef0e768912e5bc9f8319dd08ecf16ca279aae257a5e4cf8bfec866b8fab4",
      "blockHash": "0xdac3a3289394a197cd001ec2051564d4cf03fe4e4ed45fd43c62e680c9dfabbc",
      "blockNumber": 69992,
      "transactionIndex": 0,
      "confirmations": null,
      "from": "0x2910543Af39abA0Cd09dBb2D50200b3E800A63D2",
      "gasPrice": {
        "_hex": "0xd5729895c"
      },
      "gasLimit": {
        "_hex": "0x5208"
      },
      "to": "0xFD7c9117BbEB649d9b37B3D3C9917f7c12f526B3",
      "value": {
        "_hex": "0x56bb59ab42b2f8000"
      },
      "nonce": 234,
      "data": "0x",
      "r": "0x6278c8002e0b3f2ddc364b8147f5b872749894c1cc9e8ec42192ce1fb045b4ec",
      "s": "0x4abc7871a628a25486c48f972a79ca97f707854044f41230296f6a7df250160a",
      "v": 28,
      "creates": null,
      "raw": "0xf86e81ea850d5729895c82520894fd7c9117bbeb649d9b37b3d3c9917f7c12f526b389056bb59ab42b2f8000801ca06278c8002e0b3f2ddc364b8147f5b872749894c1cc9e8ec42192ce1fb045b4eca04abc7871a628a25486c48f972a79ca97f707854044f41230296f6a7df250160a",
      "networkId": 0,
      "chainId": 0
    }
  ]
}