{
  "hash": "0xc8ae064a62c9c73aacda7236b865fad2d704a6864c300c18899c1d0d7deeab08",
  "parentHash": "0xa9d8f0d3ffcc4663e431a3e07af17d100a3fb8a67c9f6c69d6924e2855955d28",
  "number": 105130,
  "timestamp": 1439882315,
  "nonce": "0x194d2367728d0a9c",
  "difficulty": 4304167514839,
  "gasLimit": {
    "_hex": "0x2fefd8"
  },
  "gasUsed": {
    "_hex": "0x5208"
  },
  "miner": "0x580992B51e3925e23280EfB93d3047C82f17E038",
  "extraData": "0x476574682f76312e302e312f6c696e75782f676f312e342e32",
  "transactions": [
    {
      "hash": "0x8d618e4e7a9a28be82b41f0208c481fc32c1dad026e41db2bae03978f9ae5970",
      "blockHash": "0xc8ae064a62c9c73aacda7236b865fad2d704a6864c300c18899c1d0d7deeab08",
      "blockNumber": 105130,
      "transactionIndex": 0,
      "confirmations": null,
      "from": "0x7884D470204862a0d1A21122F41ee77430396Ee5",
      "gasPrice": {
        "_hex": "0xd829211eb"
      },
      "gasLimit": {
        "_hex": "0x15f90"
      },
      "to": "0xE46181d0089f5D0e0e4668eE7AB335893BDB58bf",
      "value": {
        "_hex": "0x186cc6acd4b0000"
      },
      "nonce": 102,
      "data": "0x",
      "r": "0xefaa92c90865b94434ce7d823dc1478696fdb7511129e0d6db0dbeb17c958c30",
      "s": "0x5c1e5024c869b6dd3b8c66433204a720a7145608014a3f44c02a9e3e65925ccb",
      "v": 28,
      "creates": null,
      "raw": "0xf86d66850d829211eb83015f9094e46181d0089f5d0e0e4668ee7ab335893bdb58bf880186cc6acd4b0000801ca0efaa92c90865b94434ce7d823dc1478696fdb7511129e0d6db0dbeb17c958c30a05c1e5024c869b6dd3b8c66433204a720a7145608014a3f44c02a9e3e65925ccb",
      "networkId": 0,
      "chainId": 0
    }
  ]
}