{
  "hash": "0x27bd691392468efc6a473957d1f510633f1bec6fd9ed3e63d6ec07a07c3c394a",
  "parentHash": "0xbd4d18ad4f69de356d67a11673d5cae72c41a771bdf60c3e8cf0a7b0d24827b9",
  "number": 81264,
  "timestamp": 1439498768,
  "nonce": "0x47a1192a6c1fd36a",
  "difficulty": 2452233053453,
  "gasLimit": {
    "_hex": "0x2fefd8"
  },
  "gasUsed": {
    "_hex": "0x38658"
  },
  "miner": "0xbb7B8287f3F0a933474a79eAe42CBCa977791171",
  "extraData": "0x476574682f4c5649562f76312e302e312f6c696e75782f676f312e342e32",
  "transactions": [
    {
      "hash": "0xeeb10be53cf5210e2ed087999d49fafccb2a181b63cb02005b3fe2decdac8121",
      "blockHash": "0x27bd691392468efc6a473957d1f510633f1bec6fd9ed3e63d6ec07a07c3c394a",
      "blockNumber": 81264,
      "transactionIndex": 0,
      "confirmations": null,
      "from": "0x8d304933a1F93F268bFDcFF9FFE6846a75167279",
      "gasPrice": {
        "_hex": "0xde3ea7e59"
      },
      "gasLimit": {
        "_hex": "0x5208"
      },
      "to": "0x32Be343B94f860124dC4fEe278FDCBD38C102D88",
      "value": {
        "_hex": "0xdc6b7154d3fdc00"
      },
      "nonce": 4,
      "data": "0x",
      "r": "0x8a7e99b0a8ee4f0632b398b6f8b8e9745c4194d9d8606bd7a9c2629df6cbc569",
      "s": "0x685c7109ef2ff5a75faf650be1ddf24ddaa952e22c212af494dacf3ce04cc6d4",
      "v": 28,
      "creates": null,
      "raw": "0xf86c04850de3ea7e598252089432be343b94f860124dc4fee278fdcbd38c102d88880dc6b7154d3fdc00801ca08a7e99b0a8ee4f0632b398b6f8b8e9745c4194d9d8606bd7a9c2629df6cbc569a0685c7109ef2ff5a75faf650be1ddf24ddaa952e22c212af494dacf3ce04cc6d4",
      "networkId": 0,
      "chainId": 0
    },
    {
      "hash": "0xbe9241cfd026ae269799fc619e53f930bdbe5e98ae420d1048f02482902d2cfc",
      "blockHash": "0x27bd691392468efc6a473957d1f510633f1bec6fd9ed3e63d6ec07a07c3c394a",
      "blockNumber": 81264,
      "transactionIndex": 1,
      "confirmations": null,
      "from": "0xa8e47931Fb32838525Ba4637253f8Ecd9525f842",
      "gasPrice": {
        "_hex": "0xde3ea7e59"
      },
      "gasLimit": {
        "_hex": "0x5208"
      },
      "to": "0x32Be343B94f860124dC4fEe278FDCBD38C102D88",
      "value": {
        "_hex": "0xdb8bc500085d400"
      },
      "nonce": 0,
      "data": "0x",
      "r": "0xb39a5a63b9e2ca2c9fb3fddf4c8119d812f8040c37abec2576839cd46fff79e7",
      "s": "0x7494791c84f1dc98f6962263698108090fdbbfa721bd96c4a9e8d48fde560fae",
      "v": 28,
      "creates": null,
      "raw": "0xf86c80850de3ea7e598252089432be343b94f860124dc4fee278fdcbd38c102d88880db8bc500085d400801ca0b39a5a63b9e2ca2c9fb3fddf4c8119d812f8040c37abec2576839cd46fff79e7a07494791c84f1dc98f6962263698108090fdbbfa721bd96c4a9e8d48fde560fae",
      "networkId": 0,
      "chainId": 0
    },
    {
      "hash": "0x1117802fdb69def38b4035e56d87e5959495040ae81bf9e4d781474ceb049de6",
      "blockHash": "0x27bd691392468efc6a473957d1f510633f1bec6fd9ed3e63d6ec07a07c3c394a",
      "blockNumber": 81264,
      "transactionIndex": 2,
      "confirmations": null,
      "from": "0x9630Db4398d754a15E7E3A395269D2e884C5ec59",
      "gasPrice": {
        "_hex": "0xde3ea7e59"
      },
      "gasLimit": {
        "_hex": "0x5208"
      },
      "to": "0x32Be343B94f860124dC4fEe278FDCBD38C102D88",
      "value": {
        "_hex": "0x2b5cd782c428a6000"
      },
      "nonce": 0,
      "data": "0x",
      "r": "0xc86893d0abb8e4295cebc957320573779187d94bb1e50281aa83cb9432b6b745",
      "s": "0x4944416dffe46c548580e649c6154813ffceb8453f01ecde25460de11dbaa2a3",
      "v": 27,
      "creates": null,
      "raw": "0xf86d80850de3ea7e598252089432be343b94f860124dc4fee278fdcbd38c102d888902b5cd782c428a6000801ba0c86893d0abb8e4295cebc957320573779187d94bb1e50281aa83cb9432b6b745a04944416dffe46c548580e649c6154813ffceb8453f01ecde25460de11dbaa2a3",
      "networkId": 0,
      "chainId": 0
    },
    {
      "hash": "0xa97e6fcb82e8acec6770778506f775e816c49b2fbbf170a7786508503154a1f9",
      "blockHash": "0x27bd691392468efc6a473957d1f510633f1bec6fd9ed3e63d6ec07a07c3c394a",
      "blockNumber": 81264,
      "transactionIndex": 3,
      "confirmations": null,
      "from": "0xa114c802ef29776f05f9c6925cE915232e8ae102",
      "gasPrice": {
        "_hex": "0xde3ea7e59"
      },
      "gasLimit": {
        "_hex": "0x5208"
      },
      "to": "0x32Be343B94f860124dC4fEe278FDCBD38C102D88",
      "value": {
        "_hex": "0x11589c6c9b868d000"
      },
      "nonce": 15,
      "data": "0x",
      "r": "0x9e70751eeabf009416ec657336d12dd05a6ddb1bc87c7dbf67ab0029045bfc49",
      "s": "0x412d30612e25fbc97b1fac6812e34d8776026761517dfbec0d117df97ca6e32f",
      "v": 27,
      "creates": null,
      "raw": "0xf86d0f850de3ea7e598252089432be343b94f860124dc4fee278fdcbd38c102d8889011589c6c9b868d000801ba09e70751eeabf009416ec657336d12dd05a6ddb1bc87c7dbf67ab0029045bfc49a0412d30612e25fbc97b1fac6812e34d8776026761517dfbec0d117df97ca6e32f",
      "networkId": 0,
      "chainId": 0
    },
    {
      "hash": "0xd46f39d5f23e1857741d8859f8d77cb7b3b2d6a296188c7e619edb857bcd0bca",
      "blockHash": "0x27bd691392468efc6a473957d1f510633f1bec6fd9ed3e63d6ec07a07c3c394a",
      "blockNumber": 81264,
      "transactionIndex": 4,
      "confirmations": null,
      "from": "0x519DC97eF09491aE962A8F13fe144c71feca4662",
      "gasPrice": {
        "_hex": "0xde3ea7e59"
      },
      "gasLimit": {
        "_hex": "0x5208"
      },
      "to": "0x32Be343B94f860124dC4fEe278FDCBD38C102D88",
      "value": {
        "_hex": "0x455f1e110dd6d400"
      },
      "nonce": 3,
      "data": "0x",
      "r": "0xff8cac87362639235d701b9e59b605e8173539a9722119a6c053bf9e76b30bb1",
      "s": "0x447141ba5334f4d2bcabb90a236be955ef1c150e41c430c75745eb40b44fffc3",
      "v": 27,
      "creates": null,
      "raw": "0xf86c03850de3ea7e598252089432be343b94f860124dc4fee278fdcbd38c102d8888455f1e110dd6d400801ba0ff8cac87362639235d701b9e59b605e8173539a9722119a6c053bf9e76b30bb1a0447141ba5334f4d2bcabb90a236be955ef1c150e41c430c75745eb40b44fffc3",
      "networkId": 0,
      "chainId": 0
    },
    {
      "hash": "0x415b23b12e55a40ac8f642f25238d77c01e0cfd98dc5bb073041b1374c4e2467",
      "blockHash": "0x27bd691392468efc6a473957d1f510633f1bec6fd9ed3e63d6ec07a07c3c394a",
      "blockNumber": 81264,
      "transactionIndex": 5,
      "confirmations": null,
      "from": "0x19ae27E1b61445EB9f27821A5eB4b3e957319e7e",
      "gasPrice": {
        "_hex": "0xde3ea7e59"
      },
      "gasLimit": {
        "_hex": "0x5208"
      },
      "to": "0x32Be343B94f860124dC4fEe278FDCBD38C102D88",
      "value": {
        "_hex": "0x1a5977810c5b5e00000"
      },
      "nonce": 4,
      "data": "0x",
      "r": "0x65cb0d5442b196990c64abaa44bf6cbbf1d79c3cd9e1b699b9e2a734d3908881",
      "s": "0x5590d01fc983fe78ebff540847a9df9a54f5a3ad920df0755ed2ad68cbb3afc7",
      "v": 27,
      "creates": null,
      "raw": "0xf86e04850de3ea7e598252089432be343b94f860124dc4fee278fdcbd38c102d888a01a5977810c5b5e00000801ba065cb0d5442b196990c64abaa44bf6cbbf1d79c3cd9e1b699b9e2a734d3908881a05590d01fc983fe78ebff540847a9df9a54f5a3ad920df0755ed2ad68cbb3afc7",
      "networkId": 0,
      "chainId": 0
    },
    {
      "hash": "0xbf710f91250fafb1e32c99bff797f8d700a8836948f17d8b1f90bbab3fc4cc39",
      "blockHash": "0x27bd691392468efc6a473957d1f510633f1bec6fd9ed3e63d6ec07a07c3c394a",
      "blockNumber": 81264,
      "transactionIndex": 6,
      "confirmations": null,
      "from": "0xAD063CE182014Fa78C3932981fE402a6Af48235B",
      "gasPrice": {
        "_hex": "0xde3ea7e59"
      },
      "gasLimit": {
        "_hex": "0x5208"
      },
      "to": "0x32Be343B94f860124dC4fEe278FDCBD38C102D88",
      "value": {
        "_hex": "0xf9c86ff798f53800"
      },
      "nonce": 4,
      "data": "0x",
      "r": "0xe9d201626236c2e1b67fcc7d5a83c7307584e3243fede9653488c2c9e511ef67",
      "s": "0x47b14c2b908500ed908ad3e6325386f7b5dc36b2c8af06b234d69baa2f36d168",
      "v": 27,
      "creates": null,
      "raw": "0xf86c04850de3ea7e598252089432be343b94f860124dc4fee278fdcbd38c102d8888f9c86ff798f53800801ba0e9d201626236c2e1b67fcc7d5a83c7307584e3243fede9653488c2c9e511ef67a047b14c2b908500ed908ad3e6325386f7b5dc36b2c8af06b234d69baa2f36d168",
      "networkId": 0,
      "chainId": 0
    },
    {
      "hash": "0x1f7401a394936f75df9f098f0c4bece3e40d10c74349190584a5890f53f10416",
      "blockHash": "0x27bd691392468efc6a473957d1f510633f1bec6fd9ed3e63d6ec07a07c3c394a",
      "blockNumber": 81264,
      "transactionIndex": 7,
      "confirmations": null,
      "from": "0x69083A99C2c1A7147334DE2Be848EF63Cc6bD6da",
      "gasPrice": {
        "_hex": "0xde3ea7e59"
      },
      "gasLimit": {
        "_hex": "0x5208"
      },
      "to": "0x32Be343B94f860124dC4fEe278FDCBD38C102D88",
      "value": {
        "_hex": "0x2bcf8e322f1dd400"
      },
      "nonce": 0,
      "data": "0x",
      "r": "0x6997bf75979de691e79fb689dd769c9e6056df645265174e4aa9a17ea4ebaf81",
      "s": "0x6a8da02396a2f9e11a45f08beec52a272966900c72d78b26866bd5e7680696dd",
      "v": 27,
      "creates": null,
      "raw": "0xf86c80850de3ea7e598252089432be343b94f860124dc4fee278fdcbd38c102d88882bcf8e322f1dd400801ba06997bf75979de691e79fb689dd769c9e6056df645265174e4aa9a17ea4ebaf81a06a8da02396a2f9e11a45f08beec52a272966900c72d78b26866bd5e7680696dd",
      "networkId": 0,
      "chainId": 0
    },
    {
      "hash": "0x0eb64c01fd6a02c76c99fb454341520304501fd6b4c1c0eddd54802f3ee7c571",
      "blockHash": "0x27bd691392468efc6a473957d1f510633f1bec6fd9ed3e63d6ec07a07c3c394a",
      "blockNumber": 81264,
      "transactionIndex": 8,
      "confirmations": null,
      "from": "0x2d60eD77eaD60898D0AF2eA6656659393333E2Db",
      "gasPrice": {
        "_hex": "0xde3ea7e59"
      },
      "gasLimit": {
        "_hex": "0x5208"
      },
      "to": "0x32Be343B94f860124dC4fEe278FDCBD38C102D88",
      "value": {
        "_hex": "0x66ffc789ed23140000"
      },
      "nonce": 0,
      "data": "0x",
      "r": "0x0a41984350314f38cf54c042b0282d6f6fb4911d21016d3832724b1f68d3fb0e",
      "s": "0x5c78c66eca59083022e3f2cb56304f6b2d92b266953a59842ec701624d8e2f36",
      "v": 28,
      "creates": null,
      "raw": "0xf86d80850de3ea7e598252089432be343b94f860124dc4fee278fdcbd38c102d888966ffc789ed23140000801ca00a41984350314f38cf54c042b0282d6f6fb4911d21016d3832724b1f68d3fb0ea05c78c66eca59083022e3f2cb56304f6b2d92b266953a59842ec701624d8e2f36",
      "networkId": 0,
      "chainId": 0
    },
    {
      "hash": "0x3bdc0341946858c647978c99875a5444a17d1bd14ce8065b9f2febe9075f4c69",
      "blockHash": "0x27bd691392468efc6a473957d1f510633f1bec6fd9ed3e63d6ec07a07c3c394a",
      "blockNumber": 81264,
      "transactionIndex": 9,
      "confirmations": null,
      "from": "0x2910543Af39abA0Cd09dBb2D50200b3E800A63D2",
      "gasPrice": {
        "_hex": "0xccdc8992e"
      },
      "gasLimit": {
        "_hex": "0x5208"
      },
      "to": "0x0422403B43601b14BDE8c376a5396C292D090dFB",
      "value": {
        "_hex": "0x1228d9caac643a8000"
      },
      "nonce": 459,
      "data": "0x",
      "r": "0xb43a081acafa654a41cb7da24f42bfe3427868e9c5218fca7ab639d87f8c413a",
      "s": "0x788bd19a285dba6bcc93ad4d2cfbaaf3434f0bd58461ba0e3e8f229369d337c2",
      "v": 27,
      "creates": null,
      "raw": "0xf86f8201cb850ccdc8992e825208940422403b43601b14bde8c376a5396c292d090dfb891228d9caac643a8000801ba0b43a081acafa654a41cb7da24f42bfe3427868e9c5218fca7ab639d87f8c413aa0788bd19a285dba6bcc93ad4d2cfbaaf3434f0bd58461ba0e3e8f229369d337c2",
      "networkId": 0,
      "chainId": 0
    },
    {
      "hash": "0x03de0dc5e79df39691847a275a8b360a11d1c4efb0a4dace388a60c4c1be182b",
      "blockHash": "0x27bd691392468efc6a473957d1f510633f1bec6fd9ed3e63d6ec07a07c3c394a",
      "blockNumber": 81264,
      "transactionIndex": 10,
      "confirmations": null,
      "from": "0x2910543Af39abA0Cd09dBb2D50200b3E800A63D2",
      "gasPrice": {
        "_hex": "0xccdc8992e"
      },
      "gasLimit": {
        "_hex": "0x5208"
      },
      "to": "0xe93C41Eb698768D7d6a9e589434e5bc8B2eec540",
      "value": {
        "_hex": "0x21e19cf06417a5f8000"
      },
      "nonce": 460,
      "data": "0x",
      "r": "0xceefb509c190646db3e3711c5fca9c5dcf91d679fbc707ee29ad2cc946b7e2b2",
      "s": "0x06bad69276450242b66b9a13d377f48dfd4436d0a708856defbc7a11ad084dc6",
      "v": 28,
      "creates": null,
      "raw": "0xf8708201cc850ccdc8992e82520894e93c41eb698768d7d6a9e589434e5bc8b2eec5408a021e19cf06417a5f8000801ca0ceefb509c190646db3e3711c5fca9c5dcf91d679fbc707ee29ad2cc946b7e2b2a006bad69276450242b66b9a13d377f48dfd4436d0a708856defbc7a11ad084dc6",
      "networkId": 0,
      "chainId": 0
    }
  ]
}