{
  "hash": "0xd0eedce57a34e7fa841ffb93f0624394a076738cb401888b0fcdbbeea75f5714",
  "parentHash": "0xe584ff23b0a5f7706fdd47ac505e0957dbaa02bc50b55d05cca0da947e8d1123",
  "number": 60448,
  "timestamp": 1439155863,
  "nonce": "0xdc7f72f4c4ccf1c4",
  "difficulty": 1736417778754,
  "gasLimit": {
    "_hex": "0x2fefd8"
  },
  "gasUsed": {
    "_hex": "0x5208"
  },
  "miner": "0xa50ec0D39fa913E62f1Bae7074E6F36caA71855b",
  "extraData": "0x",
  "transactions": [
    {
      "hash": "0xbec3149b5f3f09a413f30305c6d0bd2486fe2cb79b9f4a40933a46be465d0e3c",
      "blockHash": "0xd0eedce57a34e7fa841ffb93f0624394a076738cb401888b0fcdbbeea75f5714",
      "blockNumber": 60448,
      "transactionIndex": 0,
      "confirmations": null,
      "from": "0x14Eec09Bf03E352bD6Ff1B1E876bE664CeFfD0cf",
      "gasPrice": {
        "_hex": "0xd69b48315"
      },
      "gasLimit": {
        "_hex": "0x5208"
      },
      "to": "0xb583f9403De6C5B2c83D7e2DE9928331176071b8",
      "value": {
        "_hex": "0x0"
      },
      "nonce": 0,
      "data": "0x",
      "r": "0x050ffb19e45200544e7cc76cfdb54af6b80fd8b16b6c561e23ab935ce0fa1907",
      "s": "0x2d4b330ebbf1ec54482c80d548a007ef8d9b882cdf0c29b8625884be08a9fe7b",
      "v": 27,
      "creates": null,
      "raw": "0xf86480850d69b4831582520894b583f9403de6c5b2c83d7e2de9928331176071b880801ba0050ffb19e45200544e7cc76cfdb54af6b80fd8b16b6c561e23ab935ce0fa1907a02d4b330ebbf1ec54482c80d548a007ef8d9b882cdf0c29b8625884be08a9fe7b",
      "networkId": 0,
      "chainId": 0
    }
  ]
}