{
  "hash": "0x9b8e09ead05ac9d0aa149f8fea5d3a843f91fe13bfdf172a4dcf1ed58bccd0fb",
  "parentHash": "0xc280c690d9406596e5a3f6c0e1a23a4b2cd2ee5cb7f835a29b78e0db3724da53",
  "number": 86662,
  "timestamp": 1439581108,
  "nonce": "0x12b4a32bd555c3df",
  "difficulty": 2941656240839,
  "gasLimit": {
    "_hex": "0x2fefd8"
  },
  "gasUsed": {
    "_hex": "0x5208"
  },
  "miner": "0xe6A7a1d47ff21B6321162AEA7C6CB457D5476Bca",
  "extraData": "0x476574682f76312e302e312d38326566323666362f6c696e75782f676f312e34",
  "transactions": [
    {
      "hash": "0x9e67b61d771b7a60e1cfcdf0877454fc534c228aa064875cb8887b91eebe2140",
      "blockHash": "0x9b8e09ead05ac9d0aa149f8fea5d3a843f91fe13bfdf172a4dcf1ed58bccd0fb",
      "blockNumber": 86662,
      "transactionIndex": 0,
      "confirmations": null,
      "from": "0xa9E3dE793dD570894Aadb48ce8990062Fd4bb5Bb",
      "gasPrice": {
        "_hex": "0xd44e78bf0"
      },
      "gasLimit": {
        "_hex": "0x5208"
      },
      "to": "0x32Be343B94f860124dC4fEe278FDCBD38C102D88",
      "value": {
        "_hex": "0x98c716371746e000"
      },
      "nonce": 0,
      "data": "0x",
      "r": "0x992ce29eccde979047704d603b3baba095ad9cc79344d0ec22109e8f8f4d741b",
      "s": "0x241a3c4aef1d9ce83d228c4af6fe5bcfdeb464e07e650f3c94590be471c4ae73",
      "v": 28,
      "creates": null,
      "raw": "0xf86c80850d44e78bf08252089432be343b94f860124dc4fee278fdcbd38c102d888898c716371746e000801ca0992ce29eccde979047704d603b3baba095ad9cc79344d0ec22109e8f8f4d741ba0241a3c4aef1d9ce83d228c4af6fe5bcfdeb464e07e650f3c94590be471c4ae73",
      "networkId": 0,
      "chainId": 0
    }
  ]
}