{
  "hash": "0xfb4e77f49480e59ba9040b5d5c13cf7d22d7a7518912b5503ffee9544f0dee48",
  "parentHash": "0x9ebcb177af25b8f5f9c231867a537a83353d777347bf497a1e0bfb342a6543c8",
  "number": 75629,
  "timestamp": 1439406559,
  "nonce": "0xe42c4a6498b5b4c2",
  "difficulty": 2226660273838,
  "gasLimit": {
    "_hex": "0x2fefd8"
  },
  "gasUsed": {
    "_hex": "0x1b497"
  },
  "miner": "0xbb7B8287f3F0a933474a79eAe42CBCa977791171",
  "extraData": "0x476574682f4c5649562f76312e302e312f6c696e75782f676f312e342e32",
  "transactions": [
    {
      "hash": "0xe83f5a284eeb69b1ba5d7526629ff906cfc1ac99e97ae59180aec7f66c52b82e",
      "blockHash": "0xfb4e77f49480e59ba9040b5d5c13cf7d22d7a7518912b5503ffee9544f0dee48",
      "blockNumber": 75629,
      "transactionIndex": 0,
      "confirmations": null,
      "from": "0xc8ebccC5F5689Fa8659d83713341e5aD19349448",
      "gasPrice": {
        "_hex": "0xddda50899"
      },
      "gasLimit": {
        "_hex": "0x493e0"
      },
      "to": "0xD79B4C6791784184e2755B2fC1659eaaB0f80456",
      "value": {
        "_hex": "0x8ac7230489e80000"
      },
      "nonce": 51,
      "data": "0x8d21618600000000000000000000000000000000000000000000000000000000000000e6c86267c619b0fccda3e5190d8c0a3fc50731bb52d5cf5977fe656057b1304188",
      "r": "0x4439e74fa1a49f0aa01b7de3fe61988cb831fe6dcc258a9ed6acfb825dcc0915",
      "s": "0x19eeb634ce1a4d52e56de028588a819bc19679d434cb7a45a393be359a25815a",
      "v": 27,
      "creates": null,
      "raw": "0xf8b233850ddda50899830493e094d79b4c6791784184e2755b2fc1659eaab0f80456888ac7230489e80000b8448d21618600000000000000000000000000000000000000000000000000000000000000e6c86267c619b0fccda3e5190d8c0a3fc50731bb52d5cf5977fe656057b13041881ba04439e74fa1a49f0aa01b7de3fe61988cb831fe6dcc258a9ed6acfb825dcc0915a019eeb634ce1a4d52e56de028588a819bc19679d434cb7a45a393be359a25815a",
      "networkId": 0,
      "chainId": 0
    }
  ]
}