{
  "hash": "0x6f9bd5c79350bd944509d880eb3d2095ea976c06c656fdf6dbef3c9e9bbb2856",
  "parentHash": "0xc754935989e2285b6b40537f992c194f47638da56bd8d360205b28339323e5ec",
  "number": 47552,
  "timestamp": 1438942697,
  "nonce": "0x637888f6b1cae6ab",
  "difficulty": 1445985707258,
  "gasLimit": {
    "_hex": "0xcef5"
  },
  "gasUsed": {
    "_hex": "0xa674"
  },
  "miner": "0xbb7B8287f3F0a933474a79eAe42CBCa977791171",
  "extraData": "0x476574682f4c5649562f76312e302e312f6c696e75782f676f312e342e32",
  "transactions": [
    {
      "hash": "0x45e679fb7a29683313d10e7cdffb18ca5acbdc221a4dfb890de5568d6d55d8f1",
      "blockHash": "0x6f9bd5c79350bd944509d880eb3d2095ea976c06c656fdf6dbef3c9e9bbb2856",
      "blockNumber": 47552,
      "transactionIndex": 0,
      "confirmations": null,
      "from": "0xa13CfE826d6D1841DcaE443BE8c387518136b5e8",
      "gasPrice": {
        "_hex": "0x110c8f7d8de"
      },
      "gasLimit": {
        "_hex": "0xc350"
      },
      "to": "0x2910543Af39abA0Cd09dBb2D50200b3E800A63D2",
      "value": {
        "_hex": "0x3635c9adc5dea00000"
      },
      "nonce": 1,
      "data": "0x454e30573343543030",
      "r": "0xabe59f16c192638191d17878c7032d8cf6aaca1ca043d6deac327b76f1df68a0",
      "s": "0x86194aa5ebd48f4b2ea7c5a60f9f9f13a3c2f60c13b8e509e0669013334e633a",
      "v": 28,
      "creates": null,
      "raw": "0xf87701860110c8f7d8de82c350942910543af39aba0cd09dbb2d50200b3e800a63d2893635c9adc5dea0000089454e305733435430301ca0abe59f16c192638191d17878c7032d8cf6aaca1ca043d6deac327b76f1df68a0a086194aa5ebd48f4b2ea7c5a60f9f9f13a3c2f60c13b8e509e0669013334e633a",
      "networkId": 0,
      "chainId": 0
    },
    {
      "hash": "0x5d38f996744912aaf88e887b48757f41950789beb5ad53e63426052e7e2e4e6f",
      "blockHash": "0x6f9bd5c79350bd944509d880eb3d2095ea976c06c656fdf6dbef3c9e9bbb2856",
      "blockNumber": 47552,
      "transactionIndex": 1,
      "confirmations": null,
      "from": "0xc3a9226aE275dF2CAB312B911040634A9C9C9eF6",
      "gasPrice": {
        "_hex": "0x18b2b3962f"
      },
      "gasLimit": {
        "_hex": "0x5208"
      },
      "to": "0x24e0fEAc2aabaE5625b91D8e9310bEd1E19eAc2a",
      "value": {
        "_hex": "0x6f05b59d3b20000"
      },
      "nonce": 1,
      "data": "0x",
      "r": "0x83cbd46f053f1d91f04e216e45990b6544d01fe34d8c9646d4d85d7b24180432",
      "s": "0x6f347a91f77ba50a0e2a8822b789b638c4a62be25cd14652d7db0052f03d6750",
      "v": 28,
      "creates": null,
      "raw": "0xf86c018518b2b3962f8252089424e0feac2aabae5625b91d8e9310bed1e19eac2a8806f05b59d3b20000801ca083cbd46f053f1d91f04e216e45990b6544d01fe34d8c9646d4d85d7b24180432a06f347a91f77ba50a0e2a8822b789b638c4a62be25cd14652d7db0052f03d6750",
      "networkId": 0,
      "chainId": 0
    }
  ]
}