{
  "hash": "0x34dba7bbfd49034bd233abdc0b0241f4e3843542f43ed8ded925927cf40d9398",
  "parentHash": "0x1e012387462ff3bba3a59a55c4e2e145d0cccf6bcac9d0c35321123490d41da8",
  "number": 108336,
  "timestamp": 1439938488,
  "nonce": "0x8bab3b8828632962",
  "difficulty": 4366011955655,
  "gasLimit": {
    "_hex": "0x2fefd8"
  },
  "gasUsed": {
    "_hex": "0x5208"
  },
  "miner": "0x580992B51e3925e23280EfB93d3047C82f17E038",
  "extraData": "0x476574682f76312e302e312f6c696e75782f676f312e342e32",
  "transactions": [
    {
      "hash": "0x4751933cf7cd01c926424c1825d66c74f3d0ef681c4c50908c687166e561583a",
      "blockHash": "0x34dba7bbfd49034bd233abdc0b0241f4e3843542f43ed8ded925927cf40d9398",
      "blockNumber": 108336,
      "transactionIndex": 0,
      "confirmations": null,
      "from": "0x2910543Af39abA0Cd09dBb2D50200b3E800A63D2",
      "gasPrice": {
        "_hex": "0xdcd2eedc9"
      },
      "gasLimit": {
        "_hex": "0x5208"
      },
      "to": "0x19ae27E1b61445EB9f27821A5eB4b3e957319e7e",
      "value": {
        "_hex": "0x1a035fa281dd7bd8000"
      },
      "nonce": 1065,
      "data": "0x",
      "r": "0x9b27de4a73d9570884410bb8ffcd29f5cf44bd04fc83985ea7810e383a8eef44",
      "s": "0x395f887022fae94d9d8522a512cd2fac2795fc9ff204a92d709f012c9720172a",
      "v": 27,
      "creates": null,
      "raw": "0xf870820429850dcd2eedc98252089419ae27e1b61445eb9f27821a5eb4b3e957319e7e8a01a035fa281dd7bd8000801ba09b27de4a73d9570884410bb8ffcd29f5cf44bd04fc83985ea7810e383a8eef44a0395f887022fae94d9d8522a512cd2fac2795fc9ff204a92d709f012c9720172a",
      "networkId": 0,
      "chainId": 0
    }
  ]
}