{
  "hash": "0xc246637e8364b486820ad986b310f1052e28f674ef484ffc37b87aff52d17175",
  "parentHash": "0x1fa9282ad8b8864a8708322a7ae5e1634c09c7f9f302d0b163c9183437f37ca6",
  "number": 94641,
  "timestamp": 1439711500,
  "nonce": "0x39f5ad375a3a48fd",
  "difficulty": 3505352703576,
  "gasLimit": {
    "_hex": "0x2fefd8"
  },
  "gasUsed": {
    "_hex": "0x5c490"
  },
  "miner": "0xe6A7a1d47ff21B6321162AEA7C6CB457D5476Bca",
  "extraData": "0x476574682f76312e302e312d38326566323666362f6c696e75782f676f312e34",
  "transactions": [
    {
      "hash": "0x43e823270796e577c4675a28a5cf90dcf1823fdc88221cd66cf32ef68ac5a255",
      "blockHash": "0xc246637e8364b486820ad986b310f1052e28f674ef484ffc37b87aff52d17175",
      "blockNumber": 94641,
      "transactionIndex": 0,
      "confirmations": null,
      "from": "0xe6A7a1d47ff21B6321162AEA7C6CB457D5476Bca",
      "gasPrice": {
        "_hex": "0xd5e4a9509"
      },
      "gasLimit": {
        "_hex": "0x55f0"
      },
      "to": "0x2AC36246B388F762Fdc3CA30E749A1494fDA99Ee",
      "value": {
        "_hex": "0x144641d32319cfd4"
      },
      "nonce": 2546,
      "data": "0x",
      "r": "0x9160ebfef7824cfdb881ee06373f4c589d03b31015245e58a132804ae165d1f5",
      "s": "0x4aaab573f7459982399563e97aa562f17c33ce4318a0454e1b749abf0a07be8a",
      "v": 27,
      "creates": null,
      "raw": "0xf86e8209f2850d5e4a95098255f0942ac36246b388f762fdc3ca30e749a1494fda99ee88144641d32319cfd4801ba09160ebfef7824cfdb881ee06373f4c589d03b31015245e58a132804ae165d1f5a04aaab573f7459982399563e97aa562f17c33ce4318a0454e1b749abf0a07be8a",
      "networkId": 0,
      "chainId": 0
    },
    {
      "hash": "0x52a050b366400217c607f60a6b29846b25ff7f7f1af70ee5b6160c1b79305d31",
      "blockHash": "0xc246637e8364b486820ad986b310f1052e28f674ef484ffc37b87aff52d17175",
      "blockNumber": 94641,
      "transactionIndex": 1,
      "confirmations": null,
      "from": "0xe6A7a1d47ff21B6321162AEA7C6CB457D5476Bca",
      "gasPrice": {
        "_hex": "0xd5e4a9509"
      },
      "gasLimit": {
        "_hex": "0x55f0"
      },
      "to": "0xd68ba7734753e2eE54103116323aBA2D94C78dC5",
      "value": {
        "_hex": "0x144c6d00dcac15fc"
      },
      "nonce": 2547,
      "data": "0x",
      "r": "0x1fb22b2f590d8a68933bcaf16cc139b893c8286e717f44d8e9c8528ad5d51cd3",
      "s": "0x1fd68a2c617355e0f8266f3c69631a5582b2f8b31ded1585e5b2b4e616328187",
      "v": 28,
      "creates": null,
      "raw": "0xf86e8209f3850d5e4a95098255f094d68ba7734753e2ee54103116323aba2d94c78dc588144c6d00dcac15fc801ca01fb22b2f590d8a68933bcaf16cc139b893c8286e717f44d8e9c8528ad5d51cd3a01fd68a2c617355e0f8266f3c69631a5582b2f8b31ded1585e5b2b4e616328187",
      "networkId": 0,
      "chainId": 0
    },
    {
      "hash": "0xdb4e0a72c28aa90b9f8f92040e44664928c8076a001eeca0e31ada1d44e8bec4",
      "blockHash": "0xc246637e8364b486820ad986b310f1052e28f674ef484ffc37b87aff52d17175",
      "blockNumber": 94641,
      "transactionIndex": 2,
      "confirmations": null,
      "from": "0xe6A7a1d47ff21B6321162AEA7C6CB457D5476Bca",
      "gasPrice": {
        "_hex": "0xd5e4a9509"
      },
      "gasLimit": {
        "_hex": "0x55f0"
      },
      "to": "0x0156B1dF46A295901BdCA64D7809fd623AE50129",
      "value": {
        "_hex": "0x14707808ed3681a0"
      },
      "nonce": 2548,
      "data": "0x",
      "r": "0x363dc97a74d4c78739b90a41624a0ecc902c2388a2d570dfbc04a63b818de9b2",
      "s": "0x32cdb6d8753408e201d85bb18f9b06c6ea9400a5a15232ec30a4ba00159a9d11",
      "v": 27,
      "creates": null,
      "raw": "0xf86e8209f4850d5e4a95098255f0940156b1df46a295901bdca64d7809fd623ae501298814707808ed3681a0801ba0363dc97a74d4c78739b90a41624a0ecc902c2388a2d570dfbc04a63b818de9b2a032cdb6d8753408e201d85bb18f9b06c6ea9400a5a15232ec30a4ba00159a9d11",
      "networkId": 0,
      "chainId": 0
    },
    {
      "hash": "0x9954c116952e5bcc2137b7044d9324e0e48310c37fbd15551550c50e5269e888",
      "blockHash": "0xc246637e8364b486820ad986b310f1052e28f674ef484ffc37b87aff52d17175",
      "blockNumber": 94641,
      "transactionIndex": 3,
      "confirmations": null,
      "from": "0xe6A7a1d47ff21B6321162AEA7C6CB457D5476Bca",
      "gasPrice": {
        "_hex": "0xd5e4a9509"
      },
      "gasLimit": {
        "_hex": "0x55f0"
      },
      "to": "0x55d6bb729E3D6128B9032d03897D7C85cBB4e688",
      "value": {
        "_hex": "0x147f49caa14976d8"
      },
      "nonce": 2549,
      "data": "0x",
      "r": "0x527cfdbdf57127d281b432f51c2751402faaede79efb4215bd74b8cd30adce39",
      "s": "0x749632456f5c9ffb54e8404257529f3675513ad7bdd8cac6b083588ca96f822c",
      "v": 28,
      "creates": null,
      "raw": "0xf86e8209f5850d5e4a95098255f09455d6bb729e3d6128b9032d03897d7c85cbb4e68888147f49caa14976d8801ca0527cfdbdf57127d281b432f51c2751402faaede79efb4215bd74b8cd30adce39a0749632456f5c9ffb54e8404257529f3675513ad7bdd8cac6b083588ca96f822c",
      "networkId": 0,
      "chainId": 0
    },
    {
      "hash": "0x5badac09e1afd89d6eeb26bbc3b51a48c93d5e237a3d31c4f1a1798ba261701f",
      "blockHash": "0xc246637e8364b486820ad986b310f1052e28f674ef484ffc37b87aff52d17175",
      "blockNumber": 94641,
      "transactionIndex": 4,
      "confirmations": null,
      "from": "0xe6A7a1d47ff21B6321162AEA7C6CB457D5476Bca",
      "gasPrice": {
        "_hex": "0xd5e4a9509"
      },
      "gasLimit": {
        "_hex": "0x55f0"
      },
      "to": "0x3890681569061d29Ca2E22c131F532270871ef65",
      "value": {
        "_hex": "0x1493803dae5b70e8"
      },
      "nonce": 2550,
      "data": "0x",
      "r": "0xe8d5913c9894926e88740fb16cdae10eb276c01f20c4ebb505b6e926921dde0f",
      "s": "0x436c6c9f756b816eb44a3b3088d4019371d22cbda0a5cc6f4a6eab5b297666fa",
      "v": 27,
      "creates": null,
      "raw": "0xf86e8209f6850d5e4a95098255f0943890681569061d29ca2e22c131f532270871ef65881493803dae5b70e8801ba0e8d5913c9894926e88740fb16cdae10eb276c01f20c4ebb505b6e926921dde0fa0436c6c9f756b816eb44a3b3088d4019371d22cbda0a5cc6f4a6eab5b297666fa",
      "networkId": 0,
      "chainId": 0
    },
    {
      "hash": "0xec5f2a2c24599c0fbfbe1a5d48d97f9982f947fea3dc1765e4147ce679960dba",
      "blockHash": "0xc246637e8364b486820ad986b310f1052e28f674ef484ffc37b87aff52d17175",
      "blockNumber": 94641,
      "transactionIndex": 5,
      "confirmations": null,
      "from": "0xe6A7a1d47ff21B6321162AEA7C6CB457D5476Bca",
      "gasPrice": {
        "_hex": "0xd5e4a9509"
      },
      "gasLimit": {
        "_hex": "0x55f0"
      },
      "to": "0xa66f0927F63Be3Af16690f52e907F845Da66EaF8",
      "value": {
        "_hex": "0x14ca567b25c1b080"
      },
      "nonce": 2551,
      "data": "0x",
      "r": "0x7f9ab6e9ad1336d7b39d765b6bb52184a748f80320f337239c1a35f966a04f4a",
      "s": "0x73310fb7bd92f8c805400758ab406367686fbac8eb9c7595ca7b0a9634181de7",
      "v": 27,
      "creates": null,
      "raw": "0xf86e8209f7850d5e4a95098255f094a66f0927f63be3af16690f52e907f845da66eaf88814ca567b25c1b080801ba07f9ab6e9ad1336d7b39d765b6bb52184a748f80320f337239c1a35f966a04f4aa073310fb7bd92f8c805400758ab406367686fbac8eb9c7595ca7b0a9634181de7",
      "networkId": 0,
      "chainId": 0
    },
    {
      "hash": "0xb4fe33e82bdd26a622e86f8f91fa3cd8f0622f4f2d1733555b259c9de51f4bba",
      "blockHash": "0xc246637e8364b486820ad986b310f1052e28f674ef484ffc37b87aff52d17175",
      "blockNumber": 94641,
      "transactionIndex": 6,
      "confirmations": null,
      "from": "0xe6A7a1d47ff21B6321162AEA7C6CB457D5476Bca",
      "gasPrice": {
        "_hex": "0xd5e4a9509"
      },
      "gasLimit": {
        "_hex": "0x55f0"
      },
      "to": "0x25963D3d2264014d180fB0DF883be4f8B656A294",
      "value": {
        "_hex": "0x14ece3ec37d9e528"
      },
      "nonce": 2552,
      "data": "0x",
      "r": "0x80aea5311958d14386a090bfacb0a1fa62e4835fdd95f87f11e9a7bfc2a86b75",
      "s": "0x21bef8659d715fce82cabe97aa1ebd699284cb6fc1a4354a764ba040431b1e8f",
      "v": 28,
      "creates": null,
      "raw": "0xf86e8209f8850d5e4a95098255f09425963d3d2264014d180fb0df883be4f8b656a2948814ece3ec37d9e528801ca080aea5311958d14386a090bfacb0a1fa62e4835fdd95f87f11e9a7bfc2a86b75a021bef8659d715fce82cabe97aa1ebd699284cb6fc1a4354a764ba040431b1e8f",
      "networkId": 0,
      "chainId": 0
    },
    {
      "hash": "0xd1742aa24725b51aa1ab32e3134ef44f576e45ecd85f0a7caed180d6e60cbf66",
      "blockHash": "0xc246637e8364b486820ad986b310f1052e28f674ef484ffc37b87aff52d17175",
      "blockNumber": 94641,
      "transactionIndex": 7,
      "confirmations": null,
      "from": "0xe6A7a1d47ff21B6321162AEA7C6CB457D5476Bca",
      "gasPrice": {
        "_hex": "0xd5e4a9509"
      },
      "gasLimit": {
        "_hex": "0x55f0"
      },
      "to": "0x0Ca595962471f3C517a9C71150cB2F722f7298EF",
      "value": {
        "_hex": "0x1580dc5886589278"
      },
      "nonce": 2553,
      "data": "0x",
      "r": "0x938204ea89d3c7967e2b8ae4d2f09aa4d70a18be4abd9fe2b2ecc4878bd9d74f",
      "s": "0x0ed9bcb9ad775d96220e0973bc718f45786628d029de6d8fc4bd96ecb04e2c67",
      "v": 27,
      "creates": null,
      "raw": "0xf86e8209f9850d5e4a95098255f0940ca595962471f3c517a9c71150cb2f722f7298ef881580dc5886589278801ba0938204ea89d3c7967e2b8ae4d2f09aa4d70a18be4abd9fe2b2ecc4878bd9d74fa00ed9bcb9ad775d96220e0973bc718f45786628d029de6d8fc4bd96ecb04e2c67",
      "networkId": 0,
      "chainId": 0
    },
    {
      "hash": "0xa04c69e404bb265b0d28e626be9ad0ccec78b09907a5e9061f6d8381f182fca0",
      "blockHash": "0xc246637e8364b486820ad986b310f1052e28f674ef484ffc37b87aff52d17175",
      "blockNumber": 94641,
      "transactionIndex": 8,
      "confirmations": null,
      "from": "0xe6A7a1d47ff21B6321162AEA7C6CB457D5476Bca",
      "gasPrice": {
        "_hex": "0xd5e4a9509"
      },
      "gasLimit": {
        "_hex": "0x55f0"
      },
      "to": "0x47ff6576639c2e94762eA5443978D7681C0E78DC",
      "value": {
        "_hex": "0x15a9a1f54276a6e0"
      },
      "nonce": 2554,
      "data": "0x",
      "r": "0x25620658e6ac1e249f6ab678ba60cc86a1d5ee391ea46dda0ed4f25b33911870",
      "s": "0x3bb4f1698297bb3660a549be63d58b2caee244d7750a6103f2b0eef1f1b2ae34",
      "v": 28,
      "creates": null,
      "raw": "0xf86e8209fa850d5e4a95098255f09447ff6576639c2e94762ea5443978d7681c0e78dc8815a9a1f54276a6e0801ca025620658e6ac1e249f6ab678ba60cc86a1d5ee391ea46dda0ed4f25b33911870a03bb4f1698297bb3660a549be63d58b2caee244d7750a6103f2b0eef1f1b2ae34",
      "networkId": 0,
      "chainId": 0
    },
    {
      "hash": "0xe8021f39a0fd4e710c54eae364da744e78d139b702e40781ea6026f42631d55e",
      "blockHash": "0xc246637e8364b486820ad986b310f1052e28f674ef484ffc37b87aff52d17175",
      "blockNumber": 94641,
      "transactionIndex": 9,
      "confirmations": null,
      "from": "0xe6A7a1d47ff21B6321162AEA7C6CB457D5476Bca",
      "gasPrice": {
        "_hex": "0xd5e4a9509"
      },
      "gasLimit": {
        "_hex": "0x55f0"
      },
      "to": "0x0d187496799a43E7c43e4324026E32d1Dc80D8E4",
      "value": {
        "_hex": "0x15c0b6e8ade91858"
      },
      "nonce": 2555,
      "data": "0x",
      "r": "0x0afd0613e5f89a73087fc7aa7858bdb4d0ef947017a50c40433593cf2845a8de",
      "s": "0x329c93cfab7516598d069f7554a83236c2d75f7b6b10ff72a09847e7a80b8766",
      "v": 27,
      "creates": null,
      "raw": "0xf86e8209fb850d5e4a95098255f0940d187496799a43e7c43e4324026e32d1dc80d8e48815c0b6e8ade91858801ba00afd0613e5f89a73087fc7aa7858bdb4d0ef947017a50c40433593cf2845a8dea0329c93cfab7516598d069f7554a83236c2d75f7b6b10ff72a09847e7a80b8766",
      "networkId": 0,
      "chainId": 0
    },
    {
      "hash": "0x0b19586157e4bb50f81298c850fd0aacc433c57b256f5904188851d4075e1ade",
      "blockHash": "0xc246637e8364b486820ad986b310f1052e28f674ef484ffc37b87aff52d17175",
      "blockNumber": 94641,
      "transactionIndex": 10,
      "confirmations": null,
      "from": "0xe6A7a1d47ff21B6321162AEA7C6CB457D5476Bca",
      "gasPrice": {
        "_hex": "0xd5e4a9509"
      },
      "gasLimit": {
        "_hex": "0x55f0"
      },
      "to": "0xAb5199486803893a6dc1AD1D31612895300BCcA9",
      "value": {
        "_hex": "0x15d96e5d9405e714"
      },
      "nonce": 2556,
      "data": "0x",
      "r": "0x8bdd06e84158e9c2f4ccf1fefb986bd2296187560ebee82db7a67e489f1f869c",
      "s": "0x0a351e0b8e79d2ba4e86aba065af89a3e25a53fb3f1839180a5b7f08d21d4c6b",
      "v": 27,
      "creates": null,
      "raw": "0xf86e8209fc850d5e4a95098255f094ab5199486803893a6dc1ad1d31612895300bcca98815d96e5d9405e714801ba08bdd06e84158e9c2f4ccf1fefb986bd2296187560ebee82db7a67e489f1f869ca00a351e0b8e79d2ba4e86aba065af89a3e25a53fb3f1839180a5b7f08d21d4c6b",
      "networkId": 0,
      "chainId": 0
    },
    {
      "hash": "0x1310870d279a6023c96e678b8fdc21869d2aa983a81f630dfb4d70091c0bc78b",
      "blockHash": "0xc246637e8364b486820ad986b310f1052e28f674ef484ffc37b87aff52d17175",
      "blockNumber": 94641,
      "transactionIndex": 11,
      "confirmations": null,
      "from": "0xe6A7a1d47ff21B6321162AEA7C6CB457D5476Bca",
      "gasPrice": {
        "_hex": "0xd5e4a9509"
      },
      "gasLimit": {
        "_hex": "0x55f0"
      },
      "to": "0xda076E9eE5a5156B3e7F206401899C854fc1d5Fd",
      "value": {
        "_hex": "0x15f7968cb3d226dc"
      },
      "nonce": 2557,
      "data": "0x",
      "r": "0x19f9f5e3fa37ce4fb79e7c0596f52e354a1bd3692de24c33ded0addb60bd6736",
      "s": "0x74dae6e89d43a255438fd2a5d6e7798c1200c6063e7a875d1c4693f279da78bf",
      "v": 27,
      "creates": null,
      "raw": "0xf86e8209fd850d5e4a95098255f094da076e9ee5a5156b3e7f206401899c854fc1d5fd8815f7968cb3d226dc801ba019f9f5e3fa37ce4fb79e7c0596f52e354a1bd3692de24c33ded0addb60bd6736a074dae6e89d43a255438fd2a5d6e7798c1200c6063e7a875d1c4693f279da78bf",
      "networkId": 0,
      "chainId": 0
    },
    {
      "hash": "0xfa9293a6434a0c7273b74b6687131bcf66fd09625aea97f8a8f22183fd641783",
      "blockHash": "0xc246637e8364b486820ad986b310f1052e28f674ef484ffc37b87aff52d17175",
      "blockNumber": 94641,
      "transactionIndex": 12,
      "confirmations": null,
      "from": "0xe6A7a1d47ff21B6321162AEA7C6CB457D5476Bca",
      "gasPrice": {
        "_hex": "0xd5e4a9509"
      },
      "gasLimit": {
        "_hex": "0x55f0"
      },
      "to": "0xB76CeFA8d0680c6dA05CA47e1C4B70aA092B69a9",
      "value": {
        "_hex": "0x15faca0607239820"
      },
      "nonce": 2558,
      "data": "0x",
      "r": "0x9e8ba7030e93be0fcf3b5e0436b23355f23d1fff353a17b366c7606b85213e7a",
      "s": "0x2b15cec0f4f4406a8493d6c3b997939e836b3061f56b64344d3ba64c1628b78c",
      "v": 27,
      "creates": null,
      "raw": "0xf86e8209fe850d5e4a95098255f094b76cefa8d0680c6da05ca47e1c4b70aa092b69a98815faca0607239820801ba09e8ba7030e93be0fcf3b5e0436b23355f23d1fff353a17b366c7606b85213e7aa02b15cec0f4f4406a8493d6c3b997939e836b3061f56b64344d3ba64c1628b78c",
      "networkId": 0,
      "chainId": 0
    },
    {
      "hash": "0x2305e27c0246ecccbf1dc85404c47f339859e15d8d43272b4545d076483c297b",
      "blockHash": "0xc246637e8364b486820ad986b310f1052e28f674ef484ffc37b87aff52d17175",
      "blockNumber": 94641,
      "transactionIndex": 13,
      "confirmations": null,
      "from": "0xe6A7a1d47ff21B6321162AEA7C6CB457D5476Bca",
      "gasPrice": {
        "_hex": "0xd3ae7a3dd"
      },
      "gasLimit": {
        "_hex": "0x55f0"
      },
      "to": "0x5C6935CC46A0ccd4f0E1eb8c27103e46AA9517dB",
      "value": {
        "_hex": "0x161f193cd8da6bd8"
      },
      "nonce": 2559,
      "data": "0x",
      "r": "0xc0b890c273d92b4cdcd4787c8021dadb0866433c72d742141c8f71b9198e0dd7",
      "s": "0x7ff7d2c9aa68f3415fa52bb3c909c5ff6f4397f0db993068a18f4f71de149b3d",
      "v": 27,
      "creates": null,
      "raw": "0xf86e8209ff850d3ae7a3dd8255f0945c6935cc46a0ccd4f0e1eb8c27103e46aa9517db88161f193cd8da6bd8801ba0c0b890c273d92b4cdcd4787c8021dadb0866433c72d742141c8f71b9198e0dd7a07ff7d2c9aa68f3415fa52bb3c909c5ff6f4397f0db993068a18f4f71de149b3d",
      "networkId": 0,
      "chainId": 0
    },
    {
      "hash": "0x62aacba3968f6bf9c245023172fc8f80d58f52ebc8514912d1150ebb699ece83",
      "blockHash": "0xc246637e8364b486820ad986b310f1052e28f674ef484ffc37b87aff52d17175",
      "blockNumber": 94641,
      "transactionIndex": 14,
      "confirmations": null,
      "from": "0xe6A7a1d47ff21B6321162AEA7C6CB457D5476Bca",
      "gasPrice": {
        "_hex": "0xd3ae7a3dd"
      },
      "gasLimit": {
        "_hex": "0x55f0"
      },
      "to": "0x144BC9FE471D3C71D8e09D58060d78661B1D4F32",
      "value": {
        "_hex": "0x1647f4bb8329e2d0"
      },
      "nonce": 2560,
      "data": "0x",
      "r": "0x05f058daf6473c50b837e29f3095930bdc71b204962a1586b8321e9cb0c2a80d",
      "s": "0x0b18577cac0be2b4b30991574c0fa5d84d38775e1549d2f42667c18cea2015e2",
      "v": 28,
      "creates": null,
      "raw": "0xf86e820a00850d3ae7a3dd8255f094144bc9fe471d3c71d8e09d58060d78661b1d4f32881647f4bb8329e2d0801ca005f058daf6473c50b837e29f3095930bdc71b204962a1586b8321e9cb0c2a80da00b18577cac0be2b4b30991574c0fa5d84d38775e1549d2f42667c18cea2015e2",
      "networkId": 0,
      "chainId": 0
    },
    {
      "hash": "0x9cfd24725c17173510e5ad4156f755a7e4efdada650dfc3601c329c34a9e0602",
      "blockHash": "0xc246637e8364b486820ad986b310f1052e28f674ef484ffc37b87aff52d17175",
      "blockNumber": 94641,
      "transactionIndex": 15,
      "confirmations": null,
      "from": "0xe6A7a1d47ff21B6321162AEA7C6CB457D5476Bca",
      "gasPrice": {
        "_hex": "0xd3ae7a3dd"
      },
      "gasLimit": {
        "_hex": "0x55f0"
      },
      "to": "0xC2892E890641c57e54FF8608B2B192ed5dC19a0F",
      "value": {
        "_hex": "0x166598af7f048d1c"
      },
      "nonce": 2561,
      "data": "0x",
      "r": "0x5b42bf9486fd2ef8427193c7177192d41675044ca8e2e7340087bb52f72770b7",
      "s": "0x56907ef023fd7a5da6cb8f18a91bd34188fe4c52b5fa50c590a44435ed0232d7",
      "v": 27,
      "creates": null,
      "raw": "0xf86e820a01850d3ae7a3dd8255f094c2892e890641c57e54ff8608b2b192ed5dc19a0f88166598af7f048d1c801ba05b42bf9486fd2ef8427193c7177192d41675044ca8e2e7340087bb52f72770b7a056907ef023fd7a5da6cb8f18a91bd34188fe4c52b5fa50c590a44435ed0232d7",
      "networkId": 0,
      "chainId": 0
    },
    {
      "hash": "0xd42f13792b4db9e9b2a9f0851f224ec3604964ec3c8f2bc2cce8631367eefc16",
      "blockHash": "0xc246637e8364b486820ad986b310f1052e28f674ef484ffc37b87aff52d17175",
      "blockNumber": 94641,
      "transactionIndex": 16,
      "confirmations": null,
      "from": "0xe6A7a1d47ff21B6321162AEA7C6CB457D5476Bca",
      "gasPrice": {
        "_hex": "0xd3ae7a3dd"
      },
      "gasLimit": {
        "_hex": "0x55f0"
      },
      "to": "0x47fe9Ce29dA03E8466a067e4321fD32312e39607",
      "value": {
        "_hex": "0x16741b5a25a1b308"
      },
      "nonce": 2562,
      "data": "0x",
      "r": "0xe83a13a2b52471bbe861bd86fd46e3e2baea1e554d29ec25746dc9491b8a5faa",
      "s": "0x440223e0194685cb4b6b5455cba70a0c5cc9232a7750ed394b76355d367c2510",
      "v": 27,
      "creates": null,
      "raw": "0xf86e820a02850d3ae7a3dd8255f09447fe9ce29da03e8466a067e4321fd32312e396078816741b5a25a1b308801ba0e83a13a2b52471bbe861bd86fd46e3e2baea1e554d29ec25746dc9491b8a5faaa0440223e0194685cb4b6b5455cba70a0c5cc9232a7750ed394b76355d367c2510",
      "networkId": 0,
      "chainId": 0
    },
    {
      "hash": "0x8cc04ed52c0789f6df774d4e68ee60760b6cf3b0daaba71ece5d3eeb19fa2f60",
      "blockHash": "0xc246637e8364b486820ad986b310f1052e28f674ef484ffc37b87aff52d17175",
      "blockNumber": 94641,
      "transactionIndex": 17,
      "confirmations": null,
      "from": "0xe6A7a1d47ff21B6321162AEA7C6CB457D5476Bca",
      "gasPrice": {
        "_hex": "0xd3ae7a3dd"
      },
      "gasLimit": {
        "_hex": "0x55f0"
      },
      "to": "0xB17d2bFef3ED5F2EaA806Fe930878F6eBfD31CCf",
      "value": {
        "_hex": "0x1679d2e1b48966f8"
      },
      "nonce": 2563,
      "data": "0x",
      "r": "0xdca2be14f215d0a602315c538e6e9c38ca37d6e71707b9bf4dd5cdd8cbd23ba7",
      "s": "0x7eabc00dbe29d9d2e89e9a4383423c75332c764e80d47072e7299df30c75316a",
      "v": 28,
      "creates": null,
      "raw": "0xf86e820a03850d3ae7a3dd8255f094b17d2bfef3ed5f2eaa806fe930878f6ebfd31ccf881679d2e1b48966f8801ca0dca2be14f215d0a602315c538e6e9c38ca37d6e71707b9bf4dd5cdd8cbd23ba7a07eabc00dbe29d9d2e89e9a4383423c75332c764e80d47072e7299df30c75316a",
      "networkId": 0,
      "chainId": 0
    }
  ]
}