{
  "hash": "0x14689aef863771a7331be59cf472ad9e17630e11761b2aac70b3e0ff45001bc1",
  "parentHash": "0xf88f9a35687a60aaff633f70b6e57c81a1017f2ff7128b711d0f6012a7728d03",
  "number": 107548,
  "timestamp": 1439924380,
  "nonce": "0xd78bb6fff5a5431a",
  "difficulty": 4409271835619,
  "gasLimit": {
    "_hex": "0x2fefd8"
  },
  "gasUsed": {
    "_hex": "0xa410"
  },
  "miner": "0xC603Ab5ef41fC61AA8b76bEddb09e3Cfcbb174BD",
  "extraData": "0x476574682f76312e302e312f77696e646f77732f676f312e342e32",
  "transactions": [
    {
      "hash": "0x537da61256949502a058a3223b4c0135dab3487914573350dba368bab48d4fff",
      "blockHash": "0x14689aef863771a7331be59cf472ad9e17630e11761b2aac70b3e0ff45001bc1",
      "blockNumber": 107548,
      "transactionIndex": 0,
      "confirmations": null,
      "from": "0xe3002160DEbB2936e6ca494ed36F28056ed7aEfd",
      "gasPrice": {
        "_hex": "0xd76daca8a"
      },
      "gasLimit": {
        "_hex": "0x55f0"
      },
      "to": "0xF161498A7f225A91C338015ca11833B3399393A8",
      "value": {
        "_hex": "0x8e1bc9bf040000"
      },
      "nonce": 5,
      "data": "0x",
      "r": "0xadabe9b52d6e1e75c6c6e406f80b0de8a5f80a74b057418b5a157a29e1bce96c",
      "s": "0x0da6a832fb7ce13fbeb02093100e79878f19ef6a30107c042cd12c3ca1c31ce8",
      "v": 27,
      "creates": null,
      "raw": "0xf86b05850d76daca8a8255f094f161498a7f225a91c338015ca11833b3399393a8878e1bc9bf040000801ba0adabe9b52d6e1e75c6c6e406f80b0de8a5f80a74b057418b5a157a29e1bce96ca00da6a832fb7ce13fbeb02093100e79878f19ef6a30107c042cd12c3ca1c31ce8",
      "networkId": 0,
      "chainId": 0
    },
    {
      "hash": "0x6bb6e9be7a26f222f0664c665a5160ead4988aec49ed2e862b8ec76e179ed9eb",
      "blockHash": "0x14689aef863771a7331be59cf472ad9e17630e11761b2aac70b3e0ff45001bc1",
      "blockNumber": 107548,
      "transactionIndex": 1,
      "confirmations": null,
      "from": "0x00C865a16eD3c930DD70B642507639D199C62180",
      "gasPrice": {
        "_hex": "0xd4d0e1cba"
      },
      "gasLimit": {
        "_hex": "0x5208"
      },
      "to": "0x32Be343B94f860124dC4fEe278FDCBD38C102D88",
      "value": {
        "_hex": "0xbf7f257a2f857000"
      },
      "nonce": 7,
      "data": "0x",
      "r": "0x4b1205a82d831aa63e558dd53ac18955755b95da38e739ec4695ed8c05d89794",
      "s": "0x629d5ecf797cbe6999d364e969f28e19330bb389435f66f13282a99d12871679",
      "v": 28,
      "creates": null,
      "raw": "0xf86c07850d4d0e1cba8252089432be343b94f860124dc4fee278fdcbd38c102d8888bf7f257a2f857000801ca04b1205a82d831aa63e558dd53ac18955755b95da38e739ec4695ed8c05d89794a0629d5ecf797cbe6999d364e969f28e19330bb389435f66f13282a99d12871679",
      "networkId": 0,
      "chainId": 0
    }
  ]
}