{
  "hash": "0xa47e44489d4c5cfd09860ad7396d85d53d8065c1b29a58ea9e6a378920573515",
  "parentHash": "0xf51d145b6a5063ad936182bcbf3409adeed192c805be2f79f1f9b61279b87ece",
  "number": 94774,
  "timestamp": 1439713975,
  "nonce": "0xf687228576c19e70",
  "difficulty": 3486520317384,
  "gasLimit": {
    "_hex": "0x2fefd8"
  },
  "gasUsed": {
    "_hex": "0x1ec30"
  },
  "miner": "0xe090Ffdced499691fA9379752a59F8A058c1eE4A",
  "extraData": "0x476574682f76312e302e312f6c696e75782f676f312e342e32",
  "transactions": [
    {
      "hash": "0x7bc75502208c0e680696b530e09cd9a4fb36dda79a1327e848d9e94a13f6571b",
      "blockHash": "0xa47e44489d4c5cfd09860ad7396d85d53d8065c1b29a58ea9e6a378920573515",
      "blockNumber": 94774,
      "transactionIndex": 0,
      "confirmations": null,
      "from": "0x59cC965F1643a68ad7a4272ff1654d4af4343ea7",
      "gasPrice": {
        "_hex": "0xcfe55ae8b"
      },
      "gasLimit": {
        "_hex": "0x5208"
      },
      "to": "0x32Be343B94f860124dC4fEe278FDCBD38C102D88",
      "value": {
        "_hex": "0x10c2e6ff5329a0000"
      },
      "nonce": 2,
      "data": "0x",
      "r": "0x5367dfe4e32281eafc866f6a7ce4c5785546208b32df026d9fb5e0fb966de121",
      "s": "0x0b84d83a3828cc094d58f7d9c93de555e1770629fda106130e4dd4b5488a7332",
      "v": 28,
      "creates": null,
      "raw": "0xf86d02850cfe55ae8b8252089432be343b94f860124dc4fee278fdcbd38c102d8889010c2e6ff5329a0000801ca05367dfe4e32281eafc866f6a7ce4c5785546208b32df026d9fb5e0fb966de121a00b84d83a3828cc094d58f7d9c93de555e1770629fda106130e4dd4b5488a7332",
      "networkId": 0,
      "chainId": 0
    },
    {
      "hash": "0x918de40da153d5d1ec3e88a4719a09e49d0fe5506f76460190bfbcd676c2bae3",
      "blockHash": "0xa47e44489d4c5cfd09860ad7396d85d53d8065c1b29a58ea9e6a378920573515",
      "blockNumber": 94774,
      "transactionIndex": 1,
      "confirmations": null,
      "from": "0x5BeBc02e4CDF3e92B5a2947CfD1430c4EBBa4039",
      "gasPrice": {
        "_hex": "0xcfe55ae8b"
      },
      "gasLimit": {
        "_hex": "0x5208"
      },
      "to": "0x32Be343B94f860124dC4fEe278FDCBD38C102D88",
      "value": {
        "_hex": "0x7c3362285c2d6400"
      },
      "nonce": 2,
      "data": "0x",
      "r": "0xf9b327db4bd780008f6666f400c07f5cf1596972275b85305d5d259cd235854f",
      "s": "0x78503cc3174c8618e891417b78cf89a089187a93617963ae1cea6917e722a2e0",
      "v": 28,
      "creates": null,
      "raw": "0xf86c02850cfe55ae8b8252089432be343b94f860124dc4fee278fdcbd38c102d88887c3362285c2d6400801ca0f9b327db4bd780008f6666f400c07f5cf1596972275b85305d5d259cd235854fa078503cc3174c8618e891417b78cf89a089187a93617963ae1cea6917e722a2e0",
      "networkId": 0,
      "chainId": 0
    },
    {
      "hash": "0xf6cf9349a08b60c95e7ad4c9851049cb2e4ec2a24d0764197e141d6913593498",
      "blockHash": "0xa47e44489d4c5cfd09860ad7396d85d53d8065c1b29a58ea9e6a378920573515",
      "blockNumber": 94774,
      "transactionIndex": 2,
      "confirmations": null,
      "from": "0x037658E13e294088Cfd16A534b9C1F3B37282eB2",
      "gasPrice": {
        "_hex": "0xcfe55ae8b"
      },
      "gasLimit": {
        "_hex": "0x5208"
      },
      "to": "0x32Be343B94f860124dC4fEe278FDCBD38C102D88",
      "value": {
        "_hex": "0x4ca43b189f3e8800"
      },
      "nonce": 1,
      "data": "0x",
      "r": "0x7fc71362a252ca5716b2893b3de686b84dcee886e6524e7af795d19b16913144",
      "s": "0x13c801c798e2afd94eb3ff8f961cd1428d6fa99cfa1f46306623422c0f0e3ca6",
      "v": 27,
      "creates": null,
      "raw": "0xf86c01850cfe55ae8b8252089432be343b94f860124dc4fee278fdcbd38c102d88884ca43b189f3e8800801ba07fc71362a252ca5716b2893b3de686b84dcee886e6524e7af795d19b16913144a013c801c798e2afd94eb3ff8f961cd1428d6fa99cfa1f46306623422c0f0e3ca6",
      "networkId": 0,
      "chainId": 0
    },
    {
      "hash": "0x31946f3f0437ffb9a084fb3fb44b748e5106e565f205ed0f7e12fca72e24fc5b",
      "blockHash": "0xa47e44489d4c5cfd09860ad7396d85d53d8065c1b29a58ea9e6a378920573515",
      "blockNumber": 94774,
      "transactionIndex": 3,
      "confirmations": null,
      "from": "0xF2B3F8Eb4e663dA275b8C57fe45A0E8D489Eac2E",
      "gasPrice": {
        "_hex": "0xcfe55ae8b"
      },
      "gasLimit": {
        "_hex": "0x5208"
      },
      "to": "0x32Be343B94f860124dC4fEe278FDCBD38C102D88",
      "value": {
        "_hex": "0x4677d730ebeb6c00"
      },
      "nonce": 0,
      "data": "0x",
      "r": "0xa5985d7d5ecc607aae3d6e9ab28bbd57e4a4c812393fd469fffc9f289c7971c6",
      "s": "0x5d31aea135f297599998949d16bfd840a848494fe87fd4c1b89c7d7a89a8c8f9",
      "v": 27,
      "creates": null,
      "raw": "0xf86c80850cfe55ae8b8252089432be343b94f860124dc4fee278fdcbd38c102d88884677d730ebeb6c00801ba0a5985d7d5ecc607aae3d6e9ab28bbd57e4a4c812393fd469fffc9f289c7971c6a05d31aea135f297599998949d16bfd840a848494fe87fd4c1b89c7d7a89a8c8f9",
      "networkId": 0,
      "chainId": 0
    },
    {
      "hash": "0xd23f41966b67218f629612fb003784ff8367791c36bab1af574ab2a66c569512",
      "blockHash": "0xa47e44489d4c5cfd09860ad7396d85d53d8065c1b29a58ea9e6a378920573515",
      "blockNumber": 94774,
      "transactionIndex": 4,
      "confirmations": null,
      "from": "0x4a900C6a7785648E677cd96E39603466c0C7744A",
      "gasPrice": {
        "_hex": "0xcfe55ae8b"
      },
      "gasLimit": {
        "_hex": "0x5208"
      },
      "to": "0x32Be343B94f860124dC4fEe278FDCBD38C102D88",
      "value": {
        "_hex": "0x4f2f9c180c3a4000"
      },
      "nonce": 2,
      "data": "0x",
      "r": "0x49b48eda081aeac490443601e391ad2ff85bccafbedfadda455baa3efd5906fa",
      "s": "0x2ae374373801f5454512de883b3dd55fe40d6b301897bd65314b9c1b414f2c04",
      "v": 28,
      "creates": null,
      "raw": "0xf86c02850cfe55ae8b8252089432be343b94f860124dc4fee278fdcbd38c102d88884f2f9c180c3a4000801ca049b48eda081aeac490443601e391ad2ff85bccafbedfadda455baa3efd5906faa02ae374373801f5454512de883b3dd55fe40d6b301897bd65314b9c1b414f2c04",
      "networkId": 0,
      "chainId": 0
    },
    {
      "hash": "0xc2bde28c5d59b7864996a9a22785a6213444cb6830b025e46c521feb5807632c",
      "blockHash": "0xa47e44489d4c5cfd09860ad7396d85d53d8065c1b29a58ea9e6a378920573515",
      "blockNumber": 94774,
      "transactionIndex": 5,
      "confirmations": null,
      "from": "0x665646727edaAEbB32B5F1A9b4e4F3BD867AA8fB",
      "gasPrice": {
        "_hex": "0xcfe55ae8b"
      },
      "gasLimit": {
        "_hex": "0x5208"
      },
      "to": "0x32Be343B94f860124dC4fEe278FDCBD38C102D88",
      "value": {
        "_hex": "0x5a4cb047b9ce5c000"
      },
      "nonce": 2,
      "data": "0x",
      "r": "0x49422684c14b124131b42c2d5823dc59b17566916b43a341a2153ef4e60d9614",
      "s": "0x09cb43e2ad154b756f054188a95ef5dfe422a89f773d749e76bba8d4ad5ee1c2",
      "v": 28,
      "creates": null,
      "raw": "0xf86d02850cfe55ae8b8252089432be343b94f860124dc4fee278fdcbd38c102d888905a4cb047b9ce5c000801ca049422684c14b124131b42c2d5823dc59b17566916b43a341a2153ef4e60d9614a009cb43e2ad154b756f054188a95ef5dfe422a89f773d749e76bba8d4ad5ee1c2",
      "networkId": 0,
      "chainId": 0
    }
  ]
}