{
  "hash": "0x8ddbaf794eda1267920a6c096b6c998687bb1a3e9a2ea6ee801e35ea764511ee",
  "parentHash": "0x6d91edb0db2593361f95e8ea634bfb6963493db649d149ec426725c68523636b",
  "number": 68266,
  "timestamp": 1439285119,
  "nonce": "0x1fc0315513af84d5",
  "difficulty": 1992846763392,
  "gasLimit": {
    "_hex": "0x2fefd8"
  },
  "gasUsed": {
    "_hex": "0x2f9b0"
  },
  "miner": "0xf8E0CA3Ed80bd541b94BEdCf259e8CF2141A9523",
  "extraData": "0x476574682f76312e302e312f77696e646f77732f676f312e342e32",
  "transactions": [
    {
      "hash": "0x6190c9a5e1045cfc2c5d5de6b4ad5139ba133ed44de5babc52dc4886a5cae9b3",
      "blockHash": "0x8ddbaf794eda1267920a6c096b6c998687bb1a3e9a2ea6ee801e35ea764511ee",
      "blockNumber": 68266,
      "transactionIndex": 0,
      "confirmations": null,
      "from": "0xE97B540e0CF7783F4d91119b8819202dd51265cb",
      "gasPrice": {
        "_hex": "0xba43b7400"
      },
      "gasLimit": {
        "_hex": "0x15f90"
      },
      "to": "0x793AE8C1b1a160BFc07BFB0d04F85eab1A71F4f2",
      "value": {
        "_hex": "0x0"
      },
      "nonce": 0,
      "data": "0x3ba15036",
      "r": "0xa582d8b08f4aa11f894ca6dacb26560b0b4aaf278a88fa8f7a653907179839a7",
      "s": "0x1d2ded843970990f05ab44f75136628e2ec960c63f7cbefacef0bd9d967bdd32",
      "v": 28,
      "creates": null,
      "raw": "0xf86980850ba43b740083015f9094793ae8c1b1a160bfc07bfb0d04f85eab1a71f4f280843ba150361ca0a582d8b08f4aa11f894ca6dacb26560b0b4aaf278a88fa8f7a653907179839a7a01d2ded843970990f05ab44f75136628e2ec960c63f7cbefacef0bd9d967bdd32",
      "networkId": 0,
      "chainId": 0
    },
    {
      "hash": "0xa67f7c3cde4556c4f4365fa69962446e3d306e8d33d01d3015a29d4034ac5eaf",
      "blockHash": "0x8ddbaf794eda1267920a6c096b6c998687bb1a3e9a2ea6ee801e35ea764511ee",
      "blockNumber": 68266,
      "transactionIndex": 1,
      "confirmations": null,
      "from": "0x64be5c0AC7252bcFC7D7e67aCd4bA4FeEDF8D3b6",
      "gasPrice": {
        "_hex": "0xba43b7400"
      },
      "gasLimit": {
        "_hex": "0x15f90"
      },
      "to": "0x793AE8C1b1a160BFc07BFB0d04F85eab1A71F4f2",
      "value": {
        "_hex": "0x0"
      },
      "nonce": 0,
      "data": "0x3ba15036",
      "r": "0x11a78c612cce98ad8fb69e331d90bdcec5944bb289c0451d39c4587dfe6e2632",
      "s": "0x07096216e3e8e58cfad1edf155a1a54a89a3ffec62967e90f13cdce198223635",
      "v": 28,
      "creates": null,
      "raw": "0xf86980850ba43b740083015f9094793ae8c1b1a160bfc07bfb0d04f85eab1a71f4f280843ba150361ca011a78c612cce98ad8fb69e331d90bdcec5944bb289c0451d39c4587dfe6e2632a007096216e3e8e58cfad1edf155a1a54a89a3ffec62967e90f13cdce198223635",
      "networkId": 0,
      "chainId": 0
    },
    {
      "hash": "0xe2aa70fe71ec46c5eb350bf49eb02572f320010f1bca5fcbda2e47bb7144180a",
      "blockHash": "0x8ddbaf794eda1267920a6c096b6c998687bb1a3e9a2ea6ee801e35ea764511ee",
      "blockNumber": 68266,
      "transactionIndex": 2,
      "confirmations": null,
      "from": "0x1C8f021d6914cc1f0001Aac43D04DbD0612F6335",
      "gasPrice": {
        "_hex": "0xba43b7400"
      },
      "gasLimit": {
        "_hex": "0x15f90"
      },
      "to": "0x793AE8C1b1a160BFc07BFB0d04F85eab1A71F4f2",
      "value": {
        "_hex": "0x0"
      },
      "nonce": 0,
      "data": "0x3ba15036",
      "r": "0x2a62ac7022451398778e8f82ed3e8a07e52fe9cf5dbbeb5ee3cd79d526c77803",
      "s": "0x764e27a630a4748cb1acc91921fadf9a7fab7437c9af0440bbd03e7074a4d421",
      "v": 27,
      "creates": null,
      "raw": "0xf86980850ba43b740083015f9094793ae8c1b1a160bfc07bfb0d04f85eab1a71f4f280843ba150361ba02a62ac7022451398778e8f82ed3e8a07e52fe9cf5dbbeb5ee3cd79d526c77803a0764e27a630a4748cb1acc91921fadf9a7fab7437c9af0440bbd03e7074a4d421",
      "networkId": 0,
      "chainId": 0
    },
    {
      "hash": "0x283e0009a69f0b3d0bc8c063f0d208e6f5d6ca0cf9fddf0b847811c598f1130f",
      "blockHash": "0x8ddbaf794eda1267920a6c096b6c998687bb1a3e9a2ea6ee801e35ea764511ee",
      "blockNumber": 68266,
      "transactionIndex": 3,
      "confirmations": null,
      "from": "0x806AfFE1A185E98ab47285FD4802DFAB6942e063",
      "gasPrice": {
        "_hex": "0xba43b7400"
      },
      "gasLimit": {
        "_hex": "0x15f90"
      },
      "to": "0x793AE8C1b1a160BFc07BFB0d04F85eab1A71F4f2",
      "value": {
        "_hex": "0x0"
      },
      "nonce": 0,
      "data": "0x3ba15036",
      "r": "0x61c0ac6a4b78c00aaa30bf8c4ed14a04accc27ee5d89f8b810ace5c97ad14308",
      "s": "0x4ea084d1f3fbf28458f965c6bb62d068478626d20d84e5a0a481a4c862a1cba4",
      "v": 27,
      "creates": null,
      "raw": "0xf86980850ba43b740083015f9094793ae8c1b1a160bfc07bfb0d04f85eab1a71f4f280843ba150361ba061c0ac6a4b78c00aaa30bf8c4ed14a04accc27ee5d89f8b810ace5c97ad14308a04ea084d1f3fbf28458f965c6bb62d068478626d20d84e5a0a481a4c862a1cba4",
      "networkId": 0,
      "chainId": 0
    }
  ]
}