{
  "hash": "0xe68e7326e462b89873519a8d12528f95357d4b71215c57a32fe75c77b74ed5a7",
  "parentHash": "0xe6ca04612795e2447f51caaf6c6226a2c0c02f7e47c0268ca094ddb939d1fdbf",
  "number": 71903,
  "timestamp": 1439343747,
  "nonce": "0xe11985fa3b720005",
  "difficulty": 2169680262296,
  "gasLimit": {
    "_hex": "0x2fe412"
  },
  "gasUsed": {
    "_hex": "0xe5ba"
  },
  "miner": "0xe6A7a1d47ff21B6321162AEA7C6CB457D5476Bca",
  "extraData": "0x476574682f76312e302e312d38326566323666362f6c696e75782f676f312e34",
  "transactions": [
    {
      "hash": "0x56e1c4e623926bc6e97c8cbbf8919bf1ec0502f8af2c737288a966846ee23f0a",
      "blockHash": "0xe68e7326e462b89873519a8d12528f95357d4b71215c57a32fe75c77b74ed5a7",
      "blockNumber": 71903,
      "transactionIndex": 0,
      "confirmations": null,
      "from": "0x17580B766f7453525ca4C6A88b01b50570EA088C",
      "gasPrice": {
        "_hex": "0xe11555083"
      },
      "gasLimit": {
        "_hex": "0x61a80"
      },
      "to": "0x5Fe5B7546D1628f7348B023A0393de1FC825A4fD",
      "value": {
        "_hex": "0x8ac7230489e80000"
      },
      "nonce": 290,
      "data": "0xb595b8b50000000000000000000000000000000000000000000000000000000000000000",
      "r": "0x2e87a3bbf8a65b63490aa1c391f284dac480ac14fd26f6bf864ec4e6d6c9074b",
      "s": "0x2b9c13ceb778ef6c7b3bfdb4687f207b4f6952c9c45601d6ebba299c5e203ccc",
      "v": 27,
      "creates": null,
      "raw": "0xf893820122850e1155508383061a80945fe5b7546d1628f7348b023a0393de1fc825a4fd888ac7230489e80000a4b595b8b500000000000000000000000000000000000000000000000000000000000000001ba02e87a3bbf8a65b63490aa1c391f284dac480ac14fd26f6bf864ec4e6d6c9074ba02b9c13ceb778ef6c7b3bfdb4687f207b4f6952c9c45601d6ebba299c5e203ccc",
      "networkId": 0,
      "chainId": 0
    },
    {
      "hash": "0x4eab490b8570e19a723e87988fe7564154b682782cded9ca8d5f66305a2377ba",
      "blockHash": "0xe68e7326e462b89873519a8d12528f95357d4b71215c57a32fe75c77b74ed5a7",
      "blockNumber": 71903,
      "transactionIndex": 1,
      "confirmations": null,
      "from": "0x120A270bbC009644e35F0bB6ab13f95b8199c4ad",
      "gasPrice": {
        "_hex": "0xd53bc2aeb"
      },
      "gasLimit": {
        "_hex": "0x15f90"
      },
      "to": "0x13c81D069E951c86fa478E711BAf692116124Aa4",
      "value": {
        "_hex": "0x51a1ecebe66dbe800"
      },
      "nonce": 240,
      "data": "0x",
      "r": "0x5cebfb6847b82736d3dd773e8347d83b6d6d2907b22b9aec07fbc0898e8594bc",
      "s": "0x53bcec46cf131947b56cfceb385f239a41a70a3901ea39132adaa1bd7320aed4",
      "v": 28,
      "creates": null,
      "raw": "0xf86f81f0850d53bc2aeb83015f909413c81d069e951c86fa478e711baf692116124aa489051a1ecebe66dbe800801ca05cebfb6847b82736d3dd773e8347d83b6d6d2907b22b9aec07fbc0898e8594bca053bcec46cf131947b56cfceb385f239a41a70a3901ea39132adaa1bd7320aed4",
      "networkId": 0,
      "chainId": 0
    }
  ]
}