{
  "hash": "0xc762be4fc5ebd97a3e2af045fc563189a9bbc67dc843585b4d9f42fe2913a3c0",
  "parentHash": "0x08c875bd90dc7589c792d8db47c967c91d9a2f354142c0f00b137f7a2d6ea810",
  "number": 54913,
  "timestamp": 1439062245,
  "nonce": "0x0be130fa60f5763e",
  "difficulty": 1614061369195,
  "gasLimit": {
    "_hex": "0x2fefd8"
  },
  "gasUsed": {
    "_hex": "0x54c06"
  },
  "miner": "0x9298A283561414096A90B8e52c2202D03F3406A9",
  "extraData": "0x476574682f76312e302e312f6c696e75782f676f312e342e32",
  "transactions": [
    {
      "hash": "0xfea140f3d2dd3f00dd1db329b5531936aae1fd44f1949f4e42ab71c8a26f43cb",
      "blockHash": "0xc762be4fc5ebd97a3e2af045fc563189a9bbc67dc843585b4d9f42fe2913a3c0",
      "blockNumber": 54913,
      "transactionIndex": 0,
      "confirmations": null,
      "from": "0x1308A2e95c0160B90803ddCA9B9a5bb55E416d79",
      "gasPrice": {
        "_hex": "0xe8d4a51000"
      },
      "gasLimit": {
        "_hex": "0x15f90"
      },
      "to": "0x8B17545b2982A5f30ebde5093488D357C787390d",
      "value": {
        "_hex": "0x88009813ced40000"
      },
      "nonce": 16,
      "data": "0x",
      "r": "0xc1a1bbccaf61406cd3e93293af430b7f39776531d33465fe4fdeeafc7bad1e07",
      "s": "0x384c3c88c785579f20b0c37e5469efc88fd9d65bd73e4ee06f9e9810c2df02c4",
      "v": 28,
      "creates": null,
      "raw": "0xf86d1085e8d4a5100083015f90948b17545b2982a5f30ebde5093488d357c787390d8888009813ced40000801ca0c1a1bbccaf61406cd3e93293af430b7f39776531d33465fe4fdeeafc7bad1e07a0384c3c88c785579f20b0c37e5469efc88fd9d65bd73e4ee06f9e9810c2df02c4",
      "networkId": 0,
      "chainId": 0
    },
    {
      "hash": "0x5e59ddb49e72e79d84c5fa5d801df0fb8b2c64a32b4c914aaf3979514d37c31a",
      "blockHash": "0xc762be4fc5ebd97a3e2af045fc563189a9bbc67dc843585b4d9f42fe2913a3c0",
      "blockNumber": 54913,
      "transactionIndex": 1,
      "confirmations": null,
      "from": "0xFD2605a2bF58fDbB90db1Da55dF61628B47F9e8c",
      "gasPrice": {
        "_hex": "0xcc617cb42"
      },
      "gasLimit": {
        "_hex": "0xf4240"
      },
      "to": null,
      "value": {
        "_hex": "0x0"
      },
      "nonce": 11,
      "data": "0x606060405243600055610431806100176000396000f300606060405260e060020a60003504635e0572a781146100475780635ec01e4d146100cd57806363bd1d4a14610141578063e0fe075e14610152578063e542327414610177575b005b61004560043560006044605843061080156100655750603060584306115b1561029457600160a060020a03331660009081526004602052604090819020548151780100000000000000000000000000000000000000000000000067ffffffffffffffff861602815291519182900360080190912014156102945760038054839190610002565b6101c45b60008080805b600354821015610211576003805483908110156100025760009190915260048082047fc2575a0e9e593c00f959f8c92f12db2869c3395a3b0502d05e2516446f71f85b015491066008026101000a900467ffffffffffffffff1690921891600191909101906100d7565b6101e2600060006000610298610156565b6101ff5b6000604460584306118015610172575060446000600050544303115b905090565b61004560043560286058430610156101c157600160a060020a0333166000908152600460209081526040808320849055600590915290208054349081019091556001805490910190555b50565b6040805167ffffffffffffffff929092168252519081900360200190f35b60408051600160a060020a03929092168252519081900360200190f35b60408051918252519081900360200190f35b50815b60025467ffffffffffffffff821611156102625760025461ffff821610156102685761ffff8167ffffffffffffffff16069350610262565b60025461ffff1667ffffffffffffffff82160693505b50505090565b620100008167ffffffffffffffff16111561024c576201000067ffffffffffffffff9190911604610214565b5050565b156102ab5760026102b06100d1565b8192505b505090565b8154811015610002576000918252602082200154600154604051600160a060020a039290921694508492916161a83a029091039082818181858883f150504382555060028054828255915261032a91507f405787fa12a823e0f2b7631cc41b3ba8828b3321ca811111fa75cd3aa3bb5ace90810190610366565b5060038054600080835582905261037e9160049101047fc2575a0e9e593c00f959f8c92f12db2869c3395a3b0502d05e2516446f71f85b908101905b8082111561037a5760008155600101610366565b5090565b5050600060018190555b6002548110156102a757600280546004916000918490811015610002577f405787fa12a823e0f2b7631cc41b3ba8828b3321ca811111fa75cd3aa3bb5ace0154600160a060020a03168252602092909252604081208190558154600592908490811015610002577f405787fa12a823e0f2b7631cc41b3ba8828b3321ca811111fa75cd3aa3bb5ace0154600160a060020a0316825250602091909152604081205560010161038856",
      "r": "0x7d8bca7f6099ff1b4a8808937b7d57cd389b23b52f210ab8b55fa8e0c4230210",
      "s": "0x4e0c2ec10ba6319ce02d47be6a78493ab896250a35c5a0ae16ec373fe17e9d74",
      "v": 28,
      "creates": "0xF6bF0eE51FE0ee92500bB22295382E9241eC3b5C",
      "raw": "0xf9049b0b850cc617cb42830f42408080b90448606060405243600055610431806100176000396000f300606060405260e060020a60003504635e0572a781146100475780635ec01e4d146100cd57806363bd1d4a14610141578063e0fe075e14610152578063e542327414610177575b005b61004560043560006044605843061080156100655750603060584306115b1561029457600160a060020a03331660009081526004602052604090819020548151780100000000000000000000000000000000000000000000000067ffffffffffffffff861602815291519182900360080190912014156102945760038054839190610002565b6101c45b60008080805b600354821015610211576003805483908110156100025760009190915260048082047fc2575a0e9e593c00f959f8c92f12db2869c3395a3b0502d05e2516446f71f85b015491066008026101000a900467ffffffffffffffff1690921891600191909101906100d7565b6101e2600060006000610298610156565b6101ff5b6000604460584306118015610172575060446000600050544303115b905090565b61004560043560286058430610156101c157600160a060020a0333166000908152600460209081526040808320849055600590915290208054349081019091556001805490910190555b50565b6040805167ffffffffffffffff929092168252519081900360200190f35b60408051600160a060020a03929092168252519081900360200190f35b60408051918252519081900360200190f35b50815b60025467ffffffffffffffff821611156102625760025461ffff821610156102685761ffff8167ffffffffffffffff16069350610262565b60025461ffff1667ffffffffffffffff82160693505b50505090565b620100008167ffffffffffffffff16111561024c576201000067ffffffffffffffff9190911604610214565b5050565b156102ab5760026102b06100d1565b8192505b505090565b8154811015610002576000918252602082200154600154604051600160a060020a039290921694508492916161a83a029091039082818181858883f150504382555060028054828255915261032a91507f405787fa12a823e0f2b7631cc41b3ba8828b3321ca811111fa75cd3aa3bb5ace90810190610366565b5060038054600080835582905261037e9160049101047fc2575a0e9e593c00f959f8c92f12db2869c3395a3b0502d05e2516446f71f85b908101905b8082111561037a5760008155600101610366565b5090565b5050600060018190555b6002548110156102a757600280546004916000918490811015610002577f405787fa12a823e0f2b7631cc41b3ba8828b3321ca811111fa75cd3aa3bb5ace0154600160a060020a03168252602092909252604081208190558154600592908490811015610002577f405787fa12a823e0f2b7631cc41b3ba8828b3321ca811111fa75cd3aa3bb5ace0154600160a060020a03168252506020919091526040812055600101610388561ca07d8bca7f6099ff1b4a8808937b7d57cd389b23b52f210ab8b55fa8e0c4230210a04e0c2ec10ba6319ce02d47be6a78493ab896250a35c5a0ae16ec373fe17e9d74",
      "networkId": 0,
      "chainId": 0
    }
  ]
}