{
  "hash": "0x44f501bb86b3ea66db27b32f66fab202558a3a1a9abf12186a5e12e732d32d8f",
  "parentHash": "0xf71694b5a0f6de9f6b7c650462dff5e2829f9b670edca79403fb4e93860c87c1",
  "number": 95838,
  "timestamp": 1439730428,
  "nonce": "0x25e7fd506f867bfd",
  "difficulty": 3639135341205,
  "gasLimit": {
    "_hex": "0x2fefd8"
  },
  "gasUsed": {
    "_hex": "0xa410"
  },
  "miner": "0xE300c4587D260cE22a677755Db6429B491A4309E",
  "extraData": "0x",
  "transactions": [
    {
      "hash": "0x2733d056833a67e3efe617fad9b5a37cad1a5d9d7793d0df0b2f1d59a5711a60",
      "blockHash": "0x44f501bb86b3ea66db27b32f66fab202558a3a1a9abf12186a5e12e732d32d8f",
      "blockNumber": 95838,
      "transactionIndex": 0,
      "confirmations": null,
      "from": "0x1151790FE5F7C3113dfb07Dc3914B1916EcC8a7A",
      "gasPrice": {
        "_hex": "0xdd1e8ac23"
      },
      "gasLimit": {
        "_hex": "0x5208"
      },
      "to": "0x32Be343B94f860124dC4fEe278FDCBD38C102D88",
      "value": {
        "_hex": "0x26f39774a3ad6000"
      },
      "nonce": 2,
      "data": "0x",
      "r": "0x1bda9386d54134962c83d434e610c5417c6e0000c3cac8fd11872d81ed9a1862",
      "s": "0x112f6beb8a00ff205b019679832a39730edeeb41f5b85a4de20aeff710662b4b",
      "v": 28,
      "creates": null,
      "raw": "0xf86c02850dd1e8ac238252089432be343b94f860124dc4fee278fdcbd38c102d888826f39774a3ad6000801ca01bda9386d54134962c83d434e610c5417c6e0000c3cac8fd11872d81ed9a1862a0112f6beb8a00ff205b019679832a39730edeeb41f5b85a4de20aeff710662b4b",
      "networkId": 0,
      "chainId": 0
    },
    {
      "hash": "0xa5fe01c4f2f6935767426aafdf7def360f1a7a8a5787d842ef14714d71ce8a36",
      "blockHash": "0x44f501bb86b3ea66db27b32f66fab202558a3a1a9abf12186a5e12e732d32d8f",
      "blockNumber": 95838,
      "transactionIndex": 1,
      "confirmations": null,
      "from": "0xb1abce2918E21ddb93AA452731a12672A3d9F75a",
      "gasPrice": {
        "_hex": "0xdd1e8ac23"
      },
      "gasLimit": {
        "_hex": "0x5208"
      },
      "to": "0x32Be343B94f860124dC4fEe278FDCBD38C102D88",
      "value": {
        "_hex": "0x455f188e19b11c00"
      },
      "nonce": 42,
      "data": "0x",
      "r": "0x2b19fd9e6d94678f14f0449f966917748836d8f99170dc6e44f57f6ec65cd0ba",
      "s": "0x4caadd7dde02bdf1adb82f0df120575d6834bf2c91b2095e95849f4237ce9dac",
      "v": 27,
      "creates": null,
      "raw": "0xf86c2a850dd1e8ac238252089432be343b94f860124dc4fee278fdcbd38c102d8888455f188e19b11c00801ba02b19fd9e6d94678f14f0449f966917748836d8f99170dc6e44f57f6ec65cd0baa04caadd7dde02bdf1adb82f0df120575d6834bf2c91b2095e95849f4237ce9dac",
      "networkId": 0,
      "chainId": 0
    }
  ]
}