{
  "hash": "0x9bd78dc727f35dbcf9c10483739bb86c96f19922c3b4f715bdcd393fb181868e",
  "parentHash": "0xaf70c3e5b02bb006db14e97d92dd1f52057ca2fe9bbac747942ce4ae98813fef",
  "number": 108836,
  "timestamp": 1439946929,
  "nonce": "0x813746b316d23b19",
  "difficulty": 4378560772158,
  "gasLimit": {
    "_hex": "0x2fefd8"
  },
  "gasUsed": {
    "_hex": "0xa674"
  },
  "miner": "0xe6A7a1d47ff21B6321162AEA7C6CB457D5476Bca",
  "extraData": "0x476574682f76312e302e312d38326566323666362f6c696e75782f676f312e34",
  "transactions": [
    {
      "hash": "0xdd7c7ba94156e1c41b50e3b4b4554b109b4f9127a41d959f243b7263f7ef2cb4",
      "blockHash": "0x9bd78dc727f35dbcf9c10483739bb86c96f19922c3b4f715bdcd393fb181868e",
      "blockNumber": 108836,
      "transactionIndex": 0,
      "confirmations": null,
      "from": "0x6c8687E3417710Bb8a93559021A1469E6a86BC77",
      "gasPrice": {
        "_hex": "0x110c8f7d8de"
      },
      "gasLimit": {
        "_hex": "0xc350"
      },
      "to": "0x2910543Af39abA0Cd09dBb2D50200b3E800A63D2",
      "value": {
        "_hex": "0x25b244463ecf4180000"
      },
      "nonce": 0,
      "data": "0x454e45503139343552",
      "r": "0x9ed10cfde81c250026dd1617e6ee4db7f0f0265af7494f259dd77785859c7262",
      "s": "0xe16f9de7f5beb78bec6160537acb5bb9f71a979b7777c9ad30284c32ec1f9aff",
      "v": 27,
      "creates": null,
      "raw": "0xf87880860110c8f7d8de82c350942910543af39aba0cd09dbb2d50200b3e800a63d28a025b244463ecf418000089454e455031393435521ba09ed10cfde81c250026dd1617e6ee4db7f0f0265af7494f259dd77785859c7262a0e16f9de7f5beb78bec6160537acb5bb9f71a979b7777c9ad30284c32ec1f9aff",
      "networkId": 0,
      "chainId": 0
    },
    {
      "hash": "0x4c112acca942f33efe50d62e0a4d946cbd19083d756685031c0b1cce192c3942",
      "blockHash": "0x9bd78dc727f35dbcf9c10483739bb86c96f19922c3b4f715bdcd393fb181868e",
      "blockNumber": 108836,
      "transactionIndex": 1,
      "confirmations": null,
      "from": "0x8461Ecc4a6A45eb1a5b947FB86B88069b91fcD6F",
      "gasPrice": {
        "_hex": "0x10217109382"
      },
      "gasLimit": {
        "_hex": "0x7530"
      },
      "to": "0x6A62b5108FE4EDDd296093fFB802B67B85E90ddE",
      "value": {
        "_hex": "0x6aaf7c8516d0c0000"
      },
      "nonce": 5,
      "data": "0x",
      "r": "0x61d1b1466cb2a0717782942152793d6301238054c7ad044120042ab4449ad13a",
      "s": "0x6f07d267799ae674cc95cd1688d839184215dc30dd71387ff162950a6e622ab4",
      "v": 27,
      "creates": null,
      "raw": "0xf86e0586010217109382827530946a62b5108fe4eddd296093ffb802b67b85e90dde8906aaf7c8516d0c0000801ba061d1b1466cb2a0717782942152793d6301238054c7ad044120042ab4449ad13aa06f07d267799ae674cc95cd1688d839184215dc30dd71387ff162950a6e622ab4",
      "networkId": 0,
      "chainId": 0
    }
  ]
}