{
  "hash": "0x75b37664b13b2bb58639e8a52366eaebc1f2a43d9786c890a5f0f8c65f04fb5c",
  "parentHash": "0x4aadd6343b9c5b597bdf9c78b9da7c556a04773e44cab3f2d80c1f05c118faae",
  "number": 68581,
  "timestamp": 1439290322,
  "nonce": "0x6a3a89c0d9160efd",
  "difficulty": 2017246841804,
  "gasLimit": {
    "_hex": "0x2fefd8"
  },
  "gasUsed": {
    "_hex": "0xa410"
  },
  "miner": "0xe6A7a1d47ff21B6321162AEA7C6CB457D5476Bca",
  "extraData": "0x476574682f76312e302e312d38326566323666362f6c696e75782f676f312e34",
  "transactions": [
    {
      "hash": "0xa9a1fe6fcae4b03192ba4304a3a2ed20a219decf1aa5bd0ccff0661109513e87",
      "blockHash": "0x75b37664b13b2bb58639e8a52366eaebc1f2a43d9786c890a5f0f8c65f04fb5c",
      "blockNumber": 68581,
      "transactionIndex": 0,
      "confirmations": null,
      "from": "0x0C031A9bBaD5F8A488AE56B1a0a097cE1320aA00",
      "gasPrice": {
        "_hex": "0xba43b7400"
      },
      "gasLimit": {
        "_hex": "0x5208"
      },
      "to": "0xFE25eF71767D111F0D97993357D967bdC709C442",
      "value": {
        "_hex": "0xc1c23435b07000"
      },
      "nonce": 1,
      "data": "0x",
      "r": "0xfda118e07da0fbd78db1f7906483ad6fd48001dcf10a90f9c71f53e4a58e195a",
      "s": "0x3bad5859120ae9e4dd716f6b3ec64e2b94e6d887bab24c072c35232499bfc776",
      "v": 28,
      "creates": null,
      "raw": "0xf86b01850ba43b740082520894fe25ef71767d111f0d97993357d967bdc709c44287c1c23435b07000801ca0fda118e07da0fbd78db1f7906483ad6fd48001dcf10a90f9c71f53e4a58e195aa03bad5859120ae9e4dd716f6b3ec64e2b94e6d887bab24c072c35232499bfc776",
      "networkId": 0,
      "chainId": 0
    },
    {
      "hash": "0xd4fe16654f6c8ea7442891f2f87fdf8686412f0291af86ddc584781712120223",
      "blockHash": "0x75b37664b13b2bb58639e8a52366eaebc1f2a43d9786c890a5f0f8c65f04fb5c",
      "blockNumber": 68581,
      "transactionIndex": 1,
      "confirmations": null,
      "from": "0xC829A397a9935Abf0175cC6c99693Ed29951630b",
      "gasPrice": {
        "_hex": "0xba43b7400"
      },
      "gasLimit": {
        "_hex": "0x5208"
      },
      "to": "0x5074417265c5De26A51B4156410FD817c6c3382F",
      "value": {
        "_hex": "0xc1c23435b07000"
      },
      "nonce": 1,
      "data": "0x",
      "r": "0xb023751a923b72c2dbae940b2a4162e28667ca4554a8f66603d060b8cbd24a1e",
      "s": "0x7d7aad9d772ae133e1c5db3e443eb727f6793ca53c2f75984a24610bd1386137",
      "v": 28,
      "creates": null,
      "raw": "0xf86b01850ba43b7400825208945074417265c5de26a51b4156410fd817c6c3382f87c1c23435b07000801ca0b023751a923b72c2dbae940b2a4162e28667ca4554a8f66603d060b8cbd24a1ea07d7aad9d772ae133e1c5db3e443eb727f6793ca53c2f75984a24610bd1386137",
      "networkId": 0,
      "chainId": 0
    }
  ]
}