{
  "hash": "0xa1e67f775c9a1c772c8b06db90dc88ad4141f2611e32bdd45fba589fab8830c8",
  "parentHash": "0xa968621d5a0d10e920df2f29f996b4c45884f8d072da487544d76eee13fd5611",
  "number": 47953,
  "timestamp": 1438948900,
  "nonce": "0x7703284c9ab03c5f",
  "difficulty": 1460819155052,
  "gasLimit": {
    "_hex": "0x10c46"
  },
  "gasUsed": {
    "_hex": "0x546c"
  },
  "miner": "0x0193d941b50d91BE6567c7eE1C0Fe7AF498b4137",
  "extraData": "0x4a5ace9e4e",
  "transactions": [
    {
      "hash": "0x2318ca7426ef8621b180c698b82e448f33e566b23ddea9eb7c864944d62eba06",
      "blockHash": "0xa1e67f775c9a1c772c8b06db90dc88ad4141f2611e32bdd45fba589fab8830c8",
      "blockNumber": 47953,
      "transactionIndex": 0,
      "confirmations": null,
      "from": "0x7D5D2f73949DaDdA0856B206989Df0078D51A1E5",
      "gasPrice": {
        "_hex": "0x2ba7def3000"
      },
      "gasLimit": {
        "_hex": "0x55f0"
      },
      "to": "0x2910543Af39abA0Cd09dBb2D50200b3E800A63D2",
      "value": {
        "_hex": "0x64"
      },
      "nonce": 0,
      "data": "0x454e364738394a4147",
      "r": "0x15fcda863518b5b2e353bc74b65ce65fb697fa42720e882193d1fa9d0fb6baaf",
      "s": "0x76b3635648e38515c1b51e76714d5a99881355b6076f105a67b5cf337a83fe5f",
      "v": 27,
      "creates": null,
      "raw": "0xf86e808602ba7def30008255f0942910543af39aba0cd09dbb2d50200b3e800a63d26489454e364738394a41471ba015fcda863518b5b2e353bc74b65ce65fb697fa42720e882193d1fa9d0fb6baafa076b3635648e38515c1b51e76714d5a99881355b6076f105a67b5cf337a83fe5f",
      "networkId": 0,
      "chainId": 0
    }
  ]
}