{
  "hash": "0xbc74331dcf6f919447984ac88f849b5361f11d30ead59a7791d6e1c415d92a39",
  "parentHash": "0xb2b82d651f3a44e13f15c54a0e7eb03c6837046995da879a3317e0c77ec268eb",
  "number": 55848,
  "timestamp": 1439077993,
  "nonce": "0xe1abbd9c24e1b835",
  "difficulty": 1611519121101,
  "gasLimit": {
    "_hex": "0x2fefd8"
  },
  "gasUsed": {
    "_hex": "0x2e69d"
  },
  "miner": "0x46A8924B526D6b7d939c059FD4FA94b691Ce57Df",
  "extraData": "0x",
  "transactions": [
    {
      "hash": "0xf56780ee8ce52506dad4be6551c28a71f34193a9d6b85f17b720911d4f0e80cb",
      "blockHash": "0xbc74331dcf6f919447984ac88f849b5361f11d30ead59a7791d6e1c415d92a39",
      "blockNumber": 55848,
      "transactionIndex": 0,
      "confirmations": null,
      "from": "0x1308A2e95c0160B90803ddCA9B9a5bb55E416d79",
      "gasPrice": {
        "_hex": "0x9184e72a000"
      },
      "gasLimit": {
        "_hex": "0x15f90"
      },
      "to": "0x025c3B43d57E72D2150E14B2B0c6D923FbFC0474",
      "value": {
        "_hex": "0x3635c9adc5dea00000"
      },
      "nonce": 36,
      "data": "0x",
      "r": "0xafb1cb633f97ffbed9f8081ff2447c8e86418fda46b4c346fcdbe29ce559b8bf",
      "s": "0x48be46355e688c0a680d5c2c750ee48a827822f9ac22fb4d70880bf579f2340a",
      "v": 27,
      "creates": null,
      "raw": "0xf86f248609184e72a00083015f9094025c3b43d57e72d2150e14b2b0c6d923fbfc0474893635c9adc5dea00000801ba0afb1cb633f97ffbed9f8081ff2447c8e86418fda46b4c346fcdbe29ce559b8bfa048be46355e688c0a680d5c2c750ee48a827822f9ac22fb4d70880bf579f2340a",
      "networkId": 0,
      "chainId": 0
    },
    {
      "hash": "0xba072dee027abb41f0ec47f41b4bea27a47e5c71e12b7005270516a15e018c09",
      "blockHash": "0xbc74331dcf6f919447984ac88f849b5361f11d30ead59a7791d6e1c415d92a39",
      "blockNumber": 55848,
      "transactionIndex": 1,
      "confirmations": null,
      "from": "0x1308A2e95c0160B90803ddCA9B9a5bb55E416d79",
      "gasPrice": {
        "_hex": "0x9184e72a000"
      },
      "gasLimit": {
        "_hex": "0x15f90"
      },
      "to": "0x025c3B43d57E72D2150E14B2B0c6D923FbFC0474",
      "value": {
        "_hex": "0x3635c9adc5dea00000"
      },
      "nonce": 37,
      "data": "0x",
      "r": "0x318b3b80c560202f44fecea45509c58e70691ec336a317dc869e7a8ea731577f",
      "s": "0x10cd791cb5eafefdd68a8b0351c763aca5434f461f0bd7cfa270738a9e1a4ab8",
      "v": 27,
      "creates": null,
      "raw": "0xf86f258609184e72a00083015f9094025c3b43d57e72d2150e14b2b0c6d923fbfc0474893635c9adc5dea00000801ba0318b3b80c560202f44fecea45509c58e70691ec336a317dc869e7a8ea731577fa010cd791cb5eafefdd68a8b0351c763aca5434f461f0bd7cfa270738a9e1a4ab8",
      "networkId": 0,
      "chainId": 0
    },
    {
      "hash": "0x0dbf87d53c07cfee6e9edd2dcee992a6dd36e85814288558a747ec981decb6a4",
      "blockHash": "0xbc74331dcf6f919447984ac88f849b5361f11d30ead59a7791d6e1c415d92a39",
      "blockNumber": 55848,
      "transactionIndex": 2,
      "confirmations": null,
      "from": "0x1308A2e95c0160B90803ddCA9B9a5bb55E416d79",
      "gasPrice": {
        "_hex": "0x9184e72a000"
      },
      "gasLimit": {
        "_hex": "0x15f90"
      },
      "to": "0x025c3B43d57E72D2150E14B2B0c6D923FbFC0474",
      "value": {
        "_hex": "0x3635c9adc5dea00000"
      },
      "nonce": 38,
      "data": "0x",
      "r": "0x193705a617af31549ecc650cb7bf1f82162dba84f0560e7258d5dbf9c8e52a3d",
      "s": "0x282f60cf23664b696fbc7fb2999a8a05a1e05d3217566e8fb28102bde1924b45",
      "v": 27,
      "creates": null,
      "raw": "0xf86f268609184e72a00083015f9094025c3b43d57e72d2150e14b2b0c6d923fbfc0474893635c9adc5dea00000801ba0193705a617af31549ecc650cb7bf1f82162dba84f0560e7258d5dbf9c8e52a3da0282f60cf23664b696fbc7fb2999a8a05a1e05d3217566e8fb28102bde1924b45",
      "networkId": 0,
      "chainId": 0
    },
    {
      "hash": "0xe4887c18e1fa339dee3b2069efc390406ae6c73d9476f830e310c226f415d39b",
      "blockHash": "0xbc74331dcf6f919447984ac88f849b5361f11d30ead59a7791d6e1c415d92a39",
      "blockNumber": 55848,
      "transactionIndex": 3,
      "confirmations": null,
      "from": "0x1308A2e95c0160B90803ddCA9B9a5bb55E416d79",
      "gasPrice": {
        "_hex": "0x9184e72a000"
      },
      "gasLimit": {
        "_hex": "0x15f90"
      },
      "to": "0x025c3B43d57E72D2150E14B2B0c6D923FbFC0474",
      "value": {
        "_hex": "0x3635c9adc5dea00000"
      },
      "nonce": 39,
      "data": "0x",
      "r": "0xb1046605b207987901a16a64ee913f14dffa7f7894c248c43bc67c17d4181d4a",
      "s": "0x2c9acffba560c90ce42e300b5c7d9a421d6452959a5d0798795da7839816d8b2",
      "v": 28,
      "creates": null,
      "raw": "0xf86f278609184e72a00083015f9094025c3b43d57e72d2150e14b2b0c6d923fbfc0474893635c9adc5dea00000801ca0b1046605b207987901a16a64ee913f14dffa7f7894c248c43bc67c17d4181d4aa02c9acffba560c90ce42e300b5c7d9a421d6452959a5d0798795da7839816d8b2",
      "networkId": 0,
      "chainId": 0
    },
    {
      "hash": "0xc0d226082fd99b3450ac8370fbb827044862c3ca92d0d46ebcc497e46bfb15a5",
      "blockHash": "0xbc74331dcf6f919447984ac88f849b5361f11d30ead59a7791d6e1c415d92a39",
      "blockNumber": 55848,
      "transactionIndex": 4,
      "confirmations": null,
      "from": "0x1308A2e95c0160B90803ddCA9B9a5bb55E416d79",
      "gasPrice": {
        "_hex": "0x9184e72a000"
      },
      "gasLimit": {
        "_hex": "0x15f90"
      },
      "to": "0x025c3B43d57E72D2150E14B2B0c6D923FbFC0474",
      "value": {
        "_hex": "0x3635c9adc5dea00000"
      },
      "nonce": 40,
      "data": "0x",
      "r": "0x277cf5dd0b7225754efe13528a6a829aeed76357ac239299b7735c65ae247e51",
      "s": "0x0d749c417db2fd9742c1b9de67ed4c09eee1527a91aae4e740307dc87d48802c",
      "v": 28,
      "creates": null,
      "raw": "0xf86f288609184e72a00083015f9094025c3b43d57e72d2150e14b2b0c6d923fbfc0474893635c9adc5dea00000801ca0277cf5dd0b7225754efe13528a6a829aeed76357ac239299b7735c65ae247e51a00d749c417db2fd9742c1b9de67ed4c09eee1527a91aae4e740307dc87d48802c",
      "networkId": 0,
      "chainId": 0
    },
    {
      "hash": "0x62544753a48f3f5a076b30be8416428e7496bb682ae316b6cd9290573898f72f",
      "blockHash": "0xbc74331dcf6f919447984ac88f849b5361f11d30ead59a7791d6e1c415d92a39",
      "blockNumber": 55848,
      "transactionIndex": 5,
      "confirmations": null,
      "from": "0x1308A2e95c0160B90803ddCA9B9a5bb55E416d79",
      "gasPrice": {
        "_hex": "0x9184e72a000"
      },
      "gasLimit": {
        "_hex": "0x15f90"
      },
      "to": "0x025c3B43d57E72D2150E14B2B0c6D923FbFC0474",
      "value": {
        "_hex": "0x3635c9adc5dea00000"
      },
      "nonce": 41,
      "data": "0x",
      "r": "0x164e1c3e86825bb42a0d05fdba9251a14edde6154e99cbb30e621d8269348fd7",
      "s": "0x38b7d13746582cf29c2d9af6db01edeaa4824a73fa7d1fec12cbef0988e0954d",
      "v": 28,
      "creates": null,
      "raw": "0xf86f298609184e72a00083015f9094025c3b43d57e72d2150e14b2b0c6d923fbfc0474893635c9adc5dea00000801ca0164e1c3e86825bb42a0d05fdba9251a14edde6154e99cbb30e621d8269348fd7a038b7d13746582cf29c2d9af6db01edeaa4824a73fa7d1fec12cbef0988e0954d",
      "networkId": 0,
      "chainId": 0
    },
    {
      "hash": "0xa7b7221d4b717d89dac7dba037730b872222bc580e59733779461dfb3366d1d5",
      "blockHash": "0xbc74331dcf6f919447984ac88f849b5361f11d30ead59a7791d6e1c415d92a39",
      "blockNumber": 55848,
      "transactionIndex": 6,
      "confirmations": null,
      "from": "0x1308A2e95c0160B90803ddCA9B9a5bb55E416d79",
      "gasPrice": {
        "_hex": "0x9184e72a000"
      },
      "gasLimit": {
        "_hex": "0x15f90"
      },
      "to": "0x025c3B43d57E72D2150E14B2B0c6D923FbFC0474",
      "value": {
        "_hex": "0x3635c9adc5dea00000"
      },
      "nonce": 42,
      "data": "0x",
      "r": "0xe5a2355f12701359e23acdd283450c601f5d7e4fd196bb63df85cc49c976db5e",
      "s": "0x3a6b02582bf05734e3b1fe66c59a89ac77598f7e7b1c78dfeed8081a0db05dde",
      "v": 28,
      "creates": null,
      "raw": "0xf86f2a8609184e72a00083015f9094025c3b43d57e72d2150e14b2b0c6d923fbfc0474893635c9adc5dea00000801ca0e5a2355f12701359e23acdd283450c601f5d7e4fd196bb63df85cc49c976db5ea03a6b02582bf05734e3b1fe66c59a89ac77598f7e7b1c78dfeed8081a0db05dde",
      "networkId": 0,
      "chainId": 0
    },
    {
      "hash": "0xf3edae4c8bd25d572593828321112ae8dab175da16bfed094fe906b3838c2f75",
      "blockHash": "0xbc74331dcf6f919447984ac88f849b5361f11d30ead59a7791d6e1c415d92a39",
      "blockNumber": 55848,
      "transactionIndex": 7,
      "confirmations": null,
      "from": "0x1308A2e95c0160B90803ddCA9B9a5bb55E416d79",
      "gasPrice": {
        "_hex": "0x9184e72a000"
      },
      "gasLimit": {
        "_hex": "0x15f90"
      },
      "to": "0x025c3B43d57E72D2150E14B2B0c6D923FbFC0474",
      "value": {
        "_hex": "0x3635c9adc5dea00000"
      },
      "nonce": 43,
      "data": "0x",
      "r": "0x9dbd47a6cbce6ba30e52b47151a6c5fc88fda95db0af43d5cd36ded6d4be3186",
      "s": "0x6c47c00bf33ab35f5013009ad230ed55298f1e1e2081341a9f2f28ba8bb4afcc",
      "v": 28,
      "creates": null,
      "raw": "0xf86f2b8609184e72a00083015f9094025c3b43d57e72d2150e14b2b0c6d923fbfc0474893635c9adc5dea00000801ca09dbd47a6cbce6ba30e52b47151a6c5fc88fda95db0af43d5cd36ded6d4be3186a06c47c00bf33ab35f5013009ad230ed55298f1e1e2081341a9f2f28ba8bb4afcc",
      "networkId": 0,
      "chainId": 0
    },
    {
      "hash": "0x7a5f294bad7bc8af9f36b1d5b4e0770a7902f21b99787e084101e26206446f4d",
      "blockHash": "0xbc74331dcf6f919447984ac88f849b5361f11d30ead59a7791d6e1c415d92a39",
      "blockNumber": 55848,
      "transactionIndex": 8,
      "confirmations": null,
      "from": "0x288E4356F12D0D3D0F8DF3506E457E7cFd5f4Ab0",
      "gasPrice": {
        "_hex": "0xd95a13282"
      },
      "gasLimit": {
        "_hex": "0x15f90"
      },
      "to": "0x7573ACa378B8417623caD233954fdE810CaD9fB4",
      "value": {
        "_hex": "0x0"
      },
      "nonce": 23,
      "data": "0x5e0572a7000000000000000000000000000000000000000000000000000000003d2d5263",
      "r": "0x55bae0f51b46d614491271defc26668a3aea08273aec5e4170fd72f1155eaea1",
      "s": "0x49a5b56d69e6c99a4732e698dd7ccc9b3cdc0bd0e5c7c753d05c920d8627c2b8",
      "v": 27,
      "creates": null,
      "raw": "0xf88917850d95a1328283015f90947573aca378b8417623cad233954fde810cad9fb480a45e0572a7000000000000000000000000000000000000000000000000000000003d2d52631ba055bae0f51b46d614491271defc26668a3aea08273aec5e4170fd72f1155eaea1a049a5b56d69e6c99a4732e698dd7ccc9b3cdc0bd0e5c7c753d05c920d8627c2b8",
      "networkId": 0,
      "chainId": 0
    }
  ]
}