{
  "hash": "0x429570177733e918a85f203501ef1ee587bd70bf5472f49443340665f4bee56f",
  "parentHash": "0x0d68b69a05622d936e5201b517275c19be2f3da71a01e345c6b5926bf35472ad",
  "number": 81541,
  "timestamp": 1439503512,
  "nonce": "0xe9e9850be8abec1a",
  "difficulty": 2443785007164,
  "gasLimit": {
    "_hex": "0x2fefd8"
  },
  "gasUsed": {
    "_hex": "0x5208"
  },
  "miner": "0xe6A7a1d47ff21B6321162AEA7C6CB457D5476Bca",
  "extraData": "0x476574682f76312e302e312d38326566323666362f6c696e75782f676f312e34",
  "transactions": [
    {
      "hash": "0x319ab01cef59e5e9591914d16093358358fa3619640d3ed964f82891bc6f5316",
      "blockHash": "0x429570177733e918a85f203501ef1ee587bd70bf5472f49443340665f4bee56f",
      "blockNumber": 81541,
      "transactionIndex": 0,
      "confirmations": null,
      "from": "0xF5EeDc192aB70b08D8354384aD94efD095849E00",
      "gasPrice": {
        "_hex": "0xd991cf06a"
      },
      "gasLimit": {
        "_hex": "0x5208"
      },
      "to": "0x32Be343B94f860124dC4fEe278FDCBD38C102D88",
      "value": {
        "_hex": "0x2b5df5eb071616000"
      },
      "nonce": 35,
      "data": "0x",
      "r": "0x0bc6ff84434dd3b7efeb66ed1bf015ca363db46d3a40dfd70c2d265dc5da10a9",
      "s": "0x30896b1a7aa2a5a79f7cd74ac006ceaa4a854da9dfe9c5ceaba5d1352befc444",
      "v": 28,
      "creates": null,
      "raw": "0xf86d23850d991cf06a8252089432be343b94f860124dc4fee278fdcbd38c102d888902b5df5eb071616000801ca00bc6ff84434dd3b7efeb66ed1bf015ca363db46d3a40dfd70c2d265dc5da10a9a030896b1a7aa2a5a79f7cd74ac006ceaa4a854da9dfe9c5ceaba5d1352befc444",
      "networkId": 0,
      "chainId": 0
    }
  ]
}