{
  "hash": "0xfd434b4dda80470444dcc06bb7f30fff16a45ef4a7f4857cf8dbf2e84da6aab7",
  "parentHash": "0x667725800f22be0d3ec3dbd9849357bb632e8863756f976f0e8c15072f0cce3b",
  "number": 120821,
  "timestamp": 1440166381,
  "nonce": "0xa6f8c8bd7c619248",
  "difficulty": 4460723126580,
  "gasLimit": {
    "_hex": "0x2fefd8"
  },
  "gasUsed": {
    "_hex": "0x5208"
  },
  "miner": "0x52bc44d5378309EE2abF1539BF71dE1b7d7bE3b5",
  "extraData": "0xd783010002844765746887676f312e342e32856c696e7578",
  "transactions": [
    {
      "hash": "0xaebd78511c5e584b9e533ce5f8f292978d4ac51fc9865b9d8967b2a1d935f81c",
      "blockHash": "0xfd434b4dda80470444dcc06bb7f30fff16a45ef4a7f4857cf8dbf2e84da6aab7",
      "blockNumber": 120821,
      "transactionIndex": 0,
      "confirmations": null,
      "from": "0x608f4b86321a68453f9adf6F06F7Fc3E621739ad",
      "gasPrice": {
        "_hex": "0xba43b7400"
      },
      "gasLimit": {
        "_hex": "0x5208"
      },
      "to": "0x32Be343B94f860124dC4fEe278FDCBD38C102D88",
      "value": {
        "_hex": "0x478af3162a180000"
      },
      "nonce": 80,
      "data": "0x",
      "r": "0x0142cea34b91e6779ae0f0227708bd5cb4230a70c0042a1dc6d7bdf7efe2f473",
      "s": "0x00aca58f61043c589c43c75576066da14a2226359775ef0977409dcb17938b31",
      "v": 27,
      "creates": null,
      "raw": "0xf86b50850ba43b74008252089432be343b94f860124dc4fee278fdcbd38c102d8888478af3162a180000801ba00142cea34b91e6779ae0f0227708bd5cb4230a70c0042a1dc6d7bdf7efe2f4739faca58f61043c589c43c75576066da14a2226359775ef0977409dcb17938b31",
      "networkId": 0,
      "chainId": 0
    }
  ]
}