{
  "hash": "0x5050647284d83576f2b479b9651f9f94d6660d4908cc8321f6ec6de02a995083",
  "parentHash": "0x17fc8cc7c528569556042439a1aaee77bcb46702e681df5ff4ac88e09244b78a",
  "number": 120805,
  "timestamp": 1440166115,
  "nonce": "0x151856c8a88c3c97",
  "difficulty": 4456377577512,
  "gasLimit": {
    "_hex": "0x2fefd8"
  },
  "gasUsed": {
    "_hex": "0x5208"
  },
  "miner": "0xbb7B8287f3F0a933474a79eAe42CBCa977791171",
  "extraData": "0xd783010003844765746887676f312e342e32856c696e7578",
  "transactions": [
    {
      "hash": "0xf4767693deb662bd4f9f49a1f998b56830119321b346a83cfe2c160d250d85d8",
      "blockHash": "0x5050647284d83576f2b479b9651f9f94d6660d4908cc8321f6ec6de02a995083",
      "blockNumber": 120805,
      "transactionIndex": 0,
      "confirmations": null,
      "from": "0xFBb1b73C4f0BDa4f67dcA266ce6Ef42f520fBB98",
      "gasPrice": {
        "_hex": "0xba43b7400"
      },
      "gasLimit": {
        "_hex": "0x5208"
      },
      "to": "0x7B7180b1DECDdB41d21B75CF55eFA499De297366",
      "value": {
        "_hex": "0xdbd2fc137a30000"
      },
      "nonce": 259,
      "data": "0x",
      "r": "0xdfe044de53e12d6b48839985a8b2005dc95bc59d10629e9ea0fc2b4a6b79970d",
      "s": "0x343b9710e6a9d5a9c2bb6e1789c4823dbebc5ed17031386a68b3200dc079d0d6",
      "v": 27,
      "creates": null,
      "raw": "0xf86e820103850ba43b7400825208947b7180b1decddb41d21b75cf55efa499de297366880dbd2fc137a30000801ba0dfe044de53e12d6b48839985a8b2005dc95bc59d10629e9ea0fc2b4a6b79970da0343b9710e6a9d5a9c2bb6e1789c4823dbebc5ed17031386a68b3200dc079d0d6",
      "networkId": 0,
      "chainId": 0
    }
  ]
}