{
  "hash": "0x7b6759cfc32cc4559b308498175fbdddc77ab72ca17b7bfd570be827ffda3a1d",
  "parentHash": "0xe80beb6c650dd44cf73632265afaa0f2424739539f18524c9effb9335e6e7a4f",
  "number": 93546,
  "timestamp": 1439692741,
  "nonce": "0xa3aaa905b9700f6e",
  "difficulty": 3473436097472,
  "gasLimit": {
    "_hex": "0x2fefd8"
  },
  "gasUsed": {
    "_hex": "0x546c"
  },
  "miner": "0xbb7B8287f3F0a933474a79eAe42CBCa977791171",
  "extraData": "0x476574682f4c5649562f76312e302e312f6c696e75782f676f312e342e32",
  "transactions": [
    {
      "hash": "0xfc08d581966e32db304e78fefa0d051ab2c3b29f4d44690a1cf79e6910251d2b",
      "blockHash": "0x7b6759cfc32cc4559b308498175fbdddc77ab72ca17b7bfd570be827ffda3a1d",
      "blockNumber": 93546,
      "transactionIndex": 0,
      "confirmations": null,
      "from": "0xa7859Fc07F756Ea7DcebBCCd42F05817582D973F",
      "gasPrice": {
        "_hex": "0x110c8f7d8de"
      },
      "gasLimit": {
        "_hex": "0xc350"
      },
      "to": "0x2910543Af39abA0Cd09dBb2D50200b3E800A63D2",
      "value": {
        "_hex": "0x1e7dd26c09affee0000"
      },
      "nonce": 2,
      "data": "0x454e30344151424338",
      "r": "0xa5c212601b9d0d25c4d1b385367441a564289d6fbb2fe2900b1094f599c3ce00",
      "s": "0x9fe63faa9ca7eeeaef4e1209bd148a6df7f982541cfe6e68577bbe3b3db6b084",
      "v": 28,
      "creates": null,
      "raw": "0xf87802860110c8f7d8de82c350942910543af39aba0cd09dbb2d50200b3e800a63d28a01e7dd26c09affee000089454e303441514243381ca0a5c212601b9d0d25c4d1b385367441a564289d6fbb2fe2900b1094f599c3ce00a09fe63faa9ca7eeeaef4e1209bd148a6df7f982541cfe6e68577bbe3b3db6b084",
      "networkId": 0,
      "chainId": 0
    }
  ]
}