{
  "hash": "0xa87df15a7a5ad9be3e093584228bb79215c0ba0c74281e7689a46fe79a100e16",
  "parentHash": "0x8f80183e28325df44588e8433463d9a94ac9553dbf0a175a88d40d443a5ebc2a",
  "number": 46755,
  "timestamp": 1438928666,
  "nonce": "0x18fc2c2e7e3a2089",
  "difficulty": 1453911256712,
  "gasLimit": {
    "_hex": "0x76d3"
  },
  "gasUsed": {
    "_hex": "0x5208"
  },
  "miner": "0x3f113041D56Dda809a245Fe338832c2D373e7c80",
  "extraData": "0x476574682f76312e302e312f77696e646f77732f676f312e342e32",
  "transactions": [
    {
      "hash": "0x45ba736aeca0083af4d76361216c796d88b568a17b1185f100af1137b76e882d",
      "blockHash": "0xa87df15a7a5ad9be3e093584228bb79215c0ba0c74281e7689a46fe79a100e16",
      "blockNumber": 46755,
      "transactionIndex": 0,
      "confirmations": null,
      "from": "0x821eB90994a2fBf94BdC3233910296f76F9BF6E7",
      "gasPrice": {
        "_hex": "0x45d964b800"
      },
      "gasLimit": {
        "_hex": "0x5208"
      },
      "to": "0x17f8255F73211f9129a7E93250e8B7DF5D7F752d",
      "value": {
        "_hex": "0xd8d726b7177a800000"
      },
      "nonce": 2,
      "data": "0x",
      "r": "0x417c0842c55700f55ddcce7d689047010e3f856d14427b9ad18db76eecf08822",
      "s": "0x11d9337dd08c9d0d706548f33107f96f81f6bad1fe5275a6c41816138e7da817",
      "v": 27,
      "creates": null,
      "raw": "0xf86d028545d964b8008252089417f8255f73211f9129a7e93250e8b7df5d7f752d89d8d726b7177a800000801ba0417c0842c55700f55ddcce7d689047010e3f856d14427b9ad18db76eecf08822a011d9337dd08c9d0d706548f33107f96f81f6bad1fe5275a6c41816138e7da817",
      "networkId": 0,
      "chainId": 0
    }
  ]
}