{
  "hash": "0x6c8a78c8b237c6808f9be12763d476cbeb187be06c5b6cacdf162372b3b47acd",
  "parentHash": "0x18174e2c53e525c83535689825dbaf48cba6ea2f8693e20fc54cd157b97e13d1",
  "number": 102062,
  "timestamp": 1439832275,
  "nonce": "0x0ec27068d8d25596",
  "difficulty": 3908953854580,
  "gasLimit": {
    "_hex": "0x2fefd8"
  },
  "gasUsed": {
    "_hex": "0xddfd"
  },
  "miner": "0x580992B51e3925e23280EfB93d3047C82f17E038",
  "extraData": "0x476574682f76312e302e312f6c696e75782f676f312e342e32",
  "transactions": [
    {
      "hash": "0xcff386700df801394887f246f4410c66bf444a90a2ed60c047277d2137aef878",
      "blockHash": "0x6c8a78c8b237c6808f9be12763d476cbeb187be06c5b6cacdf162372b3b47acd",
      "blockNumber": 102062,
      "transactionIndex": 0,
      "confirmations": null,
      "from": "0xCA9dC3F33d0e1C3975300D1DcdF114B9e9c305e8",
      "gasPrice": {
        "_hex": "0x10dc90d85e7"
      },
      "gasLimit": {
        "_hex": "0x7a120"
      },
      "to": "0x109C4f2CCc82C4d77Bde15F306707320294Aea3F",
      "value": {
        "_hex": "0xde0b6b3a7640000"
      },
      "nonce": 0,
      "data": "0x",
      "r": "0xc2d4f94bdb7a0064cd5fe8fc5bc8598edfb138e44befc5462c9e4b78301b4e1e",
      "s": "0x0f948348a92277458f9e6deeb43829bb1897f32df4a4ccce461f15e0712e5233",
      "v": 27,
      "creates": null,
      "raw": "0xf86e8086010dc90d85e78307a12094109c4f2ccc82c4d77bde15f306707320294aea3f880de0b6b3a7640000801ba0c2d4f94bdb7a0064cd5fe8fc5bc8598edfb138e44befc5462c9e4b78301b4e1ea00f948348a92277458f9e6deeb43829bb1897f32df4a4ccce461f15e0712e5233",
      "networkId": 0,
      "chainId": 0
    }
  ]
}