{
  "hash": "0xddcbfbe8e05e70e4eeb8b6938cc0971a4b100804fd132d1aa60c052395ba7445",
  "parentHash": "0xc616becad66fd2a89bf6044266e5b0bd5966d92b7c725169a8b4a653cfe8c768",
  "number": 65309,
  "timestamp": 1439234616,
  "nonce": "0xa569cd2c78fb8cbc",
  "difficulty": 1946418212822,
  "gasLimit": {
    "_hex": "0x2fefd8"
  },
  "gasUsed": {
    "_hex": "0xa410"
  },
  "miner": "0x52Dc504a422f0E2A9e7632A34a50f1a82F8224c7",
  "extraData": "0x476574682f76312e302e312f6c696e75782f676f312e342e32",
  "transactions": [
    {
      "hash": "0x6664c73601a964e019404f1514053633bdff2265356b5198a9e1d29b7c49994e",
      "blockHash": "0xddcbfbe8e05e70e4eeb8b6938cc0971a4b100804fd132d1aa60c052395ba7445",
      "blockNumber": 65309,
      "transactionIndex": 0,
      "confirmations": null,
      "from": "0x2244e3b7736c8F48C4619388993F0FBf8506b865",
      "gasPrice": {
        "_hex": "0xba43b7400"
      },
      "gasLimit": {
        "_hex": "0x5208"
      },
      "to": "0x8c7E4396970587798C46721AC10F7f613b26DB23",
      "value": {
        "_hex": "0x84229bebf84c000"
      },
      "nonce": 1,
      "data": "0x",
      "r": "0x2ced29014e9bb4b993ea96d25ec1888d05b8f4cbae4c7452ed9067c8ff724154",
      "s": "0x1df04dba8fe41076cb369043cea229d177a08cbcddcfe88822cd31fb8ddbb457",
      "v": 27,
      "creates": null,
      "raw": "0xf86c01850ba43b7400825208948c7e4396970587798c46721ac10f7f613b26db2388084229bebf84c000801ba02ced29014e9bb4b993ea96d25ec1888d05b8f4cbae4c7452ed9067c8ff724154a01df04dba8fe41076cb369043cea229d177a08cbcddcfe88822cd31fb8ddbb457",
      "networkId": 0,
      "chainId": 0
    },
    {
      "hash": "0x1fd7df2d167e60336f445f75684dc276966f2bf4a2cebefffbacb9416855b5eb",
      "blockHash": "0xddcbfbe8e05e70e4eeb8b6938cc0971a4b100804fd132d1aa60c052395ba7445",
      "blockNumber": 65309,
      "transactionIndex": 1,
      "confirmations": null,
      "from": "0xba27218B5f388B8621A4C3416e4b1B8Aa08B0c9a",
      "gasPrice": {
        "_hex": "0xba43b7400"
      },
      "gasLimit": {
        "_hex": "0x5208"
      },
      "to": "0xb1b4cdb0c8489B24e213C0875f2e1C9D3A92bC39",
      "value": {
        "_hex": "0x8b5d99eff56f000"
      },
      "nonce": 1,
      "data": "0x",
      "r": "0xd59942b838d2ad15e0c4509f6347fbce81b61ed7be1a451e0bb0592235e915d2",
      "s": "0x3e9c664ffd238e94efd93a5ecd137dda67e98d9155996c9ee58236f6660433a5",
      "v": 28,
      "creates": null,
      "raw": "0xf86c01850ba43b740082520894b1b4cdb0c8489b24e213c0875f2e1c9d3a92bc398808b5d99eff56f000801ca0d59942b838d2ad15e0c4509f6347fbce81b61ed7be1a451e0bb0592235e915d2a03e9c664ffd238e94efd93a5ecd137dda67e98d9155996c9ee58236f6660433a5",
      "networkId": 0,
      "chainId": 0
    }
  ]
}