{
  "hash": "0x50bc252c171eedfde3a2cb280616c5c42de3698eb5aa693002e46e5a812a4ff7",
  "parentHash": "0x2fcee0f4330aeda22c9c63c043de37ebab0d4c6de077eb7299c5194ecd71a6b1",
  "number": 50500,
  "timestamp": 1438990307,
  "nonce": "0xb26ed2a7ab481e91",
  "difficulty": 1510416025261,
  "gasLimit": {
    "_hex": "0x66cd9"
  },
  "gasUsed": {
    "_hex": "0x33eb7"
  },
  "miner": "0xe6A7a1d47ff21B6321162AEA7C6CB457D5476Bca",
  "extraData": "0x657468706f6f6c2e6f7267",
  "transactions": [
    {
      "hash": "0x0875679bff424fa0975fb1a722aadf5476409f595d7a1eb226795ccaf3a52252",
      "blockHash": "0x50bc252c171eedfde3a2cb280616c5c42de3698eb5aa693002e46e5a812a4ff7",
      "blockNumber": 50500,
      "transactionIndex": 0,
      "confirmations": null,
      "from": "0x5eF8c96186b37984cBfE04C598406e3b0ac3171F",
      "gasPrice": {
        "_hex": "0x9184e72a000"
      },
      "gasLimit": {
        "_hex": "0x12784"
      },
      "to": "0x2910543Af39abA0Cd09dBb2D50200b3E800A63D2",
      "value": {
        "_hex": "0x1e7e4171bf4d3a00000"
      },
      "nonce": 0,
      "data": "0x454e35423235415647",
      "r": "0x2f3f7d419c3c176b54bcda1c5fc69495c2dc32d012f2bb91b66f47f9bec3b385",
      "s": "0x2a62f48e945517c19c7cd0cd6dae46c85f1f651af68065d706910af920f5e304",
      "v": 28,
      "creates": null,
      "raw": "0xf879808609184e72a00083012784942910543af39aba0cd09dbb2d50200b3e800a63d28a01e7e4171bf4d3a0000089454e354232354156471ca02f3f7d419c3c176b54bcda1c5fc69495c2dc32d012f2bb91b66f47f9bec3b385a02a62f48e945517c19c7cd0cd6dae46c85f1f651af68065d706910af920f5e304",
      "networkId": 0,
      "chainId": 0
    },
    {
      "hash": "0xbb8d9e2262cd2d93d9bf7854d35f8e016dd985e7b3eb715d0d7faf7290a0ff4d",
      "blockHash": "0x50bc252c171eedfde3a2cb280616c5c42de3698eb5aa693002e46e5a812a4ff7",
      "blockNumber": 50500,
      "transactionIndex": 1,
      "confirmations": null,
      "from": "0xB7576e9d314Df41EC5506494293Afb1bd5D3f65d",
      "gasPrice": {
        "_hex": "0xba43b7400"
      },
      "gasLimit": {
        "_hex": "0x29857"
      },
      "to": null,
      "value": {
        "_hex": "0x0"
      },
      "nonce": 0,
      "data": "0x606060405261022e806100136000396000f300606060405260e060020a6000350463201745d5811461003c578063432ced04146100d257806379ce9fac14610141578063d5fa2b00146101a8575b005b61003a6004356024356000828152602081905260409020600101548290600160a060020a039081163391909116141561020857604060009081206001810180548254600160a060020a0319908116909355919091169055600160a060020a038316906803bd913e6c1df40000606082818181858883f1505060405184935060008051602061020e833981519152929150a2505050565b61003a600435600081815260208190526040812060010154600160a060020a031614801561010957506803bd913e6c1df400003410155b1561013e57604060009081206001018054600160a060020a03191633179055819060008051602061020e833981519152906060a25b50565b61003a6004356024356000828152602081905260409020600101548290600160a060020a039081163391909116141561020857604060009081206001018054600160a060020a03191684179055819060008051602061020e833981519152906060a2505050565b61003a6004356024356000828152602081905260409020600101548290600160a060020a039081163391909116141561020857604060009081208054600160a060020a03191684179055819060008051602061020e833981519152906060a25b5050505600a6697e974e6a320f454390be03f74955e8978f1a6971ea6730542e37b66179bc",
      "r": "0xcfb56087c168a48bc69bd2634172fd9defd77bd172387e2137643906ff3606f6",
      "s": "0x3474eb47999927f2bed4d4ec27d7e8bb4ad17c61d76761e40fdbd859d84c3bd5",
      "v": 28,
      "creates": "0xc076CF70C54c698D4442Cde1561452564FA339A5",
      "raw": "0xf9029480850ba43b7400830298578080b90241606060405261022e806100136000396000f300606060405260e060020a6000350463201745d5811461003c578063432ced04146100d257806379ce9fac14610141578063d5fa2b00146101a8575b005b61003a6004356024356000828152602081905260409020600101548290600160a060020a039081163391909116141561020857604060009081206001810180548254600160a060020a0319908116909355919091169055600160a060020a038316906803bd913e6c1df40000606082818181858883f1505060405184935060008051602061020e833981519152929150a2505050565b61003a600435600081815260208190526040812060010154600160a060020a031614801561010957506803bd913e6c1df400003410155b1561013e57604060009081206001018054600160a060020a03191633179055819060008051602061020e833981519152906060a25b50565b61003a6004356024356000828152602081905260409020600101548290600160a060020a039081163391909116141561020857604060009081206001018054600160a060020a03191684179055819060008051602061020e833981519152906060a2505050565b61003a6004356024356000828152602081905260409020600101548290600160a060020a039081163391909116141561020857604060009081208054600160a060020a03191684179055819060008051602061020e833981519152906060a25b5050505600a6697e974e6a320f454390be03f74955e8978f1a6971ea6730542e37b66179bc1ca0cfb56087c168a48bc69bd2634172fd9defd77bd172387e2137643906ff3606f6a03474eb47999927f2bed4d4ec27d7e8bb4ad17c61d76761e40fdbd859d84c3bd5",
      "networkId": 0,
      "chainId": 0
    },
    {
      "hash": "0x2bb7b4eda5f40029af9dad0df09b49aeb22c32acda5e25f9c4681b5b44e45e4b",
      "blockHash": "0x50bc252c171eedfde3a2cb280616c5c42de3698eb5aa693002e46e5a812a4ff7",
      "blockNumber": 50500,
      "transactionIndex": 2,
      "confirmations": null,
      "from": "0x1C356cfdB95FEbb714633B28d5C132dD84A9b436",
      "gasPrice": {
        "_hex": "0x100d520c534"
      },
      "gasLimit": {
        "_hex": "0x15f90"
      },
      "to": "0x1da881Fae84444ebEf7B72F3267a4e67Aa61faE9",
      "value": {
        "_hex": "0xa688906bd8b0000"
      },
      "nonce": 3,
      "data": "0x",
      "r": "0x8d2062155b88f1d42c18da1acc71cfec828a7b557bba5afc46bad9bf1e9dfdeb",
      "s": "0x5d7270cf0f497c5070d59bfc821a797aaec8573cd10a35fab3fbd4b2915a13f0",
      "v": 28,
      "creates": null,
      "raw": "0xf86e03860100d520c53483015f90941da881fae84444ebef7b72f3267a4e67aa61fae9880a688906bd8b0000801ca08d2062155b88f1d42c18da1acc71cfec828a7b557bba5afc46bad9bf1e9dfdeba05d7270cf0f497c5070d59bfc821a797aaec8573cd10a35fab3fbd4b2915a13f0",
      "networkId": 0,
      "chainId": 0
    }
  ]
}