{
  "hash": "0x4839860fb73c6e0f4a0baeb32f459c2ebb99bf4d66c8238274a4db0334882015",
  "parentHash": "0xfd6829b14d172206075f9dcd45869ea8503dc49b9f477729554d220bfde2864a",
  "number": 110464,
  "timestamp": 1439974220,
  "nonce": "0xdc91827dd5d3c6a3",
  "difficulty": 4381988292257,
  "gasLimit": {
    "_hex": "0x2fefd8"
  },
  "gasUsed": {
    "_hex": "0x5208"
  },
  "miner": "0x52bc44d5378309EE2abF1539BF71dE1b7d7bE3b5",
  "extraData": "0x476574682f76312e302e312d63303261396266632f6c696e75782f676f312e34",
  "transactions": [
    {
      "hash": "0x2b984ac85cf481519888ab3615eb72e0baa494400ace0258fb764e67087fe548",
      "blockHash": "0x4839860fb73c6e0f4a0baeb32f459c2ebb99bf4d66c8238274a4db0334882015",
      "blockNumber": 110464,
      "transactionIndex": 0,
      "confirmations": null,
      "from": "0x007f7f58D3eb5b7510A301eCC749FC1fCDDBE14D",
      "gasPrice": {
        "_hex": "0xd382b0b9c"
      },
      "gasLimit": {
        "_hex": "0x15f90"
      },
      "to": "0xb1abce2918E21ddb93AA452731a12672A3d9F75a",
      "value": {
        "_hex": "0x4563918244f40000"
      },
      "nonce": 287,
      "data": "0x",
      "r": "0xff356c4179b5ea11e5829164df8a0a6176a0cb56c1d2cfe1f31a5449c05474be",
      "s": "0x0647b32f6a8ef6837adcfc8ec73d55bcc8c24e85d50c6f491fe63f334b85fc85",
      "v": 28,
      "creates": null,
      "raw": "0xf86f82011f850d382b0b9c83015f9094b1abce2918e21ddb93aa452731a12672a3d9f75a884563918244f40000801ca0ff356c4179b5ea11e5829164df8a0a6176a0cb56c1d2cfe1f31a5449c05474bea00647b32f6a8ef6837adcfc8ec73d55bcc8c24e85d50c6f491fe63f334b85fc85",
      "networkId": 0,
      "chainId": 0
    }
  ]
}