{
  "hash": "0x91e0e9eb78f98f799e355778308376c2c60722f4bdca3b35af4d9fcbf994b8ff",
  "parentHash": "0xf4f54a935f6e4e6a117b22a5404dbdea427e4a0558f17096a67dbabf95b5a858",
  "number": 75761,
  "timestamp": 1439408860,
  "nonce": "0xdeefe36e52b7e378",
  "difficulty": 2222280602647,
  "gasLimit": {
    "_hex": "0x2fefd8"
  },
  "gasUsed": {
    "_hex": "0x5208"
  },
  "miner": "0xe6A7a1d47ff21B6321162AEA7C6CB457D5476Bca",
  "extraData": "0x476574682f76312e302e312d38326566323666362f6c696e75782f676f312e34",
  "transactions": [
    {
      "hash": "0xf521173ef4d24473aef5660be06e785c3e8e8507d06afe424d8f42e970dee3dd",
      "blockHash": "0x91e0e9eb78f98f799e355778308376c2c60722f4bdca3b35af4d9fcbf994b8ff",
      "blockNumber": 75761,
      "transactionIndex": 0,
      "confirmations": null,
      "from": "0x120A270bbC009644e35F0bB6ab13f95b8199c4ad",
      "gasPrice": {
        "_hex": "0xd78eb5b39"
      },
      "gasLimit": {
        "_hex": "0x3d090"
      },
      "to": "0x3E42056BEc9b6a92e1EfAF784224F8BC060618C4",
      "value": {
        "_hex": "0x48b5c6f5adc388000"
      },
      "nonce": 297,
      "data": "0x",
      "r": "0x2466947536afd843fc0d8f57f148b902e9278a87cd26e707cbbee8bc5997b7d3",
      "s": "0x003614b8f18bd894fe1954b6da4a8b2ee30d9a1f62bcddc63f273c3154440927",
      "v": 27,
      "creates": null,
      "raw": "0xf86f820129850d78eb5b398303d090943e42056bec9b6a92e1efaf784224f8bc060618c489048b5c6f5adc388000801ba02466947536afd843fc0d8f57f148b902e9278a87cd26e707cbbee8bc5997b7d39f3614b8f18bd894fe1954b6da4a8b2ee30d9a1f62bcddc63f273c3154440927",
      "networkId": 0,
      "chainId": 0
    }
  ]
}