{
  "hash": "0x93131e12ba8bfc9845a72ad4bb7148d070f7632c57da40fdbf47aca180360e1c",
  "parentHash": "0x44183afe7044ce663d3548741cdd37abeb5d40872605ba4ae6f710d16a3d8004",
  "number": 101410,
  "timestamp": 1439822657,
  "nonce": "0x47991f7849dbfe8e",
  "difficulty": 3833645793566,
  "gasLimit": {
    "_hex": "0x2fefd8"
  },
  "gasUsed": {
    "_hex": "0x520c"
  },
  "miner": "0x2E150c676CFf77ffcE03140E68871A96270B950b",
  "extraData": "0x476574682f76312e302e312f77696e646f77732f676f312e342e32",
  "transactions": [
    {
      "hash": "0x8be2af01cdeac8f6b811e3457b1e9bac3b93b1f35093fdd8223ada5912d26d1b",
      "blockHash": "0x93131e12ba8bfc9845a72ad4bb7148d070f7632c57da40fdbf47aca180360e1c",
      "blockNumber": 101410,
      "transactionIndex": 0,
      "confirmations": null,
      "from": "0x0d04ddb175BDB2838b18a5b9F84952345e5FB87E",
      "gasPrice": {
        "_hex": "0xdad3be490"
      },
      "gasLimit": {
        "_hex": "0x7530"
      },
      "to": "0x4CF67c265Bb0E51CF92A0b3E37becCFd721a1506",
      "value": {
        "_hex": "0xde0b6b3a7640000"
      },
      "nonce": 0,
      "data": "0x00",
      "r": "0xe37b07ce5dbae2201cb5f62afeec621425214ea934215f8c10f33de2da365d13",
      "s": "0x649e9f1db6215cb5925ada928f3cdbb62a833b89b58181a8a6edbcd8699e12ec",
      "v": 28,
      "creates": null,
      "raw": "0xf86c80850dad3be490827530944cf67c265bb0e51cf92a0b3e37beccfd721a1506880de0b6b3a7640000001ca0e37b07ce5dbae2201cb5f62afeec621425214ea934215f8c10f33de2da365d13a0649e9f1db6215cb5925ada928f3cdbb62a833b89b58181a8a6edbcd8699e12ec",
      "networkId": 0,
      "chainId": 0
    }
  ]
}