{
  "hash": "0x8a933cc4915c728c9ecae5a805b178411ec058b433fe03d350511eb017c7d846",
  "parentHash": "0xf43b034d9499fcbea72dca585aee3cc35113970d3944062d567b8ec03b6e31bf",
  "number": 70080,
  "timestamp": 1439314457,
  "nonce": "0xff870afb03c7af8b",
  "difficulty": 2104410561249,
  "gasLimit": {
    "_hex": "0x2fefd8"
  },
  "gasUsed": {
    "_hex": "0x5208"
  },
  "miner": "0x3222BA3F3e79eA0e31467EEE7639B57923558cCD",
  "extraData": "0x",
  "transactions": [
    {
      "hash": "0xf5209c7268b91c497b56007c5807cd5a4d1d64ba661160e1a4fd0628d4bda842",
      "blockHash": "0x8a933cc4915c728c9ecae5a805b178411ec058b433fe03d350511eb017c7d846",
      "blockNumber": 70080,
      "transactionIndex": 0,
      "confirmations": null,
      "from": "0x76d4a9bc9612bE738A81d0fE632b00B971E2bB9a",
      "gasPrice": {
        "_hex": "0xd670133e1"
      },
      "gasLimit": {
        "_hex": "0x55f0"
      },
      "to": "0xb50405193Dc0c7077dD65252C15C39242F0aCB76",
      "value": {
        "_hex": "0xde0b6b3a7640000"
      },
      "nonce": 1,
      "data": "0x",
      "r": "0xbc3e82f49510de26b67a057651dc34e60988746a8ccd72ea995ee89584c19201",
      "s": "0x167bfab40dd14f015a34fb4ee269494ac431ea86781545b3307ded5e68382a54",
      "v": 28,
      "creates": null,
      "raw": "0xf86c01850d670133e18255f094b50405193dc0c7077dd65252c15c39242f0acb76880de0b6b3a7640000801ca0bc3e82f49510de26b67a057651dc34e60988746a8ccd72ea995ee89584c19201a0167bfab40dd14f015a34fb4ee269494ac431ea86781545b3307ded5e68382a54",
      "networkId": 0,
      "chainId": 0
    }
  ]
}