{
  "hash": "0x89ac0add401ae7965d7183b2ce465ed5e35e6285f8cb3361ed1c4f6e6eaca7db",
  "parentHash": "0x7a08f3e2054dd130f41f0ff384914c153a98b9233def65237cc90cf3aa3115f4",
  "number": 47557,
  "timestamp": 1438942818,
  "nonce": "0x0f1041e646b5fdbb",
  "difficulty": 1445278970388,
  "gasLimit": {
    "_hex": "0xcf8b"
  },
  "gasUsed": {
    "_hex": "0xa410"
  },
  "miner": "0xbb7B8287f3F0a933474a79eAe42CBCa977791171",
  "extraData": "0x476574682f4c5649562f76312e302e312f6c696e75782f676f312e342e32",
  "transactions": [
    {
      "hash": "0x62357a80425bb301906ea7702139214f064ebe64392c9ff891bff6f8993ae473",
      "blockHash": "0x89ac0add401ae7965d7183b2ce465ed5e35e6285f8cb3361ed1c4f6e6eaca7db",
      "blockNumber": 47557,
      "transactionIndex": 0,
      "confirmations": null,
      "from": "0x756C55cbfa47fd23c0260F958e65866E64c096CB",
      "gasPrice": {
        "_hex": "0x746a528800"
      },
      "gasLimit": {
        "_hex": "0x5b04"
      },
      "to": "0x6E4F1DD8EDB448D8F0F2829eb817B81ACEE45152",
      "value": {
        "_hex": "0x16345785d8a0000"
      },
      "nonce": 0,
      "data": "0x",
      "r": "0x19d27ba181bb7f165a55442d033154e4ca8900821f18fff31dc61ea2103ce845",
      "s": "0xf83e140c8d35d0367fec4b88a085d592136a215fd7570bbb92818aba9d40e2a0",
      "v": 27,
      "creates": null,
      "raw": "0xf86c8085746a528800825b04946e4f1dd8edb448d8f0f2829eb817b81acee4515288016345785d8a0000801ba019d27ba181bb7f165a55442d033154e4ca8900821f18fff31dc61ea2103ce845a0f83e140c8d35d0367fec4b88a085d592136a215fd7570bbb92818aba9d40e2a0",
      "networkId": 0,
      "chainId": 0
    },
    {
      "hash": "0x1145ab0edca47dddd84f1b9bd2b274117e900d742a18188380139e88cd6ed979",
      "blockHash": "0x89ac0add401ae7965d7183b2ce465ed5e35e6285f8cb3361ed1c4f6e6eaca7db",
      "blockNumber": 47557,
      "transactionIndex": 1,
      "confirmations": null,
      "from": "0x24e0fEAc2aabaE5625b91D8e9310bEd1E19eAc2a",
      "gasPrice": {
        "_hex": "0x1d6ec8c70f"
      },
      "gasLimit": {
        "_hex": "0x5208"
      },
      "to": "0x32Be343B94f860124dC4fEe278FDCBD38C102D88",
      "value": {
        "_hex": "0xdd7484b210b7400"
      },
      "nonce": 0,
      "data": "0x",
      "r": "0xcd7e949380a07db438b4dc5ca163b05ddb0253fa42e5a56c52ee17522bb485db",
      "s": "0x789fbee1a3f92b8a03d1657c11ee02b06fd272f1cdca4bc842374bb9afcb69d4",
      "v": 28,
      "creates": null,
      "raw": "0xf86c80851d6ec8c70f8252089432be343b94f860124dc4fee278fdcbd38c102d88880dd7484b210b7400801ca0cd7e949380a07db438b4dc5ca163b05ddb0253fa42e5a56c52ee17522bb485dba0789fbee1a3f92b8a03d1657c11ee02b06fd272f1cdca4bc842374bb9afcb69d4",
      "networkId": 0,
      "chainId": 0
    }
  ]
}