{
  "hash": "0xe66bbc4429d736e9cb27056c7dbacaab2741ed67d93727de9a2ff48497d8c7b2",
  "parentHash": "0x249ea54eada07708b29d7c424b8466dec9f1d98067b0be1b89c7ee660cca858d",
  "number": 46403,
  "timestamp": 1438922543,
  "nonce": "0x609b665bbfa8ef25",
  "difficulty": 1468240772632,
  "gasLimit": {
    "_hex": "0x5f61"
  },
  "gasUsed": {
    "_hex": "0x5208"
  },
  "miner": "0x6Cf387a1C50cF6b09634E0d24fDAa2c06Be0ea95",
  "extraData": "0x476574682f76312e302e302d30636463373634372f6c696e75782f676f312e34",
  "transactions": [
    {
      "hash": "0x8f798ca2400eaa90fef1a700dae338b0f81f2517ca2f181f11754e57aa5b3b82",
      "blockHash": "0xe66bbc4429d736e9cb27056c7dbacaab2741ed67d93727de9a2ff48497d8c7b2",
      "blockNumber": 46403,
      "transactionIndex": 0,
      "confirmations": null,
      "from": "0xF86a3eA8071F7095C7db8A05AE507A8929DBB876",
      "gasPrice": {
        "_hex": "0xba43b74000"
      },
      "gasLimit": {
        "_hex": "0x5208"
      },
      "to": "0x7Cd05927fE0AA3b6552db959e7539aE28dCBBDcf",
      "value": {
        "_hex": "0x56bc75e2d63100000"
      },
      "nonce": 4,
      "data": "0x",
      "r": "0x6268a6c6c1b44293e16be78993f33ec17c98326dd5dc1f6f22e790d6eb324da8",
      "s": "0x02f9e16be87f1b4e6ce815d9855b59f8e33f31de0896016b2732a55eca97b27a",
      "v": 28,
      "creates": null,
      "raw": "0xf86d0485ba43b74000825208947cd05927fe0aa3b6552db959e7539ae28dcbbdcf89056bc75e2d63100000801ca06268a6c6c1b44293e16be78993f33ec17c98326dd5dc1f6f22e790d6eb324da8a002f9e16be87f1b4e6ce815d9855b59f8e33f31de0896016b2732a55eca97b27a",
      "networkId": 0,
      "chainId": 0
    }
  ]
}