{
  "hash": "0x092c418bf47707be31e939c188ea8ee1c3a0ca9ddf7cf32cb9208928903f3bd7",
  "parentHash": "0x55da7aeab2c9e9d05bb42d749a2563556f92fd89b5d17e03bc7119f298dfa21a",
  "number": 116135,
  "timestamp": 1440068909,
  "nonce": "0x4b1caa7d369b695d",
  "difficulty": 4595908177534,
  "gasLimit": {
    "_hex": "0x2fefd8"
  },
  "gasUsed": {
    "_hex": "0x48925"
  },
  "miner": "0x52bc44d5378309EE2abF1539BF71dE1b7d7bE3b5",
  "extraData": "0x476574682f76312e302e312d65626434373230372f6c696e75782f676f312e34",
  "transactions": [
    {
      "hash": "0xbc87bac0de1e05fd70301e938d76e63c84ebdd944cac138ebee0b6f5f7d8f951",
      "blockHash": "0x092c418bf47707be31e939c188ea8ee1c3a0ca9ddf7cf32cb9208928903f3bd7",
      "blockNumber": 116135,
      "transactionIndex": 0,
      "confirmations": null,
      "from": "0xC876c021eCE519A8CB7D3d1b8EEa2D1cEE9929Ba",
      "gasPrice": {
        "_hex": "0xd71e0dbee"
      },
      "gasLimit": {
        "_hex": "0xf4240"
      },
      "to": null,
      "value": {
        "_hex": "0x0"
      },
      "nonce": 5,
      "data": "0x60606040526040516101fd3803806101fd8339016040526060805160600190602001805190602001505b5b33600060006101000a81548173ffffffffffffffffffffffffffffffffffffffff021916908302179055505b80600160005081905550816002600050908051906020019082805482825590600052602060002090810192821560aa579160200282015b8281111560a9578251826000505591602001919060010190608d565b5b50905060d1919060b5565b8082111560cd576000818150600090555060010160b5565b5090565b50505b5050610118806100e56000396000f30060606040526000357c010000000000000000000000000000000000000000000000000000000090048063370158ea1461004457806341c0e1b51461006557610042565b005b61004f600450610106565b6040518082815260200191505060405180910390f35b610070600450610072565b005b600060009054906101000a900473ffffffffffffffffffffffffffffffffffffffff1673ffffffffffffffffffffffffffffffffffffffff163373ffffffffffffffffffffffffffffffffffffffff16141561010357600060009054906101000a900473ffffffffffffffffffffffffffffffffffffffff1673ffffffffffffffffffffffffffffffffffffffff16ff5b5b565b60006001600050549050610115565b9056000000000000000000000000000000000000000000000000000000000000004000000000000000000000000000000000000000000000000000000000000000000000000000000000000000000000000000000000000000000000000000000006000000000000000000000000000000000000000000000000000000000000000100000000000000000000000000000000000000000000000000000000000000020000000000000000000000000000000000000000000000000000000000000003000000000000000000000000000000000000000000000000000000000000000400000000000000000000000000000000000000000000000000000000000000050000000000000000000000000000000000000000000000000000000000000006",
      "r": "0x02db3714a33b8d61f8fa88a965d9c8b9dc1f3adfdccb7e66bcf9450aa7303cea",
      "s": "0x12de9ea25ea04515a41c6e1bb2dac2ac00d9d14f709686da55792b912d8fb6d4",
      "v": 27,
      "creates": "0xEF550c2F1F8848D5d0d2466b9B0867c5D5fF98Bc",
      "raw": "0xf9037005850d71e0dbee830f42408080b9031d60606040526040516101fd3803806101fd8339016040526060805160600190602001805190602001505b5b33600060006101000a81548173ffffffffffffffffffffffffffffffffffffffff021916908302179055505b80600160005081905550816002600050908051906020019082805482825590600052602060002090810192821560aa579160200282015b8281111560a9578251826000505591602001919060010190608d565b5b50905060d1919060b5565b8082111560cd576000818150600090555060010160b5565b5090565b50505b5050610118806100e56000396000f30060606040526000357c010000000000000000000000000000000000000000000000000000000090048063370158ea1461004457806341c0e1b51461006557610042565b005b61004f600450610106565b6040518082815260200191505060405180910390f35b610070600450610072565b005b600060009054906101000a900473ffffffffffffffffffffffffffffffffffffffff1673ffffffffffffffffffffffffffffffffffffffff163373ffffffffffffffffffffffffffffffffffffffff16141561010357600060009054906101000a900473ffffffffffffffffffffffffffffffffffffffff1673ffffffffffffffffffffffffffffffffffffffff16ff5b5b565b60006001600050549050610115565b90560000000000000000000000000000000000000000000000000000000000000040000000000000000000000000000000000000000000000000000000000000000000000000000000000000000000000000000000000000000000000000000000060000000000000000000000000000000000000000000000000000000000000001000000000000000000000000000000000000000000000000000000000000000200000000000000000000000000000000000000000000000000000000000000030000000000000000000000000000000000000000000000000000000000000004000000000000000000000000000000000000000000000000000000000000000500000000000000000000000000000000000000000000000000000000000000061ba002db3714a33b8d61f8fa88a965d9c8b9dc1f3adfdccb7e66bcf9450aa7303ceaa012de9ea25ea04515a41c6e1bb2dac2ac00d9d14f709686da55792b912d8fb6d4",
      "networkId": 0,
      "chainId": 0
    },
    {
      "hash": "0x5667ad687d6b713436fe5df0d13025a727884c53e974857b5806f53e105ffe83",
      "blockHash": "0x092c418bf47707be31e939c188ea8ee1c3a0ca9ddf7cf32cb9208928903f3bd7",
      "blockNumber": 116135,
      "transactionIndex": 1,
      "confirmations": null,
      "from": "0x8F68fbE2DCFf038C24F650C9e05Ee478038171cd",
      "gasPrice": {
        "_hex": "0xcc5e856b7"
      },
      "gasLimit": {
        "_hex": "0x55f0"
      },
      "to": "0x40B9b889A21Ff1534d018D71Dc406122EBcf3F5A",
      "value": {
        "_hex": "0x2078cb7e5caafc0000"
      },
      "nonce": 26,
      "data": "0x4a465343433732393935",
      "r": "0xf45aed337fda5ec63ee08d2f15f4853bafce95081047f952c504861afe732bcc",
      "s": "0x663d0735064e117f5ea791d418cee77f741e08860a5f1e536fab1305a2954436",
      "v": 27,
      "creates": null,
      "raw": "0xf8771a850cc5e856b78255f09440b9b889a21ff1534d018d71dc406122ebcf3f5a892078cb7e5caafc00008a4a4653434337323939351ba0f45aed337fda5ec63ee08d2f15f4853bafce95081047f952c504861afe732bcca0663d0735064e117f5ea791d418cee77f741e08860a5f1e536fab1305a2954436",
      "networkId": 0,
      "chainId": 0
    }
  ]
}