{
  "hash": "0x14cce9eadbca6e9bbc547f7ef012f4ddfecffe37c8a5142b2764213c97125ec7",
  "parentHash": "0x7914fde946e93046ef08f3ea18d83fa24bd95bb0090b016a0d6b873858973cd6",
  "number": 64745,
  "timestamp": 1439225696,
  "nonce": "0x30ce28895b7571b1",
  "difficulty": 1886660058928,
  "gasLimit": {
    "_hex": "0x2fefd8"
  },
  "gasUsed": {
    "_hex": "0xbe6c"
  },
  "miner": "0x756C55cbfa47fd23c0260F958e65866E64c096CB",
  "extraData": "0x476574682f76312e302e302f77696e646f77732f676f312e342e32",
  "transactions": [
    {
      "hash": "0x7f369a5625c8d041c153ad93ea8a5ca72b8d4abf9504e4357749286499f96d2f",
      "blockHash": "0x14cce9eadbca6e9bbc547f7ef012f4ddfecffe37c8a5142b2764213c97125ec7",
      "blockNumber": 64745,
      "transactionIndex": 0,
      "confirmations": null,
      "from": "0xc150e2C5cE9D1f65b9101F5476C4FEda114D1bb6",
      "gasPrice": {
        "_hex": "0xba43b7400"
      },
      "gasLimit": {
        "_hex": "0x15f90"
      },
      "to": "0x793AE8C1b1a160BFc07BFB0d04F85eab1A71F4f2",
      "value": {
        "_hex": "0x0"
      },
      "nonce": 0,
      "data": "0x3ba15036",
      "r": "0x0618dd5eaabc9d7157158df72fecde33e4a64e671e7e98f8ead7992fa5eaae09",
      "s": "0x1cf3af669ad952474e0c7e54adeeec594b45c7840ddf4c18e4e22ec7043965a9",
      "v": 27,
      "creates": null,
      "raw": "0xf86980850ba43b740083015f9094793ae8c1b1a160bfc07bfb0d04f85eab1a71f4f280843ba150361ba00618dd5eaabc9d7157158df72fecde33e4a64e671e7e98f8ead7992fa5eaae09a01cf3af669ad952474e0c7e54adeeec594b45c7840ddf4c18e4e22ec7043965a9",
      "networkId": 0,
      "chainId": 0
    }
  ]
}