{
  "hash": "0xedef73090d217b5b42f6a132f567abe610dc747509f918f1bdf7ac0c92f508e7",
  "parentHash": "0x6dff7f8d48c7b503b0801c720daf96060faedb8dc1323d853fde12c16cafcc80",
  "number": 72127,
  "timestamp": 1439347685,
  "nonce": "0x96d1a3fb3ad47840",
  "difficulty": 2173864011208,
  "gasLimit": {
    "_hex": "0x2fefd8"
  },
  "gasUsed": {
    "_hex": "0x5208"
  },
  "miner": "0xe6A7a1d47ff21B6321162AEA7C6CB457D5476Bca",
  "extraData": "0x476574682f76312e302e312d38326566323666362f6c696e75782f676f312e34",
  "transactions": [
    {
      "hash": "0xce4ccd8e88b7393924397a38d60612ab4c919bce7d775fee9568cdba688be1ea",
      "blockHash": "0xedef73090d217b5b42f6a132f567abe610dc747509f918f1bdf7ac0c92f508e7",
      "blockNumber": 72127,
      "transactionIndex": 0,
      "confirmations": null,
      "from": "0xa64015e0870ff579f8827b39b538C1eda5eF25A0",
      "gasPrice": {
        "_hex": "0xdd5a8d1cc"
      },
      "gasLimit": {
        "_hex": "0x5208"
      },
      "to": "0x32Be343B94f860124dC4fEe278FDCBD38C102D88",
      "value": {
        "_hex": "0x36342a5fded6be0000"
      },
      "nonce": 1,
      "data": "0x",
      "r": "0xa10cc923ac8253778e8a1ad0c65560856ab4998c25ffb123a56c9fffd109ba12",
      "s": "0x02123b7d92ddf42f1dd72426d45b1697c1d8b9351d6fcdb3e051d73c87be39ee",
      "v": 27,
      "creates": null,
      "raw": "0xf86d01850dd5a8d1cc8252089432be343b94f860124dc4fee278fdcbd38c102d888936342a5fded6be0000801ba0a10cc923ac8253778e8a1ad0c65560856ab4998c25ffb123a56c9fffd109ba12a002123b7d92ddf42f1dd72426d45b1697c1d8b9351d6fcdb3e051d73c87be39ee",
      "networkId": 0,
      "chainId": 0
    }
  ]
}