{
  "hash": "0xbb98ad7d8681a3724c8ff12ae4f8f72814af5f164a41e98977f9605e6139b2f3",
  "parentHash": "0x9d6f7f526f59b866d83c412338fee395963ff355cec7f38734179100c61d756f",
  "number": 80160,
  "timestamp": 1439481113,
  "nonce": "0x07661fe97595a33d",
  "difficulty": 2363211003489,
  "gasLimit": {
    "_hex": "0x2fefd8"
  },
  "gasUsed": {
    "_hex": "0xf618"
  },
  "miner": "0x9667dF29De26704cE04E2fF2BE67BEd99308812D",
  "extraData": "0x476574682f76312e302e312d38326566323666362f6c696e75782f676f312e34",
  "transactions": [
    {
      "hash": "0x670c41bf7710af826c2da37980ce60dc9fe78a52a148f31426da8842c30d8f8c",
      "blockHash": "0xbb98ad7d8681a3724c8ff12ae4f8f72814af5f164a41e98977f9605e6139b2f3",
      "blockNumber": 80160,
      "transactionIndex": 0,
      "confirmations": null,
      "from": "0x2241116B033447303880f5Bb639C34cC0e75c668",
      "gasPrice": {
        "_hex": "0xba43b7400"
      },
      "gasLimit": {
        "_hex": "0x5208"
      },
      "to": "0xC47Aaa860008be6f65B58c6C6E02a84e666EfE31",
      "value": {
        "_hex": "0xdb259cbc11238f0"
      },
      "nonce": 0,
      "data": "0x",
      "r": "0x88eb6d442f83a6a0fd185ddfcc8abcdd2bbe9762f51cc739a1c6b60c149c7dd2",
      "s": "0x57416c32d5b712a0e0706bc29864dc4936d33e5025d23cbbd797dee6ab3dc12b",
      "v": 28,
      "creates": null,
      "raw": "0xf86c80850ba43b740082520894c47aaa860008be6f65b58c6c6e02a84e666efe31880db259cbc11238f0801ca088eb6d442f83a6a0fd185ddfcc8abcdd2bbe9762f51cc739a1c6b60c149c7dd2a057416c32d5b712a0e0706bc29864dc4936d33e5025d23cbbd797dee6ab3dc12b",
      "networkId": 0,
      "chainId": 0
    },
    {
      "hash": "0xf7bd17b11c34f297c3c4b33cf6e0aee145b16d4ececf606b3675b7b33d8746c8",
      "blockHash": "0xbb98ad7d8681a3724c8ff12ae4f8f72814af5f164a41e98977f9605e6139b2f3",
      "blockNumber": 80160,
      "transactionIndex": 1,
      "confirmations": null,
      "from": "0x0C1c86Cf57F425db16A3314D2d59f08D2D6A3Eb7",
      "gasPrice": {
        "_hex": "0xba43b7400"
      },
      "gasLimit": {
        "_hex": "0x5208"
      },
      "to": "0xC47Aaa860008be6f65B58c6C6E02a84e666EfE31",
      "value": {
        "_hex": "0x1d55ad5281fb9cf0"
      },
      "nonce": 0,
      "data": "0x",
      "r": "0xf33b4864699227a46c3baab5ae0980c74d36d75f7a2c38230107088c3e53f696",
      "s": "0x7708015cb474550b8b4fcf436f870567c454d9f742f2992722e8f1e73b6389f4",
      "v": 28,
      "creates": null,
      "raw": "0xf86c80850ba43b740082520894c47aaa860008be6f65b58c6c6e02a84e666efe31881d55ad5281fb9cf0801ca0f33b4864699227a46c3baab5ae0980c74d36d75f7a2c38230107088c3e53f696a07708015cb474550b8b4fcf436f870567c454d9f742f2992722e8f1e73b6389f4",
      "networkId": 0,
      "chainId": 0
    },
    {
      "hash": "0x93dc1dc6dc0e35b478b5a2035cd30d7e8d34fd2126740d571f54032e5834440a",
      "blockHash": "0xbb98ad7d8681a3724c8ff12ae4f8f72814af5f164a41e98977f9605e6139b2f3",
      "blockNumber": 80160,
      "transactionIndex": 2,
      "confirmations": null,
      "from": "0xaB93C64a7Bbc11Dca77146aB531E1551dE7734C9",
      "gasPrice": {
        "_hex": "0xba43b7400"
      },
      "gasLimit": {
        "_hex": "0x5208"
      },
      "to": "0xC47Aaa860008be6f65B58c6C6E02a84e666EfE31",
      "value": {
        "_hex": "0x10432ed89d8c6b11e0"
      },
      "nonce": 0,
      "data": "0x",
      "r": "0x0a1fe50a9f3321c86022aba9001302eef59214e63adbde1b2cd5af824032bce4",
      "s": "0x520e7a48fb5cc10dec340bd0003ff5da58a4743eb10d7f12081a838a38cecb4e",
      "v": 28,
      "creates": null,
      "raw": "0xf86d80850ba43b740082520894c47aaa860008be6f65b58c6c6e02a84e666efe318910432ed89d8c6b11e0801ca00a1fe50a9f3321c86022aba9001302eef59214e63adbde1b2cd5af824032bce4a0520e7a48fb5cc10dec340bd0003ff5da58a4743eb10d7f12081a838a38cecb4e",
      "networkId": 0,
      "chainId": 0
    }
  ]
}