{
  "hash": "0xad5969155b6619aa92e9e05462231ad97ef2499fc5176ae9193e99296c9869d1",
  "parentHash": "0x1bc601b94aae4ff16f3903d6b0b419edf660707f5469b5a6ea436cc36f1f6bda",
  "number": 110303,
  "timestamp": 1439971466,
  "nonce": "0x17fad79d3aa0b77f",
  "difficulty": 4362857490815,
  "gasLimit": {
    "_hex": "0x2fefd8"
  },
  "gasUsed": {
    "_hex": "0xf618"
  },
  "miner": "0x2134e2a2b718DCa96580ECAC31E653Ea1fdd58DA",
  "extraData": "0x476574682f76312e302e312f77696e646f77732f676f312e342e32",
  "transactions": [
    {
      "hash": "0x346545a44775e0fb327253c77e4c823dd7f0505bbf2a41b1070f8b5d2152b6de",
      "blockHash": "0xad5969155b6619aa92e9e05462231ad97ef2499fc5176ae9193e99296c9869d1",
      "blockNumber": 110303,
      "transactionIndex": 0,
      "confirmations": null,
      "from": "0xb1abce2918E21ddb93AA452731a12672A3d9F75a",
      "gasPrice": {
        "_hex": "0xd6f63523f"
      },
      "gasLimit": {
        "_hex": "0x5208"
      },
      "to": "0x32Be343B94f860124dC4fEe278FDCBD38C102D88",
      "value": {
        "_hex": "0x455f4369148dbc00"
      },
      "nonce": 162,
      "data": "0x",
      "r": "0xb0ffbe1c9d7fbd9b621da1aa17adc20181502c4b75a21069d7a449751ca2102f",
      "s": "0x179af9cfdf5f9b5cb8d8b2285936bfe3ef5cf09b89d6366151347a5abb7c4e5f",
      "v": 27,
      "creates": null,
      "raw": "0xf86d81a2850d6f63523f8252089432be343b94f860124dc4fee278fdcbd38c102d8888455f4369148dbc00801ba0b0ffbe1c9d7fbd9b621da1aa17adc20181502c4b75a21069d7a449751ca2102fa0179af9cfdf5f9b5cb8d8b2285936bfe3ef5cf09b89d6366151347a5abb7c4e5f",
      "networkId": 0,
      "chainId": 0
    },
    {
      "hash": "0x407c752b459aa65a2915a74c9f9df19cc3ffae3abbbf9fed74da02c302363d21",
      "blockHash": "0xad5969155b6619aa92e9e05462231ad97ef2499fc5176ae9193e99296c9869d1",
      "blockNumber": 110303,
      "transactionIndex": 1,
      "confirmations": null,
      "from": "0xAd941B747c499E3ad5728C285446813783A33564",
      "gasPrice": {
        "_hex": "0xd6f63523f"
      },
      "gasLimit": {
        "_hex": "0x5208"
      },
      "to": "0x32Be343B94f860124dC4fEe278FDCBD38C102D88",
      "value": {
        "_hex": "0x18fa9d9500ad9c000"
      },
      "nonce": 16,
      "data": "0x",
      "r": "0x7feb89048c19887485d428f55d4416c17e1ee9a4f1b25a03826ddcd541286cdb",
      "s": "0x512d4e5de636c885e22f0ae3eb02ec716ee5762208406367d53a2d00fff52f3b",
      "v": 27,
      "creates": null,
      "raw": "0xf86d10850d6f63523f8252089432be343b94f860124dc4fee278fdcbd38c102d8889018fa9d9500ad9c000801ba07feb89048c19887485d428f55d4416c17e1ee9a4f1b25a03826ddcd541286cdba0512d4e5de636c885e22f0ae3eb02ec716ee5762208406367d53a2d00fff52f3b",
      "networkId": 0,
      "chainId": 0
    },
    {
      "hash": "0x718739b1e692cc9e52d1f774de105c94fd032c639331ae854edb56570bc4b5eb",
      "blockHash": "0xad5969155b6619aa92e9e05462231ad97ef2499fc5176ae9193e99296c9869d1",
      "blockNumber": 110303,
      "transactionIndex": 2,
      "confirmations": null,
      "from": "0x36c510bf8d6e569BF2F37d47265dbcB502Ff2BcE",
      "gasPrice": {
        "_hex": "0xcd1fd77f6"
      },
      "gasLimit": {
        "_hex": "0x15f90"
      },
      "to": "0xBf520BE04Aa6a36a99897062Ca9c440CF4112780",
      "value": {
        "_hex": "0xd8d726b7177a80000"
      },
      "nonce": 2,
      "data": "0x",
      "r": "0x7a06e64c97cd77a4c199886c7967ce7d13cd13c941c4abe3d3f032eb2271a059",
      "s": "0x7272fdcd54b47d837286e18c22732daffec01d658e838bdb2943b27d5c86abc2",
      "v": 27,
      "creates": null,
      "raw": "0xf86e02850cd1fd77f683015f9094bf520be04aa6a36a99897062ca9c440cf4112780890d8d726b7177a80000801ba07a06e64c97cd77a4c199886c7967ce7d13cd13c941c4abe3d3f032eb2271a059a07272fdcd54b47d837286e18c22732daffec01d658e838bdb2943b27d5c86abc2",
      "networkId": 0,
      "chainId": 0
    }
  ]
}