{
  "hash": "0x305ac1c36d25eca4437f61229738fb1868176cb9ed957db5846518c7dc11acfe",
  "parentHash": "0x773f464ff0c76fae30fc187492a96e2ffcca1e0f0cc23d964d50502beb1c531d",
  "number": 54051,
  "timestamp": 1439047841,
  "nonce": "0x3550b1b1d0c00caa",
  "difficulty": 1606364478368,
  "gasLimit": {
    "_hex": "0x2fefd8"
  },
  "gasUsed": {
    "_hex": "0xa410"
  },
  "miner": "0x3f113041D56Dda809a245Fe338832c2D373e7c80",
  "extraData": "0x476574682f76312e302e312f77696e646f77732f676f312e342e32",
  "transactions": [
    {
      "hash": "0xa3cc717dbfdfad643cff8cae3c66fc8856fdbc02874983236e58edde84f038b1",
      "blockHash": "0x305ac1c36d25eca4437f61229738fb1868176cb9ed957db5846518c7dc11acfe",
      "blockNumber": 54051,
      "transactionIndex": 0,
      "confirmations": null,
      "from": "0x32Be343B94f860124dC4fEe278FDCBD38C102D88",
      "gasPrice": {
        "_hex": "0xdc6d2e22f"
      },
      "gasLimit": {
        "_hex": "0x5208"
      },
      "to": "0xC151A0473225AE2768CF864F30ef38AC4b36C06C",
      "value": {
        "_hex": "0xe043da617250000"
      },
      "nonce": 48,
      "data": "0x",
      "r": "0x7011dd65656ac43c2903bc7a01305aae54ab3d47c6b2f1bf45b09721c0a21731",
      "s": "0x2b0057027676f6355a8b2803a1030e695a78b04f223a747088d7a2b3595f1b36",
      "v": 27,
      "creates": null,
      "raw": "0xf86c30850dc6d2e22f82520894c151a0473225ae2768cf864f30ef38ac4b36c06c880e043da617250000801ba07011dd65656ac43c2903bc7a01305aae54ab3d47c6b2f1bf45b09721c0a21731a02b0057027676f6355a8b2803a1030e695a78b04f223a747088d7a2b3595f1b36",
      "networkId": 0,
      "chainId": 0
    },
    {
      "hash": "0x6e99c5c99395da8df5bcbeeafe021a9be983414afc5865b52b3a3f0d96a7df40",
      "blockHash": "0x305ac1c36d25eca4437f61229738fb1868176cb9ed957db5846518c7dc11acfe",
      "blockNumber": 54051,
      "transactionIndex": 1,
      "confirmations": null,
      "from": "0x32Be343B94f860124dC4fEe278FDCBD38C102D88",
      "gasPrice": {
        "_hex": "0xdc6d2e22f"
      },
      "gasLimit": {
        "_hex": "0x5208"
      },
      "to": "0x526384ca4cF099ECa3f719e8ac32dEf6eaDB1E80",
      "value": {
        "_hex": "0x375f53dc2dcf0000"
      },
      "nonce": 49,
      "data": "0x",
      "r": "0x78f32202c6ab42b7b2dcbbb2223d3da982da943362facad41a3dd0b981eecc76",
      "s": "0x18c332f66bdd6d441bf4acd644f6d2ddfe013152ad0501340e1931cb84364db3",
      "v": 27,
      "creates": null,
      "raw": "0xf86c31850dc6d2e22f82520894526384ca4cf099eca3f719e8ac32def6eadb1e8088375f53dc2dcf0000801ba078f32202c6ab42b7b2dcbbb2223d3da982da943362facad41a3dd0b981eecc76a018c332f66bdd6d441bf4acd644f6d2ddfe013152ad0501340e1931cb84364db3",
      "networkId": 0,
      "chainId": 0
    }
  ]
}