{
  "hash": "0xbf5802cdb6e362e67de6bbba77cdc5d920ff468447c6d4a25a95de7fa71a534d",
  "parentHash": "0x875af0c32661fcd4c123d6931cf6ef706f46d85189fd77312f810994b73a5092",
  "number": 47272,
  "timestamp": 1438937124,
  "nonce": "0xacf2abc57de41f9c",
  "difficulty": 1467372015952,
  "gasLimit": {
    "_hex": "0xab1a"
  },
  "gasUsed": {
    "_hex": "0x5208"
  },
  "miner": "0xf8E0CA3Ed80bd541b94BEdCf259e8CF2141A9523",
  "extraData": "0x476574682f76312e302e312f77696e646f77732f676f312e342e32",
  "transactions": [
    {
      "hash": "0x36ff831d8c8a410f46aa9cbf5bbb0f395323935cc0bd74c9ab5178cb23e6670d",
      "blockHash": "0xbf5802cdb6e362e67de6bbba77cdc5d920ff468447c6d4a25a95de7fa71a534d",
      "blockNumber": 47272,
      "transactionIndex": 0,
      "confirmations": null,
      "from": "0xe6A7a1d47ff21B6321162AEA7C6CB457D5476Bca",
      "gasPrice": {
        "_hex": "0xe7da339db"
      },
      "gasLimit": {
        "_hex": "0x5208"
      },
      "to": "0x8eB3FbB4A0Cc2366e88FB476df63D3Ad6907907b",
      "value": {
        "_hex": "0x96c49aee09d32b18"
      },
      "nonce": 95,
      "data": "0x",
      "r": "0x3d4703d077d3f5455d1913351271e5bec7fd77a5f324c50e8e6e93e39bc309a6",
      "s": "0x38a7066b78acd0bbfc0e66fe9c17e3f77e26aa9113da1b68d9f563af54c9675b",
      "v": 27,
      "creates": null,
      "raw": "0xf86c5f850e7da339db825208948eb3fbb4a0cc2366e88fb476df63d3ad6907907b8896c49aee09d32b18801ba03d4703d077d3f5455d1913351271e5bec7fd77a5f324c50e8e6e93e39bc309a6a038a7066b78acd0bbfc0e66fe9c17e3f77e26aa9113da1b68d9f563af54c9675b",
      "networkId": 0,
      "chainId": 0
    }
  ]
}