{
  "hash": "0x346ebb66f1cb845baf44c00b98a1c78df448819757d7a6c7319fde9e7ffd25ff",
  "parentHash": "0x5f2f0b049eb1e9b358dae083137480469260dca4e75d7f22ad9eb235fd28e7f4",
  "number": 93147,
  "timestamp": 1439683679,
  "nonce": "0xacd701edb9c2d4af",
  "difficulty": 3617268725319,
  "gasLimit": {
    "_hex": "0x2fefd5"
  },
  "gasUsed": {
    "_hex": "0x5208"
  },
  "miner": "0xDFAEf2eeE901dde3f2f790b3D81c491D2EeEaeB4",
  "extraData": "0xd983010001844765746887676f312e342e328777696e646f7773",
  "transactions": [
    {
      "hash": "0x7f76d2b6eaa6d39d283a18149a825f1d73a713689a3064b23ff74da8eca7c26c",
      "blockHash": "0x346ebb66f1cb845baf44c00b98a1c78df448819757d7a6c7319fde9e7ffd25ff",
      "blockNumber": 93147,
      "transactionIndex": 0,
      "confirmations": null,
      "from": "0x120A270bbC009644e35F0bB6ab13f95b8199c4ad",
      "gasPrice": {
        "_hex": "0xd13477dfc"
      },
      "gasLimit": {
        "_hex": "0x3d090"
      },
      "to": "0x92431Ac2B781ACCc78810fb7ad52CD608f23bE49",
      "value": {
        "_hex": "0x1043561a8829300000"
      },
      "nonce": 561,
      "data": "0x",
      "r": "0x8ca64901bcb8560b317192e5775a3875c151d451c167bbedc7e76f64f08eb48e",
      "s": "0x012af82e5b30c551048838a38bf89d07d4c2ae61480b2ba891c63e5ea0e61c16",
      "v": 27,
      "creates": null,
      "raw": "0xf870820231850d13477dfc8303d0909492431ac2b781accc78810fb7ad52cd608f23be49891043561a8829300000801ba08ca64901bcb8560b317192e5775a3875c151d451c167bbedc7e76f64f08eb48ea0012af82e5b30c551048838a38bf89d07d4c2ae61480b2ba891c63e5ea0e61c16",
      "networkId": 0,
      "chainId": 0
    }
  ]
}