{
  "hash": "0xdc6b807ba2fd962683d4756282f4c74d46f37a163fa5dead384f14bb41709f6a",
  "parentHash": "0x867d2733a81977fe650b33035a7539d796bfde8a195491289d00542b34829fa3",
  "number": 69158,
  "timestamp": 1439299154,
  "nonce": "0xe823fefa66441603",
  "difficulty": 2057896575340,
  "gasLimit": {
    "_hex": "0x2fefd8"
  },
  "gasUsed": {
    "_hex": "0x5208"
  },
  "miner": "0x47ff6576639c2e94762eA5443978D7681C0E78DC",
  "extraData": "0x476574682f76312e302e312f6c696e75782f676f312e342e32",
  "transactions": [
    {
      "hash": "0x8fa90e8cbca0081b4bf8ba02425fc343baed159ea99aa2ab5116b3c7bc43f530",
      "blockHash": "0xdc6b807ba2fd962683d4756282f4c74d46f37a163fa5dead384f14bb41709f6a",
      "blockNumber": 69158,
      "transactionIndex": 0,
      "confirmations": null,
      "from": "0x26163E84886A136fC8034eB4e9F1cc00b1D345f1",
      "gasPrice": {
        "_hex": "0xd1f217cbf"
      },
      "gasLimit": {
        "_hex": "0x15f90"
      },
      "to": "0x6d921977dEFE5f4e0682CA512De1D07b1f4802E1",
      "value": {
        "_hex": "0x38d7ea4c68000"
      },
      "nonce": 0,
      "data": "0x",
      "r": "0x1150e10bb5f6d82d67fa6f786c9d0d16084edc3669654b0749ad7ad0015270bc",
      "s": "0x346bdfa904f05451a3dd293ad2eb0dc556b4657e7e1afe187802642d89817f98",
      "v": 27,
      "creates": null,
      "raw": "0xf86c80850d1f217cbf83015f90946d921977defe5f4e0682ca512de1d07b1f4802e187038d7ea4c68000801ba01150e10bb5f6d82d67fa6f786c9d0d16084edc3669654b0749ad7ad0015270bca0346bdfa904f05451a3dd293ad2eb0dc556b4657e7e1afe187802642d89817f98",
      "networkId": 0,
      "chainId": 0
    }
  ]
}