{
  "hash": "0x9f1cb89007bdafa81fc5d17c54612dbfdf76a18c082e3c0f4043a269ff755c1b",
  "parentHash": "0x7021c5d6d43bf2476a05366594b85049cb25d2a252824e7e5988c395e3730c28",
  "number": 75687,
  "timestamp": 1439407370,
  "nonce": "0x2f12a0f87df71e41",
  "difficulty": 2235359720792,
  "gasLimit": {
    "_hex": "0x2fefd8"
  },
  "gasUsed": {
    "_hex": "0x8f9f"
  },
  "miner": "0x0eDEd3DA479d0beF8eeC92A76644D3f4E3C177f7",
  "extraData": "0x476574682f76312e302e312f6c696e75782f676f312e342e32",
  "transactions": [
    {
      "hash": "0x26d86c0732eb8cf6b8de61d5cdda1ba5bf1a6a1595b94754335103ce68678365",
      "blockHash": "0x9f1cb89007bdafa81fc5d17c54612dbfdf76a18c082e3c0f4043a269ff755c1b",
      "blockNumber": 75687,
      "transactionIndex": 0,
      "confirmations": null,
      "from": "0x326Be8F71bFb0379f989aAB1CC1fE37f0a771f60",
      "gasPrice": {
        "_hex": "0x1091319d96d"
      },
      "gasLimit": {
        "_hex": "0x493e0"
      },
      "to": "0xD79B4C6791784184e2755B2fC1659eaaB0f80456",
      "value": {
        "_hex": "0xde0b6b3a7640000"
      },
      "nonce": 103,
      "data": "0x8d2161860000000000000000000000000000000000000000000000000000000000000080b269dbca14ce64c955602db94ff68cbb324de5ce3245c62f5818408ecd36f760",
      "r": "0x526ad4437c2e2f5064747a05ce2c568c942430e9accfe1dde2b6c903f60f2ddf",
      "s": "0x4a8588d5d4396b1b53a5981a8582deb93c84ade8a9afd591596231660a32daf3",
      "v": 28,
      "creates": null,
      "raw": "0xf8b3678601091319d96d830493e094d79b4c6791784184e2755b2fc1659eaab0f80456880de0b6b3a7640000b8448d2161860000000000000000000000000000000000000000000000000000000000000080b269dbca14ce64c955602db94ff68cbb324de5ce3245c62f5818408ecd36f7601ca0526ad4437c2e2f5064747a05ce2c568c942430e9accfe1dde2b6c903f60f2ddfa04a8588d5d4396b1b53a5981a8582deb93c84ade8a9afd591596231660a32daf3",
      "networkId": 0,
      "chainId": 0
    }
  ]
}