{
  "hash": "0x4b869d02d96dd30a1ea63aceba6d21641c846d8a4e1a16fb64fce2c2ff915821",
  "parentHash": "0x74d7df47e57f3cb15f1dfd1985db5cc3c1ff45b2c78ea853b0b5dae9f84fa8ff",
  "number": 112220,
  "timestamp": 1440003929,
  "nonce": "0xd4bba4191c03880d",
  "difficulty": 4381071099918,
  "gasLimit": {
    "_hex": "0x2fefd8"
  },
  "gasUsed": {
    "_hex": "0xa410"
  },
  "miner": "0xe6A7a1d47ff21B6321162AEA7C6CB457D5476Bca",
  "extraData": "0x476574682f76312e302e312d38326566323666362f6c696e75782f676f312e34",
  "transactions": [
    {
      "hash": "0x6a69c52ef7ff3080f6733c7f9eea20634e46384cab2605f1a4d25998ab5fc55d",
      "blockHash": "0x4b869d02d96dd30a1ea63aceba6d21641c846d8a4e1a16fb64fce2c2ff915821",
      "blockNumber": 112220,
      "transactionIndex": 0,
      "confirmations": null,
      "from": "0x6c526EC857c116541b66ED11eC3bE06b1C2B7E37",
      "gasPrice": {
        "_hex": "0xba43b7400"
      },
      "gasLimit": {
        "_hex": "0x5208"
      },
      "to": "0xC47Aaa860008be6f65B58c6C6E02a84e666EfE31",
      "value": {
        "_hex": "0x414a16a42114c0"
      },
      "nonce": 1,
      "data": "0x",
      "r": "0xa182c5d49abded88cc07878fee7b1a7552cc43c376358f6bf6549ce080c29228",
      "s": "0x4d8293943ccbaf4d83447e74bfe58c840deb261dd966c90400eed825957f154b",
      "v": 28,
      "creates": null,
      "raw": "0xf86b01850ba43b740082520894c47aaa860008be6f65b58c6c6e02a84e666efe3187414a16a42114c0801ca0a182c5d49abded88cc07878fee7b1a7552cc43c376358f6bf6549ce080c29228a04d8293943ccbaf4d83447e74bfe58c840deb261dd966c90400eed825957f154b",
      "networkId": 0,
      "chainId": 0
    },
    {
      "hash": "0xe606661a77e4192ad78357a6a5b3f09eda1d8554f90f67c5362a3766bfb03d64",
      "blockHash": "0x4b869d02d96dd30a1ea63aceba6d21641c846d8a4e1a16fb64fce2c2ff915821",
      "blockNumber": 112220,
      "transactionIndex": 1,
      "confirmations": null,
      "from": "0x983C3f45E26ee1a84155C1dDBB1cfDBf85a4d2b3",
      "gasPrice": {
        "_hex": "0xba43b7400"
      },
      "gasLimit": {
        "_hex": "0x5208"
      },
      "to": "0xC47Aaa860008be6f65B58c6C6E02a84e666EfE31",
      "value": {
        "_hex": "0x55b9f6eb7fefdf0"
      },
      "nonce": 1,
      "data": "0x",
      "r": "0x8fdb045944a46cb908818f7ef888779b7f44acd00fabb9629887b54e5e9e27fa",
      "s": "0x6f6121a3b0ef7bb654847012c37f6af3c4df1c331686f59fec4701fea0318e65",
      "v": 28,
      "creates": null,
      "raw": "0xf86c01850ba43b740082520894c47aaa860008be6f65b58c6c6e02a84e666efe3188055b9f6eb7fefdf0801ca08fdb045944a46cb908818f7ef888779b7f44acd00fabb9629887b54e5e9e27faa06f6121a3b0ef7bb654847012c37f6af3c4df1c331686f59fec4701fea0318e65",
      "networkId": 0,
      "chainId": 0
    }
  ]
}