{
  "hash": "0xbc17ad444d30211e5af08493b21bb276e164ccd7a5cd48b21b775c26c8fc367b",
  "parentHash": "0xbbf54c32541a7ff9107e586c04449aa50d45be2cd2d9c2047ba19145ffa2a527",
  "number": 115393,
  "timestamp": 1440056419,
  "nonce": "0x66e19d85144e026c",
  "difficulty": 4569461932197,
  "gasLimit": {
    "_hex": "0x2fefd8"
  },
  "gasUsed": {
    "_hex": "0x5208"
  },
  "miner": "0x580992B51e3925e23280EfB93d3047C82f17E038",
  "extraData": "0x476574682f76312e302e312f6c696e75782f676f312e342e32",
  "transactions": [
    {
      "hash": "0xc0c0949b033c83c53b1683120cc5ce3fd20babfa98a3151aa6ef96feac5b5f82",
      "blockHash": "0xbc17ad444d30211e5af08493b21bb276e164ccd7a5cd48b21b775c26c8fc367b",
      "blockNumber": 115393,
      "transactionIndex": 0,
      "confirmations": null,
      "from": "0xf0c896DB24137eDA6Ec88cF1a95217F8604aE55e",
      "gasPrice": {
        "_hex": "0xcca2189d4"
      },
      "gasLimit": {
        "_hex": "0x5208"
      },
      "to": "0x32Be343B94f860124dC4fEe278FDCBD38C102D88",
      "value": {
        "_hex": "0xf72d0646395c3000"
      },
      "nonce": 7,
      "data": "0x",
      "r": "0xf0deaf3004211a6572f167b393db8cab5c96ac9fdbb7733767d0a07ab280e61f",
      "s": "0x426b9d146c493aa4010afe3ebd84799ae82676d4daa9431dbce756ddc6498c20",
      "v": 28,
      "creates": null,
      "raw": "0xf86c07850cca2189d48252089432be343b94f860124dc4fee278fdcbd38c102d8888f72d0646395c3000801ca0f0deaf3004211a6572f167b393db8cab5c96ac9fdbb7733767d0a07ab280e61fa0426b9d146c493aa4010afe3ebd84799ae82676d4daa9431dbce756ddc6498c20",
      "networkId": 0,
      "chainId": 0
    }
  ]
}