{
  "hash": "0x7e50ff73bec3fead005c0f2bfcd852227d91ec42bd27e29061ad6e77b9b378dd",
  "parentHash": "0x88caa375f49db11ebff9caf33f0bc49f9749d9507d7297065bd07a54e2d51683",
  "number": 66754,
  "timestamp": 1439259775,
  "nonce": "0x6436945fab7e7754",
  "difficulty": 1945132952739,
  "gasLimit": {
    "_hex": "0x2fefd8"
  },
  "gasUsed": {
    "_hex": "0x5208"
  },
  "miner": "0x306e6267d94f23a9b37Cb110f20852208Fbbf1aA",
  "extraData": "0x",
  "transactions": [
    {
      "hash": "0xd9113be1bc114d02fccd300453db9c9e3aff116f416c2f535e63bd2ee5b70b2d",
      "blockHash": "0x7e50ff73bec3fead005c0f2bfcd852227d91ec42bd27e29061ad6e77b9b378dd",
      "blockNumber": 66754,
      "transactionIndex": 0,
      "confirmations": null,
      "from": "0xc3631c7698b6C5111989BF452727B3f9395a6deA",
      "gasPrice": {
        "_hex": "0x45d964b800"
      },
      "gasLimit": {
        "_hex": "0x5208"
      },
      "to": "0x431FDD9f2Fdc4A532867E0e0a85463436807d17C",
      "value": {
        "_hex": "0x4563918244f40000"
      },
      "nonce": 3,
      "data": "0x",
      "r": "0x9212ece2032cf687861f664e313e61484f3916814b496ac19d4cd7cc03b1341c",
      "s": "0x7d83c888c4204300aa09869416ebfbb10cf2ad73a91b2ec7ac6dc89266ced53e",
      "v": 28,
      "creates": null,
      "raw": "0xf86c038545d964b80082520894431fdd9f2fdc4a532867e0e0a85463436807d17c884563918244f40000801ca09212ece2032cf687861f664e313e61484f3916814b496ac19d4cd7cc03b1341ca07d83c888c4204300aa09869416ebfbb10cf2ad73a91b2ec7ac6dc89266ced53e",
      "networkId": 0,
      "chainId": 0
    }
  ]
}