{
  "hash": "0xff4c7dfdbe9ec2449c565ae76c99cab619e9db653073598e7849d6b93642e135",
  "parentHash": "0x80fd9c6f1a720143c9b8a166de38d34ee69721551fa30763daedec0cddfe3c4f",
  "number": 64778,
  "timestamp": 1439226089,
  "nonce": "0xed6f63af6b0d1734",
  "difficulty": 1893112190251,
  "gasLimit": {
    "_hex": "0x2fefd8"
  },
  "gasUsed": {
    "_hex": "0x5208"
  },
  "miner": "0x39A1BB80a741bF5EC39FB9BE59408Fa0F418fFBf",
  "extraData": "0x476574682f76312e302e312f77696e646f77732f676f312e342e32",
  "transactions": [
    {
      "hash": "0xc71bcc9a2efbc529ac9fbeb55ca41e372a8b744e51842f58fc11a76805e3f76c",
      "blockHash": "0xff4c7dfdbe9ec2449c565ae76c99cab619e9db653073598e7849d6b93642e135",
      "blockNumber": 64778,
      "transactionIndex": 0,
      "confirmations": null,
      "from": "0x6b852c11D8A55ebe0D91aaE00b45e602aA06dc64",
      "gasPrice": {
        "_hex": "0xba43b7400"
      },
      "gasLimit": {
        "_hex": "0x5208"
      },
      "to": "0xDE8A1d41eb3a2D7ABbF00df1A06976a4FAb3eB5b",
      "value": {
        "_hex": "0xd8e5610f40e000"
      },
      "nonce": 1,
      "data": "0x",
      "r": "0xa6f1394a13145bd8cd648b700d8b4eca81c79fddc1d76e1c841a334b01a9485c",
      "s": "0x3bdda8e5e5fb80bc0e1270a383de4b8db1d07c4a3d96dda948c2ed8f76650f71",
      "v": 27,
      "creates": null,
      "raw": "0xf86b01850ba43b740082520894de8a1d41eb3a2d7abbf00df1a06976a4fab3eb5b87d8e5610f40e000801ba0a6f1394a13145bd8cd648b700d8b4eca81c79fddc1d76e1c841a334b01a9485ca03bdda8e5e5fb80bc0e1270a383de4b8db1d07c4a3d96dda948c2ed8f76650f71",
      "networkId": 0,
      "chainId": 0
    }
  ]
}