{
  "hash": "0x0d483d3ed969fc281c21845605483ac8803bbcf462e2659655fb87cbfb3ed22f",
  "parentHash": "0x53590977e5dc16c597811302e834dbb76fdf3f3693d35b930f6a7f23cfc71259",
  "number": 89512,
  "timestamp": 1439624574,
  "nonce": "0x09bb7cd863ce2d6a",
  "difficulty": 3332200955737,
  "gasLimit": {
    "_hex": "0x2fefd8"
  },
  "gasUsed": {
    "_hex": "0x5208"
  },
  "miner": "0xe6A7a1d47ff21B6321162AEA7C6CB457D5476Bca",
  "extraData": "0x476574682f76312e302e312d38326566323666362f6c696e75782f676f312e34",
  "transactions": [
    {
      "hash": "0xf8c8a52ec7f145e7823fcfa1ed25c4e6977c46ec31b221bd2ed1ef1f13e27475",
      "blockHash": "0x0d483d3ed969fc281c21845605483ac8803bbcf462e2659655fb87cbfb3ed22f",
      "blockNumber": 89512,
      "transactionIndex": 0,
      "confirmations": null,
      "from": "0x19f3FFA47535ACaEc3DeBA33fF88667C804e89C0",
      "gasPrice": {
        "_hex": "0xd7d40ace3"
      },
      "gasLimit": {
        "_hex": "0x15f90"
      },
      "to": "0x18aC3828876aC1968eF70ebCD8018A9223A4C56e",
      "value": {
        "_hex": "0x6124fee993bc0000"
      },
      "nonce": 1,
      "data": "0x",
      "r": "0x1f8fa7aec0e3968bc2147b2613e6155f649285e9c7ab4f5f63aa0c6bceb182b6",
      "s": "0x01ce37c58ee263e56e0292a92a3c526a2d5fd01bbba760047dbc67d275910c7b",
      "v": 28,
      "creates": null,
      "raw": "0xf86d01850d7d40ace383015f909418ac3828876ac1968ef70ebcd8018a9223a4c56e886124fee993bc0000801ca01f8fa7aec0e3968bc2147b2613e6155f649285e9c7ab4f5f63aa0c6bceb182b6a001ce37c58ee263e56e0292a92a3c526a2d5fd01bbba760047dbc67d275910c7b",
      "networkId": 0,
      "chainId": 0
    }
  ]
}