{
  "hash": "0x6aaef34f62cec151756fa226e2f290ed9804f14738dc4807372b6079a2fdaad1",
  "parentHash": "0x2583fa29b9afa5f5c473df0a93fa9a62eead0bb1ba5abe268760debb0996d09b",
  "number": 79238,
  "timestamp": 1439466548,
  "nonce": "0x60acbfcee4a5ef01",
  "difficulty": 2324557355391,
  "gasLimit": {
    "_hex": "0x2fefd8"
  },
  "gasUsed": {
    "_hex": "0x546c"
  },
  "miner": "0x727A42a8D67fcaa0Ab81D46f1EE66bfc9b8789AC",
  "extraData": "0x",
  "transactions": [
    {
      "hash": "0x3a117a38d993a82c724125c38c330fc8d07060edbb91cd49b6df8c8ec7ed4c25",
      "blockHash": "0x6aaef34f62cec151756fa226e2f290ed9804f14738dc4807372b6079a2fdaad1",
      "blockNumber": 79238,
      "transactionIndex": 0,
      "confirmations": null,
      "from": "0x9f8aF3029af4Ba51bbAa32cF064816e07A35BBbD",
      "gasPrice": {
        "_hex": "0xe185bbe2d"
      },
      "gasLimit": {
        "_hex": "0x55f0"
      },
      "to": "0x2910543Af39abA0Cd09dBb2D50200b3E800A63D2",
      "value": {
        "_hex": "0x2086ac351052600000"
      },
      "nonce": 2,
      "data": "0x454e304236584b4738",
      "r": "0x29c7dfd4f92b7d30fa44098e392377c4f9091785de9dd255c9d887a04004fbe3",
      "s": "0x51e6a6301fb63cda3959d9f3770274ac3faaa5b1d51943d29ea0f92630e5614b",
      "v": 28,
      "creates": null,
      "raw": "0xf87602850e185bbe2d8255f0942910543af39aba0cd09dbb2d50200b3e800a63d2892086ac35105260000089454e304236584b47381ca029c7dfd4f92b7d30fa44098e392377c4f9091785de9dd255c9d887a04004fbe3a051e6a6301fb63cda3959d9f3770274ac3faaa5b1d51943d29ea0f92630e5614b",
      "networkId": 0,
      "chainId": 0
    }
  ]
}