{
  "hash": "0x29ffac9a3af03f21fecd23d98acb4878e6857b53ce3c71686ae0e34b40e54fc4",
  "parentHash": "0x37c0e6e345cdeb7f5b0dc3e508cbdeef449042f3b528bef09c33c57373ef7d9e",
  "number": 111132,
  "timestamp": 1439985202,
  "nonce": "0xb3f6c9f74a2574ed",
  "difficulty": 4394495017884,
  "gasLimit": {
    "_hex": "0x2fefd8"
  },
  "gasUsed": {
    "_hex": "0x5208"
  },
  "miner": "0xbb7B8287f3F0a933474a79eAe42CBCa977791171",
  "extraData": "0x476574682f4c5649562f76312e302e312f6c696e75782f676f312e342e32",
  "transactions": [
    {
      "hash": "0x55cf0da3f109d2c4c89e07401e371a4c093130c098b8560cdc4fb61b7f86253c",
      "blockHash": "0x29ffac9a3af03f21fecd23d98acb4878e6857b53ce3c71686ae0e34b40e54fc4",
      "blockNumber": 111132,
      "transactionIndex": 0,
      "confirmations": null,
      "from": "0x007f7f58D3eb5b7510A301eCC749FC1fCDDBE14D",
      "gasPrice": {
        "_hex": "0xd382b0b9c"
      },
      "gasLimit": {
        "_hex": "0x15f90"
      },
      "to": "0xb1abce2918E21ddb93AA452731a12672A3d9F75a",
      "value": {
        "_hex": "0x4563918244f40000"
      },
      "nonce": 303,
      "data": "0x",
      "r": "0x46ce7c2aee925a1a4ba075ed50bcbebe1995911738493d0b86ddc73f0f9fdf4f",
      "s": "0x77a3505797e658f7504964fee55cf52db0b622389644b100e1c514fe2727c549",
      "v": 28,
      "creates": null,
      "raw": "0xf86f82012f850d382b0b9c83015f9094b1abce2918e21ddb93aa452731a12672a3d9f75a884563918244f40000801ca046ce7c2aee925a1a4ba075ed50bcbebe1995911738493d0b86ddc73f0f9fdf4fa077a3505797e658f7504964fee55cf52db0b622389644b100e1c514fe2727c549",
      "networkId": 0,
      "chainId": 0
    }
  ]
}