{
  "hash": "0xc51a8b114ea7945afa1853339ec69bfdbd59b38e59f258e3acdc37e550b80d73",
  "parentHash": "0x5d3b0d93d481ae7f96dc7f635dad963f4a52ed41e3887765b5575bdce860ab2c",
  "number": 101695,
  "timestamp": 1439826743,
  "nonce": "0xda0523d21b02d2fa",
  "difficulty": 3876810384614,
  "gasLimit": {
    "_hex": "0x2fefd8"
  },
  "gasUsed": {
    "_hex": "0x5208"
  },
  "miner": "0xf927a40C8B7F6E07c5af7FA2155B4864a4112B13",
  "extraData": "0x",
  "transactions": [
    {
      "hash": "0x026ab54093fa7ead460ff72d08c2cbbf9fdfa8b97ffa4a0632a6efd35e07e6de",
      "blockHash": "0xc51a8b114ea7945afa1853339ec69bfdbd59b38e59f258e3acdc37e550b80d73",
      "blockNumber": 101695,
      "transactionIndex": 0,
      "confirmations": null,
      "from": "0xc3a9226aE275dF2CAB312B911040634A9C9C9eF6",
      "gasPrice": {
        "_hex": "0xdc903bed3"
      },
      "gasLimit": {
        "_hex": "0x5208"
      },
      "to": "0x24e0fEAc2aabaE5625b91D8e9310bEd1E19eAc2a",
      "value": {
        "_hex": "0x1b1ae4d6e2ef500000"
      },
      "nonce": 6,
      "data": "0x",
      "r": "0xfefc960da1cee091dfc845cb2f0b07cb0472f8aa57eee7ed50a2ea39c0dc9e69",
      "s": "0x0aeaf21ef0dde1d44745637beb1806ad93c39bc4aa0b5de2a2f904b8c0c983e4",
      "v": 27,
      "creates": null,
      "raw": "0xf86d06850dc903bed38252089424e0feac2aabae5625b91d8e9310bed1e19eac2a891b1ae4d6e2ef500000801ba0fefc960da1cee091dfc845cb2f0b07cb0472f8aa57eee7ed50a2ea39c0dc9e69a00aeaf21ef0dde1d44745637beb1806ad93c39bc4aa0b5de2a2f904b8c0c983e4",
      "networkId": 0,
      "chainId": 0
    }
  ]
}