{
  "hash": "0xd1450398049f296010b262cca493a6305a97b5fa2765f2edc8aa373be8ac5e6c",
  "parentHash": "0xc76f799910439858f09f233e8340137de2181eab818a1268b39a181583b033ed",
  "number": 96662,
  "timestamp": 1439743944,
  "nonce": "0x879f4e2c513d58cc",
  "difficulty": 3728708569808,
  "gasLimit": {
    "_hex": "0x2fefd8"
  },
  "gasUsed": {
    "_hex": "0x5208"
  },
  "miner": "0x858079E02403b10748B71A02195b6608Abaf6b8f",
  "extraData": "0x476574682f76312e302e312f77696e646f77732f676f312e342e32",
  "transactions": [
    {
      "hash": "0xae96a62d62b66d00662389f6f734df35af2fcb0ff209465ffa068cb2367f063e",
      "blockHash": "0xd1450398049f296010b262cca493a6305a97b5fa2765f2edc8aa373be8ac5e6c",
      "blockNumber": 96662,
      "transactionIndex": 0,
      "confirmations": null,
      "from": "0x249502491a53b217181420Cc4A6dE23a720636CA",
      "gasPrice": {
        "_hex": "0xcc629aa58"
      },
      "gasLimit": {
        "_hex": "0x5208"
      },
      "to": "0x32Be343B94f860124dC4fEe278FDCBD38C102D88",
      "value": {
        "_hex": "0x3635c595e85f320000"
      },
      "nonce": 8,
      "data": "0x",
      "r": "0xd3b1698952683426a70065d7b4c61cc8a6ea6fab7a85cd9c9030920761cf6bc3",
      "s": "0x1015397a2b8e1537728031be8b9bd9a1976ecb765f36336b02424ba908aa2e33",
      "v": 28,
      "creates": null,
      "raw": "0xf86d08850cc629aa588252089432be343b94f860124dc4fee278fdcbd38c102d88893635c595e85f320000801ca0d3b1698952683426a70065d7b4c61cc8a6ea6fab7a85cd9c9030920761cf6bc3a01015397a2b8e1537728031be8b9bd9a1976ecb765f36336b02424ba908aa2e33",
      "networkId": 0,
      "chainId": 0
    }
  ]
}