{
  "hash": "0xe3ec7e2b55e7cc1e6e1d9aad4a5f15f271cd99d7f7de757735929c7330a5e1f0",
  "parentHash": "0xa3c82de8f2a63e6ca70065fcaf81966150c13b423417af8f9d360bd621841e86",
  "number": 90398,
  "timestamp": 1439639279,
  "nonce": "0x913b0e8e4d395b5a",
  "difficulty": 3335104377461,
  "gasLimit": {
    "_hex": "0x2fefd8"
  },
  "gasUsed": {
    "_hex": "0xa674"
  },
  "miner": "0xa70a9a7040d542C632D8e0bE7c5513A8a5Bbc752",
  "extraData": "0x",
  "transactions": [
    {
      "hash": "0xd3cdc4b5eed75627229ded8ae8973c2f560ae7218b2832daf4d4f26945d7e214",
      "blockHash": "0xe3ec7e2b55e7cc1e6e1d9aad4a5f15f271cd99d7f7de757735929c7330a5e1f0",
      "blockNumber": 90398,
      "transactionIndex": 0,
      "confirmations": null,
      "from": "0xE300c4587D260cE22a677755Db6429B491A4309E",
      "gasPrice": {
        "_hex": "0xd93e8d390"
      },
      "gasLimit": {
        "_hex": "0x15f90"
      },
      "to": "0x06EC48800B2DB3eEfa052e98A9b5Fc2Bf783Ee74",
      "value": {
        "_hex": "0x8aeaa9f6f9a90000"
      },
      "nonce": 10,
      "data": "0x",
      "r": "0xbb7768fe3e7f7c060fd0993981eca14a212da24c4ddfeaabbba095271f65b39f",
      "s": "0x4eff62103500de09a36daa0551ec4b234333a3c8d7666e320e6b3d551ab26c8f",
      "v": 28,
      "creates": null,
      "raw": "0xf86d0a850d93e8d39083015f909406ec48800b2db3eefa052e98a9b5fc2bf783ee74888aeaa9f6f9a90000801ca0bb7768fe3e7f7c060fd0993981eca14a212da24c4ddfeaabbba095271f65b39fa04eff62103500de09a36daa0551ec4b234333a3c8d7666e320e6b3d551ab26c8f",
      "networkId": 0,
      "chainId": 0
    },
    {
      "hash": "0x8122f6b5baa4c30d3a1c2800e07bc8ab4a8bd80381ac390b49fc2734b8673237",
      "blockHash": "0xe3ec7e2b55e7cc1e6e1d9aad4a5f15f271cd99d7f7de757735929c7330a5e1f0",
      "blockNumber": 90398,
      "transactionIndex": 1,
      "confirmations": null,
      "from": "0x91139B30e3d090a8c542CFB2AA1Cc6e3bfFB491C",
      "gasPrice": {
        "_hex": "0xd63e00e41"
      },
      "gasLimit": {
        "_hex": "0x55f0"
      },
      "to": "0x2910543Af39abA0Cd09dBb2D50200b3E800A63D2",
      "value": {
        "_hex": "0x1598b049456738000"
      },
      "nonce": 3,
      "data": "0x454e42363131514538",
      "r": "0x7ac25e28fb38f824930d351b48588c695878d2422adfcfcc7169b58fd9f72f1d",
      "s": "0x608132a753ccbdb3e5d54540b0b0f05803f2a50594b6f8d71d4eb87ba190ae3b",
      "v": 27,
      "creates": null,
      "raw": "0xf87603850d63e00e418255f0942910543af39aba0cd09dbb2d50200b3e800a63d28901598b04945673800089454e423631315145381ba07ac25e28fb38f824930d351b48588c695878d2422adfcfcc7169b58fd9f72f1da0608132a753ccbdb3e5d54540b0b0f05803f2a50594b6f8d71d4eb87ba190ae3b",
      "networkId": 0,
      "chainId": 0
    }
  ]
}