{
  "hash": "0xdfc1a13ba29e93c3145232f3bf7cbb4df114a0e7d9e7c6bf685858c27d8c64d8",
  "parentHash": "0x0c5e2f61e1be7c53aba7c02ebf5f33adf0629e10f592180557989733bb6755d6",
  "number": 75163,
  "timestamp": 1439398670,
  "nonce": "0xbd862b9ddbbd5d0f",
  "difficulty": 2196546827403,
  "gasLimit": {
    "_hex": "0x2fe3de"
  },
  "gasUsed": {
    "_hex": "0x5208"
  },
  "miner": "0xA10C59651885FeAaac91F871082a23BBbaBeDfCf",
  "extraData": "0x476574682f76312e302e302f77696e646f77732f676f312e342e32",
  "transactions": [
    {
      "hash": "0xb0aefde7ff5cd9d0fb8fbf5087ab4c46645b5c1b8379d907248f939ab73324e0",
      "blockHash": "0xdfc1a13ba29e93c3145232f3bf7cbb4df114a0e7d9e7c6bf685858c27d8c64d8",
      "blockNumber": 75163,
      "transactionIndex": 0,
      "confirmations": null,
      "from": "0x9B80BD38c4afE0942F8029298A11fACe85ce4cAF",
      "gasPrice": {
        "_hex": "0x10dc90d85e7"
      },
      "gasLimit": {
        "_hex": "0x61a8"
      },
      "to": "0x756Fd95F0bC102071dddf04c04d58F8DEf4F2AF2",
      "value": {
        "_hex": "0x2b05699353b60000"
      },
      "nonce": 1,
      "data": "0x",
      "r": "0xf554cf11509bbfc67e713299e4168bf8c17b7c386ed469660b8f2ce729b2f266",
      "s": "0x470ed9ed85ca426dcb6b5e4375c3c299dd74d30ee833a592146217c100a49372",
      "v": 28,
      "creates": null,
      "raw": "0xf86d0186010dc90d85e78261a894756fd95f0bc102071dddf04c04d58f8def4f2af2882b05699353b60000801ca0f554cf11509bbfc67e713299e4168bf8c17b7c386ed469660b8f2ce729b2f266a0470ed9ed85ca426dcb6b5e4375c3c299dd74d30ee833a592146217c100a49372",
      "networkId": 0,
      "chainId": 0
    }
  ]
}