{
  "hash": "0x2d8ec1162ab73d723c6288ddd46768711b7136045ca73ab10a700be229525519",
  "parentHash": "0xece15ff503b6bb623807eedf2f4e7627aae2435cf0a4c2a4dea0520014709643",
  "number": 85588,
  "timestamp": 1439565826,
  "nonce": "0xd13683ba15944f65",
  "difficulty": 2774601258117,
  "gasLimit": {
    "_hex": "0x2fefd8"
  },
  "gasUsed": {
    "_hex": "0xf618"
  },
  "miner": "0x190174d939CC332eE1Ea9351AD703ddF7364Ca68",
  "extraData": "0x476574682f76312e302e312d38326566323666362f6c696e75782f676f312e34",
  "transactions": [
    {
      "hash": "0x4042ef93bcfe482a3d34cfabc4f86f292c23051c5f86786cf61beceedac23f44",
      "blockHash": "0x2d8ec1162ab73d723c6288ddd46768711b7136045ca73ab10a700be229525519",
      "blockNumber": 85588,
      "transactionIndex": 0,
      "confirmations": null,
      "from": "0x3e62D786a6d5843586E452F1cC6ddbb3b761C905",
      "gasPrice": {
        "_hex": "0xd550a4158"
      },
      "gasLimit": {
        "_hex": "0x5208"
      },
      "to": "0x32Be343B94f860124dC4fEe278FDCBD38C102D88",
      "value": {
        "_hex": "0x3d647c65a5cebc00"
      },
      "nonce": 0,
      "data": "0x",
      "r": "0x855aa268c2e74641d36f3cd3513d1bd6cfbfda186e1d024a1fe2982b09682210",
      "s": "0x0b3aadcf211931f7f96cb96fd8c23015910beb7e1b7aefdee0b3374484c8f7ff",
      "v": 27,
      "creates": null,
      "raw": "0xf86c80850d550a41588252089432be343b94f860124dc4fee278fdcbd38c102d88883d647c65a5cebc00801ba0855aa268c2e74641d36f3cd3513d1bd6cfbfda186e1d024a1fe2982b09682210a00b3aadcf211931f7f96cb96fd8c23015910beb7e1b7aefdee0b3374484c8f7ff",
      "networkId": 0,
      "chainId": 0
    },
    {
      "hash": "0xd923046da917b8071ed05ae307d061b2064c4d9a63cc751c9652d7bab99aac4a",
      "blockHash": "0x2d8ec1162ab73d723c6288ddd46768711b7136045ca73ab10a700be229525519",
      "blockNumber": 85588,
      "transactionIndex": 1,
      "confirmations": null,
      "from": "0xBFdD9820a04283b289957956353b5F3C1F665EcF",
      "gasPrice": {
        "_hex": "0xd550a4158"
      },
      "gasLimit": {
        "_hex": "0x5208"
      },
      "to": "0x32Be343B94f860124dC4fEe278FDCBD38C102D88",
      "value": {
        "_hex": "0x8ac2de4e2970e000"
      },
      "nonce": 39,
      "data": "0x",
      "r": "0x1bba6fbcd121ce519396ee9bf32da1e64ec8781601ef28648c0c240ab9a8334f",
      "s": "0x7f6c5a342ebc4f3b29c7e59c5654c7da7a2827216d73252fe9cbe81ebfd61f7b",
      "v": 27,
      "creates": null,
      "raw": "0xf86c27850d550a41588252089432be343b94f860124dc4fee278fdcbd38c102d88888ac2de4e2970e000801ba01bba6fbcd121ce519396ee9bf32da1e64ec8781601ef28648c0c240ab9a8334fa07f6c5a342ebc4f3b29c7e59c5654c7da7a2827216d73252fe9cbe81ebfd61f7b",
      "networkId": 0,
      "chainId": 0
    },
    {
      "hash": "0xec6464b51f4a3d4325c4916336f7c68e3b066d00f9a0c5334e1f0b4e5c6b851c",
      "blockHash": "0x2d8ec1162ab73d723c6288ddd46768711b7136045ca73ab10a700be229525519",
      "blockNumber": 85588,
      "transactionIndex": 2,
      "confirmations": null,
      "from": "0x4E61B2316C9A92a4F5F078A71f2E78f1e2208F34",
      "gasPrice": {
        "_hex": "0xd550a4158"
      },
      "gasLimit": {
        "_hex": "0x5208"
      },
      "to": "0x32Be343B94f860124dC4fEe278FDCBD38C102D88",
      "value": {
        "_hex": "0x35c78567043f8a000"
      },
      "nonce": 2,
      "data": "0x",
      "r": "0x227fc51a0270d90e21232807243ea7cb1b16f0f523cd0ebde75794b445657044",
      "s": "0x3836c18dfd73c06f607de7af9fbb1395519bbd963fc6bb51722b8dd5c8cae0b9",
      "v": 28,
      "creates": null,
      "raw": "0xf86d02850d550a41588252089432be343b94f860124dc4fee278fdcbd38c102d8889035c78567043f8a000801ca0227fc51a0270d90e21232807243ea7cb1b16f0f523cd0ebde75794b445657044a03836c18dfd73c06f607de7af9fbb1395519bbd963fc6bb51722b8dd5c8cae0b9",
      "networkId": 0,
      "chainId": 0
    }
  ]
}