{
  "hash": "0xd211d791d5964af5a78512d625577a3d91bbd9b9dfe1bef7a1d1f757efa11c91",
  "parentHash": "0x19c13f83ddd3bded4a37ac895fa68e7df59f441d9d9938e5271e3768a063b481",
  "number": 91333,
  "timestamp": 1439654056,
  "nonce": "0xb79da98f0386758d",
  "difficulty": 3465880585454,
  "gasLimit": {
    "_hex": "0x2fefd8"
  },
  "gasUsed": {
    "_hex": "0x5208"
  },
  "miner": "0xe6A7a1d47ff21B6321162AEA7C6CB457D5476Bca",
  "extraData": "0x476574682f76312e302e312d38326566323666362f6c696e75782f676f312e34",
  "transactions": [
    {
      "hash": "0x6f4786b1a9c73cae4be6516a913fc79ef04d3967f1c54ad29d5873468c68ea70",
      "blockHash": "0xd211d791d5964af5a78512d625577a3d91bbd9b9dfe1bef7a1d1f757efa11c91",
      "blockNumber": 91333,
      "transactionIndex": 0,
      "confirmations": null,
      "from": "0x120A270bbC009644e35F0bB6ab13f95b8199c4ad",
      "gasPrice": {
        "_hex": "0xdf8328d94"
      },
      "gasLimit": {
        "_hex": "0x3d090"
      },
      "to": "0xF9D66adCeA15aA64F2961c5771C3B7989E469392",
      "value": {
        "_hex": "0xde0b6b3a7640000"
      },
      "nonce": 533,
      "data": "0x",
      "r": "0x6b7311e54a03b71f2c2726ccd4ec4a709fcb62afac9f20d6dad99ce547b6187b",
      "s": "0x6ee266d93e6aa64c66626314c926cc892adc204c90d5ca4fdd84a673e008269e",
      "v": 27,
      "creates": null,
      "raw": "0xf86f820215850df8328d948303d09094f9d66adcea15aa64f2961c5771c3b7989e469392880de0b6b3a7640000801ba06b7311e54a03b71f2c2726ccd4ec4a709fcb62afac9f20d6dad99ce547b6187ba06ee266d93e6aa64c66626314c926cc892adc204c90d5ca4fdd84a673e008269e",
      "networkId": 0,
      "chainId": 0
    }
  ]
}