{
  "hash": "0x2e0591e97be6460609c5fbc99d15f57fc59c87acaee6a2e1e361b80e608c3d93",
  "parentHash": "0xb963c698095a68a0c62f01f3886f22f57eaf115231ee6e4460c95d0c2eee8669",
  "number": 91574,
  "timestamp": 1439657890,
  "nonce": "0xa2e68863ef1604ec",
  "difficulty": 3494669438785,
  "gasLimit": {
    "_hex": "0x2fefd8"
  },
  "gasUsed": {
    "_hex": "0xa8d8"
  },
  "miner": "0xe6A7a1d47ff21B6321162AEA7C6CB457D5476Bca",
  "extraData": "0x476574682f76312e302e312d38326566323666362f6c696e75782f676f312e34",
  "transactions": [
    {
      "hash": "0xfd83863bfbcaeb804aa81560307a176d9ffcb15b0c3cfd4298434cfa4d2d297d",
      "blockHash": "0x2e0591e97be6460609c5fbc99d15f57fc59c87acaee6a2e1e361b80e608c3d93",
      "blockNumber": 91574,
      "transactionIndex": 0,
      "confirmations": null,
      "from": "0x157c6f2431eB1a95797EE86F7d17b3c0FD47A247",
      "gasPrice": {
        "_hex": "0xd807d89de"
      },
      "gasLimit": {
        "_hex": "0x15f90"
      },
      "to": "0xc0b9d23f8d37650D0141B559dbD33d94Ea004e07",
      "value": {
        "_hex": "0x15f4810a37d1340000"
      },
      "nonce": 10,
      "data": "0x454e433933464b3330",
      "r": "0x0e3a52aa57378bcd3c98d369a3eb2ec9bceeea055a8dc70b1faabde74df4fe3e",
      "s": "0x3aa5c15f3dd30c86803b6ac0763d21acd0c35bb2c3de6df3ba5514972832e785",
      "v": 27,
      "creates": null,
      "raw": "0xf8770a850d807d89de83015f9094c0b9d23f8d37650d0141b559dbd33d94ea004e078915f4810a37d134000089454e433933464b33301ba00e3a52aa57378bcd3c98d369a3eb2ec9bceeea055a8dc70b1faabde74df4fe3ea03aa5c15f3dd30c86803b6ac0763d21acd0c35bb2c3de6df3ba5514972832e785",
      "networkId": 0,
      "chainId": 0
    },
    {
      "hash": "0xb4d6705f9ffb3ffa7f8bab7c2f70735c1c4e483b04d39cca663af57869b2e952",
      "blockHash": "0x2e0591e97be6460609c5fbc99d15f57fc59c87acaee6a2e1e361b80e608c3d93",
      "blockNumber": 91574,
      "transactionIndex": 1,
      "confirmations": null,
      "from": "0x6CE13F1816a2cFab76C59714291Cb8403CbBB3D8",
      "gasPrice": {
        "_hex": "0xd3d37f23a"
      },
      "gasLimit": {
        "_hex": "0x55f0"
      },
      "to": "0x2910543Af39abA0Cd09dBb2D50200b3E800A63D2",
      "value": {
        "_hex": "0x10a741a46278000"
      },
      "nonce": 9,
      "data": "0x454e4b434252474d47",
      "r": "0x1659f69fb56db5ae809ae8fe5f524c93d0583cbe86278fd645b4aed77ac71045",
      "s": "0x792d4d6ec563c4c832378e88ac33df1e48b2b5bdddd027055d0182f4a2e55c22",
      "v": 27,
      "creates": null,
      "raw": "0xf87509850d3d37f23a8255f0942910543af39aba0cd09dbb2d50200b3e800a63d288010a741a4627800089454e4b434252474d471ba01659f69fb56db5ae809ae8fe5f524c93d0583cbe86278fd645b4aed77ac71045a0792d4d6ec563c4c832378e88ac33df1e48b2b5bdddd027055d0182f4a2e55c22",
      "networkId": 0,
      "chainId": 0
    }
  ]
}