{
  "hash": "0xb29243a38c923590c16d58d3acc0be8e157c858d5abc1073f0afc33c5fb7ab2d",
  "parentHash": "0xcaa4fa1e78fc0213558b79532298b6e4de239e819ae4be7a97316de9ee668241",
  "number": 96801,
  "timestamp": 1439745953,
  "nonce": "0x63882325cdc3ae0a",
  "difficulty": 3763399684007,
  "gasLimit": {
    "_hex": "0x2fefd8"
  },
  "gasUsed": {
    "_hex": "0x5208"
  },
  "miner": "0xf8E0CA3Ed80bd541b94BEdCf259e8CF2141A9523",
  "extraData": "0x476574682f76312e302e312f77696e646f77732f676f312e342e32",
  "transactions": [
    {
      "hash": "0xc8c02dafdcdbf9ec8c098de08440725dcd350d53185a8ea426c454fc7c120b95",
      "blockHash": "0xb29243a38c923590c16d58d3acc0be8e157c858d5abc1073f0afc33c5fb7ab2d",
      "blockNumber": 96801,
      "transactionIndex": 0,
      "confirmations": null,
      "from": "0xa70a9a7040d542C632D8e0bE7c5513A8a5Bbc752",
      "gasPrice": {
        "_hex": "0xda7b35e50"
      },
      "gasLimit": {
        "_hex": "0x5208"
      },
      "to": "0x32Be343B94f860124dC4fEe278FDCBD38C102D88",
      "value": {
        "_hex": "0x455f3ce6034c0c00"
      },
      "nonce": 168,
      "data": "0x",
      "r": "0x10f33b13a34ed8455ada622fffd94d7b42b171ba466ee089ca857a01b3dd1595",
      "s": "0x6b38d8eda36510a97c601fd8d6ecbbd7e47bb3510701ea25fc38ec27090a97ad",
      "v": 28,
      "creates": null,
      "raw": "0xf86d81a8850da7b35e508252089432be343b94f860124dc4fee278fdcbd38c102d8888455f3ce6034c0c00801ca010f33b13a34ed8455ada622fffd94d7b42b171ba466ee089ca857a01b3dd1595a06b38d8eda36510a97c601fd8d6ecbbd7e47bb3510701ea25fc38ec27090a97ad",
      "networkId": 0,
      "chainId": 0
    }
  ]
}