{
  "hash": "0x4c3ff013078f73ae166e3445e03f31c46b6353ce58f96b430d1b8390184b3ce1",
  "parentHash": "0xd2618c9f3dd45c7714ed75afd1cd9f0263e7524199b01368a457552bd0c2ac98",
  "number": 59285,
  "timestamp": 1439135439,
  "nonce": "0x1e31b21ed96cf909",
  "difficulty": 1707231475952,
  "gasLimit": {
    "_hex": "0x2fefd5"
  },
  "gasUsed": {
    "_hex": "0x5208"
  },
  "miner": "0x47ff6576639c2e94762eA5443978D7681C0E78DC",
  "extraData": "0x476574682f76312e302e312f6c696e75782f676f312e342e32",
  "transactions": [
    {
      "hash": "0x81c17fada2f740b5d9b26348051a26fd116eb8b7cac2e7289b118dd0d68369fb",
      "blockHash": "0x4c3ff013078f73ae166e3445e03f31c46b6353ce58f96b430d1b8390184b3ce1",
      "blockNumber": 59285,
      "transactionIndex": 0,
      "confirmations": null,
      "from": "0xB6AC12CefF0375Da80503AcCa54bf3061Fa917a8",
      "gasPrice": {
        "_hex": "0xceb7b7593"
      },
      "gasLimit": {
        "_hex": "0x15f90"
      },
      "to": "0x5fF827e73C5B866c300b824fe12719a3DD350513",
      "value": {
        "_hex": "0x4563918244f40000"
      },
      "nonce": 4,
      "data": "0x",
      "r": "0xb2a49eca8148e2aa09b083f1b7d54b4c76087d21e6dd5b672eec8b4b8b87696f",
      "s": "0x3277b90d097159ade39ab3433e7937c6ed4c9778540354a93404c3470e2e242a",
      "v": 28,
      "creates": null,
      "raw": "0xf86d04850ceb7b759383015f90945ff827e73c5b866c300b824fe12719a3dd350513884563918244f40000801ca0b2a49eca8148e2aa09b083f1b7d54b4c76087d21e6dd5b672eec8b4b8b87696fa03277b90d097159ade39ab3433e7937c6ed4c9778540354a93404c3470e2e242a",
      "networkId": 0,
      "chainId": 0
    }
  ]
}