{
  "hash": "0x6e383ab4ea2ba6bca54845553822c67b4cee6372ecf9e1633210561c29c97c45",
  "parentHash": "0x0c0f6328d615d557a67c36da1ceee4fd2be8eec37dffbeaea4bb20ad71e92b90",
  "number": 63151,
  "timestamp": 1439200031,
  "nonce": "0x79a8d8edef360d2b",
  "difficulty": 1802364978961,
  "gasLimit": {
    "_hex": "0x2fefd5"
  },
  "gasUsed": {
    "_hex": "0x5208"
  },
  "miner": "0xf927a40C8B7F6E07c5af7FA2155B4864a4112B13",
  "extraData": "0x476574682f76312e302e312f6c696e75782f676f312e342e32",
  "transactions": [
    {
      "hash": "0x445acbe84f83f2582960dfe4186874e2ee55e3c136370415f3f465cfe2b58a6e",
      "blockHash": "0x6e383ab4ea2ba6bca54845553822c67b4cee6372ecf9e1633210561c29c97c45",
      "blockNumber": 63151,
      "transactionIndex": 0,
      "confirmations": null,
      "from": "0x120A270bbC009644e35F0bB6ab13f95b8199c4ad",
      "gasPrice": {
        "_hex": "0xd07d24e9d"
      },
      "gasLimit": {
        "_hex": "0x15f90"
      },
      "to": "0x9FfbDc745507Be96FEdbA053b7deC24A7C54b1f3",
      "value": {
        "_hex": "0xad78ebc5ac6200000"
      },
      "nonce": 94,
      "data": "0x",
      "r": "0xc31d6e21f40607f899f3945e0d6642311c5b8cddea1c33cfd4c0f49042bae76a",
      "s": "0x2c8fa3ed9deb39bd6a0170481109f74f638455e95f8401cfcad8ac990c31f4cb",
      "v": 27,
      "creates": null,
      "raw": "0xf86e5e850d07d24e9d83015f90949ffbdc745507be96fedba053b7dec24a7c54b1f3890ad78ebc5ac6200000801ba0c31d6e21f40607f899f3945e0d6642311c5b8cddea1c33cfd4c0f49042bae76aa02c8fa3ed9deb39bd6a0170481109f74f638455e95f8401cfcad8ac990c31f4cb",
      "networkId": 0,
      "chainId": 0
    }
  ]
}