{
  "hash": "0x2ffbba88a280371f9778e19cdbb33b5142fba3025dd77a69cb618706d83749c7",
  "parentHash": "0x11cd554c0eddec7896e66c2520d560a513f6136f6681d973560f96dc73628af4",
  "number": 95591,
  "timestamp": 1439726224,
  "nonce": "0xebc32b0e6b0c859f",
  "difficulty": 3633915476553,
  "gasLimit": {
    "_hex": "0x2fefd8"
  },
  "gasUsed": {
    "_hex": "0xa410"
  },
  "miner": "0x35e8e5dC5FBd97c5b421A80B596C030a2Be2A04D",
  "extraData": "0x476574682f76312e302e312f6c696e75782f676f312e342e32",
  "transactions": [
    {
      "hash": "0x2cac9dadb56ff4eb5d91fe83381ad9a1c03c878365a205ac1c99fa38b070478a",
      "blockHash": "0x2ffbba88a280371f9778e19cdbb33b5142fba3025dd77a69cb618706d83749c7",
      "blockNumber": 95591,
      "transactionIndex": 0,
      "confirmations": null,
      "from": "0xdeE4977F74E6Aef6D627191c9A45D2627e331150",
      "gasPrice": {
        "_hex": "0xcb94c4be8"
      },
      "gasLimit": {
        "_hex": "0x5208"
      },
      "to": "0x32Be343B94f860124dC4fEe278FDCBD38C102D88",
      "value": {
        "_hex": "0xd026a0c5b46c1800"
      },
      "nonce": 12,
      "data": "0x",
      "r": "0xcd5504aa0d12919ddd453a6303b99d7c383065a336eaee4d81985fae419e2dc6",
      "s": "0x2d43b1bfc36434074af53baee2f9230d855fe2c83baad1ba35af8c4292a8ad3b",
      "v": 27,
      "creates": null,
      "raw": "0xf86c0c850cb94c4be88252089432be343b94f860124dc4fee278fdcbd38c102d8888d026a0c5b46c1800801ba0cd5504aa0d12919ddd453a6303b99d7c383065a336eaee4d81985fae419e2dc6a02d43b1bfc36434074af53baee2f9230d855fe2c83baad1ba35af8c4292a8ad3b",
      "networkId": 0,
      "chainId": 0
    },
    {
      "hash": "0x78689f790c91527fa25c53c0dfd9bdfe762f3d1136872ab297a90f51293cd6ab",
      "blockHash": "0x2ffbba88a280371f9778e19cdbb33b5142fba3025dd77a69cb618706d83749c7",
      "blockNumber": 95591,
      "transactionIndex": 1,
      "confirmations": null,
      "from": "0x557C2806B6ceA65a66F415bb2Ed1ce897B340745",
      "gasPrice": {
        "_hex": "0xcb94c4be8"
      },
      "gasLimit": {
        "_hex": "0x5208"
      },
      "to": "0x32Be343B94f860124dC4fEe278FDCBD38C102D88",
      "value": {
        "_hex": "0x22b1878510d302000"
      },
      "nonce": 3,
      "data": "0x",
      "r": "0x28c0ab526251a1344e9d7c84a680798e11d4dfec5f3f155c6e2201a43ba201a5",
      "s": "0x3e6efa1e8de4a7b741eec3fa6c912a7b2a069d24aa489f0f6d33d45e47090ec9",
      "v": 27,
      "creates": null,
      "raw": "0xf86d03850cb94c4be88252089432be343b94f860124dc4fee278fdcbd38c102d8889022b1878510d302000801ba028c0ab526251a1344e9d7c84a680798e11d4dfec5f3f155c6e2201a43ba201a5a03e6efa1e8de4a7b741eec3fa6c912a7b2a069d24aa489f0f6d33d45e47090ec9",
      "networkId": 0,
      "chainId": 0
    }
  ]
}