{
  "hash": "0x4396a377296c0ab41afd4ef8dcbd169129a671ad7a433d0d46626529e19aeef2",
  "parentHash": "0x03321828f0db737ea169624613d78dfd98c772eea791f5b7ec030c097857f267",
  "number": 61075,
  "timestamp": 1439166334,
  "nonce": "0xbc1cd4eccdc56d9e",
  "difficulty": 1730363548372,
  "gasLimit": {
    "_hex": "0x2fefd8"
  },
  "gasUsed": {
    "_hex": "0xa410"
  },
  "miner": "0x123843545FB525C8E134c9A5F15ADA6865cc3848",
  "extraData": "0x476574682f76312e302e312f77696e646f77732f676f312e342e32",
  "transactions": [
    {
      "hash": "0xd632760ba2eaed86b933c0339dac5ae04dbc7e78259742740a306707687ca976",
      "blockHash": "0x4396a377296c0ab41afd4ef8dcbd169129a671ad7a433d0d46626529e19aeef2",
      "blockNumber": 61075,
      "transactionIndex": 0,
      "confirmations": null,
      "from": "0x32Be343B94f860124dC4fEe278FDCBD38C102D88",
      "gasPrice": {
        "_hex": "0xd38cf6d89"
      },
      "gasLimit": {
        "_hex": "0x5208"
      },
      "to": "0x120A270bbC009644e35F0bB6ab13f95b8199c4ad",
      "value": {
        "_hex": "0xbdbc41e0348b300000"
      },
      "nonce": 129,
      "data": "0x",
      "r": "0x02241c52101368a19032d0ab34cd19854f4f8db5bf87bb469b803ae6380b524b",
      "s": "0x567e1edcb1b6f95fe1596873cb9113034974267a510570a176ce28ccd750c219",
      "v": 27,
      "creates": null,
      "raw": "0xf86e8181850d38cf6d8982520894120a270bbc009644e35f0bb6ab13f95b8199c4ad89bdbc41e0348b300000801ba002241c52101368a19032d0ab34cd19854f4f8db5bf87bb469b803ae6380b524ba0567e1edcb1b6f95fe1596873cb9113034974267a510570a176ce28ccd750c219",
      "networkId": 0,
      "chainId": 0
    },
    {
      "hash": "0xa9f3c254bddc31b8584d0201d8b73a365e42238ef6c1f21b3e9bfd62269895fa",
      "blockHash": "0x4396a377296c0ab41afd4ef8dcbd169129a671ad7a433d0d46626529e19aeef2",
      "blockNumber": 61075,
      "transactionIndex": 1,
      "confirmations": null,
      "from": "0x120A270bbC009644e35F0bB6ab13f95b8199c4ad",
      "gasPrice": {
        "_hex": "0xd0901687e"
      },
      "gasLimit": {
        "_hex": "0x15f90"
      },
      "to": "0x8f717ec1552f4C440084fBa1154A81DC003EbdC0",
      "value": {
        "_hex": "0x15af1d78b58c40000"
      },
      "nonce": 69,
      "data": "0x",
      "r": "0xe8acdcbe5023756ce09fbbfaf04d1a1e699dd6dcb378e344a8fea53177824be0",
      "s": "0x2801e763a23c03f70f3d80750b42a8ed59238715b963d6f5104b71f019d95e55",
      "v": 28,
      "creates": null,
      "raw": "0xf86e45850d0901687e83015f90948f717ec1552f4c440084fba1154a81dc003ebdc089015af1d78b58c40000801ca0e8acdcbe5023756ce09fbbfaf04d1a1e699dd6dcb378e344a8fea53177824be0a02801e763a23c03f70f3d80750b42a8ed59238715b963d6f5104b71f019d95e55",
      "networkId": 0,
      "chainId": 0
    }
  ]
}