{
  "hash": "0x3989acc2ba478c5f4772444c63118c7a02d4f61442af7532020f2a9fb4f37361",
  "parentHash": "0x228a9cb43351264eb15eaaeb6f1e7fd22f4e55995985ef700b81d652407675fe",
  "number": 101353,
  "timestamp": 1439821602,
  "nonce": "0xa992f5f76ad3dbc7",
  "difficulty": 3816861614551,
  "gasLimit": {
    "_hex": "0x2fefd8"
  },
  "gasUsed": {
    "_hex": "0x8c11"
  },
  "miner": "0x007f7f58D3eb5b7510A301eCC749FC1fCDDBE14D",
  "extraData": "0x476574682f76312e302e312f77696e646f77732f676f312e342e32",
  "transactions": [
    {
      "hash": "0x0cbc7daba002b5dd3825d65cef441f2e8dece466957072a9821b34bcdd12d9f0",
      "blockHash": "0x3989acc2ba478c5f4772444c63118c7a02d4f61442af7532020f2a9fb4f37361",
      "blockNumber": 101353,
      "transactionIndex": 0,
      "confirmations": null,
      "from": "0x775e18be7A50a0Abb8A4e82B1bD697D79F31fE04",
      "gasPrice": {
        "_hex": "0xce458eeb8"
      },
      "gasLimit": {
        "_hex": "0xf4240"
      },
      "to": "0xde0B295669a9FD93d5F28D9Ec85E40f4cb697BAe",
      "value": {
        "_hex": "0x0"
      },
      "nonce": 9,
      "data": "0x797af6272153b9b2b56bb29c21cf47fe64fd2abdd7171b14cca48560f6f6cf294a1a5c52",
      "r": "0xbb0e51ebd34a9c75c3c0eb76bdf91157de1ea1200e5bb155b2f238d393edef23",
      "s": "0x4d87fba2bf0cd2b2a651643da19084fafb24ebcd09b8202e59db93703dd0542a",
      "v": 27,
      "creates": null,
      "raw": "0xf88909850ce458eeb8830f424094de0b295669a9fd93d5f28d9ec85e40f4cb697bae80a4797af6272153b9b2b56bb29c21cf47fe64fd2abdd7171b14cca48560f6f6cf294a1a5c521ba0bb0e51ebd34a9c75c3c0eb76bdf91157de1ea1200e5bb155b2f238d393edef23a04d87fba2bf0cd2b2a651643da19084fafb24ebcd09b8202e59db93703dd0542a",
      "networkId": 0,
      "chainId": 0
    }
  ]
}