{
  "hash": "0xc394581ca9a859d8d92a394df453dc38115d5d12ef87f467c62a1be8cd5d0d82",
  "parentHash": "0x101d049a3d8c0ef18a4f16f528cbebf8c95e153a2872c95b673e75d94c03896d",
  "number": 94112,
  "timestamp": 1439702859,
  "nonce": "0xbf51d0de707e95ff",
  "difficulty": 3483392060547,
  "gasLimit": {
    "_hex": "0x2fefd8"
  },
  "gasUsed": {
    "_hex": "0x5208"
  },
  "miner": "0xe6A7a1d47ff21B6321162AEA7C6CB457D5476Bca",
  "extraData": "0x476574682f76312e302e312d38326566323666362f6c696e75782f676f312e34",
  "transactions": [
    {
      "hash": "0x9bebaa3600321d48dfd1917fece2a040d0a6ef4d066b6e6752969bb3a48109ab",
      "blockHash": "0xc394581ca9a859d8d92a394df453dc38115d5d12ef87f467c62a1be8cd5d0d82",
      "blockNumber": 94112,
      "transactionIndex": 0,
      "confirmations": null,
      "from": "0xc5590b3C64A62886b188D5B51b9e2c8F2475BF46",
      "gasPrice": {
        "_hex": "0xe307c7f12"
      },
      "gasLimit": {
        "_hex": "0x5208"
      },
      "to": "0x32Be343B94f860124dC4fEe278FDCBD38C102D88",
      "value": {
        "_hex": "0x9c1fbf58d83270000"
      },
      "nonce": 2,
      "data": "0x",
      "r": "0x23a03c26c23ebf9439d11992d28e666107a706cb73142de5a17cf4c2c8242b4a",
      "s": "0x7a4b468da4042ea229094d6a98f2e28798b9979ebf495370e62edde25f8a21aa",
      "v": 27,
      "creates": null,
      "raw": "0xf86d02850e307c7f128252089432be343b94f860124dc4fee278fdcbd38c102d888909c1fbf58d83270000801ba023a03c26c23ebf9439d11992d28e666107a706cb73142de5a17cf4c2c8242b4aa07a4b468da4042ea229094d6a98f2e28798b9979ebf495370e62edde25f8a21aa",
      "networkId": 0,
      "chainId": 0
    }
  ]
}