{
  "hash": "0x17bd9b8370b66cc2a8e3eb29a61a1edb020549159f7ef009bec9708327ecb74c",
  "parentHash": "0xa72b82a0348908dd16200c1007a0b5444e9920a9791b50949ba85f2058adfebc",
  "number": 77664,
  "timestamp": 1439440741,
  "nonce": "0x4a50e77aabfd4111",
  "difficulty": 2271135143529,
  "gasLimit": {
    "_hex": "0x2fefd2"
  },
  "gasUsed": {
    "_hex": "0x5208"
  },
  "miner": "0xEF247E639d49461D25F57e9362CadE3120910Ce0",
  "extraData": "0x476574682f76312e302e312f6c696e75782f676f312e342e32",
  "transactions": [
    {
      "hash": "0x4c3cd393b28b062038964fa84c1e3823f09c0c01a56cfb46866a45cedf7c2e6b",
      "blockHash": "0x17bd9b8370b66cc2a8e3eb29a61a1edb020549159f7ef009bec9708327ecb74c",
      "blockNumber": 77664,
      "transactionIndex": 0,
      "confirmations": null,
      "from": "0xB0bF4A71F730782368Ef660FE6D298F432F95450",
      "gasPrice": {
        "_hex": "0xd0b54bf49"
      },
      "gasLimit": {
        "_hex": "0x5208"
      },
      "to": "0x32Be343B94f860124dC4fEe278FDCBD38C102D88",
      "value": {
        "_hex": "0x1b1ae09e96b2400000"
      },
      "nonce": 16,
      "data": "0x",
      "r": "0x542ad113a2dc9f186ff93ca49e15c238594a0ce1e911c7516d9807819a31476d",
      "s": "0x78819ab448ba1dad2d1597eac52f65eceff1c7078226caa031c77aa6d4eb8fa2",
      "v": 28,
      "creates": null,
      "raw": "0xf86d10850d0b54bf498252089432be343b94f860124dc4fee278fdcbd38c102d88891b1ae09e96b2400000801ca0542ad113a2dc9f186ff93ca49e15c238594a0ce1e911c7516d9807819a31476da078819ab448ba1dad2d1597eac52f65eceff1c7078226caa031c77aa6d4eb8fa2",
      "networkId": 0,
      "chainId": 0
    }
  ]
}