{
  "hash": "0x49180008b72fc33e89b5fc07e4e8c12867ebf751881c7d059632e0e35ecf71d0",
  "parentHash": "0x0b35df5625b3d69faba305c78d71e61275e45f296599ccb23f1d9baa455544ca",
  "number": 110360,
  "timestamp": 1439972477,
  "nonce": "0x654b7f75ad5abe29",
  "difficulty": 4364958652977,
  "gasLimit": {
    "_hex": "0x2fefd8"
  },
  "gasUsed": {
    "_hex": "0x5208"
  },
  "miner": "0x790b8a3cE86E707ED0eD32bF89B3269692a23CC1",
  "extraData": "0xd783010001844765746887676f312e342e32856c696e7578",
  "transactions": [
    {
      "hash": "0x067197cd86ca30cb89ddc0e8fa76cdf0a8345ea678a533331768280db8e0b19c",
      "blockHash": "0x49180008b72fc33e89b5fc07e4e8c12867ebf751881c7d059632e0e35ecf71d0",
      "blockNumber": 110360,
      "transactionIndex": 0,
      "confirmations": null,
      "from": "0x27e806e70622d2864e1B1f4426D72FFb0457C83a",
      "gasPrice": {
        "_hex": "0xcc8bb768f"
      },
      "gasLimit": {
        "_hex": "0x5208"
      },
      "to": "0x32Be343B94f860124dC4fEe278FDCBD38C102D88",
      "value": {
        "_hex": "0x9df5ad6467e21000"
      },
      "nonce": 17,
      "data": "0x",
      "r": "0xb521e0394eb48a26f7d29190ac2fab78331b38cde167530c9fd6d85b4da45897",
      "s": "0x344ded2bff3654c0eaaf83636528a0530dcdbf6d4ffa9b74c28712642ce7432c",
      "v": 28,
      "creates": null,
      "raw": "0xf86c11850cc8bb768f8252089432be343b94f860124dc4fee278fdcbd38c102d88889df5ad6467e21000801ca0b521e0394eb48a26f7d29190ac2fab78331b38cde167530c9fd6d85b4da45897a0344ded2bff3654c0eaaf83636528a0530dcdbf6d4ffa9b74c28712642ce7432c",
      "networkId": 0,
      "chainId": 0
    }
  ]
}