{
  "hash": "0x48706c28c757e011280f0159666190747312cb728cf73dd1fcaa061de7188a48",
  "parentHash": "0x66c97d51017d1a0d3869cd01e5c3d16192e44120fd1949ac05c25f8e35e6f06c",
  "number": 109976,
  "timestamp": 1439965872,
  "nonce": "0xdeb1eb7c425bf25e",
  "difficulty": 4399394834451,
  "gasLimit": {
    "_hex": "0x2fefd8"
  },
  "gasUsed": {
    "_hex": "0x520c"
  },
  "miner": "0xe6A7a1d47ff21B6321162AEA7C6CB457D5476Bca",
  "extraData": "0x476574682f76312e302e312d38326566323666362f6c696e75782f676f312e34",
  "transactions": [
    {
      "hash": "0xbb70d15ab9af59026f4c271e7de2645bbdc3bc9829c95bf9b94b279cbbe27eaf",
      "blockHash": "0x48706c28c757e011280f0159666190747312cb728cf73dd1fcaa061de7188a48",
      "blockNumber": 109976,
      "transactionIndex": 0,
      "confirmations": null,
      "from": "0xb9836ec1f42Bd48331bceaedb74a6Bcdc22832bD",
      "gasPrice": {
        "_hex": "0xd41fc6c23"
      },
      "gasLimit": {
        "_hex": "0x7530"
      },
      "to": "0x7cB57B5A97eAbe94205C07890BE4c1aD31E486A8",
      "value": {
        "_hex": "0xe8d4a51000"
      },
      "nonce": 5,
      "data": "0x00",
      "r": "0x916deed31659e4388cf211880b2b33ca921596b2a4f0c0392ff5788c8acf3fbe",
      "s": "0x3ee42661624c1db4375c9230e045a0edc4c4802666b8cba01eee34f88ac51a48",
      "v": 27,
      "creates": null,
      "raw": "0xf86905850d41fc6c23827530947cb57b5a97eabe94205c07890be4c1ad31e486a885e8d4a51000001ba0916deed31659e4388cf211880b2b33ca921596b2a4f0c0392ff5788c8acf3fbea03ee42661624c1db4375c9230e045a0edc4c4802666b8cba01eee34f88ac51a48",
      "networkId": 0,
      "chainId": 0
    }
  ]
}