{
  "hash": "0xb04f607d4d11ec065ee3fd23dc5512c69366c61ea6bac601ee1cb65e5eb3139e",
  "parentHash": "0xa893c2f7d8cc7a26fecf1d04581db807723337ed5d7e404526cd62d5b32010ca",
  "number": 86301,
  "timestamp": 1439576427,
  "nonce": "0x1c960176cabec97e",
  "difficulty": 2849881802892,
  "gasLimit": {
    "_hex": "0x2fefd8"
  },
  "gasUsed": {
    "_hex": "0x5208"
  },
  "miner": "0xe6A7a1d47ff21B6321162AEA7C6CB457D5476Bca",
  "extraData": "0x476574682f76312e302e312d38326566323666362f6c696e75782f676f312e34",
  "transactions": [
    {
      "hash": "0x572f10e7b80deec2637a3ec46bd1cce73e6d1ac7aed04c40d2b6b3b83d8ee2f3",
      "blockHash": "0xb04f607d4d11ec065ee3fd23dc5512c69366c61ea6bac601ee1cb65e5eb3139e",
      "blockNumber": 86301,
      "transactionIndex": 0,
      "confirmations": null,
      "from": "0xD05f85Eb920117eeBBf13dd94FeEA60e9eB34537",
      "gasPrice": {
        "_hex": "0xba43b7400"
      },
      "gasLimit": {
        "_hex": "0x5208"
      },
      "to": "0xC47Aaa860008be6f65B58c6C6E02a84e666EfE31",
      "value": {
        "_hex": "0x5907c0bffb4d5d1e0"
      },
      "nonce": 6,
      "data": "0x",
      "r": "0xbed39ebc4bd945c358bd388d0b48acff19bcec616f77e88b776cbc454c44a49a",
      "s": "0x1c2fb8f6d8521eb4b64ecd363c62816a6c7ee32236e44ba04b96978ce364f3e7",
      "v": 28,
      "creates": null,
      "raw": "0xf86d06850ba43b740082520894c47aaa860008be6f65b58c6c6e02a84e666efe318905907c0bffb4d5d1e0801ca0bed39ebc4bd945c358bd388d0b48acff19bcec616f77e88b776cbc454c44a49aa01c2fb8f6d8521eb4b64ecd363c62816a6c7ee32236e44ba04b96978ce364f3e7",
      "networkId": 0,
      "chainId": 0
    }
  ]
}