{
  "hash": "0x8c6db8fe81aab37145d67e63956b59596bd22682f201eab59dddb4d21bd6077c",
  "parentHash": "0x19fceecc5019eafdb515a237f5bcb81a006ae1677b567185135188eabb6ea657",
  "number": 90097,
  "timestamp": 1439634473,
  "nonce": "0x597a0764c9ae0718",
  "difficulty": 3320599460000,
  "gasLimit": {
    "_hex": "0x2fefd8"
  },
  "gasUsed": {
    "_hex": "0x5208"
  },
  "miner": "0xfC25864D8326b4CB335C6942218e5F4Ee8D1E1EF",
  "extraData": "0x476574682f76312e302e312f77696e646f77732f676f312e342e32",
  "transactions": [
    {
      "hash": "0xb03bad007949ed649a7ed1de4638f6292e56a7a24266520072aa2aeb6659928d",
      "blockHash": "0x8c6db8fe81aab37145d67e63956b59596bd22682f201eab59dddb4d21bd6077c",
      "blockNumber": 90097,
      "transactionIndex": 0,
      "confirmations": null,
      "from": "0xBFa71Aba804c2b986D969E175aCFdAC7266CDe9C",
      "gasPrice": {
        "_hex": "0xdc72b79ca"
      },
      "gasLimit": {
        "_hex": "0x7530"
      },
      "to": "0xa9f5E7bf6Cbf6fEc55B30850Eb492b47A376d050",
      "value": {
        "_hex": "0x36adb11fff0a0000"
      },
      "nonce": 2,
      "data": "0x",
      "r": "0x148d5a5d3ad7ffcdfaf5e20ade94dfe94f42a951940cbafeb5fd72ac5b119f70",
      "s": "0x6e163030af9a48840a3f67ec37b455944920df1265287b3c444f4d3f8b2581eb",
      "v": 28,
      "creates": null,
      "raw": "0xf86c02850dc72b79ca82753094a9f5e7bf6cbf6fec55b30850eb492b47a376d0508836adb11fff0a0000801ca0148d5a5d3ad7ffcdfaf5e20ade94dfe94f42a951940cbafeb5fd72ac5b119f70a06e163030af9a48840a3f67ec37b455944920df1265287b3c444f4d3f8b2581eb",
      "networkId": 0,
      "chainId": 0
    }
  ]
}