{
  "hash": "0xa350ef6c039979bf2964e57d7259e77c364fbbb87cb884c199e5e177400a5953",
  "parentHash": "0x32762766e8f21f5d59ed5a477c2639e1e5efc3cbd427806ba0efbede9567b051",
  "number": 79793,
  "timestamp": 1439475251,
  "nonce": "0xad8b1dd9f4e94eb0",
  "difficulty": 2350654839879,
  "gasLimit": {
    "_hex": "0x2fefd8"
  },
  "gasUsed": {
    "_hex": "0xa9bc"
  },
  "miner": "0xa6BDc31c431B8F97848c9D60cbbe9660dc450eB7",
  "extraData": "0x",
  "transactions": [
    {
      "hash": "0x42aff0bf21d8147bcdfca0453636a3c47f013e3b0e61e6be7dbeaa00c081a5f9",
      "blockHash": "0xa350ef6c039979bf2964e57d7259e77c364fbbb87cb884c199e5e177400a5953",
      "blockNumber": 79793,
      "transactionIndex": 0,
      "confirmations": null,
      "from": "0x87C5B5874A18B4306DF8a752a6C8cc3E82daFc19",
      "gasPrice": {
        "_hex": "0x102e66aa329"
      },
      "gasLimit": {
        "_hex": "0x493e0"
      },
      "to": "0xC4c51de1AbF5D60DBd329eC0F999Fd8f021ae9fC",
      "value": {
        "_hex": "0x0"
      },
      "nonce": 104,
      "data": "0xbd66528a6361740000000000000000000000000000000000000000000000000000000000",
      "r": "0x619e705a7df497847038558fadf646934768a64da064b86b043dd5c96909ed86",
      "s": "0x23c0c795c8d1baf27373fe893bccc8ccac139253fc6335260291c4910241626a",
      "v": 27,
      "creates": null,
      "raw": "0xf88a68860102e66aa329830493e094c4c51de1abf5d60dbd329ec0f999fd8f021ae9fc80a4bd66528a63617400000000000000000000000000000000000000000000000000000000001ba0619e705a7df497847038558fadf646934768a64da064b86b043dd5c96909ed86a023c0c795c8d1baf27373fe893bccc8ccac139253fc6335260291c4910241626a",
      "networkId": 0,
      "chainId": 0
    },
    {
      "hash": "0xf8b56bd5ac38a3d57ea5b5d3ee7b5e8830a7900774d92688cad2fbf7fe4626d1",
      "blockHash": "0xa350ef6c039979bf2964e57d7259e77c364fbbb87cb884c199e5e177400a5953",
      "blockNumber": 79793,
      "transactionIndex": 1,
      "confirmations": null,
      "from": "0x77ae86B52e88E569BBc84Dd0F70d5b8905F589c9",
      "gasPrice": {
        "_hex": "0xd9eefdc4d"
      },
      "gasLimit": {
        "_hex": "0x15f90"
      },
      "to": "0x26016A2B5D872adc1b131A4Cd9d4B18789D0D9EB",
      "value": {
        "_hex": "0x8852c024714250000"
      },
      "nonce": 1,
      "data": "0x",
      "r": "0xdd34bd2cb9971e9fba34668c4f7bcc77d321053c10359b161733635198080f25",
      "s": "0x6dd01bb0e0d700926191bbd11612aba8fbc48da51c420c2476b25554d869c105",
      "v": 28,
      "creates": null,
      "raw": "0xf86e01850d9eefdc4d83015f909426016a2b5d872adc1b131a4cd9d4b18789d0d9eb8908852c024714250000801ca0dd34bd2cb9971e9fba34668c4f7bcc77d321053c10359b161733635198080f25a06dd01bb0e0d700926191bbd11612aba8fbc48da51c420c2476b25554d869c105",
      "networkId": 0,
      "chainId": 0
    }
  ]
}