{
  "hash": "0xcd8ffd7953ea4ea209e5b322473f6a28644fcd1812f2790b836d30e90f9652e4",
  "parentHash": "0x36cefa7933badf51cfccedb30e1dda50f7b7c55f96cbe72c2161c79aeb72e3ba",
  "number": 52231,
  "timestamp": 1439018565,
  "nonce": "0x3331fba5c8ea3be0",
  "difficulty": 1549694296290,
  "gasLimit": {
    "_hex": "0x1182b7"
  },
  "gasUsed": {
    "_hex": "0xf4240"
  },
  "miner": "0xf927a40C8B7F6E07c5af7FA2155B4864a4112B13",
  "extraData": "0x476574682f76312e302e312f6c696e75782f676f312e342e32",
  "transactions": [
    {
      "hash": "0x330f681a91bd4513c6dcd092168ea9764bea4790b729e35cdc971a0fa778d6dd",
      "blockHash": "0xcd8ffd7953ea4ea209e5b322473f6a28644fcd1812f2790b836d30e90f9652e4",
      "blockNumber": 52231,
      "transactionIndex": 0,
      "confirmations": null,
      "from": "0xAd7F5C601260b460ADAC6A54411Ca6Cf07dC83c3",
      "gasPrice": {
        "_hex": "0xdaa36d5ae"
      },
      "gasLimit": {
        "_hex": "0x7a120"
      },
      "to": "0xBAA54d6E90c3F4d7Ebec11bD180134C7eD8eBb52",
      "value": {
        "_hex": "0x16345785d8a0000"
      },
      "nonce": 10,
      "data": "0x",
      "r": "0xdc653bc0a765067d11a1a161097983e51e34efda97e85d07150990f5a85d888d",
      "s": "0x06b7b9f186fb518c704a52626f4ae20bbf6073d9e75333da3fa37805d29b2f7c",
      "v": 27,
      "creates": null,
      "raw": "0xf86d0a850daa36d5ae8307a12094baa54d6e90c3f4d7ebec11bd180134c7ed8ebb5288016345785d8a0000801ba0dc653bc0a765067d11a1a161097983e51e34efda97e85d07150990f5a85d888da006b7b9f186fb518c704a52626f4ae20bbf6073d9e75333da3fa37805d29b2f7c",
      "networkId": 0,
      "chainId": 0
    },
    {
      "hash": "0xbe07bba278d0edd690c18b2fadfd98c6f7bc7f59d27bdd085c1fe195d7c1c4f3",
      "blockHash": "0xcd8ffd7953ea4ea209e5b322473f6a28644fcd1812f2790b836d30e90f9652e4",
      "blockNumber": 52231,
      "transactionIndex": 1,
      "confirmations": null,
      "from": "0xAd7F5C601260b460ADAC6A54411Ca6Cf07dC83c3",
      "gasPrice": {
        "_hex": "0x10052b6a9c"
      },
      "gasLimit": {
        "_hex": "0x7a120"
      },
      "to": "0x109C4f2CCc82C4d77Bde15F306707320294Aea3F",
      "value": {
        "_hex": "0xde0b6b3a7640000"
      },
      "nonce": 11,
      "data": "0x",
      "r": "0xcc85537090d1ca92a516d51f97bb55c094d2d19287e6cf4859c0b25e8a669510",
      "s": "0x5446b511cfb98fac48cf4035f7c84cbb5e330e2afc55bb0015cd25d3f2b29972",
      "v": 27,
      "creates": null,
      "raw": "0xf86d0b8510052b6a9c8307a12094109c4f2ccc82c4d77bde15f306707320294aea3f880de0b6b3a7640000801ba0cc85537090d1ca92a516d51f97bb55c094d2d19287e6cf4859c0b25e8a669510a05446b511cfb98fac48cf4035f7c84cbb5e330e2afc55bb0015cd25d3f2b29972",
      "networkId": 0,
      "chainId": 0
    }
  ]
}