{
  "hash": "0x51d10334f7e48eaa29396e1837b43bec973130cbf53b04122d907384db1ada9c",
  "parentHash": "0x2de34ee217d449f4479bf7dc1d6d240a630675f83bbe24bd6d3728f450c82094",
  "number": 80660,
  "timestamp": 1439488765,
  "nonce": "0x907cd41ed757c2df",
  "difficulty": 2430949687860,
  "gasLimit": {
    "_hex": "0x2fefd8"
  },
  "gasUsed": {
    "_hex": "0x1a04f"
  },
  "miner": "0xe6A7a1d47ff21B6321162AEA7C6CB457D5476Bca",
  "extraData": "0x476574682f76312e302e312d38326566323666362f6c696e75782f676f312e34",
  "transactions": [
    {
      "hash": "0x74d6a8491c7066c70075c5b1b5bfcdc2c10e4a1e18239ba3c075aa0457f49cac",
      "blockHash": "0x51d10334f7e48eaa29396e1837b43bec973130cbf53b04122d907384db1ada9c",
      "blockNumber": 80660,
      "transactionIndex": 0,
      "confirmations": null,
      "from": "0x87C5B5874A18B4306DF8a752a6C8cc3E82daFc19",
      "gasPrice": {
        "_hex": "0x113690695a2"
      },
      "gasLimit": {
        "_hex": "0x493e0"
      },
      "to": "0xC4c51de1AbF5D60DBd329eC0F999Fd8f021ae9fC",
      "value": {
        "_hex": "0x0"
      },
      "nonce": 276,
      "data": "0x03750d9400000000000000000000000087c5b5874a18b4306df8a752a6c8cc3e82dafc196b6b6b0000000000000000000000000000000000000000000000000000000000",
      "r": "0x263f4598a2c4ef65f53d22e54ad7c83a58eaea8e20f8b2304d0be8a0ba861283",
      "s": "0x65b47204c1e6f54723c9a724743bd29605663fe36069e260eb8700807c84aeda",
      "v": 28,
      "creates": null,
      "raw": "0xf8ad820114860113690695a2830493e094c4c51de1abf5d60dbd329ec0f999fd8f021ae9fc80b84403750d9400000000000000000000000087c5b5874a18b4306df8a752a6c8cc3e82dafc196b6b6b00000000000000000000000000000000000000000000000000000000001ca0263f4598a2c4ef65f53d22e54ad7c83a58eaea8e20f8b2304d0be8a0ba861283a065b47204c1e6f54723c9a724743bd29605663fe36069e260eb8700807c84aeda",
      "networkId": 0,
      "chainId": 0
    },
    {
      "hash": "0x69b81a347fa147398fed74fc6b105071e946276f9db28e6f57359c08cfb6a7da",
      "blockHash": "0x51d10334f7e48eaa29396e1837b43bec973130cbf53b04122d907384db1ada9c",
      "blockNumber": 80660,
      "transactionIndex": 1,
      "confirmations": null,
      "from": "0x2910543Af39abA0Cd09dBb2D50200b3E800A63D2",
      "gasPrice": {
        "_hex": "0xd143b2ee6"
      },
      "gasLimit": {
        "_hex": "0x5208"
      },
      "to": "0xa99607CA6dA11D4A501e3a0213d905556f370B23",
      "value": {
        "_hex": "0xdfd22a8cd98000"
      },
      "nonce": 398,
      "data": "0x",
      "r": "0x21c2286460375f77217853bc611e8c1c89d6ac8d3f3756d397aed8c960dd1d04",
      "s": "0x108939fc9b9c354e38c3e07775cd1954b3c2f5b63c73bf0b49213358901f14fd",
      "v": 27,
      "creates": null,
      "raw": "0xf86d82018e850d143b2ee682520894a99607ca6da11d4a501e3a0213d905556f370b2387dfd22a8cd98000801ba021c2286460375f77217853bc611e8c1c89d6ac8d3f3756d397aed8c960dd1d04a0108939fc9b9c354e38c3e07775cd1954b3c2f5b63c73bf0b49213358901f14fd",
      "networkId": 0,
      "chainId": 0
    },
    {
      "hash": "0xbd8be5b64c648f5b22f616d3d724012ad38adc47513781d5ac5bcdf1f2a26ce3",
      "blockHash": "0x51d10334f7e48eaa29396e1837b43bec973130cbf53b04122d907384db1ada9c",
      "blockNumber": 80660,
      "transactionIndex": 2,
      "confirmations": null,
      "from": "0x32Be343B94f860124dC4fEe278FDCBD38C102D88",
      "gasPrice": {
        "_hex": "0xcb8ea9200"
      },
      "gasLimit": {
        "_hex": "0x5208"
      },
      "to": "0xCaf1C12c783fCcC4066e87a376F94518141dEF80",
      "value": {
        "_hex": "0x112603b49430c3000"
      },
      "nonce": 548,
      "data": "0x",
      "r": "0x15e78ed99ab87ac18969f5de6c469fa25c56322d13a91fd7c129689a3fd619ce",
      "s": "0x0d8553d7af129e587f7416a62813e90e85440646b86cc9ce78894d887d6ef5f5",
      "v": 27,
      "creates": null,
      "raw": "0xf86f820224850cb8ea920082520894caf1c12c783fccc4066e87a376f94518141def80890112603b49430c3000801ba015e78ed99ab87ac18969f5de6c469fa25c56322d13a91fd7c129689a3fd619cea00d8553d7af129e587f7416a62813e90e85440646b86cc9ce78894d887d6ef5f5",
      "networkId": 0,
      "chainId": 0
    },
    {
      "hash": "0x23ff1c779c638cd0e1953e672fcf776bcf5df79e63ce57a02bb9353b51f876ab",
      "blockHash": "0x51d10334f7e48eaa29396e1837b43bec973130cbf53b04122d907384db1ada9c",
      "blockNumber": 80660,
      "transactionIndex": 3,
      "confirmations": null,
      "from": "0x32Be343B94f860124dC4fEe278FDCBD38C102D88",
      "gasPrice": {
        "_hex": "0xcb8ea9200"
      },
      "gasLimit": {
        "_hex": "0x5208"
      },
      "to": "0x5F28bcc5faFC8982536A9e4be559657998CdE1E3",
      "value": {
        "_hex": "0x576095407443d0000"
      },
      "nonce": 549,
      "data": "0x",
      "r": "0xd811c876481b3840589e43c5e92497515fc9110d878ef5abcd4b4afda4a3429b",
      "s": "0x34e7a46357b2e79f55f2b5f3a515f6870e36c3366277fdcbd9392bc41cb0295c",
      "v": 27,
      "creates": null,
      "raw": "0xf86f820225850cb8ea9200825208945f28bcc5fafc8982536a9e4be559657998cde1e3890576095407443d0000801ba0d811c876481b3840589e43c5e92497515fc9110d878ef5abcd4b4afda4a3429ba034e7a46357b2e79f55f2b5f3a515f6870e36c3366277fdcbd9392bc41cb0295c",
      "networkId": 0,
      "chainId": 0
    }
  ]
}