{
  "hash": "0x90d56b024b3f22edd4f945e8c5b6dddd63793cfbd7912d7dabe93770e20a9c00",
  "parentHash": "0xb0df69d612d5c90d76d72b65238f78ab0dd9a98215c729d4ba884f203969d587",
  "number": 100134,
  "timestamp": 1439801339,
  "nonce": "0x50106366bb88d100",
  "difficulty": 3834228977905,
  "gasLimit": {
    "_hex": "0x2fefd8"
  },
  "gasUsed": {
    "_hex": "0x5208"
  },
  "miner": "0x3D5292e9d2a2D31014717ff936A0F9375A5Cc8b7",
  "extraData": "0x476574682f76312e302e312f77696e646f77732f676f312e342e32",
  "transactions": [
    {
      "hash": "0x745774c6773cf21a67808ca62f1add0e50dd5b04c8b51ac5f23422a8b65db4df",
      "blockHash": "0x90d56b024b3f22edd4f945e8c5b6dddd63793cfbd7912d7dabe93770e20a9c00",
      "blockNumber": 100134,
      "transactionIndex": 0,
      "confirmations": null,
      "from": "0xBDda295a4aa9E3A60063548157510B47c6BE932f",
      "gasPrice": {
        "_hex": "0xd016e6966"
      },
      "gasLimit": {
        "_hex": "0x5208"
      },
      "to": "0x32Be343B94f860124dC4fEe278FDCBD38C102D88",
      "value": {
        "_hex": "0x25a09426ca418c00"
      },
      "nonce": 6,
      "data": "0x",
      "r": "0x80f1fd144074eeaf38c4c0a71fe57b91426108f3e57ae561b89c33291d3ebc45",
      "s": "0x056b368eb938a4aaa42dd9cbd3f7216b8394b6ac645aa17bfbc53e734a13e0af",
      "v": 28,
      "creates": null,
      "raw": "0xf86c06850d016e69668252089432be343b94f860124dc4fee278fdcbd38c102d888825a09426ca418c00801ca080f1fd144074eeaf38c4c0a71fe57b91426108f3e57ae561b89c33291d3ebc45a0056b368eb938a4aaa42dd9cbd3f7216b8394b6ac645aa17bfbc53e734a13e0af",
      "networkId": 0,
      "chainId": 0
    }
  ]
}