{
  "hash": "0x83b5eb5899ad1ddee1278e83195784ef15e4e4ab170bcd4108b7bb83d890f058",
  "parentHash": "0x30d19a53c1bd98a6ffedfeb01ee5bb0e6f272344bb013711a4187496a1d16f02",
  "number": 71506,
  "timestamp": 1439337319,
  "nonce": "0x0bbbe60bafff2017",
  "difficulty": 2172963669522,
  "gasLimit": {
    "_hex": "0x2fefd8"
  },
  "gasUsed": {
    "_hex": "0xaec1"
  },
  "miner": "0x9746c7e1ef2bd21FF3997fa467593a89cb852BD0",
  "extraData": "0x476574682f76312e302e312f77696e646f77732f676f312e342e32",
  "transactions": [
    {
      "hash": "0xffc956ca30aad5fc241a87ee60b9a6e77f0ed04a796e5d0cdd70c769e31f0f94",
      "blockHash": "0x83b5eb5899ad1ddee1278e83195784ef15e4e4ab170bcd4108b7bb83d890f058",
      "blockNumber": 71506,
      "transactionIndex": 0,
      "confirmations": null,
      "from": "0x17580B766f7453525ca4C6A88b01b50570EA088C",
      "gasPrice": {
        "_hex": "0xd45f07c63"
      },
      "gasLimit": {
        "_hex": "0x61a80"
      },
      "to": "0x5Fe5B7546D1628f7348B023A0393de1FC825A4fD",
      "value": {
        "_hex": "0x29a2241af62c0000"
      },
      "nonce": 210,
      "data": "0xb595b8b50000000000000000000000000000000000000000000000000000000000000001",
      "r": "0xb21a53caf6e23b972d291e68ad858e33b2ec2eca5d79ae7214a14fe804c5c9db",
      "s": "0x5393993301427d68a1459192d9d9ebdf68e6079498b5f58370c9107fcf28b073",
      "v": 27,
      "creates": null,
      "raw": "0xf89281d2850d45f07c6383061a80945fe5b7546d1628f7348b023a0393de1fc825a4fd8829a2241af62c0000a4b595b8b500000000000000000000000000000000000000000000000000000000000000011ba0b21a53caf6e23b972d291e68ad858e33b2ec2eca5d79ae7214a14fe804c5c9dba05393993301427d68a1459192d9d9ebdf68e6079498b5f58370c9107fcf28b073",
      "networkId": 0,
      "chainId": 0
    }
  ]
}