{
  "hash": "0x1cc5cf657e8d904f9593d51148568e64874d1f644ed8575244c8138ca4e8b115",
  "parentHash": "0x1031c12ccbe5bdad14975a204b7b6c613682bb13ab12314eaa162971823eb781",
  "number": 89909,
  "timestamp": 1439631050,
  "nonce": "0x2dfd648a6f6f6736",
  "difficulty": 3336927759191,
  "gasLimit": {
    "_hex": "0x2fefd8"
  },
  "gasUsed": {
    "_hex": "0x5208"
  },
  "miner": "0xf927a40C8B7F6E07c5af7FA2155B4864a4112B13",
  "extraData": "0x",
  "transactions": [
    {
      "hash": "0xc0fabc8d67eef6a58a3b6e05827ea1ad109051de01410ed75535966c56ee81a1",
      "blockHash": "0x1cc5cf657e8d904f9593d51148568e64874d1f644ed8575244c8138ca4e8b115",
      "blockNumber": 89909,
      "transactionIndex": 0,
      "confirmations": null,
      "from": "0xfe8635C30D5b0a49D09Fc9480d59e05d7450fd41",
      "gasPrice": {
        "_hex": "0xd3a8b4f0b"
      },
      "gasLimit": {
        "_hex": "0x5208"
      },
      "to": "0x32Be343B94f860124dC4fEe278FDCBD38C102D88",
      "value": {
        "_hex": "0x4fbc4bac537bf0000"
      },
      "nonce": 3,
      "data": "0x",
      "r": "0x9a6aca6fc4838cbfd1f2fc0bf576dd797a6e5243975543fcfe2b08d4b26f76b9",
      "s": "0x4baffd6667cec0ef86bafcdd587751534aabc5d5fb38fa901897fdec3702feed",
      "v": 28,
      "creates": null,
      "raw": "0xf86d03850d3a8b4f0b8252089432be343b94f860124dc4fee278fdcbd38c102d888904fbc4bac537bf0000801ca09a6aca6fc4838cbfd1f2fc0bf576dd797a6e5243975543fcfe2b08d4b26f76b9a04baffd6667cec0ef86bafcdd587751534aabc5d5fb38fa901897fdec3702feed",
      "networkId": 0,
      "chainId": 0
    }
  ]
}