{
  "hash": "0x0a143ad1b486f07fcf0df6532d4d075a3d14bbe60163461212e01f0403b440db",
  "parentHash": "0xa25c753e64f20596654c44a3d835123dc033fd2aef2a503fa6f597d8b27dc10c",
  "number": 120723,
  "timestamp": 1440164744,
  "nonce": "0x4637464e243d7e86",
  "difficulty": 4434714307297,
  "gasLimit": {
    "_hex": "0x2fefd8"
  },
  "gasUsed": {
    "_hex": "0x5208"
  },
  "miner": "0x790b8a3cE86E707ED0eD32bF89B3269692a23CC1",
  "extraData": "0xd783010002844765746887676f312e342e32856c696e7578",
  "transactions": [
    {
      "hash": "0x7d0a0b221fc73b259aadbbc41a2e3ffb9262ca0faed9c626d0a985bb15546364",
      "blockHash": "0x0a143ad1b486f07fcf0df6532d4d075a3d14bbe60163461212e01f0403b440db",
      "blockNumber": 120723,
      "transactionIndex": 0,
      "confirmations": null,
      "from": "0x223eA75ACE9d7F53BC6c131191Aff34B44bd57aC",
      "gasPrice": {
        "_hex": "0xba43b7400"
      },
      "gasLimit": {
        "_hex": "0x5208"
      },
      "to": "0x7339BF89A60F8a29d0Ed436F3198774F8e191f37",
      "value": {
        "_hex": "0x4563918244f40000"
      },
      "nonce": 7,
      "data": "0x",
      "r": "0x85d9d518cc2954e9bd23e65c3aacb07d69ca8aec2575dbb5757798e3085d3648",
      "s": "0x05bac4f06d077a9712e75473c0b79c9d8a4d68b50ecaf01e11c2c073cda0b601",
      "v": 28,
      "creates": null,
      "raw": "0xf86c07850ba43b7400825208947339bf89a60f8a29d0ed436f3198774f8e191f37884563918244f40000801ca085d9d518cc2954e9bd23e65c3aacb07d69ca8aec2575dbb5757798e3085d3648a005bac4f06d077a9712e75473c0b79c9d8a4d68b50ecaf01e11c2c073cda0b601",
      "networkId": 0,
      "chainId": 0
    }
  ]
}