{
  "hash": "0x215fe3918c79b9c195e144a8dfb7d234137355c50f71bbc9807b8d3662665d10",
  "parentHash": "0xf3945aafede92c541070ef114f90a9086aa8e674726a974bb96d4176a045ae10",
  "number": 87244,
  "timestamp": 1439589392,
  "nonce": "0x15eb3fe2056e4274",
  "difficulty": 3073597519870,
  "gasLimit": {
    "_hex": "0x2fefd2"
  },
  "gasUsed": {
    "_hex": "0x5208"
  },
  "miner": "0xe6A7a1d47ff21B6321162AEA7C6CB457D5476Bca",
  "extraData": "0x476574682f76312e302e312d38326566323666362f6c696e75782f676f312e34",
  "transactions": [
    {
      "hash": "0x1027ac19cfa5c2e07f3711b74904764489e15ca1667de819b10efb89d1474d08",
      "blockHash": "0x215fe3918c79b9c195e144a8dfb7d234137355c50f71bbc9807b8d3662665d10",
      "blockNumber": 87244,
      "transactionIndex": 0,
      "confirmations": null,
      "from": "0x32Be343B94f860124dC4fEe278FDCBD38C102D88",
      "gasPrice": {
        "_hex": "0xdd7583226"
      },
      "gasLimit": {
        "_hex": "0x5208"
      },
      "to": "0xf747F959535B01d4BfDAB64A40DB48D0D6c68edb",
      "value": {
        "_hex": "0x68e93e4606c08000"
      },
      "nonce": 779,
      "data": "0x",
      "r": "0x465f69dc5d2b4f03ea3d49bfd72d63b31be6c17240e5af92e34f59b7c46372b2",
      "s": "0x512f4533f90610d287defc1d4fc6a4bcb7f87df977bcf62b89a99a8e5ecc09cf",
      "v": 27,
      "creates": null,
      "raw": "0xf86e82030b850dd758322682520894f747f959535b01d4bfdab64a40db48d0d6c68edb8868e93e4606c08000801ba0465f69dc5d2b4f03ea3d49bfd72d63b31be6c17240e5af92e34f59b7c46372b2a0512f4533f90610d287defc1d4fc6a4bcb7f87df977bcf62b89a99a8e5ecc09cf",
      "networkId": 0,
      "chainId": 0
    }
  ]
}