{
  "hash": "0x3e080684598cc77d23a41c57eb603c7c38b95298d585421a0ac8d9ee5a0c3879",
  "parentHash": "0x0d68567fb99667dc66857941abe00d268b58b536bfe7903b4f59bb78fe518272",
  "number": 77676,
  "timestamp": 1439440972,
  "nonce": "0xcaddef0d7c21b389",
  "difficulty": 2268915074838,
  "gasLimit": {
    "_hex": "0x2fefd8"
  },
  "gasUsed": {
    "_hex": "0xf618"
  },
  "miner": "0xe6A7a1d47ff21B6321162AEA7C6CB457D5476Bca",
  "extraData": "0x476574682f76312e302e312d38326566323666362f6c696e75782f676f312e34",
  "transactions": [
    {
      "hash": "0x6cbe6bcd3737e5cc5ecc7d68809a83e046968018a3c3fdb7a145247a5266cdfd",
      "blockHash": "0x3e080684598cc77d23a41c57eb603c7c38b95298d585421a0ac8d9ee5a0c3879",
      "blockNumber": 77676,
      "transactionIndex": 0,
      "confirmations": null,
      "from": "0x8F79f76381Aad7B98C19aF55eE75fdfEeb012211",
      "gasPrice": {
        "_hex": "0xe0543bc0d"
      },
      "gasLimit": {
        "_hex": "0x5208"
      },
      "to": "0x32Be343B94f860124dC4fEe278FDCBD38C102D88",
      "value": {
        "_hex": "0x22b180df12def6000"
      },
      "nonce": 13,
      "data": "0x",
      "r": "0x300c8047e9d91416ef6f4ae155751a4966b46255b8a4b3d2f37e1d0665111976",
      "s": "0x157489ac0ea159cb68ea9d282af95ca6b88d18dec41a45a8190990d24ab5eab3",
      "v": 28,
      "creates": null,
      "raw": "0xf86d0d850e0543bc0d8252089432be343b94f860124dc4fee278fdcbd38c102d8889022b180df12def6000801ca0300c8047e9d91416ef6f4ae155751a4966b46255b8a4b3d2f37e1d0665111976a0157489ac0ea159cb68ea9d282af95ca6b88d18dec41a45a8190990d24ab5eab3",
      "networkId": 0,
      "chainId": 0
    },
    {
      "hash": "0xe1f316a1ce7d63ddd7ae8ac379f08f8893661d84254dfd1364f60666488e32ee",
      "blockHash": "0x3e080684598cc77d23a41c57eb603c7c38b95298d585421a0ac8d9ee5a0c3879",
      "blockNumber": 77676,
      "transactionIndex": 1,
      "confirmations": null,
      "from": "0x32Be343B94f860124dC4fEe278FDCBD38C102D88",
      "gasPrice": {
        "_hex": "0xe0543bc0d"
      },
      "gasLimit": {
        "_hex": "0x5208"
      },
      "to": "0x602E2B65e38bD1B0AB230B35878dF011d74f2c59",
      "value": {
        "_hex": "0x3e4faf3601810000"
      },
      "nonce": 372,
      "data": "0x",
      "r": "0x26fa623ad8349e717c0478eca6bb653a94467e4ab22f24f47adafb58c71decc6",
      "s": "0x088c6699232e60439f387027c779351ef44ee083a55b08d84ffdb7ca8ae89adb",
      "v": 28,
      "creates": null,
      "raw": "0xf86e820174850e0543bc0d82520894602e2b65e38bd1b0ab230b35878df011d74f2c59883e4faf3601810000801ca026fa623ad8349e717c0478eca6bb653a94467e4ab22f24f47adafb58c71decc6a0088c6699232e60439f387027c779351ef44ee083a55b08d84ffdb7ca8ae89adb",
      "networkId": 0,
      "chainId": 0
    },
    {
      "hash": "0xc78db8c714bf252f302c01b6d70ef3b3ebc294d8d3db0847ee85ff475c2aade7",
      "blockHash": "0x3e080684598cc77d23a41c57eb603c7c38b95298d585421a0ac8d9ee5a0c3879",
      "blockNumber": 77676,
      "transactionIndex": 2,
      "confirmations": null,
      "from": "0x9653c9859b18f8777Fe4eEc9a67c9F64F3D6F62a",
      "gasPrice": {
        "_hex": "0xcd01555c5"
      },
      "gasLimit": {
        "_hex": "0x15f90"
      },
      "to": "0x8178414Ff0aba7fD5bC60A72cB17e213b371F35C",
      "value": {
        "_hex": "0x3e8"
      },
      "nonce": 0,
      "data": "0x",
      "r": "0x9763aaca1997d1384b464e50386bba0f91fb1617c190910369be8281b7775da4",
      "s": "0x17de8d7dcca7bb6e4641fb8af8c7499456f6bfb09b5a6fa2d02e8f8db5a08d54",
      "v": 28,
      "creates": null,
      "raw": "0xf86780850cd01555c583015f90948178414ff0aba7fd5bc60a72cb17e213b371f35c8203e8801ca09763aaca1997d1384b464e50386bba0f91fb1617c190910369be8281b7775da4a017de8d7dcca7bb6e4641fb8af8c7499456f6bfb09b5a6fa2d02e8f8db5a08d54",
      "networkId": 0,
      "chainId": 0
    }
  ]
}