{
  "hash": "0x8efd5370ee3a0df39ec1357af1d78dde233e77960b21a9057e4fb54e9f1ae735",
  "parentHash": "0x786ffe9465ed8d2ee437d5bf9b1ca2e822a65e388c469c641eac8f40dac895ba",
  "number": 64814,
  "timestamp": 1439226662,
  "nonce": "0x7ef981293ff15105",
  "difficulty": 1896805148242,
  "gasLimit": {
    "_hex": "0x2fefd8"
  },
  "gasUsed": {
    "_hex": "0xa410"
  },
  "miner": "0xe6A7a1d47ff21B6321162AEA7C6CB457D5476Bca",
  "extraData": "0x476574682f76312e302e312f6c696e75782f676f312e342e32",
  "transactions": [
    {
      "hash": "0x98653bf00fa0659f264b2b36774d3be269e0d9108db8a8289c6b9bb4840eee9b",
      "blockHash": "0x8efd5370ee3a0df39ec1357af1d78dde233e77960b21a9057e4fb54e9f1ae735",
      "blockNumber": 64814,
      "transactionIndex": 0,
      "confirmations": null,
      "from": "0x28c8f8e2a6d6254964acbCC8F42f6b1cF8E73bA0",
      "gasPrice": {
        "_hex": "0xba43b7400"
      },
      "gasLimit": {
        "_hex": "0x5208"
      },
      "to": "0x5DCF84FFc56A135124c58bB199Bfc7ba8af356B3",
      "value": {
        "_hex": "0x1c045218ee54000"
      },
      "nonce": 1,
      "data": "0x",
      "r": "0x91d92996f8e03b387c864fb98b9527c5e75f59e51bbd90b4a14edec1e3d19c8f",
      "s": "0x57a4ce81b9dd96f606bb9faf0be51e66e716c9d4b389c08ea1c47f5a3246b5c8",
      "v": 28,
      "creates": null,
      "raw": "0xf86c01850ba43b7400825208945dcf84ffc56a135124c58bb199bfc7ba8af356b38801c045218ee54000801ca091d92996f8e03b387c864fb98b9527c5e75f59e51bbd90b4a14edec1e3d19c8fa057a4ce81b9dd96f606bb9faf0be51e66e716c9d4b389c08ea1c47f5a3246b5c8",
      "networkId": 0,
      "chainId": 0
    },
    {
      "hash": "0x685d499a91b1ef1ecf651e762ba16a9276a2d2f1db98c7e496530d69f3e54efd",
      "blockHash": "0x8efd5370ee3a0df39ec1357af1d78dde233e77960b21a9057e4fb54e9f1ae735",
      "blockNumber": 64814,
      "transactionIndex": 1,
      "confirmations": null,
      "from": "0x4Dcf7ffF63B7cbD7AcCEdb81DE2005A7e7a03bea",
      "gasPrice": {
        "_hex": "0xba43b7400"
      },
      "gasLimit": {
        "_hex": "0x5208"
      },
      "to": "0x5B80B04cBad97d1A7BeBD3eC81ed7b78AA922381",
      "value": {
        "_hex": "0x191fec7dbc46000"
      },
      "nonce": 1,
      "data": "0x",
      "r": "0x4b0256800a13e1ef24d40a97998760f7170b6e46f69d995beca3a1bdab9186db",
      "s": "0x570b4dd343c21c134048a86c317cc0fb7acc415c5dbb51215decbb6640b7dbc4",
      "v": 27,
      "creates": null,
      "raw": "0xf86c01850ba43b7400825208945b80b04cbad97d1a7bebd3ec81ed7b78aa922381880191fec7dbc46000801ba04b0256800a13e1ef24d40a97998760f7170b6e46f69d995beca3a1bdab9186dba0570b4dd343c21c134048a86c317cc0fb7acc415c5dbb51215decbb6640b7dbc4",
      "networkId": 0,
      "chainId": 0
    }
  ]
}