{
  "hash": "0x67c67ca41eae12af349d7e2d1ec611fb7a42986cba52fb3d90b6120a7e005604",
  "parentHash": "0xee284bca782d6eb7ee5d6a187d34cbe4a0824a70f647c715a5be19bb2ace8a08",
  "number": 102925,
  "timestamp": 1439845191,
  "nonce": "0x2f835f1bcb1b0870",
  "difficulty": 4110151449800,
  "gasLimit": {
    "_hex": "0x2fefd8"
  },
  "gasUsed": {
    "_hex": "0xa410"
  },
  "miner": "0xe6A7a1d47ff21B6321162AEA7C6CB457D5476Bca",
  "extraData": "0x476574682f76312e302e312d38326566323666362f6c696e75782f676f312e34",
  "transactions": [
    {
      "hash": "0x79ae6046eea5375b5420131de063885c64d502b5887aeab7ed9a06c9da1057a9",
      "blockHash": "0x67c67ca41eae12af349d7e2d1ec611fb7a42986cba52fb3d90b6120a7e005604",
      "blockNumber": 102925,
      "transactionIndex": 0,
      "confirmations": null,
      "from": "0xD9666150A9dA92d9108198a4072970805a8B3428",
      "gasPrice": {
        "_hex": "0xde2226a52"
      },
      "gasLimit": {
        "_hex": "0x5208"
      },
      "to": "0x32Be343B94f860124dC4fEe278FDCBD38C102D88",
      "value": {
        "_hex": "0x455f1ea3bcc3f000"
      },
      "nonce": 60,
      "data": "0x",
      "r": "0xa2abe8e543911b39b5951ce07493de6e820e67c8fb79a588916032b2874ad30f",
      "s": "0x36ea135029166cda95d9af6de77195641be2330be521278d45a910c16cf0e85a",
      "v": 27,
      "creates": null,
      "raw": "0xf86c3c850de2226a528252089432be343b94f860124dc4fee278fdcbd38c102d8888455f1ea3bcc3f000801ba0a2abe8e543911b39b5951ce07493de6e820e67c8fb79a588916032b2874ad30fa036ea135029166cda95d9af6de77195641be2330be521278d45a910c16cf0e85a",
      "networkId": 0,
      "chainId": 0
    },
    {
      "hash": "0xca792e0d78fcb0efe98e1fd04f48c565de79cdd65c4e033d4c3556a03ea65d9d",
      "blockHash": "0x67c67ca41eae12af349d7e2d1ec611fb7a42986cba52fb3d90b6120a7e005604",
      "blockNumber": 102925,
      "transactionIndex": 1,
      "confirmations": null,
      "from": "0x64aF60Be7c74AE1D077e7F350114a5098D179b4a",
      "gasPrice": {
        "_hex": "0xde2226a52"
      },
      "gasLimit": {
        "_hex": "0x5208"
      },
      "to": "0x32Be343B94f860124dC4fEe278FDCBD38C102D88",
      "value": {
        "_hex": "0x3a8bbb9801aae0000"
      },
      "nonce": 3,
      "data": "0x",
      "r": "0x0e1082472fa2a01632152a558ea90228542abf1f3f9646e05264bb68f952d5de",
      "s": "0x01578d0f1334d3f716efbe2b11bdbf39fac7ca549537f7564640e0d0d5b0d09d",
      "v": 28,
      "creates": null,
      "raw": "0xf86d03850de2226a528252089432be343b94f860124dc4fee278fdcbd38c102d888903a8bbb9801aae0000801ca00e1082472fa2a01632152a558ea90228542abf1f3f9646e05264bb68f952d5dea001578d0f1334d3f716efbe2b11bdbf39fac7ca549537f7564640e0d0d5b0d09d",
      "networkId": 0,
      "chainId": 0
    }
  ]
}