{
  "hash": "0x17d7d0713aa86c3b34d630951e70f63c1d83b079156efa934c6d8e819a8b94b0",
  "parentHash": "0x0f5a941b2ac196ed82128814fcd6a55b8913a7b8e3612430ed667108f6d65512",
  "number": 105432,
  "timestamp": 1439887493,
  "nonce": "0x6a38680ed347f78f",
  "difficulty": 4384617665598,
  "gasLimit": {
    "_hex": "0x2fefd8"
  },
  "gasUsed": {
    "_hex": "0x5208"
  },
  "miner": "0xbb7B8287f3F0a933474a79eAe42CBCa977791171",
  "extraData": "0x476574682f4c5649562f76312e302e312f6c696e75782f676f312e342e32",
  "transactions": [
    {
      "hash": "0x740f37fafdf3353f3e218eefd8c355fe506d2bd8b405ec4b7dc941d59c70ff35",
      "blockHash": "0x17d7d0713aa86c3b34d630951e70f63c1d83b079156efa934c6d8e819a8b94b0",
      "blockNumber": 105432,
      "transactionIndex": 0,
      "confirmations": null,
      "from": "0x357A01795bfA480a007fB4B1B6eDf2e8C23f1840",
      "gasPrice": {
        "_hex": "0xde87cb6f8"
      },
      "gasLimit": {
        "_hex": "0x5208"
      },
      "to": "0x32Be343B94f860124dC4fEe278FDCBD38C102D88",
      "value": {
        "_hex": "0x526732a325693c00"
      },
      "nonce": 6,
      "data": "0x",
      "r": "0x92c02285667b968f6ade0192270a712948d22a542ecd3a67bca56c8c2fab3234",
      "s": "0x00ab32473dc921739b2653545f618acd80ae6eed161e491be99b73be3af1ade6",
      "v": 27,
      "creates": null,
      "raw": "0xf86b06850de87cb6f88252089432be343b94f860124dc4fee278fdcbd38c102d8888526732a325693c00801ba092c02285667b968f6ade0192270a712948d22a542ecd3a67bca56c8c2fab32349fab32473dc921739b2653545f618acd80ae6eed161e491be99b73be3af1ade6",
      "networkId": 0,
      "chainId": 0
    }
  ]
}