{
  "hash": "0xb2e798989d198bfcb1f98aacd14227aecc929d574546915b4f902091489701b8",
  "parentHash": "0x1c0f3b438030d7d8006b4bdcb48fa32d607a5e68ea5b146976cac2810954cf47",
  "number": 77960,
  "timestamp": 1439445726,
  "nonce": "0xb404b0dc1d6b46e0",
  "difficulty": 2293341924796,
  "gasLimit": {
    "_hex": "0x2fefd8"
  },
  "gasUsed": {
    "_hex": "0x7a62"
  },
  "miner": "0xe6A7a1d47ff21B6321162AEA7C6CB457D5476Bca",
  "extraData": "0x476574682f76312e302e312d38326566323666362f6c696e75782f676f312e34",
  "transactions": [
    {
      "hash": "0x8c55f9e81237c8560cbfb3d29aabded60e41e98739db615801b6adebcbe6e4b1",
      "blockHash": "0xb2e798989d198bfcb1f98aacd14227aecc929d574546915b4f902091489701b8",
      "blockNumber": 77960,
      "transactionIndex": 0,
      "confirmations": null,
      "from": "0x008FC7CBAdFFbD0D7fe44F8DFD60a79d721a1c9C",
      "gasPrice": {
        "_hex": "0xdc543fdf3"
      },
      "gasLimit": {
        "_hex": "0x30d40"
      },
      "to": "0x93eEA62C088759fd22ebc15a6f9645672D3a9265",
      "value": {
        "_hex": "0xe8d4a51000"
      },
      "nonce": 18,
      "data": "0x",
      "r": "0x8fdbd2a3bd360e50b92fcac228f07a1c830b69b602a324ec1f1e273c2d0cec89",
      "s": "0x57aec0a9c69c5904ecaf40d7e6cf01a6b9173ed02a698336b9ba46e11d681af5",
      "v": 28,
      "creates": null,
      "raw": "0xf86a12850dc543fdf383030d409493eea62c088759fd22ebc15a6f9645672d3a926585e8d4a51000801ca08fdbd2a3bd360e50b92fcac228f07a1c830b69b602a324ec1f1e273c2d0cec89a057aec0a9c69c5904ecaf40d7e6cf01a6b9173ed02a698336b9ba46e11d681af5",
      "networkId": 0,
      "chainId": 0
    }
  ]
}