{
  "hash": "0xf0014f26f6b71103d5fdc67ef7d609e9b3a162b95ea04e6e2d51885b42a590d4",
  "parentHash": "0x7c9d306613b1455e9de9c687e06d467a7950b90645a6f3271de9d5a0e296eeb3",
  "number": 104251,
  "timestamp": 1439866733,
  "nonce": "0x8c24ab0ed1ffd54c",
  "difficulty": 4281560019154,
  "gasLimit": {
    "_hex": "0x2fefd8"
  },
  "gasUsed": {
    "_hex": "0x5208"
  },
  "miner": "0x88C96e25787Fd9e2746F7Ce708f2285eCC16348f",
  "extraData": "0x476574682f76312e302e312f77696e646f77732f676f312e342e32",
  "transactions": [
    {
      "hash": "0xf231f2e95736e83a91edc702521aa60c71666a4464daffcb8fa6d0c2ebd12263",
      "blockHash": "0xf0014f26f6b71103d5fdc67ef7d609e9b3a162b95ea04e6e2d51885b42a590d4",
      "blockNumber": 104251,
      "transactionIndex": 0,
      "confirmations": null,
      "from": "0x32Be343B94f860124dC4fEe278FDCBD38C102D88",
      "gasPrice": {
        "_hex": "0xd58ed1d0b"
      },
      "gasLimit": {
        "_hex": "0x5208"
      },
      "to": "0x653777A18b481CA87686ac19a4bd2b52ad86CbA5",
      "value": {
        "_hex": "0xdbd2fc137a30000"
      },
      "nonce": 1149,
      "data": "0x",
      "r": "0xf50e316ba9e885fcea0c24b2e4f34f5e2dd193a0d3d8e480c5cb003709736009",
      "s": "0x24f90d675737910dd18e5d5a0bc443c1d7b79bab0021058f0b123fea60f6eeeb",
      "v": 28,
      "creates": null,
      "raw": "0xf86e82047d850d58ed1d0b82520894653777a18b481ca87686ac19a4bd2b52ad86cba5880dbd2fc137a30000801ca0f50e316ba9e885fcea0c24b2e4f34f5e2dd193a0d3d8e480c5cb003709736009a024f90d675737910dd18e5d5a0bc443c1d7b79bab0021058f0b123fea60f6eeeb",
      "networkId": 0,
      "chainId": 0
    }
  ]
}