{
  "hash": "0x4121f9e16fc3d661205c72aba23279930552c4762efb4dba71a4d291b8f69079",
  "parentHash": "0xdd42e5fcf19187cb872747d9bab876a428703b13ae152a6d9728a3399248c373",
  "number": 68851,
  "timestamp": 1439294711,
  "nonce": "0x2a4580becb642803",
  "difficulty": 2015212971892,
  "gasLimit": {
    "_hex": "0x2fefd8"
  },
  "gasUsed": {
    "_hex": "0x5208"
  },
  "miner": "0xe6A7a1d47ff21B6321162AEA7C6CB457D5476Bca",
  "extraData": "0x476574682f76312e302e312d38326566323666362f6c696e75782f676f312e34",
  "transactions": [
    {
      "hash": "0x154909a5bac9c1f5be97287a7e599e75acfd28d1623296add10dad852cd8408f",
      "blockHash": "0x4121f9e16fc3d661205c72aba23279930552c4762efb4dba71a4d291b8f69079",
      "blockNumber": 68851,
      "transactionIndex": 0,
      "confirmations": null,
      "from": "0x6747f922385c9a6F9cfDf095F34345257DD597bE",
      "gasPrice": {
        "_hex": "0xba43b7400"
      },
      "gasLimit": {
        "_hex": "0x5208"
      },
      "to": "0x3f16fC8ED56737990219afc0878616A3E7840914",
      "value": {
        "_hex": "0x1fcbfa42bd6000"
      },
      "nonce": 128,
      "data": "0x",
      "r": "0x58e99c04008717b402fc75c7a2ce5510dcac4328e0bc9e42d82f2288346be86a",
      "s": "0x769188def4d924a02f9941299dd70dbc0d5342e3f356d972f4cd7d6e015450f2",
      "v": 27,
      "creates": null,
      "raw": "0xf86c8180850ba43b7400825208943f16fc8ed56737990219afc0878616a3e7840914871fcbfa42bd6000801ba058e99c04008717b402fc75c7a2ce5510dcac4328e0bc9e42d82f2288346be86aa0769188def4d924a02f9941299dd70dbc0d5342e3f356d972f4cd7d6e015450f2",
      "networkId": 0,
      "chainId": 0
    }
  ]
}