{
  "hash": "0xc1d7b674d5a2820f7a1ffd1ff88805c0828ec14bb7d37a92f17c8519302e42d9",
  "parentHash": "0x02d7f1ac949678446686e1af60b9a81ddc74afd10cdeae2abf458422bb04f4fa",
  "number": 121936,
  "timestamp": 1440185143,
  "nonce": "0xf672054325366bc6",
  "difficulty": 4484150483252,
  "gasLimit": {
    "_hex": "0x2fefd8"
  },
  "gasUsed": {
    "_hex": "0x14820"
  },
  "miner": "0x9746c7e1ef2bd21FF3997fa467593a89cb852BD0",
  "extraData": "0x476574682f76312e302e312f77696e646f77732f676f312e342e32",
  "transactions": [
    {
      "hash": "0xbc3f8aa7fc92f656ddb139e0093b489840dfbfb6daeb4c3cd8a20922d819ad56",
      "blockHash": "0xc1d7b674d5a2820f7a1ffd1ff88805c0828ec14bb7d37a92f17c8519302e42d9",
      "blockNumber": 121936,
      "transactionIndex": 0,
      "confirmations": null,
      "from": "0x19aF4b2766b8115B49E1fd31Ae71CaA12E706A96",
      "gasPrice": {
        "_hex": "0xe186d617d"
      },
      "gasLimit": {
        "_hex": "0x5208"
      },
      "to": "0x32Be343B94f860124dC4fEe278FDCBD38C102D88",
      "value": {
        "_hex": "0x3174b7e77bd83400"
      },
      "nonce": 13,
      "data": "0x",
      "r": "0x096a912178be990b750ba9d9d4dfb7df09dbeb1f1c4417222d17b107fb211c90",
      "s": "0x4535f033163da97a20178e300cdab333f291b7cf7a8079d7e16bb57a42a18ba8",
      "v": 27,
      "creates": null,
      "raw": "0xf86c0d850e186d617d8252089432be343b94f860124dc4fee278fdcbd38c102d88883174b7e77bd83400801ba0096a912178be990b750ba9d9d4dfb7df09dbeb1f1c4417222d17b107fb211c90a04535f033163da97a20178e300cdab333f291b7cf7a8079d7e16bb57a42a18ba8",
      "networkId": 0,
      "chainId": 0
    },
    {
      "hash": "0x611c921a61f49b2c546c76c7af021caf73b1692d112b3b7c0eec05c8d7f374d7",
      "blockHash": "0xc1d7b674d5a2820f7a1ffd1ff88805c0828ec14bb7d37a92f17c8519302e42d9",
      "blockNumber": 121936,
      "transactionIndex": 1,
      "confirmations": null,
      "from": "0xA4fbA5C740C8141d6c4469eD292bfCC8cCAc774F",
      "gasPrice": {
        "_hex": "0xe186d617d"
      },
      "gasLimit": {
        "_hex": "0x5208"
      },
      "to": "0x32Be343B94f860124dC4fEe278FDCBD38C102D88",
      "value": {
        "_hex": "0xe25ec38f27eb800"
      },
      "nonce": 9,
      "data": "0x",
      "r": "0x7da259d7139252fe47d891e0fcd53b10b423b9e077494f0ddedc70ba306e92a2",
      "s": "0x0d115192e6f03535eb2c25e46928e460a0055cc074c652cb6f26d869bfbd22d4",
      "v": 27,
      "creates": null,
      "raw": "0xf86c09850e186d617d8252089432be343b94f860124dc4fee278fdcbd38c102d88880e25ec38f27eb800801ba07da259d7139252fe47d891e0fcd53b10b423b9e077494f0ddedc70ba306e92a2a00d115192e6f03535eb2c25e46928e460a0055cc074c652cb6f26d869bfbd22d4",
      "networkId": 0,
      "chainId": 0
    },
    {
      "hash": "0x777bbb9920193f3ff53c114af7dc7c7601bffec37fcfcb47bec52dd786476157",
      "blockHash": "0xc1d7b674d5a2820f7a1ffd1ff88805c0828ec14bb7d37a92f17c8519302e42d9",
      "blockNumber": 121936,
      "transactionIndex": 2,
      "confirmations": null,
      "from": "0xBFdD9820a04283b289957956353b5F3C1F665EcF",
      "gasPrice": {
        "_hex": "0xe186d617d"
      },
      "gasLimit": {
        "_hex": "0x5208"
      },
      "to": "0x32Be343B94f860124dC4fEe278FDCBD38C102D88",
      "value": {
        "_hex": "0xd2cd6de559147000"
      },
      "nonce": 52,
      "data": "0x",
      "r": "0x9995ea809456d4664f9c22552589c33e6518bbb779d7c7586a6f8c7ffab26f5b",
      "s": "0x1c0989a767ae5207b3fe55e5fc87ef7342744ac4574a3c75a79532738b5f66c7",
      "v": 28,
      "creates": null,
      "raw": "0xf86c34850e186d617d8252089432be343b94f860124dc4fee278fdcbd38c102d8888d2cd6de559147000801ca09995ea809456d4664f9c22552589c33e6518bbb779d7c7586a6f8c7ffab26f5ba01c0989a767ae5207b3fe55e5fc87ef7342744ac4574a3c75a79532738b5f66c7",
      "networkId": 0,
      "chainId": 0
    },
    {
      "hash": "0xdb3200e01d4f9d27a742f24d3a0536b0edf658f7ce562049fa01b684760038f6",
      "blockHash": "0xc1d7b674d5a2820f7a1ffd1ff88805c0828ec14bb7d37a92f17c8519302e42d9",
      "blockNumber": 121936,
      "transactionIndex": 3,
      "confirmations": null,
      "from": "0x5361368eAf92E9Af8728969Ac24daca20356Aa93",
      "gasPrice": {
        "_hex": "0xda5d4d791"
      },
      "gasLimit": {
        "_hex": "0x15f90"
      },
      "to": "0xA8418624cceB80033002faCf9188d6F7484a28F9",
      "value": {
        "_hex": "0x2386f26fc10000"
      },
      "nonce": 1,
      "data": "0x",
      "r": "0x783607781b1573e83b70754cf3f56ad816a9092b8d759c0371e71a656850aef7",
      "s": "0x162f052bffeba3085f3bc9e50ffa89489bf4a9884b24ddb1d4a93a84497a2d2e",
      "v": 27,
      "creates": null,
      "raw": "0xf86c01850da5d4d79183015f9094a8418624cceb80033002facf9188d6f7484a28f9872386f26fc10000801ba0783607781b1573e83b70754cf3f56ad816a9092b8d759c0371e71a656850aef7a0162f052bffeba3085f3bc9e50ffa89489bf4a9884b24ddb1d4a93a84497a2d2e",
      "networkId": 0,
      "chainId": 0
    }
  ]
}