{
  "hash": "0x38f084a502f16f855cae57aa457d2b9c5294c8d57f70c34cc8d97ad7fd63e3d5",
  "parentHash": "0x7a1f6a8b4e5266c209561d43a909a26432867d854e87a959a8ae1ee910d490b1",
  "number": 87048,
  "timestamp": 1439586455,
  "nonce": "0x77d3c3c590a2155f",
  "difficulty": 3028973043344,
  "gasLimit": {
    "_hex": "0x2fefd8"
  },
  "gasUsed": {
    "_hex": "0x5208"
  },
  "miner": "0x790b8a3cE86E707ED0eD32bF89B3269692a23CC1",
  "extraData": "0xd783010001844765746887676f312e342e32856c696e7578",
  "transactions": [
    {
      "hash": "0xe4d1cdb23418dcda1af74e2aa576781ba9239300835872823e4ce5ebbb1a3a19",
      "blockHash": "0x38f084a502f16f855cae57aa457d2b9c5294c8d57f70c34cc8d97ad7fd63e3d5",
      "blockNumber": 87048,
      "transactionIndex": 0,
      "confirmations": null,
      "from": "0x2910543Af39abA0Cd09dBb2D50200b3E800A63D2",
      "gasPrice": {
        "_hex": "0xd16aa1803"
      },
      "gasLimit": {
        "_hex": "0x5208"
      },
      "to": "0xFD7c9117BbEB649d9b37B3D3C9917f7c12f526B3",
      "value": {
        "_hex": "0x18d767bc77138bc600"
      },
      "nonce": 690,
      "data": "0x",
      "r": "0xb22a322de24cc4f9bdbc4899fc7eac9cb44a52d5af36b12cd051212696ecbf82",
      "s": "0x4126d0c5db0d08cdab7401ceff92324ccc4b3647096c0811038e3ba2a8283356",
      "v": 27,
      "creates": null,
      "raw": "0xf86f8202b2850d16aa180382520894fd7c9117bbeb649d9b37b3d3c9917f7c12f526b38918d767bc77138bc600801ba0b22a322de24cc4f9bdbc4899fc7eac9cb44a52d5af36b12cd051212696ecbf82a04126d0c5db0d08cdab7401ceff92324ccc4b3647096c0811038e3ba2a8283356",
      "networkId": 0,
      "chainId": 0
    }
  ]
}