{
  "hash": "0x914c1eae486bdb77873b68deb855ad7140e505e00bd9e38ec058d30940d4be20",
  "parentHash": "0xa895cd51d185016d4d1ceca96995323a9842f5db5e41147882b57d292b39f258",
  "number": 48115,
  "timestamp": 1438951610,
  "nonce": "0xc72e43d9309b246f",
  "difficulty": 1466508318674,
  "gasLimit": {
    "_hex": "0x12b13"
  },
  "gasUsed": {
    "_hex": "0xfae0"
  },
  "miner": "0xab84940B570d6358ed6A9Dbf7e0bc8Ec8F5A6E89",
  "extraData": "0x322831652933",
  "transactions": [
    {
      "hash": "0x96f777ef53981ee72c3bd7a201b7e0ced9d72a246b9df712f4609c8c6962364d",
      "blockHash": "0x914c1eae486bdb77873b68deb855ad7140e505e00bd9e38ec058d30940d4be20",
      "blockNumber": 48115,
      "transactionIndex": 0,
      "confirmations": null,
      "from": "0x4F4a9Be10CD5D3FB5De48C17bE296f895690645b",
      "gasPrice": {
        "_hex": "0x174876e800"
      },
      "gasLimit": {
        "_hex": "0x9c40"
      },
      "to": "0x2910543Af39abA0Cd09dBb2D50200b3E800A63D2",
      "value": {
        "_hex": "0xde0b6b3a7640000"
      },
      "nonce": 4,
      "data": "0x454e4d304e4b4e5047",
      "r": "0x4834847db50c4b7c8161b53e7be7a7c6d8c5270246e9227fd34e7da259ec5fb0",
      "s": "0x574b99f3048c68165f376ed7fea0b795c1412363f3e1c15b79032b8ac3009d9d",
      "v": 27,
      "creates": null,
      "raw": "0xf8750485174876e800829c40942910543af39aba0cd09dbb2d50200b3e800a63d2880de0b6b3a764000089454e4d304e4b4e50471ba04834847db50c4b7c8161b53e7be7a7c6d8c5270246e9227fd34e7da259ec5fb0a0574b99f3048c68165f376ed7fea0b795c1412363f3e1c15b79032b8ac3009d9d",
      "networkId": 0,
      "chainId": 0
    },
    {
      "hash": "0xad8d65457b7274a30b04b5765f47b62363746bef1c13f8562e3a240fd530ff8c",
      "blockHash": "0x914c1eae486bdb77873b68deb855ad7140e505e00bd9e38ec058d30940d4be20",
      "blockNumber": 48115,
      "transactionIndex": 1,
      "confirmations": null,
      "from": "0x42E5933c75679a24A4fE32Bee027D9db014076a9",
      "gasPrice": {
        "_hex": "0xd59aa3a9b"
      },
      "gasLimit": {
        "_hex": "0x7530"
      },
      "to": "0x2910543Af39abA0Cd09dBb2D50200b3E800A63D2",
      "value": {
        "_hex": "0x3afb087b876900000"
      },
      "nonce": 0,
      "data": "0x454e3651304d384252",
      "r": "0x3ab0b729c8f6b43b55cceeac73bae74fa13355c66e2139873e2020d85c4e0bcc",
      "s": "0x02e53b28f3318d8660715e9755526a0a88e494256811f343e2b0805022764d40",
      "v": 27,
      "creates": null,
      "raw": "0xf87680850d59aa3a9b827530942910543af39aba0cd09dbb2d50200b3e800a63d28903afb087b87690000089454e3651304d3842521ba03ab0b729c8f6b43b55cceeac73bae74fa13355c66e2139873e2020d85c4e0bcca002e53b28f3318d8660715e9755526a0a88e494256811f343e2b0805022764d40",
      "networkId": 0,
      "chainId": 0
    },
    {
      "hash": "0xfad0637d0cba224d36bc37f37d96d6cbc10a8fe4a642a50bacf31238bc854a44",
      "blockHash": "0x914c1eae486bdb77873b68deb855ad7140e505e00bd9e38ec058d30940d4be20",
      "blockNumber": 48115,
      "transactionIndex": 2,
      "confirmations": null,
      "from": "0x4Ca2bE31e663B55D31AE89189C50864ae7B5aC7d",
      "gasPrice": {
        "_hex": "0xcd96f1704"
      },
      "gasLimit": {
        "_hex": "0x5208"
      },
      "to": "0x32Be343B94f860124dC4fEe278FDCBD38C102D88",
      "value": {
        "_hex": "0xddc98a6e85fe800"
      },
      "nonce": 0,
      "data": "0x",
      "r": "0x899e544d7c5308a966f56cb4f4bbb8fb2e6c4df5ddf84fa48220094bbb7bef06",
      "s": "0x21231900a60da5594623fb55caf1039c749d4a8fc2ce0987675cc7f0d86fe1d1",
      "v": 27,
      "creates": null,
      "raw": "0xf86c80850cd96f17048252089432be343b94f860124dc4fee278fdcbd38c102d88880ddc98a6e85fe800801ba0899e544d7c5308a966f56cb4f4bbb8fb2e6c4df5ddf84fa48220094bbb7bef06a021231900a60da5594623fb55caf1039c749d4a8fc2ce0987675cc7f0d86fe1d1",
      "networkId": 0,
      "chainId": 0
    }
  ]
}