{
  "hash": "0x21dd09f0257763c7191799fb835f4db1eb82c58e846fbb91d4c7e72c3a5488e2",
  "parentHash": "0x2c00ec6eb094f099aa78dfc8a09c374efef034a8513c9f176332cb158900582f",
  "number": 105179,
  "timestamp": 1439883202,
  "nonce": "0x522865444975143c",
  "difficulty": 4314663371883,
  "gasLimit": {
    "_hex": "0x2fefd8"
  },
  "gasUsed": {
    "_hex": "0x546c"
  },
  "miner": "0x0eDEd3DA479d0beF8eeC92A76644D3f4E3C177f7",
  "extraData": "0x476574682f76312e302e312f6c696e75782f676f312e342e32",
  "transactions": [
    {
      "hash": "0x00c4144cb380117684ea184e6c48df42f8f12b66cca2a85e883d5aa5aacb4d7c",
      "blockHash": "0x21dd09f0257763c7191799fb835f4db1eb82c58e846fbb91d4c7e72c3a5488e2",
      "blockNumber": 105179,
      "transactionIndex": 0,
      "confirmations": null,
      "from": "0xC21fa6643A1F14C02996aD7144b75926E87ECb4B",
      "gasPrice": {
        "_hex": "0xe119c18ab"
      },
      "gasLimit": {
        "_hex": "0x55f0"
      },
      "to": "0x2910543Af39abA0Cd09dBb2D50200b3E800A63D2",
      "value": {
        "_hex": "0xde0b6b3a7640000"
      },
      "nonce": 3,
      "data": "0x454e43415255575738",
      "r": "0x537c92536ef821007b84ed622dd07082e79693adb84340fee729a51760f93930",
      "s": "0x6f4bfa41882598c915770398c0444c68a686240ff0c10630c310faf7760a0bd7",
      "v": 27,
      "creates": null,
      "raw": "0xf87503850e119c18ab8255f0942910543af39aba0cd09dbb2d50200b3e800a63d2880de0b6b3a764000089454e434152555757381ba0537c92536ef821007b84ed622dd07082e79693adb84340fee729a51760f93930a06f4bfa41882598c915770398c0444c68a686240ff0c10630c310faf7760a0bd7",
      "networkId": 0,
      "chainId": 0
    }
  ]
}