{
  "hash": "0x813d203cd2a87aea767a35744da66c0e55a0fab43c4f0510ff1152434cf11997",
  "parentHash": "0xa736659d3dc10b05175121e958aaaf97f3a4961815c46b15754c26ae0eca17e5",
  "number": 103944,
  "timestamp": 1439861521,
  "nonce": "0xcd67b2a3f85a0c48",
  "difficulty": 4267106922412,
  "gasLimit": {
    "_hex": "0x2fefd8"
  },
  "gasUsed": {
    "_hex": "0xa410"
  },
  "miner": "0x3D5292e9d2a2D31014717ff936A0F9375A5Cc8b7",
  "extraData": "0x476574682f76312e302e312f77696e646f77732f676f312e342e32",
  "transactions": [
    {
      "hash": "0xcbca3bc470759a4e628c6048ac0a9c1096849e1f6b8bd15e65cc59afa2b6dd5a",
      "blockHash": "0x813d203cd2a87aea767a35744da66c0e55a0fab43c4f0510ff1152434cf11997",
      "blockNumber": 103944,
      "transactionIndex": 0,
      "confirmations": null,
      "from": "0xb1abce2918E21ddb93AA452731a12672A3d9F75a",
      "gasPrice": {
        "_hex": "0xdb7680850"
      },
      "gasLimit": {
        "_hex": "0x5208"
      },
      "to": "0x32Be343B94f860124dC4fEe278FDCBD38C102D88",
      "value": {
        "_hex": "0x455f2c562ab73800"
      },
      "nonce": 127,
      "data": "0x",
      "r": "0x40d5aa484e704054a38f00e1b75b62880b1e4312b98d1ed1fe420a93ac3f73e5",
      "s": "0x57a9b5946c85ffc0342a4f23c1112682253b9720aafda3b8d934c1f3edb7556f",
      "v": 27,
      "creates": null,
      "raw": "0xf86c7f850db76808508252089432be343b94f860124dc4fee278fdcbd38c102d8888455f2c562ab73800801ba040d5aa484e704054a38f00e1b75b62880b1e4312b98d1ed1fe420a93ac3f73e5a057a9b5946c85ffc0342a4f23c1112682253b9720aafda3b8d934c1f3edb7556f",
      "networkId": 0,
      "chainId": 0
    },
    {
      "hash": "0x79db81f1939de55ac1248ac3fde837e57c0e787046328d9a149476e43e3cd723",
      "blockHash": "0x813d203cd2a87aea767a35744da66c0e55a0fab43c4f0510ff1152434cf11997",
      "blockNumber": 103944,
      "transactionIndex": 1,
      "confirmations": null,
      "from": "0x2910543Af39abA0Cd09dBb2D50200b3E800A63D2",
      "gasPrice": {
        "_hex": "0xcf886e8f7"
      },
      "gasLimit": {
        "_hex": "0x5208"
      },
      "to": "0x77b97786B0FB73e55d9E92d4B182beFBF346F979",
      "value": {
        "_hex": "0xdcef33a6f838000"
      },
      "nonce": 1012,
      "data": "0x",
      "r": "0xe27c3b13d691f5216eb7c7d1d12df717ab08a0ac1541a1c2a26fab1086b54e27",
      "s": "0x1c552abbd1f79480363ec932f43d906f36576c16a736a7ea9c15c198d22d6b10",
      "v": 27,
      "creates": null,
      "raw": "0xf86e8203f4850cf886e8f78252089477b97786b0fb73e55d9e92d4b182befbf346f979880dcef33a6f838000801ba0e27c3b13d691f5216eb7c7d1d12df717ab08a0ac1541a1c2a26fab1086b54e27a01c552abbd1f79480363ec932f43d906f36576c16a736a7ea9c15c198d22d6b10",
      "networkId": 0,
      "chainId": 0
    }
  ]
}