{
  "hash": "0xab788c6b1944e6372c49e420854a03cf9bbd9613c271bd66217a352ee2c118db",
  "parentHash": "0x58f366b05bf02c28307037571b4a6e0afeca84a374056b9327b581b278e11a28",
  "number": 100632,
  "timestamp": 1439809613,
  "nonce": "0x65ac2abb50551828",
  "difficulty": 3830259046276,
  "gasLimit": {
    "_hex": "0x2fefd8"
  },
  "gasUsed": {
    "_hex": "0xf618"
  },
  "miner": "0xe6A7a1d47ff21B6321162AEA7C6CB457D5476Bca",
  "extraData": "0x476574682f76312e302e312d38326566323666362f6c696e75782f676f312e34",
  "transactions": [
    {
      "hash": "0xdb1557152f9dcea4332067fc076f91ae097a2227acd99ae79509119034a403ef",
      "blockHash": "0xab788c6b1944e6372c49e420854a03cf9bbd9613c271bd66217a352ee2c118db",
      "blockNumber": 100632,
      "transactionIndex": 0,
      "confirmations": null,
      "from": "0xce8ff6d2027CA9837abb85FD515752151b6C7d0A",
      "gasPrice": {
        "_hex": "0xd495f3c50"
      },
      "gasLimit": {
        "_hex": "0x5208"
      },
      "to": "0x32Be343B94f860124dC4fEe278FDCBD38C102D88",
      "value": {
        "_hex": "0x82d15b78ed624000"
      },
      "nonce": 5,
      "data": "0x",
      "r": "0x86f098a85e13d9a43e850c4b26f80363de2889f29d372df6df2439ecf5b4325f",
      "s": "0x2a24dc01e70e61a7662cc3010f62c59b1a0ced1fd28886110fd40a23f53456e7",
      "v": 27,
      "creates": null,
      "raw": "0xf86c05850d495f3c508252089432be343b94f860124dc4fee278fdcbd38c102d888882d15b78ed624000801ba086f098a85e13d9a43e850c4b26f80363de2889f29d372df6df2439ecf5b4325fa02a24dc01e70e61a7662cc3010f62c59b1a0ced1fd28886110fd40a23f53456e7",
      "networkId": 0,
      "chainId": 0
    },
    {
      "hash": "0xc94c182c1d780c0d62c9e1c5ccb959a2fa454d0d315f0ce38b5a41720d2a3296",
      "blockHash": "0xab788c6b1944e6372c49e420854a03cf9bbd9613c271bd66217a352ee2c118db",
      "blockNumber": 100632,
      "transactionIndex": 1,
      "confirmations": null,
      "from": "0xF18446BCC37B179f7ccc3De19387269cE04023F1",
      "gasPrice": {
        "_hex": "0xd495f3c50"
      },
      "gasLimit": {
        "_hex": "0x5208"
      },
      "to": "0x32Be343B94f860124dC4fEe278FDCBD38C102D88",
      "value": {
        "_hex": "0x49eba1b69dd75c00"
      },
      "nonce": 5,
      "data": "0x",
      "r": "0x150e6322c302d48a691d16d479e264a21e96ebed50b4c4fbd102717af526bcfa",
      "s": "0x24e143e583740a3c26c631a5483b8d0b41d82b34c25f9749a905090321b6d999",
      "v": 28,
      "creates": null,
      "raw": "0xf86c05850d495f3c508252089432be343b94f860124dc4fee278fdcbd38c102d888849eba1b69dd75c00801ca0150e6322c302d48a691d16d479e264a21e96ebed50b4c4fbd102717af526bcfaa024e143e583740a3c26c631a5483b8d0b41d82b34c25f9749a905090321b6d999",
      "networkId": 0,
      "chainId": 0
    },
    {
      "hash": "0x9670a8edf3fccd42a291fca67eb96bd6405d370b1ed2f5a22022e378dd59a9f2",
      "blockHash": "0xab788c6b1944e6372c49e420854a03cf9bbd9613c271bd66217a352ee2c118db",
      "blockNumber": 100632,
      "transactionIndex": 2,
      "confirmations": null,
      "from": "0xFc8bc4ed86dF73001ce6082F3dB914d7c7A9a6cC",
      "gasPrice": {
        "_hex": "0xd495f3c50"
      },
      "gasLimit": {
        "_hex": "0x5208"
      },
      "to": "0x32Be343B94f860124dC4fEe278FDCBD38C102D88",
      "value": {
        "_hex": "0x10f2fe09e9b5eb000"
      },
      "nonce": 4,
      "data": "0x",
      "r": "0xe421b48a1a3a90e4fb34c60376a0ce8f9d5805439779123f4240877166a16261",
      "s": "0x328d2c74a1e8b2df8d3cb080438411907915c3b61a1d6c08d5619d482dc3aefe",
      "v": 28,
      "creates": null,
      "raw": "0xf86d04850d495f3c508252089432be343b94f860124dc4fee278fdcbd38c102d8889010f2fe09e9b5eb000801ca0e421b48a1a3a90e4fb34c60376a0ce8f9d5805439779123f4240877166a16261a0328d2c74a1e8b2df8d3cb080438411907915c3b61a1d6c08d5619d482dc3aefe",
      "networkId": 0,
      "chainId": 0
    }
  ]
}