{
  "hash": "0x0dfe470a91e78a442f5034d47a423d6fe71faf59761f4c3aea8b42dc8a53d279",
  "parentHash": "0xe81548d3ff6b023a01c24b57a394ac1f12f2744c24eb250e8db77eea84e61150",
  "number": 63589,
  "timestamp": 1439206922,
  "nonce": "0xd83c02077e39e1a3",
  "difficulty": 1837817483999,
  "gasLimit": {
    "_hex": "0x2fefd5"
  },
  "gasUsed": {
    "_hex": "0xa410"
  },
  "miner": "0x88D74a59454F6cF3B51ef6b9136AFb6b9D405A88",
  "extraData": "0x476574682f76312e302e312d37666266393930632f6c696e75782f676f312e34",
  "transactions": [
    {
      "hash": "0x42ed5d01848ca9946982a7d461b5b18b8a659adc059057f79287c5409c440021",
      "blockHash": "0x0dfe470a91e78a442f5034d47a423d6fe71faf59761f4c3aea8b42dc8a53d279",
      "blockNumber": 63589,
      "transactionIndex": 0,
      "confirmations": null,
      "from": "0x7a94B19992CeB8cE63BC92Ee4b5adeD10c4D9725",
      "gasPrice": {
        "_hex": "0xd7d40ace3"
      },
      "gasLimit": {
        "_hex": "0x15f90"
      },
      "to": "0x6ACfef6b58D6EE01D4BdB53CA81c5D6560824446",
      "value": {
        "_hex": "0xde0b6b3a7640000"
      },
      "nonce": 2,
      "data": "0x",
      "r": "0x271b75b5f5ad70d114c060fb912308550578287e5e9bd4d48cef5cb9493c9f6f",
      "s": "0x3cbe5b0db21a5eb9deec1a6ff58f407c62c397cc34c17e1f89519ff9c06596d8",
      "v": 27,
      "creates": null,
      "raw": "0xf86d02850d7d40ace383015f90946acfef6b58d6ee01d4bdb53ca81c5d6560824446880de0b6b3a7640000801ba0271b75b5f5ad70d114c060fb912308550578287e5e9bd4d48cef5cb9493c9f6fa03cbe5b0db21a5eb9deec1a6ff58f407c62c397cc34c17e1f89519ff9c06596d8",
      "networkId": 0,
      "chainId": 0
    },
    {
      "hash": "0xc6ae4e3f5078a76579fb41114de17e8644bd539d71275b5073498f31607b901f",
      "blockHash": "0x0dfe470a91e78a442f5034d47a423d6fe71faf59761f4c3aea8b42dc8a53d279",
      "blockNumber": 63589,
      "transactionIndex": 1,
      "confirmations": null,
      "from": "0x8030b111C6983F0485DDaCA76224C6180634789f",
      "gasPrice": {
        "_hex": "0xccbe88784"
      },
      "gasLimit": {
        "_hex": "0x15f90"
      },
      "to": "0x1a79c7f4039C67A39d7513884cDC0E2C34222490",
      "value": {
        "_hex": "0x636ace9b2c938"
      },
      "nonce": 2,
      "data": "0x",
      "r": "0x3f95f401e22da8c8ee14ddb3d2749cadd98ece84c4d003724cbdd9cb6dd062d1",
      "s": "0x13fdd47e51e082cb8e34ee790ba8028d5ac3de71d80f18c4a67c1bb55b0cc797",
      "v": 28,
      "creates": null,
      "raw": "0xf86c02850ccbe8878483015f90941a79c7f4039c67a39d7513884cdc0e2c34222490870636ace9b2c938801ca03f95f401e22da8c8ee14ddb3d2749cadd98ece84c4d003724cbdd9cb6dd062d1a013fdd47e51e082cb8e34ee790ba8028d5ac3de71d80f18c4a67c1bb55b0cc797",
      "networkId": 0,
      "chainId": 0
    }
  ]
}