{
  "hash": "0xa36fa9be6426a8e44cb8ae70cf0bc6177eca2568ba81e370cad68e1de767efdb",
  "parentHash": "0xb87edfecf9aabcdef50377c7652e1d7c57e7c5cb52099e7632d30214bc268e25",
  "number": 87582,
  "timestamp": 1439594454,
  "nonce": "0x0a2c2c19f5fb3d46",
  "difficulty": 3146359012409,
  "gasLimit": {
    "_hex": "0x2fefd8"
  },
  "gasUsed": {
    "_hex": "0x546c"
  },
  "miner": "0xe6A7a1d47ff21B6321162AEA7C6CB457D5476Bca",
  "extraData": "0x476574682f76312e302e312d38326566323666362f6c696e75782f676f312e34",
  "transactions": [
    {
      "hash": "0xc6b735ad5c81bf44389e469940b40fdfc09d5ac9f91ab8ff01340ed79f024a2c",
      "blockHash": "0xa36fa9be6426a8e44cb8ae70cf0bc6177eca2568ba81e370cad68e1de767efdb",
      "blockNumber": 87582,
      "transactionIndex": 0,
      "confirmations": null,
      "from": "0xCAfdE855864C2598da3cafC05Ad98dF2898E8048",
      "gasPrice": {
        "_hex": "0x110c8f7d8de"
      },
      "gasLimit": {
        "_hex": "0xc350"
      },
      "to": "0x2910543Af39abA0Cd09dBb2D50200b3E800A63D2",
      "value": {
        "_hex": "0x2ca6f5d92aa590c0000"
      },
      "nonce": 1,
      "data": "0x454e43595655375a52",
      "r": "0xf978aca6a892064559e81ff6b8b5d32e653b79128215467a513e2dca2edf88e8",
      "s": "0x575e33aa6ece8fac695aa3cff7b557081a9e29518661d29f75409ebdda9c3f28",
      "v": 28,
      "creates": null,
      "raw": "0xf87801860110c8f7d8de82c350942910543af39aba0cd09dbb2d50200b3e800a63d28a02ca6f5d92aa590c000089454e43595655375a521ca0f978aca6a892064559e81ff6b8b5d32e653b79128215467a513e2dca2edf88e8a0575e33aa6ece8fac695aa3cff7b557081a9e29518661d29f75409ebdda9c3f28",
      "networkId": 0,
      "chainId": 0
    }
  ]
}