{
  "hash": "0x87ceaae82e486b6bd37b75a829ae7ba80be06432ad0f25ca6c2267ae76d79e71",
  "parentHash": "0xb7fa8decd13cb518813b5bad7b479fe664e777ad6c77795887bd400917ed8a01",
  "number": 71909,
  "timestamp": 1439343854,
  "nonce": "0xbe9a90d3ffb67cd8",
  "difficulty": 2167560917633,
  "gasLimit": {
    "_hex": "0x2fefd8"
  },
  "gasUsed": {
    "_hex": "0xae73"
  },
  "miner": "0x6dC8a46AB80ED97E4073b96F78554A536E2e7152",
  "extraData": "0x",
  "transactions": [
    {
      "hash": "0xddc973a02e403b05c1f83aa89f67cd2d2a1dd4c94d56065e4e16dfba564a4a0c",
      "blockHash": "0x87ceaae82e486b6bd37b75a829ae7ba80be06432ad0f25ca6c2267ae76d79e71",
      "blockNumber": 71909,
      "transactionIndex": 0,
      "confirmations": null,
      "from": "0x17580B766f7453525ca4C6A88b01b50570EA088C",
      "gasPrice": {
        "_hex": "0xd3df70d46"
      },
      "gasLimit": {
        "_hex": "0x61a80"
      },
      "to": "0x5Fe5B7546D1628f7348B023A0393de1FC825A4fD",
      "value": {
        "_hex": "0x29a2241af62c0000"
      },
      "nonce": 293,
      "data": "0xb595b8b50000000000000000000000000000000000000000000000000000000000000000",
      "r": "0xbd56bd9bb59fd5e5ba25b2038e8732a602d53b56986ffd70e28f0490dbfd6697",
      "s": "0x0164aa059cf4835765ce8bbe9174d1d0f031af5f7379de9f8ea6769948721a3c",
      "v": 28,
      "creates": null,
      "raw": "0xf893820125850d3df70d4683061a80945fe5b7546d1628f7348b023a0393de1fc825a4fd8829a2241af62c0000a4b595b8b500000000000000000000000000000000000000000000000000000000000000001ca0bd56bd9bb59fd5e5ba25b2038e8732a602d53b56986ffd70e28f0490dbfd6697a00164aa059cf4835765ce8bbe9174d1d0f031af5f7379de9f8ea6769948721a3c",
      "networkId": 0,
      "chainId": 0
    }
  ]
}