{
  "hash": "0x23d89416ce54f7e69ffe69109cb8b13fe33630116df6cc2ab2deaf4bd8044e67",
  "parentHash": "0xe3f842f9159ad28a8e897acca000afab2baa3203aa8d429145e386a11d8eb0d4",
  "number": 52229,
  "timestamp": 1439018512,
  "nonce": "0xe80b7c3a7e2fd481",
  "difficulty": 1549694665766,
  "gasLimit": {
    "_hex": "0x117cff"
  },
  "gasUsed": {
    "_hex": "0xf4240"
  },
  "miner": "0x02020D22dCF88f5eDd66B382D7da019F161fB7e3",
  "extraData": "0x",
  "transactions": [
    {
      "hash": "0x522f9a8c5974bff053be4c554b29a8386915db9a18b055be7ee818fe9b288a6a",
      "blockHash": "0x23d89416ce54f7e69ffe69109cb8b13fe33630116df6cc2ab2deaf4bd8044e67",
      "blockNumber": 52229,
      "transactionIndex": 0,
      "confirmations": null,
      "from": "0xAd7F5C601260b460ADAC6A54411Ca6Cf07dC83c3",
      "gasPrice": {
        "_hex": "0xdaa36d5ae"
      },
      "gasLimit": {
        "_hex": "0x7a120"
      },
      "to": "0xBAA54d6E90c3F4d7Ebec11bD180134C7eD8eBb52",
      "value": {
        "_hex": "0x16345785d8a0000"
      },
      "nonce": 8,
      "data": "0x",
      "r": "0x94dc286a9b07487792aa542a91159eec51c997b46a35e620a38ec4f991529b42",
      "s": "0x33f0c331d4e6f0e3334a7cd9e81398625d0b2b0b5cb999f777174c672c653058",
      "v": 28,
      "creates": null,
      "raw": "0xf86d08850daa36d5ae8307a12094baa54d6e90c3f4d7ebec11bd180134c7ed8ebb5288016345785d8a0000801ca094dc286a9b07487792aa542a91159eec51c997b46a35e620a38ec4f991529b42a033f0c331d4e6f0e3334a7cd9e81398625d0b2b0b5cb999f777174c672c653058",
      "networkId": 0,
      "chainId": 0
    },
    {
      "hash": "0xe5157c23abd16ed1e44dd5b2341ce2cecf0d80f1f338e6a676270039c0f294fe",
      "blockHash": "0x23d89416ce54f7e69ffe69109cb8b13fe33630116df6cc2ab2deaf4bd8044e67",
      "blockNumber": 52229,
      "transactionIndex": 1,
      "confirmations": null,
      "from": "0xAd7F5C601260b460ADAC6A54411Ca6Cf07dC83c3",
      "gasPrice": {
        "_hex": "0xdaa36d5ae"
      },
      "gasLimit": {
        "_hex": "0x7a120"
      },
      "to": "0xBAA54d6E90c3F4d7Ebec11bD180134C7eD8eBb52",
      "value": {
        "_hex": "0x16345785d8a0000"
      },
      "nonce": 9,
      "data": "0x",
      "r": "0xd8715026c8f721d1c0fbfc868f6befc5e9ea00b4faaaa19a8c83c538f8ca0a87",
      "s": "0x6a7b8754368d20080f782e212f12be683d060e702dc2b975936b2be92aa28d6a",
      "v": 27,
      "creates": null,
      "raw": "0xf86d09850daa36d5ae8307a12094baa54d6e90c3f4d7ebec11bd180134c7ed8ebb5288016345785d8a0000801ba0d8715026c8f721d1c0fbfc868f6befc5e9ea00b4faaaa19a8c83c538f8ca0a87a06a7b8754368d20080f782e212f12be683d060e702dc2b975936b2be92aa28d6a",
      "networkId": 0,
      "chainId": 0
    }
  ]
}