{
  "hash": "0xa6cf676ca9c9d28609794c96cebf7385f25a674efc7256ea31803a4ccc5e704e",
  "parentHash": "0x30ab7ff58165c6e8a26390e180b79cbb056e0a9fa51c6e2c94dfa52c40a48628",
  "number": 80713,
  "timestamp": 1439489616,
  "nonce": "0x09197e1a28dc5bbf",
  "difficulty": 2439257403072,
  "gasLimit": {
    "_hex": "0x2fefd5"
  },
  "gasUsed": {
    "_hex": "0xf618"
  },
  "miner": "0xbb7B8287f3F0a933474a79eAe42CBCa977791171",
  "extraData": "0x476574682f4c5649562f76312e302e312f6c696e75782f676f312e342e32",
  "transactions": [
    {
      "hash": "0x5448d4c37e460e33399b09d29cacb47c813f5eae43f3796b2c22da61206b7ed3",
      "blockHash": "0xa6cf676ca9c9d28609794c96cebf7385f25a674efc7256ea31803a4ccc5e704e",
      "blockNumber": 80713,
      "transactionIndex": 0,
      "confirmations": null,
      "from": "0x2910543Af39abA0Cd09dBb2D50200b3E800A63D2",
      "gasPrice": {
        "_hex": "0xd0987645f"
      },
      "gasLimit": {
        "_hex": "0x5208"
      },
      "to": "0x0e320219838E859b2F9f18B72e3d4073cA50B37D",
      "value": {
        "_hex": "0x3635b7ea4ca6bf8000"
      },
      "nonce": 400,
      "data": "0x",
      "r": "0x99d5fce2439b08f8bb4244ba1cd6832b95b5f23318260baf9c63c1ebc868bd5e",
      "s": "0x065c7df00b90722e1c609e7da5bbf707ec52d0f1b09d0d76f7ef55d7cf96eadf",
      "v": 28,
      "creates": null,
      "raw": "0xf86f820190850d0987645f825208940e320219838e859b2f9f18b72e3d4073ca50b37d893635b7ea4ca6bf8000801ca099d5fce2439b08f8bb4244ba1cd6832b95b5f23318260baf9c63c1ebc868bd5ea0065c7df00b90722e1c609e7da5bbf707ec52d0f1b09d0d76f7ef55d7cf96eadf",
      "networkId": 0,
      "chainId": 0
    },
    {
      "hash": "0xa456533b58b473a8ef9190effb7a4c907821090079e88aa48cd65a937e29c2f4",
      "blockHash": "0xa6cf676ca9c9d28609794c96cebf7385f25a674efc7256ea31803a4ccc5e704e",
      "blockNumber": 80713,
      "transactionIndex": 1,
      "confirmations": null,
      "from": "0x94eB205EE2F7789d4C920a155769108B65B51b46",
      "gasPrice": {
        "_hex": "0xba43b7400"
      },
      "gasLimit": {
        "_hex": "0x5208"
      },
      "to": "0xC47Aaa860008be6f65B58c6C6E02a84e666EfE31",
      "value": {
        "_hex": "0x1e831013ba1fc00"
      },
      "nonce": 0,
      "data": "0x",
      "r": "0xf555ad678d8b3c334368e304c6530f208f7c9b0a47235eb8b3cd5189fdd1edb0",
      "s": "0x5a59f1b45744d0b7d00023637ee90ee3678acf6c9d27ba6eaba2bd092aabedc2",
      "v": 28,
      "creates": null,
      "raw": "0xf86c80850ba43b740082520894c47aaa860008be6f65b58c6c6e02a84e666efe318801e831013ba1fc00801ca0f555ad678d8b3c334368e304c6530f208f7c9b0a47235eb8b3cd5189fdd1edb0a05a59f1b45744d0b7d00023637ee90ee3678acf6c9d27ba6eaba2bd092aabedc2",
      "networkId": 0,
      "chainId": 0
    },
    {
      "hash": "0x500f98805298b35713d28a4b72f32f0f115e907b90da7c3ca665ebdc28a1f9ce",
      "blockHash": "0xa6cf676ca9c9d28609794c96cebf7385f25a674efc7256ea31803a4ccc5e704e",
      "blockNumber": 80713,
      "transactionIndex": 2,
      "confirmations": null,
      "from": "0xcf41dDE715EF1162386575F0d21d9172Dcd1b291",
      "gasPrice": {
        "_hex": "0xba43b7400"
      },
      "gasLimit": {
        "_hex": "0x5208"
      },
      "to": "0xC47Aaa860008be6f65B58c6C6E02a84e666EfE31",
      "value": {
        "_hex": "0x3bd69fc8181201dc0"
      },
      "nonce": 1,
      "data": "0x",
      "r": "0x5e808c720c024e10771c74c9fbd59a337125cf68452811b98711b649d1b80db5",
      "s": "0x0e87e015100f07ded16a4b4900d39e18ad45c4af5c96a78aa6305bbc1292807b",
      "v": 27,
      "creates": null,
      "raw": "0xf86d01850ba43b740082520894c47aaa860008be6f65b58c6c6e02a84e666efe318903bd69fc8181201dc0801ba05e808c720c024e10771c74c9fbd59a337125cf68452811b98711b649d1b80db5a00e87e015100f07ded16a4b4900d39e18ad45c4af5c96a78aa6305bbc1292807b",
      "networkId": 0,
      "chainId": 0
    }
  ]
}