{
  "hash": "0xcb7b1a3e797a9ffcc869479faa79dfd19131dcd78dedc2b80939ae3a51d43f07",
  "parentHash": "0xe3d24cd70e0ceef9414a401a92e6fe8457d12a352eba251c1768555a001fd437",
  "number": 121709,
  "timestamp": 1440181262,
  "nonce": "0x6653ed804b21dc97",
  "difficulty": 4495233133489,
  "gasLimit": {
    "_hex": "0x2fefd8"
  },
  "gasUsed": {
    "_hex": "0x29040"
  },
  "miner": "0x17B719A685fC6C0002798e7f8151D0E2E83B7497",
  "extraData": "0x",
  "transactions": [
    {
      "hash": "0x7a30b306db8a1373e0954b56d50e466df7a9ed6dee6d72f29c2b3ec3fb40ec16",
      "blockHash": "0xcb7b1a3e797a9ffcc869479faa79dfd19131dcd78dedc2b80939ae3a51d43f07",
      "blockNumber": 121709,
      "transactionIndex": 0,
      "confirmations": null,
      "from": "0x563e085b6739fd86ac81775dd9867Bac0c489b6A",
      "gasPrice": {
        "_hex": "0xda2a524f3"
      },
      "gasLimit": {
        "_hex": "0x5208"
      },
      "to": "0x32Be343B94f860124dC4fEe278FDCBD38C102D88",
      "value": {
        "_hex": "0x51a90b11fb9d4000"
      },
      "nonce": 5,
      "data": "0x",
      "r": "0xb9453987ea224bab515fca912358f89d010d0a1176fea4ab9ecf5c639f177132",
      "s": "0x7b4fe89c6aeabaa3281d6fab3a53958be8209fa34d1899d1c3ea729401841738",
      "v": 28,
      "creates": null,
      "raw": "0xf86c05850da2a524f38252089432be343b94f860124dc4fee278fdcbd38c102d888851a90b11fb9d4000801ca0b9453987ea224bab515fca912358f89d010d0a1176fea4ab9ecf5c639f177132a07b4fe89c6aeabaa3281d6fab3a53958be8209fa34d1899d1c3ea729401841738",
      "networkId": 0,
      "chainId": 0
    },
    {
      "hash": "0x21441c83ef3d4c5b4e90ed41a0b3115d3d05a46cb32446856d69632e3460a825",
      "blockHash": "0xcb7b1a3e797a9ffcc869479faa79dfd19131dcd78dedc2b80939ae3a51d43f07",
      "blockNumber": 121709,
      "transactionIndex": 1,
      "confirmations": null,
      "from": "0x557C2806B6ceA65a66F415bb2Ed1ce897B340745",
      "gasPrice": {
        "_hex": "0xda2a524f3"
      },
      "gasLimit": {
        "_hex": "0x5208"
      },
      "to": "0x32Be343B94f860124dC4fEe278FDCBD38C102D88",
      "value": {
        "_hex": "0x2b5df5090953f4000"
      },
      "nonce": 15,
      "data": "0x",
      "r": "0x94b8bc90918739dd9186de82a3a1386326b403fba2f8ade8b9b716af9966438b",
      "s": "0x7724b3e66457a27d5dc4e6ae0be4b9c212b195157a89a1ee67083b3d40013383",
      "v": 27,
      "creates": null,
      "raw": "0xf86d0f850da2a524f38252089432be343b94f860124dc4fee278fdcbd38c102d888902b5df5090953f4000801ba094b8bc90918739dd9186de82a3a1386326b403fba2f8ade8b9b716af9966438ba07724b3e66457a27d5dc4e6ae0be4b9c212b195157a89a1ee67083b3d40013383",
      "networkId": 0,
      "chainId": 0
    },
    {
      "hash": "0xed37a9fb9399495c556f703bcaeaae84afed1d11daa8f06c1cf9bc632f67c2da",
      "blockHash": "0xcb7b1a3e797a9ffcc869479faa79dfd19131dcd78dedc2b80939ae3a51d43f07",
      "blockNumber": 121709,
      "transactionIndex": 2,
      "confirmations": null,
      "from": "0x0EDcC8702211F285ca090EF919b6EFF6C2E92eB0",
      "gasPrice": {
        "_hex": "0xda2a524f3"
      },
      "gasLimit": {
        "_hex": "0x5208"
      },
      "to": "0x32Be343B94f860124dC4fEe278FDCBD38C102D88",
      "value": {
        "_hex": "0x6784ff9568739800"
      },
      "nonce": 2,
      "data": "0x",
      "r": "0x7e0e71eba5c7cd6fd6b51ff439e06d4f78dc9e5eb971a0fc5c9569281ed6edea",
      "s": "0x106fe6985e08e699d16821c577966f1ce9623e96dabf709ea73c2a9091e49fe7",
      "v": 27,
      "creates": null,
      "raw": "0xf86c02850da2a524f38252089432be343b94f860124dc4fee278fdcbd38c102d88886784ff9568739800801ba07e0e71eba5c7cd6fd6b51ff439e06d4f78dc9e5eb971a0fc5c9569281ed6edeaa0106fe6985e08e699d16821c577966f1ce9623e96dabf709ea73c2a9091e49fe7",
      "networkId": 0,
      "chainId": 0
    },
    {
      "hash": "0x6eab0f7fa1c51824a06a537291c03df1159a68d6529a74b1204a7a1fb812e389",
      "blockHash": "0xcb7b1a3e797a9ffcc869479faa79dfd19131dcd78dedc2b80939ae3a51d43f07",
      "blockNumber": 121709,
      "transactionIndex": 3,
      "confirmations": null,
      "from": "0x31191beEB5a3d7f5eBC5B193e98bd15ce10Eb249",
      "gasPrice": {
        "_hex": "0xda2a524f3"
      },
      "gasLimit": {
        "_hex": "0x5208"
      },
      "to": "0x32Be343B94f860124dC4fEe278FDCBD38C102D88",
      "value": {
        "_hex": "0x3fba0600ab384400"
      },
      "nonce": 6,
      "data": "0x",
      "r": "0x7ceb5cde8d293856a38f3075b71eef03293dfa5848dc3fcf6abf05c7712281ad",
      "s": "0x7dff10017738aa1a371d223693cb13d5cbc062043274f8196c9ab4b5c9869231",
      "v": 28,
      "creates": null,
      "raw": "0xf86c06850da2a524f38252089432be343b94f860124dc4fee278fdcbd38c102d88883fba0600ab384400801ca07ceb5cde8d293856a38f3075b71eef03293dfa5848dc3fcf6abf05c7712281ada07dff10017738aa1a371d223693cb13d5cbc062043274f8196c9ab4b5c9869231",
      "networkId": 0,
      "chainId": 0
    },
    {
      "hash": "0xce57cd2a45e37e926c2bd2b6f8282312d44572aa82b2c34f18e7e0714e6f0223",
      "blockHash": "0xcb7b1a3e797a9ffcc869479faa79dfd19131dcd78dedc2b80939ae3a51d43f07",
      "blockNumber": 121709,
      "transactionIndex": 4,
      "confirmations": null,
      "from": "0x10d50b62A87413dFD8b111398613F2eB8d819f6C",
      "gasPrice": {
        "_hex": "0xda2a524f3"
      },
      "gasLimit": {
        "_hex": "0x5208"
      },
      "to": "0x32Be343B94f860124dC4fEe278FDCBD38C102D88",
      "value": {
        "_hex": "0xe3b9fcdc3434e800"
      },
      "nonce": 6,
      "data": "0x",
      "r": "0x752c8f3289d3a1f9f11677c51b9109d94cea21509ab8b0ea7c665138fd08f59c",
      "s": "0x6976ae313b3ca20315729d117558b0384ad87ed7c37cb03c28a1dbf5529258e2",
      "v": 28,
      "creates": null,
      "raw": "0xf86c06850da2a524f38252089432be343b94f860124dc4fee278fdcbd38c102d8888e3b9fcdc3434e800801ca0752c8f3289d3a1f9f11677c51b9109d94cea21509ab8b0ea7c665138fd08f59ca06976ae313b3ca20315729d117558b0384ad87ed7c37cb03c28a1dbf5529258e2",
      "networkId": 0,
      "chainId": 0
    },
    {
      "hash": "0x9ca7e3f5f845766dfffd2b59db21452788ebf6220cf7c8a05e9a686d0e49f34b",
      "blockHash": "0xcb7b1a3e797a9ffcc869479faa79dfd19131dcd78dedc2b80939ae3a51d43f07",
      "blockNumber": 121709,
      "transactionIndex": 5,
      "confirmations": null,
      "from": "0x569dD5Eb83f3CEc4AD32BbCF28b0d07A98704105",
      "gasPrice": {
        "_hex": "0xda2a524f3"
      },
      "gasLimit": {
        "_hex": "0x5208"
      },
      "to": "0x32Be343B94f860124dC4fEe278FDCBD38C102D88",
      "value": {
        "_hex": "0x422ac0307c367c00"
      },
      "nonce": 4,
      "data": "0x",
      "r": "0xbaeaafcac0127d486d8328720a7714eaf8ac59881285483f15016dd55d80a9e9",
      "s": "0x1080bffb2553bccd2e240d8bfd79bbf597581a606a2d612a82dc1d8c37554aaa",
      "v": 28,
      "creates": null,
      "raw": "0xf86c04850da2a524f38252089432be343b94f860124dc4fee278fdcbd38c102d8888422ac0307c367c00801ca0baeaafcac0127d486d8328720a7714eaf8ac59881285483f15016dd55d80a9e9a01080bffb2553bccd2e240d8bfd79bbf597581a606a2d612a82dc1d8c37554aaa",
      "networkId": 0,
      "chainId": 0
    },
    {
      "hash": "0x3fac5719cc5c1b33890f075b4ab7aed72dc48051024b3885ffe99128dffea943",
      "blockHash": "0xcb7b1a3e797a9ffcc869479faa79dfd19131dcd78dedc2b80939ae3a51d43f07",
      "blockNumber": 121709,
      "transactionIndex": 6,
      "confirmations": null,
      "from": "0xb4c8A15086d7c2E2aa5506FF51e34e3E23d053a7",
      "gasPrice": {
        "_hex": "0xda2a524f3"
      },
      "gasLimit": {
        "_hex": "0x5208"
      },
      "to": "0x32Be343B94f860124dC4fEe278FDCBD38C102D88",
      "value": {
        "_hex": "0x128d1112148132000"
      },
      "nonce": 3,
      "data": "0x",
      "r": "0xbb4699e007ecf05df3f10d858e49949abf5def6565d60736881ee021bbeb2b9b",
      "s": "0x48a6283dd47bb816e0cb188d7dbf97b1daedaf5e5647c43f14c1b84fa31fb667",
      "v": 28,
      "creates": null,
      "raw": "0xf86d03850da2a524f38252089432be343b94f860124dc4fee278fdcbd38c102d88890128d1112148132000801ca0bb4699e007ecf05df3f10d858e49949abf5def6565d60736881ee021bbeb2b9ba048a6283dd47bb816e0cb188d7dbf97b1daedaf5e5647c43f14c1b84fa31fb667",
      "networkId": 0,
      "chainId": 0
    },
    {
      "hash": "0x5d044600b8325cfde766bb6a7fa7107caa6a2732f5d83372ccbf93bf131cc820",
      "blockHash": "0xcb7b1a3e797a9ffcc869479faa79dfd19131dcd78dedc2b80939ae3a51d43f07",
      "blockNumber": 121709,
      "transactionIndex": 7,
      "confirmations": null,
      "from": "0xAa37b1200B856ce897a85b9C2b11a8213095Bf2a",
      "gasPrice": {
        "_hex": "0xda2a524f3"
      },
      "gasLimit": {
        "_hex": "0x5208"
      },
      "to": "0x32Be343B94f860124dC4fEe278FDCBD38C102D88",
      "value": {
        "_hex": "0x1b73de015b11b4000"
      },
      "nonce": 5,
      "data": "0x",
      "r": "0xf18c33d577fc5f7b1792e31845df6e0a1d37160a48708df0779f63a90b5a6ae5",
      "s": "0x5e14b6b9cd2287b2f8ae30992b77b146fd3d25498a1332162fc7810c03341f77",
      "v": 28,
      "creates": null,
      "raw": "0xf86d05850da2a524f38252089432be343b94f860124dc4fee278fdcbd38c102d888901b73de015b11b4000801ca0f18c33d577fc5f7b1792e31845df6e0a1d37160a48708df0779f63a90b5a6ae5a05e14b6b9cd2287b2f8ae30992b77b146fd3d25498a1332162fc7810c03341f77",
      "networkId": 0,
      "chainId": 0
    }
  ]
}