{
  "hash": "0x723b735661fb7aa19de8456e5395b302d3102a7c559092a03f2bd58c876f0ede",
  "parentHash": "0xd91595b71b9292447f1889b33a067fb19ef9d06fbd01a4753da9cc72f5fc51c8",
  "number": 115326,
  "timestamp": 1440055299,
  "nonce": "0xfd75cf6613f0367a",
  "difficulty": 4553906685900,
  "gasLimit": {
    "_hex": "0x2fefd8"
  },
  "gasUsed": {
    "_hex": "0x5208"
  },
  "miner": "0x580992B51e3925e23280EfB93d3047C82f17E038",
  "extraData": "0x476574682f76312e302e312f6c696e75782f676f312e342e32",
  "transactions": [
    {
      "hash": "0x4339d74fb8c2bcfea7f08a87b6c13dd0114ce6498878194803c1ba37f202ae64",
      "blockHash": "0x723b735661fb7aa19de8456e5395b302d3102a7c559092a03f2bd58c876f0ede",
      "blockNumber": 115326,
      "transactionIndex": 0,
      "confirmations": null,
      "from": "0x027698B61229ECCa19311e977ADE3C2923D4e414",
      "gasPrice": {
        "_hex": "0xd5bd175de"
      },
      "gasLimit": {
        "_hex": "0x5208"
      },
      "to": "0x32Be343B94f860124dC4fEe278FDCBD38C102D88",
      "value": {
        "_hex": "0x3d15d00281293000"
      },
      "nonce": 10,
      "data": "0x",
      "r": "0x715e204306d39eb0d104f74a164cd88facfda550f6da556d7bc80f3d3b26f264",
      "s": "0x16397af2185413d3b837812e69835fa7c31a70cb2c0cac903c417512c15feb8d",
      "v": 28,
      "creates": null,
      "raw": "0xf86c0a850d5bd175de8252089432be343b94f860124dc4fee278fdcbd38c102d88883d15d00281293000801ca0715e204306d39eb0d104f74a164cd88facfda550f6da556d7bc80f3d3b26f264a016397af2185413d3b837812e69835fa7c31a70cb2c0cac903c417512c15feb8d",
      "networkId": 0,
      "chainId": 0
    }
  ]
}