{
  "hash": "0x1871f64fccf031aab57c320c82d073754d515fb43cc62a6864284fc0e083f889",
  "parentHash": "0x01949b5b496b0e0407bb517b86915ddfc95e41d1c80c2e8c48306d24a50a95a9",
  "number": 109178,
  "timestamp": 1439952159,
  "nonce": "0xe54b23d4fafdd70d",
  "difficulty": 4456026440848,
  "gasLimit": {
    "_hex": "0x2fefd8"
  },
  "gasUsed": {
    "_hex": "0x5208"
  },
  "miner": "0xf927a40C8B7F6E07c5af7FA2155B4864a4112B13",
  "extraData": "0x",
  "transactions": [
    {
      "hash": "0xa0601c7fa0cc9433e62dba708342275a5a4464db8ad5613ba0da5de58ed2e820",
      "blockHash": "0x1871f64fccf031aab57c320c82d073754d515fb43cc62a6864284fc0e083f889",
      "blockNumber": 109178,
      "transactionIndex": 0,
      "confirmations": null,
      "from": "0x34d34F0a638F6991e4E2536F41295DF6E934A646",
      "gasPrice": {
        "_hex": "0xdc11a52b4"
      },
      "gasLimit": {
        "_hex": "0x5208"
      },
      "to": "0x32Be343B94f860124dC4fEe278FDCBD38C102D88",
      "value": {
        "_hex": "0x8ac2babc27c8a000"
      },
      "nonce": 21,
      "data": "0x",
      "r": "0x04b1457ecb482eb3e534999278cd2164a6717265fe3791a999766d1303139699",
      "s": "0x7b6524e4150f793b599fbced919820a8c38ebdf8c33c26160877d37f6ae78a9a",
      "v": 28,
      "creates": null,
      "raw": "0xf86c15850dc11a52b48252089432be343b94f860124dc4fee278fdcbd38c102d88888ac2babc27c8a000801ca004b1457ecb482eb3e534999278cd2164a6717265fe3791a999766d1303139699a07b6524e4150f793b599fbced919820a8c38ebdf8c33c26160877d37f6ae78a9a",
      "networkId": 0,
      "chainId": 0
    }
  ]
}