{
  "hash": "0x417a0f55f1f96f789a45b2226ab225efff82361a54034e4130c32679cad43413",
  "parentHash": "0xb1b04780202786f92b5e8554b9a794596af6cd94f31ed2a52b46d558266ec7c7",
  "number": 63120,
  "timestamp": 1439199524,
  "nonce": "0x1047e1d077a65373",
  "difficulty": 1801491790070,
  "gasLimit": {
    "_hex": "0x2fefd8"
  },
  "gasUsed": {
    "_hex": "0x5208"
  },
  "miner": "0x63BBedc46A1113Ba7938CF7C18CCb5Aed20eC733",
  "extraData": "0x",
  "transactions": [
    {
      "hash": "0x597c30810875c431a3ab4e7a4543f14cd1ffb8338968eaa09bb1d2160e3900e0",
      "blockHash": "0x417a0f55f1f96f789a45b2226ab225efff82361a54034e4130c32679cad43413",
      "blockNumber": 63120,
      "transactionIndex": 0,
      "confirmations": null,
      "from": "0xCF336585500343e6Bd562504cC90D9E319037f31",
      "gasPrice": {
        "_hex": "0xd932dbdf5"
      },
      "gasLimit": {
        "_hex": "0x15f90"
      },
      "to": "0x95294A47790e9f95A51C0f4E89327d6Fd83f227d",
      "value": {
        "_hex": "0xde0b6b3a7640000"
      },
      "nonce": 1,
      "data": "0x",
      "r": "0x16786fb1a5613b11ba8f8a14ca327b98a34edf62908822f93d50d80b43c8c5e3",
      "s": "0x4b380f93c434db16abc4213fddd734678b0d1526a0474b208043ccdc78a5ef47",
      "v": 28,
      "creates": null,
      "raw": "0xf86d01850d932dbdf583015f909495294a47790e9f95a51c0f4e89327d6fd83f227d880de0b6b3a7640000801ca016786fb1a5613b11ba8f8a14ca327b98a34edf62908822f93d50d80b43c8c5e3a04b380f93c434db16abc4213fddd734678b0d1526a0474b208043ccdc78a5ef47",
      "networkId": 0,
      "chainId": 0
    }
  ]
}