{
  "hash": "0xa8db0296bb8620be713c7beb29b6c7969242fb3ac6555063eff7bf92d5fa7588",
  "parentHash": "0xd77330be1be5edd27ff0daec70bae5cb92b0b13440cbfa0b04badfde049cd868",
  "number": 56718,
  "timestamp": 1439091410,
  "nonce": "0xc0a5da99563c2342",
  "difficulty": 1691983829941,
  "gasLimit": {
    "_hex": "0x2fefd8"
  },
  "gasUsed": {
    "_hex": "0x5208"
  },
  "miner": "0xEF247E639d49461D25F57e9362CadE3120910Ce0",
  "extraData": "0x476574682f76312e302e312f6c696e75782f676f312e342e32",
  "transactions": [
    {
      "hash": "0x460283ff27a5070184e0a1019371295fccc7e67565e4769ca20bb2358ff947c1",
      "blockHash": "0xa8db0296bb8620be713c7beb29b6c7969242fb3ac6555063eff7bf92d5fa7588",
      "blockNumber": 56718,
      "transactionIndex": 0,
      "confirmations": null,
      "from": "0x1308A2e95c0160B90803ddCA9B9a5bb55E416d79",
      "gasPrice": {
        "_hex": "0xe8d4a51000"
      },
      "gasLimit": {
        "_hex": "0x15f90"
      },
      "to": "0x7266c8FD66eD582bEA23bd8BC48E58D7f17321F3",
      "value": {
        "_hex": "0x56bc75e2d63100000"
      },
      "nonce": 71,
      "data": "0x",
      "r": "0x7d1b97b75f9f6801575fd917ae3402cd119224ec6ad8771dfa7fd71da0f53713",
      "s": "0x764c633f6b21e42e8ef7d729b2ea7812e43ec8090f551bfd69a8cf7ec3b8cd5a",
      "v": 28,
      "creates": null,
      "raw": "0xf86e4785e8d4a5100083015f90947266c8fd66ed582bea23bd8bc48e58d7f17321f389056bc75e2d63100000801ca07d1b97b75f9f6801575fd917ae3402cd119224ec6ad8771dfa7fd71da0f53713a0764c633f6b21e42e8ef7d729b2ea7812e43ec8090f551bfd69a8cf7ec3b8cd5a",
      "networkId": 0,
      "chainId": 0
    }
  ]
}