{
  "hash": "0xf9fd79ebd439f17f8b230bb00aa4ac181f6cfd3a210725e21a6c11f74c67609b",
  "parentHash": "0xc5d46d6c427b829e5a36041a46dbfe277f63aa5612d4eb8968b8513d3477764c",
  "number": 79611,
  "timestamp": 1439472519,
  "nonce": "0xebaebe7a8791b9f2",
  "difficulty": 2341541306179,
  "gasLimit": {
    "_hex": "0x2fefd8"
  },
  "gasUsed": {
    "_hex": "0xf87c"
  },
  "miner": "0xe6A7a1d47ff21B6321162AEA7C6CB457D5476Bca",
  "extraData": "0x476574682f76312e302e312d38326566323666362f6c696e75782f676f312e34",
  "transactions": [
    {
      "hash": "0x5f1ea6ff701c9524859811bcbb866da451953ea1be4fa85deaa9d2d7046e7802",
      "blockHash": "0xf9fd79ebd439f17f8b230bb00aa4ac181f6cfd3a210725e21a6c11f74c67609b",
      "blockNumber": 79611,
      "transactionIndex": 0,
      "confirmations": null,
      "from": "0x8156360BBd370961ceCa6B6691D75006Ad204Cf2",
      "gasPrice": {
        "_hex": "0xd6e1fce22"
      },
      "gasLimit": {
        "_hex": "0x7530"
      },
      "to": "0x2910543Af39abA0Cd09dBb2D50200b3E800A63D2",
      "value": {
        "_hex": "0x8ac7230489e80000"
      },
      "nonce": 1,
      "data": "0x454e50393935473647",
      "r": "0x3c9258f5fd6988929e7e991bfa20823cf462778b884fde18e7ae8d66e5a23d95",
      "s": "0x195ec5b23c36716601f5476bf302518ff47f7eed5754c8dfbebfe7f5490eb625",
      "v": 27,
      "creates": null,
      "raw": "0xf87501850d6e1fce22827530942910543af39aba0cd09dbb2d50200b3e800a63d2888ac7230489e8000089454e503939354736471ba03c9258f5fd6988929e7e991bfa20823cf462778b884fde18e7ae8d66e5a23d95a0195ec5b23c36716601f5476bf302518ff47f7eed5754c8dfbebfe7f5490eb625",
      "networkId": 0,
      "chainId": 0
    },
    {
      "hash": "0x9755cd331f802ca9b7d12f1a8045f5bf8c7479b2fae1b44c1589428e2c942079",
      "blockHash": "0xf9fd79ebd439f17f8b230bb00aa4ac181f6cfd3a210725e21a6c11f74c67609b",
      "blockNumber": 79611,
      "transactionIndex": 1,
      "confirmations": null,
      "from": "0x32Be343B94f860124dC4fEe278FDCBD38C102D88",
      "gasPrice": {
        "_hex": "0xcdff873e4"
      },
      "gasLimit": {
        "_hex": "0x5208"
      },
      "to": "0x212679E921695cdCEC3694aa33FbB158Aa1A3c84",
      "value": {
        "_hex": "0x56ba3d73af34f0000"
      },
      "nonce": 453,
      "data": "0x",
      "r": "0x1908ebb7ce28c59ba5db04ef9063451eae871ba810f8a411bf5474c477fd75e3",
      "s": "0x13ed8dbf3fd35c93fe2b9f5a325506585c960f6f99fc46b2b32d498fe6d5a109",
      "v": 27,
      "creates": null,
      "raw": "0xf86f8201c5850cdff873e482520894212679e921695cdcec3694aa33fbb158aa1a3c8489056ba3d73af34f0000801ba01908ebb7ce28c59ba5db04ef9063451eae871ba810f8a411bf5474c477fd75e3a013ed8dbf3fd35c93fe2b9f5a325506585c960f6f99fc46b2b32d498fe6d5a109",
      "networkId": 0,
      "chainId": 0
    },
    {
      "hash": "0x1bb9348788dd0d10d0f41406bdaee4b5ef42b14ca376c98217653c85723adc7d",
      "blockHash": "0xf9fd79ebd439f17f8b230bb00aa4ac181f6cfd3a210725e21a6c11f74c67609b",
      "blockNumber": 79611,
      "transactionIndex": 2,
      "confirmations": null,
      "from": "0x32Be343B94f860124dC4fEe278FDCBD38C102D88",
      "gasPrice": {
        "_hex": "0xcdff873e4"
      },
      "gasLimit": {
        "_hex": "0x5208"
      },
      "to": "0xCaf1C12c783fCcC4066e87a376F94518141dEF80",
      "value": {
        "_hex": "0x1ca5ea7a4001a6000"
      },
      "nonce": 454,
      "data": "0x",
      "r": "0xe8f872c550108dd001b8bffe0ea4acd01b82292678579d638c8e489c078f9d2d",
      "s": "0x52884b1934049e85bdc8a18caa9fb88249ffb2cd6a53bb4420b9861daf648949",
      "v": 27,
      "creates": null,
      "raw": "0xf86f8201c6850cdff873e482520894caf1c12c783fccc4066e87a376f94518141def808901ca5ea7a4001a6000801ba0e8f872c550108dd001b8bffe0ea4acd01b82292678579d638c8e489c078f9d2da052884b1934049e85bdc8a18caa9fb88249ffb2cd6a53bb4420b9861daf648949",
      "networkId": 0,
      "chainId": 0
    }
  ]
}