{
  "hash": "0x454b45436b1d1d1b5f7a8724d5d9c46291b3517bd31a784d7d43dc42f8ea33da",
  "parentHash": "0x9a1b026a80e695fe3dd6f942fc5614e9345319fba38f3acf36a19e371b112be8",
  "number": 120271,
  "timestamp": 1440157166,
  "nonce": "0x73a922cc979d5ab7",
  "difficulty": 4400440184827,
  "gasLimit": {
    "_hex": "0x2fefd8"
  },
  "gasUsed": {
    "_hex": "0x5208"
  },
  "miner": "0x9D49F602b0fdb924Bd63DDE2Bd0907E4A07c63a7",
  "extraData": "0x",
  "transactions": [
    {
      "hash": "0xbba63360b27644fe738329a71efd4231ec80bc15064bcccfd27628cbcf843a21",
      "blockHash": "0x454b45436b1d1d1b5f7a8724d5d9c46291b3517bd31a784d7d43dc42f8ea33da",
      "blockNumber": 120271,
      "transactionIndex": 0,
      "confirmations": null,
      "from": "0x534821743405b5522eEEdFf74035729756d0aE8a",
      "gasPrice": {
        "_hex": "0xba43b7400"
      },
      "gasLimit": {
        "_hex": "0x5208"
      },
      "to": "0x32Be343B94f860124dC4fEe278FDCBD38C102D88",
      "value": {
        "_hex": "0x23a8f6af41e36800"
      },
      "nonce": 0,
      "data": "0x",
      "r": "0x09e44361f65e28deca2f452786736332c295cb5a073b2828439f2cee72973b89",
      "s": "0x6df79b25624149a480e3c003ebd63340c7ff75cb0bf313c8eee14a8f53cc1f81",
      "v": 27,
      "creates": null,
      "raw": "0xf86c80850ba43b74008252089432be343b94f860124dc4fee278fdcbd38c102d888823a8f6af41e36800801ba009e44361f65e28deca2f452786736332c295cb5a073b2828439f2cee72973b89a06df79b25624149a480e3c003ebd63340c7ff75cb0bf313c8eee14a8f53cc1f81",
      "networkId": 0,
      "chainId": 0
    }
  ]
}