{
  "hash": "0xdf3ad4181d50adecf4d8de46f3fff3af35982c7bc96f74e343cb2ce164fd0a29",
  "parentHash": "0x97f94a7fabe57fde3655fe65e3b5357aed856fd2c2f575ba780aa4b3f97b3bdd",
  "number": 70453,
  "timestamp": 1439319912,
  "nonce": "0x5cc26394ac5513f3",
  "difficulty": 2151066148880,
  "gasLimit": {
    "_hex": "0x2fefd8"
  },
  "gasUsed": {
    "_hex": "0x5208"
  },
  "miner": "0xf32866D5cE9a9b5673e076be48AbCd6ED48ADe78",
  "extraData": "0x476574682f76312e302e312d37666266393930632f6c696e75782f676f312e34",
  "transactions": [
    {
      "hash": "0xc8e020c1dab6008f9fff553ad1483d45d3f68eb2d7fb74496a34aa29f1d50811",
      "blockHash": "0xdf3ad4181d50adecf4d8de46f3fff3af35982c7bc96f74e343cb2ce164fd0a29",
      "blockNumber": 70453,
      "transactionIndex": 0,
      "confirmations": null,
      "from": "0x04a2a3ee9C9ea82e1F918ecE209f8A7E6d7521E7",
      "gasPrice": {
        "_hex": "0xda3310aa3"
      },
      "gasLimit": {
        "_hex": "0x5208"
      },
      "to": "0x32Be343B94f860124dC4fEe278FDCBD38C102D88",
      "value": {
        "_hex": "0x455f3dae3f4aa400"
      },
      "nonce": 1,
      "data": "0x",
      "r": "0xf6f3a2507161b725779b432e2bdb4364dfe7e4e8f714c524c2063842140c3d20",
      "s": "0x16e2c6275ff70c0e5e2ff0d30c830f9db956bde82be1dbfab4240a5c95feaacb",
      "v": 27,
      "creates": null,
      "raw": "0xf86c01850da3310aa38252089432be343b94f860124dc4fee278fdcbd38c102d8888455f3dae3f4aa400801ba0f6f3a2507161b725779b432e2bdb4364dfe7e4e8f714c524c2063842140c3d20a016e2c6275ff70c0e5e2ff0d30c830f9db956bde82be1dbfab4240a5c95feaacb",
      "networkId": 0,
      "chainId": 0
    }
  ]
}