{
  "hash": "0x085a3624cd0d664e69aa9dcac2793bf5157c11b31c3aec472f849b0eab537abd",
  "parentHash": "0x0a2f346c65ade6210f292ef3525a8791c5bed8862971741eedd3401cab9ba370",
  "number": 78949,
  "timestamp": 1439462067,
  "nonce": "0x3a2198e2e7250c65",
  "difficulty": 2294191497641,
  "gasLimit": {
    "_hex": "0x2fefd8"
  },
  "gasUsed": {
    "_hex": "0x56d8"
  },
  "miner": "0xf8E0CA3Ed80bd541b94BEdCf259e8CF2141A9523",
  "extraData": "0x476574682f76312e302e312f77696e646f77732f676f312e342e32",
  "transactions": [
    {
      "hash": "0xa655f68f2ed1ec8e26c73f88aac833e2de445fa6fbd606b82fb59fcfa140c249",
      "blockHash": "0x085a3624cd0d664e69aa9dcac2793bf5157c11b31c3aec472f849b0eab537abd",
      "blockNumber": 78949,
      "transactionIndex": 0,
      "confirmations": null,
      "from": "0x7cFa3d23636173A3beFaabc8ca86846A07C4B3DD",
      "gasPrice": {
        "_hex": "0xe00982fbd"
      },
      "gasLimit": {
        "_hex": "0xc3500"
      },
      "to": "0x4d149EB99BDEEFC1f858f8fd22289C6beAE99f2c",
      "value": {
        "_hex": "0x0"
      },
      "nonce": 1,
      "data": "0x6ffcc7190000000000000000000000000000000000000000000000001b5ebda96dafe3dc00000000000000000000000000000000000000000000000000000000002f6249",
      "r": "0x8056c3b974742efef6f51133a838683346719405dece79a456b72fd34fc95826",
      "s": "0x23fc628ca5f8b628ee47c8e637cd21cfef5b5b9629cb1928c20841ae7af5c14d",
      "v": 28,
      "creates": null,
      "raw": "0xf8aa01850e00982fbd830c3500944d149eb99bdeefc1f858f8fd22289c6beae99f2c80b8446ffcc7190000000000000000000000000000000000000000000000001b5ebda96dafe3dc00000000000000000000000000000000000000000000000000000000002f62491ca08056c3b974742efef6f51133a838683346719405dece79a456b72fd34fc95826a023fc628ca5f8b628ee47c8e637cd21cfef5b5b9629cb1928c20841ae7af5c14d",
      "networkId": 0,
      "chainId": 0
    }
  ]
}