{
  "hash": "0x4af8ea78c66ace77b0a93a6d4dbc7a905acc79d8cebb422538487988455a7fa5",
  "parentHash": "0x8bd768b16ac509bfcf6ef4789461a8265d6b32bc0d7aab0e1ae25a3b4e2beb2c",
  "number": 46552,
  "timestamp": 1438925096,
  "nonce": "0x90327ba45ea7efa8",
  "difficulty": 1461776734105,
  "gasLimit": {
    "_hex": "0x6811"
  },
  "gasUsed": {
    "_hex": "0x5208"
  },
  "miner": "0x06D138312754bDEB5c1175f47cE00620c480E9C9",
  "extraData": "0x476574682f76312e302e312f6c696e75782f676f312e342e32",
  "transactions": [
    {
      "hash": "0xb8b8d0810a910dc430df67bb7b2708af223b7ddfa42eb4e900b4b8549038961a",
      "blockHash": "0x4af8ea78c66ace77b0a93a6d4dbc7a905acc79d8cebb422538487988455a7fa5",
      "blockNumber": 46552,
      "transactionIndex": 0,
      "confirmations": null,
      "from": "0x7Cd05927fE0AA3b6552db959e7539aE28dCBBDcf",
      "gasPrice": {
        "_hex": "0x6825829011"
      },
      "gasLimit": {
        "_hex": "0x5208"
      },
      "to": "0x32Be343B94f860124dC4fEe278FDCBD38C102D88",
      "value": {
        "_hex": "0x3fb245334ef19c0000"
      },
      "nonce": 2,
      "data": "0x",
      "r": "0x71e44abba541f759a4f736ce9d2f112e0054993ecc600bc10f3e85aabc56ba9a",
      "s": "0x372df01f8530d5887251dee3885111a64f2c19c0336f9b227042284e1fb8b654",
      "v": 27,
      "creates": null,
      "raw": "0xf86d028568258290118252089432be343b94f860124dc4fee278fdcbd38c102d88893fb245334ef19c0000801ba071e44abba541f759a4f736ce9d2f112e0054993ecc600bc10f3e85aabc56ba9aa0372df01f8530d5887251dee3885111a64f2c19c0336f9b227042284e1fb8b654",
      "networkId": 0,
      "chainId": 0
    }
  ]
}