{
  "hash": "0x01bb338d8ac44e94e8ff64f1f7c132d45558ee0affb395a903e398f33a08bdb9",
  "parentHash": "0x2f52f8993e3cc9a8fd74714a083701462cae10eb1f99aba46ce549a7d7c68dec",
  "number": 114630,
  "timestamp": 1440043606,
  "nonce": "0x702515ea788196bf",
  "difficulty": 4496831928812,
  "gasLimit": {
    "_hex": "0x2fefd8"
  },
  "gasUsed": {
    "_hex": "0xa410"
  },
  "miner": "0xe6A7a1d47ff21B6321162AEA7C6CB457D5476Bca",
  "extraData": "0x476574682f76312e302e312d38326566323666362f6c696e75782f676f312e34",
  "transactions": [
    {
      "hash": "0x090cbb1ea5abc77c9fa196465342106ae791eaabaf6280a733d1efe047e75e5e",
      "blockHash": "0x01bb338d8ac44e94e8ff64f1f7c132d45558ee0affb395a903e398f33a08bdb9",
      "blockNumber": 114630,
      "transactionIndex": 0,
      "confirmations": null,
      "from": "0xa70a9a7040d542C632D8e0bE7c5513A8a5Bbc752",
      "gasPrice": {
        "_hex": "0xddce4b10e"
      },
      "gasLimit": {
        "_hex": "0x5208"
      },
      "to": "0x32Be343B94f860124dC4fEe278FDCBD38C102D88",
      "value": {
        "_hex": "0x455f2052795bb400"
      },
      "nonce": 306,
      "data": "0x",
      "r": "0x0abf8293b58c806ce756f4a83beba0bb6fccf7854b2f46bcfad3b36196b61081",
      "s": "0x493802239e0b3c1c66a5ef2bc58f2d72d99b0ee60edf523ed0fab33a71298d49",
      "v": 28,
      "creates": null,
      "raw": "0xf86e820132850ddce4b10e8252089432be343b94f860124dc4fee278fdcbd38c102d8888455f2052795bb400801ca00abf8293b58c806ce756f4a83beba0bb6fccf7854b2f46bcfad3b36196b61081a0493802239e0b3c1c66a5ef2bc58f2d72d99b0ee60edf523ed0fab33a71298d49",
      "networkId": 0,
      "chainId": 0
    },
    {
      "hash": "0x75b4a3dd0dfa757acc7629efe61a257fb178d842b91aeb2758a7e245c309ee67",
      "blockHash": "0x01bb338d8ac44e94e8ff64f1f7c132d45558ee0affb395a903e398f33a08bdb9",
      "blockNumber": 114630,
      "transactionIndex": 1,
      "confirmations": null,
      "from": "0xEF247E639d49461D25F57e9362CadE3120910Ce0",
      "gasPrice": {
        "_hex": "0xd064ecfee"
      },
      "gasLimit": {
        "_hex": "0x15f90"
      },
      "to": "0xF87481A262E993a75F791E7859E71BaC36A606Eb",
      "value": {
        "_hex": "0x890b0c2e14fb80000"
      },
      "nonce": 46,
      "data": "0x",
      "r": "0x919da6ffbd75aabf86f49a2074e533c262e56cabbac815a0419376d9110e8c2e",
      "s": "0x3cdc243707f48d9965da28eb71fab5f8eaa4561705d665ac8bd75baedf2946fb",
      "v": 27,
      "creates": null,
      "raw": "0xf86e2e850d064ecfee83015f9094f87481a262e993a75f791e7859e71bac36a606eb890890b0c2e14fb80000801ba0919da6ffbd75aabf86f49a2074e533c262e56cabbac815a0419376d9110e8c2ea03cdc243707f48d9965da28eb71fab5f8eaa4561705d665ac8bd75baedf2946fb",
      "networkId": 0,
      "chainId": 0
    }
  ]
}