{
  "hash": "0x960ecaad16844048b0ea5f8986228f8fac50c639dc6e55dbdcf5ebf442025ef3",
  "parentHash": "0xacee4327d7f38349bc1aa5229a853ef7bcb4adcda1ed0ae3bce4b8699827a8ab",
  "number": 121444,
  "timestamp": 1440177158,
  "nonce": "0xada1d987cc77aefa",
  "difficulty": 4432168487002,
  "gasLimit": {
    "_hex": "0x2fefd8"
  },
  "gasUsed": {
    "_hex": "0x5208"
  },
  "miner": "0x790b8a3cE86E707ED0eD32bF89B3269692a23CC1",
  "extraData": "0xd783010002844765746887676f312e342e32856c696e7578",
  "transactions": [
    {
      "hash": "0xdd495c6e21618f2fac23d4fd2c8b1e8327b3138d881e40c432a3891a5782a0d1",
      "blockHash": "0x960ecaad16844048b0ea5f8986228f8fac50c639dc6e55dbdcf5ebf442025ef3",
      "blockNumber": 121444,
      "transactionIndex": 0,
      "confirmations": null,
      "from": "0x007f7f58D3eb5b7510A301eCC749FC1fCDDBE14D",
      "gasPrice": {
        "_hex": "0xba43b7400"
      },
      "gasLimit": {
        "_hex": "0x15f90"
      },
      "to": "0xb1abce2918E21ddb93AA452731a12672A3d9F75a",
      "value": {
        "_hex": "0x4563918244f40000"
      },
      "nonce": 374,
      "data": "0x",
      "r": "0x32ec471d1ea3172881150d19d4dcb844e4cb46821211b8238516ab7d71edfa91",
      "s": "0x5198a9a383c6ad550fa46c0cc2fbecc2f6f7ceb79200826e0e289880e9b814e6",
      "v": 27,
      "creates": null,
      "raw": "0xf86f820176850ba43b740083015f9094b1abce2918e21ddb93aa452731a12672a3d9f75a884563918244f40000801ba032ec471d1ea3172881150d19d4dcb844e4cb46821211b8238516ab7d71edfa91a05198a9a383c6ad550fa46c0cc2fbecc2f6f7ceb79200826e0e289880e9b814e6",
      "networkId": 0,
      "chainId": 0
    }
  ]
}