{
  "hash": "0x9e24f1f88bc61cacc026fbfee784e50421d5b4261b54016d47249d9596b8abbd",
  "parentHash": "0x1d6d5fa9e7e4f549dcc78a01f859903865a229917a6f036c0f7828bc3411e67b",
  "number": 89978,
  "timestamp": 1439631955,
  "nonce": "0x9adccc201d597a0f",
  "difficulty": 3364714473271,
  "gasLimit": {
    "_hex": "0x2fefd8"
  },
  "gasUsed": {
    "_hex": "0x5208"
  },
  "miner": "0x09c5bA982A852b318Fd5F8256832eF6CBfff6aA4",
  "extraData": "0x",
  "transactions": [
    {
      "hash": "0x52ade90ccfe88d7e329895a462879860ff252acb9f87ef7467ff5319122dbfee",
      "blockHash": "0x9e24f1f88bc61cacc026fbfee784e50421d5b4261b54016d47249d9596b8abbd",
      "blockNumber": 89978,
      "transactionIndex": 0,
      "confirmations": null,
      "from": "0xB9970A5666f5b3272552160B85332F0e21653a76",
      "gasPrice": {
        "_hex": "0xcd01555c5"
      },
      "gasLimit": {
        "_hex": "0x15f90"
      },
      "to": "0x23f2D0fd3B4C98Fb1698564deB4898275E2e831f",
      "value": {
        "_hex": "0x29a2241af62c0000"
      },
      "nonce": 1,
      "data": "0x",
      "r": "0x93ec1d456b82a8c375bf43f633beab6b9f2462ad720bff054d008f617b4630da",
      "s": "0x69f8e393ea3ec47214f91208dd3339612a852973377bd14a8d2e01f0bcd7c12e",
      "v": 28,
      "creates": null,
      "raw": "0xf86d01850cd01555c583015f909423f2d0fd3b4c98fb1698564deb4898275e2e831f8829a2241af62c0000801ca093ec1d456b82a8c375bf43f633beab6b9f2462ad720bff054d008f617b4630daa069f8e393ea3ec47214f91208dd3339612a852973377bd14a8d2e01f0bcd7c12e",
      "networkId": 0,
      "chainId": 0
    }
  ]
}