{
  "hash": "0x43a5bb421edd8d0b8c0bec52ac667d3afb4ba45e2521df34753eb8e4b783b9f5",
  "parentHash": "0x832a1e7436b21c8a086bb9f8d84d2ceec22e821e5f20f5cfd7042ccb43d62fc6",
  "number": 96266,
  "timestamp": 1439737601,
  "nonce": "0x24b869e8ce5aed37",
  "difficulty": 3678250665684,
  "gasLimit": {
    "_hex": "0x2fefd8"
  },
  "gasUsed": {
    "_hex": "0x806e"
  },
  "miner": "0x6cEbFB928F09aFEa77a627Fbc716F446b0d2f667",
  "extraData": "0x",
  "transactions": [
    {
      "hash": "0x71c69e7735dbc3ceb1ec9a17a99dacab947be28bc4820863d51c5cf0b340a7c6",
      "blockHash": "0x43a5bb421edd8d0b8c0bec52ac667d3afb4ba45e2521df34753eb8e4b783b9f5",
      "blockNumber": 96266,
      "transactionIndex": 0,
      "confirmations": null,
      "from": "0xFBb1b73C4f0BDa4f67dcA266ce6Ef42f520fBB98",
      "gasPrice": {
        "_hex": "0xd52bf1d7a"
      },
      "gasLimit": {
        "_hex": "0x15f90"
      },
      "to": "0xCAc7000C7dBaa2E33Af15325AF5D435E011C7BdD",
      "value": {
        "_hex": "0x0"
      },
      "nonce": 70,
      "data": "0x3feb1bd84249545452455830300000000000000000000000000000000000000000000000000000000000000000000000b62a0bf317fceb39ed916f0f9e60e623ad30912700000000000000000000000000000000000000000000000071b818efc01d1800",
      "r": "0x8520037d2c2ab9cc7b175f3850316d2fa0a4a2b1a80c39a23d3dfd9c0dea1345",
      "s": "0x620b0bb079023ef5ee00d0553d47c72cf194543f8aa738bd880434d9edc5552d",
      "v": 27,
      "creates": null,
      "raw": "0xf8ca46850d52bf1d7a83015f9094cac7000c7dbaa2e33af15325af5d435e011c7bdd80b8643feb1bd84249545452455830300000000000000000000000000000000000000000000000000000000000000000000000b62a0bf317fceb39ed916f0f9e60e623ad30912700000000000000000000000000000000000000000000000071b818efc01d18001ba08520037d2c2ab9cc7b175f3850316d2fa0a4a2b1a80c39a23d3dfd9c0dea1345a0620b0bb079023ef5ee00d0553d47c72cf194543f8aa738bd880434d9edc5552d",
      "networkId": 0,
      "chainId": 0
    }
  ]
}