{
  "hash": "0xfde3256113cf4bac494c93adba07c4a1a9a810acea2f17725f98fb13bc428692",
  "parentHash": "0x5d68b1c0a3baf8d747d12869552ba68db27d6667157a860e44fd4572ad36bacd",
  "number": 51168,
  "timestamp": 1439000463,
  "nonce": "0x12cc5c0ce6af2ce6",
  "difficulty": 1562809533856,
  "gasLimit": {
    "_hex": "0x96a79"
  },
  "gasUsed": {
    "_hex": "0x7fe9f"
  },
  "miner": "0x0193d941b50d91BE6567c7eE1C0Fe7AF498b4137",
  "extraData": "0x4a5ace9e4e",
  "transactions": [
    {
      "hash": "0x5d5543d831454251571dd8f4b01b32018865754049091d15f3bfa1032d3d434c",
      "blockHash": "0xfde3256113cf4bac494c93adba07c4a1a9a810acea2f17725f98fb13bc428692",
      "blockNumber": 51168,
      "transactionIndex": 0,
      "confirmations": null,
      "from": "0x33b01a7fe4A1a5F774Bb73f89A4eF15a6Ffe1141",
      "gasPrice": {
        "_hex": "0xdc903bed3"
      },
      "gasLimit": {
        "_hex": "0x15f90"
      },
      "to": "0xF13F836dbea154Dd993C658955bA3e7D21A6032B",
      "value": {
        "_hex": "0x2b5e3af16b18800000"
      },
      "nonce": 1,
      "data": "0x",
      "r": "0xb7bcdb7d46a8396067b4859cf99869d8fb2329581c32f4e53ba78fc96be11925",
      "s": "0x424e43e2646ec3821ea56972cf9cf73108df1a0775e0c12362663fc069b46b32",
      "v": 27,
      "creates": null,
      "raw": "0xf86e01850dc903bed383015f9094f13f836dbea154dd993c658955ba3e7d21a6032b892b5e3af16b18800000801ba0b7bcdb7d46a8396067b4859cf99869d8fb2329581c32f4e53ba78fc96be11925a0424e43e2646ec3821ea56972cf9cf73108df1a0775e0c12362663fc069b46b32",
      "networkId": 0,
      "chainId": 0
    },
    {
      "hash": "0x2dcc485d8a3b7f3f69f8dfcffb89331d9ee5e57ad07510973023a65e0c13d19f",
      "blockHash": "0xfde3256113cf4bac494c93adba07c4a1a9a810acea2f17725f98fb13bc428692",
      "blockNumber": 51168,
      "transactionIndex": 1,
      "confirmations": null,
      "from": "0x09BFb16C3f990AabAF72B06b7042C71B3bDcB4F6",
      "gasPrice": {
        "_hex": "0xd0ef03cca"
      },
      "gasLimit": {
        "_hex": "0x5208"
      },
      "to": "0x32Be343B94f860124dC4fEe278FDCBD38C102D88",
      "value": {
        "_hex": "0x6c6b8f2c5a22b00000"
      },
      "nonce": 1,
      "data": "0x",
      "r": "0xe04bebd60bbdcef9dfc4f81aa0c6f5800f8aed528fdd0ffbe0a83f951e8a4353",
      "s": "0x300b9eabcbcff8b68f66dd3eebe5e62cbd128a631867ebdfe5151eac922ccbd6",
      "v": 28,
      "creates": null,
      "raw": "0xf86d01850d0ef03cca8252089432be343b94f860124dc4fee278fdcbd38c102d88896c6b8f2c5a22b00000801ca0e04bebd60bbdcef9dfc4f81aa0c6f5800f8aed528fdd0ffbe0a83f951e8a4353a0300b9eabcbcff8b68f66dd3eebe5e62cbd128a631867ebdfe5151eac922ccbd6",
      "networkId": 0,
      "chainId": 0
    },
    {
      "hash": "0xe59e2a245ffce3795661c44c38d0bf805e922e3cb195f9c98790da3318ac0f91",
      "blockHash": "0xfde3256113cf4bac494c93adba07c4a1a9a810acea2f17725f98fb13bc428692",
      "blockNumber": 51168,
      "transactionIndex": 2,
      "confirmations": null,
      "from": "0x5edeF194D1fB66CDeB5ca06baC41be4f3E2D0BE2",
      "gasPrice": {
        "_hex": "0xd0ef03cca"
      },
      "gasLimit": {
        "_hex": "0x5208"
      },
      "to": "0x32Be343B94f860124dC4fEe278FDCBD38C102D88",
      "value": {
        "_hex": "0x5150aa557733600000"
      },
      "nonce": 2,
      "data": "0x",
      "r": "0x3a30b976bd6ef8142f766a32e58cf3ae1d687cf8a34334de7f926e5c56095631",
      "s": "0x4ca49af0d10984a44f0c0128a9b0b0f55cbb722f5de145d319c50f583711c551",
      "v": 28,
      "creates": null,
      "raw": "0xf86d02850d0ef03cca8252089432be343b94f860124dc4fee278fdcbd38c102d88895150aa557733600000801ca03a30b976bd6ef8142f766a32e58cf3ae1d687cf8a34334de7f926e5c56095631a04ca49af0d10984a44f0c0128a9b0b0f55cbb722f5de145d319c50f583711c551",
      "networkId": 0,
      "chainId": 0
    },
    {
      "hash": "0x65577cb2a600f8744a9a6394d30b66a401022b635cb964c73fb33ab99620ea63",
      "blockHash": "0xfde3256113cf4bac494c93adba07c4a1a9a810acea2f17725f98fb13bc428692",
      "blockNumber": 51168,
      "transactionIndex": 3,
      "confirmations": null,
      "from": "0xf88a65846C19D8fc76fFf545fEAa7bbc7114F667",
      "gasPrice": {
        "_hex": "0xcf7682fd8"
      },
      "gasLimit": {
        "_hex": "0x7a120"
      },
      "to": "0x109C4f2CCc82C4d77Bde15F306707320294Aea3F",
      "value": {
        "_hex": "0xde0b6b3a7640000"
      },
      "nonce": 3,
      "data": "0x",
      "r": "0x7189df3ebee5971117d8e4ac94d755cd6b44ac2f12e8dbca24437d89f40f7fd2",
      "s": "0x23e986d450ceffabbb94397bae0d2d642e87321c95d35628bfb0a31465f20c2e",
      "v": 27,
      "creates": null,
      "raw": "0xf86d03850cf7682fd88307a12094109c4f2ccc82c4d77bde15f306707320294aea3f880de0b6b3a7640000801ba07189df3ebee5971117d8e4ac94d755cd6b44ac2f12e8dbca24437d89f40f7fd2a023e986d450ceffabbb94397bae0d2d642e87321c95d35628bfb0a31465f20c2e",
      "networkId": 0,
      "chainId": 0
    }
  ]
}