{
  "hash": "0x9b5e5c5b3f7ef243122abd5e40bbfe7dd0440bfcfc4323afba975a16a21b64e8",
  "parentHash": "0x3eb73539a4c93b2da0499c9735b618e1fff9c01c62f0c17f379f93b38b243f57",
  "number": 89328,
  "timestamp": 1439621681,
  "nonce": "0x28fbe1deb6052a3c",
  "difficulty": 3306342082327,
  "gasLimit": {
    "_hex": "0x2fefd8"
  },
  "gasUsed": {
    "_hex": "0x5208"
  },
  "miner": "0x0E858640EB9cbEeE16B74124658815BB2b5c0686",
  "extraData": "0x",
  "transactions": [
    {
      "hash": "0xd83a5a8eca1fb8e98668b3f31704340c15f3769dbfd68c955bcec8e597f670a7",
      "blockHash": "0x9b5e5c5b3f7ef243122abd5e40bbfe7dd0440bfcfc4323afba975a16a21b64e8",
      "blockNumber": 89328,
      "transactionIndex": 0,
      "confirmations": null,
      "from": "0x2f86ba8019945f39edE131D38d4d8780884DA553",
      "gasPrice": {
        "_hex": "0xcd4afe04e"
      },
      "gasLimit": {
        "_hex": "0x5208"
      },
      "to": "0x32Be343B94f860124dC4fEe278FDCBD38C102D88",
      "value": {
        "_hex": "0x532e6834c9352400"
      },
      "nonce": 17,
      "data": "0x",
      "r": "0x36878b1a1a624be425fbb22f977ac42d61f6fa772a21cf2ef51b39da85cc5f05",
      "s": "0x1cdc83adb3133c773b5af3925635e8c6d0e1dec3111b502ae565c69f3d07f830",
      "v": 28,
      "creates": null,
      "raw": "0xf86c11850cd4afe04e8252089432be343b94f860124dc4fee278fdcbd38c102d8888532e6834c9352400801ca036878b1a1a624be425fbb22f977ac42d61f6fa772a21cf2ef51b39da85cc5f05a01cdc83adb3133c773b5af3925635e8c6d0e1dec3111b502ae565c69f3d07f830",
      "networkId": 0,
      "chainId": 0
    }
  ]
}