{
  "hash": "0x70b03687f655adfb5d4994d2a8658b2fbeb0e4a14544d4cbd79106142638f5d7",
  "parentHash": "0x2b477352e78673fabf1f9b5bb60f8d5ab3aa59d0a06c9021f58d26648da70278",
  "number": 66268,
  "timestamp": 1439251541,
  "nonce": "0xccc8bb7fd19ad174",
  "difficulty": 1941450048313,
  "gasLimit": {
    "_hex": "0x2fefd5"
  },
  "gasUsed": {
    "_hex": "0x5208"
  },
  "miner": "0xee5379D0c1ca47327368027455074C26D9952628",
  "extraData": "0x476574682f76312e302e312d38326566323666362f6c696e75782f676f312e34",
  "transactions": [
    {
      "hash": "0x2460756e1a81ff3b47d63238b1c5477d6998b2ae1bc24361ce92d166b207c521",
      "blockHash": "0x70b03687f655adfb5d4994d2a8658b2fbeb0e4a14544d4cbd79106142638f5d7",
      "blockNumber": 66268,
      "transactionIndex": 0,
      "confirmations": null,
      "from": "0x3f0073d6bBE51612013aA09BC970e08E84D7BA23",
      "gasPrice": {
        "_hex": "0xd98aa4561"
      },
      "gasLimit": {
        "_hex": "0x5208"
      },
      "to": "0x32Be343B94f860124dC4fEe278FDCBD38C102D88",
      "value": {
        "_hex": "0x882cbb0db1c650000"
      },
      "nonce": 7,
      "data": "0x",
      "r": "0x737f06e5a9a7d184d7b6b1607632161546c51ff580afce7b244632457e2399da",
      "s": "0x79a98b9d389311f640153ffaa1addbb108e830cae770c8fa38bd448b6bb69471",
      "v": 28,
      "creates": null,
      "raw": "0xf86d07850d98aa45618252089432be343b94f860124dc4fee278fdcbd38c102d88890882cbb0db1c650000801ca0737f06e5a9a7d184d7b6b1607632161546c51ff580afce7b244632457e2399daa079a98b9d389311f640153ffaa1addbb108e830cae770c8fa38bd448b6bb69471",
      "networkId": 0,
      "chainId": 0
    }
  ]
}