{
  "hash": "0xf7ebc0f1bad2a36725dea09fa83410371e57af07bc43869f40b1c612801e6ceb",
  "parentHash": "0x1108eef19799c1b667e1d7559c0427635942a49146982439b057a6ff3f5e6900",
  "number": 52523,
  "timestamp": 1439023055,
  "nonce": "0x559cdaaf945ea5b0",
  "difficulty": 1563320269498,
  "gasLimit": {
    "_hex": "0x14dcce"
  },
  "gasUsed": {
    "_hex": "0x1024c"
  },
  "miner": "0xe6A7a1d47ff21B6321162AEA7C6CB457D5476Bca",
  "extraData": "0x657468706f6f6c2e6f7267",
  "transactions": [
    {
      "hash": "0xef15ec4b1ae368ab4fa284a1785a21a423ca1ea076f62eea44960c7f52cc3c5b",
      "blockHash": "0xf7ebc0f1bad2a36725dea09fa83410371e57af07bc43869f40b1c612801e6ceb",
      "blockNumber": 52523,
      "transactionIndex": 0,
      "confirmations": null,
      "from": "0xE2b1b51936b9C287a329fEBB98d3f8751404FD6E",
      "gasPrice": {
        "_hex": "0xedfd84c18"
      },
      "gasLimit": {
        "_hex": "0x15f90"
      },
      "to": "0x2910543Af39abA0Cd09dBb2D50200b3E800A63D2",
      "value": {
        "_hex": "0x4563918244f40000"
      },
      "nonce": 0,
      "data": "0x454e384459544e5438",
      "r": "0x8d9d2c460ccf870b0902acced4f16da01de362abcc740c9d620addb370230831",
      "s": "0x00c57bc4f02b12c54d8058d21d72fe056ee9f98df96f7341764d14620998f611",
      "v": 27,
      "creates": null,
      "raw": "0xf87580850edfd84c1883015f90942910543af39aba0cd09dbb2d50200b3e800a63d2884563918244f4000089454e384459544e54381ba08d9d2c460ccf870b0902acced4f16da01de362abcc740c9d620addb3702308319fc57bc4f02b12c54d8058d21d72fe056ee9f98df96f7341764d14620998f611",
      "networkId": 0,
      "chainId": 0
    },
    {
      "hash": "0xaebe3aa36743013eb213befbe5518165e64b9fe84b904ab093fa8a573ec57c89",
      "blockHash": "0xf7ebc0f1bad2a36725dea09fa83410371e57af07bc43869f40b1c612801e6ceb",
      "blockNumber": 52523,
      "transactionIndex": 1,
      "confirmations": null,
      "from": "0x326Be8F71bFb0379f989aAB1CC1fE37f0a771f60",
      "gasPrice": {
        "_hex": "0x10e735d1f09"
      },
      "gasLimit": {
        "_hex": "0x15f90"
      },
      "to": "0x9018e2967c15E1fAed9B5D6439522F075535a683",
      "value": {
        "_hex": "0x0"
      },
      "nonce": 0,
      "data": "0x26b3293f000000000000000000000000326be8f71bfb0379f989aab1cc1fe37f0a771f6000000000000000000000000000000000000000000000000000000000000000647465737474786964000000000000000000000000000000000000000000000000",
      "r": "0x5dcecdb61a9eda1bd8ddde7be042b97e41c0ca67f35472dbb45c0e5357318c4c",
      "s": "0x777194b3b9b22fef52c27e5aa20729c9717288ad5fa14ac9748661acf8629952",
      "v": 28,
      "creates": null,
      "raw": "0xf8cb8086010e735d1f0983015f90949018e2967c15e1faed9b5d6439522f075535a68380b86426b3293f000000000000000000000000326be8f71bfb0379f989aab1cc1fe37f0a771f60000000000000000000000000000000000000000000000000000000000000006474657374747869640000000000000000000000000000000000000000000000001ca05dcecdb61a9eda1bd8ddde7be042b97e41c0ca67f35472dbb45c0e5357318c4ca0777194b3b9b22fef52c27e5aa20729c9717288ad5fa14ac9748661acf8629952",
      "networkId": 0,
      "chainId": 0
    },
    {
      "hash": "0x13afa9afd6a91a935647606f9eed176748ff7ae506dfb465fcbbb579fdcd1e28",
      "blockHash": "0xf7ebc0f1bad2a36725dea09fa83410371e57af07bc43869f40b1c612801e6ceb",
      "blockNumber": 52523,
      "transactionIndex": 2,
      "confirmations": null,
      "from": "0xc8b25f8890816e7F491d8EE02BA8b4548c73D3A4",
      "gasPrice": {
        "_hex": "0xe1e7fb36c"
      },
      "gasLimit": {
        "_hex": "0x5208"
      },
      "to": "0x32Be343B94f860124dC4fEe278FDCBD38C102D88",
      "value": {
        "_hex": "0x3635c53294eff00000"
      },
      "nonce": 3,
      "data": "0x",
      "r": "0xd8a63589fb9421ca4fbc286d42692b0403219ff07ef5a29aeabd64320afa42f5",
      "s": "0x4aa8a0135db9a6256697e145f1c86e6d20ca2b2cc5aaa910d430ad99559e4d17",
      "v": 27,
      "creates": null,
      "raw": "0xf86d03850e1e7fb36c8252089432be343b94f860124dc4fee278fdcbd38c102d88893635c53294eff00000801ba0d8a63589fb9421ca4fbc286d42692b0403219ff07ef5a29aeabd64320afa42f5a04aa8a0135db9a6256697e145f1c86e6d20ca2b2cc5aaa910d430ad99559e4d17",
      "networkId": 0,
      "chainId": 0
    }
  ]
}