{
  "hash": "0x246707e2528486c4dff17a05b15098360e32e359f561c4d8a7f71a6b1d0aabd8",
  "parentHash": "0x09e2012eb55d71231dc293979728419239e2fc3a241afbffe8f68decb5514b3f",
  "number": 55136,
  "timestamp": 1439065868,
  "nonce": "0x4991ea3a32c3a2ba",
  "difficulty": 1640236257675,
  "gasLimit": {
    "_hex": "0x2fe3db"
  },
  "gasUsed": {
    "_hex": "0x546c"
  },
  "miner": "0xF2d2AfF1320476cb8C6b607199D23175cc595693",
  "extraData": "0x476574682f76312e302e312f77696e646f77732f676f312e342e32",
  "transactions": [
    {
      "hash": "0x18ad6ad9e1a1a0b538d74e7f0863a5c782e7736557461b52fbdc25339190634c",
      "blockHash": "0x246707e2528486c4dff17a05b15098360e32e359f561c4d8a7f71a6b1d0aabd8",
      "blockNumber": 55136,
      "transactionIndex": 0,
      "confirmations": null,
      "from": "0x43227d65334e691Cf231b4A4e1D339B95D598AFB",
      "gasPrice": {
        "_hex": "0x110c8f7d8de"
      },
      "gasLimit": {
        "_hex": "0xc350"
      },
      "to": "0x2910543Af39abA0Cd09dBb2D50200b3E800A63D2",
      "value": {
        "_hex": "0x6c6b935b8bbd400000"
      },
      "nonce": 0,
      "data": "0x454e5444514d4d3547",
      "r": "0x74b690280ae4643bf4ca7f1fcb8eec8ca786f7082a218490653fa081ff31b3b0",
      "s": "0x8b8d4a7ce9cc6ff2ab82480b0afe841091e4a20001d59b4ac652fbbd29ec72fa",
      "v": 28,
      "creates": null,
      "raw": "0xf87780860110c8f7d8de82c350942910543af39aba0cd09dbb2d50200b3e800a63d2896c6b935b8bbd40000089454e5444514d4d35471ca074b690280ae4643bf4ca7f1fcb8eec8ca786f7082a218490653fa081ff31b3b0a08b8d4a7ce9cc6ff2ab82480b0afe841091e4a20001d59b4ac652fbbd29ec72fa",
      "networkId": 0,
      "chainId": 0
    }
  ]
}