{
  "hash": "0xa197c5a3c4f03c192c9fa5d510789d999f3e91e1e8170b884a57c2b39b44f63f",
  "parentHash": "0x4c80a5181c0f0e11f75599b74e86c8dfdb01eeaa7c6f2d09bc3f38bb1b085d3e",
  "number": 79020,
  "timestamp": 1439463258,
  "nonce": "0xebf5e72be78bfac1",
  "difficulty": 2302026905229,
  "gasLimit": {
    "_hex": "0x2fefd8"
  },
  "gasUsed": {
    "_hex": "0x5208"
  },
  "miner": "0x5B3e850E39e6f2C7dD38707b649e2B3536F14C0b",
  "extraData": "0x476574682f76312e302e312f64617277696e2f676f312e342e32",
  "transactions": [
    {
      "hash": "0x8bbd360ea62b2c60026e8a0012ab8230214605944c0a284192d453846dc7c705",
      "blockHash": "0xa197c5a3c4f03c192c9fa5d510789d999f3e91e1e8170b884a57c2b39b44f63f",
      "blockNumber": 79020,
      "transactionIndex": 0,
      "confirmations": null,
      "from": "0x32Be343B94f860124dC4fEe278FDCBD38C102D88",
      "gasPrice": {
        "_hex": "0xd00e7798e"
      },
      "gasLimit": {
        "_hex": "0x5208"
      },
      "to": "0xE54C51118A2Cc163BC4BDb7C653Ab45Fc179d928",
      "value": {
        "_hex": "0x1476546f964abe000"
      },
      "nonce": 408,
      "data": "0x",
      "r": "0x72e8449ac1b9dbbf1d021324004a23567df95d782bb52a9809c6a488c4f42071",
      "s": "0x3ab3145b6a0196a157e9064b15a94bcd1a65ddc81a74018b26162d24d64b5aae",
      "v": 27,
      "creates": null,
      "raw": "0xf86f820198850d00e7798e82520894e54c51118a2cc163bc4bdb7c653ab45fc179d9288901476546f964abe000801ba072e8449ac1b9dbbf1d021324004a23567df95d782bb52a9809c6a488c4f42071a03ab3145b6a0196a157e9064b15a94bcd1a65ddc81a74018b26162d24d64b5aae",
      "networkId": 0,
      "chainId": 0
    }
  ]
}