{
  "hash": "0xb5729628f86975254aef3ee0c1fd494d315bc78fd1e9b11f2883418f4957f2db",
  "parentHash": "0x8e0bc11423c256e62eccdd0e1ee7d1b46589fff1be68099d9a291a1372468460",
  "number": 112785,
  "timestamp": 1440013162,
  "nonce": "0xe5f102ab016d98dd",
  "difficulty": 4438912790214,
  "gasLimit": {
    "_hex": "0x2fefd8"
  },
  "gasUsed": {
    "_hex": "0xf618"
  },
  "miner": "0xe64D681b0eBCa2997D5f35e72EbC7777973299D7",
  "extraData": "0x",
  "transactions": [
    {
      "hash": "0xc2924f6c1bb05d78f376166fe0d0c442dd0fe8ca971133274d8b8710ce2138b3",
      "blockHash": "0xb5729628f86975254aef3ee0c1fd494d315bc78fd1e9b11f2883418f4957f2db",
      "blockNumber": 112785,
      "transactionIndex": 0,
      "confirmations": null,
      "from": "0x7001C4730b81A539eF8b760A3eEb14C64515137B",
      "gasPrice": {
        "_hex": "0xd353328ea"
      },
      "gasLimit": {
        "_hex": "0x5208"
      },
      "to": "0x32Be343B94f860124dC4fEe278FDCBD38C102D88",
      "value": {
        "_hex": "0x122a0de337d518000"
      },
      "nonce": 7,
      "data": "0x",
      "r": "0x0c03c26830961ab96e6cf663a830be978feeb624347308fecc5f743d25ed3c23",
      "s": "0x5e724067a9bc5b0cdec02273af99067e83c3d0d5fdf2cf23b943c5426db52524",
      "v": 27,
      "creates": null,
      "raw": "0xf86d07850d353328ea8252089432be343b94f860124dc4fee278fdcbd38c102d88890122a0de337d518000801ba00c03c26830961ab96e6cf663a830be978feeb624347308fecc5f743d25ed3c23a05e724067a9bc5b0cdec02273af99067e83c3d0d5fdf2cf23b943c5426db52524",
      "networkId": 0,
      "chainId": 0
    },
    {
      "hash": "0xcbd5e4333e16611aa34153ea09fb22761f61599548e7feb6c6588917d06a5dab",
      "blockHash": "0xb5729628f86975254aef3ee0c1fd494d315bc78fd1e9b11f2883418f4957f2db",
      "blockNumber": 112785,
      "transactionIndex": 1,
      "confirmations": null,
      "from": "0x9A6eb0bBBE50281644D7a7839147F59819506Ac0",
      "gasPrice": {
        "_hex": "0xd353328ea"
      },
      "gasLimit": {
        "_hex": "0x5208"
      },
      "to": "0x32Be343B94f860124dC4fEe278FDCBD38C102D88",
      "value": {
        "_hex": "0x81611924ebd8b000"
      },
      "nonce": 6,
      "data": "0x",
      "r": "0xb7075d6eb2505807ad215c187791b155395e0b6d0c80ac4054c318af50c8860e",
      "s": "0x07fe7185d536f27153526750b7c5fd8ec7c35891136f20085837748b8ef2d1a0",
      "v": 27,
      "creates": null,
      "raw": "0xf86c06850d353328ea8252089432be343b94f860124dc4fee278fdcbd38c102d888881611924ebd8b000801ba0b7075d6eb2505807ad215c187791b155395e0b6d0c80ac4054c318af50c8860ea007fe7185d536f27153526750b7c5fd8ec7c35891136f20085837748b8ef2d1a0",
      "networkId": 0,
      "chainId": 0
    },
    {
      "hash": "0x2e5566e3e3c01addb02631ab1971e2e496466ae68f6402b0d25685fd2775eae8",
      "blockHash": "0xb5729628f86975254aef3ee0c1fd494d315bc78fd1e9b11f2883418f4957f2db",
      "blockNumber": 112785,
      "transactionIndex": 2,
      "confirmations": null,
      "from": "0x357A01795bfA480a007fB4B1B6eDf2e8C23f1840",
      "gasPrice": {
        "_hex": "0xd353328ea"
      },
      "gasLimit": {
        "_hex": "0x5208"
      },
      "to": "0x32Be343B94f860124dC4fEe278FDCBD38C102D88",
      "value": {
        "_hex": "0x1e0355c72c6a8000"
      },
      "nonce": 8,
      "data": "0x",
      "r": "0x7fb512994a29eb746218d138ecd983e8395c7a99c7ca20719a97468ef13171aa",
      "s": "0x786b4634538b654b7c81ede7a1e394688b1e01f87b7d4be95db65d35a220d584",
      "v": 28,
      "creates": null,
      "raw": "0xf86c08850d353328ea8252089432be343b94f860124dc4fee278fdcbd38c102d88881e0355c72c6a8000801ca07fb512994a29eb746218d138ecd983e8395c7a99c7ca20719a97468ef13171aaa0786b4634538b654b7c81ede7a1e394688b1e01f87b7d4be95db65d35a220d584",
      "networkId": 0,
      "chainId": 0
    }
  ]
}