{
  "hash": "0x3157045164ecd35b97d79f109a3833c3d4ca17f3018c0b8cfb75b2b98dc8ff34",
  "parentHash": "0x8a0f7bfd6d0cd39f55437d62595e2faf560b97cabcadaf070bd16374f2537c98",
  "number": 88452,
  "timestamp": 1439608170,
  "nonce": "0xd1134fe28fb2c940",
  "difficulty": 3233243960249,
  "gasLimit": {
    "_hex": "0x2fefd8"
  },
  "gasUsed": {
    "_hex": "0x2aa3b"
  },
  "miner": "0x2a9345Be3f611A15B4ac383C0f601c4B16b24577",
  "extraData": "0x476574682f76312e302e312f77696e646f77732f676f312e342e32",
  "transactions": [
    {
      "hash": "0x57c7e78fc580c33b9167d5a721ad7eb942ea56ecf6285a1e481728327b2731e6",
      "blockHash": "0x3157045164ecd35b97d79f109a3833c3d4ca17f3018c0b8cfb75b2b98dc8ff34",
      "blockNumber": 88452,
      "transactionIndex": 0,
      "confirmations": null,
      "from": "0x2910543Af39abA0Cd09dBb2D50200b3E800A63D2",
      "gasPrice": {
        "_hex": "0xdf5efa536"
      },
      "gasLimit": {
        "_hex": "0x5208"
      },
      "to": "0x324b3914fC1e53995C94480633a2016Bf16Da7b9",
      "value": {
        "_hex": "0x148b9cb87f992b8000"
      },
      "nonce": 730,
      "data": "0x",
      "r": "0x2e759d28f5421984037d9413ed97e0d7988a7aa96e4e29959e6a4acd16ff990e",
      "s": "0x05e8254e06903677c24a05739780b09380e235463e40ea1f3d2fb16fe4de1158",
      "v": 28,
      "creates": null,
      "raw": "0xf86f8202da850df5efa53682520894324b3914fc1e53995c94480633a2016bf16da7b989148b9cb87f992b8000801ca02e759d28f5421984037d9413ed97e0d7988a7aa96e4e29959e6a4acd16ff990ea005e8254e06903677c24a05739780b09380e235463e40ea1f3d2fb16fe4de1158",
      "networkId": 0,
      "chainId": 0
    },
    {
      "hash": "0xfcf805387505e7680b953261764ab1f6a1b8bbe78b4f87c2f0d7293fbc5c7c5f",
      "blockHash": "0x3157045164ecd35b97d79f109a3833c3d4ca17f3018c0b8cfb75b2b98dc8ff34",
      "blockNumber": 88452,
      "transactionIndex": 1,
      "confirmations": null,
      "from": "0x3620db64D25D412bAb4C8d93E2e0D7e64e8Cb933",
      "gasPrice": {
        "_hex": "0xdbe7fcb8c"
      },
      "gasLimit": {
        "_hex": "0x5208"
      },
      "to": "0x32Be343B94f860124dC4fEe278FDCBD38C102D88",
      "value": {
        "_hex": "0x175d4f3104a3830000"
      },
      "nonce": 10,
      "data": "0x",
      "r": "0xebc18e75efff21b5b21aa68b886ff4fea5e8913b26f15dc6cf7bd073ac36fe91",
      "s": "0x018b0a54aa7ff22367c10ddc13da5072ff7264134c72bd4989fb3667db873122",
      "v": 28,
      "creates": null,
      "raw": "0xf86d0a850dbe7fcb8c8252089432be343b94f860124dc4fee278fdcbd38c102d8889175d4f3104a3830000801ca0ebc18e75efff21b5b21aa68b886ff4fea5e8913b26f15dc6cf7bd073ac36fe91a0018b0a54aa7ff22367c10ddc13da5072ff7264134c72bd4989fb3667db873122",
      "networkId": 0,
      "chainId": 0
    },
    {
      "hash": "0x53aeed30a916f162ce4056ee1721350e5bb8b6d25bfa86f1fb8a986a1bcd39b3",
      "blockHash": "0x3157045164ecd35b97d79f109a3833c3d4ca17f3018c0b8cfb75b2b98dc8ff34",
      "blockNumber": 88452,
      "transactionIndex": 2,
      "confirmations": null,
      "from": "0xd3CdA913deB6f67967B99D67aCDFa1712C293601",
      "gasPrice": {
        "_hex": "0xce83506fc"
      },
      "gasLimit": {
        "_hex": "0xf4240"
      },
      "to": null,
      "value": {
        "_hex": "0x0"
      },
      "nonce": 13,
      "data": "0x60606040526101be806100136000396000f30060606040526000357c010000000000000000000000000000000000000000000000000000000090048063471407e614610044578063e37678761461007757610042565b005b6100616004803590602001803590602001803590602001506100b3565b6040518082815260200191505060405180910390f35b61008e600480359060200180359060200150610090565b005b8060006000506000848152602001908152602001600020600050819055505b5050565b6000818301905080506100c684826100d5565b8090506100ce565b9392505050565b3373ffffffffffffffffffffffffffffffffffffffff1660405180807f7265676973746572496e7428627974657333322c696e74290000000000000000815260200150601801905060405180910390207c0100000000000000000000000000000000000000000000000000000000809104027c010000000000000000000000000000000000000000000000000000000090048383604051837c010000000000000000000000000000000000000000000000000000000002815260040180838152602001828152602001925050506000604051808303816000876161da5a03f192505050505b505056",
      "r": "0x5147a6f89edd3b88d5abca801c5209b7c69f85637235595adc37c34753b265a7",
      "s": "0x0c94f47d3b794aacc717c62c96e3022e3c9b6a6ad0f74c5c7fe31dcba64062e9",
      "v": 28,
      "creates": "0xaFdacfEe6395Bc1E480A900943F1803F854BC20e",
      "raw": "0xf902240d850ce83506fc830f42408080b901d160606040526101be806100136000396000f30060606040526000357c010000000000000000000000000000000000000000000000000000000090048063471407e614610044578063e37678761461007757610042565b005b6100616004803590602001803590602001803590602001506100b3565b6040518082815260200191505060405180910390f35b61008e600480359060200180359060200150610090565b005b8060006000506000848152602001908152602001600020600050819055505b5050565b6000818301905080506100c684826100d5565b8090506100ce565b9392505050565b3373ffffffffffffffffffffffffffffffffffffffff1660405180807f7265676973746572496e7428627974657333322c696e74290000000000000000815260200150601801905060405180910390207c0100000000000000000000000000000000000000000000000000000000809104027c010000000000000000000000000000000000000000000000000000000090048383604051837c010000000000000000000000000000000000000000000000000000000002815260040180838152602001828152602001925050506000604051808303816000876161da5a03f192505050505b5050561ca05147a6f89edd3b88d5abca801c5209b7c69f85637235595adc37c34753b265a7a00c94f47d3b794aacc717c62c96e3022e3c9b6a6ad0f74c5c7fe31dcba64062e9",
      "networkId": 0,
      "chainId": 0
    }
  ]
}