{
  "hash": "0xd995d85576ba351a28fd8e3851a09673294e192411e7afe9cc8c842397a736e8",
  "parentHash": "0xdc69f561ce23234626e35473014645e8d9e6936fe5bedc83cb687092c2fcdcb5",
  "number": 48394,
  "timestamp": 1438956487,
  "nonce": "0x3a1dd55406e9a18c",
  "difficulty": 1455758110631,
  "gasLimit": {
    "_hex": "0x169c7"
  },
  "gasUsed": {
    "_hex": "0x5208"
  },
  "miner": "0x9746c7e1ef2bd21FF3997fa467593a89cb852BD0",
  "extraData": "0x476574682f76312e302e312f77696e646f77732f676f312e342e32",
  "transactions": [
    {
      "hash": "0x0bb5245608aedee1f9d8309eaf1a86eb7d3e8aca8168b19f11dde6ef749c5db1",
      "blockHash": "0xd995d85576ba351a28fd8e3851a09673294e192411e7afe9cc8c842397a736e8",
      "blockNumber": 48394,
      "transactionIndex": 0,
      "confirmations": null,
      "from": "0xB4524c95a7860E21840296A616244019421C4aBa",
      "gasPrice": {
        "_hex": "0xd2ba1ca3f"
      },
      "gasLimit": {
        "_hex": "0x15f90"
      },
      "to": "0xDf3435b39f96cA23a759D8B1eCC82ad9cE30CAAf",
      "value": {
        "_hex": "0x6c6b935b8bbd400000"
      },
      "nonce": 0,
      "data": "0x",
      "r": "0xec051b073ac64d6e272acb2b91a9f8be47a6acf20b363c713019b1b5fd3b863a",
      "s": "0x1b2eec83825473f3e6aa6fdc69522fe168f0e53bc720a5333a47694e46307643",
      "v": 28,
      "creates": null,
      "raw": "0xf86e80850d2ba1ca3f83015f9094df3435b39f96ca23a759d8b1ecc82ad9ce30caaf896c6b935b8bbd400000801ca0ec051b073ac64d6e272acb2b91a9f8be47a6acf20b363c713019b1b5fd3b863aa01b2eec83825473f3e6aa6fdc69522fe168f0e53bc720a5333a47694e46307643",
      "networkId": 0,
      "chainId": 0
    }
  ]
}