{
  "hash": "0x1728b43aae74c5a8034c8fab7485dcb6fd5b44d30651f680d114f9f293dab262",
  "parentHash": "0x503437ca447081a9c83ba1684db793dea765070299ac4795cbdb1716090002bd",
  "number": 74297,
  "timestamp": 1439383915,
  "nonce": "0x3ab38416bfa39fd6",
  "difficulty": 2205371529633,
  "gasLimit": {
    "_hex": "0x2fefd8"
  },
  "gasUsed": {
    "_hex": "0x5208"
  },
  "miner": "0x580992B51e3925e23280EfB93d3047C82f17E038",
  "extraData": "0x476574682f76312e302e312f6c696e75782f676f312e342e32",
  "transactions": [
    {
      "hash": "0x7859fdd6e2adf44835eb318b2edbf2fa65df51c893e2c937eb4f3ffd21639665",
      "blockHash": "0x1728b43aae74c5a8034c8fab7485dcb6fd5b44d30651f680d114f9f293dab262",
      "blockNumber": 74297,
      "transactionIndex": 0,
      "confirmations": null,
      "from": "0xe6A7a1d47ff21B6321162AEA7C6CB457D5476Bca",
      "gasPrice": {
        "_hex": "0xd5e42c4ab"
      },
      "gasLimit": {
        "_hex": "0x55f0"
      },
      "to": "0x625C91D2eC2873Db4773931f7DFeF46CC594b2c9",
      "value": {
        "_hex": "0x390fc8fef5641ee0"
      },
      "nonce": 986,
      "data": "0x",
      "r": "0x1df993c39f0e95c804c796b2bab308d5bec8e063fc4344299e83fdcfd3edf2b8",
      "s": "0x72021dc37d0587cd8e525d756a70b28bee0efd6acce93df2bd42059fd399ef19",
      "v": 27,
      "creates": null,
      "raw": "0xf86e8203da850d5e42c4ab8255f094625c91d2ec2873db4773931f7dfef46cc594b2c988390fc8fef5641ee0801ba01df993c39f0e95c804c796b2bab308d5bec8e063fc4344299e83fdcfd3edf2b8a072021dc37d0587cd8e525d756a70b28bee0efd6acce93df2bd42059fd399ef19",
      "networkId": 0,
      "chainId": 0
    }
  ]
}