{
  "hash": "0x1dbfa3bdf834cfa15015ab766ea368c4388011ccaf0932747e519ece725d4269",
  "parentHash": "0x8b23654615955e3310c720c98b898b36d4c25ace38241649e73307ee7100eada",
  "number": 46905,
  "timestamp": 1438931382,
  "nonce": "0x71c3b43cb92e1ad2",
  "difficulty": 1453885258980,
  "gasLimit": {
    "_hex": "0x8413"
  },
  "gasUsed": {
    "_hex": "0x5208"
  },
  "miner": "0xf927a40C8B7F6E07c5af7FA2155B4864a4112B13",
  "extraData": "0x476574682f76312e302e312f6c696e75782f676f312e342e32",
  "transactions": [
    {
      "hash": "0x4abad02e9638073ef4d3d053e44e380f5a3c05523d8f60f28a1dff05be8aa968",
      "blockHash": "0x1dbfa3bdf834cfa15015ab766ea368c4388011ccaf0932747e519ece725d4269",
      "blockNumber": 46905,
      "transactionIndex": 0,
      "confirmations": null,
      "from": "0xe6A7a1d47ff21B6321162AEA7C6CB457D5476Bca",
      "gasPrice": {
        "_hex": "0xe11ddd9ba"
      },
      "gasLimit": {
        "_hex": "0x5208"
      },
      "to": "0x60D6F4C21e8522D44158fe666Dba67B2328813f3",
      "value": {
        "_hex": "0x17806e0269d39f48"
      },
      "nonce": 17,
      "data": "0x",
      "r": "0x70d6a69ca69a344d2e12ce7e64914a80cc50bc18b1985c60207e742093af6dd0",
      "s": "0x1418fe0939ddf992947df6e6cb8508cc4d532204900581c370c7db9a03ce5595",
      "v": 28,
      "creates": null,
      "raw": "0xf86c11850e11ddd9ba8252089460d6f4c21e8522d44158fe666dba67b2328813f38817806e0269d39f48801ca070d6a69ca69a344d2e12ce7e64914a80cc50bc18b1985c60207e742093af6dd0a01418fe0939ddf992947df6e6cb8508cc4d532204900581c370c7db9a03ce5595",
      "networkId": 0,
      "chainId": 0
    }
  ]
}