{
  "hash": "0xac275166a28ae4575158916da67a28d67239a5cdd8d6d5f403d9cf330a16fb1c",
  "parentHash": "0xcb992b3609de1f2553d9a5c635c4fed13ae663b9cd06a05c240609ecd2ee8f3a",
  "number": 100033,
  "timestamp": 1439799614,
  "nonce": "0xcf9422d012bb5923",
  "difficulty": 3858691215781,
  "gasLimit": {
    "_hex": "0x2fefd8"
  },
  "gasUsed": {
    "_hex": "0x5208"
  },
  "miner": "0xe6A7a1d47ff21B6321162AEA7C6CB457D5476Bca",
  "extraData": "0x476574682f76312e302e312d38326566323666362f6c696e75782f676f312e34",
  "transactions": [
    {
      "hash": "0xde3b908629bf2477498bfc9e1ed1c6bfbd828bfe58c2338aa552344a7106f214",
      "blockHash": "0xac275166a28ae4575158916da67a28d67239a5cdd8d6d5f403d9cf330a16fb1c",
      "blockNumber": 100033,
      "transactionIndex": 0,
      "confirmations": null,
      "from": "0xAF654b2845616930f74573a909B477E23752DcA4",
      "gasPrice": {
        "_hex": "0xba43b7400"
      },
      "gasLimit": {
        "_hex": "0x5265"
      },
      "to": "0x014e478251F22a79fA7014f285647d91462A9669",
      "value": {
        "_hex": "0xb5cc8c97dd9e0000"
      },
      "nonce": 9,
      "data": "0x",
      "r": "0xb02573abcb92dd6a114c177ff3ff5c9d83989fb2b95a1f9ff41d6f13c3584df1",
      "s": "0x439a74489546ebd01a0803f8a81f1f9fe5f834bebdcf9d35fef57b0ce8dae9e8",
      "v": 28,
      "creates": null,
      "raw": "0xf86c09850ba43b740082526594014e478251f22a79fa7014f285647d91462a966988b5cc8c97dd9e0000801ca0b02573abcb92dd6a114c177ff3ff5c9d83989fb2b95a1f9ff41d6f13c3584df1a0439a74489546ebd01a0803f8a81f1f9fe5f834bebdcf9d35fef57b0ce8dae9e8",
      "networkId": 0,
      "chainId": 0
    }
  ]
}