{
  "hash": "0xd1f9d5bc475b71234e03fac8733f2f8910d9264990c796539ea20f60e61c26f3",
  "parentHash": "0xc3851df648a9493aec7d0421b42439205a69c9a33f4b2610f9173673981e188c",
  "number": 119652,
  "timestamp": 1440146520,
  "nonce": "0xe0184992788f2fd7",
  "difficulty": 4385748906354,
  "gasLimit": {
    "_hex": "0x2fefd8"
  },
  "gasUsed": {
    "_hex": "0xf618"
  },
  "miner": "0xe6A7a1d47ff21B6321162AEA7C6CB457D5476Bca",
  "extraData": "0xd783010002844765746887676f312e342e32856c696e7578",
  "transactions": [
    {
      "hash": "0x9aab6fb3401ed87142847b6a3d0fb0ae44c7f2760aaf9f28d5980e7b4dd78958",
      "blockHash": "0xd1f9d5bc475b71234e03fac8733f2f8910d9264990c796539ea20f60e61c26f3",
      "blockNumber": 119652,
      "transactionIndex": 0,
      "confirmations": null,
      "from": "0x94045ffcd478a2F8719D1bAA44674971afE4D38A",
      "gasPrice": {
        "_hex": "0xcd01555c5"
      },
      "gasLimit": {
        "_hex": "0x15f90"
      },
      "to": "0x99EeA495a82E66C97304a6b07FA8Cb29eeb781A5",
      "value": {
        "_hex": "0xbf8372e26c640000"
      },
      "nonce": 2,
      "data": "0x",
      "r": "0x8b79ecb3faae9bea9ff3a508260dad60f35528f279fb0d76484012bb85b042cb",
      "s": "0x168e37a2b2ce089473829365781c51e8fdc3ebda517c0b9ef588417e37db9295",
      "v": 28,
      "creates": null,
      "raw": "0xf86d02850cd01555c583015f909499eea495a82e66c97304a6b07fa8cb29eeb781a588bf8372e26c640000801ca08b79ecb3faae9bea9ff3a508260dad60f35528f279fb0d76484012bb85b042cba0168e37a2b2ce089473829365781c51e8fdc3ebda517c0b9ef588417e37db9295",
      "networkId": 0,
      "chainId": 0
    },
    {
      "hash": "0x991f0a7c12ed3f6f42c5407f837a3612496fa88224677542d3d1a7b62d28e0c7",
      "blockHash": "0xd1f9d5bc475b71234e03fac8733f2f8910d9264990c796539ea20f60e61c26f3",
      "blockNumber": 119652,
      "transactionIndex": 1,
      "confirmations": null,
      "from": "0xC99478b218E58F45783fA70f0507cf614938E67d",
      "gasPrice": {
        "_hex": "0xba43b7400"
      },
      "gasLimit": {
        "_hex": "0x15f90"
      },
      "to": "0xC3fe64D1af00F0d9c324E4387EF7533f7D788e95",
      "value": {
        "_hex": "0x185f7411eac7a0000"
      },
      "nonce": 24,
      "data": "0x",
      "r": "0x8fae39e76e7433f624976a72f83c4819fb9fad718e7b306ee2a23d7b29e68e42",
      "s": "0x3b6b9d22205d2944d8f1b5ca297bb4a35eadac9434824f2afa2405681f36d080",
      "v": 27,
      "creates": null,
      "raw": "0xf86e18850ba43b740083015f9094c3fe64d1af00f0d9c324e4387ef7533f7d788e95890185f7411eac7a0000801ba08fae39e76e7433f624976a72f83c4819fb9fad718e7b306ee2a23d7b29e68e42a03b6b9d22205d2944d8f1b5ca297bb4a35eadac9434824f2afa2405681f36d080",
      "networkId": 0,
      "chainId": 0
    },
    {
      "hash": "0xb105559e619f43ce1e69cc31ed82fd69fec285d513430d2665a4d787a372a61d",
      "blockHash": "0xd1f9d5bc475b71234e03fac8733f2f8910d9264990c796539ea20f60e61c26f3",
      "blockNumber": 119652,
      "transactionIndex": 2,
      "confirmations": null,
      "from": "0xa453AcECDf4a4ba4FF7f6020064604c84e297Fb1",
      "gasPrice": {
        "_hex": "0xba43b7400"
      },
      "gasLimit": {
        "_hex": "0x5208"
      },
      "to": "0xFBb1b73C4f0BDa4f67dcA266ce6Ef42f520fBB98",
      "value": {
        "_hex": "0x821a7524be7946000"
      },
      "nonce": 2,
      "data": "0x",
      "r": "0x97369917cd5dc6d368bbcc286f2570124f7a7420dc1015bb45c61530d4de1eef",
      "s": "0x5a740edb1ff99c102a8038f5905e62636b8765bffcd395bc3ba3e04add084d4e",
      "v": 27,
      "creates": null,
      "raw": "0xf86d02850ba43b740082520894fbb1b73c4f0bda4f67dca266ce6ef42f520fbb98890821a7524be7946000801ba097369917cd5dc6d368bbcc286f2570124f7a7420dc1015bb45c61530d4de1eefa05a740edb1ff99c102a8038f5905e62636b8765bffcd395bc3ba3e04add084d4e",
      "networkId": 0,
      "chainId": 0
    }
  ]
}