{
  "hash": "0xde7be65307c4ebca980f3ed4c3acd900a735784b8efc19064e906ffcf83a7270",
  "parentHash": "0xf9f6703ac7ffdf60673667d3cfc34b9a88fcf7641aa509cf2c9677b940b2d107",
  "number": 74580,
  "timestamp": 1439388540,
  "nonce": "0xc9ec206ed6422930",
  "difficulty": 2208529913117,
  "gasLimit": {
    "_hex": "0x2fefd8"
  },
  "gasUsed": {
    "_hex": "0x5208"
  },
  "miner": "0x5F8F73E26CdF436f19Cb24C82F90A15AFe55b592",
  "extraData": "0x476574682f76312e302e312f77696e646f77732f676f312e342e32",
  "transactions": [
    {
      "hash": "0x23efc65acedc2cace7e4ee3d02e1781ac4679fa03d626fbca6e72e3333d04487",
      "blockHash": "0xde7be65307c4ebca980f3ed4c3acd900a735784b8efc19064e906ffcf83a7270",
      "blockNumber": 74580,
      "transactionIndex": 0,
      "confirmations": null,
      "from": "0x7339BF89A60F8a29d0Ed436F3198774F8e191f37",
      "gasPrice": {
        "_hex": "0xd779ffee7"
      },
      "gasLimit": {
        "_hex": "0x5208"
      },
      "to": "0x32Be343B94f860124dC4fEe278FDCBD38C102D88",
      "value": {
        "_hex": "0xddc5ac074405000"
      },
      "nonce": 0,
      "data": "0x",
      "r": "0xd62667713ca067a58e95f1ffc21c8638313daeaf3008b70d9244735a1bcadc81",
      "s": "0x436434d016ed324df72da86075d39165a8534a8671f567de9dd9b0f43b40b812",
      "v": 28,
      "creates": null,
      "raw": "0xf86c80850d779ffee78252089432be343b94f860124dc4fee278fdcbd38c102d88880ddc5ac074405000801ca0d62667713ca067a58e95f1ffc21c8638313daeaf3008b70d9244735a1bcadc81a0436434d016ed324df72da86075d39165a8534a8671f567de9dd9b0f43b40b812",
      "networkId": 0,
      "chainId": 0
    }
  ]
}