{
  "hash": "0x0966b100d955ebee9edc37c415a2831f8d3819b720e1c431d2c491380ff8cab3",
  "parentHash": "0x082401d409650d5ec28c563c341c77ef8b7784b57d521d66989a47f512f8f32d",
  "number": 76168,
  "timestamp": 1439415940,
  "nonce": "0x8e30d215d1f64c9e",
  "difficulty": 2238508214192,
  "gasLimit": {
    "_hex": "0x2fefd8"
  },
  "gasUsed": {
    "_hex": "0xa410"
  },
  "miner": "0xe6A7a1d47ff21B6321162AEA7C6CB457D5476Bca",
  "extraData": "0x476574682f76312e302e312d38326566323666362f6c696e75782f676f312e34",
  "transactions": [
    {
      "hash": "0xa1ab6c4e9c887796cfd3b82ea607c387ba831643787cddd4570b5cccec2d6c14",
      "blockHash": "0x0966b100d955ebee9edc37c415a2831f8d3819b720e1c431d2c491380ff8cab3",
      "blockNumber": 76168,
      "transactionIndex": 0,
      "confirmations": null,
      "from": "0x9bc6B0dEB59eF75AeDe905EBa5a779514F43D409",
      "gasPrice": {
        "_hex": "0xde46ee1eb"
      },
      "gasLimit": {
        "_hex": "0x5208"
      },
      "to": "0x32Be343B94f860124dC4fEe278FDCBD38C102D88",
      "value": {
        "_hex": "0x6be0c7d01e38940000"
      },
      "nonce": 3,
      "data": "0x",
      "r": "0xb6ef11dae1be2358c11854ab1efe30ecf8cc21bc86078178be4eda1dd9ce7277",
      "s": "0x2d1f353eacc6cc4d4d28ee178585906e8eb63eb422cd434d6751a43fe76f8d07",
      "v": 28,
      "creates": null,
      "raw": "0xf86d03850de46ee1eb8252089432be343b94f860124dc4fee278fdcbd38c102d88896be0c7d01e38940000801ca0b6ef11dae1be2358c11854ab1efe30ecf8cc21bc86078178be4eda1dd9ce7277a02d1f353eacc6cc4d4d28ee178585906e8eb63eb422cd434d6751a43fe76f8d07",
      "networkId": 0,
      "chainId": 0
    },
    {
      "hash": "0x5e6a968349bcd2b2698319cbd727cecd43847340a5d708c96a104b93fa9bcd21",
      "blockHash": "0x0966b100d955ebee9edc37c415a2831f8d3819b720e1c431d2c491380ff8cab3",
      "blockNumber": 76168,
      "transactionIndex": 1,
      "confirmations": null,
      "from": "0xa6BDc31c431B8F97848c9D60cbbe9660dc450eB7",
      "gasPrice": {
        "_hex": "0xde46ee1eb"
      },
      "gasLimit": {
        "_hex": "0x5208"
      },
      "to": "0x32Be343B94f860124dC4fEe278FDCBD38C102D88",
      "value": {
        "_hex": "0x4612332a880ddc00"
      },
      "nonce": 12,
      "data": "0x",
      "r": "0xddc2ec2b2b0bfeb1ae0aece3afa87219343d1b15204683792967461dcb8af057",
      "s": "0x65ff5c5021f3097efe79b5749c533fe313081cc1fd82e60f6fb4e8eb36c91f4d",
      "v": 28,
      "creates": null,
      "raw": "0xf86c0c850de46ee1eb8252089432be343b94f860124dc4fee278fdcbd38c102d88884612332a880ddc00801ca0ddc2ec2b2b0bfeb1ae0aece3afa87219343d1b15204683792967461dcb8af057a065ff5c5021f3097efe79b5749c533fe313081cc1fd82e60f6fb4e8eb36c91f4d",
      "networkId": 0,
      "chainId": 0
    }
  ]
}