{
  "hash": "0x9b1f41c76c94cd2482ab3eb397a7a84eedd07a03975ae1a7ccc071632e4120b3",
  "parentHash": "0x8ba937aee9259a61565d7a419d8a4f395963d96d80f0c6129c757ac242d24012",
  "number": 72378,
  "timestamp": 1439351735,
  "nonce": "0x0a7871f428e86468",
  "difficulty": 2189778795693,
  "gasLimit": {
    "_hex": "0x2fefd8"
  },
  "gasUsed": {
    "_hex": "0x5511"
  },
  "miner": "0xe6A7a1d47ff21B6321162AEA7C6CB457D5476Bca",
  "extraData": "0x476574682f76312e302e312d38326566323666362f6c696e75782f676f312e34",
  "transactions": [
    {
      "hash": "0xc3a94fc13c709a8378876f7e5b8217980eab27e8af4428417f0cf76a31f86494",
      "blockHash": "0x9b1f41c76c94cd2482ab3eb397a7a84eedd07a03975ae1a7ccc071632e4120b3",
      "blockNumber": 72378,
      "transactionIndex": 0,
      "confirmations": null,
      "from": "0xc30F3e11B4f34259ce948A5558F73f64fDc9Ed7B",
      "gasPrice": {
        "_hex": "0xd5c4185fe"
      },
      "gasLimit": {
        "_hex": "0x15f90"
      },
      "to": "0x793AE8C1b1a160BFc07BFB0d04F85eab1A71F4f2",
      "value": {
        "_hex": "0x0"
      },
      "nonce": 0,
      "data": "0x3ba15036",
      "r": "0x1feea12471dcbcf95c5b3e98efbb1b8347f695e645bd7ef6b39a0ab46a8e50a7",
      "s": "0x7b94871355ef247bf18fa035f8f9a77f8ecea97d16e720032666cdfca35ceb03",
      "v": 28,
      "creates": null,
      "raw": "0xf86980850d5c4185fe83015f9094793ae8c1b1a160bfc07bfb0d04f85eab1a71f4f280843ba150361ca01feea12471dcbcf95c5b3e98efbb1b8347f695e645bd7ef6b39a0ab46a8e50a7a07b94871355ef247bf18fa035f8f9a77f8ecea97d16e720032666cdfca35ceb03",
      "networkId": 0,
      "chainId": 0
    }
  ]
}