{
  "hash": "0x957966abdb6ad9f46c421f47f2a5c102d0ea87814527df4e195ec5308d734af1",
  "parentHash": "0x582e5fff3dcefa8f40124d606c840fe7eb4a6472cc823b81b0fe7a59de73bd3d",
  "number": 73589,
  "timestamp": 1439371534,
  "nonce": "0x37f3dd4ef99881bc",
  "difficulty": 2227201834475,
  "gasLimit": {
    "_hex": "0x2fefd8"
  },
  "gasUsed": {
    "_hex": "0x5208"
  },
  "miner": "0xeB1325C8D9d3ea8D74aC11F4B00F1B2367686319",
  "extraData": "0x476574682f76312e302e312f77696e646f77732f676f312e342e32",
  "transactions": [
    {
      "hash": "0x9e7769f855a1db6cf56f922a60c56a860f6c1076c4000545c5be3f84564e1310",
      "blockHash": "0x957966abdb6ad9f46c421f47f2a5c102d0ea87814527df4e195ec5308d734af1",
      "blockNumber": 73589,
      "transactionIndex": 0,
      "confirmations": null,
      "from": "0x32Be343B94f860124dC4fEe278FDCBD38C102D88",
      "gasPrice": {
        "_hex": "0xd34cddc93"
      },
      "gasLimit": {
        "_hex": "0x5208"
      },
      "to": "0x932B45e862C96E06CcBd1dd61B3045D41CC5eB53",
      "value": {
        "_hex": "0xdbd2fc137a30000"
      },
      "nonce": 293,
      "data": "0x",
      "r": "0x19ae2ac0d15cbb740a99308cd230e0c1c8d574d92b88467e836927a1a895f81e",
      "s": "0x0c7f408d423e9750b83f90309a279c25ba8c36b1f798aa67d5452f8c6c976b4c",
      "v": 27,
      "creates": null,
      "raw": "0xf86e820125850d34cddc9382520894932b45e862c96e06ccbd1dd61b3045d41cc5eb53880dbd2fc137a30000801ba019ae2ac0d15cbb740a99308cd230e0c1c8d574d92b88467e836927a1a895f81ea00c7f408d423e9750b83f90309a279c25ba8c36b1f798aa67d5452f8c6c976b4c",
      "networkId": 0,
      "chainId": 0
    }
  ]
}