{
  "hash": "0xfd8b114f857ed2c639a846a48418a47ca4c240e9264bb6a1e92c1a9dc9fbd096",
  "parentHash": "0x533045046b848ae0d4aaf72e7c0bb6fadb6a88422ae596b5ea50d3e4f2335493",
  "number": 107757,
  "timestamp": 1439928371,
  "nonce": "0xb97b3136430f5245",
  "difficulty": 4359922032733,
  "gasLimit": {
    "_hex": "0x2fefd8"
  },
  "gasUsed": {
    "_hex": "0x5208"
  },
  "miner": "0x7E6930B63D03e88F5928C5cd6ee3FCee4D714F7F",
  "extraData": "0x",
  "transactions": [
    {
      "hash": "0x153f95469c6fbbba088b2448d70290410755bc8d5f975f017875afddde40848c",
      "blockHash": "0xfd8b114f857ed2c639a846a48418a47ca4c240e9264bb6a1e92c1a9dc9fbd096",
      "blockNumber": 107757,
      "transactionIndex": 0,
      "confirmations": null,
      "from": "0xa6BDc31c431B8F97848c9D60cbbe9660dc450eB7",
      "gasPrice": {
        "_hex": "0xd85df88c7"
      },
      "gasLimit": {
        "_hex": "0x5208"
      },
      "to": "0x32Be343B94f860124dC4fEe278FDCBD38C102D88",
      "value": {
        "_hex": "0x455f46591f8e6800"
      },
      "nonce": 183,
      "data": "0x",
      "r": "0x666893200a184473f5cafca7cba14029a0250f1a9fd99e80b973d22a0808ec40",
      "s": "0x74fc129310ca23f9dc9acce5e1a9e3357654c727ea380752fc6be118335406c3",
      "v": 28,
      "creates": null,
      "raw": "0xf86d81b7850d85df88c78252089432be343b94f860124dc4fee278fdcbd38c102d8888455f46591f8e6800801ca0666893200a184473f5cafca7cba14029a0250f1a9fd99e80b973d22a0808ec40a074fc129310ca23f9dc9acce5e1a9e3357654c727ea380752fc6be118335406c3",
      "networkId": 0,
      "chainId": 0
    }
  ]
}