{
  "hash": "0xb6c307fa401764a05fa1865b416dae26910858f57f1f89123ae20fc9e27fdc84",
  "parentHash": "0x95fbee88ff4bdf537367f7cda72735890ba818e2c194c0e0ccbc512a52dd8dbe",
  "number": 73894,
  "timestamp": 1439377004,
  "nonce": "0xc1701d70d0488054",
  "difficulty": 2221690182210,
  "gasLimit": {
    "_hex": "0x2fefd8"
  },
  "gasUsed": {
    "_hex": "0x5208"
  },
  "miner": "0xe6A7a1d47ff21B6321162AEA7C6CB457D5476Bca",
  "extraData": "0x476574682f76312e302e312d38326566323666362f6c696e75782f676f312e34",
  "transactions": [
    {
      "hash": "0x5af72f49a383a15bf284d4bc477b65c773d15148f067a10de70a090f28416b87",
      "blockHash": "0xb6c307fa401764a05fa1865b416dae26910858f57f1f89123ae20fc9e27fdc84",
      "blockNumber": 73894,
      "transactionIndex": 0,
      "confirmations": null,
      "from": "0x81530faf791ddB4aC3b8d89808877409e3EBA611",
      "gasPrice": {
        "_hex": "0xd7d40ace3"
      },
      "gasLimit": {
        "_hex": "0x15f90"
      },
      "to": "0xC25f24A505b8fEF751D8f4FCc397651001F7a160",
      "value": {
        "_hex": "0x45400a8fd5330000"
      },
      "nonce": 0,
      "data": "0x",
      "r": "0x70ee839de6bb208d559bd4932b3503d4bb823866b785bf747cd9b53be9e9b133",
      "s": "0x4d17f8a1ea55dbbcf7d51b46f82b38926bd3d94a145a7b4e6802c1a309b0eba4",
      "v": 28,
      "creates": null,
      "raw": "0xf86d80850d7d40ace383015f9094c25f24a505b8fef751d8f4fcc397651001f7a1608845400a8fd5330000801ca070ee839de6bb208d559bd4932b3503d4bb823866b785bf747cd9b53be9e9b133a04d17f8a1ea55dbbcf7d51b46f82b38926bd3d94a145a7b4e6802c1a309b0eba4",
      "networkId": 0,
      "chainId": 0
    }
  ]
}