{
  "hash": "0xef91950058f543d7201d5f62d720153d68906a95b80593e1a97e6ac534fabb62",
  "parentHash": "0xb2f4e9b25f53ee1dac3667be2d7fd0b9aa825f39b6d2b729bf0d4249c68494db",
  "number": 73153,
  "timestamp": 1439363921,
  "nonce": "0x4ee654ed28f17be8",
  "difficulty": 2225143543583,
  "gasLimit": {
    "_hex": "0x2fefd8"
  },
  "gasUsed": {
    "_hex": "0x5208"
  },
  "miner": "0x55bAf64fc9eAccFFd7Cc643BB61142E1C6ac093e",
  "extraData": "0x",
  "transactions": [
    {
      "hash": "0x76137205f83e915d2eb105a6e822e082bdb67c1f0b5c1feb335f9126b76f4282",
      "blockHash": "0xef91950058f543d7201d5f62d720153d68906a95b80593e1a97e6ac534fabb62",
      "blockNumber": 73153,
      "transactionIndex": 0,
      "confirmations": null,
      "from": "0xDa2Bee57D678525f6d3E09F49D1786cFEaa1B290",
      "gasPrice": {
        "_hex": "0xd6bd60364"
      },
      "gasLimit": {
        "_hex": "0x15f90"
      },
      "to": "0x8566f68Aee274dF135ee5A619ea3b17437121fC4",
      "value": {
        "_hex": "0x7ce66c50e2840000"
      },
      "nonce": 2,
      "data": "0x",
      "r": "0x3e752952753275ebdbc85fcc4eb34e075d46c046121e6e2198e544b9e8de8fef",
      "s": "0x0dcdded3597f8e707af785ec9a525996ca66e661435cd416edaf75d890bc5ecf",
      "v": 27,
      "creates": null,
      "raw": "0xf86d02850d6bd6036483015f90948566f68aee274df135ee5a619ea3b17437121fc4887ce66c50e2840000801ba03e752952753275ebdbc85fcc4eb34e075d46c046121e6e2198e544b9e8de8fefa00dcdded3597f8e707af785ec9a525996ca66e661435cd416edaf75d890bc5ecf",
      "networkId": 0,
      "chainId": 0
    }
  ]
}