{
  "hash": "0xe8bd7ca29aa010daeb579cc61d578f657dfd4f0e6a53f071eb4d857b7cb1580c",
  "parentHash": "0xef8644ec9e5c6f841724051fc5a6a0b86982aaedec231892e58e9d40afdf1439",
  "number": 116312,
  "timestamp": 1440071947,
  "nonce": "0xa4198f33fc74765d",
  "difficulty": 4589083987196,
  "gasLimit": {
    "_hex": "0x2fefd8"
  },
  "gasUsed": {
    "_hex": "0x5208"
  },
  "miner": "0x52bc44d5378309EE2abF1539BF71dE1b7d7bE3b5",
  "extraData": "0x476574682f76312e302e312d65626434373230372f6c696e75782f676f312e34",
  "transactions": [
    {
      "hash": "0x42741f03fe7a5b70a5371d5511d537117878e940d2ff6651717156ee0399ce2f",
      "blockHash": "0xe8bd7ca29aa010daeb579cc61d578f657dfd4f0e6a53f071eb4d857b7cb1580c",
      "blockNumber": 116312,
      "transactionIndex": 0,
      "confirmations": null,
      "from": "0x4E66F49aAbe24B61cC417cf717BCd89862C69372",
      "gasPrice": {
        "_hex": "0xdd5d60ba4"
      },
      "gasLimit": {
        "_hex": "0x15f90"
      },
      "to": "0xD9176cf582B2f51fAD57941e0a84dfBa0Ed3620D",
      "value": {
        "_hex": "0x81c1df7629e700000"
      },
      "nonce": 3,
      "data": "0x",
      "r": "0x1bd6e8ce2cea04c6cf244bfd8df1af7ecf4fcd479951baa68a5f85db95e42f54",
      "s": "0x28d3c483b7ba2a5387c17b74d641adee6fe23d35b9267685fc0c55eb476d9be0",
      "v": 28,
      "creates": null,
      "raw": "0xf86e03850dd5d60ba483015f9094d9176cf582b2f51fad57941e0a84dfba0ed3620d89081c1df7629e700000801ca01bd6e8ce2cea04c6cf244bfd8df1af7ecf4fcd479951baa68a5f85db95e42f54a028d3c483b7ba2a5387c17b74d641adee6fe23d35b9267685fc0c55eb476d9be0",
      "networkId": 0,
      "chainId": 0
    }
  ]
}