{
  "hash": "0x43d875ec7d59dbc51296d6fa0f96d2d8fdcb53af7b3842ce03391bf2fbb8744a",
  "parentHash": "0xf5a0a7ded7a8da4792b8867bc5ad359111f28c2fb8c2e0ab9f2bd0543180c2e3",
  "number": 119920,
  "timestamp": 1440150845,
  "nonce": "0x6783d44afddfc598",
  "difficulty": 4424324071406,
  "gasLimit": {
    "_hex": "0x2fefd8"
  },
  "gasUsed": {
    "_hex": "0x5208"
  },
  "miner": "0xe6A7a1d47ff21B6321162AEA7C6CB457D5476Bca",
  "extraData": "0xd783010002844765746887676f312e342e32856c696e7578",
  "transactions": [
    {
      "hash": "0x7ea7c6c3c356e50e104ddd9effc66928ae7688ceb7bc0459072f921d0aa0cf63",
      "blockHash": "0x43d875ec7d59dbc51296d6fa0f96d2d8fdcb53af7b3842ce03391bf2fbb8744a",
      "blockNumber": 119920,
      "transactionIndex": 0,
      "confirmations": null,
      "from": "0x11AA265966dFdDfDC4fA42a83C305f6EcbE9588a",
      "gasPrice": {
        "_hex": "0xba43b7400"
      },
      "gasLimit": {
        "_hex": "0x5208"
      },
      "to": "0x32Be343B94f860124dC4fEe278FDCBD38C102D88",
      "value": {
        "_hex": "0x2411534153006000"
      },
      "nonce": 8,
      "data": "0x",
      "r": "0x9fb1160e6c41a0fa7d3c3b77472938d728e1a3517f6ce1d30e459813f15d22e3",
      "s": "0x3dd161bc7ed624c62274384939a425eddd82ef158bfad39de3a108ebf5f71c50",
      "v": 27,
      "creates": null,
      "raw": "0xf86c08850ba43b74008252089432be343b94f860124dc4fee278fdcbd38c102d88882411534153006000801ba09fb1160e6c41a0fa7d3c3b77472938d728e1a3517f6ce1d30e459813f15d22e3a03dd161bc7ed624c62274384939a425eddd82ef158bfad39de3a108ebf5f71c50",
      "networkId": 0,
      "chainId": 0
    }
  ]
}