{
  "hash": "0xcb5c0e5082f32ad2c6a30a046a403149068e46e5a53212617854c9e42687d825",
  "parentHash": "0x84588e1a84f3a4db7d90a947f56f650c6056051f2c3f75a01756fe5c8220d637",
  "number": 120618,
  "timestamp": 1440163120,
  "nonce": "0xab0de45eb7af8b6a",
  "difficulty": 4419637786152,
  "gasLimit": {
    "_hex": "0x2fefd8"
  },
  "gasUsed": {
    "_hex": "0xa410"
  },
  "miner": "0xe6A7a1d47ff21B6321162AEA7C6CB457D5476Bca",
  "extraData": "0xd783010002844765746887676f312e342e32856c696e7578",
  "transactions": [
    {
      "hash": "0xed63162ed60c05e12dbc69a3c0a9dfcea8693dafcf821bd8f78dbf66b6af8163",
      "blockHash": "0xcb5c0e5082f32ad2c6a30a046a403149068e46e5a53212617854c9e42687d825",
      "blockNumber": 120618,
      "transactionIndex": 0,
      "confirmations": null,
      "from": "0x55e64970e28367941E1A28e3Adaea732534A3C10",
      "gasPrice": {
        "_hex": "0xba43b7400"
      },
      "gasLimit": {
        "_hex": "0x15f90"
      },
      "to": "0x31191beEB5a3d7f5eBC5B193e98bd15ce10Eb249",
      "value": {
        "_hex": "0x2e7d97403d8f0000"
      },
      "nonce": 4,
      "data": "0x",
      "r": "0x49f41d2632e29665e04c9b2dbdb37615949d39c8d26eac4753d3001e3a59937c",
      "s": "0x755dd97925a2de573f349b34664f332079f0cee932a9aa63d6ee80e700116efd",
      "v": 28,
      "creates": null,
      "raw": "0xf86d04850ba43b740083015f909431191beeb5a3d7f5ebc5b193e98bd15ce10eb249882e7d97403d8f0000801ca049f41d2632e29665e04c9b2dbdb37615949d39c8d26eac4753d3001e3a59937ca0755dd97925a2de573f349b34664f332079f0cee932a9aa63d6ee80e700116efd",
      "networkId": 0,
      "chainId": 0
    },
    {
      "hash": "0xb1af368666300527058d2dc58598511b195eb89646db16aacfe8c0e78539d467",
      "blockHash": "0xcb5c0e5082f32ad2c6a30a046a403149068e46e5a53212617854c9e42687d825",
      "blockNumber": 120618,
      "transactionIndex": 1,
      "confirmations": null,
      "from": "0x608f4b86321a68453f9adf6F06F7Fc3E621739ad",
      "gasPrice": {
        "_hex": "0xba43b7400"
      },
      "gasLimit": {
        "_hex": "0x5208"
      },
      "to": "0x32Be343B94f860124dC4fEe278FDCBD38C102D88",
      "value": {
        "_hex": "0x455fd68a17f06000"
      },
      "nonce": 73,
      "data": "0x",
      "r": "0x78f007194fbed64bac1e77b589868c916e3f38d469e55a7c186b63f39da29c01",
      "s": "0x4cffd866fb0b95a34faa156b9f624a512162fa3b53effc04112e5921ea1366cf",
      "v": 28,
      "creates": null,
      "raw": "0xf86c49850ba43b74008252089432be343b94f860124dc4fee278fdcbd38c102d8888455fd68a17f06000801ca078f007194fbed64bac1e77b589868c916e3f38d469e55a7c186b63f39da29c01a04cffd866fb0b95a34faa156b9f624a512162fa3b53effc04112e5921ea1366cf",
      "networkId": 0,
      "chainId": 0
    }
  ]
}