{
  "hash": "0x3fa0f6f454a6fc56ea28c92e2d0b3dac14ef9a77c0b6905a4b3a2fa221eae44d",
  "parentHash": "0xff254ccca8bab3d3296b5d8ef9aa602919aa70e3f5c631e4700764aa887bf344",
  "number": 47883,
  "timestamp": 1438947917,
  "nonce": "0xce9cc89ee8e30b4e",
  "difficulty": 1453715765173,
  "gasLimit": {
    "_hex": "0x10128"
  },
  "gasUsed": {
    "_hex": "0x5208"
  },
  "miner": "0x88F859e1F0A7C49985f0dDEa95d97c6C93435320",
  "extraData": "0x476574682f76312e302e302f77696e646f77732f676f312e342e32",
  "transactions": [
    {
      "hash": "0x8305a54ecbfb5713579a49477607d220f2822239db929551c58adb35f68f7555",
      "blockHash": "0x3fa0f6f454a6fc56ea28c92e2d0b3dac14ef9a77c0b6905a4b3a2fa221eae44d",
      "blockNumber": 47883,
      "transactionIndex": 0,
      "confirmations": null,
      "from": "0x5102A4a42077e11C58df4773e3Ac944623A66d9f",
      "gasPrice": {
        "_hex": "0x1151384b501"
      },
      "gasLimit": {
        "_hex": "0x7918"
      },
      "to": "0x378ea1dc8edc19BAe82638029eA8752ce98BcFCD",
      "value": {
        "_hex": "0xde0b6b3a7640000"
      },
      "nonce": 1,
      "data": "0x",
      "r": "0xeec24ef7c3f7efbab9e96566f7b0b26cfe3465779039388b53fe8945b0ccfccf",
      "s": "0x02ef0065e4a7756ef2445a3bdd21f3138e754d10a1d91e23af25a9c688e73d76",
      "v": 27,
      "creates": null,
      "raw": "0xf86d018601151384b50182791894378ea1dc8edc19bae82638029ea8752ce98bcfcd880de0b6b3a7640000801ba0eec24ef7c3f7efbab9e96566f7b0b26cfe3465779039388b53fe8945b0ccfccfa002ef0065e4a7756ef2445a3bdd21f3138e754d10a1d91e23af25a9c688e73d76",
      "networkId": 0,
      "chainId": 0
    }
  ]
}