{
  "hash": "0xf7ff114c9eaabbab767c02936c660aa56425464845f968cd47a4501c7b53b9d0",
  "parentHash": "0x29d4f32fc09163a08d49c47f6da4e914eaa5190b5b88345dbbe363bb3da544a3",
  "number": 115045,
  "timestamp": 1440050678,
  "nonce": "0x4d1dc27d1a30d3e0",
  "difficulty": 4520826157433,
  "gasLimit": {
    "_hex": "0x2fefd8"
  },
  "gasUsed": {
    "_hex": "0x5208"
  },
  "miner": "0xEF247E639d49461D25F57e9362CadE3120910Ce0",
  "extraData": "0x476574682f76312e302e312f6c696e75782f676f312e342e32",
  "transactions": [
    {
      "hash": "0x436591c53f2abfa0f45a08534847d2916ad9f7ef0a13b656fd5ebe6c425521e1",
      "blockHash": "0xf7ff114c9eaabbab767c02936c660aa56425464845f968cd47a4501c7b53b9d0",
      "blockNumber": 115045,
      "transactionIndex": 0,
      "confirmations": null,
      "from": "0x6747f922385c9a6F9cfDf095F34345257DD597bE",
      "gasPrice": {
        "_hex": "0xba43b7400"
      },
      "gasLimit": {
        "_hex": "0x5208"
      },
      "to": "0xc8ebccC5F5689Fa8659d83713341e5aD19349448",
      "value": {
        "_hex": "0x429d069189e00000"
      },
      "nonce": 156,
      "data": "0x",
      "r": "0x7dbd6fdc29a7d126cf7026fabbddaaefe51986112368fcac630dfa69880b2d44",
      "s": "0x6da7790f51ae556817579a42c13467d7a8e7858a75f413a88b02cff4d199d44d",
      "v": 27,
      "creates": null,
      "raw": "0xf86d819c850ba43b740082520894c8ebccc5f5689fa8659d83713341e5ad1934944888429d069189e00000801ba07dbd6fdc29a7d126cf7026fabbddaaefe51986112368fcac630dfa69880b2d44a06da7790f51ae556817579a42c13467d7a8e7858a75f413a88b02cff4d199d44d",
      "networkId": 0,
      "chainId": 0
    }
  ]
}