{
  "hash": "0x228a9cb43351264eb15eaaeb6f1e7fd22f4e55995985ef700b81d652407675fe",
  "parentHash": "0x316d2bc857e98afd4082216c71656a5a5412475e9398362f672cd0fb6e5bdde6",
  "number": 101352,
  "timestamp": 1439821599,
  "nonce": "0x425bf750adb0bb8c",
  "difficulty": 3814998822158,
  "gasLimit": {
    "_hex": "0x2fefd8"
  },
  "gasUsed": {
    "_hex": "0xa414"
  },
  "miner": "0x580992B51e3925e23280EfB93d3047C82f17E038",
  "extraData": "0x476574682f76312e302e312f6c696e75782f676f312e342e32",
  "transactions": [
    {
      "hash": "0x6bd3865429199811cc3b7c784cd1c047c7faab178cd282f77304fdeeaaea46f0",
      "blockHash": "0x228a9cb43351264eb15eaaeb6f1e7fd22f4e55995985ef700b81d652407675fe",
      "blockNumber": 101352,
      "transactionIndex": 0,
      "confirmations": null,
      "from": "0x5FB181054Cdd53e106812529a8D545b2eC664E87",
      "gasPrice": {
        "_hex": "0x11138d9d5a7"
      },
      "gasLimit": {
        "_hex": "0x4cb2f"
      },
      "to": "0x60794423f500DD2F95327fA1ffE71E428D2C0636",
      "value": {
        "_hex": "0x2386f26fc10000"
      },
      "nonce": 1,
      "data": "0x",
      "r": "0x105914159cfaaa27a200eef313de34ac874ad9e227f4a0020e4ae7aed266e8eb",
      "s": "0x4a96753db9cb05718e083b99a682efed7d52884fd802cff2b9318ca0f12813d3",
      "v": 28,
      "creates": null,
      "raw": "0xf86d0186011138d9d5a78304cb2f9460794423f500dd2f95327fa1ffe71e428d2c0636872386f26fc10000801ca0105914159cfaaa27a200eef313de34ac874ad9e227f4a0020e4ae7aed266e8eba04a96753db9cb05718e083b99a682efed7d52884fd802cff2b9318ca0f12813d3",
      "networkId": 0,
      "chainId": 0
    },
    {
      "hash": "0xa5223f951367a1c3a8cf279f650dab20df2d5904aa34b3a6b30b10494b2d7c88",
      "blockHash": "0x228a9cb43351264eb15eaaeb6f1e7fd22f4e55995985ef700b81d652407675fe",
      "blockNumber": 101352,
      "transactionIndex": 1,
      "confirmations": null,
      "from": "0x60d85a32126130b225913C23dF4e5EF8b759fA09",
      "gasPrice": {
        "_hex": "0xd0e3e522b"
      },
      "gasLimit": {
        "_hex": "0x7530"
      },
      "to": "0xdDbddD1BBd38fFADE0305d30f02028D92e9f3Aa8",
      "value": {
        "_hex": "0x1bc16d674ec80000"
      },
      "nonce": 0,
      "data": "0x00",
      "r": "0x53d94936585df6c944fbfd98f1478c6f6b8ee3c2d969e7302622e6ad40ad9d99",
      "s": "0xcd536a603196effd78195ef9b1ade16664eb5703a702a25647cbdae5dd0b5b2a",
      "v": 27,
      "creates": null,
      "raw": "0xf86c80850d0e3e522b82753094ddbddd1bbd38ffade0305d30f02028d92e9f3aa8881bc16d674ec80000001ba053d94936585df6c944fbfd98f1478c6f6b8ee3c2d969e7302622e6ad40ad9d99a0cd536a603196effd78195ef9b1ade16664eb5703a702a25647cbdae5dd0b5b2a",
      "networkId": 0,
      "chainId": 0
    }
  ]
}