{
  "hash": "0xbd8954f7ef30d8c0ca5a8bb93450f31aa57d5503654051543c074e1aceeb684b",
  "parentHash": "0xd3be5a1101faba01b45e4179222076b82aa46046a49d2e44f3d0db348c79913e",
  "number": 104940,
  "timestamp": 1439878684,
  "nonce": "0x0ed9bcd2637b45ce",
  "difficulty": 4333789492032,
  "gasLimit": {
    "_hex": "0x2fefd8"
  },
  "gasUsed": {
    "_hex": "0x546c"
  },
  "miner": "0xe6A7a1d47ff21B6321162AEA7C6CB457D5476Bca",
  "extraData": "0x476574682f76312e302e312d38326566323666362f6c696e75782f676f312e34",
  "transactions": [
    {
      "hash": "0x164f151f2bdff4f4e4c1dc728ec39e8e159d225a58cf00b568d527bd301cf56f",
      "blockHash": "0xbd8954f7ef30d8c0ca5a8bb93450f31aa57d5503654051543c074e1aceeb684b",
      "blockNumber": 104940,
      "transactionIndex": 0,
      "confirmations": null,
      "from": "0xaff161740a6D909fE99c59a9b77945c91CC91448",
      "gasPrice": {
        "_hex": "0x110c8f7d8de"
      },
      "gasLimit": {
        "_hex": "0xc350"
      },
      "to": "0x2910543Af39abA0Cd09dBb2D50200b3E800A63D2",
      "value": {
        "_hex": "0x44004c09e76a0000"
      },
      "nonce": 1,
      "data": "0x454e31363157484730",
      "r": "0xf7162c23f16cb3e53cbc98a027fda2f6a1565c46332b96cea3f1bc5a1ccc3290",
      "s": "0x95e5d45118b9c4b0926f4568a7ef5d9ed8eab01a5bbb58d41a3ab07d57fb2110",
      "v": 27,
      "creates": null,
      "raw": "0xf87601860110c8f7d8de82c350942910543af39aba0cd09dbb2d50200b3e800a63d28844004c09e76a000089454e313631574847301ba0f7162c23f16cb3e53cbc98a027fda2f6a1565c46332b96cea3f1bc5a1ccc3290a095e5d45118b9c4b0926f4568a7ef5d9ed8eab01a5bbb58d41a3ab07d57fb2110",
      "networkId": 0,
      "chainId": 0
    }
  ]
}