{
  "hash": "0x3d4a014109003531d9663f47e8d54d1f87fad252892a94b697e917c5dc953373",
  "parentHash": "0x5334ec5f5b0d70ecc315e72e82f8c178e03ae7e0763113272d67f806ea746bb1",
  "number": 113815,
  "timestamp": 1440030025,
  "nonce": "0xa8e39bedaace77fd",
  "difficulty": 4447044947995,
  "gasLimit": {
    "_hex": "0x2fefd8"
  },
  "gasUsed": {
    "_hex": "0x5208"
  },
  "miner": "0xe6A7a1d47ff21B6321162AEA7C6CB457D5476Bca",
  "extraData": "0x476574682f76312e302e312d38326566323666362f6c696e75782f676f312e34",
  "transactions": [
    {
      "hash": "0x70f791b4206809afb1be40de04e73df0b3d24d818773bf2e68e1b34183b996bf",
      "blockHash": "0x3d4a014109003531d9663f47e8d54d1f87fad252892a94b697e917c5dc953373",
      "blockNumber": 113815,
      "transactionIndex": 0,
      "confirmations": null,
      "from": "0x58850Ab9442C06379DfFBf52e3EAA035f5D5E092",
      "gasPrice": {
        "_hex": "0x10041aab762"
      },
      "gasLimit": {
        "_hex": "0x15f90"
      },
      "to": "0x576F13DdEd1f2AD6B9D55EE8A1B67815ee7C92d9",
      "value": {
        "_hex": "0xae56f730e6d840000"
      },
      "nonce": 3,
      "data": "0x",
      "r": "0xb057cfcc943c66ab5269a12cb5f739295de3094208db1b71ecf490cc7ff22a75",
      "s": "0x5ef550c5af82eb84146c278d10b7bb6f3a9845c355b262224145a148d442b5fb",
      "v": 28,
      "creates": null,
      "raw": "0xf86f0386010041aab76283015f9094576f13dded1f2ad6b9d55ee8a1b67815ee7c92d9890ae56f730e6d840000801ca0b057cfcc943c66ab5269a12cb5f739295de3094208db1b71ecf490cc7ff22a75a05ef550c5af82eb84146c278d10b7bb6f3a9845c355b262224145a148d442b5fb",
      "networkId": 0,
      "chainId": 0
    }
  ]
}