{
  "hash": "0x42c18764fe588aa5a8b625bb2d6bfb7431942c8bd3fb018083e41688847ccbcc",
  "parentHash": "0x923524c95ec20000bb3629c820e4dd0380485f4d8ff38c026dcb26c2bbf8a117",
  "number": 98806,
  "timestamp": 1439779310,
  "nonce": "0x5ce844d9445f09fa",
  "difficulty": 3857371724742,
  "gasLimit": {
    "_hex": "0x2fefd8"
  },
  "gasUsed": {
    "_hex": "0xa410"
  },
  "miner": "0x007f7f58D3eb5b7510A301eCC749FC1fCDDBE14D",
  "extraData": "0x476574682f76312e302e312f77696e646f77732f676f312e342e32",
  "transactions": [
    {
      "hash": "0xd1494e566adfdc400423a7bd3007322d6c421c696efb322da6649c72901640e4",
      "blockHash": "0x42c18764fe588aa5a8b625bb2d6bfb7431942c8bd3fb018083e41688847ccbcc",
      "blockNumber": 98806,
      "transactionIndex": 0,
      "confirmations": null,
      "from": "0x32Be343B94f860124dC4fEe278FDCBD38C102D88",
      "gasPrice": {
        "_hex": "0xd8906ce02"
      },
      "gasLimit": {
        "_hex": "0x5208"
      },
      "to": "0xdB73C34EcF0048c947189db06659F672a357726A",
      "value": {
        "_hex": "0x5150ae84a8cdf00000"
      },
      "nonce": 1047,
      "data": "0x",
      "r": "0xbe0a908b071b0727efd47fd430211c71ea147149c928fe4a7be2be1eca3d95a9",
      "s": "0x12ab4af1b380d06625a9d51fe0331ae8807cfc66ecbe835644d821ed4b358b29",
      "v": 27,
      "creates": null,
      "raw": "0xf86f820417850d8906ce0282520894db73c34ecf0048c947189db06659f672a357726a895150ae84a8cdf00000801ba0be0a908b071b0727efd47fd430211c71ea147149c928fe4a7be2be1eca3d95a9a012ab4af1b380d06625a9d51fe0331ae8807cfc66ecbe835644d821ed4b358b29",
      "networkId": 0,
      "chainId": 0
    },
    {
      "hash": "0x4f61c73dd4b1799cfb6cc5a1a0f98e9433cd3aba0e74634b34b73a13561c40ae",
      "blockHash": "0x42c18764fe588aa5a8b625bb2d6bfb7431942c8bd3fb018083e41688847ccbcc",
      "blockNumber": 98806,
      "transactionIndex": 1,
      "confirmations": null,
      "from": "0x32Be343B94f860124dC4fEe278FDCBD38C102D88",
      "gasPrice": {
        "_hex": "0xd8906ce02"
      },
      "gasLimit": {
        "_hex": "0x5208"
      },
      "to": "0xd268fB48FA174088a25a120aFF0fd8eb0C2d4c87",
      "value": {
        "_hex": "0x3635c9adc5dea000000"
      },
      "nonce": 1048,
      "data": "0x",
      "r": "0x10da95bf4ae6f8098b388e67d296aa741af171fd1085b286eaee24172720495e",
      "s": "0x505378cf35f76a927ebd02d7b330012c60ebe94d0109c30291e39b7794233202",
      "v": 28,
      "creates": null,
      "raw": "0xf870820418850d8906ce0282520894d268fb48fa174088a25a120aff0fd8eb0c2d4c878a03635c9adc5dea000000801ca010da95bf4ae6f8098b388e67d296aa741af171fd1085b286eaee24172720495ea0505378cf35f76a927ebd02d7b330012c60ebe94d0109c30291e39b7794233202",
      "networkId": 0,
      "chainId": 0
    }
  ]
}