{
  "hash": "0x83f12e1db0909fb48d4a2125258b4d279cdfd6eefaa2c147cf0fecf74eb47014",
  "parentHash": "0xb29055c8b732626fdb4c512557d36c526622db35b46b699e984221d3e653582b",
  "number": 47572,
  "timestamp": 1438943016,
  "nonce": "0x096afa101f89a51a",
  "difficulty": 1447395041648,
  "gasLimit": {
    "_hex": "0xd1b8"
  },
  "gasUsed": {
    "_hex": "0x546c"
  },
  "miner": "0x9746c7e1ef2bd21FF3997fa467593a89cb852BD0",
  "extraData": "0x476574682f76312e302e312f77696e646f77732f676f312e342e32",
  "transactions": [
    {
      "hash": "0xbfa951b6a8b22b2e96ae5906bd6de56e9cd1af74194d72a763ba4a6007959f0b",
      "blockHash": "0x83f12e1db0909fb48d4a2125258b4d279cdfd6eefaa2c147cf0fecf74eb47014",
      "blockNumber": 47572,
      "transactionIndex": 0,
      "confirmations": null,
      "from": "0x827531A6c5817Ae35F82b00B9754FCf74c55E232",
      "gasPrice": {
        "_hex": "0x746a528800"
      },
      "gasLimit": {
        "_hex": "0xa410"
      },
      "to": "0x2910543Af39abA0Cd09dBb2D50200b3E800A63D2",
      "value": {
        "_hex": "0x1b1ae4d6e2ef500000"
      },
      "nonce": 1,
      "data": "0x454e38413346393352",
      "r": "0x928d9707824ec78942b332919f751bb9c583d2662414f41fe18cc92b26080349",
      "s": "0x09caedb84a8a3eed483a4673db5983d1ca41941383f907d2bf4ddbb34068827d",
      "v": 28,
      "creates": null,
      "raw": "0xf8760185746a52880082a410942910543af39aba0cd09dbb2d50200b3e800a63d2891b1ae4d6e2ef50000089454e384133463933521ca0928d9707824ec78942b332919f751bb9c583d2662414f41fe18cc92b26080349a009caedb84a8a3eed483a4673db5983d1ca41941383f907d2bf4ddbb34068827d",
      "networkId": 0,
      "chainId": 0
    }
  ]
}