{
  "hash": "0xc3c41a9aae5d72e4278b1683665207c2c7e68e06cbe67ab9468235bb214f09cf",
  "parentHash": "0xef5146bf1f37acf468ee54e2c65930121d10aa367fcba707a8c15ab5e3edc3fc",
  "number": 102795,
  "timestamp": 1439843221,
  "nonce": "0xc75d983155e13ccc",
  "difficulty": 4058364502801,
  "gasLimit": {
    "_hex": "0x2fefd8"
  },
  "gasUsed": {
    "_hex": "0x20fc6"
  },
  "miner": "0xe6A7a1d47ff21B6321162AEA7C6CB457D5476Bca",
  "extraData": "0x476574682f76312e302e312d38326566323666362f6c696e75782f676f312e34",
  "transactions": [
    {
      "hash": "0x3cd2c7fd2eef49e17dbfe6038a08e6b449a8b4e338e289a2fd92e1ada69eef85",
      "blockHash": "0xc3c41a9aae5d72e4278b1683665207c2c7e68e06cbe67ab9468235bb214f09cf",
      "blockNumber": 102795,
      "transactionIndex": 0,
      "confirmations": null,
      "from": "0x6C8A6C70C9bc97076c106F54Fd94bE234a58bDC3",
      "gasPrice": {
        "_hex": "0xdaec9f480"
      },
      "gasLimit": {
        "_hex": "0x249f0"
      },
      "to": "0xE28e72FCf78647ADCe1F1252F240bbfaebD63BcC",
      "value": {
        "_hex": "0x7ce66c50e2840000"
      },
      "nonce": 0,
      "data": "0x45466f3a",
      "r": "0x16b20a052d2850fd8fbf7aa41ffc8506fba74c003d0fb538c62d0feb03967bbc",
      "s": "0x0363856361ed3abbe1ffa28f5e566a9dec46e227324a3425d76ee9a270a5460f",
      "v": 28,
      "creates": null,
      "raw": "0xf87180850daec9f480830249f094e28e72fcf78647adce1f1252f240bbfaebd63bcc887ce66c50e28400008445466f3a1ca016b20a052d2850fd8fbf7aa41ffc8506fba74c003d0fb538c62d0feb03967bbca00363856361ed3abbe1ffa28f5e566a9dec46e227324a3425d76ee9a270a5460f",
      "networkId": 0,
      "chainId": 0
    },
    {
      "hash": "0x90f70987ea447a88596316643da96bafd636907c6744a1337e360f6bd2da45d1",
      "blockHash": "0xc3c41a9aae5d72e4278b1683665207c2c7e68e06cbe67ab9468235bb214f09cf",
      "blockNumber": 102795,
      "transactionIndex": 1,
      "confirmations": null,
      "from": "0x685dAF36A1D6c017E56a42a4c916ED049B0c0B29",
      "gasPrice": {
        "_hex": "0xd702f20d1"
      },
      "gasLimit": {
        "_hex": "0x15f90"
      },
      "to": "0x0EDcC8702211F285ca090EF919b6EFF6C2E92eB0",
      "value": {
        "_hex": "0xc202efee47f60000"
      },
      "nonce": 1,
      "data": "0x",
      "r": "0xe87c23457c0662ef96db489a0df85798fbc0602210725c52677935b6cd147349",
      "s": "0x5124b06d81a0395a103d82846e6c2084a8b3ff6a72a32c6918cc53061fb9d1b9",
      "v": 27,
      "creates": null,
      "raw": "0xf86d01850d702f20d183015f90940edcc8702211f285ca090ef919b6eff6c2e92eb088c202efee47f60000801ba0e87c23457c0662ef96db489a0df85798fbc0602210725c52677935b6cd147349a05124b06d81a0395a103d82846e6c2084a8b3ff6a72a32c6918cc53061fb9d1b9",
      "networkId": 0,
      "chainId": 0
    }
  ]
}