{
  "hash": "0xd3d28ac56bb9c4e204a800534a88ccec36dd52f1897c89472301559d947ab188",
  "parentHash": "0x4dada45e0643abeafd3bfba81728d9e854ace34f709fd79c319021cc13071316",
  "number": 61711,
  "timestamp": 1439176881,
  "nonce": "0xc67edb7397ce4ee3",
  "difficulty": 1731922867644,
  "gasLimit": {
    "_hex": "0x2fefd8"
  },
  "gasUsed": {
    "_hex": "0xa410"
  },
  "miner": "0x06D138312754bDEB5c1175f47cE00620c480E9C9",
  "extraData": "0x476574682f76312e302e312f6c696e75782f676f312e342e32",
  "transactions": [
    {
      "hash": "0x4e2fe7e4df72f0c446e0bcb860558d40de43ce50a1046a760de09ddc9086ac9c",
      "blockHash": "0xd3d28ac56bb9c4e204a800534a88ccec36dd52f1897c89472301559d947ab188",
      "blockNumber": 61711,
      "transactionIndex": 0,
      "confirmations": null,
      "from": "0x1308A2e95c0160B90803ddCA9B9a5bb55E416d79",
      "gasPrice": {
        "_hex": "0x5af3107a4000"
      },
      "gasLimit": {
        "_hex": "0x15f90"
      },
      "to": "0xD3a33636677fFF0BE34EC503b9E848b296E0972A",
      "value": {
        "_hex": "0x2b31d2425f6740000"
      },
      "nonce": 95,
      "data": "0x",
      "r": "0x075be1f5a1acf94ac895b17f1cd90f8dd46d44e073f21533b406fa63548c5b10",
      "s": "0x563a85e6dbcc1a71c440c3e15246275aa494e7daa9730d1ec28ed914cd161e5f",
      "v": 27,
      "creates": null,
      "raw": "0xf86f5f865af3107a400083015f9094d3a33636677fff0be34ec503b9e848b296e0972a8902b31d2425f6740000801ba0075be1f5a1acf94ac895b17f1cd90f8dd46d44e073f21533b406fa63548c5b10a0563a85e6dbcc1a71c440c3e15246275aa494e7daa9730d1ec28ed914cd161e5f",
      "networkId": 0,
      "chainId": 0
    },
    {
      "hash": "0xae70f124d70805e30fa30ac8fca63738b65e7c56077432f3e57f5c4499bd5712",
      "blockHash": "0xd3d28ac56bb9c4e204a800534a88ccec36dd52f1897c89472301559d947ab188",
      "blockNumber": 61711,
      "transactionIndex": 1,
      "confirmations": null,
      "from": "0x1308A2e95c0160B90803ddCA9B9a5bb55E416d79",
      "gasPrice": {
        "_hex": "0x5af3107a4000"
      },
      "gasLimit": {
        "_hex": "0x15f90"
      },
      "to": "0xD3a33636677fFF0BE34EC503b9E848b296E0972A",
      "value": {
        "_hex": "0x2b31d2425f6740000"
      },
      "nonce": 96,
      "data": "0x",
      "r": "0x6e796db214ab48e476ab71bdb4d638c886b8e50e08661ad1e0de10ecae716c09",
      "s": "0x35a74b151e104b038a14993ff0b5ec5dcd9533f6f9035abe03815c5280fee6ab",
      "v": 27,
      "creates": null,
      "raw": "0xf86f60865af3107a400083015f9094d3a33636677fff0be34ec503b9e848b296e0972a8902b31d2425f6740000801ba06e796db214ab48e476ab71bdb4d638c886b8e50e08661ad1e0de10ecae716c09a035a74b151e104b038a14993ff0b5ec5dcd9533f6f9035abe03815c5280fee6ab",
      "networkId": 0,
      "chainId": 0
    }
  ]
}