{
  "hash": "0x2b2542ce9afc22f7fcf17111f99ae26f11f9731666ed8575eeb6aaf1ae13f0cf",
  "parentHash": "0x11bcc1f88d92ffa35eb92627acceb553cd5a4be92f2a584eca25ba8cceee7947",
  "number": 122210,
  "timestamp": 1440190057,
  "nonce": "0x4e41d6af013e3450",
  "difficulty": 4484004018272,
  "gasLimit": {
    "_hex": "0x2fefd8"
  },
  "gasUsed": {
    "_hex": "0x5208"
  },
  "miner": "0xe6A7a1d47ff21B6321162AEA7C6CB457D5476Bca",
  "extraData": "0xd783010002844765746887676f312e342e32856c696e7578",
  "transactions": [
    {
      "hash": "0x5e3a92d9a630a5b66a916301f4ce34a37f26ac2c70120cfb4b623ab56cae728c",
      "blockHash": "0x2b2542ce9afc22f7fcf17111f99ae26f11f9731666ed8575eeb6aaf1ae13f0cf",
      "blockNumber": 122210,
      "transactionIndex": 0,
      "confirmations": null,
      "from": "0x2910543Af39abA0Cd09dBb2D50200b3E800A63D2",
      "gasPrice": {
        "_hex": "0xce43e285d"
      },
      "gasLimit": {
        "_hex": "0x5208"
      },
      "to": "0xee8bB0274117C9A1D3695E19bea188c382EC1A8E",
      "value": {
        "_hex": "0x340990ea2038f8000"
      },
      "nonce": 1221,
      "data": "0x",
      "r": "0x4b9b6ec36c419afd31cbb1c270ab73215ef2e2918fa182faf0ba7a23e5306789",
      "s": "0x559cb589d15285ee7c995c446734b3a336fa0c6b49fa6151402f8aded92f1eef",
      "v": 27,
      "creates": null,
      "raw": "0xf86f8204c5850ce43e285d82520894ee8bb0274117c9a1d3695e19bea188c382ec1a8e890340990ea2038f8000801ba04b9b6ec36c419afd31cbb1c270ab73215ef2e2918fa182faf0ba7a23e5306789a0559cb589d15285ee7c995c446734b3a336fa0c6b49fa6151402f8aded92f1eef",
      "networkId": 0,
      "chainId": 0
    }
  ]
}