{
  "hash": "0x15140799893c1cd614aa812a2ff2baf6834de017d0b009ab5b74311ce34e061e",
  "parentHash": "0xaaee0672cd3b4d354687bbbc29f99987fec1e4a7b7cd7b025c3b39c6eceb9188",
  "number": 121918,
  "timestamp": 1440184930,
  "nonce": "0x3c56ab2c38123de8",
  "difficulty": 4471042141508,
  "gasLimit": {
    "_hex": "0x2fefd8"
  },
  "gasUsed": {
    "_hex": "0x3a9ee"
  },
  "miner": "0x20c6Efe179C293690A5B3375F5bd81c2f07Ed037",
  "extraData": "0x",
  "transactions": [
    {
      "hash": "0xd7cd26abed3a989cd273ee9f00859323942b389ffeeec8bca6b4446647a8a7c4",
      "blockHash": "0x15140799893c1cd614aa812a2ff2baf6834de017d0b009ab5b74311ce34e061e",
      "blockNumber": 121918,
      "transactionIndex": 0,
      "confirmations": null,
      "from": "0x3B6C409e2ADC909C20B59DF21a7c48F44c259F24",
      "gasPrice": {
        "_hex": "0xda512ec49"
      },
      "gasLimit": {
        "_hex": "0x5208"
      },
      "to": "0x32Be343B94f860124dC4fEe278FDCBD38C102D88",
      "value": {
        "_hex": "0x3dd1ea8689876400"
      },
      "nonce": 9,
      "data": "0x",
      "r": "0x9f3e8869e3e2638cd8f8e3578a0e195957af98252a795f88cba29b48348110fc",
      "s": "0x45c4f08540b04fd2d8e83624e9896009c8b4510cd3e6963f5cb8f44dfc64da31",
      "v": 27,
      "creates": null,
      "raw": "0xf86c09850da512ec498252089432be343b94f860124dc4fee278fdcbd38c102d88883dd1ea8689876400801ba09f3e8869e3e2638cd8f8e3578a0e195957af98252a795f88cba29b48348110fca045c4f08540b04fd2d8e83624e9896009c8b4510cd3e6963f5cb8f44dfc64da31",
      "networkId": 0,
      "chainId": 0
    },
    {
      "hash": "0x257d9d519fbb8ec391c17b0d16f4f226b75674a73342db0dfcb2a5e7ffe546fa",
      "blockHash": "0x15140799893c1cd614aa812a2ff2baf6834de017d0b009ab5b74311ce34e061e",
      "blockNumber": 121918,
      "transactionIndex": 1,
      "confirmations": null,
      "from": "0xf5695Ae85aB4f83A5f859c4c691ce7CEf32b708B",
      "gasPrice": {
        "_hex": "0xda512ec49"
      },
      "gasLimit": {
        "_hex": "0x5208"
      },
      "to": "0x32Be343B94f860124dC4fEe278FDCBD38C102D88",
      "value": {
        "_hex": "0x200809882565a6000"
      },
      "nonce": 5,
      "data": "0x",
      "r": "0x51062f338439782bcf8463981202a59efb0bf2ebd7ba116e6348511ce0381930",
      "s": "0x6248b5dc33f76b3ccfcd045878fd012ec30b673cd746f897a08894f1ec80fecb",
      "v": 27,
      "creates": null,
      "raw": "0xf86d05850da512ec498252089432be343b94f860124dc4fee278fdcbd38c102d88890200809882565a6000801ba051062f338439782bcf8463981202a59efb0bf2ebd7ba116e6348511ce0381930a06248b5dc33f76b3ccfcd045878fd012ec30b673cd746f897a08894f1ec80fecb",
      "networkId": 0,
      "chainId": 0
    },
    {
      "hash": "0x59fffa2f441ade808553a4473dbdfb08aed11d25987534828d464da63c9e6e1d",
      "blockHash": "0x15140799893c1cd614aa812a2ff2baf6834de017d0b009ab5b74311ce34e061e",
      "blockNumber": 121918,
      "transactionIndex": 2,
      "confirmations": null,
      "from": "0xA338ba84d5d4734988a5Ed5CabC55ed61371e198",
      "gasPrice": {
        "_hex": "0xda512ec49"
      },
      "gasLimit": {
        "_hex": "0x5208"
      },
      "to": "0x32Be343B94f860124dC4fEe278FDCBD38C102D88",
      "value": {
        "_hex": "0xc2a402fbcabd0800"
      },
      "nonce": 5,
      "data": "0x",
      "r": "0xe5e9dada34552aea8312fd440dd93b0378d034cf392a26741f8051be3a29193d",
      "s": "0x44560137fc9b9721a2b79fee3383ce994024d7f926952d5509fd47cfb80aa573",
      "v": 28,
      "creates": null,
      "raw": "0xf86c05850da512ec498252089432be343b94f860124dc4fee278fdcbd38c102d8888c2a402fbcabd0800801ca0e5e9dada34552aea8312fd440dd93b0378d034cf392a26741f8051be3a29193da044560137fc9b9721a2b79fee3383ce994024d7f926952d5509fd47cfb80aa573",
      "networkId": 0,
      "chainId": 0
    },
    {
      "hash": "0x0062994e6d5d5e228de5db80800207f5363e2f18bfd6763175ef40901d5a1fa7",
      "blockHash": "0x15140799893c1cd614aa812a2ff2baf6834de017d0b009ab5b74311ce34e061e",
      "blockNumber": 121918,
      "transactionIndex": 3,
      "confirmations": null,
      "from": "0xAF17A4ab5d6B10055Fc1eB1BFaCcbDe69B83aF76",
      "gasPrice": {
        "_hex": "0xda512ec49"
      },
      "gasLimit": {
        "_hex": "0x5208"
      },
      "to": "0x32Be343B94f860124dC4fEe278FDCBD38C102D88",
      "value": {
        "_hex": "0x21d37761027f4a000"
      },
      "nonce": 10,
      "data": "0x",
      "r": "0x9576a7e8a904f79367665d6aaceb2cdb955a5b1df2cffc2f306f07c6580370e2",
      "s": "0x262fb946d3c52a9cc06f89f0ac43af74c9aff4f2a57788d420b603b5ce84f7d8",
      "v": 28,
      "creates": null,
      "raw": "0xf86d0a850da512ec498252089432be343b94f860124dc4fee278fdcbd38c102d8889021d37761027f4a000801ca09576a7e8a904f79367665d6aaceb2cdb955a5b1df2cffc2f306f07c6580370e2a0262fb946d3c52a9cc06f89f0ac43af74c9aff4f2a57788d420b603b5ce84f7d8",
      "networkId": 0,
      "chainId": 0
    },
    {
      "hash": "0x12461ca38698f774cd521677bf48eda5658d024dff4f00b82633e8840706a89b",
      "blockHash": "0x15140799893c1cd614aa812a2ff2baf6834de017d0b009ab5b74311ce34e061e",
      "blockNumber": 121918,
      "transactionIndex": 4,
      "confirmations": null,
      "from": "0xb1abce2918E21ddb93AA452731a12672A3d9F75a",
      "gasPrice": {
        "_hex": "0xda512ec49"
      },
      "gasLimit": {
        "_hex": "0x5208"
      },
      "to": "0x32Be343B94f860124dC4fEe278FDCBD38C102D88",
      "value": {
        "_hex": "0x455f33bb147a4c00"
      },
      "nonce": 218,
      "data": "0x",
      "r": "0x4131fe6ce86030cec6414b885d958a6c6d3449f8f15f561aa4dceb0d8dc01171",
      "s": "0x16c73fce6139d86e5168ded3a2ac32990cb0a314e61ed5472e84d9cc12166903",
      "v": 27,
      "creates": null,
      "raw": "0xf86d81da850da512ec498252089432be343b94f860124dc4fee278fdcbd38c102d8888455f33bb147a4c00801ba04131fe6ce86030cec6414b885d958a6c6d3449f8f15f561aa4dceb0d8dc01171a016c73fce6139d86e5168ded3a2ac32990cb0a314e61ed5472e84d9cc12166903",
      "networkId": 0,
      "chainId": 0
    },
    {
      "hash": "0xf6694f479c2d5f07bcc4e96225273b6fc13adc53ab526ede8e65c2f4566bf092",
      "blockHash": "0x15140799893c1cd614aa812a2ff2baf6834de017d0b009ab5b74311ce34e061e",
      "blockNumber": 121918,
      "transactionIndex": 5,
      "confirmations": null,
      "from": "0x10d50b62A87413dFD8b111398613F2eB8d819f6C",
      "gasPrice": {
        "_hex": "0xda512ec49"
      },
      "gasLimit": {
        "_hex": "0x5208"
      },
      "to": "0x32Be343B94f860124dC4fEe278FDCBD38C102D88",
      "value": {
        "_hex": "0x6643c2b0d1e8f000"
      },
      "nonce": 7,
      "data": "0x",
      "r": "0xb9dfa6e133db13df4397bba2053a6f973a7d84c9261f91786f42b19146871dcc",
      "s": "0x4743823e98d193f5a5faf2e8fc042c9806b0791a841a1c4208e55c47f629b83c",
      "v": 28,
      "creates": null,
      "raw": "0xf86c07850da512ec498252089432be343b94f860124dc4fee278fdcbd38c102d88886643c2b0d1e8f000801ca0b9dfa6e133db13df4397bba2053a6f973a7d84c9261f91786f42b19146871dcca04743823e98d193f5a5faf2e8fc042c9806b0791a841a1c4208e55c47f629b83c",
      "networkId": 0,
      "chainId": 0
    },
    {
      "hash": "0xd82ca057a61b37a52a80a2efe828162a974c6b7e0bee38d72b48aa267544e70a",
      "blockHash": "0x15140799893c1cd614aa812a2ff2baf6834de017d0b009ab5b74311ce34e061e",
      "blockNumber": 121918,
      "transactionIndex": 6,
      "confirmations": null,
      "from": "0xF5437e158090B2a2d68f82b54a5864B95dD6DBea",
      "gasPrice": {
        "_hex": "0xba43b7400"
      },
      "gasLimit": {
        "_hex": "0x249f0"
      },
      "to": "0xE28e72FCf78647ADCe1F1252F240bbfaebD63BcC",
      "value": {
        "_hex": "0x1b1ae4d6e2ef500000"
      },
      "nonce": 5,
      "data": "0x45466f3a",
      "r": "0xc49a1cb1dbf9e6db64e51829806cd009b1706426a4db1d6089374d6d7ec23306",
      "s": "0x3066c7bf9e7607da3f34fd115407f237dd901ee104a987524556632d0b8e3796",
      "v": 27,
      "creates": null,
      "raw": "0xf87205850ba43b7400830249f094e28e72fcf78647adce1f1252f240bbfaebd63bcc891b1ae4d6e2ef5000008445466f3a1ba0c49a1cb1dbf9e6db64e51829806cd009b1706426a4db1d6089374d6d7ec23306a03066c7bf9e7607da3f34fd115407f237dd901ee104a987524556632d0b8e3796",
      "networkId": 0,
      "chainId": 0
    }
  ]
}