{
  "hash": "0x9f7618f410f401cbcdc6b7dcca86a42b221ef4b2f22de32aed0651c6f2640809",
  "parentHash": "0x6661219c160c334b5004ae39cca57d252df869db542ba38725742e78c1108dc9",
  "number": 71449,
  "timestamp": 1439336260,
  "nonce": "0x6815a2edcb141e7c",
  "difficulty": 2178290039515,
  "gasLimit": {
    "_hex": "0x2fefd8"
  },
  "gasUsed": {
    "_hex": "0x93b2"
  },
  "miner": "0xe6A7a1d47ff21B6321162AEA7C6CB457D5476Bca",
  "extraData": "0x476574682f76312e302e312d38326566323666362f6c696e75782f676f312e34",
  "transactions": [
    {
      "hash": "0xf57917e91cc78b8baeaf7f964f929a5ef4448aff9cd4cf4d81e2983008f7db34",
      "blockHash": "0x9f7618f410f401cbcdc6b7dcca86a42b221ef4b2f22de32aed0651c6f2640809",
      "blockNumber": 71449,
      "transactionIndex": 0,
      "confirmations": null,
      "from": "0x17580B766f7453525ca4C6A88b01b50570EA088C",
      "gasPrice": {
        "_hex": "0xddfb08b90"
      },
      "gasLimit": {
        "_hex": "0x61a80"
      },
      "to": "0x5Fe5B7546D1628f7348B023A0393de1FC825A4fD",
      "value": {
        "_hex": "0x4563918244f40000"
      },
      "nonce": 193,
      "data": "0xb595b8b50000000000000000000000000000000000000000000000000000000000000000",
      "r": "0xdd618513880188b37054e7b9c5c8728b06f191bec03debc350da8a54a9534757",
      "s": "0x3df72e1f08e6a504fdd86a390c0ef9f1d4654e4b1177ea131c1aa6308dcaa02d",
      "v": 28,
      "creates": null,
      "raw": "0xf89281c1850ddfb08b9083061a80945fe5b7546d1628f7348b023a0393de1fc825a4fd884563918244f40000a4b595b8b500000000000000000000000000000000000000000000000000000000000000001ca0dd618513880188b37054e7b9c5c8728b06f191bec03debc350da8a54a9534757a03df72e1f08e6a504fdd86a390c0ef9f1d4654e4b1177ea131c1aa6308dcaa02d",
      "networkId": 0,
      "chainId": 0
    }
  ]
}