{
  "hash": "0xf6ea200a4cb4c6ddefbe26324206f6a6922ff094514947b49bd2c2a6170ade2f",
  "parentHash": "0x85d4f4652db232e31333f8f3e310ca92f40350491cc7aa03bee92040c311198a",
  "number": 91156,
  "timestamp": 1439651298,
  "nonce": "0xe6b5c773a4df74d6",
  "difficulty": 3437302668130,
  "gasLimit": {
    "_hex": "0x2fefd8"
  },
  "gasUsed": {
    "_hex": "0x546c"
  },
  "miner": "0xe6A7a1d47ff21B6321162AEA7C6CB457D5476Bca",
  "extraData": "0x476574682f76312e302e312d38326566323666362f6c696e75782f676f312e34",
  "transactions": [
    {
      "hash": "0x31079c23927e5bb13f2abcec7baf47826be4375a7b33a1b22b6d9c3fc38a5528",
      "blockHash": "0xf6ea200a4cb4c6ddefbe26324206f6a6922ff094514947b49bd2c2a6170ade2f",
      "blockNumber": 91156,
      "transactionIndex": 0,
      "confirmations": null,
      "from": "0x29C0024a99b44d481694cB5D98907a1343D390fD",
      "gasPrice": {
        "_hex": "0xcd01555c5"
      },
      "gasLimit": {
        "_hex": "0x55f0"
      },
      "to": "0x2910543Af39abA0Cd09dBb2D50200b3E800A63D2",
      "value": {
        "_hex": "0x6124fee993bc0000"
      },
      "nonce": 8,
      "data": "0x454e373343484d4647",
      "r": "0x9fd51234bd4c68dc1cfe77a42e261c876443646d34681b77da061bec9e382b6f",
      "s": "0x4874bdcacd0b252aae9999d727d85c679eed22f8bf3d0d38ab40664871596a87",
      "v": 27,
      "creates": null,
      "raw": "0xf87508850cd01555c58255f0942910543af39aba0cd09dbb2d50200b3e800a63d2886124fee993bc000089454e373343484d46471ba09fd51234bd4c68dc1cfe77a42e261c876443646d34681b77da061bec9e382b6fa04874bdcacd0b252aae9999d727d85c679eed22f8bf3d0d38ab40664871596a87",
      "networkId": 0,
      "chainId": 0
    }
  ]
}