{
  "hash": "0x89ab02ea74f818c7e7a4442b02e64f6738ea888b86c57d3c9ebfc1c7590e821d",
  "parentHash": "0xdd60891e628d2de4d94415993623aff1332ab079b041e6ca23b33ce02d74d5dc",
  "number": 69094,
  "timestamp": 1439298266,
  "nonce": "0xb7356e13cc959134",
  "difficulty": 2053896838277,
  "gasLimit": {
    "_hex": "0x2fefd8"
  },
  "gasUsed": {
    "_hex": "0x5208"
  },
  "miner": "0xe6A7a1d47ff21B6321162AEA7C6CB457D5476Bca",
  "extraData": "0x476574682f76312e302e312d38326566323666362f6c696e75782f676f312e34",
  "transactions": [
    {
      "hash": "0x42f51579ed703f5aa9b43143295fa45e4f5b11a937ef2e3f7bace537e6600ba9",
      "blockHash": "0x89ab02ea74f818c7e7a4442b02e64f6738ea888b86c57d3c9ebfc1c7590e821d",
      "blockNumber": 69094,
      "transactionIndex": 0,
      "confirmations": null,
      "from": "0x4a237EeF6c6335B197743406088999E8681b9e29",
      "gasPrice": {
        "_hex": "0xba43b7400"
      },
      "gasLimit": {
        "_hex": "0x5208"
      },
      "to": "0x7A03EA4B5a06c24D67A5ebF4eeCf9Af2a7994135",
      "value": {
        "_hex": "0x937bda828f9000"
      },
      "nonce": 1,
      "data": "0x",
      "r": "0xbb50c08b785101d61d926c80312be18866d886778c2def363858846c28ce0880",
      "s": "0x68e74aa963848227fb4f3b694ca8cfcf8457b8397021a7f842164b643130ac9d",
      "v": 27,
      "creates": null,
      "raw": "0xf86b01850ba43b7400825208947a03ea4b5a06c24d67a5ebf4eecf9af2a799413587937bda828f9000801ba0bb50c08b785101d61d926c80312be18866d886778c2def363858846c28ce0880a068e74aa963848227fb4f3b694ca8cfcf8457b8397021a7f842164b643130ac9d",
      "networkId": 0,
      "chainId": 0
    }
  ]
}