{
  "hash": "0x06443f6cdfe702875a9220ddd90f1109ae4a5b0bb586ccbb876e9c38e1e9353b",
  "parentHash": "0xe28c6641f60c899b55223d09a98c564ffa1160d46fa5721a774123a794e318e2",
  "number": 71958,
  "timestamp": 1439344629,
  "nonce": "0x1f4799de0ff49216",
  "difficulty": 2177094576130,
  "gasLimit": {
    "_hex": "0x2fefd8"
  },
  "gasUsed": {
    "_hex": "0x5208"
  },
  "miner": "0x580992B51e3925e23280EfB93d3047C82f17E038",
  "extraData": "0x476574682f76312e302e312f6c696e75782f676f312e342e32",
  "transactions": [
    {
      "hash": "0x99d0e8801b678a2e763c5969b8e0300c516499de35763d60965ab48028b72bd6",
      "blockHash": "0x06443f6cdfe702875a9220ddd90f1109ae4a5b0bb586ccbb876e9c38e1e9353b",
      "blockNumber": 71958,
      "transactionIndex": 0,
      "confirmations": null,
      "from": "0xA10C59651885FeAaac91F871082a23BBbaBeDfCf",
      "gasPrice": {
        "_hex": "0x10aa7158dea"
      },
      "gasLimit": {
        "_hex": "0x5208"
      },
      "to": "0x4c74B6F32c9680aCB5Fe0e72B7Aa95C612540A04",
      "value": {
        "_hex": "0x56bc75e2d63100000"
      },
      "nonce": 18,
      "data": "0x",
      "r": "0x15cdfb196eb2d9ac247994fa141aa99d50ea5d771c61e4e0961b27daf97bda4e",
      "s": "0x70f04f739cdf6cc3c58aa51fdb58e156cf2c3b781212d8ce579aa22068019902",
      "v": 28,
      "creates": null,
      "raw": "0xf86e1286010aa7158dea825208944c74b6f32c9680acb5fe0e72b7aa95c612540a0489056bc75e2d63100000801ca015cdfb196eb2d9ac247994fa141aa99d50ea5d771c61e4e0961b27daf97bda4ea070f04f739cdf6cc3c58aa51fdb58e156cf2c3b781212d8ce579aa22068019902",
      "networkId": 0,
      "chainId": 0
    }
  ]
}