{
  "hash": "0xe0445ba39388c4dfb561398d087a722ef1d5c2926ae46e9ff716c2c91543858e",
  "parentHash": "0x3ebb7b19b44b60d0430238910a1bbb4e10b0c9e0e51894eed5c44557dc2c9aa3",
  "number": 108358,
  "timestamp": 1439938885,
  "nonce": "0xf645f95a98e14cd5",
  "difficulty": 4348979081138,
  "gasLimit": {
    "_hex": "0x2fefd8"
  },
  "gasUsed": {
    "_hex": "0x5208"
  },
  "miner": "0xe6A7a1d47ff21B6321162AEA7C6CB457D5476Bca",
  "extraData": "0x476574682f76312e302e312d38326566323666362f6c696e75782f676f312e34",
  "transactions": [
    {
      "hash": "0x1384360ff37c49b8eccd9524b78e4f8f25164839b18c65db47351fb8ae4ca80f",
      "blockHash": "0xe0445ba39388c4dfb561398d087a722ef1d5c2926ae46e9ff716c2c91543858e",
      "blockNumber": 108358,
      "transactionIndex": 0,
      "confirmations": null,
      "from": "0xe0F2071907ecf7F55DF7a681Cd68fa5b7575eA7b",
      "gasPrice": {
        "_hex": "0xba43b7400"
      },
      "gasLimit": {
        "_hex": "0x5b04"
      },
      "to": "0xf2711F78854D3b5CE29fA3c550a9328D7df40706",
      "value": {
        "_hex": "0xde0b6b3a7640000"
      },
      "nonce": 1,
      "data": "0x",
      "r": "0x3f33d1e430f5be44ed24284f425e46e6142e7ebaa9a926743ce669b4eb50c214",
      "s": "0x49ba1105b783af1e0d55fea68f9a27190e9aa0b0f7bd67c372f51c523224651d",
      "v": 28,
      "creates": null,
      "raw": "0xf86c01850ba43b7400825b0494f2711f78854d3b5ce29fa3c550a9328d7df40706880de0b6b3a7640000801ca03f33d1e430f5be44ed24284f425e46e6142e7ebaa9a926743ce669b4eb50c214a049ba1105b783af1e0d55fea68f9a27190e9aa0b0f7bd67c372f51c523224651d",
      "networkId": 0,
      "chainId": 0
    }
  ]
}