{
  "hash": "0x390ce5dfdd46755172934e8caa30489e78619b917b4d97d2f0514b5107c9af95",
  "parentHash": "0x7a633dbf4843bd8dfb676b8b1442d7cbc46fb3ec3e4fc59c822c46c6938df1e3",
  "number": 62852,
  "timestamp": 1439195132,
  "nonce": "0xb3ef70e313abd4a2",
  "difficulty": 1784041714122,
  "gasLimit": {
    "_hex": "0x2fefd8"
  },
  "gasUsed": {
    "_hex": "0x5208"
  },
  "miner": "0x52Dc504a422f0E2A9e7632A34a50f1a82F8224c7",
  "extraData": "0x476574682f76312e302e312f6c696e75782f676f312e342e32",
  "transactions": [
    {
      "hash": "0x56ad042dbf8cf903b2329c0e9a8a19c9bed04aac47c53b80175699024f796eb2",
      "blockHash": "0x390ce5dfdd46755172934e8caa30489e78619b917b4d97d2f0514b5107c9af95",
      "blockNumber": 62852,
      "transactionIndex": 0,
      "confirmations": null,
      "from": "0x32Be343B94f860124dC4fEe278FDCBD38C102D88",
      "gasPrice": {
        "_hex": "0xd61956fee"
      },
      "gasLimit": {
        "_hex": "0x5208"
      },
      "to": "0xECFf10586219c6a59D7E0dFDdCB82Cb904c4D130",
      "value": {
        "_hex": "0x112210253e6b7000"
      },
      "nonce": 156,
      "data": "0x",
      "r": "0xaa2043fe918a2f9eff47759b38a9cf0015fad6eb6152a80c49878102a4a8d5bd",
      "s": "0x49786209a9499f11575fbb47cb2d0ce97b280845be0728d6f52bcd4b65005808",
      "v": 28,
      "creates": null,
      "raw": "0xf86d819c850d61956fee82520894ecff10586219c6a59d7e0dfddcb82cb904c4d13088112210253e6b7000801ca0aa2043fe918a2f9eff47759b38a9cf0015fad6eb6152a80c49878102a4a8d5bda049786209a9499f11575fbb47cb2d0ce97b280845be0728d6f52bcd4b65005808",
      "networkId": 0,
      "chainId": 0
    }
  ]
}