{
  "hash": "0xecc15af8614c5da3de41b6fe96ab27842b85e2ffb3145b1c819ad6bd1954c94a",
  "parentHash": "0x7fe36eb7f0277bb1c5f30580aeca7d3584e16ef85d804a47de2e05763f08fbf0",
  "number": 85180,
  "timestamp": 1439559593,
  "nonce": "0x2bd8047c73cc9679",
  "difficulty": 2750455736484,
  "gasLimit": {
    "_hex": "0x2fefd8"
  },
  "gasUsed": {
    "_hex": "0x23e38"
  },
  "miner": "0x3DfCf2bF579C831a03379a140b74f884e49CaFf3",
  "extraData": "0x476574682f76312e302e312d38326566323666362f6c696e75782f676f312e34",
  "transactions": [
    {
      "hash": "0xcd8ee803ffe73c7d84adc3c587b4807678dd92673857c8470279bd4948815af5",
      "blockHash": "0xecc15af8614c5da3de41b6fe96ab27842b85e2ffb3145b1c819ad6bd1954c94a",
      "blockNumber": 85180,
      "transactionIndex": 0,
      "confirmations": null,
      "from": "0xF109ca710C0Df51c1a86dBA1B0BA0Ed038114463",
      "gasPrice": {
        "_hex": "0xd4ea642dc"
      },
      "gasLimit": {
        "_hex": "0x5208"
      },
      "to": "0x32Be343B94f860124dC4fEe278FDCBD38C102D88",
      "value": {
        "_hex": "0x810bf91d5449a000"
      },
      "nonce": 8,
      "data": "0x",
      "r": "0xce85a4661555863364c9bc3971030a5907184315c9e4891cd7daa28a5616942d",
      "s": "0x3e2a025083bb2871d984ae9478bb0499dd7a1569a4ee5269398e80dbad973404",
      "v": 28,
      "creates": null,
      "raw": "0xf86c08850d4ea642dc8252089432be343b94f860124dc4fee278fdcbd38c102d8888810bf91d5449a000801ca0ce85a4661555863364c9bc3971030a5907184315c9e4891cd7daa28a5616942da03e2a025083bb2871d984ae9478bb0499dd7a1569a4ee5269398e80dbad973404",
      "networkId": 0,
      "chainId": 0
    },
    {
      "hash": "0x2f668c2f2c43f995390af8e384510c4d13e2c3cae85a8a5fd4305c29ca4373b2",
      "blockHash": "0xecc15af8614c5da3de41b6fe96ab27842b85e2ffb3145b1c819ad6bd1954c94a",
      "blockNumber": 85180,
      "transactionIndex": 1,
      "confirmations": null,
      "from": "0x417E4e2688b1Fd66d821529E46ED4F42F8B3db3d",
      "gasPrice": {
        "_hex": "0xd32e19528"
      },
      "gasLimit": {
        "_hex": "0x15f90"
      },
      "to": "0x2C3B2AF7a5f5d5066a0aDb4aE3142D2c24CAD77A",
      "value": {
        "_hex": "0x2386f26fc10000"
      },
      "nonce": 1,
      "data": "0x",
      "r": "0x9ad3921a6001a7ad531f6b56391b6fa9209b019f9e94acb0fcaa2b11e8332fe2",
      "s": "0x284a7f3b9dc2078247ee102b8723a6533ceb9f4f8068289fb38a899011d93684",
      "v": 27,
      "creates": null,
      "raw": "0xf86c01850d32e1952883015f90942c3b2af7a5f5d5066a0adb4ae3142d2c24cad77a872386f26fc10000801ba09ad3921a6001a7ad531f6b56391b6fa9209b019f9e94acb0fcaa2b11e8332fe2a0284a7f3b9dc2078247ee102b8723a6533ceb9f4f8068289fb38a899011d93684",
      "networkId": 0,
      "chainId": 0
    },
    {
      "hash": "0x88dcc99cb8ef78fc3088a5078f9627aa49d8105b29e7d6a346d98ca2675b342e",
      "blockHash": "0xecc15af8614c5da3de41b6fe96ab27842b85e2ffb3145b1c819ad6bd1954c94a",
      "blockNumber": 85180,
      "transactionIndex": 2,
      "confirmations": null,
      "from": "0xa6BDc31c431B8F97848c9D60cbbe9660dc450eB7",
      "gasPrice": {
        "_hex": "0xd2b411e61"
      },
      "gasLimit": {
        "_hex": "0x5208"
      },
      "to": "0x32Be343B94f860124dC4fEe278FDCBD38C102D88",
      "value": {
        "_hex": "0x4563139b85fa1400"
      },
      "nonce": 67,
      "data": "0x",
      "r": "0x8d04667eecd86903fe9ea5466b2008ee1840421e876534c6d38a91a4e944b28c",
      "s": "0x1367828c709236147a6533eb61ffdb4d3f36f05ff0b2cc6d711b0fd7cbe37948",
      "v": 28,
      "creates": null,
      "raw": "0xf86c43850d2b411e618252089432be343b94f860124dc4fee278fdcbd38c102d88884563139b85fa1400801ca08d04667eecd86903fe9ea5466b2008ee1840421e876534c6d38a91a4e944b28ca01367828c709236147a6533eb61ffdb4d3f36f05ff0b2cc6d711b0fd7cbe37948",
      "networkId": 0,
      "chainId": 0
    },
    {
      "hash": "0x450e66cc2fba20581bcc5a5b05ff3928f322ce4fb079bc98d010e5211a24a17a",
      "blockHash": "0xecc15af8614c5da3de41b6fe96ab27842b85e2ffb3145b1c819ad6bd1954c94a",
      "blockNumber": 85180,
      "transactionIndex": 3,
      "confirmations": null,
      "from": "0xa6F56910adDd015F84617F1Bb1f8c9fDac02171b",
      "gasPrice": {
        "_hex": "0xd2b411e61"
      },
      "gasLimit": {
        "_hex": "0x5208"
      },
      "to": "0x32Be343B94f860124dC4fEe278FDCBD38C102D88",
      "value": {
        "_hex": "0x29a57e3c54b95c0000"
      },
      "nonce": 0,
      "data": "0x",
      "r": "0xabb6ab260dd77d9d88bca28d5a98195207d5cc4c9c6b416e3ebd8f6ee88cfa69",
      "s": "0x5312245efb436fc49534aa6c82c60f501cc9c8c26cef9ef3c7e037a01770a935",
      "v": 28,
      "creates": null,
      "raw": "0xf86d80850d2b411e618252089432be343b94f860124dc4fee278fdcbd38c102d888929a57e3c54b95c0000801ca0abb6ab260dd77d9d88bca28d5a98195207d5cc4c9c6b416e3ebd8f6ee88cfa69a05312245efb436fc49534aa6c82c60f501cc9c8c26cef9ef3c7e037a01770a935",
      "networkId": 0,
      "chainId": 0
    },
    {
      "hash": "0xd6d932137d3476c09400ab428a394426743ddde3ebdbdab01c6ff70fb356707d",
      "blockHash": "0xecc15af8614c5da3de41b6fe96ab27842b85e2ffb3145b1c819ad6bd1954c94a",
      "blockNumber": 85180,
      "transactionIndex": 4,
      "confirmations": null,
      "from": "0x32Be343B94f860124dC4fEe278FDCBD38C102D88",
      "gasPrice": {
        "_hex": "0xd2b411e61"
      },
      "gasLimit": {
        "_hex": "0x5208"
      },
      "to": "0xC6BCaEF3b4f0BBbEA99e2CF134d83ccca28E094c",
      "value": {
        "_hex": "0x8aa39c121a270000"
      },
      "nonce": 725,
      "data": "0x",
      "r": "0xb38d378d7fb6116af1f47d79e22af3d6da1939f32cd8d8a4fa6d9c0c29bf0fb9",
      "s": "0x305fe8274882136b8d6dbbe1f0459beb4d854f934c5f452f05d6ba4d33789c9a",
      "v": 28,
      "creates": null,
      "raw": "0xf86e8202d5850d2b411e6182520894c6bcaef3b4f0bbbea99e2cf134d83ccca28e094c888aa39c121a270000801ca0b38d378d7fb6116af1f47d79e22af3d6da1939f32cd8d8a4fa6d9c0c29bf0fb9a0305fe8274882136b8d6dbbe1f0459beb4d854f934c5f452f05d6ba4d33789c9a",
      "networkId": 0,
      "chainId": 0
    },
    {
      "hash": "0xd6b13fbe45b218aae727ab5bf7db05b2eee6aef189a66a644a07863768dfcad1",
      "blockHash": "0xecc15af8614c5da3de41b6fe96ab27842b85e2ffb3145b1c819ad6bd1954c94a",
      "blockNumber": 85180,
      "transactionIndex": 5,
      "confirmations": null,
      "from": "0x32Be343B94f860124dC4fEe278FDCBD38C102D88",
      "gasPrice": {
        "_hex": "0xd2b411e61"
      },
      "gasLimit": {
        "_hex": "0x5208"
      },
      "to": "0x9fF6094D95665AA596F05f1F4841d9B29df75188",
      "value": {
        "_hex": "0xdbd2fc137a30000"
      },
      "nonce": 726,
      "data": "0x",
      "r": "0x2df96fa9c266dd44fed54d7d3b599c5f2be64927faeebbbeebeb93917ded175d",
      "s": "0x108d2fad843f028042c326b33d3034920c865ecb35f734dcbf952f0a40194757",
      "v": 28,
      "creates": null,
      "raw": "0xf86e8202d6850d2b411e61825208949ff6094d95665aa596f05f1f4841d9b29df75188880dbd2fc137a30000801ca02df96fa9c266dd44fed54d7d3b599c5f2be64927faeebbbeebeb93917ded175da0108d2fad843f028042c326b33d3034920c865ecb35f734dcbf952f0a40194757",
      "networkId": 0,
      "chainId": 0
    },
    {
      "hash": "0x037a467df632b737622657370f985231822bd09c85ce9cc1095acd81030d614f",
      "blockHash": "0xecc15af8614c5da3de41b6fe96ab27842b85e2ffb3145b1c819ad6bd1954c94a",
      "blockNumber": 85180,
      "transactionIndex": 6,
      "confirmations": null,
      "from": "0x2aBAA2b360f586C7B4997E0532C4BD76bCFb20fF",
      "gasPrice": {
        "_hex": "0xd2b411e61"
      },
      "gasLimit": {
        "_hex": "0x5208"
      },
      "to": "0x32Be343B94f860124dC4fEe278FDCBD38C102D88",
      "value": {
        "_hex": "0x1b1a0687f360cb00000"
      },
      "nonce": 1,
      "data": "0x",
      "r": "0x4b728a11782a791fcea5d9ce9f624bbc6e809649216c6e98241ef482baa77998",
      "s": "0x4edc0b6eb9b110ebebc3ce1a4d845185b9f7e9e430d1b73c4ae29cdcdd10b0ee",
      "v": 28,
      "creates": null,
      "raw": "0xf86e01850d2b411e618252089432be343b94f860124dc4fee278fdcbd38c102d888a01b1a0687f360cb00000801ca04b728a11782a791fcea5d9ce9f624bbc6e809649216c6e98241ef482baa77998a04edc0b6eb9b110ebebc3ce1a4d845185b9f7e9e430d1b73c4ae29cdcdd10b0ee",
      "networkId": 0,
      "chainId": 0
    }
  ]
}