{
  "hash": "0xc1740dfc642a6b12ab921e1b7c037c664f2e608da19eade4cd3e5278b68fd48b",
  "parentHash": "0x2b5e38368bd3108d61c173695a20888219b008b06648f17c4ae53d343bb096ee",
  "number": 89794,
  "timestamp": 1439629331,
  "nonce": "0x82675773f8702494",
  "difficulty": 3332088938946,
  "gasLimit": {
    "_hex": "0x2fefd8"
  },
  "gasUsed": {
    "_hex": "0x29040"
  },
  "miner": "0xe6A7a1d47ff21B6321162AEA7C6CB457D5476Bca",
  "extraData": "0x476574682f76312e302e312d38326566323666362f6c696e75782f676f312e34",
  "transactions": [
    {
      "hash": "0xc4ef11de8f3fd4d3c7cdf817623c669612b3b7cb47d835ea553bcd9bac73ea4c",
      "blockHash": "0xc1740dfc642a6b12ab921e1b7c037c664f2e608da19eade4cd3e5278b68fd48b",
      "blockNumber": 89794,
      "transactionIndex": 0,
      "confirmations": null,
      "from": "0x4b0a38C16B842d68A8721B4CAd662e07cc430652",
      "gasPrice": {
        "_hex": "0xda505c359"
      },
      "gasLimit": {
        "_hex": "0x5208"
      },
      "to": "0x32Be343B94f860124dC4fEe278FDCBD38C102D88",
      "value": {
        "_hex": "0x71efeec15e6cf000"
      },
      "nonce": 4,
      "data": "0x",
      "r": "0x782a6d2ef4944be43b705044b6cc54cfc9866ce3c3be225d25000e5131fa26c0",
      "s": "0x777552cb22d24232676972b621d6b9cc57db3108a7946660a1dccb062cd6d338",
      "v": 28,
      "creates": null,
      "raw": "0xf86c04850da505c3598252089432be343b94f860124dc4fee278fdcbd38c102d888871efeec15e6cf000801ca0782a6d2ef4944be43b705044b6cc54cfc9866ce3c3be225d25000e5131fa26c0a0777552cb22d24232676972b621d6b9cc57db3108a7946660a1dccb062cd6d338",
      "networkId": 0,
      "chainId": 0
    },
    {
      "hash": "0xe0c70f9878ae9f0b78c0a4321e76aa974a18abb7af7b4950b94dfb9be82fbd50",
      "blockHash": "0xc1740dfc642a6b12ab921e1b7c037c664f2e608da19eade4cd3e5278b68fd48b",
      "blockNumber": 89794,
      "transactionIndex": 1,
      "confirmations": null,
      "from": "0x9B7280891dc19fd3A2e754cB9007203820650403",
      "gasPrice": {
        "_hex": "0xda505c359"
      },
      "gasLimit": {
        "_hex": "0x5208"
      },
      "to": "0x32Be343B94f860124dC4fEe278FDCBD38C102D88",
      "value": {
        "_hex": "0x90c3073392557000"
      },
      "nonce": 4,
      "data": "0x",
      "r": "0x6eae002fdf3a54185fae8b655ea31c8aab96ecda90d58dd5219a0a8ee100685b",
      "s": "0x79cbfa5781eb941afa0034bbac07dba2e5909252c475843da4642b2191510e25",
      "v": 27,
      "creates": null,
      "raw": "0xf86c04850da505c3598252089432be343b94f860124dc4fee278fdcbd38c102d888890c3073392557000801ba06eae002fdf3a54185fae8b655ea31c8aab96ecda90d58dd5219a0a8ee100685ba079cbfa5781eb941afa0034bbac07dba2e5909252c475843da4642b2191510e25",
      "networkId": 0,
      "chainId": 0
    },
    {
      "hash": "0xcd8923c86dc49ec4022cb3299ea07842d8c6dd4880923585af3d31220104e580",
      "blockHash": "0xc1740dfc642a6b12ab921e1b7c037c664f2e608da19eade4cd3e5278b68fd48b",
      "blockNumber": 89794,
      "transactionIndex": 2,
      "confirmations": null,
      "from": "0xF7e66D2622220807d8696064E94ca24b1dC6e7Da",
      "gasPrice": {
        "_hex": "0xda505c359"
      },
      "gasLimit": {
        "_hex": "0x5208"
      },
      "to": "0x32Be343B94f860124dC4fEe278FDCBD38C102D88",
      "value": {
        "_hex": "0x6db6fc3290991400"
      },
      "nonce": 13,
      "data": "0x",
      "r": "0xf9d1160477fd1277d5226e76c9f494715eb14469610f860ee9262d439cb12b22",
      "s": "0x4787a7f7e3718872d469060e4c7bdf1c37b21ece9d1c11ffc53918b411c0b69e",
      "v": 27,
      "creates": null,
      "raw": "0xf86c0d850da505c3598252089432be343b94f860124dc4fee278fdcbd38c102d88886db6fc3290991400801ba0f9d1160477fd1277d5226e76c9f494715eb14469610f860ee9262d439cb12b22a04787a7f7e3718872d469060e4c7bdf1c37b21ece9d1c11ffc53918b411c0b69e",
      "networkId": 0,
      "chainId": 0
    },
    {
      "hash": "0x190197a977fa42aaae29fefe9eff8795ac1d12c96782b8545eadc6ed72cbdcfe",
      "blockHash": "0xc1740dfc642a6b12ab921e1b7c037c664f2e608da19eade4cd3e5278b68fd48b",
      "blockNumber": 89794,
      "transactionIndex": 3,
      "confirmations": null,
      "from": "0xe6A7a1d47ff21B6321162AEA7C6CB457D5476Bca",
      "gasPrice": {
        "_hex": "0xd2321c17e"
      },
      "gasLimit": {
        "_hex": "0x55f0"
      },
      "to": "0xF928B4834e4E886e04630Af5b4Ea8eBf46Fb205b",
      "value": {
        "_hex": "0x2fbff8a096c3e3f70"
      },
      "nonce": 2436,
      "data": "0x",
      "r": "0xf792a9d081b371f7a87bf110ed11f0cf1688d01ff3a4ee0036437df2e7159b2a",
      "s": "0x2305110a197bd6d7fc980b85e6122a9f9eb4206f83def5509596b47bfbf34e36",
      "v": 27,
      "creates": null,
      "raw": "0xf86f820984850d2321c17e8255f094f928b4834e4e886e04630af5b4ea8ebf46fb205b8902fbff8a096c3e3f70801ba0f792a9d081b371f7a87bf110ed11f0cf1688d01ff3a4ee0036437df2e7159b2aa02305110a197bd6d7fc980b85e6122a9f9eb4206f83def5509596b47bfbf34e36",
      "networkId": 0,
      "chainId": 0
    },
    {
      "hash": "0xb359f49213af4a08e115382c28fc4139970d998c29a1569f56c3a94e0dc3c7c3",
      "blockHash": "0xc1740dfc642a6b12ab921e1b7c037c664f2e608da19eade4cd3e5278b68fd48b",
      "blockNumber": 89794,
      "transactionIndex": 4,
      "confirmations": null,
      "from": "0xe6A7a1d47ff21B6321162AEA7C6CB457D5476Bca",
      "gasPrice": {
        "_hex": "0xd2321c17e"
      },
      "gasLimit": {
        "_hex": "0x55f0"
      },
      "to": "0x5248EfBC7319bd65d436374266765D9727253F12",
      "value": {
        "_hex": "0x319b0b5fa463a21b8"
      },
      "nonce": 2437,
      "data": "0x",
      "r": "0x21f90105c945e05b8598ca77df34c180a5e203620d40480253896b826951f930",
      "s": "0x49bb8383e5110f2d7a50698a70083cf49c388cbf0c30a512cdf2c58246126476",
      "v": 28,
      "creates": null,
      "raw": "0xf86f820985850d2321c17e8255f0945248efbc7319bd65d436374266765d9727253f12890319b0b5fa463a21b8801ca021f90105c945e05b8598ca77df34c180a5e203620d40480253896b826951f930a049bb8383e5110f2d7a50698a70083cf49c388cbf0c30a512cdf2c58246126476",
      "networkId": 0,
      "chainId": 0
    },
    {
      "hash": "0x29081267a6b22006800fe9fc4683e6673b4ee87134896084ea39d2c9c1282819",
      "blockHash": "0xc1740dfc642a6b12ab921e1b7c037c664f2e608da19eade4cd3e5278b68fd48b",
      "blockNumber": 89794,
      "transactionIndex": 5,
      "confirmations": null,
      "from": "0xe6A7a1d47ff21B6321162AEA7C6CB457D5476Bca",
      "gasPrice": {
        "_hex": "0xd2321c17e"
      },
      "gasLimit": {
        "_hex": "0x55f0"
      },
      "to": "0xbAeF66124E137Eb5eE0DE1BbAB5a30002508a1bf",
      "value": {
        "_hex": "0x32d3ac9feb9f07610"
      },
      "nonce": 2438,
      "data": "0x",
      "r": "0xc86895fa092d51158f03f7344a6a571d43da09b82f7c7353d8ce37c37d614fa3",
      "s": "0x635cad6e8fa799c37ecb66331c5919d08310c4d1c0874cbafa1a00c52588683f",
      "v": 27,
      "creates": null,
      "raw": "0xf86f820986850d2321c17e8255f094baef66124e137eb5ee0de1bbab5a30002508a1bf89032d3ac9feb9f07610801ba0c86895fa092d51158f03f7344a6a571d43da09b82f7c7353d8ce37c37d614fa3a0635cad6e8fa799c37ecb66331c5919d08310c4d1c0874cbafa1a00c52588683f",
      "networkId": 0,
      "chainId": 0
    },
    {
      "hash": "0x051c1a9187b25a0938e809ca902ececa4ad6b0790e3026db1710eff64e232ed4",
      "blockHash": "0xc1740dfc642a6b12ab921e1b7c037c664f2e608da19eade4cd3e5278b68fd48b",
      "blockNumber": 89794,
      "transactionIndex": 6,
      "confirmations": null,
      "from": "0xe6A7a1d47ff21B6321162AEA7C6CB457D5476Bca",
      "gasPrice": {
        "_hex": "0xd2321c17e"
      },
      "gasLimit": {
        "_hex": "0x55f0"
      },
      "to": "0x379965B927911bcF18D2d4F062Edf10c45847069",
      "value": {
        "_hex": "0x333c324397d97be70"
      },
      "nonce": 2439,
      "data": "0x",
      "r": "0xd12a7c9c96637a4cb43c3af368260b390beb6e65c3fbbad36faaf94ad18632b3",
      "s": "0x46082e8fe1f4904f6a3fdec0fce855b16556f794e70aa9e183797aa639026759",
      "v": 27,
      "creates": null,
      "raw": "0xf86f820987850d2321c17e8255f094379965b927911bcf18d2d4f062edf10c45847069890333c324397d97be70801ba0d12a7c9c96637a4cb43c3af368260b390beb6e65c3fbbad36faaf94ad18632b3a046082e8fe1f4904f6a3fdec0fce855b16556f794e70aa9e183797aa639026759",
      "networkId": 0,
      "chainId": 0
    },
    {
      "hash": "0xfa381f5ab3393f30b8b06074339b126375b0b045e8c21cc2413b8eed264d71e2",
      "blockHash": "0xc1740dfc642a6b12ab921e1b7c037c664f2e608da19eade4cd3e5278b68fd48b",
      "blockNumber": 89794,
      "transactionIndex": 7,
      "confirmations": null,
      "from": "0xe6A7a1d47ff21B6321162AEA7C6CB457D5476Bca",
      "gasPrice": {
        "_hex": "0xd2321c17e"
      },
      "gasLimit": {
        "_hex": "0x55f0"
      },
      "to": "0x6d84df1cFAD609EAc476cBC2553390bFC23Cf6Fc",
      "value": {
        "_hex": "0x36a27e12e6076b830"
      },
      "nonce": 2440,
      "data": "0x",
      "r": "0x13ac9a5833f3e06ec5ec76a17628e44255da426f98ecaed10d61d124aed1bd69",
      "s": "0x1d400bba7effad6e96b9a5f1c8b1dcca2c438ef3c1ef71b8b7b5a041ac4ff02c",
      "v": 27,
      "creates": null,
      "raw": "0xf86f820988850d2321c17e8255f0946d84df1cfad609eac476cbc2553390bfc23cf6fc89036a27e12e6076b830801ba013ac9a5833f3e06ec5ec76a17628e44255da426f98ecaed10d61d124aed1bd69a01d400bba7effad6e96b9a5f1c8b1dcca2c438ef3c1ef71b8b7b5a041ac4ff02c",
      "networkId": 0,
      "chainId": 0
    }
  ]
}