{
  "hash": "0x8ce9c47ee204123979be50546fcc5af19acf0c36863c1ba396fe729c0854f22f",
  "parentHash": "0x325b4e8dba3188eb4166c31ca314d466cc1a3f19269232e52fd3c3d3fb45b007",
  "number": 64607,
  "timestamp": 1439223502,
  "nonce": "0xc7427f822ca40891",
  "difficulty": 1890379641179,
  "gasLimit": {
    "_hex": "0x2fefd8"
  },
  "gasUsed": {
    "_hex": "0x5208"
  },
  "miner": "0x0eDEd3DA479d0beF8eeC92A76644D3f4E3C177f7",
  "extraData": "0x476574682f76312e302e312f6c696e75782f676f312e342e32",
  "transactions": [
    {
      "hash": "0x3d85b07e1da2e317ccf21d03075444b3492f5bfbabd22d4adecbcd6ffbea7628",
      "blockHash": "0x8ce9c47ee204123979be50546fcc5af19acf0c36863c1ba396fe729c0854f22f",
      "blockNumber": 64607,
      "transactionIndex": 0,
      "confirmations": null,
      "from": "0x120A270bbC009644e35F0bB6ab13f95b8199c4ad",
      "gasPrice": {
        "_hex": "0xd3d1265b6"
      },
      "gasLimit": {
        "_hex": "0x15f90"
      },
      "to": "0x97f5585473fe2644e4cf3b9802b168647B4ec882",
      "value": {
        "_hex": "0x3e58a6cf7da4687c00"
      },
      "nonce": 114,
      "data": "0x",
      "r": "0x841cc0a485c180f31677c19362dd12f81a75e4cf1d68f3de2fbd49b0ea530183",
      "s": "0x2ca3f71e7bc963a8728c04076ee7776f2cc3a67431ca2845091bc7531685ceda",
      "v": 28,
      "creates": null,
      "raw": "0xf86e72850d3d1265b683015f909497f5585473fe2644e4cf3b9802b168647b4ec882893e58a6cf7da4687c00801ca0841cc0a485c180f31677c19362dd12f81a75e4cf1d68f3de2fbd49b0ea530183a02ca3f71e7bc963a8728c04076ee7776f2cc3a67431ca2845091bc7531685ceda",
      "networkId": 0,
      "chainId": 0
    }
  ]
}