{
  "hash": "0x25963dd3c012ee7336af5392ed96b142367991ca713120913e3525d0e1162f2f",
  "parentHash": "0x2ebb5dfc00df7e5da312b4fb422357a04d144408b0f059cacaf7b015da40e38a",
  "number": 119983,
  "timestamp": 1440151832,
  "nonce": "0xa1753e7a6b9fe5c7",
  "difficulty": 4430776488409,
  "gasLimit": {
    "_hex": "0x2fefd8"
  },
  "gasUsed": {
    "_hex": "0x5208"
  },
  "miner": "0x17B719A685fC6C0002798e7f8151D0E2E83B7497",
  "extraData": "0x",
  "transactions": [
    {
      "hash": "0x2c3c2e163a4aa8cc50e164b5f8f0b162e126e170012c41db61904c653b649b09",
      "blockHash": "0x25963dd3c012ee7336af5392ed96b142367991ca713120913e3525d0e1162f2f",
      "blockNumber": 119983,
      "transactionIndex": 0,
      "confirmations": null,
      "from": "0x608f4b86321a68453f9adf6F06F7Fc3E621739ad",
      "gasPrice": {
        "_hex": "0xba43b7400"
      },
      "gasLimit": {
        "_hex": "0x5208"
      },
      "to": "0x32Be343B94f860124dC4fEe278FDCBD38C102D88",
      "value": {
        "_hex": "0x8ac3680c5ce46000"
      },
      "nonce": 51,
      "data": "0x",
      "r": "0xf83b0585c140b99bb6436de8e34f82b2e50775e73a5334b4fce86fb004d4a37a",
      "s": "0x632e0e81c7fd58c7aff19b8a70cd03fd083f957fec57721c56461481721e5141",
      "v": 28,
      "creates": null,
      "raw": "0xf86c33850ba43b74008252089432be343b94f860124dc4fee278fdcbd38c102d88888ac3680c5ce46000801ca0f83b0585c140b99bb6436de8e34f82b2e50775e73a5334b4fce86fb004d4a37aa0632e0e81c7fd58c7aff19b8a70cd03fd083f957fec57721c56461481721e5141",
      "networkId": 0,
      "chainId": 0
    }
  ]
}