{
  "hash": "0xde11bcb356e3697b3b5c48c380f413dd54fbe2b0220007a40a65b2598e6146f7",
  "parentHash": "0x9d1809a5e12d474c8b4b2aeff64a9ff7d0ba4b7388bd1b8dcbe9e6488d2b57bf",
  "number": 63316,
  "timestamp": 1439202517,
  "nonce": "0xf28715fa92128c6e",
  "difficulty": 1820905522598,
  "gasLimit": {
    "_hex": "0x2fefd5"
  },
  "gasUsed": {
    "_hex": "0x5208"
  },
  "miner": "0xf8E0CA3Ed80bd541b94BEdCf259e8CF2141A9523",
  "extraData": "0x476574682f76312e302e312f77696e646f77732f676f312e342e32",
  "transactions": [
    {
      "hash": "0x89454d99b56e42b65d865934dc2f9e41b5d3a22fb240a73c995097f4e3b143e7",
      "blockHash": "0xde11bcb356e3697b3b5c48c380f413dd54fbe2b0220007a40a65b2598e6146f7",
      "blockNumber": 63316,
      "transactionIndex": 0,
      "confirmations": null,
      "from": "0x54352A818Dd27c9461D18340589E5721864a47E8",
      "gasPrice": {
        "_hex": "0xdb803d4d9"
      },
      "gasLimit": {
        "_hex": "0x15f90"
      },
      "to": "0xdD38c62D238bE6bB72162aFeC32DDcceDd3A0A51",
      "value": {
        "_hex": "0x6f05b59d3b20000"
      },
      "nonce": 0,
      "data": "0x",
      "r": "0x73b73eb14dea6aabf1cf0580001bbe81b56e69bbca98f45137d3b9254f2b9510",
      "s": "0x728d3990a69095ca12e569186ae171dc0bd94145e0f8311670443633212b8690",
      "v": 27,
      "creates": null,
      "raw": "0xf86d80850db803d4d983015f9094dd38c62d238be6bb72162afec32ddccedd3a0a518806f05b59d3b20000801ba073b73eb14dea6aabf1cf0580001bbe81b56e69bbca98f45137d3b9254f2b9510a0728d3990a69095ca12e569186ae171dc0bd94145e0f8311670443633212b8690",
      "networkId": 0,
      "chainId": 0
    }
  ]
}