{
  "hash": "0x0d0a987e4a2bd649fbf11c774e9bc00346f7e311c55cd144a3d550566c17d3e8",
  "parentHash": "0x189b12fe6c000270efa0ab7b3a1b9035ff9e941ca4236fc161ca12bd265974e0",
  "number": 117908,
  "timestamp": 1440117358,
  "nonce": "0x7603ba6017e4d40f",
  "difficulty": 4348275098100,
  "gasLimit": {
    "_hex": "0x2fefd8"
  },
  "gasUsed": {
    "_hex": "0x19a28"
  },
  "miner": "0xe6A7a1d47ff21B6321162AEA7C6CB457D5476Bca",
  "extraData": "0xd783010002844765746887676f312e342e32856c696e7578",
  "transactions": [
    {
      "hash": "0x8566db52b90e6a665409e71ef0e8b28284e4d5c9f40099b749f739e1ce2b2441",
      "blockHash": "0x0d0a987e4a2bd649fbf11c774e9bc00346f7e311c55cd144a3d550566c17d3e8",
      "blockNumber": 117908,
      "transactionIndex": 0,
      "confirmations": null,
      "from": "0xBc8405A1c3b4f67A4Ba6C70C91eF1F0152B6d3ab",
      "gasPrice": {
        "_hex": "0xba43b7400"
      },
      "gasLimit": {
        "_hex": "0x5208"
      },
      "to": "0x32Be343B94f860124dC4fEe278FDCBD38C102D88",
      "value": {
        "_hex": "0x1a9694256f9d3800"
      },
      "nonce": 7,
      "data": "0x",
      "r": "0xe22b3a7917326c600626c2df2bdfb2d1a131acefd7abd338f95ee0837f000b17",
      "s": "0x37f3e8e5d346bb87b7723321c80e0ec224a1ae5ed7a30345c53724bf812ff53d",
      "v": 27,
      "creates": null,
      "raw": "0xf86c07850ba43b74008252089432be343b94f860124dc4fee278fdcbd38c102d88881a9694256f9d3800801ba0e22b3a7917326c600626c2df2bdfb2d1a131acefd7abd338f95ee0837f000b17a037f3e8e5d346bb87b7723321c80e0ec224a1ae5ed7a30345c53724bf812ff53d",
      "networkId": 0,
      "chainId": 0
    },
    {
      "hash": "0x4cef428045cb131b8f8efc1dfda82670cb6d157af7ddf73aa41601a1be82ea78",
      "blockHash": "0x0d0a987e4a2bd649fbf11c774e9bc00346f7e311c55cd144a3d550566c17d3e8",
      "blockNumber": 117908,
      "transactionIndex": 1,
      "confirmations": null,
      "from": "0x806C4e20CC913d7b70f5b7e24C6Ba15B16c56a5C",
      "gasPrice": {
        "_hex": "0xba43b7400"
      },
      "gasLimit": {
        "_hex": "0x5208"
      },
      "to": "0x32Be343B94f860124dC4fEe278FDCBD38C102D88",
      "value": {
        "_hex": "0x379a5623bd584400"
      },
      "nonce": 8,
      "data": "0x",
      "r": "0x9f95aa9b2944f7bb281bf7f12b61d9423165f3a08e7335513d2bb752bfbd7ead",
      "s": "0x5281f9fd2925e361d5fdea643fccd2c57bf84c702ad4b44a99e8436600a0dd58",
      "v": 28,
      "creates": null,
      "raw": "0xf86c08850ba43b74008252089432be343b94f860124dc4fee278fdcbd38c102d8888379a5623bd584400801ca09f95aa9b2944f7bb281bf7f12b61d9423165f3a08e7335513d2bb752bfbd7eada05281f9fd2925e361d5fdea643fccd2c57bf84c702ad4b44a99e8436600a0dd58",
      "networkId": 0,
      "chainId": 0
    },
    {
      "hash": "0xdcdf3b4b88a3b412bc16db4dfdcf19796813d8186ec89ff4aa1a1e912d9ccd7e",
      "blockHash": "0x0d0a987e4a2bd649fbf11c774e9bc00346f7e311c55cd144a3d550566c17d3e8",
      "blockNumber": 117908,
      "transactionIndex": 2,
      "confirmations": null,
      "from": "0x5E33810d055F68eBA415be93fAEC212e9a2d6723",
      "gasPrice": {
        "_hex": "0xba43b7400"
      },
      "gasLimit": {
        "_hex": "0x5208"
      },
      "to": "0x32Be343B94f860124dC4fEe278FDCBD38C102D88",
      "value": {
        "_hex": "0x5187f5aff49b48000"
      },
      "nonce": 4,
      "data": "0x",
      "r": "0x743fee1cee4658e5782eb8c1b6a01f661569df3ef5880a33f037de05b95b18bf",
      "s": "0x4ebbe2d3875170157b3210554364e2eea3aef2821ac43aeb9ca519d6ebf77e3e",
      "v": 27,
      "creates": null,
      "raw": "0xf86d04850ba43b74008252089432be343b94f860124dc4fee278fdcbd38c102d888905187f5aff49b48000801ba0743fee1cee4658e5782eb8c1b6a01f661569df3ef5880a33f037de05b95b18bfa04ebbe2d3875170157b3210554364e2eea3aef2821ac43aeb9ca519d6ebf77e3e",
      "networkId": 0,
      "chainId": 0
    },
    {
      "hash": "0xed0e119ae8974afefbd6fba07d264bac52799ed5a01e9b8bc9186a069298a22c",
      "blockHash": "0x0d0a987e4a2bd649fbf11c774e9bc00346f7e311c55cd144a3d550566c17d3e8",
      "blockNumber": 117908,
      "transactionIndex": 3,
      "confirmations": null,
      "from": "0xe6F63A7e7F8dc774F8E3504c9b0c5458D7E28ED8",
      "gasPrice": {
        "_hex": "0xba43b7400"
      },
      "gasLimit": {
        "_hex": "0x5208"
      },
      "to": "0x32Be343B94f860124dC4fEe278FDCBD38C102D88",
      "value": {
        "_hex": "0x28867e9812177000"
      },
      "nonce": 7,
      "data": "0x",
      "r": "0x94700dbbf74bd3ed3218c08fae538123e74043fd109277496fe05a751c88ced1",
      "s": "0x3c889df88ba0db11266c3bed2cc017588ec3c3c88bfe7c8be03cef038d809083",
      "v": 28,
      "creates": null,
      "raw": "0xf86c07850ba43b74008252089432be343b94f860124dc4fee278fdcbd38c102d888828867e9812177000801ca094700dbbf74bd3ed3218c08fae538123e74043fd109277496fe05a751c88ced1a03c889df88ba0db11266c3bed2cc017588ec3c3c88bfe7c8be03cef038d809083",
      "networkId": 0,
      "chainId": 0
    },
    {
      "hash": "0x2ae1d13df6dfaa5474ba4861941a4dc64aa07de5d8177d844efd8cab83fae0bc",
      "blockHash": "0x0d0a987e4a2bd649fbf11c774e9bc00346f7e311c55cd144a3d550566c17d3e8",
      "blockNumber": 117908,
      "transactionIndex": 4,
      "confirmations": null,
      "from": "0x233b4fC39b20bb5eCf29882D7F068544BCc5eB78",
      "gasPrice": {
        "_hex": "0xba43b7400"
      },
      "gasLimit": {
        "_hex": "0x5208"
      },
      "to": "0x32Be343B94f860124dC4fEe278FDCBD38C102D88",
      "value": {
        "_hex": "0x4fbf478ce457e000"
      },
      "nonce": 8,
      "data": "0x",
      "r": "0xa699f715ec46fac6cefabfbd0044c2cec576979d6017bca754c6c71d26eadc7a",
      "s": "0x3106422fac7a68e47e1f6964cd532a253cdbc2c09c51146297d14a25dc3385f3",
      "v": 28,
      "creates": null,
      "raw": "0xf86c08850ba43b74008252089432be343b94f860124dc4fee278fdcbd38c102d88884fbf478ce457e000801ca0a699f715ec46fac6cefabfbd0044c2cec576979d6017bca754c6c71d26eadc7aa03106422fac7a68e47e1f6964cd532a253cdbc2c09c51146297d14a25dc3385f3",
      "networkId": 0,
      "chainId": 0
    }
  ]
}