{
  "hash": "0xb274b1e388c57213db6ac6f845174812610ba945d00947c182867cdde838bec5",
  "parentHash": "0x90191ca5871f523822a7a6682844da6152cb2b15c3a116a31ceb4e3e6214b938",
  "number": 51617,
  "timestamp": 1439007971,
  "nonce": "0x6b0b4afba7db5fbd",
  "difficulty": 1558915291192,
  "gasLimit": {
    "_hex": "0xc5c50"
  },
  "gasUsed": {
    "_hex": "0x7f328"
  },
  "miner": "0xF2d2AfF1320476cb8C6b607199D23175cc595693",
  "extraData": "0x476574682f76312e302e312f77696e646f77732f676f312e342e32",
  "transactions": [
    {
      "hash": "0x305197068f31c8d8eafda85209c0eea61e5366e36fafc1bc249d3c8858b6416e",
      "blockHash": "0xb274b1e388c57213db6ac6f845174812610ba945d00947c182867cdde838bec5",
      "blockNumber": 51617,
      "transactionIndex": 0,
      "confirmations": null,
      "from": "0xFCf9f6A78f06227522c6f948ec0119dA31680Ef7",
      "gasPrice": {
        "_hex": "0xda9711205"
      },
      "gasLimit": {
        "_hex": "0x7a120"
      },
      "to": "0xBAA54d6E90c3F4d7Ebec11bD180134C7eD8eBb52",
      "value": {
        "_hex": "0x16345785d8a0000"
      },
      "nonce": 28,
      "data": "0x",
      "r": "0x1d91bed528f2f3ed27b880768e358a5e6a1127bd23d42cef284093cfbf14b47f",
      "s": "0x69afccdb6ca7aeb04fb6a5db0f0df8a13dd796306ddbc674b7bb9bc7df97218f",
      "v": 27,
      "creates": null,
      "raw": "0xf86d1c850da97112058307a12094baa54d6e90c3f4d7ebec11bd180134c7ed8ebb5288016345785d8a0000801ba01d91bed528f2f3ed27b880768e358a5e6a1127bd23d42cef284093cfbf14b47fa069afccdb6ca7aeb04fb6a5db0f0df8a13dd796306ddbc674b7bb9bc7df97218f",
      "networkId": 0,
      "chainId": 0
    },
    {
      "hash": "0xab778f0d06b484cbbc060fcd758d877d7e3f0e219099fd9fb3ae6113a74e6643",
      "blockHash": "0xb274b1e388c57213db6ac6f845174812610ba945d00947c182867cdde838bec5",
      "blockNumber": 51617,
      "transactionIndex": 1,
      "confirmations": null,
      "from": "0xE5F9b98aFCd58f9a652BAd30417958Bc9dD7bFba",
      "gasPrice": {
        "_hex": "0xcfa67d07f"
      },
      "gasLimit": {
        "_hex": "0x5208"
      },
      "to": "0x32Be343B94f860124dC4fEe278FDCBD38C102D88",
      "value": {
        "_hex": "0x15aedba9cfb767000"
      },
      "nonce": 1,
      "data": "0x",
      "r": "0xd1d5ef8ef58c9a7edd3461a852218eb5325ff9c470441a0960ea97f545f14821",
      "s": "0x49cc9a962df2844160ab8101cc14b781417f230f115efe292857438289b0f040",
      "v": 27,
      "creates": null,
      "raw": "0xf86d01850cfa67d07f8252089432be343b94f860124dc4fee278fdcbd38c102d8889015aedba9cfb767000801ba0d1d5ef8ef58c9a7edd3461a852218eb5325ff9c470441a0960ea97f545f14821a049cc9a962df2844160ab8101cc14b781417f230f115efe292857438289b0f040",
      "networkId": 0,
      "chainId": 0
    }
  ]
}