{
  "hash": "0x2041a47267aed76d2f898ddbe0d228b7219d7766e84b1563ab92f0691b3fe2ff",
  "parentHash": "0x308d63609631fb25698c0abf00f493ff4134213e0bdb7168edcf607f4d37a047",
  "number": 100845,
  "timestamp": 1439813295,
  "nonce": "0x4157083a0242ee33",
  "difficulty": 3854551670926,
  "gasLimit": {
    "_hex": "0x2fefd8"
  },
  "gasUsed": {
    "_hex": "0xa410"
  },
  "miner": "0x35e8e5dC5FBd97c5b421A80B596C030a2Be2A04D",
  "extraData": "0x476574682f76312e302e312f6c696e75782f676f312e342e32",
  "transactions": [
    {
      "hash": "0x54da419ae4f1224cdc63a837f7f1ebfc7d0bc5cf52bcc67bd3984886a2ded37f",
      "blockHash": "0x2041a47267aed76d2f898ddbe0d228b7219d7766e84b1563ab92f0691b3fe2ff",
      "blockNumber": 100845,
      "transactionIndex": 0,
      "confirmations": null,
      "from": "0x63738Ec4C9adec404749B5747F3bbE2147de632F",
      "gasPrice": {
        "_hex": "0xd849c5059"
      },
      "gasLimit": {
        "_hex": "0x15f90"
      },
      "to": "0x557C2806B6ceA65a66F415bb2Ed1ce897B340745",
      "value": {
        "_hex": "0x8ac7230489e80000"
      },
      "nonce": 31,
      "data": "0x",
      "r": "0x595f2d3c085e4c75a1b67b752e6bb8e4f3f5cdf38fbeb9a5a037161c4cfab81d",
      "s": "0x31b46e81874fb4c9c89652275f7c2767103c371588a084a4cc65919ecf80118b",
      "v": 28,
      "creates": null,
      "raw": "0xf86d1f850d849c505983015f9094557c2806b6cea65a66f415bb2ed1ce897b340745888ac7230489e80000801ca0595f2d3c085e4c75a1b67b752e6bb8e4f3f5cdf38fbeb9a5a037161c4cfab81da031b46e81874fb4c9c89652275f7c2767103c371588a084a4cc65919ecf80118b",
      "networkId": 0,
      "chainId": 0
    },
    {
      "hash": "0xc96875d611d1b7f555956b7c860667424315a563e85328f67f97648f0a64a0d5",
      "blockHash": "0x2041a47267aed76d2f898ddbe0d228b7219d7766e84b1563ab92f0691b3fe2ff",
      "blockNumber": 100845,
      "transactionIndex": 1,
      "confirmations": null,
      "from": "0x63738Ec4C9adec404749B5747F3bbE2147de632F",
      "gasPrice": {
        "_hex": "0xd849c5059"
      },
      "gasLimit": {
        "_hex": "0x15f90"
      },
      "to": "0x557C2806B6ceA65a66F415bb2Ed1ce897B340745",
      "value": {
        "_hex": "0x8ac7230489e80000"
      },
      "nonce": 32,
      "data": "0x",
      "r": "0x4bb13321742fd2d9745eee8720228f47084c46ea5a04ffd1d5c338e22d05c920",
      "s": "0x0383adf7710e3f274ad8b718eaa1b75fb6a5bd603323b713e5ccf05329124b9a",
      "v": 27,
      "creates": null,
      "raw": "0xf86d20850d849c505983015f9094557c2806b6cea65a66f415bb2ed1ce897b340745888ac7230489e80000801ba04bb13321742fd2d9745eee8720228f47084c46ea5a04ffd1d5c338e22d05c920a00383adf7710e3f274ad8b718eaa1b75fb6a5bd603323b713e5ccf05329124b9a",
      "networkId": 0,
      "chainId": 0
    }
  ]
}