{
  "hash": "0x9b07e1d706bde419bf40a7676569a6a0111b81d6d04e837c035a7f7d26078bbb",
  "parentHash": "0xf6dbb5f3673253ea427282414a1809980f36ca4bd3df3067aafb4effafb452f7",
  "number": 100743,
  "timestamp": 1439811681,
  "nonce": "0x09ca16a43df4ebea",
  "difficulty": 3835823132333,
  "gasLimit": {
    "_hex": "0x2fefd8"
  },
  "gasUsed": {
    "_hex": "0x5208"
  },
  "miner": "0xe6A7a1d47ff21B6321162AEA7C6CB457D5476Bca",
  "extraData": "0x476574682f76312e302e312d38326566323666362f6c696e75782f676f312e34",
  "transactions": [
    {
      "hash": "0x919a7b29a1a2783a7237dee0d669767f18ed7c78072efd36f5d36c6e0867a916",
      "blockHash": "0x9b07e1d706bde419bf40a7676569a6a0111b81d6d04e837c035a7f7d26078bbb",
      "blockNumber": 100743,
      "transactionIndex": 0,
      "confirmations": null,
      "from": "0x7884D470204862a0d1A21122F41ee77430396Ee5",
      "gasPrice": {
        "_hex": "0xcb109e840"
      },
      "gasLimit": {
        "_hex": "0x15f90"
      },
      "to": "0xE9f1bbcC9F6d340c67Dac6983ab7fc17051Aa1C2",
      "value": {
        "_hex": "0x11c37937e080000"
      },
      "nonce": 72,
      "data": "0x",
      "r": "0xac644b51b8a3366582850001cde6825185115075c658c1c7f8ee79a1f2cd4e0d",
      "s": "0x666e8555aab865bfa3007b8ddee8f3889168fe04b9e2837d52273d474bf1c5c1",
      "v": 27,
      "creates": null,
      "raw": "0xf86d48850cb109e84083015f9094e9f1bbcc9f6d340c67dac6983ab7fc17051aa1c288011c37937e080000801ba0ac644b51b8a3366582850001cde6825185115075c658c1c7f8ee79a1f2cd4e0da0666e8555aab865bfa3007b8ddee8f3889168fe04b9e2837d52273d474bf1c5c1",
      "networkId": 0,
      "chainId": 0
    }
  ]
}