{
  "hash": "0x8fd90b90810fb3d321b26e8455fdccad81dab1d21da084ac9d5b593cac8afbfe",
  "parentHash": "0x0aca508e7bbd3a78306758c8da040fdc58e664a47e454cacec75c641bdb55080",
  "number": 110669,
  "timestamp": 1439977515,
  "nonce": "0xf59cbdbbde047380",
  "difficulty": 4375467134086,
  "gasLimit": {
    "_hex": "0x2fefd8"
  },
  "gasUsed": {
    "_hex": "0x19a28"
  },
  "miner": "0xe6A7a1d47ff21B6321162AEA7C6CB457D5476Bca",
  "extraData": "0x476574682f76312e302e312d38326566323666362f6c696e75782f676f312e34",
  "transactions": [
    {
      "hash": "0x878bcaeadde1c6ab732b5098178801b139659595c60b10f16c66dbeb2ff5e77f",
      "blockHash": "0x8fd90b90810fb3d321b26e8455fdccad81dab1d21da084ac9d5b593cac8afbfe",
      "blockNumber": 110669,
      "transactionIndex": 0,
      "confirmations": null,
      "from": "0x9DDd75762f6d7abA204Ce1A413E6a2230f238f76",
      "gasPrice": {
        "_hex": "0xe067acdad"
      },
      "gasLimit": {
        "_hex": "0x5208"
      },
      "to": "0x32Be343B94f860124dC4fEe278FDCBD38C102D88",
      "value": {
        "_hex": "0x6c9c44f6f967000"
      },
      "nonce": 1,
      "data": "0x",
      "r": "0xeb1ae0828142dbc01afae9aa20197ea3e412268e9a31264499ecf21d9c17d590",
      "s": "0x20fae0423a523efc828761e0ee2f955e447bd2ccbd8356c8fca864e91d5bf6b1",
      "v": 27,
      "creates": null,
      "raw": "0xf86c01850e067acdad8252089432be343b94f860124dc4fee278fdcbd38c102d888806c9c44f6f967000801ba0eb1ae0828142dbc01afae9aa20197ea3e412268e9a31264499ecf21d9c17d590a020fae0423a523efc828761e0ee2f955e447bd2ccbd8356c8fca864e91d5bf6b1",
      "networkId": 0,
      "chainId": 0
    },
    {
      "hash": "0x09b4cf6248bca0ccbe08771dcc968445af97ce423281d69453516da53bf4c651",
      "blockHash": "0x8fd90b90810fb3d321b26e8455fdccad81dab1d21da084ac9d5b593cac8afbfe",
      "blockNumber": 110669,
      "transactionIndex": 1,
      "confirmations": null,
      "from": "0x08346c0900aefbB6730d0D188c647607eB329f9F",
      "gasPrice": {
        "_hex": "0xe067acdad"
      },
      "gasLimit": {
        "_hex": "0x5208"
      },
      "to": "0x32Be343B94f860124dC4fEe278FDCBD38C102D88",
      "value": {
        "_hex": "0xf9bbf58c871d000"
      },
      "nonce": 1,
      "data": "0x",
      "r": "0x65ac0e114eff88c36f4ae71c071047f11f9f46c86ef913b2d1b7b0c58817328d",
      "s": "0x508f4ae20885dfc28b294dcc92c7511af04d7ecedfd0501d3138bb056e7cc26a",
      "v": 27,
      "creates": null,
      "raw": "0xf86c01850e067acdad8252089432be343b94f860124dc4fee278fdcbd38c102d88880f9bbf58c871d000801ba065ac0e114eff88c36f4ae71c071047f11f9f46c86ef913b2d1b7b0c58817328da0508f4ae20885dfc28b294dcc92c7511af04d7ecedfd0501d3138bb056e7cc26a",
      "networkId": 0,
      "chainId": 0
    },
    {
      "hash": "0xd21756c2b89a706f4ee6934a6a1436d55ddef5ded18e5d2078fc3bc6f9db6ee0",
      "blockHash": "0x8fd90b90810fb3d321b26e8455fdccad81dab1d21da084ac9d5b593cac8afbfe",
      "blockNumber": 110669,
      "transactionIndex": 2,
      "confirmations": null,
      "from": "0x047fF53dFE1F7BD2c3Ed2D1f777F35D1f64e9ffE",
      "gasPrice": {
        "_hex": "0xe067acdad"
      },
      "gasLimit": {
        "_hex": "0x5208"
      },
      "to": "0x32Be343B94f860124dC4fEe278FDCBD38C102D88",
      "value": {
        "_hex": "0x594b063eef37400"
      },
      "nonce": 9,
      "data": "0x",
      "r": "0x5ff0a85ad5101130925340e0daa08d64d14de0628da506ce057b1ccd6b3e79e6",
      "s": "0x31113a0b2224c650a66a516a3888fce548722cb52225c3e10e902cc49cc86e02",
      "v": 28,
      "creates": null,
      "raw": "0xf86c09850e067acdad8252089432be343b94f860124dc4fee278fdcbd38c102d88880594b063eef37400801ca05ff0a85ad5101130925340e0daa08d64d14de0628da506ce057b1ccd6b3e79e6a031113a0b2224c650a66a516a3888fce548722cb52225c3e10e902cc49cc86e02",
      "networkId": 0,
      "chainId": 0
    },
    {
      "hash": "0x23475e9ff515e4228a174e346a22e18333cdbedb92c54953a7d80a9f556b98dd",
      "blockHash": "0x8fd90b90810fb3d321b26e8455fdccad81dab1d21da084ac9d5b593cac8afbfe",
      "blockNumber": 110669,
      "transactionIndex": 3,
      "confirmations": null,
      "from": "0xC47Aaa860008be6f65B58c6C6E02a84e666EfE31",
      "gasPrice": {
        "_hex": "0xd7729e8ce"
      },
      "gasLimit": {
        "_hex": "0x15f90"
      },
      "to": "0x19ae27E1b61445EB9f27821A5eB4b3e957319e7e",
      "value": {
        "_hex": "0xd8d7232998d5b66431"
      },
      "nonce": 99,
      "data": "0x",
      "r": "0xc24716897a9f935c6e733ac1900998f250fe12fbe658fcd90744caa0142cc10f",
      "s": "0x0b2c5128f7ac4794956ffed19ba10efb86baf29d7628b3aa6dc222fa15a016f4",
      "v": 28,
      "creates": null,
      "raw": "0xf86e63850d7729e8ce83015f909419ae27e1b61445eb9f27821a5eb4b3e957319e7e89d8d7232998d5b66431801ca0c24716897a9f935c6e733ac1900998f250fe12fbe658fcd90744caa0142cc10fa00b2c5128f7ac4794956ffed19ba10efb86baf29d7628b3aa6dc222fa15a016f4",
      "networkId": 0,
      "chainId": 0
    },
    {
      "hash": "0x34df8138c0bcef12d065cd028abc8ca3e8d72db09fc167140346ee972e508650",
      "blockHash": "0x8fd90b90810fb3d321b26e8455fdccad81dab1d21da084ac9d5b593cac8afbfe",
      "blockNumber": 110669,
      "transactionIndex": 4,
      "confirmations": null,
      "from": "0x65d6F6040D1B3E8E8bFD5F70B46A2dB2ADBFca9a",
      "gasPrice": {
        "_hex": "0xba43b7400"
      },
      "gasLimit": {
        "_hex": "0x5208"
      },
      "to": "0xC47Aaa860008be6f65B58c6C6E02a84e666EfE31",
      "value": {
        "_hex": "0x869997a3444638f0"
      },
      "nonce": 3,
      "data": "0x",
      "r": "0xfe33fa7841207242f915d47a81a63bcb77160c8324c919ba7592f1c6975dd838",
      "s": "0x63993a60d699750132472be8efe40bf413994dac2b7759d6098ba92e555323e5",
      "v": 28,
      "creates": null,
      "raw": "0xf86c03850ba43b740082520894c47aaa860008be6f65b58c6c6e02a84e666efe3188869997a3444638f0801ca0fe33fa7841207242f915d47a81a63bcb77160c8324c919ba7592f1c6975dd838a063993a60d699750132472be8efe40bf413994dac2b7759d6098ba92e555323e5",
      "networkId": 0,
      "chainId": 0
    }
  ]
}