{
  "hash": "0xa23f37d57383aeeaaef0f286ebe1e374fc8564a405f597f9c86dbfb736218f9f",
  "parentHash": "0x84bd4185e7361b6209d538232ba1a5a1148d5ebc90f757d399720ab6882eb90a",
  "number": 83757,
  "timestamp": 1439540441,
  "nonce": "0x1d8ccabbbbe06ff5",
  "difficulty": 2435992361775,
  "gasLimit": {
    "_hex": "0x2fefd8"
  },
  "gasUsed": {
    "_hex": "0x5208"
  },
  "miner": "0xB7268c7705A1866b2A78e882fdfDc8E2a4e1428E",
  "extraData": "0x476574682f76312e302e312f77696e646f77732f676f312e342e32",
  "transactions": [
    {
      "hash": "0xa8fb7ca22cc76b7eb65f644cf189a95df592f2d9a949ad0b4a22c8ab35accd2a",
      "blockHash": "0xa23f37d57383aeeaaef0f286ebe1e374fc8564a405f597f9c86dbfb736218f9f",
      "blockNumber": 83757,
      "transactionIndex": 0,
      "confirmations": null,
      "from": "0xF9A59c3cC5fFACBcB67Be0fc7256F64c9B127Cb4",
      "gasPrice": {
        "_hex": "0x117b06a040c"
      },
      "gasLimit": {
        "_hex": "0x15f90"
      },
      "to": "0xd97FDBc4B51136F7381A02c672E73247F5D6927c",
      "value": {
        "_hex": "0xde0b6b3a7640000"
      },
      "nonce": 1,
      "data": "0x",
      "r": "0xea1221f6a531b2c6755aefcdb3138c2461891e736422169b907bc6744e81631a",
      "s": "0x569537fd9b31185c741e5b199d5663159c86e3f86037b8df673b407007983589",
      "v": 28,
      "creates": null,
      "raw": "0xf86e01860117b06a040c83015f9094d97fdbc4b51136f7381a02c672e73247f5d6927c880de0b6b3a7640000801ca0ea1221f6a531b2c6755aefcdb3138c2461891e736422169b907bc6744e81631aa0569537fd9b31185c741e5b199d5663159c86e3f86037b8df673b407007983589",
      "networkId": 0,
      "chainId": 0
    }
  ]
}