{
  "hash": "0x3126edea8f9c2923f5e8e3f1e7225e62e9949195b5966280ee95e0d60056a957",
  "parentHash": "0xe7bd73149a47563ef224218b65a93e2419c5b3967abc903ef31d5dce78992dd0",
  "number": 115049,
  "timestamp": 1440050742,
  "nonce": "0xd2776a2c8259a54d",
  "difficulty": 4525241025674,
  "gasLimit": {
    "_hex": "0x2fefd8"
  },
  "gasUsed": {
    "_hex": "0x5208"
  },
  "miner": "0xa6BDc31c431B8F97848c9D60cbbe9660dc450eB7",
  "extraData": "0x",
  "transactions": [
    {
      "hash": "0x4c78968ecc09441250958b4f77b2a4554fc4f4a65d2e0fa31a38c0d13596e9bd",
      "blockHash": "0x3126edea8f9c2923f5e8e3f1e7225e62e9949195b5966280ee95e0d60056a957",
      "blockNumber": 115049,
      "transactionIndex": 0,
      "confirmations": null,
      "from": "0xC47Aaa860008be6f65B58c6C6E02a84e666EfE31",
      "gasPrice": {
        "_hex": "0xe0cc2ba14"
      },
      "gasLimit": {
        "_hex": "0x15f90"
      },
      "to": "0x0Ab4e6aDb862b5F5E711E079d93B247b62aFB62A",
      "value": {
        "_hex": "0xddd2935029d7fff"
      },
      "nonce": 110,
      "data": "0x",
      "r": "0xdfcd6c5613e93f24caff41cde990e99ee7b58d1e0acb9ca07d48df42cecbd4fa",
      "s": "0x0a0da0b3dfe3f047dd52d10b41efe300d50d0ec7b2b01775dab35a0601f21b4f",
      "v": 28,
      "creates": null,
      "raw": "0xf86d6e850e0cc2ba1483015f90940ab4e6adb862b5f5e711e079d93b247b62afb62a880ddd2935029d7fff801ca0dfcd6c5613e93f24caff41cde990e99ee7b58d1e0acb9ca07d48df42cecbd4faa00a0da0b3dfe3f047dd52d10b41efe300d50d0ec7b2b01775dab35a0601f21b4f",
      "networkId": 0,
      "chainId": 0
    }
  ]
}