{
  "hash": "0x6747d2ec0cd8a150232b4e0b3673d00b1485e591758890fafafa46beb7cb2302",
  "parentHash": "0x3630155ee3cc4e2fa5b15780ce26ee106bd1c133d128057efb1a55a8ae6360eb",
  "number": 110725,
  "timestamp": 1439978406,
  "nonce": "0x2b898fedfc3f1d4a",
  "difficulty": 4392562905988,
  "gasLimit": {
    "_hex": "0x2fefd8"
  },
  "gasUsed": {
    "_hex": "0xa410"
  },
  "miner": "0xe6A7a1d47ff21B6321162AEA7C6CB457D5476Bca",
  "extraData": "0x476574682f76312e302e312d38326566323666362f6c696e75782f676f312e34",
  "transactions": [
    {
      "hash": "0x8a86985e98377a104de5fdf9b49542035bea6362fdc61390e02de9c78967c1f5",
      "blockHash": "0x6747d2ec0cd8a150232b4e0b3673d00b1485e591758890fafafa46beb7cb2302",
      "blockNumber": 110725,
      "transactionIndex": 0,
      "confirmations": null,
      "from": "0xe6C9430205BD87DA80B9D5F286442Bf45CB49423",
      "gasPrice": {
        "_hex": "0xba43b7400"
      },
      "gasLimit": {
        "_hex": "0x5208"
      },
      "to": "0xC47Aaa860008be6f65B58c6C6E02a84e666EfE31",
      "value": {
        "_hex": "0x136a53ffe3b90640"
      },
      "nonce": 4,
      "data": "0x",
      "r": "0x33b0758e2319dd1e87d5e4cda067365a7f79863959c6aeeac6693bdc64fb15a0",
      "s": "0x1eb66c686b6823cf1ebaaec56304ef1902508f6d2d6779b9defcfd72b92e9ddf",
      "v": 28,
      "creates": null,
      "raw": "0xf86c04850ba43b740082520894c47aaa860008be6f65b58c6c6e02a84e666efe3188136a53ffe3b90640801ca033b0758e2319dd1e87d5e4cda067365a7f79863959c6aeeac6693bdc64fb15a0a01eb66c686b6823cf1ebaaec56304ef1902508f6d2d6779b9defcfd72b92e9ddf",
      "networkId": 0,
      "chainId": 0
    },
    {
      "hash": "0xe1ff42473be44be2ca5d78f1f79b877e4d5468d2e90919ec0f0e64dd8b4c6ff9",
      "blockHash": "0x6747d2ec0cd8a150232b4e0b3673d00b1485e591758890fafafa46beb7cb2302",
      "blockNumber": 110725,
      "transactionIndex": 1,
      "confirmations": null,
      "from": "0x160aa7EC7e94C7E72bbd4560b1db208E951e4d70",
      "gasPrice": {
        "_hex": "0xba43b7400"
      },
      "gasLimit": {
        "_hex": "0x5208"
      },
      "to": "0xC47Aaa860008be6f65B58c6C6E02a84e666EfE31",
      "value": {
        "_hex": "0xdea0014c6f86470"
      },
      "nonce": 2,
      "data": "0x",
      "r": "0x95c58247f7f48aaeefd8d68d48cf3e5d21b2142b42c4375add69410ff7b034b8",
      "s": "0x62475b363c369f7b72ab858805a9b12b8e6ccdc9b3a6f3ec495100b7407821ea",
      "v": 27,
      "creates": null,
      "raw": "0xf86c02850ba43b740082520894c47aaa860008be6f65b58c6c6e02a84e666efe31880dea0014c6f86470801ba095c58247f7f48aaeefd8d68d48cf3e5d21b2142b42c4375add69410ff7b034b8a062475b363c369f7b72ab858805a9b12b8e6ccdc9b3a6f3ec495100b7407821ea",
      "networkId": 0,
      "chainId": 0
    }
  ]
}