{
  "hash": "0xbc4823bf3e06c9c3bc3016762a9baa26bec580a0f1c38922f016169a57d417bb",
  "parentHash": "0xc71700a2936d3aeb1f74486588477e8afaa27075d869e148580e43524ee7c7fb",
  "number": 65527,
  "timestamp": 1439238493,
  "nonce": "0x517b55930eb20b75",
  "difficulty": 1950172845079,
  "gasLimit": {
    "_hex": "0x2fefd8"
  },
  "gasUsed": {
    "_hex": "0x5208"
  },
  "miner": "0x640bAfc5732d621d5611eed670718409acb81366",
  "extraData": "0x476574682f76312e302e312d38326566323666362f6c696e75782f676f312e34",
  "transactions": [
    {
      "hash": "0xd251f687a0296a10dc1ce376e285c80bd6a630dda5033c88adcdd1eeb5129c1b",
      "blockHash": "0xbc4823bf3e06c9c3bc3016762a9baa26bec580a0f1c38922f016169a57d417bb",
      "blockNumber": 65527,
      "transactionIndex": 0,
      "confirmations": null,
      "from": "0x3B4AF94C39e87281410A3B5Cf880b4a647459363",
      "gasPrice": {
        "_hex": "0xcf787ee8f"
      },
      "gasLimit": {
        "_hex": "0x5208"
      },
      "to": "0x32Be343B94f860124dC4fEe278FDCBD38C102D88",
      "value": {
        "_hex": "0x3635b3c29be6800000"
      },
      "nonce": 5,
      "data": "0x",
      "r": "0x6a25ed0f387916e0ee19fad2c723960aa0a112e1ee538a05d05bcec3011e91f5",
      "s": "0x49a1d5c9a972d6ffe6d31b4142c6f5e11d44d7414426822268e7d0053e796764",
      "v": 27,
      "creates": null,
      "raw": "0xf86d05850cf787ee8f8252089432be343b94f860124dc4fee278fdcbd38c102d88893635b3c29be6800000801ba06a25ed0f387916e0ee19fad2c723960aa0a112e1ee538a05d05bcec3011e91f5a049a1d5c9a972d6ffe6d31b4142c6f5e11d44d7414426822268e7d0053e796764",
      "networkId": 0,
      "chainId": 0
    }
  ]
}