{
  "hash": "0x46a295b7e379ba9943aeb13d475bee3a5387b30e2c1872a120828de434a8c455",
  "parentHash": "0x5b791bb930940bbebb99e3a0476ba004c63ad661649494955fefe9f66ddd2618",
  "number": 52035,
  "timestamp": 1439015024,
  "nonce": "0xf1e53db1a1e7a882",
  "difficulty": 1564938731573,
  "gasLimit": {
    "_hex": "0xfc425"
  },
  "gasUsed": {
    "_hex": "0x5208"
  },
  "miner": "0x02020D22dCF88f5eDd66B382D7da019F161fB7e3",
  "extraData": "0x",
  "transactions": [
    {
      "hash": "0x120ae6357e79bc13563552a88622a78d2c47953bb5e602cf5bff233c8085c907",
      "blockHash": "0x46a295b7e379ba9943aeb13d475bee3a5387b30e2c1872a120828de434a8c455",
      "blockNumber": 52035,
      "transactionIndex": 0,
      "confirmations": null,
      "from": "0x13BF27Ad7781e484a0C68752f3bC949cf4262158",
      "gasPrice": {
        "_hex": "0xd6b0a4690"
      },
      "gasLimit": {
        "_hex": "0x15f90"
      },
      "to": "0x320e69e693Df6C1476c13836CDBE2F6E5dEf83A1",
      "value": {
        "_hex": "0xd02ab486cedc0000"
      },
      "nonce": 0,
      "data": "0x",
      "r": "0xee35bd4e59030f66ba74afae565e76bbac31040311f7d3fbb881e874e7083f1e",
      "s": "0x57944b6aba84ae04f79554093422305a1f752ab1573a4b7fc09a39ea058f1550",
      "v": 27,
      "creates": null,
      "raw": "0xf86d80850d6b0a469083015f9094320e69e693df6c1476c13836cdbe2f6e5def83a188d02ab486cedc0000801ba0ee35bd4e59030f66ba74afae565e76bbac31040311f7d3fbb881e874e7083f1ea057944b6aba84ae04f79554093422305a1f752ab1573a4b7fc09a39ea058f1550",
      "networkId": 0,
      "chainId": 0
    }
  ]
}