{
  "hash": "0xccb1f26658270a4697bf1ad22175728ba14c3dd337ab530e3e20d5f353eca0e9",
  "parentHash": "0x944f08a1bfcabf00ddb9cfca7055d9aa771a5ba13ce8a95dc15356a5bd662a40",
  "number": 121339,
  "timestamp": 1440175543,
  "nonce": "0xfee148c803e5eed4",
  "difficulty": 4408481889915,
  "gasLimit": {
    "_hex": "0x2fefd8"
  },
  "gasUsed": {
    "_hex": "0x5208"
  },
  "miner": "0x580992B51e3925e23280EfB93d3047C82f17E038",
  "extraData": "0x",
  "transactions": [
    {
      "hash": "0x45bbbecb864d1240cfa3219599f95448403def60e7d18fb418ca408808141a17",
      "blockHash": "0xccb1f26658270a4697bf1ad22175728ba14c3dd337ab530e3e20d5f353eca0e9",
      "blockNumber": 121339,
      "transactionIndex": 0,
      "confirmations": null,
      "from": "0x32Be343B94f860124dC4fEe278FDCBD38C102D88",
      "gasPrice": {
        "_hex": "0xba43b7400"
      },
      "gasLimit": {
        "_hex": "0x5208"
      },
      "to": "0xBdF25376dA0767EfBF7eE3dCAe463ECe5572bFF3",
      "value": {
        "_hex": "0x185f223728c0000"
      },
      "nonce": 1549,
      "data": "0x",
      "r": "0xb4a2799dd3edfec0081786bd2d4f44222eee1c8bb4f91b5918d4dc0b77e690d8",
      "s": "0x79e896c4e1879837658dd2328bbe84f4098be5de0c7daba28c0f6912e21c4f83",
      "v": 27,
      "creates": null,
      "raw": "0xf86e82060d850ba43b740082520894bdf25376da0767efbf7ee3dcae463ece5572bff3880185f223728c0000801ba0b4a2799dd3edfec0081786bd2d4f44222eee1c8bb4f91b5918d4dc0b77e690d8a079e896c4e1879837658dd2328bbe84f4098be5de0c7daba28c0f6912e21c4f83",
      "networkId": 0,
      "chainId": 0
    }
  ]
}