{
  "hash": "0xb7a807f34278cec7e54074304c5b207d51de4ee50c845a04349e5bcac7470072",
  "parentHash": "0x29bb6543e2f8150dc7e2f5ee2ae45e49631abc31e7dc0e5c9ea9964dbcb090d9",
  "number": 95622,
  "timestamp": 1439726831,
  "nonce": "0x680dcbac32093517",
  "difficulty": 3614436340236,
  "gasLimit": {
    "_hex": "0x2fefd8"
  },
  "gasUsed": {
    "_hex": "0x5208"
  },
  "miner": "0x88D74a59454F6cF3B51ef6b9136AFb6b9D405A88",
  "extraData": "0x476574682f76312e302e312d38326566323666362f6c696e75782f676f312e34",
  "transactions": [
    {
      "hash": "0xe748184e24654d6d024570de404df044a52417b51caa52ad187533e609a6ae32",
      "blockHash": "0xb7a807f34278cec7e54074304c5b207d51de4ee50c845a04349e5bcac7470072",
      "blockNumber": 95622,
      "transactionIndex": 0,
      "confirmations": null,
      "from": "0xD8dD71C53246d7e5C97fa2c5539dB9eF6662E6D6",
      "gasPrice": {
        "_hex": "0xd84e12627"
      },
      "gasLimit": {
        "_hex": "0x15f90"
      },
      "to": "0xE37619a47076d668A13AB535aA1c01E8a32541EF",
      "value": {
        "_hex": "0x13fbe85edc90000"
      },
      "nonce": 2,
      "data": "0x",
      "r": "0x3387c6585b70a101be8b3cdfe63e3d833820b649e18c802cf9dc45341b517225",
      "s": "0x329c04bf711ddc873d878f6f92d2e9733d9de2796fd8db2a787f034b66d67427",
      "v": 28,
      "creates": null,
      "raw": "0xf86d02850d84e1262783015f9094e37619a47076d668a13ab535aa1c01e8a32541ef88013fbe85edc90000801ca03387c6585b70a101be8b3cdfe63e3d833820b649e18c802cf9dc45341b517225a0329c04bf711ddc873d878f6f92d2e9733d9de2796fd8db2a787f034b66d67427",
      "networkId": 0,
      "chainId": 0
    }
  ]
}