{
  "hash": "0xafc2344e5c2b6a028a79babe4ca44708df9ff8458db47e913a7247c9ee24202d",
  "parentHash": "0x950e9010ee12357c1cf0083a98ee3b2c4da3e64f6fc0c90723e59d4740c2b46a",
  "number": 49371,
  "timestamp": 1438972510,
  "nonce": "0xbcf61ca72e5fe6e6",
  "difficulty": 1477789005564,
  "gasLimit": {
    "_hex": "0x2eb94"
  },
  "gasUsed": {
    "_hex": "0x5208"
  },
  "miner": "0xd141b7CB21652cCdEF036cbe70dE021F31a530Ad",
  "extraData": "0x476574682f76312e302e312f77696e646f77732f676f312e342e32",
  "transactions": [
    {
      "hash": "0x4f9fb5bc29811ae788b6740c44063b2dec6d0b5b8d87fc30cfee7e34442e35d2",
      "blockHash": "0xafc2344e5c2b6a028a79babe4ca44708df9ff8458db47e913a7247c9ee24202d",
      "blockNumber": 49371,
      "transactionIndex": 0,
      "confirmations": null,
      "from": "0x6923f88FCDC5D737237Ba10C2D830Aa40F4634de",
      "gasPrice": {
        "_hex": "0xcec99caef"
      },
      "gasLimit": {
        "_hex": "0x5208"
      },
      "to": "0xc8ebccC5F5689Fa8659d83713341e5aD19349448",
      "value": {
        "_hex": "0x499643a7f98240000"
      },
      "nonce": 0,
      "data": "0x",
      "r": "0xa3904d9c643f432c3f2f634c50c9c60d64d8d5241e215252c1ff517bf02a04f9",
      "s": "0x5de4df38d7b99b87e8d9bc560ad0629fcc1ee4066136d296d78b064c14f2423d",
      "v": 27,
      "creates": null,
      "raw": "0xf86d80850cec99caef82520894c8ebccc5f5689fa8659d83713341e5ad19349448890499643a7f98240000801ba0a3904d9c643f432c3f2f634c50c9c60d64d8d5241e215252c1ff517bf02a04f9a05de4df38d7b99b87e8d9bc560ad0629fcc1ee4066136d296d78b064c14f2423d",
      "networkId": 0,
      "chainId": 0
    }
  ]
}