{
  "hash": "0xf9bbfd1cdcf75875ea8377385d6832b080d47b636d2727994a9f355b8c6fc0f1",
  "parentHash": "0x9953d0e76f4b93f498a51548857ef64a5e985541de073ff068180707564bb54c",
  "number": 117818,
  "timestamp": 1440115902,
  "nonce": "0x723be174b52e04a0",
  "difficulty": 4348321750287,
  "gasLimit": {
    "_hex": "0x2fefd8"
  },
  "gasUsed": {
    "_hex": "0x14820"
  },
  "miner": "0x580992B51e3925e23280EfB93d3047C82f17E038",
  "extraData": "0x",
  "transactions": [
    {
      "hash": "0x38315d07bd611715afdc1e837ce32760d4a09db03c99d3059de0fbb8aed27772",
      "blockHash": "0xf9bbfd1cdcf75875ea8377385d6832b080d47b636d2727994a9f355b8c6fc0f1",
      "blockNumber": 117818,
      "transactionIndex": 0,
      "confirmations": null,
      "from": "0xa9f5E7bf6Cbf6fEc55B30850Eb492b47A376d050",
      "gasPrice": {
        "_hex": "0xba43b7400"
      },
      "gasLimit": {
        "_hex": "0x5208"
      },
      "to": "0x32Be343B94f860124dC4fEe278FDCBD38C102D88",
      "value": {
        "_hex": "0x92954ec7fa7818000"
      },
      "nonce": 33,
      "data": "0x",
      "r": "0x0e6f25d062a4cc34f85b0e4e94160982adb0585407a54dbe12495fc015902e99",
      "s": "0x007ff263feb8e1ce01d9ba6a2238eed0aea6bc9b6a35058b7433afce98d2203e",
      "v": 28,
      "creates": null,
      "raw": "0xf86c21850ba43b74008252089432be343b94f860124dc4fee278fdcbd38c102d8889092954ec7fa7818000801ca00e6f25d062a4cc34f85b0e4e94160982adb0585407a54dbe12495fc015902e999f7ff263feb8e1ce01d9ba6a2238eed0aea6bc9b6a35058b7433afce98d2203e",
      "networkId": 0,
      "chainId": 0
    },
    {
      "hash": "0x86158cf472be9654c18b67a2bbcbc8f3ed75a7af979cdadf12bdc0720745df31",
      "blockHash": "0xf9bbfd1cdcf75875ea8377385d6832b080d47b636d2727994a9f355b8c6fc0f1",
      "blockNumber": 117818,
      "transactionIndex": 1,
      "confirmations": null,
      "from": "0x771b12Bc207A1c4823e77075B17F8D329ACD77A3",
      "gasPrice": {
        "_hex": "0xba43b7400"
      },
      "gasLimit": {
        "_hex": "0x5208"
      },
      "to": "0x32Be343B94f860124dC4fEe278FDCBD38C102D88",
      "value": {
        "_hex": "0x74424d4859ac6c00"
      },
      "nonce": 12,
      "data": "0x",
      "r": "0x6f572bf6953884a9ecb287131af59204028d317ab5501c1db845d35178081c96",
      "s": "0x2bec6b914d091b76b25f1de529bf181e93073f5deec4c15b3e2cb0628c12fb68",
      "v": 28,
      "creates": null,
      "raw": "0xf86c0c850ba43b74008252089432be343b94f860124dc4fee278fdcbd38c102d888874424d4859ac6c00801ca06f572bf6953884a9ecb287131af59204028d317ab5501c1db845d35178081c96a02bec6b914d091b76b25f1de529bf181e93073f5deec4c15b3e2cb0628c12fb68",
      "networkId": 0,
      "chainId": 0
    },
    {
      "hash": "0x75849df4f8ad28207219096b20123eadb3c79a5fcc8c8a9966f227e66c8f7f7c",
      "blockHash": "0xf9bbfd1cdcf75875ea8377385d6832b080d47b636d2727994a9f355b8c6fc0f1",
      "blockNumber": 117818,
      "transactionIndex": 2,
      "confirmations": null,
      "from": "0x27e806e70622d2864e1B1f4426D72FFb0457C83a",
      "gasPrice": {
        "_hex": "0xba43b7400"
      },
      "gasLimit": {
        "_hex": "0x5208"
      },
      "to": "0x32Be343B94f860124dC4fEe278FDCBD38C102D88",
      "value": {
        "_hex": "0x36afeedee1263000"
      },
      "nonce": 20,
      "data": "0x",
      "r": "0x59b7476e9160aa0b343bcb6d13a2420739409facde9c42485d3a63d1853d0f0b",
      "s": "0x6f8af40555be6609d88427bca6cc985a83c0ae9ee55ec9e6eedb95bcf8d775d6",
      "v": 28,
      "creates": null,
      "raw": "0xf86c14850ba43b74008252089432be343b94f860124dc4fee278fdcbd38c102d888836afeedee1263000801ca059b7476e9160aa0b343bcb6d13a2420739409facde9c42485d3a63d1853d0f0ba06f8af40555be6609d88427bca6cc985a83c0ae9ee55ec9e6eedb95bcf8d775d6",
      "networkId": 0,
      "chainId": 0
    },
    {
      "hash": "0xccc86b253c92691368a328638c040412c96866fef2d50b259050ba8dabd05e2d",
      "blockHash": "0xf9bbfd1cdcf75875ea8377385d6832b080d47b636d2727994a9f355b8c6fc0f1",
      "blockNumber": 117818,
      "transactionIndex": 3,
      "confirmations": null,
      "from": "0x097738363B1662599ad0777E19461601F5EC8dF9",
      "gasPrice": {
        "_hex": "0xba43b7400"
      },
      "gasLimit": {
        "_hex": "0x5208"
      },
      "to": "0x32Be343B94f860124dC4fEe278FDCBD38C102D88",
      "value": {
        "_hex": "0x27fda5701b4df8000"
      },
      "nonce": 25,
      "data": "0x",
      "r": "0xbcfb607cc0d9dce5dc9d30cceed54258bbdd503bed55d58f283d264de248cdb7",
      "s": "0x5969494ff2b2d428ee115765208920ab23803128c912b257452fbcf25ab4eeb3",
      "v": 27,
      "creates": null,
      "raw": "0xf86d19850ba43b74008252089432be343b94f860124dc4fee278fdcbd38c102d8889027fda5701b4df8000801ba0bcfb607cc0d9dce5dc9d30cceed54258bbdd503bed55d58f283d264de248cdb7a05969494ff2b2d428ee115765208920ab23803128c912b257452fbcf25ab4eeb3",
      "networkId": 0,
      "chainId": 0
    }
  ]
}