{
  "hash": "0x7710ecfb948f8fdd513e93d54fffedeb828a06c925035e4546a46a5633d823f6",
  "parentHash": "0xa93b6690e2643bb34131e5165f8e24bdf612e6dd068d53d71e5101a7273dc2f0",
  "number": 63127,
  "timestamp": 1439199629,
  "nonce": "0xdb2b2bbc0fa1af4d",
  "difficulty": 1802370135577,
  "gasLimit": {
    "_hex": "0x2fefd8"
  },
  "gasUsed": {
    "_hex": "0x5208"
  },
  "miner": "0x47ff6576639c2e94762eA5443978D7681C0E78DC",
  "extraData": "0x476574682f76312e302e312f6c696e75782f676f312e342e32",
  "transactions": [
    {
      "hash": "0x976567aed87db2f9e4c9b4c7024e29864cebdff876b42fd4be2d79337b258cd0",
      "blockHash": "0x7710ecfb948f8fdd513e93d54fffedeb828a06c925035e4546a46a5633d823f6",
      "blockNumber": 63127,
      "transactionIndex": 0,
      "confirmations": null,
      "from": "0x571BF6618BabeCc1D28F95b6A1f5F251Ec94dbBD",
      "gasPrice": {
        "_hex": "0xd8364fc25"
      },
      "gasLimit": {
        "_hex": "0x15f90"
      },
      "to": "0xd02363f4ecf75b90a1B243f3F943A9BF8B16d89f",
      "value": {
        "_hex": "0x2386f26fc10000"
      },
      "nonce": 0,
      "data": "0x",
      "r": "0x6d80b0d792f6fabdfc254c60471de1bbc6f881b89365f92084cfed1da17e973c",
      "s": "0x508956743ab41e093b78b9536e21a904cbc53a99cc5bc91ee9aaf235e9afa42b",
      "v": 27,
      "creates": null,
      "raw": "0xf86c80850d8364fc2583015f9094d02363f4ecf75b90a1b243f3f943a9bf8b16d89f872386f26fc10000801ba06d80b0d792f6fabdfc254c60471de1bbc6f881b89365f92084cfed1da17e973ca0508956743ab41e093b78b9536e21a904cbc53a99cc5bc91ee9aaf235e9afa42b",
      "networkId": 0,
      "chainId": 0
    }
  ]
}