{
  "hash": "0xe36c9a6381be335c7f3d65fb143bb567e42c229b12bd96e7d06a3ee8a77a50a7",
  "parentHash": "0x3f79735f39b2893ca74fe9ee905199035a2cb1ca00cee4ec2ae03f69c12e6e9a",
  "number": 46570,
  "timestamp": 1438925489,
  "nonce": "0x2b3f27f7f81ec14f",
  "difficulty": 1458921356991,
  "gasLimit": {
    "_hex": "0x693d"
  },
  "gasUsed": {
    "_hex": "0x5208"
  },
  "miner": "0xcd39cBcF71Ff4e9592F94db59db4ff45e34b174f",
  "extraData": "0x476574682f76312e302e312f6c696e75782f676f312e342e32",
  "transactions": [
    {
      "hash": "0x14275f36143c520ec12667bb9ea2fc148262ac616e205ee82ff6e6f7fe564045",
      "blockHash": "0xe36c9a6381be335c7f3d65fb143bb567e42c229b12bd96e7d06a3ee8a77a50a7",
      "blockNumber": 46570,
      "transactionIndex": 0,
      "confirmations": null,
      "from": "0x87898CE53471043FcCa0a2aF4E1dC6d8B3fCf607",
      "gasPrice": {
        "_hex": "0x58c490c2bb"
      },
      "gasLimit": {
        "_hex": "0x5208"
      },
      "to": "0xBFdD9820a04283b289957956353b5F3C1F665EcF",
      "value": {
        "_hex": "0x4f9fb1d9f6cdc0000"
      },
      "nonce": 1,
      "data": "0x",
      "r": "0x351e9e92b7054af983b72baf324d08406b51f7c1fb7c9062348893dbe8362f08",
      "s": "0x49c54a7f93166e509a6c440103c1de3e9d3083d05fc32bdd71f02eabe5c685e5",
      "v": 27,
      "creates": null,
      "raw": "0xf86d018558c490c2bb82520894bfdd9820a04283b289957956353b5f3c1f665ecf8904f9fb1d9f6cdc0000801ba0351e9e92b7054af983b72baf324d08406b51f7c1fb7c9062348893dbe8362f08a049c54a7f93166e509a6c440103c1de3e9d3083d05fc32bdd71f02eabe5c685e5",
      "networkId": 0,
      "chainId": 0
    }
  ]
}