{
  "hash": "0xa29f4229bfcdb798f4b42a31b612beb98b264e8e4e0b91c75216f18ac703f621",
  "parentHash": "0x746c9c513b98de4356f84670986a025de67e6946e094678d3454380b4719c18b",
  "number": 100577,
  "timestamp": 1439808845,
  "nonce": "0x006e5a1d47075ecf",
  "difficulty": 3813488785659,
  "gasLimit": {
    "_hex": "0x2fefd8"
  },
  "gasUsed": {
    "_hex": "0xa410"
  },
  "miner": "0x12a3bc22E3aE33B8e6A44D37dC0eb474277B9F62",
  "extraData": "0x476574682f76312e302e312f6c696e75782f676f312e342e32",
  "transactions": [
    {
      "hash": "0xa4553e5ecaa0f0997d1d028c688cbde1c5529e70b4fc7072b7575f61981a0eb4",
      "blockHash": "0xa29f4229bfcdb798f4b42a31b612beb98b264e8e4e0b91c75216f18ac703f621",
      "blockNumber": 100577,
      "transactionIndex": 0,
      "confirmations": null,
      "from": "0x46532c79E7F23Aa3520221582D7AC182fb98C56B",
      "gasPrice": {
        "_hex": "0x10a178f1ed5"
      },
      "gasLimit": {
        "_hex": "0x15f90"
      },
      "to": "0x95A466C2ba3A392003E9ef63F4442236C6E1B40E",
      "value": {
        "_hex": "0x7b8326d884fa0000"
      },
      "nonce": 4,
      "data": "0x",
      "r": "0x5c1da21dc28b6316f450ce068b2933e59a0261b46735531e0725063c57d8543d",
      "s": "0x05e7087531fee353e8d1a9b18ced054521a4285bc0abf114868b72e928f6fc29",
      "v": 27,
      "creates": null,
      "raw": "0xf86e0486010a178f1ed583015f909495a466c2ba3a392003e9ef63f4442236c6e1b40e887b8326d884fa0000801ba05c1da21dc28b6316f450ce068b2933e59a0261b46735531e0725063c57d8543da005e7087531fee353e8d1a9b18ced054521a4285bc0abf114868b72e928f6fc29",
      "networkId": 0,
      "chainId": 0
    },
    {
      "hash": "0x9cecdc58f6f210bd044d8e376a653c3bdbb30805cedf873529ae4ea5a72a0dc8",
      "blockHash": "0xa29f4229bfcdb798f4b42a31b612beb98b264e8e4e0b91c75216f18ac703f621",
      "blockNumber": 100577,
      "transactionIndex": 1,
      "confirmations": null,
      "from": "0xa6BDc31c431B8F97848c9D60cbbe9660dc450eB7",
      "gasPrice": {
        "_hex": "0xdd35f228c"
      },
      "gasLimit": {
        "_hex": "0x5208"
      },
      "to": "0x32Be343B94f860124dC4fEe278FDCBD38C102D88",
      "value": {
        "_hex": "0x455f235e74eb1000"
      },
      "nonce": 150,
      "data": "0x",
      "r": "0x174ac828f96e9d1c16f6947d3ab9d75b95f693663984cab4356aa28721918e67",
      "s": "0x24da88b1e88119f94345a7ac63707944d91f9a8481c46b772d007e02b7128baf",
      "v": 28,
      "creates": null,
      "raw": "0xf86d8196850dd35f228c8252089432be343b94f860124dc4fee278fdcbd38c102d8888455f235e74eb1000801ca0174ac828f96e9d1c16f6947d3ab9d75b95f693663984cab4356aa28721918e67a024da88b1e88119f94345a7ac63707944d91f9a8481c46b772d007e02b7128baf",
      "networkId": 0,
      "chainId": 0
    }
  ]
}