{
  "hash": "0x6386878210d4732e6d7f3b1fde175bdade9fe827f75453580d091a311b3a63d8",
  "parentHash": "0x2f2cc9e9678d8b4a3da2b1178fcf9c000ce0ba59c41a6d5f226fbb0ba37ac805",
  "number": 78753,
  "timestamp": 1439458726,
  "nonce": "0x906f656eedfbd991",
  "difficulty": 2309982146923,
  "gasLimit": {
    "_hex": "0x2fefd8"
  },
  "gasUsed": {
    "_hex": "0x14820"
  },
  "miner": "0x9746c7e1ef2bd21FF3997fa467593a89cb852BD0",
  "extraData": "0x476574682f76312e302e312f77696e646f77732f676f312e342e32",
  "transactions": [
    {
      "hash": "0xb19cab1eb90819ef5fc6fccf128e8eafff18a5ed168216043839026c63fcf2a7",
      "blockHash": "0x6386878210d4732e6d7f3b1fde175bdade9fe827f75453580d091a311b3a63d8",
      "blockNumber": 78753,
      "transactionIndex": 0,
      "confirmations": null,
      "from": "0x2910543Af39abA0Cd09dBb2D50200b3E800A63D2",
      "gasPrice": {
        "_hex": "0xdf2137df6"
      },
      "gasLimit": {
        "_hex": "0x5208"
      },
      "to": "0xb4Ad43131139584E8f6F31D578E0dC4d11Df6D7b",
      "value": {
        "_hex": "0x2b5e3af16b1880000"
      },
      "nonce": 348,
      "data": "0x",
      "r": "0x66f1ea5a69320c4c53bc349129a9c6f59f879a4d17855b4d3cd4e40a65be1968",
      "s": "0x6ebf053919a1a077277b2c89189a6178acb1804f74c5538c2b1260896750755f",
      "v": 28,
      "creates": null,
      "raw": "0xf86f82015c850df2137df682520894b4ad43131139584e8f6f31d578e0dc4d11df6d7b8902b5e3af16b1880000801ca066f1ea5a69320c4c53bc349129a9c6f59f879a4d17855b4d3cd4e40a65be1968a06ebf053919a1a077277b2c89189a6178acb1804f74c5538c2b1260896750755f",
      "networkId": 0,
      "chainId": 0
    },
    {
      "hash": "0xc6dca7d19f13dce98de832b316530271009eb4b1cc86a927a89c30f17806919f",
      "blockHash": "0x6386878210d4732e6d7f3b1fde175bdade9fe827f75453580d091a311b3a63d8",
      "blockNumber": 78753,
      "transactionIndex": 1,
      "confirmations": null,
      "from": "0xfDC46f32a632B2B3D5d18776B2FD8Cce5E6C37dd",
      "gasPrice": {
        "_hex": "0xcec2671c7"
      },
      "gasLimit": {
        "_hex": "0x5208"
      },
      "to": "0x32Be343B94f860124dC4fEe278FDCBD38C102D88",
      "value": {
        "_hex": "0xddc8729930e3c00"
      },
      "nonce": 0,
      "data": "0x",
      "r": "0xa3d75715defca0c2f1ebeef4e0b14ec3fe65532eda6038294c68966d3b8e595d",
      "s": "0x5cc7e02e4c94d3acae6158aaecbf2d082bbe2c01f8aafa8ff597f20af5ca5a59",
      "v": 28,
      "creates": null,
      "raw": "0xf86c80850cec2671c78252089432be343b94f860124dc4fee278fdcbd38c102d88880ddc8729930e3c00801ca0a3d75715defca0c2f1ebeef4e0b14ec3fe65532eda6038294c68966d3b8e595da05cc7e02e4c94d3acae6158aaecbf2d082bbe2c01f8aafa8ff597f20af5ca5a59",
      "networkId": 0,
      "chainId": 0
    },
    {
      "hash": "0x3533e44bacbbe2c21c136f6d97bc466bccebe1c97a65fe075d1f91118826de7c",
      "blockHash": "0x6386878210d4732e6d7f3b1fde175bdade9fe827f75453580d091a311b3a63d8",
      "blockNumber": 78753,
      "transactionIndex": 2,
      "confirmations": null,
      "from": "0xbA86D58204A1f1fbe53Ff71aa038BC08cb4057e8",
      "gasPrice": {
        "_hex": "0xcec2671c7"
      },
      "gasLimit": {
        "_hex": "0x5208"
      },
      "to": "0x32Be343B94f860124dC4fEe278FDCBD38C102D88",
      "value": {
        "_hex": "0x455f6d772b53fc00"
      },
      "nonce": 5,
      "data": "0x",
      "r": "0xf49e5053927dcf994d9bc806b316421127741bdd149992728ba242dda67c2e52",
      "s": "0x6692e1b3746b3dba8d932de7f3262d05ccd7b63d6e6aa398fec90436718eb131",
      "v": 28,
      "creates": null,
      "raw": "0xf86c05850cec2671c78252089432be343b94f860124dc4fee278fdcbd38c102d8888455f6d772b53fc00801ca0f49e5053927dcf994d9bc806b316421127741bdd149992728ba242dda67c2e52a06692e1b3746b3dba8d932de7f3262d05ccd7b63d6e6aa398fec90436718eb131",
      "networkId": 0,
      "chainId": 0
    },
    {
      "hash": "0xeb06bb706e558ddf3a7bdf1d931c797d48d760f8c0359bc977eb94436bd7e54a",
      "blockHash": "0x6386878210d4732e6d7f3b1fde175bdade9fe827f75453580d091a311b3a63d8",
      "blockNumber": 78753,
      "transactionIndex": 3,
      "confirmations": null,
      "from": "0x972ad000397A3c903299F1353d6d4b85eE4E4e2A",
      "gasPrice": {
        "_hex": "0xcec2671c7"
      },
      "gasLimit": {
        "_hex": "0x5208"
      },
      "to": "0x32Be343B94f860124dC4fEe278FDCBD38C102D88",
      "value": {
        "_hex": "0x22b1868070e000000"
      },
      "nonce": 4,
      "data": "0x",
      "r": "0x580e34f4f0ae8d79275542ba1058d1b2ac41aca2cb4ff206a6bf5bf6c23968dc",
      "s": "0x050fb7057e462ff0fb2ffb42c8cbdfa8e6ef789180204a9c6ef1b8f2045abc63",
      "v": 27,
      "creates": null,
      "raw": "0xf86d04850cec2671c78252089432be343b94f860124dc4fee278fdcbd38c102d8889022b1868070e000000801ba0580e34f4f0ae8d79275542ba1058d1b2ac41aca2cb4ff206a6bf5bf6c23968dca0050fb7057e462ff0fb2ffb42c8cbdfa8e6ef789180204a9c6ef1b8f2045abc63",
      "networkId": 0,
      "chainId": 0
    }
  ]
}