{
  "hash": "0x9b769f8aef3c5303210dde90ef6e27e342c8f6b5621d3ebd2f0dfe2b131fac74",
  "parentHash": "0xe1627b65ce25f812744cfe38f9d3a8e887f0f1318c96830771048c209686ab49",
  "number": 70498,
  "timestamp": 1439320622,
  "nonce": "0x5bf4ed384b547bcc",
  "difficulty": 2150004546362,
  "gasLimit": {
    "_hex": "0x2fefd8"
  },
  "gasUsed": {
    "_hex": "0x8581"
  },
  "miner": "0xe6A7a1d47ff21B6321162AEA7C6CB457D5476Bca",
  "extraData": "0x476574682f76312e302e312d38326566323666362f6c696e75782f676f312e34",
  "transactions": [
    {
      "hash": "0x75543a4a711f2172c941fb2291dcd3711b5bb5f0fbb2dc4495c0361f53f09fea",
      "blockHash": "0x9b769f8aef3c5303210dde90ef6e27e342c8f6b5621d3ebd2f0dfe2b131fac74",
      "blockNumber": 70498,
      "transactionIndex": 0,
      "confirmations": null,
      "from": "0xa14Cf6cEC1c6aAe4b608458F6e14692863A937Aa",
      "gasPrice": {
        "_hex": "0xcb043ebc0"
      },
      "gasLimit": {
        "_hex": "0x61a80"
      },
      "to": "0x5Fe5B7546D1628f7348B023A0393de1FC825A4fD",
      "value": {
        "_hex": "0x0"
      },
      "nonce": 17,
      "data": "0x572668030000000000000000000000000000000000000000000000056bc75e2d63100000",
      "r": "0xcf588dc04714fca9d847d95de3bf4c50691b989c4dc66b0e4f6bd021434cd04f",
      "s": "0x76440a9a36db50bd4b07cca1bd7fd3a88ee0edb972a3e149e80cf1b7dd15eb65",
      "v": 28,
      "creates": null,
      "raw": "0xf88911850cb043ebc083061a80945fe5b7546d1628f7348b023a0393de1fc825a4fd80a4572668030000000000000000000000000000000000000000000000056bc75e2d631000001ca0cf588dc04714fca9d847d95de3bf4c50691b989c4dc66b0e4f6bd021434cd04fa076440a9a36db50bd4b07cca1bd7fd3a88ee0edb972a3e149e80cf1b7dd15eb65",
      "networkId": 0,
      "chainId": 0
    }
  ]
}