{
  "hash": "0x49d79c70c5e93e4755e4f2273326582cb5085e7cfd314ec9482a812e30000cc3",
  "parentHash": "0xae1c9201b9db7bfe11d22a15320f50fcb9d2bbacce77eacfc1bbcbf874d6948b",
  "number": 71536,
  "timestamp": 1439337715,
  "nonce": "0x1231d3cec73f07ce",
  "difficulty": 2175078962309,
  "gasLimit": {
    "_hex": "0x2fefd8"
  },
  "gasUsed": {
    "_hex": "0xae73"
  },
  "miner": "0x0193d941b50d91BE6567c7eE1C0Fe7AF498b4137",
  "extraData": "0x4a5ace9e4e",
  "transactions": [
    {
      "hash": "0xd049dee92f3f4b25acb1eb33667bbf0adbed027c044470ae9ddd304728f16575",
      "blockHash": "0x49d79c70c5e93e4755e4f2273326582cb5085e7cfd314ec9482a812e30000cc3",
      "blockNumber": 71536,
      "transactionIndex": 0,
      "confirmations": null,
      "from": "0x17580B766f7453525ca4C6A88b01b50570EA088C",
      "gasPrice": {
        "_hex": "0xdb986b431"
      },
      "gasLimit": {
        "_hex": "0x61a80"
      },
      "to": "0x5Fe5B7546D1628f7348B023A0393de1FC825A4fD",
      "value": {
        "_hex": "0x4563918244f40000"
      },
      "nonce": 212,
      "data": "0xb595b8b50000000000000000000000000000000000000000000000000000000000000000",
      "r": "0xa8c97dd0bcba0657bb8718429013e21c161d506448963a43bbd16dba17f5cff1",
      "s": "0x43efb140b596548ce86c580f4e9f42a6fad8cc0b42855da9a7939ceb092ae703",
      "v": 27,
      "creates": null,
      "raw": "0xf89281d4850db986b43183061a80945fe5b7546d1628f7348b023a0393de1fc825a4fd884563918244f40000a4b595b8b500000000000000000000000000000000000000000000000000000000000000001ba0a8c97dd0bcba0657bb8718429013e21c161d506448963a43bbd16dba17f5cff1a043efb140b596548ce86c580f4e9f42a6fad8cc0b42855da9a7939ceb092ae703",
      "networkId": 0,
      "chainId": 0
    }
  ]
}