{
  "hash": "0x3a362059b98688c42ad239cce1232bc9c782cb7443c62e4cccb73ca193b26c86",
  "parentHash": "0xf79430e96fd88cf47cc2f7962a98d172969abfee624e9eab8a8cc8d06146493b",
  "number": 108704,
  "timestamp": 1439944905,
  "nonce": "0xf750bbb9415f3528",
  "difficulty": 4331845340382,
  "gasLimit": {
    "_hex": "0x2fefd8"
  },
  "gasUsed": {
    "_hex": "0x5208"
  },
  "miner": "0xf5B16AbF021545b8298f4a32d7384Fac30e780Ae",
  "extraData": "0x",
  "transactions": [
    {
      "hash": "0x5b7f7f342e6b07c6fe48bf6d4b81751c72486da78b71c9c7db876f70351d9007",
      "blockHash": "0x3a362059b98688c42ad239cce1232bc9c782cb7443c62e4cccb73ca193b26c86",
      "blockNumber": 108704,
      "transactionIndex": 0,
      "confirmations": null,
      "from": "0x74A2B23F7e1bC34c7a605776e0Cd2CbF73566794",
      "gasPrice": {
        "_hex": "0xe2ec14fa1"
      },
      "gasLimit": {
        "_hex": "0x5208"
      },
      "to": "0x32Be343B94f860124dC4fEe278FDCBD38C102D88",
      "value": {
        "_hex": "0x375ade78b4c13c00"
      },
      "nonce": 2,
      "data": "0x",
      "r": "0xf5d60f52dfb017e20eeabada4cca09d952a9f5276d50265bc7509d1292363a5d",
      "s": "0x624a7b1957d5b8b63a5e3b05bc499ce6b420664f61b08b6ca528b1c94b810598",
      "v": 27,
      "creates": null,
      "raw": "0xf86c02850e2ec14fa18252089432be343b94f860124dc4fee278fdcbd38c102d8888375ade78b4c13c00801ba0f5d60f52dfb017e20eeabada4cca09d952a9f5276d50265bc7509d1292363a5da0624a7b1957d5b8b63a5e3b05bc499ce6b420664f61b08b6ca528b1c94b810598",
      "networkId": 0,
      "chainId": 0
    }
  ]
}