{
  "hash": "0x00009a35d243b6aed7b31ae132c50660a953a57aa2fce3fa46dca5ef05c49626",
  "parentHash": "0x4d43ccdd0fefacd7c223aaa690dfbe9ee9553f3d00398135292beb98dcf50bad",
  "number": 121217,
  "timestamp": 1440173392,
  "nonce": "0x6e423a4939c1ac59",
  "difficulty": 4408546005293,
  "gasLimit": {
    "_hex": "0x2fefd8"
  },
  "gasUsed": {
    "_hex": "0x5208"
  },
  "miner": "0xe6A7a1d47ff21B6321162AEA7C6CB457D5476Bca",
  "extraData": "0xd783010002844765746887676f312e342e32856c696e7578",
  "transactions": [
    {
      "hash": "0x0e3cc9da77e2140dd7d2a35cee35f243aed1787f519164861496785a258594b6",
      "blockHash": "0x00009a35d243b6aed7b31ae132c50660a953a57aa2fce3fa46dca5ef05c49626",
      "blockNumber": 121217,
      "transactionIndex": 0,
      "confirmations": null,
      "from": "0x756Fd95F0bC102071dddf04c04d58F8DEf4F2AF2",
      "gasPrice": {
        "_hex": "0xba43b7400"
      },
      "gasLimit": {
        "_hex": "0x5208"
      },
      "to": "0x32Be343B94f860124dC4fEe278FDCBD38C102D88",
      "value": {
        "_hex": "0x455fd68c6bfc4400"
      },
      "nonce": 4,
      "data": "0x",
      "r": "0xb644a7af9d2a93fc02dcc1c8990ebf95532b8101054eae097ba81fb547f5084e",
      "s": "0x3a11951c5b002f969dfda970717dceeee2c79a499a5150a21704dcfc2e987182",
      "v": 27,
      "creates": null,
      "raw": "0xf86c04850ba43b74008252089432be343b94f860124dc4fee278fdcbd38c102d8888455fd68c6bfc4400801ba0b644a7af9d2a93fc02dcc1c8990ebf95532b8101054eae097ba81fb547f5084ea03a11951c5b002f969dfda970717dceeee2c79a499a5150a21704dcfc2e987182",
      "networkId": 0,
      "chainId": 0
    }
  ]
}