{
  "hash": "0x3c07ea98b0d0344b964af1f1cbdd56af957a54e7e986a659da9e54cf2a44a8e3",
  "parentHash": "0xc98a274c6aa852a31707ac6dcbf686610bdabb05ba922d65095b11ffb445a836",
  "number": 105236,
  "timestamp": 1439884012,
  "nonce": "0x0a0b1601a6590467",
  "difficulty": 4350597948161,
  "gasLimit": {
    "_hex": "0x2fefd8"
  },
  "gasUsed": {
    "_hex": "0x5208"
  },
  "miner": "0xe6A7a1d47ff21B6321162AEA7C6CB457D5476Bca",
  "extraData": "0x476574682f76312e302e312d38326566323666362f6c696e75782f676f312e34",
  "transactions": [
    {
      "hash": "0x69a780dad245931505131f645bc10f866929f8b0253418d40e832a6b8dbaec33",
      "blockHash": "0x3c07ea98b0d0344b964af1f1cbdd56af957a54e7e986a659da9e54cf2a44a8e3",
      "blockNumber": 105236,
      "transactionIndex": 0,
      "confirmations": null,
      "from": "0x1527fcd698B3A8707bb745F80ab114FfF3Db35E2",
      "gasPrice": {
        "_hex": "0xdb9e0f183"
      },
      "gasLimit": {
        "_hex": "0x5208"
      },
      "to": "0x32Be343B94f860124dC4fEe278FDCBD38C102D88",
      "value": {
        "_hex": "0x8ac2b1d01637f000"
      },
      "nonce": 6,
      "data": "0x",
      "r": "0xcba44d518fa57a558973630651c939ab44f819ac47426835a1ded9b346a7d45b",
      "s": "0x75627ccfe9bf64a509bb72032d1c71014895724305aab9159094588ec74d9ff9",
      "v": 28,
      "creates": null,
      "raw": "0xf86c06850db9e0f1838252089432be343b94f860124dc4fee278fdcbd38c102d88888ac2b1d01637f000801ca0cba44d518fa57a558973630651c939ab44f819ac47426835a1ded9b346a7d45ba075627ccfe9bf64a509bb72032d1c71014895724305aab9159094588ec74d9ff9",
      "networkId": 0,
      "chainId": 0
    }
  ]
}