{
  "hash": "0x32cb964cab80dbc75ccc083915f9be7c5d8a43b7cab8580d4f805c0c97633840",
  "parentHash": "0x05231dddee3a59e92b1316b27496343abdbf9126a93d8845856210dce3ecd5f8",
  "number": 84812,
  "timestamp": 1439554899,
  "nonce": "0xda167069046bb53d",
  "difficulty": 2629749542786,
  "gasLimit": {
    "_hex": "0x2fefd8"
  },
  "gasUsed": {
    "_hex": "0x5208"
  },
  "miner": "0xe6A7a1d47ff21B6321162AEA7C6CB457D5476Bca",
  "extraData": "0x476574682f76312e302e312d38326566323666362f6c696e75782f676f312e34",
  "transactions": [
    {
      "hash": "0x8cbae320ecf905d3501c3bfd3233773bf0d531a413b921695794d04eddd42baa",
      "blockHash": "0x32cb964cab80dbc75ccc083915f9be7c5d8a43b7cab8580d4f805c0c97633840",
      "blockNumber": 84812,
      "transactionIndex": 0,
      "confirmations": null,
      "from": "0xECaF3350b7ce144D068b186010852C84DD0CE0F0",
      "gasPrice": {
        "_hex": "0xd641f460d"
      },
      "gasLimit": {
        "_hex": "0x55f0"
      },
      "to": "0x90cA42f0308bF15db201F40e41faA6Dd7a96bEA7",
      "value": {
        "_hex": "0x1b1ae4d6e2ef500000"
      },
      "nonce": 1,
      "data": "0x",
      "r": "0xb442054f2bef0b665afa4f2a2346f347e97bee4e1ef0eb0be75b849e39fec537",
      "s": "0x1adc7900c9d2bd062377a53a07500f4a8985ded01245265979844ee3baa3d846",
      "v": 27,
      "creates": null,
      "raw": "0xf86d01850d641f460d8255f09490ca42f0308bf15db201f40e41faa6dd7a96bea7891b1ae4d6e2ef500000801ba0b442054f2bef0b665afa4f2a2346f347e97bee4e1ef0eb0be75b849e39fec537a01adc7900c9d2bd062377a53a07500f4a8985ded01245265979844ee3baa3d846",
      "networkId": 0,
      "chainId": 0
    }
  ]
}