{
  "hash": "0xaffb799eba64970a43576b4dc5eb030006eaba708d0c40465b6e07780af14447",
  "parentHash": "0x90d56b024b3f22edd4f945e8c5b6dddd63793cfbd7912d7dabe93770e20a9c00",
  "number": 100135,
  "timestamp": 1439801370,
  "nonce": "0xc64491d7d359f0ac",
  "difficulty": 3832356795787,
  "gasLimit": {
    "_hex": "0x2fefd8"
  },
  "gasUsed": {
    "_hex": "0x5208"
  },
  "miner": "0x55bAf64fc9eAccFFd7Cc643BB61142E1C6ac093e",
  "extraData": "0x",
  "transactions": [
    {
      "hash": "0x354adfbcfdaf5643246f19b817814d65dddf7c1fa525c713ce691f581818ddf0",
      "blockHash": "0xaffb799eba64970a43576b4dc5eb030006eaba708d0c40465b6e07780af14447",
      "blockNumber": 100135,
      "transactionIndex": 0,
      "confirmations": null,
      "from": "0xD9666150A9dA92d9108198a4072970805a8B3428",
      "gasPrice": {
        "_hex": "0xce1ef5403"
      },
      "gasLimit": {
        "_hex": "0x5208"
      },
      "to": "0x32Be343B94f860124dC4fEe278FDCBD38C102D88",
      "value": {
        "_hex": "0x8ac3023fa100a000"
      },
      "nonce": 40,
      "data": "0x",
      "r": "0xda0352262a672f8aa7af51aff0adf6af29ff2192d68492ab2c1f8f0487faba00",
      "s": "0x10f6fa3127a09a766473b68571cce73cb4dc15d9fc68d24c8031ab434cd49cc8",
      "v": 27,
      "creates": null,
      "raw": "0xf86c28850ce1ef54038252089432be343b94f860124dc4fee278fdcbd38c102d88888ac3023fa100a000801ba0da0352262a672f8aa7af51aff0adf6af29ff2192d68492ab2c1f8f0487faba00a010f6fa3127a09a766473b68571cce73cb4dc15d9fc68d24c8031ab434cd49cc8",
      "networkId": 0,
      "chainId": 0
    }
  ]
}