{
  "hash": "0x567a26407ec6eb2163a6fe4fac3d0588d028db24294a097ddad05c7a2bf25449",
  "parentHash": "0x94e8c05c9edf1c343bfd3e0374f04715c631b647d7ad043e68e39d9757d19751",
  "number": 58878,
  "timestamp": 1439128290,
  "nonce": "0x30dd8d00f7431512",
  "difficulty": 1703151145643,
  "gasLimit": {
    "_hex": "0x2fefd8"
  },
  "gasUsed": {
    "_hex": "0xa410"
  },
  "miner": "0xf927a40C8B7F6E07c5af7FA2155B4864a4112B13",
  "extraData": "0x476574682f76312e302e312f6c696e75782f676f312e342e32",
  "transactions": [
    {
      "hash": "0x64347da18a362980a8b4ad18e823177920a4bb4076ab355d5ebe7506077ed02e",
      "blockHash": "0x567a26407ec6eb2163a6fe4fac3d0588d028db24294a097ddad05c7a2bf25449",
      "blockNumber": 58878,
      "transactionIndex": 0,
      "confirmations": null,
      "from": "0xeD17Ea8E9fd42159037deE95ea173a56c54f55ce",
      "gasPrice": {
        "_hex": "0xdc8c31685"
      },
      "gasLimit": {
        "_hex": "0x5208"
      },
      "to": "0x32Be343B94f860124dC4fEe278FDCBD38C102D88",
      "value": {
        "_hex": "0x471f61ace975e4000"
      },
      "nonce": 13,
      "data": "0x",
      "r": "0xf72dddb00efe89e07f81692542c8b1c7d4fd34498ae551ee93fd8d016285d3a7",
      "s": "0x657219ed016d0c90008f788803b5c077df0fa6b62a34dc044856ab843889d08a",
      "v": 28,
      "creates": null,
      "raw": "0xf86d0d850dc8c316858252089432be343b94f860124dc4fee278fdcbd38c102d88890471f61ace975e4000801ca0f72dddb00efe89e07f81692542c8b1c7d4fd34498ae551ee93fd8d016285d3a7a0657219ed016d0c90008f788803b5c077df0fa6b62a34dc044856ab843889d08a",
      "networkId": 0,
      "chainId": 0
    },
    {
      "hash": "0x01875405ffb996c0d520064f9a0d1a364e5fd34a2346bcfef7a042f0172d2309",
      "blockHash": "0x567a26407ec6eb2163a6fe4fac3d0588d028db24294a097ddad05c7a2bf25449",
      "blockNumber": 58878,
      "transactionIndex": 1,
      "confirmations": null,
      "from": "0x0fFecdF99016b9C74f1088c858B0A6b71992A471",
      "gasPrice": {
        "_hex": "0xdc8c31685"
      },
      "gasLimit": {
        "_hex": "0x5208"
      },
      "to": "0x32Be343B94f860124dC4fEe278FDCBD38C102D88",
      "value": {
        "_hex": "0x356577078f995a0000"
      },
      "nonce": 4,
      "data": "0x",
      "r": "0x5db75fbb03f6ba5bb5fde532c5556f888c4180dad60a77ccf5dcc64bf7d76c76",
      "s": "0x36012ccecc8532c139fa6051e43f7c044270a3591ad7421d4862f14a5075df55",
      "v": 27,
      "creates": null,
      "raw": "0xf86d04850dc8c316858252089432be343b94f860124dc4fee278fdcbd38c102d8889356577078f995a0000801ba05db75fbb03f6ba5bb5fde532c5556f888c4180dad60a77ccf5dcc64bf7d76c76a036012ccecc8532c139fa6051e43f7c044270a3591ad7421d4862f14a5075df55",
      "networkId": 0,
      "chainId": 0
    }
  ]
}