{
  "hash": "0x252af72a6c9c3e918dcdddce7314501b97c045f679a5e44a2efce53ba4a53f51",
  "parentHash": "0x5cd2718d9f599c0da072ff9ded37db84d5b6e1d91e102de806bf87c8e7cb0e47",
  "number": 116686,
  "timestamp": 1440094334,
  "nonce": "0x6110c87cde7c2848",
  "difficulty": 4413082168319,
  "gasLimit": {
    "_hex": "0x2fefd8"
  },
  "gasUsed": {
    "_hex": "0x5208"
  },
  "miner": "0xe6A7a1d47ff21B6321162AEA7C6CB457D5476Bca",
  "extraData": "0xd783010002844765746887676f312e342e32856c696e7578",
  "transactions": [
    {
      "hash": "0x89b896ef6ded2c010f0eac449ecb089ede5ca89332de91d83f13562129b28824",
      "blockHash": "0x252af72a6c9c3e918dcdddce7314501b97c045f679a5e44a2efce53ba4a53f51",
      "blockNumber": 116686,
      "transactionIndex": 0,
      "confirmations": null,
      "from": "0x056507108FE6d30189EcCD6cd7F4Fad56eEef622",
      "gasPrice": {
        "_hex": "0xd27d896db"
      },
      "gasLimit": {
        "_hex": "0x15f90"
      },
      "to": "0x4207Ce62F4D50541Ca1b8c0a43d1AD3458c5f783",
      "value": {
        "_hex": "0x452c83c3e3f2fecd2"
      },
      "nonce": 31,
      "data": "0x",
      "r": "0xe98a70d19dc0bfd671c11c5aa260a4395f419f5d0b5e36beba5f760533fddaff",
      "s": "0x4d301a2c314c6d8bbd5b9661f71242624e9cae929eaa08f81b752412bfdb9d05",
      "v": 27,
      "creates": null,
      "raw": "0xf86e1f850d27d896db83015f90944207ce62f4d50541ca1b8c0a43d1ad3458c5f783890452c83c3e3f2fecd2801ba0e98a70d19dc0bfd671c11c5aa260a4395f419f5d0b5e36beba5f760533fddaffa04d301a2c314c6d8bbd5b9661f71242624e9cae929eaa08f81b752412bfdb9d05",
      "networkId": 0,
      "chainId": 0
    }
  ]
}