{
  "hash": "0xe4319c8b2a83d1243fd5fb1c208ff4d22246bb1842cdc5d55928c0ab854e9f42",
  "parentHash": "0x5f498591d7016fa8c0e6e71dee4c0cd0d7948b9a90571cbf2aa7994796476297",
  "number": 101750,
  "timestamp": 1439827531,
  "nonce": "0xabcf532da66777a9",
  "difficulty": 3874892466857,
  "gasLimit": {
    "_hex": "0x2fefd8"
  },
  "gasUsed": {
    "_hex": "0xa410"
  },
  "miner": "0xe6A7a1d47ff21B6321162AEA7C6CB457D5476Bca",
  "extraData": "0x476574682f76312e302e312d38326566323666362f6c696e75782f676f312e34",
  "transactions": [
    {
      "hash": "0xf1cbf03171ee02e046774bb156caff606e5bbc6c02eb6e1bf2ee6f0408dc7677",
      "blockHash": "0xe4319c8b2a83d1243fd5fb1c208ff4d22246bb1842cdc5d55928c0ab854e9f42",
      "blockNumber": 101750,
      "transactionIndex": 0,
      "confirmations": null,
      "from": "0x007f7f58D3eb5b7510A301eCC749FC1fCDDBE14D",
      "gasPrice": {
        "_hex": "0xe0cfe7246"
      },
      "gasLimit": {
        "_hex": "0x15f90"
      },
      "to": "0xb1abce2918E21ddb93AA452731a12672A3d9F75a",
      "value": {
        "_hex": "0x4563918244f40000"
      },
      "nonce": 192,
      "data": "0x",
      "r": "0x863ffa83fd28c20808b3106f95ad27675bc8e4b15803a21d1d73f89ef1db350d",
      "s": "0x5f4921f9b21c7d3e2d6ebf8239bdb09aabee6e8def7dec69cdf924135b511219",
      "v": 27,
      "creates": null,
      "raw": "0xf86e81c0850e0cfe724683015f9094b1abce2918e21ddb93aa452731a12672a3d9f75a884563918244f40000801ba0863ffa83fd28c20808b3106f95ad27675bc8e4b15803a21d1d73f89ef1db350da05f4921f9b21c7d3e2d6ebf8239bdb09aabee6e8def7dec69cdf924135b511219",
      "networkId": 0,
      "chainId": 0
    },
    {
      "hash": "0x8723fc14d4d98a80b2c548f19989b0fd941a2f9e9a164df9394af7f73c24936a",
      "blockHash": "0xe4319c8b2a83d1243fd5fb1c208ff4d22246bb1842cdc5d55928c0ab854e9f42",
      "blockNumber": 101750,
      "transactionIndex": 1,
      "confirmations": null,
      "from": "0x120A270bbC009644e35F0bB6ab13f95b8199c4ad",
      "gasPrice": {
        "_hex": "0xdb1f15f46"
      },
      "gasLimit": {
        "_hex": "0x3d090"
      },
      "to": "0x60d85a32126130b225913C23dF4e5EF8b759fA09",
      "value": {
        "_hex": "0x25f273933db5700000"
      },
      "nonce": 685,
      "data": "0x",
      "r": "0x7adcfe6c502dee1608cb2521c372166c4e2e73841d3fd0a0e5e3832549623561",
      "s": "0x01045d09fa7682e00f30c6f47dbb8cb5428364264bffe0cbaa13e6227f85c4a7",
      "v": 28,
      "creates": null,
      "raw": "0xf8708202ad850db1f15f468303d0909460d85a32126130b225913c23df4e5ef8b759fa098925f273933db5700000801ca07adcfe6c502dee1608cb2521c372166c4e2e73841d3fd0a0e5e3832549623561a001045d09fa7682e00f30c6f47dbb8cb5428364264bffe0cbaa13e6227f85c4a7",
      "networkId": 0,
      "chainId": 0
    }
  ]
}