{
  "hash": "0x2a8be2b0b105c4f8b5f3eabdcdf5122f2e0dc1a0d9988b1548791d96b4debdb4",
  "parentHash": "0x0787af5f6d982514784697989e45137cfbf55e4b03e66ffaf37d80a19737ec4f",
  "number": 94777,
  "timestamp": 1439714011,
  "nonce": "0xe5ff562ffd31322b",
  "difficulty": 3488221888225,
  "gasLimit": {
    "_hex": "0x2fefd8"
  },
  "gasUsed": {
    "_hex": "0xa410"
  },
  "miner": "0xe6A7a1d47ff21B6321162AEA7C6CB457D5476Bca",
  "extraData": "0x476574682f76312e302e312d38326566323666362f6c696e75782f676f312e34",
  "transactions": [
    {
      "hash": "0x7dd24688e79850f7e3b353cd73737925dd1a3e59b5437fe8690f497f40b25cb9",
      "blockHash": "0x2a8be2b0b105c4f8b5f3eabdcdf5122f2e0dc1a0d9988b1548791d96b4debdb4",
      "blockNumber": 94777,
      "transactionIndex": 0,
      "confirmations": null,
      "from": "0x8fA33bA169f6aFf86fB3C9E172bddA7CA6D2A66a",
      "gasPrice": {
        "_hex": "0xdef912fe4"
      },
      "gasLimit": {
        "_hex": "0x5208"
      },
      "to": "0x32Be343B94f860124dC4fEe278FDCBD38C102D88",
      "value": {
        "_hex": "0x3a16b033c016e000"
      },
      "nonce": 2,
      "data": "0x",
      "r": "0x8ab776cf9d6b9c726b3c7fc77f2c5230cbd32c0252064080c9f2f4c5b6cf3c14",
      "s": "0x550c6355adaed4e6dcd4b852266393862f3af27340ab087d884d17d762f5add4",
      "v": 28,
      "creates": null,
      "raw": "0xf86c02850def912fe48252089432be343b94f860124dc4fee278fdcbd38c102d88883a16b033c016e000801ca08ab776cf9d6b9c726b3c7fc77f2c5230cbd32c0252064080c9f2f4c5b6cf3c14a0550c6355adaed4e6dcd4b852266393862f3af27340ab087d884d17d762f5add4",
      "networkId": 0,
      "chainId": 0
    },
    {
      "hash": "0xecbf34f9285b7c25a3c0a73a31a4dc36c1296fa9622aeb24bfd9d6103b07f260",
      "blockHash": "0x2a8be2b0b105c4f8b5f3eabdcdf5122f2e0dc1a0d9988b1548791d96b4debdb4",
      "blockNumber": 94777,
      "transactionIndex": 1,
      "confirmations": null,
      "from": "0x744Df4ED8BaC8eBCa76964a93358c3A67a89b003",
      "gasPrice": {
        "_hex": "0xba43b7400"
      },
      "gasLimit": {
        "_hex": "0x5263"
      },
      "to": "0x08FE5A3C0709cF74d76cFd0e0Cd9d2A447eA263C",
      "value": {
        "_hex": "0x940fe6f924a48000"
      },
      "nonce": 3,
      "data": "0x",
      "r": "0xb32c469bb00a726bee92697739337b0ca16101f5bc4b72de01006532247842b2",
      "s": "0x3257d82ce860fd7d355a43e0d8628b8c828dd1e3ec2211177ec90c9c750b1ec2",
      "v": 28,
      "creates": null,
      "raw": "0xf86c03850ba43b74008252639408fe5a3c0709cf74d76cfd0e0cd9d2a447ea263c88940fe6f924a48000801ca0b32c469bb00a726bee92697739337b0ca16101f5bc4b72de01006532247842b2a03257d82ce860fd7d355a43e0d8628b8c828dd1e3ec2211177ec90c9c750b1ec2",
      "networkId": 0,
      "chainId": 0
    }
  ]
}