{
  "hash": "0x0bd061f7ef1a520a843078924109a047a6d021a0e08083ecca4a6fa6ac4599da",
  "parentHash": "0x27bd691392468efc6a473957d1f510633f1bec6fd9ed3e63d6ec07a07c3c394a",
  "number": 81265,
  "timestamp": 1439498780,
  "nonce": "0x191afc10e4935b3d",
  "difficulty": 2453430432873,
  "gasLimit": {
    "_hex": "0x2fefd8"
  },
  "gasUsed": {
    "_hex": "0xf618"
  },
  "miner": "0x9746c7e1ef2bd21FF3997fa467593a89cb852BD0",
  "extraData": "0x476574682f76312e302e312f77696e646f77732f676f312e342e32",
  "transactions": [
    {
      "hash": "0x3a6f6cc01437e3d8877338a6d951a793800cd63a75b800d1da6d53913e84ca1f",
      "blockHash": "0x0bd061f7ef1a520a843078924109a047a6d021a0e08083ecca4a6fa6ac4599da",
      "blockNumber": 81265,
      "transactionIndex": 0,
      "confirmations": null,
      "from": "0xa2BA1357f91629859aD8084f8B284D38c7edd321",
      "gasPrice": {
        "_hex": "0xde3ea7e59"
      },
      "gasLimit": {
        "_hex": "0x5208"
      },
      "to": "0x32Be343B94f860124dC4fEe278FDCBD38C102D88",
      "value": {
        "_hex": "0xddc43427046d400"
      },
      "nonce": 0,
      "data": "0x",
      "r": "0xddee5bb1b440a099c02139c9785447da878ea16762a6817c574cbcad2436ba8f",
      "s": "0x5cbde2b11f114cf4401be2764703d2d646415983e5b28319bfb8673e441d47da",
      "v": 28,
      "creates": null,
      "raw": "0xf86c80850de3ea7e598252089432be343b94f860124dc4fee278fdcbd38c102d88880ddc43427046d400801ca0ddee5bb1b440a099c02139c9785447da878ea16762a6817c574cbcad2436ba8fa05cbde2b11f114cf4401be2764703d2d646415983e5b28319bfb8673e441d47da",
      "networkId": 0,
      "chainId": 0
    },
    {
      "hash": "0xb9c18202e9dba9613f3c33de57891e9f7bacbc250a4a8645d13fda8199007509",
      "blockHash": "0x0bd061f7ef1a520a843078924109a047a6d021a0e08083ecca4a6fa6ac4599da",
      "blockNumber": 81265,
      "transactionIndex": 1,
      "confirmations": null,
      "from": "0x3fa4bD45851436Abd9C1d682D0b6d4e6624Ad021",
      "gasPrice": {
        "_hex": "0xdc23dd0b7"
      },
      "gasLimit": {
        "_hex": "0x5208"
      },
      "to": "0x32Be343B94f860124dC4fEe278FDCBD38C102D88",
      "value": {
        "_hex": "0x6c6ba0b65d1d180000"
      },
      "nonce": 0,
      "data": "0x",
      "r": "0x6f89b169f42321cbece69f27fde60911f0684e2be25daf7dcc01146255d6d384",
      "s": "0x17f3689f00c9295634a75127916d418e4321cad3404c98569f5a1403e3ee67f4",
      "v": 27,
      "creates": null,
      "raw": "0xf86d80850dc23dd0b78252089432be343b94f860124dc4fee278fdcbd38c102d88896c6ba0b65d1d180000801ba06f89b169f42321cbece69f27fde60911f0684e2be25daf7dcc01146255d6d384a017f3689f00c9295634a75127916d418e4321cad3404c98569f5a1403e3ee67f4",
      "networkId": 0,
      "chainId": 0
    },
    {
      "hash": "0x713f746d1755f91b4b8db934a5c9b339b4c7a8ead22774b01da249c568363802",
      "blockHash": "0x0bd061f7ef1a520a843078924109a047a6d021a0e08083ecca4a6fa6ac4599da",
      "blockNumber": 81265,
      "transactionIndex": 2,
      "confirmations": null,
      "from": "0x9Df360518f39eFB9729De3B6f9f1225f542c63E6",
      "gasPrice": {
        "_hex": "0xdc23dd0b7"
      },
      "gasLimit": {
        "_hex": "0x5208"
      },
      "to": "0x32Be343B94f860124dC4fEe278FDCBD38C102D88",
      "value": {
        "_hex": "0x3e575e841f843a0000"
      },
      "nonce": 0,
      "data": "0x",
      "r": "0xa71cd05b0a8c49631f1ce1817d2d1c8cc3e16f2840e6284b6f33d12bb0ed5d6f",
      "s": "0x02c4bd73f10e8e0b69fce53a25b4e6075755e8a7352305a8603c736320b5d1ad",
      "v": 28,
      "creates": null,
      "raw": "0xf86d80850dc23dd0b78252089432be343b94f860124dc4fee278fdcbd38c102d88893e575e841f843a0000801ca0a71cd05b0a8c49631f1ce1817d2d1c8cc3e16f2840e6284b6f33d12bb0ed5d6fa002c4bd73f10e8e0b69fce53a25b4e6075755e8a7352305a8603c736320b5d1ad",
      "networkId": 0,
      "chainId": 0
    }
  ]
}