{
  "hash": "0x1f7f773bdbf383e9a38e93661d15105f9313feedfed01b02c85aca7fd0e1e14e",
  "parentHash": "0x9335d3ac9cb536b3811fad383d66599da92f0410eafd2796eedd6efd36492261",
  "number": 89805,
  "timestamp": 1439629450,
  "nonce": "0xe9dfad8de68ee3d8",
  "difficulty": 3340229480785,
  "gasLimit": {
    "_hex": "0x2fefd8"
  },
  "gasUsed": {
    "_hex": "0x5208"
  },
  "miner": "0xe090Ffdced499691fA9379752a59F8A058c1eE4A",
  "extraData": "0x476574682f76312e302e312f6c696e75782f676f312e342e32",
  "transactions": [
    {
      "hash": "0xf18ff1198f077a6fa61ae5c65b17cd8b004a4ac7d7a1ec39ea20c353d74e1854",
      "blockHash": "0x1f7f773bdbf383e9a38e93661d15105f9313feedfed01b02c85aca7fd0e1e14e",
      "blockNumber": 89805,
      "transactionIndex": 0,
      "confirmations": null,
      "from": "0x9cF18B3eb373C383a42d06136ba331D766ed9Fbb",
      "gasPrice": {
        "_hex": "0xd8d8ecd70"
      },
      "gasLimit": {
        "_hex": "0x5208"
      },
      "to": "0x32Be343B94f860124dC4fEe278FDCBD38C102D88",
      "value": {
        "_hex": "0x19404a67908e1d000"
      },
      "nonce": 3,
      "data": "0x",
      "r": "0x72f62e5c6e71c876b292746463396e95801b0899201871ddab60cbd87f312b9d",
      "s": "0x01b0882af6544bd094a2b74c29cf7c3d7dd83c8251575f7bcc7a2c11e5a833a4",
      "v": 28,
      "creates": null,
      "raw": "0xf86d03850d8d8ecd708252089432be343b94f860124dc4fee278fdcbd38c102d8889019404a67908e1d000801ca072f62e5c6e71c876b292746463396e95801b0899201871ddab60cbd87f312b9da001b0882af6544bd094a2b74c29cf7c3d7dd83c8251575f7bcc7a2c11e5a833a4",
      "networkId": 0,
      "chainId": 0
    }
  ]
}