{
  "hash": "0x6e58471df759d3d09e6862b223be9251c9681179bad49c3771df2067dce4e8a7",
  "parentHash": "0x3f5f728dc232223cf5fe3c8c103c77f82c65a5f7936c6bb5502a8cf47ac91674",
  "number": 87504,
  "timestamp": 1439593284,
  "nonce": "0xfb2f59e8ca63e779",
  "difficulty": 3140248975695,
  "gasLimit": {
    "_hex": "0x2fefd8"
  },
  "gasUsed": {
    "_hex": "0x5208"
  },
  "miner": "0x785ffdDd5cE55c6DF963f345e68d3F2024E5Acb1",
  "extraData": "0x",
  "transactions": [
    {
      "hash": "0xc98b2131b3c8626c8775bde051835c6f282720d492a0e45921c5eb9522c9590e",
      "blockHash": "0x6e58471df759d3d09e6862b223be9251c9681179bad49c3771df2067dce4e8a7",
      "blockNumber": 87504,
      "transactionIndex": 0,
      "confirmations": null,
      "from": "0x2910543Af39abA0Cd09dBb2D50200b3E800A63D2",
      "gasPrice": {
        "_hex": "0xcb39c7d59"
      },
      "gasLimit": {
        "_hex": "0x5208"
      },
      "to": "0x02020D22dCF88f5eDd66B382D7da019F161fB7e3",
      "value": {
        "_hex": "0x11c37937e08000"
      },
      "nonce": 705,
      "data": "0x",
      "r": "0x57b4c20df2b8c3248eee0f7c13c682a4c9e8e63031005637be26e75bf35626ef",
      "s": "0x0a25303c5c6bf270f0b122bf50b0e4c86c31a2e8e91cfa16ce5d41a8c344c783",
      "v": 27,
      "creates": null,
      "raw": "0xf86d8202c1850cb39c7d598252089402020d22dcf88f5edd66b382d7da019f161fb7e38711c37937e08000801ba057b4c20df2b8c3248eee0f7c13c682a4c9e8e63031005637be26e75bf35626efa00a25303c5c6bf270f0b122bf50b0e4c86c31a2e8e91cfa16ce5d41a8c344c783",
      "networkId": 0,
      "chainId": 0
    }
  ]
}