{
  "hash": "0x4e423de3a5e42cf56b54c3c231eb5d3dfe14dd2776b089247321a538c69a5cab",
  "parentHash": "0xde9bef58854d493077282864a2d754adb13109a58adce00c39a62ecc4edae640",
  "number": 112227,
  "timestamp": 1440004026,
  "nonce": "0xec67615f507aee7a",
  "difficulty": 4374654562377,
  "gasLimit": {
    "_hex": "0x2fefd8"
  },
  "gasUsed": {
    "_hex": "0x5208"
  },
  "miner": "0xeB1325C8D9d3ea8D74aC11F4B00F1B2367686319",
  "extraData": "0x",
  "transactions": [
    {
      "hash": "0x3f2d8208ca40186c914d1ced9163785a2b9b289bab68f7f1918a4891393ab93b",
      "blockHash": "0x4e423de3a5e42cf56b54c3c231eb5d3dfe14dd2776b089247321a538c69a5cab",
      "blockNumber": 112227,
      "transactionIndex": 0,
      "confirmations": null,
      "from": "0xE3a44b84A68C84F674E1e8c17445742DE48D9501",
      "gasPrice": {
        "_hex": "0xd364c341e"
      },
      "gasLimit": {
        "_hex": "0x5208"
      },
      "to": "0x32Be343B94f860124dC4fEe278FDCBD38C102D88",
      "value": {
        "_hex": "0xddc7ae4b065c800"
      },
      "nonce": 1,
      "data": "0x",
      "r": "0x79e83e3946e38ff600537f17001b8c83b4e8a3b3b8900332cd66f902ef32c086",
      "s": "0x70dec6cb6e69959c1ccc3cf2bd541bab70e245c69e195cd34517cbea874b6fa7",
      "v": 27,
      "creates": null,
      "raw": "0xf86c01850d364c341e8252089432be343b94f860124dc4fee278fdcbd38c102d88880ddc7ae4b065c800801ba079e83e3946e38ff600537f17001b8c83b4e8a3b3b8900332cd66f902ef32c086a070dec6cb6e69959c1ccc3cf2bd541bab70e245c69e195cd34517cbea874b6fa7",
      "networkId": 0,
      "chainId": 0
    }
  ]
}