{
  "hash": "0x2ad87ff3a628c512338d8282eb98bc2ddfe9933629f013e121303dbaffd77752",
  "parentHash": "0x02a1e665df6dbd512b194110af04327620adb14693effcd7295057a1736a1462",
  "number": 93955,
  "timestamp": 1439700306,
  "nonce": "0xb39b90f13477beff",
  "difficulty": 3478358270362,
  "gasLimit": {
    "_hex": "0x2fefd8"
  },
  "gasUsed": {
    "_hex": "0x5208"
  },
  "miner": "0x26E3f7C9e444f2Ca9E0BE2aF841bd060cF1CbDDb",
  "extraData": "0x476574682f76312e302e312f6c696e75782f676f312e342e32",
  "transactions": [
    {
      "hash": "0x5efa8110f12206e071cc9296bda21377810d2d458216cdbd565fc70b7f455554",
      "blockHash": "0x2ad87ff3a628c512338d8282eb98bc2ddfe9933629f013e121303dbaffd77752",
      "blockNumber": 93955,
      "transactionIndex": 0,
      "confirmations": null,
      "from": "0xBb62Bd1E6edDb37A212E000E819a89917785F651",
      "gasPrice": {
        "_hex": "0xba43b7400"
      },
      "gasLimit": {
        "_hex": "0x5208"
      },
      "to": "0xC47Aaa860008be6f65B58c6C6E02a84e666EfE31",
      "value": {
        "_hex": "0x8ac3680c5ce46000"
      },
      "nonce": 0,
      "data": "0x",
      "r": "0x2398bc93b906f45e84060f35ec5bedd2af0c6e18997106fd4a3b9f60f57f0987",
      "s": "0x52a89a1975c7c125a0b53153d8de0e43e017a9c087c4a007ccdfc4a5a083768c",
      "v": 28,
      "creates": null,
      "raw": "0xf86c80850ba43b740082520894c47aaa860008be6f65b58c6c6e02a84e666efe31888ac3680c5ce46000801ca02398bc93b906f45e84060f35ec5bedd2af0c6e18997106fd4a3b9f60f57f0987a052a89a1975c7c125a0b53153d8de0e43e017a9c087c4a007ccdfc4a5a083768c",
      "networkId": 0,
      "chainId": 0
    }
  ]
}