{
  "hash": "0x44934d072d679ea46bbe1fd6daff7017842b4ee3865b27ca3bfabfbce1bff2ce",
  "parentHash": "0x4d2912b2187a0be62967479426c6ac21007a809a94b7087bfff8d4c518cd0f41",
  "number": 77500,
  "timestamp": 1439438383,
  "nonce": "0xd0c608902bc39f57",
  "difficulty": 2235968167481,
  "gasLimit": {
    "_hex": "0x2fefd8"
  },
  "gasUsed": {
    "_hex": "0x5208"
  },
  "miner": "0xf927a40C8B7F6E07c5af7FA2155B4864a4112B13",
  "extraData": "0x",
  "transactions": [
    {
      "hash": "0x2de3e097b2bf210d7e95226828c9190b108aca2a323f24bdd2c17be269eee96c",
      "blockHash": "0x44934d072d679ea46bbe1fd6daff7017842b4ee3865b27ca3bfabfbce1bff2ce",
      "blockNumber": 77500,
      "transactionIndex": 0,
      "confirmations": null,
      "from": "0x9F3a74Fd5e7edCC1162993171381cbB632b7cFF0",
      "gasPrice": {
        "_hex": "0xcc46de8bd"
      },
      "gasLimit": {
        "_hex": "0x5208"
      },
      "to": "0x5fD4690454BEd4ee6d847a5EefE67Fc16C75b23c",
      "value": {
        "_hex": "0x1b1ae4d6e2ef500000"
      },
      "nonce": 12,
      "data": "0x",
      "r": "0x3657c980aa426e2d3f7455f50127cef7cb8f05b094cd359422ddb4a4d01c7c7f",
      "s": "0x4d9f11c2481a4656bd251f7df0490af585316c439f42c9b8be306c33ca59e5c3",
      "v": 27,
      "creates": null,
      "raw": "0xf86d0c850cc46de8bd825208945fd4690454bed4ee6d847a5eefe67fc16c75b23c891b1ae4d6e2ef500000801ba03657c980aa426e2d3f7455f50127cef7cb8f05b094cd359422ddb4a4d01c7c7fa04d9f11c2481a4656bd251f7df0490af585316c439f42c9b8be306c33ca59e5c3",
      "networkId": 0,
      "chainId": 0
    }
  ]
}