{
  "hash": "0x79ba027328f14efc81ad5b10576d66097c89dc0da550754ead8bcad54d4c7db8",
  "parentHash": "0xc584f1c1c32816365f8aefaa723800208cc513c129423754a6249a9724e901da",
  "number": 74322,
  "timestamp": 1439384329,
  "nonce": "0x33706b42f7b7bb10",
  "difficulty": 2212915723015,
  "gasLimit": {
    "_hex": "0x2fefd8"
  },
  "gasUsed": {
    "_hex": "0xad5d"
  },
  "miner": "0xEF247E639d49461D25F57e9362CadE3120910Ce0",
  "extraData": "0x476574682f76312e302e312f6c696e75782f676f312e342e32",
  "transactions": [
    {
      "hash": "0x5cc3352cc8b5de528fabfc216ae34fd1359ee9f605ff29c7f78d4f331d1c8443",
      "blockHash": "0x79ba027328f14efc81ad5b10576d66097c89dc0da550754ead8bcad54d4c7db8",
      "blockNumber": 74322,
      "transactionIndex": 0,
      "confirmations": null,
      "from": "0x87C5B5874A18B4306DF8a752a6C8cc3E82daFc19",
      "gasPrice": {
        "_hex": "0x11262adaea7"
      },
      "gasLimit": {
        "_hex": "0x493e0"
      },
      "to": "0x88A91FD7Fb8AAEa8cDAD2C990f1DBDcd28022a02",
      "value": {
        "_hex": "0x0"
      },
      "nonce": 13,
      "data": "0x03750d94000000000000000000000000326be8f71bfb0379f989aab1cc1fe37f0a771f6046523571526c4c41384f49663933304900000000000000000000000000000000",
      "r": "0x9d5e0d428261b1f9ce1a1b71e560cd0f1f41111297aa9323d5534b7dd77bd1da",
      "s": "0x65dc72d65ce2ddbe37e22d01910327c950d6e8c5122e5be84a794dc09bca6851",
      "v": 27,
      "creates": null,
      "raw": "0xf8ab0d86011262adaea7830493e09488a91fd7fb8aaea8cdad2c990f1dbdcd28022a0280b84403750d94000000000000000000000000326be8f71bfb0379f989aab1cc1fe37f0a771f6046523571526c4c41384f496639333049000000000000000000000000000000001ba09d5e0d428261b1f9ce1a1b71e560cd0f1f41111297aa9323d5534b7dd77bd1daa065dc72d65ce2ddbe37e22d01910327c950d6e8c5122e5be84a794dc09bca6851",
      "networkId": 0,
      "chainId": 0
    }
  ]
}