{
  "hash": "0x3d09001aca426415ec753922f330733b3bb3ac43232f010d7256064294979f31",
  "parentHash": "0xb88a6874bd8db270f68b4aa2199211075d86e4ce24354bc9b5bf5af59d727020",
  "number": 55740,
  "timestamp": 1439076206,
  "nonce": "0xc6d37b3e06615e88",
  "difficulty": 1597438005030,
  "gasLimit": {
    "_hex": "0x2fefd8"
  },
  "gasUsed": {
    "_hex": "0xa674"
  },
  "miner": "0x0037ce3d4B7f8729C8607D8D0248252Be68202c0",
  "extraData": "0x476574682f76312e302e312f77696e646f77732f676f312e342e32",
  "transactions": [
    {
      "hash": "0x795120edebb27d99c73b0972584e42ba5207c5bd52fd71bb8446f17bbb7f233d",
      "blockHash": "0x3d09001aca426415ec753922f330733b3bb3ac43232f010d7256064294979f31",
      "blockNumber": 55740,
      "transactionIndex": 0,
      "confirmations": null,
      "from": "0x8D6DF209484d7B94702b03A53e56b9fb0660f6F0",
      "gasPrice": {
        "_hex": "0x110c8f7d8de"
      },
      "gasLimit": {
        "_hex": "0xc350"
      },
      "to": "0x2910543Af39abA0Cd09dBb2D50200b3E800A63D2",
      "value": {
        "_hex": "0x3635c9adc5dea00000"
      },
      "nonce": 0,
      "data": "0x454e474a354a555530",
      "r": "0xdfabaf072d47b520e090500a6cc8bf606cecca367487cbd1239bb444e03ad6c8",
      "s": "0xf09e5949eaa2091596a651718b10d325329e1885dc74e8efff283db8a90f8d5d",
      "v": 28,
      "creates": null,
      "raw": "0xf87780860110c8f7d8de82c350942910543af39aba0cd09dbb2d50200b3e800a63d2893635c9adc5dea0000089454e474a354a5555301ca0dfabaf072d47b520e090500a6cc8bf606cecca367487cbd1239bb444e03ad6c8a0f09e5949eaa2091596a651718b10d325329e1885dc74e8efff283db8a90f8d5d",
      "networkId": 0,
      "chainId": 0
    },
    {
      "hash": "0x2618963842caf76fd1ce7ead5a340c0f3e4d74ccfc2ef78a685a39a86c9b448e",
      "blockHash": "0x3d09001aca426415ec753922f330733b3bb3ac43232f010d7256064294979f31",
      "blockNumber": 55740,
      "transactionIndex": 1,
      "confirmations": null,
      "from": "0x827264c8A186A0451502187FF71F50b0438f2722",
      "gasPrice": {
        "_hex": "0xd17e6ea8f"
      },
      "gasLimit": {
        "_hex": "0x15f90"
      },
      "to": "0x3aAE6435730f753ecF6214996ae2a55A1503F97c",
      "value": {
        "_hex": "0x45400a8fd5330000"
      },
      "nonce": 0,
      "data": "0x",
      "r": "0x78f57321577f4099279fc827668a9fc5f73a5e4877bbc2bb2f33fef0f7e5b759",
      "s": "0x3ea7e8919e0bba90422a24659f2b63e103a18028bc4153b67c455dfa363c6959",
      "v": 28,
      "creates": null,
      "raw": "0xf86d80850d17e6ea8f83015f90943aae6435730f753ecf6214996ae2a55a1503f97c8845400a8fd5330000801ca078f57321577f4099279fc827668a9fc5f73a5e4877bbc2bb2f33fef0f7e5b759a03ea7e8919e0bba90422a24659f2b63e103a18028bc4153b67c455dfa363c6959",
      "networkId": 0,
      "chainId": 0
    }
  ]
}