{
  "hash": "0xf2fbc03651e58cd383888d561a4543fdd9266743e4adcb143cc2610a1865dcce",
  "parentHash": "0x8601e68ac23603ce1b1598dcbf7f6452a52dc71e5b7ed71b2baac31439ea5c7f",
  "number": 94652,
  "timestamp": 1439711634,
  "nonce": "0xd6f4dd0e182508a5",
  "difficulty": 3510486657342,
  "gasLimit": {
    "_hex": "0x2fefd8"
  },
  "gasUsed": {
    "_hex": "0x29040"
  },
  "miner": "0x88D74a59454F6cF3B51ef6b9136AFb6b9D405A88",
  "extraData": "0x476574682f76312e302e312d37666266393930632f6c696e75782f676f312e34",
  "transactions": [
    {
      "hash": "0x1e1cabbaa3110f188e633b835dc2ccd5cb4071d89b469b4d177883151cc12fc6",
      "blockHash": "0xf2fbc03651e58cd383888d561a4543fdd9266743e4adcb143cc2610a1865dcce",
      "blockNumber": 94652,
      "transactionIndex": 0,
      "confirmations": null,
      "from": "0x33F36DffD23cf019833E1d59cBc7138824b12289",
      "gasPrice": {
        "_hex": "0x746a528800"
      },
      "gasLimit": {
        "_hex": "0x5267"
      },
      "to": "0x117D2945355d346cE6637d6D5CC9A9E46CB43B73",
      "value": {
        "_hex": "0x2cab4c1242c9e0000"
      },
      "nonce": 5,
      "data": "0x",
      "r": "0x550c310ddfa7118f4f17ff4047a7d04b39569b1f996a1fbf59f23798f1cda914",
      "s": "0x92f334e08a4bdb400c68b31e3f70fd899ff2db39e37b4e217ada2030cab30ec6",
      "v": 27,
      "creates": null,
      "raw": "0xf86d0585746a52880082526794117d2945355d346ce6637d6d5cc9a9e46cb43b738902cab4c1242c9e0000801ba0550c310ddfa7118f4f17ff4047a7d04b39569b1f996a1fbf59f23798f1cda914a092f334e08a4bdb400c68b31e3f70fd899ff2db39e37b4e217ada2030cab30ec6",
      "networkId": 0,
      "chainId": 0
    },
    {
      "hash": "0x0c7481b1735de0eaf4f59cd39dd2d6e318d9cce57fa09282dd4e46e1e145698f",
      "blockHash": "0xf2fbc03651e58cd383888d561a4543fdd9266743e4adcb143cc2610a1865dcce",
      "blockNumber": 94652,
      "transactionIndex": 1,
      "confirmations": null,
      "from": "0xe6A7a1d47ff21B6321162AEA7C6CB457D5476Bca",
      "gasPrice": {
        "_hex": "0xd42aa657a"
      },
      "gasLimit": {
        "_hex": "0x55f0"
      },
      "to": "0xF178805EA39C903a49e6A465DBD40f22576aE24a",
      "value": {
        "_hex": "0x257c96db4dfcf678"
      },
      "nonce": 2650,
      "data": "0x",
      "r": "0x38523f621df20972c8cf10b31f918730b053626da4fa33355d298b32a85bdf6a",
      "s": "0x36a5ea35eb3008b6a4ed4db611fbedc3db2783d4541bab6c4c94757575bf1571",
      "v": 28,
      "creates": null,
      "raw": "0xf86e820a5a850d42aa657a8255f094f178805ea39c903a49e6a465dbd40f22576ae24a88257c96db4dfcf678801ca038523f621df20972c8cf10b31f918730b053626da4fa33355d298b32a85bdf6aa036a5ea35eb3008b6a4ed4db611fbedc3db2783d4541bab6c4c94757575bf1571",
      "networkId": 0,
      "chainId": 0
    },
    {
      "hash": "0xeeeafa5326ae1a8ee4b1a00254b545825b94418890cce24acd1387025ba21841",
      "blockHash": "0xf2fbc03651e58cd383888d561a4543fdd9266743e4adcb143cc2610a1865dcce",
      "blockNumber": 94652,
      "transactionIndex": 2,
      "confirmations": null,
      "from": "0xe6A7a1d47ff21B6321162AEA7C6CB457D5476Bca",
      "gasPrice": {
        "_hex": "0xd42aa657a"
      },
      "gasLimit": {
        "_hex": "0x55f0"
      },
      "to": "0x3Fef71cB8Ac8711ECa473049D813b003A76D1eaA",
      "value": {
        "_hex": "0x264a1daf321d2fd0"
      },
      "nonce": 2651,
      "data": "0x",
      "r": "0xd5455206c7179df830d490d52895a4ffca0577040894739d1190a8477ceff883",
      "s": "0x779a09a9a3990526eeb3fc69e5d5ba45b3c4d8297ef3220257ea387c26395f4c",
      "v": 27,
      "creates": null,
      "raw": "0xf86e820a5b850d42aa657a8255f0943fef71cb8ac8711eca473049d813b003a76d1eaa88264a1daf321d2fd0801ba0d5455206c7179df830d490d52895a4ffca0577040894739d1190a8477ceff883a0779a09a9a3990526eeb3fc69e5d5ba45b3c4d8297ef3220257ea387c26395f4c",
      "networkId": 0,
      "chainId": 0
    },
    {
      "hash": "0xf1066f7e1b8748a45bf00f588c9ff6f0fff3d0e70ecb26cb5fc70e359e9d355f",
      "blockHash": "0xf2fbc03651e58cd383888d561a4543fdd9266743e4adcb143cc2610a1865dcce",
      "blockNumber": 94652,
      "transactionIndex": 3,
      "confirmations": null,
      "from": "0xe6A7a1d47ff21B6321162AEA7C6CB457D5476Bca",
      "gasPrice": {
        "_hex": "0xd42aa657a"
      },
      "gasLimit": {
        "_hex": "0x55f0"
      },
      "to": "0xb71F25995CC5De7A465fB37688126E07654Fa662",
      "value": {
        "_hex": "0x26e7de49f1f8bdf8"
      },
      "nonce": 2652,
      "data": "0x",
      "r": "0x30753a218c21f78e7104df1c9dcf23ba84759b47898ef2ad6ae591fd37d67889",
      "s": "0x2dd87befccd5f7785ba013cf97cdabe44dc96b847269d601adcbde89d79ee3fb",
      "v": 28,
      "creates": null,
      "raw": "0xf86e820a5c850d42aa657a8255f094b71f25995cc5de7a465fb37688126e07654fa6628826e7de49f1f8bdf8801ca030753a218c21f78e7104df1c9dcf23ba84759b47898ef2ad6ae591fd37d67889a02dd87befccd5f7785ba013cf97cdabe44dc96b847269d601adcbde89d79ee3fb",
      "networkId": 0,
      "chainId": 0
    },
    {
      "hash": "0x50178d73eed21390f1c48dab3777881f1ea8284e25d3f26cd1a2ac3cc2f6f0b7",
      "blockHash": "0xf2fbc03651e58cd383888d561a4543fdd9266743e4adcb143cc2610a1865dcce",
      "blockNumber": 94652,
      "transactionIndex": 4,
      "confirmations": null,
      "from": "0xe6A7a1d47ff21B6321162AEA7C6CB457D5476Bca",
      "gasPrice": {
        "_hex": "0xd42aa657a"
      },
      "gasLimit": {
        "_hex": "0x55f0"
      },
      "to": "0xa16E760E170A19a36e1b42357a1e6A1A206B9F39",
      "value": {
        "_hex": "0x26fe8466a1bc4cb8"
      },
      "nonce": 2653,
      "data": "0x",
      "r": "0x0b85eeaee95f1ada6a0bc143ec1fc594780af438fb42f7fd41219e7b6c920402",
      "s": "0x4c645faff29f4029fbd7f3307ddb3e032a07dd262372d12fa4105f68331d7856",
      "v": 28,
      "creates": null,
      "raw": "0xf86e820a5d850d42aa657a8255f094a16e760e170a19a36e1b42357a1e6a1a206b9f398826fe8466a1bc4cb8801ca00b85eeaee95f1ada6a0bc143ec1fc594780af438fb42f7fd41219e7b6c920402a04c645faff29f4029fbd7f3307ddb3e032a07dd262372d12fa4105f68331d7856",
      "networkId": 0,
      "chainId": 0
    },
    {
      "hash": "0x913914781f3a94b64bbd776a0c99d4bc70e35479567172435a8eb89287bbb553",
      "blockHash": "0xf2fbc03651e58cd383888d561a4543fdd9266743e4adcb143cc2610a1865dcce",
      "blockNumber": 94652,
      "transactionIndex": 5,
      "confirmations": null,
      "from": "0xe6A7a1d47ff21B6321162AEA7C6CB457D5476Bca",
      "gasPrice": {
        "_hex": "0xd42aa657a"
      },
      "gasLimit": {
        "_hex": "0x55f0"
      },
      "to": "0x1CC77ed71531833bAC1eA0E757Cd150dCD297920",
      "value": {
        "_hex": "0x2709657c417604c8"
      },
      "nonce": 2654,
      "data": "0x",
      "r": "0x56690c2b09ca75fc2f5525f4d950c61b122af676004ea36c6fadf2ced29e7203",
      "s": "0x6b9bd34764f69416401c519055bf052d9c2fba12ef3daa099bc06fa25492dd6b",
      "v": 27,
      "creates": null,
      "raw": "0xf86e820a5e850d42aa657a8255f0941cc77ed71531833bac1ea0e757cd150dcd297920882709657c417604c8801ba056690c2b09ca75fc2f5525f4d950c61b122af676004ea36c6fadf2ced29e7203a06b9bd34764f69416401c519055bf052d9c2fba12ef3daa099bc06fa25492dd6b",
      "networkId": 0,
      "chainId": 0
    },
    {
      "hash": "0x1fb3d88c5c8c60b88e6f26365301cab56f3de63ccdd5ce0103cdea0827fd8327",
      "blockHash": "0xf2fbc03651e58cd383888d561a4543fdd9266743e4adcb143cc2610a1865dcce",
      "blockNumber": 94652,
      "transactionIndex": 6,
      "confirmations": null,
      "from": "0xe6A7a1d47ff21B6321162AEA7C6CB457D5476Bca",
      "gasPrice": {
        "_hex": "0xd42aa657a"
      },
      "gasLimit": {
        "_hex": "0x55f0"
      },
      "to": "0xe9B6523ad9492Fc53F2FBb9480958aefC4A4b1c9",
      "value": {
        "_hex": "0x2743ad3c1c01a7c8"
      },
      "nonce": 2655,
      "data": "0x",
      "r": "0xba89e9122bf640044f04ea000b13e3c048107560048644e4796198f9020f25f6",
      "s": "0x5fa5b050ac73c47fdd37738240a7e798f51da1b7abc98c481b7822d2ac806092",
      "v": 28,
      "creates": null,
      "raw": "0xf86e820a5f850d42aa657a8255f094e9b6523ad9492fc53f2fbb9480958aefc4a4b1c9882743ad3c1c01a7c8801ca0ba89e9122bf640044f04ea000b13e3c048107560048644e4796198f9020f25f6a05fa5b050ac73c47fdd37738240a7e798f51da1b7abc98c481b7822d2ac806092",
      "networkId": 0,
      "chainId": 0
    },
    {
      "hash": "0x405abcb696f8e0c78ebd68c0f259c9af90a4872752ed95a010df57b6e8545b47",
      "blockHash": "0xf2fbc03651e58cd383888d561a4543fdd9266743e4adcb143cc2610a1865dcce",
      "blockNumber": 94652,
      "transactionIndex": 7,
      "confirmations": null,
      "from": "0x827039b481254dee41Ef8f8333AdF1aba69a2f5A",
      "gasPrice": {
        "_hex": "0xcc1d8a637"
      },
      "gasLimit": {
        "_hex": "0x5208"
      },
      "to": "0x32Be343B94f860124dC4fEe278FDCBD38C102D88",
      "value": {
        "_hex": "0x119e124215539800"
      },
      "nonce": 4,
      "data": "0x",
      "r": "0xaa749f2d847188f292f05a0468f723df54781dbeb480c0edbdbeae461b8e2e40",
      "s": "0x15b413754c9e8a4032741b35a9cfd18a4d01c12dfe85440f627eab7c5cb7165e",
      "v": 28,
      "creates": null,
      "raw": "0xf86c04850cc1d8a6378252089432be343b94f860124dc4fee278fdcbd38c102d8888119e124215539800801ca0aa749f2d847188f292f05a0468f723df54781dbeb480c0edbdbeae461b8e2e40a015b413754c9e8a4032741b35a9cfd18a4d01c12dfe85440f627eab7c5cb7165e",
      "networkId": 0,
      "chainId": 0
    }
  ]
}