{
  "hash": "0x14b9ec417055e1c90414a9cbf1e312be43b1e511eb3203b0165527934f4f6075",
  "parentHash": "0xfe58bb1ae88109dd3b7df85aa681c2109b4de3ec2854e1ac7dd5e3d233ff3e64",
  "number": 50974,
  "timestamp": 1438997533,
  "nonce": "0x662e1603b616e8bb",
  "difficulty": 1547657791042,
  "gasLimit": {
    "_hex": "0x87878"
  },
  "gasUsed": {
    "_hex": "0x1820d"
  },
  "miner": "0x5F8F73E26CdF436f19Cb24C82F90A15AFe55b592",
  "extraData": "0x476574682f76312e302e312f77696e646f77732f676f312e342e32",
  "transactions": [
    {
      "hash": "0xd7f2d3ca2e21e4d5d551c32a88da5611d5a02c241839f8f328aa408407ed9060",
      "blockHash": "0x14b9ec417055e1c90414a9cbf1e312be43b1e511eb3203b0165527934f4f6075",
      "blockNumber": 50974,
      "transactionIndex": 0,
      "confirmations": null,
      "from": "0xD9E6086071980fE3484b6BaABA07A10b47B046A6",
      "gasPrice": {
        "_hex": "0x101e859746e"
      },
      "gasLimit": {
        "_hex": "0x7a120"
      },
      "to": "0xBAA54d6E90c3F4d7Ebec11bD180134C7eD8eBb52",
      "value": {
        "_hex": "0x16345785d8a0000"
      },
      "nonce": 0,
      "data": "0x",
      "r": "0x4d635978f41a786149597c5d6c0f926fccaee158c6020f275b70552cbb6fefc3",
      "s": "0x6808e8eaf9341d87f961ca555a3b7fbf611cf8bac8fdce2f46bafcf70de6646d",
      "v": 27,
      "creates": null,
      "raw": "0xf86e80860101e859746e8307a12094baa54d6e90c3f4d7ebec11bd180134c7ed8ebb5288016345785d8a0000801ba04d635978f41a786149597c5d6c0f926fccaee158c6020f275b70552cbb6fefc3a06808e8eaf9341d87f961ca555a3b7fbf611cf8bac8fdce2f46bafcf70de6646d",
      "networkId": 0,
      "chainId": 0
    },
    {
      "hash": "0xa39a1400a5ae0cd7d94fdc2856562dccc0b850dd9062360126c56974ebdf98e2",
      "blockHash": "0x14b9ec417055e1c90414a9cbf1e312be43b1e511eb3203b0165527934f4f6075",
      "blockNumber": 50974,
      "transactionIndex": 1,
      "confirmations": null,
      "from": "0xc8ebccC5F5689Fa8659d83713341e5aD19349448",
      "gasPrice": {
        "_hex": "0xd641f460d"
      },
      "gasLimit": {
        "_hex": "0x15f90"
      },
      "to": "0xb77eE2c014eB53E7A79f2DE3f21CbbC369ACE8cB",
      "value": {
        "_hex": "0x3635c9adc5dea00000"
      },
      "nonce": 9,
      "data": "0x",
      "r": "0xfcaa20d78e80022200fabee9c228760bb4c22f04a8c77a971649547e160160d0",
      "s": "0x74e9665c636f29790e37f68a1e43e8e50481d6883d54a9a2adf5388bb1907854",
      "v": 27,
      "creates": null,
      "raw": "0xf86e09850d641f460d83015f9094b77ee2c014eb53e7a79f2de3f21cbbc369ace8cb893635c9adc5dea00000801ba0fcaa20d78e80022200fabee9c228760bb4c22f04a8c77a971649547e160160d0a074e9665c636f29790e37f68a1e43e8e50481d6883d54a9a2adf5388bb1907854",
      "networkId": 0,
      "chainId": 0
    },
    {
      "hash": "0xf3e806346af0b1810bfdb624ca4ceee1ad2c6052ac44c5d2f5fc6d2bfc7b94ae",
      "blockHash": "0x14b9ec417055e1c90414a9cbf1e312be43b1e511eb3203b0165527934f4f6075",
      "blockNumber": 50974,
      "transactionIndex": 2,
      "confirmations": null,
      "from": "0x3Ad06149b21C55Ff867cc3fb9740D2BCc7101231",
      "gasPrice": {
        "_hex": "0xd26e0c214"
      },
      "gasLimit": {
        "_hex": "0x15f90"
      },
      "to": "0x1308A2e95c0160B90803ddCA9B9a5bb55E416d79",
      "value": {
        "_hex": "0xd8d726b7177a800000"
      },
      "nonce": 6,
      "data": "0x",
      "r": "0x03c5f42e1480c17ce349419adee782166feae04396dfe2323742465126efda08",
      "s": "0x3b4387d5487118ac323d9d38dbd62caeba62428ebfb38534ab7a4812ca674ef9",
      "v": 28,
      "creates": null,
      "raw": "0xf86e06850d26e0c21483015f90941308a2e95c0160b90803ddca9b9a5bb55e416d7989d8d726b7177a800000801ca003c5f42e1480c17ce349419adee782166feae04396dfe2323742465126efda08a03b4387d5487118ac323d9d38dbd62caeba62428ebfb38534ab7a4812ca674ef9",
      "networkId": 0,
      "chainId": 0
    }
  ]
}