{
  "hash": "0xc2f4397559effb8fb80d3544be25c75873d6c5976b48a0867db4946da95c6115",
  "parentHash": "0x83603917975b730a33087f6e29d6aabd06aea9797615ba26c25d52c674708acb",
  "number": 82416,
  "timestamp": 1439519016,
  "nonce": "0x46c595acaf135e6e",
  "difficulty": 2374139760242,
  "gasLimit": {
    "_hex": "0x2fefd8"
  },
  "gasUsed": {
    "_hex": "0x5208"
  },
  "miner": "0x88D74a59454F6cF3B51ef6b9136AFb6b9D405A88",
  "extraData": "0x476574682f76312e302e312d37666266393930632f6c696e75782f676f312e34",
  "transactions": [
    {
      "hash": "0x90fe26b2bbb82759eaa5d2df068246133a7918d60787157a23786d42e9bad945",
      "blockHash": "0xc2f4397559effb8fb80d3544be25c75873d6c5976b48a0867db4946da95c6115",
      "blockNumber": 82416,
      "transactionIndex": 0,
      "confirmations": null,
      "from": "0x34d34F0a638F6991e4E2536F41295DF6E934A646",
      "gasPrice": {
        "_hex": "0xd40ef45ec"
      },
      "gasLimit": {
        "_hex": "0x5208"
      },
      "to": "0x32Be343B94f860124dC4fEe278FDCBD38C102D88",
      "value": {
        "_hex": "0x455bbdac7b65f000"
      },
      "nonce": 6,
      "data": "0x",
      "r": "0x06f75255cf5c109a355a86bcdf1b8253cb948996949c9268e0600bd498228c01",
      "s": "0x4cfef4ef21b736cf7c7fba758234d6c805e96b0f5bc581974cf2c4edd01747c3",
      "v": 28,
      "creates": null,
      "raw": "0xf86c06850d40ef45ec8252089432be343b94f860124dc4fee278fdcbd38c102d8888455bbdac7b65f000801ca006f75255cf5c109a355a86bcdf1b8253cb948996949c9268e0600bd498228c01a04cfef4ef21b736cf7c7fba758234d6c805e96b0f5bc581974cf2c4edd01747c3",
      "networkId": 0,
      "chainId": 0
    }
  ]
}