{
  "hash": "0x885639e07ee53d0fae9b5280ce0249b39d35ce16c549f8493452d6d19e388dad",
  "parentHash": "0xdfd3a836fbeef4d08eeb809532b7c7bfd471dee939bc68743ecd0a82c984cd56",
  "number": 99709,
  "timestamp": 1439794557,
  "nonce": "0x9d3a1e7eb70ce3e0",
  "difficulty": 3791601768916,
  "gasLimit": {
    "_hex": "0x2fefd8"
  },
  "gasUsed": {
    "_hex": "0xa410"
  },
  "miner": "0x9746c7e1ef2bd21FF3997fa467593a89cb852BD0",
  "extraData": "0x476574682f76312e302e312f77696e646f77732f676f312e342e32",
  "transactions": [
    {
      "hash": "0x0260c51a811a74a11e1100cd36929f7c6f8a1772d7830ea40e86c9fabc4f5d82",
      "blockHash": "0x885639e07ee53d0fae9b5280ce0249b39d35ce16c549f8493452d6d19e388dad",
      "blockNumber": 99709,
      "transactionIndex": 0,
      "confirmations": null,
      "from": "0x3D5292e9d2a2D31014717ff936A0F9375A5Cc8b7",
      "gasPrice": {
        "_hex": "0xdc90e75c3"
      },
      "gasLimit": {
        "_hex": "0x15f90"
      },
      "to": "0x9f78552704fe7e52cC7C3853534aA2C3cf580D54",
      "value": {
        "_hex": "0x1158e460913d00000"
      },
      "nonce": 9,
      "data": "0x",
      "r": "0x49546e5573985ecf0b2113d91720ca22c017f122fcc9ba39d0689f3aff79242c",
      "s": "0x73304986e1d3d9478613e5c4801cac7b545fdaab52e3313ec6bd81119958378a",
      "v": 28,
      "creates": null,
      "raw": "0xf86e09850dc90e75c383015f90949f78552704fe7e52cc7c3853534aa2c3cf580d548901158e460913d00000801ca049546e5573985ecf0b2113d91720ca22c017f122fcc9ba39d0689f3aff79242ca073304986e1d3d9478613e5c4801cac7b545fdaab52e3313ec6bd81119958378a",
      "networkId": 0,
      "chainId": 0
    },
    {
      "hash": "0xd983b5285f38ca1ef30ed33c510011a7ee03d5d21be49161f0b3943ceda221a0",
      "blockHash": "0x885639e07ee53d0fae9b5280ce0249b39d35ce16c549f8493452d6d19e388dad",
      "blockNumber": 99709,
      "transactionIndex": 1,
      "confirmations": null,
      "from": "0x0D4EcC7d750180EBf4A9Df728B6669B5Bceb5E40",
      "gasPrice": {
        "_hex": "0xcaf0033c6"
      },
      "gasLimit": {
        "_hex": "0x5208"
      },
      "to": "0x32Be343B94f860124dC4fEe278FDCBD38C102D88",
      "value": {
        "_hex": "0x4563a2b518c92c00"
      },
      "nonce": 59,
      "data": "0x",
      "r": "0x71b0164e0538538798ebdb0863801c5da7ef25561baddb3761ca410df754e16a",
      "s": "0x4c45480b734039148d8a241ceae3cc86efb1762f6de6df6731a62cd65e6c694c",
      "v": 28,
      "creates": null,
      "raw": "0xf86c3b850caf0033c68252089432be343b94f860124dc4fee278fdcbd38c102d88884563a2b518c92c00801ca071b0164e0538538798ebdb0863801c5da7ef25561baddb3761ca410df754e16aa04c45480b734039148d8a241ceae3cc86efb1762f6de6df6731a62cd65e6c694c",
      "networkId": 0,
      "chainId": 0
    }
  ]
}