{
  "hash": "0x1eb866263d30c00aa8479d175d160c2b6b4b2bf3636308044a5c4abe93d6fa70",
  "parentHash": "0xf5d3137e0c6c23a910078179829919d30ca52aebb8b3005f91b26c878983438a",
  "number": 82799,
  "timestamp": 1439525430,
  "nonce": "0xa725575bf7788e1c",
  "difficulty": 2377511499828,
  "gasLimit": {
    "_hex": "0x2fefd8"
  },
  "gasUsed": {
    "_hex": "0xf618"
  },
  "miner": "0xf927a40C8B7F6E07c5af7FA2155B4864a4112B13",
  "extraData": "0x",
  "transactions": [
    {
      "hash": "0xb89f9c65155dcbedffd628da33416d754aa2556e03158bed7f14e437b8bf0fb9",
      "blockHash": "0x1eb866263d30c00aa8479d175d160c2b6b4b2bf3636308044a5c4abe93d6fa70",
      "blockNumber": 82799,
      "transactionIndex": 0,
      "confirmations": null,
      "from": "0xC47Aaa860008be6f65B58c6C6E02a84e666EfE31",
      "gasPrice": {
        "_hex": "0xd2122cd42"
      },
      "gasLimit": {
        "_hex": "0x15f90"
      },
      "to": "0x510EdA5601499a0D5E1A006BfFFd833672F2E267",
      "value": {
        "_hex": "0x299e969c5165806e"
      },
      "nonce": 8,
      "data": "0x",
      "r": "0x082993cae436ffdd33c56d3a0ed7dd2d97ce2b07767c70dec0b4e39ecba21d6b",
      "s": "0x5bcced6ecb23db510b597e84b04bac2058aa36b027200386d4a06aeb65320224",
      "v": 28,
      "creates": null,
      "raw": "0xf86d08850d2122cd4283015f9094510eda5601499a0d5e1a006bfffd833672f2e26788299e969c5165806e801ca0082993cae436ffdd33c56d3a0ed7dd2d97ce2b07767c70dec0b4e39ecba21d6ba05bcced6ecb23db510b597e84b04bac2058aa36b027200386d4a06aeb65320224",
      "networkId": 0,
      "chainId": 0
    },
    {
      "hash": "0xb31dd770374b55da98d03ac8a37682943b2a4c6f64a9b42eb83d71aa6f05b7f4",
      "blockHash": "0x1eb866263d30c00aa8479d175d160c2b6b4b2bf3636308044a5c4abe93d6fa70",
      "blockNumber": 82799,
      "transactionIndex": 1,
      "confirmations": null,
      "from": "0x18C1a2C6cF4501A3AFcD4c90cF4644C5A58cb1d0",
      "gasPrice": {
        "_hex": "0xba43b7400"
      },
      "gasLimit": {
        "_hex": "0x5208"
      },
      "to": "0xC47Aaa860008be6f65B58c6C6E02a84e666EfE31",
      "value": {
        "_hex": "0x11578c797aeebe000"
      },
      "nonce": 0,
      "data": "0x",
      "r": "0x734a5caa575daf08c68cae886ba812ed117a73baff8e02f84c9d6969d40be3c6",
      "s": "0x632b84f70747e03cd1cd89b715f20a5106481d9ef1a592b03a76e569fc809d7b",
      "v": 28,
      "creates": null,
      "raw": "0xf86d80850ba43b740082520894c47aaa860008be6f65b58c6c6e02a84e666efe3189011578c797aeebe000801ca0734a5caa575daf08c68cae886ba812ed117a73baff8e02f84c9d6969d40be3c6a0632b84f70747e03cd1cd89b715f20a5106481d9ef1a592b03a76e569fc809d7b",
      "networkId": 0,
      "chainId": 0
    },
    {
      "hash": "0xf403ed41910ffe35dba9e339d4eb93477588970ef36472da645399970425a50d",
      "blockHash": "0x1eb866263d30c00aa8479d175d160c2b6b4b2bf3636308044a5c4abe93d6fa70",
      "blockNumber": 82799,
      "transactionIndex": 2,
      "confirmations": null,
      "from": "0x5F28bcc5faFC8982536A9e4be559657998CdE1E3",
      "gasPrice": {
        "_hex": "0xba43b7400"
      },
      "gasLimit": {
        "_hex": "0x5208"
      },
      "to": "0xC47Aaa860008be6f65B58c6C6E02a84e666EfE31",
      "value": {
        "_hex": "0x3dfe178ce94b57c00"
      },
      "nonce": 6,
      "data": "0x",
      "r": "0x2f8a850fff6f5aec138b2e3c0f388113f911f351fdc00a5e9429b9da4c234e6e",
      "s": "0x4d3d783a4a35d057a4ed144f31a1282a1977a07eca5835b5f5505de03babf69a",
      "v": 27,
      "creates": null,
      "raw": "0xf86d06850ba43b740082520894c47aaa860008be6f65b58c6c6e02a84e666efe318903dfe178ce94b57c00801ba02f8a850fff6f5aec138b2e3c0f388113f911f351fdc00a5e9429b9da4c234e6ea04d3d783a4a35d057a4ed144f31a1282a1977a07eca5835b5f5505de03babf69a",
      "networkId": 0,
      "chainId": 0
    }
  ]
}