{
  "hash": "0x67e42671444e31ff728a4a6fd055375cd2c223f5cc6fb938de8319ac4642136b",
  "parentHash": "0xc56429c11eb1deac959660dc20b7ef666876bba122a4953f6cc4925b0a176771",
  "number": 47783,
  "timestamp": 1438946208,
  "nonce": "0x4997e1e0c6e23d55",
  "difficulty": 1455153449678,
  "gasLimit": {
    "_hex": "0xf283"
  },
  "gasUsed": {
    "_hex": "0x5208"
  },
  "miner": "0x24339341F29d2aaD7d3c591c0f9931e7D4bFEd6e",
  "extraData": "0x476574682f76312e302e312f6c696e75782f676f312e342e32",
  "transactions": [
    {
      "hash": "0x0a10b3dbd02244bcb1d997916a4833db9c0de4b16828e1885fd210b5cc9f3f08",
      "blockHash": "0x67e42671444e31ff728a4a6fd055375cd2c223f5cc6fb938de8319ac4642136b",
      "blockNumber": 47783,
      "transactionIndex": 0,
      "confirmations": null,
      "from": "0xe6A7a1d47ff21B6321162AEA7C6CB457D5476Bca",
      "gasPrice": {
        "_hex": "0xddda35ae1"
      },
      "gasLimit": {
        "_hex": "0x55f0"
      },
      "to": "0x73399E4211fC5e5C4cF33E51958a3173124645c3",
      "value": {
        "_hex": "0x138872ca3774cd530"
      },
      "nonce": 235,
      "data": "0x",
      "r": "0x1ec7812c0dc11f292549450770c21da26d1d5e347a221a44661ca14d3ec90542",
      "s": "0x71120722f00a25cba7a496d904752bd1f7dc7ed8a52778ed5e896c1c589c4a3b",
      "v": 27,
      "creates": null,
      "raw": "0xf86e81eb850ddda35ae18255f09473399e4211fc5e5c4cf33e51958a3173124645c3890138872ca3774cd530801ba01ec7812c0dc11f292549450770c21da26d1d5e347a221a44661ca14d3ec90542a071120722f00a25cba7a496d904752bd1f7dc7ed8a52778ed5e896c1c589c4a3b",
      "networkId": 0,
      "chainId": 0
    }
  ]
}