{
  "hash": "0xe808b7079c949edd088d39630be18123b4d74d73e94898b00af03f7a29f22f5c",
  "parentHash": "0x30f76f3d9ed13d3fc734222c6a63893bc93c2d51e246cfc4d367c1e04983c180",
  "number": 81773,
  "timestamp": 1439507728,
  "nonce": "0xcc80be3a20146ff3",
  "difficulty": 2415247248867,
  "gasLimit": {
    "_hex": "0x2fefd8"
  },
  "gasUsed": {
    "_hex": "0x5208"
  },
  "miner": "0x580992B51e3925e23280EfB93d3047C82f17E038",
  "extraData": "0x476574682f76312e302e312f6c696e75782f676f312e342e32",
  "transactions": [
    {
      "hash": "0x39318c8a2e39c306edd04c058e43340624f1f4c6b7c939055d1073d13f189cb3",
      "blockHash": "0xe808b7079c949edd088d39630be18123b4d74d73e94898b00af03f7a29f22f5c",
      "blockNumber": 81773,
      "transactionIndex": 0,
      "confirmations": null,
      "from": "0x120A270bbC009644e35F0bB6ab13f95b8199c4ad",
      "gasPrice": {
        "_hex": "0xcf2b47775"
      },
      "gasLimit": {
        "_hex": "0x3d090"
      },
      "to": "0x53EC61F7F0fefae963Ce7d7FfC53592A3a09b1d5",
      "value": {
        "_hex": "0x105bbaa16edd1400"
      },
      "nonce": 390,
      "data": "0x",
      "r": "0xd8b8f890d080a0d728b72961382e086a346882c61f5554600524d9c988734688",
      "s": "0x72d9eaeab6725ed9d4c35039f6ba6a3508e638ccf847bf4dcaa89e1c2c8995c1",
      "v": 27,
      "creates": null,
      "raw": "0xf86f820186850cf2b477758303d0909453ec61f7f0fefae963ce7d7ffc53592a3a09b1d588105bbaa16edd1400801ba0d8b8f890d080a0d728b72961382e086a346882c61f5554600524d9c988734688a072d9eaeab6725ed9d4c35039f6ba6a3508e638ccf847bf4dcaa89e1c2c8995c1",
      "networkId": 0,
      "chainId": 0
    }
  ]
}