{
  "hash": "0x11f720819031a5f700c507e409e90900e15797982ce99b248caad63e43e47a54",
  "parentHash": "0x2cbbc543fd8146eaf9c0b842325a075946a875ae42409a45d48c78f84b7c9c33",
  "number": 68938,
  "timestamp": 1439295960,
  "nonce": "0x8736e7464f9b5004",
  "difficulty": 2030005964404,
  "gasLimit": {
    "_hex": "0x2fefd8"
  },
  "gasUsed": {
    "_hex": "0x12988c"
  },
  "miner": "0x88D74a59454F6cF3B51ef6b9136AFb6b9D405A88",
  "extraData": "0x476574682f76312e302e312d37666266393930632f6c696e75782f676f312e34",
  "transactions": [
    {
      "hash": "0x062f773467ce4cd59e0b50ad816c6f0c275875cae9a3ea9bd8f8ee1035c5bfcf",
      "blockHash": "0x11f720819031a5f700c507e409e90900e15797982ce99b248caad63e43e47a54",
      "blockNumber": 68938,
      "transactionIndex": 0,
      "confirmations": null,
      "from": "0x0A97CdA6B56f198B7BDCB161954b4e0606589Ba6",
      "gasPrice": {
        "_hex": "0xba43b7400"
      },
      "gasLimit": {
        "_hex": "0x15f90"
      },
      "to": "0x793AE8C1b1a160BFc07BFB0d04F85eab1A71F4f2",
      "value": {
        "_hex": "0x0"
      },
      "nonce": 0,
      "data": "0x3ba15036",
      "r": "0xfe25caf54841e4a2b54720d1737969b67c7d4bb3cdac9ba114ac511f0f30d683",
      "s": "0x013daed63cb0ef5f4ce5271aebb281711b250594837edf08d3fe3f85d38d8cb8",
      "v": 27,
      "creates": null,
      "raw": "0xf86980850ba43b740083015f9094793ae8c1b1a160bfc07bfb0d04f85eab1a71f4f280843ba150361ba0fe25caf54841e4a2b54720d1737969b67c7d4bb3cdac9ba114ac511f0f30d683a0013daed63cb0ef5f4ce5271aebb281711b250594837edf08d3fe3f85d38d8cb8",
      "networkId": 0,
      "chainId": 0
    },
    {
      "hash": "0x38f8d5449a5752d4e01d79314680c08fffa0c78ed2a6ffbd32b35e121b6b05bb",
      "blockHash": "0x11f720819031a5f700c507e409e90900e15797982ce99b248caad63e43e47a54",
      "blockNumber": 68938,
      "transactionIndex": 1,
      "confirmations": null,
      "from": "0x8aFDbEf3f0c20dd49F796e5196C6cE6B5f7291e8",
      "gasPrice": {
        "_hex": "0xba43b7400"
      },
      "gasLimit": {
        "_hex": "0x15f90"
      },
      "to": "0x793AE8C1b1a160BFc07BFB0d04F85eab1A71F4f2",
      "value": {
        "_hex": "0x0"
      },
      "nonce": 0,
      "data": "0x3ba15036",
      "r": "0x06d7ef1e07a73b467b3113063045786133629400d3910d8dc8644f597b1172eb",
      "s": "0x14d13595cd15d5d2d18a44d95494e654e1d0a36029a7d22d12365b11f006d159",
      "v": 27,
      "creates": null,
      "raw": "0xf86980850ba43b740083015f9094793ae8c1b1a160bfc07bfb0d04f85eab1a71f4f280843ba150361ba006d7ef1e07a73b467b3113063045786133629400d3910d8dc8644f597b1172eba014d13595cd15d5d2d18a44d95494e654e1d0a36029a7d22d12365b11f006d159",
      "networkId": 0,
      "chainId": 0
    },
    {
      "hash": "0x99932aed87bff4ac4084e3bff97ccd4f0c9367e5e1ec3612f4b0b2f63c721aee",
      "blockHash": "0x11f720819031a5f700c507e409e90900e15797982ce99b248caad63e43e47a54",
      "blockNumber": 68938,
      "transactionIndex": 2,
      "confirmations": null,
      "from": "0x3b3014beA595B13C5929fC583a5e4F4f11A76eb2",
      "gasPrice": {
        "_hex": "0xba43b7400"
      },
      "gasLimit": {
        "_hex": "0x15f90"
      },
      "to": "0x793AE8C1b1a160BFc07BFB0d04F85eab1A71F4f2",
      "value": {
        "_hex": "0x0"
      },
      "nonce": 0,
      "data": "0x3ba15036",
      "r": "0xf1c4fbd207154411e2ff15c7c44ba94283ccda9f97639a4cbd3990db61a5019a",
      "s": "0x2a059f8e197b7a9fd2d6a22d0bb0b876c36e4664e4ccf667d9d0d0e8753c2754",
      "v": 28,
      "creates": null,
      "raw": "0xf86980850ba43b740083015f9094793ae8c1b1a160bfc07bfb0d04f85eab1a71f4f280843ba150361ca0f1c4fbd207154411e2ff15c7c44ba94283ccda9f97639a4cbd3990db61a5019aa02a059f8e197b7a9fd2d6a22d0bb0b876c36e4664e4ccf667d9d0d0e8753c2754",
      "networkId": 0,
      "chainId": 0
    },
    {
      "hash": "0x9ef2b8b1b749384854be68b8ba5847d21e984064f7fae8cd2064ddd207d673bf",
      "blockHash": "0x11f720819031a5f700c507e409e90900e15797982ce99b248caad63e43e47a54",
      "blockNumber": 68938,
      "transactionIndex": 3,
      "confirmations": null,
      "from": "0x06aDb049491ec3c400dE78374edE98348C276A09",
      "gasPrice": {
        "_hex": "0xba43b7400"
      },
      "gasLimit": {
        "_hex": "0x15f90"
      },
      "to": "0x793AE8C1b1a160BFc07BFB0d04F85eab1A71F4f2",
      "value": {
        "_hex": "0x0"
      },
      "nonce": 0,
      "data": "0x3ba15036",
      "r": "0x84ebe5371b6aa0b75a68bfdbae013696408a2a1f04676a405fa5486f6fb00962",
      "s": "0x5ee68fbd8f3fb03193a86398d8a15dadd4fdf529ce7c3490835cb23c73d90592",
      "v": 28,
      "creates": null,
      "raw": "0xf86980850ba43b740083015f9094793ae8c1b1a160bfc07bfb0d04f85eab1a71f4f280843ba150361ca084ebe5371b6aa0b75a68bfdbae013696408a2a1f04676a405fa5486f6fb00962a05ee68fbd8f3fb03193a86398d8a15dadd4fdf529ce7c3490835cb23c73d90592",
      "networkId": 0,
      "chainId": 0
    },
    {
      "hash": "0xb69ec35bbfe3cf7e68fe61429dc695b435c3183e1f0c0af60f4b5b1e3d169606",
      "blockHash": "0x11f720819031a5f700c507e409e90900e15797982ce99b248caad63e43e47a54",
      "blockNumber": 68938,
      "transactionIndex": 4,
      "confirmations": null,
      "from": "0xA0A41b56248B82df7466F7E887391A13c8bB78e2",
      "gasPrice": {
        "_hex": "0xba43b7400"
      },
      "gasLimit": {
        "_hex": "0x15f90"
      },
      "to": "0x793AE8C1b1a160BFc07BFB0d04F85eab1A71F4f2",
      "value": {
        "_hex": "0x0"
      },
      "nonce": 0,
      "data": "0x3ba15036",
      "r": "0xe5674e3f74e4884e6852ce6d3cd3f2da2e5d05215ffb507f126d81d093751583",
      "s": "0x324d40356f130e8ae31287edd14bb78db2725fffc2b40fb27ba99b34e35c2691",
      "v": 27,
      "creates": null,
      "raw": "0xf86980850ba43b740083015f9094793ae8c1b1a160bfc07bfb0d04f85eab1a71f4f280843ba150361ba0e5674e3f74e4884e6852ce6d3cd3f2da2e5d05215ffb507f126d81d093751583a0324d40356f130e8ae31287edd14bb78db2725fffc2b40fb27ba99b34e35c2691",
      "networkId": 0,
      "chainId": 0
    },
    {
      "hash": "0x086b0b2f925a569ffef3a2e91d825e5306979ef4d1129268e50c727faa0f2cbd",
      "blockHash": "0x11f720819031a5f700c507e409e90900e15797982ce99b248caad63e43e47a54",
      "blockNumber": 68938,
      "transactionIndex": 5,
      "confirmations": null,
      "from": "0x1ac01121D2D715C58C0C5Df0e64A3db54D724AcA",
      "gasPrice": {
        "_hex": "0xba43b7400"
      },
      "gasLimit": {
        "_hex": "0x15f90"
      },
      "to": "0x793AE8C1b1a160BFc07BFB0d04F85eab1A71F4f2",
      "value": {
        "_hex": "0x0"
      },
      "nonce": 0,
      "data": "0x3ba15036",
      "r": "0xe0e1200541b4436cce339090ebdcafb6b687777cc52c92406b57e795b7fe43a5",
      "s": "0x6db4769c0309433a3db37126d27029d5443d5149178d4d1490aa3c95910bf359",
      "v": 28,
      "creates": null,
      "raw": "0xf86980850ba43b740083015f9094793ae8c1b1a160bfc07bfb0d04f85eab1a71f4f280843ba150361ca0e0e1200541b4436cce339090ebdcafb6b687777cc52c92406b57e795b7fe43a5a06db4769c0309433a3db37126d27029d5443d5149178d4d1490aa3c95910bf359",
      "networkId": 0,
      "chainId": 0
    },
    {
      "hash": "0xf8fa53727821ef9aef682746c58555138cacb2f0d7e992690b01c33346fbb436",
      "blockHash": "0x11f720819031a5f700c507e409e90900e15797982ce99b248caad63e43e47a54",
      "blockNumber": 68938,
      "transactionIndex": 6,
      "confirmations": null,
      "from": "0xd1079398D21E23EAaddA7178e5Ad5E114e11D57f",
      "gasPrice": {
        "_hex": "0xba43b7400"
      },
      "gasLimit": {
        "_hex": "0x15f90"
      },
      "to": "0x793AE8C1b1a160BFc07BFB0d04F85eab1A71F4f2",
      "value": {
        "_hex": "0x0"
      },
      "nonce": 0,
      "data": "0x3ba15036",
      "r": "0x2e17331ab949ebef5a84c1b03e624c1e8a06b7b7855d38fd6f4d9e2f1dd2b169",
      "s": "0x4dfa9ac028e298a99b52d8cb62bbbc52dadbe5c74d117857f0218cb7968a38f9",
      "v": 27,
      "creates": null,
      "raw": "0xf86980850ba43b740083015f9094793ae8c1b1a160bfc07bfb0d04f85eab1a71f4f280843ba150361ba02e17331ab949ebef5a84c1b03e624c1e8a06b7b7855d38fd6f4d9e2f1dd2b169a04dfa9ac028e298a99b52d8cb62bbbc52dadbe5c74d117857f0218cb7968a38f9",
      "networkId": 0,
      "chainId": 0
    },
    {
      "hash": "0x7758b957308d96298011f7e08174ac06fb796a968023de6a144dd5cc64c0a28f",
      "blockHash": "0x11f720819031a5f700c507e409e90900e15797982ce99b248caad63e43e47a54",
      "blockNumber": 68938,
      "transactionIndex": 7,
      "confirmations": null,
      "from": "0xf1f2c76068dB5A8346102241669238FBEE0fD9Da",
      "gasPrice": {
        "_hex": "0xba43b7400"
      },
      "gasLimit": {
        "_hex": "0x15f90"
      },
      "to": "0x793AE8C1b1a160BFc07BFB0d04F85eab1A71F4f2",
      "value": {
        "_hex": "0x0"
      },
      "nonce": 0,
      "data": "0x3ba15036",
      "r": "0x2f7931447c44045c2cbc26e9c0144001edd139abcf8f1b97fea57b930bc47e7e",
      "s": "0x0d661dd588190aeb29d0d52a81dfe1cf5d926e399891720ca946b862756fc8f0",
      "v": 28,
      "creates": null,
      "raw": "0xf86980850ba43b740083015f9094793ae8c1b1a160bfc07bfb0d04f85eab1a71f4f280843ba150361ca02f7931447c44045c2cbc26e9c0144001edd139abcf8f1b97fea57b930bc47e7ea00d661dd588190aeb29d0d52a81dfe1cf5d926e399891720ca946b862756fc8f0",
      "networkId": 0,
      "chainId": 0
    },
    {
      "hash": "0x4d4677a94d7c1621319deeed2b2c0444e64f2bd34e4c197f24eb3d187caab402",
      "blockHash": "0x11f720819031a5f700c507e409e90900e15797982ce99b248caad63e43e47a54",
      "blockNumber": 68938,
      "transactionIndex": 8,
      "confirmations": null,
      "from": "0x4458f86353b4740Fe9E09071C23A7437640063C9",
      "gasPrice": {
        "_hex": "0xba43b7400"
      },
      "gasLimit": {
        "_hex": "0x15f90"
      },
      "to": "0x793AE8C1b1a160BFc07BFB0d04F85eab1A71F4f2",
      "value": {
        "_hex": "0x0"
      },
      "nonce": 0,
      "data": "0x3ba15036",
      "r": "0xd49fcc5d137cf9d7ffb3cf270495ae8489cd217279753028cb73f6b71857dbe9",
      "s": "0x488ff8be5eb813315712af21da1affb9c7cae1cd031329a1271a2ef6a502f2c4",
      "v": 27,
      "creates": null,
      "raw": "0xf86980850ba43b740083015f9094793ae8c1b1a160bfc07bfb0d04f85eab1a71f4f280843ba150361ba0d49fcc5d137cf9d7ffb3cf270495ae8489cd217279753028cb73f6b71857dbe9a0488ff8be5eb813315712af21da1affb9c7cae1cd031329a1271a2ef6a502f2c4",
      "networkId": 0,
      "chainId": 0
    },
    {
      "hash": "0x72d3b73704b82e140d7079c48890fd25fd85e775c5869f16e59298c4064d3c26",
      "blockHash": "0x11f720819031a5f700c507e409e90900e15797982ce99b248caad63e43e47a54",
      "blockNumber": 68938,
      "transactionIndex": 9,
      "confirmations": null,
      "from": "0x7B55d9c3d18eF03F3baA9493a1eFcE3bfE4A8d5f",
      "gasPrice": {
        "_hex": "0xba43b7400"
      },
      "gasLimit": {
        "_hex": "0x15f90"
      },
      "to": "0x793AE8C1b1a160BFc07BFB0d04F85eab1A71F4f2",
      "value": {
        "_hex": "0x0"
      },
      "nonce": 0,
      "data": "0x3ba15036",
      "r": "0x742a6c27d53a792a7405507086d3c8d8aa8846a8660ca02a64ecbfbfb6c8d10c",
      "s": "0x39d1f59ed998ce759d8a90e9a8102f05cc73116e6896a8828f9cde92ee12d395",
      "v": 27,
      "creates": null,
      "raw": "0xf86980850ba43b740083015f9094793ae8c1b1a160bfc07bfb0d04f85eab1a71f4f280843ba150361ba0742a6c27d53a792a7405507086d3c8d8aa8846a8660ca02a64ecbfbfb6c8d10ca039d1f59ed998ce759d8a90e9a8102f05cc73116e6896a8828f9cde92ee12d395",
      "networkId": 0,
      "chainId": 0
    },
    {
      "hash": "0x8c5baade89922ae836245a713c7d9c096c706d1ff6550053f6f618e8ea524151",
      "blockHash": "0x11f720819031a5f700c507e409e90900e15797982ce99b248caad63e43e47a54",
      "blockNumber": 68938,
      "transactionIndex": 10,
      "confirmations": null,
      "from": "0xC85A4097983038E36f6E2B213670788bA308285f",
      "gasPrice": {
        "_hex": "0xba43b7400"
      },
      "gasLimit": {
        "_hex": "0x15f90"
      },
      "to": "0x793AE8C1b1a160BFc07BFB0d04F85eab1A71F4f2",
      "value": {
        "_hex": "0x0"
      },
      "nonce": 0,
      "data": "0x3ba15036",
      "r": "0x86f16ebede505ef0149bd4042d36e95e42c30a86fa8f4095b0e4ad67139b258e",
      "s": "0x5d7728251ad9e230f323f2882cf4ac31264f0a31159f21945d4380329d5ae299",
      "v": 27,
      "creates": null,
      "raw": "0xf86980850ba43b740083015f9094793ae8c1b1a160bfc07bfb0d04f85eab1a71f4f280843ba150361ba086f16ebede505ef0149bd4042d36e95e42c30a86fa8f4095b0e4ad67139b258ea05d7728251ad9e230f323f2882cf4ac31264f0a31159f21945d4380329d5ae299",
      "networkId": 0,
      "chainId": 0
    },
    {
      "hash": "0xee13a5cbf00520ad2addd060052c2682584e513f5c0ab03668259cddb0dcc891",
      "blockHash": "0x11f720819031a5f700c507e409e90900e15797982ce99b248caad63e43e47a54",
      "blockNumber": 68938,
      "transactionIndex": 11,
      "confirmations": null,
      "from": "0xDD0AF477968a18C6740e195CA757168A306B8079",
      "gasPrice": {
        "_hex": "0xba43b7400"
      },
      "gasLimit": {
        "_hex": "0x15f90"
      },
      "to": "0x793AE8C1b1a160BFc07BFB0d04F85eab1A71F4f2",
      "value": {
        "_hex": "0x0"
      },
      "nonce": 0,
      "data": "0x3ba15036",
      "r": "0x417a6a73413ef053545b71c04328c4bf4c2bf035e8d6d1033d5ef9b57be1cc1d",
      "s": "0x6640c71e2dbb66e9c2478f91f233872563d0999ce630fd4f6fa4bfa6a7901b8d",
      "v": 28,
      "creates": null,
      "raw": "0xf86980850ba43b740083015f9094793ae8c1b1a160bfc07bfb0d04f85eab1a71f4f280843ba150361ca0417a6a73413ef053545b71c04328c4bf4c2bf035e8d6d1033d5ef9b57be1cc1da06640c71e2dbb66e9c2478f91f233872563d0999ce630fd4f6fa4bfa6a7901b8d",
      "networkId": 0,
      "chainId": 0
    },
    {
      "hash": "0xa245844c8155e2c9c9c6759d285e4df422a555a229b9be8bc50e5c8a8aa735ce",
      "blockHash": "0x11f720819031a5f700c507e409e90900e15797982ce99b248caad63e43e47a54",
      "blockNumber": 68938,
      "transactionIndex": 12,
      "confirmations": null,
      "from": "0x5Bd7842d8a39931007FAa0454fb235A0dFB4143c",
      "gasPrice": {
        "_hex": "0xba43b7400"
      },
      "gasLimit": {
        "_hex": "0x15f90"
      },
      "to": "0x793AE8C1b1a160BFc07BFB0d04F85eab1A71F4f2",
      "value": {
        "_hex": "0x0"
      },
      "nonce": 0,
      "data": "0x3ba15036",
      "r": "0xb61636f3ce24ef303b7f266fd11744c6fe13ee363c16dada73ab2cb9c3b6ba95",
      "s": "0x68560d7f1be914e6cfda88ec80e0a68c60d1e6db93dc9629093ab1175fff26f1",
      "v": 28,
      "creates": null,
      "raw": "0xf86980850ba43b740083015f9094793ae8c1b1a160bfc07bfb0d04f85eab1a71f4f280843ba150361ca0b61636f3ce24ef303b7f266fd11744c6fe13ee363c16dada73ab2cb9c3b6ba95a068560d7f1be914e6cfda88ec80e0a68c60d1e6db93dc9629093ab1175fff26f1",
      "networkId": 0,
      "chainId": 0
    },
    {
      "hash": "0x0581c8c15aef783c4d854e5adfda65fd2b164abfd168f369df63de6ff7bd761f",
      "blockHash": "0x11f720819031a5f700c507e409e90900e15797982ce99b248caad63e43e47a54",
      "blockNumber": 68938,
      "transactionIndex": 13,
      "confirmations": null,
      "from": "0xb12b19E6AdaCc3EA23B922554AAe4Bdaf196210b",
      "gasPrice": {
        "_hex": "0xba43b7400"
      },
      "gasLimit": {
        "_hex": "0x15f90"
      },
      "to": "0x793AE8C1b1a160BFc07BFB0d04F85eab1A71F4f2",
      "value": {
        "_hex": "0x0"
      },
      "nonce": 0,
      "data": "0x3ba15036",
      "r": "0x8951eb5af56a53687e8f4ad79661a3620e1b7e67a247affab7d88fb8fb641390",
      "s": "0x0379e401b4ff02a1744386da733a4019b36f3d90b6597782f937af5dcd847812",
      "v": 27,
      "creates": null,
      "raw": "0xf86980850ba43b740083015f9094793ae8c1b1a160bfc07bfb0d04f85eab1a71f4f280843ba150361ba08951eb5af56a53687e8f4ad79661a3620e1b7e67a247affab7d88fb8fb641390a00379e401b4ff02a1744386da733a4019b36f3d90b6597782f937af5dcd847812",
      "networkId": 0,
      "chainId": 0
    },
    {
      "hash": "0xc67e151fcfdc339e862cdfa47ae80d0e50714a26fab2b0fa272334b1c3d29913",
      "blockHash": "0x11f720819031a5f700c507e409e90900e15797982ce99b248caad63e43e47a54",
      "blockNumber": 68938,
      "transactionIndex": 14,
      "confirmations": null,
      "from": "0x71aAecB159eeCd828Eb657Ac484138C3B4D0D8bb",
      "gasPrice": {
        "_hex": "0xba43b7400"
      },
      "gasLimit": {
        "_hex": "0x15f90"
      },
      "to": "0x793AE8C1b1a160BFc07BFB0d04F85eab1A71F4f2",
      "value": {
        "_hex": "0x0"
      },
      "nonce": 0,
      "data": "0x3ba15036",
      "r": "0x01386c684d2f10e4f7204bf67914f4edec25cf6bc6eac449ce04516331c8b5cb",
      "s": "0x68f97d074dd748cc655642133914123ac3bf97dfbe0f6b78c2755c5e3c69736f",
      "v": 27,
      "creates": null,
      "raw": "0xf86980850ba43b740083015f9094793ae8c1b1a160bfc07bfb0d04f85eab1a71f4f280843ba150361ba001386c684d2f10e4f7204bf67914f4edec25cf6bc6eac449ce04516331c8b5cba068f97d074dd748cc655642133914123ac3bf97dfbe0f6b78c2755c5e3c69736f",
      "networkId": 0,
      "chainId": 0
    },
    {
      "hash": "0x22db64f4194fb70a757d63847f765d5437a750324d862f2f0535db57eb146c37",
      "blockHash": "0x11f720819031a5f700c507e409e90900e15797982ce99b248caad63e43e47a54",
      "blockNumber": 68938,
      "transactionIndex": 15,
      "confirmations": null,
      "from": "0xB834C9D8ede9f052E17c49902Ca7f697a305C52C",
      "gasPrice": {
        "_hex": "0xba43b7400"
      },
      "gasLimit": {
        "_hex": "0x15f90"
      },
      "to": "0x793AE8C1b1a160BFc07BFB0d04F85eab1A71F4f2",
      "value": {
        "_hex": "0x0"
      },
      "nonce": 0,
      "data": "0x3ba15036",
      "r": "0x4225e1d2cedaeceae37719698f3e88e6203c77288aa8f2e44a53cd2dd495a99d",
      "s": "0x6df62948efc09da4b4dc68b5af2ed4eb6e66807f0fca4492f06b5139a99e657e",
      "v": 28,
      "creates": null,
      "raw": "0xf86980850ba43b740083015f9094793ae8c1b1a160bfc07bfb0d04f85eab1a71f4f280843ba150361ca04225e1d2cedaeceae37719698f3e88e6203c77288aa8f2e44a53cd2dd495a99da06df62948efc09da4b4dc68b5af2ed4eb6e66807f0fca4492f06b5139a99e657e",
      "networkId": 0,
      "chainId": 0
    },
    {
      "hash": "0xda2e49fc3af00ac24f89f9f45684005f56d5987d5e091b153590db3287635f82",
      "blockHash": "0x11f720819031a5f700c507e409e90900e15797982ce99b248caad63e43e47a54",
      "blockNumber": 68938,
      "transactionIndex": 16,
      "confirmations": null,
      "from": "0x790D724959b5641A5041F3bFf130e1a97e75E132",
      "gasPrice": {
        "_hex": "0xba43b7400"
      },
      "gasLimit": {
        "_hex": "0x15f90"
      },
      "to": "0x793AE8C1b1a160BFc07BFB0d04F85eab1A71F4f2",
      "value": {
        "_hex": "0x0"
      },
      "nonce": 0,
      "data": "0x3ba15036",
      "r": "0x3d0d9414f70cb974166a33843a9b190aa39bf9e3baaedf277c60f74338df410c",
      "s": "0x798ab944899e4f4c9daa3716cc046630d3788c4433d7d408cb8c0a2e64d31b9e",
      "v": 27,
      "creates": null,
      "raw": "0xf86980850ba43b740083015f9094793ae8c1b1a160bfc07bfb0d04f85eab1a71f4f280843ba150361ba03d0d9414f70cb974166a33843a9b190aa39bf9e3baaedf277c60f74338df410ca0798ab944899e4f4c9daa3716cc046630d3788c4433d7d408cb8c0a2e64d31b9e",
      "networkId": 0,
      "chainId": 0
    },
    {
      "hash": "0xa708764259fd18c6ef8348b598c5fccbd776d380cb28a3da1147f1ca3736fdf6",
      "blockHash": "0x11f720819031a5f700c507e409e90900e15797982ce99b248caad63e43e47a54",
      "blockNumber": 68938,
      "transactionIndex": 17,
      "confirmations": null,
      "from": "0xda2e795835FC1AD6EA318986274A4cbCF2Ec3276",
      "gasPrice": {
        "_hex": "0xba43b7400"
      },
      "gasLimit": {
        "_hex": "0x15f90"
      },
      "to": "0x793AE8C1b1a160BFc07BFB0d04F85eab1A71F4f2",
      "value": {
        "_hex": "0x0"
      },
      "nonce": 0,
      "data": "0x3ba15036",
      "r": "0x823a860786fc6906c388ac040005a9c177c7c649dd70f01290d2e856a5ea3e2b",
      "s": "0x4e37ed110a45f3bc88a10e049c589adceab08696d6c02e530a9693abf93ddc84",
      "v": 27,
      "creates": null,
      "raw": "0xf86980850ba43b740083015f9094793ae8c1b1a160bfc07bfb0d04f85eab1a71f4f280843ba150361ba0823a860786fc6906c388ac040005a9c177c7c649dd70f01290d2e856a5ea3e2ba04e37ed110a45f3bc88a10e049c589adceab08696d6c02e530a9693abf93ddc84",
      "networkId": 0,
      "chainId": 0
    },
    {
      "hash": "0x4ffcbd0466369d6f1974df161a20b556c904e0e6d8299bfb0164cfa03cd3c88d",
      "blockHash": "0x11f720819031a5f700c507e409e90900e15797982ce99b248caad63e43e47a54",
      "blockNumber": 68938,
      "transactionIndex": 18,
      "confirmations": null,
      "from": "0xc0210FeAf4277e21dDf3a00E0e85B32DaCbDd7aF",
      "gasPrice": {
        "_hex": "0xba43b7400"
      },
      "gasLimit": {
        "_hex": "0x15f90"
      },
      "to": "0x793AE8C1b1a160BFc07BFB0d04F85eab1A71F4f2",
      "value": {
        "_hex": "0x0"
      },
      "nonce": 0,
      "data": "0x3ba15036",
      "r": "0xb583a7c35b420b48fe2ec1a4482025039f19b67414ea66a53782c1ed19604045",
      "s": "0x5d70cfa66c037f90fd99eeb7c33f1d987832181dc58b1f34be80a14d6832cec6",
      "v": 28,
      "creates": null,
      "raw": "0xf86980850ba43b740083015f9094793ae8c1b1a160bfc07bfb0d04f85eab1a71f4f280843ba150361ca0b583a7c35b420b48fe2ec1a4482025039f19b67414ea66a53782c1ed19604045a05d70cfa66c037f90fd99eeb7c33f1d987832181dc58b1f34be80a14d6832cec6",
      "networkId": 0,
      "chainId": 0
    },
    {
      "hash": "0x02a1429553bb778272d6460f6802ed6da3fc3a1731d3685c4ba655d774ac413d",
      "blockHash": "0x11f720819031a5f700c507e409e90900e15797982ce99b248caad63e43e47a54",
      "blockNumber": 68938,
      "transactionIndex": 19,
      "confirmations": null,
      "from": "0x4aAc4Ddc27f1e7c2d4769e444eD0892d88A201F8",
      "gasPrice": {
        "_hex": "0xba43b7400"
      },
      "gasLimit": {
        "_hex": "0x15f90"
      },
      "to": "0x793AE8C1b1a160BFc07BFB0d04F85eab1A71F4f2",
      "value": {
        "_hex": "0x0"
      },
      "nonce": 0,
      "data": "0x3ba15036",
      "r": "0x9c9c7d8411caf3a3a284071833216bffd3ea1ea51c6e9b47a82d75d6b6dd3087",
      "s": "0x7c72474f1b18e622996b2b8eab05af09210dab4506d66899c580f529c29b1df2",
      "v": 27,
      "creates": null,
      "raw": "0xf86980850ba43b740083015f9094793ae8c1b1a160bfc07bfb0d04f85eab1a71f4f280843ba150361ba09c9c7d8411caf3a3a284071833216bffd3ea1ea51c6e9b47a82d75d6b6dd3087a07c72474f1b18e622996b2b8eab05af09210dab4506d66899c580f529c29b1df2",
      "networkId": 0,
      "chainId": 0
    },
    {
      "hash": "0x24910d122ffc9936dcf849145456fcd420260f8bb598572f7f6596df4e60e241",
      "blockHash": "0x11f720819031a5f700c507e409e90900e15797982ce99b248caad63e43e47a54",
      "blockNumber": 68938,
      "transactionIndex": 20,
      "confirmations": null,
      "from": "0x663515dF92ec4fC269B376C18Dc2Aab1083f181e",
      "gasPrice": {
        "_hex": "0xba43b7400"
      },
      "gasLimit": {
        "_hex": "0x15f90"
      },
      "to": "0x793AE8C1b1a160BFc07BFB0d04F85eab1A71F4f2",
      "value": {
        "_hex": "0x0"
      },
      "nonce": 0,
      "data": "0x3ba15036",
      "r": "0xb5b186844f795a4689f37f971b2d7887d6776ec77c88acde9175f3e4cc27f364",
      "s": "0x59e807f9cc471c9fa037c05564639858f1fd1cae285f55c9f46ac4260b6ba5c2",
      "v": 27,
      "creates": null,
      "raw": "0xf86980850ba43b740083015f9094793ae8c1b1a160bfc07bfb0d04f85eab1a71f4f280843ba150361ba0b5b186844f795a4689f37f971b2d7887d6776ec77c88acde9175f3e4cc27f364a059e807f9cc471c9fa037c05564639858f1fd1cae285f55c9f46ac4260b6ba5c2",
      "networkId": 0,
      "chainId": 0
    },
    {
      "hash": "0x36cd74c33a289177e762b61074e1a86a3cc8979b88ff3682f90b0838bc9952fe",
      "blockHash": "0x11f720819031a5f700c507e409e90900e15797982ce99b248caad63e43e47a54",
      "blockNumber": 68938,
      "transactionIndex": 21,
      "confirmations": null,
      "from": "0x1a193e57C256b5e3564139Cf013b643Ef9E2d173",
      "gasPrice": {
        "_hex": "0xba43b7400"
      },
      "gasLimit": {
        "_hex": "0x15f90"
      },
      "to": "0x793AE8C1b1a160BFc07BFB0d04F85eab1A71F4f2",
      "value": {
        "_hex": "0x0"
      },
      "nonce": 0,
      "data": "0x3ba15036",
      "r": "0x73e7f33e99e37aeb4bbf844e7f24a4b187178b87d686d35b5ba10fa036114043",
      "s": "0x0be4dd92bf31d7f9703cafeceafe236878121e5083e09e96cb5b426ce4d660dd",
      "v": 27,
      "creates": null,
      "raw": "0xf86980850ba43b740083015f9094793ae8c1b1a160bfc07bfb0d04f85eab1a71f4f280843ba150361ba073e7f33e99e37aeb4bbf844e7f24a4b187178b87d686d35b5ba10fa036114043a00be4dd92bf31d7f9703cafeceafe236878121e5083e09e96cb5b426ce4d660dd",
      "networkId": 0,
      "chainId": 0
    },
    {
      "hash": "0xaed6ce9aea106aa752e1f78567a2d6b094f0f204b38650b9267487c960f6bb0c",
      "blockHash": "0x11f720819031a5f700c507e409e90900e15797982ce99b248caad63e43e47a54",
      "blockNumber": 68938,
      "transactionIndex": 22,
      "confirmations": null,
      "from": "0xDA4Df15deBAdaeac68E9e544dDa2481C5fc1FacD",
      "gasPrice": {
        "_hex": "0xba43b7400"
      },
      "gasLimit": {
        "_hex": "0x15f90"
      },
      "to": "0x793AE8C1b1a160BFc07BFB0d04F85eab1A71F4f2",
      "value": {
        "_hex": "0x0"
      },
      "nonce": 0,
      "data": "0x3ba15036",
      "r": "0x58c983ae556b7fede48494fd76bf0bc34b448f7b91d7746adeb3764fd436253b",
      "s": "0x53c57feb2167c86c7540d691463b7fdea26cc543031a8462ded3222bc2256aca",
      "v": 27,
      "creates": null,
      "raw": "0xf86980850ba43b740083015f9094793ae8c1b1a160bfc07bfb0d04f85eab1a71f4f280843ba150361ba058c983ae556b7fede48494fd76bf0bc34b448f7b91d7746adeb3764fd436253ba053c57feb2167c86c7540d691463b7fdea26cc543031a8462ded3222bc2256aca",
      "networkId": 0,
      "chainId": 0
    },
    {
      "hash": "0xe5ac1256fdad772ea43d111a7ecf1c0e4d7101bf04533467e60e63c30137f787",
      "blockHash": "0x11f720819031a5f700c507e409e90900e15797982ce99b248caad63e43e47a54",
      "blockNumber": 68938,
      "transactionIndex": 23,
      "confirmations": null,
      "from": "0xa8eD12F56b2Ee4F771b41432b2f3aCc268a675a0",
      "gasPrice": {
        "_hex": "0xba43b7400"
      },
      "gasLimit": {
        "_hex": "0x15f90"
      },
      "to": "0x793AE8C1b1a160BFc07BFB0d04F85eab1A71F4f2",
      "value": {
        "_hex": "0x0"
      },
      "nonce": 0,
      "data": "0x3ba15036",
      "r": "0xdbc0c3e0ecbf1dd7f92712b0697fa6deede62ccd673e5345cf273b80957c2bd8",
      "s": "0x095e42bfffd9da593740c11ead93aa25245a263fe2fd965ef867aebc20b19224",
      "v": 28,
      "creates": null,
      "raw": "0xf86980850ba43b740083015f9094793ae8c1b1a160bfc07bfb0d04f85eab1a71f4f280843ba150361ca0dbc0c3e0ecbf1dd7f92712b0697fa6deede62ccd673e5345cf273b80957c2bd8a0095e42bfffd9da593740c11ead93aa25245a263fe2fd965ef867aebc20b19224",
      "networkId": 0,
      "chainId": 0
    },
    {
      "hash": "0xc2291d1b1c3e3fe3d59c7f6702bd933fffdffc57bd6bbff179b8b3c329f4baa5",
      "blockHash": "0x11f720819031a5f700c507e409e90900e15797982ce99b248caad63e43e47a54",
      "blockNumber": 68938,
      "transactionIndex": 24,
      "confirmations": null,
      "from": "0x553A2889df0eD4429dC3C10A549F0e3312740a18",
      "gasPrice": {
        "_hex": "0xba43b7400"
      },
      "gasLimit": {
        "_hex": "0x15f90"
      },
      "to": "0x793AE8C1b1a160BFc07BFB0d04F85eab1A71F4f2",
      "value": {
        "_hex": "0x0"
      },
      "nonce": 0,
      "data": "0x3ba15036",
      "r": "0x6402d629985ad47e1855604d09130f10cc18ed3095e9e3d794064b391a4ea28d",
      "s": "0x5eecb47cceff0ae3690585409eb61bf90874ee330e4d8ff7d9fa0d7c1f8e4a12",
      "v": 28,
      "creates": null,
      "raw": "0xf86980850ba43b740083015f9094793ae8c1b1a160bfc07bfb0d04f85eab1a71f4f280843ba150361ca06402d629985ad47e1855604d09130f10cc18ed3095e9e3d794064b391a4ea28da05eecb47cceff0ae3690585409eb61bf90874ee330e4d8ff7d9fa0d7c1f8e4a12",
      "networkId": 0,
      "chainId": 0
    }
  ]
}