{
  "hash": "0xfad4be50a08996d284b63530712165b908c877d278cd582a9a01d4e78702f30f",
  "parentHash": "0xbab7bd3334d6608c491319960c98624adc071ff01b5918b9938db9b4dd17e1ee",
  "number": 93447,
  "timestamp": 1439690515,
  "nonce": "0x87c19471995d7d07",
  "difficulty": 3505851676652,
  "gasLimit": {
    "_hex": "0x2fefd8"
  },
  "gasUsed": {
    "_hex": "0xf618"
  },
  "miner": "0xC5624D986419AeBa6B6A7Ce5BAFd9883f75d8bc8",
  "extraData": "0x",
  "transactions": [
    {
      "hash": "0xfa243a2bb6d29a20a0e216e57d3540363e05ed01405c9964d3b2300bfd375a49",
      "blockHash": "0xfad4be50a08996d284b63530712165b908c877d278cd582a9a01d4e78702f30f",
      "blockNumber": 93447,
      "transactionIndex": 0,
      "confirmations": null,
      "from": "0x2910543Af39abA0Cd09dBb2D50200b3E800A63D2",
      "gasPrice": {
        "_hex": "0xdbf05ee52"
      },
      "gasLimit": {
        "_hex": "0x5208"
      },
      "to": "0x2f86ba8019945f39edE131D38d4d8780884DA553",
      "value": {
        "_hex": "0x165c954843a523f8000"
      },
      "nonce": 850,
      "data": "0x",
      "r": "0xe6ac92d95fc004a0868dd20b6bbdcd15cd4e715909a715f520ff800b591a4508",
      "s": "0x75cdd1f032e061f24613f7219d00229e907ecdc3e6e087d6909e35304743da35",
      "v": 27,
      "creates": null,
      "raw": "0xf870820352850dbf05ee52825208942f86ba8019945f39ede131d38d4d8780884da5538a0165c954843a523f8000801ba0e6ac92d95fc004a0868dd20b6bbdcd15cd4e715909a715f520ff800b591a4508a075cdd1f032e061f24613f7219d00229e907ecdc3e6e087d6909e35304743da35",
      "networkId": 0,
      "chainId": 0
    },
    {
      "hash": "0xa45a5005be50153cb61db3f2a7456876a7cbc35e27c314a9439c60f02e02dab2",
      "blockHash": "0xfad4be50a08996d284b63530712165b908c877d278cd582a9a01d4e78702f30f",
      "blockNumber": 93447,
      "transactionIndex": 1,
      "confirmations": null,
      "from": "0xCbbdAd70d0ff27254925AD37B5C135EEe1116615",
      "gasPrice": {
        "_hex": "0xd34c5e279"
      },
      "gasLimit": {
        "_hex": "0x15f90"
      },
      "to": "0x886e83d9133F65B9c27A946f699E88e71A888E4C",
      "value": {
        "_hex": "0x6f05b59d3b20000"
      },
      "nonce": 5,
      "data": "0x",
      "r": "0x46351f06b855b9df04143748ad0636e72b143d1fa11016d34a625bbcf3494041",
      "s": "0x3ceaed6c118ed926e3aafa3e01b679a98d85ee4dc9191440d25b461b9e8db1b6",
      "v": 28,
      "creates": null,
      "raw": "0xf86d05850d34c5e27983015f9094886e83d9133f65b9c27a946f699e88e71a888e4c8806f05b59d3b20000801ca046351f06b855b9df04143748ad0636e72b143d1fa11016d34a625bbcf3494041a03ceaed6c118ed926e3aafa3e01b679a98d85ee4dc9191440d25b461b9e8db1b6",
      "networkId": 0,
      "chainId": 0
    },
    {
      "hash": "0x292e4856a3910140f5340f7536987f51d32fb9843a5b287f6596d6e7c28e032f",
      "blockHash": "0xfad4be50a08996d284b63530712165b908c877d278cd582a9a01d4e78702f30f",
      "blockNumber": 93447,
      "transactionIndex": 2,
      "confirmations": null,
      "from": "0xEF247E639d49461D25F57e9362CadE3120910Ce0",
      "gasPrice": {
        "_hex": "0xcc5bfb516"
      },
      "gasLimit": {
        "_hex": "0x15f90"
      },
      "to": "0xF87481A262E993a75F791E7859E71BaC36A606Eb",
      "value": {
        "_hex": "0x8ac7230489e80000"
      },
      "nonce": 30,
      "data": "0x",
      "r": "0xc1cc92adc87eab490682ad58f0aed3beac873c1f9dc2429ee7d76f5e53d6a3ff",
      "s": "0x6581765f048c4554fa3d0837ea37782944ebe810bfedcce35f718aa717ec2102",
      "v": 28,
      "creates": null,
      "raw": "0xf86d1e850cc5bfb51683015f9094f87481a262e993a75f791e7859e71bac36a606eb888ac7230489e80000801ca0c1cc92adc87eab490682ad58f0aed3beac873c1f9dc2429ee7d76f5e53d6a3ffa06581765f048c4554fa3d0837ea37782944ebe810bfedcce35f718aa717ec2102",
      "networkId": 0,
      "chainId": 0
    }
  ]
}