{
  "hash": "0x94ee9a3e12cb141a9567f61370f10b0199ae8f4ac938fc1a7ce33857c1ef8965",
  "parentHash": "0x0061748ef18ac976df65637fde12de4f398467d7acb8f83151c562f72362d6ba",
  "number": 115920,
  "timestamp": 1440065449,
  "nonce": "0x626bdfbbd0019137",
  "difficulty": 4584818890835,
  "gasLimit": {
    "_hex": "0x2fefd8"
  },
  "gasUsed": {
    "_hex": "0xa410"
  },
  "miner": "0xe6A7a1d47ff21B6321162AEA7C6CB457D5476Bca",
  "extraData": "0x476574682f76312e302e312d38326566323666362f6c696e75782f676f312e34",
  "transactions": [
    {
      "hash": "0x6705fced16cd73444d763b83e60caf88e9a0ba8ddd7b52adf0cf33e7a728cf0f",
      "blockHash": "0x94ee9a3e12cb141a9567f61370f10b0199ae8f4ac938fc1a7ce33857c1ef8965",
      "blockNumber": 115920,
      "transactionIndex": 0,
      "confirmations": null,
      "from": "0x32Be343B94f860124dC4fEe278FDCBD38C102D88",
      "gasPrice": {
        "_hex": "0xdaacf7118"
      },
      "gasLimit": {
        "_hex": "0x5208"
      },
      "to": "0xAaA4BEfA989B980188a418Cc5C4C02E7d9103818",
      "value": {
        "_hex": "0x16f1c540d2f75b0000"
      },
      "nonce": 1453,
      "data": "0x",
      "r": "0x02ba304040d7217783a392582fd352809b9bbb718c2133ef6fd8080e74cc5ca1",
      "s": "0x635a69dcd234d54933743c0cec30d3f0db1798ff78e38db20871cd3c98655db1",
      "v": 28,
      "creates": null,
      "raw": "0xf86f8205ad850daacf711882520894aaa4befa989b980188a418cc5c4c02e7d91038188916f1c540d2f75b0000801ca002ba304040d7217783a392582fd352809b9bbb718c2133ef6fd8080e74cc5ca1a0635a69dcd234d54933743c0cec30d3f0db1798ff78e38db20871cd3c98655db1",
      "networkId": 0,
      "chainId": 0
    },
    {
      "hash": "0xd8e3d3a349cf2e8a5d3cabd6b033b12c28e164aeeebc8e215f776c80fb0dcc90",
      "blockHash": "0x94ee9a3e12cb141a9567f61370f10b0199ae8f4ac938fc1a7ce33857c1ef8965",
      "blockNumber": 115920,
      "transactionIndex": 1,
      "confirmations": null,
      "from": "0x32Be343B94f860124dC4fEe278FDCBD38C102D88",
      "gasPrice": {
        "_hex": "0xdaacf7118"
      },
      "gasLimit": {
        "_hex": "0x5208"
      },
      "to": "0xDa1d8D4c5fcF90F031f912409052224a15B83101",
      "value": {
        "_hex": "0x1156abf16a40f0000"
      },
      "nonce": 1454,
      "data": "0x",
      "r": "0x09102d12690e48e9302503b0bee80493454c3a2874e2df30cfe84cce2382e328",
      "s": "0x661adc03665dc77429dda73f080cac746a324ec2e981de8de0841a705766bdd8",
      "v": 28,
      "creates": null,
      "raw": "0xf86f8205ae850daacf711882520894da1d8d4c5fcf90f031f912409052224a15b831018901156abf16a40f0000801ca009102d12690e48e9302503b0bee80493454c3a2874e2df30cfe84cce2382e328a0661adc03665dc77429dda73f080cac746a324ec2e981de8de0841a705766bdd8",
      "networkId": 0,
      "chainId": 0
    }
  ]
}