{
  "hash": "0xada9bf172c07a132a3ab5fe320003ba202a2bf61cf51eb6359293d3a88fbb1e0",
  "parentHash": "0xd0657fc5e7e9a216749429c25f56b1985f08b2cbaa7524c3717cf277a625fbf4",
  "number": 102084,
  "timestamp": 1439832666,
  "nonce": "0x457161c62f308919",
  "difficulty": 3901316397743,
  "gasLimit": {
    "_hex": "0x2fefd8"
  },
  "gasUsed": {
    "_hex": "0xa410"
  },
  "miner": "0xee5379D0c1ca47327368027455074C26D9952628",
  "extraData": "0x476574682f76312e302e312d38326566323666362f6c696e75782f676f312e34",
  "transactions": [
    {
      "hash": "0xb7e48818b51a201637b82df637da7278aef62fc84c831a72988776a8b5edf95d",
      "blockHash": "0xada9bf172c07a132a3ab5fe320003ba202a2bf61cf51eb6359293d3a88fbb1e0",
      "blockNumber": 102084,
      "transactionIndex": 0,
      "confirmations": null,
      "from": "0x0dd48f729D5084545452A08F5E5AB412d7c2888a",
      "gasPrice": {
        "_hex": "0xd7d40ace3"
      },
      "gasLimit": {
        "_hex": "0x15f90"
      },
      "to": "0x2533B90f7afF15196EaA7e4719E057c85dEF3A47",
      "value": {
        "_hex": "0x2b5e3af16b1880000"
      },
      "nonce": 1,
      "data": "0x",
      "r": "0x68cf65003486e257fa562eebb453207c6753df5e54ff7a8ad27bb3cf0c41d03d",
      "s": "0x1111b7d8898e9c070c0330519a1df0c6a13df032ce77322dedee234159d9878d",
      "v": 28,
      "creates": null,
      "raw": "0xf86e01850d7d40ace383015f90942533b90f7aff15196eaa7e4719e057c85def3a478902b5e3af16b1880000801ca068cf65003486e257fa562eebb453207c6753df5e54ff7a8ad27bb3cf0c41d03da01111b7d8898e9c070c0330519a1df0c6a13df032ce77322dedee234159d9878d",
      "networkId": 0,
      "chainId": 0
    },
    {
      "hash": "0x132aee2ba11557975bbb2e4981fcbbbb4e27819474ff4f95805cc86566e9a747",
      "blockHash": "0xada9bf172c07a132a3ab5fe320003ba202a2bf61cf51eb6359293d3a88fbb1e0",
      "blockNumber": 102084,
      "transactionIndex": 1,
      "confirmations": null,
      "from": "0x6724EFf089f9dD79c381137DF68678bD574B37e0",
      "gasPrice": {
        "_hex": "0xcf59550bf"
      },
      "gasLimit": {
        "_hex": "0x5208"
      },
      "to": "0x32Be343B94f860124dC4fEe278FDCBD38C102D88",
      "value": {
        "_hex": "0x8a9f695dc5a75000"
      },
      "nonce": 3,
      "data": "0x",
      "r": "0xb680aaf58682b025af23cff755ed1fc5d74fcb2d4882c0b3c56b7de4a1e65daa",
      "s": "0x4e280355a7f3525731e92cb6d326db900f9b596a9377da63671c80d5810c2d00",
      "v": 27,
      "creates": null,
      "raw": "0xf86c03850cf59550bf8252089432be343b94f860124dc4fee278fdcbd38c102d88888a9f695dc5a75000801ba0b680aaf58682b025af23cff755ed1fc5d74fcb2d4882c0b3c56b7de4a1e65daaa04e280355a7f3525731e92cb6d326db900f9b596a9377da63671c80d5810c2d00",
      "networkId": 0,
      "chainId": 0
    }
  ]
}