{
  "hash": "0x005ff3459b70248ed42bb0f0849ab727a6492d5b26e44f1b703a177abaf373a1",
  "parentHash": "0x4e3c888f7187f47431db27875a1a66e034dd36e71d63193e116b452cbd70c355",
  "number": 97532,
  "timestamp": 1439757564,
  "nonce": "0x57887a356a548ff8",
  "difficulty": 3831674775619,
  "gasLimit": {
    "_hex": "0x2fefd8"
  },
  "gasUsed": {
    "_hex": "0x5208"
  },
  "miner": "0x900deD2eC098c430caD5347E6F3322932D7BB3a9",
  "extraData": "0x476574682f76312e302e312f77696e646f77732f676f312e342e32",
  "transactions": [
    {
      "hash": "0xb4ba29879e06edf39acad56c00805431dbe314457812fa721b4207dd9a37d0bd",
      "blockHash": "0x005ff3459b70248ed42bb0f0849ab727a6492d5b26e44f1b703a177abaf373a1",
      "blockNumber": 97532,
      "transactionIndex": 0,
      "confirmations": null,
      "from": "0xE9A2B299B9D280cDa89F56B470c8f479663864EF",
      "gasPrice": {
        "_hex": "0xcd724a467"
      },
      "gasLimit": {
        "_hex": "0x15f90"
      },
      "to": "0x26F75Ed6102b3ef0Ff53f56155b66053b7E31f52",
      "value": {
        "_hex": "0x4db732547630000"
      },
      "nonce": 1,
      "data": "0x",
      "r": "0xa009b551e35f8ff2c07c2872621d4fd0b05cd5238150193c8daad5c3683bf978",
      "s": "0x2d5d4f5363c694cf1f52566ce9834dff39fd9b0552213fff7154ac2ba3e858c2",
      "v": 28,
      "creates": null,
      "raw": "0xf86d01850cd724a46783015f909426f75ed6102b3ef0ff53f56155b66053b7e31f528804db732547630000801ca0a009b551e35f8ff2c07c2872621d4fd0b05cd5238150193c8daad5c3683bf978a02d5d4f5363c694cf1f52566ce9834dff39fd9b0552213fff7154ac2ba3e858c2",
      "networkId": 0,
      "chainId": 0
    }
  ]
}