{
  "hash": "0xddf7a332e9aca767da5938b8d29afd61181b723fd3787c54bb13fd28c7bff7bf",
  "parentHash": "0x798863e0541de4996281d79a89ac88511c195b175eb4f2e49a2c3a1a4bd7ab4b",
  "number": 122130,
  "timestamp": 1440188641,
  "nonce": "0x2fd4a0178579b2f9",
  "difficulty": 4475297423788,
  "gasLimit": {
    "_hex": "0x2fefd8"
  },
  "gasUsed": {
    "_hex": "0x9e774"
  },
  "miner": "0x52bc44d5378309EE2abF1539BF71dE1b7d7bE3b5",
  "extraData": "0xd783010002844765746887676f312e342e32856c696e7578",
  "transactions": [
    {
      "hash": "0x87c3f6224e7f3a19d02e5e474427e009e84856804cc7dae29f053242c6019008",
      "blockHash": "0xddf7a332e9aca767da5938b8d29afd61181b723fd3787c54bb13fd28c7bff7bf",
      "blockNumber": 122130,
      "transactionIndex": 0,
      "confirmations": null,
      "from": "0xb735BF53Abc79525A4f585A004A620d08cc66B27",
      "gasPrice": {
        "_hex": "0xba43b7400"
      },
      "gasLimit": {
        "_hex": "0x2fefd8"
      },
      "to": null,
      "value": {
        "_hex": "0x0"
      },
      "nonce": 7,
      "data": "0x60606040526108b6806100136000396000f300606060405236156100b6576000357c01000000000000000000000000000000000000000000000000000000009004806314f2979f1461029957806328d3ad3f146102f4578063358d5dc21461031b57806346a2679a146103485780636572ae131461036f57806367af1c81146103b25780638089d001146103d357806386bb7121146103fa57806387bb7ae01461041b57806393dafba21461043c578063ce5566c514610463578063df2f0a4a1461047c576100b6565b6102975b600060006000600060006100cc6104cd565b945067016345785d8a000034063403935060008414156100eb57610290565b34841015610129573373ffffffffffffffffffffffffffffffffffffffff166000853403604051809050600060405180830381858888f19350505050505b67016345785d8a000084049250600060005060008681526020019081526020016000206000506000016000505491508260006000506000878152602001908152602001600020600050600001600050540160006000506000878152602001908152602001600020600050600001600050818154818355818115116101df578183600052602060002091820191016101de91906101c0565b808211156101da57600081815060009055506001016101c0565b5090565b5b50505050600090505b828160ff1610156102635733600060005060008781526020019081526020016000206000506000016000508260ff168401815481101561000257906000526020600020900160006101000a81548173ffffffffffffffffffffffffffffffffffffffff021916908302179055505b80806001019150506101e8565b83600060005060008781526020019081526020016000206000506001016000828282505401925050819055505b5050505050565b005b6102aa6004803590602001506107da565b60405180806020018281038252838181518152602001915080519060200190602002808383829060006004602084601f0104600302600f01f1509050019250505060405180910390f35b610305600480359060200150610888565b6040518082815260200191505060405180910390f35b6103326004803590602001803590602001506104de565b6040518082815260200191505060405180910390f35b6103596004803590602001506105f9565b6040518082815260200191505060405180910390f35b61038660048035906020018035906020015061052b565b604051808273ffffffffffffffffffffffffffffffffffffffff16815260200191505060405180910390f35b6103bd6004506104cd565b6040518082815260200191505060405180910390f35b6103e46004803590602001506107c6565b6040518082815260200191505060405180910390f35b6104056004506104a9565b6040518082815260200191505060405180910390f35b6104266004506104b8565b6040518082815260200191505060405180910390f35b61044d600480359060200150610672565b6040518082815260200191505060405180910390f35b61047a6004803590602001803590602001506106aa565b005b6104936004803590602001803590602001506105e0565b6040518082815260200191505060405180910390f35b6000611a9090506104b5565b90565b600067016345785d8a000090506104ca565b90565b6000611a90430490506104db565b90565b600060006000506000848152602001908152602001600020600050600201600050600083815260200190815260200160002060009054906101000a900460ff169050610525565b92915050565b600060006000600061053d86866105e0565b92504383111561054c576105d7565b610555836107c6565b91506000600050600087815260200190815260200160002060005060000160005054820690506000600050600087815260200190815260200160002060005060000160005081815481101561000257906000526020600020900160009054906101000a900473ffffffffffffffffffffffffffffffffffffffff1693506105d7565b50505092915050565b600081611a9060018501020190506105f3565b92915050565b60006000674563918244f4000060006000506000858152602001908152602001600020600050600101600050540490506000674563918244f4000060006000506000868152602001908152602001600020600050600101600050540611156106645780806001019150505b80915061066c565b50919050565b600061067d826105f9565b60006000506000848152602001908152602001600020600050600101600050540490506106a5565b919050565b60006000600060006106bb866105f9565b935083851015156106cb576107be565b6106d586866105e0565b9250438311156106e4576107be565b60006000506000878152602001908152602001600020600050600201600050600086815260200190815260200160002060009054906101000a900460ff161561072c576107be565b610736868661052b565b915061074186610672565b90508173ffffffffffffffffffffffffffffffffffffffff16600082604051809050600060405180830381858888f1935050505050600160006000506000888152602001908152602001600020600050600201600050600087815260200190815260200160002060006101000a81548160ff021916908302179055505b505050505050565b600081406001900490506107d5565b919050565b60206040519081016040528060008152602001506000600050600083815260200190815260200160002060005060000160005080548060200260200160405190810160405280929190818152602001828054801561087757602002820191906000526020600020905b8160009054906101000a900473ffffffffffffffffffffffffffffffffffffffff1681526020019060010190808311610843575b50505050509050610883565b919050565b6000600060005060008381526020019081526020016000206000506001016000505490506108b1565b91905056",
      "r": "0xf6ceecd60b244bc29964a32bebc08f84c1dcda5dd1a5480146eeffad1dd14c0c",
      "s": "0x087d6d6864dd756799fed45f608cdcbb603f8422d6ed47d56d6c3b5cd1236191",
      "v": 27,
      "creates": "0xDf415bb7AE2363ecbb6A595F07cBc2Fc0fD417D3",
      "raw": "0xf9091c07850ba43b7400832fefd88080b908c960606040526108b6806100136000396000f300606060405236156100b6576000357c01000000000000000000000000000000000000000000000000000000009004806314f2979f1461029957806328d3ad3f146102f4578063358d5dc21461031b57806346a2679a146103485780636572ae131461036f57806367af1c81146103b25780638089d001146103d357806386bb7121146103fa57806387bb7ae01461041b57806393dafba21461043c578063ce5566c514610463578063df2f0a4a1461047c576100b6565b6102975b600060006000600060006100cc6104cd565b945067016345785d8a000034063403935060008414156100eb57610290565b34841015610129573373ffffffffffffffffffffffffffffffffffffffff166000853403604051809050600060405180830381858888f19350505050505b67016345785d8a000084049250600060005060008681526020019081526020016000206000506000016000505491508260006000506000878152602001908152602001600020600050600001600050540160006000506000878152602001908152602001600020600050600001600050818154818355818115116101df578183600052602060002091820191016101de91906101c0565b808211156101da57600081815060009055506001016101c0565b5090565b5b50505050600090505b828160ff1610156102635733600060005060008781526020019081526020016000206000506000016000508260ff168401815481101561000257906000526020600020900160006101000a81548173ffffffffffffffffffffffffffffffffffffffff021916908302179055505b80806001019150506101e8565b83600060005060008781526020019081526020016000206000506001016000828282505401925050819055505b5050505050565b005b6102aa6004803590602001506107da565b60405180806020018281038252838181518152602001915080519060200190602002808383829060006004602084601f0104600302600f01f1509050019250505060405180910390f35b610305600480359060200150610888565b6040518082815260200191505060405180910390f35b6103326004803590602001803590602001506104de565b6040518082815260200191505060405180910390f35b6103596004803590602001506105f9565b6040518082815260200191505060405180910390f35b61038660048035906020018035906020015061052b565b604051808273ffffffffffffffffffffffffffffffffffffffff16815260200191505060405180910390f35b6103bd6004506104cd565b6040518082815260200191505060405180910390f35b6103e46004803590602001506107c6565b6040518082815260200191505060405180910390f35b6104056004506104a9565b6040518082815260200191505060405180910390f35b6104266004506104b8565b6040518082815260200191505060405180910390f35b61044d600480359060200150610672565b6040518082815260200191505060405180910390f35b61047a6004803590602001803590602001506106aa565b005b6104936004803590602001803590602001506105e0565b6040518082815260200191505060405180910390f35b6000611a9090506104b5565b90565b600067016345785d8a000090506104ca565b90565b6000611a90430490506104db565b90565b600060006000506000848152602001908152602001600020600050600201600050600083815260200190815260200160002060009054906101000a900460ff169050610525565b92915050565b600060006000600061053d86866105e0565b92504383111561054c576105d7565b610555836107c6565b91506000600050600087815260200190815260200160002060005060000160005054820690506000600050600087815260200190815260200160002060005060000160005081815481101561000257906000526020600020900160009054906101000a900473ffffffffffffffffffffffffffffffffffffffff1693506105d7565b50505092915050565b600081611a9060018501020190506105f3565b92915050565b60006000674563918244f4000060006000506000858152602001908152602001600020600050600101600050540490506000674563918244f4000060006000506000868152602001908152602001600020600050600101600050540611156106645780806001019150505b80915061066c565b50919050565b600061067d826105f9565b60006000506000848152602001908152602001600020600050600101600050540490506106a5565b919050565b60006000600060006106bb866105f9565b935083851015156106cb576107be565b6106d586866105e0565b9250438311156106e4576107be565b60006000506000878152602001908152602001600020600050600201600050600086815260200190815260200160002060009054906101000a900460ff161561072c576107be565b610736868661052b565b915061074186610672565b90508173ffffffffffffffffffffffffffffffffffffffff16600082604051809050600060405180830381858888f1935050505050600160006000506000888152602001908152602001600020600050600201600050600087815260200190815260200160002060006101000a81548160ff021916908302179055505b505050505050565b600081406001900490506107d5565b919050565b60206040519081016040528060008152602001506000600050600083815260200190815260200160002060005060000160005080548060200260200160405190810160405280929190818152602001828054801561087757602002820191906000526020600020905b8160009054906101000a900473ffffffffffffffffffffffffffffffffffffffff1681526020019060010190808311610843575b50505050509050610883565b919050565b6000600060005060008381526020019081526020016000206000506001016000505490506108b1565b919050561ba0f6ceecd60b244bc29964a32bebc08f84c1dcda5dd1a5480146eeffad1dd14c0ca0087d6d6864dd756799fed45f608cdcbb603f8422d6ed47d56d6c3b5cd1236191",
      "networkId": 0,
      "chainId": 0
    },
    {
      "hash": "0x5e085a2525158e27121adf54d99bb927071cfdadb95d7ab645d5429f44555e47",
      "blockHash": "0xddf7a332e9aca767da5938b8d29afd61181b723fd3787c54bb13fd28c7bff7bf",
      "blockNumber": 122130,
      "transactionIndex": 1,
      "confirmations": null,
      "from": "0x644e5cB4F43432ba0E15B74fc638033Bcb066405",
      "gasPrice": {
        "_hex": "0xba43b7400"
      },
      "gasLimit": {
        "_hex": "0x55f0"
      },
      "to": "0x3175a28CF6105466923f11bFFabD279F162aa2f8",
      "value": {
        "_hex": "0x6a94d74f430000"
      },
      "nonce": 4,
      "data": "0x",
      "r": "0x5cdd4e0d9773e8049da091fb2e3850f94f07a6ba154f26c9d873f4cb428f7a5b",
      "s": "0x7257b00f35de8f051d6370667216698dfaf6fa067ca75cfb35a2d258acb05629",
      "v": 28,
      "creates": null,
      "raw": "0xf86b04850ba43b74008255f0943175a28cf6105466923f11bffabd279f162aa2f8876a94d74f430000801ca05cdd4e0d9773e8049da091fb2e3850f94f07a6ba154f26c9d873f4cb428f7a5ba07257b00f35de8f051d6370667216698dfaf6fa067ca75cfb35a2d258acb05629",
      "networkId": 0,
      "chainId": 0
    },
    {
      "hash": "0xda687284594cbcfac121b32143803d6881d56201da0a44bdf01e58de658726d7",
      "blockHash": "0xddf7a332e9aca767da5938b8d29afd61181b723fd3787c54bb13fd28c7bff7bf",
      "blockNumber": 122130,
      "transactionIndex": 2,
      "confirmations": null,
      "from": "0xd10E6C4B44Ee5557dF0f11239Ca4BE5025791E8E",
      "gasPrice": {
        "_hex": "0xba43b7400"
      },
      "gasLimit": {
        "_hex": "0x7a120"
      },
      "to": "0xBBDa93a81B882774e1c9b5e3F933Fa35DaC8bc88",
      "value": {
        "_hex": "0x16b99192fbb3c0000"
      },
      "nonce": 3,
      "data": "0x",
      "r": "0x8e981ed8905d764d223bbb3fd8a981dc808203fda62f96b54f3bbd9783756393",
      "s": "0x264ef6f523d2d277718f0bae463c7e7607576b2c4c2460cfaee5e12014f75c1b",
      "v": 28,
      "creates": null,
      "raw": "0xf86e03850ba43b74008307a12094bbda93a81b882774e1c9b5e3f933fa35dac8bc8889016b99192fbb3c0000801ca08e981ed8905d764d223bbb3fd8a981dc808203fda62f96b54f3bbd9783756393a0264ef6f523d2d277718f0bae463c7e7607576b2c4c2460cfaee5e12014f75c1b",
      "networkId": 0,
      "chainId": 0
    }
  ]
}