{
  "hash": "0xc9fb7082b0792057c6db0026bc0db1fe9f7033f855bfd61c8225a1660111075b",
  "parentHash": "0x4293d017830b6a8c28bd27b1cce361bf5976d639150078b142f3aae84d9ba1c1",
  "number": 52198,
  "timestamp": 1439017970,
  "nonce": "0xd67d3e4032fe1ba3",
  "difficulty": 1553488463404,
  "gasLimit": {
    "_hex": "0x111c41"
  },
  "gasUsed": {
    "_hex": "0xa410"
  },
  "miner": "0xf927a40C8B7F6E07c5af7FA2155B4864a4112B13",
  "extraData": "0x476574682f76312e302e312f6c696e75782f676f312e342e32",
  "transactions": [
    {
      "hash": "0x8ca08b174077f01cbb9c27aee365eccfaf1e97f28f7c9d01cd89afa4c07d0fc7",
      "blockHash": "0xc9fb7082b0792057c6db0026bc0db1fe9f7033f855bfd61c8225a1660111075b",
      "blockNumber": 52198,
      "transactionIndex": 0,
      "confirmations": null,
      "from": "0x7836f7eF6Bc7Bd0fF3acAf449C84dD6b1E2c939F",
      "gasPrice": {
        "_hex": "0xe8d4a51000"
      },
      "gasLimit": {
        "_hex": "0x5208"
      },
      "to": "0x3F0b5004f6F2620B05A43B825e4Bd6936693639b",
      "value": {
        "_hex": "0xaa540260f875580000"
      },
      "nonce": 1,
      "data": "0x",
      "r": "0x4aa6a89401e9106b24bda5b6964b207e1ec034b1b51002789bf07ac69a70c2f6",
      "s": "0x59bb11159ce70b971423bd29cf8f2a29e0599dc385a2bc5370f927bcd7b240ea",
      "v": 27,
      "creates": null,
      "raw": "0xf86d0185e8d4a51000825208943f0b5004f6f2620b05a43b825e4bd6936693639b89aa540260f875580000801ba04aa6a89401e9106b24bda5b6964b207e1ec034b1b51002789bf07ac69a70c2f6a059bb11159ce70b971423bd29cf8f2a29e0599dc385a2bc5370f927bcd7b240ea",
      "networkId": 0,
      "chainId": 0
    },
    {
      "hash": "0x0ce260c659fabd9a76b3129dedd1d747f486abf4f0c32cd6adbd116fabe3d6b1",
      "blockHash": "0xc9fb7082b0792057c6db0026bc0db1fe9f7033f855bfd61c8225a1660111075b",
      "blockNumber": 52198,
      "transactionIndex": 1,
      "confirmations": null,
      "from": "0x9aB9F7a4B85412bfbe2f4F63b1C98808851C4F32",
      "gasPrice": {
        "_hex": "0xd06df67c3"
      },
      "gasLimit": {
        "_hex": "0x15f90"
      },
      "to": "0xfBC1aB9a735012CF8Aa4f8738c5811CDbF39a0C5",
      "value": {
        "_hex": "0x1"
      },
      "nonce": 0,
      "data": "0x",
      "r": "0x87d8376dc0651e151f2fac97ef62c3ef72d9a9f1888374e4bfdf974eb912fe2f",
      "s": "0x1e12eba5edef5ff7cc7d73620bf89bba9322ad4aea41347198b68d737179a035",
      "v": 28,
      "creates": null,
      "raw": "0xf86580850d06df67c383015f9094fbc1ab9a735012cf8aa4f8738c5811cdbf39a0c501801ca087d8376dc0651e151f2fac97ef62c3ef72d9a9f1888374e4bfdf974eb912fe2fa01e12eba5edef5ff7cc7d73620bf89bba9322ad4aea41347198b68d737179a035",
      "networkId": 0,
      "chainId": 0
    }
  ]
}