{
  "hash": "0x6961798b423eef1f4ab86073eaaf52bf67db1e896cb729719f60c5cf552a05c5",
  "parentHash": "0xe040f75988924da121481398be72f78503921283588968f171a2a02025f40a51",
  "number": 121731,
  "timestamp": 1440181655,
  "nonce": "0x7df0b50df4f5cff7",
  "difficulty": 4486450182777,
  "gasLimit": {
    "_hex": "0x2fefd8"
  },
  "gasUsed": {
    "_hex": "0x5208"
  },
  "miner": "0xe6A7a1d47ff21B6321162AEA7C6CB457D5476Bca",
  "extraData": "0xd783010002844765746887676f312e342e32856c696e7578",
  "transactions": [
    {
      "hash": "0xb74abe5063805a8d3d941e76f484baef4f280f9d6b5d66212382600a959009aa",
      "blockHash": "0x6961798b423eef1f4ab86073eaaf52bf67db1e896cb729719f60c5cf552a05c5",
      "blockNumber": 121731,
      "transactionIndex": 0,
      "confirmations": null,
      "from": "0xD131c1F369abE12721E4EEc92A1e16f03458B542",
      "gasPrice": {
        "_hex": "0xba43b7400"
      },
      "gasLimit": {
        "_hex": "0x15f90"
      },
      "to": "0x4B5C8DDb3Ba75912c33F9B2e3300655a2FBf44aC",
      "value": {
        "_hex": "0x6f05b59d3b200000"
      },
      "nonce": 3,
      "data": "0x",
      "r": "0xba4a304b4e5ec7b249244d9fa3a85e5177bbeb2c47634d2513435fdaf146ec04",
      "s": "0x6ca3f41d67bbf383d960c20456d1f19c5890f48162ba1ed7379a7d851d044a91",
      "v": 28,
      "creates": null,
      "raw": "0xf86d03850ba43b740083015f90944b5c8ddb3ba75912c33f9b2e3300655a2fbf44ac886f05b59d3b200000801ca0ba4a304b4e5ec7b249244d9fa3a85e5177bbeb2c47634d2513435fdaf146ec04a06ca3f41d67bbf383d960c20456d1f19c5890f48162ba1ed7379a7d851d044a91",
      "networkId": 0,
      "chainId": 0
    }
  ]
}