{
  "hash": "0x07d0c2487be198c38b5c29de788bc4b053ae1dd9487c755a8a5125da0f276b73",
  "parentHash": "0x89120d0f6b5e527000d83e7ce82c853611344204cba9426a844e73c23a622af2",
  "number": 74554,
  "timestamp": 1439387996,
  "nonce": "0xe27a0d7ff213c5e6",
  "difficulty": 2215016568658,
  "gasLimit": {
    "_hex": "0x2fefd8"
  },
  "gasUsed": {
    "_hex": "0x1dd1f"
  },
  "miner": "0x02dE7d35a60bf6A216411476040ec648668769D7",
  "extraData": "0x476574682f76312e302e312f77696e646f77732f676f312e342e32",
  "transactions": [
    {
      "hash": "0xdb57068e4c46073aaa6ee2e5bdf66043687339b99bdfbd5062763e9ead914585",
      "blockHash": "0x07d0c2487be198c38b5c29de788bc4b053ae1dd9487c755a8a5125da0f276b73",
      "blockNumber": 74554,
      "transactionIndex": 0,
      "confirmations": null,
      "from": "0x7c56d94ebECcb769524379C450873519a9d805FF",
      "gasPrice": {
        "_hex": "0xba43b7400"
      },
      "gasLimit": {
        "_hex": "0x1dd61"
      },
      "to": "0xde0B295669a9FD93d5F28D9Ec85E40f4cb697BAe",
      "value": {
        "_hex": "0x0"
      },
      "nonce": 5,
      "data": "0xf00d4b5d0000000000000000000000007c56d94ebeccb769524379c450873519a9d805ff0000000000000000000000000037a6b811ffeb6e072da21179d11b1406371c63",
      "r": "0x54812193ef10676e4e0a0b1cf11c270f3d1d12dfe2ebff5ed3d0f975c28008a3",
      "s": "0x0276ca62294471ca88b40eea84c25f0539c715b606e02a55b3a7e686a49a4037",
      "v": 28,
      "creates": null,
      "raw": "0xf8aa05850ba43b74008301dd6194de0b295669a9fd93d5f28d9ec85e40f4cb697bae80b844f00d4b5d0000000000000000000000007c56d94ebeccb769524379c450873519a9d805ff0000000000000000000000000037a6b811ffeb6e072da21179d11b1406371c631ca054812193ef10676e4e0a0b1cf11c270f3d1d12dfe2ebff5ed3d0f975c28008a3a00276ca62294471ca88b40eea84c25f0539c715b606e02a55b3a7e686a49a4037",
      "networkId": 0,
      "chainId": 0
    }
  ]
}