{
  "hash": "0x82aff7d42798cd65131d4cb3cc6c43f3576244843ee5a8d11cf2a07a8375d435",
  "parentHash": "0x5074adde52e0275e6396114ed6751252003edf2d4a368106d4fc61c482cd251e",
  "number": 47145,
  "timestamp": 1438934910,
  "nonce": "0x7abd1b591e978cc7",
  "difficulty": 1459533847242,
  "gasLimit": {
    "_hex": "0x9be5"
  },
  "gasUsed": {
    "_hex": "0x5208"
  },
  "miner": "0x01d9DA08cc6Fb97c0DE1B6F4C28910A0859Ed1A1",
  "extraData": "0x476574682f76312e302e312f6c696e75782f676f312e342e32",
  "transactions": [
    {
      "hash": "0xa3d94727e8df80f8eaa61fc35a75b13570d7705a0c22ea843732d74c1c3ca1d8",
      "blockHash": "0x82aff7d42798cd65131d4cb3cc6c43f3576244843ee5a8d11cf2a07a8375d435",
      "blockNumber": 47145,
      "transactionIndex": 0,
      "confirmations": null,
      "from": "0xe6A7a1d47ff21B6321162AEA7C6CB457D5476Bca",
      "gasPrice": {
        "_hex": "0xd679299b9"
      },
      "gasLimit": {
        "_hex": "0x5208"
      },
      "to": "0x8526367Db2aC0cE8C2b7081da93B188BA7fe067A",
      "value": {
        "_hex": "0x39d8400554538008"
      },
      "nonce": 54,
      "data": "0x",
      "r": "0x29e72498502b3b1d432e88ee1a76dfb45a25ce227c05e481da66a86dd28e1b89",
      "s": "0x68df80d2063265f950a4f8f0194a1777fc452f739709286f490022710a024cdd",
      "v": 28,
      "creates": null,
      "raw": "0xf86c36850d679299b9825208948526367db2ac0ce8c2b7081da93b188ba7fe067a8839d8400554538008801ca029e72498502b3b1d432e88ee1a76dfb45a25ce227c05e481da66a86dd28e1b89a068df80d2063265f950a4f8f0194a1777fc452f739709286f490022710a024cdd",
      "networkId": 0,
      "chainId": 0
    }
  ]
}