{
  "hash": "0x840f217c43cc8a21d7328197c9ebb29bd6b590431306e063b2800988ca9fca84",
  "parentHash": "0x290d9a01361cadcf63df4d09317343f8fff10e6a30448839569bfdd6413f63c7",
  "number": 121711,
  "timestamp": 1440181299,
  "nonce": "0xfc4691ddd2051959",
  "difficulty": 4490844329130,
  "gasLimit": {
    "_hex": "0x2fefd8"
  },
  "gasUsed": {
    "_hex": "0x19a28"
  },
  "miner": "0x52bc44d5378309EE2abF1539BF71dE1b7d7bE3b5",
  "extraData": "0xd783010002844765746887676f312e342e32856c696e7578",
  "transactions": [
    {
      "hash": "0x57badd425db31f93eb123d7697184364b4ea8d57ea060e8ecd77f849498a26ba",
      "blockHash": "0x840f217c43cc8a21d7328197c9ebb29bd6b590431306e063b2800988ca9fca84",
      "blockNumber": 121711,
      "transactionIndex": 0,
      "confirmations": null,
      "from": "0xEFAa23397C85dF68fF1708b489856B006B30EEd2",
      "gasPrice": {
        "_hex": "0xd5cd5923e"
      },
      "gasLimit": {
        "_hex": "0x5208"
      },
      "to": "0x32Be343B94f860124dC4fEe278FDCBD38C102D88",
      "value": {
        "_hex": "0x21fcea5318aec800"
      },
      "nonce": 3,
      "data": "0x",
      "r": "0x5b881676f75e47c2d4b6ade384b17b2df3b9c9e06110917366dcebb3043e8527",
      "s": "0x0134772b44c4e1f559bf1490b33a54afefefff59c5153f6f4109288c87ed6975",
      "v": 27,
      "creates": null,
      "raw": "0xf86c03850d5cd5923e8252089432be343b94f860124dc4fee278fdcbd38c102d888821fcea5318aec800801ba05b881676f75e47c2d4b6ade384b17b2df3b9c9e06110917366dcebb3043e8527a00134772b44c4e1f559bf1490b33a54afefefff59c5153f6f4109288c87ed6975",
      "networkId": 0,
      "chainId": 0
    },
    {
      "hash": "0x2f1f432a8adda0af6f31406963d77f635778d66b95e5129f075ca6318871c3f0",
      "blockHash": "0x840f217c43cc8a21d7328197c9ebb29bd6b590431306e063b2800988ca9fca84",
      "blockNumber": 121711,
      "transactionIndex": 1,
      "confirmations": null,
      "from": "0x79f01183E6e364098Db23ba853aeF9AF30e13733",
      "gasPrice": {
        "_hex": "0xd5cd5923e"
      },
      "gasLimit": {
        "_hex": "0x5208"
      },
      "to": "0x32Be343B94f860124dC4fEe278FDCBD38C102D88",
      "value": {
        "_hex": "0x274a75ba9631f000"
      },
      "nonce": 2,
      "data": "0x",
      "r": "0x070b8729d7146c618b8ee458e06eac515b9d4513b4230195decbbc4673cda021",
      "s": "0x6f10dea0b5a1723692b79a2d99052e3e8f0296921585654bf141b6500a3a8e4c",
      "v": 27,
      "creates": null,
      "raw": "0xf86c02850d5cd5923e8252089432be343b94f860124dc4fee278fdcbd38c102d8888274a75ba9631f000801ba0070b8729d7146c618b8ee458e06eac515b9d4513b4230195decbbc4673cda021a06f10dea0b5a1723692b79a2d99052e3e8f0296921585654bf141b6500a3a8e4c",
      "networkId": 0,
      "chainId": 0
    },
    {
      "hash": "0x9297dccf78817cfaebff46e41b56d2355aae0e2d71e3532192d37c8169985cb3",
      "blockHash": "0x840f217c43cc8a21d7328197c9ebb29bd6b590431306e063b2800988ca9fca84",
      "blockNumber": 121711,
      "transactionIndex": 2,
      "confirmations": null,
      "from": "0x3A3A7cdFbBd0d889E44CE9f87515a2C989E51a49",
      "gasPrice": {
        "_hex": "0xd5cd5923e"
      },
      "gasLimit": {
        "_hex": "0x5208"
      },
      "to": "0x32Be343B94f860124dC4fEe278FDCBD38C102D88",
      "value": {
        "_hex": "0x4ccf9e4833788800"
      },
      "nonce": 3,
      "data": "0x",
      "r": "0x7486814789f08fa48e1981db6518a59ba4873809762811b5e0badb966a8e068f",
      "s": "0x6e1e20ff8af8b342385d45324686f408d23e453ef6d3682edf58c7b562317759",
      "v": 28,
      "creates": null,
      "raw": "0xf86c03850d5cd5923e8252089432be343b94f860124dc4fee278fdcbd38c102d88884ccf9e4833788800801ca07486814789f08fa48e1981db6518a59ba4873809762811b5e0badb966a8e068fa06e1e20ff8af8b342385d45324686f408d23e453ef6d3682edf58c7b562317759",
      "networkId": 0,
      "chainId": 0
    },
    {
      "hash": "0x1330329ce2224f140f8f4790bcabf6ce2f8abcec222dd6939d96b47204155598",
      "blockHash": "0x840f217c43cc8a21d7328197c9ebb29bd6b590431306e063b2800988ca9fca84",
      "blockNumber": 121711,
      "transactionIndex": 3,
      "confirmations": null,
      "from": "0x82f600f520d879ecc6101C4e8cdD6522Fdd24778",
      "gasPrice": {
        "_hex": "0xd5cd5923e"
      },
      "gasLimit": {
        "_hex": "0x5208"
      },
      "to": "0x32Be343B94f860124dC4fEe278FDCBD38C102D88",
      "value": {
        "_hex": "0x181e14ef9ff590000"
      },
      "nonce": 6,
      "data": "0x",
      "r": "0x5e61b10f8aaaaf1b9621b6390eb902adcfca8242a705049c0a3102bc682ec151",
      "s": "0x2f9f74f73ed90253e93d52195e8ea42476f617ffdc9d36d9e56bb540bd38e296",
      "v": 27,
      "creates": null,
      "raw": "0xf86d06850d5cd5923e8252089432be343b94f860124dc4fee278fdcbd38c102d88890181e14ef9ff590000801ba05e61b10f8aaaaf1b9621b6390eb902adcfca8242a705049c0a3102bc682ec151a02f9f74f73ed90253e93d52195e8ea42476f617ffdc9d36d9e56bb540bd38e296",
      "networkId": 0,
      "chainId": 0
    },
    {
      "hash": "0x10e3b4c934185fad093d8370b6d7edd4d63ca37825d8216296758e98c3437c92",
      "blockHash": "0x840f217c43cc8a21d7328197c9ebb29bd6b590431306e063b2800988ca9fca84",
      "blockNumber": 121711,
      "transactionIndex": 4,
      "confirmations": null,
      "from": "0x5A7C3A0AfEc10b657476Db4405240a762739234B",
      "gasPrice": {
        "_hex": "0xd5cd5923e"
      },
      "gasLimit": {
        "_hex": "0x5208"
      },
      "to": "0x32Be343B94f860124dC4fEe278FDCBD38C102D88",
      "value": {
        "_hex": "0x14fb179551a0ec00"
      },
      "nonce": 1,
      "data": "0x",
      "r": "0xe85eb50df4ba4fb4e8e1492676aa2347b312bc4b1d7cad848697f0ef841c0089",
      "s": "0x47e2a0012ed3ea0dffcb21030988f90b4c645ac5e425080f2237068a25968f45",
      "v": 27,
      "creates": null,
      "raw": "0xf86c01850d5cd5923e8252089432be343b94f860124dc4fee278fdcbd38c102d888814fb179551a0ec00801ba0e85eb50df4ba4fb4e8e1492676aa2347b312bc4b1d7cad848697f0ef841c0089a047e2a0012ed3ea0dffcb21030988f90b4c645ac5e425080f2237068a25968f45",
      "networkId": 0,
      "chainId": 0
    }
  ]
}