{
  "hash": "0xb40a845784dc195f42405dbd5686d12ac584cda21296c229ed5be089656d5234",
  "parentHash": "0xab00aa17f374e7127bd0350eec6146401813fbf543cfe62cce4f042a40241fc5",
  "number": 96075,
  "timestamp": 1439734477,
  "nonce": "0xb06e6a43588a84a1",
  "difficulty": 3644367048245,
  "gasLimit": {
    "_hex": "0x2fefd8"
  },
  "gasUsed": {
    "_hex": "0xf618"
  },
  "miner": "0x790b8a3cE86E707ED0eD32bF89B3269692a23CC1",
  "extraData": "0xd783010001844765746887676f312e342e32856c696e7578",
  "transactions": [
    {
      "hash": "0x7d5128000d50aee54be2ab63e3f17722b54bdfa46e501c5ae0c21a73b032d238",
      "blockHash": "0xb40a845784dc195f42405dbd5686d12ac584cda21296c229ed5be089656d5234",
      "blockNumber": 96075,
      "transactionIndex": 0,
      "confirmations": null,
      "from": "0x4D67f4F0Db45b3B5a3424B39ed8d972F710381D5",
      "gasPrice": {
        "_hex": "0xd3d55e76b"
      },
      "gasLimit": {
        "_hex": "0x5208"
      },
      "to": "0x32Be343B94f860124dC4fEe278FDCBD38C102D88",
      "value": {
        "_hex": "0x2c25ce24198dee000"
      },
      "nonce": 8,
      "data": "0x",
      "r": "0xa1702aa77777f2c9bb543acd94450f37015b7fb13593e7a9d8f879ec03264859",
      "s": "0x292cd2b9ff8ac71da52d4c0d5a13ff1c916a6737209465bcd13fdf2163f85a2f",
      "v": 27,
      "creates": null,
      "raw": "0xf86d08850d3d55e76b8252089432be343b94f860124dc4fee278fdcbd38c102d888902c25ce24198dee000801ba0a1702aa77777f2c9bb543acd94450f37015b7fb13593e7a9d8f879ec03264859a0292cd2b9ff8ac71da52d4c0d5a13ff1c916a6737209465bcd13fdf2163f85a2f",
      "networkId": 0,
      "chainId": 0
    },
    {
      "hash": "0x2db68afe671d3c090e7fad7af761d7f8ab6b4326f7fd45b1942c0e373f2ca29e",
      "blockHash": "0xb40a845784dc195f42405dbd5686d12ac584cda21296c229ed5be089656d5234",
      "blockNumber": 96075,
      "transactionIndex": 1,
      "confirmations": null,
      "from": "0xf3fB05B2E8177Ed2D80ac90DF22c2138B021d54f",
      "gasPrice": {
        "_hex": "0xd3d55e76b"
      },
      "gasLimit": {
        "_hex": "0x5208"
      },
      "to": "0x32Be343B94f860124dC4fEe278FDCBD38C102D88",
      "value": {
        "_hex": "0xddc78a344e0e800"
      },
      "nonce": 0,
      "data": "0x",
      "r": "0x95dde254c3bda88a8a6807a3b99cf634f77862381a710e9aabf7656a759e0a59",
      "s": "0x18d53115b51f5c67c9fc97c6cd8f5ceb3e4ff5d8d1078e9ea256644fdf4f8cf4",
      "v": 27,
      "creates": null,
      "raw": "0xf86c80850d3d55e76b8252089432be343b94f860124dc4fee278fdcbd38c102d88880ddc78a344e0e800801ba095dde254c3bda88a8a6807a3b99cf634f77862381a710e9aabf7656a759e0a59a018d53115b51f5c67c9fc97c6cd8f5ceb3e4ff5d8d1078e9ea256644fdf4f8cf4",
      "networkId": 0,
      "chainId": 0
    },
    {
      "hash": "0x61a49b0d5fb28331b3b1bb2e6e4a491b64399d488b4138f388b54556b61bd89f",
      "blockHash": "0xb40a845784dc195f42405dbd5686d12ac584cda21296c229ed5be089656d5234",
      "blockNumber": 96075,
      "transactionIndex": 2,
      "confirmations": null,
      "from": "0x7884D470204862a0d1A21122F41ee77430396Ee5",
      "gasPrice": {
        "_hex": "0xce65e5020"
      },
      "gasLimit": {
        "_hex": "0x15f90"
      },
      "to": "0xfdB948C0D3FC00Bbe56f48268481A3F8cc1743A2",
      "value": {
        "_hex": "0x174876e800"
      },
      "nonce": 6,
      "data": "0x",
      "r": "0x6dbfbeccba51be0efcfcf74d53a50c65cf462eff2229d6fcf26892ed1315313e",
      "s": "0x61da5942c6100b710fca23c62fd3bec69df4fab46b3e3728c094070771f22466",
      "v": 27,
      "creates": null,
      "raw": "0xf86a06850ce65e502083015f9094fdb948c0d3fc00bbe56f48268481a3f8cc1743a285174876e800801ba06dbfbeccba51be0efcfcf74d53a50c65cf462eff2229d6fcf26892ed1315313ea061da5942c6100b710fca23c62fd3bec69df4fab46b3e3728c094070771f22466",
      "networkId": 0,
      "chainId": 0
    }
  ]
}