{
  "hash": "0xc5464ef8e3fd2ffbea3e8f9acf0ef02b817e0dfb0165e807e3d2c96fe30af31c",
  "parentHash": "0x73c748672343377271e5efbd6cf3549928911a9320755be974108b53d4cc689b",
  "number": 105340,
  "timestamp": 1439885923,
  "nonce": "0x44a2d2bfd02bb408",
  "difficulty": 4354794664441,
  "gasLimit": {
    "_hex": "0x2fefd8"
  },
  "gasUsed": {
    "_hex": "0x1ec30"
  },
  "miner": "0xee5379D0c1ca47327368027455074C26D9952628",
  "extraData": "0x476574682f76312e302e312d38326566323666362f6c696e75782f676f312e34",
  "transactions": [
    {
      "hash": "0x87a4b822175b697445bf90acb3afdcd19c9dfc1b2f3a4b0e7a03a16d1f82b520",
      "blockHash": "0xc5464ef8e3fd2ffbea3e8f9acf0ef02b817e0dfb0165e807e3d2c96fe30af31c",
      "blockNumber": 105340,
      "transactionIndex": 0,
      "confirmations": null,
      "from": "0x4bA6C728e6251DC89C317f7dbCA89D4136C0baB0",
      "gasPrice": {
        "_hex": "0xdbd14ac94"
      },
      "gasLimit": {
        "_hex": "0x5208"
      },
      "to": "0x32Be343B94f860124dC4fEe278FDCBD38C102D88",
      "value": {
        "_hex": "0xa55a9a2c7b4dc000"
      },
      "nonce": 7,
      "data": "0x",
      "r": "0xcfacc551e156e8f59af895ac32ae3ec4f3369f2422cc59148a8687e5a66f795b",
      "s": "0x48afddfbdca8e8b0d8c5356d9fa68bcc003f515c92d7f388c390ea213eca5505",
      "v": 28,
      "creates": null,
      "raw": "0xf86c07850dbd14ac948252089432be343b94f860124dc4fee278fdcbd38c102d8888a55a9a2c7b4dc000801ca0cfacc551e156e8f59af895ac32ae3ec4f3369f2422cc59148a8687e5a66f795ba048afddfbdca8e8b0d8c5356d9fa68bcc003f515c92d7f388c390ea213eca5505",
      "networkId": 0,
      "chainId": 0
    },
    {
      "hash": "0xa5a637617696917d1b7ca57bd761f69922ecca12730dfd05db2ee7fa89841998",
      "blockHash": "0xc5464ef8e3fd2ffbea3e8f9acf0ef02b817e0dfb0165e807e3d2c96fe30af31c",
      "blockNumber": 105340,
      "transactionIndex": 1,
      "confirmations": null,
      "from": "0xF4bB828E9F72a642Fb5ade27728251e00aC71f66",
      "gasPrice": {
        "_hex": "0xdbd14ac94"
      },
      "gasLimit": {
        "_hex": "0x5208"
      },
      "to": "0x32Be343B94f860124dC4fEe278FDCBD38C102D88",
      "value": {
        "_hex": "0x8ce3b4ee289fb000"
      },
      "nonce": 1,
      "data": "0x",
      "r": "0x52f65b28db0f6377785d25a503a7d76aebb9cd36b3e3670dca497b6eb365c5ed",
      "s": "0x7e9f23cb937f8b38a5786ad6bfb26e60e1b17a430087b60ac61fb8a3c11dc084",
      "v": 28,
      "creates": null,
      "raw": "0xf86c01850dbd14ac948252089432be343b94f860124dc4fee278fdcbd38c102d88888ce3b4ee289fb000801ca052f65b28db0f6377785d25a503a7d76aebb9cd36b3e3670dca497b6eb365c5eda07e9f23cb937f8b38a5786ad6bfb26e60e1b17a430087b60ac61fb8a3c11dc084",
      "networkId": 0,
      "chainId": 0
    },
    {
      "hash": "0x8fbab5b1c5ac25b8478d1aa6d2b7cb4f141e7cbf4dcbb031b01360a09edd542a",
      "blockHash": "0xc5464ef8e3fd2ffbea3e8f9acf0ef02b817e0dfb0165e807e3d2c96fe30af31c",
      "blockNumber": 105340,
      "transactionIndex": 2,
      "confirmations": null,
      "from": "0xbc681E36E2BC0d9Cb397811ce7a5821da2D66059",
      "gasPrice": {
        "_hex": "0xdbd14ac94"
      },
      "gasLimit": {
        "_hex": "0x5208"
      },
      "to": "0x32Be343B94f860124dC4fEe278FDCBD38C102D88",
      "value": {
        "_hex": "0x8b1aa2da7ff82800"
      },
      "nonce": 7,
      "data": "0x",
      "r": "0x04c3e39ed1046506aca4caaefc8d91a3c533355e505f8b39fe76c7ef653859c9",
      "s": "0x33af7182e711d7214c737c8885ae832e3c32bb2449be4a68d4bd2a821b213176",
      "v": 27,
      "creates": null,
      "raw": "0xf86c07850dbd14ac948252089432be343b94f860124dc4fee278fdcbd38c102d88888b1aa2da7ff82800801ba004c3e39ed1046506aca4caaefc8d91a3c533355e505f8b39fe76c7ef653859c9a033af7182e711d7214c737c8885ae832e3c32bb2449be4a68d4bd2a821b213176",
      "networkId": 0,
      "chainId": 0
    },
    {
      "hash": "0x323ba1c6a7b900641a4e9ebd0a82051b81782d7df600e72bb160ae2131c717be",
      "blockHash": "0xc5464ef8e3fd2ffbea3e8f9acf0ef02b817e0dfb0165e807e3d2c96fe30af31c",
      "blockNumber": 105340,
      "transactionIndex": 3,
      "confirmations": null,
      "from": "0xBDda295a4aa9E3A60063548157510B47c6BE932f",
      "gasPrice": {
        "_hex": "0xdbd14ac94"
      },
      "gasLimit": {
        "_hex": "0x5208"
      },
      "to": "0x32Be343B94f860124dC4fEe278FDCBD38C102D88",
      "value": {
        "_hex": "0x3a2d2e2d3dfa0000"
      },
      "nonce": 7,
      "data": "0x",
      "r": "0x61001e7ef667bf2d136c332be7fdcfafd63fb2ad515f6a6cb5fd4ef39daa7691",
      "s": "0x1464bff4d5694985966716af6cdaba5221c1e7f9abf012e7cf108161b063169b",
      "v": 28,
      "creates": null,
      "raw": "0xf86c07850dbd14ac948252089432be343b94f860124dc4fee278fdcbd38c102d88883a2d2e2d3dfa0000801ca061001e7ef667bf2d136c332be7fdcfafd63fb2ad515f6a6cb5fd4ef39daa7691a01464bff4d5694985966716af6cdaba5221c1e7f9abf012e7cf108161b063169b",
      "networkId": 0,
      "chainId": 0
    },
    {
      "hash": "0x21ecb9ca1f0859c359a3c875a01ef18d9ea26435061607b05e683ffb1bda9f8b",
      "blockHash": "0xc5464ef8e3fd2ffbea3e8f9acf0ef02b817e0dfb0165e807e3d2c96fe30af31c",
      "blockNumber": 105340,
      "transactionIndex": 4,
      "confirmations": null,
      "from": "0xe6A7a1d47ff21B6321162AEA7C6CB457D5476Bca",
      "gasPrice": {
        "_hex": "0xd448e3d57"
      },
      "gasLimit": {
        "_hex": "0x55f0"
      },
      "to": "0xDE209fd98dEc789370402D891e7401d3947379e4",
      "value": {
        "_hex": "0xecb9c30a9c397fcc0"
      },
      "nonce": 4047,
      "data": "0x",
      "r": "0x1eef700983b4fd46698b46bd53dde7634a89e86a066aed71c96edf22c057fa68",
      "s": "0x326d2533480c34aa05395ca933d83a92791ffa7b3e52b795ef8a5777dc7458a1",
      "v": 27,
      "creates": null,
      "raw": "0xf86f820fcf850d448e3d578255f094de209fd98dec789370402d891e7401d3947379e4890ecb9c30a9c397fcc0801ba01eef700983b4fd46698b46bd53dde7634a89e86a066aed71c96edf22c057fa68a0326d2533480c34aa05395ca933d83a92791ffa7b3e52b795ef8a5777dc7458a1",
      "networkId": 0,
      "chainId": 0
    },
    {
      "hash": "0x3037cd5905441da49a1f6e7ca493f2557e6f232c331b07cde919b61455971bb6",
      "blockHash": "0xc5464ef8e3fd2ffbea3e8f9acf0ef02b817e0dfb0165e807e3d2c96fe30af31c",
      "blockNumber": 105340,
      "transactionIndex": 5,
      "confirmations": null,
      "from": "0xe6A7a1d47ff21B6321162AEA7C6CB457D5476Bca",
      "gasPrice": {
        "_hex": "0xd448e3d57"
      },
      "gasLimit": {
        "_hex": "0x55f0"
      },
      "to": "0x608f4b86321a68453f9adf6F06F7Fc3E621739ad",
      "value": {
        "_hex": "0x26b41b0a867fe53200"
      },
      "nonce": 4048,
      "data": "0x",
      "r": "0x4e670ec18c827c7e76d1ed8986135061b7f9128a2ce8ebc6a4cf45f31649536a",
      "s": "0x1da15983ca853bad6e4f8db4c80c2f1713dd34fa2ebd2d8540e144ec4344e2e0",
      "v": 28,
      "creates": null,
      "raw": "0xf86f820fd0850d448e3d578255f094608f4b86321a68453f9adf6f06f7fc3e621739ad8926b41b0a867fe53200801ca04e670ec18c827c7e76d1ed8986135061b7f9128a2ce8ebc6a4cf45f31649536aa01da15983ca853bad6e4f8db4c80c2f1713dd34fa2ebd2d8540e144ec4344e2e0",
      "networkId": 0,
      "chainId": 0
    }
  ]
}