{
  "hash": "0xe169e922bd8e89ba790fd12dc3b1c3c59c15deee5f30f9204527246add6ce05d",
  "parentHash": "0xe8e81f898c494ae4ceba51a41474247217f99a051bb731c1c784aa5da2448880",
  "number": 92199,
  "timestamp": 1439668488,
  "nonce": "0x88c0344ce7ddf327",
  "difficulty": 3468908755756,
  "gasLimit": {
    "_hex": "0x2fefd8"
  },
  "gasUsed": {
    "_hex": "0x5208"
  },
  "miner": "0xf927a40C8B7F6E07c5af7FA2155B4864a4112B13",
  "extraData": "0x",
  "transactions": [
    {
      "hash": "0x846c33ac1ddd5bed766fdc3fd6eece05dd4cccd1d975df1f9e63b4af0e1ec9d8",
      "blockHash": "0xe169e922bd8e89ba790fd12dc3b1c3c59c15deee5f30f9204527246add6ce05d",
      "blockNumber": 92199,
      "transactionIndex": 0,
      "confirmations": null,
      "from": "0x2C82c5457b3e101b0c8bc5c7e6BA098c1FfD53B6",
      "gasPrice": {
        "_hex": "0xded1e457c"
      },
      "gasLimit": {
        "_hex": "0x15f90"
      },
      "to": "0x89Ea4C778D3f3D6BE70883BB9995D41Bd4c453Ab",
      "value": {
        "_hex": "0x1bc16d674ec80000"
      },
      "nonce": 1,
      "data": "0x",
      "r": "0xaf5c1f02c05b195cb0c3dd47900fadd099e4d73bdf36a79c6d8fea7aff8f307d",
      "s": "0x223847c43fa30a7ec637b60f49c3ce6c9dd09960562eeaf58ac865b067dd401b",
      "v": 28,
      "creates": null,
      "raw": "0xf86d01850ded1e457c83015f909489ea4c778d3f3d6be70883bb9995d41bd4c453ab881bc16d674ec80000801ca0af5c1f02c05b195cb0c3dd47900fadd099e4d73bdf36a79c6d8fea7aff8f307da0223847c43fa30a7ec637b60f49c3ce6c9dd09960562eeaf58ac865b067dd401b",
      "networkId": 0,
      "chainId": 0
    }
  ]
}