{
  "hash": "0x0476827d1cb1b9f1dcbedaadc3cfa138a88773624f5415716e46b789a4e0c71d",
  "parentHash": "0x3fdce3ae7abdc15c7946240d48ac2afbc070e7355df092e3bea95d9100eea2be",
  "number": 115304,
  "timestamp": 1440054933,
  "nonce": "0x974638685e4f55de",
  "difficulty": 4553918629013,
  "gasLimit": {
    "_hex": "0x2fefd8"
  },
  "gasUsed": {
    "_hex": "0x1ec30"
  },
  "miner": "0xe6A7a1d47ff21B6321162AEA7C6CB457D5476Bca",
  "extraData": "0x476574682f76312e302e312d38326566323666362f6c696e75782f676f312e34",
  "transactions": [
    {
      "hash": "0x5359e73c9c480ed18bc6d6d619b880c3486133bc865b6bb148206ee7fb505fb3",
      "blockHash": "0x0476827d1cb1b9f1dcbedaadc3cfa138a88773624f5415716e46b789a4e0c71d",
      "blockNumber": 115304,
      "transactionIndex": 0,
      "confirmations": null,
      "from": "0xD924AAC0bCB65C13bE4044f6BeA8aAe34D7a7126",
      "gasPrice": {
        "_hex": "0xda2cd961d"
      },
      "gasLimit": {
        "_hex": "0x5208"
      },
      "to": "0x32Be343B94f860124dC4fEe278FDCBD38C102D88",
      "value": {
        "_hex": "0x588fa0178bf40800"
      },
      "nonce": 11,
      "data": "0x",
      "r": "0x8c64ea98ff438999c14e4744ba773f7b4480e29054bc5dab7bfd3956757c2979",
      "s": "0x3cdb952665bd35aaded7114e045b7ca032587918c639a173ff3b777734d8794a",
      "v": 28,
      "creates": null,
      "raw": "0xf86c0b850da2cd961d8252089432be343b94f860124dc4fee278fdcbd38c102d8888588fa0178bf40800801ca08c64ea98ff438999c14e4744ba773f7b4480e29054bc5dab7bfd3956757c2979a03cdb952665bd35aaded7114e045b7ca032587918c639a173ff3b777734d8794a",
      "networkId": 0,
      "chainId": 0
    },
    {
      "hash": "0xbaffc6abee0215be18cd2d7ea3c65f127dc76c7e7cc37b9c80d66c6df27f9612",
      "blockHash": "0x0476827d1cb1b9f1dcbedaadc3cfa138a88773624f5415716e46b789a4e0c71d",
      "blockNumber": 115304,
      "transactionIndex": 1,
      "confirmations": null,
      "from": "0xe6A7a1d47ff21B6321162AEA7C6CB457D5476Bca",
      "gasPrice": {
        "_hex": "0xd8d3243fe"
      },
      "gasLimit": {
        "_hex": "0x55f0"
      },
      "to": "0xA5fb3E4399E8F18643f969D0Ce65CC352fc252C6",
      "value": {
        "_hex": "0x2d7bb8d9b69bcdf18"
      },
      "nonce": 5471,
      "data": "0x",
      "r": "0x9ce15b07752a6c73a0563889ae0ad9af4fa9a4060c62a5559bec51096510b344",
      "s": "0x14a91bab2da71b14adb469bf28bc3c0e341ce6b7ee47578c74158082a2b582fc",
      "v": 27,
      "creates": null,
      "raw": "0xf86f82155f850d8d3243fe8255f094a5fb3e4399e8f18643f969d0ce65cc352fc252c68902d7bb8d9b69bcdf18801ba09ce15b07752a6c73a0563889ae0ad9af4fa9a4060c62a5559bec51096510b344a014a91bab2da71b14adb469bf28bc3c0e341ce6b7ee47578c74158082a2b582fc",
      "networkId": 0,
      "chainId": 0
    },
    {
      "hash": "0x5d2e22525369ad41453a771df0176620e9c820edbd857c4359df9139f2277404",
      "blockHash": "0x0476827d1cb1b9f1dcbedaadc3cfa138a88773624f5415716e46b789a4e0c71d",
      "blockNumber": 115304,
      "transactionIndex": 2,
      "confirmations": null,
      "from": "0xe6A7a1d47ff21B6321162AEA7C6CB457D5476Bca",
      "gasPrice": {
        "_hex": "0xd8d3243fe"
      },
      "gasLimit": {
        "_hex": "0x55f0"
      },
      "to": "0xBFa71Aba804c2b986D969E175aCFdAC7266CDe9C",
      "value": {
        "_hex": "0x30a1ad48f05b8cbe0"
      },
      "nonce": 5472,
      "data": "0x",
      "r": "0x82c664062bcfbb346dcf38cf2c782220cf2880bd21d593eb95b177c4cf8f77ed",
      "s": "0x70db36b019067d32f3b410b7c7b3f779826916bec2a91d0ea59eba47dadb4069",
      "v": 27,
      "creates": null,
      "raw": "0xf86f821560850d8d3243fe8255f094bfa71aba804c2b986d969e175acfdac7266cde9c89030a1ad48f05b8cbe0801ba082c664062bcfbb346dcf38cf2c782220cf2880bd21d593eb95b177c4cf8f77eda070db36b019067d32f3b410b7c7b3f779826916bec2a91d0ea59eba47dadb4069",
      "networkId": 0,
      "chainId": 0
    },
    {
      "hash": "0xd6f257be1e1787fecef85c4204eff34d8a67103fad6f05d6f7f7f4794daa10f9",
      "blockHash": "0x0476827d1cb1b9f1dcbedaadc3cfa138a88773624f5415716e46b789a4e0c71d",
      "blockNumber": 115304,
      "transactionIndex": 3,
      "confirmations": null,
      "from": "0xe6A7a1d47ff21B6321162AEA7C6CB457D5476Bca",
      "gasPrice": {
        "_hex": "0xd8d3243fe"
      },
      "gasLimit": {
        "_hex": "0x55f0"
      },
      "to": "0xeDbc07d54406D3B56bdaeADEEa788b9721f779ba",
      "value": {
        "_hex": "0x3128602a48c273f20"
      },
      "nonce": 5473,
      "data": "0x",
      "r": "0x6ec93e01d91dbe4367c11607c199d9fa4432178e2acb0b11f4f6b8e1222a8afd",
      "s": "0x3bdb0c3863d5e0a6a3af1fd5472c9ef8730fb6e3e96e062e966945bad97934bd",
      "v": 28,
      "creates": null,
      "raw": "0xf86f821561850d8d3243fe8255f094edbc07d54406d3b56bdaeadeea788b9721f779ba8903128602a48c273f20801ca06ec93e01d91dbe4367c11607c199d9fa4432178e2acb0b11f4f6b8e1222a8afda03bdb0c3863d5e0a6a3af1fd5472c9ef8730fb6e3e96e062e966945bad97934bd",
      "networkId": 0,
      "chainId": 0
    },
    {
      "hash": "0x2d1e185eca063b7db61f8581dbcfc47f09db8732e3285531a7f2d643e8e1a8fc",
      "blockHash": "0x0476827d1cb1b9f1dcbedaadc3cfa138a88773624f5415716e46b789a4e0c71d",
      "blockNumber": 115304,
      "transactionIndex": 4,
      "confirmations": null,
      "from": "0xe6A7a1d47ff21B6321162AEA7C6CB457D5476Bca",
      "gasPrice": {
        "_hex": "0xd8d3243fe"
      },
      "gasLimit": {
        "_hex": "0x55f0"
      },
      "to": "0x3b01EBd2419f6d39DB6AB4471e6382848716641F",
      "value": {
        "_hex": "0x367502d593c3c9fb0"
      },
      "nonce": 5474,
      "data": "0x",
      "r": "0x24cbe4e9aebdcfee9001caa1f6a589af7b5efb5cfa9a9c15cd52a4d72e7f75c1",
      "s": "0x017803467b5227ca98ff6c10ca7d8a8b41728916d414b4aab7803d670a8cac6d",
      "v": 27,
      "creates": null,
      "raw": "0xf86f821562850d8d3243fe8255f0943b01ebd2419f6d39db6ab4471e6382848716641f890367502d593c3c9fb0801ba024cbe4e9aebdcfee9001caa1f6a589af7b5efb5cfa9a9c15cd52a4d72e7f75c1a0017803467b5227ca98ff6c10ca7d8a8b41728916d414b4aab7803d670a8cac6d",
      "networkId": 0,
      "chainId": 0
    },
    {
      "hash": "0x89258cd3983bd75fec5ac416ec5a7e00095b6eccd733c1f59c74bd4c2f6f13b4",
      "blockHash": "0x0476827d1cb1b9f1dcbedaadc3cfa138a88773624f5415716e46b789a4e0c71d",
      "blockNumber": 115304,
      "transactionIndex": 5,
      "confirmations": null,
      "from": "0xe6A7a1d47ff21B6321162AEA7C6CB457D5476Bca",
      "gasPrice": {
        "_hex": "0xd8d3243fe"
      },
      "gasLimit": {
        "_hex": "0x55f0"
      },
      "to": "0x5b08838334DA22Dc7E25ce6a4161672F80e9074A",
      "value": {
        "_hex": "0x39a6cd2ceb6bb9330"
      },
      "nonce": 5475,
      "data": "0x",
      "r": "0x0f61ccd4f316ee3e98141c63a978de0b94b1e08a8a205106d4f5c8634e56f3aa",
      "s": "0x20f65235c08f92f5d9ca0ef4ff623c1ccf29ccc8919bab71d62001b5cdb692e7",
      "v": 28,
      "creates": null,
      "raw": "0xf86f821563850d8d3243fe8255f0945b08838334da22dc7e25ce6a4161672f80e9074a89039a6cd2ceb6bb9330801ca00f61ccd4f316ee3e98141c63a978de0b94b1e08a8a205106d4f5c8634e56f3aaa020f65235c08f92f5d9ca0ef4ff623c1ccf29ccc8919bab71d62001b5cdb692e7",
      "networkId": 0,
      "chainId": 0
    }
  ]
}