{
  "hash": "0x413e5c775c42afb935ff0e64621b61bf5071a87669dd846161557001755307e9",
  "parentHash": "0x9e83b6eb0c54fabd1fe46a0f3104e1f40adf735cfa1cf4f4be4d4113abc91b0f",
  "number": 48352,
  "timestamp": 1438955842,
  "nonce": "0x04eeac7230cbacf3",
  "difficulty": 1452924882151,
  "gasLimit": {
    "_hex": "0x15e5d"
  },
  "gasUsed": {
    "_hex": "0xa410"
  },
  "miner": "0xbb7B8287f3F0a933474a79eAe42CBCa977791171",
  "extraData": "0x476574682f4c5649562f76312e302e312f6c696e75782f676f312e342e32",
  "transactions": [
    {
      "hash": "0x640a57d3afff5520ed6ec6abd78086ea96bae3d1f64640d0353c014c79d61071",
      "blockHash": "0x413e5c775c42afb935ff0e64621b61bf5071a87669dd846161557001755307e9",
      "blockNumber": 48352,
      "transactionIndex": 0,
      "confirmations": null,
      "from": "0xFe55a0EF26316a1c76D7B8bAA6FD8dB6C0536cd8",
      "gasPrice": {
        "_hex": "0x1099744193b"
      },
      "gasLimit": {
        "_hex": "0x7530"
      },
      "to": "0x6De181Fc4C140FA31F196e5393516c49EEeBdAd3",
      "value": {
        "_hex": "0x5f68e8131ecf80000"
      },
      "nonce": 1,
      "data": "0x",
      "r": "0x450da692f305705280b198615cd164428ee8a3cc51f7a40f396f5bc295e02bf1",
      "s": "0x651e1bf25dc29c11840d2a4fe75ecffef1948cecfe663b4fb0f60c78a14d9991",
      "v": 27,
      "creates": null,
      "raw": "0xf86e018601099744193b827530946de181fc4c140fa31f196e5393516c49eeebdad38905f68e8131ecf80000801ba0450da692f305705280b198615cd164428ee8a3cc51f7a40f396f5bc295e02bf1a0651e1bf25dc29c11840d2a4fe75ecffef1948cecfe663b4fb0f60c78a14d9991",
      "networkId": 0,
      "chainId": 0
    },
    {
      "hash": "0xf8366977daaeb1d1e8062fd19b8778efca57aa12b0d708f00c04c3506c03ef53",
      "blockHash": "0x413e5c775c42afb935ff0e64621b61bf5071a87669dd846161557001755307e9",
      "blockNumber": 48352,
      "transactionIndex": 1,
      "confirmations": null,
      "from": "0x07BC2CC8eeDC01970700efC9c4Fb36735e98CD71",
      "gasPrice": {
        "_hex": "0xdf8475800"
      },
      "gasLimit": {
        "_hex": "0x5208"
      },
      "to": "0x0fFecdF99016b9C74f1088c858B0A6b71992A471",
      "value": {
        "_hex": "0x8ac7230489e80000"
      },
      "nonce": 1,
      "data": "0x",
      "r": "0xef6dc58396baed97d7a6bce21fbaf6838a2f8c4d9bd1eeab49095673d575bd92",
      "s": "0x431d50df854d8a517bb1e8f4679ebaced873c0d02b76c1e3cd12a63ae965bb93",
      "v": 28,
      "creates": null,
      "raw": "0xf86c01850df8475800825208940ffecdf99016b9c74f1088c858b0a6b71992a471888ac7230489e80000801ca0ef6dc58396baed97d7a6bce21fbaf6838a2f8c4d9bd1eeab49095673d575bd92a0431d50df854d8a517bb1e8f4679ebaced873c0d02b76c1e3cd12a63ae965bb93",
      "networkId": 0,
      "chainId": 0
    }
  ]
}