{
  "hash": "0x1f6a98b11d65cd89f693f63604b2361f725c2f9b3f1c03aaff7d96335297786b",
  "parentHash": "0x0362bb4b1d05bff0546130515380dae24d32d4c6b3c0fcd6cbc9ac1c5e0fee60",
  "number": 49655,
  "timestamp": 1438977014,
  "nonce": "0xb66a83f28f85f77b",
  "difficulty": 1482074636924,
  "gasLimit": {
    "_hex": "0x394da"
  },
  "gasUsed": {
    "_hex": "0x546c"
  },
  "miner": "0x10C3eedde6fBda160041f479fCaf26bb38316fCd",
  "extraData": "0x476574682f76312e302e312d38326566323666362f6c696e75782f676f312e34",
  "transactions": [
    {
      "hash": "0x74e95f6091e77e10e4840a1fe383d1e780248c2763f044a3fe5bfc82649b2354",
      "blockHash": "0x1f6a98b11d65cd89f693f63604b2361f725c2f9b3f1c03aaff7d96335297786b",
      "blockNumber": 49655,
      "transactionIndex": 0,
      "confirmations": null,
      "from": "0x0e123d7dA6d1e6FAC2dCADD27029240BB39052FE",
      "gasPrice": {
        "_hex": "0x110c8f7d8de"
      },
      "gasLimit": {
        "_hex": "0xc350"
      },
      "to": "0x2910543Af39abA0Cd09dBb2D50200b3E800A63D2",
      "value": {
        "_hex": "0x3627e8f712373c0000"
      },
      "nonce": 0,
      "data": "0x454e39425639345230",
      "r": "0x2ff84cabecd232be3816b4df5e0dbb83a2bee19d700b6e09dfe236b4c47435f2",
      "s": "0xef6b69a0cc3445bc6f9b454f2c2642dcfdf841507737235643f9a8c0e644b6fd",
      "v": 27,
      "creates": null,
      "raw": "0xf87780860110c8f7d8de82c350942910543af39aba0cd09dbb2d50200b3e800a63d2893627e8f712373c000089454e394256393452301ba02ff84cabecd232be3816b4df5e0dbb83a2bee19d700b6e09dfe236b4c47435f2a0ef6b69a0cc3445bc6f9b454f2c2642dcfdf841507737235643f9a8c0e644b6fd",
      "networkId": 0,
      "chainId": 0
    }
  ]
}