{
  "hash": "0x391a54deb6b62d7aca20c8fe26048ca99076cb63c99805af6d3fee7cfa67068f",
  "parentHash": "0xd7de79d36e0026859cc468b88671c76f24b7009e7d6805f1dfcc6c2af810070b",
  "number": 105333,
  "timestamp": 1439885737,
  "nonce": "0x2f669dc6d316a04d",
  "difficulty": 4365443119874,
  "gasLimit": {
    "_hex": "0x2fefd8"
  },
  "gasUsed": {
    "_hex": "0x4ce78"
  },
  "miner": "0xe64D681b0eBCa2997D5f35e72EbC7777973299D7",
  "extraData": "0x",
  "transactions": [
    {
      "hash": "0x019756cb38584fec9a88ca017bf096c1f9e7c56a9259f77176da372670ee5472",
      "blockHash": "0x391a54deb6b62d7aca20c8fe26048ca99076cb63c99805af6d3fee7cfa67068f",
      "blockNumber": 105333,
      "transactionIndex": 0,
      "confirmations": null,
      "from": "0x27A2f708f13CFE24f8e5d6E8b7D8E971D2449Ba0",
      "gasPrice": {
        "_hex": "0xd8364fc25"
      },
      "gasLimit": {
        "_hex": "0x15f90"
      },
      "to": "0x61F642543d22bAf5382908a714E675Cc0b51ea45",
      "value": {
        "_hex": "0x4563918244f40000"
      },
      "nonce": 10,
      "data": "0x",
      "r": "0xe29344dd8e1de571d64ce5f3224708e5c8aaaa468e89d3b338634bed691afdc3",
      "s": "0x0190199909067721308e2784c7f203e25a8f0116787c9e74865e9e1c247f17a4",
      "v": 27,
      "creates": null,
      "raw": "0xf86d0a850d8364fc2583015f909461f642543d22baf5382908a714e675cc0b51ea45884563918244f40000801ba0e29344dd8e1de571d64ce5f3224708e5c8aaaa468e89d3b338634bed691afdc3a00190199909067721308e2784c7f203e25a8f0116787c9e74865e9e1c247f17a4",
      "networkId": 0,
      "chainId": 0
    },
    {
      "hash": "0x472e9919314e63a5f12197044f2df245fd8e14bbd64dd99e57363c64d2cd39ef",
      "blockHash": "0x391a54deb6b62d7aca20c8fe26048ca99076cb63c99805af6d3fee7cfa67068f",
      "blockNumber": 105333,
      "transactionIndex": 1,
      "confirmations": null,
      "from": "0x27A2f708f13CFE24f8e5d6E8b7D8E971D2449Ba0",
      "gasPrice": {
        "_hex": "0xd8364fc25"
      },
      "gasLimit": {
        "_hex": "0x15f90"
      },
      "to": "0x61F642543d22bAf5382908a714E675Cc0b51ea45",
      "value": {
        "_hex": "0x4563918244f40000"
      },
      "nonce": 11,
      "data": "0x",
      "r": "0xd9f69b9f19e8c3d40ed3c51e45e04323c14a0a519327a600f53b21f0ead56b6b",
      "s": "0x3daa7ce89d7e94a50a64114a037129be6f97779046b80c60bc1d9b532399a0e9",
      "v": 28,
      "creates": null,
      "raw": "0xf86d0b850d8364fc2583015f909461f642543d22baf5382908a714e675cc0b51ea45884563918244f40000801ca0d9f69b9f19e8c3d40ed3c51e45e04323c14a0a519327a600f53b21f0ead56b6ba03daa7ce89d7e94a50a64114a037129be6f97779046b80c60bc1d9b532399a0e9",
      "networkId": 0,
      "chainId": 0
    },
    {
      "hash": "0x6a643627473dec24000fd341c349db869f2162f5e6739a424145678869ae5efa",
      "blockHash": "0x391a54deb6b62d7aca20c8fe26048ca99076cb63c99805af6d3fee7cfa67068f",
      "blockNumber": 105333,
      "transactionIndex": 2,
      "confirmations": null,
      "from": "0x27A2f708f13CFE24f8e5d6E8b7D8E971D2449Ba0",
      "gasPrice": {
        "_hex": "0xd8364fc25"
      },
      "gasLimit": {
        "_hex": "0x15f90"
      },
      "to": "0x61F642543d22bAf5382908a714E675Cc0b51ea45",
      "value": {
        "_hex": "0x4563918244f40000"
      },
      "nonce": 12,
      "data": "0x",
      "r": "0xe388204961621908bab1407e34244171ab561f98e24ccc7a89314b5e13785a66",
      "s": "0x01609fbd175fb81149b489be3025a6c483e979498ad5b72c5e03c7e53765cf1b",
      "v": 28,
      "creates": null,
      "raw": "0xf86d0c850d8364fc2583015f909461f642543d22baf5382908a714e675cc0b51ea45884563918244f40000801ca0e388204961621908bab1407e34244171ab561f98e24ccc7a89314b5e13785a66a001609fbd175fb81149b489be3025a6c483e979498ad5b72c5e03c7e53765cf1b",
      "networkId": 0,
      "chainId": 0
    },
    {
      "hash": "0x2b91c05171f9c7eb6bf9dfed9a0da46658ed76a00d8c02d83bb0dd52f2d946d3",
      "blockHash": "0x391a54deb6b62d7aca20c8fe26048ca99076cb63c99805af6d3fee7cfa67068f",
      "blockNumber": 105333,
      "transactionIndex": 3,
      "confirmations": null,
      "from": "0x833ef381A23744E510a302c665a63D41ba0E28DB",
      "gasPrice": {
        "_hex": "0xd47f84819"
      },
      "gasLimit": {
        "_hex": "0x5208"
      },
      "to": "0x32Be343B94f860124dC4fEe278FDCBD38C102D88",
      "value": {
        "_hex": "0x202184a0e4003c00"
      },
      "nonce": 3,
      "data": "0x",
      "r": "0x1497252584b19ea213f7788485c1d045ccc3e11abd9ae91f69a25471457186f4",
      "s": "0x04de59b58a90fd55473186797192d82f977648268da2e26a10d539815a517eb1",
      "v": 28,
      "creates": null,
      "raw": "0xf86c03850d47f848198252089432be343b94f860124dc4fee278fdcbd38c102d8888202184a0e4003c00801ca01497252584b19ea213f7788485c1d045ccc3e11abd9ae91f69a25471457186f4a004de59b58a90fd55473186797192d82f977648268da2e26a10d539815a517eb1",
      "networkId": 0,
      "chainId": 0
    },
    {
      "hash": "0x3bfe240ee0b97f6c641fa119476eec6cb2591c27a097bef6afe7b1e5486be8af",
      "blockHash": "0x391a54deb6b62d7aca20c8fe26048ca99076cb63c99805af6d3fee7cfa67068f",
      "blockNumber": 105333,
      "transactionIndex": 4,
      "confirmations": null,
      "from": "0x0156B1dF46A295901BdCA64D7809fd623AE50129",
      "gasPrice": {
        "_hex": "0xd47f84819"
      },
      "gasLimit": {
        "_hex": "0x5208"
      },
      "to": "0x32Be343B94f860124dC4fEe278FDCBD38C102D88",
      "value": {
        "_hex": "0x190d494385b05800"
      },
      "nonce": 3,
      "data": "0x",
      "r": "0xf61f2d5b3515285eb22f66c96b1eb7130e20eaeedf6e4920156c1a9b7a3710e8",
      "s": "0x4c04c5e2f3731abe22df577d8c68cafa60e47fd0811cb4b9c216192fcd4702ae",
      "v": 27,
      "creates": null,
      "raw": "0xf86c03850d47f848198252089432be343b94f860124dc4fee278fdcbd38c102d8888190d494385b05800801ba0f61f2d5b3515285eb22f66c96b1eb7130e20eaeedf6e4920156c1a9b7a3710e8a04c04c5e2f3731abe22df577d8c68cafa60e47fd0811cb4b9c216192fcd4702ae",
      "networkId": 0,
      "chainId": 0
    },
    {
      "hash": "0x2e67f6d4cb4616816d6cb816ffdd3def31c1e4ebf7aa926965403ee75f7bded6",
      "blockHash": "0x391a54deb6b62d7aca20c8fe26048ca99076cb63c99805af6d3fee7cfa67068f",
      "blockNumber": 105333,
      "transactionIndex": 5,
      "confirmations": null,
      "from": "0xe6A7a1d47ff21B6321162AEA7C6CB457D5476Bca",
      "gasPrice": {
        "_hex": "0xcd6ec8160"
      },
      "gasLimit": {
        "_hex": "0x55f0"
      },
      "to": "0xD72ab61a64fEAeE7b5EB3D42B5445858B95d38fd",
      "value": {
        "_hex": "0xe24fd8aa1d3ad068"
      },
      "nonce": 3917,
      "data": "0x",
      "r": "0x2e4d58201325f3b854a68266b534529edabcbd20e0abc01cecc47bcefeed6116",
      "s": "0x2109b19493a9974b137a27f578d00788a640ea188d867ca67599b446004d1402",
      "v": 27,
      "creates": null,
      "raw": "0xf86e820f4d850cd6ec81608255f094d72ab61a64feaee7b5eb3d42b5445858b95d38fd88e24fd8aa1d3ad068801ba02e4d58201325f3b854a68266b534529edabcbd20e0abc01cecc47bcefeed6116a02109b19493a9974b137a27f578d00788a640ea188d867ca67599b446004d1402",
      "networkId": 0,
      "chainId": 0
    },
    {
      "hash": "0x05cceead3b2da55ce7342e99dc12b8fa861bf795e0cf96e5c794e705704f6dd4",
      "blockHash": "0x391a54deb6b62d7aca20c8fe26048ca99076cb63c99805af6d3fee7cfa67068f",
      "blockNumber": 105333,
      "transactionIndex": 6,
      "confirmations": null,
      "from": "0xe6A7a1d47ff21B6321162AEA7C6CB457D5476Bca",
      "gasPrice": {
        "_hex": "0xcd6ec8160"
      },
      "gasLimit": {
        "_hex": "0x55f0"
      },
      "to": "0x7C197542A77e913547d2E58e8d3c6F224f6f0f98",
      "value": {
        "_hex": "0xe2a714ba1dca5140"
      },
      "nonce": 3918,
      "data": "0x",
      "r": "0x4990712a1942f7db3fc76fd8bc8aa51a07afe253759c826199196e65b9d2352b",
      "s": "0x2c8626776cda2cff2737dffa17b6ce7b03e5c3b120d4015d618b2f1de3220db3",
      "v": 28,
      "creates": null,
      "raw": "0xf86e820f4e850cd6ec81608255f0947c197542a77e913547d2e58e8d3c6f224f6f0f9888e2a714ba1dca5140801ca04990712a1942f7db3fc76fd8bc8aa51a07afe253759c826199196e65b9d2352ba02c8626776cda2cff2737dffa17b6ce7b03e5c3b120d4015d618b2f1de3220db3",
      "networkId": 0,
      "chainId": 0
    },
    {
      "hash": "0x2fd39dcb97a13158120f0f700679ccbfd361b306e52fea94c83aabf92fd81b71",
      "blockHash": "0x391a54deb6b62d7aca20c8fe26048ca99076cb63c99805af6d3fee7cfa67068f",
      "blockNumber": 105333,
      "transactionIndex": 7,
      "confirmations": null,
      "from": "0xe6A7a1d47ff21B6321162AEA7C6CB457D5476Bca",
      "gasPrice": {
        "_hex": "0xcd6ec8160"
      },
      "gasLimit": {
        "_hex": "0x55f0"
      },
      "to": "0xB1A4B41b8e75a153841c99c62d18588d45e7b406",
      "value": {
        "_hex": "0xe2b2981578ff0788"
      },
      "nonce": 3919,
      "data": "0x",
      "r": "0x51f7fcc35b1e922997a92486ce2b1518efb01af1062af129f359ce9338e8713c",
      "s": "0x7cfa8990493c2f3df4afc53ffdb0748bf96879791e397fe3401187c73f5c98a5",
      "v": 28,
      "creates": null,
      "raw": "0xf86e820f4f850cd6ec81608255f094b1a4b41b8e75a153841c99c62d18588d45e7b40688e2b2981578ff0788801ca051f7fcc35b1e922997a92486ce2b1518efb01af1062af129f359ce9338e8713ca07cfa8990493c2f3df4afc53ffdb0748bf96879791e397fe3401187c73f5c98a5",
      "networkId": 0,
      "chainId": 0
    },
    {
      "hash": "0xfe816e3125236caca85689a44fdaf89895edd080868b8a34982bc348fbf19e0b",
      "blockHash": "0x391a54deb6b62d7aca20c8fe26048ca99076cb63c99805af6d3fee7cfa67068f",
      "blockNumber": 105333,
      "transactionIndex": 8,
      "confirmations": null,
      "from": "0xe6A7a1d47ff21B6321162AEA7C6CB457D5476Bca",
      "gasPrice": {
        "_hex": "0xcd6ec8160"
      },
      "gasLimit": {
        "_hex": "0x55f0"
      },
      "to": "0x9B7280891dc19fd3A2e754cB9007203820650403",
      "value": {
        "_hex": "0xeba067d20f832158"
      },
      "nonce": 3920,
      "data": "0x",
      "r": "0x92b01dfe8d820c2c2cce47f4d7682a2ed6b67c09edc6636cee7ca6e5e044e0e1",
      "s": "0x602f97b800446732cae8f599c2cc9f81c8a3b2b708bb1383fbffa2678379ae07",
      "v": 27,
      "creates": null,
      "raw": "0xf86e820f50850cd6ec81608255f0949b7280891dc19fd3a2e754cb900720382065040388eba067d20f832158801ba092b01dfe8d820c2c2cce47f4d7682a2ed6b67c09edc6636cee7ca6e5e044e0e1a0602f97b800446732cae8f599c2cc9f81c8a3b2b708bb1383fbffa2678379ae07",
      "networkId": 0,
      "chainId": 0
    },
    {
      "hash": "0x05b1ba6034cb3e5acbe8e346f8c2de50dee7c54da43648a9b386c00d2adda491",
      "blockHash": "0x391a54deb6b62d7aca20c8fe26048ca99076cb63c99805af6d3fee7cfa67068f",
      "blockNumber": 105333,
      "transactionIndex": 9,
      "confirmations": null,
      "from": "0xe6A7a1d47ff21B6321162AEA7C6CB457D5476Bca",
      "gasPrice": {
        "_hex": "0xcd6ec8160"
      },
      "gasLimit": {
        "_hex": "0x55f0"
      },
      "to": "0x2637e8641e6ef9C8951adf3E0c7058e76D766cbA",
      "value": {
        "_hex": "0xf5c8accdebd7dff0"
      },
      "nonce": 3921,
      "data": "0x",
      "r": "0x9d00bc45ccddc6be90fcacd50c94308ab99f41b684d18f637067993bded850ef",
      "s": "0x7e0bde06dcb3e655e328ecd4c27743ac63fd5005103321a7c6362d24221f3284",
      "v": 28,
      "creates": null,
      "raw": "0xf86e820f51850cd6ec81608255f0942637e8641e6ef9c8951adf3e0c7058e76d766cba88f5c8accdebd7dff0801ca09d00bc45ccddc6be90fcacd50c94308ab99f41b684d18f637067993bded850efa07e0bde06dcb3e655e328ecd4c27743ac63fd5005103321a7c6362d24221f3284",
      "networkId": 0,
      "chainId": 0
    },
    {
      "hash": "0x047c8cda8da294610853d709cd0fb840bc3833e1021aad73c84fbf1e8fa24c8f",
      "blockHash": "0x391a54deb6b62d7aca20c8fe26048ca99076cb63c99805af6d3fee7cfa67068f",
      "blockNumber": 105333,
      "transactionIndex": 10,
      "confirmations": null,
      "from": "0xe6A7a1d47ff21B6321162AEA7C6CB457D5476Bca",
      "gasPrice": {
        "_hex": "0xcd6ec8160"
      },
      "gasLimit": {
        "_hex": "0x55f0"
      },
      "to": "0xAdCa16b4654a92cb67666C0cF61976cEEE81cEEB",
      "value": {
        "_hex": "0xf7079de8cc2c9898"
      },
      "nonce": 3922,
      "data": "0x",
      "r": "0xfe14ef5bfbb25ecaa73184f9e04d555b7212830de7b766697b743321780861da",
      "s": "0x1c9426c5417552cf6b4c739e1194568cbd1061e38c96300978de60b97013f589",
      "v": 28,
      "creates": null,
      "raw": "0xf86e820f52850cd6ec81608255f094adca16b4654a92cb67666c0cf61976ceee81ceeb88f7079de8cc2c9898801ca0fe14ef5bfbb25ecaa73184f9e04d555b7212830de7b766697b743321780861daa01c9426c5417552cf6b4c739e1194568cbd1061e38c96300978de60b97013f589",
      "networkId": 0,
      "chainId": 0
    },
    {
      "hash": "0x2fff9d90fa476809ae546e9f4f131e3f1eadf1b0b5eb7b6b6f831703f28ae468",
      "blockHash": "0x391a54deb6b62d7aca20c8fe26048ca99076cb63c99805af6d3fee7cfa67068f",
      "blockNumber": 105333,
      "transactionIndex": 11,
      "confirmations": null,
      "from": "0xe6A7a1d47ff21B6321162AEA7C6CB457D5476Bca",
      "gasPrice": {
        "_hex": "0xcd6ec8160"
      },
      "gasLimit": {
        "_hex": "0x55f0"
      },
      "to": "0x8e33bFA30c0c6eb3652321FF52E2fB3143fa51BF",
      "value": {
        "_hex": "0xfb0c61560cdf7e58"
      },
      "nonce": 3923,
      "data": "0x",
      "r": "0x3492aa9e9ba8c5bc80e8e8dbdc7356ee80e0401d4ac6987f5da9bb647be075b4",
      "s": "0x1632e8ca02ec543b97e0388c96fd54ae0a6156131650f2065db8e431ac53dcfa",
      "v": 27,
      "creates": null,
      "raw": "0xf86e820f53850cd6ec81608255f0948e33bfa30c0c6eb3652321ff52e2fb3143fa51bf88fb0c61560cdf7e58801ba03492aa9e9ba8c5bc80e8e8dbdc7356ee80e0401d4ac6987f5da9bb647be075b4a01632e8ca02ec543b97e0388c96fd54ae0a6156131650f2065db8e431ac53dcfa",
      "networkId": 0,
      "chainId": 0
    },
    {
      "hash": "0xf0b0c92ef67b99f0d7ea4da582c149b90c2bcb8b27a7055a04f5fcadb4995763",
      "blockHash": "0x391a54deb6b62d7aca20c8fe26048ca99076cb63c99805af6d3fee7cfa67068f",
      "blockNumber": 105333,
      "transactionIndex": 12,
      "confirmations": null,
      "from": "0xe6A7a1d47ff21B6321162AEA7C6CB457D5476Bca",
      "gasPrice": {
        "_hex": "0xcd6ec8160"
      },
      "gasLimit": {
        "_hex": "0x55f0"
      },
      "to": "0x02020D22dCF88f5eDd66B382D7da019F161fB7e3",
      "value": {
        "_hex": "0xfd118892873243b0"
      },
      "nonce": 3924,
      "data": "0x",
      "r": "0xc1288f172210fac37a8849d026c541ebe63bdc22e940d011e2dde6f20c04b9e5",
      "s": "0x09525e1b1562ce314dfaf56c5ea69c08347a6edb8036e6e4c22f8613ac73e964",
      "v": 27,
      "creates": null,
      "raw": "0xf86e820f54850cd6ec81608255f09402020d22dcf88f5edd66b382d7da019f161fb7e388fd118892873243b0801ba0c1288f172210fac37a8849d026c541ebe63bdc22e940d011e2dde6f20c04b9e5a009525e1b1562ce314dfaf56c5ea69c08347a6edb8036e6e4c22f8613ac73e964",
      "networkId": 0,
      "chainId": 0
    },
    {
      "hash": "0xe85c7f0fa22ec8f3faea057788519772535b1490447a1e639e28c3b426103003",
      "blockHash": "0x391a54deb6b62d7aca20c8fe26048ca99076cb63c99805af6d3fee7cfa67068f",
      "blockNumber": 105333,
      "transactionIndex": 13,
      "confirmations": null,
      "from": "0xe6A7a1d47ff21B6321162AEA7C6CB457D5476Bca",
      "gasPrice": {
        "_hex": "0xcd6ec8160"
      },
      "gasLimit": {
        "_hex": "0x55f0"
      },
      "to": "0x9A6eb0bBBE50281644D7a7839147F59819506Ac0",
      "value": {
        "_hex": "0xfecc28a2a9205130"
      },
      "nonce": 3925,
      "data": "0x",
      "r": "0xeb0201692959eb756cd0b52c40a388325879c394b37a6894bdc609b613783eda",
      "s": "0x413bf919a481c58611a11ec222cc2c31a79c951ea42bb11c06b6a22ad88e35e3",
      "v": 28,
      "creates": null,
      "raw": "0xf86e820f55850cd6ec81608255f0949a6eb0bbbe50281644d7a7839147f59819506ac088fecc28a2a9205130801ca0eb0201692959eb756cd0b52c40a388325879c394b37a6894bdc609b613783edaa0413bf919a481c58611a11ec222cc2c31a79c951ea42bb11c06b6a22ad88e35e3",
      "networkId": 0,
      "chainId": 0
    },
    {
      "hash": "0x153589920b2d1ec525e31a9b42c420f48ba4ed6f66ea5b87c9082d9066316756",
      "blockHash": "0x391a54deb6b62d7aca20c8fe26048ca99076cb63c99805af6d3fee7cfa67068f",
      "blockNumber": 105333,
      "transactionIndex": 14,
      "confirmations": null,
      "from": "0xe6A7a1d47ff21B6321162AEA7C6CB457D5476Bca",
      "gasPrice": {
        "_hex": "0xcd6ec8160"
      },
      "gasLimit": {
        "_hex": "0x55f0"
      },
      "to": "0xC13Dad778D7BcE116BD97f744625D57f7124c38A",
      "value": {
        "_hex": "0x10107de7c3c426f80"
      },
      "nonce": 3926,
      "data": "0x",
      "r": "0xdda302b2d9d19c5b2b8231a8b4b0a709697446fadb5fe0a9a167418958c7e7c5",
      "s": "0x3504ee5b9e1cc83ebef1ec310d2fad33cb1c3541e899747c2a777805d7910f4d",
      "v": 27,
      "creates": null,
      "raw": "0xf86f820f56850cd6ec81608255f094c13dad778d7bce116bd97f744625d57f7124c38a89010107de7c3c426f80801ba0dda302b2d9d19c5b2b8231a8b4b0a709697446fadb5fe0a9a167418958c7e7c5a03504ee5b9e1cc83ebef1ec310d2fad33cb1c3541e899747c2a777805d7910f4d",
      "networkId": 0,
      "chainId": 0
    }
  ]
}