{
  "hash": "0x4a9e885734d0d452be4528939d79d5ad8d2c048a278a6d820b760f5319e83c93",
  "parentHash": "0xb2e978db67a6cf54d4a45763907fbd4b36c2bae24d04064ef8a00ecc7b63ca0d",
  "number": 54386,
  "timestamp": 1439053362,
  "nonce": "0x6172f712a6b7a055",
  "difficulty": 1613374799957,
  "gasLimit": {
    "_hex": "0x2fefd8"
  },
  "gasUsed": {
    "_hex": "0x2580c"
  },
  "miner": "0x1B7047b4338ACf65bE94C1A3e8c5c9338ad7d67C",
  "extraData": "0x476574682f76312e302e312d38326566323666362f6c696e75782f676f312e34",
  "transactions": [
    {
      "hash": "0x2ba1119cb5d7b914593301ce14b89485ee8becb1069e388249599ceaf97bcada",
      "blockHash": "0x4a9e885734d0d452be4528939d79d5ad8d2c048a278a6d820b760f5319e83c93",
      "blockNumber": 54386,
      "transactionIndex": 0,
      "confirmations": null,
      "from": "0x94E1f5cb9b8abaCE03a1A6428256553b690C2355",
      "gasPrice": {
        "_hex": "0x109c3c82280"
      },
      "gasLimit": {
        "_hex": "0x15f90"
      },
      "to": "0x2910543Af39abA0Cd09dBb2D50200b3E800A63D2",
      "value": {
        "_hex": "0xf2dc7d47f1560000"
      },
      "nonce": 2,
      "data": "0x454e30593350355052",
      "r": "0xc51f9237d8f9d90bf4aed76ae6e2f1785069d19e45a758b38eb85a8df06312b8",
      "s": "0x70f5cc2eae012eae2660831d9f800ebf43acd204585b48911718ec0e711e7c4c",
      "v": 27,
      "creates": null,
      "raw": "0xf87702860109c3c8228083015f90942910543af39aba0cd09dbb2d50200b3e800a63d288f2dc7d47f156000089454e305933503550521ba0c51f9237d8f9d90bf4aed76ae6e2f1785069d19e45a758b38eb85a8df06312b8a070f5cc2eae012eae2660831d9f800ebf43acd204585b48911718ec0e711e7c4c",
      "networkId": 0,
      "chainId": 0
    },
    {
      "hash": "0xe404ada4fccb2cd8e2234d1eb61d41d4c4ac6492b6e418d885590d9e24088fe2",
      "blockHash": "0x4a9e885734d0d452be4528939d79d5ad8d2c048a278a6d820b760f5319e83c93",
      "blockNumber": 54386,
      "transactionIndex": 1,
      "confirmations": null,
      "from": "0xeD17Ea8E9fd42159037deE95ea173a56c54f55ce",
      "gasPrice": {
        "_hex": "0xcdb04f2e8"
      },
      "gasLimit": {
        "_hex": "0x5208"
      },
      "to": "0x32Be343B94f860124dC4fEe278FDCBD38C102D88",
      "value": {
        "_hex": "0x56d02fe2683470000"
      },
      "nonce": 8,
      "data": "0x",
      "r": "0xe50e6a59cf12c38925f8df9cd40ea4cce0aa27a6d4a11c6155a124558a581f43",
      "s": "0x5674ecb5ca470427f3c9bc9058d1344b4c13c90b71d50207bc55c5b8675deffe",
      "v": 27,
      "creates": null,
      "raw": "0xf86d08850cdb04f2e88252089432be343b94f860124dc4fee278fdcbd38c102d8889056d02fe2683470000801ba0e50e6a59cf12c38925f8df9cd40ea4cce0aa27a6d4a11c6155a124558a581f43a05674ecb5ca470427f3c9bc9058d1344b4c13c90b71d50207bc55c5b8675deffe",
      "networkId": 0,
      "chainId": 0
    },
    {
      "hash": "0xd3c55d9f97935a9eefd251c4daa4e876880bfad9bcb148c775b3beb98b6e87c2",
      "blockHash": "0x4a9e885734d0d452be4528939d79d5ad8d2c048a278a6d820b760f5319e83c93",
      "blockNumber": 54386,
      "transactionIndex": 2,
      "confirmations": null,
      "from": "0xf85787F98B727466F7A58c9424AbD404baBE6ede",
      "gasPrice": {
        "_hex": "0xcdb04f2e8"
      },
      "gasLimit": {
        "_hex": "0x5208"
      },
      "to": "0x32Be343B94f860124dC4fEe278FDCBD38C102D88",
      "value": {
        "_hex": "0xe001f16f5870800"
      },
      "nonce": 0,
      "data": "0x",
      "r": "0x2805a57b04b9b6662856c824babbb2e4937779ff07f0e5fae1ba3a537b5b8f08",
      "s": "0x4c14ef0c62c7c7b04b90924cb685573e136756ebbe0596aef14b33d5f3c9fa00",
      "v": 28,
      "creates": null,
      "raw": "0xf86c80850cdb04f2e88252089432be343b94f860124dc4fee278fdcbd38c102d88880e001f16f5870800801ca02805a57b04b9b6662856c824babbb2e4937779ff07f0e5fae1ba3a537b5b8f08a04c14ef0c62c7c7b04b90924cb685573e136756ebbe0596aef14b33d5f3c9fa00",
      "networkId": 0,
      "chainId": 0
    },
    {
      "hash": "0x8863e61692e865d1f388c2253e4c31e288f0202e1d7f9d37f2d0f7f6e96880c3",
      "blockHash": "0x4a9e885734d0d452be4528939d79d5ad8d2c048a278a6d820b760f5319e83c93",
      "blockNumber": 54386,
      "transactionIndex": 3,
      "confirmations": null,
      "from": "0x8674c218F0351a62C3BA78C34FD2182A93Da94E2",
      "gasPrice": {
        "_hex": "0xcc0670f8f"
      },
      "gasLimit": {
        "_hex": "0x15f90"
      },
      "to": "0xBCa021A5B83eF3109aCf4858f1d0E36f5aD15306",
      "value": {
        "_hex": "0x0"
      },
      "nonce": 32,
      "data": "0xde6f24bb0000000000000000000000008674c218f0351a62c3ba78c34fd2182a93da94e20000000000000000000000000000000000000000000000000000000000000040000000000000000000000000000000000000000000000000000000000000000668656c6c6f210000000000000000000000000000000000000000000000000000",
      "r": "0x8a384591e07b35ad1d19e8fcdb0136892d75650e611d5f2591ff05ac08397bdd",
      "s": "0x5c7a580825cc8d0b8034ed94fb2401aa044f8ac6fc94bc34c5d920a306826b92",
      "v": 28,
      "creates": null,
      "raw": "0xf8ea20850cc0670f8f83015f9094bca021a5b83ef3109acf4858f1d0e36f5ad1530680b884de6f24bb0000000000000000000000008674c218f0351a62c3ba78c34fd2182a93da94e20000000000000000000000000000000000000000000000000000000000000040000000000000000000000000000000000000000000000000000000000000000668656c6c6f2100000000000000000000000000000000000000000000000000001ca08a384591e07b35ad1d19e8fcdb0136892d75650e611d5f2591ff05ac08397bdda05c7a580825cc8d0b8034ed94fb2401aa044f8ac6fc94bc34c5d920a306826b92",
      "networkId": 0,
      "chainId": 0
    }
  ]
}