{
  "hash": "0xfe670934cbe2fdf9940d2e7d5d5c6742ae030bfaa5917f6343a4720d7af38cd1",
  "parentHash": "0x8bee34f1c76f87a4dfa27f6ea56c56e5cc3912d7d15d747f545b20fa234736af",
  "number": 115118,
  "timestamp": 1440051669,
  "nonce": "0x87301392d879f086",
  "difficulty": 4540697273150,
  "gasLimit": {
    "_hex": "0x2fefd8"
  },
  "gasUsed": {
    "_hex": "0x5208"
  },
  "miner": "0x52bc44d5378309EE2abF1539BF71dE1b7d7bE3b5",
  "extraData": "0x476574682f76312e302e312d65626434373230372f6c696e75782f676f312e34",
  "transactions": [
    {
      "hash": "0x65e81823e05ceefd7045941ab4205d8918e03d1f9431db88ab0ca35b01b1885d",
      "blockHash": "0xfe670934cbe2fdf9940d2e7d5d5c6742ae030bfaa5917f6343a4720d7af38cd1",
      "blockNumber": 115118,
      "transactionIndex": 0,
      "confirmations": null,
      "from": "0x3f07B008B04EE61858d0ec3f88239941889e1A79",
      "gasPrice": {
        "_hex": "0xd486b7857"
      },
      "gasLimit": {
        "_hex": "0x15f90"
      },
      "to": "0x0Ab4e6aDb862b5F5E711E079d93B247b62aFB62A",
      "value": {
        "_hex": "0x8fe76550a00"
      },
      "nonce": 1,
      "data": "0x",
      "r": "0x95cc912323cb72df9f33900ba52aa34b4ec38191892d2561358d3e31770f728a",
      "s": "0x504e67e2d39c3865f96f7fefec722942fc193d88334a9d4f2ffbd79bbff68c2c",
      "v": 27,
      "creates": null,
      "raw": "0xf86b01850d486b785783015f90940ab4e6adb862b5f5e711e079d93b247b62afb62a8608fe76550a00801ba095cc912323cb72df9f33900ba52aa34b4ec38191892d2561358d3e31770f728aa0504e67e2d39c3865f96f7fefec722942fc193d88334a9d4f2ffbd79bbff68c2c",
      "networkId": 0,
      "chainId": 0
    }
  ]
}