{
  "hash": "0x502f1918e10a932ce3bae24e914d9b4cff695ad85d045fe45dce42d99e222518",
  "parentHash": "0x6cb79dac05707288730ae8282276f8d281657cc6d9e5c769db585d73b7a05a05",
  "number": 104768,
  "timestamp": 1439875121,
  "nonce": "0xab3415949375e031",
  "difficulty": 4363605969173,
  "gasLimit": {
    "_hex": "0x2fefd8"
  },
  "gasUsed": {
    "_hex": "0x5208"
  },
  "miner": "0x77EC9ad4A7E9418774C29415CAaF4Ee0da96eF64",
  "extraData": "0x",
  "transactions": [
    {
      "hash": "0x82b05568e8fcd77bde2a0e4f07ef2cbb4b355d3a767535ca29c9edff69113390",
      "blockHash": "0x502f1918e10a932ce3bae24e914d9b4cff695ad85d045fe45dce42d99e222518",
      "blockNumber": 104768,
      "transactionIndex": 0,
      "confirmations": null,
      "from": "0x923067FD7d60328fec396e8305dCe9B30c37c137",
      "gasPrice": {
        "_hex": "0xd6b187d36"
      },
      "gasLimit": {
        "_hex": "0x15f90"
      },
      "to": "0x18c55cF8232ff1565E224b84AF1000951e3FfaAB",
      "value": {
        "_hex": "0xde0b6b3a7640000"
      },
      "nonce": 0,
      "data": "0x",
      "r": "0x019e3a8cf1facab9407f13ea02bc82bb67d2bdd433cc44b94c7e82598ce3150e",
      "s": "0x47e2c5dd537bd79108ac643e4cf3f6be73e5bb2ec3cfea0ec2604a2ddc6c04c5",
      "v": 27,
      "creates": null,
      "raw": "0xf86d80850d6b187d3683015f909418c55cf8232ff1565e224b84af1000951e3ffaab880de0b6b3a7640000801ba0019e3a8cf1facab9407f13ea02bc82bb67d2bdd433cc44b94c7e82598ce3150ea047e2c5dd537bd79108ac643e4cf3f6be73e5bb2ec3cfea0ec2604a2ddc6c04c5",
      "networkId": 0,
      "chainId": 0
    }
  ]
}