{
  "hash": "0x901d41064908bad3d4cef5acd28f0eb32439c044a659605cf2b803b95152dfef",
  "parentHash": "0xa7338ec40feb97f7f739b8befd005a4af7ada7c679ac5a514ecca1d399c4437e",
  "number": 58679,
  "timestamp": 1439124869,
  "nonce": "0x13d0651b61f0f39c",
  "difficulty": 1710692748517,
  "gasLimit": {
    "_hex": "0x2fefd8"
  },
  "gasUsed": {
    "_hex": "0x5208"
  },
  "miner": "0x47ff6576639c2e94762eA5443978D7681C0E78DC",
  "extraData": "0x476574682f76312e302e312f6c696e75782f676f312e342e32",
  "transactions": [
    {
      "hash": "0x89c2bce8080e796886ad66491ac386b121ee3d3f48a6fc5bbb01b9fe366f70f3",
      "blockHash": "0x901d41064908bad3d4cef5acd28f0eb32439c044a659605cf2b803b95152dfef",
      "blockNumber": 58679,
      "transactionIndex": 0,
      "confirmations": null,
      "from": "0x360A45Bb0fd4B1980981FbD42e4f6bAaa69EeC08",
      "gasPrice": {
        "_hex": "0xd7d40ace3"
      },
      "gasLimit": {
        "_hex": "0x5208"
      },
      "to": "0xbb30e448B72d6Fdd44973A4C7a312F92f22C8F07",
      "value": {
        "_hex": "0xc249fdd327780000"
      },
      "nonce": 3,
      "data": "0x",
      "r": "0xd24ef7674108b7295f988e502a3ec924c937297a616c5ab4dbbb364eac52b04a",
      "s": "0x277ca5c69654c4a51ce9b04fee545b4dfd2644b2d5fc94ca28e8f7004180574e",
      "v": 28,
      "creates": null,
      "raw": "0xf86c03850d7d40ace382520894bb30e448b72d6fdd44973a4c7a312f92f22c8f0788c249fdd327780000801ca0d24ef7674108b7295f988e502a3ec924c937297a616c5ab4dbbb364eac52b04aa0277ca5c69654c4a51ce9b04fee545b4dfd2644b2d5fc94ca28e8f7004180574e",
      "networkId": 0,
      "chainId": 0
    }
  ]
}