{
  "hash": "0xcdaaa0fff3d35cb9b917a6f9942107874c5388788493c106d648c59fda0a026e",
  "parentHash": "0xd7f71bbe37c7f33350b47a8b645645c4ed5502bc39a83581637ac64f110505e3",
  "number": 47417,
  "timestamp": 1438940052,
  "nonce": "0x9f765b027c523a47",
  "difficulty": 1449543586651,
  "gasLimit": {
    "_hex": "0xbb92"
  },
  "gasUsed": {
    "_hex": "0x5208"
  },
  "miner": "0xbb7B8287f3F0a933474a79eAe42CBCa977791171",
  "extraData": "0x476574682f4c5649562f76312e302e312f6c696e75782f676f312e342e32",
  "transactions": [
    {
      "hash": "0xf927677abbcb90464c60c36976cdefaf589d459d865d05e2a68976a0c67fe271",
      "blockHash": "0xcdaaa0fff3d35cb9b917a6f9942107874c5388788493c106d648c59fda0a026e",
      "blockNumber": 47417,
      "transactionIndex": 0,
      "confirmations": null,
      "from": "0xe6A7a1d47ff21B6321162AEA7C6CB457D5476Bca",
      "gasPrice": {
        "_hex": "0x2057e4a426"
      },
      "gasLimit": {
        "_hex": "0x5208"
      },
      "to": "0x605C4282130e22ae43d0e95728788988fA800894",
      "value": {
        "_hex": "0x1393a449cd08e80e8"
      },
      "nonce": 140,
      "data": "0x",
      "r": "0x90071184e311f5b473dddd1351260304ba7b80f22778cae19cc79f254d062c82",
      "s": "0x43fa657f587bd1ef8faf7fb9161eecab6290660de5353a6b1f77e8b901beebb9",
      "v": 28,
      "creates": null,
      "raw": "0xf86e818c852057e4a42682520894605c4282130e22ae43d0e95728788988fa8008948901393a449cd08e80e8801ca090071184e311f5b473dddd1351260304ba7b80f22778cae19cc79f254d062c82a043fa657f587bd1ef8faf7fb9161eecab6290660de5353a6b1f77e8b901beebb9",
      "networkId": 0,
      "chainId": 0
    }
  ]
}