{
  "hash": "0x90a51530cf6f55ece3c436c12d311c5bfff9c060ff30a02f0fde382b92c5b0a3",
  "parentHash": "0x6876825830ccd90521871ddfc79e899af634ece2e1222e6232bc3d5ee6f86e7e",
  "number": 104330,
  "timestamp": 1439867999,
  "nonce": "0xfcd7fe5bfb4af843",
  "difficulty": 4296178837262,
  "gasLimit": {
    "_hex": "0x2fefd8"
  },
  "gasUsed": {
    "_hex": "0x5208"
  },
  "miner": "0xe6A7a1d47ff21B6321162AEA7C6CB457D5476Bca",
  "extraData": "0x476574682f76312e302e312d38326566323666362f6c696e75782f676f312e34",
  "transactions": [
    {
      "hash": "0x6f6c1ebf1359b8fdc1a07322fce1dd587cb83a382f2ebb88c5356eb5d8f2c969",
      "blockHash": "0x90a51530cf6f55ece3c436c12d311c5bfff9c060ff30a02f0fde382b92c5b0a3",
      "blockNumber": 104330,
      "transactionIndex": 0,
      "confirmations": null,
      "from": "0x24D0Da385D0ae2Eb116f76339382d2f43dE64340",
      "gasPrice": {
        "_hex": "0xdd1078d94"
      },
      "gasLimit": {
        "_hex": "0x5208"
      },
      "to": "0x32Be343B94f860124dC4fEe278FDCBD38C102D88",
      "value": {
        "_hex": "0x112d12cec508b7000"
      },
      "nonce": 1,
      "data": "0x",
      "r": "0x657ecb74f4845807c2ea16c08be773ef64cfbb17bebc396f1df39716c1343207",
      "s": "0x6cde84db66004bfdbd0671947bd1af7b0c9fa9a185e88856d6f6bde924db6122",
      "v": 28,
      "creates": null,
      "raw": "0xf86d01850dd1078d948252089432be343b94f860124dc4fee278fdcbd38c102d88890112d12cec508b7000801ca0657ecb74f4845807c2ea16c08be773ef64cfbb17bebc396f1df39716c1343207a06cde84db66004bfdbd0671947bd1af7b0c9fa9a185e88856d6f6bde924db6122",
      "networkId": 0,
      "chainId": 0
    }
  ]
}