{
  "hash": "0x79f4962a7f392cc0ac4b298a3118bb9c8bacbd2715723d0844b02b5cbdc1503e",
  "parentHash": "0x89a86b2955680d4a904773aa2ed9b4644af7a79349b8e5553fcbb4c1d2f7064d",
  "number": 89318,
  "timestamp": 1439621531,
  "nonce": "0xa47251a6eae28bdc",
  "difficulty": 3306346023797,
  "gasLimit": {
    "_hex": "0x2fefd8"
  },
  "gasUsed": {
    "_hex": "0xa410"
  },
  "miner": "0xa70a9a7040d542C632D8e0bE7c5513A8a5Bbc752",
  "extraData": "0x",
  "transactions": [
    {
      "hash": "0x44338a54172562a76fdbacc03a67de17a9a33d29217aacef326844e86443abc8",
      "blockHash": "0x79f4962a7f392cc0ac4b298a3118bb9c8bacbd2715723d0844b02b5cbdc1503e",
      "blockNumber": 89318,
      "transactionIndex": 0,
      "confirmations": null,
      "from": "0xE46181d0089f5D0e0e4668eE7AB335893BDB58bf",
      "gasPrice": {
        "_hex": "0xd6d571398"
      },
      "gasLimit": {
        "_hex": "0x15f90"
      },
      "to": "0xa2F43CA7f0275fF2D416b523422AC9FCA63f6135",
      "value": {
        "_hex": "0x38d7ea4c68000"
      },
      "nonce": 1,
      "data": "0x",
      "r": "0x21e226289aa22c3f0a7ff7d0184858d556dbeb27376d0af3daea82ad270d8d32",
      "s": "0x3844188229c340d1c14ffdf36609e4c2c5892cdf79f622cd850a291acf948627",
      "v": 27,
      "creates": null,
      "raw": "0xf86c01850d6d57139883015f9094a2f43ca7f0275ff2d416b523422ac9fca63f613587038d7ea4c68000801ba021e226289aa22c3f0a7ff7d0184858d556dbeb27376d0af3daea82ad270d8d32a03844188229c340d1c14ffdf36609e4c2c5892cdf79f622cd850a291acf948627",
      "networkId": 0,
      "chainId": 0
    },
    {
      "hash": "0xe218f7abd6b557e01376c57bcdf7f5d8e94e0760306b1d9eb37e1a8ddc51e6ab",
      "blockHash": "0x79f4962a7f392cc0ac4b298a3118bb9c8bacbd2715723d0844b02b5cbdc1503e",
      "blockNumber": 89318,
      "transactionIndex": 1,
      "confirmations": null,
      "from": "0x20134CBFf88bFADc466b52ECEAA79857891d831E",
      "gasPrice": {
        "_hex": "0xcb3c9b43a"
      },
      "gasLimit": {
        "_hex": "0x15f90"
      },
      "to": "0x0000000000000000000000000000000000000000",
      "value": {
        "_hex": "0x15af1d78b58c400000"
      },
      "nonce": 7,
      "data": "0x",
      "r": "0x75bae742f062b5a89c2424199c098030417fe1298a2fad166bf1efe64c466b48",
      "s": "0x21fefe7b1b00675847fd4dc411ac36f3d5aa068f2d05eddfa05125c24ae3d058",
      "v": 27,
      "creates": null,
      "raw": "0xf86e07850cb3c9b43a83015f909400000000000000000000000000000000000000008915af1d78b58c400000801ba075bae742f062b5a89c2424199c098030417fe1298a2fad166bf1efe64c466b48a021fefe7b1b00675847fd4dc411ac36f3d5aa068f2d05eddfa05125c24ae3d058",
      "networkId": 0,
      "chainId": 0
    }
  ]
}