{
  "hash": "0x8d4a3f93105676d6dcfc81b52677442ae35aa0c84264fd190293f274b0d35cd5",
  "parentHash": "0xfec256d511aa878556715c5ad0d778fd4655f1ae9802af4b073d91e41971303a",
  "number": 120678,
  "timestamp": 1440164104,
  "nonce": "0x0efb0669b0f98a0d",
  "difficulty": 4419606174546,
  "gasLimit": {
    "_hex": "0x2fefd8"
  },
  "gasUsed": {
    "_hex": "0x5208"
  },
  "miner": "0x52bc44d5378309EE2abF1539BF71dE1b7d7bE3b5",
  "extraData": "0xd783010002844765746887676f312e342e32856c696e7578",
  "transactions": [
    {
      "hash": "0x92d2ecf0453089ccb6c931d35d9486a2d1b20dda3792f46c7a47b38ca0b7c686",
      "blockHash": "0x8d4a3f93105676d6dcfc81b52677442ae35aa0c84264fd190293f274b0d35cd5",
      "blockNumber": 120678,
      "transactionIndex": 0,
      "confirmations": null,
      "from": "0xaC49eeb6a55aF554D86d37b4A4eA7940010866E1",
      "gasPrice": {
        "_hex": "0xba43b7400"
      },
      "gasLimit": {
        "_hex": "0x15f90"
      },
      "to": "0x063814ec45404958A5e6D30b59ea5D95bB9972E0",
      "value": {
        "_hex": "0xd02ab486cedc0000"
      },
      "nonce": 12,
      "data": "0x",
      "r": "0x6ec58f97ec9be2452352e216d3f203810c0fa7adb074255d06f9029c527b8fd9",
      "s": "0x3011425cb76771639eaadc9049f9f8e838eabef18d5d47fa753e687d0eb1ddb2",
      "v": 27,
      "creates": null,
      "raw": "0xf86d0c850ba43b740083015f9094063814ec45404958a5e6d30b59ea5d95bb9972e088d02ab486cedc0000801ba06ec58f97ec9be2452352e216d3f203810c0fa7adb074255d06f9029c527b8fd9a03011425cb76771639eaadc9049f9f8e838eabef18d5d47fa753e687d0eb1ddb2",
      "networkId": 0,
      "chainId": 0
    }
  ]
}