{
  "hash": "0xd1b8b39222ed025c191b4b79fd75e97c3f70e403eb37feb5c5210791d12695d9",
  "parentHash": "0x5484d9ead9ccb1037058822ed455eb82cd81be02922d95b43f0b8960880cc0ee",
  "number": 90516,
  "timestamp": 1439641202,
  "nonce": "0x466814344a8987da",
  "difficulty": 3351381747222,
  "gasLimit": {
    "_hex": "0x2fefd8"
  },
  "gasUsed": {
    "_hex": "0x546c"
  },
  "miner": "0x2f6BCe4fc330B69C9B4c2694d57C63Ec7B18feC7",
  "extraData": "0x476574682f76312e302e312f77696e646f77732f676f312e342e32",
  "transactions": [
    {
      "hash": "0x5969fc6f0c9936b84e3f1f6983a32a17119a5ae79c94641f6f350e4fc5853c70",
      "blockHash": "0xd1b8b39222ed025c191b4b79fd75e97c3f70e403eb37feb5c5210791d12695d9",
      "blockNumber": 90516,
      "transactionIndex": 0,
      "confirmations": null,
      "from": "0xDF37C22E603aEdB60a627253c47d8bA866f6D972",
      "gasPrice": {
        "_hex": "0x110c8f7d8de"
      },
      "gasLimit": {
        "_hex": "0xc350"
      },
      "to": "0x2910543Af39abA0Cd09dBb2D50200b3E800A63D2",
      "value": {
        "_hex": "0x50f914035abd48c0000"
      },
      "nonce": 1,
      "data": "0x454e4441594a463252",
      "r": "0xa7f3a5c728350b97c857c8dbc0efccbf310dc4701523ca16257d641d93ec704b",
      "s": "0x04fb3a1c3d84646f543e4c5a236ea78bcc494ad3595d96528996014a7ed24c4c",
      "v": 27,
      "creates": null,
      "raw": "0xf87801860110c8f7d8de82c350942910543af39aba0cd09dbb2d50200b3e800a63d28a050f914035abd48c000089454e4441594a4632521ba0a7f3a5c728350b97c857c8dbc0efccbf310dc4701523ca16257d641d93ec704ba004fb3a1c3d84646f543e4c5a236ea78bcc494ad3595d96528996014a7ed24c4c",
      "networkId": 0,
      "chainId": 0
    }
  ]
}