{
  "hash": "0x7faa3bccf7f127b388c3376ee0ee66a62999d863a3525a1a253e8050c818c7e7",
  "parentHash": "0xe1de18237e5a526970fc394a632bf9aea8e6d767107ec192b7465f3b1f0490c3",
  "number": 112840,
  "timestamp": 1440014072,
  "nonce": "0x8e680b864a0eb344",
  "difficulty": 4436716791749,
  "gasLimit": {
    "_hex": "0x2fefd8"
  },
  "gasUsed": {
    "_hex": "0x5208"
  },
  "miner": "0xe6A7a1d47ff21B6321162AEA7C6CB457D5476Bca",
  "extraData": "0x476574682f76312e302e312d38326566323666362f6c696e75782f676f312e34",
  "transactions": [
    {
      "hash": "0x5cef2b859af3e003ad13a713e0ec92c89512de6de02bcc05cae790ff08a2a0dc",
      "blockHash": "0x7faa3bccf7f127b388c3376ee0ee66a62999d863a3525a1a253e8050c818c7e7",
      "blockNumber": 112840,
      "transactionIndex": 0,
      "confirmations": null,
      "from": "0xDdaCBcba2a4fe9313F7CCA044872A9c51bD1E4c8",
      "gasPrice": {
        "_hex": "0xcd605d6f7"
      },
      "gasLimit": {
        "_hex": "0x5208"
      },
      "to": "0x32Be343B94f860124dC4fEe278FDCBD38C102D88",
      "value": {
        "_hex": "0x27ec84133452f000"
      },
      "nonce": 5,
      "data": "0x",
      "r": "0xe48ac1470fa5ff0d808296c5cf35eeaa156cb3c482e2e26fcd11c85a2ba5381c",
      "s": "0x2ebf7b042b2e2ca06538bd622545106c6233abc2b7fd7a26171114474e35e89d",
      "v": 28,
      "creates": null,
      "raw": "0xf86c05850cd605d6f78252089432be343b94f860124dc4fee278fdcbd38c102d888827ec84133452f000801ca0e48ac1470fa5ff0d808296c5cf35eeaa156cb3c482e2e26fcd11c85a2ba5381ca02ebf7b042b2e2ca06538bd622545106c6233abc2b7fd7a26171114474e35e89d",
      "networkId": 0,
      "chainId": 0
    }
  ]
}