{
  "hash": "0xa6d8674a9fc2f99780dc1b9c94bcb6b6f3b868c04ad41aad7b674e021051a1b0",
  "parentHash": "0xe8a9b67091b11841fd069b6bde7568c487af9d0a6c238039d8113f95cda52e1f",
  "number": 52042,
  "timestamp": 1439015098,
  "nonce": "0x4c7a41daabae2603",
  "difficulty": 1565701741935,
  "gasLimit": {
    "_hex": "0xfcff7"
  },
  "gasUsed": {
    "_hex": "0xa410"
  },
  "miner": "0xf927a40C8B7F6E07c5af7FA2155B4864a4112B13",
  "extraData": "0x476574682f76312e302e312f6c696e75782f676f312e342e32",
  "transactions": [
    {
      "hash": "0xec9eb02af3153abac00bfb6b0939895eb8d303838456ae76ce9eeef8278e5df4",
      "blockHash": "0xa6d8674a9fc2f99780dc1b9c94bcb6b6f3b868c04ad41aad7b674e021051a1b0",
      "blockNumber": 52042,
      "transactionIndex": 0,
      "confirmations": null,
      "from": "0xCA092A957744f6385B1aee5dC694143E8A06F805",
      "gasPrice": {
        "_hex": "0xd9da86d53"
      },
      "gasLimit": {
        "_hex": "0x15f90"
      },
      "to": "0x7B947AD0e759B2B1bBC28C78D659000E9824f258",
      "value": {
        "_hex": "0xb1a2bc2ec50000"
      },
      "nonce": 9,
      "data": "0x",
      "r": "0x9762caf172aa91afb3caa47012d96bf1ac0205ae841dc8e59de84079896e25cb",
      "s": "0x3818d05f0c6f8f33cd38c1083961c44c14dae05efcec869686942ba757e03e0f",
      "v": 27,
      "creates": null,
      "raw": "0xf86c09850d9da86d5383015f90947b947ad0e759b2b1bbc28c78d659000e9824f25887b1a2bc2ec50000801ba09762caf172aa91afb3caa47012d96bf1ac0205ae841dc8e59de84079896e25cba03818d05f0c6f8f33cd38c1083961c44c14dae05efcec869686942ba757e03e0f",
      "networkId": 0,
      "chainId": 0
    },
    {
      "hash": "0x6af596285f84764cbd685ba1dbbf24b126150864bf6070b077be8e5c71381211",
      "blockHash": "0xa6d8674a9fc2f99780dc1b9c94bcb6b6f3b868c04ad41aad7b674e021051a1b0",
      "blockNumber": 52042,
      "transactionIndex": 1,
      "confirmations": null,
      "from": "0x6cf94E97b229262AF23908265c2cf7e810686fa7",
      "gasPrice": {
        "_hex": "0xd1dc775ad"
      },
      "gasLimit": {
        "_hex": "0x15f90"
      },
      "to": "0xcb350b1D62684c80Cf15696c28550B343A0c6444",
      "value": {
        "_hex": "0xde0b6b3a7640000"
      },
      "nonce": 1,
      "data": "0x",
      "r": "0x7f9f8ae14e53af34014203837c988f0100ff6831265861b95450bcb3865609f7",
      "s": "0x40bb60a4d875a89569a1b77137df52da25bd9420ed39da1dd9680ae6c0932804",
      "v": 28,
      "creates": null,
      "raw": "0xf86d01850d1dc775ad83015f9094cb350b1d62684c80cf15696c28550b343a0c6444880de0b6b3a7640000801ca07f9f8ae14e53af34014203837c988f0100ff6831265861b95450bcb3865609f7a040bb60a4d875a89569a1b77137df52da25bd9420ed39da1dd9680ae6c0932804",
      "networkId": 0,
      "chainId": 0
    }
  ]
}