{
  "hash": "0x21dd720156484b257be8cc561be23af5d8878803a7c5c1c304cd3aa8361c1276",
  "parentHash": "0x748996d7c283663c50fedf510cad7fce4838786cb6d1d2e967f95be9a2fc9a3f",
  "number": 64853,
  "timestamp": 1439227199,
  "nonce": "0x1ce535323bfe02db",
  "difficulty": 1907011610483,
  "gasLimit": {
    "_hex": "0x2fefd8"
  },
  "gasUsed": {
    "_hex": "0xbe6c"
  },
  "miner": "0xf8E0CA3Ed80bd541b94BEdCf259e8CF2141A9523",
  "extraData": "0x476574682f76312e302e312f77696e646f77732f676f312e342e32",
  "transactions": [
    {
      "hash": "0xe5a2937b9941e7c8153ed284581b2b394932df81f36eacb426fe77a849c7e4e1",
      "blockHash": "0x21dd720156484b257be8cc561be23af5d8878803a7c5c1c304cd3aa8361c1276",
      "blockNumber": 64853,
      "transactionIndex": 0,
      "confirmations": null,
      "from": "0x20e782ba08Fa10b77f27E05BD29f79DbD9C2B8c6",
      "gasPrice": {
        "_hex": "0xba43b7400"
      },
      "gasLimit": {
        "_hex": "0x15f90"
      },
      "to": "0x793AE8C1b1a160BFc07BFB0d04F85eab1A71F4f2",
      "value": {
        "_hex": "0x0"
      },
      "nonce": 0,
      "data": "0x3ba15036",
      "r": "0xcb43419f12dd4dbf921afe838f0dfe1d1c4d9ae62a928b8aa6ec2857c70e8c20",
      "s": "0x4d8ec5512675ae3175a3181e925b5c52f9d64c823cd112073f7f5be3fbbe221d",
      "v": 27,
      "creates": null,
      "raw": "0xf86980850ba43b740083015f9094793ae8c1b1a160bfc07bfb0d04f85eab1a71f4f280843ba150361ba0cb43419f12dd4dbf921afe838f0dfe1d1c4d9ae62a928b8aa6ec2857c70e8c20a04d8ec5512675ae3175a3181e925b5c52f9d64c823cd112073f7f5be3fbbe221d",
      "networkId": 0,
      "chainId": 0
    }
  ]
}