{
  "hash": "0x85d89a930d5d1e91d7fbdcf67afe907b9d43459e8f0918951e7eca291f7caf7b",
  "parentHash": "0x367de6c8f7aa1f328a0f738d0585f615bbd18bb0165b514695d5453362f9267e",
  "number": 81089,
  "timestamp": 1439495997,
  "nonce": "0x3945418950d494a3",
  "difficulty": 2434388759247,
  "gasLimit": {
    "_hex": "0x2fefd8"
  },
  "gasUsed": {
    "_hex": "0x5208"
  },
  "miner": "0x4947190fcC30D3fb3a16233b259bFe6b3492339a",
  "extraData": "0x476574682f76312e302e312d38326566323666362f6c696e75782f676f312e34",
  "transactions": [
    {
      "hash": "0x46808ab568ed9e03f6c7dfebe5c72d54e1c70ca543500bc623a422efabab8f37",
      "blockHash": "0x85d89a930d5d1e91d7fbdcf67afe907b9d43459e8f0918951e7eca291f7caf7b",
      "blockNumber": 81089,
      "transactionIndex": 0,
      "confirmations": null,
      "from": "0xa9f5E7bf6Cbf6fEc55B30850Eb492b47A376d050",
      "gasPrice": {
        "_hex": "0xd3e520051"
      },
      "gasLimit": {
        "_hex": "0x5208"
      },
      "to": "0x32Be343B94f860124dC4fEe278FDCBD38C102D88",
      "value": {
        "_hex": "0x295cbc4b145af40000"
      },
      "nonce": 16,
      "data": "0x",
      "r": "0xc487997b9706665ae2d81d4b634b2c4a6fa569a5c2af4cc2b356eda52c2965cb",
      "s": "0x3b1cf2508e7184c3598006ee214b95671c57e18bc555c127f890b4f0ce144e05",
      "v": 28,
      "creates": null,
      "raw": "0xf86d10850d3e5200518252089432be343b94f860124dc4fee278fdcbd38c102d8889295cbc4b145af40000801ca0c487997b9706665ae2d81d4b634b2c4a6fa569a5c2af4cc2b356eda52c2965cba03b1cf2508e7184c3598006ee214b95671c57e18bc555c127f890b4f0ce144e05",
      "networkId": 0,
      "chainId": 0
    }
  ]
}