{
  "hash": "0xea8f3ce58d06b0d287ab17d663a112188e10da8db622b41d62acc62afc381a1d",
  "parentHash": "0x92cf9e5a28d34b07ac6ce558c681b5cf92f2ed87450efd14553f12492f593d11",
  "number": 74809,
  "timestamp": 1439392769,
  "nonce": "0x08945841a60a68cd",
  "difficulty": 2192353398960,
  "gasLimit": {
    "_hex": "0x2fefd5"
  },
  "gasUsed": {
    "_hex": "0xa410"
  },
  "miner": "0x640bAfc5732d621d5611eed670718409acb81366",
  "extraData": "0x476574682f76312e302e312d38326566323666362f6c696e75782f676f312e34",
  "transactions": [
    {
      "hash": "0x80c02cb43542a2b0709e301246ef1e6dec67896134676cc600a6a4d68aba5d1b",
      "blockHash": "0xea8f3ce58d06b0d287ab17d663a112188e10da8db622b41d62acc62afc381a1d",
      "blockNumber": 74809,
      "transactionIndex": 0,
      "confirmations": null,
      "from": "0x55bAf64fc9eAccFFd7Cc643BB61142E1C6ac093e",
      "gasPrice": {
        "_hex": "0xdae68abb5"
      },
      "gasLimit": {
        "_hex": "0x15f90"
      },
      "to": "0xfE439e496730A23d448f85fA219972ea04793aB7",
      "value": {
        "_hex": "0xaf35029c214e80000"
      },
      "nonce": 3,
      "data": "0x",
      "r": "0xff9283ba9700d062d2320f669b6f9368a120a58736fb4f51590fee16ea09799d",
      "s": "0x3bcaf07b2b43ec9ef47fa6389bb554ba27d4a94c5bd0c20b967cd0bcda2d8d3a",
      "v": 28,
      "creates": null,
      "raw": "0xf86e03850dae68abb583015f9094fe439e496730a23d448f85fa219972ea04793ab7890af35029c214e80000801ca0ff9283ba9700d062d2320f669b6f9368a120a58736fb4f51590fee16ea09799da03bcaf07b2b43ec9ef47fa6389bb554ba27d4a94c5bd0c20b967cd0bcda2d8d3a",
      "networkId": 0,
      "chainId": 0
    },
    {
      "hash": "0x70339c6aaf9ea6c60840d98fc38effa539871ea195b91a5a24a24e36b67381c8",
      "blockHash": "0xea8f3ce58d06b0d287ab17d663a112188e10da8db622b41d62acc62afc381a1d",
      "blockNumber": 74809,
      "transactionIndex": 1,
      "confirmations": null,
      "from": "0x61B3df2e9e9Fd968131f1e88f0a0Eb5BD765464D",
      "gasPrice": {
        "_hex": "0xd39ab600a"
      },
      "gasLimit": {
        "_hex": "0x15f90"
      },
      "to": "0x286c2305Af13204F46Da83Dc2Ed5eAB84AB8046f",
      "value": {
        "_hex": "0xde0b6b3a7640000"
      },
      "nonce": 1,
      "data": "0x",
      "r": "0xccce96c711edaddc133869e564ac175d587a448356f82cfe3ef024061627a040",
      "s": "0x6832e2ec1ad5fd39dee00a20b26fcec8a9f4442063658ebee0092e2db3fae50a",
      "v": 27,
      "creates": null,
      "raw": "0xf86d01850d39ab600a83015f9094286c2305af13204f46da83dc2ed5eab84ab8046f880de0b6b3a7640000801ba0ccce96c711edaddc133869e564ac175d587a448356f82cfe3ef024061627a040a06832e2ec1ad5fd39dee00a20b26fcec8a9f4442063658ebee0092e2db3fae50a",
      "networkId": 0,
      "chainId": 0
    }
  ]
}