{
  "hash": "0x77bec675df407d9206b1d7d59eea8785dcf45de8d1511364a3ee555e1f0147bd",
  "parentHash": "0x205fc151bc5f1f027631d040afa7691b27e9414d9d1c4d64cae65b6b2a94d17a",
  "number": 82297,
  "timestamp": 1439517008,
  "nonce": "0x94b1bd245d680e03",
  "difficulty": 2377653781661,
  "gasLimit": {
    "_hex": "0x2fefd8"
  },
  "gasUsed": {
    "_hex": "0xa410"
  },
  "miner": "0xfABFCDb9aD54126a8829d5aB6357F608C6B005d0",
  "extraData": "0x476574682f76312e302e312f77696e646f77732f676f312e342e32",
  "transactions": [
    {
      "hash": "0xd4543601a27d594e5b188a9778a556759be9909dd390a25366ccfe3c25dee868",
      "blockHash": "0x77bec675df407d9206b1d7d59eea8785dcf45de8d1511364a3ee555e1f0147bd",
      "blockNumber": 82297,
      "transactionIndex": 0,
      "confirmations": null,
      "from": "0x423F06030a6c726925816243446a11Ed6d40Ab99",
      "gasPrice": {
        "_hex": "0xba43b7400"
      },
      "gasLimit": {
        "_hex": "0x5208"
      },
      "to": "0xC47Aaa860008be6f65B58c6C6E02a84e666EfE31",
      "value": {
        "_hex": "0x14664fbca395e000"
      },
      "nonce": 0,
      "data": "0x",
      "r": "0x80bb604734794a1eaa653872a9789dab88b70b1daec1d2f981125038a3ecefbd",
      "s": "0x4ce81896a91dc70e26c1186a0c15cd58e1d4ef10055708b7393cef2e6ec00e69",
      "v": 27,
      "creates": null,
      "raw": "0xf86c80850ba43b740082520894c47aaa860008be6f65b58c6c6e02a84e666efe318814664fbca395e000801ba080bb604734794a1eaa653872a9789dab88b70b1daec1d2f981125038a3ecefbda04ce81896a91dc70e26c1186a0c15cd58e1d4ef10055708b7393cef2e6ec00e69",
      "networkId": 0,
      "chainId": 0
    },
    {
      "hash": "0x9f3b19486574818b72e4f39c519ea84409a8b0ac399a1cd00fdd9493bc8eb47c",
      "blockHash": "0x77bec675df407d9206b1d7d59eea8785dcf45de8d1511364a3ee555e1f0147bd",
      "blockNumber": 82297,
      "transactionIndex": 1,
      "confirmations": null,
      "from": "0x1806e563f8c84B03B70f9Ec12E1db85971D845DE",
      "gasPrice": {
        "_hex": "0xba43b7400"
      },
      "gasLimit": {
        "_hex": "0x5208"
      },
      "to": "0xC47Aaa860008be6f65B58c6C6E02a84e666EfE31",
      "value": {
        "_hex": "0x56bb1dfbbfe2be000"
      },
      "nonce": 0,
      "data": "0x",
      "r": "0x53fdb61ae581eed51a8f5a9f8bf894b8dfa91404a2aaa4d8812e64d192e2d0b1",
      "s": "0x69f94f12265847b94cb02108e4c5ebd365e8c4d1ae88b5dcb0e7576bcbea9f99",
      "v": 27,
      "creates": null,
      "raw": "0xf86d80850ba43b740082520894c47aaa860008be6f65b58c6c6e02a84e666efe3189056bb1dfbbfe2be000801ba053fdb61ae581eed51a8f5a9f8bf894b8dfa91404a2aaa4d8812e64d192e2d0b1a069f94f12265847b94cb02108e4c5ebd365e8c4d1ae88b5dcb0e7576bcbea9f99",
      "networkId": 0,
      "chainId": 0
    }
  ]
}