{
  "hash": "0x457e2fd4ff9af620dc0c52346780ef73bf8a4634403be161f688da89d767e6c3",
  "parentHash": "0x474deae8f9decde71087d9d813db44954087a9ea9d54e208012988324b141d9a",
  "number": 81795,
  "timestamp": 1439507913,
  "nonce": "0xb9dc0207a8b41538",
  "difficulty": 2431807912852,
  "gasLimit": {
    "_hex": "0x2fefd8"
  },
  "gasUsed": {
    "_hex": "0x5208"
  },
  "miner": "0xe6A7a1d47ff21B6321162AEA7C6CB457D5476Bca",
  "extraData": "0x476574682f76312e302e312d38326566323666362f6c696e75782f676f312e34",
  "transactions": [
    {
      "hash": "0x55ebbbccdd2735d70eb87a3cbf7859bc0a87ba12a2a2476ce90cabd97cca13cd",
      "blockHash": "0x457e2fd4ff9af620dc0c52346780ef73bf8a4634403be161f688da89d767e6c3",
      "blockNumber": 81795,
      "transactionIndex": 0,
      "confirmations": null,
      "from": "0xd9775965b716476675a8D513eB14BBF7B07cD14a",
      "gasPrice": {
        "_hex": "0xdbcc90df8"
      },
      "gasLimit": {
        "_hex": "0x15f90"
      },
      "to": "0x5fB5E2fC08615c69B0FD8e8f0b68DA93Ec5e326A",
      "value": {
        "_hex": "0x1132ba6a2330ad00000"
      },
      "nonce": 0,
      "data": "0x",
      "r": "0x0d6d583fe30e0e292b1f77c9df5799c26d1b07f7ea49b9110d1309784a11bbf0",
      "s": "0x5992db281f28f8b19df7706d3a1331ea20379c9ee683627ace8a200a523a5eb3",
      "v": 27,
      "creates": null,
      "raw": "0xf86f80850dbcc90df883015f90945fb5e2fc08615c69b0fd8e8f0b68da93ec5e326a8a01132ba6a2330ad00000801ba00d6d583fe30e0e292b1f77c9df5799c26d1b07f7ea49b9110d1309784a11bbf0a05992db281f28f8b19df7706d3a1331ea20379c9ee683627ace8a200a523a5eb3",
      "networkId": 0,
      "chainId": 0
    }
  ]
}