{
  "hash": "0xcaf5fecff21445392182244426e967c0bb27fb4f2543b91c27d36a28664a8790",
  "parentHash": "0x7c6d45d05c86a828e3204438a27f4db90f3d111c793e6f1ef714c171ac9e55b9",
  "number": 88491,
  "timestamp": 1439608833,
  "nonce": "0xe8536ea3c19dd2dd",
  "difficulty": 3237968574541,
  "gasLimit": {
    "_hex": "0x2fefd8"
  },
  "gasUsed": {
    "_hex": "0x5208"
  },
  "miner": "0x4D52F282d1B4Ca07065FA433f90BDbb3b7c2928F",
  "extraData": "0x476574682f76312e302e312f77696e646f77732f676f312e342e32",
  "transactions": [
    {
      "hash": "0x371133e6d50ec4145a669ae3070c41500f749a9fb51dd7562cf961d473b37676",
      "blockHash": "0xcaf5fecff21445392182244426e967c0bb27fb4f2543b91c27d36a28664a8790",
      "blockNumber": 88491,
      "transactionIndex": 0,
      "confirmations": null,
      "from": "0x120A270bbC009644e35F0bB6ab13f95b8199c4ad",
      "gasPrice": {
        "_hex": "0xcd76b668e"
      },
      "gasLimit": {
        "_hex": "0x3d090"
      },
      "to": "0xc5623FA5c297c05c2d965A336b2068CfA0e567FA",
      "value": {
        "_hex": "0x1e11c0edefe1bd1000"
      },
      "nonce": 515,
      "data": "0x",
      "r": "0x78e7d82affe9b1d4930e145074cb9ac35a7de967db446a0e416f19ce8ad7dc31",
      "s": "0x75e6a4ac2dfa8a931d27a119ea66a80a192d647ec599938d5c437a9c6f03a79e",
      "v": 27,
      "creates": null,
      "raw": "0xf870820203850cd76b668e8303d09094c5623fa5c297c05c2d965a336b2068cfa0e567fa891e11c0edefe1bd1000801ba078e7d82affe9b1d4930e145074cb9ac35a7de967db446a0e416f19ce8ad7dc31a075e6a4ac2dfa8a931d27a119ea66a80a192d647ec599938d5c437a9c6f03a79e",
      "networkId": 0,
      "chainId": 0
    }
  ]
}