{
  "hash": "0x02247f44d3b4bf0a7a263c7f9620bba0411f524e87616f8b307099de7436c94a",
  "parentHash": "0xecb9f89b49c7c71a5c20453e8dc23f18e672e15751404e63e1b3e3cc156428ef",
  "number": 84364,
  "timestamp": 1439548678,
  "nonce": "0xea32b34136230d1c",
  "difficulty": 2544003163313,
  "gasLimit": {
    "_hex": "0x2fefd8"
  },
  "gasUsed": {
    "_hex": "0x546c"
  },
  "miner": "0xF9df7dCaA26C039BD675B008D4991b34717E0703",
  "extraData": "0x",
  "transactions": [
    {
      "hash": "0x346734ddcfb47521c456dd4fbfd5228f1c3c61bc85811373bcf119d7481218b3",
      "blockHash": "0x02247f44d3b4bf0a7a263c7f9620bba0411f524e87616f8b307099de7436c94a",
      "blockNumber": 84364,
      "transactionIndex": 0,
      "confirmations": null,
      "from": "0x6651736Fb59B91fEE9c93aa0BD6eA2F7b2506180",
      "gasPrice": {
        "_hex": "0x110c8f7d8de"
      },
      "gasLimit": {
        "_hex": "0xc350"
      },
      "to": "0x2910543Af39abA0Cd09dBb2D50200b3E800A63D2",
      "value": {
        "_hex": "0x56bc75e2d63100000"
      },
      "nonce": 1,
      "data": "0x454e343041304b5530",
      "r": "0x100fde16c116d1bc0e2f2761a5df46e8c2b90f638630f179cb3dbb753f36b85c",
      "s": "0x48e81277fbdbcb8038843a010d6f5dfaac5cd0abd2517c1ca9156817c025c438",
      "v": 28,
      "creates": null,
      "raw": "0xf87701860110c8f7d8de82c350942910543af39aba0cd09dbb2d50200b3e800a63d289056bc75e2d6310000089454e343041304b55301ca0100fde16c116d1bc0e2f2761a5df46e8c2b90f638630f179cb3dbb753f36b85ca048e81277fbdbcb8038843a010d6f5dfaac5cd0abd2517c1ca9156817c025c438",
      "networkId": 0,
      "chainId": 0
    }
  ]
}