{
  "hash": "0x8f646b407269b87d50cdbf3de56a2ffb6cda63a7daf81d9a427af7e19e11558b",
  "parentHash": "0x9161720d5be29a6d5d86a460ccc222f9f478d14f1d3b5c72c1993807f18b3591",
  "number": 102182,
  "timestamp": 1439834138,
  "nonce": "0xc511d4210aae5fbe",
  "difficulty": 3905082516799,
  "gasLimit": {
    "_hex": "0x2fefd8"
  },
  "gasUsed": {
    "_hex": "0xa410"
  },
  "miner": "0xe6A7a1d47ff21B6321162AEA7C6CB457D5476Bca",
  "extraData": "0x476574682f76312e302e312d38326566323666362f6c696e75782f676f312e34",
  "transactions": [
    {
      "hash": "0xb861cf48583ad6c8a9a0802410eab222acfb7d4e013c855d5c2f9f4f6a7d3325",
      "blockHash": "0x8f646b407269b87d50cdbf3de56a2ffb6cda63a7daf81d9a427af7e19e11558b",
      "blockNumber": 102182,
      "transactionIndex": 0,
      "confirmations": null,
      "from": "0x40B9b889A21Ff1534d018D71Dc406122EBcf3F5A",
      "gasPrice": {
        "_hex": "0x104ea2b1c34"
      },
      "gasLimit": {
        "_hex": "0x15f90"
      },
      "to": "0x645B979F8ce622236DB26feB803455d40C328615",
      "value": {
        "_hex": "0x1b1ae4d6e2ef500000"
      },
      "nonce": 52,
      "data": "0x",
      "r": "0xe80224cbb2ec5d257c0e7f594c61cabea2bdf8a35e4c489fc4fa797319c1430e",
      "s": "0x2936e60c4e0b979788cb6f00954cb35634c05800bf2229d0566b28edb807e627",
      "v": 27,
      "creates": null,
      "raw": "0xf86f34860104ea2b1c3483015f9094645b979f8ce622236db26feb803455d40c328615891b1ae4d6e2ef500000801ba0e80224cbb2ec5d257c0e7f594c61cabea2bdf8a35e4c489fc4fa797319c1430ea02936e60c4e0b979788cb6f00954cb35634c05800bf2229d0566b28edb807e627",
      "networkId": 0,
      "chainId": 0
    },
    {
      "hash": "0xc575a13332cecc5139a22be19474cbbc8d818e19db69cf4473a8c62de9fe0c86",
      "blockHash": "0x8f646b407269b87d50cdbf3de56a2ffb6cda63a7daf81d9a427af7e19e11558b",
      "blockNumber": 102182,
      "transactionIndex": 1,
      "confirmations": null,
      "from": "0xA4443808F939D8F77f6f6F4bE908490Ef9a3e7e5",
      "gasPrice": {
        "_hex": "0xba3939b40"
      },
      "gasLimit": {
        "_hex": "0x249f0"
      },
      "to": null,
      "value": {
        "_hex": "0x29a2241af62c0000"
      },
      "nonce": 0,
      "data": "0x",
      "r": "0x84b3deba7c6eaf55c6ca09539c2fddbbacbd562d529c074d7a52831ecd464c81",
      "s": "0x5fbe1e655bc83434a70338bd7673dfd5b13aeea6a95319c99925e01fb3910f61",
      "v": 27,
      "creates": "0xeCfD49E5fe88BccABc13d548552c2b906b196334",
      "raw": "0xf85980850ba3939b40830249f0808829a2241af62c0000801ba084b3deba7c6eaf55c6ca09539c2fddbbacbd562d529c074d7a52831ecd464c81a05fbe1e655bc83434a70338bd7673dfd5b13aeea6a95319c99925e01fb3910f61",
      "networkId": 0,
      "chainId": 0
    }
  ]
}