{
  "hash": "0x8a022786f5cafaf037d4fae9a3003646661bc9166d0c5ef81949e0837133a849",
  "parentHash": "0x2b516e54b3c70faa856e80989fe0ae87ff174f81cb46f6eb1500d9d78dd25dfe",
  "number": 83869,
  "timestamp": 1439542047,
  "nonce": "0xa3461e2c5914c6e2",
  "difficulty": 2455065309295,
  "gasLimit": {
    "_hex": "0x2fefd8"
  },
  "gasUsed": {
    "_hex": "0xf618"
  },
  "miner": "0x7E6930B63D03e88F5928C5cd6ee3FCee4D714F7F",
  "extraData": "0x",
  "transactions": [
    {
      "hash": "0x85ca7207cb938547959ae8afa08d170d1a7c7f39f4bafed986223347c2a11132",
      "blockHash": "0x8a022786f5cafaf037d4fae9a3003646661bc9166d0c5ef81949e0837133a849",
      "blockNumber": 83869,
      "transactionIndex": 0,
      "confirmations": null,
      "from": "0x2910543Af39abA0Cd09dBb2D50200b3E800A63D2",
      "gasPrice": {
        "_hex": "0xd226ee556"
      },
      "gasLimit": {
        "_hex": "0x5208"
      },
      "to": "0x4835b2f84407499A34fE1240dd3148257bFa9E87",
      "value": {
        "_hex": "0x2b5d1eb9d79a78000"
      },
      "nonce": 536,
      "data": "0x",
      "r": "0x6a2fb74f52d467088b0eaa600bfccd4d7e9de9d37c4460d376cb2adfb101ba6e",
      "s": "0x55f83f2cd7cd48ce262f4151f63181427b6f5090592d3ff4bb12c2d60463738a",
      "v": 27,
      "creates": null,
      "raw": "0xf86f820218850d226ee556825208944835b2f84407499a34fe1240dd3148257bfa9e878902b5d1eb9d79a78000801ba06a2fb74f52d467088b0eaa600bfccd4d7e9de9d37c4460d376cb2adfb101ba6ea055f83f2cd7cd48ce262f4151f63181427b6f5090592d3ff4bb12c2d60463738a",
      "networkId": 0,
      "chainId": 0
    },
    {
      "hash": "0x538f7f91a9f1a271daef78c03c85c6a2907641ce8846489c4b5bd454e20fc888",
      "blockHash": "0x8a022786f5cafaf037d4fae9a3003646661bc9166d0c5ef81949e0837133a849",
      "blockNumber": 83869,
      "transactionIndex": 1,
      "confirmations": null,
      "from": "0x2910543Af39abA0Cd09dBb2D50200b3E800A63D2",
      "gasPrice": {
        "_hex": "0xd226ee556"
      },
      "gasLimit": {
        "_hex": "0x5208"
      },
      "to": "0x4decb82e0a96EDa47a359A953d5b630532e18cAC",
      "value": {
        "_hex": "0xdcef33a6f838000"
      },
      "nonce": 537,
      "data": "0x",
      "r": "0x7e6f95dd5ad3370c96cddc393c15b546810f079c63cdccfa918fa3fba3809232",
      "s": "0x414f571a31b2b89fb06cfeac80f7462691bba5170f15f62b1bf6967d8d616aca",
      "v": 27,
      "creates": null,
      "raw": "0xf86e820219850d226ee556825208944decb82e0a96eda47a359a953d5b630532e18cac880dcef33a6f838000801ba07e6f95dd5ad3370c96cddc393c15b546810f079c63cdccfa918fa3fba3809232a0414f571a31b2b89fb06cfeac80f7462691bba5170f15f62b1bf6967d8d616aca",
      "networkId": 0,
      "chainId": 0
    },
    {
      "hash": "0x0b1ee5a1eaa17df9c64a1c4405e25e29c7d628ee2d3c67e446791296d7f5af3b",
      "blockHash": "0x8a022786f5cafaf037d4fae9a3003646661bc9166d0c5ef81949e0837133a849",
      "blockNumber": 83869,
      "transactionIndex": 2,
      "confirmations": null,
      "from": "0xcd0Af3474e22F069EC3407870DD770443d5b12B0",
      "gasPrice": {
        "_hex": "0xcb37afa79"
      },
      "gasLimit": {
        "_hex": "0x7a120"
      },
      "to": "0x0bCa038BF4ACAd3Cbf73463EccC7717dDCDc3D83",
      "value": {
        "_hex": "0x98a7d9b8314c0000"
      },
      "nonce": 11,
      "data": "0x",
      "r": "0xd9c614a38e3b51660aeb72abc97cc3e6cfeff75cc2acc1cea14ab208963160e7",
      "s": "0x41b2ec07465d639f8574eb7a70ad228402737f9effbc7ecb38188a747ef7ae75",
      "v": 28,
      "creates": null,
      "raw": "0xf86d0b850cb37afa798307a120940bca038bf4acad3cbf73463eccc7717ddcdc3d838898a7d9b8314c0000801ca0d9c614a38e3b51660aeb72abc97cc3e6cfeff75cc2acc1cea14ab208963160e7a041b2ec07465d639f8574eb7a70ad228402737f9effbc7ecb38188a747ef7ae75",
      "networkId": 0,
      "chainId": 0
    }
  ]
}