{
  "hash": "0x0e8991ae62ba73e04f9cb444b8eeee16b333a6812258c5739e58365ad22910d3",
  "parentHash": "0x28231e1ce440bdb15e2b58a9549ebba49b1c2ea4a8484d1185d2f29f7baddbef",
  "number": 79228,
  "timestamp": 1439466366,
  "nonce": "0xd2532adc3c795b92",
  "difficulty": 2324560126481,
  "gasLimit": {
    "_hex": "0x2fefd8"
  },
  "gasUsed": {
    "_hex": "0x5208"
  },
  "miner": "0x31995C46B15C84523cDEE26f49A681b8237e43F5",
  "extraData": "0x476574682f76312e302e312f77696e646f77732f676f312e342e32",
  "transactions": [
    {
      "hash": "0x05b1d7077f45581a490689cb55b5ed0b1d5c0bb370d37d1f82391cd734ff6882",
      "blockHash": "0x0e8991ae62ba73e04f9cb444b8eeee16b333a6812258c5739e58365ad22910d3",
      "blockNumber": 79228,
      "transactionIndex": 0,
      "confirmations": null,
      "from": "0x26163E84886A136fC8034eB4e9F1cc00b1D345f1",
      "gasPrice": {
        "_hex": "0xd5405c3ea"
      },
      "gasLimit": {
        "_hex": "0x15f90"
      },
      "to": "0x6d921977dEFE5f4e0682CA512De1D07b1f4802E1",
      "value": {
        "_hex": "0x38d7ea4c68000"
      },
      "nonce": 4,
      "data": "0x",
      "r": "0xdef12fa929984c5446338eb2d8aa226c19deaa6abfddd0dccdeab38d3e553c23",
      "s": "0x6bc399f0bc3ee3e7a299e78cefaec70c130547fde6a6c70c52ce41d5ef004201",
      "v": 28,
      "creates": null,
      "raw": "0xf86c04850d5405c3ea83015f90946d921977defe5f4e0682ca512de1d07b1f4802e187038d7ea4c68000801ca0def12fa929984c5446338eb2d8aa226c19deaa6abfddd0dccdeab38d3e553c23a06bc399f0bc3ee3e7a299e78cefaec70c130547fde6a6c70c52ce41d5ef004201",
      "networkId": 0,
      "chainId": 0
    }
  ]
}