{
  "hash": "0x3132c042f8e2930389dae537b94ef24394a68464cd9bf8c157b88195fd10a1d0",
  "parentHash": "0xa4035e92d4a363b84cfbdf24274bcb5f9e674c322735fa2ab48b1e335a4aeac0",
  "number": 55398,
  "timestamp": 1439070013,
  "nonce": "0x78a95416ca2a5129",
  "difficulty": 1627421007084,
  "gasLimit": {
    "_hex": "0x2fefd5"
  },
  "gasUsed": {
    "_hex": "0x5208"
  },
  "miner": "0xBb12b5a9B85D4AB8CDE6056E9c1b2a4a337D2261",
  "extraData": "0x476574682f76312e302e312d36393865393864392f6c696e75782f676f312e34",
  "transactions": [
    {
      "hash": "0x124d028344c8ff7e80e9e5874332e4cb6f6f6c374c273fab396a6093d55c0fab",
      "blockHash": "0x3132c042f8e2930389dae537b94ef24394a68464cd9bf8c157b88195fd10a1d0",
      "blockNumber": 55398,
      "transactionIndex": 0,
      "confirmations": null,
      "from": "0x03B35D960c861Fe987C50380d76db9D6Ae1fa510",
      "gasPrice": {
        "_hex": "0xd91de69f4"
      },
      "gasLimit": {
        "_hex": "0x5208"
      },
      "to": "0xF1d95cec972C7Fc9Deec5481fC17AD8a31bb05C3",
      "value": {
        "_hex": "0x71ec10644c2775800"
      },
      "nonce": 3,
      "data": "0x",
      "r": "0xd6d82b0cf4a7f2ceda49d43fd0022348facf3672fd694310ec3c9e0664c4c30b",
      "s": "0x29de6c4b90a444c2572d1e862c58a135b1a4a060002b4867f8078d47f4315414",
      "v": 27,
      "creates": null,
      "raw": "0xf86d03850d91de69f482520894f1d95cec972c7fc9deec5481fc17ad8a31bb05c389071ec10644c2775800801ba0d6d82b0cf4a7f2ceda49d43fd0022348facf3672fd694310ec3c9e0664c4c30ba029de6c4b90a444c2572d1e862c58a135b1a4a060002b4867f8078d47f4315414",
      "networkId": 0,
      "chainId": 0
    }
  ]
}