{
  "hash": "0xc3a73ef0a626c59d950479cb42821ba16b647c629fbf279ba036206aa6903079",
  "parentHash": "0xc740fc3d609811b7977b4b7a6d7f60dd0182c2f244d3daf1fd5431c0305909d2",
  "number": 94369,
  "timestamp": 1439707108,
  "nonce": "0x19742cb538222f34",
  "difficulty": 3484986580589,
  "gasLimit": {
    "_hex": "0x2fefd8"
  },
  "gasUsed": {
    "_hex": "0x5208"
  },
  "miner": "0xe6A7a1d47ff21B6321162AEA7C6CB457D5476Bca",
  "extraData": "0x476574682f76312e302e312d38326566323666362f6c696e75782f676f312e34",
  "transactions": [
    {
      "hash": "0x85fb144aa7337d2ad1d61a29e4da198bb1586a93c8d95c664454ab5da445cd05",
      "blockHash": "0xc3a73ef0a626c59d950479cb42821ba16b647c629fbf279ba036206aa6903079",
      "blockNumber": 94369,
      "transactionIndex": 0,
      "confirmations": null,
      "from": "0x2910543Af39abA0Cd09dBb2D50200b3E800A63D2",
      "gasPrice": {
        "_hex": "0xd2657c375"
      },
      "gasLimit": {
        "_hex": "0x5208"
      },
      "to": "0x09D6b0F8DE057aC9116C0f321eA4017444de0801",
      "value": {
        "_hex": "0x4be4d5630232ff8000"
      },
      "nonce": 874,
      "data": "0x",
      "r": "0x59188d31a3aff380aa24df8f8ffc939193ed5772e161e5470678e5a6946fcf27",
      "s": "0x0aff1997e08fb93b0806957ca22a6b3e0f9e3586e272e5cc65ab98a4678e4124",
      "v": 27,
      "creates": null,
      "raw": "0xf86f82036a850d2657c3758252089409d6b0f8de057ac9116c0f321ea4017444de0801894be4d5630232ff8000801ba059188d31a3aff380aa24df8f8ffc939193ed5772e161e5470678e5a6946fcf27a00aff1997e08fb93b0806957ca22a6b3e0f9e3586e272e5cc65ab98a4678e4124",
      "networkId": 0,
      "chainId": 0
    }
  ]
}