{
  "hash": "0xba64d1c71d1d47e3b837d2911e064fa4e8b7bca2c50c679051bcfbccf519a3f3",
  "parentHash": "0xf6371d0e94232e271b9979ad2f81bb2afc4f5538b695746f192087a8ed134824",
  "number": 71642,
  "timestamp": 1439339443,
  "nonce": "0x01b075604e819e6c",
  "difficulty": 2179303776817,
  "gasLimit": {
    "_hex": "0x2fefd8"
  },
  "gasUsed": {
    "_hex": "0x93a7"
  },
  "miner": "0xf927a40C8B7F6E07c5af7FA2155B4864a4112B13",
  "extraData": "0x",
  "transactions": [
    {
      "hash": "0x68f665c300cb1340917ef6765dce2826d53bad432e595718cceea9c20e302666",
      "blockHash": "0xba64d1c71d1d47e3b837d2911e064fa4e8b7bca2c50c679051bcfbccf519a3f3",
      "blockNumber": 71642,
      "transactionIndex": 0,
      "confirmations": null,
      "from": "0x17580B766f7453525ca4C6A88b01b50570EA088C",
      "gasPrice": {
        "_hex": "0xd29a5d91c"
      },
      "gasLimit": {
        "_hex": "0x61a80"
      },
      "to": "0x5Fe5B7546D1628f7348B023A0393de1FC825A4fD",
      "value": {
        "_hex": "0x1bc16d674ec80000"
      },
      "nonce": 241,
      "data": "0xb595b8b50000000000000000000000000000000000000000000000000000000000000000",
      "r": "0xfcf4aaa8eed3eea73bb58a31966dff9d0b674a4d740b306a8f4971040b6f8414",
      "s": "0x3603f8133ea7fa669e3803338f04eeb5774dfc4ef4cd3f5f5ca92ae96b0cc326",
      "v": 28,
      "creates": null,
      "raw": "0xf89281f1850d29a5d91c83061a80945fe5b7546d1628f7348b023a0393de1fc825a4fd881bc16d674ec80000a4b595b8b500000000000000000000000000000000000000000000000000000000000000001ca0fcf4aaa8eed3eea73bb58a31966dff9d0b674a4d740b306a8f4971040b6f8414a03603f8133ea7fa669e3803338f04eeb5774dfc4ef4cd3f5f5ca92ae96b0cc326",
      "networkId": 0,
      "chainId": 0
    }
  ]
}