{
  "hash": "0x4d84567d417263eadd9c8ade67fee6cdc6e2b1bcca7944db4601f77ac19312a7",
  "parentHash": "0xf3022fa9ef64311a7470470a9264fb29a5ff6988c33d02ff2610594aa7e0f235",
  "number": 60945,
  "timestamp": 1439164114,
  "nonce": "0x5c03a8f81bb2df63",
  "difficulty": 1738860198233,
  "gasLimit": {
    "_hex": "0x2fefd8"
  },
  "gasUsed": {
    "_hex": "0x5208"
  },
  "miner": "0xE4BA8cF48d11D4cd54fba46C5331b5477DbF5539",
  "extraData": "0x476574682f76312e302e312f77696e646f77732f676f312e342e32",
  "transactions": [
    {
      "hash": "0x5b0d3ed0d0a3bffcc1cb5c69fe796f83731902b155e28aa4c863fb837f92a7f4",
      "blockHash": "0x4d84567d417263eadd9c8ade67fee6cdc6e2b1bcca7944db4601f77ac19312a7",
      "blockNumber": 60945,
      "transactionIndex": 0,
      "confirmations": null,
      "from": "0x120A270bbC009644e35F0bB6ab13f95b8199c4ad",
      "gasPrice": {
        "_hex": "0xdc13be285"
      },
      "gasLimit": {
        "_hex": "0x15f90"
      },
      "to": "0x7AF34bF553440a68cccE97024F568dcd1f9eA025",
      "value": {
        "_hex": "0xde0b6b3a7640000"
      },
      "nonce": 58,
      "data": "0x",
      "r": "0xb7350b12a2e1754939d9ca9bd262f959a90393ea865661cbcafe380982a2000f",
      "s": "0x6030221abee0e6561ad2132793a0d67137716889446f975505b01e45c3fa71de",
      "v": 28,
      "creates": null,
      "raw": "0xf86d3a850dc13be28583015f90947af34bf553440a68ccce97024f568dcd1f9ea025880de0b6b3a7640000801ca0b7350b12a2e1754939d9ca9bd262f959a90393ea865661cbcafe380982a2000fa06030221abee0e6561ad2132793a0d67137716889446f975505b01e45c3fa71de",
      "networkId": 0,
      "chainId": 0
    }
  ]
}