{
  "hash": "0x908da78f431d69b26e08ff612a025a14c667b7e9320610a03e7d518699553554",
  "parentHash": "0xfe2160ceae1dc307ffc8de3c82e7a1e0940efd951825a949e0bdc4d42ee22116",
  "number": 60630,
  "timestamp": 1439159063,
  "nonce": "0x66d8266089542191",
  "difficulty": 1732992047749,
  "gasLimit": {
    "_hex": "0x2fefd8"
  },
  "gasUsed": {
    "_hex": "0x99cf0"
  },
  "miner": "0xf927a40C8B7F6E07c5af7FA2155B4864a4112B13",
  "extraData": "0x476574682f76312e302e312f6c696e75782f676f312e342e32",
  "transactions": [
    {
      "hash": "0x5e43c0710f3821eb64c98aca6938807f665dc1e357be3e8e5d46a818b0de88d2",
      "blockHash": "0x908da78f431d69b26e08ff612a025a14c667b7e9320610a03e7d518699553554",
      "blockNumber": 60630,
      "transactionIndex": 0,
      "confirmations": null,
      "from": "0x2910543Af39abA0Cd09dBb2D50200b3E800A63D2",
      "gasPrice": {
        "_hex": "0xccd473741"
      },
      "gasLimit": {
        "_hex": "0x5208"
      },
      "to": "0x7AF34bF553440a68cccE97024F568dcd1f9eA025",
      "value": {
        "_hex": "0xdcef33a6f838000"
      },
      "nonce": 60,
      "data": "0x",
      "r": "0xb3c55184e2eb3e24b34f7353befaa02a4ba47d3f6e6d95ac7aa2eba75597a657",
      "s": "0x715821807a197871f7da6f41c572dc2701a417e90da46de9b353400d6e2389f2",
      "v": 27,
      "creates": null,
      "raw": "0xf86c3c850ccd473741825208947af34bf553440a68ccce97024f568dcd1f9ea025880dcef33a6f838000801ba0b3c55184e2eb3e24b34f7353befaa02a4ba47d3f6e6d95ac7aa2eba75597a657a0715821807a197871f7da6f41c572dc2701a417e90da46de9b353400d6e2389f2",
      "networkId": 0,
      "chainId": 0
    },
    {
      "hash": "0x70162866af0ec152e30c458a6909142d5180319048feddd297cbb23dd32b04f9",
      "blockHash": "0x908da78f431d69b26e08ff612a025a14c667b7e9320610a03e7d518699553554",
      "blockNumber": 60630,
      "transactionIndex": 1,
      "confirmations": null,
      "from": "0x2910543Af39abA0Cd09dBb2D50200b3E800A63D2",
      "gasPrice": {
        "_hex": "0xccd473741"
      },
      "gasLimit": {
        "_hex": "0x5208"
      },
      "to": "0xa4E9eCc29C23A348b81BC0631277472825386D55",
      "value": {
        "_hex": "0xd719f3a90f0ff8000"
      },
      "nonce": 61,
      "data": "0x",
      "r": "0xe13af8b75d9358f4a93379fdb650f605943cf28dd540de50da3ce509c16d93b3",
      "s": "0x46421d98adba61f2b62289bc1efaa5eff057b896cc0d5e962c376960924165b5",
      "v": 27,
      "creates": null,
      "raw": "0xf86d3d850ccd47374182520894a4e9ecc29c23a348b81bc0631277472825386d55890d719f3a90f0ff8000801ba0e13af8b75d9358f4a93379fdb650f605943cf28dd540de50da3ce509c16d93b3a046421d98adba61f2b62289bc1efaa5eff057b896cc0d5e962c376960924165b5",
      "networkId": 0,
      "chainId": 0
    },
    {
      "hash": "0x0430060156cd63fdd3d4cff0134285e97fbe8efb6c6ca0489520139b9f4d968a",
      "blockHash": "0x908da78f431d69b26e08ff612a025a14c667b7e9320610a03e7d518699553554",
      "blockNumber": 60630,
      "transactionIndex": 2,
      "confirmations": null,
      "from": "0x2910543Af39abA0Cd09dBb2D50200b3E800A63D2",
      "gasPrice": {
        "_hex": "0xccd473741"
      },
      "gasLimit": {
        "_hex": "0x5208"
      },
      "to": "0xbCc8aC4d2A4c7CeEF04B3aa5FaBB7c0535094365",
      "value": {
        "_hex": "0x15491966f76f754000"
      },
      "nonce": 62,
      "data": "0x",
      "r": "0x9598aa5d52160f802a2d24a72b945be401c2914b11b69be0af0b3996f9748e05",
      "s": "0x51177a743988ca2a0249eb6a91e542718c6fd97858fb71e63592b0097ed241a6",
      "v": 27,
      "creates": null,
      "raw": "0xf86d3e850ccd47374182520894bcc8ac4d2a4c7ceef04b3aa5fabb7c05350943658915491966f76f754000801ba09598aa5d52160f802a2d24a72b945be401c2914b11b69be0af0b3996f9748e05a051177a743988ca2a0249eb6a91e542718c6fd97858fb71e63592b0097ed241a6",
      "networkId": 0,
      "chainId": 0
    },
    {
      "hash": "0x38167435629bc8cd51f08397e7f393d21d53dcfcb83fdd27290526a0800e417e",
      "blockHash": "0x908da78f431d69b26e08ff612a025a14c667b7e9320610a03e7d518699553554",
      "blockNumber": 60630,
      "transactionIndex": 3,
      "confirmations": null,
      "from": "0x2910543Af39abA0Cd09dBb2D50200b3E800A63D2",
      "gasPrice": {
        "_hex": "0xccd473741"
      },
      "gasLimit": {
        "_hex": "0x5208"
      },
      "to": "0x333Ad1596401e05Aea2d36Ca47318eF4Cd2cB3DF",
      "value": {
        "_hex": "0xf5b820589ec498000"
      },
      "nonce": 63,
      "data": "0x",
      "r": "0x0da0bc21f453c9281f6359c13f5a820d66167d8e1365cbe63cbd665b5c8ea8fb",
      "s": "0x77ca45d0bad2ea06fe813cbaea95a0fc996a7e2662f9987a8a22843a8a6bfd51",
      "v": 27,
      "creates": null,
      "raw": "0xf86d3f850ccd47374182520894333ad1596401e05aea2d36ca47318ef4cd2cb3df890f5b820589ec498000801ba00da0bc21f453c9281f6359c13f5a820d66167d8e1365cbe63cbd665b5c8ea8fba077ca45d0bad2ea06fe813cbaea95a0fc996a7e2662f9987a8a22843a8a6bfd51",
      "networkId": 0,
      "chainId": 0
    },
    {
      "hash": "0x2046a4edf38db67c212daad0521fbe1b05fd0464fa808b04eaa73d266798adc7",
      "blockHash": "0x908da78f431d69b26e08ff612a025a14c667b7e9320610a03e7d518699553554",
      "blockNumber": 60630,
      "transactionIndex": 4,
      "confirmations": null,
      "from": "0x2910543Af39abA0Cd09dBb2D50200b3E800A63D2",
      "gasPrice": {
        "_hex": "0xccd473741"
      },
      "gasLimit": {
        "_hex": "0x5208"
      },
      "to": "0x431f45FF1650D680041a5034211e066e89b7aAdd",
      "value": {
        "_hex": "0x11c37937e08000"
      },
      "nonce": 64,
      "data": "0x",
      "r": "0x41d5faba78dfeb661af03851d14755ba42514be65bbae9b9a94e10acc0841780",
      "s": "0x58dd5fd89fa34006ad3de5b9ab37e704ce1c3eb3e7d20676a4ca3fbae159913c",
      "v": 27,
      "creates": null,
      "raw": "0xf86b40850ccd47374182520894431f45ff1650d680041a5034211e066e89b7aadd8711c37937e08000801ba041d5faba78dfeb661af03851d14755ba42514be65bbae9b9a94e10acc0841780a058dd5fd89fa34006ad3de5b9ab37e704ce1c3eb3e7d20676a4ca3fbae159913c",
      "networkId": 0,
      "chainId": 0
    },
    {
      "hash": "0x312adf2ddf9b91b881dd889a8aec6644d54f37f6a8b47b77aa63d30969361117",
      "blockHash": "0x908da78f431d69b26e08ff612a025a14c667b7e9320610a03e7d518699553554",
      "blockNumber": 60630,
      "transactionIndex": 5,
      "confirmations": null,
      "from": "0x2910543Af39abA0Cd09dBb2D50200b3E800A63D2",
      "gasPrice": {
        "_hex": "0xccd473741"
      },
      "gasLimit": {
        "_hex": "0x5208"
      },
      "to": "0xFfeef280ABabd07bD185B0ff831Ac17b8020d365",
      "value": {
        "_hex": "0x1a4d1a5bda52000"
      },
      "nonce": 65,
      "data": "0x",
      "r": "0x6ea8c27fb000036ea199292fdaec984cec8107d3414c648c97d7a0c97d20dec9",
      "s": "0x29b37fea52e4f63f6bee517fe4a8c042ac074fc68894a963f0b7346820020bba",
      "v": 27,
      "creates": null,
      "raw": "0xf86c41850ccd47374182520894ffeef280ababd07bd185b0ff831ac17b8020d3658801a4d1a5bda52000801ba06ea8c27fb000036ea199292fdaec984cec8107d3414c648c97d7a0c97d20dec9a029b37fea52e4f63f6bee517fe4a8c042ac074fc68894a963f0b7346820020bba",
      "networkId": 0,
      "chainId": 0
    },
    {
      "hash": "0xf753ceaf663d961030a30ba39b57e3e1108f63d52a73eae6e4846f21417b6792",
      "blockHash": "0x908da78f431d69b26e08ff612a025a14c667b7e9320610a03e7d518699553554",
      "blockNumber": 60630,
      "transactionIndex": 6,
      "confirmations": null,
      "from": "0x2910543Af39abA0Cd09dBb2D50200b3E800A63D2",
      "gasPrice": {
        "_hex": "0xccd473741"
      },
      "gasLimit": {
        "_hex": "0x5208"
      },
      "to": "0xB8CE40693C20B22C796C220C2914b4325cF109a5",
      "value": {
        "_hex": "0xdcef33a6f838000"
      },
      "nonce": 66,
      "data": "0x",
      "r": "0xc108191ceea5b3794a8a4f20fadcf63edc37c5d460552451312f37e3db35b745",
      "s": "0x0aeb3ec9a1427381aa1e38947ec4130d07227a476ed6956dedc1b5d232b16940",
      "v": 27,
      "creates": null,
      "raw": "0xf86c42850ccd47374182520894b8ce40693c20b22c796c220c2914b4325cf109a5880dcef33a6f838000801ba0c108191ceea5b3794a8a4f20fadcf63edc37c5d460552451312f37e3db35b745a00aeb3ec9a1427381aa1e38947ec4130d07227a476ed6956dedc1b5d232b16940",
      "networkId": 0,
      "chainId": 0
    },
    {
      "hash": "0xdb65fc52a86bb5d11fa9cc5b09e09df265275c2cbb5d774564e5b133308d8e62",
      "blockHash": "0x908da78f431d69b26e08ff612a025a14c667b7e9320610a03e7d518699553554",
      "blockNumber": 60630,
      "transactionIndex": 7,
      "confirmations": null,
      "from": "0x2910543Af39abA0Cd09dBb2D50200b3E800A63D2",
      "gasPrice": {
        "_hex": "0xccd473741"
      },
      "gasLimit": {
        "_hex": "0x5208"
      },
      "to": "0x54352A818Dd27c9461D18340589E5721864a47E8",
      "value": {
        "_hex": "0xdcef33a6f838000"
      },
      "nonce": 67,
      "data": "0x",
      "r": "0x61ee0c95044b3f2d2f4e29dfc1ff7c8920b0b892d38187a8b9e5bc8242a69ad3",
      "s": "0x586bf0fc58d0091dd36175d1d70554b6edef513a0be2863be56c1ee4401cb215",
      "v": 28,
      "creates": null,
      "raw": "0xf86c43850ccd4737418252089454352a818dd27c9461d18340589e5721864a47e8880dcef33a6f838000801ca061ee0c95044b3f2d2f4e29dfc1ff7c8920b0b892d38187a8b9e5bc8242a69ad3a0586bf0fc58d0091dd36175d1d70554b6edef513a0be2863be56c1ee4401cb215",
      "networkId": 0,
      "chainId": 0
    },
    {
      "hash": "0xf6c51ff871bab039b48899a9f7cb36b593b93c68d6f535d161d2e54268ac70ab",
      "blockHash": "0x908da78f431d69b26e08ff612a025a14c667b7e9320610a03e7d518699553554",
      "blockNumber": 60630,
      "transactionIndex": 8,
      "confirmations": null,
      "from": "0x2910543Af39abA0Cd09dBb2D50200b3E800A63D2",
      "gasPrice": {
        "_hex": "0xccd473741"
      },
      "gasLimit": {
        "_hex": "0x5208"
      },
      "to": "0xa9f5E7bf6Cbf6fEc55B30850Eb492b47A376d050",
      "value": {
        "_hex": "0xdcef33a6f838000"
      },
      "nonce": 68,
      "data": "0x",
      "r": "0x6c26c21f86477a697186ba1903759e482af379c16487b73caf23e058ac8e85ae",
      "s": "0x3c2da4b65ee5b4ceda693421a44438df9236431ea59b481006903821f795d401",
      "v": 27,
      "creates": null,
      "raw": "0xf86c44850ccd47374182520894a9f5e7bf6cbf6fec55b30850eb492b47a376d050880dcef33a6f838000801ba06c26c21f86477a697186ba1903759e482af379c16487b73caf23e058ac8e85aea03c2da4b65ee5b4ceda693421a44438df9236431ea59b481006903821f795d401",
      "networkId": 0,
      "chainId": 0
    },
    {
      "hash": "0x7fa779fc6e80f5bec8a1f3c83c58351ec112d064e6de077c71fcb9ec6bcae3ac",
      "blockHash": "0x908da78f431d69b26e08ff612a025a14c667b7e9320610a03e7d518699553554",
      "blockNumber": 60630,
      "transactionIndex": 9,
      "confirmations": null,
      "from": "0x2910543Af39abA0Cd09dBb2D50200b3E800A63D2",
      "gasPrice": {
        "_hex": "0xccd473741"
      },
      "gasLimit": {
        "_hex": "0x5208"
      },
      "to": "0xD31D16701B62A3065BA1Edb26fC367A77B18Ab72",
      "value": {
        "_hex": "0xb45783a648338000"
      },
      "nonce": 69,
      "data": "0x",
      "r": "0x9340c28ded1e7b6bb4c51c41508b395ee00701820b0043efbe4c7a5d509b79d4",
      "s": "0x4db654ec4a96b9352cbe1be7ed7c6ae09210f65e9a67b00c9c767cc8f8d0e59f",
      "v": 27,
      "creates": null,
      "raw": "0xf86c45850ccd47374182520894d31d16701b62a3065ba1edb26fc367a77b18ab7288b45783a648338000801ba09340c28ded1e7b6bb4c51c41508b395ee00701820b0043efbe4c7a5d509b79d4a04db654ec4a96b9352cbe1be7ed7c6ae09210f65e9a67b00c9c767cc8f8d0e59f",
      "networkId": 0,
      "chainId": 0
    },
    {
      "hash": "0x1ac01bb33214021aaa76c168cbd35e0aaece81ada438731d0aae5e914a555a5d",
      "blockHash": "0x908da78f431d69b26e08ff612a025a14c667b7e9320610a03e7d518699553554",
      "blockNumber": 60630,
      "transactionIndex": 10,
      "confirmations": null,
      "from": "0x2910543Af39abA0Cd09dBb2D50200b3E800A63D2",
      "gasPrice": {
        "_hex": "0xccd473741"
      },
      "gasLimit": {
        "_hex": "0x5208"
      },
      "to": "0xAd9DbFc10FaF86e12b09d148F456a5568609b7Ab",
      "value": {
        "_hex": "0xd8d714f39e429f8000"
      },
      "nonce": 70,
      "data": "0x",
      "r": "0xa34b0648e548a729b07e6f1ec04403895d50a7a98de826d71ee3f2f2ecfc05e4",
      "s": "0x08a71f6ce05e96e1fdf14744a65b96ada15583a368604166fb6afa84e68080bd",
      "v": 27,
      "creates": null,
      "raw": "0xf86d46850ccd47374182520894ad9dbfc10faf86e12b09d148f456a5568609b7ab89d8d714f39e429f8000801ba0a34b0648e548a729b07e6f1ec04403895d50a7a98de826d71ee3f2f2ecfc05e4a008a71f6ce05e96e1fdf14744a65b96ada15583a368604166fb6afa84e68080bd",
      "networkId": 0,
      "chainId": 0
    },
    {
      "hash": "0x8a8483df087a1a113146a71e74958495401844c7400293d900be24a634ae4551",
      "blockHash": "0x908da78f431d69b26e08ff612a025a14c667b7e9320610a03e7d518699553554",
      "blockNumber": 60630,
      "transactionIndex": 11,
      "confirmations": null,
      "from": "0x2910543Af39abA0Cd09dBb2D50200b3E800A63D2",
      "gasPrice": {
        "_hex": "0xccd473741"
      },
      "gasLimit": {
        "_hex": "0x5208"
      },
      "to": "0xB8CE40693C20B22C796C220C2914b4325cF109a5",
      "value": {
        "_hex": "0x1b1ae3baab5bd1f8000"
      },
      "nonce": 71,
      "data": "0x",
      "r": "0xe5280ea803be95062f94e0bb4d2ce2633e39a5f2be8999a9f6c2c10d6b834755",
      "s": "0x67c6b92a372022bc87886b41435e4941efa3b98d8d7d3957a9e07f6118ddced3",
      "v": 27,
      "creates": null,
      "raw": "0xf86e47850ccd47374182520894b8ce40693c20b22c796c220c2914b4325cf109a58a01b1ae3baab5bd1f8000801ba0e5280ea803be95062f94e0bb4d2ce2633e39a5f2be8999a9f6c2c10d6b834755a067c6b92a372022bc87886b41435e4941efa3b98d8d7d3957a9e07f6118ddced3",
      "networkId": 0,
      "chainId": 0
    },
    {
      "hash": "0x44f4938ab08b8bb87006fda2589b74cf7c787b175af301a7d1f2411f7d39b307",
      "blockHash": "0x908da78f431d69b26e08ff612a025a14c667b7e9320610a03e7d518699553554",
      "blockNumber": 60630,
      "transactionIndex": 12,
      "confirmations": null,
      "from": "0x2910543Af39abA0Cd09dBb2D50200b3E800A63D2",
      "gasPrice": {
        "_hex": "0xccd473741"
      },
      "gasLimit": {
        "_hex": "0x5208"
      },
      "to": "0xF070bCfeD253b1DDd1989C2Db18B5cD92Df0bDc6",
      "value": {
        "_hex": "0xd2d41d9c42c78000"
      },
      "nonce": 72,
      "data": "0x",
      "r": "0x8194df6730f35dce8714744de973d2cfbbdcf72a272cc95a786a8dc1b73864b3",
      "s": "0x7fbd773e81e511c6cb4d885c42e42b64ca9a21e3a4ef936db2a3df62fa8da855",
      "v": 28,
      "creates": null,
      "raw": "0xf86c48850ccd47374182520894f070bcfed253b1ddd1989c2db18b5cd92df0bdc688d2d41d9c42c78000801ca08194df6730f35dce8714744de973d2cfbbdcf72a272cc95a786a8dc1b73864b3a07fbd773e81e511c6cb4d885c42e42b64ca9a21e3a4ef936db2a3df62fa8da855",
      "networkId": 0,
      "chainId": 0
    },
    {
      "hash": "0xfcdfd44ee630d3c343e4622393eeda23d0dcac34738866914f74e4f5412bac86",
      "blockHash": "0x908da78f431d69b26e08ff612a025a14c667b7e9320610a03e7d518699553554",
      "blockNumber": 60630,
      "transactionIndex": 13,
      "confirmations": null,
      "from": "0x2910543Af39abA0Cd09dBb2D50200b3E800A63D2",
      "gasPrice": {
        "_hex": "0xccd473741"
      },
      "gasLimit": {
        "_hex": "0x5208"
      },
      "to": "0xF8FFFdCB6b8B88372B6aE42257f66D93E5189AC9",
      "value": {
        "_hex": "0x56bb59ab42b2f8000"
      },
      "nonce": 73,
      "data": "0x",
      "r": "0x30877f7a39dc3f3fd617a3253de10493bbe8253142feb57d93a03985f2510115",
      "s": "0x568b73f1911baaedbc8af60e019384ff4a2c14a2f63b03a065627da9a22edbea",
      "v": 28,
      "creates": null,
      "raw": "0xf86d49850ccd47374182520894f8fffdcb6b8b88372b6ae42257f66d93e5189ac989056bb59ab42b2f8000801ca030877f7a39dc3f3fd617a3253de10493bbe8253142feb57d93a03985f2510115a0568b73f1911baaedbc8af60e019384ff4a2c14a2f63b03a065627da9a22edbea",
      "networkId": 0,
      "chainId": 0
    },
    {
      "hash": "0x4e432df7e627c9d0342849188a384f527961a8357f7ef19106535a1fa443c5a7",
      "blockHash": "0x908da78f431d69b26e08ff612a025a14c667b7e9320610a03e7d518699553554",
      "blockNumber": 60630,
      "transactionIndex": 14,
      "confirmations": null,
      "from": "0x2910543Af39abA0Cd09dBb2D50200b3E800A63D2",
      "gasPrice": {
        "_hex": "0xccd473741"
      },
      "gasLimit": {
        "_hex": "0x5208"
      },
      "to": "0x07838704200ede499F5eAa5ED0D8f9A1f44F7Cf8",
      "value": {
        "_hex": "0x20324bb546e8000"
      },
      "nonce": 74,
      "data": "0x",
      "r": "0x327d75fc3be5027092c0ffb8a848d9897da03a510932f013ddb75b987cabd6b6",
      "s": "0x2b054394db9bef01e7226149f10f3b5cf3e8aeb73f86b45be524acf8aacdb46e",
      "v": 28,
      "creates": null,
      "raw": "0xf86c4a850ccd4737418252089407838704200ede499f5eaa5ed0d8f9a1f44f7cf888020324bb546e8000801ca0327d75fc3be5027092c0ffb8a848d9897da03a510932f013ddb75b987cabd6b6a02b054394db9bef01e7226149f10f3b5cf3e8aeb73f86b45be524acf8aacdb46e",
      "networkId": 0,
      "chainId": 0
    },
    {
      "hash": "0x80f3d4379a83348b716cc979cf4c561f2d04ab39249c65611e2dab43b2a6ea84",
      "blockHash": "0x908da78f431d69b26e08ff612a025a14c667b7e9320610a03e7d518699553554",
      "blockNumber": 60630,
      "transactionIndex": 15,
      "confirmations": null,
      "from": "0x2910543Af39abA0Cd09dBb2D50200b3E800A63D2",
      "gasPrice": {
        "_hex": "0xccd473741"
      },
      "gasLimit": {
        "_hex": "0x5208"
      },
      "to": "0xDa4a85f1DA045634C08e33d4857D9e5f0D44327A",
      "value": {
        "_hex": "0x3bd7f7af2e6138000"
      },
      "nonce": 75,
      "data": "0x",
      "r": "0xb059f21bab81b6b9a477189779ac602553879969eee7e7f7023c3611c1910645",
      "s": "0x5d02d350d05ba223b1e4c6d8809452c25f8946296e2acf979fb6b8fd5995ddd8",
      "v": 28,
      "creates": null,
      "raw": "0xf86d4b850ccd47374182520894da4a85f1da045634c08e33d4857d9e5f0d44327a8903bd7f7af2e6138000801ca0b059f21bab81b6b9a477189779ac602553879969eee7e7f7023c3611c1910645a05d02d350d05ba223b1e4c6d8809452c25f8946296e2acf979fb6b8fd5995ddd8",
      "networkId": 0,
      "chainId": 0
    },
    {
      "hash": "0x1ff7b63ad9f74aa9b532ff97d59581e2b8df93eb74587f4c267661e004b6d0fc",
      "blockHash": "0x908da78f431d69b26e08ff612a025a14c667b7e9320610a03e7d518699553554",
      "blockNumber": 60630,
      "transactionIndex": 16,
      "confirmations": null,
      "from": "0x2910543Af39abA0Cd09dBb2D50200b3E800A63D2",
      "gasPrice": {
        "_hex": "0xccd473741"
      },
      "gasLimit": {
        "_hex": "0x5208"
      },
      "to": "0xaE20E0c7728D2713a2c431B816196F59a6B3EbcE",
      "value": {
        "_hex": "0x28a8457edb2f178000"
      },
      "nonce": 76,
      "data": "0x",
      "r": "0xab2e6478bebe23f489c8d5b2a5e1ae2b113e058691bb0f32183043fdf6c01ba4",
      "s": "0x759d6366d954396f69e82ccb4566f36a04f7c16a7989f5ea60e2a6b9f658cd29",
      "v": 27,
      "creates": null,
      "raw": "0xf86d4c850ccd47374182520894ae20e0c7728d2713a2c431b816196f59a6b3ebce8928a8457edb2f178000801ba0ab2e6478bebe23f489c8d5b2a5e1ae2b113e058691bb0f32183043fdf6c01ba4a0759d6366d954396f69e82ccb4566f36a04f7c16a7989f5ea60e2a6b9f658cd29",
      "networkId": 0,
      "chainId": 0
    },
    {
      "hash": "0x93fb2d63f4d70c4b42ee52036b34b2c5628fbaeb839ceecf59911e0aa88ec854",
      "blockHash": "0x908da78f431d69b26e08ff612a025a14c667b7e9320610a03e7d518699553554",
      "blockNumber": 60630,
      "transactionIndex": 17,
      "confirmations": null,
      "from": "0x2910543Af39abA0Cd09dBb2D50200b3E800A63D2",
      "gasPrice": {
        "_hex": "0xccd473741"
      },
      "gasLimit": {
        "_hex": "0x5208"
      },
      "to": "0x8c1571F5e9fFff7D31C2d66d3818F273813D8FdF",
      "value": {
        "_hex": "0x8ab55f8b52078000"
      },
      "nonce": 77,
      "data": "0x",
      "r": "0x093202901528e0d034cd02df8e30724e8eaf7a239c5f06bdb4f2faaeef8ebeca",
      "s": "0x7257d98dd9b983c12291bff8f7ab70314c611f910356ca32821e9363e1481bfe",
      "v": 27,
      "creates": null,
      "raw": "0xf86c4d850ccd473741825208948c1571f5e9ffff7d31c2d66d3818f273813d8fdf888ab55f8b52078000801ba0093202901528e0d034cd02df8e30724e8eaf7a239c5f06bdb4f2faaeef8ebecaa07257d98dd9b983c12291bff8f7ab70314c611f910356ca32821e9363e1481bfe",
      "networkId": 0,
      "chainId": 0
    },
    {
      "hash": "0xb5991511bc94b669911b5dcae8712b84c84a0f880217a0a64d48f9b19edd341e",
      "blockHash": "0x908da78f431d69b26e08ff612a025a14c667b7e9320610a03e7d518699553554",
      "blockNumber": 60630,
      "transactionIndex": 18,
      "confirmations": null,
      "from": "0x2910543Af39abA0Cd09dBb2D50200b3E800A63D2",
      "gasPrice": {
        "_hex": "0xccd473741"
      },
      "gasLimit": {
        "_hex": "0x5208"
      },
      "to": "0x739f8ab33a41B67952f16778e3CC6D2dEcC3a2d5",
      "value": {
        "_hex": "0x46790e04d4cfef8000"
      },
      "nonce": 78,
      "data": "0x",
      "r": "0x7cd607be07abe189d3c1076d2ac3806543d82e49a1ecf23a4ea8392f1f30581e",
      "s": "0x0836aa45c3138ee54c90b2eca36514a15c13e271913a5e2bf174d48583a975de",
      "v": 28,
      "creates": null,
      "raw": "0xf86d4e850ccd47374182520894739f8ab33a41b67952f16778e3cc6d2decc3a2d58946790e04d4cfef8000801ca07cd607be07abe189d3c1076d2ac3806543d82e49a1ecf23a4ea8392f1f30581ea00836aa45c3138ee54c90b2eca36514a15c13e271913a5e2bf174d48583a975de",
      "networkId": 0,
      "chainId": 0
    },
    {
      "hash": "0x4a7485ac67aceb3bbf77e044b56948a2ca81a58407f18c77ca9fc3aee4934413",
      "blockHash": "0x908da78f431d69b26e08ff612a025a14c667b7e9320610a03e7d518699553554",
      "blockNumber": 60630,
      "transactionIndex": 19,
      "confirmations": null,
      "from": "0x2910543Af39abA0Cd09dBb2D50200b3E800A63D2",
      "gasPrice": {
        "_hex": "0xccd473741"
      },
      "gasLimit": {
        "_hex": "0x5208"
      },
      "to": "0x8E61bF5A2e46D15774172781Cf100ED0962cBb63",
      "value": {
        "_hex": "0xdcef33a6f838000"
      },
      "nonce": 79,
      "data": "0x",
      "r": "0x7db179739cd1e59b47ea025ef651987465cc4611abc0098e9edfa5807fc8a540",
      "s": "0x5679acabb3af09444c7d9c89c03f01b502be241309bff2d7aa29d0ad4f6700e1",
      "v": 28,
      "creates": null,
      "raw": "0xf86c4f850ccd473741825208948e61bf5a2e46d15774172781cf100ed0962cbb63880dcef33a6f838000801ca07db179739cd1e59b47ea025ef651987465cc4611abc0098e9edfa5807fc8a540a05679acabb3af09444c7d9c89c03f01b502be241309bff2d7aa29d0ad4f6700e1",
      "networkId": 0,
      "chainId": 0
    },
    {
      "hash": "0x2d3cdda288980544fd9dc41a5dbabca6d6e6f05b490d40fb76c70e726747dca2",
      "blockHash": "0x908da78f431d69b26e08ff612a025a14c667b7e9320610a03e7d518699553554",
      "blockNumber": 60630,
      "transactionIndex": 20,
      "confirmations": null,
      "from": "0x2910543Af39abA0Cd09dBb2D50200b3E800A63D2",
      "gasPrice": {
        "_hex": "0xccd473741"
      },
      "gasLimit": {
        "_hex": "0x5208"
      },
      "to": "0xfBC1aB9a735012CF8Aa4f8738c5811CDbF39a0C5",
      "value": {
        "_hex": "0x5dabb5051664f8000"
      },
      "nonce": 80,
      "data": "0x",
      "r": "0x6209242d491fd490189ad7543d30e6b46044c53bf917245435ce318d193ca8b4",
      "s": "0x1adcb4df0fff729551beef5a804d9061747ce62c7d20b6c2bdee1a289dac3821",
      "v": 27,
      "creates": null,
      "raw": "0xf86d50850ccd47374182520894fbc1ab9a735012cf8aa4f8738c5811cdbf39a0c58905dabb5051664f8000801ba06209242d491fd490189ad7543d30e6b46044c53bf917245435ce318d193ca8b4a01adcb4df0fff729551beef5a804d9061747ce62c7d20b6c2bdee1a289dac3821",
      "networkId": 0,
      "chainId": 0
    },
    {
      "hash": "0x489784ce6d000d87cc006304e69f2b1325ac1f6d56453ff53f0ac5b08f6d32af",
      "blockHash": "0x908da78f431d69b26e08ff612a025a14c667b7e9320610a03e7d518699553554",
      "blockNumber": 60630,
      "transactionIndex": 21,
      "confirmations": null,
      "from": "0x2910543Af39abA0Cd09dBb2D50200b3E800A63D2",
      "gasPrice": {
        "_hex": "0xccd473741"
      },
      "gasLimit": {
        "_hex": "0x5208"
      },
      "to": "0xCbba2f66729Ec94442bbd504a8F45fF68cBE6b7f",
      "value": {
        "_hex": "0xa6f7845dfcb33f8000"
      },
      "nonce": 81,
      "data": "0x",
      "r": "0x17eff7bd2fe62876f5c24ef8ee967eeb789d7b6d86ecd370e176512bdfdcab62",
      "s": "0x0984156206c43d28f815a281cb6d00729e51aab29e089af3b72a34ece266b74a",
      "v": 27,
      "creates": null,
      "raw": "0xf86d51850ccd47374182520894cbba2f66729ec94442bbd504a8f45ff68cbe6b7f89a6f7845dfcb33f8000801ba017eff7bd2fe62876f5c24ef8ee967eeb789d7b6d86ecd370e176512bdfdcab62a00984156206c43d28f815a281cb6d00729e51aab29e089af3b72a34ece266b74a",
      "networkId": 0,
      "chainId": 0
    },
    {
      "hash": "0x9dc613e61e21113b38e3fdf2292375f9c938c455c7b95797bd0c2c7988e69959",
      "blockHash": "0x908da78f431d69b26e08ff612a025a14c667b7e9320610a03e7d518699553554",
      "blockNumber": 60630,
      "transactionIndex": 22,
      "confirmations": null,
      "from": "0x2910543Af39abA0Cd09dBb2D50200b3E800A63D2",
      "gasPrice": {
        "_hex": "0xccd473741"
      },
      "gasLimit": {
        "_hex": "0x5208"
      },
      "to": "0x40328669c1Cde50A6aDAB908672E7E4F8d708b50",
      "value": {
        "_hex": "0x22b1c8c1227a00000"
      },
      "nonce": 82,
      "data": "0x",
      "r": "0xb20c9fe013e00a9d4e173da16a82a33ca3c073bae60381ebfdbe01c9e7ea2e07",
      "s": "0x5e7a2feec754d6ec054fc33dd02022a8d95077e50f3f3552480d3e9a84e52423",
      "v": 28,
      "creates": null,
      "raw": "0xf86d52850ccd4737418252089440328669c1cde50a6adab908672e7e4f8d708b5089022b1c8c1227a00000801ca0b20c9fe013e00a9d4e173da16a82a33ca3c073bae60381ebfdbe01c9e7ea2e07a05e7a2feec754d6ec054fc33dd02022a8d95077e50f3f3552480d3e9a84e52423",
      "networkId": 0,
      "chainId": 0
    },
    {
      "hash": "0xb17e01ee4fcee7fc420191f9dea1e03152b1dbd487fe5654bd57178cc0993d78",
      "blockHash": "0x908da78f431d69b26e08ff612a025a14c667b7e9320610a03e7d518699553554",
      "blockNumber": 60630,
      "transactionIndex": 23,
      "confirmations": null,
      "from": "0x2910543Af39abA0Cd09dBb2D50200b3E800A63D2",
      "gasPrice": {
        "_hex": "0xccd473741"
      },
      "gasLimit": {
        "_hex": "0x5208"
      },
      "to": "0xD3a33636677fFF0BE34EC503b9E848b296E0972A",
      "value": {
        "_hex": "0xdcef33a6f838000"
      },
      "nonce": 83,
      "data": "0x",
      "r": "0x68ca1d135a78094ed4a02cbae9b9eb269ff5536cace08b7248983539a0a871b0",
      "s": "0x7aac17f4a64f4ab9158b86b20300ae4c98a08ac74b4ff5325b94ae83f4f2a5fa",
      "v": 28,
      "creates": null,
      "raw": "0xf86c53850ccd47374182520894d3a33636677fff0be34ec503b9e848b296e0972a880dcef33a6f838000801ca068ca1d135a78094ed4a02cbae9b9eb269ff5536cace08b7248983539a0a871b0a07aac17f4a64f4ab9158b86b20300ae4c98a08ac74b4ff5325b94ae83f4f2a5fa",
      "networkId": 0,
      "chainId": 0
    },
    {
      "hash": "0x15755e8829ccadf10737ac89239cd4eafd3d9b805f74ef3521e3624ad4487a36",
      "blockHash": "0x908da78f431d69b26e08ff612a025a14c667b7e9320610a03e7d518699553554",
      "blockNumber": 60630,
      "transactionIndex": 24,
      "confirmations": null,
      "from": "0x2910543Af39abA0Cd09dBb2D50200b3E800A63D2",
      "gasPrice": {
        "_hex": "0xccd473741"
      },
      "gasLimit": {
        "_hex": "0x5208"
      },
      "to": "0xFc5bd4EAC708e80696136eBdBaf48dc64cE99274",
      "value": {
        "_hex": "0x56bb59ab42b2f8000"
      },
      "nonce": 84,
      "data": "0x",
      "r": "0xa2bf6103ba6508f66ff116fc6449916c22c1b347028ffef1c46710c5d2b9148d",
      "s": "0x631b6b2324a5ddcaa336484699f095ae50d9d0865d74793b52b7104b4305143f",
      "v": 28,
      "creates": null,
      "raw": "0xf86d54850ccd47374182520894fc5bd4eac708e80696136ebdbaf48dc64ce9927489056bb59ab42b2f8000801ca0a2bf6103ba6508f66ff116fc6449916c22c1b347028ffef1c46710c5d2b9148da0631b6b2324a5ddcaa336484699f095ae50d9d0865d74793b52b7104b4305143f",
      "networkId": 0,
      "chainId": 0
    },
    {
      "hash": "0xc09541b237ba0acde3f4fe12265f3e18fed578145ebc7f2d94879f6811acb719",
      "blockHash": "0x908da78f431d69b26e08ff612a025a14c667b7e9320610a03e7d518699553554",
      "blockNumber": 60630,
      "transactionIndex": 25,
      "confirmations": null,
      "from": "0x2910543Af39abA0Cd09dBb2D50200b3E800A63D2",
      "gasPrice": {
        "_hex": "0xccd473741"
      },
      "gasLimit": {
        "_hex": "0x5208"
      },
      "to": "0xEa9f6633ebfA2502B84bfC5201A560BE9eFD5902",
      "value": {
        "_hex": "0x1c9e5c9af5c038000"
      },
      "nonce": 85,
      "data": "0x",
      "r": "0x9f0eb997837bec125c56d6c33b71e9008945a95d5f1f50e4708c71e5786ec780",
      "s": "0x31cd38ac58e06cd53f9bac3ab4d8d61e555075995d8ded83829f4c70fd3716ed",
      "v": 28,
      "creates": null,
      "raw": "0xf86d55850ccd47374182520894ea9f6633ebfa2502b84bfc5201a560be9efd59028901c9e5c9af5c038000801ca09f0eb997837bec125c56d6c33b71e9008945a95d5f1f50e4708c71e5786ec780a031cd38ac58e06cd53f9bac3ab4d8d61e555075995d8ded83829f4c70fd3716ed",
      "networkId": 0,
      "chainId": 0
    },
    {
      "hash": "0x4ca5cd9785670dd7b20f46379ba5c77caecb15c3392b081c4b75cdd5cb765ee5",
      "blockHash": "0x908da78f431d69b26e08ff612a025a14c667b7e9320610a03e7d518699553554",
      "blockNumber": 60630,
      "transactionIndex": 26,
      "confirmations": null,
      "from": "0x2910543Af39abA0Cd09dBb2D50200b3E800A63D2",
      "gasPrice": {
        "_hex": "0xccd473741"
      },
      "gasLimit": {
        "_hex": "0x5208"
      },
      "to": "0x5a38228ED8c000D6ff628Afed84498Fb13c8Db86",
      "value": {
        "_hex": "0x2b5d1eb9d79a78000"
      },
      "nonce": 86,
      "data": "0x",
      "r": "0x345160dee0bd9b28ad356d4994133c12c01bfc7877a98dd8924ca963a628aee4",
      "s": "0x3862d037a3294b954f3d4274b761c59b789d2629021b7e1a51084e4e6d98f020",
      "v": 28,
      "creates": null,
      "raw": "0xf86d56850ccd473741825208945a38228ed8c000d6ff628afed84498fb13c8db868902b5d1eb9d79a78000801ca0345160dee0bd9b28ad356d4994133c12c01bfc7877a98dd8924ca963a628aee4a03862d037a3294b954f3d4274b761c59b789d2629021b7e1a51084e4e6d98f020",
      "networkId": 0,
      "chainId": 0
    },
    {
      "hash": "0x1a5b7cb8cba5fea39ee5f67da4be6069cf64e1db6810e21dec50db861dbffdc4",
      "blockHash": "0x908da78f431d69b26e08ff612a025a14c667b7e9320610a03e7d518699553554",
      "blockNumber": 60630,
      "transactionIndex": 27,
      "confirmations": null,
      "from": "0x2910543Af39abA0Cd09dBb2D50200b3E800A63D2",
      "gasPrice": {
        "_hex": "0xccd473741"
      },
      "gasLimit": {
        "_hex": "0x5208"
      },
      "to": "0x2B85069Da7a89A01430F4C5EfAb311ab681aAe8a",
      "value": {
        "_hex": "0xc25bc14c5f588000"
      },
      "nonce": 87,
      "data": "0x",
      "r": "0x43c1275c91c071d5529d0fdf18ad5469b5ad118da9ac1e81651da4e9881d8194",
      "s": "0x438a8b16a61913ca15da006c195f90d37538ce5bb2f562c6c5e868395960f905",
      "v": 27,
      "creates": null,
      "raw": "0xf86c57850ccd473741825208942b85069da7a89a01430f4c5efab311ab681aae8a88c25bc14c5f588000801ba043c1275c91c071d5529d0fdf18ad5469b5ad118da9ac1e81651da4e9881d8194a0438a8b16a61913ca15da006c195f90d37538ce5bb2f562c6c5e868395960f905",
      "networkId": 0,
      "chainId": 0
    },
    {
      "hash": "0x4e8c5e298562276793b60f4f77210d42af40dbf548133946de57c2890961a344",
      "blockHash": "0x908da78f431d69b26e08ff612a025a14c667b7e9320610a03e7d518699553554",
      "blockNumber": 60630,
      "transactionIndex": 28,
      "confirmations": null,
      "from": "0x2910543Af39abA0Cd09dBb2D50200b3E800A63D2",
      "gasPrice": {
        "_hex": "0xccd473741"
      },
      "gasLimit": {
        "_hex": "0x5208"
      },
      "to": "0xBeb3B1d443791e4B2207a9866800E02DAcF19c02",
      "value": {
        "_hex": "0xf3238b2cd0d8000"
      },
      "nonce": 88,
      "data": "0x",
      "r": "0x9c3e4afffe768bac565d0012b26264709bce9a74327d6442adfe4af27934ae16",
      "s": "0x32bc9efb126a8bc08ca517cf23bb9617a364a4068a79310bb851a80b61265611",
      "v": 27,
      "creates": null,
      "raw": "0xf86c58850ccd47374182520894beb3b1d443791e4b2207a9866800e02dacf19c02880f3238b2cd0d8000801ba09c3e4afffe768bac565d0012b26264709bce9a74327d6442adfe4af27934ae16a032bc9efb126a8bc08ca517cf23bb9617a364a4068a79310bb851a80b61265611",
      "networkId": 0,
      "chainId": 0
    },
    {
      "hash": "0xa867b36ec3a6391c819bfcd1846722716118cd96d1de478853972363576e5a2d",
      "blockHash": "0x908da78f431d69b26e08ff612a025a14c667b7e9320610a03e7d518699553554",
      "blockNumber": 60630,
      "transactionIndex": 29,
      "confirmations": null,
      "from": "0x2910543Af39abA0Cd09dBb2D50200b3E800A63D2",
      "gasPrice": {
        "_hex": "0xccd473741"
      },
      "gasLimit": {
        "_hex": "0x5208"
      },
      "to": "0x0028795F5139935918A4176C80b01d32549E2819",
      "value": {
        "_hex": "0xd018f10d96fb8000"
      },
      "nonce": 89,
      "data": "0x",
      "r": "0x36d5f06ca1f378e31cb202463f558da3fae36ce5cc9f698f166703b42a6bc209",
      "s": "0x5de87a0de5b0e2f9a1ac1fbae5b9c1105adbf0506e019dd1085f82e739b99fd9",
      "v": 28,
      "creates": null,
      "raw": "0xf86c59850ccd473741825208940028795f5139935918a4176c80b01d32549e281988d018f10d96fb8000801ca036d5f06ca1f378e31cb202463f558da3fae36ce5cc9f698f166703b42a6bc209a05de87a0de5b0e2f9a1ac1fbae5b9c1105adbf0506e019dd1085f82e739b99fd9",
      "networkId": 0,
      "chainId": 0
    }
  ]
}