{
  "hash": "0xfe116601913abf1a965c845c2c46570a499b36c3d327a2500c8ca712a7549d9e",
  "parentHash": "0x4e36ba96079323dc559cb5d784d56af7ca5f4d195111e8b3eb202c1f814d0f47",
  "number": 116153,
  "timestamp": 1440069243,
  "nonce": "0x7b77aa4cd1328256",
  "difficulty": 4595898315795,
  "gasLimit": {
    "_hex": "0x2fefd8"
  },
  "gasUsed": {
    "_hex": "0x5208"
  },
  "miner": "0x0D2C9857E819cf1275eb59B49033343ccC35fe42",
  "extraData": "0x",
  "transactions": [
    {
      "hash": "0x6184fa5448e4c462e77178697ff4f58cbafd3647361e168c97dab02f2236cd46",
      "blockHash": "0xfe116601913abf1a965c845c2c46570a499b36c3d327a2500c8ca712a7549d9e",
      "blockNumber": 116153,
      "transactionIndex": 0,
      "confirmations": null,
      "from": "0x120A270bbC009644e35F0bB6ab13f95b8199c4ad",
      "gasPrice": {
        "_hex": "0xd98bb3bd7"
      },
      "gasLimit": {
        "_hex": "0x3d090"
      },
      "to": "0x37612058C28D5599b4Ab876EA7EF3B4F0020114f",
      "value": {
        "_hex": "0xd02ab486cedc0000"
      },
      "nonce": 939,
      "data": "0x",
      "r": "0x43f591e5f52f83297350ae6e7ac9fab4adc909390266eb23ea10d54522739a79",
      "s": "0x3ded654e610184425400fc2c012049ecc40085577d9810f1648e5c71c4334144",
      "v": 27,
      "creates": null,
      "raw": "0xf86f8203ab850d98bb3bd78303d0909437612058c28d5599b4ab876ea7ef3b4f0020114f88d02ab486cedc0000801ba043f591e5f52f83297350ae6e7ac9fab4adc909390266eb23ea10d54522739a79a03ded654e610184425400fc2c012049ecc40085577d9810f1648e5c71c4334144",
      "networkId": 0,
      "chainId": 0
    }
  ]
}