{
  "hash": "0x8c81ae5ff4123051a00008a75386f6fb51625960d0d77e8cf14c6efba81cbd1a",
  "parentHash": "0xdd140b894130ea46cb47fdc923b8cfed355d5a8e304f6863b1be0aeaa3da9a5f",
  "number": 80882,
  "timestamp": 1439492657,
  "nonce": "0xd7de11ab63dc1f5d",
  "difficulty": 2445170635472,
  "gasLimit": {
    "_hex": "0x2fefd8"
  },
  "gasUsed": {
    "_hex": "0x19c8c"
  },
  "miner": "0x02dE7d35a60bf6A216411476040ec648668769D7",
  "extraData": "0x476574682f76312e302e312f77696e646f77732f676f312e342e32",
  "transactions": [
    {
      "hash": "0xef70ee00ac8fa94c087bd389e0c2905b768457ca476786ae01b949ccaccaf010",
      "blockHash": "0x8c81ae5ff4123051a00008a75386f6fb51625960d0d77e8cf14c6efba81cbd1a",
      "blockNumber": 80882,
      "transactionIndex": 0,
      "confirmations": null,
      "from": "0x70Fd0931873b76DF103453dd8c0ac92dc7E17b5a",
      "gasPrice": {
        "_hex": "0x11770ed10bc"
      },
      "gasLimit": {
        "_hex": "0x55f0"
      },
      "to": "0x2910543Af39abA0Cd09dBb2D50200b3E800A63D2",
      "value": {
        "_hex": "0xde0b6b3a7640000"
      },
      "nonce": 1,
      "data": "0x454e31445432424d52",
      "r": "0xe5e8978aed15eeab4532f956b5c752f95787070fcdc9d7553baa00c47aceaed2",
      "s": "0x7d4433031a63c9482e915d720f342bc4e47ab517083d24fdfacc8090b5a04913",
      "v": 27,
      "creates": null,
      "raw": "0xf8760186011770ed10bc8255f0942910543af39aba0cd09dbb2d50200b3e800a63d2880de0b6b3a764000089454e31445432424d521ba0e5e8978aed15eeab4532f956b5c752f95787070fcdc9d7553baa00c47aceaed2a07d4433031a63c9482e915d720f342bc4e47ab517083d24fdfacc8090b5a04913",
      "networkId": 0,
      "chainId": 0
    },
    {
      "hash": "0x42e4e3d66ffa6b8a650976ad2b4195b9cabae4edf5a1072bed3bf7dd7edad62b",
      "blockHash": "0x8c81ae5ff4123051a00008a75386f6fb51625960d0d77e8cf14c6efba81cbd1a",
      "blockNumber": 80882,
      "transactionIndex": 1,
      "confirmations": null,
      "from": "0x58FF223E4927C121Fc3609B599bC71870fBF5C5C",
      "gasPrice": {
        "_hex": "0xd2a725733"
      },
      "gasLimit": {
        "_hex": "0x15f90"
      },
      "to": "0xc597A5d92F5dC1137D847db733cfe02c6d209f13",
      "value": {
        "_hex": "0x138a388a43c000a"
      },
      "nonce": 0,
      "data": "0x",
      "r": "0x3e6b4b8a229157386530fcab83e7dd59192d1c328f7083d2de6f84fa5526d889",
      "s": "0x559cf7f94d2cdfe127dc84a51cf9f3355011ccbbbb31f457a96ad7a1b6b08c30",
      "v": 27,
      "creates": null,
      "raw": "0xf86d80850d2a72573383015f9094c597a5d92f5dc1137d847db733cfe02c6d209f13880138a388a43c000a801ba03e6b4b8a229157386530fcab83e7dd59192d1c328f7083d2de6f84fa5526d889a0559cf7f94d2cdfe127dc84a51cf9f3355011ccbbbb31f457a96ad7a1b6b08c30",
      "networkId": 0,
      "chainId": 0
    },
    {
      "hash": "0xe49569a99132aee0a6fc2ae87bdd93ee190a79fd55fad57f7d556b82d726d30d",
      "blockHash": "0x8c81ae5ff4123051a00008a75386f6fb51625960d0d77e8cf14c6efba81cbd1a",
      "blockNumber": 80882,
      "transactionIndex": 2,
      "confirmations": null,
      "from": "0xa99607CA6dA11D4A501e3a0213d905556f370B23",
      "gasPrice": {
        "_hex": "0xd2a725733"
      },
      "gasLimit": {
        "_hex": "0x15f90"
      },
      "to": "0xc597A5d92F5dC1137D847db733cfe02c6d209f13",
      "value": {
        "_hex": "0x41dd2ddac8010000"
      },
      "nonce": 0,
      "data": "0x",
      "r": "0x7f8c783931b1c15e717798aec043bc639e6aedb1404d288bf0756e81062fecd6",
      "s": "0x17884380394dc27e7c1f0aaf636eda6a83f1de9508abc3990b3e0add86ac0ceb",
      "v": 27,
      "creates": null,
      "raw": "0xf86d80850d2a72573383015f9094c597a5d92f5dc1137d847db733cfe02c6d209f138841dd2ddac8010000801ba07f8c783931b1c15e717798aec043bc639e6aedb1404d288bf0756e81062fecd6a017884380394dc27e7c1f0aaf636eda6a83f1de9508abc3990b3e0add86ac0ceb",
      "networkId": 0,
      "chainId": 0
    },
    {
      "hash": "0xa2466d22cf3cc4b67dea6811fdd5495e7372841c5d39e1776bced44203aea335",
      "blockHash": "0x8c81ae5ff4123051a00008a75386f6fb51625960d0d77e8cf14c6efba81cbd1a",
      "blockNumber": 80882,
      "transactionIndex": 3,
      "confirmations": null,
      "from": "0xB48CB04D046210A9F58175Ad35FCe298428e0969",
      "gasPrice": {
        "_hex": "0xd2a725733"
      },
      "gasLimit": {
        "_hex": "0x15f90"
      },
      "to": "0xc597A5d92F5dC1137D847db733cfe02c6d209f13",
      "value": {
        "_hex": "0x15288cb6dbf254480"
      },
      "nonce": 1,
      "data": "0x",
      "r": "0x063c9f340ebaafb6dd61f26539499dd8e918b402e47b216067bcff778c15f04d",
      "s": "0x496ae3797d138038b71ef1f8f5023bf9279db9bea247ac0e56de4e02b7c2d5b3",
      "v": 27,
      "creates": null,
      "raw": "0xf86e01850d2a72573383015f9094c597a5d92f5dc1137d847db733cfe02c6d209f1389015288cb6dbf254480801ba0063c9f340ebaafb6dd61f26539499dd8e918b402e47b216067bcff778c15f04da0496ae3797d138038b71ef1f8f5023bf9279db9bea247ac0e56de4e02b7c2d5b3",
      "networkId": 0,
      "chainId": 0
    },
    {
      "hash": "0x9d0e972fa1f2116ebbf9ae7a377d4cc35e317a67f8f6ceb3655efbf2f6dfa73d",
      "blockHash": "0x8c81ae5ff4123051a00008a75386f6fb51625960d0d77e8cf14c6efba81cbd1a",
      "blockNumber": 80882,
      "transactionIndex": 4,
      "confirmations": null,
      "from": "0x7cA26E2f6d958364eC65090AAf788bD0a67fe130",
      "gasPrice": {
        "_hex": "0xd2a725733"
      },
      "gasLimit": {
        "_hex": "0x15f90"
      },
      "to": "0xc597A5d92F5dC1137D847db733cfe02c6d209f13",
      "value": {
        "_hex": "0x383f2606dfe93bcf0"
      },
      "nonce": 0,
      "data": "0x",
      "r": "0x6ada67d2995bedebddacdb0f0d9148ad0729fe132a9bfe39d0be91a0ec27570c",
      "s": "0x2061ba79dc9350c492b027581012ad1a50ad316aa102eb1557dec569768b1405",
      "v": 27,
      "creates": null,
      "raw": "0xf86e80850d2a72573383015f9094c597a5d92f5dc1137d847db733cfe02c6d209f13890383f2606dfe93bcf0801ba06ada67d2995bedebddacdb0f0d9148ad0729fe132a9bfe39d0be91a0ec27570ca02061ba79dc9350c492b027581012ad1a50ad316aa102eb1557dec569768b1405",
      "networkId": 0,
      "chainId": 0
    }
  ]
}