{
  "hash": "0xa3d4adcf301508fc5d4c290a66df19ff825ac6c57e4394fe7befefa8cd64a4eb",
  "parentHash": "0x11364e2e969ae6630bb60a10eb7f1d1a22e60c790b006cba449ac960728f9bf4",
  "number": 117545,
  "timestamp": 1440111343,
  "nonce": "0x6287c9597d53e035",
  "difficulty": 4304102351820,
  "gasLimit": {
    "_hex": "0x2fefd8"
  },
  "gasUsed": {
    "_hex": "0xa410"
  },
  "miner": "0x88D74a59454F6cF3B51ef6b9136AFb6b9D405A88",
  "extraData": "0x",
  "transactions": [
    {
      "hash": "0x82d2e4ccb9851d8e601f9b42266af938b733fa7f3829b41d59a08b82a9da0d53",
      "blockHash": "0xa3d4adcf301508fc5d4c290a66df19ff825ac6c57e4394fe7befefa8cd64a4eb",
      "blockNumber": 117545,
      "transactionIndex": 0,
      "confirmations": null,
      "from": "0x52bc44d5378309EE2abF1539BF71dE1b7d7bE3b5",
      "gasPrice": {
        "_hex": "0xba43b7400"
      },
      "gasLimit": {
        "_hex": "0x61a8"
      },
      "to": "0x5D65E227F4E7BC798Cf62526F4bDD47c82e6A590",
      "value": {
        "_hex": "0x4b62df1608abf080"
      },
      "nonce": 307,
      "data": "0x",
      "r": "0x0dffd8c32fd153d864652e2d04f3a722ce819a5b80562a709f60eb0248185143",
      "s": "0x311a1a05de1fb3dd46885198ea559a1249f9c8d77e61ad37ff74e91d68c736d4",
      "v": 27,
      "creates": null,
      "raw": "0xf86e820133850ba43b74008261a8945d65e227f4e7bc798cf62526f4bdd47c82e6a590884b62df1608abf080801ba00dffd8c32fd153d864652e2d04f3a722ce819a5b80562a709f60eb0248185143a0311a1a05de1fb3dd46885198ea559a1249f9c8d77e61ad37ff74e91d68c736d4",
      "networkId": 0,
      "chainId": 0
    },
    {
      "hash": "0x43a021e10e845bfc42ff9a1de7d83ea4fc8351ae7edfb0793a757464e280b42d",
      "blockHash": "0xa3d4adcf301508fc5d4c290a66df19ff825ac6c57e4394fe7befefa8cd64a4eb",
      "blockNumber": 117545,
      "transactionIndex": 1,
      "confirmations": null,
      "from": "0x52bc44d5378309EE2abF1539BF71dE1b7d7bE3b5",
      "gasPrice": {
        "_hex": "0xba43b7400"
      },
      "gasLimit": {
        "_hex": "0x61a8"
      },
      "to": "0xA9bb0843E0Da908bd03b9eE0d6f95242129aaa50",
      "value": {
        "_hex": "0x3d419bb1db444d80"
      },
      "nonce": 308,
      "data": "0x",
      "r": "0x7c9715f65722e354ce430210c5a1b09c5a10ffc3518772d75f8634e1b0cd6eb6",
      "s": "0x34ac186ae891dabf04333acaad9cfebe821d86151121fedd19494bdbe47be5e2",
      "v": 28,
      "creates": null,
      "raw": "0xf86e820134850ba43b74008261a894a9bb0843e0da908bd03b9ee0d6f95242129aaa50883d419bb1db444d80801ca07c9715f65722e354ce430210c5a1b09c5a10ffc3518772d75f8634e1b0cd6eb6a034ac186ae891dabf04333acaad9cfebe821d86151121fedd19494bdbe47be5e2",
      "networkId": 0,
      "chainId": 0
    }
  ]
}