{
  "hash": "0x579d19ea0954c2f443098720ca37d32a6e24497a1d2eb6c9db8a2f254009a1e2",
  "parentHash": "0xa503d496f41abbafb461a6bdb4128bacfb98b598b1332f049607a91d8370eb96",
  "number": 89112,
  "timestamp": 1439618396,
  "nonce": "0x1f50a95f056564bb",
  "difficulty": 3261529771427,
  "gasLimit": {
    "_hex": "0x2fefd8"
  },
  "gasUsed": {
    "_hex": "0x546c"
  },
  "miner": "0x790b8a3cE86E707ED0eD32bF89B3269692a23CC1",
  "extraData": "0xd783010001844765746887676f312e342e32856c696e7578",
  "transactions": [
    {
      "hash": "0xf8c0b974eef804fd7ba264c1eba8386f5d946ae7c5153c3f13efe5961408aff5",
      "blockHash": "0x579d19ea0954c2f443098720ca37d32a6e24497a1d2eb6c9db8a2f254009a1e2",
      "blockNumber": 89112,
      "transactionIndex": 0,
      "confirmations": null,
      "from": "0x9d30cB237BC096f17036FC80dd21CA68992ca2d9",
      "gasPrice": {
        "_hex": "0x110c8f7d8de"
      },
      "gasLimit": {
        "_hex": "0xc350"
      },
      "to": "0x2910543Af39abA0Cd09dBb2D50200b3E800A63D2",
      "value": {
        "_hex": "0x10f0cf064dd59200000"
      },
      "nonce": 3,
      "data": "0x454e4e445759415947",
      "r": "0x7cf7a9c55b1537e2292ec9d9bdb3dd22985c24d8166579c49da6a78a69066057",
      "s": "0xf0b645bd7057082faf6f7d3ac770725ccfdd27b54a60fe80a0dd2f4dd546de3a",
      "v": 28,
      "creates": null,
      "raw": "0xf87803860110c8f7d8de82c350942910543af39aba0cd09dbb2d50200b3e800a63d28a010f0cf064dd5920000089454e4e4457594159471ca07cf7a9c55b1537e2292ec9d9bdb3dd22985c24d8166579c49da6a78a69066057a0f0b645bd7057082faf6f7d3ac770725ccfdd27b54a60fe80a0dd2f4dd546de3a",
      "networkId": 0,
      "chainId": 0
    }
  ]
}