{
  "hash": "0xfccb805a4037fb93f7352ae4838e933ddcaafd93f9714c4460f8ff223cd538ee",
  "parentHash": "0x0476827d1cb1b9f1dcbedaadc3cfa138a88773624f5415716e46b789a4e0c71d",
  "number": 115305,
  "timestamp": 1440054945,
  "nonce": "0x7e7aac7de970e281",
  "difficulty": 4556142222093,
  "gasLimit": {
    "_hex": "0x2fefd8"
  },
  "gasUsed": {
    "_hex": "0x33450"
  },
  "miner": "0x790b8a3cE86E707ED0eD32bF89B3269692a23CC1",
  "extraData": "0xd783010001844765746887676f312e342e32856c696e7578",
  "transactions": [
    {
      "hash": "0x44fa9d2b903d709ab57ef2fb0b18a21ea100340e9527ea444bb15a6f676e21a9",
      "blockHash": "0xfccb805a4037fb93f7352ae4838e933ddcaafd93f9714c4460f8ff223cd538ee",
      "blockNumber": 115305,
      "transactionIndex": 0,
      "confirmations": null,
      "from": "0xB89C0F465b0472fa5A58eCDd01eD937205ae4d06",
      "gasPrice": {
        "_hex": "0xd7da93285"
      },
      "gasLimit": {
        "_hex": "0x5208"
      },
      "to": "0x32Be343B94f860124dC4fEe278FDCBD38C102D88",
      "value": {
        "_hex": "0x21cc298e61975c00"
      },
      "nonce": 11,
      "data": "0x",
      "r": "0xf87efab1e8d62561e98ce3c9bac0ca0b0b5b7b63c82c6084dcc92dfcd11a2cb3",
      "s": "0x4483f6cecae7644f82d3658134d6edbf9d2610498198c6e3f539ece2dcca3b20",
      "v": 28,
      "creates": null,
      "raw": "0xf86c0b850d7da932858252089432be343b94f860124dc4fee278fdcbd38c102d888821cc298e61975c00801ca0f87efab1e8d62561e98ce3c9bac0ca0b0b5b7b63c82c6084dcc92dfcd11a2cb3a04483f6cecae7644f82d3658134d6edbf9d2610498198c6e3f539ece2dcca3b20",
      "networkId": 0,
      "chainId": 0
    },
    {
      "hash": "0xd701509c14090c354d224dd2c75acf5a501f032513c19fb5f2b1bf2f3386b9b4",
      "blockHash": "0xfccb805a4037fb93f7352ae4838e933ddcaafd93f9714c4460f8ff223cd538ee",
      "blockNumber": 115305,
      "transactionIndex": 1,
      "confirmations": null,
      "from": "0xe6A7a1d47ff21B6321162AEA7C6CB457D5476Bca",
      "gasPrice": {
        "_hex": "0xd6d8ea9da"
      },
      "gasLimit": {
        "_hex": "0x55f0"
      },
      "to": "0x25A0be9f6fCbDE4F61024B86a33dd80F7cbB3cEc",
      "value": {
        "_hex": "0x3ed71adcb2bf4ce30"
      },
      "nonce": 5476,
      "data": "0x",
      "r": "0x5b1eff96c447207d9c735078fd9b48292d2fc81c78acb13bc159fbbfef2b40a5",
      "s": "0x5b7ef39e08be7ab1e0c3507f1ef24ecdb6d455492df7dcb73e65e2b0059a607a",
      "v": 27,
      "creates": null,
      "raw": "0xf86f821564850d6d8ea9da8255f09425a0be9f6fcbde4f61024b86a33dd80f7cbb3cec8903ed71adcb2bf4ce30801ba05b1eff96c447207d9c735078fd9b48292d2fc81c78acb13bc159fbbfef2b40a5a05b7ef39e08be7ab1e0c3507f1ef24ecdb6d455492df7dcb73e65e2b0059a607a",
      "networkId": 0,
      "chainId": 0
    },
    {
      "hash": "0x4dfa10567c91803103de450133b39c9223fb945dcb0a44a55f6588017c70ea78",
      "blockHash": "0xfccb805a4037fb93f7352ae4838e933ddcaafd93f9714c4460f8ff223cd538ee",
      "blockNumber": 115305,
      "transactionIndex": 2,
      "confirmations": null,
      "from": "0xe6A7a1d47ff21B6321162AEA7C6CB457D5476Bca",
      "gasPrice": {
        "_hex": "0xd6d8ea9da"
      },
      "gasLimit": {
        "_hex": "0x55f0"
      },
      "to": "0xd0DF24FD0DfcDc3850D1590dAA1D03ca7706b11B",
      "value": {
        "_hex": "0x3ee512669967469e0"
      },
      "nonce": 5477,
      "data": "0x",
      "r": "0xb585ffb10cd47e368bfc3d00d3f59812f6a56f2c6a724f315388d6c44cb7634e",
      "s": "0x2259055bad005469826ca77b14d212774d594086c0a1b0f10b2c62e0f0b803c2",
      "v": 28,
      "creates": null,
      "raw": "0xf86f821565850d6d8ea9da8255f094d0df24fd0dfcdc3850d1590daa1d03ca7706b11b8903ee512669967469e0801ca0b585ffb10cd47e368bfc3d00d3f59812f6a56f2c6a724f315388d6c44cb7634ea02259055bad005469826ca77b14d212774d594086c0a1b0f10b2c62e0f0b803c2",
      "networkId": 0,
      "chainId": 0
    },
    {
      "hash": "0x203e314bbdde6fba7b0d2694b4351d18691e35b879002d300f7a38bf1791ab62",
      "blockHash": "0xfccb805a4037fb93f7352ae4838e933ddcaafd93f9714c4460f8ff223cd538ee",
      "blockNumber": 115305,
      "transactionIndex": 3,
      "confirmations": null,
      "from": "0xe6A7a1d47ff21B6321162AEA7C6CB457D5476Bca",
      "gasPrice": {
        "_hex": "0xd6d8ea9da"
      },
      "gasLimit": {
        "_hex": "0x55f0"
      },
      "to": "0x59cC965F1643a68ad7a4272ff1654d4af4343ea7",
      "value": {
        "_hex": "0x4411ecf1ec2900970"
      },
      "nonce": 5478,
      "data": "0x",
      "r": "0xeab11461a389e462ce4dfead279e81be15a25a159949126c4bc98df55e8983a1",
      "s": "0x07a224af0bc892ea248c10e83793828011b9864d3b1795d1e1c2fde20d636018",
      "v": 28,
      "creates": null,
      "raw": "0xf86f821566850d6d8ea9da8255f09459cc965f1643a68ad7a4272ff1654d4af4343ea78904411ecf1ec2900970801ca0eab11461a389e462ce4dfead279e81be15a25a159949126c4bc98df55e8983a1a007a224af0bc892ea248c10e83793828011b9864d3b1795d1e1c2fde20d636018",
      "networkId": 0,
      "chainId": 0
    },
    {
      "hash": "0x3b5f70631ba16b65367915b53f7a74b24d5b1c540d89be166f2f7045abf50b14",
      "blockHash": "0xfccb805a4037fb93f7352ae4838e933ddcaafd93f9714c4460f8ff223cd538ee",
      "blockNumber": 115305,
      "transactionIndex": 4,
      "confirmations": null,
      "from": "0xe6A7a1d47ff21B6321162AEA7C6CB457D5476Bca",
      "gasPrice": {
        "_hex": "0xd6d8ea9da"
      },
      "gasLimit": {
        "_hex": "0x55f0"
      },
      "to": "0x250978C66B17d66f4167197A38b631d8900968C0",
      "value": {
        "_hex": "0x4bd6860b82dc7c390"
      },
      "nonce": 5479,
      "data": "0x",
      "r": "0x72545d7d2198b9bde4665d07115b8384fd88f06f6c7ef7ea70dc30ebb9ab997a",
      "s": "0x7fd5a53ef8f395d9b557fadbbf379d8e6fd11a7fd76053cacb8832bbab491d76",
      "v": 27,
      "creates": null,
      "raw": "0xf86f821567850d6d8ea9da8255f094250978c66b17d66f4167197a38b631d8900968c08904bd6860b82dc7c390801ba072545d7d2198b9bde4665d07115b8384fd88f06f6c7ef7ea70dc30ebb9ab997aa07fd5a53ef8f395d9b557fadbbf379d8e6fd11a7fd76053cacb8832bbab491d76",
      "networkId": 0,
      "chainId": 0
    },
    {
      "hash": "0xb1d1058a56d9e3a070e88fed2e370f4b95d7c7592680fc3a71108f042a93b7e1",
      "blockHash": "0xfccb805a4037fb93f7352ae4838e933ddcaafd93f9714c4460f8ff223cd538ee",
      "blockNumber": 115305,
      "transactionIndex": 5,
      "confirmations": null,
      "from": "0xe6A7a1d47ff21B6321162AEA7C6CB457D5476Bca",
      "gasPrice": {
        "_hex": "0xd6d8ea9da"
      },
      "gasLimit": {
        "_hex": "0x55f0"
      },
      "to": "0xFa9F15F96E3244897308A95163a62861685e8917",
      "value": {
        "_hex": "0x515ee51bc18f10110"
      },
      "nonce": 5480,
      "data": "0x",
      "r": "0xe1261f07d1d3208e49b7c62ecc3352fbe8bdb704ea2b64d6c94647bb89a4aa45",
      "s": "0x1702277f1a90273c02178e51be0e6d3e3ebc37eb60690f90195e92bfd47ea0b0",
      "v": 27,
      "creates": null,
      "raw": "0xf86f821568850d6d8ea9da8255f094fa9f15f96e3244897308a95163a62861685e8917890515ee51bc18f10110801ba0e1261f07d1d3208e49b7c62ecc3352fbe8bdb704ea2b64d6c94647bb89a4aa45a01702277f1a90273c02178e51be0e6d3e3ebc37eb60690f90195e92bfd47ea0b0",
      "networkId": 0,
      "chainId": 0
    },
    {
      "hash": "0xe1fadc9b690c6b0fa54a184480df70908938ff6e743380b9938fe529ae7bc7fd",
      "blockHash": "0xfccb805a4037fb93f7352ae4838e933ddcaafd93f9714c4460f8ff223cd538ee",
      "blockNumber": 115305,
      "transactionIndex": 6,
      "confirmations": null,
      "from": "0xe6A7a1d47ff21B6321162AEA7C6CB457D5476Bca",
      "gasPrice": {
        "_hex": "0xd6d8ea9da"
      },
      "gasLimit": {
        "_hex": "0x55f0"
      },
      "to": "0x3A652ae439FFB94328afa58E11F544aFB5B85f7A",
      "value": {
        "_hex": "0x57c4f966986168800"
      },
      "nonce": 5481,
      "data": "0x",
      "r": "0x73f8531675eafcfd1e1e43847cd811cba984b2e90c93e7b944cd6fa85795cce0",
      "s": "0x67831b3f8cd7d4f3254c284af489a3636c4424b94af6e373fd779ebe0c46e6ee",
      "v": 28,
      "creates": null,
      "raw": "0xf86f821569850d6d8ea9da8255f0943a652ae439ffb94328afa58e11f544afb5b85f7a89057c4f966986168800801ca073f8531675eafcfd1e1e43847cd811cba984b2e90c93e7b944cd6fa85795cce0a067831b3f8cd7d4f3254c284af489a3636c4424b94af6e373fd779ebe0c46e6ee",
      "networkId": 0,
      "chainId": 0
    },
    {
      "hash": "0x478f0d5921b548d748a359093a15632211dc7bd13da070f909f8603a4c6aa45c",
      "blockHash": "0xfccb805a4037fb93f7352ae4838e933ddcaafd93f9714c4460f8ff223cd538ee",
      "blockNumber": 115305,
      "transactionIndex": 7,
      "confirmations": null,
      "from": "0xe6A7a1d47ff21B6321162AEA7C6CB457D5476Bca",
      "gasPrice": {
        "_hex": "0xd6d8ea9da"
      },
      "gasLimit": {
        "_hex": "0x55f0"
      },
      "to": "0x837A2A346557050c8cF0fb24b84Aa695E8Add19f",
      "value": {
        "_hex": "0x5ebe9ff0c1e5037f0"
      },
      "nonce": 5482,
      "data": "0x",
      "r": "0xf9933c58cadb1a9dc53eb9b4199c709c69a6b2b92cfc01a7f637a2cbcd32d291",
      "s": "0x30730654506ea5f96d176b041cc27fec9c241ab0c98e5fc0a5cfed2f9cbb6c8f",
      "v": 27,
      "creates": null,
      "raw": "0xf86f82156a850d6d8ea9da8255f094837a2a346557050c8cf0fb24b84aa695e8add19f8905ebe9ff0c1e5037f0801ba0f9933c58cadb1a9dc53eb9b4199c709c69a6b2b92cfc01a7f637a2cbcd32d291a030730654506ea5f96d176b041cc27fec9c241ab0c98e5fc0a5cfed2f9cbb6c8f",
      "networkId": 0,
      "chainId": 0
    },
    {
      "hash": "0xab7f38325c4f0e23499353be0678700644b147ebe936ca2b22ddcdda54537cbe",
      "blockHash": "0xfccb805a4037fb93f7352ae4838e933ddcaafd93f9714c4460f8ff223cd538ee",
      "blockNumber": 115305,
      "transactionIndex": 8,
      "confirmations": null,
      "from": "0xe6A7a1d47ff21B6321162AEA7C6CB457D5476Bca",
      "gasPrice": {
        "_hex": "0xd6d8ea9da"
      },
      "gasLimit": {
        "_hex": "0x55f0"
      },
      "to": "0x4A29dF8a7967b36664f256F18dAcf2e58E9f1E7E",
      "value": {
        "_hex": "0x6135e4d49ec0739b0"
      },
      "nonce": 5483,
      "data": "0x",
      "r": "0xc2d135fd2bfe454820b2695dceadbaa9b6bc0e2cdf30e0eb47306ab3eada197e",
      "s": "0x25a8ddd888dcdb7947a714f3aa5ba73eec60bdb9a55ce8da8ec11c7234d722a9",
      "v": 27,
      "creates": null,
      "raw": "0xf86f82156b850d6d8ea9da8255f0944a29df8a7967b36664f256f18dacf2e58e9f1e7e8906135e4d49ec0739b0801ba0c2d135fd2bfe454820b2695dceadbaa9b6bc0e2cdf30e0eb47306ab3eada197ea025a8ddd888dcdb7947a714f3aa5ba73eec60bdb9a55ce8da8ec11c7234d722a9",
      "networkId": 0,
      "chainId": 0
    },
    {
      "hash": "0x587ad36d19279ce927476eb3674312b4e170db582ce92be7cff6226ddf88149c",
      "blockHash": "0xfccb805a4037fb93f7352ae4838e933ddcaafd93f9714c4460f8ff223cd538ee",
      "blockNumber": 115305,
      "transactionIndex": 9,
      "confirmations": null,
      "from": "0xe6A7a1d47ff21B6321162AEA7C6CB457D5476Bca",
      "gasPrice": {
        "_hex": "0xd6d8ea9da"
      },
      "gasLimit": {
        "_hex": "0x55f0"
      },
      "to": "0x0912001e29BbaF75C23069A22D9B9602BE86FEB7",
      "value": {
        "_hex": "0x66e8380701125c8e0"
      },
      "nonce": 5484,
      "data": "0x",
      "r": "0xbdc4d35498136661f88bf10678a3685a2ebb7739323cdc44bf250fd5aea2132a",
      "s": "0x61b37f83a2ec1d598170dced1d9bb9eabef9ddac073424ed0f7580e919af7649",
      "v": 28,
      "creates": null,
      "raw": "0xf86f82156c850d6d8ea9da8255f0940912001e29bbaf75c23069a22d9b9602be86feb789066e8380701125c8e0801ca0bdc4d35498136661f88bf10678a3685a2ebb7739323cdc44bf250fd5aea2132aa061b37f83a2ec1d598170dced1d9bb9eabef9ddac073424ed0f7580e919af7649",
      "networkId": 0,
      "chainId": 0
    }
  ]
}