{
  "hash": "0x1ec420d37176ce196b14e9c25504a234b0aa41e0cc48eca84f77dbe88007641a",
  "parentHash": "0x7a2d15f886847a234c77ece84b9c0d63c135ba8efd326dd5b1c94509cf9cf019",
  "number": 65102,
  "timestamp": 1439231321,
  "nonce": "0x9dd1015f78066547",
  "difficulty": 1928491712878,
  "gasLimit": {
    "_hex": "0x2fefd8"
  },
  "gasUsed": {
    "_hex": "0x17cd8"
  },
  "miner": "0x30853f0562c79055Fbd88CFFC01A109b346752ba",
  "extraData": "0x476574682f76312e302e312f77696e646f77732f676f312e342e32",
  "transactions": [
    {
      "hash": "0xb76854b94cc6c99e099a8f6c86621d2d921a7616e032a36eebce68647c969dca",
      "blockHash": "0x1ec420d37176ce196b14e9c25504a234b0aa41e0cc48eca84f77dbe88007641a",
      "blockNumber": 65102,
      "transactionIndex": 0,
      "confirmations": null,
      "from": "0x1380d17b608EC3f7A62169A244580aFFe5c26164",
      "gasPrice": {
        "_hex": "0xba43b7400"
      },
      "gasLimit": {
        "_hex": "0x15f90"
      },
      "to": "0x793AE8C1b1a160BFc07BFB0d04F85eab1A71F4f2",
      "value": {
        "_hex": "0x0"
      },
      "nonce": 0,
      "data": "0x3ba15036",
      "r": "0x614d78c1f5c4f5ba669909f580edb19f95e909204365248d35a5faba32d8432d",
      "s": "0x22e6aaeafe8104bef1b52efc82b07f27cc2b4578a47e09784c9d5889488cee39",
      "v": 27,
      "creates": null,
      "raw": "0xf86980850ba43b740083015f9094793ae8c1b1a160bfc07bfb0d04f85eab1a71f4f280843ba150361ba0614d78c1f5c4f5ba669909f580edb19f95e909204365248d35a5faba32d8432da022e6aaeafe8104bef1b52efc82b07f27cc2b4578a47e09784c9d5889488cee39",
      "networkId": 0,
      "chainId": 0
    },
    {
      "hash": "0x5e0098ce0d23670ff2f6edb6cb8acdee737d08a3755311ee211a598db1c18ee1",
      "blockHash": "0x1ec420d37176ce196b14e9c25504a234b0aa41e0cc48eca84f77dbe88007641a",
      "blockNumber": 65102,
      "transactionIndex": 1,
      "confirmations": null,
      "from": "0x22E3017D88daE290C9038d5B0aC38C2FE3B02249",
      "gasPrice": {
        "_hex": "0xba43b7400"
      },
      "gasLimit": {
        "_hex": "0x15f90"
      },
      "to": "0x793AE8C1b1a160BFc07BFB0d04F85eab1A71F4f2",
      "value": {
        "_hex": "0x0"
      },
      "nonce": 0,
      "data": "0x3ba15036",
      "r": "0x8a31577b9e6858cb868db8966e3480fbcb4be63edc40db8ef36ed1936639947c",
      "s": "0x7c90a182c3dbfb67d5499a16cd33568ead6c8f9e60adf761ed20d70675f32010",
      "v": 27,
      "creates": null,
      "raw": "0xf86980850ba43b740083015f9094793ae8c1b1a160bfc07bfb0d04f85eab1a71f4f280843ba150361ba08a31577b9e6858cb868db8966e3480fbcb4be63edc40db8ef36ed1936639947ca07c90a182c3dbfb67d5499a16cd33568ead6c8f9e60adf761ed20d70675f32010",
      "networkId": 0,
      "chainId": 0
    }
  ]
}