{
  "hash": "0x054c0afd69de331c6ea26e53ffa383ca1f1f85f0fdd93606d62da2181bc81edd",
  "parentHash": "0x888fd12579bc6111f27b7c596ef156ce84e7c9652d22d3a6de33d389a6077d36",
  "number": 80719,
  "timestamp": 1439489758,
  "nonce": "0x6e0d271fd050b651",
  "difficulty": 2436874735337,
  "gasLimit": {
    "_hex": "0x2fefd8"
  },
  "gasUsed": {
    "_hex": "0x5208"
  },
  "miner": "0xe6A7a1d47ff21B6321162AEA7C6CB457D5476Bca",
  "extraData": "0x476574682f76312e302e312d38326566323666362f6c696e75782f676f312e34",
  "transactions": [
    {
      "hash": "0xc44fdfdf223205628ed8667bdf34d00b0f646ec5c4ab7b35b1829d357d32099e",
      "blockHash": "0x054c0afd69de331c6ea26e53ffa383ca1f1f85f0fdd93606d62da2181bc81edd",
      "blockNumber": 80719,
      "transactionIndex": 0,
      "confirmations": null,
      "from": "0x32Be343B94f860124dC4fEe278FDCBD38C102D88",
      "gasPrice": {
        "_hex": "0xd28c2c488"
      },
      "gasLimit": {
        "_hex": "0x5208"
      },
      "to": "0x547771709AC724BeA2710dB1fdC83a890cc1B84d",
      "value": {
        "_hex": "0x40c882f4681ed000"
      },
      "nonce": 551,
      "data": "0x",
      "r": "0x940def0d751d0bed83bb1084ba49ee372985612c2db4fdc908adef142eff365f",
      "s": "0x673aa8a7823122626fae5cb1aa5ed8c21f241abd9cca8f20d16faaa7a92749ec",
      "v": 28,
      "creates": null,
      "raw": "0xf86e820227850d28c2c48882520894547771709ac724bea2710db1fdc83a890cc1b84d8840c882f4681ed000801ca0940def0d751d0bed83bb1084ba49ee372985612c2db4fdc908adef142eff365fa0673aa8a7823122626fae5cb1aa5ed8c21f241abd9cca8f20d16faaa7a92749ec",
      "networkId": 0,
      "chainId": 0
    }
  ]
}