{
  "hash": "0xa1df8dfa4133c6a07bdbbca4c99b85ddb33f70c809a04c64b41a88f75c952d68",
  "parentHash": "0x0d7fe99f79bf171fd571c466767ac2415c9da765d418b8e234029a7a48c02bf7",
  "number": 65199,
  "timestamp": 1439232745,
  "nonce": "0x6f282cf9f71e3a4f",
  "difficulty": 1952154570148,
  "gasLimit": {
    "_hex": "0x2fefd8"
  },
  "gasUsed": {
    "_hex": "0xf618"
  },
  "miner": "0xf927a40C8B7F6E07c5af7FA2155B4864a4112B13",
  "extraData": "0x",
  "transactions": [
    {
      "hash": "0xbea73d3cfbcef303396221a93bd87420f4e6303575dfb81da5fc807686bedd02",
      "blockHash": "0xa1df8dfa4133c6a07bdbbca4c99b85ddb33f70c809a04c64b41a88f75c952d68",
      "blockNumber": 65199,
      "transactionIndex": 0,
      "confirmations": null,
      "from": "0x84ad64deFF6B187f690634051D2a096C359D1099",
      "gasPrice": {
        "_hex": "0xcfb1cd3d3"
      },
      "gasLimit": {
        "_hex": "0x5208"
      },
      "to": "0xd8806Af9F36874CABFdC064548e4B74197E75e11",
      "value": {
        "_hex": "0x2c"
      },
      "nonce": 2,
      "data": "0x",
      "r": "0xfdbb1e8150d46ba7fa5b01aea2f0971a15915795122f139136d2910b5e4079fe",
      "s": "0x5ddb3b5916a01020168b3eec0fa716a4725952531ea3cf5191da509bf0ece8bd",
      "v": 27,
      "creates": null,
      "raw": "0xf86402850cfb1cd3d382520894d8806af9f36874cabfdc064548e4b74197e75e112c801ba0fdbb1e8150d46ba7fa5b01aea2f0971a15915795122f139136d2910b5e4079fea05ddb3b5916a01020168b3eec0fa716a4725952531ea3cf5191da509bf0ece8bd",
      "networkId": 0,
      "chainId": 0
    },
    {
      "hash": "0x2a0ece9bda64a0f76cf9b36ce0e9df2dc59c63fe49ede208b89cf13c5c84e4ee",
      "blockHash": "0xa1df8dfa4133c6a07bdbbca4c99b85ddb33f70c809a04c64b41a88f75c952d68",
      "blockNumber": 65199,
      "transactionIndex": 1,
      "confirmations": null,
      "from": "0x85dCcd991cF318E021F6BeB5FD552D34Cd291DAf",
      "gasPrice": {
        "_hex": "0xba43b7400"
      },
      "gasLimit": {
        "_hex": "0x5208"
      },
      "to": "0x06DFA3E59d0D742BFD801130619a1Bc05ad343A5",
      "value": {
        "_hex": "0x68a8d6a99cc7000"
      },
      "nonce": 1,
      "data": "0x",
      "r": "0x0e0e18e03594f43eb2a00dc9a1f09655057b797fef65c6095b909b5de71a3fa8",
      "s": "0x52318eb439fcd9f742fcdbfce70f86acb9333e31a4eb9a0d8be4f47336b8a4ee",
      "v": 27,
      "creates": null,
      "raw": "0xf86c01850ba43b74008252089406dfa3e59d0d742bfd801130619a1bc05ad343a588068a8d6a99cc7000801ba00e0e18e03594f43eb2a00dc9a1f09655057b797fef65c6095b909b5de71a3fa8a052318eb439fcd9f742fcdbfce70f86acb9333e31a4eb9a0d8be4f47336b8a4ee",
      "networkId": 0,
      "chainId": 0
    },
    {
      "hash": "0x6b56e500506b443e89455fba324117ffcfe37087274e330da037c0511bc8e5ce",
      "blockHash": "0xa1df8dfa4133c6a07bdbbca4c99b85ddb33f70c809a04c64b41a88f75c952d68",
      "blockNumber": 65199,
      "transactionIndex": 2,
      "confirmations": null,
      "from": "0xcc67eEA4682EaEd9Ca1F9072344BAb9b04fcE7C7",
      "gasPrice": {
        "_hex": "0xba43b7400"
      },
      "gasLimit": {
        "_hex": "0x5208"
      },
      "to": "0xF5D5F5C1F825e3D1088747219A40dd4886E519B5",
      "value": {
        "_hex": "0x62e00b7338ab000"
      },
      "nonce": 1,
      "data": "0x",
      "r": "0xf4ed93c5af4e0729b36b1bcc62c1b82a1b449352db7a97521283b014d2ee6890",
      "s": "0x26bfac380ea711fd21081bd03423782d54241e1ed18cd258ad3a858cb3b9d589",
      "v": 28,
      "creates": null,
      "raw": "0xf86c01850ba43b740082520894f5d5f5c1f825e3d1088747219a40dd4886e519b588062e00b7338ab000801ca0f4ed93c5af4e0729b36b1bcc62c1b82a1b449352db7a97521283b014d2ee6890a026bfac380ea711fd21081bd03423782d54241e1ed18cd258ad3a858cb3b9d589",
      "networkId": 0,
      "chainId": 0
    }
  ]
}