{
  "hash": "0x4d7f814d0e37e279c2d79143150733c7c4d6b579543d2e743dccbdfc656c18c0",
  "parentHash": "0x22f44b9d569fdc266cf86fbe174c4881bd611245e6a1ca037cc23dd222014530",
  "number": 65839,
  "timestamp": 1439243711,
  "nonce": "0xa5e440a12535fd60",
  "difficulty": 1950100313062,
  "gasLimit": {
    "_hex": "0x2fefd8"
  },
  "gasUsed": {
    "_hex": "0x5208"
  },
  "miner": "0x88D74a59454F6cF3B51ef6b9136AFb6b9D405A88",
  "extraData": "0x476574682f76312e302e312d37666266393930632f6c696e75782f676f312e34",
  "transactions": [
    {
      "hash": "0x26a201f00337deb849ec5d3e799132c5ee67d6e2d7cbe700fe83e438dc3f05a5",
      "blockHash": "0x4d7f814d0e37e279c2d79143150733c7c4d6b579543d2e743dccbdfc656c18c0",
      "blockNumber": 65839,
      "transactionIndex": 0,
      "confirmations": null,
      "from": "0x2910543Af39abA0Cd09dBb2D50200b3E800A63D2",
      "gasPrice": {
        "_hex": "0xd6cfeda1e"
      },
      "gasLimit": {
        "_hex": "0x5208"
      },
      "to": "0x4b486e0f865854F3d34bd001a6Fd3077C7F2f67E",
      "value": {
        "_hex": "0x18482382d170f8000"
      },
      "nonce": 192,
      "data": "0x",
      "r": "0xd292c9b33d994ed0044a116417b8696dd5b00be962b80e3b0a35edad372fd3cd",
      "s": "0x08c5af7b55438a00d2559865e6fba3257ab67515acd23cab96a8662f6edc1036",
      "v": 28,
      "creates": null,
      "raw": "0xf86e81c0850d6cfeda1e825208944b486e0f865854f3d34bd001a6fd3077c7f2f67e89018482382d170f8000801ca0d292c9b33d994ed0044a116417b8696dd5b00be962b80e3b0a35edad372fd3cda008c5af7b55438a00d2559865e6fba3257ab67515acd23cab96a8662f6edc1036",
      "networkId": 0,
      "chainId": 0
    }
  ]
}