{
  "hash": "0x7e2d64e308a453e6723e61f22670cf0f705e1588f8f40f3cae5013a8c9a6811b",
  "parentHash": "0x70b3282a8fe4fa3c5eff021665dd4a0a31aff9c57bc1f646d86bb339dfead8bf",
  "number": 109093,
  "timestamp": 1439950895,
  "nonce": "0xda33116472aa8632",
  "difficulty": 4427875564150,
  "gasLimit": {
    "_hex": "0x2fefd8"
  },
  "gasUsed": {
    "_hex": "0x5208"
  },
  "miner": "0x790b8a3cE86E707ED0eD32bF89B3269692a23CC1",
  "extraData": "0xd783010001844765746887676f312e342e32856c696e7578",
  "transactions": [
    {
      "hash": "0xa6e47182d639508d343122e0f79b6c8f17447af07a152589854c5ec54186d393",
      "blockHash": "0x7e2d64e308a453e6723e61f22670cf0f705e1588f8f40f3cae5013a8c9a6811b",
      "blockNumber": 109093,
      "transactionIndex": 0,
      "confirmations": null,
      "from": "0x120A270bbC009644e35F0bB6ab13f95b8199c4ad",
      "gasPrice": {
        "_hex": "0xd192b5ea7"
      },
      "gasLimit": {
        "_hex": "0x3d090"
      },
      "to": "0xD3c6b518F1631509963232bA8e1882D3474a5838",
      "value": {
        "_hex": "0x25bcdfd0fcb6599c00"
      },
      "nonce": 848,
      "data": "0x",
      "r": "0x788bd2d95a6aa6a83164579022b16087cff2f846b20171e29dea4373252d94dd",
      "s": "0x6523477bf052ca3f0e422a7847dcf042070982e2e80e8184a116cbbcc5fd0391",
      "v": 27,
      "creates": null,
      "raw": "0xf870820350850d192b5ea78303d09094d3c6b518f1631509963232ba8e1882d3474a58388925bcdfd0fcb6599c00801ba0788bd2d95a6aa6a83164579022b16087cff2f846b20171e29dea4373252d94dda06523477bf052ca3f0e422a7847dcf042070982e2e80e8184a116cbbcc5fd0391",
      "networkId": 0,
      "chainId": 0
    }
  ]
}