{
  "hash": "0x576ce38a20b2d067db71454f58131c27f76a57fb350d7f06e1517578f53b152e",
  "parentHash": "0x0f379d13017b9d37cba71340abc50e6781a9804783947692c734b7650fceeafb",
  "number": 79901,
  "timestamp": 1439477029,
  "nonce": "0x61a849a9a94dc534",
  "difficulty": 2348330164830,
  "gasLimit": {
    "_hex": "0x2fefd8"
  },
  "gasUsed": {
    "_hex": "0x5208"
  },
  "miner": "0xB43e1e0a5b31874b2a95b1bc58bFcBD8CE5967DA",
  "extraData": "0x",
  "transactions": [
    {
      "hash": "0xd8ef1903fde12b41dcba35cf4b80d784b03ee89b4d7ddc32313e9b6235e153ab",
      "blockHash": "0x576ce38a20b2d067db71454f58131c27f76a57fb350d7f06e1517578f53b152e",
      "blockNumber": 79901,
      "transactionIndex": 0,
      "confirmations": null,
      "from": "0x32Be343B94f860124dC4fEe278FDCBD38C102D88",
      "gasPrice": {
        "_hex": "0xd40b6e03d"
      },
      "gasLimit": {
        "_hex": "0x5208"
      },
      "to": "0xC8ca597c8D121B2C4A04b998f5aCCEE93c5a8aD7",
      "value": {
        "_hex": "0x681321d44071f0000"
      },
      "nonce": 465,
      "data": "0x",
      "r": "0xe61610be55704cee3c702b8e0c680dbe1c5d426f7db1adef5bd043c26e3f4866",
      "s": "0x100ca90b93dce62ff8a244627788e5b40c726952b28c474fa05420a3c4edd949",
      "v": 28,
      "creates": null,
      "raw": "0xf86f8201d1850d40b6e03d82520894c8ca597c8d121b2c4a04b998f5accee93c5a8ad7890681321d44071f0000801ca0e61610be55704cee3c702b8e0c680dbe1c5d426f7db1adef5bd043c26e3f4866a0100ca90b93dce62ff8a244627788e5b40c726952b28c474fa05420a3c4edd949",
      "networkId": 0,
      "chainId": 0
    }
  ]
}