{
  "hash": "0x109ff64f7a67e944b4078f3dab0a521c814d67a8d7eb58018b51ee188d9027eb",
  "parentHash": "0x2e89ff595313d256fb003211ad0355cf1a051020f50d842eb62b0f51cad69695",
  "number": 115690,
  "timestamp": 1440061511,
  "nonce": "0x827177ea412c6e2f",
  "difficulty": 4598396751396,
  "gasLimit": {
    "_hex": "0x2fefd8"
  },
  "gasUsed": {
    "_hex": "0x5208"
  },
  "miner": "0xe64D681b0eBCa2997D5f35e72EbC7777973299D7",
  "extraData": "0x",
  "transactions": [
    {
      "hash": "0x748ed92e705da9d09eee13785219f89437f359014a32e9966de510fb8e6d1d37",
      "blockHash": "0x109ff64f7a67e944b4078f3dab0a521c814d67a8d7eb58018b51ee188d9027eb",
      "blockNumber": 115690,
      "transactionIndex": 0,
      "confirmations": null,
      "from": "0xA1A13F48D504123E1d50e360267F894e8e43838c",
      "gasPrice": {
        "_hex": "0xba43b7400"
      },
      "gasLimit": {
        "_hex": "0x5208"
      },
      "to": "0xC47Aaa860008be6f65B58c6C6E02a84e666EfE31",
      "value": {
        "_hex": "0x1c592263522f5150"
      },
      "nonce": 6,
      "data": "0x",
      "r": "0x42c5c2714787a1bd94c6478ff9f9ea95cd9f929ff89182640b0d71c34a0828d4",
      "s": "0x7bf4f087a6c8b49d3090cd3aaea612d1aa02c64abd7a9dc93bc9d0cdbc4ddd68",
      "v": 27,
      "creates": null,
      "raw": "0xf86c06850ba43b740082520894c47aaa860008be6f65b58c6c6e02a84e666efe31881c592263522f5150801ba042c5c2714787a1bd94c6478ff9f9ea95cd9f929ff89182640b0d71c34a0828d4a07bf4f087a6c8b49d3090cd3aaea612d1aa02c64abd7a9dc93bc9d0cdbc4ddd68",
      "networkId": 0,
      "chainId": 0
    }
  ]
}