{
  "hash": "0xfc22cfd1748064f7a8432594e325f409204cee86e033605d155df5f8d03e4bc5",
  "parentHash": "0x8908bd2aca5f2fca99c4771d9c55f375cc35a6fba639cfca30afef7d68c3ca15",
  "number": 52086,
  "timestamp": 1439015903,
  "nonce": "0x8bc722c9f7dd3a8d",
  "difficulty": 1561113249073,
  "gasLimit": {
    "_hex": "0x10201a"
  },
  "gasUsed": {
    "_hex": "0x5998"
  },
  "miner": "0xf927a40C8B7F6E07c5af7FA2155B4864a4112B13",
  "extraData": "0x476574682f76312e302e312f6c696e75782f676f312e342e32",
  "transactions": [
    {
      "hash": "0xdd779aa3ebf240c2907a4f4316904a6929bddce7e110b54cc721c2d1dd3bce37",
      "blockHash": "0xfc22cfd1748064f7a8432594e325f409204cee86e033605d155df5f8d03e4bc5",
      "blockNumber": 52086,
      "transactionIndex": 0,
      "confirmations": null,
      "from": "0x320e69e693Df6C1476c13836CDBE2F6E5dEf83A1",
      "gasPrice": {
        "_hex": "0xd4850a80f"
      },
      "gasLimit": {
        "_hex": "0x15f90"
      },
      "to": "0x0000000000000000000000000000000000000000",
      "value": {
        "_hex": "0x0"
      },
      "nonce": 4,
      "data": "0xbe99a9806d696b0000000000000000000000000000000000000000000000000000000000000000000000000000000000320e69e693df6b07e35545d88d2ab768000000000000000000000000000000000000000000000000000000000000000000000001",
      "r": "0x9dd8653cf998753f3a2e7ca3c47898a8ba448750e3eb2a8f06d3ac87cdf87dc0",
      "s": "0x05b7d91d042555645cec70e2ee12964e35f31211bb871e9a538a96225170270d",
      "v": 28,
      "creates": null,
      "raw": "0xf8ca04850d4850a80f83015f9094000000000000000000000000000000000000000080b864be99a9806d696b0000000000000000000000000000000000000000000000000000000000000000000000000000000000320e69e693df6b07e35545d88d2ab7680000000000000000000000000000000000000000000000000000000000000000000000011ca09dd8653cf998753f3a2e7ca3c47898a8ba448750e3eb2a8f06d3ac87cdf87dc0a005b7d91d042555645cec70e2ee12964e35f31211bb871e9a538a96225170270d",
      "networkId": 0,
      "chainId": 0
    }
  ]
}