{
  "hash": "0x0340ddc99385bd724e61bdf7c4c22557e51b1568d7cd350409e05bc295431d9c",
  "parentHash": "0xeb1bfefba8557be9d113896d90921b6268c7ac2b13081e32fafbd8b9a5f47b2a",
  "number": 87017,
  "timestamp": 1439586113,
  "nonce": "0x2b26ab7dab3a3a0d",
  "difficulty": 3003945364232,
  "gasLimit": {
    "_hex": "0x2fefd8"
  },
  "gasUsed": {
    "_hex": "0x5208"
  },
  "miner": "0x87898CE53471043FcCa0a2aF4E1dC6d8B3fCf607",
  "extraData": "0x476574682f5369626572696131392f76312e302e312d37666266393930632f6c",
  "transactions": [
    {
      "hash": "0x9469406dae40688546a74cdfa762215fc85bb083ee83ecd71800180929f63cf4",
      "blockHash": "0x0340ddc99385bd724e61bdf7c4c22557e51b1568d7cd350409e05bc295431d9c",
      "blockNumber": 87017,
      "transactionIndex": 0,
      "confirmations": null,
      "from": "0xa6BDc31c431B8F97848c9D60cbbe9660dc450eB7",
      "gasPrice": {
        "_hex": "0xdbffcdb3f"
      },
      "gasLimit": {
        "_hex": "0x5208"
      },
      "to": "0x32Be343B94f860124dC4fEe278FDCBD38C102D88",
      "value": {
        "_hex": "0x455f349f41079400"
      },
      "nonce": 77,
      "data": "0x",
      "r": "0x3f9db251bbf192383f57baa9abf1fe644c8c8758444d69983079d2ae178b629d",
      "s": "0x0f52b9808ce699b7b005bbb52031a4420ea340316b97bc8f63e4d06f97099ea7",
      "v": 27,
      "creates": null,
      "raw": "0xf86c4d850dbffcdb3f8252089432be343b94f860124dc4fee278fdcbd38c102d8888455f349f41079400801ba03f9db251bbf192383f57baa9abf1fe644c8c8758444d69983079d2ae178b629da00f52b9808ce699b7b005bbb52031a4420ea340316b97bc8f63e4d06f97099ea7",
      "networkId": 0,
      "chainId": 0
    }
  ]
}