{
  "hash": "0x39754f9dcd6a160d09bbd73ee97f27b50ca51bc9d3accc41bbfc9efbecd9f5b3",
  "parentHash": "0x518e2736c29358b0303cb0a0f9115298f1dea95f7340af630df115abaae362b7",
  "number": 84374,
  "timestamp": 1439548815,
  "nonce": "0x36d618bdb95ab614",
  "difficulty": 2546485719418,
  "gasLimit": {
    "_hex": "0x2fefd8"
  },
  "gasUsed": {
    "_hex": "0x5208"
  },
  "miner": "0x77EC9ad4A7E9418774C29415CAaF4Ee0da96eF64",
  "extraData": "0x",
  "transactions": [
    {
      "hash": "0x2570866ffb80bc76d244290d64642eb723572023629343a16ae56e7cd853fb25",
      "blockHash": "0x39754f9dcd6a160d09bbd73ee97f27b50ca51bc9d3accc41bbfc9efbecd9f5b3",
      "blockNumber": 84374,
      "transactionIndex": 0,
      "confirmations": null,
      "from": "0xe6A7a1d47ff21B6321162AEA7C6CB457D5476Bca",
      "gasPrice": {
        "_hex": "0xd1e47b024"
      },
      "gasLimit": {
        "_hex": "0x55f0"
      },
      "to": "0x047fF53dFE1F7BD2c3Ed2D1f777F35D1f64e9ffE",
      "value": {
        "_hex": "0x37bff356a5e01ccb0"
      },
      "nonce": 1935,
      "data": "0x",
      "r": "0x1a471c9438d5dfc7a7e8bf6a9c7a152cfd80b38dd5fa39b24858cd30f0201be8",
      "s": "0x099f44f7fe464e2a8ad5cc798fe7bf472d931bedb35ade783f73fddf236bae74",
      "v": 28,
      "creates": null,
      "raw": "0xf86f82078f850d1e47b0248255f094047ff53dfe1f7bd2c3ed2d1f777f35d1f64e9ffe89037bff356a5e01ccb0801ca01a471c9438d5dfc7a7e8bf6a9c7a152cfd80b38dd5fa39b24858cd30f0201be8a0099f44f7fe464e2a8ad5cc798fe7bf472d931bedb35ade783f73fddf236bae74",
      "networkId": 0,
      "chainId": 0
    }
  ]
}