{
  "hash": "0x59257195e1fe188c684cf1aa3597a733394ce8dd89ce55c25b61105f1cca0d73",
  "parentHash": "0xeb22f98a2c25047a77e495026abdcc04fc2a164616502e67bda13e03cf0808e3",
  "number": 116084,
  "timestamp": 1440068083,
  "nonce": "0xa8fb3df2cd63d243",
  "difficulty": 4602673381394,
  "gasLimit": {
    "_hex": "0x2fefd8"
  },
  "gasUsed": {
    "_hex": "0xa410"
  },
  "miner": "0x9D49F602b0fdb924Bd63DDE2Bd0907E4A07c63a7",
  "extraData": "0x476574682f76312e302e312f6c696e75782f676f312e342e32",
  "transactions": [
    {
      "hash": "0xa1f057881849a541b98a65f29ad6f74f3727fbf52ae840234158af85443787c3",
      "blockHash": "0x59257195e1fe188c684cf1aa3597a733394ce8dd89ce55c25b61105f1cca0d73",
      "blockNumber": 116084,
      "transactionIndex": 0,
      "confirmations": null,
      "from": "0x3C869c09696523cED824a070414605Bb76231fF2",
      "gasPrice": {
        "_hex": "0xde84d81bc"
      },
      "gasLimit": {
        "_hex": "0x15f90"
      },
      "to": "0xcC26443fa886eca41C2c5aE022228246e376d352",
      "value": {
        "_hex": "0x1b0d04202f47ec0000"
      },
      "nonce": 2,
      "data": "0x",
      "r": "0xf659225f4c07b245a0ffcbe38229df8b4307629a44f2b5f1dd0eb34894612f48",
      "s": "0x14bd9c37e5b30ed25f0b7fe8448bc6b77a488d891c42c93f6b3cda725a5543a1",
      "v": 27,
      "creates": null,
      "raw": "0xf86e02850de84d81bc83015f9094cc26443fa886eca41c2c5ae022228246e376d352891b0d04202f47ec0000801ba0f659225f4c07b245a0ffcbe38229df8b4307629a44f2b5f1dd0eb34894612f48a014bd9c37e5b30ed25f0b7fe8448bc6b77a488d891c42c93f6b3cda725a5543a1",
      "networkId": 0,
      "chainId": 0
    },
    {
      "hash": "0xb712804a490865967f68b747e7b1371377929aa11a6bd90fdfda1b5a28393bdb",
      "blockHash": "0x59257195e1fe188c684cf1aa3597a733394ce8dd89ce55c25b61105f1cca0d73",
      "blockNumber": 116084,
      "transactionIndex": 1,
      "confirmations": null,
      "from": "0x6bA20db629F46Fa525F5080d151B714a758dDff2",
      "gasPrice": {
        "_hex": "0xd4dfa5aef"
      },
      "gasLimit": {
        "_hex": "0x15f90"
      },
      "to": "0x23f2D0fd3B4C98Fb1698564deB4898275E2e831f",
      "value": {
        "_hex": "0x8ac7230489e80000"
      },
      "nonce": 5,
      "data": "0x",
      "r": "0xd292360272d9aac562a102e065d44ca90920aa67459187f977998451f141fc64",
      "s": "0x28bd86b7617fb77812198753945a740902032c709a1122affef6be4897848d09",
      "v": 28,
      "creates": null,
      "raw": "0xf86d05850d4dfa5aef83015f909423f2d0fd3b4c98fb1698564deb4898275e2e831f888ac7230489e80000801ca0d292360272d9aac562a102e065d44ca90920aa67459187f977998451f141fc64a028bd86b7617fb77812198753945a740902032c709a1122affef6be4897848d09",
      "networkId": 0,
      "chainId": 0
    }
  ]
}