{
  "hash": "0xd138dd2d7006018d32bbf7c8095951f51a26f0cf030dfd00975f699022f662a0",
  "parentHash": "0xa104b21b498a3a031f1ff4ee55dc23a494f205bc339c43c597f9a07cd4c31ee0",
  "number": 87822,
  "timestamp": 1439598004,
  "nonce": "0x66fcee0154f11b80",
  "difficulty": 3177144796600,
  "gasLimit": {
    "_hex": "0x2fefd8"
  },
  "gasUsed": {
    "_hex": "0x5208"
  },
  "miner": "0x88D74a59454F6cF3B51ef6b9136AFb6b9D405A88",
  "extraData": "0x476574682f76312e302e312d38326566323666362f6c696e75782f676f312e34",
  "transactions": [
    {
      "hash": "0xab5a601884150ad1a95c908d03a51e6f2bd539ec1b531bb1101a01f42f4f2781",
      "blockHash": "0xd138dd2d7006018d32bbf7c8095951f51a26f0cf030dfd00975f699022f662a0",
      "blockNumber": 87822,
      "transactionIndex": 0,
      "confirmations": null,
      "from": "0x50532e4Be195D1dE0c2E6DfA46D9ec0a4Fee6861",
      "gasPrice": {
        "_hex": "0xba43b7400"
      },
      "gasLimit": {
        "_hex": "0x5208"
      },
      "to": "0xC47Aaa860008be6f65B58c6C6E02a84e666EfE31",
      "value": {
        "_hex": "0x46d999bf6a2830f0"
      },
      "nonce": 0,
      "data": "0x",
      "r": "0x999f37f5c10c5087eb4351dde87526d2c1e823cc29386d916693f968fac695f7",
      "s": "0x52fe3dee3f5a9589033f95ceca655010df4e6ce0819d09df6e6ca78292aa6958",
      "v": 28,
      "creates": null,
      "raw": "0xf86c80850ba43b740082520894c47aaa860008be6f65b58c6c6e02a84e666efe318846d999bf6a2830f0801ca0999f37f5c10c5087eb4351dde87526d2c1e823cc29386d916693f968fac695f7a052fe3dee3f5a9589033f95ceca655010df4e6ce0819d09df6e6ca78292aa6958",
      "networkId": 0,
      "chainId": 0
    }
  ]
}