{
  "hash": "0xbaf15968d32c1beb8777cb3547c1f90e796be60717d38fef7ee9c13dcffed265",
  "parentHash": "0xc81f64f549048b6dc827fe3733f3eabea197611e60e966336fce515f4094f414",
  "number": 92854,
  "timestamp": 1439678127,
  "nonce": "0x1aa1e1c57ae5f201",
  "difficulty": 3651111048421,
  "gasLimit": {
    "_hex": "0x2fe3de"
  },
  "gasUsed": {
    "_hex": "0x5208"
  },
  "miner": "0xDdf735543837695220A5fF5920f5756696840A5D",
  "extraData": "0x476574682f76312e302e302f6c696e75782f676f312e342e32",
  "transactions": [
    {
      "hash": "0x8e1c62051498b3a82cdab0956cc3eda55f514fad5c6615e228e1d765994c0206",
      "blockHash": "0xbaf15968d32c1beb8777cb3547c1f90e796be60717d38fef7ee9c13dcffed265",
      "blockNumber": 92854,
      "transactionIndex": 0,
      "confirmations": null,
      "from": "0xB480F44F0868b5c45aa0C59dCe85CA5A2eef91e8",
      "gasPrice": {
        "_hex": "0x103e12041e9"
      },
      "gasLimit": {
        "_hex": "0x15f90"
      },
      "to": "0x103967E58a2593d7576B8A9819C24dB7C67C92C3",
      "value": {
        "_hex": "0x80cd9fb3699820000"
      },
      "nonce": 1,
      "data": "0x",
      "r": "0x13a571de401a7fd6f453d862479f541e453ebfe18f3809681702bd2e0b002cea",
      "s": "0x4c3800052d6bd5ad458373e0c7be02009c7feca650f0f37bd22269801a7e1c09",
      "v": 27,
      "creates": null,
      "raw": "0xf86f01860103e12041e983015f9094103967e58a2593d7576b8a9819c24db7c67c92c389080cd9fb3699820000801ba013a571de401a7fd6f453d862479f541e453ebfe18f3809681702bd2e0b002ceaa04c3800052d6bd5ad458373e0c7be02009c7feca650f0f37bd22269801a7e1c09",
      "networkId": 0,
      "chainId": 0
    }
  ]
}