{
  "hash": "0x72f8de0f0ed9cd1e151871f64c528e41fa7e17110787787fc6a3d7e3d9cd5ddd",
  "parentHash": "0x800ce461a2ff74c5386d3f3efff706c2bebb2a352a9618e57fc7490058b9a7b3",
  "number": 83890,
  "timestamp": 1439542286,
  "nonce": "0x2e28396b8184682a",
  "difficulty": 2458658076940,
  "gasLimit": {
    "_hex": "0x2fefd8"
  },
  "gasUsed": {
    "_hex": "0x14820"
  },
  "miner": "0x6DE55b563cE6E319cCB403032Da3BE5Ad4ec4FcF",
  "extraData": "0x",
  "transactions": [
    {
      "hash": "0x33710840b79b92239b2871dde708a105b91a4db99bec7073d579d019d3e267dc",
      "blockHash": "0x72f8de0f0ed9cd1e151871f64c528e41fa7e17110787787fc6a3d7e3d9cd5ddd",
      "blockNumber": 83890,
      "transactionIndex": 0,
      "confirmations": null,
      "from": "0x0bCa038BF4ACAd3Cbf73463EccC7717dDCDc3D83",
      "gasPrice": {
        "_hex": "0xce158022a"
      },
      "gasLimit": {
        "_hex": "0x5208"
      },
      "to": "0x32Be343B94f860124dC4fEe278FDCBD38C102D88",
      "value": {
        "_hex": "0x164eb198be2c420000"
      },
      "nonce": 2,
      "data": "0x",
      "r": "0x0d1677c7609a91d7f4ccec017b1b960eed5cbca8820567f445b99c7679ccea12",
      "s": "0x70c7da1ae05d1a8ef99c6d9fd873240e886e9229607e68f43c107a0510028a4b",
      "v": 27,
      "creates": null,
      "raw": "0xf86d02850ce158022a8252089432be343b94f860124dc4fee278fdcbd38c102d8889164eb198be2c420000801ba00d1677c7609a91d7f4ccec017b1b960eed5cbca8820567f445b99c7679ccea12a070c7da1ae05d1a8ef99c6d9fd873240e886e9229607e68f43c107a0510028a4b",
      "networkId": 0,
      "chainId": 0
    },
    {
      "hash": "0xbf93504b48913e1f57c3e58adc8f36235a26db1cfd58ae44d4ba1a3abaa91026",
      "blockHash": "0x72f8de0f0ed9cd1e151871f64c528e41fa7e17110787787fc6a3d7e3d9cd5ddd",
      "blockNumber": 83890,
      "transactionIndex": 1,
      "confirmations": null,
      "from": "0x32Be343B94f860124dC4fEe278FDCBD38C102D88",
      "gasPrice": {
        "_hex": "0xce158022a"
      },
      "gasLimit": {
        "_hex": "0x5208"
      },
      "to": "0x922a07a31F45e2b18d81AE6eF0467e6f50C9F7A3",
      "value": {
        "_hex": "0x25f2500c4b45b00000"
      },
      "nonce": 669,
      "data": "0x",
      "r": "0xb74b740703c03b7c2099991e8bad065376c61b6e38d8a27a99614f5b0bf77611",
      "s": "0x1b4be7524ed36c093964939a97dfc955cc3cdd0b1e7069e52a5ee5235e0fb9ec",
      "v": 27,
      "creates": null,
      "raw": "0xf86f82029d850ce158022a82520894922a07a31f45e2b18d81ae6ef0467e6f50c9f7a38925f2500c4b45b00000801ba0b74b740703c03b7c2099991e8bad065376c61b6e38d8a27a99614f5b0bf77611a01b4be7524ed36c093964939a97dfc955cc3cdd0b1e7069e52a5ee5235e0fb9ec",
      "networkId": 0,
      "chainId": 0
    },
    {
      "hash": "0x9e72f497c7491ed198c34e0ae464d10cfa5cbc0145256a5b419476d8f6d4b556",
      "blockHash": "0x72f8de0f0ed9cd1e151871f64c528e41fa7e17110787787fc6a3d7e3d9cd5ddd",
      "blockNumber": 83890,
      "transactionIndex": 2,
      "confirmations": null,
      "from": "0x0D4EcC7d750180EBf4A9Df728B6669B5Bceb5E40",
      "gasPrice": {
        "_hex": "0xce158022a"
      },
      "gasLimit": {
        "_hex": "0x5208"
      },
      "to": "0x32Be343B94f860124dC4fEe278FDCBD38C102D88",
      "value": {
        "_hex": "0x478a83d651f1e000"
      },
      "nonce": 24,
      "data": "0x",
      "r": "0x18178068292e986fda14b056814145495ba3ff58a97f1cb0ac85d6d3c51b36cd",
      "s": "0x7054d98ed2c67411408b2e5316cd7117475cac82f8a790bd08aef72837a908fe",
      "v": 27,
      "creates": null,
      "raw": "0xf86c18850ce158022a8252089432be343b94f860124dc4fee278fdcbd38c102d8888478a83d651f1e000801ba018178068292e986fda14b056814145495ba3ff58a97f1cb0ac85d6d3c51b36cda07054d98ed2c67411408b2e5316cd7117475cac82f8a790bd08aef72837a908fe",
      "networkId": 0,
      "chainId": 0
    },
    {
      "hash": "0xab471431fc948cb4e7c1ce99c515f7924f9766825be8f23d7c2eedefdcc3b719",
      "blockHash": "0x72f8de0f0ed9cd1e151871f64c528e41fa7e17110787787fc6a3d7e3d9cd5ddd",
      "blockNumber": 83890,
      "transactionIndex": 3,
      "confirmations": null,
      "from": "0xF8Df84ACE9b0099C87b3F028D0813d855eE72539",
      "gasPrice": {
        "_hex": "0xce158022a"
      },
      "gasLimit": {
        "_hex": "0x5208"
      },
      "to": "0x32Be343B94f860124dC4fEe278FDCBD38C102D88",
      "value": {
        "_hex": "0x56bc33d970b168000"
      },
      "nonce": 0,
      "data": "0x",
      "r": "0x1001a7d9044b51dbbf72e89ebb99fcc65dd311e3cfd4458c1edc39bd646f54f5",
      "s": "0x6ebc7492460391704d30daebda4565f6cf047eb0b226246221e96ad98f259dc7",
      "v": 28,
      "creates": null,
      "raw": "0xf86d80850ce158022a8252089432be343b94f860124dc4fee278fdcbd38c102d8889056bc33d970b168000801ca01001a7d9044b51dbbf72e89ebb99fcc65dd311e3cfd4458c1edc39bd646f54f5a06ebc7492460391704d30daebda4565f6cf047eb0b226246221e96ad98f259dc7",
      "networkId": 0,
      "chainId": 0
    }
  ]
}