{
  "hash": "0x83252d94095406e024a4abd3872918ac5332edb577fb6227027f51be2b119155",
  "parentHash": "0x4bff233fd54e12f0b98309a15f912d48e3281ff7cad60d33e20536b2b3346eab",
  "number": 112557,
  "timestamp": 1440009272,
  "nonce": "0xe653af20e771b13e",
  "difficulty": 4426047490131,
  "gasLimit": {
    "_hex": "0x2fefd8"
  },
  "gasUsed": {
    "_hex": "0x1bdbe"
  },
  "miner": "0x513cc87Fc09c7Dedae9A780a66dc47ebeE4B5C5A",
  "extraData": "0x",
  "transactions": [
    {
      "hash": "0xfe2ce4ecc1dac1a83d49693475381c23fbc5e317e4fb009741a5fccf1bd0b592",
      "blockHash": "0x83252d94095406e024a4abd3872918ac5332edb577fb6227027f51be2b119155",
      "blockNumber": 112557,
      "transactionIndex": 0,
      "confirmations": null,
      "from": "0x3661DBe9bd90565ca9100771bF1E91690f99C6c5",
      "gasPrice": {
        "_hex": "0x10dc90d85e7"
      },
      "gasLimit": {
        "_hex": "0x249f0"
      },
      "to": "0xE28e72FCf78647ADCe1F1252F240bbfaebD63BcC",
      "value": {
        "_hex": "0xd8d726b7177a80000"
      },
      "nonce": 0,
      "data": "0x45466f3a",
      "r": "0x1bd390124aea8b7db8c9cf2de2569cbbf5ac48a7e112391ce488c88d1b99a147",
      "s": "0x09a6535915af82b26ccfca88d775c64637b5654edd3cd8cefae0611edb9043ea",
      "v": 27,
      "creates": null,
      "raw": "0xf8738086010dc90d85e7830249f094e28e72fcf78647adce1f1252f240bbfaebd63bcc890d8d726b7177a800008445466f3a1ba01bd390124aea8b7db8c9cf2de2569cbbf5ac48a7e112391ce488c88d1b99a147a009a6535915af82b26ccfca88d775c64637b5654edd3cd8cefae0611edb9043ea",
      "networkId": 0,
      "chainId": 0
    }
  ]
}