{
  "hash": "0x4d31bf01c505e881d6862607db6509466bfbd759769d0fd6d5b6fde01fcc703d",
  "parentHash": "0xcb7c6b70a54aacc98be9a2917e5a60be20fb500eea12868445acacfe4beccdfe",
  "number": 95118,
  "timestamp": 1439719258,
  "nonce": "0x115ef458e1d4c35a",
  "difficulty": 3506865303652,
  "gasLimit": {
    "_hex": "0x2fefd8"
  },
  "gasUsed": {
    "_hex": "0x5208"
  },
  "miner": "0xe6A7a1d47ff21B6321162AEA7C6CB457D5476Bca",
  "extraData": "0x476574682f76312e302e312d38326566323666362f6c696e75782f676f312e34",
  "transactions": [
    {
      "hash": "0x2cf02be235f98be356482d93ef2f7ed955cd261e2c085a82b95aa0486270405f",
      "blockHash": "0x4d31bf01c505e881d6862607db6509466bfbd759769d0fd6d5b6fde01fcc703d",
      "blockNumber": 95118,
      "transactionIndex": 0,
      "confirmations": null,
      "from": "0x007f7f58D3eb5b7510A301eCC749FC1fCDDBE14D",
      "gasPrice": {
        "_hex": "0xcc8ddf695"
      },
      "gasLimit": {
        "_hex": "0x15f90"
      },
      "to": "0xb1abce2918E21ddb93AA452731a12672A3d9F75a",
      "value": {
        "_hex": "0x4563918244f40000"
      },
      "nonce": 53,
      "data": "0x",
      "r": "0x73eb68112c80e99b358641963c7b7400b47a569acba7c5392667fb8a95f0a71c",
      "s": "0x49b11530e302d8104ac5ba3da6ff5238e6c8341b969c88a426610b4bf1686b04",
      "v": 28,
      "creates": null,
      "raw": "0xf86d35850cc8ddf69583015f9094b1abce2918e21ddb93aa452731a12672a3d9f75a884563918244f40000801ca073eb68112c80e99b358641963c7b7400b47a569acba7c5392667fb8a95f0a71ca049b11530e302d8104ac5ba3da6ff5238e6c8341b969c88a426610b4bf1686b04",
      "networkId": 0,
      "chainId": 0
    }
  ]
}