{
  "hash": "0x3bd980090cbc67e8fa79bec2f750b4c909e27d9420dd92ad5d5459a2f5224ba0",
  "parentHash": "0xf59da8ccfb389f8416704bc92791e7d2179fa5e4b4c0e6239bd6f560deed2f68",
  "number": 96539,
  "timestamp": 1439741943,
  "nonce": "0x68b7b6015b21e3d0",
  "difficulty": 3687121745363,
  "gasLimit": {
    "_hex": "0x2fefd8"
  },
  "gasUsed": {
    "_hex": "0x5208"
  },
  "miner": "0xe6A7a1d47ff21B6321162AEA7C6CB457D5476Bca",
  "extraData": "0x476574682f76312e302e312d38326566323666362f6c696e75782f676f312e34",
  "transactions": [
    {
      "hash": "0x0f25794ffbe424a86cd3f22598d651cb538af9349b6874a7ba00100fb546ff4f",
      "blockHash": "0x3bd980090cbc67e8fa79bec2f750b4c909e27d9420dd92ad5d5459a2f5224ba0",
      "blockNumber": 96539,
      "transactionIndex": 0,
      "confirmations": null,
      "from": "0xA143616A882230de7571d01f1916F0A781d6480a",
      "gasPrice": {
        "_hex": "0xcc779709d"
      },
      "gasLimit": {
        "_hex": "0x5208"
      },
      "to": "0x32Be343B94f860124dC4fEe278FDCBD38C102D88",
      "value": {
        "_hex": "0x4f9481d26fbbf40000"
      },
      "nonce": 4,
      "data": "0x",
      "r": "0x901e09789f8e6960078ad36ee57c64394ced7669879c296f7d7024d5162ca1fa",
      "s": "0x33b51c7df9d0e92f2d781709815227342f7f14d24aff8b628c402799492eb2b6",
      "v": 27,
      "creates": null,
      "raw": "0xf86d04850cc779709d8252089432be343b94f860124dc4fee278fdcbd38c102d88894f9481d26fbbf40000801ba0901e09789f8e6960078ad36ee57c64394ced7669879c296f7d7024d5162ca1faa033b51c7df9d0e92f2d781709815227342f7f14d24aff8b628c402799492eb2b6",
      "networkId": 0,
      "chainId": 0
    }
  ]
}