{
  "hash": "0x9097a9503f926f8ad258fe31b094225078296c0ea1a236cfe1772245fcc109a7",
  "parentHash": "0x565b0298f75dfe50161bf2fbb3c739fe40283785c6fb6f524580dfa4d71e25ee",
  "number": 84034,
  "timestamp": 1439544034,
  "nonce": "0xa5a4e7d3a62d3839",
  "difficulty": 2494895829044,
  "gasLimit": {
    "_hex": "0x2fefd8"
  },
  "gasUsed": {
    "_hex": "0xa410"
  },
  "miner": "0xe6A7a1d47ff21B6321162AEA7C6CB457D5476Bca",
  "extraData": "0x476574682f76312e302e312d38326566323666362f6c696e75782f676f312e34",
  "transactions": [
    {
      "hash": "0xf701ea92f601c7cdc643ecafa8ff0c672d388de1721cce0752db90eb61523bfd",
      "blockHash": "0x9097a9503f926f8ad258fe31b094225078296c0ea1a236cfe1772245fcc109a7",
      "blockNumber": 84034,
      "transactionIndex": 0,
      "confirmations": null,
      "from": "0xaC49eeb6a55aF554D86d37b4A4eA7940010866E1",
      "gasPrice": {
        "_hex": "0xdc15f8cc6"
      },
      "gasLimit": {
        "_hex": "0x15f90"
      },
      "to": "0x1595C4fa4989C67D937ae55EF3BF5c37a6f522f9",
      "value": {
        "_hex": "0x1158e460913d00000"
      },
      "nonce": 7,
      "data": "0x",
      "r": "0x5e80768b134dac72d9f19852d3f9d0f8fbe6d9546c8d57316109685256268130",
      "s": "0x4b9732e9205ae142bfd8dfeb7ee35d487a114e99a99fac34d862603fc0cee611",
      "v": 28,
      "creates": null,
      "raw": "0xf86e07850dc15f8cc683015f90941595c4fa4989c67d937ae55ef3bf5c37a6f522f98901158e460913d00000801ca05e80768b134dac72d9f19852d3f9d0f8fbe6d9546c8d57316109685256268130a04b9732e9205ae142bfd8dfeb7ee35d487a114e99a99fac34d862603fc0cee611",
      "networkId": 0,
      "chainId": 0
    },
    {
      "hash": "0xaf4fd47b904bd4acd3c09412e0d5dbcf26e910f977fba548812db8780aadfe5e",
      "blockHash": "0x9097a9503f926f8ad258fe31b094225078296c0ea1a236cfe1772245fcc109a7",
      "blockNumber": 84034,
      "transactionIndex": 1,
      "confirmations": null,
      "from": "0x32Be343B94f860124dC4fEe278FDCBD38C102D88",
      "gasPrice": {
        "_hex": "0xd580a18ff"
      },
      "gasLimit": {
        "_hex": "0x5208"
      },
      "to": "0x1A45221Bb8D9c78D59bf1De0B3a361F5da3f965E",
      "value": {
        "_hex": "0x23b8b5a34be78800"
      },
      "nonce": 672,
      "data": "0x",
      "r": "0xbbdb622f0128322ce94457fd39406a5687714166110f2445375b8c9f66391b76",
      "s": "0x0ef0f4fe20fc99d7a7542d2d021f4bb3768de9933f4eebd958871cf5b4f84b9e",
      "v": 28,
      "creates": null,
      "raw": "0xf86e8202a0850d580a18ff825208941a45221bb8d9c78d59bf1de0b3a361f5da3f965e8823b8b5a34be78800801ca0bbdb622f0128322ce94457fd39406a5687714166110f2445375b8c9f66391b76a00ef0f4fe20fc99d7a7542d2d021f4bb3768de9933f4eebd958871cf5b4f84b9e",
      "networkId": 0,
      "chainId": 0
    }
  ]
}