{
  "hash": "0x0f456a30833f69aff9b13d3df22583f2458e09171b25de0c8509f7ebe8bbeb1c",
  "parentHash": "0x4e24acd6d5b689c49d93caba234ff111f266d5ddafee2890fae1e525167cea7c",
  "number": 66662,
  "timestamp": 1439258388,
  "nonce": "0x6b337979406867c3",
  "difficulty": 1935679611569,
  "gasLimit": {
    "_hex": "0x2fefd8"
  },
  "gasUsed": {
    "_hex": "0xa410"
  },
  "miner": "0xA21Ba94e45f0E168dA824fC67aC9cb5Cb577a8aF",
  "extraData": "0x",
  "transactions": [
    {
      "hash": "0x7b52a71714d20526486fc3cfa2c7f9c530447951538e10fde42497e367b2c502",
      "blockHash": "0x0f456a30833f69aff9b13d3df22583f2458e09171b25de0c8509f7ebe8bbeb1c",
      "blockNumber": 66662,
      "transactionIndex": 0,
      "confirmations": null,
      "from": "0x228ed249A4299B231F83A502c12d904e48C5842c",
      "gasPrice": {
        "_hex": "0xd8364fc25"
      },
      "gasLimit": {
        "_hex": "0x15f90"
      },
      "to": "0xF2C98425f9f22071AB4DFA15A34628246FEDc163",
      "value": {
        "_hex": "0xde0b6b3a7640000"
      },
      "nonce": 0,
      "data": "0x",
      "r": "0x61f7a7db55da401bc49e4ba54f0e96a6cbc0a0af47b8b34b4724061ca31934ed",
      "s": "0x00a6f7a1ae86792a102c40790e3e07ac313cc0f8206e55f28f4d085b66f44a15",
      "v": 27,
      "creates": null,
      "raw": "0xf86c80850d8364fc2583015f9094f2c98425f9f22071ab4dfa15a34628246fedc163880de0b6b3a7640000801ba061f7a7db55da401bc49e4ba54f0e96a6cbc0a0af47b8b34b4724061ca31934ed9fa6f7a1ae86792a102c40790e3e07ac313cc0f8206e55f28f4d085b66f44a15",
      "networkId": 0,
      "chainId": 0
    },
    {
      "hash": "0x37adc91508cef4dcb79d4e0d83ce739bd83358433146de732fc303e8d12cb7bd",
      "blockHash": "0x0f456a30833f69aff9b13d3df22583f2458e09171b25de0c8509f7ebe8bbeb1c",
      "blockNumber": 66662,
      "transactionIndex": 1,
      "confirmations": null,
      "from": "0x2910543Af39abA0Cd09dBb2D50200b3E800A63D2",
      "gasPrice": {
        "_hex": "0xd76d7b237"
      },
      "gasLimit": {
        "_hex": "0x5208"
      },
      "to": "0xFb7Bc66a002762e28545eA0a7fc970d381863C42",
      "value": {
        "_hex": "0x821ab0d4414980000"
      },
      "nonce": 203,
      "data": "0x",
      "r": "0xc008eb2e4bc1fb8cbbf33092caf8cada7f26f5bb1df85d03e4f17957b79760e4",
      "s": "0x19da2af926a0a2d7060e2f963e762a7404bacec27d219d942342aa9a5936d96a",
      "v": 27,
      "creates": null,
      "raw": "0xf86e81cb850d76d7b23782520894fb7bc66a002762e28545ea0a7fc970d381863c42890821ab0d4414980000801ba0c008eb2e4bc1fb8cbbf33092caf8cada7f26f5bb1df85d03e4f17957b79760e4a019da2af926a0a2d7060e2f963e762a7404bacec27d219d942342aa9a5936d96a",
      "networkId": 0,
      "chainId": 0
    }
  ]
}