{
  "hash": "0xe5d34797b3da2ca239109739ebfc08360b97380a4db91048bc3daff2d00bf8cd",
  "parentHash": "0x7d85210ee1ca042e12a06327d3d90c0133f7a80a6fe8293741deea1c08c0e229",
  "number": 105960,
  "timestamp": 1439896321,
  "nonce": "0x2cab0d8ce9e540b4",
  "difficulty": 4466451194380,
  "gasLimit": {
    "_hex": "0x2fefd8"
  },
  "gasUsed": {
    "_hex": "0xa410"
  },
  "miner": "0x580992B51e3925e23280EfB93d3047C82f17E038",
  "extraData": "0x476574682f76312e302e312f6c696e75782f676f312e342e32",
  "transactions": [
    {
      "hash": "0xbb57830298f15d2b2ba5838b9f5bd0cb9106f632b2fec7e0d8bb58b3c7f9bb50",
      "blockHash": "0xe5d34797b3da2ca239109739ebfc08360b97380a4db91048bc3daff2d00bf8cd",
      "blockNumber": 105960,
      "transactionIndex": 0,
      "confirmations": null,
      "from": "0x8C37447a7930187595EC51FEA6f749C4F8a96cD4",
      "gasPrice": {
        "_hex": "0xd59c02f0b"
      },
      "gasLimit": {
        "_hex": "0x5208"
      },
      "to": "0x32Be343B94f860124dC4fEe278FDCBD38C102D88",
      "value": {
        "_hex": "0x9f97efe8b44938000"
      },
      "nonce": 7,
      "data": "0x",
      "r": "0xef3f8f810d6ae8e5403102116389fcf85f2f7683f4c86e80c10236b7b5bd2244",
      "s": "0x0376f7dcaa2d8a2abec1bc358d30985529ba778af12d3d6f741d306d47de409a",
      "v": 28,
      "creates": null,
      "raw": "0xf86d07850d59c02f0b8252089432be343b94f860124dc4fee278fdcbd38c102d888909f97efe8b44938000801ca0ef3f8f810d6ae8e5403102116389fcf85f2f7683f4c86e80c10236b7b5bd2244a00376f7dcaa2d8a2abec1bc358d30985529ba778af12d3d6f741d306d47de409a",
      "networkId": 0,
      "chainId": 0
    },
    {
      "hash": "0x1bb39571baeba1085697bc20182697d8e1dc87c2c76eb33d4b995f83c1d6077d",
      "blockHash": "0xe5d34797b3da2ca239109739ebfc08360b97380a4db91048bc3daff2d00bf8cd",
      "blockNumber": 105960,
      "transactionIndex": 1,
      "confirmations": null,
      "from": "0x566E0aa7681c4028af41EAf57a41A8b9c09c644C",
      "gasPrice": {
        "_hex": "0xd59c02f0b"
      },
      "gasLimit": {
        "_hex": "0x5208"
      },
      "to": "0x32Be343B94f860124dC4fEe278FDCBD38C102D88",
      "value": {
        "_hex": "0x790158eb0591f000"
      },
      "nonce": 0,
      "data": "0x",
      "r": "0xb5f0cbee7431d2e5aa92b328e3b1f74f2a582e65799bc7b4a27a6e45b40930c4",
      "s": "0x45a78856d710c48e31c9f1aaf721f7f977fc7aef5b6572854d1f0e5534ecf7b2",
      "v": 27,
      "creates": null,
      "raw": "0xf86c80850d59c02f0b8252089432be343b94f860124dc4fee278fdcbd38c102d8888790158eb0591f000801ba0b5f0cbee7431d2e5aa92b328e3b1f74f2a582e65799bc7b4a27a6e45b40930c4a045a78856d710c48e31c9f1aaf721f7f977fc7aef5b6572854d1f0e5534ecf7b2",
      "networkId": 0,
      "chainId": 0
    }
  ]
}