{
  "hash": "0xa6185ff5b007cbffd7e575bbc1eeee4d995572fa4a86ab0681129118cfdad334",
  "parentHash": "0xee69ecd8627a846181fbc372838e59c4baf2a1b468f428f8f2fdd76a215d52be",
  "number": 84044,
  "timestamp": 1439544279,
  "nonce": "0xa85bb8d922f02ff0",
  "difficulty": 2492457625171,
  "gasLimit": {
    "_hex": "0x2fefd8"
  },
  "gasUsed": {
    "_hex": "0xa410"
  },
  "miner": "0x88D74a59454F6cF3B51ef6b9136AFb6b9D405A88",
  "extraData": "0x476574682f76312e302e312d38326566323666362f6c696e75782f676f312e34",
  "transactions": [
    {
      "hash": "0x63ea37609f417c2668afa63ccb0a80c5b49b33cb4d5330d2614a8ef4f29a5709",
      "blockHash": "0xa6185ff5b007cbffd7e575bbc1eeee4d995572fa4a86ab0681129118cfdad334",
      "blockNumber": 84044,
      "transactionIndex": 0,
      "confirmations": null,
      "from": "0x32Be343B94f860124dC4fEe278FDCBD38C102D88",
      "gasPrice": {
        "_hex": "0xd89760f80"
      },
      "gasLimit": {
        "_hex": "0x5208"
      },
      "to": "0xB48CB04D046210A9F58175Ad35FCe298428e0969",
      "value": {
        "_hex": "0x450bb558315134000"
      },
      "nonce": 673,
      "data": "0x",
      "r": "0xa548cb0bb452cd1c542ee5bb222deff6480f75c01e2f6ed869940b57859c0095",
      "s": "0x497e52cfb096d22ed8d220866985efbae6615e2ede7855e1f5b0a963c41fae1a",
      "v": 28,
      "creates": null,
      "raw": "0xf86f8202a1850d89760f8082520894b48cb04d046210a9f58175ad35fce298428e0969890450bb558315134000801ca0a548cb0bb452cd1c542ee5bb222deff6480f75c01e2f6ed869940b57859c0095a0497e52cfb096d22ed8d220866985efbae6615e2ede7855e1f5b0a963c41fae1a",
      "networkId": 0,
      "chainId": 0
    },
    {
      "hash": "0xe36ffbd56f8f934a4333153e31fe1a93ba0e20c4cc5fa6a41ff8b30d6937b1de",
      "blockHash": "0xa6185ff5b007cbffd7e575bbc1eeee4d995572fa4a86ab0681129118cfdad334",
      "blockNumber": 84044,
      "transactionIndex": 1,
      "confirmations": null,
      "from": "0xD2e57181beE0BF25a2E7D377EaCCec854Bd65334",
      "gasPrice": {
        "_hex": "0xd89760f80"
      },
      "gasLimit": {
        "_hex": "0x5208"
      },
      "to": "0x32Be343B94f860124dC4fEe278FDCBD38C102D88",
      "value": {
        "_hex": "0x56bcbe97517ea8000"
      },
      "nonce": 5,
      "data": "0x",
      "r": "0xfd8b3cb0d3a06321731f340ef04007dea2e6aa8ce1975c76d9a41619573b65af",
      "s": "0x5cfff29a8c56a40eda23ea9d863ad9dfd8f8535aa3867c10c6f9aa6334bbe1dd",
      "v": 27,
      "creates": null,
      "raw": "0xf86d05850d89760f808252089432be343b94f860124dc4fee278fdcbd38c102d8889056bcbe97517ea8000801ba0fd8b3cb0d3a06321731f340ef04007dea2e6aa8ce1975c76d9a41619573b65afa05cfff29a8c56a40eda23ea9d863ad9dfd8f8535aa3867c10c6f9aa6334bbe1dd",
      "networkId": 0,
      "chainId": 0
    }
  ]
}