{
  "hash": "0x719de87885fc71cc0ff695b13d8e2361ec4284ff643ac1e92c1b0b64ac74f986",
  "parentHash": "0xeab7927711e06e6b60c7a47fe60cc9ce281ae56cdd1a6607e24c0a36fb7ef81c",
  "number": 90534,
  "timestamp": 1439641507,
  "nonce": "0xbac2c511b529625b",
  "difficulty": 3351374555946,
  "gasLimit": {
    "_hex": "0x2fefd8"
  },
  "gasUsed": {
    "_hex": "0xa410"
  },
  "miner": "0xe6A7a1d47ff21B6321162AEA7C6CB457D5476Bca",
  "extraData": "0x476574682f76312e302e312d38326566323666362f6c696e75782f676f312e34",
  "transactions": [
    {
      "hash": "0xad9b6a0104da37b1102abd39000a9277e7c610ae286c58fe055e9d2a747bcb4b",
      "blockHash": "0x719de87885fc71cc0ff695b13d8e2361ec4284ff643ac1e92c1b0b64ac74f986",
      "blockNumber": 90534,
      "transactionIndex": 0,
      "confirmations": null,
      "from": "0x5A3E83a3Ae7362C204550Aba56dC980A413090f2",
      "gasPrice": {
        "_hex": "0xdc6c4158c"
      },
      "gasLimit": {
        "_hex": "0x5208"
      },
      "to": "0x32Be343B94f860124dC4fEe278FDCBD38C102D88",
      "value": {
        "_hex": "0x15faa30025950000"
      },
      "nonce": 0,
      "data": "0x",
      "r": "0x4ec07f00bf47dfd9e2c8367e2695094e850c6a4353b1d87cdbb8c6c08d40ca0d",
      "s": "0x75209484033f832862a26d3bb35ef442f37c8ef7480e9428dbd52200d5c82f2a",
      "v": 27,
      "creates": null,
      "raw": "0xf86c80850dc6c4158c8252089432be343b94f860124dc4fee278fdcbd38c102d888815faa30025950000801ba04ec07f00bf47dfd9e2c8367e2695094e850c6a4353b1d87cdbb8c6c08d40ca0da075209484033f832862a26d3bb35ef442f37c8ef7480e9428dbd52200d5c82f2a",
      "networkId": 0,
      "chainId": 0
    },
    {
      "hash": "0x1e49d02ffd52f96157dba84ddc93d0b206d992c586fae45ff2c8744000fafc08",
      "blockHash": "0x719de87885fc71cc0ff695b13d8e2361ec4284ff643ac1e92c1b0b64ac74f986",
      "blockNumber": 90534,
      "transactionIndex": 1,
      "confirmations": null,
      "from": "0x07Ccb8e7Bc2978ec58e7a633c6894f460883a510",
      "gasPrice": {
        "_hex": "0xba43b7400"
      },
      "gasLimit": {
        "_hex": "0x5208"
      },
      "to": "0xC47Aaa860008be6f65B58c6C6E02a84e666EfE31",
      "value": {
        "_hex": "0x129d01ee103e5300"
      },
      "nonce": 1,
      "data": "0x",
      "r": "0xe74871d2f82d4a1f0dada98cbe4352213ececea6649407f26c8e1a8ac47e32c8",
      "s": "0x1ef9c02e56caf45a656df1ac4d23bee65132878217ab5cb1b402096412be2a3c",
      "v": 28,
      "creates": null,
      "raw": "0xf86c01850ba43b740082520894c47aaa860008be6f65b58c6c6e02a84e666efe3188129d01ee103e5300801ca0e74871d2f82d4a1f0dada98cbe4352213ececea6649407f26c8e1a8ac47e32c8a01ef9c02e56caf45a656df1ac4d23bee65132878217ab5cb1b402096412be2a3c",
      "networkId": 0,
      "chainId": 0
    }
  ]
}