{
  "hash": "0xff7d55fa92a9288207601204a80b935332ecb59bb769d4cdd247c41035a0aae5",
  "parentHash": "0xe8a36c41bf931d8a031841915b7d7efd1c5bfacf10745c80cc83c91fb75c8b62",
  "number": 79099,
  "timestamp": 1439464410,
  "nonce": "0xb4c7c0e7d9acfbcf",
  "difficulty": 2316664040266,
  "gasLimit": {
    "_hex": "0x2fefd8"
  },
  "gasUsed": {
    "_hex": "0xa410"
  },
  "miner": "0xe6A7a1d47ff21B6321162AEA7C6CB457D5476Bca",
  "extraData": "0x476574682f76312e302e312d38326566323666362f6c696e75782f676f312e34",
  "transactions": [
    {
      "hash": "0xd70e34a2eefb50c3160e92159bb62e68244607dabc3c05b4fdb19a3edd3df403",
      "blockHash": "0xff7d55fa92a9288207601204a80b935332ecb59bb769d4cdd247c41035a0aae5",
      "blockNumber": 79099,
      "transactionIndex": 0,
      "confirmations": null,
      "from": "0xe6A7a1d47ff21B6321162AEA7C6CB457D5476Bca",
      "gasPrice": {
        "_hex": "0xdfb6323fd"
      },
      "gasLimit": {
        "_hex": "0x55f0"
      },
      "to": "0x6934e4839d59dEa0583b03643eCb8c10d6B150fc",
      "value": {
        "_hex": "0x9c6cc1dc1908e0d8"
      },
      "nonce": 1270,
      "data": "0x",
      "r": "0x95b11440dbaeda5a8659d48ef4815e067e450a3e516b5f5f12fe81d7decc6d45",
      "s": "0x294b97dd5c1f6f7c9010f6458df40aa7617a7bdb606e4e144937d83b750e2e7f",
      "v": 27,
      "creates": null,
      "raw": "0xf86e8204f6850dfb6323fd8255f0946934e4839d59dea0583b03643ecb8c10d6b150fc889c6cc1dc1908e0d8801ba095b11440dbaeda5a8659d48ef4815e067e450a3e516b5f5f12fe81d7decc6d45a0294b97dd5c1f6f7c9010f6458df40aa7617a7bdb606e4e144937d83b750e2e7f",
      "networkId": 0,
      "chainId": 0
    },
    {
      "hash": "0x0b5fa3c5790711eba8962a50ed7353e725296a5a237816bfd845a94433d4d3e3",
      "blockHash": "0xff7d55fa92a9288207601204a80b935332ecb59bb769d4cdd247c41035a0aae5",
      "blockNumber": 79099,
      "transactionIndex": 1,
      "confirmations": null,
      "from": "0xe6A7a1d47ff21B6321162AEA7C6CB457D5476Bca",
      "gasPrice": {
        "_hex": "0xdd8618010"
      },
      "gasLimit": {
        "_hex": "0x55f0"
      },
      "to": "0x77e41B4125b7c14757e0f07fE36b2E95db757a10",
      "value": {
        "_hex": "0x9ec96c10edf840d0"
      },
      "nonce": 1271,
      "data": "0x",
      "r": "0xab329aaf6716a0f032a42efca7bdc61345c7e70149c908b9887a21cfd2400cc3",
      "s": "0x3a9c5b27df3ef24250e5c3f63c6014810e6829745b453dbc34df8b5669c47b9c",
      "v": 27,
      "creates": null,
      "raw": "0xf86e8204f7850dd86180108255f09477e41b4125b7c14757e0f07fe36b2e95db757a10889ec96c10edf840d0801ba0ab329aaf6716a0f032a42efca7bdc61345c7e70149c908b9887a21cfd2400cc3a03a9c5b27df3ef24250e5c3f63c6014810e6829745b453dbc34df8b5669c47b9c",
      "networkId": 0,
      "chainId": 0
    }
  ]
}