{
  "hash": "0x6f1616fc6d380689f82e4de73666467ee97cf7edd22bf5089dede20b58bef624",
  "parentHash": "0x40cf7fc0d4e67217e97325688b7edc596639fd2aaf0f70f4fd797d19267ba95d",
  "number": 120100,
  "timestamp": 1440153891,
  "nonce": "0xc99ab8f3aa2816a8",
  "difficulty": 4419910709060,
  "gasLimit": {
    "_hex": "0x2fefd8"
  },
  "gasUsed": {
    "_hex": "0x5208"
  },
  "miner": "0x5B034036Ae40b7C5d7bbbF041D07b7f76E200039",
  "extraData": "0x",
  "transactions": [
    {
      "hash": "0xf99bdfd65258260c872f536815ef90c1a4f176952fa0c10b042c98c6f01eb610",
      "blockHash": "0x6f1616fc6d380689f82e4de73666467ee97cf7edd22bf5089dede20b58bef624",
      "blockNumber": 120100,
      "transactionIndex": 0,
      "confirmations": null,
      "from": "0x10BD1134A760f6b35247e3cb33673a18bC95a7E7",
      "gasPrice": {
        "_hex": "0xba43b7400"
      },
      "gasLimit": {
        "_hex": "0x15f90"
      },
      "to": "0x55192e9eEF50b024e6800e4657590f33D1070545",
      "value": {
        "_hex": "0xde0b6b3a7640000"
      },
      "nonce": 4,
      "data": "0x",
      "r": "0x5bfe1a600b550b99e5f109207da2784f4e1fb90c89131618e87dcdd681f7e750",
      "s": "0x63ae78474c21c28cfeeb1b51ce45b50bdfd35a9a26a2958ae075a58bc125ebf9",
      "v": 27,
      "creates": null,
      "raw": "0xf86d04850ba43b740083015f909455192e9eef50b024e6800e4657590f33d1070545880de0b6b3a7640000801ba05bfe1a600b550b99e5f109207da2784f4e1fb90c89131618e87dcdd681f7e750a063ae78474c21c28cfeeb1b51ce45b50bdfd35a9a26a2958ae075a58bc125ebf9",
      "networkId": 0,
      "chainId": 0
    }
  ]
}