{
  "hash": "0x373d339e45a701447367d7b9c7cef84aab79c2b2714271b908cda0ab3ad0849b",
  "parentHash": "0xa601f8e031a54d1ca884cc30476e75d9f897a7075a280011e2f7f137966fba3d",
  "number": 65204,
  "timestamp": 1439232889,
  "nonce": "0x223a46e703acc86e",
  "difficulty": 1951200439269,
  "gasLimit": {
    "_hex": "0x2fefd8"
  },
  "gasUsed": {
    "_hex": "0x1dd5f"
  },
  "miner": "0x6bAF48E1C966D16559cE2ddDb616FFa72004851e",
  "extraData": "0x",
  "transactions": [
    {
      "hash": "0x98beb27135aa0a25650557005ad962919d6a278c4b3dde7f4f6a3a1e65aa746c",
      "blockHash": "0x373d339e45a701447367d7b9c7cef84aab79c2b2714271b908cda0ab3ad0849b",
      "blockNumber": 65204,
      "transactionIndex": 0,
      "confirmations": null,
      "from": "0x3fB1cD2cd96c6D5c0B5eb3322D807B34482481d4",
      "gasPrice": {
        "_hex": "0xba43b7400"
      },
      "gasLimit": {
        "_hex": "0x1dd95"
      },
      "to": "0xde0B295669a9FD93d5F28D9Ec85E40f4cb697BAe",
      "value": {
        "_hex": "0x0"
      },
      "nonce": 0,
      "data": "0xf00d4b5d000000000000000000000000036c8cecce8d8bbf0831d840d7f29c9e3ddefa63000000000000000000000000c5a96db085dda36ffbe390f455315d30d6d3dc52",
      "r": "0x9498afbcf1b1760017bf49a88563d3875feb66be71737a264fd7c7dc2629ee03",
      "s": "0x5ecf0161c2b6a18d84f2da17068b53898a2a0baedf9608a8b1ef2ae4001fee2a",
      "v": 28,
      "creates": null,
      "raw": "0xf8aa80850ba43b74008301dd9594de0b295669a9fd93d5f28d9ec85e40f4cb697bae80b844f00d4b5d000000000000000000000000036c8cecce8d8bbf0831d840d7f29c9e3ddefa63000000000000000000000000c5a96db085dda36ffbe390f455315d30d6d3dc521ca09498afbcf1b1760017bf49a88563d3875feb66be71737a264fd7c7dc2629ee03a05ecf0161c2b6a18d84f2da17068b53898a2a0baedf9608a8b1ef2ae4001fee2a",
      "networkId": 0,
      "chainId": 0
    }
  ]
}