{
  "hash": "0xfbe79b6bb38f8a743f414c5f5120a4e56c2acb8c740d69b79562b4ba9afbffe4",
  "parentHash": "0x72c9f11c76f4491cd513f1cecfb01edc4c4b7066251022ba14d698a23281f923",
  "number": 95781,
  "timestamp": 1439729503,
  "nonce": "0x07ee5467b2d70691",
  "difficulty": 3633833170149,
  "gasLimit": {
    "_hex": "0x2fefd8"
  },
  "gasUsed": {
    "_hex": "0x5208"
  },
  "miner": "0xaEAf103356C2Ee943F748E8655659D29881323E1",
  "extraData": "0x476574682f76312e302e312f77696e646f77732f676f312e342e32",
  "transactions": [
    {
      "hash": "0xa184d2c7d9150f6098d7949a85d090605c42c15d0cbdc5be66477d3e1818829a",
      "blockHash": "0xfbe79b6bb38f8a743f414c5f5120a4e56c2acb8c740d69b79562b4ba9afbffe4",
      "blockNumber": 95781,
      "transactionIndex": 0,
      "confirmations": null,
      "from": "0x120A270bbC009644e35F0bB6ab13f95b8199c4ad",
      "gasPrice": {
        "_hex": "0xdb2aa379b"
      },
      "gasLimit": {
        "_hex": "0x3d090"
      },
      "to": "0x00B88D679472169CBd35a3d02192Fd24734684b4",
      "value": {
        "_hex": "0x8b0b2dbfba18ef000"
      },
      "nonce": 603,
      "data": "0x",
      "r": "0x17e13c27745cfbf57723745187de362f5605b1e33a52ecb497510cf78a9175c6",
      "s": "0x017c06fd0ae042ddb49aef39759cee76d06d3f9b3c6932d20d5253b077a3c0cd",
      "v": 28,
      "creates": null,
      "raw": "0xf87082025b850db2aa379b8303d0909400b88d679472169cbd35a3d02192fd24734684b48908b0b2dbfba18ef000801ca017e13c27745cfbf57723745187de362f5605b1e33a52ecb497510cf78a9175c6a0017c06fd0ae042ddb49aef39759cee76d06d3f9b3c6932d20d5253b077a3c0cd",
      "networkId": 0,
      "chainId": 0
    }
  ]
}