{
  "hash": "0xcf6550609bbd08a383702a13e8afbdc9ef3bfbac84f141ea79ab9fe15ec58ee9",
  "parentHash": "0xc2e0cff5b55759db861a79eee557849dea3e8a2546f6b58c3a9d8d6a2339e60d",
  "number": 102162,
  "timestamp": 1439833785,
  "nonce": "0xde55ffb1efd0604a",
  "difficulty": 3908907256493,
  "gasLimit": {
    "_hex": "0x2fefd8"
  },
  "gasUsed": {
    "_hex": "0xa410"
  },
  "miner": "0xaA35779Ef4dfBEd0B3D6F46F5f11cb86261B17A5",
  "extraData": "0x476574682f76312e302e312f77696e646f77732f676f312e342e32",
  "transactions": [
    {
      "hash": "0x2e93a46d2ceeb3955103f95d2c4bb5f5d4928b2bfe63c1daeee91a2386fd4bc8",
      "blockHash": "0xcf6550609bbd08a383702a13e8afbdc9ef3bfbac84f141ea79ab9fe15ec58ee9",
      "blockNumber": 102162,
      "transactionIndex": 0,
      "confirmations": null,
      "from": "0x297d128041190ec4D477Cd476D194eFcA4E9cf67",
      "gasPrice": {
        "_hex": "0x746a528800"
      },
      "gasLimit": {
        "_hex": "0x5b04"
      },
      "to": "0x01f2c407D48959817C396105d402041EeAfD9090",
      "value": {
        "_hex": "0x38d7ea4c68000"
      },
      "nonce": 3,
      "data": "0x",
      "r": "0xf62e351b161201159b0f0efa963e94d673d5b566d23835f19a41c9faa486f15d",
      "s": "0x0845ec2c2e21b533ca170103173dbe2f8d58bc52e9b709d98b5392de4c69c38e",
      "v": 27,
      "creates": null,
      "raw": "0xf86b0385746a528800825b049401f2c407d48959817c396105d402041eeafd909087038d7ea4c68000801ba0f62e351b161201159b0f0efa963e94d673d5b566d23835f19a41c9faa486f15da00845ec2c2e21b533ca170103173dbe2f8d58bc52e9b709d98b5392de4c69c38e",
      "networkId": 0,
      "chainId": 0
    },
    {
      "hash": "0xb70cf7aa782a43bc0db772658db2ed1e1488eed35cc165a61c06749b6ea3d9e1",
      "blockHash": "0xcf6550609bbd08a383702a13e8afbdc9ef3bfbac84f141ea79ab9fe15ec58ee9",
      "blockNumber": 102162,
      "transactionIndex": 1,
      "confirmations": null,
      "from": "0xC47Aaa860008be6f65B58c6C6E02a84e666EfE31",
      "gasPrice": {
        "_hex": "0xcc47effdb"
      },
      "gasLimit": {
        "_hex": "0x15f90"
      },
      "to": "0x0fE84fde8E193116965DeC7CBDadA0E886536650",
      "value": {
        "_hex": "0x45600403a02d7eb2"
      },
      "nonce": 69,
      "data": "0x",
      "r": "0xa2c6a9932b6b2795b53cd7ed2709a6c0d20b3ffe8748f8b3da144129b6971b5c",
      "s": "0x3ca91a5185a58cdf3addce5ee4d20636a2c8a04671bede844b9d3dfaa9ab95d9",
      "v": 28,
      "creates": null,
      "raw": "0xf86d45850cc47effdb83015f90940fe84fde8e193116965dec7cbdada0e8865366508845600403a02d7eb2801ca0a2c6a9932b6b2795b53cd7ed2709a6c0d20b3ffe8748f8b3da144129b6971b5ca03ca91a5185a58cdf3addce5ee4d20636a2c8a04671bede844b9d3dfaa9ab95d9",
      "networkId": 0,
      "chainId": 0
    }
  ]
}