{
  "hash": "0xd0b26a8fdb68375cf29c0a15d9a503072a0bf7f98a872cf14b2377f97cc5ef37",
  "parentHash": "0x902bc79318ba375afc7d11bda3ffcf0aac0b57a05df89943d6e113d29e6177ec",
  "number": 88900,
  "timestamp": 1439615178,
  "nonce": "0x14d9bb1674cca731",
  "difficulty": 3252070677483,
  "gasLimit": {
    "_hex": "0x2fefd8"
  },
  "gasUsed": {
    "_hex": "0x5208"
  },
  "miner": "0xe6A7a1d47ff21B6321162AEA7C6CB457D5476Bca",
  "extraData": "0x476574682f76312e302e312d38326566323666362f6c696e75782f676f312e34",
  "transactions": [
    {
      "hash": "0x3ed6a09bdedec8a56174044bd5ddcf7afb2ae66c04741219aa077af6f1df6b85",
      "blockHash": "0xd0b26a8fdb68375cf29c0a15d9a503072a0bf7f98a872cf14b2377f97cc5ef37",
      "blockNumber": 88900,
      "transactionIndex": 0,
      "confirmations": null,
      "from": "0x0D4EcC7d750180EBf4A9Df728B6669B5Bceb5E40",
      "gasPrice": {
        "_hex": "0xcc575fe56"
      },
      "gasLimit": {
        "_hex": "0x5208"
      },
      "to": "0x32Be343B94f860124dC4fEe278FDCBD38C102D88",
      "value": {
        "_hex": "0x455f70469dae3000"
      },
      "nonce": 37,
      "data": "0x",
      "r": "0xfb5febbf2b6d57e3604bb11d230c3e0c106f310c2a575996b987806eaaa620f1",
      "s": "0x0b5f50715408f50ad04e4f4371aa5fdf8cd0291664885f1593d38276a1f45593",
      "v": 27,
      "creates": null,
      "raw": "0xf86c25850cc575fe568252089432be343b94f860124dc4fee278fdcbd38c102d8888455f70469dae3000801ba0fb5febbf2b6d57e3604bb11d230c3e0c106f310c2a575996b987806eaaa620f1a00b5f50715408f50ad04e4f4371aa5fdf8cd0291664885f1593d38276a1f45593",
      "networkId": 0,
      "chainId": 0
    }
  ]
}