{
  "hash": "0xaf009a4980df071048d7a8c122bd7fe6d38b1316b64d958bb2378a11ef8eb54f",
  "parentHash": "0x0b8ba5c116d2a25f68edd8c390358705c133bc805a1704530d522457af230e4b",
  "number": 101080,
  "timestamp": 1439817143,
  "nonce": "0xf9c3532ed292b11c",
  "difficulty": 3860093985893,
  "gasLimit": {
    "_hex": "0x2fefd8"
  },
  "gasUsed": {
    "_hex": "0xf618"
  },
  "miner": "0xe6A7a1d47ff21B6321162AEA7C6CB457D5476Bca",
  "extraData": "0x476574682f76312e302e312d38326566323666362f6c696e75782f676f312e34",
  "transactions": [
    {
      "hash": "0xa666b2b555cb730355491787f7d1315bba603e15dcae5393aa5aa9729357cd89",
      "blockHash": "0xaf009a4980df071048d7a8c122bd7fe6d38b1316b64d958bb2378a11ef8eb54f",
      "blockNumber": 101080,
      "transactionIndex": 0,
      "confirmations": null,
      "from": "0xc7Dda420b6e858441b9Ea42B762dF14C59552fbb",
      "gasPrice": {
        "_hex": "0xd18b1bb06"
      },
      "gasLimit": {
        "_hex": "0x5208"
      },
      "to": "0x32Be343B94f860124dC4fEe278FDCBD38C102D88",
      "value": {
        "_hex": "0x1a0e8f8ce75e8400"
      },
      "nonce": 2,
      "data": "0x",
      "r": "0x7b120b594976017ac33a59e56469f41c741069a773285376aafe817370796860",
      "s": "0x44803b01ec46cb67607560cdf2b5ca5a45fb3571f03d2b5904029013edb9f87a",
      "v": 27,
      "creates": null,
      "raw": "0xf86c02850d18b1bb068252089432be343b94f860124dc4fee278fdcbd38c102d88881a0e8f8ce75e8400801ba07b120b594976017ac33a59e56469f41c741069a773285376aafe817370796860a044803b01ec46cb67607560cdf2b5ca5a45fb3571f03d2b5904029013edb9f87a",
      "networkId": 0,
      "chainId": 0
    },
    {
      "hash": "0xfe693cabf22c40c96975facc41eded107de8700e414716e283be1ea742bcb688",
      "blockHash": "0xaf009a4980df071048d7a8c122bd7fe6d38b1316b64d958bb2378a11ef8eb54f",
      "blockNumber": 101080,
      "transactionIndex": 1,
      "confirmations": null,
      "from": "0x32Be343B94f860124dC4fEe278FDCBD38C102D88",
      "gasPrice": {
        "_hex": "0xd18b1bb06"
      },
      "gasLimit": {
        "_hex": "0x5208"
      },
      "to": "0xa748fac76B1d857E2f77484a0F816463e8b56EDc",
      "value": {
        "_hex": "0x8aa39c121a270000"
      },
      "nonce": 1072,
      "data": "0x",
      "r": "0xc499586e03c622a08518f84ffe9f076d4a6b9a96bf29bc52a46af7d0877f1dd7",
      "s": "0x11c9a445ad4c01f12ab1b9f840740e37a00cabd1c4d644b929f7ed8ed0d1412b",
      "v": 28,
      "creates": null,
      "raw": "0xf86e820430850d18b1bb0682520894a748fac76b1d857e2f77484a0f816463e8b56edc888aa39c121a270000801ca0c499586e03c622a08518f84ffe9f076d4a6b9a96bf29bc52a46af7d0877f1dd7a011c9a445ad4c01f12ab1b9f840740e37a00cabd1c4d644b929f7ed8ed0d1412b",
      "networkId": 0,
      "chainId": 0
    },
    {
      "hash": "0x300e451519268da1b9ddf5d6e0de8d4321fffcff8e3fedf2e5c4031b67785378",
      "blockHash": "0xaf009a4980df071048d7a8c122bd7fe6d38b1316b64d958bb2378a11ef8eb54f",
      "blockNumber": 101080,
      "transactionIndex": 2,
      "confirmations": null,
      "from": "0xb26EE724AA819BddDf6d87754C61669f000AbF6A",
      "gasPrice": {
        "_hex": "0xd18b1bb06"
      },
      "gasLimit": {
        "_hex": "0x5208"
      },
      "to": "0x32Be343B94f860124dC4fEe278FDCBD38C102D88",
      "value": {
        "_hex": "0x1a2182bd96528c00"
      },
      "nonce": 4,
      "data": "0x",
      "r": "0x9d5f72500f188b78e298005cc2092c56784e88e6f56cc7fe1f095497754dfb20",
      "s": "0x2927fb1fca2e78f8049a606370b3cd21e82ebcc3b0dc7b06798210b83c459a82",
      "v": 28,
      "creates": null,
      "raw": "0xf86c04850d18b1bb068252089432be343b94f860124dc4fee278fdcbd38c102d88881a2182bd96528c00801ca09d5f72500f188b78e298005cc2092c56784e88e6f56cc7fe1f095497754dfb20a02927fb1fca2e78f8049a606370b3cd21e82ebcc3b0dc7b06798210b83c459a82",
      "networkId": 0,
      "chainId": 0
    }
  ]
}