{
  "hash": "0x8283266e6ddac5be00b90bbf7dc4edb5ec022ad6925f1ca4942323baef3c324d",
  "parentHash": "0x2c28852711204fb72b9eecd11aebe96e8a78fd0e53e6fd441d33c58d29e5cadb",
  "number": 47577,
  "timestamp": 1438943085,
  "nonce": "0x44d42fb4e437953c",
  "difficulty": 1448101087000,
  "gasLimit": {
    "_hex": "0xd2b7"
  },
  "gasUsed": {
    "_hex": "0x546c"
  },
  "miner": "0xf8E0CA3Ed80bd541b94BEdCf259e8CF2141A9523",
  "extraData": "0x476574682f76312e302e312f77696e646f77732f676f312e342e32",
  "transactions": [
    {
      "hash": "0xfd1b6db26790e63fcfd0ad209da3e4a5eb0232ea566e66ed639c0a7bb5f891b5",
      "blockHash": "0x8283266e6ddac5be00b90bbf7dc4edb5ec022ad6925f1ca4942323baef3c324d",
      "blockNumber": 47577,
      "transactionIndex": 0,
      "confirmations": null,
      "from": "0xf49c47b3Efd86b6E6A5bC9418D1F9fEC814b69Ef",
      "gasPrice": {
        "_hex": "0xe8d4a51000"
      },
      "gasLimit": {
        "_hex": "0x55f0"
      },
      "to": "0x2910543Af39abA0Cd09dBb2D50200b3E800A63D2",
      "value": {
        "_hex": "0x25f273933db5700000"
      },
      "nonce": 0,
      "data": "0x454e3859464e553838",
      "r": "0x6f00411d6203283968075130b23c932c5a0bba014f9d5ab050105ed1972f4e46",
      "s": "0x4116380679644514e4a098e2ef56d8ca5a0912348adb36e91b9b9da641d3c43f",
      "v": 27,
      "creates": null,
      "raw": "0xf8768085e8d4a510008255f0942910543af39aba0cd09dbb2d50200b3e800a63d28925f273933db570000089454e3859464e5538381ba06f00411d6203283968075130b23c932c5a0bba014f9d5ab050105ed1972f4e46a04116380679644514e4a098e2ef56d8ca5a0912348adb36e91b9b9da641d3c43f",
      "networkId": 0,
      "chainId": 0
    }
  ]
}