{
  "hash": "0x007fd99ab54e158c4b68e901101120d2b08d8bd024a743b24fdcc1beb2bd7534",
  "parentHash": "0xc981a425487f66f23b7ca9fa14bc0113e1f71ca1acb8d9edbbe918eae97d81f7",
  "number": 122185,
  "timestamp": 1440189592,
  "nonce": "0x67ce00b9cca8e05f",
  "difficulty": 4481828454333,
  "gasLimit": {
    "_hex": "0x2fefd8"
  },
  "gasUsed": {
    "_hex": "0x5208"
  },
  "miner": "0x790b8a3cE86E707ED0eD32bF89B3269692a23CC1",
  "extraData": "0xd783010002844765746887676f312e342e32856c696e7578",
  "transactions": [
    {
      "hash": "0xab29255eaa6cbb6db9921d07735e67efa657b81c5cd2646c5dec356f9f19baf4",
      "blockHash": "0x007fd99ab54e158c4b68e901101120d2b08d8bd024a743b24fdcc1beb2bd7534",
      "blockNumber": 122185,
      "transactionIndex": 0,
      "confirmations": null,
      "from": "0xdd26b429Fd43D84EC179825324BaD5bfb916B360",
      "gasPrice": {
        "_hex": "0xba43b7400"
      },
      "gasLimit": {
        "_hex": "0x15f90"
      },
      "to": "0x899708488bD7a83aebA4a22BEAB20BaCC1B01Cf3",
      "value": {
        "_hex": "0x8ac7230489e80000"
      },
      "nonce": 2,
      "data": "0x",
      "r": "0x0aee03416d65d5542cde172a16f3e0de42599f068cd46540869d4bdcb0b5105a",
      "s": "0x02fdb356f87c6a108c9fe4426cc808e11301099caa76296759696435bb83b3a4",
      "v": 27,
      "creates": null,
      "raw": "0xf86d02850ba43b740083015f9094899708488bd7a83aeba4a22beab20bacc1b01cf3888ac7230489e80000801ba00aee03416d65d5542cde172a16f3e0de42599f068cd46540869d4bdcb0b5105aa002fdb356f87c6a108c9fe4426cc808e11301099caa76296759696435bb83b3a4",
      "networkId": 0,
      "chainId": 0
    }
  ]
}