{
  "hash": "0xf015b0336792d21632a0e148a3f9552278a7386ca5830a2dd6437e9f5176a655",
  "parentHash": "0x35fc4c40534cf8dd8c2d52c17ba8edf5eb6fd1afb50adc2f8c7c31ec062d034d",
  "number": 72120,
  "timestamp": 1439347611,
  "nonce": "0xac8510ee90f05a39",
  "difficulty": 2170683782369,
  "gasLimit": {
    "_hex": "0x2fefd8"
  },
  "gasUsed": {
    "_hex": "0x546c"
  },
  "miner": "0xf8E0CA3Ed80bd541b94BEdCf259e8CF2141A9523",
  "extraData": "0x476574682f76312e302e312f77696e646f77732f676f312e342e32",
  "transactions": [
    {
      "hash": "0x3856f1e1c9b72ec9bd4ce6c61c450cb12b1fcc8f17548513de7f65ea73be532f",
      "blockHash": "0xf015b0336792d21632a0e148a3f9552278a7386ca5830a2dd6437e9f5176a655",
      "blockNumber": 72120,
      "transactionIndex": 0,
      "confirmations": null,
      "from": "0x1d395b30adda1cF21f091a4F4A7B753371189441",
      "gasPrice": {
        "_hex": "0x110c8f7d8de"
      },
      "gasLimit": {
        "_hex": "0xc350"
      },
      "to": "0x2910543Af39abA0Cd09dBb2D50200b3E800A63D2",
      "value": {
        "_hex": "0x43c33c1937564800000"
      },
      "nonce": 3,
      "data": "0x454e4d503339334852",
      "r": "0xe8089d9a9f59cd968de300589a26612e0f75a8255741995fd3f48e627a153d20",
      "s": "0x49887b16a60fbc14da0e1ed82473039e0a471893881aaf03c5ad9d850fff806c",
      "v": 27,
      "creates": null,
      "raw": "0xf87803860110c8f7d8de82c350942910543af39aba0cd09dbb2d50200b3e800a63d28a043c33c193756480000089454e4d5033393348521ba0e8089d9a9f59cd968de300589a26612e0f75a8255741995fd3f48e627a153d20a049887b16a60fbc14da0e1ed82473039e0a471893881aaf03c5ad9d850fff806c",
      "networkId": 0,
      "chainId": 0
    }
  ]
}