{
  "hash": "0x4ba8317292f87b2e0f8f8c8ad0d74c6115645fd1a5ad6cd258154f66125d8290",
  "parentHash": "0xa0dea0172ecffd972f6848d104b36364ab2b53fa510d7d1581d51600501d57c7",
  "number": 112120,
  "timestamp": 1440002200,
  "nonce": "0xaa158eb0ad3eba00",
  "difficulty": 4385403857520,
  "gasLimit": {
    "_hex": "0x2fefd8"
  },
  "gasUsed": {
    "_hex": "0x5208"
  },
  "miner": "0x9D49F602b0fdb924Bd63DDE2Bd0907E4A07c63a7",
  "extraData": "0x476574682f76312e302e312f6c696e75782f676f312e342e32",
  "transactions": [
    {
      "hash": "0x3f571862817ae85af4561b87de41882f65d5a37e5c684157d5c0e1eb9645c9a1",
      "blockHash": "0x4ba8317292f87b2e0f8f8c8ad0d74c6115645fd1a5ad6cd258154f66125d8290",
      "blockNumber": 112120,
      "transactionIndex": 0,
      "confirmations": null,
      "from": "0x0De2D5595Cd390109b377107505cb710429d8FE7",
      "gasPrice": {
        "_hex": "0xe12911e2b"
      },
      "gasLimit": {
        "_hex": "0x30d40"
      },
      "to": "0x120A270bbC009644e35F0bB6ab13f95b8199c4ad",
      "value": {
        "_hex": "0x32e764b952dfe84e40"
      },
      "nonce": 0,
      "data": "0x",
      "r": "0xf0b21bdba69d051311156caee52511212fc19a7fbcf7983b90938adfa0721423",
      "s": "0x6bf6b2a3d0921bd58e85fad95f0acbcb769ea3888a0f775dc7dda71e41825016",
      "v": 28,
      "creates": null,
      "raw": "0xf86e80850e12911e2b83030d4094120a270bbc009644e35f0bb6ab13f95b8199c4ad8932e764b952dfe84e40801ca0f0b21bdba69d051311156caee52511212fc19a7fbcf7983b90938adfa0721423a06bf6b2a3d0921bd58e85fad95f0acbcb769ea3888a0f775dc7dda71e41825016",
      "networkId": 0,
      "chainId": 0
    }
  ]
}