{
  "hash": "0x50b2ed2856de99dc5a1082347bf41f224f8d825fcf41af611b4cb40a5ac0a0ad",
  "parentHash": "0xcbbba0e7fff97a5448710432f83aaaa1c1b028fcaf0634c18ccad95b7f74b350",
  "number": 106519,
  "timestamp": 1439905532,
  "nonce": "0x11c8abca3f7546d0",
  "difficulty": 4507780408807,
  "gasLimit": {
    "_hex": "0x2fefd8"
  },
  "gasUsed": {
    "_hex": "0xa410"
  },
  "miner": "0xC603Ab5ef41fC61AA8b76bEddb09e3Cfcbb174BD",
  "extraData": "0x476574682f76312e302e312f77696e646f77732f676f312e342e32",
  "transactions": [
    {
      "hash": "0x7645da8c5cf249bc9a12f49505a50034a9ed2924400c7b9087822c4bd7fa1867",
      "blockHash": "0x50b2ed2856de99dc5a1082347bf41f224f8d825fcf41af611b4cb40a5ac0a0ad",
      "blockNumber": 106519,
      "transactionIndex": 0,
      "confirmations": null,
      "from": "0x1332996a46dcBBE02f9cF164Dfc153aB976a9766",
      "gasPrice": {
        "_hex": "0xba43b7400"
      },
      "gasLimit": {
        "_hex": "0x5208"
      },
      "to": "0xC47Aaa860008be6f65B58c6C6E02a84e666EfE31",
      "value": {
        "_hex": "0x455fd68a17f038f0"
      },
      "nonce": 10,
      "data": "0x",
      "r": "0x346349ad07a3c89a5f3c600d04934d73f6bf87e44fb0d2ffbb9fd43122b5b2b8",
      "s": "0x7a439925e12a36da81d9e977da6087e3da2b2ceb85983b4e0227cf2b4362f39b",
      "v": 28,
      "creates": null,
      "raw": "0xf86c0a850ba43b740082520894c47aaa860008be6f65b58c6c6e02a84e666efe3188455fd68a17f038f0801ca0346349ad07a3c89a5f3c600d04934d73f6bf87e44fb0d2ffbb9fd43122b5b2b8a07a439925e12a36da81d9e977da6087e3da2b2ceb85983b4e0227cf2b4362f39b",
      "networkId": 0,
      "chainId": 0
    },
    {
      "hash": "0x697a226b6590515d52694ff7b8b97f230884856f462a7e14cbc736ed92e235c3",
      "blockHash": "0x50b2ed2856de99dc5a1082347bf41f224f8d825fcf41af611b4cb40a5ac0a0ad",
      "blockNumber": 106519,
      "transactionIndex": 1,
      "confirmations": null,
      "from": "0x1332996a46dcBBE02f9cF164Dfc153aB976a9766",
      "gasPrice": {
        "_hex": "0xba43b7400"
      },
      "gasLimit": {
        "_hex": "0x5208"
      },
      "to": "0xC47Aaa860008be6f65B58c6C6E02a84e666EfE31",
      "value": {
        "_hex": "0x29ce511a7f0d06000"
      },
      "nonce": 11,
      "data": "0x",
      "r": "0xe3a351887904395f95fa198146472fa123cc42d0ca6e943a0730961e9049473d",
      "s": "0x6402ea8efe830ca52c8c92aca8e444176b0185fac48bd4c43d681909f8379841",
      "v": 27,
      "creates": null,
      "raw": "0xf86d0b850ba43b740082520894c47aaa860008be6f65b58c6c6e02a84e666efe3189029ce511a7f0d06000801ba0e3a351887904395f95fa198146472fa123cc42d0ca6e943a0730961e9049473da06402ea8efe830ca52c8c92aca8e444176b0185fac48bd4c43d681909f8379841",
      "networkId": 0,
      "chainId": 0
    }
  ]
}