{
  "hash": "0xc23015bdf454ad56b129a9037b9cf12a922246337dc36c5caaa6cbc0945bd238",
  "parentHash": "0xbfab761bcfa23d01f56101240c6fa0f0d5c79657072ccb7576c6bd1ee740bb25",
  "number": 57498,
  "timestamp": 1439104432,
  "nonce": "0xc1b9061bc9bb7c21",
  "difficulty": 1735333038704,
  "gasLimit": {
    "_hex": "0x2fefd8"
  },
  "gasUsed": {
    "_hex": "0x5208"
  },
  "miner": "0xEF247E639d49461D25F57e9362CadE3120910Ce0",
  "extraData": "0x476574682f76312e302e312f6c696e75782f676f312e342e32",
  "transactions": [
    {
      "hash": "0xd921af6789f9988f48af27a6626d4f2a8336d47e3623cd22db59b06997d13efc",
      "blockHash": "0xc23015bdf454ad56b129a9037b9cf12a922246337dc36c5caaa6cbc0945bd238",
      "blockNumber": 57498,
      "transactionIndex": 0,
      "confirmations": null,
      "from": "0xfC989CB487bf1a7d17E4C1B7C4B7aaFdda6B0a8D",
      "gasPrice": {
        "_hex": "0x746a528800"
      },
      "gasLimit": {
        "_hex": "0x5267"
      },
      "to": "0x117D2945355d346cE6637d6D5CC9A9E46CB43B73",
      "value": {
        "_hex": "0x8173b69400d8000"
      },
      "nonce": 0,
      "data": "0x",
      "r": "0xb897fdce4960733e1752b3a5d273d209539626be1621dbb76c2fb5188fe8776d",
      "s": "0xd8bc91269ffdd40e81e0e3ea5154e6017b55c2b8ccf24c15e033e91d790b7ffd",
      "v": 28,
      "creates": null,
      "raw": "0xf86c8085746a52880082526794117d2945355d346ce6637d6d5cc9a9e46cb43b738808173b69400d8000801ca0b897fdce4960733e1752b3a5d273d209539626be1621dbb76c2fb5188fe8776da0d8bc91269ffdd40e81e0e3ea5154e6017b55c2b8ccf24c15e033e91d790b7ffd",
      "networkId": 0,
      "chainId": 0
    }
  ]
}