{
  "hash": "0x327796641e46e8229f0092eae24f55792bf2f1bd55a7058066eab884a1fb3fcb",
  "parentHash": "0xdeac4950ba8077395a93d35012f58f9cab6a6e98988f01517f035ead8c4d3c63",
  "number": 64666,
  "timestamp": 1439224455,
  "nonce": "0x5f38c93096b6a900",
  "difficulty": 1885756822098,
  "gasLimit": {
    "_hex": "0x2fefd8"
  },
  "gasUsed": {
    "_hex": "0xa410"
  },
  "miner": "0x8B454d830feF179e66206840F8F3D1d83bC32b17",
  "extraData": "0x476574682f76312e302e312f77696e646f77732f676f312e342e32",
  "transactions": [
    {
      "hash": "0x06753905ca0f03e8eea236d5378dbb1aae22a1289775be0d8289437c56db7cef",
      "blockHash": "0x327796641e46e8229f0092eae24f55792bf2f1bd55a7058066eab884a1fb3fcb",
      "blockNumber": 64666,
      "transactionIndex": 0,
      "confirmations": null,
      "from": "0xc0b9d23f8d37650D0141B559dbD33d94Ea004e07",
      "gasPrice": {
        "_hex": "0xcc72acb98"
      },
      "gasLimit": {
        "_hex": "0x5208"
      },
      "to": "0x32Be343B94f860124dC4fEe278FDCBD38C102D88",
      "value": {
        "_hex": "0x929547ac8d6c50000"
      },
      "nonce": 4,
      "data": "0x",
      "r": "0x93d0fcbbb1c046df2933aa41fed0742095863017d805041559c5951693876123",
      "s": "0x30bb0f89a8984e289b8e07db6e90e622e06889087b806c6a9200e21add8e69fd",
      "v": 28,
      "creates": null,
      "raw": "0xf86d04850cc72acb988252089432be343b94f860124dc4fee278fdcbd38c102d88890929547ac8d6c50000801ca093d0fcbbb1c046df2933aa41fed0742095863017d805041559c5951693876123a030bb0f89a8984e289b8e07db6e90e622e06889087b806c6a9200e21add8e69fd",
      "networkId": 0,
      "chainId": 0
    },
    {
      "hash": "0x5eca5d3d623838ca4a50435a4927163f18218f053b17a1ecebd5747e351f1d66",
      "blockHash": "0x327796641e46e8229f0092eae24f55792bf2f1bd55a7058066eab884a1fb3fcb",
      "blockNumber": 64666,
      "transactionIndex": 1,
      "confirmations": null,
      "from": "0x8F79f76381Aad7B98C19aF55eE75fdfEeb012211",
      "gasPrice": {
        "_hex": "0xcc72acb98"
      },
      "gasLimit": {
        "_hex": "0x5208"
      },
      "to": "0x32Be343B94f860124dC4fEe278FDCBD38C102D88",
      "value": {
        "_hex": "0xd02a7303b9ca58000"
      },
      "nonce": 2,
      "data": "0x",
      "r": "0x3c5c48fde94f60f2b152953d20eb3df5f9aeb1b6d1f753201157e4ce9c53d790",
      "s": "0x082ea05873e735272942002024086c470eb11cdcbe023bb0f5b5e2351ce1a367",
      "v": 27,
      "creates": null,
      "raw": "0xf86d02850cc72acb988252089432be343b94f860124dc4fee278fdcbd38c102d88890d02a7303b9ca58000801ba03c5c48fde94f60f2b152953d20eb3df5f9aeb1b6d1f753201157e4ce9c53d790a0082ea05873e735272942002024086c470eb11cdcbe023bb0f5b5e2351ce1a367",
      "networkId": 0,
      "chainId": 0
    }
  ]
}