{
  "hash": "0xc1446acb4e0703c83f2ea96f0eb79b6448c60622a85167b1a676a568ff41d0a1",
  "parentHash": "0x1223782c7c9fe8c1015b1e81c446f517dade9418cf82369af9e8f1945e367c7b",
  "number": 94476,
  "timestamp": 1439709080,
  "nonce": "0x02be4ebd1dad7d1c",
  "difficulty": 3479840969503,
  "gasLimit": {
    "_hex": "0x2fefd8"
  },
  "gasUsed": {
    "_hex": "0x5208"
  },
  "miner": "0xe6A7a1d47ff21B6321162AEA7C6CB457D5476Bca",
  "extraData": "0x476574682f76312e302e312d38326566323666362f6c696e75782f676f312e34",
  "transactions": [
    {
      "hash": "0x760db61673000c9d3b8471f608e65e1380e80e23cca9f0879f68a6674b1dc116",
      "blockHash": "0xc1446acb4e0703c83f2ea96f0eb79b6448c60622a85167b1a676a568ff41d0a1",
      "blockNumber": 94476,
      "transactionIndex": 0,
      "confirmations": null,
      "from": "0x120A270bbC009644e35F0bB6ab13f95b8199c4ad",
      "gasPrice": {
        "_hex": "0xe0c705bf2"
      },
      "gasLimit": {
        "_hex": "0x15f90"
      },
      "to": "0xd561cbbc05515DE73AB8cF9eAe1357341E7dFDF4",
      "value": {
        "_hex": "0x64235a4a71250d800"
      },
      "nonce": 580,
      "data": "0x",
      "r": "0x5e822899a7937e56e20f67ee52af8e4057981ed06244ee06fe35806e9156bebf",
      "s": "0x08f3883b0d8aced1578c53854619c28c954c4b5ddbf8f1f3d74ae99e50e3d694",
      "v": 28,
      "creates": null,
      "raw": "0xf870820244850e0c705bf283015f9094d561cbbc05515de73ab8cf9eae1357341e7dfdf489064235a4a71250d800801ca05e822899a7937e56e20f67ee52af8e4057981ed06244ee06fe35806e9156bebfa008f3883b0d8aced1578c53854619c28c954c4b5ddbf8f1f3d74ae99e50e3d694",
      "networkId": 0,
      "chainId": 0
    }
  ]
}