{
  "hash": "0x74e82c4c9cddba0958d5ee616d963baf0a94120ef67b51d785b34704eee9d8af",
  "parentHash": "0xf8b8457813df12979ada14f1a1bf3bea2a5146344d5a93ec92307960a22fd9de",
  "number": 50069,
  "timestamp": 1438983553,
  "nonce": "0x93da86f08c7bb621",
  "difficulty": 1502402376590,
  "gasLimit": {
    "_hex": "0x4e3a5"
  },
  "gasUsed": {
    "_hex": "0xa674"
  },
  "miner": "0x580992B51e3925e23280EfB93d3047C82f17E038",
  "extraData": "0x476574682f76312e302e312f6c696e75782f676f312e342e32",
  "transactions": [
    {
      "hash": "0x0e6daf6278071e223e3cee456644238be01738334324471c67dbda73de5b847a",
      "blockHash": "0x74e82c4c9cddba0958d5ee616d963baf0a94120ef67b51d785b34704eee9d8af",
      "blockNumber": 50069,
      "transactionIndex": 0,
      "confirmations": null,
      "from": "0x2EfC4C647DaC6aCaC35577Ad221758FeF6616FAa",
      "gasPrice": {
        "_hex": "0x746a528800"
      },
      "gasLimit": {
        "_hex": "0x5208"
      },
      "to": "0x64CF897D51472Dc7CfF0e6368EB15B9e2d5168E3",
      "value": {
        "_hex": "0x1b1ae28207d32dbc000"
      },
      "nonce": 0,
      "data": "0x",
      "r": "0x1d455cbe7ae87b3754a93e1c974e1754cfbacae060dd57c779630d4d57160101",
      "s": "0x49045ddcb283b143a9f87ca51de2265c7bf3bc6f3a96db33390be5c7f26655b1",
      "v": 28,
      "creates": null,
      "raw": "0xf86e8085746a5288008252089464cf897d51472dc7cff0e6368eb15b9e2d5168e38a01b1ae28207d32dbc000801ca01d455cbe7ae87b3754a93e1c974e1754cfbacae060dd57c779630d4d57160101a049045ddcb283b143a9f87ca51de2265c7bf3bc6f3a96db33390be5c7f26655b1",
      "networkId": 0,
      "chainId": 0
    },
    {
      "hash": "0x656181db4d15fd642ba46ea6b2b39fa20062061388a7a8307a594922763450d9",
      "blockHash": "0x74e82c4c9cddba0958d5ee616d963baf0a94120ef67b51d785b34704eee9d8af",
      "blockNumber": 50069,
      "transactionIndex": 1,
      "confirmations": null,
      "from": "0xa7247c53D059EB7c9310F628d7Fc6c6A0a773f08",
      "gasPrice": {
        "_hex": "0x45d964b800"
      },
      "gasLimit": {
        "_hex": "0x55f0"
      },
      "to": "0x2910543Af39abA0Cd09dBb2D50200b3E800A63D2",
      "value": {
        "_hex": "0xff011d2523cd80000"
      },
      "nonce": 1,
      "data": "0x454e46373246475a47",
      "r": "0x7742ae4e58dec41276d891a6d9b0a0205a2faa59139c60e89cb238cece65214d",
      "s": "0x65821667ecd2c5666de135a7dcd1d199a1195afb38e502cd6048a294d6434f69",
      "v": 27,
      "creates": null,
      "raw": "0xf876018545d964b8008255f0942910543af39aba0cd09dbb2d50200b3e800a63d2890ff011d2523cd8000089454e46373246475a471ba07742ae4e58dec41276d891a6d9b0a0205a2faa59139c60e89cb238cece65214da065821667ecd2c5666de135a7dcd1d199a1195afb38e502cd6048a294d6434f69",
      "networkId": 0,
      "chainId": 0
    }
  ]
}