{
  "hash": "0x6bd5afde7c1d5b8c2b9ae825f3e3a058704c89d2659c60be689e540b8be42287",
  "parentHash": "0x5c56519e70a2665e48f43b62a10fc4596ce3819f4734e999104e3ee97ef4a281",
  "number": 84122,
  "timestamp": 1439545263,
  "nonce": "0xec9cf0618c5dd6d0",
  "difficulty": 2507081428018,
  "gasLimit": {
    "_hex": "0x2fefd8"
  },
  "gasUsed": {
    "_hex": "0x5208"
  },
  "miner": "0xe6A7a1d47ff21B6321162AEA7C6CB457D5476Bca",
  "extraData": "0x476574682f76312e302e312d38326566323666362f6c696e75782f676f312e34",
  "transactions": [
    {
      "hash": "0x0bf04334064cad629bd4ea3d8c6ae2a553ade537cac740738f87dac50eac24ba",
      "blockHash": "0x6bd5afde7c1d5b8c2b9ae825f3e3a058704c89d2659c60be689e540b8be42287",
      "blockNumber": 84122,
      "transactionIndex": 0,
      "confirmations": null,
      "from": "0x2910543Af39abA0Cd09dBb2D50200b3E800A63D2",
      "gasPrice": {
        "_hex": "0xd1ced4948"
      },
      "gasLimit": {
        "_hex": "0x5208"
      },
      "to": "0x4319859681be12b36f4420F4A26FD67429306cD1",
      "value": {
        "_hex": "0xde0b6b3a7640000"
      },
      "nonce": 539,
      "data": "0x",
      "r": "0x32b9970d7b35a3c56085556516309d6df4f0f1cd76dea57977bb00a863e8e823",
      "s": "0x6552265aa5fe3a79103f96af079492ad439839579c42fec5874b5125f36910ae",
      "v": 28,
      "creates": null,
      "raw": "0xf86e82021b850d1ced4948825208944319859681be12b36f4420f4a26fd67429306cd1880de0b6b3a7640000801ca032b9970d7b35a3c56085556516309d6df4f0f1cd76dea57977bb00a863e8e823a06552265aa5fe3a79103f96af079492ad439839579c42fec5874b5125f36910ae",
      "networkId": 0,
      "chainId": 0
    }
  ]
}