{
  "hash": "0x984f2d9184a768bf110de0b6c5ed9874d34feeabffd438662408113d7707d3e1",
  "parentHash": "0x4f58c5f989ed121a95d9199f7833fad4069887b29cb2daa955b291f8f07874bd",
  "number": 112134,
  "timestamp": 1440002477,
  "nonce": "0x6583b19afa510d05",
  "difficulty": 4376839669338,
  "gasLimit": {
    "_hex": "0x2fefd8"
  },
  "gasUsed": {
    "_hex": "0xa410"
  },
  "miner": "0x6e8514a1a6cB23D6fF33f62fFAbBa5172417cCEA",
  "extraData": "0x",
  "transactions": [
    {
      "hash": "0x90f07f8a2a157ae7a03729ebd662a078562fbc2e3bcd996620029a3788bfb9a1",
      "blockHash": "0x984f2d9184a768bf110de0b6c5ed9874d34feeabffd438662408113d7707d3e1",
      "blockNumber": 112134,
      "transactionIndex": 0,
      "confirmations": null,
      "from": "0x8c1B019b926ce92d867317f1460D477729E466F1",
      "gasPrice": {
        "_hex": "0x746a528800"
      },
      "gasLimit": {
        "_hex": "0x5b04"
      },
      "to": "0xF161498A7f225A91C338015ca11833B3399393A8",
      "value": {
        "_hex": "0xf79df6338e2000"
      },
      "nonce": 2,
      "data": "0x",
      "r": "0xcab3bca37c14429c38c4ab009079898e3516f05deba143faf392fdcec9855fd5",
      "s": "0x790dff2e411b8978316389070cc8e1a214ee98f246305576195e50df1bbfae9e",
      "v": 27,
      "creates": null,
      "raw": "0xf86b0285746a528800825b0494f161498a7f225a91c338015ca11833b3399393a887f79df6338e2000801ba0cab3bca37c14429c38c4ab009079898e3516f05deba143faf392fdcec9855fd5a0790dff2e411b8978316389070cc8e1a214ee98f246305576195e50df1bbfae9e",
      "networkId": 0,
      "chainId": 0
    },
    {
      "hash": "0x8d2b748586461c8268bee22675eb726f4dd383ce5c30e72c6d50deee33538995",
      "blockHash": "0x984f2d9184a768bf110de0b6c5ed9874d34feeabffd438662408113d7707d3e1",
      "blockNumber": 112134,
      "transactionIndex": 1,
      "confirmations": null,
      "from": "0x632b9149D70178a7333634275E82d5953F27967B",
      "gasPrice": {
        "_hex": "0xd23ee12e2"
      },
      "gasLimit": {
        "_hex": "0x15f90"
      },
      "to": "0x8B87d514623d1127f9b56DB60FA1498C1C4bF72e",
      "value": {
        "_hex": "0xd02ab486cedc0000"
      },
      "nonce": 2,
      "data": "0x",
      "r": "0xcd856aa87b29400172c27c3202dc5c48a55e79fb8685055179945e191f82f5ba",
      "s": "0x44c688c87dd27795f245a183bec36be5f3a429c4e8f843063b9d07f8cc0a0a14",
      "v": 27,
      "creates": null,
      "raw": "0xf86d02850d23ee12e283015f90948b87d514623d1127f9b56db60fa1498c1c4bf72e88d02ab486cedc0000801ba0cd856aa87b29400172c27c3202dc5c48a55e79fb8685055179945e191f82f5baa044c688c87dd27795f245a183bec36be5f3a429c4e8f843063b9d07f8cc0a0a14",
      "networkId": 0,
      "chainId": 0
    }
  ]
}