{
  "hash": "0x7e6fdf1521889590cdfab0b7d326cc29615ff996c483f4677bbb7980cffa130e",
  "parentHash": "0xb2c19f9aef025c2a9eb874c7e71c99ad50be3aee7e06c8ff65863b3264579290",
  "number": 114579,
  "timestamp": 1440042855,
  "nonce": "0xb6619a5fd46955d9",
  "difficulty": 4503451291852,
  "gasLimit": {
    "_hex": "0x2fefd8"
  },
  "gasUsed": {
    "_hex": "0xa410"
  },
  "miner": "0xf927a40C8B7F6E07c5af7FA2155B4864a4112B13",
  "extraData": "0x",
  "transactions": [
    {
      "hash": "0x6062235ed825ab275f9b4851e56d21dd29d7355094644665211f583ddb942cda",
      "blockHash": "0x7e6fdf1521889590cdfab0b7d326cc29615ff996c483f4677bbb7980cffa130e",
      "blockNumber": 114579,
      "transactionIndex": 0,
      "confirmations": null,
      "from": "0x4D67f4F0Db45b3B5a3424B39ed8d972F710381D5",
      "gasPrice": {
        "_hex": "0xd9ab21c60"
      },
      "gasLimit": {
        "_hex": "0x5208"
      },
      "to": "0x32Be343B94f860124dC4fEe278FDCBD38C102D88",
      "value": {
        "_hex": "0x2f9df9f2669aaa000"
      },
      "nonce": 44,
      "data": "0x",
      "r": "0x92eb2db91c230926ea2a0cb829571afeb151177cc8c22e30604323eb944be5af",
      "s": "0x6d0078e7ba9f939e00dfe8bf5cd4ff60b8ef66981b36f304fa9ec282801d7c75",
      "v": 28,
      "creates": null,
      "raw": "0xf86d2c850d9ab21c608252089432be343b94f860124dc4fee278fdcbd38c102d888902f9df9f2669aaa000801ca092eb2db91c230926ea2a0cb829571afeb151177cc8c22e30604323eb944be5afa06d0078e7ba9f939e00dfe8bf5cd4ff60b8ef66981b36f304fa9ec282801d7c75",
      "networkId": 0,
      "chainId": 0
    },
    {
      "hash": "0xde9d55d3b9a5dc6d372ead53aaa98139a02ca183c8a35589e10de1de9e56d470",
      "blockHash": "0x7e6fdf1521889590cdfab0b7d326cc29615ff996c483f4677bbb7980cffa130e",
      "blockNumber": 114579,
      "transactionIndex": 1,
      "confirmations": null,
      "from": "0x120A270bbC009644e35F0bB6ab13f95b8199c4ad",
      "gasPrice": {
        "_hex": "0xd6eb22d8e"
      },
      "gasLimit": {
        "_hex": "0x3d090"
      },
      "to": "0x7A559F9cdaa7294fC853d94122F296b341135cFA",
      "value": {
        "_hex": "0x73c73f55ceb6f5000"
      },
      "nonce": 934,
      "data": "0x",
      "r": "0x81aa7ab72552abd324b16243681524b1498896c4310d6eda17e61b4cc2e04966",
      "s": "0x5b396bae408486ed0ba37be2d10109f6a01979c4e62fe610eea3d74e8170d417",
      "v": 28,
      "creates": null,
      "raw": "0xf8708203a6850d6eb22d8e8303d090947a559f9cdaa7294fc853d94122f296b341135cfa89073c73f55ceb6f5000801ca081aa7ab72552abd324b16243681524b1498896c4310d6eda17e61b4cc2e04966a05b396bae408486ed0ba37be2d10109f6a01979c4e62fe610eea3d74e8170d417",
      "networkId": 0,
      "chainId": 0
    }
  ]
}