{
  "hash": "0x677cb5ef2c9438e7b3854479cd78e97c0eb96edb5a35ea0be55a0fe32744e722",
  "parentHash": "0x25c17064b7a0fbce54f9b60ab2482e49e121f9c2eb53904b4fb3bd8fb784ab7b",
  "number": 119660,
  "timestamp": 1440146681,
  "nonce": "0x55800ee9249016c7",
  "difficulty": 4385744723780,
  "gasLimit": {
    "_hex": "0x2fefd8"
  },
  "gasUsed": {
    "_hex": "0xa410"
  },
  "miner": "0xe6A7a1d47ff21B6321162AEA7C6CB457D5476Bca",
  "extraData": "0xd783010002844765746887676f312e342e32856c696e7578",
  "transactions": [
    {
      "hash": "0xc414bb4d224e9d50b7aa1add7d6e8a519678b803d7e48d3bb7d60cc23051cdcd",
      "blockHash": "0x677cb5ef2c9438e7b3854479cd78e97c0eb96edb5a35ea0be55a0fe32744e722",
      "blockNumber": 119660,
      "transactionIndex": 0,
      "confirmations": null,
      "from": "0x58850Ab9442C06379DfFBf52e3EAA035f5D5E092",
      "gasPrice": {
        "_hex": "0xba43b7400"
      },
      "gasLimit": {
        "_hex": "0x15f90"
      },
      "to": "0x576F13DdEd1f2AD6B9D55EE8A1B67815ee7C92d9",
      "value": {
        "_hex": "0x28c418afbbb5c0000"
      },
      "nonce": 4,
      "data": "0x",
      "r": "0x14deddb706c667c1be6516226663cca2007ea37fa44d37f8f954e7cdcd4ac143",
      "s": "0x5e5ecdfb8416d52cbd27b1d65cafabb10fb478cf277eae36af459e3950dbf683",
      "v": 28,
      "creates": null,
      "raw": "0xf86e04850ba43b740083015f9094576f13dded1f2ad6b9d55ee8a1b67815ee7c92d989028c418afbbb5c0000801ca014deddb706c667c1be6516226663cca2007ea37fa44d37f8f954e7cdcd4ac143a05e5ecdfb8416d52cbd27b1d65cafabb10fb478cf277eae36af459e3950dbf683",
      "networkId": 0,
      "chainId": 0
    },
    {
      "hash": "0x31f7fe347465867467b51d677222b2b57e4dd5c13831bc234a07472bc62fde48",
      "blockHash": "0x677cb5ef2c9438e7b3854479cd78e97c0eb96edb5a35ea0be55a0fe32744e722",
      "blockNumber": 119660,
      "transactionIndex": 1,
      "confirmations": null,
      "from": "0x26163E84886A136fC8034eB4e9F1cc00b1D345f1",
      "gasPrice": {
        "_hex": "0xba43b7400"
      },
      "gasLimit": {
        "_hex": "0x15f90"
      },
      "to": "0x6d921977dEFE5f4e0682CA512De1D07b1f4802E1",
      "value": {
        "_hex": "0x1314fb37062980000"
      },
      "nonce": 9,
      "data": "0x",
      "r": "0x24e2e861274f1cd016666100f63d82ea4749bb76da7309196d0d77267521f599",
      "s": "0x7c42b584c680bb2e38fdb8897091311563ee4b3fe72c0be8f33709e17bd2e2ff",
      "v": 28,
      "creates": null,
      "raw": "0xf86e09850ba43b740083015f90946d921977defe5f4e0682ca512de1d07b1f4802e18901314fb37062980000801ca024e2e861274f1cd016666100f63d82ea4749bb76da7309196d0d77267521f599a07c42b584c680bb2e38fdb8897091311563ee4b3fe72c0be8f33709e17bd2e2ff",
      "networkId": 0,
      "chainId": 0
    }
  ]
}