{
  "hash": "0x4935bac8bdc92259fec9128cc47f6ce707faea14f0a103050cfa4e6b939601b5",
  "parentHash": "0xa5f30abd959af9260d5b94d0b3309674be963bc1079ba7678e22b54b36e58cbd",
  "number": 122011,
  "timestamp": 1440186697,
  "nonce": "0xc92a18e25ce267c3",
  "difficulty": 4464448062201,
  "gasLimit": {
    "_hex": "0x2fefd8"
  },
  "gasUsed": {
    "_hex": "0x14820"
  },
  "miner": "0x790b8a3cE86E707ED0eD32bF89B3269692a23CC1",
  "extraData": "0xd783010002844765746887676f312e342e32856c696e7578",
  "transactions": [
    {
      "hash": "0xc24df559f99b7bfd65e753a1a0244756adf86154551f86cc4bcaa6e8a1a23ea8",
      "blockHash": "0x4935bac8bdc92259fec9128cc47f6ce707faea14f0a103050cfa4e6b939601b5",
      "blockNumber": 122011,
      "transactionIndex": 0,
      "confirmations": null,
      "from": "0x32Be343B94f860124dC4fEe278FDCBD38C102D88",
      "gasPrice": {
        "_hex": "0xdb0d63674"
      },
      "gasLimit": {
        "_hex": "0x5208"
      },
      "to": "0xB4B3c8B3bA50E3FF2C3bD7c750Cbe1B8F8f5b302",
      "value": {
        "_hex": "0xaf6a4d07c8f0000"
      },
      "nonce": 1590,
      "data": "0x",
      "r": "0xb4a10b7744e92623d1b197d8124fdf8a6429f54bb7481baab981920c512f9faf",
      "s": "0x409735cdb702b45c1fcab518d2526befd39e5f98ed954d7108b613a3d16a5984",
      "v": 27,
      "creates": null,
      "raw": "0xf86e820636850db0d6367482520894b4b3c8b3ba50e3ff2c3bd7c750cbe1b8f8f5b302880af6a4d07c8f0000801ba0b4a10b7744e92623d1b197d8124fdf8a6429f54bb7481baab981920c512f9fafa0409735cdb702b45c1fcab518d2526befd39e5f98ed954d7108b613a3d16a5984",
      "networkId": 0,
      "chainId": 0
    },
    {
      "hash": "0xb9ade60a6882dd65589c23387861188cb08e48dcadc06bcc0777a290c878f9f1",
      "blockHash": "0x4935bac8bdc92259fec9128cc47f6ce707faea14f0a103050cfa4e6b939601b5",
      "blockNumber": 122011,
      "transactionIndex": 1,
      "confirmations": null,
      "from": "0x32Be343B94f860124dC4fEe278FDCBD38C102D88",
      "gasPrice": {
        "_hex": "0xdb0d63674"
      },
      "gasLimit": {
        "_hex": "0x5208"
      },
      "to": "0xBeEC2A78aD28d873e968C60963cD2Fdf396FB594",
      "value": {
        "_hex": "0xbbad2ad762a850000"
      },
      "nonce": 1591,
      "data": "0x",
      "r": "0x034bc9e0abccc506224a3638728f888837977889aaa108a040b1afb6dc24ffff",
      "s": "0x648cd62db20baa768a920c3b1039fbf5f270fbb15175112fda9416efbcc9913f",
      "v": 28,
      "creates": null,
      "raw": "0xf86f820637850db0d6367482520894beec2a78ad28d873e968c60963cd2fdf396fb594890bbad2ad762a850000801ca0034bc9e0abccc506224a3638728f888837977889aaa108a040b1afb6dc24ffffa0648cd62db20baa768a920c3b1039fbf5f270fbb15175112fda9416efbcc9913f",
      "networkId": 0,
      "chainId": 0
    },
    {
      "hash": "0xc0d38e8b161b466b4a7cb76742dcb3034023c4a0e18b5a9efca3c8b62b59535e",
      "blockHash": "0x4935bac8bdc92259fec9128cc47f6ce707faea14f0a103050cfa4e6b939601b5",
      "blockNumber": 122011,
      "transactionIndex": 2,
      "confirmations": null,
      "from": "0x63738Ec4C9adec404749B5747F3bbE2147de632F",
      "gasPrice": {
        "_hex": "0xd42e737ef"
      },
      "gasLimit": {
        "_hex": "0x15f90"
      },
      "to": "0x557C2806B6ceA65a66F415bb2Ed1ce897B340745",
      "value": {
        "_hex": "0x8ac7230489e80000"
      },
      "nonce": 78,
      "data": "0x",
      "r": "0x612280dd7afc4f4c6e82521223d2743e05fccafe851930cc99f23e848e6371ed",
      "s": "0x082c5d3a142faf9fa9cd2c159149e4353c9c1785fbd0336ab053d28d9c695a75",
      "v": 28,
      "creates": null,
      "raw": "0xf86d4e850d42e737ef83015f9094557c2806b6cea65a66f415bb2ed1ce897b340745888ac7230489e80000801ca0612280dd7afc4f4c6e82521223d2743e05fccafe851930cc99f23e848e6371eda0082c5d3a142faf9fa9cd2c159149e4353c9c1785fbd0336ab053d28d9c695a75",
      "networkId": 0,
      "chainId": 0
    },
    {
      "hash": "0x3a147f11092c0eebbe3cc8727941c2ca39fae232cf82c88020e926f10429bee1",
      "blockHash": "0x4935bac8bdc92259fec9128cc47f6ce707faea14f0a103050cfa4e6b939601b5",
      "blockNumber": 122011,
      "transactionIndex": 3,
      "confirmations": null,
      "from": "0x63738Ec4C9adec404749B5747F3bbE2147de632F",
      "gasPrice": {
        "_hex": "0xd5b91a592"
      },
      "gasLimit": {
        "_hex": "0x15f90"
      },
      "to": "0x557C2806B6ceA65a66F415bb2Ed1ce897B340745",
      "value": {
        "_hex": "0x8ac7230489e80000"
      },
      "nonce": 79,
      "data": "0x",
      "r": "0x76c1d9b1c58e7c7ad85a91297e75c424baf8c22a9f3160b5b99594c16be28118",
      "s": "0x58d053e15522160f4895dd2627cd1b5550681cce6ef0c9bbd8ae6a3d798bfc75",
      "v": 27,
      "creates": null,
      "raw": "0xf86d4f850d5b91a59283015f9094557c2806b6cea65a66f415bb2ed1ce897b340745888ac7230489e80000801ba076c1d9b1c58e7c7ad85a91297e75c424baf8c22a9f3160b5b99594c16be28118a058d053e15522160f4895dd2627cd1b5550681cce6ef0c9bbd8ae6a3d798bfc75",
      "networkId": 0,
      "chainId": 0
    }
  ]
}