{
  "hash": "0x13580da7f8005a3d2a82065e2907d31476a48735cfbfeee01e41f21aec0db4ef",
  "parentHash": "0x62fa90b627c11be851c4b7f18b4ff432728e73b3704b2b0d0b6aa18fdf1def6c",
  "number": 71881,
  "timestamp": 1439343469,
  "nonce": "0xa0740e0e3ae926be",
  "difficulty": 2165452419961,
  "gasLimit": {
    "_hex": "0x2fefd8"
  },
  "gasUsed": {
    "_hex": "0x34e1a"
  },
  "miner": "0xe6A7a1d47ff21B6321162AEA7C6CB457D5476Bca",
  "extraData": "0x476574682f76312e302e312d38326566323666362f6c696e75782f676f312e34",
  "transactions": [
    {
      "hash": "0xdb4b80f216b97b3afdb138eb3d250affd9c0618dc76029c4c2d64c69c2c11286",
      "blockHash": "0x13580da7f8005a3d2a82065e2907d31476a48735cfbfeee01e41f21aec0db4ef",
      "blockNumber": 71881,
      "transactionIndex": 0,
      "confirmations": null,
      "from": "0x17580B766f7453525ca4C6A88b01b50570EA088C",
      "gasPrice": {
        "_hex": "0xcefc3b0e6"
      },
      "gasLimit": {
        "_hex": "0x61a80"
      },
      "to": "0x5Fe5B7546D1628f7348B023A0393de1FC825A4fD",
      "value": {
        "_hex": "0x53444835ec580000"
      },
      "nonce": 281,
      "data": "0xb595b8b50000000000000000000000000000000000000000000000000000000000000001",
      "r": "0x022418b7bbb8e3187ed176a86f4e3bc604503a08240d2b424efacb4eb984c630",
      "s": "0x045eb2d7a2b14096198ba0418554ba6606cd827200892bdad4d947cf92846d69",
      "v": 27,
      "creates": null,
      "raw": "0xf893820119850cefc3b0e683061a80945fe5b7546d1628f7348b023a0393de1fc825a4fd8853444835ec580000a4b595b8b500000000000000000000000000000000000000000000000000000000000000011ba0022418b7bbb8e3187ed176a86f4e3bc604503a08240d2b424efacb4eb984c630a0045eb2d7a2b14096198ba0418554ba6606cd827200892bdad4d947cf92846d69",
      "networkId": 0,
      "chainId": 0
    },
    {
      "hash": "0x572dfcff79c71fe653dfb5af26fd66aa8b317cbf28b11d88bc244eca5d95776f",
      "blockHash": "0x13580da7f8005a3d2a82065e2907d31476a48735cfbfeee01e41f21aec0db4ef",
      "blockNumber": 71881,
      "transactionIndex": 1,
      "confirmations": null,
      "from": "0x17580B766f7453525ca4C6A88b01b50570EA088C",
      "gasPrice": {
        "_hex": "0xcefc3b0e6"
      },
      "gasLimit": {
        "_hex": "0x61a80"
      },
      "to": "0x5Fe5B7546D1628f7348B023A0393de1FC825A4fD",
      "value": {
        "_hex": "0x29a2241af62c0000"
      },
      "nonce": 282,
      "data": "0xb595b8b50000000000000000000000000000000000000000000000000000000000000000",
      "r": "0x20375480548a1a847f4b74ad9c382afb09385b1a1f1adef5605563221bece7f4",
      "s": "0x6df1d0156037a217c2fcd458bbaf648bb981afd6e507033d298b8930fcdf7c8b",
      "v": 27,
      "creates": null,
      "raw": "0xf89382011a850cefc3b0e683061a80945fe5b7546d1628f7348b023a0393de1fc825a4fd8829a2241af62c0000a4b595b8b500000000000000000000000000000000000000000000000000000000000000001ba020375480548a1a847f4b74ad9c382afb09385b1a1f1adef5605563221bece7f4a06df1d0156037a217c2fcd458bbaf648bb981afd6e507033d298b8930fcdf7c8b",
      "networkId": 0,
      "chainId": 0
    },
    {
      "hash": "0x386af2157095b307e4fe254bcc6103a18f879c774c6e33e9fbf5b8dda46c5fb2",
      "blockHash": "0x13580da7f8005a3d2a82065e2907d31476a48735cfbfeee01e41f21aec0db4ef",
      "blockNumber": 71881,
      "transactionIndex": 2,
      "confirmations": null,
      "from": "0x17580B766f7453525ca4C6A88b01b50570EA088C",
      "gasPrice": {
        "_hex": "0xcefc3b0e6"
      },
      "gasLimit": {
        "_hex": "0x61a80"
      },
      "to": "0x5Fe5B7546D1628f7348B023A0393de1FC825A4fD",
      "value": {
        "_hex": "0x29a2241af62c0000"
      },
      "nonce": 283,
      "data": "0xb595b8b50000000000000000000000000000000000000000000000000000000000000000",
      "r": "0x1b4ba1ce04f86fc3cb33ea6edea6a45f976266caace5e96c11ba3839a29a89ef",
      "s": "0x34f7ef9f4c77b6cbc022d64c522fdcce7df31161f4d33ee9eaa42c8901b465c9",
      "v": 27,
      "creates": null,
      "raw": "0xf89382011b850cefc3b0e683061a80945fe5b7546d1628f7348b023a0393de1fc825a4fd8829a2241af62c0000a4b595b8b500000000000000000000000000000000000000000000000000000000000000001ba01b4ba1ce04f86fc3cb33ea6edea6a45f976266caace5e96c11ba3839a29a89efa034f7ef9f4c77b6cbc022d64c522fdcce7df31161f4d33ee9eaa42c8901b465c9",
      "networkId": 0,
      "chainId": 0
    },
    {
      "hash": "0x8e1dfa58b0e18f5facde67589317b291a93f962d27de8064b6b697e80366996d",
      "blockHash": "0x13580da7f8005a3d2a82065e2907d31476a48735cfbfeee01e41f21aec0db4ef",
      "blockNumber": 71881,
      "transactionIndex": 3,
      "confirmations": null,
      "from": "0x17580B766f7453525ca4C6A88b01b50570EA088C",
      "gasPrice": {
        "_hex": "0xcefc3b0e6"
      },
      "gasLimit": {
        "_hex": "0x61a80"
      },
      "to": "0x5Fe5B7546D1628f7348B023A0393de1FC825A4fD",
      "value": {
        "_hex": "0x29a2241af62c0000"
      },
      "nonce": 284,
      "data": "0xb595b8b50000000000000000000000000000000000000000000000000000000000000000",
      "r": "0x3f485bf8f8cccb19ff6c0d498ca8bbc5accba287e12afd8ade9d2f75b8c2fa82",
      "s": "0x4df75a293e8a6de65fb3eaffddfb98a0896238611df4b2cc54a52e975a4a6455",
      "v": 27,
      "creates": null,
      "raw": "0xf89382011c850cefc3b0e683061a80945fe5b7546d1628f7348b023a0393de1fc825a4fd8829a2241af62c0000a4b595b8b500000000000000000000000000000000000000000000000000000000000000001ba03f485bf8f8cccb19ff6c0d498ca8bbc5accba287e12afd8ade9d2f75b8c2fa82a04df75a293e8a6de65fb3eaffddfb98a0896238611df4b2cc54a52e975a4a6455",
      "networkId": 0,
      "chainId": 0
    },
    {
      "hash": "0x3fb7b298777a8b7684e12f631598713fc6bd814ba3d83acfa4acb8e3bcbc31e7",
      "blockHash": "0x13580da7f8005a3d2a82065e2907d31476a48735cfbfeee01e41f21aec0db4ef",
      "blockNumber": 71881,
      "transactionIndex": 4,
      "confirmations": null,
      "from": "0x17580B766f7453525ca4C6A88b01b50570EA088C",
      "gasPrice": {
        "_hex": "0xcefc3b0e6"
      },
      "gasLimit": {
        "_hex": "0x61a80"
      },
      "to": "0x5Fe5B7546D1628f7348B023A0393de1FC825A4fD",
      "value": {
        "_hex": "0x53444835ec580000"
      },
      "nonce": 285,
      "data": "0xb595b8b50000000000000000000000000000000000000000000000000000000000000001",
      "r": "0x3e3ea54f8bfb4ee926363437447f984c1fc5e91c404a8ae38132bc8fe1fa1441",
      "s": "0x48215ce53e581437fbbf68274c87412f664c88adc329c6839b8bc230e77b7168",
      "v": 27,
      "creates": null,
      "raw": "0xf89382011d850cefc3b0e683061a80945fe5b7546d1628f7348b023a0393de1fc825a4fd8853444835ec580000a4b595b8b500000000000000000000000000000000000000000000000000000000000000011ba03e3ea54f8bfb4ee926363437447f984c1fc5e91c404a8ae38132bc8fe1fa1441a048215ce53e581437fbbf68274c87412f664c88adc329c6839b8bc230e77b7168",
      "networkId": 0,
      "chainId": 0
    }
  ]
}