{
  "hash": "0xaae4c4843114386757eaa6b794ffa1c3a633f1d8885420e0c6db7d69d18d076c",
  "parentHash": "0x0f8a8ae417607b2fc5258b25c99d81c299cf5150cb6915a2d6c42f138f694409",
  "number": 47476,
  "timestamp": 1438941122,
  "nonce": "0xfb381b681a46f522",
  "difficulty": 1448825784277,
  "gasLimit": {
    "_hex": "0xc336"
  },
  "gasUsed": {
    "_hex": "0x5208"
  },
  "miner": "0x94050F23a757023992Ac79b7f72C069dC5A83784",
  "extraData": "0x476574682f76312e302e302d30636463373634372f6c696e75782f676f312e34",
  "transactions": [
    {
      "hash": "0xb0ed3f219e9334414ce6f989372dcd33e2e890acbf1949996f34cf02edc71d29",
      "blockHash": "0xaae4c4843114386757eaa6b794ffa1c3a633f1d8885420e0c6db7d69d18d076c",
      "blockNumber": 47476,
      "transactionIndex": 0,
      "confirmations": null,
      "from": "0x3D09688D93AD07F3abe68C722723Cd680990435e",
      "gasPrice": {
        "_hex": "0x746a528800"
      },
      "gasLimit": {
        "_hex": "0x5208"
      },
      "to": "0x4019b21f3dB1F288414aC180f3Ea63315B12a7aC",
      "value": {
        "_hex": "0xa2a15d09519be00000"
      },
      "nonce": 6,
      "data": "0x",
      "r": "0x7471f55a926243a94544c649a69c2c541929ec60f40537118fefb4b24d3c0bc5",
      "s": "0x2c16a15fc3be33811066918019923f35dc6b8c979d9704f56ef6d34bc7792463",
      "v": 27,
      "creates": null,
      "raw": "0xf86d0685746a528800825208944019b21f3db1f288414ac180f3ea63315b12a7ac89a2a15d09519be00000801ba07471f55a926243a94544c649a69c2c541929ec60f40537118fefb4b24d3c0bc5a02c16a15fc3be33811066918019923f35dc6b8c979d9704f56ef6d34bc7792463",
      "networkId": 0,
      "chainId": 0
    }
  ]
}