{
  "hash": "0xa4f4cbe693680af08846ece10009496d422336d24a5612e6389a429d48a46065",
  "parentHash": "0xba7fa56648aef4abbca02868c171d0a26bb087e226a65c6c1fba1997aea24ae0",
  "number": 51202,
  "timestamp": 1439001038,
  "nonce": "0x3477c55fbbf25a65",
  "difficulty": 1564330120182,
  "gasLimit": {
    "_hex": "0x99efb"
  },
  "gasUsed": {
    "_hex": "0x5208"
  },
  "miner": "0x3222BA3F3e79eA0e31467EEE7639B57923558cCD",
  "extraData": "0x",
  "transactions": [
    {
      "hash": "0xf354e3739a7fb1ba943f0fa4a8057af7fad335be05819c56d59933772490e020",
      "blockHash": "0xa4f4cbe693680af08846ece10009496d422336d24a5612e6389a429d48a46065",
      "blockNumber": 51202,
      "transactionIndex": 0,
      "confirmations": null,
      "from": "0x4cfeF0a00715760Ed2b03C3782D07a4EA9A8dfDc",
      "gasPrice": {
        "_hex": "0xd3fddf773"
      },
      "gasLimit": {
        "_hex": "0x61a8"
      },
      "to": "0x8dd1564B9F5de977842650A81926AF713963C070",
      "value": {
        "_hex": "0x29a2241af62c0000"
      },
      "nonce": 2,
      "data": "0x",
      "r": "0x7c4c6405486c14c5490e4d64d7af3840a0eda0633ba980d14a1c66b113e701cd",
      "s": "0x0e6482f793ceece4f7329b444f4e89d2b2e8f5d54b109dd668d7c35728b62370",
      "v": 28,
      "creates": null,
      "raw": "0xf86c02850d3fddf7738261a8948dd1564b9f5de977842650a81926af713963c0708829a2241af62c0000801ca07c4c6405486c14c5490e4d64d7af3840a0eda0633ba980d14a1c66b113e701cda00e6482f793ceece4f7329b444f4e89d2b2e8f5d54b109dd668d7c35728b62370",
      "networkId": 0,
      "chainId": 0
    }
  ]
}