{
  "hash": "0x9d8c91aa527fc5c363c9da2820ddd0eac658b9b93d1bf9680748cf63da34d5b1",
  "parentHash": "0x227287ac0cd13f0feaa6a0384e7210189465eed4cccf7c143975ccb00d6312f2",
  "number": 109566,
  "timestamp": 1439958673,
  "nonce": "0xdbd82bb9238cd044",
  "difficulty": 4442785281548,
  "gasLimit": {
    "_hex": "0x2fefd8"
  },
  "gasUsed": {
    "_hex": "0xa410"
  },
  "miner": "0xe6A7a1d47ff21B6321162AEA7C6CB457D5476Bca",
  "extraData": "0x476574682f76312e302e312d38326566323666362f6c696e75782f676f312e34",
  "transactions": [
    {
      "hash": "0xfb1f3a45b850bb507fd8805c891c7ebef65a1d8be1ecbed03efde5abfb118fa5",
      "blockHash": "0x9d8c91aa527fc5c363c9da2820ddd0eac658b9b93d1bf9680748cf63da34d5b1",
      "blockNumber": 109566,
      "transactionIndex": 0,
      "confirmations": null,
      "from": "0xb1abce2918E21ddb93AA452731a12672A3d9F75a",
      "gasPrice": {
        "_hex": "0xde8a14aaf"
      },
      "gasLimit": {
        "_hex": "0x5208"
      },
      "to": "0x32Be343B94f860124dC4fEe278FDCBD38C102D88",
      "value": {
        "_hex": "0x8ac2ae10d3150000"
      },
      "nonce": 151,
      "data": "0x",
      "r": "0x7b1c87ad4fd4714dff9867888108846b54cbac00bf92c71172d8e25078658382",
      "s": "0x41abdd117c8543f1aae921b839ba3d394dd666f1ed2f7dd942a2a2ac52207b36",
      "v": 28,
      "creates": null,
      "raw": "0xf86d8197850de8a14aaf8252089432be343b94f860124dc4fee278fdcbd38c102d88888ac2ae10d3150000801ca07b1c87ad4fd4714dff9867888108846b54cbac00bf92c71172d8e25078658382a041abdd117c8543f1aae921b839ba3d394dd666f1ed2f7dd942a2a2ac52207b36",
      "networkId": 0,
      "chainId": 0
    },
    {
      "hash": "0x5f059027867a8e9c545e72f4a89b9fab798506299e5bff5c636d6481b1432d72",
      "blockHash": "0x9d8c91aa527fc5c363c9da2820ddd0eac658b9b93d1bf9680748cf63da34d5b1",
      "blockNumber": 109566,
      "transactionIndex": 1,
      "confirmations": null,
      "from": "0x007f7f58D3eb5b7510A301eCC749FC1fCDDBE14D",
      "gasPrice": {
        "_hex": "0xd382b0b9c"
      },
      "gasLimit": {
        "_hex": "0x15f90"
      },
      "to": "0xb1abce2918E21ddb93AA452731a12672A3d9F75a",
      "value": {
        "_hex": "0x4563918244f40000"
      },
      "nonce": 273,
      "data": "0x",
      "r": "0x1624971107aa55c5d7a1f1504ed947d338b297b47fe78c25ce846748c2048135",
      "s": "0x3689236b6eb901780a935e660cc0af2e5a6c568912a30f0d4353e603aca601be",
      "v": 28,
      "creates": null,
      "raw": "0xf86f820111850d382b0b9c83015f9094b1abce2918e21ddb93aa452731a12672a3d9f75a884563918244f40000801ca01624971107aa55c5d7a1f1504ed947d338b297b47fe78c25ce846748c2048135a03689236b6eb901780a935e660cc0af2e5a6c568912a30f0d4353e603aca601be",
      "networkId": 0,
      "chainId": 0
    }
  ]
}