{
  "hash": "0xb40b84e16fc43b639d42645f12cc35ee920b0003d9d259c22557d79985067ec9",
  "parentHash": "0x77df219b9e8db51b26dbdf0a041bea5f71f19c6840cc17b24e515f23a2f1ecbc",
  "number": 108246,
  "timestamp": 1439937094,
  "nonce": "0x7b811f64b22e840c",
  "difficulty": 4344792112850,
  "gasLimit": {
    "_hex": "0x2fefd8"
  },
  "gasUsed": {
    "_hex": "0x5208"
  },
  "miner": "0x790b8a3cE86E707ED0eD32bF89B3269692a23CC1",
  "extraData": "0xd783010001844765746887676f312e342e32856c696e7578",
  "transactions": [
    {
      "hash": "0x16d1749f5738eb4eb6d3586f6f7d3ad3a22a2ce2f817d93cdb62a47782a6c940",
      "blockHash": "0xb40b84e16fc43b639d42645f12cc35ee920b0003d9d259c22557d79985067ec9",
      "blockNumber": 108246,
      "transactionIndex": 0,
      "confirmations": null,
      "from": "0x20dff602D440dC119Bd3fF52E76f5cFE42Da65Fe",
      "gasPrice": {
        "_hex": "0xcbad92d38"
      },
      "gasLimit": {
        "_hex": "0x15f90"
      },
      "to": "0x9014c1C66c473E2441cc8f1b101594b1A05bD08b",
      "value": {
        "_hex": "0x56bc75e2d63100000"
      },
      "nonce": 1,
      "data": "0x",
      "r": "0xc3a4d85c23879abba38679938e4ab6f16e3c8685f13d89e196c2e5346ca9cd8d",
      "s": "0x6410642463faebfa16f8bce63dc3fee3446a98d8f634c7d3539f5de7aed6e994",
      "v": 27,
      "creates": null,
      "raw": "0xf86e01850cbad92d3883015f90949014c1c66c473e2441cc8f1b101594b1a05bd08b89056bc75e2d63100000801ba0c3a4d85c23879abba38679938e4ab6f16e3c8685f13d89e196c2e5346ca9cd8da06410642463faebfa16f8bce63dc3fee3446a98d8f634c7d3539f5de7aed6e994",
      "networkId": 0,
      "chainId": 0
    }
  ]
}