{
  "hash": "0xad6e5eeaa1a3bb059a405bb4490e5472bec4d4e8c8de6de0409d473362f80116",
  "parentHash": "0x3a68eb568be1cafaf904b70bbb08c921e3f198225a3e0e3903cb956787fefc57",
  "number": 105298,
  "timestamp": 1439885045,
  "nonce": "0x2ab176f6812188f3",
  "difficulty": 4376132220076,
  "gasLimit": {
    "_hex": "0x2fefd8"
  },
  "gasUsed": {
    "_hex": "0x5208"
  },
  "miner": "0xe6A7a1d47ff21B6321162AEA7C6CB457D5476Bca",
  "extraData": "0x476574682f76312e302e312d38326566323666362f6c696e75782f676f312e34",
  "transactions": [
    {
      "hash": "0xb4b779a383de85458c87cea743c5def6b751a2e2503130325cd7ec77e1cfd1de",
      "blockHash": "0xad6e5eeaa1a3bb059a405bb4490e5472bec4d4e8c8de6de0409d473362f80116",
      "blockNumber": 105298,
      "transactionIndex": 0,
      "confirmations": null,
      "from": "0x2878c60b86FBf89645547fEcFA7f74B067f32E52",
      "gasPrice": {
        "_hex": "0xe01033d0c"
      },
      "gasLimit": {
        "_hex": "0x5208"
      },
      "to": "0x32Be343B94f860124dC4fEe278FDCBD38C102D88",
      "value": {
        "_hex": "0xddc39efecaaf000"
      },
      "nonce": 3,
      "data": "0x",
      "r": "0x6bd6289f0c18100572620e8aef6c92d39b6ceaf59dd23aa22555a548dcb65516",
      "s": "0x0e448f85c02473d7ed21e90659c4152d954809978bfd4afedb9b11753ef5fae9",
      "v": 27,
      "creates": null,
      "raw": "0xf86c03850e01033d0c8252089432be343b94f860124dc4fee278fdcbd38c102d88880ddc39efecaaf000801ba06bd6289f0c18100572620e8aef6c92d39b6ceaf59dd23aa22555a548dcb65516a00e448f85c02473d7ed21e90659c4152d954809978bfd4afedb9b11753ef5fae9",
      "networkId": 0,
      "chainId": 0
    }
  ]
}