{
  "hash": "0x85b6bb30f6f1f3b00fca6ea9650415a29b1ff10c80ac55c0668c7dfd5dd490d3",
  "parentHash": "0xbad6231d1f631afb19ecdb1fc070ca20fe72f0d003b9b06a31ae211b71845799",
  "number": 68409,
  "timestamp": 1439287320,
  "nonce": "0xc9b9d2f845850134",
  "difficulty": 2019259174254,
  "gasLimit": {
    "_hex": "0x2fefd8"
  },
  "gasUsed": {
    "_hex": "0x5208"
  },
  "miner": "0x6e9E0a2aAa3c4d41aa69f4E7328095278284f7e2",
  "extraData": "0x476574682f76312e302e312f6c696e75782f676f312e342e32",
  "transactions": [
    {
      "hash": "0x2bc3298ff61a8785b1c158c6b05d922f0f95852e73ad0068058324f0427aa58e",
      "blockHash": "0x85b6bb30f6f1f3b00fca6ea9650415a29b1ff10c80ac55c0668c7dfd5dd490d3",
      "blockNumber": 68409,
      "transactionIndex": 0,
      "confirmations": null,
      "from": "0x6a475fA6C5b59669d452275211156562594b0a21",
      "gasPrice": {
        "_hex": "0xba43b7400"
      },
      "gasLimit": {
        "_hex": "0x5208"
      },
      "to": "0xe86E78088E8aC7F483b3C4A466e4d7B255bAC723",
      "value": {
        "_hex": "0x4e1253f5de4000"
      },
      "nonce": 1,
      "data": "0x",
      "r": "0x6b9b5d65e0509d00f3e8196d6a049a24b85b11dc933efa3fec5012ef5cb2b070",
      "s": "0x1283555af39b72a172d0cfdb30dd4e1611eb25b3ab95714d24932daf54b3a67b",
      "v": 28,
      "creates": null,
      "raw": "0xf86b01850ba43b740082520894e86e78088e8ac7f483b3c4a466e4d7b255bac723874e1253f5de4000801ca06b9b5d65e0509d00f3e8196d6a049a24b85b11dc933efa3fec5012ef5cb2b070a01283555af39b72a172d0cfdb30dd4e1611eb25b3ab95714d24932daf54b3a67b",
      "networkId": 0,
      "chainId": 0
    }
  ]
}