{
  "hash": "0xbbb5efe43d1aca374f2890f69df898272169480320f566db8eef195340512bf6",
  "parentHash": "0x939a3bf6b1fe61927048d9fa6f5216f63e7acff1d440c73827ce74e60e57be92",
  "number": 93212,
  "timestamp": 1439685245,
  "nonce": "0x753abe749094e9db",
  "difficulty": 3594352414642,
  "gasLimit": {
    "_hex": "0x2fefd8"
  },
  "gasUsed": {
    "_hex": "0xa410"
  },
  "miner": "0xE706a05a40761915bC70310f7a94e6B2B596dbf8",
  "extraData": "0x476574682f76312e302e312d38326566323666362f6c696e75782f676f312e34",
  "transactions": [
    {
      "hash": "0xe956106addc5851ded43516ab25d2d31e69729ea7d0f06f74cbf4f3ee0fa750e",
      "blockHash": "0xbbb5efe43d1aca374f2890f69df898272169480320f566db8eef195340512bf6",
      "blockNumber": 93212,
      "transactionIndex": 0,
      "confirmations": null,
      "from": "0x513cc87Fc09c7Dedae9A780a66dc47ebeE4B5C5A",
      "gasPrice": {
        "_hex": "0xd7d40ace3"
      },
      "gasLimit": {
        "_hex": "0x5208"
      },
      "to": "0xE3535c3A7F74fDd1447140e98FA5fE310028f40f",
      "value": {
        "_hex": "0x6124fee993bc0000"
      },
      "nonce": 3,
      "data": "0x",
      "r": "0x95abbac4ffabc918e9667db07fd5b97c2e083d4302ed9405bc3abf2530a6de9a",
      "s": "0x32db309fef5c670f180d61b7ef89cbbc9b828d8bf37c5239d14b0df098274e36",
      "v": 27,
      "creates": null,
      "raw": "0xf86c03850d7d40ace382520894e3535c3a7f74fdd1447140e98fa5fe310028f40f886124fee993bc0000801ba095abbac4ffabc918e9667db07fd5b97c2e083d4302ed9405bc3abf2530a6de9aa032db309fef5c670f180d61b7ef89cbbc9b828d8bf37c5239d14b0df098274e36",
      "networkId": 0,
      "chainId": 0
    },
    {
      "hash": "0xa24fc6b5607e25d7ce098c9928f1c01a5333fca1d45a609cd896ee603e3b45bf",
      "blockHash": "0xbbb5efe43d1aca374f2890f69df898272169480320f566db8eef195340512bf6",
      "blockNumber": 93212,
      "transactionIndex": 1,
      "confirmations": null,
      "from": "0x22DF534F237aF15b3B7cebf9651FC2671Fb03FA4",
      "gasPrice": {
        "_hex": "0xd7d40ace3"
      },
      "gasLimit": {
        "_hex": "0x15f90"
      },
      "to": "0xb1A2a1e9b8AC33fdcB2118b73A875b096AEd24aD",
      "value": {
        "_hex": "0x8aa39c121a270000"
      },
      "nonce": 0,
      "data": "0x",
      "r": "0xbee2b113e0a82d9ee7724a54b4baba34a39cdae253a520d2b879399fcc517156",
      "s": "0x4695a8ac31fc6cfbb4240d4e5c2d2a85cf8b4826eea831347f5ca2041b59ecab",
      "v": 27,
      "creates": null,
      "raw": "0xf86d80850d7d40ace383015f9094b1a2a1e9b8ac33fdcb2118b73a875b096aed24ad888aa39c121a270000801ba0bee2b113e0a82d9ee7724a54b4baba34a39cdae253a520d2b879399fcc517156a04695a8ac31fc6cfbb4240d4e5c2d2a85cf8b4826eea831347f5ca2041b59ecab",
      "networkId": 0,
      "chainId": 0
    }
  ]
}