{
  "hash": "0x51512783b9a1924a9a06c095e3c4f32411ec692cbff595e8cb24b3d8e293c3b1",
  "parentHash": "0xe037ad06f5a12ea2c0a93057f131f3b3cdcc3f93ecdc1d602a6ee6a2cd2dcb6c",
  "number": 78813,
  "timestamp": 1439459890,
  "nonce": "0x9a3956db060113e9",
  "difficulty": 2285284341717,
  "gasLimit": {
    "_hex": "0x2fefd8"
  },
  "gasUsed": {
    "_hex": "0x5d9f"
  },
  "miner": "0x123843545FB525C8E134c9A5F15ADA6865cc3848",
  "extraData": "0x476574682f76312e302e312f77696e646f77732f676f312e342e32",
  "transactions": [
    {
      "hash": "0x7910bdff7b7f6b79c769e778eaf1cee1cb458afac81de89a1cb63c0012a0b91f",
      "blockHash": "0x51512783b9a1924a9a06c095e3c4f32411ec692cbff595e8cb24b3d8e293c3b1",
      "blockNumber": 78813,
      "transactionIndex": 0,
      "confirmations": null,
      "from": "0x4B11852B35058CBFB5a50c5a007b0c134927Fd8b",
      "gasPrice": {
        "_hex": "0xd5c1f6a6c"
      },
      "gasLimit": {
        "_hex": "0x15f90"
      },
      "to": "0x1C523996Cb7Cb5b0a4A48d8097E45093626b23F0",
      "value": {
        "_hex": "0x10"
      },
      "nonce": 0,
      "data": "0xb214faa544464a5254555951450000000000000000000000000000000000000000000000",
      "r": "0xbea5502e56b523f7488bc1a0b8ef8385b0ddae9346b5e95e7aafa48a77d95ba1",
      "s": "0x2b31e09d25c4c561f87a9a7eb3b74dd9d2aaed2a53e918283778c6cce82e9189",
      "v": 27,
      "creates": null,
      "raw": "0xf88980850d5c1f6a6c83015f90941c523996cb7cb5b0a4a48d8097e45093626b23f010a4b214faa544464a52545559514500000000000000000000000000000000000000000000001ba0bea5502e56b523f7488bc1a0b8ef8385b0ddae9346b5e95e7aafa48a77d95ba1a02b31e09d25c4c561f87a9a7eb3b74dd9d2aaed2a53e918283778c6cce82e9189",
      "networkId": 0,
      "chainId": 0
    }
  ]
}