{
  "hash": "0x0278b42a2c5efbdb93cfbcd7b46a8d390803f7f8cacce01ff05a8a4614c09d09",
  "parentHash": "0x19e6d7008a7fb3875d038863ced6f5d640989c2d3f804d5f690c9148dc6140d1",
  "number": 92023,
  "timestamp": 1439665506,
  "nonce": "0xe46eb26160918a4a",
  "difficulty": 3475763513099,
  "gasLimit": {
    "_hex": "0x2fefd8"
  },
  "gasUsed": {
    "_hex": "0xf87c"
  },
  "miner": "0xe6A7a1d47ff21B6321162AEA7C6CB457D5476Bca",
  "extraData": "0x476574682f76312e302e312d38326566323666362f6c696e75782f676f312e34",
  "transactions": [
    {
      "hash": "0xe23ad16a1ee74f5b270eaa3baeeceb173bf1e06ba863eda500833bc081d1b661",
      "blockHash": "0x0278b42a2c5efbdb93cfbcd7b46a8d390803f7f8cacce01ff05a8a4614c09d09",
      "blockNumber": 92023,
      "transactionIndex": 0,
      "confirmations": null,
      "from": "0x53fcD9815d5671Bb4Ee099402289d08f6AA64c6C",
      "gasPrice": {
        "_hex": "0xd6b187d36"
      },
      "gasLimit": {
        "_hex": "0x55f0"
      },
      "to": "0x2910543Af39abA0Cd09dBb2D50200b3E800A63D2",
      "value": {
        "_hex": "0x3782dace9d900000"
      },
      "nonce": 0,
      "data": "0x454e56305854464e52",
      "r": "0x5ce14dfc31b4a6aef5bdca773e07485c6b247c09b03714b786f642770ba6cf02",
      "s": "0x5638ce82c805a663705ec342943e25ab7e0a99e7f9afed4f1b28a46de3bde6d7",
      "v": 27,
      "creates": null,
      "raw": "0xf87580850d6b187d368255f0942910543af39aba0cd09dbb2d50200b3e800a63d2883782dace9d90000089454e56305854464e521ba05ce14dfc31b4a6aef5bdca773e07485c6b247c09b03714b786f642770ba6cf02a05638ce82c805a663705ec342943e25ab7e0a99e7f9afed4f1b28a46de3bde6d7",
      "networkId": 0,
      "chainId": 0
    },
    {
      "hash": "0x199170a99b547de242ecfbe827de5375119ac03bfba4d173b7a9f6c9efaa9511",
      "blockHash": "0x0278b42a2c5efbdb93cfbcd7b46a8d390803f7f8cacce01ff05a8a4614c09d09",
      "blockNumber": 92023,
      "transactionIndex": 1,
      "confirmations": null,
      "from": "0xCbbdAd70d0ff27254925AD37B5C135EEe1116615",
      "gasPrice": {
        "_hex": "0xd0d783104"
      },
      "gasLimit": {
        "_hex": "0x15f90"
      },
      "to": "0x886e83d9133F65B9c27A946f699E88e71A888E4C",
      "value": {
        "_hex": "0x16345785d8a0000"
      },
      "nonce": 1,
      "data": "0x",
      "r": "0xa329030068190929f5ec8c9fd8f2e737e2df12a090e9d9918ebe9d8452f689d5",
      "s": "0x36db47d602294a7326a2671d487a6d0f4b2f58ad088e54b14dcf82a564b9f3e4",
      "v": 28,
      "creates": null,
      "raw": "0xf86d01850d0d78310483015f9094886e83d9133f65b9c27a946f699e88e71a888e4c88016345785d8a0000801ca0a329030068190929f5ec8c9fd8f2e737e2df12a090e9d9918ebe9d8452f689d5a036db47d602294a7326a2671d487a6d0f4b2f58ad088e54b14dcf82a564b9f3e4",
      "networkId": 0,
      "chainId": 0
    },
    {
      "hash": "0xf6d9698fb9f275cdcb7ef126880cbecc9658409e9931b6528a5ed94e557c28c4",
      "blockHash": "0x0278b42a2c5efbdb93cfbcd7b46a8d390803f7f8cacce01ff05a8a4614c09d09",
      "blockNumber": 92023,
      "transactionIndex": 2,
      "confirmations": null,
      "from": "0xE89dA96e06beAF6bD880B378f0680c43FD2e9D30",
      "gasPrice": {
        "_hex": "0xba43b7400"
      },
      "gasLimit": {
        "_hex": "0x985f6"
      },
      "to": "0x2FDfeedE63884ABE4F6A3D9476DF6091e0B27934",
      "value": {
        "_hex": "0x56bc75e2d63100000"
      },
      "nonce": 4,
      "data": "0x",
      "r": "0xbc0fa6472937b38f6993f8db99afdfc89a6784430c5cb70c43a885adefbff563",
      "s": "0x46c511d08e701d6e2ac2b9734a6a6236ad71bfcea87427e84149f8aecd785efa",
      "v": 27,
      "creates": null,
      "raw": "0xf86e04850ba43b7400830985f6942fdfeede63884abe4f6a3d9476df6091e0b2793489056bc75e2d63100000801ba0bc0fa6472937b38f6993f8db99afdfc89a6784430c5cb70c43a885adefbff563a046c511d08e701d6e2ac2b9734a6a6236ad71bfcea87427e84149f8aecd785efa",
      "networkId": 0,
      "chainId": 0
    }
  ]
}