{
  "hash": "0xcfd13b712213e7538a567e08d35e55a2be6f03e2da32a30bf5dd75725fc681fb",
  "parentHash": "0x2920b15992d0c6a57b6c89326874132cd8f5136c72be6970064586160b6d9149",
  "number": 80564,
  "timestamp": 1439487339,
  "nonce": "0x091e64741e6b2d5b",
  "difficulty": 2419136432134,
  "gasLimit": {
    "_hex": "0x2fefd8"
  },
  "gasUsed": {
    "_hex": "0x1e533"
  },
  "miner": "0xbb7B8287f3F0a933474a79eAe42CBCa977791171",
  "extraData": "0x476574682f4c5649562f76312e302e312f6c696e75782f676f312e342e32",
  "transactions": [
    {
      "hash": "0x0c76fb7bdf545aeb86990442861abed76d49aef5116feeb5a5398009fb5dee74",
      "blockHash": "0xcfd13b712213e7538a567e08d35e55a2be6f03e2da32a30bf5dd75725fc681fb",
      "blockNumber": 80564,
      "transactionIndex": 0,
      "confirmations": null,
      "from": "0x87C5B5874A18B4306DF8a752a6C8cc3E82daFc19",
      "gasPrice": {
        "_hex": "0x118e06c2714"
      },
      "gasLimit": {
        "_hex": "0x493e0"
      },
      "to": "0xC4c51de1AbF5D60DBd329eC0F999Fd8f021ae9fC",
      "value": {
        "_hex": "0x0"
      },
      "nonce": 246,
      "data": "0xbd66528a6b6b6b0000000000000000000000000000000000000000000000000000000000",
      "r": "0x84f4b9d594b283a96ea65d3b785f6e5ad716a0894fb2cdb6c2279151b502a730",
      "s": "0x69642bdd3d473b7b62d561c76eca4a17b43195a749c0ddcdbb958c65034c4dcb",
      "v": 28,
      "creates": null,
      "raw": "0xf88b81f6860118e06c2714830493e094c4c51de1abf5d60dbd329ec0f999fd8f021ae9fc80a4bd66528a6b6b6b00000000000000000000000000000000000000000000000000000000001ca084f4b9d594b283a96ea65d3b785f6e5ad716a0894fb2cdb6c2279151b502a730a069642bdd3d473b7b62d561c76eca4a17b43195a749c0ddcdbb958c65034c4dcb",
      "networkId": 0,
      "chainId": 0
    },
    {
      "hash": "0x4449c041299079e259998caa8c99b320ec4b78045a26350f2f665ceebdbd93fe",
      "blockHash": "0xcfd13b712213e7538a567e08d35e55a2be6f03e2da32a30bf5dd75725fc681fb",
      "blockNumber": 80564,
      "transactionIndex": 1,
      "confirmations": null,
      "from": "0x55bAf64fc9eAccFFd7Cc643BB61142E1C6ac093e",
      "gasPrice": {
        "_hex": "0xd0fd68139"
      },
      "gasLimit": {
        "_hex": "0x55f0"
      },
      "to": "0xfE439e496730A23d448f85fA219972ea04793aB7",
      "value": {
        "_hex": "0x15cadee61cdb080000"
      },
      "nonce": 5,
      "data": "0x",
      "r": "0x98bcb585e07de81c9e1b04bbeb155e5f5af6323667e4a9ffb8a8267dd0c94a2e",
      "s": "0x0a4eca0bee0f3c25d1646e6f7a658f80ce4509fc645bf3a4efe6caeff951c851",
      "v": 27,
      "creates": null,
      "raw": "0xf86d05850d0fd681398255f094fe439e496730a23d448f85fa219972ea04793ab78915cadee61cdb080000801ba098bcb585e07de81c9e1b04bbeb155e5f5af6323667e4a9ffb8a8267dd0c94a2ea00a4eca0bee0f3c25d1646e6f7a658f80ce4509fc645bf3a4efe6caeff951c851",
      "networkId": 0,
      "chainId": 0
    },
    {
      "hash": "0x859e74f370a8639b2bd0abc0d29c8cd50da43207160daae02d763abfdcf15af9",
      "blockHash": "0xcfd13b712213e7538a567e08d35e55a2be6f03e2da32a30bf5dd75725fc681fb",
      "blockNumber": 80564,
      "transactionIndex": 2,
      "confirmations": null,
      "from": "0x008FC7CBAdFFbD0D7fe44F8DFD60a79d721a1c9C",
      "gasPrice": {
        "_hex": "0xce8c0ebeb"
      },
      "gasLimit": {
        "_hex": "0x15f90"
      },
      "to": "0x5d6f0e293786F1ec9fEEc3851c03951Dc8c6112a",
      "value": {
        "_hex": "0x0"
      },
      "nonce": 53,
      "data": "0x237297a4",
      "r": "0x7b5ab05f2e2fc0b01f114fb640e7c9f2cc9bd4012e81ad72d8169abc08753ed4",
      "s": "0x4b2d35a8ec3fceab36701206ed7673cd72d4e58bf2cb50906337cbf71ef3e84c",
      "v": 28,
      "creates": null,
      "raw": "0xf86935850ce8c0ebeb83015f90945d6f0e293786f1ec9feec3851c03951dc8c6112a8084237297a41ca07b5ab05f2e2fc0b01f114fb640e7c9f2cc9bd4012e81ad72d8169abc08753ed4a04b2d35a8ec3fceab36701206ed7673cd72d4e58bf2cb50906337cbf71ef3e84c",
      "networkId": 0,
      "chainId": 0
    }
  ]
}