{
  "hash": "0xe4805805a778347048822cc568547f9c1e3992fe816711cf7100677febfb9451",
  "parentHash": "0xd02e0fd475f8a20bf982d3feef20d3568e9f3e9265aaba3d7b7300cb08c181f7",
  "number": 101274,
  "timestamp": 1439820309,
  "nonce": "0x4ab109116eaed55c",
  "difficulty": 3822492816216,
  "gasLimit": {
    "_hex": "0x2fefd8"
  },
  "gasUsed": {
    "_hex": "0xa410"
  },
  "miner": "0xf927a40C8B7F6E07c5af7FA2155B4864a4112B13",
  "extraData": "0x",
  "transactions": [
    {
      "hash": "0xecd3bb10c975a4f52c79564d48b3521aa6c190db99fd039c4c21c5aa7b74211c",
      "blockHash": "0xe4805805a778347048822cc568547f9c1e3992fe816711cf7100677febfb9451",
      "blockNumber": 101274,
      "transactionIndex": 0,
      "confirmations": null,
      "from": "0x95B8Be50517B180F2F101f1cFe0E4C66Ad6fa7dd",
      "gasPrice": {
        "_hex": "0xdb7d43623"
      },
      "gasLimit": {
        "_hex": "0x7530"
      },
      "to": "0xbCab99c9250A69cCD7395f2543ed52FF1e220398",
      "value": {
        "_hex": "0xde0b6b3a7640000"
      },
      "nonce": 2,
      "data": "0x",
      "r": "0xbdd5ca60142d5887c5590dbe2b041c4d8baa3819eb271eccb343897e7f8bd742",
      "s": "0x2f03a9a16c2df63e278ad4e4cb9d27fa27dc900fb35c1ca81318d16fc894823b",
      "v": 27,
      "creates": null,
      "raw": "0xf86c02850db7d4362382753094bcab99c9250a69ccd7395f2543ed52ff1e220398880de0b6b3a7640000801ba0bdd5ca60142d5887c5590dbe2b041c4d8baa3819eb271eccb343897e7f8bd742a02f03a9a16c2df63e278ad4e4cb9d27fa27dc900fb35c1ca81318d16fc894823b",
      "networkId": 0,
      "chainId": 0
    },
    {
      "hash": "0x1ea7226c55261ff7a79a839595fad3fe7b4b789d2113ea1ac24e4f9a26aa641d",
      "blockHash": "0xe4805805a778347048822cc568547f9c1e3992fe816711cf7100677febfb9451",
      "blockNumber": 101274,
      "transactionIndex": 1,
      "confirmations": null,
      "from": "0xC47Aaa860008be6f65B58c6C6E02a84e666EfE31",
      "gasPrice": {
        "_hex": "0xd23a89672"
      },
      "gasLimit": {
        "_hex": "0x15f90"
      },
      "to": "0x0fE84fde8E193116965DeC7CBDadA0E886536650",
      "value": {
        "_hex": "0x45600403a02d7eb2"
      },
      "nonce": 40,
      "data": "0x",
      "r": "0xa9d02feab28f0ec7649e33c011ac9ca7a75779327c7ca8a15f705bc9c977a56e",
      "s": "0x220fffe6f1bdd1d9bc21b0cbf82380cfaa8d47bd864e78caacb96c9517a657ff",
      "v": 27,
      "creates": null,
      "raw": "0xf86d28850d23a8967283015f90940fe84fde8e193116965dec7cbdada0e8865366508845600403a02d7eb2801ba0a9d02feab28f0ec7649e33c011ac9ca7a75779327c7ca8a15f705bc9c977a56ea0220fffe6f1bdd1d9bc21b0cbf82380cfaa8d47bd864e78caacb96c9517a657ff",
      "networkId": 0,
      "chainId": 0
    }
  ]
}