{
  "hash": "0x25ffcdb88e1e6cff124cd8ee24c3266afa15502e31b0a0f1887191d51b066426",
  "parentHash": "0xc9e851c72cee4d9590be5d5509a19b2ef7842a261a1272149fae2c8f29e0e15b",
  "number": 76766,
  "timestamp": 1439425790,
  "nonce": "0xd2797b26d18b2af4",
  "difficulty": 2240535598171,
  "gasLimit": {
    "_hex": "0x2fefd8"
  },
  "gasUsed": {
    "_hex": "0x70f3"
  },
  "miner": "0x93641e54c9aA6F9038FE7Adb03629a1747326Cd6",
  "extraData": "0x476574682f76312e302e312f77696e646f77732f676f312e342e32",
  "transactions": [
    {
      "hash": "0x9037ba0e51d177e10f20204ef5f4e1f48c7132af557d1c5bb5575a0ed639b9bc",
      "blockHash": "0x25ffcdb88e1e6cff124cd8ee24c3266afa15502e31b0a0f1887191d51b066426",
      "blockNumber": 76766,
      "transactionIndex": 0,
      "confirmations": null,
      "from": "0x8Be84A3adfBc51c59023B2413766E229108c35DE",
      "gasPrice": {
        "_hex": "0xd2263b957"
      },
      "gasLimit": {
        "_hex": "0x493e0"
      },
      "to": "0xD79B4C6791784184e2755B2fC1659eaaB0f80456",
      "value": {
        "_hex": "0x0"
      },
      "nonce": 14,
      "data": "0xbd66528a73302e3135383531313732313735323031303336000000000000000000000000",
      "r": "0xf2862b49585a2f7e0b5a852fe7fa5f69fc132988ea1efd7c1dc45d1b23963fbf",
      "s": "0x7c358e09bf5be94790a31794ec368ece74c9c6abdfc06086237066a33d9617b3",
      "v": 27,
      "creates": null,
      "raw": "0xf8890e850d2263b957830493e094d79b4c6791784184e2755b2fc1659eaab0f8045680a4bd66528a73302e31353835313137323137353230313033360000000000000000000000001ba0f2862b49585a2f7e0b5a852fe7fa5f69fc132988ea1efd7c1dc45d1b23963fbfa07c358e09bf5be94790a31794ec368ece74c9c6abdfc06086237066a33d9617b3",
      "networkId": 0,
      "chainId": 0
    }
  ]
}