{
  "hash": "0x988690ec5e92e03f54df8d0ffe3c3ea01b1df58d6828914dcf848c0b0a9d833d",
  "parentHash": "0x66f29ad641ccc0e1e270d3d91124078988e418e43618cf3e8f203900974c0fc7",
  "number": 67022,
  "timestamp": 1439264481,
  "nonce": "0x6b9ed573821ea5ee",
  "difficulty": 1937487697398,
  "gasLimit": {
    "_hex": "0x2fefd5"
  },
  "gasUsed": {
    "_hex": "0x5208"
  },
  "miner": "0xA21Ba94e45f0E168dA824fC67aC9cb5Cb577a8aF",
  "extraData": "0x",
  "transactions": [
    {
      "hash": "0x6938b1cb941ac8b08507c4b4a6fa7a5747331caf9503e2af76fcaeff34537756",
      "blockHash": "0x988690ec5e92e03f54df8d0ffe3c3ea01b1df58d6828914dcf848c0b0a9d833d",
      "blockNumber": 67022,
      "transactionIndex": 0,
      "confirmations": null,
      "from": "0x8F68fbE2DCFf038C24F650C9e05Ee478038171cd",
      "gasPrice": {
        "_hex": "0xd3362652c"
      },
      "gasLimit": {
        "_hex": "0x55f0"
      },
      "to": "0x7ff5aaFA9Ca3736556e769841867543C6d9aeBEd",
      "value": {
        "_hex": "0xde0b6b3a7640000"
      },
      "nonce": 4,
      "data": "0x",
      "r": "0xca46b152a87d314d51ee37b5ede0d361a4a00914cb17d594fd27ee691aa366ed",
      "s": "0x0be63f87443cc732d3c5afa22f6b853a50628c8bdca28903748988e58a6b8400",
      "v": 28,
      "creates": null,
      "raw": "0xf86c04850d3362652c8255f0947ff5aafa9ca3736556e769841867543c6d9aebed880de0b6b3a7640000801ca0ca46b152a87d314d51ee37b5ede0d361a4a00914cb17d594fd27ee691aa366eda00be63f87443cc732d3c5afa22f6b853a50628c8bdca28903748988e58a6b8400",
      "networkId": 0,
      "chainId": 0
    }
  ]
}