{
  "hash": "0x3ddfdd339e22a6daf9dc415fa1ec133b587cfd911ad01b8a6df7dfc6a5b9abe9",
  "parentHash": "0x599a4ff97e0865c78d59e530f984adcea6d8571b8ec0a788cde7c4e49c5877ea",
  "number": 119564,
  "timestamp": 1440145142,
  "nonce": "0x705dd520430f638b",
  "difficulty": 4385794914938,
  "gasLimit": {
    "_hex": "0x2fefd8"
  },
  "gasUsed": {
    "_hex": "0xa410"
  },
  "miner": "0xe6A7a1d47ff21B6321162AEA7C6CB457D5476Bca",
  "extraData": "0xd783010002844765746887676f312e342e32856c696e7578",
  "transactions": [
    {
      "hash": "0xbd3652693bc11bf8aee8876a0fe3b2d0a09c74981f39f26eab2af4cc40371145",
      "blockHash": "0x3ddfdd339e22a6daf9dc415fa1ec133b587cfd911ad01b8a6df7dfc6a5b9abe9",
      "blockNumber": 119564,
      "transactionIndex": 0,
      "confirmations": null,
      "from": "0x608f4b86321a68453f9adf6F06F7Fc3E621739ad",
      "gasPrice": {
        "_hex": "0xba43b7400"
      },
      "gasLimit": {
        "_hex": "0x5208"
      },
      "to": "0x32Be343B94f860124dC4fEe278FDCBD38C102D88",
      "value": {
        "_hex": "0x8ac7230489e80000"
      },
      "nonce": 37,
      "data": "0x",
      "r": "0xf8486bbb886781bfb204047675fa23e9c34119bdacb04b4e7a8f45876b95d7dd",
      "s": "0x46daf5f3ec41c88edf5d151b3c4a5a2046dccf3e523d6313abb7f975905a93fc",
      "v": 27,
      "creates": null,
      "raw": "0xf86c25850ba43b74008252089432be343b94f860124dc4fee278fdcbd38c102d88888ac7230489e80000801ba0f8486bbb886781bfb204047675fa23e9c34119bdacb04b4e7a8f45876b95d7dda046daf5f3ec41c88edf5d151b3c4a5a2046dccf3e523d6313abb7f975905a93fc",
      "networkId": 0,
      "chainId": 0
    },
    {
      "hash": "0xe44cde42f07552e8ad1a92267f5b0a031c15636161da674059e04c10fa00db2e",
      "blockHash": "0x3ddfdd339e22a6daf9dc415fa1ec133b587cfd911ad01b8a6df7dfc6a5b9abe9",
      "blockNumber": 119564,
      "transactionIndex": 1,
      "confirmations": null,
      "from": "0x2533B90f7afF15196EaA7e4719E057c85dEF3A47",
      "gasPrice": {
        "_hex": "0xba43b7400"
      },
      "gasLimit": {
        "_hex": "0x5208"
      },
      "to": "0x32Be343B94f860124dC4fEe278FDCBD38C102D88",
      "value": {
        "_hex": "0x15f8a8030866000"
      },
      "nonce": 7,
      "data": "0x",
      "r": "0xbc59347f1baedb7b39691a426ffa71cfd8779642ebd905c9ef4ca428121fed5c",
      "s": "0x117aa5a29e3bc1f00d40a2a7176bd7e3350c0f5ecabf97f3975dda987e8cf735",
      "v": 28,
      "creates": null,
      "raw": "0xf86c07850ba43b74008252089432be343b94f860124dc4fee278fdcbd38c102d8888015f8a8030866000801ca0bc59347f1baedb7b39691a426ffa71cfd8779642ebd905c9ef4ca428121fed5ca0117aa5a29e3bc1f00d40a2a7176bd7e3350c0f5ecabf97f3975dda987e8cf735",
      "networkId": 0,
      "chainId": 0
    }
  ]
}