{
  "hash": "0xf59787dece36f113e82ced3545b12c4cbb8fbeb29a0ce938235173cf1929b2cb",
  "parentHash": "0x5480c5e940c1b6e39dce2a0ca9540e5b5f5a2c3a070cfc540e72dd3728ba0f4e",
  "number": 117668,
  "timestamp": 1440113270,
  "nonce": "0xa37076ba6086ad02",
  "difficulty": 4352648063421,
  "gasLimit": {
    "_hex": "0x2fefd8"
  },
  "gasUsed": {
    "_hex": "0x5208"
  },
  "miner": "0xe6A7a1d47ff21B6321162AEA7C6CB457D5476Bca",
  "extraData": "0xd783010002844765746887676f312e342e32856c696e7578",
  "transactions": [
    {
      "hash": "0x472ac414c6e97aa1f33a07a23e43a40395305985958d680fc34a72de9862cdc9",
      "blockHash": "0xf59787dece36f113e82ced3545b12c4cbb8fbeb29a0ce938235173cf1929b2cb",
      "blockNumber": 117668,
      "transactionIndex": 0,
      "confirmations": null,
      "from": "0x795c74a013aA756356187119AE89573C59c63Cb4",
      "gasPrice": {
        "_hex": "0xd14f54335"
      },
      "gasLimit": {
        "_hex": "0x15f90"
      },
      "to": "0x4B90FFe8300405fcca6E1Fddb19e895133DD25b3",
      "value": {
        "_hex": "0x1"
      },
      "nonce": 2,
      "data": "0x",
      "r": "0x872fc4d67733902487bb1f116aa411ba652bc7df9547e63535055b03277719ef",
      "s": "0x3bee5b6562e35df114538f382e2940dc13fd2e79343c240e326e64e8ef32a05c",
      "v": 27,
      "creates": null,
      "raw": "0xf86502850d14f5433583015f90944b90ffe8300405fcca6e1fddb19e895133dd25b301801ba0872fc4d67733902487bb1f116aa411ba652bc7df9547e63535055b03277719efa03bee5b6562e35df114538f382e2940dc13fd2e79343c240e326e64e8ef32a05c",
      "networkId": 0,
      "chainId": 0
    }
  ]
}