{
  "hash": "0xa148f694a1afffa15695a4bca59446b36dd5aefb1008aaa8d3f11bec179597ae",
  "parentHash": "0xe06e03345b281c3ff6f2416259f1269877b7b7b1564b1dd04a147e92884039b0",
  "number": 74312,
  "timestamp": 1439384090,
  "nonce": "0xe5577952dda38b41",
  "difficulty": 2212918361020,
  "gasLimit": {
    "_hex": "0x2fefd8"
  },
  "gasUsed": {
    "_hex": "0x5208"
  },
  "miner": "0xe6A7a1d47ff21B6321162AEA7C6CB457D5476Bca",
  "extraData": "0x476574682f76312e302e312d38326566323666362f6c696e75782f676f312e34",
  "transactions": [
    {
      "hash": "0xca4cd0e69d6e24f9994215df42a4a8751688b03858661f0410a2b0829e6a3fdc",
      "blockHash": "0xa148f694a1afffa15695a4bca59446b36dd5aefb1008aaa8d3f11bec179597ae",
      "blockNumber": 74312,
      "transactionIndex": 0,
      "confirmations": null,
      "from": "0xA8471786fF71d0F894e60Ab9e3217a7E842c7b38",
      "gasPrice": {
        "_hex": "0xcd01555c5"
      },
      "gasLimit": {
        "_hex": "0x15f90"
      },
      "to": "0x8bad691D78D1023D8d5e31219D9BD792EbD7764c",
      "value": {
        "_hex": "0xb1a2bc2ec50000"
      },
      "nonce": 1,
      "data": "0x",
      "r": "0x7e9ddd3df026357859914db8fa96e622ae76b2c734658becb77785448d87c744",
      "s": "0x6498e7189b60fa03b8439edb6e111ee1d21efa36dbd1c3e6a53f548888382f0f",
      "v": 27,
      "creates": null,
      "raw": "0xf86c01850cd01555c583015f90948bad691d78d1023d8d5e31219d9bd792ebd7764c87b1a2bc2ec50000801ba07e9ddd3df026357859914db8fa96e622ae76b2c734658becb77785448d87c744a06498e7189b60fa03b8439edb6e111ee1d21efa36dbd1c3e6a53f548888382f0f",
      "networkId": 0,
      "chainId": 0
    }
  ]
}