{
  "hash": "0x89fdf6729c24385a20118661bc1204c89a337efe3dc1184b63e255016d00299b",
  "parentHash": "0x681704924f4aa6e38c77bc3540fec33d6e2173f4efdd19cb6aa1b351d7cd72ac",
  "number": 68624,
  "timestamp": 1439290940,
  "nonce": "0x1819ab9760e0af63",
  "difficulty": 2022167412340,
  "gasLimit": {
    "_hex": "0x2fefd8"
  },
  "gasUsed": {
    "_hex": "0x53b61"
  },
  "miner": "0xbb7B8287f3F0a933474a79eAe42CBCa977791171",
  "extraData": "0x476574682f4c5649562f76312e302e312f6c696e75782f676f312e342e32",
  "transactions": [
    {
      "hash": "0xaba538c6b4d21ed24ad069d64019c634a039e3e2d8da92b753bb725e916c58e1",
      "blockHash": "0x89fdf6729c24385a20118661bc1204c89a337efe3dc1184b63e255016d00299b",
      "blockNumber": 68624,
      "transactionIndex": 0,
      "confirmations": null,
      "from": "0x976349705b839e2F5719387Fb27D2519d519da03",
      "gasPrice": {
        "_hex": "0xdcb28da93"
      },
      "gasLimit": {
        "_hex": "0x15f90"
      },
      "to": "0x125B606C67E8066Da65069652b656c19717745Fa",
      "value": {
        "_hex": "0x169bbf7db366c5"
      },
      "nonce": 20,
      "data": "0xa55526db",
      "r": "0xc4684eaeb03e7382b9b836ea99dda43b5fdcfd81966534a6465ad39524cf44a0",
      "s": "0x08f80963f271e9509d60e036cc9c89dacd1e07e6ee29a8acb0c616a9d266107b",
      "v": 27,
      "creates": null,
      "raw": "0xf87014850dcb28da9383015f9094125b606c67e8066da65069652b656c19717745fa87169bbf7db366c584a55526db1ba0c4684eaeb03e7382b9b836ea99dda43b5fdcfd81966534a6465ad39524cf44a0a008f80963f271e9509d60e036cc9c89dacd1e07e6ee29a8acb0c616a9d266107b",
      "networkId": 0,
      "chainId": 0
    },
    {
      "hash": "0x5d248fde391ff30c4d4ccdd13822955d2e40e4c9c70c5fbced59114d694c5440",
      "blockHash": "0x89fdf6729c24385a20118661bc1204c89a337efe3dc1184b63e255016d00299b",
      "blockNumber": 68624,
      "transactionIndex": 1,
      "confirmations": null,
      "from": "0xe1E33a09B7A94918242F5c829104CbCed8BEA573",
      "gasPrice": {
        "_hex": "0xba43b7400"
      },
      "gasLimit": {
        "_hex": "0x5208"
      },
      "to": "0x04452CFf438E32994b551d0e1DF8434824FD2bD7",
      "value": {
        "_hex": "0x14c95414f131000"
      },
      "nonce": 1,
      "data": "0x",
      "r": "0xbb8537cd02c1de238e513af52a948fbf7ff067158c99ee6cd96ca2d5f2e4a805",
      "s": "0x53a80901f2a25f1baff494afc4c611cc05cca6d7a03d2787878d8593e3e82612",
      "v": 28,
      "creates": null,
      "raw": "0xf86c01850ba43b74008252089404452cff438e32994b551d0e1df8434824fd2bd788014c95414f131000801ca0bb8537cd02c1de238e513af52a948fbf7ff067158c99ee6cd96ca2d5f2e4a805a053a80901f2a25f1baff494afc4c611cc05cca6d7a03d2787878d8593e3e82612",
      "networkId": 0,
      "chainId": 0
    },
    {
      "hash": "0x0f08c8c2bfdb39fb7c3e3fc76c4cd2547650edcbec9e6f723a7d141748a0aa47",
      "blockHash": "0x89fdf6729c24385a20118661bc1204c89a337efe3dc1184b63e255016d00299b",
      "blockNumber": 68624,
      "transactionIndex": 2,
      "confirmations": null,
      "from": "0x5f004b6aEEdDE9439D9bB578973f33470f7C1428",
      "gasPrice": {
        "_hex": "0xba43b7400"
      },
      "gasLimit": {
        "_hex": "0x5208"
      },
      "to": "0x4F8fe6d696611d86fD17F868d3949d98298D73Fa",
      "value": {
        "_hex": "0x14c95414f131000"
      },
      "nonce": 1,
      "data": "0x",
      "r": "0xecff200001fba131c9a88ad2f7d1bca2e5edb75d24c5dc9ec2dfba3fd45d7e5e",
      "s": "0x27ee344df4a9d04794278ee57f87b3e66f6b2951be9097f3eb6d293fd1afd6ec",
      "v": 27,
      "creates": null,
      "raw": "0xf86c01850ba43b7400825208944f8fe6d696611d86fd17f868d3949d98298d73fa88014c95414f131000801ba0ecff200001fba131c9a88ad2f7d1bca2e5edb75d24c5dc9ec2dfba3fd45d7e5ea027ee344df4a9d04794278ee57f87b3e66f6b2951be9097f3eb6d293fd1afd6ec",
      "networkId": 0,
      "chainId": 0
    },
    {
      "hash": "0x82213aa2423837c071ad75a9202494371068838f574f207cc1c505e1f32513d2",
      "blockHash": "0x89fdf6729c24385a20118661bc1204c89a337efe3dc1184b63e255016d00299b",
      "blockNumber": 68624,
      "transactionIndex": 3,
      "confirmations": null,
      "from": "0xe78d0e74E1C25FA15b588FE5EDd7737DCF23744c",
      "gasPrice": {
        "_hex": "0xba43b7400"
      },
      "gasLimit": {
        "_hex": "0x5208"
      },
      "to": "0xA95f4b6C49e02eD6cc7bB494Bf188BddA7249f12",
      "value": {
        "_hex": "0x14c95414f131000"
      },
      "nonce": 1,
      "data": "0x",
      "r": "0xac50777e74975a9530775df1eb8105f544e143075d14378771103df89e8f6aa5",
      "s": "0x11621a7e6617d0a34a33c2034ebeed89c60061f0318581b567ddc0f70440d982",
      "v": 28,
      "creates": null,
      "raw": "0xf86c01850ba43b740082520894a95f4b6c49e02ed6cc7bb494bf188bdda7249f1288014c95414f131000801ca0ac50777e74975a9530775df1eb8105f544e143075d14378771103df89e8f6aa5a011621a7e6617d0a34a33c2034ebeed89c60061f0318581b567ddc0f70440d982",
      "networkId": 0,
      "chainId": 0
    },
    {
      "hash": "0x60c8d0ef8687fc73c081a221c8337bb409b81e7099d378fea28e7cc0c4b82f68",
      "blockHash": "0x89fdf6729c24385a20118661bc1204c89a337efe3dc1184b63e255016d00299b",
      "blockNumber": 68624,
      "transactionIndex": 4,
      "confirmations": null,
      "from": "0x835D417794F96824eAdfF239227Ca51Ac4Cc522a",
      "gasPrice": {
        "_hex": "0xba43b7400"
      },
      "gasLimit": {
        "_hex": "0x5208"
      },
      "to": "0x835D8b88f120af229B01C47B708D0afa7225A18a",
      "value": {
        "_hex": "0x14c95414f131000"
      },
      "nonce": 1,
      "data": "0x",
      "r": "0xb6697af59b578df0ca513e9f92057ff42fc7ff0c17de15db04b7f68d4d6f6550",
      "s": "0x1baaba2c2d732c378c697bec313106fe2590a1c619d8ce36d3df853e283fafa3",
      "v": 28,
      "creates": null,
      "raw": "0xf86c01850ba43b740082520894835d8b88f120af229b01c47b708d0afa7225a18a88014c95414f131000801ca0b6697af59b578df0ca513e9f92057ff42fc7ff0c17de15db04b7f68d4d6f6550a01baaba2c2d732c378c697bec313106fe2590a1c619d8ce36d3df853e283fafa3",
      "networkId": 0,
      "chainId": 0
    },
    {
      "hash": "0xe1da3b520db14fbb1d50f8352c7b4f49a26e41e25afa58e1178b38591642e201",
      "blockHash": "0x89fdf6729c24385a20118661bc1204c89a337efe3dc1184b63e255016d00299b",
      "blockNumber": 68624,
      "transactionIndex": 5,
      "confirmations": null,
      "from": "0x983E5730158702B03143233b81BE3F3be4e62628",
      "gasPrice": {
        "_hex": "0xba43b7400"
      },
      "gasLimit": {
        "_hex": "0x5208"
      },
      "to": "0x5DA37cd0855f0be39Ee8157Ac42Ef60070218cb3",
      "value": {
        "_hex": "0x14c95414f131000"
      },
      "nonce": 1,
      "data": "0x",
      "r": "0x7678aabde5c3267fe44f330584ff898ed003ad4c3d52fbcfc09fbb68dc7550ad",
      "s": "0x14e9b8b35ef5a2ff4081274bf31b7dd3631f81e28952046380e47acb91e646d3",
      "v": 28,
      "creates": null,
      "raw": "0xf86c01850ba43b7400825208945da37cd0855f0be39ee8157ac42ef60070218cb388014c95414f131000801ca07678aabde5c3267fe44f330584ff898ed003ad4c3d52fbcfc09fbb68dc7550ada014e9b8b35ef5a2ff4081274bf31b7dd3631f81e28952046380e47acb91e646d3",
      "networkId": 0,
      "chainId": 0
    },
    {
      "hash": "0x13c2f10622378a1fe800024006a8c702267e85eb1b7ea5a2dfc4b43ecc58aa2e",
      "blockHash": "0x89fdf6729c24385a20118661bc1204c89a337efe3dc1184b63e255016d00299b",
      "blockNumber": 68624,
      "transactionIndex": 6,
      "confirmations": null,
      "from": "0x5CA90983a129C84043A02b17f479638192C2c5B9",
      "gasPrice": {
        "_hex": "0xba43b7400"
      },
      "gasLimit": {
        "_hex": "0x5208"
      },
      "to": "0x7e3c2Eb24B4e9a798be2286e8789dDEA28967D4b",
      "value": {
        "_hex": "0x14c95414f131000"
      },
      "nonce": 1,
      "data": "0x",
      "r": "0xd037c6edccc1a5e98288d5b37d32c8f951cf2a1b324bf8200802ec806a61496a",
      "s": "0x4f2b19108a7837b2cef3492fb61b91f0fd7c2354edeb85dfc26910c728cb2067",
      "v": 27,
      "creates": null,
      "raw": "0xf86c01850ba43b7400825208947e3c2eb24b4e9a798be2286e8789ddea28967d4b88014c95414f131000801ba0d037c6edccc1a5e98288d5b37d32c8f951cf2a1b324bf8200802ec806a61496aa04f2b19108a7837b2cef3492fb61b91f0fd7c2354edeb85dfc26910c728cb2067",
      "networkId": 0,
      "chainId": 0
    },
    {
      "hash": "0x674ae51493f0b1bbde0365f15839031097f3bb9f08cabd026029604a60bfa162",
      "blockHash": "0x89fdf6729c24385a20118661bc1204c89a337efe3dc1184b63e255016d00299b",
      "blockNumber": 68624,
      "transactionIndex": 7,
      "confirmations": null,
      "from": "0x677e465474F6189FE7F1D6A7B2e1aD2f50f96394",
      "gasPrice": {
        "_hex": "0xba43b7400"
      },
      "gasLimit": {
        "_hex": "0x5208"
      },
      "to": "0xA781304d89969A39a7b6F9770C9307561E323E8a",
      "value": {
        "_hex": "0x14c95414f131000"
      },
      "nonce": 1,
      "data": "0x",
      "r": "0xd7e23f728e83b9ce3104e99f5dbad38a97a92fcd6ddf48dbcf16737f1208e7ec",
      "s": "0x2d948f376ae44276f3157495968f208f8731f60838e712f6f9031f88b417a2d2",
      "v": 27,
      "creates": null,
      "raw": "0xf86c01850ba43b740082520894a781304d89969a39a7b6f9770c9307561e323e8a88014c95414f131000801ba0d7e23f728e83b9ce3104e99f5dbad38a97a92fcd6ddf48dbcf16737f1208e7eca02d948f376ae44276f3157495968f208f8731f60838e712f6f9031f88b417a2d2",
      "networkId": 0,
      "chainId": 0
    },
    {
      "hash": "0x452fc771a7865577844ecd9f4db443a72708dae028bd4989f45e1e97ad197440",
      "blockHash": "0x89fdf6729c24385a20118661bc1204c89a337efe3dc1184b63e255016d00299b",
      "blockNumber": 68624,
      "transactionIndex": 8,
      "confirmations": null,
      "from": "0xB92f012aEBaE32FB8aac968497722E66d63f2558",
      "gasPrice": {
        "_hex": "0xba43b7400"
      },
      "gasLimit": {
        "_hex": "0x5208"
      },
      "to": "0xDce5D410cd7D856aDc7033E79dB7dA12E3Ef814a",
      "value": {
        "_hex": "0x14c95414f131000"
      },
      "nonce": 1,
      "data": "0x",
      "r": "0xb67a370d2dd9d3a370bf1629aa8d765c1e4feac7e54c8d5151bb45c07b943f76",
      "s": "0x6341d94ec8a8759d899a043a1669794bc678b8bb4e74f488a303963b5c19b731",
      "v": 28,
      "creates": null,
      "raw": "0xf86c01850ba43b740082520894dce5d410cd7d856adc7033e79db7da12e3ef814a88014c95414f131000801ca0b67a370d2dd9d3a370bf1629aa8d765c1e4feac7e54c8d5151bb45c07b943f76a06341d94ec8a8759d899a043a1669794bc678b8bb4e74f488a303963b5c19b731",
      "networkId": 0,
      "chainId": 0
    },
    {
      "hash": "0xada5a1acbe099d2e62aa71c6f567e79589c6b9013c465e1b9298f2f6de0324ab",
      "blockHash": "0x89fdf6729c24385a20118661bc1204c89a337efe3dc1184b63e255016d00299b",
      "blockNumber": 68624,
      "transactionIndex": 9,
      "confirmations": null,
      "from": "0x6b6A3407FD51ec9664E7d094C648C793c6D7FF14",
      "gasPrice": {
        "_hex": "0xba43b7400"
      },
      "gasLimit": {
        "_hex": "0x5208"
      },
      "to": "0x7029A53aEc258129aD5dCb049f09101EEEf82651",
      "value": {
        "_hex": "0x14c95414f131000"
      },
      "nonce": 1,
      "data": "0x",
      "r": "0x29e57c491952d3dfbf5687a4ee3eac3a1536bdcca9441c954322f063195bfb7b",
      "s": "0x70bb11aaca6283f4c4f90340f5902ef9925ea5f6d99569c7d8b9bdbca706bac7",
      "v": 28,
      "creates": null,
      "raw": "0xf86c01850ba43b7400825208947029a53aec258129ad5dcb049f09101eeef8265188014c95414f131000801ca029e57c491952d3dfbf5687a4ee3eac3a1536bdcca9441c954322f063195bfb7ba070bb11aaca6283f4c4f90340f5902ef9925ea5f6d99569c7d8b9bdbca706bac7",
      "networkId": 0,
      "chainId": 0
    },
    {
      "hash": "0xf0efd19e1aa66f23ce93288ec15b8a49849468c4fdbcbf9bc6f7d8ad88c32432",
      "blockHash": "0x89fdf6729c24385a20118661bc1204c89a337efe3dc1184b63e255016d00299b",
      "blockNumber": 68624,
      "transactionIndex": 10,
      "confirmations": null,
      "from": "0x2295379cf724259A2d11F05EE0734fc52Ec996a1",
      "gasPrice": {
        "_hex": "0xba43b7400"
      },
      "gasLimit": {
        "_hex": "0x5208"
      },
      "to": "0xd502FD7463d800Fa50F019A0B24B4aDF1D5778fE",
      "value": {
        "_hex": "0x14c95414f131000"
      },
      "nonce": 1,
      "data": "0x",
      "r": "0xa8dfc975e8f428b50ccc685ed45a506547fe999d9525f6cc9168f2e1c16a4e7d",
      "s": "0x5da705bc9727776419ad16da73ca02d40b8fb4873c8b137482692d504d6d267b",
      "v": 28,
      "creates": null,
      "raw": "0xf86c01850ba43b740082520894d502fd7463d800fa50f019a0b24b4adf1d5778fe88014c95414f131000801ca0a8dfc975e8f428b50ccc685ed45a506547fe999d9525f6cc9168f2e1c16a4e7da05da705bc9727776419ad16da73ca02d40b8fb4873c8b137482692d504d6d267b",
      "networkId": 0,
      "chainId": 0
    },
    {
      "hash": "0xc7bbad422334b81f1aa01a1e01a00ef46c87f1f32c547a3d4b0f3d51ec425c22",
      "blockHash": "0x89fdf6729c24385a20118661bc1204c89a337efe3dc1184b63e255016d00299b",
      "blockNumber": 68624,
      "transactionIndex": 11,
      "confirmations": null,
      "from": "0xBAA7974F0A2876A6C269C2B2B4b4546c45E14386",
      "gasPrice": {
        "_hex": "0xba43b7400"
      },
      "gasLimit": {
        "_hex": "0x5208"
      },
      "to": "0x8a483A01606f4C6F74b66934941Ea4c9efA87a21",
      "value": {
        "_hex": "0x14c95414f131000"
      },
      "nonce": 1,
      "data": "0x",
      "r": "0x02156d09cac5473fbd065093c75bbcbee0464e928d882ed3894e36a08580081b",
      "s": "0x2bbcb858b00e690a62726aefd1e518d9446375a4912a0bff7c973fbccbabf974",
      "v": 27,
      "creates": null,
      "raw": "0xf86c01850ba43b7400825208948a483a01606f4c6f74b66934941ea4c9efa87a2188014c95414f131000801ba002156d09cac5473fbd065093c75bbcbee0464e928d882ed3894e36a08580081ba02bbcb858b00e690a62726aefd1e518d9446375a4912a0bff7c973fbccbabf974",
      "networkId": 0,
      "chainId": 0
    },
    {
      "hash": "0x493a97923700451b02e1f7b6a863d889ac6111811959faf077347385c095d991",
      "blockHash": "0x89fdf6729c24385a20118661bc1204c89a337efe3dc1184b63e255016d00299b",
      "blockNumber": 68624,
      "transactionIndex": 12,
      "confirmations": null,
      "from": "0xfe812c2F33C9F1c5DC96634B19d40E0bFeD62543",
      "gasPrice": {
        "_hex": "0xba43b7400"
      },
      "gasLimit": {
        "_hex": "0x5208"
      },
      "to": "0xA001dF463464b81EF303B244E25fcbCE459Ba042",
      "value": {
        "_hex": "0x14c95414f131000"
      },
      "nonce": 1,
      "data": "0x",
      "r": "0xf3580b62d59c09e5f75d91bda28171f80682692dc84a29aee7b2f44fac699821",
      "s": "0x1da97e4cbf458262585410fdf34cbb8f661f82a8d9338777697e42ffcc7fa269",
      "v": 28,
      "creates": null,
      "raw": "0xf86c01850ba43b740082520894a001df463464b81ef303b244e25fcbce459ba04288014c95414f131000801ca0f3580b62d59c09e5f75d91bda28171f80682692dc84a29aee7b2f44fac699821a01da97e4cbf458262585410fdf34cbb8f661f82a8d9338777697e42ffcc7fa269",
      "networkId": 0,
      "chainId": 0
    },
    {
      "hash": "0xa2cca0c695f14ae56806274afad87a2584da77422e6848ef666f239673d24125",
      "blockHash": "0x89fdf6729c24385a20118661bc1204c89a337efe3dc1184b63e255016d00299b",
      "blockNumber": 68624,
      "transactionIndex": 13,
      "confirmations": null,
      "from": "0xbcFE2F138aEd5E8106e82deE370A8A2BBD5cba92",
      "gasPrice": {
        "_hex": "0xba43b7400"
      },
      "gasLimit": {
        "_hex": "0x5208"
      },
      "to": "0x631028ff47e59BE70FD40C268Cd70a689387c0d4",
      "value": {
        "_hex": "0x14c95414f131000"
      },
      "nonce": 1,
      "data": "0x",
      "r": "0xe5f1be8143a37d7c77e18784d862a3fcb12608a60c0e6916a735b645126aece0",
      "s": "0x0eb60d10da46d5b5c71d31650608f652db2d719e5ec3f8d85194f45354c88e23",
      "v": 27,
      "creates": null,
      "raw": "0xf86c01850ba43b740082520894631028ff47e59be70fd40c268cd70a689387c0d488014c95414f131000801ba0e5f1be8143a37d7c77e18784d862a3fcb12608a60c0e6916a735b645126aece0a00eb60d10da46d5b5c71d31650608f652db2d719e5ec3f8d85194f45354c88e23",
      "networkId": 0,
      "chainId": 0
    },
    {
      "hash": "0x1b4eca638087d4b6964f3c6415d6c0d5542f1fdff845fb28355aaee91b7ce4da",
      "blockHash": "0x89fdf6729c24385a20118661bc1204c89a337efe3dc1184b63e255016d00299b",
      "blockNumber": 68624,
      "transactionIndex": 14,
      "confirmations": null,
      "from": "0xb57F7057cbFed7fe42Fa6B0F4495032BfCAB782B",
      "gasPrice": {
        "_hex": "0xba43b7400"
      },
      "gasLimit": {
        "_hex": "0x5208"
      },
      "to": "0xAb30a2e06438Cc77Da8Fa2f608d8B67e0A718490",
      "value": {
        "_hex": "0x14c95414f131000"
      },
      "nonce": 1,
      "data": "0x",
      "r": "0x5cb3dde161d5c7242aca26d366d3ad7f4b368c564fe2a23d8a31ac57d3506c93",
      "s": "0x2f3d64f650ec20e0c739676801dd859bdda680ac4597b518fef23b5318984fe7",
      "v": 28,
      "creates": null,
      "raw": "0xf86c01850ba43b740082520894ab30a2e06438cc77da8fa2f608d8b67e0a71849088014c95414f131000801ca05cb3dde161d5c7242aca26d366d3ad7f4b368c564fe2a23d8a31ac57d3506c93a02f3d64f650ec20e0c739676801dd859bdda680ac4597b518fef23b5318984fe7",
      "networkId": 0,
      "chainId": 0
    }
  ]
}