{
  "hash": "0x9ddde9f8a11d706080c3d5c74d834d73b2ceedd089c09f647c5092bad14855ce",
  "parentHash": "0x44ec8d924ed08788aebb0d6c8379fe5659c2da0e823421745e2da2cebbc0d621",
  "number": 112820,
  "timestamp": 1440013761,
  "nonce": "0x234ee066d1292a77",
  "difficulty": 4432396742711,
  "gasLimit": {
    "_hex": "0x2fefd8"
  },
  "gasUsed": {
    "_hex": "0xa410"
  },
  "miner": "0xe6A7a1d47ff21B6321162AEA7C6CB457D5476Bca",
  "extraData": "0x476574682f76312e302e312d38326566323666362f6c696e75782f676f312e34",
  "transactions": [
    {
      "hash": "0x2183b42ce1b9f7da302773472f296b9d6f6db55a25250f2ec587009a1c2f33dd",
      "blockHash": "0x9ddde9f8a11d706080c3d5c74d834d73b2ceedd089c09f647c5092bad14855ce",
      "blockNumber": 112820,
      "transactionIndex": 0,
      "confirmations": null,
      "from": "0x8AeAaA4f505396d24B783Ba68694b10b1a3f0BCE",
      "gasPrice": {
        "_hex": "0xcc5e0c30d"
      },
      "gasLimit": {
        "_hex": "0x5208"
      },
      "to": "0x32Be343B94f860124dC4fEe278FDCBD38C102D88",
      "value": {
        "_hex": "0x1204bd42df379b000"
      },
      "nonce": 1,
      "data": "0x",
      "r": "0xd42bedd3649fa4355136c11162dbbe2f36cb18807b846d6187c516de2f53b71b",
      "s": "0x3820bca47cb68ebfaec1307c182c076dcf5549fbe0905a877c8310ca3577b423",
      "v": 28,
      "creates": null,
      "raw": "0xf86d01850cc5e0c30d8252089432be343b94f860124dc4fee278fdcbd38c102d888901204bd42df379b000801ca0d42bedd3649fa4355136c11162dbbe2f36cb18807b846d6187c516de2f53b71ba03820bca47cb68ebfaec1307c182c076dcf5549fbe0905a877c8310ca3577b423",
      "networkId": 0,
      "chainId": 0
    },
    {
      "hash": "0x30b579aa55c26da27e24a1b9192ff789bd293707a209a67b8f58f0db3236ea11",
      "blockHash": "0x9ddde9f8a11d706080c3d5c74d834d73b2ceedd089c09f647c5092bad14855ce",
      "blockNumber": 112820,
      "transactionIndex": 1,
      "confirmations": null,
      "from": "0xcCA04dde313A912347DBE3b8f78E73Ab14B51CbE",
      "gasPrice": {
        "_hex": "0xcc5e0c30d"
      },
      "gasLimit": {
        "_hex": "0x5208"
      },
      "to": "0x32Be343B94f860124dC4fEe278FDCBD38C102D88",
      "value": {
        "_hex": "0xb927a6f91eab6000"
      },
      "nonce": 2,
      "data": "0x",
      "r": "0x3c6ac1197f5c7f3f68af3e2934f35647c2024238e5d18e7436b13bc862391c4a",
      "s": "0x2525f3ca68c1d5aa710dc9f82225ff7b287cbc21a481d4c968c2848ad00af905",
      "v": 27,
      "creates": null,
      "raw": "0xf86c02850cc5e0c30d8252089432be343b94f860124dc4fee278fdcbd38c102d8888b927a6f91eab6000801ba03c6ac1197f5c7f3f68af3e2934f35647c2024238e5d18e7436b13bc862391c4aa02525f3ca68c1d5aa710dc9f82225ff7b287cbc21a481d4c968c2848ad00af905",
      "networkId": 0,
      "chainId": 0
    }
  ]
}