{
  "hash": "0xb29055c8b732626fdb4c512557d36c526622db35b46b699e984221d3e653582b",
  "parentHash": "0xb06f6a83634bfdf87f2c21215287db85a298957933644de37c1abfdb5d375a5b",
  "number": 47571,
  "timestamp": 1438943010,
  "nonce": "0x367ea60694cb3410",
  "difficulty": 1446688650706,
  "gasLimit": {
    "_hex": "0xd185"
  },
  "gasUsed": {
    "_hex": "0x5208"
  },
  "miner": "0xB63A725D56AA79935ac2a1182Eba0004f22Be610",
  "extraData": "0x476574682f76312e302e312f6c696e75782f676f312e342e32",
  "transactions": [
    {
      "hash": "0x3c801b9ab9fd30664c3ef12a6a7cc928de2266c935cf55a6e0d9d6795b5a1a1a",
      "blockHash": "0xb29055c8b732626fdb4c512557d36c526622db35b46b699e984221d3e653582b",
      "blockNumber": 47571,
      "transactionIndex": 0,
      "confirmations": null,
      "from": "0x997E716b471Eb766bfD24C76F7F94f51D0Ff695c",
      "gasPrice": {
        "_hex": "0x103faccae0d"
      },
      "gasLimit": {
        "_hex": "0x5208"
      },
      "to": "0xeD17Ea8E9fd42159037deE95ea173a56c54f55ce",
      "value": {
        "_hex": "0x10e9deaaf401e0000"
      },
      "nonce": 0,
      "data": "0x",
      "r": "0x6718273fb0cca3c786326b8c222e3f41d57f58e033275035d1ca8bb3a404bdbc",
      "s": "0x141f9056797f8f234ef424441c4642f88fa98119365510624d0dda47fcd8c343",
      "v": 28,
      "creates": null,
      "raw": "0xf86e80860103faccae0d82520894ed17ea8e9fd42159037dee95ea173a56c54f55ce89010e9deaaf401e0000801ca06718273fb0cca3c786326b8c222e3f41d57f58e033275035d1ca8bb3a404bdbca0141f9056797f8f234ef424441c4642f88fa98119365510624d0dda47fcd8c343",
      "networkId": 0,
      "chainId": 0
    }
  ]
}