{
  "hash": "0x660cc186e2c5386fdecd98a65fd87ab132c5d64c181b7375323b90567a011fe8",
  "parentHash": "0x3ffbb968107fca6052ff609b6a8478ae9b915a88a3a8f406600aab793cf54d20",
  "number": 100014,
  "timestamp": 1439799353,
  "nonce": "0x7a7798c8d78b985b",
  "difficulty": 3853051700593,
  "gasLimit": {
    "_hex": "0x2fefd8"
  },
  "gasUsed": {
    "_hex": "0x5208"
  },
  "miner": "0x8B454d830feF179e66206840F8F3D1d83bC32b17",
  "extraData": "0x476574682f76312e302e312f77696e646f77732f676f312e342e32",
  "transactions": [
    {
      "hash": "0x9e5c90e71421b732e5984f6baddab2e9de977147730707cc10a48eaa73fbfcf3",
      "blockHash": "0x660cc186e2c5386fdecd98a65fd87ab132c5d64c181b7375323b90567a011fe8",
      "blockNumber": 100014,
      "transactionIndex": 0,
      "confirmations": null,
      "from": "0x007f7f58D3eb5b7510A301eCC749FC1fCDDBE14D",
      "gasPrice": {
        "_hex": "0xe0cfe7246"
      },
      "gasLimit": {
        "_hex": "0x15f90"
      },
      "to": "0xb1abce2918E21ddb93AA452731a12672A3d9F75a",
      "value": {
        "_hex": "0x4563918244f40000"
      },
      "nonce": 157,
      "data": "0x",
      "r": "0xcc4386a09f05b2b798fa8a4eee869d35a3298e12aa6599bfadad6828ce3a7338",
      "s": "0x00ca85d381477bcae6fd253161515aeeb104b8fc31e9ad9cb1b9bdeb78784f8f",
      "v": 27,
      "creates": null,
      "raw": "0xf86d819d850e0cfe724683015f9094b1abce2918e21ddb93aa452731a12672a3d9f75a884563918244f40000801ba0cc4386a09f05b2b798fa8a4eee869d35a3298e12aa6599bfadad6828ce3a73389fca85d381477bcae6fd253161515aeeb104b8fc31e9ad9cb1b9bdeb78784f8f",
      "networkId": 0,
      "chainId": 0
    }
  ]
}