{
  "hash": "0x05781e45b3cc5cdb97f0a5d732d1036fdd241d4f1646abee2962d83b83e13a2b",
  "parentHash": "0x7f327e7f31dbd5dd3e67fed3e4b7d430c5cdefe12480300cecaf7270c6c4fe49",
  "number": 98729,
  "timestamp": 1439778152,
  "nonce": "0xc42a5a7146302b6a",
  "difficulty": 3829257847891,
  "gasLimit": {
    "_hex": "0x2fefd8"
  },
  "gasUsed": {
    "_hex": "0x5208"
  },
  "miner": "0xEF247E639d49461D25F57e9362CadE3120910Ce0",
  "extraData": "0x476574682f76312e302e312f6c696e75782f676f312e342e32",
  "transactions": [
    {
      "hash": "0x984d5e5f2dcfd8d3fea2df3e08b2cb20218930bd76b935f76d7f974cab4fb65f",
      "blockHash": "0x05781e45b3cc5cdb97f0a5d732d1036fdd241d4f1646abee2962d83b83e13a2b",
      "blockNumber": 98729,
      "transactionIndex": 0,
      "confirmations": null,
      "from": "0x120A270bbC009644e35F0bB6ab13f95b8199c4ad",
      "gasPrice": {
        "_hex": "0xce448e929"
      },
      "gasLimit": {
        "_hex": "0x15f90"
      },
      "to": "0xF6F1A44309051c6B25e47dff909B179Bb9aB591C",
      "value": {
        "_hex": "0x2b5e3af16b18800000"
      },
      "nonce": 661,
      "data": "0x",
      "r": "0xb26a390a873f7f2a52524659bfa5fd2aaa792eb3ec678bf87e1c2b20b257e60f",
      "s": "0x062884132a8b467bc72ed99f63124c95a6e2ead32965a0bf6b36b1772497e759",
      "v": 27,
      "creates": null,
      "raw": "0xf870820295850ce448e92983015f9094f6f1a44309051c6b25e47dff909b179bb9ab591c892b5e3af16b18800000801ba0b26a390a873f7f2a52524659bfa5fd2aaa792eb3ec678bf87e1c2b20b257e60fa0062884132a8b467bc72ed99f63124c95a6e2ead32965a0bf6b36b1772497e759",
      "networkId": 0,
      "chainId": 0
    }
  ]
}