{
  "hash": "0xa4b357f328b98cc2713e44f9adc249f3cd4ee647b879058bcc25872ca684a0e3",
  "parentHash": "0xfe17f0a418b0e2fe7adbb4582858df8e3449a23e2a55ce9030b6c58d8031fa61",
  "number": 74352,
  "timestamp": 1439384732,
  "nonce": "0xfa32939c3b8faddb",
  "difficulty": 2215069907518,
  "gasLimit": {
    "_hex": "0x2fefd8"
  },
  "gasUsed": {
    "_hex": "0x1cf5a"
  },
  "miner": "0x5e1a72dde3Ffc20B77eA8382E916EF04C89ff2Bd",
  "extraData": "0x476574682f76312e302e302f77696e646f77732f676f312e342e32",
  "transactions": [
    {
      "hash": "0x50b7ba497a72f6cdea95f68b92761e882ffeb195485b4a55082169f577908bc4",
      "blockHash": "0xa4b357f328b98cc2713e44f9adc249f3cd4ee647b879058bcc25872ca684a0e3",
      "blockNumber": 74352,
      "transactionIndex": 0,
      "confirmations": null,
      "from": "0x326Be8F71bFb0379f989aAB1CC1fE37f0a771f60",
      "gasPrice": {
        "_hex": "0x114d3f2638d"
      },
      "gasLimit": {
        "_hex": "0x493e0"
      },
      "to": "0x88A91FD7Fb8AAEa8cDAD2C990f1DBDcd28022a02",
      "value": {
        "_hex": "0x8ac7230489e80000"
      },
      "nonce": 50,
      "data": "0x8d21618600000000000000000000000000000000000000000000000000000000000000800000000000000000000000000000000000000000000000000000000000000000",
      "r": "0xc05a4be12023a3f7fdcd04687b158c15d73af8100a6a4632cd903f5f878a5831",
      "s": "0x615139be4f59a5a7ef45f7b026043062e381d96e65a79bbadc8a7a71befc08e6",
      "v": 27,
      "creates": null,
      "raw": "0xf8b332860114d3f2638d830493e09488a91fd7fb8aaea8cdad2c990f1dbdcd28022a02888ac7230489e80000b8448d216186000000000000000000000000000000000000000000000000000000000000008000000000000000000000000000000000000000000000000000000000000000001ba0c05a4be12023a3f7fdcd04687b158c15d73af8100a6a4632cd903f5f878a5831a0615139be4f59a5a7ef45f7b026043062e381d96e65a79bbadc8a7a71befc08e6",
      "networkId": 0,
      "chainId": 0
    },
    {
      "hash": "0x7f5d57ffe1cd38c037e26e51583895e11e085c6c6b717a06b76d245d64eafe35",
      "blockHash": "0xa4b357f328b98cc2713e44f9adc249f3cd4ee647b879058bcc25872ca684a0e3",
      "blockNumber": 74352,
      "transactionIndex": 1,
      "confirmations": null,
      "from": "0xd6986162E8B905e6a771C3BCD1b2baa2B0bb386F",
      "gasPrice": {
        "_hex": "0xdee354b40"
      },
      "gasLimit": {
        "_hex": "0x5208"
      },
      "to": "0x32Be343B94f860124dC4fEe278FDCBD38C102D88",
      "value": {
        "_hex": "0x1bbcf6ab3eda6c00"
      },
      "nonce": 1,
      "data": "0x",
      "r": "0xaf7bf39f03484302bd8c0f73c90e1431b91ef38bd90c615e658fd1f4bc917d81",
      "s": "0x68f4d477fc692c9a4896af7253e4333b7f47477915218ddaaa57f32b27306f02",
      "v": 27,
      "creates": null,
      "raw": "0xf86c01850dee354b408252089432be343b94f860124dc4fee278fdcbd38c102d88881bbcf6ab3eda6c00801ba0af7bf39f03484302bd8c0f73c90e1431b91ef38bd90c615e658fd1f4bc917d81a068f4d477fc692c9a4896af7253e4333b7f47477915218ddaaa57f32b27306f02",
      "networkId": 0,
      "chainId": 0
    },
    {
      "hash": "0x0bcfbefc83403c85b3b1f2f6f55b0fcc1cd3fbd3afa03b1c8e4acd69656b8e35",
      "blockHash": "0xa4b357f328b98cc2713e44f9adc249f3cd4ee647b879058bcc25872ca684a0e3",
      "blockNumber": 74352,
      "transactionIndex": 2,
      "confirmations": null,
      "from": "0xeF76c144553e10420Aa7FA2c205Db698AF95bed3",
      "gasPrice": {
        "_hex": "0xdee354b40"
      },
      "gasLimit": {
        "_hex": "0x5208"
      },
      "to": "0x32Be343B94f860124dC4fEe278FDCBD38C102D88",
      "value": {
        "_hex": "0x11589cf4f57ee5000"
      },
      "nonce": 2,
      "data": "0x",
      "r": "0x5c2981d4c077946c39a09cf008d6f6c9c3a110270d1b8c4f75aa8b7c5e4a9813",
      "s": "0x605adf897f166e8778d82ede131ac0d243e2503bc86f57340dd50554e253b407",
      "v": 27,
      "creates": null,
      "raw": "0xf86d02850dee354b408252089432be343b94f860124dc4fee278fdcbd38c102d8889011589cf4f57ee5000801ba05c2981d4c077946c39a09cf008d6f6c9c3a110270d1b8c4f75aa8b7c5e4a9813a0605adf897f166e8778d82ede131ac0d243e2503bc86f57340dd50554e253b407",
      "networkId": 0,
      "chainId": 0
    },
    {
      "hash": "0x3ae109740d669170c11151e0e7d47f21830ab39ecf28a77ec8c3c06cb440c010",
      "blockHash": "0xa4b357f328b98cc2713e44f9adc249f3cd4ee647b879058bcc25872ca684a0e3",
      "blockNumber": 74352,
      "transactionIndex": 3,
      "confirmations": null,
      "from": "0x827039b481254dee41Ef8f8333AdF1aba69a2f5A",
      "gasPrice": {
        "_hex": "0xdee354b40"
      },
      "gasLimit": {
        "_hex": "0x5208"
      },
      "to": "0x32Be343B94f860124dC4fEe278FDCBD38C102D88",
      "value": {
        "_hex": "0x162fe0c9c8b26c00"
      },
      "nonce": 2,
      "data": "0x",
      "r": "0x75ae913f62c3e818e66fdf744c8b494a24b5aa91913b32c29074d060139ffec8",
      "s": "0x4b1f5b893f3ac29b572c235a160e03d9c6880b0999012c428d56ab367c0b7034",
      "v": 28,
      "creates": null,
      "raw": "0xf86c02850dee354b408252089432be343b94f860124dc4fee278fdcbd38c102d8888162fe0c9c8b26c00801ca075ae913f62c3e818e66fdf744c8b494a24b5aa91913b32c29074d060139ffec8a04b1f5b893f3ac29b572c235a160e03d9c6880b0999012c428d56ab367c0b7034",
      "networkId": 0,
      "chainId": 0
    },
    {
      "hash": "0x4b9851d2138f44ab9cd38bcc50b81e64765e3b73c9352b6768b8bb9b6cc9e9cb",
      "blockHash": "0xa4b357f328b98cc2713e44f9adc249f3cd4ee647b879058bcc25872ca684a0e3",
      "blockNumber": 74352,
      "transactionIndex": 4,
      "confirmations": null,
      "from": "0x120A270bbC009644e35F0bB6ab13f95b8199c4ad",
      "gasPrice": {
        "_hex": "0xccc644556"
      },
      "gasLimit": {
        "_hex": "0x15f90"
      },
      "to": "0xA8471786fF71d0F894e60Ab9e3217a7E842c7b38",
      "value": {
        "_hex": "0xd8d726b7177a80000"
      },
      "nonce": 275,
      "data": "0x",
      "r": "0x35833d81dd3ec8f96838118f334ddd61635f4dcb0f42f26f1d7c0a5a96a9bb9a",
      "s": "0x5bea9b5974b7adb3379718f8ab5a8bb66c9c09254dff4649e7dd84b8ec23b398",
      "v": 27,
      "creates": null,
      "raw": "0xf870820113850ccc64455683015f9094a8471786ff71d0f894e60ab9e3217a7e842c7b38890d8d726b7177a80000801ba035833d81dd3ec8f96838118f334ddd61635f4dcb0f42f26f1d7c0a5a96a9bb9aa05bea9b5974b7adb3379718f8ab5a8bb66c9c09254dff4649e7dd84b8ec23b398",
      "networkId": 0,
      "chainId": 0
    }
  ]
}