{
  "hash": "0x3f467ec47198663908f41e35ea9370dea451a993e12c5182a41d84564ba67546",
  "parentHash": "0x67c6fd7bbcd49aa27feb9943688e874d9cbe7013f158aad5a0051ae48a03208f",
  "number": 101518,
  "timestamp": 1439824134,
  "nonce": "0x3390a3c4e6759020",
  "difficulty": 3867438661430,
  "gasLimit": {
    "_hex": "0x2fefd8"
  },
  "gasUsed": {
    "_hex": "0xa410"
  },
  "miner": "0xC978e305Aaa59952FAb39Ba288d6E9CB09B952E1",
  "extraData": "0x476574682f76312e302e312f77696e646f77732f676f312e342e32",
  "transactions": [
    {
      "hash": "0x1bf1ebe3906a75985065f55fcf0581f11a82d3a16718bfd3477991eb8266f730",
      "blockHash": "0x3f467ec47198663908f41e35ea9370dea451a993e12c5182a41d84564ba67546",
      "blockNumber": 101518,
      "transactionIndex": 0,
      "confirmations": null,
      "from": "0xe6F63A7e7F8dc774F8E3504c9b0c5458D7E28ED8",
      "gasPrice": {
        "_hex": "0xcfde54373"
      },
      "gasLimit": {
        "_hex": "0x5208"
      },
      "to": "0x32Be343B94f860124dC4fEe278FDCBD38C102D88",
      "value": {
        "_hex": "0xd3764a9fed87b000"
      },
      "nonce": 2,
      "data": "0x",
      "r": "0x7ec1217aa83aadaa602fc4e57e14b4fdaf2548ecee8ec40ef342978564b45f19",
      "s": "0x11e7afb855c63f8fdcfa88866d4388677468e832b4fdb0056f998ed156bc3993",
      "v": 27,
      "creates": null,
      "raw": "0xf86c02850cfde543738252089432be343b94f860124dc4fee278fdcbd38c102d8888d3764a9fed87b000801ba07ec1217aa83aadaa602fc4e57e14b4fdaf2548ecee8ec40ef342978564b45f19a011e7afb855c63f8fdcfa88866d4388677468e832b4fdb0056f998ed156bc3993",
      "networkId": 0,
      "chainId": 0
    },
    {
      "hash": "0xcf22a40d059d7bc5a2981097aa61196241db4b8d9d8d129bbeec6477512a6aa7",
      "blockHash": "0x3f467ec47198663908f41e35ea9370dea451a993e12c5182a41d84564ba67546",
      "blockNumber": 101518,
      "transactionIndex": 1,
      "confirmations": null,
      "from": "0x2cf4364bc4C7C3333aB9963C4B3473664f42D83A",
      "gasPrice": {
        "_hex": "0xcdc2341a6"
      },
      "gasLimit": {
        "_hex": "0x5208"
      },
      "to": "0x32Be343B94f860124dC4fEe278FDCBD38C102D88",
      "value": {
        "_hex": "0x1a56aa21c50f4e000"
      },
      "nonce": 3,
      "data": "0x",
      "r": "0x5fce3c92fce47f5e88edba633e7d5fc1fb013eb46c6d7a90e446289ad4cacc87",
      "s": "0x1cefec2557f3419308757176ff5feaf75279df72e2a05e61e87dea768440a516",
      "v": 28,
      "creates": null,
      "raw": "0xf86d03850cdc2341a68252089432be343b94f860124dc4fee278fdcbd38c102d888901a56aa21c50f4e000801ca05fce3c92fce47f5e88edba633e7d5fc1fb013eb46c6d7a90e446289ad4cacc87a01cefec2557f3419308757176ff5feaf75279df72e2a05e61e87dea768440a516",
      "networkId": 0,
      "chainId": 0
    }
  ]
}