{
  "hash": "0x78b6f8a2a6c4d8e3a3f413ad3432d4c84638e31f0296703a415e3f3b317089bc",
  "parentHash": "0x0e56037599e245c910853fbaff4b8e29b5b328842d79fff4f32340d329eaa270",
  "number": 55639,
  "timestamp": 1439074284,
  "nonce": "0xe5eec4b013fe09cd",
  "difficulty": 1618656904299,
  "gasLimit": {
    "_hex": "0x2fefd8"
  },
  "gasUsed": {
    "_hex": "0x5208"
  },
  "miner": "0xf8E0CA3Ed80bd541b94BEdCf259e8CF2141A9523",
  "extraData": "0x476574682f76312e302e312f77696e646f77732f676f312e342e32",
  "transactions": [
    {
      "hash": "0xabbe10ed8d52290ec31b0048906e5b852f728e7571262c04a6bd813f80ecf07d",
      "blockHash": "0x78b6f8a2a6c4d8e3a3f413ad3432d4c84638e31f0296703a415e3f3b317089bc",
      "blockNumber": 55639,
      "transactionIndex": 0,
      "confirmations": null,
      "from": "0x120A270bbC009644e35F0bB6ab13f95b8199c4ad",
      "gasPrice": {
        "_hex": "0xd7b543c50"
      },
      "gasLimit": {
        "_hex": "0x15f90"
      },
      "to": "0xB100987e77FEbA6F022dBd22B80B008e35d3Ff2E",
      "value": {
        "_hex": "0x29a2241af62c0000"
      },
      "nonce": 21,
      "data": "0x",
      "r": "0x4e4d7fca6823f6ba383a4e595dbea6d093905c0f28574905492e4abfda7f0331",
      "s": "0x490aa5caeb8aeb2ee5f50c277822ef70f141c9ef4da8220349453485295a9a2a",
      "v": 28,
      "creates": null,
      "raw": "0xf86d15850d7b543c5083015f9094b100987e77feba6f022dbd22b80b008e35d3ff2e8829a2241af62c0000801ca04e4d7fca6823f6ba383a4e595dbea6d093905c0f28574905492e4abfda7f0331a0490aa5caeb8aeb2ee5f50c277822ef70f141c9ef4da8220349453485295a9a2a",
      "networkId": 0,
      "chainId": 0
    }
  ]
}