{
  "hash": "0x7614d54a0089ddbb0aa7e5c5123e8f57ce60738e2c9c79587f546f067b2c4456",
  "parentHash": "0xa0ff886a71bde028be3862b1ccd0d320ba714ef496606cd3338c6a25e58e4868",
  "number": 117142,
  "timestamp": 1440104438,
  "nonce": "0x2e7094d08fe60389",
  "difficulty": 4289622250348,
  "gasLimit": {
    "_hex": "0x2fefd8"
  },
  "gasUsed": {
    "_hex": "0x5208"
  },
  "miner": "0x52bc44d5378309EE2abF1539BF71dE1b7d7bE3b5",
  "extraData": "0xd783010002844765746887676f312e342e32856c696e7578",
  "transactions": [
    {
      "hash": "0xf56ea90c99aca374a4f93e231a70a5ca457b35cdb775a437ccb74f9fe2995f15",
      "blockHash": "0x7614d54a0089ddbb0aa7e5c5123e8f57ce60738e2c9c79587f546f067b2c4456",
      "blockNumber": 117142,
      "transactionIndex": 0,
      "confirmations": null,
      "from": "0x007f7f58D3eb5b7510A301eCC749FC1fCDDBE14D",
      "gasPrice": {
        "_hex": "0xba43b7400"
      },
      "gasLimit": {
        "_hex": "0x15f90"
      },
      "to": "0xb1abce2918E21ddb93AA452731a12672A3d9F75a",
      "value": {
        "_hex": "0x4563918244f40000"
      },
      "nonce": 317,
      "data": "0x",
      "r": "0xcb8b8e4039b2a28a165ebf0c85c4f70b06bb00d202832bfc3c85fc111a761c07",
      "s": "0x04942a068d1671b1cb31e06098934f26bc5913430f2b5944a0271a2b50a9825d",
      "v": 27,
      "creates": null,
      "raw": "0xf86f82013d850ba43b740083015f9094b1abce2918e21ddb93aa452731a12672a3d9f75a884563918244f40000801ba0cb8b8e4039b2a28a165ebf0c85c4f70b06bb00d202832bfc3c85fc111a761c07a004942a068d1671b1cb31e06098934f26bc5913430f2b5944a0271a2b50a9825d",
      "networkId": 0,
      "chainId": 0
    }
  ]
}