{
  "hash": "0xd5773e522a56c02875952a7fbcd69f7088a31c9c65a8082cdac39a107a6ff7ef",
  "parentHash": "0xd4e547812a4dbe052e6aa5beed07b374d374ded142d3543e6e8e48e1debb60cd",
  "number": 80651,
  "timestamp": 1439488620,
  "nonce": "0xc333c74dcd08185a",
  "difficulty": 2432139574346,
  "gasLimit": {
    "_hex": "0x2fefd8"
  },
  "gasUsed": {
    "_hex": "0xfc3f"
  },
  "miner": "0x88C96e25787Fd9e2746F7Ce708f2285eCC16348f",
  "extraData": "0x476574682f76312e302e312f77696e646f77732f676f312e342e32",
  "transactions": [
    {
      "hash": "0x0a6c88b464ff755dc68c0ad4399fba56431cfcaee05f5cc72f8eea389d3b61a4",
      "blockHash": "0xd5773e522a56c02875952a7fbcd69f7088a31c9c65a8082cdac39a107a6ff7ef",
      "blockNumber": 80651,
      "transactionIndex": 0,
      "confirmations": null,
      "from": "0x87C5B5874A18B4306DF8a752a6C8cc3E82daFc19",
      "gasPrice": {
        "_hex": "0x110abd2cb8c"
      },
      "gasLimit": {
        "_hex": "0x493e0"
      },
      "to": "0xC4c51de1AbF5D60DBd329eC0F999Fd8f021ae9fC",
      "value": {
        "_hex": "0x0"
      },
      "nonce": 273,
      "data": "0x03750d9400000000000000000000000087c5b5874a18b4306df8a752a6c8cc3e82dafc196b6b6b0000000000000000000000000000000000000000000000000000000000",
      "r": "0xdf1a3fdf600215f47cb0e7e8fb813df41a620253a93c66e61262896d01c63c40",
      "s": "0x4c01878eee031487d4417dda40430e5199506426da22cacc6655c5133e72adac",
      "v": 28,
      "creates": null,
      "raw": "0xf8ad820111860110abd2cb8c830493e094c4c51de1abf5d60dbd329ec0f999fd8f021ae9fc80b84403750d9400000000000000000000000087c5b5874a18b4306df8a752a6c8cc3e82dafc196b6b6b00000000000000000000000000000000000000000000000000000000001ca0df1a3fdf600215f47cb0e7e8fb813df41a620253a93c66e61262896d01c63c40a04c01878eee031487d4417dda40430e5199506426da22cacc6655c5133e72adac",
      "networkId": 0,
      "chainId": 0
    },
    {
      "hash": "0x8a1e0d8763a77d645851b33e492efb414c0c2a889d20487cc008f6c8d66458f3",
      "blockHash": "0xd5773e522a56c02875952a7fbcd69f7088a31c9c65a8082cdac39a107a6ff7ef",
      "blockNumber": 80651,
      "transactionIndex": 1,
      "confirmations": null,
      "from": "0x2910543Af39abA0Cd09dBb2D50200b3E800A63D2",
      "gasPrice": {
        "_hex": "0xcea6df082"
      },
      "gasLimit": {
        "_hex": "0x5208"
      },
      "to": "0xa99607CA6dA11D4A501e3a0213d905556f370B23",
      "value": {
        "_hex": "0x4127fd9ff4758000"
      },
      "nonce": 397,
      "data": "0x",
      "r": "0x04a42b31592bfbbdef18b2a16c3bd0e365b4578e01f154281190fb06af98022e",
      "s": "0x61cfdb0028c4dcd388d3f76c663ba99ad78f2dd320b505cfb62eb6f07b48ac9b",
      "v": 27,
      "creates": null,
      "raw": "0xf86e82018d850cea6df08282520894a99607ca6da11d4a501e3a0213d905556f370b23884127fd9ff4758000801ba004a42b31592bfbbdef18b2a16c3bd0e365b4578e01f154281190fb06af98022ea061cfdb0028c4dcd388d3f76c663ba99ad78f2dd320b505cfb62eb6f07b48ac9b",
      "networkId": 0,
      "chainId": 0
    }
  ]
}