{
  "hash": "0x97695df5f2d317bfc3d58a3bac3e0e07d5738e416f5b34ec7da6db0e1dc987eb",
  "parentHash": "0x461197127c93334f7f4e3ae9e6b78e6440d87023d3e124d6cf3498687a1ddc41",
  "number": 120396,
  "timestamp": 1440159370,
  "nonce": "0xe574e6fad7a98ab2",
  "difficulty": 4398226517533,
  "gasLimit": {
    "_hex": "0x2fefd8"
  },
  "gasUsed": {
    "_hex": "0xa410"
  },
  "miner": "0x19dFA9C93e19858130E213C2B35bD3062F5d0a6D",
  "extraData": "0x",
  "transactions": [
    {
      "hash": "0xf4f0f7cda04ece75611264ce0c386b6867a345aaca9c0c03513faff174e7e74f",
      "blockHash": "0x97695df5f2d317bfc3d58a3bac3e0e07d5738e416f5b34ec7da6db0e1dc987eb",
      "blockNumber": 120396,
      "transactionIndex": 0,
      "confirmations": null,
      "from": "0xa9f5E7bf6Cbf6fEc55B30850Eb492b47A376d050",
      "gasPrice": {
        "_hex": "0xba43b7400"
      },
      "gasLimit": {
        "_hex": "0x5208"
      },
      "to": "0x32Be343B94f860124dC4fEe278FDCBD38C102D88",
      "value": {
        "_hex": "0x153233516c7cb80000"
      },
      "nonce": 34,
      "data": "0x",
      "r": "0xd21ecb121ba5c7be591210efd76d47c27133c5c5309e6efc6b875b7f89a21e19",
      "s": "0x63a09d89c8ea7439b7ae5d763cfa871531a0c2e214f55c505ed5d860b040baa9",
      "v": 27,
      "creates": null,
      "raw": "0xf86d22850ba43b74008252089432be343b94f860124dc4fee278fdcbd38c102d8889153233516c7cb80000801ba0d21ecb121ba5c7be591210efd76d47c27133c5c5309e6efc6b875b7f89a21e19a063a09d89c8ea7439b7ae5d763cfa871531a0c2e214f55c505ed5d860b040baa9",
      "networkId": 0,
      "chainId": 0
    },
    {
      "hash": "0x20d28e3f6a792e9ab3e92e001505bfd1a1ce476b4c3bb6829bf783d0362af45b",
      "blockHash": "0x97695df5f2d317bfc3d58a3bac3e0e07d5738e416f5b34ec7da6db0e1dc987eb",
      "blockNumber": 120396,
      "transactionIndex": 1,
      "confirmations": null,
      "from": "0xfa61FFF5ba13ff0DD59B579457F557e0ddeD02dA",
      "gasPrice": {
        "_hex": "0xba43b7400"
      },
      "gasLimit": {
        "_hex": "0x5208"
      },
      "to": "0x32Be343B94f860124dC4fEe278FDCBD38C102D88",
      "value": {
        "_hex": "0x20176acff04706000"
      },
      "nonce": 3,
      "data": "0x",
      "r": "0x060ca52773d8a83c88c26b8bc00100235423d130b99c071447be1cad427d5701",
      "s": "0x2e17aac504ee7aa96507d1b68d51a9d0b88386c5561d7228318055d6a8ca9c32",
      "v": 27,
      "creates": null,
      "raw": "0xf86d03850ba43b74008252089432be343b94f860124dc4fee278fdcbd38c102d8889020176acff04706000801ba0060ca52773d8a83c88c26b8bc00100235423d130b99c071447be1cad427d5701a02e17aac504ee7aa96507d1b68d51a9d0b88386c5561d7228318055d6a8ca9c32",
      "networkId": 0,
      "chainId": 0
    }
  ]
}