{
  "hash": "0x0ffdf2f0928cd45a967d8f5414d3fdcdea0c935646e460857b16ecf9dc1784d9",
  "parentHash": "0xcca55b0ac471c4debc97ec092c3bb1d894aae2d6c60825c74dfeaeec73ed9d16",
  "number": 55171,
  "timestamp": 1439066410,
  "nonce": "0xf2129215de8934f3",
  "difficulty": 1642633854719,
  "gasLimit": {
    "_hex": "0x2ffa36"
  },
  "gasUsed": {
    "_hex": "0x1e8480"
  },
  "miner": "0xf927a40C8B7F6E07c5af7FA2155B4864a4112B13",
  "extraData": "0x476574682f76312e302e312f6c696e75782f676f312e342e32",
  "transactions": [
    {
      "hash": "0x528e26a14188847903043e66dd42ebe93264d614b1e382d4c3cff48c16212ddf",
      "blockHash": "0x0ffdf2f0928cd45a967d8f5414d3fdcdea0c935646e460857b16ecf9dc1784d9",
      "blockNumber": 55171,
      "transactionIndex": 0,
      "confirmations": null,
      "from": "0x0ae3F81a67725a8A7758FeB8684c6c17dA20755D",
      "gasPrice": {
        "_hex": "0x10c15532a5"
      },
      "gasLimit": {
        "_hex": "0x7a120"
      },
      "to": "0xBAA54d6E90c3F4d7Ebec11bD180134C7eD8eBb52",
      "value": {
        "_hex": "0x16345785d8a0000"
      },
      "nonce": 40,
      "data": "0x",
      "r": "0x378564a7c915585663c4172200f1e2a99543ab32ef09496fb0178f042887ddf3",
      "s": "0x7c06f033673842d61ba606ee2b758ce99044f3864a085547f089eef67e90ff92",
      "v": 27,
      "creates": null,
      "raw": "0xf86d288510c15532a58307a12094baa54d6e90c3f4d7ebec11bd180134c7ed8ebb5288016345785d8a0000801ba0378564a7c915585663c4172200f1e2a99543ab32ef09496fb0178f042887ddf3a07c06f033673842d61ba606ee2b758ce99044f3864a085547f089eef67e90ff92",
      "networkId": 0,
      "chainId": 0
    },
    {
      "hash": "0xd2b9d8730643aa8cfd85d336d70b0909666964096c91e875fc5928ac05942abe",
      "blockHash": "0x0ffdf2f0928cd45a967d8f5414d3fdcdea0c935646e460857b16ecf9dc1784d9",
      "blockNumber": 55171,
      "transactionIndex": 1,
      "confirmations": null,
      "from": "0x0ae3F81a67725a8A7758FeB8684c6c17dA20755D",
      "gasPrice": {
        "_hex": "0x10c15532a5"
      },
      "gasLimit": {
        "_hex": "0x7a120"
      },
      "to": "0xBAA54d6E90c3F4d7Ebec11bD180134C7eD8eBb52",
      "value": {
        "_hex": "0x16345785d8a0000"
      },
      "nonce": 41,
      "data": "0x",
      "r": "0x2d8f9c92a5d0ada7d4a8508c991743d7c712ce9484d604c7d20376c1ce264d32",
      "s": "0x541772a2d39dbeafde879147ca8fbbff1fa1a2431ec6ab91663a90ee62f1aafd",
      "v": 27,
      "creates": null,
      "raw": "0xf86d298510c15532a58307a12094baa54d6e90c3f4d7ebec11bd180134c7ed8ebb5288016345785d8a0000801ba02d8f9c92a5d0ada7d4a8508c991743d7c712ce9484d604c7d20376c1ce264d32a0541772a2d39dbeafde879147ca8fbbff1fa1a2431ec6ab91663a90ee62f1aafd",
      "networkId": 0,
      "chainId": 0
    },
    {
      "hash": "0x075295ce6d7e8f4d84538e1d5057c1063e80ba42aa592b3c723d391657f8f098",
      "blockHash": "0x0ffdf2f0928cd45a967d8f5414d3fdcdea0c935646e460857b16ecf9dc1784d9",
      "blockNumber": 55171,
      "transactionIndex": 2,
      "confirmations": null,
      "from": "0x0ae3F81a67725a8A7758FeB8684c6c17dA20755D",
      "gasPrice": {
        "_hex": "0x10c15532a5"
      },
      "gasLimit": {
        "_hex": "0x7a120"
      },
      "to": "0xBAA54d6E90c3F4d7Ebec11bD180134C7eD8eBb52",
      "value": {
        "_hex": "0x16345785d8a0000"
      },
      "nonce": 42,
      "data": "0x",
      "r": "0xc7a46cabc02aefd95e9365aa1865314fbade16c89fdd190118454f6ad4b7f17e",
      "s": "0x069970ba23d97eadfa5b9d7e505ef0840f69c7096f0d34e8cc0b148afd8df169",
      "v": 28,
      "creates": null,
      "raw": "0xf86d2a8510c15532a58307a12094baa54d6e90c3f4d7ebec11bd180134c7ed8ebb5288016345785d8a0000801ca0c7a46cabc02aefd95e9365aa1865314fbade16c89fdd190118454f6ad4b7f17ea0069970ba23d97eadfa5b9d7e505ef0840f69c7096f0d34e8cc0b148afd8df169",
      "networkId": 0,
      "chainId": 0
    },
    {
      "hash": "0xc93ea8356abb6cbed3b788c571617ab71d7806a592097b24f6cc0199e8e7a15c",
      "blockHash": "0x0ffdf2f0928cd45a967d8f5414d3fdcdea0c935646e460857b16ecf9dc1784d9",
      "blockNumber": 55171,
      "transactionIndex": 3,
      "confirmations": null,
      "from": "0x0ae3F81a67725a8A7758FeB8684c6c17dA20755D",
      "gasPrice": {
        "_hex": "0x10c15532a5"
      },
      "gasLimit": {
        "_hex": "0x7a120"
      },
      "to": "0xBAA54d6E90c3F4d7Ebec11bD180134C7eD8eBb52",
      "value": {
        "_hex": "0x16345785d8a0000"
      },
      "nonce": 43,
      "data": "0x",
      "r": "0x4bc80f9b7c64fdabf21604aa0d7b9d212241a65d211b5fe029e5fd2a6293e319",
      "s": "0x5bfa8deabe440e4a849b3c485052dc5887ee9858a51eafc0dab421c19e81c465",
      "v": 27,
      "creates": null,
      "raw": "0xf86d2b8510c15532a58307a12094baa54d6e90c3f4d7ebec11bd180134c7ed8ebb5288016345785d8a0000801ba04bc80f9b7c64fdabf21604aa0d7b9d212241a65d211b5fe029e5fd2a6293e319a05bfa8deabe440e4a849b3c485052dc5887ee9858a51eafc0dab421c19e81c465",
      "networkId": 0,
      "chainId": 0
    }
  ]
}