{
  "hash": "0x6944f5d22df682f61c7962ea23c4d500502be03b41873ad6c0888d7b6fe69f5d",
  "parentHash": "0xc52c0e931b54569c2527f29c710db05df477510ad63a49207869b72197db4ef3",
  "number": 74032,
  "timestamp": 1439379182,
  "nonce": "0xa8b656ccda762eed",
  "difficulty": 2241265948616,
  "gasLimit": {
    "_hex": "0x2fefd8"
  },
  "gasUsed": {
    "_hex": "0xa410"
  },
  "miner": "0x0037ce3d4B7f8729C8607D8D0248252Be68202c0",
  "extraData": "0x476574682f76312e302e312f77696e646f77732f676f312e342e32",
  "transactions": [
    {
      "hash": "0x45dffc0795c9c600d3bebecfe7496386c090b47b0866fd7abc1a7d39ed14fd0a",
      "blockHash": "0x6944f5d22df682f61c7962ea23c4d500502be03b41873ad6c0888d7b6fe69f5d",
      "blockNumber": 74032,
      "transactionIndex": 0,
      "confirmations": null,
      "from": "0x120A270bbC009644e35F0bB6ab13f95b8199c4ad",
      "gasPrice": {
        "_hex": "0xddb6eda29"
      },
      "gasLimit": {
        "_hex": "0x15f90"
      },
      "to": "0x0C834b0a01810533a5417Ee59c7bB6b5D3956A82",
      "value": {
        "_hex": "0x27819e93fdc369cc00"
      },
      "nonce": 263,
      "data": "0x",
      "r": "0x932ca62826fb99adf7b7e43e8994ddd7a9cdd47901b2484be9443546d7a09f14",
      "s": "0x4de5fe57ee2748a7f760050243ea57b6e561856bf9b0c8acd3e2efc2ad154981",
      "v": 28,
      "creates": null,
      "raw": "0xf870820107850ddb6eda2983015f90940c834b0a01810533a5417ee59c7bb6b5d3956a828927819e93fdc369cc00801ca0932ca62826fb99adf7b7e43e8994ddd7a9cdd47901b2484be9443546d7a09f14a04de5fe57ee2748a7f760050243ea57b6e561856bf9b0c8acd3e2efc2ad154981",
      "networkId": 0,
      "chainId": 0
    },
    {
      "hash": "0xd0bc500ab4775603ec8683723adb9fd45f9e3af840b12ec1c3cc53d40e968427",
      "blockHash": "0x6944f5d22df682f61c7962ea23c4d500502be03b41873ad6c0888d7b6fe69f5d",
      "blockNumber": 74032,
      "transactionIndex": 1,
      "confirmations": null,
      "from": "0x120A270bbC009644e35F0bB6ab13f95b8199c4ad",
      "gasPrice": {
        "_hex": "0xddb6eda29"
      },
      "gasLimit": {
        "_hex": "0x15f90"
      },
      "to": "0x6baeC65168a4fBB94b9557C65Dfc7cef5c6fBb8a",
      "value": {
        "_hex": "0x27819e93fdc369cc00"
      },
      "nonce": 264,
      "data": "0x",
      "r": "0x4799ea2e6f7f108680ab42694975068677a12f81340d6c2d40527d9533887020",
      "s": "0x389db1045b80e33dae3399484bac88a5df90cf10b7a66dd33ea4092c55e9f343",
      "v": 27,
      "creates": null,
      "raw": "0xf870820108850ddb6eda2983015f90946baec65168a4fbb94b9557c65dfc7cef5c6fbb8a8927819e93fdc369cc00801ba04799ea2e6f7f108680ab42694975068677a12f81340d6c2d40527d9533887020a0389db1045b80e33dae3399484bac88a5df90cf10b7a66dd33ea4092c55e9f343",
      "networkId": 0,
      "chainId": 0
    }
  ]
}