{
  "hash": "0xf7dfd63602d2424aad1ab56ccfb695a4b36e2cb1ba7c3ef64ba8579ce525f87a",
  "parentHash": "0x14875b15520ae133ba5e313e3f1477282d3bfd80ad5a4f3c059b6257030b471a",
  "number": 101705,
  "timestamp": 1439826924,
  "nonce": "0x6f8cc500f669b08e",
  "difficulty": 3865464554027,
  "gasLimit": {
    "_hex": "0x2fefd8"
  },
  "gasUsed": {
    "_hex": "0xf618"
  },
  "miner": "0x5F8F73E26CdF436f19Cb24C82F90A15AFe55b592",
  "extraData": "0x476574682f76312e302e312f77696e646f77732f676f312e342e32",
  "transactions": [
    {
      "hash": "0x34bc4063edb853cc37cd0182d1e93fe7a8f36d84f2f3fcfadbe7268d42354568",
      "blockHash": "0xf7dfd63602d2424aad1ab56ccfb695a4b36e2cb1ba7c3ef64ba8579ce525f87a",
      "blockNumber": 101705,
      "transactionIndex": 0,
      "confirmations": null,
      "from": "0x219034787DFcdf07Ae8a07D98B0781439fc0db99",
      "gasPrice": {
        "_hex": "0xddeacd0ec"
      },
      "gasLimit": {
        "_hex": "0x5208"
      },
      "to": "0xFBb1b73C4f0BDa4f67dcA266ce6Ef42f520fBB98",
      "value": {
        "_hex": "0xad78a4a9875cde0a0"
      },
      "nonce": 0,
      "data": "0x",
      "r": "0x6ff31d21998aaefe9bc4067c2f564e028468f49963ec0c260f0dd167270a107a",
      "s": "0x474a5cd335996587a925d1883f2972a6a953c56ff055bc907b8fda1196d0c8c1",
      "v": 28,
      "creates": null,
      "raw": "0xf86d80850ddeacd0ec82520894fbb1b73c4f0bda4f67dca266ce6ef42f520fbb98890ad78a4a9875cde0a0801ca06ff31d21998aaefe9bc4067c2f564e028468f49963ec0c260f0dd167270a107aa0474a5cd335996587a925d1883f2972a6a953c56ff055bc907b8fda1196d0c8c1",
      "networkId": 0,
      "chainId": 0
    },
    {
      "hash": "0xb2590bf97a98160b0d088902744f3d714d5ad1704229d9c9b12e9bfe639655b7",
      "blockHash": "0xf7dfd63602d2424aad1ab56ccfb695a4b36e2cb1ba7c3ef64ba8579ce525f87a",
      "blockNumber": 101705,
      "transactionIndex": 1,
      "confirmations": null,
      "from": "0x23ac86f02C0e12C822b2c991b4602fbd79EAB8Ed",
      "gasPrice": {
        "_hex": "0xba43b7400"
      },
      "gasLimit": {
        "_hex": "0x5208"
      },
      "to": "0xC47Aaa860008be6f65B58c6C6E02a84e666EfE31",
      "value": {
        "_hex": "0x455fd68a17f038f0"
      },
      "nonce": 3,
      "data": "0x",
      "r": "0x3b9e763f4c3042aa51c86675aa0b620548cdf387e7088132df4c05e4e61f90a4",
      "s": "0x590ca2e58307a8defc4e47030d04d7bebafb9bae665920026cf183fa1829d967",
      "v": 27,
      "creates": null,
      "raw": "0xf86c03850ba43b740082520894c47aaa860008be6f65b58c6c6e02a84e666efe3188455fd68a17f038f0801ba03b9e763f4c3042aa51c86675aa0b620548cdf387e7088132df4c05e4e61f90a4a0590ca2e58307a8defc4e47030d04d7bebafb9bae665920026cf183fa1829d967",
      "networkId": 0,
      "chainId": 0
    },
    {
      "hash": "0xcf324d9b0762ed44ae47927a19ecbdb7824c8ccd3599ee8cd3b4259be0cb3504",
      "blockHash": "0xf7dfd63602d2424aad1ab56ccfb695a4b36e2cb1ba7c3ef64ba8579ce525f87a",
      "blockNumber": 101705,
      "transactionIndex": 2,
      "confirmations": null,
      "from": "0x76899c112A85c5a7d27Ff89f1b97112e900aeEBc",
      "gasPrice": {
        "_hex": "0xba43b7400"
      },
      "gasLimit": {
        "_hex": "0x5208"
      },
      "to": "0xC47Aaa860008be6f65B58c6C6E02a84e666EfE31",
      "value": {
        "_hex": "0xdde4294fd97b6000"
      },
      "nonce": 8,
      "data": "0x",
      "r": "0x0f6898e1bc4e4686cd5d854506f6b45e6bb9d663d6648ee7a205a7467f9836fb",
      "s": "0x468159f4371800bc01792233f0f7d6cb5716036e2a85ad73bc118412682f8bbc",
      "v": 27,
      "creates": null,
      "raw": "0xf86c08850ba43b740082520894c47aaa860008be6f65b58c6c6e02a84e666efe3188dde4294fd97b6000801ba00f6898e1bc4e4686cd5d854506f6b45e6bb9d663d6648ee7a205a7467f9836fba0468159f4371800bc01792233f0f7d6cb5716036e2a85ad73bc118412682f8bbc",
      "networkId": 0,
      "chainId": 0
    }
  ]
}