{
  "hash": "0x209da616207e862988ff4cb9237294ac7f8f05e56f634c4ac0e5643b6376596e",
  "parentHash": "0x1018f7847aef5a8c90934f00365613d749788fd41be30ea351b50c2d059aed75",
  "number": 74392,
  "timestamp": 1439385293,
  "nonce": "0x907de18831f1faef",
  "difficulty": 2217223545896,
  "gasLimit": {
    "_hex": "0x2fefd8"
  },
  "gasUsed": {
    "_hex": "0x70d4"
  },
  "miner": "0x19e83223b783b5c6673c06b06E093de7E85F3F87",
  "extraData": "0x",
  "transactions": [
    {
      "hash": "0x3efd9d319f7b13f6b3b507fe82d667b1cb74031079d267bb636b3030d65b8992",
      "blockHash": "0x209da616207e862988ff4cb9237294ac7f8f05e56f634c4ac0e5643b6376596e",
      "blockNumber": 74392,
      "transactionIndex": 0,
      "confirmations": null,
      "from": "0x326Be8F71bFb0379f989aAB1CC1fE37f0a771f60",
      "gasPrice": {
        "_hex": "0xff3499613e"
      },
      "gasLimit": {
        "_hex": "0x493e0"
      },
      "to": "0x88A91FD7Fb8AAEa8cDAD2C990f1DBDcd28022a02",
      "value": {
        "_hex": "0x0"
      },
      "nonce": 53,
      "data": "0xbd66528a73302e3132333236373239393930343233353231000000000000000000000000",
      "r": "0x1a57c055bf7cac2d60bbdf7f68132b695684e75639cc2bb4505f065f15a2cc11",
      "s": "0x3338ee7b94c267ce5ee4652d3880eb31070b9e53ecc4aac44800f2b0f4e67577",
      "v": 27,
      "creates": null,
      "raw": "0xf8893585ff3499613e830493e09488a91fd7fb8aaea8cdad2c990f1dbdcd28022a0280a4bd66528a73302e31323332363732393939303432333532310000000000000000000000001ba01a57c055bf7cac2d60bbdf7f68132b695684e75639cc2bb4505f065f15a2cc11a03338ee7b94c267ce5ee4652d3880eb31070b9e53ecc4aac44800f2b0f4e67577",
      "networkId": 0,
      "chainId": 0
    }
  ]
}