{
  "hash": "0xa73a5a3213f8500d3ac8338f5d47dfd188ce8cbee80da3eed80742324a5621c1",
  "parentHash": "0xb66bf375a8ce9e4e798de44a3d2bbdaa86cd17077226e4caab5f031a4b34d7d5",
  "number": 59044,
  "timestamp": 1439131148,
  "nonce": "0x572ce831e7301ff6",
  "difficulty": 1708114361159,
  "gasLimit": {
    "_hex": "0x2fefd8"
  },
  "gasUsed": {
    "_hex": "0x546c"
  },
  "miner": "0xf927a40C8B7F6E07c5af7FA2155B4864a4112B13",
  "extraData": "0x476574682f76312e302e312f6c696e75782f676f312e342e32",
  "transactions": [
    {
      "hash": "0x54182e8a9db2c4f061f6d0410bfd232ff92f2b865ebb7a3313ba3ae6260074b1",
      "blockHash": "0xa73a5a3213f8500d3ac8338f5d47dfd188ce8cbee80da3eed80742324a5621c1",
      "blockNumber": 59044,
      "transactionIndex": 0,
      "confirmations": null,
      "from": "0x4F3A4854911145Ea01c644044bdb2E5a960A982f",
      "gasPrice": {
        "_hex": "0x110c8f7d8de"
      },
      "gasLimit": {
        "_hex": "0xc350"
      },
      "to": "0x2910543Af39abA0Cd09dBb2D50200b3E800A63D2",
      "value": {
        "_hex": "0xd84c5f9412f0980000"
      },
      "nonce": 0,
      "data": "0x454e59563430313238",
      "r": "0x833bd6f6b72a8c891c4b254d2bf1e109b0a2e126394ab1b15c32fe06a3924134",
      "s": "0x7b7a68f507e620a9371040bd462cd6447688f0726acbb0e5cfa75eac209c1943",
      "v": 27,
      "creates": null,
      "raw": "0xf87780860110c8f7d8de82c350942910543af39aba0cd09dbb2d50200b3e800a63d289d84c5f9412f098000089454e595634303132381ba0833bd6f6b72a8c891c4b254d2bf1e109b0a2e126394ab1b15c32fe06a3924134a07b7a68f507e620a9371040bd462cd6447688f0726acbb0e5cfa75eac209c1943",
      "networkId": 0,
      "chainId": 0
    }
  ]
}