{
  "hash": "0xef54793713201c9e80060b68f77bfc2e996422ad70367694db9ce817eada1ef0",
  "parentHash": "0x0a116fba76bcb89cbe89b119ebca55c4b69b5ca7ce8b5e0bc690ff55b3ab800d",
  "number": 87082,
  "timestamp": 1439586932,
  "nonce": "0x807400bf7fb8eb3e",
  "difficulty": 3037847687380,
  "gasLimit": {
    "_hex": "0x2fefd8"
  },
  "gasUsed": {
    "_hex": "0xf618"
  },
  "miner": "0xcf00A85f3826941e7A25BFcF9Aac575d40410852",
  "extraData": "0x476574682f76312e302e312f77696e646f77732f676f312e342e32",
  "transactions": [
    {
      "hash": "0xaaa002bc74349e81a1202ef689890940f1bd0c6079a874c2df91f280c66bb534",
      "blockHash": "0xef54793713201c9e80060b68f77bfc2e996422ad70367694db9ce817eada1ef0",
      "blockNumber": 87082,
      "transactionIndex": 0,
      "confirmations": null,
      "from": "0x120A270bbC009644e35F0bB6ab13f95b8199c4ad",
      "gasPrice": {
        "_hex": "0xd57dab1e1"
      },
      "gasLimit": {
        "_hex": "0x3d090"
      },
      "to": "0xFbc92cE518a6CA6341B08b4468880Cc9Dd61a027",
      "value": {
        "_hex": "0x18515e1bdab1158000"
      },
      "nonce": 487,
      "data": "0x",
      "r": "0x0aabc8f67c5b774dd0516d235277880f7dd1c2e233b1e5d440542891cbf278aa",
      "s": "0x2490498d0e70e976accacc1e574eded02b43a6f464ef051d89cc88f2b4524859",
      "v": 28,
      "creates": null,
      "raw": "0xf8708201e7850d57dab1e18303d09094fbc92ce518a6ca6341b08b4468880cc9dd61a0278918515e1bdab1158000801ca00aabc8f67c5b774dd0516d235277880f7dd1c2e233b1e5d440542891cbf278aaa02490498d0e70e976accacc1e574eded02b43a6f464ef051d89cc88f2b4524859",
      "networkId": 0,
      "chainId": 0
    },
    {
      "hash": "0xde52adae2b30ed6e8dd4cd5676caa67db84a24e3f4b430a91313a55096e74ac2",
      "blockHash": "0xef54793713201c9e80060b68f77bfc2e996422ad70367694db9ce817eada1ef0",
      "blockNumber": 87082,
      "transactionIndex": 1,
      "confirmations": null,
      "from": "0x120A270bbC009644e35F0bB6ab13f95b8199c4ad",
      "gasPrice": {
        "_hex": "0xd57dab1e1"
      },
      "gasLimit": {
        "_hex": "0x3d090"
      },
      "to": "0xc5623FA5c297c05c2d965A336b2068CfA0e567FA",
      "value": {
        "_hex": "0x183ed3ca06cb87ac00"
      },
      "nonce": 488,
      "data": "0x",
      "r": "0xed7dd4c519dc8afdb74b6ef66dfab2d5f660d39eafbeea26c644e26c6f721512",
      "s": "0x27be0698476bb7b35fc080f6528e067e2175e0fda03abf5b6a49d3a7031dedab",
      "v": 27,
      "creates": null,
      "raw": "0xf8708201e8850d57dab1e18303d09094c5623fa5c297c05c2d965a336b2068cfa0e567fa89183ed3ca06cb87ac00801ba0ed7dd4c519dc8afdb74b6ef66dfab2d5f660d39eafbeea26c644e26c6f721512a027be0698476bb7b35fc080f6528e067e2175e0fda03abf5b6a49d3a7031dedab",
      "networkId": 0,
      "chainId": 0
    },
    {
      "hash": "0xd166c00f518550cca891189355ac11d5a081915a47b0c299668c6a16a3251179",
      "blockHash": "0xef54793713201c9e80060b68f77bfc2e996422ad70367694db9ce817eada1ef0",
      "blockNumber": 87082,
      "transactionIndex": 2,
      "confirmations": null,
      "from": "0x79cfA9780AE6d87B2c31883F09276986C89A6735",
      "gasPrice": {
        "_hex": "0xd106e4b6a"
      },
      "gasLimit": {
        "_hex": "0x15f90"
      },
      "to": "0x6625997D5DDC109B93B0e6dD488f416D8592Cd25",
      "value": {
        "_hex": "0xd8d726b7177a80000"
      },
      "nonce": 0,
      "data": "0x",
      "r": "0x2dd51c1239a72ed98aca0ca07aa77ca337362c01127b53b2ad8789176860e1c4",
      "s": "0x4258118d8e9e002afaa7a20e410442eea1aa09da8c015464e8cb4e3f3874d289",
      "v": 28,
      "creates": null,
      "raw": "0xf86e80850d106e4b6a83015f90946625997d5ddc109b93b0e6dd488f416d8592cd25890d8d726b7177a80000801ca02dd51c1239a72ed98aca0ca07aa77ca337362c01127b53b2ad8789176860e1c4a04258118d8e9e002afaa7a20e410442eea1aa09da8c015464e8cb4e3f3874d289",
      "networkId": 0,
      "chainId": 0
    }
  ]
}