{
  "hash": "0x0e53e41a2ec4ffe7de85eae125e54e4115ca28a2c3ea4653dd8f900c5cf9992a",
  "parentHash": "0x7505f329227f7e770de0ad664560cf4cd460421f28ac3efa36567e44eba66704",
  "number": 109018,
  "timestamp": 1439949825,
  "nonce": "0xd5f7efca2b45944f",
  "difficulty": 4399897285086,
  "gasLimit": {
    "_hex": "0x2fefd8"
  },
  "gasUsed": {
    "_hex": "0x5208"
  },
  "miner": "0xee5379D0c1ca47327368027455074C26D9952628",
  "extraData": "0x476574682f76312e302e312d38326566323666362f6c696e75782f676f312e34",
  "transactions": [
    {
      "hash": "0xc1e89c44eb2d02670b383de91508fe9b3650b3ad5ce14ec90e5fec758840b03b",
      "blockHash": "0x0e53e41a2ec4ffe7de85eae125e54e4115ca28a2c3ea4653dd8f900c5cf9992a",
      "blockNumber": 109018,
      "transactionIndex": 0,
      "confirmations": null,
      "from": "0x9047CED017a0355797e9f5f079cD8380705bC543",
      "gasPrice": {
        "_hex": "0xde9f1911a"
      },
      "gasLimit": {
        "_hex": "0x15f90"
      },
      "to": "0xefe8745972E5cF49d99F05a72ad83A23db5D0A07",
      "value": {
        "_hex": "0xa4ca41263cc770000"
      },
      "nonce": 2,
      "data": "0x",
      "r": "0xd1a7ebd75eb6db9277019e2425d522a688bdcba99c989296da13658757c18f67",
      "s": "0x7b8715108a3768ab979587bce5532b7ca49edce907970f3719fdf80854d1279d",
      "v": 27,
      "creates": null,
      "raw": "0xf86e02850de9f1911a83015f9094efe8745972e5cf49d99f05a72ad83a23db5d0a07890a4ca41263cc770000801ba0d1a7ebd75eb6db9277019e2425d522a688bdcba99c989296da13658757c18f67a07b8715108a3768ab979587bce5532b7ca49edce907970f3719fdf80854d1279d",
      "networkId": 0,
      "chainId": 0
    }
  ]
}