{
  "hash": "0xec7149664e3302d9d9f3a06dbf2b39d92ab607438e8f34c73eb37aac31d30cd0",
  "parentHash": "0x36c7f021b7307d158a8497ad2a756978eb07dd7f5b6a7da2e1e91ddcdcebeac5",
  "number": 90262,
  "timestamp": 1439637250,
  "nonce": "0xa20f65916b5caec8",
  "difficulty": 3299523290403,
  "gasLimit": {
    "_hex": "0x2fefd8"
  },
  "gasUsed": {
    "_hex": "0x5208"
  },
  "miner": "0xbb7B8287f3F0a933474a79eAe42CBCa977791171",
  "extraData": "0x476574682f4c5649562f76312e302e312f6c696e75782f676f312e342e32",
  "transactions": [
    {
      "hash": "0xc852751288d9205bbcf9a6ac72aed713f2c158f6ff36b30dd965607ea2ff7f85",
      "blockHash": "0xec7149664e3302d9d9f3a06dbf2b39d92ab607438e8f34c73eb37aac31d30cd0",
      "blockNumber": 90262,
      "transactionIndex": 0,
      "confirmations": null,
      "from": "0x226E8B888E9F360E1Aea28229C40E2adC5D698b5",
      "gasPrice": {
        "_hex": "0xdac6049dc"
      },
      "gasLimit": {
        "_hex": "0x15f90"
      },
      "to": "0xbA8c9CDA6af013Cc68A076E17c84d4cDbc5960c5",
      "value": {
        "_hex": "0x28c418afbbb5c0000"
      },
      "nonce": 1,
      "data": "0x",
      "r": "0xf69d6133a3147e52c7490446d17d659da82056992d5b02850c8d79f43de7f10b",
      "s": "0x07720607c3bb08cd759a8548f11f26ec289cdc59172231240a0c8f49b5811bfb",
      "v": 28,
      "creates": null,
      "raw": "0xf86e01850dac6049dc83015f9094ba8c9cda6af013cc68a076e17c84d4cdbc5960c589028c418afbbb5c0000801ca0f69d6133a3147e52c7490446d17d659da82056992d5b02850c8d79f43de7f10ba007720607c3bb08cd759a8548f11f26ec289cdc59172231240a0c8f49b5811bfb",
      "networkId": 0,
      "chainId": 0
    }
  ]
}