{
  "hash": "0x568e72eae09c1a1f6dcba2e52755495d2dd68eb0c8a580633389ad8f0782032f",
  "parentHash": "0xae4ce3cf1b68e0b3e3a0889bc0807aa4f56805af815472e7f643a67ad87eb361",
  "number": 120446,
  "timestamp": 1440160116,
  "nonce": "0x5197f713c1b9353e",
  "difficulty": 4402497517869,
  "gasLimit": {
    "_hex": "0x2fefd8"
  },
  "gasUsed": {
    "_hex": "0x5208"
  },
  "miner": "0xb3c4795Ec98c03A7e38AAF46ef4453558EEe289c",
  "extraData": "0xd983010002844765746887676f312e342e328777696e646f7773",
  "transactions": [
    {
      "hash": "0x9f90172e6119a0d86fdb21ff39a730997152722b2c2e8bcde32b34735f33b484",
      "blockHash": "0x568e72eae09c1a1f6dcba2e52755495d2dd68eb0c8a580633389ad8f0782032f",
      "blockNumber": 120446,
      "transactionIndex": 0,
      "confirmations": null,
      "from": "0x608f4b86321a68453f9adf6F06F7Fc3E621739ad",
      "gasPrice": {
        "_hex": "0xba43b7400"
      },
      "gasLimit": {
        "_hex": "0x5208"
      },
      "to": "0x32Be343B94f860124dC4fEe278FDCBD38C102D88",
      "value": {
        "_hex": "0x455fd68a17f06000"
      },
      "nonce": 68,
      "data": "0x",
      "r": "0x3425b78c332f6ea00d918c9eb1a4a1222ce2b9025949586a093b0889c4e29d74",
      "s": "0x59fa18c4d404515008401a0ddd60dd8e71e87fa25ef9c8652457e6e807b67f14",
      "v": 28,
      "creates": null,
      "raw": "0xf86c44850ba43b74008252089432be343b94f860124dc4fee278fdcbd38c102d8888455fd68a17f06000801ca03425b78c332f6ea00d918c9eb1a4a1222ce2b9025949586a093b0889c4e29d74a059fa18c4d404515008401a0ddd60dd8e71e87fa25ef9c8652457e6e807b67f14",
      "networkId": 0,
      "chainId": 0
    }
  ]
}