{
  "hash": "0x94980a7c4b7c782871f235968a31d23d12038b7f732e5781715fb734d0b9c10c",
  "parentHash": "0xdcd4f707f95f9b2fa2d163f1ba3bd4cc3bc55febbc93f77ffab36ee9fffede40",
  "number": 113669,
  "timestamp": 1440027520,
  "nonce": "0x19b9a1de35d23765",
  "difficulty": 4455816621783,
  "gasLimit": {
    "_hex": "0x2fefd8"
  },
  "gasUsed": {
    "_hex": "0xa410"
  },
  "miner": "0x52bc44d5378309EE2abF1539BF71dE1b7d7bE3b5",
  "extraData": "0x476574682f76312e302e312d61383839306436312f6c696e75782f676f312e34",
  "transactions": [
    {
      "hash": "0x663b6c950693916ea1f267cf928c1ef7ec57c2e9b2aca4e533790c4b0cacbf69",
      "blockHash": "0x94980a7c4b7c782871f235968a31d23d12038b7f732e5781715fb734d0b9c10c",
      "blockNumber": 113669,
      "transactionIndex": 0,
      "confirmations": null,
      "from": "0x9827C93917a0c59899BEfBa58d104A788782e1d4",
      "gasPrice": {
        "_hex": "0xd3d37f23a"
      },
      "gasLimit": {
        "_hex": "0x15f90"
      },
      "to": "0x61F642543d22bAf5382908a714E675Cc0b51ea45",
      "value": {
        "_hex": "0x8ac7230489e80000"
      },
      "nonce": 4,
      "data": "0x",
      "r": "0xc290c2b9955dd43684427594245b1887fd2baa18f35d6ab8dc0ccfa5b92614cc",
      "s": "0x5d8324c588c541df4678fa8f6be90285eaeb62f3d1d33f1c99973ac2f32afc9a",
      "v": 28,
      "creates": null,
      "raw": "0xf86d04850d3d37f23a83015f909461f642543d22baf5382908a714e675cc0b51ea45888ac7230489e80000801ca0c290c2b9955dd43684427594245b1887fd2baa18f35d6ab8dc0ccfa5b92614cca05d8324c588c541df4678fa8f6be90285eaeb62f3d1d33f1c99973ac2f32afc9a",
      "networkId": 0,
      "chainId": 0
    },
    {
      "hash": "0xc6c6f63da61f8e50888210ed5a15ccdd574195b27fb30876ed501e196c9f9d0c",
      "blockHash": "0x94980a7c4b7c782871f235968a31d23d12038b7f732e5781715fb734d0b9c10c",
      "blockNumber": 113669,
      "transactionIndex": 1,
      "confirmations": null,
      "from": "0x9827C93917a0c59899BEfBa58d104A788782e1d4",
      "gasPrice": {
        "_hex": "0xcfbc90e1d"
      },
      "gasLimit": {
        "_hex": "0x15f90"
      },
      "to": "0x61F642543d22bAf5382908a714E675Cc0b51ea45",
      "value": {
        "_hex": "0x8ac7230489e80000"
      },
      "nonce": 5,
      "data": "0x",
      "r": "0x015947636a1f26527001994678800a89b9e46cd2af355f16698bf2e71de9d8d2",
      "s": "0x02753b145526c9c15b2a42641ccdacc037bde1304b4fb68bb8e03bb49f44df45",
      "v": 27,
      "creates": null,
      "raw": "0xf86d05850cfbc90e1d83015f909461f642543d22baf5382908a714e675cc0b51ea45888ac7230489e80000801ba0015947636a1f26527001994678800a89b9e46cd2af355f16698bf2e71de9d8d2a002753b145526c9c15b2a42641ccdacc037bde1304b4fb68bb8e03bb49f44df45",
      "networkId": 0,
      "chainId": 0
    }
  ]
}