{
  "hash": "0x6025c913d241a48db3e9f8b93b9e068f56f33cc8a2a8945d93aba756daf92f94",
  "parentHash": "0x8e3ebfc48e953f77a627d32b8a6efd751dc506d1fafde1a1f95027e56d4d3569",
  "number": 80396,
  "timestamp": 1439485037,
  "nonce": "0xf2da027f3e2fc6d4",
  "difficulty": 2384005887440,
  "gasLimit": {
    "_hex": "0x2fefd8"
  },
  "gasUsed": {
    "_hex": "0x546c"
  },
  "miner": "0x4947190fcC30D3fb3a16233b259bFe6b3492339a",
  "extraData": "0x476574682f76312e302e312d38326566323666362f6c696e75782f676f312e34",
  "transactions": [
    {
      "hash": "0xc57c6e0f9266ad0b74e84ef24621b334d738904947f06a4f2688f11ab5b400dd",
      "blockHash": "0x6025c913d241a48db3e9f8b93b9e068f56f33cc8a2a8945d93aba756daf92f94",
      "blockNumber": 80396,
      "transactionIndex": 0,
      "confirmations": null,
      "from": "0x671c5D0ffeB3993FD3Ce1D4a70A04eD949B3a250",
      "gasPrice": {
        "_hex": "0x105022efb1c"
      },
      "gasLimit": {
        "_hex": "0x55f0"
      },
      "to": "0x2910543Af39abA0Cd09dBb2D50200b3E800A63D2",
      "value": {
        "_hex": "0x47fdb3c3f456c0000"
      },
      "nonce": 2,
      "data": "0x454e42363131514538",
      "r": "0xe31d9ff7a7611646635cdaf1df55d99f083eb6b010c41f79f64c7da43435b69c",
      "s": "0x58fe5821e288aca57f3f3f6938a1d6cdebcefba0f6f4ccca7dc92d4e43923042",
      "v": 28,
      "creates": null,
      "raw": "0xf87702860105022efb1c8255f0942910543af39aba0cd09dbb2d50200b3e800a63d289047fdb3c3f456c000089454e423631315145381ca0e31d9ff7a7611646635cdaf1df55d99f083eb6b010c41f79f64c7da43435b69ca058fe5821e288aca57f3f3f6938a1d6cdebcefba0f6f4ccca7dc92d4e43923042",
      "networkId": 0,
      "chainId": 0
    }
  ]
}