{
  "hash": "0xea59156008f2e93478934bfe7f0eba2dee5bceebdca45afb347e3f4cab8ee890",
  "parentHash": "0xb4710748262723e95dc076d31c0ddb7420b80797cf3a827782d9bfc5c1e6e812",
  "number": 89309,
  "timestamp": 1439621392,
  "nonce": "0xe7bbe71338288320",
  "difficulty": 3307964393965,
  "gasLimit": {
    "_hex": "0x2fefd8"
  },
  "gasUsed": {
    "_hex": "0x1bec7"
  },
  "miner": "0xbb7B8287f3F0a933474a79eAe42CBCa977791171",
  "extraData": "0x476574682f4c5649562f76312e302e312f6c696e75782f676f312e342e32",
  "transactions": [
    {
      "hash": "0x9788c92b6ee8ee2c7c7547196012ad8f7c466f971291127c460de273a30d4376",
      "blockHash": "0xea59156008f2e93478934bfe7f0eba2dee5bceebdca45afb347e3f4cab8ee890",
      "blockNumber": 89309,
      "transactionIndex": 0,
      "confirmations": null,
      "from": "0xFD2605a2bF58fDbB90db1Da55dF61628B47F9e8c",
      "gasPrice": {
        "_hex": "0xd89559e9c"
      },
      "gasLimit": {
        "_hex": "0x15f90"
      },
      "to": "0xa50156cF80fa9eC2e16899E4fb7e072300787417",
      "value": {
        "_hex": "0x0"
      },
      "nonce": 70,
      "data": "0x960edffb000000000000000000000000000000000000000000000000000000000000000200000000000000000000000000000000000000000000000000000000000000020000000000000000000000000000000000000000000000000000000000000000",
      "r": "0x1fbfc493e37eb016e679d0138a11e8f8d6a803bfaa12d29d67b08844715f8598",
      "s": "0x419a9f9f82bd9974d79a938931c9e0a6b621db2d002aafbe4538a67c2368c6c7",
      "v": 27,
      "creates": null,
      "raw": "0xf8ca46850d89559e9c83015f9094a50156cf80fa9ec2e16899e4fb7e07230078741780b864960edffb0000000000000000000000000000000000000000000000000000000000000002000000000000000000000000000000000000000000000000000000000000000200000000000000000000000000000000000000000000000000000000000000001ba01fbfc493e37eb016e679d0138a11e8f8d6a803bfaa12d29d67b08844715f8598a0419a9f9f82bd9974d79a938931c9e0a6b621db2d002aafbe4538a67c2368c6c7",
      "networkId": 0,
      "chainId": 0
    },
    {
      "hash": "0x992142fac405e1303ed3cce4dd17b46cc66a56fd5beb2c93d176a6f3de55b290",
      "blockHash": "0xea59156008f2e93478934bfe7f0eba2dee5bceebdca45afb347e3f4cab8ee890",
      "blockNumber": 89309,
      "transactionIndex": 1,
      "confirmations": null,
      "from": "0xFD2605a2bF58fDbB90db1Da55dF61628B47F9e8c",
      "gasPrice": {
        "_hex": "0xd89559e9c"
      },
      "gasLimit": {
        "_hex": "0x15f90"
      },
      "to": "0xa50156cF80fa9eC2e16899E4fb7e072300787417",
      "value": {
        "_hex": "0x0"
      },
      "nonce": 71,
      "data": "0x960edffb000000000000000000000000000000000000000000000000000000000000000300000000000000000000000000000000000000000000000000000000000000020000000000000000000000000000000000000000000000000000000000000000",
      "r": "0xe0fc7b37ee653500e58a9607a17c3b484c718f0c23d6e2245272ea9a8b272a7c",
      "s": "0x6ac9a13a2bc503a5d1f9a02bb95ff0848f19faadc1924f6d95658c08a1404499",
      "v": 27,
      "creates": null,
      "raw": "0xf8ca47850d89559e9c83015f9094a50156cf80fa9ec2e16899e4fb7e07230078741780b864960edffb0000000000000000000000000000000000000000000000000000000000000003000000000000000000000000000000000000000000000000000000000000000200000000000000000000000000000000000000000000000000000000000000001ba0e0fc7b37ee653500e58a9607a17c3b484c718f0c23d6e2245272ea9a8b272a7ca06ac9a13a2bc503a5d1f9a02bb95ff0848f19faadc1924f6d95658c08a1404499",
      "networkId": 0,
      "chainId": 0
    }
  ]
}