{
  "hash": "0x00f595bcb428cf945bcffbc645bd6e752df6b8ead1cc341bee4cc5f2c6afa66f",
  "parentHash": "0xbca7f3aacda7103e274d0481b351df4eeb95109324b3f94bc717860cb6edc06d",
  "number": 109003,
  "timestamp": 1439949623,
  "nonce": "0x25cd0f4c117e5130",
  "difficulty": 4393464696931,
  "gasLimit": {
    "_hex": "0x2fefd5"
  },
  "gasUsed": {
    "_hex": "0x546c"
  },
  "miner": "0xe6A7a1d47ff21B6321162AEA7C6CB457D5476Bca",
  "extraData": "0x476574682f76312e302e312d38326566323666362f6c696e75782f676f312e34",
  "transactions": [
    {
      "hash": "0x5b26253b56a30755d2179730c899d332e4bf1f5c196e898662b82cb20a8a207e",
      "blockHash": "0x00f595bcb428cf945bcffbc645bd6e752df6b8ead1cc341bee4cc5f2c6afa66f",
      "blockNumber": 109003,
      "transactionIndex": 0,
      "confirmations": null,
      "from": "0x52D380511DF19D5eC2807bbCb676581B67FD37A3",
      "gasPrice": {
        "_hex": "0xcadd95d4a"
      },
      "gasLimit": {
        "_hex": "0x55f0"
      },
      "to": "0x2910543Af39abA0Cd09dBb2D50200b3E800A63D2",
      "value": {
        "_hex": "0x58d15e176280000"
      },
      "nonce": 0,
      "data": "0x454e4432414b4b5847",
      "r": "0xca8b5a7657cc27a289815f39812eae3866c4992e1886706d2d9416d5c06a3a97",
      "s": "0x0d5ccf44b39cadf0be74407d5c20e8f4451b225c41ca66064b312e13e58d3f3e",
      "v": 28,
      "creates": null,
      "raw": "0xf87580850cadd95d4a8255f0942910543af39aba0cd09dbb2d50200b3e800a63d288058d15e17628000089454e4432414b4b58471ca0ca8b5a7657cc27a289815f39812eae3866c4992e1886706d2d9416d5c06a3a97a00d5ccf44b39cadf0be74407d5c20e8f4451b225c41ca66064b312e13e58d3f3e",
      "networkId": 0,
      "chainId": 0
    }
  ]
}