{
  "hash": "0xb3604d94a2b43272036dc9e432c906fabeddecc5f718d48a0f39330cb581de47",
  "parentHash": "0x26e1a6f2b4172a5e7c16e762b537c82e7c9efdcf83aa65302150004774019680",
  "number": 120025,
  "timestamp": 1440152683,
  "nonce": "0x059595f16d731b23",
  "difficulty": 4409172493129,
  "gasLimit": {
    "_hex": "0x2fefd8"
  },
  "gasUsed": {
    "_hex": "0xa410"
  },
  "miner": "0xe6A7a1d47ff21B6321162AEA7C6CB457D5476Bca",
  "extraData": "0xd783010002844765746887676f312e342e32856c696e7578",
  "transactions": [
    {
      "hash": "0xab89dcc554192fb45f2ceb358f4e87081646759ecfdc7f26df1ef73a7047985c",
      "blockHash": "0xb3604d94a2b43272036dc9e432c906fabeddecc5f718d48a0f39330cb581de47",
      "blockNumber": 120025,
      "transactionIndex": 0,
      "confirmations": null,
      "from": "0xf139E449202bD167D3B34a53Efe805b9479fEAdC",
      "gasPrice": {
        "_hex": "0xba43b7400"
      },
      "gasLimit": {
        "_hex": "0x5208"
      },
      "to": "0xFBb1b73C4f0BDa4f67dcA266ce6Ef42f520fBB98",
      "value": {
        "_hex": "0x5908a542ae4d56000"
      },
      "nonce": 2,
      "data": "0x",
      "r": "0xe3622ddb8e5e8e260a142f3dfad14081d9f00c2b98cd2e6a0be1bc61e41cfeed",
      "s": "0x7048de7a9959f6d7f15e06bf1a9d06f3714c1fe09c1aec88583574110d4b1c1a",
      "v": 27,
      "creates": null,
      "raw": "0xf86d02850ba43b740082520894fbb1b73c4f0bda4f67dca266ce6ef42f520fbb988905908a542ae4d56000801ba0e3622ddb8e5e8e260a142f3dfad14081d9f00c2b98cd2e6a0be1bc61e41cfeeda07048de7a9959f6d7f15e06bf1a9d06f3714c1fe09c1aec88583574110d4b1c1a",
      "networkId": 0,
      "chainId": 0
    },
    {
      "hash": "0x72675c0fcc75ee6a1ab9f7771b5a86b3df02b8594e0ba1daa12dd0ade0ac5d07",
      "blockHash": "0xb3604d94a2b43272036dc9e432c906fabeddecc5f718d48a0f39330cb581de47",
      "blockNumber": 120025,
      "transactionIndex": 1,
      "confirmations": null,
      "from": "0x32Be343B94f860124dC4fEe278FDCBD38C102D88",
      "gasPrice": {
        "_hex": "0xba43b7400"
      },
      "gasLimit": {
        "_hex": "0x5208"
      },
      "to": "0x6bADA45e56f1e8705AAB08bd2B2414ae5688e511",
      "value": {
        "_hex": "0x15aef9f1c31c7f0000"
      },
      "nonce": 1518,
      "data": "0x",
      "r": "0xcf8354798cd95595b5ed748771a5f375ad74f95f9e3262940197b65ead51db8d",
      "s": "0x237478fc2585eadfffe9bedd2104d1d7b0cd1876080a9ebe3f63af41fa3e5dfa",
      "v": 28,
      "creates": null,
      "raw": "0xf86f8205ee850ba43b7400825208946bada45e56f1e8705aab08bd2b2414ae5688e5118915aef9f1c31c7f0000801ca0cf8354798cd95595b5ed748771a5f375ad74f95f9e3262940197b65ead51db8da0237478fc2585eadfffe9bedd2104d1d7b0cd1876080a9ebe3f63af41fa3e5dfa",
      "networkId": 0,
      "chainId": 0
    }
  ]
}