{
  "hash": "0x928bc9b96ff67c82b88cc4fb7dda1e5b77d263e5870f690abaf784d51f9b6797",
  "parentHash": "0x27f7da0936e7539369ff736c16e6b19431a64c33f94b6226723635b1ae4e9701",
  "number": 116104,
  "timestamp": 1440068421,
  "nonce": "0x400f0c6095ce50e4",
  "difficulty": 4593681605221,
  "gasLimit": {
    "_hex": "0x2fefd8"
  },
  "gasUsed": {
    "_hex": "0x5208"
  },
  "miner": "0xe6A7a1d47ff21B6321162AEA7C6CB457D5476Bca",
  "extraData": "0x476574682f76312e302e312d38326566323666362f6c696e75782f676f312e34",
  "transactions": [
    {
      "hash": "0x4b877179d4034431136d5f5b3b244dd68ea8fb6586464d1c076fcecb5cc06b03",
      "blockHash": "0x928bc9b96ff67c82b88cc4fb7dda1e5b77d263e5870f690abaf784d51f9b6797",
      "blockNumber": 116104,
      "transactionIndex": 0,
      "confirmations": null,
      "from": "0x050A4C817B7DD7334cd378B11c0Be4f9D4684816",
      "gasPrice": {
        "_hex": "0xd6a825998"
      },
      "gasLimit": {
        "_hex": "0x5208"
      },
      "to": "0x32Be343B94f860124dC4fEe278FDCBD38C102D88",
      "value": {
        "_hex": "0x11589f9805b66f000"
      },
      "nonce": 4,
      "data": "0x",
      "r": "0x7c53660ceed18f574c7bc9aef0fb6e74cf46da08f77902702bc467a6899e3bf6",
      "s": "0x4b7068f1b011670959e5b6a22b1e78597b3c526db3f2c2202ed711d9aa885979",
      "v": 28,
      "creates": null,
      "raw": "0xf86d04850d6a8259988252089432be343b94f860124dc4fee278fdcbd38c102d8889011589f9805b66f000801ca07c53660ceed18f574c7bc9aef0fb6e74cf46da08f77902702bc467a6899e3bf6a04b7068f1b011670959e5b6a22b1e78597b3c526db3f2c2202ed711d9aa885979",
      "networkId": 0,
      "chainId": 0
    }
  ]
}