{
  "hash": "0xd358d3d421d8cb3a5ff872af75811fed747052ce6fdad6119c200f7ea3d4952b",
  "parentHash": "0x69a77494f3677a4ef3334c7a1ff6d82f8b8c2744bf264df60bba155c859ad812",
  "number": 84451,
  "timestamp": 1439549854,
  "nonce": "0xae40142278354a2b",
  "difficulty": 2562677824635,
  "gasLimit": {
    "_hex": "0x2fefd8"
  },
  "gasUsed": {
    "_hex": "0x5208"
  },
  "miner": "0xe6A7a1d47ff21B6321162AEA7C6CB457D5476Bca",
  "extraData": "0x476574682f76312e302e312d38326566323666362f6c696e75782f676f312e34",
  "transactions": [
    {
      "hash": "0xd6dea02a62670117806a0a8c9a301191b7ab92c967b5b3b1e2e6afe3c5ac8544",
      "blockHash": "0xd358d3d421d8cb3a5ff872af75811fed747052ce6fdad6119c200f7ea3d4952b",
      "blockNumber": 84451,
      "transactionIndex": 0,
      "confirmations": null,
      "from": "0x2910543Af39abA0Cd09dBb2D50200b3E800A63D2",
      "gasPrice": {
        "_hex": "0xdd19e95b1"
      },
      "gasLimit": {
        "_hex": "0x5208"
      },
      "to": "0x2f86ba8019945f39edE131D38d4d8780884DA553",
      "value": {
        "_hex": "0xe74292ca4a30878000"
      },
      "nonce": 558,
      "data": "0x",
      "r": "0xfa581cd8065d9ca3319573ac9c6d0e54a89b199c1a0e674674d8ec13165b2ae5",
      "s": "0x1267fcc8558001596b10fc4d819038c1c48d615f82011785b95605881768afe4",
      "v": 28,
      "creates": null,
      "raw": "0xf86f82022e850dd19e95b1825208942f86ba8019945f39ede131d38d4d8780884da55389e74292ca4a30878000801ca0fa581cd8065d9ca3319573ac9c6d0e54a89b199c1a0e674674d8ec13165b2ae5a01267fcc8558001596b10fc4d819038c1c48d615f82011785b95605881768afe4",
      "networkId": 0,
      "chainId": 0
    }
  ]
}