{
  "hash": "0x23ea06b1294baaaf5412ca9fa0c53465441d2a79bbd9933352794bb45a55e839",
  "parentHash": "0x10ea101fe19338eb25917866c41f45bee956a37da496f42834499996e98b6387",
  "number": 108259,
  "timestamp": 1439937273,
  "nonce": "0x49afa7156cb02a71",
  "difficulty": 4351154475579,
  "gasLimit": {
    "_hex": "0x2fefd8"
  },
  "gasUsed": {
    "_hex": "0x1d52e"
  },
  "miner": "0x580992B51e3925e23280EfB93d3047C82f17E038",
  "extraData": "0x476574682f76312e302e312f6c696e75782f676f312e342e32",
  "transactions": [
    {
      "hash": "0x34d5e5bb6db3d586a7e1c822d17abdb3d8419383702eed0f5e9fb17c4ab57992",
      "blockHash": "0x23ea06b1294baaaf5412ca9fa0c53465441d2a79bbd9933352794bb45a55e839",
      "blockNumber": 108259,
      "transactionIndex": 0,
      "confirmations": null,
      "from": "0xeD3Fd00D62A795a3A07c71B4f4D94003F92f8A86",
      "gasPrice": {
        "_hex": "0xe2d6a5cd5"
      },
      "gasLimit": {
        "_hex": "0x249f0"
      },
      "to": "0xE28e72FCf78647ADCe1F1252F240bbfaebD63BcC",
      "value": {
        "_hex": "0x1a055690d9db80000"
      },
      "nonce": 2,
      "data": "0x45466f3a",
      "r": "0xd716583b7d37ca964ac20b6865a6dae13e242f24a5f75afb484d3c0d0cea88cc",
      "s": "0x6f7ca47f1fd122c341bcf3b8fd7005c32ab429930f35e7c1ab3e5996d23bb7db",
      "v": 28,
      "creates": null,
      "raw": "0xf87202850e2d6a5cd5830249f094e28e72fcf78647adce1f1252f240bbfaebd63bcc8901a055690d9db800008445466f3a1ca0d716583b7d37ca964ac20b6865a6dae13e242f24a5f75afb484d3c0d0cea88cca06f7ca47f1fd122c341bcf3b8fd7005c32ab429930f35e7c1ab3e5996d23bb7db",
      "networkId": 0,
      "chainId": 0
    },
    {
      "hash": "0x70e4a91531570c6b091813446997bdb034cb041621fa06b5e981615c086944fd",
      "blockHash": "0x23ea06b1294baaaf5412ca9fa0c53465441d2a79bbd9933352794bb45a55e839",
      "blockNumber": 108259,
      "transactionIndex": 1,
      "confirmations": null,
      "from": "0xa2037AA76DF2c3F5F04455844f057758fE1FA6B1",
      "gasPrice": {
        "_hex": "0xd68c2005b"
      },
      "gasLimit": {
        "_hex": "0x7a120"
      },
      "to": "0xBBDa93a81B882774e1c9b5e3F933Fa35DaC8bc88",
      "value": {
        "_hex": "0x44f8fcaaf5b10000"
      },
      "nonce": 1,
      "data": "0x",
      "r": "0x4d423a95b6742d8bf213f2cafecb098d1e740fdde545cce66068c241ce49b1a3",
      "s": "0x6af05fab0618715b81b92b341cd300660d9b8dd664e434b4f1cd19bf4ff4590b",
      "v": 27,
      "creates": null,
      "raw": "0xf86d01850d68c2005b8307a12094bbda93a81b882774e1c9b5e3f933fa35dac8bc888844f8fcaaf5b10000801ba04d423a95b6742d8bf213f2cafecb098d1e740fdde545cce66068c241ce49b1a3a06af05fab0618715b81b92b341cd300660d9b8dd664e434b4f1cd19bf4ff4590b",
      "networkId": 0,
      "chainId": 0
    }
  ]
}