{
  "hash": "0x3b68311645b94145e9ff05a7b948ce068960c8edc1c1b51dd721b237ebd423cf",
  "parentHash": "0x296e31268f65a98688b1e18bb9ae0412a8645fadfc9409327376b192c93b9cf7",
  "number": 68321,
  "timestamp": 1439285969,
  "nonce": "0x2c91d2be4a009ce9",
  "difficulty": 2009444621660,
  "gasLimit": {
    "_hex": "0x2fefd8"
  },
  "gasUsed": {
    "_hex": "0x17cd8"
  },
  "miner": "0x3222BA3F3e79eA0e31467EEE7639B57923558cCD",
  "extraData": "0x",
  "transactions": [
    {
      "hash": "0x8559af415acd78a9a1a14f49efbaa3ce478edb5f48c0f4df33db7ae5f1ca8cfa",
      "blockHash": "0x3b68311645b94145e9ff05a7b948ce068960c8edc1c1b51dd721b237ebd423cf",
      "blockNumber": 68321,
      "transactionIndex": 0,
      "confirmations": null,
      "from": "0x656440C85915AE097Dc5B470ab4c1C0eBB42Be1B",
      "gasPrice": {
        "_hex": "0xba43b7400"
      },
      "gasLimit": {
        "_hex": "0x15f90"
      },
      "to": "0x793AE8C1b1a160BFc07BFB0d04F85eab1A71F4f2",
      "value": {
        "_hex": "0x0"
      },
      "nonce": 0,
      "data": "0x3ba15036",
      "r": "0x182cffa95e39df4f17438d049b9e83ac607313ff9609ef4ce401b2f67143b56c",
      "s": "0x0d974c5eb839478b859f69c98906a1e60dac120424f5037b02eb3bb800530fda",
      "v": 27,
      "creates": null,
      "raw": "0xf86980850ba43b740083015f9094793ae8c1b1a160bfc07bfb0d04f85eab1a71f4f280843ba150361ba0182cffa95e39df4f17438d049b9e83ac607313ff9609ef4ce401b2f67143b56ca00d974c5eb839478b859f69c98906a1e60dac120424f5037b02eb3bb800530fda",
      "networkId": 0,
      "chainId": 0
    },
    {
      "hash": "0xfede122c5065bbfb16662409eaab21200b39c2644f2b7d3acfafc629857e2535",
      "blockHash": "0x3b68311645b94145e9ff05a7b948ce068960c8edc1c1b51dd721b237ebd423cf",
      "blockNumber": 68321,
      "transactionIndex": 1,
      "confirmations": null,
      "from": "0x38ef6Be89CAf64f56788723650b028AfF968CF82",
      "gasPrice": {
        "_hex": "0xba43b7400"
      },
      "gasLimit": {
        "_hex": "0x15f90"
      },
      "to": "0x793AE8C1b1a160BFc07BFB0d04F85eab1A71F4f2",
      "value": {
        "_hex": "0x0"
      },
      "nonce": 0,
      "data": "0x3ba15036",
      "r": "0xd67bd7aa8e7c42b36a0a603081abd57e3ffb58fdf0fd95639f91ec073c3e7d56",
      "s": "0x79091e9232ea5671a9c782cf870138cb57a07c79b754ff53e4555d210ee1596f",
      "v": 27,
      "creates": null,
      "raw": "0xf86980850ba43b740083015f9094793ae8c1b1a160bfc07bfb0d04f85eab1a71f4f280843ba150361ba0d67bd7aa8e7c42b36a0a603081abd57e3ffb58fdf0fd95639f91ec073c3e7d56a079091e9232ea5671a9c782cf870138cb57a07c79b754ff53e4555d210ee1596f",
      "networkId": 0,
      "chainId": 0
    }
  ]
}