{
  "hash": "0x094232e486fb461562a117e0507943fc29d04981ec165410a993b546c6132764",
  "parentHash": "0xac94205169d1bc1d1e8a139f44cedfe4dcb5c74f09bcb693127b6696d9ade75a",
  "number": 86028,
  "timestamp": 1439572423,
  "nonce": "0x418b4c2f5621b045",
  "difficulty": 2788036004470,
  "gasLimit": {
    "_hex": "0x2fefd8"
  },
  "gasUsed": {
    "_hex": "0xa9b4"
  },
  "miner": "0x6541237dAaFf6688A79f9F2F370Ca0E7Ee20BD33",
  "extraData": "0x476574682f76312e302e312f77696e646f77732f676f312e342e32",
  "transactions": [
    {
      "hash": "0xe4a300aaf22d9ba284f2dd852979f451d3f3fc4024a0ab98277cbc427b3e0c09",
      "blockHash": "0x094232e486fb461562a117e0507943fc29d04981ec165410a993b546c6132764",
      "blockNumber": 86028,
      "transactionIndex": 0,
      "confirmations": null,
      "from": "0x1518627b88351fEdE796D3F3083364FBD4887b0c",
      "gasPrice": {
        "_hex": "0x110c8f7d8de"
      },
      "gasLimit": {
        "_hex": "0xc350"
      },
      "to": "0x2910543Af39abA0Cd09dBb2D50200b3E800A63D2",
      "value": {
        "_hex": "0x36096c18e5f04c50000"
      },
      "nonce": 2,
      "data": "0x454e3059504b384138",
      "r": "0x0c3fdf02fc1c5de936927562b29d8a8a0e3630e32e39293889d33bffd431337c",
      "s": "0xa58d33e4031135ac459adcf3bf9a7d4ea9a3d940fd05ad0dc5ccbe3b5d88f9b0",
      "v": 28,
      "creates": null,
      "raw": "0xf87802860110c8f7d8de82c350942910543af39aba0cd09dbb2d50200b3e800a63d28a036096c18e5f04c5000089454e3059504b3841381ca00c3fdf02fc1c5de936927562b29d8a8a0e3630e32e39293889d33bffd431337ca0a58d33e4031135ac459adcf3bf9a7d4ea9a3d940fd05ad0dc5ccbe3b5d88f9b0",
      "networkId": 0,
      "chainId": 0
    },
    {
      "hash": "0xefb04a1de85296a1391c91076bd98635ee6f986d88746936d55fde0db8aa3828",
      "blockHash": "0x094232e486fb461562a117e0507943fc29d04981ec165410a993b546c6132764",
      "blockNumber": 86028,
      "transactionIndex": 1,
      "confirmations": null,
      "from": "0x007761BFEF91f6D2B5aa41B0197BF496978eEb73",
      "gasPrice": {
        "_hex": "0xba43b7400"
      },
      "gasLimit": {
        "_hex": "0x5553"
      },
      "to": "0x0000000000000000000000000000000000000000",
      "value": {
        "_hex": "0x0"
      },
      "nonce": 0,
      "data": "0x72656769737465720000000000000000000000000000000000000000000000000000000000000000000000000000000000000000000000000000000000000002",
      "r": "0x17114473e2a21ce2e03294c0be7a74055b017881dbad676c7c1d5204047afc6d",
      "s": "0x636f444aaec5f081fc6818ec08d38dd208ce4189306cfe448e0a6015488f371c",
      "v": 28,
      "creates": null,
      "raw": "0xf8a580850ba43b740082555394000000000000000000000000000000000000000080b840726567697374657200000000000000000000000000000000000000000000000000000000000000000000000000000000000000000000000000000000000000021ca017114473e2a21ce2e03294c0be7a74055b017881dbad676c7c1d5204047afc6da0636f444aaec5f081fc6818ec08d38dd208ce4189306cfe448e0a6015488f371c",
      "networkId": 0,
      "chainId": 0
    }
  ]
}