{
  "hash": "0x6d2a2ff75ff17cda5cbc9b1072a679b804b88ba1ea9eb2b1d09564f92bd40f18",
  "parentHash": "0x732112aa53fbe3326a99d4be1ad057dcff04ecec29c795c9988e9c83e6e96cb4",
  "number": 93899,
  "timestamp": 1439699502,
  "nonce": "0x570ff804cf9384be",
  "difficulty": 3464820565643,
  "gasLimit": {
    "_hex": "0x2fefd8"
  },
  "gasUsed": {
    "_hex": "0x5208"
  },
  "miner": "0xC99478b218E58F45783fA70f0507cf614938E67d",
  "extraData": "0xd983010001844765746887676f312e342e328777696e646f7773",
  "transactions": [
    {
      "hash": "0x576bc8556628adc0410f03df0eb7b1673e1d03a31fd5c4f93f1842257186286a",
      "blockHash": "0x6d2a2ff75ff17cda5cbc9b1072a679b804b88ba1ea9eb2b1d09564f92bd40f18",
      "blockNumber": 93899,
      "transactionIndex": 0,
      "confirmations": null,
      "from": "0x47ff6576639c2e94762eA5443978D7681C0E78DC",
      "gasPrice": {
        "_hex": "0xcb8da39e9"
      },
      "gasLimit": {
        "_hex": "0x5208"
      },
      "to": "0x3620db64D25D412bAb4C8d93E2e0D7e64e8Cb933",
      "value": {
        "_hex": "0x1ad5814560aa5c0000"
      },
      "nonce": 29,
      "data": "0x",
      "r": "0x9829005ebba73c3b8543d59f77a35ad9a4fd9623f70609b74c21bf43a07037bd",
      "s": "0x5d1083b334f7f2ad547a3e508d3c9714374546c0c184b689f8c696831f4d593f",
      "v": 28,
      "creates": null,
      "raw": "0xf86d1d850cb8da39e9825208943620db64d25d412bab4c8d93e2e0d7e64e8cb933891ad5814560aa5c0000801ca09829005ebba73c3b8543d59f77a35ad9a4fd9623f70609b74c21bf43a07037bda05d1083b334f7f2ad547a3e508d3c9714374546c0c184b689f8c696831f4d593f",
      "networkId": 0,
      "chainId": 0
    }
  ]
}