{
  "hash": "0x64d56d94672778676923c3a572c7bc3d92225738d91e0f8676ea9010b47dd297",
  "parentHash": "0x55bbc37720de15faaf5a5fbd8f1b45a690a1684709f710ae0af334d1b2b19494",
  "number": 47192,
  "timestamp": 1438935808,
  "nonce": "0x1b007c1e10625e67",
  "difficulty": 1463093318373,
  "gasLimit": {
    "_hex": "0xa0eb"
  },
  "gasUsed": {
    "_hex": "0x5208"
  },
  "miner": "0x91404fD245647b7a1A62120407201eaCe266dC64",
  "extraData": "0x476574682f76312e302e312f6c696e75782f676f312e342e32",
  "transactions": [
    {
      "hash": "0x1ea7963b077cf168a117b1634df2f816b7a8e09e509df347d2c7fdd9a0b35092",
      "blockHash": "0x64d56d94672778676923c3a572c7bc3d92225738d91e0f8676ea9010b47dd297",
      "blockNumber": 47192,
      "transactionIndex": 0,
      "confirmations": null,
      "from": "0x6dA78495a1077714f3Fc0f082109545D8c3C0032",
      "gasPrice": {
        "_hex": "0xdb63f1d6c"
      },
      "gasLimit": {
        "_hex": "0x5208"
      },
      "to": "0x32Be343B94f860124dC4fEe278FDCBD38C102D88",
      "value": {
        "_hex": "0x120d4936ee5fab0000"
      },
      "nonce": 0,
      "data": "0x",
      "r": "0x8c4d549863aaa5664edea0f6d500bee89cbb02c9d84cd3961995f88f455d0209",
      "s": "0x66a2a78ddc6097440dc2815b233634ff28df3afc7f0e48ed6342e5c76546f0f7",
      "v": 27,
      "creates": null,
      "raw": "0xf86d80850db63f1d6c8252089432be343b94f860124dc4fee278fdcbd38c102d8889120d4936ee5fab0000801ba08c4d549863aaa5664edea0f6d500bee89cbb02c9d84cd3961995f88f455d0209a066a2a78ddc6097440dc2815b233634ff28df3afc7f0e48ed6342e5c76546f0f7",
      "networkId": 0,
      "chainId": 0
    }
  ]
}