{
  "hash": "0x1edcc14ce997615f0fce4d5c3b0e0ce173c1547f3bd54630c1d0e4b2191b5e7c",
  "parentHash": "0xf14f70f0d377def9058624c471cef9b4b0db9b1d41318a04bfb03f5e9ebb120a",
  "number": 84415,
  "timestamp": 1439549310,
  "nonce": "0x8635d6d428ce2699",
  "difficulty": 2562688822481,
  "gasLimit": {
    "_hex": "0x2fefd8"
  },
  "gasUsed": {
    "_hex": "0x5208"
  },
  "miner": "0x9192Ca96DE0B90f2A67A2D81f4A1325CFA3Cc685",
  "extraData": "0x",
  "transactions": [
    {
      "hash": "0x75f31db01cd8a469757dda45a6d97ba6c57f9ddbada4ce5f5134a02e65a0d3c1",
      "blockHash": "0x1edcc14ce997615f0fce4d5c3b0e0ce173c1547f3bd54630c1d0e4b2191b5e7c",
      "blockNumber": 84415,
      "transactionIndex": 0,
      "confirmations": null,
      "from": "0xC759dc67E0c3816fdC56A2f5bb29920fc07e767D",
      "gasPrice": {
        "_hex": "0xd24f8cc4a"
      },
      "gasLimit": {
        "_hex": "0x5208"
      },
      "to": "0x910a4aADabb3A7B3F7879118332E13Da66b68D77",
      "value": {
        "_hex": "0x15af1d78b58c40000"
      },
      "nonce": 20,
      "data": "0x",
      "r": "0x3e895dc65f258df16ab25a3b0e6c95bbcd1c0a630652a8ceef944610acbb8a85",
      "s": "0x46ab01a249157d2519f83c0e45c20528b83aaf9dd3a7853ae8da6b71a1ec3769",
      "v": 27,
      "creates": null,
      "raw": "0xf86d14850d24f8cc4a82520894910a4aadabb3a7b3f7879118332e13da66b68d7789015af1d78b58c40000801ba03e895dc65f258df16ab25a3b0e6c95bbcd1c0a630652a8ceef944610acbb8a85a046ab01a249157d2519f83c0e45c20528b83aaf9dd3a7853ae8da6b71a1ec3769",
      "networkId": 0,
      "chainId": 0
    }
  ]
}