{
  "hash": "0x749e64e088918e59b26908d1e8396eaacc18e15b83ed748869ad17bffd0544cc",
  "parentHash": "0x7796d3584f451a102a5a7d5b6962a119ae017bb13cbb64780aa82d3104c1201b",
  "number": 109219,
  "timestamp": 1439952903,
  "nonce": "0x142aef783d8b06af",
  "difficulty": 4458180976692,
  "gasLimit": {
    "_hex": "0x2fefd8"
  },
  "gasUsed": {
    "_hex": "0xa674"
  },
  "miner": "0x580992B51e3925e23280EfB93d3047C82f17E038",
  "extraData": "0x476574682f76312e302e312f6c696e75782f676f312e342e32",
  "transactions": [
    {
      "hash": "0x335a27c619385e9550e8f7f0d450f2304dc9f6325eb35af5575a2e01e8cef862",
      "blockHash": "0x749e64e088918e59b26908d1e8396eaacc18e15b83ed748869ad17bffd0544cc",
      "blockNumber": 109219,
      "transactionIndex": 0,
      "confirmations": null,
      "from": "0xb1abce2918E21ddb93AA452731a12672A3d9F75a",
      "gasPrice": {
        "_hex": "0xd820a6ba5"
      },
      "gasLimit": {
        "_hex": "0x5208"
      },
      "to": "0x32Be343B94f860124dC4fEe278FDCBD38C102D88",
      "value": {
        "_hex": "0x455f31e4c3186400"
      },
      "nonce": 143,
      "data": "0x",
      "r": "0x66a47b41ec61ef4e51c6e528bfc4f27b527a2ee437cb916f7763106fe84d6688",
      "s": "0x0f0965c9b3fcef7ae739b9285a10494091002ff7f23348e427f2ce401d7f5327",
      "v": 27,
      "creates": null,
      "raw": "0xf86d818f850d820a6ba58252089432be343b94f860124dc4fee278fdcbd38c102d8888455f31e4c3186400801ba066a47b41ec61ef4e51c6e528bfc4f27b527a2ee437cb916f7763106fe84d6688a00f0965c9b3fcef7ae739b9285a10494091002ff7f23348e427f2ce401d7f5327",
      "networkId": 0,
      "chainId": 0
    },
    {
      "hash": "0x301d2447256522b331cc5ae74b8e0ce296f73acd3e9845365fd2bfb054b44ae5",
      "blockHash": "0x749e64e088918e59b26908d1e8396eaacc18e15b83ed748869ad17bffd0544cc",
      "blockNumber": 109219,
      "transactionIndex": 1,
      "confirmations": null,
      "from": "0x85A2F6ea94D05E8C1d9Ae2F4910338a358e98DeD",
      "gasPrice": {
        "_hex": "0xba43b7400"
      },
      "gasLimit": {
        "_hex": "0x15f90"
      },
      "to": "0xf4D60FFa86A2C7560599a493080F471D05745a38",
      "value": {
        "_hex": "0xfb88ef7839f480000"
      },
      "nonce": 6,
      "data": "0x454e373342334b5547",
      "r": "0x1e5203842400f0cd544b82582b1a7dbc841ea2559a53a08b17030e639dad86e2",
      "s": "0x02c9721e76419afd25e090f5553c57ff732daed8a8199da5648f9fe862e5c68f",
      "v": 28,
      "creates": null,
      "raw": "0xf87706850ba43b740083015f9094f4d60ffa86a2c7560599a493080f471d05745a38890fb88ef7839f48000089454e373342334b55471ca01e5203842400f0cd544b82582b1a7dbc841ea2559a53a08b17030e639dad86e2a002c9721e76419afd25e090f5553c57ff732daed8a8199da5648f9fe862e5c68f",
      "networkId": 0,
      "chainId": 0
    }
  ]
}