{
  "hash": "0x750b038927737889546091ee2668439dcb70eebedea0ee662c23f98df73eb6d0",
  "parentHash": "0xe5375f9ca74a09545723dedb8f11d4fd4ad9c5da54c8dde9aa993d1c33d5afce",
  "number": 55238,
  "timestamp": 1439067453,
  "nonce": "0xad4368dfb50b1b36",
  "difficulty": 1640216313593,
  "gasLimit": {
    "_hex": "0x2fefcc"
  },
  "gasUsed": {
    "_hex": "0x53eb"
  },
  "miner": "0xf927a40C8B7F6E07c5af7FA2155B4864a4112B13",
  "extraData": "0x",
  "transactions": [
    {
      "hash": "0xbd0bcef43f13c0df0361099c593160b90df640267bfc2f12e273ad1a6d83d919",
      "blockHash": "0x750b038927737889546091ee2668439dcb70eebedea0ee662c23f98df73eb6d0",
      "blockNumber": 55238,
      "transactionIndex": 0,
      "confirmations": null,
      "from": "0x6463F715d594A1A4aCe4bb9c3B288A74dEcf294D",
      "gasPrice": {
        "_hex": "0xd1e4d6446"
      },
      "gasLimit": {
        "_hex": "0x15f90"
      },
      "to": "0x838e90A2F735276D8c7824c3858b7CEB3AA6B110",
      "value": {
        "_hex": "0x0"
      },
      "nonce": 2,
      "data": "0x41c0e1b5",
      "r": "0xa53b340a5195e0cd2ce0c0f2272189de017efeb5c4b18f51a13eb2ff5d32c0d8",
      "s": "0x0e645ca7d0a292369525e63f0352584bf415dabc96108ea78644971cdf447098",
      "v": 28,
      "creates": null,
      "raw": "0xf86902850d1e4d644683015f9094838e90a2f735276d8c7824c3858b7ceb3aa6b110808441c0e1b51ca0a53b340a5195e0cd2ce0c0f2272189de017efeb5c4b18f51a13eb2ff5d32c0d8a00e645ca7d0a292369525e63f0352584bf415dabc96108ea78644971cdf447098",
      "networkId": 0,
      "chainId": 0
    }
  ]
}