{
  "hash": "0xbf35f1ed9a240aaac2b3205a379008b503a71bfeb837e4e7bdda86332b9267b2",
  "parentHash": "0xbb96e0e48605c19a95c0d006c97a8f75208c714877aa753fb549d48e5b70f75b",
  "number": 70747,
  "timestamp": 1439324916,
  "nonce": "0x5238f220b1fe4000",
  "difficulty": 2134251616416,
  "gasLimit": {
    "_hex": "0x2fefd8"
  },
  "gasUsed": {
    "_hex": "0x5208"
  },
  "miner": "0x785ffdDd5cE55c6DF963f345e68d3F2024E5Acb1",
  "extraData": "0x476574682f4d69676e6f7474652f76312e302e312f6c696e75782f676f312e34",
  "transactions": [
    {
      "hash": "0x85eab5aa9dc89055f7cf7b67a35fed7662b64ea7e3d67fe238334aa70f09228c",
      "blockHash": "0xbf35f1ed9a240aaac2b3205a379008b503a71bfeb837e4e7bdda86332b9267b2",
      "blockNumber": 70747,
      "transactionIndex": 0,
      "confirmations": null,
      "from": "0x8F586E3212291c58DCc78980a9c3432a3aFd3b6E",
      "gasPrice": {
        "_hex": "0xd7cfcfb83"
      },
      "gasLimit": {
        "_hex": "0x5208"
      },
      "to": "0x32Be343B94f860124dC4fEe278FDCBD38C102D88",
      "value": {
        "_hex": "0x25f26f40c942ca0000"
      },
      "nonce": 6,
      "data": "0x",
      "r": "0x6e3c409a8093ce3a537ab804ea31ef23514d6d0f6a58e40acbabe0ca06de85cc",
      "s": "0x02bca7155cdf17d67315959bfbab3c9d453474098a4f4c5811dff598c378f3b2",
      "v": 28,
      "creates": null,
      "raw": "0xf86d06850d7cfcfb838252089432be343b94f860124dc4fee278fdcbd38c102d888925f26f40c942ca0000801ca06e3c409a8093ce3a537ab804ea31ef23514d6d0f6a58e40acbabe0ca06de85cca002bca7155cdf17d67315959bfbab3c9d453474098a4f4c5811dff598c378f3b2",
      "networkId": 0,
      "chainId": 0
    }
  ]
}