{
  "hash": "0x6299f3eecffada8f17761db63d2034e99da98e22e1994b19ba83a196e0df47a0",
  "parentHash": "0x57ab393718a2a4a64e89bb2981e7a196a51073ba1142cd0f3202f1a2ca9a0b43",
  "number": 52845,
  "timestamp": 1439028184,
  "nonce": "0x4fbcb79c7f15e9a3",
  "difficulty": 1567846841740,
  "gasLimit": {
    "_hex": "0x1ab617"
  },
  "gasUsed": {
    "_hex": "0x546c"
  },
  "miner": "0xBb12b5a9B85D4AB8CDE6056E9c1b2a4a337D2261",
  "extraData": "0x476574682f76312e302e312d36393865393864392f6c696e75782f676f312e34",
  "transactions": [
    {
      "hash": "0x27334913fbd46a997419f88a2ea145dcdb46a56bc8d45b749aefcf243a852b31",
      "blockHash": "0x6299f3eecffada8f17761db63d2034e99da98e22e1994b19ba83a196e0df47a0",
      "blockNumber": 52845,
      "transactionIndex": 0,
      "confirmations": null,
      "from": "0x07800D2f8068E448c79a4f69B1f15EF682aAe5f6",
      "gasPrice": {
        "_hex": "0x110c8f7d8de"
      },
      "gasLimit": {
        "_hex": "0xc350"
      },
      "to": "0x2910543Af39abA0Cd09dBb2D50200b3E800A63D2",
      "value": {
        "_hex": "0x32d26d12e980b600000"
      },
      "nonce": 0,
      "data": "0x454e3657304a464a30",
      "r": "0x7f27033dc6aaff03ebaf27585cf62d6db6d8ef34ba0334b1af037a5da9eda216",
      "s": "0x00e8d6793f6a512bbf7f7e7cefd71c06938461a7db9e02a7b90774c5e3fd8927",
      "v": 28,
      "creates": null,
      "raw": "0xf87780860110c8f7d8de82c350942910543af39aba0cd09dbb2d50200b3e800a63d28a032d26d12e980b60000089454e3657304a464a301ca07f27033dc6aaff03ebaf27585cf62d6db6d8ef34ba0334b1af037a5da9eda2169fe8d6793f6a512bbf7f7e7cefd71c06938461a7db9e02a7b90774c5e3fd8927",
      "networkId": 0,
      "chainId": 0
    }
  ]
}