{
  "hash": "0x9fa84f0c8f515be13bb84bef621d4dd3e1af4805c6daf795584b2f3746dd0f03",
  "parentHash": "0x3ead68fa9166c3fba275bfc5ff66c0ca0e1cf5821da329585fcb257b4f50cb0f",
  "number": 52582,
  "timestamp": 1439023886,
  "nonce": "0xf3e5ada625d1ffe2",
  "difficulty": 1567130610313,
  "gasLimit": {
    "_hex": "0x15dac4"
  },
  "gasUsed": {
    "_hex": "0xf4240"
  },
  "miner": "0xbb7B8287f3F0a933474a79eAe42CBCa977791171",
  "extraData": "0x476574682f4c5649562f76312e302e312f6c696e75782f676f312e342e32",
  "transactions": [
    {
      "hash": "0x480c63ab79b8dfddf72d1ca71bef3da65f7127b0712bb0f731097674cac188df",
      "blockHash": "0x9fa84f0c8f515be13bb84bef621d4dd3e1af4805c6daf795584b2f3746dd0f03",
      "blockNumber": 52582,
      "transactionIndex": 0,
      "confirmations": null,
      "from": "0x54dAeb3E8a6BBC797E4aD2b0339f134b186e4637",
      "gasPrice": {
        "_hex": "0xdf4ba21f9"
      },
      "gasLimit": {
        "_hex": "0x7a120"
      },
      "to": "0xBAA54d6E90c3F4d7Ebec11bD180134C7eD8eBb52",
      "value": {
        "_hex": "0x16345785d8a0000"
      },
      "nonce": 759,
      "data": "0x",
      "r": "0x5a27e195d01e7df152e2520a86938eeb167a8791e119ec8651a65dab5174f74c",
      "s": "0x002d2dced09d2e77e885b973623b839b2d7b012a38edd36590f2bb60b3150b9c",
      "v": 27,
      "creates": null,
      "raw": "0xf86e8202f7850df4ba21f98307a12094baa54d6e90c3f4d7ebec11bd180134c7ed8ebb5288016345785d8a0000801ba05a27e195d01e7df152e2520a86938eeb167a8791e119ec8651a65dab5174f74c9f2d2dced09d2e77e885b973623b839b2d7b012a38edd36590f2bb60b3150b9c",
      "networkId": 0,
      "chainId": 0
    },
    {
      "hash": "0x775ec1c5875941828d8eb9d72b5839600c09529920a167f516dcb285ce543abc",
      "blockHash": "0x9fa84f0c8f515be13bb84bef621d4dd3e1af4805c6daf795584b2f3746dd0f03",
      "blockNumber": 52582,
      "transactionIndex": 1,
      "confirmations": null,
      "from": "0x54dAeb3E8a6BBC797E4aD2b0339f134b186e4637",
      "gasPrice": {
        "_hex": "0xe7d27df17"
      },
      "gasLimit": {
        "_hex": "0x7a120"
      },
      "to": "0xBAA54d6E90c3F4d7Ebec11bD180134C7eD8eBb52",
      "value": {
        "_hex": "0x16345785d8a0000"
      },
      "nonce": 760,
      "data": "0x",
      "r": "0x172f23cba1e0a4f67747e9737bb605629242e488d56c567df176c765b6bdf7a6",
      "s": "0x0b59c8b18e66ac16043fa8eec02b20213231fbf6791f9f41dbb7d7b72232310b",
      "v": 28,
      "creates": null,
      "raw": "0xf86f8202f8850e7d27df178307a12094baa54d6e90c3f4d7ebec11bd180134c7ed8ebb5288016345785d8a0000801ca0172f23cba1e0a4f67747e9737bb605629242e488d56c567df176c765b6bdf7a6a00b59c8b18e66ac16043fa8eec02b20213231fbf6791f9f41dbb7d7b72232310b",
      "networkId": 0,
      "chainId": 0
    }
  ]
}