{
  "hash": "0x5dea33fa57345a733c5cf7c697a61fe9995b707065d87f0b9a72914be39817d7",
  "parentHash": "0xdec10fc045a088346322840313837e81927f0d00416a85789e6af7e4e51d7dcf",
  "number": 102637,
  "timestamp": 1439840871,
  "nonce": "0xf8b27b72127532ee",
  "difficulty": 4026857902620,
  "gasLimit": {
    "_hex": "0x2fefd8"
  },
  "gasUsed": {
    "_hex": "0x5208"
  },
  "miner": "0xf927a40C8B7F6E07c5af7FA2155B4864a4112B13",
  "extraData": "0x",
  "transactions": [
    {
      "hash": "0xd87b38e44a085fca71e3ab68bf01483fe3a45637a3402a783b4d2fecc6de57f0",
      "blockHash": "0x5dea33fa57345a733c5cf7c697a61fe9995b707065d87f0b9a72914be39817d7",
      "blockNumber": 102637,
      "transactionIndex": 0,
      "confirmations": null,
      "from": "0x2910543Af39abA0Cd09dBb2D50200b3E800A63D2",
      "gasPrice": {
        "_hex": "0xd8f14787e"
      },
      "gasLimit": {
        "_hex": "0x5208"
      },
      "to": "0x4319859681be12b36f4420F4A26FD67429306cD1",
      "value": {
        "_hex": "0xf0c92e46fe903ac000"
      },
      "nonce": 999,
      "data": "0x",
      "r": "0x54974394045e73084a27ad530a8d161c69e1e04e8d5bd2d1c0717332656c3c8c",
      "s": "0x34d2cfe6e24928e78f20e6285674d0160212ed7eeddcee2196320a6c9d3c5fa6",
      "v": 27,
      "creates": null,
      "raw": "0xf86f8203e7850d8f14787e825208944319859681be12b36f4420f4a26fd67429306cd189f0c92e46fe903ac000801ba054974394045e73084a27ad530a8d161c69e1e04e8d5bd2d1c0717332656c3c8ca034d2cfe6e24928e78f20e6285674d0160212ed7eeddcee2196320a6c9d3c5fa6",
      "networkId": 0,
      "chainId": 0
    }
  ]
}