{
  "hash": "0x5a8847b71756a7daf24148d87c0068cf52bc3573cd41061c82ec9ba79adce3c0",
  "parentHash": "0x8dd2773f8346e6533664b8c4ad7252c3925d448109f7b2458fb4c1d0c63f61f8",
  "number": 112652,
  "timestamp": 1440010805,
  "nonce": "0xd220a541111030f4",
  "difficulty": 4428159025345,
  "gasLimit": {
    "_hex": "0x2fefd8"
  },
  "gasUsed": {
    "_hex": "0x5208"
  },
  "miner": "0xb6E2d440C46510EC44266A3f58165E3956173df0",
  "extraData": "0x476574682f76312e302e312f77696e646f77732f676f312e342e32",
  "transactions": [
    {
      "hash": "0xfcca8bb6eb4b86c2d30897bdd73b8cc30e5256da2cf4dc28094b0043057c5673",
      "blockHash": "0x5a8847b71756a7daf24148d87c0068cf52bc3573cd41061c82ec9ba79adce3c0",
      "blockNumber": 112652,
      "transactionIndex": 0,
      "confirmations": null,
      "from": "0x32Be343B94f860124dC4fEe278FDCBD38C102D88",
      "gasPrice": {
        "_hex": "0xd1342c4ed"
      },
      "gasLimit": {
        "_hex": "0x5208"
      },
      "to": "0xcf1Ff05a6E5c3E328dDfEB4C867DD56F26CF47D9",
      "value": {
        "_hex": "0x1ce21f2142731d0000"
      },
      "nonce": 1345,
      "data": "0x",
      "r": "0xeeea8b178b344fa0759643845a1d3ecfc7e3e9e7b2396226843fbd2f04a87e06",
      "s": "0x6236d12e7e13b9ee982f41a5b43d5a746dae090163e49908ae53fc5eb3dfc3c8",
      "v": 27,
      "creates": null,
      "raw": "0xf86f820541850d1342c4ed82520894cf1ff05a6e5c3e328ddfeb4c867dd56f26cf47d9891ce21f2142731d0000801ba0eeea8b178b344fa0759643845a1d3ecfc7e3e9e7b2396226843fbd2f04a87e06a06236d12e7e13b9ee982f41a5b43d5a746dae090163e49908ae53fc5eb3dfc3c8",
      "networkId": 0,
      "chainId": 0
    }
  ]
}