{
  "hash": "0xf96cacb499cf7208616a41190b6f1bbc1c35dd27d1023d84bd4a1458acc3a265",
  "parentHash": "0xdf2dda33f25df0ba4ebc4293979df5fa49215f6bb2c3a60ca8e8181575653969",
  "number": 95962,
  "timestamp": 1439732671,
  "nonce": "0x9f0144190a920d84",
  "difficulty": 3621355904507,
  "gasLimit": {
    "_hex": "0x2fefd8"
  },
  "gasUsed": {
    "_hex": "0x1345e"
  },
  "miner": "0x6F2a83BC1c1846bf84ffC43B8776f1AA4a9F890F",
  "extraData": "0x",
  "transactions": [
    {
      "hash": "0x28ce8281021f9bd82015edc421fb4656f826112533bbe0a18072da3bc8c576ba",
      "blockHash": "0xf96cacb499cf7208616a41190b6f1bbc1c35dd27d1023d84bd4a1458acc3a265",
      "blockNumber": 95962,
      "transactionIndex": 0,
      "confirmations": null,
      "from": "0xFBb1b73C4f0BDa4f67dcA266ce6Ef42f520fBB98",
      "gasPrice": {
        "_hex": "0xd492be2d1"
      },
      "gasLimit": {
        "_hex": "0x15f90"
      },
      "to": "0xCAc7000C7dBaa2E33Af15325AF5D435E011C7BdD",
      "value": {
        "_hex": "0x0"
      },
      "nonce": 69,
      "data": "0x3feb1bd8424954545245583030000000000000000000000000000000000000000000000000000000000000000000000022e0c62907dd87f79f14b55b223c50eb048e85e200000000000000000000000000000000000000000000000a72a3a8cdb0234000",
      "r": "0x22cf1648929fa5517a08b827d364e497212eb0833e76264cb65cb467c6d0ae65",
      "s": "0x5ca38969094494dc8b987d85d98319b2a83dbdb56bf25e4c74183fc14bdbbacc",
      "v": 28,
      "creates": null,
      "raw": "0xf8ca45850d492be2d183015f9094cac7000c7dbaa2e33af15325af5d435e011c7bdd80b8643feb1bd8424954545245583030000000000000000000000000000000000000000000000000000000000000000000000022e0c62907dd87f79f14b55b223c50eb048e85e200000000000000000000000000000000000000000000000a72a3a8cdb02340001ca022cf1648929fa5517a08b827d364e497212eb0833e76264cb65cb467c6d0ae65a05ca38969094494dc8b987d85d98319b2a83dbdb56bf25e4c74183fc14bdbbacc",
      "networkId": 0,
      "chainId": 0
    },
    {
      "hash": "0xe860bce401f3b37c8dcc0084fd6f360e45faaed5d705576f747146c435d91f66",
      "blockHash": "0xf96cacb499cf7208616a41190b6f1bbc1c35dd27d1023d84bd4a1458acc3a265",
      "blockNumber": 95962,
      "transactionIndex": 1,
      "confirmations": null,
      "from": "0x59C62d3D43f9EA1c4118d98c188AA5d028b8bB8E",
      "gasPrice": {
        "_hex": "0xcba5c79f6"
      },
      "gasLimit": {
        "_hex": "0x5208"
      },
      "to": "0x32Be343B94f860124dC4fEe278FDCBD38C102D88",
      "value": {
        "_hex": "0x2707c097d2c6c2000"
      },
      "nonce": 12,
      "data": "0x",
      "r": "0xf3d920e51a875e355ab5ce18c82c8d1df03946c39b03480b146aa52388c90dbf",
      "s": "0x0c65d108d77747633733a069404f1f5cd078430488299ef5bdf812d1cc5bc14b",
      "v": 28,
      "creates": null,
      "raw": "0xf86d0c850cba5c79f68252089432be343b94f860124dc4fee278fdcbd38c102d888902707c097d2c6c2000801ca0f3d920e51a875e355ab5ce18c82c8d1df03946c39b03480b146aa52388c90dbfa00c65d108d77747633733a069404f1f5cd078430488299ef5bdf812d1cc5bc14b",
      "networkId": 0,
      "chainId": 0
    }
  ]
}