{
  "hash": "0x90ddd928b7586ba138f614175e5365072b9777ee0b57ea6cc5f5ed03bc404640",
  "parentHash": "0xfa670e048c57b74d49de100faea67664bd33ee1845a62d2bb53b59d218783ae5",
  "number": 92686,
  "timestamp": 1439675610,
  "nonce": "0x69b1dee225eff20f",
  "difficulty": 3584062223023,
  "gasLimit": {
    "_hex": "0x2fefd8"
  },
  "gasUsed": {
    "_hex": "0xa410"
  },
  "miner": "0xe6A7a1d47ff21B6321162AEA7C6CB457D5476Bca",
  "extraData": "0x476574682f76312e302e312d38326566323666362f6c696e75782f676f312e34",
  "transactions": [
    {
      "hash": "0xc5c6e0f699a830e0115673951c1b26a9fe61587714cb994e11866935e517e0d2",
      "blockHash": "0x90ddd928b7586ba138f614175e5365072b9777ee0b57ea6cc5f5ed03bc404640",
      "blockNumber": 92686,
      "transactionIndex": 0,
      "confirmations": null,
      "from": "0x2910543Af39abA0Cd09dBb2D50200b3E800A63D2",
      "gasPrice": {
        "_hex": "0xd933116b4"
      },
      "gasLimit": {
        "_hex": "0x5208"
      },
      "to": "0x88a3A281cb562aA8166eA9Ce3040Ac2672873935",
      "value": {
        "_hex": "0x5fda23604a82de000"
      },
      "nonce": 833,
      "data": "0x",
      "r": "0x11c9b3e13ff6eda942ea44f99ce74b365dd41c19f90ff5e8c2d0f4e0db103fac",
      "s": "0x6dce147f1ecc5003deec4c2d8ee682ce628e20717fa4f1906c18f74777c5be4a",
      "v": 27,
      "creates": null,
      "raw": "0xf86f820341850d933116b48252089488a3a281cb562aa8166ea9ce3040ac26728739358905fda23604a82de000801ba011c9b3e13ff6eda942ea44f99ce74b365dd41c19f90ff5e8c2d0f4e0db103faca06dce147f1ecc5003deec4c2d8ee682ce628e20717fa4f1906c18f74777c5be4a",
      "networkId": 0,
      "chainId": 0
    },
    {
      "hash": "0xac3eb5ebc4c903c6258a19c725e75ba335a6f78d1d1a557220087f98920f84da",
      "blockHash": "0x90ddd928b7586ba138f614175e5365072b9777ee0b57ea6cc5f5ed03bc404640",
      "blockNumber": 92686,
      "transactionIndex": 1,
      "confirmations": null,
      "from": "0x458F183347F45a4001807728A89F31E9Da9D4A58",
      "gasPrice": {
        "_hex": "0xcf7fab225"
      },
      "gasLimit": {
        "_hex": "0x15f90"
      },
      "to": "0x7fa165177F28D171bA7C17f765c1904344Ec64CB",
      "value": {
        "_hex": "0x23799fd4d717a0000"
      },
      "nonce": 31,
      "data": "0x",
      "r": "0x3a329d2a30f402e50444b62acc517f2476bbc714574915f160050f67b3303ede",
      "s": "0x3ab9142ae7568c0e225bab14837fb3b86103e742c00e0f185b5de0b25aa516d9",
      "v": 28,
      "creates": null,
      "raw": "0xf86e1f850cf7fab22583015f90947fa165177f28d171ba7c17f765c1904344ec64cb89023799fd4d717a0000801ca03a329d2a30f402e50444b62acc517f2476bbc714574915f160050f67b3303edea03ab9142ae7568c0e225bab14837fb3b86103e742c00e0f185b5de0b25aa516d9",
      "networkId": 0,
      "chainId": 0
    }
  ]
}