{
  "hash": "0x46c427881e2b3df03870d10e4921ef7187e8ade2184734e5a06d8f21a7106fb4",
  "parentHash": "0x426d0ce2f5a0c786ceccce45ac2680c824c38ca7651d6ae5502045f74fd08def",
  "number": 111984,
  "timestamp": 1439999962,
  "nonce": "0xe3a645e2f4db5ac6",
  "difficulty": 4385474956301,
  "gasLimit": {
    "_hex": "0x2fefd8"
  },
  "gasUsed": {
    "_hex": "0x5208"
  },
  "miner": "0xe6A7a1d47ff21B6321162AEA7C6CB457D5476Bca",
  "extraData": "0x476574682f76312e302e312d38326566323666362f6c696e75782f676f312e34",
  "transactions": [
    {
      "hash": "0xd2a9f2ca9e8321a66574cc05013fc3d2bf22ee174cd140f6806f9c7ca9b14617",
      "blockHash": "0x46c427881e2b3df03870d10e4921ef7187e8ade2184734e5a06d8f21a7106fb4",
      "blockNumber": 111984,
      "transactionIndex": 0,
      "confirmations": null,
      "from": "0x60f7C29656Fc491e766750556fE4F0E407f81eB5",
      "gasPrice": {
        "_hex": "0xcdbe192f2"
      },
      "gasLimit": {
        "_hex": "0x15f90"
      },
      "to": "0x5773DFFDd4AD3114CAB6eFE3b9Ca703Fa450Fe40",
      "value": {
        "_hex": "0x16345785d8a0000"
      },
      "nonce": 10,
      "data": "0x",
      "r": "0xd27cfe8c2b6e1e59dc43aff2420ca6c17c03fc628c3727af67c2c9d2e76bb252",
      "s": "0x7bd9cf6e58c65f461abbf927c9e9e331dade802ea6ca5f655c90f7ff9c395400",
      "v": 27,
      "creates": null,
      "raw": "0xf86d0a850cdbe192f283015f90945773dffdd4ad3114cab6efe3b9ca703fa450fe4088016345785d8a0000801ba0d27cfe8c2b6e1e59dc43aff2420ca6c17c03fc628c3727af67c2c9d2e76bb252a07bd9cf6e58c65f461abbf927c9e9e331dade802ea6ca5f655c90f7ff9c395400",
      "networkId": 0,
      "chainId": 0
    }
  ]
}