{
  "hash": "0xc583265e30d9c9f2b59fe20c0741b4233d3f524dc95501cde5287ebe0344b747",
  "parentHash": "0xb5b60d6cc62aa9fb841b44f273b76e01b8b8aac506233fb1c1e4668fea0ddd0f",
  "number": 80736,
  "timestamp": 1439490073,
  "nonce": "0xccb5cf84ed10ce2c",
  "difficulty": 2435680209399,
  "gasLimit": {
    "_hex": "0x2fefd8"
  },
  "gasUsed": {
    "_hex": "0x5208"
  },
  "miner": "0xfC25864D8326b4CB335C6942218e5F4Ee8D1E1EF",
  "extraData": "0x476574682f76312e302e312f77696e646f77732f676f312e342e32",
  "transactions": [
    {
      "hash": "0x1eae52e69caae0002371c80917720c1de13486c47fd45c32a3e93b9762b5cb63",
      "blockHash": "0xc583265e30d9c9f2b59fe20c0741b4233d3f524dc95501cde5287ebe0344b747",
      "blockNumber": 80736,
      "transactionIndex": 0,
      "confirmations": null,
      "from": "0x120A270bbC009644e35F0bB6ab13f95b8199c4ad",
      "gasPrice": {
        "_hex": "0xdbd1016a3"
      },
      "gasLimit": {
        "_hex": "0x3d090"
      },
      "to": "0xf03f75Aa64b7f7Cd8A431b620353C0c493a95f47",
      "value": {
        "_hex": "0x5fd8d0682a2687c00"
      },
      "nonce": 347,
      "data": "0x",
      "r": "0xd862a7e22902e252215cdd5c0794e1e4362f501fbe6a6fadbdf363fede2887fe",
      "s": "0x13693b9bb359180f8b62e1b643a20db3704be29a9739ef0fe013ac92d1587e93",
      "v": 27,
      "creates": null,
      "raw": "0xf87082015b850dbd1016a38303d09094f03f75aa64b7f7cd8a431b620353c0c493a95f478905fd8d0682a2687c00801ba0d862a7e22902e252215cdd5c0794e1e4362f501fbe6a6fadbdf363fede2887fea013693b9bb359180f8b62e1b643a20db3704be29a9739ef0fe013ac92d1587e93",
      "networkId": 0,
      "chainId": 0
    }
  ]
}