{
  "hash": "0x14ff351d2633aada816a1211d83b729011be6f086ad868f4ea99e416fc7c09c9",
  "parentHash": "0x9a24914fead533561926b537f9833a3db2325ef59d0783d0a08f97746853082e",
  "number": 65631,
  "timestamp": 1439240353,
  "nonce": "0xe36bf24f77d320e8",
  "difficulty": 1936863033605,
  "gasLimit": {
    "_hex": "0x2fefd8"
  },
  "gasUsed": {
    "_hex": "0x7c2d"
  },
  "miner": "0x2134e2a2b718DCa96580ECAC31E653Ea1fdd58DA",
  "extraData": "0x476574682f76312e302e312f77696e646f77732f676f312e342e32",
  "transactions": [
    {
      "hash": "0x834934037b1f773a3477869881c362bac46b8c8895dc80021448d89c04e90fbc",
      "blockHash": "0x14ff351d2633aada816a1211d83b729011be6f086ad868f4ea99e416fc7c09c9",
      "blockNumber": 65631,
      "transactionIndex": 0,
      "confirmations": null,
      "from": "0x976349705b839e2F5719387Fb27D2519d519da03",
      "gasPrice": {
        "_hex": "0xd8c1e0eaf"
      },
      "gasLimit": {
        "_hex": "0x15f90"
      },
      "to": "0x125B606C67E8066Da65069652b656c19717745Fa",
      "value": {
        "_hex": "0x13fbe85edc90000"
      },
      "nonce": 6,
      "data": "0xa55526db",
      "r": "0x5812dded7002fc3b31a84958229987865d1fc3292bc556922abca8a278862675",
      "s": "0x5c8bdda0b789dc9c0f79afe54802c07fa436480704cd32573ff26517184b16a5",
      "v": 28,
      "creates": null,
      "raw": "0xf87106850d8c1e0eaf83015f9094125b606c67e8066da65069652b656c19717745fa88013fbe85edc9000084a55526db1ca05812dded7002fc3b31a84958229987865d1fc3292bc556922abca8a278862675a05c8bdda0b789dc9c0f79afe54802c07fa436480704cd32573ff26517184b16a5",
      "networkId": 0,
      "chainId": 0
    }
  ]
}