{
  "hash": "0x8c24152173482305e8b71dde7da90a7f42adef540b3cb2a2a602f11451aabbd3",
  "parentHash": "0x2b1dd70c3e33c325cf48d35ca811dd2c44d0d56e6c4695416eb71db29079b55f",
  "number": 96143,
  "timestamp": 1439735689,
  "nonce": "0xa74e734ae90e65bc",
  "difficulty": 3640780319843,
  "gasLimit": {
    "_hex": "0x2fefd8"
  },
  "gasUsed": {
    "_hex": "0x5208"
  },
  "miner": "0xe6A7a1d47ff21B6321162AEA7C6CB457D5476Bca",
  "extraData": "0x476574682f76312e302e312d38326566323666362f6c696e75782f676f312e34",
  "transactions": [
    {
      "hash": "0x83700e113ea59cc0621731fd50ec456542315662166ea56131c17302b27923df",
      "blockHash": "0x8c24152173482305e8b71dde7da90a7f42adef540b3cb2a2a602f11451aabbd3",
      "blockNumber": 96143,
      "transactionIndex": 0,
      "confirmations": null,
      "from": "0xb1abce2918E21ddb93AA452731a12672A3d9F75a",
      "gasPrice": {
        "_hex": "0xdcd66c1b7"
      },
      "gasLimit": {
        "_hex": "0x5208"
      },
      "to": "0x32Be343B94f860124dC4fEe278FDCBD38C102D88",
      "value": {
        "_hex": "0x455f1aaa4477bc00"
      },
      "nonce": 49,
      "data": "0x",
      "r": "0xfa756cdba67a7953eb7d34ffb7a564c55200dd1b6b45ce0e5db585e65211e2fe",
      "s": "0x40e7d604fdd29f88fd707a9a30fa6c121b3850bfc6aea1dccbf63fca9ed2108c",
      "v": 28,
      "creates": null,
      "raw": "0xf86c31850dcd66c1b78252089432be343b94f860124dc4fee278fdcbd38c102d8888455f1aaa4477bc00801ca0fa756cdba67a7953eb7d34ffb7a564c55200dd1b6b45ce0e5db585e65211e2fea040e7d604fdd29f88fd707a9a30fa6c121b3850bfc6aea1dccbf63fca9ed2108c",
      "networkId": 0,
      "chainId": 0
    }
  ]
}