{
  "hash": "0x03d0ba9ceb045379443caf6ee6f86e0df5006490918cd62ed41cfe453630581b",
  "parentHash": "0x2d6abf6a928b00eee9d93668c46b9d0c78a9ebe5f91b116e904cb7624af8319d",
  "number": 54545,
  "timestamp": 1439055856,
  "nonce": "0xbcc3692c8e9115d0",
  "difficulty": 1617287860919,
  "gasLimit": {
    "_hex": "0x2fefd8"
  },
  "gasUsed": {
    "_hex": "0xa410"
  },
  "miner": "0x4947190fcC30D3fb3a16233b259bFe6b3492339a",
  "extraData": "0x",
  "transactions": [
    {
      "hash": "0x3cd3d8914d5e75b232451067dd008f8e01569118b155f4e77118aa1b938712b1",
      "blockHash": "0x03d0ba9ceb045379443caf6ee6f86e0df5006490918cd62ed41cfe453630581b",
      "blockNumber": 54545,
      "transactionIndex": 0,
      "confirmations": null,
      "from": "0xb6c00721Fbd69a851EE6456d71C429fBd8f0d022",
      "gasPrice": {
        "_hex": "0xcdbe704ed"
      },
      "gasLimit": {
        "_hex": "0x5208"
      },
      "to": "0x32Be343B94f860124dC4fEe278FDCBD38C102D88",
      "value": {
        "_hex": "0x3cb6dd64876496000"
      },
      "nonce": 2,
      "data": "0x",
      "r": "0xd0b275fa5875322deaaf02ac15d90e2acf5911b4aa86c1937f2495e4acc22990",
      "s": "0x2e6f2bbf291bce207a32ab2bb8ab6a62135713f1a107bfd1bf0a6bbe27ac348a",
      "v": 28,
      "creates": null,
      "raw": "0xf86d02850cdbe704ed8252089432be343b94f860124dc4fee278fdcbd38c102d888903cb6dd64876496000801ca0d0b275fa5875322deaaf02ac15d90e2acf5911b4aa86c1937f2495e4acc22990a02e6f2bbf291bce207a32ab2bb8ab6a62135713f1a107bfd1bf0a6bbe27ac348a",
      "networkId": 0,
      "chainId": 0
    },
    {
      "hash": "0x34e539cf767d106a74644bc8a58606a1fe1b239ea43e77ff172d118f5b766666",
      "blockHash": "0x03d0ba9ceb045379443caf6ee6f86e0df5006490918cd62ed41cfe453630581b",
      "blockNumber": 54545,
      "transactionIndex": 1,
      "confirmations": null,
      "from": "0x60780933D9a5A8e8E3ab20CB6382cd314f04065F",
      "gasPrice": {
        "_hex": "0xcdbe704ed"
      },
      "gasLimit": {
        "_hex": "0x5208"
      },
      "to": "0x32Be343B94f860124dC4fEe278FDCBD38C102D88",
      "value": {
        "_hex": "0xdb025a2e7eae800"
      },
      "nonce": 3,
      "data": "0x",
      "r": "0x2aecef56c8f8d3619501aa80addd5765fc74622062831d273595fa8daf24c945",
      "s": "0x7476df3b1acd52a3f490876deb95727328ec54022a22bff9e72d450ed78d8f6d",
      "v": 28,
      "creates": null,
      "raw": "0xf86c03850cdbe704ed8252089432be343b94f860124dc4fee278fdcbd38c102d88880db025a2e7eae800801ca02aecef56c8f8d3619501aa80addd5765fc74622062831d273595fa8daf24c945a07476df3b1acd52a3f490876deb95727328ec54022a22bff9e72d450ed78d8f6d",
      "networkId": 0,
      "chainId": 0
    }
  ]
}