{
  "hash": "0x5c518864c2c4716802322d4053994762b2332fe315f31a07d8dd2304ffbb878e",
  "parentHash": "0xf60c3f38df31079153469f215bf726d1cf8b9b0a3f942904503ac29528a5a796",
  "number": 68427,
  "timestamp": 1439287701,
  "nonce": "0xe47b25e75b37829f",
  "difficulty": 2013347712510,
  "gasLimit": {
    "_hex": "0x2fefd8"
  },
  "gasUsed": {
    "_hex": "0x1346ff"
  },
  "miner": "0x0Cb6EEF179Ba9E7036f95bEEB01e250ab85A8c88",
  "extraData": "0x476574682f76312e302e312f77696e646f77732f676f312e342e32",
  "transactions": [
    {
      "hash": "0x0df98b6aae2b6eba17f38336372ed70c197f236eda9af07895dd71c83c6adb74",
      "blockHash": "0x5c518864c2c4716802322d4053994762b2332fe315f31a07d8dd2304ffbb878e",
      "blockNumber": 68427,
      "transactionIndex": 0,
      "confirmations": null,
      "from": "0xbB7735934F8229F1fc2e76F7AfD82e14AA1e8E81",
      "gasPrice": {
        "_hex": "0xdfed1488d"
      },
      "gasLimit": {
        "_hex": "0x61a80"
      },
      "to": "0x5Fe5B7546D1628f7348B023A0393de1FC825A4fD",
      "value": {
        "_hex": "0xde0b6b3a7640000"
      },
      "nonce": 3,
      "data": "0xb595b8b50000000000000000000000000000000000000000000000000000000000000000",
      "r": "0xf3da98486198f8f9be9e78ab2accf38c792d994ab221015a1929bcc5b798d534",
      "s": "0x25fe4f2f90f775cc3f352f4d764e2879beb3f1436cc25dc0f903864731fc9e77",
      "v": 27,
      "creates": null,
      "raw": "0xf89103850dfed1488d83061a80945fe5b7546d1628f7348b023a0393de1fc825a4fd880de0b6b3a7640000a4b595b8b500000000000000000000000000000000000000000000000000000000000000001ba0f3da98486198f8f9be9e78ab2accf38c792d994ab221015a1929bcc5b798d534a025fe4f2f90f775cc3f352f4d764e2879beb3f1436cc25dc0f903864731fc9e77",
      "networkId": 0,
      "chainId": 0
    },
    {
      "hash": "0x8f039a00aabac54dd0c8cd40ff7aeaa46b335c66953f36035de40138496e77da",
      "blockHash": "0x5c518864c2c4716802322d4053994762b2332fe315f31a07d8dd2304ffbb878e",
      "blockNumber": 68427,
      "transactionIndex": 1,
      "confirmations": null,
      "from": "0xdE725c8Bc4Aa12FcCE9C4d7488274BA27913975c",
      "gasPrice": {
        "_hex": "0xba43b7400"
      },
      "gasLimit": {
        "_hex": "0x15f90"
      },
      "to": "0x793AE8C1b1a160BFc07BFB0d04F85eab1A71F4f2",
      "value": {
        "_hex": "0x0"
      },
      "nonce": 0,
      "data": "0x3ba15036",
      "r": "0xc64af278a3f5b77788c094278edc512138d26df168e21b94270cc279770c8030",
      "s": "0x1bebe0de922edaa2c48a5b1b1cd9b435f3653e803280e37ecd9fcbf15c7fa3ca",
      "v": 28,
      "creates": null,
      "raw": "0xf86980850ba43b740083015f9094793ae8c1b1a160bfc07bfb0d04f85eab1a71f4f280843ba150361ca0c64af278a3f5b77788c094278edc512138d26df168e21b94270cc279770c8030a01bebe0de922edaa2c48a5b1b1cd9b435f3653e803280e37ecd9fcbf15c7fa3ca",
      "networkId": 0,
      "chainId": 0
    },
    {
      "hash": "0x6d56b432a84d693af1f4385e3b664bfdd8686f20b6da605191df87afa4c2514d",
      "blockHash": "0x5c518864c2c4716802322d4053994762b2332fe315f31a07d8dd2304ffbb878e",
      "blockNumber": 68427,
      "transactionIndex": 2,
      "confirmations": null,
      "from": "0xa3D5AB3C7a52FA0FF71f0889eb8dAdAfF09D7022",
      "gasPrice": {
        "_hex": "0xba43b7400"
      },
      "gasLimit": {
        "_hex": "0x15f90"
      },
      "to": "0x793AE8C1b1a160BFc07BFB0d04F85eab1A71F4f2",
      "value": {
        "_hex": "0x0"
      },
      "nonce": 0,
      "data": "0x3ba15036",
      "r": "0x5cd8522599832c1f0252b385eabc2e0e78dfc01c477f72ea584c0d828bcd6c62",
      "s": "0x3e891e7e29eb6ed8b5bb422ebdd6ecfac102034a4873a064d436ce7709992a1f",
      "v": 27,
      "creates": null,
      "raw": "0xf86980850ba43b740083015f9094793ae8c1b1a160bfc07bfb0d04f85eab1a71f4f280843ba150361ba05cd8522599832c1f0252b385eabc2e0e78dfc01c477f72ea584c0d828bcd6c62a03e891e7e29eb6ed8b5bb422ebdd6ecfac102034a4873a064d436ce7709992a1f",
      "networkId": 0,
      "chainId": 0
    },
    {
      "hash": "0x7a4252895e57cabfa6fd003e73cd9d7c5b1d11517ad4c5754f46b7e1a1c29f9f",
      "blockHash": "0x5c518864c2c4716802322d4053994762b2332fe315f31a07d8dd2304ffbb878e",
      "blockNumber": 68427,
      "transactionIndex": 3,
      "confirmations": null,
      "from": "0x825294bf5C8888722248Fd3fB82BC3eC343500b4",
      "gasPrice": {
        "_hex": "0xba43b7400"
      },
      "gasLimit": {
        "_hex": "0x15f90"
      },
      "to": "0x793AE8C1b1a160BFc07BFB0d04F85eab1A71F4f2",
      "value": {
        "_hex": "0x0"
      },
      "nonce": 0,
      "data": "0x3ba15036",
      "r": "0x15938cd0eabee7f851c2428aa8831248d82c601f60865d31128990186b40079b",
      "s": "0x3e7e706ac511640d6e7cf0c065f03fe040804193415a0d2fd4e00e7a3708091d",
      "v": 27,
      "creates": null,
      "raw": "0xf86980850ba43b740083015f9094793ae8c1b1a160bfc07bfb0d04f85eab1a71f4f280843ba150361ba015938cd0eabee7f851c2428aa8831248d82c601f60865d31128990186b40079ba03e7e706ac511640d6e7cf0c065f03fe040804193415a0d2fd4e00e7a3708091d",
      "networkId": 0,
      "chainId": 0
    },
    {
      "hash": "0x39fedcf9ca76a685c988f601f5f3ee5752ae4600003459a21224c2641dfab7ae",
      "blockHash": "0x5c518864c2c4716802322d4053994762b2332fe315f31a07d8dd2304ffbb878e",
      "blockNumber": 68427,
      "transactionIndex": 4,
      "confirmations": null,
      "from": "0x3715fFAde7173D0EaFa118Ef4F70f94679456B94",
      "gasPrice": {
        "_hex": "0xba43b7400"
      },
      "gasLimit": {
        "_hex": "0x15f90"
      },
      "to": "0x793AE8C1b1a160BFc07BFB0d04F85eab1A71F4f2",
      "value": {
        "_hex": "0x0"
      },
      "nonce": 0,
      "data": "0x3ba15036",
      "r": "0xe8fe5314e3e280c7b8985020d8f71d4d87cbd962ee9abbcf37452b5abe7cc12f",
      "s": "0x53ae8b2aa365aa693961619efe18aaaf78bde530ff0a33175c0091a257d712fd",
      "v": 28,
      "creates": null,
      "raw": "0xf86980850ba43b740083015f9094793ae8c1b1a160bfc07bfb0d04f85eab1a71f4f280843ba150361ca0e8fe5314e3e280c7b8985020d8f71d4d87cbd962ee9abbcf37452b5abe7cc12fa053ae8b2aa365aa693961619efe18aaaf78bde530ff0a33175c0091a257d712fd",
      "networkId": 0,
      "chainId": 0
    },
    {
      "hash": "0xbb067260f060d46f14a7d00f85cb9aa6935a0b734e5c11924a0ab065171e8738",
      "blockHash": "0x5c518864c2c4716802322d4053994762b2332fe315f31a07d8dd2304ffbb878e",
      "blockNumber": 68427,
      "transactionIndex": 5,
      "confirmations": null,
      "from": "0x083c54Ec3fa2DA0cbC17aBCB179b58E1408928bA",
      "gasPrice": {
        "_hex": "0xba43b7400"
      },
      "gasLimit": {
        "_hex": "0x15f90"
      },
      "to": "0x793AE8C1b1a160BFc07BFB0d04F85eab1A71F4f2",
      "value": {
        "_hex": "0x0"
      },
      "nonce": 0,
      "data": "0x3ba15036",
      "r": "0x34f0b41e93c6d2d7bb4ef1b628ba9133e3acdc249ce57ac2d727244b087eafe2",
      "s": "0x00df81bbe319ddc6f7c41a9375220ac43bb5ea3a3cc308d3618ebc0ca17a9ad7",
      "v": 28,
      "creates": null,
      "raw": "0xf86880850ba43b740083015f9094793ae8c1b1a160bfc07bfb0d04f85eab1a71f4f280843ba150361ca034f0b41e93c6d2d7bb4ef1b628ba9133e3acdc249ce57ac2d727244b087eafe29fdf81bbe319ddc6f7c41a9375220ac43bb5ea3a3cc308d3618ebc0ca17a9ad7",
      "networkId": 0,
      "chainId": 0
    },
    {
      "hash": "0xfb7ab01091149dbd37f126083556def1c06b20e59aa99d9b89f21646d3e20305",
      "blockHash": "0x5c518864c2c4716802322d4053994762b2332fe315f31a07d8dd2304ffbb878e",
      "blockNumber": 68427,
      "transactionIndex": 6,
      "confirmations": null,
      "from": "0x280285081C00e1f126584af383ad47A130a2623B",
      "gasPrice": {
        "_hex": "0xba43b7400"
      },
      "gasLimit": {
        "_hex": "0x15f90"
      },
      "to": "0x793AE8C1b1a160BFc07BFB0d04F85eab1A71F4f2",
      "value": {
        "_hex": "0x0"
      },
      "nonce": 0,
      "data": "0x3ba15036",
      "r": "0x12ec56b379d36b8f579d2110932d63440d861b51cfebc3f12a6bbc80a6d3239f",
      "s": "0x3f1bda08552cebea3e05a55661ec19b31d580300d85d0e334c80fd8162d1b8bd",
      "v": 28,
      "creates": null,
      "raw": "0xf86980850ba43b740083015f9094793ae8c1b1a160bfc07bfb0d04f85eab1a71f4f280843ba150361ca012ec56b379d36b8f579d2110932d63440d861b51cfebc3f12a6bbc80a6d3239fa03f1bda08552cebea3e05a55661ec19b31d580300d85d0e334c80fd8162d1b8bd",
      "networkId": 0,
      "chainId": 0
    },
    {
      "hash": "0x2ce412b4c367aff995c00c8744140d49a33fe1a7b6a70d7487c7f34eb6fb3d68",
      "blockHash": "0x5c518864c2c4716802322d4053994762b2332fe315f31a07d8dd2304ffbb878e",
      "blockNumber": 68427,
      "transactionIndex": 7,
      "confirmations": null,
      "from": "0xa2Bba04A2b1158D5D4DA0eD88a8F2A820B384D0B",
      "gasPrice": {
        "_hex": "0xba43b7400"
      },
      "gasLimit": {
        "_hex": "0x15f90"
      },
      "to": "0x793AE8C1b1a160BFc07BFB0d04F85eab1A71F4f2",
      "value": {
        "_hex": "0x0"
      },
      "nonce": 0,
      "data": "0x3ba15036",
      "r": "0x9a89cf5d38842674e40151056c0d5b4bc0cd686bd4758b306e05ba3ceef880ab",
      "s": "0x479a25bb56374a0ec116d9e92056e93825a2af99482057061b40c138f39ec9b8",
      "v": 27,
      "creates": null,
      "raw": "0xf86980850ba43b740083015f9094793ae8c1b1a160bfc07bfb0d04f85eab1a71f4f280843ba150361ba09a89cf5d38842674e40151056c0d5b4bc0cd686bd4758b306e05ba3ceef880aba0479a25bb56374a0ec116d9e92056e93825a2af99482057061b40c138f39ec9b8",
      "networkId": 0,
      "chainId": 0
    },
    {
      "hash": "0x920888045029ebee53077c80a84a73959d9a36838d166db288c3315136b8711d",
      "blockHash": "0x5c518864c2c4716802322d4053994762b2332fe315f31a07d8dd2304ffbb878e",
      "blockNumber": 68427,
      "transactionIndex": 8,
      "confirmations": null,
      "from": "0xa2E686Bb22369dE4080dfb0f94137Dda95beB478",
      "gasPrice": {
        "_hex": "0xba43b7400"
      },
      "gasLimit": {
        "_hex": "0x15f90"
      },
      "to": "0x793AE8C1b1a160BFc07BFB0d04F85eab1A71F4f2",
      "value": {
        "_hex": "0x0"
      },
      "nonce": 0,
      "data": "0x3ba15036",
      "r": "0x79b3a8dd2ceab6375f37bf1a66626a685c2297bcb8a40f5dbea8d7a6e9a53f9e",
      "s": "0x2f0ea46be218e90c3813e0f7eb733b79f1725548163bd612e10e0dd7a1d603e4",
      "v": 27,
      "creates": null,
      "raw": "0xf86980850ba43b740083015f9094793ae8c1b1a160bfc07bfb0d04f85eab1a71f4f280843ba150361ba079b3a8dd2ceab6375f37bf1a66626a685c2297bcb8a40f5dbea8d7a6e9a53f9ea02f0ea46be218e90c3813e0f7eb733b79f1725548163bd612e10e0dd7a1d603e4",
      "networkId": 0,
      "chainId": 0
    },
    {
      "hash": "0x31d071b7ed421f65270d497c98ec66a793f023295e316039f56eebbfa718b219",
      "blockHash": "0x5c518864c2c4716802322d4053994762b2332fe315f31a07d8dd2304ffbb878e",
      "blockNumber": 68427,
      "transactionIndex": 9,
      "confirmations": null,
      "from": "0x3888Bc2BcaDD5e97bE9e2dF1cE8D29165DBE8009",
      "gasPrice": {
        "_hex": "0xba43b7400"
      },
      "gasLimit": {
        "_hex": "0x15f90"
      },
      "to": "0x793AE8C1b1a160BFc07BFB0d04F85eab1A71F4f2",
      "value": {
        "_hex": "0x0"
      },
      "nonce": 0,
      "data": "0x3ba15036",
      "r": "0xdb1a2ede8792ad75dc2406e6bea149a7a51e56cbf2e725590a3a1f2034df045b",
      "s": "0x04c523862b537df564b8f89e52bc43fb64e99d38c6325f5d0191be0de6a7dc6d",
      "v": 28,
      "creates": null,
      "raw": "0xf86980850ba43b740083015f9094793ae8c1b1a160bfc07bfb0d04f85eab1a71f4f280843ba150361ca0db1a2ede8792ad75dc2406e6bea149a7a51e56cbf2e725590a3a1f2034df045ba004c523862b537df564b8f89e52bc43fb64e99d38c6325f5d0191be0de6a7dc6d",
      "networkId": 0,
      "chainId": 0
    },
    {
      "hash": "0x11d47bd963dfb303140c1b0953b7a56cc48ec94a7286063c6343af46c3523cfc",
      "blockHash": "0x5c518864c2c4716802322d4053994762b2332fe315f31a07d8dd2304ffbb878e",
      "blockNumber": 68427,
      "transactionIndex": 10,
      "confirmations": null,
      "from": "0xb6B9FE3912Bb3394303C62d4dAC10cE1783c6b46",
      "gasPrice": {
        "_hex": "0xba43b7400"
      },
      "gasLimit": {
        "_hex": "0x15f90"
      },
      "to": "0x793AE8C1b1a160BFc07BFB0d04F85eab1A71F4f2",
      "value": {
        "_hex": "0x0"
      },
      "nonce": 0,
      "data": "0x3ba15036",
      "r": "0x52349aa3ca39a7b9f28cdba0e86b06224c9b089324ed138dea83d3a9b6262244",
      "s": "0x2fa78d602240d0d53e578823a492060c0d69c20c2cacebdd5d82c3c948f7ae02",
      "v": 28,
      "creates": null,
      "raw": "0xf86980850ba43b740083015f9094793ae8c1b1a160bfc07bfb0d04f85eab1a71f4f280843ba150361ca052349aa3ca39a7b9f28cdba0e86b06224c9b089324ed138dea83d3a9b6262244a02fa78d602240d0d53e578823a492060c0d69c20c2cacebdd5d82c3c948f7ae02",
      "networkId": 0,
      "chainId": 0
    },
    {
      "hash": "0x1972bc1ef910b2e1108683f3ec6432145c39574e7b43803abbd2cd1a713c4104",
      "blockHash": "0x5c518864c2c4716802322d4053994762b2332fe315f31a07d8dd2304ffbb878e",
      "blockNumber": 68427,
      "transactionIndex": 11,
      "confirmations": null,
      "from": "0xdE5830cF419eC625acbFD8b61f0b14458340f552",
      "gasPrice": {
        "_hex": "0xba43b7400"
      },
      "gasLimit": {
        "_hex": "0x15f90"
      },
      "to": "0x793AE8C1b1a160BFc07BFB0d04F85eab1A71F4f2",
      "value": {
        "_hex": "0x0"
      },
      "nonce": 0,
      "data": "0x3ba15036",
      "r": "0x689347309de59dd5c7ae334d69b52c30445c5f2331ebaf613f28f55fc8e1aa36",
      "s": "0x43474536df4bccd371cb4d4c754a01b0b9736dc6bc6ab1eb8ec746c2e98d609c",
      "v": 27,
      "creates": null,
      "raw": "0xf86980850ba43b740083015f9094793ae8c1b1a160bfc07bfb0d04f85eab1a71f4f280843ba150361ba0689347309de59dd5c7ae334d69b52c30445c5f2331ebaf613f28f55fc8e1aa36a043474536df4bccd371cb4d4c754a01b0b9736dc6bc6ab1eb8ec746c2e98d609c",
      "networkId": 0,
      "chainId": 0
    },
    {
      "hash": "0xbcd96b1afe823877f3fca7844f0c4d115d9048b671f86420b4cfabf511933886",
      "blockHash": "0x5c518864c2c4716802322d4053994762b2332fe315f31a07d8dd2304ffbb878e",
      "blockNumber": 68427,
      "transactionIndex": 12,
      "confirmations": null,
      "from": "0x19ADd149ce0fDaC30CCE0E46D90677f78707262f",
      "gasPrice": {
        "_hex": "0xba43b7400"
      },
      "gasLimit": {
        "_hex": "0x15f90"
      },
      "to": "0x793AE8C1b1a160BFc07BFB0d04F85eab1A71F4f2",
      "value": {
        "_hex": "0x0"
      },
      "nonce": 0,
      "data": "0x3ba15036",
      "r": "0xe73aea3b63f23cb548fac7ec87e333ebee13f9de432b51909c11a858bde10fd7",
      "s": "0x41e2cd3b1ac89fc3d78bdbab9cf213fddfb98ad22c13df81c2d7fa488fb4e05d",
      "v": 28,
      "creates": null,
      "raw": "0xf86980850ba43b740083015f9094793ae8c1b1a160bfc07bfb0d04f85eab1a71f4f280843ba150361ca0e73aea3b63f23cb548fac7ec87e333ebee13f9de432b51909c11a858bde10fd7a041e2cd3b1ac89fc3d78bdbab9cf213fddfb98ad22c13df81c2d7fa488fb4e05d",
      "networkId": 0,
      "chainId": 0
    },
    {
      "hash": "0xf60a3dfd8fb895df5548d9e5179bceaa853010f3beb27a2e0061dd155e472b6b",
      "blockHash": "0x5c518864c2c4716802322d4053994762b2332fe315f31a07d8dd2304ffbb878e",
      "blockNumber": 68427,
      "transactionIndex": 13,
      "confirmations": null,
      "from": "0x81ff46a3fBf7A43925D8eFdeF321928eA188b062",
      "gasPrice": {
        "_hex": "0xba43b7400"
      },
      "gasLimit": {
        "_hex": "0x15f90"
      },
      "to": "0x793AE8C1b1a160BFc07BFB0d04F85eab1A71F4f2",
      "value": {
        "_hex": "0x0"
      },
      "nonce": 0,
      "data": "0x3ba15036",
      "r": "0xad4eca1ec422aafdd05bb744ffac991cf7e3fdb69cae0daebdf73f7b180fc8b3",
      "s": "0x450b6fd9b1ea298726d064c041f37bad92c8ec8acf371df3558608fc1a4cabd7",
      "v": 28,
      "creates": null,
      "raw": "0xf86980850ba43b740083015f9094793ae8c1b1a160bfc07bfb0d04f85eab1a71f4f280843ba150361ca0ad4eca1ec422aafdd05bb744ffac991cf7e3fdb69cae0daebdf73f7b180fc8b3a0450b6fd9b1ea298726d064c041f37bad92c8ec8acf371df3558608fc1a4cabd7",
      "networkId": 0,
      "chainId": 0
    },
    {
      "hash": "0xbe105895b2f48f94dc50cb0480e4c7a81109119a7758330b087750e4d9866ae0",
      "blockHash": "0x5c518864c2c4716802322d4053994762b2332fe315f31a07d8dd2304ffbb878e",
      "blockNumber": 68427,
      "transactionIndex": 14,
      "confirmations": null,
      "from": "0x56d41eaC43FD18c88eEAeD881FBbe4ED5DD7C721",
      "gasPrice": {
        "_hex": "0xba43b7400"
      },
      "gasLimit": {
        "_hex": "0x15f90"
      },
      "to": "0x793AE8C1b1a160BFc07BFB0d04F85eab1A71F4f2",
      "value": {
        "_hex": "0x0"
      },
      "nonce": 0,
      "data": "0x3ba15036",
      "r": "0x089d6a82bbd5ae3743b7d9a65e29a497808ece46a2d56f46c7a0fa1660404d0d",
      "s": "0x191e2398c83a8d85b57139a3a7d04870b234ba3ccca1ca260faec2c5cd502be8",
      "v": 27,
      "creates": null,
      "raw": "0xf86980850ba43b740083015f9094793ae8c1b1a160bfc07bfb0d04f85eab1a71f4f280843ba150361ba0089d6a82bbd5ae3743b7d9a65e29a497808ece46a2d56f46c7a0fa1660404d0da0191e2398c83a8d85b57139a3a7d04870b234ba3ccca1ca260faec2c5cd502be8",
      "networkId": 0,
      "chainId": 0
    },
    {
      "hash": "0x1ea30975aa6cf05c2c228a9a37c0071a7a1a02de3bf7133017c963a496b5db61",
      "blockHash": "0x5c518864c2c4716802322d4053994762b2332fe315f31a07d8dd2304ffbb878e",
      "blockNumber": 68427,
      "transactionIndex": 15,
      "confirmations": null,
      "from": "0xfBd83cCd7fCEf1D510264618Cea654e411871b8D",
      "gasPrice": {
        "_hex": "0xba43b7400"
      },
      "gasLimit": {
        "_hex": "0x15f90"
      },
      "to": "0x793AE8C1b1a160BFc07BFB0d04F85eab1A71F4f2",
      "value": {
        "_hex": "0x0"
      },
      "nonce": 0,
      "data": "0x3ba15036",
      "r": "0x86f824a2dc2be09568ab07d658999853afbc6651980fc6d73b0e01ca47b01aa9",
      "s": "0x548b9f0af84630f3d6288888bf421d78b7fc3b7bc2cf7c94409bba8107eddaf2",
      "v": 27,
      "creates": null,
      "raw": "0xf86980850ba43b740083015f9094793ae8c1b1a160bfc07bfb0d04f85eab1a71f4f280843ba150361ba086f824a2dc2be09568ab07d658999853afbc6651980fc6d73b0e01ca47b01aa9a0548b9f0af84630f3d6288888bf421d78b7fc3b7bc2cf7c94409bba8107eddaf2",
      "networkId": 0,
      "chainId": 0
    },
    {
      "hash": "0x5e6de1ae017c56bb37628c5844717b6a5b8f6a22f6f45a6a082a53245ad15a30",
      "blockHash": "0x5c518864c2c4716802322d4053994762b2332fe315f31a07d8dd2304ffbb878e",
      "blockNumber": 68427,
      "transactionIndex": 16,
      "confirmations": null,
      "from": "0x72dB9745D14ec4254f266041025FD00Eb68C39FD",
      "gasPrice": {
        "_hex": "0xba43b7400"
      },
      "gasLimit": {
        "_hex": "0x15f90"
      },
      "to": "0x793AE8C1b1a160BFc07BFB0d04F85eab1A71F4f2",
      "value": {
        "_hex": "0x0"
      },
      "nonce": 0,
      "data": "0x3ba15036",
      "r": "0x0669e42b55bbb3eeb3d67e6e542625b9136700c3cb6c20d0eaa05e766d97486c",
      "s": "0x52af05a6410c0796eff1ef627586f9064c6365d92256b02067dfe92510391fbc",
      "v": 27,
      "creates": null,
      "raw": "0xf86980850ba43b740083015f9094793ae8c1b1a160bfc07bfb0d04f85eab1a71f4f280843ba150361ba00669e42b55bbb3eeb3d67e6e542625b9136700c3cb6c20d0eaa05e766d97486ca052af05a6410c0796eff1ef627586f9064c6365d92256b02067dfe92510391fbc",
      "networkId": 0,
      "chainId": 0
    },
    {
      "hash": "0x8565ac8e62978563f19c72ecba5118495d9756012d58b5d4579a5b40dff8ddd3",
      "blockHash": "0x5c518864c2c4716802322d4053994762b2332fe315f31a07d8dd2304ffbb878e",
      "blockNumber": 68427,
      "transactionIndex": 17,
      "confirmations": null,
      "from": "0xaa8FeB2D5DA363bBD6bc4816099721793DB91691",
      "gasPrice": {
        "_hex": "0xba43b7400"
      },
      "gasLimit": {
        "_hex": "0x15f90"
      },
      "to": "0x793AE8C1b1a160BFc07BFB0d04F85eab1A71F4f2",
      "value": {
        "_hex": "0x0"
      },
      "nonce": 0,
      "data": "0x3ba15036",
      "r": "0x8deab74b47d706eb7a2b391c9528fdf03dc6da9cc8526c262dc42e09fca23a0f",
      "s": "0x3b18dab14af6c33678edbcd27ccd4d7ee773899b20d0a20ed30c77382125198d",
      "v": 28,
      "creates": null,
      "raw": "0xf86980850ba43b740083015f9094793ae8c1b1a160bfc07bfb0d04f85eab1a71f4f280843ba150361ca08deab74b47d706eb7a2b391c9528fdf03dc6da9cc8526c262dc42e09fca23a0fa03b18dab14af6c33678edbcd27ccd4d7ee773899b20d0a20ed30c77382125198d",
      "networkId": 0,
      "chainId": 0
    },
    {
      "hash": "0xae1045ace5dfe55c849f410f089fc527cb302dcfcc1c8b2b46d38800f85dd95b",
      "blockHash": "0x5c518864c2c4716802322d4053994762b2332fe315f31a07d8dd2304ffbb878e",
      "blockNumber": 68427,
      "transactionIndex": 18,
      "confirmations": null,
      "from": "0x4293c2eC9C8D7D72A801CCe989352A21cBB6f043",
      "gasPrice": {
        "_hex": "0xba43b7400"
      },
      "gasLimit": {
        "_hex": "0x15f90"
      },
      "to": "0x793AE8C1b1a160BFc07BFB0d04F85eab1A71F4f2",
      "value": {
        "_hex": "0x0"
      },
      "nonce": 0,
      "data": "0x3ba15036",
      "r": "0x4a42859eda5740532f43a5042f2532e3e4fc571e952a242006aeca293a925c5b",
      "s": "0x5fedb600c19171d305d52b26c159ad05b6830b94fd551bf7e5392dd52c68c64a",
      "v": 28,
      "creates": null,
      "raw": "0xf86980850ba43b740083015f9094793ae8c1b1a160bfc07bfb0d04f85eab1a71f4f280843ba150361ca04a42859eda5740532f43a5042f2532e3e4fc571e952a242006aeca293a925c5ba05fedb600c19171d305d52b26c159ad05b6830b94fd551bf7e5392dd52c68c64a",
      "networkId": 0,
      "chainId": 0
    },
    {
      "hash": "0xe6a6e3612702631881a350772905e84b497d00586bcca497292e9af51cc7e3ef",
      "blockHash": "0x5c518864c2c4716802322d4053994762b2332fe315f31a07d8dd2304ffbb878e",
      "blockNumber": 68427,
      "transactionIndex": 19,
      "confirmations": null,
      "from": "0x192101Cb8cF340851BeF8C5515A653B36724402f",
      "gasPrice": {
        "_hex": "0xba43b7400"
      },
      "gasLimit": {
        "_hex": "0x15f90"
      },
      "to": "0x793AE8C1b1a160BFc07BFB0d04F85eab1A71F4f2",
      "value": {
        "_hex": "0x0"
      },
      "nonce": 0,
      "data": "0x3ba15036",
      "r": "0xd29158a4e4b0e48157cc4ea08c101919c441a7ee0c94da197b5978afac2105f2",
      "s": "0x6bf0f02661124f862f029adc09b851683d4e95dc4ea137943c78b73baa6ddc7f",
      "v": 27,
      "creates": null,
      "raw": "0xf86980850ba43b740083015f9094793ae8c1b1a160bfc07bfb0d04f85eab1a71f4f280843ba150361ba0d29158a4e4b0e48157cc4ea08c101919c441a7ee0c94da197b5978afac2105f2a06bf0f02661124f862f029adc09b851683d4e95dc4ea137943c78b73baa6ddc7f",
      "networkId": 0,
      "chainId": 0
    },
    {
      "hash": "0x664637f6254ee9b5806cc3324ba535752eb0f2ff89e24e31e7841af1351f10e9",
      "blockHash": "0x5c518864c2c4716802322d4053994762b2332fe315f31a07d8dd2304ffbb878e",
      "blockNumber": 68427,
      "transactionIndex": 20,
      "confirmations": null,
      "from": "0xC874869F27d57D5778D01BC8C1f611Cdee79e2F1",
      "gasPrice": {
        "_hex": "0xba43b7400"
      },
      "gasLimit": {
        "_hex": "0x15f90"
      },
      "to": "0x793AE8C1b1a160BFc07BFB0d04F85eab1A71F4f2",
      "value": {
        "_hex": "0x0"
      },
      "nonce": 0,
      "data": "0x3ba15036",
      "r": "0xf3407cc707199f1d1c33b649893b88d3f8a70ef04f520053442c149fcc5ae0fe",
      "s": "0x30f537caad81b65fad611f7bfbf9b7af44fca72031e5cdbae1074be71f8a0664",
      "v": 27,
      "creates": null,
      "raw": "0xf86980850ba43b740083015f9094793ae8c1b1a160bfc07bfb0d04f85eab1a71f4f280843ba150361ba0f3407cc707199f1d1c33b649893b88d3f8a70ef04f520053442c149fcc5ae0fea030f537caad81b65fad611f7bfbf9b7af44fca72031e5cdbae1074be71f8a0664",
      "networkId": 0,
      "chainId": 0
    },
    {
      "hash": "0x09f737c414fefd1c5101604ac68023d743c8d8e74d55ffddac95e6b4651828a7",
      "blockHash": "0x5c518864c2c4716802322d4053994762b2332fe315f31a07d8dd2304ffbb878e",
      "blockNumber": 68427,
      "transactionIndex": 21,
      "confirmations": null,
      "from": "0xAaF1E5b11BF904bD437EfBeD9F489b8Eb037E77e",
      "gasPrice": {
        "_hex": "0xba43b7400"
      },
      "gasLimit": {
        "_hex": "0x15f90"
      },
      "to": "0x793AE8C1b1a160BFc07BFB0d04F85eab1A71F4f2",
      "value": {
        "_hex": "0x0"
      },
      "nonce": 0,
      "data": "0x3ba15036",
      "r": "0x7f5b583a01c5cc471830b77b5cdc219ca92ece2d1f52152fcc3ad4b46a51485c",
      "s": "0x3b02ecf4dc5842ebcf38178b8da092bb1797ddb7e4a0f3de8206ad82f6177b52",
      "v": 28,
      "creates": null,
      "raw": "0xf86980850ba43b740083015f9094793ae8c1b1a160bfc07bfb0d04f85eab1a71f4f280843ba150361ca07f5b583a01c5cc471830b77b5cdc219ca92ece2d1f52152fcc3ad4b46a51485ca03b02ecf4dc5842ebcf38178b8da092bb1797ddb7e4a0f3de8206ad82f6177b52",
      "networkId": 0,
      "chainId": 0
    },
    {
      "hash": "0x64ee2b010f2b83e3265801872adcce1ce58877e218e5899630b9b8d4dd87e1cc",
      "blockHash": "0x5c518864c2c4716802322d4053994762b2332fe315f31a07d8dd2304ffbb878e",
      "blockNumber": 68427,
      "transactionIndex": 22,
      "confirmations": null,
      "from": "0x77CCe943325B5EA45B27298d0aed77AcC2912c68",
      "gasPrice": {
        "_hex": "0xba43b7400"
      },
      "gasLimit": {
        "_hex": "0x15f90"
      },
      "to": "0x793AE8C1b1a160BFc07BFB0d04F85eab1A71F4f2",
      "value": {
        "_hex": "0x0"
      },
      "nonce": 0,
      "data": "0x3ba15036",
      "r": "0x1f090258a660e2c623970bc388506b39f4c4f4d9c96537a97b8f9d25821db300",
      "s": "0x2964b6ee124c378dd45d26d862013f0957e9c0007ceae2bda306163fedd4b04c",
      "v": 27,
      "creates": null,
      "raw": "0xf86980850ba43b740083015f9094793ae8c1b1a160bfc07bfb0d04f85eab1a71f4f280843ba150361ba01f090258a660e2c623970bc388506b39f4c4f4d9c96537a97b8f9d25821db300a02964b6ee124c378dd45d26d862013f0957e9c0007ceae2bda306163fedd4b04c",
      "networkId": 0,
      "chainId": 0
    },
    {
      "hash": "0x8d9c165b6e86b038e2c872daaf5203d0ae7f0717fb33f98da21e73c695ee4754",
      "blockHash": "0x5c518864c2c4716802322d4053994762b2332fe315f31a07d8dd2304ffbb878e",
      "blockNumber": 68427,
      "transactionIndex": 23,
      "confirmations": null,
      "from": "0xCFE406Ca13A03ec72597142f9b88fF67Be104002",
      "gasPrice": {
        "_hex": "0xba43b7400"
      },
      "gasLimit": {
        "_hex": "0x15f90"
      },
      "to": "0x793AE8C1b1a160BFc07BFB0d04F85eab1A71F4f2",
      "value": {
        "_hex": "0x0"
      },
      "nonce": 0,
      "data": "0x3ba15036",
      "r": "0x6209ab1b417f39a87836b7c60724ad5c20bfc11dabcbc6598bcac1a5e25eb108",
      "s": "0x29d78092257d85cfc7d0629c5ba0fe78bfb03780a381be167ced5995dfa5cd83",
      "v": 28,
      "creates": null,
      "raw": "0xf86980850ba43b740083015f9094793ae8c1b1a160bfc07bfb0d04f85eab1a71f4f280843ba150361ca06209ab1b417f39a87836b7c60724ad5c20bfc11dabcbc6598bcac1a5e25eb108a029d78092257d85cfc7d0629c5ba0fe78bfb03780a381be167ced5995dfa5cd83",
      "networkId": 0,
      "chainId": 0
    },
    {
      "hash": "0x4f07eaddf9d70d11c499f5ce625416b19c1db242314edd90af94282b8d64fc61",
      "blockHash": "0x5c518864c2c4716802322d4053994762b2332fe315f31a07d8dd2304ffbb878e",
      "blockNumber": 68427,
      "transactionIndex": 24,
      "confirmations": null,
      "from": "0xDde2Fe460B0732E23210B8Cfbf4B57c806396dCE",
      "gasPrice": {
        "_hex": "0xba43b7400"
      },
      "gasLimit": {
        "_hex": "0x15f90"
      },
      "to": "0x793AE8C1b1a160BFc07BFB0d04F85eab1A71F4f2",
      "value": {
        "_hex": "0x0"
      },
      "nonce": 0,
      "data": "0x3ba15036",
      "r": "0x70cd0238e082f8cac1b09e70a02c1d6565182c1e1ecf2b2e406c6a9e2162bf12",
      "s": "0x0d82994cc6f11cb0995b2b59f118fad69c70876619a34621311ab7d2d96cc388",
      "v": 27,
      "creates": null,
      "raw": "0xf86980850ba43b740083015f9094793ae8c1b1a160bfc07bfb0d04f85eab1a71f4f280843ba150361ba070cd0238e082f8cac1b09e70a02c1d6565182c1e1ecf2b2e406c6a9e2162bf12a00d82994cc6f11cb0995b2b59f118fad69c70876619a34621311ab7d2d96cc388",
      "networkId": 0,
      "chainId": 0
    },
    {
      "hash": "0xebcd3e178461e397fe693f87af7651bf5d307b352da0d7a3234e45ccc42bd069",
      "blockHash": "0x5c518864c2c4716802322d4053994762b2332fe315f31a07d8dd2304ffbb878e",
      "blockNumber": 68427,
      "transactionIndex": 25,
      "confirmations": null,
      "from": "0x6bCefc4d2a4ca1d700879654feC3C1d591C13a98",
      "gasPrice": {
        "_hex": "0xba43b7400"
      },
      "gasLimit": {
        "_hex": "0x15f90"
      },
      "to": "0x793AE8C1b1a160BFc07BFB0d04F85eab1A71F4f2",
      "value": {
        "_hex": "0x0"
      },
      "nonce": 0,
      "data": "0x3ba15036",
      "r": "0x616af9effbc92b8a239983299368282f2b65293dddd728f01d8e763b592de151",
      "s": "0x651ae47ef91df4cad6c1b2996bbf476f3c9e37d221df7e46b38802ab88f69fbc",
      "v": 28,
      "creates": null,
      "raw": "0xf86980850ba43b740083015f9094793ae8c1b1a160bfc07bfb0d04f85eab1a71f4f280843ba150361ca0616af9effbc92b8a239983299368282f2b65293dddd728f01d8e763b592de151a0651ae47ef91df4cad6c1b2996bbf476f3c9e37d221df7e46b38802ab88f69fbc",
      "networkId": 0,
      "chainId": 0
    }
  ]
}