{
  "hash": "0x8b037d3639f765962e9eef8b2cd192b6879afe20ee3e324faea76170a758a9d6",
  "parentHash": "0xc9586540bdb0a3777970b9503565116586eae72a438d4576164e8b035edfc158",
  "number": 111539,
  "timestamp": 1439991945,
  "nonce": "0x1bd5addd02c89b87",
  "difficulty": 4443909809845,
  "gasLimit": {
    "_hex": "0x2fefd8"
  },
  "gasUsed": {
    "_hex": "0x5208"
  },
  "miner": "0xe6A7a1d47ff21B6321162AEA7C6CB457D5476Bca",
  "extraData": "0x476574682f76312e302e312d38326566323666362f6c696e75782f676f312e34",
  "transactions": [
    {
      "hash": "0x9622421ca63c3d5e9ee3f24b886483ca05be63a02cb0b1b8e5a7241142747293",
      "blockHash": "0x8b037d3639f765962e9eef8b2cd192b6879afe20ee3e324faea76170a758a9d6",
      "blockNumber": 111539,
      "transactionIndex": 0,
      "confirmations": null,
      "from": "0x120A270bbC009644e35F0bB6ab13f95b8199c4ad",
      "gasPrice": {
        "_hex": "0xe09c397c8"
      },
      "gasLimit": {
        "_hex": "0x3d090"
      },
      "to": "0x60d85a32126130b225913C23dF4e5EF8b759fA09",
      "value": {
        "_hex": "0x25f273933db5700000"
      },
      "nonce": 880,
      "data": "0x",
      "r": "0xf9d22aff2fc42c338f6d6494b693d4d3a1105ca628b58077a33275fe7c68a92e",
      "s": "0x53c2094d5098b422dd3c0a9a9e5ea10bff152d9eacda539b4c4646581f09578d",
      "v": 27,
      "creates": null,
      "raw": "0xf870820370850e09c397c88303d0909460d85a32126130b225913c23df4e5ef8b759fa098925f273933db5700000801ba0f9d22aff2fc42c338f6d6494b693d4d3a1105ca628b58077a33275fe7c68a92ea053c2094d5098b422dd3c0a9a9e5ea10bff152d9eacda539b4c4646581f09578d",
      "networkId": 0,
      "chainId": 0
    }
  ]
}