{
  "hash": "0x80477e2178520f5d6a5411c2c478f76ca2ce6f2ed2684557341ef640560d607f",
  "parentHash": "0xeb6fd28e3d4f970aebdaf9cb6f3309334bdc6eba264906acb7cb2badf614581f",
  "number": 92883,
  "timestamp": 1439678713,
  "nonce": "0xdb916e5c0c02e46b",
  "difficulty": 3645754052456,
  "gasLimit": {
    "_hex": "0x2fefd8"
  },
  "gasUsed": {
    "_hex": "0xa410"
  },
  "miner": "0x9D49F602b0fdb924Bd63DDE2Bd0907E4A07c63a7",
  "extraData": "0x476574682f76312e302e312f6c696e75782f676f312e342e32",
  "transactions": [
    {
      "hash": "0x94ddd6822f9504d670c480f2a047642e77aeb394234c8fe1d5a40020f3642a71",
      "blockHash": "0x80477e2178520f5d6a5411c2c478f76ca2ce6f2ed2684557341ef640560d607f",
      "blockNumber": 92883,
      "transactionIndex": 0,
      "confirmations": null,
      "from": "0x2910543Af39abA0Cd09dBb2D50200b3E800A63D2",
      "gasPrice": {
        "_hex": "0xdb8710cca"
      },
      "gasLimit": {
        "_hex": "0x5208"
      },
      "to": "0x02020D22dCF88f5eDd66B382D7da019F161fB7e3",
      "value": {
        "_hex": "0x11c37937e08000"
      },
      "nonce": 837,
      "data": "0x",
      "r": "0xfb95c9e651b7d048a2bdea8f335f8ee045675dda0951c270356dd1936a8a4260",
      "s": "0x50685d87a3eae0ac2e7990397f9723b6aa544d26fdbdf987b9504e8c0b9a9b4c",
      "v": 28,
      "creates": null,
      "raw": "0xf86d820345850db8710cca8252089402020d22dcf88f5edd66b382d7da019f161fb7e38711c37937e08000801ca0fb95c9e651b7d048a2bdea8f335f8ee045675dda0951c270356dd1936a8a4260a050685d87a3eae0ac2e7990397f9723b6aa544d26fdbdf987b9504e8c0b9a9b4c",
      "networkId": 0,
      "chainId": 0
    },
    {
      "hash": "0xd79d294d404f8161ba936e7b005afb16cff054f557091ef6cb0a3aebb9adf294",
      "blockHash": "0x80477e2178520f5d6a5411c2c478f76ca2ce6f2ed2684557341ef640560d607f",
      "blockNumber": 92883,
      "transactionIndex": 1,
      "confirmations": null,
      "from": "0x897d64aD0a333394b4E4ae8e8DCccdbc71d4E4E8",
      "gasPrice": {
        "_hex": "0xd7d40ace3"
      },
      "gasLimit": {
        "_hex": "0x15f90"
      },
      "to": "0x13aE5B35f82651Ff327d41502F0Aa90DA76D777E",
      "value": {
        "_hex": "0x8ac7230489e80000"
      },
      "nonce": 3,
      "data": "0x",
      "r": "0x3ff8c9f954ac97c9f46fa734528131e6318fa5c739a0df90f38694a6c891522e",
      "s": "0x0be62f170cd2c1135f333bedb429cba6cd6fe3997cf8dcffd70cb6db8c77ac0f",
      "v": 28,
      "creates": null,
      "raw": "0xf86d03850d7d40ace383015f909413ae5b35f82651ff327d41502f0aa90da76d777e888ac7230489e80000801ca03ff8c9f954ac97c9f46fa734528131e6318fa5c739a0df90f38694a6c891522ea00be62f170cd2c1135f333bedb429cba6cd6fe3997cf8dcffd70cb6db8c77ac0f",
      "networkId": 0,
      "chainId": 0
    }
  ]
}