{
  "hash": "0x6a070045ef97ca175985fcb6164660c06780e6da2f679bd0cafc835aec07ef39",
  "parentHash": "0x0fb8635ce392a97248066eb65ef00621f2d68affb474fc517170eed0551e221b",
  "number": 85115,
  "timestamp": 1439558659,
  "nonce": "0x51219ae88b8d5eb3",
  "difficulty": 2730405545368,
  "gasLimit": {
    "_hex": "0x2fefd8"
  },
  "gasUsed": {
    "_hex": "0x5208"
  },
  "miner": "0xA21Ba94e45f0E168dA824fC67aC9cb5Cb577a8aF",
  "extraData": "0x",
  "transactions": [
    {
      "hash": "0x124c5732304109dd56780eadb0dc0fb31911cd90e6b3d8e1df1a224b907a9dfd",
      "blockHash": "0x6a070045ef97ca175985fcb6164660c06780e6da2f679bd0cafc835aec07ef39",
      "blockNumber": 85115,
      "transactionIndex": 0,
      "confirmations": null,
      "from": "0x2910543Af39abA0Cd09dBb2D50200b3E800A63D2",
      "gasPrice": {
        "_hex": "0xcd1b908c0"
      },
      "gasLimit": {
        "_hex": "0x5208"
      },
      "to": "0x2aBD9e50d51e97aFc9a984f64657eD9539c59c91",
      "value": {
        "_hex": "0x1043561a8829300000"
      },
      "nonce": 591,
      "data": "0x",
      "r": "0xd2701862ec43a2cb25f283331da13af3836c2ba9048c3d662b30270e6254b259",
      "s": "0x4e7024a9dea5fa664190fa363c479ee833662ae7a65344f5f73b861efddb65e4",
      "v": 27,
      "creates": null,
      "raw": "0xf86f82024f850cd1b908c0825208942abd9e50d51e97afc9a984f64657ed9539c59c91891043561a8829300000801ba0d2701862ec43a2cb25f283331da13af3836c2ba9048c3d662b30270e6254b259a04e7024a9dea5fa664190fa363c479ee833662ae7a65344f5f73b861efddb65e4",
      "networkId": 0,
      "chainId": 0
    }
  ]
}