{
  "hash": "0xdea2d125028557c342236359425a72cacdd54d0087e411e6715b293414ebc955",
  "parentHash": "0x542898ad4cf3322b9f5ab4ea3b93ac49d682643761e5757e8c3d9b8555f9b667",
  "number": 54168,
  "timestamp": 1439049745,
  "nonce": "0x123a4962ca9c43a0",
  "difficulty": 1605557918456,
  "gasLimit": {
    "_hex": "0x2fefd8"
  },
  "gasUsed": {
    "_hex": "0x5208"
  },
  "miner": "0xBb12b5a9B85D4AB8CDE6056E9c1b2a4a337D2261",
  "extraData": "0x476574682f76312e302e312d36393865393864392f6c696e75782f676f312e34",
  "transactions": [
    {
      "hash": "0x0ca8406018c7de43854bf7fd503de66d43708cf50d89533830e46f9ddffe0618",
      "blockHash": "0xdea2d125028557c342236359425a72cacdd54d0087e411e6715b293414ebc955",
      "blockNumber": 54168,
      "transactionIndex": 0,
      "confirmations": null,
      "from": "0xC1CBD2E2332A524CF219B10d871ccC20af1fB0fA",
      "gasPrice": {
        "_hex": "0x746a528800"
      },
      "gasLimit": {
        "_hex": "0x5208"
      },
      "to": "0x64fA2C5b9fA3E48BcAd74bD34a23b17f85fC402C",
      "value": {
        "_hex": "0x3635a460141c7bc000"
      },
      "nonce": 0,
      "data": "0x",
      "r": "0x38f8a3932ad330fdd8758f93e072a01003f3373cbab207962f1de0c2bbe4741c",
      "s": "0x06a300ccd3b2bf3436585690ddd8e8f0539919805d7a9bfb2e86a4dabce5fae2",
      "v": 27,
      "creates": null,
      "raw": "0xf86d8085746a5288008252089464fa2c5b9fa3e48bcad74bd34a23b17f85fc402c893635a460141c7bc000801ba038f8a3932ad330fdd8758f93e072a01003f3373cbab207962f1de0c2bbe4741ca006a300ccd3b2bf3436585690ddd8e8f0539919805d7a9bfb2e86a4dabce5fae2",
      "networkId": 0,
      "chainId": 0
    }
  ]
}