{
  "hash": "0x6914f37eeb60f7c7569507b51ddb1e82ce2ee45dd21953fc3ab35c293a7f1b95",
  "parentHash": "0xb898a1b15b8278495912f63e1b2168dea31cf5023493e414ff69a1b65d32ce0f",
  "number": 63137,
  "timestamp": 1439199814,
  "nonce": "0xc0a38569dba0c1e9",
  "difficulty": 1798851172241,
  "gasLimit": {
    "_hex": "0x2fefd8"
  },
  "gasUsed": {
    "_hex": "0x5208"
  },
  "miner": "0x6BB048244aC4f934163a15b7a472Ce7B48fC9F32",
  "extraData": "0x476574682f76312e302e312d37666266393930632f6c696e75782f676f312e34",
  "transactions": [
    {
      "hash": "0x466caba5029930280428cc0f450c3b05fdfd8f99a0083f26d316daf853985528",
      "blockHash": "0x6914f37eeb60f7c7569507b51ddb1e82ce2ee45dd21953fc3ab35c293a7f1b95",
      "blockNumber": 63137,
      "transactionIndex": 0,
      "confirmations": null,
      "from": "0x1C356cfdB95FEbb714633B28d5C132dD84A9b436",
      "gasPrice": {
        "_hex": "0x1081f75b58f"
      },
      "gasLimit": {
        "_hex": "0x15f90"
      },
      "to": "0x1da881Fae84444ebEf7B72F3267a4e67Aa61faE9",
      "value": {
        "_hex": "0x4563918244f40000"
      },
      "nonce": 4,
      "data": "0x",
      "r": "0x229e420c23ad864350a4267007db3cd328c4d10ebde6a98c0a9ec675dc79b28e",
      "s": "0x7f1af0b0c1dc36bb67aa226fd7c6301d90d3fcb49a1008bd4c2d38eec7a1e72a",
      "v": 27,
      "creates": null,
      "raw": "0xf86e048601081f75b58f83015f90941da881fae84444ebef7b72f3267a4e67aa61fae9884563918244f40000801ba0229e420c23ad864350a4267007db3cd328c4d10ebde6a98c0a9ec675dc79b28ea07f1af0b0c1dc36bb67aa226fd7c6301d90d3fcb49a1008bd4c2d38eec7a1e72a",
      "networkId": 0,
      "chainId": 0
    }
  ]
}