{
  "hash": "0x5154b44205cc08788707e25d96c4115abde2d557300d60c62be7db4a5a6204d7",
  "parentHash": "0x18f3ac1991efbc7fff898e63e3060e4e6357b71c69228d605a3d7c604a851d7e",
  "number": 107939,
  "timestamp": 1439931227,
  "nonce": "0xbd2a2313ec44836f",
  "difficulty": 4381167719988,
  "gasLimit": {
    "_hex": "0x2fefd8"
  },
  "gasUsed": {
    "_hex": "0x1d52e"
  },
  "miner": "0xe6A7a1d47ff21B6321162AEA7C6CB457D5476Bca",
  "extraData": "0x476574682f76312e302e312d38326566323666362f6c696e75782f676f312e34",
  "transactions": [
    {
      "hash": "0x150d279e0911a14012f8935f31f668e5d2b08e78f6ffb181ffa90494934faf61",
      "blockHash": "0x5154b44205cc08788707e25d96c4115abde2d557300d60c62be7db4a5a6204d7",
      "blockNumber": 107939,
      "transactionIndex": 0,
      "confirmations": null,
      "from": "0xbB3B9005F46Fd2Ca3B30162599928C77D9F6b601",
      "gasPrice": {
        "_hex": "0xdc48293bc"
      },
      "gasLimit": {
        "_hex": "0x249f0"
      },
      "to": "0xE28e72FCf78647ADCe1F1252F240bbfaebD63BcC",
      "value": {
        "_hex": "0xd891c32595358c0000"
      },
      "nonce": 1,
      "data": "0x45466f3a",
      "r": "0xa81337611249a2b5ce244c68362293f8f212a370fe3c50f30c10caf8937b6380",
      "s": "0x1b01ea374ce67cbb7196a4edf77a7760d5285f33bcd6fc87a1e18e62a34a893e",
      "v": 27,
      "creates": null,
      "raw": "0xf87201850dc48293bc830249f094e28e72fcf78647adce1f1252f240bbfaebd63bcc89d891c32595358c00008445466f3a1ba0a81337611249a2b5ce244c68362293f8f212a370fe3c50f30c10caf8937b6380a01b01ea374ce67cbb7196a4edf77a7760d5285f33bcd6fc87a1e18e62a34a893e",
      "networkId": 0,
      "chainId": 0
    },
    {
      "hash": "0x7626424fc2e89b2868170df625db54f14c77281a355722ced91fe2e05be83a22",
      "blockHash": "0x5154b44205cc08788707e25d96c4115abde2d557300d60c62be7db4a5a6204d7",
      "blockNumber": 107939,
      "transactionIndex": 1,
      "confirmations": null,
      "from": "0x834e9B529AC9Fa63B39A06f8D8C9B0D6791FA5dF",
      "gasPrice": {
        "_hex": "0xd4dfa5aef"
      },
      "gasLimit": {
        "_hex": "0x5208"
      },
      "to": "0x2F853817afd3B8F3B86E9F60ee77B5d97773c0e3",
      "value": {
        "_hex": "0xfd217f5c3f20000"
      },
      "nonce": 12,
      "data": "0x",
      "r": "0x55fa42656b12786da349311204fa0f47ca1c9bb86e80775c09407bea42c7158a",
      "s": "0x6d71b0615d894adc6b648c3fff16a52ee82320ca9b33db75fabeb2e214159fdd",
      "v": 27,
      "creates": null,
      "raw": "0xf86c0c850d4dfa5aef825208942f853817afd3b8f3b86e9f60ee77b5d97773c0e3880fd217f5c3f20000801ba055fa42656b12786da349311204fa0f47ca1c9bb86e80775c09407bea42c7158aa06d71b0615d894adc6b648c3fff16a52ee82320ca9b33db75fabeb2e214159fdd",
      "networkId": 0,
      "chainId": 0
    }
  ]
}