{
  "hash": "0x83ccc13c51afe348e9ebc3a19508ed0373ad0110a0212a14917fa9c27d9e14c2",
  "parentHash": "0x5b443bbd63dc663d4d4be5bcbc61cb9cc3a82fae972838bf2dc087c18a169b1e",
  "number": 52690,
  "timestamp": 1439025684,
  "nonce": "0xe793cc1fb35113dc",
  "difficulty": 1571708310350,
  "gasLimit": {
    "_hex": "0x17d4c3"
  },
  "gasUsed": {
    "_hex": "0x16e360"
  },
  "miner": "0x134886E027977a26593C096A782c671D72873073",
  "extraData": "0x476574682f76312e302e312f6c696e75782f676f312e342e32",
  "transactions": [
    {
      "hash": "0xacd1600189786b04cca3daf9f3c508702dc106cc212c4994f6b37635240d780b",
      "blockHash": "0x83ccc13c51afe348e9ebc3a19508ed0373ad0110a0212a14917fa9c27d9e14c2",
      "blockNumber": 52690,
      "transactionIndex": 0,
      "confirmations": null,
      "from": "0x54dAeb3E8a6BBC797E4aD2b0339f134b186e4637",
      "gasPrice": {
        "_hex": "0xd8bd64e50"
      },
      "gasLimit": {
        "_hex": "0x7a120"
      },
      "to": "0xBAA54d6E90c3F4d7Ebec11bD180134C7eD8eBb52",
      "value": {
        "_hex": "0x16345785d8a0000"
      },
      "nonce": 951,
      "data": "0x",
      "r": "0xbb5423b48b053cade9ec3a7af3b5519f7580d7a1cd92615b2bb3799e35574bb9",
      "s": "0x52e714a262da5cceceb52eca43f0129d626fe68bb3fdfd85cfe9dce8c5185015",
      "v": 27,
      "creates": null,
      "raw": "0xf86f8203b7850d8bd64e508307a12094baa54d6e90c3f4d7ebec11bd180134c7ed8ebb5288016345785d8a0000801ba0bb5423b48b053cade9ec3a7af3b5519f7580d7a1cd92615b2bb3799e35574bb9a052e714a262da5cceceb52eca43f0129d626fe68bb3fdfd85cfe9dce8c5185015",
      "networkId": 0,
      "chainId": 0
    },
    {
      "hash": "0x28baae824a68f6d2b6240f590dbf9166ff374ff5e7c1130d79a9a6d33bf54cbb",
      "blockHash": "0x83ccc13c51afe348e9ebc3a19508ed0373ad0110a0212a14917fa9c27d9e14c2",
      "blockNumber": 52690,
      "transactionIndex": 1,
      "confirmations": null,
      "from": "0x54dAeb3E8a6BBC797E4aD2b0339f134b186e4637",
      "gasPrice": {
        "_hex": "0xe7d27df17"
      },
      "gasLimit": {
        "_hex": "0x7a120"
      },
      "to": "0xBAA54d6E90c3F4d7Ebec11bD180134C7eD8eBb52",
      "value": {
        "_hex": "0x16345785d8a0000"
      },
      "nonce": 952,
      "data": "0x",
      "r": "0x381f61f2a6097bc64232f077416728168a18713c6d1c12f272f308b392f9e4f6",
      "s": "0x05b4335beb27855cafccc9a0c33c8f0ea557e2bca7dd82e97b3327715a994c10",
      "v": 27,
      "creates": null,
      "raw": "0xf86f8203b8850e7d27df178307a12094baa54d6e90c3f4d7ebec11bd180134c7ed8ebb5288016345785d8a0000801ba0381f61f2a6097bc64232f077416728168a18713c6d1c12f272f308b392f9e4f6a005b4335beb27855cafccc9a0c33c8f0ea557e2bca7dd82e97b3327715a994c10",
      "networkId": 0,
      "chainId": 0
    },
    {
      "hash": "0x2d59665f1c1b810953c8ceae4f3ec64c40263e3ffdfb4edb6f07a43ab416cfd1",
      "blockHash": "0x83ccc13c51afe348e9ebc3a19508ed0373ad0110a0212a14917fa9c27d9e14c2",
      "blockNumber": 52690,
      "transactionIndex": 2,
      "confirmations": null,
      "from": "0x54dAeb3E8a6BBC797E4aD2b0339f134b186e4637",
      "gasPrice": {
        "_hex": "0xdf4ba21f9"
      },
      "gasLimit": {
        "_hex": "0x7a120"
      },
      "to": "0xBAA54d6E90c3F4d7Ebec11bD180134C7eD8eBb52",
      "value": {
        "_hex": "0x16345785d8a0000"
      },
      "nonce": 953,
      "data": "0x",
      "r": "0x05f6a627d45b05db31e3299a9541ea7e53e457411c879f322d3f79f108c109d0",
      "s": "0x05a16b0aaca91090168cce10060741eeb29d6398e491888bd4f0db051089bcdb",
      "v": 28,
      "creates": null,
      "raw": "0xf86f8203b9850df4ba21f98307a12094baa54d6e90c3f4d7ebec11bd180134c7ed8ebb5288016345785d8a0000801ca005f6a627d45b05db31e3299a9541ea7e53e457411c879f322d3f79f108c109d0a005a16b0aaca91090168cce10060741eeb29d6398e491888bd4f0db051089bcdb",
      "networkId": 0,
      "chainId": 0
    }
  ]
}