{
  "hash": "0xf184bbf5f872e5bbb2659198578a2d782ca6a6e229440a84d3671e73c6160c86",
  "parentHash": "0x69bf41a0fdb146852e68b55ef15d4ddfb0bdf25f6c1770d667461dbe08b0c8a8",
  "number": 110655,
  "timestamp": 1439977263,
  "nonce": "0x0103cf1b56f962ea",
  "difficulty": 4379749448102,
  "gasLimit": {
    "_hex": "0x2fefd8"
  },
  "gasUsed": {
    "_hex": "0x5208"
  },
  "miner": "0x8d8A322f0957F9190ECc783d6FFBad6aBc7b1836",
  "extraData": "0x476574682f76312e302e312d39393231366634612f6c696e75782f676f312e34",
  "transactions": [
    {
      "hash": "0xfc141fdbdb8249c794a636a48648c9a585da1ea2143793ec59783b61e5da465b",
      "blockHash": "0xf184bbf5f872e5bbb2659198578a2d782ca6a6e229440a84d3671e73c6160c86",
      "blockNumber": 110655,
      "transactionIndex": 0,
      "confirmations": null,
      "from": "0x32Be343B94f860124dC4fEe278FDCBD38C102D88",
      "gasPrice": {
        "_hex": "0xd1652e068"
      },
      "gasLimit": {
        "_hex": "0x5208"
      },
      "to": "0xeD3Fd00D62A795a3A07c71B4f4D94003F92f8A86",
      "value": {
        "_hex": "0xad78ebc5ac6200000"
      },
      "nonce": 1292,
      "data": "0x",
      "r": "0x4bc612910f3fa61a8e38e0947c4aac930f54a55f54f193269ee170e9763f4847",
      "s": "0x5465577a012ef093ced77f3b79fd8d013864fa15a86c138999f2f836e9cc47af",
      "v": 28,
      "creates": null,
      "raw": "0xf86f82050c850d1652e06882520894ed3fd00d62a795a3a07c71b4f4d94003f92f8a86890ad78ebc5ac6200000801ca04bc612910f3fa61a8e38e0947c4aac930f54a55f54f193269ee170e9763f4847a05465577a012ef093ced77f3b79fd8d013864fa15a86c138999f2f836e9cc47af",
      "networkId": 0,
      "chainId": 0
    }
  ]
}