{
  "hash": "0xf76711fbb7fb9f9377c872f8aa6e7cf09469aa27bbc67804d1b11eda08ffb11d",
  "parentHash": "0xc0d9cac4d2debf6dd671598366eb35deac8100a9a2b845c0a601e6545aefada6",
  "number": 121819,
  "timestamp": 1440183107,
  "nonce": "0x8a44e2dcf72c3a66",
  "difficulty": 4490786511659,
  "gasLimit": {
    "_hex": "0x2fefd8"
  },
  "gasUsed": {
    "_hex": "0x5208"
  },
  "miner": "0xe6A7a1d47ff21B6321162AEA7C6CB457D5476Bca",
  "extraData": "0xd783010002844765746887676f312e342e32856c696e7578",
  "transactions": [
    {
      "hash": "0x1252245fd876fdc6342f867bb893fd1810bbc5dec7033043f24e21218677071b",
      "blockHash": "0xf76711fbb7fb9f9377c872f8aa6e7cf09469aa27bbc67804d1b11eda08ffb11d",
      "blockNumber": 121819,
      "transactionIndex": 0,
      "confirmations": null,
      "from": "0x96dadE6c87E483acb081E9f669B4fc029a440E8B",
      "gasPrice": {
        "_hex": "0xd69b48315"
      },
      "gasLimit": {
        "_hex": "0x5208"
      },
      "to": "0x647E3aeB83A9fe82d643D806c0E2E4762B81A876",
      "value": {
        "_hex": "0x2c68af0bb140000"
      },
      "nonce": 5,
      "data": "0x",
      "r": "0xee2b2c576f7d54d017a21a2554e7f923e5e1abcbb3ecdec81c981d0e62c6975f",
      "s": "0x0be6f2b30dd47be5831679b453771aac8902d17df515bfaa11446789c923ce5c",
      "v": 28,
      "creates": null,
      "raw": "0xf86c05850d69b4831582520894647e3aeb83a9fe82d643d806c0e2e4762b81a8768802c68af0bb140000801ca0ee2b2c576f7d54d017a21a2554e7f923e5e1abcbb3ecdec81c981d0e62c6975fa00be6f2b30dd47be5831679b453771aac8902d17df515bfaa11446789c923ce5c",
      "networkId": 0,
      "chainId": 0
    }
  ]
}