{
  "hash": "0x9bc1305d06f2303dd5e9e474e88c846b69804e9bd0ff3fe285013f2235829704",
  "parentHash": "0x4a2ce2861ad7194969968f8fbc9fcc3b01ecdd300a440cf406c1fb40e8eab9e2",
  "number": 68940,
  "timestamp": 1439295981,
  "nonce": "0x7d32de05f4abf5cf",
  "difficulty": 2031988876093,
  "gasLimit": {
    "_hex": "0x2fefd8"
  },
  "gasUsed": {
    "_hex": "0x14820"
  },
  "miner": "0xe6A7a1d47ff21B6321162AEA7C6CB457D5476Bca",
  "extraData": "0x476574682f76312e302e312d38326566323666362f6c696e75782f676f312e34",
  "transactions": [
    {
      "hash": "0xe733d6e9610324b85d63368d9cf7fdde6a87a84b8f7c1e26092606ebdff07ecd",
      "blockHash": "0x9bc1305d06f2303dd5e9e474e88c846b69804e9bd0ff3fe285013f2235829704",
      "blockNumber": 68940,
      "transactionIndex": 0,
      "confirmations": null,
      "from": "0xa8eD12F56b2Ee4F771b41432b2f3aCc268a675a0",
      "gasPrice": {
        "_hex": "0xba43b7400"
      },
      "gasLimit": {
        "_hex": "0x5208"
      },
      "to": "0x7328289F8ed1FeacE8E6a9a2876b22D948C41EDf",
      "value": {
        "_hex": "0xaa9f075c200000"
      },
      "nonce": 1,
      "data": "0x",
      "r": "0x3d27ce71cc3e9a1fc13754f6c0baf8f3e6ca9373dd769249146330d1455e6584",
      "s": "0x6a041c7990af0746725ca9b608134b266f8d03dd3a345bb3e9c06fc286ed3768",
      "v": 27,
      "creates": null,
      "raw": "0xf86b01850ba43b7400825208947328289f8ed1feace8e6a9a2876b22d948c41edf87aa9f075c200000801ba03d27ce71cc3e9a1fc13754f6c0baf8f3e6ca9373dd769249146330d1455e6584a06a041c7990af0746725ca9b608134b266f8d03dd3a345bb3e9c06fc286ed3768",
      "networkId": 0,
      "chainId": 0
    },
    {
      "hash": "0xd7a4debb280ff6f8d534deaf62903240c97c7913aae9c79ed487e634ae32abe6",
      "blockHash": "0x9bc1305d06f2303dd5e9e474e88c846b69804e9bd0ff3fe285013f2235829704",
      "blockNumber": 68940,
      "transactionIndex": 1,
      "confirmations": null,
      "from": "0xDD0AF477968a18C6740e195CA757168A306B8079",
      "gasPrice": {
        "_hex": "0xba43b7400"
      },
      "gasLimit": {
        "_hex": "0x5208"
      },
      "to": "0x00CCD807B5786Bb8390566F7e0a5a29409B96AD0",
      "value": {
        "_hex": "0xaa9f075c200000"
      },
      "nonce": 1,
      "data": "0x",
      "r": "0x1c5371b60b628a57417c367620362ddfab1c7f5176f257b3bae2ea91d8f960ac",
      "s": "0x03c4d205e572e192faf201649d7ea51079650e3538b249f53eb42fbfd691bf41",
      "v": 28,
      "creates": null,
      "raw": "0xf86b01850ba43b74008252089400ccd807b5786bb8390566f7e0a5a29409b96ad087aa9f075c200000801ca01c5371b60b628a57417c367620362ddfab1c7f5176f257b3bae2ea91d8f960aca003c4d205e572e192faf201649d7ea51079650e3538b249f53eb42fbfd691bf41",
      "networkId": 0,
      "chainId": 0
    },
    {
      "hash": "0xe3100edff0a6742956e53c6b5b67ecbbe25248ae53d776ed2b71c40e4c468b50",
      "blockHash": "0x9bc1305d06f2303dd5e9e474e88c846b69804e9bd0ff3fe285013f2235829704",
      "blockNumber": 68940,
      "transactionIndex": 2,
      "confirmations": null,
      "from": "0x7B55d9c3d18eF03F3baA9493a1eFcE3bfE4A8d5f",
      "gasPrice": {
        "_hex": "0xba43b7400"
      },
      "gasLimit": {
        "_hex": "0x5208"
      },
      "to": "0xFAC95789653eF4428E44c3522aDE8C7768176bcC",
      "value": {
        "_hex": "0xaa9f075c200000"
      },
      "nonce": 1,
      "data": "0x",
      "r": "0x05a51eeaba2179a534c4bc7733c127deb8674a53ce9826aaade2a20578606bf4",
      "s": "0x1a3baee8d9efe66a6414c39c1bef8a9aef57a441eef339d38cc5eecca64ce3ae",
      "v": 28,
      "creates": null,
      "raw": "0xf86b01850ba43b740082520894fac95789653ef4428e44c3522ade8c7768176bcc87aa9f075c200000801ca005a51eeaba2179a534c4bc7733c127deb8674a53ce9826aaade2a20578606bf4a01a3baee8d9efe66a6414c39c1bef8a9aef57a441eef339d38cc5eecca64ce3ae",
      "networkId": 0,
      "chainId": 0
    },
    {
      "hash": "0x4060e95e4b379f805b5e78ba40c669c4fa9243c6e479686a9f487b5a1fa026a5",
      "blockHash": "0x9bc1305d06f2303dd5e9e474e88c846b69804e9bd0ff3fe285013f2235829704",
      "blockNumber": 68940,
      "transactionIndex": 3,
      "confirmations": null,
      "from": "0x1ac01121D2D715C58C0C5Df0e64A3db54D724AcA",
      "gasPrice": {
        "_hex": "0xba43b7400"
      },
      "gasLimit": {
        "_hex": "0x5208"
      },
      "to": "0x622d134779f3B47E31A87BC4903e0c93b31077be",
      "value": {
        "_hex": "0xaa9f075c200000"
      },
      "nonce": 1,
      "data": "0x",
      "r": "0x5d50b7af77de1d2bf32dc72951c992181d34641e06f1f40ef1bedf6942fa9195",
      "s": "0x0bb5a0ef9b5d58cf8299855f6d05ed197cd3afd280a37cd74e5446364e630c1c",
      "v": 27,
      "creates": null,
      "raw": "0xf86b01850ba43b740082520894622d134779f3b47e31a87bc4903e0c93b31077be87aa9f075c200000801ba05d50b7af77de1d2bf32dc72951c992181d34641e06f1f40ef1bedf6942fa9195a00bb5a0ef9b5d58cf8299855f6d05ed197cd3afd280a37cd74e5446364e630c1c",
      "networkId": 0,
      "chainId": 0
    }
  ]
}