{
  "hash": "0x1d40d01e0fed9c9e10a57ecbf76777cc97517ca7aa57838baecf35285cdafcfe",
  "parentHash": "0x448a3c07efbb8fb17f81f822a3e2a8508f06284505ffd4de3a582a0b15e24f58",
  "number": 47993,
  "timestamp": 1438949611,
  "nonce": "0x55459a937fe6aadd",
  "difficulty": 1460812189341,
  "gasLimit": {
    "_hex": "0x11558"
  },
  "gasUsed": {
    "_hex": "0xa674"
  },
  "miner": "0xf927a40C8B7F6E07c5af7FA2155B4864a4112B13",
  "extraData": "0x476574682f76312e302e312f6c696e75782f676f312e342e32",
  "transactions": [
    {
      "hash": "0xd0dbfbdabd170e6fd53b01f407c08511be86585d91b3adb02f9fb4cbce921bd0",
      "blockHash": "0x1d40d01e0fed9c9e10a57ecbf76777cc97517ca7aa57838baecf35285cdafcfe",
      "blockNumber": 47993,
      "transactionIndex": 0,
      "confirmations": null,
      "from": "0x07A8DAdEc142571A7D53A4297051786d072Cba55",
      "gasPrice": {
        "_hex": "0x746a528800"
      },
      "gasLimit": {
        "_hex": "0x5208"
      },
      "to": "0x339314EDFad76e605EF2502a570aF26fC1ccd8A8",
      "value": {
        "_hex": "0x13b485361d9b64000"
      },
      "nonce": 0,
      "data": "0x",
      "r": "0x8d021816814d35e2e455399e84e8e1a1b6feb19aa416879a26eb4cf18cfdad0a",
      "s": "0x6bf3cdf153e182a4e688f105f1a033836ed53f48d4cee59b2f4da4a57576a456",
      "v": 27,
      "creates": null,
      "raw": "0xf86d8085746a52880082520894339314edfad76e605ef2502a570af26fc1ccd8a889013b485361d9b64000801ba08d021816814d35e2e455399e84e8e1a1b6feb19aa416879a26eb4cf18cfdad0aa06bf3cdf153e182a4e688f105f1a033836ed53f48d4cee59b2f4da4a57576a456",
      "networkId": 0,
      "chainId": 0
    },
    {
      "hash": "0xd31bd1e319ffbc3db4d2b899b15b62923a97dc51134284a3fc12187499320ecf",
      "blockHash": "0x1d40d01e0fed9c9e10a57ecbf76777cc97517ca7aa57838baecf35285cdafcfe",
      "blockNumber": 47993,
      "transactionIndex": 1,
      "confirmations": null,
      "from": "0x40A331195B977325c2aA28FA2f42cb25Ec3c253c",
      "gasPrice": {
        "_hex": "0xce222d064"
      },
      "gasLimit": {
        "_hex": "0x9c40"
      },
      "to": "0x2910543Af39abA0Cd09dBb2D50200b3E800A63D2",
      "value": {
        "_hex": "0x50b806aaf09ca40000"
      },
      "nonce": 6,
      "data": "0x454e364337445a3538",
      "r": "0xc584f32b8416df8018c08be673808d947149890a906db2ebf3e858f7f0a4ce8f",
      "s": "0x08cd16462e82ab651380ff85e2589939b68a32627891b751e1b186e73926b878",
      "v": 27,
      "creates": null,
      "raw": "0xf87606850ce222d064829c40942910543af39aba0cd09dbb2d50200b3e800a63d28950b806aaf09ca4000089454e364337445a35381ba0c584f32b8416df8018c08be673808d947149890a906db2ebf3e858f7f0a4ce8fa008cd16462e82ab651380ff85e2589939b68a32627891b751e1b186e73926b878",
      "networkId": 0,
      "chainId": 0
    }
  ]
}