{
  "hash": "0xe2aa20890f8309884e25258b5cd6557a60c2d8da05a3d8dabd50879348379f68",
  "parentHash": "0x44031b31073b5e5bd5c56c815185df2e31d059f7cf155095b948dae201d35162",
  "number": 73024,
  "timestamp": 1439361956,
  "nonce": "0x7477854aa7bf9c3e",
  "difficulty": 2215420602891,
  "gasLimit": {
    "_hex": "0x2fefd8"
  },
  "gasUsed": {
    "_hex": "0x5208"
  },
  "miner": "0x9D49F602b0fdb924Bd63DDE2Bd0907E4A07c63a7",
  "extraData": "0x476574682f76312e302e312f6c696e75782f676f312e342e32",
  "transactions": [
    {
      "hash": "0x1f57741b94b46d491bae983cad121f98eb677a8462244e87e35a1fd330318116",
      "blockHash": "0xe2aa20890f8309884e25258b5cd6557a60c2d8da05a3d8dabd50879348379f68",
      "blockNumber": 73024,
      "transactionIndex": 0,
      "confirmations": null,
      "from": "0xabceA603089850F8f6bB612A9031554D90A247CF",
      "gasPrice": {
        "_hex": "0xd2892cd3b"
      },
      "gasLimit": {
        "_hex": "0x5208"
      },
      "to": "0x32Be343B94f860124dC4fEe278FDCBD38C102D88",
      "value": {
        "_hex": "0x8ac2eb9c7964d800"
      },
      "nonce": 8,
      "data": "0x",
      "r": "0x411c26673175728df30e112a475f35a7005eb2de807d3a60345f727e97bcd25c",
      "s": "0x3d3bd14fb75397e4b5cccb1ad46664af90933f1ff478da37640b0923806ed8f2",
      "v": 28,
      "creates": null,
      "raw": "0xf86c08850d2892cd3b8252089432be343b94f860124dc4fee278fdcbd38c102d88888ac2eb9c7964d800801ca0411c26673175728df30e112a475f35a7005eb2de807d3a60345f727e97bcd25ca03d3bd14fb75397e4b5cccb1ad46664af90933f1ff478da37640b0923806ed8f2",
      "networkId": 0,
      "chainId": 0
    }
  ]
}