{
  "hash": "0xb23301512d4a3c58c8b883dde22631ad6706561b93d632ac3675c3c9704cd579",
  "parentHash": "0x1da287583836721762ecc8bcaacfdc0513fe3ac961cfa44f12704c0a6d6b98ee",
  "number": 112754,
  "timestamp": 1440012673,
  "nonce": "0x9c8a22a13c5d1032",
  "difficulty": 4436762277204,
  "gasLimit": {
    "_hex": "0x2fefd8"
  },
  "gasUsed": {
    "_hex": "0xf618"
  },
  "miner": "0xe6A7a1d47ff21B6321162AEA7C6CB457D5476Bca",
  "extraData": "0x476574682f76312e302e312d38326566323666362f6c696e75782f676f312e34",
  "transactions": [
    {
      "hash": "0x568b731d2d0c89328aaee4fd93b0d0b7be6f9df1cee475503c016ae0762382e2",
      "blockHash": "0xb23301512d4a3c58c8b883dde22631ad6706561b93d632ac3675c3c9704cd579",
      "blockNumber": 112754,
      "transactionIndex": 0,
      "confirmations": null,
      "from": "0x6CB5e8313a5B29aDb14AE1884D3EcE4489d02D77",
      "gasPrice": {
        "_hex": "0xd65b341c6"
      },
      "gasLimit": {
        "_hex": "0x5208"
      },
      "to": "0x32Be343B94f860124dC4fEe278FDCBD38C102D88",
      "value": {
        "_hex": "0x80fb99970a3c8000"
      },
      "nonce": 8,
      "data": "0x",
      "r": "0x32893d3dd5f7a10c5647d069f3ac5a90bf75d8c65f70df0255a554a79d870460",
      "s": "0x2b9b23296f791a2d8464edfcb97a44452a7212cbb38921cfb249c69a82d9e6e2",
      "v": 27,
      "creates": null,
      "raw": "0xf86c08850d65b341c68252089432be343b94f860124dc4fee278fdcbd38c102d888880fb99970a3c8000801ba032893d3dd5f7a10c5647d069f3ac5a90bf75d8c65f70df0255a554a79d870460a02b9b23296f791a2d8464edfcb97a44452a7212cbb38921cfb249c69a82d9e6e2",
      "networkId": 0,
      "chainId": 0
    },
    {
      "hash": "0x7377174eedc1d97025224c0f60ad2c089ae668342ae3b5dc89f1e680a9a33740",
      "blockHash": "0xb23301512d4a3c58c8b883dde22631ad6706561b93d632ac3675c3c9704cd579",
      "blockNumber": 112754,
      "transactionIndex": 1,
      "confirmations": null,
      "from": "0x164d6C84C4D54AA3E22A5b2B72cFb968eDe862C5",
      "gasPrice": {
        "_hex": "0xd4002004a"
      },
      "gasLimit": {
        "_hex": "0x5208"
      },
      "to": "0x32Be343B94f860124dC4fEe278FDCBD38C102D88",
      "value": {
        "_hex": "0x10509725a1a182000"
      },
      "nonce": 6,
      "data": "0x",
      "r": "0xbe8869b819b6448b55e555b3435b6829cdde035472a21db730e1091c8ba777a0",
      "s": "0x590c706d4dc4bbf670006999e039ace786bab90701b3fd7e3eb61019060b0c39",
      "v": 28,
      "creates": null,
      "raw": "0xf86d06850d4002004a8252089432be343b94f860124dc4fee278fdcbd38c102d8889010509725a1a182000801ca0be8869b819b6448b55e555b3435b6829cdde035472a21db730e1091c8ba777a0a0590c706d4dc4bbf670006999e039ace786bab90701b3fd7e3eb61019060b0c39",
      "networkId": 0,
      "chainId": 0
    },
    {
      "hash": "0x321b04bb5bfb7152254d4e3420d6dfcd6c460b91b46f5ef435f5577b55cb1c4a",
      "blockHash": "0xb23301512d4a3c58c8b883dde22631ad6706561b93d632ac3675c3c9704cd579",
      "blockNumber": 112754,
      "transactionIndex": 2,
      "confirmations": null,
      "from": "0xCCe96724c29e042F35bCe1c2405feB0e8E30082b",
      "gasPrice": {
        "_hex": "0xd4002004a"
      },
      "gasLimit": {
        "_hex": "0x5208"
      },
      "to": "0x32Be343B94f860124dC4fEe278FDCBD38C102D88",
      "value": {
        "_hex": "0x9fd66f1fef88a000"
      },
      "nonce": 8,
      "data": "0x",
      "r": "0x9eef129dfc5c7cec8f88b2f04e7aff115a527dcc26553a0277f66a99f5819502",
      "s": "0x1c40c50209d0352369f379240c2e7aeb678b942223a21c1eb25b8117235db306",
      "v": 28,
      "creates": null,
      "raw": "0xf86c08850d4002004a8252089432be343b94f860124dc4fee278fdcbd38c102d88889fd66f1fef88a000801ca09eef129dfc5c7cec8f88b2f04e7aff115a527dcc26553a0277f66a99f5819502a01c40c50209d0352369f379240c2e7aeb678b942223a21c1eb25b8117235db306",
      "networkId": 0,
      "chainId": 0
    }
  ]
}