{
  "hash": "0xe2125bdf4d10eafce5b9306b75fe27f97127a171c375a59849680c6d849e30c1",
  "parentHash": "0xec91475dea32f582e3444bd5b44a8f36c0041c068867d0004bedf9e5c522cd57",
  "number": 82000,
  "timestamp": 1439511656,
  "nonce": "0xb0e132e71b3ec2d1",
  "difficulty": 2404591585540,
  "gasLimit": {
    "_hex": "0x2fefd8"
  },
  "gasUsed": {
    "_hex": "0x5208"
  },
  "miner": "0x0a58b1C9aaF19693813c11b8a20D20C2a8Fe8883",
  "extraData": "0xd983010001844765746887676f312e342e328777696e646f7773",
  "transactions": [
    {
      "hash": "0x3b556a61efdc0aec674f970b78fc45ffe74eaf5233f14dcea810fff6f8fe6cec",
      "blockHash": "0xe2125bdf4d10eafce5b9306b75fe27f97127a171c375a59849680c6d849e30c1",
      "blockNumber": 82000,
      "transactionIndex": 0,
      "confirmations": null,
      "from": "0xa5CEEf50b1DD9bF1b9183e9493Fe6A6aa5Cc1678",
      "gasPrice": {
        "_hex": "0xcadc500a5"
      },
      "gasLimit": {
        "_hex": "0x15f90"
      },
      "to": "0xf357482c5A92C7B2Cee6a157034362b7d7d88c5A",
      "value": {
        "_hex": "0xc0e6b85ac9ee0000"
      },
      "nonce": 2,
      "data": "0x",
      "r": "0x93d799bbafb62a199dc708f6aaa808bd84aa5e354e2194f167b34305fa248882",
      "s": "0x4504f63afd4885ccb8703ab34fdeaa3b904f9d1c6b200c0523ed424e4bf5a9cd",
      "v": 28,
      "creates": null,
      "raw": "0xf86d02850cadc500a583015f9094f357482c5a92c7b2cee6a157034362b7d7d88c5a88c0e6b85ac9ee0000801ca093d799bbafb62a199dc708f6aaa808bd84aa5e354e2194f167b34305fa248882a04504f63afd4885ccb8703ab34fdeaa3b904f9d1c6b200c0523ed424e4bf5a9cd",
      "networkId": 0,
      "chainId": 0
    }
  ]
}