{
  "hash": "0x2b29db5a98c44eb5d0a8b59f7e9a1c9a0340fcd029afccb32b5ff87c91c9508a",
  "parentHash": "0x1db5d658182a15da033b050414a2f51ecd91a4bcd14d323c0eb0c939300164bd",
  "number": 68954,
  "timestamp": 1439296132,
  "nonce": "0x81ee8db5404f4458",
  "difficulty": 2035958085039,
  "gasLimit": {
    "_hex": "0x2fefd8"
  },
  "gasUsed": {
    "_hex": "0x33450"
  },
  "miner": "0xf927a40C8B7F6E07c5af7FA2155B4864a4112B13",
  "extraData": "0x",
  "transactions": [
    {
      "hash": "0x732d20a9ac7a979bb7dee8777b25ea426bbded07076f1477c725b35d809dcabc",
      "blockHash": "0x2b29db5a98c44eb5d0a8b59f7e9a1c9a0340fcd029afccb32b5ff87c91c9508a",
      "blockNumber": 68954,
      "transactionIndex": 0,
      "confirmations": null,
      "from": "0x1Ba1A80AE240a3089fD7a78292f940d84d7074f4",
      "gasPrice": {
        "_hex": "0xe043a1e32"
      },
      "gasLimit": {
        "_hex": "0x5208"
      },
      "to": "0x32Be343B94f860124dC4fEe278FDCBD38C102D88",
      "value": {
        "_hex": "0x1b1ae059181b570000"
      },
      "nonce": 3,
      "data": "0x",
      "r": "0xbecf76e9ce1bb976f451598cfc186959413b78a4a5c8430d5489767fd8fc71c6",
      "s": "0x737f3a92a0a9b50189ed20fdbc19fb24cb90675ef5332dfc26581e499853f9ca",
      "v": 28,
      "creates": null,
      "raw": "0xf86d03850e043a1e328252089432be343b94f860124dc4fee278fdcbd38c102d88891b1ae059181b570000801ca0becf76e9ce1bb976f451598cfc186959413b78a4a5c8430d5489767fd8fc71c6a0737f3a92a0a9b50189ed20fdbc19fb24cb90675ef5332dfc26581e499853f9ca",
      "networkId": 0,
      "chainId": 0
    },
    {
      "hash": "0x9aca6fcebf1d30aedbb1118bc49bdb013d09f7679a97238773d8cde804914e51",
      "blockHash": "0x2b29db5a98c44eb5d0a8b59f7e9a1c9a0340fcd029afccb32b5ff87c91c9508a",
      "blockNumber": 68954,
      "transactionIndex": 1,
      "confirmations": null,
      "from": "0x3899A1cdB9b4275d84860c6AB72D09e08DCc589A",
      "gasPrice": {
        "_hex": "0xba43b7400"
      },
      "gasLimit": {
        "_hex": "0x5208"
      },
      "to": "0x61B34A0F8F3A467ABCA5e79c9dA49effbE943B89",
      "value": {
        "_hex": "0xc1c23435b07000"
      },
      "nonce": 1,
      "data": "0x",
      "r": "0x38f398471d83541d61d3c81d1f28f02949b91cd4df5348121a33346cc1e8ca54",
      "s": "0x1346220215fcbb85321809751a3a8564574386cb3ba5d4717d736619059c7a55",
      "v": 28,
      "creates": null,
      "raw": "0xf86b01850ba43b74008252089461b34a0f8f3a467abca5e79c9da49effbe943b8987c1c23435b07000801ca038f398471d83541d61d3c81d1f28f02949b91cd4df5348121a33346cc1e8ca54a01346220215fcbb85321809751a3a8564574386cb3ba5d4717d736619059c7a55",
      "networkId": 0,
      "chainId": 0
    },
    {
      "hash": "0x700b894db01ff09664925a5ba401e7698153ba3f51cdcfae0f0230102e01914b",
      "blockHash": "0x2b29db5a98c44eb5d0a8b59f7e9a1c9a0340fcd029afccb32b5ff87c91c9508a",
      "blockNumber": 68954,
      "transactionIndex": 2,
      "confirmations": null,
      "from": "0x2b7AC2cD9b501BdC2388E86F23f2D1312c046af3",
      "gasPrice": {
        "_hex": "0xba43b7400"
      },
      "gasLimit": {
        "_hex": "0x5208"
      },
      "to": "0x69d65D8477260d539a4f5CdeCc7cFed02927CF89",
      "value": {
        "_hex": "0xc1c23435b07000"
      },
      "nonce": 1,
      "data": "0x",
      "r": "0x1886fd4b035a14afd75f1766350e19bfe7347e092e708eadb9d564f1ae1ba5d5",
      "s": "0x7a0b07ed70165093d5b6a33164bc8efbbb7ec738a4be55c66dac4e0a4de92956",
      "v": 28,
      "creates": null,
      "raw": "0xf86b01850ba43b74008252089469d65d8477260d539a4f5cdecc7cfed02927cf8987c1c23435b07000801ca01886fd4b035a14afd75f1766350e19bfe7347e092e708eadb9d564f1ae1ba5d5a07a0b07ed70165093d5b6a33164bc8efbbb7ec738a4be55c66dac4e0a4de92956",
      "networkId": 0,
      "chainId": 0
    },
    {
      "hash": "0x860ee13cb7aff9a0dca90a1fc638505f6e7ca223bea5fe11313440633c1dd36e",
      "blockHash": "0x2b29db5a98c44eb5d0a8b59f7e9a1c9a0340fcd029afccb32b5ff87c91c9508a",
      "blockNumber": 68954,
      "transactionIndex": 3,
      "confirmations": null,
      "from": "0xE76bB0A55DcC3DA4ca385241EAc5718F6bB1D67D",
      "gasPrice": {
        "_hex": "0xba43b7400"
      },
      "gasLimit": {
        "_hex": "0x5208"
      },
      "to": "0xA7F4C0AfdaecA66cc37B19272e43B99D98BdD29B",
      "value": {
        "_hex": "0xc1c23435b07000"
      },
      "nonce": 1,
      "data": "0x",
      "r": "0x7ade17776545817dc81e6fbbd633c77f193cda3ee29314ae93585b1e47617792",
      "s": "0x504b654317425c5aaad7d465932cc5766926d4c27f39c91588b8d855b1b751b1",
      "v": 27,
      "creates": null,
      "raw": "0xf86b01850ba43b740082520894a7f4c0afdaeca66cc37b19272e43b99d98bdd29b87c1c23435b07000801ba07ade17776545817dc81e6fbbd633c77f193cda3ee29314ae93585b1e47617792a0504b654317425c5aaad7d465932cc5766926d4c27f39c91588b8d855b1b751b1",
      "networkId": 0,
      "chainId": 0
    },
    {
      "hash": "0x608b252f2b00afe0ec53879252ddf782feb86b028c2f7670f912350ab33227c9",
      "blockHash": "0x2b29db5a98c44eb5d0a8b59f7e9a1c9a0340fcd029afccb32b5ff87c91c9508a",
      "blockNumber": 68954,
      "transactionIndex": 4,
      "confirmations": null,
      "from": "0x74d7e96ae0E11F6537CD6811EfCEF7511e69C9f1",
      "gasPrice": {
        "_hex": "0xba43b7400"
      },
      "gasLimit": {
        "_hex": "0x5208"
      },
      "to": "0xcA19F23ed63fCAd809B75F6Bd896f73f417da33b",
      "value": {
        "_hex": "0xc1c23435b07000"
      },
      "nonce": 1,
      "data": "0x",
      "r": "0x3c856e436763b061d36ca9972d08db2657e9ffc965ae17adc5263876e11c563b",
      "s": "0x247764c9578a54f017013a41811f4e865140a2be809a4c3516e5a2bb8d9058bb",
      "v": 28,
      "creates": null,
      "raw": "0xf86b01850ba43b740082520894ca19f23ed63fcad809b75f6bd896f73f417da33b87c1c23435b07000801ca03c856e436763b061d36ca9972d08db2657e9ffc965ae17adc5263876e11c563ba0247764c9578a54f017013a41811f4e865140a2be809a4c3516e5a2bb8d9058bb",
      "networkId": 0,
      "chainId": 0
    },
    {
      "hash": "0x187082efb39de468d7b889d85c4a604a878e4ad9c0f256d8bcaf9cd4c43e7b09",
      "blockHash": "0x2b29db5a98c44eb5d0a8b59f7e9a1c9a0340fcd029afccb32b5ff87c91c9508a",
      "blockNumber": 68954,
      "transactionIndex": 5,
      "confirmations": null,
      "from": "0x4ad723b0Bd1E2f189ec2012D28b9d1d58c744373",
      "gasPrice": {
        "_hex": "0xba43b7400"
      },
      "gasLimit": {
        "_hex": "0x5208"
      },
      "to": "0x437Fe3e513aa0DBff6f8C946f5B702216b1F85be",
      "value": {
        "_hex": "0xc1c23435b07000"
      },
      "nonce": 1,
      "data": "0x",
      "r": "0x5e3613a4305e610ab40b0354247d255506eea5be9256c6df1f34ccfce5d10a0b",
      "s": "0x579779f99d37b0b9f874b043de97bf130f7d1a74dfd576369546a0115037552a",
      "v": 27,
      "creates": null,
      "raw": "0xf86b01850ba43b740082520894437fe3e513aa0dbff6f8c946f5b702216b1f85be87c1c23435b07000801ba05e3613a4305e610ab40b0354247d255506eea5be9256c6df1f34ccfce5d10a0ba0579779f99d37b0b9f874b043de97bf130f7d1a74dfd576369546a0115037552a",
      "networkId": 0,
      "chainId": 0
    },
    {
      "hash": "0x75129d19f7ecbf7fda777444c54252358bd71aa429a2932c09c7c116a0e0bc78",
      "blockHash": "0x2b29db5a98c44eb5d0a8b59f7e9a1c9a0340fcd029afccb32b5ff87c91c9508a",
      "blockNumber": 68954,
      "transactionIndex": 6,
      "confirmations": null,
      "from": "0x1387f0408dD08CEF5A4b7f5258Bda0067666b93b",
      "gasPrice": {
        "_hex": "0xba43b7400"
      },
      "gasLimit": {
        "_hex": "0x5208"
      },
      "to": "0x1eF803FCd8730CE3D437d15DeF6d9AD590840E12",
      "value": {
        "_hex": "0xc1c23435b07000"
      },
      "nonce": 1,
      "data": "0x",
      "r": "0x9ee123264d0d7b458ebd83c1d29067368b006c2bb501e3eafa7a478cbe6fd564",
      "s": "0x5ae902a8d133cc032632188c865e69b97efd6e695fd6473a798dc0a51db5e0ba",
      "v": 28,
      "creates": null,
      "raw": "0xf86b01850ba43b7400825208941ef803fcd8730ce3d437d15def6d9ad590840e1287c1c23435b07000801ca09ee123264d0d7b458ebd83c1d29067368b006c2bb501e3eafa7a478cbe6fd564a05ae902a8d133cc032632188c865e69b97efd6e695fd6473a798dc0a51db5e0ba",
      "networkId": 0,
      "chainId": 0
    },
    {
      "hash": "0x0ef72a97d89a1adee4c7f9eb678bd4405f8f1dae45debbfab550a5115f5bd930",
      "blockHash": "0x2b29db5a98c44eb5d0a8b59f7e9a1c9a0340fcd029afccb32b5ff87c91c9508a",
      "blockNumber": 68954,
      "transactionIndex": 7,
      "confirmations": null,
      "from": "0x0D4034E02bb759035dBaE78bDe38D2ec9f79Feb1",
      "gasPrice": {
        "_hex": "0xba43b7400"
      },
      "gasLimit": {
        "_hex": "0x5208"
      },
      "to": "0xDf89126fff309F08ac527f1AeBe3d5E5471c7A0f",
      "value": {
        "_hex": "0xc1c23435b07000"
      },
      "nonce": 1,
      "data": "0x",
      "r": "0x6a4b44083a20a00bb8b033dad2d53d30397c7745cce8a9e5ee8276800a4e6d6e",
      "s": "0x754296da34019ad4ce178de2ca7cede0d25edde3cb535b2483be51b0902eb7a8",
      "v": 27,
      "creates": null,
      "raw": "0xf86b01850ba43b740082520894df89126fff309f08ac527f1aebe3d5e5471c7a0f87c1c23435b07000801ba06a4b44083a20a00bb8b033dad2d53d30397c7745cce8a9e5ee8276800a4e6d6ea0754296da34019ad4ce178de2ca7cede0d25edde3cb535b2483be51b0902eb7a8",
      "networkId": 0,
      "chainId": 0
    },
    {
      "hash": "0xb418a33f2725c2e1d4af70385c1c6ca35bcbb2a6c13b77352bc7414981f1c7c0",
      "blockHash": "0x2b29db5a98c44eb5d0a8b59f7e9a1c9a0340fcd029afccb32b5ff87c91c9508a",
      "blockNumber": 68954,
      "transactionIndex": 8,
      "confirmations": null,
      "from": "0xd7cd983a1343848E6B4D7e189F8Fb050F1d440Ac",
      "gasPrice": {
        "_hex": "0xba43b7400"
      },
      "gasLimit": {
        "_hex": "0x5208"
      },
      "to": "0xff7CDb6b68e764c2CBD95ed2a81dD04145C4F2bD",
      "value": {
        "_hex": "0xc1c23435b07000"
      },
      "nonce": 1,
      "data": "0x",
      "r": "0x8ceabe7ae6aedac8193d8fb5655a02de88212c910c25d02d28e91b844362723f",
      "s": "0x2f648235ac125855f01018bb8b345920e687296917f4a0676ffa464d504b964d",
      "v": 27,
      "creates": null,
      "raw": "0xf86b01850ba43b740082520894ff7cdb6b68e764c2cbd95ed2a81dd04145c4f2bd87c1c23435b07000801ba08ceabe7ae6aedac8193d8fb5655a02de88212c910c25d02d28e91b844362723fa02f648235ac125855f01018bb8b345920e687296917f4a0676ffa464d504b964d",
      "networkId": 0,
      "chainId": 0
    },
    {
      "hash": "0xe3d6c319dbffbc541f034642149076a05008d5ec3786c2fedcb5bc194e073af9",
      "blockHash": "0x2b29db5a98c44eb5d0a8b59f7e9a1c9a0340fcd029afccb32b5ff87c91c9508a",
      "blockNumber": 68954,
      "transactionIndex": 9,
      "confirmations": null,
      "from": "0xDDFb0A4a63aBD565c7D801662c75cbA520638829",
      "gasPrice": {
        "_hex": "0xba43b7400"
      },
      "gasLimit": {
        "_hex": "0x5208"
      },
      "to": "0xa2b27B7D3f23DC4177A4Ad16aF288ac202781e9E",
      "value": {
        "_hex": "0xc1c23435b07000"
      },
      "nonce": 1,
      "data": "0x",
      "r": "0xfbe4f17e7780fe287ca30a03d1e7f2b76aad4cbe71d1b982a0ff675a09579985",
      "s": "0x2bf939f4e92ee4ff9a94762c1c62cf3bd558651ebec4d907ca1a99ec8474518b",
      "v": 27,
      "creates": null,
      "raw": "0xf86b01850ba43b740082520894a2b27b7d3f23dc4177a4ad16af288ac202781e9e87c1c23435b07000801ba0fbe4f17e7780fe287ca30a03d1e7f2b76aad4cbe71d1b982a0ff675a09579985a02bf939f4e92ee4ff9a94762c1c62cf3bd558651ebec4d907ca1a99ec8474518b",
      "networkId": 0,
      "chainId": 0
    }
  ]
}