{
  "hash": "0x959bf71661ab98282c5ece82fe11f41b009808bf405f60c3737d42459f507477",
  "parentHash": "0x26ec78d9f9b73d88af6bfab065ee4a3cffa2c0e2666f0a4a875ff1a7b21205f5",
  "number": 71230,
  "timestamp": 1439332830,
  "nonce": "0x23fb6007b092dd4c",
  "difficulty": 2143527867234,
  "gasLimit": {
    "_hex": "0x2fefd8"
  },
  "gasUsed": {
    "_hex": "0x93b2"
  },
  "miner": "0x6dED38803DA575897de5d51b7AEF3b86f35945A1",
  "extraData": "0x476574682f76312e302e312f6c696e75782f676f312e342e32",
  "transactions": [
    {
      "hash": "0x51fc267fd865b413eb1f0ee700109fc1383025ddc4f450a2e9291b59ca44b803",
      "blockHash": "0x959bf71661ab98282c5ece82fe11f41b009808bf405f60c3737d42459f507477",
      "blockNumber": 71230,
      "transactionIndex": 0,
      "confirmations": null,
      "from": "0x17580B766f7453525ca4C6A88b01b50570EA088C",
      "gasPrice": {
        "_hex": "0xcf42c49c0"
      },
      "gasLimit": {
        "_hex": "0x61a80"
      },
      "to": "0x5Fe5B7546D1628f7348B023A0393de1FC825A4fD",
      "value": {
        "_hex": "0x53444835ec580000"
      },
      "nonce": 125,
      "data": "0xb595b8b50000000000000000000000000000000000000000000000000000000000000000",
      "r": "0x39e701776918fc145691a725fa11a142bdf8151c074a18e2d74657ee161105ba",
      "s": "0x3d8ea58280112d7ccdf3523195fd3f12021e4fd6e4ce7cd7e7a840c10a62a6e7",
      "v": 28,
      "creates": null,
      "raw": "0xf8917d850cf42c49c083061a80945fe5b7546d1628f7348b023a0393de1fc825a4fd8853444835ec580000a4b595b8b500000000000000000000000000000000000000000000000000000000000000001ca039e701776918fc145691a725fa11a142bdf8151c074a18e2d74657ee161105baa03d8ea58280112d7ccdf3523195fd3f12021e4fd6e4ce7cd7e7a840c10a62a6e7",
      "networkId": 0,
      "chainId": 0
    }
  ]
}