{
  "hash": "0xa2ee7e2733f66f3b740862ac67fdd18578c92be7c09513b29e8fcc8a70383a09",
  "parentHash": "0xe2e04a70cff75783feff6e0ff58f1fdfe8d6abdcdd9408cfef5b56ec917aae67",
  "number": 90347,
  "timestamp": 1439638482,
  "nonce": "0x61f7d5da3835f85d",
  "difficulty": 3320500499889,
  "gasLimit": {
    "_hex": "0x2fefd8"
  },
  "gasUsed": {
    "_hex": "0x5208"
  },
  "miner": "0x9D49F602b0fdb924Bd63DDE2Bd0907E4A07c63a7",
  "extraData": "0x476574682f76312e302e312f6c696e75782f676f312e342e32",
  "transactions": [
    {
      "hash": "0xcff8f92c1e0cf85d7291004948e725a87366772ce555f2465396eca20e638e89",
      "blockHash": "0xa2ee7e2733f66f3b740862ac67fdd18578c92be7c09513b29e8fcc8a70383a09",
      "blockNumber": 90347,
      "transactionIndex": 0,
      "confirmations": null,
      "from": "0x32Be343B94f860124dC4fEe278FDCBD38C102D88",
      "gasPrice": {
        "_hex": "0xd55e740e2"
      },
      "gasLimit": {
        "_hex": "0x5208"
      },
      "to": "0xed1DF6E98551eF1fd69B5bA5A7F97d22dc4FeDE0",
      "value": {
        "_hex": "0xdbd2fc137a30000"
      },
      "nonce": 851,
      "data": "0x",
      "r": "0x83d2d9e057893f10be6ed1b82a464debd6b8ea85de8bac9c555fb1ae213c7578",
      "s": "0x102c98dc007a683616bf1366621d5074f9091b248cc1bf0abd57286e23681e4b",
      "v": 28,
      "creates": null,
      "raw": "0xf86e820353850d55e740e282520894ed1df6e98551ef1fd69b5ba5a7f97d22dc4fede0880dbd2fc137a30000801ca083d2d9e057893f10be6ed1b82a464debd6b8ea85de8bac9c555fb1ae213c7578a0102c98dc007a683616bf1366621d5074f9091b248cc1bf0abd57286e23681e4b",
      "networkId": 0,
      "chainId": 0
    }
  ]
}