{
  "hash": "0x52c065958a11f053a82708169df41de0b78c1c4e1f0fadd508b2205a9df0e2ad",
  "parentHash": "0xf61c60b568ca2acafa94ed1fafc4bcf134fb9f3142abf065bdba8d01eb90d84c",
  "number": 52243,
  "timestamp": 1439018694,
  "nonce": "0xf45e4935c8b9d962",
  "difficulty": 1554238850366,
  "gasLimit": {
    "_hex": "0x11a5cd"
  },
  "gasUsed": {
    "_hex": "0x5208"
  },
  "miner": "0x15dE68788d01B2504DF8621cB4721c54eD543305",
  "extraData": "0x476574682f76312e302e312d38326566323666362f6c696e75782f676f312e34",
  "transactions": [
    {
      "hash": "0xc5fb1bf01cdd2c66433660655a2b6a1a1390346ceb8343fc556223324c6cae6e",
      "blockHash": "0x52c065958a11f053a82708169df41de0b78c1c4e1f0fadd508b2205a9df0e2ad",
      "blockNumber": 52243,
      "transactionIndex": 0,
      "confirmations": null,
      "from": "0xfBC1aB9a735012CF8Aa4f8738c5811CDbF39a0C5",
      "gasPrice": {
        "_hex": "0x1099098014"
      },
      "gasLimit": {
        "_hex": "0x15f90"
      },
      "to": "0x9aB9F7a4B85412bfbe2f4F63b1C98808851C4F32",
      "value": {
        "_hex": "0x1"
      },
      "nonce": 0,
      "data": "0x",
      "r": "0x056f35edb07f73a075ee9629167e46f3d4c3eeb719c6c1b90624d348c5e8e377",
      "s": "0x3896d323f5b8b858fb3451a6f70614ed2ce1e1abe5872c7e6dc0fb304e7620c1",
      "v": 28,
      "creates": null,
      "raw": "0xf8658085109909801483015f90949ab9f7a4b85412bfbe2f4f63b1c98808851c4f3201801ca0056f35edb07f73a075ee9629167e46f3d4c3eeb719c6c1b90624d348c5e8e377a03896d323f5b8b858fb3451a6f70614ed2ce1e1abe5872c7e6dc0fb304e7620c1",
      "networkId": 0,
      "chainId": 0
    }
  ]
}