{
  "hash": "0x33b403ac2d9f09bfbd3587798e031dba9aa6b78a31ddf2a7047cf4365e2227fb",
  "parentHash": "0xfe5d74b22221aa777d0134d96eb992aae6b1e589b4cc03bc462f9e4a5d5c4e51",
  "number": 65702,
  "timestamp": 1439241555,
  "nonce": "0x2850bebc8bb5062c",
  "difficulty": 1935901145215,
  "gasLimit": {
    "_hex": "0x2fefd8"
  },
  "gasUsed": {
    "_hex": "0x5208"
  },
  "miner": "0xeB1325C8D9d3ea8D74aC11F4B00F1B2367686319",
  "extraData": "0x476574682f76312e302e312f77696e646f77732f676f312e342e32",
  "transactions": [
    {
      "hash": "0x058f07a846e4d40fdb0472165cb82f1486bf48464aea016727e40d459d71683d",
      "blockHash": "0x33b403ac2d9f09bfbd3587798e031dba9aa6b78a31ddf2a7047cf4365e2227fb",
      "blockNumber": 65702,
      "transactionIndex": 0,
      "confirmations": null,
      "from": "0x2910543Af39abA0Cd09dBb2D50200b3E800A63D2",
      "gasPrice": {
        "_hex": "0xd6fc8c299"
      },
      "gasLimit": {
        "_hex": "0x5208"
      },
      "to": "0xCbba2f66729Ec94442bbd504a8F45fF68cBE6b7f",
      "value": {
        "_hex": "0x18bbbc8177807af8000"
      },
      "nonce": 186,
      "data": "0x",
      "r": "0x5478d6cbfea8c001850728315c22f70bd0fe35642b65d9ccf8d2b590ac40bded",
      "s": "0x1c9409ff81a527101291fed5157fed831a1a7fd3e5bfe2bcc22fe80fda20cd4c",
      "v": 27,
      "creates": null,
      "raw": "0xf86f81ba850d6fc8c29982520894cbba2f66729ec94442bbd504a8f45ff68cbe6b7f8a018bbbc8177807af8000801ba05478d6cbfea8c001850728315c22f70bd0fe35642b65d9ccf8d2b590ac40bdeda01c9409ff81a527101291fed5157fed831a1a7fd3e5bfe2bcc22fe80fda20cd4c",
      "networkId": 0,
      "chainId": 0
    }
  ]
}