{
  "hash": "0xfdc989fe07b93d90553b86cbde15daaf0968df79a7925ee3acb081a80452d573",
  "parentHash": "0x5844de75906df40311005c8be25afe56435ef77d381821a3693134f7871d94e8",
  "number": 80415,
  "timestamp": 1439485232,
  "nonce": "0x26149081d3d40c2c",
  "difficulty": 2396839628111,
  "gasLimit": {
    "_hex": "0x2fefd8"
  },
  "gasUsed": {
    "_hex": "0xa674"
  },
  "miner": "0xB5ebc1ED9a468C33fceC311Cf6AAb5d07774F0ea",
  "extraData": "0x",
  "transactions": [
    {
      "hash": "0xa558e3d548150d7acf897812c22b32e727496f2d9617d501fa4d0bdbd93dffa4",
      "blockHash": "0xfdc989fe07b93d90553b86cbde15daaf0968df79a7925ee3acb081a80452d573",
      "blockNumber": 80415,
      "transactionIndex": 0,
      "confirmations": null,
      "from": "0x671c5D0ffeB3993FD3Ce1D4a70A04eD949B3a250",
      "gasPrice": {
        "_hex": "0x1092d1c645d"
      },
      "gasLimit": {
        "_hex": "0x55f0"
      },
      "to": "0x2910543Af39abA0Cd09dBb2D50200b3E800A63D2",
      "value": {
        "_hex": "0x2386f26fc10000"
      },
      "nonce": 5,
      "data": "0x454e42363131514538",
      "r": "0x7af2c74cb07e684c69fbb956d8e908d9fbb2d5afb14b67eadbc0b54c18c1cdc1",
      "s": "0x0695c021683f254f7a5ebcaa35d3b7bc93ab54efefc09f0faecaf36dcb91c743",
      "v": 28,
      "creates": null,
      "raw": "0xf875058601092d1c645d8255f0942910543af39aba0cd09dbb2d50200b3e800a63d2872386f26fc1000089454e423631315145381ca07af2c74cb07e684c69fbb956d8e908d9fbb2d5afb14b67eadbc0b54c18c1cdc1a00695c021683f254f7a5ebcaa35d3b7bc93ab54efefc09f0faecaf36dcb91c743",
      "networkId": 0,
      "chainId": 0
    },
    {
      "hash": "0x50d4bbcfd71a727d7bc273df322a886099d4baba1a8a267488ba7921c84c318c",
      "blockHash": "0xfdc989fe07b93d90553b86cbde15daaf0968df79a7925ee3acb081a80452d573",
      "blockNumber": 80415,
      "transactionIndex": 1,
      "confirmations": null,
      "from": "0x32Be343B94f860124dC4fEe278FDCBD38C102D88",
      "gasPrice": {
        "_hex": "0xcc194616a"
      },
      "gasLimit": {
        "_hex": "0x5208"
      },
      "to": "0xDb5c291125C43cE9d5bdc7a48410bf9D34A2Dd31",
      "value": {
        "_hex": "0x37eca09bc679d8000"
      },
      "nonce": 537,
      "data": "0x",
      "r": "0x08115196ce7b3187e0dc6412ff97b9c22eb612b7201c02fd08a2e3920cb7ceeb",
      "s": "0x761368491f3942b327cb1eaaf627d6e676bce4227f92b523ba47ac3da54b1dae",
      "v": 28,
      "creates": null,
      "raw": "0xf86f820219850cc194616a82520894db5c291125c43ce9d5bdc7a48410bf9d34a2dd3189037eca09bc679d8000801ca008115196ce7b3187e0dc6412ff97b9c22eb612b7201c02fd08a2e3920cb7ceeba0761368491f3942b327cb1eaaf627d6e676bce4227f92b523ba47ac3da54b1dae",
      "networkId": 0,
      "chainId": 0
    }
  ]
}