{
  "hash": "0xdefab2fee5026dc677c619f43fa9be6e5453bba62b4bcb9aca95ffef8621d53b",
  "parentHash": "0xce5c48a268e40e965e60e474c46c4285c971951aa2bb5059c4bd759467cf6ecc",
  "number": 105336,
  "timestamp": 1439885836,
  "nonce": "0x4a2d9c6fa46765d2",
  "difficulty": 4359051549705,
  "gasLimit": {
    "_hex": "0x2fefd8"
  },
  "gasUsed": {
    "_hex": "0x57288"
  },
  "miner": "0x190174d939CC332eE1Ea9351AD703ddF7364Ca68",
  "extraData": "0x476574682f76312e302e312d38326566323666362f6c696e75782f676f312e34",
  "transactions": [
    {
      "hash": "0xedd5c538ea4dccc5567da77f6915a56c56df42406a54204ec259074f2f59f843",
      "blockHash": "0xdefab2fee5026dc677c619f43fa9be6e5453bba62b4bcb9aca95ffef8621d53b",
      "blockNumber": 105336,
      "transactionIndex": 0,
      "confirmations": null,
      "from": "0xe6A7a1d47ff21B6321162AEA7C6CB457D5476Bca",
      "gasPrice": {
        "_hex": "0xdcce315f3"
      },
      "gasLimit": {
        "_hex": "0x55f0"
      },
      "to": "0x701aE497d3522329870Ada714AA902424EA8Da01",
      "value": {
        "_hex": "0x2429a771d0418f750"
      },
      "nonce": 3996,
      "data": "0x",
      "r": "0x8cb4b93fbb95087298367469340854843836734790374eaa2ff8b7bc16cd64ae",
      "s": "0x70b7dc17f7e11a5e74559835e9bc40a41d2e57ca40a637052c194aef4216949b",
      "v": 28,
      "creates": null,
      "raw": "0xf86f820f9c850dcce315f38255f094701ae497d3522329870ada714aa902424ea8da018902429a771d0418f750801ca08cb4b93fbb95087298367469340854843836734790374eaa2ff8b7bc16cd64aea070b7dc17f7e11a5e74559835e9bc40a41d2e57ca40a637052c194aef4216949b",
      "networkId": 0,
      "chainId": 0
    },
    {
      "hash": "0x42936bca5d85ebe61984012f2379943fa0d677183858c2fd7cf0e40ae0287d38",
      "blockHash": "0xdefab2fee5026dc677c619f43fa9be6e5453bba62b4bcb9aca95ffef8621d53b",
      "blockNumber": 105336,
      "transactionIndex": 1,
      "confirmations": null,
      "from": "0xe6A7a1d47ff21B6321162AEA7C6CB457D5476Bca",
      "gasPrice": {
        "_hex": "0xdcce315f3"
      },
      "gasLimit": {
        "_hex": "0x55f0"
      },
      "to": "0x30853f0562c79055Fbd88CFFC01A109b346752ba",
      "value": {
        "_hex": "0x242dfb2ffc82f7020"
      },
      "nonce": 3997,
      "data": "0x",
      "r": "0xa5e98bd42baae416ce5560ff14231ba1aae64937110c591dcc8acdbfa0daff66",
      "s": "0x0cb124461720dd3ad251bd25bfd3c2d2695ce3adccaf1291c66a117ff66c86e2",
      "v": 27,
      "creates": null,
      "raw": "0xf86f820f9d850dcce315f38255f09430853f0562c79055fbd88cffc01a109b346752ba890242dfb2ffc82f7020801ba0a5e98bd42baae416ce5560ff14231ba1aae64937110c591dcc8acdbfa0daff66a00cb124461720dd3ad251bd25bfd3c2d2695ce3adccaf1291c66a117ff66c86e2",
      "networkId": 0,
      "chainId": 0
    },
    {
      "hash": "0x3431b708cd0878d6a7f1b76e35843c6ebcd945cfd34ff1d9203bc1c18b468b4e",
      "blockHash": "0xdefab2fee5026dc677c619f43fa9be6e5453bba62b4bcb9aca95ffef8621d53b",
      "blockNumber": 105336,
      "transactionIndex": 2,
      "confirmations": null,
      "from": "0xe6A7a1d47ff21B6321162AEA7C6CB457D5476Bca",
      "gasPrice": {
        "_hex": "0xdcce315f3"
      },
      "gasLimit": {
        "_hex": "0x55f0"
      },
      "to": "0x04455296AB1f01C09050A906d4476480Cc7583d4",
      "value": {
        "_hex": "0x25bf8156851b69390"
      },
      "nonce": 3998,
      "data": "0x",
      "r": "0x110e364fe0545e3c3c3ad0df33ef450b9bbb732c7460f5bc80bc2ca67ca8a343",
      "s": "0x300f79b14f99c2bbf47abb1b459763cdbdc3b7ab5673aec797113c38d2b65001",
      "v": 28,
      "creates": null,
      "raw": "0xf86f820f9e850dcce315f38255f09404455296ab1f01c09050a906d4476480cc7583d489025bf8156851b69390801ca0110e364fe0545e3c3c3ad0df33ef450b9bbb732c7460f5bc80bc2ca67ca8a343a0300f79b14f99c2bbf47abb1b459763cdbdc3b7ab5673aec797113c38d2b65001",
      "networkId": 0,
      "chainId": 0
    },
    {
      "hash": "0x0ba0797175b594ca7065dfc7e0b540156e136886edf689499f159c6ad3ca9d0c",
      "blockHash": "0xdefab2fee5026dc677c619f43fa9be6e5453bba62b4bcb9aca95ffef8621d53b",
      "blockNumber": 105336,
      "transactionIndex": 3,
      "confirmations": null,
      "from": "0xe6A7a1d47ff21B6321162AEA7C6CB457D5476Bca",
      "gasPrice": {
        "_hex": "0xdcce315f3"
      },
      "gasLimit": {
        "_hex": "0x55f0"
      },
      "to": "0x52191276589069F70F0E46bcCc718d793d1Aa1D0",
      "value": {
        "_hex": "0x26ff29118dc324ed0"
      },
      "nonce": 3999,
      "data": "0x",
      "r": "0x1c521bf5e077e0aec52d748dd8a66b05d0955c869c58dc0dc58e9c8b8ea91f05",
      "s": "0x0d34e7e315c538d4cbaabb4db32e23a79c72a9d72da4a5909ef6122386a3da8a",
      "v": 28,
      "creates": null,
      "raw": "0xf86f820f9f850dcce315f38255f09452191276589069f70f0e46bccc718d793d1aa1d089026ff29118dc324ed0801ca01c521bf5e077e0aec52d748dd8a66b05d0955c869c58dc0dc58e9c8b8ea91f05a00d34e7e315c538d4cbaabb4db32e23a79c72a9d72da4a5909ef6122386a3da8a",
      "networkId": 0,
      "chainId": 0
    },
    {
      "hash": "0xce27047332d9be9534d5ab2b463d740e1d090daa7ac3c5ed9e0897f6de09990a",
      "blockHash": "0xdefab2fee5026dc677c619f43fa9be6e5453bba62b4bcb9aca95ffef8621d53b",
      "blockNumber": 105336,
      "transactionIndex": 4,
      "confirmations": null,
      "from": "0xe6A7a1d47ff21B6321162AEA7C6CB457D5476Bca",
      "gasPrice": {
        "_hex": "0xdcce315f3"
      },
      "gasLimit": {
        "_hex": "0x55f0"
      },
      "to": "0x06BcFDb20583cc822f2031724E36F3678BBCa6E9",
      "value": {
        "_hex": "0x270a97f2b135fe1a8"
      },
      "nonce": 4000,
      "data": "0x",
      "r": "0x122d6fe1e8cc83b5f598391d25f9e1f20a707fd801791d33d7605ce3d7efbb39",
      "s": "0x238dcd6621198e2732b15470e2a09ebe3d5b28abcf8e788b96f46348c3d647b2",
      "v": 27,
      "creates": null,
      "raw": "0xf86f820fa0850dcce315f38255f09406bcfdb20583cc822f2031724e36f3678bbca6e9890270a97f2b135fe1a8801ba0122d6fe1e8cc83b5f598391d25f9e1f20a707fd801791d33d7605ce3d7efbb39a0238dcd6621198e2732b15470e2a09ebe3d5b28abcf8e788b96f46348c3d647b2",
      "networkId": 0,
      "chainId": 0
    },
    {
      "hash": "0x7acd08cb359adc7aec03f065c4a7fff5ecbc53efd4cfdd5b73b6c94d714ffba3",
      "blockHash": "0xdefab2fee5026dc677c619f43fa9be6e5453bba62b4bcb9aca95ffef8621d53b",
      "blockNumber": 105336,
      "transactionIndex": 5,
      "confirmations": null,
      "from": "0xe6A7a1d47ff21B6321162AEA7C6CB457D5476Bca",
      "gasPrice": {
        "_hex": "0xdcce315f3"
      },
      "gasLimit": {
        "_hex": "0x55f0"
      },
      "to": "0x50087E7383C8865C1C136b8777C4350B8ed472CE",
      "value": {
        "_hex": "0x27441a62453f84730"
      },
      "nonce": 4001,
      "data": "0x",
      "r": "0x774b6c370c37d3f3cdc62b2b2468ed8139484603b254c8eb41bcd2237f0fc9d9",
      "s": "0x504c8d370374e55421cb561108f8d9657175f1cae0417b0643412f4d816035e3",
      "v": 27,
      "creates": null,
      "raw": "0xf86f820fa1850dcce315f38255f09450087e7383c8865c1c136b8777c4350b8ed472ce89027441a62453f84730801ba0774b6c370c37d3f3cdc62b2b2468ed8139484603b254c8eb41bcd2237f0fc9d9a0504c8d370374e55421cb561108f8d9657175f1cae0417b0643412f4d816035e3",
      "networkId": 0,
      "chainId": 0
    },
    {
      "hash": "0xbb600462f6d3a204154c3c5884a74a1aca0ad0be3e9fbaf1bd2844fb36ecb1b0",
      "blockHash": "0xdefab2fee5026dc677c619f43fa9be6e5453bba62b4bcb9aca95ffef8621d53b",
      "blockNumber": 105336,
      "transactionIndex": 6,
      "confirmations": null,
      "from": "0xe6A7a1d47ff21B6321162AEA7C6CB457D5476Bca",
      "gasPrice": {
        "_hex": "0xdcce315f3"
      },
      "gasLimit": {
        "_hex": "0x55f0"
      },
      "to": "0x4Dbfc5Cd4D88480476F951dbCD591396773aE56c",
      "value": {
        "_hex": "0x277040cec22c8ded8"
      },
      "nonce": 4002,
      "data": "0x",
      "r": "0xcd11d44e046e30a3ff2c2e473e3bf9d1e4b6cbb04201bc09ece52217c2e442cc",
      "s": "0x70d90c8c25e624453b7cdfafaf755d550177e3378349af90f3816460d11d85f6",
      "v": 28,
      "creates": null,
      "raw": "0xf86f820fa2850dcce315f38255f0944dbfc5cd4d88480476f951dbcd591396773ae56c890277040cec22c8ded8801ca0cd11d44e046e30a3ff2c2e473e3bf9d1e4b6cbb04201bc09ece52217c2e442cca070d90c8c25e624453b7cdfafaf755d550177e3378349af90f3816460d11d85f6",
      "networkId": 0,
      "chainId": 0
    },
    {
      "hash": "0xaded70e50863b6dafb64f02ea498856201a30a69658ba666413d1db08e2554c9",
      "blockHash": "0xdefab2fee5026dc677c619f43fa9be6e5453bba62b4bcb9aca95ffef8621d53b",
      "blockNumber": 105336,
      "transactionIndex": 7,
      "confirmations": null,
      "from": "0xe6A7a1d47ff21B6321162AEA7C6CB457D5476Bca",
      "gasPrice": {
        "_hex": "0xdcce315f3"
      },
      "gasLimit": {
        "_hex": "0x55f0"
      },
      "to": "0xBa9CF76D809cF9f2e3f180AFb33f0adb0826D7DF",
      "value": {
        "_hex": "0x280eb4f718fb5fa90"
      },
      "nonce": 4003,
      "data": "0x",
      "r": "0x8af79b500233890d591348b0f80228ac84de7f24a4b0c6bc5dfd3df1932cf542",
      "s": "0x5dff915148b506b822180e8fb3e13878d21ea199dd36aebf776b850f8ae282cb",
      "v": 27,
      "creates": null,
      "raw": "0xf86f820fa3850dcce315f38255f094ba9cf76d809cf9f2e3f180afb33f0adb0826d7df890280eb4f718fb5fa90801ba08af79b500233890d591348b0f80228ac84de7f24a4b0c6bc5dfd3df1932cf542a05dff915148b506b822180e8fb3e13878d21ea199dd36aebf776b850f8ae282cb",
      "networkId": 0,
      "chainId": 0
    },
    {
      "hash": "0x41d1e8093a87699ed3d68240ee52aac6443031144535081dcff095560779bd95",
      "blockHash": "0xdefab2fee5026dc677c619f43fa9be6e5453bba62b4bcb9aca95ffef8621d53b",
      "blockNumber": 105336,
      "transactionIndex": 8,
      "confirmations": null,
      "from": "0xe6A7a1d47ff21B6321162AEA7C6CB457D5476Bca",
      "gasPrice": {
        "_hex": "0xdcce315f3"
      },
      "gasLimit": {
        "_hex": "0x55f0"
      },
      "to": "0x123843545FB525C8E134c9A5F15ADA6865cc3848",
      "value": {
        "_hex": "0x2989bbe47f31c3a10"
      },
      "nonce": 4004,
      "data": "0x",
      "r": "0x703c2aca401ed7c921f68523885d878a1c288cdb5547e3243daeb5143b482add",
      "s": "0x210040d53917ff297bb7ee15933cbf2a1a8d5bd879007aeca795dc95599947e7",
      "v": 28,
      "creates": null,
      "raw": "0xf86f820fa4850dcce315f38255f094123843545fb525c8e134c9a5f15ada6865cc38488902989bbe47f31c3a10801ca0703c2aca401ed7c921f68523885d878a1c288cdb5547e3243daeb5143b482adda0210040d53917ff297bb7ee15933cbf2a1a8d5bd879007aeca795dc95599947e7",
      "networkId": 0,
      "chainId": 0
    },
    {
      "hash": "0x95d55cfc9445b1ffcfcc10d98d41c6067bf0c55aa54acb77abdb684098fc87d1",
      "blockHash": "0xdefab2fee5026dc677c619f43fa9be6e5453bba62b4bcb9aca95ffef8621d53b",
      "blockNumber": 105336,
      "transactionIndex": 9,
      "confirmations": null,
      "from": "0xe6A7a1d47ff21B6321162AEA7C6CB457D5476Bca",
      "gasPrice": {
        "_hex": "0xdcce315f3"
      },
      "gasLimit": {
        "_hex": "0x55f0"
      },
      "to": "0xc0920452d99591a4e8b190632c52754c72F73328",
      "value": {
        "_hex": "0x29a52c6087f8accc0"
      },
      "nonce": 4005,
      "data": "0x",
      "r": "0x70b97deeaa9221ddfd6627ff61a890ed6188c706e88f1255d84ab6f08f6b6940",
      "s": "0x161b9df928326bc202020cdb3fb66e3eac4c55536636c1f4544e567c8ff4dee5",
      "v": 27,
      "creates": null,
      "raw": "0xf86f820fa5850dcce315f38255f094c0920452d99591a4e8b190632c52754c72f7332889029a52c6087f8accc0801ba070b97deeaa9221ddfd6627ff61a890ed6188c706e88f1255d84ab6f08f6b6940a0161b9df928326bc202020cdb3fb66e3eac4c55536636c1f4544e567c8ff4dee5",
      "networkId": 0,
      "chainId": 0
    },
    {
      "hash": "0xf1d6ac99b924b677448ae01e2e5ec4de89326d9b2fea493616e88db840843042",
      "blockHash": "0xdefab2fee5026dc677c619f43fa9be6e5453bba62b4bcb9aca95ffef8621d53b",
      "blockNumber": 105336,
      "transactionIndex": 10,
      "confirmations": null,
      "from": "0xe6A7a1d47ff21B6321162AEA7C6CB457D5476Bca",
      "gasPrice": {
        "_hex": "0xdcce315f3"
      },
      "gasLimit": {
        "_hex": "0x55f0"
      },
      "to": "0x5248EfBC7319bd65d436374266765D9727253F12",
      "value": {
        "_hex": "0x29da4938649ef3150"
      },
      "nonce": 4006,
      "data": "0x",
      "r": "0xfc40079d27bfe85ed6ba87a8be9f220fbcd34243d48cb3b89be5f33d664a1d06",
      "s": "0x01d8b28fd0c755351419c015f7e0817051fc2d40e76dad9779f54c06928a36f3",
      "v": 27,
      "creates": null,
      "raw": "0xf86f820fa6850dcce315f38255f0945248efbc7319bd65d436374266765d9727253f1289029da4938649ef3150801ba0fc40079d27bfe85ed6ba87a8be9f220fbcd34243d48cb3b89be5f33d664a1d06a001d8b28fd0c755351419c015f7e0817051fc2d40e76dad9779f54c06928a36f3",
      "networkId": 0,
      "chainId": 0
    },
    {
      "hash": "0xbda8fbc53b06d09247f241785e09b405f1a586252752d599d59d63ed24fac1a3",
      "blockHash": "0xdefab2fee5026dc677c619f43fa9be6e5453bba62b4bcb9aca95ffef8621d53b",
      "blockNumber": 105336,
      "transactionIndex": 11,
      "confirmations": null,
      "from": "0xe6A7a1d47ff21B6321162AEA7C6CB457D5476Bca",
      "gasPrice": {
        "_hex": "0xdcce315f3"
      },
      "gasLimit": {
        "_hex": "0x55f0"
      },
      "to": "0x0dd48f729D5084545452A08F5E5AB412d7c2888a",
      "value": {
        "_hex": "0x2a34c37e5b2a08770"
      },
      "nonce": 4007,
      "data": "0x",
      "r": "0xb5a50a885b10727c3165b8ad89f1f85aea4a6bd82f7dd57ec1e2861b41f09118",
      "s": "0x04fa8bc4d6860327e52271f4c59b6d5f43585dc8d4a73ff3576b5003613ff5c1",
      "v": 28,
      "creates": null,
      "raw": "0xf86f820fa7850dcce315f38255f0940dd48f729d5084545452a08f5e5ab412d7c2888a8902a34c37e5b2a08770801ca0b5a50a885b10727c3165b8ad89f1f85aea4a6bd82f7dd57ec1e2861b41f09118a004fa8bc4d6860327e52271f4c59b6d5f43585dc8d4a73ff3576b5003613ff5c1",
      "networkId": 0,
      "chainId": 0
    },
    {
      "hash": "0x2887fc22c8f21f3ddca4b53ab605850473f0b9a4a14c5bfb58e657c04f3232cc",
      "blockHash": "0xdefab2fee5026dc677c619f43fa9be6e5453bba62b4bcb9aca95ffef8621d53b",
      "blockNumber": 105336,
      "transactionIndex": 12,
      "confirmations": null,
      "from": "0xe6A7a1d47ff21B6321162AEA7C6CB457D5476Bca",
      "gasPrice": {
        "_hex": "0xdcce315f3"
      },
      "gasLimit": {
        "_hex": "0x55f0"
      },
      "to": "0xF928B4834e4E886e04630Af5b4Ea8eBf46Fb205b",
      "value": {
        "_hex": "0x2c3b0fb7277b6fa10"
      },
      "nonce": 4008,
      "data": "0x",
      "r": "0xb3792706c6d8167662d2e6c1cfebeb638621f6293811aedec0e7f629044159d8",
      "s": "0x26d21acca7be43580d507327ab79e1b51fe85165dd2219fbb8191f6692e63eea",
      "v": 28,
      "creates": null,
      "raw": "0xf86f820fa8850dcce315f38255f094f928b4834e4e886e04630af5b4ea8ebf46fb205b8902c3b0fb7277b6fa10801ca0b3792706c6d8167662d2e6c1cfebeb638621f6293811aedec0e7f629044159d8a026d21acca7be43580d507327ab79e1b51fe85165dd2219fbb8191f6692e63eea",
      "networkId": 0,
      "chainId": 0
    },
    {
      "hash": "0x744661b9f210d0f15ee6eeb13b97fbfadc8bed5e4e68091046449d643fc19b1a",
      "blockHash": "0xdefab2fee5026dc677c619f43fa9be6e5453bba62b4bcb9aca95ffef8621d53b",
      "blockNumber": 105336,
      "transactionIndex": 13,
      "confirmations": null,
      "from": "0xe6A7a1d47ff21B6321162AEA7C6CB457D5476Bca",
      "gasPrice": {
        "_hex": "0xdcce315f3"
      },
      "gasLimit": {
        "_hex": "0x55f0"
      },
      "to": "0x7001C4730b81A539eF8b760A3eEb14C64515137B",
      "value": {
        "_hex": "0x2e118a5d07608e6a0"
      },
      "nonce": 4009,
      "data": "0x",
      "r": "0x30729028672ae3fd8f436da3906f6fc7380bc326ef1c281c6b5be5794ab63636",
      "s": "0x0ee05596656f2026986ec4e9cef4a1352ceafa6b742d49da19f45fd95998fc84",
      "v": 28,
      "creates": null,
      "raw": "0xf86f820fa9850dcce315f38255f0947001c4730b81a539ef8b760a3eeb14c64515137b8902e118a5d07608e6a0801ca030729028672ae3fd8f436da3906f6fc7380bc326ef1c281c6b5be5794ab63636a00ee05596656f2026986ec4e9cef4a1352ceafa6b742d49da19f45fd95998fc84",
      "networkId": 0,
      "chainId": 0
    },
    {
      "hash": "0x6b50f1fd420208c841f61655f731b1738ca483ffd5e44a59361a611c27656cb9",
      "blockHash": "0xdefab2fee5026dc677c619f43fa9be6e5453bba62b4bcb9aca95ffef8621d53b",
      "blockNumber": 105336,
      "transactionIndex": 14,
      "confirmations": null,
      "from": "0x1333a55102f1f4B3df95298b6CE863eF8d5BAf45",
      "gasPrice": {
        "_hex": "0xd04830431"
      },
      "gasLimit": {
        "_hex": "0x5208"
      },
      "to": "0x32Be343B94f860124dC4fEe278FDCBD38C102D88",
      "value": {
        "_hex": "0x41aac411fa5cc800"
      },
      "nonce": 11,
      "data": "0x",
      "r": "0x34b43aff1139222682a78dbec9756ecb3bb575090c1a850e627e7f5d8d5e2a1e",
      "s": "0x565248fee973d4482b33b05a82772d61bab1a40a21c05ae59a72d40ac4186d09",
      "v": 28,
      "creates": null,
      "raw": "0xf86c0b850d048304318252089432be343b94f860124dc4fee278fdcbd38c102d888841aac411fa5cc800801ca034b43aff1139222682a78dbec9756ecb3bb575090c1a850e627e7f5d8d5e2a1ea0565248fee973d4482b33b05a82772d61bab1a40a21c05ae59a72d40ac4186d09",
      "networkId": 0,
      "chainId": 0
    },
    {
      "hash": "0x01ca9b1a85a4ae0251b60b37f367a69bf286a78229432e093a6c2ba62d556ce3",
      "blockHash": "0xdefab2fee5026dc677c619f43fa9be6e5453bba62b4bcb9aca95ffef8621d53b",
      "blockNumber": 105336,
      "transactionIndex": 15,
      "confirmations": null,
      "from": "0xAD8c7FBFaBC46C35aDb03F7b3A67e731E5793899",
      "gasPrice": {
        "_hex": "0xce1fca973"
      },
      "gasLimit": {
        "_hex": "0x5208"
      },
      "to": "0x32Be343B94f860124dC4fEe278FDCBD38C102D88",
      "value": {
        "_hex": "0x5be9ce4ffef17400"
      },
      "nonce": 9,
      "data": "0x",
      "r": "0x248c3f8795855cb1c7322dded13bb54460c70a148bf5992bd2f0cb5d65c65087",
      "s": "0x508cc38e10b2f91f75379b1da7870a95284ed4c83869a4d000b469b07b80038e",
      "v": 28,
      "creates": null,
      "raw": "0xf86c09850ce1fca9738252089432be343b94f860124dc4fee278fdcbd38c102d88885be9ce4ffef17400801ca0248c3f8795855cb1c7322dded13bb54460c70a148bf5992bd2f0cb5d65c65087a0508cc38e10b2f91f75379b1da7870a95284ed4c83869a4d000b469b07b80038e",
      "networkId": 0,
      "chainId": 0
    },
    {
      "hash": "0x933af7b1f9552cef23865f9e9a38b0a674f5390674a5e7ccf3f0823902c89933",
      "blockHash": "0xdefab2fee5026dc677c619f43fa9be6e5453bba62b4bcb9aca95ffef8621d53b",
      "blockNumber": 105336,
      "transactionIndex": 16,
      "confirmations": null,
      "from": "0xbb30e448B72d6Fdd44973A4C7a312F92f22C8F07",
      "gasPrice": {
        "_hex": "0xce1fca973"
      },
      "gasLimit": {
        "_hex": "0x5208"
      },
      "to": "0x32Be343B94f860124dC4fEe278FDCBD38C102D88",
      "value": {
        "_hex": "0x673bf14317fc0000"
      },
      "nonce": 12,
      "data": "0x",
      "r": "0xa46361827aa6a45974f50b96b4cbd9bf18643be7a9cec16beafa68e53063e07b",
      "s": "0x38a62f7455d97159f9f77983d136ae91ccdb70e81d9d6f66e387c948e0333979",
      "v": 27,
      "creates": null,
      "raw": "0xf86c0c850ce1fca9738252089432be343b94f860124dc4fee278fdcbd38c102d8888673bf14317fc0000801ba0a46361827aa6a45974f50b96b4cbd9bf18643be7a9cec16beafa68e53063e07ba038a62f7455d97159f9f77983d136ae91ccdb70e81d9d6f66e387c948e0333979",
      "networkId": 0,
      "chainId": 0
    }
  ]
}