{
  "hash": "0xffc009535029e949c8662e106882696e50bd01f8a96df6e9668f125ddc1f6f79",
  "parentHash": "0x28174d4d4085287052de0cd5f7316c3e91fb4b5b258f3b1de73d2914bd0e747c",
  "number": 98803,
  "timestamp": 1439779273,
  "nonce": "0xae5a22f68da4f4b7",
  "difficulty": 3855490080895,
  "gasLimit": {
    "_hex": "0x2fefd8"
  },
  "gasUsed": {
    "_hex": "0x5208"
  },
  "miner": "0xf927a40C8B7F6E07c5af7FA2155B4864a4112B13",
  "extraData": "0x",
  "transactions": [
    {
      "hash": "0x2f275e67076546ebf9a55755dab747a9fb79bb11f8ed00ef44ffcca5fdf5919c",
      "blockHash": "0xffc009535029e949c8662e106882696e50bd01f8a96df6e9668f125ddc1f6f79",
      "blockNumber": 98803,
      "transactionIndex": 0,
      "confirmations": null,
      "from": "0xa6BDc31c431B8F97848c9D60cbbe9660dc450eB7",
      "gasPrice": {
        "_hex": "0xdf7070974"
      },
      "gasLimit": {
        "_hex": "0x5208"
      },
      "to": "0x32Be343B94f860124dC4fEe278FDCBD38C102D88",
      "value": {
        "_hex": "0x455f17f21a947000"
      },
      "nonce": 143,
      "data": "0x",
      "r": "0x4ff30b3f28ba4616d7c6d11ce3730ee51dafa27429d165d75fa56b1daf0a52af",
      "s": "0x6390310149e0f935a6be2e1cf2d5a95735e2a989dec10ae2697807cf39bb960c",
      "v": 27,
      "creates": null,
      "raw": "0xf86d818f850df70709748252089432be343b94f860124dc4fee278fdcbd38c102d8888455f17f21a947000801ba04ff30b3f28ba4616d7c6d11ce3730ee51dafa27429d165d75fa56b1daf0a52afa06390310149e0f935a6be2e1cf2d5a95735e2a989dec10ae2697807cf39bb960c",
      "networkId": 0,
      "chainId": 0
    }
  ]
}