{
  "hash": "0xc3c2c3a2a4ea880133d13a290639e4a615088c6f25f537497fa75baef88d8210",
  "parentHash": "0x8718efd697ffdc4fce56329e8f0c44e88ebc8b3b5aa76fa600d33fe85f8d84fa",
  "number": 85946,
  "timestamp": 1439571232,
  "nonce": "0x428ba5d593351e84",
  "difficulty": 2782623135976,
  "gasLimit": {
    "_hex": "0x2fefd8"
  },
  "gasUsed": {
    "_hex": "0x5208"
  },
  "miner": "0xe6A7a1d47ff21B6321162AEA7C6CB457D5476Bca",
  "extraData": "0x476574682f76312e302e312d38326566323666362f6c696e75782f676f312e34",
  "transactions": [
    {
      "hash": "0xa952b3f8a64bb611b5aa8b4235d43181e4b9b489b445ef1be7d6549c3e37ede2",
      "blockHash": "0xc3c2c3a2a4ea880133d13a290639e4a615088c6f25f537497fa75baef88d8210",
      "blockNumber": 85946,
      "transactionIndex": 0,
      "confirmations": null,
      "from": "0xB7268c7705A1866b2A78e882fdfDc8E2a4e1428E",
      "gasPrice": {
        "_hex": "0xdb2816147"
      },
      "gasLimit": {
        "_hex": "0x15f90"
      },
      "to": "0x96811Ad897894eC178872117C8BF2f03971A393B",
      "value": {
        "_hex": "0xbe202d6a0eda0000"
      },
      "nonce": 29,
      "data": "0x",
      "r": "0xe2d4cf2049a79cf0800ff1206cf04884eb6075ed6a2633ccf8d428e05f36c623",
      "s": "0x711b54b7b9e201d28b13254b915b2898225b1440eea371bbb0b4aeca767dba6e",
      "v": 27,
      "creates": null,
      "raw": "0xf86d1d850db281614783015f909496811ad897894ec178872117c8bf2f03971a393b88be202d6a0eda0000801ba0e2d4cf2049a79cf0800ff1206cf04884eb6075ed6a2633ccf8d428e05f36c623a0711b54b7b9e201d28b13254b915b2898225b1440eea371bbb0b4aeca767dba6e",
      "networkId": 0,
      "chainId": 0
    }
  ]
}