{
  "hash": "0x85dc12da960836baae7e1d5aaed17ed889ce77f2e2dc4314d0e0c3ce521097b5",
  "parentHash": "0x3737d8365aaa78c63abbfa3dbd9c0a93236364434088dbcd5896bc71a935f731",
  "number": 90819,
  "timestamp": 1439645897,
  "nonce": "0x0e517ccf626e769b",
  "difficulty": 3405697909781,
  "gasLimit": {
    "_hex": "0x2fefd8"
  },
  "gasUsed": {
    "_hex": "0x5208"
  },
  "miner": "0xeB1325C8D9d3ea8D74aC11F4B00F1B2367686319",
  "extraData": "0x476574682f76312e302e312f77696e646f77732f676f312e342e32",
  "transactions": [
    {
      "hash": "0xa12eda6555f29b847000dc95bea18ec1303897090a970ef93ac5c10bce499881",
      "blockHash": "0x85dc12da960836baae7e1d5aaed17ed889ce77f2e2dc4314d0e0c3ce521097b5",
      "blockNumber": 90819,
      "transactionIndex": 0,
      "confirmations": null,
      "from": "0xc25F4fa317dCc3E4Fa6c1a427C41899c13b57CD7",
      "gasPrice": {
        "_hex": "0xba43b7400"
      },
      "gasLimit": {
        "_hex": "0x5267"
      },
      "to": "0xbE23512F733BfDD3BC6303130AF75Ef235FdBfA8",
      "value": {
        "_hex": "0xdcef33a6f838000"
      },
      "nonce": 2,
      "data": "0x",
      "r": "0x65d41c20914ab1aa6c9977bcb327428025ca34735d5b95a39d747e918c1bf924",
      "s": "0xd92d46a5702654a5f8fe1824ef304a4684e41fb8f5e8707ebc97c9c8e378b0df",
      "v": 28,
      "creates": null,
      "raw": "0xf86c02850ba43b740082526794be23512f733bfdd3bc6303130af75ef235fdbfa8880dcef33a6f838000801ca065d41c20914ab1aa6c9977bcb327428025ca34735d5b95a39d747e918c1bf924a0d92d46a5702654a5f8fe1824ef304a4684e41fb8f5e8707ebc97c9c8e378b0df",
      "networkId": 0,
      "chainId": 0
    }
  ]
}