{
  "hash": "0xca85aa8d8a8d9bf93b1f05e1a76c2b1115b3b2157a367fb171b71de668b83fe1",
  "parentHash": "0x83de390e3be0d454b7c4453afbf75997c3647998b134e95405827a99e255ec1f",
  "number": 56131,
  "timestamp": 1439082395,
  "nonce": "0x479a1c48ae486b00",
  "difficulty": 1642445880926,
  "gasLimit": {
    "_hex": "0x2fefd8"
  },
  "gasUsed": {
    "_hex": "0x4a9e0"
  },
  "miner": "0x9746c7e1ef2bd21FF3997fa467593a89cb852BD0",
  "extraData": "0x476574682f76312e302e312f77696e646f77732f676f312e342e32",
  "transactions": [
    {
      "hash": "0x7ca181a1342f1753efa768ba642235c43050bc1c49370fe27f3326afc13181e7",
      "blockHash": "0xca85aa8d8a8d9bf93b1f05e1a76c2b1115b3b2157a367fb171b71de668b83fe1",
      "blockNumber": 56131,
      "transactionIndex": 0,
      "confirmations": null,
      "from": "0xA1eEc0a9b7C50B8e79A0D9B8760bC5681fb199EC",
      "gasPrice": {
        "_hex": "0xd9211c74d"
      },
      "gasLimit": {
        "_hex": "0xf4240"
      },
      "to": null,
      "value": {
        "_hex": "0x0"
      },
      "nonce": 0,
      "data": "0x60606040526040516102b43803806102b48339016040526060805160600190602001505b5b33600060006101000a81548173ffffffffffffffffffffffffffffffffffffffff021916908302179055505b806001600050908051906020019082805482825590600052602060002090601f01602090048101928215609e579182015b82811115609d5782518260005055916020019190600101906081565b5b50905060c5919060a9565b8082111560c1576000818150600090555060010160a9565b5090565b50505b506101dc806100d86000396000f30060606040526000357c01000000000000000000000000000000000000000000000000000000009004806341c0e1b514610044578063cfae32171461005157610042565b005b61004f6004506100ca565b005b61005c60045061015e565b60405180806020018281038252838181518152602001915080519060200190808383829060006004602084601f0104600302600f01f150905090810190601f1680156100bc5780820380516001836020036101000a031916815260200191505b509250505060405180910390f35b600060009054906101000a900473ffffffffffffffffffffffffffffffffffffffff1673ffffffffffffffffffffffffffffffffffffffff163373ffffffffffffffffffffffffffffffffffffffff16141561015b57600060009054906101000a900473ffffffffffffffffffffffffffffffffffffffff1673ffffffffffffffffffffffffffffffffffffffff16ff5b5b565b60206040519081016040528060008152602001506001600050805480601f016020809104026020016040519081016040528092919081815260200182805480156101cd57820191906000526020600020905b8154815290600101906020018083116101b057829003601f168201915b505050505090506101d9565b90560000000000000000000000000000000000000000000000000000000000000020000000000000000000000000000000000000000000000000000000000000001348656c6c6f204d6964646c652045617274682100000000000000000000000000",
      "r": "0x96182bd17e7df97673594a2b5a0506af33905be651cbf23bc2f45bdd368abbc3",
      "s": "0x34c0508b77a2e33d66cb2e899a54947c3f0f3e6c0a81d2e021797084bc058060",
      "v": 28,
      "creates": "0x3d26E176a2D25d3AE98f67C9f1086704Be816E5e",
      "raw": "0xf9036780850d9211c74d830f42408080b9031460606040526040516102b43803806102b48339016040526060805160600190602001505b5b33600060006101000a81548173ffffffffffffffffffffffffffffffffffffffff021916908302179055505b806001600050908051906020019082805482825590600052602060002090601f01602090048101928215609e579182015b82811115609d5782518260005055916020019190600101906081565b5b50905060c5919060a9565b8082111560c1576000818150600090555060010160a9565b5090565b50505b506101dc806100d86000396000f30060606040526000357c01000000000000000000000000000000000000000000000000000000009004806341c0e1b514610044578063cfae32171461005157610042565b005b61004f6004506100ca565b005b61005c60045061015e565b60405180806020018281038252838181518152602001915080519060200190808383829060006004602084601f0104600302600f01f150905090810190601f1680156100bc5780820380516001836020036101000a031916815260200191505b509250505060405180910390f35b600060009054906101000a900473ffffffffffffffffffffffffffffffffffffffff1673ffffffffffffffffffffffffffffffffffffffff163373ffffffffffffffffffffffffffffffffffffffff16141561015b57600060009054906101000a900473ffffffffffffffffffffffffffffffffffffffff1673ffffffffffffffffffffffffffffffffffffffff16ff5b5b565b60206040519081016040528060008152602001506001600050805480601f016020809104026020016040519081016040528092919081815260200182805480156101cd57820191906000526020600020905b8154815290600101906020018083116101b057829003601f168201915b505050505090506101d9565b90560000000000000000000000000000000000000000000000000000000000000020000000000000000000000000000000000000000000000000000000000000001348656c6c6f204d6964646c6520456172746821000000000000000000000000001ca096182bd17e7df97673594a2b5a0506af33905be651cbf23bc2f45bdd368abbc3a034c0508b77a2e33d66cb2e899a54947c3f0f3e6c0a81d2e021797084bc058060",
      "networkId": 0,
      "chainId": 0
    },
    {
      "hash": "0xc3abfe38e6188886bb629952c9055ca43c20e86ef36d342c4a77f8a4d1cff722",
      "blockHash": "0xca85aa8d8a8d9bf93b1f05e1a76c2b1115b3b2157a367fb171b71de668b83fe1",
      "blockNumber": 56131,
      "transactionIndex": 1,
      "confirmations": null,
      "from": "0xB67b6BB30Bb68ED96f23f1fB8C6Da01B3C37F6D4",
      "gasPrice": {
        "_hex": "0xd18c9e370"
      },
      "gasLimit": {
        "_hex": "0x5208"
      },
      "to": "0x32Be343B94f860124dC4fEe278FDCBD38C102D88",
      "value": {
        "_hex": "0x8ac2fafda3efe000"
      },
      "nonce": 1,
      "data": "0x",
      "r": "0xa471ede0d83122bfbc6722d9430ce014bbe9eab84f57fc4898d2bf5ca8e934e0",
      "s": "0x1ef7c7e97e57d1acbb2840bc003aa64aa3bdbc4d22cf5e183ed26eeaadd2fd12",
      "v": 27,
      "creates": null,
      "raw": "0xf86c01850d18c9e3708252089432be343b94f860124dc4fee278fdcbd38c102d88888ac2fafda3efe000801ba0a471ede0d83122bfbc6722d9430ce014bbe9eab84f57fc4898d2bf5ca8e934e0a01ef7c7e97e57d1acbb2840bc003aa64aa3bdbc4d22cf5e183ed26eeaadd2fd12",
      "networkId": 0,
      "chainId": 0
    },
    {
      "hash": "0x24bebde0aab427a13f3c2ca2d884e9b80ec1feffb016eecf64d84f1530addad8",
      "blockHash": "0xca85aa8d8a8d9bf93b1f05e1a76c2b1115b3b2157a367fb171b71de668b83fe1",
      "blockNumber": 56131,
      "transactionIndex": 2,
      "confirmations": null,
      "from": "0xEe2e3665531f220d70d01CCaBb559537a2663174",
      "gasPrice": {
        "_hex": "0xd18c9e370"
      },
      "gasLimit": {
        "_hex": "0x5208"
      },
      "to": "0x32Be343B94f860124dC4fEe278FDCBD38C102D88",
      "value": {
        "_hex": "0x1ae31ed67be6c0000"
      },
      "nonce": 2,
      "data": "0x",
      "r": "0x20f11df4096094c0276bb8d908758f14dc0cd28707c51cc1ef1bf817ae75b22b",
      "s": "0x686579a124872cf35848c63dbfb3b077333411d97692cfb094100d0005758f98",
      "v": 27,
      "creates": null,
      "raw": "0xf86d02850d18c9e3708252089432be343b94f860124dc4fee278fdcbd38c102d888901ae31ed67be6c0000801ba020f11df4096094c0276bb8d908758f14dc0cd28707c51cc1ef1bf817ae75b22ba0686579a124872cf35848c63dbfb3b077333411d97692cfb094100d0005758f98",
      "networkId": 0,
      "chainId": 0
    },
    {
      "hash": "0xd9e1b6cc577f0ede39175dce4d45e46a8e12aacbae306a2ad264ac7d378210d7",
      "blockHash": "0xca85aa8d8a8d9bf93b1f05e1a76c2b1115b3b2157a367fb171b71de668b83fe1",
      "blockNumber": 56131,
      "transactionIndex": 3,
      "confirmations": null,
      "from": "0xc2935c7B62d9127B3E3a96eB685F937AE94CdA94",
      "gasPrice": {
        "_hex": "0xd18c9e370"
      },
      "gasLimit": {
        "_hex": "0x5208"
      },
      "to": "0x32Be343B94f860124dC4fEe278FDCBD38C102D88",
      "value": {
        "_hex": "0xddc845a20b40800"
      },
      "nonce": 0,
      "data": "0x",
      "r": "0xff017a60bd7501521d32416341cde487e121ab9f40cb3a9cd18bfc2534057056",
      "s": "0x24b9a1b152ff27441e988982b1b2ac27659d2b030a4f6a2d2565033fd57304b5",
      "v": 28,
      "creates": null,
      "raw": "0xf86c80850d18c9e3708252089432be343b94f860124dc4fee278fdcbd38c102d88880ddc845a20b40800801ca0ff017a60bd7501521d32416341cde487e121ab9f40cb3a9cd18bfc2534057056a024b9a1b152ff27441e988982b1b2ac27659d2b030a4f6a2d2565033fd57304b5",
      "networkId": 0,
      "chainId": 0
    },
    {
      "hash": "0x265c570560ea428a690110cd84154e2e4098616bff281a0fd9024562299971d2",
      "blockHash": "0xca85aa8d8a8d9bf93b1f05e1a76c2b1115b3b2157a367fb171b71de668b83fe1",
      "blockNumber": 56131,
      "transactionIndex": 4,
      "confirmations": null,
      "from": "0xfE439e496730A23d448f85fA219972ea04793aB7",
      "gasPrice": {
        "_hex": "0xd18c9e370"
      },
      "gasLimit": {
        "_hex": "0x5208"
      },
      "to": "0x32Be343B94f860124dC4fEe278FDCBD38C102D88",
      "value": {
        "_hex": "0xddc845a20b40800"
      },
      "nonce": 0,
      "data": "0x",
      "r": "0x8f1bec78ae0b0c5199b528cd62242ca88afe70e4031105c79cb0079afba96176",
      "s": "0x16b102864e7b4b55f0622f59ddaeb483b1a76e88983b8fd7d70fe807be541424",
      "v": 27,
      "creates": null,
      "raw": "0xf86c80850d18c9e3708252089432be343b94f860124dc4fee278fdcbd38c102d88880ddc845a20b40800801ba08f1bec78ae0b0c5199b528cd62242ca88afe70e4031105c79cb0079afba96176a016b102864e7b4b55f0622f59ddaeb483b1a76e88983b8fd7d70fe807be541424",
      "networkId": 0,
      "chainId": 0
    }
  ]
}