{
  "hash": "0x78fdb1d7cfdb151d4ba175d3304bd06f928de1cfa9ae29243acc635c66435df3",
  "parentHash": "0x9522083e91fc7a0a8aac2eb4badacab55f8ef42b388bf69ca108983e9e7d9f20",
  "number": 120002,
  "timestamp": 1440152094,
  "nonce": "0x904f8c0be5dfd318",
  "difficulty": 4428603520564,
  "gasLimit": {
    "_hex": "0x2fefd8"
  },
  "gasUsed": {
    "_hex": "0x5208"
  },
  "miner": "0xe6A7a1d47ff21B6321162AEA7C6CB457D5476Bca",
  "extraData": "0xd783010002844765746887676f312e342e32856c696e7578",
  "transactions": [
    {
      "hash": "0x33d5c5a92361db34ab0eaca1ecaf7088f985cdf2939995936662bf55c1941925",
      "blockHash": "0x78fdb1d7cfdb151d4ba175d3304bd06f928de1cfa9ae29243acc635c66435df3",
      "blockNumber": 120002,
      "transactionIndex": 0,
      "confirmations": null,
      "from": "0x608f4b86321a68453f9adf6F06F7Fc3E621739ad",
      "gasPrice": {
        "_hex": "0xba43b7400"
      },
      "gasLimit": {
        "_hex": "0x5208"
      },
      "to": "0x32Be343B94f860124dC4fEe278FDCBD38C102D88",
      "value": {
        "_hex": "0x455fd68a17f06000"
      },
      "nonce": 52,
      "data": "0x",
      "r": "0xf6123d9d307db795755c9e01df89451a3f153b14c07bbafc415b340bd0c78a85",
      "s": "0x6f6f59c9ce30b86f102f2d02394687f2bcaa44c68ece473f0a4e920f719e0340",
      "v": 27,
      "creates": null,
      "raw": "0xf86c34850ba43b74008252089432be343b94f860124dc4fee278fdcbd38c102d8888455fd68a17f06000801ba0f6123d9d307db795755c9e01df89451a3f153b14c07bbafc415b340bd0c78a85a06f6f59c9ce30b86f102f2d02394687f2bcaa44c68ece473f0a4e920f719e0340",
      "networkId": 0,
      "chainId": 0
    }
  ]
}