{
  "hash": "0xf0c02f5ea7e1cb48e16548c25d5934547e7b2b4a2fac95d88bd75a54e071f2b0",
  "parentHash": "0x2f675b51f5424cb95c6f5217d79a9db85863411807ba757c29cd194e536bda28",
  "number": 83903,
  "timestamp": 1439542427,
  "nonce": "0x71179ac2948461e8",
  "difficulty": 2464664174406,
  "gasLimit": {
    "_hex": "0x2fefd8"
  },
  "gasUsed": {
    "_hex": "0xa410"
  },
  "miner": "0xbb7B8287f3F0a933474a79eAe42CBCa977791171",
  "extraData": "0x476574682f4c5649562f76312e302e312f6c696e75782f676f312e342e32",
  "transactions": [
    {
      "hash": "0xa7eb8a8b100ccf133e61da136cad0144cc750d6ab1f72c8d5a4f57541f3aa744",
      "blockHash": "0xf0c02f5ea7e1cb48e16548c25d5934547e7b2b4a2fac95d88bd75a54e071f2b0",
      "blockNumber": 83903,
      "transactionIndex": 0,
      "confirmations": null,
      "from": "0xa522de7EB6ae1250522A513133a93bd42849475C",
      "gasPrice": {
        "_hex": "0xdbe0aacb7"
      },
      "gasLimit": {
        "_hex": "0x15f90"
      },
      "to": "0x859217617481BD9b6E3e38f6aE9BB677F0D26154",
      "value": {
        "_hex": "0x56bc75e2d63100000"
      },
      "nonce": 1,
      "data": "0x",
      "r": "0xa5dadafe01e8d4974d78495f543fb555a33654e391c9c32333493122ec193888",
      "s": "0x137ff85b620a556976738d84527ca1730e00c4f75b7ab324df1d1215c8bdbd74",
      "v": 27,
      "creates": null,
      "raw": "0xf86e01850dbe0aacb783015f9094859217617481bd9b6e3e38f6ae9bb677f0d2615489056bc75e2d63100000801ba0a5dadafe01e8d4974d78495f543fb555a33654e391c9c32333493122ec193888a0137ff85b620a556976738d84527ca1730e00c4f75b7ab324df1d1215c8bdbd74",
      "networkId": 0,
      "chainId": 0
    },
    {
      "hash": "0x5c7e1d6bdc12b2078ced5abaf095b84ee1b43daf8a412555ae43051f6d2fd26b",
      "blockHash": "0xf0c02f5ea7e1cb48e16548c25d5934547e7b2b4a2fac95d88bd75a54e071f2b0",
      "blockNumber": 83903,
      "transactionIndex": 1,
      "confirmations": null,
      "from": "0x2910543Af39abA0Cd09dBb2D50200b3E800A63D2",
      "gasPrice": {
        "_hex": "0xcdd857ac2"
      },
      "gasLimit": {
        "_hex": "0x5208"
      },
      "to": "0xFD7c9117BbEB649d9b37B3D3C9917f7c12f526B3",
      "value": {
        "_hex": "0x2037541afd85401200"
      },
      "nonce": 538,
      "data": "0x",
      "r": "0x28e8b54077dadf8690f2539b36ead3d5a0116e9efa0aeb9738b2445ec3e9e6d9",
      "s": "0x06874f2ae406da3ca486683332dd357be10eefd1250e064ca05abebe56217e0b",
      "v": 28,
      "creates": null,
      "raw": "0xf86f82021a850cdd857ac282520894fd7c9117bbeb649d9b37b3d3c9917f7c12f526b3892037541afd85401200801ca028e8b54077dadf8690f2539b36ead3d5a0116e9efa0aeb9738b2445ec3e9e6d9a006874f2ae406da3ca486683332dd357be10eefd1250e064ca05abebe56217e0b",
      "networkId": 0,
      "chainId": 0
    }
  ]
}