{
  "hash": "0x877434c3ff1222cd94dd67c8753e2ed06ea03c65891eefce41ce6b2cd5601f1b",
  "parentHash": "0x5d73ebcf016db38a37a9be942f2fb1dbc48b9ea1792ce5cfb45e76c2dba66066",
  "number": 58287,
  "timestamp": 1439118105,
  "nonce": "0x268047e3f75f7f2c",
  "difficulty": 1717468466661,
  "gasLimit": {
    "_hex": "0x2fefd8"
  },
  "gasUsed": {
    "_hex": "0x5208"
  },
  "miner": "0x01d9DA08cc6Fb97c0DE1B6F4C28910A0859Ed1A1",
  "extraData": "0x476574682f76312e302e312f6c696e75782f676f312e342e32",
  "transactions": [
    {
      "hash": "0x585b3b7f415cef606c245c247970d6e754c8309c5b6867582e0c339bf5c204db",
      "blockHash": "0x877434c3ff1222cd94dd67c8753e2ed06ea03c65891eefce41ce6b2cd5601f1b",
      "blockNumber": 58287,
      "transactionIndex": 0,
      "confirmations": null,
      "from": "0x892E75d6aA470004954fCAcc47Dce91652467906",
      "gasPrice": {
        "_hex": "0xd7c0cdb35"
      },
      "gasLimit": {
        "_hex": "0x7530"
      },
      "to": "0x6De181Fc4C140FA31F196e5393516c49EEeBdAd3",
      "value": {
        "_hex": "0x19274b259f6540000"
      },
      "nonce": 1,
      "data": "0x",
      "r": "0x4225ae60e0d8fe2d07d28b060fa77730fa9a440a0ddb458c4040ca20c5bc7ed0",
      "s": "0x6a5a59be71198bcf81cdedc70a5aaaf5d75b8b222c282b782523ff50ae8047da",
      "v": 28,
      "creates": null,
      "raw": "0xf86d01850d7c0cdb35827530946de181fc4c140fa31f196e5393516c49eeebdad389019274b259f6540000801ca04225ae60e0d8fe2d07d28b060fa77730fa9a440a0ddb458c4040ca20c5bc7ed0a06a5a59be71198bcf81cdedc70a5aaaf5d75b8b222c282b782523ff50ae8047da",
      "networkId": 0,
      "chainId": 0
    }
  ]
}