{
  "hash": "0x31a715a81c44349137a31f1a9bb4dfa8dab483218297bd1fef085b4b25b889ac",
  "parentHash": "0x464827bd7de674d4d8b41b91fd9d0ff38c0f6c3c2d4225a46f79c3226a8a4239",
  "number": 102768,
  "timestamp": 1439842869,
  "nonce": "0x9ab7a94485d14b39",
  "difficulty": 4048481501218,
  "gasLimit": {
    "_hex": "0x2fefd8"
  },
  "gasUsed": {
    "_hex": "0x5208"
  },
  "miner": "0x0037ce3d4B7f8729C8607D8D0248252Be68202c0",
  "extraData": "0x476574682f76312e302e312f77696e646f77732f676f312e342e32",
  "transactions": [
    {
      "hash": "0x602ab804b540a9e5519a08ad55ba056c3cfe8f44b3d4e6032fa5676186d454cd",
      "blockHash": "0x31a715a81c44349137a31f1a9bb4dfa8dab483218297bd1fef085b4b25b889ac",
      "blockNumber": 102768,
      "transactionIndex": 0,
      "confirmations": null,
      "from": "0xc3a54b95AEc42EBAEE1b351B4B89c1a0B9759Bb8",
      "gasPrice": {
        "_hex": "0xdae6cd4b6"
      },
      "gasLimit": {
        "_hex": "0x15f90"
      },
      "to": "0xd2a25DC828b52BdC5f63b95d5B1D1Bb90d6D299B",
      "value": {
        "_hex": "0x30d40"
      },
      "nonce": 3,
      "data": "0x",
      "r": "0x39066cc06aeddb3ec0ebf6c36934fc12803cf6ffd8d23215e7d47994a5c26461",
      "s": "0x7092ebf310bd738f0c18c156ba2761dde23a16f0d4cb8e11ea55c122aac0bf20",
      "v": 27,
      "creates": null,
      "raw": "0xf86803850dae6cd4b683015f9094d2a25dc828b52bdc5f63b95d5b1d1bb90d6d299b83030d40801ba039066cc06aeddb3ec0ebf6c36934fc12803cf6ffd8d23215e7d47994a5c26461a07092ebf310bd738f0c18c156ba2761dde23a16f0d4cb8e11ea55c122aac0bf20",
      "networkId": 0,
      "chainId": 0
    }
  ]
}