{
  "hash": "0x9edce589e10daa404158a9e03bc2abfc1b58b969477fce7743ff6b793d8c0b97",
  "parentHash": "0x8af2d3a2fc21ab31f16c8e3f2ce5078476647424c729e1a2212c9c6b2e0ef497",
  "number": 103631,
  "timestamp": 1439856518,
  "nonce": "0xc851377869b64fdd",
  "difficulty": 4199057485376,
  "gasLimit": {
    "_hex": "0x2fefd8"
  },
  "gasUsed": {
    "_hex": "0x5208"
  },
  "miner": "0xe6A7a1d47ff21B6321162AEA7C6CB457D5476Bca",
  "extraData": "0x476574682f76312e302e312d38326566323666362f6c696e75782f676f312e34",
  "transactions": [
    {
      "hash": "0xff2586c282b31786201d29b2191db4bbf44206430fccf8ef2d6322afb9327feb",
      "blockHash": "0x9edce589e10daa404158a9e03bc2abfc1b58b969477fce7743ff6b793d8c0b97",
      "blockNumber": 103631,
      "transactionIndex": 0,
      "confirmations": null,
      "from": "0x32Be343B94f860124dC4fEe278FDCBD38C102D88",
      "gasPrice": {
        "_hex": "0xd91522b59"
      },
      "gasLimit": {
        "_hex": "0x5208"
      },
      "to": "0x1576e79963A5288CD91F8B822247Bd69508729e9",
      "value": {
        "_hex": "0x11d8c2e504e9b1000"
      },
      "nonce": 1129,
      "data": "0x",
      "r": "0x360eb8c8dbe9da691ad9c1fc6ba1f7915d8358460349024e6d52144b3e423040",
      "s": "0x7749c141ad1b24fdb6554b6d780d821cb7dab55349add8734a7db42eb229801a",
      "v": 27,
      "creates": null,
      "raw": "0xf86f820469850d91522b59825208941576e79963a5288cd91f8b822247bd69508729e989011d8c2e504e9b1000801ba0360eb8c8dbe9da691ad9c1fc6ba1f7915d8358460349024e6d52144b3e423040a07749c141ad1b24fdb6554b6d780d821cb7dab55349add8734a7db42eb229801a",
      "networkId": 0,
      "chainId": 0
    }
  ]
}