{
  "hash": "0xe45c80dcaa4512621223c74772f5a669adae88332203bf798254ac93b4e12b28",
  "parentHash": "0x777be6b031dfcc8cea2bd0d667a0a91c3ef708cc20c3c018f205c2d53b04c0c5",
  "number": 119374,
  "timestamp": 1440141689,
  "nonce": "0x8385e3cd21ae93ff",
  "difficulty": 4420293250993,
  "gasLimit": {
    "_hex": "0x2fefd8"
  },
  "gasUsed": {
    "_hex": "0xf618"
  },
  "miner": "0x52bc44d5378309EE2abF1539BF71dE1b7d7bE3b5",
  "extraData": "0xd783010002844765746887676f312e342e32856c696e7578",
  "transactions": [
    {
      "hash": "0x99c3415cb8b66e654b24a5d7fd3f48bee803ec3371c8773365375f38eda74c9c",
      "blockHash": "0xe45c80dcaa4512621223c74772f5a669adae88332203bf798254ac93b4e12b28",
      "blockNumber": 119374,
      "transactionIndex": 0,
      "confirmations": null,
      "from": "0xc15fa6D616245a5c7B7D75A6dFDcA10C0250BD2B",
      "gasPrice": {
        "_hex": "0xba43b7400"
      },
      "gasLimit": {
        "_hex": "0x15f90"
      },
      "to": "0xdeE4977F74E6Aef6D627191c9A45D2627e331150",
      "value": {
        "_hex": "0x98a7d9b8314c0000"
      },
      "nonce": 20,
      "data": "0x",
      "r": "0x600f8cecd9fc054d1bcd8d51134af5de628ffb729f098fd0936d6576cd966d06",
      "s": "0x7a03fabcd1679910003d4d3fa90e4429f8f48bf1e18e771bac809a7ebb858c66",
      "v": 27,
      "creates": null,
      "raw": "0xf86d14850ba43b740083015f9094dee4977f74e6aef6d627191c9a45d2627e3311508898a7d9b8314c0000801ba0600f8cecd9fc054d1bcd8d51134af5de628ffb729f098fd0936d6576cd966d06a07a03fabcd1679910003d4d3fa90e4429f8f48bf1e18e771bac809a7ebb858c66",
      "networkId": 0,
      "chainId": 0
    },
    {
      "hash": "0x4d5cdeaaf119696d647dbf180fcfb6e386358922800cd6a6a4536d1c879f0efa",
      "blockHash": "0xe45c80dcaa4512621223c74772f5a669adae88332203bf798254ac93b4e12b28",
      "blockNumber": 119374,
      "transactionIndex": 1,
      "confirmations": null,
      "from": "0x9B7280891dc19fd3A2e754cB9007203820650403",
      "gasPrice": {
        "_hex": "0xba43b7400"
      },
      "gasLimit": {
        "_hex": "0x5208"
      },
      "to": "0x32Be343B94f860124dC4fEe278FDCBD38C102D88",
      "value": {
        "_hex": "0xbb96c8f38ef2b000"
      },
      "nonce": 13,
      "data": "0x",
      "r": "0x9f88cba030aa779e1398b7e72c4dd049b5b11dd347b62e7209133ce04c4130c9",
      "s": "0x231c141758548ef16a48eaaa438f714c7d9fb28454c8bf5d999c6d98ed4f7d53",
      "v": 27,
      "creates": null,
      "raw": "0xf86c0d850ba43b74008252089432be343b94f860124dc4fee278fdcbd38c102d8888bb96c8f38ef2b000801ba09f88cba030aa779e1398b7e72c4dd049b5b11dd347b62e7209133ce04c4130c9a0231c141758548ef16a48eaaa438f714c7d9fb28454c8bf5d999c6d98ed4f7d53",
      "networkId": 0,
      "chainId": 0
    },
    {
      "hash": "0xfdd098b0be1cf8e6ea9b285e2a09ec17859fa71d518a05a57b0c849c1ea7054d",
      "blockHash": "0xe45c80dcaa4512621223c74772f5a669adae88332203bf798254ac93b4e12b28",
      "blockNumber": 119374,
      "transactionIndex": 2,
      "confirmations": null,
      "from": "0x9943C02b44B13e025fc0B938790F5d336BD920f9",
      "gasPrice": {
        "_hex": "0xba43b7400"
      },
      "gasLimit": {
        "_hex": "0x15f90"
      },
      "to": "0x23f2D0fd3B4C98Fb1698564deB4898275E2e831f",
      "value": {
        "_hex": "0x4563918244f40000"
      },
      "nonce": 6,
      "data": "0x",
      "r": "0x8e34e12ab2515b1908e2df5fdcdfd878fe8d3219563e1726a54a6e5891aebc94",
      "s": "0x66d19648b1f631af7ba9ffb61080683d01255e3dde4352f190aa91b446de0539",
      "v": 27,
      "creates": null,
      "raw": "0xf86d06850ba43b740083015f909423f2d0fd3b4c98fb1698564deb4898275e2e831f884563918244f40000801ba08e34e12ab2515b1908e2df5fdcdfd878fe8d3219563e1726a54a6e5891aebc94a066d19648b1f631af7ba9ffb61080683d01255e3dde4352f190aa91b446de0539",
      "networkId": 0,
      "chainId": 0
    }
  ]
}