{
  "hash": "0x9c0721b08db0f94ac99c96fee66828d28c2e165aa82bff950ac0ae2901503335",
  "parentHash": "0x8e40e4fbf79c070eae7af2fad8343789f6294408fe547605a32b28b8e2d56aa5",
  "number": 117442,
  "timestamp": 1440109552,
  "nonce": "0x5519fe35b92f1800",
  "difficulty": 4314676230380,
  "gasLimit": {
    "_hex": "0x2fefd8"
  },
  "gasUsed": {
    "_hex": "0x5208"
  },
  "miner": "0xe6A7a1d47ff21B6321162AEA7C6CB457D5476Bca",
  "extraData": "0xd783010002844765746887676f312e342e32856c696e7578",
  "transactions": [
    {
      "hash": "0xabf5042fc0420ca1174ecc829b77bb1374137fbd7a5795554f31c490c3650d05",
      "blockHash": "0x9c0721b08db0f94ac99c96fee66828d28c2e165aa82bff950ac0ae2901503335",
      "blockNumber": 117442,
      "transactionIndex": 0,
      "confirmations": null,
      "from": "0x30853f0562c79055Fbd88CFFC01A109b346752ba",
      "gasPrice": {
        "_hex": "0xba43b7400"
      },
      "gasLimit": {
        "_hex": "0x7530"
      },
      "to": "0xa9f5E7bf6Cbf6fEc55B30850Eb492b47A376d050",
      "value": {
        "_hex": "0x21d3bd55e803c0000"
      },
      "nonce": 8,
      "data": "0x",
      "r": "0x040b734c78888272ccc8b0739979fbc97d7b85bcda69ab625e9bc178a56100cc",
      "s": "0x423bcc38bf92a106feaad89a4fa6390083fad08e98568f772c7890cde79fe56c",
      "v": 28,
      "creates": null,
      "raw": "0xf86d08850ba43b740082753094a9f5e7bf6cbf6fec55b30850eb492b47a376d05089021d3bd55e803c0000801ca0040b734c78888272ccc8b0739979fbc97d7b85bcda69ab625e9bc178a56100cca0423bcc38bf92a106feaad89a4fa6390083fad08e98568f772c7890cde79fe56c",
      "networkId": 0,
      "chainId": 0
    }
  ]
}