{
  "hash": "0xa51f42ddd738b0d0c7c2fc4d0f8fdca58d9beba27a76807bbf4a0d47939738b1",
  "parentHash": "0x7a1aa0a4c1007a27494bc73dda0b2b512da5c5372f18e4b9b3fab632d8fd996b",
  "number": 51295,
  "timestamp": 1439002482,
  "nonce": "0x33b3bf6f2130f46a",
  "difficulty": 1571202326397,
  "gasLimit": {
    "_hex": "0xa1f3a"
  },
  "gasUsed": {
    "_hex": "0x13005"
  },
  "miner": "0xa50ec0D39fa913E62f1Bae7074E6F36caA71855b",
  "extraData": "0x",
  "transactions": [
    {
      "hash": "0xd199abb8207458a09a66c02bf65b454a4dac2a2fecb962407f877cb6a1ac77e5",
      "blockHash": "0xa51f42ddd738b0d0c7c2fc4d0f8fdca58d9beba27a76807bbf4a0d47939738b1",
      "blockNumber": 51295,
      "transactionIndex": 0,
      "confirmations": null,
      "from": "0xfC372FF6927CB396d9cf29803500110Da632bC52",
      "gasPrice": {
        "_hex": "0x105bafcfef4"
      },
      "gasLimit": {
        "_hex": "0x7a120"
      },
      "to": "0xA327075af2a223A1C83a36aDa1126afE7430f955",
      "value": {
        "_hex": "0x8ac7230489e80000"
      },
      "nonce": 4,
      "data": "0x",
      "r": "0x4246fe244b185465e090f10ee9ce39d2caa1fc3d57700b70fa53c984984f8137",
      "s": "0x7e598c98d6b23e9defb3a3eccbf0267c79a4eec2b1c08d47949a3feff206015e",
      "v": 28,
      "creates": null,
      "raw": "0xf86e04860105bafcfef48307a12094a327075af2a223a1c83a36ada1126afe7430f955888ac7230489e80000801ca04246fe244b185465e090f10ee9ce39d2caa1fc3d57700b70fa53c984984f8137a07e598c98d6b23e9defb3a3eccbf0267c79a4eec2b1c08d47949a3feff206015e",
      "networkId": 0,
      "chainId": 0
    },
    {
      "hash": "0x3fdc59b93280b477bfc2cdfd3a62a28b2500d1540fd08bec45a6d7d20f2569cb",
      "blockHash": "0xa51f42ddd738b0d0c7c2fc4d0f8fdca58d9beba27a76807bbf4a0d47939738b1",
      "blockNumber": 51295,
      "transactionIndex": 1,
      "confirmations": null,
      "from": "0x36DeE907a4DA9858CE11CDDd63FAAF89EF610d71",
      "gasPrice": {
        "_hex": "0xcd71a6534"
      },
      "gasLimit": {
        "_hex": "0x5208"
      },
      "to": "0x32Be343B94f860124dC4fEe278FDCBD38C102D88",
      "value": {
        "_hex": "0x6c24c86743478c0000"
      },
      "nonce": 2,
      "data": "0x",
      "r": "0xb8925524c818608e944d0af3210f188cd159e9392b6fc9f348941dd62a5173ae",
      "s": "0x0b34d326cd238beef56ffbafd2847f722e7f1440af7ca9c949527f504fac6a5a",
      "v": 27,
      "creates": null,
      "raw": "0xf86d02850cd71a65348252089432be343b94f860124dc4fee278fdcbd38c102d88896c24c86743478c0000801ba0b8925524c818608e944d0af3210f188cd159e9392b6fc9f348941dd62a5173aea00b34d326cd238beef56ffbafd2847f722e7f1440af7ca9c949527f504fac6a5a",
      "networkId": 0,
      "chainId": 0
    }
  ]
}