{
  "hash": "0xc1d10bbc8b58f2373d4939f9870466a076acca1ea8ded518286792981f43465c",
  "parentHash": "0x2fdf184950d2a85e084ea0f110c18119fa5ace480a0c86514e23fb47c4c9b900",
  "number": 115024,
  "timestamp": 1440050384,
  "nonce": "0x1371a84c3d8e473a",
  "difficulty": 4505411769735,
  "gasLimit": {
    "_hex": "0x2fefd8"
  },
  "gasUsed": {
    "_hex": "0x5208"
  },
  "miner": "0x2134e2a2b718DCa96580ECAC31E653Ea1fdd58DA",
  "extraData": "0x476574682f76312e302e312f77696e646f77732f676f312e342e32",
  "transactions": [
    {
      "hash": "0x490dc2dfb758d56246afa2d9d3e899a79b3a618e6e834f7b18fda19c04cd7fe6",
      "blockHash": "0xc1d10bbc8b58f2373d4939f9870466a076acca1ea8ded518286792981f43465c",
      "blockNumber": 115024,
      "transactionIndex": 0,
      "confirmations": null,
      "from": "0x7d9266eD34DAc82CeaD440B77Cfe1cD21dCFC56b",
      "gasPrice": {
        "_hex": "0xd3c008052"
      },
      "gasLimit": {
        "_hex": "0x5208"
      },
      "to": "0x32Be343B94f860124dC4fEe278FDCBD38C102D88",
      "value": {
        "_hex": "0x3860a25fa8c0fc000"
      },
      "nonce": 1,
      "data": "0x",
      "r": "0x54887c6ad95b84ec1710df6f411350994fa07ba47801972ab9438221646f533b",
      "s": "0x5adc38839de451561c38533a39b997984404affb726eb0c2955b5d9baf1d9ce5",
      "v": 28,
      "creates": null,
      "raw": "0xf86d01850d3c0080528252089432be343b94f860124dc4fee278fdcbd38c102d888903860a25fa8c0fc000801ca054887c6ad95b84ec1710df6f411350994fa07ba47801972ab9438221646f533ba05adc38839de451561c38533a39b997984404affb726eb0c2955b5d9baf1d9ce5",
      "networkId": 0,
      "chainId": 0
    }
  ]
}