{
  "hash": "0x21198b6c338ee130dc3a52cc902dfda4715d4e2e61b237b88c7ff052f0f88d9a",
  "parentHash": "0xfedd06e18d1ce6d6ced3c63bc621b40264db76b23053d13ba22466a5f7c0f271",
  "number": 66345,
  "timestamp": 1439252893,
  "nonce": "0x2f4fae2f2cdb1e61",
  "difficulty": 1940484493969,
  "gasLimit": {
    "_hex": "0x2fefd8"
  },
  "gasUsed": {
    "_hex": "0xa410"
  },
  "miner": "0x5B3e850E39e6f2C7dD38707b649e2B3536F14C0b",
  "extraData": "0x476574682f76312e302e312f64617277696e2f676f312e342e32",
  "transactions": [
    {
      "hash": "0xf30dfa1e77506be57f33c020d7e8925bcc008941b240b20aad07abb115c9d685",
      "blockHash": "0x21198b6c338ee130dc3a52cc902dfda4715d4e2e61b237b88c7ff052f0f88d9a",
      "blockNumber": 66345,
      "transactionIndex": 0,
      "confirmations": null,
      "from": "0xA10C59651885FeAaac91F871082a23BBbaBeDfCf",
      "gasPrice": {
        "_hex": "0x1014f4fb2a3"
      },
      "gasLimit": {
        "_hex": "0x5208"
      },
      "to": "0x4c74B6F32c9680aCB5Fe0e72B7Aa95C612540A04",
      "value": {
        "_hex": "0x56bc75e2d63100000"
      },
      "nonce": 13,
      "data": "0x",
      "r": "0xa8fb999b2d34bfaae78888179afe1b7362d15fd46e5fda4f7dd8ab037e765823",
      "s": "0x64f945a39d33ad43ca53e9e41ce67b0d568fdda5558864411877fc30b6365826",
      "v": 28,
      "creates": null,
      "raw": "0xf86e0d8601014f4fb2a3825208944c74b6f32c9680acb5fe0e72b7aa95c612540a0489056bc75e2d63100000801ca0a8fb999b2d34bfaae78888179afe1b7362d15fd46e5fda4f7dd8ab037e765823a064f945a39d33ad43ca53e9e41ce67b0d568fdda5558864411877fc30b6365826",
      "networkId": 0,
      "chainId": 0
    },
    {
      "hash": "0x9e55453107113d757bc3f132ae18880c40954e8063e8c54a0468db68ebde42a9",
      "blockHash": "0x21198b6c338ee130dc3a52cc902dfda4715d4e2e61b237b88c7ff052f0f88d9a",
      "blockNumber": 66345,
      "transactionIndex": 1,
      "confirmations": null,
      "from": "0x120A270bbC009644e35F0bB6ab13f95b8199c4ad",
      "gasPrice": {
        "_hex": "0xd82ae9c22"
      },
      "gasLimit": {
        "_hex": "0x15f90"
      },
      "to": "0xF6F1A44309051c6B25e47dff909B179Bb9aB591C",
      "value": {
        "_hex": "0x821ab0d4414980000"
      },
      "nonce": 144,
      "data": "0x",
      "r": "0x23c36ee7404c47d9e44ffea68cc29a8a2c2d3d9bfe01fa74d241a9746e6e2aa6",
      "s": "0x69d2cad8d57ad3dbc703702346a4b3b51bb21fa3169d580d1650124032a3329f",
      "v": 27,
      "creates": null,
      "raw": "0xf86f8190850d82ae9c2283015f9094f6f1a44309051c6b25e47dff909b179bb9ab591c890821ab0d4414980000801ba023c36ee7404c47d9e44ffea68cc29a8a2c2d3d9bfe01fa74d241a9746e6e2aa6a069d2cad8d57ad3dbc703702346a4b3b51bb21fa3169d580d1650124032a3329f",
      "networkId": 0,
      "chainId": 0
    }
  ]
}