{
  "hash": "0x74c4c29465403a84b5a93ac0f1a6bef6b2b9e41c90ea2cd3ea42c1bb91ab7197",
  "parentHash": "0x606e8e2d31a2f35ad998f34c3018f76fb5f0b31111b1949a4b666c45952031be",
  "number": 73868,
  "timestamp": 1439376413,
  "nonce": "0x9143ddc1bb602015",
  "difficulty": 2223867754169,
  "gasLimit": {
    "_hex": "0x2fefd8"
  },
  "gasUsed": {
    "_hex": "0x54c8"
  },
  "miner": "0xf8E0CA3Ed80bd541b94BEdCf259e8CF2141A9523",
  "extraData": "0x476574682f76312e302e312f77696e646f77732f676f312e342e32",
  "transactions": [
    {
      "hash": "0xcd10884ae2643bc349f7e59d7148825dcc1110c151710ab31108428bf1ce00a4",
      "blockHash": "0x74c4c29465403a84b5a93ac0f1a6bef6b2b9e41c90ea2cd3ea42c1bb91ab7197",
      "blockNumber": 73868,
      "transactionIndex": 0,
      "confirmations": null,
      "from": "0x4BD5f0Ee173C81d42765154865EE69361b6aD189",
      "gasPrice": {
        "_hex": "0x746a528800"
      },
      "gasLimit": {
        "_hex": "0x5dc4"
      },
      "to": "0x2910543Af39abA0Cd09dBb2D50200b3E800A63D2",
      "value": {
        "_hex": "0xfb88ef7839f480000"
      },
      "nonce": 19,
      "data": "0x0000000000000000000000000000000000000000000000454e465631595a3552",
      "r": "0x715560bfec5c1aa498dd3291a2302f2af994c9e0ad2460338fc4f0723e8b2079",
      "s": "0x11c9a863a4c31cf7c4ed51d244414ebb7447d76066e656c5f68a261cb8b511af",
      "v": 27,
      "creates": null,
      "raw": "0xf88d1385746a528800825dc4942910543af39aba0cd09dbb2d50200b3e800a63d2890fb88ef7839f480000a00000000000000000000000000000000000000000000000454e465631595a35521ba0715560bfec5c1aa498dd3291a2302f2af994c9e0ad2460338fc4f0723e8b2079a011c9a863a4c31cf7c4ed51d244414ebb7447d76066e656c5f68a261cb8b511af",
      "networkId": 0,
      "chainId": 0
    }
  ]
}