{
  "hash": "0xc560bc8f6bd2860e5534e3de7fbacf3d2a6ae3467a47905b4a8215174e169bbb",
  "parentHash": "0x6a6bbbc1c5b6ceaaa50e417a2e73623e4b37c24223ea2bd8a29af2d4ca109cf6",
  "number": 55754,
  "timestamp": 1439076396,
  "nonce": "0x064af038fda7189f",
  "difficulty": 1598996096554,
  "gasLimit": {
    "_hex": "0x2fefd8"
  },
  "gasUsed": {
    "_hex": "0xa410"
  },
  "miner": "0x47ff6576639c2e94762eA5443978D7681C0E78DC",
  "extraData": "0x476574682f76312e302e312f6c696e75782f676f312e342e32",
  "transactions": [
    {
      "hash": "0x1ca428648cccb280f47d09cb0dded2178074db4e4db683ea77b769ba920d0c74",
      "blockHash": "0xc560bc8f6bd2860e5534e3de7fbacf3d2a6ae3467a47905b4a8215174e169bbb",
      "blockNumber": 55754,
      "transactionIndex": 0,
      "confirmations": null,
      "from": "0x32Be343B94f860124dC4fEe278FDCBD38C102D88",
      "gasPrice": {
        "_hex": "0xde2feed31"
      },
      "gasLimit": {
        "_hex": "0x5208"
      },
      "to": "0x02891C2e80ad09cF0C66D04FAB68d678Fd70B99c",
      "value": {
        "_hex": "0x45871874b4b50000"
      },
      "nonce": 77,
      "data": "0x",
      "r": "0xd16c7c0e81168b87d0d6d70d28463fec1fd1d581a4d4a1a127987ff4d66ebc67",
      "s": "0x5385e9ee7cf8ac3ce6147e53ee856cb99d49ef334c2030414138b075044cc945",
      "v": 28,
      "creates": null,
      "raw": "0xf86c4d850de2feed318252089402891c2e80ad09cf0c66d04fab68d678fd70b99c8845871874b4b50000801ca0d16c7c0e81168b87d0d6d70d28463fec1fd1d581a4d4a1a127987ff4d66ebc67a05385e9ee7cf8ac3ce6147e53ee856cb99d49ef334c2030414138b075044cc945",
      "networkId": 0,
      "chainId": 0
    },
    {
      "hash": "0xc47f17ed2c5eb106bec34a0be16992b0d84f8cc12bba695a0819e213c5472612",
      "blockHash": "0xc560bc8f6bd2860e5534e3de7fbacf3d2a6ae3467a47905b4a8215174e169bbb",
      "blockNumber": 55754,
      "transactionIndex": 1,
      "confirmations": null,
      "from": "0x32Be343B94f860124dC4fEe278FDCBD38C102D88",
      "gasPrice": {
        "_hex": "0xde2feed31"
      },
      "gasLimit": {
        "_hex": "0x5208"
      },
      "to": "0xc842A75953D9E17E9eCEA6EF339133b0e111b714",
      "value": {
        "_hex": "0x1b9de674df070000"
      },
      "nonce": 78,
      "data": "0x",
      "r": "0x3c774b77495dc55757c5291237c9c05eb5d18becb399d92f98319acda84a4510",
      "s": "0x4f5556e3dedc963ad7cf3b9ff3efcab82c5aa669f5b187fcb5d6c6377326b1ff",
      "v": 27,
      "creates": null,
      "raw": "0xf86c4e850de2feed3182520894c842a75953d9e17e9ecea6ef339133b0e111b714881b9de674df070000801ba03c774b77495dc55757c5291237c9c05eb5d18becb399d92f98319acda84a4510a04f5556e3dedc963ad7cf3b9ff3efcab82c5aa669f5b187fcb5d6c6377326b1ff",
      "networkId": 0,
      "chainId": 0
    }
  ]
}