{
  "hash": "0x303c71046e2eaa9f6621f1187c08c5217bad98947c3bca7d76f6b7776e6adba4",
  "parentHash": "0xe7d2d6ea13882af7d5a9cb93002fe10c4c1bc0b9e76f288f531a23edc4eb61b7",
  "number": 64553,
  "timestamp": 1439222655,
  "nonce": "0xef25b08e6a43518d",
  "difficulty": 1884861657238,
  "gasLimit": {
    "_hex": "0x2fefd8"
  },
  "gasUsed": {
    "_hex": "0xbe6c"
  },
  "miner": "0x55bAf64fc9eAccFFd7Cc643BB61142E1C6ac093e",
  "extraData": "0x",
  "transactions": [
    {
      "hash": "0xc86d1d56cd54c64daa16a95eacf68c07e3180beb6b324f68f661ac6a61e953af",
      "blockHash": "0x303c71046e2eaa9f6621f1187c08c5217bad98947c3bca7d76f6b7776e6adba4",
      "blockNumber": 64553,
      "transactionIndex": 0,
      "confirmations": null,
      "from": "0x1fA845264fAFbfdBb8CA1934538be9D8D4DEf52D",
      "gasPrice": {
        "_hex": "0xba43b7400"
      },
      "gasLimit": {
        "_hex": "0x15f90"
      },
      "to": "0x793AE8C1b1a160BFc07BFB0d04F85eab1A71F4f2",
      "value": {
        "_hex": "0x0"
      },
      "nonce": 0,
      "data": "0x3ba15036",
      "r": "0x738f4c92a1d7c5166f9871331a3e4c5b4b642225a0547106ccca07e9204cbea4",
      "s": "0x1d46789fe427e49e5a259147da970c43bc2599460d0ea1b8d883f9d5e87047ee",
      "v": 28,
      "creates": null,
      "raw": "0xf86980850ba43b740083015f9094793ae8c1b1a160bfc07bfb0d04f85eab1a71f4f280843ba150361ca0738f4c92a1d7c5166f9871331a3e4c5b4b642225a0547106ccca07e9204cbea4a01d46789fe427e49e5a259147da970c43bc2599460d0ea1b8d883f9d5e87047ee",
      "networkId": 0,
      "chainId": 0
    }
  ]
}