{
  "hash": "0x29107d0545a2de6068250feb6de6af262f305bd81be243b811f34bc596104d1d",
  "parentHash": "0xc67252761a28174cb66ee20d8011c997ea9ea6ee4eb88b105b86eb276217740a",
  "number": 47458,
  "timestamp": 1438940809,
  "nonce": "0xd6af9ac410089d46",
  "difficulty": 1450244456282,
  "gasLimit": {
    "_hex": "0xc028"
  },
  "gasUsed": {
    "_hex": "0xa410"
  },
  "miner": "0xbb7B8287f3F0a933474a79eAe42CBCa977791171",
  "extraData": "0x476574682f4c5649562f76312e302e312f6c696e75782f676f312e342e32",
  "transactions": [
    {
      "hash": "0xb23d0ea5b7e6b2275117b860f7e49b4aa041bb383c6c9cc26e983f60d8639382",
      "blockHash": "0x29107d0545a2de6068250feb6de6af262f305bd81be243b811f34bc596104d1d",
      "blockNumber": 47458,
      "transactionIndex": 0,
      "confirmations": null,
      "from": "0x3D09688D93AD07F3abe68C722723Cd680990435e",
      "gasPrice": {
        "_hex": "0x746a528800"
      },
      "gasLimit": {
        "_hex": "0x5208"
      },
      "to": "0x814e505e371c7748C7b4675B94ABccfD1df6DD8A",
      "value": {
        "_hex": "0x10f0cf064dd59200000"
      },
      "nonce": 5,
      "data": "0x",
      "r": "0x036adda5e84b202e37036413aa06916cde846866bf6e123c9b1067231a4e2612",
      "s": "0x207ff5d0ac5a2e4f3ab132ddb05ed0a2f4391524fd436c151b74f1a9da74ee85",
      "v": 28,
      "creates": null,
      "raw": "0xf86e0585746a52880082520894814e505e371c7748c7b4675b94abccfd1df6dd8a8a010f0cf064dd59200000801ca0036adda5e84b202e37036413aa06916cde846866bf6e123c9b1067231a4e2612a0207ff5d0ac5a2e4f3ab132ddb05ed0a2f4391524fd436c151b74f1a9da74ee85",
      "networkId": 0,
      "chainId": 0
    },
    {
      "hash": "0x83575902e09ad7016ba98c9d0473e1acfdbfec6dc11fe644685682a008e7f5db",
      "blockHash": "0x29107d0545a2de6068250feb6de6af262f305bd81be243b811f34bc596104d1d",
      "blockNumber": 47458,
      "transactionIndex": 1,
      "confirmations": null,
      "from": "0xe6A7a1d47ff21B6321162AEA7C6CB457D5476Bca",
      "gasPrice": {
        "_hex": "0x184bc71cdd"
      },
      "gasLimit": {
        "_hex": "0x5208"
      },
      "to": "0x3986E353371e6d6Ecb5F5F81CD35b9e56f207aa3",
      "value": {
        "_hex": "0x1b10be53d6ada5db8"
      },
      "nonce": 149,
      "data": "0x",
      "r": "0x442efd7db49101d4b7e36bbe7b97ae83ed9b7dfacca5dd92f76e28673b94099c",
      "s": "0x2487279c0a8be3a8049073f36e80eeab175868405e5a52ee73bdf0aea1c79d65",
      "v": 27,
      "creates": null,
      "raw": "0xf86e819585184bc71cdd825208943986e353371e6d6ecb5f5f81cd35b9e56f207aa38901b10be53d6ada5db8801ba0442efd7db49101d4b7e36bbe7b97ae83ed9b7dfacca5dd92f76e28673b94099ca02487279c0a8be3a8049073f36e80eeab175868405e5a52ee73bdf0aea1c79d65",
      "networkId": 0,
      "chainId": 0
    }
  ]
}