{
  "hash": "0x9db5d32df562f18e0395986857ea813e6eeab33fcd7e0054fc8c14762e3e062b",
  "parentHash": "0x97b6ad2c0d03fd42dbd524f5cf1fea4f8d3532f7993dc885f785ac9c03114181",
  "number": 77626,
  "timestamp": 1439440227,
  "nonce": "0x6d02245d1c6346d9",
  "difficulty": 2266713929465,
  "gasLimit": {
    "_hex": "0x2fefd8"
  },
  "gasUsed": {
    "_hex": "0x54b0"
  },
  "miner": "0xbb7B8287f3F0a933474a79eAe42CBCa977791171",
  "extraData": "0x476574682f4c5649562f76312e302e312f6c696e75782f676f312e342e32",
  "transactions": [
    {
      "hash": "0x84711ac6c29f581857462d841c0edb88560067798cf0852b0060f71b59842863",
      "blockHash": "0x9db5d32df562f18e0395986857ea813e6eeab33fcd7e0054fc8c14762e3e062b",
      "blockNumber": 77626,
      "transactionIndex": 0,
      "confirmations": null,
      "from": "0x8F68fbE2DCFf038C24F650C9e05Ee478038171cd",
      "gasPrice": {
        "_hex": "0xda5423bb5"
      },
      "gasLimit": {
        "_hex": "0x55f0"
      },
      "to": "0x40B9b889A21Ff1534d018D71Dc406122EBcf3F5A",
      "value": {
        "_hex": "0x2b6c1ba81ebfe40000"
      },
      "nonce": 13,
      "data": "0x4a465343433732393935",
      "r": "0x0e63e56ae915617c79aa57e74146bb753b4664e67ea92e53e63bd92f231b8426",
      "s": "0x1ce306430b826a99a45f46597a4d1536544374f33f93b55ba7d51192d48e4ed9",
      "v": 28,
      "creates": null,
      "raw": "0xf8770d850da5423bb58255f09440b9b889a21ff1534d018d71dc406122ebcf3f5a892b6c1ba81ebfe400008a4a4653434337323939351ca00e63e56ae915617c79aa57e74146bb753b4664e67ea92e53e63bd92f231b8426a01ce306430b826a99a45f46597a4d1536544374f33f93b55ba7d51192d48e4ed9",
      "networkId": 0,
      "chainId": 0
    }
  ]
}