{
  "hash": "0xae06bebbb8e3a9e3881edf783fe202720cbbedb435fd3721ec0b2d22cf391e32",
  "parentHash": "0xe1f813c15db1634a93a99ac7e5051ac931c31bf182f660898605d690c1264317",
  "number": 106299,
  "timestamp": 1439901925,
  "nonce": "0x0959e82d48caa63a",
  "difficulty": 4464090435928,
  "gasLimit": {
    "_hex": "0x2fefd8"
  },
  "gasUsed": {
    "_hex": "0x5208"
  },
  "miner": "0xe6A7a1d47ff21B6321162AEA7C6CB457D5476Bca",
  "extraData": "0x476574682f76312e302e312d38326566323666362f6c696e75782f676f312e34",
  "transactions": [
    {
      "hash": "0x3d11ad4ff1f5c3c0ef91ceb585b41b9da6a888be93acfc74ec1c571c08f87e4b",
      "blockHash": "0xae06bebbb8e3a9e3881edf783fe202720cbbedb435fd3721ec0b2d22cf391e32",
      "blockNumber": 106299,
      "transactionIndex": 0,
      "confirmations": null,
      "from": "0x120A270bbC009644e35F0bB6ab13f95b8199c4ad",
      "gasPrice": {
        "_hex": "0xcb07e551e"
      },
      "gasLimit": {
        "_hex": "0x3d090"
      },
      "to": "0x60d85a32126130b225913C23dF4e5EF8b759fA09",
      "value": {
        "_hex": "0x2b5e3af16b18800000"
      },
      "nonce": 780,
      "data": "0x",
      "r": "0xfaff7d11609f9c14ae6e3cb9deb2b236b9fdebf976dfc30a117239158c53d77f",
      "s": "0x7c5cbecb1c97383d6f1f426961dd1c5aa21714182c7f12420d6b52f23366b3f6",
      "v": 27,
      "creates": null,
      "raw": "0xf87082030c850cb07e551e8303d0909460d85a32126130b225913c23df4e5ef8b759fa09892b5e3af16b18800000801ba0faff7d11609f9c14ae6e3cb9deb2b236b9fdebf976dfc30a117239158c53d77fa07c5cbecb1c97383d6f1f426961dd1c5aa21714182c7f12420d6b52f23366b3f6",
      "networkId": 0,
      "chainId": 0
    }
  ]
}