{
  "hash": "0xc7f0ceab1c6d195f8592c4071a656b35f471a90316ea1fbb33392ba55597d189",
  "parentHash": "0x22176ace5a73b392ca7e171158156f1d410c6ebbbfb6675471543e184ff94a49",
  "number": 46295,
  "timestamp": 1438920756,
  "nonce": "0xb0c15491abb60578",
  "difficulty": 1461107913079,
  "gasLimit": {
    "_hex": "0x5891"
  },
  "gasUsed": {
    "_hex": "0x5208"
  },
  "miner": "0x3FF679B0823a026F2378E5f5F22A6F127cC85828",
  "extraData": "0x476574682f76312e302e302f6c696e75782f676f312e342e32",
  "transactions": [
    {
      "hash": "0x9243a44dcf0ecacbd81a3ce303c6f692cbe24882ef8fb9e82333103b0c52e394",
      "blockHash": "0xc7f0ceab1c6d195f8592c4071a656b35f471a90316ea1fbb33392ba55597d189",
      "blockNumber": 46295,
      "transactionIndex": 0,
      "confirmations": null,
      "from": "0xFD2605a2bF58fDbB90db1Da55dF61628B47F9e8c",
      "gasPrice": {
        "_hex": "0x415e5f0a71"
      },
      "gasLimit": {
        "_hex": "0x5208"
      },
      "to": "0x05da05EcF1F8a9ef04026806A840AeA02d290969",
      "value": {
        "_hex": "0x2386f26fc10000"
      },
      "nonce": 3,
      "data": "0x",
      "r": "0xb4fe9b84e92f8b5231ae5b5dd3c5cd7023054867d82ee5fa7782c452f17cb57a",
      "s": "0x3e0908e3b8ac92c30c8c2f6507e87b7f2d92702699af783571604a6f152f1e58",
      "v": 27,
      "creates": null,
      "raw": "0xf86b0385415e5f0a718252089405da05ecf1f8a9ef04026806a840aea02d290969872386f26fc10000801ba0b4fe9b84e92f8b5231ae5b5dd3c5cd7023054867d82ee5fa7782c452f17cb57aa03e0908e3b8ac92c30c8c2f6507e87b7f2d92702699af783571604a6f152f1e58",
      "networkId": 0,
      "chainId": 0
    }
  ]
}