{
  "hash": "0xf7f508686c927a40321ed16ad11c385d37b94ac0ef86e2a7e8deec764bf84cf8",
  "parentHash": "0x6d872ff14fbcb1647ff9eb3462fbeeca2feda43d9457268598f36c540a6a240f",
  "number": 94437,
  "timestamp": 1439708372,
  "nonce": "0x065ac1d5d7a3b0ea",
  "difficulty": 3484958330589,
  "gasLimit": {
    "_hex": "0x2fefd8"
  },
  "gasUsed": {
    "_hex": "0x5208"
  },
  "miner": "0xa50ec0D39fa913E62f1Bae7074E6F36caA71855b",
  "extraData": "0xd783010001844765746887676f312e342e32856c696e7578",
  "transactions": [
    {
      "hash": "0xe58b03865d7f1cc9e2bd7666578d44082a1b72b94cc4def467a8e5859554c1ff",
      "blockHash": "0xf7f508686c927a40321ed16ad11c385d37b94ac0ef86e2a7e8deec764bf84cf8",
      "blockNumber": 94437,
      "transactionIndex": 0,
      "confirmations": null,
      "from": "0xFD7c9117BbEB649d9b37B3D3C9917f7c12f526B3",
      "gasPrice": {
        "_hex": "0xd4777afff"
      },
      "gasLimit": {
        "_hex": "0x5208"
      },
      "to": "0x32Be343B94f860124dC4fEe278FDCBD38C102D88",
      "value": {
        "_hex": "0x25518eeba882ce0000"
      },
      "nonce": 27,
      "data": "0x",
      "r": "0xbe602144b71ccc4704f975e4d41701d3729292f048df5280df116a9a5e974ad9",
      "s": "0x28d5a468caf18d6365576cec88ac2ccb931f0d8367957985c1f86f2f6a31239f",
      "v": 27,
      "creates": null,
      "raw": "0xf86d1b850d4777afff8252089432be343b94f860124dc4fee278fdcbd38c102d888925518eeba882ce0000801ba0be602144b71ccc4704f975e4d41701d3729292f048df5280df116a9a5e974ad9a028d5a468caf18d6365576cec88ac2ccb931f0d8367957985c1f86f2f6a31239f",
      "networkId": 0,
      "chainId": 0
    }
  ]
}