{
  "hash": "0x99e769858f393c2fcf16dc3248a88b517e65ff1ffedff7bd7e3aa920bf1e259c",
  "parentHash": "0x3380070968260188845e340deb7d7fbcde3a1220b2dc0c21caade15f83dc20b9",
  "number": 82021,
  "timestamp": 1439512042,
  "nonce": "0x321b3f6c21eddf3f",
  "difficulty": 2405759966739,
  "gasLimit": {
    "_hex": "0x2fefd5"
  },
  "gasUsed": {
    "_hex": "0xf618"
  },
  "miner": "0xBD744E3F13D79B33F6c8E1d5E32F8E9BA2866c46",
  "extraData": "0x476574682f76312e302e312d39613032663533372f6c696e75782f676f312e34",
  "transactions": [
    {
      "hash": "0xbd41a84c793742ae96a410bc934b3c7bd10268f197554cf9b8286715ce9fa368",
      "blockHash": "0x99e769858f393c2fcf16dc3248a88b517e65ff1ffedff7bd7e3aa920bf1e259c",
      "blockNumber": 82021,
      "transactionIndex": 0,
      "confirmations": null,
      "from": "0x971fb830e0Cb043055d5387B50FD09900Fe7a140",
      "gasPrice": {
        "_hex": "0xde07de31f"
      },
      "gasLimit": {
        "_hex": "0x5208"
      },
      "to": "0x32Be343B94f860124dC4fEe278FDCBD38C102D88",
      "value": {
        "_hex": "0x1b1ae0648b71d20000"
      },
      "nonce": 0,
      "data": "0x",
      "r": "0xc1aaf74859d79416156ffb700e69a072c4be79d77058977354d06896a8ac0581",
      "s": "0x591054b500a85017e4530321db669575b376395d9a0860e4f8eacc119a710aa1",
      "v": 28,
      "creates": null,
      "raw": "0xf86d80850de07de31f8252089432be343b94f860124dc4fee278fdcbd38c102d88891b1ae0648b71d20000801ca0c1aaf74859d79416156ffb700e69a072c4be79d77058977354d06896a8ac0581a0591054b500a85017e4530321db669575b376395d9a0860e4f8eacc119a710aa1",
      "networkId": 0,
      "chainId": 0
    },
    {
      "hash": "0xf7cc5df3adc90dd596895e650ca37ecb5e22910af84bd9b29375ec0f6aa83b9f",
      "blockHash": "0x99e769858f393c2fcf16dc3248a88b517e65ff1ffedff7bd7e3aa920bf1e259c",
      "blockNumber": 82021,
      "transactionIndex": 1,
      "confirmations": null,
      "from": "0x32Be343B94f860124dC4fEe278FDCBD38C102D88",
      "gasPrice": {
        "_hex": "0xdb9a9bb28"
      },
      "gasLimit": {
        "_hex": "0x5208"
      },
      "to": "0x4e1F253A361d3BAc24c77330b6938C939dCBdA50",
      "value": {
        "_hex": "0x4b7ec32d7a20000"
      },
      "nonce": 620,
      "data": "0x",
      "r": "0xe243886e3235b3688783ba99fa30d5a3bc8ddc7ebbe2e28b4f98286496868c36",
      "s": "0x03c1c976c52605c47e622a010c65ad7ec2f92bbca129a0f68011343b1f6927c9",
      "v": 27,
      "creates": null,
      "raw": "0xf86e82026c850db9a9bb28825208944e1f253a361d3bac24c77330b6938c939dcbda508804b7ec32d7a20000801ba0e243886e3235b3688783ba99fa30d5a3bc8ddc7ebbe2e28b4f98286496868c36a003c1c976c52605c47e622a010c65ad7ec2f92bbca129a0f68011343b1f6927c9",
      "networkId": 0,
      "chainId": 0
    },
    {
      "hash": "0x8f84062640dd2b3f223c15413d817e33ec1c710b6c55b02f36182b4b23a4a044",
      "blockHash": "0x99e769858f393c2fcf16dc3248a88b517e65ff1ffedff7bd7e3aa920bf1e259c",
      "blockNumber": 82021,
      "transactionIndex": 2,
      "confirmations": null,
      "from": "0x2910543Af39abA0Cd09dBb2D50200b3E800A63D2",
      "gasPrice": {
        "_hex": "0xd6980d397"
      },
      "gasLimit": {
        "_hex": "0x5208"
      },
      "to": "0x18C1a2C6cF4501A3AFcD4c90cF4644C5A58cb1d0",
      "value": {
        "_hex": "0x1157c828fdbef8000"
      },
      "nonce": 506,
      "data": "0x",
      "r": "0x688bc0f21f0f48f4e1f26391e25ef3a3efd866bd8108dd5313d2fca926335d08",
      "s": "0x26943621890b6526f5259f6c880ba5727ae78e52ad3ccb11fbd370375b6e6a64",
      "v": 28,
      "creates": null,
      "raw": "0xf86f8201fa850d6980d3978252089418c1a2c6cf4501a3afcd4c90cf4644c5a58cb1d08901157c828fdbef8000801ca0688bc0f21f0f48f4e1f26391e25ef3a3efd866bd8108dd5313d2fca926335d08a026943621890b6526f5259f6c880ba5727ae78e52ad3ccb11fbd370375b6e6a64",
      "networkId": 0,
      "chainId": 0
    }
  ]
}