{
  "hash": "0xc9b3601f234b88c639be63adf2bdd2802197d5e57065fea2b39802ed6fd113d3",
  "parentHash": "0x3e39db3c17a7c05e7f27a67d5f2796d5413b2da15d5cc1efc425e689e10a53c1",
  "number": 69281,
  "timestamp": 1439301175,
  "nonce": "0x21e6b221bfed2607",
  "difficulty": 2064912158989,
  "gasLimit": {
    "_hex": "0x2fefd8"
  },
  "gasUsed": {
    "_hex": "0x4932e"
  },
  "miner": "0x47ff6576639c2e94762eA5443978D7681C0E78DC",
  "extraData": "0x476574682f76312e302e312f6c696e75782f676f312e342e32",
  "transactions": [
    {
      "hash": "0xf99a865287b4df99706afd96237f321a59840dbbf62ea90ab51e0ad253b05f1b",
      "blockHash": "0xc9b3601f234b88c639be63adf2bdd2802197d5e57065fea2b39802ed6fd113d3",
      "blockNumber": 69281,
      "transactionIndex": 0,
      "confirmations": null,
      "from": "0xd223eD5b348a82910987CbBc7875a7AE62E1Ba53",
      "gasPrice": {
        "_hex": "0xdd32625e4"
      },
      "gasLimit": {
        "_hex": "0x5208"
      },
      "to": "0x32Be343B94f860124dC4fEe278FDCBD38C102D88",
      "value": {
        "_hex": "0x2027b385abd08000"
      },
      "nonce": 1,
      "data": "0x",
      "r": "0x38a87a7d1a0fc1719499a8914776a751939e4dc19ada5dd284b2b4161885bdda",
      "s": "0x410aa2337e53e5043c05bc383295e964f8c971aaa8a73a46303102762ffc89ce",
      "v": 27,
      "creates": null,
      "raw": "0xf86c01850dd32625e48252089432be343b94f860124dc4fee278fdcbd38c102d88882027b385abd08000801ba038a87a7d1a0fc1719499a8914776a751939e4dc19ada5dd284b2b4161885bddaa0410aa2337e53e5043c05bc383295e964f8c971aaa8a73a46303102762ffc89ce",
      "networkId": 0,
      "chainId": 0
    },
    {
      "hash": "0xfd82f3588788e5e6af705738e143f45d17ae6543d910cb221a6fd7bb677898e8",
      "blockHash": "0xc9b3601f234b88c639be63adf2bdd2802197d5e57065fea2b39802ed6fd113d3",
      "blockNumber": 69281,
      "transactionIndex": 1,
      "confirmations": null,
      "from": "0xe6A7a1d47ff21B6321162AEA7C6CB457D5476Bca",
      "gasPrice": {
        "_hex": "0xdb48b9431"
      },
      "gasLimit": {
        "_hex": "0x55f0"
      },
      "to": "0x5248EfBC7319bd65d436374266765D9727253F12",
      "value": {
        "_hex": "0x13f6bea6aea52a710"
      },
      "nonce": 667,
      "data": "0x",
      "r": "0x2ea8aa3613062240b65acb99e6085bd7cd40ce2d74be3c7b44df8685262476f0",
      "s": "0x13d7b31456f048ce1935a4f1764eafb1a46556500c52308c75f22ab9bd1c6783",
      "v": 28,
      "creates": null,
      "raw": "0xf86f82029b850db48b94318255f0945248efbc7319bd65d436374266765d9727253f1289013f6bea6aea52a710801ca02ea8aa3613062240b65acb99e6085bd7cd40ce2d74be3c7b44df8685262476f0a013d7b31456f048ce1935a4f1764eafb1a46556500c52308c75f22ab9bd1c6783",
      "networkId": 0,
      "chainId": 0
    },
    {
      "hash": "0x96ea1a419c20acb42ec7c7b2a767c0a0a579eb6e2577bfba4fcb2c9ca1094720",
      "blockHash": "0xc9b3601f234b88c639be63adf2bdd2802197d5e57065fea2b39802ed6fd113d3",
      "blockNumber": 69281,
      "transactionIndex": 2,
      "confirmations": null,
      "from": "0x4b0a38C16B842d68A8721B4CAd662e07cc430652",
      "gasPrice": {
        "_hex": "0xdb09b5f30"
      },
      "gasLimit": {
        "_hex": "0x5208"
      },
      "to": "0x32Be343B94f860124dC4fEe278FDCBD38C102D88",
      "value": {
        "_hex": "0x17beb1be7445c800"
      },
      "nonce": 0,
      "data": "0x",
      "r": "0xcb6b7a845c6f40b0e3720c5161ab6df223eabe2bf156e05d9a89ddd93915bad7",
      "s": "0x76e266ad4b61d67e37ac16a0c99775eb767c55bc398bb7086ec2bea89f898125",
      "v": 27,
      "creates": null,
      "raw": "0xf86c80850db09b5f308252089432be343b94f860124dc4fee278fdcbd38c102d888817beb1be7445c800801ba0cb6b7a845c6f40b0e3720c5161ab6df223eabe2bf156e05d9a89ddd93915bad7a076e266ad4b61d67e37ac16a0c99775eb767c55bc398bb7086ec2bea89f898125",
      "networkId": 0,
      "chainId": 0
    },
    {
      "hash": "0xb5e6f9608f654548fdd0f9f4f38ea5a0f95eb434d3da97303d202be0316d0ba3",
      "blockHash": "0xc9b3601f234b88c639be63adf2bdd2802197d5e57065fea2b39802ed6fd113d3",
      "blockNumber": 69281,
      "transactionIndex": 3,
      "confirmations": null,
      "from": "0xC8E61bFB4846B622B084B98Bc586388aFCb70d5F",
      "gasPrice": {
        "_hex": "0xdb09b5f30"
      },
      "gasLimit": {
        "_hex": "0x5208"
      },
      "to": "0x32Be343B94f860124dC4fEe278FDCBD38C102D88",
      "value": {
        "_hex": "0x40d1260950148c00"
      },
      "nonce": 0,
      "data": "0x",
      "r": "0x16723e6f3fdd9b95d6d3d9c48c0f4d1ef028ff78646a7cedfa7fb757b000f142",
      "s": "0x034352ada19f94a3f41221cc09d719bf94723f095eb77cc809c2d0e1d16ec31d",
      "v": 27,
      "creates": null,
      "raw": "0xf86c80850db09b5f308252089432be343b94f860124dc4fee278fdcbd38c102d888840d1260950148c00801ba016723e6f3fdd9b95d6d3d9c48c0f4d1ef028ff78646a7cedfa7fb757b000f142a0034352ada19f94a3f41221cc09d719bf94723f095eb77cc809c2d0e1d16ec31d",
      "networkId": 0,
      "chainId": 0
    },
    {
      "hash": "0x4f6d605b7d12270f0ccb977ede4589544c7fe38473d08700fad8fd574debc3a1",
      "blockHash": "0xc9b3601f234b88c639be63adf2bdd2802197d5e57065fea2b39802ed6fd113d3",
      "blockNumber": 69281,
      "transactionIndex": 4,
      "confirmations": null,
      "from": "0x6d37bd781411ccDd33792481E2C9CE5b62D3a5B8",
      "gasPrice": {
        "_hex": "0xdb09b5f30"
      },
      "gasLimit": {
        "_hex": "0x5208"
      },
      "to": "0x32Be343B94f860124dC4fEe278FDCBD38C102D88",
      "value": {
        "_hex": "0x25b3014a909da800"
      },
      "nonce": 0,
      "data": "0x",
      "r": "0x8ff34c032a5a248e62a3e7c57de59342f0e02778fd3a1c0828e075d4a0c74872",
      "s": "0x2e5b32788ce6e5ea0c224f43f77fe739d92ad4a1bbd6ba0005bf4ee11bed1432",
      "v": 27,
      "creates": null,
      "raw": "0xf86c80850db09b5f308252089432be343b94f860124dc4fee278fdcbd38c102d888825b3014a909da800801ba08ff34c032a5a248e62a3e7c57de59342f0e02778fd3a1c0828e075d4a0c74872a02e5b32788ce6e5ea0c224f43f77fe739d92ad4a1bbd6ba0005bf4ee11bed1432",
      "networkId": 0,
      "chainId": 0
    },
    {
      "hash": "0x13a9445adf82788e88fa1d64777273135bbecd5d25775b7fc3178bba44117e01",
      "blockHash": "0xc9b3601f234b88c639be63adf2bdd2802197d5e57065fea2b39802ed6fd113d3",
      "blockNumber": 69281,
      "transactionIndex": 5,
      "confirmations": null,
      "from": "0x9B7280891dc19fd3A2e754cB9007203820650403",
      "gasPrice": {
        "_hex": "0xdb09b5f30"
      },
      "gasLimit": {
        "_hex": "0x5208"
      },
      "to": "0x32Be343B94f860124dC4fEe278FDCBD38C102D88",
      "value": {
        "_hex": "0x1b1c321fad034400"
      },
      "nonce": 0,
      "data": "0x",
      "r": "0x4f074a95d633c1432b17f06bb4bd7484898bf4b067323dfbf9723ecf548d9a83",
      "s": "0x2f06c611ebae3d5f031049c14d90d7d2c5c2f9675549158511f2f4cbe1e2f2bd",
      "v": 28,
      "creates": null,
      "raw": "0xf86c80850db09b5f308252089432be343b94f860124dc4fee278fdcbd38c102d88881b1c321fad034400801ca04f074a95d633c1432b17f06bb4bd7484898bf4b067323dfbf9723ecf548d9a83a02f06c611ebae3d5f031049c14d90d7d2c5c2f9675549158511f2f4cbe1e2f2bd",
      "networkId": 0,
      "chainId": 0
    },
    {
      "hash": "0x6cf5f395a5f80a179c8a72ee0033c281c4cee075664217e053f18d96bf8216ec",
      "blockHash": "0xc9b3601f234b88c639be63adf2bdd2802197d5e57065fea2b39802ed6fd113d3",
      "blockNumber": 69281,
      "transactionIndex": 6,
      "confirmations": null,
      "from": "0xbc681E36E2BC0d9Cb397811ce7a5821da2D66059",
      "gasPrice": {
        "_hex": "0xdb09b5f30"
      },
      "gasLimit": {
        "_hex": "0x5208"
      },
      "to": "0x32Be343B94f860124dC4fEe278FDCBD38C102D88",
      "value": {
        "_hex": "0x18d06db5e126a000"
      },
      "nonce": 0,
      "data": "0x",
      "r": "0x97bd10783d92789da351db163629ea4def61f06795cdeea5921ec5a52fdce7b0",
      "s": "0x13a8659eeb5c64657e1c2de56ab2a771eed5e9dc2b1d3c3435dc3d573256310f",
      "v": 28,
      "creates": null,
      "raw": "0xf86c80850db09b5f308252089432be343b94f860124dc4fee278fdcbd38c102d888818d06db5e126a000801ca097bd10783d92789da351db163629ea4def61f06795cdeea5921ec5a52fdce7b0a013a8659eeb5c64657e1c2de56ab2a771eed5e9dc2b1d3c3435dc3d573256310f",
      "networkId": 0,
      "chainId": 0
    },
    {
      "hash": "0xe93888517a15932af0b2d2c83f831944437542a8e9d23a34a0d3378d17c63b2b",
      "blockHash": "0xc9b3601f234b88c639be63adf2bdd2802197d5e57065fea2b39802ed6fd113d3",
      "blockNumber": 69281,
      "transactionIndex": 7,
      "confirmations": null,
      "from": "0xBDda295a4aa9E3A60063548157510B47c6BE932f",
      "gasPrice": {
        "_hex": "0xdb09b5f30"
      },
      "gasLimit": {
        "_hex": "0x5208"
      },
      "to": "0x32Be343B94f860124dC4fEe278FDCBD38C102D88",
      "value": {
        "_hex": "0x1e0866f43512c800"
      },
      "nonce": 0,
      "data": "0x",
      "r": "0xe3142256538ddfb7e2609461335369bd76ed9e63e5e3c9eb7e9bb47c3ef9dd69",
      "s": "0x6bfc681800405be55986294849a10f825219c8a3c02fbb7ea79bc1b8875cd2b0",
      "v": 27,
      "creates": null,
      "raw": "0xf86c80850db09b5f308252089432be343b94f860124dc4fee278fdcbd38c102d88881e0866f43512c800801ba0e3142256538ddfb7e2609461335369bd76ed9e63e5e3c9eb7e9bb47c3ef9dd69a06bfc681800405be55986294849a10f825219c8a3c02fbb7ea79bc1b8875cd2b0",
      "networkId": 0,
      "chainId": 0
    },
    {
      "hash": "0x0ac493a2fd5ba8d4dc68f8f0925a88df70a3471d606d1d29cc98e9456c67cd96",
      "blockHash": "0xc9b3601f234b88c639be63adf2bdd2802197d5e57065fea2b39802ed6fd113d3",
      "blockNumber": 69281,
      "transactionIndex": 8,
      "confirmations": null,
      "from": "0xb71F25995CC5De7A465fB37688126E07654Fa662",
      "gasPrice": {
        "_hex": "0xdb09b5f30"
      },
      "gasLimit": {
        "_hex": "0x5208"
      },
      "to": "0x32Be343B94f860124dC4fEe278FDCBD38C102D88",
      "value": {
        "_hex": "0x2170b6b2deb43000"
      },
      "nonce": 0,
      "data": "0x",
      "r": "0xcdb7fcdaa0c822ca43ade922a292718094b040423d670c52794fed32a3d96999",
      "s": "0x23b3a90307bc239237737019158f8c20cfbcd3f41f7fbfcf693fdd9a200b09ab",
      "v": 28,
      "creates": null,
      "raw": "0xf86c80850db09b5f308252089432be343b94f860124dc4fee278fdcbd38c102d88882170b6b2deb43000801ca0cdb7fcdaa0c822ca43ade922a292718094b040423d670c52794fed32a3d96999a023b3a90307bc239237737019158f8c20cfbcd3f41f7fbfcf693fdd9a200b09ab",
      "networkId": 0,
      "chainId": 0
    },
    {
      "hash": "0x78e1c87b8947da31a2d001dbbffbd13caca8c9d9812479c5583e7986c8af8a19",
      "blockHash": "0xc9b3601f234b88c639be63adf2bdd2802197d5e57065fea2b39802ed6fd113d3",
      "blockNumber": 69281,
      "transactionIndex": 9,
      "confirmations": null,
      "from": "0x027698B61229ECCa19311e977ADE3C2923D4e414",
      "gasPrice": {
        "_hex": "0xdb09b5f30"
      },
      "gasLimit": {
        "_hex": "0x5208"
      },
      "to": "0x32Be343B94f860124dC4fEe278FDCBD38C102D88",
      "value": {
        "_hex": "0x260c7a300f917800"
      },
      "nonce": 0,
      "data": "0x",
      "r": "0x88ef2572eb8bb64ffbb164215a46243e7f8712091df274288bc9198044685ac5",
      "s": "0x11f9ebbed38d391a85371f2c554ac2af8a9c7b4a362fdd9a0b8fe2301dfef1e0",
      "v": 28,
      "creates": null,
      "raw": "0xf86c80850db09b5f308252089432be343b94f860124dc4fee278fdcbd38c102d8888260c7a300f917800801ca088ef2572eb8bb64ffbb164215a46243e7f8712091df274288bc9198044685ac5a011f9ebbed38d391a85371f2c554ac2af8a9c7b4a362fdd9a0b8fe2301dfef1e0",
      "networkId": 0,
      "chainId": 0
    },
    {
      "hash": "0x713292485145d9cee5e0ae9439f23839fe79c672a0b206a5060523995fa62e61",
      "blockHash": "0xc9b3601f234b88c639be63adf2bdd2802197d5e57065fea2b39802ed6fd113d3",
      "blockNumber": 69281,
      "transactionIndex": 10,
      "confirmations": null,
      "from": "0x267069452478cA39b3f5F1A4fFdD4131f50Bc977",
      "gasPrice": {
        "_hex": "0xdb09b5f30"
      },
      "gasLimit": {
        "_hex": "0x5208"
      },
      "to": "0x32Be343B94f860124dC4fEe278FDCBD38C102D88",
      "value": {
        "_hex": "0x1b6dccd5c58d7c00"
      },
      "nonce": 1,
      "data": "0x",
      "r": "0x9cc26fe8574239f9deda5f4b761e092412e4bbf835d330201b5dcffe74716c47",
      "s": "0x2121a75e424d299d5a8afb8aa87721e628d2c0fcdd48d77ce193c26f3b0c167e",
      "v": 27,
      "creates": null,
      "raw": "0xf86c01850db09b5f308252089432be343b94f860124dc4fee278fdcbd38c102d88881b6dccd5c58d7c00801ba09cc26fe8574239f9deda5f4b761e092412e4bbf835d330201b5dcffe74716c47a02121a75e424d299d5a8afb8aa87721e628d2c0fcdd48d77ce193c26f3b0c167e",
      "networkId": 0,
      "chainId": 0
    },
    {
      "hash": "0xcc4fe4b0fdc73e527d32fc34ca4c19ed4dfe50782bdee875d099f7dc680f4c67",
      "blockHash": "0xc9b3601f234b88c639be63adf2bdd2802197d5e57065fea2b39802ed6fd113d3",
      "blockNumber": 69281,
      "transactionIndex": 11,
      "confirmations": null,
      "from": "0x4bA6C728e6251DC89C317f7dbCA89D4136C0baB0",
      "gasPrice": {
        "_hex": "0xdb09b5f30"
      },
      "gasLimit": {
        "_hex": "0x5208"
      },
      "to": "0x32Be343B94f860124dC4fEe278FDCBD38C102D88",
      "value": {
        "_hex": "0x342e567c1f2e3c00"
      },
      "nonce": 0,
      "data": "0x",
      "r": "0x0de91bd1e780bd141af7e5a77dc0bee53a14a302bd0c0f4f44b39b9ab6adbc8b",
      "s": "0x48a56b881bad803ef21eb7a2b35c4e4ef91bcf6dfe41db8631dd2d57d06a9a72",
      "v": 27,
      "creates": null,
      "raw": "0xf86c80850db09b5f308252089432be343b94f860124dc4fee278fdcbd38c102d8888342e567c1f2e3c00801ba00de91bd1e780bd141af7e5a77dc0bee53a14a302bd0c0f4f44b39b9ab6adbc8ba048a56b881bad803ef21eb7a2b35c4e4ef91bcf6dfe41db8631dd2d57d06a9a72",
      "networkId": 0,
      "chainId": 0
    },
    {
      "hash": "0x79b3ea904bbef0e558486fbb9d0ac5367c88cf1a3953cb86e7b6d6925d835fff",
      "blockHash": "0xc9b3601f234b88c639be63adf2bdd2802197d5e57065fea2b39802ed6fd113d3",
      "blockNumber": 69281,
      "transactionIndex": 12,
      "confirmations": null,
      "from": "0xe6A7a1d47ff21B6321162AEA7C6CB457D5476Bca",
      "gasPrice": {
        "_hex": "0xd94f7e402"
      },
      "gasLimit": {
        "_hex": "0x55f0"
      },
      "to": "0xbA86D58204A1f1fbe53Ff71aa038BC08cb4057e8",
      "value": {
        "_hex": "0x17bd417256482f680"
      },
      "nonce": 668,
      "data": "0x",
      "r": "0xc4341d8dde31809637b5304072f6659cb778a55e7571b93ea21d636c89731fd5",
      "s": "0x199219c94ebad992eead01fba110e1ef716621a252f81b71cc6a91fe6b80dc96",
      "v": 27,
      "creates": null,
      "raw": "0xf86f82029c850d94f7e4028255f094ba86d58204a1f1fbe53ff71aa038bc08cb4057e889017bd417256482f680801ba0c4341d8dde31809637b5304072f6659cb778a55e7571b93ea21d636c89731fd5a0199219c94ebad992eead01fba110e1ef716621a252f81b71cc6a91fe6b80dc96",
      "networkId": 0,
      "chainId": 0
    },
    {
      "hash": "0xad2c5ac759b57246ebac950cf43f37007c6ecd0249a9bc0aa6ae0c543ac1311b",
      "blockHash": "0xc9b3601f234b88c639be63adf2bdd2802197d5e57065fea2b39802ed6fd113d3",
      "blockNumber": 69281,
      "transactionIndex": 13,
      "confirmations": null,
      "from": "0x8bae48F227d978d084B009b775222BAaF61ed9fe",
      "gasPrice": {
        "_hex": "0xba43b7400"
      },
      "gasLimit": {
        "_hex": "0x68ed"
      },
      "to": "0xad5e5A5Bc4654dbeF0d5CABD7ABeB426769C073a",
      "value": {
        "_hex": "0x0"
      },
      "nonce": 10,
      "data": "0xf5bade66000000000000000000000000000000000000000000000000000000000000000a",
      "r": "0x7b8f23757e298ee86c12099aec9a0a9f3c4a613623c497e5b047256557e8f5e4",
      "s": "0x11228f5efa0268bb0b3e8ad278d2dc2cc97e3fb1cfbc186fbd59b3d0ee05cdca",
      "v": 27,
      "creates": null,
      "raw": "0xf8880a850ba43b74008268ed94ad5e5a5bc4654dbef0d5cabd7abeb426769c073a80a4f5bade66000000000000000000000000000000000000000000000000000000000000000a1ba07b8f23757e298ee86c12099aec9a0a9f3c4a613623c497e5b047256557e8f5e4a011228f5efa0268bb0b3e8ad278d2dc2cc97e3fb1cfbc186fbd59b3d0ee05cdca",
      "networkId": 0,
      "chainId": 0
    }
  ]
}