{
  "hash": "0xb90d0cb712c83faf1e878aa3beeca0a9438f00d5b123eed5f3bdc1a6f226c562",
  "parentHash": "0x27811f189ddcd1697e950ac4b47f8218394cb99382752b04fcc4caa9ea829e5d",
  "number": 71675,
  "timestamp": 1439339947,
  "nonce": "0xe94f2d073bd379ee",
  "difficulty": 2180359572561,
  "gasLimit": {
    "_hex": "0x2fefd8"
  },
  "gasUsed": {
    "_hex": "0x546c"
  },
  "miner": "0x88D74a59454F6cF3B51ef6b9136AFb6b9D405A88",
  "extraData": "0x476574682f76312e302e312d37666266393930632f6c696e75782f676f312e34",
  "transactions": [
    {
      "hash": "0x2aa58847336aabf1d7cf58c345d92be40ab3b4c625a60da512334cb1bc4fa6c7",
      "blockHash": "0xb90d0cb712c83faf1e878aa3beeca0a9438f00d5b123eed5f3bdc1a6f226c562",
      "blockNumber": 71675,
      "transactionIndex": 0,
      "confirmations": null,
      "from": "0x4873313Ba85B8127aF35C5c73433720FC90ba4Fe",
      "gasPrice": {
        "_hex": "0xcbd35c55d"
      },
      "gasLimit": {
        "_hex": "0x61a8"
      },
      "to": "0x2910543Af39abA0Cd09dBb2D50200b3E800A63D2",
      "value": {
        "_hex": "0xde0b6b3a7640000"
      },
      "nonce": 0,
      "data": "0x454e484d3633324a47",
      "r": "0xefaf2da0adc3c061478babce9e4e9b10ec8f8c56e27a0a9ba631953edcf6d70b",
      "s": "0x434aca265771d4c8376f394c6c52e001b43332626687385a35ab16d7f5c4d3df",
      "v": 27,
      "creates": null,
      "raw": "0xf87580850cbd35c55d8261a8942910543af39aba0cd09dbb2d50200b3e800a63d2880de0b6b3a764000089454e484d3633324a471ba0efaf2da0adc3c061478babce9e4e9b10ec8f8c56e27a0a9ba631953edcf6d70ba0434aca265771d4c8376f394c6c52e001b43332626687385a35ab16d7f5c4d3df",
      "networkId": 0,
      "chainId": 0
    }
  ]
}