{
  "hash": "0x241668a95fc3bfc2d104a92851f2d2005b0ffcd66f0638ddda51854464685174",
  "parentHash": "0xd2018c7025853c06a45704758a62c59c466e95c0776a849b2c22eb4f099910ea",
  "number": 99836,
  "timestamp": 1439796340,
  "nonce": "0x86b518d398786731",
  "difficulty": 3838111515412,
  "gasLimit": {
    "_hex": "0x2fefd8"
  },
  "gasUsed": {
    "_hex": "0x2a28"
  },
  "miner": "0x2f6BCe4fc330B69C9B4c2694d57C63Ec7B18feC7",
  "extraData": "0x476574682f76312e302e312f77696e646f77732f676f312e342e32",
  "transactions": [
    {
      "hash": "0xea67e7fac29953eb0f06b5ca1882dbbd3e914babc74b5c41d7bfaeb28de6f634",
      "blockHash": "0x241668a95fc3bfc2d104a92851f2d2005b0ffcd66f0638ddda51854464685174",
      "blockNumber": 99836,
      "transactionIndex": 0,
      "confirmations": null,
      "from": "0x7cFa3d23636173A3beFaabc8ca86846A07C4B3DD",
      "gasPrice": {
        "_hex": "0xdc770ea7f"
      },
      "gasLimit": {
        "_hex": "0xc350"
      },
      "to": "0xBCd159845b81E35a0b5aFF57FECCD0b3114791Ab",
      "value": {
        "_hex": "0x0"
      },
      "nonce": 12,
      "data": "0x41c0e1b5",
      "r": "0xe68c4605e9ac5c06f904253d4e40064b0845ef43d6541d840d12e975132a50bf",
      "s": "0x219e15dbb71e473d14194f0828041f564699a2ed98afa4c520b9757b52315c7c",
      "v": 28,
      "creates": null,
      "raw": "0xf8680c850dc770ea7f82c35094bcd159845b81e35a0b5aff57feccd0b3114791ab808441c0e1b51ca0e68c4605e9ac5c06f904253d4e40064b0845ef43d6541d840d12e975132a50bfa0219e15dbb71e473d14194f0828041f564699a2ed98afa4c520b9757b52315c7c",
      "networkId": 0,
      "chainId": 0
    }
  ]
}