{
  "hash": "0xc710a0425c086142c9e300315f36f5cd41298b16c916e7a28d69848d2bacf562",
  "parentHash": "0x69591119805d6eea1634328a84ec97d634c5925186dbf68d2f68047adef33056",
  "number": 101935,
  "timestamp": 1439830135,
  "nonce": "0x71aa6540b23204e9",
  "difficulty": 3926229116858,
  "gasLimit": {
    "_hex": "0x2fefd8"
  },
  "gasUsed": {
    "_hex": "0xa410"
  },
  "miner": "0xC603Ab5ef41fC61AA8b76bEddb09e3Cfcbb174BD",
  "extraData": "0x476574682f76312e302e312f77696e646f77732f676f312e342e32",
  "transactions": [
    {
      "hash": "0x3c7e9f8589bb504b2417267879a6b88faa0dfa76f0b6a272fc3447861c7ae84c",
      "blockHash": "0xc710a0425c086142c9e300315f36f5cd41298b16c916e7a28d69848d2bacf562",
      "blockNumber": 101935,
      "transactionIndex": 0,
      "confirmations": null,
      "from": "0x5465B1c380c9D2446965E503EB731F08A30ecD25",
      "gasPrice": {
        "_hex": "0xd1a7e7c19"
      },
      "gasLimit": {
        "_hex": "0x5208"
      },
      "to": "0x32Be343B94f860124dC4fEe278FDCBD38C102D88",
      "value": {
        "_hex": "0x71c80da8bcba9800"
      },
      "nonce": 4,
      "data": "0x",
      "r": "0xfab1e79b108a78f51d4f4f5994321cedf98dfcc0cf23b371ef3e865d21cb8252",
      "s": "0x49583050ae617e43554aea7b122c1c3b01809955cbc2d8f6c02d0d7d1fa2917c",
      "v": 27,
      "creates": null,
      "raw": "0xf86c04850d1a7e7c198252089432be343b94f860124dc4fee278fdcbd38c102d888871c80da8bcba9800801ba0fab1e79b108a78f51d4f4f5994321cedf98dfcc0cf23b371ef3e865d21cb8252a049583050ae617e43554aea7b122c1c3b01809955cbc2d8f6c02d0d7d1fa2917c",
      "networkId": 0,
      "chainId": 0
    },
    {
      "hash": "0xa9f951fb23c3e757aad059f17627afcbf88d327a15f7bfa40810d08921dde090",
      "blockHash": "0xc710a0425c086142c9e300315f36f5cd41298b16c916e7a28d69848d2bacf562",
      "blockNumber": 101935,
      "transactionIndex": 1,
      "confirmations": null,
      "from": "0x32Be343B94f860124dC4fEe278FDCBD38C102D88",
      "gasPrice": {
        "_hex": "0xd1a7e7c19"
      },
      "gasLimit": {
        "_hex": "0x5208"
      },
      "to": "0xD971aB50bF8821BBafcFBA3ddF6Cf949357cc935",
      "value": {
        "_hex": "0xaf280a60246bd8000"
      },
      "nonce": 1092,
      "data": "0x",
      "r": "0xd28c45e90ba142eeea02e9d2e19cb49aa94472daaec0770dbb39103dbff1e01f",
      "s": "0x601d56a660124cbc8d4edbd231301eead1ebb3e70f32845d8cbaba56fa776c0c",
      "v": 27,
      "creates": null,
      "raw": "0xf86f820444850d1a7e7c1982520894d971ab50bf8821bbafcfba3ddf6cf949357cc935890af280a60246bd8000801ba0d28c45e90ba142eeea02e9d2e19cb49aa94472daaec0770dbb39103dbff1e01fa0601d56a660124cbc8d4edbd231301eead1ebb3e70f32845d8cbaba56fa776c0c",
      "networkId": 0,
      "chainId": 0
    }
  ]
}