{
  "hash": "0xdaeba6f6fb021af8b41d04c34b9c785cba553bee78133301236c9bd705f9859f",
  "parentHash": "0xfa21033d625dfb4cad5659ca31b30d07413db0a1a80651911ede4c4a78213d8c",
  "number": 83459,
  "timestamp": 1439535705,
  "nonce": "0x623defcade59f21d",
  "difficulty": 2433701078151,
  "gasLimit": {
    "_hex": "0x2fefd8"
  },
  "gasUsed": {
    "_hex": "0x5208"
  },
  "miner": "0xe6A7a1d47ff21B6321162AEA7C6CB457D5476Bca",
  "extraData": "0x476574682f76312e302e312d38326566323666362f6c696e75782f676f312e34",
  "transactions": [
    {
      "hash": "0x682fe140137fcac5d1d268aac390d65933d5947afb0c02369e0f64c7d067ceee",
      "blockHash": "0xdaeba6f6fb021af8b41d04c34b9c785cba553bee78133301236c9bd705f9859f",
      "blockNumber": 83459,
      "transactionIndex": 0,
      "confirmations": null,
      "from": "0xfd4B989558AE11Be0c3b36E2d6f2A54a9343ca2E",
      "gasPrice": {
        "_hex": "0xd34c5e279"
      },
      "gasLimit": {
        "_hex": "0x15f90"
      },
      "to": "0x9ecD1Bc07d16eb926077282970FA5240cc983F25",
      "value": {
        "_hex": "0xdb29dacf90e0408"
      },
      "nonce": 2,
      "data": "0x",
      "r": "0xb187f6cc34c12e2767208825d50dd6c563f90113914790840e1b3fc59d0d2636",
      "s": "0x21d6491f2842ae5427bcdb64d5cc88de26e59c666a1db591761712824dff4f70",
      "v": 28,
      "creates": null,
      "raw": "0xf86d02850d34c5e27983015f90949ecd1bc07d16eb926077282970fa5240cc983f25880db29dacf90e0408801ca0b187f6cc34c12e2767208825d50dd6c563f90113914790840e1b3fc59d0d2636a021d6491f2842ae5427bcdb64d5cc88de26e59c666a1db591761712824dff4f70",
      "networkId": 0,
      "chainId": 0
    }
  ]
}