{
  "hash": "0x2e41bbc575fbc76a4157e5be8b4889a85e5bb3be2f3e4eb4de7370d3270e267d",
  "parentHash": "0x1eb19a2c2ce7a4e590881dddb4a2bae0a68a7f0ca8d2e1de550eb797b6b1206f",
  "number": 110967,
  "timestamp": 1439982479,
  "nonce": "0xa5d97af4768f1182",
  "difficulty": 4413936079587,
  "gasLimit": {
    "_hex": "0x2fefd8"
  },
  "gasUsed": {
    "_hex": "0x5208"
  },
  "miner": "0x49b6848cf1DC05FB0cD8374705cea44B55bbBf1E",
  "extraData": "0xd983010001844765746887676f312e342e328777696e646f7773",
  "transactions": [
    {
      "hash": "0x02a14990b8412dd142ab3adb9160f4fba770abe279a6c49e29c777d4348b1cf9",
      "blockHash": "0x2e41bbc575fbc76a4157e5be8b4889a85e5bb3be2f3e4eb4de7370d3270e267d",
      "blockNumber": 110967,
      "transactionIndex": 0,
      "confirmations": null,
      "from": "0xF87481A262E993a75F791E7859E71BaC36A606Eb",
      "gasPrice": {
        "_hex": "0xd9eb2657d"
      },
      "gasLimit": {
        "_hex": "0x5208"
      },
      "to": "0x32Be343B94f860124dC4fEe278FDCBD38C102D88",
      "value": {
        "_hex": "0x2b5df46245804a000"
      },
      "nonce": 42,
      "data": "0x",
      "r": "0x0455cd1ced015f2b6f119b71a501c7d26b0b167089fa3c17e5022b0a81d76049",
      "s": "0x3ad4951bec413cd459cf57987afc9c8b1569180857a3576f10eb462a3cf8145e",
      "v": 27,
      "creates": null,
      "raw": "0xf86d2a850d9eb2657d8252089432be343b94f860124dc4fee278fdcbd38c102d888902b5df46245804a000801ba00455cd1ced015f2b6f119b71a501c7d26b0b167089fa3c17e5022b0a81d76049a03ad4951bec413cd459cf57987afc9c8b1569180857a3576f10eb462a3cf8145e",
      "networkId": 0,
      "chainId": 0
    }
  ]
}