{
  "hash": "0x3bc8bb61af3f3013a0c273c5b372c994335958635009c82e8e5f38b267afa452",
  "parentHash": "0x4cfd727851a3f36f38c410ee2bebe1fa7b61fa742a4552e1197863173731b1f3",
  "number": 70872,
  "timestamp": 1439326717,
  "nonce": "0xad464dca801acfd0",
  "difficulty": 2154111836139,
  "gasLimit": {
    "_hex": "0x2fefd8"
  },
  "gasUsed": {
    "_hex": "0xa410"
  },
  "miner": "0x458F183347F45a4001807728A89F31E9Da9D4A58",
  "extraData": "0x",
  "transactions": [
    {
      "hash": "0xade0c0b7ce7e41bae2f7eb425fdbad1352db6d7a33413b6952ba47e3c21b9deb",
      "blockHash": "0x3bc8bb61af3f3013a0c273c5b372c994335958635009c82e8e5f38b267afa452",
      "blockNumber": 70872,
      "transactionIndex": 0,
      "confirmations": null,
      "from": "0x12E09fC5550e428D07861F6bE42728cfc2Db2f3d",
      "gasPrice": {
        "_hex": "0xd36407794"
      },
      "gasLimit": {
        "_hex": "0x5208"
      },
      "to": "0x32Be343B94f860124dC4fEe278FDCBD38C102D88",
      "value": {
        "_hex": "0x298c1937dc08d800"
      },
      "nonce": 0,
      "data": "0x",
      "r": "0x72992cf6d39c90ef88f92fd0df03f2e850e08b405904312685b86dfd01279415",
      "s": "0x4514033624980101a0adddd32336ba1b8bc3f34c805c9f33387e53cbd749a5a5",
      "v": 28,
      "creates": null,
      "raw": "0xf86c80850d364077948252089432be343b94f860124dc4fee278fdcbd38c102d8888298c1937dc08d800801ca072992cf6d39c90ef88f92fd0df03f2e850e08b405904312685b86dfd01279415a04514033624980101a0adddd32336ba1b8bc3f34c805c9f33387e53cbd749a5a5",
      "networkId": 0,
      "chainId": 0
    },
    {
      "hash": "0x7c43170826e6c8a7a8fc750156a9726d8e4f894d2d37c3cca2dc1e42e192b6f4",
      "blockHash": "0x3bc8bb61af3f3013a0c273c5b372c994335958635009c82e8e5f38b267afa452",
      "blockNumber": 70872,
      "transactionIndex": 1,
      "confirmations": null,
      "from": "0xF87481A262E993a75F791E7859E71BaC36A606Eb",
      "gasPrice": {
        "_hex": "0xd36407794"
      },
      "gasLimit": {
        "_hex": "0x5208"
      },
      "to": "0x32Be343B94f860124dC4fEe278FDCBD38C102D88",
      "value": {
        "_hex": "0xd02678bc7ff59000"
      },
      "nonce": 12,
      "data": "0x",
      "r": "0x84182dc4666ff9c94bddc8c868e783aac5f80f2fcc4a5353ea9ff0d317309e93",
      "s": "0x62965cb586d9db23d8cab462a2bb45e4f3ff921546834b1072decda11917ad24",
      "v": 27,
      "creates": null,
      "raw": "0xf86c0c850d364077948252089432be343b94f860124dc4fee278fdcbd38c102d8888d02678bc7ff59000801ba084182dc4666ff9c94bddc8c868e783aac5f80f2fcc4a5353ea9ff0d317309e93a062965cb586d9db23d8cab462a2bb45e4f3ff921546834b1072decda11917ad24",
      "networkId": 0,
      "chainId": 0
    }
  ]
}