{
  "hash": "0x3ad94601d7ef8cf6b95cec0949c470a4cf0091c34a5123c31b3c82a4d317ca78",
  "parentHash": "0xc387ea95adf0c3dbfe72fa275e02533ea140f9771c5ffa808c33a78cec934ec1",
  "number": 68221,
  "timestamp": 1439284407,
  "nonce": "0x35b71de824a32a47",
  "difficulty": 1984118993618,
  "gasLimit": {
    "_hex": "0x2fefd8"
  },
  "gasUsed": {
    "_hex": "0xa410"
  },
  "miner": "0x580992B51e3925e23280EfB93d3047C82f17E038",
  "extraData": "0x476574682f76312e302e312f6c696e75782f676f312e342e32",
  "transactions": [
    {
      "hash": "0x4a7190443c685eb7b7bf6f51c5d07baa13cbd5aa9be19cb4811103952df3eaed",
      "blockHash": "0x3ad94601d7ef8cf6b95cec0949c470a4cf0091c34a5123c31b3c82a4d317ca78",
      "blockNumber": 68221,
      "transactionIndex": 0,
      "confirmations": null,
      "from": "0x6747f922385c9a6F9cfDf095F34345257DD597bE",
      "gasPrice": {
        "_hex": "0xba43b7400"
      },
      "gasLimit": {
        "_hex": "0x5208"
      },
      "to": "0xBA8b58445fcd9CB60Cb3A6b50147A19CCFE4726C",
      "value": {
        "_hex": "0x1fcbfa42bd6000"
      },
      "nonce": 28,
      "data": "0x",
      "r": "0x7a18b79018130c507c5a1b677c42b34cfb2362dbb013b0207bafa4abf5d8dd57",
      "s": "0x40e132e94881cee9b6c8feb54da2781f59979fcdae8f6f501ac58e0b44505835",
      "v": 27,
      "creates": null,
      "raw": "0xf86b1c850ba43b740082520894ba8b58445fcd9cb60cb3a6b50147a19ccfe4726c871fcbfa42bd6000801ba07a18b79018130c507c5a1b677c42b34cfb2362dbb013b0207bafa4abf5d8dd57a040e132e94881cee9b6c8feb54da2781f59979fcdae8f6f501ac58e0b44505835",
      "networkId": 0,
      "chainId": 0
    },
    {
      "hash": "0xe1f7d5ab3928b930977a12b32360f5db7db78009187eb491271f3c13e0dd2268",
      "blockHash": "0x3ad94601d7ef8cf6b95cec0949c470a4cf0091c34a5123c31b3c82a4d317ca78",
      "blockNumber": 68221,
      "transactionIndex": 1,
      "confirmations": null,
      "from": "0x6747f922385c9a6F9cfDf095F34345257DD597bE",
      "gasPrice": {
        "_hex": "0xba43b7400"
      },
      "gasLimit": {
        "_hex": "0x5208"
      },
      "to": "0xC09BA63d811979D6921cedb50294415f5358B92A",
      "value": {
        "_hex": "0x1fcbfa42bd6000"
      },
      "nonce": 29,
      "data": "0x",
      "r": "0xc2ca936f04c1283a3fac0c7805ac2567a6c7beaaa75e561a5b04b8d799df1bb5",
      "s": "0x6be86a4ca090c3f8a41e8861ada98557e429438f3632f583e133101e0c04d00a",
      "v": 28,
      "creates": null,
      "raw": "0xf86b1d850ba43b740082520894c09ba63d811979d6921cedb50294415f5358b92a871fcbfa42bd6000801ca0c2ca936f04c1283a3fac0c7805ac2567a6c7beaaa75e561a5b04b8d799df1bb5a06be86a4ca090c3f8a41e8861ada98557e429438f3632f583e133101e0c04d00a",
      "networkId": 0,
      "chainId": 0
    }
  ]
}