{
  "hash": "0x9d594fa6ca6d36f6cc2f2dedc3a22312c240d9ec405c07bd6c3c169d4c151962",
  "parentHash": "0x72ba1910c1fffa0299601cb4b1bbd64db5d779067ef07637aba1dc1f111d2896",
  "number": 101181,
  "timestamp": 1439818670,
  "nonce": "0x3d2446400562883f",
  "difficulty": 3858163181208,
  "gasLimit": {
    "_hex": "0x2fefd8"
  },
  "gasUsed": {
    "_hex": "0xa410"
  },
  "miner": "0x3DfCf2bF579C831a03379a140b74f884e49CaFf3",
  "extraData": "0x476574682f76312e302e312d39393231366634612f6c696e75782f676f312e34",
  "transactions": [
    {
      "hash": "0xdbb7efd875343572a318b85f703f69018189af3c7eeb90367dc13cb83864e417",
      "blockHash": "0x9d594fa6ca6d36f6cc2f2dedc3a22312c240d9ec405c07bd6c3c169d4c151962",
      "blockNumber": 101181,
      "transactionIndex": 0,
      "confirmations": null,
      "from": "0xD51361E8863b74B1d3BF75246d30f33f9f103e1d",
      "gasPrice": {
        "_hex": "0xdcdafe349"
      },
      "gasLimit": {
        "_hex": "0x5208"
      },
      "to": "0x32Be343B94f860124dC4fEe278FDCBD38C102D88",
      "value": {
        "_hex": "0xa8904727804c3000"
      },
      "nonce": 4,
      "data": "0x",
      "r": "0x978b412128a9cef2b403d57dbcd853391e9e8d1c1f11ef85eaec9572f42a6cbb",
      "s": "0x26b1433182bf845e750d7225d967c4bb2f0ea701ab28eeee9b4bdcd22b0eb73f",
      "v": 28,
      "creates": null,
      "raw": "0xf86c04850dcdafe3498252089432be343b94f860124dc4fee278fdcbd38c102d8888a8904727804c3000801ca0978b412128a9cef2b403d57dbcd853391e9e8d1c1f11ef85eaec9572f42a6cbba026b1433182bf845e750d7225d967c4bb2f0ea701ab28eeee9b4bdcd22b0eb73f",
      "networkId": 0,
      "chainId": 0
    },
    {
      "hash": "0xdba7776e8ffce03d237084f03eed9b998775ab44bed4eed50e04e8ce439e4299",
      "blockHash": "0x9d594fa6ca6d36f6cc2f2dedc3a22312c240d9ec405c07bd6c3c169d4c151962",
      "blockNumber": 101181,
      "transactionIndex": 1,
      "confirmations": null,
      "from": "0xE9dEfDfce0C01e6385eD158792d329d53D7569Df",
      "gasPrice": {
        "_hex": "0xcf88b6d27"
      },
      "gasLimit": {
        "_hex": "0x15f90"
      },
      "to": "0x296ddc7dB724c4b7252dEe85F3969df1b618ef1F",
      "value": {
        "_hex": "0x4563918244f40000"
      },
      "nonce": 2,
      "data": "0x",
      "r": "0x2e96431c6a69c17aef0cbbfd1da00cb3ad4efc75cc37affbe27cc7174c1b2643",
      "s": "0x60e33c06d00c7cd945f3e93d9c8e6eb801f3c1fefdc93d18c4c36ae4574f9db9",
      "v": 27,
      "creates": null,
      "raw": "0xf86d02850cf88b6d2783015f9094296ddc7db724c4b7252dee85f3969df1b618ef1f884563918244f40000801ba02e96431c6a69c17aef0cbbfd1da00cb3ad4efc75cc37affbe27cc7174c1b2643a060e33c06d00c7cd945f3e93d9c8e6eb801f3c1fefdc93d18c4c36ae4574f9db9",
      "networkId": 0,
      "chainId": 0
    }
  ]
}