{
  "hash": "0x6e3773e38ea92d54e6d5730e751300c0cb9f254c25c08b4125bc486921f22319",
  "parentHash": "0x519974e1cfeb449f6942bc77a93ec1fff6a9dcbaeda94d65ed540510cf209c21",
  "number": 65927,
  "timestamp": 1439245524,
  "nonce": "0xe16b3e39328fed12",
  "difficulty": 1944375091441,
  "gasLimit": {
    "_hex": "0x2fefd8"
  },
  "gasUsed": {
    "_hex": "0xa410"
  },
  "miner": "0xf927a40C8B7F6E07c5af7FA2155B4864a4112B13",
  "extraData": "0x",
  "transactions": [
    {
      "hash": "0x98d252e28d37c902640af5632172adb73aae4d3c3bc2c85b2dc22462259917f0",
      "blockHash": "0x6e3773e38ea92d54e6d5730e751300c0cb9f254c25c08b4125bc486921f22319",
      "blockNumber": 65927,
      "transactionIndex": 0,
      "confirmations": null,
      "from": "0xC3fe64D1af00F0d9c324E4387EF7533f7D788e95",
      "gasPrice": {
        "_hex": "0xdadfa7854"
      },
      "gasLimit": {
        "_hex": "0x5208"
      },
      "to": "0x32Be343B94f860124dC4fEe278FDCBD38C102D88",
      "value": {
        "_hex": "0x8c260655cca0e800"
      },
      "nonce": 1,
      "data": "0x",
      "r": "0xe75bfc5e73e610f315ead50e47f33321dc950836af8a5c27f926560e3b6e940e",
      "s": "0x1298b49e769741e09e10b0f29471f390f4b05da5003a1b03ee14fbc340d3147c",
      "v": 27,
      "creates": null,
      "raw": "0xf86c01850dadfa78548252089432be343b94f860124dc4fee278fdcbd38c102d88888c260655cca0e800801ba0e75bfc5e73e610f315ead50e47f33321dc950836af8a5c27f926560e3b6e940ea01298b49e769741e09e10b0f29471f390f4b05da5003a1b03ee14fbc340d3147c",
      "networkId": 0,
      "chainId": 0
    },
    {
      "hash": "0x71365fd8d6d99233274d9c9dac2ee46ce435b7d1ef4a1936a9ccb4a49ca65e78",
      "blockHash": "0x6e3773e38ea92d54e6d5730e751300c0cb9f254c25c08b4125bc486921f22319",
      "blockNumber": 65927,
      "transactionIndex": 1,
      "confirmations": null,
      "from": "0x05cdAf55d528Bb607D53056B6B6174b96b909268",
      "gasPrice": {
        "_hex": "0xba43b7400"
      },
      "gasLimit": {
        "_hex": "0x5b04"
      },
      "to": "0xc197252bAf4a4D2974eAB91039594F789A8C207c",
      "value": {
        "_hex": "0xf9ccd8a1c5080000"
      },
      "nonce": 1,
      "data": "0x",
      "r": "0xc2951c04c8e8ad85061ba9b3c369bbecc5f5edb30fde27a43548f3fa9f8b0da7",
      "s": "0x6c7ce2b36c104394051ccccca35de8e14fb7efed89260f00376c8628b7492ddc",
      "v": 27,
      "creates": null,
      "raw": "0xf86c01850ba43b7400825b0494c197252baf4a4d2974eab91039594f789a8c207c88f9ccd8a1c5080000801ba0c2951c04c8e8ad85061ba9b3c369bbecc5f5edb30fde27a43548f3fa9f8b0da7a06c7ce2b36c104394051ccccca35de8e14fb7efed89260f00376c8628b7492ddc",
      "networkId": 0,
      "chainId": 0
    }
  ]
}