{
  "hash": "0x8057b8d2011a4d38adfd51966c6dbd864298ef2b8d8cc98625c7839cec5f253f",
  "parentHash": "0x53f85998aa98f913756a54f9fe11dfce7b202df05535270ff1b1cdc4b54932ab",
  "number": 94842,
  "timestamp": 1439714913,
  "nonce": "0x44ebb25d02c682cb",
  "difficulty": 3513836953215,
  "gasLimit": {
    "_hex": "0x2fefd8"
  },
  "gasUsed": {
    "_hex": "0x5208"
  },
  "miner": "0xe6A7a1d47ff21B6321162AEA7C6CB457D5476Bca",
  "extraData": "0x476574682f76312e302e312d38326566323666362f6c696e75782f676f312e34",
  "transactions": [
    {
      "hash": "0xc33b7e6f4f8625d38337d435a87d7d8772ded0d3c482f7712575bed75afff914",
      "blockHash": "0x8057b8d2011a4d38adfd51966c6dbd864298ef2b8d8cc98625c7839cec5f253f",
      "blockNumber": 94842,
      "transactionIndex": 0,
      "confirmations": null,
      "from": "0x5fF827e73C5B866c300b824fe12719a3DD350513",
      "gasPrice": {
        "_hex": "0xd7c70541a"
      },
      "gasLimit": {
        "_hex": "0x5208"
      },
      "to": "0x32Be343B94f860124dC4fEe278FDCBD38C102D88",
      "value": {
        "_hex": "0xd026623e99181000"
      },
      "nonce": 18,
      "data": "0x",
      "r": "0x5e451d250064892f20a5fd9834c84abf53e4f888f8e57da40c93eb9f49c7080d",
      "s": "0x70cbd3872568b8573b531c1546b7746c7a3a035682533e16dbc48dbc5138f612",
      "v": 27,
      "creates": null,
      "raw": "0xf86c12850d7c70541a8252089432be343b94f860124dc4fee278fdcbd38c102d8888d026623e99181000801ba05e451d250064892f20a5fd9834c84abf53e4f888f8e57da40c93eb9f49c7080da070cbd3872568b8573b531c1546b7746c7a3a035682533e16dbc48dbc5138f612",
      "networkId": 0,
      "chainId": 0
    }
  ]
}