{
  "hash": "0xa7013d060bb9bb816ce4c2960ec4bcd059b3e87bfb535d750e158254b770a16b",
  "parentHash": "0xec747a7fc65d256d86e0efc27349c270c5d2748830c5b2e38e380e5655b1f291",
  "number": 82653,
  "timestamp": 1439522987,
  "nonce": "0xe43b92fada7995f6",
  "difficulty": 2365972030454,
  "gasLimit": {
    "_hex": "0x2fefd8"
  },
  "gasUsed": {
    "_hex": "0x546c"
  },
  "miner": "0xee5379D0c1ca47327368027455074C26D9952628",
  "extraData": "0x476574682f76312e302e312d38326566323666362f6c696e75782f676f312e34",
  "transactions": [
    {
      "hash": "0xee6bb6a5322e3fbb6393501ec48e9d62f14525cfe26fd80ee11cce059af6b647",
      "blockHash": "0xa7013d060bb9bb816ce4c2960ec4bcd059b3e87bfb535d750e158254b770a16b",
      "blockNumber": 82653,
      "transactionIndex": 0,
      "confirmations": null,
      "from": "0x72dcecdD4a7374231676f7fA910A678DfC7c98D6",
      "gasPrice": {
        "_hex": "0xd23ee12e2"
      },
      "gasLimit": {
        "_hex": "0x15f90"
      },
      "to": "0x2910543Af39abA0Cd09dBb2D50200b3E800A63D2",
      "value": {
        "_hex": "0x6f05b59d3b200000"
      },
      "nonce": 5,
      "data": "0x454e35585546344d47",
      "r": "0x5d3c97815990ae4228781281633f788b13e6d519f8295c3bd189d803265c0c4a",
      "s": "0x52c8502b2d9b5cf994def1c043896d8a2bbef70553deb857ec3f52c99e725c4e",
      "v": 28,
      "creates": null,
      "raw": "0xf87605850d23ee12e283015f90942910543af39aba0cd09dbb2d50200b3e800a63d2886f05b59d3b20000089454e35585546344d471ca05d3c97815990ae4228781281633f788b13e6d519f8295c3bd189d803265c0c4aa052c8502b2d9b5cf994def1c043896d8a2bbef70553deb857ec3f52c99e725c4e",
      "networkId": 0,
      "chainId": 0
    }
  ]
}