{
  "hash": "0x8036a9c0d21a2119169fba48a55d091f82a1a0a23df4d9d48c35fb8ef31419f4",
  "parentHash": "0xf7047727ca947ad5f8e163fea38dba0bed2d9ce6fa0c25190b5004ca15ce03a2",
  "number": 76834,
  "timestamp": 1439427084,
  "nonce": "0x3de56ac02d14b8b1",
  "difficulty": 2231782485573,
  "gasLimit": {
    "_hex": "0x2fefd8"
  },
  "gasUsed": {
    "_hex": "0x546c"
  },
  "miner": "0xF2d2AfF1320476cb8C6b607199D23175cc595693",
  "extraData": "0x476574682f76312e302e312f77696e646f77732f676f312e342e32",
  "transactions": [
    {
      "hash": "0x22c19a586c248390c93fb9b429b0819d65d6d62316a8f167bd31e5a45d42c0e8",
      "blockHash": "0x8036a9c0d21a2119169fba48a55d091f82a1a0a23df4d9d48c35fb8ef31419f4",
      "blockNumber": 76834,
      "transactionIndex": 0,
      "confirmations": null,
      "from": "0x6c341709A69F0D286ff289986ECd928bb3a51B7A",
      "gasPrice": {
        "_hex": "0x9184e72a000"
      },
      "gasLimit": {
        "_hex": "0x55f0"
      },
      "to": "0x2910543Af39abA0Cd09dBb2D50200b3E800A63D2",
      "value": {
        "_hex": "0xde0b6b3a7640000"
      },
      "nonce": 2,
      "data": "0x454e364d4445413730",
      "r": "0xbf42aba24b5886717d577613413a14308655ebf7411ff1d5ab560fa87cc4290f",
      "s": "0xcac993c4ac8c2ceebca47dc19a1647eb118d8702a93de6461bb111ddc3abc471",
      "v": 27,
      "creates": null,
      "raw": "0xf876028609184e72a0008255f0942910543af39aba0cd09dbb2d50200b3e800a63d2880de0b6b3a764000089454e364d44454137301ba0bf42aba24b5886717d577613413a14308655ebf7411ff1d5ab560fa87cc4290fa0cac993c4ac8c2ceebca47dc19a1647eb118d8702a93de6461bb111ddc3abc471",
      "networkId": 0,
      "chainId": 0
    }
  ]
}