{
  "hash": "0x4e0d87b3139a4b3f539ca026981678a1d221431b59e8c035466bc7d85727a445",
  "parentHash": "0xfc87ca8a93cee67f5dcf1ce8c7c1b83d180286cd9fac6a59a9d0b5c7949b0fcf",
  "number": 65679,
  "timestamp": 1439241126,
  "nonce": "0x07d8c0adecceaa09",
  "difficulty": 1933072728401,
  "gasLimit": {
    "_hex": "0x2fefd8"
  },
  "gasUsed": {
    "_hex": "0x5208"
  },
  "miner": "0x580992B51e3925e23280EfB93d3047C82f17E038",
  "extraData": "0x476574682f76312e302e312f6c696e75782f676f312e342e32",
  "transactions": [
    {
      "hash": "0x3fc934bcbdaa8bfdea88ef5a855b141a0228ba05e3d499abb601283bb9c79304",
      "blockHash": "0x4e0d87b3139a4b3f539ca026981678a1d221431b59e8c035466bc7d85727a445",
      "blockNumber": 65679,
      "transactionIndex": 0,
      "confirmations": null,
      "from": "0x120A270bbC009644e35F0bB6ab13f95b8199c4ad",
      "gasPrice": {
        "_hex": "0xdd22691db"
      },
      "gasLimit": {
        "_hex": "0x15f90"
      },
      "to": "0xA7822289A56eD0579b760724B56001c11CDC107E",
      "value": {
        "_hex": "0x410d586a20a4c0000"
      },
      "nonce": 131,
      "data": "0x",
      "r": "0x08e9033e1b22054f1de4bc020f875073ccb073af148c28a9e6598cb70765472d",
      "s": "0x6090aa6ffccae26a12be2053532f00a2e7d4edbc5af1e41922c2f36098be37ea",
      "v": 27,
      "creates": null,
      "raw": "0xf86f8183850dd22691db83015f9094a7822289a56ed0579b760724b56001c11cdc107e890410d586a20a4c0000801ba008e9033e1b22054f1de4bc020f875073ccb073af148c28a9e6598cb70765472da06090aa6ffccae26a12be2053532f00a2e7d4edbc5af1e41922c2f36098be37ea",
      "networkId": 0,
      "chainId": 0
    }
  ]
}