{
  "hash": "0x7baa1d6c4372ea22dfb3ce2172014306c7c30b539550743e99fee531301d999f",
  "parentHash": "0x5c28835b593eecb2a2ff247dce2c631f0c953adbe1809464371ebe861899be65",
  "number": 110436,
  "timestamp": 1439973804,
  "nonce": "0xb11b29db2e17ec55",
  "difficulty": 4373452671188,
  "gasLimit": {
    "_hex": "0x2fefd8"
  },
  "gasUsed": {
    "_hex": "0xf618"
  },
  "miner": "0xe6A7a1d47ff21B6321162AEA7C6CB457D5476Bca",
  "extraData": "0x476574682f76312e302e312d38326566323666362f6c696e75782f676f312e34",
  "transactions": [
    {
      "hash": "0x051f741994e4b24dceebb444cb3785d20a874776ddb4193fa99f553d60fbb861",
      "blockHash": "0x7baa1d6c4372ea22dfb3ce2172014306c7c30b539550743e99fee531301d999f",
      "blockNumber": 110436,
      "transactionIndex": 0,
      "confirmations": null,
      "from": "0x0f36D8B9254f1B059d0B4c4FeEceB82EE24a6180",
      "gasPrice": {
        "_hex": "0xcaca4c8da"
      },
      "gasLimit": {
        "_hex": "0x5208"
      },
      "to": "0x32Be343B94f860124dC4fEe278FDCBD38C102D88",
      "value": {
        "_hex": "0x2b078d37f8841800"
      },
      "nonce": 3,
      "data": "0x",
      "r": "0xc09f1565d3232098dcace1ad4551051884d92d2af4a2bdf3b034164b6764d58e",
      "s": "0x4089b8579892ca39c5cacfb669ba3d6fedb7a4b788fb95f8d033e6d91db5b437",
      "v": 28,
      "creates": null,
      "raw": "0xf86c03850caca4c8da8252089432be343b94f860124dc4fee278fdcbd38c102d88882b078d37f8841800801ca0c09f1565d3232098dcace1ad4551051884d92d2af4a2bdf3b034164b6764d58ea04089b8579892ca39c5cacfb669ba3d6fedb7a4b788fb95f8d033e6d91db5b437",
      "networkId": 0,
      "chainId": 0
    },
    {
      "hash": "0x6baba6e5f8b6df1a02cefba437c3311701a376419b8c3440e8fa940be7e6bfa8",
      "blockHash": "0x7baa1d6c4372ea22dfb3ce2172014306c7c30b539550743e99fee531301d999f",
      "blockNumber": 110436,
      "transactionIndex": 1,
      "confirmations": null,
      "from": "0xe535C1c29F0091324F184de7a5be5520D1b0b008",
      "gasPrice": {
        "_hex": "0xcaca4c8da"
      },
      "gasLimit": {
        "_hex": "0x5208"
      },
      "to": "0x32Be343B94f860124dC4fEe278FDCBD38C102D88",
      "value": {
        "_hex": "0x59762c0121bbf800"
      },
      "nonce": 6,
      "data": "0x",
      "r": "0x8237056aee4ed6e917986ab705bde8132e092716531ede9cf81c1cff82dcedb3",
      "s": "0x407123ad852ee6c1477668d12bb9c844109a0f6b58b752f53ecf9af12b025e50",
      "v": 27,
      "creates": null,
      "raw": "0xf86c06850caca4c8da8252089432be343b94f860124dc4fee278fdcbd38c102d888859762c0121bbf800801ba08237056aee4ed6e917986ab705bde8132e092716531ede9cf81c1cff82dcedb3a0407123ad852ee6c1477668d12bb9c844109a0f6b58b752f53ecf9af12b025e50",
      "networkId": 0,
      "chainId": 0
    },
    {
      "hash": "0xca010a852309e304929a972cc54c814605dd6c48022a57e9cfc49698a45d244f",
      "blockHash": "0x7baa1d6c4372ea22dfb3ce2172014306c7c30b539550743e99fee531301d999f",
      "blockNumber": 110436,
      "transactionIndex": 2,
      "confirmations": null,
      "from": "0x04a6c6a293340Fc3f2244D097b0CFD84d5317bA5",
      "gasPrice": {
        "_hex": "0xcaca4c8da"
      },
      "gasLimit": {
        "_hex": "0x5208"
      },
      "to": "0x32Be343B94f860124dC4fEe278FDCBD38C102D88",
      "value": {
        "_hex": "0x21b22407cb4842000"
      },
      "nonce": 5,
      "data": "0x",
      "r": "0x28384ab231c14f4e45c7aabacf12b77dd7bed1a004f26ccf6f64e6289a2d1bde",
      "s": "0x6e37118ba6ec15400fc56f9e842676974521a24b39043b2b3bfd5bfb09021a8a",
      "v": 27,
      "creates": null,
      "raw": "0xf86d05850caca4c8da8252089432be343b94f860124dc4fee278fdcbd38c102d8889021b22407cb4842000801ba028384ab231c14f4e45c7aabacf12b77dd7bed1a004f26ccf6f64e6289a2d1bdea06e37118ba6ec15400fc56f9e842676974521a24b39043b2b3bfd5bfb09021a8a",
      "networkId": 0,
      "chainId": 0
    }
  ]
}