{
  "hash": "0x83441147f46bb9076cee00fd8270742c8f7803106bf92da42fda2c94f6589f3e",
  "parentHash": "0xceb9bc7673d08ef2aababe0648c79266be5c8cc4f657236cbcfc97737cdbc675",
  "number": 108400,
  "timestamp": 1439939709,
  "nonce": "0xc0ea66d50247281c",
  "difficulty": 4323549642240,
  "gasLimit": {
    "_hex": "0x2fefd8"
  },
  "gasUsed": {
    "_hex": "0xf618"
  },
  "miner": "0xcAF987dC6DAcB89E1e6Eba13265426e7132E15db",
  "extraData": "0x476574682f76312e302e312f6c696e75782f676f312e342e32",
  "transactions": [
    {
      "hash": "0x91a2955ea8719c6af99e5265b2f5bde29fd374fcdd32b70843be7f77208940f5",
      "blockHash": "0x83441147f46bb9076cee00fd8270742c8f7803106bf92da42fda2c94f6589f3e",
      "blockNumber": 108400,
      "transactionIndex": 0,
      "confirmations": null,
      "from": "0x2910543Af39abA0Cd09dBb2D50200b3E800A63D2",
      "gasPrice": {
        "_hex": "0xd9aac5017"
      },
      "gasLimit": {
        "_hex": "0x5208"
      },
      "to": "0x5c59E28366c83f1d262567c1c529185146e68b16",
      "value": {
        "_hex": "0x25f261cfc47d8f8000"
      },
      "nonce": 1068,
      "data": "0x",
      "r": "0xc1487247e158621e8c40cd6279623a305a5b5a91f9a6be1611f91b944951745d",
      "s": "0x3117623b9090857fc9f3ed9542b0a0dd154eef841b0f696017163e686802f020",
      "v": 27,
      "creates": null,
      "raw": "0xf86f82042c850d9aac5017825208945c59e28366c83f1d262567c1c529185146e68b168925f261cfc47d8f8000801ba0c1487247e158621e8c40cd6279623a305a5b5a91f9a6be1611f91b944951745da03117623b9090857fc9f3ed9542b0a0dd154eef841b0f696017163e686802f020",
      "networkId": 0,
      "chainId": 0
    },
    {
      "hash": "0x00f208129ab7548e96fcc45b42beb5981a90bb63f280d48f127d7a0f1960cec1",
      "blockHash": "0x83441147f46bb9076cee00fd8270742c8f7803106bf92da42fda2c94f6589f3e",
      "blockNumber": 108400,
      "transactionIndex": 1,
      "confirmations": null,
      "from": "0x9BCDF86092d1cD705862b8343c7CFe1a9F20d6a6",
      "gasPrice": {
        "_hex": "0xba43b7400"
      },
      "gasLimit": {
        "_hex": "0x5208"
      },
      "to": "0xC47Aaa860008be6f65B58c6C6E02a84e666EfE31",
      "value": {
        "_hex": "0x2b1fd2881fcf5c000"
      },
      "nonce": 2,
      "data": "0x",
      "r": "0x772abbcf5929437e4de194a2a8c1119a9d1fe2ee2b1822cf5ede1a93852cb8c3",
      "s": "0x6cc6bf02f7ed6680bbd18ddaf6f58b1538daf02dae8f0529a604caa9652d7334",
      "v": 27,
      "creates": null,
      "raw": "0xf86d02850ba43b740082520894c47aaa860008be6f65b58c6c6e02a84e666efe318902b1fd2881fcf5c000801ba0772abbcf5929437e4de194a2a8c1119a9d1fe2ee2b1822cf5ede1a93852cb8c3a06cc6bf02f7ed6680bbd18ddaf6f58b1538daf02dae8f0529a604caa9652d7334",
      "networkId": 0,
      "chainId": 0
    },
    {
      "hash": "0x92723a3c5e0a25f6d111df9c9423c1ee9b526a6995ea9c9f85566767413e42d6",
      "blockHash": "0x83441147f46bb9076cee00fd8270742c8f7803106bf92da42fda2c94f6589f3e",
      "blockNumber": 108400,
      "transactionIndex": 2,
      "confirmations": null,
      "from": "0xEdD03B3afA58aaE8C5732fF58e26099bc5C10659",
      "gasPrice": {
        "_hex": "0xba43b7400"
      },
      "gasLimit": {
        "_hex": "0x5208"
      },
      "to": "0xC47Aaa860008be6f65B58c6C6E02a84e666EfE31",
      "value": {
        "_hex": "0xbdbc2c61c326535a10"
      },
      "nonce": 6,
      "data": "0x",
      "r": "0xad63588f390872acd1b092e9864503ada93312a6435a0dc0e06231c92a29dfd1",
      "s": "0x67e8fe162c111e8736557f501de764856c6d89b47f2d84f48f92c1ba0d1d5afc",
      "v": 27,
      "creates": null,
      "raw": "0xf86d06850ba43b740082520894c47aaa860008be6f65b58c6c6e02a84e666efe3189bdbc2c61c326535a10801ba0ad63588f390872acd1b092e9864503ada93312a6435a0dc0e06231c92a29dfd1a067e8fe162c111e8736557f501de764856c6d89b47f2d84f48f92c1ba0d1d5afc",
      "networkId": 0,
      "chainId": 0
    }
  ]
}