{
  "hash": "0xc536f24fa37e7964c24826fc63fe2e98d6185a00a0391549abc6b82505022fce",
  "parentHash": "0x6386878210d4732e6d7f3b1fde175bdade9fe827f75453580d091a311b3a63d8",
  "number": 78754,
  "timestamp": 1439458763,
  "nonce": "0x625e4536d6ad91c6",
  "difficulty": 2308854225953,
  "gasLimit": {
    "_hex": "0x2fefd8"
  },
  "gasUsed": {
    "_hex": "0x5208"
  },
  "miner": "0xe6A7a1d47ff21B6321162AEA7C6CB457D5476Bca",
  "extraData": "0x476574682f76312e302e312d38326566323666362f6c696e75782f676f312e34",
  "transactions": [
    {
      "hash": "0xe9037035f89e7f0d8bebf04b6ad6f6a28ee03bd94eb3d2eb2388286ecbe42fbf",
      "blockHash": "0xc536f24fa37e7964c24826fc63fe2e98d6185a00a0391549abc6b82505022fce",
      "blockNumber": 78754,
      "transactionIndex": 0,
      "confirmations": null,
      "from": "0x32Be343B94f860124dC4fEe278FDCBD38C102D88",
      "gasPrice": {
        "_hex": "0xcce57ff61"
      },
      "gasLimit": {
        "_hex": "0x5208"
      },
      "to": "0xE54C51118A2Cc163BC4BDb7C653Ab45Fc179d928",
      "value": {
        "_hex": "0xf7c350a0f14b2000"
      },
      "nonce": 400,
      "data": "0x",
      "r": "0x1aeab915a4bcb9baad35b1459e11f223c6b8d6f8991b26e150dbe737f9c5fd17",
      "s": "0x6cdeae3e3d021818b685fae31f79ecf511e459f33057b1b728d958b190f7fc5e",
      "v": 28,
      "creates": null,
      "raw": "0xf86e820190850cce57ff6182520894e54c51118a2cc163bc4bdb7c653ab45fc179d92888f7c350a0f14b2000801ca01aeab915a4bcb9baad35b1459e11f223c6b8d6f8991b26e150dbe737f9c5fd17a06cdeae3e3d021818b685fae31f79ecf511e459f33057b1b728d958b190f7fc5e",
      "networkId": 0,
      "chainId": 0
    }
  ]
}