{
  "hash": "0x36b580a7fa1192d9260f018d619eabec39b3196f63810f8ca057534bb975db8d",
  "parentHash": "0x472bb2f6a14fee013ab86af6ed6cd256cfefd8f20d313afdc4a71c477b5b8e2a",
  "number": 120514,
  "timestamp": 1440161145,
  "nonce": "0xf27de6b06081e918",
  "difficulty": 4415378580541,
  "gasLimit": {
    "_hex": "0x2fefd8"
  },
  "gasUsed": {
    "_hex": "0xa410"
  },
  "miner": "0xe6A7a1d47ff21B6321162AEA7C6CB457D5476Bca",
  "extraData": "0xd783010002844765746887676f312e342e32856c696e7578",
  "transactions": [
    {
      "hash": "0xbb93931567822fef5d62695f574731c53f806f0f91fc38c9ce666058bd7dfe9a",
      "blockHash": "0x36b580a7fa1192d9260f018d619eabec39b3196f63810f8ca057534bb975db8d",
      "blockNumber": 120514,
      "transactionIndex": 0,
      "confirmations": null,
      "from": "0x55fF6bc667434eF42bF351EDE43e80604868f44A",
      "gasPrice": {
        "_hex": "0xba43b7400"
      },
      "gasLimit": {
        "_hex": "0x5208"
      },
      "to": "0x32Be343B94f860124dC4fEe278FDCBD38C102D88",
      "value": {
        "_hex": "0x16c0b16dea1a3c00"
      },
      "nonce": 0,
      "data": "0x",
      "r": "0xb5115e49205757e8c17f4e26fb56f50957753c934c7b0b82cca8e7dc9b5373fa",
      "s": "0x654e0aa1c1048a56ba2f88c3bda2bea65327815f93f2950b81a9e35ccebe449e",
      "v": 27,
      "creates": null,
      "raw": "0xf86c80850ba43b74008252089432be343b94f860124dc4fee278fdcbd38c102d888816c0b16dea1a3c00801ba0b5115e49205757e8c17f4e26fb56f50957753c934c7b0b82cca8e7dc9b5373faa0654e0aa1c1048a56ba2f88c3bda2bea65327815f93f2950b81a9e35ccebe449e",
      "networkId": 0,
      "chainId": 0
    },
    {
      "hash": "0x3999e5a3b7fbc18e6e5d1ee1036299f1b69befc94ac645b60fbe65ffdfefca8f",
      "blockHash": "0x36b580a7fa1192d9260f018d619eabec39b3196f63810f8ca057534bb975db8d",
      "blockNumber": 120514,
      "transactionIndex": 1,
      "confirmations": null,
      "from": "0x2f982922411a39C79BCD2D293Ca79cf7A9A37313",
      "gasPrice": {
        "_hex": "0xba43b7400"
      },
      "gasLimit": {
        "_hex": "0x5208"
      },
      "to": "0x32Be343B94f860124dC4fEe278FDCBD38C102D88",
      "value": {
        "_hex": "0x1b09f0d0027c1400"
      },
      "nonce": 2,
      "data": "0x",
      "r": "0x7cac51be2b6a196463591a7020b64b05088cef41a6fc7fd63b3ce6b3ea7c8377",
      "s": "0x789aff460829e235124332bf86df10a874fd0772a8647813c826b6dc60e52d4d",
      "v": 27,
      "creates": null,
      "raw": "0xf86c02850ba43b74008252089432be343b94f860124dc4fee278fdcbd38c102d88881b09f0d0027c1400801ba07cac51be2b6a196463591a7020b64b05088cef41a6fc7fd63b3ce6b3ea7c8377a0789aff460829e235124332bf86df10a874fd0772a8647813c826b6dc60e52d4d",
      "networkId": 0,
      "chainId": 0
    }
  ]
}