{
  "hash": "0x45fcc1166d2621984a361b75d8e849fbdaf8bd0f18e81b602f29dd4f5789b606",
  "parentHash": "0x1cb039e851f80c706d8b542e1b7dcd9d4b35861eca7dd47ac3d54dd3cf9b7728",
  "number": 59912,
  "timestamp": 1439145708,
  "nonce": "0x20679ff14c47f61a",
  "difficulty": 1731448690950,
  "gasLimit": {
    "_hex": "0x2fefd8"
  },
  "gasUsed": {
    "_hex": "0x5208"
  },
  "miner": "0xEF247E639d49461D25F57e9362CadE3120910Ce0",
  "extraData": "0x476574682f76312e302e312f6c696e75782f676f312e342e32",
  "transactions": [
    {
      "hash": "0x4d8c469507f07ad1937e1f8c09f1473a011ffaa7bb2520e1df7b1f132f26b642",
      "blockHash": "0x45fcc1166d2621984a361b75d8e849fbdaf8bd0f18e81b602f29dd4f5789b606",
      "blockNumber": 59912,
      "transactionIndex": 0,
      "confirmations": null,
      "from": "0x008B1D771AF0dCFd83C30D9D93f3B83CdF18BebA",
      "gasPrice": {
        "_hex": "0xba43b7400"
      },
      "gasLimit": {
        "_hex": "0x5b04"
      },
      "to": "0x007BD728B55C3996674AB14C5D6DCEb5727b7013",
      "value": {
        "_hex": "0x3"
      },
      "nonce": 2,
      "data": "0x",
      "r": "0xfc9aa68b1158a3e8a12739db7f9f52939148bcf775a062743a5bf8ebf6ec2cb8",
      "s": "0x0468f134bd7be47e888fa452595728b08413df5144e8354c33a8a126ba55170d",
      "v": 28,
      "creates": null,
      "raw": "0xf86402850ba43b7400825b0494007bd728b55c3996674ab14c5d6dceb5727b701303801ca0fc9aa68b1158a3e8a12739db7f9f52939148bcf775a062743a5bf8ebf6ec2cb8a00468f134bd7be47e888fa452595728b08413df5144e8354c33a8a126ba55170d",
      "networkId": 0,
      "chainId": 0
    }
  ]
}