{
  "hash": "0x563aac6a06c9f74a1429ad46bce501e9ae0f89a780f12e7a48ec4c7ceeb430b2",
  "parentHash": "0x4334af49632d9589fd41c6576a5e1b825f8d4461369795ec2d594ccf4cc0d5d9",
  "number": 101905,
  "timestamp": 1439829831,
  "nonce": "0x643f02ed326427f8",
  "difficulty": 3895688889099,
  "gasLimit": {
    "_hex": "0x2fefd8"
  },
  "gasUsed": {
    "_hex": "0x5208"
  },
  "miner": "0xe6A7a1d47ff21B6321162AEA7C6CB457D5476Bca",
  "extraData": "0x476574682f76312e302e312d38326566323666362f6c696e75782f676f312e34",
  "transactions": [
    {
      "hash": "0x74607685c872a118aa1fdb2c71c8abdf0b10dd738570e4e46544ff6579eafc58",
      "blockHash": "0x563aac6a06c9f74a1429ad46bce501e9ae0f89a780f12e7a48ec4c7ceeb430b2",
      "blockNumber": 101905,
      "transactionIndex": 0,
      "confirmations": null,
      "from": "0x8Ad679342135277c2db3e0e469CE16c34367Ad88",
      "gasPrice": {
        "_hex": "0xceb5d9272"
      },
      "gasLimit": {
        "_hex": "0x5208"
      },
      "to": "0x32Be343B94f860124dC4fEe278FDCBD38C102D88",
      "value": {
        "_hex": "0x20f56fade9c790000"
      },
      "nonce": 0,
      "data": "0x",
      "r": "0x0558dab6c1a4bf3eb8b1013acc7e2de64234c8a1a1011d5680bdee21c74f70eb",
      "s": "0x1b018eb068de4fba9245e315978615eeb7d83d2cf4b2e736b5e001b50d38c12e",
      "v": 28,
      "creates": null,
      "raw": "0xf86d80850ceb5d92728252089432be343b94f860124dc4fee278fdcbd38c102d8889020f56fade9c790000801ca00558dab6c1a4bf3eb8b1013acc7e2de64234c8a1a1011d5680bdee21c74f70eba01b018eb068de4fba9245e315978615eeb7d83d2cf4b2e736b5e001b50d38c12e",
      "networkId": 0,
      "chainId": 0
    }
  ]
}