{
  "hash": "0x9e5923ea57d0f23a18242197b39dab3bbb9774bb3cdb49c14148b1955943e7ac",
  "parentHash": "0x59428daaf2de7134d9fc2e18bf664c3e2279f756bd94517812c2f04ef5fffc8b",
  "number": 78714,
  "timestamp": 1439458061,
  "nonce": "0x73c9a3e70c9e2f7f",
  "difficulty": 2302110880209,
  "gasLimit": {
    "_hex": "0x2fefd8"
  },
  "gasUsed": {
    "_hex": "0x5208"
  },
  "miner": "0xe6A7a1d47ff21B6321162AEA7C6CB457D5476Bca",
  "extraData": "0x476574682f76312e302e312d38326566323666362f6c696e75782f676f312e34",
  "transactions": [
    {
      "hash": "0x4ddc9fbb8473b73484fd3fdab099a48562390202cec79c2cd7899c8e3691c966",
      "blockHash": "0x9e5923ea57d0f23a18242197b39dab3bbb9774bb3cdb49c14148b1955943e7ac",
      "blockNumber": 78714,
      "transactionIndex": 0,
      "confirmations": null,
      "from": "0x3ceB9174a9C01f17aB66035Fe81df3bDda3Baa2e",
      "gasPrice": {
        "_hex": "0x1166150f60c"
      },
      "gasLimit": {
        "_hex": "0x15f90"
      },
      "to": "0x315260950914163880F3AD5A7FEEC87407fa4868",
      "value": {
        "_hex": "0x18fae27693b40000"
      },
      "nonce": 0,
      "data": "0x",
      "r": "0xc703d3ac049e8c50c215927f773e70ca3e4ad6d9ac46e6eb86ca472f0b05379d",
      "s": "0x06bb977133eee08ce35d4c4a4dd505611bb9138f1960ed5fedfe1a9e58e40ff8",
      "v": 27,
      "creates": null,
      "raw": "0xf86e808601166150f60c83015f9094315260950914163880f3ad5a7feec87407fa48688818fae27693b40000801ba0c703d3ac049e8c50c215927f773e70ca3e4ad6d9ac46e6eb86ca472f0b05379da006bb977133eee08ce35d4c4a4dd505611bb9138f1960ed5fedfe1a9e58e40ff8",
      "networkId": 0,
      "chainId": 0
    }
  ]
}