{
  "hash": "0xd62341cf86970e3a3d91bb4b35edbad827fb7af8315644821588c9bb984b3c91",
  "parentHash": "0x5f67f827bfaef415011ca2c35e18efc0ccdee4928fc457808f64eb26f6f8f957",
  "number": 72162,
  "timestamp": 1439348303,
  "nonce": "0x3bf73d32ed829b0c",
  "difficulty": 2174916653035,
  "gasLimit": {
    "_hex": "0x2fefd8"
  },
  "gasUsed": {
    "_hex": "0x1f134"
  },
  "miner": "0x88D74a59454F6cF3B51ef6b9136AFb6b9D405A88",
  "extraData": "0x476574682f76312e302e312d37666266393930632f6c696e75782f676f312e34",
  "transactions": [
    {
      "hash": "0x73c0620c4e3275cdd3db63980a405ad2aa72edcfca1e71e9b9487792dad15e62",
      "blockHash": "0xd62341cf86970e3a3d91bb4b35edbad827fb7af8315644821588c9bb984b3c91",
      "blockNumber": 72162,
      "transactionIndex": 0,
      "confirmations": null,
      "from": "0x17580B766f7453525ca4C6A88b01b50570EA088C",
      "gasPrice": {
        "_hex": "0xd8fb9790a"
      },
      "gasLimit": {
        "_hex": "0x61a80"
      },
      "to": "0x5Fe5B7546D1628f7348B023A0393de1FC825A4fD",
      "value": {
        "_hex": "0x53444835ec580000"
      },
      "nonce": 335,
      "data": "0xb595b8b50000000000000000000000000000000000000000000000000000000000000001",
      "r": "0x46e22b09ceb09f835dfc5f41542bb6044d2cfc73185ba6949865a175c1168a34",
      "s": "0x159c1afed4b934885621d2ac442fa79a72269d97afdd34802cf6963499f17384",
      "v": 27,
      "creates": null,
      "raw": "0xf89382014f850d8fb9790a83061a80945fe5b7546d1628f7348b023a0393de1fc825a4fd8853444835ec580000a4b595b8b500000000000000000000000000000000000000000000000000000000000000011ba046e22b09ceb09f835dfc5f41542bb6044d2cfc73185ba6949865a175c1168a34a0159c1afed4b934885621d2ac442fa79a72269d97afdd34802cf6963499f17384",
      "networkId": 0,
      "chainId": 0
    },
    {
      "hash": "0xc24bce59592725a7bccaacf49e48b1421823da25b87df412ef78e99d3ce58dc8",
      "blockHash": "0xd62341cf86970e3a3d91bb4b35edbad827fb7af8315644821588c9bb984b3c91",
      "blockNumber": 72162,
      "transactionIndex": 1,
      "confirmations": null,
      "from": "0x17580B766f7453525ca4C6A88b01b50570EA088C",
      "gasPrice": {
        "_hex": "0xd8fb9790a"
      },
      "gasLimit": {
        "_hex": "0x61a80"
      },
      "to": "0x5Fe5B7546D1628f7348B023A0393de1FC825A4fD",
      "value": {
        "_hex": "0x8ac7230489e80000"
      },
      "nonce": 336,
      "data": "0xb595b8b50000000000000000000000000000000000000000000000000000000000000001",
      "r": "0xfe7765297907bf5fccf8ea8c1869055c38d65d3dde03346ce886990c4dcd7843",
      "s": "0x06db657b98b7055164e5592733e94ec3deb57eb42d23750dabfc0f35fff40c36",
      "v": 27,
      "creates": null,
      "raw": "0xf893820150850d8fb9790a83061a80945fe5b7546d1628f7348b023a0393de1fc825a4fd888ac7230489e80000a4b595b8b500000000000000000000000000000000000000000000000000000000000000011ba0fe7765297907bf5fccf8ea8c1869055c38d65d3dde03346ce886990c4dcd7843a006db657b98b7055164e5592733e94ec3deb57eb42d23750dabfc0f35fff40c36",
      "networkId": 0,
      "chainId": 0
    },
    {
      "hash": "0xc622d883cc6a08ca2a171242184189ee4959887839a07e4ad531cf4c99dd6d33",
      "blockHash": "0xd62341cf86970e3a3d91bb4b35edbad827fb7af8315644821588c9bb984b3c91",
      "blockNumber": 72162,
      "transactionIndex": 2,
      "confirmations": null,
      "from": "0x17580B766f7453525ca4C6A88b01b50570EA088C",
      "gasPrice": {
        "_hex": "0xd6ca8fb5f"
      },
      "gasLimit": {
        "_hex": "0x61a80"
      },
      "to": "0x5Fe5B7546D1628f7348B023A0393de1FC825A4fD",
      "value": {
        "_hex": "0x6124fee993bc0000"
      },
      "nonce": 337,
      "data": "0xb595b8b50000000000000000000000000000000000000000000000000000000000000000",
      "r": "0x54832111ceae234762288a9441aa06111eda25b206c7836f3445f9a0581e06f9",
      "s": "0x58d9b82988de13d15d0f02acfe33fbc33d8ab6567182861a16a7134966835dde",
      "v": 28,
      "creates": null,
      "raw": "0xf893820151850d6ca8fb5f83061a80945fe5b7546d1628f7348b023a0393de1fc825a4fd886124fee993bc0000a4b595b8b500000000000000000000000000000000000000000000000000000000000000001ca054832111ceae234762288a9441aa06111eda25b206c7836f3445f9a0581e06f9a058d9b82988de13d15d0f02acfe33fbc33d8ab6567182861a16a7134966835dde",
      "networkId": 0,
      "chainId": 0
    }
  ]
}