{
  "hash": "0x981c64ce415e951c75abc415a907209f0aca30742eab0d71634619e373fe8704",
  "parentHash": "0x7aaefa0cf7ec544831c181b606811ac940f771821b3f28f4e75c0ebd7be77af1",
  "number": 46726,
  "timestamp": 1438928224,
  "nonce": "0x6764317fc50b5f0c",
  "difficulty": 1451788081768,
  "gasLimit": {
    "_hex": "0x749d"
  },
  "gasUsed": {
    "_hex": "0x5208"
  },
  "miner": "0x87cD3b7f4DBBFE553DB92Ac1C97c6C24231c5D26",
  "extraData": "0x476574682f76312e302e302f6c696e75782f676f312e342e32",
  "transactions": [
    {
      "hash": "0x68d4a64d9b1adba5f4ce0224e32a7365e967793bb0126df2c64cdf45b8add09e",
      "blockHash": "0x981c64ce415e951c75abc415a907209f0aca30742eab0d71634619e373fe8704",
      "blockNumber": 46726,
      "transactionIndex": 0,
      "confirmations": null,
      "from": "0x0cDA12BF72d461BBc479eB92e6491d057e6B5Ad1",
      "gasPrice": {
        "_hex": "0x68c6171400"
      },
      "gasLimit": {
        "_hex": "0x55f0"
      },
      "to": "0x8DdA5E016e674683241bF671cCeD51e7239EA2bC",
      "value": {
        "_hex": "0x3635c9adc5dea00000"
      },
      "nonce": 7,
      "data": "0x",
      "r": "0x15fe4f1298bb25b151e8724aa87dd74f22182d5b6324ae2b2c41c683d091fd38",
      "s": "0x4b96b70d476771b48dbe07c18880b45f9ac6d51c1a65537e8513b7e9f71dc9bd",
      "v": 27,
      "creates": null,
      "raw": "0xf86d078568c61714008255f0948dda5e016e674683241bf671cced51e7239ea2bc893635c9adc5dea00000801ba015fe4f1298bb25b151e8724aa87dd74f22182d5b6324ae2b2c41c683d091fd38a04b96b70d476771b48dbe07c18880b45f9ac6d51c1a65537e8513b7e9f71dc9bd",
      "networkId": 0,
      "chainId": 0
    }
  ]
}