{
  "hash": "0x256d22c582715d77f7c90d25dc81d3f16176e5fc0a38f937589012c567b7feb0",
  "parentHash": "0x93464bb0ae5ad6dbb26b192aa9b742619c18df518b6a4c7fc474f03256484828",
  "number": 66379,
  "timestamp": 1439253677,
  "nonce": "0x4ce7d253d3de9f48",
  "difficulty": 1934799957900,
  "gasLimit": {
    "_hex": "0x2fefd8"
  },
  "gasUsed": {
    "_hex": "0x5208"
  },
  "miner": "0x9D49F602b0fdb924Bd63DDE2Bd0907E4A07c63a7",
  "extraData": "0x476574682f76312e302e312f6c696e75782f676f312e342e32",
  "transactions": [
    {
      "hash": "0x4ccf2f2f721e15704cadd9f3946626d62877606304ef68c09fe9773be6156821",
      "blockHash": "0x256d22c582715d77f7c90d25dc81d3f16176e5fc0a38f937589012c567b7feb0",
      "blockNumber": 66379,
      "transactionIndex": 0,
      "confirmations": null,
      "from": "0xc8ebccC5F5689Fa8659d83713341e5aD19349448",
      "gasPrice": {
        "_hex": "0xcfc13f3fb"
      },
      "gasLimit": {
        "_hex": "0x15f90"
      },
      "to": "0x7d0D6EeD5F643Be25a49604Ef142AD987265D14C",
      "value": {
        "_hex": "0x3635c9adc5dea00000"
      },
      "nonce": 32,
      "data": "0x",
      "r": "0xf5927c9ce664d5923b48a9f75a357e0e62f02114a48a095602b0070222f6ccc7",
      "s": "0x7aafe23fa85d02e6ddb524d3b40cd6dfbaad58c036c1a86c635b2975a4739279",
      "v": 27,
      "creates": null,
      "raw": "0xf86e20850cfc13f3fb83015f90947d0d6eed5f643be25a49604ef142ad987265d14c893635c9adc5dea00000801ba0f5927c9ce664d5923b48a9f75a357e0e62f02114a48a095602b0070222f6ccc7a07aafe23fa85d02e6ddb524d3b40cd6dfbaad58c036c1a86c635b2975a4739279",
      "networkId": 0,
      "chainId": 0
    }
  ]
}