{
  "hash": "0x4cb13d6eb47cb900f183a7672a38b24f0d62c9d8ec94a5a55b691f5158cc1474",
  "parentHash": "0x9cab360c3a4b59ab88be267228b9c4045ee7c941367e2fdc03d137d7e88ebb3c",
  "number": 106641,
  "timestamp": 1439907941,
  "nonce": "0x84341b4a2bc5048a",
  "difficulty": 4468269855729,
  "gasLimit": {
    "_hex": "0x2fefd8"
  },
  "gasUsed": {
    "_hex": "0x5208"
  },
  "miner": "0xe6A7a1d47ff21B6321162AEA7C6CB457D5476Bca",
  "extraData": "0x476574682f76312e302e312d38326566323666362f6c696e75782f676f312e34",
  "transactions": [
    {
      "hash": "0x8b5b7699719f9c80329b6b1795b5b5d1fd16dc7968a35e5c18c906208e3a40a9",
      "blockHash": "0x4cb13d6eb47cb900f183a7672a38b24f0d62c9d8ec94a5a55b691f5158cc1474",
      "blockNumber": 106641,
      "transactionIndex": 0,
      "confirmations": null,
      "from": "0x2910543Af39abA0Cd09dBb2D50200b3E800A63D2",
      "gasPrice": {
        "_hex": "0xcbaa30139"
      },
      "gasLimit": {
        "_hex": "0x5208"
      },
      "to": "0x645B979F8ce622236DB26feB803455d40C328615",
      "value": {
        "_hex": "0x6c6b819812855f8000"
      },
      "nonce": 1037,
      "data": "0x",
      "r": "0x067bc00bef4301e4eb9201396744775f11c067c400232bcff325f487dec341f6",
      "s": "0x06df5152a1d93ad94964ce0ed46cf40413404b44b84efc16058b6d50eb06bb57",
      "v": 28,
      "creates": null,
      "raw": "0xf86f82040d850cbaa3013982520894645b979f8ce622236db26feb803455d40c328615896c6b819812855f8000801ca0067bc00bef4301e4eb9201396744775f11c067c400232bcff325f487dec341f6a006df5152a1d93ad94964ce0ed46cf40413404b44b84efc16058b6d50eb06bb57",
      "networkId": 0,
      "chainId": 0
    }
  ]
}