{
  "hash": "0x6d82e848da07165c035b043c224ab5938ac6092ab95789e1d1502bd0d58715a3",
  "parentHash": "0x1eeb9a021ec30165419ed7a87a50fd2417a09ea3fb5d02ed735899a4838a5ed2",
  "number": 68457,
  "timestamp": 1439288230,
  "nonce": "0x4d786bc2c33758d8",
  "difficulty": 2005491240826,
  "gasLimit": {
    "_hex": "0x2fefd8"
  },
  "gasUsed": {
    "_hex": "0x12ea94"
  },
  "miner": "0xf927a40C8B7F6E07c5af7FA2155B4864a4112B13",
  "extraData": "0x",
  "transactions": [
    {
      "hash": "0x495127633602b7d47bb14605e7072712b02de79a8cda83354a0709d5d1b5aea3",
      "blockHash": "0x6d82e848da07165c035b043c224ab5938ac6092ab95789e1d1502bd0d58715a3",
      "blockNumber": 68457,
      "transactionIndex": 0,
      "confirmations": null,
      "from": "0xbf6b18A58F285D6d0B956174B0dADcacB1345a45",
      "gasPrice": {
        "_hex": "0xba43b7400"
      },
      "gasLimit": {
        "_hex": "0x15f90"
      },
      "to": "0x793AE8C1b1a160BFc07BFB0d04F85eab1A71F4f2",
      "value": {
        "_hex": "0x0"
      },
      "nonce": 0,
      "data": "0x3ba15036",
      "r": "0x31eb74bf34410b56a0b1be580098d3695334fa1ece852fef504ee0b2e8f48adc",
      "s": "0x63c6ecff6416601dc89460fa533c0c6222abc09a6c7583c6ca996eed9ddb2a27",
      "v": 27,
      "creates": null,
      "raw": "0xf86980850ba43b740083015f9094793ae8c1b1a160bfc07bfb0d04f85eab1a71f4f280843ba150361ba031eb74bf34410b56a0b1be580098d3695334fa1ece852fef504ee0b2e8f48adca063c6ecff6416601dc89460fa533c0c6222abc09a6c7583c6ca996eed9ddb2a27",
      "networkId": 0,
      "chainId": 0
    },
    {
      "hash": "0x9484cbbafc9b813766ab0712473ba949043579c66fc6cf8bf89b9f6a317e752a",
      "blockHash": "0x6d82e848da07165c035b043c224ab5938ac6092ab95789e1d1502bd0d58715a3",
      "blockNumber": 68457,
      "transactionIndex": 1,
      "confirmations": null,
      "from": "0xa8316dD9FBD2aC9B415252836B1Bf1E64a3f7A6e",
      "gasPrice": {
        "_hex": "0xba43b7400"
      },
      "gasLimit": {
        "_hex": "0x15f90"
      },
      "to": "0x793AE8C1b1a160BFc07BFB0d04F85eab1A71F4f2",
      "value": {
        "_hex": "0x0"
      },
      "nonce": 0,
      "data": "0x3ba15036",
      "r": "0x566e6060bded6aec5cd302a0fe4b15f17afa39bd0ea9a157116df107e5915598",
      "s": "0x2d916b6ac15e5cb6e69d2c492bcb87f0b6d7def3ed53ea6664cf901bd46e5bc9",
      "v": 27,
      "creates": null,
      "raw": "0xf86980850ba43b740083015f9094793ae8c1b1a160bfc07bfb0d04f85eab1a71f4f280843ba150361ba0566e6060bded6aec5cd302a0fe4b15f17afa39bd0ea9a157116df107e5915598a02d916b6ac15e5cb6e69d2c492bcb87f0b6d7def3ed53ea6664cf901bd46e5bc9",
      "networkId": 0,
      "chainId": 0
    },
    {
      "hash": "0x127e596a2a2ba2b81e5df252d7c74743ccc1711b173d3a2f3927e6fcb984c59d",
      "blockHash": "0x6d82e848da07165c035b043c224ab5938ac6092ab95789e1d1502bd0d58715a3",
      "blockNumber": 68457,
      "transactionIndex": 2,
      "confirmations": null,
      "from": "0xd4734B436fF64EEd5A07a71bC9253a4468B63779",
      "gasPrice": {
        "_hex": "0xba43b7400"
      },
      "gasLimit": {
        "_hex": "0x15f90"
      },
      "to": "0x793AE8C1b1a160BFc07BFB0d04F85eab1A71F4f2",
      "value": {
        "_hex": "0x0"
      },
      "nonce": 0,
      "data": "0x3ba15036",
      "r": "0xc9284b3b5fbb48ab893c9e0a3aa9473967b3c899a4f77ae7bd28bb74ed15e2ce",
      "s": "0x1ba07e3d0c60121986db32aee10a491442682576a6c4ef230e9ce38db07e5f73",
      "v": 27,
      "creates": null,
      "raw": "0xf86980850ba43b740083015f9094793ae8c1b1a160bfc07bfb0d04f85eab1a71f4f280843ba150361ba0c9284b3b5fbb48ab893c9e0a3aa9473967b3c899a4f77ae7bd28bb74ed15e2cea01ba07e3d0c60121986db32aee10a491442682576a6c4ef230e9ce38db07e5f73",
      "networkId": 0,
      "chainId": 0
    },
    {
      "hash": "0x752898cc6376fa63d6538820e718b1013fda0ac6fdbfadb974716e2047f6eeb6",
      "blockHash": "0x6d82e848da07165c035b043c224ab5938ac6092ab95789e1d1502bd0d58715a3",
      "blockNumber": 68457,
      "transactionIndex": 3,
      "confirmations": null,
      "from": "0xbC6284349e527B59AB4921FBD85952c81aff8c53",
      "gasPrice": {
        "_hex": "0xba43b7400"
      },
      "gasLimit": {
        "_hex": "0x15f90"
      },
      "to": "0x793AE8C1b1a160BFc07BFB0d04F85eab1A71F4f2",
      "value": {
        "_hex": "0x0"
      },
      "nonce": 0,
      "data": "0x3ba15036",
      "r": "0xfc26fd8f736e3cb02dfbbff90f2563c84eb50dce0aad245bec5c4f0a4f62e429",
      "s": "0x196c56126d7fc2f5b9b1b183d4af287d3a6a603ed8f9e2df4a0bc25b49ebe18c",
      "v": 28,
      "creates": null,
      "raw": "0xf86980850ba43b740083015f9094793ae8c1b1a160bfc07bfb0d04f85eab1a71f4f280843ba150361ca0fc26fd8f736e3cb02dfbbff90f2563c84eb50dce0aad245bec5c4f0a4f62e429a0196c56126d7fc2f5b9b1b183d4af287d3a6a603ed8f9e2df4a0bc25b49ebe18c",
      "networkId": 0,
      "chainId": 0
    },
    {
      "hash": "0x113f22a4d3721642ca2cc8e0e3397346598855dbd86fe6cf2e101dd3e347c281",
      "blockHash": "0x6d82e848da07165c035b043c224ab5938ac6092ab95789e1d1502bd0d58715a3",
      "blockNumber": 68457,
      "transactionIndex": 4,
      "confirmations": null,
      "from": "0x1D5282F3268F55e424Ec8088E19C20fEd8a6BA8f",
      "gasPrice": {
        "_hex": "0xba43b7400"
      },
      "gasLimit": {
        "_hex": "0x15f90"
      },
      "to": "0x793AE8C1b1a160BFc07BFB0d04F85eab1A71F4f2",
      "value": {
        "_hex": "0x0"
      },
      "nonce": 0,
      "data": "0x3ba15036",
      "r": "0x95948f0d34705d902eaa1146a3ca37f61126e185c3188836b7a5b31eac69fdc7",
      "s": "0x24a6be148f0aae07e27330d685835a188e3f19e924a90be81dd09591ffc638f8",
      "v": 27,
      "creates": null,
      "raw": "0xf86980850ba43b740083015f9094793ae8c1b1a160bfc07bfb0d04f85eab1a71f4f280843ba150361ba095948f0d34705d902eaa1146a3ca37f61126e185c3188836b7a5b31eac69fdc7a024a6be148f0aae07e27330d685835a188e3f19e924a90be81dd09591ffc638f8",
      "networkId": 0,
      "chainId": 0
    },
    {
      "hash": "0x88cf93937815fe74b9b629d42fed9b4ad18fc2c6a863bf178fb4fbe043d241bc",
      "blockHash": "0x6d82e848da07165c035b043c224ab5938ac6092ab95789e1d1502bd0d58715a3",
      "blockNumber": 68457,
      "transactionIndex": 5,
      "confirmations": null,
      "from": "0x8e112dA551CD42CA3Aac8925BB7b8c39886C6f91",
      "gasPrice": {
        "_hex": "0xba43b7400"
      },
      "gasLimit": {
        "_hex": "0x15f90"
      },
      "to": "0x793AE8C1b1a160BFc07BFB0d04F85eab1A71F4f2",
      "value": {
        "_hex": "0x0"
      },
      "nonce": 0,
      "data": "0x3ba15036",
      "r": "0x9001e48a9a906d4f4fa3bf2224959d7a269d41770d78cd58cf91da9aa23c001d",
      "s": "0x230788c8d42d4aee855b9e6b2de06036707a9d62f9ed708932ded711266ee4ee",
      "v": 28,
      "creates": null,
      "raw": "0xf86980850ba43b740083015f9094793ae8c1b1a160bfc07bfb0d04f85eab1a71f4f280843ba150361ca09001e48a9a906d4f4fa3bf2224959d7a269d41770d78cd58cf91da9aa23c001da0230788c8d42d4aee855b9e6b2de06036707a9d62f9ed708932ded711266ee4ee",
      "networkId": 0,
      "chainId": 0
    },
    {
      "hash": "0x450c226fdeeeb6aa4c516666ce4169d8a9019262645d09f2c824462728a35b90",
      "blockHash": "0x6d82e848da07165c035b043c224ab5938ac6092ab95789e1d1502bd0d58715a3",
      "blockNumber": 68457,
      "transactionIndex": 6,
      "confirmations": null,
      "from": "0x1BB642153E58868541e62d4027BbefcE5F44e409",
      "gasPrice": {
        "_hex": "0xba43b7400"
      },
      "gasLimit": {
        "_hex": "0x15f90"
      },
      "to": "0x793AE8C1b1a160BFc07BFB0d04F85eab1A71F4f2",
      "value": {
        "_hex": "0x0"
      },
      "nonce": 0,
      "data": "0x3ba15036",
      "r": "0xb4041d8822d973716fe99924ba51122b9ef10d07afc4d8b5a3ed3d3b689cf4ca",
      "s": "0x71d927fdead1519873c0a8de828fea9cd3588199b1f5e6df128f721810cce030",
      "v": 28,
      "creates": null,
      "raw": "0xf86980850ba43b740083015f9094793ae8c1b1a160bfc07bfb0d04f85eab1a71f4f280843ba150361ca0b4041d8822d973716fe99924ba51122b9ef10d07afc4d8b5a3ed3d3b689cf4caa071d927fdead1519873c0a8de828fea9cd3588199b1f5e6df128f721810cce030",
      "networkId": 0,
      "chainId": 0
    },
    {
      "hash": "0xcdbff2bb73ff0b856fc85503c07a4227b84656d339d72fb2ebaf532e95f5512b",
      "blockHash": "0x6d82e848da07165c035b043c224ab5938ac6092ab95789e1d1502bd0d58715a3",
      "blockNumber": 68457,
      "transactionIndex": 7,
      "confirmations": null,
      "from": "0x67b26b568133EA3ee798539e9742DcDA6EdAB4C2",
      "gasPrice": {
        "_hex": "0xba43b7400"
      },
      "gasLimit": {
        "_hex": "0x15f90"
      },
      "to": "0x793AE8C1b1a160BFc07BFB0d04F85eab1A71F4f2",
      "value": {
        "_hex": "0x0"
      },
      "nonce": 0,
      "data": "0x3ba15036",
      "r": "0x86a28f3ac7018f1004c1c2095c920db323a8f3f7596c13f064e44fd83b0caf31",
      "s": "0x60c8167a52609248a4d9d8cd9a3765560ade549008f6b8c744a4ef1c8db594a6",
      "v": 27,
      "creates": null,
      "raw": "0xf86980850ba43b740083015f9094793ae8c1b1a160bfc07bfb0d04f85eab1a71f4f280843ba150361ba086a28f3ac7018f1004c1c2095c920db323a8f3f7596c13f064e44fd83b0caf31a060c8167a52609248a4d9d8cd9a3765560ade549008f6b8c744a4ef1c8db594a6",
      "networkId": 0,
      "chainId": 0
    },
    {
      "hash": "0x9574c12c08047338a5571603002afe2fb04595570b04ae5ed56918848ea3552d",
      "blockHash": "0x6d82e848da07165c035b043c224ab5938ac6092ab95789e1d1502bd0d58715a3",
      "blockNumber": 68457,
      "transactionIndex": 8,
      "confirmations": null,
      "from": "0x1Ce632993aC656779188ae931462A8A04DCA302F",
      "gasPrice": {
        "_hex": "0xba43b7400"
      },
      "gasLimit": {
        "_hex": "0x15f90"
      },
      "to": "0x793AE8C1b1a160BFc07BFB0d04F85eab1A71F4f2",
      "value": {
        "_hex": "0x0"
      },
      "nonce": 0,
      "data": "0x3ba15036",
      "r": "0x4a340b590aab7eb328cb2ce14941d36c3dfe1acc0a0549be858a6d8c383ebab0",
      "s": "0x26a19886ed3d0a1d5ce0fb4fefcaa6fee528d68602ce8710177c595c3ce78a0d",
      "v": 28,
      "creates": null,
      "raw": "0xf86980850ba43b740083015f9094793ae8c1b1a160bfc07bfb0d04f85eab1a71f4f280843ba150361ca04a340b590aab7eb328cb2ce14941d36c3dfe1acc0a0549be858a6d8c383ebab0a026a19886ed3d0a1d5ce0fb4fefcaa6fee528d68602ce8710177c595c3ce78a0d",
      "networkId": 0,
      "chainId": 0
    },
    {
      "hash": "0x6efcaf496fe1a9748b6fdf5d36cbfd9a8a84b930a9be0ffdf03155b640df434f",
      "blockHash": "0x6d82e848da07165c035b043c224ab5938ac6092ab95789e1d1502bd0d58715a3",
      "blockNumber": 68457,
      "transactionIndex": 9,
      "confirmations": null,
      "from": "0x0262F5278EF73732f29581dDC4DdDb2d38B4A7DB",
      "gasPrice": {
        "_hex": "0xba43b7400"
      },
      "gasLimit": {
        "_hex": "0x15f90"
      },
      "to": "0x793AE8C1b1a160BFc07BFB0d04F85eab1A71F4f2",
      "value": {
        "_hex": "0x0"
      },
      "nonce": 0,
      "data": "0x3ba15036",
      "r": "0x300d60b8170214155ceb5a89cdc0e6b546c7ed08585eea89757ae4be2f4d8afe",
      "s": "0x19e5e99fb8a505d3a3ada98fed2b5c64f7c8fa7a671d7f903c6db200ddc3f240",
      "v": 27,
      "creates": null,
      "raw": "0xf86980850ba43b740083015f9094793ae8c1b1a160bfc07bfb0d04f85eab1a71f4f280843ba150361ba0300d60b8170214155ceb5a89cdc0e6b546c7ed08585eea89757ae4be2f4d8afea019e5e99fb8a505d3a3ada98fed2b5c64f7c8fa7a671d7f903c6db200ddc3f240",
      "networkId": 0,
      "chainId": 0
    },
    {
      "hash": "0x8ea9f415a689be41d223a39df75a1b5aff4be491a6ebe9151596bc94d2e5e21d",
      "blockHash": "0x6d82e848da07165c035b043c224ab5938ac6092ab95789e1d1502bd0d58715a3",
      "blockNumber": 68457,
      "transactionIndex": 10,
      "confirmations": null,
      "from": "0xD30096049c863634213F2d54E30D816D1a2B5cB0",
      "gasPrice": {
        "_hex": "0xba43b7400"
      },
      "gasLimit": {
        "_hex": "0x15f90"
      },
      "to": "0x793AE8C1b1a160BFc07BFB0d04F85eab1A71F4f2",
      "value": {
        "_hex": "0x0"
      },
      "nonce": 0,
      "data": "0x3ba15036",
      "r": "0x13570c660af6efe4a7e3b3a1483b25420ef5689f38cc3a09c265502c4f679973",
      "s": "0x4ac2da1c3ee0492c2df7b9fa4f347e7dd780196561b19c877f3826c2f7766af2",
      "v": 27,
      "creates": null,
      "raw": "0xf86980850ba43b740083015f9094793ae8c1b1a160bfc07bfb0d04f85eab1a71f4f280843ba150361ba013570c660af6efe4a7e3b3a1483b25420ef5689f38cc3a09c265502c4f679973a04ac2da1c3ee0492c2df7b9fa4f347e7dd780196561b19c877f3826c2f7766af2",
      "networkId": 0,
      "chainId": 0
    },
    {
      "hash": "0x69420c9dfb62351852550c3cad6579a6f8a50d0e950aab31cb475714395def67",
      "blockHash": "0x6d82e848da07165c035b043c224ab5938ac6092ab95789e1d1502bd0d58715a3",
      "blockNumber": 68457,
      "transactionIndex": 11,
      "confirmations": null,
      "from": "0x6747f922385c9a6F9cfDf095F34345257DD597bE",
      "gasPrice": {
        "_hex": "0xba43b7400"
      },
      "gasLimit": {
        "_hex": "0x5208"
      },
      "to": "0x7f048aB47EA1946418C0efB45cbD943CEa79831d",
      "value": {
        "_hex": "0x1fcbfa42bd6000"
      },
      "nonce": 98,
      "data": "0x",
      "r": "0xcc0e921dfc9ed35dfaba16e74dba2b9d4d2cd794c58462ea50e771da8a35e8bd",
      "s": "0x0d505fa5954ca529c8ed9992c371252d4946439f122885024977d02833172a51",
      "v": 27,
      "creates": null,
      "raw": "0xf86b62850ba43b7400825208947f048ab47ea1946418c0efb45cbd943cea79831d871fcbfa42bd6000801ba0cc0e921dfc9ed35dfaba16e74dba2b9d4d2cd794c58462ea50e771da8a35e8bda00d505fa5954ca529c8ed9992c371252d4946439f122885024977d02833172a51",
      "networkId": 0,
      "chainId": 0
    },
    {
      "hash": "0x88e4eb61ade947fc4049ac00890877d425a314c10f29ba2ba4f187f7b6156c7a",
      "blockHash": "0x6d82e848da07165c035b043c224ab5938ac6092ab95789e1d1502bd0d58715a3",
      "blockNumber": 68457,
      "transactionIndex": 12,
      "confirmations": null,
      "from": "0xb164F2639f3CA9f1212cdf4E2D717451658455f3",
      "gasPrice": {
        "_hex": "0xba43b7400"
      },
      "gasLimit": {
        "_hex": "0x15f90"
      },
      "to": "0x793AE8C1b1a160BFc07BFB0d04F85eab1A71F4f2",
      "value": {
        "_hex": "0x0"
      },
      "nonce": 0,
      "data": "0x3ba15036",
      "r": "0x0f003d78caabf3bb20c56d48ccea1fb5e53e9859f692a6ccde56cff2a71920bd",
      "s": "0x50f8074bf954a145828a65d8d6eeb75fb44fdd0c61140348d8eff5a1ed1f81f2",
      "v": 27,
      "creates": null,
      "raw": "0xf86980850ba43b740083015f9094793ae8c1b1a160bfc07bfb0d04f85eab1a71f4f280843ba150361ba00f003d78caabf3bb20c56d48ccea1fb5e53e9859f692a6ccde56cff2a71920bda050f8074bf954a145828a65d8d6eeb75fb44fdd0c61140348d8eff5a1ed1f81f2",
      "networkId": 0,
      "chainId": 0
    },
    {
      "hash": "0x713fe8b04a8b02361af19285410c7a407b66aadeb6b7628d4d85961aa0c1093f",
      "blockHash": "0x6d82e848da07165c035b043c224ab5938ac6092ab95789e1d1502bd0d58715a3",
      "blockNumber": 68457,
      "transactionIndex": 13,
      "confirmations": null,
      "from": "0x28241F789C933E6A10Da044a3C7fdC5E049e9404",
      "gasPrice": {
        "_hex": "0xba43b7400"
      },
      "gasLimit": {
        "_hex": "0x15f90"
      },
      "to": "0x793AE8C1b1a160BFc07BFB0d04F85eab1A71F4f2",
      "value": {
        "_hex": "0x0"
      },
      "nonce": 0,
      "data": "0x3ba15036",
      "r": "0x37e18e8c23ef02e3dd0d392301a12cab3e040a2e4cf621f6656559bcdf4251d0",
      "s": "0x7a9faebf47889abe0c479de95f7f7394be06b22e70f3ee3b636c57dee04c52b3",
      "v": 27,
      "creates": null,
      "raw": "0xf86980850ba43b740083015f9094793ae8c1b1a160bfc07bfb0d04f85eab1a71f4f280843ba150361ba037e18e8c23ef02e3dd0d392301a12cab3e040a2e4cf621f6656559bcdf4251d0a07a9faebf47889abe0c479de95f7f7394be06b22e70f3ee3b636c57dee04c52b3",
      "networkId": 0,
      "chainId": 0
    },
    {
      "hash": "0xc2e7d9c1fef4d61bb72c13d7bed157d37e199451578799b919b9d8b741de3df5",
      "blockHash": "0x6d82e848da07165c035b043c224ab5938ac6092ab95789e1d1502bd0d58715a3",
      "blockNumber": 68457,
      "transactionIndex": 14,
      "confirmations": null,
      "from": "0x182878E11b52daa7E077408652260B186de74Bde",
      "gasPrice": {
        "_hex": "0xba43b7400"
      },
      "gasLimit": {
        "_hex": "0x15f90"
      },
      "to": "0x793AE8C1b1a160BFc07BFB0d04F85eab1A71F4f2",
      "value": {
        "_hex": "0x0"
      },
      "nonce": 0,
      "data": "0x3ba15036",
      "r": "0x21ac45336145d4702eff2d451ac9f078e55fe8248373791e66429036dc3bad34",
      "s": "0x48c750b7c2656591ef353bf00a62c02268b64dc90f89dba253ea2a651bc036e2",
      "v": 28,
      "creates": null,
      "raw": "0xf86980850ba43b740083015f9094793ae8c1b1a160bfc07bfb0d04f85eab1a71f4f280843ba150361ca021ac45336145d4702eff2d451ac9f078e55fe8248373791e66429036dc3bad34a048c750b7c2656591ef353bf00a62c02268b64dc90f89dba253ea2a651bc036e2",
      "networkId": 0,
      "chainId": 0
    },
    {
      "hash": "0xa34db1b40ef3131a8b21094166e01f8ad7ba835b1392f10322d3195897d8b519",
      "blockHash": "0x6d82e848da07165c035b043c224ab5938ac6092ab95789e1d1502bd0d58715a3",
      "blockNumber": 68457,
      "transactionIndex": 15,
      "confirmations": null,
      "from": "0xC3503F7f741d3B86df21806de90050b7a0c15d6D",
      "gasPrice": {
        "_hex": "0xba43b7400"
      },
      "gasLimit": {
        "_hex": "0x15f90"
      },
      "to": "0x793AE8C1b1a160BFc07BFB0d04F85eab1A71F4f2",
      "value": {
        "_hex": "0x0"
      },
      "nonce": 0,
      "data": "0x3ba15036",
      "r": "0x6d4bd5f37c5ea57c49b0938aa75660507d0abfb8b78a3b576a50ed84557caa6b",
      "s": "0x6c48445ca0f204f741fed4b59b60f5f706eef515ae8730454542c84d67adad8c",
      "v": 28,
      "creates": null,
      "raw": "0xf86980850ba43b740083015f9094793ae8c1b1a160bfc07bfb0d04f85eab1a71f4f280843ba150361ca06d4bd5f37c5ea57c49b0938aa75660507d0abfb8b78a3b576a50ed84557caa6ba06c48445ca0f204f741fed4b59b60f5f706eef515ae8730454542c84d67adad8c",
      "networkId": 0,
      "chainId": 0
    },
    {
      "hash": "0xb86baa5cad20c36399fa7c3120e0b5c4477ec6d6a224238f7c46bde123e3a15d",
      "blockHash": "0x6d82e848da07165c035b043c224ab5938ac6092ab95789e1d1502bd0d58715a3",
      "blockNumber": 68457,
      "transactionIndex": 16,
      "confirmations": null,
      "from": "0xd73a60e86ECda5d831603fAA8Aa0b09F5e428cFB",
      "gasPrice": {
        "_hex": "0xba43b7400"
      },
      "gasLimit": {
        "_hex": "0x15f90"
      },
      "to": "0x793AE8C1b1a160BFc07BFB0d04F85eab1A71F4f2",
      "value": {
        "_hex": "0x0"
      },
      "nonce": 0,
      "data": "0x3ba15036",
      "r": "0x697e77aaf2c14f590ecb5a9ab86048596b2fcf90eb48d4a1f6fc56a501151482",
      "s": "0x0f23e284e69170c2dcd5aba9e088d0d843229fa3de76edabfaff9c33b19f9c0d",
      "v": 27,
      "creates": null,
      "raw": "0xf86980850ba43b740083015f9094793ae8c1b1a160bfc07bfb0d04f85eab1a71f4f280843ba150361ba0697e77aaf2c14f590ecb5a9ab86048596b2fcf90eb48d4a1f6fc56a501151482a00f23e284e69170c2dcd5aba9e088d0d843229fa3de76edabfaff9c33b19f9c0d",
      "networkId": 0,
      "chainId": 0
    },
    {
      "hash": "0x3e3071f5093f7ab24cd3ad7fca4e5649df3dfe9cdc3224501d9584fdce17a3e3",
      "blockHash": "0x6d82e848da07165c035b043c224ab5938ac6092ab95789e1d1502bd0d58715a3",
      "blockNumber": 68457,
      "transactionIndex": 17,
      "confirmations": null,
      "from": "0x036775981dAa8a56FB5a7baEA7Fe473583811dC1",
      "gasPrice": {
        "_hex": "0xba43b7400"
      },
      "gasLimit": {
        "_hex": "0x15f90"
      },
      "to": "0x793AE8C1b1a160BFc07BFB0d04F85eab1A71F4f2",
      "value": {
        "_hex": "0x0"
      },
      "nonce": 0,
      "data": "0x3ba15036",
      "r": "0x14742adf140bb3adcc9332f05977a9f68eae806672b2a0bd86f85a952630e693",
      "s": "0x07d7ae2e20ec1a6c083ecb40e4c1536af2403c28a160f9375b6ae7291598ff0a",
      "v": 27,
      "creates": null,
      "raw": "0xf86980850ba43b740083015f9094793ae8c1b1a160bfc07bfb0d04f85eab1a71f4f280843ba150361ba014742adf140bb3adcc9332f05977a9f68eae806672b2a0bd86f85a952630e693a007d7ae2e20ec1a6c083ecb40e4c1536af2403c28a160f9375b6ae7291598ff0a",
      "networkId": 0,
      "chainId": 0
    },
    {
      "hash": "0x4b73385472a98a08ed0b961a97998855cbe8f4a2c96815f035acd02ff79dc3ac",
      "blockHash": "0x6d82e848da07165c035b043c224ab5938ac6092ab95789e1d1502bd0d58715a3",
      "blockNumber": 68457,
      "transactionIndex": 18,
      "confirmations": null,
      "from": "0xe16DDddc4ab60Ebf30F1545B215f45C3deEA8d45",
      "gasPrice": {
        "_hex": "0xba43b7400"
      },
      "gasLimit": {
        "_hex": "0x15f90"
      },
      "to": "0x793AE8C1b1a160BFc07BFB0d04F85eab1A71F4f2",
      "value": {
        "_hex": "0x0"
      },
      "nonce": 0,
      "data": "0x3ba15036",
      "r": "0x55b356c17d395691fe593011cdbcc40b71ee865e94db55f9b31202b0f79b4875",
      "s": "0x2ffc05633fd28341d521dc033ce10360043b08abb8dc4799b9adfe70ddeb7994",
      "v": 27,
      "creates": null,
      "raw": "0xf86980850ba43b740083015f9094793ae8c1b1a160bfc07bfb0d04f85eab1a71f4f280843ba150361ba055b356c17d395691fe593011cdbcc40b71ee865e94db55f9b31202b0f79b4875a02ffc05633fd28341d521dc033ce10360043b08abb8dc4799b9adfe70ddeb7994",
      "networkId": 0,
      "chainId": 0
    },
    {
      "hash": "0x4ccaeff81573458263379cb04eab2ebf10984cb658c0bbaa64dc7be760e49ff1",
      "blockHash": "0x6d82e848da07165c035b043c224ab5938ac6092ab95789e1d1502bd0d58715a3",
      "blockNumber": 68457,
      "transactionIndex": 19,
      "confirmations": null,
      "from": "0x72bFF5a9dDB17C75aAb6997B0cacF2D751b95F69",
      "gasPrice": {
        "_hex": "0xba43b7400"
      },
      "gasLimit": {
        "_hex": "0x15f90"
      },
      "to": "0x793AE8C1b1a160BFc07BFB0d04F85eab1A71F4f2",
      "value": {
        "_hex": "0x0"
      },
      "nonce": 0,
      "data": "0x3ba15036",
      "r": "0xbd79f5530ea6531e270ff22a5ba63329aabd5ddf4d52c6b212918c5312fa8294",
      "s": "0x270fa808daf8d0ebaaa8f34cc3025f40cffef5de3718113451d0b9d882955d97",
      "v": 28,
      "creates": null,
      "raw": "0xf86980850ba43b740083015f9094793ae8c1b1a160bfc07bfb0d04f85eab1a71f4f280843ba150361ca0bd79f5530ea6531e270ff22a5ba63329aabd5ddf4d52c6b212918c5312fa8294a0270fa808daf8d0ebaaa8f34cc3025f40cffef5de3718113451d0b9d882955d97",
      "networkId": 0,
      "chainId": 0
    },
    {
      "hash": "0xa87335b36442b53102348fe76a573374961549975908b1c7a5093d376eba114c",
      "blockHash": "0x6d82e848da07165c035b043c224ab5938ac6092ab95789e1d1502bd0d58715a3",
      "blockNumber": 68457,
      "transactionIndex": 20,
      "confirmations": null,
      "from": "0xcb94e5346D58e6f89a5bE97DBb7B5a6c0975e36f",
      "gasPrice": {
        "_hex": "0xba43b7400"
      },
      "gasLimit": {
        "_hex": "0x15f90"
      },
      "to": "0x793AE8C1b1a160BFc07BFB0d04F85eab1A71F4f2",
      "value": {
        "_hex": "0x0"
      },
      "nonce": 0,
      "data": "0x3ba15036",
      "r": "0x879f9cd9ffc7e65eacd3aee33aa1ec111c4dc089bf49b93de00c22920e1e4ba7",
      "s": "0x66d279b43f3019713e096f5c89a681a62944ada9cc558f830a6e11fa2ad9a896",
      "v": 27,
      "creates": null,
      "raw": "0xf86980850ba43b740083015f9094793ae8c1b1a160bfc07bfb0d04f85eab1a71f4f280843ba150361ba0879f9cd9ffc7e65eacd3aee33aa1ec111c4dc089bf49b93de00c22920e1e4ba7a066d279b43f3019713e096f5c89a681a62944ada9cc558f830a6e11fa2ad9a896",
      "networkId": 0,
      "chainId": 0
    },
    {
      "hash": "0xccf5f1a75aa334b38b20da71c364a0d514495a91bda764fa5e9f9cbdd5262d4d",
      "blockHash": "0x6d82e848da07165c035b043c224ab5938ac6092ab95789e1d1502bd0d58715a3",
      "blockNumber": 68457,
      "transactionIndex": 21,
      "confirmations": null,
      "from": "0x2209C5577bfeACbcb06e110a3A3467b8D41cCb06",
      "gasPrice": {
        "_hex": "0xba43b7400"
      },
      "gasLimit": {
        "_hex": "0x15f90"
      },
      "to": "0x793AE8C1b1a160BFc07BFB0d04F85eab1A71F4f2",
      "value": {
        "_hex": "0x0"
      },
      "nonce": 0,
      "data": "0x3ba15036",
      "r": "0x9e5e09e16b1377548e4b8334f11857ac9a13d6a8364191d97a29ca566d5da11b",
      "s": "0x1c286eeccd4088c4334f126fa3651427982ff27e99d44faa5863b89164bfd81c",
      "v": 27,
      "creates": null,
      "raw": "0xf86980850ba43b740083015f9094793ae8c1b1a160bfc07bfb0d04f85eab1a71f4f280843ba150361ba09e5e09e16b1377548e4b8334f11857ac9a13d6a8364191d97a29ca566d5da11ba01c286eeccd4088c4334f126fa3651427982ff27e99d44faa5863b89164bfd81c",
      "networkId": 0,
      "chainId": 0
    },
    {
      "hash": "0x16cabd54df95023c430a0b0cbe1a0fca6bc5aa014100dd8a65b6d638ec9dab94",
      "blockHash": "0x6d82e848da07165c035b043c224ab5938ac6092ab95789e1d1502bd0d58715a3",
      "blockNumber": 68457,
      "transactionIndex": 22,
      "confirmations": null,
      "from": "0xF9eDbAD57E98D698FF0f8E269ee51525C43b7839",
      "gasPrice": {
        "_hex": "0xba43b7400"
      },
      "gasLimit": {
        "_hex": "0x15f90"
      },
      "to": "0x793AE8C1b1a160BFc07BFB0d04F85eab1A71F4f2",
      "value": {
        "_hex": "0x0"
      },
      "nonce": 0,
      "data": "0x3ba15036",
      "r": "0xa4e550b8f6bcb559be3331bb021d5501ec9259f657882266875a1e427b34de8c",
      "s": "0x6b2185acf592dab98f250353dde42808ca0855b8d8e35a5e8fd27c06902a7baf",
      "v": 28,
      "creates": null,
      "raw": "0xf86980850ba43b740083015f9094793ae8c1b1a160bfc07bfb0d04f85eab1a71f4f280843ba150361ca0a4e550b8f6bcb559be3331bb021d5501ec9259f657882266875a1e427b34de8ca06b2185acf592dab98f250353dde42808ca0855b8d8e35a5e8fd27c06902a7baf",
      "networkId": 0,
      "chainId": 0
    },
    {
      "hash": "0xa8f5458128806177978908ac847c8812aff3128cdc76503ae144e9611df053c3",
      "blockHash": "0x6d82e848da07165c035b043c224ab5938ac6092ab95789e1d1502bd0d58715a3",
      "blockNumber": 68457,
      "transactionIndex": 23,
      "confirmations": null,
      "from": "0xBE593EE9Bc163045dc78B44031D652ffA0861290",
      "gasPrice": {
        "_hex": "0xba43b7400"
      },
      "gasLimit": {
        "_hex": "0x15f90"
      },
      "to": "0x793AE8C1b1a160BFc07BFB0d04F85eab1A71F4f2",
      "value": {
        "_hex": "0x0"
      },
      "nonce": 0,
      "data": "0x3ba15036",
      "r": "0xa37cf357031525e94f0917cb5be9eb4adb982e451f06087cf4c827de8ebbcf60",
      "s": "0x29bbe2b053327c5b520cd40d016f92802b51fdcd74d9cca05e2ad13f3525d34d",
      "v": 27,
      "creates": null,
      "raw": "0xf86980850ba43b740083015f9094793ae8c1b1a160bfc07bfb0d04f85eab1a71f4f280843ba150361ba0a37cf357031525e94f0917cb5be9eb4adb982e451f06087cf4c827de8ebbcf60a029bbe2b053327c5b520cd40d016f92802b51fdcd74d9cca05e2ad13f3525d34d",
      "networkId": 0,
      "chainId": 0
    },
    {
      "hash": "0xf1cf702d2dba2e15fcf6802073ea8c7dc75a135e76f0618f85e1df8897403f86",
      "blockHash": "0x6d82e848da07165c035b043c224ab5938ac6092ab95789e1d1502bd0d58715a3",
      "blockNumber": 68457,
      "transactionIndex": 24,
      "confirmations": null,
      "from": "0x369248D0a81F8Cf05305190043e08D9C225b0D6D",
      "gasPrice": {
        "_hex": "0xba43b7400"
      },
      "gasLimit": {
        "_hex": "0x15f90"
      },
      "to": "0x793AE8C1b1a160BFc07BFB0d04F85eab1A71F4f2",
      "value": {
        "_hex": "0x0"
      },
      "nonce": 0,
      "data": "0x3ba15036",
      "r": "0x7e2763506d3bb2e97a5d4d7b09ce88a739bcc83e6c6cc4c488f9c57a0987718a",
      "s": "0x6567a1571f77fb765aa3f421cb7d9b6e2cca1c7b920e237418a4cbc893825b32",
      "v": 28,
      "creates": null,
      "raw": "0xf86980850ba43b740083015f9094793ae8c1b1a160bfc07bfb0d04f85eab1a71f4f280843ba150361ca07e2763506d3bb2e97a5d4d7b09ce88a739bcc83e6c6cc4c488f9c57a0987718aa06567a1571f77fb765aa3f421cb7d9b6e2cca1c7b920e237418a4cbc893825b32",
      "networkId": 0,
      "chainId": 0
    },
    {
      "hash": "0x51a9df4643720f735541f49deb31cb978dac7801f62b2e999ba69ad38fde8507",
      "blockHash": "0x6d82e848da07165c035b043c224ab5938ac6092ab95789e1d1502bd0d58715a3",
      "blockNumber": 68457,
      "transactionIndex": 25,
      "confirmations": null,
      "from": "0xfb4eCf3998CF7E071cE12E469B1Ce3Df4c3d57Ee",
      "gasPrice": {
        "_hex": "0xba43b7400"
      },
      "gasLimit": {
        "_hex": "0x15f90"
      },
      "to": "0x793AE8C1b1a160BFc07BFB0d04F85eab1A71F4f2",
      "value": {
        "_hex": "0x0"
      },
      "nonce": 0,
      "data": "0x3ba15036",
      "r": "0x3fe5b7007d0358f4df4bb89f992e11fe16035116646e28939e02849fcb85a86f",
      "s": "0x31147dbb55e7767ce2cbd4d9205c7f67e9b16b80584c447e508480448cd72fea",
      "v": 27,
      "creates": null,
      "raw": "0xf86980850ba43b740083015f9094793ae8c1b1a160bfc07bfb0d04f85eab1a71f4f280843ba150361ba03fe5b7007d0358f4df4bb89f992e11fe16035116646e28939e02849fcb85a86fa031147dbb55e7767ce2cbd4d9205c7f67e9b16b80584c447e508480448cd72fea",
      "networkId": 0,
      "chainId": 0
    }
  ]
}