{
  "hash": "0x93001b557ccaad225bfbb8b1e6b42c0569be505c53cae79b20d14eef1107f581",
  "parentHash": "0xd647237cffd11fdd46c8fdc918d7203a1f77a72dd4207c903a2e10495c27bb0e",
  "number": 116026,
  "timestamp": 1440067058,
  "nonce": "0x3ccc032d76bdbc83",
  "difficulty": 4598212569398,
  "gasLimit": {
    "_hex": "0x2fefd8"
  },
  "gasUsed": {
    "_hex": "0xa410"
  },
  "miner": "0xe6A7a1d47ff21B6321162AEA7C6CB457D5476Bca",
  "extraData": "0x476574682f76312e302e312d38326566323666362f6c696e75782f676f312e34",
  "transactions": [
    {
      "hash": "0xba1634109449b5b99afb0af4773991173e47fd434ffd54b0839040878860ab7a",
      "blockHash": "0x93001b557ccaad225bfbb8b1e6b42c0569be505c53cae79b20d14eef1107f581",
      "blockNumber": 116026,
      "transactionIndex": 0,
      "confirmations": null,
      "from": "0x478e524Ef2A381d70C82588a93Ca7a5fa9d51CBF",
      "gasPrice": {
        "_hex": "0xd3d37f23a"
      },
      "gasLimit": {
        "_hex": "0x15f90"
      },
      "to": "0x890Fe11f3c24dB8732D6C2e772E2297c7E65F139",
      "value": {
        "_hex": "0x18bbbd9daf13f900000"
      },
      "nonce": 0,
      "data": "0x",
      "r": "0x7ec074cb80d75a9d4566e9119a636c07592635a9a6e815b00a94901ce2a53e8c",
      "s": "0x54854dca454120af73a0ac42f51e996c0f3fd0eb58b2ba798fd4baea4d6bf3ad",
      "v": 27,
      "creates": null,
      "raw": "0xf86f80850d3d37f23a83015f9094890fe11f3c24db8732d6c2e772e2297c7e65f1398a018bbbd9daf13f900000801ba07ec074cb80d75a9d4566e9119a636c07592635a9a6e815b00a94901ce2a53e8ca054854dca454120af73a0ac42f51e996c0f3fd0eb58b2ba798fd4baea4d6bf3ad",
      "networkId": 0,
      "chainId": 0
    },
    {
      "hash": "0x39d86bfff7d2493f19df205fa3dea65cdf8c6ea0b9b5ed9bf96a3b9e64240151",
      "blockHash": "0x93001b557ccaad225bfbb8b1e6b42c0569be505c53cae79b20d14eef1107f581",
      "blockNumber": 116026,
      "transactionIndex": 1,
      "confirmations": null,
      "from": "0x3048a8bFee849B0F52475259ee76Eaf20BD985a3",
      "gasPrice": {
        "_hex": "0xcdb56858c"
      },
      "gasLimit": {
        "_hex": "0x15f90"
      },
      "to": "0x162aee465C87cB9753b81F5e9B4Bf03A69196847",
      "value": {
        "_hex": "0x16345785d8a0000"
      },
      "nonce": 3,
      "data": "0x",
      "r": "0x8247c65cce556815c8e0dfd150c932feb933300e04e7cccf96f0f5c33b05e477",
      "s": "0x5abd963aac79f6a183c6d6d6039a9491a4d5c6ee2c7025f22a8dc3158a854787",
      "v": 28,
      "creates": null,
      "raw": "0xf86d03850cdb56858c83015f9094162aee465c87cb9753b81f5e9b4bf03a6919684788016345785d8a0000801ca08247c65cce556815c8e0dfd150c932feb933300e04e7cccf96f0f5c33b05e477a05abd963aac79f6a183c6d6d6039a9491a4d5c6ee2c7025f22a8dc3158a854787",
      "networkId": 0,
      "chainId": 0
    }
  ]
}