{
  "hash": "0xb3659d38dbd462fb0d196255d8a700239ba86d9d3326ad99c8785874cabf3e43",
  "parentHash": "0xbb2503726bd7f4de3c27b494b5966fd18f38cd884d71d0ecc6d8399f0daffb40",
  "number": 79172,
  "timestamp": 1439465727,
  "nonce": "0x6915702761458f19",
  "difficulty": 2310994909325,
  "gasLimit": {
    "_hex": "0x2fefd8"
  },
  "gasUsed": {
    "_hex": "0x5208"
  },
  "miner": "0xe6A7a1d47ff21B6321162AEA7C6CB457D5476Bca",
  "extraData": "0x476574682f76312e302e312d38326566323666362f6c696e75782f676f312e34",
  "transactions": [
    {
      "hash": "0x18b7583f57de36f22dbf6b4f4542b75bd45c257ab91e1fd422711381ea10105d",
      "blockHash": "0xb3659d38dbd462fb0d196255d8a700239ba86d9d3326ad99c8785874cabf3e43",
      "blockNumber": 79172,
      "transactionIndex": 0,
      "confirmations": null,
      "from": "0xBB33a4b72d92FA335a3b591Ce7eE217f7a7338C1",
      "gasPrice": {
        "_hex": "0xdf776b0e7"
      },
      "gasLimit": {
        "_hex": "0x5208"
      },
      "to": "0x32Be343B94f860124dC4fEe278FDCBD38C102D88",
      "value": {
        "_hex": "0x176aecb3f907a1000"
      },
      "nonce": 4,
      "data": "0x",
      "r": "0x425be8cf2460738939156519c1564a6fd4dafcf00bd82dabe3b9c421831073b2",
      "s": "0x597711d06255d896b3c538170b7799c87bfec3af2a812c5047c96c48882b600c",
      "v": 28,
      "creates": null,
      "raw": "0xf86d04850df776b0e78252089432be343b94f860124dc4fee278fdcbd38c102d88890176aecb3f907a1000801ca0425be8cf2460738939156519c1564a6fd4dafcf00bd82dabe3b9c421831073b2a0597711d06255d896b3c538170b7799c87bfec3af2a812c5047c96c48882b600c",
      "networkId": 0,
      "chainId": 0
    }
  ]
}