{
  "hash": "0xa503d496f41abbafb461a6bdb4128bacfb98b598b1332f049607a91d8370eb96",
  "parentHash": "0x4810d7862b1e51792b2fe2bc81d21e143c251712f590d6493cd5d4a617300473",
  "number": 89111,
  "timestamp": 1439618347,
  "nonce": "0xb02998513ccb33dc",
  "difficulty": 3263123093249,
  "gasLimit": {
    "_hex": "0x2fefd8"
  },
  "gasUsed": {
    "_hex": "0x5208"
  },
  "miner": "0x790b8a3cE86E707ED0eD32bF89B3269692a23CC1",
  "extraData": "0xd783010001844765746887676f312e342e32856c696e7578",
  "transactions": [
    {
      "hash": "0xb8f31bfee3bee66f2a8ad5a61d9257614ac6cbf76795954c942a8f3c77602682",
      "blockHash": "0xa503d496f41abbafb461a6bdb4128bacfb98b598b1332f049607a91d8370eb96",
      "blockNumber": 89111,
      "transactionIndex": 0,
      "confirmations": null,
      "from": "0x2910543Af39abA0Cd09dBb2D50200b3E800A63D2",
      "gasPrice": {
        "_hex": "0xcc8ac4f60"
      },
      "gasLimit": {
        "_hex": "0x5208"
      },
      "to": "0x0c86db7DffC9eCbBe8da476416F54F4c47F97322",
      "value": {
        "_hex": "0x22b1c8c1227a00000"
      },
      "nonce": 744,
      "data": "0x",
      "r": "0xd23bfe8a646d48c443b0516f9fe5707af419213b30c744f3d22012cf07e682ba",
      "s": "0x34fc5587e3fc8caa9bd24aedd83a9bcf2bd08c9dd977d9c6a47296e8c866484b",
      "v": 28,
      "creates": null,
      "raw": "0xf86f8202e8850cc8ac4f60825208940c86db7dffc9ecbbe8da476416f54f4c47f9732289022b1c8c1227a00000801ca0d23bfe8a646d48c443b0516f9fe5707af419213b30c744f3d22012cf07e682baa034fc5587e3fc8caa9bd24aedd83a9bcf2bd08c9dd977d9c6a47296e8c866484b",
      "networkId": 0,
      "chainId": 0
    }
  ]
}