{
  "hash": "0xd09020bce46e5e6593d0141ba66d0ca043d37c0061457d8969bfe91caefc1f8b",
  "parentHash": "0x52e46ddafa83b1b73b86ee535d109006d90b2c1cb54894bba17402520cc089a7",
  "number": 86453,
  "timestamp": 1439578497,
  "nonce": "0x2508567aa36e91b9",
  "difficulty": 2891882978454,
  "gasLimit": {
    "_hex": "0x2fefd8"
  },
  "gasUsed": {
    "_hex": "0x5208"
  },
  "miner": "0x790b8a3cE86E707ED0eD32bF89B3269692a23CC1",
  "extraData": "0xd783010001844765746887676f312e342e32856c696e7578",
  "transactions": [
    {
      "hash": "0xf4899d8f96c462580f6a0888e72b1476ca25f31dabd221c43ff7bbe7bd3b5e0f",
      "blockHash": "0xd09020bce46e5e6593d0141ba66d0ca043d37c0061457d8969bfe91caefc1f8b",
      "blockNumber": 86453,
      "transactionIndex": 0,
      "confirmations": null,
      "from": "0x2910543Af39abA0Cd09dBb2D50200b3E800A63D2",
      "gasPrice": {
        "_hex": "0xd134836e9"
      },
      "gasLimit": {
        "_hex": "0x5208"
      },
      "to": "0x53D3DB7866f790FB7979eC5e9eeFf1559e6D88Fa",
      "value": {
        "_hex": "0xdcef33a6f838000"
      },
      "nonce": 663,
      "data": "0x",
      "r": "0x1afecca368c0fc8ae98f5727905a455c3b320ebca20403db91a10cce81e79119",
      "s": "0x3b110745f7a151d93b1d472beaaa46cd669431f3e45227d1a1231083c9b3284a",
      "v": 28,
      "creates": null,
      "raw": "0xf86e820297850d134836e98252089453d3db7866f790fb7979ec5e9eeff1559e6d88fa880dcef33a6f838000801ca01afecca368c0fc8ae98f5727905a455c3b320ebca20403db91a10cce81e79119a03b110745f7a151d93b1d472beaaa46cd669431f3e45227d1a1231083c9b3284a",
      "networkId": 0,
      "chainId": 0
    }
  ]
}