{
  "hash": "0x38e594a0f94e8efd9dd176e39e2d3601de97790e9cb18fd0bd05d8d320d472e4",
  "parentHash": "0xa634427686496a3499383cc5a274b216a9274865d377b8a0b21cf8735744b9fa",
  "number": 115488,
  "timestamp": 1440058088,
  "nonce": "0xd0776ed3b9ffdfa9",
  "difficulty": 4576108561184,
  "gasLimit": {
    "_hex": "0x2fefd8"
  },
  "gasUsed": {
    "_hex": "0x5208"
  },
  "miner": "0xe6A7a1d47ff21B6321162AEA7C6CB457D5476Bca",
  "extraData": "0x476574682f76312e302e312d38326566323666362f6c696e75782f676f312e34",
  "transactions": [
    {
      "hash": "0x18aec26b08f491c50c0de5b1df9a3285e8d1a72955452452df84c0addbdfc6d2",
      "blockHash": "0x38e594a0f94e8efd9dd176e39e2d3601de97790e9cb18fd0bd05d8d320d472e4",
      "blockNumber": 115488,
      "transactionIndex": 0,
      "confirmations": null,
      "from": "0xa945e7C3f69Dc1e97E61F5875593B323F2D7EcDA",
      "gasPrice": {
        "_hex": "0x746a528800"
      },
      "gasLimit": {
        "_hex": "0x5208"
      },
      "to": "0xa945e7C3f69Dc1e97E61F5875593B323F2D7EcDA",
      "value": {
        "_hex": "0xde0b6b3a7640000"
      },
      "nonce": 1,
      "data": "0x",
      "r": "0x425829bca59ef4a677cd7d137149f12d4a0da60fc75b7e59ce6d17a8fb99063f",
      "s": "0x4ecf382529ab85e37e0db3647a493ad9dbe014d32ec1ca9cad5e7a5afac1987f",
      "v": 27,
      "creates": null,
      "raw": "0xf86c0185746a52880082520894a945e7c3f69dc1e97e61f5875593b323f2d7ecda880de0b6b3a7640000801ba0425829bca59ef4a677cd7d137149f12d4a0da60fc75b7e59ce6d17a8fb99063fa04ecf382529ab85e37e0db3647a493ad9dbe014d32ec1ca9cad5e7a5afac1987f",
      "networkId": 0,
      "chainId": 0
    }
  ]
}