{
  "hash": "0x18961e6d24a7c812dddf207929d19b19e47659d771fd57957f61f918b6a4e487",
  "parentHash": "0xe837cc43902156c0c9fbbfcd063484b841bfebe41e9cb9c6cc564b070e4df374",
  "number": 110124,
  "timestamp": 1439968461,
  "nonce": "0x4aa75ad653a3d509",
  "difficulty": 4382165902947,
  "gasLimit": {
    "_hex": "0x2fefd8"
  },
  "gasUsed": {
    "_hex": "0x5208"
  },
  "miner": "0xe6A7a1d47ff21B6321162AEA7C6CB457D5476Bca",
  "extraData": "0x476574682f76312e302e312d38326566323666362f6c696e75782f676f312e34",
  "transactions": [
    {
      "hash": "0xa734ff6c3b50af241b65a84d946ea2486fceaf63988c3a3b3438e886e5fabb23",
      "blockHash": "0x18961e6d24a7c812dddf207929d19b19e47659d771fd57957f61f918b6a4e487",
      "blockNumber": 110124,
      "transactionIndex": 0,
      "confirmations": null,
      "from": "0x5E8E0f5D30223Cf97aeDff1f84CC3C4f59f8a64f",
      "gasPrice": {
        "_hex": "0xd7590cfd0"
      },
      "gasLimit": {
        "_hex": "0x15f90"
      },
      "to": "0x93fFb588775213472640ae7a2334e48A904324dd",
      "value": {
        "_hex": "0xc202efee47f60000"
      },
      "nonce": 0,
      "data": "0x",
      "r": "0x8360894a426b1e3439224d7af79a14d67be92497349efcea98468a2a80d93507",
      "s": "0x2587b38f90741291bf4506f28bd83bac3576af0d8d5193551bd4b27fc64ba96f",
      "v": 28,
      "creates": null,
      "raw": "0xf86d80850d7590cfd083015f909493ffb588775213472640ae7a2334e48a904324dd88c202efee47f60000801ca08360894a426b1e3439224d7af79a14d67be92497349efcea98468a2a80d93507a02587b38f90741291bf4506f28bd83bac3576af0d8d5193551bd4b27fc64ba96f",
      "networkId": 0,
      "chainId": 0
    }
  ]
}