{
  "hash": "0x337459d9b2988e9fead2fa30e25609a0a094ae07ef338023206c754982c9796f",
  "parentHash": "0x38305c58dbaae7807addcffa0bbad8bb0198668af28fe719f5848b570e3b1ebc",
  "number": 85279,
  "timestamp": 1439561105,
  "nonce": "0xac9cd4b13ac7753a",
  "difficulty": 2754455169557,
  "gasLimit": {
    "_hex": "0x2fefd8"
  },
  "gasUsed": {
    "_hex": "0x5208"
  },
  "miner": "0xe6A7a1d47ff21B6321162AEA7C6CB457D5476Bca",
  "extraData": "0x476574682f76312e302e312d38326566323666362f6c696e75782f676f312e34",
  "transactions": [
    {
      "hash": "0xd951fb96300f268e9288e7c2450932da29f85e19535d8708732b7d1ed44c6282",
      "blockHash": "0x337459d9b2988e9fead2fa30e25609a0a094ae07ef338023206c754982c9796f",
      "blockNumber": 85279,
      "transactionIndex": 0,
      "confirmations": null,
      "from": "0x2071130408d9aAf3D5D65953118c3FE37aCB8D04",
      "gasPrice": {
        "_hex": "0xba43b7400"
      },
      "gasLimit": {
        "_hex": "0x5208"
      },
      "to": "0xC47Aaa860008be6f65B58c6C6E02a84e666EfE31",
      "value": {
        "_hex": "0xc24642dafa746000"
      },
      "nonce": 2,
      "data": "0x",
      "r": "0x06e184b28bfdaf9ae738f4eed5c678e679a4ee723343497a581026e5b0a2d1a1",
      "s": "0x4be13bcdee441e05a8157351d736ef6aa02f6792ec14b0cdc9aaa459031ff60e",
      "v": 28,
      "creates": null,
      "raw": "0xf86c02850ba43b740082520894c47aaa860008be6f65b58c6c6e02a84e666efe3188c24642dafa746000801ca006e184b28bfdaf9ae738f4eed5c678e679a4ee723343497a581026e5b0a2d1a1a04be13bcdee441e05a8157351d736ef6aa02f6792ec14b0cdc9aaa459031ff60e",
      "networkId": 0,
      "chainId": 0
    }
  ]
}