{
  "hash": "0x2d9548ab4de10ac724f337cd99da508b9874605291cb85d4e76e0f19c6c3d568",
  "parentHash": "0x03e8a1885e66714bb6fd82778bd8355ee453dc00992aac97335f5988ac70e85a",
  "number": 89504,
  "timestamp": 1439624471,
  "nonce": "0x99c2d10066ca9526",
  "difficulty": 3328951616119,
  "gasLimit": {
    "_hex": "0x2fefd8"
  },
  "gasUsed": {
    "_hex": "0xf618"
  },
  "miner": "0x88D74a59454F6cF3B51ef6b9136AFb6b9D405A88",
  "extraData": "0x476574682f76312e302e312d37666266393930632f6c696e75782f676f312e34",
  "transactions": [
    {
      "hash": "0x6f0d9cfb82ab7b1a78d0fd04d3039501be83e346b324907a42ac96cb45aafa23",
      "blockHash": "0x2d9548ab4de10ac724f337cd99da508b9874605291cb85d4e76e0f19c6c3d568",
      "blockNumber": 89504,
      "transactionIndex": 0,
      "confirmations": null,
      "from": "0xC603Ab5ef41fC61AA8b76bEddb09e3Cfcbb174BD",
      "gasPrice": {
        "_hex": "0xd5317495f"
      },
      "gasLimit": {
        "_hex": "0x15f90"
      },
      "to": "0x8F79f76381Aad7B98C19aF55eE75fdfEeb012211",
      "value": {
        "_hex": "0x579a814e10a740000"
      },
      "nonce": 21,
      "data": "0x",
      "r": "0x99d4193ac9bb754b866f40e1232882bfcdb2c912fc366c2e582513d84daadca3",
      "s": "0x519c56258b00dc916d5e4b91c4528b077a80700c047da44e6b4f1c357ce5cdf9",
      "v": 28,
      "creates": null,
      "raw": "0xf86e15850d5317495f83015f90948f79f76381aad7b98c19af55ee75fdfeeb012211890579a814e10a740000801ca099d4193ac9bb754b866f40e1232882bfcdb2c912fc366c2e582513d84daadca3a0519c56258b00dc916d5e4b91c4528b077a80700c047da44e6b4f1c357ce5cdf9",
      "networkId": 0,
      "chainId": 0
    },
    {
      "hash": "0x1a3f2e655c205f211089de30f3e45820094492052e7465ce706b8171a45d2062",
      "blockHash": "0x2d9548ab4de10ac724f337cd99da508b9874605291cb85d4e76e0f19c6c3d568",
      "blockNumber": 89504,
      "transactionIndex": 1,
      "confirmations": null,
      "from": "0x32Be343B94f860124dC4fEe278FDCBD38C102D88",
      "gasPrice": {
        "_hex": "0xd15f6214e"
      },
      "gasLimit": {
        "_hex": "0x5208"
      },
      "to": "0x733e9eef525d92A0729316F65850dEA8c2E80Fda",
      "value": {
        "_hex": "0x116536a67e100000"
      },
      "nonce": 844,
      "data": "0x",
      "r": "0xd85eeadbed78d7aaae8527918ea560137a650a7259fea680e8fab489b3779cbd",
      "s": "0x0fc7834273d5cbc9aba6de240e6f41a19cab90d6a5c9d2aa42df41bbe59107ef",
      "v": 27,
      "creates": null,
      "raw": "0xf86e82034c850d15f6214e82520894733e9eef525d92a0729316f65850dea8c2e80fda88116536a67e100000801ba0d85eeadbed78d7aaae8527918ea560137a650a7259fea680e8fab489b3779cbda00fc7834273d5cbc9aba6de240e6f41a19cab90d6a5c9d2aa42df41bbe59107ef",
      "networkId": 0,
      "chainId": 0
    },
    {
      "hash": "0x9b3f2f8180aff7c2b129222496e8299ca90929ae29f6791aecb45ab8bb537862",
      "blockHash": "0x2d9548ab4de10ac724f337cd99da508b9874605291cb85d4e76e0f19c6c3d568",
      "blockNumber": 89504,
      "transactionIndex": 2,
      "confirmations": null,
      "from": "0xD0317e8d007a61B8d740516E8a268D4faDADccbF",
      "gasPrice": {
        "_hex": "0xd12985bc3"
      },
      "gasLimit": {
        "_hex": "0x15f90"
      },
      "to": "0xdeE4977F74E6Aef6D627191c9A45D2627e331150",
      "value": {
        "_hex": "0xd02ab486cedc0000"
      },
      "nonce": 3,
      "data": "0x",
      "r": "0xe8b51b19c8b3a102b35082578485ba1186af2f38aad6f32d25346b0144552d65",
      "s": "0x17cbc53c2ba81e71e45a8ba46e0b5824924f4919a50cf3e83d739f3376fdf339",
      "v": 28,
      "creates": null,
      "raw": "0xf86d03850d12985bc383015f9094dee4977f74e6aef6d627191c9a45d2627e33115088d02ab486cedc0000801ca0e8b51b19c8b3a102b35082578485ba1186af2f38aad6f32d25346b0144552d65a017cbc53c2ba81e71e45a8ba46e0b5824924f4919a50cf3e83d739f3376fdf339",
      "networkId": 0,
      "chainId": 0
    }
  ]
}