{
  "hash": "0x8ee7011222d85e0a75bc13c7ad7cee58b96a1a4ac53b7606491588d3fcbf6c6c",
  "parentHash": "0x19d5244b77b5f363f605b1e51fa44c2a0824a6bfb243e2a7060ade906636d72e",
  "number": 46560,
  "timestamp": 1438925305,
  "nonce": "0x16672f4ab103c477",
  "difficulty": 1460348521755,
  "gasLimit": {
    "_hex": "0x6875"
  },
  "gasUsed": {
    "_hex": "0x5208"
  },
  "miner": "0xf927a40C8B7F6E07c5af7FA2155B4864a4112B13",
  "extraData": "0x476574682f76312e302e312f6c696e75782f676f312e342e32",
  "transactions": [
    {
      "hash": "0x53ae70f1960ca3223d174ef138c1bee705eabfb1a1810c549a617d4776607fd9",
      "blockHash": "0x8ee7011222d85e0a75bc13c7ad7cee58b96a1a4ac53b7606491588d3fcbf6c6c",
      "blockNumber": 46560,
      "transactionIndex": 0,
      "confirmations": null,
      "from": "0xd7E30ae310C1D1800F5B641Baa7af95b2e1FD98C",
      "gasPrice": {
        "_hex": "0x746a528800"
      },
      "gasLimit": {
        "_hex": "0x5208"
      },
      "to": "0x4019b21f3dB1F288414aC180f3Ea63315B12a7aC",
      "value": {
        "_hex": "0xde0b6b3a7640000"
      },
      "nonce": 1,
      "data": "0x",
      "r": "0x3b0d5964e179c7fb3bf3b6e67c4a8638228cd50ccb7b3afaf3fd8ebc6fd206e2",
      "s": "0x19cdc692fafba6e865a64fa3b7dcb8a5b387576a86d93122495373eb0c9e679e",
      "v": 27,
      "creates": null,
      "raw": "0xf86c0185746a528800825208944019b21f3db1f288414ac180f3ea63315b12a7ac880de0b6b3a7640000801ba03b0d5964e179c7fb3bf3b6e67c4a8638228cd50ccb7b3afaf3fd8ebc6fd206e2a019cdc692fafba6e865a64fa3b7dcb8a5b387576a86d93122495373eb0c9e679e",
      "networkId": 0,
      "chainId": 0
    }
  ]
}