{
  "hash": "0x284538da8251256b89411c075f2a0ab29c5a02c5049ef674b4c24ef62d31198f",
  "parentHash": "0xa4fe3ba9ffd1db461ebdb93060a63dd531a8bc224f74fcd005a9e83d0a441809",
  "number": 71446,
  "timestamp": 1439336222,
  "nonce": "0x220d0415f5010a31",
  "difficulty": 2179354696895,
  "gasLimit": {
    "_hex": "0x2fefd8"
  },
  "gasUsed": {
    "_hex": "0x93a7"
  },
  "miner": "0xf8E0CA3Ed80bd541b94BEdCf259e8CF2141A9523",
  "extraData": "0x476574682f76312e302e312f77696e646f77732f676f312e342e32",
  "transactions": [
    {
      "hash": "0x38114f817aa599d604a1883c6c9de8c377528a186f0cd62d9170f175fcf41f35",
      "blockHash": "0x284538da8251256b89411c075f2a0ab29c5a02c5049ef674b4c24ef62d31198f",
      "blockNumber": 71446,
      "transactionIndex": 0,
      "confirmations": null,
      "from": "0x17580B766f7453525ca4C6A88b01b50570EA088C",
      "gasPrice": {
        "_hex": "0xcf85fc917"
      },
      "gasLimit": {
        "_hex": "0x61a80"
      },
      "to": "0x5Fe5B7546D1628f7348B023A0393de1FC825A4fD",
      "value": {
        "_hex": "0x29a2241af62c0000"
      },
      "nonce": 192,
      "data": "0xb595b8b50000000000000000000000000000000000000000000000000000000000000000",
      "r": "0x151bddd60740504d6b93f4bc8dc3a2a456f1a409a2a84783721e2cae96c2ab9a",
      "s": "0x3024e49b7512d0d2eb59dcbeacc41a4c1fc97941d680145a945fb49f3eaf65be",
      "v": 27,
      "creates": null,
      "raw": "0xf89281c0850cf85fc91783061a80945fe5b7546d1628f7348b023a0393de1fc825a4fd8829a2241af62c0000a4b595b8b500000000000000000000000000000000000000000000000000000000000000001ba0151bddd60740504d6b93f4bc8dc3a2a456f1a409a2a84783721e2cae96c2ab9aa03024e49b7512d0d2eb59dcbeacc41a4c1fc97941d680145a945fb49f3eaf65be",
      "networkId": 0,
      "chainId": 0
    }
  ]
}