{
  "hash": "0x53315036a85251a02366998427cb8b3d39521536724ed1478af7276992aba1dd",
  "parentHash": "0xc7df7a81b94fcb27693245401d2d275196055ff25622a878ba83c397a8881822",
  "number": 105717,
  "timestamp": 1439892397,
  "nonce": "0x31818cfe60152ca5",
  "difficulty": 4399480320490,
  "gasLimit": {
    "_hex": "0x2fefd8"
  },
  "gasUsed": {
    "_hex": "0x5208"
  },
  "miner": "0xe6A7a1d47ff21B6321162AEA7C6CB457D5476Bca",
  "extraData": "0x476574682f76312e302e312d38326566323666362f6c696e75782f676f312e34",
  "transactions": [
    {
      "hash": "0x464341be4a011776c5318626f865b1890d7e6f819f3e5b2fa32eccc2fc037670",
      "blockHash": "0x53315036a85251a02366998427cb8b3d39521536724ed1478af7276992aba1dd",
      "blockNumber": 105717,
      "transactionIndex": 0,
      "confirmations": null,
      "from": "0x610821723ac6726cBCec2037C83743dfbDADa663",
      "gasPrice": {
        "_hex": "0xe17e7f720"
      },
      "gasLimit": {
        "_hex": "0x15f90"
      },
      "to": "0xda4018EC8389397D5137De84129c185b705Cfc5C",
      "value": {
        "_hex": "0x6124fee993bc0000"
      },
      "nonce": 1,
      "data": "0x",
      "r": "0x5b9d4ad871b576013e329b1c13fc8c6d4d4170759db1ad2e69861ea636a415c3",
      "s": "0x51cfe799894cf5edd18d9dd043275ebd94ad790f7e3232aa4704e9cdcd4af287",
      "v": 28,
      "creates": null,
      "raw": "0xf86d01850e17e7f72083015f9094da4018ec8389397d5137de84129c185b705cfc5c886124fee993bc0000801ca05b9d4ad871b576013e329b1c13fc8c6d4d4170759db1ad2e69861ea636a415c3a051cfe799894cf5edd18d9dd043275ebd94ad790f7e3232aa4704e9cdcd4af287",
      "networkId": 0,
      "chainId": 0
    }
  ]
}