{
  "hash": "0x3fca591de7489e7dca60f8d4c4d661acea20374ad22064ec34e3dd54964a0185",
  "parentHash": "0x5ac047e0885f6e0c643b4cc1b3604c31d27a34cd0e6b351e8edda65a612e649a",
  "number": 68468,
  "timestamp": 1439288394,
  "nonce": "0x689271db9f46c82c",
  "difficulty": 2010390805526,
  "gasLimit": {
    "_hex": "0x2fefd8"
  },
  "gasUsed": {
    "_hex": "0x19a28"
  },
  "miner": "0xe6A7a1d47ff21B6321162AEA7C6CB457D5476Bca",
  "extraData": "0x476574682f76312e302e312d38326566323666362f6c696e75782f676f312e34",
  "transactions": [
    {
      "hash": "0xf0b0f73ee020506d0207fb7c7a3c648ae8a84b92cb3b07cc488865140a8ba2d4",
      "blockHash": "0x3fca591de7489e7dca60f8d4c4d661acea20374ad22064ec34e3dd54964a0185",
      "blockNumber": 68468,
      "transactionIndex": 0,
      "confirmations": null,
      "from": "0x4cCf56BeE3513deF37532934E22d2269167C672b",
      "gasPrice": {
        "_hex": "0xba43b7400"
      },
      "gasLimit": {
        "_hex": "0x5208"
      },
      "to": "0x5F989E660327FE8650204C07E3fCcAd2FddF4061",
      "value": {
        "_hex": "0x36ef271c4dd000"
      },
      "nonce": 1,
      "data": "0x",
      "r": "0x0a5d06c9cdd892b2b035033f646d67888c11cc83a81ff252fd46522ffc06434c",
      "s": "0x39b514dc02af78028f91046da680d3b187bfb5a3599c7f4cf4f2c45653a57a2c",
      "v": 27,
      "creates": null,
      "raw": "0xf86b01850ba43b7400825208945f989e660327fe8650204c07e3fccad2fddf40618736ef271c4dd000801ba00a5d06c9cdd892b2b035033f646d67888c11cc83a81ff252fd46522ffc06434ca039b514dc02af78028f91046da680d3b187bfb5a3599c7f4cf4f2c45653a57a2c",
      "networkId": 0,
      "chainId": 0
    },
    {
      "hash": "0x8cc6b4c06797cee9a2126ddcf8ae2e8a63af050fc7fc72fb92b263d31d2910ff",
      "blockHash": "0x3fca591de7489e7dca60f8d4c4d661acea20374ad22064ec34e3dd54964a0185",
      "blockNumber": 68468,
      "transactionIndex": 1,
      "confirmations": null,
      "from": "0x55fAEA470691FfcD333B40921ba5b2038Fb63d38",
      "gasPrice": {
        "_hex": "0xba43b7400"
      },
      "gasLimit": {
        "_hex": "0x5208"
      },
      "to": "0x8A91a535053BaB16684969a02BDCE115f2877ABC",
      "value": {
        "_hex": "0x36ef271c4dd000"
      },
      "nonce": 1,
      "data": "0x",
      "r": "0x75f760ceab5bbf89fdbcc81d8620e22228c2bdc5cb261ed085d58d9a00cac054",
      "s": "0x768bd85e5f0ea7694729a1f33a4f426368d526729f6c2248a58e32760e543280",
      "v": 28,
      "creates": null,
      "raw": "0xf86b01850ba43b7400825208948a91a535053bab16684969a02bdce115f2877abc8736ef271c4dd000801ca075f760ceab5bbf89fdbcc81d8620e22228c2bdc5cb261ed085d58d9a00cac054a0768bd85e5f0ea7694729a1f33a4f426368d526729f6c2248a58e32760e543280",
      "networkId": 0,
      "chainId": 0
    },
    {
      "hash": "0x53691536f741b1437c40549d76ec2897086438212b044c9a59c224125b5b84ca",
      "blockHash": "0x3fca591de7489e7dca60f8d4c4d661acea20374ad22064ec34e3dd54964a0185",
      "blockNumber": 68468,
      "transactionIndex": 2,
      "confirmations": null,
      "from": "0x81D1F8d19733393c3a4E3e80DFfF7B8B121E0D1A",
      "gasPrice": {
        "_hex": "0xba43b7400"
      },
      "gasLimit": {
        "_hex": "0x5208"
      },
      "to": "0x8d0e00bDd4465e79CF779D116eeC20EB78438DCe",
      "value": {
        "_hex": "0x36ef271c4dd000"
      },
      "nonce": 1,
      "data": "0x",
      "r": "0xf0525d809d6ea494c437f71ef405129431340898d458a188969a3d49073fb72d",
      "s": "0x78793e8469acb63677cd216627edc5b6715b593a1a663905b26b7061d8909621",
      "v": 28,
      "creates": null,
      "raw": "0xf86b01850ba43b7400825208948d0e00bdd4465e79cf779d116eec20eb78438dce8736ef271c4dd000801ca0f0525d809d6ea494c437f71ef405129431340898d458a188969a3d49073fb72da078793e8469acb63677cd216627edc5b6715b593a1a663905b26b7061d8909621",
      "networkId": 0,
      "chainId": 0
    },
    {
      "hash": "0xf13ffc582f59d2f8e8e6442db7c89209a9414fa131b1f3bffabff8fa8e5ad2e6",
      "blockHash": "0x3fca591de7489e7dca60f8d4c4d661acea20374ad22064ec34e3dd54964a0185",
      "blockNumber": 68468,
      "transactionIndex": 3,
      "confirmations": null,
      "from": "0x1f0Bf531e8D51c6b4a07A72f03b3e5b5891b05e6",
      "gasPrice": {
        "_hex": "0xba43b7400"
      },
      "gasLimit": {
        "_hex": "0x5208"
      },
      "to": "0xdD495c59126DDfe21011e03Ea9f4aE1e5e4fE6b1",
      "value": {
        "_hex": "0x36ef271c4dd000"
      },
      "nonce": 1,
      "data": "0x",
      "r": "0x4cc52643eb55b3320bb653736bc906bd39d113abc9d77460b3c7f8090aaaa749",
      "s": "0x1797686ca1b07bcd5141979c4bf6d25cae08340b7f756494fa820c46ff390619",
      "v": 27,
      "creates": null,
      "raw": "0xf86b01850ba43b740082520894dd495c59126ddfe21011e03ea9f4ae1e5e4fe6b18736ef271c4dd000801ba04cc52643eb55b3320bb653736bc906bd39d113abc9d77460b3c7f8090aaaa749a01797686ca1b07bcd5141979c4bf6d25cae08340b7f756494fa820c46ff390619",
      "networkId": 0,
      "chainId": 0
    },
    {
      "hash": "0xe888c54bea8a8667e5da94f8d988d848bcea0037e1545f7bd81284cb60ac56d6",
      "blockHash": "0x3fca591de7489e7dca60f8d4c4d661acea20374ad22064ec34e3dd54964a0185",
      "blockNumber": 68468,
      "transactionIndex": 4,
      "confirmations": null,
      "from": "0x684cde0e79BD0C3bE93a8C17659f510f5f0A9CAd",
      "gasPrice": {
        "_hex": "0xba43b7400"
      },
      "gasLimit": {
        "_hex": "0x5208"
      },
      "to": "0x5B38c92E8d999ffe382B6873e75041139f494f73",
      "value": {
        "_hex": "0x36ef271c4dd000"
      },
      "nonce": 1,
      "data": "0x",
      "r": "0x981dcf7e347cd4d13376974b86d09bdf1ff8e599c7a4354691ade330587794aa",
      "s": "0x7e96323c1c2d726b45d6b1029db3dbaeafbbbfcb58041450e013b016070ff05f",
      "v": 27,
      "creates": null,
      "raw": "0xf86b01850ba43b7400825208945b38c92e8d999ffe382b6873e75041139f494f738736ef271c4dd000801ba0981dcf7e347cd4d13376974b86d09bdf1ff8e599c7a4354691ade330587794aaa07e96323c1c2d726b45d6b1029db3dbaeafbbbfcb58041450e013b016070ff05f",
      "networkId": 0,
      "chainId": 0
    }
  ]
}