{
  "hash": "0x62b6823f5b3c3ac831b7455dbdd5535b0ae7340c2e089b734f8dfbe149be49e7",
  "parentHash": "0x80128616f022462364775e29d6e5730f0b8ab36ec472d59d28c65100c71dc96c",
  "number": 84853,
  "timestamp": 1439555357,
  "nonce": "0xeb5b179cd5ff4dde",
  "difficulty": 2654247183223,
  "gasLimit": {
    "_hex": "0x2fefd8"
  },
  "gasUsed": {
    "_hex": "0xa7e0"
  },
  "miner": "0xfC25864D8326b4CB335C6942218e5F4Ee8D1E1EF",
  "extraData": "0x476574682f76312e302e312f77696e646f77732f676f312e342e32",
  "transactions": [
    {
      "hash": "0xf1fb6de4d763992af8d954906240c5d8b3ed4bf69b4fc06e3a21b396df14c9fa",
      "blockHash": "0x62b6823f5b3c3ac831b7455dbdd5535b0ae7340c2e089b734f8dfbe149be49e7",
      "blockNumber": 84853,
      "transactionIndex": 0,
      "confirmations": null,
      "from": "0xc539E5d2311bc56B7aBb15e01af9b15f04e16c6D",
      "gasPrice": {
        "_hex": "0x10f65bc3531"
      },
      "gasLimit": {
        "_hex": "0x15f90"
      },
      "to": "0x0000000000000000000000000000000000000000",
      "value": {
        "_hex": "0xde0b6b3a7640000"
      },
      "nonce": 1,
      "data": "0xb214faa5374848374d433731530000000000000000000000000000000000000000000000",
      "r": "0x7f220435ee068bd4dd43ecaeefe931a4d9a5016ce6a2b4ba8abf7141a2148f76",
      "s": "0x3538bbde14a623eed9eb50c5c4cb3abbb56c15404d46295f277689def92896f2",
      "v": 27,
      "creates": null,
      "raw": "0xf8920186010f65bc353183015f90940000000000000000000000000000000000000000880de0b6b3a7640000a4b214faa5374848374d4337315300000000000000000000000000000000000000000000001ba07f220435ee068bd4dd43ecaeefe931a4d9a5016ce6a2b4ba8abf7141a2148f76a03538bbde14a623eed9eb50c5c4cb3abbb56c15404d46295f277689def92896f2",
      "networkId": 0,
      "chainId": 0
    },
    {
      "hash": "0xa9941f1d7f110d2be7e5508be9ecda26c73feca5eac307cfa6bf700b68f5c681",
      "blockHash": "0x62b6823f5b3c3ac831b7455dbdd5535b0ae7340c2e089b734f8dfbe149be49e7",
      "blockNumber": 84853,
      "transactionIndex": 1,
      "confirmations": null,
      "from": "0x6bA20db629F46Fa525F5080d151B714a758dDff2",
      "gasPrice": {
        "_hex": "0xd8364fc25"
      },
      "gasLimit": {
        "_hex": "0x15f90"
      },
      "to": "0x23f2D0fd3B4C98Fb1698564deB4898275E2e831f",
      "value": {
        "_hex": "0x6adbe53422820000"
      },
      "nonce": 1,
      "data": "0x",
      "r": "0x6241bee144bccfdd04fc17855abba2a31c348d403453a95f781a37528de9e4c6",
      "s": "0x6b0ce089a9adbfc441b20c150f6210c53e18f599c517c3567aed01093fdc8bb7",
      "v": 28,
      "creates": null,
      "raw": "0xf86d01850d8364fc2583015f909423f2d0fd3b4c98fb1698564deb4898275e2e831f886adbe53422820000801ca06241bee144bccfdd04fc17855abba2a31c348d403453a95f781a37528de9e4c6a06b0ce089a9adbfc441b20c150f6210c53e18f599c517c3567aed01093fdc8bb7",
      "networkId": 0,
      "chainId": 0
    }
  ]
}