{
  "hash": "0x5ec898b0b96a9d83b17744a82edd829e77db4bc377a02ba5aa6a45cad5a76749",
  "parentHash": "0x63fc18bde796296a59b666d81ff3f7195d13acd149b02b0cc9af407e1022b953",
  "number": 119622,
  "timestamp": 1440146098,
  "nonce": "0x180baf2f6f6e94de",
  "difficulty": 4385764591045,
  "gasLimit": {
    "_hex": "0x2fefd8"
  },
  "gasUsed": {
    "_hex": "0xf618"
  },
  "miner": "0x4947190fcC30D3fb3a16233b259bFe6b3492339a",
  "extraData": "0xd783010100844765746887676f312e342e32856c696e7578",
  "transactions": [
    {
      "hash": "0x054c76cc1e5e43e9a24954df5373450af7e3ade5b9da5c3f856275526b67a135",
      "blockHash": "0x5ec898b0b96a9d83b17744a82edd829e77db4bc377a02ba5aa6a45cad5a76749",
      "blockNumber": 119622,
      "transactionIndex": 0,
      "confirmations": null,
      "from": "0xBb7f43EDfd8bf08B022fEd5BD91e3f9dE7e74D09",
      "gasPrice": {
        "_hex": "0xba43b7400"
      },
      "gasLimit": {
        "_hex": "0x5208"
      },
      "to": "0x32Be343B94f860124dC4fEe278FDCBD38C102D88",
      "value": {
        "_hex": "0xddcfbbb7a606000"
      },
      "nonce": 10,
      "data": "0x",
      "r": "0x0ac07d6d2e372d73e24e92d1faa1489575ebc09ba9ce7b5b3a70c11d54921cf4",
      "s": "0x585fb4a932cec06e673fdf54386063b4eb1343f1d6e099083df3a5e9cf517756",
      "v": 28,
      "creates": null,
      "raw": "0xf86c0a850ba43b74008252089432be343b94f860124dc4fee278fdcbd38c102d88880ddcfbbb7a606000801ca00ac07d6d2e372d73e24e92d1faa1489575ebc09ba9ce7b5b3a70c11d54921cf4a0585fb4a932cec06e673fdf54386063b4eb1343f1d6e099083df3a5e9cf517756",
      "networkId": 0,
      "chainId": 0
    },
    {
      "hash": "0x3774bbba6facb4fc151fbd22488b01de25ba8fcc0fddd82c450325bbaeff0bf0",
      "blockHash": "0x5ec898b0b96a9d83b17744a82edd829e77db4bc377a02ba5aa6a45cad5a76749",
      "blockNumber": 119622,
      "transactionIndex": 1,
      "confirmations": null,
      "from": "0x931Ac2444b057f80A06A4FB627f26FFA5CE41184",
      "gasPrice": {
        "_hex": "0xba43b7400"
      },
      "gasLimit": {
        "_hex": "0x5208"
      },
      "to": "0x32Be343B94f860124dC4fEe278FDCBD38C102D88",
      "value": {
        "_hex": "0x1b64b6ca4eea590000"
      },
      "nonce": 12,
      "data": "0x",
      "r": "0x121edf2608b6c5c113939c1f040981478e50c148be98701e12e4ee9beb769400",
      "s": "0x08dc03e03d76dafeb6208590ff7f5968c69ba8c27adcf2fe9aa0a2eb078b5ae1",
      "v": 28,
      "creates": null,
      "raw": "0xf86d0c850ba43b74008252089432be343b94f860124dc4fee278fdcbd38c102d88891b64b6ca4eea590000801ca0121edf2608b6c5c113939c1f040981478e50c148be98701e12e4ee9beb769400a008dc03e03d76dafeb6208590ff7f5968c69ba8c27adcf2fe9aa0a2eb078b5ae1",
      "networkId": 0,
      "chainId": 0
    },
    {
      "hash": "0x7d898cef40ec8ec2676f29b2197dba7bc11e5a1ef471aa3337c0bc2fd23426c9",
      "blockHash": "0x5ec898b0b96a9d83b17744a82edd829e77db4bc377a02ba5aa6a45cad5a76749",
      "blockNumber": 119622,
      "transactionIndex": 2,
      "confirmations": null,
      "from": "0xa70a9a7040d542C632D8e0bE7c5513A8a5Bbc752",
      "gasPrice": {
        "_hex": "0xba43b7400"
      },
      "gasLimit": {
        "_hex": "0x5208"
      },
      "to": "0x32Be343B94f860124dC4fEe278FDCBD38C102D88",
      "value": {
        "_hex": "0x456b86502ae19400"
      },
      "nonce": 323,
      "data": "0x",
      "r": "0x2f2a290dcd0b83843470ef201ad426f5db532efc9118ee89ae2963c68ee1b1b9",
      "s": "0x0904cfc55c770c85b4d2fbe05912353e85e7be5f993f1ecabf2b9b22c59f5cd6",
      "v": 27,
      "creates": null,
      "raw": "0xf86e820143850ba43b74008252089432be343b94f860124dc4fee278fdcbd38c102d8888456b86502ae19400801ba02f2a290dcd0b83843470ef201ad426f5db532efc9118ee89ae2963c68ee1b1b9a00904cfc55c770c85b4d2fbe05912353e85e7be5f993f1ecabf2b9b22c59f5cd6",
      "networkId": 0,
      "chainId": 0
    }
  ]
}