{
  "hash": "0x2423a17eba5106697283bd6b70364c4b0951dac8baf4700772bc35d405c878cd",
  "parentHash": "0x162393695fd23dc3613e34cb2e0f024db3d135f11030c0f139e7bfe577e74e14",
  "number": 105841,
  "timestamp": 1439894275,
  "nonce": "0x464e466d754f5833",
  "difficulty": 4455623278493,
  "gasLimit": {
    "_hex": "0x2fefd8"
  },
  "gasUsed": {
    "_hex": "0x5208"
  },
  "miner": "0x790b8a3cE86E707ED0eD32bF89B3269692a23CC1",
  "extraData": "0xd783010001844765746887676f312e342e32856c696e7578",
  "transactions": [
    {
      "hash": "0x5a2e6e7e6449c9f59135c754d539502733907cc1da2af9a5b1d1a598fabb1684",
      "blockHash": "0x2423a17eba5106697283bd6b70364c4b0951dac8baf4700772bc35d405c878cd",
      "blockNumber": 105841,
      "transactionIndex": 0,
      "confirmations": null,
      "from": "0x60f7C29656Fc491e766750556fE4F0E407f81eB5",
      "gasPrice": {
        "_hex": "0xd6f714adc"
      },
      "gasLimit": {
        "_hex": "0x15f90"
      },
      "to": "0x5773DFFDd4AD3114CAB6eFE3b9Ca703Fa450Fe40",
      "value": {
        "_hex": "0x3e8"
      },
      "nonce": 2,
      "data": "0x",
      "r": "0x634e733b7396fc163e3ca4e81b9895a6f2b79d4a7ed860f1509063081504f696",
      "s": "0x3733b085d7232d00193a7ef1cdd6e5fc9dfc321cb2937cb0b9446b98ce828566",
      "v": 28,
      "creates": null,
      "raw": "0xf86702850d6f714adc83015f90945773dffdd4ad3114cab6efe3b9ca703fa450fe408203e8801ca0634e733b7396fc163e3ca4e81b9895a6f2b79d4a7ed860f1509063081504f696a03733b085d7232d00193a7ef1cdd6e5fc9dfc321cb2937cb0b9446b98ce828566",
      "networkId": 0,
      "chainId": 0
    }
  ]
}