{
  "hash": "0x739abde5c967efbfde426e093a9512b2e27234d85a7afa558cfcfffd27141154",
  "parentHash": "0x9596fb8f8a7ed43c9512de8224a32eac1ff4d69a3019207be9fef8e03a94fa62",
  "number": 88921,
  "timestamp": 1439615505,
  "nonce": "0x1078d4c7325cac07",
  "difficulty": 3250475002601,
  "gasLimit": {
    "_hex": "0x2fefd8"
  },
  "gasUsed": {
    "_hex": "0x5208"
  },
  "miner": "0x900deD2eC098c430caD5347E6F3322932D7BB3a9",
  "extraData": "0x476574682f76312e302e312f77696e646f77732f676f312e342e32",
  "transactions": [
    {
      "hash": "0x4d381b9de0b1e3bdabc7160fde53f69c648733fd69e4d320bdd358c51237c995",
      "blockHash": "0x739abde5c967efbfde426e093a9512b2e27234d85a7afa558cfcfffd27141154",
      "blockNumber": 88921,
      "transactionIndex": 0,
      "confirmations": null,
      "from": "0xF9634a7Ee627EeF74f4d803113CD4F87E5162079",
      "gasPrice": {
        "_hex": "0xba43b7400"
      },
      "gasLimit": {
        "_hex": "0x5b04"
      },
      "to": "0x9f78552704fe7e52cC7C3853534aA2C3cf580D54",
      "value": {
        "_hex": "0xd02ab486cedc0000"
      },
      "nonce": 10,
      "data": "0x",
      "r": "0x43fb5cb013992b191a889774bab001d67767c9a0b026d9b91d9406eee9f8bf9a",
      "s": "0xe85cad213b73f68678e9d66ff59e6e3d10d23f86add65073c6b09c600c543a8f",
      "v": 28,
      "creates": null,
      "raw": "0xf86c0a850ba43b7400825b04949f78552704fe7e52cc7c3853534aa2c3cf580d5488d02ab486cedc0000801ca043fb5cb013992b191a889774bab001d67767c9a0b026d9b91d9406eee9f8bf9aa0e85cad213b73f68678e9d66ff59e6e3d10d23f86add65073c6b09c600c543a8f",
      "networkId": 0,
      "chainId": 0
    }
  ]
}