{
  "hash": "0x5402c5b372cec183a16b3f54ad3f0c1fd54d6771ae3b36ea4c2c7ab3f7b9ff7f",
  "parentHash": "0xd6bdda860bf98a6232d782f6a19a23bf5309e55880ec99eba363b019027223ef",
  "number": 105321,
  "timestamp": 1439885547,
  "nonce": "0x271d8d2c12f97c73",
  "difficulty": 4361188311142,
  "gasLimit": {
    "_hex": "0x2fefd8"
  },
  "gasUsed": {
    "_hex": "0x29040"
  },
  "miner": "0xe6A7a1d47ff21B6321162AEA7C6CB457D5476Bca",
  "extraData": "0x476574682f76312e302e312d38326566323666362f6c696e75782f676f312e34",
  "transactions": [
    {
      "hash": "0x1b698d7642a45f18a8797694308c221cbd902d7b28c40dcce5037777b8b22700",
      "blockHash": "0x5402c5b372cec183a16b3f54ad3f0c1fd54d6771ae3b36ea4c2c7ab3f7b9ff7f",
      "blockNumber": 105321,
      "transactionIndex": 0,
      "confirmations": null,
      "from": "0xAba5352947CBaEAcf6B2E11E03EaE0008176aeDF",
      "gasPrice": {
        "_hex": "0xd9e7bcafe"
      },
      "gasLimit": {
        "_hex": "0x5208"
      },
      "to": "0x32Be343B94f860124dC4fEe278FDCBD38C102D88",
      "value": {
        "_hex": "0x178fc5bf4f30f400"
      },
      "nonce": 6,
      "data": "0x",
      "r": "0x3c3897cae733bfee5a6949720b2e95b2251359fbc6593ec9bd97c1f9fcd21700",
      "s": "0x77dd1b9b01d2d407aeb5198cd82e3e9a4d81f3a23e4dd86798ebb19d9ab9beed",
      "v": 27,
      "creates": null,
      "raw": "0xf86c06850d9e7bcafe8252089432be343b94f860124dc4fee278fdcbd38c102d8888178fc5bf4f30f400801ba03c3897cae733bfee5a6949720b2e95b2251359fbc6593ec9bd97c1f9fcd21700a077dd1b9b01d2d407aeb5198cd82e3e9a4d81f3a23e4dd86798ebb19d9ab9beed",
      "networkId": 0,
      "chainId": 0
    },
    {
      "hash": "0x355f1d46609ca74e9e8409cb61e562d84c82cddf797074d567a23100034874cd",
      "blockHash": "0x5402c5b372cec183a16b3f54ad3f0c1fd54d6771ae3b36ea4c2c7ab3f7b9ff7f",
      "blockNumber": 105321,
      "transactionIndex": 1,
      "confirmations": null,
      "from": "0xe6A7a1d47ff21B6321162AEA7C6CB457D5476Bca",
      "gasPrice": {
        "_hex": "0xd0c96f244"
      },
      "gasLimit": {
        "_hex": "0x55f0"
      },
      "to": "0x51f8ecFF73486E3161082dDEc7FbB5450b45D689",
      "value": {
        "_hex": "0x4701dbd37e7e6c58"
      },
      "nonce": 3768,
      "data": "0x",
      "r": "0x317e8f79d05d955129f076899aac13e023831b1888e5f0098743bd2797fb8b09",
      "s": "0x5e8c99dd8fba92a8eb23b15eca074131c8b130b78d0d3e68ac0d5c6ed6983325",
      "v": 27,
      "creates": null,
      "raw": "0xf86e820eb8850d0c96f2448255f09451f8ecff73486e3161082ddec7fbb5450b45d689884701dbd37e7e6c58801ba0317e8f79d05d955129f076899aac13e023831b1888e5f0098743bd2797fb8b09a05e8c99dd8fba92a8eb23b15eca074131c8b130b78d0d3e68ac0d5c6ed6983325",
      "networkId": 0,
      "chainId": 0
    },
    {
      "hash": "0x036706d09a7788776240084c970be8aad051a3a2b603963f25bb8fed093d7fb0",
      "blockHash": "0x5402c5b372cec183a16b3f54ad3f0c1fd54d6771ae3b36ea4c2c7ab3f7b9ff7f",
      "blockNumber": 105321,
      "transactionIndex": 2,
      "confirmations": null,
      "from": "0xe6A7a1d47ff21B6321162AEA7C6CB457D5476Bca",
      "gasPrice": {
        "_hex": "0xd0c96f244"
      },
      "gasLimit": {
        "_hex": "0x55f0"
      },
      "to": "0x9B743b996E5FD8416cdD0D9F8C13FA7F7eE0BdfA",
      "value": {
        "_hex": "0x470dd69b0038fe20"
      },
      "nonce": 3769,
      "data": "0x",
      "r": "0xa2660c5ce7368f0c86a369a3be35e8271f4ceb0758b8eeff6eb4b17941fec12c",
      "s": "0x09203f7c4a4c085f8c23c1bfc4fe04b3a5b2c1824eccf310befe785a2dd70a6e",
      "v": 27,
      "creates": null,
      "raw": "0xf86e820eb9850d0c96f2448255f0949b743b996e5fd8416cdd0d9f8c13fa7f7ee0bdfa88470dd69b0038fe20801ba0a2660c5ce7368f0c86a369a3be35e8271f4ceb0758b8eeff6eb4b17941fec12ca009203f7c4a4c085f8c23c1bfc4fe04b3a5b2c1824eccf310befe785a2dd70a6e",
      "networkId": 0,
      "chainId": 0
    },
    {
      "hash": "0xd467ed895ca6d64c657479ee1b461ab8e8d6312b983686e2adfdf1cc12fbbfcd",
      "blockHash": "0x5402c5b372cec183a16b3f54ad3f0c1fd54d6771ae3b36ea4c2c7ab3f7b9ff7f",
      "blockNumber": 105321,
      "transactionIndex": 3,
      "confirmations": null,
      "from": "0xe6A7a1d47ff21B6321162AEA7C6CB457D5476Bca",
      "gasPrice": {
        "_hex": "0xd0c96f244"
      },
      "gasLimit": {
        "_hex": "0x55f0"
      },
      "to": "0x6Ca7109e3020A822bc419d4F8d35F6b929398407",
      "value": {
        "_hex": "0x472154645b928d68"
      },
      "nonce": 3770,
      "data": "0x",
      "r": "0x5b6fd71b2330a3b9d2f37a97afb7fb6bf40d6c8a253bd87672ee332178a07306",
      "s": "0x249776e73257a0e4c9f2ea1a04fb69627f4d62dc3e12f59168942bb35bf2a953",
      "v": 27,
      "creates": null,
      "raw": "0xf86e820eba850d0c96f2448255f0946ca7109e3020a822bc419d4f8d35f6b92939840788472154645b928d68801ba05b6fd71b2330a3b9d2f37a97afb7fb6bf40d6c8a253bd87672ee332178a07306a0249776e73257a0e4c9f2ea1a04fb69627f4d62dc3e12f59168942bb35bf2a953",
      "networkId": 0,
      "chainId": 0
    },
    {
      "hash": "0x88f75dd9fbed9fbe561e3002aa502db1597f0185deffadf23b18b364be9451f1",
      "blockHash": "0x5402c5b372cec183a16b3f54ad3f0c1fd54d6771ae3b36ea4c2c7ab3f7b9ff7f",
      "blockNumber": 105321,
      "transactionIndex": 4,
      "confirmations": null,
      "from": "0xe6A7a1d47ff21B6321162AEA7C6CB457D5476Bca",
      "gasPrice": {
        "_hex": "0xd0c96f244"
      },
      "gasLimit": {
        "_hex": "0x55f0"
      },
      "to": "0x7af25C80793a1CBaBE39Ac9d604729017d9E4001",
      "value": {
        "_hex": "0x47f9fed0adf8e378"
      },
      "nonce": 3771,
      "data": "0x",
      "r": "0xda220f7f3d52329bf51dbd3d412c63b5eea6064903c84610c6a8edb4d43b389d",
      "s": "0x60048e15046ed277b8ec018eec0209beed2e8e4d4665dfec375cde6f4184fc25",
      "v": 28,
      "creates": null,
      "raw": "0xf86e820ebb850d0c96f2448255f0947af25c80793a1cbabe39ac9d604729017d9e40018847f9fed0adf8e378801ca0da220f7f3d52329bf51dbd3d412c63b5eea6064903c84610c6a8edb4d43b389da060048e15046ed277b8ec018eec0209beed2e8e4d4665dfec375cde6f4184fc25",
      "networkId": 0,
      "chainId": 0
    },
    {
      "hash": "0xd62b029abf80919a7f58538359779a9d4f68dc05bc28389991a52a2ddb89fa56",
      "blockHash": "0x5402c5b372cec183a16b3f54ad3f0c1fd54d6771ae3b36ea4c2c7ab3f7b9ff7f",
      "blockNumber": 105321,
      "transactionIndex": 5,
      "confirmations": null,
      "from": "0xe6A7a1d47ff21B6321162AEA7C6CB457D5476Bca",
      "gasPrice": {
        "_hex": "0xd0c96f244"
      },
      "gasLimit": {
        "_hex": "0x55f0"
      },
      "to": "0x06Db13340f562261d079E4FA344802DdE8340307",
      "value": {
        "_hex": "0x481b36f2d7adf2f0"
      },
      "nonce": 3772,
      "data": "0x",
      "r": "0xce47ed42b2e089110ad5334a3c3c977a456a7bf4b4cb18c1b098956877986ec1",
      "s": "0x747bd28408a2c8af6ff89e2218d9481de47b45fa86a98fdd5a8a0e9952ad0e84",
      "v": 27,
      "creates": null,
      "raw": "0xf86e820ebc850d0c96f2448255f09406db13340f562261d079e4fa344802dde834030788481b36f2d7adf2f0801ba0ce47ed42b2e089110ad5334a3c3c977a456a7bf4b4cb18c1b098956877986ec1a0747bd28408a2c8af6ff89e2218d9481de47b45fa86a98fdd5a8a0e9952ad0e84",
      "networkId": 0,
      "chainId": 0
    },
    {
      "hash": "0x4d5b94c87f2696583764cef7ee4829e6ae6c645279002c22c38ae48d3ad69032",
      "blockHash": "0x5402c5b372cec183a16b3f54ad3f0c1fd54d6771ae3b36ea4c2c7ab3f7b9ff7f",
      "blockNumber": 105321,
      "transactionIndex": 6,
      "confirmations": null,
      "from": "0xe6A7a1d47ff21B6321162AEA7C6CB457D5476Bca",
      "gasPrice": {
        "_hex": "0xd0c96f244"
      },
      "gasLimit": {
        "_hex": "0x55f0"
      },
      "to": "0xC15233674F0Cb7729e4Ab8aB733430C40580914d",
      "value": {
        "_hex": "0x485f4bf874bed218"
      },
      "nonce": 3773,
      "data": "0x",
      "r": "0xb0e75673d55bdaa126504aedfbeca82817a5cb8090fe1812f4ca69a0ceb6c251",
      "s": "0x07690a53c2fea32df3b12f30de9dac857aa93e1d301385b4893402bd0c973359",
      "v": 28,
      "creates": null,
      "raw": "0xf86e820ebd850d0c96f2448255f094c15233674f0cb7729e4ab8ab733430c40580914d88485f4bf874bed218801ca0b0e75673d55bdaa126504aedfbeca82817a5cb8090fe1812f4ca69a0ceb6c251a007690a53c2fea32df3b12f30de9dac857aa93e1d301385b4893402bd0c973359",
      "networkId": 0,
      "chainId": 0
    },
    {
      "hash": "0x22a6807148551b91da3150d8bc91dd0ea27369fa19b2b54874450a2b1e5b51e6",
      "blockHash": "0x5402c5b372cec183a16b3f54ad3f0c1fd54d6771ae3b36ea4c2c7ab3f7b9ff7f",
      "blockNumber": 105321,
      "transactionIndex": 7,
      "confirmations": null,
      "from": "0xe6A7a1d47ff21B6321162AEA7C6CB457D5476Bca",
      "gasPrice": {
        "_hex": "0xd0c96f244"
      },
      "gasLimit": {
        "_hex": "0x55f0"
      },
      "to": "0xA56697139eB8704667673Af60c361AF8C32694E3",
      "value": {
        "_hex": "0x4881d105756355e0"
      },
      "nonce": 3774,
      "data": "0x",
      "r": "0xec96acb0e0f466a9c212c087bab5654c7e08f24e12d311b1692f291c05f320a4",
      "s": "0x5f30521be0e62a6a34800f046226a27efedea036ef65528908d4f19d0c5e2273",
      "v": 27,
      "creates": null,
      "raw": "0xf86e820ebe850d0c96f2448255f094a56697139eb8704667673af60c361af8c32694e3884881d105756355e0801ba0ec96acb0e0f466a9c212c087bab5654c7e08f24e12d311b1692f291c05f320a4a05f30521be0e62a6a34800f046226a27efedea036ef65528908d4f19d0c5e2273",
      "networkId": 0,
      "chainId": 0
    }
  ]
}