{
  "hash": "0x601ba51d5ea302b70205f37e0ee6b33c59a73663294f3babf39943784419c504",
  "parentHash": "0x34cb17e11da9992f55fc773e60fd787ee8752dc77c664740493b075b5525c6d1",
  "number": 104287,
  "timestamp": 1439867393,
  "nonce": "0x879c7b824c4291d8",
  "difficulty": 4269016421152,
  "gasLimit": {
    "_hex": "0x2fefd8"
  },
  "gasUsed": {
    "_hex": "0x5208"
  },
  "miner": "0x00302daDc13249861Ff7F8280A45B2e1067EE4eB",
  "extraData": "0xda8098302e392e34312b2b302d524c696e75782f672b2b2f696e74",
  "transactions": [
    {
      "hash": "0x70755af4ec911bcf81bcb9578d6b9261a2bf3d2fdf7e3a282771acbc9ba76d98",
      "blockHash": "0x601ba51d5ea302b70205f37e0ee6b33c59a73663294f3babf39943784419c504",
      "blockNumber": 104287,
      "transactionIndex": 0,
      "confirmations": null,
      "from": "0x120A270bbC009644e35F0bB6ab13f95b8199c4ad",
      "gasPrice": {
        "_hex": "0xdca81d940"
      },
      "gasLimit": {
        "_hex": "0x3d090"
      },
      "to": "0x9eE2bcfE9d322cFD264b1aa913ff9e2Ca905C204",
      "value": {
        "_hex": "0x294e4fe38985813800"
      },
      "nonce": 743,
      "data": "0x",
      "r": "0xf3765749e7bab8293df4ef1eb196b4f3ca9a5f21565cf4e1df041fd6f8d7a55a",
      "s": "0x2ff5eaa0a7fb753c6c28585a000f1e83779a0dfb326b512a7f18f83fa20b4642",
      "v": 28,
      "creates": null,
      "raw": "0xf8708202e7850dca81d9408303d090949ee2bcfe9d322cfd264b1aa913ff9e2ca905c20489294e4fe38985813800801ca0f3765749e7bab8293df4ef1eb196b4f3ca9a5f21565cf4e1df041fd6f8d7a55aa02ff5eaa0a7fb753c6c28585a000f1e83779a0dfb326b512a7f18f83fa20b4642",
      "networkId": 0,
      "chainId": 0
    }
  ]
}