{
  "hash": "0xfe4e743761d48119bb05fddd5f0379a6a4cd8f49bb58cb8fd16db18585dc9857",
  "parentHash": "0x83d7edd5ea150615ac5aa1ca7cd54899bb70123862ee414a8ff28d2c7c3f96ab",
  "number": 64431,
  "timestamp": 1439220701,
  "nonce": "0x9d8ffdc85a938181",
  "difficulty": 1868395249631,
  "gasLimit": {
    "_hex": "0x2fefd8"
  },
  "gasUsed": {
    "_hex": "0x5208"
  },
  "miner": "0xf927a40C8B7F6E07c5af7FA2155B4864a4112B13",
  "extraData": "0x",
  "transactions": [
    {
      "hash": "0x2be0c9213df40ae21e7897232daf9d0a606b89f06d1efeaa34c32c114ee5de73",
      "blockHash": "0xfe4e743761d48119bb05fddd5f0379a6a4cd8f49bb58cb8fd16db18585dc9857",
      "blockNumber": 64431,
      "transactionIndex": 0,
      "confirmations": null,
      "from": "0x097738363B1662599ad0777E19461601F5EC8dF9",
      "gasPrice": {
        "_hex": "0xd4d88e1d1"
      },
      "gasLimit": {
        "_hex": "0x5208"
      },
      "to": "0x32Be343B94f860124dC4fEe278FDCBD38C102D88",
      "value": {
        "_hex": "0x104351d748a4330000"
      },
      "nonce": 9,
      "data": "0x",
      "r": "0x21615a8091d9ac371e5e2d81f1994813612e014952141e0a062b59824fb05aa6",
      "s": "0x10d795d1ce29d040d45365e24e596c4234864a0577e762bfe16ac0eae4b69995",
      "v": 28,
      "creates": null,
      "raw": "0xf86d09850d4d88e1d18252089432be343b94f860124dc4fee278fdcbd38c102d8889104351d748a4330000801ca021615a8091d9ac371e5e2d81f1994813612e014952141e0a062b59824fb05aa6a010d795d1ce29d040d45365e24e596c4234864a0577e762bfe16ac0eae4b69995",
      "networkId": 0,
      "chainId": 0
    }
  ]
}