{
  "hash": "0x73c748672343377271e5efbd6cf3549928911a9320755be974108b53d4cc689b",
  "parentHash": "0xf4b0aee02608febc42d8be7eb0d25e42bf6eec0debf8a7f14144970198f1e7ef",
  "number": 105339,
  "timestamp": 1439885883,
  "nonce": "0x553725f753933905",
  "difficulty": 4356922067794,
  "gasLimit": {
    "_hex": "0x2fefd8"
  },
  "gasUsed": {
    "_hex": "0x4ce78"
  },
  "miner": "0xe6A7a1d47ff21B6321162AEA7C6CB457D5476Bca",
  "extraData": "0x476574682f76312e302e312d38326566323666362f6c696e75782f676f312e34",
  "transactions": [
    {
      "hash": "0x2d326d21f334ac455857218296a1d966ce52aeff190c0ffabd84623e21ee3c49",
      "blockHash": "0x73c748672343377271e5efbd6cf3549928911a9320755be974108b53d4cc689b",
      "blockNumber": 105339,
      "transactionIndex": 0,
      "confirmations": null,
      "from": "0xc544B25bb91b87e380dda392687c6216b0260671",
      "gasPrice": {
        "_hex": "0xdde993139"
      },
      "gasLimit": {
        "_hex": "0x5208"
      },
      "to": "0x32Be343B94f860124dC4fEe278FDCBD38C102D88",
      "value": {
        "_hex": "0x4a1b7c9212c7ac00"
      },
      "nonce": 9,
      "data": "0x",
      "r": "0x9fbd4f790e88a3be9c3ab1886e687ed674a14a004ac1726f3f96b6f66fd7fcab",
      "s": "0x25d23fec913190ccd93a44732199b8cb9ccc86ed9be2ae88daa0d8051e4157c2",
      "v": 27,
      "creates": null,
      "raw": "0xf86c09850dde9931398252089432be343b94f860124dc4fee278fdcbd38c102d88884a1b7c9212c7ac00801ba09fbd4f790e88a3be9c3ab1886e687ed674a14a004ac1726f3f96b6f66fd7fcaba025d23fec913190ccd93a44732199b8cb9ccc86ed9be2ae88daa0d8051e4157c2",
      "networkId": 0,
      "chainId": 0
    },
    {
      "hash": "0x316498846d6fdec79cb7b35649534ef43b759adcb94a0e35360e8da1ffddb860",
      "blockHash": "0x73c748672343377271e5efbd6cf3549928911a9320755be974108b53d4cc689b",
      "blockNumber": 105339,
      "transactionIndex": 1,
      "confirmations": null,
      "from": "0xe6A7a1d47ff21B6321162AEA7C6CB457D5476Bca",
      "gasPrice": {
        "_hex": "0xd6432a8ec"
      },
      "gasLimit": {
        "_hex": "0x55f0"
      },
      "to": "0x3A652ae439FFB94328afa58E11F544aFB5B85f7A",
      "value": {
        "_hex": "0x8525696f1d031f600"
      },
      "nonce": 4036,
      "data": "0x",
      "r": "0xdcd6e96fe3c1eb22daefb6774f883e5664a8a70351a95312c4f09ab07578b9c2",
      "s": "0x7b8b20f6998382748cbfb1cfb99032d6bc6079965715a90e2aea8e5ef43eb571",
      "v": 28,
      "creates": null,
      "raw": "0xf86f820fc4850d6432a8ec8255f0943a652ae439ffb94328afa58e11f544afb5b85f7a8908525696f1d031f600801ca0dcd6e96fe3c1eb22daefb6774f883e5664a8a70351a95312c4f09ab07578b9c2a07b8b20f6998382748cbfb1cfb99032d6bc6079965715a90e2aea8e5ef43eb571",
      "networkId": 0,
      "chainId": 0
    },
    {
      "hash": "0xa7fc921bab7be3e654ec3fa9d8473d51926399a7c46a8b73084bc78b8618e7ca",
      "blockHash": "0x73c748672343377271e5efbd6cf3549928911a9320755be974108b53d4cc689b",
      "blockNumber": 105339,
      "transactionIndex": 2,
      "confirmations": null,
      "from": "0xe6A7a1d47ff21B6321162AEA7C6CB457D5476Bca",
      "gasPrice": {
        "_hex": "0xd6432a8ec"
      },
      "gasLimit": {
        "_hex": "0x55f0"
      },
      "to": "0x59cC965F1643a68ad7a4272ff1654d4af4343ea7",
      "value": {
        "_hex": "0x8596c4b903f1896e0"
      },
      "nonce": 4037,
      "data": "0x",
      "r": "0x0271794f38dc1db29dccb063fd4cb2880fc02624eb006082141c3ee5f8e32f2f",
      "s": "0x56d5bcc1b0f11ae072824ad3f0e5cf2d17cdb890b0ae60680665c008a6a7ba6e",
      "v": 27,
      "creates": null,
      "raw": "0xf86f820fc5850d6432a8ec8255f09459cc965f1643a68ad7a4272ff1654d4af4343ea78908596c4b903f1896e0801ba00271794f38dc1db29dccb063fd4cb2880fc02624eb006082141c3ee5f8e32f2fa056d5bcc1b0f11ae072824ad3f0e5cf2d17cdb890b0ae60680665c008a6a7ba6e",
      "networkId": 0,
      "chainId": 0
    },
    {
      "hash": "0x350d9fb20c74407c77dc7909a1d035ab9998f2f0b80a6474d20a6103964cb539",
      "blockHash": "0x73c748672343377271e5efbd6cf3549928911a9320755be974108b53d4cc689b",
      "blockNumber": 105339,
      "transactionIndex": 3,
      "confirmations": null,
      "from": "0xe6A7a1d47ff21B6321162AEA7C6CB457D5476Bca",
      "gasPrice": {
        "_hex": "0xd6432a8ec"
      },
      "gasLimit": {
        "_hex": "0x55f0"
      },
      "to": "0xd0DF24FD0DfcDc3850D1590dAA1D03ca7706b11B",
      "value": {
        "_hex": "0x87efe69f9772dc160"
      },
      "nonce": 4038,
      "data": "0x",
      "r": "0x9e9912dc3b0d19d820ee076930fff6e44ad410fbe0a428c861857031f5902359",
      "s": "0x2c5538507e988d90a358a988c5f431534ceb3d97f837566b87650824843d0f27",
      "v": 27,
      "creates": null,
      "raw": "0xf86f820fc6850d6432a8ec8255f094d0df24fd0dfcdc3850d1590daa1d03ca7706b11b89087efe69f9772dc160801ba09e9912dc3b0d19d820ee076930fff6e44ad410fbe0a428c861857031f5902359a02c5538507e988d90a358a988c5f431534ceb3d97f837566b87650824843d0f27",
      "networkId": 0,
      "chainId": 0
    },
    {
      "hash": "0xc3408f452cf4aafbb98701b8dc50266c341bed81c8f9739015c9a2b718c704ee",
      "blockHash": "0x73c748672343377271e5efbd6cf3549928911a9320755be974108b53d4cc689b",
      "blockNumber": 105339,
      "transactionIndex": 4,
      "confirmations": null,
      "from": "0xe6A7a1d47ff21B6321162AEA7C6CB457D5476Bca",
      "gasPrice": {
        "_hex": "0xd6432a8ec"
      },
      "gasLimit": {
        "_hex": "0x55f0"
      },
      "to": "0x5b08838334DA22Dc7E25ce6a4161672F80e9074A",
      "value": {
        "_hex": "0x8becf88d704eccac0"
      },
      "nonce": 4039,
      "data": "0x",
      "r": "0x220d683103f0b62ce40be065949827bf46a94e44af57a5dcf88c55e64c6884b0",
      "s": "0x4050c8d1619e5a6923ba4024adfb1535ac4b54472f647bde144b59130e629f39",
      "v": 28,
      "creates": null,
      "raw": "0xf86f820fc7850d6432a8ec8255f0945b08838334da22dc7e25ce6a4161672f80e9074a8908becf88d704eccac0801ca0220d683103f0b62ce40be065949827bf46a94e44af57a5dcf88c55e64c6884b0a04050c8d1619e5a6923ba4024adfb1535ac4b54472f647bde144b59130e629f39",
      "networkId": 0,
      "chainId": 0
    },
    {
      "hash": "0xf541c2b7ef2bdc8b279b1044f6054432caa566fb1b9f2bc163125312aebe5331",
      "blockHash": "0x73c748672343377271e5efbd6cf3549928911a9320755be974108b53d4cc689b",
      "blockNumber": 105339,
      "transactionIndex": 5,
      "confirmations": null,
      "from": "0xe6A7a1d47ff21B6321162AEA7C6CB457D5476Bca",
      "gasPrice": {
        "_hex": "0xd6432a8ec"
      },
      "gasLimit": {
        "_hex": "0x55f0"
      },
      "to": "0xFa9F15F96E3244897308A95163a62861685e8917",
      "value": {
        "_hex": "0x971c72c5db832f5d0"
      },
      "nonce": 4040,
      "data": "0x",
      "r": "0x2779367c92e3f5eb0323588de92fa33e2cf145a3c8088cc08df07da9c538a282",
      "s": "0x04d9922845cf1771a962b8604ea40de314a9f1c29e9a269c7d27d919b2b7ba4f",
      "v": 28,
      "creates": null,
      "raw": "0xf86f820fc8850d6432a8ec8255f094fa9f15f96e3244897308a95163a62861685e8917890971c72c5db832f5d0801ca02779367c92e3f5eb0323588de92fa33e2cf145a3c8088cc08df07da9c538a282a004d9922845cf1771a962b8604ea40de314a9f1c29e9a269c7d27d919b2b7ba4f",
      "networkId": 0,
      "chainId": 0
    },
    {
      "hash": "0x0df63574f2d9933576af327f2dbf33ca3822b8fa099986dbb0ba17751f5757a6",
      "blockHash": "0x73c748672343377271e5efbd6cf3549928911a9320755be974108b53d4cc689b",
      "blockNumber": 105339,
      "transactionIndex": 6,
      "confirmations": null,
      "from": "0xe6A7a1d47ff21B6321162AEA7C6CB457D5476Bca",
      "gasPrice": {
        "_hex": "0xd6432a8ec"
      },
      "gasLimit": {
        "_hex": "0x55f0"
      },
      "to": "0x250978C66B17d66f4167197A38b631d8900968C0",
      "value": {
        "_hex": "0xa68d966c7ec610460"
      },
      "nonce": 4041,
      "data": "0x",
      "r": "0x6434f27cb82a3daeda921537fd52f33bfaefb59b07560dea1bb7927dc12751c5",
      "s": "0x18a5300b240f72b0d2a48a63f3d7295f69cedfe5055587952ccd55eae1e5a8cc",
      "v": 27,
      "creates": null,
      "raw": "0xf86f820fc9850d6432a8ec8255f094250978c66b17d66f4167197a38b631d8900968c0890a68d966c7ec610460801ba06434f27cb82a3daeda921537fd52f33bfaefb59b07560dea1bb7927dc12751c5a018a5300b240f72b0d2a48a63f3d7295f69cedfe5055587952ccd55eae1e5a8cc",
      "networkId": 0,
      "chainId": 0
    },
    {
      "hash": "0xb51b60e06a6c41e6e81d7c3acc7a15e54e9901c0e5b10cdf62d4c96346a81ea5",
      "blockHash": "0x73c748672343377271e5efbd6cf3549928911a9320755be974108b53d4cc689b",
      "blockNumber": 105339,
      "transactionIndex": 7,
      "confirmations": null,
      "from": "0xe6A7a1d47ff21B6321162AEA7C6CB457D5476Bca",
      "gasPrice": {
        "_hex": "0xd6432a8ec"
      },
      "gasLimit": {
        "_hex": "0x55f0"
      },
      "to": "0x795dAa7Cd2C81b20de241CE0751981faC4930070",
      "value": {
        "_hex": "0xb1f911cfbc5dad1a0"
      },
      "nonce": 4042,
      "data": "0x",
      "r": "0x7be61494ae4a33b6170790a854ab136096cc0fc4896ad28f9eeecf6e90f6f113",
      "s": "0x5712070caab49319e82b9a82db1e8354857de314548dc813913a92b922381529",
      "v": 27,
      "creates": null,
      "raw": "0xf86f820fca850d6432a8ec8255f094795daa7cd2c81b20de241ce0751981fac4930070890b1f911cfbc5dad1a0801ba07be61494ae4a33b6170790a854ab136096cc0fc4896ad28f9eeecf6e90f6f113a05712070caab49319e82b9a82db1e8354857de314548dc813913a92b922381529",
      "networkId": 0,
      "chainId": 0
    },
    {
      "hash": "0x648f65b88c7a1780d05c15104efa9b0e3131afc94d4360a2d5bccdc70cb08de8",
      "blockHash": "0x73c748672343377271e5efbd6cf3549928911a9320755be974108b53d4cc689b",
      "blockNumber": 105339,
      "transactionIndex": 8,
      "confirmations": null,
      "from": "0xe6A7a1d47ff21B6321162AEA7C6CB457D5476Bca",
      "gasPrice": {
        "_hex": "0xd6432a8ec"
      },
      "gasLimit": {
        "_hex": "0x55f0"
      },
      "to": "0x837A2A346557050c8cF0fb24b84Aa695E8Add19f",
      "value": {
        "_hex": "0xbd409ce458b7d0e00"
      },
      "nonce": 4043,
      "data": "0x",
      "r": "0x9bbb69b3cda54b224612f821d5bab49689158e170ca0423d20974f14ef2d387d",
      "s": "0x6a1792e60c38fe0e3a2329efa28a25be5bee8f1f0e50d6b9d039fa6bfe29a3b4",
      "v": 28,
      "creates": null,
      "raw": "0xf86f820fcb850d6432a8ec8255f094837a2a346557050c8cf0fb24b84aa695e8add19f890bd409ce458b7d0e00801ca09bbb69b3cda54b224612f821d5bab49689158e170ca0423d20974f14ef2d387da06a1792e60c38fe0e3a2329efa28a25be5bee8f1f0e50d6b9d039fa6bfe29a3b4",
      "networkId": 0,
      "chainId": 0
    },
    {
      "hash": "0x0eb93b69e2be0057d7cd18abbf075ee56dfce3a174dbf88417f169351c792d4e",
      "blockHash": "0x73c748672343377271e5efbd6cf3549928911a9320755be974108b53d4cc689b",
      "blockNumber": 105339,
      "transactionIndex": 9,
      "confirmations": null,
      "from": "0xe6A7a1d47ff21B6321162AEA7C6CB457D5476Bca",
      "gasPrice": {
        "_hex": "0xd6432a8ec"
      },
      "gasLimit": {
        "_hex": "0x55f0"
      },
      "to": "0x4A29dF8a7967b36664f256F18dAcf2e58E9f1E7E",
      "value": {
        "_hex": "0xd3551a396709b90e0"
      },
      "nonce": 4044,
      "data": "0x",
      "r": "0xe3a1624cead78de645719159536bf12ee91f92b5d6cad374ca8989760162c4ad",
      "s": "0x65ff871add1f3d9adb545a90e137801533991614393a31012124b9cf7b62f30c",
      "v": 28,
      "creates": null,
      "raw": "0xf86f820fcc850d6432a8ec8255f0944a29df8a7967b36664f256f18dacf2e58e9f1e7e890d3551a396709b90e0801ca0e3a1624cead78de645719159536bf12ee91f92b5d6cad374ca8989760162c4ada065ff871add1f3d9adb545a90e137801533991614393a31012124b9cf7b62f30c",
      "networkId": 0,
      "chainId": 0
    },
    {
      "hash": "0x41906ba6d776da9f3915a987147fd9e5028115f02ea97c2684bfb414bbb46166",
      "blockHash": "0x73c748672343377271e5efbd6cf3549928911a9320755be974108b53d4cc689b",
      "blockNumber": 105339,
      "transactionIndex": 10,
      "confirmations": null,
      "from": "0xe6A7a1d47ff21B6321162AEA7C6CB457D5476Bca",
      "gasPrice": {
        "_hex": "0xd6432a8ec"
      },
      "gasLimit": {
        "_hex": "0x55f0"
      },
      "to": "0x6d84df1cFAD609EAc476cBC2553390bFC23Cf6Fc",
      "value": {
        "_hex": "0xdc9b5f29e5cf92020"
      },
      "nonce": 4045,
      "data": "0x",
      "r": "0x7c06a87a6d24049893e4f8e61da458dc93b08a8fe06a017a36167e794754ddf3",
      "s": "0x01ec5fd4df62a88cf4fc1883c9f19653b114f8385ba8fdf6f29aa54dd7347b2d",
      "v": 27,
      "creates": null,
      "raw": "0xf86f820fcd850d6432a8ec8255f0946d84df1cfad609eac476cbc2553390bfc23cf6fc890dc9b5f29e5cf92020801ba07c06a87a6d24049893e4f8e61da458dc93b08a8fe06a017a36167e794754ddf3a001ec5fd4df62a88cf4fc1883c9f19653b114f8385ba8fdf6f29aa54dd7347b2d",
      "networkId": 0,
      "chainId": 0
    },
    {
      "hash": "0x770f77ced40a81c95c9b0ebf9cb8259c8c77400bd8d2e4aaf75d66932f894134",
      "blockHash": "0x73c748672343377271e5efbd6cf3549928911a9320755be974108b53d4cc689b",
      "blockNumber": 105339,
      "transactionIndex": 11,
      "confirmations": null,
      "from": "0xe6A7a1d47ff21B6321162AEA7C6CB457D5476Bca",
      "gasPrice": {
        "_hex": "0xd6432a8ec"
      },
      "gasLimit": {
        "_hex": "0x55f0"
      },
      "to": "0xF2d2AfF1320476cb8C6b607199D23175cc595693",
      "value": {
        "_hex": "0xdfac79ec49fdb3ee0"
      },
      "nonce": 4046,
      "data": "0x",
      "r": "0x498ca5a621523e5a07c102886a3219ace340bc7fe069c08321cf85fd04ecd0c4",
      "s": "0x2a4a20d39657651248cdca4ba51bbb8e7eb1dad31440be287172d30423670b59",
      "v": 28,
      "creates": null,
      "raw": "0xf86f820fce850d6432a8ec8255f094f2d2aff1320476cb8c6b607199d23175cc595693890dfac79ec49fdb3ee0801ca0498ca5a621523e5a07c102886a3219ace340bc7fe069c08321cf85fd04ecd0c4a02a4a20d39657651248cdca4ba51bbb8e7eb1dad31440be287172d30423670b59",
      "networkId": 0,
      "chainId": 0
    },
    {
      "hash": "0x17536c760cd4b31f41c5cbe8e7e82ad34fe49ff4d5b5d168d9c32063125c5ec5",
      "blockHash": "0x73c748672343377271e5efbd6cf3549928911a9320755be974108b53d4cc689b",
      "blockNumber": 105339,
      "transactionIndex": 12,
      "confirmations": null,
      "from": "0x63738Ec4C9adec404749B5747F3bbE2147de632F",
      "gasPrice": {
        "_hex": "0xcfe78a577"
      },
      "gasLimit": {
        "_hex": "0x15f90"
      },
      "to": "0x557C2806B6ceA65a66F415bb2Ed1ce897B340745",
      "value": {
        "_hex": "0x16345785d8a0000"
      },
      "nonce": 36,
      "data": "0x",
      "r": "0xfc8b9e64fa1c6a6deb5dd86195c789ef153b1fade2e41d31481bcefa931e1ae4",
      "s": "0x160019c7c653b2955cb1c4f9338e449934bc4204aab3125a9cb4d7dc0fd8bce5",
      "v": 27,
      "creates": null,
      "raw": "0xf86d24850cfe78a57783015f9094557c2806b6cea65a66f415bb2ed1ce897b34074588016345785d8a0000801ba0fc8b9e64fa1c6a6deb5dd86195c789ef153b1fade2e41d31481bcefa931e1ae4a0160019c7c653b2955cb1c4f9338e449934bc4204aab3125a9cb4d7dc0fd8bce5",
      "networkId": 0,
      "chainId": 0
    },
    {
      "hash": "0x2558c3f47e817d2b563126bbe7a4456d77b898a259e681391d47d25993631397",
      "blockHash": "0x73c748672343377271e5efbd6cf3549928911a9320755be974108b53d4cc689b",
      "blockNumber": 105339,
      "transactionIndex": 13,
      "confirmations": null,
      "from": "0x63738Ec4C9adec404749B5747F3bbE2147de632F",
      "gasPrice": {
        "_hex": "0xcfe78a577"
      },
      "gasLimit": {
        "_hex": "0x15f90"
      },
      "to": "0x557C2806B6ceA65a66F415bb2Ed1ce897B340745",
      "value": {
        "_hex": "0x16345785d8a0000"
      },
      "nonce": 37,
      "data": "0x",
      "r": "0xa1e91481b1f1060e7a1f6f302fda32daf3b8d510327a748cb344b760fd422002",
      "s": "0x090a679493ec42a069b375ccbbe386884f9882fc9316b6f8041e7f93634998eb",
      "v": 28,
      "creates": null,
      "raw": "0xf86d25850cfe78a57783015f9094557c2806b6cea65a66f415bb2ed1ce897b34074588016345785d8a0000801ca0a1e91481b1f1060e7a1f6f302fda32daf3b8d510327a748cb344b760fd422002a0090a679493ec42a069b375ccbbe386884f9882fc9316b6f8041e7f93634998eb",
      "networkId": 0,
      "chainId": 0
    },
    {
      "hash": "0x307f19f03581ddb596d8c1abf4cb30fcb168d3b9ef9ae4a423667961db704726",
      "blockHash": "0x73c748672343377271e5efbd6cf3549928911a9320755be974108b53d4cc689b",
      "blockNumber": 105339,
      "transactionIndex": 14,
      "confirmations": null,
      "from": "0x63738Ec4C9adec404749B5747F3bbE2147de632F",
      "gasPrice": {
        "_hex": "0xcfe78a577"
      },
      "gasLimit": {
        "_hex": "0x15f90"
      },
      "to": "0x557C2806B6ceA65a66F415bb2Ed1ce897B340745",
      "value": {
        "_hex": "0x16345785d8a0000"
      },
      "nonce": 38,
      "data": "0x",
      "r": "0xdbba3825ce9d7a0ffd49e33dc2e0394a98b7b86761b5bedcea8c340371d821ac",
      "s": "0x45da744adceccccc2b03794660638059b20fdeb1da540ae39329ee7f768fdcaf",
      "v": 28,
      "creates": null,
      "raw": "0xf86d26850cfe78a57783015f9094557c2806b6cea65a66f415bb2ed1ce897b34074588016345785d8a0000801ca0dbba3825ce9d7a0ffd49e33dc2e0394a98b7b86761b5bedcea8c340371d821aca045da744adceccccc2b03794660638059b20fdeb1da540ae39329ee7f768fdcaf",
      "networkId": 0,
      "chainId": 0
    }
  ]
}