{
  "hash": "0x62f31de4a73b3dd6d8563a51b072d196ccdc567f65e8a8c16f20ad5d3c3c2420",
  "parentHash": "0xf321e99e96cbaed144a5e536115cb7a5f4228ca27019177b385724836fb9994a",
  "number": 55259,
  "timestamp": 1439067763,
  "nonce": "0xc791bb1bcce07095",
  "difficulty": 1637811311596,
  "gasLimit": {
    "_hex": "0x2fefd8"
  },
  "gasUsed": {
    "_hex": "0x533ee"
  },
  "miner": "0xA1623430350C5df1b52B0b57483A5bb45d1796Da",
  "extraData": "0x476574682f76312e302e312d38326566323666362f6c696e75782f676f312e34",
  "transactions": [
    {
      "hash": "0xf53dbd8555942645acc082434ac72afadba7f367fff9a781e2dc08bc48edea43",
      "blockHash": "0x62f31de4a73b3dd6d8563a51b072d196ccdc567f65e8a8c16f20ad5d3c3c2420",
      "blockNumber": 55259,
      "transactionIndex": 0,
      "confirmations": null,
      "from": "0x0ae3F81a67725a8A7758FeB8684c6c17dA20755D",
      "gasPrice": {
        "_hex": "0xd600a805f"
      },
      "gasLimit": {
        "_hex": "0x1e8480"
      },
      "to": "0xA327075af2a223A1C83a36aDa1126afE7430f955",
      "value": {
        "_hex": "0x8ac7230489e80000"
      },
      "nonce": 99,
      "data": "0x",
      "r": "0xcd4fcb8fade856396f7a3c7e9ccc743fa741e1ec36e3f39fe265dff69fd23cae",
      "s": "0x683e3477d2731b9b757776af0653da659b5c6c90ab9c8816ceeafed2b8c4cf91",
      "v": 28,
      "creates": null,
      "raw": "0xf86d63850d600a805f831e848094a327075af2a223a1c83a36ada1126afe7430f955888ac7230489e80000801ca0cd4fcb8fade856396f7a3c7e9ccc743fa741e1ec36e3f39fe265dff69fd23caea0683e3477d2731b9b757776af0653da659b5c6c90ab9c8816ceeafed2b8c4cf91",
      "networkId": 0,
      "chainId": 0
    },
    {
      "hash": "0xee4eb708e6c4c6e74607728ced01ef4ccf726ab94e20a6b6c1087546138025b6",
      "blockHash": "0x62f31de4a73b3dd6d8563a51b072d196ccdc567f65e8a8c16f20ad5d3c3c2420",
      "blockNumber": 55259,
      "transactionIndex": 1,
      "confirmations": null,
      "from": "0x0ae3F81a67725a8A7758FeB8684c6c17dA20755D",
      "gasPrice": {
        "_hex": "0xd600a805f"
      },
      "gasLimit": {
        "_hex": "0x1e8480"
      },
      "to": "0xA327075af2a223A1C83a36aDa1126afE7430f955",
      "value": {
        "_hex": "0x8ac7230489e80000"
      },
      "nonce": 100,
      "data": "0x",
      "r": "0xfd850bdd1afca17e77cee758616595ef4311cfbd2c69188f4fd3ca1001ed83dc",
      "s": "0x263d1d51f831fbcff8e24fbef91a6536b4f117e5e506bda5675fb9ced457c24d",
      "v": 27,
      "creates": null,
      "raw": "0xf86d64850d600a805f831e848094a327075af2a223a1c83a36ada1126afe7430f955888ac7230489e80000801ba0fd850bdd1afca17e77cee758616595ef4311cfbd2c69188f4fd3ca1001ed83dca0263d1d51f831fbcff8e24fbef91a6536b4f117e5e506bda5675fb9ced457c24d",
      "networkId": 0,
      "chainId": 0
    },
    {
      "hash": "0x50b7909aa4f3a2437e20f4c6f07385d4213ae059283f9c2fc19383c1bc56ddc4",
      "blockHash": "0x62f31de4a73b3dd6d8563a51b072d196ccdc567f65e8a8c16f20ad5d3c3c2420",
      "blockNumber": 55259,
      "transactionIndex": 2,
      "confirmations": null,
      "from": "0x0ae3F81a67725a8A7758FeB8684c6c17dA20755D",
      "gasPrice": {
        "_hex": "0xd600a805f"
      },
      "gasLimit": {
        "_hex": "0x1e8480"
      },
      "to": "0xA327075af2a223A1C83a36aDa1126afE7430f955",
      "value": {
        "_hex": "0x8ac7230489e80000"
      },
      "nonce": 101,
      "data": "0x",
      "r": "0xbb459fb0378041bb6797e2f97adabe2eaf645e581284dfd9d9747eaef89e308b",
      "s": "0x4238c2974c2c003ea3d324ecdc2a1776c0e942f690e99679cf30fea465618f7e",
      "v": 28,
      "creates": null,
      "raw": "0xf86d65850d600a805f831e848094a327075af2a223a1c83a36ada1126afe7430f955888ac7230489e80000801ca0bb459fb0378041bb6797e2f97adabe2eaf645e581284dfd9d9747eaef89e308ba04238c2974c2c003ea3d324ecdc2a1776c0e942f690e99679cf30fea465618f7e",
      "networkId": 0,
      "chainId": 0
    },
    {
      "hash": "0xd74dc2bcf739ccbfea385c5745abd0683242756f2d633243d9b40b042c27e4bd",
      "blockHash": "0x62f31de4a73b3dd6d8563a51b072d196ccdc567f65e8a8c16f20ad5d3c3c2420",
      "blockNumber": 55259,
      "transactionIndex": 3,
      "confirmations": null,
      "from": "0x0ae3F81a67725a8A7758FeB8684c6c17dA20755D",
      "gasPrice": {
        "_hex": "0xd600a805f"
      },
      "gasLimit": {
        "_hex": "0x1e8480"
      },
      "to": "0xA327075af2a223A1C83a36aDa1126afE7430f955",
      "value": {
        "_hex": "0x8ac7230489e80000"
      },
      "nonce": 102,
      "data": "0x",
      "r": "0x9573b3eae9c85a28b86936afb483949b54287ea9423c59ccb924405d019c1f74",
      "s": "0x00cefdd599c4fd034bac6902931812ded4c8c3e9efa7ef83881487c8d8c443dd",
      "v": 28,
      "creates": null,
      "raw": "0xf86c66850d600a805f831e848094a327075af2a223a1c83a36ada1126afe7430f955888ac7230489e80000801ca09573b3eae9c85a28b86936afb483949b54287ea9423c59ccb924405d019c1f749fcefdd599c4fd034bac6902931812ded4c8c3e9efa7ef83881487c8d8c443dd",
      "networkId": 0,
      "chainId": 0
    },
    {
      "hash": "0xe675efd2e7899630fba142ad48a2e6e299f5da6916a02d20ae2577a33f51f794",
      "blockHash": "0x62f31de4a73b3dd6d8563a51b072d196ccdc567f65e8a8c16f20ad5d3c3c2420",
      "blockNumber": 55259,
      "transactionIndex": 4,
      "confirmations": null,
      "from": "0x0ae3F81a67725a8A7758FeB8684c6c17dA20755D",
      "gasPrice": {
        "_hex": "0xd600a805f"
      },
      "gasLimit": {
        "_hex": "0x1e8480"
      },
      "to": "0xA327075af2a223A1C83a36aDa1126afE7430f955",
      "value": {
        "_hex": "0x8ac7230489e80000"
      },
      "nonce": 103,
      "data": "0x",
      "r": "0xc091cc31ebf79b1385e8bfd8c9a6eae31e55e259294ab5e25a652a7d3a424923",
      "s": "0x56bc0b2d6c03cbe89605f61b795da8a16c0a669eeceb4d4b442cde1cd3677e35",
      "v": 28,
      "creates": null,
      "raw": "0xf86d67850d600a805f831e848094a327075af2a223a1c83a36ada1126afe7430f955888ac7230489e80000801ca0c091cc31ebf79b1385e8bfd8c9a6eae31e55e259294ab5e25a652a7d3a424923a056bc0b2d6c03cbe89605f61b795da8a16c0a669eeceb4d4b442cde1cd3677e35",
      "networkId": 0,
      "chainId": 0
    },
    {
      "hash": "0xfd1dd624ce604705555b9882979636976f71a313e32cc1ed04ca91a0762aefae",
      "blockHash": "0x62f31de4a73b3dd6d8563a51b072d196ccdc567f65e8a8c16f20ad5d3c3c2420",
      "blockNumber": 55259,
      "transactionIndex": 5,
      "confirmations": null,
      "from": "0x0ae3F81a67725a8A7758FeB8684c6c17dA20755D",
      "gasPrice": {
        "_hex": "0xd600a805f"
      },
      "gasLimit": {
        "_hex": "0x1e8480"
      },
      "to": "0xA327075af2a223A1C83a36aDa1126afE7430f955",
      "value": {
        "_hex": "0x8ac7230489e80000"
      },
      "nonce": 104,
      "data": "0x",
      "r": "0x45554c877a83f95174763cdf9f95e5842e4e42a73b59d9661dcb348e947eab16",
      "s": "0x3043f250dcae944303e5c49a4398258b43bba1124bb113aabce1ea45682f0b69",
      "v": 27,
      "creates": null,
      "raw": "0xf86d68850d600a805f831e848094a327075af2a223a1c83a36ada1126afe7430f955888ac7230489e80000801ba045554c877a83f95174763cdf9f95e5842e4e42a73b59d9661dcb348e947eab16a03043f250dcae944303e5c49a4398258b43bba1124bb113aabce1ea45682f0b69",
      "networkId": 0,
      "chainId": 0
    }
  ]
}