{
  "hash": "0x297df2032ab2c06c315757e83c7e75a23ce1858c854d4f9c91cf8ae8fad5ed7a",
  "parentHash": "0x531a434fa3f42dfef99c4f927554fdbcea4b8dd31abe0bb8206e55cd18f460b7",
  "number": 82367,
  "timestamp": 1439518187,
  "nonce": "0x5bb171cf30ca5e67",
  "difficulty": 2370678409810,
  "gasLimit": {
    "_hex": "0x2fefd8"
  },
  "gasUsed": {
    "_hex": "0xa410"
  },
  "miner": "0x7E6930B63D03e88F5928C5cd6ee3FCee4D714F7F",
  "extraData": "0x",
  "transactions": [
    {
      "hash": "0xeca88ccbe93ddcbfcdffacddb0a50c5dcec9fcac87fd6efb9c8ed293c5376665",
      "blockHash": "0x297df2032ab2c06c315757e83c7e75a23ce1858c854d4f9c91cf8ae8fad5ed7a",
      "blockNumber": 82367,
      "transactionIndex": 0,
      "confirmations": null,
      "from": "0x003a6CefcD4377033674d8A80ddBFb3596BD13DD",
      "gasPrice": {
        "_hex": "0x9184e72a000"
      },
      "gasLimit": {
        "_hex": "0x9965e"
      },
      "to": "0x014e478251F22a79fA7014f285647d91462A9669",
      "value": {
        "_hex": "0x1163f8dd2321ac000"
      },
      "nonce": 1,
      "data": "0x",
      "r": "0xe0129b8be94fe0fb72ee5e9d08d88b4942ff38e3b06cd4b13ec80b281e359fe5",
      "s": "0x664c3eaf63e37de432a547b7b3a57ae92ed51b03123e206667a0799b5545d53d",
      "v": 27,
      "creates": null,
      "raw": "0xf86f018609184e72a0008309965e94014e478251f22a79fa7014f285647d91462a96698901163f8dd2321ac000801ba0e0129b8be94fe0fb72ee5e9d08d88b4942ff38e3b06cd4b13ec80b281e359fe5a0664c3eaf63e37de432a547b7b3a57ae92ed51b03123e206667a0799b5545d53d",
      "networkId": 0,
      "chainId": 0
    },
    {
      "hash": "0x59d66b250e6c74e57fd3e958c6641d1ae8499714c87afef2c3f6d4eee089255e",
      "blockHash": "0x297df2032ab2c06c315757e83c7e75a23ce1858c854d4f9c91cf8ae8fad5ed7a",
      "blockNumber": 82367,
      "transactionIndex": 1,
      "confirmations": null,
      "from": "0xe229E746a83f2cE253b0b03eB1472411B57E5700",
      "gasPrice": {
        "_hex": "0xdb9730348"
      },
      "gasLimit": {
        "_hex": "0x15f90"
      },
      "to": "0xe3A29c590ae7Bf0D32A7121373bf5C94ADbeCa4a",
      "value": {
        "_hex": "0xb8bdb978520000"
      },
      "nonce": 1,
      "data": "0x",
      "r": "0x00b9c2c7f411c713fc32746b56958d15e14601cbca5b147d4e4d98292674410f",
      "s": "0x2968eed7a2a2f0b705dc3a95044412e2f16eee0c7dcf7d2cba5740451bf384eb",
      "v": 28,
      "creates": null,
      "raw": "0xf86b01850db973034883015f9094e3a29c590ae7bf0d32a7121373bf5c94adbeca4a87b8bdb978520000801c9fb9c2c7f411c713fc32746b56958d15e14601cbca5b147d4e4d98292674410fa02968eed7a2a2f0b705dc3a95044412e2f16eee0c7dcf7d2cba5740451bf384eb",
      "networkId": 0,
      "chainId": 0
    }
  ]
}