{
  "hash": "0xf7e5bc2c23f796aa21b91a389a6e8871378d2e5defbb1d5f67644b5bf532cf7f",
  "parentHash": "0x6c90457035d3f45433bdb1c583f415a430644f819400386508bb2898fc502d46",
  "number": 64422,
  "timestamp": 1439220465,
  "nonce": "0xff8691cf7ca421b0",
  "difficulty": 1871136170012,
  "gasLimit": {
    "_hex": "0x2fefd8"
  },
  "gasUsed": {
    "_hex": "0x5208"
  },
  "miner": "0xf8E0CA3Ed80bd541b94BEdCf259e8CF2141A9523",
  "extraData": "0x476574682f76312e302e312f77696e646f77732f676f312e342e32",
  "transactions": [
    {
      "hash": "0x829f30f85d81f8d2c800e4e2fb581e1df1113693752a8d5af9912180a8cc5687",
      "blockHash": "0xf7e5bc2c23f796aa21b91a389a6e8871378d2e5defbb1d5f67644b5bf532cf7f",
      "blockNumber": 64422,
      "transactionIndex": 0,
      "confirmations": null,
      "from": "0x120A270bbC009644e35F0bB6ab13f95b8199c4ad",
      "gasPrice": {
        "_hex": "0xe0d87cc58"
      },
      "gasLimit": {
        "_hex": "0x15f90"
      },
      "to": "0x739f8ab33a41B67952f16778e3CC6D2dEcC3a2d5",
      "value": {
        "_hex": "0x1f927d2a4915417000"
      },
      "nonce": 113,
      "data": "0x",
      "r": "0x2ace1f54326a9bf091dd3b3f61e53f9a24a23fab961f0b9c287719757a4a0d8c",
      "s": "0x2577ce08e76593b97d30d170a4feb1db45bfa96f31208bb93cbbf9551ca2f8bc",
      "v": 27,
      "creates": null,
      "raw": "0xf86e71850e0d87cc5883015f9094739f8ab33a41b67952f16778e3cc6d2decc3a2d5891f927d2a4915417000801ba02ace1f54326a9bf091dd3b3f61e53f9a24a23fab961f0b9c287719757a4a0d8ca02577ce08e76593b97d30d170a4feb1db45bfa96f31208bb93cbbf9551ca2f8bc",
      "networkId": 0,
      "chainId": 0
    }
  ]
}