{
  "hash": "0x69a34bf36f303b984735bfdd815a62494d31a6f40b9cf10b68b2be8eec75b2e8",
  "parentHash": "0x256d55be6366c897f034795c886af0de45ee3a253bfca23defbee0d78c594f7e",
  "number": 115385,
  "timestamp": 1440056319,
  "nonce": "0xeb8b294c05f51de8",
  "difficulty": 4560550260319,
  "gasLimit": {
    "_hex": "0x2fefd8"
  },
  "gasUsed": {
    "_hex": "0x1ec30"
  },
  "miner": "0xe6A7a1d47ff21B6321162AEA7C6CB457D5476Bca",
  "extraData": "0x476574682f76312e302e312d38326566323666362f6c696e75782f676f312e34",
  "transactions": [
    {
      "hash": "0x7585dd62235e013022f176697be88470f4c38a753dd1523e490911d48fc1b202",
      "blockHash": "0x69a34bf36f303b984735bfdd815a62494d31a6f40b9cf10b68b2be8eec75b2e8",
      "blockNumber": 115385,
      "transactionIndex": 0,
      "confirmations": null,
      "from": "0x9dD46b1C6D3F05e29E9c6f037eED9a595Af4A9aa",
      "gasPrice": {
        "_hex": "0x10c5de9cbc6"
      },
      "gasLimit": {
        "_hex": "0x59d8"
      },
      "to": "0x38C2e208474a6311baD73713da3928c54Be4F99b",
      "value": {
        "_hex": "0x56bc75e2d63100000"
      },
      "nonce": 2,
      "data": "0x",
      "r": "0x0fa73d4f3854140e0db9e7be9eaa8c0414db39e9b3a4a2b7c38cc6df029c2215",
      "s": "0x32a96867b48dba477a295159370777cc8450161b7e2e43fc2c16d18b6e7b7ac4",
      "v": 28,
      "creates": null,
      "raw": "0xf86e0286010c5de9cbc68259d89438c2e208474a6311bad73713da3928c54be4f99b89056bc75e2d63100000801ca00fa73d4f3854140e0db9e7be9eaa8c0414db39e9b3a4a2b7c38cc6df029c2215a032a96867b48dba477a295159370777cc8450161b7e2e43fc2c16d18b6e7b7ac4",
      "networkId": 0,
      "chainId": 0
    },
    {
      "hash": "0x856b411c505ea25c62a1ed92ab4501791b5466620b201967843309fbb85ab70e",
      "blockHash": "0x69a34bf36f303b984735bfdd815a62494d31a6f40b9cf10b68b2be8eec75b2e8",
      "blockNumber": 115385,
      "transactionIndex": 1,
      "confirmations": null,
      "from": "0x13258A1Aa418C990ce59616C26338A44899d854c",
      "gasPrice": {
        "_hex": "0xddd8c1d93"
      },
      "gasLimit": {
        "_hex": "0x5208"
      },
      "to": "0x32Be343B94f860124dC4fEe278FDCBD38C102D88",
      "value": {
        "_hex": "0x8269bcc241de1000"
      },
      "nonce": 7,
      "data": "0x",
      "r": "0x30dd407dbade730f2b9d46d480eef6a2687fc017a0acd45d95c9ba5fddb21f61",
      "s": "0x0673bf6bb0277cecbdee3fede4eec0d5a1fdd2962b55e9548d2283225e29b7a4",
      "v": 27,
      "creates": null,
      "raw": "0xf86c07850ddd8c1d938252089432be343b94f860124dc4fee278fdcbd38c102d88888269bcc241de1000801ba030dd407dbade730f2b9d46d480eef6a2687fc017a0acd45d95c9ba5fddb21f61a00673bf6bb0277cecbdee3fede4eec0d5a1fdd2962b55e9548d2283225e29b7a4",
      "networkId": 0,
      "chainId": 0
    },
    {
      "hash": "0xbc1819a1f2db3b22a1a6d884cecb3609216eb6667db7d680cc27645609383120",
      "blockHash": "0x69a34bf36f303b984735bfdd815a62494d31a6f40b9cf10b68b2be8eec75b2e8",
      "blockNumber": 115385,
      "transactionIndex": 2,
      "confirmations": null,
      "from": "0x4A29dF8a7967b36664f256F18dAcf2e58E9f1E7E",
      "gasPrice": {
        "_hex": "0xddd8c1d93"
      },
      "gasLimit": {
        "_hex": "0x5208"
      },
      "to": "0x32Be343B94f860124dC4fEe278FDCBD38C102D88",
      "value": {
        "_hex": "0x61359dbe55974c000"
      },
      "nonce": 8,
      "data": "0x",
      "r": "0x4bd17d0be99f654885512c556f228cde4cf0c6ddd9bc5967a76a3414712fa938",
      "s": "0x13f6e655d5023fdda72592cc611a6b6c5cf0e2c473435fd687926ee3c4b8f1e1",
      "v": 28,
      "creates": null,
      "raw": "0xf86d08850ddd8c1d938252089432be343b94f860124dc4fee278fdcbd38c102d8889061359dbe55974c000801ca04bd17d0be99f654885512c556f228cde4cf0c6ddd9bc5967a76a3414712fa938a013f6e655d5023fdda72592cc611a6b6c5cf0e2c473435fd687926ee3c4b8f1e1",
      "networkId": 0,
      "chainId": 0
    },
    {
      "hash": "0x3a809844ec2899a92d87e4de972fdc6ebf88c6cada8923ddc20f4ef3fe34c6e6",
      "blockHash": "0x69a34bf36f303b984735bfdd815a62494d31a6f40b9cf10b68b2be8eec75b2e8",
      "blockNumber": 115385,
      "transactionIndex": 3,
      "confirmations": null,
      "from": "0x383Ad663AFd1716301FC92d469d9985b97cfBCB0",
      "gasPrice": {
        "_hex": "0xddd8c1d93"
      },
      "gasLimit": {
        "_hex": "0x5208"
      },
      "to": "0x32Be343B94f860124dC4fEe278FDCBD38C102D88",
      "value": {
        "_hex": "0x11f230d7c29e26000"
      },
      "nonce": 7,
      "data": "0x",
      "r": "0x2204c66090942b8008277d9882406f8c47edd2924b691ebc719a415653711ad2",
      "s": "0x36336c8eef7361c4c684a469856e683ed14ee1dd28a3a5d81834e33613289b22",
      "v": 27,
      "creates": null,
      "raw": "0xf86d07850ddd8c1d938252089432be343b94f860124dc4fee278fdcbd38c102d8889011f230d7c29e26000801ba02204c66090942b8008277d9882406f8c47edd2924b691ebc719a415653711ad2a036336c8eef7361c4c684a469856e683ed14ee1dd28a3a5d81834e33613289b22",
      "networkId": 0,
      "chainId": 0
    },
    {
      "hash": "0x1eb585ab3267c00f7e65540e59bd12656bff441231f39188698a70fccd66253a",
      "blockHash": "0x69a34bf36f303b984735bfdd815a62494d31a6f40b9cf10b68b2be8eec75b2e8",
      "blockNumber": 115385,
      "transactionIndex": 4,
      "confirmations": null,
      "from": "0x19d1f826fce0c97733e0202eFCCc4A5608e8Eb6d",
      "gasPrice": {
        "_hex": "0xddd8c1d93"
      },
      "gasLimit": {
        "_hex": "0x5208"
      },
      "to": "0x32Be343B94f860124dC4fEe278FDCBD38C102D88",
      "value": {
        "_hex": "0xffaa308fd38b1800"
      },
      "nonce": 7,
      "data": "0x",
      "r": "0x0ea37ccad7f12f42edbebdc6e1ae56f39185b890d842586568c015d5219f1847",
      "s": "0x02b609d5c1a9937dffe7dc6994a2bf9daa02f7754f4cedeeaaf37e257be30fb6",
      "v": 27,
      "creates": null,
      "raw": "0xf86c07850ddd8c1d938252089432be343b94f860124dc4fee278fdcbd38c102d8888ffaa308fd38b1800801ba00ea37ccad7f12f42edbebdc6e1ae56f39185b890d842586568c015d5219f1847a002b609d5c1a9937dffe7dc6994a2bf9daa02f7754f4cedeeaaf37e257be30fb6",
      "networkId": 0,
      "chainId": 0
    },
    {
      "hash": "0x339d9650767b63f8b6d28a59f337d1250cb793d0af4c9068e86204c298e98e1f",
      "blockHash": "0x69a34bf36f303b984735bfdd815a62494d31a6f40b9cf10b68b2be8eec75b2e8",
      "blockNumber": 115385,
      "transactionIndex": 5,
      "confirmations": null,
      "from": "0x10a3287DC19D160c0EF7dAE4e51670b0394ef951",
      "gasPrice": {
        "_hex": "0xddd8c1d93"
      },
      "gasLimit": {
        "_hex": "0x5208"
      },
      "to": "0x32Be343B94f860124dC4fEe278FDCBD38C102D88",
      "value": {
        "_hex": "0xe4f8b352156d8000"
      },
      "nonce": 5,
      "data": "0x",
      "r": "0x123de4570d0001d0247c09926040c023d4098a62d0a8f956f425e5ee1ffa2e99",
      "s": "0x2041f31de6d17a12bf3a5e3e51069596c21b41b65982ca145644a343352abb74",
      "v": 28,
      "creates": null,
      "raw": "0xf86c05850ddd8c1d938252089432be343b94f860124dc4fee278fdcbd38c102d8888e4f8b352156d8000801ca0123de4570d0001d0247c09926040c023d4098a62d0a8f956f425e5ee1ffa2e99a02041f31de6d17a12bf3a5e3e51069596c21b41b65982ca145644a343352abb74",
      "networkId": 0,
      "chainId": 0
    }
  ]
}