{
  "hash": "0xcaa8d9dbbfcfc264b09d252b7ed2d1053bb590a9e54562b3815bf51a1e55229f",
  "parentHash": "0xbdc061e3ed38a6cdbe66812e4c4926a0c939e9ec827dd2d2387e0748280ab12a",
  "number": 115598,
  "timestamp": 1440059935,
  "nonce": "0x7d65db6d41b461a9",
  "difficulty": 4598447183466,
  "gasLimit": {
    "_hex": "0x2fefd8"
  },
  "gasUsed": {
    "_hex": "0x5208"
  },
  "miner": "0x8B454d830feF179e66206840F8F3D1d83bC32b17",
  "extraData": "0x476574682f76312e302e312f77696e646f77732f676f312e342e32",
  "transactions": [
    {
      "hash": "0x16b93d4efcd8e1f426f77591d19e4b2892b7474353409e086fe2d008570a48c1",
      "blockHash": "0xcaa8d9dbbfcfc264b09d252b7ed2d1053bb590a9e54562b3815bf51a1e55229f",
      "blockNumber": 115598,
      "transactionIndex": 0,
      "confirmations": null,
      "from": "0x97a86F01cE3F7cFd4441330e1c9B19e1b10606EF",
      "gasPrice": {
        "_hex": "0xcc0e03dc4"
      },
      "gasLimit": {
        "_hex": "0x15f90"
      },
      "to": "0x849528654b2c401b9c792B9670bBef4470Ad8cFf",
      "value": {
        "_hex": "0x16345785d8a0000"
      },
      "nonce": 1,
      "data": "0x",
      "r": "0x628f328f5470dd816fd3b6e1fa99e3061619a7dc86f25f63a9b315d5d08e8e34",
      "s": "0x0a6a135395f354e054e5570577b5f7582308679c0f8b3386318eb292dc54daad",
      "v": 28,
      "creates": null,
      "raw": "0xf86d01850cc0e03dc483015f9094849528654b2c401b9c792b9670bbef4470ad8cff88016345785d8a0000801ca0628f328f5470dd816fd3b6e1fa99e3061619a7dc86f25f63a9b315d5d08e8e34a00a6a135395f354e054e5570577b5f7582308679c0f8b3386318eb292dc54daad",
      "networkId": 0,
      "chainId": 0
    }
  ]
}