{
  "hash": "0xdc7fb87527b4ff536e203733c13ac57d33e072dbfc8f9a285cc915a2a8d987f0",
  "parentHash": "0xf17050cfa6331375a145fa26a1a24413125c83b41d03b009efaac49bea11fefb",
  "number": 84372,
  "timestamp": 1439548784,
  "nonce": "0x284c722a9bd2ca2e",
  "difficulty": 2546486326548,
  "gasLimit": {
    "_hex": "0x2fefd8"
  },
  "gasUsed": {
    "_hex": "0x33450"
  },
  "miner": "0xd83630DD777Ce7c8Df15D55A8Bb72EB7C7b4568D",
  "extraData": "0xd783010001844765746887676f312e342e32856c696e7578",
  "transactions": [
    {
      "hash": "0xb4e0dac511d4f10f2ceeabd432aa1474e85db0b7ead709556f59dae5893c3432",
      "blockHash": "0xdc7fb87527b4ff536e203733c13ac57d33e072dbfc8f9a285cc915a2a8d987f0",
      "blockNumber": 84372,
      "transactionIndex": 0,
      "confirmations": null,
      "from": "0xd83630DD777Ce7c8Df15D55A8Bb72EB7C7b4568D",
      "gasPrice": {
        "_hex": "0xdd0a11213"
      },
      "gasLimit": {
        "_hex": "0x15f90"
      },
      "to": "0x43D575Cc486538f9B89F6e46188822F6fBC68D94",
      "value": {
        "_hex": "0xdf7b97fbb99d000"
      },
      "nonce": 5,
      "data": "0x",
      "r": "0xf5d5bb2d00354ff5680ec6f13e956446b5c724dd7748ede7d4f07e74fdf7d054",
      "s": "0x58406ae7e65648ca413d9e51f23cd60fef9848ef9e5b63f553eac7166456dad0",
      "v": 28,
      "creates": null,
      "raw": "0xf86d05850dd0a1121383015f909443d575cc486538f9b89f6e46188822f6fbc68d94880df7b97fbb99d000801ca0f5d5bb2d00354ff5680ec6f13e956446b5c724dd7748ede7d4f07e74fdf7d054a058406ae7e65648ca413d9e51f23cd60fef9848ef9e5b63f553eac7166456dad0",
      "networkId": 0,
      "chainId": 0
    },
    {
      "hash": "0xa7f33fabde5dd7399421a9f96af36f8c287d55cfa49bb70e29f611ab08b02b28",
      "blockHash": "0xdc7fb87527b4ff536e203733c13ac57d33e072dbfc8f9a285cc915a2a8d987f0",
      "blockNumber": 84372,
      "transactionIndex": 1,
      "confirmations": null,
      "from": "0xBFdD9820a04283b289957956353b5F3C1F665EcF",
      "gasPrice": {
        "_hex": "0xdbfcd47d3"
      },
      "gasLimit": {
        "_hex": "0x5208"
      },
      "to": "0x32Be343B94f860124dC4fEe278FDCBD38C102D88",
      "value": {
        "_hex": "0x14d0cc517b741e000"
      },
      "nonce": 35,
      "data": "0x",
      "r": "0x290d319349941066426bd25f3fcfb2da518090b4c679c13cd5759fab4497dc2d",
      "s": "0x39a8b747f3812680a7059213e15f9241fdaefab7f342ce42681668d9dd132103",
      "v": 27,
      "creates": null,
      "raw": "0xf86d23850dbfcd47d38252089432be343b94f860124dc4fee278fdcbd38c102d8889014d0cc517b741e000801ba0290d319349941066426bd25f3fcfb2da518090b4c679c13cd5759fab4497dc2da039a8b747f3812680a7059213e15f9241fdaefab7f342ce42681668d9dd132103",
      "networkId": 0,
      "chainId": 0
    },
    {
      "hash": "0xe321665ea32af1a4fe817d84ba40c048c5e82843e01f104a0638d0348e596d75",
      "blockHash": "0xdc7fb87527b4ff536e203733c13ac57d33e072dbfc8f9a285cc915a2a8d987f0",
      "blockNumber": 84372,
      "transactionIndex": 2,
      "confirmations": null,
      "from": "0xe6A7a1d47ff21B6321162AEA7C6CB457D5476Bca",
      "gasPrice": {
        "_hex": "0xd63f49e57"
      },
      "gasLimit": {
        "_hex": "0x55f0"
      },
      "to": "0x22700Ac76D8Eda0EbE3A50C36F91450323412309",
      "value": {
        "_hex": "0x15ad4b3989b31098"
      },
      "nonce": 1905,
      "data": "0x",
      "r": "0x17f189bdaa9265b95e2722609561dfae8147733542255d8cbde912655c865d15",
      "s": "0x74159a56a4f96f5dad98855b93de25860347108f864b6ed18dee6406a009445b",
      "v": 28,
      "creates": null,
      "raw": "0xf86e820771850d63f49e578255f09422700ac76d8eda0ebe3a50c36f914503234123098815ad4b3989b31098801ca017f189bdaa9265b95e2722609561dfae8147733542255d8cbde912655c865d15a074159a56a4f96f5dad98855b93de25860347108f864b6ed18dee6406a009445b",
      "networkId": 0,
      "chainId": 0
    },
    {
      "hash": "0xe415750ef07bba6619d180fd4dc7c9bed7ec37f67ab6f4d79a2f24fe3be68d38",
      "blockHash": "0xdc7fb87527b4ff536e203733c13ac57d33e072dbfc8f9a285cc915a2a8d987f0",
      "blockNumber": 84372,
      "transactionIndex": 3,
      "confirmations": null,
      "from": "0xe6A7a1d47ff21B6321162AEA7C6CB457D5476Bca",
      "gasPrice": {
        "_hex": "0xd63f49e57"
      },
      "gasLimit": {
        "_hex": "0x55f0"
      },
      "to": "0xce9bdcACC0AF8675abb5F3a3172f4a9092A582dC",
      "value": {
        "_hex": "0x18bc364629a11150"
      },
      "nonce": 1906,
      "data": "0x",
      "r": "0xa476fd8e4479aba7ed2624d36c4619a864d644f5cb7abd8a81c184da7a58104e",
      "s": "0x245d603eac5f69d4b90a6b8cf9af03a8c73e3a3138b50642eed99fd5637d2c1e",
      "v": 28,
      "creates": null,
      "raw": "0xf86e820772850d63f49e578255f094ce9bdcacc0af8675abb5f3a3172f4a9092a582dc8818bc364629a11150801ca0a476fd8e4479aba7ed2624d36c4619a864d644f5cb7abd8a81c184da7a58104ea0245d603eac5f69d4b90a6b8cf9af03a8c73e3a3138b50642eed99fd5637d2c1e",
      "networkId": 0,
      "chainId": 0
    },
    {
      "hash": "0x94a90e6683894f3a656031448d7d19dfa0c40fa968a749570cf76946453cce23",
      "blockHash": "0xdc7fb87527b4ff536e203733c13ac57d33e072dbfc8f9a285cc915a2a8d987f0",
      "blockNumber": 84372,
      "transactionIndex": 4,
      "confirmations": null,
      "from": "0xe6A7a1d47ff21B6321162AEA7C6CB457D5476Bca",
      "gasPrice": {
        "_hex": "0xd63f49e57"
      },
      "gasLimit": {
        "_hex": "0x55f0"
      },
      "to": "0x03B35D960c861Fe987C50380d76db9D6Ae1fa510",
      "value": {
        "_hex": "0x1e92a086b0d68e30"
      },
      "nonce": 1907,
      "data": "0x",
      "r": "0x5fe8268e3499623ed80833736399852bb02ba36b14e89ebe009068442fb23d8b",
      "s": "0x79121f3f0d159b44485cb0dfcace2a1111a55ee56c76e650c251e786ee52bfb7",
      "v": 28,
      "creates": null,
      "raw": "0xf86e820773850d63f49e578255f09403b35d960c861fe987c50380d76db9d6ae1fa510881e92a086b0d68e30801ca05fe8268e3499623ed80833736399852bb02ba36b14e89ebe009068442fb23d8ba079121f3f0d159b44485cb0dfcace2a1111a55ee56c76e650c251e786ee52bfb7",
      "networkId": 0,
      "chainId": 0
    },
    {
      "hash": "0xe09705cb9b94589d27a966c030149fb39291a398374fa3017ec23e912f7cd03f",
      "blockHash": "0xdc7fb87527b4ff536e203733c13ac57d33e072dbfc8f9a285cc915a2a8d987f0",
      "blockNumber": 84372,
      "transactionIndex": 5,
      "confirmations": null,
      "from": "0xe6A7a1d47ff21B6321162AEA7C6CB457D5476Bca",
      "gasPrice": {
        "_hex": "0xd63f49e57"
      },
      "gasLimit": {
        "_hex": "0x55f0"
      },
      "to": "0x0109Fb2bDd57D96397433af9B54eBD486ccd1B41",
      "value": {
        "_hex": "0x1fb4341b7e3e0c28"
      },
      "nonce": 1908,
      "data": "0x",
      "r": "0x83e029135eaf76708018de0501071158d6cff9605649210a1c985dfc73e69e07",
      "s": "0x32c156226ecb8f9dd55a1712e956672f112349ffc3e04b87a27714dfa3009e9f",
      "v": 28,
      "creates": null,
      "raw": "0xf86e820774850d63f49e578255f0940109fb2bdd57d96397433af9b54ebd486ccd1b41881fb4341b7e3e0c28801ca083e029135eaf76708018de0501071158d6cff9605649210a1c985dfc73e69e07a032c156226ecb8f9dd55a1712e956672f112349ffc3e04b87a27714dfa3009e9f",
      "networkId": 0,
      "chainId": 0
    },
    {
      "hash": "0x70d14ca175a747d10121b1fe51f27e71dd6e3fac4e2033c3d736827e79c83d03",
      "blockHash": "0xdc7fb87527b4ff536e203733c13ac57d33e072dbfc8f9a285cc915a2a8d987f0",
      "blockNumber": 84372,
      "transactionIndex": 6,
      "confirmations": null,
      "from": "0xe6A7a1d47ff21B6321162AEA7C6CB457D5476Bca",
      "gasPrice": {
        "_hex": "0xd63f49e57"
      },
      "gasLimit": {
        "_hex": "0x55f0"
      },
      "to": "0x2374d8ad849F04E476f8D13457503f7cca23892E",
      "value": {
        "_hex": "0x2222077e3e0c35fc"
      },
      "nonce": 1909,
      "data": "0x",
      "r": "0x9885242f71e8711d43aa68da1aa32736ae3601effe9bf508b8d0d7ca27d5eee8",
      "s": "0x41b6d152a41f917a5e1987c5b6b53ad4b24b57223c80924c84179bd2cbef5000",
      "v": 28,
      "creates": null,
      "raw": "0xf86e820775850d63f49e578255f0942374d8ad849f04e476f8d13457503f7cca23892e882222077e3e0c35fc801ca09885242f71e8711d43aa68da1aa32736ae3601effe9bf508b8d0d7ca27d5eee8a041b6d152a41f917a5e1987c5b6b53ad4b24b57223c80924c84179bd2cbef5000",
      "networkId": 0,
      "chainId": 0
    },
    {
      "hash": "0xf4646178eef048da3a703b45bdb27b353efe350b2d4cc6b7d9e4acd7c3393bbb",
      "blockHash": "0xdc7fb87527b4ff536e203733c13ac57d33e072dbfc8f9a285cc915a2a8d987f0",
      "blockNumber": 84372,
      "transactionIndex": 7,
      "confirmations": null,
      "from": "0xe6A7a1d47ff21B6321162AEA7C6CB457D5476Bca",
      "gasPrice": {
        "_hex": "0xd63f49e57"
      },
      "gasLimit": {
        "_hex": "0x55f0"
      },
      "to": "0xd141b7CB21652cCdEF036cbe70dE021F31a530Ad",
      "value": {
        "_hex": "0x22ae78ecbc132a0c"
      },
      "nonce": 1910,
      "data": "0x",
      "r": "0xdc1d5460394f893720c01f770413462df59d58de9d73912d542f36860359f451",
      "s": "0x0e1cc707c0b575e5bd56af2b09454a968ca1d022d8d0b768d96dce2e91976178",
      "v": 27,
      "creates": null,
      "raw": "0xf86e820776850d63f49e578255f094d141b7cb21652ccdef036cbe70de021f31a530ad8822ae78ecbc132a0c801ba0dc1d5460394f893720c01f770413462df59d58de9d73912d542f36860359f451a00e1cc707c0b575e5bd56af2b09454a968ca1d022d8d0b768d96dce2e91976178",
      "networkId": 0,
      "chainId": 0
    },
    {
      "hash": "0x6d437944c64af493f826d2788fd10197aa3ee1ab8da950d4a966e2ead672ae05",
      "blockHash": "0xdc7fb87527b4ff536e203733c13ac57d33e072dbfc8f9a285cc915a2a8d987f0",
      "blockNumber": 84372,
      "transactionIndex": 8,
      "confirmations": null,
      "from": "0xe6A7a1d47ff21B6321162AEA7C6CB457D5476Bca",
      "gasPrice": {
        "_hex": "0xd63f49e57"
      },
      "gasLimit": {
        "_hex": "0x55f0"
      },
      "to": "0x237213131Cf2e4027D4E8Bb293379823874a16fD",
      "value": {
        "_hex": "0x27009d1928e019a0"
      },
      "nonce": 1911,
      "data": "0x",
      "r": "0xc2a9f2eeeebb3d1e1199af8d589178d99a722a46e396824b06bcbf3acbecbc7c",
      "s": "0x4d7c44ea51c0acce71285c04b8915464d84962c58dfe2909fb7c6f290fee726d",
      "v": 27,
      "creates": null,
      "raw": "0xf86e820777850d63f49e578255f094237213131cf2e4027d4e8bb293379823874a16fd8827009d1928e019a0801ba0c2a9f2eeeebb3d1e1199af8d589178d99a722a46e396824b06bcbf3acbecbc7ca04d7c44ea51c0acce71285c04b8915464d84962c58dfe2909fb7c6f290fee726d",
      "networkId": 0,
      "chainId": 0
    },
    {
      "hash": "0x1af49e458985f1069add1bb105693afb67832e637cf561dabe8d90db62287c6c",
      "blockHash": "0xdc7fb87527b4ff536e203733c13ac57d33e072dbfc8f9a285cc915a2a8d987f0",
      "blockNumber": 84372,
      "transactionIndex": 9,
      "confirmations": null,
      "from": "0xe6A7a1d47ff21B6321162AEA7C6CB457D5476Bca",
      "gasPrice": {
        "_hex": "0xd63f49e57"
      },
      "gasLimit": {
        "_hex": "0x55f0"
      },
      "to": "0xabF56d5ca441eCAD5979023Ec368b74a8d662d95",
      "value": {
        "_hex": "0x278b1a479b537820"
      },
      "nonce": 1912,
      "data": "0x",
      "r": "0x97869d6a5c35b5058eb751d2b96c4dda964d7f36bd8b31ec0611b97cb5c854b0",
      "s": "0x011a9c7534ad45b844b47d509f1e882204ef9a041485fafac67be09da27d4d26",
      "v": 28,
      "creates": null,
      "raw": "0xf86e820778850d63f49e578255f094abf56d5ca441ecad5979023ec368b74a8d662d9588278b1a479b537820801ca097869d6a5c35b5058eb751d2b96c4dda964d7f36bd8b31ec0611b97cb5c854b0a0011a9c7534ad45b844b47d509f1e882204ef9a041485fafac67be09da27d4d26",
      "networkId": 0,
      "chainId": 0
    }
  ]
}