{
  "hash": "0xc95d096c8d624c0836b626d2762acafb92f86a72e20bdb0e70ef08dd18364cde",
  "parentHash": "0x32919a31908271ec53a043d370c667ed53146a4ec1c95dbb0aea79f41151a05b",
  "number": 82527,
  "timestamp": 1439520888,
  "nonce": "0xd83cd1b7624f3d7b",
  "difficulty": 2372949395569,
  "gasLimit": {
    "_hex": "0x2fefd8"
  },
  "gasUsed": {
    "_hex": "0x546c"
  },
  "miner": "0x0037ce3d4B7f8729C8607D8D0248252Be68202c0",
  "extraData": "0x476574682f76312e302e312f77696e646f77732f676f312e342e32",
  "transactions": [
    {
      "hash": "0xe04dba7b1a24d4416e42e1afdd2be15e33d2daa409e0fead7ce086a8aa36d333",
      "blockHash": "0xc95d096c8d624c0836b626d2762acafb92f86a72e20bdb0e70ef08dd18364cde",
      "blockNumber": 82527,
      "transactionIndex": 0,
      "confirmations": null,
      "from": "0xf509557e90183FBf0F0651a786487Bcc428bA175",
      "gasPrice": {
        "_hex": "0x110c8f7d8de"
      },
      "gasLimit": {
        "_hex": "0xc350"
      },
      "to": "0x2910543Af39abA0Cd09dBb2D50200b3E800A63D2",
      "value": {
        "_hex": "0xa7669bd7132640000"
      },
      "nonce": 0,
      "data": "0x454e37553147383138",
      "r": "0x08557b0f93ef29566c0ecd3f2a2d8a1487a23e7d0cce53ef7710e00a568fd4d5",
      "s": "0x4ac7519bcc1c617e23819a430d6be22477fdf0409c15a64b6ede8345fe9d054a",
      "v": 28,
      "creates": null,
      "raw": "0xf87780860110c8f7d8de82c350942910543af39aba0cd09dbb2d50200b3e800a63d2890a7669bd713264000089454e375531473831381ca008557b0f93ef29566c0ecd3f2a2d8a1487a23e7d0cce53ef7710e00a568fd4d5a04ac7519bcc1c617e23819a430d6be22477fdf0409c15a64b6ede8345fe9d054a",
      "networkId": 0,
      "chainId": 0
    }
  ]
}