{
  "hash": "0x498a7d326dab96205ce2800f87ef63d8afc16ec70b28041e526f593878ac9d38",
  "parentHash": "0xd586e882d3255b3ed1fc410805766e0f70ceb178b705d1c3577a16d4663f3aa5",
  "number": 65476,
  "timestamp": 1439237658,
  "nonce": "0xebd7ef29e71b362c",
  "difficulty": 1951137172750,
  "gasLimit": {
    "_hex": "0x2fefd8"
  },
  "gasUsed": {
    "_hex": "0x5208"
  },
  "miner": "0x7D45E10A0d63eCCA0694a7cbfF030f4dD87DA0dC",
  "extraData": "0x476574682f76312e302e302f77696e646f77732f676f312e342e32",
  "transactions": [
    {
      "hash": "0x4df963cdcd250cc44c4f8193d965b9eba4bf29ac88f805e661e79b44bb02cbdb",
      "blockHash": "0x498a7d326dab96205ce2800f87ef63d8afc16ec70b28041e526f593878ac9d38",
      "blockNumber": 65476,
      "transactionIndex": 0,
      "confirmations": null,
      "from": "0x120A270bbC009644e35F0bB6ab13f95b8199c4ad",
      "gasPrice": {
        "_hex": "0xdc70f6a8b"
      },
      "gasLimit": {
        "_hex": "0x15f90"
      },
      "to": "0xc83B0620a11598d85b0c9957aCD445A4C52D5d15",
      "value": {
        "_hex": "0x43c33c193756480000"
      },
      "nonce": 127,
      "data": "0x",
      "r": "0xdd6aa9118c3be2a5bec394220021673d09033559b8ea5c96fa432e1f3ae7f109",
      "s": "0x719d6d8e21cf9a51796c7ebaa300665a434796bd3c0ef2b1e6dfd9822a27af3a",
      "v": 27,
      "creates": null,
      "raw": "0xf86e7f850dc70f6a8b83015f9094c83b0620a11598d85b0c9957acd445a4c52d5d158943c33c193756480000801ba0dd6aa9118c3be2a5bec394220021673d09033559b8ea5c96fa432e1f3ae7f109a0719d6d8e21cf9a51796c7ebaa300665a434796bd3c0ef2b1e6dfd9822a27af3a",
      "networkId": 0,
      "chainId": 0
    }
  ]
}