{
  "hash": "0xfecd16b50b6d4464895dd6e1ca5df6c0ad88947768374d71ebd980cecb1d5db9",
  "parentHash": "0x4b786d49edfe368d93c89efbaaa5b0239908842a929dd4774ac760f3d2485189",
  "number": 102508,
  "timestamp": 1439839108,
  "nonce": "0xa120198eadfd6da8",
  "difficulty": 3962552905094,
  "gasLimit": {
    "_hex": "0x2fefd8"
  },
  "gasUsed": {
    "_hex": "0x1bdbe"
  },
  "miner": "0x9D49F602b0fdb924Bd63DDE2Bd0907E4A07c63a7",
  "extraData": "0x476574682f76312e302e312f6c696e75782f676f312e342e32",
  "transactions": [
    {
      "hash": "0xc0f7dc1cec15318725733e1ce0c7dc2a4bba1145dbf3df0545d22c2574db4b0b",
      "blockHash": "0xfecd16b50b6d4464895dd6e1ca5df6c0ad88947768374d71ebd980cecb1d5db9",
      "blockNumber": 102508,
      "transactionIndex": 0,
      "confirmations": null,
      "from": "0xEB3090f39ca19EB8F97B5969e1F9b7Cd524fFdb7",
      "gasPrice": {
        "_hex": "0xcd01555c5"
      },
      "gasLimit": {
        "_hex": "0x249f0"
      },
      "to": "0xE28e72FCf78647ADCe1F1252F240bbfaebD63BcC",
      "value": {
        "_hex": "0x20cc0fc69297540000"
      },
      "nonce": 0,
      "data": "0x45466f3a",
      "r": "0x70bada62ebcd8893f379acc572880f7629ed52e55c2e07c928fa2d520eda5073",
      "s": "0x7c019fea5906e2dfd938f8143394fb18411ad1b04a393f9617f22688545de9d8",
      "v": 28,
      "creates": null,
      "raw": "0xf87280850cd01555c5830249f094e28e72fcf78647adce1f1252f240bbfaebd63bcc8920cc0fc692975400008445466f3a1ca070bada62ebcd8893f379acc572880f7629ed52e55c2e07c928fa2d520eda5073a07c019fea5906e2dfd938f8143394fb18411ad1b04a393f9617f22688545de9d8",
      "networkId": 0,
      "chainId": 0
    }
  ]
}