{
  "hash": "0x848f32f23447e25175058f68798d18c29bdb4295d0605a84b962f45aa776ff7f",
  "parentHash": "0x245db3548179ba40a4c7683c950a07244548980a3d749d80fafebe42ee2f8890",
  "number": 47108,
  "timestamp": 1438934319,
  "nonce": "0x746b493122f971a0",
  "difficulty": 1461679850201,
  "gasLimit": {
    "_hex": "0x97e1"
  },
  "gasUsed": {
    "_hex": "0x5208"
  },
  "miner": "0x9746c7e1ef2bd21FF3997fa467593a89cb852BD0",
  "extraData": "0x476574682f76312e302e312f77696e646f77732f676f312e342e32",
  "transactions": [
    {
      "hash": "0x930437ca5ba36f0ecba40a8439f462011d5d28da02e85a72d0e45035984b75e0",
      "blockHash": "0x848f32f23447e25175058f68798d18c29bdb4295d0605a84b962f45aa776ff7f",
      "blockNumber": 47108,
      "transactionIndex": 0,
      "confirmations": null,
      "from": "0xe6A7a1d47ff21B6321162AEA7C6CB457D5476Bca",
      "gasPrice": {
        "_hex": "0xda73e6df1"
      },
      "gasLimit": {
        "_hex": "0x5208"
      },
      "to": "0x97f5585473fe2644e4cf3b9802b168647B4ec882",
      "value": {
        "_hex": "0x2da55098b481804c"
      },
      "nonce": 45,
      "data": "0x",
      "r": "0xd531e6d68b9e4feb802a5333a6aa97f28d3e6efbdf8f6463d96d646ec8db4c73",
      "s": "0x478d858165a3cb059fe6257f21c4e7e3e9c9501b3d21c529884e9be543ed795f",
      "v": 27,
      "creates": null,
      "raw": "0xf86c2d850da73e6df18252089497f5585473fe2644e4cf3b9802b168647b4ec882882da55098b481804c801ba0d531e6d68b9e4feb802a5333a6aa97f28d3e6efbdf8f6463d96d646ec8db4c73a0478d858165a3cb059fe6257f21c4e7e3e9c9501b3d21c529884e9be543ed795f",
      "networkId": 0,
      "chainId": 0
    }
  ]
}