{
  "hash": "0xafcf67eb9892607b832e2e22a4d5f04bd0cefd60da351a3898bcba46ead6cc88",
  "parentHash": "0xb7442a629ee53dbc03250a3c06b532c0f8d4fbc3c6c2f33aa859465e6a869a1b",
  "number": 69697,
  "timestamp": 1439308259,
  "nonce": "0x87b00f5c33ae0b1a",
  "difficulty": 2091190267651,
  "gasLimit": {
    "_hex": "0x2fefd8"
  },
  "gasUsed": {
    "_hex": "0xa674"
  },
  "miner": "0xf8E0CA3Ed80bd541b94BEdCf259e8CF2141A9523",
  "extraData": "0x476574682f76312e302e312f77696e646f77732f676f312e342e32",
  "transactions": [
    {
      "hash": "0xc91c006181b7195ed90f3eb43fa3a2096ca5e80be9e7213f14a334f0f01eb6cb",
      "blockHash": "0xafcf67eb9892607b832e2e22a4d5f04bd0cefd60da351a3898bcba46ead6cc88",
      "blockNumber": 69697,
      "transactionIndex": 0,
      "confirmations": null,
      "from": "0x95dF4e3445D7662624c48eba74cF9e0a53E9f732",
      "gasPrice": {
        "_hex": "0xd22537fcb"
      },
      "gasLimit": {
        "_hex": "0x546c"
      },
      "to": "0x2910543Af39abA0Cd09dBb2D50200b3E800A63D2",
      "value": {
        "_hex": "0x3635c9adc5dea00000"
      },
      "nonce": 7,
      "data": "0x454e454b5537393138",
      "r": "0x7b6c336d4570d7d3c0b2d90a8d5c9ab4ae0f5c076b544027efc51212a2034488",
      "s": "0x4482fdee381b544464293868bfdd4e33b85fe7068eeafe4d30d17c0b8d1b0c2a",
      "v": 28,
      "creates": null,
      "raw": "0xf87607850d22537fcb82546c942910543af39aba0cd09dbb2d50200b3e800a63d2893635c9adc5dea0000089454e454b55373931381ca07b6c336d4570d7d3c0b2d90a8d5c9ab4ae0f5c076b544027efc51212a2034488a04482fdee381b544464293868bfdd4e33b85fe7068eeafe4d30d17c0b8d1b0c2a",
      "networkId": 0,
      "chainId": 0
    },
    {
      "hash": "0xd19f9af61156df0d00379ff11cb4c041ecff5eacf05a4f7a1b64e25af7b46165",
      "blockHash": "0xafcf67eb9892607b832e2e22a4d5f04bd0cefd60da351a3898bcba46ead6cc88",
      "blockNumber": 69697,
      "transactionIndex": 1,
      "confirmations": null,
      "from": "0x6E4F1DD8EDB448D8F0F2829eb817B81ACEE45152",
      "gasPrice": {
        "_hex": "0xba43b7400"
      },
      "gasLimit": {
        "_hex": "0x5267"
      },
      "to": "0x18F081247ad32af38404D071eb8c246CC4F33534",
      "value": {
        "_hex": "0x27147114878000"
      },
      "nonce": 6,
      "data": "0x",
      "r": "0x72820f79cecf9b003360dad597b007f37e318ca24755870ae08586569cf8cd12",
      "s": "0x268c21082e3f29cddba776557ff5a8aa7662048cba75de4baf2fd03cf0dfaa94",
      "v": 27,
      "creates": null,
      "raw": "0xf86b06850ba43b74008252679418f081247ad32af38404d071eb8c246cc4f335348727147114878000801ba072820f79cecf9b003360dad597b007f37e318ca24755870ae08586569cf8cd12a0268c21082e3f29cddba776557ff5a8aa7662048cba75de4baf2fd03cf0dfaa94",
      "networkId": 0,
      "chainId": 0
    }
  ]
}