{
  "hash": "0xb6eaffec95affe4bdc7b51796f901e85fa5f18c3c8924a659a5fc6e35329581b",
  "parentHash": "0x16a47f498bbd5b9c9b718e163c9bd804d6e7b9a187445b74dad4caf40cd5aa93",
  "number": 109588,
  "timestamp": 1439959062,
  "nonce": "0xe83f8637aee472bf",
  "difficulty": 4447114395531,
  "gasLimit": {
    "_hex": "0x2fefd8"
  },
  "gasUsed": {
    "_hex": "0x5208"
  },
  "miner": "0xEF247E639d49461D25F57e9362CadE3120910Ce0",
  "extraData": "0x476574682f76312e302e312f6c696e75782f676f312e342e32",
  "transactions": [
    {
      "hash": "0xa9ae6a43015a5b5f74ccb5fd10f082f30cce499d07d6df4bf413f0ccab04c805",
      "blockHash": "0xb6eaffec95affe4bdc7b51796f901e85fa5f18c3c8924a659a5fc6e35329581b",
      "blockNumber": 109588,
      "transactionIndex": 0,
      "confirmations": null,
      "from": "0x32Be343B94f860124dC4fEe278FDCBD38C102D88",
      "gasPrice": {
        "_hex": "0xdc3c93446"
      },
      "gasLimit": {
        "_hex": "0x5208"
      },
      "to": "0xb794F5eA0ba39494cE839613fffBA74279579268",
      "value": {
        "_hex": "0xfe1c215e8f839000000"
      },
      "nonce": 1277,
      "data": "0x",
      "r": "0x7807b71d66adcffbfd58bf751cf703930d313e6b1d7ea5684a8ffd322e9d9097",
      "s": "0x1859e9e272b4ed6456e30b25acfdb4f4110e04f46860a95f4f9b60393db4aae8",
      "v": 27,
      "creates": null,
      "raw": "0xf8708204fd850dc3c9344682520894b794f5ea0ba39494ce839613fffba742795792688a0fe1c215e8f839000000801ba07807b71d66adcffbfd58bf751cf703930d313e6b1d7ea5684a8ffd322e9d9097a01859e9e272b4ed6456e30b25acfdb4f4110e04f46860a95f4f9b60393db4aae8",
      "networkId": 0,
      "chainId": 0
    }
  ]
}