{
  "hash": "0x211de74c5f0a8cadedfeb2f40e5914d01eef455dbe21ba9264ddc0c4aaa33d45",
  "parentHash": "0xd4d508789fd11e064d86cc0fd0e7f6cf6e13fb379644d64480c6cb2879264476",
  "number": 115642,
  "timestamp": 1440060763,
  "nonce": "0x40b330be85c4c9cd",
  "difficulty": 4589450533044,
  "gasLimit": {
    "_hex": "0x2fefd8"
  },
  "gasUsed": {
    "_hex": "0x5208"
  },
  "miner": "0xe6A7a1d47ff21B6321162AEA7C6CB457D5476Bca",
  "extraData": "0x476574682f76312e302e312d38326566323666362f6c696e75782f676f312e34",
  "transactions": [
    {
      "hash": "0x30c42c7f1bc0e6988390711ecb3520ebdbd21c1694b21753c384c2fd3360ac02",
      "blockHash": "0x211de74c5f0a8cadedfeb2f40e5914d01eef455dbe21ba9264ddc0c4aaa33d45",
      "blockNumber": 115642,
      "transactionIndex": 0,
      "confirmations": null,
      "from": "0x91d32201228cd1Dea4e21d71f7A9e0CeF5de4A39",
      "gasPrice": {
        "_hex": "0xda17c50b2"
      },
      "gasLimit": {
        "_hex": "0x15f90"
      },
      "to": "0x65d6F6040D1B3E8E8bFD5F70B46A2dB2ADBFca9a",
      "value": {
        "_hex": "0x3bacab37b62e0000"
      },
      "nonce": 8,
      "data": "0x",
      "r": "0xd73bca3231c87e0136d3ec0599f199e9190a8cbb8837c87ef9865fd5ceab4c22",
      "s": "0x652f376530b64edf346227106b6934afa721c405345e89bd94d191e62afba598",
      "v": 28,
      "creates": null,
      "raw": "0xf86d08850da17c50b283015f909465d6f6040d1b3e8e8bfd5f70b46a2db2adbfca9a883bacab37b62e0000801ca0d73bca3231c87e0136d3ec0599f199e9190a8cbb8837c87ef9865fd5ceab4c22a0652f376530b64edf346227106b6934afa721c405345e89bd94d191e62afba598",
      "networkId": 0,
      "chainId": 0
    }
  ]
}