{
  "hash": "0x543f075a944969ca23004d0a196af4709c0290a9bf5e8271d67b1e9af10ff218",
  "parentHash": "0x89d01d457bc1d07c7c95adb4ff1cb66cc2bfbb0a536c01f5504c5a34a67bd75a",
  "number": 93885,
  "timestamp": 1439699299,
  "nonce": "0x355f8e633ffb4a3c",
  "difficulty": 3464826348192,
  "gasLimit": {
    "_hex": "0x2fefd8"
  },
  "gasUsed": {
    "_hex": "0x5d9f"
  },
  "miner": "0xfC97c2C87E3Cc03BeB5fA2fACaa10bbd0D0dA1AF",
  "extraData": "0x476574682f76312e302e312d38326566323666362f6c696e75782f676f312e34",
  "transactions": [
    {
      "hash": "0xd7f6d9903abce38d16c1f30b9771911d87a028ed062cdae51e8811b0995d13d4",
      "blockHash": "0x543f075a944969ca23004d0a196af4709c0290a9bf5e8271d67b1e9af10ff218",
      "blockNumber": 93885,
      "transactionIndex": 0,
      "confirmations": null,
      "from": "0x888285790B0b6Cc7FDE84EDdd77A1b2B29089a99",
      "gasPrice": {
        "_hex": "0xd5341da0e"
      },
      "gasLimit": {
        "_hex": "0x15f90"
      },
      "to": "0xAd8d3a5d2d92EB14bB56CA9f380be35b8EFE0c04",
      "value": {
        "_hex": "0x2386f26fc10000"
      },
      "nonce": 0,
      "data": "0xb214faa54141414141484a48430000000000000000000000000000000000000000000000",
      "r": "0x5e609128f9e80e32f1adbeb2b0feaf437431becaac71d03c412af8451351dd98",
      "s": "0x3787b683a3dc93a00ed26c8f582d57608e268e7538a98df43d644abc27cf0863",
      "v": 28,
      "creates": null,
      "raw": "0xf89080850d5341da0e83015f9094ad8d3a5d2d92eb14bb56ca9f380be35b8efe0c04872386f26fc10000a4b214faa54141414141484a484300000000000000000000000000000000000000000000001ca05e609128f9e80e32f1adbeb2b0feaf437431becaac71d03c412af8451351dd98a03787b683a3dc93a00ed26c8f582d57608e268e7538a98df43d644abc27cf0863",
      "networkId": 0,
      "chainId": 0
    }
  ]
}