{
  "hash": "0x58e87e8892d562bd4434159de2ec0cf49beefc2f9bddc0c74285be618bf643db",
  "parentHash": "0xe2609c8985a8371f1b06b080a72bc311bcc61df5c8e63265b93a7caa9db927d7",
  "number": 59932,
  "timestamp": 1439146157,
  "nonce": "0xd5fc56da70511446",
  "difficulty": 1733136252709,
  "gasLimit": {
    "_hex": "0x2fefd8"
  },
  "gasUsed": {
    "_hex": "0xf7b4"
  },
  "miner": "0xbb7B8287f3F0a933474a79eAe42CBCa977791171",
  "extraData": "0x476574682f4c5649562f76312e302e312f6c696e75782f676f312e342e32",
  "transactions": [
    {
      "hash": "0xd42172b292e3e4933d50ab5d6577fa83253da430b9dd428a2eab4abf7adee5a5",
      "blockHash": "0x58e87e8892d562bd4434159de2ec0cf49beefc2f9bddc0c74285be618bf643db",
      "blockNumber": 59932,
      "transactionIndex": 0,
      "confirmations": null,
      "from": "0xB100987e77FEbA6F022dBd22B80B008e35d3Ff2E",
      "gasPrice": {
        "_hex": "0xd2275fcb9"
      },
      "gasLimit": {
        "_hex": "0x15f90"
      },
      "to": "0xDF683Ef2Fc45eE3105be89e192453DE929f0f7A8",
      "value": {
        "_hex": "0x0"
      },
      "nonce": 1,
      "data": "0xf14fcbc841b1a0649752afe2f36250e672dae209b6135eeb70b18c85e000000000000000",
      "r": "0x6def87a21fb4eea5c6a4fa2afb2b86bce3e38f9380b8e1f6a6893b01cbf6964f",
      "s": "0x1241276bdf19c9f8c6699713921cc64d293b0a4a17b31b780f872113e5002303",
      "v": 28,
      "creates": null,
      "raw": "0xf88901850d2275fcb983015f9094df683ef2fc45ee3105be89e192453de929f0f7a880a4f14fcbc841b1a0649752afe2f36250e672dae209b6135eeb70b18c85e0000000000000001ca06def87a21fb4eea5c6a4fa2afb2b86bce3e38f9380b8e1f6a6893b01cbf6964fa01241276bdf19c9f8c6699713921cc64d293b0a4a17b31b780f872113e5002303",
      "networkId": 0,
      "chainId": 0
    }
  ]
}