{
  "hash": "0x9c1002943c920cd0eb5792df74cbaad14fe11817b68b27ca28a7c4804eb424a5",
  "parentHash": "0x9aa479e61edc85db32eacc6ae2aaf126c8addf2b34f953dc2b97cd0d7437ea7d",
  "number": 98235,
  "timestamp": 1439769257,
  "nonce": "0x8259d23882de19fe",
  "difficulty": 3870842132881,
  "gasLimit": {
    "_hex": "0x2fefd8"
  },
  "gasUsed": {
    "_hex": "0x5208"
  },
  "miner": "0x72d9276a182AbDB16CfF178709f2176b214c38e4",
  "extraData": "0x476574682f69534f63482f76312e302e312f6c696e75782f676f312e342e32",
  "transactions": [
    {
      "hash": "0xa5546eaceef3fe202dcfcedef11aa10e50c797eed8bf269adeabcb76d3c7c183",
      "blockHash": "0x9c1002943c920cd0eb5792df74cbaad14fe11817b68b27ca28a7c4804eb424a5",
      "blockNumber": 98235,
      "transactionIndex": 0,
      "confirmations": null,
      "from": "0xa7ae731fD9EbF24D5a99104a3c2a65a7240B2B04",
      "gasPrice": {
        "_hex": "0xcd4ea4674"
      },
      "gasLimit": {
        "_hex": "0x5208"
      },
      "to": "0x32Be343B94f860124dC4fEe278FDCBD38C102D88",
      "value": {
        "_hex": "0x56bc34192d76e8000"
      },
      "nonce": 2,
      "data": "0x",
      "r": "0x54d93edc42830bb68222f5d93e73f11985a87e8166d76247298f16b2605d11c3",
      "s": "0x1246ac0ed23f5783ab44308b0bb6af5f9061d6cb96ba1b0d601fddc0b9c05172",
      "v": 27,
      "creates": null,
      "raw": "0xf86d02850cd4ea46748252089432be343b94f860124dc4fee278fdcbd38c102d8889056bc34192d76e8000801ba054d93edc42830bb68222f5d93e73f11985a87e8166d76247298f16b2605d11c3a01246ac0ed23f5783ab44308b0bb6af5f9061d6cb96ba1b0d601fddc0b9c05172",
      "networkId": 0,
      "chainId": 0
    }
  ]
}