{
  "hash": "0x468a0cc97b589ebfd5b4223dfded92a2b10b99fdc1665cb66b7c6f49263cc3f0",
  "parentHash": "0xd4821f1b7fb1d485a8cf97797aa3c542e73632380ccee8e4f55cf9c92daadfd2",
  "number": 114621,
  "timestamp": 1440043451,
  "nonce": "0xb52deec88d1b2bb8",
  "difficulty": 4499033010790,
  "gasLimit": {
    "_hex": "0x2fefd8"
  },
  "gasUsed": {
    "_hex": "0xb9fc"
  },
  "miner": "0xe6A7a1d47ff21B6321162AEA7C6CB457D5476Bca",
  "extraData": "0x476574682f76312e302e312d38326566323666362f6c696e75782f676f312e34",
  "transactions": [
    {
      "hash": "0xebe7e72078f0f92973b6e68a6760ea092e60e34ee95d907c2e571a86e7d5590d",
      "blockHash": "0x468a0cc97b589ebfd5b4223dfded92a2b10b99fdc1665cb66b7c6f49263cc3f0",
      "blockNumber": 114621,
      "transactionIndex": 0,
      "confirmations": null,
      "from": "0x3dAb6e047D342C7AB68Febd12751AbbeE1780485",
      "gasPrice": {
        "_hex": "0xd34e855ce"
      },
      "gasLimit": {
        "_hex": "0x15f90"
      },
      "to": "0x3edDc7ebC7db94f54b72D8Ed1F42cE6A527305bB",
      "value": {
        "_hex": "0x0"
      },
      "nonce": 0,
      "data": "0x5479f98b",
      "r": "0xa74ba04af9eed6e2bcd83f019dc12fc2583c135d26aaacf3a7a258fc3d621c9b",
      "s": "0x1b2692c948b0c905e74fc2bab0a44f03bd1fc450fbc7378781cad187d6544a70",
      "v": 27,
      "creates": null,
      "raw": "0xf86980850d34e855ce83015f90943eddc7ebc7db94f54b72d8ed1f42ce6a527305bb80845479f98b1ba0a74ba04af9eed6e2bcd83f019dc12fc2583c135d26aaacf3a7a258fc3d621c9ba01b2692c948b0c905e74fc2bab0a44f03bd1fc450fbc7378781cad187d6544a70",
      "networkId": 0,
      "chainId": 0
    }
  ]
}