{
  "hash": "0x101beae0d40b3b025c6244d8fa0d6a106ea45cedc8b08191dfe5f6e62ba0fc3a",
  "parentHash": "0x18b987637db15a26514d43f93d9e99dd66d68115c26af716827065f17bd607c3",
  "number": 85248,
  "timestamp": 1439560584,
  "nonce": "0x670cd3ed96d0cb4f",
  "difficulty": 2755810630934,
  "gasLimit": {
    "_hex": "0x2fefd8"
  },
  "gasUsed": {
    "_hex": "0x5208"
  },
  "miner": "0xe6A7a1d47ff21B6321162AEA7C6CB457D5476Bca",
  "extraData": "0x476574682f76312e302e312d38326566323666362f6c696e75782f676f312e34",
  "transactions": [
    {
      "hash": "0x3093cf03681e04e54a31644e3dbdbf1e2e064d2ed5a8315edc06494ff9fc2dde",
      "blockHash": "0x101beae0d40b3b025c6244d8fa0d6a106ea45cedc8b08191dfe5f6e62ba0fc3a",
      "blockNumber": 85248,
      "transactionIndex": 0,
      "confirmations": null,
      "from": "0x120A270bbC009644e35F0bB6ab13f95b8199c4ad",
      "gasPrice": {
        "_hex": "0xcbc0be1c7"
      },
      "gasLimit": {
        "_hex": "0x3d090"
      },
      "to": "0xd0c9016C1669D8D4B331F8a68BC0b4E7937F3475",
      "value": {
        "_hex": "0x14809eeef1e144c00"
      },
      "nonce": 447,
      "data": "0x",
      "r": "0x3b7c3d51e33e645d5bd3d9799115ac914ab9cf586ac03a38dde65436a51a8153",
      "s": "0x5564c786b81dccbbe2a3339cfaca2141c89f5db0ca763828148a97736b79969e",
      "v": 27,
      "creates": null,
      "raw": "0xf8708201bf850cbc0be1c78303d09094d0c9016c1669d8d4b331f8a68bc0b4e7937f347589014809eeef1e144c00801ba03b7c3d51e33e645d5bd3d9799115ac914ab9cf586ac03a38dde65436a51a8153a05564c786b81dccbbe2a3339cfaca2141c89f5db0ca763828148a97736b79969e",
      "networkId": 0,
      "chainId": 0
    }
  ]
}