{
  "hash": "0xa71e848bd1883623c44ad53391ac6205ec585685b0c514d795d59a9139d5a07e",
  "parentHash": "0x05208b59be3b8d16d03aaa67d1bcc9dc78977ccdb0d062d278cbd5cf29776e05",
  "number": 58812,
  "timestamp": 1439126973,
  "nonce": "0x67539cb35252ec6f",
  "difficulty": 1714847158389,
  "gasLimit": {
    "_hex": "0x2fefd8"
  },
  "gasUsed": {
    "_hex": "0x5208"
  },
  "miner": "0x0eDEd3DA479d0beF8eeC92A76644D3f4E3C177f7",
  "extraData": "0x476574682f76312e302e312f6c696e75782f676f312e342e32",
  "transactions": [
    {
      "hash": "0xe7fbd0afc7cfd2b3fb06c216e627d9ae8326fa00802326d31fc3bda6994413e4",
      "blockHash": "0xa71e848bd1883623c44ad53391ac6205ec585685b0c514d795d59a9139d5a07e",
      "blockNumber": 58812,
      "transactionIndex": 0,
      "confirmations": null,
      "from": "0xDBB6ac484027041642bbFD8d80F9d0C1cf33c1EB",
      "gasPrice": {
        "_hex": "0xba43b7400"
      },
      "gasLimit": {
        "_hex": "0x5208"
      },
      "to": "0x41f4Ce142B9f65bF71Dfbe615812546A21a71F45",
      "value": {
        "_hex": "0xd8306b55ea80a58"
      },
      "nonce": 1,
      "data": "0x",
      "r": "0x5906dfe6f158bd0b9e98af136d8e0a60a5d6bb6a472618cbe4e55333826f8bec",
      "s": "0x9a3197a68416a3c8428e5729393fefaa00045b310b3de4c4297ce3035d5c8648",
      "v": 28,
      "creates": null,
      "raw": "0xf86c01850ba43b74008252089441f4ce142b9f65bf71dfbe615812546a21a71f45880d8306b55ea80a58801ca05906dfe6f158bd0b9e98af136d8e0a60a5d6bb6a472618cbe4e55333826f8beca09a3197a68416a3c8428e5729393fefaa00045b310b3de4c4297ce3035d5c8648",
      "networkId": 0,
      "chainId": 0
    }
  ]
}