{
  "hash": "0xd87dc4977165cfa427bcc353f85808588311f5d11393e6d194a55547317ddf47",
  "parentHash": "0x6e8beddb3788b2d4f8308aa0bb11c3be69035a85f732c33027916dc9ceefd6e7",
  "number": 59486,
  "timestamp": 1439138959,
  "nonce": "0x486491918a70cd5d",
  "difficulty": 1701365405654,
  "gasLimit": {
    "_hex": "0x2fefd5"
  },
  "gasUsed": {
    "_hex": "0xa410"
  },
  "miner": "0xf927a40C8B7F6E07c5af7FA2155B4864a4112B13",
  "extraData": "0x476574682f76312e302e312f6c696e75782f676f312e342e32",
  "transactions": [
    {
      "hash": "0x92b7497c792f715fdc0317eef9d64465ece491bfc6def41d1cd0861c56ca5590",
      "blockHash": "0xd87dc4977165cfa427bcc353f85808588311f5d11393e6d194a55547317ddf47",
      "blockNumber": 59486,
      "transactionIndex": 0,
      "confirmations": null,
      "from": "0xb577b6BEfA054E9c040461855094B002D7f57bd7",
      "gasPrice": {
        "_hex": "0x10f490c9340"
      },
      "gasLimit": {
        "_hex": "0x15f90"
      },
      "to": "0xA46B7974F4F43Af50e9C4795251303D7066ED67f",
      "value": {
        "_hex": "0x56bc75e2d63100000"
      },
      "nonce": 0,
      "data": "0x",
      "r": "0x08f735efc0626469af4a643d44a3266948afdbe71048ea4a53585b30c64248fc",
      "s": "0x27d2e6b33d7f8c37aa5ca44f5c7d2b9f4cb69a6c4ebce2f4980d6f04c5aedb22",
      "v": 28,
      "creates": null,
      "raw": "0xf86f8086010f490c934083015f9094a46b7974f4f43af50e9c4795251303d7066ed67f89056bc75e2d63100000801ca008f735efc0626469af4a643d44a3266948afdbe71048ea4a53585b30c64248fca027d2e6b33d7f8c37aa5ca44f5c7d2b9f4cb69a6c4ebce2f4980d6f04c5aedb22",
      "networkId": 0,
      "chainId": 0
    },
    {
      "hash": "0x7d5d2142df13f548301a8433165374ad0b4b13301cc7f8b613e9565fbe466e93",
      "blockHash": "0xd87dc4977165cfa427bcc353f85808588311f5d11393e6d194a55547317ddf47",
      "blockNumber": 59486,
      "transactionIndex": 1,
      "confirmations": null,
      "from": "0xB5EDD17d2582A94610ebf0C6832c1652EBBBe210",
      "gasPrice": {
        "_hex": "0xd997a75d4"
      },
      "gasLimit": {
        "_hex": "0x5208"
      },
      "to": "0x98077F47f89BEd877C8877Bf95753f6cE0CE4fcF",
      "value": {
        "_hex": "0xde0b6b3a7640000"
      },
      "nonce": 0,
      "data": "0x",
      "r": "0x32c87699c046e9e493759b69ecee86fa4bb257bec5e7daff51b9e8a4af18ec97",
      "s": "0x67ca1145702852cd030b45116ed47093e8d8a4670ad68dfbd7c455d0ae3dfce1",
      "v": 28,
      "creates": null,
      "raw": "0xf86c80850d997a75d48252089498077f47f89bed877c8877bf95753f6ce0ce4fcf880de0b6b3a7640000801ca032c87699c046e9e493759b69ecee86fa4bb257bec5e7daff51b9e8a4af18ec97a067ca1145702852cd030b45116ed47093e8d8a4670ad68dfbd7c455d0ae3dfce1",
      "networkId": 0,
      "chainId": 0
    }
  ]
}