{
  "hash": "0xea24161e742d71c391f2032e678f59c5dfc5fb053ac75775e8fe7df89e621b48",
  "parentHash": "0x7645ec9966fc5d3659d50d9162514fed5c452c36951f69944e87797f47432ae8",
  "number": 64601,
  "timestamp": 1439223338,
  "nonce": "0xbdf00d48e8832db5",
  "difficulty": 1892227970316,
  "gasLimit": {
    "_hex": "0x2fefd8"
  },
  "gasUsed": {
    "_hex": "0xbe6c"
  },
  "miner": "0xf927a40C8B7F6E07c5af7FA2155B4864a4112B13",
  "extraData": "0x",
  "transactions": [
    {
      "hash": "0x14c91643ffd16150a413392454ff309a7a308fda694ae0040a7970f0f6085eb3",
      "blockHash": "0xea24161e742d71c391f2032e678f59c5dfc5fb053ac75775e8fe7df89e621b48",
      "blockNumber": 64601,
      "transactionIndex": 0,
      "confirmations": null,
      "from": "0xaFA6B25669A8e28d6EfBE9350C7198B086E0d926",
      "gasPrice": {
        "_hex": "0xba43b7400"
      },
      "gasLimit": {
        "_hex": "0x15f90"
      },
      "to": "0x793AE8C1b1a160BFc07BFB0d04F85eab1A71F4f2",
      "value": {
        "_hex": "0x0"
      },
      "nonce": 0,
      "data": "0x3ba15036",
      "r": "0xb8a19dcd590f22f7f08da5d0ecf268b38dcf38437db400052a270dbc128a372f",
      "s": "0x5dcecc48cea68032866535f34e5ad06f1686160a2d76a3bba6ba501a5805ec34",
      "v": 27,
      "creates": null,
      "raw": "0xf86980850ba43b740083015f9094793ae8c1b1a160bfc07bfb0d04f85eab1a71f4f280843ba150361ba0b8a19dcd590f22f7f08da5d0ecf268b38dcf38437db400052a270dbc128a372fa05dcecc48cea68032866535f34e5ad06f1686160a2d76a3bba6ba501a5805ec34",
      "networkId": 0,
      "chainId": 0
    }
  ]
}