{
  "hash": "0x7456db5148e1eb32080ba1cbb280fe3353129d3f159e47dc01b59b9f0d76eef4",
  "parentHash": "0xf037c4f4cc8c0ed7450ad0a40e0851317a43660d7526d7b3f98772aeaba3f687",
  "number": 110749,
  "timestamp": 1439978785,
  "nonce": "0xf6dbec828dfaa5e6",
  "difficulty": 4396842034277,
  "gasLimit": {
    "_hex": "0x2fff82"
  },
  "gasUsed": {
    "_hex": "0x2dc6c0"
  },
  "miner": "0x9746c7e1ef2bd21FF3997fa467593a89cb852BD0",
  "extraData": "0x476574682f76312e302e312f77696e646f77732f676f312e342e32",
  "transactions": [
    {
      "hash": "0x4341bfbb6fa728457811d33f14f2fd3742a03f77ce91960644ada8e7340be540",
      "blockHash": "0x7456db5148e1eb32080ba1cbb280fe3353129d3f159e47dc01b59b9f0d76eef4",
      "blockNumber": 110749,
      "transactionIndex": 0,
      "confirmations": null,
      "from": "0x54dAeb3E8a6BBC797E4aD2b0339f134b186e4637",
      "gasPrice": {
        "_hex": "0xe1780dfbb"
      },
      "gasLimit": {
        "_hex": "0x7a120"
      },
      "to": "0xBAA54d6E90c3F4d7Ebec11bD180134C7eD8eBb52",
      "value": {
        "_hex": "0x16345785d8a0000"
      },
      "nonce": 994,
      "data": "0x",
      "r": "0xff25e786ddb13f79082a3160ce0229dca8101ad80bebc1898fd88ac693102398",
      "s": "0x61b71ac3468c9bfc955c14639dff7fd293f2522e8a9d709f4ef27a79545010f5",
      "v": 27,
      "creates": null,
      "raw": "0xf86f8203e2850e1780dfbb8307a12094baa54d6e90c3f4d7ebec11bd180134c7ed8ebb5288016345785d8a0000801ba0ff25e786ddb13f79082a3160ce0229dca8101ad80bebc1898fd88ac693102398a061b71ac3468c9bfc955c14639dff7fd293f2522e8a9d709f4ef27a79545010f5",
      "networkId": 0,
      "chainId": 0
    },
    {
      "hash": "0xb1d376b72c712d8e9b1a0d865df89751a796cb9b3c06e3333a10933cafc76390",
      "blockHash": "0x7456db5148e1eb32080ba1cbb280fe3353129d3f159e47dc01b59b9f0d76eef4",
      "blockNumber": 110749,
      "transactionIndex": 1,
      "confirmations": null,
      "from": "0x54dAeb3E8a6BBC797E4aD2b0339f134b186e4637",
      "gasPrice": {
        "_hex": "0xe7d27df17"
      },
      "gasLimit": {
        "_hex": "0x7a120"
      },
      "to": "0xBAA54d6E90c3F4d7Ebec11bD180134C7eD8eBb52",
      "value": {
        "_hex": "0x16345785d8a0000"
      },
      "nonce": 995,
      "data": "0x",
      "r": "0x63eebd3372377930c1d56e0744ef982997d437af3fe2b68ba1994494af1498a4",
      "s": "0x15bfe7f012232ea2685249e5e10f36df2fccab83a7d987834b09cf2ac065f38f",
      "v": 27,
      "creates": null,
      "raw": "0xf86f8203e3850e7d27df178307a12094baa54d6e90c3f4d7ebec11bd180134c7ed8ebb5288016345785d8a0000801ba063eebd3372377930c1d56e0744ef982997d437af3fe2b68ba1994494af1498a4a015bfe7f012232ea2685249e5e10f36df2fccab83a7d987834b09cf2ac065f38f",
      "networkId": 0,
      "chainId": 0
    },
    {
      "hash": "0xa475c2351d0599924b0768cea7e351da514d8413027518792a670ae9d8baf114",
      "blockHash": "0x7456db5148e1eb32080ba1cbb280fe3353129d3f159e47dc01b59b9f0d76eef4",
      "blockNumber": 110749,
      "transactionIndex": 2,
      "confirmations": null,
      "from": "0x54dAeb3E8a6BBC797E4aD2b0339f134b186e4637",
      "gasPrice": {
        "_hex": "0xd8bd64e50"
      },
      "gasLimit": {
        "_hex": "0x7a120"
      },
      "to": "0xBAA54d6E90c3F4d7Ebec11bD180134C7eD8eBb52",
      "value": {
        "_hex": "0x16345785d8a0000"
      },
      "nonce": 996,
      "data": "0x",
      "r": "0x17ba299b19b410cc59c070f2266a3bbbf47c626cda92bf4d013fae33fbd93853",
      "s": "0x2a3e9de621e53b997d09613685d5cedc45a825a8b77543a692cbf20ff9009d06",
      "v": 27,
      "creates": null,
      "raw": "0xf86f8203e4850d8bd64e508307a12094baa54d6e90c3f4d7ebec11bd180134c7ed8ebb5288016345785d8a0000801ba017ba299b19b410cc59c070f2266a3bbbf47c626cda92bf4d013fae33fbd93853a02a3e9de621e53b997d09613685d5cedc45a825a8b77543a692cbf20ff9009d06",
      "networkId": 0,
      "chainId": 0
    },
    {
      "hash": "0x0f67b5b35b332fc7aa4fe5d7a84c2e126d65411f694134ead4bc5cda13306ffb",
      "blockHash": "0x7456db5148e1eb32080ba1cbb280fe3353129d3f159e47dc01b59b9f0d76eef4",
      "blockNumber": 110749,
      "transactionIndex": 3,
      "confirmations": null,
      "from": "0x54dAeb3E8a6BBC797E4aD2b0339f134b186e4637",
      "gasPrice": {
        "_hex": "0xd8bd64e50"
      },
      "gasLimit": {
        "_hex": "0x7a120"
      },
      "to": "0xBAA54d6E90c3F4d7Ebec11bD180134C7eD8eBb52",
      "value": {
        "_hex": "0x16345785d8a0000"
      },
      "nonce": 997,
      "data": "0x",
      "r": "0x6b1e9f00f889d22072d2e2ff1306eb28a7039f56aa8327883eda21548adde51d",
      "s": "0x405cebc68e5265417c29827245967bbc9a6c900a1f4a3e5fb36b3cdd460981c1",
      "v": 27,
      "creates": null,
      "raw": "0xf86f8203e5850d8bd64e508307a12094baa54d6e90c3f4d7ebec11bd180134c7ed8ebb5288016345785d8a0000801ba06b1e9f00f889d22072d2e2ff1306eb28a7039f56aa8327883eda21548adde51da0405cebc68e5265417c29827245967bbc9a6c900a1f4a3e5fb36b3cdd460981c1",
      "networkId": 0,
      "chainId": 0
    },
    {
      "hash": "0xe075b485848144eff8d351e798596aa5a0db55b7d0281f536975c9fb658c24d7",
      "blockHash": "0x7456db5148e1eb32080ba1cbb280fe3353129d3f159e47dc01b59b9f0d76eef4",
      "blockNumber": 110749,
      "transactionIndex": 4,
      "confirmations": null,
      "from": "0x54dAeb3E8a6BBC797E4aD2b0339f134b186e4637",
      "gasPrice": {
        "_hex": "0xdf4ba21f9"
      },
      "gasLimit": {
        "_hex": "0x7a120"
      },
      "to": "0xBAA54d6E90c3F4d7Ebec11bD180134C7eD8eBb52",
      "value": {
        "_hex": "0x16345785d8a0000"
      },
      "nonce": 998,
      "data": "0x",
      "r": "0xaf27f54992c92ba960043f8d745f42dfc7378156a636aba46c320ed13e1b67f8",
      "s": "0x29fd3dae236dcdfb8bcaa6a956b24d230ef0177fed3dade1314247b2eaae6147",
      "v": 27,
      "creates": null,
      "raw": "0xf86f8203e6850df4ba21f98307a12094baa54d6e90c3f4d7ebec11bd180134c7ed8ebb5288016345785d8a0000801ba0af27f54992c92ba960043f8d745f42dfc7378156a636aba46c320ed13e1b67f8a029fd3dae236dcdfb8bcaa6a956b24d230ef0177fed3dade1314247b2eaae6147",
      "networkId": 0,
      "chainId": 0
    },
    {
      "hash": "0x9ce80bc97c515daa96ad8fdc51130052a609182e0ae5017d301854ce4cb61196",
      "blockHash": "0x7456db5148e1eb32080ba1cbb280fe3353129d3f159e47dc01b59b9f0d76eef4",
      "blockNumber": 110749,
      "transactionIndex": 5,
      "confirmations": null,
      "from": "0x54dAeb3E8a6BBC797E4aD2b0339f134b186e4637",
      "gasPrice": {
        "_hex": "0xdce5b224a"
      },
      "gasLimit": {
        "_hex": "0x7a120"
      },
      "to": "0xBAA54d6E90c3F4d7Ebec11bD180134C7eD8eBb52",
      "value": {
        "_hex": "0x16345785d8a0000"
      },
      "nonce": 999,
      "data": "0x",
      "r": "0x19ba054327c7dbfb97d0dc9aedbfcbb6caf7f7ba3ef1faa6c6d5db3ebb5b5583",
      "s": "0x64a1754f6818df238d5c326be1166a3a7d0838378fef6b6e1e03f0efb22427f4",
      "v": 27,
      "creates": null,
      "raw": "0xf86f8203e7850dce5b224a8307a12094baa54d6e90c3f4d7ebec11bd180134c7ed8ebb5288016345785d8a0000801ba019ba054327c7dbfb97d0dc9aedbfcbb6caf7f7ba3ef1faa6c6d5db3ebb5b5583a064a1754f6818df238d5c326be1166a3a7d0838378fef6b6e1e03f0efb22427f4",
      "networkId": 0,
      "chainId": 0
    }
  ]
}