{
  "hash": "0xfeda7d2261f0ccd00baffc6edcac581614e472eeb921f70beb8709a774d22e12",
  "parentHash": "0x504b0ba3f9dc5909b7e8a6021ea379d7a8b05223c5c22632e39403a7c36ab675",
  "number": 115830,
  "timestamp": 1440064212,
  "nonce": "0xc96c1dc8986c457d",
  "difficulty": 4544747953000,
  "gasLimit": {
    "_hex": "0x2fefd8"
  },
  "gasUsed": {
    "_hex": "0x19a28"
  },
  "miner": "0xe6A7a1d47ff21B6321162AEA7C6CB457D5476Bca",
  "extraData": "0x476574682f76312e302e312d38326566323666362f6c696e75782f676f312e34",
  "transactions": [
    {
      "hash": "0xa88bfcf44d0dc7f68b46d45e2488a831e5156ffca35a14c6127eef8864741fd5",
      "blockHash": "0xfeda7d2261f0ccd00baffc6edcac581614e472eeb921f70beb8709a774d22e12",
      "blockNumber": 115830,
      "transactionIndex": 0,
      "confirmations": null,
      "from": "0x32Be343B94f860124dC4fEe278FDCBD38C102D88",
      "gasPrice": {
        "_hex": "0xd6502bed3"
      },
      "gasLimit": {
        "_hex": "0x5208"
      },
      "to": "0xddD31eb39D56D51B50172884Bd2b88e1f6264F95",
      "value": {
        "_hex": "0x3635a626d36ee00000"
      },
      "nonce": 1450,
      "data": "0x",
      "r": "0x118a711df2dc21ee507bf51d8649d97af3586eafb5a05adff06cf230446a9dee",
      "s": "0x0d707ad42b7d73a0dcd633bbb99bcfb8694fa035088f251644a1f337e485f4f9",
      "v": 27,
      "creates": null,
      "raw": "0xf86f8205aa850d6502bed382520894ddd31eb39d56d51b50172884bd2b88e1f6264f95893635a626d36ee00000801ba0118a711df2dc21ee507bf51d8649d97af3586eafb5a05adff06cf230446a9deea00d707ad42b7d73a0dcd633bbb99bcfb8694fa035088f251644a1f337e485f4f9",
      "networkId": 0,
      "chainId": 0
    },
    {
      "hash": "0xfac0da4e45e3abbc1ad94c128dc89f87afefc440c9cf0739e71d7fa1279afadc",
      "blockHash": "0xfeda7d2261f0ccd00baffc6edcac581614e472eeb921f70beb8709a774d22e12",
      "blockNumber": 115830,
      "transactionIndex": 1,
      "confirmations": null,
      "from": "0x2910543Af39abA0Cd09dBb2D50200b3E800A63D2",
      "gasPrice": {
        "_hex": "0xcc6c18cd5"
      },
      "gasLimit": {
        "_hex": "0x5208"
      },
      "to": "0xa050CdE35569025b38d64AF9bb2B7e2a6f81D6be",
      "value": {
        "_hex": "0x5c4de159aef94000"
      },
      "nonce": 1125,
      "data": "0x",
      "r": "0x5950ab0740af2f3fbb7ddfadfc5244862e80842787569f1f6fe97a0a8bddcd34",
      "s": "0x20e8557eedcad799194399645af4ee8fd697c20b70fc41e1277a5e4547c8472c",
      "v": 28,
      "creates": null,
      "raw": "0xf86e820465850cc6c18cd582520894a050cde35569025b38d64af9bb2b7e2a6f81d6be885c4de159aef94000801ca05950ab0740af2f3fbb7ddfadfc5244862e80842787569f1f6fe97a0a8bddcd34a020e8557eedcad799194399645af4ee8fd697c20b70fc41e1277a5e4547c8472c",
      "networkId": 0,
      "chainId": 0
    },
    {
      "hash": "0xcc38def081f0beeabcf592f51553e9e5dff579f140d29e45945ab3186f8ffe68",
      "blockHash": "0xfeda7d2261f0ccd00baffc6edcac581614e472eeb921f70beb8709a774d22e12",
      "blockNumber": 115830,
      "transactionIndex": 2,
      "confirmations": null,
      "from": "0xBD5198beaFFEeb7db91FB313C8667Cd238db8DAE",
      "gasPrice": {
        "_hex": "0xba43b7400"
      },
      "gasLimit": {
        "_hex": "0x5208"
      },
      "to": "0xC47Aaa860008be6f65B58c6C6E02a84e666EfE31",
      "value": {
        "_hex": "0x1b8bf5821ee938f0"
      },
      "nonce": 1,
      "data": "0x",
      "r": "0x6fcc06d26603f547ab421867a97bf06ca76237f5e6446ea881f5c9b04620f297",
      "s": "0x43bdc0c45c49fb6e10d1eadb978f23af0088bc54430e32fa02e4c2e1bd54b154",
      "v": 27,
      "creates": null,
      "raw": "0xf86c01850ba43b740082520894c47aaa860008be6f65b58c6c6e02a84e666efe31881b8bf5821ee938f0801ba06fcc06d26603f547ab421867a97bf06ca76237f5e6446ea881f5c9b04620f297a043bdc0c45c49fb6e10d1eadb978f23af0088bc54430e32fa02e4c2e1bd54b154",
      "networkId": 0,
      "chainId": 0
    },
    {
      "hash": "0xfc6798d75248f905cb7411860cebde82f5cad2e0b5982868589247adf13ff6c5",
      "blockHash": "0xfeda7d2261f0ccd00baffc6edcac581614e472eeb921f70beb8709a774d22e12",
      "blockNumber": 115830,
      "transactionIndex": 3,
      "confirmations": null,
      "from": "0xf01e25B76A4274d2e5af5810302E4230c8A515D3",
      "gasPrice": {
        "_hex": "0xba43b7400"
      },
      "gasLimit": {
        "_hex": "0x5208"
      },
      "to": "0xC47Aaa860008be6f65B58c6C6E02a84e666EfE31",
      "value": {
        "_hex": "0x1a27e5de69e5a28f0"
      },
      "nonce": 2,
      "data": "0x",
      "r": "0x30c9ad48fff7256d6b3113d32cbc6b70984c23b1b0b676ad9de166be8c166825",
      "s": "0x53e59eb0437779a347420d36ad70b15721115602b635e0602df8a420b9f6c196",
      "v": 28,
      "creates": null,
      "raw": "0xf86d02850ba43b740082520894c47aaa860008be6f65b58c6c6e02a84e666efe318901a27e5de69e5a28f0801ca030c9ad48fff7256d6b3113d32cbc6b70984c23b1b0b676ad9de166be8c166825a053e59eb0437779a347420d36ad70b15721115602b635e0602df8a420b9f6c196",
      "networkId": 0,
      "chainId": 0
    },
    {
      "hash": "0x8facd351b40e128ee7559e18dac5266f0f32767ce698bfd9703e64d8fd061d24",
      "blockHash": "0xfeda7d2261f0ccd00baffc6edcac581614e472eeb921f70beb8709a774d22e12",
      "blockNumber": 115830,
      "transactionIndex": 4,
      "confirmations": null,
      "from": "0xAAc7c655830b2fF580BDFEa1a416E5efAfAb3291",
      "gasPrice": {
        "_hex": "0xba43b7400"
      },
      "gasLimit": {
        "_hex": "0x5208"
      },
      "to": "0xC47Aaa860008be6f65B58c6C6E02a84e666EfE31",
      "value": {
        "_hex": "0xcb34f35884dbbcf0"
      },
      "nonce": 2,
      "data": "0x",
      "r": "0xb080510f78b6c4888b323796509613e3b81d5b5c43786ef54ac61d1f97293ba0",
      "s": "0x2ba8ca0f62061d3ed6ea5e97e32405c51e71ff734f6d8f7d1e11a4614e13f428",
      "v": 27,
      "creates": null,
      "raw": "0xf86c02850ba43b740082520894c47aaa860008be6f65b58c6c6e02a84e666efe3188cb34f35884dbbcf0801ba0b080510f78b6c4888b323796509613e3b81d5b5c43786ef54ac61d1f97293ba0a02ba8ca0f62061d3ed6ea5e97e32405c51e71ff734f6d8f7d1e11a4614e13f428",
      "networkId": 0,
      "chainId": 0
    }
  ]
}