{
  "hash": "0x41610e1d0a11701fd485f81a5754c52eab5314711084e8df559f5e5db102673e",
  "parentHash": "0xecc9db484e479a4a0c44189b1aec0984ac114a0a663fc8baa301c8697187be34",
  "number": 104921,
  "timestamp": 1439878370,
  "nonce": "0x2f6c09ff05118179",
  "difficulty": 4327455616035,
  "gasLimit": {
    "_hex": "0x2fefd8"
  },
  "gasUsed": {
    "_hex": "0x546c"
  },
  "miner": "0xe6A7a1d47ff21B6321162AEA7C6CB457D5476Bca",
  "extraData": "0x476574682f76312e302e312d38326566323666362f6c696e75782f676f312e34",
  "transactions": [
    {
      "hash": "0x070488842eb7646bef021f0bdf03da13388d36c1305e7b6313f632c1ea166133",
      "blockHash": "0x41610e1d0a11701fd485f81a5754c52eab5314711084e8df559f5e5db102673e",
      "blockNumber": 104921,
      "transactionIndex": 0,
      "confirmations": null,
      "from": "0xaff161740a6D909fE99c59a9b77945c91CC91448",
      "gasPrice": {
        "_hex": "0x110c8f7d8de"
      },
      "gasLimit": {
        "_hex": "0xc350"
      },
      "to": "0x2910543Af39abA0Cd09dBb2D50200b3E800A63D2",
      "value": {
        "_hex": "0x2fb474098f67c0000"
      },
      "nonce": 0,
      "data": "0x454e31363157484730",
      "r": "0xbb9f2bc0091750b141e63c92b01b4ec976bb71014e939fe0527377d4828398de",
      "s": "0x2583a013cde6d8b865bdb8cf9ece84e8710b4971789e893a81022ca02458b4b8",
      "v": 27,
      "creates": null,
      "raw": "0xf87780860110c8f7d8de82c350942910543af39aba0cd09dbb2d50200b3e800a63d28902fb474098f67c000089454e313631574847301ba0bb9f2bc0091750b141e63c92b01b4ec976bb71014e939fe0527377d4828398dea02583a013cde6d8b865bdb8cf9ece84e8710b4971789e893a81022ca02458b4b8",
      "networkId": 0,
      "chainId": 0
    }
  ]
}