{
  "hash": "0xb584f065a91211fe66383ce6649e841990c97a744a6ce249b3780e48f18d0e0f",
  "parentHash": "0x8b2350c0d16e105387e5bb46b4b30cdef287dfe3143ecde69503491800d56900",
  "number": 74222,
  "timestamp": 1439382581,
  "nonce": "0xe2d7adf9c9873d21",
  "difficulty": 2212942103183,
  "gasLimit": {
    "_hex": "0x2fefd8"
  },
  "gasUsed": {
    "_hex": "0x546c"
  },
  "miner": "0xF78645Ea06d743C6B52a11EB3f3d486bbb4Cf01F",
  "extraData": "0x",
  "transactions": [
    {
      "hash": "0x384bc30da01cf342c43ca0f11f3783f7363c7b321d8e6b660475e15e7fafe911",
      "blockHash": "0xb584f065a91211fe66383ce6649e841990c97a744a6ce249b3780e48f18d0e0f",
      "blockNumber": 74222,
      "transactionIndex": 0,
      "confirmations": null,
      "from": "0xe172DFC8f80Cd1F8cD8539dC26082014f5a8e3E8",
      "gasPrice": {
        "_hex": "0x110c8f7d8de"
      },
      "gasLimit": {
        "_hex": "0xc350"
      },
      "to": "0x2910543Af39abA0Cd09dBb2D50200b3E800A63D2",
      "value": {
        "_hex": "0x8963dd8c2c5e0000"
      },
      "nonce": 1,
      "data": "0x454e44514d4d5a4547",
      "r": "0x6d2dcc46d7930a5d2762b4ae68439cc297a67366f9e7077f55c04990678d4895",
      "s": "0x702630afbe745bbfb2564a5c2eb180c1eebffa82c2dc4e16c07703df951c7dce",
      "v": 28,
      "creates": null,
      "raw": "0xf87601860110c8f7d8de82c350942910543af39aba0cd09dbb2d50200b3e800a63d2888963dd8c2c5e000089454e44514d4d5a45471ca06d2dcc46d7930a5d2762b4ae68439cc297a67366f9e7077f55c04990678d4895a0702630afbe745bbfb2564a5c2eb180c1eebffa82c2dc4e16c07703df951c7dce",
      "networkId": 0,
      "chainId": 0
    }
  ]
}