{
  "hash": "0x61ed7faf52bb2801c529204bfc9cd9fdc551e584e4a45d900a8ba6ae7581e37a",
  "parentHash": "0xd0a602bcf71c319f648eac028a4d6671d3109c40ca4e60e22a2726adc5772091",
  "number": 80887,
  "timestamp": 1439492712,
  "nonce": "0x135b18a663c28069",
  "difficulty": 2448753593772,
  "gasLimit": {
    "_hex": "0x2fefd8"
  },
  "gasUsed": {
    "_hex": "0x5208"
  },
  "miner": "0xf927a40C8B7F6E07c5af7FA2155B4864a4112B13",
  "extraData": "0x",
  "transactions": [
    {
      "hash": "0x06df0dc6eae9b46cd171d06deac92d2e0c4d05bb8084412b2221b83aa8c9aa4f",
      "blockHash": "0x61ed7faf52bb2801c529204bfc9cd9fdc551e584e4a45d900a8ba6ae7581e37a",
      "blockNumber": 80887,
      "transactionIndex": 0,
      "confirmations": null,
      "from": "0x1E1f7dDeCbe7b21492957BF4C5365eae580aA990",
      "gasPrice": {
        "_hex": "0xba43b7400"
      },
      "gasLimit": {
        "_hex": "0x5208"
      },
      "to": "0xC47Aaa860008be6f65B58c6C6E02a84e666EfE31",
      "value": {
        "_hex": "0xe1cb81139a5a000"
      },
      "nonce": 0,
      "data": "0x",
      "r": "0x57994d08be0dcc2056e005326f5f66e5a3226a7dd7c7c2715171777343ec1f9e",
      "s": "0x04b28da072e96b1fdf34c85a47d347783016e7a81ed5b0719399d597c4578c7a",
      "v": 27,
      "creates": null,
      "raw": "0xf86c80850ba43b740082520894c47aaa860008be6f65b58c6c6e02a84e666efe31880e1cb81139a5a000801ba057994d08be0dcc2056e005326f5f66e5a3226a7dd7c7c2715171777343ec1f9ea004b28da072e96b1fdf34c85a47d347783016e7a81ed5b0719399d597c4578c7a",
      "networkId": 0,
      "chainId": 0
    }
  ]
}