{
  "hash": "0x74ad194aceb04fb447ee6b7baf3ed82463020b5b410a16065175554483805622",
  "parentHash": "0x2f963a049ec1358153ec5fc864c661e73fbe6c3c4f6fcc00c61ce6075570f48f",
  "number": 56187,
  "timestamp": 1439083254,
  "nonce": "0x222aedc87e424f04",
  "difficulty": 1642434916454,
  "gasLimit": {
    "_hex": "0x2fefd8"
  },
  "gasUsed": {
    "_hex": "0x5cce"
  },
  "miner": "0x3222BA3F3e79eA0e31467EEE7639B57923558cCD",
  "extraData": "0x",
  "transactions": [
    {
      "hash": "0xe327d401c08a13235d61d382a1e5a19c3510177ec9dbb4730ba72bac8daa5cd4",
      "blockHash": "0x74ad194aceb04fb447ee6b7baf3ed82463020b5b410a16065175554483805622",
      "blockNumber": 56187,
      "transactionIndex": 0,
      "confirmations": null,
      "from": "0x288E4356F12D0D3D0F8DF3506E457E7cFd5f4Ab0",
      "gasPrice": {
        "_hex": "0xcd4e2a649"
      },
      "gasLimit": {
        "_hex": "0x15f90"
      },
      "to": "0x40F457d7D8430bC6D03609b81Cc2E95b7bEFb01a",
      "value": {
        "_hex": "0x0"
      },
      "nonce": 34,
      "data": "0x7888a781000000000000000000000000288e4356f12d0d3d0f8df3506e457e7cfd5f4ab0",
      "r": "0x4c5aa3c5264ac56e8b009a395ca52d02a938f49c7ee98ecb7758954358d4629e",
      "s": "0x4c1a8d71ea94c1076801e744ef7c84a3b6521905006ac4889e058fbaa904d974",
      "v": 28,
      "creates": null,
      "raw": "0xf88922850cd4e2a64983015f909440f457d7d8430bc6d03609b81cc2e95b7befb01a80a47888a781000000000000000000000000288e4356f12d0d3d0f8df3506e457e7cfd5f4ab01ca04c5aa3c5264ac56e8b009a395ca52d02a938f49c7ee98ecb7758954358d4629ea04c1a8d71ea94c1076801e744ef7c84a3b6521905006ac4889e058fbaa904d974",
      "networkId": 0,
      "chainId": 0
    }
  ]
}