{
  "hash": "0xb2e4ffde464855b8dfb4346cffcd4bdc5c9a785c90d0d64a937e7d9c3cff99c8",
  "parentHash": "0x311a79444bba0fd4f7c9bc580e365b20fec0ec7c79d4da81ad10f488a0333a2e",
  "number": 78017,
  "timestamp": 1439446773,
  "nonce": "0xd6ee770fad2b0725",
  "difficulty": 2287734229128,
  "gasLimit": {
    "_hex": "0x2fefd8"
  },
  "gasUsed": {
    "_hex": "0x5208"
  },
  "miner": "0xf927a40C8B7F6E07c5af7FA2155B4864a4112B13",
  "extraData": "0x",
  "transactions": [
    {
      "hash": "0xd9f69b5f1b1115ccc398da803ec60e495b837b0cc4d888e9e4629e10c650fa6a",
      "blockHash": "0xb2e4ffde464855b8dfb4346cffcd4bdc5c9a785c90d0d64a937e7d9c3cff99c8",
      "blockNumber": 78017,
      "transactionIndex": 0,
      "confirmations": null,
      "from": "0x32Be343B94f860124dC4fEe278FDCBD38C102D88",
      "gasPrice": {
        "_hex": "0xda9488a49"
      },
      "gasLimit": {
        "_hex": "0x5208"
      },
      "to": "0x5170535271F5B9eC438c0447b3daD67b3E2633f2",
      "value": {
        "_hex": "0x8ac7230489e80000"
      },
      "nonce": 382,
      "data": "0x",
      "r": "0xdfe81038a954c21ee7722235c124a60e25e82f9012a15bd730227a0b15456e86",
      "s": "0x14c2bf287358bde0474eaf7604914c43a16e0c1a3d66e828c36572c86be2e427",
      "v": 27,
      "creates": null,
      "raw": "0xf86e82017e850da9488a49825208945170535271f5b9ec438c0447b3dad67b3e2633f2888ac7230489e80000801ba0dfe81038a954c21ee7722235c124a60e25e82f9012a15bd730227a0b15456e86a014c2bf287358bde0474eaf7604914c43a16e0c1a3d66e828c36572c86be2e427",
      "networkId": 0,
      "chainId": 0
    }
  ]
}