{
  "hash": "0xbbbf0363c76c162198d197983a13f39ea7f15eefc7872f29116fb7590ecc4dfc",
  "parentHash": "0x9b06dfe35dd51331b350256512acd4748df67d0f523868cc779b1fe13c07f588",
  "number": 81633,
  "timestamp": 1439505012,
  "nonce": "0x63e7c782ee1cb4f1",
  "difficulty": 2441372887778,
  "gasLimit": {
    "_hex": "0x2fefd8"
  },
  "gasUsed": {
    "_hex": "0x5208"
  },
  "miner": "0x580992B51e3925e23280EfB93d3047C82f17E038",
  "extraData": "0x476574682f76312e302e312f6c696e75782f676f312e342e32",
  "transactions": [
    {
      "hash": "0x36e5b974625b3fe729eec475c770c8757046afba25ab38ad8d7c8053119c16f6",
      "blockHash": "0xbbbf0363c76c162198d197983a13f39ea7f15eefc7872f29116fb7590ecc4dfc",
      "blockNumber": 81633,
      "transactionIndex": 0,
      "confirmations": null,
      "from": "0x807086749319BD30230cA063Bf880e5775728DBb",
      "gasPrice": {
        "_hex": "0xba43b7400"
      },
      "gasLimit": {
        "_hex": "0x5208"
      },
      "to": "0xC47Aaa860008be6f65B58c6C6E02a84e666EfE31",
      "value": {
        "_hex": "0xaa5bf31d18da9c400"
      },
      "nonce": 0,
      "data": "0x",
      "r": "0x144883eb2c1301a8ee5b56166fe81879ffba80f05d0fb06031c383371daa1d52",
      "s": "0x054940765991d7c65c697e46b81ff31dc205e2c00d2f32cacfd5fbfa281fcd91",
      "v": 28,
      "creates": null,
      "raw": "0xf86d80850ba43b740082520894c47aaa860008be6f65b58c6c6e02a84e666efe31890aa5bf31d18da9c400801ca0144883eb2c1301a8ee5b56166fe81879ffba80f05d0fb06031c383371daa1d52a0054940765991d7c65c697e46b81ff31dc205e2c00d2f32cacfd5fbfa281fcd91",
      "networkId": 0,
      "chainId": 0
    }
  ]
}