{
  "hash": "0xa64a06d34628eda73904133b34e7e30af7d72c649fddffe2fbc15e4a98e50682",
  "parentHash": "0x61ff19ae317c5af689eff11a58df6a4e3a31b540abb1ff1b59ac5a7a07b598a2",
  "number": 65337,
  "timestamp": 1439235170,
  "nonce": "0x2fd77baaf1b1c407",
  "difficulty": 1942613840349,
  "gasLimit": {
    "_hex": "0x2fefd8"
  },
  "gasUsed": {
    "_hex": "0x5208"
  },
  "miner": "0xf927a40C8B7F6E07c5af7FA2155B4864a4112B13",
  "extraData": "0x",
  "transactions": [
    {
      "hash": "0x670b07ec28d3de291cc96ef02e086ffcd11cdab04b2656b6f5687a1113cd9c44",
      "blockHash": "0xa64a06d34628eda73904133b34e7e30af7d72c649fddffe2fbc15e4a98e50682",
      "blockNumber": 65337,
      "transactionIndex": 0,
      "confirmations": null,
      "from": "0x5fC211C7C030daDfc516CCA89365155b0B4114FD",
      "gasPrice": {
        "_hex": "0xba43b7400"
      },
      "gasLimit": {
        "_hex": "0x5208"
      },
      "to": "0xc1284bD10EEdb223aD9fa46e8d2Ad9098B706252",
      "value": {
        "_hex": "0x8ccfccbd8e76000"
      },
      "nonce": 1,
      "data": "0x",
      "r": "0xe7da294375dbee8d6d92270c8974b33ace7085064759e8e6b58c7e6ea2151b9a",
      "s": "0x2c8d9d75c7982902261e1232e806be53814793e9f257e9f5b067a81e1bc811a6",
      "v": 28,
      "creates": null,
      "raw": "0xf86c01850ba43b740082520894c1284bd10eedb223ad9fa46e8d2ad9098b7062528808ccfccbd8e76000801ca0e7da294375dbee8d6d92270c8974b33ace7085064759e8e6b58c7e6ea2151b9aa02c8d9d75c7982902261e1232e806be53814793e9f257e9f5b067a81e1bc811a6",
      "networkId": 0,
      "chainId": 0
    }
  ]
}