{
  "hash": "0x3b99f2e89633c46ba68ac3ccc909b7880cbff1fa82c74b46efec6aa602d02330",
  "parentHash": "0x1df5ba90fac97e9e5276a4c3ce8ee2a58c95fb19d1be44e14dc741c169155b68",
  "number": 83663,
  "timestamp": 1439538730,
  "nonce": "0x49df3d34890754b3",
  "difficulty": 2445553970991,
  "gasLimit": {
    "_hex": "0x2fefd8"
  },
  "gasUsed": {
    "_hex": "0x5208"
  },
  "miner": "0x9Fa9952255B2b06639A04D63804d4BdFFf6E2d7e",
  "extraData": "0x476574682f76312e302e312f77696e646f77732f676f312e342e32",
  "transactions": [
    {
      "hash": "0x4ca61b75567a5cfed9b10a4139c7faa114ab53d273d1394ce2805b8a6e203b39",
      "blockHash": "0x3b99f2e89633c46ba68ac3ccc909b7880cbff1fa82c74b46efec6aa602d02330",
      "blockNumber": 83663,
      "transactionIndex": 0,
      "confirmations": null,
      "from": "0x120A270bbC009644e35F0bB6ab13f95b8199c4ad",
      "gasPrice": {
        "_hex": "0xd488b88bf"
      },
      "gasLimit": {
        "_hex": "0x3d090"
      },
      "to": "0xB4d1131BD9816E40228fC12D5390190385463f21",
      "value": {
        "_hex": "0x9a597656d02c9c00"
      },
      "nonce": 414,
      "data": "0x",
      "r": "0x4a46bb61ece3a0455ef6b293a218231edfabe3436e2b8b50918ae383b4051c06",
      "s": "0x53d4b26ce4f4fe5b1c3f0c6c9bb451e020eb525c276a934c63371d088b9df219",
      "v": 27,
      "creates": null,
      "raw": "0xf86f82019e850d488b88bf8303d09094b4d1131bd9816e40228fc12d5390190385463f21889a597656d02c9c00801ba04a46bb61ece3a0455ef6b293a218231edfabe3436e2b8b50918ae383b4051c06a053d4b26ce4f4fe5b1c3f0c6c9bb451e020eb525c276a934c63371d088b9df219",
      "networkId": 0,
      "chainId": 0
    }
  ]
}