{
  "hash": "0x326c399c71cc75d5d423e833e342e1376085a4b6b7096cce82460ab9401d431e",
  "parentHash": "0xeacc4f9bc5594c89f7d59f6d2d9eab23888fcc454f7b2517af215cd9e963ea63",
  "number": 55934,
  "timestamp": 1439079392,
  "nonce": "0xb018d03b1d8c96f2",
  "difficulty": 1616230721865,
  "gasLimit": {
    "_hex": "0x2fefd8"
  },
  "gasUsed": {
    "_hex": "0xa410"
  },
  "miner": "0x9746c7e1ef2bd21FF3997fa467593a89cb852BD0",
  "extraData": "0x476574682f76312e302e312f77696e646f77732f676f312e342e32",
  "transactions": [
    {
      "hash": "0x6e2039ae289644576c1391a725549f19c46ce58cce8e71327750def8565df6b6",
      "blockHash": "0x326c399c71cc75d5d423e833e342e1376085a4b6b7096cce82460ab9401d431e",
      "blockNumber": 55934,
      "transactionIndex": 0,
      "confirmations": null,
      "from": "0xB0bF4A71F730782368Ef660FE6D298F432F95450",
      "gasPrice": {
        "_hex": "0xd1581320a"
      },
      "gasLimit": {
        "_hex": "0x5208"
      },
      "to": "0x32Be343B94f860124dC4fEe278FDCBD38C102D88",
      "value": {
        "_hex": "0x1b28c15c4b25670000"
      },
      "nonce": 6,
      "data": "0x",
      "r": "0xd7dcc7542a4a57e542b2293fcb7fb9543743ed79ce69f6674a85b83b8051bea3",
      "s": "0x08c4a1ef32cc144c24b1302ccf6ae28717ef5a377c01b53baef5ec6f93e85809",
      "v": 28,
      "creates": null,
      "raw": "0xf86d06850d1581320a8252089432be343b94f860124dc4fee278fdcbd38c102d88891b28c15c4b25670000801ca0d7dcc7542a4a57e542b2293fcb7fb9543743ed79ce69f6674a85b83b8051bea3a008c4a1ef32cc144c24b1302ccf6ae28717ef5a377c01b53baef5ec6f93e85809",
      "networkId": 0,
      "chainId": 0
    },
    {
      "hash": "0x7b5fa40a18a8f3c2e680e79980508bb87a08752977f26c02f2b2a8106ccde113",
      "blockHash": "0x326c399c71cc75d5d423e833e342e1376085a4b6b7096cce82460ab9401d431e",
      "blockNumber": 55934,
      "transactionIndex": 1,
      "confirmations": null,
      "from": "0x120A270bbC009644e35F0bB6ab13f95b8199c4ad",
      "gasPrice": {
        "_hex": "0xcf34804b6"
      },
      "gasLimit": {
        "_hex": "0x15f90"
      },
      "to": "0xb7D2dA6be86fA2bA1aF36d09448F029e438Fc419",
      "value": {
        "_hex": "0x2b5e3af16b18800000"
      },
      "nonce": 24,
      "data": "0x",
      "r": "0x7496c09c3eef3cb21b5d63a0cd58522aa56441cc64d9af0b8fb28e73de0cc305",
      "s": "0x6f18142dba24410c119e7619092e527dd444255427673cfb8c11247e8871a2bd",
      "v": 27,
      "creates": null,
      "raw": "0xf86e18850cf34804b683015f9094b7d2da6be86fa2ba1af36d09448f029e438fc419892b5e3af16b18800000801ba07496c09c3eef3cb21b5d63a0cd58522aa56441cc64d9af0b8fb28e73de0cc305a06f18142dba24410c119e7619092e527dd444255427673cfb8c11247e8871a2bd",
      "networkId": 0,
      "chainId": 0
    }
  ]
}