{
  "hash": "0xcc9ba78b0223f33383e0bb316b6b915addc7f35724a70d2865d2b569758133a2",
  "parentHash": "0xaaff59b791e2fdde318281b91ed4adb4cfab8ede305d4d1c7bc7764925f92f8b",
  "number": 91571,
  "timestamp": 1439657865,
  "nonce": "0xc137452e75186952",
  "difficulty": 3489555289200,
  "gasLimit": {
    "_hex": "0x2fefd8"
  },
  "gasUsed": {
    "_hex": "0x5208"
  },
  "miner": "0xE300c4587D260cE22a677755Db6429B491A4309E",
  "extraData": "0x",
  "transactions": [
    {
      "hash": "0x59eca7939b657684192bc9da6809b69beee71552cf51d906f893a3fc1e808373",
      "blockHash": "0xcc9ba78b0223f33383e0bb316b6b915addc7f35724a70d2865d2b569758133a2",
      "blockNumber": 91571,
      "transactionIndex": 0,
      "confirmations": null,
      "from": "0xc27376f45D21E15edE3b26F2655FceE02Ccc0F2a",
      "gasPrice": {
        "_hex": "0x104c91b17fa"
      },
      "gasLimit": {
        "_hex": "0x5208"
      },
      "to": "0x8275f23188E1EB190f386D35ecef64364FCCdAEE",
      "value": {
        "_hex": "0xb5e620f48000"
      },
      "nonce": 4,
      "data": "0x",
      "r": "0xbcda358d61e2cf6e57ed13e04f49c8ae571b1eb3f678ed620fe1e4369cf4a9bc",
      "s": "0x3e55ca6475257603195d04e627351df832aa83ab1e3aee2c378f068ca72f3313",
      "v": 28,
      "creates": null,
      "raw": "0xf86b04860104c91b17fa825208948275f23188e1eb190f386d35ecef64364fccdaee86b5e620f48000801ca0bcda358d61e2cf6e57ed13e04f49c8ae571b1eb3f678ed620fe1e4369cf4a9bca03e55ca6475257603195d04e627351df832aa83ab1e3aee2c378f068ca72f3313",
      "networkId": 0,
      "chainId": 0
    }
  ]
}