{
  "hash": "0xee807723c182caaf4c6286014fb7a78d4538f834abe18d08d6a474b44e57d6c3",
  "parentHash": "0xd2d4134fb5be956f4297284937471a21fa2ea9197d324c42e499d6e5c015744c",
  "number": 105655,
  "timestamp": 1439891312,
  "nonce": "0x185e3d9cffe9134a",
  "difficulty": 4399512837063,
  "gasLimit": {
    "_hex": "0x2fefd8"
  },
  "gasUsed": {
    "_hex": "0x5208"
  },
  "miner": "0xe6A7a1d47ff21B6321162AEA7C6CB457D5476Bca",
  "extraData": "0x476574682f76312e302e312d38326566323666362f6c696e75782f676f312e34",
  "transactions": [
    {
      "hash": "0x998dc2480b1d58febe3c70f9e0f4f8e19708b13ad32c05be6eb4b94366676e29",
      "blockHash": "0xee807723c182caaf4c6286014fb7a78d4538f834abe18d08d6a474b44e57d6c3",
      "blockNumber": 105655,
      "transactionIndex": 0,
      "confirmations": null,
      "from": "0x63738Ec4C9adec404749B5747F3bbE2147de632F",
      "gasPrice": {
        "_hex": "0xd23ee12e2"
      },
      "gasLimit": {
        "_hex": "0x15f90"
      },
      "to": "0x557C2806B6ceA65a66F415bb2Ed1ce897B340745",
      "value": {
        "_hex": "0xde0b6b3a7640000"
      },
      "nonce": 39,
      "data": "0x",
      "r": "0xc6a4133dc342f1a4a26f18f3ab3cf90ed0fb55556b13e6a704147c1f1d40564c",
      "s": "0x5955bd649efb87812663412455d1cd9ec60a3c6997276a1133050bbe1ff9639b",
      "v": 28,
      "creates": null,
      "raw": "0xf86d27850d23ee12e283015f9094557c2806b6cea65a66f415bb2ed1ce897b340745880de0b6b3a7640000801ca0c6a4133dc342f1a4a26f18f3ab3cf90ed0fb55556b13e6a704147c1f1d40564ca05955bd649efb87812663412455d1cd9ec60a3c6997276a1133050bbe1ff9639b",
      "networkId": 0,
      "chainId": 0
    }
  ]
}