{
  "hash": "0xde9d76587b1e466ab829369ba56273d37e31db78e16e8110f6c810d8e204a830",
  "parentHash": "0xffa8958fc9085623ce7989f987bc6da93e1638a7c562d6df15dab6e5297564c5",
  "number": 74926,
  "timestamp": 1439394737,
  "nonce": "0xc9b56ebf42997871",
  "difficulty": 2193393552953,
  "gasLimit": {
    "_hex": "0x2fefd8"
  },
  "gasUsed": {
    "_hex": "0x54c8"
  },
  "miner": "0xbb7B8287f3F0a933474a79eAe42CBCa977791171",
  "extraData": "0x476574682f4c5649562f76312e302e312f6c696e75782f676f312e342e32",
  "transactions": [
    {
      "hash": "0x0dcd9cb74292275ea15bdbf624ee93750ddb76ce7dec679973b94fc555ad374f",
      "blockHash": "0xde9d76587b1e466ab829369ba56273d37e31db78e16e8110f6c810d8e204a830",
      "blockNumber": 74926,
      "transactionIndex": 0,
      "confirmations": null,
      "from": "0x4BD5f0Ee173C81d42765154865EE69361b6aD189",
      "gasPrice": {
        "_hex": "0x746a528800"
      },
      "gasLimit": {
        "_hex": "0x5dc4"
      },
      "to": "0x2910543Af39abA0Cd09dBb2D50200b3E800A63D2",
      "value": {
        "_hex": "0x8ac7230489e80000"
      },
      "nonce": 20,
      "data": "0x0000000000000000000000000000000000000000000000454e465631595a3552",
      "r": "0x6305f7c923faf32a1b8d87122c8b0c047ec977716caee19ddddb1120a97b7d0c",
      "s": "0x8bf63df2657af2e5f6f58f0bcbab865fcae96b928f312683e6e162846f8cdce1",
      "v": 27,
      "creates": null,
      "raw": "0xf88c1485746a528800825dc4942910543af39aba0cd09dbb2d50200b3e800a63d2888ac7230489e80000a00000000000000000000000000000000000000000000000454e465631595a35521ba06305f7c923faf32a1b8d87122c8b0c047ec977716caee19ddddb1120a97b7d0ca08bf63df2657af2e5f6f58f0bcbab865fcae96b928f312683e6e162846f8cdce1",
      "networkId": 0,
      "chainId": 0
    }
  ]
}