{
  "hash": "0x42521359bc182ed6bc1872378db51f2a819c88309ead519892aa2e97f3a48421",
  "parentHash": "0xba6ebe7b8f0251235b70757be7bf03be8195ba8be1e65e535ee637830faa6ca0",
  "number": 97040,
  "timestamp": 1439749933,
  "nonce": "0x732b9b99b1ab1f29",
  "difficulty": 3746790839790,
  "gasLimit": {
    "_hex": "0x2fefd8"
  },
  "gasUsed": {
    "_hex": "0x5208"
  },
  "miner": "0xEF247E639d49461D25F57e9362CadE3120910Ce0",
  "extraData": "0x476574682f76312e302e312f6c696e75782f676f312e342e32",
  "transactions": [
    {
      "hash": "0x32da69857583b409c5546aa229bb3c79f4c8d7bae1bc228ebe37597ef0299e3f",
      "blockHash": "0x42521359bc182ed6bc1872378db51f2a819c88309ead519892aa2e97f3a48421",
      "blockNumber": 97040,
      "transactionIndex": 0,
      "confirmations": null,
      "from": "0x976349705b839e2F5719387Fb27D2519d519da03",
      "gasPrice": {
        "_hex": "0xd3d37f23a"
      },
      "gasLimit": {
        "_hex": "0x15f90"
      },
      "to": "0x40Ac4578c8dAaf975a9b71B2bc4b342EB701Ded7",
      "value": {
        "_hex": "0x2386f26fc10000"
      },
      "nonce": 21,
      "data": "0x",
      "r": "0x7be31395c1f6730854fe996cca36263a66075d2ae340f31a0e9835d273ef98e3",
      "s": "0x3d3d8e2d2b3f7f0c8c0ed8389a4a8343730dbe959a00dd6446f5b2f0094a0942",
      "v": 27,
      "creates": null,
      "raw": "0xf86c15850d3d37f23a83015f909440ac4578c8daaf975a9b71b2bc4b342eb701ded7872386f26fc10000801ba07be31395c1f6730854fe996cca36263a66075d2ae340f31a0e9835d273ef98e3a03d3d8e2d2b3f7f0c8c0ed8389a4a8343730dbe959a00dd6446f5b2f0094a0942",
      "networkId": 0,
      "chainId": 0
    }
  ]
}