{
  "hash": "0x879ab9ddc05fafe54e7bd55e5d0d35720065676f046d303bd9f8e7fbb9002dd0",
  "parentHash": "0x69f15c40d2f536453be3fb5b71928e60ba2e3caf7a8c33abb03d105bc2535205",
  "number": 72354,
  "timestamp": 1439351403,
  "nonce": "0xf428ad64e7ad4c91",
  "difficulty": 2179118811843,
  "gasLimit": {
    "_hex": "0x2fefd8"
  },
  "gasUsed": {
    "_hex": "0x5208"
  },
  "miner": "0xF2d2AfF1320476cb8C6b607199D23175cc595693",
  "extraData": "0x476574682f76312e302e312f77696e646f77732f676f312e342e32",
  "transactions": [
    {
      "hash": "0x89595f51facb41e7d022fdc62fbeeb3d514d28ad3a4ea6478219e5d3b19d923e",
      "blockHash": "0x879ab9ddc05fafe54e7bd55e5d0d35720065676f046d303bd9f8e7fbb9002dd0",
      "blockNumber": 72354,
      "transactionIndex": 0,
      "confirmations": null,
      "from": "0xD35dB22141772c5b778CaE0ec680EF1fEcF357bD",
      "gasPrice": {
        "_hex": "0xcea8b79c7"
      },
      "gasLimit": {
        "_hex": "0x55f0"
      },
      "to": "0x29aeA5f51879982Fdb53Fb4F0720823Ed77E49Dc",
      "value": {
        "_hex": "0x4563918244f40000"
      },
      "nonce": 2,
      "data": "0x",
      "r": "0x0d4ce3a5a4565dededb7649bbd18ccb714e8958ed031a8bb73d72de184b40d89",
      "s": "0x3880cf1b91c07c12c7e39d4fb0d60ad01b785cac4d7746ea19d51053a25467fb",
      "v": 28,
      "creates": null,
      "raw": "0xf86c02850cea8b79c78255f09429aea5f51879982fdb53fb4f0720823ed77e49dc884563918244f40000801ca00d4ce3a5a4565dededb7649bbd18ccb714e8958ed031a8bb73d72de184b40d89a03880cf1b91c07c12c7e39d4fb0d60ad01b785cac4d7746ea19d51053a25467fb",
      "networkId": 0,
      "chainId": 0
    }
  ]
}