{
  "hash": "0x9d410a16b9b12e38b76af337cbc425a9633228f309ef4553798e7791650062c0",
  "parentHash": "0xb993235d793d7b0595c6a2dfb946008c1663b384d5afae2829a3d2195a4d93b6",
  "number": 119430,
  "timestamp": 1440142847,
  "nonce": "0x7064767b740a1677",
  "difficulty": 4381583993444,
  "gasLimit": {
    "_hex": "0x2fefd8"
  },
  "gasUsed": {
    "_hex": "0xf618"
  },
  "miner": "0xe6A7a1d47ff21B6321162AEA7C6CB457D5476Bca",
  "extraData": "0xd783010002844765746887676f312e342e32856c696e7578",
  "transactions": [
    {
      "hash": "0x2b4354495f570fe605d520ee8b7180992e5aabc83b67ca995a8717ab5da3abf3",
      "blockHash": "0x9d410a16b9b12e38b76af337cbc425a9633228f309ef4553798e7791650062c0",
      "blockNumber": 119430,
      "transactionIndex": 0,
      "confirmations": null,
      "from": "0x9cF18B3eb373C383a42d06136ba331D766ed9Fbb",
      "gasPrice": {
        "_hex": "0xba43b7400"
      },
      "gasLimit": {
        "_hex": "0x5208"
      },
      "to": "0x32Be343B94f860124dC4fEe278FDCBD38C102D88",
      "value": {
        "_hex": "0x2b93afeb380e3c00"
      },
      "nonce": 14,
      "data": "0x",
      "r": "0xf9f65dec3683b501b72f76ab6f61d95149636f73041a8f7c62f818faec4fa72d",
      "s": "0x0d3164ddf979702ac76e34f2cd5afe97f8c87cbbecb63ca6129e2582f1b41e04",
      "v": 28,
      "creates": null,
      "raw": "0xf86c0e850ba43b74008252089432be343b94f860124dc4fee278fdcbd38c102d88882b93afeb380e3c00801ca0f9f65dec3683b501b72f76ab6f61d95149636f73041a8f7c62f818faec4fa72da00d3164ddf979702ac76e34f2cd5afe97f8c87cbbecb63ca6129e2582f1b41e04",
      "networkId": 0,
      "chainId": 0
    },
    {
      "hash": "0x546d3ab187589c0bc594f9f58f706f2dfe722dc3c2f39636e52da705edb86d15",
      "blockHash": "0x9d410a16b9b12e38b76af337cbc425a9633228f309ef4553798e7791650062c0",
      "blockNumber": 119430,
      "transactionIndex": 1,
      "confirmations": null,
      "from": "0x96811Ad897894eC178872117C8BF2f03971A393B",
      "gasPrice": {
        "_hex": "0xba43b7400"
      },
      "gasLimit": {
        "_hex": "0x5208"
      },
      "to": "0x32Be343B94f860124dC4fEe278FDCBD38C102D88",
      "value": {
        "_hex": "0xa9b04d1bc6766000"
      },
      "nonce": 38,
      "data": "0x",
      "r": "0x5751b4b3a3e079bd2c1feb04a9d9da942c14b2f62c0f3da4c2b3e2710aac526a",
      "s": "0x050d55dceee29af3c764847a1bb9d3a0c11ef507ca9d66185249944be00d53df",
      "v": 27,
      "creates": null,
      "raw": "0xf86c26850ba43b74008252089432be343b94f860124dc4fee278fdcbd38c102d8888a9b04d1bc6766000801ba05751b4b3a3e079bd2c1feb04a9d9da942c14b2f62c0f3da4c2b3e2710aac526aa0050d55dceee29af3c764847a1bb9d3a0c11ef507ca9d66185249944be00d53df",
      "networkId": 0,
      "chainId": 0
    },
    {
      "hash": "0x6a1e610e8b0066158a6c9f2539cb909942ef6c3c5849a981304472226d4f654e",
      "blockHash": "0x9d410a16b9b12e38b76af337cbc425a9633228f309ef4553798e7791650062c0",
      "blockNumber": 119430,
      "transactionIndex": 2,
      "confirmations": null,
      "from": "0x3234d29E2390E0Ac637B3ad0ACA3dF88aC82dC5d",
      "gasPrice": {
        "_hex": "0xba43b7400"
      },
      "gasLimit": {
        "_hex": "0x5208"
      },
      "to": "0x32Be343B94f860124dC4fEe278FDCBD38C102D88",
      "value": {
        "_hex": "0x3886888c7e5cc400"
      },
      "nonce": 16,
      "data": "0x",
      "r": "0x3cec74f088030ad850ac817c9602cb1dafebbb3b5e6209a48bb07835c29fcb33",
      "s": "0x09ef2d1b7428e799771dd40a17d7e42d81c5ae875fcbe8702989a13676e8cbb1",
      "v": 27,
      "creates": null,
      "raw": "0xf86c10850ba43b74008252089432be343b94f860124dc4fee278fdcbd38c102d88883886888c7e5cc400801ba03cec74f088030ad850ac817c9602cb1dafebbb3b5e6209a48bb07835c29fcb33a009ef2d1b7428e799771dd40a17d7e42d81c5ae875fcbe8702989a13676e8cbb1",
      "networkId": 0,
      "chainId": 0
    }
  ]
}