{
  "hash": "0xcd3946af5571d13eb3f34445040555fef6f4bc2caa5bd3394e1d11337049ca69",
  "parentHash": "0x7299a85819bdbb04e09c7c9c4b70373778ff534b7eec8828542efcddf73727a5",
  "number": 80320,
  "timestamp": 1439483797,
  "nonce": "0x7f2b720ad26834c8",
  "difficulty": 2377053251485,
  "gasLimit": {
    "_hex": "0x2fefd8"
  },
  "gasUsed": {
    "_hex": "0x19a28"
  },
  "miner": "0x88D74a59454F6cF3B51ef6b9136AFb6b9D405A88",
  "extraData": "0x476574682f76312e302e312d37666266393930632f6c696e75782f676f312e34",
  "transactions": [
    {
      "hash": "0x0208200b47507e39b38254b4d6f49989e65ed28587a0a47d52dcfcbcb3c40389",
      "blockHash": "0xcd3946af5571d13eb3f34445040555fef6f4bc2caa5bd3394e1d11337049ca69",
      "blockNumber": 80320,
      "transactionIndex": 0,
      "confirmations": null,
      "from": "0x32Be343B94f860124dC4fEe278FDCBD38C102D88",
      "gasPrice": {
        "_hex": "0xdfbf7910b"
      },
      "gasLimit": {
        "_hex": "0x5208"
      },
      "to": "0x01aa273d9E71Ba27a14fB5c17F54508f02d4dc4C",
      "value": {
        "_hex": "0xa0c4b10cca914000"
      },
      "nonce": 526,
      "data": "0x",
      "r": "0xae45cea4b040f435b1a742caae3984c6030135b1e83be1ee55a10b50d6e736ee",
      "s": "0x29c29aceeadda07348bd7f28d3a9483d834b7780c73bd4c71c18db8beed3abff",
      "v": 28,
      "creates": null,
      "raw": "0xf86e82020e850dfbf7910b8252089401aa273d9e71ba27a14fb5c17f54508f02d4dc4c88a0c4b10cca914000801ca0ae45cea4b040f435b1a742caae3984c6030135b1e83be1ee55a10b50d6e736eea029c29aceeadda07348bd7f28d3a9483d834b7780c73bd4c71c18db8beed3abff",
      "networkId": 0,
      "chainId": 0
    },
    {
      "hash": "0x2b70a077b0ecdd0ecb85058ce5a518d62ad0cb3db08a6930cbde507a6722ed53",
      "blockHash": "0xcd3946af5571d13eb3f34445040555fef6f4bc2caa5bd3394e1d11337049ca69",
      "blockNumber": 80320,
      "transactionIndex": 1,
      "confirmations": null,
      "from": "0x32Be343B94f860124dC4fEe278FDCBD38C102D88",
      "gasPrice": {
        "_hex": "0xdfbf7910b"
      },
      "gasLimit": {
        "_hex": "0x5208"
      },
      "to": "0x2C3d5c472E35947eb8Bf098e5207b0e1f3D1Ef91",
      "value": {
        "_hex": "0x13b9bdc3fd1e5d000"
      },
      "nonce": 527,
      "data": "0x",
      "r": "0x9ccc207f9fdd97105afe7e57bb868488818e7543766d27dc56efefc89e168157",
      "s": "0x3c0c3fdb53153503daffe110f1e85430cf87676a6e7dbdea7d336cd682a28291",
      "v": 27,
      "creates": null,
      "raw": "0xf86f82020f850dfbf7910b825208942c3d5c472e35947eb8bf098e5207b0e1f3d1ef9189013b9bdc3fd1e5d000801ba09ccc207f9fdd97105afe7e57bb868488818e7543766d27dc56efefc89e168157a03c0c3fdb53153503daffe110f1e85430cf87676a6e7dbdea7d336cd682a28291",
      "networkId": 0,
      "chainId": 0
    },
    {
      "hash": "0x2fd29199a45b9969acddad2a8d3021c3267cec310a891a3ac32bfdc466a87cfb",
      "blockHash": "0xcd3946af5571d13eb3f34445040555fef6f4bc2caa5bd3394e1d11337049ca69",
      "blockNumber": 80320,
      "transactionIndex": 2,
      "confirmations": null,
      "from": "0x32Be343B94f860124dC4fEe278FDCBD38C102D88",
      "gasPrice": {
        "_hex": "0xdfbf7910b"
      },
      "gasLimit": {
        "_hex": "0x5208"
      },
      "to": "0xA56bb79Fc3B611f03E2a0BFCc86d45f4B9ca3285",
      "value": {
        "_hex": "0x136dcc951d8c0000"
      },
      "nonce": 528,
      "data": "0x",
      "r": "0xb13cd6c507bb235871612fb76eb1189e30da6bb9c51de789e92f1e3d9053b7d7",
      "s": "0x31626dab2c087bf78c313d84edc240b723b95a6f3dbac42437411d83ed6c717b",
      "v": 27,
      "creates": null,
      "raw": "0xf86e820210850dfbf7910b82520894a56bb79fc3b611f03e2a0bfcc86d45f4b9ca328588136dcc951d8c0000801ba0b13cd6c507bb235871612fb76eb1189e30da6bb9c51de789e92f1e3d9053b7d7a031626dab2c087bf78c313d84edc240b723b95a6f3dbac42437411d83ed6c717b",
      "networkId": 0,
      "chainId": 0
    },
    {
      "hash": "0xc86abe789bacfcead0e5b91dc6ebacd214ba24697fb405063109c9fb218d78b7",
      "blockHash": "0xcd3946af5571d13eb3f34445040555fef6f4bc2caa5bd3394e1d11337049ca69",
      "blockNumber": 80320,
      "transactionIndex": 3,
      "confirmations": null,
      "from": "0x32Be343B94f860124dC4fEe278FDCBD38C102D88",
      "gasPrice": {
        "_hex": "0xdfbf7910b"
      },
      "gasLimit": {
        "_hex": "0x5208"
      },
      "to": "0x5F28bcc5faFC8982536A9e4be559657998CdE1E3",
      "value": {
        "_hex": "0x8aa39c121a270000"
      },
      "nonce": 529,
      "data": "0x",
      "r": "0x6ba992e9df6d0b85a21be620537ed8b04c0d42e540249fc6076f33a39da579f5",
      "s": "0x5edceb1f8e0c25ae1da7f557ed5481c4cce431de50d182371344d7e624442487",
      "v": 27,
      "creates": null,
      "raw": "0xf86e820211850dfbf7910b825208945f28bcc5fafc8982536a9e4be559657998cde1e3888aa39c121a270000801ba06ba992e9df6d0b85a21be620537ed8b04c0d42e540249fc6076f33a39da579f5a05edceb1f8e0c25ae1da7f557ed5481c4cce431de50d182371344d7e624442487",
      "networkId": 0,
      "chainId": 0
    },
    {
      "hash": "0x439a0f7956842f995fab7f0bdb7488ab94542aa01b571be4cf555399c9f0d624",
      "blockHash": "0xcd3946af5571d13eb3f34445040555fef6f4bc2caa5bd3394e1d11337049ca69",
      "blockNumber": 80320,
      "transactionIndex": 4,
      "confirmations": null,
      "from": "0x8B454d830feF179e66206840F8F3D1d83bC32b17",
      "gasPrice": {
        "_hex": "0xd6f88b32d"
      },
      "gasLimit": {
        "_hex": "0x15f90"
      },
      "to": "0xEa63C59e990047BF874D6A47900521D711460B79",
      "value": {
        "_hex": "0xde0b6b3a7640000"
      },
      "nonce": 12,
      "data": "0x",
      "r": "0x9be11e1d506030cc902061617f3ef6cf0c68d9f8c8d0924f52b774e3abeb84bb",
      "s": "0x02139f87fe1ad57312409cde0e27cb44b0bdcfac8f115b99b2d222c8d9da0cdf",
      "v": 28,
      "creates": null,
      "raw": "0xf86d0c850d6f88b32d83015f9094ea63c59e990047bf874d6a47900521d711460b79880de0b6b3a7640000801ca09be11e1d506030cc902061617f3ef6cf0c68d9f8c8d0924f52b774e3abeb84bba002139f87fe1ad57312409cde0e27cb44b0bdcfac8f115b99b2d222c8d9da0cdf",
      "networkId": 0,
      "chainId": 0
    }
  ]
}