{
  "hash": "0x8eb427d3e70b63d3c2c1dcd77bbf3e6fb5280232c85db62d0fe6e0b5446c7262",
  "parentHash": "0x97a703fc440aec8fe18cf8c2aa5c9e61c1e491183e0dd4a23f95b0038bca2c25",
  "number": 84386,
  "timestamp": 1439548983,
  "nonce": "0xff2a3199c8b3e16f",
  "difficulty": 2553953412939,
  "gasLimit": {
    "_hex": "0x2fefd8"
  },
  "gasUsed": {
    "_hex": "0xa410"
  },
  "miner": "0xce17C7c928AEa6b16e8F342F53731e12c583e338",
  "extraData": "0x",
  "transactions": [
    {
      "hash": "0xfb53dfd75b86c596f4baaf2371ba685985e1eadfc77a71081bec0c7bd6180bf4",
      "blockHash": "0x8eb427d3e70b63d3c2c1dcd77bbf3e6fb5280232c85db62d0fe6e0b5446c7262",
      "blockNumber": 84386,
      "transactionIndex": 0,
      "confirmations": null,
      "from": "0x2910543Af39abA0Cd09dBb2D50200b3E800A63D2",
      "gasPrice": {
        "_hex": "0xcaf396ca6"
      },
      "gasLimit": {
        "_hex": "0x5208"
      },
      "to": "0x4A18324Ad90189eF1478D65385286140fC3063D1",
      "value": {
        "_hex": "0x20869a71971a7f8000"
      },
      "nonce": 553,
      "data": "0x",
      "r": "0xad78492610037f1c85a69effc521fcb2a9e2be93ed32ff3e31fd72fd578ea73d",
      "s": "0x015ffa565f064860c9387fcb092d838b54d48fb4d14460a1d6ee303a870e94d7",
      "v": 28,
      "creates": null,
      "raw": "0xf86f820229850caf396ca6825208944a18324ad90189ef1478d65385286140fc3063d18920869a71971a7f8000801ca0ad78492610037f1c85a69effc521fcb2a9e2be93ed32ff3e31fd72fd578ea73da0015ffa565f064860c9387fcb092d838b54d48fb4d14460a1d6ee303a870e94d7",
      "networkId": 0,
      "chainId": 0
    },
    {
      "hash": "0x42d911e5f6d7f30387d6a4ae3ca1d8de1636f43c38e9c680823c0d34feb19467",
      "blockHash": "0x8eb427d3e70b63d3c2c1dcd77bbf3e6fb5280232c85db62d0fe6e0b5446c7262",
      "blockNumber": 84386,
      "transactionIndex": 1,
      "confirmations": null,
      "from": "0x2910543Af39abA0Cd09dBb2D50200b3E800A63D2",
      "gasPrice": {
        "_hex": "0xcaf396ca6"
      },
      "gasLimit": {
        "_hex": "0x5208"
      },
      "to": "0x8F68fbE2DCFf038C24F650C9e05Ee478038171cd",
      "value": {
        "_hex": "0x15af0bb53c545f8000"
      },
      "nonce": 554,
      "data": "0x",
      "r": "0xe2de86915af713fd0f6500433d2fc552a754bb39fb16c8d82c3e3712e90304d8",
      "s": "0x13af04bd44bb00d3b658a63b2d71904e351724a6aafaf120c8d3ce914890670d",
      "v": 28,
      "creates": null,
      "raw": "0xf86f82022a850caf396ca6825208948f68fbe2dcff038c24f650c9e05ee478038171cd8915af0bb53c545f8000801ca0e2de86915af713fd0f6500433d2fc552a754bb39fb16c8d82c3e3712e90304d8a013af04bd44bb00d3b658a63b2d71904e351724a6aafaf120c8d3ce914890670d",
      "networkId": 0,
      "chainId": 0
    }
  ]
}