{
  "hash": "0x0eae91b3a59019f82585f4a7de664d63c4e1df69717f8f027e53104d3cec90b5",
  "parentHash": "0x05c2e7bfe878d59c1e24f4f4e676c637266016c7fd244a463a5385db55c2c06e",
  "number": 86098,
  "timestamp": 1439573347,
  "nonce": "0x82a8be819ab7cf50",
  "difficulty": 2812624759405,
  "gasLimit": {
    "_hex": "0x2fefd8"
  },
  "gasUsed": {
    "_hex": "0x5208"
  },
  "miner": "0xe6A7a1d47ff21B6321162AEA7C6CB457D5476Bca",
  "extraData": "0x476574682f76312e302e312d38326566323666362f6c696e75782f676f312e34",
  "transactions": [
    {
      "hash": "0xfb376a3b2041478758ec9c97c925f925ce0ab11a49d67b2d052bb6ab7f6ead6e",
      "blockHash": "0x0eae91b3a59019f82585f4a7de664d63c4e1df69717f8f027e53104d3cec90b5",
      "blockNumber": 86098,
      "transactionIndex": 0,
      "confirmations": null,
      "from": "0xAd9DbFc10FaF86e12b09d148F456a5568609b7Ab",
      "gasPrice": {
        "_hex": "0xd0389cf3c"
      },
      "gasLimit": {
        "_hex": "0x5208"
      },
      "to": "0x32Be343B94f860124dC4fEe278FDCBD38C102D88",
      "value": {
        "_hex": "0x57fb3b996c3ae00000"
      },
      "nonce": 2,
      "data": "0x",
      "r": "0xc9dbbaf90764c67429ad746480e5ca064681f71d19547aa01ef1edc9f9472773",
      "s": "0x0d45f2161cbfd7674be53d2330a4bd584c1aa82aa08f3b2f5f7a83930f8d5cc6",
      "v": 28,
      "creates": null,
      "raw": "0xf86d02850d0389cf3c8252089432be343b94f860124dc4fee278fdcbd38c102d888957fb3b996c3ae00000801ca0c9dbbaf90764c67429ad746480e5ca064681f71d19547aa01ef1edc9f9472773a00d45f2161cbfd7674be53d2330a4bd584c1aa82aa08f3b2f5f7a83930f8d5cc6",
      "networkId": 0,
      "chainId": 0
    }
  ]
}