{
  "hash": "0x2da33327a1d1e58d9c43c0ffc8f603e0471552ed818f2802fa4d87d19c8515b9",
  "parentHash": "0xf19f8e85d4a5e9060ee42fcfcf68b2d43d1b25095413321cd40d6ac2a95f0bab",
  "number": 110467,
  "timestamp": 1439974247,
  "nonce": "0x99928315337732ef",
  "difficulty": 4384126889720,
  "gasLimit": {
    "_hex": "0x2fefd8"
  },
  "gasUsed": {
    "_hex": "0x5208"
  },
  "miner": "0xe6A7a1d47ff21B6321162AEA7C6CB457D5476Bca",
  "extraData": "0x476574682f76312e302e312d38326566323666362f6c696e75782f676f312e34",
  "transactions": [
    {
      "hash": "0xfca5198f4ebcb457f3e3ca59bf529a9141c0bf1bf0c827438239168faf545779",
      "blockHash": "0x2da33327a1d1e58d9c43c0ffc8f603e0471552ed818f2802fa4d87d19c8515b9",
      "blockNumber": 110467,
      "transactionIndex": 0,
      "confirmations": null,
      "from": "0x13258A1Aa418C990ce59616C26338A44899d854c",
      "gasPrice": {
        "_hex": "0xcd2db0c51"
      },
      "gasLimit": {
        "_hex": "0x5208"
      },
      "to": "0x32Be343B94f860124dC4fEe278FDCBD38C102D88",
      "value": {
        "_hex": "0x103e9e31ae22a6000"
      },
      "nonce": 5,
      "data": "0x",
      "r": "0x7ec06986fec81f155a771ffd19f426c824ef23fa2a9e4449244062f3e9b07c63",
      "s": "0x26b4a93b12a5fea6d0acf5de8420032668db9d65e7683bd86dbdb21ae8d5f149",
      "v": 28,
      "creates": null,
      "raw": "0xf86d05850cd2db0c518252089432be343b94f860124dc4fee278fdcbd38c102d88890103e9e31ae22a6000801ca07ec06986fec81f155a771ffd19f426c824ef23fa2a9e4449244062f3e9b07c63a026b4a93b12a5fea6d0acf5de8420032668db9d65e7683bd86dbdb21ae8d5f149",
      "networkId": 0,
      "chainId": 0
    }
  ]
}