{
  "hash": "0xbeab2ca726091a0a01008ec7d3fda341ca41db9d40cfaa4736f63e93b1886ec6",
  "parentHash": "0x8dcc9f822485bdbd49b77a01779a0748cbee2ce302744bf535d5f10d6a1456b5",
  "number": 50199,
  "timestamp": 1438985310,
  "nonce": "0x09f542bd856fed73",
  "difficulty": 1515641796511,
  "gasLimit": {
    "_hex": "0x56107"
  },
  "gasUsed": {
    "_hex": "0x546c"
  },
  "miner": "0xe6A7a1d47ff21B6321162AEA7C6CB457D5476Bca",
  "extraData": "0x657468706f6f6c2e6f7267",
  "transactions": [
    {
      "hash": "0x5c0438a3f4dc821e1a6ac191c09912e8dc9d1381743a1269304b10456ece640b",
      "blockHash": "0xbeab2ca726091a0a01008ec7d3fda341ca41db9d40cfaa4736f63e93b1886ec6",
      "blockNumber": 50199,
      "transactionIndex": 0,
      "confirmations": null,
      "from": "0x7b893286427E72db219A21FC4dCD5FBf59283C31",
      "gasPrice": {
        "_hex": "0x110c8f7d8de"
      },
      "gasLimit": {
        "_hex": "0xc350"
      },
      "to": "0x2910543Af39abA0Cd09dBb2D50200b3E800A63D2",
      "value": {
        "_hex": "0x21e187d844254b60000"
      },
      "nonce": 0,
      "data": "0x454e553057344a3830",
      "r": "0xa1966c139e1e89a658de4843fa823375d8247135765ccb97c23f257c1e7d8447",
      "s": "0x2e9ffd51ca1fba7e7c49efe112f01c53eac525b6719d7fd38c87c15db99fb9a2",
      "v": 28,
      "creates": null,
      "raw": "0xf87880860110c8f7d8de82c350942910543af39aba0cd09dbb2d50200b3e800a63d28a021e187d844254b6000089454e553057344a38301ca0a1966c139e1e89a658de4843fa823375d8247135765ccb97c23f257c1e7d8447a02e9ffd51ca1fba7e7c49efe112f01c53eac525b6719d7fd38c87c15db99fb9a2",
      "networkId": 0,
      "chainId": 0
    }
  ]
}