{
  "hash": "0xc3cf6e0beacade1bc92cbab71c680ab8b4376f5c26c7f90b01b3627b01b59b38",
  "parentHash": "0x6f371f8b5170fb75a9a3aa43694eecd5d02505e9f4d2fa187a1072dccf13d72e",
  "number": 64533,
  "timestamp": 1439222422,
  "nonce": "0x7a27afb1b1015119",
  "difficulty": 1877517753804,
  "gasLimit": {
    "_hex": "0x2fefd8"
  },
  "gasUsed": {
    "_hex": "0x23b44"
  },
  "miner": "0x47ff6576639c2e94762eA5443978D7681C0E78DC",
  "extraData": "0x476574682f76312e302e312f6c696e75782f676f312e342e32",
  "transactions": [
    {
      "hash": "0x4d7b881baa6e2cc73dae319e2773d06fffb547fa3ebe9a26d2b21f2967d59477",
      "blockHash": "0xc3cf6e0beacade1bc92cbab71c680ab8b4376f5c26c7f90b01b3627b01b59b38",
      "blockNumber": 64533,
      "transactionIndex": 0,
      "confirmations": null,
      "from": "0xD1B2c3Be83ae9fF32e366E3A0B01Ed930700CE04",
      "gasPrice": {
        "_hex": "0xba43b7400"
      },
      "gasLimit": {
        "_hex": "0x15f90"
      },
      "to": "0x793AE8C1b1a160BFc07BFB0d04F85eab1A71F4f2",
      "value": {
        "_hex": "0x0"
      },
      "nonce": 0,
      "data": "0x3ba15036",
      "r": "0x3a64e191d7c1ca75c8cd0dc0bb84596819824ce7d1cde66e701c037e148794c3",
      "s": "0x3d05f057794214a2366c4c00e5470d2352523efefe3e7cf2cf431bca2e9df222",
      "v": 27,
      "creates": null,
      "raw": "0xf86980850ba43b740083015f9094793ae8c1b1a160bfc07bfb0d04f85eab1a71f4f280843ba150361ba03a64e191d7c1ca75c8cd0dc0bb84596819824ce7d1cde66e701c037e148794c3a03d05f057794214a2366c4c00e5470d2352523efefe3e7cf2cf431bca2e9df222",
      "networkId": 0,
      "chainId": 0
    },
    {
      "hash": "0x27282a550af9d862741f1abaa4c2ec9235ba232d4fdd4b2d3eaac851fa4c38bc",
      "blockHash": "0xc3cf6e0beacade1bc92cbab71c680ab8b4376f5c26c7f90b01b3627b01b59b38",
      "blockNumber": 64533,
      "transactionIndex": 1,
      "confirmations": null,
      "from": "0x255A59Ec7Cffe5fCF068fc198eA3A507CdFbF641",
      "gasPrice": {
        "_hex": "0xba43b7400"
      },
      "gasLimit": {
        "_hex": "0x15f90"
      },
      "to": "0x793AE8C1b1a160BFc07BFB0d04F85eab1A71F4f2",
      "value": {
        "_hex": "0x0"
      },
      "nonce": 0,
      "data": "0x3ba15036",
      "r": "0x2aafcc4170f719846fac0cd55b0213b93ec6068ac7be8819f53be65bf54f6c77",
      "s": "0x650a4b1519d81aeb3c41a2bfcca4faf5a2829b4181e55a704283e4b523641a23",
      "v": 28,
      "creates": null,
      "raw": "0xf86980850ba43b740083015f9094793ae8c1b1a160bfc07bfb0d04f85eab1a71f4f280843ba150361ca02aafcc4170f719846fac0cd55b0213b93ec6068ac7be8819f53be65bf54f6c77a0650a4b1519d81aeb3c41a2bfcca4faf5a2829b4181e55a704283e4b523641a23",
      "networkId": 0,
      "chainId": 0
    },
    {
      "hash": "0xe0e85d6c0999ef9a498599e477f405301bceecaf9ef0c864a4d18663602e88f4",
      "blockHash": "0xc3cf6e0beacade1bc92cbab71c680ab8b4376f5c26c7f90b01b3627b01b59b38",
      "blockNumber": 64533,
      "transactionIndex": 2,
      "confirmations": null,
      "from": "0x50fa732a1Ae48d282Aa68468f95Ada1DB6CdC052",
      "gasPrice": {
        "_hex": "0xba43b7400"
      },
      "gasLimit": {
        "_hex": "0x15f90"
      },
      "to": "0x793AE8C1b1a160BFc07BFB0d04F85eab1A71F4f2",
      "value": {
        "_hex": "0x0"
      },
      "nonce": 0,
      "data": "0x3ba15036",
      "r": "0xd3280869044153d5cf2a97ccb49b30e53856e42b368acd832f7ea7362ab248f4",
      "s": "0x616e7870e8650358634f2f0ee3378b22a7ec0d3a497dc2fbf055e7ca77986560",
      "v": 28,
      "creates": null,
      "raw": "0xf86980850ba43b740083015f9094793ae8c1b1a160bfc07bfb0d04f85eab1a71f4f280843ba150361ca0d3280869044153d5cf2a97ccb49b30e53856e42b368acd832f7ea7362ab248f4a0616e7870e8650358634f2f0ee3378b22a7ec0d3a497dc2fbf055e7ca77986560",
      "networkId": 0,
      "chainId": 0
    }
  ]
}