{
  "hash": "0x0f07ef512a905b359aec3df7574cafc81c21338214307d9a313eba1d9a943455",
  "parentHash": "0xd7f031b737e68173a3c88fa0af7377d96a7de4a3de5e958c4eb42dc427317ada",
  "number": 78287,
  "timestamp": 1439451472,
  "nonce": "0xcc63eb735922b0b0",
  "difficulty": 2280968272946,
  "gasLimit": {
    "_hex": "0x2fefd8"
  },
  "gasUsed": {
    "_hex": "0xf618"
  },
  "miner": "0xe6A7a1d47ff21B6321162AEA7C6CB457D5476Bca",
  "extraData": "0x476574682f76312e302e312d38326566323666362f6c696e75782f676f312e34",
  "transactions": [
    {
      "hash": "0x403fc9ede066dec2887f023c6288743efd1e3841db8a6175134b5d7275401697",
      "blockHash": "0x0f07ef512a905b359aec3df7574cafc81c21338214307d9a313eba1d9a943455",
      "blockNumber": 78287,
      "transactionIndex": 0,
      "confirmations": null,
      "from": "0xE57399f2Eea4ba6d2B4139b1190F5BE1E9880ABe",
      "gasPrice": {
        "_hex": "0xdc4fbd355"
      },
      "gasLimit": {
        "_hex": "0x5208"
      },
      "to": "0x32Be343B94f860124dC4fEe278FDCBD38C102D88",
      "value": {
        "_hex": "0x10b245a324cff30000"
      },
      "nonce": 1,
      "data": "0x",
      "r": "0x0a548688c879791cb18241c611179c77c787c53d60d3dc91d0478fbc5cfa6438",
      "s": "0x60a7dc6073557e2e71de3b306c2ca84d265c59b162f2a4c417265f3ab66214fe",
      "v": 27,
      "creates": null,
      "raw": "0xf86d01850dc4fbd3558252089432be343b94f860124dc4fee278fdcbd38c102d888910b245a324cff30000801ba00a548688c879791cb18241c611179c77c787c53d60d3dc91d0478fbc5cfa6438a060a7dc6073557e2e71de3b306c2ca84d265c59b162f2a4c417265f3ab66214fe",
      "networkId": 0,
      "chainId": 0
    },
    {
      "hash": "0xdc970acf9a427f4c7a32962cf550b38b25e99dea4ee8d0b666af0e0afd483a58",
      "blockHash": "0x0f07ef512a905b359aec3df7574cafc81c21338214307d9a313eba1d9a943455",
      "blockNumber": 78287,
      "transactionIndex": 1,
      "confirmations": null,
      "from": "0xBFdD9820a04283b289957956353b5F3C1F665EcF",
      "gasPrice": {
        "_hex": "0xdc4fbd355"
      },
      "gasLimit": {
        "_hex": "0x5208"
      },
      "to": "0x32Be343B94f860124dC4fEe278FDCBD38C102D88",
      "value": {
        "_hex": "0xd0264010d28b1000"
      },
      "nonce": 29,
      "data": "0x",
      "r": "0x977c6e91802239e3f141e87cf50b7099ebebf820f148a9ea9af6551693355c45",
      "s": "0x797778ee972c1b50e73659e4ce58ac5a327126fa510015762cd5dbe6e2554dd9",
      "v": 28,
      "creates": null,
      "raw": "0xf86c1d850dc4fbd3558252089432be343b94f860124dc4fee278fdcbd38c102d8888d0264010d28b1000801ca0977c6e91802239e3f141e87cf50b7099ebebf820f148a9ea9af6551693355c45a0797778ee972c1b50e73659e4ce58ac5a327126fa510015762cd5dbe6e2554dd9",
      "networkId": 0,
      "chainId": 0
    },
    {
      "hash": "0x0187058f2162f9caee37dbcae8c8865bb91c9f86f2aa6d7d612c94c9cc26b745",
      "blockHash": "0x0f07ef512a905b359aec3df7574cafc81c21338214307d9a313eba1d9a943455",
      "blockNumber": 78287,
      "transactionIndex": 2,
      "confirmations": null,
      "from": "0xabceA603089850F8f6bB612A9031554D90A247CF",
      "gasPrice": {
        "_hex": "0xdc4fbd355"
      },
      "gasLimit": {
        "_hex": "0x5208"
      },
      "to": "0x32Be343B94f860124dC4fEe278FDCBD38C102D88",
      "value": {
        "_hex": "0x455f27fae8779c00"
      },
      "nonce": 16,
      "data": "0x",
      "r": "0xf06f1dc281da8b74390d6e2dada065d16689eb00d5de8485d5ad6523542b612b",
      "s": "0x4f859a6b822148fde410a30aaeb773a218429380e2173b935a866839fce31ab0",
      "v": 28,
      "creates": null,
      "raw": "0xf86c10850dc4fbd3558252089432be343b94f860124dc4fee278fdcbd38c102d8888455f27fae8779c00801ca0f06f1dc281da8b74390d6e2dada065d16689eb00d5de8485d5ad6523542b612ba04f859a6b822148fde410a30aaeb773a218429380e2173b935a866839fce31ab0",
      "networkId": 0,
      "chainId": 0
    }
  ]
}