{
  "hash": "0x5842654dad6f37d8bfb229ec53ca4266389ea0d2c0815eaaa89df17d3931ed45",
  "parentHash": "0x944874f1b5ca7749961391258262d4cdf8345685b04a0e7a70d8022a575b8dc5",
  "number": 86144,
  "timestamp": 1439574091,
  "nonce": "0x32dae55e131d8fb2",
  "difficulty": 2809863987759,
  "gasLimit": {
    "_hex": "0x2fefd8"
  },
  "gasUsed": {
    "_hex": "0xa410"
  },
  "miner": "0xe6A7a1d47ff21B6321162AEA7C6CB457D5476Bca",
  "extraData": "0x476574682f76312e302e312d38326566323666362f6c696e75782f676f312e34",
  "transactions": [
    {
      "hash": "0x3eb020fd6b86dd18ae86af11b0d57cfe7e68cb64c22e9810bb9839326b427815",
      "blockHash": "0x5842654dad6f37d8bfb229ec53ca4266389ea0d2c0815eaaa89df17d3931ed45",
      "blockNumber": 86144,
      "transactionIndex": 0,
      "confirmations": null,
      "from": "0xa9f5E7bf6Cbf6fEc55B30850Eb492b47A376d050",
      "gasPrice": {
        "_hex": "0xdb2e774d9"
      },
      "gasLimit": {
        "_hex": "0x5208"
      },
      "to": "0x32Be343B94f860124dC4fEe278FDCBD38C102D88",
      "value": {
        "_hex": "0xc327c3a653c3f0000"
      },
      "nonce": 18,
      "data": "0x",
      "r": "0x353f5634aae74d7def2d5bd72c590c47ea4aa776620992fe873daa0ff6b5cbe6",
      "s": "0x65be3245629941500f43900ff60752098b4fd93c023e901fd8c36cedcbfd9da8",
      "v": 28,
      "creates": null,
      "raw": "0xf86d12850db2e774d98252089432be343b94f860124dc4fee278fdcbd38c102d88890c327c3a653c3f0000801ca0353f5634aae74d7def2d5bd72c590c47ea4aa776620992fe873daa0ff6b5cbe6a065be3245629941500f43900ff60752098b4fd93c023e901fd8c36cedcbfd9da8",
      "networkId": 0,
      "chainId": 0
    },
    {
      "hash": "0xa17fb2fdaa86682b77b2949c926184b1d1f66c43d82073d777fad9664987ef96",
      "blockHash": "0x5842654dad6f37d8bfb229ec53ca4266389ea0d2c0815eaaa89df17d3931ed45",
      "blockNumber": 86144,
      "transactionIndex": 1,
      "confirmations": null,
      "from": "0x01Ad0ACFf478127D9d702B1A13599D706cB759b1",
      "gasPrice": {
        "_hex": "0xdb2e774d9"
      },
      "gasLimit": {
        "_hex": "0x5208"
      },
      "to": "0x32Be343B94f860124dC4fEe278FDCBD38C102D88",
      "value": {
        "_hex": "0x455f2dc60a0df000"
      },
      "nonce": 27,
      "data": "0x",
      "r": "0x32ce3c5576d6774c8095950b40b0c08b282e04a9998e5238eb791b0a3b9912e6",
      "s": "0x2bd5a568f4c51db23d2a32dc32477a1ba835c6797a31ec5521c7c4b418a871f4",
      "v": 27,
      "creates": null,
      "raw": "0xf86c1b850db2e774d98252089432be343b94f860124dc4fee278fdcbd38c102d8888455f2dc60a0df000801ba032ce3c5576d6774c8095950b40b0c08b282e04a9998e5238eb791b0a3b9912e6a02bd5a568f4c51db23d2a32dc32477a1ba835c6797a31ec5521c7c4b418a871f4",
      "networkId": 0,
      "chainId": 0
    }
  ]
}