{
  "hash": "0x8f280c11b3d568010861ff9ec830ac8c3b632bb6e0a3e27fb8d56210da649319",
  "parentHash": "0xc7d8a6aa31cf24e254c3d31cfdf8a236b79cd10d57846b59174f62dd02bb2708",
  "number": 121914,
  "timestamp": 1440184835,
  "nonce": "0x5b1b76bad64ed95e",
  "difficulty": 4479785315902,
  "gasLimit": {
    "_hex": "0x2fefd8"
  },
  "gasUsed": {
    "_hex": "0x33450"
  },
  "miner": "0xC6A5D22D1DDd24B32a308bA4A49ec3cA38a2D0A6",
  "extraData": "0x",
  "transactions": [
    {
      "hash": "0xd192ac5ef5590c8affe91c74acca16b3cf9953599564ddde89c701821880521d",
      "blockHash": "0x8f280c11b3d568010861ff9ec830ac8c3b632bb6e0a3e27fb8d56210da649319",
      "blockNumber": 121914,
      "transactionIndex": 0,
      "confirmations": null,
      "from": "0x7B1A43f1eb4970A4b5D36F604FeF8083Fa18189f",
      "gasPrice": {
        "_hex": "0xccd209cec"
      },
      "gasLimit": {
        "_hex": "0x5208"
      },
      "to": "0x32Be343B94f860124dC4fEe278FDCBD38C102D88",
      "value": {
        "_hex": "0x20ee32b12019ec00"
      },
      "nonce": 4,
      "data": "0x",
      "r": "0xaf54dd06266c0c502b501833b2d99fc1ed86abe04f67b342c99fcedc7082822b",
      "s": "0x4b88c8bf88f55fe138f04166cad651e8b8a6f48208dd2441600cacac08f7ba3b",
      "v": 27,
      "creates": null,
      "raw": "0xf86c04850ccd209cec8252089432be343b94f860124dc4fee278fdcbd38c102d888820ee32b12019ec00801ba0af54dd06266c0c502b501833b2d99fc1ed86abe04f67b342c99fcedc7082822ba04b88c8bf88f55fe138f04166cad651e8b8a6f48208dd2441600cacac08f7ba3b",
      "networkId": 0,
      "chainId": 0
    },
    {
      "hash": "0x46d2a977d03e2551da96c42b19ad8db6a7ef4cdb8b100529b47705070bdf1c96",
      "blockHash": "0x8f280c11b3d568010861ff9ec830ac8c3b632bb6e0a3e27fb8d56210da649319",
      "blockNumber": 121914,
      "transactionIndex": 1,
      "confirmations": null,
      "from": "0x6Db7eb9Cc3980b13aA65Bf2AbC1aacAd356322E3",
      "gasPrice": {
        "_hex": "0xccd209cec"
      },
      "gasLimit": {
        "_hex": "0x5208"
      },
      "to": "0x32Be343B94f860124dC4fEe278FDCBD38C102D88",
      "value": {
        "_hex": "0x3256ad81206e5000"
      },
      "nonce": 2,
      "data": "0x",
      "r": "0x10c66b958c7f1bccde0463cccdd4d39c308f547e33f1ad5c214e7418b56a753f",
      "s": "0x40110477a9352246b867563d3a0da4d6079c52a2e263038ca26f60881061cc3b",
      "v": 28,
      "creates": null,
      "raw": "0xf86c02850ccd209cec8252089432be343b94f860124dc4fee278fdcbd38c102d88883256ad81206e5000801ca010c66b958c7f1bccde0463cccdd4d39c308f547e33f1ad5c214e7418b56a753fa040110477a9352246b867563d3a0da4d6079c52a2e263038ca26f60881061cc3b",
      "networkId": 0,
      "chainId": 0
    },
    {
      "hash": "0xa95cbc69631236fea2c0f327fc0f3e80b072ac25980a546739f0dc26455eea41",
      "blockHash": "0x8f280c11b3d568010861ff9ec830ac8c3b632bb6e0a3e27fb8d56210da649319",
      "blockNumber": 121914,
      "transactionIndex": 2,
      "confirmations": null,
      "from": "0x8AeAaA4f505396d24B783Ba68694b10b1a3f0BCE",
      "gasPrice": {
        "_hex": "0xccd209cec"
      },
      "gasLimit": {
        "_hex": "0x5208"
      },
      "to": "0x32Be343B94f860124dC4fEe278FDCBD38C102D88",
      "value": {
        "_hex": "0x110ba61ee46a66000"
      },
      "nonce": 5,
      "data": "0x",
      "r": "0x31a5d86dcfa9b010c497601d1576237edd552524d783dc0b7fa1560f044ad899",
      "s": "0x3eb5db96070c7fe521988884ff59d9edc6938417d6f6a04939f5085ee5a241dd",
      "v": 28,
      "creates": null,
      "raw": "0xf86d05850ccd209cec8252089432be343b94f860124dc4fee278fdcbd38c102d88890110ba61ee46a66000801ca031a5d86dcfa9b010c497601d1576237edd552524d783dc0b7fa1560f044ad899a03eb5db96070c7fe521988884ff59d9edc6938417d6f6a04939f5085ee5a241dd",
      "networkId": 0,
      "chainId": 0
    },
    {
      "hash": "0xfacf7722c44ccd1e42d33e19ae68dbe6a65cc0ef07b84463f33efb406989007f",
      "blockHash": "0x8f280c11b3d568010861ff9ec830ac8c3b632bb6e0a3e27fb8d56210da649319",
      "blockNumber": 121914,
      "transactionIndex": 3,
      "confirmations": null,
      "from": "0x2bcDf5ef3BA83578A36146bFF9A3FAEF1CAf038B",
      "gasPrice": {
        "_hex": "0xccd209cec"
      },
      "gasLimit": {
        "_hex": "0x5208"
      },
      "to": "0x32Be343B94f860124dC4fEe278FDCBD38C102D88",
      "value": {
        "_hex": "0xb4bc1da5b5784800"
      },
      "nonce": 2,
      "data": "0x",
      "r": "0x362db19133c6ed903b70acc4c2055350e895abba47607ce01e8ae4fa6ce0a6f2",
      "s": "0x5f031281fb53e951a9b59cca09fda644890e57d78a79bca1574742068736ed04",
      "v": 27,
      "creates": null,
      "raw": "0xf86c02850ccd209cec8252089432be343b94f860124dc4fee278fdcbd38c102d8888b4bc1da5b5784800801ba0362db19133c6ed903b70acc4c2055350e895abba47607ce01e8ae4fa6ce0a6f2a05f031281fb53e951a9b59cca09fda644890e57d78a79bca1574742068736ed04",
      "networkId": 0,
      "chainId": 0
    },
    {
      "hash": "0x25333d87e21333fc2d5aa7fc92b604979450ce4291e2e33dfddca5e0a9b985cc",
      "blockHash": "0x8f280c11b3d568010861ff9ec830ac8c3b632bb6e0a3e27fb8d56210da649319",
      "blockNumber": 121914,
      "transactionIndex": 4,
      "confirmations": null,
      "from": "0x58cAfc9A3273821ec5691840ABfc256952Df94B8",
      "gasPrice": {
        "_hex": "0xccd209cec"
      },
      "gasLimit": {
        "_hex": "0x5208"
      },
      "to": "0x32Be343B94f860124dC4fEe278FDCBD38C102D88",
      "value": {
        "_hex": "0xb7b800afde094800"
      },
      "nonce": 5,
      "data": "0x",
      "r": "0xbc760c38ac998820ba0d61aa855086c4dac035bc754bd38a89ab0526189254b4",
      "s": "0x3f6c33ac7121f9f2191fb27a615a1fed3fce5b1e6e2ee63314aef09d74a2d1a9",
      "v": 28,
      "creates": null,
      "raw": "0xf86c05850ccd209cec8252089432be343b94f860124dc4fee278fdcbd38c102d8888b7b800afde094800801ca0bc760c38ac998820ba0d61aa855086c4dac035bc754bd38a89ab0526189254b4a03f6c33ac7121f9f2191fb27a615a1fed3fce5b1e6e2ee63314aef09d74a2d1a9",
      "networkId": 0,
      "chainId": 0
    },
    {
      "hash": "0x1a442541053f0eb6a40f3cc1f8230d1a105f3ed4301dc638faa0a8ada2c6480b",
      "blockHash": "0x8f280c11b3d568010861ff9ec830ac8c3b632bb6e0a3e27fb8d56210da649319",
      "blockNumber": 121914,
      "transactionIndex": 5,
      "confirmations": null,
      "from": "0xcCA04dde313A912347DBE3b8f78E73Ab14B51CbE",
      "gasPrice": {
        "_hex": "0xccd209cec"
      },
      "gasLimit": {
        "_hex": "0x5208"
      },
      "to": "0x32Be343B94f860124dC4fEe278FDCBD38C102D88",
      "value": {
        "_hex": "0xb4e0107cd83bc000"
      },
      "nonce": 6,
      "data": "0x",
      "r": "0xaa8d9c2fc2342564b911f74db80bce8e7db3b969530d88bdaa24c24751a120b6",
      "s": "0x6108102e6e95f566710e2f7ebeed2452ee27c861f25f6b5bc783bab8988219c7",
      "v": 28,
      "creates": null,
      "raw": "0xf86c06850ccd209cec8252089432be343b94f860124dc4fee278fdcbd38c102d8888b4e0107cd83bc000801ca0aa8d9c2fc2342564b911f74db80bce8e7db3b969530d88bdaa24c24751a120b6a06108102e6e95f566710e2f7ebeed2452ee27c861f25f6b5bc783bab8988219c7",
      "networkId": 0,
      "chainId": 0
    },
    {
      "hash": "0x4d9bc3cd801236254415d42a6c568d1edfc99af247995093f8bb5bf2a1bfe99e",
      "blockHash": "0x8f280c11b3d568010861ff9ec830ac8c3b632bb6e0a3e27fb8d56210da649319",
      "blockNumber": 121914,
      "transactionIndex": 6,
      "confirmations": null,
      "from": "0x9ac4E9D48C027208905CF2A81f304664A5dAeF87",
      "gasPrice": {
        "_hex": "0xccd209cec"
      },
      "gasLimit": {
        "_hex": "0x5208"
      },
      "to": "0x32Be343B94f860124dC4fEe278FDCBD38C102D88",
      "value": {
        "_hex": "0x4cfc17026118d800"
      },
      "nonce": 6,
      "data": "0x",
      "r": "0x0c126beed1e1b195d1731a78eb61ede0d59b797259a530d22117c12497a1d682",
      "s": "0x6cb448c7843e5ff6aaf6d42f7f293a759a3838ce694e2c7be1a87831db8a2523",
      "v": 28,
      "creates": null,
      "raw": "0xf86c06850ccd209cec8252089432be343b94f860124dc4fee278fdcbd38c102d88884cfc17026118d800801ca00c126beed1e1b195d1731a78eb61ede0d59b797259a530d22117c12497a1d682a06cb448c7843e5ff6aaf6d42f7f293a759a3838ce694e2c7be1a87831db8a2523",
      "networkId": 0,
      "chainId": 0
    },
    {
      "hash": "0x7f82ebc829dd71fe38dba503dead787b80999ca2da9d722da1562ed7827754e9",
      "blockHash": "0x8f280c11b3d568010861ff9ec830ac8c3b632bb6e0a3e27fb8d56210da649319",
      "blockNumber": 121914,
      "transactionIndex": 7,
      "confirmations": null,
      "from": "0xB921678790502F482511f89F834135dfE6BeceF8",
      "gasPrice": {
        "_hex": "0xccd209cec"
      },
      "gasLimit": {
        "_hex": "0x5208"
      },
      "to": "0x32Be343B94f860124dC4fEe278FDCBD38C102D88",
      "value": {
        "_hex": "0x174e173ee7ca9c00"
      },
      "nonce": 0,
      "data": "0x",
      "r": "0x30c3023d5fd8dda5d199218b6fce6d990cc0592628543d7a8f546f96d19d6609",
      "s": "0x64a6b040a678645932e7fc911d097f6afcaa2f5baa8f7a6125c5ad477440d66f",
      "v": 27,
      "creates": null,
      "raw": "0xf86c80850ccd209cec8252089432be343b94f860124dc4fee278fdcbd38c102d8888174e173ee7ca9c00801ba030c3023d5fd8dda5d199218b6fce6d990cc0592628543d7a8f546f96d19d6609a064a6b040a678645932e7fc911d097f6afcaa2f5baa8f7a6125c5ad477440d66f",
      "networkId": 0,
      "chainId": 0
    },
    {
      "hash": "0x38de20699aba7d73075d3faaf5979db3cc72ca3e69a8e23c4f996a6800470891",
      "blockHash": "0x8f280c11b3d568010861ff9ec830ac8c3b632bb6e0a3e27fb8d56210da649319",
      "blockNumber": 121914,
      "transactionIndex": 8,
      "confirmations": null,
      "from": "0x007f7f58D3eb5b7510A301eCC749FC1fCDDBE14D",
      "gasPrice": {
        "_hex": "0xba43b7400"
      },
      "gasLimit": {
        "_hex": "0x15f90"
      },
      "to": "0xb1abce2918E21ddb93AA452731a12672A3d9F75a",
      "value": {
        "_hex": "0x4563918244f40000"
      },
      "nonce": 382,
      "data": "0x",
      "r": "0x506d845a8e82e26d8dbc46c4236c3bb18ce6af14c5f18337bd71ec88633d003d",
      "s": "0x792b9672d8cd0c5447b30dfba4a839e07d3cc796de6978194d0a42e0fc123dca",
      "v": 28,
      "creates": null,
      "raw": "0xf86f82017e850ba43b740083015f9094b1abce2918e21ddb93aa452731a12672a3d9f75a884563918244f40000801ca0506d845a8e82e26d8dbc46c4236c3bb18ce6af14c5f18337bd71ec88633d003da0792b9672d8cd0c5447b30dfba4a839e07d3cc796de6978194d0a42e0fc123dca",
      "networkId": 0,
      "chainId": 0
    },
    {
      "hash": "0x70aedb1fc5facad63c00d6a787ff71590aa28b83a45790641d9ca05caa5adaed",
      "blockHash": "0x8f280c11b3d568010861ff9ec830ac8c3b632bb6e0a3e27fb8d56210da649319",
      "blockNumber": 121914,
      "transactionIndex": 9,
      "confirmations": null,
      "from": "0xbAeF66124E137Eb5eE0DE1BbAB5a30002508a1bf",
      "gasPrice": {
        "_hex": "0xba43b7400"
      },
      "gasLimit": {
        "_hex": "0x15f90"
      },
      "to": "0xAF17A4ab5d6B10055Fc1eB1BFaCcbDe69B83aF76",
      "value": {
        "_hex": "0x21d3bd55e803c0000"
      },
      "nonce": 10,
      "data": "0x",
      "r": "0x525a3bd580e69fbf1dc9e41be48a526ed5e809388d9ba6c55d5c74cae0a1e356",
      "s": "0x78aa3f15cc9e563f8616e232ee7167e7c3f966f911d1de0e2cef5b99ba37e24d",
      "v": 28,
      "creates": null,
      "raw": "0xf86e0a850ba43b740083015f9094af17a4ab5d6b10055fc1eb1bfaccbde69b83af7689021d3bd55e803c0000801ca0525a3bd580e69fbf1dc9e41be48a526ed5e809388d9ba6c55d5c74cae0a1e356a078aa3f15cc9e563f8616e232ee7167e7c3f966f911d1de0e2cef5b99ba37e24d",
      "networkId": 0,
      "chainId": 0
    }
  ]
}