{
  "hash": "0x746a1ee7f1c4ecdc329f6e61d56c2d4ca83637798ca12bf7f77e9f48958ea284",
  "parentHash": "0x05005fdf9b2aaa3162ef58b2e1f766fe3233867d936140a3d48444d93e804933",
  "number": 115336,
  "timestamp": 1440055479,
  "nonce": "0xd5d9a23e39c13bb1",
  "difficulty": 4553901257222,
  "gasLimit": {
    "_hex": "0x2fefd8"
  },
  "gasUsed": {
    "_hex": "0x5208"
  },
  "miner": "0x55D1554b08a5311C5c0A0B6464162192f9D2f884",
  "extraData": "0x",
  "transactions": [
    {
      "hash": "0x34f5be7c26d443c67378e7f42e1b3a0b652ad48b6eccdee93020536c4c9adeb8",
      "blockHash": "0x746a1ee7f1c4ecdc329f6e61d56c2d4ca83637798ca12bf7f77e9f48958ea284",
      "blockNumber": 115336,
      "transactionIndex": 0,
      "confirmations": null,
      "from": "0x04a2a3ee9C9ea82e1F918ecE209f8A7E6d7521E7",
      "gasPrice": {
        "_hex": "0xd72793566"
      },
      "gasLimit": {
        "_hex": "0x5208"
      },
      "to": "0x32Be343B94f860124dC4fEe278FDCBD38C102D88",
      "value": {
        "_hex": "0x94391181b0c51000"
      },
      "nonce": 18,
      "data": "0x",
      "r": "0xbdc6a01e309f27a940262c094078b210504b57ea502921323f30d3e500ddebde",
      "s": "0x671e317cd26884b91969f87ec5b9edbddc247a35d3a072dfcc05c7e3659070fb",
      "v": 27,
      "creates": null,
      "raw": "0xf86c12850d727935668252089432be343b94f860124dc4fee278fdcbd38c102d888894391181b0c51000801ba0bdc6a01e309f27a940262c094078b210504b57ea502921323f30d3e500ddebdea0671e317cd26884b91969f87ec5b9edbddc247a35d3a072dfcc05c7e3659070fb",
      "networkId": 0,
      "chainId": 0
    }
  ]
}