{
  "hash": "0x82768387e84f657bdf19be069573a1d000a444af26501ef87cc28f53a3835710",
  "parentHash": "0x25297fdecbd3632e99fb8c305c40d97a7e1b724d78b8bd22f58e79dca2c3ae1d",
  "number": 83305,
  "timestamp": 1439533368,
  "nonce": "0xd26106eacbd51107",
  "difficulty": 2419527223390,
  "gasLimit": {
    "_hex": "0x2fefd8"
  },
  "gasUsed": {
    "_hex": "0x15f90"
  },
  "miner": "0xe6A7a1d47ff21B6321162AEA7C6CB457D5476Bca",
  "extraData": "0x476574682f76312e302e312d38326566323666362f6c696e75782f676f312e34",
  "transactions": [
    {
      "hash": "0x4a889dbc94c94579f51f3248438842c33a35d4e3a737bb0a00e9d17aafee3fa9",
      "blockHash": "0x82768387e84f657bdf19be069573a1d000a444af26501ef87cc28f53a3835710",
      "blockNumber": 83305,
      "transactionIndex": 0,
      "confirmations": null,
      "from": "0xD471D70e80FfBE99bA58A42b10Fe81c49379C8ec",
      "gasPrice": {
        "_hex": "0xd6c7e7a54"
      },
      "gasLimit": {
        "_hex": "0x15f90"
      },
      "to": "0xA327075af2a223A1C83a36aDa1126afE7430f955",
      "value": {
        "_hex": "0x8ac7230489e80000"
      },
      "nonce": 0,
      "data": "0x",
      "r": "0x162aa52e73c4418ebc9998b97b362f93e60eda6af5c0ebe33d6aad8f36458a2c",
      "s": "0x48e1050928237c18afe910586a7d89f4bbc2ed9fe44ca05f667580c4c4067236",
      "v": 28,
      "creates": null,
      "raw": "0xf86d80850d6c7e7a5483015f9094a327075af2a223a1c83a36ada1126afe7430f955888ac7230489e80000801ca0162aa52e73c4418ebc9998b97b362f93e60eda6af5c0ebe33d6aad8f36458a2ca048e1050928237c18afe910586a7d89f4bbc2ed9fe44ca05f667580c4c4067236",
      "networkId": 0,
      "chainId": 0
    }
  ]
}