{
  "hash": "0x207f4169a627a1b4fbd4ff12c8bd03e2206efde1233b4e2224ba560203ab748f",
  "parentHash": "0x454cdc84fc84b041520951deb16177de4b0a4cbaf8364814a477887064dcaa18",
  "number": 59364,
  "timestamp": 1439137027,
  "nonce": "0xbde6273e8d7ae61f",
  "difficulty": 1703052475207,
  "gasLimit": {
    "_hex": "0x2fefd5"
  },
  "gasUsed": {
    "_hex": "0xf618"
  },
  "miner": "0xf927a40C8B7F6E07c5af7FA2155B4864a4112B13",
  "extraData": "0x476574682f76312e302e312f6c696e75782f676f312e342e32",
  "transactions": [
    {
      "hash": "0xb3e5a877470ba238777210b5558aed0715247e89ecbb99f7ed74be84f3b10f99",
      "blockHash": "0x207f4169a627a1b4fbd4ff12c8bd03e2206efde1233b4e2224ba560203ab748f",
      "blockNumber": 59364,
      "transactionIndex": 0,
      "confirmations": null,
      "from": "0x32Be343B94f860124dC4fEe278FDCBD38C102D88",
      "gasPrice": {
        "_hex": "0xde7b63f79"
      },
      "gasLimit": {
        "_hex": "0x5208"
      },
      "to": "0x8E1372aB42e7495276e7b0b5e785e8ed59111C0a",
      "value": {
        "_hex": "0x51508afdb65e300000"
      },
      "nonce": 103,
      "data": "0x",
      "r": "0x305ba089ca7d9ec9c764871461bef7503b3e6d19be16f16260a265729b759465",
      "s": "0x0f18764a36333896f29f9818d0c4c2b75f278adb217bdc3e1de0cc7720e166bc",
      "v": 28,
      "creates": null,
      "raw": "0xf86d67850de7b63f79825208948e1372ab42e7495276e7b0b5e785e8ed59111c0a8951508afdb65e300000801ca0305ba089ca7d9ec9c764871461bef7503b3e6d19be16f16260a265729b759465a00f18764a36333896f29f9818d0c4c2b75f278adb217bdc3e1de0cc7720e166bc",
      "networkId": 0,
      "chainId": 0
    },
    {
      "hash": "0xff2d307d2a60fa6f3b098b6cb8e5c219fcd6b751f5ffd2944c3d2df6acc706e3",
      "blockHash": "0x207f4169a627a1b4fbd4ff12c8bd03e2206efde1233b4e2224ba560203ab748f",
      "blockNumber": 59364,
      "transactionIndex": 1,
      "confirmations": null,
      "from": "0x32Be343B94f860124dC4fEe278FDCBD38C102D88",
      "gasPrice": {
        "_hex": "0xde7b63f79"
      },
      "gasLimit": {
        "_hex": "0x5208"
      },
      "to": "0xE2beA3e7d349ab64EBD9873418e78912e13CD35f",
      "value": {
        "_hex": "0xdbd2fc137a30000"
      },
      "nonce": 104,
      "data": "0x",
      "r": "0xe68d8e18fbb828abd8151116fd047f10658b88c7c67a46dd7870fb39e48004f8",
      "s": "0x3986856f3b1d97fe876cd8476eea8f1635595339e6988f4a77d99be88ef0eda1",
      "v": 28,
      "creates": null,
      "raw": "0xf86c68850de7b63f7982520894e2bea3e7d349ab64ebd9873418e78912e13cd35f880dbd2fc137a30000801ca0e68d8e18fbb828abd8151116fd047f10658b88c7c67a46dd7870fb39e48004f8a03986856f3b1d97fe876cd8476eea8f1635595339e6988f4a77d99be88ef0eda1",
      "networkId": 0,
      "chainId": 0
    },
    {
      "hash": "0x494c3e850842afecd36a892fbae5906de9902e07b6a2a99b7b265daff5c510d3",
      "blockHash": "0x207f4169a627a1b4fbd4ff12c8bd03e2206efde1233b4e2224ba560203ab748f",
      "blockNumber": 59364,
      "transactionIndex": 2,
      "confirmations": null,
      "from": "0x43c2AeB7b46cbB31eE7f9A86BDAfB5C87cD486a3",
      "gasPrice": {
        "_hex": "0xba43b7400"
      },
      "gasLimit": {
        "_hex": "0x5267"
      },
      "to": "0xf79785E5a846aCea08F94379fCCe79B1054bDB99",
      "value": {
        "_hex": "0xd02ab486cedc0000"
      },
      "nonce": 1,
      "data": "0x",
      "r": "0x4623ba47e2940a942df1fb183f21f23584e6a628c2595116e7f6b29f4cc4b8f2",
      "s": "0x477695c8b2ab2423e86a157b7a49c362e0b0b43786d0ca63e47a1096c2a5b861",
      "v": 27,
      "creates": null,
      "raw": "0xf86c01850ba43b740082526794f79785e5a846acea08f94379fcce79b1054bdb9988d02ab486cedc0000801ba04623ba47e2940a942df1fb183f21f23584e6a628c2595116e7f6b29f4cc4b8f2a0477695c8b2ab2423e86a157b7a49c362e0b0b43786d0ca63e47a1096c2a5b861",
      "networkId": 0,
      "chainId": 0
    }
  ]
}