{
  "hash": "0x89c7126bc684d105cf300dff897fc2d2b5072af3a60c1031e322b33bf975f2d8",
  "parentHash": "0x220caff4c42c60338eb6779c2e157ce114b30ab03cd979a6492aabe88647701b",
  "number": 46832,
  "timestamp": 1438929959,
  "nonce": "0x5d30de84eeeef7e7",
  "difficulty": 1457451803360,
  "gasLimit": {
    "_hex": "0x7d0e"
  },
  "gasUsed": {
    "_hex": "0x5208"
  },
  "miner": "0x59389A554d044d4b3BED659834A248C59957f168",
  "extraData": "0x476574682f76312e302e312d38326566323666362f6c696e75782f676f312e34",
  "transactions": [
    {
      "hash": "0x03c48c524d2caa2d2af768a9a71e6e46240ed5e89901bb32f177fbd593597901",
      "blockHash": "0x89c7126bc684d105cf300dff897fc2d2b5072af3a60c1031e322b33bf975f2d8",
      "blockNumber": 46832,
      "transactionIndex": 0,
      "confirmations": null,
      "from": "0x1B7047b4338ACf65bE94C1A3e8c5c9338ad7d67C",
      "gasPrice": {
        "_hex": "0xdf8475800"
      },
      "gasLimit": {
        "_hex": "0x5208"
      },
      "to": "0x2Fe86C0450Bf1bE6001d119aA87f6f33117bD699",
      "value": {
        "_hex": "0x3637507a30abeb0000"
      },
      "nonce": 1,
      "data": "0x",
      "r": "0x2871ca8efb5ff4ffd337a595ea412ce31516d0b4b423045739e9b9fc00720d01",
      "s": "0x6b95196bae5f9a0c80b11b9266421f80486e53ff44712674ad175f94af1dc045",
      "v": 27,
      "creates": null,
      "raw": "0xf86d01850df8475800825208942fe86c0450bf1be6001d119aa87f6f33117bd699893637507a30abeb0000801ba02871ca8efb5ff4ffd337a595ea412ce31516d0b4b423045739e9b9fc00720d01a06b95196bae5f9a0c80b11b9266421f80486e53ff44712674ad175f94af1dc045",
      "networkId": 0,
      "chainId": 0
    }
  ]
}