{
  "hash": "0xfbb93f88202fa4c08c5c67788b844e5fbe920fcbd5f131c8ec9637d55adaa6ec",
  "parentHash": "0x07b07818088006629b1378f98563dbc81412d02e5c1572297336fa0f025c6553",
  "number": 68819,
  "timestamp": 1439294245,
  "nonce": "0x87070328d9fe08ad",
  "difficulty": 2015220659336,
  "gasLimit": {
    "_hex": "0x2fefd8"
  },
  "gasUsed": {
    "_hex": "0x5208"
  },
  "miner": "0x31995C46B15C84523cDEE26f49A681b8237e43F5",
  "extraData": "0x476574682f76312e302e312f77696e646f77732f676f312e342e32",
  "transactions": [
    {
      "hash": "0xd391706b949fd1d9a9b590072012ef35c5bcd162b85f62dc49c1aa68f9bb9ddd",
      "blockHash": "0xfbb93f88202fa4c08c5c67788b844e5fbe920fcbd5f131c8ec9637d55adaa6ec",
      "blockNumber": 68819,
      "transactionIndex": 0,
      "confirmations": null,
      "from": "0xc597A5d92F5dC1137D847db733cfe02c6d209f13",
      "gasPrice": {
        "_hex": "0xd1e6d8d47"
      },
      "gasLimit": {
        "_hex": "0x15f90"
      },
      "to": "0x79C55210a2CD9Bb2c790703dfA3a043De92AF4d2",
      "value": {
        "_hex": "0x8e1bc9bf040000"
      },
      "nonce": 1,
      "data": "0x",
      "r": "0x2fe0812dd9838b1259486671d310bfb80d1b4803c96a8cdb5204ccc34b65637f",
      "s": "0x4b6addb78a713ad6d4a6c050ee9b0700cab9e668a5b752b47ed1ad6028f244f5",
      "v": 27,
      "creates": null,
      "raw": "0xf86c01850d1e6d8d4783015f909479c55210a2cd9bb2c790703dfa3a043de92af4d2878e1bc9bf040000801ba02fe0812dd9838b1259486671d310bfb80d1b4803c96a8cdb5204ccc34b65637fa04b6addb78a713ad6d4a6c050ee9b0700cab9e668a5b752b47ed1ad6028f244f5",
      "networkId": 0,
      "chainId": 0
    }
  ]
}