{
  "hash": "0xfbc77a029f495abdd1acd0ed181a65fee1e0db34738fba01ca945a76d345ebb5",
  "parentHash": "0x76009384000f43d815ed3ecd13343a376ae3adea783c070c182a07d478f8bfc8",
  "number": 57137,
  "timestamp": 1439098050,
  "nonce": "0xae298fa2a723dd04",
  "difficulty": 1731176051721,
  "gasLimit": {
    "_hex": "0x2fefd2"
  },
  "gasUsed": {
    "_hex": "0xf618"
  },
  "miner": "0x9D49F602b0fdb924Bd63DDE2Bd0907E4A07c63a7",
  "extraData": "0x476574682f76312e302e312f6c696e75782f676f312e342e32",
  "transactions": [
    {
      "hash": "0xd05b3d0bd30d2bb11584fb6a168257088398c67c4a610aa66f5a489bba35bc5d",
      "blockHash": "0xfbc77a029f495abdd1acd0ed181a65fee1e0db34738fba01ca945a76d345ebb5",
      "blockNumber": 57137,
      "transactionIndex": 0,
      "confirmations": null,
      "from": "0x03c4C03f163D51105bBC0E1a63077cB04210aa83",
      "gasPrice": {
        "_hex": "0xd7d40ace3"
      },
      "gasLimit": {
        "_hex": "0x5208"
      },
      "to": "0x3D0768da09CE77d25e2d998E6a7b6eD4b9116c2D",
      "value": {
        "_hex": "0xb1a2bc2ec50000"
      },
      "nonce": 0,
      "data": "0x",
      "r": "0xee7c5b3d190f2135591361dbc55dd2f4324c5022f5a2bc55741b402e6688377f",
      "s": "0x5da11fdbc877ffc2491c0f1f1ab61ee69c7f726c7c4b6c63103e490a19ebedd4",
      "v": 27,
      "creates": null,
      "raw": "0xf86b80850d7d40ace3825208943d0768da09ce77d25e2d998e6a7b6ed4b9116c2d87b1a2bc2ec50000801ba0ee7c5b3d190f2135591361dbc55dd2f4324c5022f5a2bc55741b402e6688377fa05da11fdbc877ffc2491c0f1f1ab61ee69c7f726c7c4b6c63103e490a19ebedd4",
      "networkId": 0,
      "chainId": 0
    },
    {
      "hash": "0x443e6e58e4d3aadeb65c619508b9409940c8606d7756a6ea55882718671b1bf6",
      "blockHash": "0xfbc77a029f495abdd1acd0ed181a65fee1e0db34738fba01ca945a76d345ebb5",
      "blockNumber": 57137,
      "transactionIndex": 1,
      "confirmations": null,
      "from": "0xad7210d76107F888745616FFF7979623b84F928c",
      "gasPrice": {
        "_hex": "0xd7d40ace3"
      },
      "gasLimit": {
        "_hex": "0x61a8"
      },
      "to": "0xF109ca710C0Df51c1a86dBA1B0BA0Ed038114463",
      "value": {
        "_hex": "0x1c4cf7a7787dcf6b8"
      },
      "nonce": 3,
      "data": "0x",
      "r": "0x2b20f184fda51ae8e7790ff8ae35b90a8a147c3848937626fc48befe18a0984a",
      "s": "0x26e780d24b5a6cd85412b5e24e2e38b5d7389afbcdfec6b7791421bf5710bdc3",
      "v": 27,
      "creates": null,
      "raw": "0xf86d03850d7d40ace38261a894f109ca710c0df51c1a86dba1b0ba0ed0381144638901c4cf7a7787dcf6b8801ba02b20f184fda51ae8e7790ff8ae35b90a8a147c3848937626fc48befe18a0984aa026e780d24b5a6cd85412b5e24e2e38b5d7389afbcdfec6b7791421bf5710bdc3",
      "networkId": 0,
      "chainId": 0
    },
    {
      "hash": "0x97463c15ca8b4073466f39a85707a98b07bc72beb003a61d9c1c004d83239460",
      "blockHash": "0xfbc77a029f495abdd1acd0ed181a65fee1e0db34738fba01ca945a76d345ebb5",
      "blockNumber": 57137,
      "transactionIndex": 2,
      "confirmations": null,
      "from": "0x3a35269a1cF41344F2288e9D11bA854991112015",
      "gasPrice": {
        "_hex": "0xd1f217cbf"
      },
      "gasLimit": {
        "_hex": "0x15f90"
      },
      "to": "0x86d3856ad0105B9d4199936c1fd203664BA325dC",
      "value": {
        "_hex": "0x4c53ecdc18a60000"
      },
      "nonce": 2,
      "data": "0x",
      "r": "0x2130373ca03cf72bd8e55f5053d49e690580fe6aecc01c93409071340c18cd24",
      "s": "0x11c05e19b4478754c5224225d03965eea23d58b547b5c4c82af282485ad2f9b5",
      "v": 28,
      "creates": null,
      "raw": "0xf86d02850d1f217cbf83015f909486d3856ad0105b9d4199936c1fd203664ba325dc884c53ecdc18a60000801ca02130373ca03cf72bd8e55f5053d49e690580fe6aecc01c93409071340c18cd24a011c05e19b4478754c5224225d03965eea23d58b547b5c4c82af282485ad2f9b5",
      "networkId": 0,
      "chainId": 0
    }
  ]
}