{
  "hash": "0xa0cc7e9380d98ec6bde16f1dccaf5b06232d75adaf5e5648faf96c15d1c27f1a",
  "parentHash": "0xf45400a3fddfe000cfd115a9e50be942da63474a2498f17eede2e3723fa71302",
  "number": 100675,
  "timestamp": 1439810281,
  "nonce": "0x9c8796c04c263a8a",
  "difficulty": 3843353450995,
  "gasLimit": {
    "_hex": "0x2fefd8"
  },
  "gasUsed": {
    "_hex": "0x5208"
  },
  "miner": "0xe6A7a1d47ff21B6321162AEA7C6CB457D5476Bca",
  "extraData": "0x476574682f76312e302e312d38326566323666362f6c696e75782f676f312e34",
  "transactions": [
    {
      "hash": "0x9202e10b771d85dfab2084e9ba8bf4700e117035b6fa07ea1552faa86508500e",
      "blockHash": "0xa0cc7e9380d98ec6bde16f1dccaf5b06232d75adaf5e5648faf96c15d1c27f1a",
      "blockNumber": 100675,
      "transactionIndex": 0,
      "confirmations": null,
      "from": "0xE87470b43FA5904a32866396B2f798D898c13978",
      "gasPrice": {
        "_hex": "0xda7b790d2"
      },
      "gasLimit": {
        "_hex": "0x15f90"
      },
      "to": "0x972ad000397A3c903299F1353d6d4b85eE4E4e2A",
      "value": {
        "_hex": "0x8ac7230489e80000"
      },
      "nonce": 11,
      "data": "0x",
      "r": "0x835717072a8e298da9d3775910dd7519686376a5592b21a53038af20b9a4cb47",
      "s": "0x45bc655bf067f1a4647ede7d5a9a49c196dc3a50a6d69c60bd4d34d6d32a774b",
      "v": 28,
      "creates": null,
      "raw": "0xf86d0b850da7b790d283015f9094972ad000397a3c903299f1353d6d4b85ee4e4e2a888ac7230489e80000801ca0835717072a8e298da9d3775910dd7519686376a5592b21a53038af20b9a4cb47a045bc655bf067f1a4647ede7d5a9a49c196dc3a50a6d69c60bd4d34d6d32a774b",
      "networkId": 0,
      "chainId": 0
    }
  ]
}