{
  "hash": "0x9e8191aed141412f8af8ab2df077ea0644c1729c6940b01a6bc2295a538c9735",
  "parentHash": "0x12b3763c3e69b5e04c3ddfa1fa167bb87be275dfadbc21ee2a028710eba03459",
  "number": 46409,
  "timestamp": 1438922654,
  "nonce": "0xfddd665f1d9ae3b3",
  "difficulty": 1469674250771,
  "gasLimit": {
    "_hex": "0x5fab"
  },
  "gasUsed": {
    "_hex": "0x5208"
  },
  "miner": "0xbb7B8287f3F0a933474a79eAe42CBCa977791171",
  "extraData": "0x476574682f4c5649562f76312e302e312f6c696e75782f676f312e342e32",
  "transactions": [
    {
      "hash": "0x9950ffdb159eff6b85b1ab016a4ddd425e7e5d2232d624f2c4c2949dde8485f1",
      "blockHash": "0x9e8191aed141412f8af8ab2df077ea0644c1729c6940b01a6bc2295a538c9735",
      "blockNumber": 46409,
      "transactionIndex": 0,
      "confirmations": null,
      "from": "0x6bAF48E1C966D16559cE2ddDb616FFa72004851e",
      "gasPrice": {
        "_hex": "0x746a528800"
      },
      "gasLimit": {
        "_hex": "0x5208"
      },
      "to": "0xbF8d8B4eC992203984f7379b001E87E6943Dd5E3",
      "value": {
        "_hex": "0xb1a2bc2ec50000"
      },
      "nonce": 1,
      "data": "0x",
      "r": "0x30eec2e2677ebc2013ae4fa1444e23b273813fb441b655739cbcdab30e0b7759",
      "s": "0x207be5c0d8e15535fb2fbae3c80b19cf9c1fff1b562a123153465c76ef99df38",
      "v": 27,
      "creates": null,
      "raw": "0xf86b0185746a52880082520894bf8d8b4ec992203984f7379b001e87e6943dd5e387b1a2bc2ec50000801ba030eec2e2677ebc2013ae4fa1444e23b273813fb441b655739cbcdab30e0b7759a0207be5c0d8e15535fb2fbae3c80b19cf9c1fff1b562a123153465c76ef99df38",
      "networkId": 0,
      "chainId": 0
    }
  ]
}