{
  "hash": "0x9039ac7cd27781c582e4466ea9b9cc4a49dd0a5b4a53008602f6ec834d678c45",
  "parentHash": "0x7edef192325eb70d8183ed4b56b0aebaa93f8c822a381ee37994c7549f36c826",
  "number": 100714,
  "timestamp": 1439811103,
  "nonce": "0x696c33b2d9fa920a",
  "difficulty": 3837709817546,
  "gasLimit": {
    "_hex": "0x2fefd8"
  },
  "gasUsed": {
    "_hex": "0x5208"
  },
  "miner": "0xf927a40C8B7F6E07c5af7FA2155B4864a4112B13",
  "extraData": "0x",
  "transactions": [
    {
      "hash": "0x5800659202cbd3f0572eeb19fb9ce2260ec4eb09cf4ad498a545b37a82e13ece",
      "blockHash": "0x9039ac7cd27781c582e4466ea9b9cc4a49dd0a5b4a53008602f6ec834d678c45",
      "blockNumber": 100714,
      "transactionIndex": 0,
      "confirmations": null,
      "from": "0xCCe96724c29e042F35bCe1c2405feB0e8E30082b",
      "gasPrice": {
        "_hex": "0xd976cb568"
      },
      "gasLimit": {
        "_hex": "0x5208"
      },
      "to": "0x32Be343B94f860124dC4fEe278FDCBD38C102D88",
      "value": {
        "_hex": "0x1790794ab29f44000"
      },
      "nonce": 5,
      "data": "0x",
      "r": "0xcddb55c8e0516bafa382f0c9afe0f340c2af8203fc8263d4530e56f7c703e415",
      "s": "0x433708b02128eb06308315b37a5bd86a8a7f98fe858437904a9476892819227c",
      "v": 27,
      "creates": null,
      "raw": "0xf86d05850d976cb5688252089432be343b94f860124dc4fee278fdcbd38c102d888901790794ab29f44000801ba0cddb55c8e0516bafa382f0c9afe0f340c2af8203fc8263d4530e56f7c703e415a0433708b02128eb06308315b37a5bd86a8a7f98fe858437904a9476892819227c",
      "networkId": 0,
      "chainId": 0
    }
  ]
}