{
  "hash": "0xfbe652d093a8953326cf8be627c6c4bb8012ca10c8938ffb8274b9886454fd07",
  "parentHash": "0xf84ffc113033665d704646f89fae6582ef383f839ae6322eacfff5c28e9c2eda",
  "number": 108110,
  "timestamp": 1439934242,
  "nonce": "0x2b9975dc3e17047d",
  "difficulty": 4374665513966,
  "gasLimit": {
    "_hex": "0x2fefd8"
  },
  "gasUsed": {
    "_hex": "0x546c"
  },
  "miner": "0x9746c7e1ef2bd21FF3997fa467593a89cb852BD0",
  "extraData": "0x476574682f76312e302e312f77696e646f77732f676f312e342e32",
  "transactions": [
    {
      "hash": "0x02a27e1c30ef2df503ec82c00597cb77f36c98dfc23250b72412cf2a4a24e667",
      "blockHash": "0xfbe652d093a8953326cf8be627c6c4bb8012ca10c8938ffb8274b9886454fd07",
      "blockNumber": 108110,
      "transactionIndex": 0,
      "confirmations": null,
      "from": "0x9EEF442d291A447d74c5d253c49Ef324eAc1d8f0",
      "gasPrice": {
        "_hex": "0x110c8f7d8de"
      },
      "gasLimit": {
        "_hex": "0xc350"
      },
      "to": "0x2910543Af39abA0Cd09dBb2D50200b3E800A63D2",
      "value": {
        "_hex": "0x5f7aab8c56b0000"
      },
      "nonce": 9,
      "data": "0x454e48424254444747",
      "r": "0x28e47686968385acda9cb77facb07b22736c96ac6c27c6af2f59c94f14a4b6c7",
      "s": "0x25b10017506e378cdbf81882dfd0d4777c02d4ff1f47d71c523957219af13fff",
      "v": 27,
      "creates": null,
      "raw": "0xf87609860110c8f7d8de82c350942910543af39aba0cd09dbb2d50200b3e800a63d28805f7aab8c56b000089454e484242544447471ba028e47686968385acda9cb77facb07b22736c96ac6c27c6af2f59c94f14a4b6c7a025b10017506e378cdbf81882dfd0d4777c02d4ff1f47d71c523957219af13fff",
      "networkId": 0,
      "chainId": 0
    }
  ]
}