{
  "hash": "0x33cc6d0dc7773b308d493242728334b8f088906dbd9c484cd38d088e7359ef61",
  "parentHash": "0xa90bd7feac883e52545ce853e2b6bfabca96b8280215cba338db196166c26ed7",
  "number": 87188,
  "timestamp": 1439588466,
  "nonce": "0x721c5c73c05de3b1",
  "difficulty": 3067620736356,
  "gasLimit": {
    "_hex": "0x2fefd8"
  },
  "gasUsed": {
    "_hex": "0x5208"
  },
  "miner": "0x790b8a3cE86E707ED0eD32bF89B3269692a23CC1",
  "extraData": "0xd783010001844765746887676f312e342e32856c696e7578",
  "transactions": [
    {
      "hash": "0x659c600cf587728d73240019e08ba0cd07fad1b3de3c860e865bc7c1a7050ac6",
      "blockHash": "0x33cc6d0dc7773b308d493242728334b8f088906dbd9c484cd38d088e7359ef61",
      "blockNumber": 87188,
      "transactionIndex": 0,
      "confirmations": null,
      "from": "0x63BBedc46A1113Ba7938CF7C18CCb5Aed20eC733",
      "gasPrice": {
        "_hex": "0xd8364fc25"
      },
      "gasLimit": {
        "_hex": "0x15f90"
      },
      "to": "0x0A319A7e0C887F104359e1eEe6717BD8f232d3Da",
      "value": {
        "_hex": "0x4563918244f40000"
      },
      "nonce": 9,
      "data": "0x",
      "r": "0xc48d427770ac3c5e0d4e20d34c87fe11d9e5f8c71b0f9ff5c7d551c2c1e44450",
      "s": "0x5718aa1dcfe73543608e55da127e07c475de537db073b321595fd6ce68397596",
      "v": 28,
      "creates": null,
      "raw": "0xf86d09850d8364fc2583015f90940a319a7e0c887f104359e1eee6717bd8f232d3da884563918244f40000801ca0c48d427770ac3c5e0d4e20d34c87fe11d9e5f8c71b0f9ff5c7d551c2c1e44450a05718aa1dcfe73543608e55da127e07c475de537db073b321595fd6ce68397596",
      "networkId": 0,
      "chainId": 0
    }
  ]
}