{
  "hash": "0x15801985674ab75e3c67e9bfea46ab24b85db0d43d92f72c3c4548f3e8bd9dc6",
  "parentHash": "0xad92dc0dd9dbfc6a1536c52fc686a944e892c149513593d34588652fa3c81ed3",
  "number": 116603,
  "timestamp": 1440091580,
  "nonce": "0xe458c35dbc94b5aa",
  "difficulty": 4467327147988,
  "gasLimit": {
    "_hex": "0x2fefd8"
  },
  "gasUsed": {
    "_hex": "0x5208"
  },
  "miner": "0xe6A7a1d47ff21B6321162AEA7C6CB457D5476Bca",
  "extraData": "0xd783010002844765746887676f312e342e32856c696e7578",
  "transactions": [
    {
      "hash": "0xbe35b141ed6790c0a2ba317f9edd2e06db7884515578f6dff8beb73135675e42",
      "blockHash": "0x15801985674ab75e3c67e9bfea46ab24b85db0d43d92f72c3c4548f3e8bd9dc6",
      "blockNumber": 116603,
      "transactionIndex": 0,
      "confirmations": null,
      "from": "0xD009d1Ef8d0Eae1349DE87995F79ccb767C319e7",
      "gasPrice": {
        "_hex": "0xd4abb13a2"
      },
      "gasLimit": {
        "_hex": "0x30d40"
      },
      "to": "0x120A270bbC009644e35F0bB6ab13f95b8199c4ad",
      "value": {
        "_hex": "0x11565b5b9aa25dd80"
      },
      "nonce": 0,
      "data": "0x",
      "r": "0xf87a10d08e6ebaa6a5894b5194088987d70d7b97ed651491ec5d6538e0983b35",
      "s": "0x75d6ecbef5b981f2bf3165d5e9c595f2c080136de9e9ceed9e99bb6562a9498b",
      "v": 28,
      "creates": null,
      "raw": "0xf86e80850d4abb13a283030d4094120a270bbc009644e35f0bb6ab13f95b8199c4ad89011565b5b9aa25dd80801ca0f87a10d08e6ebaa6a5894b5194088987d70d7b97ed651491ec5d6538e0983b35a075d6ecbef5b981f2bf3165d5e9c595f2c080136de9e9ceed9e99bb6562a9498b",
      "networkId": 0,
      "chainId": 0
    }
  ]
}