{
  "hash": "0xf424f921b013ac6a38b3eb80b48130d81e137d20ff887a68da8cefb3ed73273c",
  "parentHash": "0x9fc48ba1e578da68a8ce8f613318c6b6faec1a183c0f55afdcb6e633bd6dd40f",
  "number": 94859,
  "timestamp": 1439715075,
  "nonce": "0x0dc94be37c2a93c8",
  "difficulty": 3529305447588,
  "gasLimit": {
    "_hex": "0x2fefd8"
  },
  "gasUsed": {
    "_hex": "0x520c"
  },
  "miner": "0xe6A7a1d47ff21B6321162AEA7C6CB457D5476Bca",
  "extraData": "0x476574682f76312e302e312d38326566323666362f6c696e75782f676f312e34",
  "transactions": [
    {
      "hash": "0x31702fa7aa9c206834eb0571341f11f633089351f0bf2249d6621c7acc548768",
      "blockHash": "0xf424f921b013ac6a38b3eb80b48130d81e137d20ff887a68da8cefb3ed73273c",
      "blockNumber": 94859,
      "transactionIndex": 0,
      "confirmations": null,
      "from": "0x8375eA550366a24550ec93283600485F4Ba8CFE5",
      "gasPrice": {
        "_hex": "0xe13da11e6"
      },
      "gasLimit": {
        "_hex": "0x7530"
      },
      "to": "0xb9836ec1f42Bd48331bceaedb74a6Bcdc22832bD",
      "value": {
        "_hex": "0x71afd498d0000"
      },
      "nonce": 20,
      "data": "0x00",
      "r": "0x79614ab90cd9d1bcf1812e33f77c39187da5a34909df20dbd6d383aa1e8b0306",
      "s": "0x33d345d73263e211dd1bc0241508c0c731f8776027cced18773e0b1bb456ff4d",
      "v": 27,
      "creates": null,
      "raw": "0xf86b14850e13da11e682753094b9836ec1f42bd48331bceaedb74a6bcdc22832bd87071afd498d0000001ba079614ab90cd9d1bcf1812e33f77c39187da5a34909df20dbd6d383aa1e8b0306a033d345d73263e211dd1bc0241508c0c731f8776027cced18773e0b1bb456ff4d",
      "networkId": 0,
      "chainId": 0
    }
  ]
}