{
  "hash": "0xa35e12b54f2b55d7e61a6511ac82b10ca1222f595ff4380627608c7415c3e0e0",
  "parentHash": "0xd316f9598dc9db13b1bcd1f785e93ae83a89669a4d465a92884aee784a7463f9",
  "number": 96411,
  "timestamp": 1439739975,
  "nonce": "0x1a373521bb546401",
  "difficulty": 3662058641446,
  "gasLimit": {
    "_hex": "0x2fefd8"
  },
  "gasUsed": {
    "_hex": "0x546c"
  },
  "miner": "0xbb7B8287f3F0a933474a79eAe42CBCa977791171",
  "extraData": "0x476574682f4c5649562f76312e302e312f6c696e75782f676f312e342e32",
  "transactions": [
    {
      "hash": "0x6ce5f6325f2d85caa79b0a43ae835f324b3cc034d36a820e260a7f21a9d6ee4b",
      "blockHash": "0xa35e12b54f2b55d7e61a6511ac82b10ca1222f595ff4380627608c7415c3e0e0",
      "blockNumber": 96411,
      "transactionIndex": 0,
      "confirmations": null,
      "from": "0x51e32F14F4ca5e287cDaC057A7795ea9e0439953",
      "gasPrice": {
        "_hex": "0x110c8f7d8de"
      },
      "gasLimit": {
        "_hex": "0xc350"
      },
      "to": "0x2910543Af39abA0Cd09dBb2D50200b3E800A63D2",
      "value": {
        "_hex": "0x1a901db3de65680000"
      },
      "nonce": 1,
      "data": "0x454e503050594d3330",
      "r": "0x0e3fcb725dac764c796aaa2d283e31379e4da17b1846dd54d360d34852e5b4d9",
      "s": "0xcdcbd51061946a9c72f5b197fd61c7fd8826ab171366cdc90f831355fdb03e83",
      "v": 27,
      "creates": null,
      "raw": "0xf87701860110c8f7d8de82c350942910543af39aba0cd09dbb2d50200b3e800a63d2891a901db3de6568000089454e503050594d33301ba00e3fcb725dac764c796aaa2d283e31379e4da17b1846dd54d360d34852e5b4d9a0cdcbd51061946a9c72f5b197fd61c7fd8826ab171366cdc90f831355fdb03e83",
      "networkId": 0,
      "chainId": 0
    }
  ]
}