{
  "hash": "0xabde20fac5d46d715479d2292beaee86c119011e2f9d196e27eec600b932b060",
  "parentHash": "0x5f16036048168bbfc79b1bd6675012590bcf7ab780ab3fe0adf764ebc8fba3cf",
  "number": 112440,
  "timestamp": 1440007536,
  "nonce": "0xd810e896fb13a304",
  "difficulty": 4411006743210,
  "gasLimit": {
    "_hex": "0x2fefd8"
  },
  "gasUsed": {
    "_hex": "0x5208"
  },
  "miner": "0x88D74a59454F6cF3B51ef6b9136AFb6b9D405A88",
  "extraData": "0x",
  "transactions": [
    {
      "hash": "0xbc82e91a1fb1173f3331ce0caa49baa9bd10ec88989bfc76b22e1c3ac8147862",
      "blockHash": "0xabde20fac5d46d715479d2292beaee86c119011e2f9d196e27eec600b932b060",
      "blockNumber": 112440,
      "transactionIndex": 0,
      "confirmations": null,
      "from": "0x7fa165177F28D171bA7C17f765c1904344Ec64CB",
      "gasPrice": {
        "_hex": "0xd4a8a0199"
      },
      "gasLimit": {
        "_hex": "0x5208"
      },
      "to": "0x32Be343B94f860124dC4fEe278FDCBD38C102D88",
      "value": {
        "_hex": "0x455ee501426d0c00"
      },
      "nonce": 26,
      "data": "0x",
      "r": "0xb809e81646521a59c886bb91112653afb7c3d7c9db80bd2104388ef982c9e2f9",
      "s": "0x327f660d2376dd2d290c56c1c211972dfe1c7599b778c997b237093e8d6323f2",
      "v": 28,
      "creates": null,
      "raw": "0xf86c1a850d4a8a01998252089432be343b94f860124dc4fee278fdcbd38c102d8888455ee501426d0c00801ca0b809e81646521a59c886bb91112653afb7c3d7c9db80bd2104388ef982c9e2f9a0327f660d2376dd2d290c56c1c211972dfe1c7599b778c997b237093e8d6323f2",
      "networkId": 0,
      "chainId": 0
    }
  ]
}