{
  "hash": "0xfda279b5e3724bb50c3563422abf0d46f115bc99cb1f81356f8f096fa1787223",
  "parentHash": "0x8fa74ba85a9281a0453390ae3abe35333ea8fc136d3621cc9088f0d1fa5a0543",
  "number": 54199,
  "timestamp": 1439050413,
  "nonce": "0xabf2de44380a88a6",
  "difficulty": 1600073625968,
  "gasLimit": {
    "_hex": "0x2fefd8"
  },
  "gasUsed": {
    "_hex": "0xa410"
  },
  "miner": "0x9746c7e1ef2bd21FF3997fa467593a89cb852BD0",
  "extraData": "0x476574682f76312e302e312f77696e646f77732f676f312e342e32",
  "transactions": [
    {
      "hash": "0x381923114b2379b6040633eaf7bdfe82dda1a21a931a84782185cd0962a9a93f",
      "blockHash": "0xfda279b5e3724bb50c3563422abf0d46f115bc99cb1f81356f8f096fa1787223",
      "blockNumber": 54199,
      "transactionIndex": 0,
      "confirmations": null,
      "from": "0x9bc6B0dEB59eF75AeDe905EBa5a779514F43D409",
      "gasPrice": {
        "_hex": "0xd5737393f"
      },
      "gasLimit": {
        "_hex": "0x5208"
      },
      "to": "0x32Be343B94f860124dC4fEe278FDCBD38C102D88",
      "value": {
        "_hex": "0x359d1d83a76d2e0000"
      },
      "nonce": 1,
      "data": "0x",
      "r": "0xaf1055aedd798a1b0d662d4e18b6bf9cd83818ebd63aadbadff9e405b0e0c5ec",
      "s": "0x4871ffc6a34d019c191e88c3f6f383caae87b90099f92898e239896051e5d5d6",
      "v": 28,
      "creates": null,
      "raw": "0xf86d01850d5737393f8252089432be343b94f860124dc4fee278fdcbd38c102d8889359d1d83a76d2e0000801ca0af1055aedd798a1b0d662d4e18b6bf9cd83818ebd63aadbadff9e405b0e0c5eca04871ffc6a34d019c191e88c3f6f383caae87b90099f92898e239896051e5d5d6",
      "networkId": 0,
      "chainId": 0
    },
    {
      "hash": "0x20715777d4317ba5b7c44e0060ecd550415f0fd024782d4581b0894949c2ac9b",
      "blockHash": "0xfda279b5e3724bb50c3563422abf0d46f115bc99cb1f81356f8f096fa1787223",
      "blockNumber": 54199,
      "transactionIndex": 1,
      "confirmations": null,
      "from": "0x3f113041D56Dda809a245Fe338832c2D373e7c80",
      "gasPrice": {
        "_hex": "0xd1620e4ab"
      },
      "gasLimit": {
        "_hex": "0x15f90"
      },
      "to": "0xd5d9a0033e6B0A3ba7634d0e1a9055ad5f452C3D",
      "value": {
        "_hex": "0x1a055690d9db80000"
      },
      "nonce": 3,
      "data": "0x",
      "r": "0x3403b0e6d0bcc7fbb58bf13337a0b5d7043958c53b8c11d255e060c0c0e4d55a",
      "s": "0x1ce5bd9ca73ce68d4bcf8ab1cc2145c38e5c9bb71604d324846cd3d67b59b9b9",
      "v": 27,
      "creates": null,
      "raw": "0xf86e03850d1620e4ab83015f9094d5d9a0033e6b0a3ba7634d0e1a9055ad5f452c3d8901a055690d9db80000801ba03403b0e6d0bcc7fbb58bf13337a0b5d7043958c53b8c11d255e060c0c0e4d55aa01ce5bd9ca73ce68d4bcf8ab1cc2145c38e5c9bb71604d324846cd3d67b59b9b9",
      "networkId": 0,
      "chainId": 0
    }
  ]
}