{
  "hash": "0x541a1a51bec934d31f83f59433837eb51cf99ac63c2bc9a344ad5097eff1e255",
  "parentHash": "0xb615934028488a562d4d65cb219c6ff424a6f2866c266bc3041a637b7febce58",
  "number": 99445,
  "timestamp": 1439790296,
  "nonce": "0x2a8efd2df239c90c",
  "difficulty": 3780628794902,
  "gasLimit": {
    "_hex": "0x2fefd8"
  },
  "gasUsed": {
    "_hex": "0x5208"
  },
  "miner": "0xC603Ab5ef41fC61AA8b76bEddb09e3Cfcbb174BD",
  "extraData": "0x476574682f76312e302e312f77696e646f77732f676f312e342e32",
  "transactions": [
    {
      "hash": "0xf4fb4bc04cb0ae910ec09a23dcaee9bc30f70e5b1d7256b907e18b004e256638",
      "blockHash": "0x541a1a51bec934d31f83f59433837eb51cf99ac63c2bc9a344ad5097eff1e255",
      "blockNumber": 99445,
      "transactionIndex": 0,
      "confirmations": null,
      "from": "0xa70a9a7040d542C632D8e0bE7c5513A8a5Bbc752",
      "gasPrice": {
        "_hex": "0xd1e8e7f7b"
      },
      "gasLimit": {
        "_hex": "0x5208"
      },
      "to": "0x32Be343B94f860124dC4fEe278FDCBD38C102D88",
      "value": {
        "_hex": "0x455f5d5018d63c00"
      },
      "nonce": 195,
      "data": "0x",
      "r": "0xc5fca6b06bf0516f3c1dfb9b2303a163fff95024fbc7addb93ec495fd03ed5cd",
      "s": "0x2660088894f9dd442cfe317838ff037d26ffe3f93483d4d475147eeb04d6f6f9",
      "v": 27,
      "creates": null,
      "raw": "0xf86d81c3850d1e8e7f7b8252089432be343b94f860124dc4fee278fdcbd38c102d8888455f5d5018d63c00801ba0c5fca6b06bf0516f3c1dfb9b2303a163fff95024fbc7addb93ec495fd03ed5cda02660088894f9dd442cfe317838ff037d26ffe3f93483d4d475147eeb04d6f6f9",
      "networkId": 0,
      "chainId": 0
    }
  ]
}