{
  "hash": "0x10dd6b2339878eef64cbaebb4f7e1997c09d92b8b9579a91bb595a1aefecb390",
  "parentHash": "0xbb887b76028c3e58ac9e63b5603d422e4c00fcf44eb740824878c097c8e108a3",
  "number": 113461,
  "timestamp": 1440023875,
  "nonce": "0x88dcc0fbae636e20",
  "difficulty": 4464638595372,
  "gasLimit": {
    "_hex": "0x2fefd8"
  },
  "gasUsed": {
    "_hex": "0xf618"
  },
  "miner": "0xe6A7a1d47ff21B6321162AEA7C6CB457D5476Bca",
  "extraData": "0x476574682f76312e302e312d38326566323666362f6c696e75782f676f312e34",
  "transactions": [
    {
      "hash": "0x8fcd8a35535fd21032123449a33e2d36d5f0c9764ffd30150d9bcd788d498bab",
      "blockHash": "0x10dd6b2339878eef64cbaebb4f7e1997c09d92b8b9579a91bb595a1aefecb390",
      "blockNumber": 113461,
      "transactionIndex": 0,
      "confirmations": null,
      "from": "0x32Be343B94f860124dC4fEe278FDCBD38C102D88",
      "gasPrice": {
        "_hex": "0xd517bbe11"
      },
      "gasLimit": {
        "_hex": "0x5208"
      },
      "to": "0xc93a69dFC0fb3E867D9207599f7fe87d51619635",
      "value": {
        "_hex": "0x821ab0d4414980000"
      },
      "nonce": 1368,
      "data": "0x",
      "r": "0x322b75b6315f894d89772979b0176fefa5ffc66834c393b21ac91f2d139766c4",
      "s": "0x4f494ec54a03c51d0c3eb82cb35ea2e01c417708eeecfc988b9f7cc54d8f913b",
      "v": 28,
      "creates": null,
      "raw": "0xf86f820558850d517bbe1182520894c93a69dfc0fb3e867d9207599f7fe87d51619635890821ab0d4414980000801ca0322b75b6315f894d89772979b0176fefa5ffc66834c393b21ac91f2d139766c4a04f494ec54a03c51d0c3eb82cb35ea2e01c417708eeecfc988b9f7cc54d8f913b",
      "networkId": 0,
      "chainId": 0
    },
    {
      "hash": "0xd10c72448575a138f925d945dbf21b13da07834812dbf836b5077b748da74ca2",
      "blockHash": "0x10dd6b2339878eef64cbaebb4f7e1997c09d92b8b9579a91bb595a1aefecb390",
      "blockNumber": 113461,
      "transactionIndex": 1,
      "confirmations": null,
      "from": "0x767D74B2FF125F1CC09922FA88b1002713090b78",
      "gasPrice": {
        "_hex": "0xd3182aa5b"
      },
      "gasLimit": {
        "_hex": "0x7a120"
      },
      "to": "0xBBDa93a81B882774e1c9b5e3F933Fa35DaC8bc88",
      "value": {
        "_hex": "0x4563918244f40000"
      },
      "nonce": 1,
      "data": "0x",
      "r": "0xa414d0917c8aa2fdb66f6895d307dd8bd2b39e86a3baddfc93d00be1abb5d674",
      "s": "0x74b8d4c98f37883fe0592662b55a445abb441622556673028dc4dcb58ab3327c",
      "v": 28,
      "creates": null,
      "raw": "0xf86d01850d3182aa5b8307a12094bbda93a81b882774e1c9b5e3f933fa35dac8bc88884563918244f40000801ca0a414d0917c8aa2fdb66f6895d307dd8bd2b39e86a3baddfc93d00be1abb5d674a074b8d4c98f37883fe0592662b55a445abb441622556673028dc4dcb58ab3327c",
      "networkId": 0,
      "chainId": 0
    },
    {
      "hash": "0x7794c33c9e7e2a9bbfbecf12082477d6cd67fca040710af78b162986ee9d2997",
      "blockHash": "0x10dd6b2339878eef64cbaebb4f7e1997c09d92b8b9579a91bb595a1aefecb390",
      "blockNumber": 113461,
      "transactionIndex": 2,
      "confirmations": null,
      "from": "0x1f1f1f6FAA77a31e6c9aeF1eF25A6F6819177EEB",
      "gasPrice": {
        "_hex": "0xba43b7400"
      },
      "gasLimit": {
        "_hex": "0x5266"
      },
      "to": "0xaAAaAA69E3eEd94B7A10dAfCf2DBC3D5e18397fb",
      "value": {
        "_hex": "0xdd2d5fcf3bc9c0000"
      },
      "nonce": 1,
      "data": "0x",
      "r": "0x60a3fd679b0267cf23af88ac0f27f6efcc9acb6b8416f5b74bca1e0684ec8b58",
      "s": "0xa5120e01d6491beac49f8510e5ecdb6811d1f82a2dd0a1db50e5b2434fed922b",
      "v": 27,
      "creates": null,
      "raw": "0xf86d01850ba43b740082526694aaaaaa69e3eed94b7a10dafcf2dbc3d5e18397fb890dd2d5fcf3bc9c0000801ba060a3fd679b0267cf23af88ac0f27f6efcc9acb6b8416f5b74bca1e0684ec8b58a0a5120e01d6491beac49f8510e5ecdb6811d1f82a2dd0a1db50e5b2434fed922b",
      "networkId": 0,
      "chainId": 0
    }
  ]
}