{
  "hash": "0x02e98fbfe35851a8e4754102136f4a7d817a58db5641b6c98dc3f15a02f661c1",
  "parentHash": "0xa28e84959a2550ee3c5be39b61ab3708e569efa0ad6902ce5c8e0bab0c94c161",
  "number": 92628,
  "timestamp": 1439674829,
  "nonce": "0xd6937470e755bbaa",
  "difficulty": 3556195415274,
  "gasLimit": {
    "_hex": "0x2fefd8"
  },
  "gasUsed": {
    "_hex": "0x5208"
  },
  "miner": "0x7E6930B63D03e88F5928C5cd6ee3FCee4D714F7F",
  "extraData": "0x",
  "transactions": [
    {
      "hash": "0x6d426846b384af1368fa977172765ced4270288714e54fca2bbe7428fbeca76b",
      "blockHash": "0x02e98fbfe35851a8e4754102136f4a7d817a58db5641b6c98dc3f15a02f661c1",
      "blockNumber": 92628,
      "transactionIndex": 0,
      "confirmations": null,
      "from": "0x7313946aA53dCDd777C90905D75A9B41e17Ca2c9",
      "gasPrice": {
        "_hex": "0xd9fbb3fb2"
      },
      "gasLimit": {
        "_hex": "0x5208"
      },
      "to": "0x32Be343B94f860124dC4fEe278FDCBD38C102D88",
      "value": {
        "_hex": "0x75f1bddaf8d40000"
      },
      "nonce": 3,
      "data": "0x",
      "r": "0x17f7160de0ac19abf2f4f302aa31a27d6e2f418e5f14c190758d19ba6282866b",
      "s": "0x1595d1df31dfe59e185f4f7e4bad0541bbe81d8fa0f6656c8144578574fca18c",
      "v": 27,
      "creates": null,
      "raw": "0xf86c03850d9fbb3fb28252089432be343b94f860124dc4fee278fdcbd38c102d888875f1bddaf8d40000801ba017f7160de0ac19abf2f4f302aa31a27d6e2f418e5f14c190758d19ba6282866ba01595d1df31dfe59e185f4f7e4bad0541bbe81d8fa0f6656c8144578574fca18c",
      "networkId": 0,
      "chainId": 0
    }
  ]
}