{
  "hash": "0x2d17ada14be13543da7777c3733590ac18d052965d2388804fcab942ae3a9ec6",
  "parentHash": "0x65153d278edb1a46e0903ce035311692844c56f64d6fc14ad274178521469f94",
  "number": 83283,
  "timestamp": 1439533099,
  "nonce": "0x2d27855193ba28ed",
  "difficulty": 2414812528875,
  "gasLimit": {
    "_hex": "0x2fefd8"
  },
  "gasUsed": {
    "_hex": "0x5208"
  },
  "miner": "0xbb7B8287f3F0a933474a79eAe42CBCa977791171",
  "extraData": "0x476574682f4c5649562f76312e302e312f6c696e75782f676f312e342e32",
  "transactions": [
    {
      "hash": "0xc9c6607745cc0775009e8e86fb0d44ecd00b19cfe12ddb191191fb2e62a53506",
      "blockHash": "0x2d17ada14be13543da7777c3733590ac18d052965d2388804fcab942ae3a9ec6",
      "blockNumber": 83283,
      "transactionIndex": 0,
      "confirmations": null,
      "from": "0x30853f0562c79055Fbd88CFFC01A109b346752ba",
      "gasPrice": {
        "_hex": "0xd57ec59c1"
      },
      "gasLimit": {
        "_hex": "0x7530"
      },
      "to": "0xa9f5E7bf6Cbf6fEc55B30850Eb492b47A376d050",
      "value": {
        "_hex": "0x2a802f8630a240000"
      },
      "nonce": 1,
      "data": "0x",
      "r": "0xa1afc8e70f7990c1c24776ec8b76b6263911f527872f72b839b909022c8da424",
      "s": "0x2ab2f3bcdcb299defd9b9c3e103f262897284782192f2a9ff2b65123089831da",
      "v": 28,
      "creates": null,
      "raw": "0xf86d01850d57ec59c182753094a9f5e7bf6cbf6fec55b30850eb492b47a376d0508902a802f8630a240000801ca0a1afc8e70f7990c1c24776ec8b76b6263911f527872f72b839b909022c8da424a02ab2f3bcdcb299defd9b9c3e103f262897284782192f2a9ff2b65123089831da",
      "networkId": 0,
      "chainId": 0
    }
  ]
}