{
  "hash": "0x6f5f80b987375fd3f00104d69e99885ca57e678ac330d84bb9be91ec627194c5",
  "parentHash": "0xfd94c87471be8cd1b21986ad6d1f587b9f1126cffe7402078ca40d022c31b0a9",
  "number": 109088,
  "timestamp": 1439950815,
  "nonce": "0xd359554dc7e42f8b",
  "difficulty": 4425716681053,
  "gasLimit": {
    "_hex": "0x2fefd8"
  },
  "gasUsed": {
    "_hex": "0xa410"
  },
  "miner": "0xe6A7a1d47ff21B6321162AEA7C6CB457D5476Bca",
  "extraData": "0x476574682f76312e302e312d38326566323666362f6c696e75782f676f312e34",
  "transactions": [
    {
      "hash": "0x252fb7d355fb87bf11bb6abe6e45565530c075b581d5d2e4d1c596c0b8217fd1",
      "blockHash": "0x6f5f80b987375fd3f00104d69e99885ca57e678ac330d84bb9be91ec627194c5",
      "blockNumber": 109088,
      "transactionIndex": 0,
      "confirmations": null,
      "from": "0x7B60F3f033e6D7808428C9f2dBC81682ff24984F",
      "gasPrice": {
        "_hex": "0xd86b52932"
      },
      "gasLimit": {
        "_hex": "0x5208"
      },
      "to": "0xFBb1b73C4f0BDa4f67dcA266ce6Ef42f520fBB98",
      "value": {
        "_hex": "0x872718d2f372b270"
      },
      "nonce": 1,
      "data": "0x",
      "r": "0x36c4fae9552d3f4cc0d7e7b53f1162121699817283990a804e857318c35ba44a",
      "s": "0x3bc6b09b23e4f97834bca094b028aa59de2bd556f7a8178f17bba7983f497f08",
      "v": 27,
      "creates": null,
      "raw": "0xf86c01850d86b5293282520894fbb1b73c4f0bda4f67dca266ce6ef42f520fbb9888872718d2f372b270801ba036c4fae9552d3f4cc0d7e7b53f1162121699817283990a804e857318c35ba44aa03bc6b09b23e4f97834bca094b028aa59de2bd556f7a8178f17bba7983f497f08",
      "networkId": 0,
      "chainId": 0
    },
    {
      "hash": "0xc2dfa0742f85e7077307d0f6057afa272188e866d304cfd9005736ae24d816c4",
      "blockHash": "0x6f5f80b987375fd3f00104d69e99885ca57e678ac330d84bb9be91ec627194c5",
      "blockNumber": 109088,
      "transactionIndex": 1,
      "confirmations": null,
      "from": "0x289B9bA6dC9c12D3130F1115180397C20cCBF220",
      "gasPrice": {
        "_hex": "0xba43b7400"
      },
      "gasLimit": {
        "_hex": "0x5208"
      },
      "to": "0xC47Aaa860008be6f65B58c6C6E02a84e666EfE31",
      "value": {
        "_hex": "0x6cdc0a5f2260c95100"
      },
      "nonce": 12,
      "data": "0x",
      "r": "0xb0c1c4a94b1aee6ee2240c043f4246757a1ef8e361cc07307533d8746109b654",
      "s": "0x0f42a5ae98a34bbb6496dd1c8fcea6f1b9cebfa0f9b0aeaa37b6ee57459df65d",
      "v": 27,
      "creates": null,
      "raw": "0xf86d0c850ba43b740082520894c47aaa860008be6f65b58c6c6e02a84e666efe31896cdc0a5f2260c95100801ba0b0c1c4a94b1aee6ee2240c043f4246757a1ef8e361cc07307533d8746109b654a00f42a5ae98a34bbb6496dd1c8fcea6f1b9cebfa0f9b0aeaa37b6ee57459df65d",
      "networkId": 0,
      "chainId": 0
    }
  ]
}