{
  "hash": "0x6626654fc2e172a65b46ee45bd0c09797e2d89bf877954e77abff9cfca21824c",
  "parentHash": "0xaf3b4252567abec5627713ec755aa84e7f869b7554b6c0776dbd3cec4998c4bb",
  "number": 102963,
  "timestamp": 1439845660,
  "nonce": "0x9d088502413b48dd",
  "difficulty": 4126219437390,
  "gasLimit": {
    "_hex": "0x2fefd8"
  },
  "gasUsed": {
    "_hex": "0x546c"
  },
  "miner": "0xe6A7a1d47ff21B6321162AEA7C6CB457D5476Bca",
  "extraData": "0x476574682f76312e302e312d38326566323666362f6c696e75782f676f312e34",
  "transactions": [
    {
      "hash": "0x22fe355244db3c662b2b41a60cf78be8273de1009d31009c4f32a4239a3e982d",
      "blockHash": "0x6626654fc2e172a65b46ee45bd0c09797e2d89bf877954e77abff9cfca21824c",
      "blockNumber": 102963,
      "transactionIndex": 0,
      "confirmations": null,
      "from": "0x31995C46B15C84523cDEE26f49A681b8237e43F5",
      "gasPrice": {
        "_hex": "0xd36fc5023"
      },
      "gasLimit": {
        "_hex": "0x7530"
      },
      "to": "0x2910543Af39abA0Cd09dBb2D50200b3E800A63D2",
      "value": {
        "_hex": "0x813ca56906d340000"
      },
      "nonce": 7,
      "data": "0x454e3651304d384252",
      "r": "0x159b9ac153701e4eba3787a01f886934e42b57e04535702696393277e342167e",
      "s": "0x3b38238c0468c02b853c04cddf18eda61673384ee6a8a416533eb62603aebbb5",
      "v": 27,
      "creates": null,
      "raw": "0xf87607850d36fc5023827530942910543af39aba0cd09dbb2d50200b3e800a63d2890813ca56906d34000089454e3651304d3842521ba0159b9ac153701e4eba3787a01f886934e42b57e04535702696393277e342167ea03b38238c0468c02b853c04cddf18eda61673384ee6a8a416533eb62603aebbb5",
      "networkId": 0,
      "chainId": 0
    }
  ]
}