{
  "hash": "0xf673274cdff88ef15cb3168c5caf0880eb4ed3fa33ce5d9213cd07df689188e9",
  "parentHash": "0x04fc1ee7503380ae991408bc83bc58924d7f98d93abab8e188cf0cc561eafa3a",
  "number": 109436,
  "timestamp": 1439956505,
  "nonce": "0x877ef2c50f5d51ac",
  "difficulty": 4455889393407,
  "gasLimit": {
    "_hex": "0x2fefd8"
  },
  "gasUsed": {
    "_hex": "0x5208"
  },
  "miner": "0xe6A7a1d47ff21B6321162AEA7C6CB457D5476Bca",
  "extraData": "0x476574682f76312e302e312d38326566323666362f6c696e75782f676f312e34",
  "transactions": [
    {
      "hash": "0x43c8778dd52914a2fd4e397389afff2fc0fbae6a8eb7ff68f0979492a225e0e7",
      "blockHash": "0xf673274cdff88ef15cb3168c5caf0880eb4ed3fa33ce5d9213cd07df689188e9",
      "blockNumber": 109436,
      "transactionIndex": 0,
      "confirmations": null,
      "from": "0xb85150eB365e7Df0941F0CF08235f987bA91506A",
      "gasPrice": {
        "_hex": "0xd72f977f9"
      },
      "gasLimit": {
        "_hex": "0x15f90"
      },
      "to": "0xce7a6e1143620333cbaeDb089A14a5C08a3B7DF2",
      "value": {
        "_hex": "0x45400a8fd5330000"
      },
      "nonce": 4,
      "data": "0x",
      "r": "0x01f665f85343170b32cac72768b2ae07584ae572ab6c5f33d6e8d82d62998026",
      "s": "0x1aa647b7e5beafafaa0a21860ebe39244130af211e65ad50acb7e6ab9a90157d",
      "v": 27,
      "creates": null,
      "raw": "0xf86d04850d72f977f983015f9094ce7a6e1143620333cbaedb089a14a5c08a3b7df28845400a8fd5330000801ba001f665f85343170b32cac72768b2ae07584ae572ab6c5f33d6e8d82d62998026a01aa647b7e5beafafaa0a21860ebe39244130af211e65ad50acb7e6ab9a90157d",
      "networkId": 0,
      "chainId": 0
    }
  ]
}