{
  "hash": "0x6d6f1a96144881ef7f3fe493a9b9eb85d39d4fc38b95575f916f3fc3a6c1b2cb",
  "parentHash": "0x5c10041bced3efb95e7a70c49416871cde19a0fd1c7342dabf56d9f3d0633316",
  "number": 85681,
  "timestamp": 1439567135,
  "nonce": "0x35477d37760b5ca0",
  "difficulty": 2786790265904,
  "gasLimit": {
    "_hex": "0x2fefd8"
  },
  "gasUsed": {
    "_hex": "0x19a28"
  },
  "miner": "0x727A42a8D67fcaa0Ab81D46f1EE66bfc9b8789AC",
  "extraData": "0x",
  "transactions": [
    {
      "hash": "0x629697f2dd942f196f08d9a16ac1c612a7370e6084c645fa3519f60392849524",
      "blockHash": "0x6d6f1a96144881ef7f3fe493a9b9eb85d39d4fc38b95575f916f3fc3a6c1b2cb",
      "blockNumber": 85681,
      "transactionIndex": 0,
      "confirmations": null,
      "from": "0x814e505e371c7748C7b4675B94ABccfD1df6DD8A",
      "gasPrice": {
        "_hex": "0x746a528800"
      },
      "gasLimit": {
        "_hex": "0x55f0"
      },
      "to": "0x4019b21f3dB1F288414aC180f3Ea63315B12a7aC",
      "value": {
        "_hex": "0x4be428aea6f32d4000"
      },
      "nonce": 4,
      "data": "0x",
      "r": "0x7172c9cd11aae9f0e882cc6698ad7992543d85a6db5b3e95452b38c5a7a18b48",
      "s": "0x1a5d998374f69369cd30a44d639d9b05ef5453031d76211a7ae2b6f5ceabc417",
      "v": 27,
      "creates": null,
      "raw": "0xf86d0485746a5288008255f0944019b21f3db1f288414ac180f3ea63315b12a7ac894be428aea6f32d4000801ba07172c9cd11aae9f0e882cc6698ad7992543d85a6db5b3e95452b38c5a7a18b48a01a5d998374f69369cd30a44d639d9b05ef5453031d76211a7ae2b6f5ceabc417",
      "networkId": 0,
      "chainId": 0
    },
    {
      "hash": "0xb2c9d80bbe9eb79578a1adfb725e010ff3bc904a93fb3bf6f017a3f704b3ec64",
      "blockHash": "0x6d6f1a96144881ef7f3fe493a9b9eb85d39d4fc38b95575f916f3fc3a6c1b2cb",
      "blockNumber": 85681,
      "transactionIndex": 1,
      "confirmations": null,
      "from": "0xA2Cb067D1B3038eEe446d994440C0ae9cf1abfdF",
      "gasPrice": {
        "_hex": "0xcc1f2d4f8"
      },
      "gasLimit": {
        "_hex": "0x7530"
      },
      "to": "0x6De181Fc4C140FA31F196e5393516c49EEeBdAd3",
      "value": {
        "_hex": "0x4f1a77ccd3ba0000"
      },
      "nonce": 5,
      "data": "0x",
      "r": "0x9a481252c65571cc3765bd7e7a999ce39ee842fcd7bd3f07e745500c2e817753",
      "s": "0x1810d9537cf1a5afa7c027383d712b70b141414f0fe34eafdeafc34435031e3c",
      "v": 28,
      "creates": null,
      "raw": "0xf86c05850cc1f2d4f8827530946de181fc4c140fa31f196e5393516c49eeebdad3884f1a77ccd3ba0000801ca09a481252c65571cc3765bd7e7a999ce39ee842fcd7bd3f07e745500c2e817753a01810d9537cf1a5afa7c027383d712b70b141414f0fe34eafdeafc34435031e3c",
      "networkId": 0,
      "chainId": 0
    },
    {
      "hash": "0x060e0e9fd0842d1b16a207763ed0d0829a83c6d56cf398469acc3d2650fce91f",
      "blockHash": "0x6d6f1a96144881ef7f3fe493a9b9eb85d39d4fc38b95575f916f3fc3a6c1b2cb",
      "blockNumber": 85681,
      "transactionIndex": 2,
      "confirmations": null,
      "from": "0xE652BB86f049541e438AF3b8bCafdA935C686691",
      "gasPrice": {
        "_hex": "0xba43b7400"
      },
      "gasLimit": {
        "_hex": "0x5208"
      },
      "to": "0xC47Aaa860008be6f65B58c6C6E02a84e666EfE31",
      "value": {
        "_hex": "0x1bf35bce4e50000"
      },
      "nonce": 1,
      "data": "0x",
      "r": "0x2636f1ba33eda82b5b3e21adfbfa7cab28cba08c3597ffcce420b2696583e04b",
      "s": "0x1b5ff57c54bee79309daa9928771303678ebd13aa7a423ff06978ba9ba6fa598",
      "v": 28,
      "creates": null,
      "raw": "0xf86c01850ba43b740082520894c47aaa860008be6f65b58c6c6e02a84e666efe318801bf35bce4e50000801ca02636f1ba33eda82b5b3e21adfbfa7cab28cba08c3597ffcce420b2696583e04ba01b5ff57c54bee79309daa9928771303678ebd13aa7a423ff06978ba9ba6fa598",
      "networkId": 0,
      "chainId": 0
    },
    {
      "hash": "0xde785eaf37e835ee965d90f79e903a7767d96c050d467553241abf49d9ae44ad",
      "blockHash": "0x6d6f1a96144881ef7f3fe493a9b9eb85d39d4fc38b95575f916f3fc3a6c1b2cb",
      "blockNumber": 85681,
      "transactionIndex": 3,
      "confirmations": null,
      "from": "0xD05f85Eb920117eeBBf13dd94FeEA60e9eB34537",
      "gasPrice": {
        "_hex": "0xba43b7400"
      },
      "gasLimit": {
        "_hex": "0x5208"
      },
      "to": "0xC47Aaa860008be6f65B58c6C6E02a84e666EfE31",
      "value": {
        "_hex": "0x3443da4fdf919c000"
      },
      "nonce": 5,
      "data": "0x",
      "r": "0xc72d40b2a76198bc44fbd6ce79c4ebb1e118668175e68dcb2695bcf2744bb11d",
      "s": "0x002fb597df24be9c6a48a8e39ee67bfb1a44946862d69f44d26e5d061e87f568",
      "v": 28,
      "creates": null,
      "raw": "0xf86c05850ba43b740082520894c47aaa860008be6f65b58c6c6e02a84e666efe318903443da4fdf919c000801ca0c72d40b2a76198bc44fbd6ce79c4ebb1e118668175e68dcb2695bcf2744bb11d9f2fb597df24be9c6a48a8e39ee67bfb1a44946862d69f44d26e5d061e87f568",
      "networkId": 0,
      "chainId": 0
    },
    {
      "hash": "0x71aaed823b89195cf4c4810a39301f5f0ee7ea8d37b57ac94a91ae31115ae1f7",
      "blockHash": "0x6d6f1a96144881ef7f3fe493a9b9eb85d39d4fc38b95575f916f3fc3a6c1b2cb",
      "blockNumber": 85681,
      "transactionIndex": 4,
      "confirmations": null,
      "from": "0x663F37156fa35DBA128c9682f13D515b68002002",
      "gasPrice": {
        "_hex": "0xba43b7400"
      },
      "gasLimit": {
        "_hex": "0x5208"
      },
      "to": "0xC47Aaa860008be6f65B58c6C6E02a84e666EfE31",
      "value": {
        "_hex": "0x455fd68a17f038f0"
      },
      "nonce": 0,
      "data": "0x",
      "r": "0x51625c1e46d2ed4950bc07d2cbc139a4b45a5b119d5512553fa0773533f1a72b",
      "s": "0x56e98912a5f63318bde159674dca8de41aecab92d6edda3fe338425046f03ecf",
      "v": 28,
      "creates": null,
      "raw": "0xf86c80850ba43b740082520894c47aaa860008be6f65b58c6c6e02a84e666efe3188455fd68a17f038f0801ca051625c1e46d2ed4950bc07d2cbc139a4b45a5b119d5512553fa0773533f1a72ba056e98912a5f63318bde159674dca8de41aecab92d6edda3fe338425046f03ecf",
      "networkId": 0,
      "chainId": 0
    }
  ]
}