{
  "hash": "0x1caa9c6af92fe54705191b6d6614dc577cec2267efcf9e9567025f34ae344df0",
  "parentHash": "0x9aac82e7742b198bff5a832896eabda7c26daeb1835957c76b8bf588bedcbfa6",
  "number": 97978,
  "timestamp": 1439764989,
  "nonce": "0x03f41aeec337627b",
  "difficulty": 3850225166444,
  "gasLimit": {
    "_hex": "0x2fefd8"
  },
  "gasUsed": {
    "_hex": "0x5208"
  },
  "miner": "0x9746c7e1ef2bd21FF3997fa467593a89cb852BD0",
  "extraData": "0x476574682f76312e302e312f77696e646f77732f676f312e342e32",
  "transactions": [
    {
      "hash": "0x537516e0bd2146c660d9a926e775482063fb82e94d53c6b2f617fb8078e795d0",
      "blockHash": "0x1caa9c6af92fe54705191b6d6614dc577cec2267efcf9e9567025f34ae344df0",
      "blockNumber": 97978,
      "transactionIndex": 0,
      "confirmations": null,
      "from": "0xC3fe64D1af00F0d9c324E4387EF7533f7D788e95",
      "gasPrice": {
        "_hex": "0xd2428a782"
      },
      "gasLimit": {
        "_hex": "0x5208"
      },
      "to": "0x32Be343B94f860124dC4fEe278FDCBD38C102D88",
      "value": {
        "_hex": "0x37f19deaea2c8a000"
      },
      "nonce": 13,
      "data": "0x",
      "r": "0xb3e86c13702405e13f6dea5b3f1fec1483b7416d09c464f2ac11423c492cce2c",
      "s": "0x507c083b4a832a1503ab362f50a041657a8aac19f71a094c41b945d44be1aaf3",
      "v": 28,
      "creates": null,
      "raw": "0xf86d0d850d2428a7828252089432be343b94f860124dc4fee278fdcbd38c102d8889037f19deaea2c8a000801ca0b3e86c13702405e13f6dea5b3f1fec1483b7416d09c464f2ac11423c492cce2ca0507c083b4a832a1503ab362f50a041657a8aac19f71a094c41b945d44be1aaf3",
      "networkId": 0,
      "chainId": 0
    }
  ]
}