{
  "hash": "0xc6d8838693fd63b64228be29f672c9637d4b832b414f6e6b9588149a4f2fbadd",
  "parentHash": "0x6a0a068cf3e5dc7b40e3435909d7db11c6ff82a589e228e3510973b3d37890c3",
  "number": 77572,
  "timestamp": 1439439382,
  "nonce": "0xa6b51cb0d4e994c0",
  "difficulty": 2260097432548,
  "gasLimit": {
    "_hex": "0x2fefd8"
  },
  "gasUsed": {
    "_hex": "0x54c8"
  },
  "miner": "0xe6A7a1d47ff21B6321162AEA7C6CB457D5476Bca",
  "extraData": "0x476574682f76312e302e312d38326566323666362f6c696e75782f676f312e34",
  "transactions": [
    {
      "hash": "0x4325de59cc7182b0c8e2dc815dfa8668a7a16ae403dbae6c0632694072a88a2d",
      "blockHash": "0xc6d8838693fd63b64228be29f672c9637d4b832b414f6e6b9588149a4f2fbadd",
      "blockNumber": 77572,
      "transactionIndex": 0,
      "confirmations": null,
      "from": "0x4BD5f0Ee173C81d42765154865EE69361b6aD189",
      "gasPrice": {
        "_hex": "0x746a528800"
      },
      "gasLimit": {
        "_hex": "0x5dc4"
      },
      "to": "0x2910543Af39abA0Cd09dBb2D50200b3E800A63D2",
      "value": {
        "_hex": "0x35ab028ac154b80000"
      },
      "nonce": 23,
      "data": "0x0000000000000000000000000000000000000000000000454e465631595a3552",
      "r": "0xea4fd4378991e171195fe39da4f846057cec9d2d57b61f6ccbeb2e9020826ca8",
      "s": "0x761147fd90fd0c61141aac7523f865888d0f003cb55f4f434a180df3e9d73f5a",
      "v": 28,
      "creates": null,
      "raw": "0xf88d1785746a528800825dc4942910543af39aba0cd09dbb2d50200b3e800a63d28935ab028ac154b80000a00000000000000000000000000000000000000000000000454e465631595a35521ca0ea4fd4378991e171195fe39da4f846057cec9d2d57b61f6ccbeb2e9020826ca8a0761147fd90fd0c61141aac7523f865888d0f003cb55f4f434a180df3e9d73f5a",
      "networkId": 0,
      "chainId": 0
    }
  ]
}