{
  "hash": "0x7aaefa0cf7ec544831c181b606811ac940f771821b3f28f4e75c0ebd7be77af1",
  "parentHash": "0xdf37a499e081e694040dde0687a89532057c8094672c89737967bf6915800358",
  "number": 46725,
  "timestamp": 1438928206,
  "nonce": "0x3657febf76584d7e",
  "difficulty": 1452497308969,
  "gasLimit": {
    "_hex": "0x749b"
  },
  "gasUsed": {
    "_hex": "0x5208"
  },
  "miner": "0xe6A7a1d47ff21B6321162AEA7C6CB457D5476Bca",
  "extraData": "0x657468706f6f6c2e6f7267",
  "transactions": [
    {
      "hash": "0xb67212efd78edda1f809813800dab4d8b24db6af257164874a5c31a60745d2f4",
      "blockHash": "0x7aaefa0cf7ec544831c181b606811ac940f771821b3f28f4e75c0ebd7be77af1",
      "blockNumber": 46725,
      "transactionIndex": 0,
      "confirmations": null,
      "from": "0x3B4AF94C39e87281410A3B5Cf880b4a647459363",
      "gasPrice": {
        "_hex": "0xd7cc02568"
      },
      "gasLimit": {
        "_hex": "0x5208"
      },
      "to": "0x32Be343B94f860124dC4fEe278FDCBD38C102D88",
      "value": {
        "_hex": "0xf3fa9ca32a74000"
      },
      "nonce": 0,
      "data": "0x",
      "r": "0x028b896870ee63eae3c9afd25fc1f64d0dd0ce6d60456872b9ef7dcdbb570535",
      "s": "0x6dc71f12f77ccf0713e2a9a17e77de133bd50907a7f26f77ee7f44952ded3492",
      "v": 28,
      "creates": null,
      "raw": "0xf86c80850d7cc025688252089432be343b94f860124dc4fee278fdcbd38c102d88880f3fa9ca32a74000801ca0028b896870ee63eae3c9afd25fc1f64d0dd0ce6d60456872b9ef7dcdbb570535a06dc71f12f77ccf0713e2a9a17e77de133bd50907a7f26f77ee7f44952ded3492",
      "networkId": 0,
      "chainId": 0
    }
  ]
}