{
  "hash": "0xe81a98d266cc9cd178ef511152f312f6f52fdacc1d58419376bae1e6e357d0f5",
  "parentHash": "0x576add937c219617ab7bddbc05b5c26225038d940532b06fa306b9fecc68653c",
  "number": 64280,
  "timestamp": 1439218207,
  "nonce": "0x9ec5c5a5bfb33a63",
  "difficulty": 1874826040626,
  "gasLimit": {
    "_hex": "0x2fefd5"
  },
  "gasUsed": {
    "_hex": "0x14820"
  },
  "miner": "0x52Dc504a422f0E2A9e7632A34a50f1a82F8224c7",
  "extraData": "0x476574682f76312e302e312f6c696e75782f676f312e342e32",
  "transactions": [
    {
      "hash": "0x38b9aff5b34f118e6ffc25f15186b8a138b10f9e9f747d80a1a0aeadad780ab8",
      "blockHash": "0xe81a98d266cc9cd178ef511152f312f6f52fdacc1d58419376bae1e6e357d0f5",
      "blockNumber": 64280,
      "transactionIndex": 0,
      "confirmations": null,
      "from": "0x6FdA00F80228f360b0CCce26c1858C722aE0dc74",
      "gasPrice": {
        "_hex": "0xe0676bd90"
      },
      "gasLimit": {
        "_hex": "0x5208"
      },
      "to": "0x32Be343B94f860124dC4fEe278FDCBD38C102D88",
      "value": {
        "_hex": "0xa2a146c755a0580000"
      },
      "nonce": 0,
      "data": "0x",
      "r": "0x8e31da0eac9e5f8acae51d36b53e9140e6b9ebc997d75a0c8abe5da548800677",
      "s": "0x051c0f8584cb9ae294e9405fa921e8afdb0df28baab4fc14ae9eec25a518206f",
      "v": 28,
      "creates": null,
      "raw": "0xf86d80850e0676bd908252089432be343b94f860124dc4fee278fdcbd38c102d8889a2a146c755a0580000801ca08e31da0eac9e5f8acae51d36b53e9140e6b9ebc997d75a0c8abe5da548800677a0051c0f8584cb9ae294e9405fa921e8afdb0df28baab4fc14ae9eec25a518206f",
      "networkId": 0,
      "chainId": 0
    },
    {
      "hash": "0x96fa158b412331ed72a2b4b69c2bf6e6d2769ff63f20e16ee6f6731d101f58eb",
      "blockHash": "0xe81a98d266cc9cd178ef511152f312f6f52fdacc1d58419376bae1e6e357d0f5",
      "blockNumber": 64280,
      "transactionIndex": 1,
      "confirmations": null,
      "from": "0x6800E12aFd6CAa35c8482E7757119ccf6b576FD0",
      "gasPrice": {
        "_hex": "0xe0676bd90"
      },
      "gasLimit": {
        "_hex": "0x5208"
      },
      "to": "0x32Be343B94f860124dC4fEe278FDCBD38C102D88",
      "value": {
        "_hex": "0x1b1ae058602bac0000"
      },
      "nonce": 3,
      "data": "0x",
      "r": "0xeeabfc410d2a2ccee80a125d97fceada06c7df4b92d6b7e20644cdd61dea4172",
      "s": "0x21837af3647db5c483ff1463345630ec3a3acea238016381e450df9d465fb5b5",
      "v": 27,
      "creates": null,
      "raw": "0xf86d03850e0676bd908252089432be343b94f860124dc4fee278fdcbd38c102d88891b1ae058602bac0000801ba0eeabfc410d2a2ccee80a125d97fceada06c7df4b92d6b7e20644cdd61dea4172a021837af3647db5c483ff1463345630ec3a3acea238016381e450df9d465fb5b5",
      "networkId": 0,
      "chainId": 0
    },
    {
      "hash": "0xb05a0c64589e47b9b8a3e51813160c0910df9778f1e8d6c795208e356d6061fb",
      "blockHash": "0xe81a98d266cc9cd178ef511152f312f6f52fdacc1d58419376bae1e6e357d0f5",
      "blockNumber": 64280,
      "transactionIndex": 2,
      "confirmations": null,
      "from": "0xdC6E506e643251bDf3C41d27f7001afC9358007F",
      "gasPrice": {
        "_hex": "0xe0676bd90"
      },
      "gasLimit": {
        "_hex": "0x5208"
      },
      "to": "0x32Be343B94f860124dC4fEe278FDCBD38C102D88",
      "value": {
        "_hex": "0x9496ffb30a2a080000"
      },
      "nonce": 0,
      "data": "0x",
      "r": "0xa5fbeca525412a9ae359ccd3441f91b5bda007b7f2dc56a5d8d81bf4c2c3da62",
      "s": "0x24be4c804b2fda2244b70f907e2537c3bf9585608617c7fe2dac84ce71e546dc",
      "v": 27,
      "creates": null,
      "raw": "0xf86d80850e0676bd908252089432be343b94f860124dc4fee278fdcbd38c102d88899496ffb30a2a080000801ba0a5fbeca525412a9ae359ccd3441f91b5bda007b7f2dc56a5d8d81bf4c2c3da62a024be4c804b2fda2244b70f907e2537c3bf9585608617c7fe2dac84ce71e546dc",
      "networkId": 0,
      "chainId": 0
    },
    {
      "hash": "0xa08ad08e00493c098a4cd44a4d0f277a358124b9cbf508fbd85dfdfacd6fc4f3",
      "blockHash": "0xe81a98d266cc9cd178ef511152f312f6f52fdacc1d58419376bae1e6e357d0f5",
      "blockNumber": 64280,
      "transactionIndex": 3,
      "confirmations": null,
      "from": "0x99181ED48C7c51532622dA23e20E2B38392476A7",
      "gasPrice": {
        "_hex": "0xe0676bd90"
      },
      "gasLimit": {
        "_hex": "0x5208"
      },
      "to": "0x32Be343B94f860124dC4fEe278FDCBD38C102D88",
      "value": {
        "_hex": "0xcff47917085cf000"
      },
      "nonce": 0,
      "data": "0x",
      "r": "0x4ef3cab4ba659b9d745d99a08f8ba93236920d227dfa6c0b2571d3c15112f8d2",
      "s": "0x73e64afd3a064403e7985dfb0dba7151fe812065cf5d1475a2a56772ea982a9b",
      "v": 27,
      "creates": null,
      "raw": "0xf86c80850e0676bd908252089432be343b94f860124dc4fee278fdcbd38c102d8888cff47917085cf000801ba04ef3cab4ba659b9d745d99a08f8ba93236920d227dfa6c0b2571d3c15112f8d2a073e64afd3a064403e7985dfb0dba7151fe812065cf5d1475a2a56772ea982a9b",
      "networkId": 0,
      "chainId": 0
    }
  ]
}