{
  "hash": "0x635c00cb662d994bef61a1679b4d1445347c25278cd2bcdc2b300eb4a4976145",
  "parentHash": "0xe95957002fad86cc75980fdbf362dce622d60aa32f352007c7b10609898107c1",
  "number": 116073,
  "timestamp": 1440067913,
  "nonce": "0x1e941d02f68927ae",
  "difficulty": 4604927367903,
  "gasLimit": {
    "_hex": "0x2fefd8"
  },
  "gasUsed": {
    "_hex": "0xa410"
  },
  "miner": "0x52bc44d5378309EE2abF1539BF71dE1b7d7bE3b5",
  "extraData": "0x476574682f76312e302e312d61383839306436312f6c696e75782f676f312e34",
  "transactions": [
    {
      "hash": "0x95424dbed62642083b549c5b34c4f21a8875f39e38fe42712e906a48f4957b67",
      "blockHash": "0x635c00cb662d994bef61a1679b4d1445347c25278cd2bcdc2b300eb4a4976145",
      "blockNumber": 116073,
      "transactionIndex": 0,
      "confirmations": null,
      "from": "0xa70a9a7040d542C632D8e0bE7c5513A8a5Bbc752",
      "gasPrice": {
        "_hex": "0xd57172112"
      },
      "gasLimit": {
        "_hex": "0x5208"
      },
      "to": "0x32Be343B94f860124dC4fEe278FDCBD38C102D88",
      "value": {
        "_hex": "0x478a67be2e77bc00"
      },
      "nonce": 311,
      "data": "0x",
      "r": "0x52079adea7346d35023dfca56b619b37aeb5e5318d3367d3b4ad329773c3df8e",
      "s": "0x0d5a2ec7bf7cdabf4b7e8a9f34921ae56ade063b6704b94e9f1a78aab89656cf",
      "v": 28,
      "creates": null,
      "raw": "0xf86e820137850d571721128252089432be343b94f860124dc4fee278fdcbd38c102d8888478a67be2e77bc00801ca052079adea7346d35023dfca56b619b37aeb5e5318d3367d3b4ad329773c3df8ea00d5a2ec7bf7cdabf4b7e8a9f34921ae56ade063b6704b94e9f1a78aab89656cf",
      "networkId": 0,
      "chainId": 0
    },
    {
      "hash": "0x66c791fe82f6a63b7202f18486f38f577204014d30bd47d18c0752d27e50452a",
      "blockHash": "0x635c00cb662d994bef61a1679b4d1445347c25278cd2bcdc2b300eb4a4976145",
      "blockNumber": 116073,
      "transactionIndex": 1,
      "confirmations": null,
      "from": "0x2910543Af39abA0Cd09dBb2D50200b3E800A63D2",
      "gasPrice": {
        "_hex": "0xcfc1cfc0e"
      },
      "gasLimit": {
        "_hex": "0x5208"
      },
      "to": "0xD9BeAC908e0FADE105100Ae3c79b02226930c849",
      "value": {
        "_hex": "0x5c7b66527ec56d4000"
      },
      "nonce": 1126,
      "data": "0x",
      "r": "0xef8a9883cb7e47f2756150f2aacfadd42b90d4c43157c969445bbaa89b4f5d6d",
      "s": "0x53db899b0693927a8848100bc758b2806651871ebc53dd8b4b638c383af5efd4",
      "v": 27,
      "creates": null,
      "raw": "0xf86f820466850cfc1cfc0e82520894d9beac908e0fade105100ae3c79b02226930c849895c7b66527ec56d4000801ba0ef8a9883cb7e47f2756150f2aacfadd42b90d4c43157c969445bbaa89b4f5d6da053db899b0693927a8848100bc758b2806651871ebc53dd8b4b638c383af5efd4",
      "networkId": 0,
      "chainId": 0
    }
  ]
}