{
  "hash": "0x2462e0fcca9a7b28dc32200dbb5e94b638699182a00ee34913856e7dd988ce2e",
  "parentHash": "0xe0d0bced9587fedd9636456ebd3f6629772764bde15d5c03d12a2484e9045bbe",
  "number": 49705,
  "timestamp": 1438977671,
  "nonce": "0x72e673e056458ff7",
  "difficulty": 1493689790176,
  "gasLimit": {
    "_hex": "0x3bb57"
  },
  "gasUsed": {
    "_hex": "0x546c"
  },
  "miner": "0xf8E0CA3Ed80bd541b94BEdCf259e8CF2141A9523",
  "extraData": "0x476574682f76312e302e312f77696e646f77732f676f312e342e32",
  "transactions": [
    {
      "hash": "0x36bbe0de8d7699c8eb6b891477decfdc0c9c876be585a6dbf1ba5b9508125e28",
      "blockHash": "0x2462e0fcca9a7b28dc32200dbb5e94b638699182a00ee34913856e7dd988ce2e",
      "blockNumber": 49705,
      "transactionIndex": 0,
      "confirmations": null,
      "from": "0x1B8aa0160cD79f005F88510A714913D70Ad3bE33",
      "gasPrice": {
        "_hex": "0x100593023d1"
      },
      "gasLimit": {
        "_hex": "0x15f90"
      },
      "to": "0x2910543Af39abA0Cd09dBb2D50200b3E800A63D2",
      "value": {
        "_hex": "0x2b5e3af16b1880000"
      },
      "nonce": 2,
      "data": "0x454e42384b33564652",
      "r": "0x06d4a7ef5ff8807d251efa171b90eb5e5835058ec21057e88a17a039815944f5",
      "s": "0x7387975717165e8a3f84bc4cd696bcd7c1c46839602857669fbb39e2c22a4db8",
      "v": 28,
      "creates": null,
      "raw": "0xf87802860100593023d183015f90942910543af39aba0cd09dbb2d50200b3e800a63d28902b5e3af16b188000089454e42384b335646521ca006d4a7ef5ff8807d251efa171b90eb5e5835058ec21057e88a17a039815944f5a07387975717165e8a3f84bc4cd696bcd7c1c46839602857669fbb39e2c22a4db8",
      "networkId": 0,
      "chainId": 0
    }
  ]
}