{
  "hash": "0xe3b49f301b5096a39163d47490a94dbe011fa1440f7fd221b477dc00120f11d6",
  "parentHash": "0x35c746aded433106947b8f400bd23ae474e0a8a04f5bd9db354c047e2dcc5e06",
  "number": 81851,
  "timestamp": 1439508940,
  "nonce": "0x39ce6ba96b687314",
  "difficulty": 2419946637181,
  "gasLimit": {
    "_hex": "0x2fefd8"
  },
  "gasUsed": {
    "_hex": "0xf618"
  },
  "miner": "0x88D74a59454F6cF3B51ef6b9136AFb6b9D405A88",
  "extraData": "0x476574682f76312e302e312d38326566323666362f6c696e75782f676f312e34",
  "transactions": [
    {
      "hash": "0x5dae434a3415d84d94c5fe96bf0a2a5f7774c73eed9183074f6091178a72cc75",
      "blockHash": "0xe3b49f301b5096a39163d47490a94dbe011fa1440f7fd221b477dc00120f11d6",
      "blockNumber": 81851,
      "transactionIndex": 0,
      "confirmations": null,
      "from": "0x2910543Af39abA0Cd09dBb2D50200b3E800A63D2",
      "gasPrice": {
        "_hex": "0xe10f06bca"
      },
      "gasLimit": {
        "_hex": "0x5208"
      },
      "to": "0xFD7c9117BbEB649d9b37B3D3C9917f7c12f526B3",
      "value": {
        "_hex": "0x104344570ef14f8000"
      },
      "nonce": 502,
      "data": "0x",
      "r": "0xcecd99adce1dd56605c28618af7a322552a5387f585c30dc9114dff29a841f6b",
      "s": "0x3c1226321bed3acc5f548e8e9f57a52a5ad258d3afcba12c5fb733089df75d52",
      "v": 27,
      "creates": null,
      "raw": "0xf86f8201f6850e10f06bca82520894fd7c9117bbeb649d9b37b3d3c9917f7c12f526b389104344570ef14f8000801ba0cecd99adce1dd56605c28618af7a322552a5387f585c30dc9114dff29a841f6ba03c1226321bed3acc5f548e8e9f57a52a5ad258d3afcba12c5fb733089df75d52",
      "networkId": 0,
      "chainId": 0
    },
    {
      "hash": "0xaa6616f7b6064226ad9a32cc09bf5051e0df9dd370e757366aea07c64e735ede",
      "blockHash": "0xe3b49f301b5096a39163d47490a94dbe011fa1440f7fd221b477dc00120f11d6",
      "blockNumber": 81851,
      "transactionIndex": 1,
      "confirmations": null,
      "from": "0x5adA3743144f1235d8cef97daAD6c123F20E7330",
      "gasPrice": {
        "_hex": "0xd84e12627"
      },
      "gasLimit": {
        "_hex": "0x15f90"
      },
      "to": "0x63d25FB5edc318Aae1DEc4F3aBd7c645f921cff8",
      "value": {
        "_hex": "0x1"
      },
      "nonce": 0,
      "data": "0x",
      "r": "0x3b9d465181c867c2a113594a031890f33dcbaaa326c2cb7e983de31f5b47b131",
      "s": "0x729a4b359b39917542595b7423a5556065084027e121b35b0391cf4015827919",
      "v": 28,
      "creates": null,
      "raw": "0xf86580850d84e1262783015f909463d25fb5edc318aae1dec4f3abd7c645f921cff801801ca03b9d465181c867c2a113594a031890f33dcbaaa326c2cb7e983de31f5b47b131a0729a4b359b39917542595b7423a5556065084027e121b35b0391cf4015827919",
      "networkId": 0,
      "chainId": 0
    },
    {
      "hash": "0x67d037a3791097d8473a06650f68c98af79f6c68b0ece952df11df17a5716a4e",
      "blockHash": "0xe3b49f301b5096a39163d47490a94dbe011fa1440f7fd221b477dc00120f11d6",
      "blockNumber": 81851,
      "transactionIndex": 2,
      "confirmations": null,
      "from": "0x4d67f2AB8599fef5Fc413999Aa01FD7fcE70B43D",
      "gasPrice": {
        "_hex": "0xd2f9f1bed"
      },
      "gasLimit": {
        "_hex": "0x55f0"
      },
      "to": "0xF2fa51710FeAe5b221eEfA15F2044A8B2dE2B5fA",
      "value": {
        "_hex": "0x21f74d2a1460b040000"
      },
      "nonce": 11,
      "data": "0x",
      "r": "0xae284793e455deaa508e20b1094e566917c9fe83dc5af732c0e12c08302f4d0f",
      "s": "0x657b77954b9a584cbc41b06f65df5bf3cc59fc0b40c62b4b180c9add13d5bd0b",
      "v": 28,
      "creates": null,
      "raw": "0xf86e0b850d2f9f1bed8255f094f2fa51710feae5b221eefa15f2044a8b2de2b5fa8a021f74d2a1460b040000801ca0ae284793e455deaa508e20b1094e566917c9fe83dc5af732c0e12c08302f4d0fa0657b77954b9a584cbc41b06f65df5bf3cc59fc0b40c62b4b180c9add13d5bd0b",
      "networkId": 0,
      "chainId": 0
    }
  ]
}