{
  "hash": "0x0b307ea1aa29e73918a647daba8502b55b12846d08b4ad19941ca3aeb103c036",
  "parentHash": "0xddd87d171f74cf605844abdbb9c2eaf3d002989d98f0cd4a8d6b98aaac1d76af",
  "number": 47710,
  "timestamp": 1438945196,
  "nonce": "0x06efe6b9019e6cde",
  "difficulty": 1443137090562,
  "gasLimit": {
    "_hex": "0xe74c"
  },
  "gasUsed": {
    "_hex": "0x5208"
  },
  "miner": "0x3ce70f7EBbb911d5FF14BB9244ac7C9be2c669B3",
  "extraData": "0xda8098302e392e33392b2b302d524c696e75782f672b2b2f696e74",
  "transactions": [
    {
      "hash": "0xd6a053c7ca2cf66d9febc88a283d46fd470a2fd14da2c79b7c7f230869b04a65",
      "blockHash": "0x0b307ea1aa29e73918a647daba8502b55b12846d08b4ad19941ca3aeb103c036",
      "blockNumber": 47710,
      "transactionIndex": 0,
      "confirmations": null,
      "from": "0x35D53E319229147b651f3Fe017c6792611FB5FA7",
      "gasPrice": {
        "_hex": "0x9184e72a000"
      },
      "gasLimit": {
        "_hex": "0x5208"
      },
      "to": "0xD8788DC4E59d07e002DEe751E2FDb4f687716f09",
      "value": {
        "_hex": "0xc249fdd327780000"
      },
      "nonce": 2,
      "data": "0x",
      "r": "0x91b9a9a4e1e72fb5c3a4e46d83766305b12ad6803be1b7e7024f36a3ba6cf6c8",
      "s": "0xf3215521ab2e1b26e11306c1c3b67be3ad46c66667dda7c8ee8730ccfa84b349",
      "v": 27,
      "creates": null,
      "raw": "0xf86d028609184e72a00082520894d8788dc4e59d07e002dee751e2fdb4f687716f0988c249fdd327780000801ba091b9a9a4e1e72fb5c3a4e46d83766305b12ad6803be1b7e7024f36a3ba6cf6c8a0f3215521ab2e1b26e11306c1c3b67be3ad46c66667dda7c8ee8730ccfa84b349",
      "networkId": 0,
      "chainId": 0
    }
  ]
}