{
  "hash": "0xc6f96edceaeee192864c1344e031823076e130922a8dcfe7920cf45d203ba6bd",
  "parentHash": "0xd490c7a7c08d30a5a76d08ff611eefea2bd007027e5d45b7b633e89b6af09d1e",
  "number": 99119,
  "timestamp": 1439784740,
  "nonce": "0x732127fec2c7c3d5",
  "difficulty": 3806709409564,
  "gasLimit": {
    "_hex": "0x2fefd8"
  },
  "gasUsed": {
    "_hex": "0xa410"
  },
  "miner": "0xe6A7a1d47ff21B6321162AEA7C6CB457D5476Bca",
  "extraData": "0x476574682f76312e302e312d38326566323666362f6c696e75782f676f312e34",
  "transactions": [
    {
      "hash": "0x2a4f65ec95e91b1494f76bd72412f34addd5cf9fb8f37c1f909f1ea0371f7673",
      "blockHash": "0xc6f96edceaeee192864c1344e031823076e130922a8dcfe7920cf45d203ba6bd",
      "blockNumber": 99119,
      "transactionIndex": 0,
      "confirmations": null,
      "from": "0x007f7f58D3eb5b7510A301eCC749FC1fCDDBE14D",
      "gasPrice": {
        "_hex": "0xe0cfe7246"
      },
      "gasLimit": {
        "_hex": "0x15f90"
      },
      "to": "0xb1abce2918E21ddb93AA452731a12672A3d9F75a",
      "value": {
        "_hex": "0x4563918244f40000"
      },
      "nonce": 147,
      "data": "0x",
      "r": "0xe284498399e82e92931fbb3a2464583ee692034d36cda7ee5f6d20e2fe79ac30",
      "s": "0x0de3418f52dc31b808bfd04047e003acc59adfa5c4e82022caab480af770a84d",
      "v": 27,
      "creates": null,
      "raw": "0xf86e8193850e0cfe724683015f9094b1abce2918e21ddb93aa452731a12672a3d9f75a884563918244f40000801ba0e284498399e82e92931fbb3a2464583ee692034d36cda7ee5f6d20e2fe79ac30a00de3418f52dc31b808bfd04047e003acc59adfa5c4e82022caab480af770a84d",
      "networkId": 0,
      "chainId": 0
    },
    {
      "hash": "0x1aef6f76b6008bcd0ce3cb712ff3b17d1484bbe631437c8c5cf89f7094c7431b",
      "blockHash": "0xc6f96edceaeee192864c1344e031823076e130922a8dcfe7920cf45d203ba6bd",
      "blockNumber": 99119,
      "transactionIndex": 1,
      "confirmations": null,
      "from": "0xE300c4587D260cE22a677755Db6429B491A4309E",
      "gasPrice": {
        "_hex": "0xd1af1c58d"
      },
      "gasLimit": {
        "_hex": "0x15f90"
      },
      "to": "0x06EC48800B2DB3eEfa052e98A9b5Fc2Bf783Ee74",
      "value": {
        "_hex": "0x22b1c8c1227a00000"
      },
      "nonce": 13,
      "data": "0x",
      "r": "0x53879899a3d5779dc9c3c8be324bbef78e72b801c27aa4c01c3b595e2f241181",
      "s": "0x16a7d4bb8e9d9af8560218b3582491ea33f2f3d18187e0101da6869d6bfb1e77",
      "v": 28,
      "creates": null,
      "raw": "0xf86e0d850d1af1c58d83015f909406ec48800b2db3eefa052e98a9b5fc2bf783ee7489022b1c8c1227a00000801ca053879899a3d5779dc9c3c8be324bbef78e72b801c27aa4c01c3b595e2f241181a016a7d4bb8e9d9af8560218b3582491ea33f2f3d18187e0101da6869d6bfb1e77",
      "networkId": 0,
      "chainId": 0
    }
  ]
}