{
  "hash": "0x24bdf81c205ec2bddae87c357c56367b63d843287fc25ca395d8b65c3e0b46a2",
  "parentHash": "0xcc4d9cf784a7882567fc9c11b22eca2ffe444ff23ee2cfcdeeeb84750870b43e",
  "number": 84328,
  "timestamp": 1439548174,
  "nonce": "0x62e2ea4bccb1a573",
  "difficulty": 2539050152287,
  "gasLimit": {
    "_hex": "0x2fefd8"
  },
  "gasUsed": {
    "_hex": "0x5208"
  },
  "miner": "0x306e6267d94f23a9b37Cb110f20852208Fbbf1aA",
  "extraData": "0x",
  "transactions": [
    {
      "hash": "0x328815187f8c0c80165a50f18a1d797b040dd937a538daa452466ae12bc2b0bd",
      "blockHash": "0x24bdf81c205ec2bddae87c357c56367b63d843287fc25ca395d8b65c3e0b46a2",
      "blockNumber": 84328,
      "transactionIndex": 0,
      "confirmations": null,
      "from": "0xd83630DD777Ce7c8Df15D55A8Bb72EB7C7b4568D",
      "gasPrice": {
        "_hex": "0xcdc1bc454"
      },
      "gasLimit": {
        "_hex": "0x15f90"
      },
      "to": "0x43D575Cc486538f9B89F6e46188822F6fBC68D94",
      "value": {
        "_hex": "0xde0b6b3a7640000"
      },
      "nonce": 3,
      "data": "0x",
      "r": "0xa7e5c4029feec20bf555b8275af90d68eb0b831c8f7373b8410265e8620531b5",
      "s": "0x71e7e1abb252b8f81a06bd449c2d912d9aa193cc2465685e13898c83826c5da8",
      "v": 28,
      "creates": null,
      "raw": "0xf86d03850cdc1bc45483015f909443d575cc486538f9b89f6e46188822f6fbc68d94880de0b6b3a7640000801ca0a7e5c4029feec20bf555b8275af90d68eb0b831c8f7373b8410265e8620531b5a071e7e1abb252b8f81a06bd449c2d912d9aa193cc2465685e13898c83826c5da8",
      "networkId": 0,
      "chainId": 0
    }
  ]
}