{
  "hash": "0x8b9da0c2b59a1d9fba7c7a59f8ddf3506da7817c33934f46139646e0b1159eaf",
  "parentHash": "0xae3175779f9b9fcadc6804984aff43b42abe63eaa2d9952ce4a515693eae2fcc",
  "number": 86520,
  "timestamp": 1439579417,
  "nonce": "0x0391a7fb9a94f1ea",
  "difficulty": 2893272266871,
  "gasLimit": {
    "_hex": "0x2fefd8"
  },
  "gasUsed": {
    "_hex": "0x5208"
  },
  "miner": "0xaB638742EBe3A78F2a85028350e1AADB86C0a6ed",
  "extraData": "0x",
  "transactions": [
    {
      "hash": "0x1b71b7de724ce2fd61f0fbc46cc60922f205b13efdbbe196575750faa341d1ec",
      "blockHash": "0x8b9da0c2b59a1d9fba7c7a59f8ddf3506da7817c33934f46139646e0b1159eaf",
      "blockNumber": 86520,
      "transactionIndex": 0,
      "confirmations": null,
      "from": "0xB6E50cCE61484289924ffb2629ea923272af1Ac1",
      "gasPrice": {
        "_hex": "0xba43b7400"
      },
      "gasLimit": {
        "_hex": "0x5208"
      },
      "to": "0xC47Aaa860008be6f65B58c6C6E02a84e666EfE31",
      "value": {
        "_hex": "0x1e4758111c7df38f0"
      },
      "nonce": 2,
      "data": "0x",
      "r": "0x84a52385cadaf83b36f9686e5fcfc7c962b2f4b99f81d83b0ac2280b3812b43c",
      "s": "0x020108edad91a599f68425d2818cedb88b0828f749dfb6f2f7ec7e35536f7be7",
      "v": 27,
      "creates": null,
      "raw": "0xf86d02850ba43b740082520894c47aaa860008be6f65b58c6c6e02a84e666efe318901e4758111c7df38f0801ba084a52385cadaf83b36f9686e5fcfc7c962b2f4b99f81d83b0ac2280b3812b43ca0020108edad91a599f68425d2818cedb88b0828f749dfb6f2f7ec7e35536f7be7",
      "networkId": 0,
      "chainId": 0
    }
  ]
}