{
  "hash": "0xda48b96930abd2d5cd60b962c9796b2faae7814d4985c742e912200035a9c7b4",
  "parentHash": "0x7d00af8672987ad97bea96ade91b5fd08345b9b3f7751df2832cd75dbc32954a",
  "number": 115371,
  "timestamp": 1440056059,
  "nonce": "0x7cfd0b01d36743f2",
  "difficulty": 4551659224182,
  "gasLimit": {
    "_hex": "0x2fefd8"
  },
  "gasUsed": {
    "_hex": "0xa410"
  },
  "miner": "0xe6A7a1d47ff21B6321162AEA7C6CB457D5476Bca",
  "extraData": "0x476574682f76312e302e312d38326566323666362f6c696e75782f676f312e34",
  "transactions": [
    {
      "hash": "0x0ef46fa0735cceeedd32d67b155e33c0b34fd120b6a7a1a662f7bcb3896e3882",
      "blockHash": "0xda48b96930abd2d5cd60b962c9796b2faae7814d4985c742e912200035a9c7b4",
      "blockNumber": 115371,
      "transactionIndex": 0,
      "confirmations": null,
      "from": "0xBb7f43EDfd8bf08B022fEd5BD91e3f9dE7e74D09",
      "gasPrice": {
        "_hex": "0xd07dd8442"
      },
      "gasLimit": {
        "_hex": "0x5208"
      },
      "to": "0x32Be343B94f860124dC4fEe278FDCBD38C102D88",
      "value": {
        "_hex": "0x8ac2f61902f2c000"
      },
      "nonce": 7,
      "data": "0x",
      "r": "0xe7b91e567a14d946deb507a572abc095f78c0ffa173beb2593f754c7981dca4a",
      "s": "0x776c124ef23929ac07cc5a574f3eb89ddb99796300e3cc093e18b9934ce5c5c7",
      "v": 27,
      "creates": null,
      "raw": "0xf86c07850d07dd84428252089432be343b94f860124dc4fee278fdcbd38c102d88888ac2f61902f2c000801ba0e7b91e567a14d946deb507a572abc095f78c0ffa173beb2593f754c7981dca4aa0776c124ef23929ac07cc5a574f3eb89ddb99796300e3cc093e18b9934ce5c5c7",
      "networkId": 0,
      "chainId": 0
    },
    {
      "hash": "0xb961e7e5cf24fca15497f862f1e9f1f863d43bcc1ae09e2a7c379f10f0d2b232",
      "blockHash": "0xda48b96930abd2d5cd60b962c9796b2faae7814d4985c742e912200035a9c7b4",
      "blockNumber": 115371,
      "transactionIndex": 1,
      "confirmations": null,
      "from": "0xC711d87af18Db9a7EbE2CFB279b73c8785E55d41",
      "gasPrice": {
        "_hex": "0xd07dd8442"
      },
      "gasLimit": {
        "_hex": "0x5208"
      },
      "to": "0x32Be343B94f860124dC4fEe278FDCBD38C102D88",
      "value": {
        "_hex": "0x1f4f4b5117d24c00"
      },
      "nonce": 8,
      "data": "0x",
      "r": "0x819dd5657056b7bc63bd27a3d9a1763375326cb02619c86b903ecdbf17c8dc79",
      "s": "0x1b5ec2ebc66f0616aa5ae7427f09bc16b0b14a67ee26c741e9c57ae966da0e84",
      "v": 28,
      "creates": null,
      "raw": "0xf86c08850d07dd84428252089432be343b94f860124dc4fee278fdcbd38c102d88881f4f4b5117d24c00801ca0819dd5657056b7bc63bd27a3d9a1763375326cb02619c86b903ecdbf17c8dc79a01b5ec2ebc66f0616aa5ae7427f09bc16b0b14a67ee26c741e9c57ae966da0e84",
      "networkId": 0,
      "chainId": 0
    }
  ]
}