{
  "hash": "0x84946ac32802e042d05696ac7449ff56db78297b9b6fb352a5a434fb088b6f5a",
  "parentHash": "0x6b8f33573ab572db16421f933469b6a3098a37232c31cac2200d427e006381f5",
  "number": 101735,
  "timestamp": 1439827332,
  "nonce": "0x463de283780f4bb8",
  "difficulty": 3873007816691,
  "gasLimit": {
    "_hex": "0x2fefd8"
  },
  "gasUsed": {
    "_hex": "0x5208"
  },
  "miner": "0xe6A7a1d47ff21B6321162AEA7C6CB457D5476Bca",
  "extraData": "0x476574682f76312e302e312d38326566323666362f6c696e75782f676f312e34",
  "transactions": [
    {
      "hash": "0xb90dfbe410e7cfbbd3130b642312bde28835acc1fdacebeb35a88604bab25369",
      "blockHash": "0x84946ac32802e042d05696ac7449ff56db78297b9b6fb352a5a434fb088b6f5a",
      "blockNumber": 101735,
      "transactionIndex": 0,
      "confirmations": null,
      "from": "0xcf00A85f3826941e7A25BFcF9Aac575d40410852",
      "gasPrice": {
        "_hex": "0xcb5bea614"
      },
      "gasLimit": {
        "_hex": "0x15f90"
      },
      "to": "0xD9666150A9dA92d9108198a4072970805a8B3428",
      "value": {
        "_hex": "0x4563918244f40000"
      },
      "nonce": 37,
      "data": "0x",
      "r": "0x523f82b667464a625d8e62b97b10463e7faf94cfbe05484800b560b12d1bc1d1",
      "s": "0x1d5e66843da6d18bc6b44a2d56657f37d94244efe164ff98fa6274c35c7bde0d",
      "v": 28,
      "creates": null,
      "raw": "0xf86d25850cb5bea61483015f9094d9666150a9da92d9108198a4072970805a8b3428884563918244f40000801ca0523f82b667464a625d8e62b97b10463e7faf94cfbe05484800b560b12d1bc1d1a01d5e66843da6d18bc6b44a2d56657f37d94244efe164ff98fa6274c35c7bde0d",
      "networkId": 0,
      "chainId": 0
    }
  ]
}