{
  "hash": "0xe60f8801f09dbd6486736d1876c28f520d9a5ed0841b051a83e3daaaaed95a22",
  "parentHash": "0xe858c2f83aa81681b8a4cc412802eeedb8e6413bad74d874e04bd8325057d5cc",
  "number": 79984,
  "timestamp": 1439478409,
  "nonce": "0xcb49dffe8d0cb329",
  "difficulty": 2340294190807,
  "gasLimit": {
    "_hex": "0x2fefd8"
  },
  "gasUsed": {
    "_hex": "0xa674"
  },
  "miner": "0x580992B51e3925e23280EfB93d3047C82f17E038",
  "extraData": "0x476574682f76312e302e312f6c696e75782f676f312e342e32",
  "transactions": [
    {
      "hash": "0xdd3af386eb962eb8c8e6799f5c499f031f79e83aca89adb889d378c33513329e",
      "blockHash": "0xe60f8801f09dbd6486736d1876c28f520d9a5ed0841b051a83e3daaaaed95a22",
      "blockNumber": 79984,
      "transactionIndex": 0,
      "confirmations": null,
      "from": "0xe2fF9Ee4b6ecC14141CC74Ca52a9e7a2Ee14D908",
      "gasPrice": {
        "_hex": "0x110c8f7d8de"
      },
      "gasLimit": {
        "_hex": "0xc350"
      },
      "to": "0x2910543Af39abA0Cd09dBb2D50200b3E800A63D2",
      "value": {
        "_hex": "0x4b9e204f80c8620000"
      },
      "nonce": 1,
      "data": "0x454e52303958413038",
      "r": "0x8fea446768ea3dd22ccdfe9b4314a31bdde9cf9067abebb77b5382dcc425cec7",
      "s": "0xd4cb7aff0678af44ef2bfaa4fa554fb1aeefda84038d8a0051e83357337d5285",
      "v": 27,
      "creates": null,
      "raw": "0xf87701860110c8f7d8de82c350942910543af39aba0cd09dbb2d50200b3e800a63d2894b9e204f80c862000089454e523039584130381ba08fea446768ea3dd22ccdfe9b4314a31bdde9cf9067abebb77b5382dcc425cec7a0d4cb7aff0678af44ef2bfaa4fa554fb1aeefda84038d8a0051e83357337d5285",
      "networkId": 0,
      "chainId": 0
    },
    {
      "hash": "0x302bba2b0a0b7a457b5ac8b757396c50242aff20ead14bb80a75c750a32f3c85",
      "blockHash": "0xe60f8801f09dbd6486736d1876c28f520d9a5ed0841b051a83e3daaaaed95a22",
      "blockNumber": 79984,
      "transactionIndex": 1,
      "confirmations": null,
      "from": "0x7D45E10A0d63eCCA0694a7cbfF030f4dD87DA0dC",
      "gasPrice": {
        "_hex": "0xdd8a2743b"
      },
      "gasLimit": {
        "_hex": "0x15f90"
      },
      "to": "0x6d921977dEFE5f4e0682CA512De1D07b1f4802E1",
      "value": {
        "_hex": "0x1158e460913d00000"
      },
      "nonce": 5,
      "data": "0x",
      "r": "0xd9049261f3d1b73597851786194bc18a0b131e58e366c5fd06013b6c8b4b98c4",
      "s": "0x639a40297594ae0652a58d5af54cb416af2a7df766c02ca7c256ae242bfa2146",
      "v": 28,
      "creates": null,
      "raw": "0xf86e05850dd8a2743b83015f90946d921977defe5f4e0682ca512de1d07b1f4802e18901158e460913d00000801ca0d9049261f3d1b73597851786194bc18a0b131e58e366c5fd06013b6c8b4b98c4a0639a40297594ae0652a58d5af54cb416af2a7df766c02ca7c256ae242bfa2146",
      "networkId": 0,
      "chainId": 0
    }
  ]
}