{
  "hash": "0x275579e1147788a876f947d3f207b76ae4814b6daa46cfea7edc66b931f143c4",
  "parentHash": "0x5d5a08a27ea0845b4c453693299f468b4915d99d6dcc448600f60bf52bfe3f2a",
  "number": 52960,
  "timestamp": 1439030202,
  "nonce": "0x74d6a6efc5261fd3",
  "difficulty": 1570123650426,
  "gasLimit": {
    "_hex": "0x1c8c9d"
  },
  "gasUsed": {
    "_hex": "0x546c"
  },
  "miner": "0x88D74a59454F6cF3B51ef6b9136AFb6b9D405A88",
  "extraData": "0x476574682f76312e302e302d66633739643332642f6c696e75782f676f312e34",
  "transactions": [
    {
      "hash": "0xcd7c751609f5b3c536c678de4ca7a92e85be335e189359c6f3611d08fa778b94",
      "blockHash": "0x275579e1147788a876f947d3f207b76ae4814b6daa46cfea7edc66b931f143c4",
      "blockNumber": 52960,
      "transactionIndex": 0,
      "confirmations": null,
      "from": "0xF1DF55dcc34a051012B575cB968BC9C458EA09C9",
      "gasPrice": {
        "_hex": "0x110c8f7d8de"
      },
      "gasLimit": {
        "_hex": "0xc350"
      },
      "to": "0x2910543Af39abA0Cd09dBb2D50200b3E800A63D2",
      "value": {
        "_hex": "0x363466684d81160000"
      },
      "nonce": 1,
      "data": "0x454e41333530465a47",
      "r": "0xda11b98fa1e895ead6312e21a196638b8bc4c1eb6463a981ec21a2a5c93152af",
      "s": "0x64a799b31b32147ae1005c55b671d34f4c0864cf5dccd635365884014c90332a",
      "v": 28,
      "creates": null,
      "raw": "0xf87701860110c8f7d8de82c350942910543af39aba0cd09dbb2d50200b3e800a63d289363466684d8116000089454e41333530465a471ca0da11b98fa1e895ead6312e21a196638b8bc4c1eb6463a981ec21a2a5c93152afa064a799b31b32147ae1005c55b671d34f4c0864cf5dccd635365884014c90332a",
      "networkId": 0,
      "chainId": 0
    }
  ]
}