{
  "hash": "0xdec10fc045a088346322840313837e81927f0d00416a85789e6af7e4e51d7dcf",
  "parentHash": "0xb4c9a23e6b2beb304c3f3f937731819b37f722015b6ad43c510775e0c821fa04",
  "number": 102636,
  "timestamp": 1439840866,
  "nonce": "0x89511d035468c4e7",
  "difficulty": 4024892623019,
  "gasLimit": {
    "_hex": "0x2fefd8"
  },
  "gasUsed": {
    "_hex": "0x5208"
  },
  "miner": "0xe6A7a1d47ff21B6321162AEA7C6CB457D5476Bca",
  "extraData": "0x476574682f76312e302e312d38326566323666362f6c696e75782f676f312e34",
  "transactions": [
    {
      "hash": "0x35f2664743d2c17ef1b9dcdb6f66cb49a3f0fe6aa651d0407f92bdd398f7b73a",
      "blockHash": "0xdec10fc045a088346322840313837e81927f0d00416a85789e6af7e4e51d7dcf",
      "blockNumber": 102636,
      "transactionIndex": 0,
      "confirmations": null,
      "from": "0x120A270bbC009644e35F0bB6ab13f95b8199c4ad",
      "gasPrice": {
        "_hex": "0xd331961c2"
      },
      "gasLimit": {
        "_hex": "0x3d090"
      },
      "to": "0xB9Fd3833e88e7cf1fa9879BdF55aF4b99cd5ce3f",
      "value": {
        "_hex": "0x56bc75e2d63100000"
      },
      "nonce": 702,
      "data": "0x",
      "r": "0x0b10058c2812892e0cd156f0192ef4c6e6cff80c7651605c09a343fa04a306ee",
      "s": "0x38fb29e0ae199bd8bf151b9fed0161dc9b116d95f65b59d3561af83c1ceb373e",
      "v": 27,
      "creates": null,
      "raw": "0xf8708202be850d331961c28303d09094b9fd3833e88e7cf1fa9879bdf55af4b99cd5ce3f89056bc75e2d63100000801ba00b10058c2812892e0cd156f0192ef4c6e6cff80c7651605c09a343fa04a306eea038fb29e0ae199bd8bf151b9fed0161dc9b116d95f65b59d3561af83c1ceb373e",
      "networkId": 0,
      "chainId": 0
    }
  ]
}