{
  "hash": "0x582a3649ade1b794ea7be2f2eef76bfd527c563346eed1df2a1ed6c786f0a1a5",
  "parentHash": "0x5dbcbf5ed51b2f0e5034170c16c62ec8447f156c64e83ca5e591738d621afb25",
  "number": 64106,
  "timestamp": 1439215307,
  "nonce": "0xf1e5f63ed470ae21",
  "difficulty": 1863911513322,
  "gasLimit": {
    "_hex": "0x2fefd8"
  },
  "gasUsed": {
    "_hex": "0x546c"
  },
  "miner": "0x580992B51e3925e23280EfB93d3047C82f17E038",
  "extraData": "0x476574682f76312e302e312f6c696e75782f676f312e342e32",
  "transactions": [
    {
      "hash": "0xdadd0e01d6e03f8b84392dda9ed0220ec76c89679d0e125b7afb3d024b8197f4",
      "blockHash": "0x582a3649ade1b794ea7be2f2eef76bfd527c563346eed1df2a1ed6c786f0a1a5",
      "blockNumber": 64106,
      "transactionIndex": 0,
      "confirmations": null,
      "from": "0x0eDEd3DA479d0beF8eeC92A76644D3f4E3C177f7",
      "gasPrice": {
        "_hex": "0xcd7d2813d"
      },
      "gasLimit": {
        "_hex": "0x55f0"
      },
      "to": "0x2910543Af39abA0Cd09dBb2D50200b3E800A63D2",
      "value": {
        "_hex": "0xde0b6b3a7640000"
      },
      "nonce": 7,
      "data": "0x454e38343157523852",
      "r": "0x51274e811f242ffc1df7f8ac61322a2d13dbcccf9db4f914b4180f824b23d8ac",
      "s": "0x368ff44d87de9c7fa4fde1ead1de223fddd79ea07e09c240720ee021c1d05149",
      "v": 28,
      "creates": null,
      "raw": "0xf87507850cd7d2813d8255f0942910543af39aba0cd09dbb2d50200b3e800a63d2880de0b6b3a764000089454e383431575238521ca051274e811f242ffc1df7f8ac61322a2d13dbcccf9db4f914b4180f824b23d8aca0368ff44d87de9c7fa4fde1ead1de223fddd79ea07e09c240720ee021c1d05149",
      "networkId": 0,
      "chainId": 0
    }
  ]
}