{
  "hash": "0x8bb204deb909311893b95254211cc3798a5b038627c4b636d5729e650423746e",
  "parentHash": "0x47bf64b5f7f2c69c6120a06716c848af61f2e6d6134d427c8d6dddd231ceec6a",
  "number": 54542,
  "timestamp": 1439055805,
  "nonce": "0x53ff925ec54c7b29",
  "difficulty": 1618078323817,
  "gasLimit": {
    "_hex": "0x2fefd8"
  },
  "gasUsed": {
    "_hex": "0x5208"
  },
  "miner": "0xF2d2AfF1320476cb8C6b607199D23175cc595693",
  "extraData": "0x476574682f76312e302e312f77696e646f77732f676f312e342e32",
  "transactions": [
    {
      "hash": "0x15845753deeabe2729c7c9b89ae1b7e498753f76025fd7ffd0e70d1c7c96f807",
      "blockHash": "0x8bb204deb909311893b95254211cc3798a5b038627c4b636d5729e650423746e",
      "blockNumber": 54542,
      "transactionIndex": 0,
      "confirmations": null,
      "from": "0x6919dd5E5DFB1Afa404703B9fAeA8ceE35D00d70",
      "gasPrice": {
        "_hex": "0xd6c727e7a"
      },
      "gasLimit": {
        "_hex": "0x5a3c"
      },
      "to": "0x8bFcdA3B2b6e30Ff5314F0c1d506ba1ADCc04015",
      "value": {
        "_hex": "0x56bc75e2d63100000"
      },
      "nonce": 0,
      "data": "0x",
      "r": "0xc27d05b6c0e92b618f0722eb1acea878b2678c8399651359cba7e28e112ce51a",
      "s": "0x4a7419743d301cded09304edc6cdbdc2634bd2b0e89e8cb433447491d5ce75de",
      "v": 28,
      "creates": null,
      "raw": "0xf86d80850d6c727e7a825a3c948bfcda3b2b6e30ff5314f0c1d506ba1adcc0401589056bc75e2d63100000801ca0c27d05b6c0e92b618f0722eb1acea878b2678c8399651359cba7e28e112ce51aa04a7419743d301cded09304edc6cdbdc2634bd2b0e89e8cb433447491d5ce75de",
      "networkId": 0,
      "chainId": 0
    }
  ]
}