{
  "hash": "0x8253672be4980f9d91f33b52139639cfcc06e14d61148a718e0b3b3cad4df834",
  "parentHash": "0x7a7c9b93559b9ad5e789e7bb0a5864a2410ca60d6c5184cf5087cb4d067333d3",
  "number": 119333,
  "timestamp": 1440140976,
  "nonce": "0xbf1800a51c6f98b8",
  "difficulty": 4413844524661,
  "gasLimit": {
    "_hex": "0x2fefd8"
  },
  "gasUsed": {
    "_hex": "0xf618"
  },
  "miner": "0x52bc44d5378309EE2abF1539BF71dE1b7d7bE3b5",
  "extraData": "0xd783010002844765746887676f312e342e32856c696e7578",
  "transactions": [
    {
      "hash": "0x90dfb75e460034275c31c27e7505bea795f693211ab031eb5b832f7c5139904a",
      "blockHash": "0x8253672be4980f9d91f33b52139639cfcc06e14d61148a718e0b3b3cad4df834",
      "blockNumber": 119333,
      "transactionIndex": 0,
      "confirmations": null,
      "from": "0xe6A7a1d47ff21B6321162AEA7C6CB457D5476Bca",
      "gasPrice": {
        "_hex": "0xba43b7400"
      },
      "gasLimit": {
        "_hex": "0x55f0"
      },
      "to": "0xaaDE52902e3D88e6174ABe35E042947601413988",
      "value": {
        "_hex": "0x1e7f2884b4f62238"
      },
      "nonce": 6034,
      "data": "0x",
      "r": "0x399f674c22226b8cfb5713a25380b01cf0576f1d0059562012a7765dbb5d0794",
      "s": "0x33a0c1623a2f738b1dc838262426efd0ec506fb0a67fee5157879569f3b0596e",
      "v": 27,
      "creates": null,
      "raw": "0xf86e821792850ba43b74008255f094aade52902e3d88e6174abe35e042947601413988881e7f2884b4f62238801ba0399f674c22226b8cfb5713a25380b01cf0576f1d0059562012a7765dbb5d0794a033a0c1623a2f738b1dc838262426efd0ec506fb0a67fee5157879569f3b0596e",
      "networkId": 0,
      "chainId": 0
    },
    {
      "hash": "0xd5e8d2363a67b5dce53e378cd92bc8e7677d14ec28299725c28c80690a2c80c6",
      "blockHash": "0x8253672be4980f9d91f33b52139639cfcc06e14d61148a718e0b3b3cad4df834",
      "blockNumber": 119333,
      "transactionIndex": 1,
      "confirmations": null,
      "from": "0xe6A7a1d47ff21B6321162AEA7C6CB457D5476Bca",
      "gasPrice": {
        "_hex": "0xba43b7400"
      },
      "gasLimit": {
        "_hex": "0x55f0"
      },
      "to": "0x0f7E5465DB8bC57940471E530a83Fb7Ac5b82d7f",
      "value": {
        "_hex": "0x1e9c932385c0f818"
      },
      "nonce": 6035,
      "data": "0x",
      "r": "0xb80e9c8679d0562c405838c3afd530d1618f53b69c527e049c8396830585e794",
      "s": "0x3c5c6e9dbdd19b2223275d546396284f1ce1d8fe59cee9a51627affa8d751db6",
      "v": 27,
      "creates": null,
      "raw": "0xf86e821793850ba43b74008255f0940f7e5465db8bc57940471e530a83fb7ac5b82d7f881e9c932385c0f818801ba0b80e9c8679d0562c405838c3afd530d1618f53b69c527e049c8396830585e794a03c5c6e9dbdd19b2223275d546396284f1ce1d8fe59cee9a51627affa8d751db6",
      "networkId": 0,
      "chainId": 0
    },
    {
      "hash": "0xec286d1c3e6d35e991adeff12a995f8f572320dda63f02b75d5cde109f2e3844",
      "blockHash": "0x8253672be4980f9d91f33b52139639cfcc06e14d61148a718e0b3b3cad4df834",
      "blockNumber": 119333,
      "transactionIndex": 2,
      "confirmations": null,
      "from": "0xe6A7a1d47ff21B6321162AEA7C6CB457D5476Bca",
      "gasPrice": {
        "_hex": "0xba43b7400"
      },
      "gasLimit": {
        "_hex": "0x55f0"
      },
      "to": "0xafa4dbAdd4e76B6C5946DFB726E5095516A96144",
      "value": {
        "_hex": "0x1ed40afd9051e7f4"
      },
      "nonce": 6036,
      "data": "0x",
      "r": "0x082fd2c3de3cd663a68bbe2c76dc3d432f1cc3447326767fc80cf4d2be5a2052",
      "s": "0x23c0714d89a9707d8cd9d6bc93b22d6f6129cc8bf0a97725857c88a3410d4caf",
      "v": 27,
      "creates": null,
      "raw": "0xf86e821794850ba43b74008255f094afa4dbadd4e76b6c5946dfb726e5095516a96144881ed40afd9051e7f4801ba0082fd2c3de3cd663a68bbe2c76dc3d432f1cc3447326767fc80cf4d2be5a2052a023c0714d89a9707d8cd9d6bc93b22d6f6129cc8bf0a97725857c88a3410d4caf",
      "networkId": 0,
      "chainId": 0
    }
  ]
}