{
  "hash": "0xf3dac4becb19b1c18c98957b8913f93bf81aa5718cbba85cef9051155b034e89",
  "parentHash": "0x309e93ed94ba929ded4250764ea13c5571b40904e959de9c5e1d65d7c54245ee",
  "number": 72596,
  "timestamp": 1439355193,
  "nonce": "0x5685b0af6e261414",
  "difficulty": 2198292219111,
  "gasLimit": {
    "_hex": "0x2fefd8"
  },
  "gasUsed": {
    "_hex": "0x5208"
  },
  "miner": "0x67573F9d88Ed6dC2049976ED05a90141840D5B5E",
  "extraData": "0x457769676520426c756d656e6b7261667421",
  "transactions": [
    {
      "hash": "0xa420029fea81a2f1544467a1b57d7c024741d9bce5425b8ae0140a9b0364f6d8",
      "blockHash": "0xf3dac4becb19b1c18c98957b8913f93bf81aa5718cbba85cef9051155b034e89",
      "blockNumber": 72596,
      "transactionIndex": 0,
      "confirmations": null,
      "from": "0x6A8CC233E14F874983bB2F37D1DE706f6910Ef0b",
      "gasPrice": {
        "_hex": "0xd156dede0"
      },
      "gasLimit": {
        "_hex": "0x5208"
      },
      "to": "0x32Be343B94f860124dC4fEe278FDCBD38C102D88",
      "value": {
        "_hex": "0x45634e6dd860b0000"
      },
      "nonce": 2,
      "data": "0x",
      "r": "0x389e48eaa529ea699dbee7bfd88679a1164ddba030c48ef2ec6ffbbfff5e98f6",
      "s": "0x16ea2665fb8fbe9f24e054e80c4884999ff91214c4328317bd9867e02e5a7019",
      "v": 27,
      "creates": null,
      "raw": "0xf86d02850d156dede08252089432be343b94f860124dc4fee278fdcbd38c102d8889045634e6dd860b0000801ba0389e48eaa529ea699dbee7bfd88679a1164ddba030c48ef2ec6ffbbfff5e98f6a016ea2665fb8fbe9f24e054e80c4884999ff91214c4328317bd9867e02e5a7019",
      "networkId": 0,
      "chainId": 0
    }
  ]
}