{
  "hash": "0x67f1a86635460cd0ec0bbf81e29cdb08a4347fa54330f9a74dbd0a720ce0af86",
  "parentHash": "0x34b94f4f3553f21c9094d81f276444de5429c39360f0a0c5cf6f800ccbc8202b",
  "number": 70624,
  "timestamp": 1439322910,
  "nonce": "0x46fc318c1aee3130",
  "difficulty": 2145777185921,
  "gasLimit": {
    "_hex": "0x2fefd8"
  },
  "gasUsed": {
    "_hex": "0x5208"
  },
  "miner": "0x70C6b45fe0A5116E97B112B806A76E2F51E24413",
  "extraData": "0x476574682f76312e302e312f77696e646f77732f676f312e342e32",
  "transactions": [
    {
      "hash": "0x9624d13eabad5c092b3684bc8334fdd3a32489ddc9368d474218d307e679fa7e",
      "blockHash": "0x67f1a86635460cd0ec0bbf81e29cdb08a4347fa54330f9a74dbd0a720ce0af86",
      "blockNumber": 70624,
      "transactionIndex": 0,
      "confirmations": null,
      "from": "0xC2475783aaECE3d0BeA2CAd36E2fD7443547b7cc",
      "gasPrice": {
        "_hex": "0xd14fb9a2c"
      },
      "gasLimit": {
        "_hex": "0x5208"
      },
      "to": "0x32Be343B94f860124dC4fEe278FDCBD38C102D88",
      "value": {
        "_hex": "0xe950a062c23bd0000"
      },
      "nonce": 0,
      "data": "0x",
      "r": "0xae613fbc83eaab0ee318929804a44e0f21c7138cd303a3f3af534f3caf9aac1a",
      "s": "0x65d7390c70c593ef29588b21891a468694b75ea09e3e859f796faeeb90730f20",
      "v": 28,
      "creates": null,
      "raw": "0xf86d80850d14fb9a2c8252089432be343b94f860124dc4fee278fdcbd38c102d88890e950a062c23bd0000801ca0ae613fbc83eaab0ee318929804a44e0f21c7138cd303a3f3af534f3caf9aac1aa065d7390c70c593ef29588b21891a468694b75ea09e3e859f796faeeb90730f20",
      "networkId": 0,
      "chainId": 0
    }
  ]
}