{
  "hash": "0x49e02b5216081917e32c0fbc3e0773c1e4db8066f213f932924f71444dfc748b",
  "parentHash": "0x0ad333dea2a21af373a67d5de746ace794797134ae1f03ae5b51d28bf7fa5e05",
  "number": 94498,
  "timestamp": 1439709415,
  "nonce": "0x6eb47152f6718adf",
  "difficulty": 3483231776675,
  "gasLimit": {
    "_hex": "0x2fefd8"
  },
  "gasUsed": {
    "_hex": "0xa410"
  },
  "miner": "0xe6A7a1d47ff21B6321162AEA7C6CB457D5476Bca",
  "extraData": "0x476574682f76312e302e312d38326566323666362f6c696e75782f676f312e34",
  "transactions": [
    {
      "hash": "0x69303ea95d9df07837870264bfec1d759daaa9990718f0fac40cd87e10f8edc0",
      "blockHash": "0x49e02b5216081917e32c0fbc3e0773c1e4db8066f213f932924f71444dfc748b",
      "blockNumber": 94498,
      "transactionIndex": 0,
      "confirmations": null,
      "from": "0x120A270bbC009644e35F0bB6ab13f95b8199c4ad",
      "gasPrice": {
        "_hex": "0xdb7c56d8c"
      },
      "gasLimit": {
        "_hex": "0x3d090"
      },
      "to": "0xCA092A957744f6385B1aee5dC694143E8A06F805",
      "value": {
        "_hex": "0xd02ab486cedc0000"
      },
      "nonce": 582,
      "data": "0x",
      "r": "0xa2aaa582782a9dd59d1656bf7d5bfd4bd66452a3e0dccff43ad43ab30ee4b005",
      "s": "0x4d82896bebabb52c9733d679f4ff433af2338d9e84c04a24a0a3828b1c085482",
      "v": 27,
      "creates": null,
      "raw": "0xf86f820246850db7c56d8c8303d09094ca092a957744f6385b1aee5dc694143e8a06f80588d02ab486cedc0000801ba0a2aaa582782a9dd59d1656bf7d5bfd4bd66452a3e0dccff43ad43ab30ee4b005a04d82896bebabb52c9733d679f4ff433af2338d9e84c04a24a0a3828b1c085482",
      "networkId": 0,
      "chainId": 0
    },
    {
      "hash": "0xb5bbfcc26db390b39b2e6baeeb1e8635474de7e2dea277813aeec061923293e1",
      "blockHash": "0x49e02b5216081917e32c0fbc3e0773c1e4db8066f213f932924f71444dfc748b",
      "blockNumber": 94498,
      "transactionIndex": 1,
      "confirmations": null,
      "from": "0x120A270bbC009644e35F0bB6ab13f95b8199c4ad",
      "gasPrice": {
        "_hex": "0xdb7c56d8c"
      },
      "gasLimit": {
        "_hex": "0x3d090"
      },
      "to": "0x657a04FeFfb4412AA72aEe9c4d23918A998B3DF3",
      "value": {
        "_hex": "0x17cf4d8371fe6400"
      },
      "nonce": 583,
      "data": "0x",
      "r": "0xc594ce1c2421f386388d8dc3a4e8730af07d22a0f8447bb3299bcb175def4417",
      "s": "0x7bb3973f07140229aedd3737950ac0ddbe0869a4eee7fa713b58c091519d7d36",
      "v": 28,
      "creates": null,
      "raw": "0xf86f820247850db7c56d8c8303d09094657a04feffb4412aa72aee9c4d23918a998b3df38817cf4d8371fe6400801ca0c594ce1c2421f386388d8dc3a4e8730af07d22a0f8447bb3299bcb175def4417a07bb3973f07140229aedd3737950ac0ddbe0869a4eee7fa713b58c091519d7d36",
      "networkId": 0,
      "chainId": 0
    }
  ]
}