{
  "hash": "0x8ab177eda146c44dddf47cabf58109b0c8b7c9dd631e9b81b2035ccb5c3bb274",
  "parentHash": "0x98196cbe794215e55e6eeef61606718790e8eea26cc1c57475975581cd37886e",
  "number": 86157,
  "timestamp": 1439574346,
  "nonce": "0xd55e89b27ee9156e",
  "difficulty": 2805746640791,
  "gasLimit": {
    "_hex": "0x2fefd8"
  },
  "gasUsed": {
    "_hex": "0xa410"
  },
  "miner": "0xe6A7a1d47ff21B6321162AEA7C6CB457D5476Bca",
  "extraData": "0x476574682f76312e302e312d38326566323666362f6c696e75782f676f312e34",
  "transactions": [
    {
      "hash": "0xd36fd3638377daa7b8d45834854bf5cd5857b846a0c8db7110fbd157450c2a6b",
      "blockHash": "0x8ab177eda146c44dddf47cabf58109b0c8b7c9dd631e9b81b2035ccb5c3bb274",
      "blockNumber": 86157,
      "transactionIndex": 0,
      "confirmations": null,
      "from": "0xdEC7d1B05f89c0Ce0870Ea4AeA18138264675478",
      "gasPrice": {
        "_hex": "0xd489ad54f"
      },
      "gasLimit": {
        "_hex": "0x5208"
      },
      "to": "0x32Be343B94f860124dC4fEe278FDCBD38C102D88",
      "value": {
        "_hex": "0x95d960c3e87c200000"
      },
      "nonce": 7,
      "data": "0x",
      "r": "0x25ad9667ab9303ab2f34875f5a1aa1aa24a5d6a01380d6012d18dd7304954458",
      "s": "0x389c2e1759924c37a912cf139fab31a221928e7ef44094bdaacb4f71f7fbdc96",
      "v": 28,
      "creates": null,
      "raw": "0xf86d07850d489ad54f8252089432be343b94f860124dc4fee278fdcbd38c102d888995d960c3e87c200000801ca025ad9667ab9303ab2f34875f5a1aa1aa24a5d6a01380d6012d18dd7304954458a0389c2e1759924c37a912cf139fab31a221928e7ef44094bdaacb4f71f7fbdc96",
      "networkId": 0,
      "chainId": 0
    },
    {
      "hash": "0x6a4ed921efffcb31597897ac61d17151fbc6a4a199fe8cecc4ba6062827760ad",
      "blockHash": "0x8ab177eda146c44dddf47cabf58109b0c8b7c9dd631e9b81b2035ccb5c3bb274",
      "blockNumber": 86157,
      "transactionIndex": 1,
      "confirmations": null,
      "from": "0x5c59E28366c83f1d262567c1c529185146e68b16",
      "gasPrice": {
        "_hex": "0xd489ad54f"
      },
      "gasLimit": {
        "_hex": "0x5208"
      },
      "to": "0x32Be343B94f860124dC4fEe278FDCBD38C102D88",
      "value": {
        "_hex": "0x3635b39d8e61440000"
      },
      "nonce": 5,
      "data": "0x",
      "r": "0x92aa0a01690528d649d8010ff3134ffaf217c22b562cc002dd46035f3e93715a",
      "s": "0x417c68e5f7775d49e4fef6bb1e70a3dcc41c67fc3c9196400260b514ce1ddecb",
      "v": 28,
      "creates": null,
      "raw": "0xf86d05850d489ad54f8252089432be343b94f860124dc4fee278fdcbd38c102d88893635b39d8e61440000801ca092aa0a01690528d649d8010ff3134ffaf217c22b562cc002dd46035f3e93715aa0417c68e5f7775d49e4fef6bb1e70a3dcc41c67fc3c9196400260b514ce1ddecb",
      "networkId": 0,
      "chainId": 0
    }
  ]
}