{
  "hash": "0x763c87e1f65f90df46c7f807741d2b4ce4335a3e5807be277de7c85ed745ae5f",
  "parentHash": "0x428ee06fe1d1304a7bdcd7888fa852b0d2a255dc6789f7084870b559d0a5b810",
  "number": 49531,
  "timestamp": 1438974954,
  "nonce": "0x1593c5c44002164f",
  "difficulty": 1476318397755,
  "gasLimit": {
    "_hex": "0x34990"
  },
  "gasUsed": {
    "_hex": "0x546c"
  },
  "miner": "0xe6A7a1d47ff21B6321162AEA7C6CB457D5476Bca",
  "extraData": "0x657468706f6f6c2e6f7267",
  "transactions": [
    {
      "hash": "0x7367fa1adf43e932a4b4f23bb4987d812a86f5da495491d2b89d96088234e300",
      "blockHash": "0x763c87e1f65f90df46c7f807741d2b4ce4335a3e5807be277de7c85ed745ae5f",
      "blockNumber": 49531,
      "transactionIndex": 0,
      "confirmations": null,
      "from": "0x5A192B964AfD80773E5F5eDA6A56f14E25E0c6f3",
      "gasPrice": {
        "_hex": "0x110c8f7d8de"
      },
      "gasLimit": {
        "_hex": "0xc350"
      },
      "to": "0x2910543Af39abA0Cd09dBb2D50200b3E800A63D2",
      "value": {
        "_hex": "0x1ad5814560aa5c0000"
      },
      "nonce": 0,
      "data": "0x454e305a5743323730",
      "r": "0x4b20bc89ff944ea18f4632d54f0b506e598ca049ac5dff91a3e913b9eda0d623",
      "s": "0x7325f34338fb2ad509c293a395ddf07602bc9e3be390ebe89815c31a2de71744",
      "v": 27,
      "creates": null,
      "raw": "0xf87780860110c8f7d8de82c350942910543af39aba0cd09dbb2d50200b3e800a63d2891ad5814560aa5c000089454e305a57433237301ba04b20bc89ff944ea18f4632d54f0b506e598ca049ac5dff91a3e913b9eda0d623a07325f34338fb2ad509c293a395ddf07602bc9e3be390ebe89815c31a2de71744",
      "networkId": 0,
      "chainId": 0
    }
  ]
}