{
  "hash": "0x6e26485240e5fa58d92a42b4a1ccd6dc98988f728003d1e3f97273d700603804",
  "parentHash": "0xdb89061f0749f43842333e38f10ee6289e39359b18cb51eaa5fe7340417ae927",
  "number": 47467,
  "timestamp": 1438940946,
  "nonce": "0x6f7665d27a1e379d",
  "difficulty": 1450951199722,
  "gasLimit": {
    "_hex": "0xc1cf"
  },
  "gasUsed": {
    "_hex": "0x5208"
  },
  "miner": "0x40dDAE161B79aaebeb68187233fe59bd3B1c2db2",
  "extraData": "0x476574682f76312e302e312f77696e646f77732f676f312e342e32",
  "transactions": [
    {
      "hash": "0x5aa331ddd85a7354ded6c9293037cda31870fbbb8fdbfd5ea2de90031d86cd62",
      "blockHash": "0x6e26485240e5fa58d92a42b4a1ccd6dc98988f728003d1e3f97273d700603804",
      "blockNumber": 47467,
      "transactionIndex": 0,
      "confirmations": null,
      "from": "0x256A6D2Ae68632a3c99b66d792C13330842476d7",
      "gasPrice": {
        "_hex": "0xba43b7400"
      },
      "gasLimit": {
        "_hex": "0x5208"
      },
      "to": "0x139339dC645C59F787a6f65bCA069478f958167C",
      "value": {
        "_hex": "0xde0b6b3a7640000"
      },
      "nonce": 2,
      "data": "0x",
      "r": "0x4a1fab7873f1f6fddf8e4850cc56198022cf1d72af42b6070dbb469a9a99da2b",
      "s": "0x28db9391bcab32e1633e7485cf19d314c7383d7ffcc0c2bd5918e6c2904ef06d",
      "v": 28,
      "creates": null,
      "raw": "0xf86c02850ba43b740082520894139339dc645c59f787a6f65bca069478f958167c880de0b6b3a7640000801ca04a1fab7873f1f6fddf8e4850cc56198022cf1d72af42b6070dbb469a9a99da2ba028db9391bcab32e1633e7485cf19d314c7383d7ffcc0c2bd5918e6c2904ef06d",
      "networkId": 0,
      "chainId": 0
    }
  ]
}