{
  "hash": "0xc130df6d5a07d0df888eaf257c386ed5a6d4440a78e50674121e2f1c0b56552f",
  "parentHash": "0x65289034b5ab0dc433a58f4e7963af0dfe1921241283f53769260a3dc791025b",
  "number": 110172,
  "timestamp": 1439969268,
  "nonce": "0x7eca845a60404bc6",
  "difficulty": 4377863482209,
  "gasLimit": {
    "_hex": "0x2fefd8"
  },
  "gasUsed": {
    "_hex": "0x5208"
  },
  "miner": "0xe6A7a1d47ff21B6321162AEA7C6CB457D5476Bca",
  "extraData": "0x476574682f76312e302e312d38326566323666362f6c696e75782f676f312e34",
  "transactions": [
    {
      "hash": "0xc9bc924b4044548283b906727d85af9ecf6ed07f35fe3d2246ea1a8db5bd91c4",
      "blockHash": "0xc130df6d5a07d0df888eaf257c386ed5a6d4440a78e50674121e2f1c0b56552f",
      "blockNumber": 110172,
      "transactionIndex": 0,
      "confirmations": null,
      "from": "0x007f7f58D3eb5b7510A301eCC749FC1fCDDBE14D",
      "gasPrice": {
        "_hex": "0xd382b0b9c"
      },
      "gasLimit": {
        "_hex": "0x15f90"
      },
      "to": "0xb1abce2918E21ddb93AA452731a12672A3d9F75a",
      "value": {
        "_hex": "0x4563918244f40000"
      },
      "nonce": 282,
      "data": "0x",
      "r": "0xc3a595a151d5aff12fb0d414e907a50581c8815e0a0d0a064993fa9f7ad0fac2",
      "s": "0x5365cf3c24f9e7b2ef5a7aaae4eebb26d4e067f6a2e098a00a9c2b7867f0f284",
      "v": 27,
      "creates": null,
      "raw": "0xf86f82011a850d382b0b9c83015f9094b1abce2918e21ddb93aa452731a12672a3d9f75a884563918244f40000801ba0c3a595a151d5aff12fb0d414e907a50581c8815e0a0d0a064993fa9f7ad0fac2a05365cf3c24f9e7b2ef5a7aaae4eebb26d4e067f6a2e098a00a9c2b7867f0f284",
      "networkId": 0,
      "chainId": 0
    }
  ]
}