{
  "hash": "0xe32fbe9da28b68ba7453d8b426533587803722f1769cf83ff11aaa178995224e",
  "parentHash": "0xf5fe5afbf0ad55d555874ebfa56e6e2e4f5eba66db6aab13592921ecd45cc3d8",
  "number": 66622,
  "timestamp": 1439257637,
  "nonce": "0xf2d56969143d6985",
  "difficulty": 1945163560864,
  "gasLimit": {
    "_hex": "0x2fefd8"
  },
  "gasUsed": {
    "_hex": "0x546c"
  },
  "miner": "0x47ff6576639c2e94762eA5443978D7681C0E78DC",
  "extraData": "0x476574682f76312e302e312f6c696e75782f676f312e342e32",
  "transactions": [
    {
      "hash": "0x579deb7135f2a5140be800216b9ba4f607177ef21357fb5de686128d9be88c14",
      "blockHash": "0xe32fbe9da28b68ba7453d8b426533587803722f1769cf83ff11aaa178995224e",
      "blockNumber": 66622,
      "transactionIndex": 0,
      "confirmations": null,
      "from": "0xF5d14552B1dCe0d6dc1F320da6FFc8A331cd6f0C",
      "gasPrice": {
        "_hex": "0xcfa32ee97"
      },
      "gasLimit": {
        "_hex": "0x55f0"
      },
      "to": "0x2910543Af39abA0Cd09dBb2D50200b3E800A63D2",
      "value": {
        "_hex": "0x56bc75e2d63100000"
      },
      "nonce": 0,
      "data": "0x454e37445433383552",
      "r": "0x552faedfa43651852cfe94d1a2eaf637a83d42655ff427485a25b7d69fb96dff",
      "s": "0x0bb729e569b1abbce77656f28705d4e973957e95fcd8d3eadeb95d3231cef680",
      "v": 27,
      "creates": null,
      "raw": "0xf87680850cfa32ee978255f0942910543af39aba0cd09dbb2d50200b3e800a63d289056bc75e2d6310000089454e374454333835521ba0552faedfa43651852cfe94d1a2eaf637a83d42655ff427485a25b7d69fb96dffa00bb729e569b1abbce77656f28705d4e973957e95fcd8d3eadeb95d3231cef680",
      "networkId": 0,
      "chainId": 0
    }
  ]
}