{
  "hash": "0x5f866b22334a2c394b714ea63de88b7054abcc74f0d4d7458b66dd0b6694e3d0",
  "parentHash": "0xebf62577e2247dadf2221ee880605d4dea51ac0b9cbb0d524ad400526a6bcdba",
  "number": 110349,
  "timestamp": 1439972301,
  "nonce": "0x5d465c086f0245ca",
  "difficulty": 4358575066282,
  "gasLimit": {
    "_hex": "0x2fefd8"
  },
  "gasUsed": {
    "_hex": "0x19a28"
  },
  "miner": "0xe6A7a1d47ff21B6321162AEA7C6CB457D5476Bca",
  "extraData": "0x476574682f76312e302e312d38326566323666362f6c696e75782f676f312e34",
  "transactions": [
    {
      "hash": "0xe8257a91cda27f0807c039a116004daa86f400f3a23c3a3556a542e8c23dfe93",
      "blockHash": "0x5f866b22334a2c394b714ea63de88b7054abcc74f0d4d7458b66dd0b6694e3d0",
      "blockNumber": 110349,
      "transactionIndex": 0,
      "confirmations": null,
      "from": "0xe6A7a1d47ff21B6321162AEA7C6CB457D5476Bca",
      "gasPrice": {
        "_hex": "0xd3eb6bbb5"
      },
      "gasLimit": {
        "_hex": "0x55f0"
      },
      "to": "0xBa9CF76D809cF9f2e3f180AFb33f0adb0826D7DF",
      "value": {
        "_hex": "0x23ce60ff99cfa8f50"
      },
      "nonce": 4533,
      "data": "0x",
      "r": "0x12b371a4a73639b6c1645ac9c6f7370b60f8d1eed7cb05c4238f976481266db4",
      "s": "0x173cb083c5742443557981b1819fca8de351d20cbebade9f277a6abf527a2151",
      "v": 28,
      "creates": null,
      "raw": "0xf86f8211b5850d3eb6bbb58255f094ba9cf76d809cf9f2e3f180afb33f0adb0826d7df89023ce60ff99cfa8f50801ca012b371a4a73639b6c1645ac9c6f7370b60f8d1eed7cb05c4238f976481266db4a0173cb083c5742443557981b1819fca8de351d20cbebade9f277a6abf527a2151",
      "networkId": 0,
      "chainId": 0
    },
    {
      "hash": "0x7e17d9d5fb5f6e803ee6d3db90d6d3dd802b57b5bd87957d2362bae0bc17e8bb",
      "blockHash": "0x5f866b22334a2c394b714ea63de88b7054abcc74f0d4d7458b66dd0b6694e3d0",
      "blockNumber": 110349,
      "transactionIndex": 1,
      "confirmations": null,
      "from": "0xe6A7a1d47ff21B6321162AEA7C6CB457D5476Bca",
      "gasPrice": {
        "_hex": "0xd1e5dcbde"
      },
      "gasLimit": {
        "_hex": "0x55f0"
      },
      "to": "0xb3395f0a13448d9A660aC4aB2aBBC61F555f3656",
      "value": {
        "_hex": "0x244931d5d5bccecf0"
      },
      "nonce": 4534,
      "data": "0x",
      "r": "0x95481e1b2e5816ccf9e6bb4698c1f76e76ceeeadb5958b6db90a539311e4a7de",
      "s": "0x2f9de61262c49f12ef42025f6df8f37127da85b48b5b8e24687621b251a560e2",
      "v": 27,
      "creates": null,
      "raw": "0xf86f8211b6850d1e5dcbde8255f094b3395f0a13448d9a660ac4ab2abbc61f555f3656890244931d5d5bccecf0801ba095481e1b2e5816ccf9e6bb4698c1f76e76ceeeadb5958b6db90a539311e4a7dea02f9de61262c49f12ef42025f6df8f37127da85b48b5b8e24687621b251a560e2",
      "networkId": 0,
      "chainId": 0
    },
    {
      "hash": "0x7c54278d1fd045ae48eeed52e5b3deb6dcb14cddb2a7131e65031cbaf0886b07",
      "blockHash": "0x5f866b22334a2c394b714ea63de88b7054abcc74f0d4d7458b66dd0b6694e3d0",
      "blockNumber": 110349,
      "transactionIndex": 2,
      "confirmations": null,
      "from": "0xe6A7a1d47ff21B6321162AEA7C6CB457D5476Bca",
      "gasPrice": {
        "_hex": "0xd1e5dcbde"
      },
      "gasLimit": {
        "_hex": "0x55f0"
      },
      "to": "0x2D1d94521E896625F8Ec3f65171Fa82262Da6BCF",
      "value": {
        "_hex": "0x244e84d8d2ebb9d50"
      },
      "nonce": 4535,
      "data": "0x",
      "r": "0xf3a3cf0ec143c6bf69a53c0d9678e659fbef730fe3379da5dcb381ef6c12b971",
      "s": "0x3aec0800b37af58e250bdd59e5caf31c449eb0ba8b1b2a76b0145e33b50501cd",
      "v": 28,
      "creates": null,
      "raw": "0xf86f8211b7850d1e5dcbde8255f0942d1d94521e896625f8ec3f65171fa82262da6bcf890244e84d8d2ebb9d50801ca0f3a3cf0ec143c6bf69a53c0d9678e659fbef730fe3379da5dcb381ef6c12b971a03aec0800b37af58e250bdd59e5caf31c449eb0ba8b1b2a76b0145e33b50501cd",
      "networkId": 0,
      "chainId": 0
    },
    {
      "hash": "0xbb5ec905542fdd01913a3c5b72f2566da5a6f652685980c42ab8bc9302b52e28",
      "blockHash": "0x5f866b22334a2c394b714ea63de88b7054abcc74f0d4d7458b66dd0b6694e3d0",
      "blockNumber": 110349,
      "transactionIndex": 3,
      "confirmations": null,
      "from": "0xc544B25bb91b87e380dda392687c6216b0260671",
      "gasPrice": {
        "_hex": "0xcc5d48276"
      },
      "gasLimit": {
        "_hex": "0x5208"
      },
      "to": "0x32Be343B94f860124dC4fEe278FDCBD38C102D88",
      "value": {
        "_hex": "0x3d5eed1554f76000"
      },
      "nonce": 10,
      "data": "0x",
      "r": "0x1f8ce04b3427a82b4c55a253258592722f42840d33a1bc7fa268e8d03b2bae70",
      "s": "0x7ded721c65c6a3f975e0262aa03b0ce964281845e8ec3037ec1a61f67366f3a4",
      "v": 28,
      "creates": null,
      "raw": "0xf86c0a850cc5d482768252089432be343b94f860124dc4fee278fdcbd38c102d88883d5eed1554f76000801ca01f8ce04b3427a82b4c55a253258592722f42840d33a1bc7fa268e8d03b2bae70a07ded721c65c6a3f975e0262aa03b0ce964281845e8ec3037ec1a61f67366f3a4",
      "networkId": 0,
      "chainId": 0
    },
    {
      "hash": "0xc84d48752eb8bffabe0309d6ea2bd34114688e25d98e366504368cd9ec77934e",
      "blockHash": "0x5f866b22334a2c394b714ea63de88b7054abcc74f0d4d7458b66dd0b6694e3d0",
      "blockNumber": 110349,
      "transactionIndex": 4,
      "confirmations": null,
      "from": "0xB89C0F465b0472fa5A58eCDd01eD937205ae4d06",
      "gasPrice": {
        "_hex": "0xcc5d48276"
      },
      "gasLimit": {
        "_hex": "0x5208"
      },
      "to": "0x32Be343B94f860124dC4fEe278FDCBD38C102D88",
      "value": {
        "_hex": "0x4163dc10d45b2000"
      },
      "nonce": 9,
      "data": "0x",
      "r": "0x3a6812914d543ff1c65dbbfc5ec1cf971ffc0447cf82b0aa6b2f94c6e4703305",
      "s": "0x34351959ea65cab1a8f827c3e1a0d8ec7014799df56be95b4b5d88ffb89c4cfe",
      "v": 27,
      "creates": null,
      "raw": "0xf86c09850cc5d482768252089432be343b94f860124dc4fee278fdcbd38c102d88884163dc10d45b2000801ba03a6812914d543ff1c65dbbfc5ec1cf971ffc0447cf82b0aa6b2f94c6e4703305a034351959ea65cab1a8f827c3e1a0d8ec7014799df56be95b4b5d88ffb89c4cfe",
      "networkId": 0,
      "chainId": 0
    }
  ]
}