{
  "hash": "0x03581e36c4f3b946692df31fe7d1eaa92b93aa14f704f6b153f988a14e88f769",
  "parentHash": "0x3afd95656723b91009c67e4d779570ccefcb92ea5ce70cfa272d6013a9cfb68e",
  "number": 96409,
  "timestamp": 1439739951,
  "nonce": "0xe51309cbf188ac47",
  "difficulty": 3662059514549,
  "gasLimit": {
    "_hex": "0x2fefd8"
  },
  "gasUsed": {
    "_hex": "0x19427"
  },
  "miner": "0xe6A7a1d47ff21B6321162AEA7C6CB457D5476Bca",
  "extraData": "0x476574682f76312e302e312d38326566323666362f6c696e75782f676f312e34",
  "transactions": [
    {
      "hash": "0xe3f00d4e476fb0c61304b8f65d2be17491435d8990c30377e2785ab45275fb57",
      "blockHash": "0x03581e36c4f3b946692df31fe7d1eaa92b93aa14f704f6b153f988a14e88f769",
      "blockNumber": 96409,
      "transactionIndex": 0,
      "confirmations": null,
      "from": "0x67518E5D02b205180f0463A32004471F753C523E",
      "gasPrice": {
        "_hex": "0x110c8f7d8de"
      },
      "gasLimit": {
        "_hex": "0xc350"
      },
      "to": "0x2910543Af39abA0Cd09dBb2D50200b3E800A63D2",
      "value": {
        "_hex": "0x1bc16d674ec80000"
      },
      "nonce": 0,
      "data": "0x454e515a5741323630",
      "r": "0xd1c9c7cc2a426c2eb4e6eae8d63b5d17f676bf1732549b83309bbe30eedf7db6",
      "s": "0xc3fe14bc421a20abd0792d1e1c209109d43870097622331f961b998b09edfb0c",
      "v": 28,
      "creates": null,
      "raw": "0xf87680860110c8f7d8de82c350942910543af39aba0cd09dbb2d50200b3e800a63d2881bc16d674ec8000089454e515a57413236301ca0d1c9c7cc2a426c2eb4e6eae8d63b5d17f676bf1732549b83309bbe30eedf7db6a0c3fe14bc421a20abd0792d1e1c209109d43870097622331f961b998b09edfb0c",
      "networkId": 0,
      "chainId": 0
    },
    {
      "hash": "0xa6b5a31cbc29b6a54f5e046cf5af6e6ea1ecc184ae149d555f5e1cc153ecb0e1",
      "blockHash": "0x03581e36c4f3b946692df31fe7d1eaa92b93aa14f704f6b153f988a14e88f769",
      "blockNumber": 96409,
      "transactionIndex": 1,
      "confirmations": null,
      "from": "0xa14Cf6cEC1c6aAe4b608458F6e14692863A937Aa",
      "gasPrice": {
        "_hex": "0xda29f69e9"
      },
      "gasLimit": {
        "_hex": "0x61a80"
      },
      "to": "0x580E45f982a0A01cFab3B36B3Ec8Df63fcc5D290",
      "value": {
        "_hex": "0x0"
      },
      "nonce": 29,
      "data": "0x2e1a7d4d000000000000000000000000000000000000000000000001158e460913d00000",
      "r": "0xe3fe605ccc830bd64aa2257ac0360a749d82bd1b900bd0b08f0444b576d297b8",
      "s": "0x02b00de450ca3429571108737a23d817eb7e46a3410ca3aeab8fa1b6b9dedcf1",
      "v": 28,
      "creates": null,
      "raw": "0xf8891d850da29f69e983061a8094580e45f982a0a01cfab3b36b3ec8df63fcc5d29080a42e1a7d4d000000000000000000000000000000000000000000000001158e460913d000001ca0e3fe605ccc830bd64aa2257ac0360a749d82bd1b900bd0b08f0444b576d297b8a002b00de450ca3429571108737a23d817eb7e46a3410ca3aeab8fa1b6b9dedcf1",
      "networkId": 0,
      "chainId": 0
    },
    {
      "hash": "0xc0241074134849ecadf9f76c6aa9f0e774619fb3ff0aaa0a2ac3b6450aa64046",
      "blockHash": "0x03581e36c4f3b946692df31fe7d1eaa92b93aa14f704f6b153f988a14e88f769",
      "blockNumber": 96409,
      "transactionIndex": 2,
      "confirmations": null,
      "from": "0xb1abce2918E21ddb93AA452731a12672A3d9F75a",
      "gasPrice": {
        "_hex": "0xd7384914d"
      },
      "gasLimit": {
        "_hex": "0x5208"
      },
      "to": "0x32Be343B94f860124dC4fEe278FDCBD38C102D88",
      "value": {
        "_hex": "0x455f37f115fba800"
      },
      "nonce": 56,
      "data": "0x",
      "r": "0x436f39fcbc924e6053668c5632cd893df25633716751585edfdfff522d1c513d",
      "s": "0x300b4a5212dae382f76b883c6241536a8d87e8cdf5c9868b412d8224d4bb2167",
      "v": 27,
      "creates": null,
      "raw": "0xf86c38850d7384914d8252089432be343b94f860124dc4fee278fdcbd38c102d8888455f37f115fba800801ba0436f39fcbc924e6053668c5632cd893df25633716751585edfdfff522d1c513da0300b4a5212dae382f76b883c6241536a8d87e8cdf5c9868b412d8224d4bb2167",
      "networkId": 0,
      "chainId": 0
    },
    {
      "hash": "0x90474149d8e60d81671b833359e50dcb09e6669a376dfddb1b44a6f4720a7f9a",
      "blockHash": "0x03581e36c4f3b946692df31fe7d1eaa92b93aa14f704f6b153f988a14e88f769",
      "blockNumber": 96409,
      "transactionIndex": 3,
      "confirmations": null,
      "from": "0x4D67f4F0Db45b3B5a3424B39ed8d972F710381D5",
      "gasPrice": {
        "_hex": "0xd7384914d"
      },
      "gasLimit": {
        "_hex": "0x5208"
      },
      "to": "0x32Be343B94f860124dC4fEe278FDCBD38C102D88",
      "value": {
        "_hex": "0x33f433d3812c3a000"
      },
      "nonce": 10,
      "data": "0x",
      "r": "0xd5175259282f308cd91fbffb780edc62093adb92b38f257cfe8e2829d28c35f9",
      "s": "0x0a9ee45f40954b99f16f09c104a31fa618f2a03fbdfaee464b56497239dd2562",
      "v": 27,
      "creates": null,
      "raw": "0xf86d0a850d7384914d8252089432be343b94f860124dc4fee278fdcbd38c102d8889033f433d3812c3a000801ba0d5175259282f308cd91fbffb780edc62093adb92b38f257cfe8e2829d28c35f9a00a9ee45f40954b99f16f09c104a31fa618f2a03fbdfaee464b56497239dd2562",
      "networkId": 0,
      "chainId": 0
    }
  ]
}