{
  "hash": "0xc2491c12de5d3d1d5e08b0cd1e75efbae290cb96a2d82124377377d8d3644812",
  "parentHash": "0xc98b31ca5426b764305ee628497094f7b2613bfa1d918edff1f7ed7a8a58064f",
  "number": 102032,
  "timestamp": 1439831685,
  "nonce": "0x534cc158fcc559a4",
  "difficulty": 3920436681091,
  "gasLimit": {
    "_hex": "0x2fefd8"
  },
  "gasUsed": {
    "_hex": "0x5208"
  },
  "miner": "0x55bAf64fc9eAccFFd7Cc643BB61142E1C6ac093e",
  "extraData": "0x",
  "transactions": [
    {
      "hash": "0xcc4dfabe61398f177281726cc9f73ff5a3808ad20dcc96caf5fa92a3a8be2017",
      "blockHash": "0xc2491c12de5d3d1d5e08b0cd1e75efbae290cb96a2d82124377377d8d3644812",
      "blockNumber": 102032,
      "transactionIndex": 0,
      "confirmations": null,
      "from": "0x2910543Af39abA0Cd09dBb2D50200b3E800A63D2",
      "gasPrice": {
        "_hex": "0xde46606e6"
      },
      "gasLimit": {
        "_hex": "0x5208"
      },
      "to": "0x579ee090BddA9aEb223766f953F033bdF1A7c749",
      "value": {
        "_hex": "0xbed0b3eeaa20f8000"
      },
      "nonce": 980,
      "data": "0x",
      "r": "0x7605faa8bb46c428e33a99ba6a9ba8157fa908c0f5c1d486a07fcb4082db3632",
      "s": "0x482d1b4d515387d47bd4e00b92c4d3be77fad8db2aed5f02828af1b9ed036ad7",
      "v": 27,
      "creates": null,
      "raw": "0xf86f8203d4850de46606e682520894579ee090bdda9aeb223766f953f033bdf1a7c749890bed0b3eeaa20f8000801ba07605faa8bb46c428e33a99ba6a9ba8157fa908c0f5c1d486a07fcb4082db3632a0482d1b4d515387d47bd4e00b92c4d3be77fad8db2aed5f02828af1b9ed036ad7",
      "networkId": 0,
      "chainId": 0
    }
  ]
}