{
  "hash": "0xaea1f08bfacad46f09014472b06858c2e2e6d78e86153644adc62bf4684da6e5",
  "parentHash": "0x40fd43b1873a0f80024d4e5810d58b12b5ec4d2457f3aa44a53e9246968d691f",
  "number": 119759,
  "timestamp": 1440148333,
  "nonce": "0xf2a70cd579bee082",
  "difficulty": 4392122027828,
  "gasLimit": {
    "_hex": "0x2fefd8"
  },
  "gasUsed": {
    "_hex": "0x5208"
  },
  "miner": "0x580992B51e3925e23280EfB93d3047C82f17E038",
  "extraData": "0x",
  "transactions": [
    {
      "hash": "0xb0c6ae43c30da14e6ee437e861304d9afaa4e926c499f849ef15dc0686f441fa",
      "blockHash": "0xaea1f08bfacad46f09014472b06858c2e2e6d78e86153644adc62bf4684da6e5",
      "blockNumber": 119759,
      "transactionIndex": 0,
      "confirmations": null,
      "from": "0xB17d2bFef3ED5F2EaA806Fe930878F6eBfD31CCf",
      "gasPrice": {
        "_hex": "0xd4e3a98d1"
      },
      "gasLimit": {
        "_hex": "0x15f90"
      },
      "to": "0x5BB33B0e16f8a05C5124c33418922C5b1Be8F810",
      "value": {
        "_hex": "0xe5665b6b99350000"
      },
      "nonce": 6,
      "data": "0x",
      "r": "0xed765acbd65c3236dc24ec5f0733b40e4d430cebd23fa63718bfd5ed1f74e5a7",
      "s": "0x6afae9372f690eeabb219392b1333b8c0c60f2ff9bbc3a58d3f25d07c1973b9a",
      "v": 27,
      "creates": null,
      "raw": "0xf86d06850d4e3a98d183015f90945bb33b0e16f8a05c5124c33418922c5b1be8f81088e5665b6b99350000801ba0ed765acbd65c3236dc24ec5f0733b40e4d430cebd23fa63718bfd5ed1f74e5a7a06afae9372f690eeabb219392b1333b8c0c60f2ff9bbc3a58d3f25d07c1973b9a",
      "networkId": 0,
      "chainId": 0
    }
  ]
}