{
  "hash": "0xee8f026b42f244fc5ab3a9549ddc62e6e801b3f65350bb5a629269c9b3e89ce8",
  "parentHash": "0xee11683f5637078c167c8c98bc03d12fb8b99738c8c041a10f7fbdc8e0e391de",
  "number": 112311,
  "timestamp": 1440005475,
  "nonce": "0x0ca187d071c47746",
  "difficulty": 4396023396829,
  "gasLimit": {
    "_hex": "0x2fe3de"
  },
  "gasUsed": {
    "_hex": "0x1bdbe"
  },
  "miner": "0xB5f313DEDBfa1F8fd40A0a920255Bb06B0b09912",
  "extraData": "0x476574682f76312e302e302d30333937633636632f6c696e75782f676f312e34",
  "transactions": [
    {
      "hash": "0x23ffb2bd55501043f03c9b07c4ad38218ff5acce5f07efefaa353bb31f1b4c1a",
      "blockHash": "0xee8f026b42f244fc5ab3a9549ddc62e6e801b3f65350bb5a629269c9b3e89ce8",
      "blockNumber": 112311,
      "transactionIndex": 0,
      "confirmations": null,
      "from": "0x2678D3A52f796B7Fc9BA469579de3891af5f8A95",
      "gasPrice": {
        "_hex": "0x1066e9dc2f2"
      },
      "gasLimit": {
        "_hex": "0x249f0"
      },
      "to": "0xE28e72FCf78647ADCe1F1252F240bbfaebD63BcC",
      "value": {
        "_hex": "0xde0b6b3a7640000"
      },
      "nonce": 0,
      "data": "0x45466f3a",
      "r": "0xca8ca4603c9643b7bdeae1a2bb109f74f550c1b293b24fee6868e009dd8fe917",
      "s": "0x69e09f00ac5d5b6e0b13c4d10a990e4816e21d0973db96680285f300db0f27f7",
      "v": 27,
      "creates": null,
      "raw": "0xf872808601066e9dc2f2830249f094e28e72fcf78647adce1f1252f240bbfaebd63bcc880de0b6b3a76400008445466f3a1ba0ca8ca4603c9643b7bdeae1a2bb109f74f550c1b293b24fee6868e009dd8fe917a069e09f00ac5d5b6e0b13c4d10a990e4816e21d0973db96680285f300db0f27f7",
      "networkId": 0,
      "chainId": 0
    }
  ]
}