{
  "hash": "0x7e5959322e3b86befd0c1b7112f16df7eb88d7a3a906ad13db68e121ce949634",
  "parentHash": "0xe883483be9d0c01c3b82e8d24e08995bd36f84f731b2643fdd1d892ffb58a8e0",
  "number": 59157,
  "timestamp": 1439133035,
  "nonce": "0xe64555df7f934010",
  "difficulty": 1708925584602,
  "gasLimit": {
    "_hex": "0x2fefd8"
  },
  "gasUsed": {
    "_hex": "0x5208"
  },
  "miner": "0xB57a69A9cFD1BC39510a70Ab14De3BDa11d1dF70",
  "extraData": "0x476574682f76312e302e312f6c696e75782f676f312e342e32",
  "transactions": [
    {
      "hash": "0x99c54485313cb112bb35342df271185e2a28bcdb7b9b7718e52ba570af3d477d",
      "blockHash": "0x7e5959322e3b86befd0c1b7112f16df7eb88d7a3a906ad13db68e121ce949634",
      "blockNumber": 59157,
      "transactionIndex": 0,
      "confirmations": null,
      "from": "0xd41CDe3742bE29F53EDb8A99B255F4c0C210935d",
      "gasPrice": {
        "_hex": "0xd20b0e704"
      },
      "gasLimit": {
        "_hex": "0x5208"
      },
      "to": "0x32Be343B94f860124dC4fEe278FDCBD38C102D88",
      "value": {
        "_hex": "0x8ac2ee23be4e7000"
      },
      "nonce": 1,
      "data": "0x",
      "r": "0x5b75ebf7311883072f796e86f8f71a2652afc4c592251ae5b624cc88a3212f25",
      "s": "0x1640a4f0dbcf9854a09fa37b1667d0680e018dfa2bf6e9d3099f9f9009c280ce",
      "v": 27,
      "creates": null,
      "raw": "0xf86c01850d20b0e7048252089432be343b94f860124dc4fee278fdcbd38c102d88888ac2ee23be4e7000801ba05b75ebf7311883072f796e86f8f71a2652afc4c592251ae5b624cc88a3212f25a01640a4f0dbcf9854a09fa37b1667d0680e018dfa2bf6e9d3099f9f9009c280ce",
      "networkId": 0,
      "chainId": 0
    }
  ]
}