{
  "hash": "0x5190397a7434a5823f4b7c714eda425fce0d68b721a8555f332d78df8b418958",
  "parentHash": "0xe3a1dcce42780a7422e9a74515b4b621486d4373d056005009583a80a2b65e26",
  "number": 94763,
  "timestamp": 1439713856,
  "nonce": "0x74b52a8c5fa90c09",
  "difficulty": 3478023247145,
  "gasLimit": {
    "_hex": "0x2fefd8"
  },
  "gasUsed": {
    "_hex": "0xa410"
  },
  "miner": "0x9D0B366c06Bdb8D00C9Ab617db64B505f9e05d79",
  "extraData": "0x476574682f76312e302e312d38326566323666362f6c696e75782f676f312e34",
  "transactions": [
    {
      "hash": "0x3d811c05f1f76176488ecb4134be8fab7a32a7586fae2f53cb14c572d2b7dca1",
      "blockHash": "0x5190397a7434a5823f4b7c714eda425fce0d68b721a8555f332d78df8b418958",
      "blockNumber": 94763,
      "transactionIndex": 0,
      "confirmations": null,
      "from": "0xb4A9c47d4182b60B07a31d310cEDA8105a1122c4",
      "gasPrice": {
        "_hex": "0xd266a1f5a"
      },
      "gasLimit": {
        "_hex": "0x5208"
      },
      "to": "0x32Be343B94f860124dC4fEe278FDCBD38C102D88",
      "value": {
        "_hex": "0x1d06166057730000"
      },
      "nonce": 2,
      "data": "0x",
      "r": "0x4ce4f4ac9bb810e7d40a0bd8491d5d74595760496ac26a8e77c0dcbd89b35a9d",
      "s": "0x69204557d7c0a76409a7096a197ef4ae7629942704d1c381dffaacb730d6dacb",
      "v": 27,
      "creates": null,
      "raw": "0xf86c02850d266a1f5a8252089432be343b94f860124dc4fee278fdcbd38c102d88881d06166057730000801ba04ce4f4ac9bb810e7d40a0bd8491d5d74595760496ac26a8e77c0dcbd89b35a9da069204557d7c0a76409a7096a197ef4ae7629942704d1c381dffaacb730d6dacb",
      "networkId": 0,
      "chainId": 0
    },
    {
      "hash": "0x6d60266bb032c128e7848f8e2d608d3fc27357e1cbc862d3eed25f7eaacefe51",
      "blockHash": "0x5190397a7434a5823f4b7c714eda425fce0d68b721a8555f332d78df8b418958",
      "blockNumber": 94763,
      "transactionIndex": 1,
      "confirmations": null,
      "from": "0xBc8405A1c3b4f67A4Ba6C70C91eF1F0152B6d3ab",
      "gasPrice": {
        "_hex": "0xd266a1f5a"
      },
      "gasLimit": {
        "_hex": "0x5208"
      },
      "to": "0x32Be343B94f860124dC4fEe278FDCBD38C102D88",
      "value": {
        "_hex": "0x534d5b11b7258400"
      },
      "nonce": 2,
      "data": "0x",
      "r": "0x063eb87c081de93466e6cae83513816c8ef4ad723c1d4463179b926cf5fe9a42",
      "s": "0x5d4f0196021b4934a98d0019dc7126e2ca55de1ede35cbe03ff354bc8aa3df51",
      "v": 27,
      "creates": null,
      "raw": "0xf86c02850d266a1f5a8252089432be343b94f860124dc4fee278fdcbd38c102d8888534d5b11b7258400801ba0063eb87c081de93466e6cae83513816c8ef4ad723c1d4463179b926cf5fe9a42a05d4f0196021b4934a98d0019dc7126e2ca55de1ede35cbe03ff354bc8aa3df51",
      "networkId": 0,
      "chainId": 0
    }
  ]
}