{
  "hash": "0x6f8957a6be5487e4ed240ca26e186cf3f775f51277e5a3be6abac842c5894fda",
  "parentHash": "0xe2cf152050ac4a00b7ac93a6e8ba461b76958a7fdec1ee052b3b4cb1914c25fd",
  "number": 84171,
  "timestamp": 1439545882,
  "nonce": "0x0db4317192606d0e",
  "difficulty": 2513195030280,
  "gasLimit": {
    "_hex": "0x2fefd5"
  },
  "gasUsed": {
    "_hex": "0xa674"
  },
  "miner": "0xC603Ab5ef41fC61AA8b76bEddb09e3Cfcbb174BD",
  "extraData": "0x476574682f76312e302e312f77696e646f77732f676f312e342e32",
  "transactions": [
    {
      "hash": "0x6539719a2384f5173898019dbfb0824bd7c688b630fc607adcd10133ba615766",
      "blockHash": "0x6f8957a6be5487e4ed240ca26e186cf3f775f51277e5a3be6abac842c5894fda",
      "blockNumber": 84171,
      "transactionIndex": 0,
      "confirmations": null,
      "from": "0x2cb5495a505336c2465410d1cae095b8e1Ba5CDd",
      "gasPrice": {
        "_hex": "0x104f2cc1f77"
      },
      "gasLimit": {
        "_hex": "0x55f0"
      },
      "to": "0x2910543Af39abA0Cd09dBb2D50200b3E800A63D2",
      "value": {
        "_hex": "0x3635c9adc5dea00000"
      },
      "nonce": 1,
      "data": "0x454e50394e39473552",
      "r": "0x35d71ef55e9a5e68aa115e76f0b14a46e0a37aed2a19966d901e15a7718274a6",
      "s": "0x5856c38c99a7384abc538ce6b2790fba0deb4124bcab1e31392f64720ee363a1",
      "v": 28,
      "creates": null,
      "raw": "0xf87701860104f2cc1f778255f0942910543af39aba0cd09dbb2d50200b3e800a63d2893635c9adc5dea0000089454e50394e394735521ca035d71ef55e9a5e68aa115e76f0b14a46e0a37aed2a19966d901e15a7718274a6a05856c38c99a7384abc538ce6b2790fba0deb4124bcab1e31392f64720ee363a1",
      "networkId": 0,
      "chainId": 0
    },
    {
      "hash": "0x4de9773a5ec3cc1e1b3197eff2a4cdb1e1efeddc5a54cc511cee756b8a7d9f54",
      "blockHash": "0x6f8957a6be5487e4ed240ca26e186cf3f775f51277e5a3be6abac842c5894fda",
      "blockNumber": 84171,
      "transactionIndex": 1,
      "confirmations": null,
      "from": "0x2910543Af39abA0Cd09dBb2D50200b3E800A63D2",
      "gasPrice": {
        "_hex": "0xd94883870"
      },
      "gasLimit": {
        "_hex": "0x5208"
      },
      "to": "0x277B48086fF653f96201402627da129a02D738D7",
      "value": {
        "_hex": "0x11c37937e08000"
      },
      "nonce": 540,
      "data": "0x",
      "r": "0x0a95059982da416f8e8db6a36eb2fe6312b22829871c8bcebebfd62dd528aacd",
      "s": "0x41e234628c3511f494dd71a21339e0c2b050ae4bd014c88218f4e08a7b959b49",
      "v": 27,
      "creates": null,
      "raw": "0xf86d82021c850d9488387082520894277b48086ff653f96201402627da129a02d738d78711c37937e08000801ba00a95059982da416f8e8db6a36eb2fe6312b22829871c8bcebebfd62dd528aacda041e234628c3511f494dd71a21339e0c2b050ae4bd014c88218f4e08a7b959b49",
      "networkId": 0,
      "chainId": 0
    }
  ]
}