{
  "hash": "0xaa98173f1dc16a602f34ba254eaa8811d4d957e78c3febdc759042eb908bd47c",
  "parentHash": "0x46748241d6f5c316feb55822d0f8e2f96773b036fe55a0a5aad5f94f92809c74",
  "number": 92835,
  "timestamp": 1439677828,
  "nonce": "0x6ab5d1722b88a54c",
  "difficulty": 3642216324219,
  "gasLimit": {
    "_hex": "0x2fefd8"
  },
  "gasUsed": {
    "_hex": "0x1d7ee"
  },
  "miner": "0xe6A7a1d47ff21B6321162AEA7C6CB457D5476Bca",
  "extraData": "0x476574682f76312e302e312d38326566323666362f6c696e75782f676f312e34",
  "transactions": [
    {
      "hash": "0x19a53c5c2d3176a3af21b3296f7a09fd6e9d8edd08c368c2661c7a06f2b234ec",
      "blockHash": "0xaa98173f1dc16a602f34ba254eaa8811d4d957e78c3febdc759042eb908bd47c",
      "blockNumber": 92835,
      "transactionIndex": 0,
      "confirmations": null,
      "from": "0xFBb1b73C4f0BDa4f67dcA266ce6Ef42f520fBB98",
      "gasPrice": {
        "_hex": "0xe10738bf0"
      },
      "gasLimit": {
        "_hex": "0x15f90"
      },
      "to": "0xCAc7000C7dBaa2E33Af15325AF5D435E011C7BdD",
      "value": {
        "_hex": "0x0"
      },
      "nonce": 52,
      "data": "0x3feb1bd84249545452455830300000000000000000000000000000000000000000000000000000000000000000000000f776272171fedbdfb74bf67b7aee686063f73a7f0000000000000000000000000000000000000000000000000f207539952d0000",
      "r": "0x64f0afd9bea9fb515cd99c694bcd254148de134d770c9e0cd5de2e2af82d0832",
      "s": "0x51f0683085d545bf24d048d700f33d2e3b5be49133a506c68c40a72db2d0f40a",
      "v": 28,
      "creates": null,
      "raw": "0xf8ca34850e10738bf083015f9094cac7000c7dbaa2e33af15325af5d435e011c7bdd80b8643feb1bd84249545452455830300000000000000000000000000000000000000000000000000000000000000000000000f776272171fedbdfb74bf67b7aee686063f73a7f0000000000000000000000000000000000000000000000000f207539952d00001ca064f0afd9bea9fb515cd99c694bcd254148de134d770c9e0cd5de2e2af82d0832a051f0683085d545bf24d048d700f33d2e3b5be49133a506c68c40a72db2d0f40a",
      "networkId": 0,
      "chainId": 0
    },
    {
      "hash": "0x0c7f477346a07962347e587304c374065a9e55c2a5d12f392b67279fcae7c426",
      "blockHash": "0xaa98173f1dc16a602f34ba254eaa8811d4d957e78c3febdc759042eb908bd47c",
      "blockNumber": 92835,
      "transactionIndex": 1,
      "confirmations": null,
      "from": "0xee5379D0c1ca47327368027455074C26D9952628",
      "gasPrice": {
        "_hex": "0xd87bab7f4"
      },
      "gasLimit": {
        "_hex": "0x15f90"
      },
      "to": "0xB8796061FcCcC0c40BD2060d95d6cff928bD1C1B",
      "value": {
        "_hex": "0x32ae10f6cb2130000"
      },
      "nonce": 12,
      "data": "0x",
      "r": "0x263386d0e7a7d1f6ff71989eb8280f2e55b76c907f27e40d7619c04c2c1c3583",
      "s": "0x19128762f636fc197511bffcd602648216dc0224d9d9909903825373bb3a67ba",
      "v": 28,
      "creates": null,
      "raw": "0xf86e0c850d87bab7f483015f9094b8796061fcccc0c40bd2060d95d6cff928bd1c1b89032ae10f6cb2130000801ca0263386d0e7a7d1f6ff71989eb8280f2e55b76c907f27e40d7619c04c2c1c3583a019128762f636fc197511bffcd602648216dc0224d9d9909903825373bb3a67ba",
      "networkId": 0,
      "chainId": 0
    },
    {
      "hash": "0x7076f3619e99eba08b89ecb858709f0180267bdb48d893e222a2cf80be184cb1",
      "blockHash": "0xaa98173f1dc16a602f34ba254eaa8811d4d957e78c3febdc759042eb908bd47c",
      "blockNumber": 92835,
      "transactionIndex": 2,
      "confirmations": null,
      "from": "0x32Be343B94f860124dC4fEe278FDCBD38C102D88",
      "gasPrice": {
        "_hex": "0xd0919bda0"
      },
      "gasLimit": {
        "_hex": "0x5208"
      },
      "to": "0x513CA5a56208cB4bC04F6488C6182196B797B4AE",
      "value": {
        "_hex": "0x14ad8b1b0b550000"
      },
      "nonce": 902,
      "data": "0x",
      "r": "0xb22e648a69d16988f9b043231ea35a646aad055c2cdc60d127a3b2fea3e1bb7e",
      "s": "0x56baa6f8e8a51dd130d0747e56bc49771b5b699f981ecef936bf115284975f11",
      "v": 27,
      "creates": null,
      "raw": "0xf86e820386850d0919bda082520894513ca5a56208cb4bc04f6488c6182196b797b4ae8814ad8b1b0b550000801ba0b22e648a69d16988f9b043231ea35a646aad055c2cdc60d127a3b2fea3e1bb7ea056baa6f8e8a51dd130d0747e56bc49771b5b699f981ecef936bf115284975f11",
      "networkId": 0,
      "chainId": 0
    },
    {
      "hash": "0xaee7a717134b11e0a9dd62d5674234e6fb5d696e81db0fa2badb51020b69dc92",
      "blockHash": "0xaa98173f1dc16a602f34ba254eaa8811d4d957e78c3febdc759042eb908bd47c",
      "blockNumber": 92835,
      "transactionIndex": 3,
      "confirmations": null,
      "from": "0x573d9861a36f50077A4a4E4a4d2C7346EA93a5Ef",
      "gasPrice": {
        "_hex": "0xba43b7400"
      },
      "gasLimit": {
        "_hex": "0x5208"
      },
      "to": "0xC47Aaa860008be6f65B58c6C6E02a84e666EfE31",
      "value": {
        "_hex": "0xac872fb4cf6a1c00"
      },
      "nonce": 0,
      "data": "0x",
      "r": "0xc321169429a5cfc2a9d37cf4b0e09fb945796f8c114917cfdff36f76e8a3dcb7",
      "s": "0x63ed2c77e67941ac8fdbf952d1722bf90129a7fccf1dac592ed74abcdb8234be",
      "v": 28,
      "creates": null,
      "raw": "0xf86c80850ba43b740082520894c47aaa860008be6f65b58c6c6e02a84e666efe3188ac872fb4cf6a1c00801ca0c321169429a5cfc2a9d37cf4b0e09fb945796f8c114917cfdff36f76e8a3dcb7a063ed2c77e67941ac8fdbf952d1722bf90129a7fccf1dac592ed74abcdb8234be",
      "networkId": 0,
      "chainId": 0
    }
  ]
}