{
  "hash": "0x2b5ef65ea17ac5faac027a600ecdc098b17b3fa77729b51e38ada3ce9fdd31d8",
  "parentHash": "0x7719b92cd4733d076dfa8a1d8e31614b31e4d3c310997496ce76c5d3f053c17d",
  "number": 96092,
  "timestamp": 1439734811,
  "nonce": "0xf0ccae6b4c9cb85a",
  "difficulty": 3635473151776,
  "gasLimit": {
    "_hex": "0x2fefd8"
  },
  "gasUsed": {
    "_hex": "0xa410"
  },
  "miner": "0xe6A7a1d47ff21B6321162AEA7C6CB457D5476Bca",
  "extraData": "0x476574682f76312e302e312d38326566323666362f6c696e75782f676f312e34",
  "transactions": [
    {
      "hash": "0xfb2448c8793ec8cafa0409c8a325cd74a1e97301b9f0afa8547a00468d9a2639",
      "blockHash": "0x2b5ef65ea17ac5faac027a600ecdc098b17b3fa77729b51e38ada3ce9fdd31d8",
      "blockNumber": 96092,
      "transactionIndex": 0,
      "confirmations": null,
      "from": "0x1dbe45A9437978D7Bdc5D468e6be0988a71D153f",
      "gasPrice": {
        "_hex": "0xd69b48315"
      },
      "gasLimit": {
        "_hex": "0x15f90"
      },
      "to": "0x11AA265966dFdDfDC4fA42a83C305f6EcbE9588a",
      "value": {
        "_hex": "0x2b05699353b60000"
      },
      "nonce": 3,
      "data": "0x",
      "r": "0x5e1ceaea30eb807d2842c5806bec3e0b79ca9caa7b16ca24f7f8a8d2164c3913",
      "s": "0x0318abf79ed47b8abb013ab2f1c30704c80e535db10589c1a37216b618e90aa2",
      "v": 28,
      "creates": null,
      "raw": "0xf86d03850d69b4831583015f909411aa265966dfddfdc4fa42a83c305f6ecbe9588a882b05699353b60000801ca05e1ceaea30eb807d2842c5806bec3e0b79ca9caa7b16ca24f7f8a8d2164c3913a00318abf79ed47b8abb013ab2f1c30704c80e535db10589c1a37216b618e90aa2",
      "networkId": 0,
      "chainId": 0
    },
    {
      "hash": "0xfb25df4069a545ded91762f47368aa7f2ac69ef45a0cb6cf788311b5dcd137ec",
      "blockHash": "0x2b5ef65ea17ac5faac027a600ecdc098b17b3fa77729b51e38ada3ce9fdd31d8",
      "blockNumber": 96092,
      "transactionIndex": 1,
      "confirmations": null,
      "from": "0x7884D470204862a0d1A21122F41ee77430396Ee5",
      "gasPrice": {
        "_hex": "0xd549ba27d"
      },
      "gasLimit": {
        "_hex": "0x15f90"
      },
      "to": "0xfdB948C0D3FC00Bbe56f48268481A3F8cc1743A2",
      "value": {
        "_hex": "0x174876e800"
      },
      "nonce": 9,
      "data": "0x",
      "r": "0x53aba5022c08d6dad136556ed7d9096263d94cff32a617dab01d0683e697dc6d",
      "s": "0x63ef486a420ca70de6552bb138ab2c46b42895364a0d0738715690e107551769",
      "v": 27,
      "creates": null,
      "raw": "0xf86a09850d549ba27d83015f9094fdb948c0d3fc00bbe56f48268481a3f8cc1743a285174876e800801ba053aba5022c08d6dad136556ed7d9096263d94cff32a617dab01d0683e697dc6da063ef486a420ca70de6552bb138ab2c46b42895364a0d0738715690e107551769",
      "networkId": 0,
      "chainId": 0
    }
  ]
}