{
  "hash": "0x62d2ff0bca8892ba82f17550b0c1315eaf28cc8d860d1062df1ebb43476eb805",
  "parentHash": "0xfbeec917e47f9a810b2272b943a91dcc10285bc07bb6531e239e32745eeccd83",
  "number": 70925,
  "timestamp": 1439327438,
  "nonce": "0x542a87e297fd9c46",
  "difficulty": 2163585309398,
  "gasLimit": {
    "_hex": "0x2fefd8"
  },
  "gasUsed": {
    "_hex": "0x3fa32"
  },
  "miner": "0x88D74a59454F6cF3B51ef6b9136AFb6b9D405A88",
  "extraData": "0x476574682f76312e302e312d37666266393930632f6c696e75782f676f312e34",
  "transactions": [
    {
      "hash": "0x71037d69ef6132c338f8f253ca1373bb94b4f61c47b6ac2df3cad1b70598d151",
      "blockHash": "0x62d2ff0bca8892ba82f17550b0c1315eaf28cc8d860d1062df1ebb43476eb805",
      "blockNumber": 70925,
      "transactionIndex": 0,
      "confirmations": null,
      "from": "0x952f389eCE021cECc7e7E00B5316925e14396B92",
      "gasPrice": {
        "_hex": "0xdf8475800"
      },
      "gasLimit": {
        "_hex": "0x5267"
      },
      "to": "0x65C40Ee4e07E09671fF3cE2dff2AcCbE366bb5C8",
      "value": {
        "_hex": "0x3005753e800"
      },
      "nonce": 3,
      "data": "0x",
      "r": "0xe7525e4c240ef02441051b145ef831422fb65acc095159d9a4e745615ceacd05",
      "s": "0xd16a2698a7a5145fc664e35881f54a195a11f8122e41700b90a23a4b60887a6e",
      "v": 27,
      "creates": null,
      "raw": "0xf86a03850df84758008252679465c40ee4e07e09671ff3ce2dff2accbe366bb5c88603005753e800801ba0e7525e4c240ef02441051b145ef831422fb65acc095159d9a4e745615ceacd05a0d16a2698a7a5145fc664e35881f54a195a11f8122e41700b90a23a4b60887a6e",
      "networkId": 0,
      "chainId": 0
    },
    {
      "hash": "0x48d78673bdf51e69d5a174c2c0060a54a534fb8cbf6ea49ccfa84892855a532a",
      "blockHash": "0x62d2ff0bca8892ba82f17550b0c1315eaf28cc8d860d1062df1ebb43476eb805",
      "blockNumber": 70925,
      "transactionIndex": 1,
      "confirmations": null,
      "from": "0x120A270bbC009644e35F0bB6ab13f95b8199c4ad",
      "gasPrice": {
        "_hex": "0xdaa316865"
      },
      "gasLimit": {
        "_hex": "0x15f90"
      },
      "to": "0x366F9C25dCaF576CC9CEF686DA70C1785113F05d",
      "value": {
        "_hex": "0xcaef86a951c8d0c00"
      },
      "nonce": 214,
      "data": "0x",
      "r": "0x7c5645ee3f4e849ae021da9a4c1d4c9298c17f96226c9344f6fd1650dc819a12",
      "s": "0x0b6ba1a3341cd8d62df4f83e07683ed88821b6505c64232f456a05599f61a4a4",
      "v": 28,
      "creates": null,
      "raw": "0xf86f81d6850daa31686583015f9094366f9c25dcaf576cc9cef686da70c1785113f05d890caef86a951c8d0c00801ca07c5645ee3f4e849ae021da9a4c1d4c9298c17f96226c9344f6fd1650dc819a12a00b6ba1a3341cd8d62df4f83e07683ed88821b6505c64232f456a05599f61a4a4",
      "networkId": 0,
      "chainId": 0
    },
    {
      "hash": "0x9289f87ef816e3c5bfbcc6b43a0e8b79efce50c8e63ed20cc12a959d9c5b8219",
      "blockHash": "0x62d2ff0bca8892ba82f17550b0c1315eaf28cc8d860d1062df1ebb43476eb805",
      "blockNumber": 70925,
      "transactionIndex": 2,
      "confirmations": null,
      "from": "0xC3fe64D1af00F0d9c324E4387EF7533f7D788e95",
      "gasPrice": {
        "_hex": "0xd5d806443"
      },
      "gasLimit": {
        "_hex": "0x5208"
      },
      "to": "0x32Be343B94f860124dC4fEe278FDCBD38C102D88",
      "value": {
        "_hex": "0x15efd1a0266d400"
      },
      "nonce": 4,
      "data": "0x",
      "r": "0xa00978e1f55c900e57c9d36f779b8ea26c00f4e48bde3350f9abb040654fa54a",
      "s": "0x1cedd581d14427b5419558bf395640b06e92fb85dc9ccd8feebea41d9d7b00b5",
      "v": 28,
      "creates": null,
      "raw": "0xf86c04850d5d8064438252089432be343b94f860124dc4fee278fdcbd38c102d8888015efd1a0266d400801ca0a00978e1f55c900e57c9d36f779b8ea26c00f4e48bde3350f9abb040654fa54aa01cedd581d14427b5419558bf395640b06e92fb85dc9ccd8feebea41d9d7b00b5",
      "networkId": 0,
      "chainId": 0
    },
    {
      "hash": "0x7b97d29a96f3d314fbe0217eb9d7f1b83cb38ceb7b8d68eec3bd5b78f9017ea4",
      "blockHash": "0x62d2ff0bca8892ba82f17550b0c1315eaf28cc8d860d1062df1ebb43476eb805",
      "blockNumber": 70925,
      "transactionIndex": 3,
      "confirmations": null,
      "from": "0x0F03C4045F3ca4163A53836b213d3A23fCacb592",
      "gasPrice": {
        "_hex": "0xd5d806443"
      },
      "gasLimit": {
        "_hex": "0x5208"
      },
      "to": "0x32Be343B94f860124dC4fEe278FDCBD38C102D88",
      "value": {
        "_hex": "0x1be0abfb6365d400"
      },
      "nonce": 1,
      "data": "0x",
      "r": "0x3ae3492ba4dc48b9e04fd2ff13aa63349874aa92b9cc43f8695bd9d94a027fe0",
      "s": "0x4a2b152c50aac5cb2f328f9e005e192bc47dcfc861bf9127f7ede679ddfd780f",
      "v": 28,
      "creates": null,
      "raw": "0xf86c01850d5d8064438252089432be343b94f860124dc4fee278fdcbd38c102d88881be0abfb6365d400801ca03ae3492ba4dc48b9e04fd2ff13aa63349874aa92b9cc43f8695bd9d94a027fe0a04a2b152c50aac5cb2f328f9e005e192bc47dcfc861bf9127f7ede679ddfd780f",
      "networkId": 0,
      "chainId": 0
    },
    {
      "hash": "0x805d29d87c414c373f3c099471c9422e14d902deb87778b7758dbcb29fefff61",
      "blockHash": "0x62d2ff0bca8892ba82f17550b0c1315eaf28cc8d860d1062df1ebb43476eb805",
      "blockNumber": 70925,
      "transactionIndex": 4,
      "confirmations": null,
      "from": "0x0cA19A53a3256482A89770FC1daFC7630717F201",
      "gasPrice": {
        "_hex": "0xd5d806443"
      },
      "gasLimit": {
        "_hex": "0x5208"
      },
      "to": "0x32Be343B94f860124dC4fEe278FDCBD38C102D88",
      "value": {
        "_hex": "0xdcaaadc14605400"
      },
      "nonce": 1,
      "data": "0x",
      "r": "0xd618e6cfbb5729d01948415abdd92f382b6ad60c5a9e5c75d2fc1116c33fe543",
      "s": "0x2547075470da0f7e92f1f2c69da81a827ab8d4c9326e2ef52a40418613ff1888",
      "v": 28,
      "creates": null,
      "raw": "0xf86c01850d5d8064438252089432be343b94f860124dc4fee278fdcbd38c102d88880dcaaadc14605400801ca0d618e6cfbb5729d01948415abdd92f382b6ad60c5a9e5c75d2fc1116c33fe543a02547075470da0f7e92f1f2c69da81a827ab8d4c9326e2ef52a40418613ff1888",
      "networkId": 0,
      "chainId": 0
    },
    {
      "hash": "0x932ae88363ebedc3b7cd7d56f831e674232c0b58cefd173e61d8f35747d7e20a",
      "blockHash": "0x62d2ff0bca8892ba82f17550b0c1315eaf28cc8d860d1062df1ebb43476eb805",
      "blockNumber": 70925,
      "transactionIndex": 5,
      "confirmations": null,
      "from": "0x0e79Fa998677114124597D6BCCcA10fF8B57045F",
      "gasPrice": {
        "_hex": "0xd5d806443"
      },
      "gasLimit": {
        "_hex": "0x5208"
      },
      "to": "0x32Be343B94f860124dC4fEe278FDCBD38C102D88",
      "value": {
        "_hex": "0x7f7e119d85387c000"
      },
      "nonce": 1,
      "data": "0x",
      "r": "0xf5c86b4ebafe0cf50e8700214bb94635518ada76a2d858b7b736a6ff2ce10e79",
      "s": "0x2ec1f5fa3a04268d7937eef137e7f1286578c2d0e64b0426ada408389952af48",
      "v": 28,
      "creates": null,
      "raw": "0xf86d01850d5d8064438252089432be343b94f860124dc4fee278fdcbd38c102d888907f7e119d85387c000801ca0f5c86b4ebafe0cf50e8700214bb94635518ada76a2d858b7b736a6ff2ce10e79a02ec1f5fa3a04268d7937eef137e7f1286578c2d0e64b0426ada408389952af48",
      "networkId": 0,
      "chainId": 0
    },
    {
      "hash": "0xa841f9c218f269463102469335ae071f74f61ad921b3ce1eadefcd50a983ea6c",
      "blockHash": "0x62d2ff0bca8892ba82f17550b0c1315eaf28cc8d860d1062df1ebb43476eb805",
      "blockNumber": 70925,
      "transactionIndex": 6,
      "confirmations": null,
      "from": "0x585aE8Cf889282751b3C38c38A9C833D96d0dc59",
      "gasPrice": {
        "_hex": "0xd5d806443"
      },
      "gasLimit": {
        "_hex": "0x5208"
      },
      "to": "0x32Be343B94f860124dC4fEe278FDCBD38C102D88",
      "value": {
        "_hex": "0x6ec12fb788ed400"
      },
      "nonce": 0,
      "data": "0x",
      "r": "0x6db2d02d6bb6f61454943a9910f4407124d299b8739fdd0c34c3966da2a5dddd",
      "s": "0x786d4351f0ea3fa1b89412e704e7f4b3604cec021c255bfb7584c52fbef441b1",
      "v": 27,
      "creates": null,
      "raw": "0xf86c80850d5d8064438252089432be343b94f860124dc4fee278fdcbd38c102d888806ec12fb788ed400801ba06db2d02d6bb6f61454943a9910f4407124d299b8739fdd0c34c3966da2a5dddda0786d4351f0ea3fa1b89412e704e7f4b3604cec021c255bfb7584c52fbef441b1",
      "networkId": 0,
      "chainId": 0
    },
    {
      "hash": "0x230db29a55b0167d22f920c550f4d1a8eb0b57f277ef04e28979b5cfd95e4e04",
      "blockHash": "0x62d2ff0bca8892ba82f17550b0c1315eaf28cc8d860d1062df1ebb43476eb805",
      "blockNumber": 70925,
      "transactionIndex": 7,
      "confirmations": null,
      "from": "0xF5d14552B1dCe0d6dc1F320da6FFc8A331cd6f0C",
      "gasPrice": {
        "_hex": "0xd47a777b5"
      },
      "gasLimit": {
        "_hex": "0x7a120"
      },
      "to": "0xBAA54d6E90c3F4d7Ebec11bD180134C7eD8eBb52",
      "value": {
        "_hex": "0x16345785d8a0000"
      },
      "nonce": 3,
      "data": "0x",
      "r": "0x2ba1f808d5f3cd2d09373ca50811cb506cbaeb0c77693bbdd608043d2f66f62e",
      "s": "0x750532e06fd9342cd37d4b7bb497bb6138def472f89f4c1649ae2f58baf5216e",
      "v": 27,
      "creates": null,
      "raw": "0xf86d03850d47a777b58307a12094baa54d6e90c3f4d7ebec11bd180134c7ed8ebb5288016345785d8a0000801ba02ba1f808d5f3cd2d09373ca50811cb506cbaeb0c77693bbdd608043d2f66f62ea0750532e06fd9342cd37d4b7bb497bb6138def472f89f4c1649ae2f58baf5216e",
      "networkId": 0,
      "chainId": 0
    },
    {
      "hash": "0xf5fd7957bb6bd2c006555d4e0ee890c333744b3ca0d18e2837ed695cb2a587bf",
      "blockHash": "0x62d2ff0bca8892ba82f17550b0c1315eaf28cc8d860d1062df1ebb43476eb805",
      "blockNumber": 70925,
      "transactionIndex": 8,
      "confirmations": null,
      "from": "0xF5d14552B1dCe0d6dc1F320da6FFc8A331cd6f0C",
      "gasPrice": {
        "_hex": "0xd47a777b5"
      },
      "gasLimit": {
        "_hex": "0x7a120"
      },
      "to": "0xBAA54d6E90c3F4d7Ebec11bD180134C7eD8eBb52",
      "value": {
        "_hex": "0xde0b6b3a7640000"
      },
      "nonce": 4,
      "data": "0x",
      "r": "0x4b0765a8d75fae6bf7e9f4d29c50b2027e3d6885f92b1e5150803e24a0bc6ab3",
      "s": "0x68b5741c53cedb81e8b4185975e304c57728b07c3f75074eda7f7a7c4bcd6e08",
      "v": 27,
      "creates": null,
      "raw": "0xf86d04850d47a777b58307a12094baa54d6e90c3f4d7ebec11bd180134c7ed8ebb52880de0b6b3a7640000801ba04b0765a8d75fae6bf7e9f4d29c50b2027e3d6885f92b1e5150803e24a0bc6ab3a068b5741c53cedb81e8b4185975e304c57728b07c3f75074eda7f7a7c4bcd6e08",
      "networkId": 0,
      "chainId": 0
    }
  ]
}