{
  "hash": "0xf09d1f2123fe6b0b8d66e0fffb0518dae4064aecc0025a3b3b37413e99edd046",
  "parentHash": "0x3817d767380e9a4e281e7b67a6ae8f7ca1533bcecfbe23adfbf779d543a89928",
  "number": 58996,
  "timestamp": 1439130372,
  "nonce": "0x40736270b86dafa4",
  "difficulty": 1706456859224,
  "gasLimit": {
    "_hex": "0x2fefd8"
  },
  "gasUsed": {
    "_hex": "0x5208"
  },
  "miner": "0xeB1325C8D9d3ea8D74aC11F4B00F1B2367686319",
  "extraData": "0x476574682f76312e302e312f77696e646f77732f676f312e342e32",
  "transactions": [
    {
      "hash": "0x29326d45e269c18f699ecf33abda1bf5a354297debfa2c2dcd7177503db968f2",
      "blockHash": "0xf09d1f2123fe6b0b8d66e0fffb0518dae4064aecc0025a3b3b37413e99edd046",
      "blockNumber": 58996,
      "transactionIndex": 0,
      "confirmations": null,
      "from": "0xb2E85F8FC838DeC7fD4C66C854C9Ed68AF288936",
      "gasPrice": {
        "_hex": "0xd8364fc25"
      },
      "gasLimit": {
        "_hex": "0x15f90"
      },
      "to": "0xC25f24A505b8fEF751D8f4FCc397651001F7a160",
      "value": {
        "_hex": "0x45400a8fd5330000"
      },
      "nonce": 0,
      "data": "0x",
      "r": "0xc1fef35ca9f903f419ca202e5607b2552a9c5b0a3849340c77d2de7a9a7792d8",
      "s": "0x06d7ef9e315ea8ad16dc687497a16656dea38304c2d81eef08e23495e95bf1b7",
      "v": 27,
      "creates": null,
      "raw": "0xf86d80850d8364fc2583015f9094c25f24a505b8fef751d8f4fcc397651001f7a1608845400a8fd5330000801ba0c1fef35ca9f903f419ca202e5607b2552a9c5b0a3849340c77d2de7a9a7792d8a006d7ef9e315ea8ad16dc687497a16656dea38304c2d81eef08e23495e95bf1b7",
      "networkId": 0,
      "chainId": 0
    }
  ]
}