{
  "hash": "0xdc5da78b0c0ece2880303dc549ebfd3c2b9d65c4275e971a5e61a9cdb2773e4a",
  "parentHash": "0x19e173295a57f5d38694b472636c109325fea48815a3bc77b8e1a1c90a8af31f",
  "number": 54535,
  "timestamp": 1439055609,
  "nonce": "0xeed4a9a9c495060a",
  "difficulty": 1622034890367,
  "gasLimit": {
    "_hex": "0x2fefd8"
  },
  "gasUsed": {
    "_hex": "0x5208"
  },
  "miner": "0x035052044374B3607Fc995a2460f096a5c5c0184",
  "extraData": "0x",
  "transactions": [
    {
      "hash": "0xf3445ffb33254a142e07631a8de8942c395015b70e81926b2af985e5a6615441",
      "blockHash": "0xdc5da78b0c0ece2880303dc549ebfd3c2b9d65c4275e971a5e61a9cdb2773e4a",
      "blockNumber": 54535,
      "transactionIndex": 0,
      "confirmations": null,
      "from": "0x120A270bbC009644e35F0bB6ab13f95b8199c4ad",
      "gasPrice": {
        "_hex": "0xcffc3295d"
      },
      "gasLimit": {
        "_hex": "0x15f90"
      },
      "to": "0xCA092A957744f6385B1aee5dC694143E8A06F805",
      "value": {
        "_hex": "0x105a45979dc33400"
      },
      "nonce": 8,
      "data": "0x",
      "r": "0x569c15788e4490e1ac58cc576be3669d80bd5e062b2dcd7d6a8c4324f93517f7",
      "s": "0x380209ce6640157bf146f40797dd91db11a766337be08098c8fa4fa9458ca8de",
      "v": 27,
      "creates": null,
      "raw": "0xf86d08850cffc3295d83015f9094ca092a957744f6385b1aee5dc694143e8a06f80588105a45979dc33400801ba0569c15788e4490e1ac58cc576be3669d80bd5e062b2dcd7d6a8c4324f93517f7a0380209ce6640157bf146f40797dd91db11a766337be08098c8fa4fa9458ca8de",
      "networkId": 0,
      "chainId": 0
    }
  ]
}