{
  "hash": "0xd08e1814d8c4bb0076ff96f130f53228699e1a7abc9c7c203f661d2671c22ee5",
  "parentHash": "0xef2715f4127a771744d5973d5281dd818318c61d97909d537cab9a071d73a097",
  "number": 80323,
  "timestamp": 1439483869,
  "nonce": "0x31ebc0d0eec09f8f",
  "difficulty": 2378213355007,
  "gasLimit": {
    "_hex": "0x2fefd8"
  },
  "gasUsed": {
    "_hex": "0x14e47"
  },
  "miner": "0xe090Ffdced499691fA9379752a59F8A058c1eE4A",
  "extraData": "0x476574682f76312e302e312f6c696e75782f676f312e342e32",
  "transactions": [
    {
      "hash": "0x1f4da8f895fecc6fa06195cac2bdf0b9b23e787029eafd7d657c97a1adc8dea9",
      "blockHash": "0xd08e1814d8c4bb0076ff96f130f53228699e1a7abc9c7c203f661d2671c22ee5",
      "blockNumber": 80323,
      "transactionIndex": 0,
      "confirmations": null,
      "from": "0x87C5B5874A18B4306DF8a752a6C8cc3E82daFc19",
      "gasPrice": {
        "_hex": "0x103e7a7538b"
      },
      "gasLimit": {
        "_hex": "0x493e0"
      },
      "to": "0xC4c51de1AbF5D60DBd329eC0F999Fd8f021ae9fC",
      "value": {
        "_hex": "0x0"
      },
      "nonce": 173,
      "data": "0x03750d9400000000000000000000000087c5b5874a18b4306df8a752a6c8cc3e82dafc196b6b6b0000000000000000000000000000000000000000000000000000000000",
      "r": "0x2b51d3de6b67efc0f97ae0950fcb4ddcddfc35bdbf99f5f98f584ec59783b05c",
      "s": "0x1eb78aeb9532792f5fa99085f05cad5df65a06b6651c02dd5f7f0adb9bcaa3fe",
      "v": 28,
      "creates": null,
      "raw": "0xf8ac81ad860103e7a7538b830493e094c4c51de1abf5d60dbd329ec0f999fd8f021ae9fc80b84403750d9400000000000000000000000087c5b5874a18b4306df8a752a6c8cc3e82dafc196b6b6b00000000000000000000000000000000000000000000000000000000001ca02b51d3de6b67efc0f97ae0950fcb4ddcddfc35bdbf99f5f98f584ec59783b05ca01eb78aeb9532792f5fa99085f05cad5df65a06b6651c02dd5f7f0adb9bcaa3fe",
      "networkId": 0,
      "chainId": 0
    },
    {
      "hash": "0x78a5a0d99ec5726c219e46d34b2b467bd5fdb563444f42b5ba0d76462f14d503",
      "blockHash": "0xd08e1814d8c4bb0076ff96f130f53228699e1a7abc9c7c203f661d2671c22ee5",
      "blockNumber": 80323,
      "transactionIndex": 1,
      "confirmations": null,
      "from": "0x8D85e4D4dEbAD1De01E688b1bf0916A5E7E3E1aD",
      "gasPrice": {
        "_hex": "0xba43b7400"
      },
      "gasLimit": {
        "_hex": "0x5208"
      },
      "to": "0xC47Aaa860008be6f65B58c6C6E02a84e666EfE31",
      "value": {
        "_hex": "0xdb259cbc11238f0"
      },
      "nonce": 0,
      "data": "0x",
      "r": "0x46742cfe9b6bc24c98c38914d2927ad44be9513c76743a67e7752cb3de5ebb2e",
      "s": "0x3476f04ae72bf30e87b023fb261528cbe020b6227e695d283e39b0650e1cdb44",
      "v": 27,
      "creates": null,
      "raw": "0xf86c80850ba43b740082520894c47aaa860008be6f65b58c6c6e02a84e666efe31880db259cbc11238f0801ba046742cfe9b6bc24c98c38914d2927ad44be9513c76743a67e7752cb3de5ebb2ea03476f04ae72bf30e87b023fb261528cbe020b6227e695d283e39b0650e1cdb44",
      "networkId": 0,
      "chainId": 0
    },
    {
      "hash": "0x2f52bb09064d58e0ba1dbc9e0fef2609c181e11850b64fd5c0ca10ac5f93e6c3",
      "blockHash": "0xd08e1814d8c4bb0076ff96f130f53228699e1a7abc9c7c203f661d2671c22ee5",
      "blockNumber": 80323,
      "transactionIndex": 2,
      "confirmations": null,
      "from": "0xbE77d66D9053A2787eC707846584B7088d7Dfcf7",
      "gasPrice": {
        "_hex": "0xba43b7400"
      },
      "gasLimit": {
        "_hex": "0x5208"
      },
      "to": "0xC47Aaa860008be6f65B58c6C6E02a84e666EfE31",
      "value": {
        "_hex": "0x19fe4db16793e1c00"
      },
      "nonce": 0,
      "data": "0x",
      "r": "0x7fc01b28a1d081ce925312c3f8493f2aad600d3174ee4f38ac7ea0b3faf1ccf1",
      "s": "0x237d237464165fdf237fd1d5049889c2a38dd52136996e745f01a327c9955c98",
      "v": 28,
      "creates": null,
      "raw": "0xf86d80850ba43b740082520894c47aaa860008be6f65b58c6c6e02a84e666efe3189019fe4db16793e1c00801ca07fc01b28a1d081ce925312c3f8493f2aad600d3174ee4f38ac7ea0b3faf1ccf1a0237d237464165fdf237fd1d5049889c2a38dd52136996e745f01a327c9955c98",
      "networkId": 0,
      "chainId": 0
    }
  ]
}