{
  "hash": "0x4c01b1f7babdfd1a4d9ba04bd581442011388b5006d8c231050b5b5272f6fea9",
  "parentHash": "0x1100a674b9ecbd1eb5c46af46b8d4e74741c201f66f40d67269c413f8fc537f1",
  "number": 56176,
  "timestamp": 1439083103,
  "nonce": "0xcc398cc4d3b9b9cb",
  "difficulty": 1640032917601,
  "gasLimit": {
    "_hex": "0x2fefd8"
  },
  "gasUsed": {
    "_hex": "0x546c"
  },
  "miner": "0xEF247E639d49461D25F57e9362CadE3120910Ce0",
  "extraData": "0x476574682f76312e302e312f6c696e75782f676f312e342e32",
  "transactions": [
    {
      "hash": "0x7e721c067e304a8a9490f7a8619b79837deb49f2699861a59c1fb82bf962eec3",
      "blockHash": "0x4c01b1f7babdfd1a4d9ba04bd581442011388b5006d8c231050b5b5272f6fea9",
      "blockNumber": 56176,
      "transactionIndex": 0,
      "confirmations": null,
      "from": "0xcF2288ef4Ebf88e86dB13D8A0E0Bf52a056582c3",
      "gasPrice": {
        "_hex": "0xcbd4e6813"
      },
      "gasLimit": {
        "_hex": "0x55f0"
      },
      "to": "0x2910543Af39abA0Cd09dBb2D50200b3E800A63D2",
      "value": {
        "_hex": "0x1b1ae4d6e2ef500000"
      },
      "nonce": 1,
      "data": "0x454e39355536564d52",
      "r": "0xb0ee8baf56b05aa5bc12709bba69a9cd07c6a8794c8d7e90e6f66a12d59f57cd",
      "s": "0x0566570816f18324e0b94204eacfd234162a3a89402374e1da72b42ad0fced38",
      "v": 28,
      "creates": null,
      "raw": "0xf87601850cbd4e68138255f0942910543af39aba0cd09dbb2d50200b3e800a63d2891b1ae4d6e2ef50000089454e39355536564d521ca0b0ee8baf56b05aa5bc12709bba69a9cd07c6a8794c8d7e90e6f66a12d59f57cda00566570816f18324e0b94204eacfd234162a3a89402374e1da72b42ad0fced38",
      "networkId": 0,
      "chainId": 0
    }
  ]
}