{
  "hash": "0x01de4b5f6ff6daa08a82edf6ef6c88e670576e65c33f28abadb4d53ab18d8fe2",
  "parentHash": "0x2493871388b83e7661b228b58b48e5942ac62eb43a137c2423e4020e41ddc1a9",
  "number": 78378,
  "timestamp": 1439452895,
  "nonce": "0xbb2755b9a8d6621c",
  "difficulty": 2275381611015,
  "gasLimit": {
    "_hex": "0x2fefd8"
  },
  "gasUsed": {
    "_hex": "0xa410"
  },
  "miner": "0xe6A7a1d47ff21B6321162AEA7C6CB457D5476Bca",
  "extraData": "0x476574682f76312e302e312d38326566323666362f6c696e75782f676f312e34",
  "transactions": [
    {
      "hash": "0x252469eca6bce7104002cd46fe0e59d25acc27fbee569b9d3c2287dc4ac1e438",
      "blockHash": "0x01de4b5f6ff6daa08a82edf6ef6c88e670576e65c33f28abadb4d53ab18d8fe2",
      "blockNumber": 78378,
      "transactionIndex": 0,
      "confirmations": null,
      "from": "0x7744774422Cd8b2d5895D7Bc552b9A57388DB228",
      "gasPrice": {
        "_hex": "0x174876e800"
      },
      "gasLimit": {
        "_hex": "0x61a8"
      },
      "to": "0x6124163444367365023447541834685340125846",
      "value": {
        "_hex": "0xde0b6b3a7640000"
      },
      "nonce": 2,
      "data": "0x",
      "r": "0xf762c06c7945e0357af10f578fe69de3f74d9448c4eeb465b091baad11cfd138",
      "s": "0x6a076f35cbea46576bd350f4ca6130c63f28d203c620480b83082910138acdce",
      "v": 27,
      "creates": null,
      "raw": "0xf86c0285174876e8008261a8946124163444367365023447541834685340125846880de0b6b3a7640000801ba0f762c06c7945e0357af10f578fe69de3f74d9448c4eeb465b091baad11cfd138a06a076f35cbea46576bd350f4ca6130c63f28d203c620480b83082910138acdce",
      "networkId": 0,
      "chainId": 0
    },
    {
      "hash": "0x40491d0a940b45d988551713ae1c6488bce979aac4c0d28f578c76b44acd5564",
      "blockHash": "0x01de4b5f6ff6daa08a82edf6ef6c88e670576e65c33f28abadb4d53ab18d8fe2",
      "blockNumber": 78378,
      "transactionIndex": 1,
      "confirmations": null,
      "from": "0x7744774422Cd8b2d5895D7Bc552b9A57388DB228",
      "gasPrice": {
        "_hex": "0x174876e800"
      },
      "gasLimit": {
        "_hex": "0x61a8"
      },
      "to": "0xCaB1eD1EdA7910DCe45c85DAB54887a2611AE98E",
      "value": {
        "_hex": "0xde0b6b3a7640000"
      },
      "nonce": 3,
      "data": "0x",
      "r": "0x223914c20894af4b03c2aa2d994e98b8418016b2b4682b60eee85efb9f2a9c55",
      "s": "0x31be2a4d6f8f86a0b9a6afe7c0e663a1954a9c173c448c6c561b4d338dafacad",
      "v": 28,
      "creates": null,
      "raw": "0xf86c0385174876e8008261a894cab1ed1eda7910dce45c85dab54887a2611ae98e880de0b6b3a7640000801ca0223914c20894af4b03c2aa2d994e98b8418016b2b4682b60eee85efb9f2a9c55a031be2a4d6f8f86a0b9a6afe7c0e663a1954a9c173c448c6c561b4d338dafacad",
      "networkId": 0,
      "chainId": 0
    }
  ]
}