{
  "hash": "0xc1a7ad00d7d74c869f41b5ceb4374c6dd14aa29820be1e7c510458163349d0cb",
  "parentHash": "0xf4e2299b2c72b5214829098d37995e049bdf893ab55557a30bbd908f99192d26",
  "number": 76981,
  "timestamp": 1439429457,
  "nonce": "0xb3d3f25f00fab635",
  "difficulty": 2232833361299,
  "gasLimit": {
    "_hex": "0x2fefd8"
  },
  "gasUsed": {
    "_hex": "0x5208"
  },
  "miner": "0xf8E0CA3Ed80bd541b94BEdCf259e8CF2141A9523",
  "extraData": "0x476574682f76312e302e312f77696e646f77732f676f312e342e32",
  "transactions": [
    {
      "hash": "0x081f260488408cf6db3a7f239979f19a4a4d4213e91b7fa8601ff31551beec43",
      "blockHash": "0xc1a7ad00d7d74c869f41b5ceb4374c6dd14aa29820be1e7c510458163349d0cb",
      "blockNumber": 76981,
      "transactionIndex": 0,
      "confirmations": null,
      "from": "0x32Be343B94f860124dC4fEe278FDCBD38C102D88",
      "gasPrice": {
        "_hex": "0xd5502cb20"
      },
      "gasLimit": {
        "_hex": "0x5208"
      },
      "to": "0x863b7cf173D1398642AC3d3aCa23c5CcBEFaffc2",
      "value": {
        "_hex": "0x8aa39c121a270000"
      },
      "nonce": 360,
      "data": "0x",
      "r": "0x33185854a0d65ef9df5d2c67b830adcc9b948011506c24a2d3ddd120239b20c8",
      "s": "0x4d2921950383c3113868680ea9beb6a47b8782e1c7b1849a8c167e9d6bd34fd2",
      "v": 28,
      "creates": null,
      "raw": "0xf86e820168850d5502cb2082520894863b7cf173d1398642ac3d3aca23c5ccbefaffc2888aa39c121a270000801ca033185854a0d65ef9df5d2c67b830adcc9b948011506c24a2d3ddd120239b20c8a04d2921950383c3113868680ea9beb6a47b8782e1c7b1849a8c167e9d6bd34fd2",
      "networkId": 0,
      "chainId": 0
    }
  ]
}