{
  "hash": "0xc50d5140f119d7bc7958cede558618c39e3556052913a6ddd2025d42187cdce9",
  "parentHash": "0x16de8fbb98f60b36735b1e35c3dc26e9152eaaa318d5ba6c9eda7205a32ea6c6",
  "number": 114147,
  "timestamp": 1440035602,
  "nonce": "0xc278ab8f9b74cacd",
  "difficulty": 4459915988553,
  "gasLimit": {
    "_hex": "0x2fefd8"
  },
  "gasUsed": {
    "_hex": "0x5208"
  },
  "miner": "0xe6A7a1d47ff21B6321162AEA7C6CB457D5476Bca",
  "extraData": "0x476574682f76312e302e312d38326566323666362f6c696e75782f676f312e34",
  "transactions": [
    {
      "hash": "0xcfa9d6e0e42a32d0736bb8efd385cb83be2072e58b0f483ee506fe70ca4d842c",
      "blockHash": "0xc50d5140f119d7bc7958cede558618c39e3556052913a6ddd2025d42187cdce9",
      "blockNumber": 114147,
      "transactionIndex": 0,
      "confirmations": null,
      "from": "0x32Be343B94f860124dC4fEe278FDCBD38C102D88",
      "gasPrice": {
        "_hex": "0xd3b123bb2"
      },
      "gasLimit": {
        "_hex": "0x5208"
      },
      "to": "0x8c0A6b62918D317e3B431EfB67E3fB5eff333b1c",
      "value": {
        "_hex": "0x56ba3d73af34f0000"
      },
      "nonce": 1384,
      "data": "0x",
      "r": "0xbfe01b9bab36d509cb29c5cf665ccb35464840464a72b6ec727c034747133473",
      "s": "0x607ee2be3d0d301b4085a4f1d448f42a076459a3780f2389295e6f1bcf946f3a",
      "v": 28,
      "creates": null,
      "raw": "0xf86f820568850d3b123bb2825208948c0a6b62918d317e3b431efb67e3fb5eff333b1c89056ba3d73af34f0000801ca0bfe01b9bab36d509cb29c5cf665ccb35464840464a72b6ec727c034747133473a0607ee2be3d0d301b4085a4f1d448f42a076459a3780f2389295e6f1bcf946f3a",
      "networkId": 0,
      "chainId": 0
    }
  ]
}