{
  "hash": "0xa6145e7ded14eb3b9f00bd315e74426d5fba967e220f68653254b21a55b4e0d7",
  "parentHash": "0xfb58204ed3f9a5d42cee66e719082ec542a1096ac01bebd59f893b85a84d083f",
  "number": 98237,
  "timestamp": 1439769272,
  "nonce": "0x2f4f09363cd4dd68",
  "difficulty": 3870841210001,
  "gasLimit": {
    "_hex": "0x2fefd8"
  },
  "gasUsed": {
    "_hex": "0x5208"
  },
  "miner": "0xA1623430350C5df1b52B0b57483A5bb45d1796Da",
  "extraData": "0x476574682f76312e302e312d38326566323666362f6c696e75782f676f312e34",
  "transactions": [
    {
      "hash": "0xb0714080edacb4b5c6be23c3557dda26349f2f6f1133fee324a8b037b8bc2502",
      "blockHash": "0xa6145e7ded14eb3b9f00bd315e74426d5fba967e220f68653254b21a55b4e0d7",
      "blockNumber": 98237,
      "transactionIndex": 0,
      "confirmations": null,
      "from": "0x32Be343B94f860124dC4fEe278FDCBD38C102D88",
      "gasPrice": {
        "_hex": "0xcb4b91482"
      },
      "gasLimit": {
        "_hex": "0x5208"
      },
      "to": "0x120A270bbC009644e35F0bB6ab13f95b8199c4ad",
      "value": {
        "_hex": "0x21e19e0c9bab2400000"
      },
      "nonce": 1035,
      "data": "0x",
      "r": "0x5c11add272ab2d7d4a2b072b8894d522718a9bf9757664acf46440acd6faabdb",
      "s": "0x6b658339abdb7a9e27b6c89ee42d9f3414d33bd95055f2300f36bc26ba24cfac",
      "v": 28,
      "creates": null,
      "raw": "0xf87082040b850cb4b9148282520894120a270bbc009644e35f0bb6ab13f95b8199c4ad8a021e19e0c9bab2400000801ca05c11add272ab2d7d4a2b072b8894d522718a9bf9757664acf46440acd6faabdba06b658339abdb7a9e27b6c89ee42d9f3414d33bd95055f2300f36bc26ba24cfac",
      "networkId": 0,
      "chainId": 0
    }
  ]
}