{
  "hash": "0x0bf5bee373cd23b8447ed05cef7e18451ac989a780cff0bfe222d78d72d43a90",
  "parentHash": "0x9216b9e80ba938391c1ffccb87096f9b0fbd6f1146b3f2b097c14e28976ef165",
  "number": 95338,
  "timestamp": 1439722672,
  "nonce": "0x781e8d1fa635a9d6",
  "difficulty": 3555046746227,
  "gasLimit": {
    "_hex": "0x2fefd8"
  },
  "gasUsed": {
    "_hex": "0x5208"
  },
  "miner": "0xe6A7a1d47ff21B6321162AEA7C6CB457D5476Bca",
  "extraData": "0x476574682f76312e302e312d38326566323666362f6c696e75782f676f312e34",
  "transactions": [
    {
      "hash": "0x83749b37216bc95448e849a60ee6804fc1b9dadaeb4ab905acad1d94243702e7",
      "blockHash": "0x0bf5bee373cd23b8447ed05cef7e18451ac989a780cff0bfe222d78d72d43a90",
      "blockNumber": 95338,
      "transactionIndex": 0,
      "confirmations": null,
      "from": "0x557C2806B6ceA65a66F415bb2Ed1ce897B340745",
      "gasPrice": {
        "_hex": "0xe2b2ab262"
      },
      "gasLimit": {
        "_hex": "0x5208"
      },
      "to": "0x32Be343B94f860124dC4fEe278FDCBD38C102D88",
      "value": {
        "_hex": "0xddc2c6e63b15c00"
      },
      "nonce": 0,
      "data": "0x",
      "r": "0x077a8184966e28ca38404bbc08ccc9566c7a422801a98f62fd60f1f2023a6a6c",
      "s": "0x0e371d8cc7a652d19bdac0fc66be1fdb990213f16149feca41dbd055be6f80b8",
      "v": 27,
      "creates": null,
      "raw": "0xf86c80850e2b2ab2628252089432be343b94f860124dc4fee278fdcbd38c102d88880ddc2c6e63b15c00801ba0077a8184966e28ca38404bbc08ccc9566c7a422801a98f62fd60f1f2023a6a6ca00e371d8cc7a652d19bdac0fc66be1fdb990213f16149feca41dbd055be6f80b8",
      "networkId": 0,
      "chainId": 0
    }
  ]
}