{
  "hash": "0x49fb40236a430f7c2d7112ea2cb3c946928161fb1874b1b8342959ff627a8992",
  "parentHash": "0x34bbf9215a83114d16fe07d6a1d27d528cb1539cd0189d0592892170834193c3",
  "number": 108334,
  "timestamp": 1439938461,
  "nonce": "0xf29885c30dfad69b",
  "difficulty": 4366012996594,
  "gasLimit": {
    "_hex": "0x2fefd8"
  },
  "gasUsed": {
    "_hex": "0x5208"
  },
  "miner": "0x79d5794171E11dd5C2f0e26E1C187319db2FE6f7",
  "extraData": "0x",
  "transactions": [
    {
      "hash": "0x8ff7765218346a3b72db989791adbcb550cca595cfeaab6e90e80c98b3b3b23b",
      "blockHash": "0x49fb40236a430f7c2d7112ea2cb3c946928161fb1874b1b8342959ff627a8992",
      "blockNumber": 108334,
      "transactionIndex": 0,
      "confirmations": null,
      "from": "0x32Be343B94f860124dC4fEe278FDCBD38C102D88",
      "gasPrice": {
        "_hex": "0xdc07393f6"
      },
      "gasLimit": {
        "_hex": "0x5208"
      },
      "to": "0x2EaF4E2A46b789cCC288c8D1d9294e3FB0853896",
      "value": {
        "_hex": "0x8e911656518ce8000"
      },
      "nonce": 1249,
      "data": "0x",
      "r": "0xc2e2d5b58183529cec87674dc35e23a108b6545cc6b3946b970ac3c0e5b430cd",
      "s": "0x0f852eb8b7052204d433567f58b7310261717f198bf2f8219a0eb2b8745f57f7",
      "v": 28,
      "creates": null,
      "raw": "0xf86f8204e1850dc07393f6825208942eaf4e2a46b789ccc288c8d1d9294e3fb08538968908e911656518ce8000801ca0c2e2d5b58183529cec87674dc35e23a108b6545cc6b3946b970ac3c0e5b430cda00f852eb8b7052204d433567f58b7310261717f198bf2f8219a0eb2b8745f57f7",
      "networkId": 0,
      "chainId": 0
    }
  ]
}