{
  "hash": "0xfd4b2da2fbd9da1d67fa0fc7e7fe4752deaf75ef217e7742ac06fb22b11ebba9",
  "parentHash": "0x49c7b05ddcb45fb8382547b89e03a4c20b153a60863dc0281f51f79ff6c4a096",
  "number": 121697,
  "timestamp": 1440181110,
  "nonce": "0xc9b2093955d1ed97",
  "difficulty": 4486468366919,
  "gasLimit": {
    "_hex": "0x2fefd8"
  },
  "gasUsed": {
    "_hex": "0x5208"
  },
  "miner": "0x52bc44d5378309EE2abF1539BF71dE1b7d7bE3b5",
  "extraData": "0xd783010002844765746887676f312e342e32856c696e7578",
  "transactions": [
    {
      "hash": "0xc9e1075bd9145131d79cec5e5f08a4fcdd6288b82280f25d8dfd7d62b557659d",
      "blockHash": "0xfd4b2da2fbd9da1d67fa0fc7e7fe4752deaf75ef217e7742ac06fb22b11ebba9",
      "blockNumber": 121697,
      "transactionIndex": 0,
      "confirmations": null,
      "from": "0x4eC3C2a5775FBF9A1B95b594211a0Dc63f45D5be",
      "gasPrice": {
        "_hex": "0xdc27f604b"
      },
      "gasLimit": {
        "_hex": "0x5208"
      },
      "to": "0x32Be343B94f860124dC4fEe278FDCBD38C102D88",
      "value": {
        "_hex": "0x1eed357a4c42ec00"
      },
      "nonce": 1,
      "data": "0x",
      "r": "0x6c8e47d5dcf05a1311aff78ccebfc99ab5cbb4cc8e08d7953418e4caaed56035",
      "s": "0x2951f3e1fc2f28f7b2d1f4ab8910714dfdc873da19c7b7504db1e64f4485dc84",
      "v": 28,
      "creates": null,
      "raw": "0xf86c01850dc27f604b8252089432be343b94f860124dc4fee278fdcbd38c102d88881eed357a4c42ec00801ca06c8e47d5dcf05a1311aff78ccebfc99ab5cbb4cc8e08d7953418e4caaed56035a02951f3e1fc2f28f7b2d1f4ab8910714dfdc873da19c7b7504db1e64f4485dc84",
      "networkId": 0,
      "chainId": 0
    }
  ]
}