{
  "hash": "0x0bb68e22267cd7f9c3528e963168d360d97f619ae2d8df72e969ad95eefd1c5c",
  "parentHash": "0x985a1cd2937ce6e9556848406cbe7b5dcb48a9d227af82bf27a331699c31aa52",
  "number": 74291,
  "timestamp": 1439383793,
  "nonce": "0xeb272058ea669ccf",
  "difficulty": 2205373107038,
  "gasLimit": {
    "_hex": "0x2fefd8"
  },
  "gasUsed": {
    "_hex": "0x19a28"
  },
  "miner": "0xf8E0CA3Ed80bd541b94BEdCf259e8CF2141A9523",
  "extraData": "0x476574682f76312e302e312f77696e646f77732f676f312e342e32",
  "transactions": [
    {
      "hash": "0xb8f80e28e2190fcba961da260b5fab92d2b211ae55fef4b8ffdc069efaf8a36d",
      "blockHash": "0x0bb68e22267cd7f9c3528e963168d360d97f619ae2d8df72e969ad95eefd1c5c",
      "blockNumber": 74291,
      "transactionIndex": 0,
      "confirmations": null,
      "from": "0x2D1d94521E896625F8Ec3f65171Fa82262Da6BCF",
      "gasPrice": {
        "_hex": "0xdac47f63e"
      },
      "gasLimit": {
        "_hex": "0x5208"
      },
      "to": "0x32Be343B94f860124dC4fEe278FDCBD38C102D88",
      "value": {
        "_hex": "0x3e790778fcaa24000"
      },
      "nonce": 1,
      "data": "0x",
      "r": "0x1a21941daf9f47441403db40494e87c27ffd8d26d0f5eb94a3d20a85f0f139c1",
      "s": "0x5d4d516d6334bf4e414d192e824f56e85bfa673a29a2c3dd2661accd197c6bb3",
      "v": 27,
      "creates": null,
      "raw": "0xf86d01850dac47f63e8252089432be343b94f860124dc4fee278fdcbd38c102d888903e790778fcaa24000801ba01a21941daf9f47441403db40494e87c27ffd8d26d0f5eb94a3d20a85f0f139c1a05d4d516d6334bf4e414d192e824f56e85bfa673a29a2c3dd2661accd197c6bb3",
      "networkId": 0,
      "chainId": 0
    },
    {
      "hash": "0xe80cdf10ed62c1f97197e2d9abca9ddab6b90fcbe277c1f515fc174d1675341d",
      "blockHash": "0x0bb68e22267cd7f9c3528e963168d360d97f619ae2d8df72e969ad95eefd1c5c",
      "blockNumber": 74291,
      "transactionIndex": 1,
      "confirmations": null,
      "from": "0x267069452478cA39b3f5F1A4fFdD4131f50Bc977",
      "gasPrice": {
        "_hex": "0xd8712b789"
      },
      "gasLimit": {
        "_hex": "0x5208"
      },
      "to": "0x32Be343B94f860124dC4fEe278FDCBD38C102D88",
      "value": {
        "_hex": "0x211367d2908bd2000"
      },
      "nonce": 4,
      "data": "0x",
      "r": "0x997c5ac38330b2189808238ee3856f77674e1677ba3fdb8a1c1e5d56ba445dcc",
      "s": "0x0016ffc12c790824487d2504876b888eda93633c58559c86c89681eff330f2cb",
      "v": 27,
      "creates": null,
      "raw": "0xf86c04850d8712b7898252089432be343b94f860124dc4fee278fdcbd38c102d88890211367d2908bd2000801ba0997c5ac38330b2189808238ee3856f77674e1677ba3fdb8a1c1e5d56ba445dcc9f16ffc12c790824487d2504876b888eda93633c58559c86c89681eff330f2cb",
      "networkId": 0,
      "chainId": 0
    },
    {
      "hash": "0x5e59f9c1baf62cdbe4c77ce2563e61c34a4fc7df436e8104bd45126c13bcaead",
      "blockHash": "0x0bb68e22267cd7f9c3528e963168d360d97f619ae2d8df72e969ad95eefd1c5c",
      "blockNumber": 74291,
      "transactionIndex": 2,
      "confirmations": null,
      "from": "0x3B399fF2b96F27056Ab8a7f6e028b0dBaF386279",
      "gasPrice": {
        "_hex": "0xd8712b789"
      },
      "gasLimit": {
        "_hex": "0x5208"
      },
      "to": "0x32Be343B94f860124dC4fEe278FDCBD38C102D88",
      "value": {
        "_hex": "0x1f432d6b2839b1000"
      },
      "nonce": 1,
      "data": "0x",
      "r": "0xf97cd3a50dd2d2b5d07b507f937a61cdff35e11d6c776ddab19ab64cc857965f",
      "s": "0x2bc9637bac1f6f38344052f6ee7947aac67f19b0218cc099150a89c9466c13db",
      "v": 28,
      "creates": null,
      "raw": "0xf86d01850d8712b7898252089432be343b94f860124dc4fee278fdcbd38c102d888901f432d6b2839b1000801ca0f97cd3a50dd2d2b5d07b507f937a61cdff35e11d6c776ddab19ab64cc857965fa02bc9637bac1f6f38344052f6ee7947aac67f19b0218cc099150a89c9466c13db",
      "networkId": 0,
      "chainId": 0
    },
    {
      "hash": "0xac4ba7a3a20657e31f9db4f49bc26b04b8461f556a61ec15177185786bcbc54e",
      "blockHash": "0x0bb68e22267cd7f9c3528e963168d360d97f619ae2d8df72e969ad95eefd1c5c",
      "blockNumber": 74291,
      "transactionIndex": 3,
      "confirmations": null,
      "from": "0xbA86D58204A1f1fbe53Ff71aa038BC08cb4057e8",
      "gasPrice": {
        "_hex": "0xd8712b789"
      },
      "gasLimit": {
        "_hex": "0x5208"
      },
      "to": "0x32Be343B94f860124dC4fEe278FDCBD38C102D88",
      "value": {
        "_hex": "0x4addb4651b27a0000"
      },
      "nonce": 1,
      "data": "0x",
      "r": "0x0a3b5f458811e7e56c83513bd717e833a63e611c863d7259050685c7c7d58364",
      "s": "0x123b5d15383add02b0b2c519ee45fb8877ec982245440c3424da4f8acd8ca31f",
      "v": 27,
      "creates": null,
      "raw": "0xf86d01850d8712b7898252089432be343b94f860124dc4fee278fdcbd38c102d888904addb4651b27a0000801ba00a3b5f458811e7e56c83513bd717e833a63e611c863d7259050685c7c7d58364a0123b5d15383add02b0b2c519ee45fb8877ec982245440c3424da4f8acd8ca31f",
      "networkId": 0,
      "chainId": 0
    },
    {
      "hash": "0x22f6331fe7d7f2ca0344de47b1315ea85b903c79244042626eedf31077bce4ca",
      "blockHash": "0x0bb68e22267cd7f9c3528e963168d360d97f619ae2d8df72e969ad95eefd1c5c",
      "blockNumber": 74291,
      "transactionIndex": 4,
      "confirmations": null,
      "from": "0x6A8CC233E14F874983bB2F37D1DE706f6910Ef0b",
      "gasPrice": {
        "_hex": "0xd8712b789"
      },
      "gasLimit": {
        "_hex": "0x5208"
      },
      "to": "0x32Be343B94f860124dC4fEe278FDCBD38C102D88",
      "value": {
        "_hex": "0x2506c50cd278aa000"
      },
      "nonce": 3,
      "data": "0x",
      "r": "0xe6b73efd10910112be057f35e0ca6a4f34d33a532a18a135919c5f7505f1a414",
      "s": "0x750935b1ce319fb0464362babd33d53ef99bac6d650d1b070b9d453251a0808c",
      "v": 28,
      "creates": null,
      "raw": "0xf86d03850d8712b7898252089432be343b94f860124dc4fee278fdcbd38c102d888902506c50cd278aa000801ca0e6b73efd10910112be057f35e0ca6a4f34d33a532a18a135919c5f7505f1a414a0750935b1ce319fb0464362babd33d53ef99bac6d650d1b070b9d453251a0808c",
      "networkId": 0,
      "chainId": 0
    }
  ]
}