{
  "hash": "0x25395dd9f3c19c030b49345840b27febf6e15bb1fe858d1def3adea2c5b01367",
  "parentHash": "0x66507ef50e93751b32f3698bf4d0f802c9a043d328d24d2c23d9f6b1ed2fe66f",
  "number": 104493,
  "timestamp": 1439870654,
  "nonce": "0x029247f2d98bc5d0",
  "difficulty": 4361618804807,
  "gasLimit": {
    "_hex": "0x2fefd8"
  },
  "gasUsed": {
    "_hex": "0xa410"
  },
  "miner": "0x1a8E703197aCd1C0d3aB7ecD62dC01389F076E4b",
  "extraData": "0x476574682f76312e302e312f6c696e75782f676f312e342e32",
  "transactions": [
    {
      "hash": "0x1804baba22433e0ecbaaa793fd44f8a4c7aae959f74a3c6c23a0d0feb1aa3ba3",
      "blockHash": "0x25395dd9f3c19c030b49345840b27febf6e15bb1fe858d1def3adea2c5b01367",
      "blockNumber": 104493,
      "transactionIndex": 0,
      "confirmations": null,
      "from": "0x120A270bbC009644e35F0bB6ab13f95b8199c4ad",
      "gasPrice": {
        "_hex": "0xd140bc5fe"
      },
      "gasLimit": {
        "_hex": "0x3d090"
      },
      "to": "0xd1ef125DF7F4A93BED42b6189e26983008ebE727",
      "value": {
        "_hex": "0x5cf3f2819fc12dc00"
      },
      "nonce": 746,
      "data": "0x",
      "r": "0xc6fc5493cb3dc4a7a5d715ba2cd0d2c1619b5a3a15db285186cfe0d2d7ca9cf9",
      "s": "0x2a8c565cc086688230105f8d2ec8b77e03e55684c27d6b70cd2a375747f42903",
      "v": 27,
      "creates": null,
      "raw": "0xf8708202ea850d140bc5fe8303d09094d1ef125df7f4a93bed42b6189e26983008ebe7278905cf3f2819fc12dc00801ba0c6fc5493cb3dc4a7a5d715ba2cd0d2c1619b5a3a15db285186cfe0d2d7ca9cf9a02a8c565cc086688230105f8d2ec8b77e03e55684c27d6b70cd2a375747f42903",
      "networkId": 0,
      "chainId": 0
    },
    {
      "hash": "0x690d8af18140754c424839175dac0c29125b8cd3f366ba1f65cd1510934ede0a",
      "blockHash": "0x25395dd9f3c19c030b49345840b27febf6e15bb1fe858d1def3adea2c5b01367",
      "blockNumber": 104493,
      "transactionIndex": 1,
      "confirmations": null,
      "from": "0x120A270bbC009644e35F0bB6ab13f95b8199c4ad",
      "gasPrice": {
        "_hex": "0xd140bc5fe"
      },
      "gasLimit": {
        "_hex": "0x3d090"
      },
      "to": "0x9230b1300eF6Bc6abD4b702f79a69dee0fDCe4C1",
      "value": {
        "_hex": "0x6d2ccb25428a4400"
      },
      "nonce": 747,
      "data": "0x",
      "r": "0x20c89059c966b7eff0a23df33a059c327493957175f533d5d0311a14b5d6ee8d",
      "s": "0x322f363913124cbf0f371eb5989addae9c70a88c04e345b158d32b848adab010",
      "v": 27,
      "creates": null,
      "raw": "0xf86f8202eb850d140bc5fe8303d090949230b1300ef6bc6abd4b702f79a69dee0fdce4c1886d2ccb25428a4400801ba020c89059c966b7eff0a23df33a059c327493957175f533d5d0311a14b5d6ee8da0322f363913124cbf0f371eb5989addae9c70a88c04e345b158d32b848adab010",
      "networkId": 0,
      "chainId": 0
    }
  ]
}