{
  "hash": "0x238e61a955d3bc1bcba44343cc7f5b0eb014f18375feea94ee5c4ca57ddb3e8b",
  "parentHash": "0x958974c17b00e7c9781a539868b5bd996689bed5de5fb457d645d7e1e87801a6",
  "number": 121957,
  "timestamp": 1440185405,
  "nonce": "0xa07169e93dcf1850",
  "difficulty": 4490712634863,
  "gasLimit": {
    "_hex": "0x2fefd8"
  },
  "gasUsed": {
    "_hex": "0x14820"
  },
  "miner": "0x580992B51e3925e23280EfB93d3047C82f17E038",
  "extraData": "0x",
  "transactions": [
    {
      "hash": "0xe2a985d39ae75e6452d36cc00984a923b112007445e509231ab1db481c2bf7ce",
      "blockHash": "0x238e61a955d3bc1bcba44343cc7f5b0eb014f18375feea94ee5c4ca57ddb3e8b",
      "blockNumber": 121957,
      "transactionIndex": 0,
      "confirmations": null,
      "from": "0x46b29910396E1cF71678f81101334A180876E9b1",
      "gasPrice": {
        "_hex": "0xcc67b9bd0"
      },
      "gasLimit": {
        "_hex": "0x5208"
      },
      "to": "0x32Be343B94f860124dC4fEe278FDCBD38C102D88",
      "value": {
        "_hex": "0x3f8c94ba8844f400"
      },
      "nonce": 12,
      "data": "0x",
      "r": "0xe1eec363169266a82b00b54cc727b1dc7b1f1e27f0e742d2bd7307c4c593ddd4",
      "s": "0x39d855e61c99fd1b9a0d8315d65d0f4ab2ecf51fce35f88c374bc30cdca131f5",
      "v": 28,
      "creates": null,
      "raw": "0xf86c0c850cc67b9bd08252089432be343b94f860124dc4fee278fdcbd38c102d88883f8c94ba8844f400801ca0e1eec363169266a82b00b54cc727b1dc7b1f1e27f0e742d2bd7307c4c593ddd4a039d855e61c99fd1b9a0d8315d65d0f4ab2ecf51fce35f88c374bc30cdca131f5",
      "networkId": 0,
      "chainId": 0
    },
    {
      "hash": "0xd85bad446506bb5829224d057f0726894230da488e583f7219b7aad549b3c5b5",
      "blockHash": "0x238e61a955d3bc1bcba44343cc7f5b0eb014f18375feea94ee5c4ca57ddb3e8b",
      "blockNumber": 121957,
      "transactionIndex": 1,
      "confirmations": null,
      "from": "0xb1abce2918E21ddb93AA452731a12672A3d9F75a",
      "gasPrice": {
        "_hex": "0xcc67b9bd0"
      },
      "gasLimit": {
        "_hex": "0x5208"
      },
      "to": "0x32Be343B94f860124dC4fEe278FDCBD38C102D88",
      "value": {
        "_hex": "0x455f843aeb963800"
      },
      "nonce": 219,
      "data": "0x",
      "r": "0x86337c61880ec2ec5bc74086d90d5f8edad6cd9878b0919f71bae0b2cdd32c1a",
      "s": "0x39b4ef962c67973fa62f278dfdb3a23691b2d15d268c7f85c94c3f27d38b1b3a",
      "v": 28,
      "creates": null,
      "raw": "0xf86d81db850cc67b9bd08252089432be343b94f860124dc4fee278fdcbd38c102d8888455f843aeb963800801ca086337c61880ec2ec5bc74086d90d5f8edad6cd9878b0919f71bae0b2cdd32c1aa039b4ef962c67973fa62f278dfdb3a23691b2d15d268c7f85c94c3f27d38b1b3a",
      "networkId": 0,
      "chainId": 0
    },
    {
      "hash": "0xd899bc8e2c4beb7f854218fea4e60ce805677d62fc343409c8e409072f9433cc",
      "blockHash": "0x238e61a955d3bc1bcba44343cc7f5b0eb014f18375feea94ee5c4ca57ddb3e8b",
      "blockNumber": 121957,
      "transactionIndex": 2,
      "confirmations": null,
      "from": "0x608f4b86321a68453f9adf6F06F7Fc3E621739ad",
      "gasPrice": {
        "_hex": "0xcc67b9bd0"
      },
      "gasLimit": {
        "_hex": "0x5208"
      },
      "to": "0x32Be343B94f860124dC4fEe278FDCBD38C102D88",
      "value": {
        "_hex": "0x8ac30b0b19ead800"
      },
      "nonce": 117,
      "data": "0x",
      "r": "0x044195f9bac3027fdc6d088957f052b4a8c5f76c45000c8ecc6a3a79611dee2a",
      "s": "0x7d333271ee7568d2377a1a380ed9b8c04df7728b5304c488b772ff72fef6c740",
      "v": 28,
      "creates": null,
      "raw": "0xf86c75850cc67b9bd08252089432be343b94f860124dc4fee278fdcbd38c102d88888ac30b0b19ead800801ca0044195f9bac3027fdc6d088957f052b4a8c5f76c45000c8ecc6a3a79611dee2aa07d333271ee7568d2377a1a380ed9b8c04df7728b5304c488b772ff72fef6c740",
      "networkId": 0,
      "chainId": 0
    },
    {
      "hash": "0x6e34f667b938955ecca76f704c9d353e4875385746066c77bdc025a22c6bdcff",
      "blockHash": "0x238e61a955d3bc1bcba44343cc7f5b0eb014f18375feea94ee5c4ca57ddb3e8b",
      "blockNumber": 121957,
      "transactionIndex": 3,
      "confirmations": null,
      "from": "0xf79785E5a846aCea08F94379fCCe79B1054bDB99",
      "gasPrice": {
        "_hex": "0xcc67b9bd0"
      },
      "gasLimit": {
        "_hex": "0x5208"
      },
      "to": "0x32Be343B94f860124dC4fEe278FDCBD38C102D88",
      "value": {
        "_hex": "0x6f5cbfe82e733000"
      },
      "nonce": 19,
      "data": "0x",
      "r": "0x3d977e64781a5d30054f0a0dc13895e607ae0297ea36b2530d04cbcbdb6dafef",
      "s": "0x27ff7ec5427294348d886c05e4bee382a321bb1903b4c845edbe8d7855f515bd",
      "v": 28,
      "creates": null,
      "raw": "0xf86c13850cc67b9bd08252089432be343b94f860124dc4fee278fdcbd38c102d88886f5cbfe82e733000801ca03d977e64781a5d30054f0a0dc13895e607ae0297ea36b2530d04cbcbdb6dafefa027ff7ec5427294348d886c05e4bee382a321bb1903b4c845edbe8d7855f515bd",
      "networkId": 0,
      "chainId": 0
    }
  ]
}