{
  "hash": "0x739849f4a9dd2c888ffd9911d964db1ed6e908c7a21432de0fafcc3a102dda89",
  "parentHash": "0x8e3321f6953ee91649e22cdcb1529ef6283bdef35a3ded615dc532a139eb3ae0",
  "number": 51638,
  "timestamp": 1439008293,
  "nonce": "0xab4b01e60005c68b",
  "difficulty": 1558150387160,
  "gasLimit": {
    "_hex": "0xc8700"
  },
  "gasUsed": {
    "_hex": "0x7a120"
  },
  "miner": "0x1217627fe41A00f0b828317F43E6d58F47dBfc43",
  "extraData": "0x476574682f76312e302e302d66313265303136312f6c696e75782f676f312e34",
  "transactions": [
    {
      "hash": "0x7e7b86d38f3751d119b1ca9097785e0048b8dc90313a1643c824e8870e81e4fb",
      "blockHash": "0x739849f4a9dd2c888ffd9911d964db1ed6e908c7a21432de0fafcc3a102dda89",
      "blockNumber": 51638,
      "transactionIndex": 0,
      "confirmations": null,
      "from": "0xFCf9f6A78f06227522c6f948ec0119dA31680Ef7",
      "gasPrice": {
        "_hex": "0xd7f56563d"
      },
      "gasLimit": {
        "_hex": "0x7a120"
      },
      "to": "0xBAA54d6E90c3F4d7Ebec11bD180134C7eD8eBb52",
      "value": {
        "_hex": "0x16345785d8a0000"
      },
      "nonce": 43,
      "data": "0x",
      "r": "0x669c15dc6ff10c798df7156b61cafe8856ea2180c836f6304257ae6d13bb939b",
      "s": "0x230d5b3138df854ab635f41791546ec7a126c13442136126f1d027fde75d8038",
      "v": 28,
      "creates": null,
      "raw": "0xf86d2b850d7f56563d8307a12094baa54d6e90c3f4d7ebec11bd180134c7ed8ebb5288016345785d8a0000801ca0669c15dc6ff10c798df7156b61cafe8856ea2180c836f6304257ae6d13bb939ba0230d5b3138df854ab635f41791546ec7a126c13442136126f1d027fde75d8038",
      "networkId": 0,
      "chainId": 0
    }
  ]
}