{
  "hash": "0x13f768bfa2a0e65c69eb38fbd94fb23c1944758f8da5bb3d37b71c6e6f247a49",
  "parentHash": "0x23953264200346f868045404bd3cc98350443ef2bc726bec4c4fdad6c1ea6d98",
  "number": 75556,
  "timestamp": 1439405445,
  "nonce": "0x510693a90aa54820",
  "difficulty": 2214752005772,
  "gasLimit": {
    "_hex": "0x2fefd8"
  },
  "gasUsed": {
    "_hex": "0xe1a7"
  },
  "miner": "0xA1623430350C5df1b52B0b57483A5bb45d1796Da",
  "extraData": "0x476574682f76312e302e312d38326566323666362f6c696e75782f676f312e34",
  "transactions": [
    {
      "hash": "0x566f82ea6527b32d4ebe250898f9526fb05cfdc6abe2005a1ece3b3bf5944591",
      "blockHash": "0x13f768bfa2a0e65c69eb38fbd94fb23c1944758f8da5bb3d37b71c6e6f247a49",
      "blockNumber": 75556,
      "transactionIndex": 0,
      "confirmations": null,
      "from": "0x9724Ac4dc56e03379eBA5d157D1513EcC32cBD8f",
      "gasPrice": {
        "_hex": "0xcbffbb6ff"
      },
      "gasLimit": {
        "_hex": "0x493e0"
      },
      "to": "0xD79B4C6791784184e2755B2fC1659eaaB0f80456",
      "value": {
        "_hex": "0x29a2241af62c0000"
      },
      "nonce": 10,
      "data": "0x8d2161860000000000000000000000000000000000000000000000000000000000000099a6d6161f59abd9879f55cfc4736d8c0f144485ad9efcb24eb35261e3d1afa959",
      "r": "0x493c0549fc08c3aa84cc6634b35d178506962e0de01f1e63acd0b0378fbdb621",
      "s": "0x1d66642044828f94b050d78a72b3cdd35da19354f519e11e32ce8ebd6e4ed9d2",
      "v": 28,
      "creates": null,
      "raw": "0xf8b20a850cbffbb6ff830493e094d79b4c6791784184e2755b2fc1659eaab0f804568829a2241af62c0000b8448d2161860000000000000000000000000000000000000000000000000000000000000099a6d6161f59abd9879f55cfc4736d8c0f144485ad9efcb24eb35261e3d1afa9591ca0493c0549fc08c3aa84cc6634b35d178506962e0de01f1e63acd0b0378fbdb621a01d66642044828f94b050d78a72b3cdd35da19354f519e11e32ce8ebd6e4ed9d2",
      "networkId": 0,
      "chainId": 0
    },
    {
      "hash": "0xbf94e894b239efd96a8c946a9bab5248050bb6ae7eae4939a1a1ac96dbbf45e1",
      "blockHash": "0x13f768bfa2a0e65c69eb38fbd94fb23c1944758f8da5bb3d37b71c6e6f247a49",
      "blockNumber": 75556,
      "transactionIndex": 1,
      "confirmations": null,
      "from": "0xF87481A262E993a75F791E7859E71BaC36A606Eb",
      "gasPrice": {
        "_hex": "0xcb06ea94d"
      },
      "gasLimit": {
        "_hex": "0x5208"
      },
      "to": "0x32Be343B94f860124dC4fEe278FDCBD38C102D88",
      "value": {
        "_hex": "0x6815193507305c000"
      },
      "nonce": 16,
      "data": "0x",
      "r": "0xc3e4caaad8ffbf0bbb4f15e93be68546c4d48e89f3521930e3b60d0a1ad531d5",
      "s": "0x102780d7588b17a27200b8ce9cdffb87be05b6379d53e001582ad13428251fe0",
      "v": 27,
      "creates": null,
      "raw": "0xf86d10850cb06ea94d8252089432be343b94f860124dc4fee278fdcbd38c102d888906815193507305c000801ba0c3e4caaad8ffbf0bbb4f15e93be68546c4d48e89f3521930e3b60d0a1ad531d5a0102780d7588b17a27200b8ce9cdffb87be05b6379d53e001582ad13428251fe0",
      "networkId": 0,
      "chainId": 0
    }
  ]
}