{
  "hash": "0x00a45682162c739ed9a73ca1114581f8369d5bcfbbcf902d87ba901afbf1723d",
  "parentHash": "0x377c34c6a1c673d2a032ff23865b746a9d4c659866492622de877509ff9d3153",
  "number": 69874,
  "timestamp": 1439311157,
  "nonce": "0x57ab7cf570e6fed3",
  "difficulty": 2100355973330,
  "gasLimit": {
    "_hex": "0x2fefd8"
  },
  "gasUsed": {
    "_hex": "0xce7d"
  },
  "miner": "0x31995C46B15C84523cDEE26f49A681b8237e43F5",
  "extraData": "0x476574682f76312e302e312f77696e646f77732f676f312e342e32",
  "transactions": [
    {
      "hash": "0xecc11063c8dbb81cffc334710b5af604512b7fa60e5744d27a6291aa0171e7bc",
      "blockHash": "0x00a45682162c739ed9a73ca1114581f8369d5bcfbbcf902d87ba901afbf1723d",
      "blockNumber": 69874,
      "transactionIndex": 0,
      "confirmations": null,
      "from": "0x000Df160997ba9420e4622996b05447871848834",
      "gasPrice": {
        "_hex": "0xba43b7400"
      },
      "gasLimit": {
        "_hex": "0x985f6"
      },
      "to": "0xad5e5A5Bc4654dbeF0d5CABD7ABeB426769C073a",
      "value": {
        "_hex": "0xa"
      },
      "nonce": 4,
      "data": "0xfcfff16f",
      "r": "0x38b2655cfa94c01d6f1be727d687a6a1ab137d85be64f11c3f63676e1b67e2a3",
      "s": "0x298f3d4d7726e4518514f663ca5df894489f2a475523d14b6d2d1106d31dfff4",
      "v": 28,
      "creates": null,
      "raw": "0xf86904850ba43b7400830985f694ad5e5a5bc4654dbef0d5cabd7abeb426769c073a0a84fcfff16f1ca038b2655cfa94c01d6f1be727d687a6a1ab137d85be64f11c3f63676e1b67e2a3a0298f3d4d7726e4518514f663ca5df894489f2a475523d14b6d2d1106d31dfff4",
      "networkId": 0,
      "chainId": 0
    }
  ]
}