{
  "hash": "0x1ea09a53996e5c07a3ec62d97f109db4aefa2c2cd6f2dde33d9ab003f5a4c028",
  "parentHash": "0x3deda803432265304e6230613089ee73b004954778f81168111ccf6686f8fac9",
  "number": 110451,
  "timestamp": 1439974043,
  "nonce": "0x02f289f9914b4327",
  "difficulty": 4371309900834,
  "gasLimit": {
    "_hex": "0x2fefd8"
  },
  "gasUsed": {
    "_hex": "0x2409c"
  },
  "miner": "0x5F8F73E26CdF436f19Cb24C82F90A15AFe55b592",
  "extraData": "0x476574682f76312e302e312f77696e646f77732f676f312e342e32",
  "transactions": [
    {
      "hash": "0x1a7d3b525fc519d70b461ed38c647f806809feb3b20a737da80ad1a37627206a",
      "blockHash": "0x1ea09a53996e5c07a3ec62d97f109db4aefa2c2cd6f2dde33d9ab003f5a4c028",
      "blockNumber": 110451,
      "transactionIndex": 0,
      "confirmations": null,
      "from": "0xF2C14aDd753869D4EEdfefdCdFBA341Abfa1D702",
      "gasPrice": {
        "_hex": "0xd8d7712ec"
      },
      "gasLimit": {
        "_hex": "0x5208"
      },
      "to": "0x32Be343B94f860124dC4fEe278FDCBD38C102D88",
      "value": {
        "_hex": "0xdc4edc6ff8ba1000"
      },
      "nonce": 6,
      "data": "0x",
      "r": "0x2ce1baecfaf088d870ccdba348c6be0108b9270c2562f3bd05115bd6c12d0c44",
      "s": "0x032655e89bbabe2be2381dde1d018ad6cd1f41487c0f2a33f7936e637419365f",
      "v": 28,
      "creates": null,
      "raw": "0xf86c06850d8d7712ec8252089432be343b94f860124dc4fee278fdcbd38c102d8888dc4edc6ff8ba1000801ca02ce1baecfaf088d870ccdba348c6be0108b9270c2562f3bd05115bd6c12d0c44a0032655e89bbabe2be2381dde1d018ad6cd1f41487c0f2a33f7936e637419365f",
      "networkId": 0,
      "chainId": 0
    },
    {
      "hash": "0x679aaaf4e626f9102f45615913d22cb1a5fa15ea20a6625cb6c284ff91f584b6",
      "blockHash": "0x1ea09a53996e5c07a3ec62d97f109db4aefa2c2cd6f2dde33d9ab003f5a4c028",
      "blockNumber": 110451,
      "transactionIndex": 1,
      "confirmations": null,
      "from": "0x4CD33268dF93C6b4F6b3D504009EAE965Afe272d",
      "gasPrice": {
        "_hex": "0xd8d7712ec"
      },
      "gasLimit": {
        "_hex": "0x5208"
      },
      "to": "0x32Be343B94f860124dC4fEe278FDCBD38C102D88",
      "value": {
        "_hex": "0x9d331443fc964000"
      },
      "nonce": 6,
      "data": "0x",
      "r": "0x84571e33240552b495536025e6e44de16a8b5b5ba6725dfa35acc248eee900c3",
      "s": "0x2c1a6014a34e462cce23ebb38fe9e5ff4e57bac3169a2d1eb7907a365f24bafd",
      "v": 28,
      "creates": null,
      "raw": "0xf86c06850d8d7712ec8252089432be343b94f860124dc4fee278fdcbd38c102d88889d331443fc964000801ca084571e33240552b495536025e6e44de16a8b5b5ba6725dfa35acc248eee900c3a02c1a6014a34e462cce23ebb38fe9e5ff4e57bac3169a2d1eb7907a365f24bafd",
      "networkId": 0,
      "chainId": 0
    },
    {
      "hash": "0xa58e3b4bcb5c40ea0e280806eeab7c91c98a81c66b47a3cffcb3796319b43de6",
      "blockHash": "0x1ea09a53996e5c07a3ec62d97f109db4aefa2c2cd6f2dde33d9ab003f5a4c028",
      "blockNumber": 110451,
      "transactionIndex": 2,
      "confirmations": null,
      "from": "0xD51361E8863b74B1d3BF75246d30f33f9f103e1d",
      "gasPrice": {
        "_hex": "0xd8d7712ec"
      },
      "gasLimit": {
        "_hex": "0x5208"
      },
      "to": "0x32Be343B94f860124dC4fEe278FDCBD38C102D88",
      "value": {
        "_hex": "0x9437c0e015996000"
      },
      "nonce": 6,
      "data": "0x",
      "r": "0x772f982f57bd1d61bc45ab74a6318db9f2cc2aa281bab9fd6071e4a5daa064c4",
      "s": "0x548fe995d1e41568d5257952418c3bc3ab7c44d913652323dc7754ac981cab1d",
      "v": 28,
      "creates": null,
      "raw": "0xf86c06850d8d7712ec8252089432be343b94f860124dc4fee278fdcbd38c102d88889437c0e015996000801ca0772f982f57bd1d61bc45ab74a6318db9f2cc2aa281bab9fd6071e4a5daa064c4a0548fe995d1e41568d5257952418c3bc3ab7c44d913652323dc7754ac981cab1d",
      "networkId": 0,
      "chainId": 0
    },
    {
      "hash": "0xbe7109e7357bd6a9c48a8374b08a45543230887bf6910f6ad89d759c4a053a2b",
      "blockHash": "0x1ea09a53996e5c07a3ec62d97f109db4aefa2c2cd6f2dde33d9ab003f5a4c028",
      "blockNumber": 110451,
      "transactionIndex": 3,
      "confirmations": null,
      "from": "0xD671e71108Bd20F1A8e2A4f73a7449Bf8DAa840f",
      "gasPrice": {
        "_hex": "0xd8d7712ec"
      },
      "gasLimit": {
        "_hex": "0x5208"
      },
      "to": "0x32Be343B94f860124dC4fEe278FDCBD38C102D88",
      "value": {
        "_hex": "0x4186e73d58009c00"
      },
      "nonce": 7,
      "data": "0x",
      "r": "0x24b70e39086d4a1a11a1f6e87442e9b08a7de2de4033815903ff88c0769ecd3f",
      "s": "0x6b9fa1dfd4df36d9cd7121bf0c97dca4e44de012234e6fd4b242318cc923763d",
      "v": 28,
      "creates": null,
      "raw": "0xf86c07850d8d7712ec8252089432be343b94f860124dc4fee278fdcbd38c102d88884186e73d58009c00801ca024b70e39086d4a1a11a1f6e87442e9b08a7de2de4033815903ff88c0769ecd3fa06b9fa1dfd4df36d9cd7121bf0c97dca4e44de012234e6fd4b242318cc923763d",
      "networkId": 0,
      "chainId": 0
    },
    {
      "hash": "0x47c410bcacf1d26b1c5f0e0d90f9c8eefcb908b94a5ffe13ab21df58fc63dba5",
      "blockHash": "0x1ea09a53996e5c07a3ec62d97f109db4aefa2c2cd6f2dde33d9ab003f5a4c028",
      "blockNumber": 110451,
      "transactionIndex": 4,
      "confirmations": null,
      "from": "0xc7Dda420b6e858441b9Ea42B762dF14C59552fbb",
      "gasPrice": {
        "_hex": "0xd8d7712ec"
      },
      "gasLimit": {
        "_hex": "0x5208"
      },
      "to": "0x32Be343B94f860124dC4fEe278FDCBD38C102D88",
      "value": {
        "_hex": "0x4cfc4d3715ecf800"
      },
      "nonce": 4,
      "data": "0x",
      "r": "0xf5aa4223f49179cb2e8e0a94dd04ce189069cef29b70ae069256a96612a61624",
      "s": "0x73049e04d8a4933a38684ab3ffa71f0b2baf93c4262c2c39d1dd8a9e11ad7d62",
      "v": 28,
      "creates": null,
      "raw": "0xf86c04850d8d7712ec8252089432be343b94f860124dc4fee278fdcbd38c102d88884cfc4d3715ecf800801ca0f5aa4223f49179cb2e8e0a94dd04ce189069cef29b70ae069256a96612a61624a073049e04d8a4933a38684ab3ffa71f0b2baf93c4262c2c39d1dd8a9e11ad7d62",
      "networkId": 0,
      "chainId": 0
    },
    {
      "hash": "0xfacabbb5fb1c5572043c7f0a34601298d796c7d7b821f6534ab5e12cd256bf2f",
      "blockHash": "0x1ea09a53996e5c07a3ec62d97f109db4aefa2c2cd6f2dde33d9ab003f5a4c028",
      "blockNumber": 110451,
      "transactionIndex": 5,
      "confirmations": null,
      "from": "0x2995476Bf0F3620Eafa6a213d544e6508Fae4Afd",
      "gasPrice": {
        "_hex": "0xd7d40ace3"
      },
      "gasLimit": {
        "_hex": "0x55f0"
      },
      "to": "0x2910543Af39abA0Cd09dBb2D50200b3E800A63D2",
      "value": {
        "_hex": "0x4563918244f40000"
      },
      "nonce": 1,
      "data": "0x454e4d474b45384d52",
      "r": "0x5a98bd6398034e1af9ac154ad8e782aca102b9de93cae57d2e97ba8f81fbe681",
      "s": "0x55d449526927e015e86a7ed244e8cdfec15ed5e1d4067ece7c81580ea331b7e5",
      "v": 28,
      "creates": null,
      "raw": "0xf87501850d7d40ace38255f0942910543af39aba0cd09dbb2d50200b3e800a63d2884563918244f4000089454e4d474b45384d521ca05a98bd6398034e1af9ac154ad8e782aca102b9de93cae57d2e97ba8f81fbe681a055d449526927e015e86a7ed244e8cdfec15ed5e1d4067ece7c81580ea331b7e5",
      "networkId": 0,
      "chainId": 0
    },
    {
      "hash": "0xd05d109c61df0a19814f0ee9fd1a4588b078e4feea723b9ec09a24d3806fa5ba",
      "blockHash": "0x1ea09a53996e5c07a3ec62d97f109db4aefa2c2cd6f2dde33d9ab003f5a4c028",
      "blockNumber": 110451,
      "transactionIndex": 6,
      "confirmations": null,
      "from": "0x0A38f5Ba343D4eA8641F955ecf98e1c43dF1B5a3",
      "gasPrice": {
        "_hex": "0xd6a754e83"
      },
      "gasLimit": {
        "_hex": "0x5208"
      },
      "to": "0x32Be343B94f860124dC4fEe278FDCBD38C102D88",
      "value": {
        "_hex": "0x271f8b9b62bd88000"
      },
      "nonce": 5,
      "data": "0x",
      "r": "0x74633ef15471a2f7c75e6d14a47806ce4fc5cd4d6052f638629acfc3fe409cfe",
      "s": "0x432dd46801f4ba8b0793bce697015b1916eabb21c6dcf1b06c4606f199bb0464",
      "v": 28,
      "creates": null,
      "raw": "0xf86d05850d6a754e838252089432be343b94f860124dc4fee278fdcbd38c102d88890271f8b9b62bd88000801ca074633ef15471a2f7c75e6d14a47806ce4fc5cd4d6052f638629acfc3fe409cfea0432dd46801f4ba8b0793bce697015b1916eabb21c6dcf1b06c4606f199bb0464",
      "networkId": 0,
      "chainId": 0
    }
  ]
}