{
  "hash": "0xb3258c74ec1d5a8e5947d7188a72ee3185ed29bb6f4920f8e1b34a396f10ea42",
  "parentHash": "0x5ee6bba594ea95bb5ded0bb330cf7acf54ff764d34d3175c2e6eed3608a2f664",
  "number": 82997,
  "timestamp": 1439528254,
  "nonce": "0x9f213eb7cf49e923",
  "difficulty": 2407830326211,
  "gasLimit": {
    "_hex": "0x2fefd8"
  },
  "gasUsed": {
    "_hex": "0x5208"
  },
  "miner": "0xf8E0CA3Ed80bd541b94BEdCf259e8CF2141A9523",
  "extraData": "0x476574682f76312e302e312f77696e646f77732f676f312e342e32",
  "transactions": [
    {
      "hash": "0x236718ac45b8f7a7cccb3e328dcdf44c097d3a3e41d8527d366308ab3275ab78",
      "blockHash": "0xb3258c74ec1d5a8e5947d7188a72ee3185ed29bb6f4920f8e1b34a396f10ea42",
      "blockNumber": 82997,
      "transactionIndex": 0,
      "confirmations": null,
      "from": "0x120A270bbC009644e35F0bB6ab13f95b8199c4ad",
      "gasPrice": {
        "_hex": "0xcd113b407"
      },
      "gasLimit": {
        "_hex": "0x15f90"
      },
      "to": "0x8Ab53580aD08Bf9cDaa65748fb4d3Fbbf4Ae1FC5",
      "value": {
        "_hex": "0x1491d416578ace8c00"
      },
      "nonce": 408,
      "data": "0x",
      "r": "0x3037f7db13099b800daf476fdf3a17a4ed0789a4c0a8ad648c5df8c46bac90af",
      "s": "0x6dc517a40fe1061a116296479aed82e60db7afd538011565b2a842078507ab4b",
      "v": 28,
      "creates": null,
      "raw": "0xf870820198850cd113b40783015f90948ab53580ad08bf9cdaa65748fb4d3fbbf4ae1fc5891491d416578ace8c00801ca03037f7db13099b800daf476fdf3a17a4ed0789a4c0a8ad648c5df8c46bac90afa06dc517a40fe1061a116296479aed82e60db7afd538011565b2a842078507ab4b",
      "networkId": 0,
      "chainId": 0
    }
  ]
}