{
  "hash": "0x4cd5192800e3b8c435568a130f9bdf5f70aff91c49857fc4e51579edc698baad",
  "parentHash": "0x66d3f6cdb748adba28a9e1dfd49da8ea6d77fd99562439f60681614abc467017",
  "number": 79577,
  "timestamp": 1439471925,
  "nonce": "0xbc3044906ab8039a",
  "difficulty": 2341550796737,
  "gasLimit": {
    "_hex": "0x2fefd8"
  },
  "gasUsed": {
    "_hex": "0x4a70"
  },
  "miner": "0x157c6f2431eB1a95797EE86F7d17b3c0FD47A247",
  "extraData": "0x476574682f76312e302e312f77696e646f77732f676f312e342e32",
  "transactions": [
    {
      "hash": "0x8c7a050ab5453f5b6b1c75b1e32525269cdb82dd3fc6c0994defbd5f132fc478",
      "blockHash": "0x4cd5192800e3b8c435568a130f9bdf5f70aff91c49857fc4e51579edc698baad",
      "blockNumber": 79577,
      "transactionIndex": 0,
      "confirmations": null,
      "from": "0x869e88783E4c2E97d967A89E1aca4523eeAB3D7C",
      "gasPrice": {
        "_hex": "0xcc468a916"
      },
      "gasLimit": {
        "_hex": "0x15f90"
      },
      "to": "0xE7B3A5522a9E1Fbfc7Ccc77B8f0B56c341C76498",
      "value": {
        "_hex": "0x0"
      },
      "nonce": 2,
      "data": "0x6198e339000000000000000000000000000000000000000000000000000000000000012c",
      "r": "0x32214c3da3b1901c732e5714cac649d94cf6a34b2afeb6bf62b312d5df7c02f9",
      "s": "0x6947474dca8a36d738790200ad4b6c5e9af6882d9037c851d9e766c5c452214d",
      "v": 27,
      "creates": null,
      "raw": "0xf88902850cc468a91683015f9094e7b3a5522a9e1fbfc7ccc77b8f0b56c341c7649880a46198e339000000000000000000000000000000000000000000000000000000000000012c1ba032214c3da3b1901c732e5714cac649d94cf6a34b2afeb6bf62b312d5df7c02f9a06947474dca8a36d738790200ad4b6c5e9af6882d9037c851d9e766c5c452214d",
      "networkId": 0,
      "chainId": 0
    }
  ]
}