{
  "hash": "0x0d7a1deae9edecefa452382730761583f62be09e6f6736087a2d3d3bd0b704eb",
  "parentHash": "0x13f5b07522bb2d7fdd4bb273cbd9cd4702d7308aa7bfc4435c55474cfbe38bba",
  "number": 94695,
  "timestamp": 1439712558,
  "nonce": "0x533835334c7c2004",
  "difficulty": 3484851148861,
  "gasLimit": {
    "_hex": "0x2fefd8"
  },
  "gasUsed": {
    "_hex": "0xf618"
  },
  "miner": "0xe6A7a1d47ff21B6321162AEA7C6CB457D5476Bca",
  "extraData": "0x476574682f76312e302e312d38326566323666362f6c696e75782f676f312e34",
  "transactions": [
    {
      "hash": "0x2b3cdcf3f90849f0425c1cda23877e0c8ca280da3ee071d58b01209783df3748",
      "blockHash": "0x0d7a1deae9edecefa452382730761583f62be09e6f6736087a2d3d3bd0b704eb",
      "blockNumber": 94695,
      "transactionIndex": 0,
      "confirmations": null,
      "from": "0x6964b95BF8BA16b837e2f3Ae8dA7D299553eC1f7",
      "gasPrice": {
        "_hex": "0xde4b6f222"
      },
      "gasLimit": {
        "_hex": "0x5208"
      },
      "to": "0x32Be343B94f860124dC4fEe278FDCBD38C102D88",
      "value": {
        "_hex": "0x2a66b8e2c08c4c000"
      },
      "nonce": 5,
      "data": "0x",
      "r": "0xfbca61d49a7399171b03d387d59468516f32fc6bb88c350dd49d7ac618f3aa78",
      "s": "0x0ebc957ffb02ab27bc88e7fd85f5c522ba9681810b33ed60d4a7aacd75aa9dd5",
      "v": 28,
      "creates": null,
      "raw": "0xf86d05850de4b6f2228252089432be343b94f860124dc4fee278fdcbd38c102d888902a66b8e2c08c4c000801ca0fbca61d49a7399171b03d387d59468516f32fc6bb88c350dd49d7ac618f3aa78a00ebc957ffb02ab27bc88e7fd85f5c522ba9681810b33ed60d4a7aacd75aa9dd5",
      "networkId": 0,
      "chainId": 0
    },
    {
      "hash": "0xacdc2b3d606c24c7f2cb5396ec27d740969eedf59eb5d6c8c9ea8cb608bf1695",
      "blockHash": "0x0d7a1deae9edecefa452382730761583f62be09e6f6736087a2d3d3bd0b704eb",
      "blockNumber": 94695,
      "transactionIndex": 1,
      "confirmations": null,
      "from": "0x18883522e2679aA9b41E0fA688F20c3802897525",
      "gasPrice": {
        "_hex": "0xde4b6f222"
      },
      "gasLimit": {
        "_hex": "0x5208"
      },
      "to": "0x32Be343B94f860124dC4fEe278FDCBD38C102D88",
      "value": {
        "_hex": "0x8ebc3326a0633000"
      },
      "nonce": 5,
      "data": "0x",
      "r": "0xaead7e485a262761a52ca23d96065f8608605ad1434b984a8d3e31b92655d90f",
      "s": "0x0697d5424a5ad19a1d23f4915049c4f2fb5bf781b3ea26b3b854df18f45de07f",
      "v": 28,
      "creates": null,
      "raw": "0xf86c05850de4b6f2228252089432be343b94f860124dc4fee278fdcbd38c102d88888ebc3326a0633000801ca0aead7e485a262761a52ca23d96065f8608605ad1434b984a8d3e31b92655d90fa00697d5424a5ad19a1d23f4915049c4f2fb5bf781b3ea26b3b854df18f45de07f",
      "networkId": 0,
      "chainId": 0
    },
    {
      "hash": "0xa76d40556d0c803bc4fc2cef8949952e728f302c78d5b0cb4fdd9c8057a5089e",
      "blockHash": "0x0d7a1deae9edecefa452382730761583f62be09e6f6736087a2d3d3bd0b704eb",
      "blockNumber": 94695,
      "transactionIndex": 2,
      "confirmations": null,
      "from": "0x3629B45bBf972aDc23C064D31B7d7c6ce17415D5",
      "gasPrice": {
        "_hex": "0xde4b6f222"
      },
      "gasLimit": {
        "_hex": "0x5208"
      },
      "to": "0x32Be343B94f860124dC4fEe278FDCBD38C102D88",
      "value": {
        "_hex": "0x361f7973845c9a000"
      },
      "nonce": 2,
      "data": "0x",
      "r": "0x47c22b9938932b4b6b21522926e43771b16dcf3fe6d043b3e3dd457d0a376654",
      "s": "0x2965fc9d0173f0b11c35b559b830e6bd1239921f8ab7f7c3da8696a057bcb448",
      "v": 27,
      "creates": null,
      "raw": "0xf86d02850de4b6f2228252089432be343b94f860124dc4fee278fdcbd38c102d88890361f7973845c9a000801ba047c22b9938932b4b6b21522926e43771b16dcf3fe6d043b3e3dd457d0a376654a02965fc9d0173f0b11c35b559b830e6bd1239921f8ab7f7c3da8696a057bcb448",
      "networkId": 0,
      "chainId": 0
    }
  ]
}