{
  "hash": "0x10aeb165326d471206adbe5b0b1d2107d37e242bf7f96b4a2d0fa5fe9a3e4357",
  "parentHash": "0x50d71b69709958fdcb61a0d2dcff3df7503eea2170dc21ebc436224f35300cdd",
  "number": 72286,
  "timestamp": 1439350405,
  "nonce": "0x025715dbfc9c57bb",
  "difficulty": 2164290834182,
  "gasLimit": {
    "_hex": "0x2fefd8"
  },
  "gasUsed": {
    "_hex": "0x5208"
  },
  "miner": "0x580992B51e3925e23280EfB93d3047C82f17E038",
  "extraData": "0x476574682f76312e302e312f6c696e75782f676f312e342e32",
  "transactions": [
    {
      "hash": "0xe38acb0b3a6459c5913986a3c395c1ca1ed8a49a5d49b7cb5dbca0f97b91632f",
      "blockHash": "0x10aeb165326d471206adbe5b0b1d2107d37e242bf7f96b4a2d0fa5fe9a3e4357",
      "blockNumber": 72286,
      "transactionIndex": 0,
      "confirmations": null,
      "from": "0x2910543Af39abA0Cd09dBb2D50200b3E800A63D2",
      "gasPrice": {
        "_hex": "0xcda184151"
      },
      "gasLimit": {
        "_hex": "0x5208"
      },
      "to": "0x326Be8F71bFb0379f989aAB1CC1fE37f0a771f60",
      "value": {
        "_hex": "0x5a564756e8418c0000"
      },
      "nonce": 279,
      "data": "0x",
      "r": "0xff8cfaa363b349127dd2ce0cf7444c9c6dbc7eac64c30e23da02a80c6d5c4a70",
      "s": "0x13fb790ef4c376d6de4bed3573a98f8208fd1ac36136d59494b7955f97702346",
      "v": 28,
      "creates": null,
      "raw": "0xf86f820117850cda18415182520894326be8f71bfb0379f989aab1cc1fe37f0a771f60895a564756e8418c0000801ca0ff8cfaa363b349127dd2ce0cf7444c9c6dbc7eac64c30e23da02a80c6d5c4a70a013fb790ef4c376d6de4bed3573a98f8208fd1ac36136d59494b7955f97702346",
      "networkId": 0,
      "chainId": 0
    }
  ]
}