{
  "hash": "0x9d1809a5e12d474c8b4b2aeff64a9ff7d0ba4b7388bd1b8dcbe9e6488d2b57bf",
  "parentHash": "0x0418c765632e2797effac59430cdbf408a94f86867204dc8b5553d1ac70c5ee1",
  "number": 63315,
  "timestamp": 1439202494,
  "nonce": "0xd38de81cd93af4f3",
  "difficulty": 1821795070972,
  "gasLimit": {
    "_hex": "0x2fe3de"
  },
  "gasUsed": {
    "_hex": "0x546c"
  },
  "miner": "0xA10C59651885FeAaac91F871082a23BBbaBeDfCf",
  "extraData": "0x476574682f76312e302e302f77696e646f77732f676f312e342e32",
  "transactions": [
    {
      "hash": "0xbc68cb0b2ec7dff061c3f16daf3642c7e09b857ceebb6ac18c7dc7cbf879817f",
      "blockHash": "0x9d1809a5e12d474c8b4b2aeff64a9ff7d0ba4b7388bd1b8dcbe9e6488d2b57bf",
      "blockNumber": 63315,
      "transactionIndex": 0,
      "confirmations": null,
      "from": "0x9d369165fb70b81A3A765F188FD60CBe5e7b0968",
      "gasPrice": {
        "_hex": "0x110c8f7d8de"
      },
      "gasLimit": {
        "_hex": "0xc350"
      },
      "to": "0x2910543Af39abA0Cd09dBb2D50200b3E800A63D2",
      "value": {
        "_hex": "0x3635c9adc5dea00000"
      },
      "nonce": 1,
      "data": "0x454e44373952365147",
      "r": "0x55cabff032ab0442e3022843bc04839640bcaf2966c084a29a589030ba263688",
      "s": "0xb735fb7cf9824a3dfdfa5b8a23a8d0ce307d6090a041d97aaa963ea0b871b9e0",
      "v": 28,
      "creates": null,
      "raw": "0xf87701860110c8f7d8de82c350942910543af39aba0cd09dbb2d50200b3e800a63d2893635c9adc5dea0000089454e443739523651471ca055cabff032ab0442e3022843bc04839640bcaf2966c084a29a589030ba263688a0b735fb7cf9824a3dfdfa5b8a23a8d0ce307d6090a041d97aaa963ea0b871b9e0",
      "networkId": 0,
      "chainId": 0
    }
  ]
}