{
  "hash": "0xb13645388b8316c2bcbcf4f55717f9cc6ea87d3de9a1071e885bda92599f336a",
  "parentHash": "0x2ffd91cf3a4bcecb940429a16b507f5367b3cc0d5d14f796dce886b4bde5fde9",
  "number": 46709,
  "timestamp": 1438927854,
  "nonce": "0xbc6d3080b62e21a2",
  "difficulty": 1455339766063,
  "gasLimit": {
    "_hex": "0x734c"
  },
  "gasUsed": {
    "_hex": "0x5208"
  },
  "miner": "0xeB1325C8D9d3ea8D74aC11F4B00F1B2367686319",
  "extraData": "0x476574682f76312e302e312f77696e646f77732f676f312e342e32",
  "transactions": [
    {
      "hash": "0x10d5c5f2386c6d6d93ca6b43fa25e8679971d07448db8d6c81d856ff3c3c001a",
      "blockHash": "0xb13645388b8316c2bcbcf4f55717f9cc6ea87d3de9a1071e885bda92599f336a",
      "blockNumber": 46709,
      "transactionIndex": 0,
      "confirmations": null,
      "from": "0x08166F02313FEae18Bb044e7877C808b55b5BF58",
      "gasPrice": {
        "_hex": "0x746a528800"
      },
      "gasLimit": {
        "_hex": "0x5208"
      },
      "to": "0xad00B7a324f31351d397408c8c3952Ea198317eB",
      "value": {
        "_hex": "0x6a8451cdd1bae5c000"
      },
      "nonce": 1,
      "data": "0x",
      "r": "0x7ebe1d86f8825ced92984532d3eb55bb6a6e5de91ff27c64ec2616b74812bd03",
      "s": "0x7568220ffe187d7f809429174203a477e97faec361a17a6d36a76d319b58fa90",
      "v": 28,
      "creates": null,
      "raw": "0xf86d0185746a52880082520894ad00b7a324f31351d397408c8c3952ea198317eb896a8451cdd1bae5c000801ca07ebe1d86f8825ced92984532d3eb55bb6a6e5de91ff27c64ec2616b74812bd03a07568220ffe187d7f809429174203a477e97faec361a17a6d36a76d319b58fa90",
      "networkId": 0,
      "chainId": 0
    }
  ]
}