{
  "hash": "0x31dd413d673086a12dcc739b8bddb10c83abb9be02f06bed806b45c61af850f8",
  "parentHash": "0x22b6a812065b8034ea81a661349c8984dfcc320718b2c452ee88ec63b4a7c8bb",
  "number": 46363,
  "timestamp": 1438921861,
  "nonce": "0xe382db0aa9ebca3b",
  "difficulty": 1462523617721,
  "gasLimit": {
    "_hex": "0x5cfe"
  },
  "gasUsed": {
    "_hex": "0x5208"
  },
  "miner": "0x040F866D0793aEbf4DaCDA92B2F2128e8599B5CF",
  "extraData": "0x476574682f76312e302e312f6c696e75782f676f312e342e32",
  "transactions": [
    {
      "hash": "0xd6ed1f125c4222b5039f169eab9e81df1ebd1bd09f87faf0e11cdf0d6601c4f0",
      "blockHash": "0x31dd413d673086a12dcc739b8bddb10c83abb9be02f06bed806b45c61af850f8",
      "blockNumber": 46363,
      "transactionIndex": 0,
      "confirmations": null,
      "from": "0x9252A9C83D5703eDC585CfDcE80d5F903D357514",
      "gasPrice": {
        "_hex": "0x8bb2c97000"
      },
      "gasLimit": {
        "_hex": "0x5208"
      },
      "to": "0xC54671b79ffCdc38C550BFC2F43Aca4FAf8d6f64",
      "value": {
        "_hex": "0x8963dd8c2c5e0000"
      },
      "nonce": 0,
      "data": "0x",
      "r": "0xa42857246586f9785b68d332a5d6699053a17553a0de0ce5dd94bfcf98841f30",
      "s": "0x47b935f514c80c58989524f98bf05f6c779e8381f05261336ad80f4200c0a348",
      "v": 27,
      "creates": null,
      "raw": "0xf86c80858bb2c9700082520894c54671b79ffcdc38c550bfc2f43aca4faf8d6f64888963dd8c2c5e0000801ba0a42857246586f9785b68d332a5d6699053a17553a0de0ce5dd94bfcf98841f30a047b935f514c80c58989524f98bf05f6c779e8381f05261336ad80f4200c0a348",
      "networkId": 0,
      "chainId": 0
    }
  ]
}