{
  "hash": "0xa67f025178bc8349f55d29a7955df0f859dfc8b3f5f0312a005deadd3ca00864",
  "parentHash": "0xbd60f4619107de0678b4cace71dd13959b5eb3f134afc84b8751cda7b7972d45",
  "number": 89063,
  "timestamp": 1439617692,
  "nonce": "0xf1e5f2cc0667bc66",
  "difficulty": 3259956658390,
  "gasLimit": {
    "_hex": "0x2fefd8"
  },
  "gasUsed": {
    "_hex": "0xa410"
  },
  "miner": "0xe6A7a1d47ff21B6321162AEA7C6CB457D5476Bca",
  "extraData": "0x476574682f76312e302e312d38326566323666362f6c696e75782f676f312e34",
  "transactions": [
    {
      "hash": "0xda1aa591f72606c5357c93e44cd01775665efc0b36b3fdf3cde99aa44cd10ab8",
      "blockHash": "0xa67f025178bc8349f55d29a7955df0f859dfc8b3f5f0312a005deadd3ca00864",
      "blockNumber": 89063,
      "transactionIndex": 0,
      "confirmations": null,
      "from": "0xE300c4587D260cE22a677755Db6429B491A4309E",
      "gasPrice": {
        "_hex": "0xde3b3a582"
      },
      "gasLimit": {
        "_hex": "0x15f90"
      },
      "to": "0x06EC48800B2DB3eEfa052e98A9b5Fc2Bf783Ee74",
      "value": {
        "_hex": "0x15af1d78b58c40000"
      },
      "nonce": 5,
      "data": "0x",
      "r": "0x2f6ecc2ed2da855bab688c270f4105995392ff3fcfae0015372d8ce3de046f4e",
      "s": "0x67f9e47177c4881f4c790c26cf92f798fdc7b309d85e20ded38c082154130e3c",
      "v": 27,
      "creates": null,
      "raw": "0xf86e05850de3b3a58283015f909406ec48800b2db3eefa052e98a9b5fc2bf783ee7489015af1d78b58c40000801ba02f6ecc2ed2da855bab688c270f4105995392ff3fcfae0015372d8ce3de046f4ea067f9e47177c4881f4c790c26cf92f798fdc7b309d85e20ded38c082154130e3c",
      "networkId": 0,
      "chainId": 0
    },
    {
      "hash": "0xb302c2f127525a5f7bc8f49c9996af77ad46e7661664957f7c992ab1d1012a2a",
      "blockHash": "0xa67f025178bc8349f55d29a7955df0f859dfc8b3f5f0312a005deadd3ca00864",
      "blockNumber": 89063,
      "transactionIndex": 1,
      "confirmations": null,
      "from": "0x32Be343B94f860124dC4fEe278FDCBD38C102D88",
      "gasPrice": {
        "_hex": "0xd7050c22a"
      },
      "gasLimit": {
        "_hex": "0x5208"
      },
      "to": "0x120A270bbC009644e35F0bB6ab13f95b8199c4ad",
      "value": {
        "_hex": "0xb2e4b323d9c5100000"
      },
      "nonce": 840,
      "data": "0x",
      "r": "0x283938644b2267c5fbdf1d06582fe416fcbc77e6667cbd4091946d2945d6d59e",
      "s": "0x5d6833705c8f0fe20d3d6a3a7c14eaf868b940ef9ff786eb8e3f020c3b11970a",
      "v": 27,
      "creates": null,
      "raw": "0xf86f820348850d7050c22a82520894120a270bbc009644e35f0bb6ab13f95b8199c4ad89b2e4b323d9c5100000801ba0283938644b2267c5fbdf1d06582fe416fcbc77e6667cbd4091946d2945d6d59ea05d6833705c8f0fe20d3d6a3a7c14eaf868b940ef9ff786eb8e3f020c3b11970a",
      "networkId": 0,
      "chainId": 0
    }
  ]
}