{
  "hash": "0xb4ae2382b18caef85575b6c5e921269089104d69f667fd8f51a53b3887b38757",
  "parentHash": "0x2944a5487bba382a0f51a420e5c6614054c701d12bf726895a741873cca901e0",
  "number": 121397,
  "timestamp": 1440176556,
  "nonce": "0xc2e3f8f84f7e6a20",
  "difficulty": 4391264484550,
  "gasLimit": {
    "_hex": "0x2fefd8"
  },
  "gasUsed": {
    "_hex": "0x5208"
  },
  "miner": "0x52bc44d5378309EE2abF1539BF71dE1b7d7bE3b5",
  "extraData": "0xd783010002844765746887676f312e342e32856c696e7578",
  "transactions": [
    {
      "hash": "0x03b49e5a7c0161c59a84191802fb479478b1f3c1b3d1e11116a127f8bb8012ab",
      "blockHash": "0xb4ae2382b18caef85575b6c5e921269089104d69f667fd8f51a53b3887b38757",
      "blockNumber": 121397,
      "transactionIndex": 0,
      "confirmations": null,
      "from": "0xCd551597b9aae8E6bab56dDcAd06cf50Ce6AE324",
      "gasPrice": {
        "_hex": "0xba43b7400"
      },
      "gasLimit": {
        "_hex": "0x15f90"
      },
      "to": "0x84e408A4AFe356a0e3bad2d628afB8D28D7F78c5",
      "value": {
        "_hex": "0x6f05b59d3b20000"
      },
      "nonce": 0,
      "data": "0x",
      "r": "0xaea6ab203319ab688af8d9465d82b9c45d315fc9caf089108e822175815fba5b",
      "s": "0x684a6c0d9cc2379067db64a14d3b5ab4d7a4081c25d06469741d80f60d426a1d",
      "v": 28,
      "creates": null,
      "raw": "0xf86d80850ba43b740083015f909484e408a4afe356a0e3bad2d628afb8d28d7f78c58806f05b59d3b20000801ca0aea6ab203319ab688af8d9465d82b9c45d315fc9caf089108e822175815fba5ba0684a6c0d9cc2379067db64a14d3b5ab4d7a4081c25d06469741d80f60d426a1d",
      "networkId": 0,
      "chainId": 0
    }
  ]
}