{
  "hash": "0x03742b1392d1708de77ce294aeacda54da960f8c41dedb55502968bc70f0f5f2",
  "parentHash": "0xb53046af8db1b4003f0323cd751c45540b0b8f534bd9fffa9e901b77b038168a",
  "number": 83595,
  "timestamp": 1439537787,
  "nonce": "0x577558ea043c5f73",
  "difficulty": 2440801945128,
  "gasLimit": {
    "_hex": "0x2fefd8"
  },
  "gasUsed": {
    "_hex": "0x19a28"
  },
  "miner": "0x580992B51e3925e23280EfB93d3047C82f17E038",
  "extraData": "0x476574682f76312e302e312f6c696e75782f676f312e342e32",
  "transactions": [
    {
      "hash": "0xd0a47270f54d0ada626c6a0a5f9981e9246cc7dfbdddaded087dc509a5799f98",
      "blockHash": "0x03742b1392d1708de77ce294aeacda54da960f8c41dedb55502968bc70f0f5f2",
      "blockNumber": 83595,
      "transactionIndex": 0,
      "confirmations": null,
      "from": "0xa70a9a7040d542C632D8e0bE7c5513A8a5Bbc752",
      "gasPrice": {
        "_hex": "0xdf2918e03"
      },
      "gasLimit": {
        "_hex": "0x5208"
      },
      "to": "0x32Be343B94f860124dC4fEe278FDCBD38C102D88",
      "value": {
        "_hex": "0x455f195fa5df4400"
      },
      "nonce": 75,
      "data": "0x",
      "r": "0xceed24b4b29ff8fdac37fa35c21b8d02c86b48672f02abecbd814d9ee2bd2779",
      "s": "0x40117e1ace8d553ac4d246394fba40a80a962459bc4317eb27653cf0be29dd2c",
      "v": 28,
      "creates": null,
      "raw": "0xf86c4b850df2918e038252089432be343b94f860124dc4fee278fdcbd38c102d8888455f195fa5df4400801ca0ceed24b4b29ff8fdac37fa35c21b8d02c86b48672f02abecbd814d9ee2bd2779a040117e1ace8d553ac4d246394fba40a80a962459bc4317eb27653cf0be29dd2c",
      "networkId": 0,
      "chainId": 0
    },
    {
      "hash": "0xa3cc9cfed51624e8107f1cc98a4c687a2846479b2e5cd5a1213fd2f3c2c68934",
      "blockHash": "0x03742b1392d1708de77ce294aeacda54da960f8c41dedb55502968bc70f0f5f2",
      "blockNumber": 83595,
      "transactionIndex": 1,
      "confirmations": null,
      "from": "0x0D4EcC7d750180EBf4A9Df728B6669B5Bceb5E40",
      "gasPrice": {
        "_hex": "0xdf2918e03"
      },
      "gasLimit": {
        "_hex": "0x5208"
      },
      "to": "0x32Be343B94f860124dC4fEe278FDCBD38C102D88",
      "value": {
        "_hex": "0x455f195fa5df4400"
      },
      "nonce": 20,
      "data": "0x",
      "r": "0xb7b34232df2fee293146c2e3b224a0cfba57d661304022ebb7c1f8929219f393",
      "s": "0x427b9872672c417a430b4d78d516417ed38013e746503a49b2c435cedff607b3",
      "v": 28,
      "creates": null,
      "raw": "0xf86c14850df2918e038252089432be343b94f860124dc4fee278fdcbd38c102d8888455f195fa5df4400801ca0b7b34232df2fee293146c2e3b224a0cfba57d661304022ebb7c1f8929219f393a0427b9872672c417a430b4d78d516417ed38013e746503a49b2c435cedff607b3",
      "networkId": 0,
      "chainId": 0
    },
    {
      "hash": "0xd328e4d952a92ad15395af9d8a15da76830faced02566e67b7762605f8af7225",
      "blockHash": "0x03742b1392d1708de77ce294aeacda54da960f8c41dedb55502968bc70f0f5f2",
      "blockNumber": 83595,
      "transactionIndex": 2,
      "confirmations": null,
      "from": "0xb68c4428193f7F71bA7351366022f0c3E81ca552",
      "gasPrice": {
        "_hex": "0xdf2918e03"
      },
      "gasLimit": {
        "_hex": "0x5208"
      },
      "to": "0x32Be343B94f860124dC4fEe278FDCBD38C102D88",
      "value": {
        "_hex": "0xb464cefce0ff4000"
      },
      "nonce": 4,
      "data": "0x",
      "r": "0x34e5d6ab8dd6f29d74a0fa76a0bad35178fb3782784acc73ff49d128859d8582",
      "s": "0x3b1e1bcbf923f73307cd32ada879b63ad74468966c39ff2d727b81ef475a0236",
      "v": 27,
      "creates": null,
      "raw": "0xf86c04850df2918e038252089432be343b94f860124dc4fee278fdcbd38c102d8888b464cefce0ff4000801ba034e5d6ab8dd6f29d74a0fa76a0bad35178fb3782784acc73ff49d128859d8582a03b1e1bcbf923f73307cd32ada879b63ad74468966c39ff2d727b81ef475a0236",
      "networkId": 0,
      "chainId": 0
    },
    {
      "hash": "0xf9a101abf0c7d5339fcd0c2e96af6d6e2658bd3ced6f6f8e8215e2022dc72962",
      "blockHash": "0x03742b1392d1708de77ce294aeacda54da960f8c41dedb55502968bc70f0f5f2",
      "blockNumber": 83595,
      "transactionIndex": 3,
      "confirmations": null,
      "from": "0x12320B92204dfB0f1d9461b7cEa3BDd621815c52",
      "gasPrice": {
        "_hex": "0xdf2918e03"
      },
      "gasLimit": {
        "_hex": "0x5208"
      },
      "to": "0x32Be343B94f860124dC4fEe278FDCBD38C102D88",
      "value": {
        "_hex": "0x68f7cf489ebfc400"
      },
      "nonce": 0,
      "data": "0x",
      "r": "0x35946995d93c69441de297954a7f976cc4fefe251be136215c2f6f6d303838cb",
      "s": "0x1b1cb17a5732e7b875ce02a0a4722ce55e16bbd0cf5fd0d4ad7d6af989a6c308",
      "v": 27,
      "creates": null,
      "raw": "0xf86c80850df2918e038252089432be343b94f860124dc4fee278fdcbd38c102d888868f7cf489ebfc400801ba035946995d93c69441de297954a7f976cc4fefe251be136215c2f6f6d303838cba01b1cb17a5732e7b875ce02a0a4722ce55e16bbd0cf5fd0d4ad7d6af989a6c308",
      "networkId": 0,
      "chainId": 0
    },
    {
      "hash": "0xb05bb82a4ed5a659bc18c2531b69eb3f5662df9ba69062425a04f768d18052ea",
      "blockHash": "0x03742b1392d1708de77ce294aeacda54da960f8c41dedb55502968bc70f0f5f2",
      "blockNumber": 83595,
      "transactionIndex": 4,
      "confirmations": null,
      "from": "0x8F79f76381Aad7B98C19aF55eE75fdfEeb012211",
      "gasPrice": {
        "_hex": "0xdf2918e03"
      },
      "gasLimit": {
        "_hex": "0x5208"
      },
      "to": "0x32Be343B94f860124dC4fEe278FDCBD38C102D88",
      "value": {
        "_hex": "0x2d1a0987f44a9e000"
      },
      "nonce": 21,
      "data": "0x",
      "r": "0xc154ab41a2455817749945a0cd03b5b3303d82f5ea2b44fcc05c868d7ef6fe3a",
      "s": "0x3296a08612dcf8b32f4737c0aac7943c4e475c965659c6f63e3b36c01158a046",
      "v": 28,
      "creates": null,
      "raw": "0xf86d15850df2918e038252089432be343b94f860124dc4fee278fdcbd38c102d888902d1a0987f44a9e000801ca0c154ab41a2455817749945a0cd03b5b3303d82f5ea2b44fcc05c868d7ef6fe3aa03296a08612dcf8b32f4737c0aac7943c4e475c965659c6f63e3b36c01158a046",
      "networkId": 0,
      "chainId": 0
    }
  ]
}