{
  "hash": "0xd77a3757459ac7cae12bcd3591d692b747409712d194bcf0c6c5c9217004ff76",
  "parentHash": "0x55707c479338c8ff282fc413250b2a9cd384fad6f2a7f4f794c0b143de2eccca",
  "number": 111552,
  "timestamp": 1439992154,
  "nonce": "0xcf106fb60205cfdf",
  "difficulty": 4441733578052,
  "gasLimit": {
    "_hex": "0x2fefd8"
  },
  "gasUsed": {
    "_hex": "0x5208"
  },
  "miner": "0x580992B51e3925e23280EfB93d3047C82f17E038",
  "extraData": "0x476574682f76312e302e312f6c696e75782f676f312e342e32",
  "transactions": [
    {
      "hash": "0x914f8bd4e63c910e1f72f5baf6cd4addc1d193f447cbd299af444737eb28cdb1",
      "blockHash": "0xd77a3757459ac7cae12bcd3591d692b747409712d194bcf0c6c5c9217004ff76",
      "blockNumber": 111552,
      "transactionIndex": 0,
      "confirmations": null,
      "from": "0x120A270bbC009644e35F0bB6ab13f95b8199c4ad",
      "gasPrice": {
        "_hex": "0xdbf6b7517"
      },
      "gasLimit": {
        "_hex": "0x3d090"
      },
      "to": "0xD3c6b518F1631509963232bA8e1882D3474a5838",
      "value": {
        "_hex": "0x2658cafa8bd0674800"
      },
      "nonce": 881,
      "data": "0x",
      "r": "0x5c1000b3269325b9e2e5a8c0d750eccf00531b94be2d5bf94c987aed2c46573c",
      "s": "0x306dc4ec4c41464d1d3c9352108689ae790aec71004ba4efe06d57df1e7eed30",
      "v": 28,
      "creates": null,
      "raw": "0xf870820371850dbf6b75178303d09094d3c6b518f1631509963232ba8e1882d3474a5838892658cafa8bd0674800801ca05c1000b3269325b9e2e5a8c0d750eccf00531b94be2d5bf94c987aed2c46573ca0306dc4ec4c41464d1d3c9352108689ae790aec71004ba4efe06d57df1e7eed30",
      "networkId": 0,
      "chainId": 0
    }
  ]
}