{
  "hash": "0x12617da57307dfb65b3527ff23cc015a8ddfe1b82be85c59d53f432de0f801ad",
  "parentHash": "0x9d50443fa319989d10996d41658e424611ec0d547e59df755dcf9a4ffa1e3942",
  "number": 93868,
  "timestamp": 1439699162,
  "nonce": "0x0e0777fbb1315833",
  "difficulty": 3442909453296,
  "gasLimit": {
    "_hex": "0x2fefd5"
  },
  "gasUsed": {
    "_hex": "0x5208"
  },
  "miner": "0xe6A7a1d47ff21B6321162AEA7C6CB457D5476Bca",
  "extraData": "0x476574682f76312e302e312d38326566323666362f6c696e75782f676f312e34",
  "transactions": [
    {
      "hash": "0x8d96ead73e099e70dbb1a3d3781ed6ddd2199c33e2867488061485760dc27079",
      "blockHash": "0x12617da57307dfb65b3527ff23cc015a8ddfe1b82be85c59d53f432de0f801ad",
      "blockNumber": 93868,
      "transactionIndex": 0,
      "confirmations": null,
      "from": "0x007f7f58D3eb5b7510A301eCC749FC1fCDDBE14D",
      "gasPrice": {
        "_hex": "0xd96d2b26f"
      },
      "gasLimit": {
        "_hex": "0x15f90"
      },
      "to": "0xb1abce2918E21ddb93AA452731a12672A3d9F75a",
      "value": {
        "_hex": "0x7ce66c50e2840000"
      },
      "nonce": 13,
      "data": "0x",
      "r": "0x8d444591754a6851c71839f3a8ff9e9f8a0e9079667663275fd0e6a515bc350f",
      "s": "0x6786d37588f2a6e6cf4a39f08cb309491acbb011c2e5ce64aac6623170b3a420",
      "v": 27,
      "creates": null,
      "raw": "0xf86d0d850d96d2b26f83015f9094b1abce2918e21ddb93aa452731a12672a3d9f75a887ce66c50e2840000801ba08d444591754a6851c71839f3a8ff9e9f8a0e9079667663275fd0e6a515bc350fa06786d37588f2a6e6cf4a39f08cb309491acbb011c2e5ce64aac6623170b3a420",
      "networkId": 0,
      "chainId": 0
    }
  ]
}