{
  "hash": "0xc1bad31cee53084d08cae2024a12bb09b3f75edd47a235cdb81ae41bff384336",
  "parentHash": "0x5977df32edc9e9b5f063e93e1883063488a477f31e0ed91a06351940ead0b84f",
  "number": 93634,
  "timestamp": 1439694882,
  "nonce": "0xe037cc9b1454cf5a",
  "difficulty": 3449736686456,
  "gasLimit": {
    "_hex": "0x2fefd8"
  },
  "gasUsed": {
    "_hex": "0xa410"
  },
  "miner": "0x2Ba35e88e18832dc02193849f42586a9A5a7776c",
  "extraData": "0x476574682f76312e302e312f77696e646f77732f676f312e342e32",
  "transactions": [
    {
      "hash": "0x1243b9951ef89966a2573b12a51fcea8b84784fec1c32261c0b19ee1b08880aa",
      "blockHash": "0xc1bad31cee53084d08cae2024a12bb09b3f75edd47a235cdb81ae41bff384336",
      "blockNumber": 93634,
      "transactionIndex": 0,
      "confirmations": null,
      "from": "0x2878c60b86FBf89645547fEcFA7f74B067f32E52",
      "gasPrice": {
        "_hex": "0xd05916774"
      },
      "gasLimit": {
        "_hex": "0x5208"
      },
      "to": "0x32Be343B94f860124dC4fEe278FDCBD38C102D88",
      "value": {
        "_hex": "0x455f655101b5fc00"
      },
      "nonce": 0,
      "data": "0x",
      "r": "0xa7e3647854471bdc689908e148401e5303f41fc6f9212a352552a0a159a3c9ac",
      "s": "0x76daf3b1431b8c0689955afc568fdb565cd04ff9c8163492c65e97428f5e7e2d",
      "v": 27,
      "creates": null,
      "raw": "0xf86c80850d059167748252089432be343b94f860124dc4fee278fdcbd38c102d8888455f655101b5fc00801ba0a7e3647854471bdc689908e148401e5303f41fc6f9212a352552a0a159a3c9aca076daf3b1431b8c0689955afc568fdb565cd04ff9c8163492c65e97428f5e7e2d",
      "networkId": 0,
      "chainId": 0
    },
    {
      "hash": "0xf8768bc6fd9dc34069252b2a7fe9ff94965af548eaef64a8df504e6b5bcc6898",
      "blockHash": "0xc1bad31cee53084d08cae2024a12bb09b3f75edd47a235cdb81ae41bff384336",
      "blockNumber": 93634,
      "transactionIndex": 1,
      "confirmations": null,
      "from": "0x32Be343B94f860124dC4fEe278FDCBD38C102D88",
      "gasPrice": {
        "_hex": "0xd05916774"
      },
      "gasLimit": {
        "_hex": "0x5208"
      },
      "to": "0xAf6Aebd60105bB5FE85733b7e25bC255e9370b3C",
      "value": {
        "_hex": "0x1c087b4c2e4a0000"
      },
      "nonce": 930,
      "data": "0x",
      "r": "0x03737b96ae953c7e56294ba31b3fc4f208ee610858f82d38f5dddaad8c368a76",
      "s": "0x37d0a1792505d2257763b17c69a866e28ebfd6c22fd44c70484c04b039ac1c74",
      "v": 27,
      "creates": null,
      "raw": "0xf86e8203a2850d0591677482520894af6aebd60105bb5fe85733b7e25bc255e9370b3c881c087b4c2e4a0000801ba003737b96ae953c7e56294ba31b3fc4f208ee610858f82d38f5dddaad8c368a76a037d0a1792505d2257763b17c69a866e28ebfd6c22fd44c70484c04b039ac1c74",
      "networkId": 0,
      "chainId": 0
    }
  ]
}