{
  "hash": "0x6a750a71f67b3395e89dd346692ea133d31ca2f43e33cd4a6b1f9f9f651a7f67",
  "parentHash": "0xe266a7e192094130892dd779640e765a4b792bf25a3145ef89ed9d2ce91a6d88",
  "number": 68511,
  "timestamp": 1439289205,
  "nonce": "0x1ca95f90e17b0dfe",
  "difficulty": 2003520811801,
  "gasLimit": {
    "_hex": "0x2fefd8"
  },
  "gasUsed": {
    "_hex": "0xf618"
  },
  "miner": "0xf927a40C8B7F6E07c5af7FA2155B4864a4112B13",
  "extraData": "0x",
  "transactions": [
    {
      "hash": "0xc30a0f5beb928bffb48b832a0154aed2f81b9a53154a2b755d4f4bdfb0a522b5",
      "blockHash": "0x6a750a71f67b3395e89dd346692ea133d31ca2f43e33cd4a6b1f9f9f651a7f67",
      "blockNumber": 68511,
      "transactionIndex": 0,
      "confirmations": null,
      "from": "0x6747f922385c9a6F9cfDf095F34345257DD597bE",
      "gasPrice": {
        "_hex": "0xba43b7400"
      },
      "gasLimit": {
        "_hex": "0x5208"
      },
      "to": "0x1b06b70af1B8a8e3D4f82758c13EAfC02f373F01",
      "value": {
        "_hex": "0x1fcbfa42bd6000"
      },
      "nonce": 118,
      "data": "0x",
      "r": "0xda18a0ec2a3aa26d560df783c951a693e9bd7303f4a43e2c5b3b075a5898f230",
      "s": "0x2b440112ef97dcdeaa598199bf7015470772fd55859fa1dd7e976c907f7d0a55",
      "v": 28,
      "creates": null,
      "raw": "0xf86b76850ba43b7400825208941b06b70af1b8a8e3d4f82758c13eafc02f373f01871fcbfa42bd6000801ca0da18a0ec2a3aa26d560df783c951a693e9bd7303f4a43e2c5b3b075a5898f230a02b440112ef97dcdeaa598199bf7015470772fd55859fa1dd7e976c907f7d0a55",
      "networkId": 0,
      "chainId": 0
    },
    {
      "hash": "0x6a98d16000d401de905f3cb4c32603a7bd18f11f1eea7fe6b11b3a0c49d7212a",
      "blockHash": "0x6a750a71f67b3395e89dd346692ea133d31ca2f43e33cd4a6b1f9f9f651a7f67",
      "blockNumber": 68511,
      "transactionIndex": 1,
      "confirmations": null,
      "from": "0xB3cC07cF55154Ed6ebee7a3C0b453FB242758c08",
      "gasPrice": {
        "_hex": "0xba43b7400"
      },
      "gasLimit": {
        "_hex": "0x5208"
      },
      "to": "0x79FdBE3686295554a1fd9dEB5E7608e79ad73695",
      "value": {
        "_hex": "0xaa9f075c200000"
      },
      "nonce": 1,
      "data": "0x",
      "r": "0x6ad3165de2392c8bdea8ddbea8c7106f337883f9c69d55737ce87ff1f2017b4b",
      "s": "0x4386c969c8e175344eaf140fb74645f5d030cbc3ea7ef69dcc7a61ecab44b1a1",
      "v": 28,
      "creates": null,
      "raw": "0xf86b01850ba43b74008252089479fdbe3686295554a1fd9deb5e7608e79ad7369587aa9f075c200000801ca06ad3165de2392c8bdea8ddbea8c7106f337883f9c69d55737ce87ff1f2017b4ba04386c969c8e175344eaf140fb74645f5d030cbc3ea7ef69dcc7a61ecab44b1a1",
      "networkId": 0,
      "chainId": 0
    },
    {
      "hash": "0xa584acdaffafd028a7c2dee4551f9ebcbd47669f0e16b4a8a096517511393364",
      "blockHash": "0x6a750a71f67b3395e89dd346692ea133d31ca2f43e33cd4a6b1f9f9f651a7f67",
      "blockNumber": 68511,
      "transactionIndex": 2,
      "confirmations": null,
      "from": "0xEEDA42CE41E61B08551A197a5fF330313A8a3a3e",
      "gasPrice": {
        "_hex": "0xba43b7400"
      },
      "gasLimit": {
        "_hex": "0x5208"
      },
      "to": "0x359EB2519b6004dcE410ebE2d99f538F92597aD0",
      "value": {
        "_hex": "0xaa9f075c200000"
      },
      "nonce": 1,
      "data": "0x",
      "r": "0xed332a7b2f6396499cff57a22ba88af5f5f9c62be7e54bb3b138815f455fde21",
      "s": "0x1430aab9013e1c285120c14ae2fa6d92a6edb89ce1133872e67966c5b4d128d2",
      "v": 28,
      "creates": null,
      "raw": "0xf86b01850ba43b740082520894359eb2519b6004dce410ebe2d99f538f92597ad087aa9f075c200000801ca0ed332a7b2f6396499cff57a22ba88af5f5f9c62be7e54bb3b138815f455fde21a01430aab9013e1c285120c14ae2fa6d92a6edb89ce1133872e67966c5b4d128d2",
      "networkId": 0,
      "chainId": 0
    }
  ]
}