{
  "hash": "0xaae12d1e847e2f7e27739c772acbf9349601afd7bac7cb0a53d402d0313e9f93",
  "parentHash": "0xa55667bc6aced8c41bdcda2141421dbf01c7c68dd53f5407dab3b60eda7e35de",
  "number": 70961,
  "timestamp": 1439328026,
  "nonce": "0xbe279f19cd3d3842",
  "difficulty": 2169923920585,
  "gasLimit": {
    "_hex": "0x2fefd8"
  },
  "gasUsed": {
    "_hex": "0x5208"
  },
  "miner": "0xe6A7a1d47ff21B6321162AEA7C6CB457D5476Bca",
  "extraData": "0x476574682f76312e302e312d38326566323666362f6c696e75782f676f312e34",
  "transactions": [
    {
      "hash": "0x3393f0dc4cacd277341f6418bb90c13e261878edab1f811850109b908ccb58ea",
      "blockHash": "0xaae12d1e847e2f7e27739c772acbf9349601afd7bac7cb0a53d402d0313e9f93",
      "blockNumber": 70961,
      "transactionIndex": 0,
      "confirmations": null,
      "from": "0x98EaB1a51ef0aB03f4A0BabcB61113A3AF9886C6",
      "gasPrice": {
        "_hex": "0x746a528800"
      },
      "gasLimit": {
        "_hex": "0x5b04"
      },
      "to": "0x1333a55102f1f4B3df95298b6CE863eF8d5BAf45",
      "value": {
        "_hex": "0x453c7d11306c8000"
      },
      "nonce": 3,
      "data": "0x",
      "r": "0x8f721345efd77f53fce974f8da96ccabe3ba6787d2b432369da5aab7a5862dbe",
      "s": "0xd557108b0847880c0eef9446d7be8c64b45118b0af9632eb51236272ee30047b",
      "v": 28,
      "creates": null,
      "raw": "0xf86c0385746a528800825b04941333a55102f1f4b3df95298b6ce863ef8d5baf4588453c7d11306c8000801ca08f721345efd77f53fce974f8da96ccabe3ba6787d2b432369da5aab7a5862dbea0d557108b0847880c0eef9446d7be8c64b45118b0af9632eb51236272ee30047b",
      "networkId": 0,
      "chainId": 0
    }
  ]
}