{
  "hash": "0x13f5b07522bb2d7fdd4bb273cbd9cd4702d7308aa7bfc4435c55474cfbe38bba",
  "parentHash": "0x6674dc2b4e94bdfc78af8e025019d631e8b9124565fcccf0eb286e7250e47aed",
  "number": 94694,
  "timestamp": 1439712532,
  "nonce": "0x4c9c1d05037e21a8",
  "difficulty": 3486553567595,
  "gasLimit": {
    "_hex": "0x2fefd8"
  },
  "gasUsed": {
    "_hex": "0x5208"
  },
  "miner": "0x790b8a3cE86E707ED0eD32bF89B3269692a23CC1",
  "extraData": "0xd783010001844765746887676f312e342e32856c696e7578",
  "transactions": [
    {
      "hash": "0x8230213b985535e7735c2afbc67f0948e7a8172cf0486e87c395ef80c0d0e2ef",
      "blockHash": "0x13f5b07522bb2d7fdd4bb273cbd9cd4702d7308aa7bfc4435c55474cfbe38bba",
      "blockNumber": 94694,
      "transactionIndex": 0,
      "confirmations": null,
      "from": "0xec4B2cCFC84A4C62d73D56c44917986aAAaEe10f",
      "gasPrice": {
        "_hex": "0xcbb331db7"
      },
      "gasLimit": {
        "_hex": "0x5208"
      },
      "to": "0x32Be343B94f860124dC4fEe278FDCBD38C102D88",
      "value": {
        "_hex": "0x6d6d785e88069c00"
      },
      "nonce": 3,
      "data": "0x",
      "r": "0xc874be46bdb3e391070ce5b332a18f9d132b1df3e69504dc996f6d1d0cbbbf49",
      "s": "0x5b1d597a563a9224efe2d6edd3c7c71343ade30cfa01279d740ac81fc28f7e96",
      "v": 28,
      "creates": null,
      "raw": "0xf86c03850cbb331db78252089432be343b94f860124dc4fee278fdcbd38c102d88886d6d785e88069c00801ca0c874be46bdb3e391070ce5b332a18f9d132b1df3e69504dc996f6d1d0cbbbf49a05b1d597a563a9224efe2d6edd3c7c71343ade30cfa01279d740ac81fc28f7e96",
      "networkId": 0,
      "chainId": 0
    }
  ]
}