{
  "hash": "0xd5bdbf37d3d2dfe41bd8787f4ae163539be294a99e85e7f9568626e9fd321646",
  "parentHash": "0x8be9e3878b7ba41139ecb2cf984f3abbd1aa1a0bde0f5cc45286c53775450c3f",
  "number": 101607,
  "timestamp": 1439825404,
  "nonce": "0x4bee145687cf34e6",
  "difficulty": 3895827283461,
  "gasLimit": {
    "_hex": "0x2fefd8"
  },
  "gasUsed": {
    "_hex": "0xf618"
  },
  "miner": "0x9D49F602b0fdb924Bd63DDE2Bd0907E4A07c63a7",
  "extraData": "0x476574682f76312e302e312f6c696e75782f676f312e342e32",
  "transactions": [
    {
      "hash": "0x05b0b9357ce80c9a3c069a4c937823adfc4ed92e8a59abc4ecb59907b7750ed6",
      "blockHash": "0xd5bdbf37d3d2dfe41bd8787f4ae163539be294a99e85e7f9568626e9fd321646",
      "blockNumber": 101607,
      "transactionIndex": 0,
      "confirmations": null,
      "from": "0xa70a9a7040d542C632D8e0bE7c5513A8a5Bbc752",
      "gasPrice": {
        "_hex": "0xd9ff0f11e"
      },
      "gasLimit": {
        "_hex": "0x5208"
      },
      "to": "0x32Be343B94f860124dC4fEe278FDCBD38C102D88",
      "value": {
        "_hex": "0x8cede1e7b0308000"
      },
      "nonce": 212,
      "data": "0x",
      "r": "0xa59fcee0280e9584eab264f732fbea7ffa1de7491d123d87d1c3637459f8da46",
      "s": "0x6b427ab86c499e83c7ab5c439cc84cf1a7cad2ec756f8adc4f0d6a7e6b533720",
      "v": 28,
      "creates": null,
      "raw": "0xf86d81d4850d9ff0f11e8252089432be343b94f860124dc4fee278fdcbd38c102d88888cede1e7b0308000801ca0a59fcee0280e9584eab264f732fbea7ffa1de7491d123d87d1c3637459f8da46a06b427ab86c499e83c7ab5c439cc84cf1a7cad2ec756f8adc4f0d6a7e6b533720",
      "networkId": 0,
      "chainId": 0
    },
    {
      "hash": "0x1b5aa834eb4e4e22137d1bbca95fc52d6d2d1e7b9fa41e73702a025e286edee9",
      "blockHash": "0xd5bdbf37d3d2dfe41bd8787f4ae163539be294a99e85e7f9568626e9fd321646",
      "blockNumber": 101607,
      "transactionIndex": 1,
      "confirmations": null,
      "from": "0xb1abce2918E21ddb93AA452731a12672A3d9F75a",
      "gasPrice": {
        "_hex": "0xd9ff0f11e"
      },
      "gasLimit": {
        "_hex": "0x5208"
      },
      "to": "0x32Be343B94f860124dC4fEe278FDCBD38C102D88",
      "value": {
        "_hex": "0x455f3eeae59bc400"
      },
      "nonce": 93,
      "data": "0x",
      "r": "0x7696b0683596260450d6be0e75077925c3553b1d1923a8aedd219e2c9a20203d",
      "s": "0x746cc0c50b5c650499ed13f3fa1b5ab9d0def5064c03e6986f2dc0480889797f",
      "v": 28,
      "creates": null,
      "raw": "0xf86c5d850d9ff0f11e8252089432be343b94f860124dc4fee278fdcbd38c102d8888455f3eeae59bc400801ca07696b0683596260450d6be0e75077925c3553b1d1923a8aedd219e2c9a20203da0746cc0c50b5c650499ed13f3fa1b5ab9d0def5064c03e6986f2dc0480889797f",
      "networkId": 0,
      "chainId": 0
    },
    {
      "hash": "0xb3b8f5cc616a83710c3dce490d8f5b2e7da777b7dd21fb39728084dc3d49cb61",
      "blockHash": "0xd5bdbf37d3d2dfe41bd8787f4ae163539be294a99e85e7f9568626e9fd321646",
      "blockNumber": 101607,
      "transactionIndex": 2,
      "confirmations": null,
      "from": "0xF2B3F8Eb4e663dA275b8C57fe45A0E8D489Eac2E",
      "gasPrice": {
        "_hex": "0xd9ff0f11e"
      },
      "gasLimit": {
        "_hex": "0x5208"
      },
      "to": "0x32Be343B94f860124dC4fEe278FDCBD38C102D88",
      "value": {
        "_hex": "0x4b6a41d1ddbc4c00"
      },
      "nonce": 1,
      "data": "0x",
      "r": "0x347691199ccf8c78636ed52022849285cfaa44912c4a0a9afd6e80b1145d5b2e",
      "s": "0x79064229eacc5874db1b9241185f6e7afd96b522940036cf296b1d960135d733",
      "v": 28,
      "creates": null,
      "raw": "0xf86c01850d9ff0f11e8252089432be343b94f860124dc4fee278fdcbd38c102d88884b6a41d1ddbc4c00801ca0347691199ccf8c78636ed52022849285cfaa44912c4a0a9afd6e80b1145d5b2ea079064229eacc5874db1b9241185f6e7afd96b522940036cf296b1d960135d733",
      "networkId": 0,
      "chainId": 0
    }
  ]
}