{
  "hash": "0x111a479b5cf74b4b7415cd7b9a67f753be81e7911c7218f1ccfe699a69e59bbc",
  "parentHash": "0xafbc166ccded26a441651e79f885e8b1fdd8d1f5da48e53e2f755d15d4e90c48",
  "number": 53999,
  "timestamp": 1439047083,
  "nonce": "0x5132ae4d2089c33b",
  "difficulty": 1607943927455,
  "gasLimit": {
    "_hex": "0x2fefd8"
  },
  "gasUsed": {
    "_hex": "0x5208"
  },
  "miner": "0x157c6f2431eB1a95797EE86F7d17b3c0FD47A247",
  "extraData": "0x476574682f76312e302e312f77696e646f77732f676f312e342e32",
  "transactions": [
    {
      "hash": "0x5b208c249abaef3a56233678a7a2ccd5eabd970b11aaab2951efe8e67aae8625",
      "blockHash": "0x111a479b5cf74b4b7415cd7b9a67f753be81e7911c7218f1ccfe699a69e59bbc",
      "blockNumber": 53999,
      "transactionIndex": 0,
      "confirmations": null,
      "from": "0x32Be343B94f860124dC4fEe278FDCBD38C102D88",
      "gasPrice": {
        "_hex": "0xdbffc134e"
      },
      "gasLimit": {
        "_hex": "0x5208"
      },
      "to": "0x8E1372aB42e7495276e7b0b5e785e8ed59111C0a",
      "value": {
        "_hex": "0x410d34e32e35000000"
      },
      "nonce": 46,
      "data": "0x",
      "r": "0x3d13a288df386e6ce3d9fd236eba089c88952f5386aea3c6481e2ca585efa216",
      "s": "0x62701df57d86d08f0bb90ffbcb4c136f883cf484f28027059d49ecbeb84ff7af",
      "v": 28,
      "creates": null,
      "raw": "0xf86d2e850dbffc134e825208948e1372ab42e7495276e7b0b5e785e8ed59111c0a89410d34e32e35000000801ca03d13a288df386e6ce3d9fd236eba089c88952f5386aea3c6481e2ca585efa216a062701df57d86d08f0bb90ffbcb4c136f883cf484f28027059d49ecbeb84ff7af",
      "networkId": 0,
      "chainId": 0
    }
  ]
}