{
  "hash": "0x04d6eb46e68583fb2bb4d09d45646f8fb8943e6c585d29111bdc926d15fafe94",
  "parentHash": "0x9d1ae567c03083dd4b346241cc1297f2b58d124cc0f41062ddbf673aaeca8d55",
  "number": 68646,
  "timestamp": 1439291305,
  "nonce": "0xda0010874469ca49",
  "difficulty": 2024137841399,
  "gasLimit": {
    "_hex": "0x2fefd8"
  },
  "gasUsed": {
    "_hex": "0x7e25a"
  },
  "miner": "0x157c6f2431eB1a95797EE86F7d17b3c0FD47A247",
  "extraData": "0x476574682f76312e302e312f77696e646f77732f676f312e342e32",
  "transactions": [
    {
      "hash": "0xe065deafa4f9c20dd8bd3183b08e2bc0f18140171a487dc74022faf0abb21874",
      "blockHash": "0x04d6eb46e68583fb2bb4d09d45646f8fb8943e6c585d29111bdc926d15fafe94",
      "blockNumber": 68646,
      "transactionIndex": 0,
      "confirmations": null,
      "from": "0x17580B766f7453525ca4C6A88b01b50570EA088C",
      "gasPrice": {
        "_hex": "0xe0c78431d"
      },
      "gasLimit": {
        "_hex": "0x61a80"
      },
      "to": "0x5Fe5B7546D1628f7348B023A0393de1FC825A4fD",
      "value": {
        "_hex": "0xde0b6b3a7640000"
      },
      "nonce": 52,
      "data": "0xb595b8b50000000000000000000000000000000000000000000000000000000000000001",
      "r": "0x7a2e6dcf14367cf6138ce16c123c796fb868f9a893d7a4ca248765b1ef1e62b2",
      "s": "0x447e3efec8afe9ee9622b834b9452a3563383c4bd1a95d34173d67bd7944ca5a",
      "v": 28,
      "creates": null,
      "raw": "0xf89134850e0c78431d83061a80945fe5b7546d1628f7348b023a0393de1fc825a4fd880de0b6b3a7640000a4b595b8b500000000000000000000000000000000000000000000000000000000000000011ca07a2e6dcf14367cf6138ce16c123c796fb868f9a893d7a4ca248765b1ef1e62b2a0447e3efec8afe9ee9622b834b9452a3563383c4bd1a95d34173d67bd7944ca5a",
      "networkId": 0,
      "chainId": 0
    },
    {
      "hash": "0x86dfada96901216f7d4cbddcccc32bcb8688f70acb4673bff4e40628aa5b17cb",
      "blockHash": "0x04d6eb46e68583fb2bb4d09d45646f8fb8943e6c585d29111bdc926d15fafe94",
      "blockNumber": 68646,
      "transactionIndex": 1,
      "confirmations": null,
      "from": "0x17580B766f7453525ca4C6A88b01b50570EA088C",
      "gasPrice": {
        "_hex": "0xe0c78431d"
      },
      "gasLimit": {
        "_hex": "0x61a80"
      },
      "to": "0x5Fe5B7546D1628f7348B023A0393de1FC825A4fD",
      "value": {
        "_hex": "0xde0b6b3a7640000"
      },
      "nonce": 53,
      "data": "0xb595b8b50000000000000000000000000000000000000000000000000000000000000000",
      "r": "0x037a4bf0c89e4d36bca1d71e84b5204ef5ac82842448adaea262f769c7222b6e",
      "s": "0x08a670b9dfe3609b248a9322e331d785d5c828c5ec9a0831dbe273e9c18b33d0",
      "v": 27,
      "creates": null,
      "raw": "0xf89135850e0c78431d83061a80945fe5b7546d1628f7348b023a0393de1fc825a4fd880de0b6b3a7640000a4b595b8b500000000000000000000000000000000000000000000000000000000000000001ba0037a4bf0c89e4d36bca1d71e84b5204ef5ac82842448adaea262f769c7222b6ea008a670b9dfe3609b248a9322e331d785d5c828c5ec9a0831dbe273e9c18b33d0",
      "networkId": 0,
      "chainId": 0
    },
    {
      "hash": "0x7f3b63456ef1820be7241c54968c38102de07ebac407390acf78f5c9dc26707b",
      "blockHash": "0x04d6eb46e68583fb2bb4d09d45646f8fb8943e6c585d29111bdc926d15fafe94",
      "blockNumber": 68646,
      "transactionIndex": 2,
      "confirmations": null,
      "from": "0x5df6E2F1849a9eD09c9Cd48f1180f50b5E5c8E8F",
      "gasPrice": {
        "_hex": "0xba43b7400"
      },
      "gasLimit": {
        "_hex": "0x5208"
      },
      "to": "0x700c6b52a029A3596fa0b4a5537d651CbfC4688C",
      "value": {
        "_hex": "0x1a921f4b554d000"
      },
      "nonce": 1,
      "data": "0x",
      "r": "0x606456f1154ae72f6ce581393edf7f940c7ef703bab856149338c05749562055",
      "s": "0x2862f8ed1326a46c1d61f7d128aaa22a6ac1ab891c850f924a150d3d0c55286c",
      "v": 28,
      "creates": null,
      "raw": "0xf86c01850ba43b740082520894700c6b52a029a3596fa0b4a5537d651cbfc4688c8801a921f4b554d000801ca0606456f1154ae72f6ce581393edf7f940c7ef703bab856149338c05749562055a02862f8ed1326a46c1d61f7d128aaa22a6ac1ab891c850f924a150d3d0c55286c",
      "networkId": 0,
      "chainId": 0
    },
    {
      "hash": "0x3fc6dee3baf530105be5e0005b7083abeafc33226f9c891a2cf6cbdcf43ee7c8",
      "blockHash": "0x04d6eb46e68583fb2bb4d09d45646f8fb8943e6c585d29111bdc926d15fafe94",
      "blockNumber": 68646,
      "transactionIndex": 3,
      "confirmations": null,
      "from": "0x5994c0E63a99599C93366CFab2141009635895e7",
      "gasPrice": {
        "_hex": "0xba43b7400"
      },
      "gasLimit": {
        "_hex": "0x5208"
      },
      "to": "0xC2BC781D816fa98D7bB9E2106e3e1cc184A9cD5E",
      "value": {
        "_hex": "0x1a921f4b554d000"
      },
      "nonce": 1,
      "data": "0x",
      "r": "0x72ac034d8bed7a105400a6581f9baaed2c2a1461a0572890e7a434bac1adfba0",
      "s": "0x79f4c4cfb950a6cfba193be4177ab4d0dbed93bdcfce553a909982f794495ff0",
      "v": 28,
      "creates": null,
      "raw": "0xf86c01850ba43b740082520894c2bc781d816fa98d7bb9e2106e3e1cc184a9cd5e8801a921f4b554d000801ca072ac034d8bed7a105400a6581f9baaed2c2a1461a0572890e7a434bac1adfba0a079f4c4cfb950a6cfba193be4177ab4d0dbed93bdcfce553a909982f794495ff0",
      "networkId": 0,
      "chainId": 0
    },
    {
      "hash": "0x88131b6ae9adcf2fe551a60ef91b91e54f6b29909b7aa326294c0b8c86dace05",
      "blockHash": "0x04d6eb46e68583fb2bb4d09d45646f8fb8943e6c585d29111bdc926d15fafe94",
      "blockNumber": 68646,
      "transactionIndex": 4,
      "confirmations": null,
      "from": "0x1799Aac869488a85A53d9EAc8Dc7A956f818efEa",
      "gasPrice": {
        "_hex": "0xba43b7400"
      },
      "gasLimit": {
        "_hex": "0x5208"
      },
      "to": "0xd9c7B517AC0e1450498B57879bA11c8CA7586F8E",
      "value": {
        "_hex": "0x1a921f4b554d000"
      },
      "nonce": 1,
      "data": "0x",
      "r": "0x4f6f23509f1850c163ad03e7a87849ff4132f3c2277f8ee361eb81a51164220c",
      "s": "0x468fa06454d6245971510902b14aeaf89c1e54c8f1298d912d3a99a4317cb845",
      "v": 27,
      "creates": null,
      "raw": "0xf86c01850ba43b740082520894d9c7b517ac0e1450498b57879ba11c8ca7586f8e8801a921f4b554d000801ba04f6f23509f1850c163ad03e7a87849ff4132f3c2277f8ee361eb81a51164220ca0468fa06454d6245971510902b14aeaf89c1e54c8f1298d912d3a99a4317cb845",
      "networkId": 0,
      "chainId": 0
    },
    {
      "hash": "0x2917434cd23a3d8b5070b78ae3a6fa180fa495251d750fd33c94a2a948ce169f",
      "blockHash": "0x04d6eb46e68583fb2bb4d09d45646f8fb8943e6c585d29111bdc926d15fafe94",
      "blockNumber": 68646,
      "transactionIndex": 5,
      "confirmations": null,
      "from": "0x489Ae7f41B0e07cbb700FF545b29a49F9a1a5E27",
      "gasPrice": {
        "_hex": "0xba43b7400"
      },
      "gasLimit": {
        "_hex": "0x5208"
      },
      "to": "0x1c3E8B27a44170a4Bad10319e1b19BB9d876C74c",
      "value": {
        "_hex": "0x1a921f4b554d000"
      },
      "nonce": 1,
      "data": "0x",
      "r": "0x5267487cb4bdef5c8821c67ddaf0e98a9ad110e9d32cb923af2d3094fcf916d6",
      "s": "0x0698b65edaaaa57d0229d9ab587528723009352db92b4d9088a8c2136d57cdd7",
      "v": 28,
      "creates": null,
      "raw": "0xf86c01850ba43b7400825208941c3e8b27a44170a4bad10319e1b19bb9d876c74c8801a921f4b554d000801ca05267487cb4bdef5c8821c67ddaf0e98a9ad110e9d32cb923af2d3094fcf916d6a00698b65edaaaa57d0229d9ab587528723009352db92b4d9088a8c2136d57cdd7",
      "networkId": 0,
      "chainId": 0
    },
    {
      "hash": "0x512f00bc473d8cf3a49099d5d104c6470215cbb6563e678f48882a6b3361d531",
      "blockHash": "0x04d6eb46e68583fb2bb4d09d45646f8fb8943e6c585d29111bdc926d15fafe94",
      "blockNumber": 68646,
      "transactionIndex": 6,
      "confirmations": null,
      "from": "0x9D4eC3179D745FA3359a78B084432e0D808e6B5F",
      "gasPrice": {
        "_hex": "0xba43b7400"
      },
      "gasLimit": {
        "_hex": "0x5208"
      },
      "to": "0x79c377A61b0306f3eA1336e197667da2fb0dCeE0",
      "value": {
        "_hex": "0x1a921f4b554d000"
      },
      "nonce": 1,
      "data": "0x",
      "r": "0xe7d21d599dec161163d9faa5ece99fc80cd9b39e9b06db904b2986dc951ae861",
      "s": "0x796ea8087f6bb1b93f5c0f5cde50e5214c7f44ee6cc25b2e24e1f3bcbb0edbb7",
      "v": 27,
      "creates": null,
      "raw": "0xf86c01850ba43b74008252089479c377a61b0306f3ea1336e197667da2fb0dcee08801a921f4b554d000801ba0e7d21d599dec161163d9faa5ece99fc80cd9b39e9b06db904b2986dc951ae861a0796ea8087f6bb1b93f5c0f5cde50e5214c7f44ee6cc25b2e24e1f3bcbb0edbb7",
      "networkId": 0,
      "chainId": 0
    },
    {
      "hash": "0xe4966313ebd934938d244af738b6df6b92a3adc66cdeb8be9d4745607c2a26e3",
      "blockHash": "0x04d6eb46e68583fb2bb4d09d45646f8fb8943e6c585d29111bdc926d15fafe94",
      "blockNumber": 68646,
      "transactionIndex": 7,
      "confirmations": null,
      "from": "0xA08bCA744646eCaa41C93ffA7f87cD7bBb48A070",
      "gasPrice": {
        "_hex": "0xba43b7400"
      },
      "gasLimit": {
        "_hex": "0x5208"
      },
      "to": "0xdFE43a6279454f265aAF002dDdE403a8CD163adA",
      "value": {
        "_hex": "0x1a921f4b554d000"
      },
      "nonce": 1,
      "data": "0x",
      "r": "0x5bc45ca86d9c35f86204284bb1e8b1375cdce7acb8a709b09852bba1e46948b5",
      "s": "0x437d51b12a69b4bd495fad80a3615c5fa210874a9aebc41d2585b0a5316397f6",
      "v": 28,
      "creates": null,
      "raw": "0xf86c01850ba43b740082520894dfe43a6279454f265aaf002ddde403a8cd163ada8801a921f4b554d000801ca05bc45ca86d9c35f86204284bb1e8b1375cdce7acb8a709b09852bba1e46948b5a0437d51b12a69b4bd495fad80a3615c5fa210874a9aebc41d2585b0a5316397f6",
      "networkId": 0,
      "chainId": 0
    },
    {
      "hash": "0xeaa1654bf61ff84f8296400bdfb3cae4f572c0fc582dae0533400e87f0a0484e",
      "blockHash": "0x04d6eb46e68583fb2bb4d09d45646f8fb8943e6c585d29111bdc926d15fafe94",
      "blockNumber": 68646,
      "transactionIndex": 8,
      "confirmations": null,
      "from": "0xB03c04204FEF0536F5490aAE9946Af3c9A9F469E",
      "gasPrice": {
        "_hex": "0xba43b7400"
      },
      "gasLimit": {
        "_hex": "0x5208"
      },
      "to": "0xE3e8e3cF673e962744f85548EcB552059DF99015",
      "value": {
        "_hex": "0x1a921f4b554d000"
      },
      "nonce": 1,
      "data": "0x",
      "r": "0x1f3fbfd3cc35a20a246dd46e7b10462180235b8e9785f4a85ac3c15a4339b79b",
      "s": "0x1ce39d2676fae6684b18dbc3dc1d537dd2338afbdf5cad5cabcd7231112ac04c",
      "v": 28,
      "creates": null,
      "raw": "0xf86c01850ba43b740082520894e3e8e3cf673e962744f85548ecb552059df990158801a921f4b554d000801ca01f3fbfd3cc35a20a246dd46e7b10462180235b8e9785f4a85ac3c15a4339b79ba01ce39d2676fae6684b18dbc3dc1d537dd2338afbdf5cad5cabcd7231112ac04c",
      "networkId": 0,
      "chainId": 0
    },
    {
      "hash": "0x32e30e04e1998b0c90e13f8d48e4910193f7f69eb748ee49dfb1310c519d8d8c",
      "blockHash": "0x04d6eb46e68583fb2bb4d09d45646f8fb8943e6c585d29111bdc926d15fafe94",
      "blockNumber": 68646,
      "transactionIndex": 9,
      "confirmations": null,
      "from": "0x7EE7b14dE74A27B328D8Ea49fC5F492fEBDaCb79",
      "gasPrice": {
        "_hex": "0xba43b7400"
      },
      "gasLimit": {
        "_hex": "0x5208"
      },
      "to": "0xfBCdd20040505C50cC1BF971923C9144E1C88D4e",
      "value": {
        "_hex": "0x1a921f4b554d000"
      },
      "nonce": 1,
      "data": "0x",
      "r": "0xcd840f5e04af3ac65ff4dc1143e60b5a1b4aaa1e38ab1d2ba3eb5d9f4892d623",
      "s": "0x26e385315e1b18ee012663d694a4d61d6c7d698f1aed32c474adbaecf3cca821",
      "v": 28,
      "creates": null,
      "raw": "0xf86c01850ba43b740082520894fbcdd20040505c50cc1bf971923c9144e1c88d4e8801a921f4b554d000801ca0cd840f5e04af3ac65ff4dc1143e60b5a1b4aaa1e38ab1d2ba3eb5d9f4892d623a026e385315e1b18ee012663d694a4d61d6c7d698f1aed32c474adbaecf3cca821",
      "networkId": 0,
      "chainId": 0
    },
    {
      "hash": "0xa96a477c7b90df3c2c3b31aaaa870f6c7fde2a43a7ad617983e34d1db146c357",
      "blockHash": "0x04d6eb46e68583fb2bb4d09d45646f8fb8943e6c585d29111bdc926d15fafe94",
      "blockNumber": 68646,
      "transactionIndex": 10,
      "confirmations": null,
      "from": "0x833AD3784Ea1553b52B37de087b201bA6962B8C1",
      "gasPrice": {
        "_hex": "0xba43b7400"
      },
      "gasLimit": {
        "_hex": "0x5208"
      },
      "to": "0xd7063494BeA35C4C31c4E01116D0b6cB92A09367",
      "value": {
        "_hex": "0x1a921f4b554d000"
      },
      "nonce": 1,
      "data": "0x",
      "r": "0xddacd80ec572969b785e1b8813723b7c32a7877f5d0fe2ecf1e9c946b27c0f03",
      "s": "0x0ee17c32abef8d51def8430c51a6a03f32911d16f496574890a5560b9139dbba",
      "v": 27,
      "creates": null,
      "raw": "0xf86c01850ba43b740082520894d7063494bea35c4c31c4e01116d0b6cb92a093678801a921f4b554d000801ba0ddacd80ec572969b785e1b8813723b7c32a7877f5d0fe2ecf1e9c946b27c0f03a00ee17c32abef8d51def8430c51a6a03f32911d16f496574890a5560b9139dbba",
      "networkId": 0,
      "chainId": 0
    },
    {
      "hash": "0x3924226210de08d452db0f6feaced98500bb45716b9ea5d0c24e55d83103427d",
      "blockHash": "0x04d6eb46e68583fb2bb4d09d45646f8fb8943e6c585d29111bdc926d15fafe94",
      "blockNumber": 68646,
      "transactionIndex": 11,
      "confirmations": null,
      "from": "0x774D8076092A28cAf37656B640aDF4572753dD63",
      "gasPrice": {
        "_hex": "0xba43b7400"
      },
      "gasLimit": {
        "_hex": "0x5208"
      },
      "to": "0xd561331020610C5AfddB5130a5401D177C223f41",
      "value": {
        "_hex": "0x1a921f4b554d000"
      },
      "nonce": 1,
      "data": "0x",
      "r": "0x7bbc336acd72588f06f2d4394c6bbcba97ffb317f961c96c99ec7c493e1f0def",
      "s": "0x4ad37cf301784b4adc7aa28892996a5becb4f291b85e3f3dad50052242205aa5",
      "v": 27,
      "creates": null,
      "raw": "0xf86c01850ba43b740082520894d561331020610c5afddb5130a5401d177c223f418801a921f4b554d000801ba07bbc336acd72588f06f2d4394c6bbcba97ffb317f961c96c99ec7c493e1f0defa04ad37cf301784b4adc7aa28892996a5becb4f291b85e3f3dad50052242205aa5",
      "networkId": 0,
      "chainId": 0
    },
    {
      "hash": "0x93e63df6fdb551072f36aaa7edb66891233a4319c5da45537d10e2fc9bbb7330",
      "blockHash": "0x04d6eb46e68583fb2bb4d09d45646f8fb8943e6c585d29111bdc926d15fafe94",
      "blockNumber": 68646,
      "transactionIndex": 12,
      "confirmations": null,
      "from": "0xB33f1f5bFe33EAbCFd0963ab3d75f9Db468a4581",
      "gasPrice": {
        "_hex": "0xba43b7400"
      },
      "gasLimit": {
        "_hex": "0x5208"
      },
      "to": "0xc962e9f5Bd90b005bDF6f0674E41FAEF6f85C7D0",
      "value": {
        "_hex": "0x1a921f4b554d000"
      },
      "nonce": 1,
      "data": "0x",
      "r": "0x87339e7a769bf6fa66f9ae4c31e08a37105859a50cc15747ca7602596ae721bd",
      "s": "0x590b7cf403d9e4a6d91764a01bf0ae23d47ff5f792db30a7331d1e050a190da0",
      "v": 28,
      "creates": null,
      "raw": "0xf86c01850ba43b740082520894c962e9f5bd90b005bdf6f0674e41faef6f85c7d08801a921f4b554d000801ca087339e7a769bf6fa66f9ae4c31e08a37105859a50cc15747ca7602596ae721bda0590b7cf403d9e4a6d91764a01bf0ae23d47ff5f792db30a7331d1e050a190da0",
      "networkId": 0,
      "chainId": 0
    },
    {
      "hash": "0x56d9368420d5e4eab24c70b3c4e98bc0f6fb55a0a3a3f8edb3ebb2830c63d5f8",
      "blockHash": "0x04d6eb46e68583fb2bb4d09d45646f8fb8943e6c585d29111bdc926d15fafe94",
      "blockNumber": 68646,
      "transactionIndex": 13,
      "confirmations": null,
      "from": "0x44Cf020682707d8022AB87991057be78288cA1a1",
      "gasPrice": {
        "_hex": "0xba43b7400"
      },
      "gasLimit": {
        "_hex": "0x5208"
      },
      "to": "0x4db7661b1Eeb57Bda8c8bd08189A66Ce571E448F",
      "value": {
        "_hex": "0x1a921f4b554d000"
      },
      "nonce": 1,
      "data": "0x",
      "r": "0x2c065403022abe1b407d83dc477de19c54f9c9cb2f25af049fc1cfb24e32bd96",
      "s": "0x215fc04a552a3e8a8b34083b5d5f88c93242976f47318959114d17c5ff63bf73",
      "v": 27,
      "creates": null,
      "raw": "0xf86c01850ba43b7400825208944db7661b1eeb57bda8c8bd08189a66ce571e448f8801a921f4b554d000801ba02c065403022abe1b407d83dc477de19c54f9c9cb2f25af049fc1cfb24e32bd96a0215fc04a552a3e8a8b34083b5d5f88c93242976f47318959114d17c5ff63bf73",
      "networkId": 0,
      "chainId": 0
    },
    {
      "hash": "0x54027fec015eb417e95d185f7b6e3bcc4273ff8909ba0bceabf9cf121c9d2d83",
      "blockHash": "0x04d6eb46e68583fb2bb4d09d45646f8fb8943e6c585d29111bdc926d15fafe94",
      "blockNumber": 68646,
      "transactionIndex": 14,
      "confirmations": null,
      "from": "0x5EB458dE0AD4972746AB87ED80F8c4229022c1d4",
      "gasPrice": {
        "_hex": "0xba43b7400"
      },
      "gasLimit": {
        "_hex": "0x5208"
      },
      "to": "0x879773d80638c5c700C69eA59A4BC342fC0F24F0",
      "value": {
        "_hex": "0x1a921f4b554d000"
      },
      "nonce": 1,
      "data": "0x",
      "r": "0x5f001b76cdcb96db1e38b0f9a2061c0b936e99f7d2a17a9fef768e03423949af",
      "s": "0x705fcea238e2629afcb08f15f9a02116f3f327a6c5e15c2bbb2c3c7c94768e5a",
      "v": 27,
      "creates": null,
      "raw": "0xf86c01850ba43b740082520894879773d80638c5c700c69ea59a4bc342fc0f24f08801a921f4b554d000801ba05f001b76cdcb96db1e38b0f9a2061c0b936e99f7d2a17a9fef768e03423949afa0705fcea238e2629afcb08f15f9a02116f3f327a6c5e15c2bbb2c3c7c94768e5a",
      "networkId": 0,
      "chainId": 0
    },
    {
      "hash": "0xe9369cda16a1ef56f21c861f9f887fa862857cfeebe407f9205148368c90ff36",
      "blockHash": "0x04d6eb46e68583fb2bb4d09d45646f8fb8943e6c585d29111bdc926d15fafe94",
      "blockNumber": 68646,
      "transactionIndex": 15,
      "confirmations": null,
      "from": "0xd973139DBaa0f7fc419331A30613057Bcc5e7879",
      "gasPrice": {
        "_hex": "0xba43b7400"
      },
      "gasLimit": {
        "_hex": "0x5208"
      },
      "to": "0x425cc68d59C45f9275D308ac97cE4DCe736a6028",
      "value": {
        "_hex": "0x1a921f4b554d000"
      },
      "nonce": 1,
      "data": "0x",
      "r": "0x1e46784c7c794055ad255d827f65b52793945cf35aa0416b9e5860cd6791d47a",
      "s": "0x23fab603e93cdf5fcbd84518d6ce34a47225161baa331ef0c8808e90cee012e5",
      "v": 27,
      "creates": null,
      "raw": "0xf86c01850ba43b740082520894425cc68d59c45f9275d308ac97ce4dce736a60288801a921f4b554d000801ba01e46784c7c794055ad255d827f65b52793945cf35aa0416b9e5860cd6791d47aa023fab603e93cdf5fcbd84518d6ce34a47225161baa331ef0c8808e90cee012e5",
      "networkId": 0,
      "chainId": 0
    },
    {
      "hash": "0xa2cfab14fb22f693ff7a1db522525f8c3de5b64cbec46fad07df9c895cbf5e20",
      "blockHash": "0x04d6eb46e68583fb2bb4d09d45646f8fb8943e6c585d29111bdc926d15fafe94",
      "blockNumber": 68646,
      "transactionIndex": 16,
      "confirmations": null,
      "from": "0x43DDCaEA426b38E8AabB100CfafeF27bB7e7d7bc",
      "gasPrice": {
        "_hex": "0xba43b7400"
      },
      "gasLimit": {
        "_hex": "0x5208"
      },
      "to": "0xDf64D41C8c22b87cD729799Bc808110a5039e2Ca",
      "value": {
        "_hex": "0x1a921f4b554d000"
      },
      "nonce": 1,
      "data": "0x",
      "r": "0x27071377ec59e49a1fbba354ae153869d1cf06dd6f93180d95a1c216fbee6193",
      "s": "0x289343928e1a5013873f5c25c1ae3a0fe7f0a18f104e9760e4632d9aad542aff",
      "v": 27,
      "creates": null,
      "raw": "0xf86c01850ba43b740082520894df64d41c8c22b87cd729799bc808110a5039e2ca8801a921f4b554d000801ba027071377ec59e49a1fbba354ae153869d1cf06dd6f93180d95a1c216fbee6193a0289343928e1a5013873f5c25c1ae3a0fe7f0a18f104e9760e4632d9aad542aff",
      "networkId": 0,
      "chainId": 0
    },
    {
      "hash": "0x7dc1a6c4271d59ddbb7f0802095918c03c8b96c2b4f82209617c475c308bad38",
      "blockHash": "0x04d6eb46e68583fb2bb4d09d45646f8fb8943e6c585d29111bdc926d15fafe94",
      "blockNumber": 68646,
      "transactionIndex": 17,
      "confirmations": null,
      "from": "0x4AA183E3c5682AeD393c96CC529CB548cee6b193",
      "gasPrice": {
        "_hex": "0xba43b7400"
      },
      "gasLimit": {
        "_hex": "0x5208"
      },
      "to": "0xaEBcB2B4041773C8978273088EB17b098e21bf0E",
      "value": {
        "_hex": "0x1a921f4b554d000"
      },
      "nonce": 1,
      "data": "0x",
      "r": "0xe7555b4a7af2b0f17c8ec4a9cb693be5457cfee40287f4e41c6a88d1b4581429",
      "s": "0x17b163fd1166659dbf4bd121e55acacf7329990109237c7d04550da30a487b4f",
      "v": 27,
      "creates": null,
      "raw": "0xf86c01850ba43b740082520894aebcb2b4041773c8978273088eb17b098e21bf0e8801a921f4b554d000801ba0e7555b4a7af2b0f17c8ec4a9cb693be5457cfee40287f4e41c6a88d1b4581429a017b163fd1166659dbf4bd121e55acacf7329990109237c7d04550da30a487b4f",
      "networkId": 0,
      "chainId": 0
    },
    {
      "hash": "0xdb2354adbba536f6d607a5d73da5330c65556e63198786cdb9d96f158754253a",
      "blockHash": "0x04d6eb46e68583fb2bb4d09d45646f8fb8943e6c585d29111bdc926d15fafe94",
      "blockNumber": 68646,
      "transactionIndex": 18,
      "confirmations": null,
      "from": "0x5D87484146eBcaE5b9c56d4EdCB54b866f2690d3",
      "gasPrice": {
        "_hex": "0xba43b7400"
      },
      "gasLimit": {
        "_hex": "0x5208"
      },
      "to": "0xEF6326D1F553998FCA10A1819DD2a0230983D395",
      "value": {
        "_hex": "0x1a921f4b554d000"
      },
      "nonce": 1,
      "data": "0x",
      "r": "0x31a0151848d6d30ad287f5130e1605b3ef4bf3060c047b6a1814c3c97edc3783",
      "s": "0x51d98d8d313d67b6252fc7385292947e34b37ee2bd3e336bd7850fbc768b3b55",
      "v": 28,
      "creates": null,
      "raw": "0xf86c01850ba43b740082520894ef6326d1f553998fca10a1819dd2a0230983d3958801a921f4b554d000801ca031a0151848d6d30ad287f5130e1605b3ef4bf3060c047b6a1814c3c97edc3783a051d98d8d313d67b6252fc7385292947e34b37ee2bd3e336bd7850fbc768b3b55",
      "networkId": 0,
      "chainId": 0
    },
    {
      "hash": "0xfe577366ea97d950c59056e3bf0f10337d1982ed35fbe77adf0bf269ba16267f",
      "blockHash": "0x04d6eb46e68583fb2bb4d09d45646f8fb8943e6c585d29111bdc926d15fafe94",
      "blockNumber": 68646,
      "transactionIndex": 19,
      "confirmations": null,
      "from": "0xA52Cb122fF9de457fA705483539A01b7924bAc02",
      "gasPrice": {
        "_hex": "0xba43b7400"
      },
      "gasLimit": {
        "_hex": "0x5208"
      },
      "to": "0x6A79338D20667d67562221FB44f881b81932353c",
      "value": {
        "_hex": "0x1a921f4b554d000"
      },
      "nonce": 1,
      "data": "0x",
      "r": "0x20713e9c1e9016575bf82d2dee60656ef5646bde6e854ec70983baf89f84b7fe",
      "s": "0x7861613f877ebb08e1516719f6bad2a6336f9e980ab1b785384a88af9c6b230a",
      "v": 27,
      "creates": null,
      "raw": "0xf86c01850ba43b7400825208946a79338d20667d67562221fb44f881b81932353c8801a921f4b554d000801ba020713e9c1e9016575bf82d2dee60656ef5646bde6e854ec70983baf89f84b7fea07861613f877ebb08e1516719f6bad2a6336f9e980ab1b785384a88af9c6b230a",
      "networkId": 0,
      "chainId": 0
    },
    {
      "hash": "0xaf1e889db1b92328cb102f4ea279f6996ccfd3a0e266a4827402b3a6f00fe8a4",
      "blockHash": "0x04d6eb46e68583fb2bb4d09d45646f8fb8943e6c585d29111bdc926d15fafe94",
      "blockNumber": 68646,
      "transactionIndex": 20,
      "confirmations": null,
      "from": "0xd7196c9cF873468228035cD6A2502Eb913F2174C",
      "gasPrice": {
        "_hex": "0xba43b7400"
      },
      "gasLimit": {
        "_hex": "0x5208"
      },
      "to": "0x92053a68A72e1C43730f0AEE5e76aBE0B4188e97",
      "value": {
        "_hex": "0x1a921f4b554d000"
      },
      "nonce": 1,
      "data": "0x",
      "r": "0xbbd86b5a871d1faecb33ef7fdbbdc76074220d9c8cce2955a1ba100cb4a94d15",
      "s": "0x26cc4ef3e28a1bb5a27f1d4450ed9179437c42f9a62ba73803ff186b42bdab13",
      "v": 28,
      "creates": null,
      "raw": "0xf86c01850ba43b74008252089492053a68a72e1c43730f0aee5e76abe0b4188e978801a921f4b554d000801ca0bbd86b5a871d1faecb33ef7fdbbdc76074220d9c8cce2955a1ba100cb4a94d15a026cc4ef3e28a1bb5a27f1d4450ed9179437c42f9a62ba73803ff186b42bdab13",
      "networkId": 0,
      "chainId": 0
    },
    {
      "hash": "0xdcda329e7a7b7396bb5a485685ec6886f2017e64a3a2f594147dd025bc537074",
      "blockHash": "0x04d6eb46e68583fb2bb4d09d45646f8fb8943e6c585d29111bdc926d15fafe94",
      "blockNumber": 68646,
      "transactionIndex": 21,
      "confirmations": null,
      "from": "0xFE7dfafA39B0A9D157238A22aba85e7f6c51bdCC",
      "gasPrice": {
        "_hex": "0xba43b7400"
      },
      "gasLimit": {
        "_hex": "0x5208"
      },
      "to": "0x9027FB06f7e37c472b87B328b109dD2edF2876f0",
      "value": {
        "_hex": "0x1a921f4b554d000"
      },
      "nonce": 1,
      "data": "0x",
      "r": "0x3d214f7d0977aae7058153ecbdce584639d7154e5300775301d3e4e795e8e479",
      "s": "0x4f49b22ed10cecd883040aa24252d20139442f3e6b354cc2ef88952c7722a787",
      "v": 27,
      "creates": null,
      "raw": "0xf86c01850ba43b7400825208949027fb06f7e37c472b87b328b109dd2edf2876f08801a921f4b554d000801ba03d214f7d0977aae7058153ecbdce584639d7154e5300775301d3e4e795e8e479a04f49b22ed10cecd883040aa24252d20139442f3e6b354cc2ef88952c7722a787",
      "networkId": 0,
      "chainId": 0
    },
    {
      "hash": "0xde6e065f64d424656f735dc2fcf5a84b07a8c8f1cbc1d815737b0baf31cfa260",
      "blockHash": "0x04d6eb46e68583fb2bb4d09d45646f8fb8943e6c585d29111bdc926d15fafe94",
      "blockNumber": 68646,
      "transactionIndex": 22,
      "confirmations": null,
      "from": "0x8562D46081cB30e96e6A2082A20e3b86D4eeb03F",
      "gasPrice": {
        "_hex": "0xba43b7400"
      },
      "gasLimit": {
        "_hex": "0x5208"
      },
      "to": "0x88b2982E48C4Fb68DC43A6432445177E18749DDA",
      "value": {
        "_hex": "0x1a921f4b554d000"
      },
      "nonce": 1,
      "data": "0x",
      "r": "0x858c8c95a3375a29c0f1c74dc90c03e9241683b486f2570a82deca1a98d3ca42",
      "s": "0x467424e8a30c6fa84d3ce562c56748448d2ef8dc713696dc0feec6769a190045",
      "v": 28,
      "creates": null,
      "raw": "0xf86c01850ba43b74008252089488b2982e48c4fb68dc43a6432445177e18749dda8801a921f4b554d000801ca0858c8c95a3375a29c0f1c74dc90c03e9241683b486f2570a82deca1a98d3ca42a0467424e8a30c6fa84d3ce562c56748448d2ef8dc713696dc0feec6769a190045",
      "networkId": 0,
      "chainId": 0
    }
  ]
}