{
  "hash": "0xd0f61aa670c60913ff06a1950f9165e4c819dd5024bc1e08c60eae126c3c5daa",
  "parentHash": "0x06a69b0ff0e9bfa4a39a5851fa01d6ea4d8cd39af2afa0ce686052e3cedde515",
  "number": 80598,
  "timestamp": 1439487854,
  "nonce": "0xa99ef154266f6c2c",
  "difficulty": 2421490209552,
  "gasLimit": {
    "_hex": "0x2fefd5"
  },
  "gasUsed": {
    "_hex": "0xaa37"
  },
  "miner": "0x580992B51e3925e23280EfB93d3047C82f17E038",
  "extraData": "0x476574682f76312e302e312f6c696e75782f676f312e342e32",
  "transactions": [
    {
      "hash": "0x3899f2f57717bc32569224a50177e633820fb43ae8d32c3e963d82a07ed5e559",
      "blockHash": "0xd0f61aa670c60913ff06a1950f9165e4c819dd5024bc1e08c60eae126c3c5daa",
      "blockNumber": 80598,
      "transactionIndex": 0,
      "confirmations": null,
      "from": "0x87C5B5874A18B4306DF8a752a6C8cc3E82daFc19",
      "gasPrice": {
        "_hex": "0x1154f149192"
      },
      "gasLimit": {
        "_hex": "0x493e0"
      },
      "to": "0xC4c51de1AbF5D60DBd329eC0F999Fd8f021ae9fC",
      "value": {
        "_hex": "0x0"
      },
      "nonce": 256,
      "data": "0x03750d9400000000000000000000000087c5b5874a18b4306df8a752a6c8cc3e82dafc196b6b6b0000000000000000000000000000000000000000000000000000000000",
      "r": "0x0d419ccb0727cd4c07612012ba20fa3831d906f8511e422e7f0b1cda18c8a74b",
      "s": "0x611d1e1d51ea7dc47b376f33da8d9b259fe3155993e435e1d05c64aa07204dda",
      "v": 27,
      "creates": null,
      "raw": "0xf8ad8201008601154f149192830493e094c4c51de1abf5d60dbd329ec0f999fd8f021ae9fc80b84403750d9400000000000000000000000087c5b5874a18b4306df8a752a6c8cc3e82dafc196b6b6b00000000000000000000000000000000000000000000000000000000001ba00d419ccb0727cd4c07612012ba20fa3831d906f8511e422e7f0b1cda18c8a74ba0611d1e1d51ea7dc47b376f33da8d9b259fe3155993e435e1d05c64aa07204dda",
      "networkId": 0,
      "chainId": 0
    }
  ]
}