{
  "hash": "0x29828f6232a46199250a2dbe8d45fb327b17694033136ad377dcbcc866b3441e",
  "parentHash": "0x779a693b762708617433f125621559eb1cbd50da600ec6dc802f32ad5e6d5f11",
  "number": 70776,
  "timestamp": 1439325415,
  "nonce": "0x69b4d1cfea8b2797",
  "difficulty": 2137372863666,
  "gasLimit": {
    "_hex": "0x2fefd8"
  },
  "gasUsed": {
    "_hex": "0x5208"
  },
  "miner": "0x47ff6576639c2e94762eA5443978D7681C0E78DC",
  "extraData": "0x476574682f76312e302e312f6c696e75782f676f312e342e32",
  "transactions": [
    {
      "hash": "0x39fd586efbcc052ac087446f2cc2454207cab3d6f8a04b08de1f90046d483a6d",
      "blockHash": "0x29828f6232a46199250a2dbe8d45fb327b17694033136ad377dcbcc866b3441e",
      "blockNumber": 70776,
      "transactionIndex": 0,
      "confirmations": null,
      "from": "0xeEdDfD6c3b6e7c8326E43E78D48DEeE628a7e2C9",
      "gasPrice": {
        "_hex": "0xdfbc665f0"
      },
      "gasLimit": {
        "_hex": "0x5208"
      },
      "to": "0x32Be343B94f860124dC4fEe278FDCBD38C102D88",
      "value": {
        "_hex": "0xddc300866160c00"
      },
      "nonce": 0,
      "data": "0x",
      "r": "0x2c48d1198ab752ebcbc235854ae560701b1bd827073b9b5323f3a6731af2cd75",
      "s": "0x0c518426699cfb9f1a84aa944abe99d4194e5f93e564463a8c832761d1d838e5",
      "v": 28,
      "creates": null,
      "raw": "0xf86c80850dfbc665f08252089432be343b94f860124dc4fee278fdcbd38c102d88880ddc300866160c00801ca02c48d1198ab752ebcbc235854ae560701b1bd827073b9b5323f3a6731af2cd75a00c518426699cfb9f1a84aa944abe99d4194e5f93e564463a8c832761d1d838e5",
      "networkId": 0,
      "chainId": 0
    }
  ]
}