{
  "hash": "0x2cf0172b1a5ee703db2227caf36e66200d5c531b9f99bc341e57c1172178f848",
  "parentHash": "0x3d4793173dfcdc58316dc27ad2c580f472928fdc6744b4d825fd90971f06d24e",
  "number": 67466,
  "timestamp": 1439272604,
  "nonce": "0xdc9509c5523282af",
  "difficulty": 1918557454357,
  "gasLimit": {
    "_hex": "0x2fefd8"
  },
  "gasUsed": {
    "_hex": "0x546c"
  },
  "miner": "0x88D74a59454F6cF3B51ef6b9136AFb6b9D405A88",
  "extraData": "0x476574682f76312e302e312d37666266393930632f6c696e75782f676f312e34",
  "transactions": [
    {
      "hash": "0x024eb3a4ad669ccec2e9e39b148b43aee917dae887c457a4196877304d5844b2",
      "blockHash": "0x2cf0172b1a5ee703db2227caf36e66200d5c531b9f99bc341e57c1172178f848",
      "blockNumber": 67466,
      "transactionIndex": 0,
      "confirmations": null,
      "from": "0x29C0024a99b44d481694cB5D98907a1343D390fD",
      "gasPrice": {
        "_hex": "0xd5833ebc2"
      },
      "gasLimit": {
        "_hex": "0x55f0"
      },
      "to": "0x2910543Af39abA0Cd09dBb2D50200b3E800A63D2",
      "value": {
        "_hex": "0x6124fee993bc0000"
      },
      "nonce": 4,
      "data": "0x454e4a5146334b5138",
      "r": "0x3dac3016d791d16a0f0d650da059165a80612b1c60e773792f2b957ad6e7e4b1",
      "s": "0x7b979afa9bd2c214a8ef27636e3a38b28e09ceb2503842f216adcfff39b71abb",
      "v": 27,
      "creates": null,
      "raw": "0xf87504850d5833ebc28255f0942910543af39aba0cd09dbb2d50200b3e800a63d2886124fee993bc000089454e4a5146334b51381ba03dac3016d791d16a0f0d650da059165a80612b1c60e773792f2b957ad6e7e4b1a07b979afa9bd2c214a8ef27636e3a38b28e09ceb2503842f216adcfff39b71abb",
      "networkId": 0,
      "chainId": 0
    }
  ]
}