{
  "hash": "0x0301d0148dc895d8671142d8622cbc168311fce19b6d3d1a5f019589ab873fd7",
  "parentHash": "0x9644fc7e134b36744649861ef299f9b8d1f2a6cbe848ae0a9e8e9a19b7639397",
  "number": 116813,
  "timestamp": 1440097901,
  "nonce": "0x18745199f1b3e1a8",
  "difficulty": 4334003897745,
  "gasLimit": {
    "_hex": "0x2fefd8"
  },
  "gasUsed": {
    "_hex": "0x1ec30"
  },
  "miner": "0xe6A7a1d47ff21B6321162AEA7C6CB457D5476Bca",
  "extraData": "0xd783010002844765746887676f312e342e32856c696e7578",
  "transactions": [
    {
      "hash": "0xb166bf9411bd423eab108b6f3c3f3cd6a9c23ce154d3bba95ce35a1546992c18",
      "blockHash": "0x0301d0148dc895d8671142d8622cbc168311fce19b6d3d1a5f019589ab873fd7",
      "blockNumber": 116813,
      "transactionIndex": 0,
      "confirmations": null,
      "from": "0x2910543Af39abA0Cd09dBb2D50200b3E800A63D2",
      "gasPrice": {
        "_hex": "0xba43b7400"
      },
      "gasLimit": {
        "_hex": "0x5208"
      },
      "to": "0xEc000D7cC7Ea7Af34bB6296f2608D92d7552C418",
      "value": {
        "_hex": "0x57b5b808cba2000"
      },
      "nonce": 1140,
      "data": "0x",
      "r": "0xb700275363164652471f91056f43f25f0eee74581030f611beb43e3714a101e9",
      "s": "0x182bcb730c4a8fa7e8140f43535b13ef35243fbf2bfa8ef13c40a2578d9e2848",
      "v": 27,
      "creates": null,
      "raw": "0xf86e820474850ba43b740082520894ec000d7cc7ea7af34bb6296f2608d92d7552c41888057b5b808cba2000801ba0b700275363164652471f91056f43f25f0eee74581030f611beb43e3714a101e9a0182bcb730c4a8fa7e8140f43535b13ef35243fbf2bfa8ef13c40a2578d9e2848",
      "networkId": 0,
      "chainId": 0
    },
    {
      "hash": "0x8b871ccd049eaedbf43a679590118a3dfc33b32530a4b61ef1be0ce017695a48",
      "blockHash": "0x0301d0148dc895d8671142d8622cbc168311fce19b6d3d1a5f019589ab873fd7",
      "blockNumber": 116813,
      "transactionIndex": 1,
      "confirmations": null,
      "from": "0x2910543Af39abA0Cd09dBb2D50200b3E800A63D2",
      "gasPrice": {
        "_hex": "0xba43b7400"
      },
      "gasLimit": {
        "_hex": "0x5208"
      },
      "to": "0x141d08EDaDA2C1bA62A2940184Ba03d62d3fFF22",
      "value": {
        "_hex": "0x1f387edca522f8000"
      },
      "nonce": 1141,
      "data": "0x",
      "r": "0x5e4efdf051d5a302d0313313191730c20cd295741472c1f8454c79c62dd308ca",
      "s": "0x7919d718d1847bc9a99ccbdceb3d02a439178c040ea627aea519b1ea1ee7bdc5",
      "v": 27,
      "creates": null,
      "raw": "0xf86f820475850ba43b740082520894141d08edada2c1ba62a2940184ba03d62d3fff228901f387edca522f8000801ba05e4efdf051d5a302d0313313191730c20cd295741472c1f8454c79c62dd308caa07919d718d1847bc9a99ccbdceb3d02a439178c040ea627aea519b1ea1ee7bdc5",
      "networkId": 0,
      "chainId": 0
    },
    {
      "hash": "0x800e1f3187350510bcd677d0378c6b38b98549f5b71cafe4a9beb4aa18892cd0",
      "blockHash": "0x0301d0148dc895d8671142d8622cbc168311fce19b6d3d1a5f019589ab873fd7",
      "blockNumber": 116813,
      "transactionIndex": 2,
      "confirmations": null,
      "from": "0x2910543Af39abA0Cd09dBb2D50200b3E800A63D2",
      "gasPrice": {
        "_hex": "0xba43b7400"
      },
      "gasLimit": {
        "_hex": "0x5208"
      },
      "to": "0x289B9bA6dC9c12D3130F1115180397C20cCBF220",
      "value": {
        "_hex": "0x1a59544150ff0f38000"
      },
      "nonce": 1142,
      "data": "0x",
      "r": "0xffc8416b8bef1fc80631b53ab082f7859589adaea6e38109f3faa344c4db0dad",
      "s": "0x77bef1bb397891802bbfa759a168f103dc945384b94ad0ac79308e373416b978",
      "v": 27,
      "creates": null,
      "raw": "0xf870820476850ba43b740082520894289b9ba6dc9c12d3130f1115180397c20ccbf2208a01a59544150ff0f38000801ba0ffc8416b8bef1fc80631b53ab082f7859589adaea6e38109f3faa344c4db0dada077bef1bb397891802bbfa759a168f103dc945384b94ad0ac79308e373416b978",
      "networkId": 0,
      "chainId": 0
    },
    {
      "hash": "0x130a425c5179e68d4762776fe4bbb2ebb1b44a20eaa827ea0d123d3b79478c58",
      "blockHash": "0x0301d0148dc895d8671142d8622cbc168311fce19b6d3d1a5f019589ab873fd7",
      "blockNumber": 116813,
      "transactionIndex": 3,
      "confirmations": null,
      "from": "0xe6A7a1d47ff21B6321162AEA7C6CB457D5476Bca",
      "gasPrice": {
        "_hex": "0xba43b7400"
      },
      "gasLimit": {
        "_hex": "0x55f0"
      },
      "to": "0x46e97208BC7F618816Cb502A2b516fb4BC41f1D3",
      "value": {
        "_hex": "0x15c9dffcd4d56afc"
      },
      "nonce": 5594,
      "data": "0x",
      "r": "0x5e56ccf327a5988b6b49ce4ce806210d31dcfab11af75093923606cbcced14e6",
      "s": "0x6e17a322cbabf7e423462c305e9c7a66416db416458bb47c79f361fa0ef32452",
      "v": 28,
      "creates": null,
      "raw": "0xf86e8215da850ba43b74008255f09446e97208bc7f618816cb502a2b516fb4bc41f1d38815c9dffcd4d56afc801ca05e56ccf327a5988b6b49ce4ce806210d31dcfab11af75093923606cbcced14e6a06e17a322cbabf7e423462c305e9c7a66416db416458bb47c79f361fa0ef32452",
      "networkId": 0,
      "chainId": 0
    },
    {
      "hash": "0x94dc6adb481b6dbb41d52f83612bdd04e550d5a383c3d38874c6552f6ac035e2",
      "blockHash": "0x0301d0148dc895d8671142d8622cbc168311fce19b6d3d1a5f019589ab873fd7",
      "blockNumber": 116813,
      "transactionIndex": 4,
      "confirmations": null,
      "from": "0x2910543Af39abA0Cd09dBb2D50200b3E800A63D2",
      "gasPrice": {
        "_hex": "0xba43b7400"
      },
      "gasLimit": {
        "_hex": "0x5208"
      },
      "to": "0x19ae27E1b61445EB9f27821A5eB4b3e957319e7e",
      "value": {
        "_hex": "0xf8a7f49c16b7618000"
      },
      "nonce": 1143,
      "data": "0x",
      "r": "0xe11f2b14eb2aecd808a71d664557a34e034a9b7ea221e623f2977aee8a6430c1",
      "s": "0x01daee3f2276076001db2122da3ffd730b529cbcc1a3bc514856d0b62b085c86",
      "v": 27,
      "creates": null,
      "raw": "0xf86f820477850ba43b74008252089419ae27e1b61445eb9f27821a5eb4b3e957319e7e89f8a7f49c16b7618000801ba0e11f2b14eb2aecd808a71d664557a34e034a9b7ea221e623f2977aee8a6430c1a001daee3f2276076001db2122da3ffd730b529cbcc1a3bc514856d0b62b085c86",
      "networkId": 0,
      "chainId": 0
    },
    {
      "hash": "0x77d5b87eeef8a756409e4eb2c15819fbbfd01b14bb4c3ae4b6c18e1ec56d8f1f",
      "blockHash": "0x0301d0148dc895d8671142d8622cbc168311fce19b6d3d1a5f019589ab873fd7",
      "blockNumber": 116813,
      "transactionIndex": 5,
      "confirmations": null,
      "from": "0x2910543Af39abA0Cd09dBb2D50200b3E800A63D2",
      "gasPrice": {
        "_hex": "0xba43b7400"
      },
      "gasLimit": {
        "_hex": "0x5208"
      },
      "to": "0x74672829d26538f170FCE44F0CA97b5D5906532D",
      "value": {
        "_hex": "0x15181ff25a98000"
      },
      "nonce": 1144,
      "data": "0x",
      "r": "0x2fa5a80a72a00442c6107f18a4ea21f367dc9c91e9e8f2a28f1eafc8a6823259",
      "s": "0x11295bc86b1df0db2a70c6761edb4511879603f86b25b1c1c8da486faf792710",
      "v": 27,
      "creates": null,
      "raw": "0xf86e820478850ba43b74008252089474672829d26538f170fce44f0ca97b5d5906532d88015181ff25a98000801ba02fa5a80a72a00442c6107f18a4ea21f367dc9c91e9e8f2a28f1eafc8a6823259a011295bc86b1df0db2a70c6761edb4511879603f86b25b1c1c8da486faf792710",
      "networkId": 0,
      "chainId": 0
    }
  ]
}