{
  "hash": "0x0de1ffb469f740f17f6b2fafe91a8907a4f3115c32f6223b692f335dcec91cfc",
  "parentHash": "0x29e1f07098dca300fb63707eaff2f0e75b43786fa391ba6e10fb678d3b4d9d4e",
  "number": 107691,
  "timestamp": 1439927040,
  "nonce": "0x02038c49bd80ac6f",
  "difficulty": 4377020723898,
  "gasLimit": {
    "_hex": "0x2fefd8"
  },
  "gasUsed": {
    "_hex": "0x5208"
  },
  "miner": "0xbb7B8287f3F0a933474a79eAe42CBCa977791171",
  "extraData": "0x476574682f4c5649562f76312e302e312f6c696e75782f676f312e342e32",
  "transactions": [
    {
      "hash": "0xec6224ea0a9091b8107904cee38420ad8dffd7a1ca57315590238fea55eb9481",
      "blockHash": "0x0de1ffb469f740f17f6b2fafe91a8907a4f3115c32f6223b692f335dcec91cfc",
      "blockNumber": 107691,
      "transactionIndex": 0,
      "confirmations": null,
      "from": "0x120A270bbC009644e35F0bB6ab13f95b8199c4ad",
      "gasPrice": {
        "_hex": "0xcef80ea6f"
      },
      "gasLimit": {
        "_hex": "0x3d090"
      },
      "to": "0xCbcF20C040052cF5038dA44BB5F0Da8FA62bdAa2",
      "value": {
        "_hex": "0x32e461cd12eae400"
      },
      "nonce": 815,
      "data": "0x",
      "r": "0xd3fbe8f253e9e0b939f706f681423fe6969e286c09eb6328ad6ec3ea57c107fe",
      "s": "0x1ab42bba9001fc3506e806d818e5f1cb794d3a48fb7ce387264412c204e8cfca",
      "v": 27,
      "creates": null,
      "raw": "0xf86f82032f850cef80ea6f8303d09094cbcf20c040052cf5038da44bb5f0da8fa62bdaa28832e461cd12eae400801ba0d3fbe8f253e9e0b939f706f681423fe6969e286c09eb6328ad6ec3ea57c107fea01ab42bba9001fc3506e806d818e5f1cb794d3a48fb7ce387264412c204e8cfca",
      "networkId": 0,
      "chainId": 0
    }
  ]
}