{
  "hash": "0x8f16c6f29a3631593b6fb2c62e9e87111618074870c30d1ec7fadfa61468a51c",
  "parentHash": "0x1514c6b711ec2e3c4c31c42c6623b26b7702a2d7f7d2f84467be71670b655346",
  "number": 102140,
  "timestamp": 1439833439,
  "nonce": "0x6f027e5817a74eea",
  "difficulty": 3908917508023,
  "gasLimit": {
    "_hex": "0x2fefd8"
  },
  "gasUsed": {
    "_hex": "0x5208"
  },
  "miner": "0x88D74a59454F6cF3B51ef6b9136AFb6b9D405A88",
  "extraData": "0x476574682f76312e302e312d38326566323666362f6c696e75782f676f312e34",
  "transactions": [
    {
      "hash": "0x551b459e0569189adbbcf544d6644efc86fd76909a34e98397ecfb1b7bfb7fb9",
      "blockHash": "0x8f16c6f29a3631593b6fb2c62e9e87111618074870c30d1ec7fadfa61468a51c",
      "blockNumber": 102140,
      "transactionIndex": 0,
      "confirmations": null,
      "from": "0x2910543Af39abA0Cd09dBb2D50200b3E800A63D2",
      "gasPrice": {
        "_hex": "0xdd18650df"
      },
      "gasLimit": {
        "_hex": "0x5208"
      },
      "to": "0xe7cfdAcb398c319799E001D6A0F5d07B9187Ae16",
      "value": {
        "_hex": "0x56bb59ab42b2f8000"
      },
      "nonce": 985,
      "data": "0x",
      "r": "0x7df66bf158ce1b6383f8e88221e2ff18f66d159825a6b40bd8b9bac675fca2b5",
      "s": "0x5b11486af9e2593af988fa10d2ec7f773b276e014864975956ee6fe667190cb1",
      "v": 27,
      "creates": null,
      "raw": "0xf86f8203d9850dd18650df82520894e7cfdacb398c319799e001d6a0f5d07b9187ae1689056bb59ab42b2f8000801ba07df66bf158ce1b6383f8e88221e2ff18f66d159825a6b40bd8b9bac675fca2b5a05b11486af9e2593af988fa10d2ec7f773b276e014864975956ee6fe667190cb1",
      "networkId": 0,
      "chainId": 0
    }
  ]
}