{
  "hash": "0xf9174482932bb2966bdcf4b557aa283ada7e56fa5db3cd24bad208343db7760a",
  "parentHash": "0x720721accd18d137b16eba38cb8ea084e492cdea306899017fc8d340d079d86e",
  "number": 57298,
  "timestamp": 1439100838,
  "nonce": "0x3c55d65c6a7b9421",
  "difficulty": 1738767128300,
  "gasLimit": {
    "_hex": "0x2fefd8"
  },
  "gasUsed": {
    "_hex": "0x546c"
  },
  "miner": "0xf927a40C8B7F6E07c5af7FA2155B4864a4112B13",
  "extraData": "0x476574682f76312e302e312f6c696e75782f676f312e342e32",
  "transactions": [
    {
      "hash": "0x3d35143bf5319ac004a12688486f89678d5f191e90ae68a60169143ce50c7ad1",
      "blockHash": "0xf9174482932bb2966bdcf4b557aa283ada7e56fa5db3cd24bad208343db7760a",
      "blockNumber": 57298,
      "transactionIndex": 0,
      "confirmations": null,
      "from": "0x2001BEF77b66F51e1599B02Fb110194A0099b78d",
      "gasPrice": {
        "_hex": "0xd8364fc25"
      },
      "gasLimit": {
        "_hex": "0x15f90"
      },
      "to": "0x2910543Af39abA0Cd09dBb2D50200b3E800A63D2",
      "value": {
        "_hex": "0xd8d726b7177a80000"
      },
      "nonce": 4,
      "data": "0x454e4b3441344a3852",
      "r": "0xb3b5123506ffed90e51bac2b4a0944f9343a6db6944599db40ecc643d2e05a41",
      "s": "0x2cd2da2a09bbcf3d4da8b677ce0dcf031d4d64b2d3479ba49cf6a433805d1a3f",
      "v": 28,
      "creates": null,
      "raw": "0xf87704850d8364fc2583015f90942910543af39aba0cd09dbb2d50200b3e800a63d2890d8d726b7177a8000089454e4b3441344a38521ca0b3b5123506ffed90e51bac2b4a0944f9343a6db6944599db40ecc643d2e05a41a02cd2da2a09bbcf3d4da8b677ce0dcf031d4d64b2d3479ba49cf6a433805d1a3f",
      "networkId": 0,
      "chainId": 0
    }
  ]
}