{
  "hash": "0x18890544eea29b3ea294e3c95d9e1c3939bd14212610eed418c4deddd22710d8",
  "parentHash": "0x97cd36e66c5c65f73b0fa7f178ca4a8f0e2dc6e47b1e06246bf33f816fe7966f",
  "number": 97387,
  "timestamp": 1439755194,
  "nonce": "0x7105e1ce83fbed6a",
  "difficulty": 3822397581031,
  "gasLimit": {
    "_hex": "0x2fefd8"
  },
  "gasUsed": {
    "_hex": "0xc472"
  },
  "miner": "0xD0ee3F53eE0fCf3F9fbCcdd17BD1b6441DdC2074",
  "extraData": "0x476574682f76312e302e312d38326566323666362f6c696e75782f676f312e34",
  "transactions": [
    {
      "hash": "0xe8e554d2ecb9aab4eeabe0a409d6bfd2652472920af1a3984335dcec2597949f",
      "blockHash": "0x18890544eea29b3ea294e3c95d9e1c3939bd14212610eed418c4deddd22710d8",
      "blockNumber": 97387,
      "transactionIndex": 0,
      "confirmations": null,
      "from": "0x4BBc2EF7E5482B88E8c9C4bc05c5A3d3FF2B03c7",
      "gasPrice": {
        "_hex": "0xe2397d7da"
      },
      "gasLimit": {
        "_hex": "0x15f90"
      },
      "to": "0xe6391fFF899CfCCC80e19b7ba39BBee15393554E",
      "value": {
        "_hex": "0x0"
      },
      "nonce": 11,
      "data": "0x90b98a11000000000000000000000000dece84c449780fead1de815ea149ef3affcfc10c00000000000000000000000000000000000000000000000000000000000003e8",
      "r": "0xdaa364104676c3904681c16d3be7f8403b467e766529e334cb65d2f93bb2595b",
      "s": "0x0d33b2a4b3f6541cd3b3f9443f84f06642403f922962b82b06e118ad5b6af63c",
      "v": 27,
      "creates": null,
      "raw": "0xf8aa0b850e2397d7da83015f9094e6391fff899cfccc80e19b7ba39bbee15393554e80b84490b98a11000000000000000000000000dece84c449780fead1de815ea149ef3affcfc10c00000000000000000000000000000000000000000000000000000000000003e81ba0daa364104676c3904681c16d3be7f8403b467e766529e334cb65d2f93bb2595ba00d33b2a4b3f6541cd3b3f9443f84f06642403f922962b82b06e118ad5b6af63c",
      "networkId": 0,
      "chainId": 0
    }
  ]
}