{
  "hash": "0x347d21458b2b4f9d179df48dbde13008e1e48032a76eef0c2a84c01f37923e92",
  "parentHash": "0xf3b7ce9b2626701d5032176f50110cb9aaab951970a4df01673ec2ff4133b286",
  "number": 48072,
  "timestamp": 1438950857,
  "nonce": "0xd9e2a2ddfdb33332",
  "difficulty": 1461511886864,
  "gasLimit": {
    "_hex": "0x124a7"
  },
  "gasUsed": {
    "_hex": "0x546c"
  },
  "miner": "0xbb7B8287f3F0a933474a79eAe42CBCa977791171",
  "extraData": "0x476574682f4c5649562f76312e302e312f6c696e75782f676f312e342e32",
  "transactions": [
    {
      "hash": "0x220029780fc5fd0b3c86bb0d2c932596beac8754693be9eea5119bb5c99993df",
      "blockHash": "0x347d21458b2b4f9d179df48dbde13008e1e48032a76eef0c2a84c01f37923e92",
      "blockNumber": 48072,
      "transactionIndex": 0,
      "confirmations": null,
      "from": "0x709fe9d2C1f1ce42207c9585044A60899F35942f",
      "gasPrice": {
        "_hex": "0xd2cd57d15"
      },
      "gasLimit": {
        "_hex": "0x55f0"
      },
      "to": "0x2910543Af39abA0Cd09dBb2D50200b3E800A63D2",
      "value": {
        "_hex": "0x3635c9adc5dea00000"
      },
      "nonce": 0,
      "data": "0x454e43304244483138",
      "r": "0x969e11be3dd9ba17d33cb9d5c4c611983b36952449ff3c5ca7c3900cb7453184",
      "s": "0x35fcc284317a2077579b7e96626aa791e3392644a4f4d0506ae49e1436f6dfdd",
      "v": 27,
      "creates": null,
      "raw": "0xf87680850d2cd57d158255f0942910543af39aba0cd09dbb2d50200b3e800a63d2893635c9adc5dea0000089454e433042444831381ba0969e11be3dd9ba17d33cb9d5c4c611983b36952449ff3c5ca7c3900cb7453184a035fcc284317a2077579b7e96626aa791e3392644a4f4d0506ae49e1436f6dfdd",
      "networkId": 0,
      "chainId": 0
    }
  ]
}