{
  "hash": "0xf8d2f92f3a99909b8241c81f8a29f7d3c2397252f56d94c1519a6066240d2d4e",
  "parentHash": "0xa9cd85fe39ac4d9e2c9b89de2cb4356cdf26d089a8246c042f1bad453be36d30",
  "number": 122253,
  "timestamp": 1440190871,
  "nonce": "0xf500dc0329d7e789",
  "difficulty": 4468681087332,
  "gasLimit": {
    "_hex": "0x2fefd8"
  },
  "gasUsed": {
    "_hex": "0x5208"
  },
  "miner": "0x007f7f58D3eb5b7510A301eCC749FC1fCDDBE14D",
  "extraData": "0x",
  "transactions": [
    {
      "hash": "0xe08485316fd1f79a3aefa93fcbbc72ece9c24921d2a896dd7af49026a8b84258",
      "blockHash": "0xf8d2f92f3a99909b8241c81f8a29f7d3c2397252f56d94c1519a6066240d2d4e",
      "blockNumber": 122253,
      "transactionIndex": 0,
      "confirmations": null,
      "from": "0xdd26b429Fd43D84EC179825324BaD5bfb916B360",
      "gasPrice": {
        "_hex": "0xba43b7400"
      },
      "gasLimit": {
        "_hex": "0x15f90"
      },
      "to": "0x899708488bD7a83aebA4a22BEAB20BaCC1B01Cf3",
      "value": {
        "_hex": "0x3643aa647986040000"
      },
      "nonce": 3,
      "data": "0x",
      "r": "0x911438e4629392b1bc996b5805e57186bd9ed22cd3659af36bfe3042cacf5171",
      "s": "0x44f7e54b546cffaa6c85925e7c9fa05b1655c508c99b54d96c9edb0701dc29a3",
      "v": 27,
      "creates": null,
      "raw": "0xf86e03850ba43b740083015f9094899708488bd7a83aeba4a22beab20bacc1b01cf3893643aa647986040000801ba0911438e4629392b1bc996b5805e57186bd9ed22cd3659af36bfe3042cacf5171a044f7e54b546cffaa6c85925e7c9fa05b1655c508c99b54d96c9edb0701dc29a3",
      "networkId": 0,
      "chainId": 0
    }
  ]
}