{
  "hash": "0x4b53507e4668eb5978ddbf62a8b25d2d248a356f8cc727e71058445a70233625",
  "parentHash": "0xe3d42a4648919a1ca2deec283e4de2b22f13ba6f7a99a0748f62187407a44934",
  "number": 100806,
  "timestamp": 1439812618,
  "nonce": "0xbc800a8b72fa25ca",
  "difficulty": 3845170498544,
  "gasLimit": {
    "_hex": "0x2fefd8"
  },
  "gasUsed": {
    "_hex": "0x5208"
  },
  "miner": "0xe6A7a1d47ff21B6321162AEA7C6CB457D5476Bca",
  "extraData": "0x476574682f76312e302e312d38326566323666362f6c696e75782f676f312e34",
  "transactions": [
    {
      "hash": "0xf70e8bda79e70851f5d39cbb77b8e76e6ccf45c70915f2a6175d9b0751e7bbb3",
      "blockHash": "0x4b53507e4668eb5978ddbf62a8b25d2d248a356f8cc727e71058445a70233625",
      "blockNumber": 100806,
      "transactionIndex": 0,
      "confirmations": null,
      "from": "0x211D45933Ef88c3D7aD0120942CF50ab506e618F",
      "gasPrice": {
        "_hex": "0xded7dfec1"
      },
      "gasLimit": {
        "_hex": "0x5208"
      },
      "to": "0x32Be343B94f860124dC4fEe278FDCBD38C102D88",
      "value": {
        "_hex": "0x91c6dad9d4ba5000"
      },
      "nonce": 7,
      "data": "0x",
      "r": "0x410207cbc0f1b1409b9cd60aef6ae23d482cbf157314559377dc0aafd8bcf669",
      "s": "0x29bdb80bca777696d5cca403f4fc8aa28e4d8ad4d9dd9226f0727c40c073348e",
      "v": 27,
      "creates": null,
      "raw": "0xf86c07850ded7dfec18252089432be343b94f860124dc4fee278fdcbd38c102d888891c6dad9d4ba5000801ba0410207cbc0f1b1409b9cd60aef6ae23d482cbf157314559377dc0aafd8bcf669a029bdb80bca777696d5cca403f4fc8aa28e4d8ad4d9dd9226f0727c40c073348e",
      "networkId": 0,
      "chainId": 0
    }
  ]
}