{
  "hash": "0xe36b6f1e45d4a801c5f7b282384000339eaade32fb5c582884a27c7b3bb6c687",
  "parentHash": "0xb7359feae08d3d8db1ff586b036259eaf9ae84e0d7cbbffb05cc80b053cadeec",
  "number": 47544,
  "timestamp": 1438942556,
  "nonce": "0x169f3af81d17b348",
  "difficulty": 1445987086260,
  "gasLimit": {
    "_hex": "0xcd8b"
  },
  "gasUsed": {
    "_hex": "0x5208"
  },
  "miner": "0xF2d2AfF1320476cb8C6b607199D23175cc595693",
  "extraData": "0x476574682f76312e302e312f77696e646f77732f676f312e342e32",
  "transactions": [
    {
      "hash": "0xb97c40def8d29b067f72aee0d31a107292f5777c0a23800a3be72dddbe027747",
      "blockHash": "0xe36b6f1e45d4a801c5f7b282384000339eaade32fb5c582884a27c7b3bb6c687",
      "blockNumber": 47544,
      "transactionIndex": 0,
      "confirmations": null,
      "from": "0xe6A7a1d47ff21B6321162AEA7C6CB457D5476Bca",
      "gasPrice": {
        "_hex": "0x1cc97c2f04"
      },
      "gasLimit": {
        "_hex": "0x55f0"
      },
      "to": "0xa21E0cF3793cf75D63930696158E4474aF8383bA",
      "value": {
        "_hex": "0x4126c41e5f0437890"
      },
      "nonce": 172,
      "data": "0x",
      "r": "0x5aff0c664dd3310719357881ff00da9a65adff7b0e620ba0305e82fb58a50b60",
      "s": "0x683653f05dec1b4dad4465a903bc6e5aacb45d3cc417f54ad136c2ec86d80169",
      "v": 27,
      "creates": null,
      "raw": "0xf86e81ac851cc97c2f048255f094a21e0cf3793cf75d63930696158e4474af8383ba8904126c41e5f0437890801ba05aff0c664dd3310719357881ff00da9a65adff7b0e620ba0305e82fb58a50b60a0683653f05dec1b4dad4465a903bc6e5aacb45d3cc417f54ad136c2ec86d80169",
      "networkId": 0,
      "chainId": 0
    }
  ]
}