{
  "hash": "0xa47a972e6601d9c22582310db41ed732aade628fdd29d8e188a15d1cd4fd6c13",
  "parentHash": "0x3dcea4d1d2de8300fa3ff3cda25d97b1c3a08df2d5de79b97cf98c16da16f3f8",
  "number": 91774,
  "timestamp": 1439661308,
  "nonce": "0x074207620f5ca3ec",
  "difficulty": 3484363056776,
  "gasLimit": {
    "_hex": "0x2fefd8"
  },
  "gasUsed": {
    "_hex": "0x5208"
  },
  "miner": "0xD3E2F0F585C1bDF616A23E113223ba0D26865B01",
  "extraData": "0x476574682f76312e302e312f77696e646f77732f676f312e342e32",
  "transactions": [
    {
      "hash": "0x7f351619057da2a861207bcf11f11b5869e3ad08b77c066fcaf6b5e178933320",
      "blockHash": "0xa47a972e6601d9c22582310db41ed732aade628fdd29d8e188a15d1cd4fd6c13",
      "blockNumber": 91774,
      "transactionIndex": 0,
      "confirmations": null,
      "from": "0xEdD03B3afA58aaE8C5732fF58e26099bc5C10659",
      "gasPrice": {
        "_hex": "0xba43b7400"
      },
      "gasLimit": {
        "_hex": "0x5208"
      },
      "to": "0xC47Aaa860008be6f65B58c6C6E02a84e666EfE31",
      "value": {
        "_hex": "0x1b1acf58718a6b91e0"
      },
      "nonce": 4,
      "data": "0x",
      "r": "0x3d5886becc85999fa415dc658855e2a6b12714ccdf78c4f9f282931afa61c39c",
      "s": "0x65e10d203b9ec0ea6ff260cb03e487971248b2eb6ce7f07c35f8d36fe453d2ae",
      "v": 27,
      "creates": null,
      "raw": "0xf86d04850ba43b740082520894c47aaa860008be6f65b58c6c6e02a84e666efe31891b1acf58718a6b91e0801ba03d5886becc85999fa415dc658855e2a6b12714ccdf78c4f9f282931afa61c39ca065e10d203b9ec0ea6ff260cb03e487971248b2eb6ce7f07c35f8d36fe453d2ae",
      "networkId": 0,
      "chainId": 0
    }
  ]
}