{
  "hash": "0x5eb1b13bc3f287db38e9042b29b24001923ae89c962d20483bffddd8f0d81cfc",
  "parentHash": "0xba684f8c9d3c40724a34ff6b01455baeb7a40f96a7ea7135dd3a031c51b303d3",
  "number": 105909,
  "timestamp": 1439895449,
  "nonce": "0xdad65c34c31b3dfc",
  "difficulty": 4451238124542,
  "gasLimit": {
    "_hex": "0x2fefd8"
  },
  "gasUsed": {
    "_hex": "0x1b497"
  },
  "miner": "0xf927a40C8B7F6E07c5af7FA2155B4864a4112B13",
  "extraData": "0x",
  "transactions": [
    {
      "hash": "0x5220567433b9dc06fc7802659c1772b61dbba1665f493d59e3c556508354c2d3",
      "blockHash": "0x5eb1b13bc3f287db38e9042b29b24001923ae89c962d20483bffddd8f0d81cfc",
      "blockNumber": 105909,
      "transactionIndex": 0,
      "confirmations": null,
      "from": "0x87C5B5874A18B4306DF8a752a6C8cc3E82daFc19",
      "gasPrice": {
        "_hex": "0x10a8f777756"
      },
      "gasLimit": {
        "_hex": "0x493e0"
      },
      "to": "0xD79B4C6791784184e2755B2fC1659eaaB0f80456",
      "value": {
        "_hex": "0x1d9b543e2bb920ef"
      },
      "nonce": 297,
      "data": "0x8d2161860000000000000000000000000000000000000000000000000000000000000007d3d96ceed0cfca4794c2a5a3d3aeefe69da0a2a669e66a5651f30b64831c3db0",
      "r": "0xc354e159e3b764f4d8adf911406c302780185706873ca8467ebe6884e9b1f53f",
      "s": "0x1f3fb94578c8a66522629a958c6199f12c4859db59a7a3339e806643863f5acd",
      "v": 28,
      "creates": null,
      "raw": "0xf8b582012986010a8f777756830493e094d79b4c6791784184e2755b2fc1659eaab0f80456881d9b543e2bb920efb8448d2161860000000000000000000000000000000000000000000000000000000000000007d3d96ceed0cfca4794c2a5a3d3aeefe69da0a2a669e66a5651f30b64831c3db01ca0c354e159e3b764f4d8adf911406c302780185706873ca8467ebe6884e9b1f53fa01f3fb94578c8a66522629a958c6199f12c4859db59a7a3339e806643863f5acd",
      "networkId": 0,
      "chainId": 0
    }
  ]
}