{
  "hash": "0x13bc229d3ac696001e6c4c62b04712811dfb1c963a2a1e3b85000a4d1900416b",
  "parentHash": "0xe1196a41b00632d3e0bc949e6639343b974e470309b7d55129742a0f9bd90fc8",
  "number": 105599,
  "timestamp": 1439890351,
  "nonce": "0x2d504992847f8176",
  "difficulty": 4408143460560,
  "gasLimit": {
    "_hex": "0x2fefd8"
  },
  "gasUsed": {
    "_hex": "0xafa7"
  },
  "miner": "0x9Fa9952255B2b06639A04D63804d4BdFFf6E2d7e",
  "extraData": "0x476574682f76312e302e312f77696e646f77732f676f312e342e32",
  "transactions": [
    {
      "hash": "0x03ce46fac282de098486c8c82a370367a4d05f2a8db2e503845fbd5f6c9dfe96",
      "blockHash": "0x13bc229d3ac696001e6c4c62b04712811dfb1c963a2a1e3b85000a4d1900416b",
      "blockNumber": 105599,
      "transactionIndex": 0,
      "confirmations": null,
      "from": "0x32Be343B94f860124dC4fEe278FDCBD38C102D88",
      "gasPrice": {
        "_hex": "0xdabd64ded"
      },
      "gasLimit": {
        "_hex": "0x5208"
      },
      "to": "0xE3291e02d1d7b6A7F4aAA164c56Cf21FD30D0eb5",
      "value": {
        "_hex": "0x9cf5431ad42c400000"
      },
      "nonce": 1173,
      "data": "0x",
      "r": "0x91cbb0496b42fb9512403667a507b70d9651e255fe1c16dee850557ab560acd3",
      "s": "0x308dd8f083694d9c45103028b8d98bc11dc4a095a0c4ed14a8fce5080823c3d6",
      "v": 27,
      "creates": null,
      "raw": "0xf86f820495850dabd64ded82520894e3291e02d1d7b6a7f4aaa164c56cf21fd30d0eb5899cf5431ad42c400000801ba091cbb0496b42fb9512403667a507b70d9651e255fe1c16dee850557ab560acd3a0308dd8f083694d9c45103028b8d98bc11dc4a095a0c4ed14a8fce5080823c3d6",
      "networkId": 0,
      "chainId": 0
    },
    {
      "hash": "0x6339566eed2e0f8d70df50f591a60f7c42529def385fcdc81527d3433a54ab3d",
      "blockHash": "0x13bc229d3ac696001e6c4c62b04712811dfb1c963a2a1e3b85000a4d1900416b",
      "blockNumber": 105599,
      "transactionIndex": 1,
      "confirmations": null,
      "from": "0xb4f523106D96985a62306557ED1e19F129D42812",
      "gasPrice": {
        "_hex": "0xd3e938103"
      },
      "gasLimit": {
        "_hex": "0x15f90"
      },
      "to": "0xAd8d3a5d2d92EB14bB56CA9f380be35b8EFE0c04",
      "value": {
        "_hex": "0x36400eafda2c6a0000"
      },
      "nonce": 3,
      "data": "0xb214faa54141414142414842410000000000000000000000000000000000000000000000",
      "r": "0x04f35a762d4de8fec43ae4eeaf692259592bb4e14cb5f5f57d3903c95f01f184",
      "s": "0x1af70c46d8536fb41594bbfd04c5fdcf8333d842f86da0d492f962686a8f6391",
      "v": 28,
      "creates": null,
      "raw": "0xf89203850d3e93810383015f9094ad8d3a5d2d92eb14bb56ca9f380be35b8efe0c048936400eafda2c6a0000a4b214faa541414141424148424100000000000000000000000000000000000000000000001ca004f35a762d4de8fec43ae4eeaf692259592bb4e14cb5f5f57d3903c95f01f184a01af70c46d8536fb41594bbfd04c5fdcf8333d842f86da0d492f962686a8f6391",
      "networkId": 0,
      "chainId": 0
    }
  ]
}