{
  "hash": "0xd27d0e0d4bac698a0da46b6b48a43e8ac2b679eff5872e257dd735da5be44166",
  "parentHash": "0x617b86361f77ad8ccfce540486d0225dfa21ff22904a43acc9ccc3a0803feaea",
  "number": 63745,
  "timestamp": 1439209504,
  "nonce": "0x34915353b367d3f1",
  "difficulty": 1843175332893,
  "gasLimit": {
    "_hex": "0x2fefd5"
  },
  "gasUsed": {
    "_hex": "0x5208"
  },
  "miner": "0x88D74a59454F6cF3B51ef6b9136AFb6b9D405A88",
  "extraData": "0x476574682f76312e302e312d38326566323666362f6c696e75782f676f312e34",
  "transactions": [
    {
      "hash": "0x08a4799261a25bde45d46f62e22337c67ec8afb404cf4a2c4b93238a724fcb2e",
      "blockHash": "0xd27d0e0d4bac698a0da46b6b48a43e8ac2b679eff5872e257dd735da5be44166",
      "blockNumber": 63745,
      "transactionIndex": 0,
      "confirmations": null,
      "from": "0x7a94B19992CeB8cE63BC92Ee4b5adeD10c4D9725",
      "gasPrice": {
        "_hex": "0xccc84b034"
      },
      "gasLimit": {
        "_hex": "0x15f90"
      },
      "to": "0x6ACfef6b58D6EE01D4BdB53CA81c5D6560824446",
      "value": {
        "_hex": "0xc6e4cffb9b5c018000"
      },
      "nonce": 3,
      "data": "0x",
      "r": "0xf88a84760212cbe2d302cd2c84607c32b78055acaf0989a08f1f1dbd545d8979",
      "s": "0x1227e16e845cec6602f82efb5c0b79c7ca92d57f77d173fe86a3a19c7f162ffb",
      "v": 28,
      "creates": null,
      "raw": "0xf86e03850ccc84b03483015f90946acfef6b58d6ee01d4bdb53ca81c5d656082444689c6e4cffb9b5c018000801ca0f88a84760212cbe2d302cd2c84607c32b78055acaf0989a08f1f1dbd545d8979a01227e16e845cec6602f82efb5c0b79c7ca92d57f77d173fe86a3a19c7f162ffb",
      "networkId": 0,
      "chainId": 0
    }
  ]
}