{
  "hash": "0xca22dc21b51c05427165ef33df07d2875d61a97aa75b245fe0e29de0e2b4bdf5",
  "parentHash": "0x63f5dddf24a83f6c07af7a01e44d3774b446d4a3f81c772285d6971cebb56d4f",
  "number": 70106,
  "timestamp": 1439314744,
  "nonce": "0x7cfe06340c935585",
  "difficulty": 2112640443943,
  "gasLimit": {
    "_hex": "0x2fefd8"
  },
  "gasUsed": {
    "_hex": "0xa410"
  },
  "miner": "0xf927a40C8B7F6E07c5af7FA2155B4864a4112B13",
  "extraData": "0x",
  "transactions": [
    {
      "hash": "0x19e43ff37bb0db3cf2d9512b77c9decdd48f3e2e4673a81434da801cd349ad09",
      "blockHash": "0xca22dc21b51c05427165ef33df07d2875d61a97aa75b245fe0e29de0e2b4bdf5",
      "blockNumber": 70106,
      "transactionIndex": 0,
      "confirmations": null,
      "from": "0x02E816AFC1b5C0f39852131959D946eb3b07b5ad",
      "gasPrice": {
        "_hex": "0xd7d40ace3"
      },
      "gasLimit": {
        "_hex": "0x15f90"
      },
      "to": "0xC5a96Db085dDA36FfBE390f455315D30D6D3DC52",
      "value": {
        "_hex": "0x1bc16d674ec80000"
      },
      "nonce": 3,
      "data": "0x",
      "r": "0x1255d8676bf0fbeae4fddf1d8e0336a2beffbf2f569ac5dd71f25543932f30b5",
      "s": "0x62cb3441b1999885cf1f91e8b4f448e7700107179284855163c3a4cfc804b9cf",
      "v": 27,
      "creates": null,
      "raw": "0xf86d03850d7d40ace383015f9094c5a96db085dda36ffbe390f455315d30d6d3dc52881bc16d674ec80000801ba01255d8676bf0fbeae4fddf1d8e0336a2beffbf2f569ac5dd71f25543932f30b5a062cb3441b1999885cf1f91e8b4f448e7700107179284855163c3a4cfc804b9cf",
      "networkId": 0,
      "chainId": 0
    },
    {
      "hash": "0x92763200bfe7f2c60ba313dfba18ec49460e0c4de57396184c97a505dc93208a",
      "blockHash": "0xca22dc21b51c05427165ef33df07d2875d61a97aa75b245fe0e29de0e2b4bdf5",
      "blockNumber": 70106,
      "transactionIndex": 1,
      "confirmations": null,
      "from": "0xA1623430350C5df1b52B0b57483A5bb45d1796Da",
      "gasPrice": {
        "_hex": "0xd12c3dbb6"
      },
      "gasLimit": {
        "_hex": "0x7530"
      },
      "to": "0xf2881e3e520bF84469Fa00a56449D357FB1af54A",
      "value": {
        "_hex": "0x101b173be5908e0000"
      },
      "nonce": 2,
      "data": "0x",
      "r": "0x23b682ce85126dd3edd53c0f19022df5d7115331a63c796d1c7937365a8a7166",
      "s": "0x6fb5260a464afb79e511e8e5de3a6f8b01687a019cf2ab0044fb394dc6f4b10d",
      "v": 27,
      "creates": null,
      "raw": "0xf86d02850d12c3dbb682753094f2881e3e520bf84469fa00a56449d357fb1af54a89101b173be5908e0000801ba023b682ce85126dd3edd53c0f19022df5d7115331a63c796d1c7937365a8a7166a06fb5260a464afb79e511e8e5de3a6f8b01687a019cf2ab0044fb394dc6f4b10d",
      "networkId": 0,
      "chainId": 0
    }
  ]
}