{
  "hash": "0xa8166bc77132a83fc92ca29a637c39c1f6adb4aedb3870438fceeda000f5189e",
  "parentHash": "0x82563e38bb35aba852a15ab11a12f2f727f8b480a35e8c11ced6c8b38fb2416b",
  "number": 114241,
  "timestamp": 1440037251,
  "nonce": "0x80e3cf704e3e6ffc",
  "difficulty": 4451163836958,
  "gasLimit": {
    "_hex": "0x2fefd8"
  },
  "gasUsed": {
    "_hex": "0x5208"
  },
  "miner": "0xeB1325C8D9d3ea8D74aC11F4B00F1B2367686319",
  "extraData": "0x",
  "transactions": [
    {
      "hash": "0x4dea8db776c745662f3d5a8985562634eadb4e330b1c30415582205237948dfa",
      "blockHash": "0xa8166bc77132a83fc92ca29a637c39c1f6adb4aedb3870438fceeda000f5189e",
      "blockNumber": 114241,
      "transactionIndex": 0,
      "confirmations": null,
      "from": "0xFBb1b73C4f0BDa4f67dcA266ce6Ef42f520fBB98",
      "gasPrice": {
        "_hex": "0xd3cad5ef1"
      },
      "gasLimit": {
        "_hex": "0x5208"
      },
      "to": "0xd50EC384FEdb1033ad98072b30a5315f71cE5Bbb",
      "value": {
        "_hex": "0x2b5c0282441c70000"
      },
      "nonce": 228,
      "data": "0x",
      "r": "0x156dc9d6aabd4b5e60038a1136f4ea5b716c89543bb6928f09e58151ccadf71b",
      "s": "0x081df4e25397d1a1f76523a6746525a99d406933c08fe77319b50624e4c0cf0d",
      "v": 28,
      "creates": null,
      "raw": "0xf86e81e4850d3cad5ef182520894d50ec384fedb1033ad98072b30a5315f71ce5bbb8902b5c0282441c70000801ca0156dc9d6aabd4b5e60038a1136f4ea5b716c89543bb6928f09e58151ccadf71ba0081df4e25397d1a1f76523a6746525a99d406933c08fe77319b50624e4c0cf0d",
      "networkId": 0,
      "chainId": 0
    }
  ]
}