{
  "hash": "0x903a2383f5daf24c8087e36798fd46a39ae933a4f0eb626d0657c97f3c569c37",
  "parentHash": "0xd8d1d60b33681e47dc7b9b803ead5823b51e14858deaf3811ab774d46253e04a",
  "number": 94524,
  "timestamp": 1439709820,
  "nonce": "0x9d0e5b965da10121",
  "difficulty": 3490030795181,
  "gasLimit": {
    "_hex": "0x2fefd8"
  },
  "gasUsed": {
    "_hex": "0x5208"
  },
  "miner": "0xa50ec0D39fa913E62f1Bae7074E6F36caA71855b",
  "extraData": "0xd783010001844765746887676f312e342e32856c696e7578",
  "transactions": [
    {
      "hash": "0xe7b4c49ec2beae67dd2ac047f25d7b87597b2c1e7053ee1025c7bd36faace0db",
      "blockHash": "0x903a2383f5daf24c8087e36798fd46a39ae933a4f0eb626d0657c97f3c569c37",
      "blockNumber": 94524,
      "transactionIndex": 0,
      "confirmations": null,
      "from": "0x2910543Af39abA0Cd09dBb2D50200b3E800A63D2",
      "gasPrice": {
        "_hex": "0xd80f4fc9a"
      },
      "gasLimit": {
        "_hex": "0x5208"
      },
      "to": "0x8F586E3212291c58DCc78980a9c3432a3aFd3b6E",
      "value": {
        "_hex": "0x142a77b996056f8000"
      },
      "nonce": 880,
      "data": "0x",
      "r": "0xb375d251603ab412f0700b67eae9d792ec209ddd358696878ee4945404b2a206",
      "s": "0x2939a9b20f712afc74cb0ea8b7b8fc9736396db977d6e0d6392e05040d0d5ee9",
      "v": 28,
      "creates": null,
      "raw": "0xf86f820370850d80f4fc9a825208948f586e3212291c58dcc78980a9c3432a3afd3b6e89142a77b996056f8000801ca0b375d251603ab412f0700b67eae9d792ec209ddd358696878ee4945404b2a206a02939a9b20f712afc74cb0ea8b7b8fc9736396db977d6e0d6392e05040d0d5ee9",
      "networkId": 0,
      "chainId": 0
    }
  ]
}