{
  "hash": "0xbd4a17a66577625c2fff65564c2aa8e7b66e717967149a235d368bbe38416431",
  "parentHash": "0xb202041d4a15c23bb5a03034c4fe6c4f9d19d04c1a76214f139ca285565a76ae",
  "number": 78504,
  "timestamp": 1439454737,
  "nonce": "0x88be3a9e7d366b0e",
  "difficulty": 2297676476819,
  "gasLimit": {
    "_hex": "0x2fefd8"
  },
  "gasUsed": {
    "_hex": "0xa6b8"
  },
  "miner": "0x8C7bAEA34346a2E47026485BCD8f323012dEA6aA",
  "extraData": "0x476574682f76312e302e312f77696e646f77732f676f312e342e32",
  "transactions": [
    {
      "hash": "0xf23287326138cdf0e591ce7075f22e2d224008be12c04bbfd39c790c6e49d72b",
      "blockHash": "0xbd4a17a66577625c2fff65564c2aa8e7b66e717967149a235d368bbe38416431",
      "blockNumber": 78504,
      "transactionIndex": 0,
      "confirmations": null,
      "from": "0xE4bc843d8789F55f500d487ffcc451f4cbd25aec",
      "gasPrice": {
        "_hex": "0xd6b187d36"
      },
      "gasLimit": {
        "_hex": "0x55f0"
      },
      "to": "0x40B9b889A21Ff1534d018D71Dc406122EBcf3F5A",
      "value": {
        "_hex": "0x1236efcbcbb340000"
      },
      "nonce": 1,
      "data": "0x5a4b4955553435393235",
      "r": "0xb697f01f03dacc9631a1ef6e9f7f1948bac4a34a326745131113d083f447d4de",
      "s": "0x3e81b67e88f28043dacda8eda140417311d247038ce3b4c26725e2b3a562e326",
      "v": 28,
      "creates": null,
      "raw": "0xf87701850d6b187d368255f09440b9b889a21ff1534d018d71dc406122ebcf3f5a8901236efcbcbb3400008a5a4b49555534353932351ca0b697f01f03dacc9631a1ef6e9f7f1948bac4a34a326745131113d083f447d4dea03e81b67e88f28043dacda8eda140417311d247038ce3b4c26725e2b3a562e326",
      "networkId": 0,
      "chainId": 0
    },
    {
      "hash": "0x4f0df7abd20ba0c87329617a3aee0eda1b2f7156e916b1455c1083c542a46282",
      "blockHash": "0xbd4a17a66577625c2fff65564c2aa8e7b66e717967149a235d368bbe38416431",
      "blockNumber": 78504,
      "transactionIndex": 1,
      "confirmations": null,
      "from": "0x30ed11b77bc17E5e6694c8Bc5B6e4798F68D9Ca7",
      "gasPrice": {
        "_hex": "0xcd01555c5"
      },
      "gasLimit": {
        "_hex": "0x15f90"
      },
      "to": "0xa3453507AE48FFD96D23473fa939F5D8713C3212",
      "value": {
        "_hex": "0x8ac7230489e80000"
      },
      "nonce": 0,
      "data": "0x",
      "r": "0x52cf40be972f66c3e25990cf818ce58ffc852d689fe8c2717fc4de10d4e9f4e6",
      "s": "0x6d7993226387f6166805e4a72dc0a9b394a414f10290d70e1e6860f00a3f8ea6",
      "v": 27,
      "creates": null,
      "raw": "0xf86d80850cd01555c583015f9094a3453507ae48ffd96d23473fa939f5d8713c3212888ac7230489e80000801ba052cf40be972f66c3e25990cf818ce58ffc852d689fe8c2717fc4de10d4e9f4e6a06d7993226387f6166805e4a72dc0a9b394a414f10290d70e1e6860f00a3f8ea6",
      "networkId": 0,
      "chainId": 0
    }
  ]
}