{
  "hash": "0xe23fb5a06cf99aa158d45547ed7edb1d7595b3ea347d1d079cde2bcc08ed4f59",
  "parentHash": "0x122f4c439b1cff898f58080cec6714a077ba395009055d74aac5799828a6fe57",
  "number": 96668,
  "timestamp": 1439744043,
  "nonce": "0x5f263e7cbc5348d3",
  "difficulty": 3728705902829,
  "gasLimit": {
    "_hex": "0x2fefd8"
  },
  "gasUsed": {
    "_hex": "0x5208"
  },
  "miner": "0xe6A7a1d47ff21B6321162AEA7C6CB457D5476Bca",
  "extraData": "0x476574682f76312e302e312d38326566323666362f6c696e75782f676f312e34",
  "transactions": [
    {
      "hash": "0xb1311dfb56ab0b6a85204b160236bea307a70ae98ed107b3eff78d30ec7c7cc4",
      "blockHash": "0xe23fb5a06cf99aa158d45547ed7edb1d7595b3ea347d1d079cde2bcc08ed4f59",
      "blockNumber": 96668,
      "transactionIndex": 0,
      "confirmations": null,
      "from": "0x7884D470204862a0d1A21122F41ee77430396Ee5",
      "gasPrice": {
        "_hex": "0xcb867bddb"
      },
      "gasLimit": {
        "_hex": "0x15f90"
      },
      "to": "0xc963C32F15E59ABfcB814Dd1d96A900CF588B783",
      "value": {
        "_hex": "0x2710"
      },
      "nonce": 18,
      "data": "0x",
      "r": "0x2eee1b10578b5ad332ad7655df4b2dfac0c3e321750235b809b1a00d7ef58a54",
      "s": "0x68dd087b1913765e213490728167a49108cd24049c599a5dbc4a1dad6384a97a",
      "v": 27,
      "creates": null,
      "raw": "0xf86712850cb867bddb83015f9094c963c32f15e59abfcb814dd1d96a900cf588b783822710801ba02eee1b10578b5ad332ad7655df4b2dfac0c3e321750235b809b1a00d7ef58a54a068dd087b1913765e213490728167a49108cd24049c599a5dbc4a1dad6384a97a",
      "networkId": 0,
      "chainId": 0
    }
  ]
}