{
  "hash": "0xbd19780cf3b876931d93cbc2a43e6f58abb89d1df0f78f466785b0a9724de86a",
  "parentHash": "0x66ebe31900161222cb27dcd500f0eb87f320f24c38a43201f58b379144381332",
  "number": 81126,
  "timestamp": 1439496614,
  "nonce": "0xa181365fb99b2d52",
  "difficulty": 2440328588913,
  "gasLimit": {
    "_hex": "0x2fefd8"
  },
  "gasUsed": {
    "_hex": "0xa410"
  },
  "miner": "0xF2d2AfF1320476cb8C6b607199D23175cc595693",
  "extraData": "0x476574682f76312e302e312f77696e646f77732f676f312e342e32",
  "transactions": [
    {
      "hash": "0x458fd2834d2ce6faaf3f4a826a6d535a4183cdc3699506d280b70382efa31bcb",
      "blockHash": "0xbd19780cf3b876931d93cbc2a43e6f58abb89d1df0f78f466785b0a9724de86a",
      "blockNumber": 81126,
      "transactionIndex": 0,
      "confirmations": null,
      "from": "0xa914cDb571BFd93D64da66a4e108EA134e50D000",
      "gasPrice": {
        "_hex": "0x9184e72a000"
      },
      "gasLimit": {
        "_hex": "0x55f0"
      },
      "to": "0xCb88dAC50e0b4f450f3a5d02c2D65Bc56361313E",
      "value": {
        "_hex": "0x16345785d8a0000"
      },
      "nonce": 16,
      "data": "0x",
      "r": "0x980d03187add4a883c45f57ef51e123584d57acae247195e8e0fb9a821ac5514",
      "s": "0x23f883ee9c9d41194767c0660cea443f14f01633df563e0c669515deb64da625",
      "v": 27,
      "creates": null,
      "raw": "0xf86d108609184e72a0008255f094cb88dac50e0b4f450f3a5d02c2d65bc56361313e88016345785d8a0000801ba0980d03187add4a883c45f57ef51e123584d57acae247195e8e0fb9a821ac5514a023f883ee9c9d41194767c0660cea443f14f01633df563e0c669515deb64da625",
      "networkId": 0,
      "chainId": 0
    },
    {
      "hash": "0xbeb93bf618b35c938b2e5fdb9c3f8391d214f36bdb5b70dc1b32d001868e794b",
      "blockHash": "0xbd19780cf3b876931d93cbc2a43e6f58abb89d1df0f78f466785b0a9724de86a",
      "blockNumber": 81126,
      "transactionIndex": 1,
      "confirmations": null,
      "from": "0x5F28bcc5faFC8982536A9e4be559657998CdE1E3",
      "gasPrice": {
        "_hex": "0xba43b7400"
      },
      "gasLimit": {
        "_hex": "0x5208"
      },
      "to": "0xC47Aaa860008be6f65B58c6C6E02a84e666EfE31",
      "value": {
        "_hex": "0xfb867b59902741dc0"
      },
      "nonce": 1,
      "data": "0x",
      "r": "0x2c8aa3065114c3622a5b053c2225adb3960847149e0c481eb808be85cda12842",
      "s": "0x006c658830956717c156200f5470c050171c9704a844c53cc0f212f294d4aa1d",
      "v": 28,
      "creates": null,
      "raw": "0xf86c01850ba43b740082520894c47aaa860008be6f65b58c6c6e02a84e666efe31890fb867b59902741dc0801ca02c8aa3065114c3622a5b053c2225adb3960847149e0c481eb808be85cda128429f6c658830956717c156200f5470c050171c9704a844c53cc0f212f294d4aa1d",
      "networkId": 0,
      "chainId": 0
    }
  ]
}