{
  "hash": "0x22f56125d7148148b4ddbbb3f4cd56aa67ee67fe4909c03cc4dd8a31e2dd757c",
  "parentHash": "0xe1100316010f5760cb68ad234d773af5807d6e4d3da9fb5b72491389d4f70a0f",
  "number": 119401,
  "timestamp": 1440142177,
  "nonce": "0x095bc01737f0704b",
  "difficulty": 4413808745152,
  "gasLimit": {
    "_hex": "0x2fefd8"
  },
  "gasUsed": {
    "_hex": "0xf618"
  },
  "miner": "0xa70a9a7040d542C632D8e0bE7c5513A8a5Bbc752",
  "extraData": "0x",
  "transactions": [
    {
      "hash": "0x7137d9020af0e63bafe93088ff7a14f0886bd713ac1d972ce298637d096fc972",
      "blockHash": "0x22f56125d7148148b4ddbbb3f4cd56aa67ee67fe4909c03cc4dd8a31e2dd757c",
      "blockNumber": 119401,
      "transactionIndex": 0,
      "confirmations": null,
      "from": "0x9Fa88512e871481291d0416CEFf5B3764f840aED",
      "gasPrice": {
        "_hex": "0xba43b7400"
      },
      "gasLimit": {
        "_hex": "0x5208"
      },
      "to": "0x32Be343B94f860124dC4fEe278FDCBD38C102D88",
      "value": {
        "_hex": "0x5d3b8cf8f2696c00"
      },
      "nonce": 11,
      "data": "0x",
      "r": "0xababc419ceb1cf55b4da64fefc99ce4c9fc73a91215416d00c27563a8b312e24",
      "s": "0x054f8cc1b07e8f0dc2242cd000570d92beae1a0e7ca04aa4a9e35a284a5983b7",
      "v": 27,
      "creates": null,
      "raw": "0xf86c0b850ba43b74008252089432be343b94f860124dc4fee278fdcbd38c102d88885d3b8cf8f2696c00801ba0ababc419ceb1cf55b4da64fefc99ce4c9fc73a91215416d00c27563a8b312e24a0054f8cc1b07e8f0dc2242cd000570d92beae1a0e7ca04aa4a9e35a284a5983b7",
      "networkId": 0,
      "chainId": 0
    },
    {
      "hash": "0xf3c156c9e148e10a3057d698881d351f53e805050fbb0af4b132e07ad38e2c54",
      "blockHash": "0x22f56125d7148148b4ddbbb3f4cd56aa67ee67fe4909c03cc4dd8a31e2dd757c",
      "blockNumber": 119401,
      "transactionIndex": 1,
      "confirmations": null,
      "from": "0xF928B4834e4E886e04630Af5b4Ea8eBf46Fb205b",
      "gasPrice": {
        "_hex": "0xba43b7400"
      },
      "gasLimit": {
        "_hex": "0x5208"
      },
      "to": "0x32Be343B94f860124dC4fEe278FDCBD38C102D88",
      "value": {
        "_hex": "0xb79a4ce93dab9800"
      },
      "nonce": 11,
      "data": "0x",
      "r": "0xee9644ea073bda76413b184730d6b1f0ff4571e46a00211cac9837c79b3c4416",
      "s": "0x701fb184daacf6354213b4b458e956d6c97c693b273da7c85bae359198e92aed",
      "v": 27,
      "creates": null,
      "raw": "0xf86c0b850ba43b74008252089432be343b94f860124dc4fee278fdcbd38c102d8888b79a4ce93dab9800801ba0ee9644ea073bda76413b184730d6b1f0ff4571e46a00211cac9837c79b3c4416a0701fb184daacf6354213b4b458e956d6c97c693b273da7c85bae359198e92aed",
      "networkId": 0,
      "chainId": 0
    },
    {
      "hash": "0xb0128403f784ba879f59a317f200b2e88b8dc590ae8bd07384a9ee098d887cba",
      "blockHash": "0x22f56125d7148148b4ddbbb3f4cd56aa67ee67fe4909c03cc4dd8a31e2dd757c",
      "blockNumber": 119401,
      "transactionIndex": 2,
      "confirmations": null,
      "from": "0x93b3437645A67059E280a3317a93c57e2f4788EA",
      "gasPrice": {
        "_hex": "0xba43b7400"
      },
      "gasLimit": {
        "_hex": "0x5208"
      },
      "to": "0x32Be343B94f860124dC4fEe278FDCBD38C102D88",
      "value": {
        "_hex": "0xc3f9c78285b7f000"
      },
      "nonce": 11,
      "data": "0x",
      "r": "0x03d16bd2422433ed47f4ce625bd8f377d8d1f36b63434328bb2c946ef39439b5",
      "s": "0x14398d2bba81c02283d82de6a9986d103c1bf254c696061b927ab8658318de93",
      "v": 28,
      "creates": null,
      "raw": "0xf86c0b850ba43b74008252089432be343b94f860124dc4fee278fdcbd38c102d8888c3f9c78285b7f000801ca003d16bd2422433ed47f4ce625bd8f377d8d1f36b63434328bb2c946ef39439b5a014398d2bba81c02283d82de6a9986d103c1bf254c696061b927ab8658318de93",
      "networkId": 0,
      "chainId": 0
    }
  ]
}