{
  "hash": "0xfa1944b0c4213b8348335145c51842680e29b9b9788fe41e2b3baa84b1505aa1",
  "parentHash": "0xfd9c4eff458db11224526f3f5b2f1aee08e51290ba6aa6ac4dec994de3fb0b3d",
  "number": 117933,
  "timestamp": 1440117797,
  "nonce": "0xa69d5237ab35d6d4",
  "difficulty": 4341897277028,
  "gasLimit": {
    "_hex": "0x2fefd8"
  },
  "gasUsed": {
    "_hex": "0xf618"
  },
  "miner": "0x790b8a3cE86E707ED0eD32bF89B3269692a23CC1",
  "extraData": "0xd783010002844765746887676f312e342e32856c696e7578",
  "transactions": [
    {
      "hash": "0x856ebb074425f7f935e57d62c12fda53d1d0d4d25bfb6a0236ef9e5e8d5ec141",
      "blockHash": "0xfa1944b0c4213b8348335145c51842680e29b9b9788fe41e2b3baa84b1505aa1",
      "blockNumber": 117933,
      "transactionIndex": 0,
      "confirmations": null,
      "from": "0x494E9242DCB2A208fF82E5E639a15b4B4623AA57",
      "gasPrice": {
        "_hex": "0xba43b7400"
      },
      "gasLimit": {
        "_hex": "0x5208"
      },
      "to": "0x32Be343B94f860124dC4fEe278FDCBD38C102D88",
      "value": {
        "_hex": "0x467c1f8f470e9800"
      },
      "nonce": 2,
      "data": "0x",
      "r": "0x1e9bc0f4a2e85715e757eaaca3d7508b6d5c0b38d1bab2a03f467932eae121ec",
      "s": "0x0418198b8328d0bfa219eafd61cefae77906d2a9b923f054d0bafa429652a0aa",
      "v": 27,
      "creates": null,
      "raw": "0xf86c02850ba43b74008252089432be343b94f860124dc4fee278fdcbd38c102d8888467c1f8f470e9800801ba01e9bc0f4a2e85715e757eaaca3d7508b6d5c0b38d1bab2a03f467932eae121eca00418198b8328d0bfa219eafd61cefae77906d2a9b923f054d0bafa429652a0aa",
      "networkId": 0,
      "chainId": 0
    },
    {
      "hash": "0x18fa564bac99a74f1761c5032062e58452df45ac3a033da3f871863270bd9c41",
      "blockHash": "0xfa1944b0c4213b8348335145c51842680e29b9b9788fe41e2b3baa84b1505aa1",
      "blockNumber": 117933,
      "transactionIndex": 1,
      "confirmations": null,
      "from": "0x2f982922411a39C79BCD2D293Ca79cf7A9A37313",
      "gasPrice": {
        "_hex": "0xba43b7400"
      },
      "gasLimit": {
        "_hex": "0x5208"
      },
      "to": "0x32Be343B94f860124dC4fEe278FDCBD38C102D88",
      "value": {
        "_hex": "0x10a35be3daf6e000"
      },
      "nonce": 1,
      "data": "0x",
      "r": "0x069c4573368c63e1aaa9371339685f355f024c3885ad492b3b5e3e39faed03ed",
      "s": "0x7276f8a2bcd49652d54abe0064a2acb8fc51e007c0e3af828cac2098a3e517cf",
      "v": 27,
      "creates": null,
      "raw": "0xf86c01850ba43b74008252089432be343b94f860124dc4fee278fdcbd38c102d888810a35be3daf6e000801ba0069c4573368c63e1aaa9371339685f355f024c3885ad492b3b5e3e39faed03eda07276f8a2bcd49652d54abe0064a2acb8fc51e007c0e3af828cac2098a3e517cf",
      "networkId": 0,
      "chainId": 0
    },
    {
      "hash": "0xe10b7eb862dab6be1dff3d3e71abcb136609354b06cc94c1e1cba6e8b11a5f21",
      "blockHash": "0xfa1944b0c4213b8348335145c51842680e29b9b9788fe41e2b3baa84b1505aa1",
      "blockNumber": 117933,
      "transactionIndex": 2,
      "confirmations": null,
      "from": "0x5D65E227F4E7BC798Cf62526F4bDD47c82e6A590",
      "gasPrice": {
        "_hex": "0xba43b7400"
      },
      "gasLimit": {
        "_hex": "0x5208"
      },
      "to": "0x32Be343B94f860124dC4fEe278FDCBD38C102D88",
      "value": {
        "_hex": "0x4b5f241c64be8800"
      },
      "nonce": 0,
      "data": "0x",
      "r": "0x631514fb128cadd29b9192cdbb2e49f4d1e3a8e2f9354d6f84a41ecbd3399855",
      "s": "0x4dcbc471ee725ceda7a1ad32d927ce90cc981629b74ee0b00bfb6e9071828392",
      "v": 27,
      "creates": null,
      "raw": "0xf86c80850ba43b74008252089432be343b94f860124dc4fee278fdcbd38c102d88884b5f241c64be8800801ba0631514fb128cadd29b9192cdbb2e49f4d1e3a8e2f9354d6f84a41ecbd3399855a04dcbc471ee725ceda7a1ad32d927ce90cc981629b74ee0b00bfb6e9071828392",
      "networkId": 0,
      "chainId": 0
    }
  ]
}