{
  "hash": "0x27af51d890b457a4039a76f43fffbb1f2c5a70b11534edd7419e85412ee1eb41",
  "parentHash": "0xc90aa1c74e87bcd507614914482ab9cf0c397a5f0732796b5df0b47f0cbe2f33",
  "number": 74273,
  "timestamp": 1439383365,
  "nonce": "0x44186f733845f5f3",
  "difficulty": 2211848381364,
  "gasLimit": {
    "_hex": "0x2fefd8"
  },
  "gasUsed": {
    "_hex": "0xa410"
  },
  "miner": "0x7998276dDecB82491dEe4Cd6cC504C55e87b5570",
  "extraData": "0x",
  "transactions": [
    {
      "hash": "0xeb1891b3aee00155c9b8228003f6839b7ef4128b2c52547a38c1c0f7c3fb91d9",
      "blockHash": "0x27af51d890b457a4039a76f43fffbb1f2c5a70b11534edd7419e85412ee1eb41",
      "blockNumber": 74273,
      "transactionIndex": 0,
      "confirmations": null,
      "from": "0xe6A7a1d47ff21B6321162AEA7C6CB457D5476Bca",
      "gasPrice": {
        "_hex": "0xdb195d395"
      },
      "gasLimit": {
        "_hex": "0x55f0"
      },
      "to": "0x9B7280891dc19fd3A2e754cB9007203820650403",
      "value": {
        "_hex": "0x1c2fcbcc3202baf78"
      },
      "nonce": 935,
      "data": "0x",
      "r": "0x0757aef7be37585036ebf6862b554511cc84d78e8ff73997d2a71217ae5ae603",
      "s": "0x6bef7b5796e7fad6c1fe52862bc2892280b44cc8fb0f464b76d5e9c2083f7aa2",
      "v": 28,
      "creates": null,
      "raw": "0xf86f8203a7850db195d3958255f0949b7280891dc19fd3a2e754cb90072038206504038901c2fcbcc3202baf78801ca00757aef7be37585036ebf6862b554511cc84d78e8ff73997d2a71217ae5ae603a06bef7b5796e7fad6c1fe52862bc2892280b44cc8fb0f464b76d5e9c2083f7aa2",
      "networkId": 0,
      "chainId": 0
    },
    {
      "hash": "0xcb7b339c4e9c3dbbc092505e00804b819b6f170339b29113fe6518921c9768d2",
      "blockHash": "0x27af51d890b457a4039a76f43fffbb1f2c5a70b11534edd7419e85412ee1eb41",
      "blockNumber": 74273,
      "transactionIndex": 1,
      "confirmations": null,
      "from": "0xe6A7a1d47ff21B6321162AEA7C6CB457D5476Bca",
      "gasPrice": {
        "_hex": "0xdb195d395"
      },
      "gasLimit": {
        "_hex": "0x55f0"
      },
      "to": "0xa61ff394e3846F8bfbBF8801afb051730B04Ee75",
      "value": {
        "_hex": "0x1ca47f3c407317e78"
      },
      "nonce": 936,
      "data": "0x",
      "r": "0x9d265fe0dca6b5095bd1bdce565efd724f267e6cbf0aa561c22c248edfd6586a",
      "s": "0x2d3fce7f0b6664966d19a5e71a976b41ae591774c2fe525cfbc57d860dc3e28e",
      "v": 28,
      "creates": null,
      "raw": "0xf86f8203a8850db195d3958255f094a61ff394e3846f8bfbbf8801afb051730b04ee758901ca47f3c407317e78801ca09d265fe0dca6b5095bd1bdce565efd724f267e6cbf0aa561c22c248edfd6586aa02d3fce7f0b6664966d19a5e71a976b41ae591774c2fe525cfbc57d860dc3e28e",
      "networkId": 0,
      "chainId": 0
    }
  ]
}