{
  "hash": "0xb850111385e864000ea32cf80fff0a9d728809beae1546f7f17b5c4fe506a30b",
  "parentHash": "0xe045184c4be235ac3128440cec84e342efa9930bade733ce3b640ce480013043",
  "number": 87659,
  "timestamp": 1439595540,
  "nonce": "0xfacd83f7a9a91bff",
  "difficulty": 3157102590141,
  "gasLimit": {
    "_hex": "0x2fefd8"
  },
  "gasUsed": {
    "_hex": "0xa410"
  },
  "miner": "0xeB1325C8D9d3ea8D74aC11F4B00F1B2367686319",
  "extraData": "0x476574682f76312e302e312f77696e646f77732f676f312e342e32",
  "transactions": [
    {
      "hash": "0xa1496947db6b88492bb0df0344a3c811825f4bad0e00ca5ba366e9bb945075f1",
      "blockHash": "0xb850111385e864000ea32cf80fff0a9d728809beae1546f7f17b5c4fe506a30b",
      "blockNumber": 87659,
      "transactionIndex": 0,
      "confirmations": null,
      "from": "0x120A270bbC009644e35F0bB6ab13f95b8199c4ad",
      "gasPrice": {
        "_hex": "0xd3d5b9885"
      },
      "gasLimit": {
        "_hex": "0x3d090"
      },
      "to": "0xc5623FA5c297c05c2d965A336b2068CfA0e567FA",
      "value": {
        "_hex": "0x1b49dd5e8e4a069400"
      },
      "nonce": 504,
      "data": "0x",
      "r": "0xf3c32da433b2349b10792357751ca1dac6bb1989e53675e8a4eef51271b0c5a4",
      "s": "0x2ae72612f6c0ca1a8866aec23c5727f73eba940c273fff0291bdbc785ff23507",
      "v": 27,
      "creates": null,
      "raw": "0xf8708201f8850d3d5b98858303d09094c5623fa5c297c05c2d965a336b2068cfa0e567fa891b49dd5e8e4a069400801ba0f3c32da433b2349b10792357751ca1dac6bb1989e53675e8a4eef51271b0c5a4a02ae72612f6c0ca1a8866aec23c5727f73eba940c273fff0291bdbc785ff23507",
      "networkId": 0,
      "chainId": 0
    },
    {
      "hash": "0xa00dafa375537e3a83249fe1e1acd09699a88dde60b431f77c6fb4570d49a3f5",
      "blockHash": "0xb850111385e864000ea32cf80fff0a9d728809beae1546f7f17b5c4fe506a30b",
      "blockNumber": 87659,
      "transactionIndex": 1,
      "confirmations": null,
      "from": "0x120A270bbC009644e35F0bB6ab13f95b8199c4ad",
      "gasPrice": {
        "_hex": "0xd3d5b9885"
      },
      "gasLimit": {
        "_hex": "0x3d090"
      },
      "to": "0x3F2958BE30c06420de95eF82d1c3C8465C5750e1",
      "value": {
        "_hex": "0x821ab0d4414980000"
      },
      "nonce": 505,
      "data": "0x",
      "r": "0xe50f34ef1ebb4fd6f9c44e8014f9dc7a094841aa9c7767fa4707823469f8c218",
      "s": "0x1aae5844ebdd2618c66c5ea11abd5f923295c6455a5b3bae3587d3ba5bffe861",
      "v": 28,
      "creates": null,
      "raw": "0xf8708201f9850d3d5b98858303d090943f2958be30c06420de95ef82d1c3c8465c5750e1890821ab0d4414980000801ca0e50f34ef1ebb4fd6f9c44e8014f9dc7a094841aa9c7767fa4707823469f8c218a01aae5844ebdd2618c66c5ea11abd5f923295c6455a5b3bae3587d3ba5bffe861",
      "networkId": 0,
      "chainId": 0
    }
  ]
}