{
  "hash": "0x3f200ace86be975750d56fb7521ce6ac239cd8fa814d088755c22c31a29a13af",
  "parentHash": "0x1dc27333b646206ba6abdbd718bd3a6345a1bf05435d245d0432ecb240edf61c",
  "number": 99968,
  "timestamp": 1439798598,
  "nonce": "0xcb1998b2c4c8be61",
  "difficulty": 3841801048613,
  "gasLimit": {
    "_hex": "0x2fefd8"
  },
  "gasUsed": {
    "_hex": "0x668a0"
  },
  "miner": "0x36a3706566A8f9b27e7d604f4702900Acd31f32E",
  "extraData": "0x476574682f76312e302e312f6c696e75782f676f312e342e32",
  "transactions": [
    {
      "hash": "0xd6c8a8a886abdfb6da27e06c0137e49f2bd588495d588e556414c795d0fdee6e",
      "blockHash": "0x3f200ace86be975750d56fb7521ce6ac239cd8fa814d088755c22c31a29a13af",
      "blockNumber": 99968,
      "transactionIndex": 0,
      "confirmations": null,
      "from": "0xe6A7a1d47ff21B6321162AEA7C6CB457D5476Bca",
      "gasPrice": {
        "_hex": "0xcbe08095d"
      },
      "gasLimit": {
        "_hex": "0x55f0"
      },
      "to": "0x0959BFF932df2642345f8C3C8FBf0e1B94854311",
      "value": {
        "_hex": "0xb180514274120108"
      },
      "nonce": 3368,
      "data": "0x",
      "r": "0x51f9c4dc099a28a7e0327e93342ac5ca0c02e506f338ca2ba5141ebb55573bee",
      "s": "0x64d7d62e8c9df59a8ff0dfa8b559bf64f7fea27e7b0624ee14fe2f15adf0e2d0",
      "v": 27,
      "creates": null,
      "raw": "0xf86e820d28850cbe08095d8255f0940959bff932df2642345f8c3c8fbf0e1b9485431188b180514274120108801ba051f9c4dc099a28a7e0327e93342ac5ca0c02e506f338ca2ba5141ebb55573beea064d7d62e8c9df59a8ff0dfa8b559bf64f7fea27e7b0624ee14fe2f15adf0e2d0",
      "networkId": 0,
      "chainId": 0
    },
    {
      "hash": "0x7d92c28e5922d8c686188097a5241714e55b5de7a6c009f1c1473a6c434cfccf",
      "blockHash": "0x3f200ace86be975750d56fb7521ce6ac239cd8fa814d088755c22c31a29a13af",
      "blockNumber": 99968,
      "transactionIndex": 1,
      "confirmations": null,
      "from": "0xe6A7a1d47ff21B6321162AEA7C6CB457D5476Bca",
      "gasPrice": {
        "_hex": "0xcbe08095d"
      },
      "gasLimit": {
        "_hex": "0x55f0"
      },
      "to": "0x10a3287DC19D160c0EF7dAE4e51670b0394ef951",
      "value": {
        "_hex": "0xb3847b285966e150"
      },
      "nonce": 3369,
      "data": "0x",
      "r": "0xe7c9e2899f5a8144a08ae331d8bad24fd3d05a3169741c0717d5a83db8786950",
      "s": "0x459837266ee00692209a7671cfc86f994f97b77f9aa6e3d7b3cd636f62ebce15",
      "v": 27,
      "creates": null,
      "raw": "0xf86e820d29850cbe08095d8255f09410a3287dc19d160c0ef7dae4e51670b0394ef95188b3847b285966e150801ba0e7c9e2899f5a8144a08ae331d8bad24fd3d05a3169741c0717d5a83db8786950a0459837266ee00692209a7671cfc86f994f97b77f9aa6e3d7b3cd636f62ebce15",
      "networkId": 0,
      "chainId": 0
    },
    {
      "hash": "0xb4d287eaf73bfe3f2bd26face608b4a7294df1e106b2e0820e96976589633459",
      "blockHash": "0x3f200ace86be975750d56fb7521ce6ac239cd8fa814d088755c22c31a29a13af",
      "blockNumber": 99968,
      "transactionIndex": 2,
      "confirmations": null,
      "from": "0xe6A7a1d47ff21B6321162AEA7C6CB457D5476Bca",
      "gasPrice": {
        "_hex": "0xcbe08095d"
      },
      "gasLimit": {
        "_hex": "0x55f0"
      },
      "to": "0xf07aAde57CeD1af9a2D538eCcbfD96103f6F2410",
      "value": {
        "_hex": "0xb45eb4cb3bfe6e28"
      },
      "nonce": 3370,
      "data": "0x",
      "r": "0x27fa815dc436e751f0ae893a70f582b9f81420efee0ab07117bbca20d9d0b91e",
      "s": "0x1e942f7652f52a590a11b8abf01bc7eef271d52e24be5732d6ffb0cb6da56675",
      "v": 28,
      "creates": null,
      "raw": "0xf86e820d2a850cbe08095d8255f094f07aade57ced1af9a2d538eccbfd96103f6f241088b45eb4cb3bfe6e28801ca027fa815dc436e751f0ae893a70f582b9f81420efee0ab07117bbca20d9d0b91ea01e942f7652f52a590a11b8abf01bc7eef271d52e24be5732d6ffb0cb6da56675",
      "networkId": 0,
      "chainId": 0
    },
    {
      "hash": "0xb6bedeaed25f9974674e7e27b3fd341023e70a3c415fd0feb2fc584bf8431248",
      "blockHash": "0x3f200ace86be975750d56fb7521ce6ac239cd8fa814d088755c22c31a29a13af",
      "blockNumber": 99968,
      "transactionIndex": 3,
      "confirmations": null,
      "from": "0xe6A7a1d47ff21B6321162AEA7C6CB457D5476Bca",
      "gasPrice": {
        "_hex": "0xcbe08095d"
      },
      "gasLimit": {
        "_hex": "0x55f0"
      },
      "to": "0x4CD33268dF93C6b4F6b3D504009EAE965Afe272d",
      "value": {
        "_hex": "0xb547118506601640"
      },
      "nonce": 3371,
      "data": "0x",
      "r": "0x2c13897750d3768ead3f6d5cf6d47b23c5a4d7df251ac1fae351a7bd1181bbf4",
      "s": "0x6c1bdd3f3bb96697efed9b04d09a63f9d45a30bc575a9cfae5b982cbfac7558d",
      "v": 28,
      "creates": null,
      "raw": "0xf86e820d2b850cbe08095d8255f0944cd33268df93c6b4f6b3d504009eae965afe272d88b547118506601640801ca02c13897750d3768ead3f6d5cf6d47b23c5a4d7df251ac1fae351a7bd1181bbf4a06c1bdd3f3bb96697efed9b04d09a63f9d45a30bc575a9cfae5b982cbfac7558d",
      "networkId": 0,
      "chainId": 0
    },
    {
      "hash": "0x12efce22f980b644d690c49f84464a3c3b49b9df881e83a82e1befa1b7ef40cf",
      "blockHash": "0x3f200ace86be975750d56fb7521ce6ac239cd8fa814d088755c22c31a29a13af",
      "blockNumber": 99968,
      "transactionIndex": 4,
      "confirmations": null,
      "from": "0xe6A7a1d47ff21B6321162AEA7C6CB457D5476Bca",
      "gasPrice": {
        "_hex": "0xcbe08095d"
      },
      "gasLimit": {
        "_hex": "0x55f0"
      },
      "to": "0x806C4e20CC913d7b70f5b7e24C6Ba15B16c56a5C",
      "value": {
        "_hex": "0xb5be3fea9846c120"
      },
      "nonce": 3372,
      "data": "0x",
      "r": "0x61f8e6a29e52f7d769febc4f94dbf34ee429746609a2ddd79487843c38ef48b5",
      "s": "0x280f6b9c72ff01dd1f98af60d4793dc2c25005005d98a9831c4fb7035a487a85",
      "v": 28,
      "creates": null,
      "raw": "0xf86e820d2c850cbe08095d8255f094806c4e20cc913d7b70f5b7e24c6ba15b16c56a5c88b5be3fea9846c120801ca061f8e6a29e52f7d769febc4f94dbf34ee429746609a2ddd79487843c38ef48b5a0280f6b9c72ff01dd1f98af60d4793dc2c25005005d98a9831c4fb7035a487a85",
      "networkId": 0,
      "chainId": 0
    },
    {
      "hash": "0xbde4756ae470505a4b6613086bf9d92a650b4a83f7adf07a0f0dcf8a7ece1a50",
      "blockHash": "0x3f200ace86be975750d56fb7521ce6ac239cd8fa814d088755c22c31a29a13af",
      "blockNumber": 99968,
      "transactionIndex": 5,
      "confirmations": null,
      "from": "0xe6A7a1d47ff21B6321162AEA7C6CB457D5476Bca",
      "gasPrice": {
        "_hex": "0xcbe08095d"
      },
      "gasLimit": {
        "_hex": "0x55f0"
      },
      "to": "0x7d444a287AcFf70a9D6357dc37FB07FC7aABDC4f",
      "value": {
        "_hex": "0xb5dc8c78000e6fb8"
      },
      "nonce": 3373,
      "data": "0x",
      "r": "0x40c71dc55576bd46ae0869545e9d39e9f8d9b2be6293fa15cb2a49abebf32c7b",
      "s": "0x05c5ab8d38914157c72fdfa8e4f6b00016bea8ed975550abcdd19edb9f3d8aa4",
      "v": 27,
      "creates": null,
      "raw": "0xf86e820d2d850cbe08095d8255f0947d444a287acff70a9d6357dc37fb07fc7aabdc4f88b5dc8c78000e6fb8801ba040c71dc55576bd46ae0869545e9d39e9f8d9b2be6293fa15cb2a49abebf32c7ba005c5ab8d38914157c72fdfa8e4f6b00016bea8ed975550abcdd19edb9f3d8aa4",
      "networkId": 0,
      "chainId": 0
    },
    {
      "hash": "0xda4eaa580ccfd4d114b1f352477416c3763df45b2df519039d4e85fc843204ab",
      "blockHash": "0x3f200ace86be975750d56fb7521ce6ac239cd8fa814d088755c22c31a29a13af",
      "blockNumber": 99968,
      "transactionIndex": 6,
      "confirmations": null,
      "from": "0xe6A7a1d47ff21B6321162AEA7C6CB457D5476Bca",
      "gasPrice": {
        "_hex": "0xcbe08095d"
      },
      "gasLimit": {
        "_hex": "0x55f0"
      },
      "to": "0x727A42a8D67fcaa0Ab81D46f1EE66bfc9b8789AC",
      "value": {
        "_hex": "0xb69b77a67f988ee8"
      },
      "nonce": 3374,
      "data": "0x",
      "r": "0x4a4b7f30ad191e56ccc822f552b8ed7eaee3a25d573b8acc4f387eddf8239068",
      "s": "0x5580409c0232ad170e3aca44457d228ca8b31c9db37f2ce708eb8b52de669658",
      "v": 28,
      "creates": null,
      "raw": "0xf86e820d2e850cbe08095d8255f094727a42a8d67fcaa0ab81d46f1ee66bfc9b8789ac88b69b77a67f988ee8801ca04a4b7f30ad191e56ccc822f552b8ed7eaee3a25d573b8acc4f387eddf8239068a05580409c0232ad170e3aca44457d228ca8b31c9db37f2ce708eb8b52de669658",
      "networkId": 0,
      "chainId": 0
    },
    {
      "hash": "0x9820a61c0f53f60e0fe318e296a3931452209309ff5fbff5027300beffd139df",
      "blockHash": "0x3f200ace86be975750d56fb7521ce6ac239cd8fa814d088755c22c31a29a13af",
      "blockNumber": 99968,
      "transactionIndex": 7,
      "confirmations": null,
      "from": "0xe6A7a1d47ff21B6321162AEA7C6CB457D5476Bca",
      "gasPrice": {
        "_hex": "0xcbe08095d"
      },
      "gasLimit": {
        "_hex": "0x55f0"
      },
      "to": "0x6111E933E5e6297DFd0AAd9aAB64017c69062a08",
      "value": {
        "_hex": "0xb744f9913eb58ec8"
      },
      "nonce": 3375,
      "data": "0x",
      "r": "0xd7b4173059485361ea443098dc21290dfaacb5c258d0d8385071d36403c69b64",
      "s": "0x4950d95b384d64a5e976c6e804a2ecce65f24cbd2f45d154ed7c92752016dcac",
      "v": 27,
      "creates": null,
      "raw": "0xf86e820d2f850cbe08095d8255f0946111e933e5e6297dfd0aad9aab64017c69062a0888b744f9913eb58ec8801ba0d7b4173059485361ea443098dc21290dfaacb5c258d0d8385071d36403c69b64a04950d95b384d64a5e976c6e804a2ecce65f24cbd2f45d154ed7c92752016dcac",
      "networkId": 0,
      "chainId": 0
    },
    {
      "hash": "0xfecd456849da4069a6b31f9ba56ae368c643f3b5f684ee1ff40684b39b839ec4",
      "blockHash": "0x3f200ace86be975750d56fb7521ce6ac239cd8fa814d088755c22c31a29a13af",
      "blockNumber": 99968,
      "transactionIndex": 8,
      "confirmations": null,
      "from": "0xe6A7a1d47ff21B6321162AEA7C6CB457D5476Bca",
      "gasPrice": {
        "_hex": "0xcbe08095d"
      },
      "gasLimit": {
        "_hex": "0x55f0"
      },
      "to": "0x2561d06bcc264cb07D32663B326f510d61E48f4c",
      "value": {
        "_hex": "0xb7d12fea385b80e8"
      },
      "nonce": 3376,
      "data": "0x",
      "r": "0x0b00c3e5dd83fe6fefd4831a17c91bb57e74f9b12afa7a9c9d086e5e799d2edf",
      "s": "0x198992f0bee19704502626b9018fda83c101ff5bfd631c0c6e016a9ae350d503",
      "v": 28,
      "creates": null,
      "raw": "0xf86e820d30850cbe08095d8255f0942561d06bcc264cb07d32663b326f510d61e48f4c88b7d12fea385b80e8801ca00b00c3e5dd83fe6fefd4831a17c91bb57e74f9b12afa7a9c9d086e5e799d2edfa0198992f0bee19704502626b9018fda83c101ff5bfd631c0c6e016a9ae350d503",
      "networkId": 0,
      "chainId": 0
    },
    {
      "hash": "0x66d811615468801a652dab26d615fe773e8d6179be4fb06e9f16bcfdb0092c0c",
      "blockHash": "0x3f200ace86be975750d56fb7521ce6ac239cd8fa814d088755c22c31a29a13af",
      "blockNumber": 99968,
      "transactionIndex": 9,
      "confirmations": null,
      "from": "0xe6A7a1d47ff21B6321162AEA7C6CB457D5476Bca",
      "gasPrice": {
        "_hex": "0xcbe08095d"
      },
      "gasLimit": {
        "_hex": "0x55f0"
      },
      "to": "0xF7e66D2622220807d8696064E94ca24b1dC6e7Da",
      "value": {
        "_hex": "0xb8366273124bb078"
      },
      "nonce": 3377,
      "data": "0x",
      "r": "0xe8961323c3d5c526acf39292310cf521f8b1acc493fe8b707c26427d484d88c4",
      "s": "0x4074d22cdd2f94e13c2b0aac1675935ebb16dcded4f74569c3e5553a77b0d189",
      "v": 27,
      "creates": null,
      "raw": "0xf86e820d31850cbe08095d8255f094f7e66d2622220807d8696064e94ca24b1dc6e7da88b8366273124bb078801ba0e8961323c3d5c526acf39292310cf521f8b1acc493fe8b707c26427d484d88c4a04074d22cdd2f94e13c2b0aac1675935ebb16dcded4f74569c3e5553a77b0d189",
      "networkId": 0,
      "chainId": 0
    },
    {
      "hash": "0x8a560fc7ef46b1279a050d62f165251dce7afb00ecfc0548fdbe69863c35a052",
      "blockHash": "0x3f200ace86be975750d56fb7521ce6ac239cd8fa814d088755c22c31a29a13af",
      "blockNumber": 99968,
      "transactionIndex": 10,
      "confirmations": null,
      "from": "0xe6A7a1d47ff21B6321162AEA7C6CB457D5476Bca",
      "gasPrice": {
        "_hex": "0xcbe08095d"
      },
      "gasLimit": {
        "_hex": "0x55f0"
      },
      "to": "0xcF9DD62019778E76a6B393f0ac4590f03A7429F7",
      "value": {
        "_hex": "0xba7e0dbefd54a8f0"
      },
      "nonce": 3378,
      "data": "0x",
      "r": "0x0b2430fc7aaf0e18804e3d6839e851d4bab038e66be24b6122c0692257f92782",
      "s": "0x03eb77c6d4142d11bac377f9d5146532f31134dfb3dc8835c049824ce722fc9c",
      "v": 28,
      "creates": null,
      "raw": "0xf86e820d32850cbe08095d8255f094cf9dd62019778e76a6b393f0ac4590f03a7429f788ba7e0dbefd54a8f0801ca00b2430fc7aaf0e18804e3d6839e851d4bab038e66be24b6122c0692257f92782a003eb77c6d4142d11bac377f9d5146532f31134dfb3dc8835c049824ce722fc9c",
      "networkId": 0,
      "chainId": 0
    },
    {
      "hash": "0xffb7fcc873bbe7ba40cfc6322bde548ec055bc9f1709874eea72735625ddf341",
      "blockHash": "0x3f200ace86be975750d56fb7521ce6ac239cd8fa814d088755c22c31a29a13af",
      "blockNumber": 99968,
      "transactionIndex": 11,
      "confirmations": null,
      "from": "0xe6A7a1d47ff21B6321162AEA7C6CB457D5476Bca",
      "gasPrice": {
        "_hex": "0xcbe08095d"
      },
      "gasLimit": {
        "_hex": "0x55f0"
      },
      "to": "0x18883522e2679aA9b41E0fA688F20c3802897525",
      "value": {
        "_hex": "0xbd72baa3e9f73e88"
      },
      "nonce": 3379,
      "data": "0x",
      "r": "0xa5e8b2707dafce41c6131e051bf3f79d2231951104c2b348a9f6acdb903f3d54",
      "s": "0x745f1ae40a5b13d2bd42270c672207295a016f132f0e56da3bc305adda1cc15a",
      "v": 27,
      "creates": null,
      "raw": "0xf86e820d33850cbe08095d8255f09418883522e2679aa9b41e0fa688f20c380289752588bd72baa3e9f73e88801ba0a5e8b2707dafce41c6131e051bf3f79d2231951104c2b348a9f6acdb903f3d54a0745f1ae40a5b13d2bd42270c672207295a016f132f0e56da3bc305adda1cc15a",
      "networkId": 0,
      "chainId": 0
    },
    {
      "hash": "0xac98d37a20b378c50881036d0ad27098c5ff780c55e4ffa839029761f6fc4556",
      "blockHash": "0x3f200ace86be975750d56fb7521ce6ac239cd8fa814d088755c22c31a29a13af",
      "blockNumber": 99968,
      "transactionIndex": 12,
      "confirmations": null,
      "from": "0xe6A7a1d47ff21B6321162AEA7C6CB457D5476Bca",
      "gasPrice": {
        "_hex": "0xcbe08095d"
      },
      "gasLimit": {
        "_hex": "0x55f0"
      },
      "to": "0x27e806e70622d2864e1B1f4426D72FFb0457C83a",
      "value": {
        "_hex": "0xbdae5a9166f4c8b0"
      },
      "nonce": 3380,
      "data": "0x",
      "r": "0x9153da4eab679dbbce3e8c425a617be89629d58d5087363274268117360059ae",
      "s": "0x737752c2b89d32be1d95a1053c914938ce2c2b35056fbcfcc59f30efa53d660b",
      "v": 28,
      "creates": null,
      "raw": "0xf86e820d34850cbe08095d8255f09427e806e70622d2864e1b1f4426d72ffb0457c83a88bdae5a9166f4c8b0801ca09153da4eab679dbbce3e8c425a617be89629d58d5087363274268117360059aea0737752c2b89d32be1d95a1053c914938ce2c2b35056fbcfcc59f30efa53d660b",
      "networkId": 0,
      "chainId": 0
    },
    {
      "hash": "0xf348a83e057b9efdc4270fe5cf09639f4eedc0040e49b8e934c868a3e5c6f6a8",
      "blockHash": "0x3f200ace86be975750d56fb7521ce6ac239cd8fa814d088755c22c31a29a13af",
      "blockNumber": 99968,
      "transactionIndex": 13,
      "confirmations": null,
      "from": "0xe6A7a1d47ff21B6321162AEA7C6CB457D5476Bca",
      "gasPrice": {
        "_hex": "0xcbe08095d"
      },
      "gasLimit": {
        "_hex": "0x55f0"
      },
      "to": "0xC96Bd2Aa7AcB234ecA4E38E33bF2C080e7680FA5",
      "value": {
        "_hex": "0xbdd35da82dfa9898"
      },
      "nonce": 3381,
      "data": "0x",
      "r": "0x908f5c029a9088a0f1a404fd77e4ccd217ef53d6b9529c59bac42abda6c79cd4",
      "s": "0x048dee745868ddcc984d09981c1eb9c20df12c3ce0391ed03e56b10b3b257e55",
      "v": 27,
      "creates": null,
      "raw": "0xf86e820d35850cbe08095d8255f094c96bd2aa7acb234eca4e38e33bf2c080e7680fa588bdd35da82dfa9898801ba0908f5c029a9088a0f1a404fd77e4ccd217ef53d6b9529c59bac42abda6c79cd4a0048dee745868ddcc984d09981c1eb9c20df12c3ce0391ed03e56b10b3b257e55",
      "networkId": 0,
      "chainId": 0
    },
    {
      "hash": "0xefa955f0f05c61651691977e93b4f8ca8a140298a86fcf831872026e6137d4ea",
      "blockHash": "0x3f200ace86be975750d56fb7521ce6ac239cd8fa814d088755c22c31a29a13af",
      "blockNumber": 99968,
      "transactionIndex": 14,
      "confirmations": null,
      "from": "0xe6A7a1d47ff21B6321162AEA7C6CB457D5476Bca",
      "gasPrice": {
        "_hex": "0xcbe08095d"
      },
      "gasLimit": {
        "_hex": "0x55f0"
      },
      "to": "0x4EF5e475724b7c945A4bdbB1Be68d76103bA9013",
      "value": {
        "_hex": "0xbefc100b8ba719f0"
      },
      "nonce": 3382,
      "data": "0x",
      "r": "0xba0efef77dcdbf7c5f7b36083eda2c47c57111ced57e2122fe81780b9cd8645f",
      "s": "0x15fbc97b1a65022e4691f5cb9f3714a2e2d197112fec4a06928ed385a8879c33",
      "v": 28,
      "creates": null,
      "raw": "0xf86e820d36850cbe08095d8255f0944ef5e475724b7c945a4bdbb1be68d76103ba901388befc100b8ba719f0801ca0ba0efef77dcdbf7c5f7b36083eda2c47c57111ced57e2122fe81780b9cd8645fa015fbc97b1a65022e4691f5cb9f3714a2e2d197112fec4a06928ed385a8879c33",
      "networkId": 0,
      "chainId": 0
    },
    {
      "hash": "0x3abfc44083102ef89a73bef15c0c088e340f943190d4d66ffa0a2c6f8c99c8f2",
      "blockHash": "0x3f200ace86be975750d56fb7521ce6ac239cd8fa814d088755c22c31a29a13af",
      "blockNumber": 99968,
      "transactionIndex": 15,
      "confirmations": null,
      "from": "0xe6A7a1d47ff21B6321162AEA7C6CB457D5476Bca",
      "gasPrice": {
        "_hex": "0xcbe08095d"
      },
      "gasLimit": {
        "_hex": "0x55f0"
      },
      "to": "0x629e35e0A481d821293F354E0dD27E43a354D061",
      "value": {
        "_hex": "0xc771767bf4ccb9e0"
      },
      "nonce": 3383,
      "data": "0x",
      "r": "0xe20ed1b8c1dbd5034174f6c363ec9700461cb56a5c14e1fcfa1881c5ec44c138",
      "s": "0x5cf59017714af901e42629c6c3cec0b843969928870cffce4ac2b0728e2723e5",
      "v": 28,
      "creates": null,
      "raw": "0xf86e820d37850cbe08095d8255f094629e35e0a481d821293f354e0dd27e43a354d06188c771767bf4ccb9e0801ca0e20ed1b8c1dbd5034174f6c363ec9700461cb56a5c14e1fcfa1881c5ec44c138a05cf59017714af901e42629c6c3cec0b843969928870cffce4ac2b0728e2723e5",
      "networkId": 0,
      "chainId": 0
    },
    {
      "hash": "0x6b478430df204e55899c238c3a6b794858bca4026d47152900e38a45051ae47a",
      "blockHash": "0x3f200ace86be975750d56fb7521ce6ac239cd8fa814d088755c22c31a29a13af",
      "blockNumber": 99968,
      "transactionIndex": 16,
      "confirmations": null,
      "from": "0xe6A7a1d47ff21B6321162AEA7C6CB457D5476Bca",
      "gasPrice": {
        "_hex": "0xcbe08095d"
      },
      "gasLimit": {
        "_hex": "0x55f0"
      },
      "to": "0x2C3d5c472E35947eb8Bf098e5207b0e1f3D1Ef91",
      "value": {
        "_hex": "0xc8d241590a13f1d8"
      },
      "nonce": 3384,
      "data": "0x",
      "r": "0xc1c2756e0026b016e4b68bfd10abd34e65ada5229cd3f994bc890bfcfe699cf8",
      "s": "0x07a2bc8d9eacca04f35bff05c28371414c9f5e5095e0f70e5904f1e7cdc3f35b",
      "v": 28,
      "creates": null,
      "raw": "0xf86e820d38850cbe08095d8255f0942c3d5c472e35947eb8bf098e5207b0e1f3d1ef9188c8d241590a13f1d8801ca0c1c2756e0026b016e4b68bfd10abd34e65ada5229cd3f994bc890bfcfe699cf8a007a2bc8d9eacca04f35bff05c28371414c9f5e5095e0f70e5904f1e7cdc3f35b",
      "networkId": 0,
      "chainId": 0
    },
    {
      "hash": "0xfd375eb52fa072da893311c929db4b39844f32e16bf060e4cdb5ef8cc8852118",
      "blockHash": "0x3f200ace86be975750d56fb7521ce6ac239cd8fa814d088755c22c31a29a13af",
      "blockNumber": 99968,
      "transactionIndex": 17,
      "confirmations": null,
      "from": "0xe6A7a1d47ff21B6321162AEA7C6CB457D5476Bca",
      "gasPrice": {
        "_hex": "0xcbe08095d"
      },
      "gasLimit": {
        "_hex": "0x55f0"
      },
      "to": "0x0D81FD2bB264D9Ee0F432599b443ae1B691f6134",
      "value": {
        "_hex": "0xce6d938bf16ae0f8"
      },
      "nonce": 3385,
      "data": "0x",
      "r": "0xfa2c9deb15e0aa7761f150597fc4177fbcef8c5b57e7d7c9a3286038b2282a86",
      "s": "0x765db1a6461ff5c128d80019c912563f9035690a8cd126b5d73b27b92e6b72f6",
      "v": 27,
      "creates": null,
      "raw": "0xf86e820d39850cbe08095d8255f0940d81fd2bb264d9ee0f432599b443ae1b691f613488ce6d938bf16ae0f8801ba0fa2c9deb15e0aa7761f150597fc4177fbcef8c5b57e7d7c9a3286038b2282a86a0765db1a6461ff5c128d80019c912563f9035690a8cd126b5d73b27b92e6b72f6",
      "networkId": 0,
      "chainId": 0
    },
    {
      "hash": "0x42e45b4a107a860562ea245fca16273f48006154152b52e0663198660c1d5a29",
      "blockHash": "0x3f200ace86be975750d56fb7521ce6ac239cd8fa814d088755c22c31a29a13af",
      "blockNumber": 99968,
      "transactionIndex": 18,
      "confirmations": null,
      "from": "0xe6A7a1d47ff21B6321162AEA7C6CB457D5476Bca",
      "gasPrice": {
        "_hex": "0xcbe08095d"
      },
      "gasLimit": {
        "_hex": "0x55f0"
      },
      "to": "0x263D845A19110802000139cbb7a4BBF2B2B8d6C0",
      "value": {
        "_hex": "0xcf617e0381318808"
      },
      "nonce": 3386,
      "data": "0x",
      "r": "0x79ee12b741231a0441f5e8e6896f3420b4f311e83bd823ab48e511c9875af8db",
      "s": "0x46b846cd3c69e8b2f24f5d99b0d09b0b36c60dfb3719b326270c5fe1e9ab2384",
      "v": 27,
      "creates": null,
      "raw": "0xf86e820d3a850cbe08095d8255f094263d845a19110802000139cbb7a4bbf2b2b8d6c088cf617e0381318808801ba079ee12b741231a0441f5e8e6896f3420b4f311e83bd823ab48e511c9875af8dba046b846cd3c69e8b2f24f5d99b0d09b0b36c60dfb3719b326270c5fe1e9ab2384",
      "networkId": 0,
      "chainId": 0
    },
    {
      "hash": "0x6a63d86fabbb269fd102b55238633d27ef1dbe8275fad6b00d67d24b4b628151",
      "blockHash": "0x3f200ace86be975750d56fb7521ce6ac239cd8fa814d088755c22c31a29a13af",
      "blockNumber": 99968,
      "transactionIndex": 19,
      "confirmations": null,
      "from": "0xe6A7a1d47ff21B6321162AEA7C6CB457D5476Bca",
      "gasPrice": {
        "_hex": "0xcbe08095d"
      },
      "gasLimit": {
        "_hex": "0x55f0"
      },
      "to": "0x702bD0d370bBf0B97B66FE95578c62697c583393",
      "value": {
        "_hex": "0xd0b1da048247e940"
      },
      "nonce": 3387,
      "data": "0x",
      "r": "0x94325222e6e697740b520398fe2c996ce6a0b3c91d44762a0ba43ccee5032ec3",
      "s": "0x34e37ca08216e48018ee7ff78ceaaa5556e8f3451271833b520914949f72a6da",
      "v": 27,
      "creates": null,
      "raw": "0xf86e820d3b850cbe08095d8255f094702bd0d370bbf0b97b66fe95578c62697c58339388d0b1da048247e940801ba094325222e6e697740b520398fe2c996ce6a0b3c91d44762a0ba43ccee5032ec3a034e37ca08216e48018ee7ff78ceaaa5556e8f3451271833b520914949f72a6da",
      "networkId": 0,
      "chainId": 0
    }
  ]
}