{
  "hash": "0xde88aaf3aeace51df3e7fc197cd85737d6f19e9575f9f2662be5f5f9f846ae34",
  "parentHash": "0x7dc3d1668be135b5360b2ce4b31a90769a7e3476287a96cc6969b5e9d9a01143",
  "number": 105800,
  "timestamp": 1439893604,
  "nonce": "0x7cb4727f774d87c2",
  "difficulty": 4436107543328,
  "gasLimit": {
    "_hex": "0x2fefd8"
  },
  "gasUsed": {
    "_hex": "0x5208"
  },
  "miner": "0xE300c4587D260cE22a677755Db6429B491A4309E",
  "extraData": "0x",
  "transactions": [
    {
      "hash": "0xf9714b58bf8e6dea64b7e351d25666700f03f7ed78a16faa7a0f46897fc29075",
      "blockHash": "0xde88aaf3aeace51df3e7fc197cd85737d6f19e9575f9f2662be5f5f9f846ae34",
      "blockNumber": 105800,
      "transactionIndex": 0,
      "confirmations": null,
      "from": "0x7e8504a5e26df87f6D26fA1ba148BE146F42775A",
      "gasPrice": {
        "_hex": "0xcc8b1fd7e"
      },
      "gasLimit": {
        "_hex": "0x15f90"
      },
      "to": "0x9f78552704fe7e52cC7C3853534aA2C3cf580D54",
      "value": {
        "_hex": "0x1158e460913d00000"
      },
      "nonce": 1,
      "data": "0x",
      "r": "0xe7745717291cd5ca87517034384c24f7e60520bdefb592681d3ef65f1dc8264c",
      "s": "0x60b9b34bc8655b4ff4689a356a2ff9b26bc822b59c6b18e6fcf9412989923a7e",
      "v": 28,
      "creates": null,
      "raw": "0xf86e01850cc8b1fd7e83015f90949f78552704fe7e52cc7c3853534aa2c3cf580d548901158e460913d00000801ca0e7745717291cd5ca87517034384c24f7e60520bdefb592681d3ef65f1dc8264ca060b9b34bc8655b4ff4689a356a2ff9b26bc822b59c6b18e6fcf9412989923a7e",
      "networkId": 0,
      "chainId": 0
    }
  ]
}