{
  "hash": "0x829aac35404995bd933c64b032bd219b3177da49aea246f7a1c3fa82e3cc0dfc",
  "parentHash": "0xbdd64fe61d66f4354864221183fa8696a89fc21044d2b327c4e76b6b4eeec9e2",
  "number": 68530,
  "timestamp": 1439289630,
  "nonce": "0x69143dd2dfba1ae1",
  "difficulty": 2000583583846,
  "gasLimit": {
    "_hex": "0x2fefd8"
  },
  "gasUsed": {
    "_hex": "0x12988c"
  },
  "miner": "0xe6A7a1d47ff21B6321162AEA7C6CB457D5476Bca",
  "extraData": "0x476574682f76312e302e312d38326566323666362f6c696e75782f676f312e34",
  "transactions": [
    {
      "hash": "0x3c6b2a4857a926791f7e7c41bfff44900b62b9533585b8278ee12a2da2b81d44",
      "blockHash": "0x829aac35404995bd933c64b032bd219b3177da49aea246f7a1c3fa82e3cc0dfc",
      "blockNumber": 68530,
      "transactionIndex": 0,
      "confirmations": null,
      "from": "0x5C5EA4125716Ecf4F7238eE26d74F6895E73125e",
      "gasPrice": {
        "_hex": "0xba43b7400"
      },
      "gasLimit": {
        "_hex": "0x15f90"
      },
      "to": "0x793AE8C1b1a160BFc07BFB0d04F85eab1A71F4f2",
      "value": {
        "_hex": "0x0"
      },
      "nonce": 0,
      "data": "0x3ba15036",
      "r": "0xf2fb75a251d191abde1b044eac28b9e01ef71029c62e7fd20a184ca2ab63b891",
      "s": "0x5ad8c23d716a43adcabdbe15592f40e65784b729984d082c4cd1a8b05114caa1",
      "v": 28,
      "creates": null,
      "raw": "0xf86980850ba43b740083015f9094793ae8c1b1a160bfc07bfb0d04f85eab1a71f4f280843ba150361ca0f2fb75a251d191abde1b044eac28b9e01ef71029c62e7fd20a184ca2ab63b891a05ad8c23d716a43adcabdbe15592f40e65784b729984d082c4cd1a8b05114caa1",
      "networkId": 0,
      "chainId": 0
    },
    {
      "hash": "0x9d24e2fb64f53b259ba1aeae6eb47901dd43a095fe390ff333271082914ffea4",
      "blockHash": "0x829aac35404995bd933c64b032bd219b3177da49aea246f7a1c3fa82e3cc0dfc",
      "blockNumber": 68530,
      "transactionIndex": 1,
      "confirmations": null,
      "from": "0x41A0C9CeC809eF79AeEd330E1BD0aE09441d7B14",
      "gasPrice": {
        "_hex": "0xba43b7400"
      },
      "gasLimit": {
        "_hex": "0x15f90"
      },
      "to": "0x793AE8C1b1a160BFc07BFB0d04F85eab1A71F4f2",
      "value": {
        "_hex": "0x0"
      },
      "nonce": 0,
      "data": "0x3ba15036",
      "r": "0x66ff0feb969660bfc8713287bd9df6e731896884a555ec96b44f09edc8b74a06",
      "s": "0x54d6a1b4b185039b11820066a3bdcab68ab8462fd7133bff10d49c5603838d71",
      "v": 28,
      "creates": null,
      "raw": "0xf86980850ba43b740083015f9094793ae8c1b1a160bfc07bfb0d04f85eab1a71f4f280843ba150361ca066ff0feb969660bfc8713287bd9df6e731896884a555ec96b44f09edc8b74a06a054d6a1b4b185039b11820066a3bdcab68ab8462fd7133bff10d49c5603838d71",
      "networkId": 0,
      "chainId": 0
    },
    {
      "hash": "0xfd66f6d66019378326fe3e00ef6ceca383cee5808cc537714e3cc9129a0801c9",
      "blockHash": "0x829aac35404995bd933c64b032bd219b3177da49aea246f7a1c3fa82e3cc0dfc",
      "blockNumber": 68530,
      "transactionIndex": 2,
      "confirmations": null,
      "from": "0x9c074E2dd802087e4f29ab10F92fD4Bf6684F885",
      "gasPrice": {
        "_hex": "0xba43b7400"
      },
      "gasLimit": {
        "_hex": "0x15f90"
      },
      "to": "0x793AE8C1b1a160BFc07BFB0d04F85eab1A71F4f2",
      "value": {
        "_hex": "0x0"
      },
      "nonce": 0,
      "data": "0x3ba15036",
      "r": "0x42eec58bc441c30e74612421bf0ce316c6574154d4575a0a711fb78ad5653340",
      "s": "0x6012757e8d45f3cd110f08d602360c3d28ce94536058e210f79d4b5ed674e345",
      "v": 27,
      "creates": null,
      "raw": "0xf86980850ba43b740083015f9094793ae8c1b1a160bfc07bfb0d04f85eab1a71f4f280843ba150361ba042eec58bc441c30e74612421bf0ce316c6574154d4575a0a711fb78ad5653340a06012757e8d45f3cd110f08d602360c3d28ce94536058e210f79d4b5ed674e345",
      "networkId": 0,
      "chainId": 0
    },
    {
      "hash": "0x9a965074a546b402f57423c1fc227cb242d1d1f9cc97cc24f7b74fb308de5721",
      "blockHash": "0x829aac35404995bd933c64b032bd219b3177da49aea246f7a1c3fa82e3cc0dfc",
      "blockNumber": 68530,
      "transactionIndex": 3,
      "confirmations": null,
      "from": "0xD88AAdec23aEed0279c0F9EE0F5382534F4BF4f0",
      "gasPrice": {
        "_hex": "0xba43b7400"
      },
      "gasLimit": {
        "_hex": "0x15f90"
      },
      "to": "0x793AE8C1b1a160BFc07BFB0d04F85eab1A71F4f2",
      "value": {
        "_hex": "0x0"
      },
      "nonce": 0,
      "data": "0x3ba15036",
      "r": "0xa8d82b86a658dc1612a42b53983c3ec36fba4e618156d5d7b39e0cd0cc6d6695",
      "s": "0x4302488da4123fd7e3409d87c7b23a59b2efbf1960650254507853cf93b3b11e",
      "v": 27,
      "creates": null,
      "raw": "0xf86980850ba43b740083015f9094793ae8c1b1a160bfc07bfb0d04f85eab1a71f4f280843ba150361ba0a8d82b86a658dc1612a42b53983c3ec36fba4e618156d5d7b39e0cd0cc6d6695a04302488da4123fd7e3409d87c7b23a59b2efbf1960650254507853cf93b3b11e",
      "networkId": 0,
      "chainId": 0
    },
    {
      "hash": "0x13628693e7e83e2249077551fde0d6c6b5e2a6fdd52f0b8a146917da9763fef0",
      "blockHash": "0x829aac35404995bd933c64b032bd219b3177da49aea246f7a1c3fa82e3cc0dfc",
      "blockNumber": 68530,
      "transactionIndex": 4,
      "confirmations": null,
      "from": "0x8a0F71A278613BcE15f499384374FAaeA986e2e7",
      "gasPrice": {
        "_hex": "0xba43b7400"
      },
      "gasLimit": {
        "_hex": "0x15f90"
      },
      "to": "0x793AE8C1b1a160BFc07BFB0d04F85eab1A71F4f2",
      "value": {
        "_hex": "0x0"
      },
      "nonce": 0,
      "data": "0x3ba15036",
      "r": "0x55fb8bcf80e92aa75723e668a4d5cacc6d6550c8905a2a4c50fcdacce0f72dbe",
      "s": "0x08bb4da7d2b3b377b0eb6ad0dc2ca37ba92d2cd079958d136f51bcf87a5ca374",
      "v": 28,
      "creates": null,
      "raw": "0xf86980850ba43b740083015f9094793ae8c1b1a160bfc07bfb0d04f85eab1a71f4f280843ba150361ca055fb8bcf80e92aa75723e668a4d5cacc6d6550c8905a2a4c50fcdacce0f72dbea008bb4da7d2b3b377b0eb6ad0dc2ca37ba92d2cd079958d136f51bcf87a5ca374",
      "networkId": 0,
      "chainId": 0
    },
    {
      "hash": "0x211776cd3d12f194642794062dedc9d92dfb8beaaa172ace641616832130f073",
      "blockHash": "0x829aac35404995bd933c64b032bd219b3177da49aea246f7a1c3fa82e3cc0dfc",
      "blockNumber": 68530,
      "transactionIndex": 5,
      "confirmations": null,
      "from": "0xc408A38b5FB7c84ec6819f65C3725eBd8efd1F1b",
      "gasPrice": {
        "_hex": "0xba43b7400"
      },
      "gasLimit": {
        "_hex": "0x15f90"
      },
      "to": "0x793AE8C1b1a160BFc07BFB0d04F85eab1A71F4f2",
      "value": {
        "_hex": "0x0"
      },
      "nonce": 0,
      "data": "0x3ba15036",
      "r": "0x4c4536dbb08077f466c682f607848243d273fcfcb6a96f164fc6e4f723acecd6",
      "s": "0x274fba940ac14115461d621ff8fb0d9f6b958cf8194161a4bb082c393af2952e",
      "v": 27,
      "creates": null,
      "raw": "0xf86980850ba43b740083015f9094793ae8c1b1a160bfc07bfb0d04f85eab1a71f4f280843ba150361ba04c4536dbb08077f466c682f607848243d273fcfcb6a96f164fc6e4f723acecd6a0274fba940ac14115461d621ff8fb0d9f6b958cf8194161a4bb082c393af2952e",
      "networkId": 0,
      "chainId": 0
    },
    {
      "hash": "0xb3c7dcfb5efc38f7c84cb85adc457450467e7c6eae3795fb34e6e8f62f875280",
      "blockHash": "0x829aac35404995bd933c64b032bd219b3177da49aea246f7a1c3fa82e3cc0dfc",
      "blockNumber": 68530,
      "transactionIndex": 6,
      "confirmations": null,
      "from": "0x1b06b70af1B8a8e3D4f82758c13EAfC02f373F01",
      "gasPrice": {
        "_hex": "0xba43b7400"
      },
      "gasLimit": {
        "_hex": "0x15f90"
      },
      "to": "0x793AE8C1b1a160BFc07BFB0d04F85eab1A71F4f2",
      "value": {
        "_hex": "0x0"
      },
      "nonce": 0,
      "data": "0x3ba15036",
      "r": "0x93129115d1af3325a6ba8b9f76b13397f8b9c61708980b1cdc6d463891ab970c",
      "s": "0x45a45d83c6482f6a211144d26cdbb510a29d2f3ff4b4a2f26176f1b9149ee76e",
      "v": 28,
      "creates": null,
      "raw": "0xf86980850ba43b740083015f9094793ae8c1b1a160bfc07bfb0d04f85eab1a71f4f280843ba150361ca093129115d1af3325a6ba8b9f76b13397f8b9c61708980b1cdc6d463891ab970ca045a45d83c6482f6a211144d26cdbb510a29d2f3ff4b4a2f26176f1b9149ee76e",
      "networkId": 0,
      "chainId": 0
    },
    {
      "hash": "0xc5dd72955c3b13303fe56a40d812edb24f6be279fec62b8085c1b1d9e669b12e",
      "blockHash": "0x829aac35404995bd933c64b032bd219b3177da49aea246f7a1c3fa82e3cc0dfc",
      "blockNumber": 68530,
      "transactionIndex": 7,
      "confirmations": null,
      "from": "0x15C0571D879333Ca1177B66D3b466a830454A691",
      "gasPrice": {
        "_hex": "0xba43b7400"
      },
      "gasLimit": {
        "_hex": "0x15f90"
      },
      "to": "0x793AE8C1b1a160BFc07BFB0d04F85eab1A71F4f2",
      "value": {
        "_hex": "0x0"
      },
      "nonce": 0,
      "data": "0x3ba15036",
      "r": "0xffc52b1b505df7511858a8c3254355a9f700a6926b4db4f50797da7634de01d1",
      "s": "0x4a37812cad489d78af7b57c9ce9412dc3fff81eeeb4b1fc9f8d52d9d76937cab",
      "v": 27,
      "creates": null,
      "raw": "0xf86980850ba43b740083015f9094793ae8c1b1a160bfc07bfb0d04f85eab1a71f4f280843ba150361ba0ffc52b1b505df7511858a8c3254355a9f700a6926b4db4f50797da7634de01d1a04a37812cad489d78af7b57c9ce9412dc3fff81eeeb4b1fc9f8d52d9d76937cab",
      "networkId": 0,
      "chainId": 0
    },
    {
      "hash": "0x852c2240290869b6e5e62075184bd041ddd723a897091df29657e4cb620b19df",
      "blockHash": "0x829aac35404995bd933c64b032bd219b3177da49aea246f7a1c3fa82e3cc0dfc",
      "blockNumber": 68530,
      "transactionIndex": 8,
      "confirmations": null,
      "from": "0x685dA9Eb932613E5c8F3187534D395acd044454c",
      "gasPrice": {
        "_hex": "0xba43b7400"
      },
      "gasLimit": {
        "_hex": "0x15f90"
      },
      "to": "0x793AE8C1b1a160BFc07BFB0d04F85eab1A71F4f2",
      "value": {
        "_hex": "0x0"
      },
      "nonce": 0,
      "data": "0x3ba15036",
      "r": "0xb752e28afa7de941ed0d97068efb20c76bf42714d0c209132f37bb30717d0e73",
      "s": "0x32d1deedf0504d04344b5c5643b1bf25eec98f662068bc1aa96445938bc6a58a",
      "v": 27,
      "creates": null,
      "raw": "0xf86980850ba43b740083015f9094793ae8c1b1a160bfc07bfb0d04f85eab1a71f4f280843ba150361ba0b752e28afa7de941ed0d97068efb20c76bf42714d0c209132f37bb30717d0e73a032d1deedf0504d04344b5c5643b1bf25eec98f662068bc1aa96445938bc6a58a",
      "networkId": 0,
      "chainId": 0
    },
    {
      "hash": "0xacdefd04635e719128879f8ea8aa669109ddac6abdf3a9e2a181241fcf8270e9",
      "blockHash": "0x829aac35404995bd933c64b032bd219b3177da49aea246f7a1c3fa82e3cc0dfc",
      "blockNumber": 68530,
      "transactionIndex": 9,
      "confirmations": null,
      "from": "0xB9edc479F7D57E28CD3798976A293bf7a5dBbe6D",
      "gasPrice": {
        "_hex": "0xba43b7400"
      },
      "gasLimit": {
        "_hex": "0x15f90"
      },
      "to": "0x793AE8C1b1a160BFc07BFB0d04F85eab1A71F4f2",
      "value": {
        "_hex": "0x0"
      },
      "nonce": 0,
      "data": "0x3ba15036",
      "r": "0x0b0b043b1fcef1a189af873bfc9ad8ebec875ce6918b75ce8c98edc0f678685a",
      "s": "0x72189cec737b4e4c752577f3f3e5f9c2109aa62ca1437b904116523c040ada15",
      "v": 28,
      "creates": null,
      "raw": "0xf86980850ba43b740083015f9094793ae8c1b1a160bfc07bfb0d04f85eab1a71f4f280843ba150361ca00b0b043b1fcef1a189af873bfc9ad8ebec875ce6918b75ce8c98edc0f678685aa072189cec737b4e4c752577f3f3e5f9c2109aa62ca1437b904116523c040ada15",
      "networkId": 0,
      "chainId": 0
    },
    {
      "hash": "0x9dfad2fc234f6622eb8596e977f569d1f40ac95d2e963f2961f3378fa5a0f4cb",
      "blockHash": "0x829aac35404995bd933c64b032bd219b3177da49aea246f7a1c3fa82e3cc0dfc",
      "blockNumber": 68530,
      "transactionIndex": 10,
      "confirmations": null,
      "from": "0xe0A72878B9228910F108F826e5b0eED0B7a495D5",
      "gasPrice": {
        "_hex": "0xba43b7400"
      },
      "gasLimit": {
        "_hex": "0x15f90"
      },
      "to": "0x793AE8C1b1a160BFc07BFB0d04F85eab1A71F4f2",
      "value": {
        "_hex": "0x0"
      },
      "nonce": 0,
      "data": "0x3ba15036",
      "r": "0x92d0f32eef908d45a332cdcb59b026b9cd8829cf717be08273891cb908979f18",
      "s": "0x688b9e75aa94f1765472078fefb65a9963743fdaa13d2c3646d3d5882ec3cc80",
      "v": 28,
      "creates": null,
      "raw": "0xf86980850ba43b740083015f9094793ae8c1b1a160bfc07bfb0d04f85eab1a71f4f280843ba150361ca092d0f32eef908d45a332cdcb59b026b9cd8829cf717be08273891cb908979f18a0688b9e75aa94f1765472078fefb65a9963743fdaa13d2c3646d3d5882ec3cc80",
      "networkId": 0,
      "chainId": 0
    },
    {
      "hash": "0xc2974880acb8824d6d40f54e209a5ffcfe376a2581b6488ed57778c6e3767ec1",
      "blockHash": "0x829aac35404995bd933c64b032bd219b3177da49aea246f7a1c3fa82e3cc0dfc",
      "blockNumber": 68530,
      "transactionIndex": 11,
      "confirmations": null,
      "from": "0x73A29A4Dde2A7D6Fc31e80BFC5333DeF2ceA1F00",
      "gasPrice": {
        "_hex": "0xba43b7400"
      },
      "gasLimit": {
        "_hex": "0x15f90"
      },
      "to": "0x793AE8C1b1a160BFc07BFB0d04F85eab1A71F4f2",
      "value": {
        "_hex": "0x0"
      },
      "nonce": 0,
      "data": "0x3ba15036",
      "r": "0x7097d6ca18ca89aca3323b8a57b528d42044fedd6580fd41e093eeb5996f18af",
      "s": "0x49befc7e0fc0b492575981eba1574d17e94fca29b3dea83651032e2bbde70a40",
      "v": 28,
      "creates": null,
      "raw": "0xf86980850ba43b740083015f9094793ae8c1b1a160bfc07bfb0d04f85eab1a71f4f280843ba150361ca07097d6ca18ca89aca3323b8a57b528d42044fedd6580fd41e093eeb5996f18afa049befc7e0fc0b492575981eba1574d17e94fca29b3dea83651032e2bbde70a40",
      "networkId": 0,
      "chainId": 0
    },
    {
      "hash": "0x315dd395db14d71217560d889a26a800598117acbec7084afaef9743a7b1a85a",
      "blockHash": "0x829aac35404995bd933c64b032bd219b3177da49aea246f7a1c3fa82e3cc0dfc",
      "blockNumber": 68530,
      "transactionIndex": 12,
      "confirmations": null,
      "from": "0xF79650C3c0A99FA165c62bbEab819E706182c10F",
      "gasPrice": {
        "_hex": "0xba43b7400"
      },
      "gasLimit": {
        "_hex": "0x15f90"
      },
      "to": "0x793AE8C1b1a160BFc07BFB0d04F85eab1A71F4f2",
      "value": {
        "_hex": "0x0"
      },
      "nonce": 0,
      "data": "0x3ba15036",
      "r": "0xc0a2b85fff1a2b2e21930584d7393e1c754631120ec8db749579439ad0c4c1bf",
      "s": "0x0400daefcbcbf14f515bce3652f478dff93ebf0089607ff9f844fecf40041940",
      "v": 27,
      "creates": null,
      "raw": "0xf86980850ba43b740083015f9094793ae8c1b1a160bfc07bfb0d04f85eab1a71f4f280843ba150361ba0c0a2b85fff1a2b2e21930584d7393e1c754631120ec8db749579439ad0c4c1bfa00400daefcbcbf14f515bce3652f478dff93ebf0089607ff9f844fecf40041940",
      "networkId": 0,
      "chainId": 0
    },
    {
      "hash": "0xdcfa97b37d71b0cd80f6cea40d689c09f28ed8ed64c063b112e4e0539ec97264",
      "blockHash": "0x829aac35404995bd933c64b032bd219b3177da49aea246f7a1c3fa82e3cc0dfc",
      "blockNumber": 68530,
      "transactionIndex": 13,
      "confirmations": null,
      "from": "0x3ecAd42e13f875a63f85BC6d836FFE5235eD4125",
      "gasPrice": {
        "_hex": "0xba43b7400"
      },
      "gasLimit": {
        "_hex": "0x15f90"
      },
      "to": "0x793AE8C1b1a160BFc07BFB0d04F85eab1A71F4f2",
      "value": {
        "_hex": "0x0"
      },
      "nonce": 0,
      "data": "0x3ba15036",
      "r": "0x744cb26d9cfd10ea988585082e0f15c218e21008c75edc7e964ced6ff0415976",
      "s": "0x34521ac333d67811e4bec9684ec8336b405ae1df3eeb575898927ae7221cc2d2",
      "v": 27,
      "creates": null,
      "raw": "0xf86980850ba43b740083015f9094793ae8c1b1a160bfc07bfb0d04f85eab1a71f4f280843ba150361ba0744cb26d9cfd10ea988585082e0f15c218e21008c75edc7e964ced6ff0415976a034521ac333d67811e4bec9684ec8336b405ae1df3eeb575898927ae7221cc2d2",
      "networkId": 0,
      "chainId": 0
    },
    {
      "hash": "0xa41df031d55996a215c0240c9cb5948c98473c2fce6f73f3fc1198af8b7932a4",
      "blockHash": "0x829aac35404995bd933c64b032bd219b3177da49aea246f7a1c3fa82e3cc0dfc",
      "blockNumber": 68530,
      "transactionIndex": 14,
      "confirmations": null,
      "from": "0x780D5A1E44482Bc80d68c26e96c6D1072A3F0558",
      "gasPrice": {
        "_hex": "0xba43b7400"
      },
      "gasLimit": {
        "_hex": "0x15f90"
      },
      "to": "0x793AE8C1b1a160BFc07BFB0d04F85eab1A71F4f2",
      "value": {
        "_hex": "0x0"
      },
      "nonce": 0,
      "data": "0x3ba15036",
      "r": "0x971539a07f7aae27537a01bece0e3b0819c2cc0c59ac27effbd10756d6edc82d",
      "s": "0x5a06b1b88f0f6d4a8a1304596f2afc60ee0ca61e914bd0c8f6dabe9f99e2662a",
      "v": 27,
      "creates": null,
      "raw": "0xf86980850ba43b740083015f9094793ae8c1b1a160bfc07bfb0d04f85eab1a71f4f280843ba150361ba0971539a07f7aae27537a01bece0e3b0819c2cc0c59ac27effbd10756d6edc82da05a06b1b88f0f6d4a8a1304596f2afc60ee0ca61e914bd0c8f6dabe9f99e2662a",
      "networkId": 0,
      "chainId": 0
    },
    {
      "hash": "0x55409aab5e7c04b189970dfbc1e60de88ec593065c429d72898ba875c651779a",
      "blockHash": "0x829aac35404995bd933c64b032bd219b3177da49aea246f7a1c3fa82e3cc0dfc",
      "blockNumber": 68530,
      "transactionIndex": 15,
      "confirmations": null,
      "from": "0x3de7d5d49D236c03de0C03df886784a71712CC11",
      "gasPrice": {
        "_hex": "0xba43b7400"
      },
      "gasLimit": {
        "_hex": "0x15f90"
      },
      "to": "0x793AE8C1b1a160BFc07BFB0d04F85eab1A71F4f2",
      "value": {
        "_hex": "0x0"
      },
      "nonce": 0,
      "data": "0x3ba15036",
      "r": "0xeb79ef7ccde46df8f3866ff4448bfe4a020c728909c608f9d62a50b01ecf65c9",
      "s": "0x5482d6e680281f26031cbd2e9bcf22f5043ba06acca00a602828a084a9d79c34",
      "v": 28,
      "creates": null,
      "raw": "0xf86980850ba43b740083015f9094793ae8c1b1a160bfc07bfb0d04f85eab1a71f4f280843ba150361ca0eb79ef7ccde46df8f3866ff4448bfe4a020c728909c608f9d62a50b01ecf65c9a05482d6e680281f26031cbd2e9bcf22f5043ba06acca00a602828a084a9d79c34",
      "networkId": 0,
      "chainId": 0
    },
    {
      "hash": "0xb6e1485150e3b0ddff8452e24e202a24767c15bc63c79091db28cbf2a993bf92",
      "blockHash": "0x829aac35404995bd933c64b032bd219b3177da49aea246f7a1c3fa82e3cc0dfc",
      "blockNumber": 68530,
      "transactionIndex": 16,
      "confirmations": null,
      "from": "0x4bFa4E25Ca29F3496F1aB577eF979b642CB1E3f6",
      "gasPrice": {
        "_hex": "0xba43b7400"
      },
      "gasLimit": {
        "_hex": "0x15f90"
      },
      "to": "0x793AE8C1b1a160BFc07BFB0d04F85eab1A71F4f2",
      "value": {
        "_hex": "0x0"
      },
      "nonce": 0,
      "data": "0x3ba15036",
      "r": "0xa1fa167969d5bb08d383de5b07d5c2bdd9b905c7b4eae11b6907302d4ae70c66",
      "s": "0x7e0acd9ff265dc01b3fcf19b688fe827d88d31d293537b96e20a09556b1a50e0",
      "v": 27,
      "creates": null,
      "raw": "0xf86980850ba43b740083015f9094793ae8c1b1a160bfc07bfb0d04f85eab1a71f4f280843ba150361ba0a1fa167969d5bb08d383de5b07d5c2bdd9b905c7b4eae11b6907302d4ae70c66a07e0acd9ff265dc01b3fcf19b688fe827d88d31d293537b96e20a09556b1a50e0",
      "networkId": 0,
      "chainId": 0
    },
    {
      "hash": "0xcd8aa2c3bf90c2e1587ef84a6ed7d3ca2c8331862c191f4aba90bdaa757bbd83",
      "blockHash": "0x829aac35404995bd933c64b032bd219b3177da49aea246f7a1c3fa82e3cc0dfc",
      "blockNumber": 68530,
      "transactionIndex": 17,
      "confirmations": null,
      "from": "0x27d873d62ceB0A4DD25dCED398febdC9Cb31b93a",
      "gasPrice": {
        "_hex": "0xba43b7400"
      },
      "gasLimit": {
        "_hex": "0x15f90"
      },
      "to": "0x793AE8C1b1a160BFc07BFB0d04F85eab1A71F4f2",
      "value": {
        "_hex": "0x0"
      },
      "nonce": 0,
      "data": "0x3ba15036",
      "r": "0x2fd8a0a0468d58072be4be2638138baaca1f01cf1dfd2035c40a5626dffd8cfb",
      "s": "0x28b6f2471bc7a4df1e9c8afd29daf6f10149b0366e8233d41423048f5eb10581",
      "v": 28,
      "creates": null,
      "raw": "0xf86980850ba43b740083015f9094793ae8c1b1a160bfc07bfb0d04f85eab1a71f4f280843ba150361ca02fd8a0a0468d58072be4be2638138baaca1f01cf1dfd2035c40a5626dffd8cfba028b6f2471bc7a4df1e9c8afd29daf6f10149b0366e8233d41423048f5eb10581",
      "networkId": 0,
      "chainId": 0
    },
    {
      "hash": "0xd798f2e6ac73397d895dc779e26595a0622d994ed40f2cbd4a45b69535ed401c",
      "blockHash": "0x829aac35404995bd933c64b032bd219b3177da49aea246f7a1c3fa82e3cc0dfc",
      "blockNumber": 68530,
      "transactionIndex": 18,
      "confirmations": null,
      "from": "0xf1650e37847266782596B5b4672DD5163bD4Bc3A",
      "gasPrice": {
        "_hex": "0xba43b7400"
      },
      "gasLimit": {
        "_hex": "0x15f90"
      },
      "to": "0x793AE8C1b1a160BFc07BFB0d04F85eab1A71F4f2",
      "value": {
        "_hex": "0x0"
      },
      "nonce": 0,
      "data": "0x3ba15036",
      "r": "0xc5a8c9fa12ae78bb00b7f9bb4dfb5b8f7e9c2d649db10c29f2bb18da2b99d5d6",
      "s": "0x3b740b97ca82ef14c614c05fb4c1a11259f19666c39ea6c6244d0c1ae3a2c452",
      "v": 27,
      "creates": null,
      "raw": "0xf86980850ba43b740083015f9094793ae8c1b1a160bfc07bfb0d04f85eab1a71f4f280843ba150361ba0c5a8c9fa12ae78bb00b7f9bb4dfb5b8f7e9c2d649db10c29f2bb18da2b99d5d6a03b740b97ca82ef14c614c05fb4c1a11259f19666c39ea6c6244d0c1ae3a2c452",
      "networkId": 0,
      "chainId": 0
    },
    {
      "hash": "0x2dc9052e437f923cbbb4a2520df23feacf9169d916c1ada8fa293b6e4d4e6483",
      "blockHash": "0x829aac35404995bd933c64b032bd219b3177da49aea246f7a1c3fa82e3cc0dfc",
      "blockNumber": 68530,
      "transactionIndex": 19,
      "confirmations": null,
      "from": "0x774881773e6b791e0601de6c79d00F2b45Bc2146",
      "gasPrice": {
        "_hex": "0xba43b7400"
      },
      "gasLimit": {
        "_hex": "0x15f90"
      },
      "to": "0x793AE8C1b1a160BFc07BFB0d04F85eab1A71F4f2",
      "value": {
        "_hex": "0x0"
      },
      "nonce": 0,
      "data": "0x3ba15036",
      "r": "0x6a855afb0533db14310a705079bc89106365a8eabf131bc5f4da5c96dafe5a9b",
      "s": "0x2ef1d96abbdd5ec8ed0e1c52ad59c84eb881c297ae7328552b6d7f070002bb0c",
      "v": 27,
      "creates": null,
      "raw": "0xf86980850ba43b740083015f9094793ae8c1b1a160bfc07bfb0d04f85eab1a71f4f280843ba150361ba06a855afb0533db14310a705079bc89106365a8eabf131bc5f4da5c96dafe5a9ba02ef1d96abbdd5ec8ed0e1c52ad59c84eb881c297ae7328552b6d7f070002bb0c",
      "networkId": 0,
      "chainId": 0
    },
    {
      "hash": "0xc677a3c255d576c8122ce2f04fd6877baf246f09cef669ee2732059c5cfd5b81",
      "blockHash": "0x829aac35404995bd933c64b032bd219b3177da49aea246f7a1c3fa82e3cc0dfc",
      "blockNumber": 68530,
      "transactionIndex": 20,
      "confirmations": null,
      "from": "0x2bF85cD052884B7879aB1C3672BB8F226599A15a",
      "gasPrice": {
        "_hex": "0xba43b7400"
      },
      "gasLimit": {
        "_hex": "0x15f90"
      },
      "to": "0x793AE8C1b1a160BFc07BFB0d04F85eab1A71F4f2",
      "value": {
        "_hex": "0x0"
      },
      "nonce": 0,
      "data": "0x3ba15036",
      "r": "0xe4362cb3c3a872a9163ea98111615566c6aac42be96f40e1b86cb317264e4f9f",
      "s": "0x3d002a63151ded13b5a4267c1be5d4f0ebdb4b262a5ae76dea5f84c7ed9b8f14",
      "v": 28,
      "creates": null,
      "raw": "0xf86980850ba43b740083015f9094793ae8c1b1a160bfc07bfb0d04f85eab1a71f4f280843ba150361ca0e4362cb3c3a872a9163ea98111615566c6aac42be96f40e1b86cb317264e4f9fa03d002a63151ded13b5a4267c1be5d4f0ebdb4b262a5ae76dea5f84c7ed9b8f14",
      "networkId": 0,
      "chainId": 0
    },
    {
      "hash": "0xbf9a95604a66c5fa47e66a1f0c11462469d70af9ffa48e35e3603793b6f41a44",
      "blockHash": "0x829aac35404995bd933c64b032bd219b3177da49aea246f7a1c3fa82e3cc0dfc",
      "blockNumber": 68530,
      "transactionIndex": 21,
      "confirmations": null,
      "from": "0x64d3b2c979F9B73Ff57B67B21de07970b644Eb0c",
      "gasPrice": {
        "_hex": "0xba43b7400"
      },
      "gasLimit": {
        "_hex": "0x15f90"
      },
      "to": "0x793AE8C1b1a160BFc07BFB0d04F85eab1A71F4f2",
      "value": {
        "_hex": "0x0"
      },
      "nonce": 0,
      "data": "0x3ba15036",
      "r": "0x3df3c8da5d1d73b55ca770c7da227d97875aba835b363a43762134c598226a5c",
      "s": "0x65ff125d2561e452c5919823c2abf528ebb3c0d9d8d6d6ad1df13dd330eec8ce",
      "v": 28,
      "creates": null,
      "raw": "0xf86980850ba43b740083015f9094793ae8c1b1a160bfc07bfb0d04f85eab1a71f4f280843ba150361ca03df3c8da5d1d73b55ca770c7da227d97875aba835b363a43762134c598226a5ca065ff125d2561e452c5919823c2abf528ebb3c0d9d8d6d6ad1df13dd330eec8ce",
      "networkId": 0,
      "chainId": 0
    },
    {
      "hash": "0xd16263fa586abc08e4921c65515d9caad567c16e08a7ba1bfe73e4c74f871e26",
      "blockHash": "0x829aac35404995bd933c64b032bd219b3177da49aea246f7a1c3fa82e3cc0dfc",
      "blockNumber": 68530,
      "transactionIndex": 22,
      "confirmations": null,
      "from": "0x89Af4D4E8063175998B36830F43FC73c67A2b9a8",
      "gasPrice": {
        "_hex": "0xba43b7400"
      },
      "gasLimit": {
        "_hex": "0x15f90"
      },
      "to": "0x793AE8C1b1a160BFc07BFB0d04F85eab1A71F4f2",
      "value": {
        "_hex": "0x0"
      },
      "nonce": 0,
      "data": "0x3ba15036",
      "r": "0xf346b80fd8c30c0b0b9eecd152a8f60c530b29557d84573e4ab3879a90ab9d3f",
      "s": "0x02b2bc3bbdcac281f36866cb9e84bdb2d3c43f23561417364877ea1289089101",
      "v": 28,
      "creates": null,
      "raw": "0xf86980850ba43b740083015f9094793ae8c1b1a160bfc07bfb0d04f85eab1a71f4f280843ba150361ca0f346b80fd8c30c0b0b9eecd152a8f60c530b29557d84573e4ab3879a90ab9d3fa002b2bc3bbdcac281f36866cb9e84bdb2d3c43f23561417364877ea1289089101",
      "networkId": 0,
      "chainId": 0
    },
    {
      "hash": "0xb5587e62e2333da9dec296856922da790533981190e71755e2e1c544ea8a5e71",
      "blockHash": "0x829aac35404995bd933c64b032bd219b3177da49aea246f7a1c3fa82e3cc0dfc",
      "blockNumber": 68530,
      "transactionIndex": 23,
      "confirmations": null,
      "from": "0x6B7aBb008532E14bE7b865f87D190F05059908FF",
      "gasPrice": {
        "_hex": "0xba43b7400"
      },
      "gasLimit": {
        "_hex": "0x15f90"
      },
      "to": "0x793AE8C1b1a160BFc07BFB0d04F85eab1A71F4f2",
      "value": {
        "_hex": "0x0"
      },
      "nonce": 0,
      "data": "0x3ba15036",
      "r": "0x99ece45ead5eb841fd9e90d0f5dd34b2e4c44553fd66a753c96a29b2c6f2bf0a",
      "s": "0x7e64f4ddd93a02005ec233a8211827a08e493bb45d8e79afb21371041df125d7",
      "v": 28,
      "creates": null,
      "raw": "0xf86980850ba43b740083015f9094793ae8c1b1a160bfc07bfb0d04f85eab1a71f4f280843ba150361ca099ece45ead5eb841fd9e90d0f5dd34b2e4c44553fd66a753c96a29b2c6f2bf0aa07e64f4ddd93a02005ec233a8211827a08e493bb45d8e79afb21371041df125d7",
      "networkId": 0,
      "chainId": 0
    },
    {
      "hash": "0x60d3ca2f98c8d8fce05f02494c5a9e51aee72b0d3ba6100acf157a9c3b6067b3",
      "blockHash": "0x829aac35404995bd933c64b032bd219b3177da49aea246f7a1c3fa82e3cc0dfc",
      "blockNumber": 68530,
      "transactionIndex": 24,
      "confirmations": null,
      "from": "0x831E01aEaFd16A550cc48496451c853EF83ced06",
      "gasPrice": {
        "_hex": "0xba43b7400"
      },
      "gasLimit": {
        "_hex": "0x15f90"
      },
      "to": "0x793AE8C1b1a160BFc07BFB0d04F85eab1A71F4f2",
      "value": {
        "_hex": "0x0"
      },
      "nonce": 0,
      "data": "0x3ba15036",
      "r": "0x8bc04e35768bc37496261dcdc4ce23c27a09e89f70996e0547f1b4bc7908fa81",
      "s": "0x27cdfe22b306a6e9cb83fed50e8d2b02d56343dc859aa884900808ef05c9bcc0",
      "v": 27,
      "creates": null,
      "raw": "0xf86980850ba43b740083015f9094793ae8c1b1a160bfc07bfb0d04f85eab1a71f4f280843ba150361ba08bc04e35768bc37496261dcdc4ce23c27a09e89f70996e0547f1b4bc7908fa81a027cdfe22b306a6e9cb83fed50e8d2b02d56343dc859aa884900808ef05c9bcc0",
      "networkId": 0,
      "chainId": 0
    }
  ]
}