{
  "hash": "0xdf081e3edd136c3dc3c30a7b77eb6ce482afea827807a50c364a82ae42b3adc4",
  "parentHash": "0x0da92a72e5d3f6ea4b8b093a57906f15362a8d51d0c6d12ab19599dcc77b5d37",
  "number": 84381,
  "timestamp": 1439548944,
  "nonce": "0x0f4cace5e9f159a0",
  "difficulty": 2547727298370,
  "gasLimit": {
    "_hex": "0x2fefd8"
  },
  "gasUsed": {
    "_hex": "0x5208"
  },
  "miner": "0xe6A7a1d47ff21B6321162AEA7C6CB457D5476Bca",
  "extraData": "0x476574682f76312e302e312d38326566323666362f6c696e75782f676f312e34",
  "transactions": [
    {
      "hash": "0xff0c692c0cc8ed35521fbfa099be9d8e8f4520447cbdd8a9422b44d3ea23bc8e",
      "blockHash": "0xdf081e3edd136c3dc3c30a7b77eb6ce482afea827807a50c364a82ae42b3adc4",
      "blockNumber": 84381,
      "transactionIndex": 0,
      "confirmations": null,
      "from": "0x7B25Bb9cA8E702217e9333225250E53c36804D48",
      "gasPrice": {
        "_hex": "0xdc7899cd0"
      },
      "gasLimit": {
        "_hex": "0x15f90"
      },
      "to": "0x4fA3954A093E9916a48C5960B4303d7832b21A9b",
      "value": {
        "_hex": "0x2f29ace68addd80000"
      },
      "nonce": 1,
      "data": "0x",
      "r": "0xd5824029b1421bd7cae79357dc1f58d12b41bfd492de12dab6b3a5dd6a5906c2",
      "s": "0x4fffdcaaa77e82779eb7cd8bf50db7e040e7c6fc24213e99c70c999f7d7b15fe",
      "v": 27,
      "creates": null,
      "raw": "0xf86e01850dc7899cd083015f90944fa3954a093e9916a48c5960b4303d7832b21a9b892f29ace68addd80000801ba0d5824029b1421bd7cae79357dc1f58d12b41bfd492de12dab6b3a5dd6a5906c2a04fffdcaaa77e82779eb7cd8bf50db7e040e7c6fc24213e99c70c999f7d7b15fe",
      "networkId": 0,
      "chainId": 0
    }
  ]
}