{
  "hash": "0xbfa30a881604609936f2d0c1de1941024bf05d87061870d4b55f3f50dd47be1f",
  "parentHash": "0x5e50d76ccd7a6701026fa8f178475991a5fbc527cb0431c0c08d118caa57c768",
  "number": 72745,
  "timestamp": 1439357604,
  "nonce": "0xe32e69058e67b725",
  "difficulty": 2182211502673,
  "gasLimit": {
    "_hex": "0x2fefd8"
  },
  "gasUsed": {
    "_hex": "0x67b9"
  },
  "miner": "0x88D74a59454F6cF3B51ef6b9136AFb6b9D405A88",
  "extraData": "0x476574682f76312e302e312d38326566323666362f6c696e75782f676f312e34",
  "transactions": [
    {
      "hash": "0x02ebc0ef79a10f8b6679bba42026df32de1cb28c3d5266439713a0f1a18667b4",
      "blockHash": "0xbfa30a881604609936f2d0c1de1941024bf05d87061870d4b55f3f50dd47be1f",
      "blockNumber": 72745,
      "transactionIndex": 0,
      "confirmations": null,
      "from": "0x18E113D8177c691A61Be785852Fa5Bb47aEeBdAf",
      "gasPrice": {
        "_hex": "0xdbc10b892"
      },
      "gasLimit": {
        "_hex": "0x7a120"
      },
      "to": "0xc2ac6849Aec3938FB8c9B36F1c07be76f766637E",
      "value": {
        "_hex": "0x1b0d04202f47ec0000"
      },
      "nonce": 3,
      "data": "0x4f013184",
      "r": "0x66e36a5682257c0b171ea79b8a75256296d4deebfffaf61805871861f17e495f",
      "s": "0x189363ea5ade5814944a7b6b774aa83f8f998e24b748b20515eb4940a84b01e2",
      "v": 27,
      "creates": null,
      "raw": "0xf87203850dbc10b8928307a12094c2ac6849aec3938fb8c9b36f1c07be76f766637e891b0d04202f47ec0000844f0131841ba066e36a5682257c0b171ea79b8a75256296d4deebfffaf61805871861f17e495fa0189363ea5ade5814944a7b6b774aa83f8f998e24b748b20515eb4940a84b01e2",
      "networkId": 0,
      "chainId": 0
    }
  ]
}