{
  "hash": "0x916ea3ca83935612ea5b811dc35a71222151dc8a4bf006595ded57ac492e3085",
  "parentHash": "0x8a1a6b7fe20f2381791bcbe2653a8c562c6748f1f5c9cfbd51a6207c44856fa9",
  "number": 121626,
  "timestamp": 1440179956,
  "nonce": "0x4ed70975c351efca",
  "difficulty": 4471197777244,
  "gasLimit": {
    "_hex": "0x2fefd8"
  },
  "gasUsed": {
    "_hex": "0x5208"
  },
  "miner": "0xe6A7a1d47ff21B6321162AEA7C6CB457D5476Bca",
  "extraData": "0xd783010002844765746887676f312e342e32856c696e7578",
  "transactions": [
    {
      "hash": "0xea4ad96481d0f5d9d737ff6a3e8027ff0b52843ef37ba48a5a50d68050f07b73",
      "blockHash": "0x916ea3ca83935612ea5b811dc35a71222151dc8a4bf006595ded57ac492e3085",
      "blockNumber": 121626,
      "transactionIndex": 0,
      "confirmations": null,
      "from": "0x3FF679B0823a026F2378E5f5F22A6F127cC85828",
      "gasPrice": {
        "_hex": "0xba43b7400"
      },
      "gasLimit": {
        "_hex": "0x61a8"
      },
      "to": "0x52bc44d5378309EE2abF1539BF71dE1b7d7bE3b5",
      "value": {
        "_hex": "0x340aad21b3b700000"
      },
      "nonce": 10,
      "data": "0x",
      "r": "0xff667772965112782e804fdca493789ac938a5aa37b64fdfc75e7eb94c695b5b",
      "s": "0x16f2a3ed71e82ff3a6aef70f7646e1ab88e46c957b84b8128f53f1f25dcad257",
      "v": 27,
      "creates": null,
      "raw": "0xf86d0a850ba43b74008261a89452bc44d5378309ee2abf1539bf71de1b7d7be3b5890340aad21b3b700000801ba0ff667772965112782e804fdca493789ac938a5aa37b64fdfc75e7eb94c695b5ba016f2a3ed71e82ff3a6aef70f7646e1ab88e46c957b84b8128f53f1f25dcad257",
      "networkId": 0,
      "chainId": 0
    }
  ]
}