{
  "hash": "0x354b76d80f8d79a879e6d082f32832c12a28f643e64fe5a2d115ba2c9ca519bc",
  "parentHash": "0x252958900d72fb5a828c3273f0b397c7ae3aa72de00c06db34ba7d38ebd3f0e1",
  "number": 80617,
  "timestamp": 1439488129,
  "nonce": "0xb84f4dbbc00c544b",
  "difficulty": 2425034421226,
  "gasLimit": {
    "_hex": "0x2fefd8"
  },
  "gasUsed": {
    "_hex": "0xaa37"
  },
  "miner": "0xf927a40C8B7F6E07c5af7FA2155B4864a4112B13",
  "extraData": "0x",
  "transactions": [
    {
      "hash": "0x4df278e2757d5c9e0e17382b385b8f482c53b51a8b90146b56ff035be4179c67",
      "blockHash": "0x354b76d80f8d79a879e6d082f32832c12a28f643e64fe5a2d115ba2c9ca519bc",
      "blockNumber": 80617,
      "transactionIndex": 0,
      "confirmations": null,
      "from": "0x87C5B5874A18B4306DF8a752a6C8cc3E82daFc19",
      "gasPrice": {
        "_hex": "0x1190da535f4"
      },
      "gasLimit": {
        "_hex": "0x493e0"
      },
      "to": "0xC4c51de1AbF5D60DBd329eC0F999Fd8f021ae9fC",
      "value": {
        "_hex": "0x0"
      },
      "nonce": 262,
      "data": "0x03750d9400000000000000000000000087c5b5874a18b4306df8a752a6c8cc3e82dafc196b6b6b0000000000000000000000000000000000000000000000000000000000",
      "r": "0x4b09c33017f7d3b55bb369e5f213d72e3f30a00e6bfcaa532509572f5b8906f7",
      "s": "0x7083288186093662d9fba71276f8022631d464787a6b350df1cf04471bad22a2",
      "v": 27,
      "creates": null,
      "raw": "0xf8ad8201068601190da535f4830493e094c4c51de1abf5d60dbd329ec0f999fd8f021ae9fc80b84403750d9400000000000000000000000087c5b5874a18b4306df8a752a6c8cc3e82dafc196b6b6b00000000000000000000000000000000000000000000000000000000001ba04b09c33017f7d3b55bb369e5f213d72e3f30a00e6bfcaa532509572f5b8906f7a07083288186093662d9fba71276f8022631d464787a6b350df1cf04471bad22a2",
      "networkId": 0,
      "chainId": 0
    }
  ]
}