{
  "hash": "0x7192c22ec72e1f0d89117cd8b2a086d6c312f28b61924747c2636fbe5a012455",
  "parentHash": "0xb1451915c20f786f783991f82d9bbf31f23d7a01bc34b1941c574d440df3ad5d",
  "number": 79712,
  "timestamp": 1439473982,
  "nonce": "0x8152abd654264f04",
  "difficulty": 2347236683001,
  "gasLimit": {
    "_hex": "0x2fefd8"
  },
  "gasUsed": {
    "_hex": "0x14e47"
  },
  "miner": "0xE87470b43FA5904a32866396B2f798D898c13978",
  "extraData": "0x",
  "transactions": [
    {
      "hash": "0xdba2e1b2f566604cb98c55a057e2bcb8ec81e60dc5eda3e658aa11aff5384afe",
      "blockHash": "0x7192c22ec72e1f0d89117cd8b2a086d6c312f28b61924747c2636fbe5a012455",
      "blockNumber": 79712,
      "transactionIndex": 0,
      "confirmations": null,
      "from": "0x87C5B5874A18B4306DF8a752a6C8cc3E82daFc19",
      "gasPrice": {
        "_hex": "0x110ce4013f8"
      },
      "gasLimit": {
        "_hex": "0x493e0"
      },
      "to": "0xC4c51de1AbF5D60DBd329eC0F999Fd8f021ae9fC",
      "value": {
        "_hex": "0x0"
      },
      "nonce": 97,
      "data": "0x03750d9400000000000000000000000087c5b5874a18b4306df8a752a6c8cc3e82dafc196361740000000000000000000000000000000000000000000000000000000000",
      "r": "0x7e79de3580ead6849f1800ca05b904ab35bf10b3580bc267f345b0624b781a84",
      "s": "0x2666be023ee6c5aad53600ed8fabdd9a1b551b4812b26e9a40ca62214cd46144",
      "v": 27,
      "creates": null,
      "raw": "0xf8ab61860110ce4013f8830493e094c4c51de1abf5d60dbd329ec0f999fd8f021ae9fc80b84403750d9400000000000000000000000087c5b5874a18b4306df8a752a6c8cc3e82dafc1963617400000000000000000000000000000000000000000000000000000000001ba07e79de3580ead6849f1800ca05b904ab35bf10b3580bc267f345b0624b781a84a02666be023ee6c5aad53600ed8fabdd9a1b551b4812b26e9a40ca62214cd46144",
      "networkId": 0,
      "chainId": 0
    },
    {
      "hash": "0xa9aeea2794d11a3abdeac5eae0e4c213b0e040835e564bdcc4f741c6f11650cf",
      "blockHash": "0x7192c22ec72e1f0d89117cd8b2a086d6c312f28b61924747c2636fbe5a012455",
      "blockNumber": 79712,
      "transactionIndex": 1,
      "confirmations": null,
      "from": "0x32Be343B94f860124dC4fEe278FDCBD38C102D88",
      "gasPrice": {
        "_hex": "0xd6beee93f"
      },
      "gasLimit": {
        "_hex": "0x5208"
      },
      "to": "0xD378eb142Ad654E0bd8296DafCc5c4874EC40445",
      "value": {
        "_hex": "0x53b8507afb972c000"
      },
      "nonce": 457,
      "data": "0x",
      "r": "0x5b7671f8edb2df44054876d1c446801aa930b804b7168fe1a9e4f8799cf7cc45",
      "s": "0x01f1393fe460b8c8b285b400392fa9aa30d67d18268228fbdb165a2fa1a5e0b1",
      "v": 27,
      "creates": null,
      "raw": "0xf86f8201c9850d6beee93f82520894d378eb142ad654e0bd8296dafcc5c4874ec4044589053b8507afb972c000801ba05b7671f8edb2df44054876d1c446801aa930b804b7168fe1a9e4f8799cf7cc45a001f1393fe460b8c8b285b400392fa9aa30d67d18268228fbdb165a2fa1a5e0b1",
      "networkId": 0,
      "chainId": 0
    },
    {
      "hash": "0x7a2bc1d868fa384185d98c0b32806b4e4b0048997e84ea6a1ead56c24bed767c",
      "blockHash": "0x7192c22ec72e1f0d89117cd8b2a086d6c312f28b61924747c2636fbe5a012455",
      "blockNumber": 79712,
      "transactionIndex": 2,
      "confirmations": null,
      "from": "0x32Be343B94f860124dC4fEe278FDCBD38C102D88",
      "gasPrice": {
        "_hex": "0xd6beee93f"
      },
      "gasLimit": {
        "_hex": "0x5208"
      },
      "to": "0x1BF5b1581819E4B545F5A57c246E5C96e27C876e",
      "value": {
        "_hex": "0xdd98985c0f1c000"
      },
      "nonce": 458,
      "data": "0x",
      "r": "0x58e2e4de89aa8f989e6660a83ee7c1b17c0e17c0ccd744925a4480587f0c9289",
      "s": "0x5715c0eec06e78f80c24cae9743b4e0a395237da081ff4af84a10e93fcbfd6d6",
      "v": 28,
      "creates": null,
      "raw": "0xf86e8201ca850d6beee93f825208941bf5b1581819e4b545f5a57c246e5c96e27c876e880dd98985c0f1c000801ca058e2e4de89aa8f989e6660a83ee7c1b17c0e17c0ccd744925a4480587f0c9289a05715c0eec06e78f80c24cae9743b4e0a395237da081ff4af84a10e93fcbfd6d6",
      "networkId": 0,
      "chainId": 0
    }
  ]
}