{
  "hash": "0x599f7a64f138947883568048e0442ef8bb7b4b9a4be7e57d4e9494571b9eeba9",
  "parentHash": "0xb1f5871b6c9a98ca2ac2a3b65a2c89705fb03e0940809a0ad86a045df8ec54b5",
  "number": 75498,
  "timestamp": 1439404454,
  "nonce": "0x536c307129ca5660",
  "difficulty": 2203979383693,
  "gasLimit": {
    "_hex": "0x2fefd8"
  },
  "gasUsed": {
    "_hex": "0x5208"
  },
  "miner": "0x06D138312754bDEB5c1175f47cE00620c480E9C9",
  "extraData": "0x476574682f76312e302e312f6c696e75782f676f312e342e32",
  "transactions": [
    {
      "hash": "0x496a6828740b424377e79c1977bab1dcf360914582d48a511a9953048fda7004",
      "blockHash": "0x599f7a64f138947883568048e0442ef8bb7b4b9a4be7e57d4e9494571b9eeba9",
      "blockNumber": 75498,
      "transactionIndex": 0,
      "confirmations": null,
      "from": "0x32Be343B94f860124dC4fEe278FDCBD38C102D88",
      "gasPrice": {
        "_hex": "0xd77f4c733"
      },
      "gasLimit": {
        "_hex": "0x5208"
      },
      "to": "0xC20b3638Bf021A5f01B7732C141963181DDF3366",
      "value": {
        "_hex": "0x6193e1183e87600000"
      },
      "nonce": 342,
      "data": "0x",
      "r": "0x47ba3b73a529f1cbd2e00358a2e7b3bf3ddb53f6e9a9d3a87721fdaa8589ff04",
      "s": "0x4dff957d365e75251865071936adf08bf9e638934335b0097298fbbf6849df63",
      "v": 28,
      "creates": null,
      "raw": "0xf86f820156850d77f4c73382520894c20b3638bf021a5f01b7732c141963181ddf3366896193e1183e87600000801ca047ba3b73a529f1cbd2e00358a2e7b3bf3ddb53f6e9a9d3a87721fdaa8589ff04a04dff957d365e75251865071936adf08bf9e638934335b0097298fbbf6849df63",
      "networkId": 0,
      "chainId": 0
    }
  ]
}