{
  "hash": "0x83603917975b730a33087f6e29d6aabd06aea9797615ba26c25d52c674708acb",
  "parentHash": "0xbf76c30a90f56beeb6a63401f9934bc7361a1dddccd8a7ebf2adc1fd3b3d9dd3",
  "number": 82415,
  "timestamp": 1439519008,
  "nonce": "0x2aff8a08e4c66d2a",
  "difficulty": 2372981078075,
  "gasLimit": {
    "_hex": "0x2fefd8"
  },
  "gasUsed": {
    "_hex": "0xa410"
  },
  "miner": "0xf8E0CA3Ed80bd541b94BEdCf259e8CF2141A9523",
  "extraData": "0x476574682f76312e302e312f77696e646f77732f676f312e342e32",
  "transactions": [
    {
      "hash": "0x695412633ee8e8a8fbe71d9e1f1e228af516648a0092cda25bf50b2e1475818b",
      "blockHash": "0x83603917975b730a33087f6e29d6aabd06aea9797615ba26c25d52c674708acb",
      "blockNumber": 82415,
      "transactionIndex": 0,
      "confirmations": null,
      "from": "0xF87481A262E993a75F791E7859E71BaC36A606Eb",
      "gasPrice": {
        "_hex": "0xd5fd14752"
      },
      "gasLimit": {
        "_hex": "0x5208"
      },
      "to": "0x32Be343B94f860124dC4fEe278FDCBD38C102D88",
      "value": {
        "_hex": "0xd55eb4787e7318000"
      },
      "nonce": 20,
      "data": "0x",
      "r": "0x80b77e255b54751e0d8ba2355cb426dee23eb08be25beee9d29e1bc9321b1903",
      "s": "0x6af0252f667f4561022581b9266bedd0e97cd0dbf082b77dcf67ff56c3ef3348",
      "v": 28,
      "creates": null,
      "raw": "0xf86d14850d5fd147528252089432be343b94f860124dc4fee278fdcbd38c102d88890d55eb4787e7318000801ca080b77e255b54751e0d8ba2355cb426dee23eb08be25beee9d29e1bc9321b1903a06af0252f667f4561022581b9266bedd0e97cd0dbf082b77dcf67ff56c3ef3348",
      "networkId": 0,
      "chainId": 0
    },
    {
      "hash": "0x4ae1e75344f7d209111044b3e8a05e91518c35f35c5ae319fa4892d0cc73cd7c",
      "blockHash": "0x83603917975b730a33087f6e29d6aabd06aea9797615ba26c25d52c674708acb",
      "blockNumber": 82415,
      "transactionIndex": 1,
      "confirmations": null,
      "from": "0x4c74B6F32c9680aCB5Fe0e72B7Aa95C612540A04",
      "gasPrice": {
        "_hex": "0xd5fd14752"
      },
      "gasLimit": {
        "_hex": "0x5208"
      },
      "to": "0x32Be343B94f860124dC4fEe278FDCBD38C102D88",
      "value": {
        "_hex": "0x11589f2763f739000"
      },
      "nonce": 24,
      "data": "0x",
      "r": "0x2b9bd7729b57d44606a9d61e9b870ea38e8eec8d938db035fcaa9b88465f6030",
      "s": "0x32c6de95de8509940372dabcf69255a7a9270f07f4d8f52fb33bf5c3b2d98612",
      "v": 28,
      "creates": null,
      "raw": "0xf86d18850d5fd147528252089432be343b94f860124dc4fee278fdcbd38c102d8889011589f2763f739000801ca02b9bd7729b57d44606a9d61e9b870ea38e8eec8d938db035fcaa9b88465f6030a032c6de95de8509940372dabcf69255a7a9270f07f4d8f52fb33bf5c3b2d98612",
      "networkId": 0,
      "chainId": 0
    }
  ]
}