{
  "hash": "0x96d8889c18bc4859488b0d1f9bb8b23dc027f5a287e46beef31ba831af7174ac",
  "parentHash": "0xb0138b29f3591d59879acb2968d96939020d05a354add3295f235489675e09fb",
  "number": 81136,
  "timestamp": 1439496742,
  "nonce": "0x196ffc13bebf0018",
  "difficulty": 2442709974568,
  "gasLimit": {
    "_hex": "0x2fefd8"
  },
  "gasUsed": {
    "_hex": "0x5208"
  },
  "miner": "0x580992B51e3925e23280EfB93d3047C82f17E038",
  "extraData": "0x476574682f76312e302e312f6c696e75782f676f312e342e32",
  "transactions": [
    {
      "hash": "0xcc1438e034c4f4f1159f3deb7afc99970986fa2fc28dfcc2bd727f19c2b6700a",
      "blockHash": "0x96d8889c18bc4859488b0d1f9bb8b23dc027f5a287e46beef31ba831af7174ac",
      "blockNumber": 81136,
      "transactionIndex": 0,
      "confirmations": null,
      "from": "0x3B4AF94C39e87281410A3B5Cf880b4a647459363",
      "gasPrice": {
        "_hex": "0xddc099ea4"
      },
      "gasLimit": {
        "_hex": "0x5208"
      },
      "to": "0x32Be343B94f860124dC4fEe278FDCBD38C102D88",
      "value": {
        "_hex": "0x3635b37962b48c0000"
      },
      "nonce": 6,
      "data": "0x",
      "r": "0xaa79bdadba8ad8a60c759db2364b8b08a564de6d89d7cdcc48f3836a9ab3f59b",
      "s": "0x5d1b346419949796ec1078fae49c6cb8cbf0d0f1518a7a9cd6c375c509924659",
      "v": 27,
      "creates": null,
      "raw": "0xf86d06850ddc099ea48252089432be343b94f860124dc4fee278fdcbd38c102d88893635b37962b48c0000801ba0aa79bdadba8ad8a60c759db2364b8b08a564de6d89d7cdcc48f3836a9ab3f59ba05d1b346419949796ec1078fae49c6cb8cbf0d0f1518a7a9cd6c375c509924659",
      "networkId": 0,
      "chainId": 0
    }
  ]
}