{
  "hash": "0xf9241e5c0a8ed7687df11c17ddf5d292f9f7091d2290e16e7874d903bd077e7e",
  "parentHash": "0x10718804b5da303e0bf53de79cdea1d2814756d18822a0df6dc171098d6a8306",
  "number": 56431,
  "timestamp": 1439087181,
  "nonce": "0x5dfe9a5e579cf294",
  "difficulty": 1656885809433,
  "gasLimit": {
    "_hex": "0x2fefd5"
  },
  "gasUsed": {
    "_hex": "0x5208"
  },
  "miner": "0xf927a40C8B7F6E07c5af7FA2155B4864a4112B13",
  "extraData": "0x",
  "transactions": [
    {
      "hash": "0x2555f2fcabb8efae88539daf0d51e5f978d96016917848eee5e747a8dd85f654",
      "blockHash": "0xf9241e5c0a8ed7687df11c17ddf5d292f9f7091d2290e16e7874d903bd077e7e",
      "blockNumber": 56431,
      "transactionIndex": 0,
      "confirmations": null,
      "from": "0x5E0693437283ee6d2c33e23dD536248D23C04Ce5",
      "gasPrice": {
        "_hex": "0xdc288fbe8"
      },
      "gasLimit": {
        "_hex": "0x5208"
      },
      "to": "0x32Be343B94f860124dC4fEe278FDCBD38C102D88",
      "value": {
        "_hex": "0x3635c54506be220000"
      },
      "nonce": 1,
      "data": "0x",
      "r": "0xb662e6d681139604b5f244663d1b697f3ff4c6aa4fcb95b6cccc8fcb8241d752",
      "s": "0x0a54dedd378d463c3f125893404181379cc3e768ccf0035434c33063090f9495",
      "v": 27,
      "creates": null,
      "raw": "0xf86d01850dc288fbe88252089432be343b94f860124dc4fee278fdcbd38c102d88893635c54506be220000801ba0b662e6d681139604b5f244663d1b697f3ff4c6aa4fcb95b6cccc8fcb8241d752a00a54dedd378d463c3f125893404181379cc3e768ccf0035434c33063090f9495",
      "networkId": 0,
      "chainId": 0
    }
  ]
}