{
  "hash": "0x20b20a79eb01116f9b60f797930f68a695ef921faa08e797ef185ee2fa69b89a",
  "parentHash": "0x6074f19689e1cc3d617ff103e7e0701f8bbef201b2e50b3e713169d222ee86f3",
  "number": 85166,
  "timestamp": 1439559402,
  "nonce": "0x1597a2f154e3bd8a",
  "difficulty": 2745093576230,
  "gasLimit": {
    "_hex": "0x2fefd8"
  },
  "gasUsed": {
    "_hex": "0x5208"
  },
  "miner": "0x01d9DA08cc6Fb97c0DE1B6F4C28910A0859Ed1A1",
  "extraData": "0x476574682f76312e302e312f6c696e75782f676f312e342e32",
  "transactions": [
    {
      "hash": "0x637ea38b3571765b7605a89d632cd9d80f40e791878e3ce30ce3e422b631e3eb",
      "blockHash": "0x20b20a79eb01116f9b60f797930f68a695ef921faa08e797ef185ee2fa69b89a",
      "blockNumber": 85166,
      "transactionIndex": 0,
      "confirmations": null,
      "from": "0x2910543Af39abA0Cd09dBb2D50200b3E800A63D2",
      "gasPrice": {
        "_hex": "0xd39177d44"
      },
      "gasLimit": {
        "_hex": "0x5208"
      },
      "to": "0xa6F56910adDd015F84617F1Bb1f8c9fDac02171b",
      "value": {
        "_hex": "0x29a582749c4e54a000"
      },
      "nonce": 592,
      "data": "0x",
      "r": "0x1a61cc564ac98ef07deab22444984aa1bdcfe4d9da503ab30677ca46f03f695f",
      "s": "0x678b12804bb5f6f652856528ef24c0999b6c903b827abca380abe0c7e539b757",
      "v": 28,
      "creates": null,
      "raw": "0xf86f820250850d39177d4482520894a6f56910addd015f84617f1bb1f8c9fdac02171b8929a582749c4e54a000801ca01a61cc564ac98ef07deab22444984aa1bdcfe4d9da503ab30677ca46f03f695fa0678b12804bb5f6f652856528ef24c0999b6c903b827abca380abe0c7e539b757",
      "networkId": 0,
      "chainId": 0
    }
  ]
}