{
  "hash": "0xe35bf640093a53327ec2dc578e8d9691ec48f33000f099b75c60fffed510ce43",
  "parentHash": "0xf623e20937e907207c0304e1619627620ba20be6bf19742e09b9987bc462ff5d",
  "number": 96775,
  "timestamp": 1439745472,
  "nonce": "0x53a7e72163e42937",
  "difficulty": 3767088350268,
  "gasLimit": {
    "_hex": "0x2fefd8"
  },
  "gasUsed": {
    "_hex": "0x14820"
  },
  "miner": "0xA1623430350C5df1b52B0b57483A5bb45d1796Da",
  "extraData": "0x476574682f76312e302e312d38326566323666362f6c696e75782f676f312e34",
  "transactions": [
    {
      "hash": "0xfb7e48ca04368e1031d88d8f0606f3acf1f3497d6c9706a8b252ba7d2d981488",
      "blockHash": "0xe35bf640093a53327ec2dc578e8d9691ec48f33000f099b75c60fffed510ce43",
      "blockNumber": 96775,
      "transactionIndex": 0,
      "confirmations": null,
      "from": "0xa70a9a7040d542C632D8e0bE7c5513A8a5Bbc752",
      "gasPrice": {
        "_hex": "0xd1d2cb51e"
      },
      "gasLimit": {
        "_hex": "0x5208"
      },
      "to": "0x32Be343B94f860124dC4fEe278FDCBD38C102D88",
      "value": {
        "_hex": "0x45b95220c4a3d000"
      },
      "nonce": 167,
      "data": "0x",
      "r": "0xdfa21305febf516d2afcbf112e5c0493f0839bd9867827abb1fca34f7b120494",
      "s": "0x5061051cd6e479464f790fb31f5825217a3a86996ffb21eb6dd2d35880f2bb1e",
      "v": 27,
      "creates": null,
      "raw": "0xf86d81a7850d1d2cb51e8252089432be343b94f860124dc4fee278fdcbd38c102d888845b95220c4a3d000801ba0dfa21305febf516d2afcbf112e5c0493f0839bd9867827abb1fca34f7b120494a05061051cd6e479464f790fb31f5825217a3a86996ffb21eb6dd2d35880f2bb1e",
      "networkId": 0,
      "chainId": 0
    },
    {
      "hash": "0xcc591ecb01813c3e3c6b6c1a23d88a82ca71a9c1c597c5801d508c002ae478ef",
      "blockHash": "0xe35bf640093a53327ec2dc578e8d9691ec48f33000f099b75c60fffed510ce43",
      "blockNumber": 96775,
      "transactionIndex": 1,
      "confirmations": null,
      "from": "0x09D6b0F8DE057aC9116C0f321eA4017444de0801",
      "gasPrice": {
        "_hex": "0xd1d2cb51e"
      },
      "gasLimit": {
        "_hex": "0x5208"
      },
      "to": "0x32Be343B94f860124dC4fEe278FDCBD38C102D88",
      "value": {
        "_hex": "0x5b6b6a61d640fc0000"
      },
      "nonce": 6,
      "data": "0x",
      "r": "0x4f0857fd6499e7e9dc7d2207383d8f9a1f441607daf3c691ef6fce2e7f7a4fb2",
      "s": "0x34af5e8337fbfac52c51beee346c6bd9ea7bdc552e364ba7d2ba5c2a5943175d",
      "v": 28,
      "creates": null,
      "raw": "0xf86d06850d1d2cb51e8252089432be343b94f860124dc4fee278fdcbd38c102d88895b6b6a61d640fc0000801ca04f0857fd6499e7e9dc7d2207383d8f9a1f441607daf3c691ef6fce2e7f7a4fb2a034af5e8337fbfac52c51beee346c6bd9ea7bdc552e364ba7d2ba5c2a5943175d",
      "networkId": 0,
      "chainId": 0
    },
    {
      "hash": "0x2941ca370f34c37b8ce0f649010fdb283a7ea4d4bdc1a77a73c22279a6b7b647",
      "blockHash": "0xe35bf640093a53327ec2dc578e8d9691ec48f33000f099b75c60fffed510ce43",
      "blockNumber": 96775,
      "transactionIndex": 2,
      "confirmations": null,
      "from": "0x2dfA6c0e7A0C06592BEADeEDb71dc959E98fdE6C",
      "gasPrice": {
        "_hex": "0xd1d2cb51e"
      },
      "gasLimit": {
        "_hex": "0x5208"
      },
      "to": "0x32Be343B94f860124dC4fEe278FDCBD38C102D88",
      "value": {
        "_hex": "0x377ea70c33acfc00"
      },
      "nonce": 0,
      "data": "0x",
      "r": "0x2f03195f31a044ef8c3e7748bfa16b341dd079c7072b41d6ec0ac0413126c63d",
      "s": "0x19dc135d5593cbb366b41544b812d26d2ee87bf1809db9b1dbbe1d4519f0b494",
      "v": 27,
      "creates": null,
      "raw": "0xf86c80850d1d2cb51e8252089432be343b94f860124dc4fee278fdcbd38c102d8888377ea70c33acfc00801ba02f03195f31a044ef8c3e7748bfa16b341dd079c7072b41d6ec0ac0413126c63da019dc135d5593cbb366b41544b812d26d2ee87bf1809db9b1dbbe1d4519f0b494",
      "networkId": 0,
      "chainId": 0
    },
    {
      "hash": "0x2c7e7d99a2393131e7ad2fd9983ab5a34d26236a8b61e7722e25ac69aa362778",
      "blockHash": "0xe35bf640093a53327ec2dc578e8d9691ec48f33000f099b75c60fffed510ce43",
      "blockNumber": 96775,
      "transactionIndex": 3,
      "confirmations": null,
      "from": "0x4D67f4F0Db45b3B5a3424B39ed8d972F710381D5",
      "gasPrice": {
        "_hex": "0xd1d2cb51e"
      },
      "gasLimit": {
        "_hex": "0x5208"
      },
      "to": "0x32Be343B94f860124dC4fEe278FDCBD38C102D88",
      "value": {
        "_hex": "0x2ebff10aa87ab0000"
      },
      "nonce": 12,
      "data": "0x",
      "r": "0xd5fd86f8bb0e05665c6ec0f46cb090f96872d3749831d0428c2cf9853c45d686",
      "s": "0x15ce18709d67698eb7f0442de252d05df8a6885c7eb606a2d4647cfc237ba38d",
      "v": 27,
      "creates": null,
      "raw": "0xf86d0c850d1d2cb51e8252089432be343b94f860124dc4fee278fdcbd38c102d888902ebff10aa87ab0000801ba0d5fd86f8bb0e05665c6ec0f46cb090f96872d3749831d0428c2cf9853c45d686a015ce18709d67698eb7f0442de252d05df8a6885c7eb606a2d4647cfc237ba38d",
      "networkId": 0,
      "chainId": 0
    }
  ]
}