{
  "hash": "0x798bedceabedf773d7bf376e5a5192ebd608c289b173ac1001c33ae9ac8542ef",
  "parentHash": "0x5c4bd2152aca4129183c5131939cb13d796d4cb54cb39c2d7775d0868b26bbae",
  "number": 115330,
  "timestamp": 1440055351,
  "nonce": "0x86979b5163c75e7a",
  "difficulty": 4558353859336,
  "gasLimit": {
    "_hex": "0x2fefd8"
  },
  "gasUsed": {
    "_hex": "0x19a28"
  },
  "miner": "0xe6A7a1d47ff21B6321162AEA7C6CB457D5476Bca",
  "extraData": "0x476574682f76312e302e312d38326566323666362f6c696e75782f676f312e34",
  "transactions": [
    {
      "hash": "0xe19704f26ca2233d591cce00165e23f33d5949f8d566d3c0bcb3338a53d4cb0e",
      "blockHash": "0x798bedceabedf773d7bf376e5a5192ebd608c289b173ac1001c33ae9ac8542ef",
      "blockNumber": 115330,
      "transactionIndex": 0,
      "confirmations": null,
      "from": "0x526384ca4cF099ECa3f719e8ac32dEf6eaDB1E80",
      "gasPrice": {
        "_hex": "0x746a528800"
      },
      "gasLimit": {
        "_hex": "0x5208"
      },
      "to": "0x40B9b889A21Ff1534d018D71Dc406122EBcf3F5A",
      "value": {
        "_hex": "0xde0b6b3a7640000"
      },
      "nonce": 2,
      "data": "0x",
      "r": "0xad688467a97a6e8c21b15e39422f69a978fbe1dab482c6f1f725f008b7b0b02a",
      "s": "0x195af6d3432b26ecda09c501cd4aadc9823cae0c1771584f0f5ef29289a42eb1",
      "v": 28,
      "creates": null,
      "raw": "0xf86c0285746a5288008252089440b9b889a21ff1534d018d71dc406122ebcf3f5a880de0b6b3a7640000801ca0ad688467a97a6e8c21b15e39422f69a978fbe1dab482c6f1f725f008b7b0b02aa0195af6d3432b26ecda09c501cd4aadc9823cae0c1771584f0f5ef29289a42eb1",
      "networkId": 0,
      "chainId": 0
    },
    {
      "hash": "0x82284c225dc24ca121ae613b7f62c23fcd626cece730be702da17dfbecea0601",
      "blockHash": "0x798bedceabedf773d7bf376e5a5192ebd608c289b173ac1001c33ae9ac8542ef",
      "blockNumber": 115330,
      "transactionIndex": 1,
      "confirmations": null,
      "from": "0x267069452478cA39b3f5F1A4fFdD4131f50Bc977",
      "gasPrice": {
        "_hex": "0xcd6170323"
      },
      "gasLimit": {
        "_hex": "0x5208"
      },
      "to": "0x32Be343B94f860124dC4fEe278FDCBD38C102D88",
      "value": {
        "_hex": "0xfab3a9e70505d800"
      },
      "nonce": 12,
      "data": "0x",
      "r": "0x0ef3f5158db9f4a366da60f1e9cdbd595a3386991107eadb38a9da6fe2271c2f",
      "s": "0x122e0d6d9f65a060d0bdc1eaa284811c23cffd9b1d0110f83b1e19937bd26f10",
      "v": 27,
      "creates": null,
      "raw": "0xf86c0c850cd61703238252089432be343b94f860124dc4fee278fdcbd38c102d8888fab3a9e70505d800801ba00ef3f5158db9f4a366da60f1e9cdbd595a3386991107eadb38a9da6fe2271c2fa0122e0d6d9f65a060d0bdc1eaa284811c23cffd9b1d0110f83b1e19937bd26f10",
      "networkId": 0,
      "chainId": 0
    },
    {
      "hash": "0xab519e132a8f61231ac35373fd4c4ec1a98bffa7c0751c0b173b4b2e3060a940",
      "blockHash": "0x798bedceabedf773d7bf376e5a5192ebd608c289b173ac1001c33ae9ac8542ef",
      "blockNumber": 115330,
      "transactionIndex": 2,
      "confirmations": null,
      "from": "0xa114c802ef29776f05f9c6925cE915232e8ae102",
      "gasPrice": {
        "_hex": "0xcd6170323"
      },
      "gasLimit": {
        "_hex": "0x5208"
      },
      "to": "0x32Be343B94f860124dC4fEe278FDCBD38C102D88",
      "value": {
        "_hex": "0x110170b1a36f7b000"
      },
      "nonce": 26,
      "data": "0x",
      "r": "0x8aa5c725f95f0083a25e11a3488ada44067a75192693d81ebf244ddc93ed6cb2",
      "s": "0x2307a5b8968a9e942f1d5a2d571b5459c20ffe3aa986d8010c09fa322b20ccca",
      "v": 28,
      "creates": null,
      "raw": "0xf86d1a850cd61703238252089432be343b94f860124dc4fee278fdcbd38c102d88890110170b1a36f7b000801ca08aa5c725f95f0083a25e11a3488ada44067a75192693d81ebf244ddc93ed6cb2a02307a5b8968a9e942f1d5a2d571b5459c20ffe3aa986d8010c09fa322b20ccca",
      "networkId": 0,
      "chainId": 0
    },
    {
      "hash": "0x57837f91a858add3a4f18f1508790e9e9523242d88a29167950a089ecb65a5ba",
      "blockHash": "0x798bedceabedf773d7bf376e5a5192ebd608c289b173ac1001c33ae9ac8542ef",
      "blockNumber": 115330,
      "transactionIndex": 3,
      "confirmations": null,
      "from": "0x52191276589069F70F0E46bcCc718d793d1Aa1D0",
      "gasPrice": {
        "_hex": "0xcd6170323"
      },
      "gasLimit": {
        "_hex": "0x5208"
      },
      "to": "0x32Be343B94f860124dC4fEe278FDCBD38C102D88",
      "value": {
        "_hex": "0x112b4f39fd50e3000"
      },
      "nonce": 16,
      "data": "0x",
      "r": "0x1fd796d55e2eb1145b4a2cb4494e37c91dda254d49422a00845e88368ef6fc00",
      "s": "0x072403cf09298fdb6197183bd744fdff97ac4f266e8918fe6f1dc4d2529b723e",
      "v": 27,
      "creates": null,
      "raw": "0xf86d10850cd61703238252089432be343b94f860124dc4fee278fdcbd38c102d88890112b4f39fd50e3000801ba01fd796d55e2eb1145b4a2cb4494e37c91dda254d49422a00845e88368ef6fc00a0072403cf09298fdb6197183bd744fdff97ac4f266e8918fe6f1dc4d2529b723e",
      "networkId": 0,
      "chainId": 0
    },
    {
      "hash": "0x83e0d7eb69bbf6cf0e4d9159c48b86d5e945c9cefe3a8f77a89e242bcef2541a",
      "blockHash": "0x798bedceabedf773d7bf376e5a5192ebd608c289b173ac1001c33ae9ac8542ef",
      "blockNumber": 115330,
      "transactionIndex": 4,
      "confirmations": null,
      "from": "0x0912001e29BbaF75C23069A22D9B9602BE86FEB7",
      "gasPrice": {
        "_hex": "0xcd6170323"
      },
      "gasLimit": {
        "_hex": "0x5208"
      },
      "to": "0x32Be343B94f860124dC4fEe278FDCBD38C102D88",
      "value": {
        "_hex": "0x66e7f6376b70cc000"
      },
      "nonce": 9,
      "data": "0x",
      "r": "0xa78fea35a09e8f99b19dde0dce42c4d93138fb0ce814d5de283bbe29b5089406",
      "s": "0x4b46645851b8664ef44181460462dc90956aba20689e4d12e2b146b22bba51bc",
      "v": 27,
      "creates": null,
      "raw": "0xf86d09850cd61703238252089432be343b94f860124dc4fee278fdcbd38c102d8889066e7f6376b70cc000801ba0a78fea35a09e8f99b19dde0dce42c4d93138fb0ce814d5de283bbe29b5089406a04b46645851b8664ef44181460462dc90956aba20689e4d12e2b146b22bba51bc",
      "networkId": 0,
      "chainId": 0
    }
  ]
}