{
  "hash": "0x604a55bcaea6646dd5f79a0eec84e32e70ce271923c589e0059e7abd569a8310",
  "parentHash": "0x03b1459186e73de1f16d26ef8d1e16bcbc110c0676cb366444574c3f91a203e1",
  "number": 74355,
  "timestamp": 1439384768,
  "nonce": "0x503fb48688ccd4b9",
  "difficulty": 2213987802559,
  "gasLimit": {
    "_hex": "0x2fefd8"
  },
  "gasUsed": {
    "_hex": "0x5208"
  },
  "miner": "0xbb7B8287f3F0a933474a79eAe42CBCa977791171",
  "extraData": "0x476574682f4c5649562f76312e302e312f6c696e75782f676f312e342e32",
  "transactions": [
    {
      "hash": "0xc8240683ea6137afdc2c22ac7936c7893249a091ae4c930591d53a8c4fb38a42",
      "blockHash": "0x604a55bcaea6646dd5f79a0eec84e32e70ce271923c589e0059e7abd569a8310",
      "blockNumber": 74355,
      "transactionIndex": 0,
      "confirmations": null,
      "from": "0xc2E9e042B88164B5408bd895Df7DdaD491c6321E",
      "gasPrice": {
        "_hex": "0xce179c07d"
      },
      "gasLimit": {
        "_hex": "0x15f90"
      },
      "to": "0xa114c802ef29776f05f9c6925cE915232e8ae102",
      "value": {
        "_hex": "0x4563918244f40000"
      },
      "nonce": 7,
      "data": "0x",
      "r": "0x1e5239a1bf247f40fa1ef1f05ef092743df5d8257f093ea4e0e2b4d2429a3c58",
      "s": "0x39045e0a0c00d6846c74c7a4806916bba14ccc1f28d0601e307af17a634201b2",
      "v": 27,
      "creates": null,
      "raw": "0xf86d07850ce179c07d83015f9094a114c802ef29776f05f9c6925ce915232e8ae102884563918244f40000801ba01e5239a1bf247f40fa1ef1f05ef092743df5d8257f093ea4e0e2b4d2429a3c58a039045e0a0c00d6846c74c7a4806916bba14ccc1f28d0601e307af17a634201b2",
      "networkId": 0,
      "chainId": 0
    }
  ]
}