{
  "hash": "0xdf416afc61375283604cb7c30220e136ca8d45ddcdbb7e83503455c30e3950e6",
  "parentHash": "0x059a55a41bf615fb2abb3576af847a713d8eb02735cf0f0ec02755af4fbb744f",
  "number": 115567,
  "timestamp": 1440059405,
  "nonce": "0x84d74348799899ab",
  "difficulty": 4609704612731,
  "gasLimit": {
    "_hex": "0x2fefd8"
  },
  "gasUsed": {
    "_hex": "0x5208"
  },
  "miner": "0xb6E2d440C46510EC44266A3f58165E3956173df0",
  "extraData": "0x476574682f76312e302e312f77696e646f77732f676f312e342e32",
  "transactions": [
    {
      "hash": "0xace5195fdc50d85f34bdee6f2a8abbb47f74394f85cfc7b5f68b793c0ece0eae",
      "blockHash": "0xdf416afc61375283604cb7c30220e136ca8d45ddcdbb7e83503455c30e3950e6",
      "blockNumber": 115567,
      "transactionIndex": 0,
      "confirmations": null,
      "from": "0x31191beEB5a3d7f5eBC5B193e98bd15ce10Eb249",
      "gasPrice": {
        "_hex": "0xd661333a4"
      },
      "gasLimit": {
        "_hex": "0x5208"
      },
      "to": "0x32Be343B94f860124dC4fEe278FDCBD38C102D88",
      "value": {
        "_hex": "0x26d74e0cb9eddc00"
      },
      "nonce": 2,
      "data": "0x",
      "r": "0x0fc9349216ae3b3240e8cf86b5055d0b9d4a4042c038da1beacd9c59cd43f625",
      "s": "0x7632156e79ff40a6f04f3a38747d2ffe10a9d7353a0b4a421ec3812a5230ca3c",
      "v": 28,
      "creates": null,
      "raw": "0xf86c02850d661333a48252089432be343b94f860124dc4fee278fdcbd38c102d888826d74e0cb9eddc00801ca00fc9349216ae3b3240e8cf86b5055d0b9d4a4042c038da1beacd9c59cd43f625a07632156e79ff40a6f04f3a38747d2ffe10a9d7353a0b4a421ec3812a5230ca3c",
      "networkId": 0,
      "chainId": 0
    }
  ]
}