{
  "hash": "0x057bb4c73879e85da53e310b7d33c598a4e7ab3a17f4a6ef5355f76c597e4cb4",
  "parentHash": "0x2cff7113988ec1668b9f219ecbf75d1563519aed000f3b6c0f446842c077d6c4",
  "number": 48751,
  "timestamp": 1438962377,
  "nonce": "0xe3219e3b0a58d92a",
  "difficulty": 1475014529466,
  "gasLimit": {
    "_hex": "0x1d7fb"
  },
  "gasUsed": {
    "_hex": "0x5208"
  },
  "miner": "0xbb7B8287f3F0a933474a79eAe42CBCa977791171",
  "extraData": "0x476574682f4c5649562f76312e302e312f6c696e75782f676f312e342e32",
  "transactions": [
    {
      "hash": "0xedce5a118c89121b4d12b9c4c6fd2c28153661efd3af7e3adc4b9b52e785206b",
      "blockHash": "0x057bb4c73879e85da53e310b7d33c598a4e7ab3a17f4a6ef5355f76c597e4cb4",
      "blockNumber": 48751,
      "transactionIndex": 0,
      "confirmations": null,
      "from": "0xd43630311cCE705Cb1d69EA014F64b34BeF443d1",
      "gasPrice": {
        "_hex": "0xd2011a2c2"
      },
      "gasLimit": {
        "_hex": "0x5208"
      },
      "to": "0x32Be343B94f860124dC4fEe278FDCBD38C102D88",
      "value": {
        "_hex": "0xd8d6fefb7778280000"
      },
      "nonce": 2,
      "data": "0x",
      "r": "0x0283fc0902265476aea473d6c77e14bf90cbbbda829400c0f31bcd776bc76498",
      "s": "0x27d22a5bab7157b60b6be462207fcc841625d79ef7bf57df5c711309d4301cbc",
      "v": 28,
      "creates": null,
      "raw": "0xf86d02850d2011a2c28252089432be343b94f860124dc4fee278fdcbd38c102d8889d8d6fefb7778280000801ca00283fc0902265476aea473d6c77e14bf90cbbbda829400c0f31bcd776bc76498a027d22a5bab7157b60b6be462207fcc841625d79ef7bf57df5c711309d4301cbc",
      "networkId": 0,
      "chainId": 0
    }
  ]
}