{
  "hash": "0xc8982c0b8692b3d894d2beb5853cacaf97c08788182c3fd345d3cbddc6e74a7c",
  "parentHash": "0xbd733b1fc03914888c68c34cded2b8aa178fec35bc2141f07c74018a4955b384",
  "number": 72859,
  "timestamp": 1439359297,
  "nonce": "0x50301ecc5610e2a2",
  "difficulty": 2190722665862,
  "gasLimit": {
    "_hex": "0x2fefd8"
  },
  "gasUsed": {
    "_hex": "0x5498"
  },
  "miner": "0xe6A7a1d47ff21B6321162AEA7C6CB457D5476Bca",
  "extraData": "0x476574682f76312e302e312d38326566323666362f6c696e75782f676f312e34",
  "transactions": [
    {
      "hash": "0xf0e7a63917cabfb34589203cf081c5972a2177f22f0819cbca782bd80e4a003c",
      "blockHash": "0xc8982c0b8692b3d894d2beb5853cacaf97c08788182c3fd345d3cbddc6e74a7c",
      "blockNumber": 72859,
      "transactionIndex": 0,
      "confirmations": null,
      "from": "0xE30fBFf0F73d76643501B77772aBc74377dacE64",
      "gasPrice": {
        "_hex": "0xd7826cfac"
      },
      "gasLimit": {
        "_hex": "0x15f90"
      },
      "to": "0x0000000000000000000000000000000000000000",
      "value": {
        "_hex": "0x0"
      },
      "nonce": 0,
      "data": "0x432ced047065706500000000000000000000000000000000000000000000000000000000",
      "r": "0x7781968566173f0db2d9f45fb7c69ca08dbbcf65a1c1eb5944028dceb9f53ce1",
      "s": "0x23899bc1873849efd3c02d1c4199d8f7294711b14c589ce0eddd1abbf153e39d",
      "v": 27,
      "creates": null,
      "raw": "0xf88980850d7826cfac83015f9094000000000000000000000000000000000000000080a4432ced0470657065000000000000000000000000000000000000000000000000000000001ba07781968566173f0db2d9f45fb7c69ca08dbbcf65a1c1eb5944028dceb9f53ce1a023899bc1873849efd3c02d1c4199d8f7294711b14c589ce0eddd1abbf153e39d",
      "networkId": 0,
      "chainId": 0
    }
  ]
}