{
  "hash": "0x8d9cc051f168cf6de11204dc40483635717d33eda2507a14ea4483f0981fd3cb",
  "parentHash": "0xe9b6e4ed456bcc94b8f266fcc813dd73f340229a55cb1a46e647fbe85c227467",
  "number": 66828,
  "timestamp": 1439260912,
  "nonce": "0x715fc71c4154c01a",
  "difficulty": 1952728762421,
  "gasLimit": {
    "_hex": "0x2fefd8"
  },
  "gasUsed": {
    "_hex": "0x5208"
  },
  "miner": "0xB1F9FAAfe5f917d92EBf5b21C25dC77c2CF86000",
  "extraData": "0x476574682f76312e302e312f77696e646f77732f676f312e342e32",
  "transactions": [
    {
      "hash": "0x14f842eebcee5170c7450d3e2d0c50b996f526255b16325ee4e1c3b6429050e3",
      "blockHash": "0x8d9cc051f168cf6de11204dc40483635717d33eda2507a14ea4483f0981fd3cb",
      "blockNumber": 66828,
      "transactionIndex": 0,
      "confirmations": null,
      "from": "0xF7e66D2622220807d8696064E94ca24b1dC6e7Da",
      "gasPrice": {
        "_hex": "0xccd555fb2"
      },
      "gasLimit": {
        "_hex": "0x5208"
      },
      "to": "0x32Be343B94f860124dC4fEe278FDCBD38C102D88",
      "value": {
        "_hex": "0x8ac308d7a6ad5000"
      },
      "nonce": 4,
      "data": "0x",
      "r": "0x464903e91e16134c4adba1ab047666b9787d0ea81875ef23da777dec0f1855a5",
      "s": "0x0de95e29e53a8e41bc6283110eac2624cba6db5f4c6087298138fc8477f3d7b4",
      "v": 27,
      "creates": null,
      "raw": "0xf86c04850ccd555fb28252089432be343b94f860124dc4fee278fdcbd38c102d88888ac308d7a6ad5000801ba0464903e91e16134c4adba1ab047666b9787d0ea81875ef23da777dec0f1855a5a00de95e29e53a8e41bc6283110eac2624cba6db5f4c6087298138fc8477f3d7b4",
      "networkId": 0,
      "chainId": 0
    }
  ]
}