{
  "hash": "0xa5992140d52beba4b842157d730a971389a5d4a8724f4fe07e918197fa8c06db",
  "parentHash": "0x9d92534507f166fe752c311b57095902d8aee2d65b1b0008ffbe6f200ddec373",
  "number": 111510,
  "timestamp": 1439991501,
  "nonce": "0x39f906aee8ad17ca",
  "difficulty": 4441755816939,
  "gasLimit": {
    "_hex": "0x2fefd8"
  },
  "gasUsed": {
    "_hex": "0x5208"
  },
  "miner": "0xe6A7a1d47ff21B6321162AEA7C6CB457D5476Bca",
  "extraData": "0x476574682f76312e302e312d38326566323666362f6c696e75782f676f312e34",
  "transactions": [
    {
      "hash": "0xd154f52eafe961e8738e3901e68c03ddedbe778a1a3a29b372c75b95ba3a0bca",
      "blockHash": "0xa5992140d52beba4b842157d730a971389a5d4a8724f4fe07e918197fa8c06db",
      "blockNumber": 111510,
      "transactionIndex": 0,
      "confirmations": null,
      "from": "0x656Ed7fF71A6cFf2CF368297896634F9E6955e0a",
      "gasPrice": {
        "_hex": "0xd05cec8dd"
      },
      "gasLimit": {
        "_hex": "0x5208"
      },
      "to": "0x32Be343B94f860124dC4fEe278FDCBD38C102D88",
      "value": {
        "_hex": "0x1b1ae4941eb11600000"
      },
      "nonce": 5,
      "data": "0x",
      "r": "0x6af44e449849b6936bd969519f2351ec60638e877f21884cf830c01556deaea2",
      "s": "0x609b971818e7002c39f2f9b5c48c148d4c89638758c5930640a6aa3d9453860c",
      "v": 28,
      "creates": null,
      "raw": "0xf86e05850d05cec8dd8252089432be343b94f860124dc4fee278fdcbd38c102d888a01b1ae4941eb11600000801ca06af44e449849b6936bd969519f2351ec60638e877f21884cf830c01556deaea2a0609b971818e7002c39f2f9b5c48c148d4c89638758c5930640a6aa3d9453860c",
      "networkId": 0,
      "chainId": 0
    }
  ]
}