{
  "hash": "0xb2789c43a71267775b91eac9b1fd40d9dc1893e521d05b83f5a64ba9d892213f",
  "parentHash": "0x5bd60e3aa5218f153daf1d3a9b3705f75a48eb04ea3c228ff582cbd537b2e13a",
  "number": 69996,
  "timestamp": 1439313185,
  "nonce": "0x562ae7017ca96f0d",
  "difficulty": 2108545868899,
  "gasLimit": {
    "_hex": "0x2fefd5"
  },
  "gasUsed": {
    "_hex": "0x5208"
  },
  "miner": "0xBD744E3F13D79B33F6c8E1d5E32F8E9BA2866c46",
  "extraData": "0x476574682f76312e302e312d39613032663533372f6c696e75782f676f312e34",
  "transactions": [
    {
      "hash": "0xe227c6fad38882781ec6c1862f578d174e0143c1c3e76d3e73ae867ee09bf887",
      "blockHash": "0xb2789c43a71267775b91eac9b1fd40d9dc1893e521d05b83f5a64ba9d892213f",
      "blockNumber": 69996,
      "transactionIndex": 0,
      "confirmations": null,
      "from": "0xdEA7D66bec3A818126Eb817A7A0012f64251d039",
      "gasPrice": {
        "_hex": "0xd434e204c"
      },
      "gasLimit": {
        "_hex": "0x5208"
      },
      "to": "0x32Be343B94f860124dC4fEe278FDCBD38C102D88",
      "value": {
        "_hex": "0x2086a7f516fe1c0000"
      },
      "nonce": 1,
      "data": "0x",
      "r": "0x39f01dcb6d2901af1c13efe21973d0105695b7091a3d5bace42d526453b54690",
      "s": "0x2c4e6061a3b18993d9e510fdba6b9c56bb6d054a5b8e4b969ed18f4d38bb2460",
      "v": 28,
      "creates": null,
      "raw": "0xf86d01850d434e204c8252089432be343b94f860124dc4fee278fdcbd38c102d88892086a7f516fe1c0000801ca039f01dcb6d2901af1c13efe21973d0105695b7091a3d5bace42d526453b54690a02c4e6061a3b18993d9e510fdba6b9c56bb6d054a5b8e4b969ed18f4d38bb2460",
      "networkId": 0,
      "chainId": 0
    }
  ]
}