{
  "hash": "0xdcf635b44a7790d3be3e9aa8ee5bd66a66b6c2568337806df9327d45dcac0721",
  "parentHash": "0xd2fee699c7356ba1a34212c7064605439bad2a750732ccd72e9fed6303ba619d",
  "number": 103122,
  "timestamp": 1439847924,
  "nonce": "0x8312af90899b6ecf",
  "difficulty": 4193165447905,
  "gasLimit": {
    "_hex": "0x2fefd8"
  },
  "gasUsed": {
    "_hex": "0xa410"
  },
  "miner": "0x7813b43093D32CbeD2132ebd334bd7F9811E8309",
  "extraData": "0xd983010001844765746887676f312e342e328777696e646f7773",
  "transactions": [
    {
      "hash": "0x293612d5583d19c51260421923915db61b89ba3255820a5ad0845c55e857b1ff",
      "blockHash": "0xdcf635b44a7790d3be3e9aa8ee5bd66a66b6c2568337806df9327d45dcac0721",
      "blockNumber": 103122,
      "transactionIndex": 0,
      "confirmations": null,
      "from": "0x8e33bFA30c0c6eb3652321FF52E2fB3143fa51BF",
      "gasPrice": {
        "_hex": "0xd60340b78"
      },
      "gasLimit": {
        "_hex": "0x15f90"
      },
      "to": "0xbcc72eA5bC902a76b1A86a7B02Dc73fe8055D1C7",
      "value": {
        "_hex": "0x16345785d8a0000"
      },
      "nonce": 0,
      "data": "0x",
      "r": "0x816d0160bd3a11d0342451fab81e085fb9c6f3e5a76e2668797892b2fdc35a3d",
      "s": "0x337a5ff7b18ffb5646d5e8ea45592f3d922d722784ad2d34d11e58d8c412659d",
      "v": 27,
      "creates": null,
      "raw": "0xf86d80850d60340b7883015f9094bcc72ea5bc902a76b1a86a7b02dc73fe8055d1c788016345785d8a0000801ba0816d0160bd3a11d0342451fab81e085fb9c6f3e5a76e2668797892b2fdc35a3da0337a5ff7b18ffb5646d5e8ea45592f3d922d722784ad2d34d11e58d8c412659d",
      "networkId": 0,
      "chainId": 0
    },
    {
      "hash": "0x20c95b52d47c362489c6b526634cffa710320853535e87b5a7d35b5100c132da",
      "blockHash": "0xdcf635b44a7790d3be3e9aa8ee5bd66a66b6c2568337806df9327d45dcac0721",
      "blockNumber": 103122,
      "transactionIndex": 1,
      "confirmations": null,
      "from": "0xB0bF4A71F730782368Ef660FE6D298F432F95450",
      "gasPrice": {
        "_hex": "0xd109a6e18"
      },
      "gasLimit": {
        "_hex": "0x5208"
      },
      "to": "0x32Be343B94f860124dC4fEe278FDCBD38C102D88",
      "value": {
        "_hex": "0xad78a8c9fccd08000"
      },
      "nonce": 30,
      "data": "0x",
      "r": "0x8a1d5384831f7848a142ea80f2a974fae60f192d1d213ba91ccfbfe5b8c9875e",
      "s": "0x0c9691fa56d66022122769e5f84a9fc6d0a03a8b8293ccdda2a26ba4822656b6",
      "v": 28,
      "creates": null,
      "raw": "0xf86d1e850d109a6e188252089432be343b94f860124dc4fee278fdcbd38c102d88890ad78a8c9fccd08000801ca08a1d5384831f7848a142ea80f2a974fae60f192d1d213ba91ccfbfe5b8c9875ea00c9691fa56d66022122769e5f84a9fc6d0a03a8b8293ccdda2a26ba4822656b6",
      "networkId": 0,
      "chainId": 0
    }
  ]
}