{
  "hash": "0xb249855211b3f4983a77258721736f97004ef35b93fd08ba25ffba1655496a58",
  "parentHash": "0xd976189714d35fd9f5f0ef473714f1a02d7bcf18ca7bd38281f67421468a41c9",
  "number": 84301,
  "timestamp": 1439547776,
  "nonce": "0xcaaca94dd6463823",
  "difficulty": 2535341723389,
  "gasLimit": {
    "_hex": "0x2fefd8"
  },
  "gasUsed": {
    "_hex": "0x5208"
  },
  "miner": "0xa70a9a7040d542C632D8e0bE7c5513A8a5Bbc752",
  "extraData": "0x",
  "transactions": [
    {
      "hash": "0xa4dba3930feb5bd5b723601a42249455ca583ce83285f07f7d052f3fb54bea44",
      "blockHash": "0xb249855211b3f4983a77258721736f97004ef35b93fd08ba25ffba1655496a58",
      "blockNumber": 84301,
      "transactionIndex": 0,
      "confirmations": null,
      "from": "0x6Fa72015fA78696EFd9A86174f7F1f21019286b1",
      "gasPrice": {
        "_hex": "0xd7fc00d04"
      },
      "gasLimit": {
        "_hex": "0x15f90"
      },
      "to": "0xFDE80370e058cfC8292D8eE4D7ed14c37Aa66D89",
      "value": {
        "_hex": "0x8ac7230489e80000"
      },
      "nonce": 0,
      "data": "0x",
      "r": "0x2153883206274ae1c49f7f40f172847a7cb35efa1bec4dac39112de8871a58b7",
      "s": "0x6f8d4571176edf871737f6671cb998e1bffe9dc3f1f27388827f1e18ee25ca0a",
      "v": 27,
      "creates": null,
      "raw": "0xf86d80850d7fc00d0483015f9094fde80370e058cfc8292d8ee4d7ed14c37aa66d89888ac7230489e80000801ba02153883206274ae1c49f7f40f172847a7cb35efa1bec4dac39112de8871a58b7a06f8d4571176edf871737f6671cb998e1bffe9dc3f1f27388827f1e18ee25ca0a",
      "networkId": 0,
      "chainId": 0
    }
  ]
}