{
  "hash": "0xe50f823402745eb92dd20a78021f4f85b9f3e29d9b5851cdad463bc28f56b511",
  "parentHash": "0xdefab2fee5026dc677c619f43fa9be6e5453bba62b4bcb9aca95ffef8621d53b",
  "number": 105337,
  "timestamp": 1439885854,
  "nonce": "0x0f9e80bef145cf51",
  "difficulty": 4356923106566,
  "gasLimit": {
    "_hex": "0x2fefd8"
  },
  "gasUsed": {
    "_hex": "0x14820"
  },
  "miner": "0xe6A7a1d47ff21B6321162AEA7C6CB457D5476Bca",
  "extraData": "0x476574682f76312e302e312d38326566323666362f6c696e75782f676f312e34",
  "transactions": [
    {
      "hash": "0xe3f78731057ae6af5794a37d07d0db6c4a253f38cefdf479f5dc6277ada058a0",
      "blockHash": "0xe50f823402745eb92dd20a78021f4f85b9f3e29d9b5851cdad463bc28f56b511",
      "blockNumber": 105337,
      "transactionIndex": 0,
      "confirmations": null,
      "from": "0xe6A7a1d47ff21B6321162AEA7C6CB457D5476Bca",
      "gasPrice": {
        "_hex": "0xdac11084d"
      },
      "gasLimit": {
        "_hex": "0x55f0"
      },
      "to": "0x6964b95BF8BA16b837e2f3Ae8dA7D299553eC1f7",
      "value": {
        "_hex": "0x31609a67fcc6f29c0"
      },
      "nonce": 4010,
      "data": "0x",
      "r": "0x47b0ed92eb4beb1d9057e74f0e7124e1f70e6343a7064510feaf20316fa0ddcb",
      "s": "0x6e7ae9607626d2c3756995aff133465c1015d5ba02db4dadd70dae0b95160aac",
      "v": 27,
      "creates": null,
      "raw": "0xf86f820faa850dac11084d8255f0946964b95bf8ba16b837e2f3ae8da7d299553ec1f789031609a67fcc6f29c0801ba047b0ed92eb4beb1d9057e74f0e7124e1f70e6343a7064510feaf20316fa0ddcba06e7ae9607626d2c3756995aff133465c1015d5ba02db4dadd70dae0b95160aac",
      "networkId": 0,
      "chainId": 0
    },
    {
      "hash": "0x16532b04c9b4787943c056ba146fcd0ac37dbe64f8d125585bd064093e2ac535",
      "blockHash": "0xe50f823402745eb92dd20a78021f4f85b9f3e29d9b5851cdad463bc28f56b511",
      "blockNumber": 105337,
      "transactionIndex": 1,
      "confirmations": null,
      "from": "0xe6A7a1d47ff21B6321162AEA7C6CB457D5476Bca",
      "gasPrice": {
        "_hex": "0xdac11084d"
      },
      "gasLimit": {
        "_hex": "0x55f0"
      },
      "to": "0xBA7933704d52A3e7fdBb5B5deD29e45213EA1111",
      "value": {
        "_hex": "0x31802c6020b7aad50"
      },
      "nonce": 4011,
      "data": "0x",
      "r": "0xc1144999a1a2c771fbd4e3a93faf9a78f6e7c7639a1712730f2cf997c144ac4b",
      "s": "0x1e6e57512af8f931d216bafe3919447b681844867391b91f2d9586e2dc68a89c",
      "v": 27,
      "creates": null,
      "raw": "0xf86f820fab850dac11084d8255f094ba7933704d52a3e7fdbb5b5ded29e45213ea111189031802c6020b7aad50801ba0c1144999a1a2c771fbd4e3a93faf9a78f6e7c7639a1712730f2cf997c144ac4ba01e6e57512af8f931d216bafe3919447b681844867391b91f2d9586e2dc68a89c",
      "networkId": 0,
      "chainId": 0
    },
    {
      "hash": "0x6fda2ba6713aa454f662aa973e6bd9cc87d82e9a39589e4232b9a6052e4b5aff",
      "blockHash": "0xe50f823402745eb92dd20a78021f4f85b9f3e29d9b5851cdad463bc28f56b511",
      "blockNumber": 105337,
      "transactionIndex": 2,
      "confirmations": null,
      "from": "0xCadcea36EC3feB740167E4370777fab1549F8759",
      "gasPrice": {
        "_hex": "0xcc25bf8d5"
      },
      "gasLimit": {
        "_hex": "0x5208"
      },
      "to": "0x32Be343B94f860124dC4fEe278FDCBD38C102D88",
      "value": {
        "_hex": "0x3d90939e0d77a800"
      },
      "nonce": 8,
      "data": "0x",
      "r": "0x62381f1511c3e52b02962baa49588452fe2440732995e10de6f5361be1f0607c",
      "s": "0x6b10a6887a0266821217ed028fd3a96cc3cb5e3ea11df142b390dfe4bf3467eb",
      "v": 27,
      "creates": null,
      "raw": "0xf86c08850cc25bf8d58252089432be343b94f860124dc4fee278fdcbd38c102d88883d90939e0d77a800801ba062381f1511c3e52b02962baa49588452fe2440732995e10de6f5361be1f0607ca06b10a6887a0266821217ed028fd3a96cc3cb5e3ea11df142b390dfe4bf3467eb",
      "networkId": 0,
      "chainId": 0
    },
    {
      "hash": "0x4e0c6672ae9be7baa160eb7a8bd30c03b49edb76272f25ad299cddfb063a6b19",
      "blockHash": "0xe50f823402745eb92dd20a78021f4f85b9f3e29d9b5851cdad463bc28f56b511",
      "blockNumber": 105337,
      "transactionIndex": 3,
      "confirmations": null,
      "from": "0xD924AAC0bCB65C13bE4044f6BeA8aAe34D7a7126",
      "gasPrice": {
        "_hex": "0xcc25bf8d5"
      },
      "gasLimit": {
        "_hex": "0x5208"
      },
      "to": "0x32Be343B94f860124dC4fEe278FDCBD38C102D88",
      "value": {
        "_hex": "0x7b0dca3e3ba7a400"
      },
      "nonce": 8,
      "data": "0x",
      "r": "0x069de831e54575d55ee8aa2f271f33b61c579e8207c3c871f4c547ecd1f94616",
      "s": "0x3ee9dd4b28b4d5432646d1b1f7c99e9b970d9bcd3b27061cd09247f1389db932",
      "v": 28,
      "creates": null,
      "raw": "0xf86c08850cc25bf8d58252089432be343b94f860124dc4fee278fdcbd38c102d88887b0dca3e3ba7a400801ca0069de831e54575d55ee8aa2f271f33b61c579e8207c3c871f4c547ecd1f94616a03ee9dd4b28b4d5432646d1b1f7c99e9b970d9bcd3b27061cd09247f1389db932",
      "networkId": 0,
      "chainId": 0
    }
  ]
}