{
  "hash": "0x9428dedbf8efed3c8471b7fde7efcb414d4c23a4a9fd75e9610cd170e983f217",
  "parentHash": "0xce2472d65d2d03a60b2b1dc5618ef79b74917d6f57dc8c2a2db7baae413d09ab",
  "number": 49382,
  "timestamp": 1438972689,
  "nonce": "0xf7632ff9157af0b3",
  "difficulty": 1477065668102,
  "gasLimit": {
    "_hex": "0x2f27d"
  },
  "gasUsed": {
    "_hex": "0x5208"
  },
  "miner": "0x9746c7e1ef2bd21FF3997fa467593a89cb852BD0",
  "extraData": "0x476574682f76312e302e312f77696e646f77732f676f312e342e32",
  "transactions": [
    {
      "hash": "0x14d7a7a079b1116bddc0dd3984266501ce5cf926beeb470cc53ca33c53ac235b",
      "blockHash": "0x9428dedbf8efed3c8471b7fde7efcb414d4c23a4a9fd75e9610cd170e983f217",
      "blockNumber": 49382,
      "transactionIndex": 0,
      "confirmations": null,
      "from": "0x481b251c3Cd86c298f9f601f8BF7021412e193c6",
      "gasPrice": {
        "_hex": "0xe00432804"
      },
      "gasLimit": {
        "_hex": "0x15f90"
      },
      "to": "0x1a79c7f4039C67A39d7513884cDC0E2C34222490",
      "value": {
        "_hex": "0x38d7ea4c67fff"
      },
      "nonce": 1,
      "data": "0x",
      "r": "0xb7fe260393de8be9f4c87136847f900bb143d891ccacb6a9d32017b9c6bd5633",
      "s": "0x67ad6aac1c59e5bf5faa6fcfdc1fb0571893e6f0ed47d1206425da2e18653bd4",
      "v": 28,
      "creates": null,
      "raw": "0xf86c01850e0043280483015f90941a79c7f4039c67a39d7513884cdc0e2c3422249087038d7ea4c67fff801ca0b7fe260393de8be9f4c87136847f900bb143d891ccacb6a9d32017b9c6bd5633a067ad6aac1c59e5bf5faa6fcfdc1fb0571893e6f0ed47d1206425da2e18653bd4",
      "networkId": 0,
      "chainId": 0
    }
  ]
}