{
  "hash": "0xcd793dde3ea304c449e47b61f78c374cbb2d247d1ea567845db73a718f4e71b9",
  "parentHash": "0xb8f37e4e7eaf32896f25fb5ffb1e131631a7941876b0a322b33dc403e434dd19",
  "number": 88730,
  "timestamp": 1439612513,
  "nonce": "0x3458e9618ac42ccb",
  "difficulty": 3236295714309,
  "gasLimit": {
    "_hex": "0x2fefd8"
  },
  "gasUsed": {
    "_hex": "0x5208"
  },
  "miner": "0x39BEd032922B0C9b8e5445245bE8e9423F8f2730",
  "extraData": "0xd983010001844765746887676f312e342e328777696e646f7773",
  "transactions": [
    {
      "hash": "0xb3fbd975a0feffd4ea37daef89ac7b71ca8081930e4964a5267e2462b22e2aa3",
      "blockHash": "0xcd793dde3ea304c449e47b61f78c374cbb2d247d1ea567845db73a718f4e71b9",
      "blockNumber": 88730,
      "transactionIndex": 0,
      "confirmations": null,
      "from": "0x2910543Af39abA0Cd09dBb2D50200b3E800A63D2",
      "gasPrice": {
        "_hex": "0xd39d1cf15"
      },
      "gasLimit": {
        "_hex": "0x5208"
      },
      "to": "0xBe988a242876F4f3Bb535E67000C13129775a9e7",
      "value": {
        "_hex": "0xdcef33a6f838000"
      },
      "nonce": 734,
      "data": "0x",
      "r": "0x7fbbb64a5137059c18bd9c9f38c8247b9c8c17bb213e7357e88ca5a594b5d3c5",
      "s": "0x6dfdcafa21b3fd954438a56158fda82b2f6e275256a81da86f07d3c36da0acad",
      "v": 27,
      "creates": null,
      "raw": "0xf86e8202de850d39d1cf1582520894be988a242876f4f3bb535e67000c13129775a9e7880dcef33a6f838000801ba07fbbb64a5137059c18bd9c9f38c8247b9c8c17bb213e7357e88ca5a594b5d3c5a06dfdcafa21b3fd954438a56158fda82b2f6e275256a81da86f07d3c36da0acad",
      "networkId": 0,
      "chainId": 0
    }
  ]
}