{
  "hash": "0xca4d22bd54f46017a2772d22649d1301a9d1b9fe902748a3abe3b4ba304434b2",
  "parentHash": "0x0133dc791e930242e09bf03523f4ad6fac99b63b039a837d7db04b77ee6cd13a",
  "number": 95108,
  "timestamp": 1439719080,
  "nonce": "0xcabee345f7056fc7",
  "difficulty": 3506869484164,
  "gasLimit": {
    "_hex": "0x2fefd8"
  },
  "gasUsed": {
    "_hex": "0xf618"
  },
  "miner": "0xe6A7a1d47ff21B6321162AEA7C6CB457D5476Bca",
  "extraData": "0x476574682f76312e302e312d38326566323666362f6c696e75782f676f312e34",
  "transactions": [
    {
      "hash": "0x747bf97d81f97c3eaead1c6b695947c00d33e6594ba8173e012170ec6ff9cd76",
      "blockHash": "0xca4d22bd54f46017a2772d22649d1301a9d1b9fe902748a3abe3b4ba304434b2",
      "blockNumber": 95108,
      "transactionIndex": 0,
      "confirmations": null,
      "from": "0x458F183347F45a4001807728A89F31E9Da9D4A58",
      "gasPrice": {
        "_hex": "0xd8a95f750"
      },
      "gasLimit": {
        "_hex": "0x15f90"
      },
      "to": "0x1D3ffA437e5bce40fCC134f4E0ac62841E4A9E81",
      "value": {
        "_hex": "0x54a78dae49e20000"
      },
      "nonce": 32,
      "data": "0x",
      "r": "0x358d4324c1b18b88084253392e2833322f0da816aeb44721e4762ac6380ab64e",
      "s": "0x415ea9c2cac85fdef0284a2bd32a60e752f814aeaff2018fa657f64808b38711",
      "v": 28,
      "creates": null,
      "raw": "0xf86d20850d8a95f75083015f90941d3ffa437e5bce40fcc134f4e0ac62841e4a9e818854a78dae49e20000801ca0358d4324c1b18b88084253392e2833322f0da816aeb44721e4762ac6380ab64ea0415ea9c2cac85fdef0284a2bd32a60e752f814aeaff2018fa657f64808b38711",
      "networkId": 0,
      "chainId": 0
    },
    {
      "hash": "0x6720fe0a57a3123bf540413994b344a95edc1ce494973623b06f1a42b6c82cd5",
      "blockHash": "0xca4d22bd54f46017a2772d22649d1301a9d1b9fe902748a3abe3b4ba304434b2",
      "blockNumber": 95108,
      "transactionIndex": 1,
      "confirmations": null,
      "from": "0x458F183347F45a4001807728A89F31E9Da9D4A58",
      "gasPrice": {
        "_hex": "0xd8a95f750"
      },
      "gasLimit": {
        "_hex": "0x15f90"
      },
      "to": "0x7313946aA53dCDd777C90905D75A9B41e17Ca2c9",
      "value": {
        "_hex": "0x361f955640060000"
      },
      "nonce": 33,
      "data": "0x",
      "r": "0x818e8aaa3effc40f9ea9fa6448e83e28c3a674faba5cbc57de585e04337ec9be",
      "s": "0x25b906767c5f4a7d2b639c2df30dbadf46087aec0b1f254e28fecd18cb1f92bf",
      "v": 28,
      "creates": null,
      "raw": "0xf86d21850d8a95f75083015f90947313946aa53dcdd777c90905d75a9b41e17ca2c988361f955640060000801ca0818e8aaa3effc40f9ea9fa6448e83e28c3a674faba5cbc57de585e04337ec9bea025b906767c5f4a7d2b639c2df30dbadf46087aec0b1f254e28fecd18cb1f92bf",
      "networkId": 0,
      "chainId": 0
    },
    {
      "hash": "0x0e1824e487cc7c06f154136d99ff469ab62558622913040029f11bb415afb812",
      "blockHash": "0xca4d22bd54f46017a2772d22649d1301a9d1b9fe902748a3abe3b4ba304434b2",
      "blockNumber": 95108,
      "transactionIndex": 2,
      "confirmations": null,
      "from": "0x458F183347F45a4001807728A89F31E9Da9D4A58",
      "gasPrice": {
        "_hex": "0xd8a95f750"
      },
      "gasLimit": {
        "_hex": "0x15f90"
      },
      "to": "0x7fa165177F28D171bA7C17f765c1904344Ec64CB",
      "value": {
        "_hex": "0x1a055690d9db80000"
      },
      "nonce": 34,
      "data": "0x",
      "r": "0xafa931c5c0bbb8e61780db8c351ec9206a0ec143b0d195c39db593451cd78f9f",
      "s": "0x51dfe0f7011ca9b8be78cbd8c7aaf71b1a948cc762f0371501ed73be50af45fb",
      "v": 28,
      "creates": null,
      "raw": "0xf86e22850d8a95f75083015f90947fa165177f28d171ba7c17f765c1904344ec64cb8901a055690d9db80000801ca0afa931c5c0bbb8e61780db8c351ec9206a0ec143b0d195c39db593451cd78f9fa051dfe0f7011ca9b8be78cbd8c7aaf71b1a948cc762f0371501ed73be50af45fb",
      "networkId": 0,
      "chainId": 0
    }
  ]
}