{
  "hash": "0xd238bbc99aa1931d2ecc8dcb9f4d6181522bf879afa886fddd1624821b00b318",
  "parentHash": "0x2e7671a5dae34b92e00d24f19d47f0f81fca9bb6960c7afeba78d515ff516623",
  "number": 81149,
  "timestamp": 1439496979,
  "nonce": "0x69007c8e48cd4e5f",
  "difficulty": 2443899208017,
  "gasLimit": {
    "_hex": "0x2fefd8"
  },
  "gasUsed": {
    "_hex": "0x5208"
  },
  "miner": "0x7998276dDecB82491dEe4Cd6cC504C55e87b5570",
  "extraData": "0x",
  "transactions": [
    {
      "hash": "0xbbb6fcd70f30e8183ea79e834d24924f31bb859b6a080aa6389234e123a6e5f6",
      "blockHash": "0xd238bbc99aa1931d2ecc8dcb9f4d6181522bf879afa886fddd1624821b00b318",
      "blockNumber": 81149,
      "transactionIndex": 0,
      "confirmations": null,
      "from": "0x4B9E068fc4680976e61504912985Fd5ce94bAB0d",
      "gasPrice": {
        "_hex": "0xcdf35c400"
      },
      "gasLimit": {
        "_hex": "0x55f0"
      },
      "to": "0x5ec36DCeA7A8bAAC535C0e739d9F6300c428ca9f",
      "value": {
        "_hex": "0x242e091bf697b40000"
      },
      "nonce": 1,
      "data": "0x",
      "r": "0xfd62869b7c06a4f5ca1211a9b71ea19f2af38cd8184ca532396ef9a6b8d0e927",
      "s": "0x13267ec427e19c9928194203cb989aa7831d7f25e83acdd493be26a620f5ac3e",
      "v": 28,
      "creates": null,
      "raw": "0xf86d01850cdf35c4008255f0945ec36dcea7a8baac535c0e739d9f6300c428ca9f89242e091bf697b40000801ca0fd62869b7c06a4f5ca1211a9b71ea19f2af38cd8184ca532396ef9a6b8d0e927a013267ec427e19c9928194203cb989aa7831d7f25e83acdd493be26a620f5ac3e",
      "networkId": 0,
      "chainId": 0
    }
  ]
}