{
  "hash": "0x7ff7987c48d5e5181073689d36203f7362e92f3a2c74592e65f47a367066404b",
  "parentHash": "0x415a9442f62b74303f0756a5ade62f4a8d2ca5506a62c3c34fa5b8501a85d81a",
  "number": 88758,
  "timestamp": 1439612867,
  "nonce": "0x712521c4606f4fc1",
  "difficulty": 3248951374039,
  "gasLimit": {
    "_hex": "0x2fefd8"
  },
  "gasUsed": {
    "_hex": "0x546c"
  },
  "miner": "0xe6A7a1d47ff21B6321162AEA7C6CB457D5476Bca",
  "extraData": "0x476574682f76312e302e312d38326566323666362f6c696e75782f676f312e34",
  "transactions": [
    {
      "hash": "0xf25629824bf121e834c16d02e81df46ad1decd778b0a96661b4c03e29025d065",
      "blockHash": "0x7ff7987c48d5e5181073689d36203f7362e92f3a2c74592e65f47a367066404b",
      "blockNumber": 88758,
      "transactionIndex": 0,
      "confirmations": null,
      "from": "0xe180De9e86F57BafaCd7904f9826b6b4B26337A3",
      "gasPrice": {
        "_hex": "0x110c8f7d8de"
      },
      "gasLimit": {
        "_hex": "0xc350"
      },
      "to": "0x2910543Af39abA0Cd09dBb2D50200b3E800A63D2",
      "value": {
        "_hex": "0x2c5ace54fd989c0000"
      },
      "nonce": 2,
      "data": "0x454e434a5033463438",
      "r": "0xbba7f0f02806a16f897328d93b8622a3bdb9b0a17b84a93c2a2fba9aa8590feb",
      "s": "0x06a93ac580b43188295e1e72d31541b82e2075a6c84c5ecd4fc98ddd7205aea7",
      "v": 27,
      "creates": null,
      "raw": "0xf87702860110c8f7d8de82c350942910543af39aba0cd09dbb2d50200b3e800a63d2892c5ace54fd989c000089454e434a50334634381ba0bba7f0f02806a16f897328d93b8622a3bdb9b0a17b84a93c2a2fba9aa8590feba006a93ac580b43188295e1e72d31541b82e2075a6c84c5ecd4fc98ddd7205aea7",
      "networkId": 0,
      "chainId": 0
    }
  ]
}