{
  "hash": "0x610cef03f3962198e051153dbf82bfb781d6c75c51a693f77fdba2b5ef67ca49",
  "parentHash": "0xe1136790fbde9b319d1f004fe83011fd2fa59b98ac30e0ef30c4c5f12b12fd9b",
  "number": 74237,
  "timestamp": 1439382771,
  "nonce": "0x070bbc59d2aafd01",
  "difficulty": 2214018946272,
  "gasLimit": {
    "_hex": "0x2fefd8"
  },
  "gasUsed": {
    "_hex": "0x668a0"
  },
  "miner": "0x190174d939CC332eE1Ea9351AD703ddF7364Ca68",
  "extraData": "0x476574682f76312e302e312d38326566323666362f6c696e75782f676f312e34",
  "transactions": [
    {
      "hash": "0xf5b9bded4c490b6fb42a6291df5ed3af2ac806f66d80d013ba13ddc26daf3ba1",
      "blockHash": "0x610cef03f3962198e051153dbf82bfb781d6c75c51a693f77fdba2b5ef67ca49",
      "blockNumber": 74237,
      "transactionIndex": 0,
      "confirmations": null,
      "from": "0xe6A7a1d47ff21B6321162AEA7C6CB457D5476Bca",
      "gasPrice": {
        "_hex": "0xcd966388b"
      },
      "gasLimit": {
        "_hex": "0x55f0"
      },
      "to": "0xf07aAde57CeD1af9a2D538eCcbfD96103f6F2410",
      "value": {
        "_hex": "0x12b833c8a80da420"
      },
      "nonce": 699,
      "data": "0x",
      "r": "0xd9cc7dad975dd533fed408172fb083775a93b49dad5d9b653ca00058e2dac6b2",
      "s": "0x576f32e03f4b7d6d02635c8363658fe40689fce8c88599f210bee3c2e40bcc6b",
      "v": 28,
      "creates": null,
      "raw": "0xf86e8202bb850cd966388b8255f094f07aade57ced1af9a2d538eccbfd96103f6f24108812b833c8a80da420801ca0d9cc7dad975dd533fed408172fb083775a93b49dad5d9b653ca00058e2dac6b2a0576f32e03f4b7d6d02635c8363658fe40689fce8c88599f210bee3c2e40bcc6b",
      "networkId": 0,
      "chainId": 0
    },
    {
      "hash": "0x5d6c379f93051415d554acf7411189254e1c3e7454f3fee139d5a6beefd3a288",
      "blockHash": "0x610cef03f3962198e051153dbf82bfb781d6c75c51a693f77fdba2b5ef67ca49",
      "blockNumber": 74237,
      "transactionIndex": 1,
      "confirmations": null,
      "from": "0xe6A7a1d47ff21B6321162AEA7C6CB457D5476Bca",
      "gasPrice": {
        "_hex": "0xcd966388b"
      },
      "gasLimit": {
        "_hex": "0x55f0"
      },
      "to": "0xCC0c34544f4644d80d7FCD82E0b56e9d5C7AF43c",
      "value": {
        "_hex": "0x12caa07d5319fe80"
      },
      "nonce": 700,
      "data": "0x",
      "r": "0xa86eb5ef6f8367e90a02981c01bbf956ac389adec4d4ac235b10a889be83c733",
      "s": "0x58b278394800cfcb959797f3180af42b7558272bf1fd73ab748cb0f9d54af762",
      "v": 27,
      "creates": null,
      "raw": "0xf86e8202bc850cd966388b8255f094cc0c34544f4644d80d7fcd82e0b56e9d5c7af43c8812caa07d5319fe80801ba0a86eb5ef6f8367e90a02981c01bbf956ac389adec4d4ac235b10a889be83c733a058b278394800cfcb959797f3180af42b7558272bf1fd73ab748cb0f9d54af762",
      "networkId": 0,
      "chainId": 0
    },
    {
      "hash": "0x6da9d97c1d791b5dec272ad87dd5d54946e3c70f39b688708b4d489e3249abd8",
      "blockHash": "0x610cef03f3962198e051153dbf82bfb781d6c75c51a693f77fdba2b5ef67ca49",
      "blockNumber": 74237,
      "transactionIndex": 2,
      "confirmations": null,
      "from": "0xe6A7a1d47ff21B6321162AEA7C6CB457D5476Bca",
      "gasPrice": {
        "_hex": "0xcd966388b"
      },
      "gasLimit": {
        "_hex": "0x55f0"
      },
      "to": "0x9dc5018E753A410593259039296bBfd28E29f894",
      "value": {
        "_hex": "0x12d4c156908c31a8"
      },
      "nonce": 701,
      "data": "0x",
      "r": "0x7ae59f82f8bf214498daf0a8d0cb12244c1207ebc57a6e846ecad018a8edeafd",
      "s": "0x50ca007159dc5b20789c90885be7eab0258eb936c5735775b01b744ee220b0f1",
      "v": 28,
      "creates": null,
      "raw": "0xf86e8202bd850cd966388b8255f0949dc5018e753a410593259039296bbfd28e29f8948812d4c156908c31a8801ca07ae59f82f8bf214498daf0a8d0cb12244c1207ebc57a6e846ecad018a8edeafda050ca007159dc5b20789c90885be7eab0258eb936c5735775b01b744ee220b0f1",
      "networkId": 0,
      "chainId": 0
    },
    {
      "hash": "0xbb2febac002f7969d72c1cdb4c914c1c789c52a287cdaf3cc7c041a13f049bc5",
      "blockHash": "0x610cef03f3962198e051153dbf82bfb781d6c75c51a693f77fdba2b5ef67ca49",
      "blockNumber": 74237,
      "transactionIndex": 3,
      "confirmations": null,
      "from": "0xe6A7a1d47ff21B6321162AEA7C6CB457D5476Bca",
      "gasPrice": {
        "_hex": "0xcd966388b"
      },
      "gasLimit": {
        "_hex": "0x55f0"
      },
      "to": "0x98468422cC6f9c345bb48c434c8048409D5F2724",
      "value": {
        "_hex": "0x131b2a7ca2f1d8f4"
      },
      "nonce": 702,
      "data": "0x",
      "r": "0x18d7fc541f77744127e879b5ea4370c579bf25932ebe17ca41ad6bcf74851188",
      "s": "0x500d0795ed5eefd9873ba7859380c9e0bbfe795b379e10dc6b8738fa1e4cb9c9",
      "v": 27,
      "creates": null,
      "raw": "0xf86e8202be850cd966388b8255f09498468422cc6f9c345bb48c434c8048409d5f272488131b2a7ca2f1d8f4801ba018d7fc541f77744127e879b5ea4370c579bf25932ebe17ca41ad6bcf74851188a0500d0795ed5eefd9873ba7859380c9e0bbfe795b379e10dc6b8738fa1e4cb9c9",
      "networkId": 0,
      "chainId": 0
    },
    {
      "hash": "0xa7569463ef46067012e0a909dea357ba96232f8a8d0b4f743c648b0797b05357",
      "blockHash": "0x610cef03f3962198e051153dbf82bfb781d6c75c51a693f77fdba2b5ef67ca49",
      "blockNumber": 74237,
      "transactionIndex": 4,
      "confirmations": null,
      "from": "0xe6A7a1d47ff21B6321162AEA7C6CB457D5476Bca",
      "gasPrice": {
        "_hex": "0xcd966388b"
      },
      "gasLimit": {
        "_hex": "0x55f0"
      },
      "to": "0x36c68a0907F43244f6dD524a7144A2C5982eb1A1",
      "value": {
        "_hex": "0x13325b085d424ff4"
      },
      "nonce": 703,
      "data": "0x",
      "r": "0x4f4b16b694a4519b95d37f048b110bf49c2ba2476a5783423f3a4bdae28cbde5",
      "s": "0x5a2305b4a0a3732b347557eb68cc7fca583e9316ee1c1a6b4e591b99db6a550f",
      "v": 28,
      "creates": null,
      "raw": "0xf86e8202bf850cd966388b8255f09436c68a0907f43244f6dd524a7144a2c5982eb1a18813325b085d424ff4801ca04f4b16b694a4519b95d37f048b110bf49c2ba2476a5783423f3a4bdae28cbde5a05a2305b4a0a3732b347557eb68cc7fca583e9316ee1c1a6b4e591b99db6a550f",
      "networkId": 0,
      "chainId": 0
    },
    {
      "hash": "0x98b7ae5ab06096b0ad8e0931ccc4eabe6c6499befbb49e82e89064bee5e80271",
      "blockHash": "0x610cef03f3962198e051153dbf82bfb781d6c75c51a693f77fdba2b5ef67ca49",
      "blockNumber": 74237,
      "transactionIndex": 5,
      "confirmations": null,
      "from": "0xe6A7a1d47ff21B6321162AEA7C6CB457D5476Bca",
      "gasPrice": {
        "_hex": "0xcd966388b"
      },
      "gasLimit": {
        "_hex": "0x55f0"
      },
      "to": "0x323cD41e4d4e74eB94CA49EdcCAab03f798a930a",
      "value": {
        "_hex": "0x137b1175e8779608"
      },
      "nonce": 704,
      "data": "0x",
      "r": "0x5ec98c1c45cbfe80052465a5691edb88697b395b5d1639015d9fc12ab647fea1",
      "s": "0x19a2f9267e78f29f59e803fdc18ed0765c72f12af4700a04ce73faec92d29835",
      "v": 27,
      "creates": null,
      "raw": "0xf86e8202c0850cd966388b8255f094323cd41e4d4e74eb94ca49edccaab03f798a930a88137b1175e8779608801ba05ec98c1c45cbfe80052465a5691edb88697b395b5d1639015d9fc12ab647fea1a019a2f9267e78f29f59e803fdc18ed0765c72f12af4700a04ce73faec92d29835",
      "networkId": 0,
      "chainId": 0
    },
    {
      "hash": "0x125d68f643d60a30daea74b2b5e26e05c88d7c2b893b13b2a9f6b9f4fdc55dc5",
      "blockHash": "0x610cef03f3962198e051153dbf82bfb781d6c75c51a693f77fdba2b5ef67ca49",
      "blockNumber": 74237,
      "transactionIndex": 6,
      "confirmations": null,
      "from": "0xe6A7a1d47ff21B6321162AEA7C6CB457D5476Bca",
      "gasPrice": {
        "_hex": "0xcd966388b"
      },
      "gasLimit": {
        "_hex": "0x55f0"
      },
      "to": "0x9B743b996E5FD8416cdD0D9F8C13FA7F7eE0BdfA",
      "value": {
        "_hex": "0x138d0ef7ce7f48f4"
      },
      "nonce": 705,
      "data": "0x",
      "r": "0x39c4bee55f8ac905cb6c768e9f6ac8bd9eaa35994b851333ee82705af10ba8c4",
      "s": "0x45f5b0f5feae81a10300b045e4fc387653304fffd5227c8c3d9386aed336f6a4",
      "v": 28,
      "creates": null,
      "raw": "0xf86e8202c1850cd966388b8255f0949b743b996e5fd8416cdd0d9f8c13fa7f7ee0bdfa88138d0ef7ce7f48f4801ca039c4bee55f8ac905cb6c768e9f6ac8bd9eaa35994b851333ee82705af10ba8c4a045f5b0f5feae81a10300b045e4fc387653304fffd5227c8c3d9386aed336f6a4",
      "networkId": 0,
      "chainId": 0
    },
    {
      "hash": "0x725daad1d55592d663a57cc5c1b60a845ba098a866403a214c3a4bcd0ef4fbbb",
      "blockHash": "0x610cef03f3962198e051153dbf82bfb781d6c75c51a693f77fdba2b5ef67ca49",
      "blockNumber": 74237,
      "transactionIndex": 7,
      "confirmations": null,
      "from": "0xe6A7a1d47ff21B6321162AEA7C6CB457D5476Bca",
      "gasPrice": {
        "_hex": "0xcd966388b"
      },
      "gasLimit": {
        "_hex": "0x55f0"
      },
      "to": "0x45fe0E379195681d4C1002eA4Def348C19a320df",
      "value": {
        "_hex": "0x13c1ca7ca2096bf4"
      },
      "nonce": 706,
      "data": "0x",
      "r": "0x24d4043043ba0eb548630037fa6576f4f56d5ccf08ad806d5030f1857cfd8ccc",
      "s": "0x30e63f297051eefb00112d02f5f35ae9d0d9eccd2f20b1e295c9305fce006dc1",
      "v": 28,
      "creates": null,
      "raw": "0xf86e8202c2850cd966388b8255f09445fe0e379195681d4c1002ea4def348c19a320df8813c1ca7ca2096bf4801ca024d4043043ba0eb548630037fa6576f4f56d5ccf08ad806d5030f1857cfd8ccca030e63f297051eefb00112d02f5f35ae9d0d9eccd2f20b1e295c9305fce006dc1",
      "networkId": 0,
      "chainId": 0
    },
    {
      "hash": "0x2b56f525fcb176ffa51fce9ed5f9351ae0ae8699499791d31af2ba90aa88ec00",
      "blockHash": "0x610cef03f3962198e051153dbf82bfb781d6c75c51a693f77fdba2b5ef67ca49",
      "blockNumber": 74237,
      "transactionIndex": 8,
      "confirmations": null,
      "from": "0xe6A7a1d47ff21B6321162AEA7C6CB457D5476Bca",
      "gasPrice": {
        "_hex": "0xcd966388b"
      },
      "gasLimit": {
        "_hex": "0x55f0"
      },
      "to": "0x3890681569061d29Ca2E22c131F532270871ef65",
      "value": {
        "_hex": "0x13c7b9d3a81fe0d0"
      },
      "nonce": 707,
      "data": "0x",
      "r": "0x3caad1d00ac972ea349292e0dc4fd40a6d9bb44e5739e76fee8a17c7a0921a86",
      "s": "0x6e708c7489c176a3d084842152034ec7d8d9d5fffccdcbbd809668b9188bf1c7",
      "v": 28,
      "creates": null,
      "raw": "0xf86e8202c3850cd966388b8255f0943890681569061d29ca2e22c131f532270871ef658813c7b9d3a81fe0d0801ca03caad1d00ac972ea349292e0dc4fd40a6d9bb44e5739e76fee8a17c7a0921a86a06e708c7489c176a3d084842152034ec7d8d9d5fffccdcbbd809668b9188bf1c7",
      "networkId": 0,
      "chainId": 0
    },
    {
      "hash": "0xde58a89a973174e0191304582713d59aa76bc9e55316c79498cf1a01e6e789b2",
      "blockHash": "0x610cef03f3962198e051153dbf82bfb781d6c75c51a693f77fdba2b5ef67ca49",
      "blockNumber": 74237,
      "transactionIndex": 9,
      "confirmations": null,
      "from": "0xe6A7a1d47ff21B6321162AEA7C6CB457D5476Bca",
      "gasPrice": {
        "_hex": "0xcb8a30ac7"
      },
      "gasLimit": {
        "_hex": "0x55f0"
      },
      "to": "0x4EF5e475724b7c945A4bdbB1Be68d76103bA9013",
      "value": {
        "_hex": "0x13dab22388b3ccb0"
      },
      "nonce": 708,
      "data": "0x",
      "r": "0xf02663728c7559c1dde9becf9ece43f20f5ff51a644851c2ad3175f03c3aad3e",
      "s": "0x1fd08098259233c953f30fa9022ca6103357fc20e720247a548c3481bc89d7e3",
      "v": 27,
      "creates": null,
      "raw": "0xf86e8202c4850cb8a30ac78255f0944ef5e475724b7c945a4bdbb1be68d76103ba90138813dab22388b3ccb0801ba0f02663728c7559c1dde9becf9ece43f20f5ff51a644851c2ad3175f03c3aad3ea01fd08098259233c953f30fa9022ca6103357fc20e720247a548c3481bc89d7e3",
      "networkId": 0,
      "chainId": 0
    },
    {
      "hash": "0xb661574997d12ed7e57d78006e465fa55c64e379b3f151ce949220dc8197819b",
      "blockHash": "0x610cef03f3962198e051153dbf82bfb781d6c75c51a693f77fdba2b5ef67ca49",
      "blockNumber": 74237,
      "transactionIndex": 10,
      "confirmations": null,
      "from": "0xe6A7a1d47ff21B6321162AEA7C6CB457D5476Bca",
      "gasPrice": {
        "_hex": "0xcb8a30ac7"
      },
      "gasLimit": {
        "_hex": "0x55f0"
      },
      "to": "0x2e1A591a3Bd5FCE3c1E095c205Bd202C29541e70",
      "value": {
        "_hex": "0x140b46a9e68ddc90"
      },
      "nonce": 709,
      "data": "0x",
      "r": "0x6e1d398ebf1430385ea0c4b579f90ef277d702afc96243bcae1776e537a35c2b",
      "s": "0x3bb45d9e220d61d7ae784aad7dbeec0d1b04dcb435ecf1ee8b483508bb018c69",
      "v": 28,
      "creates": null,
      "raw": "0xf86e8202c5850cb8a30ac78255f0942e1a591a3bd5fce3c1e095c205bd202c29541e7088140b46a9e68ddc90801ca06e1d398ebf1430385ea0c4b579f90ef277d702afc96243bcae1776e537a35c2ba03bb45d9e220d61d7ae784aad7dbeec0d1b04dcb435ecf1ee8b483508bb018c69",
      "networkId": 0,
      "chainId": 0
    },
    {
      "hash": "0xf8ce0497ff37c476587f9fce1cd171162b30761dd436a1c86d9b1614e2d17b06",
      "blockHash": "0x610cef03f3962198e051153dbf82bfb781d6c75c51a693f77fdba2b5ef67ca49",
      "blockNumber": 74237,
      "transactionIndex": 11,
      "confirmations": null,
      "from": "0xe6A7a1d47ff21B6321162AEA7C6CB457D5476Bca",
      "gasPrice": {
        "_hex": "0xcb8a30ac7"
      },
      "gasLimit": {
        "_hex": "0x55f0"
      },
      "to": "0x87434351D204a98354B6fd9819e91F33F1F0a91D",
      "value": {
        "_hex": "0x143957f70aadd724"
      },
      "nonce": 710,
      "data": "0x",
      "r": "0xd7a60e95cf41225d3e70ff98c8ca3e4b591f859ae99daa36f495257719e9985e",
      "s": "0x6f9b3cc63f23963aba26fdd7c0712d12a54c75061651b4e843450d844fdc29a9",
      "v": 27,
      "creates": null,
      "raw": "0xf86e8202c6850cb8a30ac78255f09487434351d204a98354b6fd9819e91f33f1f0a91d88143957f70aadd724801ba0d7a60e95cf41225d3e70ff98c8ca3e4b591f859ae99daa36f495257719e9985ea06f9b3cc63f23963aba26fdd7c0712d12a54c75061651b4e843450d844fdc29a9",
      "networkId": 0,
      "chainId": 0
    },
    {
      "hash": "0x9570caa993edf845670b16bd81737c0d7a2ea759a8bdcf538b9ac4cef1cf9fab",
      "blockHash": "0x610cef03f3962198e051153dbf82bfb781d6c75c51a693f77fdba2b5ef67ca49",
      "blockNumber": 74237,
      "transactionIndex": 12,
      "confirmations": null,
      "from": "0xe6A7a1d47ff21B6321162AEA7C6CB457D5476Bca",
      "gasPrice": {
        "_hex": "0xcb8a30ac7"
      },
      "gasLimit": {
        "_hex": "0x55f0"
      },
      "to": "0x468569500925D53e06Dd0993014aD166fD7Dd381",
      "value": {
        "_hex": "0x143d0c37586220f4"
      },
      "nonce": 711,
      "data": "0x",
      "r": "0x6a6434fa3bd1fbc0d08425a716b70176969c53f75fb26ca043d11b9ae72f1243",
      "s": "0x6ccc45753913689d4f3507fcc1ee1ec315b498a1d83bb3cd8ae9aa7846d70631",
      "v": 28,
      "creates": null,
      "raw": "0xf86e8202c7850cb8a30ac78255f094468569500925d53e06dd0993014ad166fd7dd38188143d0c37586220f4801ca06a6434fa3bd1fbc0d08425a716b70176969c53f75fb26ca043d11b9ae72f1243a06ccc45753913689d4f3507fcc1ee1ec315b498a1d83bb3cd8ae9aa7846d70631",
      "networkId": 0,
      "chainId": 0
    },
    {
      "hash": "0x65c68853524dc1494a39ac556c044fa9f80039e4e88dae67e9dd4032e2efab6c",
      "blockHash": "0x610cef03f3962198e051153dbf82bfb781d6c75c51a693f77fdba2b5ef67ca49",
      "blockNumber": 74237,
      "transactionIndex": 13,
      "confirmations": null,
      "from": "0xe6A7a1d47ff21B6321162AEA7C6CB457D5476Bca",
      "gasPrice": {
        "_hex": "0xcb8a30ac7"
      },
      "gasLimit": {
        "_hex": "0x55f0"
      },
      "to": "0x22700Ac76D8Eda0EbE3A50C36F91450323412309",
      "value": {
        "_hex": "0x14be0d81a3c50d28"
      },
      "nonce": 712,
      "data": "0x",
      "r": "0x4c671f05aec90d5a68fb3dd54a19b2c7463621c5878be0e7fdd1f34f6b6e7b42",
      "s": "0x52aba88820b5b73838eac51d4b1020404a3e5c3374eb1c5a5f4f340f772ae1be",
      "v": 27,
      "creates": null,
      "raw": "0xf86e8202c8850cb8a30ac78255f09422700ac76d8eda0ebe3a50c36f914503234123098814be0d81a3c50d28801ba04c671f05aec90d5a68fb3dd54a19b2c7463621c5878be0e7fdd1f34f6b6e7b42a052aba88820b5b73838eac51d4b1020404a3e5c3374eb1c5a5f4f340f772ae1be",
      "networkId": 0,
      "chainId": 0
    },
    {
      "hash": "0xe16c167126c865b32dfa292ed6348201ba1305f0cb552a180d96bdf452cd3f38",
      "blockHash": "0x610cef03f3962198e051153dbf82bfb781d6c75c51a693f77fdba2b5ef67ca49",
      "blockNumber": 74237,
      "transactionIndex": 14,
      "confirmations": null,
      "from": "0xe6A7a1d47ff21B6321162AEA7C6CB457D5476Bca",
      "gasPrice": {
        "_hex": "0xcb8a30ac7"
      },
      "gasLimit": {
        "_hex": "0x55f0"
      },
      "to": "0xB89C0F465b0472fa5A58eCDd01eD937205ae4d06",
      "value": {
        "_hex": "0x14e56f8dcc137dec"
      },
      "nonce": 713,
      "data": "0x",
      "r": "0x416d025a1e5c789493e85f3c2b150830e30a585b361112d3552dcf64116ce0ef",
      "s": "0x22c70a1704c8379e8111e514aa854faeba7524668a57e93e0cf8958c1c214e21",
      "v": 27,
      "creates": null,
      "raw": "0xf86e8202c9850cb8a30ac78255f094b89c0f465b0472fa5a58ecdd01ed937205ae4d068814e56f8dcc137dec801ba0416d025a1e5c789493e85f3c2b150830e30a585b361112d3552dcf64116ce0efa022c70a1704c8379e8111e514aa854faeba7524668a57e93e0cf8958c1c214e21",
      "networkId": 0,
      "chainId": 0
    },
    {
      "hash": "0x5dc13d2c0dbbb8b452c2fc2728b1d1335839def31c113fff763750ef60afaa72",
      "blockHash": "0x610cef03f3962198e051153dbf82bfb781d6c75c51a693f77fdba2b5ef67ca49",
      "blockNumber": 74237,
      "transactionIndex": 15,
      "confirmations": null,
      "from": "0xe6A7a1d47ff21B6321162AEA7C6CB457D5476Bca",
      "gasPrice": {
        "_hex": "0xcb8a30ac7"
      },
      "gasLimit": {
        "_hex": "0x55f0"
      },
      "to": "0x7409AD0F9A56C154e2a23176962D3e111A72A9Eb",
      "value": {
        "_hex": "0x1571ed6c70ece5e0"
      },
      "nonce": 714,
      "data": "0x",
      "r": "0xbcfca002589066609145478e9137e7e756f9a459b5404d4f400845c623992ff2",
      "s": "0x125ae3048e5cb6c215a860ece87a917c29cf529e6f650e15a825f08cd9c88f16",
      "v": 28,
      "creates": null,
      "raw": "0xf86e8202ca850cb8a30ac78255f0947409ad0f9a56c154e2a23176962d3e111a72a9eb881571ed6c70ece5e0801ca0bcfca002589066609145478e9137e7e756f9a459b5404d4f400845c623992ff2a0125ae3048e5cb6c215a860ece87a917c29cf529e6f650e15a825f08cd9c88f16",
      "networkId": 0,
      "chainId": 0
    },
    {
      "hash": "0x38284977bb1eaee1e925d80ab6dcbd7e7e6072deb99223f05e93e068e0d3ebd8",
      "blockHash": "0x610cef03f3962198e051153dbf82bfb781d6c75c51a693f77fdba2b5ef67ca49",
      "blockNumber": 74237,
      "transactionIndex": 16,
      "confirmations": null,
      "from": "0xe6A7a1d47ff21B6321162AEA7C6CB457D5476Bca",
      "gasPrice": {
        "_hex": "0xcb8a30ac7"
      },
      "gasLimit": {
        "_hex": "0x55f0"
      },
      "to": "0x5501519Da19400da29e0098Ba556618064AD3982",
      "value": {
        "_hex": "0x1595ff6db4a56bf4"
      },
      "nonce": 715,
      "data": "0x",
      "r": "0x1fdf7639fb0b8c1a83b5da5abc96bd50403c2e39d684b864a748b6dd46377740",
      "s": "0x137a897f2aa467e99c95a363ac148cb9a8baf335cd08e60094f616b9181374f9",
      "v": 27,
      "creates": null,
      "raw": "0xf86e8202cb850cb8a30ac78255f0945501519da19400da29e0098ba556618064ad3982881595ff6db4a56bf4801ba01fdf7639fb0b8c1a83b5da5abc96bd50403c2e39d684b864a748b6dd46377740a0137a897f2aa467e99c95a363ac148cb9a8baf335cd08e60094f616b9181374f9",
      "networkId": 0,
      "chainId": 0
    },
    {
      "hash": "0xb0437165a3d4863076cd09c39b1db08d9ea920838a5f099706ecc098a92fba8b",
      "blockHash": "0x610cef03f3962198e051153dbf82bfb781d6c75c51a693f77fdba2b5ef67ca49",
      "blockNumber": 74237,
      "transactionIndex": 17,
      "confirmations": null,
      "from": "0xe6A7a1d47ff21B6321162AEA7C6CB457D5476Bca",
      "gasPrice": {
        "_hex": "0xcb8a30ac7"
      },
      "gasLimit": {
        "_hex": "0x55f0"
      },
      "to": "0x2374d8ad849F04E476f8D13457503f7cca23892E",
      "value": {
        "_hex": "0x163e3da28739bcd0"
      },
      "nonce": 716,
      "data": "0x",
      "r": "0x840df3a77c4ed58e1894896278a4cab4c7b6c26a0c4d1ab9209650c91563ca2e",
      "s": "0x32cb9e0088b418de1c261782b896bc49e80cdb2a0dafee0755eb98e2d6977067",
      "v": 28,
      "creates": null,
      "raw": "0xf86e8202cc850cb8a30ac78255f0942374d8ad849f04e476f8d13457503f7cca23892e88163e3da28739bcd0801ca0840df3a77c4ed58e1894896278a4cab4c7b6c26a0c4d1ab9209650c91563ca2ea032cb9e0088b418de1c261782b896bc49e80cdb2a0dafee0755eb98e2d6977067",
      "networkId": 0,
      "chainId": 0
    },
    {
      "hash": "0x46fcbb2d4e7b828b97ca09033d2f3dac529b5005e43ec9380153d56196adda84",
      "blockHash": "0x610cef03f3962198e051153dbf82bfb781d6c75c51a693f77fdba2b5ef67ca49",
      "blockNumber": 74237,
      "transactionIndex": 18,
      "confirmations": null,
      "from": "0xe6A7a1d47ff21B6321162AEA7C6CB457D5476Bca",
      "gasPrice": {
        "_hex": "0xcb8a30ac7"
      },
      "gasLimit": {
        "_hex": "0x55f0"
      },
      "to": "0x62C0628EeA08203A030EE278217315fD43A5d57A",
      "value": {
        "_hex": "0x1643be1b38c97910"
      },
      "nonce": 717,
      "data": "0x",
      "r": "0xb8545f6ea4cd2b0b63377ca1a5bc29694268e036dc9ef9030ea12c0dc49cf072",
      "s": "0x64deae197f697031f745d12d84b3495e252d187e99cf568bde40af38ee607a07",
      "v": 27,
      "creates": null,
      "raw": "0xf86e8202cd850cb8a30ac78255f09462c0628eea08203a030ee278217315fd43a5d57a881643be1b38c97910801ba0b8545f6ea4cd2b0b63377ca1a5bc29694268e036dc9ef9030ea12c0dc49cf072a064deae197f697031f745d12d84b3495e252d187e99cf568bde40af38ee607a07",
      "networkId": 0,
      "chainId": 0
    },
    {
      "hash": "0xefa975ded451800c2c2e79a59b4a78b8ca949413c719601f033ca9b05699406e",
      "blockHash": "0x610cef03f3962198e051153dbf82bfb781d6c75c51a693f77fdba2b5ef67ca49",
      "blockNumber": 74237,
      "transactionIndex": 19,
      "confirmations": null,
      "from": "0xe6A7a1d47ff21B6321162AEA7C6CB457D5476Bca",
      "gasPrice": {
        "_hex": "0xcb8a30ac7"
      },
      "gasLimit": {
        "_hex": "0x55f0"
      },
      "to": "0x3234d29E2390E0Ac637B3ad0ACA3dF88aC82dC5d",
      "value": {
        "_hex": "0x16f7daab1bf03340"
      },
      "nonce": 718,
      "data": "0x",
      "r": "0x7160f20fe616af4cfc4b953873a075bdae66584f0f50883b0aa54a1e82381abd",
      "s": "0x25bb635f5ead3a2eecb9fed14aba6eb4c5884d797bb1cea40cf05eb89255d11e",
      "v": 28,
      "creates": null,
      "raw": "0xf86e8202ce850cb8a30ac78255f0943234d29e2390e0ac637b3ad0aca3df88ac82dc5d8816f7daab1bf03340801ca07160f20fe616af4cfc4b953873a075bdae66584f0f50883b0aa54a1e82381abda025bb635f5ead3a2eecb9fed14aba6eb4c5884d797bb1cea40cf05eb89255d11e",
      "networkId": 0,
      "chainId": 0
    }
  ]
}