{
  "hash": "0xea5a7713f38be4f8e6b7f30b225141baa2b811d90895b7bf4e943dfbab462153",
  "parentHash": "0x0b284010d1f85840310b627545da3940bde5623c5bcc323a7430447b87a7fc97",
  "number": 48045,
  "timestamp": 1438950336,
  "nonce": "0xf6faf80c08153226",
  "difficulty": 1465089106196,
  "gasLimit": {
    "_hex": "0x11fd2"
  },
  "gasUsed": {
    "_hex": "0x5208"
  },
  "miner": "0xe6A7a1d47ff21B6321162AEA7C6CB457D5476Bca",
  "extraData": "0x657468706f6f6c2e6f7267",
  "transactions": [
    {
      "hash": "0x660f9400988bc44fc15bb4541519651ea74cb457b6ab4dc2c972ee88e516ee66",
      "blockHash": "0xea5a7713f38be4f8e6b7f30b225141baa2b811d90895b7bf4e943dfbab462153",
      "blockNumber": 48045,
      "transactionIndex": 0,
      "confirmations": null,
      "from": "0x910a4aADabb3A7B3F7879118332E13Da66b68D77",
      "gasPrice": {
        "_hex": "0xd996179bd"
      },
      "gasLimit": {
        "_hex": "0x5208"
      },
      "to": "0x32Be343B94f860124dC4fEe278FDCBD38C102D88",
      "value": {
        "_hex": "0x56bc3036689ea4000"
      },
      "nonce": 1,
      "data": "0x",
      "r": "0x0a0efe9b78d6cdf4c36b4ce68f6811ad632cc5b508278eb44edc1f61a1af2880",
      "s": "0x7ee012a62cc9987e1a90696391bdb72274c9d2dbd7019288274a5608a6be9037",
      "v": 28,
      "creates": null,
      "raw": "0xf86d01850d996179bd8252089432be343b94f860124dc4fee278fdcbd38c102d8889056bc3036689ea4000801ca00a0efe9b78d6cdf4c36b4ce68f6811ad632cc5b508278eb44edc1f61a1af2880a07ee012a62cc9987e1a90696391bdb72274c9d2dbd7019288274a5608a6be9037",
      "networkId": 0,
      "chainId": 0
    }
  ]
}