{
  "hash": "0x27affe1277c1cf1000c53aa7025a353ce134664cba9e2804d8dcf34870d6dda7",
  "parentHash": "0x5ab311f5696092cb63a1a94830031a000df9a26e03d30a58ae1555c922e655b0",
  "number": 108145,
  "timestamp": 1439934896,
  "nonce": "0xa43a59c05784efa0",
  "difficulty": 4381060132462,
  "gasLimit": {
    "_hex": "0x2fefd8"
  },
  "gasUsed": {
    "_hex": "0x5208"
  },
  "miner": "0xe6A7a1d47ff21B6321162AEA7C6CB457D5476Bca",
  "extraData": "0x476574682f76312e302e312d38326566323666362f6c696e75782f676f312e34",
  "transactions": [
    {
      "hash": "0xa3237ae99a830b4ada4ab71d8525e9dcf428849d2f14c9a64e44b0e122779b8a",
      "blockHash": "0x27affe1277c1cf1000c53aa7025a353ce134664cba9e2804d8dcf34870d6dda7",
      "blockNumber": 108145,
      "transactionIndex": 0,
      "confirmations": null,
      "from": "0x32Be343B94f860124dC4fEe278FDCBD38C102D88",
      "gasPrice": {
        "_hex": "0xdc89a2855"
      },
      "gasLimit": {
        "_hex": "0x5208"
      },
      "to": "0x88a0A05437262a1b65f41A978Cb16CB1f0BFCfE0",
      "value": {
        "_hex": "0x1b8fb07a4bed0000"
      },
      "nonce": 1241,
      "data": "0x",
      "r": "0x0ea780c81f8079baa77204558e5f17688947b93648c31e598f9bd8876039d8f1",
      "s": "0x5ac09b3508839bb954146f00fc35ac32b336f5a7de1c559aea93812d5eb7c601",
      "v": 27,
      "creates": null,
      "raw": "0xf86e8204d9850dc89a28558252089488a0a05437262a1b65f41a978cb16cb1f0bfcfe0881b8fb07a4bed0000801ba00ea780c81f8079baa77204558e5f17688947b93648c31e598f9bd8876039d8f1a05ac09b3508839bb954146f00fc35ac32b336f5a7de1c559aea93812d5eb7c601",
      "networkId": 0,
      "chainId": 0
    }
  ]
}