{
  "hash": "0x693522753ccee31934376c24bf666889e6d43291943a41e706d07dc27e4af807",
  "parentHash": "0xd2e51aa0f473b48b7d820aba0634f9f978b7fa6952ab40faf08ff925099dac5f",
  "number": 116574,
  "timestamp": 1440090445,
  "nonce": "0xcdf7501ce86b43fd",
  "difficulty": 4508980514064,
  "gasLimit": {
    "_hex": "0x2fefd8"
  },
  "gasUsed": {
    "_hex": "0xa410"
  },
  "miner": "0x608f4b86321a68453f9adf6F06F7Fc3E621739ad",
  "extraData": "0xd783010002844765746887676f312e342e32856c696e7578",
  "transactions": [
    {
      "hash": "0x4d21b8d2b466b0505b81e2c71da16f31057c712937393d7dda2b3590144069b9",
      "blockHash": "0x693522753ccee31934376c24bf666889e6d43291943a41e706d07dc27e4af807",
      "blockNumber": 116574,
      "transactionIndex": 0,
      "confirmations": null,
      "from": "0x3FEe2E5f121CFb9d6D9BAb6Cec64eb60585124d4",
      "gasPrice": {
        "_hex": "0xcd774d677"
      },
      "gasLimit": {
        "_hex": "0x15f90"
      },
      "to": "0xa8741ea717952dcD7512Ff652E40d02C609f7CAf",
      "value": {
        "_hex": "0x8ac7230489e80000"
      },
      "nonce": 2,
      "data": "0x",
      "r": "0xa828f9265968a425eb1bb18ac20da27432e78ce6d965cecd59ca5c2afdd8fbf7",
      "s": "0x73b16f2425ad2b8a71b3bb4bbea706b6a466217e52aebf1451d4ccb550c30249",
      "v": 27,
      "creates": null,
      "raw": "0xf86d02850cd774d67783015f9094a8741ea717952dcd7512ff652e40d02c609f7caf888ac7230489e80000801ba0a828f9265968a425eb1bb18ac20da27432e78ce6d965cecd59ca5c2afdd8fbf7a073b16f2425ad2b8a71b3bb4bbea706b6a466217e52aebf1451d4ccb550c30249",
      "networkId": 0,
      "chainId": 0
    },
    {
      "hash": "0xbf02e050d86cfc14b58f79e5adbbc29fe24f5fbc1f20d75db4b9eed8f7c03b7f",
      "blockHash": "0x693522753ccee31934376c24bf666889e6d43291943a41e706d07dc27e4af807",
      "blockNumber": 116574,
      "transactionIndex": 1,
      "confirmations": null,
      "from": "0x3FEe2E5f121CFb9d6D9BAb6Cec64eb60585124d4",
      "gasPrice": {
        "_hex": "0xcd774d677"
      },
      "gasLimit": {
        "_hex": "0x15f90"
      },
      "to": "0xa8741ea717952dcD7512Ff652E40d02C609f7CAf",
      "value": {
        "_hex": "0x8ac7230489e80000"
      },
      "nonce": 3,
      "data": "0x",
      "r": "0xc715a2ee99b9dd99a86ef5883ed74ddb02d30a91efd11e8f8941c12f915a2e44",
      "s": "0x60e747b96ff36ebce0b5118809b6da10cfeaf4b474faf5805570bc596a76174c",
      "v": 27,
      "creates": null,
      "raw": "0xf86d03850cd774d67783015f9094a8741ea717952dcd7512ff652e40d02c609f7caf888ac7230489e80000801ba0c715a2ee99b9dd99a86ef5883ed74ddb02d30a91efd11e8f8941c12f915a2e44a060e747b96ff36ebce0b5118809b6da10cfeaf4b474faf5805570bc596a76174c",
      "networkId": 0,
      "chainId": 0
    }
  ]
}