{
  "hash": "0x28087a2dd04e71897037bd8b6b156234cc7ca060acd9054b1a4dda587f6552ea",
  "parentHash": "0xc1333a4837486e5b16f139a6d3066be326af70b306fa25b68beb793bb45c0404",
  "number": 56941,
  "timestamp": 1439094943,
  "nonce": "0x49bf6f4105a2f297",
  "difficulty": 1711047216417,
  "gasLimit": {
    "_hex": "0x2fefd8"
  },
  "gasUsed": {
    "_hex": "0x5208"
  },
  "miner": "0x400fb5A6482E54E44b2250E75251707514c605C1",
  "extraData": "0x476574682f76312e302e312f77696e646f77732f676f312e342e32",
  "transactions": [
    {
      "hash": "0x9751a346a670d4a1dc0807fef75a5abbf60340a00cadeb040b3af3cd96ac9406",
      "blockHash": "0x28087a2dd04e71897037bd8b6b156234cc7ca060acd9054b1a4dda587f6552ea",
      "blockNumber": 56941,
      "transactionIndex": 0,
      "confirmations": null,
      "from": "0x5a9bC4FDfE098D03128afDCCa4Ff1Ae24fEc72bC",
      "gasPrice": {
        "_hex": "0xcc43c1b99"
      },
      "gasLimit": {
        "_hex": "0x5208"
      },
      "to": "0x32Be343B94f860124dC4fEe278FDCBD38C102D88",
      "value": {
        "_hex": "0x114aff929c154a0000"
      },
      "nonce": 0,
      "data": "0x",
      "r": "0xc1adefd2c96084942f4e7d4293e02bde290914c6551b437b4e4a8228146a8611",
      "s": "0x791fe985f3751505747a9dc9baf5f35c5e3e959e4e429c3c38216fbec68b1ec8",
      "v": 27,
      "creates": null,
      "raw": "0xf86d80850cc43c1b998252089432be343b94f860124dc4fee278fdcbd38c102d8889114aff929c154a0000801ba0c1adefd2c96084942f4e7d4293e02bde290914c6551b437b4e4a8228146a8611a0791fe985f3751505747a9dc9baf5f35c5e3e959e4e429c3c38216fbec68b1ec8",
      "networkId": 0,
      "chainId": 0
    }
  ]
}