{
  "hash": "0x03271bfae61d882cad759a847cb3032d453293aefb6f176960f363787e9975ee",
  "parentHash": "0xa68cb445d4023084c240f9bc74af47fddb9dc9fd9fd90fa89ee340457c14a691",
  "number": 114190,
  "timestamp": 1440036383,
  "nonce": "0x271ddf83cfd1a3b0",
  "difficulty": 4449017995975,
  "gasLimit": {
    "_hex": "0x2fefd8"
  },
  "gasUsed": {
    "_hex": "0x5208"
  },
  "miner": "0xC0EdE9a639d107851462c15f2fb729c7c61bBf62",
  "extraData": "0xda8098302e392e34312b2b302d524c696e75782f672b2b2f696e74",
  "transactions": [
    {
      "hash": "0x8af0b7099c04fa95e04ff73dc5de48901d393a6ac43604d3a069b7577c70fbd0",
      "blockHash": "0x03271bfae61d882cad759a847cb3032d453293aefb6f176960f363787e9975ee",
      "blockNumber": 114190,
      "transactionIndex": 0,
      "confirmations": null,
      "from": "0x6Ea9d172E15e969316f49CB2D5549fc3b00c1ef3",
      "gasPrice": {
        "_hex": "0xd090e41a0"
      },
      "gasLimit": {
        "_hex": "0x5208"
      },
      "to": "0xFBb1b73C4f0BDa4f67dcA266ce6Ef42f520fBB98",
      "value": {
        "_hex": "0x3635a1f9849567b300"
      },
      "nonce": 3,
      "data": "0x",
      "r": "0x4ba5028dde6116bf821ce94889c6180e649f76d8883b5a7d95779fedea5a87a9",
      "s": "0x4846795ee0b41b1777018c3de32d2eeebf47a43344159d89c5747286f4f787a7",
      "v": 28,
      "creates": null,
      "raw": "0xf86d03850d090e41a082520894fbb1b73c4f0bda4f67dca266ce6ef42f520fbb98893635a1f9849567b300801ca04ba5028dde6116bf821ce94889c6180e649f76d8883b5a7d95779fedea5a87a9a04846795ee0b41b1777018c3de32d2eeebf47a43344159d89c5747286f4f787a7",
      "networkId": 0,
      "chainId": 0
    }
  ]
}