{
  "hash": "0xb4959a4bf391760eec18cf9242e05d4adc93cdeec83993dfa08636d389f5eefa",
  "parentHash": "0x7bd60007af7621442d83d6a293de2ec3e64e1244d8901a48345d215f71b6579c",
  "number": 68853,
  "timestamp": 1439294758,
  "nonce": "0xfd5d492d8e33a50c",
  "difficulty": 2015212491427,
  "gasLimit": {
    "_hex": "0x2fefd8"
  },
  "gasUsed": {
    "_hex": "0x5208"
  },
  "miner": "0xbb7B8287f3F0a933474a79eAe42CBCa977791171",
  "extraData": "0x476574682f4c5649562f76312e302e312f6c696e75782f676f312e342e32",
  "transactions": [
    {
      "hash": "0x12227728e8e2f61f1e3991a56633e3da41bc5abf73c5d2ab39e2e2f35b959f74",
      "blockHash": "0xb4959a4bf391760eec18cf9242e05d4adc93cdeec83993dfa08636d389f5eefa",
      "blockNumber": 68853,
      "transactionIndex": 0,
      "confirmations": null,
      "from": "0x6747f922385c9a6F9cfDf095F34345257DD597bE",
      "gasPrice": {
        "_hex": "0xba43b7400"
      },
      "gasLimit": {
        "_hex": "0x5208"
      },
      "to": "0x7C5191bc059f505e703562A0570B2b9dae481C75",
      "value": {
        "_hex": "0x1fcbfa42bd6000"
      },
      "nonce": 129,
      "data": "0x",
      "r": "0x223eebc54481af31cb99238423fa7ac790c85c2e826381d3df964ae8eedf6c50",
      "s": "0x37989cda627eff713204655395516fe465a87f651c5d927a5728bf87030b9b94",
      "v": 27,
      "creates": null,
      "raw": "0xf86c8181850ba43b7400825208947c5191bc059f505e703562a0570b2b9dae481c75871fcbfa42bd6000801ba0223eebc54481af31cb99238423fa7ac790c85c2e826381d3df964ae8eedf6c50a037989cda627eff713204655395516fe465a87f651c5d927a5728bf87030b9b94",
      "networkId": 0,
      "chainId": 0
    }
  ]
}