{
  "hash": "0xd1817d582b561c022ddab648252bb33c10c53524cad82463417e10027e923525",
  "parentHash": "0x8dd5cb1a6b8dd36ec744409f44b1a60b71715de30ee6437409fc4b70f47acc25",
  "number": 64460,
  "timestamp": 1439221051,
  "nonce": "0x809664d194b63c82",
  "difficulty": 1878451081181,
  "gasLimit": {
    "_hex": "0x2fefd8"
  },
  "gasUsed": {
    "_hex": "0x5208"
  },
  "miner": "0xbb7B8287f3F0a933474a79eAe42CBCa977791171",
  "extraData": "0x476574682f4c5649562f76312e302e312f6c696e75782f676f312e342e32",
  "transactions": [
    {
      "hash": "0x1d6ec5eb97daefd03f1866c05325966858d9cdfde83fc870c1bb6f2534b81ac8",
      "blockHash": "0xd1817d582b561c022ddab648252bb33c10c53524cad82463417e10027e923525",
      "blockNumber": 64460,
      "transactionIndex": 0,
      "confirmations": null,
      "from": "0x21b7afa908859FF2EDAAE67ED02dC97f2ebF7089",
      "gasPrice": {
        "_hex": "0xba43b7400"
      },
      "gasLimit": {
        "_hex": "0x5208"
      },
      "to": "0x6747f922385c9a6F9cfDf095F34345257DD597bE",
      "value": {
        "_hex": "0x3aaa1f49517000"
      },
      "nonce": 1,
      "data": "0x",
      "r": "0xea10cec12ef2f88131634b0c5c8e457ae9b78d15192a9f1362ef1c36ef433d26",
      "s": "0x3c81dd1b9d8e7172182656dbe043fd1e8d0e150b0d7641e3be65c475ca0d86b6",
      "v": 28,
      "creates": null,
      "raw": "0xf86b01850ba43b7400825208946747f922385c9a6f9cfdf095f34345257dd597be873aaa1f49517000801ca0ea10cec12ef2f88131634b0c5c8e457ae9b78d15192a9f1362ef1c36ef433d26a03c81dd1b9d8e7172182656dbe043fd1e8d0e150b0d7641e3be65c475ca0d86b6",
      "networkId": 0,
      "chainId": 0
    }
  ]
}