{
  "hash": "0x51eb52108715d05364033ee7ad87c9dc782aa8fcd79a9676bc8bf034a45ea2a0",
  "parentHash": "0x58810c6b0cfac5cf1001c307a1e16e26d0ad7257294f1b8278fa5867370221fa",
  "number": 79740,
  "timestamp": 1439474426,
  "nonce": "0xcf9fcd504caae68d",
  "difficulty": 2344937751295,
  "gasLimit": {
    "_hex": "0x2fefd8"
  },
  "gasUsed": {
    "_hex": "0x8f3d"
  },
  "miner": "0xbb7B8287f3F0a933474a79eAe42CBCa977791171",
  "extraData": "0x476574682f4c5649562f76312e302e312f6c696e75782f676f312e342e32",
  "transactions": [
    {
      "hash": "0x1c743178711c677b4a5a01a05f6c7108ae9975d2edc8604f2dccbd0aaa2e877b",
      "blockHash": "0x51eb52108715d05364033ee7ad87c9dc782aa8fcd79a9676bc8bf034a45ea2a0",
      "blockNumber": 79740,
      "transactionIndex": 0,
      "confirmations": null,
      "from": "0x775e18be7A50a0Abb8A4e82B1bD697D79F31fE04",
      "gasPrice": {
        "_hex": "0xe1a7fb0b3"
      },
      "gasLimit": {
        "_hex": "0xf4240"
      },
      "to": "0xde0B295669a9FD93d5F28D9Ec85E40f4cb697BAe",
      "value": {
        "_hex": "0x0"
      },
      "nonce": 4,
      "data": "0xf00d4b5d0000000000000000000000007c56d94ebeccb769524379c450873519a9d805ff0000000000000000000000000037a6b811ffeb6e072da21179d11b1406371c63",
      "r": "0x265dd678a1cb97082e0865ea87276c357762b8898b800f2a684f394e10874e0b",
      "s": "0x7c378784f7d62c2d9f3a969f90c4a9b582645e624d59046ba38b11cf96945c65",
      "v": 28,
      "creates": null,
      "raw": "0xf8aa04850e1a7fb0b3830f424094de0b295669a9fd93d5f28d9ec85e40f4cb697bae80b844f00d4b5d0000000000000000000000007c56d94ebeccb769524379c450873519a9d805ff0000000000000000000000000037a6b811ffeb6e072da21179d11b1406371c631ca0265dd678a1cb97082e0865ea87276c357762b8898b800f2a684f394e10874e0ba07c378784f7d62c2d9f3a969f90c4a9b582645e624d59046ba38b11cf96945c65",
      "networkId": 0,
      "chainId": 0
    }
  ]
}