{
  "hash": "0x24ab639f7d7a5b1d182c0ffb5bbc3bdaa4f98de99d3d948b60f0447d981b70c9",
  "parentHash": "0xf4a5a8abed2e4467bcdc6bdd7f0573b895b2f7d63e7165d692e99b60865a6e08",
  "number": 48608,
  "timestamp": 1438959785,
  "nonce": "0x8a66ea0bb5c8fadc",
  "difficulty": 1468571787777,
  "gasLimit": {
    "_hex": "0x1a7af"
  },
  "gasUsed": {
    "_hex": "0x546c"
  },
  "miner": "0x0eDEd3DA479d0beF8eeC92A76644D3f4E3C177f7",
  "extraData": "0x476574682f76312e302e312f6c696e75782f676f312e342e32",
  "transactions": [
    {
      "hash": "0xffb0677441236e7212d25a560cdb216b348ffebdbc9e4b8fcbf8ba0428df599c",
      "blockHash": "0x24ab639f7d7a5b1d182c0ffb5bbc3bdaa4f98de99d3d948b60f0447d981b70c9",
      "blockNumber": 48608,
      "transactionIndex": 0,
      "confirmations": null,
      "from": "0xabc4cAEB474d4627Cb6EB456ECbA0ecd08ed8aE1",
      "gasPrice": {
        "_hex": "0x110c8f7d8de"
      },
      "gasLimit": {
        "_hex": "0xc350"
      },
      "to": "0x2910543Af39abA0Cd09dBb2D50200b3E800A63D2",
      "value": {
        "_hex": "0xd36b5f58ea17700000"
      },
      "nonce": 0,
      "data": "0x454e414b4e36364530",
      "r": "0xb0372079b2f9983d08d736fd41d0c21ea11a50c94b7c8649ebb3258934130511",
      "s": "0xf14ba0f7d41237a19b42f29df9c4e9884d327064bbd8377a3d7cd5107d1a8ad9",
      "v": 28,
      "creates": null,
      "raw": "0xf87780860110c8f7d8de82c350942910543af39aba0cd09dbb2d50200b3e800a63d289d36b5f58ea1770000089454e414b4e363645301ca0b0372079b2f9983d08d736fd41d0c21ea11a50c94b7c8649ebb3258934130511a0f14ba0f7d41237a19b42f29df9c4e9884d327064bbd8377a3d7cd5107d1a8ad9",
      "networkId": 0,
      "chainId": 0
    }
  ]
}