{
  "hash": "0x289d21c45ae08bf71aa9fa23e11c96c684d57c3bf2cd3fbdc5bc67be0884e54b",
  "parentHash": "0xd3c0d3d62d520a4bc392ac4610d0b4f543603ee532b3f7ff51d2932ed0acbdb2",
  "number": 48037,
  "timestamp": 1438950220,
  "nonce": "0xd360c7b8e5256b6b",
  "difficulty": 1465090503414,
  "gasLimit": {
    "_hex": "0x11e0f"
  },
  "gasUsed": {
    "_hex": "0x5208"
  },
  "miner": "0x24339341F29d2aaD7d3c591c0f9931e7D4bFEd6e",
  "extraData": "0x476574682f76312e302e312f6c696e75782f676f312e342e32",
  "transactions": [
    {
      "hash": "0x5ed379bb0b2faff3188ee64d632e8c2295585075243256fdb26abf8fa726a25a",
      "blockHash": "0x289d21c45ae08bf71aa9fa23e11c96c684d57c3bf2cd3fbdc5bc67be0884e54b",
      "blockNumber": 48037,
      "transactionIndex": 0,
      "confirmations": null,
      "from": "0xC759dc67E0c3816fdC56A2f5bb29920fc07e767D",
      "gasPrice": {
        "_hex": "0xcc1921d1e"
      },
      "gasLimit": {
        "_hex": "0x5208"
      },
      "to": "0x910a4aADabb3A7B3F7879118332E13Da66b68D77",
      "value": {
        "_hex": "0x56bc75e2d63100000"
      },
      "nonce": 1,
      "data": "0x",
      "r": "0x92f95bd592545ff8398c382fcbe393f0943fdfad4604005c327a3b305a0c837c",
      "s": "0x053bcac0e44c46c4ad444c5235596b7dd82041a86202fe7cc394033f046ff4db",
      "v": 27,
      "creates": null,
      "raw": "0xf86d01850cc1921d1e82520894910a4aadabb3a7b3f7879118332e13da66b68d7789056bc75e2d63100000801ba092f95bd592545ff8398c382fcbe393f0943fdfad4604005c327a3b305a0c837ca0053bcac0e44c46c4ad444c5235596b7dd82041a86202fe7cc394033f046ff4db",
      "networkId": 0,
      "chainId": 0
    }
  ]
}