{
  "hash": "0x53ac0a07c0205e8af3fcf709e66c49a67ffe2a0ca15c77fd51d81e7cf6e773cb",
  "parentHash": "0xe9ada7e0e9023aab5790dc904f709d33975cba0b1f78e7d37c193839328dfa30",
  "number": 102738,
  "timestamp": 1439842470,
  "nonce": "0x8ba9ef9d956bb662",
  "difficulty": 4036652508049,
  "gasLimit": {
    "_hex": "0x2fefd8"
  },
  "gasUsed": {
    "_hex": "0x5208"
  },
  "miner": "0xe6A7a1d47ff21B6321162AEA7C6CB457D5476Bca",
  "extraData": "0x476574682f76312e302e312d38326566323666362f6c696e75782f676f312e34",
  "transactions": [
    {
      "hash": "0x97647d434a00e4f0392844b2810dd344e0eda2271a9ee56de5550ace614cbed7",
      "blockHash": "0x53ac0a07c0205e8af3fcf709e66c49a67ffe2a0ca15c77fd51d81e7cf6e773cb",
      "blockNumber": 102738,
      "transactionIndex": 0,
      "confirmations": null,
      "from": "0x32Be343B94f860124dC4fEe278FDCBD38C102D88",
      "gasPrice": {
        "_hex": "0xdb6c46464"
      },
      "gasLimit": {
        "_hex": "0x5208"
      },
      "to": "0x46Aa501870677e7f0A504876b4E8801A0ad01C46",
      "value": {
        "_hex": "0x568dd4c4a383b0000"
      },
      "nonce": 1111,
      "data": "0x",
      "r": "0x0aff29789367c20fa06d52e12ebf6ee2db0256a1e64a8874bce6e463618cc583",
      "s": "0x33d0660558be7ada72dfe62f77776cb44a499478f4d1d00148ccda19d907fcb3",
      "v": 28,
      "creates": null,
      "raw": "0xf86f820457850db6c464648252089446aa501870677e7f0a504876b4e8801a0ad01c46890568dd4c4a383b0000801ca00aff29789367c20fa06d52e12ebf6ee2db0256a1e64a8874bce6e463618cc583a033d0660558be7ada72dfe62f77776cb44a499478f4d1d00148ccda19d907fcb3",
      "networkId": 0,
      "chainId": 0
    }
  ]
}