{
  "hash": "0x2a0cd02cb067d7fbc0ad88d8ae38f1fc408d6b7b36a29cafc993834c8268ed48",
  "parentHash": "0xa94c5d7231a54f4ae3a9f243a7002aa06d8d9d83480482901ddaa7ae1e8e423f",
  "number": 99203,
  "timestamp": 1439786072,
  "nonce": "0x058e0e74e5909d24",
  "difficulty": 3802955652805,
  "gasLimit": {
    "_hex": "0x2fefd8"
  },
  "gasUsed": {
    "_hex": "0xa410"
  },
  "miner": "0x004B37d3e250EB1826Fc6a587DEDdc18E7bE6F6f",
  "extraData": "0xd983010001844765746887676f312e342e328777696e646f7773",
  "transactions": [
    {
      "hash": "0x4feb665aa3f5e7f99b4bd4e6ed6b207064c293d496bc74adb54f732ee675a5f6",
      "blockHash": "0x2a0cd02cb067d7fbc0ad88d8ae38f1fc408d6b7b36a29cafc993834c8268ed48",
      "blockNumber": 99203,
      "transactionIndex": 0,
      "confirmations": null,
      "from": "0x2910543Af39abA0Cd09dBb2D50200b3E800A63D2",
      "gasPrice": {
        "_hex": "0xdb977236b"
      },
      "gasLimit": {
        "_hex": "0x5208"
      },
      "to": "0x24D0Da385D0ae2Eb116f76339382d2f43dE64340",
      "value": {
        "_hex": "0x1f442d2e55e66a4000"
      },
      "nonce": 941,
      "data": "0x",
      "r": "0xca0afed8a2da55514d393b3f0ce038dcbb674969a9d0bb7c0e2d296fa5bef46d",
      "s": "0x2adc6151ca9eb9db6db8bad28934c48264467b631e63c7d7f1f80378f41cc85d",
      "v": 27,
      "creates": null,
      "raw": "0xf86f8203ad850db977236b8252089424d0da385d0ae2eb116f76339382d2f43de64340891f442d2e55e66a4000801ba0ca0afed8a2da55514d393b3f0ce038dcbb674969a9d0bb7c0e2d296fa5bef46da02adc6151ca9eb9db6db8bad28934c48264467b631e63c7d7f1f80378f41cc85d",
      "networkId": 0,
      "chainId": 0
    },
    {
      "hash": "0x288ded9d287680ce1146a9eebe9a2fc59e8edf4f5de62443db01326b755785a9",
      "blockHash": "0x2a0cd02cb067d7fbc0ad88d8ae38f1fc408d6b7b36a29cafc993834c8268ed48",
      "blockNumber": 99203,
      "transactionIndex": 1,
      "confirmations": null,
      "from": "0x0D4EcC7d750180EBf4A9Df728B6669B5Bceb5E40",
      "gasPrice": {
        "_hex": "0xd47808dcb"
      },
      "gasLimit": {
        "_hex": "0x5208"
      },
      "to": "0x32Be343B94f860124dC4fEe278FDCBD38C102D88",
      "value": {
        "_hex": "0x4563a17872780c00"
      },
      "nonce": 53,
      "data": "0x",
      "r": "0xa4745c896248c9bcb396989bbd28a20b6caaba2dabe2ec36eabb8cfa65594884",
      "s": "0x7a961789f31fe9bffaf636556a6a4b916f5d8ba97498fecdc650e5d16179525b",
      "v": 27,
      "creates": null,
      "raw": "0xf86c35850d47808dcb8252089432be343b94f860124dc4fee278fdcbd38c102d88884563a17872780c00801ba0a4745c896248c9bcb396989bbd28a20b6caaba2dabe2ec36eabb8cfa65594884a07a961789f31fe9bffaf636556a6a4b916f5d8ba97498fecdc650e5d16179525b",
      "networkId": 0,
      "chainId": 0
    }
  ]
}