{
  "hash": "0x1142c502a0656c69b1fe4f636f262e36210329a3ad7c01e36206396fb26d5b43",
  "parentHash": "0xf9388a6cb6e44cacf172cc572f0363ed0f00673519a1fb0289ef11e8dbb28f12",
  "number": 118947,
  "timestamp": 1440134147,
  "nonce": "0x07f915a30d4ea1df",
  "difficulty": 4396838889250,
  "gasLimit": {
    "_hex": "0x2fefd8"
  },
  "gasUsed": {
    "_hex": "0x5208"
  },
  "miner": "0x52bc44d5378309EE2abF1539BF71dE1b7d7bE3b5",
  "extraData": "0xd783010002844765746887676f312e342e32856c696e7578",
  "transactions": [
    {
      "hash": "0x49b33a14a1610c99b3c961e0d5d4e6e8469d16195cc9b4743057be353018b609",
      "blockHash": "0x1142c502a0656c69b1fe4f636f262e36210329a3ad7c01e36206396fb26d5b43",
      "blockNumber": 118947,
      "transactionIndex": 0,
      "confirmations": null,
      "from": "0x007f7f58D3eb5b7510A301eCC749FC1fCDDBE14D",
      "gasPrice": {
        "_hex": "0xba43b7400"
      },
      "gasLimit": {
        "_hex": "0x15f90"
      },
      "to": "0xb1abce2918E21ddb93AA452731a12672A3d9F75a",
      "value": {
        "_hex": "0x4563918244f40000"
      },
      "nonce": 351,
      "data": "0x",
      "r": "0x82b809a44f309705808d250e49e2b634307fee185cbd9d85986d1f6be8066893",
      "s": "0x7c21a274f18eff6a478c9d665284de319f95201aa51cc1d643ff41969ca77ba4",
      "v": 28,
      "creates": null,
      "raw": "0xf86f82015f850ba43b740083015f9094b1abce2918e21ddb93aa452731a12672a3d9f75a884563918244f40000801ca082b809a44f309705808d250e49e2b634307fee185cbd9d85986d1f6be8066893a07c21a274f18eff6a478c9d665284de319f95201aa51cc1d643ff41969ca77ba4",
      "networkId": 0,
      "chainId": 0
    }
  ]
}