{
  "hash": "0xbd9776378d0a489e31a18e191219dff338f52543eccf3d8381b1314c54e0e496",
  "parentHash": "0x9e27a995d9ff2b3d5876c777e349cb3b7d6e5d179604fd01ea227eb748630c2b",
  "number": 72855,
  "timestamp": 1439359219,
  "nonce": "0x074a80c74ac40f8f",
  "difficulty": 2190723710480,
  "gasLimit": {
    "_hex": "0x2fefd8"
  },
  "gasUsed": {
    "_hex": "0x1b198"
  },
  "miner": "0x5F8F73E26CdF436f19Cb24C82F90A15AFe55b592",
  "extraData": "0x476574682f76312e302e312f77696e646f77732f676f312e342e32",
  "transactions": [
    {
      "hash": "0x5f91789159094dccbca0e660d4bb589ebcd86d4a1140c87da4704725d3f53015",
      "blockHash": "0xbd9776378d0a489e31a18e191219dff338f52543eccf3d8381b1314c54e0e496",
      "blockNumber": 72855,
      "transactionIndex": 0,
      "confirmations": null,
      "from": "0x326Be8F71bFb0379f989aAB1CC1fE37f0a771f60",
      "gasPrice": {
        "_hex": "0xfe96a8f7dd"
      },
      "gasLimit": {
        "_hex": "0x15f90"
      },
      "to": "0x070F98b1eC27942F613A73d9e22d0ba60E211668",
      "value": {
        "_hex": "0x3e8"
      },
      "nonce": 16,
      "data": "0x8d21618600000000000000000000000000000000000000000000000000000000000000806361740000000000000000000000000000000000000000000000000000000000",
      "r": "0x30be2c1726ee4ef0ebbfcfaaf30e58ffb131f17eca85682a4ce4fa1b7ecfbab0",
      "s": "0x2fe1729c02caf42aae7db6e40203f3f45fcbbe2ad84c4334f227698816b05313",
      "v": 28,
      "creates": null,
      "raw": "0xf8ac1085fe96a8f7dd83015f9094070f98b1ec27942f613a73d9e22d0ba60e2116688203e8b8448d216186000000000000000000000000000000000000000000000000000000000000008063617400000000000000000000000000000000000000000000000000000000001ca030be2c1726ee4ef0ebbfcfaaf30e58ffb131f17eca85682a4ce4fa1b7ecfbab0a02fe1729c02caf42aae7db6e40203f3f45fcbbe2ad84c4334f227698816b05313",
      "networkId": 0,
      "chainId": 0
    },
    {
      "hash": "0x9ae8e206fa0b16778482525caafcc5b1163b62894a52a63d9fb0cfde91b72b3b",
      "blockHash": "0xbd9776378d0a489e31a18e191219dff338f52543eccf3d8381b1314c54e0e496",
      "blockNumber": 72855,
      "transactionIndex": 1,
      "confirmations": null,
      "from": "0xE2d2df4fa47EBDEbDE9F4fC0845CA35f8081fC59",
      "gasPrice": {
        "_hex": "0xe201da87d"
      },
      "gasLimit": {
        "_hex": "0x5208"
      },
      "to": "0x32Be343B94f860124dC4fEe278FDCBD38C102D88",
      "value": {
        "_hex": "0x5d4e7a7a7055d000"
      },
      "nonce": 0,
      "data": "0x",
      "r": "0x4278b644dd508cd70bfe46d7b382205179ad4f181c4db007291019174862256c",
      "s": "0x0280f63dd27aac2f2c6bc1f0b31f75afc735c9aefb20e30fbf525b75e597b894",
      "v": 27,
      "creates": null,
      "raw": "0xf86c80850e201da87d8252089432be343b94f860124dc4fee278fdcbd38c102d88885d4e7a7a7055d000801ba04278b644dd508cd70bfe46d7b382205179ad4f181c4db007291019174862256ca00280f63dd27aac2f2c6bc1f0b31f75afc735c9aefb20e30fbf525b75e597b894",
      "networkId": 0,
      "chainId": 0
    }
  ]
}