{
  "hash": "0xd8befbb4541846807a39baa094e802cf5b1febb22a9090d4a34f104f4fad4927",
  "parentHash": "0x40e61d50e4b142da08bd9b7ae2374db1629f3cd17b2e4bdf77bb821ea75d6aa6",
  "number": 47665,
  "timestamp": 1438944409,
  "nonce": "0x59c41d6db6ab5efe",
  "difficulty": 1448085895891,
  "gasLimit": {
    "_hex": "0xe01d"
  },
  "gasUsed": {
    "_hex": "0x5208"
  },
  "miner": "0xbb7B8287f3F0a933474a79eAe42CBCa977791171",
  "extraData": "0x476574682f4c5649562f76312e302e312f6c696e75782f676f312e342e32",
  "transactions": [
    {
      "hash": "0xca38f9e79d6d3211e3916480ab1f22f117f52cf13d62b118b0d0be41fe2240fb",
      "blockHash": "0xd8befbb4541846807a39baa094e802cf5b1febb22a9090d4a34f104f4fad4927",
      "blockNumber": 47665,
      "transactionIndex": 0,
      "confirmations": null,
      "from": "0xe6A7a1d47ff21B6321162AEA7C6CB457D5476Bca",
      "gasPrice": {
        "_hex": "0xcf10f99a1"
      },
      "gasLimit": {
        "_hex": "0x55f0"
      },
      "to": "0xda076E9eE5a5156B3e7F206401899C854fc1d5Fd",
      "value": {
        "_hex": "0x31d81a45e7986f38"
      },
      "nonce": 187,
      "data": "0x",
      "r": "0x80b91010a437272ddfc9e988bcbc7d217435a24acdaccfe8adffbefa9b285748",
      "s": "0x5df8f23b6f88436581a8c10f57fffc7bc67b1d7ddaebcda220aee89050663b35",
      "v": 28,
      "creates": null,
      "raw": "0xf86d81bb850cf10f99a18255f094da076e9ee5a5156b3e7f206401899c854fc1d5fd8831d81a45e7986f38801ca080b91010a437272ddfc9e988bcbc7d217435a24acdaccfe8adffbefa9b285748a05df8f23b6f88436581a8c10f57fffc7bc67b1d7ddaebcda220aee89050663b35",
      "networkId": 0,
      "chainId": 0
    }
  ]
}