{
  "hash": "0x4d4797b59f6b2b8e00e226719932fc86019707f1b58b67e823e1446ef2666f84",
  "parentHash": "0x56ff69c995a4431a6af8358e9f214e88769fd488eebd8e505cc4c63fc2ab1b8c",
  "number": 50897,
  "timestamp": 1438996250,
  "nonce": "0xa36b042f5e7a327f",
  "difficulty": 1551455109806,
  "gasLimit": {
    "_hex": "0x80f07"
  },
  "gasUsed": {
    "_hex": "0x13005"
  },
  "miner": "0x0037ce3d4B7f8729C8607D8D0248252Be68202c0",
  "extraData": "0x476574682f76312e302e312f77696e646f77732f676f312e342e32",
  "transactions": [
    {
      "hash": "0x28d5daa5347c617d6af8a3cb09432ff170dba816132ab25aa3cdc8e1f6f2f1ee",
      "blockHash": "0x4d4797b59f6b2b8e00e226719932fc86019707f1b58b67e823e1446ef2666f84",
      "blockNumber": 50897,
      "transactionIndex": 0,
      "confirmations": null,
      "from": "0x17580B766f7453525ca4C6A88b01b50570EA088C",
      "gasPrice": {
        "_hex": "0xd6c94cb79"
      },
      "gasLimit": {
        "_hex": "0x7a120"
      },
      "to": "0xA327075af2a223A1C83a36aDa1126afE7430f955",
      "value": {
        "_hex": "0x8ac7230489e80000"
      },
      "nonce": 5,
      "data": "0x",
      "r": "0xd00edb531d016411e0e812e5eb516727e46345a8f65a529daa4ebce96e5f19b5",
      "s": "0x106470f164ba85e383521a989974d4f9cf4321fe6ebbf5e961100ef8f50d8fe5",
      "v": 28,
      "creates": null,
      "raw": "0xf86d05850d6c94cb798307a12094a327075af2a223a1c83a36ada1126afe7430f955888ac7230489e80000801ca0d00edb531d016411e0e812e5eb516727e46345a8f65a529daa4ebce96e5f19b5a0106470f164ba85e383521a989974d4f9cf4321fe6ebbf5e961100ef8f50d8fe5",
      "networkId": 0,
      "chainId": 0
    },
    {
      "hash": "0xf924c7f9a3bd0bf4a4d43b119130725169b669c3c2adc3ebf733e16e14b5a8d8",
      "blockHash": "0x4d4797b59f6b2b8e00e226719932fc86019707f1b58b67e823e1446ef2666f84",
      "blockNumber": 50897,
      "transactionIndex": 1,
      "confirmations": null,
      "from": "0x283396ce3CaC398BcBE7227F323e78FF96D08767",
      "gasPrice": {
        "_hex": "0xcfbb1e042"
      },
      "gasLimit": {
        "_hex": "0x15f90"
      },
      "to": "0x17CEa9B05ce30C0870Bc2104C2F9CaB6F3bE8d6B",
      "value": {
        "_hex": "0xb1a2bc2ec50000"
      },
      "nonce": 0,
      "data": "0x",
      "r": "0xe95356510970931aa3d742bd318f5441b915133967cc913daa21b43f8e90eafd",
      "s": "0x7855282a09630a1ea44f67b9c0504c08f4ec7d3710d0503f68ea5825cd869e4d",
      "v": 28,
      "creates": null,
      "raw": "0xf86c80850cfbb1e04283015f909417cea9b05ce30c0870bc2104c2f9cab6f3be8d6b87b1a2bc2ec50000801ca0e95356510970931aa3d742bd318f5441b915133967cc913daa21b43f8e90eafda07855282a09630a1ea44f67b9c0504c08f4ec7d3710d0503f68ea5825cd869e4d",
      "networkId": 0,
      "chainId": 0
    }
  ]
}