{
  "hash": "0x1dd9ba24b3f7ead5c1fa7d2f98592679d16370b278075b8a63481735014ba4d8",
  "parentHash": "0x95711c645c3e2c98097dafa58e651fbdc3a4c46a87ff382962d2836adcc583fa",
  "number": 101152,
  "timestamp": 1439818235,
  "nonce": "0xb03fc51a61a6594b",
  "difficulty": 3863832286777,
  "gasLimit": {
    "_hex": "0x2fefd5"
  },
  "gasUsed": {
    "_hex": "0x5208"
  },
  "miner": "0x9Fa9952255B2b06639A04D63804d4BdFFf6E2d7e",
  "extraData": "0x476574682f76312e302e312f77696e646f77732f676f312e342e32",
  "transactions": [
    {
      "hash": "0x05fc7757d472710f16e801e47dcbf1d34d697bf512773faabd82002b5a485ce4",
      "blockHash": "0x1dd9ba24b3f7ead5c1fa7d2f98592679d16370b278075b8a63481735014ba4d8",
      "blockNumber": 101152,
      "transactionIndex": 0,
      "confirmations": null,
      "from": "0x5864A30B27CC67024cB9501068D11213Fe0aA7d5",
      "gasPrice": {
        "_hex": "0xba43b7400"
      },
      "gasLimit": {
        "_hex": "0x5208"
      },
      "to": "0xC47Aaa860008be6f65B58c6C6E02a84e666EfE31",
      "value": {
        "_hex": "0x10e9a2fb7131a6000"
      },
      "nonce": 0,
      "data": "0x",
      "r": "0x4e60feccaee8e10a4668de8fba9f261e625b56e86b5f37f143eb06e3d98be162",
      "s": "0x7da40b5fdf45b501ac969bb0e781fb098ced4316ccc1a7bbcd12c8f339d96349",
      "v": 27,
      "creates": null,
      "raw": "0xf86d80850ba43b740082520894c47aaa860008be6f65b58c6c6e02a84e666efe3189010e9a2fb7131a6000801ba04e60feccaee8e10a4668de8fba9f261e625b56e86b5f37f143eb06e3d98be162a07da40b5fdf45b501ac969bb0e781fb098ced4316ccc1a7bbcd12c8f339d96349",
      "networkId": 0,
      "chainId": 0
    }
  ]
}