{
  "hash": "0xb0208662a1b6a1698875704dec64b26e0631404e4ee125d8ff44a238ac70acbb",
  "parentHash": "0x061a730f20ad01e44ac7e8ce2e9722ab58c6ecc184597ad944262f3c511c929c",
  "number": 122098,
  "timestamp": 1440188165,
  "nonce": "0x1cb3237e905965c7",
  "difficulty": 4466582176840,
  "gasLimit": {
    "_hex": "0x2fefd8"
  },
  "gasUsed": {
    "_hex": "0xf618"
  },
  "miner": "0x608f4b86321a68453f9adf6F06F7Fc3E621739ad",
  "extraData": "0xd783010002844765746887676f312e342e32856c696e7578",
  "transactions": [
    {
      "hash": "0xb39030d3ae114578ed750f6065791f21a0fcf36d6641190d217b2a2072c4a762",
      "blockHash": "0xb0208662a1b6a1698875704dec64b26e0631404e4ee125d8ff44a238ac70acbb",
      "blockNumber": 122098,
      "transactionIndex": 0,
      "confirmations": null,
      "from": "0xBBDa93a81B882774e1c9b5e3F933Fa35DaC8bc88",
      "gasPrice": {
        "_hex": "0xd30ca713b"
      },
      "gasLimit": {
        "_hex": "0x5208"
      },
      "to": "0x32Be343B94f860124dC4fEe278FDCBD38C102D88",
      "value": {
        "_hex": "0xddc7263b8f80c00"
      },
      "nonce": 20,
      "data": "0x",
      "r": "0x02f366a94531217715dcc86a162ae27cd14ad44cec6deee39d77d8e70fc46b91",
      "s": "0x479ee8b43876ff557f2076ced4d5c12fce6c804f53e4e80c19bd8e286912ac7c",
      "v": 28,
      "creates": null,
      "raw": "0xf86c14850d30ca713b8252089432be343b94f860124dc4fee278fdcbd38c102d88880ddc7263b8f80c00801ca002f366a94531217715dcc86a162ae27cd14ad44cec6deee39d77d8e70fc46b91a0479ee8b43876ff557f2076ced4d5c12fce6c804f53e4e80c19bd8e286912ac7c",
      "networkId": 0,
      "chainId": 0
    },
    {
      "hash": "0xf806b092174e6384a8cb2a0036596b61635f49902f7a6244409a047b85f7885d",
      "blockHash": "0xb0208662a1b6a1698875704dec64b26e0631404e4ee125d8ff44a238ac70acbb",
      "blockNumber": 122098,
      "transactionIndex": 1,
      "confirmations": null,
      "from": "0x2eA971a0F3AC5C4179f5755578b7e8F8eA2fC9A6",
      "gasPrice": {
        "_hex": "0xd0bf33360"
      },
      "gasLimit": {
        "_hex": "0x5208"
      },
      "to": "0x32Be343B94f860124dC4fEe278FDCBD38C102D88",
      "value": {
        "_hex": "0x377ea0c357949000"
      },
      "nonce": 0,
      "data": "0x",
      "r": "0x91d3f6c2eab2e5a583a2fb20208cd869cdcb0e5c65e600305b3e3c35965a3733",
      "s": "0x0b71d0789967ac2f34a2c739b42e3a83fa52a334169f4c58273748ed40e4c6e9",
      "v": 28,
      "creates": null,
      "raw": "0xf86c80850d0bf333608252089432be343b94f860124dc4fee278fdcbd38c102d8888377ea0c357949000801ca091d3f6c2eab2e5a583a2fb20208cd869cdcb0e5c65e600305b3e3c35965a3733a00b71d0789967ac2f34a2c739b42e3a83fa52a334169f4c58273748ed40e4c6e9",
      "networkId": 0,
      "chainId": 0
    },
    {
      "hash": "0xccb00e41518bd73b6ac54955b5c6b82060bdc91d008292d6569d6cfe64c17275",
      "blockHash": "0xb0208662a1b6a1698875704dec64b26e0631404e4ee125d8ff44a238ac70acbb",
      "blockNumber": 122098,
      "transactionIndex": 2,
      "confirmations": null,
      "from": "0x167f119655d82607d0C766Bbdd6686Fc36a1E3a3",
      "gasPrice": {
        "_hex": "0xba43b7400"
      },
      "gasLimit": {
        "_hex": "0x15f90"
      },
      "to": "0x2eA971a0F3AC5C4179f5755578b7e8F8eA2fC9A6",
      "value": {
        "_hex": "0x1158e460913d00000"
      },
      "nonce": 2,
      "data": "0x",
      "r": "0x22f64d66ce6657da7827521b346f78c16a09f7e63932707735f4ad1c85f58f5b",
      "s": "0x210bd54a348e3b0ea4c2940dd7c55c17da957f2dee32d00c01bc4bc6ad33aceb",
      "v": 28,
      "creates": null,
      "raw": "0xf86e02850ba43b740083015f90942ea971a0f3ac5c4179f5755578b7e8f8ea2fc9a68901158e460913d00000801ca022f64d66ce6657da7827521b346f78c16a09f7e63932707735f4ad1c85f58f5ba0210bd54a348e3b0ea4c2940dd7c55c17da957f2dee32d00c01bc4bc6ad33aceb",
      "networkId": 0,
      "chainId": 0
    }
  ]
}