{
  "hash": "0xa10e040adc8540047b8238e8d462643fbf40783933486c41e4c317eda6d12811",
  "parentHash": "0xa2e1a162df268527a98f2215de7e25c2c04737f49f029b60e2a3bc30402c439e",
  "number": 105915,
  "timestamp": 1439895545,
  "nonce": "0x5e4fbc5b6cbb25a0",
  "difficulty": 4451234940770,
  "gasLimit": {
    "_hex": "0x2fefd8"
  },
  "gasUsed": {
    "_hex": "0x112e3"
  },
  "miner": "0xe6A7a1d47ff21B6321162AEA7C6CB457D5476Bca",
  "extraData": "0x476574682f76312e302e312d38326566323666362f6c696e75782f676f312e34",
  "transactions": [
    {
      "hash": "0xa6b770f591976c2053339f1c6dac4308f48b9190cd9670d4174e355e3836880a",
      "blockHash": "0xa10e040adc8540047b8238e8d462643fbf40783933486c41e4c317eda6d12811",
      "blockNumber": 105915,
      "transactionIndex": 0,
      "confirmations": null,
      "from": "0x87C5B5874A18B4306DF8a752a6C8cc3E82daFc19",
      "gasPrice": {
        "_hex": "0x1156de6d1cf"
      },
      "gasLimit": {
        "_hex": "0x493e0"
      },
      "to": "0xD79B4C6791784184e2755B2fC1659eaaB0f80456",
      "value": {
        "_hex": "0x0"
      },
      "nonce": 299,
      "data": "0xbd66528a6b6b6b0000000000000000000000000000000000000000000000000000000000",
      "r": "0x8a3d106903894feb967694812bf63edbd363a6232cfc9dafb26847db79cfd3f9",
      "s": "0x62752cd34bcc8a566e989c41e628495d585ff582fd0d7e8de9aaee3e5a169b46",
      "v": 28,
      "creates": null,
      "raw": "0xf88c82012b8601156de6d1cf830493e094d79b4c6791784184e2755b2fc1659eaab0f8045680a4bd66528a6b6b6b00000000000000000000000000000000000000000000000000000000001ca08a3d106903894feb967694812bf63edbd363a6232cfc9dafb26847db79cfd3f9a062752cd34bcc8a566e989c41e628495d585ff582fd0d7e8de9aaee3e5a169b46",
      "networkId": 0,
      "chainId": 0
    },
    {
      "hash": "0xd408cbf97292d14575e228692bc361644febaf4e8d77d8a23cdd11a4939340a1",
      "blockHash": "0xa10e040adc8540047b8238e8d462643fbf40783933486c41e4c317eda6d12811",
      "blockNumber": 105915,
      "transactionIndex": 1,
      "confirmations": null,
      "from": "0x60a175bB691fEE8557a7b6D8eFC9E49889486f41",
      "gasPrice": {
        "_hex": "0xe0786c830"
      },
      "gasLimit": {
        "_hex": "0x15f90"
      },
      "to": "0xBb7f43EDfd8bf08B022fEd5BD91e3f9dE7e74D09",
      "value": {
        "_hex": "0x8ac7230489e80000"
      },
      "nonce": 8,
      "data": "0x",
      "r": "0x1baa9161485d6b8aebadb4af7c9564c004a3aacb2da6e2ca4a72427ade942e69",
      "s": "0x6c90f64435bb0ceb4ff1c7b188acb314df293cf376e0f8e1a40d8ff65236020e",
      "v": 28,
      "creates": null,
      "raw": "0xf86d08850e0786c83083015f9094bb7f43edfd8bf08b022fed5bd91e3f9de7e74d09888ac7230489e80000801ca01baa9161485d6b8aebadb4af7c9564c004a3aacb2da6e2ca4a72427ade942e69a06c90f64435bb0ceb4ff1c7b188acb314df293cf376e0f8e1a40d8ff65236020e",
      "networkId": 0,
      "chainId": 0
    },
    {
      "hash": "0x96b6b060629e52a8ff2c2e272269ec5208e22d27b4fcb5e7ea188e1a3f222241",
      "blockHash": "0xa10e040adc8540047b8238e8d462643fbf40783933486c41e4c317eda6d12811",
      "blockNumber": 105915,
      "transactionIndex": 2,
      "confirmations": null,
      "from": "0x8C37447a7930187595EC51FEA6f749C4F8a96cD4",
      "gasPrice": {
        "_hex": "0xdd09b0856"
      },
      "gasLimit": {
        "_hex": "0x5208"
      },
      "to": "0x32Be343B94f860124dC4fEe278FDCBD38C102D88",
      "value": {
        "_hex": "0x455f2442a1785800"
      },
      "nonce": 6,
      "data": "0x",
      "r": "0x410b615c02ff827d82d0bbb39065397d5b8f4d1841712047a6c07f61ac9b2bc7",
      "s": "0x756f5c451813d4e4334881fb71045a14ee8a54f0397cda89ba83574b7a5403a8",
      "v": 27,
      "creates": null,
      "raw": "0xf86c06850dd09b08568252089432be343b94f860124dc4fee278fdcbd38c102d8888455f2442a1785800801ba0410b615c02ff827d82d0bbb39065397d5b8f4d1841712047a6c07f61ac9b2bc7a0756f5c451813d4e4334881fb71045a14ee8a54f0397cda89ba83574b7a5403a8",
      "networkId": 0,
      "chainId": 0
    }
  ]
}