{
  "hash": "0xd0f4649cd7f04d205dafaac7376535cf734a6b48eef90e0374f371097f95c680",
  "parentHash": "0x4770e39a4f47ab2f2da26534b2980e2c71075cd6a5340073b4ebed019233f571",
  "number": 98590,
  "timestamp": 1439775519,
  "nonce": "0x1c8a5efab58dd7da",
  "difficulty": 3842432194700,
  "gasLimit": {
    "_hex": "0x2fefd8"
  },
  "gasUsed": {
    "_hex": "0xa410"
  },
  "miner": "0xaEAf103356C2Ee943F748E8655659D29881323E1",
  "extraData": "0x476574682f76312e302e312f77696e646f77732f676f312e342e32",
  "transactions": [
    {
      "hash": "0x0ba87c3d13a22fb07ae8470703b6c1e5a7da7b7edb6cf6788924595e85f8d0a7",
      "blockHash": "0xd0f4649cd7f04d205dafaac7376535cf734a6b48eef90e0374f371097f95c680",
      "blockNumber": 98590,
      "transactionIndex": 0,
      "confirmations": null,
      "from": "0x32Be343B94f860124dC4fEe278FDCBD38C102D88",
      "gasPrice": {
        "_hex": "0xcb6d731f6"
      },
      "gasLimit": {
        "_hex": "0x5208"
      },
      "to": "0x00Ab671B95627E3eE6b34CdD67577dF3882F7ae4",
      "value": {
        "_hex": "0x8e1bc9bf040000"
      },
      "nonce": 1044,
      "data": "0x",
      "r": "0x4a952bd1228137af8809322e7df9d685342a08b161fac89386abe97dbb2aad66",
      "s": "0x6a09591ab8fb2850c5f7029fe6554b29536299310cca1fe81552feb1cd3a226a",
      "v": 27,
      "creates": null,
      "raw": "0xf86d820414850cb6d731f68252089400ab671b95627e3ee6b34cdd67577df3882f7ae4878e1bc9bf040000801ba04a952bd1228137af8809322e7df9d685342a08b161fac89386abe97dbb2aad66a06a09591ab8fb2850c5f7029fe6554b29536299310cca1fe81552feb1cd3a226a",
      "networkId": 0,
      "chainId": 0
    },
    {
      "hash": "0x4c3df6258493894b9a9134dff80027bfd2dbe896f1b23cf924d81f59fcd54be0",
      "blockHash": "0xd0f4649cd7f04d205dafaac7376535cf734a6b48eef90e0374f371097f95c680",
      "blockNumber": 98590,
      "transactionIndex": 1,
      "confirmations": null,
      "from": "0xD9666150A9dA92d9108198a4072970805a8B3428",
      "gasPrice": {
        "_hex": "0xcb6d731f6"
      },
      "gasLimit": {
        "_hex": "0x5208"
      },
      "to": "0x32Be343B94f860124dC4fEe278FDCBD38C102D88",
      "value": {
        "_hex": "0x84f8dddfae27800"
      },
      "nonce": 28,
      "data": "0x",
      "r": "0x96226d7cb42e6fdc932fd26a9e8cbc96ed1b31f1eb67d1d22a4720ecb1bf3e8c",
      "s": "0x563086e642392322ca077339766181569d2b719b4db76a5f2b73a2b95d2d7c40",
      "v": 27,
      "creates": null,
      "raw": "0xf86c1c850cb6d731f68252089432be343b94f860124dc4fee278fdcbd38c102d8888084f8dddfae27800801ba096226d7cb42e6fdc932fd26a9e8cbc96ed1b31f1eb67d1d22a4720ecb1bf3e8ca0563086e642392322ca077339766181569d2b719b4db76a5f2b73a2b95d2d7c40",
      "networkId": 0,
      "chainId": 0
    }
  ]
}