{
  "hash": "0xc592ace81403544047778f71973d9a8bbbad04a804c8d6a8fdbf816b1540dd35",
  "parentHash": "0x698aef9846a6be784629b76f8516eacbacc62417df4cb045ea5e06840805725b",
  "number": 49763,
  "timestamp": 1438978659,
  "nonce": "0x0c3f027f3693de2a",
  "difficulty": 1495138846570,
  "gasLimit": {
    "_hex": "0x3de26"
  },
  "gasUsed": {
    "_hex": "0x5208"
  },
  "miner": "0x01434e4Ac3238bEC44a39ad642aBaBBB68D097e6",
  "extraData": "0x476574682f76312e302e302f77696e646f77732f676f312e342e32",
  "transactions": [
    {
      "hash": "0xd884ed256b3962f7e6b334f8e39bcf4d6acd80b999163e01608982c906597072",
      "blockHash": "0xc592ace81403544047778f71973d9a8bbbad04a804c8d6a8fdbf816b1540dd35",
      "blockNumber": 49763,
      "transactionIndex": 0,
      "confirmations": null,
      "from": "0xcb2Ff4305625D98A9E13C9cA10ca47cf2345e1F8",
      "gasPrice": {
        "_hex": "0xdf4c06484"
      },
      "gasLimit": {
        "_hex": "0x5208"
      },
      "to": "0x32Be343B94f860124dC4fEe278FDCBD38C102D88",
      "value": {
        "_hex": "0x3cb910dc92451c000"
      },
      "nonce": 1,
      "data": "0x",
      "r": "0x8d47647bedbde1b49332e5ece425d0764f28b88c34ec3e674e20ef59940615ff",
      "s": "0x143fb9f6542790d721193545fe37a68e8685a10a3656b5a2cb01c3b89887a28b",
      "v": 28,
      "creates": null,
      "raw": "0xf86d01850df4c064848252089432be343b94f860124dc4fee278fdcbd38c102d888903cb910dc92451c000801ca08d47647bedbde1b49332e5ece425d0764f28b88c34ec3e674e20ef59940615ffa0143fb9f6542790d721193545fe37a68e8685a10a3656b5a2cb01c3b89887a28b",
      "networkId": 0,
      "chainId": 0
    }
  ]
}