{
  "hash": "0x0a876b2d5c2713b9abfa910a7930be921ba31ed2d21261a64f1fc3edd4c65df3",
  "parentHash": "0x408c175a18d060b184d8e61141f9d3fafabf7075a39ed920c37a3260b0b15047",
  "number": 64768,
  "timestamp": 1439225948,
  "nonce": "0x79bc7b4eb86a5b96",
  "difficulty": 1893114447018,
  "gasLimit": {
    "_hex": "0x2fefd8"
  },
  "gasUsed": {
    "_hex": "0x5208"
  },
  "miner": "0xde8B4cca204F866220e8e25817668Cd44a5fee88",
  "extraData": "0x",
  "transactions": [
    {
      "hash": "0xcf8e3c05870cfae41fb6c2a048b80051ceecea67fbb901c8127dc667bad093d5",
      "blockHash": "0x0a876b2d5c2713b9abfa910a7930be921ba31ed2d21261a64f1fc3edd4c65df3",
      "blockNumber": 64768,
      "transactionIndex": 0,
      "confirmations": null,
      "from": "0xFD7c9117BbEB649d9b37B3D3C9917f7c12f526B3",
      "gasPrice": {
        "_hex": "0xced09440d"
      },
      "gasLimit": {
        "_hex": "0x5208"
      },
      "to": "0x32Be343B94f860124dC4fEe278FDCBD38C102D88",
      "value": {
        "_hex": "0x12f935a54b93a70000"
      },
      "nonce": 4,
      "data": "0x",
      "r": "0x6060c9da86e5ae93c9e7fbac8c41b13e9d6bd2273965db7ac51d04aea53fd983",
      "s": "0x42984d4f5894b4532b7a4eb393053df6f6732c2f1d687ad48d06ce8d07311ba8",
      "v": 27,
      "creates": null,
      "raw": "0xf86d04850ced09440d8252089432be343b94f860124dc4fee278fdcbd38c102d888912f935a54b93a70000801ba06060c9da86e5ae93c9e7fbac8c41b13e9d6bd2273965db7ac51d04aea53fd983a042984d4f5894b4532b7a4eb393053df6f6732c2f1d687ad48d06ce8d07311ba8",
      "networkId": 0,
      "chainId": 0
    }
  ]
}