{
  "hash": "0x35000081914a5034839dff2d42c5b21cb432db6211d9ab48b252d46cf357871a",
  "parentHash": "0x5cf8fa2d45445d34eca81339a4ec368395656c531d4328cae44adf3cf8684444",
  "number": 119103,
  "timestamp": 1440136810,
  "nonce": "0xa2d72bdba157010b",
  "difficulty": 4422594997325,
  "gasLimit": {
    "_hex": "0x2fefd8"
  },
  "gasUsed": {
    "_hex": "0x5208"
  },
  "miner": "0x52bc44d5378309EE2abF1539BF71dE1b7d7bE3b5",
  "extraData": "0xd783010002844765746887676f312e342e32856c696e7578",
  "transactions": [
    {
      "hash": "0x7d4c0209720977075f072644c3eae023367d4d05943fd128d3afe4f8d8d65c06",
      "blockHash": "0x35000081914a5034839dff2d42c5b21cb432db6211d9ab48b252d46cf357871a",
      "blockNumber": 119103,
      "transactionIndex": 0,
      "confirmations": null,
      "from": "0xa453AcECDf4a4ba4FF7f6020064604c84e297Fb1",
      "gasPrice": {
        "_hex": "0xba43b7400"
      },
      "gasLimit": {
        "_hex": "0x5208"
      },
      "to": "0xFBb1b73C4f0BDa4f67dcA266ce6Ef42f520fBB98",
      "value": {
        "_hex": "0x8ac3680c5ce46000"
      },
      "nonce": 1,
      "data": "0x",
      "r": "0x8bb8dbe10a67c765294c8a1e29a9df6b420cac5be581ab0ff59e59c40ce49dd0",
      "s": "0x20ad5654bec70746cdf365d62e349d3b0f454d354b1f7c9efb51253e14fc5d2f",
      "v": 27,
      "creates": null,
      "raw": "0xf86c01850ba43b740082520894fbb1b73c4f0bda4f67dca266ce6ef42f520fbb98888ac3680c5ce46000801ba08bb8dbe10a67c765294c8a1e29a9df6b420cac5be581ab0ff59e59c40ce49dd0a020ad5654bec70746cdf365d62e349d3b0f454d354b1f7c9efb51253e14fc5d2f",
      "networkId": 0,
      "chainId": 0
    }
  ]
}