{
  "hash": "0x4bb373f175a4bea795ab0d1642549667b5c5fc464b8767e841844ee7f2c92415",
  "parentHash": "0x427fecddc3ecd7d4b54416b438cebf74c3a89aef90c38e61be48abdb1e1f6b9a",
  "number": 110518,
  "timestamp": 1439975111,
  "nonce": "0x879e959d4cac78f4",
  "difficulty": 4369141096446,
  "gasLimit": {
    "_hex": "0x2fefd8"
  },
  "gasUsed": {
    "_hex": "0xa410"
  },
  "miner": "0xe6A7a1d47ff21B6321162AEA7C6CB457D5476Bca",
  "extraData": "0x476574682f76312e302e312d38326566323666362f6c696e75782f676f312e34",
  "transactions": [
    {
      "hash": "0x3e940e55be514c639f81e46d1fb439eb9b9488c12f4eaed975adb2e921fcc870",
      "blockHash": "0x4bb373f175a4bea795ab0d1642549667b5c5fc464b8767e841844ee7f2c92415",
      "blockNumber": 110518,
      "transactionIndex": 0,
      "confirmations": null,
      "from": "0xACAB9A83F47D28Fdc1d12772A0B571f80444b5DD",
      "gasPrice": {
        "_hex": "0xd8573bc73"
      },
      "gasLimit": {
        "_hex": "0x7a120"
      },
      "to": "0x19939AD9F09d103B670c9EE56cA41d5764380f8A",
      "value": {
        "_hex": "0x1f44439026f48000"
      },
      "nonce": 6,
      "data": "0x",
      "r": "0xc559181c71d2a5b9796df13a008aabb365c68e3c50ba240f444959f55fcad629",
      "s": "0x1157004a70ea2d0a67481f67ce09330f9399bf10114021414fc5f9f03f73437c",
      "v": 28,
      "creates": null,
      "raw": "0xf86d06850d8573bc738307a1209419939ad9f09d103b670c9ee56ca41d5764380f8a881f44439026f48000801ca0c559181c71d2a5b9796df13a008aabb365c68e3c50ba240f444959f55fcad629a01157004a70ea2d0a67481f67ce09330f9399bf10114021414fc5f9f03f73437c",
      "networkId": 0,
      "chainId": 0
    },
    {
      "hash": "0x845e6c1a14276689b1e4f9305dd9a309b0b748e922d49ca9f15f0f178675a881",
      "blockHash": "0x4bb373f175a4bea795ab0d1642549667b5c5fc464b8767e841844ee7f2c92415",
      "blockNumber": 110518,
      "transactionIndex": 1,
      "confirmations": null,
      "from": "0x3fc4eAB8A8df5a124043b29146709935c65F1f7d",
      "gasPrice": {
        "_hex": "0xd3ee0dea9"
      },
      "gasLimit": {
        "_hex": "0x15f90"
      },
      "to": "0x051B69BB7073F7385370C5751F988b31A7567a63",
      "value": {
        "_hex": "0x4255f8acaa5e0000"
      },
      "nonce": 6,
      "data": "0x",
      "r": "0xa525178930127749378e3cb2f65782d674d57f380204191dc4bbc7dc6755dae6",
      "s": "0x78e3a2dd0f695876107e02cd7800b8bd63a77580ae00359a6024ea88d1f42b07",
      "v": 27,
      "creates": null,
      "raw": "0xf86d06850d3ee0dea983015f9094051b69bb7073f7385370c5751f988b31a7567a63884255f8acaa5e0000801ba0a525178930127749378e3cb2f65782d674d57f380204191dc4bbc7dc6755dae6a078e3a2dd0f695876107e02cd7800b8bd63a77580ae00359a6024ea88d1f42b07",
      "networkId": 0,
      "chainId": 0
    }
  ]
}