{
  "hash": "0xddb699e1a3679b576fdbe5af5a50f5719ed873aa071abca36db0240ff47a084f",
  "parentHash": "0x532b7bfc5b4ff0f6029dad078c9d37dc1dd7a8b31d38d08ad534ca22c55c0996",
  "number": 55407,
  "timestamp": 1439070211,
  "nonce": "0x4ad674ca3a5780bb",
  "difficulty": 1625037091110,
  "gasLimit": {
    "_hex": "0x2fefd8"
  },
  "gasUsed": {
    "_hex": "0x2f4d60"
  },
  "miner": "0x5F8F73E26CdF436f19Cb24C82F90A15AFe55b592",
  "extraData": "0x476574682f76312e302e312f77696e646f77732f676f312e342e32",
  "transactions": [
    {
      "hash": "0x5cf682fd5a590fc784ed08a1082e5186f02a5123084b57c84172d755eefab08c",
      "blockHash": "0xddb699e1a3679b576fdbe5af5a50f5719ed873aa071abca36db0240ff47a084f",
      "blockNumber": 55407,
      "transactionIndex": 0,
      "confirmations": null,
      "from": "0x8674c218F0351a62C3BA78C34FD2182A93Da94E2",
      "gasPrice": {
        "_hex": "0xba43b7400"
      },
      "gasLimit": {
        "_hex": "0x2f4d60"
      },
      "to": "0xe421ecf0FD7E3D4444E811649D2FDc5B6Ed4112C",
      "value": {
        "_hex": "0x0"
      },
      "nonce": 56,
      "data": "0xde6f24bb0000000000000000000000008674c218f0351a62c3ba78c34fd2182a93da94e20000000000000000000000000000000000000000000000000000000000000040000000000000000000000000000000000000000000000000000000000000000d68656c6c6f323232323232322100000000000000000000000000000000000000",
      "r": "0x13bff8f9c14109b98ede4365c2e3d30ef52e9821db618f6c3e58941e690f568e",
      "s": "0x3e150e7e2c47d4b0b76217bfc30c96238ae957a632a1312290c79e039c3a8fe2",
      "v": 28,
      "creates": null,
      "raw": "0xf8ea38850ba43b7400832f4d6094e421ecf0fd7e3d4444e811649d2fdc5b6ed4112c80b884de6f24bb0000000000000000000000008674c218f0351a62c3ba78c34fd2182a93da94e20000000000000000000000000000000000000000000000000000000000000040000000000000000000000000000000000000000000000000000000000000000d68656c6c6f3232323232323221000000000000000000000000000000000000001ca013bff8f9c14109b98ede4365c2e3d30ef52e9821db618f6c3e58941e690f568ea03e150e7e2c47d4b0b76217bfc30c96238ae957a632a1312290c79e039c3a8fe2",
      "networkId": 0,
      "chainId": 0
    }
  ]
}