{
  "hash": "0xf1cdc5de2a135f17d501487115f515ecf382423f23f206435814b5a7e5e415ad",
  "parentHash": "0x9743842adccab91f9951ac04a2b9bc09b8d20805fc568865c83ebc4cd057f281",
  "number": 67233,
  "timestamp": 1439268423,
  "nonce": "0x7c9fc43300ec024b",
  "difficulty": 1928943507770,
  "gasLimit": {
    "_hex": "0x2fefd8"
  },
  "gasUsed": {
    "_hex": "0x5208"
  },
  "miner": "0x0eDEd3DA479d0beF8eeC92A76644D3f4E3C177f7",
  "extraData": "0x476574682f76312e302e312f6c696e75782f676f312e342e32",
  "transactions": [
    {
      "hash": "0x15d78225a4345c062b478b7ae8ddab4174fd8f7ba84f5019b2e748f42173632b",
      "blockHash": "0xf1cdc5de2a135f17d501487115f515ecf382423f23f206435814b5a7e5e415ad",
      "blockNumber": 67233,
      "transactionIndex": 0,
      "confirmations": null,
      "from": "0x2910543Af39abA0Cd09dBb2D50200b3E800A63D2",
      "gasPrice": {
        "_hex": "0xd45de39ed"
      },
      "gasLimit": {
        "_hex": "0x5208"
      },
      "to": "0x2f86ba8019945f39edE131D38d4d8780884DA553",
      "value": {
        "_hex": "0x6c6b819812855f8000"
      },
      "nonce": 210,
      "data": "0x",
      "r": "0x3faab29bde3ca3e6464bd2c1a2656edc9d8d9b48cac610c5973c51ef69b4f1d5",
      "s": "0x07154d7e806772cbed890832049ce88a54bf8f5e8f5655e5394009d08d6feb1f",
      "v": 27,
      "creates": null,
      "raw": "0xf86e81d2850d45de39ed825208942f86ba8019945f39ede131d38d4d8780884da553896c6b819812855f8000801ba03faab29bde3ca3e6464bd2c1a2656edc9d8d9b48cac610c5973c51ef69b4f1d5a007154d7e806772cbed890832049ce88a54bf8f5e8f5655e5394009d08d6feb1f",
      "networkId": 0,
      "chainId": 0
    }
  ]
}