{
  "hash": "0xf0af9ce3d9208549782d3e50628957382e391d89218cc5dab4c084543bd28ad6",
  "parentHash": "0x504083a5580716c8e52e10f98e095cfa087315165fe3cace5d383547a48583b3",
  "number": 101089,
  "timestamp": 1439817294,
  "nonce": "0x9aa1defefeaa3203",
  "difficulty": 3858205494902,
  "gasLimit": {
    "_hex": "0x2fefd8"
  },
  "gasUsed": {
    "_hex": "0x5208"
  },
  "miner": "0xe6A7a1d47ff21B6321162AEA7C6CB457D5476Bca",
  "extraData": "0x476574682f76312e302e312d38326566323666362f6c696e75782f676f312e34",
  "transactions": [
    {
      "hash": "0xa33e35d1e3ed223d348e038e06b32f0d9b8f5ace40ec8084a561c331c8203452",
      "blockHash": "0xf0af9ce3d9208549782d3e50628957382e391d89218cc5dab4c084543bd28ad6",
      "blockNumber": 101089,
      "transactionIndex": 0,
      "confirmations": null,
      "from": "0x007f7f58D3eb5b7510A301eCC749FC1fCDDBE14D",
      "gasPrice": {
        "_hex": "0xe0cfe7246"
      },
      "gasLimit": {
        "_hex": "0x15f90"
      },
      "to": "0xb1abce2918E21ddb93AA452731a12672A3d9F75a",
      "value": {
        "_hex": "0x4563918244f40000"
      },
      "nonce": 178,
      "data": "0x",
      "r": "0xc17d9af52efb1d4ae4bdcd6bf288ed588f0c7f53dc4b6a62aeca0b4eab167c0a",
      "s": "0x0eed4040ed882cb5d77b9807b6f918b6ea793f6db11ba76e3c6e80c20e36e00b",
      "v": 27,
      "creates": null,
      "raw": "0xf86e81b2850e0cfe724683015f9094b1abce2918e21ddb93aa452731a12672a3d9f75a884563918244f40000801ba0c17d9af52efb1d4ae4bdcd6bf288ed588f0c7f53dc4b6a62aeca0b4eab167c0aa00eed4040ed882cb5d77b9807b6f918b6ea793f6db11ba76e3c6e80c20e36e00b",
      "networkId": 0,
      "chainId": 0
    }
  ]
}