{
  "hash": "0x41ea21e6cb10f260876b4aa5e29c14c799efee135166c9bfc8d6dad17f001750",
  "parentHash": "0x2f4e2633011dda59d491bf05d18b06b88cd7a18919243fcfb095ddf4c199a120",
  "number": 86042,
  "timestamp": 1439572658,
  "nonce": "0x7cb986242c51937d",
  "difficulty": 2790755368389,
  "gasLimit": {
    "_hex": "0x2fefd8"
  },
  "gasUsed": {
    "_hex": "0x5208"
  },
  "miner": "0xF2d2AfF1320476cb8C6b607199D23175cc595693",
  "extraData": "0x476574682f76312e302e312f77696e646f77732f676f312e342e32",
  "transactions": [
    {
      "hash": "0xca1b2adabca9aa78ff1efcfb4ab56a253401fa657ff6fb5bf5b750ec5fcb7f12",
      "blockHash": "0x41ea21e6cb10f260876b4aa5e29c14c799efee135166c9bfc8d6dad17f001750",
      "blockNumber": 86042,
      "transactionIndex": 0,
      "confirmations": null,
      "from": "0xF2d2AfF1320476cb8C6b607199D23175cc595693",
      "gasPrice": {
        "_hex": "0xdd5886bca"
      },
      "gasLimit": {
        "_hex": "0x15f90"
      },
      "to": "0xF5EeDc192aB70b08D8354384aD94efD095849E00",
      "value": {
        "_hex": "0x2b5e3af16b1880000"
      },
      "nonce": 43,
      "data": "0x",
      "r": "0xe098d3b7b6d53692a2be73d817867eacb86dac7b932bf69a97c84b1fb06ca507",
      "s": "0x6669ea42f148244c10a9177016dc5e0df6600c3ad67b5ac33ef083f697b68261",
      "v": 28,
      "creates": null,
      "raw": "0xf86e2b850dd5886bca83015f9094f5eedc192ab70b08d8354384ad94efd095849e008902b5e3af16b1880000801ca0e098d3b7b6d53692a2be73d817867eacb86dac7b932bf69a97c84b1fb06ca507a06669ea42f148244c10a9177016dc5e0df6600c3ad67b5ac33ef083f697b68261",
      "networkId": 0,
      "chainId": 0
    }
  ]
}