{
  "hash": "0x431bafba72bc93ba9f6d2a1286fd3299c2284402ee6a65fdb698098e6be2c7df",
  "parentHash": "0xcfad73671f15dbb770ed729c6c0a7a91c728b0089522f2897a68674b86b0b68b",
  "number": 48373,
  "timestamp": 1438956159,
  "nonce": "0x30e27f5207173c1e",
  "difficulty": 1453630852397,
  "gasLimit": {
    "_hex": "0x1631f"
  },
  "gasUsed": {
    "_hex": "0x546c"
  },
  "miner": "0x88D74a59454F6cF3B51ef6b9136AFb6b9D405A88",
  "extraData": "0x476574682f76312e302e302d66633739643332642f6c696e75782f676f312e34",
  "transactions": [
    {
      "hash": "0x17f60b6ad7d61eeab4c3c661a082880ebbebc7238c8009c6ba2369e405b488ed",
      "blockHash": "0x431bafba72bc93ba9f6d2a1286fd3299c2284402ee6a65fdb698098e6be2c7df",
      "blockNumber": 48373,
      "transactionIndex": 0,
      "confirmations": null,
      "from": "0x3D09688D93AD07F3abe68C722723Cd680990435e",
      "gasPrice": {
        "_hex": "0x746a528800"
      },
      "gasLimit": {
        "_hex": "0x55f0"
      },
      "to": "0x2910543Af39abA0Cd09dBb2D50200b3E800A63D2",
      "value": {
        "_hex": "0x6c23f53385bf8cb6a0"
      },
      "nonce": 8,
      "data": "0x454e4e4b3732444a47",
      "r": "0x4f276eb8ced3169de9781bdc043a165c5eca76f5d80a464b5b4ea4e34fca2a11",
      "s": "0x5417eca4b564909f42d314025ea23539167ebf0700196c09bbc5dcd0ffef4774",
      "v": 27,
      "creates": null,
      "raw": "0xf8760885746a5288008255f0942910543af39aba0cd09dbb2d50200b3e800a63d2896c23f53385bf8cb6a089454e4e4b3732444a471ba04f276eb8ced3169de9781bdc043a165c5eca76f5d80a464b5b4ea4e34fca2a11a05417eca4b564909f42d314025ea23539167ebf0700196c09bbc5dcd0ffef4774",
      "networkId": 0,
      "chainId": 0
    }
  ]
}