{
  "hash": "0x2fc6893215faa580ba0c28d56fe06de0aed1b75200429ea8d08ebbd592251857",
  "parentHash": "0x7de8cf260dd486f496dcb5d1530736d8aab4d54a0908fc35dde65f462731cbbf",
  "number": 80832,
  "timestamp": 1439491671,
  "nonce": "0xe18c38c25a5f46e2",
  "difficulty": 2457153788108,
  "gasLimit": {
    "_hex": "0x2fefd8"
  },
  "gasUsed": {
    "_hex": "0x5208"
  },
  "miner": "0xeB1325C8D9d3ea8D74aC11F4B00F1B2367686319",
  "extraData": "0x476574682f76312e302e312f77696e646f77732f676f312e342e32",
  "transactions": [
    {
      "hash": "0x8f44f1cd1410d6c839d41e5c0112ec2b6989c67ce310a9ee95440e16e4088e27",
      "blockHash": "0x2fc6893215faa580ba0c28d56fe06de0aed1b75200429ea8d08ebbd592251857",
      "blockNumber": 80832,
      "transactionIndex": 0,
      "confirmations": null,
      "from": "0x095b0ea2b218d82e0Aea7c2889238A39C9Bf9077",
      "gasPrice": {
        "_hex": "0xd1f217cbf"
      },
      "gasLimit": {
        "_hex": "0x15f90"
      },
      "to": "0x2536bd4b759aae0fC4Ca6bb97141922a0D56C37C",
      "value": {
        "_hex": "0x1b1928c00c7a6380000"
      },
      "nonce": 2,
      "data": "0x",
      "r": "0x200f84bf1faf404c608c994968619eaf78d6be701343023c86551b4e7fc9f35c",
      "s": "0x339c377ab993dd4947884ae5a5967530f9bf61a83aea82114ed1d13d098b1f9b",
      "v": 28,
      "creates": null,
      "raw": "0xf86f02850d1f217cbf83015f90942536bd4b759aae0fc4ca6bb97141922a0d56c37c8a01b1928c00c7a6380000801ca0200f84bf1faf404c608c994968619eaf78d6be701343023c86551b4e7fc9f35ca0339c377ab993dd4947884ae5a5967530f9bf61a83aea82114ed1d13d098b1f9b",
      "networkId": 0,
      "chainId": 0
    }
  ]
}