{
  "hash": "0xce69a2a603ef0bff9f7423f55955e70ed2f7f6ce112091b6d8fa52d3393d3d51",
  "parentHash": "0x657dedd1efa5108eee0923ab2c55a7c4b31931e135c17a4895ee24805925087f",
  "number": 102256,
  "timestamp": 1439835172,
  "nonce": "0x5052c8533bbe0d2d",
  "difficulty": 3939521053277,
  "gasLimit": {
    "_hex": "0x2fefd8"
  },
  "gasUsed": {
    "_hex": "0x5208"
  },
  "miner": "0xe6A7a1d47ff21B6321162AEA7C6CB457D5476Bca",
  "extraData": "0x476574682f76312e302e312d38326566323666362f6c696e75782f676f312e34",
  "transactions": [
    {
      "hash": "0x69b8b64748b7895bac7ec19f37c4b3ace1ab757c36e717df4090fc192d932748",
      "blockHash": "0xce69a2a603ef0bff9f7423f55955e70ed2f7f6ce112091b6d8fa52d3393d3d51",
      "blockNumber": 102256,
      "transactionIndex": 0,
      "confirmations": null,
      "from": "0xa6BDc31c431B8F97848c9D60cbbe9660dc450eB7",
      "gasPrice": {
        "_hex": "0xccc160c60"
      },
      "gasLimit": {
        "_hex": "0x5208"
      },
      "to": "0x32Be343B94f860124dC4fEe278FDCBD38C102D88",
      "value": {
        "_hex": "0x455f7a30784ef800"
      },
      "nonce": 154,
      "data": "0x",
      "r": "0xbcacecbc6f16cf8cc0375146be387f898a6a15b77f06128fa984579dfe9c0d4f",
      "s": "0x710829475e9c0dba98736882e9ca9eeba81a6e4362adab84cd6ee02dd2b508f0",
      "v": 28,
      "creates": null,
      "raw": "0xf86d819a850ccc160c608252089432be343b94f860124dc4fee278fdcbd38c102d8888455f7a30784ef800801ca0bcacecbc6f16cf8cc0375146be387f898a6a15b77f06128fa984579dfe9c0d4fa0710829475e9c0dba98736882e9ca9eeba81a6e4362adab84cd6ee02dd2b508f0",
      "networkId": 0,
      "chainId": 0
    }
  ]
}