{
  "hash": "0x8b5eb4eb6a92caa8070d46085687164e16da727a3ae05382aca2851ed58b6221",
  "parentHash": "0x43904f3ac67199aa5aaedf0a0eae0d4442ac011a90c29c5a66383cabf4969fa4",
  "number": 99097,
  "timestamp": 1439784322,
  "nonce": "0xefb5b2ab9ace93e5",
  "difficulty": 3810438708549,
  "gasLimit": {
    "_hex": "0x2fefd8"
  },
  "gasUsed": {
    "_hex": "0x5208"
  },
  "miner": "0xe6A7a1d47ff21B6321162AEA7C6CB457D5476Bca",
  "extraData": "0x476574682f76312e302e312d38326566323666362f6c696e75782f676f312e34",
  "transactions": [
    {
      "hash": "0xd72514f889bcbcfe8a996da4c967fe3b041912a44db6210da1003d201e85cc64",
      "blockHash": "0x8b5eb4eb6a92caa8070d46085687164e16da727a3ae05382aca2851ed58b6221",
      "blockNumber": 99097,
      "transactionIndex": 0,
      "confirmations": null,
      "from": "0xb1abce2918E21ddb93AA452731a12672A3d9F75a",
      "gasPrice": {
        "_hex": "0xd8855478e"
      },
      "gasLimit": {
        "_hex": "0x5208"
      },
      "to": "0x32Be343B94f860124dC4fEe278FDCBD38C102D88",
      "value": {
        "_hex": "0x2707bc77ca759e000"
      },
      "nonce": 69,
      "data": "0x",
      "r": "0xe1a86ead184bea6b59dbdfb851b49be1b3217368364386e4b92d29a6823e1bf2",
      "s": "0x53056a1c2c634d2aee62707971997d1309d7859b1cabcc4d584d8634609871d7",
      "v": 27,
      "creates": null,
      "raw": "0xf86d45850d8855478e8252089432be343b94f860124dc4fee278fdcbd38c102d888902707bc77ca759e000801ba0e1a86ead184bea6b59dbdfb851b49be1b3217368364386e4b92d29a6823e1bf2a053056a1c2c634d2aee62707971997d1309d7859b1cabcc4d584d8634609871d7",
      "networkId": 0,
      "chainId": 0
    }
  ]
}