{
  "hash": "0xe19472e5a5c7f75e3b393777052e19317b6ce30bf0619b046ceba47b16af3534",
  "parentHash": "0x8de4f6a99b204f7affd52dd169643b343b10001fe3739797266fb4ad9c8c70e9",
  "number": 49114,
  "timestamp": 1438968277,
  "nonce": "0x2fd139225bd92d9d",
  "difficulty": 1478556055990,
  "gasLimit": {
    "_hex": "0x2633a"
  },
  "gasUsed": {
    "_hex": "0x546c"
  },
  "miner": "0x9746c7e1ef2bd21FF3997fa467593a89cb852BD0",
  "extraData": "0x476574682f76312e302e312f77696e646f77732f676f312e342e32",
  "transactions": [
    {
      "hash": "0x05906f109205fa2229934f306d17793f38cd2ae815ba9159651fa64a50661c4a",
      "blockHash": "0xe19472e5a5c7f75e3b393777052e19317b6ce30bf0619b046ceba47b16af3534",
      "blockNumber": 49114,
      "transactionIndex": 0,
      "confirmations": null,
      "from": "0xf65819aC4cC14c137f05DD7977C7Dae08d1a4Ab5",
      "gasPrice": {
        "_hex": "0x111f21b9e43"
      },
      "gasLimit": {
        "_hex": "0x15f90"
      },
      "to": "0x2910543Af39abA0Cd09dBb2D50200b3E800A63D2",
      "value": {
        "_hex": "0xde0b6b3a76400000"
      },
      "nonce": 0,
      "data": "0x454e314d4d314d4338",
      "r": "0x1c2b8123ab16d29dceaa6788a757718c7011072914fffa777b472f50dba3cd03",
      "s": "0x2708208a867969d237344441f4da73a6e37fe499d12b10559a4f1fe9ebb740c8",
      "v": 27,
      "creates": null,
      "raw": "0xf87780860111f21b9e4383015f90942910543af39aba0cd09dbb2d50200b3e800a63d288de0b6b3a7640000089454e314d4d314d43381ba01c2b8123ab16d29dceaa6788a757718c7011072914fffa777b472f50dba3cd03a02708208a867969d237344441f4da73a6e37fe499d12b10559a4f1fe9ebb740c8",
      "networkId": 0,
      "chainId": 0
    }
  ]
}