{
  "hash": "0x5a4a8c0ea03fd650f26cb22b6ec8cb6c642c03e724aa30d5e365e7858953d78e",
  "parentHash": "0x640e6ed5289d3e6ccc4c6973f003b1d8e9cf92e973227f6876de00c87622ac4b",
  "number": 117937,
  "timestamp": 1440117847,
  "nonce": "0x7ef8997ffb541a55",
  "difficulty": 4341895206649,
  "gasLimit": {
    "_hex": "0x2fefd8"
  },
  "gasUsed": {
    "_hex": "0xa410"
  },
  "miner": "0x0dF43EdBe0ca7d07629785F3fD05c795c563f486",
  "extraData": "0x",
  "transactions": [
    {
      "hash": "0xf165397dfd304b0baa77c61f7b298a7a9bebfa2429a5338b3bd47fca57e041a7",
      "blockHash": "0x5a4a8c0ea03fd650f26cb22b6ec8cb6c642c03e724aa30d5e365e7858953d78e",
      "blockNumber": 117937,
      "transactionIndex": 0,
      "confirmations": null,
      "from": "0x85792D2e8c48b8c2388bC027Dc45DdA07a351039",
      "gasPrice": {
        "_hex": "0xba43b7400"
      },
      "gasLimit": {
        "_hex": "0x5208"
      },
      "to": "0x32Be343B94f860124dC4fEe278FDCBD38C102D88",
      "value": {
        "_hex": "0xcd10fd140f45c00"
      },
      "nonce": 0,
      "data": "0x",
      "r": "0x30d007c9cde37a0a35f2046d816dbee19b9fef0b2b362068574cc61f5ecf9482",
      "s": "0x492612689219558f376c0facbde1b957f3791081c94b92feb7898e867caf87a1",
      "v": 28,
      "creates": null,
      "raw": "0xf86c80850ba43b74008252089432be343b94f860124dc4fee278fdcbd38c102d88880cd10fd140f45c00801ca030d007c9cde37a0a35f2046d816dbee19b9fef0b2b362068574cc61f5ecf9482a0492612689219558f376c0facbde1b957f3791081c94b92feb7898e867caf87a1",
      "networkId": 0,
      "chainId": 0
    },
    {
      "hash": "0x594f087474e65bed94674411c22cea2e7cbe5dabd893875901a668166b48fc9e",
      "blockHash": "0x5a4a8c0ea03fd650f26cb22b6ec8cb6c642c03e724aa30d5e365e7858953d78e",
      "blockNumber": 117937,
      "transactionIndex": 1,
      "confirmations": null,
      "from": "0x917cDD148Ebec4699A523905424Ee1f7de261258",
      "gasPrice": {
        "_hex": "0xba43b7400"
      },
      "gasLimit": {
        "_hex": "0x5208"
      },
      "to": "0x32Be343B94f860124dC4fEe278FDCBD38C102D88",
      "value": {
        "_hex": "0x49b1b1f6fc549c00"
      },
      "nonce": 0,
      "data": "0x",
      "r": "0x51f990ac296544e926bf8a8251473c09055b6dcac89ff7359dbb84dd970743fb",
      "s": "0x65a1fe77a71279d1f509b7eb0053d7e2b1520b7dcb4db0cd577ffe8a301d192b",
      "v": 28,
      "creates": null,
      "raw": "0xf86c80850ba43b74008252089432be343b94f860124dc4fee278fdcbd38c102d888849b1b1f6fc549c00801ca051f990ac296544e926bf8a8251473c09055b6dcac89ff7359dbb84dd970743fba065a1fe77a71279d1f509b7eb0053d7e2b1520b7dcb4db0cd577ffe8a301d192b",
      "networkId": 0,
      "chainId": 0
    }
  ]
}