{
  "hash": "0xef1676047aa405421b9b1d566b0f0be87c14b89c2456ac864cf48df44dbb318e",
  "parentHash": "0x359bfb2b167b0022271d09defa3f2d30510f8e861f9099ea325da55f9260334d",
  "number": 91526,
  "timestamp": 1439657166,
  "nonce": "0xbb23240b4680489c",
  "difficulty": 3477667113121,
  "gasLimit": {
    "_hex": "0x2fefd8"
  },
  "gasUsed": {
    "_hex": "0xa410"
  },
  "miner": "0x790b8a3cE86E707ED0eD32bF89B3269692a23CC1",
  "extraData": "0xd783010001844765746887676f312e342e32856c696e7578",
  "transactions": [
    {
      "hash": "0x3be3243c9ef3f40dc0297d328ac819c25a2cd6654ba46847c92efa29a87a630c",
      "blockHash": "0xef1676047aa405421b9b1d566b0f0be87c14b89c2456ac864cf48df44dbb318e",
      "blockNumber": 91526,
      "transactionIndex": 0,
      "confirmations": null,
      "from": "0x2910543Af39abA0Cd09dBb2D50200b3E800A63D2",
      "gasPrice": {
        "_hex": "0xd6e44ab95"
      },
      "gasLimit": {
        "_hex": "0x5208"
      },
      "to": "0xD2a0F8F2D69352657350811E69A824D31Dea698c",
      "value": {
        "_hex": "0x25261c87e0e3646000"
      },
      "nonce": 809,
      "data": "0x",
      "r": "0x4f99c93e3089cca3451a073f10971f85c9581cb02ec8970d9084db0cee375d59",
      "s": "0x3cbd9d4ed2492a9255a7995643d3e61a06e803da7d8fd4680354d0fa34c8cfd0",
      "v": 28,
      "creates": null,
      "raw": "0xf86f820329850d6e44ab9582520894d2a0f8f2d69352657350811e69a824d31dea698c8925261c87e0e3646000801ca04f99c93e3089cca3451a073f10971f85c9581cb02ec8970d9084db0cee375d59a03cbd9d4ed2492a9255a7995643d3e61a06e803da7d8fd4680354d0fa34c8cfd0",
      "networkId": 0,
      "chainId": 0
    },
    {
      "hash": "0x1bbceccd2d03a42b96a1c13895a0f7106006e46e9cf36f942f807f18e2a73d3c",
      "blockHash": "0xef1676047aa405421b9b1d566b0f0be87c14b89c2456ac864cf48df44dbb318e",
      "blockNumber": 91526,
      "transactionIndex": 1,
      "confirmations": null,
      "from": "0xcC5e8A6BdC0081d4b2Af2cC3a97015508c7A5B91",
      "gasPrice": {
        "_hex": "0xd641f460d"
      },
      "gasLimit": {
        "_hex": "0x15f90"
      },
      "to": "0xC6c676946C54B5e7c31A07a079166C488Bf06dd7",
      "value": {
        "_hex": "0x16345785d8a0000"
      },
      "nonce": 0,
      "data": "0x",
      "r": "0x271d64cf8eb1a9c3195c6c9e953fc5200ab1b8610344ce1a8bfe0f9a71d58155",
      "s": "0x227d7d8c348d6a9a71e3cb466bee44b9d695d068d9fafa96f71c0cf7bd8520d1",
      "v": 28,
      "creates": null,
      "raw": "0xf86d80850d641f460d83015f9094c6c676946c54b5e7c31a07a079166c488bf06dd788016345785d8a0000801ca0271d64cf8eb1a9c3195c6c9e953fc5200ab1b8610344ce1a8bfe0f9a71d58155a0227d7d8c348d6a9a71e3cb466bee44b9d695d068d9fafa96f71c0cf7bd8520d1",
      "networkId": 0,
      "chainId": 0
    }
  ]
}