{
  "hash": "0xc50a16717d067b7aa7b6923432183b42864af542f7f6013b74cb662e873048bb",
  "parentHash": "0x82929bc069c60f4b458e012f2ea6deb75c1c96be0b6f93bb34eb318501617876",
  "number": 97593,
  "timestamp": 1439758481,
  "nonce": "0x0cfea63ebf912a13",
  "difficulty": 3841012948631,
  "gasLimit": {
    "_hex": "0x2fefd8"
  },
  "gasUsed": {
    "_hex": "0x5208"
  },
  "miner": "0xe6A7a1d47ff21B6321162AEA7C6CB457D5476Bca",
  "extraData": "0x476574682f76312e302e312d38326566323666362f6c696e75782f676f312e34",
  "transactions": [
    {
      "hash": "0x392b22fc600e5972e4d8f5b76c392d23137447976a25006bd29ec687c2647cf2",
      "blockHash": "0xc50a16717d067b7aa7b6923432183b42864af542f7f6013b74cb662e873048bb",
      "blockNumber": 97593,
      "transactionIndex": 0,
      "confirmations": null,
      "from": "0x69b8bc60d27EC3b7526bC96385C0f5ad76cD534A",
      "gasPrice": {
        "_hex": "0xd0b9bff78"
      },
      "gasLimit": {
        "_hex": "0x5208"
      },
      "to": "0x32Be343B94f860124dC4fEe278FDCBD38C102D88",
      "value": {
        "_hex": "0x1ae31f1a013f94000"
      },
      "nonce": 2,
      "data": "0x",
      "r": "0x9871327023a31eb5b7a123174bcb7cf37eba3672e21253cc80a9d03041d386b9",
      "s": "0x63bb66d0dfde9687ca9862f4d00b6b25c2d54bf0befed94a1f9cdfc6321b3b9a",
      "v": 28,
      "creates": null,
      "raw": "0xf86d02850d0b9bff788252089432be343b94f860124dc4fee278fdcbd38c102d888901ae31f1a013f94000801ca09871327023a31eb5b7a123174bcb7cf37eba3672e21253cc80a9d03041d386b9a063bb66d0dfde9687ca9862f4d00b6b25c2d54bf0befed94a1f9cdfc6321b3b9a",
      "networkId": 0,
      "chainId": 0
    }
  ]
}