{
  "hash": "0x05e71f434f5a653f360a1ac034897d03ec5718b160bb7cb90943727599a73f9a",
  "parentHash": "0x0d2495ad73454b65c6bc856324221dfc95c12cdf308a00c7f368ab62b59fdec1",
  "number": 71165,
  "timestamp": 1439331814,
  "nonce": "0x2390dea5b577e530",
  "difficulty": 2146686735527,
  "gasLimit": {
    "_hex": "0x2fefd8"
  },
  "gasUsed": {
    "_hex": "0x5208"
  },
  "miner": "0x9746c7e1ef2bd21FF3997fa467593a89cb852BD0",
  "extraData": "0x476574682f76312e302e312f77696e646f77732f676f312e342e32",
  "transactions": [
    {
      "hash": "0xcf5b52259dd7ebbd1ccce097bf21604d8c09c4b2909cd1e56da95a8f96e3bd82",
      "blockHash": "0x05e71f434f5a653f360a1ac034897d03ec5718b160bb7cb90943727599a73f9a",
      "blockNumber": 71165,
      "transactionIndex": 0,
      "confirmations": null,
      "from": "0xc2E9e042B88164B5408bd895Df7DdaD491c6321E",
      "gasPrice": {
        "_hex": "0xd292bee38"
      },
      "gasLimit": {
        "_hex": "0x15f90"
      },
      "to": "0xa114c802ef29776f05f9c6925cE915232e8ae102",
      "value": {
        "_hex": "0xd02ab486cedc0000"
      },
      "nonce": 3,
      "data": "0x",
      "r": "0x200cbd0e27059be5c547e431e791447725522819a69e860ec06d4d700f7a0266",
      "s": "0x5e8e3254896162656faf45ab89e5d64bd5a055b8ea467df5ecb9360c8c67b1dd",
      "v": 27,
      "creates": null,
      "raw": "0xf86d03850d292bee3883015f9094a114c802ef29776f05f9c6925ce915232e8ae10288d02ab486cedc0000801ba0200cbd0e27059be5c547e431e791447725522819a69e860ec06d4d700f7a0266a05e8e3254896162656faf45ab89e5d64bd5a055b8ea467df5ecb9360c8c67b1dd",
      "networkId": 0,
      "chainId": 0
    }
  ]
}