{
  "hash": "0xb30ac5642b1521bc47f559ddee252719ea48beb791acc7b5df846482ccbddf5e",
  "parentHash": "0x9e746a366e3ebcb89ae88ab4ff6a94b115b593d1ecf4738895823b4bd20fa776",
  "number": 101063,
  "timestamp": 1439816901,
  "nonce": "0x646328a3e8fb1e29",
  "difficulty": 3858217453205,
  "gasLimit": {
    "_hex": "0x2fefd8"
  },
  "gasUsed": {
    "_hex": "0x5208"
  },
  "miner": "0xe6A7a1d47ff21B6321162AEA7C6CB457D5476Bca",
  "extraData": "0x476574682f76312e302e312d38326566323666362f6c696e75782f676f312e34",
  "transactions": [
    {
      "hash": "0x8174bfa5ecac2d932f9449041f8bd1bef0a413b21b78f2af11fb39565169fd07",
      "blockHash": "0xb30ac5642b1521bc47f559ddee252719ea48beb791acc7b5df846482ccbddf5e",
      "blockNumber": 101063,
      "transactionIndex": 0,
      "confirmations": null,
      "from": "0x945133f5F817b984e41D4798b45C9B8ed7CE3EAc",
      "gasPrice": {
        "_hex": "0xd23ee12e2"
      },
      "gasLimit": {
        "_hex": "0x15f90"
      },
      "to": "0x4E56D55C77DB136de89EEcCF3754A634a9b8898C",
      "value": {
        "_hex": "0x56bc75e2d63100000"
      },
      "nonce": 2,
      "data": "0x",
      "r": "0x157491eadd0d35d8e94e8ffebcde21fbc61184ddc482fa65996a5452214901cf",
      "s": "0x590a4b1095c77e875fb2f142aed1c3308afd681147db987d5de2b1136d41bec2",
      "v": 28,
      "creates": null,
      "raw": "0xf86e02850d23ee12e283015f90944e56d55c77db136de89eeccf3754a634a9b8898c89056bc75e2d63100000801ca0157491eadd0d35d8e94e8ffebcde21fbc61184ddc482fa65996a5452214901cfa0590a4b1095c77e875fb2f142aed1c3308afd681147db987d5de2b1136d41bec2",
      "networkId": 0,
      "chainId": 0
    }
  ]
}