{
  "hash": "0x24a02a85551b5f61673c56c2825df06177093752069665a102c5d2fa659aa207",
  "parentHash": "0xec33734aa4b3c6913edbb037509c0c7b4beeeb92d88b8b942b92f27625cb08fe",
  "number": 119299,
  "timestamp": 1440140376,
  "nonce": "0xdf3e1d61be57d77e",
  "difficulty": 4418174932758,
  "gasLimit": {
    "_hex": "0x2fefd8"
  },
  "gasUsed": {
    "_hex": "0x5208"
  },
  "miner": "0x20c6Efe179C293690A5B3375F5bd81c2f07Ed037",
  "extraData": "0x",
  "transactions": [
    {
      "hash": "0xb4f76c875b053db05d90d534378b8513f94e1a3cb5232ea0ca6c7ccf9ed0f264",
      "blockHash": "0x24a02a85551b5f61673c56c2825df06177093752069665a102c5d2fa659aa207",
      "blockNumber": 119299,
      "transactionIndex": 0,
      "confirmations": null,
      "from": "0x608f4b86321a68453f9adf6F06F7Fc3E621739ad",
      "gasPrice": {
        "_hex": "0xba43b7400"
      },
      "gasLimit": {
        "_hex": "0x5208"
      },
      "to": "0x32Be343B94f860124dC4fEe278FDCBD38C102D88",
      "value": {
        "_hex": "0xbed1d0263d9f0000"
      },
      "nonce": 30,
      "data": "0x",
      "r": "0x12bfad652666f7530e395f4d633af7f3a3ff7df749f2ed30d5c6c76056595cae",
      "s": "0x1fe7104b9c839b1eb6c40ff1ae636f112c8de9e32a6a8a56c017e12dbbff0d2d",
      "v": 27,
      "creates": null,
      "raw": "0xf86c1e850ba43b74008252089432be343b94f860124dc4fee278fdcbd38c102d8888bed1d0263d9f0000801ba012bfad652666f7530e395f4d633af7f3a3ff7df749f2ed30d5c6c76056595caea01fe7104b9c839b1eb6c40ff1ae636f112c8de9e32a6a8a56c017e12dbbff0d2d",
      "networkId": 0,
      "chainId": 0
    }
  ]
}