{
  "hash": "0xf18a17fdd077650f0974cc05585e937cdf7ab5a787677cb0007fe9eb1c49ac87",
  "parentHash": "0x2f94df9d981f04c9a47f5d9be70f45e550250fa98a23bec270fa0200e81bb7dd",
  "number": 114598,
  "timestamp": 1440043113,
  "nonce": "0x477239efb388a27e",
  "difficulty": 4501242682394,
  "gasLimit": {
    "_hex": "0x2fefd8"
  },
  "gasUsed": {
    "_hex": "0x5208"
  },
  "miner": "0xf927a40C8B7F6E07c5af7FA2155B4864a4112B13",
  "extraData": "0x",
  "transactions": [
    {
      "hash": "0x3636f9397dbf70b3c7194b22a43edf62985e0813ebfe7b6c09fda3b547f4bdde",
      "blockHash": "0xf18a17fdd077650f0974cc05585e937cdf7ab5a787677cb0007fe9eb1c49ac87",
      "blockNumber": 114598,
      "transactionIndex": 0,
      "confirmations": null,
      "from": "0x99C1262466e1623551D496779CEFF1Fc07d14841",
      "gasPrice": {
        "_hex": "0xdffbd485f"
      },
      "gasLimit": {
        "_hex": "0x5208"
      },
      "to": "0x32Be343B94f860124dC4fEe278FDCBD38C102D88",
      "value": {
        "_hex": "0xddc3a58b2c20400"
      },
      "nonce": 0,
      "data": "0x",
      "r": "0x944182fa6212f54e4263a7c4904298a147f22d05111325b2b08882bf91645a3c",
      "s": "0x6358bf4a4de710c02842e0da566ec0e9280dd0de46071b9ee37d53333eb8180a",
      "v": 28,
      "creates": null,
      "raw": "0xf86c80850dffbd485f8252089432be343b94f860124dc4fee278fdcbd38c102d88880ddc3a58b2c20400801ca0944182fa6212f54e4263a7c4904298a147f22d05111325b2b08882bf91645a3ca06358bf4a4de710c02842e0da566ec0e9280dd0de46071b9ee37d53333eb8180a",
      "networkId": 0,
      "chainId": 0
    }
  ]
}