{
  "hash": "0x23f07ae2097beccb940bcc0f57c94dd7e8574a64363825d184114879f389bccc",
  "parentHash": "0x4b4adf3d6837a1450e2de10bbc55839609dac935191f07fd57009b8796e71c37",
  "number": 46668,
  "timestamp": 1438927180,
  "nonce": "0xa8933f45518ca27e",
  "difficulty": 1458904313225,
  "gasLimit": {
    "_hex": "0x6fe5"
  },
  "gasUsed": {
    "_hex": "0x5208"
  },
  "miner": "0x157c6f2431eB1a95797EE86F7d17b3c0FD47A247",
  "extraData": "0x476574682f76312e302e312f77696e646f77732f676f312e342e32",
  "transactions": [
    {
      "hash": "0x223d8ca6e3c5402a31cc4bf88b198688110b75daf94bc8afd821b9b1de1e478d",
      "blockHash": "0x23f07ae2097beccb940bcc0f57c94dd7e8574a64363825d184114879f389bccc",
      "blockNumber": 46668,
      "transactionIndex": 0,
      "confirmations": null,
      "from": "0x92c27672FE65e002159Ec2597fcf8897ADBf5B29",
      "gasPrice": {
        "_hex": "0xd8d611188"
      },
      "gasLimit": {
        "_hex": "0x5208"
      },
      "to": "0x32Be343B94f860124dC4fEe278FDCBD38C102D88",
      "value": {
        "_hex": "0x11589e36fe2b84000"
      },
      "nonce": 0,
      "data": "0x",
      "r": "0x9344d41e9b0f234244b4542c2e86988c249d446b6137d1a332a52438b02b42c8",
      "s": "0x3c6217e21be61cd5462ee607d45dc60e4e01bd283009897414e9f728cd7977ed",
      "v": 27,
      "creates": null,
      "raw": "0xf86d80850d8d6111888252089432be343b94f860124dc4fee278fdcbd38c102d8889011589e36fe2b84000801ba09344d41e9b0f234244b4542c2e86988c249d446b6137d1a332a52438b02b42c8a03c6217e21be61cd5462ee607d45dc60e4e01bd283009897414e9f728cd7977ed",
      "networkId": 0,
      "chainId": 0
    }
  ]
}