{
  "hash": "0xbe4af7bae89c40f75acacd53d8665fc075e9fff1ab1c8938aeef916f4e0f5358",
  "parentHash": "0x437478d54f0bc2cba6e873116910b4c2743e6a5177d80e8e434f58962ef2e1ca",
  "number": 78550,
  "timestamp": 1439455427,
  "nonce": "0x50a2be2e2fc45897",
  "difficulty": 2302155887668,
  "gasLimit": {
    "_hex": "0x2fefd8"
  },
  "gasUsed": {
    "_hex": "0x5208"
  },
  "miner": "0xC603Ab5ef41fC61AA8b76bEddb09e3Cfcbb174BD",
  "extraData": "0x476574682f76312e302e312f77696e646f77732f676f312e342e32",
  "transactions": [
    {
      "hash": "0xeb78e8e9332f78bd0a3f1da5205ad118838536111a4f7f963488487e07c650b1",
      "blockHash": "0xbe4af7bae89c40f75acacd53d8665fc075e9fff1ab1c8938aeef916f4e0f5358",
      "blockNumber": 78550,
      "transactionIndex": 0,
      "confirmations": null,
      "from": "0x7744774422Cd8b2d5895D7Bc552b9A57388DB228",
      "gasPrice": {
        "_hex": "0x174876e800"
      },
      "gasLimit": {
        "_hex": "0x7530"
      },
      "to": "0x6124163444367365023447541834685340125846",
      "value": {
        "_hex": "0x1aea287ded26ff6c20"
      },
      "nonce": 5,
      "data": "0x",
      "r": "0xf11bb114a6a69a6fca7969675888155715f39aa0c0480b3639aec23add380305",
      "s": "0x74f1420f099a61f2834fc5dcebe0bd8fa8d8fa6ce226b07c39ff2a58ddefda05",
      "v": 27,
      "creates": null,
      "raw": "0xf86d0585174876e800827530946124163444367365023447541834685340125846891aea287ded26ff6c20801ba0f11bb114a6a69a6fca7969675888155715f39aa0c0480b3639aec23add380305a074f1420f099a61f2834fc5dcebe0bd8fa8d8fa6ce226b07c39ff2a58ddefda05",
      "networkId": 0,
      "chainId": 0
    }
  ]
}