{
  "hash": "0xdfd9aea56ce8f5a01d7c473059003143b218293b75be96aad0690e5ffd6f3caa",
  "parentHash": "0x45ff58efdf7c4ee7672471f244024c57c0c5ba2f5ac54414e648fdfc96435290",
  "number": 66090,
  "timestamp": 1439248415,
  "nonce": "0xc159ae66056d486e",
  "difficulty": 1949090027367,
  "gasLimit": {
    "_hex": "0x2fefd5"
  },
  "gasUsed": {
    "_hex": "0x5208"
  },
  "miner": "0xf927a40C8B7F6E07c5af7FA2155B4864a4112B13",
  "extraData": "0x",
  "transactions": [
    {
      "hash": "0x4734fdd5ff71ce414652773f4c1c491a407bf4c29829b082a779856a6822d1e5",
      "blockHash": "0xdfd9aea56ce8f5a01d7c473059003143b218293b75be96aad0690e5ffd6f3caa",
      "blockNumber": 66090,
      "transactionIndex": 0,
      "confirmations": null,
      "from": "0x0BB549C68C4992BAc6a19C97d97178f60b36998E",
      "gasPrice": {
        "_hex": "0xd41b9ce53"
      },
      "gasLimit": {
        "_hex": "0x15f90"
      },
      "to": "0xcB495D8e4F272a89123F91beaB031ba380E2Cc34",
      "value": {
        "_hex": "0xde0b6b3a7640000"
      },
      "nonce": 5,
      "data": "0x",
      "r": "0xe4f5993e0abbbfd85d2a808ddb497b09d1165c20600207dc4465f0237ce6694d",
      "s": "0x42be57066fcbb57157fe4d6318aa178c1881eabd2d41cd0c701aa52987c42fee",
      "v": 28,
      "creates": null,
      "raw": "0xf86d05850d41b9ce5383015f9094cb495d8e4f272a89123f91beab031ba380e2cc34880de0b6b3a7640000801ca0e4f5993e0abbbfd85d2a808ddb497b09d1165c20600207dc4465f0237ce6694da042be57066fcbb57157fe4d6318aa178c1881eabd2d41cd0c701aa52987c42fee",
      "networkId": 0,
      "chainId": 0
    }
  ]
}