{
  "hash": "0x058b0c6d23b8d397077f05e720aa567cbaa446b932698262b3ef685de29a0516",
  "parentHash": "0xe71b065d8a5b6edf9f3404f96895b45aaae67abef98664f1b07cc96abe5fd911",
  "number": 64544,
  "timestamp": 1439222542,
  "nonce": "0x0192d86a440b749c",
  "difficulty": 1882104669731,
  "gasLimit": {
    "_hex": "0x2fefd8"
  },
  "gasUsed": {
    "_hex": "0xf618"
  },
  "miner": "0xbb7B8287f3F0a933474a79eAe42CBCa977791171",
  "extraData": "0x476574682f4c5649562f76312e302e312f6c696e75782f676f312e342e32",
  "transactions": [
    {
      "hash": "0x9c3c600718f7363bba9243120176c535dc4af32dd1d48c5845c9b37ab3c03d64",
      "blockHash": "0x058b0c6d23b8d397077f05e720aa567cbaa446b932698262b3ef685de29a0516",
      "blockNumber": 64544,
      "transactionIndex": 0,
      "confirmations": null,
      "from": "0x7e26A2908c0D194b846982c402445E44011629a0",
      "gasPrice": {
        "_hex": "0xba43b7400"
      },
      "gasLimit": {
        "_hex": "0x5208"
      },
      "to": "0x4518B3c332b02EaE0bcbD319dAA25A584f1034bc",
      "value": {
        "_hex": "0xaa9f075c200000"
      },
      "nonce": 1,
      "data": "0x",
      "r": "0x044cc69d7a0e24d0b0f3b1cc5579d742a9817b31aa1f3b1f0856b8d9ef866f81",
      "s": "0x7479b7a5f4f3dba7a730eff929fa06d0440bf000c959c25c57e1617e05ae7340",
      "v": 27,
      "creates": null,
      "raw": "0xf86b01850ba43b7400825208944518b3c332b02eae0bcbd319daa25a584f1034bc87aa9f075c200000801ba0044cc69d7a0e24d0b0f3b1cc5579d742a9817b31aa1f3b1f0856b8d9ef866f81a07479b7a5f4f3dba7a730eff929fa06d0440bf000c959c25c57e1617e05ae7340",
      "networkId": 0,
      "chainId": 0
    },
    {
      "hash": "0xa044db5d83765f77c0c9fb761c2ea366ea222e6d4e914966f436c8b9b6ac8deb",
      "blockHash": "0x058b0c6d23b8d397077f05e720aa567cbaa446b932698262b3ef685de29a0516",
      "blockNumber": 64544,
      "transactionIndex": 1,
      "confirmations": null,
      "from": "0x1D5c60C025F0F56B3bc0aFbc2BA575912fcaF7Cc",
      "gasPrice": {
        "_hex": "0xba43b7400"
      },
      "gasLimit": {
        "_hex": "0x5208"
      },
      "to": "0x6F768079A84B5383218F405C1C52F45e991B29dA",
      "value": {
        "_hex": "0xaa9f075c200000"
      },
      "nonce": 1,
      "data": "0x",
      "r": "0xa30eb32d4bb5c4de1331ef5582d54df2cdec78257bf8372cbafa7c22d24cda14",
      "s": "0x46c65c9fe165eae0524ba0dbee49ae4075f33c6843d8d7f809bcb04015ceb9a5",
      "v": 28,
      "creates": null,
      "raw": "0xf86b01850ba43b7400825208946f768079a84b5383218f405c1c52f45e991b29da87aa9f075c200000801ca0a30eb32d4bb5c4de1331ef5582d54df2cdec78257bf8372cbafa7c22d24cda14a046c65c9fe165eae0524ba0dbee49ae4075f33c6843d8d7f809bcb04015ceb9a5",
      "networkId": 0,
      "chainId": 0
    },
    {
      "hash": "0xc480fb3781ea8058225d045047251a3b75d5f45e34aedfd26b35933ba11debb8",
      "blockHash": "0x058b0c6d23b8d397077f05e720aa567cbaa446b932698262b3ef685de29a0516",
      "blockNumber": 64544,
      "transactionIndex": 2,
      "confirmations": null,
      "from": "0x59f2b76930cC7012f4B8C13622c6b2CDa157d9AF",
      "gasPrice": {
        "_hex": "0xba43b7400"
      },
      "gasLimit": {
        "_hex": "0x5208"
      },
      "to": "0xFed19cFBf47abF30df177e69edA1e453b920C7B2",
      "value": {
        "_hex": "0xc1c23435b07000"
      },
      "nonce": 1,
      "data": "0x",
      "r": "0x1a3212c2fdba0704b4d0c3a133f83c542c8029f08d625054b8aa1be482826bb7",
      "s": "0x250d4e8768f97e1c136336621a22b13c4cbf51fcc6a4b9beafa6f2d1161101da",
      "v": 28,
      "creates": null,
      "raw": "0xf86b01850ba43b740082520894fed19cfbf47abf30df177e69eda1e453b920c7b287c1c23435b07000801ca01a3212c2fdba0704b4d0c3a133f83c542c8029f08d625054b8aa1be482826bb7a0250d4e8768f97e1c136336621a22b13c4cbf51fcc6a4b9beafa6f2d1161101da",
      "networkId": 0,
      "chainId": 0
    }
  ]
}