{
  "hash": "0xea77f9adc91c2ed0a120a2deba602e8f010515ecbe9029868cd04f9fd19b591d",
  "parentHash": "0x2ede842b159c78205d4671967d47e7e5dcfaaba8c79b079cfab089bc236d9ee4",
  "number": 112425,
  "timestamp": 1440007295,
  "nonce": "0x1621fdd096ef9145",
  "difficulty": 4408861340555,
  "gasLimit": {
    "_hex": "0x2fefd8"
  },
  "gasUsed": {
    "_hex": "0x5208"
  },
  "miner": "0xD0ee3F53eE0fCf3F9fbCcdd17BD1b6441DdC2074",
  "extraData": "0x476574682f76312e302e312d38326566323666362f6c696e75782f676f312e34",
  "transactions": [
    {
      "hash": "0x3bd613896ee7fc68836fd330a57f9c81754dc6d59a6280a48494009f24428c24",
      "blockHash": "0xea77f9adc91c2ed0a120a2deba602e8f010515ecbe9029868cd04f9fd19b591d",
      "blockNumber": 112425,
      "transactionIndex": 0,
      "confirmations": null,
      "from": "0x512f996df7C0e8256e822bA00C580871DfE20E16",
      "gasPrice": {
        "_hex": "0xde1985425"
      },
      "gasLimit": {
        "_hex": "0x5208"
      },
      "to": "0x32Be343B94f860124dC4fEe278FDCBD38C102D88",
      "value": {
        "_hex": "0x5265f59f8d2cdc000"
      },
      "nonce": 1,
      "data": "0x",
      "r": "0xe93150e6416b60838214d79c22887bdaeca3beb571bfc6409c59aa94301bd315",
      "s": "0x4d95900271f8d51d06a22b343dd8fd9d8e878f605eaa1ed96ab6f868ffa8a654",
      "v": 27,
      "creates": null,
      "raw": "0xf86d01850de19854258252089432be343b94f860124dc4fee278fdcbd38c102d888905265f59f8d2cdc000801ba0e93150e6416b60838214d79c22887bdaeca3beb571bfc6409c59aa94301bd315a04d95900271f8d51d06a22b343dd8fd9d8e878f605eaa1ed96ab6f868ffa8a654",
      "networkId": 0,
      "chainId": 0
    }
  ]
}