{
  "hash": "0xd10b8377cccd8090d6c72f3dbb32572e01517ac88c006c0d5cf10c5650b84487",
  "parentHash": "0x184b45f497f6de86556b170e2d3f1a442f44c6e68b597ae25a6fbda97c843c38",
  "number": 75635,
  "timestamp": 1439406658,
  "nonce": "0x8015a9cbeb921219",
  "difficulty": 2222313982379,
  "gasLimit": {
    "_hex": "0x2fefd8"
  },
  "gasUsed": {
    "_hex": "0x5208"
  },
  "miner": "0xe6A7a1d47ff21B6321162AEA7C6CB457D5476Bca",
  "extraData": "0x476574682f76312e302e312d38326566323666362f6c696e75782f676f312e34",
  "transactions": [
    {
      "hash": "0x36e421eb437058769d3b0c53c7610edf4ea67c3919a65dbfc8ce38ab3735e95d",
      "blockHash": "0xd10b8377cccd8090d6c72f3dbb32572e01517ac88c006c0d5cf10c5650b84487",
      "blockNumber": 75635,
      "transactionIndex": 0,
      "confirmations": null,
      "from": "0x00FaC02adb7295b4f1Aa598Ff1F9481D0ad84140",
      "gasPrice": {
        "_hex": "0x746a528800"
      },
      "gasLimit": {
        "_hex": "0x5b04"
      },
      "to": "0x1467bcfA961fE8067c779935a78B4a73E7393BD8",
      "value": {
        "_hex": "0x44004c09e76a0000"
      },
      "nonce": 0,
      "data": "0x",
      "r": "0x8e2ae954341785de2036d8679b7374c3f274df1e1a53e8a5d169c30eddb325e2",
      "s": "0x59da7eec1f767021b27d15dc43191ebf4b9f123630e51c4471ce3695c4d4d07e",
      "v": 28,
      "creates": null,
      "raw": "0xf86c8085746a528800825b04941467bcfa961fe8067c779935a78b4a73e7393bd88844004c09e76a0000801ca08e2ae954341785de2036d8679b7374c3f274df1e1a53e8a5d169c30eddb325e2a059da7eec1f767021b27d15dc43191ebf4b9f123630e51c4471ce3695c4d4d07e",
      "networkId": 0,
      "chainId": 0
    }
  ]
}