{
  "hash": "0x18d33ebb48e9b08e9941ec8be550d026b95b0521a039c7d99659dd0e871b4f12",
  "parentHash": "0xa2e7b718312940c83c61c8f6a0a63900aee6545916e9e9c520288dd8c6fcfce3",
  "number": 75148,
  "timestamp": 1439398413,
  "nonce": "0x0dc17c6949198eb7",
  "difficulty": 2199770716832,
  "gasLimit": {
    "_hex": "0x2fefd8"
  },
  "gasUsed": {
    "_hex": "0x5208"
  },
  "miner": "0x2f6BCe4fc330B69C9B4c2694d57C63Ec7B18feC7",
  "extraData": "0x476574682f76312e302e312f77696e646f77732f676f312e342e32",
  "transactions": [
    {
      "hash": "0x33ee4ffe91809d65837e37eeada40ad1198d35102622908b126e31ab88427f06",
      "blockHash": "0x18d33ebb48e9b08e9941ec8be550d026b95b0521a039c7d99659dd0e871b4f12",
      "blockNumber": 75148,
      "transactionIndex": 0,
      "confirmations": null,
      "from": "0xC759dc67E0c3816fdC56A2f5bb29920fc07e767D",
      "gasPrice": {
        "_hex": "0xd0a0e2766"
      },
      "gasLimit": {
        "_hex": "0x5208"
      },
      "to": "0x910a4aADabb3A7B3F7879118332E13Da66b68D77",
      "value": {
        "_hex": "0xd02ab486cedc0000"
      },
      "nonce": 16,
      "data": "0x",
      "r": "0xbdd345d9b2cfaf93da3279e8bf14c16d8dbb51ec8499bbad51b3f5424f010268",
      "s": "0x20daeec4a2268be9b513863663f4d84f9d88fc4190af04c7187523af6cf13e60",
      "v": 28,
      "creates": null,
      "raw": "0xf86c10850d0a0e276682520894910a4aadabb3a7b3f7879118332e13da66b68d7788d02ab486cedc0000801ca0bdd345d9b2cfaf93da3279e8bf14c16d8dbb51ec8499bbad51b3f5424f010268a020daeec4a2268be9b513863663f4d84f9d88fc4190af04c7187523af6cf13e60",
      "networkId": 0,
      "chainId": 0
    }
  ]
}