{
  "hash": "0x8d7ae6af61bfbf43f56bb7346ec3900370fef7eae2d4d2cd3c5d5bc36246eaee",
  "parentHash": "0x8c52649c063b7f01b1dc87bea5f544cc434f8af24c60f7e7c6b90fbc1f741aed",
  "number": 51112,
  "timestamp": 1438999572,
  "nonce": "0x57f547aa1fa3ec66",
  "difficulty": 1555207609283,
  "gasLimit": {
    "_hex": "0x92070"
  },
  "gasUsed": {
    "_hex": "0xeb71"
  },
  "miner": "0xe6A7a1d47ff21B6321162AEA7C6CB457D5476Bca",
  "extraData": "0x657468706f6f6c2e6f7267",
  "transactions": [
    {
      "hash": "0xce75a39702b7a4655519fceac13c76c76ef68bf9e2dc18dd7928f3c39a08f79f",
      "blockHash": "0x8d7ae6af61bfbf43f56bb7346ec3900370fef7eae2d4d2cd3c5d5bc36246eaee",
      "blockNumber": 51112,
      "transactionIndex": 0,
      "confirmations": null,
      "from": "0x4cfeF0a00715760Ed2b03C3782D07a4EA9A8dfDc",
      "gasPrice": {
        "_hex": "0xdac8bf2fb"
      },
      "gasLimit": {
        "_hex": "0x61a8"
      },
      "to": "0x3D0768da09CE77d25e2d998E6a7b6eD4b9116c2D",
      "value": {
        "_hex": "0x2386f26fc10000"
      },
      "nonce": 1,
      "data": "0x",
      "r": "0x3086ad145855004d2c01e594e875caace33aa5e43103c52d3e04906b8fe15a13",
      "s": "0x1dc4d9499f804eb10545c2070eb188866549fd62affa7ca478185ddd5cdf6890",
      "v": 28,
      "creates": null,
      "raw": "0xf86b01850dac8bf2fb8261a8943d0768da09ce77d25e2d998e6a7b6ed4b9116c2d872386f26fc10000801ca03086ad145855004d2c01e594e875caace33aa5e43103c52d3e04906b8fe15a13a01dc4d9499f804eb10545c2070eb188866549fd62affa7ca478185ddd5cdf6890",
      "networkId": 0,
      "chainId": 0
    },
    {
      "hash": "0xf20d51a6d07ff4e1f32f082d84e8cf19589158d25def9f7bad189c56758593e1",
      "blockHash": "0x8d7ae6af61bfbf43f56bb7346ec3900370fef7eae2d4d2cd3c5d5bc36246eaee",
      "blockNumber": 51112,
      "transactionIndex": 1,
      "confirmations": null,
      "from": "0x2905726Ed11131A984ce9C0119cB32DBC99dE90B",
      "gasPrice": {
        "_hex": "0x10ebb963fa7"
      },
      "gasLimit": {
        "_hex": "0x15f90"
      },
      "to": null,
      "value": {
        "_hex": "0x0"
      },
      "nonce": 1,
      "data": "0x6060604052610111806100136000396000f300606060405260e060020a6000350463404ebf6c811461003c57806377ef5ed3146100795780638f98eeda14610082578063a69beaba1461009a575b005b6100b060043560018054829081101561000257506000527fb10e2d527612073b26eecdfd717e6a320cf44b4afac2b0732d9fcbe2b7fa0cf6015481565b6100b060025481565b6100b060043560006020819052908152604090205481565b61003a600435600034600014156100ba5761010d565b6060908152602090f35b81815260208190526040812054908114156100fb57600280546001818101909255815484929190811015610002579060005260206000209001600050819055505b60406000908120908390528054340190555b505056",
      "r": "0x658f775f1e52ba5028dd8bc9d7f679b84fa58cb9687902cf8f134ae5a75871b7",
      "s": "0x609a623357f1f2f6987021cdbbb3286b9e1e3523e803c532617c8302559d6c45",
      "v": 28,
      "creates": "0x58828Dc80663a0f3D4Ba2dcAFf1c4fDFfb88D96A",
      "raw": "0xf901780186010ebb963fa783015f908080b901246060604052610111806100136000396000f300606060405260e060020a6000350463404ebf6c811461003c57806377ef5ed3146100795780638f98eeda14610082578063a69beaba1461009a575b005b6100b060043560018054829081101561000257506000527fb10e2d527612073b26eecdfd717e6a320cf44b4afac2b0732d9fcbe2b7fa0cf6015481565b6100b060025481565b6100b060043560006020819052908152604090205481565b61003a600435600034600014156100ba5761010d565b6060908152602090f35b81815260208190526040812054908114156100fb57600280546001818101909255815484929190811015610002579060005260206000209001600050819055505b60406000908120908390528054340190555b5050561ca0658f775f1e52ba5028dd8bc9d7f679b84fa58cb9687902cf8f134ae5a75871b7a0609a623357f1f2f6987021cdbbb3286b9e1e3523e803c532617c8302559d6c45",
      "networkId": 0,
      "chainId": 0
    }
  ]
}