{
  "hash": "0x22e5270de338b11b39e18a11fff37906d5e66c47605a68f3e31f3fd25bb4feec",
  "parentHash": "0x5c9bc04905b17f2facdb9b9b797c888d9207d67f19de181ebe37c2042e42d77c",
  "number": 64694,
  "timestamp": 1439224956,
  "nonce": "0xf5de967bec13a614",
  "difficulty": 1885750527714,
  "gasLimit": {
    "_hex": "0x2fefd8"
  },
  "gasUsed": {
    "_hex": "0x5208"
  },
  "miner": "0x88D74a59454F6cF3B51ef6b9136AFb6b9D405A88",
  "extraData": "0x476574682f76312e302e312d37666266393930632f6c696e75782f676f312e34",
  "transactions": [
    {
      "hash": "0x2607070a1992ae9112a6f051a68d3c91d6ec59a1ae994e4667ab0112853b9177",
      "blockHash": "0x22e5270de338b11b39e18a11fff37906d5e66c47605a68f3e31f3fd25bb4feec",
      "blockNumber": 64694,
      "transactionIndex": 0,
      "confirmations": null,
      "from": "0xF7e66D2622220807d8696064E94ca24b1dC6e7Da",
      "gasPrice": {
        "_hex": "0xd1fb5fa2c"
      },
      "gasLimit": {
        "_hex": "0x5208"
      },
      "to": "0x32Be343B94f860124dC4fEe278FDCBD38C102D88",
      "value": {
        "_hex": "0x455f5239e4379000"
      },
      "nonce": 2,
      "data": "0x",
      "r": "0xe92ddd4a2b493e1f421a7ef1e5a3fa54a5cf8dc155a3bf6ab0f86ee03ba5f478",
      "s": "0x540119dd6f4edf94f8f4858e4095d6a93cf234f29c68675db227bb2dcfab60bb",
      "v": 28,
      "creates": null,
      "raw": "0xf86c02850d1fb5fa2c8252089432be343b94f860124dc4fee278fdcbd38c102d8888455f5239e4379000801ca0e92ddd4a2b493e1f421a7ef1e5a3fa54a5cf8dc155a3bf6ab0f86ee03ba5f478a0540119dd6f4edf94f8f4858e4095d6a93cf234f29c68675db227bb2dcfab60bb",
      "networkId": 0,
      "chainId": 0
    }
  ]
}