{
  "hash": "0xf928acc91933158e86e923189509d61484a28c65c90141dd00aff13be96ce64b",
  "parentHash": "0xd74201f28f9608a14c9bb151d54dc324268b8c7de040666596badab75b524992",
  "number": 113316,
  "timestamp": 1440021336,
  "nonce": "0x7d55619c82c357c7",
  "difficulty": 4493146390526,
  "gasLimit": {
    "_hex": "0x2fefd8"
  },
  "gasUsed": {
    "_hex": "0xa410"
  },
  "miner": "0xe6A7a1d47ff21B6321162AEA7C6CB457D5476Bca",
  "extraData": "0x476574682f76312e302e312d38326566323666362f6c696e75782f676f312e34",
  "transactions": [
    {
      "hash": "0x05fb5503c7f2e275771553deba7f061f26a04072186a5302b09bd9933f56ab58",
      "blockHash": "0xf928acc91933158e86e923189509d61484a28c65c90141dd00aff13be96ce64b",
      "blockNumber": 113316,
      "transactionIndex": 0,
      "confirmations": null,
      "from": "0x1c11Aa45C792e202e9ffDc2F12f99D0d209BEf70",
      "gasPrice": {
        "_hex": "0xcf788f469"
      },
      "gasLimit": {
        "_hex": "0x15f90"
      },
      "to": "0xa5E56a710A0e254756f5485Bc2443a577873d664",
      "value": {
        "_hex": "0x5"
      },
      "nonce": 24,
      "data": "0x",
      "r": "0x701602ab077bb175814bc35a9346dcf6800873f98cf21ef3d04143536511eae8",
      "s": "0x6b83fd737e80cbe57bb55c4eafcda56edc307865532c28997aad0307e511bb2d",
      "v": 27,
      "creates": null,
      "raw": "0xf86518850cf788f46983015f9094a5e56a710a0e254756f5485bc2443a577873d66405801ba0701602ab077bb175814bc35a9346dcf6800873f98cf21ef3d04143536511eae8a06b83fd737e80cbe57bb55c4eafcda56edc307865532c28997aad0307e511bb2d",
      "networkId": 0,
      "chainId": 0
    },
    {
      "hash": "0x879b325cc7da785e1b5f9a84f966d26cf1d34b6554288e8a76f6e0ffb2fe341a",
      "blockHash": "0xf928acc91933158e86e923189509d61484a28c65c90141dd00aff13be96ce64b",
      "blockNumber": 113316,
      "transactionIndex": 1,
      "confirmations": null,
      "from": "0x1c11Aa45C792e202e9ffDc2F12f99D0d209BEf70",
      "gasPrice": {
        "_hex": "0xcf788f469"
      },
      "gasLimit": {
        "_hex": "0x15f90"
      },
      "to": "0xa5E56a710A0e254756f5485Bc2443a577873d664",
      "value": {
        "_hex": "0x5"
      },
      "nonce": 25,
      "data": "0x",
      "r": "0xbd3b4a65f0ebad35bcbd650e562eec9e5d3b3efd89ddd85f379ee8066261f72f",
      "s": "0x067100efe4cc0a476efc9141e22fe85fd2d963451278a94c2ed7bbd61dffe74f",
      "v": 28,
      "creates": null,
      "raw": "0xf86519850cf788f46983015f9094a5e56a710a0e254756f5485bc2443a577873d66405801ca0bd3b4a65f0ebad35bcbd650e562eec9e5d3b3efd89ddd85f379ee8066261f72fa0067100efe4cc0a476efc9141e22fe85fd2d963451278a94c2ed7bbd61dffe74f",
      "networkId": 0,
      "chainId": 0
    }
  ]
}