{
  "hash": "0xc04bb5f2fcbcf1327432539aaf5afc8f56e349f275f3716e4cc4c93826b73655",
  "parentHash": "0x3a99dfc22bab37be9fde80de5be2afdff6a7025d035862be716000066b58f4f9",
  "number": 89024,
  "timestamp": 1439616924,
  "nonce": "0x58a075317806874b",
  "difficulty": 3274329387943,
  "gasLimit": {
    "_hex": "0x2fefd8"
  },
  "gasUsed": {
    "_hex": "0xa410"
  },
  "miner": "0xe6A7a1d47ff21B6321162AEA7C6CB457D5476Bca",
  "extraData": "0x476574682f76312e302e312d38326566323666362f6c696e75782f676f312e34",
  "transactions": [
    {
      "hash": "0x07e8814023211ecc26eb1961c8e8a0fc3389c077018dda476a80f5069ab05d7a",
      "blockHash": "0xc04bb5f2fcbcf1327432539aaf5afc8f56e349f275f3716e4cc4c93826b73655",
      "blockNumber": 89024,
      "transactionIndex": 0,
      "confirmations": null,
      "from": "0xF4f2C15602B084Cae84Ea603f75527DE19705aA1",
      "gasPrice": {
        "_hex": "0xd0114331c"
      },
      "gasLimit": {
        "_hex": "0x5208"
      },
      "to": "0x32Be343B94f860124dC4fEe278FDCBD38C102D88",
      "value": {
        "_hex": "0x1bbd42a5eae0b400"
      },
      "nonce": 0,
      "data": "0x",
      "r": "0x05c1d73631ac3ebab6b36bfe461d189da65bff1a00df5f859982bd9a07cfc604",
      "s": "0x4ba96df2a53973a506a0837caefee262ca905e41a7f3282a83c661b27dcbd0e5",
      "v": 28,
      "creates": null,
      "raw": "0xf86c80850d0114331c8252089432be343b94f860124dc4fee278fdcbd38c102d88881bbd42a5eae0b400801ca005c1d73631ac3ebab6b36bfe461d189da65bff1a00df5f859982bd9a07cfc604a04ba96df2a53973a506a0837caefee262ca905e41a7f3282a83c661b27dcbd0e5",
      "networkId": 0,
      "chainId": 0
    },
    {
      "hash": "0x7eab1e5d1bab8650afd4c6d9da5e4ef12d44b971dde7ccc8fa85038174b43d3f",
      "blockHash": "0xc04bb5f2fcbcf1327432539aaf5afc8f56e349f275f3716e4cc4c93826b73655",
      "blockNumber": 89024,
      "transactionIndex": 1,
      "confirmations": null,
      "from": "0x5F28bcc5faFC8982536A9e4be559657998CdE1E3",
      "gasPrice": {
        "_hex": "0xba43b7400"
      },
      "gasLimit": {
        "_hex": "0x5208"
      },
      "to": "0xC47Aaa860008be6f65B58c6C6E02a84e666EfE31",
      "value": {
        "_hex": "0x2b45927b3b7396000"
      },
      "nonce": 10,
      "data": "0x",
      "r": "0x70db9cabbff442e2fa77b7aa2dbe1a231cda47c57876f12cab4d7dbb167517d8",
      "s": "0x74f905bcef48a9d9284826930f86aad2b600b9685a797366079c3068661d843c",
      "v": 28,
      "creates": null,
      "raw": "0xf86d0a850ba43b740082520894c47aaa860008be6f65b58c6c6e02a84e666efe318902b45927b3b7396000801ca070db9cabbff442e2fa77b7aa2dbe1a231cda47c57876f12cab4d7dbb167517d8a074f905bcef48a9d9284826930f86aad2b600b9685a797366079c3068661d843c",
      "networkId": 0,
      "chainId": 0
    }
  ]
}