{
  "hash": "0xe2312881377058e8a8274be4d8907a3e1307111831d37983fec7817ea9022144",
  "parentHash": "0x3476c1e5c0485402e118190a89abc09d6adb0798959eb93aa62d691faae55232",
  "number": 53883,
  "timestamp": 1439045157,
  "nonce": "0xb0e2d52ddc36ba7b",
  "difficulty": 1601697296240,
  "gasLimit": {
    "_hex": "0x2fefd8"
  },
  "gasUsed": {
    "_hex": "0x5208"
  },
  "miner": "0x9746c7e1ef2bd21FF3997fa467593a89cb852BD0",
  "extraData": "0x476574682f76312e302e312f77696e646f77732f676f312e342e32",
  "transactions": [
    {
      "hash": "0x95682317103eb5c3a2158bc579d0788de8a072ce0669d5d2ec5d1df8caeaabf5",
      "blockHash": "0xe2312881377058e8a8274be4d8907a3e1307111831d37983fec7817ea9022144",
      "blockNumber": 53883,
      "transactionIndex": 0,
      "confirmations": null,
      "from": "0xfaAD905D847c7b23418AEeCbE3ADdB8DD3f8924a",
      "gasPrice": {
        "_hex": "0xd0a0e2766"
      },
      "gasLimit": {
        "_hex": "0x15f90"
      },
      "to": "0x4eE94Cc27619017833bb36E26A9580EdC162c792",
      "value": {
        "_hex": "0x2386f26fc10000"
      },
      "nonce": 0,
      "data": "0x",
      "r": "0x35751b195cf6ede25eacec02daa663007a6a762d92270bf23ffe8fb10cf73218",
      "s": "0x657370d5d68154e826f1376d31b4b29d77497c62d452a41d957c1f959872d5af",
      "v": 27,
      "creates": null,
      "raw": "0xf86c80850d0a0e276683015f90944ee94cc27619017833bb36e26a9580edc162c792872386f26fc10000801ba035751b195cf6ede25eacec02daa663007a6a762d92270bf23ffe8fb10cf73218a0657370d5d68154e826f1376d31b4b29d77497c62d452a41d957c1f959872d5af",
      "networkId": 0,
      "chainId": 0
    }
  ]
}