{
  "hash": "0x7438c1f729a6afb7ce52eea85f4c9274adc5e24246add8604a019854b87f16e0",
  "parentHash": "0x287100f7b4ca9bdf8f886d5fdc476c8b48aff253e1776c5c555205b0b04fd660",
  "number": 95401,
  "timestamp": 1439723665,
  "nonce": "0x00bd6a0b595c4227",
  "difficulty": 3570677072640,
  "gasLimit": {
    "_hex": "0x2fefd8"
  },
  "gasUsed": {
    "_hex": "0x5208"
  },
  "miner": "0xEF247E639d49461D25F57e9362CadE3120910Ce0",
  "extraData": "0x476574682f76312e302e312f6c696e75782f676f312e342e32",
  "transactions": [
    {
      "hash": "0xf4370c85f168ecc35b7dfdbf9f4afa02deae03e0110a029a1f831b366cf17ff3",
      "blockHash": "0x7438c1f729a6afb7ce52eea85f4c9274adc5e24246add8604a019854b87f16e0",
      "blockNumber": 95401,
      "transactionIndex": 0,
      "confirmations": null,
      "from": "0xb1abce2918E21ddb93AA452731a12672A3d9F75a",
      "gasPrice": {
        "_hex": "0xce781854f"
      },
      "gasLimit": {
        "_hex": "0x5208"
      },
      "to": "0x32Be343B94f860124dC4fEe278FDCBD38C102D88",
      "value": {
        "_hex": "0x455f6ef2aee62800"
      },
      "nonce": 36,
      "data": "0x",
      "r": "0xcad6ac43cdab014e0d05e9e47f3df3b28f6bf0bfa79d4a31d9404114353fbca2",
      "s": "0x7bfc0450fcd20f4257f03ddef33c27a4cc55aa60bbf5df8c7c7a4d196c464b9b",
      "v": 27,
      "creates": null,
      "raw": "0xf86c24850ce781854f8252089432be343b94f860124dc4fee278fdcbd38c102d8888455f6ef2aee62800801ba0cad6ac43cdab014e0d05e9e47f3df3b28f6bf0bfa79d4a31d9404114353fbca2a07bfc0450fcd20f4257f03ddef33c27a4cc55aa60bbf5df8c7c7a4d196c464b9b",
      "networkId": 0,
      "chainId": 0
    }
  ]
}