{
  "hash": "0xca70cc2c008e7e73e4d3b3b6c0a8aa3f8c113c5903edc250fd24edf547133b46",
  "parentHash": "0x51385aa58b1386688622a35f7b496786f212784fbad18c34608d7f2713cc3a9e",
  "number": 105372,
  "timestamp": 1439886347,
  "nonce": "0xec13f39f013056e4",
  "difficulty": 4376093616247,
  "gasLimit": {
    "_hex": "0x2fefd8"
  },
  "gasUsed": {
    "_hex": "0x5208"
  },
  "miner": "0x580992B51e3925e23280EfB93d3047C82f17E038",
  "extraData": "0x476574682f76312e302e312f6c696e75782f676f312e342e32",
  "transactions": [
    {
      "hash": "0x1ccafd01a46edc6b82a53cdf3f9d812980afb530ad3f0cba9b7052a7ec6c7bb7",
      "blockHash": "0xca70cc2c008e7e73e4d3b3b6c0a8aa3f8c113c5903edc250fd24edf547133b46",
      "blockNumber": 105372,
      "transactionIndex": 0,
      "confirmations": null,
      "from": "0x702bD0d370bBf0B97B66FE95578c62697c583393",
      "gasPrice": {
        "_hex": "0xdbf0ae04c"
      },
      "gasLimit": {
        "_hex": "0x5208"
      },
      "to": "0x32Be343B94f860124dC4fEe278FDCBD38C102D88",
      "value": {
        "_hex": "0x8675b5bb6fff4000"
      },
      "nonce": 7,
      "data": "0x",
      "r": "0xb725c8c8d623f08d3bb794e4abeb6de5db74a45042a4572c90631a863be9c28f",
      "s": "0x09927317952b26d245c06ad5ead69fa82dfc1f4d5b3e3f0b706b110ef22fc854",
      "v": 27,
      "creates": null,
      "raw": "0xf86c07850dbf0ae04c8252089432be343b94f860124dc4fee278fdcbd38c102d88888675b5bb6fff4000801ba0b725c8c8d623f08d3bb794e4abeb6de5db74a45042a4572c90631a863be9c28fa009927317952b26d245c06ad5ead69fa82dfc1f4d5b3e3f0b706b110ef22fc854",
      "networkId": 0,
      "chainId": 0
    }
  ]
}