{
  "hash": "0x4ebfc6ecec6ecf8079fd44c91b47092df590899a7e9b91f2c0989d2531b7bde2",
  "parentHash": "0x584d4f009be29db82a196f1d2adf14fa57446bf81e73b73ff522e26bf25decda",
  "number": 119288,
  "timestamp": 1440140077,
  "nonce": "0xc7163faec45c2e2f",
  "difficulty": 4428980479147,
  "gasLimit": {
    "_hex": "0x2fefd8"
  },
  "gasUsed": {
    "_hex": "0x5208"
  },
  "miner": "0xe6A7a1d47ff21B6321162AEA7C6CB457D5476Bca",
  "extraData": "0xd783010002844765746887676f312e342e32856c696e7578",
  "transactions": [
    {
      "hash": "0x78afd8fa56ed1c2ab2c510ec22eb46928f858af4bc81e3716be1421447db39dd",
      "blockHash": "0x4ebfc6ecec6ecf8079fd44c91b47092df590899a7e9b91f2c0989d2531b7bde2",
      "blockNumber": 119288,
      "transactionIndex": 0,
      "confirmations": null,
      "from": "0x608f4b86321a68453f9adf6F06F7Fc3E621739ad",
      "gasPrice": {
        "_hex": "0xba43b7400"
      },
      "gasLimit": {
        "_hex": "0x5208"
      },
      "to": "0x32Be343B94f860124dC4fEe278FDCBD38C102D88",
      "value": {
        "_hex": "0x8ac3680c5ce46000"
      },
      "nonce": 29,
      "data": "0x",
      "r": "0x32b19435e1b0085d841310becf2f0903208b95da1888e314fccdd1a911115ff0",
      "s": "0x599cbd816d4f4453ef385631105825524ae450689c68005de5e160e9091f267f",
      "v": 27,
      "creates": null,
      "raw": "0xf86c1d850ba43b74008252089432be343b94f860124dc4fee278fdcbd38c102d88888ac3680c5ce46000801ba032b19435e1b0085d841310becf2f0903208b95da1888e314fccdd1a911115ff0a0599cbd816d4f4453ef385631105825524ae450689c68005de5e160e9091f267f",
      "networkId": 0,
      "chainId": 0
    }
  ]
}