{
  "hash": "0xb0b22c89728d74ae34e6e5237ef82cd0cf503a4984f10325259786330d78ac54",
  "parentHash": "0x3b8e3ca65545b417b649469bb6bd96cfea790fbb01d7b80784bccf15b76347ba",
  "number": 53034,
  "timestamp": 1439031323,
  "nonce": "0xb8ee45ec12899524",
  "difficulty": 1577795099691,
  "gasLimit": {
    "_hex": "0x1e3627"
  },
  "gasUsed": {
    "_hex": "0x19c8c"
  },
  "miner": "0xeB1325C8D9d3ea8D74aC11F4B00F1B2367686319",
  "extraData": "0x476574682f76312e302e312f77696e646f77732f676f312e342e32",
  "transactions": [
    {
      "hash": "0x69ae18ed4e0c126d960c1e58cf6a16727160ef9de23b0f734f3479405ce358dd",
      "blockHash": "0xb0b22c89728d74ae34e6e5237ef82cd0cf503a4984f10325259786330d78ac54",
      "blockNumber": 53034,
      "transactionIndex": 0,
      "confirmations": null,
      "from": "0xeD17Ea8E9fd42159037deE95ea173a56c54f55ce",
      "gasPrice": {
        "_hex": "0xccabff78b"
      },
      "gasLimit": {
        "_hex": "0x5208"
      },
      "to": "0x32Be343B94f860124dC4fEe278FDCBD38C102D88",
      "value": {
        "_hex": "0x56d268a4f11a54000"
      },
      "nonce": 6,
      "data": "0x",
      "r": "0x990df787ba869b97dcecc6f2f2599984cbc64b5e4bfca6fd307277bce0263867",
      "s": "0x267a3817c8d4189fad0811ab80651c24812c7fd12c7ea9349e2c4c905138286c",
      "v": 27,
      "creates": null,
      "raw": "0xf86d06850ccabff78b8252089432be343b94f860124dc4fee278fdcbd38c102d8889056d268a4f11a54000801ba0990df787ba869b97dcecc6f2f2599984cbc64b5e4bfca6fd307277bce0263867a0267a3817c8d4189fad0811ab80651c24812c7fd12c7ea9349e2c4c905138286c",
      "networkId": 0,
      "chainId": 0
    },
    {
      "hash": "0xa9ab0ada10068d9f5cf3958aa9bda47c661499638f70533c6f3f909e386db481",
      "blockHash": "0xb0b22c89728d74ae34e6e5237ef82cd0cf503a4984f10325259786330d78ac54",
      "blockNumber": 53034,
      "transactionIndex": 1,
      "confirmations": null,
      "from": "0x900C0aFc99968F30e64a7DEe5828042b6422a098",
      "gasPrice": {
        "_hex": "0xccabff78b"
      },
      "gasLimit": {
        "_hex": "0x5208"
      },
      "to": "0x32Be343B94f860124dC4fEe278FDCBD38C102D88",
      "value": {
        "_hex": "0x2a5a054e2d05bc00000"
      },
      "nonce": 2,
      "data": "0x",
      "r": "0x2625b66297ff24068d024688988d921684be2729bb8366ffcf944899fd2e4712",
      "s": "0x661762494818f858106b025483e82a699e68e1424b25b49c4b5eb835149f4b0e",
      "v": 27,
      "creates": null,
      "raw": "0xf86e02850ccabff78b8252089432be343b94f860124dc4fee278fdcbd38c102d888a02a5a054e2d05bc00000801ba02625b66297ff24068d024688988d921684be2729bb8366ffcf944899fd2e4712a0661762494818f858106b025483e82a699e68e1424b25b49c4b5eb835149f4b0e",
      "networkId": 0,
      "chainId": 0
    },
    {
      "hash": "0xe4607442b8058ced55f6eed913ba2916aaf92cd30027d4e350f25b0f282a3e5c",
      "blockHash": "0xb0b22c89728d74ae34e6e5237ef82cd0cf503a4984f10325259786330d78ac54",
      "blockNumber": 53034,
      "transactionIndex": 2,
      "confirmations": null,
      "from": "0xF5EeDc192aB70b08D8354384aD94efD095849E00",
      "gasPrice": {
        "_hex": "0xccabff78b"
      },
      "gasLimit": {
        "_hex": "0x5208"
      },
      "to": "0x32Be343B94f860124dC4fEe278FDCBD38C102D88",
      "value": {
        "_hex": "0xddc9d5aa4635c00"
      },
      "nonce": 5,
      "data": "0x",
      "r": "0xb10f8cab8210dbd146f48c4c3a81fa76953b067af9fba83675b9971479560d8a",
      "s": "0x35e572e3f4cefdc2472e8dd9c989006a7ca664f05c6531aa3f80b545b0133b2a",
      "v": 27,
      "creates": null,
      "raw": "0xf86c05850ccabff78b8252089432be343b94f860124dc4fee278fdcbd38c102d88880ddc9d5aa4635c00801ba0b10f8cab8210dbd146f48c4c3a81fa76953b067af9fba83675b9971479560d8aa035e572e3f4cefdc2472e8dd9c989006a7ca664f05c6531aa3f80b545b0133b2a",
      "networkId": 0,
      "chainId": 0
    },
    {
      "hash": "0x44b872b7a156ce0d628aff023f46956ff271eb9a09dc53308de66509a3fce045",
      "blockHash": "0xb0b22c89728d74ae34e6e5237ef82cd0cf503a4984f10325259786330d78ac54",
      "blockNumber": 53034,
      "transactionIndex": 3,
      "confirmations": null,
      "from": "0xA58a34ca2DD2dE7520b845B3628C518Fec14A76B",
      "gasPrice": {
        "_hex": "0xccabff78b"
      },
      "gasLimit": {
        "_hex": "0x5208"
      },
      "to": "0x32Be343B94f860124dC4fEe278FDCBD38C102D88",
      "value": {
        "_hex": "0x3635eca8ddf0260000"
      },
      "nonce": 0,
      "data": "0x",
      "r": "0x2d3f6c387177648fcdc73121e70145e0799ed2a06cb93108d2d7f25c458d5e0c",
      "s": "0x0f36189813cf78414367309a0cd9ebde3219a29c36a67e28e8e9c671c3770862",
      "v": 27,
      "creates": null,
      "raw": "0xf86d80850ccabff78b8252089432be343b94f860124dc4fee278fdcbd38c102d88893635eca8ddf0260000801ba02d3f6c387177648fcdc73121e70145e0799ed2a06cb93108d2d7f25c458d5e0ca00f36189813cf78414367309a0cd9ebde3219a29c36a67e28e8e9c671c3770862",
      "networkId": 0,
      "chainId": 0
    },
    {
      "hash": "0x7fa3b253c29c12230b5883cc06eefaf9b080c13c8d913df7610f0d09b2c7cc3d",
      "blockHash": "0xb0b22c89728d74ae34e6e5237ef82cd0cf503a4984f10325259786330d78ac54",
      "blockNumber": 53034,
      "transactionIndex": 4,
      "confirmations": null,
      "from": "0x333Ad1596401e05Aea2d36Ca47318eF4Cd2cB3DF",
      "gasPrice": {
        "_hex": "0xcc13815e8"
      },
      "gasLimit": {
        "_hex": "0x15f90"
      },
      "to": "0x2910543Af39abA0Cd09dBb2D50200b3E800A63D2",
      "value": {
        "_hex": "0x1043561a8829300000"
      },
      "nonce": 4,
      "data": "0x454e37485242515552",
      "r": "0x90f74a2cafaeb4b4f395e39ae46ba1898da672c92707b146dfd8694e0b919569",
      "s": "0x3f7dd5aa063616e5e45a02e2b67f5a4ca4db490b19501023da82ac90b0b30b17",
      "v": 27,
      "creates": null,
      "raw": "0xf87704850cc13815e883015f90942910543af39aba0cd09dbb2d50200b3e800a63d2891043561a882930000089454e374852425155521ba090f74a2cafaeb4b4f395e39ae46ba1898da672c92707b146dfd8694e0b919569a03f7dd5aa063616e5e45a02e2b67f5a4ca4db490b19501023da82ac90b0b30b17",
      "networkId": 0,
      "chainId": 0
    }
  ]
}