{
  "hash": "0x547e69fed30f6ea6770f001b6a0e2f14bc3c76ab6bac85c4b2a4eb3a926ea3d4",
  "parentHash": "0x5c10fb948d3519916bf469810242e6f7bfef3143ba95c6088b3c06e8b7e38dec",
  "number": 103540,
  "timestamp": 1439854962,
  "nonce": "0xc99bb90c37e34d37",
  "difficulty": 4197053194242,
  "gasLimit": {
    "_hex": "0x2fefd8"
  },
  "gasUsed": {
    "_hex": "0xa410"
  },
  "miner": "0xC603Ab5ef41fC61AA8b76bEddb09e3Cfcbb174BD",
  "extraData": "0x476574682f76312e302e312f77696e646f77732f676f312e342e32",
  "transactions": [
    {
      "hash": "0xfb8756190cf6a07e061cb1bf94d56eb82f5abe8dd08fcda6490d5aec51f9598b",
      "blockHash": "0x547e69fed30f6ea6770f001b6a0e2f14bc3c76ab6bac85c4b2a4eb3a926ea3d4",
      "blockNumber": 103540,
      "transactionIndex": 0,
      "confirmations": null,
      "from": "0x0D4EcC7d750180EBf4A9Df728B6669B5Bceb5E40",
      "gasPrice": {
        "_hex": "0xce5a42c5e"
      },
      "gasLimit": {
        "_hex": "0x5208"
      },
      "to": "0x32Be343B94f860124dC4fEe278FDCBD38C102D88",
      "value": {
        "_hex": "0x478a8c186c1e9000"
      },
      "nonce": 69,
      "data": "0x",
      "r": "0xbe7225854bc415a6e16ff1430238af528f33c10d0b16c0681d3d3e6e789565a0",
      "s": "0x540d8fcefc5c111895dc6343c9fdc5c3098570fbcde81f9045d3d77521e3580e",
      "v": 27,
      "creates": null,
      "raw": "0xf86c45850ce5a42c5e8252089432be343b94f860124dc4fee278fdcbd38c102d8888478a8c186c1e9000801ba0be7225854bc415a6e16ff1430238af528f33c10d0b16c0681d3d3e6e789565a0a0540d8fcefc5c111895dc6343c9fdc5c3098570fbcde81f9045d3d77521e3580e",
      "networkId": 0,
      "chainId": 0
    },
    {
      "hash": "0x33c9d1e03a112e834e28e25ad3346ba4858c2ce838770d2cab414e57bb7846ee",
      "blockHash": "0x547e69fed30f6ea6770f001b6a0e2f14bc3c76ab6bac85c4b2a4eb3a926ea3d4",
      "blockNumber": 103540,
      "transactionIndex": 1,
      "confirmations": null,
      "from": "0x53EC61F7F0fefae963Ce7d7FfC53592A3a09b1d5",
      "gasPrice": {
        "_hex": "0xce5a42c5e"
      },
      "gasLimit": {
        "_hex": "0x5208"
      },
      "to": "0x32Be343B94f860124dC4fEe278FDCBD38C102D88",
      "value": {
        "_hex": "0xdc0b726e08594000"
      },
      "nonce": 1,
      "data": "0x",
      "r": "0x938b512ff206058492eae2c5973019f966be2f0175410d3ac10ded74ab4fb325",
      "s": "0x5ef26ea7f57e0bbd869254061b5e6f81e460625fe8a90a31d743ea5fbd9edd27",
      "v": 27,
      "creates": null,
      "raw": "0xf86c01850ce5a42c5e8252089432be343b94f860124dc4fee278fdcbd38c102d8888dc0b726e08594000801ba0938b512ff206058492eae2c5973019f966be2f0175410d3ac10ded74ab4fb325a05ef26ea7f57e0bbd869254061b5e6f81e460625fe8a90a31d743ea5fbd9edd27",
      "networkId": 0,
      "chainId": 0
    }
  ]
}