{
  "hash": "0xcedc8ef2fa4144a5d563cb3e4f83ec5f05333ecfc7ebab0613522e28e345999e",
  "parentHash": "0x65abf960bfd4ab2c370b0f7e4c10e077405c180173ae8009c0e767f816bfd815",
  "number": 91887,
  "timestamp": 1439663239,
  "nonce": "0xa96f7c13d3ff3e54",
  "difficulty": 3475819864251,
  "gasLimit": {
    "_hex": "0x2fefd8"
  },
  "gasUsed": {
    "_hex": "0x5208"
  },
  "miner": "0xfC25864D8326b4CB335C6942218e5F4Ee8D1E1EF",
  "extraData": "0x476574682f76312e302e312f77696e646f77732f676f312e342e32",
  "transactions": [
    {
      "hash": "0x6b2fda2e2a37f60b927bbfb6326bbf6b5e5ef919d611aed455296be3da15f8ec",
      "blockHash": "0xcedc8ef2fa4144a5d563cb3e4f83ec5f05333ecfc7ebab0613522e28e345999e",
      "blockNumber": 91887,
      "transactionIndex": 0,
      "confirmations": null,
      "from": "0xFD2605a2bF58fDbB90db1Da55dF61628B47F9e8c",
      "gasPrice": {
        "_hex": "0xd40fe5341"
      },
      "gasLimit": {
        "_hex": "0x15f90"
      },
      "to": "0x0ddd400065450bfE0136854C578819E3822E03BA",
      "value": {
        "_hex": "0x429d069189e0000"
      },
      "nonce": 72,
      "data": "0x",
      "r": "0x7f07c67aef88f863564b6383bd3a0f557afb38e46abcfdfa4f0050077e70b23d",
      "s": "0x53e08c5bfe918d2a995cf15004b0fcd3dbfe09ecc8dcb5a77a09f9b4f18bfcb5",
      "v": 27,
      "creates": null,
      "raw": "0xf86d48850d40fe534183015f90940ddd400065450bfe0136854c578819e3822e03ba880429d069189e0000801ba07f07c67aef88f863564b6383bd3a0f557afb38e46abcfdfa4f0050077e70b23da053e08c5bfe918d2a995cf15004b0fcd3dbfe09ecc8dcb5a77a09f9b4f18bfcb5",
      "networkId": 0,
      "chainId": 0
    }
  ]
}