{
  "hash": "0x9c52c426be6466d0b463201716c05b81cd91cd395c66296a0cfd040761dbf6f6",
  "parentHash": "0xc8aea9c3d2bdc645711b03f15bae9397a56b7f1bc41573313e1dcbe0a0c37e15",
  "number": 48525,
  "timestamp": 1438958521,
  "nonce": "0x55bb56ec2160af99",
  "difficulty": 1467869410266,
  "gasLimit": {
    "_hex": "0x18d34"
  },
  "gasUsed": {
    "_hex": "0x546c"
  },
  "miner": "0xeB1325C8D9d3ea8D74aC11F4B00F1B2367686319",
  "extraData": "0x476574682f76312e302e312f77696e646f77732f676f312e342e32",
  "transactions": [
    {
      "hash": "0x6ab5efb04b3b4a89b39db4e76e56852115fa0e72b3783050d9d0535e7f8923fb",
      "blockHash": "0x9c52c426be6466d0b463201716c05b81cd91cd395c66296a0cfd040761dbf6f6",
      "blockNumber": 48525,
      "transactionIndex": 0,
      "confirmations": null,
      "from": "0xd2a781a0bBBE2c930B012aABf90b3d95A0c6D047",
      "gasPrice": {
        "_hex": "0xd743a3f1a"
      },
      "gasLimit": {
        "_hex": "0x15f90"
      },
      "to": "0x2910543Af39abA0Cd09dBb2D50200b3E800A63D2",
      "value": {
        "_hex": "0x1c46a77471dbc0000"
      },
      "nonce": 0,
      "data": "0x454e51343033375047",
      "r": "0x9fe5870a548a2dcf57ff7b8055fad7546bcf63f25f29031a19076c6daba8613e",
      "s": "0x6c8a9b238ed14ddd5fe8d3e27208563a597c3921dfdf87cba1cbbf56e0c08899",
      "v": 27,
      "creates": null,
      "raw": "0xf87780850d743a3f1a83015f90942910543af39aba0cd09dbb2d50200b3e800a63d28901c46a77471dbc000089454e513430333750471ba09fe5870a548a2dcf57ff7b8055fad7546bcf63f25f29031a19076c6daba8613ea06c8a9b238ed14ddd5fe8d3e27208563a597c3921dfdf87cba1cbbf56e0c08899",
      "networkId": 0,
      "chainId": 0
    }
  ]
}