{
  "hash": "0x9c81f3ab62c8d13b06e8794993ada15ee414d61b1db6f417cdc3aaebdb59f56d",
  "parentHash": "0xce0ce3c5fa79ff276bada1ec012c2f74b9543b33cf387a2536e6f64bf453fb24",
  "number": 95671,
  "timestamp": 1439727689,
  "nonce": "0x2e53e851eadca557",
  "difficulty": 3616180509719,
  "gasLimit": {
    "_hex": "0x2fefd8"
  },
  "gasUsed": {
    "_hex": "0xa410"
  },
  "miner": "0xe6A7a1d47ff21B6321162AEA7C6CB457D5476Bca",
  "extraData": "0x476574682f76312e302e312d38326566323666362f6c696e75782f676f312e34",
  "transactions": [
    {
      "hash": "0x3e66e3404c612f241ec938d23ca64bba20133a50dc669ec39a5111017481c698",
      "blockHash": "0x9c81f3ab62c8d13b06e8794993ada15ee414d61b1db6f417cdc3aaebdb59f56d",
      "blockNumber": 95671,
      "transactionIndex": 0,
      "confirmations": null,
      "from": "0x32Be343B94f860124dC4fEe278FDCBD38C102D88",
      "gasPrice": {
        "_hex": "0xd5e139f3c"
      },
      "gasLimit": {
        "_hex": "0x5208"
      },
      "to": "0x910560734C1155e546d762CB1C5e1669E798AEb4",
      "value": {
        "_hex": "0x29d771e74a8d62000"
      },
      "nonce": 989,
      "data": "0x",
      "r": "0xc553c2344df00cbb7120595a5ffa9b5ded652f461464181c7d65b5f4fa53143a",
      "s": "0x7e9148d6a0f76ca85fdbfaeea09172e2e14cd93a7e97afd894f257be65a4f652",
      "v": 28,
      "creates": null,
      "raw": "0xf86f8203dd850d5e139f3c82520894910560734c1155e546d762cb1c5e1669e798aeb489029d771e74a8d62000801ca0c553c2344df00cbb7120595a5ffa9b5ded652f461464181c7d65b5f4fa53143aa07e9148d6a0f76ca85fdbfaeea09172e2e14cd93a7e97afd894f257be65a4f652",
      "networkId": 0,
      "chainId": 0
    },
    {
      "hash": "0x2bfc704b94610292d3a06884aae6694cd52abcdb939a152f55cac8bde0732ea1",
      "blockHash": "0x9c81f3ab62c8d13b06e8794993ada15ee414d61b1db6f417cdc3aaebdb59f56d",
      "blockNumber": 95671,
      "transactionIndex": 1,
      "confirmations": null,
      "from": "0xE37619a47076d668A13AB535aA1c01E8a32541EF",
      "gasPrice": {
        "_hex": "0xd5e139f3c"
      },
      "gasLimit": {
        "_hex": "0x5208"
      },
      "to": "0x32Be343B94f860124dC4fEe278FDCBD38C102D88",
      "value": {
        "_hex": "0x1314b6ae376870000"
      },
      "nonce": 1,
      "data": "0x",
      "r": "0x3d2d5640a2e2c4f622588774fd5e926320eaa056395f63611f86866eaeaf995b",
      "s": "0x3ea7e0b20956d50d8b448c35268d9aaa487c1bc5e1226892bacfe78d7ccf3714",
      "v": 28,
      "creates": null,
      "raw": "0xf86d01850d5e139f3c8252089432be343b94f860124dc4fee278fdcbd38c102d888901314b6ae376870000801ca03d2d5640a2e2c4f622588774fd5e926320eaa056395f63611f86866eaeaf995ba03ea7e0b20956d50d8b448c35268d9aaa487c1bc5e1226892bacfe78d7ccf3714",
      "networkId": 0,
      "chainId": 0
    }
  ]
}