{
  "hash": "0x5caa5cab94e137b5ae17e8262f2ddf3c79a372656b1d9e686cdfa3a0a639b402",
  "parentHash": "0xbebe3052357a4c3ba55838c0c163388a4b839a778572fb2fc25da52440f0331a",
  "number": 49610,
  "timestamp": 1438976305,
  "nonce": "0x22aba785572b6528",
  "difficulty": 1477025522416,
  "gasLimit": {
    "_hex": "0x3727c"
  },
  "gasUsed": {
    "_hex": "0xa674"
  },
  "miner": "0xB57a69A9cFD1BC39510a70Ab14De3BDa11d1dF70",
  "extraData": "0x476574682f76312e302e312f6c696e75782f676f312e342e32",
  "transactions": [
    {
      "hash": "0x1874bc4c99cc538a43a5f8505d3c7913c831edb54038307d7e8f06b633a03d31",
      "blockHash": "0x5caa5cab94e137b5ae17e8262f2ddf3c79a372656b1d9e686cdfa3a0a639b402",
      "blockNumber": 49610,
      "transactionIndex": 0,
      "confirmations": null,
      "from": "0x28921e4e2C9d84F4c0f0C0cEb991f45751a0fe93",
      "gasPrice": {
        "_hex": "0x11806f25642"
      },
      "gasLimit": {
        "_hex": "0x15f90"
      },
      "to": "0x6B3686623e6F565f3b676Ce4e24D3e4bBc716DA7",
      "value": {
        "_hex": "0x7b995b300ad2a00000"
      },
      "nonce": 2,
      "data": "0x",
      "r": "0xec27b3a0c3116260a58637fe62b997babeaf198e36aa77981707e5525cc3d162",
      "s": "0x4c692eb858e3f63dd064650f8e23e68e33cb4ea7c389f4d52138b2c330c05435",
      "v": 27,
      "creates": null,
      "raw": "0xf86f0286011806f2564283015f90946b3686623e6f565f3b676ce4e24d3e4bbc716da7897b995b300ad2a00000801ba0ec27b3a0c3116260a58637fe62b997babeaf198e36aa77981707e5525cc3d162a04c692eb858e3f63dd064650f8e23e68e33cb4ea7c389f4d52138b2c330c05435",
      "networkId": 0,
      "chainId": 0
    },
    {
      "hash": "0x1ae427c63944d886b79d06a188fe0ccdb93507fdcfbdf1488de6148eb3dd6b91",
      "blockHash": "0x5caa5cab94e137b5ae17e8262f2ddf3c79a372656b1d9e686cdfa3a0a639b402",
      "blockNumber": 49610,
      "transactionIndex": 1,
      "confirmations": null,
      "from": "0x31B43b015D0081643c6CDa46a7073A6dfdbca825",
      "gasPrice": {
        "_hex": "0x110c8f7d8de"
      },
      "gasLimit": {
        "_hex": "0xc350"
      },
      "to": "0x2910543Af39abA0Cd09dBb2D50200b3E800A63D2",
      "value": {
        "_hex": "0x9b6e64a8ec60000"
      },
      "nonce": 1,
      "data": "0x454e553057344a3830",
      "r": "0x143d3f6b617f5e47f68a36e1729668549a1d87d01b779180eea455c89d540166",
      "s": "0x559e2dcf6cab0aeed6e11d51b1cebe0ba4d404e4a8459c717f3260d3af389c9d",
      "v": 28,
      "creates": null,
      "raw": "0xf87601860110c8f7d8de82c350942910543af39aba0cd09dbb2d50200b3e800a63d28809b6e64a8ec6000089454e553057344a38301ca0143d3f6b617f5e47f68a36e1729668549a1d87d01b779180eea455c89d540166a0559e2dcf6cab0aeed6e11d51b1cebe0ba4d404e4a8459c717f3260d3af389c9d",
      "networkId": 0,
      "chainId": 0
    }
  ]
}