{
  "hash": "0x8fbe7beaa941ccbc250151d868c560dd5709fabca1c41d255e943bfc4da146e5",
  "parentHash": "0x86de732b05bf34ccd56bd2fb0acf05837c2844fc737f78ed296054b77c57190e",
  "number": 75993,
  "timestamp": 1439413091,
  "nonce": "0xd844957fb79eb7ea",
  "difficulty": 2235278180720,
  "gasLimit": {
    "_hex": "0x2fefd8"
  },
  "gasUsed": {
    "_hex": "0xad77"
  },
  "miner": "0x2bCdBcd7A2323bA65c13FeB8b267D9738bb18bA3",
  "extraData": "0x",
  "transactions": [
    {
      "hash": "0x648a8245a93961a1ae394ee3e15355ffcca00ea6ef860bc70a10e3c9f2b0b982",
      "blockHash": "0x8fbe7beaa941ccbc250151d868c560dd5709fabca1c41d255e943bfc4da146e5",
      "blockNumber": 75993,
      "transactionIndex": 0,
      "confirmations": null,
      "from": "0x87C5B5874A18B4306DF8a752a6C8cc3E82daFc19",
      "gasPrice": {
        "_hex": "0x10bbd04c7ac"
      },
      "gasLimit": {
        "_hex": "0x493e0"
      },
      "to": "0xD79B4C6791784184e2755B2fC1659eaaB0f80456",
      "value": {
        "_hex": "0x0"
      },
      "nonce": 73,
      "data": "0x03750d940000000000000000000000009724ac4dc56e03379eba5d157d1513ecc32cbd8f6437323463306235356636663430626400000000000000000000000000000000",
      "r": "0x102de7c4f07294873c090da224199a8b85d105392ac622148a4c85cad2f4d5ba",
      "s": "0x39243db21c33f1c597b4fb6efb3a640cc70d5a608ba5fc731e089dd86dd505ac",
      "v": 28,
      "creates": null,
      "raw": "0xf8ab4986010bbd04c7ac830493e094d79b4c6791784184e2755b2fc1659eaab0f8045680b84403750d940000000000000000000000009724ac4dc56e03379eba5d157d1513ecc32cbd8f64373234633062353566366634306264000000000000000000000000000000001ca0102de7c4f07294873c090da224199a8b85d105392ac622148a4c85cad2f4d5baa039243db21c33f1c597b4fb6efb3a640cc70d5a608ba5fc731e089dd86dd505ac",
      "networkId": 0,
      "chainId": 0
    }
  ]
}