{
  "hash": "0xfa7e5b10d55a680de73a3bb6b78ee20fabf8639775f86fbd94151fb0f8423e02",
  "parentHash": "0xd24427e839df4722ef5a8209eeb6126afab7d16786e88b267839b4e3cb8430d8",
  "number": 75764,
  "timestamp": 1439408928,
  "nonce": "0xc4d3502946c1f15a",
  "difficulty": 2223365170505,
  "gasLimit": {
    "_hex": "0x2fefd8"
  },
  "gasUsed": {
    "_hex": "0x5208"
  },
  "miner": "0xEF247E639d49461D25F57e9362CadE3120910Ce0",
  "extraData": "0x476574682f76312e302e312f6c696e75782f676f312e342e32",
  "transactions": [
    {
      "hash": "0x28ed8758b508e09246424dc4c5895cc769827a1da9d7c9d1519c3bcfad13f44e",
      "blockHash": "0xfa7e5b10d55a680de73a3bb6b78ee20fabf8639775f86fbd94151fb0f8423e02",
      "blockNumber": 75764,
      "transactionIndex": 0,
      "confirmations": null,
      "from": "0x617Ff2CC803e31C9082233b825D025BE3f7b1056",
      "gasPrice": {
        "_hex": "0xd245dc74c"
      },
      "gasLimit": {
        "_hex": "0x15f90"
      },
      "to": "0x72907bC54bB4C0797c238CDD6DA2A2522A8A63f4",
      "value": {
        "_hex": "0x1b1ae4d6e2ef500000"
      },
      "nonce": 4,
      "data": "0x",
      "r": "0xb924e651a4b89ae8f0a29512e4058daae7c3df6127068663ec19b46428cad343",
      "s": "0x52031dfec4c2dc5be10fba587ac9c68d1d9deac2aa55fcc582cdc0b87c6a8627",
      "v": 27,
      "creates": null,
      "raw": "0xf86e04850d245dc74c83015f909472907bc54bb4c0797c238cdd6da2a2522a8a63f4891b1ae4d6e2ef500000801ba0b924e651a4b89ae8f0a29512e4058daae7c3df6127068663ec19b46428cad343a052031dfec4c2dc5be10fba587ac9c68d1d9deac2aa55fcc582cdc0b87c6a8627",
      "networkId": 0,
      "chainId": 0
    }
  ]
}