{
  "hash": "0x4d95e99111e0547a3b40fd52d5b542300af5df6a2958b75fd414a4a829b3e133",
  "parentHash": "0xe2c32f00f0074ca22833c7d0f4225567174518ead910d1dd982892efe7a0e3e3",
  "number": 121464,
  "timestamp": 1440177436,
  "nonce": "0xcddffe2868604155",
  "difficulty": 4440822938201,
  "gasLimit": {
    "_hex": "0x2fefd8"
  },
  "gasUsed": {
    "_hex": "0x5208"
  },
  "miner": "0x33F36DffD23cf019833E1d59cBc7138824b12289",
  "extraData": "0xda8098302e392e34312b2b302d524c696e75782f672b2b2f696e74",
  "transactions": [
    {
      "hash": "0x2e27eca7f42d7e3306fbf95dde8fa380a177c2de9c4d9bad57f20f552560c504",
      "blockHash": "0x4d95e99111e0547a3b40fd52d5b542300af5df6a2958b75fd414a4a829b3e133",
      "blockNumber": 121464,
      "transactionIndex": 0,
      "confirmations": null,
      "from": "0x120A270bbC009644e35F0bB6ab13f95b8199c4ad",
      "gasPrice": {
        "_hex": "0xba43b7400"
      },
      "gasLimit": {
        "_hex": "0x3d090"
      },
      "to": "0xdDbddD1BBd38fFADE0305d30f02028D92e9f3Aa8",
      "value": {
        "_hex": "0x2086ac351052600000"
      },
      "nonce": 979,
      "data": "0x",
      "r": "0x14da51622bc2467f830db241410eb0ff2126d13de67c121850f96b58d26acef1",
      "s": "0x53a4d84d32c83cc22c7d6017b3f345b1ade85346c9867ce4b88ff938a41a0418",
      "v": 27,
      "creates": null,
      "raw": "0xf8708203d3850ba43b74008303d09094ddbddd1bbd38ffade0305d30f02028d92e9f3aa8892086ac351052600000801ba014da51622bc2467f830db241410eb0ff2126d13de67c121850f96b58d26acef1a053a4d84d32c83cc22c7d6017b3f345b1ade85346c9867ce4b88ff938a41a0418",
      "networkId": 0,
      "chainId": 0
    }
  ]
}