{
  "hash": "0x8037b421311b5c3f988f744b29f72f1f7fd2adb692f52b6d8e02d3b71c5a00bc",
  "parentHash": "0x35b9f760c8c45c59aeec9fa3d7fedca2a6d9010d3fabb625a43d27fa5b5e718f",
  "number": 98135,
  "timestamp": 1439767553,
  "nonce": "0x9012d7f2ed8719b7",
  "difficulty": 3882245399381,
  "gasLimit": {
    "_hex": "0x2fefd8"
  },
  "gasUsed": {
    "_hex": "0x546c"
  },
  "miner": "0xe6A7a1d47ff21B6321162AEA7C6CB457D5476Bca",
  "extraData": "0x476574682f76312e302e312d38326566323666362f6c696e75782f676f312e34",
  "transactions": [
    {
      "hash": "0x2cf6aa01f276431f72d1c6cad7ed8acf94c03d29023a647fd1fbe0876cd51b1f",
      "blockHash": "0x8037b421311b5c3f988f744b29f72f1f7fd2adb692f52b6d8e02d3b71c5a00bc",
      "blockNumber": 98135,
      "transactionIndex": 0,
      "confirmations": null,
      "from": "0xAA5afCFd8309c2Df9d15Be5E6A504e7d706624c5",
      "gasPrice": {
        "_hex": "0x110c8f7d8de"
      },
      "gasLimit": {
        "_hex": "0xc350"
      },
      "to": "0x2910543Af39abA0Cd09dBb2D50200b3E800A63D2",
      "value": {
        "_hex": "0xde0b6b3a7640000"
      },
      "nonce": 0,
      "data": "0x454e3248364d343130",
      "r": "0x650107e47a6d1643eb90bcee012e96e910b9d67a76f204969d6e2a10740d856b",
      "s": "0x826e19cb08fce586c0970a08dc234f4143c05f10364ceef3a8ba19e0645c1597",
      "v": 28,
      "creates": null,
      "raw": "0xf87680860110c8f7d8de82c350942910543af39aba0cd09dbb2d50200b3e800a63d2880de0b6b3a764000089454e3248364d3431301ca0650107e47a6d1643eb90bcee012e96e910b9d67a76f204969d6e2a10740d856ba0826e19cb08fce586c0970a08dc234f4143c05f10364ceef3a8ba19e0645c1597",
      "networkId": 0,
      "chainId": 0
    }
  ]
}