{
  "hash": "0x039e71ac90d675acde686e10f5c742068c55b1e6eb31c8c01155039d7f4000f3",
  "parentHash": "0x6afaeee39ad8d55831aa904f770a524e31eddf910e7398bd76db4ba5cf8bd381",
  "number": 116960,
  "timestamp": 1440100833,
  "nonce": "0x5d24f491b48b0451",
  "difficulty": 4314924153984,
  "gasLimit": {
    "_hex": "0x2fefd8"
  },
  "gasUsed": {
    "_hex": "0x5208"
  },
  "miner": "0xe6A7a1d47ff21B6321162AEA7C6CB457D5476Bca",
  "extraData": "0xd783010002844765746887676f312e342e32856c696e7578",
  "transactions": [
    {
      "hash": "0xe34161b5821168b1af52ada77a16e5e103e0d5c6433e49a2bbc9fd2db0b8d757",
      "blockHash": "0x039e71ac90d675acde686e10f5c742068c55b1e6eb31c8c01155039d7f4000f3",
      "blockNumber": 116960,
      "transactionIndex": 0,
      "confirmations": null,
      "from": "0x7366ADF97960d404c38D975e1A8786bEb14B6507",
      "gasPrice": {
        "_hex": "0xd0ef7b0be"
      },
      "gasLimit": {
        "_hex": "0x15f90"
      },
      "to": "0xB9A0a0410aA5e26bFa66Cc3ACAF0A6FC61Df5588",
      "value": {
        "_hex": "0x2ed6689e54f180000"
      },
      "nonce": 13,
      "data": "0x",
      "r": "0x1a1a99ac3ca2d5aed0532bfa4f8226bf8b040a8b7c6c32c8bf32ec6e300a6de8",
      "s": "0x5959c45fc3dd776d58d57201151f4319c7180c8803501e9664bfb3d5b3208abc",
      "v": 27,
      "creates": null,
      "raw": "0xf86e0d850d0ef7b0be83015f9094b9a0a0410aa5e26bfa66cc3acaf0a6fc61df55888902ed6689e54f180000801ba01a1a99ac3ca2d5aed0532bfa4f8226bf8b040a8b7c6c32c8bf32ec6e300a6de8a05959c45fc3dd776d58d57201151f4319c7180c8803501e9664bfb3d5b3208abc",
      "networkId": 0,
      "chainId": 0
    }
  ]
}