{
  "hash": "0x8fd3603b3b5064afac50c096d8b406c8715a91714a5dfa427cc65ce05d02db71",
  "parentHash": "0xae51b3e947c442282653582057aae79aca0ac5c45cd7b7cb831364aff23a797d",
  "number": 105584,
  "timestamp": 1439889986,
  "nonce": "0xcc047fbdcacf3db2",
  "difficulty": 4418926580049,
  "gasLimit": {
    "_hex": "0x2fefd8"
  },
  "gasUsed": {
    "_hex": "0x5208"
  },
  "miner": "0x76CB306530455abB4341FC10608d5FD869389acf",
  "extraData": "0xd983010001844765746887676f312e342e328777696e646f7773",
  "transactions": [
    {
      "hash": "0xf136b4e949c53ce3971659fe647ce17e53e1b9e723a90493f4ccdaa82a2df84b",
      "blockHash": "0x8fd3603b3b5064afac50c096d8b406c8715a91714a5dfa427cc65ce05d02db71",
      "blockNumber": 105584,
      "transactionIndex": 0,
      "confirmations": null,
      "from": "0x412a68f6C645559cC977Fc4964047a201d1bb0e2",
      "gasPrice": {
        "_hex": "0xd684a5ab5"
      },
      "gasLimit": {
        "_hex": "0x15f90"
      },
      "to": "0x6faA8C878ccDd5533A99dEd90684e71eB20a0A1A",
      "value": {
        "_hex": "0x55de6a779bbac0000"
      },
      "nonce": 1,
      "data": "0x",
      "r": "0x879e987c24a973a119f4f818004de54efbdbf1101569af7a69b783f82ca7b3fb",
      "s": "0x548af91070751055b9ff512c9cce3ff72d5134228828f2ef1841eaa4e08a5f9f",
      "v": 28,
      "creates": null,
      "raw": "0xf86e01850d684a5ab583015f90946faa8c878ccdd5533a99ded90684e71eb20a0a1a89055de6a779bbac0000801ca0879e987c24a973a119f4f818004de54efbdbf1101569af7a69b783f82ca7b3fba0548af91070751055b9ff512c9cce3ff72d5134228828f2ef1841eaa4e08a5f9f",
      "networkId": 0,
      "chainId": 0
    }
  ]
}