{
  "hash": "0x1bed59eb685f990c4ad66c5ed183c91435ad7a1b787f1a331ec64f7969eabdef",
  "parentHash": "0x8ccd4c98131f709484579a5ecaa5bc34d431e0cf9abebfdd840b49810f00cf7a",
  "number": 95527,
  "timestamp": 1439725433,
  "nonce": "0x3575c095f7c0ea65",
  "difficulty": 3619775798205,
  "gasLimit": {
    "_hex": "0x2fefd8"
  },
  "gasUsed": {
    "_hex": "0x1d5e8"
  },
  "miner": "0xe6A7a1d47ff21B6321162AEA7C6CB457D5476Bca",
  "extraData": "0x476574682f76312e302e312d38326566323666362f6c696e75782f676f312e34",
  "transactions": [
    {
      "hash": "0x641700539e2d48e8eecd6c11ce8089405f394b920dd2ebefb0fcf5f9c42c7fa5",
      "blockHash": "0x1bed59eb685f990c4ad66c5ed183c91435ad7a1b787f1a331ec64f7969eabdef",
      "blockNumber": 95527,
      "transactionIndex": 0,
      "confirmations": null,
      "from": "0xCdA0AD7542e30BF520652A05056eBe0105c7e49A",
      "gasPrice": {
        "_hex": "0xcda2bae85"
      },
      "gasLimit": {
        "_hex": "0x1e8480"
      },
      "to": "0xde0B295669a9FD93d5F28D9Ec85E40f4cb697BAe",
      "value": {
        "_hex": "0x0"
      },
      "nonce": 4,
      "data": "0xf00d4b5d000000000000000000000000cda0ad7542e30bf520652a05056ebe0105c7e49a00000000000000000000000002e816afc1b5c0f39852131959d946eb3b07b5ad",
      "r": "0xf34bf5370f20781bec015f798a5085797448dd1edfa63feac07ede4aca134062",
      "s": "0x2c7b7a7a880308d2a9f7b4fdfd47a3becf749d1dbb4a49e9294bddbe95fabc1e",
      "v": 28,
      "creates": null,
      "raw": "0xf8aa04850cda2bae85831e848094de0b295669a9fd93d5f28d9ec85e40f4cb697bae80b844f00d4b5d000000000000000000000000cda0ad7542e30bf520652a05056ebe0105c7e49a00000000000000000000000002e816afc1b5c0f39852131959d946eb3b07b5ad1ca0f34bf5370f20781bec015f798a5085797448dd1edfa63feac07ede4aca134062a02c7b7a7a880308d2a9f7b4fdfd47a3becf749d1dbb4a49e9294bddbe95fabc1e",
      "networkId": 0,
      "chainId": 0
    },
    {
      "hash": "0xc2e1d84a01f3552cda19c0b0e1a848a85d91109682bae76a3f0d7e1a6017b620",
      "blockHash": "0x1bed59eb685f990c4ad66c5ed183c91435ad7a1b787f1a331ec64f7969eabdef",
      "blockNumber": 95527,
      "transactionIndex": 1,
      "confirmations": null,
      "from": "0xAF17A4ab5d6B10055Fc1eB1BFaCcbDe69B83aF76",
      "gasPrice": {
        "_hex": "0xcd73ca163"
      },
      "gasLimit": {
        "_hex": "0x5208"
      },
      "to": "0x32Be343B94f860124dC4fEe278FDCBD38C102D88",
      "value": {
        "_hex": "0x3170490a921df6000"
      },
      "nonce": 2,
      "data": "0x",
      "r": "0x0047ad5398b5d901c149e7f214b516b5f8222b97ca261085fa374542ba4fe191",
      "s": "0x56e98f72a24a52b8e63f71255907edd9ee5d77fdd1a5f63edbc9eb0ead241090",
      "v": 28,
      "creates": null,
      "raw": "0xf86c02850cd73ca1638252089432be343b94f860124dc4fee278fdcbd38c102d888903170490a921df6000801c9f47ad5398b5d901c149e7f214b516b5f8222b97ca261085fa374542ba4fe191a056e98f72a24a52b8e63f71255907edd9ee5d77fdd1a5f63edbc9eb0ead241090",
      "networkId": 0,
      "chainId": 0
    }
  ]
}