{
  "hash": "0xc4fb10804ec8beb2417459616640d10565d04e00e55b37b68de519a6a39586ca",
  "parentHash": "0x8843dc21f8d7d33daa6d74333517c8634bc9ef9fff89937c2598f956da13ab70",
  "number": 51873,
  "timestamp": 1439012353,
  "nonce": "0x377ecc23cb6a96da",
  "difficulty": 1561915356589,
  "gasLimit": {
    "_hex": "0xe8390"
  },
  "gasUsed": {
    "_hex": "0x546c"
  },
  "miner": "0xBD744E3F13D79B33F6c8E1d5E32F8E9BA2866c46",
  "extraData": "0x476574682f76312e302e312d39613032663533372f6c696e75782f676f312e34",
  "transactions": [
    {
      "hash": "0xb7751227d9ac313d8a75d16ed80152fa9c5df67c4236a660145c1d3f79501827",
      "blockHash": "0xc4fb10804ec8beb2417459616640d10565d04e00e55b37b68de519a6a39586ca",
      "blockNumber": 51873,
      "transactionIndex": 0,
      "confirmations": null,
      "from": "0xC7bf17c4C11f98941F507e77084fFfBd2DBd3dB5",
      "gasPrice": {
        "_hex": "0xdfa3c035c"
      },
      "gasLimit": {
        "_hex": "0x15f90"
      },
      "to": "0x2910543Af39abA0Cd09dBb2D50200b3E800A63D2",
      "value": {
        "_hex": "0x30bc2198e4d42c0000"
      },
      "nonce": 1,
      "data": "0x454e36503741554a52",
      "r": "0x0bf3825098fb4118daa9a2180290de49cf8a71f8f5b7c564722990216d96dacc",
      "s": "0x7e2a040997bf376fa8ea82d0070c56566640ec6a81554d742c66f23a67afa822",
      "v": 28,
      "creates": null,
      "raw": "0xf87701850dfa3c035c83015f90942910543af39aba0cd09dbb2d50200b3e800a63d28930bc2198e4d42c000089454e36503741554a521ca00bf3825098fb4118daa9a2180290de49cf8a71f8f5b7c564722990216d96dacca07e2a040997bf376fa8ea82d0070c56566640ec6a81554d742c66f23a67afa822",
      "networkId": 0,
      "chainId": 0
    }
  ]
}