{
  "hash": "0x45a4aca9c50e96d09033ec102c907da6b52bfe196c71970c4a9e459f36d27146",
  "parentHash": "0x72eb744c3aaff1fd2463c32371f566873b58f50d47915fab411aaae09cfbe3a9",
  "number": 70974,
  "timestamp": 1439328435,
  "nonce": "0x39dc9bb36fc1a168",
  "difficulty": 2160405695351,
  "gasLimit": {
    "_hex": "0x2fefd8"
  },
  "gasUsed": {
    "_hex": "0x18a18"
  },
  "miner": "0x74016F15e9262E1fAb078146a4002ACc513AfEf0",
  "extraData": "0x476574682f76312e302e312f6c696e75782f676f312e342e32",
  "transactions": [
    {
      "hash": "0xaada503216a68b159ffcc8927cf368e0b44ca2632eb5ea6528852340aa8aeab3",
      "blockHash": "0x45a4aca9c50e96d09033ec102c907da6b52bfe196c71970c4a9e459f36d27146",
      "blockNumber": 70974,
      "transactionIndex": 0,
      "confirmations": null,
      "from": "0x8C65FdfE51a3493bC533ee2db5b1f639a702F145",
      "gasPrice": {
        "_hex": "0xdbe76baf4"
      },
      "gasLimit": {
        "_hex": "0x5208"
      },
      "to": "0x32Be343B94f860124dC4fEe278FDCBD38C102D88",
      "value": {
        "_hex": "0x6ebf3e9f9e47400"
      },
      "nonce": 1,
      "data": "0x",
      "r": "0x968c3c250d3b7f24a53355d98fd98183fb4a550f5dbf201472f7b9fb48509575",
      "s": "0x5564cf2cc4c9c320c4263c0c232fe20580d27d1bde5f69b226bc664996b46f18",
      "v": 27,
      "creates": null,
      "raw": "0xf86c01850dbe76baf48252089432be343b94f860124dc4fee278fdcbd38c102d888806ebf3e9f9e47400801ba0968c3c250d3b7f24a53355d98fd98183fb4a550f5dbf201472f7b9fb48509575a05564cf2cc4c9c320c4263c0c232fe20580d27d1bde5f69b226bc664996b46f18",
      "networkId": 0,
      "chainId": 0
    },
    {
      "hash": "0x584dd91c4ebf17dab37692f23ebb04ebdd4c836d57bc6db374f1ebd5183d06da",
      "blockHash": "0x45a4aca9c50e96d09033ec102c907da6b52bfe196c71970c4a9e459f36d27146",
      "blockNumber": 70974,
      "transactionIndex": 1,
      "confirmations": null,
      "from": "0xa70a9a7040d542C632D8e0bE7c5513A8a5Bbc752",
      "gasPrice": {
        "_hex": "0xdbe76baf4"
      },
      "gasLimit": {
        "_hex": "0x5208"
      },
      "to": "0x32Be343B94f860124dC4fEe278FDCBD38C102D88",
      "value": {
        "_hex": "0x4563788d65802000"
      },
      "nonce": 13,
      "data": "0x",
      "r": "0xf8f79dada3774cc41e82c88768b99d116e3f72b585150fc2d89ec71a5048ef6e",
      "s": "0x777f5dc57b26f7accdad10f867edf206dd9e9b6fbf0479433833ee2d08f03246",
      "v": 28,
      "creates": null,
      "raw": "0xf86c0d850dbe76baf48252089432be343b94f860124dc4fee278fdcbd38c102d88884563788d65802000801ca0f8f79dada3774cc41e82c88768b99d116e3f72b585150fc2d89ec71a5048ef6ea0777f5dc57b26f7accdad10f867edf206dd9e9b6fbf0479433833ee2d08f03246",
      "networkId": 0,
      "chainId": 0
    },
    {
      "hash": "0x6a9cf197c7994204e9d429765a2892a7728dc6d5f1156efdb7bda0ba8de2d5ee",
      "blockHash": "0x45a4aca9c50e96d09033ec102c907da6b52bfe196c71970c4a9e459f36d27146",
      "blockNumber": 70974,
      "transactionIndex": 2,
      "confirmations": null,
      "from": "0xC332dF50b13C013490A5d7C75DBFA366Da87b6d6",
      "gasPrice": {
        "_hex": "0xd815fc529"
      },
      "gasLimit": {
        "_hex": "0x5208"
      },
      "to": "0x42098C814e1a9a72F466bd0CF1bf3B33249d7668",
      "value": {
        "_hex": "0x56bc75e2d63100000"
      },
      "nonce": 0,
      "data": "0x",
      "r": "0xadec63e1ed7c6d6f570218a1a8c35cf13a2938cfdb33fde09942b968d7027e0e",
      "s": "0x480676c91b94da9cb7accc009767e27df45768dd7e49848542133159f7bda126",
      "v": 27,
      "creates": null,
      "raw": "0xf86d80850d815fc5298252089442098c814e1a9a72f466bd0cf1bf3b33249d766889056bc75e2d63100000801ba0adec63e1ed7c6d6f570218a1a8c35cf13a2938cfdb33fde09942b968d7027e0ea0480676c91b94da9cb7accc009767e27df45768dd7e49848542133159f7bda126",
      "networkId": 0,
      "chainId": 0
    },
    {
      "hash": "0xf5879364cb324c89b7282acb1d6ebcae699f85a4e45f5a915284fbb957c62189",
      "blockHash": "0x45a4aca9c50e96d09033ec102c907da6b52bfe196c71970c4a9e459f36d27146",
      "blockNumber": 70974,
      "transactionIndex": 3,
      "confirmations": null,
      "from": "0x17580B766f7453525ca4C6A88b01b50570EA088C",
      "gasPrice": {
        "_hex": "0xd2160a11c"
      },
      "gasLimit": {
        "_hex": "0x61a80"
      },
      "to": "0x5Fe5B7546D1628f7348B023A0393de1FC825A4fD",
      "value": {
        "_hex": "0x29a2241af62c0000"
      },
      "nonce": 68,
      "data": "0xb595b8b50000000000000000000000000000000000000000000000000000000000000001",
      "r": "0x7d918d288505e4c3a9211e867611c929e5ee7498b002a5ae239103cd3c9aa9ca",
      "s": "0x36a92a68a2298c24f95f36c38c7cf4679c1dad4c31de29bd3635522c50ec7040",
      "v": 27,
      "creates": null,
      "raw": "0xf89144850d2160a11c83061a80945fe5b7546d1628f7348b023a0393de1fc825a4fd8829a2241af62c0000a4b595b8b500000000000000000000000000000000000000000000000000000000000000011ba07d918d288505e4c3a9211e867611c929e5ee7498b002a5ae239103cd3c9aa9caa036a92a68a2298c24f95f36c38c7cf4679c1dad4c31de29bd3635522c50ec7040",
      "networkId": 0,
      "chainId": 0
    }
  ]
}