{
  "hash": "0x593953673a2dc55e03eb5da5f2fffd5062c387fb7766854c07105c356455da55",
  "parentHash": "0x0e693b28b03f52e8b42e13e43df6bb4111fc2ee63b3e3f3cbef13dacd695e5bd",
  "number": 99817,
  "timestamp": 1439796076,
  "nonce": "0x0289bb38a017de73",
  "difficulty": 3839994748551,
  "gasLimit": {
    "_hex": "0x2fefd8"
  },
  "gasUsed": {
    "_hex": "0x5208"
  },
  "miner": "0x580992B51e3925e23280EfB93d3047C82f17E038",
  "extraData": "0x476574682f76312e302e312f6c696e75782f676f312e342e32",
  "transactions": [
    {
      "hash": "0x1f70a7e66a6e40a8bd24433145962c4b2b9379b6d8f235cc84fd5b1e3ea61c6d",
      "blockHash": "0x593953673a2dc55e03eb5da5f2fffd5062c387fb7766854c07105c356455da55",
      "blockNumber": 99817,
      "transactionIndex": 0,
      "confirmations": null,
      "from": "0x7884D470204862a0d1A21122F41ee77430396Ee5",
      "gasPrice": {
        "_hex": "0xddb125a6c"
      },
      "gasLimit": {
        "_hex": "0x15f90"
      },
      "to": "0x266398c42818181B797E98b039c62d72a52D6FD6",
      "value": {
        "_hex": "0xb1a2bc2ec50000"
      },
      "nonce": 42,
      "data": "0x",
      "r": "0xa12d85aee1c972cfdb0bbcb07fb524d8b9402d09c4c49f1336090de688a15d7a",
      "s": "0x3a89c7de42f68e7aae5a57e487b88b3b4fa4b7502c2d2b5434943e5d1404c312",
      "v": 28,
      "creates": null,
      "raw": "0xf86c2a850ddb125a6c83015f9094266398c42818181b797e98b039c62d72a52d6fd687b1a2bc2ec50000801ca0a12d85aee1c972cfdb0bbcb07fb524d8b9402d09c4c49f1336090de688a15d7aa03a89c7de42f68e7aae5a57e487b88b3b4fa4b7502c2d2b5434943e5d1404c312",
      "networkId": 0,
      "chainId": 0
    }
  ]
}