{
  "hash": "0xd534f6752cc24a7c0f4b8877862bee1ff9225ed11155fee4b9c0e910dafaac6f",
  "parentHash": "0x4a54ae0ff5a598747ac287ba38df6898605bcf1baad19173aa2098d78bbf85d9",
  "number": 51573,
  "timestamp": 1439007235,
  "nonce": "0x1230e94e8836d9bd",
  "difficulty": 1560446597965,
  "gasLimit": {
    "_hex": "0xc0a42"
  },
  "gasUsed": {
    "_hex": "0x6aaf"
  },
  "miner": "0xf07aAde57CeD1af9a2D538eCcbfD96103f6F2410",
  "extraData": "0x476574682f76312e302e302f77696e646f77732f676f312e342e32",
  "transactions": [
    {
      "hash": "0xf7cf6c6e045f368843b98a24b7adfbedb9d916435305b2e35ba43ecd531f381a",
      "blockHash": "0xd534f6752cc24a7c0f4b8877862bee1ff9225ed11155fee4b9c0e910dafaac6f",
      "blockNumber": 51573,
      "transactionIndex": 0,
      "confirmations": null,
      "from": "0x2905726Ed11131A984ce9C0119cB32DBC99dE90B",
      "gasPrice": {
        "_hex": "0x100db1c5ee1"
      },
      "gasLimit": {
        "_hex": "0x30d40"
      },
      "to": "0xd94BAdbEC21695B7a36ABCb979EFad0108319d18",
      "value": {
        "_hex": "0x5af3107a4000"
      },
      "nonce": 24,
      "data": "0xa69beaba6558697374656e5a000000000000000000000000000000000000000000000000",
      "r": "0x08fdd7f5592025be4d8e19d086d00634767f714d552e60f5da0807fd16ca848f",
      "s": "0x38dd439e7efd9b5499b314663d88301773c4a05b29d0ba8933748fa10604b82f",
      "v": 27,
      "creates": null,
      "raw": "0xf89018860100db1c5ee183030d4094d94badbec21695b7a36abcb979efad0108319d18865af3107a4000a4a69beaba6558697374656e5a0000000000000000000000000000000000000000000000001ba008fdd7f5592025be4d8e19d086d00634767f714d552e60f5da0807fd16ca848fa038dd439e7efd9b5499b314663d88301773c4a05b29d0ba8933748fa10604b82f",
      "networkId": 0,
      "chainId": 0
    }
  ]
}