{
  "hash": "0x78d93a02ba1111a30e1cdd71ee6e815e63465aba38a5e74e0187ea43bafeb151",
  "parentHash": "0x9cbbb61cef4a331705a90b6b0360c4c68b1da4bfbdb20b0f425c0cb6b513aa5d",
  "number": 93414,
  "timestamp": 1439689925,
  "nonce": "0x2b63dbdd358b7006",
  "difficulty": 3500733682397,
  "gasLimit": {
    "_hex": "0x2fefd8"
  },
  "gasUsed": {
    "_hex": "0x5208"
  },
  "miner": "0x55bAf64fc9eAccFFd7Cc643BB61142E1C6ac093e",
  "extraData": "0x",
  "transactions": [
    {
      "hash": "0x064e50f7b1183989436da06dc74403ece311d596b2d2de35b531aed53524d234",
      "blockHash": "0x78d93a02ba1111a30e1cdd71ee6e815e63465aba38a5e74e0187ea43bafeb151",
      "blockNumber": 93414,
      "transactionIndex": 0,
      "confirmations": null,
      "from": "0xB96841CAbbc7dbd69ef0cf8F81Dff3C8A5E21570",
      "gasPrice": {
        "_hex": "0xd5bd70cd3"
      },
      "gasLimit": {
        "_hex": "0x15f90"
      },
      "to": "0x0092C5f887DD0e13E43dBDbcedFa02e332C11FDb",
      "value": {
        "_hex": "0x14526f8a53be8f80000"
      },
      "nonce": 2,
      "data": "0x",
      "r": "0x64c7503ae3843ce234d11d9d95212324a87a42f0014debd0a0726d291e609f6d",
      "s": "0x7a33ebd6bbee721622c3e5535721047ee942084882745199b8dccd4c5d8e6f40",
      "v": 27,
      "creates": null,
      "raw": "0xf86f02850d5bd70cd383015f90940092c5f887dd0e13e43dbdbcedfa02e332c11fdb8a014526f8a53be8f80000801ba064c7503ae3843ce234d11d9d95212324a87a42f0014debd0a0726d291e609f6da07a33ebd6bbee721622c3e5535721047ee942084882745199b8dccd4c5d8e6f40",
      "networkId": 0,
      "chainId": 0
    }
  ]
}