{
  "hash": "0x550c7276690034fb453a94f8ffecf47f89aa715fd24bd3297639be2b92d52f9e",
  "parentHash": "0x5cedca52d60d2e3ae1e23bcff3ff8eb3ee54a2717111bf06ee8f7c08fbd03de1",
  "number": 101297,
  "timestamp": 1439820723,
  "nonce": "0xe9e4db7455cc2def",
  "difficulty": 3809439512141,
  "gasLimit": {
    "_hex": "0x2fefd8"
  },
  "gasUsed": {
    "_hex": "0x5208"
  },
  "miner": "0xe6A7a1d47ff21B6321162AEA7C6CB457D5476Bca",
  "extraData": "0x476574682f76312e302e312d38326566323666362f6c696e75782f676f312e34",
  "transactions": [
    {
      "hash": "0xd99c0149b5c469e9aa293e963a2de9a399a18babf8a9773058b99dd3703ee403",
      "blockHash": "0x550c7276690034fb453a94f8ffecf47f89aa715fd24bd3297639be2b92d52f9e",
      "blockNumber": 101297,
      "transactionIndex": 0,
      "confirmations": null,
      "from": "0x95B8Be50517B180F2F101f1cFe0E4C66Ad6fa7dd",
      "gasPrice": {
        "_hex": "0xd7e6e5953"
      },
      "gasLimit": {
        "_hex": "0x7530"
      },
      "to": "0xbCab99c9250A69cCD7395f2543ed52FF1e220398",
      "value": {
        "_hex": "0x16345785d8a0000"
      },
      "nonce": 10,
      "data": "0x",
      "r": "0xc41d61f35c9973f323401a8cd001a2f34887484b8ef346d3d3b5699c2d51bfef",
      "s": "0x273ae89ea36af1d2e4f344e1a2fa784f23610b80befe11d6455dc2a46fd9b3ba",
      "v": 28,
      "creates": null,
      "raw": "0xf86c0a850d7e6e595382753094bcab99c9250a69ccd7395f2543ed52ff1e22039888016345785d8a0000801ca0c41d61f35c9973f323401a8cd001a2f34887484b8ef346d3d3b5699c2d51bfefa0273ae89ea36af1d2e4f344e1a2fa784f23610b80befe11d6455dc2a46fd9b3ba",
      "networkId": 0,
      "chainId": 0
    }
  ]
}