{
  "hash": "0x6e1ddef7047f9af0e77b12b2ebd9c5173db973875227900484525f4e048dfca6",
  "parentHash": "0x18f8bbe26e64f5da676c9a17f4dcd21956df8654f7a37e62665a02fceb069f75",
  "number": 73722,
  "timestamp": 1439373841,
  "nonce": "0xa5b1123ae5f91adc",
  "difficulty": 2223906459938,
  "gasLimit": {
    "_hex": "0x2fe480"
  },
  "gasUsed": {
    "_hex": "0x7a83"
  },
  "miner": "0x0193d941b50d91BE6567c7eE1C0Fe7AF498b4137",
  "extraData": "0x4a5ace9e4e",
  "transactions": [
    {
      "hash": "0x3804b5d92d6aa288cc68c35a076a8344ef392228298d07a681cae11994fc51cd",
      "blockHash": "0x6e1ddef7047f9af0e77b12b2ebd9c5173db973875227900484525f4e048dfca6",
      "blockNumber": 73722,
      "transactionIndex": 0,
      "confirmations": null,
      "from": "0x008FC7CBAdFFbD0D7fe44F8DFD60a79d721a1c9C",
      "gasPrice": {
        "_hex": "0xcd21438fd"
      },
      "gasLimit": {
        "_hex": "0x30d40"
      },
      "to": "0x465b83e4b4C0294Bf6d374d4733B95bb150bD21C",
      "value": {
        "_hex": "0x38d7ea4c68000"
      },
      "nonce": 15,
      "data": "0x",
      "r": "0x2555796a76dee8a24530cc42af6bd626dbea081ad20cfdd3131df68b0a60ece1",
      "s": "0x77d67df11edfe04e72251aeb1f6b880886ac8e86b612a36cef88f28ad1a3deb8",
      "v": 28,
      "creates": null,
      "raw": "0xf86c0f850cd21438fd83030d4094465b83e4b4c0294bf6d374d4733b95bb150bd21c87038d7ea4c68000801ca02555796a76dee8a24530cc42af6bd626dbea081ad20cfdd3131df68b0a60ece1a077d67df11edfe04e72251aeb1f6b880886ac8e86b612a36cef88f28ad1a3deb8",
      "networkId": 0,
      "chainId": 0
    }
  ]
}