{
  "hash": "0x7c023f9cb4f648ffece4ddad777eca8419914f38c287ead1db2ea4f2e31cd8ba",
  "parentHash": "0x6bf04ab86e3d57ed165eac4fee33a8fb1f97b618703e64a389c56e7534bba52e",
  "number": 113849,
  "timestamp": 1440030750,
  "nonce": "0x36538de9b70dd8a1",
  "difficulty": 4442686243384,
  "gasLimit": {
    "_hex": "0x2fefd8"
  },
  "gasUsed": {
    "_hex": "0x546c"
  },
  "miner": "0xD0ee3F53eE0fCf3F9fbCcdd17BD1b6441DdC2074",
  "extraData": "0x476574682f76312e302e312d38326566323666362f6c696e75782f676f312e34",
  "transactions": [
    {
      "hash": "0xfe39869acda5a2c2f878965faaf3472ece9a1620856f01633f14c9f9f64aa926",
      "blockHash": "0x7c023f9cb4f648ffece4ddad777eca8419914f38c287ead1db2ea4f2e31cd8ba",
      "blockNumber": 113849,
      "transactionIndex": 0,
      "confirmations": null,
      "from": "0x9475C510ec9A26979247744C3d8C3B0e0b5f44d3",
      "gasPrice": {
        "_hex": "0x110c8f7d8de"
      },
      "gasLimit": {
        "_hex": "0xc350"
      },
      "to": "0x2910543Af39abA0Cd09dBb2D50200b3E800A63D2",
      "value": {
        "_hex": "0x0"
      },
      "nonce": 0,
      "data": "0x454e45335841545647",
      "r": "0x8a7516db739739464aa3c0894821078016a0f5229c48506fc84dddf7ddb47166",
      "s": "0x0e637ae4a346e44693b6bb91b1b445d61555fe7f96141931668d2627e23ebd59",
      "v": 28,
      "creates": null,
      "raw": "0xf86e80860110c8f7d8de82c350942910543af39aba0cd09dbb2d50200b3e800a63d28089454e453358415456471ca08a7516db739739464aa3c0894821078016a0f5229c48506fc84dddf7ddb47166a00e637ae4a346e44693b6bb91b1b445d61555fe7f96141931668d2627e23ebd59",
      "networkId": 0,
      "chainId": 0
    }
  ]
}