{
  "hash": "0xa06081d55dade5674d26d185d06494cd231c519cf9683de170d68ba35f872f3e",
  "parentHash": "0xe948015feeb6413b11a83d501bf811a7e980bb1dc476ed399804d580dc715631",
  "number": 69941,
  "timestamp": 1439312241,
  "nonce": "0xa58b6db06c09894f",
  "difficulty": 2105473244051,
  "gasLimit": {
    "_hex": "0x2fefd8"
  },
  "gasUsed": {
    "_hex": "0x5208"
  },
  "miner": "0x06D138312754bDEB5c1175f47cE00620c480E9C9",
  "extraData": "0x476574682f76312e302e312f6c696e75782f676f312e342e32",
  "transactions": [
    {
      "hash": "0x2796aafcd47bd225f3174f80199b98d9d609dbc93d846ecf85a7d489b8b0a674",
      "blockHash": "0xa06081d55dade5674d26d185d06494cd231c519cf9683de170d68ba35f872f3e",
      "blockNumber": 69941,
      "transactionIndex": 0,
      "confirmations": null,
      "from": "0x2910543Af39abA0Cd09dBb2D50200b3E800A63D2",
      "gasPrice": {
        "_hex": "0xd9ba76d52"
      },
      "gasLimit": {
        "_hex": "0x5208"
      },
      "to": "0x18c5507F9bBD77EDdAcF8d8eE08D137842dc89b5",
      "value": {
        "_hex": "0xdcef33a6f838000"
      },
      "nonce": 230,
      "data": "0x",
      "r": "0x2250614a1f0902e39c93689047f2d067fbce386d5650cc68128728ec70aca41b",
      "s": "0x47d3700e60d03268f70a108ab0780e6e6fa70a7b554236b4e1a25329b7491c8a",
      "v": 28,
      "creates": null,
      "raw": "0xf86d81e6850d9ba76d528252089418c5507f9bbd77eddacf8d8ee08d137842dc89b5880dcef33a6f838000801ca02250614a1f0902e39c93689047f2d067fbce386d5650cc68128728ec70aca41ba047d3700e60d03268f70a108ab0780e6e6fa70a7b554236b4e1a25329b7491c8a",
      "networkId": 0,
      "chainId": 0
    }
  ]
}