{
  "hash": "0xea932495567b8b4e2c06f78f0846315ecb909eb4db1e2dbc4f919d2b9ea7dc0e",
  "parentHash": "0xa5a7ffcef0fd91a4f07d89b00fa9133724ffd54eef764b1a47f6d56afb5b8e55",
  "number": 109493,
  "timestamp": 1439957481,
  "nonce": "0xd78d8fd5db632cde",
  "difficulty": 4453683934510,
  "gasLimit": {
    "_hex": "0x2fefd8"
  },
  "gasUsed": {
    "_hex": "0xa410"
  },
  "miner": "0xe6A7a1d47ff21B6321162AEA7C6CB457D5476Bca",
  "extraData": "0x476574682f76312e302e312d38326566323666362f6c696e75782f676f312e34",
  "transactions": [
    {
      "hash": "0x7a5d6e94932564de038a1776876f205e6b9ae23fca89256eaa333cd6e707971f",
      "blockHash": "0xea932495567b8b4e2c06f78f0846315ecb909eb4db1e2dbc4f919d2b9ea7dc0e",
      "blockNumber": 109493,
      "transactionIndex": 0,
      "confirmations": null,
      "from": "0x120A270bbC009644e35F0bB6ab13f95b8199c4ad",
      "gasPrice": {
        "_hex": "0xd33601c02"
      },
      "gasLimit": {
        "_hex": "0x3d090"
      },
      "to": "0xD3c6b518F1631509963232bA8e1882D3474a5838",
      "value": {
        "_hex": "0x24ecae4ab1cfe40800"
      },
      "nonce": 859,
      "data": "0x",
      "r": "0x2860b31e0ad0dd584d06584019ea9a930dfccb4878774b4c0457b95cf213da79",
      "s": "0x18de717c76023e702546357ed52258643940d9f939543136462c0729360faaf6",
      "v": 27,
      "creates": null,
      "raw": "0xf87082035b850d33601c028303d09094d3c6b518f1631509963232ba8e1882d3474a58388924ecae4ab1cfe40800801ba02860b31e0ad0dd584d06584019ea9a930dfccb4878774b4c0457b95cf213da79a018de717c76023e702546357ed52258643940d9f939543136462c0729360faaf6",
      "networkId": 0,
      "chainId": 0
    },
    {
      "hash": "0xa1580602ebfcc0d6508e98cd92b4f825ba3fabfb8c83a338386d1a4beb2a2480",
      "blockHash": "0xea932495567b8b4e2c06f78f0846315ecb909eb4db1e2dbc4f919d2b9ea7dc0e",
      "blockNumber": 109493,
      "transactionIndex": 1,
      "confirmations": null,
      "from": "0x120A270bbC009644e35F0bB6ab13f95b8199c4ad",
      "gasPrice": {
        "_hex": "0xd33601c02"
      },
      "gasLimit": {
        "_hex": "0x3d090"
      },
      "to": "0x6a05b60Df8c225f0b2171f59a6fD52CD0BEeD37D",
      "value": {
        "_hex": "0xfc9c43ca484a8400"
      },
      "nonce": 860,
      "data": "0x",
      "r": "0xa84c442564e3c1ace0e750dba3c55ec4e66901951ac5e388bea821e82fea64ec",
      "s": "0x17e9d526d9e9d227c90a508a286753f38c82fb3ea8793131a4c1e8c1bbac0206",
      "v": 28,
      "creates": null,
      "raw": "0xf86f82035c850d33601c028303d090946a05b60df8c225f0b2171f59a6fd52cd0beed37d88fc9c43ca484a8400801ca0a84c442564e3c1ace0e750dba3c55ec4e66901951ac5e388bea821e82fea64eca017e9d526d9e9d227c90a508a286753f38c82fb3ea8793131a4c1e8c1bbac0206",
      "networkId": 0,
      "chainId": 0
    }
  ]
}