{
  "hash": "0x20c90d5d79f364bfaacc733efd1d0fa66c95f64dd38cb9e99c93f842ac73efd8",
  "parentHash": "0x016fcc603c485ce4b2f7483c7bdb4d621112c4242f1674a809a490614c1568da",
  "number": 96119,
  "timestamp": 1439735226,
  "nonce": "0xa54fc4660749b868",
  "difficulty": 3647908604964,
  "gasLimit": {
    "_hex": "0x2fefd8"
  },
  "gasUsed": {
    "_hex": "0x5208"
  },
  "miner": "0xaEAf103356C2Ee943F748E8655659D29881323E1",
  "extraData": "0x476574682f76312e302e312f77696e646f77732f676f312e342e32",
  "transactions": [
    {
      "hash": "0x2a09dc3c2ed7f8de963ef19e0cd2017a95b4cffd7e0d142e6c5f043f7b056b22",
      "blockHash": "0x20c90d5d79f364bfaacc733efd1d0fa66c95f64dd38cb9e99c93f842ac73efd8",
      "blockNumber": 96119,
      "transactionIndex": 0,
      "confirmations": null,
      "from": "0x007f7f58D3eb5b7510A301eCC749FC1fCDDBE14D",
      "gasPrice": {
        "_hex": "0xcc8ddf695"
      },
      "gasLimit": {
        "_hex": "0x15f90"
      },
      "to": "0xb1abce2918E21ddb93AA452731a12672A3d9F75a",
      "value": {
        "_hex": "0x4563918244f40000"
      },
      "nonce": 70,
      "data": "0x",
      "r": "0xf16c84be01ea954657b27ac92eca927e625755701dc14fa74537bf7f2ada5b23",
      "s": "0x2d92096d26fac555268ff4dba923f4bf4a57cf04b010e36536d6d80ded0db821",
      "v": 28,
      "creates": null,
      "raw": "0xf86d46850cc8ddf69583015f9094b1abce2918e21ddb93aa452731a12672a3d9f75a884563918244f40000801ca0f16c84be01ea954657b27ac92eca927e625755701dc14fa74537bf7f2ada5b23a02d92096d26fac555268ff4dba923f4bf4a57cf04b010e36536d6d80ded0db821",
      "networkId": 0,
      "chainId": 0
    }
  ]
}