{
  "hash": "0x2f2ba772d5e79abb98df8df557b06cc079eb3d0ed44aeaf3aa7d8af9a4f91a9c",
  "parentHash": "0x199376ba3c85196b77a648c30e5624313d990faa36522d43ddbab9c17b05ee3f",
  "number": 104367,
  "timestamp": 1439868649,
  "nonce": "0xa9c575ebb3dc332a",
  "difficulty": 4306661374373,
  "gasLimit": {
    "_hex": "0x2fefd8"
  },
  "gasUsed": {
    "_hex": "0x5208"
  },
  "miner": "0xe6A7a1d47ff21B6321162AEA7C6CB457D5476Bca",
  "extraData": "0x476574682f76312e302e312d38326566323666362f6c696e75782f676f312e34",
  "transactions": [
    {
      "hash": "0x409f6e3e1be50e1350fd66e35ec2961e7734cf4a24789411dc9a36aa73dcbd97",
      "blockHash": "0x2f2ba772d5e79abb98df8df557b06cc079eb3d0ed44aeaf3aa7d8af9a4f91a9c",
      "blockNumber": 104367,
      "transactionIndex": 0,
      "confirmations": null,
      "from": "0x2910543Af39abA0Cd09dBb2D50200b3E800A63D2",
      "gasPrice": {
        "_hex": "0xd24e56faf"
      },
      "gasLimit": {
        "_hex": "0x5208"
      },
      "to": "0x80459F7950368e582175a9AC45E2d9a1B76932EF",
      "value": {
        "_hex": "0x3635b7ea4ca6bf8000"
      },
      "nonce": 1014,
      "data": "0x",
      "r": "0xa54218de8da06d7c07aa948506fdfbd62c7289f2522d292b98d0938f95feac23",
      "s": "0x6f0a3e7176bb553d6b741914107879e610b52f06d0d8cdd80b18453374ad06ca",
      "v": 28,
      "creates": null,
      "raw": "0xf86f8203f6850d24e56faf8252089480459f7950368e582175a9ac45e2d9a1b76932ef893635b7ea4ca6bf8000801ca0a54218de8da06d7c07aa948506fdfbd62c7289f2522d292b98d0938f95feac23a06f0a3e7176bb553d6b741914107879e610b52f06d0d8cdd80b18453374ad06ca",
      "networkId": 0,
      "chainId": 0
    }
  ]
}