{
  "hash": "0x9ca20ddcebcbc601da632d0985b49817fad4d6f84232ab70e07c077cd50d65c7",
  "parentHash": "0x44a27a09a7c97b5f568050b5c53b802d068d937d244a72b35c3353ed1f6d3161",
  "number": 76395,
  "timestamp": 1439419796,
  "nonce": "0xdba2e252136cd897",
  "difficulty": 2226456957120,
  "gasLimit": {
    "_hex": "0x2fefd8"
  },
  "gasUsed": {
    "_hex": "0x15a38"
  },
  "miner": "0xe6A7a1d47ff21B6321162AEA7C6CB457D5476Bca",
  "extraData": "0x476574682f76312e302e312d38326566323666362f6c696e75782f676f312e34",
  "transactions": [
    {
      "hash": "0x25a9add35cfb447afc8f0922cf385fb8ddbb49c733d516cb752d64aed0de6819",
      "blockHash": "0x9ca20ddcebcbc601da632d0985b49817fad4d6f84232ab70e07c077cd50d65c7",
      "blockNumber": 76395,
      "transactionIndex": 0,
      "confirmations": null,
      "from": "0xa748fac76B1d857E2f77484a0F816463e8b56EDc",
      "gasPrice": {
        "_hex": "0x10787b9aca8"
      },
      "gasLimit": {
        "_hex": "0x7a120"
      },
      "to": "0xc2ac6849Aec3938FB8c9B36F1c07be76f766637E",
      "value": {
        "_hex": "0x53444835ec580000"
      },
      "nonce": 8,
      "data": "0x",
      "r": "0xdf6d87557e2b18c7b42b9840b8747d99cb3accbfde765902fcc6a84c6a7cca53",
      "s": "0x513b1589db49368a4a70167a6d534108d8e8368739fd1af4c0bca6221cb86e87",
      "v": 27,
      "creates": null,
      "raw": "0xf86e0886010787b9aca88307a12094c2ac6849aec3938fb8c9b36f1c07be76f766637e8853444835ec580000801ba0df6d87557e2b18c7b42b9840b8747d99cb3accbfde765902fcc6a84c6a7cca53a0513b1589db49368a4a70167a6d534108d8e8368739fd1af4c0bca6221cb86e87",
      "networkId": 0,
      "chainId": 0
    }
  ]
}