{
  "hash": "0x918a73d9d82cc2258c63f35db9f71a3feb3d2ce387c3a5e0f7c7b4135663c5c4",
  "parentHash": "0xe0fef5674ee233e6da764f8afd4d248ad19e5c058fc2a04a9d405a922d09c632",
  "number": 65740,
  "timestamp": 1439242146,
  "nonce": "0x692d98b1bf5b6049",
  "difficulty": 1943469244822,
  "gasLimit": {
    "_hex": "0x2fefd8"
  },
  "gasUsed": {
    "_hex": "0x5208"
  },
  "miner": "0xf927a40C8B7F6E07c5af7FA2155B4864a4112B13",
  "extraData": "0x",
  "transactions": [
    {
      "hash": "0x25715db0325769e4b8c056d19f9c59df2aa2498cb306e218409c5a68c6ff1120",
      "blockHash": "0x918a73d9d82cc2258c63f35db9f71a3feb3d2ce387c3a5e0f7c7b4135663c5c4",
      "blockNumber": 65740,
      "transactionIndex": 0,
      "confirmations": null,
      "from": "0xEA3779D14A13F6C78566bCDE403591413a6239db",
      "gasPrice": {
        "_hex": "0xdeb4af1e7"
      },
      "gasLimit": {
        "_hex": "0x15f90"
      },
      "to": "0xC624b0Cd3307f6CFFC473f5019FA380E6811ee58",
      "value": {
        "_hex": "0xa7b667f19c28bf00000"
      },
      "nonce": 5,
      "data": "0x",
      "r": "0xc3fb993b4cc674a8db0735ab098c835ddaf1fe79abfe2b8bb217b1f5cf303cd7",
      "s": "0x29bcffa2afe1d2aefeb40e06aa9c35c6dfc12efd4fa169435d4178a31d67bc06",
      "v": 27,
      "creates": null,
      "raw": "0xf86f05850deb4af1e783015f9094c624b0cd3307f6cffc473f5019fa380e6811ee588a0a7b667f19c28bf00000801ba0c3fb993b4cc674a8db0735ab098c835ddaf1fe79abfe2b8bb217b1f5cf303cd7a029bcffa2afe1d2aefeb40e06aa9c35c6dfc12efd4fa169435d4178a31d67bc06",
      "networkId": 0,
      "chainId": 0
    }
  ]
}