{
  "hash": "0x7cc72f199e899e1410e4ae29c93187b768f1ddbd619466838ddc2c1ade0ffe53",
  "parentHash": "0x81cff34c93aa920935355266aeafcaf914a7051ad7725f7e6e73faba3934a6e6",
  "number": 79521,
  "timestamp": 1439471027,
  "nonce": "0xee3d478bac8c5e56",
  "difficulty": 2341566428329,
  "gasLimit": {
    "_hex": "0x2fefd8"
  },
  "gasUsed": {
    "_hex": "0xf618"
  },
  "miner": "0xC79E0c02B728239f002efa8bFd81089407b06dD6",
  "extraData": "0x476574682f76312e302e312f6c696e75782f676f312e342e32",
  "transactions": [
    {
      "hash": "0x596540d168bd571f43c909a60158563105d1fc2972a8e7fb44ada283ad6a37f3",
      "blockHash": "0x7cc72f199e899e1410e4ae29c93187b768f1ddbd619466838ddc2c1ade0ffe53",
      "blockNumber": 79521,
      "transactionIndex": 0,
      "confirmations": null,
      "from": "0x32Be343B94f860124dC4fEe278FDCBD38C102D88",
      "gasPrice": {
        "_hex": "0xdc154a666"
      },
      "gasLimit": {
        "_hex": "0x5208"
      },
      "to": "0xd17093D77f41dDfBF2438648C87a6F067922912E",
      "value": {
        "_hex": "0x1b9de674df070000"
      },
      "nonce": 434,
      "data": "0x",
      "r": "0xc5cb6953e885b0c18586062dd4949b99c338191014a8ec22ee02aa419c3a9182",
      "s": "0x0711afd930dbc6cd071d4cdc590961dbdf8416cb7a3fbaf5031276437ecff040",
      "v": 28,
      "creates": null,
      "raw": "0xf86e8201b2850dc154a66682520894d17093d77f41ddfbf2438648c87a6f067922912e881b9de674df070000801ca0c5cb6953e885b0c18586062dd4949b99c338191014a8ec22ee02aa419c3a9182a00711afd930dbc6cd071d4cdc590961dbdf8416cb7a3fbaf5031276437ecff040",
      "networkId": 0,
      "chainId": 0
    },
    {
      "hash": "0xff903d5172f4eae3feec3dd3caa743ed4679e640da92a0e2b21e4a407a83b8ca",
      "blockHash": "0x7cc72f199e899e1410e4ae29c93187b768f1ddbd619466838ddc2c1ade0ffe53",
      "blockNumber": 79521,
      "transactionIndex": 1,
      "confirmations": null,
      "from": "0x32Be343B94f860124dC4fEe278FDCBD38C102D88",
      "gasPrice": {
        "_hex": "0xdc154a666"
      },
      "gasLimit": {
        "_hex": "0x5208"
      },
      "to": "0x8D85e4D4dEbAD1De01E688b1bf0916A5E7E3E1aD",
      "value": {
        "_hex": "0xdb614c3ee160000"
      },
      "nonce": 435,
      "data": "0x",
      "r": "0x1319da5be0502eb72e9fb5c25f5a959783ab8eb38400d14f6203cb04e4199e25",
      "s": "0x023ed4cacec122be78728a2188a7e89fa8cc3efd9c1c2e51da5d48a0fb66e4c5",
      "v": 28,
      "creates": null,
      "raw": "0xf86e8201b3850dc154a666825208948d85e4d4debad1de01e688b1bf0916a5e7e3e1ad880db614c3ee160000801ca01319da5be0502eb72e9fb5c25f5a959783ab8eb38400d14f6203cb04e4199e25a0023ed4cacec122be78728a2188a7e89fa8cc3efd9c1c2e51da5d48a0fb66e4c5",
      "networkId": 0,
      "chainId": 0
    },
    {
      "hash": "0x2aaef67bb8459eaa77b0003630b48da80fd4f0d92034419f8976a36fa1a23d95",
      "blockHash": "0x7cc72f199e899e1410e4ae29c93187b768f1ddbd619466838ddc2c1ade0ffe53",
      "blockNumber": 79521,
      "transactionIndex": 2,
      "confirmations": null,
      "from": "0x2910543Af39abA0Cd09dBb2D50200b3E800A63D2",
      "gasPrice": {
        "_hex": "0xcbbcbc4c3"
      },
      "gasLimit": {
        "_hex": "0x5208"
      },
      "to": "0x5520a56e563e93652B6867Cf334eE14fCa33480f",
      "value": {
        "_hex": "0xad77cf8e18e3f8000"
      },
      "nonce": 360,
      "data": "0x",
      "r": "0x41127593c3fffd3e13d35b6e2e8f4c1bf7e5cdf8626c0fbadff79ec1a5df7bbb",
      "s": "0x37ad826d3692310e607c2472ba298459f33b7e8c05f986d655183fa16361b40a",
      "v": 28,
      "creates": null,
      "raw": "0xf86f820168850cbbcbc4c3825208945520a56e563e93652b6867cf334ee14fca33480f890ad77cf8e18e3f8000801ca041127593c3fffd3e13d35b6e2e8f4c1bf7e5cdf8626c0fbadff79ec1a5df7bbba037ad826d3692310e607c2472ba298459f33b7e8c05f986d655183fa16361b40a",
      "networkId": 0,
      "chainId": 0
    }
  ]
}