{
  "hash": "0x49e6922598cc6fa7ee4bba12d220e292a9a67957ed74f2b2edec3ba284b62048",
  "parentHash": "0x296189eceaadd96cce1b40735fe8a27a9f7cffb4a8fa4c80c30d6d4908e36ffa",
  "number": 120836,
  "timestamp": 1440166632,
  "nonce": "0x66ef4aca93f3b469",
  "difficulty": 4449838014639,
  "gasLimit": {
    "_hex": "0x2fefd8"
  },
  "gasUsed": {
    "_hex": "0xa410"
  },
  "miner": "0xe6A7a1d47ff21B6321162AEA7C6CB457D5476Bca",
  "extraData": "0xd783010002844765746887676f312e342e32856c696e7578",
  "transactions": [
    {
      "hash": "0x9bdf60e631f15e6fd789e968b8b6d42dc9e3774e2c69664fcd9b5a512656896a",
      "blockHash": "0x49e6922598cc6fa7ee4bba12d220e292a9a67957ed74f2b2edec3ba284b62048",
      "blockNumber": 120836,
      "transactionIndex": 0,
      "confirmations": null,
      "from": "0x30beD8049947963394D93412326225E4e3123601",
      "gasPrice": {
        "_hex": "0xba43b7400"
      },
      "gasLimit": {
        "_hex": "0x5208"
      },
      "to": "0x32Be343B94f860124dC4fEe278FDCBD38C102D88",
      "value": {
        "_hex": "0xc9369e34ce266000"
      },
      "nonce": 20,
      "data": "0x",
      "r": "0xeeaf2cdc7fd57ccb9e71b69d57f1065973e0f95c77e286a89525f9a1dfb4c582",
      "s": "0x45d199f09d254d5a629da7a0412a6ae0ee98271da9fb38774613e74b9952c777",
      "v": 28,
      "creates": null,
      "raw": "0xf86c14850ba43b74008252089432be343b94f860124dc4fee278fdcbd38c102d8888c9369e34ce266000801ca0eeaf2cdc7fd57ccb9e71b69d57f1065973e0f95c77e286a89525f9a1dfb4c582a045d199f09d254d5a629da7a0412a6ae0ee98271da9fb38774613e74b9952c777",
      "networkId": 0,
      "chainId": 0
    },
    {
      "hash": "0x700b449882d0b4be2a155302d5a64fa64585318530fc64988f26f57ed114665d",
      "blockHash": "0x49e6922598cc6fa7ee4bba12d220e292a9a67957ed74f2b2edec3ba284b62048",
      "blockNumber": 120836,
      "transactionIndex": 1,
      "confirmations": null,
      "from": "0x608f4b86321a68453f9adf6F06F7Fc3E621739ad",
      "gasPrice": {
        "_hex": "0xba43b7400"
      },
      "gasLimit": {
        "_hex": "0x5208"
      },
      "to": "0x32Be343B94f860124dC4fEe278FDCBD38C102D88",
      "value": {
        "_hex": "0x455fd68a17f06000"
      },
      "nonce": 81,
      "data": "0x",
      "r": "0x2824b6b6ff4d3669013e2fdaaeef10f87807af33737dd399f0816c6ce364e642",
      "s": "0x6c987eef53d05db9605e3aa3dd832613378a076f7647aae4832c6a2a38ad7097",
      "v": 28,
      "creates": null,
      "raw": "0xf86c51850ba43b74008252089432be343b94f860124dc4fee278fdcbd38c102d8888455fd68a17f06000801ca02824b6b6ff4d3669013e2fdaaeef10f87807af33737dd399f0816c6ce364e642a06c987eef53d05db9605e3aa3dd832613378a076f7647aae4832c6a2a38ad7097",
      "networkId": 0,
      "chainId": 0
    }
  ]
}