{
  "hash": "0x01fa4d951905e036d72b053dd983356c9fd47875b5fc597bc1970f65c9e51031",
  "parentHash": "0xc852fa0fa90fccc2c3c057c83911965b5ad8a011d74e0278eaa422484035f4c9",
  "number": 105465,
  "timestamp": 1439888042,
  "nonce": "0xd63243e5e8d3af4d",
  "difficulty": 4399612486127,
  "gasLimit": {
    "_hex": "0x2fefd8"
  },
  "gasUsed": {
    "_hex": "0x1ec30"
  },
  "miner": "0x602E2B65e38bD1B0AB230B35878dF011d74f2c59",
  "extraData": "0xd983010001844765746887676f312e342e328777696e646f7773",
  "transactions": [
    {
      "hash": "0xe49c9e042d6c568be8018b35ec7c5ddb255d111aac29181c2018bb9d4433768d",
      "blockHash": "0x01fa4d951905e036d72b053dd983356c9fd47875b5fc597bc1970f65c9e51031",
      "blockNumber": 105465,
      "transactionIndex": 0,
      "confirmations": null,
      "from": "0x120A270bbC009644e35F0bB6ab13f95b8199c4ad",
      "gasPrice": {
        "_hex": "0xddcf35bf5"
      },
      "gasLimit": {
        "_hex": "0x3d090"
      },
      "to": "0x572251a1FF0c56745E461cf7a293F893fFADB303",
      "value": {
        "_hex": "0x397f563c7d0a5000"
      },
      "nonce": 769,
      "data": "0x",
      "r": "0xa0d2e25bb93c3d3208c2e48b2d4ebb5f49bab6f0c683e6765808a9c01428884c",
      "s": "0x0f7bdf32aec19dd2db365b8cfba2cf2835f2bf5a3b2fcef846f55983328050ed",
      "v": 27,
      "creates": null,
      "raw": "0xf86f820301850ddcf35bf58303d09094572251a1ff0c56745e461cf7a293f893ffadb30388397f563c7d0a5000801ba0a0d2e25bb93c3d3208c2e48b2d4ebb5f49bab6f0c683e6765808a9c01428884ca00f7bdf32aec19dd2db365b8cfba2cf2835f2bf5a3b2fcef846f55983328050ed",
      "networkId": 0,
      "chainId": 0
    },
    {
      "hash": "0x071078c17dc4c6595afcbc311b3aaeea8e720aa18a09b079aabe010a863177ca",
      "blockHash": "0x01fa4d951905e036d72b053dd983356c9fd47875b5fc597bc1970f65c9e51031",
      "blockNumber": 105465,
      "transactionIndex": 1,
      "confirmations": null,
      "from": "0x120A270bbC009644e35F0bB6ab13f95b8199c4ad",
      "gasPrice": {
        "_hex": "0xddcf35bf5"
      },
      "gasLimit": {
        "_hex": "0x3d090"
      },
      "to": "0xd729FB3C410640105645fea812F5d50F1b808f4C",
      "value": {
        "_hex": "0x3ba1910bf341b00000"
      },
      "nonce": 770,
      "data": "0x",
      "r": "0x0cd6fbc9cae936661c7cd0e91447c15d9f8ee4f9f3027c58aaf77d58f9727761",
      "s": "0x0c7322641fe7eb9e9179eb8ab50150c0a96ac122e640a302dacd5f91635406d3",
      "v": 28,
      "creates": null,
      "raw": "0xf870820302850ddcf35bf58303d09094d729fb3c410640105645fea812f5d50f1b808f4c893ba1910bf341b00000801ca00cd6fbc9cae936661c7cd0e91447c15d9f8ee4f9f3027c58aaf77d58f9727761a00c7322641fe7eb9e9179eb8ab50150c0a96ac122e640a302dacd5f91635406d3",
      "networkId": 0,
      "chainId": 0
    },
    {
      "hash": "0xa209a627cfbf123490f467083b01825e630729b3cf59d43d38b07ec12ac8f07e",
      "blockHash": "0x01fa4d951905e036d72b053dd983356c9fd47875b5fc597bc1970f65c9e51031",
      "blockNumber": 105465,
      "transactionIndex": 2,
      "confirmations": null,
      "from": "0x92857A8BC0A6F66180324f49541C695A3a0Ff944",
      "gasPrice": {
        "_hex": "0xd89d09bee"
      },
      "gasLimit": {
        "_hex": "0x5208"
      },
      "to": "0x32Be343B94f860124dC4fEe278FDCBD38C102D88",
      "value": {
        "_hex": "0x1bc127fe414db9000"
      },
      "nonce": 6,
      "data": "0x",
      "r": "0x492a59a02604d8215a5335663242749a072a4e5b29ec0b37773eb43df030da0a",
      "s": "0x47671447c9453843d271d6c15433dcbda916aacf2ca33665c22d0452c361c4a5",
      "v": 27,
      "creates": null,
      "raw": "0xf86d06850d89d09bee8252089432be343b94f860124dc4fee278fdcbd38c102d888901bc127fe414db9000801ba0492a59a02604d8215a5335663242749a072a4e5b29ec0b37773eb43df030da0aa047671447c9453843d271d6c15433dcbda916aacf2ca33665c22d0452c361c4a5",
      "networkId": 0,
      "chainId": 0
    },
    {
      "hash": "0xe8936ddd4888d55afe2998a81d3790dca55128ef43670d6fa9f214779b3c529c",
      "blockHash": "0x01fa4d951905e036d72b053dd983356c9fd47875b5fc597bc1970f65c9e51031",
      "blockNumber": 105465,
      "transactionIndex": 3,
      "confirmations": null,
      "from": "0xFD7c9117BbEB649d9b37B3D3C9917f7c12f526B3",
      "gasPrice": {
        "_hex": "0xd89d09bee"
      },
      "gasLimit": {
        "_hex": "0x5208"
      },
      "to": "0x32Be343B94f860124dC4fEe278FDCBD38C102D88",
      "value": {
        "_hex": "0x1cd123270af56d0000"
      },
      "nonce": 30,
      "data": "0x",
      "r": "0x86c5f233a06809b0ae5256f0f8173896c92ffa476f9ede43d54f7fceb98581eb",
      "s": "0x6e481f1d0c12bf63d924d1a3144caebefb777e8ac4171e48a81da8af418687eb",
      "v": 27,
      "creates": null,
      "raw": "0xf86d1e850d89d09bee8252089432be343b94f860124dc4fee278fdcbd38c102d88891cd123270af56d0000801ba086c5f233a06809b0ae5256f0f8173896c92ffa476f9ede43d54f7fceb98581eba06e481f1d0c12bf63d924d1a3144caebefb777e8ac4171e48a81da8af418687eb",
      "networkId": 0,
      "chainId": 0
    },
    {
      "hash": "0x6239de47cf8d4d423cb9ac4ca98f0180f0416a24e5da4f223cb1502c35ca3776",
      "blockHash": "0x01fa4d951905e036d72b053dd983356c9fd47875b5fc597bc1970f65c9e51031",
      "blockNumber": 105465,
      "transactionIndex": 4,
      "confirmations": null,
      "from": "0x06EC48800B2DB3eEfa052e98A9b5Fc2Bf783Ee74",
      "gasPrice": {
        "_hex": "0xd89d09bee"
      },
      "gasLimit": {
        "_hex": "0x5208"
      },
      "to": "0x32Be343B94f860124dC4fEe278FDCBD38C102D88",
      "value": {
        "_hex": "0x455f3af16d4f9000"
      },
      "nonce": 22,
      "data": "0x",
      "r": "0xcafaec3d3297e58a596de6cf70392eedf8f9ca4313183bc46a5d1fab994affc1",
      "s": "0x3c656ec83bc6ef647e508a34904e3387279fcbc7de783e19ea8c600f415e27de",
      "v": 28,
      "creates": null,
      "raw": "0xf86c16850d89d09bee8252089432be343b94f860124dc4fee278fdcbd38c102d8888455f3af16d4f9000801ca0cafaec3d3297e58a596de6cf70392eedf8f9ca4313183bc46a5d1fab994affc1a03c656ec83bc6ef647e508a34904e3387279fcbc7de783e19ea8c600f415e27de",
      "networkId": 0,
      "chainId": 0
    },
    {
      "hash": "0x9dbab3bcfafda13e089aefa0c246380106cbf219673513d2aa7a28d2fc42c0de",
      "blockHash": "0x01fa4d951905e036d72b053dd983356c9fd47875b5fc597bc1970f65c9e51031",
      "blockNumber": 105465,
      "transactionIndex": 5,
      "confirmations": null,
      "from": "0x790b8a3cE86E707ED0eD32bF89B3269692a23CC1",
      "gasPrice": {
        "_hex": "0xd1b4eda30"
      },
      "gasLimit": {
        "_hex": "0x15f90"
      },
      "to": "0x4D67f4F0Db45b3B5a3424B39ed8d972F710381D5",
      "value": {
        "_hex": "0x33166d5ef36820000"
      },
      "nonce": 34,
      "data": "0x",
      "r": "0x6cc5a510572fddec89cc1f12f47617d2131c68f3b376343d779a94c0bfff787e",
      "s": "0x4f11c1f45ef77756139cf2f92f8ff367035529dd0d214ebbd6488fd3ab54b7f5",
      "v": 27,
      "creates": null,
      "raw": "0xf86e22850d1b4eda3083015f90944d67f4f0db45b3b5a3424b39ed8d972f710381d589033166d5ef36820000801ba06cc5a510572fddec89cc1f12f47617d2131c68f3b376343d779a94c0bfff787ea04f11c1f45ef77756139cf2f92f8ff367035529dd0d214ebbd6488fd3ab54b7f5",
      "networkId": 0,
      "chainId": 0
    }
  ]
}