{
  "hash": "0x2a989f17c24a59d6c6246c8e6446229698104ce712ca18eb09b63e7c06f37895",
  "parentHash": "0xbc75c7e05a3c9a45ce0803566ad3923a7d6587f4c89ae4803f783a7b9a19b68c",
  "number": 89857,
  "timestamp": 1439630210,
  "nonce": "0xbd35e162692b7213",
  "difficulty": 3343472291299,
  "gasLimit": {
    "_hex": "0x2fefd8"
  },
  "gasUsed": {
    "_hex": "0x5208"
  },
  "miner": "0x785ffdDd5cE55c6DF963f345e68d3F2024E5Acb1",
  "extraData": "0x",
  "transactions": [
    {
      "hash": "0xca361577e5ee68dc4a7073efc48107d1456d5d13cd094ac5367245aef750de46",
      "blockHash": "0x2a989f17c24a59d6c6246c8e6446229698104ce712ca18eb09b63e7c06f37895",
      "blockNumber": 89857,
      "transactionIndex": 0,
      "confirmations": null,
      "from": "0xF18446BCC37B179f7ccc3De19387269cE04023F1",
      "gasPrice": {
        "_hex": "0xd62a2036e"
      },
      "gasLimit": {
        "_hex": "0x5208"
      },
      "to": "0x32Be343B94f860124dC4fEe278FDCBD38C102D88",
      "value": {
        "_hex": "0x48bd9bb6a0028c00"
      },
      "nonce": 3,
      "data": "0x",
      "r": "0xebdaca819d780a44d2cf6c98d504852f0cd358ed92bab72414c41e39690f37bc",
      "s": "0x2dcb9c2b3f84f56fc08476ac53045079344248da2d82e25a304f1ed7f83a7d45",
      "v": 27,
      "creates": null,
      "raw": "0xf86c03850d62a2036e8252089432be343b94f860124dc4fee278fdcbd38c102d888848bd9bb6a0028c00801ba0ebdaca819d780a44d2cf6c98d504852f0cd358ed92bab72414c41e39690f37bca02dcb9c2b3f84f56fc08476ac53045079344248da2d82e25a304f1ed7f83a7d45",
      "networkId": 0,
      "chainId": 0
    }
  ]
}