{
  "hash": "0x3ab6ddaffacdff0487a83debf83c0ebb5ed418898d0fb2114c99ed319a79f4f6",
  "parentHash": "0x8d110bcf9f4018a1d629293f73c8afe27abcc6c7a10fc6cda4cf8b521765f486",
  "number": 81729,
  "timestamp": 1439506770,
  "nonce": "0x1e59218cd4842026",
  "difficulty": 2424712978165,
  "gasLimit": {
    "_hex": "0x2fefd8"
  },
  "gasUsed": {
    "_hex": "0x5208"
  },
  "miner": "0x157c6f2431eB1a95797EE86F7d17b3c0FD47A247",
  "extraData": "0x476574682f76312e302e312f77696e646f77732f676f312e342e32",
  "transactions": [
    {
      "hash": "0x28eae0904233f00ec7cc71f84fbbaf4f0e90390b43168f8dc5d30ce92ff76eb7",
      "blockHash": "0x3ab6ddaffacdff0487a83debf83c0ebb5ed418898d0fb2114c99ed319a79f4f6",
      "blockNumber": 81729,
      "transactionIndex": 0,
      "confirmations": null,
      "from": "0x32Be343B94f860124dC4fEe278FDCBD38C102D88",
      "gasPrice": {
        "_hex": "0xde125eeae"
      },
      "gasLimit": {
        "_hex": "0x5208"
      },
      "to": "0x4c1E3793EC978772BC3f5dd236933Bf9Ed342D4e",
      "value": {
        "_hex": "0x56bc75e2d63100000"
      },
      "nonce": 613,
      "data": "0x",
      "r": "0x042363a5f01f2393521ada6f88b9e24fcb197ba517342b0680482ed815e23ee2",
      "s": "0x0182b5fa339fc0d099cc34107357934a9a1a211d07cd87f0a27f168bae669754",
      "v": 28,
      "creates": null,
      "raw": "0xf86f820265850de125eeae825208944c1e3793ec978772bc3f5dd236933bf9ed342d4e89056bc75e2d63100000801ca0042363a5f01f2393521ada6f88b9e24fcb197ba517342b0680482ed815e23ee2a00182b5fa339fc0d099cc34107357934a9a1a211d07cd87f0a27f168bae669754",
      "networkId": 0,
      "chainId": 0
    }
  ]
}