{
  "hash": "0x3af8931eccf045ce5108e14e8cc459c96392a156e332718f781660c47cc4930a",
  "parentHash": "0x4fb79b9fce5f66cd1546bcec4aa34a3fd28dc71b98c58665c4a3dce0ca86bb11",
  "number": 48687,
  "timestamp": 1438961087,
  "nonce": "0x20021562a7b1e392",
  "difficulty": 1473586031120,
  "gasLimit": {
    "_hex": "0x1c053"
  },
  "gasUsed": {
    "_hex": "0x546c"
  },
  "miner": "0xa50ec0D39fa913E62f1Bae7074E6F36caA71855b",
  "extraData": "0x476574682f76312e302e302f6c696e75782f676f312e342e32",
  "transactions": [
    {
      "hash": "0x08ba8b9e269e9bb653252f45a795bf614fe7fad4e59a1b28570394e326f41f9f",
      "blockHash": "0x3af8931eccf045ce5108e14e8cc459c96392a156e332718f781660c47cc4930a",
      "blockNumber": 48687,
      "transactionIndex": 0,
      "confirmations": null,
      "from": "0x0e320219838E859b2F9f18B72e3d4073cA50B37D",
      "gasPrice": {
        "_hex": "0xe33461ac0"
      },
      "gasLimit": {
        "_hex": "0x15f90"
      },
      "to": "0x2910543Af39abA0Cd09dBb2D50200b3E800A63D2",
      "value": {
        "_hex": "0x3627e8f712373c0000"
      },
      "nonce": 1,
      "data": "0x454e4e58314e365730",
      "r": "0xed30f98ee950cfc8d7a92f6c9ff7206eca43b93e1e95ac8fe5333a55c9d26758",
      "s": "0x1e1058dbee2836d7c73949624ee7ac88bab195ec509572c4891bf97d95846738",
      "v": 27,
      "creates": null,
      "raw": "0xf87701850e33461ac083015f90942910543af39aba0cd09dbb2d50200b3e800a63d2893627e8f712373c000089454e4e58314e3657301ba0ed30f98ee950cfc8d7a92f6c9ff7206eca43b93e1e95ac8fe5333a55c9d26758a01e1058dbee2836d7c73949624ee7ac88bab195ec509572c4891bf97d95846738",
      "networkId": 0,
      "chainId": 0
    }
  ]
}