{
  "hash": "0x18b8501181cc2d9195bd691035243a6b64d6ce13be11a2ce870207a8d40ad5ae",
  "parentHash": "0x9fa201c1ce060fd85223abfbfeb35fc19d7505acaa8cfb7773f09fc2304fe245",
  "number": 89956,
  "timestamp": 1439631683,
  "nonce": "0x417f1c71ecc80955",
  "difficulty": 3351605483588,
  "gasLimit": {
    "_hex": "0x2fefd8"
  },
  "gasUsed": {
    "_hex": "0x5208"
  },
  "miner": "0xEF247E639d49461D25F57e9362CadE3120910Ce0",
  "extraData": "0x476574682f76312e302e312f6c696e75782f676f312e342e32",
  "transactions": [
    {
      "hash": "0xba724851077dbe7f72f2d5a573e22ff50d1016fd9f7ce4940ee06f72f33b5fdd",
      "blockHash": "0x18b8501181cc2d9195bd691035243a6b64d6ce13be11a2ce870207a8d40ad5ae",
      "blockNumber": 89956,
      "transactionIndex": 0,
      "confirmations": null,
      "from": "0x48659D8f8C9A2FD44F68daA55d23A608FBE500DC",
      "gasPrice": {
        "_hex": "0xcb75eaa72"
      },
      "gasLimit": {
        "_hex": "0x15f90"
      },
      "to": "0xBB33a4b72d92FA335a3b591Ce7eE217f7a7338C1",
      "value": {
        "_hex": "0x181cd70b593dc0000"
      },
      "nonce": 6,
      "data": "0x",
      "r": "0x2eca83b88478aa1ad3ad4b6c1c9d6c690b0c5ab41577d0443ad9d52fd2affdf9",
      "s": "0x3632b8cabe6115a970838c78b1cf0892e37252bc3100b08c8d5d077ae6f83751",
      "v": 27,
      "creates": null,
      "raw": "0xf86e06850cb75eaa7283015f9094bb33a4b72d92fa335a3b591ce7ee217f7a7338c1890181cd70b593dc0000801ba02eca83b88478aa1ad3ad4b6c1c9d6c690b0c5ab41577d0443ad9d52fd2affdf9a03632b8cabe6115a970838c78b1cf0892e37252bc3100b08c8d5d077ae6f83751",
      "networkId": 0,
      "chainId": 0
    }
  ]
}