{
  "hash": "0x54bcd537b3ec1991df755f609a1fb10fcf5728cfba0670f3ecdd47dc4ff57bcf",
  "parentHash": "0x64911fbfc4b789fc5790ea9a076db24bc07879918d4431d4566dca06eee04de7",
  "number": 119193,
  "timestamp": 1440138290,
  "nonce": "0x972688a988ee409b",
  "difficulty": 4435523229642,
  "gasLimit": {
    "_hex": "0x2fefd8"
  },
  "gasUsed": {
    "_hex": "0x5208"
  },
  "miner": "0x790b8a3cE86E707ED0eD32bF89B3269692a23CC1",
  "extraData": "0xd783010002844765746887676f312e342e32856c696e7578",
  "transactions": [
    {
      "hash": "0x95a0dd0b4564b399f6c28647eec20c1ce2c801e4bf2700290ef583d679a13c7f",
      "blockHash": "0x54bcd537b3ec1991df755f609a1fb10fcf5728cfba0670f3ecdd47dc4ff57bcf",
      "blockNumber": 119193,
      "transactionIndex": 0,
      "confirmations": null,
      "from": "0xa70a9a7040d542C632D8e0bE7c5513A8a5Bbc752",
      "gasPrice": {
        "_hex": "0xcf24c4f34"
      },
      "gasLimit": {
        "_hex": "0x5208"
      },
      "to": "0x32Be343B94f860124dC4fEe278FDCBD38C102D88",
      "value": {
        "_hex": "0x455f6b7ded3fb800"
      },
      "nonce": 319,
      "data": "0x",
      "r": "0xd14e240428d5be367e9e9d04df8683406c381c278115e4cbec2a52e311499188",
      "s": "0x67fdbd84ef2a1ace8a43e974152c71aee4f9edd6f22a4f5a7cacf1ce678addf5",
      "v": 27,
      "creates": null,
      "raw": "0xf86e82013f850cf24c4f348252089432be343b94f860124dc4fee278fdcbd38c102d8888455f6b7ded3fb800801ba0d14e240428d5be367e9e9d04df8683406c381c278115e4cbec2a52e311499188a067fdbd84ef2a1ace8a43e974152c71aee4f9edd6f22a4f5a7cacf1ce678addf5",
      "networkId": 0,
      "chainId": 0
    }
  ]
}