{
  "hash": "0x4f81ca3834e1677cc71171d3f474e741969fdce2a8685c5c179a1d20eedcdc85",
  "parentHash": "0xd37a2613939129b88428ee84e023e20f7373ab93a4e0d029e6253e17c7325213",
  "number": 121904,
  "timestamp": 1440184684,
  "nonce": "0x13a89f0617d007b4",
  "difficulty": 4479790656227,
  "gasLimit": {
    "_hex": "0x2fefd8"
  },
  "gasUsed": {
    "_hex": "0x336b4"
  },
  "miner": "0x52bc44d5378309EE2abF1539BF71dE1b7d7bE3b5",
  "extraData": "0xd783010002844765746887676f312e342e32856c696e7578",
  "transactions": [
    {
      "hash": "0x885ac974a97dc6acf0acc51df9b7e4da3dcd403037e8fec525e6aef944034fda",
      "blockHash": "0x4f81ca3834e1677cc71171d3f474e741969fdce2a8685c5c179a1d20eedcdc85",
      "blockNumber": 121904,
      "transactionIndex": 0,
      "confirmations": null,
      "from": "0x690594d306613cD3e2fD24Bca9994aD98a3d73F8",
      "gasPrice": {
        "_hex": "0x110c8f7d8de"
      },
      "gasLimit": {
        "_hex": "0xc350"
      },
      "to": "0x2910543Af39abA0Cd09dBb2D50200b3E800A63D2",
      "value": {
        "_hex": "0xad78ebc5ac6200000"
      },
      "nonce": 2,
      "data": "0x454e414839314d4830",
      "r": "0xbd1e798c13f26c715f0f95385e5f33f2551432b4d4d8d7e704511a9693ae9f67",
      "s": "0xf9ada6935dd1e3311ae8ce5f0ddef96184c3ca85ecd04111ba54f65459393914",
      "v": 28,
      "creates": null,
      "raw": "0xf87702860110c8f7d8de82c350942910543af39aba0cd09dbb2d50200b3e800a63d2890ad78ebc5ac620000089454e414839314d48301ca0bd1e798c13f26c715f0f95385e5f33f2551432b4d4d8d7e704511a9693ae9f67a0f9ada6935dd1e3311ae8ce5f0ddef96184c3ca85ecd04111ba54f65459393914",
      "networkId": 0,
      "chainId": 0
    },
    {
      "hash": "0x4a26370ed5b6f441eb1423a2c8e26b8b2efd82bb65562267c00ff4a70e9a1266",
      "blockHash": "0x4f81ca3834e1677cc71171d3f474e741969fdce2a8685c5c179a1d20eedcdc85",
      "blockNumber": 121904,
      "transactionIndex": 1,
      "confirmations": null,
      "from": "0xdCB14605B0EE4F372D223e5DF87aa9e760886D01",
      "gasPrice": {
        "_hex": "0xe26cf3729"
      },
      "gasLimit": {
        "_hex": "0x5208"
      },
      "to": "0x32Be343B94f860124dC4fEe278FDCBD38C102D88",
      "value": {
        "_hex": "0x18c8a6d9db9cc5000"
      },
      "nonce": 14,
      "data": "0x",
      "r": "0x82209baa7ca64a4cbd6e785ccd5ce39d2c2d958dd33a14e7b504c6fd884159d8",
      "s": "0x1d0acc7003386d68c4dacafbe722d2aaab047234dbc8aef031cc0f4e7ce061a7",
      "v": 27,
      "creates": null,
      "raw": "0xf86d0e850e26cf37298252089432be343b94f860124dc4fee278fdcbd38c102d8889018c8a6d9db9cc5000801ba082209baa7ca64a4cbd6e785ccd5ce39d2c2d958dd33a14e7b504c6fd884159d8a01d0acc7003386d68c4dacafbe722d2aaab047234dbc8aef031cc0f4e7ce061a7",
      "networkId": 0,
      "chainId": 0
    },
    {
      "hash": "0x07820f2cdcc28ed7e9018565510143c06652b97183a0095e06aa5bbdef71402a",
      "blockHash": "0x4f81ca3834e1677cc71171d3f474e741969fdce2a8685c5c179a1d20eedcdc85",
      "blockNumber": 121904,
      "transactionIndex": 2,
      "confirmations": null,
      "from": "0xc0920452d99591a4e8b190632c52754c72F73328",
      "gasPrice": {
        "_hex": "0xe26cf3729"
      },
      "gasLimit": {
        "_hex": "0x5208"
      },
      "to": "0x32Be343B94f860124dC4fEe278FDCBD38C102D88",
      "value": {
        "_hex": "0x12276935ba0cc2000"
      },
      "nonce": 15,
      "data": "0x",
      "r": "0xd4510445917a0ef50fb8a97b38be6d54b2d0d48e88e0b2723c1575d19b45cba9",
      "s": "0x5555184b53f69767d84807fe28aead9162d3f3d35b8b0a940793465c84715877",
      "v": 27,
      "creates": null,
      "raw": "0xf86d0f850e26cf37298252089432be343b94f860124dc4fee278fdcbd38c102d8889012276935ba0cc2000801ba0d4510445917a0ef50fb8a97b38be6d54b2d0d48e88e0b2723c1575d19b45cba9a05555184b53f69767d84807fe28aead9162d3f3d35b8b0a940793465c84715877",
      "networkId": 0,
      "chainId": 0
    },
    {
      "hash": "0xf840faabd3e9975b27927c9399092a3ef677f7427d58b21abc897c30acba7191",
      "blockHash": "0x4f81ca3834e1677cc71171d3f474e741969fdce2a8685c5c179a1d20eedcdc85",
      "blockNumber": 121904,
      "transactionIndex": 3,
      "confirmations": null,
      "from": "0x9B7280891dc19fd3A2e754cB9007203820650403",
      "gasPrice": {
        "_hex": "0xe26cf3729"
      },
      "gasLimit": {
        "_hex": "0x5208"
      },
      "to": "0x32Be343B94f860124dC4fEe278FDCBD38C102D88",
      "value": {
        "_hex": "0xb664a2cc15fed000"
      },
      "nonce": 14,
      "data": "0x",
      "r": "0x57c3720fb819c355dd533cbc6fd8ac2424d1c3ed86154a345b7214c0fbc39eca",
      "s": "0x307ff6c300d1943e8a105e80c3528d298abc9c6f4cfe645ce30e9409e1aadea4",
      "v": 27,
      "creates": null,
      "raw": "0xf86c0e850e26cf37298252089432be343b94f860124dc4fee278fdcbd38c102d8888b664a2cc15fed000801ba057c3720fb819c355dd533cbc6fd8ac2424d1c3ed86154a345b7214c0fbc39ecaa0307ff6c300d1943e8a105e80c3528d298abc9c6f4cfe645ce30e9409e1aadea4",
      "networkId": 0,
      "chainId": 0
    },
    {
      "hash": "0x90a626447fbfc52f151d5ee28e2be7d889205a885c0e914c97de9f5e17e55353",
      "blockHash": "0x4f81ca3834e1677cc71171d3f474e741969fdce2a8685c5c179a1d20eedcdc85",
      "blockNumber": 121904,
      "transactionIndex": 4,
      "confirmations": null,
      "from": "0x2D1d94521E896625F8Ec3f65171Fa82262Da6BCF",
      "gasPrice": {
        "_hex": "0xe26cf3729"
      },
      "gasLimit": {
        "_hex": "0x5208"
      },
      "to": "0x32Be343B94f860124dC4fEe278FDCBD38C102D88",
      "value": {
        "_hex": "0x1837571a7b1387000"
      },
      "nonce": 16,
      "data": "0x",
      "r": "0x4427f151ae86708478e8952c7db71e99364424ef30b2d9453af9281eaf5f31fd",
      "s": "0x4343d595f6b26ff399f7e83f4d4e8bf4ccc7c7c50621ceedab21bbcc5530f198",
      "v": 28,
      "creates": null,
      "raw": "0xf86d10850e26cf37298252089432be343b94f860124dc4fee278fdcbd38c102d888901837571a7b1387000801ca04427f151ae86708478e8952c7db71e99364424ef30b2d9453af9281eaf5f31fda04343d595f6b26ff399f7e83f4d4e8bf4ccc7c7c50621ceedab21bbcc5530f198",
      "networkId": 0,
      "chainId": 0
    },
    {
      "hash": "0x62c6123942412646cd22b7007fd8072fcd94ec830e64642fc11ee8e9431ce43c",
      "blockHash": "0x4f81ca3834e1677cc71171d3f474e741969fdce2a8685c5c179a1d20eedcdc85",
      "blockNumber": 121904,
      "transactionIndex": 5,
      "confirmations": null,
      "from": "0x06BcFDb20583cc822f2031724E36F3678BBCa6E9",
      "gasPrice": {
        "_hex": "0xe26cf3729"
      },
      "gasLimit": {
        "_hex": "0x5208"
      },
      "to": "0x32Be343B94f860124dC4fEe278FDCBD38C102D88",
      "value": {
        "_hex": "0x1084ae85f3b0ff000"
      },
      "nonce": 12,
      "data": "0x",
      "r": "0xd7eef4e56ff877e7e67d62e571ded87c22b6793d6ec51f293d7bfa6c4942485a",
      "s": "0x58730aa40cd87c938a27148247573287226ded5f608a6fdc3c8e441067f2eaff",
      "v": 28,
      "creates": null,
      "raw": "0xf86d0c850e26cf37298252089432be343b94f860124dc4fee278fdcbd38c102d888901084ae85f3b0ff000801ca0d7eef4e56ff877e7e67d62e571ded87c22b6793d6ec51f293d7bfa6c4942485aa058730aa40cd87c938a27148247573287226ded5f608a6fdc3c8e441067f2eaff",
      "networkId": 0,
      "chainId": 0
    },
    {
      "hash": "0x3082072ff158c4cd856cd46c977aee45579f716c81e60a1956f492cf573d6bdd",
      "blockHash": "0x4f81ca3834e1677cc71171d3f474e741969fdce2a8685c5c179a1d20eedcdc85",
      "blockNumber": 121904,
      "transactionIndex": 6,
      "confirmations": null,
      "from": "0xBA7933704d52A3e7fdBb5B5deD29e45213EA1111",
      "gasPrice": {
        "_hex": "0xe26cf3729"
      },
      "gasLimit": {
        "_hex": "0x5208"
      },
      "to": "0x32Be343B94f860124dC4fEe278FDCBD38C102D88",
      "value": {
        "_hex": "0x15f36fa324cdde000"
      },
      "nonce": 13,
      "data": "0x",
      "r": "0x6f99cd20f50f2c3c18c8a82481ddd9845aab4ce693e2f279520dd1d53b44b0b1",
      "s": "0x77863e7fb0bc44f08ec228d709e001c84e495650091fc19c860f914cc00dad9d",
      "v": 27,
      "creates": null,
      "raw": "0xf86d0d850e26cf37298252089432be343b94f860124dc4fee278fdcbd38c102d8889015f36fa324cdde000801ba06f99cd20f50f2c3c18c8a82481ddd9845aab4ce693e2f279520dd1d53b44b0b1a077863e7fb0bc44f08ec228d709e001c84e495650091fc19c860f914cc00dad9d",
      "networkId": 0,
      "chainId": 0
    },
    {
      "hash": "0xdf4ff5dd0c78f27aec19331955aae28aa51c33016571ee4770b84ea45797f497",
      "blockHash": "0x4f81ca3834e1677cc71171d3f474e741969fdce2a8685c5c179a1d20eedcdc85",
      "blockNumber": 121904,
      "transactionIndex": 7,
      "confirmations": null,
      "from": "0x1543667B9bad3e41865C3233E1764d8dda8E1F3D",
      "gasPrice": {
        "_hex": "0xe26cf3729"
      },
      "gasLimit": {
        "_hex": "0x5208"
      },
      "to": "0x32Be343B94f860124dC4fEe278FDCBD38C102D88",
      "value": {
        "_hex": "0xd9c6fd7289daf800"
      },
      "nonce": 18,
      "data": "0x",
      "r": "0x9abf9ff1ec4966f2849fd6143b57beba6c1bca46b9b9c035b47cda89e34a50e7",
      "s": "0x73d3c77959349b094215cb917bf95bbdafc7fe3f7a2f967891a412d43d092862",
      "v": 27,
      "creates": null,
      "raw": "0xf86c12850e26cf37298252089432be343b94f860124dc4fee278fdcbd38c102d8888d9c6fd7289daf800801ba09abf9ff1ec4966f2849fd6143b57beba6c1bca46b9b9c035b47cda89e34a50e7a073d3c77959349b094215cb917bf95bbdafc7fe3f7a2f967891a412d43d092862",
      "networkId": 0,
      "chainId": 0
    },
    {
      "hash": "0xf7afdfe7f49b1432b6a37b0da1feba7099991c645007ed373aea9a5be8d95fef",
      "blockHash": "0x4f81ca3834e1677cc71171d3f474e741969fdce2a8685c5c179a1d20eedcdc85",
      "blockNumber": 121904,
      "transactionIndex": 8,
      "confirmations": null,
      "from": "0x86d3856ad0105B9d4199936c1fd203664BA325dC",
      "gasPrice": {
        "_hex": "0xe26cf3729"
      },
      "gasLimit": {
        "_hex": "0x5208"
      },
      "to": "0x32Be343B94f860124dC4fEe278FDCBD38C102D88",
      "value": {
        "_hex": "0x1104ba9aed903b000"
      },
      "nonce": 33,
      "data": "0x",
      "r": "0x7fada380910769ec98413d64bc9b9991a51fd12e95b4179fbd6628ba9b79f03e",
      "s": "0x15d5ff5506c836bc2afbb6e9f0d6035e17772a10009314f1788486b52c91fb70",
      "v": 27,
      "creates": null,
      "raw": "0xf86d21850e26cf37298252089432be343b94f860124dc4fee278fdcbd38c102d888901104ba9aed903b000801ba07fada380910769ec98413d64bc9b9991a51fd12e95b4179fbd6628ba9b79f03ea015d5ff5506c836bc2afbb6e9f0d6035e17772a10009314f1788486b52c91fb70",
      "networkId": 0,
      "chainId": 0
    },
    {
      "hash": "0x26048914c5693c1721693dda36a2e9020ff9d64d63193187a46146771fecf48e",
      "blockHash": "0x4f81ca3834e1677cc71171d3f474e741969fdce2a8685c5c179a1d20eedcdc85",
      "blockNumber": 121904,
      "transactionIndex": 9,
      "confirmations": null,
      "from": "0x556ca325C21e450b2aFf86D9c8eF0Fa371971c97",
      "gasPrice": {
        "_hex": "0xe26cf3729"
      },
      "gasLimit": {
        "_hex": "0x5208"
      },
      "to": "0x32Be343B94f860124dC4fEe278FDCBD38C102D88",
      "value": {
        "_hex": "0xcb29065a9d46e000"
      },
      "nonce": 24,
      "data": "0x",
      "r": "0xac8d40677e6c4bd15527abc67863c093c543caba8ce03a68b2ecb8f73ed3e057",
      "s": "0x7c15f06ca0df30a30d8922ef759b3e4e9959540fa05349769c8eefb93b5fae06",
      "v": 27,
      "creates": null,
      "raw": "0xf86c18850e26cf37298252089432be343b94f860124dc4fee278fdcbd38c102d8888cb29065a9d46e000801ba0ac8d40677e6c4bd15527abc67863c093c543caba8ce03a68b2ecb8f73ed3e057a07c15f06ca0df30a30d8922ef759b3e4e9959540fa05349769c8eefb93b5fae06",
      "networkId": 0,
      "chainId": 0
    }
  ]
}