{
  "hash": "0x63b271ab0ae3ecd27ee469b93ebe6fb96bfe4c587fb7802dcb441b8a47da065c",
  "parentHash": "0xbb0ebb5f9222a090a94343df584da9046102247f77001671bde025091612e3a9",
  "number": 72196,
  "timestamp": 1439348882,
  "nonce": "0xa6685cd297eb0c24",
  "difficulty": 2174907837866,
  "gasLimit": {
    "_hex": "0x2fefd8"
  },
  "gasUsed": {
    "_hex": "0x93b2"
  },
  "miner": "0x123843545FB525C8E134c9A5F15ADA6865cc3848",
  "extraData": "0x476574682f76312e302e312f77696e646f77732f676f312e342e32",
  "transactions": [
    {
      "hash": "0xc078b9454c71cbd78d957fa2d2ff00078fb590748746d97fd0f18cb8facd0294",
      "blockHash": "0x63b271ab0ae3ecd27ee469b93ebe6fb96bfe4c587fb7802dcb441b8a47da065c",
      "blockNumber": 72196,
      "transactionIndex": 0,
      "confirmations": null,
      "from": "0x17580B766f7453525ca4C6A88b01b50570EA088C",
      "gasPrice": {
        "_hex": "0xd2bf93aca"
      },
      "gasLimit": {
        "_hex": "0x61a80"
      },
      "to": "0x5Fe5B7546D1628f7348B023A0393de1FC825A4fD",
      "value": {
        "_hex": "0x8ac7230489e80000"
      },
      "nonce": 359,
      "data": "0xb595b8b50000000000000000000000000000000000000000000000000000000000000000",
      "r": "0x70e451c0ad9a09697308aa677d757f85c21a08f4d69b7c0cbcdd4d0df4b5cc16",
      "s": "0x72123bff201d9b851280ba95fb2e033c46f89d941b12014f689b458824c15656",
      "v": 27,
      "creates": null,
      "raw": "0xf893820167850d2bf93aca83061a80945fe5b7546d1628f7348b023a0393de1fc825a4fd888ac7230489e80000a4b595b8b500000000000000000000000000000000000000000000000000000000000000001ba070e451c0ad9a09697308aa677d757f85c21a08f4d69b7c0cbcdd4d0df4b5cc16a072123bff201d9b851280ba95fb2e033c46f89d941b12014f689b458824c15656",
      "networkId": 0,
      "chainId": 0
    }
  ]
}