{
  "hash": "0xeee423bb33f3df9a52c622bd9f6786d9ec8738177426178b545be55631279f48",
  "parentHash": "0xd574654c6c65ce7edce88941e4af73b552f95d9b5955c93bb1b3b8d8abd6be5d",
  "number": 102184,
  "timestamp": 1439834148,
  "nonce": "0x54b49b668519e714",
  "difficulty": 3908897004987,
  "gasLimit": {
    "_hex": "0x2fefd8"
  },
  "gasUsed": {
    "_hex": "0x5208"
  },
  "miner": "0x790b8a3cE86E707ED0eD32bF89B3269692a23CC1",
  "extraData": "0xd783010001844765746887676f312e342e32856c696e7578",
  "transactions": [
    {
      "hash": "0x522636ee6b0d396625d1600240f53b944f534dd0381ae684d5b73270559e613c",
      "blockHash": "0xeee423bb33f3df9a52c622bd9f6786d9ec8738177426178b545be55631279f48",
      "blockNumber": 102184,
      "transactionIndex": 0,
      "confirmations": null,
      "from": "0xE12517204a15E890f12755207271102F4800A0c4",
      "gasPrice": {
        "_hex": "0xdd8b34650"
      },
      "gasLimit": {
        "_hex": "0x5208"
      },
      "to": "0x32Be343B94f860124dC4fEe278FDCBD38C102D88",
      "value": {
        "_hex": "0x2b5df349db2836000"
      },
      "nonce": 15,
      "data": "0x",
      "r": "0xcc1d722c25b24d380784be9e231ee0f0828d1068cf5b58db943c76f7977ab05b",
      "s": "0x5ce2017095649e726b0007961fda3ab914da58093783b79e0337be21544a238f",
      "v": 27,
      "creates": null,
      "raw": "0xf86d0f850dd8b346508252089432be343b94f860124dc4fee278fdcbd38c102d888902b5df349db2836000801ba0cc1d722c25b24d380784be9e231ee0f0828d1068cf5b58db943c76f7977ab05ba05ce2017095649e726b0007961fda3ab914da58093783b79e0337be21544a238f",
      "networkId": 0,
      "chainId": 0
    }
  ]
}