{
  "hash": "0xb2c6eccb8c387aec10140e18ccfaad9671113b61889350564a5e0a9c5160d0ee",
  "parentHash": "0x94d86719a65dc6012dab761c6b9d8dfd30f9a59e15ac3bc358df38818b465102",
  "number": 105934,
  "timestamp": 1439895829,
  "nonce": "0x2ce608c7cd2de89c",
  "difficulty": 4466465037905,
  "gasLimit": {
    "_hex": "0x2fefd8"
  },
  "gasUsed": {
    "_hex": "0x546c"
  },
  "miner": "0x9746c7e1ef2bd21FF3997fa467593a89cb852BD0",
  "extraData": "0x476574682f76312e302e312f77696e646f77732f676f312e342e32",
  "transactions": [
    {
      "hash": "0xc10484ffababa07fd14ec66eae8eeddc2a4d2f7d80e6c3404f3efd58176a3cb2",
      "blockHash": "0xb2c6eccb8c387aec10140e18ccfaad9671113b61889350564a5e0a9c5160d0ee",
      "blockNumber": 105934,
      "transactionIndex": 0,
      "confirmations": null,
      "from": "0x051633080d07A557AdDE319261b074997F14692d",
      "gasPrice": {
        "_hex": "0x110c8f7d8de"
      },
      "gasLimit": {
        "_hex": "0xc350"
      },
      "to": "0x2910543Af39abA0Cd09dBb2D50200b3E800A63D2",
      "value": {
        "_hex": "0x13a69c810d014160000"
      },
      "nonce": 0,
      "data": "0x454e4336354e573552",
      "r": "0x96c44482c43d07e74ebcc1ce8424a15e4a2f035abddb070d3c6ba12158a068b8",
      "s": "0x6a387d5bf1b6e8ecba63679779da73bd763b0ffb72276ad34713274044da841c",
      "v": 28,
      "creates": null,
      "raw": "0xf87880860110c8f7d8de82c350942910543af39aba0cd09dbb2d50200b3e800a63d28a013a69c810d01416000089454e4336354e5735521ca096c44482c43d07e74ebcc1ce8424a15e4a2f035abddb070d3c6ba12158a068b8a06a387d5bf1b6e8ecba63679779da73bd763b0ffb72276ad34713274044da841c",
      "networkId": 0,
      "chainId": 0
    }
  ]
}