{
  "hash": "0x31aab38e52f39aee5126853f13f660474bd29e92f418ce2ea45783fe44659a9c",
  "parentHash": "0xd2075f0bafd36e251bdfb88fe8808acb9b10c11c8914bebf6c9e6dc695f80e21",
  "number": 109264,
  "timestamp": 1439953657,
  "nonce": "0xa31511639a75fcf4",
  "difficulty": 4451631337929,
  "gasLimit": {
    "_hex": "0x2fefd8"
  },
  "gasUsed": {
    "_hex": "0x5208"
  },
  "miner": "0xa70a9a7040d542C632D8e0bE7c5513A8a5Bbc752",
  "extraData": "0x",
  "transactions": [
    {
      "hash": "0x7280d0ec3616ea0c38e825ab0148a0bc50c55ae3506af4b63f22a01cc738f2d0",
      "blockHash": "0x31aab38e52f39aee5126853f13f660474bd29e92f418ce2ea45783fe44659a9c",
      "blockNumber": 109264,
      "transactionIndex": 0,
      "confirmations": null,
      "from": "0xa6BDc31c431B8F97848c9D60cbbe9660dc450eB7",
      "gasPrice": {
        "_hex": "0xcd116226c"
      },
      "gasLimit": {
        "_hex": "0x5208"
      },
      "to": "0x32Be343B94f860124dC4fEe278FDCBD38C102D88",
      "value": {
        "_hex": "0x455f76220b97c000"
      },
      "nonce": 188,
      "data": "0x",
      "r": "0xebf9ec5a4328e07da0fc58b8394fe16420498d8b3bb741b06d571bd9762b55df",
      "s": "0x6f8f5da0beffa0de462073cb3dee4da197cd830bbed095cd067fb2c2ba23c65d",
      "v": 27,
      "creates": null,
      "raw": "0xf86d81bc850cd116226c8252089432be343b94f860124dc4fee278fdcbd38c102d8888455f76220b97c000801ba0ebf9ec5a4328e07da0fc58b8394fe16420498d8b3bb741b06d571bd9762b55dfa06f8f5da0beffa0de462073cb3dee4da197cd830bbed095cd067fb2c2ba23c65d",
      "networkId": 0,
      "chainId": 0
    }
  ]
}