{
  "hash": "0x44655fec3121616dcb747ffd67dea86f0fa2f9899fd425d41ab34b227f3f891d",
  "parentHash": "0x7c75f406fa4fa8a656b5ceb6649937fff2493ff86c936090562072093f6a05c3",
  "number": 70469,
  "timestamp": 1439320159,
  "nonce": "0x6fbe102a817c1297",
  "difficulty": 2146864852816,
  "gasLimit": {
    "_hex": "0x2fefd8"
  },
  "gasUsed": {
    "_hex": "0xa410"
  },
  "miner": "0x88D74a59454F6cF3B51ef6b9136AFb6b9D405A88",
  "extraData": "0x476574682f76312e302e312d37666266393930632f6c696e75782f676f312e34",
  "transactions": [
    {
      "hash": "0xf42de444930c039a9cbccfc43c87b3c02d02afb3327819c9dda821f1f849e4f3",
      "blockHash": "0x44655fec3121616dcb747ffd67dea86f0fa2f9899fd425d41ab34b227f3f891d",
      "blockNumber": 70469,
      "transactionIndex": 0,
      "confirmations": null,
      "from": "0xF23e4DBf58683a7179356343fea5168902146F66",
      "gasPrice": {
        "_hex": "0xcd638d7c0"
      },
      "gasLimit": {
        "_hex": "0x5208"
      },
      "to": "0x32Be343B94f860124dC4fEe278FDCBD38C102D88",
      "value": {
        "_hex": "0x15adbf70c7b1f1000"
      },
      "nonce": 0,
      "data": "0x",
      "r": "0x22514a012a527ec393c5b3650d426d9bff65b4f8fe79481ddba197101a070466",
      "s": "0x69fbebc4267be9f51beeac159ef54c02634bebc175a3f16a81eaf43a877401f7",
      "v": 27,
      "creates": null,
      "raw": "0xf86d80850cd638d7c08252089432be343b94f860124dc4fee278fdcbd38c102d8889015adbf70c7b1f1000801ba022514a012a527ec393c5b3650d426d9bff65b4f8fe79481ddba197101a070466a069fbebc4267be9f51beeac159ef54c02634bebc175a3f16a81eaf43a877401f7",
      "networkId": 0,
      "chainId": 0
    },
    {
      "hash": "0xc70f1d876834ef63db3543380d2fa641ed54e88e97b97e986f9d42f6839b0c65",
      "blockHash": "0x44655fec3121616dcb747ffd67dea86f0fa2f9899fd425d41ab34b227f3f891d",
      "blockNumber": 70469,
      "transactionIndex": 1,
      "confirmations": null,
      "from": "0xa70a9a7040d542C632D8e0bE7c5513A8a5Bbc752",
      "gasPrice": {
        "_hex": "0xcd638d7c0"
      },
      "gasLimit": {
        "_hex": "0x5208"
      },
      "to": "0x32Be343B94f860124dC4fEe278FDCBD38C102D88",
      "value": {
        "_hex": "0x455f747c9f2f8c00"
      },
      "nonce": 9,
      "data": "0x",
      "r": "0x2719b9423e9836b019fb99fea4fadcfde08c88c4ec0a87eaec31d0695d9a9c66",
      "s": "0x7a48a5254d7aff8d7ba7bccc28bb95facc0b76fb9cb505cbe150cc5cda6cf985",
      "v": 27,
      "creates": null,
      "raw": "0xf86c09850cd638d7c08252089432be343b94f860124dc4fee278fdcbd38c102d8888455f747c9f2f8c00801ba02719b9423e9836b019fb99fea4fadcfde08c88c4ec0a87eaec31d0695d9a9c66a07a48a5254d7aff8d7ba7bccc28bb95facc0b76fb9cb505cbe150cc5cda6cf985",
      "networkId": 0,
      "chainId": 0
    }
  ]
}