{
  "hash": "0xf98353114d73c158301c7383a852c30f1b08a70247528b5ccaa89cd7fe9b6264",
  "parentHash": "0xfa78faadedcc779ec44b55096b4d6970bc1e5fcbb280d483d751712e8e3f7b26",
  "number": 87180,
  "timestamp": 1439588341,
  "nonce": "0xbd93c70d9901673f",
  "difficulty": 3064629397680,
  "gasLimit": {
    "_hex": "0x2fefd8"
  },
  "gasUsed": {
    "_hex": "0x5208"
  },
  "miner": "0xe6A7a1d47ff21B6321162AEA7C6CB457D5476Bca",
  "extraData": "0x476574682f76312e302e312d38326566323666362f6c696e75782f676f312e34",
  "transactions": [
    {
      "hash": "0xc9c2ccc8b09fba19a023acd9a3c6f02cbf1e2584bb199b57ed441409338c7acd",
      "blockHash": "0xf98353114d73c158301c7383a852c30f1b08a70247528b5ccaa89cd7fe9b6264",
      "blockNumber": 87180,
      "transactionIndex": 0,
      "confirmations": null,
      "from": "0x88a0A05437262a1b65f41A978Cb16CB1f0BFCfE0",
      "gasPrice": {
        "_hex": "0xd01ecab45"
      },
      "gasLimit": {
        "_hex": "0x15f90"
      },
      "to": "0x644d27243cD3E3F0c41676abFCB1fa6fBA1A400c",
      "value": {
        "_hex": "0x1fd97a572f858000"
      },
      "nonce": 15,
      "data": "0x",
      "r": "0x38049dcb561306e0e1dfe360c290e435a82987ee5603db8e7aed114d8d4d65f7",
      "s": "0x17bf29fd4ee280851e22bbe2e7bee9435ee0626207d9cde8d1aebbea7dfa759a",
      "v": 28,
      "creates": null,
      "raw": "0xf86d0f850d01ecab4583015f9094644d27243cd3e3f0c41676abfcb1fa6fba1a400c881fd97a572f858000801ca038049dcb561306e0e1dfe360c290e435a82987ee5603db8e7aed114d8d4d65f7a017bf29fd4ee280851e22bbe2e7bee9435ee0626207d9cde8d1aebbea7dfa759a",
      "networkId": 0,
      "chainId": 0
    }
  ]
}