{
  "hash": "0xa9dd850d66cd4acd969e0ddca594be858ef4ee188dfbacd9e50efd58f2d671c4",
  "parentHash": "0x421185122a53a4be88c758fe58776a84f3a7a2b2cebc157fb3f2e47f413c65ea",
  "number": 98618,
  "timestamp": 1439776025,
  "nonce": "0x6a59b234d1763aa5",
  "difficulty": 3849931428751,
  "gasLimit": {
    "_hex": "0x2fefd8"
  },
  "gasUsed": {
    "_hex": "0x5208"
  },
  "miner": "0xe6A7a1d47ff21B6321162AEA7C6CB457D5476Bca",
  "extraData": "0x476574682f76312e302e312d38326566323666362f6c696e75782f676f312e34",
  "transactions": [
    {
      "hash": "0x2ae110a92c451c4db516826d87aa8dc500ffd0b52c9a1d3f0f49e2422386dea8",
      "blockHash": "0xa9dd850d66cd4acd969e0ddca594be858ef4ee188dfbacd9e50efd58f2d671c4",
      "blockNumber": 98618,
      "transactionIndex": 0,
      "confirmations": null,
      "from": "0x007f7f58D3eb5b7510A301eCC749FC1fCDDBE14D",
      "gasPrice": {
        "_hex": "0xe0cfe7246"
      },
      "gasLimit": {
        "_hex": "0x15f90"
      },
      "to": "0xb1abce2918E21ddb93AA452731a12672A3d9F75a",
      "value": {
        "_hex": "0x4563918244f40000"
      },
      "nonce": 133,
      "data": "0x",
      "r": "0x9a06be2976f30f5f23564c8a82e8de2275bc832efe58669816ecc3b382c9bf1a",
      "s": "0x1a8cef3b0bb68cc196ebf9dc41a7894c8a84c7339bbf1d1637acdd672b5cf0bb",
      "v": 28,
      "creates": null,
      "raw": "0xf86e8185850e0cfe724683015f9094b1abce2918e21ddb93aa452731a12672a3d9f75a884563918244f40000801ca09a06be2976f30f5f23564c8a82e8de2275bc832efe58669816ecc3b382c9bf1aa01a8cef3b0bb68cc196ebf9dc41a7894c8a84c7339bbf1d1637acdd672b5cf0bb",
      "networkId": 0,
      "chainId": 0
    }
  ]
}