{
  "hash": "0x60bd22d4b0d3efe0b3e7487d0df4f0212b0a930a24c05135b3d235a743486a7c",
  "parentHash": "0x24ca867c1bc74221ed1243f96393c99529a02e20824cc7a52391b9334c99e881",
  "number": 121068,
  "timestamp": 1440170813,
  "nonce": "0x21e551d3466b6529",
  "difficulty": 4428040782151,
  "gasLimit": {
    "_hex": "0x2fefd8"
  },
  "gasUsed": {
    "_hex": "0x5208"
  },
  "miner": "0xe6A7a1d47ff21B6321162AEA7C6CB457D5476Bca",
  "extraData": "0xd783010002844765746887676f312e342e32856c696e7578",
  "transactions": [
    {
      "hash": "0x4e7d7bafc15460f34f36a2967f87bf8e60973c7b6857d8dd3d0ca5018f1d316e",
      "blockHash": "0x60bd22d4b0d3efe0b3e7487d0df4f0212b0a930a24c05135b3d235a743486a7c",
      "blockNumber": 121068,
      "transactionIndex": 0,
      "confirmations": null,
      "from": "0x27A2f708f13CFE24f8e5d6E8b7D8E971D2449Ba0",
      "gasPrice": {
        "_hex": "0xd5fc340eb"
      },
      "gasLimit": {
        "_hex": "0x15f90"
      },
      "to": "0x61F642543d22bAf5382908a714E675Cc0b51ea45",
      "value": {
        "_hex": "0x1158e460913d00000"
      },
      "nonce": 15,
      "data": "0x",
      "r": "0xf2f6acb144d3d9e974369f1467097954617057565ded13eec1ff51741c18fcda",
      "s": "0x45589345c1b95d7b07b884c9ee23dbb228d13219cd23137b6ec64d4f87e40ea3",
      "v": 27,
      "creates": null,
      "raw": "0xf86e0f850d5fc340eb83015f909461f642543d22baf5382908a714e675cc0b51ea458901158e460913d00000801ba0f2f6acb144d3d9e974369f1467097954617057565ded13eec1ff51741c18fcdaa045589345c1b95d7b07b884c9ee23dbb228d13219cd23137b6ec64d4f87e40ea3",
      "networkId": 0,
      "chainId": 0
    }
  ]
}