{
  "hash": "0x58c5cc1dcc2ab5ff4985b20fe67be77916af35a61d2db17770298666fbdd9bfd",
  "parentHash": "0x6a2ff056df4db19643932ac9bf1e1e81d73b9b1f146efaf0f0bd81fc59ebe420",
  "number": 88844,
  "timestamp": 1439614462,
  "nonce": "0xb47b3656200b5c54",
  "difficulty": 3233092874132,
  "gasLimit": {
    "_hex": "0x2fefd8"
  },
  "gasUsed": {
    "_hex": "0x5208"
  },
  "miner": "0xe6A7a1d47ff21B6321162AEA7C6CB457D5476Bca",
  "extraData": "0x476574682f76312e302e312d38326566323666362f6c696e75782f676f312e34",
  "transactions": [
    {
      "hash": "0x51fd9dc8f4e19ce575760c8bfae773744b0e72d06c2568972a4953c196363c14",
      "blockHash": "0x58c5cc1dcc2ab5ff4985b20fe67be77916af35a61d2db17770298666fbdd9bfd",
      "blockNumber": 88844,
      "transactionIndex": 0,
      "confirmations": null,
      "from": "0xB9970A5666f5b3272552160B85332F0e21653a76",
      "gasPrice": {
        "_hex": "0xd651435ca"
      },
      "gasLimit": {
        "_hex": "0x15f90"
      },
      "to": "0x23f2D0fd3B4C98Fb1698564deB4898275E2e831f",
      "value": {
        "_hex": "0x29a2241af62c0000"
      },
      "nonce": 0,
      "data": "0x",
      "r": "0x5ad8bb3ee1c97cc2bc206ac7c34b71cd81d9abb5afa0fc2f94985cdef3f63843",
      "s": "0x48728a92be64ca680328596621874f2680307a388f90ab21023a85a0178d8434",
      "v": 27,
      "creates": null,
      "raw": "0xf86d80850d651435ca83015f909423f2d0fd3b4c98fb1698564deb4898275e2e831f8829a2241af62c0000801ba05ad8bb3ee1c97cc2bc206ac7c34b71cd81d9abb5afa0fc2f94985cdef3f63843a048728a92be64ca680328596621874f2680307a388f90ab21023a85a0178d8434",
      "networkId": 0,
      "chainId": 0
    }
  ]
}