{
  "hash": "0x321ea8709d63a91791c67148ee55ce446a9d4e65e7bf959a1dec19f46cea033e",
  "parentHash": "0xd0a628b3562179d5ef4b37d17824209ce551faf80482c0584137d5afd026f6d5",
  "number": 59964,
  "timestamp": 1439146750,
  "nonce": "0x193cef4c3607331b",
  "difficulty": 1728059543214,
  "gasLimit": {
    "_hex": "0x2fefd8"
  },
  "gasUsed": {
    "_hex": "0x5208"
  },
  "miner": "0x3F98e477a361F777DA14611a7e419A75Fd238b6b",
  "extraData": "0x476574682f76312e302e312f6c696e75782f676f312e342e32",
  "transactions": [
    {
      "hash": "0xfdd3b7ab2f44a16681a55f532f1da18ef1faa102d738a73325a4b7bc7ab501a9",
      "blockHash": "0x321ea8709d63a91791c67148ee55ce446a9d4e65e7bf959a1dec19f46cea033e",
      "blockNumber": 59964,
      "transactionIndex": 0,
      "confirmations": null,
      "from": "0x8155Fa6c51Eb31D808412d748aA086105018122f",
      "gasPrice": {
        "_hex": "0xd4fbc5952"
      },
      "gasLimit": {
        "_hex": "0x15f90"
      },
      "to": "0xc955d372Fe1c428D17CD86E05d26F0206F3677b1",
      "value": {
        "_hex": "0xde0b6b3a7640000"
      },
      "nonce": 2,
      "data": "0x",
      "r": "0x7839f22ac3eef572f7de93cfadc738759fae53db44677a2562d03f383b18f771",
      "s": "0x526ef37b0e8d4f3e30ea01dc3bd9542be1f55b2a4f15f13dd56d0ea256ec46d9",
      "v": 28,
      "creates": null,
      "raw": "0xf86d02850d4fbc595283015f9094c955d372fe1c428d17cd86e05d26f0206f3677b1880de0b6b3a7640000801ca07839f22ac3eef572f7de93cfadc738759fae53db44677a2562d03f383b18f771a0526ef37b0e8d4f3e30ea01dc3bd9542be1f55b2a4f15f13dd56d0ea256ec46d9",
      "networkId": 0,
      "chainId": 0
    }
  ]
}