{
  "hash": "0x4f5186cbbadbc34b6622409122c6f31775a11cbc8285e5c965510a6c4b2af7a2",
  "parentHash": "0x40e66c98b5e83274912f1394183f877cc17f4438dc3e6d6009758bc11293621d",
  "number": 92484,
  "timestamp": 1439672792,
  "nonce": "0xdc615434fb862268",
  "difficulty": 3521696417075,
  "gasLimit": {
    "_hex": "0x2fefd8"
  },
  "gasUsed": {
    "_hex": "0x5208"
  },
  "miner": "0x0089508679abF8c71BF6781687120e3E6a84584D",
  "extraData": "0x",
  "transactions": [
    {
      "hash": "0xa573a9a5e6907f501780121b2deaf16ee991aaa1946a9d203a5b08f2bb57d930",
      "blockHash": "0x4f5186cbbadbc34b6622409122c6f31775a11cbc8285e5c965510a6c4b2af7a2",
      "blockNumber": 92484,
      "transactionIndex": 0,
      "confirmations": null,
      "from": "0x5E33810d055F68eBA415be93fAEC212e9a2d6723",
      "gasPrice": {
        "_hex": "0xe1a50fac6"
      },
      "gasLimit": {
        "_hex": "0x5208"
      },
      "to": "0x32Be343B94f860124dC4fEe278FDCBD38C102D88",
      "value": {
        "_hex": "0x9b41b3abfcad08000"
      },
      "nonce": 2,
      "data": "0x",
      "r": "0x8fd0172baf091faf53dcc3c1d290cd11657b747582e8d73b1aa853b7e4c246e1",
      "s": "0x509af9084e37568a548f130bb79803cab4cb03abc92acfec21859d8c64b73bb4",
      "v": 28,
      "creates": null,
      "raw": "0xf86d02850e1a50fac68252089432be343b94f860124dc4fee278fdcbd38c102d888909b41b3abfcad08000801ca08fd0172baf091faf53dcc3c1d290cd11657b747582e8d73b1aa853b7e4c246e1a0509af9084e37568a548f130bb79803cab4cb03abc92acfec21859d8c64b73bb4",
      "networkId": 0,
      "chainId": 0
    }
  ]
}