{
  "hash": "0x91e073e2bad189b6f432f9b644015509dd2589cc2fab30c5b63e2105a30971dd",
  "parentHash": "0xb98296befc2cd702eccb8fb68269ea01bc9b1460fe25db14133ec663cfa73aa6",
  "number": 60832,
  "timestamp": 1439162302,
  "nonce": "0x0240e6e243a8a319",
  "difficulty": 1736338293670,
  "gasLimit": {
    "_hex": "0x2fefd8"
  },
  "gasUsed": {
    "_hex": "0xa410"
  },
  "miner": "0x31995C46B15C84523cDEE26f49A681b8237e43F5",
  "extraData": "0x476574682f76312e302e312f77696e646f77732f676f312e342e32",
  "transactions": [
    {
      "hash": "0xaed99ecddc433cd20056db6517ed23f0aa9059696bb4d748298b25755e40c854",
      "blockHash": "0x91e073e2bad189b6f432f9b644015509dd2589cc2fab30c5b63e2105a30971dd",
      "blockNumber": 60832,
      "transactionIndex": 0,
      "confirmations": null,
      "from": "0x93Db80284c8E4d2B0eE8586dE2D072208c075145",
      "gasPrice": {
        "_hex": "0xd223cacb4"
      },
      "gasLimit": {
        "_hex": "0x5208"
      },
      "to": "0x32Be343B94f860124dC4fEe278FDCBD38C102D88",
      "value": {
        "_hex": "0x2a03332105adb40000"
      },
      "nonce": 1,
      "data": "0x",
      "r": "0x7b398d5025710f13d757f88a178c27fda5dcd896fc66e90a90341e822f2f1b04",
      "s": "0x68452163fa0875dd4f45629707fd2c25ea9f89fb13aa5eb233ecef74a725e11d",
      "v": 27,
      "creates": null,
      "raw": "0xf86d01850d223cacb48252089432be343b94f860124dc4fee278fdcbd38c102d88892a03332105adb40000801ba07b398d5025710f13d757f88a178c27fda5dcd896fc66e90a90341e822f2f1b04a068452163fa0875dd4f45629707fd2c25ea9f89fb13aa5eb233ecef74a725e11d",
      "networkId": 0,
      "chainId": 0
    },
    {
      "hash": "0xd4ecc0d88b3dd20dd448f3f941afd40e67fd18b6813246dd4037ef4d43658f24",
      "blockHash": "0x91e073e2bad189b6f432f9b644015509dd2589cc2fab30c5b63e2105a30971dd",
      "blockNumber": 60832,
      "transactionIndex": 1,
      "confirmations": null,
      "from": "0xC624b0Cd3307f6CFFC473f5019FA380E6811ee58",
      "gasPrice": {
        "_hex": "0xd223cacb4"
      },
      "gasLimit": {
        "_hex": "0x5208"
      },
      "to": "0x32Be343B94f860124dC4fEe278FDCBD38C102D88",
      "value": {
        "_hex": "0xddc8152cd3c7400"
      },
      "nonce": 0,
      "data": "0x",
      "r": "0x4d62a95c13c76ec8fa19c78f071ef5a5e88cfc1038e66f8d8d2db5fe67e5f4fd",
      "s": "0x6b90e8b9ba10eae45ede756f2ac1034a089ae181cb6fc2e0510bd42e0e4ed180",
      "v": 27,
      "creates": null,
      "raw": "0xf86c80850d223cacb48252089432be343b94f860124dc4fee278fdcbd38c102d88880ddc8152cd3c7400801ba04d62a95c13c76ec8fa19c78f071ef5a5e88cfc1038e66f8d8d2db5fe67e5f4fda06b90e8b9ba10eae45ede756f2ac1034a089ae181cb6fc2e0510bd42e0e4ed180",
      "networkId": 0,
      "chainId": 0
    }
  ]
}