{
  "hash": "0xade5db72f6ccf44c294f6ea1501d67325ad3794a987de4cd99478a4c0894f3f4",
  "parentHash": "0xca098071f6c048a60af37c8b94ae90b6b5f2050491dfcdd733c0a4a3b3f356e8",
  "number": 61704,
  "timestamp": 1439176732,
  "nonce": "0xd3f17f7df456d02c",
  "difficulty": 1734463170641,
  "gasLimit": {
    "_hex": "0x2fefd8"
  },
  "gasUsed": {
    "_hex": "0x5208"
  },
  "miner": "0xeB1325C8D9d3ea8D74aC11F4B00F1B2367686319",
  "extraData": "0x476574682f76312e302e312f77696e646f77732f676f312e342e32",
  "transactions": [
    {
      "hash": "0xfa69ef785df69b70c4ffffc0467ff7f4138d8a72e617a1b9b67b53f981e614de",
      "blockHash": "0xade5db72f6ccf44c294f6ea1501d67325ad3794a987de4cd99478a4c0894f3f4",
      "blockNumber": 61704,
      "transactionIndex": 0,
      "confirmations": null,
      "from": "0x2910543Af39abA0Cd09dBb2D50200b3E800A63D2",
      "gasPrice": {
        "_hex": "0xce4a8a484"
      },
      "gasLimit": {
        "_hex": "0x5208"
      },
      "to": "0x2B15C5211bdA6A867c582080536f6c61766aA5Af",
      "value": {
        "_hex": "0x2be55bdbb594450000"
      },
      "nonce": 104,
      "data": "0x",
      "r": "0x90f37e4464a4231d825c3d8c6f814dbce2aac0f1ab18656a14f7606d96fcd0be",
      "s": "0x6d7c847e6fcf063097139bc540e12de49f69b5272d6b7a35429170cfae448d86",
      "v": 27,
      "creates": null,
      "raw": "0xf86d68850ce4a8a484825208942b15c5211bda6a867c582080536f6c61766aa5af892be55bdbb594450000801ba090f37e4464a4231d825c3d8c6f814dbce2aac0f1ab18656a14f7606d96fcd0bea06d7c847e6fcf063097139bc540e12de49f69b5272d6b7a35429170cfae448d86",
      "networkId": 0,
      "chainId": 0
    }
  ]
}