{
  "hash": "0xa32c5c7a270c196fc8f6d04bd77fa08b2948cc49325aad5b5a2eb1f5198cd449",
  "parentHash": "0xbeb2a4b45e68a46c2893752cdf02b3d1cf269bfa87ae37b46801da7db0957507",
  "number": 87314,
  "timestamp": 1439590311,
  "nonce": "0x513ea733a2005e9d",
  "difficulty": 3103734262167,
  "gasLimit": {
    "_hex": "0x2fefd8"
  },
  "gasUsed": {
    "_hex": "0x5208"
  },
  "miner": "0xe6A7a1d47ff21B6321162AEA7C6CB457D5476Bca",
  "extraData": "0x476574682f76312e302e312d38326566323666362f6c696e75782f676f312e34",
  "transactions": [
    {
      "hash": "0xa7c4d88d8320fd130d0dea97606d2d1eac9bf7cad203d1db3a7775db87c49360",
      "blockHash": "0xa32c5c7a270c196fc8f6d04bd77fa08b2948cc49325aad5b5a2eb1f5198cd449",
      "blockNumber": 87314,
      "transactionIndex": 0,
      "confirmations": null,
      "from": "0xE300c4587D260cE22a677755Db6429B491A4309E",
      "gasPrice": {
        "_hex": "0xdc1180977"
      },
      "gasLimit": {
        "_hex": "0x15f90"
      },
      "to": "0x06EC48800B2DB3eEfa052e98A9b5Fc2Bf783Ee74",
      "value": {
        "_hex": "0x1e838779bbe3e0000"
      },
      "nonce": 4,
      "data": "0x",
      "r": "0xaa5946cfecaa451c29c87622ab4b28547856ce5c39c3a420ddbe008eef1d0a62",
      "s": "0x4f4d2e25e8b04b987cb96133f75bc6a1c0328f297dc270e459f5cfaa1ecd04be",
      "v": 27,
      "creates": null,
      "raw": "0xf86e04850dc118097783015f909406ec48800b2db3eefa052e98a9b5fc2bf783ee748901e838779bbe3e0000801ba0aa5946cfecaa451c29c87622ab4b28547856ce5c39c3a420ddbe008eef1d0a62a04f4d2e25e8b04b987cb96133f75bc6a1c0328f297dc270e459f5cfaa1ecd04be",
      "networkId": 0,
      "chainId": 0
    }
  ]
}