{
  "hash": "0xf45502b6a060219d7adc03a961e53fa6f4d9102527d8f754ef37f020029cc8bb",
  "parentHash": "0xbd185f8871949e78211590a383acc939261a53c95f0e8a5d64cf08e5771af5a8",
  "number": 119124,
  "timestamp": 1440137204,
  "nonce": "0x7d6fd5e3bf8b29e5",
  "difficulty": 4411799770551,
  "gasLimit": {
    "_hex": "0x2fefd8"
  },
  "gasUsed": {
    "_hex": "0x5208"
  },
  "miner": "0xe6A7a1d47ff21B6321162AEA7C6CB457D5476Bca",
  "extraData": "0xd783010002844765746887676f312e342e32856c696e7578",
  "transactions": [
    {
      "hash": "0x1a9bc69d371cb94993953341c871d37ce0ccb6d023784f413ebb5aa808dfaf50",
      "blockHash": "0xf45502b6a060219d7adc03a961e53fa6f4d9102527d8f754ef37f020029cc8bb",
      "blockNumber": 119124,
      "transactionIndex": 0,
      "confirmations": null,
      "from": "0x5F965F10e1BD020753Ca496fee6b3E4D809aff67",
      "gasPrice": {
        "_hex": "0xba43b7400"
      },
      "gasLimit": {
        "_hex": "0x5208"
      },
      "to": "0xFBb1b73C4f0BDa4f67dcA266ce6Ef42f520fBB98",
      "value": {
        "_hex": "0xca15845e21ba0c00"
      },
      "nonce": 4,
      "data": "0x",
      "r": "0x7240247367396befc032239940274098cf4bc02b1bc04a1ab5ce7529f4585f88",
      "s": "0x3bd8bd17e9c8fa2cc42282b53362cd91d94c36e334f303527b4c4f4d17f509af",
      "v": 28,
      "creates": null,
      "raw": "0xf86c04850ba43b740082520894fbb1b73c4f0bda4f67dca266ce6ef42f520fbb9888ca15845e21ba0c00801ca07240247367396befc032239940274098cf4bc02b1bc04a1ab5ce7529f4585f88a03bd8bd17e9c8fa2cc42282b53362cd91d94c36e334f303527b4c4f4d17f509af",
      "networkId": 0,
      "chainId": 0
    }
  ]
}