{
  "hash": "0x63533ddbdf6218a64249c9339df62e4ad8f8705f5b4bd2d846bd8bf11f1f3be5",
  "parentHash": "0x7340d0a3976bf868e21496ee5905329f50551575820c20a5bee469c2fe7e1d5e",
  "number": 119420,
  "timestamp": 1440142606,
  "nonce": "0x5cba8a7e28a020b8",
  "difficulty": 4390155371483,
  "gasLimit": {
    "_hex": "0x2fefd8"
  },
  "gasUsed": {
    "_hex": "0xe6b68"
  },
  "miner": "0xe6A7a1d47ff21B6321162AEA7C6CB457D5476Bca",
  "extraData": "0xd783010002844765746887676f312e342e32856c696e7578",
  "transactions": [
    {
      "hash": "0x31d9011306c987e8267787a4aae67ef3940685b63fb41b335ed120d28f9cd5db",
      "blockHash": "0x63533ddbdf6218a64249c9339df62e4ad8f8705f5b4bd2d846bd8bf11f1f3be5",
      "blockNumber": 119420,
      "transactionIndex": 0,
      "confirmations": null,
      "from": "0x1E550f4ecF22cBCb73da4fc090FBf5a5c748b0F1",
      "gasPrice": {
        "_hex": "0xc7c3eb2d7"
      },
      "gasLimit": {
        "_hex": "0x5208"
      },
      "to": "0x32Be343B94f860124dC4fEe278FDCBD38C102D88",
      "value": {
        "_hex": "0x15d4de8b5cecf800"
      },
      "nonce": 10,
      "data": "0x",
      "r": "0x27f6314437bef0b2c0753197e9bd643328cccfd89272c49233d9d01fffacdb83",
      "s": "0x10dc43ec587cb8e8fc448a78f60e7ce584b076328918df71270cccded1e34108",
      "v": 27,
      "creates": null,
      "raw": "0xf86c0a850c7c3eb2d78252089432be343b94f860124dc4fee278fdcbd38c102d888815d4de8b5cecf800801ba027f6314437bef0b2c0753197e9bd643328cccfd89272c49233d9d01fffacdb83a010dc43ec587cb8e8fc448a78f60e7ce584b076328918df71270cccded1e34108",
      "networkId": 0,
      "chainId": 0
    },
    {
      "hash": "0x5cfc387e215d258325d67e085411ff26798200f32809abfd2414bf2e27eb9be2",
      "blockHash": "0x63533ddbdf6218a64249c9339df62e4ad8f8705f5b4bd2d846bd8bf11f1f3be5",
      "blockNumber": 119420,
      "transactionIndex": 1,
      "confirmations": null,
      "from": "0x3234d29E2390E0Ac637B3ad0ACA3dF88aC82dC5d",
      "gasPrice": {
        "_hex": "0xc7c3eb2d7"
      },
      "gasLimit": {
        "_hex": "0x5208"
      },
      "to": "0x32Be343B94f860124dC4fEe278FDCBD38C102D88",
      "value": {
        "_hex": "0x38864353c0d93800"
      },
      "nonce": 15,
      "data": "0x",
      "r": "0xb441bb139263087509fad395dfb37fb255372117b3eb1ef7773cc7f980ebf355",
      "s": "0x2229e1617e754921c84bbb99b623c178a11c85f44b6e612b5c7e69b8a7c9b6aa",
      "v": 28,
      "creates": null,
      "raw": "0xf86c0f850c7c3eb2d78252089432be343b94f860124dc4fee278fdcbd38c102d888838864353c0d93800801ca0b441bb139263087509fad395dfb37fb255372117b3eb1ef7773cc7f980ebf355a02229e1617e754921c84bbb99b623c178a11c85f44b6e612b5c7e69b8a7c9b6aa",
      "networkId": 0,
      "chainId": 0
    },
    {
      "hash": "0xf5883177b4dded0c8760d2a3edf1b3157e458596c4d2515b4202a2bffd207866",
      "blockHash": "0x63533ddbdf6218a64249c9339df62e4ad8f8705f5b4bd2d846bd8bf11f1f3be5",
      "blockNumber": 119420,
      "transactionIndex": 2,
      "confirmations": null,
      "from": "0x52bc44d5378309EE2abF1539BF71dE1b7d7bE3b5",
      "gasPrice": {
        "_hex": "0xba43b7400"
      },
      "gasLimit": {
        "_hex": "0x61a8"
      },
      "to": "0xad74C8133300eB63De8d69A384B1E8CcFe28DED7",
      "value": {
        "_hex": "0x1a4153a729e77f00"
      },
      "nonce": 613,
      "data": "0x",
      "r": "0xa6de84b3c7e8e8d11693c5e9fed52839f845ce75828e9a5ea4bc498c7c91660a",
      "s": "0x590b555c5f7206ea868dec026cdc1fba778fcf0f0974c68b3c28d092b5b8892d",
      "v": 28,
      "creates": null,
      "raw": "0xf86e820265850ba43b74008261a894ad74c8133300eb63de8d69a384b1e8ccfe28ded7881a4153a729e77f00801ca0a6de84b3c7e8e8d11693c5e9fed52839f845ce75828e9a5ea4bc498c7c91660aa0590b555c5f7206ea868dec026cdc1fba778fcf0f0974c68b3c28d092b5b8892d",
      "networkId": 0,
      "chainId": 0
    },
    {
      "hash": "0xb8ee5752da7014fef74f6da27918eeff8cf3717cc4be70378c160b3fa0a052f9",
      "blockHash": "0x63533ddbdf6218a64249c9339df62e4ad8f8705f5b4bd2d846bd8bf11f1f3be5",
      "blockNumber": 119420,
      "transactionIndex": 3,
      "confirmations": null,
      "from": "0x52bc44d5378309EE2abF1539BF71dE1b7d7bE3b5",
      "gasPrice": {
        "_hex": "0xba43b7400"
      },
      "gasLimit": {
        "_hex": "0x61a8"
      },
      "to": "0xC3fe64D1af00F0d9c324E4387EF7533f7D788e95",
      "value": {
        "_hex": "0x50eb070160b3d900"
      },
      "nonce": 614,
      "data": "0x",
      "r": "0x11090e0215cdfc17b1f41164b85a006e4b44585c1c9579ce8d0019360481aaaa",
      "s": "0x4b1d17bca66123d36db60afe54269ae187c76d2276d91e608934e6b065826262",
      "v": 28,
      "creates": null,
      "raw": "0xf86e820266850ba43b74008261a894c3fe64d1af00f0d9c324e4387ef7533f7d788e958850eb070160b3d900801ca011090e0215cdfc17b1f41164b85a006e4b44585c1c9579ce8d0019360481aaaaa04b1d17bca66123d36db60afe54269ae187c76d2276d91e608934e6b065826262",
      "networkId": 0,
      "chainId": 0
    },
    {
      "hash": "0x8c50d38c8131f19e5ff6289dc65cb6d9a4437c936472f7bc8eb53a80d9a1cb1a",
      "blockHash": "0x63533ddbdf6218a64249c9339df62e4ad8f8705f5b4bd2d846bd8bf11f1f3be5",
      "blockNumber": 119420,
      "transactionIndex": 4,
      "confirmations": null,
      "from": "0x52bc44d5378309EE2abF1539BF71dE1b7d7bE3b5",
      "gasPrice": {
        "_hex": "0xba43b7400"
      },
      "gasLimit": {
        "_hex": "0x61a8"
      },
      "to": "0x689DACb52e18F08d8DFCDd62415c7776aEd8fB89",
      "value": {
        "_hex": "0xb8768b0edc83680"
      },
      "nonce": 615,
      "data": "0x",
      "r": "0xada17d46cb01807abf92e1ba3ef66d9d6a7d269c2052b340c8ed5ca7a1cb95dc",
      "s": "0x29ec079585efc2812bc1874136d1442ab109ba98d1052c9c802d4c3883c7f4de",
      "v": 28,
      "creates": null,
      "raw": "0xf86e820267850ba43b74008261a894689dacb52e18f08d8dfcdd62415c7776aed8fb89880b8768b0edc83680801ca0ada17d46cb01807abf92e1ba3ef66d9d6a7d269c2052b340c8ed5ca7a1cb95dca029ec079585efc2812bc1874136d1442ab109ba98d1052c9c802d4c3883c7f4de",
      "networkId": 0,
      "chainId": 0
    },
    {
      "hash": "0x752497e3b2027e77ab3cc3a01e2bfc1a4eb5d1a8a6825168f2929493eda64e75",
      "blockHash": "0x63533ddbdf6218a64249c9339df62e4ad8f8705f5b4bd2d846bd8bf11f1f3be5",
      "blockNumber": 119420,
      "transactionIndex": 5,
      "confirmations": null,
      "from": "0x52bc44d5378309EE2abF1539BF71dE1b7d7bE3b5",
      "gasPrice": {
        "_hex": "0xba43b7400"
      },
      "gasLimit": {
        "_hex": "0x61a8"
      },
      "to": "0x2927CD65394568Daa1A93bF8e9cf2D956e1020cb",
      "value": {
        "_hex": "0x23ffff07cc87c980"
      },
      "nonce": 616,
      "data": "0x",
      "r": "0xf21548515bd60d6c736df6ed3c8f34a2069fc52821f4a9fef06dfd00dc72d457",
      "s": "0x01f86e8a157748af9b7a14652ccefb32c05e74a4c7c822f0fd9c1c4478ed3293",
      "v": 27,
      "creates": null,
      "raw": "0xf86e820268850ba43b74008261a8942927cd65394568daa1a93bf8e9cf2d956e1020cb8823ffff07cc87c980801ba0f21548515bd60d6c736df6ed3c8f34a2069fc52821f4a9fef06dfd00dc72d457a001f86e8a157748af9b7a14652ccefb32c05e74a4c7c822f0fd9c1c4478ed3293",
      "networkId": 0,
      "chainId": 0
    },
    {
      "hash": "0x42ae7b653fe373b38d5b64b3d4d194eab8f65663ee12fa1393ec7b4ae87b1ea5",
      "blockHash": "0x63533ddbdf6218a64249c9339df62e4ad8f8705f5b4bd2d846bd8bf11f1f3be5",
      "blockNumber": 119420,
      "transactionIndex": 6,
      "confirmations": null,
      "from": "0x52bc44d5378309EE2abF1539BF71dE1b7d7bE3b5",
      "gasPrice": {
        "_hex": "0xba43b7400"
      },
      "gasLimit": {
        "_hex": "0x61a8"
      },
      "to": "0x6fb7e5bd54d498e1160De4f9e1B23C7bE6b09430",
      "value": {
        "_hex": "0x4fcc05355f90a00"
      },
      "nonce": 617,
      "data": "0x",
      "r": "0x1d62b90d9ac041c43b87a0662355ac89f680de20abaf9dd050b049465a5d50e4",
      "s": "0x3a5a485093f9858b368898dd75f088b69dff0cede64f540cc875729cfce7d76a",
      "v": 27,
      "creates": null,
      "raw": "0xf86e820269850ba43b74008261a8946fb7e5bd54d498e1160de4f9e1b23c7be6b094308804fcc05355f90a00801ba01d62b90d9ac041c43b87a0662355ac89f680de20abaf9dd050b049465a5d50e4a03a5a485093f9858b368898dd75f088b69dff0cede64f540cc875729cfce7d76a",
      "networkId": 0,
      "chainId": 0
    },
    {
      "hash": "0x2b8cb935acec238bfa324d3d855ec4e43d7ce2d6ee54160bc019e8f147382472",
      "blockHash": "0x63533ddbdf6218a64249c9339df62e4ad8f8705f5b4bd2d846bd8bf11f1f3be5",
      "blockNumber": 119420,
      "transactionIndex": 7,
      "confirmations": null,
      "from": "0x52bc44d5378309EE2abF1539BF71dE1b7d7bE3b5",
      "gasPrice": {
        "_hex": "0xba43b7400"
      },
      "gasLimit": {
        "_hex": "0x61a8"
      },
      "to": "0x2B5EBAe239Cb2f35A0974065E6C43A680ABb4bbe",
      "value": {
        "_hex": "0x49f9404aeac1800"
      },
      "nonce": 618,
      "data": "0x",
      "r": "0x5c51d5e7263ce416aa98d516afac759fe3cc9f6f698eef0ff157af3ac4fa3ef8",
      "s": "0x59b482789f9c8e9ca2be46e0b10f789403e2872b18b82c03cea8dcc23124d550",
      "v": 28,
      "creates": null,
      "raw": "0xf86e82026a850ba43b74008261a8942b5ebae239cb2f35a0974065e6c43a680abb4bbe88049f9404aeac1800801ca05c51d5e7263ce416aa98d516afac759fe3cc9f6f698eef0ff157af3ac4fa3ef8a059b482789f9c8e9ca2be46e0b10f789403e2872b18b82c03cea8dcc23124d550",
      "networkId": 0,
      "chainId": 0
    },
    {
      "hash": "0x66df6b63dfa253e1d9113aa5621b8449853eb2da6f2629853bd975c914529681",
      "blockHash": "0x63533ddbdf6218a64249c9339df62e4ad8f8705f5b4bd2d846bd8bf11f1f3be5",
      "blockNumber": 119420,
      "transactionIndex": 8,
      "confirmations": null,
      "from": "0x52bc44d5378309EE2abF1539BF71dE1b7d7bE3b5",
      "gasPrice": {
        "_hex": "0xba43b7400"
      },
      "gasLimit": {
        "_hex": "0x61a8"
      },
      "to": "0x1F9b145fdaeF2B82Aef29c2f3C9B875a8B017512",
      "value": {
        "_hex": "0xc3cb0a8a5f3fec0"
      },
      "nonce": 619,
      "data": "0x",
      "r": "0xcf10a1e966877aee14a8158e22f0f529ef64aefc9e25e181e0c73126d725b7b8",
      "s": "0x73d3798897c26ccc9499ccb9df5ad3bd4317432e428f480fc093eec3ee5f8952",
      "v": 28,
      "creates": null,
      "raw": "0xf86e82026b850ba43b74008261a8941f9b145fdaef2b82aef29c2f3c9b875a8b017512880c3cb0a8a5f3fec0801ca0cf10a1e966877aee14a8158e22f0f529ef64aefc9e25e181e0c73126d725b7b8a073d3798897c26ccc9499ccb9df5ad3bd4317432e428f480fc093eec3ee5f8952",
      "networkId": 0,
      "chainId": 0
    },
    {
      "hash": "0x2b442cbdeebcf54469bc57deeac143a93de94323914e17ecc1b9a17e4228ecd0",
      "blockHash": "0x63533ddbdf6218a64249c9339df62e4ad8f8705f5b4bd2d846bd8bf11f1f3be5",
      "blockNumber": 119420,
      "transactionIndex": 9,
      "confirmations": null,
      "from": "0x52bc44d5378309EE2abF1539BF71dE1b7d7bE3b5",
      "gasPrice": {
        "_hex": "0xba43b7400"
      },
      "gasLimit": {
        "_hex": "0x61a8"
      },
      "to": "0x8ec45F94832F5Ff2e92Bf2237B921526B5b15D0F",
      "value": {
        "_hex": "0x1bbda50eb5c3c700"
      },
      "nonce": 620,
      "data": "0x",
      "r": "0x6844a44d845d1d7053526d070a768cb858431bc02c583445ac3b5a9622169199",
      "s": "0x670e2590b9aa7f209d8bfce43b4c89e5475fc2f5c5755842f4620166a7448208",
      "v": 27,
      "creates": null,
      "raw": "0xf86e82026c850ba43b74008261a8948ec45f94832f5ff2e92bf2237b921526b5b15d0f881bbda50eb5c3c700801ba06844a44d845d1d7053526d070a768cb858431bc02c583445ac3b5a9622169199a0670e2590b9aa7f209d8bfce43b4c89e5475fc2f5c5755842f4620166a7448208",
      "networkId": 0,
      "chainId": 0
    },
    {
      "hash": "0xa83c56b5e9060db6c96f7e9a3b5b38eea3a43f479c8e95a3b525ebc03d447730",
      "blockHash": "0x63533ddbdf6218a64249c9339df62e4ad8f8705f5b4bd2d846bd8bf11f1f3be5",
      "blockNumber": 119420,
      "transactionIndex": 10,
      "confirmations": null,
      "from": "0x52bc44d5378309EE2abF1539BF71dE1b7d7bE3b5",
      "gasPrice": {
        "_hex": "0xba43b7400"
      },
      "gasLimit": {
        "_hex": "0x61a8"
      },
      "to": "0x351Fb77bc847F9b5bb8A8F242AB723C5B7d775b8",
      "value": {
        "_hex": "0x261c65cd68cb1280"
      },
      "nonce": 621,
      "data": "0x",
      "r": "0x0201b2cb0ca496fad6fdf53c0ba6ec2451f9d2c4667bfc3a08ce6379097cd405",
      "s": "0x61cb3cbfb4961a4d94f0efe7ad81e35bf0bea771cb388d1eec85a8a5232bd85a",
      "v": 27,
      "creates": null,
      "raw": "0xf86e82026d850ba43b74008261a894351fb77bc847f9b5bb8a8f242ab723c5b7d775b888261c65cd68cb1280801ba00201b2cb0ca496fad6fdf53c0ba6ec2451f9d2c4667bfc3a08ce6379097cd405a061cb3cbfb4961a4d94f0efe7ad81e35bf0bea771cb388d1eec85a8a5232bd85a",
      "networkId": 0,
      "chainId": 0
    },
    {
      "hash": "0xd21800e3a9ee144dc80395f65a23b65250f27935c68ff9029e389c78418aeb32",
      "blockHash": "0x63533ddbdf6218a64249c9339df62e4ad8f8705f5b4bd2d846bd8bf11f1f3be5",
      "blockNumber": 119420,
      "transactionIndex": 11,
      "confirmations": null,
      "from": "0x52bc44d5378309EE2abF1539BF71dE1b7d7bE3b5",
      "gasPrice": {
        "_hex": "0xba43b7400"
      },
      "gasLimit": {
        "_hex": "0x61a8"
      },
      "to": "0xd889AD6932A592D0506FE12B0Fb098bCB1806614",
      "value": {
        "_hex": "0x235a128df801e80"
      },
      "nonce": 622,
      "data": "0x",
      "r": "0xab0b584f0ba146d6979ed1ea2647e3dcdaf7c3e82c50d9bc2d275239ed1703b8",
      "s": "0x74ec06f7b2cf2048693d9744231ab52e4db7716a753744111656368fa10872ea",
      "v": 28,
      "creates": null,
      "raw": "0xf86e82026e850ba43b74008261a894d889ad6932a592d0506fe12b0fb098bcb1806614880235a128df801e80801ca0ab0b584f0ba146d6979ed1ea2647e3dcdaf7c3e82c50d9bc2d275239ed1703b8a074ec06f7b2cf2048693d9744231ab52e4db7716a753744111656368fa10872ea",
      "networkId": 0,
      "chainId": 0
    },
    {
      "hash": "0x6d15797f99a423f54627b9a49cf79f777e5b90ffaefe7351e2078115d1cdbdce",
      "blockHash": "0x63533ddbdf6218a64249c9339df62e4ad8f8705f5b4bd2d846bd8bf11f1f3be5",
      "blockNumber": 119420,
      "transactionIndex": 12,
      "confirmations": null,
      "from": "0x52bc44d5378309EE2abF1539BF71dE1b7d7bE3b5",
      "gasPrice": {
        "_hex": "0xba43b7400"
      },
      "gasLimit": {
        "_hex": "0x61a8"
      },
      "to": "0xcADb3A23dEEEBcA07b40eC5722960CeDb1cfC8B2",
      "value": {
        "_hex": "0x1aa547e89b9b100"
      },
      "nonce": 623,
      "data": "0x",
      "r": "0x11e3204aff23eca445e320a924f03251104e529025a1f2143bf9d4ca033f411a",
      "s": "0x25c5da55a1139b53f0a5835345fff31320af1d9dbd5d7467913af6ece545f20d",
      "v": 28,
      "creates": null,
      "raw": "0xf86e82026f850ba43b74008261a894cadb3a23deeebca07b40ec5722960cedb1cfc8b28801aa547e89b9b100801ca011e3204aff23eca445e320a924f03251104e529025a1f2143bf9d4ca033f411aa025c5da55a1139b53f0a5835345fff31320af1d9dbd5d7467913af6ece545f20d",
      "networkId": 0,
      "chainId": 0
    },
    {
      "hash": "0xa84833ae4599f2e9ccc7da0698413870bc43ede71256d2e5df933b17408b3752",
      "blockHash": "0x63533ddbdf6218a64249c9339df62e4ad8f8705f5b4bd2d846bd8bf11f1f3be5",
      "blockNumber": 119420,
      "transactionIndex": 13,
      "confirmations": null,
      "from": "0x52bc44d5378309EE2abF1539BF71dE1b7d7bE3b5",
      "gasPrice": {
        "_hex": "0xba43b7400"
      },
      "gasLimit": {
        "_hex": "0x61a8"
      },
      "to": "0xB5ebc1ED9a468C33fceC311Cf6AAb5d07774F0ea",
      "value": {
        "_hex": "0x23872f4a7aef3a00"
      },
      "nonce": 624,
      "data": "0x",
      "r": "0xfc49d68be8159a0ca43f3296b78e275ae235de21a689ebec6c26734e80676f04",
      "s": "0x27808d86d60f54cfbad646415f17b39d89aed7c4fb2c1ec84b1bbbfa702783a3",
      "v": 27,
      "creates": null,
      "raw": "0xf86e820270850ba43b74008261a894b5ebc1ed9a468c33fcec311cf6aab5d07774f0ea8823872f4a7aef3a00801ba0fc49d68be8159a0ca43f3296b78e275ae235de21a689ebec6c26734e80676f04a027808d86d60f54cfbad646415f17b39d89aed7c4fb2c1ec84b1bbbfa702783a3",
      "networkId": 0,
      "chainId": 0
    },
    {
      "hash": "0x21846900a4570fddf3080ad510fe6803ac144439f705d78373631f8696b65e05",
      "blockHash": "0x63533ddbdf6218a64249c9339df62e4ad8f8705f5b4bd2d846bd8bf11f1f3be5",
      "blockNumber": 119420,
      "transactionIndex": 14,
      "confirmations": null,
      "from": "0x52bc44d5378309EE2abF1539BF71dE1b7d7bE3b5",
      "gasPrice": {
        "_hex": "0xba43b7400"
      },
      "gasLimit": {
        "_hex": "0x61a8"
      },
      "to": "0xaCb9c496aBFE89226f616a2e125576a36BB4c13a",
      "value": {
        "_hex": "0xb0065645dad9800"
      },
      "nonce": 625,
      "data": "0x",
      "r": "0xc6663db304239a62b3d9a5c69e1c1cbf91fb8a0aa301cd8cbf25ed723399c278",
      "s": "0x21994f4616a296f783f9be2821c1a0515a6afd3d2b9340eb745f32356f290a72",
      "v": 28,
      "creates": null,
      "raw": "0xf86e820271850ba43b74008261a894acb9c496abfe89226f616a2e125576a36bb4c13a880b0065645dad9800801ca0c6663db304239a62b3d9a5c69e1c1cbf91fb8a0aa301cd8cbf25ed723399c278a021994f4616a296f783f9be2821c1a0515a6afd3d2b9340eb745f32356f290a72",
      "networkId": 0,
      "chainId": 0
    },
    {
      "hash": "0x3cceaa1df5c2f7a509ad774bfffd09aa675e7e9d93eec78499546ac209d069d4",
      "blockHash": "0x63533ddbdf6218a64249c9339df62e4ad8f8705f5b4bd2d846bd8bf11f1f3be5",
      "blockNumber": 119420,
      "transactionIndex": 15,
      "confirmations": null,
      "from": "0x52bc44d5378309EE2abF1539BF71dE1b7d7bE3b5",
      "gasPrice": {
        "_hex": "0xba43b7400"
      },
      "gasLimit": {
        "_hex": "0x61a8"
      },
      "to": "0x05446DE6a0963cdEB92cF8893A6D985636f88d63",
      "value": {
        "_hex": "0x34c8a69781a91c00"
      },
      "nonce": 626,
      "data": "0x",
      "r": "0x347f6f5022a6215b62ba77611ab3c5b2a729faa9385e635cd144f52f4db6d847",
      "s": "0x3006e2faa4f0c3f6c38642e98d55b89ad104f98c280b2c771147ed6d15f541ca",
      "v": 28,
      "creates": null,
      "raw": "0xf86e820272850ba43b74008261a89405446de6a0963cdeb92cf8893a6d985636f88d638834c8a69781a91c00801ca0347f6f5022a6215b62ba77611ab3c5b2a729faa9385e635cd144f52f4db6d847a03006e2faa4f0c3f6c38642e98d55b89ad104f98c280b2c771147ed6d15f541ca",
      "networkId": 0,
      "chainId": 0
    },
    {
      "hash": "0x0587d3af639ee4fbc21ccf3bdd612101440f93a17b90a0dcdd34edd8921e719d",
      "blockHash": "0x63533ddbdf6218a64249c9339df62e4ad8f8705f5b4bd2d846bd8bf11f1f3be5",
      "blockNumber": 119420,
      "transactionIndex": 16,
      "confirmations": null,
      "from": "0x52bc44d5378309EE2abF1539BF71dE1b7d7bE3b5",
      "gasPrice": {
        "_hex": "0xba43b7400"
      },
      "gasLimit": {
        "_hex": "0x61a8"
      },
      "to": "0x7e8504a5e26df87f6D26fA1ba148BE146F42775A",
      "value": {
        "_hex": "0x6a8586318291ef400"
      },
      "nonce": 627,
      "data": "0x",
      "r": "0x8e381e571fa77ea24071e42de3d8687a5a126b2bbc6b0f85af58b015386d11e2",
      "s": "0x21f39cfcc403691f55f11131c8b65b662f4b65e283573f99683654bbc6f6d134",
      "v": 28,
      "creates": null,
      "raw": "0xf86f820273850ba43b74008261a8947e8504a5e26df87f6d26fa1ba148be146f42775a8906a8586318291ef400801ca08e381e571fa77ea24071e42de3d8687a5a126b2bbc6b0f85af58b015386d11e2a021f39cfcc403691f55f11131c8b65b662f4b65e283573f99683654bbc6f6d134",
      "networkId": 0,
      "chainId": 0
    },
    {
      "hash": "0xb1c00f33d59aec52c442ef7fc916b72811e31a842e543bd814b4256932fd2724",
      "blockHash": "0x63533ddbdf6218a64249c9339df62e4ad8f8705f5b4bd2d846bd8bf11f1f3be5",
      "blockNumber": 119420,
      "transactionIndex": 17,
      "confirmations": null,
      "from": "0x52bc44d5378309EE2abF1539BF71dE1b7d7bE3b5",
      "gasPrice": {
        "_hex": "0xba43b7400"
      },
      "gasLimit": {
        "_hex": "0x61a8"
      },
      "to": "0x8CdC27BF95732811eBD9b0a9e7E957A30C4582Ac",
      "value": {
        "_hex": "0x28bbf93bb3fb7d00"
      },
      "nonce": 628,
      "data": "0x",
      "r": "0x7b241280bf1ae54cca72ddec8af10004c70ed90efa38792c74b821989d76316e",
      "s": "0x4bfca91a6bf2e1331d852d5d02e46c110234fc290e0a77479d47b89e88953859",
      "v": 28,
      "creates": null,
      "raw": "0xf86e820274850ba43b74008261a8948cdc27bf95732811ebd9b0a9e7e957a30c4582ac8828bbf93bb3fb7d00801ca07b241280bf1ae54cca72ddec8af10004c70ed90efa38792c74b821989d76316ea04bfca91a6bf2e1331d852d5d02e46c110234fc290e0a77479d47b89e88953859",
      "networkId": 0,
      "chainId": 0
    },
    {
      "hash": "0xdcbe0b447fb58b994d5951d41625962540b1d6c73e81548d3f158cbde8091e18",
      "blockHash": "0x63533ddbdf6218a64249c9339df62e4ad8f8705f5b4bd2d846bd8bf11f1f3be5",
      "blockNumber": 119420,
      "transactionIndex": 18,
      "confirmations": null,
      "from": "0x52bc44d5378309EE2abF1539BF71dE1b7d7bE3b5",
      "gasPrice": {
        "_hex": "0xba43b7400"
      },
      "gasLimit": {
        "_hex": "0x61a8"
      },
      "to": "0x6a9EfeB214aa03a8Cc69E201eF31210656D75882",
      "value": {
        "_hex": "0x942617c79e2cb40"
      },
      "nonce": 629,
      "data": "0x",
      "r": "0x0f6cde609bf17dc73779d114d1c3b36e425d0303473ba37ed78b005f404af430",
      "s": "0x25a7545eb99e357a1c41ee15ce231ed9bbb84c6b14c5f33cf945545aedc87683",
      "v": 28,
      "creates": null,
      "raw": "0xf86e820275850ba43b74008261a8946a9efeb214aa03a8cc69e201ef31210656d75882880942617c79e2cb40801ca00f6cde609bf17dc73779d114d1c3b36e425d0303473ba37ed78b005f404af430a025a7545eb99e357a1c41ee15ce231ed9bbb84c6b14c5f33cf945545aedc87683",
      "networkId": 0,
      "chainId": 0
    },
    {
      "hash": "0xaa664c057661013566d810671bd1ed1d299e43b11135f95887da7362a23e16fc",
      "blockHash": "0x63533ddbdf6218a64249c9339df62e4ad8f8705f5b4bd2d846bd8bf11f1f3be5",
      "blockNumber": 119420,
      "transactionIndex": 19,
      "confirmations": null,
      "from": "0x52bc44d5378309EE2abF1539BF71dE1b7d7bE3b5",
      "gasPrice": {
        "_hex": "0xba43b7400"
      },
      "gasLimit": {
        "_hex": "0x61a8"
      },
      "to": "0x04a2a3ee9C9ea82e1F918ecE209f8A7E6d7521E7",
      "value": {
        "_hex": "0x4be56c8641ff4000"
      },
      "nonce": 630,
      "data": "0x",
      "r": "0xdd85c7ffc99a048592592abbab9bb89dd52d6c88ae0c0b590baff9b3e726be34",
      "s": "0x1d6b3d386a871001c81f67415822f3fe2a0e860e630b1bf52eb67e5ab008f378",
      "v": 27,
      "creates": null,
      "raw": "0xf86e820276850ba43b74008261a89404a2a3ee9c9ea82e1f918ece209f8a7e6d7521e7884be56c8641ff4000801ba0dd85c7ffc99a048592592abbab9bb89dd52d6c88ae0c0b590baff9b3e726be34a01d6b3d386a871001c81f67415822f3fe2a0e860e630b1bf52eb67e5ab008f378",
      "networkId": 0,
      "chainId": 0
    },
    {
      "hash": "0x111b22e9b2de736c3579d99d773d51dfc82c9b1da8f295c6603661c09774b164",
      "blockHash": "0x63533ddbdf6218a64249c9339df62e4ad8f8705f5b4bd2d846bd8bf11f1f3be5",
      "blockNumber": 119420,
      "transactionIndex": 20,
      "confirmations": null,
      "from": "0x52bc44d5378309EE2abF1539BF71dE1b7d7bE3b5",
      "gasPrice": {
        "_hex": "0xba43b7400"
      },
      "gasLimit": {
        "_hex": "0x61a8"
      },
      "to": "0x0BD4cde622A0c41f9C81a3b3fab5a5bDCAd21528",
      "value": {
        "_hex": "0x18d67f39fe243500"
      },
      "nonce": 631,
      "data": "0x",
      "r": "0x1da261e63ad4eda551b2dd3aaeb872e7a578280c2e170a389c851d243718bd85",
      "s": "0x79bb7b893b1e0e2277754301a9c0107295f9ad83fb073100660c223e9e03ef11",
      "v": 28,
      "creates": null,
      "raw": "0xf86e820277850ba43b74008261a8940bd4cde622a0c41f9c81a3b3fab5a5bdcad215288818d67f39fe243500801ca01da261e63ad4eda551b2dd3aaeb872e7a578280c2e170a389c851d243718bd85a079bb7b893b1e0e2277754301a9c0107295f9ad83fb073100660c223e9e03ef11",
      "networkId": 0,
      "chainId": 0
    },
    {
      "hash": "0x26c6d7fb6f1fe0be1e0cbe74c290b18cceda1797f140c568ceb301d26f033d8c",
      "blockHash": "0x63533ddbdf6218a64249c9339df62e4ad8f8705f5b4bd2d846bd8bf11f1f3be5",
      "blockNumber": 119420,
      "transactionIndex": 21,
      "confirmations": null,
      "from": "0x52bc44d5378309EE2abF1539BF71dE1b7d7bE3b5",
      "gasPrice": {
        "_hex": "0xba43b7400"
      },
      "gasLimit": {
        "_hex": "0x61a8"
      },
      "to": "0x6934e4839d59dEa0583b03643eCb8c10d6B150fc",
      "value": {
        "_hex": "0x221e0286f5962300"
      },
      "nonce": 632,
      "data": "0x",
      "r": "0x88eec4bfc0619fd16c6d847e9156eb4ceac4d641864c7b6023c0d0348cd7c830",
      "s": "0x4d5ceb107f5e678ce01311b3debd5ea554dcd4c17ed46c9e38122ebecf13b1e2",
      "v": 28,
      "creates": null,
      "raw": "0xf86e820278850ba43b74008261a8946934e4839d59dea0583b03643ecb8c10d6b150fc88221e0286f5962300801ca088eec4bfc0619fd16c6d847e9156eb4ceac4d641864c7b6023c0d0348cd7c830a04d5ceb107f5e678ce01311b3debd5ea554dcd4c17ed46c9e38122ebecf13b1e2",
      "networkId": 0,
      "chainId": 0
    },
    {
      "hash": "0xf57bda76ecc02540b871cb779e9b7cb5a1390213c0ba83dd2d4524738590661f",
      "blockHash": "0x63533ddbdf6218a64249c9339df62e4ad8f8705f5b4bd2d846bd8bf11f1f3be5",
      "blockNumber": 119420,
      "transactionIndex": 22,
      "confirmations": null,
      "from": "0x52bc44d5378309EE2abF1539BF71dE1b7d7bE3b5",
      "gasPrice": {
        "_hex": "0xba43b7400"
      },
      "gasLimit": {
        "_hex": "0x61a8"
      },
      "to": "0xc3a54b95AEc42EBAEE1b351B4B89c1a0B9759Bb8",
      "value": {
        "_hex": "0x3488fb433d9d4700"
      },
      "nonce": 633,
      "data": "0x",
      "r": "0x84d148640f0f4800ada25d494a5ed6002df9a9fc7c05ff7d3b814fbab0fae4f3",
      "s": "0x4935d89c45c569dd3bef18c55ab575dbc62e5e4b778fba31d588dea8936e3600",
      "v": 27,
      "creates": null,
      "raw": "0xf86e820279850ba43b74008261a894c3a54b95aec42ebaee1b351b4b89c1a0b9759bb8883488fb433d9d4700801ba084d148640f0f4800ada25d494a5ed6002df9a9fc7c05ff7d3b814fbab0fae4f3a04935d89c45c569dd3bef18c55ab575dbc62e5e4b778fba31d588dea8936e3600",
      "networkId": 0,
      "chainId": 0
    },
    {
      "hash": "0xf026981e1ecfb8aa0f96ef3cb940ca08922133abd833a4fcf04c2b6b4b2014ee",
      "blockHash": "0x63533ddbdf6218a64249c9339df62e4ad8f8705f5b4bd2d846bd8bf11f1f3be5",
      "blockNumber": 119420,
      "transactionIndex": 23,
      "confirmations": null,
      "from": "0x52bc44d5378309EE2abF1539BF71dE1b7d7bE3b5",
      "gasPrice": {
        "_hex": "0xba43b7400"
      },
      "gasLimit": {
        "_hex": "0x61a8"
      },
      "to": "0x1e5aFb16ea5C3C50f0E759f08d0f07457482d8C6",
      "value": {
        "_hex": "0x10d56cddac451f00"
      },
      "nonce": 634,
      "data": "0x",
      "r": "0xf554d37177b3369447b2e905027fa686614de80b5f3edf5ff5783b5649f0c61a",
      "s": "0x1fce8a42feed2e80f8631bd573188e3a3ef0eed6d553ed143aefaade85a06870",
      "v": 27,
      "creates": null,
      "raw": "0xf86e82027a850ba43b74008261a8941e5afb16ea5c3c50f0e759f08d0f07457482d8c68810d56cddac451f00801ba0f554d37177b3369447b2e905027fa686614de80b5f3edf5ff5783b5649f0c61aa01fce8a42feed2e80f8631bd573188e3a3ef0eed6d553ed143aefaade85a06870",
      "networkId": 0,
      "chainId": 0
    },
    {
      "hash": "0xb6b6d2cea70588f7a9ea97335985600c7a702957a041d93695d01de87053ee6f",
      "blockHash": "0x63533ddbdf6218a64249c9339df62e4ad8f8705f5b4bd2d846bd8bf11f1f3be5",
      "blockNumber": 119420,
      "transactionIndex": 24,
      "confirmations": null,
      "from": "0x52bc44d5378309EE2abF1539BF71dE1b7d7bE3b5",
      "gasPrice": {
        "_hex": "0xba43b7400"
      },
      "gasLimit": {
        "_hex": "0x61a8"
      },
      "to": "0x2d11763B4999FB3b61Ca8d19C8C77a743079f7bd",
      "value": {
        "_hex": "0x2e3acdb0d2c5800"
      },
      "nonce": 635,
      "data": "0x",
      "r": "0x02490cc1a41dc64a752d5e3cec14a8d87b4406aa30c8e098e6eeedc40e1224f0",
      "s": "0x14d9e6d0b6dbd0b513d81689165a01a511d9f2cf05f5897f929efc7442051ca3",
      "v": 28,
      "creates": null,
      "raw": "0xf86e82027b850ba43b74008261a8942d11763b4999fb3b61ca8d19c8c77a743079f7bd8802e3acdb0d2c5800801ca002490cc1a41dc64a752d5e3cec14a8d87b4406aa30c8e098e6eeedc40e1224f0a014d9e6d0b6dbd0b513d81689165a01a511d9f2cf05f5897f929efc7442051ca3",
      "networkId": 0,
      "chainId": 0
    },
    {
      "hash": "0xb9cbf301a2308cb3deb484e46a48bbbb513ab0ceb306e7bdd4d3137b5d52616c",
      "blockHash": "0x63533ddbdf6218a64249c9339df62e4ad8f8705f5b4bd2d846bd8bf11f1f3be5",
      "blockNumber": 119420,
      "transactionIndex": 25,
      "confirmations": null,
      "from": "0x52bc44d5378309EE2abF1539BF71dE1b7d7bE3b5",
      "gasPrice": {
        "_hex": "0xba43b7400"
      },
      "gasLimit": {
        "_hex": "0x61a8"
      },
      "to": "0x94b20d3d932AA82aD71b86b904A3D769689351b4",
      "value": {
        "_hex": "0xd718b9df0a775400"
      },
      "nonce": 636,
      "data": "0x",
      "r": "0xd3b758d88790ee34ce4a8fe31e43ce4e80b4a04da393ee4773bbb882def76429",
      "s": "0x1931c2283a2b8698f0115c74aa9dcbbc2b05357a8cc62352ff7f15892ec1f747",
      "v": 27,
      "creates": null,
      "raw": "0xf86e82027c850ba43b74008261a89494b20d3d932aa82ad71b86b904a3d769689351b488d718b9df0a775400801ba0d3b758d88790ee34ce4a8fe31e43ce4e80b4a04da393ee4773bbb882def76429a01931c2283a2b8698f0115c74aa9dcbbc2b05357a8cc62352ff7f15892ec1f747",
      "networkId": 0,
      "chainId": 0
    },
    {
      "hash": "0x87c749213f18e21add9b5bda9a04fc5ff9c6e93f517a40001bbd5c33ef09cfb7",
      "blockHash": "0x63533ddbdf6218a64249c9339df62e4ad8f8705f5b4bd2d846bd8bf11f1f3be5",
      "blockNumber": 119420,
      "transactionIndex": 26,
      "confirmations": null,
      "from": "0x52bc44d5378309EE2abF1539BF71dE1b7d7bE3b5",
      "gasPrice": {
        "_hex": "0xba43b7400"
      },
      "gasLimit": {
        "_hex": "0x61a8"
      },
      "to": "0xe12EA2FFD485856A2F7cfC8Ce5D372897D9ab454",
      "value": {
        "_hex": "0x1026c201ad4b4900"
      },
      "nonce": 637,
      "data": "0x",
      "r": "0x4e42e48e03e01fd0f1d827d4654880846f6be7814a16a3d822c6f3b1a851661e",
      "s": "0x5da156a6de4140fa0540505e171bf0261c737bceb86ccc167cf5e2c3e6dbbe6b",
      "v": 28,
      "creates": null,
      "raw": "0xf86e82027d850ba43b74008261a894e12ea2ffd485856a2f7cfc8ce5d372897d9ab454881026c201ad4b4900801ca04e42e48e03e01fd0f1d827d4654880846f6be7814a16a3d822c6f3b1a851661ea05da156a6de4140fa0540505e171bf0261c737bceb86ccc167cf5e2c3e6dbbe6b",
      "networkId": 0,
      "chainId": 0
    },
    {
      "hash": "0x7504eed62cac8e2c2565c7f5a387aaa4c764dddab58142cdb87403923c09389d",
      "blockHash": "0x63533ddbdf6218a64249c9339df62e4ad8f8705f5b4bd2d846bd8bf11f1f3be5",
      "blockNumber": 119420,
      "transactionIndex": 27,
      "confirmations": null,
      "from": "0x52bc44d5378309EE2abF1539BF71dE1b7d7bE3b5",
      "gasPrice": {
        "_hex": "0xba43b7400"
      },
      "gasLimit": {
        "_hex": "0x61a8"
      },
      "to": "0x7D8f437a7e9930D9116EdaF3102AD77995a0082f",
      "value": {
        "_hex": "0x6208d21c74bbb980"
      },
      "nonce": 638,
      "data": "0x",
      "r": "0x308f424030e6bb159f73471229735f744e5cce4df01f34217f3e953a5752e27e",
      "s": "0x40df0d65c641e45df3b62fbddda0f60b59830a569305279fee1bac40d18aa430",
      "v": 28,
      "creates": null,
      "raw": "0xf86e82027e850ba43b74008261a8947d8f437a7e9930d9116edaf3102ad77995a0082f886208d21c74bbb980801ca0308f424030e6bb159f73471229735f744e5cce4df01f34217f3e953a5752e27ea040df0d65c641e45df3b62fbddda0f60b59830a569305279fee1bac40d18aa430",
      "networkId": 0,
      "chainId": 0
    },
    {
      "hash": "0x7cd8019e805c91c659702a9660b724aaf55e96bd7300e3a126b4ea03d8c4b4d9",
      "blockHash": "0x63533ddbdf6218a64249c9339df62e4ad8f8705f5b4bd2d846bd8bf11f1f3be5",
      "blockNumber": 119420,
      "transactionIndex": 28,
      "confirmations": null,
      "from": "0x52bc44d5378309EE2abF1539BF71dE1b7d7bE3b5",
      "gasPrice": {
        "_hex": "0xba43b7400"
      },
      "gasLimit": {
        "_hex": "0x61a8"
      },
      "to": "0x8070ce7066c8a6c28BaCCD6A8C8731e62fdeB923",
      "value": {
        "_hex": "0x3d0c93896fb3f80"
      },
      "nonce": 639,
      "data": "0x",
      "r": "0x71533e8205332bb953bea5be3950ac68e30ff83c513cd9deb9708531d405da06",
      "s": "0x70863fbe966dc67c6dd017bc158c389343406a8f749af519d0e497c16ad12ed5",
      "v": 28,
      "creates": null,
      "raw": "0xf86e82027f850ba43b74008261a8948070ce7066c8a6c28baccd6a8c8731e62fdeb9238803d0c93896fb3f80801ca071533e8205332bb953bea5be3950ac68e30ff83c513cd9deb9708531d405da06a070863fbe966dc67c6dd017bc158c389343406a8f749af519d0e497c16ad12ed5",
      "networkId": 0,
      "chainId": 0
    },
    {
      "hash": "0x3891a5b56693f587d525992afa009aba5a350545fd450c6d094af058c80118fc",
      "blockHash": "0x63533ddbdf6218a64249c9339df62e4ad8f8705f5b4bd2d846bd8bf11f1f3be5",
      "blockNumber": 119420,
      "transactionIndex": 29,
      "confirmations": null,
      "from": "0x52bc44d5378309EE2abF1539BF71dE1b7d7bE3b5",
      "gasPrice": {
        "_hex": "0xba43b7400"
      },
      "gasLimit": {
        "_hex": "0x61a8"
      },
      "to": "0x683FEDdafc2A8542744a4587DE0C45626D7B8E68",
      "value": {
        "_hex": "0x4f3be3f14961b80"
      },
      "nonce": 640,
      "data": "0x",
      "r": "0x2359522f058bc2f51e297f6e312be809351ef03b8be4b3bd9ae7b2b366158d85",
      "s": "0x1c7f34155362ffda5024b5fb29336f2708fa9334cda13a5dfda1b978f4ebb1b7",
      "v": 27,
      "creates": null,
      "raw": "0xf86e820280850ba43b74008261a894683feddafc2a8542744a4587de0c45626d7b8e688804f3be3f14961b80801ba02359522f058bc2f51e297f6e312be809351ef03b8be4b3bd9ae7b2b366158d85a01c7f34155362ffda5024b5fb29336f2708fa9334cda13a5dfda1b978f4ebb1b7",
      "networkId": 0,
      "chainId": 0
    },
    {
      "hash": "0x330c4549fe18220024b82973629f3b995c879f6c2939a7b5c9811052a31d8869",
      "blockHash": "0x63533ddbdf6218a64249c9339df62e4ad8f8705f5b4bd2d846bd8bf11f1f3be5",
      "blockNumber": 119420,
      "transactionIndex": 30,
      "confirmations": null,
      "from": "0x52bc44d5378309EE2abF1539BF71dE1b7d7bE3b5",
      "gasPrice": {
        "_hex": "0xba43b7400"
      },
      "gasLimit": {
        "_hex": "0x61a8"
      },
      "to": "0x4fb3517DB2E2086Fc2dc2c5d32E982Cfa9C4706f",
      "value": {
        "_hex": "0x237bce78a145ec0"
      },
      "nonce": 641,
      "data": "0x",
      "r": "0x4d263455174817c3639f8f31265141f15fe0020adbebf6e7e1fff950efe66730",
      "s": "0x1122e93f87bdea446d1960cd03d47c346a3ad744001bdf928b62b5ec8ca1c178",
      "v": 28,
      "creates": null,
      "raw": "0xf86e820281850ba43b74008261a8944fb3517db2e2086fc2dc2c5d32e982cfa9c4706f880237bce78a145ec0801ca04d263455174817c3639f8f31265141f15fe0020adbebf6e7e1fff950efe66730a01122e93f87bdea446d1960cd03d47c346a3ad744001bdf928b62b5ec8ca1c178",
      "networkId": 0,
      "chainId": 0
    },
    {
      "hash": "0xbe1c3c1a735d114dd19d91a2c88a49110af6113e1972b62ce54049957ab4d232",
      "blockHash": "0x63533ddbdf6218a64249c9339df62e4ad8f8705f5b4bd2d846bd8bf11f1f3be5",
      "blockNumber": 119420,
      "transactionIndex": 31,
      "confirmations": null,
      "from": "0x52bc44d5378309EE2abF1539BF71dE1b7d7bE3b5",
      "gasPrice": {
        "_hex": "0xba43b7400"
      },
      "gasLimit": {
        "_hex": "0x61a8"
      },
      "to": "0x00302daDc13249861Ff7F8280A45B2e1067EE4eB",
      "value": {
        "_hex": "0x175ffdd281a6b300"
      },
      "nonce": 642,
      "data": "0x",
      "r": "0x962df85c2e7b67accf703a3d22da67a22600ea2bcc7178b28081e5675cdd57c3",
      "s": "0x6301a66a832341c050634bf84e6ae3bd5342a18fa31efc879c6d448dce9fa9ab",
      "v": 28,
      "creates": null,
      "raw": "0xf86e820282850ba43b74008261a89400302dadc13249861ff7f8280a45b2e1067ee4eb88175ffdd281a6b300801ca0962df85c2e7b67accf703a3d22da67a22600ea2bcc7178b28081e5675cdd57c3a06301a66a832341c050634bf84e6ae3bd5342a18fa31efc879c6d448dce9fa9ab",
      "networkId": 0,
      "chainId": 0
    },
    {
      "hash": "0x83801a4a54435e05b19690c3824c20ec9a4b1a7ae8d02f504010af33e187ed8f",
      "blockHash": "0x63533ddbdf6218a64249c9339df62e4ad8f8705f5b4bd2d846bd8bf11f1f3be5",
      "blockNumber": 119420,
      "transactionIndex": 32,
      "confirmations": null,
      "from": "0x52bc44d5378309EE2abF1539BF71dE1b7d7bE3b5",
      "gasPrice": {
        "_hex": "0xba43b7400"
      },
      "gasLimit": {
        "_hex": "0x61a8"
      },
      "to": "0x07dC70AF6EA4585E7cC1E88A640eF2bC93CaB3B0",
      "value": {
        "_hex": "0x18e05dcb19706d00"
      },
      "nonce": 643,
      "data": "0x",
      "r": "0xd56101a14bacf7989c2ea53c5191e177a06a4772764c6b2fd0239bb5dcc7e014",
      "s": "0x6473b3b523505f75acb1db26e2cfd85f8f19ba426795fb17f08b67d76a9827b5",
      "v": 27,
      "creates": null,
      "raw": "0xf86e820283850ba43b74008261a89407dc70af6ea4585e7cc1e88a640ef2bc93cab3b08818e05dcb19706d00801ba0d56101a14bacf7989c2ea53c5191e177a06a4772764c6b2fd0239bb5dcc7e014a06473b3b523505f75acb1db26e2cfd85f8f19ba426795fb17f08b67d76a9827b5",
      "networkId": 0,
      "chainId": 0
    },
    {
      "hash": "0x230b271685a38efbb0b140fc64bf896b65e6a6750c170535ab423322a4bf741b",
      "blockHash": "0x63533ddbdf6218a64249c9339df62e4ad8f8705f5b4bd2d846bd8bf11f1f3be5",
      "blockNumber": 119420,
      "transactionIndex": 33,
      "confirmations": null,
      "from": "0x52bc44d5378309EE2abF1539BF71dE1b7d7bE3b5",
      "gasPrice": {
        "_hex": "0xba43b7400"
      },
      "gasLimit": {
        "_hex": "0x61a8"
      },
      "to": "0xB70f652788a24CeB11C0b586677b03679ccaCE6a",
      "value": {
        "_hex": "0x20ccc09a579be980"
      },
      "nonce": 644,
      "data": "0x",
      "r": "0x45d8c0dfa95a202b5089ed71a8ec06b92fead3ddb4a577791f8574d01763d9dd",
      "s": "0x481b82ec1ebede4df6aa6486d859a0ff0f784af573d422fcf1ef344aa38c7508",
      "v": 28,
      "creates": null,
      "raw": "0xf86e820284850ba43b74008261a894b70f652788a24ceb11c0b586677b03679ccace6a8820ccc09a579be980801ca045d8c0dfa95a202b5089ed71a8ec06b92fead3ddb4a577791f8574d01763d9dda0481b82ec1ebede4df6aa6486d859a0ff0f784af573d422fcf1ef344aa38c7508",
      "networkId": 0,
      "chainId": 0
    },
    {
      "hash": "0x5a19a7ea3a9e17a4831d03312d866d828f42ea614b0321f77e0374554013c02f",
      "blockHash": "0x63533ddbdf6218a64249c9339df62e4ad8f8705f5b4bd2d846bd8bf11f1f3be5",
      "blockNumber": 119420,
      "transactionIndex": 34,
      "confirmations": null,
      "from": "0x52bc44d5378309EE2abF1539BF71dE1b7d7bE3b5",
      "gasPrice": {
        "_hex": "0xba43b7400"
      },
      "gasLimit": {
        "_hex": "0x61a8"
      },
      "to": "0x9931d557592df55FcbA2118D54f054309571C5Db",
      "value": {
        "_hex": "0x66197e802b31980"
      },
      "nonce": 645,
      "data": "0x",
      "r": "0x3bc2b054200752789455693f5d26f850a69d55218e7dc13d3e046d4e455c27ed",
      "s": "0x6fbc662ed830ed479720cc56009fe6f1959662335647421eb9816b673a929ec5",
      "v": 28,
      "creates": null,
      "raw": "0xf86e820285850ba43b74008261a8949931d557592df55fcba2118d54f054309571c5db88066197e802b31980801ca03bc2b054200752789455693f5d26f850a69d55218e7dc13d3e046d4e455c27eda06fbc662ed830ed479720cc56009fe6f1959662335647421eb9816b673a929ec5",
      "networkId": 0,
      "chainId": 0
    },
    {
      "hash": "0xc7102ac048c27a545fb2617b22dc8eaa8c17b3766ed2bd1ce23a2945379a1b4c",
      "blockHash": "0x63533ddbdf6218a64249c9339df62e4ad8f8705f5b4bd2d846bd8bf11f1f3be5",
      "blockNumber": 119420,
      "transactionIndex": 35,
      "confirmations": null,
      "from": "0x52bc44d5378309EE2abF1539BF71dE1b7d7bE3b5",
      "gasPrice": {
        "_hex": "0xba43b7400"
      },
      "gasLimit": {
        "_hex": "0x61a8"
      },
      "to": "0x61E20833179bA2eCCc2065e5F733CC8CdA7394c0",
      "value": {
        "_hex": "0x105a1fef5c7ac300"
      },
      "nonce": 646,
      "data": "0x",
      "r": "0xa27b88f28df6aa38789803743c37d0f62537ffe8fa1dfd8430228cf5dc46afce",
      "s": "0x0bba59899d3b2ec0fe122e97efb0ddef081ca2ce83343159cfb94e344902aa0c",
      "v": 27,
      "creates": null,
      "raw": "0xf86e820286850ba43b74008261a89461e20833179ba2eccc2065e5f733cc8cda7394c088105a1fef5c7ac300801ba0a27b88f28df6aa38789803743c37d0f62537ffe8fa1dfd8430228cf5dc46afcea00bba59899d3b2ec0fe122e97efb0ddef081ca2ce83343159cfb94e344902aa0c",
      "networkId": 0,
      "chainId": 0
    },
    {
      "hash": "0x2dc5bf1aa8475c793e47f4e38285337b791e3c5f5a9cf37a5e5ff8c040baf4a4",
      "blockHash": "0x63533ddbdf6218a64249c9339df62e4ad8f8705f5b4bd2d846bd8bf11f1f3be5",
      "blockNumber": 119420,
      "transactionIndex": 36,
      "confirmations": null,
      "from": "0x52bc44d5378309EE2abF1539BF71dE1b7d7bE3b5",
      "gasPrice": {
        "_hex": "0xba43b7400"
      },
      "gasLimit": {
        "_hex": "0x61a8"
      },
      "to": "0x05f74a38293C914C6B14a39f5d8dEa98f22E4FBA",
      "value": {
        "_hex": "0x1dd1ba49d157ac0"
      },
      "nonce": 647,
      "data": "0x",
      "r": "0xdfe24639d4045d47b29c4e7d7e5ce10050ada1742d72218b9f777f4bf8163c29",
      "s": "0x74349c6622f523918369c9a1fadbe45fa11ba0b6415d6a3c8b7807b7bf6d1ff6",
      "v": 28,
      "creates": null,
      "raw": "0xf86e820287850ba43b74008261a89405f74a38293c914c6b14a39f5d8dea98f22e4fba8801dd1ba49d157ac0801ca0dfe24639d4045d47b29c4e7d7e5ce10050ada1742d72218b9f777f4bf8163c29a074349c6622f523918369c9a1fadbe45fa11ba0b6415d6a3c8b7807b7bf6d1ff6",
      "networkId": 0,
      "chainId": 0
    },
    {
      "hash": "0x10b92c705669bca0eae56318d2b81105f0d5cf5e69be7eb57c063c41c1901a13",
      "blockHash": "0x63533ddbdf6218a64249c9339df62e4ad8f8705f5b4bd2d846bd8bf11f1f3be5",
      "blockNumber": 119420,
      "transactionIndex": 37,
      "confirmations": null,
      "from": "0x52bc44d5378309EE2abF1539BF71dE1b7d7bE3b5",
      "gasPrice": {
        "_hex": "0xba43b7400"
      },
      "gasLimit": {
        "_hex": "0x61a8"
      },
      "to": "0x99181ED48C7c51532622dA23e20E2B38392476A7",
      "value": {
        "_hex": "0x4842a7e1d0aa0c0"
      },
      "nonce": 648,
      "data": "0x",
      "r": "0x3137bfb5f0c668104024bda277494f0f24c1c7d595061c011b08a3f01183dabd",
      "s": "0x38d3597b02979fc3b9d062dc8af3ba39ac5f71ff488819883cdd559bfb77a52b",
      "v": 28,
      "creates": null,
      "raw": "0xf86e820288850ba43b74008261a89499181ed48c7c51532622da23e20e2b38392476a78804842a7e1d0aa0c0801ca03137bfb5f0c668104024bda277494f0f24c1c7d595061c011b08a3f01183dabda038d3597b02979fc3b9d062dc8af3ba39ac5f71ff488819883cdd559bfb77a52b",
      "networkId": 0,
      "chainId": 0
    },
    {
      "hash": "0xc9e2773847ee564ff10d1b09c0d98553ab8080abe8e78100ef0b0a424d031579",
      "blockHash": "0x63533ddbdf6218a64249c9339df62e4ad8f8705f5b4bd2d846bd8bf11f1f3be5",
      "blockNumber": 119420,
      "transactionIndex": 38,
      "confirmations": null,
      "from": "0x52bc44d5378309EE2abF1539BF71dE1b7d7bE3b5",
      "gasPrice": {
        "_hex": "0xba43b7400"
      },
      "gasLimit": {
        "_hex": "0x61a8"
      },
      "to": "0xeEa71DC26083232a9e7a61b6A7836Dc2428376Cf",
      "value": {
        "_hex": "0x96b2f0fc0336440"
      },
      "nonce": 649,
      "data": "0x",
      "r": "0x1fd6a5d73ffa7a80cffa50cb488c3d10d6515fcddac3c8c8b6db7b3f02acd7dd",
      "s": "0x2e685ad5aa2d132ba3f4b3279d8189d30cfe2f7ca2412a4718db0493b708f666",
      "v": 28,
      "creates": null,
      "raw": "0xf86e820289850ba43b74008261a894eea71dc26083232a9e7a61b6a7836dc2428376cf88096b2f0fc0336440801ca01fd6a5d73ffa7a80cffa50cb488c3d10d6515fcddac3c8c8b6db7b3f02acd7dda02e685ad5aa2d132ba3f4b3279d8189d30cfe2f7ca2412a4718db0493b708f666",
      "networkId": 0,
      "chainId": 0
    },
    {
      "hash": "0xe01b47020cb9f94321d95fabb63ef7da844c0132c7f0b86ea3aa3d8e5fb53f67",
      "blockHash": "0x63533ddbdf6218a64249c9339df62e4ad8f8705f5b4bd2d846bd8bf11f1f3be5",
      "blockNumber": 119420,
      "transactionIndex": 39,
      "confirmations": null,
      "from": "0x52bc44d5378309EE2abF1539BF71dE1b7d7bE3b5",
      "gasPrice": {
        "_hex": "0xba43b7400"
      },
      "gasLimit": {
        "_hex": "0x61a8"
      },
      "to": "0x16Aa904405CF81815f608Ffe926ecE969509293C",
      "value": {
        "_hex": "0xc0048d338d64100"
      },
      "nonce": 650,
      "data": "0x",
      "r": "0x71b79982105331166de7a214068c12e884eb681b57088e7276035d8f1e7d072b",
      "s": "0x051755eee6cdf69e63dd2215dbf30e416077664bfee31616baf2fed8176b8413",
      "v": 28,
      "creates": null,
      "raw": "0xf86e82028a850ba43b74008261a89416aa904405cf81815f608ffe926ece969509293c880c0048d338d64100801ca071b79982105331166de7a214068c12e884eb681b57088e7276035d8f1e7d072ba0051755eee6cdf69e63dd2215dbf30e416077664bfee31616baf2fed8176b8413",
      "networkId": 0,
      "chainId": 0
    },
    {
      "hash": "0xa24ab85d5579a81e8e51d6121c2d27dc9c7d4f644830496844556917d5f4bfe5",
      "blockHash": "0x63533ddbdf6218a64249c9339df62e4ad8f8705f5b4bd2d846bd8bf11f1f3be5",
      "blockNumber": 119420,
      "transactionIndex": 40,
      "confirmations": null,
      "from": "0x52bc44d5378309EE2abF1539BF71dE1b7d7bE3b5",
      "gasPrice": {
        "_hex": "0xba43b7400"
      },
      "gasLimit": {
        "_hex": "0x61a8"
      },
      "to": "0x237b555850BE6BFf53a0698146371a2F5890A030",
      "value": {
        "_hex": "0x1f6258200afd9900"
      },
      "nonce": 651,
      "data": "0x",
      "r": "0x01381dafc3c782bf4bf5e3c09443b25a474b7216a059a6554007682750e42d09",
      "s": "0x46d1fff4170222bd0d286f6a93df1b93332465b2fcc42a362a2ed4209df05238",
      "v": 28,
      "creates": null,
      "raw": "0xf86e82028b850ba43b74008261a894237b555850be6bff53a0698146371a2f5890a030881f6258200afd9900801ca001381dafc3c782bf4bf5e3c09443b25a474b7216a059a6554007682750e42d09a046d1fff4170222bd0d286f6a93df1b93332465b2fcc42a362a2ed4209df05238",
      "networkId": 0,
      "chainId": 0
    },
    {
      "hash": "0xde3322b6b0c4da5a3c7480792ba6e2dda29f52e30e0aefc413577ed645ee9684",
      "blockHash": "0x63533ddbdf6218a64249c9339df62e4ad8f8705f5b4bd2d846bd8bf11f1f3be5",
      "blockNumber": 119420,
      "transactionIndex": 41,
      "confirmations": null,
      "from": "0x52bc44d5378309EE2abF1539BF71dE1b7d7bE3b5",
      "gasPrice": {
        "_hex": "0xba43b7400"
      },
      "gasLimit": {
        "_hex": "0x61a8"
      },
      "to": "0x9b348D2bdf75e886B346cC967d890E5Ff93535B6",
      "value": {
        "_hex": "0xddc65140fae74100"
      },
      "nonce": 652,
      "data": "0x",
      "r": "0xc3775f158c9d24c5581f101045ab444ac366f5e10a285be48c3ca4a6ccb18d41",
      "s": "0x2a48d7d343df6f30c291bcaa4a7fcf60dfe32ba58ddad92e499c90f9102dcce2",
      "v": 27,
      "creates": null,
      "raw": "0xf86e82028c850ba43b74008261a8949b348d2bdf75e886b346cc967d890e5ff93535b688ddc65140fae74100801ba0c3775f158c9d24c5581f101045ab444ac366f5e10a285be48c3ca4a6ccb18d41a02a48d7d343df6f30c291bcaa4a7fcf60dfe32ba58ddad92e499c90f9102dcce2",
      "networkId": 0,
      "chainId": 0
    },
    {
      "hash": "0x2e4ec05dcf83c47be5ddeafce34fff52bc6a3e9373997d9d2f980861fc1abb1e",
      "blockHash": "0x63533ddbdf6218a64249c9339df62e4ad8f8705f5b4bd2d846bd8bf11f1f3be5",
      "blockNumber": 119420,
      "transactionIndex": 42,
      "confirmations": null,
      "from": "0x52bc44d5378309EE2abF1539BF71dE1b7d7bE3b5",
      "gasPrice": {
        "_hex": "0xba43b7400"
      },
      "gasLimit": {
        "_hex": "0x61a8"
      },
      "to": "0xE12517204a15E890f12755207271102F4800A0c4",
      "value": {
        "_hex": "0x27e9ed1cc1c802300"
      },
      "nonce": 653,
      "data": "0x",
      "r": "0xade2a52139244f5e7d955e9ffae51ffc5fe32649984e7d1dbfa5e6ebb588db41",
      "s": "0x3373e48a2a204ee986273f5f5162af5d23588b32440d876b35fbade46b8af6b2",
      "v": 28,
      "creates": null,
      "raw": "0xf86f82028d850ba43b74008261a894e12517204a15e890f12755207271102f4800a0c489027e9ed1cc1c802300801ca0ade2a52139244f5e7d955e9ffae51ffc5fe32649984e7d1dbfa5e6ebb588db41a03373e48a2a204ee986273f5f5162af5d23588b32440d876b35fbade46b8af6b2",
      "networkId": 0,
      "chainId": 0
    },
    {
      "hash": "0x30cbaec4b6bd13fdc68d79aecb71bd27296112cfc1d18f2e9964b57416d12937",
      "blockHash": "0x63533ddbdf6218a64249c9339df62e4ad8f8705f5b4bd2d846bd8bf11f1f3be5",
      "blockNumber": 119420,
      "transactionIndex": 43,
      "confirmations": null,
      "from": "0x52bc44d5378309EE2abF1539BF71dE1b7d7bE3b5",
      "gasPrice": {
        "_hex": "0xba43b7400"
      },
      "gasLimit": {
        "_hex": "0x61a8"
      },
      "to": "0xA61A4A69dcB2D8C74BdeCd17AD5821Adc21E95ec",
      "value": {
        "_hex": "0x224389cf52d39f80"
      },
      "nonce": 654,
      "data": "0x",
      "r": "0x4820b1e3e1e7a2fc9697bd63b0d0f313b58a5d19ffa80bdde00ca3acc39dba34",
      "s": "0x45f39a2dfea2dd113cd32defe2baf4d3d5f9071e3d00a65780898353742c2d3f",
      "v": 27,
      "creates": null,
      "raw": "0xf86e82028e850ba43b74008261a894a61a4a69dcb2d8c74bdecd17ad5821adc21e95ec88224389cf52d39f80801ba04820b1e3e1e7a2fc9697bd63b0d0f313b58a5d19ffa80bdde00ca3acc39dba34a045f39a2dfea2dd113cd32defe2baf4d3d5f9071e3d00a65780898353742c2d3f",
      "networkId": 0,
      "chainId": 0
    },
    {
      "hash": "0xc8aae5b51737620e34bfece9ebd5191eaca0114d0f9770d534ce9e431382f99d",
      "blockHash": "0x63533ddbdf6218a64249c9339df62e4ad8f8705f5b4bd2d846bd8bf11f1f3be5",
      "blockNumber": 119420,
      "transactionIndex": 44,
      "confirmations": null,
      "from": "0x52bc44d5378309EE2abF1539BF71dE1b7d7bE3b5",
      "gasPrice": {
        "_hex": "0xba43b7400"
      },
      "gasLimit": {
        "_hex": "0x61a8"
      },
      "to": "0x3234d29E2390E0Ac637B3ad0ACA3dF88aC82dC5d",
      "value": {
        "_hex": "0x388a438412314d80"
      },
      "nonce": 655,
      "data": "0x",
      "r": "0xbe1b87e6de00c47a44068d4c7cc8bd417658839c4bc358c99d8b4e69ea25b4ae",
      "s": "0x449a5666968231649bf06418c8f4fdb87de0bd23dbc2149f92ee578175e98657",
      "v": 27,
      "creates": null,
      "raw": "0xf86e82028f850ba43b74008261a8943234d29e2390e0ac637b3ad0aca3df88ac82dc5d88388a438412314d80801ba0be1b87e6de00c47a44068d4c7cc8bd417658839c4bc358c99d8b4e69ea25b4aea0449a5666968231649bf06418c8f4fdb87de0bd23dbc2149f92ee578175e98657",
      "networkId": 0,
      "chainId": 0
    }
  ]
}