{
  "hash": "0xeb9a1de6bd9d9efb9ac2d828d22c7ec91429a96906800fda0a5a96c8d2d69925",
  "parentHash": "0x4aea1e0545895af909a9242bb083e315a0f0d0a349968303ae80e78457f98f7e",
  "number": 68326,
  "timestamp": 1439286102,
  "nonce": "0xbf62ae908fef5497",
  "difficulty": 2008462489820,
  "gasLimit": {
    "_hex": "0x2fefd8"
  },
  "gasUsed": {
    "_hex": "0x2e1b8"
  },
  "miner": "0xf927a40C8B7F6E07c5af7FA2155B4864a4112B13",
  "extraData": "0x",
  "transactions": [
    {
      "hash": "0x737ac984475e47c13d27bcc481d13c089697e79856110492466a4e30a04d2555",
      "blockHash": "0xeb9a1de6bd9d9efb9ac2d828d22c7ec91429a96906800fda0a5a96c8d2d69925",
      "blockNumber": 68326,
      "transactionIndex": 0,
      "confirmations": null,
      "from": "0xa70a9a7040d542C632D8e0bE7c5513A8a5Bbc752",
      "gasPrice": {
        "_hex": "0xdfe99cd7f"
      },
      "gasLimit": {
        "_hex": "0x5208"
      },
      "to": "0x32Be343B94f860124dC4fEe278FDCBD38C102D88",
      "value": {
        "_hex": "0x455f1584722da400"
      },
      "nonce": 2,
      "data": "0x",
      "r": "0xda3279099e8b00b1212613ba97c1529e2c614fcc4c555aee482126a0ba2f78b5",
      "s": "0x1190ed9ac5ef65ec70c75d7d9eea7c28c58440a58d230da6cfa22dd4314eac6e",
      "v": 28,
      "creates": null,
      "raw": "0xf86c02850dfe99cd7f8252089432be343b94f860124dc4fee278fdcbd38c102d8888455f1584722da400801ca0da3279099e8b00b1212613ba97c1529e2c614fcc4c555aee482126a0ba2f78b5a01190ed9ac5ef65ec70c75d7d9eea7c28c58440a58d230da6cfa22dd4314eac6e",
      "networkId": 0,
      "chainId": 0
    },
    {
      "hash": "0x46bbf83d63519fe47d8cd2a29d3218a7483d09835c70d296e2c51631a13e342a",
      "blockHash": "0xeb9a1de6bd9d9efb9ac2d828d22c7ec91429a96906800fda0a5a96c8d2d69925",
      "blockNumber": 68326,
      "transactionIndex": 1,
      "confirmations": null,
      "from": "0x8F68fbE2DCFf038C24F650C9e05Ee478038171cd",
      "gasPrice": {
        "_hex": "0xd7dfd2485"
      },
      "gasLimit": {
        "_hex": "0x55f0"
      },
      "to": "0x2910543Af39abA0Cd09dBb2D50200b3E800A63D2",
      "value": {
        "_hex": "0x3635c9adc5dea00000"
      },
      "nonce": 7,
      "data": "0x454e36383358334d30",
      "r": "0x0e922afbd88ba4cb7fa60b781f98e5625e59588f3a43eb2df9f878f5af8eb743",
      "s": "0x67d866bf0bdbb352016030acf433df241e8f6adbc3a7dcc148d4244e16036ccd",
      "v": 28,
      "creates": null,
      "raw": "0xf87607850d7dfd24858255f0942910543af39aba0cd09dbb2d50200b3e800a63d2893635c9adc5dea0000089454e36383358334d301ca00e922afbd88ba4cb7fa60b781f98e5625e59588f3a43eb2df9f878f5af8eb743a067d866bf0bdbb352016030acf433df241e8f6adbc3a7dcc148d4244e16036ccd",
      "networkId": 0,
      "chainId": 0
    },
    {
      "hash": "0x1a77575816698319215804b79508b771237c949a14e64a59c0a746e46506a0a2",
      "blockHash": "0xeb9a1de6bd9d9efb9ac2d828d22c7ec91429a96906800fda0a5a96c8d2d69925",
      "blockNumber": 68326,
      "transactionIndex": 2,
      "confirmations": null,
      "from": "0xBDE968AFdC7b5352e9cbCdA91D427344ADE449B4",
      "gasPrice": {
        "_hex": "0xba43b7400"
      },
      "gasLimit": {
        "_hex": "0x15f90"
      },
      "to": "0x793AE8C1b1a160BFc07BFB0d04F85eab1A71F4f2",
      "value": {
        "_hex": "0x0"
      },
      "nonce": 0,
      "data": "0x3ba15036",
      "r": "0x2bff00957bc3bcff0d4c91386030f1b7f48a263e84cfe0611a660393d4a57340",
      "s": "0x18e3cc7d98c4dc181884f1d8d57bffd54d3b689d49c0e68806ad7eee44dd69ab",
      "v": 27,
      "creates": null,
      "raw": "0xf86980850ba43b740083015f9094793ae8c1b1a160bfc07bfb0d04f85eab1a71f4f280843ba150361ba02bff00957bc3bcff0d4c91386030f1b7f48a263e84cfe0611a660393d4a57340a018e3cc7d98c4dc181884f1d8d57bffd54d3b689d49c0e68806ad7eee44dd69ab",
      "networkId": 0,
      "chainId": 0
    },
    {
      "hash": "0xb6fc56189b67994fd12eab1ad453c5360481c709743a96213e51a6a9c392be63",
      "blockHash": "0xeb9a1de6bd9d9efb9ac2d828d22c7ec91429a96906800fda0a5a96c8d2d69925",
      "blockNumber": 68326,
      "transactionIndex": 3,
      "confirmations": null,
      "from": "0xD14523E2998A8BEd4099b6ca900AB7cF5af9E31f",
      "gasPrice": {
        "_hex": "0xba43b7400"
      },
      "gasLimit": {
        "_hex": "0x15f90"
      },
      "to": "0x793AE8C1b1a160BFc07BFB0d04F85eab1A71F4f2",
      "value": {
        "_hex": "0x0"
      },
      "nonce": 0,
      "data": "0x3ba15036",
      "r": "0xfaf2659e5a354c72451ce80a98dce2a08d5ed454f338dbc851cdf2e51658aa33",
      "s": "0x46d79a411c759ded5330adedcb5dcc5a95fa4d4f73d2cdeca06316a1873e2efc",
      "v": 28,
      "creates": null,
      "raw": "0xf86980850ba43b740083015f9094793ae8c1b1a160bfc07bfb0d04f85eab1a71f4f280843ba150361ca0faf2659e5a354c72451ce80a98dce2a08d5ed454f338dbc851cdf2e51658aa33a046d79a411c759ded5330adedcb5dcc5a95fa4d4f73d2cdeca06316a1873e2efc",
      "networkId": 0,
      "chainId": 0
    },
    {
      "hash": "0x7c78a1ef73a9fe6561a96e988c0464e275bc154037d9ead7ae09dacffc89760a",
      "blockHash": "0xeb9a1de6bd9d9efb9ac2d828d22c7ec91429a96906800fda0a5a96c8d2d69925",
      "blockNumber": 68326,
      "transactionIndex": 4,
      "confirmations": null,
      "from": "0x5B7684f60A6F108Fe4DF982c7ba6419E3277394A",
      "gasPrice": {
        "_hex": "0xba43b7400"
      },
      "gasLimit": {
        "_hex": "0x15f90"
      },
      "to": "0x793AE8C1b1a160BFc07BFB0d04F85eab1A71F4f2",
      "value": {
        "_hex": "0x0"
      },
      "nonce": 0,
      "data": "0x3ba15036",
      "r": "0xc4b23e78b5021c77571abe78cbfdd0002dd1e4b390e8ec2e2d31bec304ee81ba",
      "s": "0x72272c1dfbbf88baeb68652a19682a973e30187d65283bbca337e2bfaf173e5c",
      "v": 27,
      "creates": null,
      "raw": "0xf86980850ba43b740083015f9094793ae8c1b1a160bfc07bfb0d04f85eab1a71f4f280843ba150361ba0c4b23e78b5021c77571abe78cbfdd0002dd1e4b390e8ec2e2d31bec304ee81baa072272c1dfbbf88baeb68652a19682a973e30187d65283bbca337e2bfaf173e5c",
      "networkId": 0,
      "chainId": 0
    }
  ]
}