{
  "hash": "0x53987634d1a9f9cb5cbc66311a65861c61e1fb0e44af64a548da24e2e2c874b2",
  "parentHash": "0xf9013c7beed60b46fa82573bdac9963d6ac289129aace27dbcabca8461f055ec",
  "number": 71633,
  "timestamp": 1439339276,
  "nonce": "0x5ad41c772a6d311e",
  "difficulty": 2180370489192,
  "gasLimit": {
    "_hex": "0x2fefd8"
  },
  "gasUsed": {
    "_hex": "0x9400"
  },
  "miner": "0xBf43cdd2bD0d6062f760cA490031334A9AD73Ab8",
  "extraData": "0x476574682f76312e302e312f6c696e75782f676f312e342e32",
  "transactions": [
    {
      "hash": "0x4b18168cf081ef5ff1a39c8629402f141dc237a886e49f27073e6b408cc313da",
      "blockHash": "0x53987634d1a9f9cb5cbc66311a65861c61e1fb0e44af64a548da24e2e2c874b2",
      "blockNumber": 71633,
      "transactionIndex": 0,
      "confirmations": null,
      "from": "0x17580B766f7453525ca4C6A88b01b50570EA088C",
      "gasPrice": {
        "_hex": "0xd15e96b84"
      },
      "gasLimit": {
        "_hex": "0x61a80"
      },
      "to": "0x5Fe5B7546D1628f7348B023A0393de1FC825A4fD",
      "value": {
        "_hex": "0xde0b6b3a7640000"
      },
      "nonce": 239,
      "data": "0xb595b8b50000000000000000000000000000000000000000000000000000000000000001",
      "r": "0xa215b421335d5ff812c96a309f4ec3411c884a042ad5dae6a6e1811dc01ebfe4",
      "s": "0x2288bdeb2401ce88634b9574cebf7f590f2dffa5733ea077f44e69b0e3f727c2",
      "v": 28,
      "creates": null,
      "raw": "0xf89281ef850d15e96b8483061a80945fe5b7546d1628f7348b023a0393de1fc825a4fd880de0b6b3a7640000a4b595b8b500000000000000000000000000000000000000000000000000000000000000011ca0a215b421335d5ff812c96a309f4ec3411c884a042ad5dae6a6e1811dc01ebfe4a02288bdeb2401ce88634b9574cebf7f590f2dffa5733ea077f44e69b0e3f727c2",
      "networkId": 0,
      "chainId": 0
    }
  ]
}