{
  "hash": "0xb48cdd71c606526b0702d34b43777c305c85de72c400277163afcb45d908ae4e",
  "parentHash": "0xdea31f06ff0a1459e19b66d3ed8605396d6c141ef70793a47084b83eb2276ddb",
  "number": 69457,
  "timestamp": 1439304395,
  "nonce": "0x9bf03277512e83e9",
  "difficulty": 2064868835855,
  "gasLimit": {
    "_hex": "0x2fefd8"
  },
  "gasUsed": {
    "_hex": "0x5208"
  },
  "miner": "0x36F60f6fAe70855D6a506c3cbDfa8B1Cc4d77c35",
  "extraData": "0x",
  "transactions": [
    {
      "hash": "0x2631e87b6ad1c9cabb87829d6fd0bfbc12128ee4e8478c874c7e5eb38f3337cd",
      "blockHash": "0xb48cdd71c606526b0702d34b43777c305c85de72c400277163afcb45d908ae4e",
      "blockNumber": 69457,
      "transactionIndex": 0,
      "confirmations": null,
      "from": "0x3620db64D25D412bAb4C8d93E2e0D7e64e8Cb933",
      "gasPrice": {
        "_hex": "0xd84a2c755"
      },
      "gasLimit": {
        "_hex": "0x5208"
      },
      "to": "0x32Be343B94f860124dC4fEe278FDCBD38C102D88",
      "value": {
        "_hex": "0x30849a692d1f6c0000"
      },
      "nonce": 2,
      "data": "0x",
      "r": "0x932f8ac96b456fbe0f8142be3efa6f9a96616514e19b8abe4fc28d4238819bed",
      "s": "0x75eece20dc9e8d120dbbbccd1d83c455f0b09ab421abd95d6c366b1e19b443ff",
      "v": 28,
      "creates": null,
      "raw": "0xf86d02850d84a2c7558252089432be343b94f860124dc4fee278fdcbd38c102d888930849a692d1f6c0000801ca0932f8ac96b456fbe0f8142be3efa6f9a96616514e19b8abe4fc28d4238819beda075eece20dc9e8d120dbbbccd1d83c455f0b09ab421abd95d6c366b1e19b443ff",
      "networkId": 0,
      "chainId": 0
    }
  ]
}