{
  "hash": "0x4f179f7a5a5188e1ad8aed4298100e66e045b69ada61c446a0dbf9aaf8aafae2",
  "parentHash": "0x9785fa0813ad1698ba50ce8a06168c4b7d1e50cb3ecfd48482e989632c51b574",
  "number": 90467,
  "timestamp": 1439640530,
  "nonce": "0x36a22e30cd4c49c3",
  "difficulty": 3333448886703,
  "gasLimit": {
    "_hex": "0x2fefd8"
  },
  "gasUsed": {
    "_hex": "0x5208"
  },
  "miner": "0xA21Ba94e45f0E168dA824fC67aC9cb5Cb577a8aF",
  "extraData": "0x",
  "transactions": [
    {
      "hash": "0x16f5c5c995003b10959a69d08d6fa7e3f307c5216e8d0260aad006e723f7a0a9",
      "blockHash": "0x4f179f7a5a5188e1ad8aed4298100e66e045b69ada61c446a0dbf9aaf8aafae2",
      "blockNumber": 90467,
      "transactionIndex": 0,
      "confirmations": null,
      "from": "0x2910543Af39abA0Cd09dBb2D50200b3E800A63D2",
      "gasPrice": {
        "_hex": "0xe010de75a"
      },
      "gasLimit": {
        "_hex": "0x5208"
      },
      "to": "0xB0bA9ec050654A083c88777e30261F815cB0A3B7",
      "value": {
        "_hex": "0xc326ed06ce7038000"
      },
      "nonce": 780,
      "data": "0x",
      "r": "0x80f3336c6c9b728c7269b46a833a05ba91ec2399afcb70bec200a2352ddd8aee",
      "s": "0x5035a60f6364bfaebb597e9c69e31e7c37fd6727ec8fd6e2d6c620ed1d5dbdc9",
      "v": 28,
      "creates": null,
      "raw": "0xf86f82030c850e010de75a82520894b0ba9ec050654a083c88777e30261f815cb0a3b7890c326ed06ce7038000801ca080f3336c6c9b728c7269b46a833a05ba91ec2399afcb70bec200a2352ddd8aeea05035a60f6364bfaebb597e9c69e31e7c37fd6727ec8fd6e2d6c620ed1d5dbdc9",
      "networkId": 0,
      "chainId": 0
    }
  ]
}