{
  "hash": "0x2e1c97a9b901eb1683200213595503aa18afdd010756379e3d24ecc6289af900",
  "parentHash": "0xf849fdd9b6fd4e25c0cf97e0456878d46786fc8c8e50a5e7e4b2f04d3c09fa5e",
  "number": 103302,
  "timestamp": 1439850976,
  "nonce": "0x4641a866548d31f2",
  "difficulty": 4176728219943,
  "gasLimit": {
    "_hex": "0x2fefd8"
  },
  "gasUsed": {
    "_hex": "0x5208"
  },
  "miner": "0xfFcD9CAE6d9f54fd8ae05296F839892677ff6EaA",
  "extraData": "0x476574682f76312e302e312f77696e646f77732f676f312e342e32",
  "transactions": [
    {
      "hash": "0x921e7eb9d3a0b9a31215513f514024f708d6fbf759225fb0bf9ac9e7b2fe1fd3",
      "blockHash": "0x2e1c97a9b901eb1683200213595503aa18afdd010756379e3d24ecc6289af900",
      "blockNumber": 103302,
      "transactionIndex": 0,
      "confirmations": null,
      "from": "0x42E6723A0c884E922240e56D7B618BeC96F35800",
      "gasPrice": {
        "_hex": "0x9184e72a000"
      },
      "gasLimit": {
        "_hex": "0x5208"
      },
      "to": "0x50B8F981CE93fD5B81B844409169148428400bF3",
      "value": {
        "_hex": "0xde0b6b3a7640000"
      },
      "nonce": 8,
      "data": "0x",
      "r": "0x80242e39e4bc1d464f0fa04d114b7d45ecdf8a83d08174d33ecd2396c84a3576",
      "s": "0x4bd5045eb46a046bfec57e7a0b0231c5ec3ed2f28289e89a042f48e4eba6bc63",
      "v": 28,
      "creates": null,
      "raw": "0xf86d088609184e72a0008252089450b8f981ce93fd5b81b844409169148428400bf3880de0b6b3a7640000801ca080242e39e4bc1d464f0fa04d114b7d45ecdf8a83d08174d33ecd2396c84a3576a04bd5045eb46a046bfec57e7a0b0231c5ec3ed2f28289e89a042f48e4eba6bc63",
      "networkId": 0,
      "chainId": 0
    }
  ]
}