{
  "hash": "0x83ddf0194718815fbe713a02ff1be3324ff06adddc0df48d1315ad779b1433de",
  "parentHash": "0xde003343280f017ca9a0b2849d2ebd09d64023ef624f3e7fb54f94da7ea6f8d5",
  "number": 99273,
  "timestamp": 1439787298,
  "nonce": "0x6d1adbaa8da0bdb7",
  "difficulty": 3788097722136,
  "gasLimit": {
    "_hex": "0x2fefd8"
  },
  "gasUsed": {
    "_hex": "0xa410"
  },
  "miner": "0xe6A7a1d47ff21B6321162AEA7C6CB457D5476Bca",
  "extraData": "0x476574682f76312e302e312d38326566323666362f6c696e75782f676f312e34",
  "transactions": [
    {
      "hash": "0x48b2da8cfa5e18642205c28d92cd366eab34855c335fbef2fa04a31d174dc2ec",
      "blockHash": "0x83ddf0194718815fbe713a02ff1be3324ff06adddc0df48d1315ad779b1433de",
      "blockNumber": 99273,
      "transactionIndex": 0,
      "confirmations": null,
      "from": "0x2dC0950003aEa14Af0c9E3439E59cf8e79Fa569d",
      "gasPrice": {
        "_hex": "0xdfa39ce86"
      },
      "gasLimit": {
        "_hex": "0x15f90"
      },
      "to": "0xf8a58969d2FbBf009542432480fe2D49037Ed976",
      "value": {
        "_hex": "0x6f05b59d3b200000"
      },
      "nonce": 0,
      "data": "0x",
      "r": "0x60cc0d5228059e9495554dd482c81112d0cae54ea96d436584798fa9469615c1",
      "s": "0x24ea9c4c960d0e20da44fe1fd911c809f57b4cbcb017707221f4c942c0c203e8",
      "v": 28,
      "creates": null,
      "raw": "0xf86d80850dfa39ce8683015f9094f8a58969d2fbbf009542432480fe2d49037ed976886f05b59d3b200000801ca060cc0d5228059e9495554dd482c81112d0cae54ea96d436584798fa9469615c1a024ea9c4c960d0e20da44fe1fd911c809f57b4cbcb017707221f4c942c0c203e8",
      "networkId": 0,
      "chainId": 0
    },
    {
      "hash": "0x88ee2785b9bd986af8e4d21a612144c8b6a52a54be36a19a357c62f827ce34d0",
      "blockHash": "0x83ddf0194718815fbe713a02ff1be3324ff06adddc0df48d1315ad779b1433de",
      "blockNumber": 99273,
      "transactionIndex": 1,
      "confirmations": null,
      "from": "0xa6BDc31c431B8F97848c9D60cbbe9660dc450eB7",
      "gasPrice": {
        "_hex": "0xdefba1c6e"
      },
      "gasLimit": {
        "_hex": "0x5208"
      },
      "to": "0x32Be343B94f860124dC4fEe278FDCBD38C102D88",
      "value": {
        "_hex": "0x455f1a487a845400"
      },
      "nonce": 145,
      "data": "0x",
      "r": "0x05e3ad889e41d37cf4966297ce587ae806a568ee4238b9d57757eccce8d6f1d5",
      "s": "0x573db3946b06a9cfe61b89eef58b752867c575395268dc92df462f42b4cd16e9",
      "v": 28,
      "creates": null,
      "raw": "0xf86d8191850defba1c6e8252089432be343b94f860124dc4fee278fdcbd38c102d8888455f1a487a845400801ca005e3ad889e41d37cf4966297ce587ae806a568ee4238b9d57757eccce8d6f1d5a0573db3946b06a9cfe61b89eef58b752867c575395268dc92df462f42b4cd16e9",
      "networkId": 0,
      "chainId": 0
    }
  ]
}