{
  "hash": "0xe82cc242c36f9b39633f6521d3362ee6fef94036f36ea11ddf14ecf470183854",
  "parentHash": "0x2da59cbf845682e76c6ed24309f861c52dc6efc71f370aa88e943225af7ce3d1",
  "number": 78926,
  "timestamp": 1439461732,
  "nonce": "0xcc8670c5020f44fd",
  "difficulty": 2288603550316,
  "gasLimit": {
    "_hex": "0x2fefd8"
  },
  "gasUsed": {
    "_hex": "0xa674"
  },
  "miner": "0x580992B51e3925e23280EfB93d3047C82f17E038",
  "extraData": "0x476574682f76312e302e312f6c696e75782f676f312e342e32",
  "transactions": [
    {
      "hash": "0xd69667e7f962775a89e5241f047b9744072c69ee226c9ba87074471be20a5473",
      "blockHash": "0xe82cc242c36f9b39633f6521d3362ee6fef94036f36ea11ddf14ecf470183854",
      "blockNumber": 78926,
      "transactionIndex": 0,
      "confirmations": null,
      "from": "0x00bD7514616c0E4Dd28F5B351090ABAD03F104C8",
      "gasPrice": {
        "_hex": "0xd7d40ace3"
      },
      "gasLimit": {
        "_hex": "0x55f0"
      },
      "to": "0x2910543Af39abA0Cd09dBb2D50200b3E800A63D2",
      "value": {
        "_hex": "0xb1a2bc2ec500000"
      },
      "nonce": 7,
      "data": "0x454e503330514a3547",
      "r": "0xd21cfc952f96ec2a5e9c63806969bcc301e578e18513cf0d7307e169690d0593",
      "s": "0x401b25a44b64e5b7b41a3ac6a53b708225a748259494a00def4f4b92b38a0d10",
      "v": 28,
      "creates": null,
      "raw": "0xf87507850d7d40ace38255f0942910543af39aba0cd09dbb2d50200b3e800a63d2880b1a2bc2ec50000089454e503330514a35471ca0d21cfc952f96ec2a5e9c63806969bcc301e578e18513cf0d7307e169690d0593a0401b25a44b64e5b7b41a3ac6a53b708225a748259494a00def4f4b92b38a0d10",
      "networkId": 0,
      "chainId": 0
    },
    {
      "hash": "0x2e1fa1d1f9a694167aee0d9cd872e8c823dcad9cd89844f6b95136e5936fac6c",
      "blockHash": "0xe82cc242c36f9b39633f6521d3362ee6fef94036f36ea11ddf14ecf470183854",
      "blockNumber": 78926,
      "transactionIndex": 1,
      "confirmations": null,
      "from": "0xa6BDc31c431B8F97848c9D60cbbe9660dc450eB7",
      "gasPrice": {
        "_hex": "0xd09d08505"
      },
      "gasLimit": {
        "_hex": "0x5208"
      },
      "to": "0x32Be343B94f860124dC4fEe278FDCBD38C102D88",
      "value": {
        "_hex": "0x478a8bb8f6370c00"
      },
      "nonce": 29,
      "data": "0x",
      "r": "0x19b4045936b974119dfe8108e13fe6d45ebaaa7c4b98d0736100b8d5d46dc3d1",
      "s": "0x09e15d1345b374110117f383e0756b3312f529d252b820fb16f412dc0e416dea",
      "v": 27,
      "creates": null,
      "raw": "0xf86c1d850d09d085058252089432be343b94f860124dc4fee278fdcbd38c102d8888478a8bb8f6370c00801ba019b4045936b974119dfe8108e13fe6d45ebaaa7c4b98d0736100b8d5d46dc3d1a009e15d1345b374110117f383e0756b3312f529d252b820fb16f412dc0e416dea",
      "networkId": 0,
      "chainId": 0
    }
  ]
}