{
  "hash": "0xb83668242bb0f12456ae9153a3d74af2f6f846e68a9b571bc95b0ea687d3dbd6",
  "parentHash": "0x934eb8eaf1bbff025906785b2b586734177527c30228724ca822b7a07f954b12",
  "number": 65570,
  "timestamp": 1439239240,
  "nonce": "0x12a01b65073f35da",
  "difficulty": 1947308255709,
  "gasLimit": {
    "_hex": "0x2fefd8"
  },
  "gasUsed": {
    "_hex": "0xf618"
  },
  "miner": "0x93641e54c9aA6F9038FE7Adb03629a1747326Cd6",
  "extraData": "0x476574682f76312e302e312f77696e646f77732f676f312e342e32",
  "transactions": [
    {
      "hash": "0x718c9248f34b9d8a91631b1ca93e781f685f0fea1b34625006aea7eecc5b753b",
      "blockHash": "0xb83668242bb0f12456ae9153a3d74af2f6f846e68a9b571bc95b0ea687d3dbd6",
      "blockNumber": 65570,
      "transactionIndex": 0,
      "confirmations": null,
      "from": "0x029b539130345336FA435C807F08B86a344A1BFe",
      "gasPrice": {
        "_hex": "0xcd214e678"
      },
      "gasLimit": {
        "_hex": "0x5208"
      },
      "to": "0x32Be343B94f860124dC4fEe278FDCBD38C102D88",
      "value": {
        "_hex": "0xddc9b01f0679400"
      },
      "nonce": 0,
      "data": "0x",
      "r": "0xa766b4cdd564ea4b146006d027e9b48c83e1a03d2502ec7c1fbd8e793653f534",
      "s": "0x7f95bdb1a7b983e0562d08f507ccd857e857293d99283c28a8bcbff6369ee7d1",
      "v": 27,
      "creates": null,
      "raw": "0xf86c80850cd214e6788252089432be343b94f860124dc4fee278fdcbd38c102d88880ddc9b01f0679400801ba0a766b4cdd564ea4b146006d027e9b48c83e1a03d2502ec7c1fbd8e793653f534a07f95bdb1a7b983e0562d08f507ccd857e857293d99283c28a8bcbff6369ee7d1",
      "networkId": 0,
      "chainId": 0
    },
    {
      "hash": "0x626d8a315e7a5fd312df82d5d7ad6a3cab83c94a167a68825e606ba7d9d50637",
      "blockHash": "0xb83668242bb0f12456ae9153a3d74af2f6f846e68a9b571bc95b0ea687d3dbd6",
      "blockNumber": 65570,
      "transactionIndex": 1,
      "confirmations": null,
      "from": "0x93927961f3fdb5Cf5aA661Bef65EC6FCb23A719f",
      "gasPrice": {
        "_hex": "0xcd214e678"
      },
      "gasLimit": {
        "_hex": "0x5208"
      },
      "to": "0x32Be343B94f860124dC4fEe278FDCBD38C102D88",
      "value": {
        "_hex": "0x5d26ef77aa06780000"
      },
      "nonce": 0,
      "data": "0x",
      "r": "0xdd43bf6119fd2de34ecb2a6c3c17d6b408bcef2c11c97ac36ff7feed23b13c8e",
      "s": "0x6ff7062395d54395b14ad2ef0a68cc5a0514519c6f090228b23e35972d96fdbf",
      "v": 27,
      "creates": null,
      "raw": "0xf86d80850cd214e6788252089432be343b94f860124dc4fee278fdcbd38c102d88895d26ef77aa06780000801ba0dd43bf6119fd2de34ecb2a6c3c17d6b408bcef2c11c97ac36ff7feed23b13c8ea06ff7062395d54395b14ad2ef0a68cc5a0514519c6f090228b23e35972d96fdbf",
      "networkId": 0,
      "chainId": 0
    },
    {
      "hash": "0x4c371bf6fe5da173421802eabc6173feee6b77bd110515850631f1ad8bf365ce",
      "blockHash": "0xb83668242bb0f12456ae9153a3d74af2f6f846e68a9b571bc95b0ea687d3dbd6",
      "blockNumber": 65570,
      "transactionIndex": 2,
      "confirmations": null,
      "from": "0xa27f6FEDC7Ee75E02d31410ffafC3FFe22af7837",
      "gasPrice": {
        "_hex": "0xcd214e678"
      },
      "gasLimit": {
        "_hex": "0x5208"
      },
      "to": "0x32Be343B94f860124dC4fEe278FDCBD38C102D88",
      "value": {
        "_hex": "0x8ab143d99b0b1000"
      },
      "nonce": 0,
      "data": "0x",
      "r": "0x0848d67f84d5f8cc82fa7fa0839ef5687f1b10a1c5f97f5a9cb8640659f853ad",
      "s": "0x1fdfc16035d47ae7ee59ee2ed811f55dc1078d072e1e394ec2b293ad408d206f",
      "v": 28,
      "creates": null,
      "raw": "0xf86c80850cd214e6788252089432be343b94f860124dc4fee278fdcbd38c102d88888ab143d99b0b1000801ca00848d67f84d5f8cc82fa7fa0839ef5687f1b10a1c5f97f5a9cb8640659f853ada01fdfc16035d47ae7ee59ee2ed811f55dc1078d072e1e394ec2b293ad408d206f",
      "networkId": 0,
      "chainId": 0
    }
  ]
}