{
  "hash": "0xcebe4e62b1b08c69d991ec2512636182c1ccc191aa878229bbe5f721aac2ff82",
  "parentHash": "0xc1d7b674d5a2820f7a1ffd1ff88805c0828ec14bb7d37a92f17c8519302e42d9",
  "number": 121937,
  "timestamp": 1440185162,
  "nonce": "0x8a4433a294af5180",
  "difficulty": 4481960956649,
  "gasLimit": {
    "_hex": "0x2fefd8"
  },
  "gasUsed": {
    "_hex": "0xf618"
  },
  "miner": "0x52bc44d5378309EE2abF1539BF71dE1b7d7bE3b5",
  "extraData": "0xd783010002844765746887676f312e342e32856c696e7578",
  "transactions": [
    {
      "hash": "0x7502e74318ffa44c35190ea358df383df0e4eaee1c17a6ef21ee2a767532cb28",
      "blockHash": "0xcebe4e62b1b08c69d991ec2512636182c1ccc191aa878229bbe5f721aac2ff82",
      "blockNumber": 121937,
      "transactionIndex": 0,
      "confirmations": null,
      "from": "0x5D9067970755043fF5cE7FA2cd21C12F3646Bc55",
      "gasPrice": {
        "_hex": "0xdf105f340"
      },
      "gasLimit": {
        "_hex": "0x5208"
      },
      "to": "0x32Be343B94f860124dC4fEe278FDCBD38C102D88",
      "value": {
        "_hex": "0x9ebc767ea9be6000"
      },
      "nonce": 10,
      "data": "0x",
      "r": "0x3713f1cb23785e3dbcc98558d1b1ef360e8ff8ca2664fc203be0f5c73d915f14",
      "s": "0x0776b206d83cd59f44f808de535756ed0381d2e207aa576f46a43449f53faf52",
      "v": 27,
      "creates": null,
      "raw": "0xf86c0a850df105f3408252089432be343b94f860124dc4fee278fdcbd38c102d88889ebc767ea9be6000801ba03713f1cb23785e3dbcc98558d1b1ef360e8ff8ca2664fc203be0f5c73d915f14a00776b206d83cd59f44f808de535756ed0381d2e207aa576f46a43449f53faf52",
      "networkId": 0,
      "chainId": 0
    },
    {
      "hash": "0x050504a3910d3887073b9c3a926d39561f44c9c70ccc104fa6e49d2c425e3df4",
      "blockHash": "0xcebe4e62b1b08c69d991ec2512636182c1ccc191aa878229bbe5f721aac2ff82",
      "blockNumber": 121937,
      "transactionIndex": 1,
      "confirmations": null,
      "from": "0xF2C14aDd753869D4EEdfefdCdFBA341Abfa1D702",
      "gasPrice": {
        "_hex": "0xdf105f340"
      },
      "gasLimit": {
        "_hex": "0x5208"
      },
      "to": "0x32Be343B94f860124dC4fEe278FDCBD38C102D88",
      "value": {
        "_hex": "0x1e88f9f0a9662c00"
      },
      "nonce": 13,
      "data": "0x",
      "r": "0x733af8e202751cfd1766fb54cb811539f5ca2b7c3d3c5591f6560d86f78cd2ed",
      "s": "0x62062f0205cd0af0ed0b78a710db777736b76fe877f98ab182e961d7b2ff1e25",
      "v": 28,
      "creates": null,
      "raw": "0xf86c0d850df105f3408252089432be343b94f860124dc4fee278fdcbd38c102d88881e88f9f0a9662c00801ca0733af8e202751cfd1766fb54cb811539f5ca2b7c3d3c5591f6560d86f78cd2eda062062f0205cd0af0ed0b78a710db777736b76fe877f98ab182e961d7b2ff1e25",
      "networkId": 0,
      "chainId": 0
    },
    {
      "hash": "0x984a6934defd3d963163283a423495bc0e8409fa341757842cd5ba42a52eca74",
      "blockHash": "0xcebe4e62b1b08c69d991ec2512636182c1ccc191aa878229bbe5f721aac2ff82",
      "blockNumber": 121937,
      "transactionIndex": 2,
      "confirmations": null,
      "from": "0xF928B4834e4E886e04630Af5b4Ea8eBf46Fb205b",
      "gasPrice": {
        "_hex": "0xdf105f340"
      },
      "gasLimit": {
        "_hex": "0x5208"
      },
      "to": "0x32Be343B94f860124dC4fEe278FDCBD38C102D88",
      "value": {
        "_hex": "0x110b29dee11f5e000"
      },
      "nonce": 12,
      "data": "0x",
      "r": "0x3819fc4c10868e6fe37e96e15ae23191da57f0bbc227c23dba112f1de00e120e",
      "s": "0x771595449ccaf567316db06259a8b362ad14ca2c560dec3a0f27c09c10e87751",
      "v": 27,
      "creates": null,
      "raw": "0xf86d0c850df105f3408252089432be343b94f860124dc4fee278fdcbd38c102d88890110b29dee11f5e000801ba03819fc4c10868e6fe37e96e15ae23191da57f0bbc227c23dba112f1de00e120ea0771595449ccaf567316db06259a8b362ad14ca2c560dec3a0f27c09c10e87751",
      "networkId": 0,
      "chainId": 0
    }
  ]
}