{
  "hash": "0xf071b6bf5eedec2b20cde926ffed16af9572210d350854c6a57a8f0b30263c16",
  "parentHash": "0x26d8136986993677d774d9ee8cab4723cf2b0b288a0999db2972f73d99734d46",
  "number": 48142,
  "timestamp": 1438952144,
  "nonce": "0x820af5f910f6f531",
  "difficulty": 1464356972322,
  "gasLimit": {
    "_hex": "0x12f01"
  },
  "gasUsed": {
    "_hex": "0xa410"
  },
  "miner": "0xbb7B8287f3F0a933474a79eAe42CBCa977791171",
  "extraData": "0x476574682f4c5649562f76312e302e312f6c696e75782f676f312e342e32",
  "transactions": [
    {
      "hash": "0x4b410878185b1d6db9b02a88618a8566f7ba1ca471d8c43592a9d2e243bdb113",
      "blockHash": "0xf071b6bf5eedec2b20cde926ffed16af9572210d350854c6a57a8f0b30263c16",
      "blockNumber": 48142,
      "transactionIndex": 0,
      "confirmations": null,
      "from": "0xc00396Ad303d05D47a56450Eb5aF03EebC2d99C4",
      "gasPrice": {
        "_hex": "0xdc55a521e"
      },
      "gasLimit": {
        "_hex": "0x5208"
      },
      "to": "0x6DFC0EB68C51E24C07AA254F54c390775B748531",
      "value": {
        "_hex": "0x56bc75e2d63100000"
      },
      "nonce": 0,
      "data": "0x",
      "r": "0xc496b2ab9e6ab1d583fe4823c055a62d49591fa6a521f85d2c54698ad69b76c6",
      "s": "0x42f2d13b14aed3dfe224c12f591d66619460ef2704ef89afc3b4b5c0440ca0e9",
      "v": 28,
      "creates": null,
      "raw": "0xf86d80850dc55a521e825208946dfc0eb68c51e24c07aa254f54c390775b74853189056bc75e2d63100000801ca0c496b2ab9e6ab1d583fe4823c055a62d49591fa6a521f85d2c54698ad69b76c6a042f2d13b14aed3dfe224c12f591d66619460ef2704ef89afc3b4b5c0440ca0e9",
      "networkId": 0,
      "chainId": 0
    },
    {
      "hash": "0x08e5d658822e885cec137242707c5bf8bd963490b4008a2fac2c1e775a9fa859",
      "blockHash": "0xf071b6bf5eedec2b20cde926ffed16af9572210d350854c6a57a8f0b30263c16",
      "blockNumber": 48142,
      "transactionIndex": 1,
      "confirmations": null,
      "from": "0x4Ca2bE31e663B55D31AE89189C50864ae7B5aC7d",
      "gasPrice": {
        "_hex": "0xd57333cf7"
      },
      "gasLimit": {
        "_hex": "0x5208"
      },
      "to": "0x32Be343B94f860124dC4fEe278FDCBD38C102D88",
      "value": {
        "_hex": "0x97b65c3a083f600000"
      },
      "nonce": 1,
      "data": "0x",
      "r": "0xf4546c5d55aa0d74bf369c848c85dfd1c28934372bdcf1617690c0dac0482ace",
      "s": "0x5610e82c4e94c5307e3a3aa7ec763fbe45ef7e69fbca6c192ebdfcd5f133abff",
      "v": 27,
      "creates": null,
      "raw": "0xf86d01850d57333cf78252089432be343b94f860124dc4fee278fdcbd38c102d888997b65c3a083f600000801ba0f4546c5d55aa0d74bf369c848c85dfd1c28934372bdcf1617690c0dac0482acea05610e82c4e94c5307e3a3aa7ec763fbe45ef7e69fbca6c192ebdfcd5f133abff",
      "networkId": 0,
      "chainId": 0
    }
  ]
}