{
  "hash": "0x28d016f332c5c573d29e2469d5f14ca1d7defe025e820aad7742695c59e47b74",
  "parentHash": "0x142083ace971d293f7861ffd293f03575214f3cd0354d7a17c3f996382f374bf",
  "number": 54411,
  "timestamp": 1439053768,
  "nonce": "0x6fb83c07c6c2b864",
  "difficulty": 1612582405650,
  "gasLimit": {
    "_hex": "0x2fefd8"
  },
  "gasUsed": {
    "_hex": "0x5318"
  },
  "miner": "0x0A63E1A8C33e351679e3581AC84ce341C32f813a",
  "extraData": "0x476574682f76312e302e312d38326566323666362f6c696e75782f676f312e34",
  "transactions": [
    {
      "hash": "0xa5d02a0ed43e6368531a926b3a9dd51e12dac9b8ed667ca1cfcb67190db4ddf8",
      "blockHash": "0x28d016f332c5c573d29e2469d5f14ca1d7defe025e820aad7742695c59e47b74",
      "blockNumber": 54411,
      "transactionIndex": 0,
      "confirmations": null,
      "from": "0x3FF679B0823a026F2378E5f5F22A6F127cC85828",
      "gasPrice": {
        "_hex": "0xd7d40ace3"
      },
      "gasLimit": {
        "_hex": "0x61a8"
      },
      "to": "0x71800954e6FA0Cbc43c6440d3CC80660F18a8B6F",
      "value": {
        "_hex": "0xde0b6b3a7640000"
      },
      "nonce": 0,
      "data": "0x74657374",
      "r": "0x90bcdf5032acefe2944d7a430e2558e5bbd1a72ce8797181d097240a0fdefa66",
      "s": "0x1e04294cd331c13eb85e879747ce0841bbbf7f82dfd0a92430c6f8c0520ec80e",
      "v": 27,
      "creates": null,
      "raw": "0xf87080850d7d40ace38261a89471800954e6fa0cbc43c6440d3cc80660f18a8b6f880de0b6b3a764000084746573741ba090bcdf5032acefe2944d7a430e2558e5bbd1a72ce8797181d097240a0fdefa66a01e04294cd331c13eb85e879747ce0841bbbf7f82dfd0a92430c6f8c0520ec80e",
      "networkId": 0,
      "chainId": 0
    }
  ]
}