{
  "hash": "0x97dcae132268d09ecae6ec69329b8cae3977353e1794317e29b1ccf8c2064804",
  "parentHash": "0x0264f359d7b493c5894ee8c4656bf53d40a792f0e48a62a8e80645df3bea41bb",
  "number": 107673,
  "timestamp": 1439926630,
  "nonce": "0xaf067f551915bf17",
  "difficulty": 4389872249949,
  "gasLimit": {
    "_hex": "0x2fefd8"
  },
  "gasUsed": {
    "_hex": "0x5208"
  },
  "miner": "0x623d2411c3bb3340784155F9a688b0085251aB5c",
  "extraData": "0x",
  "transactions": [
    {
      "hash": "0xbcbb5c3980a5f7ec54f8ebad3039b0261c5d2fed37d9f4f9a2bd90e07ff53147",
      "blockHash": "0x97dcae132268d09ecae6ec69329b8cae3977353e1794317e29b1ccf8c2064804",
      "blockNumber": 107673,
      "transactionIndex": 0,
      "confirmations": null,
      "from": "0x0c6845bf41D5ee273c3Ee6b5b0D69F6fD5EabBF7",
      "gasPrice": {
        "_hex": "0xd7d40ace3"
      },
      "gasLimit": {
        "_hex": "0x15f90"
      },
      "to": "0x9A2AD14Bd6cf0D38DE656646c8Dc9c19771a2655",
      "value": {
        "_hex": "0xb1a2bc2ec50000"
      },
      "nonce": 0,
      "data": "0x",
      "r": "0xc30b73dea899d866a9f2eebf56c28cea3a45ec0f74ee140cb680e047fcbaaf6a",
      "s": "0x2beed4ff5edef2d13e6a45575c1c7b8ec536c9b883b4415ae4a5e78a82b3bb67",
      "v": 28,
      "creates": null,
      "raw": "0xf86c80850d7d40ace383015f90949a2ad14bd6cf0d38de656646c8dc9c19771a265587b1a2bc2ec50000801ca0c30b73dea899d866a9f2eebf56c28cea3a45ec0f74ee140cb680e047fcbaaf6aa02beed4ff5edef2d13e6a45575c1c7b8ec536c9b883b4415ae4a5e78a82b3bb67",
      "networkId": 0,
      "chainId": 0
    }
  ]
}