{
  "hash": "0xae6381b190b8e428547ceeda5d2019f303c9d5d6840edfabc487948a2d1827ab",
  "parentHash": "0xed6c4d4aa01fbb04de8706f9be8cbc4c2b32f1b7d0b79bfdf06c07cc1563d1ef",
  "number": 88121,
  "timestamp": 1439602999,
  "nonce": "0x3bc1abf04a8a765a",
  "difficulty": 3203513156791,
  "gasLimit": {
    "_hex": "0x2fefd8"
  },
  "gasUsed": {
    "_hex": "0x5728"
  },
  "miner": "0xe6A7a1d47ff21B6321162AEA7C6CB457D5476Bca",
  "extraData": "0x476574682f76312e302e312d38326566323666362f6c696e75782f676f312e34",
  "transactions": [
    {
      "hash": "0x78311ac68e1db3dea196e8aa9feff1855ee908d7246b1e5594aca9bf23816843",
      "blockHash": "0xae6381b190b8e428547ceeda5d2019f303c9d5d6840edfabc487948a2d1827ab",
      "blockNumber": 88121,
      "transactionIndex": 0,
      "confirmations": null,
      "from": "0xFD2605a2bF58fDbB90db1Da55dF61628B47F9e8c",
      "gasPrice": {
        "_hex": "0xd57c0500e"
      },
      "gasLimit": {
        "_hex": "0x15f90"
      },
      "to": "0xa50156cF80fa9eC2e16899E4fb7e072300787417",
      "value": {
        "_hex": "0x0"
      },
      "nonce": 65,
      "data": "0x960edffb000000000000000000000000000000000000000000000000000000000000000100000000000000000000000000000000000000000000000000000000000000000000000000000000000000000000000000000000000000000000000000000000",
      "r": "0x29f3d9fce2d86fb306155e3db4ead2a04296fcbd43daa30de36b42b599be2cd2",
      "s": "0x2263f5c551f8538b68d5477ec08dfe7e7abf4cb253f7b1b969b2733398c7da02",
      "v": 28,
      "creates": null,
      "raw": "0xf8ca41850d57c0500e83015f9094a50156cf80fa9ec2e16899e4fb7e07230078741780b864960edffb0000000000000000000000000000000000000000000000000000000000000001000000000000000000000000000000000000000000000000000000000000000000000000000000000000000000000000000000000000000000000000000000001ca029f3d9fce2d86fb306155e3db4ead2a04296fcbd43daa30de36b42b599be2cd2a02263f5c551f8538b68d5477ec08dfe7e7abf4cb253f7b1b969b2733398c7da02",
      "networkId": 0,
      "chainId": 0
    }
  ]
}