{
  "hash": "0x6d9af34bb0af91b976d80eeaff3fe98fba1cd46b5db28f258d2fbed958c012e8",
  "parentHash": "0x9fea26eb894926beb94976c81c659edaafc837edc6c73bc7bdc54848ae1d16e9",
  "number": 94143,
  "timestamp": 1439703283,
  "nonce": "0x1a9e065244307aa4",
  "difficulty": 3478280316535,
  "gasLimit": {
    "_hex": "0x2fefd8"
  },
  "gasUsed": {
    "_hex": "0xa674"
  },
  "miner": "0x02020D22dCF88f5eDd66B382D7da019F161fB7e3",
  "extraData": "0x",
  "transactions": [
    {
      "hash": "0xe59f46cee2e426642ed94ee96ad064bfc4675712042f27a4ec5043733d139afc",
      "blockHash": "0x6d9af34bb0af91b976d80eeaff3fe98fba1cd46b5db28f258d2fbed958c012e8",
      "blockNumber": 94143,
      "transactionIndex": 0,
      "confirmations": null,
      "from": "0xD043a011EC4270eE7eC8B968737515E503F83028",
      "gasPrice": {
        "_hex": "0x110c8f7d8de"
      },
      "gasLimit": {
        "_hex": "0xc350"
      },
      "to": "0x2910543Af39abA0Cd09dBb2D50200b3E800A63D2",
      "value": {
        "_hex": "0x57844cf68acea0000"
      },
      "nonce": 1,
      "data": "0x454e555a5052585438",
      "r": "0x77025cdd41311ca681f341961fd22e5b15413272155fd26167a01ebb9348d509",
      "s": "0xf263d60b6a3968922c71e917eea86cc8cd51268be888ab87bdedd17dd70ebf2a",
      "v": 27,
      "creates": null,
      "raw": "0xf87701860110c8f7d8de82c350942910543af39aba0cd09dbb2d50200b3e800a63d289057844cf68acea000089454e555a50525854381ba077025cdd41311ca681f341961fd22e5b15413272155fd26167a01ebb9348d509a0f263d60b6a3968922c71e917eea86cc8cd51268be888ab87bdedd17dd70ebf2a",
      "networkId": 0,
      "chainId": 0
    },
    {
      "hash": "0x27b9ccb821ef862a597897c633f3e21b9d6a610842bdd872058db8371bb9a803",
      "blockHash": "0x6d9af34bb0af91b976d80eeaff3fe98fba1cd46b5db28f258d2fbed958c012e8",
      "blockNumber": 94143,
      "transactionIndex": 1,
      "confirmations": null,
      "from": "0x007f7f58D3eb5b7510A301eCC749FC1fCDDBE14D",
      "gasPrice": {
        "_hex": "0xcfa82ac37"
      },
      "gasLimit": {
        "_hex": "0x15f90"
      },
      "to": "0xb1abce2918E21ddb93AA452731a12672A3d9F75a",
      "value": {
        "_hex": "0x4563918244f40000"
      },
      "nonce": 23,
      "data": "0x",
      "r": "0xc5257dea143db2b413e361a736230691f37734da90d411b0a9cfedae8e1eaf2b",
      "s": "0x25c0099f750e2193adc9b97583f916d472408cfffe7d5f79c0d8fb76a0ffe561",
      "v": 28,
      "creates": null,
      "raw": "0xf86d17850cfa82ac3783015f9094b1abce2918e21ddb93aa452731a12672a3d9f75a884563918244f40000801ca0c5257dea143db2b413e361a736230691f37734da90d411b0a9cfedae8e1eaf2ba025c0099f750e2193adc9b97583f916d472408cfffe7d5f79c0d8fb76a0ffe561",
      "networkId": 0,
      "chainId": 0
    }
  ]
}