{
  "hash": "0xd6a92c2fa4b41c148e9b82b33fa85ea870e5ed22421599b41daa7b763ef2f0eb",
  "parentHash": "0xddf3b1c8cee3947560518fc46a1ff568a03277fd2a5666e4a11ab115f93db9d6",
  "number": 81327,
  "timestamp": 1439499994,
  "nonce": "0xd701a4f28ab42c2c",
  "difficulty": 2436698118862,
  "gasLimit": {
    "_hex": "0x2fefd8"
  },
  "gasUsed": {
    "_hex": "0xa410"
  },
  "miner": "0xEF247E639d49461D25F57e9362CadE3120910Ce0",
  "extraData": "0x476574682f76312e302e312f6c696e75782f676f312e342e32",
  "transactions": [
    {
      "hash": "0xd0980cf0cd8017d044f40b9ba99354af0b6072b19dea6754915df6430f89dd03",
      "blockHash": "0xd6a92c2fa4b41c148e9b82b33fa85ea870e5ed22421599b41daa7b763ef2f0eb",
      "blockNumber": 81327,
      "transactionIndex": 0,
      "confirmations": null,
      "from": "0x9630Db4398d754a15E7E3A395269D2e884C5ec59",
      "gasPrice": {
        "_hex": "0xdfecfd645"
      },
      "gasLimit": {
        "_hex": "0x5208"
      },
      "to": "0x32Be343B94f860124dC4fEe278FDCBD38C102D88",
      "value": {
        "_hex": "0xad79c03c5dee70000"
      },
      "nonce": 1,
      "data": "0x",
      "r": "0xf86f9216f52241432c6abcee79ae4f2ec6ded8b8717ec741dce474fb97f2faf6",
      "s": "0x44d68ce62af94fc45ce71e2cb1865d727e58cd465374802157fec4e180c702db",
      "v": 28,
      "creates": null,
      "raw": "0xf86d01850dfecfd6458252089432be343b94f860124dc4fee278fdcbd38c102d88890ad79c03c5dee70000801ca0f86f9216f52241432c6abcee79ae4f2ec6ded8b8717ec741dce474fb97f2faf6a044d68ce62af94fc45ce71e2cb1865d727e58cd465374802157fec4e180c702db",
      "networkId": 0,
      "chainId": 0
    },
    {
      "hash": "0x2ae9b238d0a93ba849d2191fe322d8bdf7f00b8767d710ebd5f19a8e70848b9a",
      "blockHash": "0xd6a92c2fa4b41c148e9b82b33fa85ea870e5ed22421599b41daa7b763ef2f0eb",
      "blockNumber": 81327,
      "transactionIndex": 1,
      "confirmations": null,
      "from": "0x55bAf64fc9eAccFFd7Cc643BB61142E1C6ac093e",
      "gasPrice": {
        "_hex": "0xd3e0dd636"
      },
      "gasLimit": {
        "_hex": "0x55f0"
      },
      "to": "0xfE439e496730A23d448f85fA219972ea04793aB7",
      "value": {
        "_hex": "0xde0b6b3a7640000"
      },
      "nonce": 6,
      "data": "0x",
      "r": "0xed61822449c834cc08be16ce891e722de4298d469b457244e8da57e3ba667aaf",
      "s": "0x3a40757f7c2fab047dea525fd4ec952a70265c824c65280b5be8989cabc4c80b",
      "v": 27,
      "creates": null,
      "raw": "0xf86c06850d3e0dd6368255f094fe439e496730a23d448f85fa219972ea04793ab7880de0b6b3a7640000801ba0ed61822449c834cc08be16ce891e722de4298d469b457244e8da57e3ba667aafa03a40757f7c2fab047dea525fd4ec952a70265c824c65280b5be8989cabc4c80b",
      "networkId": 0,
      "chainId": 0
    }
  ]
}