{
  "hash": "0x8c09f1aa053bd2dc3e511c8b1dfd6ece3de12fe5ed6d259e65fdde9f3a8e2e57",
  "parentHash": "0xdd7ac4f8752e26a1e52f68c9fbe34f965ff17b7c051313b403038167fbab2afb",
  "number": 120185,
  "timestamp": 1440155519,
  "nonce": "0xab41a1d776f9bb15",
  "difficulty": 4404784746634,
  "gasLimit": {
    "_hex": "0x2fefd8"
  },
  "gasUsed": {
    "_hex": "0x1bdbe"
  },
  "miner": "0xe6A7a1d47ff21B6321162AEA7C6CB457D5476Bca",
  "extraData": "0xd783010002844765746887676f312e342e32856c696e7578",
  "transactions": [
    {
      "hash": "0x8b97683f9c75e77982f7706d7d20cb582d9e48d5362a8f28d84a81aebb4a7fd2",
      "blockHash": "0x8c09f1aa053bd2dc3e511c8b1dfd6ece3de12fe5ed6d259e65fdde9f3a8e2e57",
      "blockNumber": 120185,
      "transactionIndex": 0,
      "confirmations": null,
      "from": "0xfa2dEFbF683023a5d2f52b58f4d6B0E73e6d2515",
      "gasPrice": {
        "_hex": "0xba43b7400"
      },
      "gasLimit": {
        "_hex": "0x24dd8"
      },
      "to": "0xE28e72FCf78647ADCe1F1252F240bbfaebD63BcC",
      "value": {
        "_hex": "0x8ac7230489e800000"
      },
      "nonce": 3,
      "data": "0x45466f3a",
      "r": "0xaa75a179af104149475640cf8f6852910962dc03aaedc010ef7c8d7c56c5688d",
      "s": "0x36989df245e530aa8e472739e77fb122e6503fbd8fdee66083081d1c89f0f5e8",
      "v": 27,
      "creates": null,
      "raw": "0xf87203850ba43b740083024dd894e28e72fcf78647adce1f1252f240bbfaebd63bcc8908ac7230489e8000008445466f3a1ba0aa75a179af104149475640cf8f6852910962dc03aaedc010ef7c8d7c56c5688da036989df245e530aa8e472739e77fb122e6503fbd8fdee66083081d1c89f0f5e8",
      "networkId": 0,
      "chainId": 0
    }
  ]
}