{
  "hash": "0x7bb885f39717adbc397743e2e324d95d3a9196a7fb7cba6534dd553a205f7dcb",
  "parentHash": "0x7a12f699f4ed9442895ed1680e8b99cbffab88b95256b68b859793cef239992b",
  "number": 47452,
  "timestamp": 1438940621,
  "nonce": "0xe26b171673f851e7",
  "difficulty": 1448829929408,
  "gasLimit": {
    "_hex": "0xbfaf"
  },
  "gasUsed": {
    "_hex": "0x5208"
  },
  "miner": "0xDe7Fea21Fe516d824641ae65F97b60552568E30A",
  "extraData": "0x476574682f76312e302e312f6c696e75782f676f312e342e32",
  "transactions": [
    {
      "hash": "0xb3aa4f69611bd2b9e4e00440905ef8e452eaedc79598381635655eefdc5c0a4d",
      "blockHash": "0x7bb885f39717adbc397743e2e324d95d3a9196a7fb7cba6534dd553a205f7dcb",
      "blockNumber": 47452,
      "transactionIndex": 0,
      "confirmations": null,
      "from": "0xe6A7a1d47ff21B6321162AEA7C6CB457D5476Bca",
      "gasPrice": {
        "_hex": "0x19e0c59fa2"
      },
      "gasLimit": {
        "_hex": "0x5208"
      },
      "to": "0x775799247692DbF639c577eD0E77F82C373Ce4e2",
      "value": {
        "_hex": "0x19727668b805c00d0"
      },
      "nonce": 147,
      "data": "0x",
      "r": "0x8628e7072e36a01b3931e851370acb05fb83dc70164143428703aa034ad54a91",
      "s": "0x6e606a8b19b0bf430a4e45b19dec79b998fec4ac5c7aed43bcddea09f4a25f0b",
      "v": 28,
      "creates": null,
      "raw": "0xf86e81938519e0c59fa282520894775799247692dbf639c577ed0e77f82c373ce4e289019727668b805c00d0801ca08628e7072e36a01b3931e851370acb05fb83dc70164143428703aa034ad54a91a06e606a8b19b0bf430a4e45b19dec79b998fec4ac5c7aed43bcddea09f4a25f0b",
      "networkId": 0,
      "chainId": 0
    }
  ]
}