{
  "hash": "0x11f5b44a6f9b8aca17fa9c8dc326970703b848797ab4ba7b7cf181926fbdf99d",
  "parentHash": "0xa106c0e0b8a39142e8110d4aaed1029eb37f69f8e1ce2a6fb77848393ae6560a",
  "number": 51946,
  "timestamp": 1439013635,
  "nonce": "0xf06a5bbec06acb9d",
  "difficulty": 1556572345663,
  "gasLimit": {
    "_hex": "0xf399a"
  },
  "gasUsed": {
    "_hex": "0x5208"
  },
  "miner": "0x3222BA3F3e79eA0e31467EEE7639B57923558cCD",
  "extraData": "0x",
  "transactions": [
    {
      "hash": "0x7f963373ed373bb97f68d4881a8595fa296d23465c7cc7702ce91c5ed1baa8fb",
      "blockHash": "0x11f5b44a6f9b8aca17fa9c8dc326970703b848797ab4ba7b7cf181926fbdf99d",
      "blockNumber": 51946,
      "transactionIndex": 0,
      "confirmations": null,
      "from": "0x1308A2e95c0160B90803ddCA9B9a5bb55E416d79",
      "gasPrice": {
        "_hex": "0x9184e72a000"
      },
      "gasLimit": {
        "_hex": "0x15f90"
      },
      "to": "0xF3034367F87D24D3077fa9A2E38A8b0cCB1104eF",
      "value": {
        "_hex": "0x709563c4a45b40000"
      },
      "nonce": 11,
      "data": "0x",
      "r": "0x321709bc573b5d6ed577f268f376fa37e21936fa6f15e4bebc51625086cd8b9a",
      "s": "0x4d84ad4241c1a88214f8a56b841e197666b435b35fc8a2b52d69b3ca8a781bcd",
      "v": 28,
      "creates": null,
      "raw": "0xf86f0b8609184e72a00083015f9094f3034367f87d24d3077fa9a2e38a8b0ccb1104ef890709563c4a45b40000801ca0321709bc573b5d6ed577f268f376fa37e21936fa6f15e4bebc51625086cd8b9aa04d84ad4241c1a88214f8a56b841e197666b435b35fc8a2b52d69b3ca8a781bcd",
      "networkId": 0,
      "chainId": 0
    }
  ]
}