{
  "hash": "0xe741500d38940d8f9d45f26f65b60a77328e5e34bb24b10e21f78822baaea6ed",
  "parentHash": "0x5a2931aed36f1dd460518d8c59add0692173bb74a23feaf0d71cc3a8a18904cf",
  "number": 82726,
  "timestamp": 1439524253,
  "nonce": "0x64175b2932bde76e",
  "difficulty": 2371734747115,
  "gasLimit": {
    "_hex": "0x2fefd8"
  },
  "gasUsed": {
    "_hex": "0x5208"
  },
  "miner": "0x6dED38803DA575897de5d51b7AEF3b86f35945A1",
  "extraData": "0x476574682f76312e302e312f6c696e75782f676f312e342e32",
  "transactions": [
    {
      "hash": "0x7398adc140229b3e6cbb93c1f668659b43befe3ef42e14bdbe3c333db34ec00f",
      "blockHash": "0xe741500d38940d8f9d45f26f65b60a77328e5e34bb24b10e21f78822baaea6ed",
      "blockNumber": 82726,
      "transactionIndex": 0,
      "confirmations": null,
      "from": "0xEa63C59e990047BF874D6A47900521D711460B79",
      "gasPrice": {
        "_hex": "0xba43b7400"
      },
      "gasLimit": {
        "_hex": "0x5208"
      },
      "to": "0xC47Aaa860008be6f65B58c6C6E02a84e666EfE31",
      "value": {
        "_hex": "0x56bc3a335360c6000"
      },
      "nonce": 2,
      "data": "0x",
      "r": "0x851e9c1c9fbccf5fbd8f3ccc9cd2e8d22ca660e49fef68119feeefa8608eb203",
      "s": "0x189cd46585e5f2db4ec21e40203a5de5d84ca18444321d040f7e42f159088a6e",
      "v": 27,
      "creates": null,
      "raw": "0xf86d02850ba43b740082520894c47aaa860008be6f65b58c6c6e02a84e666efe3189056bc3a335360c6000801ba0851e9c1c9fbccf5fbd8f3ccc9cd2e8d22ca660e49fef68119feeefa8608eb203a0189cd46585e5f2db4ec21e40203a5de5d84ca18444321d040f7e42f159088a6e",
      "networkId": 0,
      "chainId": 0
    }
  ]
}