{
  "hash": "0x3d02b020a644d19ca0737976232465dbd71711ee6f82afdaa55a7ab064d4f400",
  "parentHash": "0x7237a691f06b9b30efbdb7b872bfefb1cbbb682f1ea51bb0ff83432cf32e5d89",
  "number": 87262,
  "timestamp": 1439589635,
  "nonce": "0xa38e1420d83b0745",
  "difficulty": 3076593944605,
  "gasLimit": {
    "_hex": "0x2fefd8"
  },
  "gasUsed": {
    "_hex": "0xa410"
  },
  "miner": "0xf927a40C8B7F6E07c5af7FA2155B4864a4112B13",
  "extraData": "0x",
  "transactions": [
    {
      "hash": "0x6468f08dcbcc06d5db707194d7b1ec741dbd02839bd70c71fd2381137d3fd5c2",
      "blockHash": "0x3d02b020a644d19ca0737976232465dbd71711ee6f82afdaa55a7ab064d4f400",
      "blockNumber": 87262,
      "transactionIndex": 0,
      "confirmations": null,
      "from": "0xa9f5E7bf6Cbf6fEc55B30850Eb492b47A376d050",
      "gasPrice": {
        "_hex": "0xcbecac762"
      },
      "gasLimit": {
        "_hex": "0x5208"
      },
      "to": "0x32Be343B94f860124dC4fEe278FDCBD38C102D88",
      "value": {
        "_hex": "0x1a0514854590c1000"
      },
      "nonce": 20,
      "data": "0x",
      "r": "0xee5a7dcd0a27252deaa3ec2b76e1642556230bf021a8f3d19a8dae661a631c1d",
      "s": "0x6c5e130728001ca89d71e169900ecc3fea6a3e9a19eda9ef9857e1774de15bba",
      "v": 27,
      "creates": null,
      "raw": "0xf86d14850cbecac7628252089432be343b94f860124dc4fee278fdcbd38c102d888901a0514854590c1000801ba0ee5a7dcd0a27252deaa3ec2b76e1642556230bf021a8f3d19a8dae661a631c1da06c5e130728001ca89d71e169900ecc3fea6a3e9a19eda9ef9857e1774de15bba",
      "networkId": 0,
      "chainId": 0
    },
    {
      "hash": "0x96c33f181a10eab0c6958d1d922c01cb6797a0a858ea540cde40285ddd47a93a",
      "blockHash": "0x3d02b020a644d19ca0737976232465dbd71711ee6f82afdaa55a7ab064d4f400",
      "blockNumber": 87262,
      "transactionIndex": 1,
      "confirmations": null,
      "from": "0x98077F47f89BEd877C8877Bf95753f6cE0CE4fcF",
      "gasPrice": {
        "_hex": "0xcbecac762"
      },
      "gasLimit": {
        "_hex": "0x5208"
      },
      "to": "0x32Be343B94f860124dC4fEe278FDCBD38C102D88",
      "value": {
        "_hex": "0x5d1aadc43455ac000"
      },
      "nonce": 4,
      "data": "0x",
      "r": "0x60cb8c547a6bf528b3af9c139497fe9472766f23cd3e3098507b6cb99ace9831",
      "s": "0x2b7462a5debeb2b4c7f876b55b319460d26066c39e99f9622829b5eac3513c70",
      "v": 27,
      "creates": null,
      "raw": "0xf86d04850cbecac7628252089432be343b94f860124dc4fee278fdcbd38c102d888905d1aadc43455ac000801ba060cb8c547a6bf528b3af9c139497fe9472766f23cd3e3098507b6cb99ace9831a02b7462a5debeb2b4c7f876b55b319460d26066c39e99f9622829b5eac3513c70",
      "networkId": 0,
      "chainId": 0
    }
  ]
}