{
  "hash": "0x98d42cdc2d68268f054e05e7690154aafb9559d1d456f2ffb78c006038fbaf37",
  "parentHash": "0x3a010230f98a903dc3aaaa73c3bc39e98358c304c8b7fcadff475a5c0e373035",
  "number": 77263,
  "timestamp": 1439434259,
  "nonce": "0x2a4f360d79c06061",
  "difficulty": 2234939794554,
  "gasLimit": {
    "_hex": "0x2fefd8"
  },
  "gasUsed": {
    "_hex": "0x5208"
  },
  "miner": "0xB7268c7705A1866b2A78e882fdfDc8E2a4e1428E",
  "extraData": "0x476574682f76312e302e312f77696e646f77732f676f312e342e32",
  "transactions": [
    {
      "hash": "0x126f39ba0e43f791ca50c457e620680e3f35a7083ca2df79bf4564837565aa0f",
      "blockHash": "0x98d42cdc2d68268f054e05e7690154aafb9559d1d456f2ffb78c006038fbaf37",
      "blockNumber": 77263,
      "transactionIndex": 0,
      "confirmations": null,
      "from": "0xB7268c7705A1866b2A78e882fdfDc8E2a4e1428E",
      "gasPrice": {
        "_hex": "0xcfc882193"
      },
      "gasLimit": {
        "_hex": "0x15f90"
      },
      "to": "0x96811Ad897894eC178872117C8BF2f03971A393B",
      "value": {
        "_hex": "0x14c5f7e1b829b0000"
      },
      "nonce": 15,
      "data": "0x",
      "r": "0xbded11e0ecfef1649f115599cdd1ab7c45ba09f02b47645437a9b6e44c36efef",
      "s": "0x459cb1ccaffecc111779c806bccf842e175135e6d2cd76a01e14582fa1c6384a",
      "v": 28,
      "creates": null,
      "raw": "0xf86e0f850cfc88219383015f909496811ad897894ec178872117c8bf2f03971a393b89014c5f7e1b829b0000801ca0bded11e0ecfef1649f115599cdd1ab7c45ba09f02b47645437a9b6e44c36efefa0459cb1ccaffecc111779c806bccf842e175135e6d2cd76a01e14582fa1c6384a",
      "networkId": 0,
      "chainId": 0
    }
  ]
}