{
  "hash": "0xa486688938902cddc690f955eab5a8b5f765bf3310196f89c03f61d1d72417da",
  "parentHash": "0xa7e87914d7e6e451d98b0590374eee6aeb800fc34089d7cd8f7a2e4c75ced1f9",
  "number": 105217,
  "timestamp": 1439883802,
  "nonce": "0x2eef031ffb2833bf",
  "difficulty": 4335762943571,
  "gasLimit": {
    "_hex": "0x2fefd8"
  },
  "gasUsed": {
    "_hex": "0xa410"
  },
  "miner": "0x55bAf64fc9eAccFFd7Cc643BB61142E1C6ac093e",
  "extraData": "0x",
  "transactions": [
    {
      "hash": "0x23297525c5ba4f319add41e24662275f6d7e66eb6527232247601b4c632c5ae6",
      "blockHash": "0xa486688938902cddc690f955eab5a8b5f765bf3310196f89c03f61d1d72417da",
      "blockNumber": 105217,
      "transactionIndex": 0,
      "confirmations": null,
      "from": "0x187b1f47Cd55b27878699DfCDCee2234cD49E97e",
      "gasPrice": {
        "_hex": "0xdab88a1a4"
      },
      "gasLimit": {
        "_hex": "0x5208"
      },
      "to": "0x32Be343B94f860124dC4fEe278FDCBD38C102D88",
      "value": {
        "_hex": "0x5171b6f228e678000"
      },
      "nonce": 7,
      "data": "0x",
      "r": "0xb9ec045e63183d7e4c746b07a8f170c1d2db76bfbc28a3becd719880926c914c",
      "s": "0x00f610b6fecbe484b1fd82146c3f4ebe7ad70b6ea83ce48714f81c28c0fb18aa",
      "v": 27,
      "creates": null,
      "raw": "0xf86c07850dab88a1a48252089432be343b94f860124dc4fee278fdcbd38c102d888905171b6f228e678000801ba0b9ec045e63183d7e4c746b07a8f170c1d2db76bfbc28a3becd719880926c914c9ff610b6fecbe484b1fd82146c3f4ebe7ad70b6ea83ce48714f81c28c0fb18aa",
      "networkId": 0,
      "chainId": 0
    },
    {
      "hash": "0x26fab4887e2660459933adc6766c975a3ee24f108eff4e7b712ca03e0fb95011",
      "blockHash": "0xa486688938902cddc690f955eab5a8b5f765bf3310196f89c03f61d1d72417da",
      "blockNumber": 105217,
      "transactionIndex": 1,
      "confirmations": null,
      "from": "0x0D4EcC7d750180EBf4A9Df728B6669B5Bceb5E40",
      "gasPrice": {
        "_hex": "0xdab88a1a4"
      },
      "gasLimit": {
        "_hex": "0x5208"
      },
      "to": "0x32Be343B94f860124dC4fEe278FDCBD38C102D88",
      "value": {
        "_hex": "0x49b5693dde7ca400"
      },
      "nonce": 77,
      "data": "0x",
      "r": "0x97010e808b81ee7e35cb1d818366f4bfd9d90e6b8278a1e030f2d02d3c987b52",
      "s": "0x4594fde19f31c60f51ba7adf610cd19e84deaf2fdd0d62bf99ff086981ec6e09",
      "v": 27,
      "creates": null,
      "raw": "0xf86c4d850dab88a1a48252089432be343b94f860124dc4fee278fdcbd38c102d888849b5693dde7ca400801ba097010e808b81ee7e35cb1d818366f4bfd9d90e6b8278a1e030f2d02d3c987b52a04594fde19f31c60f51ba7adf610cd19e84deaf2fdd0d62bf99ff086981ec6e09",
      "networkId": 0,
      "chainId": 0
    }
  ]
}