{
  "hash": "0x0ff95504f4ae03dbde64678bf0a78abfeab14f17251a600174e591d22f52b990",
  "parentHash": "0x8a49749375290dc287916be71c93056927f94ceca6423414f6b4c544d146dc13",
  "number": 96865,
  "timestamp": 1439747102,
  "nonce": "0xa39e49c48cccac47",
  "difficulty": 3734084184091,
  "gasLimit": {
    "_hex": "0x2fefd8"
  },
  "gasUsed": {
    "_hex": "0xa410"
  },
  "miner": "0xfC25864D8326b4CB335C6942218e5F4Ee8D1E1EF",
  "extraData": "0x476574682f76312e302e312f77696e646f77732f676f312e342e32",
  "transactions": [
    {
      "hash": "0x7360cff902cda7b38d9a33c0edcc4834c38dad7c64e647a88376bd9561e1624d",
      "blockHash": "0x0ff95504f4ae03dbde64678bf0a78abfeab14f17251a600174e591d22f52b990",
      "blockNumber": 96865,
      "transactionIndex": 0,
      "confirmations": null,
      "from": "0xC1CdC601f89c0428b31302D187e0dc08ad7D1C57",
      "gasPrice": {
        "_hex": "0xd67707f7b"
      },
      "gasLimit": {
        "_hex": "0x5208"
      },
      "to": "0xD58c3AfB06F28bE4dc3e3bc8573eDe1D73773458",
      "value": {
        "_hex": "0x2a1f0a87470e840000"
      },
      "nonce": 9,
      "data": "0x",
      "r": "0x0661584378011e2543611770ff756858c59c15d744328596937d92a4a6ae186c",
      "s": "0x3f7ddfd171a19aeb452ae66f65764e59ae935d30bd1f4aac20ee90d9ec7a7f3d",
      "v": 27,
      "creates": null,
      "raw": "0xf86d09850d67707f7b82520894d58c3afb06f28be4dc3e3bc8573ede1d73773458892a1f0a87470e840000801ba00661584378011e2543611770ff756858c59c15d744328596937d92a4a6ae186ca03f7ddfd171a19aeb452ae66f65764e59ae935d30bd1f4aac20ee90d9ec7a7f3d",
      "networkId": 0,
      "chainId": 0
    },
    {
      "hash": "0x2c0898a601849d8afef553d47a22d5a2b22584761aa82df4c48de9887eabc6cf",
      "blockHash": "0x0ff95504f4ae03dbde64678bf0a78abfeab14f17251a600174e591d22f52b990",
      "blockNumber": 96865,
      "transactionIndex": 1,
      "confirmations": null,
      "from": "0x3D5292e9d2a2D31014717ff936A0F9375A5Cc8b7",
      "gasPrice": {
        "_hex": "0xcee9e2000"
      },
      "gasLimit": {
        "_hex": "0x15f90"
      },
      "to": "0x9f78552704fe7e52cC7C3853534aA2C3cf580D54",
      "value": {
        "_hex": "0x7ce66c50e2840000"
      },
      "nonce": 5,
      "data": "0x",
      "r": "0x01b59207b7c854c9a8e973227b411c416a2bc7d739c18083744cb58a61831f6e",
      "s": "0x1b920178f1630e8e6223b22e74dcf02e774ecc6d94e06af83f5198240fcfe280",
      "v": 27,
      "creates": null,
      "raw": "0xf86d05850cee9e200083015f90949f78552704fe7e52cc7c3853534aa2c3cf580d54887ce66c50e2840000801ba001b59207b7c854c9a8e973227b411c416a2bc7d739c18083744cb58a61831f6ea01b920178f1630e8e6223b22e74dcf02e774ecc6d94e06af83f5198240fcfe280",
      "networkId": 0,
      "chainId": 0
    }
  ]
}