{
  "hash": "0x697f26c5460b9ae7ab9282248833d6df74573e3f48a669505b6a4367eabfe7ed",
  "parentHash": "0xcfb55479813ae516f8f569c31539a56d674c8809242c0b255db55ccacad8fba3",
  "number": 121365,
  "timestamp": 1440176052,
  "nonce": "0x929b393dc911d6ab",
  "difficulty": 4386994968252,
  "gasLimit": {
    "_hex": "0x2fefd8"
  },
  "gasUsed": {
    "_hex": "0xa410"
  },
  "miner": "0xe6A7a1d47ff21B6321162AEA7C6CB457D5476Bca",
  "extraData": "0xd783010002844765746887676f312e342e32856c696e7578",
  "transactions": [
    {
      "hash": "0x361576893aab782bd216535c2cd5b613226ebb23e20e1f49b67cffd3c2a72914",
      "blockHash": "0x697f26c5460b9ae7ab9282248833d6df74573e3f48a669505b6a4367eabfe7ed",
      "blockNumber": 121365,
      "transactionIndex": 0,
      "confirmations": null,
      "from": "0x2910543Af39abA0Cd09dBb2D50200b3E800A63D2",
      "gasPrice": {
        "_hex": "0xe215fa702"
      },
      "gasLimit": {
        "_hex": "0x5208"
      },
      "to": "0xF4520444303eaa6e2d2E3AC10A9483cD33185cc0",
      "value": {
        "_hex": "0x18e91efd5bd38000"
      },
      "nonce": 1191,
      "data": "0x",
      "r": "0x48ba396aaa2cc91fcde88f87c3b92d549221f91f2a66de4c3d5e2477669b7210",
      "s": "0x6737d15b4f72c1c12c71bb19e76ed076dfe790adf7b46bfbb5f73c2edfe10192",
      "v": 28,
      "creates": null,
      "raw": "0xf86e8204a7850e215fa70282520894f4520444303eaa6e2d2e3ac10a9483cd33185cc08818e91efd5bd38000801ca048ba396aaa2cc91fcde88f87c3b92d549221f91f2a66de4c3d5e2477669b7210a06737d15b4f72c1c12c71bb19e76ed076dfe790adf7b46bfbb5f73c2edfe10192",
      "networkId": 0,
      "chainId": 0
    },
    {
      "hash": "0x955a3bda5f9c77c4512ba91d20f11938b59a7a9bf9eca7f6b4101fd4cb9ef5b4",
      "blockHash": "0x697f26c5460b9ae7ab9282248833d6df74573e3f48a669505b6a4367eabfe7ed",
      "blockNumber": 121365,
      "transactionIndex": 1,
      "confirmations": null,
      "from": "0xe0e82eD3e93079cE76aAC1dA7b4bfa990D885A0D",
      "gasPrice": {
        "_hex": "0xba43b7400"
      },
      "gasLimit": {
        "_hex": "0x5208"
      },
      "to": "0xFBb1b73C4f0BDa4f67dcA266ce6Ef42f520fBB98",
      "value": {
        "_hex": "0x56bbfe83d0908c000"
      },
      "nonce": 9,
      "data": "0x",
      "r": "0x2de3a75bf3b7b9294ebdfe2e04318ef4b25d43f7d6934027b5bf44d99d4e929c",
      "s": "0x463c9df9bbfa42ac5d3f3749ceda9a477b8222091eda52149e1ae0a6d7486177",
      "v": 27,
      "creates": null,
      "raw": "0xf86d09850ba43b740082520894fbb1b73c4f0bda4f67dca266ce6ef42f520fbb9889056bbfe83d0908c000801ba02de3a75bf3b7b9294ebdfe2e04318ef4b25d43f7d6934027b5bf44d99d4e929ca0463c9df9bbfa42ac5d3f3749ceda9a477b8222091eda52149e1ae0a6d7486177",
      "networkId": 0,
      "chainId": 0
    }
  ]
}