{
  "hash": "0xaea9ed0c7f7a92d06cb7bd7fa63ab7fad5c70b2c793dd969e6dfde71f0c0dac9",
  "parentHash": "0xe8399b3ac3438602ea36ce0fc11951316869935c68b772be5267291a6442e1e0",
  "number": 102400,
  "timestamp": 1439837314,
  "nonce": "0xe294178fb6aab3d3",
  "difficulty": 3970350946118,
  "gasLimit": {
    "_hex": "0x2fefd8"
  },
  "gasUsed": {
    "_hex": "0x5208"
  },
  "miner": "0xC0EdE9a639d107851462c15f2fb729c7c61bBf62",
  "extraData": "0xda8098302e392e34312b2b302d524c696e75782f672b2b2f696e74",
  "transactions": [
    {
      "hash": "0x8cdbfccaca8a430154bf1df0cbc9215367793e533c2b873c3e001a3147fdd60c",
      "blockHash": "0xaea9ed0c7f7a92d06cb7bd7fa63ab7fad5c70b2c793dd969e6dfde71f0c0dac9",
      "blockNumber": 102400,
      "transactionIndex": 0,
      "confirmations": null,
      "from": "0x0037A6B811ffeB6e072DA21179d11B1406371C63",
      "gasPrice": {
        "_hex": "0xba43b7400"
      },
      "gasLimit": {
        "_hex": "0x5208"
      },
      "to": "0x8d4DB353d3E0EE04217252706DDB6D5bD03a28F5",
      "value": {
        "_hex": "0xf5232269808000"
      },
      "nonce": 4,
      "data": "0x",
      "r": "0x5030260032ac21ba67c8f6d59c3e798a069ba55b4ecfb28c9b00da8ca6a4f881",
      "s": "0x0b30434cc351ee8fe45cc34b58284cf19e6296898964c7c8ecf502d144dcee59",
      "v": 28,
      "creates": null,
      "raw": "0xf86b04850ba43b7400825208948d4db353d3e0ee04217252706ddb6d5bd03a28f587f5232269808000801ca05030260032ac21ba67c8f6d59c3e798a069ba55b4ecfb28c9b00da8ca6a4f881a00b30434cc351ee8fe45cc34b58284cf19e6296898964c7c8ecf502d144dcee59",
      "networkId": 0,
      "chainId": 0
    }
  ]
}