{
  "hash": "0x32f499e2ba9160ebb1f5715a1920e3d75a8264b2b45694269733239de3486866",
  "parentHash": "0xaea788e42b302cb5f59676d77b2b592600265792768c3136c4566bd87098ed2e",
  "number": 48704,
  "timestamp": 1438961453,
  "nonce": "0x5d9a7398464146f8",
  "difficulty": 1474302743536,
  "gasLimit": {
    "_hex": "0x1c6d9"
  },
  "gasUsed": {
    "_hex": "0xa8d8"
  },
  "miner": "0x580992B51e3925e23280EfB93d3047C82f17E038",
  "extraData": "0x476574682f76312e302e312f6c696e75782f676f312e342e32",
  "transactions": [
    {
      "hash": "0x8abd208d35e42f2cea9760cb9c9c4bc66b7a3ae7fd71439baecc92caf03bfd95",
      "blockHash": "0x32f499e2ba9160ebb1f5715a1920e3d75a8264b2b45694269733239de3486866",
      "blockNumber": 48704,
      "transactionIndex": 0,
      "confirmations": null,
      "from": "0x431F2C19E316B044a4b3E61A0C6ff8C104a1A12f",
      "gasPrice": {
        "_hex": "0x10dc90d85e7"
      },
      "gasLimit": {
        "_hex": "0x15f90"
      },
      "to": "0x2910543Af39abA0Cd09dBb2D50200b3E800A63D2",
      "value": {
        "_hex": "0x1b1ae4d6e2ef500000"
      },
      "nonce": 1,
      "data": "0x454e314338315a4247",
      "r": "0xaf058a4c98530bb776dd6c65dbd51037d9a4465ba3be5c9ad2e05870a073b57a",
      "s": "0x507ae692f8636f231d6a2f48dfe04123eecd4286d98e9c76d2c79823d1130b9b",
      "v": 27,
      "creates": null,
      "raw": "0xf8780186010dc90d85e783015f90942910543af39aba0cd09dbb2d50200b3e800a63d2891b1ae4d6e2ef50000089454e314338315a42471ba0af058a4c98530bb776dd6c65dbd51037d9a4465ba3be5c9ad2e05870a073b57aa0507ae692f8636f231d6a2f48dfe04123eecd4286d98e9c76d2c79823d1130b9b",
      "networkId": 0,
      "chainId": 0
    },
    {
      "hash": "0xefbb34027b0b8f9a4608fdd681d3d86b4b41d09dcfcd1707d217fc81527c695d",
      "blockHash": "0x32f499e2ba9160ebb1f5715a1920e3d75a8264b2b45694269733239de3486866",
      "blockNumber": 48704,
      "transactionIndex": 1,
      "confirmations": null,
      "from": "0x06D138312754bDEB5c1175f47cE00620c480E9C9",
      "gasPrice": {
        "_hex": "0xf1862d6e9"
      },
      "gasLimit": {
        "_hex": "0x15f90"
      },
      "to": "0x2910543Af39abA0Cd09dBb2D50200b3E800A63D2",
      "value": {
        "_hex": "0x4563918244f40000"
      },
      "nonce": 1,
      "data": "0x454e44454354474847",
      "r": "0xd8a5c0ffaf285607fb7e4076d909296243905f4bec845956d97c8c8eaf831c12",
      "s": "0x00a3f6b0ce61950234fb6025f4aecfc84f4b3e588f677677c963d3acf512f8dd",
      "v": 28,
      "creates": null,
      "raw": "0xf87501850f1862d6e983015f90942910543af39aba0cd09dbb2d50200b3e800a63d2884563918244f4000089454e444543544748471ca0d8a5c0ffaf285607fb7e4076d909296243905f4bec845956d97c8c8eaf831c129fa3f6b0ce61950234fb6025f4aecfc84f4b3e588f677677c963d3acf512f8dd",
      "networkId": 0,
      "chainId": 0
    }
  ]
}