{
  "hash": "0xa8bd7b3619583ba7351598f95e649720e4f9630a5fb3b4f4776ec91b16477c8b",
  "parentHash": "0x7025d8073b69019a94cd24059d6fc867cede97bc6289a9950921064650985f37",
  "number": 102697,
  "timestamp": 1439841744,
  "nonce": "0xc38853c7b7d8a2d0",
  "difficulty": 4054450556344,
  "gasLimit": {
    "_hex": "0x2fefd8"
  },
  "gasUsed": {
    "_hex": "0x5208"
  },
  "miner": "0x35e8e5dC5FBd97c5b421A80B596C030a2Be2A04D",
  "extraData": "0x476574682f76312e302e312f6c696e75782f676f312e342e32",
  "transactions": [
    {
      "hash": "0x882b661980caa133488343788062ea37e6e09b4122eedff893f4351cb75c28f2",
      "blockHash": "0xa8bd7b3619583ba7351598f95e649720e4f9630a5fb3b4f4776ec91b16477c8b",
      "blockNumber": 102697,
      "transactionIndex": 0,
      "confirmations": null,
      "from": "0x120A270bbC009644e35F0bB6ab13f95b8199c4ad",
      "gasPrice": {
        "_hex": "0xd1409bd62"
      },
      "gasLimit": {
        "_hex": "0x3d090"
      },
      "to": "0x60d85a32126130b225913C23dF4e5EF8b759fA09",
      "value": {
        "_hex": "0x25f273933db5700000"
      },
      "nonce": 704,
      "data": "0x",
      "r": "0x2f0a2817d845962a7fce9868b18338ede79b2eb5bb323e78bf017677dce666fd",
      "s": "0x385a1fa6e4f3a35892acc63f48995768d13b72449cb4ec6815452b1536397a20",
      "v": 28,
      "creates": null,
      "raw": "0xf8708202c0850d1409bd628303d0909460d85a32126130b225913c23df4e5ef8b759fa098925f273933db5700000801ca02f0a2817d845962a7fce9868b18338ede79b2eb5bb323e78bf017677dce666fda0385a1fa6e4f3a35892acc63f48995768d13b72449cb4ec6815452b1536397a20",
      "networkId": 0,
      "chainId": 0
    }
  ]
}