{
  "hash": "0xfd2b53625bcb9a7b2a3e4b7532a410216d6f20603dc141f09683c42608b281bd",
  "parentHash": "0xb4c143e87259b0737a554585a5461cf1abe5d6469767d4f963100b45f42d04d2",
  "number": 112806,
  "timestamp": 1440013596,
  "nonce": "0x0a9e5fc7fcea2aad",
  "difficulty": 4423755548697,
  "gasLimit": {
    "_hex": "0x2fefd8"
  },
  "gasUsed": {
    "_hex": "0xa410"
  },
  "miner": "0x580992B51e3925e23280EfB93d3047C82f17E038",
  "extraData": "0x476574682f76312e302e312f6c696e75782f676f312e342e32",
  "transactions": [
    {
      "hash": "0xf2c72bad8693a61f9ebf61d7eb6b6e0a1353fa49720f2c65d7be245d0fd98a30",
      "blockHash": "0xfd2b53625bcb9a7b2a3e4b7532a410216d6f20603dc141f09683c42608b281bd",
      "blockNumber": 112806,
      "transactionIndex": 0,
      "confirmations": null,
      "from": "0x2cf4364bc4C7C3333aB9963C4B3473664f42D83A",
      "gasPrice": {
        "_hex": "0xd52ba9d1f"
      },
      "gasLimit": {
        "_hex": "0x5208"
      },
      "to": "0x32Be343B94f860124dC4fEe278FDCBD38C102D88",
      "value": {
        "_hex": "0xa81d785c2df73000"
      },
      "nonce": 6,
      "data": "0x",
      "r": "0x3a23662cd5d7c2e59214b93b0a9144e7c4f454b98477cf52411b3113787e661c",
      "s": "0x43a8a46a4770a1ecfc28434d82866612a9f2a8bf7dfeb8e29275cef6931cbb76",
      "v": 28,
      "creates": null,
      "raw": "0xf86c06850d52ba9d1f8252089432be343b94f860124dc4fee278fdcbd38c102d8888a81d785c2df73000801ca03a23662cd5d7c2e59214b93b0a9144e7c4f454b98477cf52411b3113787e661ca043a8a46a4770a1ecfc28434d82866612a9f2a8bf7dfeb8e29275cef6931cbb76",
      "networkId": 0,
      "chainId": 0
    },
    {
      "hash": "0x3a5b30b4b2b0d9ecf2648567ffaa603bc452f35de02442b822cbc8406abe5027",
      "blockHash": "0xfd2b53625bcb9a7b2a3e4b7532a410216d6f20603dc141f09683c42608b281bd",
      "blockNumber": 112806,
      "transactionIndex": 1,
      "confirmations": null,
      "from": "0x2910543Af39abA0Cd09dBb2D50200b3E800A63D2",
      "gasPrice": {
        "_hex": "0xcb107317a"
      },
      "gasLimit": {
        "_hex": "0x5208"
      },
      "to": "0x416ca654f3F23e5c2A8De0b3A6F812D983E63E16",
      "value": {
        "_hex": "0x1b1ad31369b76f8000"
      },
      "nonce": 1113,
      "data": "0x",
      "r": "0xb9011d57ddeeeeb7c5eb71075aa684bfc61f2b992dad6f6b7c61f14d4cf0ad3f",
      "s": "0x3778a975811959a4675fb363761af59e03f9d641d40d890ed04598a7b9c48def",
      "v": 28,
      "creates": null,
      "raw": "0xf86f820459850cb107317a82520894416ca654f3f23e5c2a8de0b3a6f812d983e63e16891b1ad31369b76f8000801ca0b9011d57ddeeeeb7c5eb71075aa684bfc61f2b992dad6f6b7c61f14d4cf0ad3fa03778a975811959a4675fb363761af59e03f9d641d40d890ed04598a7b9c48def",
      "networkId": 0,
      "chainId": 0
    }
  ]
}