{
  "hash": "0x05a1cbd3a47749bdfd9520137a5a59e63c5caa62b7e67a5cfc446b417d299e53",
  "parentHash": "0x018248eab719a04dd13000d90c6159967345a71eccea01249f148140cffee853",
  "number": 112044,
  "timestamp": 1440000982,
  "nonce": "0xf2fcd310799e1a0f",
  "difficulty": 4376886627991,
  "gasLimit": {
    "_hex": "0x2fefd8"
  },
  "gasUsed": {
    "_hex": "0x5208"
  },
  "miner": "0x68E1B6FbAB2C4f9572Ffda08139D815A9192FA92",
  "extraData": "0x",
  "transactions": [
    {
      "hash": "0x765d77732f35767169e89e9bc7a28554110b528f180e46602cb4bc502c72de9b",
      "blockHash": "0x05a1cbd3a47749bdfd9520137a5a59e63c5caa62b7e67a5cfc446b417d299e53",
      "blockNumber": 112044,
      "transactionIndex": 0,
      "confirmations": null,
      "from": "0x2910543Af39abA0Cd09dBb2D50200b3E800A63D2",
      "gasPrice": {
        "_hex": "0xdf7665ee4"
      },
      "gasLimit": {
        "_hex": "0x5208"
      },
      "to": "0xc959D8Fc9fc194f999e3a62bAaf0286f4d4Ae629",
      "value": {
        "_hex": "0xdcef33a6f838000"
      },
      "nonce": 1099,
      "data": "0x",
      "r": "0xd85f83ffa546255deb9e3c241b3856690a68c5cf93b83dfeb6d115453c6e0523",
      "s": "0x412e5bd23604ec44c736f228ade271ef43d441c2e060f4d60c449dcc1a09dcda",
      "v": 27,
      "creates": null,
      "raw": "0xf86e82044b850df7665ee482520894c959d8fc9fc194f999e3a62baaf0286f4d4ae629880dcef33a6f838000801ba0d85f83ffa546255deb9e3c241b3856690a68c5cf93b83dfeb6d115453c6e0523a0412e5bd23604ec44c736f228ade271ef43d441c2e060f4d60c449dcc1a09dcda",
      "networkId": 0,
      "chainId": 0
    }
  ]
}