{
  "hash": "0x99e0b5b043e4f29b3df91029ff0cc29b50fcf7b656e5e8758944a4a1141fba66",
  "parentHash": "0xa430f833941bd0b8aed2bb80780a67cb0654e70874b671760b27ae86a91dc199",
  "number": 83826,
  "timestamp": 1439541456,
  "nonce": "0x6ad2a304c5a35bbc",
  "difficulty": 2444312648046,
  "gasLimit": {
    "_hex": "0x2fefd8"
  },
  "gasUsed": {
    "_hex": "0xa674"
  },
  "miner": "0xC603Ab5ef41fC61AA8b76bEddb09e3Cfcbb174BD",
  "extraData": "0x476574682f76312e302e312f77696e646f77732f676f312e342e32",
  "transactions": [
    {
      "hash": "0x3699db63f693dbc24f9697e533e575b0d201c2428e00cbe2f6b761c64b8ce107",
      "blockHash": "0x99e0b5b043e4f29b3df91029ff0cc29b50fcf7b656e5e8758944a4a1141fba66",
      "blockNumber": 83826,
      "transactionIndex": 0,
      "confirmations": null,
      "from": "0x04D6B8D4da867407bB997749dEbbcdC0B358538a",
      "gasPrice": {
        "_hex": "0x110c8f7d8de"
      },
      "gasLimit": {
        "_hex": "0xc350"
      },
      "to": "0x2910543Af39abA0Cd09dBb2D50200b3E800A63D2",
      "value": {
        "_hex": "0xad78ebc5ac6200000"
      },
      "nonce": 0,
      "data": "0x454e4a583431464438",
      "r": "0xf30765bd792f80be42375d0bfac69cfb48479c0d0a60df04e9d0252c9d8f2d28",
      "s": "0xe3a2addd91eee0d53dd4fd3b418a86c116d8785bc008df09ea9c5c89bcfe988b",
      "v": 28,
      "creates": null,
      "raw": "0xf87780860110c8f7d8de82c350942910543af39aba0cd09dbb2d50200b3e800a63d2890ad78ebc5ac620000089454e4a5834314644381ca0f30765bd792f80be42375d0bfac69cfb48479c0d0a60df04e9d0252c9d8f2d28a0e3a2addd91eee0d53dd4fd3b418a86c116d8785bc008df09ea9c5c89bcfe988b",
      "networkId": 0,
      "chainId": 0
    },
    {
      "hash": "0xb595b31298e1033ed55c45545fa8ddcf4a6a1e264d61cfb6b847e1452d10ae82",
      "blockHash": "0x99e0b5b043e4f29b3df91029ff0cc29b50fcf7b656e5e8758944a4a1141fba66",
      "blockNumber": 83826,
      "transactionIndex": 1,
      "confirmations": null,
      "from": "0xcd0Af3474e22F069EC3407870DD770443d5b12B0",
      "gasPrice": {
        "_hex": "0xccc2fe306"
      },
      "gasLimit": {
        "_hex": "0x7a120"
      },
      "to": "0x0bCa038BF4ACAd3Cbf73463EccC7717dDCDc3D83",
      "value": {
        "_hex": "0x56bc75e2d63100000"
      },
      "nonce": 1,
      "data": "0x",
      "r": "0xc36fe5b10c3b745e4553653fa804195de1e4c8d718b70831d782cb241d078b58",
      "s": "0x466b72ea7faa73636d9192621903ff0c8bfe3c059561eed7a230a7672d1f5815",
      "v": 27,
      "creates": null,
      "raw": "0xf86e01850ccc2fe3068307a120940bca038bf4acad3cbf73463eccc7717ddcdc3d8389056bc75e2d63100000801ba0c36fe5b10c3b745e4553653fa804195de1e4c8d718b70831d782cb241d078b58a0466b72ea7faa73636d9192621903ff0c8bfe3c059561eed7a230a7672d1f5815",
      "networkId": 0,
      "chainId": 0
    }
  ]
}