{
  "hash": "0x5f9057a8f16f1b50cc61e8d3274aac09d181964f0e2d34f48a27a64c7d286569",
  "parentHash": "0x323aedecd029e844079287ea254fcf915e1fec0e7267e0f04341108575c4e614",
  "number": 102734,
  "timestamp": 1439842397,
  "nonce": "0x92c4dbd2cfd2ac31",
  "difficulty": 4036654432875,
  "gasLimit": {
    "_hex": "0x2fefd8"
  },
  "gasUsed": {
    "_hex": "0x5208"
  },
  "miner": "0xe6A7a1d47ff21B6321162AEA7C6CB457D5476Bca",
  "extraData": "0x476574682f76312e302e312d38326566323666362f6c696e75782f676f312e34",
  "transactions": [
    {
      "hash": "0xd8551ef49518da0f4e0a76babde8ad8a8d2a7783134c9ecc4e53fd57a2523d6e",
      "blockHash": "0x5f9057a8f16f1b50cc61e8d3274aac09d181964f0e2d34f48a27a64c7d286569",
      "blockNumber": 102734,
      "transactionIndex": 0,
      "confirmations": null,
      "from": "0xd9c4a7022Acb3543826B6C1667FAd470f65f262E",
      "gasPrice": {
        "_hex": "0xe157e8be6"
      },
      "gasLimit": {
        "_hex": "0x5208"
      },
      "to": "0xFBb1b73C4f0BDa4f67dcA266ce6Ef42f520fBB98",
      "value": {
        "_hex": "0x5ec7a4636120b74d0"
      },
      "nonce": 2,
      "data": "0x",
      "r": "0x4af7b314eb5d247e7fb12b34df27605f73f1be396331fe39b6b6a6c73fd707ce",
      "s": "0x71d21d48e0f1df7d12a7054aad783ca3c95b5cdc3faf7c1f5a737dfc8a65d71a",
      "v": 28,
      "creates": null,
      "raw": "0xf86d02850e157e8be682520894fbb1b73c4f0bda4f67dca266ce6ef42f520fbb988905ec7a4636120b74d0801ca04af7b314eb5d247e7fb12b34df27605f73f1be396331fe39b6b6a6c73fd707cea071d21d48e0f1df7d12a7054aad783ca3c95b5cdc3faf7c1f5a737dfc8a65d71a",
      "networkId": 0,
      "chainId": 0
    }
  ]
}