{
  "hash": "0xada8fb38ce678658669540c6eaa75c6ec96f6060c44a34519380582e6b64d70a",
  "parentHash": "0x048d028cfb9df39eacce482c32ddac93b8f5db1bf8ba2dd4fee8fdcd74bcae5a",
  "number": 81323,
  "timestamp": 1439499912,
  "nonce": "0x1617e437e315f9aa",
  "difficulty": 2439080032388,
  "gasLimit": {
    "_hex": "0x2fefd8"
  },
  "gasUsed": {
    "_hex": "0xf618"
  },
  "miner": "0x52Dc504a422f0E2A9e7632A34a50f1a82F8224c7",
  "extraData": "0x476574682f76312e302e312f6c696e75782f676f312e342e32",
  "transactions": [
    {
      "hash": "0x471c6d0b76540df8f3b1e334339a73a7d17baab2322aa4cb1aa4f8161415b524",
      "blockHash": "0xada8fb38ce678658669540c6eaa75c6ec96f6060c44a34519380582e6b64d70a",
      "blockNumber": 81323,
      "transactionIndex": 0,
      "confirmations": null,
      "from": "0xb5425D52895036F7033B9f276A8429905C3cf042",
      "gasPrice": {
        "_hex": "0x10d89ca7a18"
      },
      "gasLimit": {
        "_hex": "0x15f90"
      },
      "to": "0xef134b5A9c77789C2a2F9dFF0439ccc5E3050e18",
      "value": {
        "_hex": "0x0"
      },
      "nonce": 1,
      "data": "0x",
      "r": "0x51cad8454589c93782d3897c5ce74cd59ad81165188a4b6bb8f0e3959e731156",
      "s": "0x651b3ba4476c516ac67ea283ca1979e45dbbc1f4cbdd0ce9e9b86520df8a26a7",
      "v": 27,
      "creates": null,
      "raw": "0xf8660186010d89ca7a1883015f9094ef134b5a9c77789c2a2f9dff0439ccc5e3050e1880801ba051cad8454589c93782d3897c5ce74cd59ad81165188a4b6bb8f0e3959e731156a0651b3ba4476c516ac67ea283ca1979e45dbbc1f4cbdd0ce9e9b86520df8a26a7",
      "networkId": 0,
      "chainId": 0
    },
    {
      "hash": "0x6548cd3e075a77657ed97894af201b1926a4647f7832d0efc48e2642f2ad04e6",
      "blockHash": "0xada8fb38ce678658669540c6eaa75c6ec96f6060c44a34519380582e6b64d70a",
      "blockNumber": 81323,
      "transactionIndex": 1,
      "confirmations": null,
      "from": "0x18E113D8177c691A61Be785852Fa5Bb47aEeBdAf",
      "gasPrice": {
        "_hex": "0xd5bfafe52"
      },
      "gasLimit": {
        "_hex": "0x7a120"
      },
      "to": "0x0000000000000000000000000000000000000000",
      "value": {
        "_hex": "0x98a7d9b8314c0000"
      },
      "nonce": 9,
      "data": "0x",
      "r": "0x1a610fd3085821d68b34ebda1282b28c401736ff6d224065b5bf34606b56aa2c",
      "s": "0x32b4d0877e87d291e16945841892e4b74e0bb865b9d5d2111f063cb9df2a3fdb",
      "v": 28,
      "creates": null,
      "raw": "0xf86d09850d5bfafe528307a1209400000000000000000000000000000000000000008898a7d9b8314c0000801ca01a610fd3085821d68b34ebda1282b28c401736ff6d224065b5bf34606b56aa2ca032b4d0877e87d291e16945841892e4b74e0bb865b9d5d2111f063cb9df2a3fdb",
      "networkId": 0,
      "chainId": 0
    },
    {
      "hash": "0x3755d325e04c4ad4dc0fe6be7a4d79bc479cb040c3bd3d98303d312de67715aa",
      "blockHash": "0xada8fb38ce678658669540c6eaa75c6ec96f6060c44a34519380582e6b64d70a",
      "blockNumber": 81323,
      "transactionIndex": 2,
      "confirmations": null,
      "from": "0x4C935bB250778b3C4c7F7E07FC251FA630314aAb",
      "gasPrice": {
        "_hex": "0xcbf398d59"
      },
      "gasLimit": {
        "_hex": "0x15f90"
      },
      "to": "0x09c932038d924D69Ea7002a7c0Eb2Ecafa204964",
      "value": {
        "_hex": "0x1b1ae4d6e2ef500000"
      },
      "nonce": 2,
      "data": "0x",
      "r": "0x8380c14ee1dfce1bc36b7157061cc5c9eea3e240aac642ad4608020f6d6ae232",
      "s": "0x475b31f9196dbf81d3f3e1285e3e10520d68f2d1e72025432ae5d71afad22acc",
      "v": 28,
      "creates": null,
      "raw": "0xf86e02850cbf398d5983015f909409c932038d924d69ea7002a7c0eb2ecafa204964891b1ae4d6e2ef500000801ca08380c14ee1dfce1bc36b7157061cc5c9eea3e240aac642ad4608020f6d6ae232a0475b31f9196dbf81d3f3e1285e3e10520d68f2d1e72025432ae5d71afad22acc",
      "networkId": 0,
      "chainId": 0
    }
  ]
}