{
  "hash": "0x6192ddaae53490b028a1d3a3f6781ec735dab3125bb33c38d504c31039a9ff0c",
  "parentHash": "0xeb3e9ffc1866ba0955d8b089903adb917d023a8b5d146956f9641357082ab77b",
  "number": 84166,
  "timestamp": 1439545842,
  "nonce": "0xa80f6560d818cd7b",
  "difficulty": 2509517782795,
  "gasLimit": {
    "_hex": "0x2fefd8"
  },
  "gasUsed": {
    "_hex": "0x546c"
  },
  "miner": "0xe6A7a1d47ff21B6321162AEA7C6CB457D5476Bca",
  "extraData": "0x476574682f76312e302e312d38326566323666362f6c696e75782f676f312e34",
  "transactions": [
    {
      "hash": "0xdde00a5b3d58e03e1cc9b74b7456b7f499a6faa57d984b7b67dc52c667a1e5b3",
      "blockHash": "0x6192ddaae53490b028a1d3a3f6781ec735dab3125bb33c38d504c31039a9ff0c",
      "blockNumber": 84166,
      "transactionIndex": 0,
      "confirmations": null,
      "from": "0x1dD77441844Afe9cC18f15D8C77bcCfb655Ee034",
      "gasPrice": {
        "_hex": "0x110c8f7d8de"
      },
      "gasLimit": {
        "_hex": "0xc350"
      },
      "to": "0x2910543Af39abA0Cd09dBb2D50200b3E800A63D2",
      "value": {
        "_hex": "0x106a5e1c616ff940000"
      },
      "nonce": 0,
      "data": "0x454e52383835464b52",
      "r": "0x596e0a81fdbeefca70076a4c90b357a6783789d09ae4978195d340c579eaaa8a",
      "s": "0x146ac920074194a54db5e608d5e17b05d9ca64d07431a530bab8d60838b751d4",
      "v": 28,
      "creates": null,
      "raw": "0xf87880860110c8f7d8de82c350942910543af39aba0cd09dbb2d50200b3e800a63d28a0106a5e1c616ff94000089454e52383835464b521ca0596e0a81fdbeefca70076a4c90b357a6783789d09ae4978195d340c579eaaa8aa0146ac920074194a54db5e608d5e17b05d9ca64d07431a530bab8d60838b751d4",
      "networkId": 0,
      "chainId": 0
    }
  ]
}