{
  "hash": "0xa1cc84fadcfa03453d1cff8384fa9104435b2bef860fa46e7280e39dee67f2d1",
  "parentHash": "0xf833fbe1cb071f446db9c7a4944c66f2a7a923c6961add24675bbd154a28034e",
  "number": 74780,
  "timestamp": 1439392232,
  "nonce": "0x6199ea97cebd7740",
  "difficulty": 2195574797918,
  "gasLimit": {
    "_hex": "0x2fefd8"
  },
  "gasUsed": {
    "_hex": "0x5208"
  },
  "miner": "0x1D610182baEfdE3f816B9E2538399e98AF619Ff0",
  "extraData": "0x",
  "transactions": [
    {
      "hash": "0xe7513b370d30966839cb9cfe67f9a159dbded8f86d626da05ed64f1d56ee154f",
      "blockHash": "0xa1cc84fadcfa03453d1cff8384fa9104435b2bef860fa46e7280e39dee67f2d1",
      "blockNumber": 74780,
      "transactionIndex": 0,
      "confirmations": null,
      "from": "0xc97b6E47df229442524F8f210926557900f81574",
      "gasPrice": {
        "_hex": "0xd5b98daa7"
      },
      "gasLimit": {
        "_hex": "0x5208"
      },
      "to": "0x32Be343B94f860124dC4fEe278FDCBD38C102D88",
      "value": {
        "_hex": "0x1158a08df31e61000"
      },
      "nonce": 10,
      "data": "0x",
      "r": "0xcea9cd8353b46492d8651fc884725acd5ad7611a508c6a6570f2a4ca01b77485",
      "s": "0x4127ee9db5903b6c27973cf82e5daef12c492fedc3f057b016daa1d123ea7130",
      "v": 27,
      "creates": null,
      "raw": "0xf86d0a850d5b98daa78252089432be343b94f860124dc4fee278fdcbd38c102d888901158a08df31e61000801ba0cea9cd8353b46492d8651fc884725acd5ad7611a508c6a6570f2a4ca01b77485a04127ee9db5903b6c27973cf82e5daef12c492fedc3f057b016daa1d123ea7130",
      "networkId": 0,
      "chainId": 0
    }
  ]
}