{
  "hash": "0xf3478c60064e32d81c2d3aa1a11b19e9e479f80b136aab8dd030af2822e2485d",
  "parentHash": "0xac8219dc0a2c6e07be8e6646b48d22a33a603ccac79a683f8b973f92ee6bf1ab",
  "number": 61519,
  "timestamp": 1439173592,
  "nonce": "0xae1093bf14db6d9e",
  "difficulty": 1743842656785,
  "gasLimit": {
    "_hex": "0x2fefd8"
  },
  "gasUsed": {
    "_hex": "0x5208"
  },
  "miner": "0xbb7B8287f3F0a933474a79eAe42CBCa977791171",
  "extraData": "0x476574682f4c5649562f76312e302e312f6c696e75782f676f312e342e32",
  "transactions": [
    {
      "hash": "0x223881a6b78c088d111bec469e556ad911d7bd1c499fb25491ab534579f65724",
      "blockHash": "0xf3478c60064e32d81c2d3aa1a11b19e9e479f80b136aab8dd030af2822e2485d",
      "blockNumber": 61519,
      "transactionIndex": 0,
      "confirmations": null,
      "from": "0xd5d9a0033e6B0A3ba7634d0e1a9055ad5f452C3D",
      "gasPrice": {
        "_hex": "0xce2d547e6"
      },
      "gasLimit": {
        "_hex": "0x5208"
      },
      "to": "0x32Be343B94f860124dC4fEe278FDCBD38C102D88",
      "value": {
        "_hex": "0xddc95a43d001c00"
      },
      "nonce": 3,
      "data": "0x",
      "r": "0xe0070085bbb3a4aba9c971b720095e5d10c8e2c5e3737e0630a4c028799ba7e2",
      "s": "0x0c8ca0c9c392be1df681374ad297000ae529f23b966ce6c7a30c24156ed507ae",
      "v": 27,
      "creates": null,
      "raw": "0xf86c03850ce2d547e68252089432be343b94f860124dc4fee278fdcbd38c102d88880ddc95a43d001c00801ba0e0070085bbb3a4aba9c971b720095e5d10c8e2c5e3737e0630a4c028799ba7e2a00c8ca0c9c392be1df681374ad297000ae529f23b966ce6c7a30c24156ed507ae",
      "networkId": 0,
      "chainId": 0
    }
  ]
}