{
  "hash": "0xd78ffd327a91f6ba47a0b9eed4735c8adb42793c46074784801cc1f221ca6da3",
  "parentHash": "0xb2941c957cf27567ea055fb1afbca5e2b8124bb8730cf452cf07e771c224e77a",
  "number": 81988,
  "timestamp": 1439511393,
  "nonce": "0x77a5aaecc5543e18",
  "difficulty": 2406944409829,
  "gasLimit": {
    "_hex": "0x2fefd8"
  },
  "gasUsed": {
    "_hex": "0x5208"
  },
  "miner": "0xEF247E639d49461D25F57e9362CadE3120910Ce0",
  "extraData": "0x476574682f76312e302e312f6c696e75782f676f312e342e32",
  "transactions": [
    {
      "hash": "0x9040bb359e235f0828ec3ab6d0407a2c3e627875b81c3c4d87b3e501b53797c1",
      "blockHash": "0xd78ffd327a91f6ba47a0b9eed4735c8adb42793c46074784801cc1f221ca6da3",
      "blockNumber": 81988,
      "transactionIndex": 0,
      "confirmations": null,
      "from": "0x6923f88FCDC5D737237Ba10C2D830Aa40F4634de",
      "gasPrice": {
        "_hex": "0xd9341fe2e"
      },
      "gasLimit": {
        "_hex": "0x15f90"
      },
      "to": "0x0F87Fb507513e749081E34373c84E95e85b5c057",
      "value": {
        "_hex": "0x20c0677f05ec0000"
      },
      "nonce": 1,
      "data": "0x",
      "r": "0x8d205b2acd45784dc52bb78dd4ac54f06f66c345d74f234c630df0fd965bdbfb",
      "s": "0x37fe05b586b1718ef50e22b9598b9a1fe1ddfd5c08fb95a6023f8c8895ef2632",
      "v": 28,
      "creates": null,
      "raw": "0xf86d01850d9341fe2e83015f90940f87fb507513e749081e34373c84e95e85b5c0578820c0677f05ec0000801ca08d205b2acd45784dc52bb78dd4ac54f06f66c345d74f234c630df0fd965bdbfba037fe05b586b1718ef50e22b9598b9a1fe1ddfd5c08fb95a6023f8c8895ef2632",
      "networkId": 0,
      "chainId": 0
    }
  ]
}