{
  "hash": "0x6150b3979837d450f4e61cec4ce2ad845f51d3c8e3bfb24a687f6dd1782e9106",
  "parentHash": "0xa3f3248eaf2fd4fa94f6263122ac37d6b991ef36f28838bebf2285067af64c29",
  "number": 46261,
  "timestamp": 1438920178,
  "nonce": "0x5d350850c79c877e",
  "difficulty": 1461113835132,
  "gasLimit": {
    "_hex": "0x5744"
  },
  "gasUsed": {
    "_hex": "0x5208"
  },
  "miner": "0x863b7d048A0B7bfc239AF19F6A736E0995fB1C73",
  "extraData": "0x476574682f76312e302e312f6c696e75782f676f312e342e32",
  "transactions": [
    {
      "hash": "0xb5d9600f78d76834ca44efc0e6dbc1e11b34007807ee4076afb6bf8933a74048",
      "blockHash": "0x6150b3979837d450f4e61cec4ce2ad845f51d3c8e3bfb24a687f6dd1782e9106",
      "blockNumber": 46261,
      "transactionIndex": 0,
      "confirmations": null,
      "from": "0x15e34A8324164Ef0890471F6f527451F7a22CF12",
      "gasPrice": {
        "_hex": "0x22b5fd5be3"
      },
      "gasLimit": {
        "_hex": "0x5208"
      },
      "to": "0x2c00e533f36aC741A29be87ACb63366D2200138C",
      "value": {
        "_hex": "0x56bc75e2d63100000"
      },
      "nonce": 0,
      "data": "0x",
      "r": "0x1aebaa0a52002473ae189214a0362984337709f42b16db72d98ad1c96b950df4",
      "s": "0x1577984ae3c1475a85f3dd727833b5a1e38a1d8ebdf2de4e4d954235d73c890c",
      "v": 28,
      "creates": null,
      "raw": "0xf86d808522b5fd5be3825208942c00e533f36ac741a29be87acb63366d2200138c89056bc75e2d63100000801ca01aebaa0a52002473ae189214a0362984337709f42b16db72d98ad1c96b950df4a01577984ae3c1475a85f3dd727833b5a1e38a1d8ebdf2de4e4d954235d73c890c",
      "networkId": 0,
      "chainId": 0
    }
  ]
}