{
  "hash": "0xe85613c9c8d3ae9e6157519c443b322855cdc9f4b898101ab8567ec3da6183bc",
  "parentHash": "0xe889d50060ad83f5b667227ec641d968991724c34f8e3d8bbba00f7a9b63877f",
  "number": 68871,
  "timestamp": 1439294969,
  "nonce": "0x45a93a979fa79b95",
  "difficulty": 2021120754686,
  "gasLimit": {
    "_hex": "0x2fefd8"
  },
  "gasUsed": {
    "_hex": "0x5208"
  },
  "miner": "0x580992B51e3925e23280EfB93d3047C82f17E038",
  "extraData": "0x476574682f76312e302e312f6c696e75782f676f312e342e32",
  "transactions": [
    {
      "hash": "0xfbc9e02b8236e410274dd2db01ede94499810dad0e00a903ba4fd00838a80661",
      "blockHash": "0xe85613c9c8d3ae9e6157519c443b322855cdc9f4b898101ab8567ec3da6183bc",
      "blockNumber": 68871,
      "transactionIndex": 0,
      "confirmations": null,
      "from": "0x6747f922385c9a6F9cfDf095F34345257DD597bE",
      "gasPrice": {
        "_hex": "0xba43b7400"
      },
      "gasLimit": {
        "_hex": "0x5208"
      },
      "to": "0xed7Acd96BD5299c49DBBe1a3803f989fA3c64494",
      "value": {
        "_hex": "0x1fcbfa42bd6000"
      },
      "nonce": 138,
      "data": "0x",
      "r": "0xb88ccd959d235329422c4b899a1aad836298adcd34d9df3718e1dc837c6aeecd",
      "s": "0x27ad53a13eed95d15683f2af6ae8998a540234e8610829b78f558e03bf67b820",
      "v": 28,
      "creates": null,
      "raw": "0xf86c818a850ba43b740082520894ed7acd96bd5299c49dbbe1a3803f989fa3c64494871fcbfa42bd6000801ca0b88ccd959d235329422c4b899a1aad836298adcd34d9df3718e1dc837c6aeecda027ad53a13eed95d15683f2af6ae8998a540234e8610829b78f558e03bf67b820",
      "networkId": 0,
      "chainId": 0
    }
  ]
}