{
  "hash": "0x0ee068d1ec46dc9782a4a434a68eded9d899bed193f89483bd437c9e638a8161",
  "parentHash": "0xe4edaa3536a38ba35d06e479b369d7812daacec9fad2cab1d9370fecc5c1059c",
  "number": 84737,
  "timestamp": 1439553923,
  "nonce": "0x098a79cd250c2927",
  "difficulty": 2615686160836,
  "gasLimit": {
    "_hex": "0x2fefd8"
  },
  "gasUsed": {
    "_hex": "0xa674"
  },
  "miner": "0x87898CE53471043FcCa0a2aF4E1dC6d8B3fCf607",
  "extraData": "0x476574682f5369626572696131392f76312e302e312d37666266393930632f6c",
  "transactions": [
    {
      "hash": "0x836be55143eb28b324ec7a84c23a5b1d2f68bb75d779fd7dc4b977e72f064161",
      "blockHash": "0x0ee068d1ec46dc9782a4a434a68eded9d899bed193f89483bd437c9e638a8161",
      "blockNumber": 84737,
      "transactionIndex": 0,
      "confirmations": null,
      "from": "0x6651736Fb59B91fEE9c93aa0BD6eA2F7b2506180",
      "gasPrice": {
        "_hex": "0x110c8f7d8de"
      },
      "gasLimit": {
        "_hex": "0xc350"
      },
      "to": "0x2910543Af39abA0Cd09dBb2D50200b3E800A63D2",
      "value": {
        "_hex": "0x113d22f329ee380000"
      },
      "nonce": 3,
      "data": "0x454e343041304b5530",
      "r": "0x8cd1729f97ff35ffd0d2926f0fc3e37a730010458ae02f7a389795d7b1294f9c",
      "s": "0x417d8c4d189912d944f053c80bc4800b61143830cff577dd992641d657be3929",
      "v": 27,
      "creates": null,
      "raw": "0xf87703860110c8f7d8de82c350942910543af39aba0cd09dbb2d50200b3e800a63d289113d22f329ee38000089454e343041304b55301ba08cd1729f97ff35ffd0d2926f0fc3e37a730010458ae02f7a389795d7b1294f9ca0417d8c4d189912d944f053c80bc4800b61143830cff577dd992641d657be3929",
      "networkId": 0,
      "chainId": 0
    },
    {
      "hash": "0x4aa1a99de4d6b09b59cb3a050a8c0796fe030d0e619352e4afb27a88ba16234b",
      "blockHash": "0x0ee068d1ec46dc9782a4a434a68eded9d899bed193f89483bd437c9e638a8161",
      "blockNumber": 84737,
      "transactionIndex": 1,
      "confirmations": null,
      "from": "0x88a0A05437262a1b65f41A978Cb16CB1f0BFCfE0",
      "gasPrice": {
        "_hex": "0xd0184c6c9"
      },
      "gasLimit": {
        "_hex": "0x15f90"
      },
      "to": "0x5F28bcc5faFC8982536A9e4be559657998CdE1E3",
      "value": {
        "_hex": "0x2b48e9f8aeed0a800"
      },
      "nonce": 12,
      "data": "0x",
      "r": "0x503ec7d3040675a79416b0bace4d1a73ad2b04e1fa199220c14da11e743117ae",
      "s": "0x2179c31e3a2edf0631290874854cc311e07a91b5cbc69f13c8166d7c1c55b9b3",
      "v": 27,
      "creates": null,
      "raw": "0xf86e0c850d0184c6c983015f90945f28bcc5fafc8982536a9e4be559657998cde1e38902b48e9f8aeed0a800801ba0503ec7d3040675a79416b0bace4d1a73ad2b04e1fa199220c14da11e743117aea02179c31e3a2edf0631290874854cc311e07a91b5cbc69f13c8166d7c1c55b9b3",
      "networkId": 0,
      "chainId": 0
    }
  ]
}