{
  "hash": "0xa304ca170817f1bf56bbef78092b9378be60e02f5c8eaaf66efb576c95868df2",
  "parentHash": "0xac666de54796331e90d45676f3a3c51b376ca7c94c72703d6f2a2fac6636d6fb",
  "number": 74202,
  "timestamp": 1439382205,
  "nonce": "0x1d5dbf85294763a6",
  "difficulty": 2215109516410,
  "gasLimit": {
    "_hex": "0x2fefd8"
  },
  "gasUsed": {
    "_hex": "0x5208"
  },
  "miner": "0x0193d941b50d91BE6567c7eE1C0Fe7AF498b4137",
  "extraData": "0x4a5ace9e4e",
  "transactions": [
    {
      "hash": "0x4fe33f102f67048ff7c05753ff53d4e5f9eae0cf96aaa37b26e67f590e13b8e0",
      "blockHash": "0xa304ca170817f1bf56bbef78092b9378be60e02f5c8eaaf66efb576c95868df2",
      "blockNumber": 74202,
      "transactionIndex": 0,
      "confirmations": null,
      "from": "0x40B9b889A21Ff1534d018D71Dc406122EBcf3F5A",
      "gasPrice": {
        "_hex": "0x1129bd0a797"
      },
      "gasLimit": {
        "_hex": "0x15f90"
      },
      "to": "0xbb925D6943D404dCc76cF6245D383fF759150BF8",
      "value": {
        "_hex": "0x6124fee993bc0000"
      },
      "nonce": 9,
      "data": "0x",
      "r": "0x51a717175ea8e003e56d7efe2b9d35d522c952a9427277a72327dc10ff30de07",
      "s": "0x28e55d3438e924cb74e2433e3071cd9fbdf540c76f8411ea4e953462d3c2f694",
      "v": 28,
      "creates": null,
      "raw": "0xf86e098601129bd0a79783015f9094bb925d6943d404dcc76cf6245d383ff759150bf8886124fee993bc0000801ca051a717175ea8e003e56d7efe2b9d35d522c952a9427277a72327dc10ff30de07a028e55d3438e924cb74e2433e3071cd9fbdf540c76f8411ea4e953462d3c2f694",
      "networkId": 0,
      "chainId": 0
    }
  ]
}