{
  "hash": "0xabc92f478817342b3f0a54fa02cf61777b85191c8deb54a6e04454fbd2492032",
  "parentHash": "0x1163975d0893eaf05a468443c5bae3368fa2164285759fc6b1887f77753e34b1",
  "number": 66818,
  "timestamp": 1439260662,
  "nonce": "0x69b512192121d870",
  "difficulty": 1958460370978,
  "gasLimit": {
    "_hex": "0x2fefd8"
  },
  "gasUsed": {
    "_hex": "0x5208"
  },
  "miner": "0x9746c7e1ef2bd21FF3997fa467593a89cb852BD0",
  "extraData": "0x476574682f76312e302e312f77696e646f77732f676f312e342e32",
  "transactions": [
    {
      "hash": "0x2f271c17a8254d205a86e69689356209806e0215402e351a472c123908e60974",
      "blockHash": "0xabc92f478817342b3f0a54fa02cf61777b85191c8deb54a6e04454fbd2492032",
      "blockNumber": 66818,
      "transactionIndex": 0,
      "confirmations": null,
      "from": "0x5e0320BB4D82AB8Bb5d7291f2C67D1c99aBb3C05",
      "gasPrice": {
        "_hex": "0xd1d406231"
      },
      "gasLimit": {
        "_hex": "0x15f90"
      },
      "to": "0x2473Aaa3cbf24903c381650Ffeb0626abf2F41EE",
      "value": {
        "_hex": "0x5af3107a4000"
      },
      "nonce": 3,
      "data": "0x",
      "r": "0xe9d08f1b195a30a7a586636957dcefa037c159d0881b5b680ceba5790dc44a76",
      "s": "0x4f7bc4c4f37d9732eae5c5e42f6b0818bc748435b56d50217e0c5627b9f36c13",
      "v": 27,
      "creates": null,
      "raw": "0xf86b03850d1d40623183015f90942473aaa3cbf24903c381650ffeb0626abf2f41ee865af3107a4000801ba0e9d08f1b195a30a7a586636957dcefa037c159d0881b5b680ceba5790dc44a76a04f7bc4c4f37d9732eae5c5e42f6b0818bc748435b56d50217e0c5627b9f36c13",
      "networkId": 0,
      "chainId": 0
    }
  ]
}