{
  "hash": "0xf6a9e7897967de3c885c6e2ca3149788279f62e01f7d8cd362cd5e55723fc468",
  "parentHash": "0xe393778357850deed8ad0d14aae50b23ec314340fe30bd9ecbe27d0b7897e6a5",
  "number": 75774,
  "timestamp": 1439409071,
  "nonce": "0x98c78a22299fe4e3",
  "difficulty": 2227709268802,
  "gasLimit": {
    "_hex": "0x2fefd8"
  },
  "gasUsed": {
    "_hex": "0x5703"
  },
  "miner": "0x93641e54c9aA6F9038FE7Adb03629a1747326Cd6",
  "extraData": "0x476574682f76312e302e312f77696e646f77732f676f312e342e32",
  "transactions": [
    {
      "hash": "0xd677877456567c1e109fba21ad934a73a797212b8f2d83aa0c5fef4755d885c6",
      "blockHash": "0xf6a9e7897967de3c885c6e2ca3149788279f62e01f7d8cd362cd5e55723fc468",
      "blockNumber": 75774,
      "transactionIndex": 0,
      "confirmations": null,
      "from": "0x6A06499CEEe3eA86F394568874b5BDf6e9e26074",
      "gasPrice": {
        "_hex": "0xdb1e6559a"
      },
      "gasLimit": {
        "_hex": "0x61a80"
      },
      "to": "0x5Fe5B7546D1628f7348B023A0393de1FC825A4fD",
      "value": {
        "_hex": "0x0"
      },
      "nonce": 0,
      "data": "0x5808e1c20000000000000000000000000000000000000000000000000000000000000022",
      "r": "0x62a89a62c2dc7f87cde963c5a464a1efc85e226c5cf4a1aa6cb3937e3bc884eb",
      "s": "0x42c9ba5a529b6a9d11bd611c3fe4479fb49e46668e369a33dc412cb5d84422a9",
      "v": 28,
      "creates": null,
      "raw": "0xf88980850db1e6559a83061a80945fe5b7546d1628f7348b023a0393de1fc825a4fd80a45808e1c200000000000000000000000000000000000000000000000000000000000000221ca062a89a62c2dc7f87cde963c5a464a1efc85e226c5cf4a1aa6cb3937e3bc884eba042c9ba5a529b6a9d11bd611c3fe4479fb49e46668e369a33dc412cb5d84422a9",
      "networkId": 0,
      "chainId": 0
    }
  ]
}