{
  "hash": "0x72a65383508326d94fc577250dcd6976230f47e2bfef1755b9fef8c119ab203a",
  "parentHash": "0x2e08e7466f5fd837fb8d5e1f65631fffd1b28cbbb6f935d99d47e4932987bbcd",
  "number": 121856,
  "timestamp": 1440183765,
  "nonce": "0x0998ad42090954dc",
  "difficulty": 4488574481894,
  "gasLimit": {
    "_hex": "0x2fefd8"
  },
  "gasUsed": {
    "_hex": "0x5208"
  },
  "miner": "0xe6A7a1d47ff21B6321162AEA7C6CB457D5476Bca",
  "extraData": "0xd783010002844765746887676f312e342e32856c696e7578",
  "transactions": [
    {
      "hash": "0x768a8fac09cc62f4aaceae326cd5447cc2ef6c70b7480b3fd122bbba8d65b32e",
      "blockHash": "0x72a65383508326d94fc577250dcd6976230f47e2bfef1755b9fef8c119ab203a",
      "blockNumber": 121856,
      "transactionIndex": 0,
      "confirmations": null,
      "from": "0x55e64970e28367941E1A28e3Adaea732534A3C10",
      "gasPrice": {
        "_hex": "0xba43b7400"
      },
      "gasLimit": {
        "_hex": "0x15f90"
      },
      "to": "0x31191beEB5a3d7f5eBC5B193e98bd15ce10Eb249",
      "value": {
        "_hex": "0x2d615facbf870000"
      },
      "nonce": 5,
      "data": "0x",
      "r": "0xdea4bf0f8fdfbf52c355fef99e78c5e6643c1f987046a127b24bbf35fb322db8",
      "s": "0x0201197435c294d28702cfef72f7196d559aeba2d1d1e8a8d3aa44afd821cdd8",
      "v": 28,
      "creates": null,
      "raw": "0xf86d05850ba43b740083015f909431191beeb5a3d7f5ebc5b193e98bd15ce10eb249882d615facbf870000801ca0dea4bf0f8fdfbf52c355fef99e78c5e6643c1f987046a127b24bbf35fb322db8a00201197435c294d28702cfef72f7196d559aeba2d1d1e8a8d3aa44afd821cdd8",
      "networkId": 0,
      "chainId": 0
    }
  ]
}