{
  "hash": "0x5c94d346b36ef9d4519fe0833551d9ac0ec04b5b799b23d702c3597cfec5cefc",
  "parentHash": "0x38c9ec3c36d125a82a2bf1493353eb2094e5048aa81cff43321ad3aafa00a4a6",
  "number": 76804,
  "timestamp": 1439426484,
  "nonce": "0x3224c35c11664fc1",
  "difficulty": 2238338503383,
  "gasLimit": {
    "_hex": "0x2fefd8"
  },
  "gasUsed": {
    "_hex": "0x546c"
  },
  "miner": "0xe6A7a1d47ff21B6321162AEA7C6CB457D5476Bca",
  "extraData": "0x476574682f76312e302e312d38326566323666362f6c696e75782f676f312e34",
  "transactions": [
    {
      "hash": "0xe430f6f9e9fa5796076e8ef4acaa928374323886f95073dd30286269cd07f15c",
      "blockHash": "0x5c94d346b36ef9d4519fe0833551d9ac0ec04b5b799b23d702c3597cfec5cefc",
      "blockNumber": 76804,
      "transactionIndex": 0,
      "confirmations": null,
      "from": "0xF87fF81fd2d041F0d54FC7da43440E54DaC5A8ef",
      "gasPrice": {
        "_hex": "0xd54d5b763"
      },
      "gasLimit": {
        "_hex": "0x55f0"
      },
      "to": "0x2910543Af39abA0Cd09dBb2D50200b3E800A63D2",
      "value": {
        "_hex": "0xde0b6b3a7640000"
      },
      "nonce": 0,
      "data": "0x454e4e555239574538",
      "r": "0x92b73e61550ca83bd69f7c66fa98f74bb31f988364b834f887790d1791ec12a3",
      "s": "0x156c118ddbbf80fa7e07a9c0314c6bedef7585f86364c0c3ba6180e6ce80d995",
      "v": 28,
      "creates": null,
      "raw": "0xf87580850d54d5b7638255f0942910543af39aba0cd09dbb2d50200b3e800a63d2880de0b6b3a764000089454e4e5552395745381ca092b73e61550ca83bd69f7c66fa98f74bb31f988364b834f887790d1791ec12a3a0156c118ddbbf80fa7e07a9c0314c6bedef7585f86364c0c3ba6180e6ce80d995",
      "networkId": 0,
      "chainId": 0
    }
  ]
}