{
  "hash": "0x095403d60d26507b52ff3559c6c0ddf31a88d68936a25ce5ad27c4edcae22896",
  "parentHash": "0xa952226465ab02f8fba78aba7ff83db8da8b1996577c832c396feee863cb17e2",
  "number": 46242,
  "timestamp": 1438919815,
  "nonce": "0xf6e0959a9122aa8b",
  "difficulty": 1461830754893,
  "gasLimit": {
    "_hex": "0x5636"
  },
  "gasUsed": {
    "_hex": "0x5208"
  },
  "miner": "0x4947190fcC30D3fb3a16233b259bFe6b3492339a",
  "extraData": "0x476574682f627261766f2f76312e302e312f6c696e75782f676f312e342e32",
  "transactions": [
    {
      "hash": "0x8e2ba7d83962ec633eab45afa77f37d72ecdfb40d968afd276c4320ad03a48a1",
      "blockHash": "0x095403d60d26507b52ff3559c6c0ddf31a88d68936a25ce5ad27c4edcae22896",
      "blockNumber": 46242,
      "transactionIndex": 0,
      "confirmations": null,
      "from": "0x4d9279962029a8bd45639737E98b511eFF074C21",
      "gasPrice": {
        "_hex": "0x1165885bda"
      },
      "gasLimit": {
        "_hex": "0x5208"
      },
      "to": "0x99C236141DaeC837Ece04fdAEE1D90cF8BbDC104",
      "value": {
        "_hex": "0xde0b6b3a7640000"
      },
      "nonce": 0,
      "data": "0x",
      "r": "0xadac97af7865a4d560a532791d31fd62da3dea80b0c83e238602a3f542a817cc",
      "s": "0x76438d0edb891d48e1bc25081dff6e955a7f362f113893dfdd93c6897cc9db11",
      "v": 28,
      "creates": null,
      "raw": "0xf86c80851165885bda8252089499c236141daec837ece04fdaee1d90cf8bbdc104880de0b6b3a7640000801ca0adac97af7865a4d560a532791d31fd62da3dea80b0c83e238602a3f542a817cca076438d0edb891d48e1bc25081dff6e955a7f362f113893dfdd93c6897cc9db11",
      "networkId": 0,
      "chainId": 0
    }
  ]
}