{
  "hash": "0x4fb90d846893ea8778f4679b276646f6c85cd04c41ac139b463da4dfb1c1c6cd",
  "parentHash": "0x8ee50bf29b49846e4dc05baaad8cc1c3e7262c5b5bbf5860bffb174a1816f505",
  "number": 85949,
  "timestamp": 1439571265,
  "nonce": "0xa2f470224fe20bfe",
  "difficulty": 2783981174926,
  "gasLimit": {
    "_hex": "0x2fefd8"
  },
  "gasUsed": {
    "_hex": "0x5208"
  },
  "miner": "0x88D74a59454F6cF3B51ef6b9136AFb6b9D405A88",
  "extraData": "0x476574682f76312e302e312d37666266393930632f6c696e75782f676f312e34",
  "transactions": [
    {
      "hash": "0x7e4ed31fb7ed76b572648fa75eb72c434ed114a2686aaf7779491e3a83452ada",
      "blockHash": "0x4fb90d846893ea8778f4679b276646f6c85cd04c41ac139b463da4dfb1c1c6cd",
      "blockNumber": 85949,
      "transactionIndex": 0,
      "confirmations": null,
      "from": "0xd7eF340E66B0d7AfcCe20A19cB7bfc81DA33D94E",
      "gasPrice": {
        "_hex": "0xd8364fc25"
      },
      "gasLimit": {
        "_hex": "0x15f90"
      },
      "to": "0x6586e11CaC2C2cA0f26583760AD19205D31b3c8d",
      "value": {
        "_hex": "0x1af142b2c7f9240000"
      },
      "nonce": 4,
      "data": "0x",
      "r": "0x1a6e23f01cf459f8eb792553a42bb3fde982f65c0897fe85741e49e83069587c",
      "s": "0x6ba20bc10b59e31135c12197aaad6a488b14a9efc33c444c4ce2168f9c5c2295",
      "v": 27,
      "creates": null,
      "raw": "0xf86e04850d8364fc2583015f90946586e11cac2c2ca0f26583760ad19205d31b3c8d891af142b2c7f9240000801ba01a6e23f01cf459f8eb792553a42bb3fde982f65c0897fe85741e49e83069587ca06ba20bc10b59e31135c12197aaad6a488b14a9efc33c444c4ce2168f9c5c2295",
      "networkId": 0,
      "chainId": 0
    }
  ]
}