{
  "hash": "0xf413c2295ef43ddab826d8ea35097480d150dfd41b411ce6d979f980def80557",
  "parentHash": "0xa7257f9e0b422594f336eec91218d840f161654d8247c7b9bc0c29d0314371a1",
  "number": 90863,
  "timestamp": 1439646483,
  "nonce": "0xf5a26effbb1136e2",
  "difficulty": 3412338265646,
  "gasLimit": {
    "_hex": "0x2fefd8"
  },
  "gasUsed": {
    "_hex": "0xafa7"
  },
  "miner": "0xe6A7a1d47ff21B6321162AEA7C6CB457D5476Bca",
  "extraData": "0x476574682f76312e302e312d38326566323666362f6c696e75782f676f312e34",
  "transactions": [
    {
      "hash": "0x884ffbe3ee0fc7c4a81a0733abb87680ab8c14ea885130c6a78158595256f1ec",
      "blockHash": "0xf413c2295ef43ddab826d8ea35097480d150dfd41b411ce6d979f980def80557",
      "blockNumber": 90863,
      "transactionIndex": 0,
      "confirmations": null,
      "from": "0x72c083BeadBdc227c5fb43881597E32e83C26056",
      "gasPrice": {
        "_hex": "0x10e43e3b6f8"
      },
      "gasLimit": {
        "_hex": "0x15f90"
      },
      "to": "0x249502491a53b217181420Cc4A6dE23a720636CA",
      "value": {
        "_hex": "0x3635c9adc5dea00000"
      },
      "nonce": 9,
      "data": "0x",
      "r": "0xcdbd9c66d4c45db58960127eefcd75ed2471d0c716c4e053526039eff445908b",
      "s": "0x30e6f107a81a786dfde9cd98dd0ebf154e64b7f0f5cf285b0fc15c2457c99c3c",
      "v": 27,
      "creates": null,
      "raw": "0xf86f0986010e43e3b6f883015f9094249502491a53b217181420cc4a6de23a720636ca893635c9adc5dea00000801ba0cdbd9c66d4c45db58960127eefcd75ed2471d0c716c4e053526039eff445908ba030e6f107a81a786dfde9cd98dd0ebf154e64b7f0f5cf285b0fc15c2457c99c3c",
      "networkId": 0,
      "chainId": 0
    },
    {
      "hash": "0xf47944d85b1cf4636779ff34757ba2b24de2109ad28b8205e2b23d4d59c618fd",
      "blockHash": "0xf413c2295ef43ddab826d8ea35097480d150dfd41b411ce6d979f980def80557",
      "blockNumber": 90863,
      "transactionIndex": 1,
      "confirmations": null,
      "from": "0xCD1e66ED539dd92Fc40bBAa1FA16de8c02C14D45",
      "gasPrice": {
        "_hex": "0xd0bb1b3b7"
      },
      "gasLimit": {
        "_hex": "0x15f90"
      },
      "to": "0xCAc7000C7dBaa2E33Af15325AF5D435E011C7BdD",
      "value": {
        "_hex": "0x4e28012ad20eb7cf0"
      },
      "nonce": 7,
      "data": "0xb214faa5464d425756524833430000000000000000000000000000000000000000000000",
      "r": "0xed99271cc804bef81ce80c506766c5b6db139b57350501e8b620cfdb95ea008b",
      "s": "0x05ee598009e735422ae8dd424eb34ad058a652c71699c7a2c4dc49b7a96e26bd",
      "v": 28,
      "creates": null,
      "raw": "0xf89207850d0bb1b3b783015f9094cac7000c7dbaa2e33af15325af5d435e011c7bdd8904e28012ad20eb7cf0a4b214faa5464d4257565248334300000000000000000000000000000000000000000000001ca0ed99271cc804bef81ce80c506766c5b6db139b57350501e8b620cfdb95ea008ba005ee598009e735422ae8dd424eb34ad058a652c71699c7a2c4dc49b7a96e26bd",
      "networkId": 0,
      "chainId": 0
    }
  ]
}