{
  "hash": "0x73b006b1a47b503650fd3df490711d3a1b602479d133606c2a92e9a53db39c22",
  "parentHash": "0x6a065b6489546c5ceb60a9a09a95912c753ee6bbe38f2e995764b898d5489c50",
  "number": 65034,
  "timestamp": 1439230239,
  "nonce": "0x6dfd5a3e897eba34",
  "difficulty": 1919113757458,
  "gasLimit": {
    "_hex": "0x2fefd8"
  },
  "gasUsed": {
    "_hex": "0x5208"
  },
  "miner": "0x31995C46B15C84523cDEE26f49A681b8237e43F5",
  "extraData": "0x476574682f76312e302e312f77696e646f77732f676f312e342e32",
  "transactions": [
    {
      "hash": "0x558835100d699660f794a882eb4aa270f08705ae4651fe70dd1b92224a5e2a81",
      "blockHash": "0x73b006b1a47b503650fd3df490711d3a1b602479d133606c2a92e9a53db39c22",
      "blockNumber": 65034,
      "transactionIndex": 0,
      "confirmations": null,
      "from": "0x556ca325C21e450b2aFf86D9c8eF0Fa371971c97",
      "gasPrice": {
        "_hex": "0xd9c11fd7e"
      },
      "gasLimit": {
        "_hex": "0x5208"
      },
      "to": "0x32Be343B94f860124dC4fEe278FDCBD38C102D88",
      "value": {
        "_hex": "0x3bd8ce2022c71e000"
      },
      "nonce": 5,
      "data": "0x",
      "r": "0xd0070d619abba4f5e41982d03e76b446894cf5ccd903ba86abf116590f988569",
      "s": "0x2c4ceb39fcd1f3f629a8a76b5d92dbcd636f3239727464f8c68887527e3fba84",
      "v": 28,
      "creates": null,
      "raw": "0xf86d05850d9c11fd7e8252089432be343b94f860124dc4fee278fdcbd38c102d888903bd8ce2022c71e000801ca0d0070d619abba4f5e41982d03e76b446894cf5ccd903ba86abf116590f988569a02c4ceb39fcd1f3f629a8a76b5d92dbcd636f3239727464f8c68887527e3fba84",
      "networkId": 0,
      "chainId": 0
    }
  ]
}