{
  "hash": "0x95c03f2a82117148fccc6def45193b6a85cc96947f2e7cfa2c9b9ab299c21a30",
  "parentHash": "0xfcf7c1d342ed61fc4f6da7e21d1bb3fb427e85425f63f1b8968e0f27d834ab0a",
  "number": 77358,
  "timestamp": 1439435821,
  "nonce": "0x2b8fa185e85a13be",
  "difficulty": 2240377484872,
  "gasLimit": {
    "_hex": "0x2fefd8"
  },
  "gasUsed": {
    "_hex": "0x5d9f"
  },
  "miner": "0xbb7B8287f3F0a933474a79eAe42CBCa977791171",
  "extraData": "0x476574682f4c5649562f76312e302e312f6c696e75782f676f312e342e32",
  "transactions": [
    {
      "hash": "0xba04972ca3450a543e678d72a7bc2a75318c7645b186ab235b34ad3114b39cdf",
      "blockHash": "0x95c03f2a82117148fccc6def45193b6a85cc96947f2e7cfa2c9b9ab299c21a30",
      "blockNumber": 77358,
      "transactionIndex": 0,
      "confirmations": null,
      "from": "0x770d98d31b4353FceEE8560c4CCf803e88C0c4e0",
      "gasPrice": {
        "_hex": "0xcfff96348"
      },
      "gasLimit": {
        "_hex": "0x15f90"
      },
      "to": "0xCAc7000C7dBaa2E33Af15325AF5D435E011C7BdD",
      "value": {
        "_hex": "0x71afd498d0000"
      },
      "nonce": 13,
      "data": "0xb214faa54131313131313131410000000000000000000000000000000000000000000000",
      "r": "0x54535d13b6c174222886f4cb6c5dddea6c7e6164ea5d0f57974ef708723dec09",
      "s": "0x4e00a06582ded874da71323633bc77dabc1206073a1b2a0eb220d760608d9409",
      "v": 28,
      "creates": null,
      "raw": "0xf8900d850cfff9634883015f9094cac7000c7dbaa2e33af15325af5d435e011c7bdd87071afd498d0000a4b214faa541313131313131314100000000000000000000000000000000000000000000001ca054535d13b6c174222886f4cb6c5dddea6c7e6164ea5d0f57974ef708723dec09a04e00a06582ded874da71323633bc77dabc1206073a1b2a0eb220d760608d9409",
      "networkId": 0,
      "chainId": 0
    }
  ]
}