{
  "hash": "0x7fbe3a447b77753dab1ea8fba9b7943640ff14e43270cc5937a18d92e54b3c48",
  "parentHash": "0x34c7c01e43a01da40b8fe9af6b1b22430cbc8504a20de1c024f5e2bd3a822479",
  "number": 75186,
  "timestamp": 1439399084,
  "nonce": "0x377439e6f6131643",
  "difficulty": 2193325571047,
  "gasLimit": {
    "_hex": "0x2fefd8"
  },
  "gasUsed": {
    "_hex": "0xad77"
  },
  "miner": "0xC603Ab5ef41fC61AA8b76bEddb09e3Cfcbb174BD",
  "extraData": "0x476574682f76312e302e312f77696e646f77732f676f312e342e32",
  "transactions": [
    {
      "hash": "0xe4f915d1df135e4a9c83e737b3cd307e9f24f54877ae5740c232a765d126594d",
      "blockHash": "0x7fbe3a447b77753dab1ea8fba9b7943640ff14e43270cc5937a18d92e54b3c48",
      "blockNumber": 75186,
      "transactionIndex": 0,
      "confirmations": null,
      "from": "0x87C5B5874A18B4306DF8a752a6C8cc3E82daFc19",
      "gasPrice": {
        "_hex": "0x100ebdfcbf5"
      },
      "gasLimit": {
        "_hex": "0x493e0"
      },
      "to": "0xD79B4C6791784184e2755B2fC1659eaaB0f80456",
      "value": {
        "_hex": "0x0"
      },
      "nonce": 35,
      "data": "0x03750d94000000000000000000000000326be8f71bfb0379f989aab1cc1fe37f0a771f603630386538353165666262376163336300000000000000000000000000000000",
      "r": "0x11f09315ae1775576473faf4742313fc2ac6a06685d7ab963c17d36252fa68ef",
      "s": "0x279c6faf72ed665f1bf8f18168569f73de9a2b57f1ccf9f02488465d8cc239a7",
      "v": 28,
      "creates": null,
      "raw": "0xf8ab23860100ebdfcbf5830493e094d79b4c6791784184e2755b2fc1659eaab0f8045680b84403750d94000000000000000000000000326be8f71bfb0379f989aab1cc1fe37f0a771f6036303865383531656662623761633363000000000000000000000000000000001ca011f09315ae1775576473faf4742313fc2ac6a06685d7ab963c17d36252fa68efa0279c6faf72ed665f1bf8f18168569f73de9a2b57f1ccf9f02488465d8cc239a7",
      "networkId": 0,
      "chainId": 0
    }
  ]
}