{
  "hash": "0x421b245aa567734aab486fc75a09929c107ab3d8e7beedc895eebda3f5215314",
  "parentHash": "0x462613b33b7900cf45b07d5e73d605060fe80022056ccc4337f0243b8f119cf0",
  "number": 70198,
  "timestamp": 1439316162,
  "nonce": "0x19de5fd213429310",
  "difficulty": 2118815658342,
  "gasLimit": {
    "_hex": "0x2fefd5"
  },
  "gasUsed": {
    "_hex": "0x5208"
  },
  "miner": "0x5F8F73E26CdF436f19Cb24C82F90A15AFe55b592",
  "extraData": "0x476574682f76312e302e312f77696e646f77732f676f312e342e32",
  "transactions": [
    {
      "hash": "0x46cddb6b7ff0d29784dcbbed72aede3fb2a20a85153cf8bd8d073542fc41f96c",
      "blockHash": "0x421b245aa567734aab486fc75a09929c107ab3d8e7beedc895eebda3f5215314",
      "blockNumber": 70198,
      "transactionIndex": 0,
      "confirmations": null,
      "from": "0xFD7c9117BbEB649d9b37B3D3C9917f7c12f526B3",
      "gasPrice": {
        "_hex": "0xda2073f31"
      },
      "gasLimit": {
        "_hex": "0x5208"
      },
      "to": "0x32Be343B94f860124dC4fEe278FDCBD38C102D88",
      "value": {
        "_hex": "0xad7788ea242180000"
      },
      "nonce": 8,
      "data": "0x",
      "r": "0x47bcdb7c875866d0a6433032b5fcb7551ea87c18bf125aeabd3b9c5c61e056de",
      "s": "0x061ede400965bd6f31e72dd0a395db3124f5ca0102cb7811ed0f5ed1d4da5038",
      "v": 28,
      "creates": null,
      "raw": "0xf86d08850da2073f318252089432be343b94f860124dc4fee278fdcbd38c102d88890ad7788ea242180000801ca047bcdb7c875866d0a6433032b5fcb7551ea87c18bf125aeabd3b9c5c61e056dea0061ede400965bd6f31e72dd0a395db3124f5ca0102cb7811ed0f5ed1d4da5038",
      "networkId": 0,
      "chainId": 0
    }
  ]
}