{
  "hash": "0xfa47041c97b02cd3256e62ffe9457c50c83a909fea96759400ec0a2ab4054e00",
  "parentHash": "0xcff9c85a5ce3868af3c0fa65073197192b3afc6c3fc6178dc7118d7024f29c20",
  "number": 74589,
  "timestamp": 1439388726,
  "nonce": "0xb2bc11cb40e7771c",
  "difficulty": 2205294763936,
  "gasLimit": {
    "_hex": "0x2fefd5"
  },
  "gasUsed": {
    "_hex": "0x5208"
  },
  "miner": "0x0193d941b50d91BE6567c7eE1C0Fe7AF498b4137",
  "extraData": "0x4a5ace9e4e",
  "transactions": [
    {
      "hash": "0x6fbeedfd96457f78bc7d62136240c409f898bc6724e923b8423c4d363589a73e",
      "blockHash": "0xfa47041c97b02cd3256e62ffe9457c50c83a909fea96759400ec0a2ab4054e00",
      "blockNumber": 74589,
      "transactionIndex": 0,
      "confirmations": null,
      "from": "0x32Be343B94f860124dC4fEe278FDCBD38C102D88",
      "gasPrice": {
        "_hex": "0xda1e1025d"
      },
      "gasLimit": {
        "_hex": "0x5208"
      },
      "to": "0x72bb27Cb99f3E2C2CF90A98F707d30E4A201A071",
      "value": {
        "_hex": "0x297e9d28866b0000"
      },
      "nonce": 320,
      "data": "0x",
      "r": "0xf98d23d338dc795cb87c2e0f8d7f2669211f5e34f2613851ab90982d3b92f835",
      "s": "0x4258e33a895e463c55701500df12893107dbf07f3f07c5b7b0c7083681a925bb",
      "v": 28,
      "creates": null,
      "raw": "0xf86e820140850da1e1025d8252089472bb27cb99f3e2c2cf90a98f707d30e4a201a07188297e9d28866b0000801ca0f98d23d338dc795cb87c2e0f8d7f2669211f5e34f2613851ab90982d3b92f835a04258e33a895e463c55701500df12893107dbf07f3f07c5b7b0c7083681a925bb",
      "networkId": 0,
      "chainId": 0
    }
  ]
}