{
  "hash": "0xd8c3d6fbac009f7612d94740dd3e2609d32111daadf11c9b9cf0fe7dec03c0d1",
  "parentHash": "0x8ddbaf794eda1267920a6c096b6c998687bb1a3e9a2ea6ee801e35ea764511ee",
  "number": 68267,
  "timestamp": 1439285123,
  "nonce": "0xa614cf4e8174add5",
  "difficulty": 1993819833100,
  "gasLimit": {
    "_hex": "0x2fefd8"
  },
  "gasUsed": {
    "_hex": "0xbe6c"
  },
  "miner": "0x39A1BB80a741bF5EC39FB9BE59408Fa0F418fFBf",
  "extraData": "0x476574682f76312e302e312f77696e646f77732f676f312e342e32",
  "transactions": [
    {
      "hash": "0xd7ce24b769ac4f8e707f14f8c752d978a05497278fa8508313622946f613b333",
      "blockHash": "0xd8c3d6fbac009f7612d94740dd3e2609d32111daadf11c9b9cf0fe7dec03c0d1",
      "blockNumber": 68267,
      "transactionIndex": 0,
      "confirmations": null,
      "from": "0x1D2cD902cf277c0646efCB5dAc0db660B23884aA",
      "gasPrice": {
        "_hex": "0xba43b7400"
      },
      "gasLimit": {
        "_hex": "0x15f90"
      },
      "to": "0x793AE8C1b1a160BFc07BFB0d04F85eab1A71F4f2",
      "value": {
        "_hex": "0x0"
      },
      "nonce": 0,
      "data": "0x3ba15036",
      "r": "0xceaa3dede6c870e8a80c6bef6f2e417760139e7f8747ac61bee97f426f306007",
      "s": "0x24df006cbcc8917ee44f29d05535170ab34c0d1d21cd98974c7af0e062be8ee5",
      "v": 28,
      "creates": null,
      "raw": "0xf86980850ba43b740083015f9094793ae8c1b1a160bfc07bfb0d04f85eab1a71f4f280843ba150361ca0ceaa3dede6c870e8a80c6bef6f2e417760139e7f8747ac61bee97f426f306007a024df006cbcc8917ee44f29d05535170ab34c0d1d21cd98974c7af0e062be8ee5",
      "networkId": 0,
      "chainId": 0
    }
  ]
}