{
  "hash": "0x0520f08fa773642fea73ccd1db4ce447c98c319778c7ca01175f5dfd29e983dd",
  "parentHash": "0xd6f5eadcffbdc6a526286bccf4193fe7df49e3a6a1c8bd2442f64ff85fe242e3",
  "number": 106625,
  "timestamp": 1439907630,
  "nonce": "0x9ce880609fba27ab",
  "difficulty": 4477014013302,
  "gasLimit": {
    "_hex": "0x2fefd8"
  },
  "gasUsed": {
    "_hex": "0x403d0"
  },
  "miner": "0x88D74a59454F6cF3B51ef6b9136AFb6b9D405A88",
  "extraData": "0x476574682f76312e302e312d39393231366634612f6c696e75782f676f312e34",
  "transactions": [
    {
      "hash": "0xcd330792e6d24dd338c5ac14eaff049b71e9dc114c328379dbe44061629b6545",
      "blockHash": "0x0520f08fa773642fea73ccd1db4ce447c98c319778c7ca01175f5dfd29e983dd",
      "blockNumber": 106625,
      "transactionIndex": 0,
      "confirmations": null,
      "from": "0x60a175bB691fEE8557a7b6D8eFC9E49889486f41",
      "gasPrice": {
        "_hex": "0xddb2f5de8"
      },
      "gasLimit": {
        "_hex": "0x15f90"
      },
      "to": "0xBb7f43EDfd8bf08B022fEd5BD91e3f9dE7e74D09",
      "value": {
        "_hex": "0x8ac7230489e80000"
      },
      "nonce": 9,
      "data": "0x",
      "r": "0x5b3dde5ae686949b74ca522e76f67ff42007e3a2d552dc17bb71b113b59020c5",
      "s": "0x72f674efce5a97e4da0d733081aaad15dc8e328ec28d0f8e28d839f8d50561e8",
      "v": 27,
      "creates": null,
      "raw": "0xf86d09850ddb2f5de883015f9094bb7f43edfd8bf08b022fed5bd91e3f9de7e74d09888ac7230489e80000801ba05b3dde5ae686949b74ca522e76f67ff42007e3a2d552dc17bb71b113b59020c5a072f674efce5a97e4da0d733081aaad15dc8e328ec28d0f8e28d839f8d50561e8",
      "networkId": 0,
      "chainId": 0
    },
    {
      "hash": "0x34b39db978c6d5f8e62a3058e9cc0e10467f71d710cc96f71889a7ac57141167",
      "blockHash": "0x0520f08fa773642fea73ccd1db4ce447c98c319778c7ca01175f5dfd29e983dd",
      "blockNumber": 106625,
      "transactionIndex": 1,
      "confirmations": null,
      "from": "0x60a175bB691fEE8557a7b6D8eFC9E49889486f41",
      "gasPrice": {
        "_hex": "0xddb2f5de8"
      },
      "gasLimit": {
        "_hex": "0x15f90"
      },
      "to": "0x67a8Acb3621e0683EC4eeb0be82BE8cf344d97c6",
      "value": {
        "_hex": "0x8ac7230489e80000"
      },
      "nonce": 10,
      "data": "0x",
      "r": "0xb8705d2e4ac444135ac6f197029df0961f257f753417c1897f8f1480fd56258c",
      "s": "0x68cd5a490a75831a3ca4711388dda0ded94b21259e3b1b44340874d2efe191e1",
      "v": 28,
      "creates": null,
      "raw": "0xf86d0a850ddb2f5de883015f909467a8acb3621e0683ec4eeb0be82be8cf344d97c6888ac7230489e80000801ca0b8705d2e4ac444135ac6f197029df0961f257f753417c1897f8f1480fd56258ca068cd5a490a75831a3ca4711388dda0ded94b21259e3b1b44340874d2efe191e1",
      "networkId": 0,
      "chainId": 0
    },
    {
      "hash": "0xa3647df764151dced576ddd83b9ba0d66103c4c0c820129e16181c4b8fa7c98c",
      "blockHash": "0x0520f08fa773642fea73ccd1db4ce447c98c319778c7ca01175f5dfd29e983dd",
      "blockNumber": 106625,
      "transactionIndex": 2,
      "confirmations": null,
      "from": "0xA55d7191414077D72850992A603Fa1db834bfB74",
      "gasPrice": {
        "_hex": "0xd9ad941b6"
      },
      "gasLimit": {
        "_hex": "0x493e0"
      },
      "to": null,
      "value": {
        "_hex": "0x0"
      },
      "nonce": 2,
      "data": "0x60606040526040516102b43803806102b48339016040526060805160600190602001505b5b33600060006101000a81548173ffffffffffffffffffffffffffffffffffffffff021916908302179055505b806001600050908051906020019082805482825590600052602060002090601f01602090048101928215609e579182015b82811115609d5782518260005055916020019190600101906081565b5b50905060c5919060a9565b8082111560c1576000818150600090555060010160a9565b5090565b50505b506101dc806100d86000396000f30060606040526000357c01000000000000000000000000000000000000000000000000000000009004806341c0e1b514610044578063cfae32171461005157610042565b005b61004f6004506100ca565b005b61005c60045061015e565b60405180806020018281038252838181518152602001915080519060200190808383829060006004602084601f0104600302600f01f150905090810190601f1680156100bc5780820380516001836020036101000a031916815260200191505b509250505060405180910390f35b600060009054906101000a900473ffffffffffffffffffffffffffffffffffffffff1673ffffffffffffffffffffffffffffffffffffffff163373ffffffffffffffffffffffffffffffffffffffff16141561015b57600060009054906101000a900473ffffffffffffffffffffffffffffffffffffffff1673ffffffffffffffffffffffffffffffffffffffff16ff5b5b565b60206040519081016040528060008152602001506001600050805480601f016020809104026020016040519081016040528092919081815260200182805480156101cd57820191906000526020600020905b8154815290600101906020018083116101b057829003601f168201915b505050505090506101d9565b90560000000000000000000000000000000000000000000000000000000000000020000000000000000000000000000000000000000000000000000000000000000b457269632042555247454c000000000000000000000000000000000000000000",
      "r": "0x674ac98fd2476890a3865824efb8ba003af7741a8a89f1aa293777059dd4c74b",
      "s": "0x2d29c80ec3cab49cb0f01f5b95ae044dee343666a097b4b674979cf31f37cd93",
      "v": 28,
      "creates": "0xA8667d6105dF3E17C0bB3a1d4FBc2Fc535a1Db98",
      "raw": "0xf9036702850d9ad941b6830493e08080b9031460606040526040516102b43803806102b48339016040526060805160600190602001505b5b33600060006101000a81548173ffffffffffffffffffffffffffffffffffffffff021916908302179055505b806001600050908051906020019082805482825590600052602060002090601f01602090048101928215609e579182015b82811115609d5782518260005055916020019190600101906081565b5b50905060c5919060a9565b8082111560c1576000818150600090555060010160a9565b5090565b50505b506101dc806100d86000396000f30060606040526000357c01000000000000000000000000000000000000000000000000000000009004806341c0e1b514610044578063cfae32171461005157610042565b005b61004f6004506100ca565b005b61005c60045061015e565b60405180806020018281038252838181518152602001915080519060200190808383829060006004602084601f0104600302600f01f150905090810190601f1680156100bc5780820380516001836020036101000a031916815260200191505b509250505060405180910390f35b600060009054906101000a900473ffffffffffffffffffffffffffffffffffffffff1673ffffffffffffffffffffffffffffffffffffffff163373ffffffffffffffffffffffffffffffffffffffff16141561015b57600060009054906101000a900473ffffffffffffffffffffffffffffffffffffffff1673ffffffffffffffffffffffffffffffffffffffff16ff5b5b565b60206040519081016040528060008152602001506001600050805480601f016020809104026020016040519081016040528092919081815260200182805480156101cd57820191906000526020600020905b8154815290600101906020018083116101b057829003601f168201915b505050505090506101d9565b90560000000000000000000000000000000000000000000000000000000000000020000000000000000000000000000000000000000000000000000000000000000b457269632042555247454c0000000000000000000000000000000000000000001ca0674ac98fd2476890a3865824efb8ba003af7741a8a89f1aa293777059dd4c74ba02d29c80ec3cab49cb0f01f5b95ae044dee343666a097b4b674979cf31f37cd93",
      "networkId": 0,
      "chainId": 0
    }
  ]
}