{
  "hash": "0x7b315f7dbca97778b9cd24ff90e316bcd52713e4f5fceaea4631daf41137dc70",
  "parentHash": "0x2252333b135088871bcd3c28e84ab3900e9b013956ffef7cfe56de3f7fd6ba39",
  "number": 77493,
  "timestamp": 1439438210,
  "nonce": "0x53b0070a6a2b5d74",
  "difficulty": 2237062082240,
  "gasLimit": {
    "_hex": "0x2fefd8"
  },
  "gasUsed": {
    "_hex": "0xf618"
  },
  "miner": "0x5F8F73E26CdF436f19Cb24C82F90A15AFe55b592",
  "extraData": "0x476574682f76312e302e312f77696e646f77732f676f312e342e32",
  "transactions": [
    {
      "hash": "0x5e78df25c9d519c00ab3aaba9af1a28c2d2b54d1b270404d7c7d4cd3407f1109",
      "blockHash": "0x7b315f7dbca97778b9cd24ff90e316bcd52713e4f5fceaea4631daf41137dc70",
      "blockNumber": 77493,
      "transactionIndex": 0,
      "confirmations": null,
      "from": "0x9F3a74Fd5e7edCC1162993171381cbB632b7cFF0",
      "gasPrice": {
        "_hex": "0xdb99b5832"
      },
      "gasLimit": {
        "_hex": "0x5208"
      },
      "to": "0x237EaF878796cA98441Ae6Ebc71fD3b3beD92CfA",
      "value": {
        "_hex": "0x1b1ae4d6e2ef500000"
      },
      "nonce": 2,
      "data": "0x",
      "r": "0xd9e16b5d1453556f91c34616f1ca84d37a87be1107c26d9b8fee16e9f60eaa17",
      "s": "0x5d058d8984133b36f16d23b0ebe706aa8205f58200e870ef2c88026939c98fe2",
      "v": 27,
      "creates": null,
      "raw": "0xf86d02850db99b583282520894237eaf878796ca98441ae6ebc71fd3b3bed92cfa891b1ae4d6e2ef500000801ba0d9e16b5d1453556f91c34616f1ca84d37a87be1107c26d9b8fee16e9f60eaa17a05d058d8984133b36f16d23b0ebe706aa8205f58200e870ef2c88026939c98fe2",
      "networkId": 0,
      "chainId": 0
    },
    {
      "hash": "0xf7df9f3fc405dfdbdfe181af22fb6d2e1c035b829bd3358e539a421fb2dd4836",
      "blockHash": "0x7b315f7dbca97778b9cd24ff90e316bcd52713e4f5fceaea4631daf41137dc70",
      "blockNumber": 77493,
      "transactionIndex": 1,
      "confirmations": null,
      "from": "0x9F3a74Fd5e7edCC1162993171381cbB632b7cFF0",
      "gasPrice": {
        "_hex": "0xdb99b5832"
      },
      "gasLimit": {
        "_hex": "0x5208"
      },
      "to": "0xC24F7154Cc0060a31e40De6A655d584a6Fc3273b",
      "value": {
        "_hex": "0x1b1ae4d6e2ef500000"
      },
      "nonce": 3,
      "data": "0x",
      "r": "0x55e0a5b4b5b9766d9d02489191543e4c0526431ecd833e0985ad778e77cd2f17",
      "s": "0x1615d7e2f4971eaf8aa8c7110a6cd94011bae5f4480c377107619bf028f9b620",
      "v": 27,
      "creates": null,
      "raw": "0xf86d03850db99b583282520894c24f7154cc0060a31e40de6a655d584a6fc3273b891b1ae4d6e2ef500000801ba055e0a5b4b5b9766d9d02489191543e4c0526431ecd833e0985ad778e77cd2f17a01615d7e2f4971eaf8aa8c7110a6cd94011bae5f4480c377107619bf028f9b620",
      "networkId": 0,
      "chainId": 0
    },
    {
      "hash": "0x5c4962fafd98ce46edf01327ef1aa4dc0e102621cb1f76821a82b0f66813e353",
      "blockHash": "0x7b315f7dbca97778b9cd24ff90e316bcd52713e4f5fceaea4631daf41137dc70",
      "blockNumber": 77493,
      "transactionIndex": 2,
      "confirmations": null,
      "from": "0xa70a9a7040d542C632D8e0bE7c5513A8a5Bbc752",
      "gasPrice": {
        "_hex": "0xd222c8b36"
      },
      "gasLimit": {
        "_hex": "0x5208"
      },
      "to": "0x32Be343B94f860124dC4fEe278FDCBD38C102D88",
      "value": {
        "_hex": "0x455f5c2612e43c00"
      },
      "nonce": 46,
      "data": "0x",
      "r": "0x5f9bdea14a1370afed14e452cd3d2c12ffbb6c38a58e3d00c5d3956c40b9d821",
      "s": "0x3f4b60cc3cc3dbff68df32dc75baef5cc4f04462537c1a022a34cc28b85d3666",
      "v": 27,
      "creates": null,
      "raw": "0xf86c2e850d222c8b368252089432be343b94f860124dc4fee278fdcbd38c102d8888455f5c2612e43c00801ba05f9bdea14a1370afed14e452cd3d2c12ffbb6c38a58e3d00c5d3956c40b9d821a03f4b60cc3cc3dbff68df32dc75baef5cc4f04462537c1a022a34cc28b85d3666",
      "networkId": 0,
      "chainId": 0
    }
  ]
}