{
  "hash": "0x71d2c3f6f43768c2377e51d847dad95c5b17a723d92b31e6716321145b44d96e",
  "parentHash": "0x5f784cb59e5aad3e1f4b0dbaee397fcd327eb63f74b45ea3bde9cf97ac76c67e",
  "number": 48387,
  "timestamp": 1438956396,
  "nonce": "0x3add11d0e5322f4f",
  "difficulty": 1453628426391,
  "gasLimit": {
    "_hex": "0x1675a"
  },
  "gasUsed": {
    "_hex": "0x546c"
  },
  "miner": "0xf927a40C8B7F6E07c5af7FA2155B4864a4112B13",
  "extraData": "0x476574682f76312e302e312f6c696e75782f676f312e342e32",
  "transactions": [
    {
      "hash": "0x6659d451e6501a84f5998bfdc9acb79e34c9e72ff8f2d67634b7821a9ad9b85d",
      "blockHash": "0x71d2c3f6f43768c2377e51d847dad95c5b17a723d92b31e6716321145b44d96e",
      "blockNumber": 48387,
      "transactionIndex": 0,
      "confirmations": null,
      "from": "0x288E4356F12D0D3D0F8DF3506E457E7cFd5f4Ab0",
      "gasPrice": {
        "_hex": "0xd90df9602"
      },
      "gasLimit": {
        "_hex": "0x15f90"
      },
      "to": "0x2910543Af39abA0Cd09dBb2D50200b3E800A63D2",
      "value": {
        "_hex": "0xd1e6cb5d43c88000"
      },
      "nonce": 0,
      "data": "0x454e44585050584152",
      "r": "0x0767c67d7033f4661976913693e5ae1c2bd92a1f6fffda69d177f630b8f9aa64",
      "s": "0x6dd6d04c87516be008e015c02118cd88ced638ef96af1d9df4c377c013f867f1",
      "v": 28,
      "creates": null,
      "raw": "0xf87680850d90df960283015f90942910543af39aba0cd09dbb2d50200b3e800a63d288d1e6cb5d43c8800089454e445850505841521ca00767c67d7033f4661976913693e5ae1c2bd92a1f6fffda69d177f630b8f9aa64a06dd6d04c87516be008e015c02118cd88ced638ef96af1d9df4c377c013f867f1",
      "networkId": 0,
      "chainId": 0
    }
  ]
}