{
  "hash": "0xe6fb31b12d06b5a70f420a28b4e034bcd152abc2d6031249f35876f80bf83e8b",
  "parentHash": "0x42e144036d1b3cc75508e1a64c04bea1d1d39cb527cd6c4e428c9e7b9c1c7d9c",
  "number": 46205,
  "timestamp": 1438919175,
  "nonce": "0xc51b313221f7d40d",
  "difficulty": 1458272616973,
  "gasLimit": {
    "_hex": "0x54c0"
  },
  "gasUsed": {
    "_hex": "0x5208"
  },
  "miner": "0xbb7B8287f3F0a933474a79eAe42CBCa977791171",
  "extraData": "0x476574682f4c5649562f76312e302e312f6c696e75782f676f312e342e32",
  "transactions": [
    {
      "hash": "0x570ce19176bd0002b04a9179309129bbdaf0c4252ffeb76aedbb038cdf662850",
      "blockHash": "0xe6fb31b12d06b5a70f420a28b4e034bcd152abc2d6031249f35876f80bf83e8b",
      "blockNumber": 46205,
      "transactionIndex": 0,
      "confirmations": null,
      "from": "0x3f2F381491797Cc5C0D48296C14Fd0Cd00Cdfa2D",
      "gasPrice": {
        "_hex": "0x746a528800"
      },
      "gasLimit": {
        "_hex": "0x5208"
      },
      "to": "0x4BD5f0Ee173C81d42765154865EE69361b6aD189",
      "value": {
        "_hex": "0x2b95987e87f3ebc000"
      },
      "nonce": 0,
      "data": "0x",
      "r": "0xb6196763cd15f3195f5d7d5068b21d6f2933f655a2184eafd8cc5d8c6c6c415d",
      "s": "0xcc4efff618f92a2007337cc712ca1d1ecf220d2fa0ed7343d71ee3f3cff22ba7",
      "v": 27,
      "creates": null,
      "raw": "0xf86d8085746a528800825208944bd5f0ee173c81d42765154865ee69361b6ad189892b95987e87f3ebc000801ba0b6196763cd15f3195f5d7d5068b21d6f2933f655a2184eafd8cc5d8c6c6c415da0cc4efff618f92a2007337cc712ca1d1ecf220d2fa0ed7343d71ee3f3cff22ba7",
      "networkId": 0,
      "chainId": 0
    }
  ]
}