{
  "hash": "0xf1f392fd197a149afe9f8843d7ba759d1a9f79d1ef620563957b486662af27fa",
  "parentHash": "0x6a9b904d6f05857caceaaf19968cefc4f2699beb315cda7dc1e9156e25157a0f",
  "number": 49938,
  "timestamp": 1438981581,
  "nonce": "0x00e259e38bf0f6e3",
  "difficulty": 1497299360003,
  "gasLimit": {
    "_hex": "0x46e05"
  },
  "gasUsed": {
    "_hex": "0x5208"
  },
  "miner": "0xbb7B8287f3F0a933474a79eAe42CBCa977791171",
  "extraData": "0x476574682f4c5649562f76312e302e312f6c696e75782f676f312e342e32",
  "transactions": [
    {
      "hash": "0x538e1664c12c55287c98dc5dd248f60c642cbbbd7a18ea88d837f7797df092a7",
      "blockHash": "0xf1f392fd197a149afe9f8843d7ba759d1a9f79d1ef620563957b486662af27fa",
      "blockNumber": 49938,
      "transactionIndex": 0,
      "confirmations": null,
      "from": "0xC6Bf5B6558f2eE21F2E43d9fF9B5408A0Cb89413",
      "gasPrice": {
        "_hex": "0x1094b77c8f"
      },
      "gasLimit": {
        "_hex": "0x15f90"
      },
      "to": "0x33A3f479f6c3e7F91128348490D1f7E8D2A0FAb5",
      "value": {
        "_hex": "0x4563918244f40000"
      },
      "nonce": 4,
      "data": "0x",
      "r": "0xf48feb533226f18deae98bedeaf7aaee195e33f54fe5a41913caf9436be0b8ee",
      "s": "0x349ef2aedabe1715f2fad3e20b14f3513309a9518fa1ac19f95636914369e8f8",
      "v": 28,
      "creates": null,
      "raw": "0xf86d04851094b77c8f83015f909433a3f479f6c3e7f91128348490d1f7e8d2a0fab5884563918244f40000801ca0f48feb533226f18deae98bedeaf7aaee195e33f54fe5a41913caf9436be0b8eea0349ef2aedabe1715f2fad3e20b14f3513309a9518fa1ac19f95636914369e8f8",
      "networkId": 0,
      "chainId": 0
    }
  ]
}