{
  "hash": "0xe4fad8cb76dc01aee66319b3bacf85f79c7c1047ff247a41fc7777e77ad28f42",
  "parentHash": "0x4f1427cb5d86ccc41aa41215080dd05bce533eaab4e4580861b3d4be45a03dff",
  "number": 75674,
  "timestamp": 1439407188,
  "nonce": "0x1c0b6952edae6b92",
  "difficulty": 2236454937514,
  "gasLimit": {
    "_hex": "0x2fefd8"
  },
  "gasUsed": {
    "_hex": "0x5208"
  },
  "miner": "0x756C55cbfa47fd23c0260F958e65866E64c096CB",
  "extraData": "0x",
  "transactions": [
    {
      "hash": "0xe74cd047e6ca578b1e8d355c63ef906ce9387d6df02cb858aacbe769a5deea31",
      "blockHash": "0xe4fad8cb76dc01aee66319b3bacf85f79c7c1047ff247a41fc7777e77ad28f42",
      "blockNumber": 75674,
      "transactionIndex": 0,
      "confirmations": null,
      "from": "0x32Be343B94f860124dC4fEe278FDCBD38C102D88",
      "gasPrice": {
        "_hex": "0xd3a09ca6e"
      },
      "gasLimit": {
        "_hex": "0x5208"
      },
      "to": "0x7d18A54Bd3051327D87eD7B3E6B3d95B772e5180",
      "value": {
        "_hex": "0x24cf4c5a4bfab20000"
      },
      "nonce": 343,
      "data": "0x",
      "r": "0x06c3733e58cc408b999d6b927f8b33d847bb9f1a9b2730ccf79fc9576562634d",
      "s": "0x494b32edae66832cbb5e6d94963b5cd82a2b1c3ad860158cfb386fe25a9586c6",
      "v": 27,
      "creates": null,
      "raw": "0xf86f820157850d3a09ca6e825208947d18a54bd3051327d87ed7b3e6b3d95b772e51808924cf4c5a4bfab20000801ba006c3733e58cc408b999d6b927f8b33d847bb9f1a9b2730ccf79fc9576562634da0494b32edae66832cbb5e6d94963b5cd82a2b1c3ad860158cfb386fe25a9586c6",
      "networkId": 0,
      "chainId": 0
    }
  ]
}