{
  "hash": "0xc778b3eace021c50faeb27316e14bb0b7a07b97f77936ab6b27edac3c8af5e79",
  "parentHash": "0xe70d54aaf78803db87bfc90f13c0cb7f9b2fdec400e58fd4e785f23430ae64dd",
  "number": 46344,
  "timestamp": 1438921600,
  "nonce": "0x1a563a3e3ed568ff",
  "difficulty": 1461812980089,
  "gasLimit": {
    "_hex": "0x5be2"
  },
  "gasUsed": {
    "_hex": "0x5208"
  },
  "miner": "0x47ff6576639c2e94762eA5443978D7681C0E78DC",
  "extraData": "0x476574682f76312e302e312f6c696e75782f676f312e342e32",
  "transactions": [
    {
      "hash": "0xd93d08d3b9eea108cf4a23eb75142770b1d1d870c2b716ecc331d96ceb94828a",
      "blockHash": "0xc778b3eace021c50faeb27316e14bb0b7a07b97f77936ab6b27edac3c8af5e79",
      "blockNumber": 46344,
      "transactionIndex": 0,
      "confirmations": null,
      "from": "0xBD744E3F13D79B33F6c8E1d5E32F8E9BA2866c46",
      "gasPrice": {
        "_hex": "0x6308544094"
      },
      "gasLimit": {
        "_hex": "0x5208"
      },
      "to": "0xD2e57181beE0BF25a2E7D377EaCCec854Bd65334",
      "value": {
        "_hex": "0x54915956c4096000"
      },
      "nonce": 2,
      "data": "0x",
      "r": "0xec25f086e5a254ac860f84cb41cb5a04767a4cc5e0187f9ca37a472c43e5b987",
      "s": "0x38590a93f81bd4a4332e4ff62a200f17c1bffd6a98fcf8a25f797f9c844970e9",
      "v": 28,
      "creates": null,
      "raw": "0xf86c0285630854409482520894d2e57181bee0bf25a2e7d377eaccec854bd653348854915956c4096000801ca0ec25f086e5a254ac860f84cb41cb5a04767a4cc5e0187f9ca37a472c43e5b987a038590a93f81bd4a4332e4ff62a200f17c1bffd6a98fcf8a25f797f9c844970e9",
      "networkId": 0,
      "chainId": 0
    }
  ]
}