{
  "hash": "0x08115e12fe1705f073af72f0287f99179c20e470bf296c2fae8799c009e4d78a",
  "parentHash": "0xa513115593a2106d12e1d75d8214207df4c7fdbb3f75ee4a3bc6da2f656b04ad",
  "number": 103182,
  "timestamp": 1439849135,
  "nonce": "0xf8e940e03fed4994",
  "difficulty": 4180868856075,
  "gasLimit": {
    "_hex": "0x2fefd8"
  },
  "gasUsed": {
    "_hex": "0x5208"
  },
  "miner": "0xf927a40C8B7F6E07c5af7FA2155B4864a4112B13",
  "extraData": "0x",
  "transactions": [
    {
      "hash": "0xf9a6759c90fa77f36d6afb1b267c89ecfb5f2fe307f7d56c986e2b058bd3e6ab",
      "blockHash": "0x08115e12fe1705f073af72f0287f99179c20e470bf296c2fae8799c009e4d78a",
      "blockNumber": 103182,
      "transactionIndex": 0,
      "confirmations": null,
      "from": "0xC47Aaa860008be6f65B58c6C6E02a84e666EfE31",
      "gasPrice": {
        "_hex": "0xd46f45ff8"
      },
      "gasLimit": {
        "_hex": "0x15f90"
      },
      "to": "0x3bFc4B3A53996526FA62CD808a89424B6957013c",
      "value": {
        "_hex": "0x25879dd07ae72882"
      },
      "nonce": 73,
      "data": "0x",
      "r": "0x05472ef60e7ebd4b2e198af4745640836fc8301167ccfd1966c84915c9f313ff",
      "s": "0x21b34f53c3acbb5af4c17e54135fb6d003d63fbc5b498e29cdd877fc9831aa08",
      "v": 28,
      "creates": null,
      "raw": "0xf86d49850d46f45ff883015f90943bfc4b3a53996526fa62cd808a89424b6957013c8825879dd07ae72882801ca005472ef60e7ebd4b2e198af4745640836fc8301167ccfd1966c84915c9f313ffa021b34f53c3acbb5af4c17e54135fb6d003d63fbc5b498e29cdd877fc9831aa08",
      "networkId": 0,
      "chainId": 0
    }
  ]
}