{
  "hash": "0x54e24f3a1c313ac683f0c5623d2b3fb98e7fac4bff084b62a8597b445a3a341d",
  "parentHash": "0x0f3b8f31a87564a630e7b3491d2498f303103eea449543280265c3938e7ef8fd",
  "number": 75937,
  "timestamp": 1439412184,
  "nonce": "0x6a4596b45ba54947",
  "difficulty": 2220064886582,
  "gasLimit": {
    "_hex": "0x2fefd8"
  },
  "gasUsed": {
    "_hex": "0x5208"
  },
  "miner": "0xeB1325C8D9d3ea8D74aC11F4B00F1B2367686319",
  "extraData": "0x476574682f76312e302e312f77696e646f77732f676f312e342e32",
  "transactions": [
    {
      "hash": "0xd49362d39a45cdf0a24550d3de2ae66d32c92c0e0259f08714c997fca9e0a4ea",
      "blockHash": "0x54e24f3a1c313ac683f0c5623d2b3fb98e7fac4bff084b62a8597b445a3a341d",
      "blockNumber": 75937,
      "transactionIndex": 0,
      "confirmations": null,
      "from": "0xa70a9a7040d542C632D8e0bE7c5513A8a5Bbc752",
      "gasPrice": {
        "_hex": "0xe04bf50cb"
      },
      "gasLimit": {
        "_hex": "0x5208"
      },
      "to": "0x32Be343B94f860124dC4fEe278FDCBD38C102D88",
      "value": {
        "_hex": "0x455f138d88254400"
      },
      "nonce": 41,
      "data": "0x",
      "r": "0x9d50628f271d9cc3612d2905256a0849714c4af3ff70eb818cb4564a2eb71256",
      "s": "0x042aa79d61fdfecc1db8129c9bc53bd2437d7a4dc4169ea0bf4d1bcac06cc98a",
      "v": 27,
      "creates": null,
      "raw": "0xf86c29850e04bf50cb8252089432be343b94f860124dc4fee278fdcbd38c102d8888455f138d88254400801ba09d50628f271d9cc3612d2905256a0849714c4af3ff70eb818cb4564a2eb71256a0042aa79d61fdfecc1db8129c9bc53bd2437d7a4dc4169ea0bf4d1bcac06cc98a",
      "networkId": 0,
      "chainId": 0
    }
  ]
}