{
  "hash": "0x808ca02207de2bb5611a00ca7d77b57750117b8b5d26e12e35a817996423bba7",
  "parentHash": "0xbcbc7babf8983b24d50b12bf096b7dc930c61cdc018eb4355370ef73e5d27cfb",
  "number": 104612,
  "timestamp": 1439872534,
  "nonce": "0x776c7ec88d9d3c94",
  "difficulty": 4372218273960,
  "gasLimit": {
    "_hex": "0x2fefd8"
  },
  "gasUsed": {
    "_hex": "0xc5d6"
  },
  "miner": "0xe6A7a1d47ff21B6321162AEA7C6CB457D5476Bca",
  "extraData": "0x476574682f76312e302e312d38326566323666362f6c696e75782f676f312e34",
  "transactions": [
    {
      "hash": "0xbc9de6982d97e747b04de4d2486821dc26c69e58e6b41be4c9d781423518aa2a",
      "blockHash": "0x808ca02207de2bb5611a00ca7d77b57750117b8b5d26e12e35a817996423bba7",
      "blockNumber": 104612,
      "transactionIndex": 0,
      "confirmations": null,
      "from": "0x77b97786B0FB73e55d9E92d4B182beFBF346F979",
      "gasPrice": {
        "_hex": "0xce5f5dd2b"
      },
      "gasLimit": {
        "_hex": "0x2fefd8"
      },
      "to": "0xcf2405263b7E0D11EEC326b2Da9d4b0d5463246b",
      "value": {
        "_hex": "0x0"
      },
      "nonce": 19,
      "data": "0x154af6b1000000000000000000000000e37673a9173edfd35f25efb493dd33b0284c01f90000000000000000000000000000000000000000000000000000000000000002000000000000000000000000000000000000000000000000002386f26fc10000000000000000000000000000562236c0d4fd95e26c53ac56b7d118e420ca1716",
      "r": "0x24cb6d1b77be61d259044c5dd76d6eb7fa658018e7bcebffb14294c5e2e09452",
      "s": "0x16b84964fe19d60f66a953085d253d14e32c09952575059e292e0f8666868a28",
      "v": 28,
      "creates": null,
      "raw": "0xf8ea13850ce5f5dd2b832fefd894cf2405263b7e0d11eec326b2da9d4b0d5463246b80b884154af6b1000000000000000000000000e37673a9173edfd35f25efb493dd33b0284c01f90000000000000000000000000000000000000000000000000000000000000002000000000000000000000000000000000000000000000000002386f26fc10000000000000000000000000000562236c0d4fd95e26c53ac56b7d118e420ca17161ca024cb6d1b77be61d259044c5dd76d6eb7fa658018e7bcebffb14294c5e2e09452a016b84964fe19d60f66a953085d253d14e32c09952575059e292e0f8666868a28",
      "networkId": 0,
      "chainId": 0
    }
  ]
}