{
  "hash": "0x8b643e48ab8ea2ab8978eb2746bcecce922146ac45b7cdca8d642d3b9799eef7",
  "parentHash": "0x39371d054bbd66c8e32eb8c52b71d245d381cc71d50f7253de65de765aed7a60",
  "number": 47106,
  "timestamp": 1438934303,
  "nonce": "0xebc26d6a81effe5b",
  "difficulty": 1460253473268,
  "gasLimit": {
    "_hex": "0x97c3"
  },
  "gasUsed": {
    "_hex": "0x5208"
  },
  "miner": "0xBD744E3F13D79B33F6c8E1d5E32F8E9BA2866c46",
  "extraData": "0x476574682f76312e302e312d38326566323666362f6c696e75782f676f312e34",
  "transactions": [
    {
      "hash": "0xc845e83bbb88b99855602488d5a798055bcf026fc9e1f77d095165986c908d1c",
      "blockHash": "0x8b643e48ab8ea2ab8978eb2746bcecce922146ac45b7cdca8d642d3b9799eef7",
      "blockNumber": 47106,
      "transactionIndex": 0,
      "confirmations": null,
      "from": "0xe6A7a1d47ff21B6321162AEA7C6CB457D5476Bca",
      "gasPrice": {
        "_hex": "0xe1032a3ef"
      },
      "gasLimit": {
        "_hex": "0x5208"
      },
      "to": "0x851A5680487032aaDF727270E0A310C24C269c52",
      "value": {
        "_hex": "0x2ca58eb438ca54e8"
      },
      "nonce": 44,
      "data": "0x",
      "r": "0xc7f09988b6f93c249696a9f405592ab0190b185e5a904dc2d7c69f51f6c88c06",
      "s": "0x36a817996aefd8332e73ce80cecb5fe6dc5596c75421cd406f3b8c1a4e315b88",
      "v": 28,
      "creates": null,
      "raw": "0xf86c2c850e1032a3ef82520894851a5680487032aadf727270e0a310c24c269c52882ca58eb438ca54e8801ca0c7f09988b6f93c249696a9f405592ab0190b185e5a904dc2d7c69f51f6c88c06a036a817996aefd8332e73ce80cecb5fe6dc5596c75421cd406f3b8c1a4e315b88",
      "networkId": 0,
      "chainId": 0
    }
  ]
}