{
  "hash": "0x81861d9712016d227be4cd77b334e00c267c8f2683f5ee8e27a2779bdd38b882",
  "parentHash": "0x5e78652c5ce0c8b8059676ba1e283364baaf988b38dee652af4f8a4893bba2c2",
  "number": 68422,
  "timestamp": 1439287627,
  "nonce": "0x21c63a5fd7b9d2c2",
  "difficulty": 2014332233209,
  "gasLimit": {
    "_hex": "0x2fefd8"
  },
  "gasUsed": {
    "_hex": "0x22dda"
  },
  "miner": "0x9746c7e1ef2bd21FF3997fa467593a89cb852BD0",
  "extraData": "0x476574682f76312e302e312f77696e646f77732f676f312e342e32",
  "transactions": [
    {
      "hash": "0x0534c2ce60bbffa39e268a5b4eab97e0c85eb4c1865b4ff480bd637f3e1fe178",
      "blockHash": "0x81861d9712016d227be4cd77b334e00c267c8f2683f5ee8e27a2779bdd38b882",
      "blockNumber": 68422,
      "transactionIndex": 0,
      "confirmations": null,
      "from": "0x17580B766f7453525ca4C6A88b01b50570EA088C",
      "gasPrice": {
        "_hex": "0xd82f1a4fa"
      },
      "gasLimit": {
        "_hex": "0x61a80"
      },
      "to": "0x5Fe5B7546D1628f7348B023A0393de1FC825A4fD",
      "value": {
        "_hex": "0xde0b6b3a7640000"
      },
      "nonce": 22,
      "data": "0xb595b8b50000000000000000000000000000000000000000000000000000000000000000",
      "r": "0x2d7ff9e611a6a8dfeb4947854d902a12b5ab528229f3d46722200ee6d82fc6a7",
      "s": "0x7aaccef4575ef1d7aa7529083e85c28c19133bb1262905f39f061a558d2dad75",
      "v": 27,
      "creates": null,
      "raw": "0xf89116850d82f1a4fa83061a80945fe5b7546d1628f7348b023a0393de1fc825a4fd880de0b6b3a7640000a4b595b8b500000000000000000000000000000000000000000000000000000000000000001ba02d7ff9e611a6a8dfeb4947854d902a12b5ab528229f3d46722200ee6d82fc6a7a07aaccef4575ef1d7aa7529083e85c28c19133bb1262905f39f061a558d2dad75",
      "networkId": 0,
      "chainId": 0
    },
    {
      "hash": "0x54f8ceefdb96a247ec6535197b693ed507be7b629949c033935bd82c714342eb",
      "blockHash": "0x81861d9712016d227be4cd77b334e00c267c8f2683f5ee8e27a2779bdd38b882",
      "blockNumber": 68422,
      "transactionIndex": 1,
      "confirmations": null,
      "from": "0x665722F17E341CF5F38613dfAC7Ba5D19E8Ae4a6",
      "gasPrice": {
        "_hex": "0xba43b7400"
      },
      "gasLimit": {
        "_hex": "0x5208"
      },
      "to": "0xC874869F27d57D5778D01BC8C1f611Cdee79e2F1",
      "value": {
        "_hex": "0x7c58ada8ff2000"
      },
      "nonce": 1,
      "data": "0x",
      "r": "0xe0e31d096ca06a8578a02e508f91751a880b184803bedf44f2b253daa6b33cc3",
      "s": "0x11a67593126bf2c0f0d0ff8f12dce80333ae62e720e6d77e2170d4284ee421ee",
      "v": 27,
      "creates": null,
      "raw": "0xf86b01850ba43b740082520894c874869f27d57d5778d01bc8c1f611cdee79e2f1877c58ada8ff2000801ba0e0e31d096ca06a8578a02e508f91751a880b184803bedf44f2b253daa6b33cc3a011a67593126bf2c0f0d0ff8f12dce80333ae62e720e6d77e2170d4284ee421ee",
      "networkId": 0,
      "chainId": 0
    },
    {
      "hash": "0x34de0d577d5a90261f20773a0c4187b616658d18770fed56a314cd3dd713f155",
      "blockHash": "0x81861d9712016d227be4cd77b334e00c267c8f2683f5ee8e27a2779bdd38b882",
      "blockNumber": 68422,
      "transactionIndex": 2,
      "confirmations": null,
      "from": "0x256958C8D50FB01A751202F05b7c6bE46097662d",
      "gasPrice": {
        "_hex": "0xba43b7400"
      },
      "gasLimit": {
        "_hex": "0x5208"
      },
      "to": "0x280285081C00e1f126584af383ad47A130a2623B",
      "value": {
        "_hex": "0x7c58ada8ff2000"
      },
      "nonce": 1,
      "data": "0x",
      "r": "0x393144eb8fd343ea50e33ae60094dd1d72f9e332abaa0877214257c88c5cbd26",
      "s": "0x41028ac7cb540b07d9e32efe0cc9b1e8b74dd110255e08c30c6e5414e4862d54",
      "v": 28,
      "creates": null,
      "raw": "0xf86b01850ba43b740082520894280285081c00e1f126584af383ad47a130a2623b877c58ada8ff2000801ca0393144eb8fd343ea50e33ae60094dd1d72f9e332abaa0877214257c88c5cbd26a041028ac7cb540b07d9e32efe0cc9b1e8b74dd110255e08c30c6e5414e4862d54",
      "networkId": 0,
      "chainId": 0
    },
    {
      "hash": "0xf5ae6531eb4036145d5756db67ba27e0566b6bb127e79b86ce4e8e8139ef2a31",
      "blockHash": "0x81861d9712016d227be4cd77b334e00c267c8f2683f5ee8e27a2779bdd38b882",
      "blockNumber": 68422,
      "transactionIndex": 3,
      "confirmations": null,
      "from": "0x6747f922385c9a6F9cfDf095F34345257DD597bE",
      "gasPrice": {
        "_hex": "0xba43b7400"
      },
      "gasLimit": {
        "_hex": "0x5208"
      },
      "to": "0x81D1F8d19733393c3a4E3e80DFfF7B8B121E0D1A",
      "value": {
        "_hex": "0x1fcbfa42bd6000"
      },
      "nonce": 81,
      "data": "0x",
      "r": "0xa0882b683ca4bd4e913ada72c71cae91fd443bca3b29917daf68eb378ad02157",
      "s": "0x43d4012a34fe14fc594f29e172698517ab3329c42a460ef96034b91ac869a5ac",
      "v": 27,
      "creates": null,
      "raw": "0xf86b51850ba43b74008252089481d1f8d19733393c3a4e3e80dfff7b8b121e0d1a871fcbfa42bd6000801ba0a0882b683ca4bd4e913ada72c71cae91fd443bca3b29917daf68eb378ad02157a043d4012a34fe14fc594f29e172698517ab3329c42a460ef96034b91ac869a5ac",
      "networkId": 0,
      "chainId": 0
    },
    {
      "hash": "0x5a31c8f626807721d13e19c19527b95bb26f2b77730d283cdfe01eef5315ffdd",
      "blockHash": "0x81861d9712016d227be4cd77b334e00c267c8f2683f5ee8e27a2779bdd38b882",
      "blockNumber": 68422,
      "transactionIndex": 4,
      "confirmations": null,
      "from": "0x23dD1201c380c6Bb5De18766Eb1E9DcF48E20485",
      "gasPrice": {
        "_hex": "0xba43b7400"
      },
      "gasLimit": {
        "_hex": "0x5208"
      },
      "to": "0xCFE406Ca13A03ec72597142f9b88fF67Be104002",
      "value": {
        "_hex": "0x7c58ada8ff2000"
      },
      "nonce": 1,
      "data": "0x",
      "r": "0x7223093379ccc3927eb2b1f5984f738c08dc90bb4e294e084e1c3e3a5e4bfac8",
      "s": "0x3b51676a600f9fd5c8047c2b79b099f46efe1abdcba954c69ddb97887f1fce0c",
      "v": 28,
      "creates": null,
      "raw": "0xf86b01850ba43b740082520894cfe406ca13a03ec72597142f9b88ff67be104002877c58ada8ff2000801ca07223093379ccc3927eb2b1f5984f738c08dc90bb4e294e084e1c3e3a5e4bfac8a03b51676a600f9fd5c8047c2b79b099f46efe1abdcba954c69ddb97887f1fce0c",
      "networkId": 0,
      "chainId": 0
    },
    {
      "hash": "0x1033837d1e2f54ce4a129a2891a7241991cacc53db486c65df093542973f5591",
      "blockHash": "0x81861d9712016d227be4cd77b334e00c267c8f2683f5ee8e27a2779bdd38b882",
      "blockNumber": 68422,
      "transactionIndex": 5,
      "confirmations": null,
      "from": "0x309dcfc48C0FBf3C771b6945e4c9e85d1C3FF8a9",
      "gasPrice": {
        "_hex": "0xba43b7400"
      },
      "gasLimit": {
        "_hex": "0x5208"
      },
      "to": "0xdE725c8Bc4Aa12FcCE9C4d7488274BA27913975c",
      "value": {
        "_hex": "0x7c58ada8ff2000"
      },
      "nonce": 1,
      "data": "0x",
      "r": "0xd3d9fdbf16fdd0feb28c521244c1db0d49762a4de2cc4308eaaa249e05fc6cfc",
      "s": "0x1b4b4d75c21f668b0f6f26016eefbb22fe740a8f62dcdaa7986799cfd85d97cd",
      "v": 28,
      "creates": null,
      "raw": "0xf86b01850ba43b740082520894de725c8bc4aa12fcce9c4d7488274ba27913975c877c58ada8ff2000801ca0d3d9fdbf16fdd0feb28c521244c1db0d49762a4de2cc4308eaaa249e05fc6cfca01b4b4d75c21f668b0f6f26016eefbb22fe740a8f62dcdaa7986799cfd85d97cd",
      "networkId": 0,
      "chainId": 0
    }
  ]
}