{
  "hash": "0x4100e6124174635ffc956c33f8837ab936c2aa67893a45f9e067941e60ac396c",
  "parentHash": "0x904032a57b1a1750c3d4051422a80344da8836bd599b73e7399b807f62c9c292",
  "number": 108340,
  "timestamp": 1439938556,
  "nonce": "0x59d5174ace9da04a",
  "difficulty": 4357490832154,
  "gasLimit": {
    "_hex": "0x2fefd8"
  },
  "gasUsed": {
    "_hex": "0x19a28"
  },
  "miner": "0x790b8a3cE86E707ED0eD32bF89B3269692a23CC1",
  "extraData": "0xd783010001844765746887676f312e342e32856c696e7578",
  "transactions": [
    {
      "hash": "0xeeda8eeee5093636d04c7d72c0c66ba2f1d2f6b646250b69bd68296a62755dae",
      "blockHash": "0x4100e6124174635ffc956c33f8837ab936c2aa67893a45f9e067941e60ac396c",
      "blockNumber": 108340,
      "transactionIndex": 0,
      "confirmations": null,
      "from": "0xFBb1b73C4f0BDa4f67dcA266ce6Ef42f520fBB98",
      "gasPrice": {
        "_hex": "0xdd5b58932"
      },
      "gasLimit": {
        "_hex": "0x5208"
      },
      "to": "0x037658E13e294088Cfd16A534b9C1F3B37282eB2",
      "value": {
        "_hex": "0x346c657981cac00"
      },
      "nonce": 173,
      "data": "0x",
      "r": "0xea3a5f4fa64c174768a70e1bd62609ccab6493fcb92a647d7bf69b563d0e5c7b",
      "s": "0x486f3a7d340e190844f8270120e70e24b8aa84f82bc919ae4cb8f581aa7ba7ef",
      "v": 27,
      "creates": null,
      "raw": "0xf86d81ad850dd5b5893282520894037658e13e294088cfd16a534b9c1f3b37282eb2880346c657981cac00801ba0ea3a5f4fa64c174768a70e1bd62609ccab6493fcb92a647d7bf69b563d0e5c7ba0486f3a7d340e190844f8270120e70e24b8aa84f82bc919ae4cb8f581aa7ba7ef",
      "networkId": 0,
      "chainId": 0
    },
    {
      "hash": "0xa6640af91cb0cbda4912b281a51786923b449d6552abd9f66b30f2bdd3584f15",
      "blockHash": "0x4100e6124174635ffc956c33f8837ab936c2aa67893a45f9e067941e60ac396c",
      "blockNumber": 108340,
      "transactionIndex": 1,
      "confirmations": null,
      "from": "0xFBb1b73C4f0BDa4f67dcA266ce6Ef42f520fBB98",
      "gasPrice": {
        "_hex": "0xdd5b58932"
      },
      "gasLimit": {
        "_hex": "0x5208"
      },
      "to": "0x48fFc2899b23bEea23dce1211619962c21E08046",
      "value": {
        "_hex": "0x2312f153124ec00"
      },
      "nonce": 174,
      "data": "0x",
      "r": "0x7fecc2efdc1b9463eebcdceb989e57c0418629dfe8de5145a73ef2c478570e97",
      "s": "0x67c95de1be62f83fd370cd65f82e99aa92e20b5fec4fe0fad44bc55bea277515",
      "v": 28,
      "creates": null,
      "raw": "0xf86d81ae850dd5b589328252089448ffc2899b23beea23dce1211619962c21e080468802312f153124ec00801ca07fecc2efdc1b9463eebcdceb989e57c0418629dfe8de5145a73ef2c478570e97a067c95de1be62f83fd370cd65f82e99aa92e20b5fec4fe0fad44bc55bea277515",
      "networkId": 0,
      "chainId": 0
    },
    {
      "hash": "0xb3530734746cff6cafed76161ee71b527d0299bb7f572ee54794fe16d5e2e8de",
      "blockHash": "0x4100e6124174635ffc956c33f8837ab936c2aa67893a45f9e067941e60ac396c",
      "blockNumber": 108340,
      "transactionIndex": 2,
      "confirmations": null,
      "from": "0xFBb1b73C4f0BDa4f67dcA266ce6Ef42f520fBB98",
      "gasPrice": {
        "_hex": "0xdd5b58932"
      },
      "gasLimit": {
        "_hex": "0x5208"
      },
      "to": "0xFa5F6b82A053710A6B8e09e4611A72Ff8dB51f83",
      "value": {
        "_hex": "0x2b5f7f03a21f400"
      },
      "nonce": 175,
      "data": "0x",
      "r": "0x261d8d5049fdea8fc92e7666379f921e082d7e6139b2678737ecb3c689dc3b31",
      "s": "0x1e6d5767f1c72fcd7b52effff9bc2e7b62ea50f5bd42d88db50740e06a6cb042",
      "v": 27,
      "creates": null,
      "raw": "0xf86d81af850dd5b5893282520894fa5f6b82a053710a6b8e09e4611a72ff8db51f838802b5f7f03a21f400801ba0261d8d5049fdea8fc92e7666379f921e082d7e6139b2678737ecb3c689dc3b31a01e6d5767f1c72fcd7b52effff9bc2e7b62ea50f5bd42d88db50740e06a6cb042",
      "networkId": 0,
      "chainId": 0
    },
    {
      "hash": "0x84b38f6972977bf246504d56d145d16bd50b0564f6ec1146b156edff734cb9d2",
      "blockHash": "0x4100e6124174635ffc956c33f8837ab936c2aa67893a45f9e067941e60ac396c",
      "blockNumber": 108340,
      "transactionIndex": 3,
      "confirmations": null,
      "from": "0xFBb1b73C4f0BDa4f67dcA266ce6Ef42f520fBB98",
      "gasPrice": {
        "_hex": "0xdd5b58932"
      },
      "gasLimit": {
        "_hex": "0x5208"
      },
      "to": "0x9927939864218A222e4376E689289531E3Fb9569",
      "value": {
        "_hex": "0xb8ddd3150137c00"
      },
      "nonce": 176,
      "data": "0x",
      "r": "0x7587c0cb77086731d83475cbc3e9f6e15e767c02a25d8b860411af65bccc4639",
      "s": "0x0f00b10c35c3f21eaefa73df3e822faadb4e984aae41e5f3f90ed134e570d838",
      "v": 28,
      "creates": null,
      "raw": "0xf86d81b0850dd5b58932825208949927939864218a222e4376e689289531e3fb9569880b8ddd3150137c00801ca07587c0cb77086731d83475cbc3e9f6e15e767c02a25d8b860411af65bccc4639a00f00b10c35c3f21eaefa73df3e822faadb4e984aae41e5f3f90ed134e570d838",
      "networkId": 0,
      "chainId": 0
    },
    {
      "hash": "0x78e919f06c44f2d48701a1e778a991b62c42c616a740d7ce36744be62715ef96",
      "blockHash": "0x4100e6124174635ffc956c33f8837ab936c2aa67893a45f9e067941e60ac396c",
      "blockNumber": 108340,
      "transactionIndex": 4,
      "confirmations": null,
      "from": "0xFBb1b73C4f0BDa4f67dcA266ce6Ef42f520fBB98",
      "gasPrice": {
        "_hex": "0xdd5b58932"
      },
      "gasLimit": {
        "_hex": "0x5208"
      },
      "to": "0x6A8CC233E14F874983bB2F37D1DE706f6910Ef0b",
      "value": {
        "_hex": "0x145a48c9bf710800"
      },
      "nonce": 177,
      "data": "0x",
      "r": "0x0d922e81709c413a7b0c46717c1c670e80c8e187a027edddae369afa51d75ea4",
      "s": "0x01fd03a22847bcb518c3d388b3e3baed07512c67d88c98390b441cb4f39f5380",
      "v": 28,
      "creates": null,
      "raw": "0xf86d81b1850dd5b58932825208946a8cc233e14f874983bb2f37d1de706f6910ef0b88145a48c9bf710800801ca00d922e81709c413a7b0c46717c1c670e80c8e187a027edddae369afa51d75ea4a001fd03a22847bcb518c3d388b3e3baed07512c67d88c98390b441cb4f39f5380",
      "networkId": 0,
      "chainId": 0
    }
  ]
}