{
  "hash": "0x21630fb16558b19c08c35305a666b4061b0f57effa50ec55ccba29165e4702f4",
  "parentHash": "0xb2e45be54169ca4bad8bb89599355ac8b1eab9c34bd62572cd643cf6a0723973",
  "number": 47658,
  "timestamp": 1438944341,
  "nonce": "0xb2d4ecd19d2fb36f",
  "difficulty": 1445967435629,
  "gasLimit": {
    "_hex": "0xdea3"
  },
  "gasUsed": {
    "_hex": "0x546c"
  },
  "miner": "0xbb7B8287f3F0a933474a79eAe42CBCa977791171",
  "extraData": "0x476574682f4c5649562f76312e302e312f6c696e75782f676f312e342e32",
  "transactions": [
    {
      "hash": "0x25812a3de0057f53e797f951ff13f3387e59e66c261dc735bf7739aebf1c4660",
      "blockHash": "0x21630fb16558b19c08c35305a666b4061b0f57effa50ec55ccba29165e4702f4",
      "blockNumber": 47658,
      "transactionIndex": 0,
      "confirmations": null,
      "from": "0x7456c5b2c5436E3E571008933f1805CCFe34e9Ec",
      "gasPrice": {
        "_hex": "0xdf8475800"
      },
      "gasLimit": {
        "_hex": "0x55f0"
      },
      "to": "0x2910543Af39abA0Cd09dBb2D50200b3E800A63D2",
      "value": {
        "_hex": "0x25e492dc8a0e0c0000"
      },
      "nonce": 1,
      "data": "0x454e3738564a345a52",
      "r": "0xa243465226f60f34d5ef8254b035cec46d121d0fa80b7ba1e980dbd5968cc719",
      "s": "0x0cea2234076836303fbc6bfad7366b4d88c0a2ea08c0fea667e9c11a4b17d6e0",
      "v": 28,
      "creates": null,
      "raw": "0xf87601850df84758008255f0942910543af39aba0cd09dbb2d50200b3e800a63d28925e492dc8a0e0c000089454e3738564a345a521ca0a243465226f60f34d5ef8254b035cec46d121d0fa80b7ba1e980dbd5968cc719a00cea2234076836303fbc6bfad7366b4d88c0a2ea08c0fea667e9c11a4b17d6e0",
      "networkId": 0,
      "chainId": 0
    }
  ]
}