{
  "hash": "0xe8d21615151a94803258d248193de4a4939f192f0618aea9ba57f72ddf5d22dd",
  "parentHash": "0x422f09e57928a364d8e5f45322e9ba4d84144363b542ca8dcabe99bd4b83fc17",
  "number": 101710,
  "timestamp": 1439827008,
  "nonce": "0xa7ed912ff9275fdc",
  "difficulty": 3863575277866,
  "gasLimit": {
    "_hex": "0x2fefd8"
  },
  "gasUsed": {
    "_hex": "0x546c"
  },
  "miner": "0xe6A7a1d47ff21B6321162AEA7C6CB457D5476Bca",
  "extraData": "0x476574682f76312e302e312d38326566323666362f6c696e75782f676f312e34",
  "transactions": [
    {
      "hash": "0x574c2cb331bd10e2743be227a2f3e72af28ef26ccef743bc82ab9f0a64b18541",
      "blockHash": "0xe8d21615151a94803258d248193de4a4939f192f0618aea9ba57f72ddf5d22dd",
      "blockNumber": 101710,
      "transactionIndex": 0,
      "confirmations": null,
      "from": "0x999C49C174cA13BC836c1e0A92bff48b271543cA",
      "gasPrice": {
        "_hex": "0x110c8f7d8de"
      },
      "gasLimit": {
        "_hex": "0xc350"
      },
      "to": "0x2910543Af39abA0Cd09dBb2D50200b3E800A63D2",
      "value": {
        "_hex": "0x6c6a3016135fb60000"
      },
      "nonce": 1,
      "data": "0x454e4a455946513238",
      "r": "0x08025792378ec86ec67714501c4523eeb9252e6c1820fd4a9470e5d91ec4b4e7",
      "s": "0xa3a5e97554516d5aee2e8b1c649033de538516fa7bb7ba86449bcfb3a348c9d1",
      "v": 27,
      "creates": null,
      "raw": "0xf87701860110c8f7d8de82c350942910543af39aba0cd09dbb2d50200b3e800a63d2896c6a3016135fb6000089454e4a4559465132381ba008025792378ec86ec67714501c4523eeb9252e6c1820fd4a9470e5d91ec4b4e7a0a3a5e97554516d5aee2e8b1c649033de538516fa7bb7ba86449bcfb3a348c9d1",
      "networkId": 0,
      "chainId": 0
    }
  ]
}