{
  "hash": "0x1ba5cc74c6cefd0888515a9f9035a38348dde90267499c567402e7dcad778fa1",
  "parentHash": "0xbc943aa34ba4c4a0484989e83ccc65f3b9e76fc6717a17a7cc4db7ec21c20246",
  "number": 111779,
  "timestamp": 1439996052,
  "nonce": "0x73f00f563ff5e0c6",
  "difficulty": 4435111876986,
  "gasLimit": {
    "_hex": "0x2fefd8"
  },
  "gasUsed": {
    "_hex": "0x5208"
  },
  "miner": "0xf927a40C8B7F6E07c5af7FA2155B4864a4112B13",
  "extraData": "0x",
  "transactions": [
    {
      "hash": "0x998111da49f5774712f594e4b24bbfac0b4fb0056e14b1551f6b319e460dfd05",
      "blockHash": "0x1ba5cc74c6cefd0888515a9f9035a38348dde90267499c567402e7dcad778fa1",
      "blockNumber": 111779,
      "transactionIndex": 0,
      "confirmations": null,
      "from": "0x32Be343B94f860124dC4fEe278FDCBD38C102D88",
      "gasPrice": {
        "_hex": "0xd2f94a633"
      },
      "gasLimit": {
        "_hex": "0x5208"
      },
      "to": "0x120A270bbC009644e35F0bB6ab13f95b8199c4ad",
      "value": {
        "_hex": "0x10f0cf064dd59200000"
      },
      "nonce": 1319,
      "data": "0x",
      "r": "0xe2e0ef3c76392e0ad64c451f7dcba917414feb2c7b659fe8f5898450a1ebcf34",
      "s": "0x7d3f91082cbce280c87345102fa714a8090dda5b631666013f8ec8cc50b076e8",
      "v": 27,
      "creates": null,
      "raw": "0xf870820527850d2f94a63382520894120a270bbc009644e35f0bb6ab13f95b8199c4ad8a010f0cf064dd59200000801ba0e2e0ef3c76392e0ad64c451f7dcba917414feb2c7b659fe8f5898450a1ebcf34a07d3f91082cbce280c87345102fa714a8090dda5b631666013f8ec8cc50b076e8",
      "networkId": 0,
      "chainId": 0
    }
  ]
}