{
  "hash": "0x1fd5341b17a6f407b073012fb3c1191a389f8519881f5b9e508f8a20d819eda0",
  "parentHash": "0x3bd69a7fe28997e6a59a0c74c00bd0d0ca139ff01dfa941447f655be9f3aded8",
  "number": 70288,
  "timestamp": 1439317628,
  "nonce": "0x040c86f70cde241e",
  "difficulty": 2129163894584,
  "gasLimit": {
    "_hex": "0x2fefd8"
  },
  "gasUsed": {
    "_hex": "0x5208"
  },
  "miner": "0x3A43Ef37317BfA278FdC2240895a93D5bBA4C4CA",
  "extraData": "0x",
  "transactions": [
    {
      "hash": "0x2f7086712cd8e96aec0357b7f5fac65e9e604323c373ff06c4ef59c1eb2a00c5",
      "blockHash": "0x1fd5341b17a6f407b073012fb3c1191a389f8519881f5b9e508f8a20d819eda0",
      "blockNumber": 70288,
      "transactionIndex": 0,
      "confirmations": null,
      "from": "0xBD744E3F13D79B33F6c8E1d5E32F8E9BA2866c46",
      "gasPrice": {
        "_hex": "0xd172b61e7"
      },
      "gasLimit": {
        "_hex": "0x5208"
      },
      "to": "0xD2e57181beE0BF25a2E7D377EaCCec854Bd65334",
      "value": {
        "_hex": "0xad78ebc5ac6200000"
      },
      "nonce": 13,
      "data": "0x",
      "r": "0x1907735960f52b80ac6a3491acf16e4744d14f5e9b60f6954076bb35e34be8dd",
      "s": "0x3ec527ae549d7cefce548db25d95b95fc03b3739923540cde2c7eb14964c7d4c",
      "v": 28,
      "creates": null,
      "raw": "0xf86d0d850d172b61e782520894d2e57181bee0bf25a2e7d377eaccec854bd65334890ad78ebc5ac6200000801ca01907735960f52b80ac6a3491acf16e4744d14f5e9b60f6954076bb35e34be8dda03ec527ae549d7cefce548db25d95b95fc03b3739923540cde2c7eb14964c7d4c",
      "networkId": 0,
      "chainId": 0
    }
  ]
}