{
  "hash": "0x13155302aecb2dcd6c71cca9c22d695254113d1e08d8ada9923a260002cb766c",
  "parentHash": "0x4ca9630db7f9bc33448db4886884b1fb1226afd9c3ff9f1cbe5d1525ae94164d",
  "number": 99533,
  "timestamp": 1439791747,
  "nonce": "0x68bfd61fb7f9065d",
  "difficulty": 3791681320727,
  "gasLimit": {
    "_hex": "0x2fefd8"
  },
  "gasUsed": {
    "_hex": "0x5208"
  },
  "miner": "0xe6A7a1d47ff21B6321162AEA7C6CB457D5476Bca",
  "extraData": "0x476574682f76312e302e312d38326566323666362f6c696e75782f676f312e34",
  "transactions": [
    {
      "hash": "0x37be3bebecd5321e36d1ad3a653d623af893a3bb6593892622347018d3593e41",
      "blockHash": "0x13155302aecb2dcd6c71cca9c22d695254113d1e08d8ada9923a260002cb766c",
      "blockNumber": 99533,
      "transactionIndex": 0,
      "confirmations": null,
      "from": "0x770d98d31b4353FceEE8560c4CCf803e88C0c4e0",
      "gasPrice": {
        "_hex": "0xcfcaf3459"
      },
      "gasLimit": {
        "_hex": "0x5208"
      },
      "to": "0xFBb1b73C4f0BDa4f67dcA266ce6Ef42f520fBB98",
      "value": {
        "_hex": "0xf6359c67070db38"
      },
      "nonce": 24,
      "data": "0x",
      "r": "0x99c8ba05a83a11b9e7387747153c621d458d96022cae4e42a77873f71e48a8d0",
      "s": "0x69eac3f30aa60f65667d1f0ab287303ac3e28f59294395933842a59a6ec458c7",
      "v": 27,
      "creates": null,
      "raw": "0xf86c18850cfcaf345982520894fbb1b73c4f0bda4f67dca266ce6ef42f520fbb98880f6359c67070db38801ba099c8ba05a83a11b9e7387747153c621d458d96022cae4e42a77873f71e48a8d0a069eac3f30aa60f65667d1f0ab287303ac3e28f59294395933842a59a6ec458c7",
      "networkId": 0,
      "chainId": 0
    }
  ]
}