{
  "hash": "0x9030ba125671ec2f236e3f4f10e28cd267255b042d169698b7cabcac18a693d1",
  "parentHash": "0x32d95f35a858fc5907da15377a69c0e6dfd0cf64a10934999a4d717a6d8da107",
  "number": 80093,
  "timestamp": 1439480049,
  "nonce": "0x442909237d1dba16",
  "difficulty": 2345984296938,
  "gasLimit": {
    "_hex": "0x2fefd8"
  },
  "gasUsed": {
    "_hex": "0x186a0"
  },
  "miner": "0xe6A7a1d47ff21B6321162AEA7C6CB457D5476Bca",
  "extraData": "0x476574682f76312e302e312d38326566323666362f6c696e75782f676f312e34",
  "transactions": [
    {
      "hash": "0x87cc3191c7cb75ed577aad801b711b8e01c13d678cdb7f55be999f6984a1e825",
      "blockHash": "0x9030ba125671ec2f236e3f4f10e28cd267255b042d169698b7cabcac18a693d1",
      "blockNumber": 80093,
      "transactionIndex": 0,
      "confirmations": null,
      "from": "0x2d11763B4999FB3b61Ca8d19C8C77a743079f7bd",
      "gasPrice": {
        "_hex": "0xcd537c76d"
      },
      "gasLimit": {
        "_hex": "0x186a0"
      },
      "to": "0xc2ac6849Aec3938FB8c9B36F1c07be76f766637E",
      "value": {
        "_hex": "0x8ac7230489e80000"
      },
      "nonce": 15,
      "data": "0x",
      "r": "0xf146b9dddb090343705d300ebb9803076670daaf8189a6dafcf33d5c1cedd391",
      "s": "0x22927d271b1628548f82db4e2f5938cd1172827a2e1844eee2351e105fc8421b",
      "v": 28,
      "creates": null,
      "raw": "0xf86d0f850cd537c76d830186a094c2ac6849aec3938fb8c9b36f1c07be76f766637e888ac7230489e80000801ca0f146b9dddb090343705d300ebb9803076670daaf8189a6dafcf33d5c1cedd391a022927d271b1628548f82db4e2f5938cd1172827a2e1844eee2351e105fc8421b",
      "networkId": 0,
      "chainId": 0
    }
  ]
}