{
  "hash": "0x0d3406c51c02c4ba1edb08fab5fc38a9bcb5d62d861e5f65d90bdfe7e4c2caf0",
  "parentHash": "0x039dd3e2e7f07b09cdc9484f5dc4d791841c17360bcda436bc0a924a904e64f2",
  "number": 86675,
  "timestamp": 1439581294,
  "nonce": "0xd9dc37618dcb2dae",
  "difficulty": 2943088386300,
  "gasLimit": {
    "_hex": "0x2fefd8"
  },
  "gasUsed": {
    "_hex": "0x5208"
  },
  "miner": "0xe6A7a1d47ff21B6321162AEA7C6CB457D5476Bca",
  "extraData": "0x476574682f76312e302e312d38326566323666362f6c696e75782f676f312e34",
  "transactions": [
    {
      "hash": "0xfaefd743e2f819e3d72c840bf7e3c816cbce619a56efe5acc2f1ff3e84833c8b",
      "blockHash": "0x0d3406c51c02c4ba1edb08fab5fc38a9bcb5d62d861e5f65d90bdfe7e4c2caf0",
      "blockNumber": 86675,
      "transactionIndex": 0,
      "confirmations": null,
      "from": "0x289B9bA6dC9c12D3130F1115180397C20cCBF220",
      "gasPrice": {
        "_hex": "0xba43b7400"
      },
      "gasLimit": {
        "_hex": "0x5208"
      },
      "to": "0xC47Aaa860008be6f65B58c6C6E02a84e666EfE31",
      "value": {
        "_hex": "0xe339a294aadb3acb10"
      },
      "nonce": 2,
      "data": "0x",
      "r": "0x9c78a655ab1b1e11c8dddd68bc42945d310275616abb1b0ab6a733c7c3b7d205",
      "s": "0x5aada8c2c29ab516c15fd25c69372b00ab87760bd501f53f55ba9b1f705edd73",
      "v": 28,
      "creates": null,
      "raw": "0xf86d02850ba43b740082520894c47aaa860008be6f65b58c6c6e02a84e666efe3189e339a294aadb3acb10801ca09c78a655ab1b1e11c8dddd68bc42945d310275616abb1b0ab6a733c7c3b7d205a05aada8c2c29ab516c15fd25c69372b00ab87760bd501f53f55ba9b1f705edd73",
      "networkId": 0,
      "chainId": 0
    }
  ]
}