{
  "hash": "0xba91603e2e61648cbefe6542f69e2f0ff5dced94d809a43f63c621569eb170f4",
  "parentHash": "0x9de151abc44ef1e326eca98ebdd8854670097b037fbb542f318e9341a1b9ad13",
  "number": 75053,
  "timestamp": 1439396934,
  "nonce": "0xf4fd810f7fface9a",
  "difficulty": 2183742702794,
  "gasLimit": {
    "_hex": "0x2fefd8"
  },
  "gasUsed": {
    "_hex": "0x79fd"
  },
  "miner": "0xe6A7a1d47ff21B6321162AEA7C6CB457D5476Bca",
  "extraData": "0x476574682f76312e302e312d38326566323666362f6c696e75782f676f312e34",
  "transactions": [
    {
      "hash": "0xd145570515743a9098c0fdec271612e8cfba4f272ab7fae44718e4c7cca42ab4",
      "blockHash": "0xba91603e2e61648cbefe6542f69e2f0ff5dced94d809a43f63c621569eb170f4",
      "blockNumber": 75053,
      "transactionIndex": 0,
      "confirmations": null,
      "from": "0x326Be8F71bFb0379f989aAB1CC1fE37f0a771f60",
      "gasPrice": {
        "_hex": "0x10d0fbc36fb"
      },
      "gasLimit": {
        "_hex": "0x493e0"
      },
      "to": "0xD79B4C6791784184e2755B2fC1659eaaB0f80456",
      "value": {
        "_hex": "0xde0b6b3a7640000"
      },
      "nonce": 67,
      "data": "0x8d2161860000000000000000000000000000000000000000000000000000000000000005d527b3445ebf4a4c68ebc7694339096fda3c3f8df5472d635257110136d4792d",
      "r": "0x389e606b9ed1ba0d70b63089be011213e9b3c19801ad2b50eab70731fb4da737",
      "s": "0x5af0656d567742f706966f3a280b7419fb972246fb6de49deeac1cc3983c49ff",
      "v": 27,
      "creates": null,
      "raw": "0xf8b34386010d0fbc36fb830493e094d79b4c6791784184e2755b2fc1659eaab0f80456880de0b6b3a7640000b8448d2161860000000000000000000000000000000000000000000000000000000000000005d527b3445ebf4a4c68ebc7694339096fda3c3f8df5472d635257110136d4792d1ba0389e606b9ed1ba0d70b63089be011213e9b3c19801ad2b50eab70731fb4da737a05af0656d567742f706966f3a280b7419fb972246fb6de49deeac1cc3983c49ff",
      "networkId": 0,
      "chainId": 0
    }
  ]
}