{
  "hash": "0x395c92fa43076460d4c8488d102f2265adf88adec2964195988d66787b8d5620",
  "parentHash": "0xae9cabdbf7404fdf6e219e5c3e731b69fd29f88dfcfadd3e1f0f1fb81442a9d2",
  "number": 93166,
  "timestamp": 1439683991,
  "nonce": "0x42dba6ff267f1b7e",
  "difficulty": 3619027204215,
  "gasLimit": {
    "_hex": "0x2fefd8"
  },
  "gasUsed": {
    "_hex": "0x54b0"
  },
  "miner": "0xf32866D5cE9a9b5673e076be48AbCd6ED48ADe78",
  "extraData": "0x476574682f76312e302e312d37666266393930632f6c696e75782f676f312e34",
  "transactions": [
    {
      "hash": "0x127ac606a64389cf44e8f73aa05d8850bf0ea330872db532a39e42376d10b87a",
      "blockHash": "0x395c92fa43076460d4c8488d102f2265adf88adec2964195988d66787b8d5620",
      "blockNumber": 93166,
      "transactionIndex": 0,
      "confirmations": null,
      "from": "0xDdFafdbC7c90f1320e54b98F374617fbd01d109f",
      "gasPrice": {
        "_hex": "0x10dc90d85e7"
      },
      "gasLimit": {
        "_hex": "0x55f0"
      },
      "to": "0x40B9b889A21Ff1534d018D71Dc406122EBcf3F5A",
      "value": {
        "_hex": "0x6c6b935b8bbd400000"
      },
      "nonce": 5,
      "data": "0x56414647463037393232",
      "r": "0x6e8766f51c4d22134a84546cf3a6f19210e37311a24e3df3ce38bed8e3dae31d",
      "s": "0x21229646e057ddd212aa4411cf107362e1bfcb0da711f3f2867f551ac21bdc56",
      "v": 28,
      "creates": null,
      "raw": "0xf8780586010dc90d85e78255f09440b9b889a21ff1534d018d71dc406122ebcf3f5a896c6b935b8bbd4000008a564146474630373932321ca06e8766f51c4d22134a84546cf3a6f19210e37311a24e3df3ce38bed8e3dae31da021229646e057ddd212aa4411cf107362e1bfcb0da711f3f2867f551ac21bdc56",
      "networkId": 0,
      "chainId": 0
    }
  ]
}