{
  "hash": "0x6f84f17356c0f90f9fd24c6123a14ab245374984596835d37bcaefb7963842e6",
  "parentHash": "0x5b2ea6d8429fb61d2d97de383b6eaa0edc95b3e8160ae0c8b3c20ee5f8542447",
  "number": 113985,
  "timestamp": 1440032965,
  "nonce": "0x90536393a2ce8b38",
  "difficulty": 4433945703592,
  "gasLimit": {
    "_hex": "0x2fefd8"
  },
  "gasUsed": {
    "_hex": "0x5208"
  },
  "miner": "0xe6A7a1d47ff21B6321162AEA7C6CB457D5476Bca",
  "extraData": "0x476574682f76312e302e312d38326566323666362f6c696e75782f676f312e34",
  "transactions": [
    {
      "hash": "0x246af082da213cd8c02dfdd6d0f711517b4321e45a5b8fbb4566395d1589c957",
      "blockHash": "0x6f84f17356c0f90f9fd24c6123a14ab245374984596835d37bcaefb7963842e6",
      "blockNumber": 113985,
      "transactionIndex": 0,
      "confirmations": null,
      "from": "0x36c510bf8d6e569BF2F37d47265dbcB502Ff2BcE",
      "gasPrice": {
        "_hex": "0xdefcaa3d4"
      },
      "gasLimit": {
        "_hex": "0x15f90"
      },
      "to": "0x7BD85B8e7546f88b3560CC11380C61eb7c9F95db",
      "value": {
        "_hex": "0x6be0cc388733580000"
      },
      "nonce": 7,
      "data": "0x",
      "r": "0x750d378e2ba71f564fa808b07de15a347ff245dcda2ffc86de8a8165622093e8",
      "s": "0x1c0eb60e1a91a2af11834aa63f84ee1ee00559111aa6684b36ed1666d6f8b54c",
      "v": 27,
      "creates": null,
      "raw": "0xf86e07850defcaa3d483015f90947bd85b8e7546f88b3560cc11380c61eb7c9f95db896be0cc388733580000801ba0750d378e2ba71f564fa808b07de15a347ff245dcda2ffc86de8a8165622093e8a01c0eb60e1a91a2af11834aa63f84ee1ee00559111aa6684b36ed1666d6f8b54c",
      "networkId": 0,
      "chainId": 0
    }
  ]
}