{
  "hash": "0x4a417f3688ca2dfd61f7ce6276ea96dfb17658998d5e005ffbcf7ac34233a7bc",
  "parentHash": "0x6cce0dfa34e11cb9939beefd7603adc27f01621ea8f249ce218831d6d8ce4839",
  "number": 74067,
  "timestamp": 1439379818,
  "nonce": "0x31af73b99590539c",
  "difficulty": 2237975909800,
  "gasLimit": {
    "_hex": "0x2fefd8"
  },
  "gasUsed": {
    "_hex": "0x5208"
  },
  "miner": "0xbb7B8287f3F0a933474a79eAe42CBCa977791171",
  "extraData": "0x476574682f4c5649562f76312e302e312f6c696e75782f676f312e342e32",
  "transactions": [
    {
      "hash": "0x58e599ceacd9a9f8b22c1c1ada78af6cf4dba006f5d574c4d2171e931d80686a",
      "blockHash": "0x4a417f3688ca2dfd61f7ce6276ea96dfb17658998d5e005ffbcf7ac34233a7bc",
      "blockNumber": 74067,
      "transactionIndex": 0,
      "confirmations": null,
      "from": "0x33A095c66C480D7ceEFafD38b12919632854784F",
      "gasPrice": {
        "_hex": "0x114d398687e"
      },
      "gasLimit": {
        "_hex": "0x7a120"
      },
      "to": "0x83816f103117f26a382c0ED30c21D0CF23f1D687",
      "value": {
        "_hex": "0x2f16afe27d37c8"
      },
      "nonce": 4,
      "data": "0x",
      "r": "0xb717a59209b56d260c6b6650b305544822f91fda292ffb28ac5cd3b064b88cd1",
      "s": "0x36ae982943523e73fcd71cc8a1d17acbbb81ad55c50c15cb38a2c815e7bc786f",
      "v": 28,
      "creates": null,
      "raw": "0xf86d04860114d398687e8307a1209483816f103117f26a382c0ed30c21d0cf23f1d687872f16afe27d37c8801ca0b717a59209b56d260c6b6650b305544822f91fda292ffb28ac5cd3b064b88cd1a036ae982943523e73fcd71cc8a1d17acbbb81ad55c50c15cb38a2c815e7bc786f",
      "networkId": 0,
      "chainId": 0
    }
  ]
}