{
  "hash": "0x0b5a754d9f03a6e672ccdfa5825afbf9edf9add41e65a9e4f04ba0f6c3323e88",
  "parentHash": "0x9a3c54850befb8cc5ecfc186e2aea4a432414ab69dfe8ce5edacc308839fe746",
  "number": 55448,
  "timestamp": 1439070910,
  "nonce": "0x8b1305dceb1d8939",
  "difficulty": 1627411306929,
  "gasLimit": {
    "_hex": "0x2fefd8"
  },
  "gasUsed": {
    "_hex": "0x5208"
  },
  "miner": "0x77e41B4125b7c14757e0f07fE36b2E95db757a10",
  "extraData": "0x",
  "transactions": [
    {
      "hash": "0xb21bab6b61fdf6fce7d6b8bf60bda0ed26c70bb0e8ca34adf36a1748422e6d53",
      "blockHash": "0x0b5a754d9f03a6e672ccdfa5825afbf9edf9add41e65a9e4f04ba0f6c3323e88",
      "blockNumber": 55448,
      "transactionIndex": 0,
      "confirmations": null,
      "from": "0x120A270bbC009644e35F0bB6ab13f95b8199c4ad",
      "gasPrice": {
        "_hex": "0xdb04c2d7b"
      },
      "gasLimit": {
        "_hex": "0x15f90"
      },
      "to": "0x06B0A142c49df51771F80A73C237BF6bd5C93bd1",
      "value": {
        "_hex": "0x8ac7230489e80000"
      },
      "nonce": 17,
      "data": "0x",
      "r": "0x7a11c9413c6e598ca180be7f6d380bcdad55cb2da3976b0459d286385102ec30",
      "s": "0x2110502cc19957460deafe4c826370c05599f0c0fb502934c8eff8bdd5e93b60",
      "v": 28,
      "creates": null,
      "raw": "0xf86d11850db04c2d7b83015f909406b0a142c49df51771f80a73c237bf6bd5c93bd1888ac7230489e80000801ca07a11c9413c6e598ca180be7f6d380bcdad55cb2da3976b0459d286385102ec30a02110502cc19957460deafe4c826370c05599f0c0fb502934c8eff8bdd5e93b60",
      "networkId": 0,
      "chainId": 0
    }
  ]
}