{
  "hash": "0x936bd9abee8c55e6ad4f5fb519f745086ec3a7db99613850455dcc94c1775eb9",
  "parentHash": "0xef30b8eda66c4898702ca63c7f53e9a4ee4ce3df1c978bc04b219a34bb899c3c",
  "number": 94420,
  "timestamp": 1439708067,
  "nonce": "0xdd46fd800a64e899",
  "difficulty": 3490074064036,
  "gasLimit": {
    "_hex": "0x2fefd8"
  },
  "gasUsed": {
    "_hex": "0x5208"
  },
  "miner": "0xe6A7a1d47ff21B6321162AEA7C6CB457D5476Bca",
  "extraData": "0x476574682f76312e302e312d38326566323666362f6c696e75782f676f312e34",
  "transactions": [
    {
      "hash": "0xc28ea6b045ddb48a3198dc97751a6ff21f8b9205d47c2228acdb263d9f229df8",
      "blockHash": "0x936bd9abee8c55e6ad4f5fb519f745086ec3a7db99613850455dcc94c1775eb9",
      "blockNumber": 94420,
      "transactionIndex": 0,
      "confirmations": null,
      "from": "0x7D60e9b25EaBC5f5971381c991D4757D07a2a51F",
      "gasPrice": {
        "_hex": "0x746a528800"
      },
      "gasLimit": {
        "_hex": "0x5208"
      },
      "to": "0xE3A4CD0E7193d90A4e94EAb73d2a546a34130170",
      "value": {
        "_hex": "0xe043da617250000"
      },
      "nonce": 1,
      "data": "0x",
      "r": "0x2889a006edbf00180719fb1c46f721b09d0dd34c05badccc48bd919abc02653a",
      "s": "0x6573c277cc23510a4fbd1a55143d3823dbcf8977135d3b4ace080376d9375d12",
      "v": 27,
      "creates": null,
      "raw": "0xf86c0185746a52880082520894e3a4cd0e7193d90a4e94eab73d2a546a34130170880e043da617250000801ba02889a006edbf00180719fb1c46f721b09d0dd34c05badccc48bd919abc02653aa06573c277cc23510a4fbd1a55143d3823dbcf8977135d3b4ace080376d9375d12",
      "networkId": 0,
      "chainId": 0
    }
  ]
}