{
  "hash": "0x02269149e98266c6f0b24b714239d3bca9387b1bc9fbea7af825b4549597aae0",
  "parentHash": "0x3c9ad152f5ea73d5df23a96cc1af4e0c3c2ef6d624f459766d3ee2946ef3bc98",
  "number": 62151,
  "timestamp": 1439183982,
  "nonce": "0x99026a1df6b7ac22",
  "difficulty": 1771170739415,
  "gasLimit": {
    "_hex": "0x2fefd8"
  },
  "gasUsed": {
    "_hex": "0x546c"
  },
  "miner": "0xF2d2AfF1320476cb8C6b607199D23175cc595693",
  "extraData": "0x476574682f76312e302e312f77696e646f77732f676f312e342e32",
  "transactions": [
    {
      "hash": "0xac9b67394c07e83f3cb9dd30cd63e4863e85b38cee3ba0befb2a86f5f203a8dc",
      "blockHash": "0x02269149e98266c6f0b24b714239d3bca9387b1bc9fbea7af825b4549597aae0",
      "blockNumber": 62151,
      "transactionIndex": 0,
      "confirmations": null,
      "from": "0x845203750f7148A9aa262921e86d43bf641974fD",
      "gasPrice": {
        "_hex": "0x110c8f7d8de"
      },
      "gasLimit": {
        "_hex": "0xc350"
      },
      "to": "0x2910543Af39abA0Cd09dBb2D50200b3E800A63D2",
      "value": {
        "_hex": "0x55005f0c614480000"
      },
      "nonce": 0,
      "data": "0x454e59504257313138",
      "r": "0x69829f0dfe76a28003f49196f123b68683c7b7afce95c0cef0f409c6ba695451",
      "s": "0x7a2f7f01c383484a508f9a3364d85aadec04a15f38be10e41c4dd77739113f1c",
      "v": 27,
      "creates": null,
      "raw": "0xf87780860110c8f7d8de82c350942910543af39aba0cd09dbb2d50200b3e800a63d289055005f0c61448000089454e595042573131381ba069829f0dfe76a28003f49196f123b68683c7b7afce95c0cef0f409c6ba695451a07a2f7f01c383484a508f9a3364d85aadec04a15f38be10e41c4dd77739113f1c",
      "networkId": 0,
      "chainId": 0
    }
  ]
}