{
  "hash": "0x2ce75f3b6d0764f6928ca8a0ae95c1e7f866e92f2978060e62a02b22186c2685",
  "parentHash": "0x705c4efe040fffe7154c30100bed87facd3a297b57aae21f7765c866192fde98",
  "number": 47196,
  "timestamp": 1438935885,
  "nonce": "0x4d1179d27e863c9f",
  "difficulty": 1463092620716,
  "gasLimit": {
    "_hex": "0xa187"
  },
  "gasUsed": {
    "_hex": "0x5208"
  },
  "miner": "0xf8E0CA3Ed80bd541b94BEdCf259e8CF2141A9523",
  "extraData": "0x476574682f76312e302e312f77696e646f77732f676f312e342e32",
  "transactions": [
    {
      "hash": "0x952113d5ec74faff7d3d09c5f8902276b67c4bbc48f1ba2eac84eb172ee20869",
      "blockHash": "0x2ce75f3b6d0764f6928ca8a0ae95c1e7f866e92f2978060e62a02b22186c2685",
      "blockNumber": 47196,
      "transactionIndex": 0,
      "confirmations": null,
      "from": "0x1406854D149E081aC09Cb4CA560Da463f3123059",
      "gasPrice": {
        "_hex": "0xd1f217cbf"
      },
      "gasLimit": {
        "_hex": "0x9c40"
      },
      "to": "0x11594d28A010e5c8e92576098d0d543eA32776FC",
      "value": {
        "_hex": "0x56bc75e2d63100000"
      },
      "nonce": 6,
      "data": "0x",
      "r": "0x9a7aefc25e3dcbee6c1d4bbd070a38c662a1efc71ba5188b72d4731de55d9a0d",
      "s": "0x5f4a29fe2db6469747ffe1a6e2651a982cc2a87a24a4d98c9c56e5b7e0c87a43",
      "v": 27,
      "creates": null,
      "raw": "0xf86d06850d1f217cbf829c409411594d28a010e5c8e92576098d0d543ea32776fc89056bc75e2d63100000801ba09a7aefc25e3dcbee6c1d4bbd070a38c662a1efc71ba5188b72d4731de55d9a0da05f4a29fe2db6469747ffe1a6e2651a982cc2a87a24a4d98c9c56e5b7e0c87a43",
      "networkId": 0,
      "chainId": 0
    }
  ]
}