{
  "hash": "0x6ee8c07e1b8243a0f02c1268c9eed3712c04708878bea6a09388ccfe54f545f5",
  "parentHash": "0x7ea5739efeda3db2a531bef12dbf477a61ec34e9742789741dd4222dfcb0dbf1",
  "number": 46902,
  "timestamp": 1438931303,
  "nonce": "0x499c4027d7576600",
  "difficulty": 1454595857496,
  "gasLimit": {
    "_hex": "0x83d6"
  },
  "gasUsed": {
    "_hex": "0x5208"
  },
  "miner": "0xbb7B8287f3F0a933474a79eAe42CBCa977791171",
  "extraData": "0x476574682f4c5649562f76312e302e312f6c696e75782f676f312e342e32",
  "transactions": [
    {
      "hash": "0xfee7304c302126c13be32f5a24178a129c00e17739a6f96a2cb2409ed3f5cff6",
      "blockHash": "0x6ee8c07e1b8243a0f02c1268c9eed3712c04708878bea6a09388ccfe54f545f5",
      "blockNumber": 46902,
      "transactionIndex": 0,
      "confirmations": null,
      "from": "0x4019b21f3dB1F288414aC180f3Ea63315B12a7aC",
      "gasPrice": {
        "_hex": "0xd583f9458"
      },
      "gasLimit": {
        "_hex": "0x5208"
      },
      "to": "0x32Be343B94f860124dC4fEe278FDCBD38C102D88",
      "value": {
        "_hex": "0x3635c5671640140000"
      },
      "nonce": 1,
      "data": "0x",
      "r": "0x9ef85d9031214f3cbf9667081fa7d96946ab707d338c7f9a667ff2ceef219cc8",
      "s": "0x322faac5719b4bc0051f6fb236462d458a62b34890ce67b00e6ed4a7dd801653",
      "v": 27,
      "creates": null,
      "raw": "0xf86d01850d583f94588252089432be343b94f860124dc4fee278fdcbd38c102d88893635c5671640140000801ba09ef85d9031214f3cbf9667081fa7d96946ab707d338c7f9a667ff2ceef219cc8a0322faac5719b4bc0051f6fb236462d458a62b34890ce67b00e6ed4a7dd801653",
      "networkId": 0,
      "chainId": 0
    }
  ]
}