{
  "hash": "0x094dbcaabb2fc94dd858dcf3371df8c6e01850a6a28d47a1e47352e3022b36c3",
  "parentHash": "0x7048b3e9a458b60dc8e64cfd65db85aa73971e4a6a6369c18827909ca83196bf",
  "number": 78085,
  "timestamp": 1439447972,
  "nonce": "0xa7fc59d3c44b1445",
  "difficulty": 2285482677286,
  "gasLimit": {
    "_hex": "0x2fefd8"
  },
  "gasUsed": {
    "_hex": "0xf618"
  },
  "miner": "0xf927a40C8B7F6E07c5af7FA2155B4864a4112B13",
  "extraData": "0x",
  "transactions": [
    {
      "hash": "0x8d53432d74de966e67b74e909816f023fccc588ce93f920b86577b3c14c4703a",
      "blockHash": "0x094dbcaabb2fc94dd858dcf3371df8c6e01850a6a28d47a1e47352e3022b36c3",
      "blockNumber": 78085,
      "transactionIndex": 0,
      "confirmations": null,
      "from": "0xa70a9a7040d542C632D8e0bE7c5513A8a5Bbc752",
      "gasPrice": {
        "_hex": "0xcffaa1ec6"
      },
      "gasLimit": {
        "_hex": "0x5208"
      },
      "to": "0x32Be343B94f860124dC4fEe278FDCBD38C102D88",
      "value": {
        "_hex": "0x455f67354b5f3c00"
      },
      "nonce": 49,
      "data": "0x",
      "r": "0x3b416fbcc8251ab8a03677447fcd84f332a4591b5590259b7243f22772f9cba1",
      "s": "0x6d28a4b626c3fa2356b442eee1da5e81b80d4b562c176d8bc37d2cd1d39eeef0",
      "v": 28,
      "creates": null,
      "raw": "0xf86c31850cffaa1ec68252089432be343b94f860124dc4fee278fdcbd38c102d8888455f67354b5f3c00801ca03b416fbcc8251ab8a03677447fcd84f332a4591b5590259b7243f22772f9cba1a06d28a4b626c3fa2356b442eee1da5e81b80d4b562c176d8bc37d2cd1d39eeef0",
      "networkId": 0,
      "chainId": 0
    },
    {
      "hash": "0xdcd570dd536c830e85ceb03bf919a5cd56c1a19c4d0d688afd796b1d5b6d648c",
      "blockHash": "0x094dbcaabb2fc94dd858dcf3371df8c6e01850a6a28d47a1e47352e3022b36c3",
      "blockNumber": 78085,
      "transactionIndex": 1,
      "confirmations": null,
      "from": "0x7339BF89A60F8a29d0Ed436F3198774F8e191f37",
      "gasPrice": {
        "_hex": "0xcffaa1ec6"
      },
      "gasLimit": {
        "_hex": "0x5208"
      },
      "to": "0x32Be343B94f860124dC4fEe278FDCBD38C102D88",
      "value": {
        "_hex": "0x7a1bb7132ddb3c00"
      },
      "nonce": 3,
      "data": "0x",
      "r": "0xa43b4303753b7d1d841a890156207d25a05c9af6a1b2d3ede59ec73bb9ebe658",
      "s": "0x400d41508dfab65dc537fcf5b4994ca1aa6166b6646bc58a5765c5210215a421",
      "v": 27,
      "creates": null,
      "raw": "0xf86c03850cffaa1ec68252089432be343b94f860124dc4fee278fdcbd38c102d88887a1bb7132ddb3c00801ba0a43b4303753b7d1d841a890156207d25a05c9af6a1b2d3ede59ec73bb9ebe658a0400d41508dfab65dc537fcf5b4994ca1aa6166b6646bc58a5765c5210215a421",
      "networkId": 0,
      "chainId": 0
    },
    {
      "hash": "0x35e6f03b907545d31c37b4f1bb55a9cfe087314dd84fa0ebc5251cbee2d85a88",
      "blockHash": "0x094dbcaabb2fc94dd858dcf3371df8c6e01850a6a28d47a1e47352e3022b36c3",
      "blockNumber": 78085,
      "transactionIndex": 2,
      "confirmations": null,
      "from": "0x01Ad0ACFf478127D9d702B1A13599D706cB759b1",
      "gasPrice": {
        "_hex": "0xcffaa1ec6"
      },
      "gasLimit": {
        "_hex": "0x5208"
      },
      "to": "0x32Be343B94f860124dC4fEe278FDCBD38C102D88",
      "value": {
        "_hex": "0xf2d852faf7c14000"
      },
      "nonce": 18,
      "data": "0x",
      "r": "0x3321992946e237e997258e4e3da145f852a5159c55a0f0d2cc7deb17231924e3",
      "s": "0x37c220b5fb92e1b657e4b0519899cadf1c0a72ed6671e472b2893ebfa5f72189",
      "v": 27,
      "creates": null,
      "raw": "0xf86c12850cffaa1ec68252089432be343b94f860124dc4fee278fdcbd38c102d8888f2d852faf7c14000801ba03321992946e237e997258e4e3da145f852a5159c55a0f0d2cc7deb17231924e3a037c220b5fb92e1b657e4b0519899cadf1c0a72ed6671e472b2893ebfa5f72189",
      "networkId": 0,
      "chainId": 0
    }
  ]
}