{
  "hash": "0xebfea8ef974e908498f494e6898195bfd9cc1dd3725c6c9c9e5d5d82240b90e9",
  "parentHash": "0x2c9a848550b916221df49201e0ce1ec610e312e86cfa7e59b7c7b516ca66eb73",
  "number": 90519,
  "timestamp": 1439641283,
  "nonce": "0xc0064b141c93efd5",
  "difficulty": 3349744531713,
  "gasLimit": {
    "_hex": "0x2fefd8"
  },
  "gasUsed": {
    "_hex": "0x5208"
  },
  "miner": "0xe6A7a1d47ff21B6321162AEA7C6CB457D5476Bca",
  "extraData": "0x476574682f76312e302e312d38326566323666362f6c696e75782f676f312e34",
  "transactions": [
    {
      "hash": "0xb0110f2ad655103feb5353b83f0ddca2ae16e55f263547c39887a54fef0f81ea",
      "blockHash": "0xebfea8ef974e908498f494e6898195bfd9cc1dd3725c6c9c9e5d5d82240b90e9",
      "blockNumber": 90519,
      "transactionIndex": 0,
      "confirmations": null,
      "from": "0xa522de7EB6ae1250522A513133a93bd42849475C",
      "gasPrice": {
        "_hex": "0xd5366c7c5"
      },
      "gasLimit": {
        "_hex": "0x15f90"
      },
      "to": "0x859217617481BD9b6E3e38f6aE9BB677F0D26154",
      "value": {
        "_hex": "0x878678326eac900000"
      },
      "nonce": 7,
      "data": "0x",
      "r": "0x9491f5d18e1515e89416ff5bff4836e6ee7ebefc9b4f2ff341ad00e18a00bf36",
      "s": "0x277ad0afd09b3208254740c7d8735ad584d6dfcd19fc1bcecbb86c1b9979a528",
      "v": 27,
      "creates": null,
      "raw": "0xf86e07850d5366c7c583015f9094859217617481bd9b6e3e38f6ae9bb677f0d2615489878678326eac900000801ba09491f5d18e1515e89416ff5bff4836e6ee7ebefc9b4f2ff341ad00e18a00bf36a0277ad0afd09b3208254740c7d8735ad584d6dfcd19fc1bcecbb86c1b9979a528",
      "networkId": 0,
      "chainId": 0
    }
  ]
}