{
  "hash": "0xc97a80704860e40a46a5fa6483fb8c78b82f51a9f074ed3f10a6095d890382cc",
  "parentHash": "0x293d2079df1ee1fbd9316c2f56d3c9bfb9318a65049b3637d0bb18658435909a",
  "number": 75709,
  "timestamp": 1439407796,
  "nonce": "0x7951f0c18fa9938a",
  "difficulty": 2233171960964,
  "gasLimit": {
    "_hex": "0x2fefd8"
  },
  "gasUsed": {
    "_hex": "0xad77"
  },
  "miner": "0xBD744E3F13D79B33F6c8E1d5E32F8E9BA2866c46",
  "extraData": "0x476574682f76312e302e312d39613032663533372f6c696e75782f676f312e34",
  "transactions": [
    {
      "hash": "0xaae22a5aae1aecb52c1212dd288e29aac0cec63dbffed05ae4a28229411c1294",
      "blockHash": "0xc97a80704860e40a46a5fa6483fb8c78b82f51a9f074ed3f10a6095d890382cc",
      "blockNumber": 75709,
      "transactionIndex": 0,
      "confirmations": null,
      "from": "0x87C5B5874A18B4306DF8a752a6C8cc3E82daFc19",
      "gasPrice": {
        "_hex": "0x10d4b09c50c"
      },
      "gasLimit": {
        "_hex": "0x493e0"
      },
      "to": "0xD79B4C6791784184e2755B2fC1659eaaB0f80456",
      "value": {
        "_hex": "0x0"
      },
      "nonce": 60,
      "data": "0x03750d94000000000000000000000000326be8f71bfb0379f989aab1cc1fe37f0a771f603161386439343066393064643932353800000000000000000000000000000000",
      "r": "0xdb268ddc38dd320befffb99d42b9ebc3c97ac5533e3c622998f00ad12a2e979f",
      "s": "0x56b9c9c64f625d012747d91e8422f065ce4a2bc590f781e68bda7d638954976a",
      "v": 28,
      "creates": null,
      "raw": "0xf8ab3c86010d4b09c50c830493e094d79b4c6791784184e2755b2fc1659eaab0f8045680b84403750d94000000000000000000000000326be8f71bfb0379f989aab1cc1fe37f0a771f6031613864393430663930646439323538000000000000000000000000000000001ca0db268ddc38dd320befffb99d42b9ebc3c97ac5533e3c622998f00ad12a2e979fa056b9c9c64f625d012747d91e8422f065ce4a2bc590f781e68bda7d638954976a",
      "networkId": 0,
      "chainId": 0
    }
  ]
}