{
  "hash": "0xc81b5f336cdd8427d9803608e2144cae3c856647a46ba82268f72c4ae2c3c783",
  "parentHash": "0xfd86e7282192d4cabb960c0810a4ee2d085c614e6f1524fd140255e91ecc40ba",
  "number": 77314,
  "timestamp": 1439435219,
  "nonce": "0x44044a6bafec3b8a",
  "difficulty": 2231654785589,
  "gasLimit": {
    "_hex": "0x2fefd5"
  },
  "gasUsed": {
    "_hex": "0x5208"
  },
  "miner": "0x31995C46B15C84523cDEE26f49A681b8237e43F5",
  "extraData": "0x476574682f76312e302e312f77696e646f77732f676f312e342e32",
  "transactions": [
    {
      "hash": "0x97e4b478fd90f86e3c397db4cbd08d5642e3c0dbede57e69d4e800ab8630dba1",
      "blockHash": "0xc81b5f336cdd8427d9803608e2144cae3c856647a46ba82268f72c4ae2c3c783",
      "blockNumber": 77314,
      "transactionIndex": 0,
      "confirmations": null,
      "from": "0x7Eb9F59f9547E376188eD83EFCD1F6dbF3712eA6",
      "gasPrice": {
        "_hex": "0xdb13c382c"
      },
      "gasLimit": {
        "_hex": "0x15f90"
      },
      "to": "0xAd941B747c499E3ad5728C285446813783A33564",
      "value": {
        "_hex": "0x29a2241af62c00000"
      },
      "nonce": 0,
      "data": "0x",
      "r": "0x918e103e6a0d35261fd936d3f799c22d21004c19a4f9f01b55220992f6905d30",
      "s": "0x607810b8b9045aa75e40dac7c1e5ce5f108fb7c8029e6e7e55a6a312c3adad70",
      "v": 27,
      "creates": null,
      "raw": "0xf86e80850db13c382c83015f9094ad941b747c499e3ad5728c285446813783a3356489029a2241af62c00000801ba0918e103e6a0d35261fd936d3f799c22d21004c19a4f9f01b55220992f6905d30a0607810b8b9045aa75e40dac7c1e5ce5f108fb7c8029e6e7e55a6a312c3adad70",
      "networkId": 0,
      "chainId": 0
    }
  ]
}