{
  "hash": "0xc3516d159e81cafe3f3a1a307210b0e5c8113f9ef5b7ed7fc122aa1e6b507207",
  "parentHash": "0x81ea4376889e1dc342f592423b478497db26d2ce4f5656c60598625534c0dbab",
  "number": 47157,
  "timestamp": 1438935216,
  "nonce": "0x69f975b44cb5c784",
  "difficulty": 1458107131001,
  "gasLimit": {
    "_hex": "0x9d05"
  },
  "gasUsed": {
    "_hex": "0x5208"
  },
  "miner": "0x108b54b7E3c09F8127CB8B28ffA3AD4001b32998",
  "extraData": "0x476574682f76312e302e312f6c696e75782f676f312e342e32",
  "transactions": [
    {
      "hash": "0x1bd2d936ee073124a87d34441e72984fcaef060dcec056f54354804ec10a18f0",
      "blockHash": "0xc3516d159e81cafe3f3a1a307210b0e5c8113f9ef5b7ed7fc122aa1e6b507207",
      "blockNumber": 47157,
      "transactionIndex": 0,
      "confirmations": null,
      "from": "0xb891F05f7E7E5F3767E96bF020C5b49dbEC895C0",
      "gasPrice": {
        "_hex": "0xd54274231"
      },
      "gasLimit": {
        "_hex": "0x5208"
      },
      "to": "0x32Be343B94f860124dC4fEe278FDCBD38C102D88",
      "value": {
        "_hex": "0x1bbd2806f6ecd800"
      },
      "nonce": 0,
      "data": "0x",
      "r": "0x277069dff517d0f5b477943d6b8cf9db1987c0e2d710e6d1be94c922be1aff6f",
      "s": "0x51ab2e941c74aaaacb42796994047eefbd4c7a642c653d26e0f276dae67838f9",
      "v": 28,
      "creates": null,
      "raw": "0xf86c80850d542742318252089432be343b94f860124dc4fee278fdcbd38c102d88881bbd2806f6ecd800801ca0277069dff517d0f5b477943d6b8cf9db1987c0e2d710e6d1be94c922be1aff6fa051ab2e941c74aaaacb42796994047eefbd4c7a642c653d26e0f276dae67838f9",
      "networkId": 0,
      "chainId": 0
    }
  ]
}