{
  "hash": "0xf4722f7cfe9c4f6b68bb592de7f96a68722a374c72628233effc0a5ac345587f",
  "parentHash": "0xa9eb3deafb992ff65e20307b3eac225e9d8ec9808a9162a98b09ae78c4e3073f",
  "number": 89810,
  "timestamp": 1439629519,
  "nonce": "0xb9839c412626e0c1",
  "difficulty": 3341858858688,
  "gasLimit": {
    "_hex": "0x2fefd8"
  },
  "gasUsed": {
    "_hex": "0x5208"
  },
  "miner": "0xBF26bdEBFe8e9CCe5f9868Ccb198d03F3de44055",
  "extraData": "0x476574682f76312e302e312f6c696e75782f676f312e342e32",
  "transactions": [
    {
      "hash": "0xecce6fc3978f1e54da793b9939467ec6ca8527b04c238c068a44cfd36c4dd39e",
      "blockHash": "0xf4722f7cfe9c4f6b68bb592de7f96a68722a374c72628233effc0a5ac345587f",
      "blockNumber": 89810,
      "transactionIndex": 0,
      "confirmations": null,
      "from": "0xc0920452d99591a4e8b190632c52754c72F73328",
      "gasPrice": {
        "_hex": "0xce0e19611"
      },
      "gasLimit": {
        "_hex": "0x5208"
      },
      "to": "0x32Be343B94f860124dC4fEe278FDCBD38C102D88",
      "value": {
        "_hex": "0x183448ace5ba6f000"
      },
      "nonce": 6,
      "data": "0x",
      "r": "0xff52ef3da0dd276f2962de46228bb13334b6ce04b39950f14117bb73e2cc8582",
      "s": "0x62bb31f2acd49f60974d4cd46ddf725c737d282f8b9511cfee471ae8b96f5906",
      "v": 27,
      "creates": null,
      "raw": "0xf86d06850ce0e196118252089432be343b94f860124dc4fee278fdcbd38c102d88890183448ace5ba6f000801ba0ff52ef3da0dd276f2962de46228bb13334b6ce04b39950f14117bb73e2cc8582a062bb31f2acd49f60974d4cd46ddf725c737d282f8b9511cfee471ae8b96f5906",
      "networkId": 0,
      "chainId": 0
    }
  ]
}