{
  "hash": "0x9e5cd64d1ec9871f31595e83209373245026a37fb9ba874f88adb3f6a622c69d",
  "parentHash": "0xdd7ba0701092dd7e41d009d1f05436eb2256a8073b45463c5dfa0c18d6cbbc4a",
  "number": 79820,
  "timestamp": 1439475656,
  "nonce": "0xdd8b9ec1677f6009",
  "difficulty": 2356393170533,
  "gasLimit": {
    "_hex": "0x2fefd8"
  },
  "gasUsed": {
    "_hex": "0xaa37"
  },
  "miner": "0x513cc87Fc09c7Dedae9A780a66dc47ebeE4B5C5A",
  "extraData": "0x",
  "transactions": [
    {
      "hash": "0xf10c72786812247e428e939b381e2335da8b8f992bf8cd3560ff327d1358f4e4",
      "blockHash": "0x9e5cd64d1ec9871f31595e83209373245026a37fb9ba874f88adb3f6a622c69d",
      "blockNumber": 79820,
      "transactionIndex": 0,
      "confirmations": null,
      "from": "0x87C5B5874A18B4306DF8a752a6C8cc3E82daFc19",
      "gasPrice": {
        "_hex": "0x10eb44ff542"
      },
      "gasLimit": {
        "_hex": "0x493e0"
      },
      "to": "0xC4c51de1AbF5D60DBd329eC0F999Fd8f021ae9fC",
      "value": {
        "_hex": "0x0"
      },
      "nonce": 107,
      "data": "0x03750d9400000000000000000000000087c5b5874a18b4306df8a752a6c8cc3e82dafc196361740000000000000000000000000000000000000000000000000000000000",
      "r": "0x3e4d767efa4f0faa0a291483805ba3a2282042cbd49218f41b21b68d9f5110cd",
      "s": "0x08987023e6bb45777fb2491edd8fc486c11859509d141a0e2e2dc05f832a6247",
      "v": 27,
      "creates": null,
      "raw": "0xf8ab6b86010eb44ff542830493e094c4c51de1abf5d60dbd329ec0f999fd8f021ae9fc80b84403750d9400000000000000000000000087c5b5874a18b4306df8a752a6c8cc3e82dafc1963617400000000000000000000000000000000000000000000000000000000001ba03e4d767efa4f0faa0a291483805ba3a2282042cbd49218f41b21b68d9f5110cda008987023e6bb45777fb2491edd8fc486c11859509d141a0e2e2dc05f832a6247",
      "networkId": 0,
      "chainId": 0
    }
  ]
}