{
  "hash": "0x43a56a0595fa56def7bee620d4c7843c269e3174b1459be1715774cf45e5ebf3",
  "parentHash": "0xabf67f3e538ac4ac8cce1657970cf34fca9a353de07abb8ef0586cc5c65067e9",
  "number": 52556,
  "timestamp": 1439023433,
  "nonce": "0x0e22ea8321998aad",
  "difficulty": 1568666620913,
  "gasLimit": {
    "_hex": "0x156836"
  },
  "gasUsed": {
    "_hex": "0xf9448"
  },
  "miner": "0xF2d2AfF1320476cb8C6b607199D23175cc595693",
  "extraData": "0x476574682f76312e302e312f77696e646f77732f676f312e342e32",
  "transactions": [
    {
      "hash": "0x8d29225d4ef7b6956ca935dcc53212e181aeb33f78a5a97ad330666bb1bb4b61",
      "blockHash": "0x43a56a0595fa56def7bee620d4c7843c269e3174b1459be1715774cf45e5ebf3",
      "blockNumber": 52556,
      "transactionIndex": 0,
      "confirmations": null,
      "from": "0x54dAeb3E8a6BBC797E4aD2b0339f134b186e4637",
      "gasPrice": {
        "_hex": "0xdc89443da"
      },
      "gasLimit": {
        "_hex": "0x5208"
      },
      "to": "0x54dAeb3E8a6BBC797E4aD2b0339f134b186e4637",
      "value": {
        "_hex": "0x0"
      },
      "nonce": 715,
      "data": "0x",
      "r": "0x128a9282546f32ffafd78e1f4810c10ccb48c8297243a70df017895eba99b465",
      "s": "0x66117a0778049632a685ee2a888b8b2c5085cea0c49c5f19d8f4f5920943b31d",
      "v": 27,
      "creates": null,
      "raw": "0xf8668202cb850dc89443da8252089454daeb3e8a6bbc797e4ad2b0339f134b186e463780801ba0128a9282546f32ffafd78e1f4810c10ccb48c8297243a70df017895eba99b465a066117a0778049632a685ee2a888b8b2c5085cea0c49c5f19d8f4f5920943b31d",
      "networkId": 0,
      "chainId": 0
    },
    {
      "hash": "0x8907b532bd7564c366da570929cee6d03ecdfccf5ab3fad976b27312b865ae15",
      "blockHash": "0x43a56a0595fa56def7bee620d4c7843c269e3174b1459be1715774cf45e5ebf3",
      "blockNumber": 52556,
      "transactionIndex": 1,
      "confirmations": null,
      "from": "0x54dAeb3E8a6BBC797E4aD2b0339f134b186e4637",
      "gasPrice": {
        "_hex": "0xe7d27df17"
      },
      "gasLimit": {
        "_hex": "0x7a120"
      },
      "to": "0xBAA54d6E90c3F4d7Ebec11bD180134C7eD8eBb52",
      "value": {
        "_hex": "0x16345785d8a0000"
      },
      "nonce": 716,
      "data": "0x",
      "r": "0x871e3d331087fec9178068b9b1c00b9337c45d970462f89f05ae29c5431fc72f",
      "s": "0x69e862d7677748d958dc0a657ce5c134bbec1e071a4ecc9aeb45bf69dc808264",
      "v": 27,
      "creates": null,
      "raw": "0xf86f8202cc850e7d27df178307a12094baa54d6e90c3f4d7ebec11bd180134c7ed8ebb5288016345785d8a0000801ba0871e3d331087fec9178068b9b1c00b9337c45d970462f89f05ae29c5431fc72fa069e862d7677748d958dc0a657ce5c134bbec1e071a4ecc9aeb45bf69dc808264",
      "networkId": 0,
      "chainId": 0
    },
    {
      "hash": "0x103f04beaa6bba796cdf9121e7349a774f91da0cadaa9f3c158f7910b735416e",
      "blockHash": "0x43a56a0595fa56def7bee620d4c7843c269e3174b1459be1715774cf45e5ebf3",
      "blockNumber": 52556,
      "transactionIndex": 2,
      "confirmations": null,
      "from": "0x54dAeb3E8a6BBC797E4aD2b0339f134b186e4637",
      "gasPrice": {
        "_hex": "0xe7d27df17"
      },
      "gasLimit": {
        "_hex": "0x7a120"
      },
      "to": "0xBAA54d6E90c3F4d7Ebec11bD180134C7eD8eBb52",
      "value": {
        "_hex": "0x16345785d8a0000"
      },
      "nonce": 717,
      "data": "0x",
      "r": "0xe933533f03422392d2a4c776e849fbdeb1b97ae6060a5f2a9d35aa2b8f1c961b",
      "s": "0x1a2ef531518cb758e4e640ab24ffaedc1e80393b65ff2c9bad886644b8e9a2bc",
      "v": 27,
      "creates": null,
      "raw": "0xf86f8202cd850e7d27df178307a12094baa54d6e90c3f4d7ebec11bd180134c7ed8ebb5288016345785d8a0000801ba0e933533f03422392d2a4c776e849fbdeb1b97ae6060a5f2a9d35aa2b8f1c961ba01a2ef531518cb758e4e640ab24ffaedc1e80393b65ff2c9bad886644b8e9a2bc",
      "networkId": 0,
      "chainId": 0
    }
  ]
}