{
  "hash": "0x1195bf410bcdf0b89cc9409f5ac539050211eee222dd532bc300a1137c1610f2",
  "parentHash": "0xdebb82087d54092ed379a7b7a4bb57a4ab1174cd5c145c7bbc0adad482e5a906",
  "number": 62255,
  "timestamp": 1439185620,
  "nonce": "0x87f3b43d60e107eb",
  "difficulty": 1774611436626,
  "gasLimit": {
    "_hex": "0x2fe3db"
  },
  "gasUsed": {
    "_hex": "0x7c28"
  },
  "miner": "0x47ff6576639c2e94762eA5443978D7681C0E78DC",
  "extraData": "0x476574682f76312e302e312f6c696e75782f676f312e342e32",
  "transactions": [
    {
      "hash": "0xd0559a8d30eb982ec0212d4a9d323ed583d85c42070ac1a5f58ebaee91800767",
      "blockHash": "0x1195bf410bcdf0b89cc9409f5ac539050211eee222dd532bc300a1137c1610f2",
      "blockNumber": 62255,
      "transactionIndex": 0,
      "confirmations": null,
      "from": "0x2910543Af39abA0Cd09dBb2D50200b3E800A63D2",
      "gasPrice": {
        "_hex": "0xdf359b627"
      },
      "gasLimit": {
        "_hex": "0x5208"
      },
      "to": "0x6da3A9d94B3cF82719F9c6857950046fA404Dd16",
      "value": {
        "_hex": "0x8c75aa1df39f2708000"
      },
      "nonce": 109,
      "data": "0x",
      "r": "0x51613fa90a70dc18bbee493fb808d4340cc9e26003eb1f0eb45ad210a0b6192f",
      "s": "0x4a2e768ffee6fa906cb96afa5e655d55b5197947aab5f6dd460f50d3bafee393",
      "v": 27,
      "creates": null,
      "raw": "0xf86e6d850df359b627825208946da3a9d94b3cf82719f9c6857950046fa404dd168a08c75aa1df39f2708000801ba051613fa90a70dc18bbee493fb808d4340cc9e26003eb1f0eb45ad210a0b6192fa04a2e768ffee6fa906cb96afa5e655d55b5197947aab5f6dd460f50d3bafee393",
      "networkId": 0,
      "chainId": 0
    },
    {
      "hash": "0x21d59137c376254c226dc6d9955f9d346c72dedaf8270cfd19281ad144909310",
      "blockHash": "0x1195bf410bcdf0b89cc9409f5ac539050211eee222dd532bc300a1137c1610f2",
      "blockNumber": 62255,
      "transactionIndex": 1,
      "confirmations": null,
      "from": "0xB100987e77FEbA6F022dBd22B80B008e35d3Ff2E",
      "gasPrice": {
        "_hex": "0xcfee2cff0"
      },
      "gasLimit": {
        "_hex": "0x15f90"
      },
      "to": "0xDd078da257128aEF13471Ace70Ef448C0A3F1EcA",
      "value": {
        "_hex": "0x0"
      },
      "nonce": 16,
      "data": "0x41c0e1b5",
      "r": "0xfc140161088f4350be5aadeb868a7f3ea6ea5445c68b3ec09557734ffdc8fbd9",
      "s": "0x2d21fff9de843b8e7f610ba3cf34c81221bbe4615b10a6441d07170fbfe1c326",
      "v": 28,
      "creates": null,
      "raw": "0xf86910850cfee2cff083015f9094dd078da257128aef13471ace70ef448c0a3f1eca808441c0e1b51ca0fc140161088f4350be5aadeb868a7f3ea6ea5445c68b3ec09557734ffdc8fbd9a02d21fff9de843b8e7f610ba3cf34c81221bbe4615b10a6441d07170fbfe1c326",
      "networkId": 0,
      "chainId": 0
    }
  ]
}