{
  "hash": "0x8fc1d85fb170b771d7f38cf6c55d21ce7a548180e5cb6c9ded1aea0f252f1f39",
  "parentHash": "0x6b03f045a4fb27813764001ca1517fccb0ad370023631a3501d52c5884d5adfa",
  "number": 84395,
  "timestamp": 1439549048,
  "nonce": "0x4d6412f4898d4de3",
  "difficulty": 2560193522039,
  "gasLimit": {
    "_hex": "0x2fefd8"
  },
  "gasUsed": {
    "_hex": "0x5208"
  },
  "miner": "0xe6A7a1d47ff21B6321162AEA7C6CB457D5476Bca",
  "extraData": "0x476574682f76312e302e312d38326566323666362f6c696e75782f676f312e34",
  "transactions": [
    {
      "hash": "0x3b27449b2e50d2a14e835eef0c64193d88f5b302f473e1b1f81d32a634df867c",
      "blockHash": "0x8fc1d85fb170b771d7f38cf6c55d21ce7a548180e5cb6c9ded1aea0f252f1f39",
      "blockNumber": 84395,
      "transactionIndex": 0,
      "confirmations": null,
      "from": "0xc7704Fc5c51C7a5f1a6574b0014b58C8915BA55C",
      "gasPrice": {
        "_hex": "0xd72a47488"
      },
      "gasLimit": {
        "_hex": "0x5208"
      },
      "to": "0x32Be343B94f860124dC4fEe278FDCBD38C102D88",
      "value": {
        "_hex": "0x21852d364435ce000"
      },
      "nonce": 2,
      "data": "0x",
      "r": "0x486fb92c78db6ddc8c660a4480c101e428863db75da848c135f6d2540562a41c",
      "s": "0x0394393b8b338d8d00c3fc9a8545ff2a26c9435e4f19efde144cd3b34d90d495",
      "v": 28,
      "creates": null,
      "raw": "0xf86d02850d72a474888252089432be343b94f860124dc4fee278fdcbd38c102d8889021852d364435ce000801ca0486fb92c78db6ddc8c660a4480c101e428863db75da848c135f6d2540562a41ca00394393b8b338d8d00c3fc9a8545ff2a26c9435e4f19efde144cd3b34d90d495",
      "networkId": 0,
      "chainId": 0
    }
  ]
}