{
  "hash": "0x52c0e8bafa1a644b01b7c6f481a14ac58434ecf61bbb00cfad5dfd7a8803fdd9",
  "parentHash": "0x2e5169d2f518b0c541ba906d3e9dd483c04069191454c6732d80a4c856d50522",
  "number": 71575,
  "timestamp": 1439338297,
  "nonce": "0xa519cbd9aab65bb1",
  "difficulty": 2178257321034,
  "gasLimit": {
    "_hex": "0x2fefd8"
  },
  "gasUsed": {
    "_hex": "0xaec1"
  },
  "miner": "0xbb7B8287f3F0a933474a79eAe42CBCa977791171",
  "extraData": "0x476574682f4c5649562f76312e302e312f6c696e75782f676f312e342e32",
  "transactions": [
    {
      "hash": "0xec15abc78fe8dca76214db8c8a99fc3a131439dc4847aee7dee5844c09ca88e9",
      "blockHash": "0x52c0e8bafa1a644b01b7c6f481a14ac58434ecf61bbb00cfad5dfd7a8803fdd9",
      "blockNumber": 71575,
      "transactionIndex": 0,
      "confirmations": null,
      "from": "0x17580B766f7453525ca4C6A88b01b50570EA088C",
      "gasPrice": {
        "_hex": "0xdd8a564ea"
      },
      "gasLimit": {
        "_hex": "0x61a80"
      },
      "to": "0x5Fe5B7546D1628f7348B023A0393de1FC825A4fD",
      "value": {
        "_hex": "0x7ce66c50e2840000"
      },
      "nonce": 220,
      "data": "0xb595b8b50000000000000000000000000000000000000000000000000000000000000001",
      "r": "0x7857fe2ad84cb3db269c3bdd09a95ac654c6ba6a2c83efe225da03ed4b0955a7",
      "s": "0x48df5bde2abac0422132e97305dd55084435ec34333188581b6d009f1376febd",
      "v": 27,
      "creates": null,
      "raw": "0xf89281dc850dd8a564ea83061a80945fe5b7546d1628f7348b023a0393de1fc825a4fd887ce66c50e2840000a4b595b8b500000000000000000000000000000000000000000000000000000000000000011ba07857fe2ad84cb3db269c3bdd09a95ac654c6ba6a2c83efe225da03ed4b0955a7a048df5bde2abac0422132e97305dd55084435ec34333188581b6d009f1376febd",
      "networkId": 0,
      "chainId": 0
    }
  ]
}