{
  "hash": "0x7e90e8af9da3e3036da1eb33756a1883f82a7ec572b66be2e2619624aacc4470",
  "parentHash": "0x3c71e67197e103e7359d39468fd4d3ec7dbc1510d5400f4155c18197a0818e2f",
  "number": 66045,
  "timestamp": 1439247582,
  "nonce": "0xe1228478e8278754",
  "difficulty": 1946247445383,
  "gasLimit": {
    "_hex": "0x2fefd8"
  },
  "gasUsed": {
    "_hex": "0x53e4"
  },
  "miner": "0xf927a40C8B7F6E07c5af7FA2155B4864a4112B13",
  "extraData": "0x",
  "transactions": [
    {
      "hash": "0xe893166cf9455586a516d922674c0a66059d227a89a211a01994c5e6ab337ae1",
      "blockHash": "0x7e90e8af9da3e3036da1eb33756a1883f82a7ec572b66be2e2619624aacc4470",
      "blockNumber": 66045,
      "transactionIndex": 0,
      "confirmations": null,
      "from": "0x908CABeD14f5632705F9D7BdB95d672b164446A8",
      "gasPrice": {
        "_hex": "0xdfced0b41"
      },
      "gasLimit": {
        "_hex": "0x55f0"
      },
      "to": "0x0fEF98e531637eb9a87a9c4bC84554E42713F2ec",
      "value": {
        "_hex": "0x16345785d8a0000"
      },
      "nonce": 0,
      "data": "0x676f617447656e",
      "r": "0xcc36b9370d53c978b705bcaefb3804c8e993565934070097dbc25614fe71bf66",
      "s": "0x37ce83fe1c987b43be9e01faf0bf4377e6469739eae30460a3b1a7d9092f90c7",
      "v": 28,
      "creates": null,
      "raw": "0xf87380850dfced0b418255f0940fef98e531637eb9a87a9c4bc84554e42713f2ec88016345785d8a000087676f617447656e1ca0cc36b9370d53c978b705bcaefb3804c8e993565934070097dbc25614fe71bf66a037ce83fe1c987b43be9e01faf0bf4377e6469739eae30460a3b1a7d9092f90c7",
      "networkId": 0,
      "chainId": 0
    }
  ]
}