{
  "hash": "0xdc7c740d323215549709a55a5dfbc0beafeab6b83b73c16fe52c2d68317017aa",
  "parentHash": "0x529b303a73fecbcd42c0019348b7ede0fde20510968730fc9b00d65522647be7",
  "number": 110084,
  "timestamp": 1439967802,
  "nonce": "0x789802b551c16394",
  "difficulty": 4377909408069,
  "gasLimit": {
    "_hex": "0x2fefd8"
  },
  "gasUsed": {
    "_hex": "0x5718"
  },
  "miner": "0x790b8a3cE86E707ED0eD32bF89B3269692a23CC1",
  "extraData": "0xd783010001844765746887676f312e342e32856c696e7578",
  "transactions": [
    {
      "hash": "0xfe0b6aa7de502d95894045b71193d8d69ae904f7031ba2ba01137b0c1b136260",
      "blockHash": "0xdc7c740d323215549709a55a5dfbc0beafeab6b83b73c16fe52c2d68317017aa",
      "blockNumber": 110084,
      "transactionIndex": 0,
      "confirmations": null,
      "from": "0xc30F3e11B4f34259ce948A5558F73f64fDc9Ed7B",
      "gasPrice": {
        "_hex": "0xd7a7d5bf5"
      },
      "gasLimit": {
        "_hex": "0x15f90"
      },
      "to": "0xc6d9d2cD449A754c494264e1809c50e34D64562b",
      "value": {
        "_hex": "0x0"
      },
      "nonce": 4,
      "data": "0x432ced044d657462697446726565436f696e000000000000000000000000000000000000",
      "r": "0x63945f7c82903bbe3dba1d328ccfd2ff082972f7ba06857934128f5aee1da323",
      "s": "0x009c68c13b5ae6fd3d6c8aafdd0df5bbf4d40f878756d21126daa18a2e2373aa",
      "v": 27,
      "creates": null,
      "raw": "0xf88804850d7a7d5bf583015f9094c6d9d2cd449a754c494264e1809c50e34d64562b80a4432ced044d657462697446726565436f696e0000000000000000000000000000000000001ba063945f7c82903bbe3dba1d328ccfd2ff082972f7ba06857934128f5aee1da3239f9c68c13b5ae6fd3d6c8aafdd0df5bbf4d40f878756d21126daa18a2e2373aa",
      "networkId": 0,
      "chainId": 0
    }
  ]
}