{
  "hash": "0xca863541f242098a6951d8612fb9482737753b888b74715141d7c1e03d6957f6",
  "parentHash": "0x756553f0da03a80f2d03e51c1f202493a2fc126380340cb5f68fa663f3bd2d35",
  "number": 97357,
  "timestamp": 1439754819,
  "nonce": "0x48f72dd96a9a9761",
  "difficulty": 3803792624728,
  "gasLimit": {
    "_hex": "0x2fefd8"
  },
  "gasUsed": {
    "_hex": "0x305c0"
  },
  "miner": "0xe6A7a1d47ff21B6321162AEA7C6CB457D5476Bca",
  "extraData": "0x476574682f76312e302e312d38326566323666362f6c696e75782f676f312e34",
  "transactions": [
    {
      "hash": "0x0a417b9efd5af5a42c2a3fdf8832330fbfe4bdca10c44491cac3601d93d1b600",
      "blockHash": "0xca863541f242098a6951d8612fb9482737753b888b74715141d7c1e03d6957f6",
      "blockNumber": 97357,
      "transactionIndex": 0,
      "confirmations": null,
      "from": "0x4BBc2EF7E5482B88E8c9C4bc05c5A3d3FF2B03c7",
      "gasPrice": {
        "_hex": "0xdda4d1faf"
      },
      "gasLimit": {
        "_hex": "0xf4240"
      },
      "to": null,
      "value": {
        "_hex": "0x0"
      },
      "nonce": 10,
      "data": "0x606060405260405160208061025a8339016040526060805190602001505b8080602757506127105b600060005060003373ffffffffffffffffffffffffffffffffffffffff168152602001908152602001600020600050819055505b506101ef8061006b6000396000f30060606040526000357c01000000000000000000000000000000000000000000000000000000009004806390b98a1114610044578063bbd39ac01461007157610042565b005b61005b6004803590602001803590602001506100b3565b6040518082815260200191505060405180910390f35b610082600480359060200150610098565b6040518082815260200191505060405180910390f35b60006000506020528060005260406000206000915090505481565b600081600060005060003373ffffffffffffffffffffffffffffffffffffffff1681526020019081526020016000206000505410156100f557600090506101e9565b81600060005060003373ffffffffffffffffffffffffffffffffffffffff16815260200190815260200160002060008282825054039250508190555081600060005060008573ffffffffffffffffffffffffffffffffffffffff1681526020019081526020016000206000828282505401925050819055507f16cdf1707799c6655baac6e210f52b94b7cec08adcaf9ede7dfe8649da926146338484604051808473ffffffffffffffffffffffffffffffffffffffff1681526020018373ffffffffffffffffffffffffffffffffffffffff168152602001828152602001935050505060405180910390a1600190506101e9565b92915050560000000000000000000000000000000000000000000000000000000000002710",
      "r": "0xb05d4a2ec607091312581744ab8c3261b73baa3129e1fd65111975d54c9ce88e",
      "s": "0x2e856a19be81573e756ca35c436d6213fbe13c2329ed22e8691a8d98584f33bb",
      "v": 28,
      "creates": "0xe6391fFF899CfCCC80e19b7ba39BBee15393554E",
      "raw": "0xf902cd0a850dda4d1faf830f42408080b9027a606060405260405160208061025a8339016040526060805190602001505b8080602757506127105b600060005060003373ffffffffffffffffffffffffffffffffffffffff168152602001908152602001600020600050819055505b506101ef8061006b6000396000f30060606040526000357c01000000000000000000000000000000000000000000000000000000009004806390b98a1114610044578063bbd39ac01461007157610042565b005b61005b6004803590602001803590602001506100b3565b6040518082815260200191505060405180910390f35b610082600480359060200150610098565b6040518082815260200191505060405180910390f35b60006000506020528060005260406000206000915090505481565b600081600060005060003373ffffffffffffffffffffffffffffffffffffffff1681526020019081526020016000206000505410156100f557600090506101e9565b81600060005060003373ffffffffffffffffffffffffffffffffffffffff16815260200190815260200160002060008282825054039250508190555081600060005060008573ffffffffffffffffffffffffffffffffffffffff1681526020019081526020016000206000828282505401925050819055507f16cdf1707799c6655baac6e210f52b94b7cec08adcaf9ede7dfe8649da926146338484604051808473ffffffffffffffffffffffffffffffffffffffff1681526020018373ffffffffffffffffffffffffffffffffffffffff168152602001828152602001935050505060405180910390a1600190506101e9565b929150505600000000000000000000000000000000000000000000000000000000000027101ca0b05d4a2ec607091312581744ab8c3261b73baa3129e1fd65111975d54c9ce88ea02e856a19be81573e756ca35c436d6213fbe13c2329ed22e8691a8d98584f33bb",
      "networkId": 0,
      "chainId": 0
    },
    {
      "hash": "0x0a6affa96044af52c036873e1075c59a7897a39c03cc5ea8034d29ce3df5814f",
      "blockHash": "0xca863541f242098a6951d8612fb9482737753b888b74715141d7c1e03d6957f6",
      "blockNumber": 97357,
      "transactionIndex": 1,
      "confirmations": null,
      "from": "0x947C69B054bd430474c0BdfB47f3476276004ea2",
      "gasPrice": {
        "_hex": "0xd5c02cc61"
      },
      "gasLimit": {
        "_hex": "0x30d40"
      },
      "to": "0x120A270bbC009644e35F0bB6ab13f95b8199c4ad",
      "value": {
        "_hex": "0x128bcf39b727ac0"
      },
      "nonce": 0,
      "data": "0x",
      "r": "0xfe1aa7598927cdf5726cc64815fddb2720a4a58325945b2e1ad7dc22cc28e55b",
      "s": "0x032fbb0646250dad30dc2a980d59053a28f6cab776a67473ef4f951c909a016f",
      "v": 27,
      "creates": null,
      "raw": "0xf86d80850d5c02cc6183030d4094120a270bbc009644e35f0bb6ab13f95b8199c4ad880128bcf39b727ac0801ba0fe1aa7598927cdf5726cc64815fddb2720a4a58325945b2e1ad7dc22cc28e55ba0032fbb0646250dad30dc2a980d59053a28f6cab776a67473ef4f951c909a016f",
      "networkId": 0,
      "chainId": 0
    }
  ]
}