{
  "hash": "0x4d599a617c66a70217128f621d1e5632a3e5f8971814f767be843d7ad12c3a9f",
  "parentHash": "0xfb6b4071d5b030533d63bed49dc9fd7608172bcd9efd26ec875e049898c8fc18",
  "number": 62386,
  "timestamp": 1439187965,
  "nonce": "0x50ddf8b95e84336c",
  "difficulty": 1766802369750,
  "gasLimit": {
    "_hex": "0x2fefd5"
  },
  "gasUsed": {
    "_hex": "0x5208"
  },
  "miner": "0xf927a40C8B7F6E07c5af7FA2155B4864a4112B13",
  "extraData": "0x",
  "transactions": [
    {
      "hash": "0x7d9655b0d2f3bc1734aa6f0209a7dafdec78be814722658177054b62f12bfed4",
      "blockHash": "0x4d599a617c66a70217128f621d1e5632a3e5f8971814f767be843d7ad12c3a9f",
      "blockNumber": 62386,
      "transactionIndex": 0,
      "confirmations": null,
      "from": "0x87898CE53471043FcCa0a2aF4E1dC6d8B3fCf607",
      "gasPrice": {
        "_hex": "0xd3ff7144e"
      },
      "gasLimit": {
        "_hex": "0x5208"
      },
      "to": "0xBFdD9820a04283b289957956353b5F3C1F665EcF",
      "value": {
        "_hex": "0x8ac7230489e80000"
      },
      "nonce": 10,
      "data": "0x",
      "r": "0x0ab61dda496cfc64492f809fdf48897ec182425cbc2e00fc3ea724a0645f22d7",
      "s": "0x545e32ae67316791ecde14eb5d0d43be398561e3e133d03f5df495d20cf084ec",
      "v": 28,
      "creates": null,
      "raw": "0xf86c0a850d3ff7144e82520894bfdd9820a04283b289957956353b5f3c1f665ecf888ac7230489e80000801ca00ab61dda496cfc64492f809fdf48897ec182425cbc2e00fc3ea724a0645f22d7a0545e32ae67316791ecde14eb5d0d43be398561e3e133d03f5df495d20cf084ec",
      "networkId": 0,
      "chainId": 0
    }
  ]
}