{
  "hash": "0x5e68e18960963efbea41250156198185a5b4976277904ad1979c5a50f08b18a5",
  "parentHash": "0x4167bbcae25716addd4295c2683f300c26b88bc30a9f1850312c799eb5e15eff",
  "number": 84257,
  "timestamp": 1439547089,
  "nonce": "0x34451953aabb26e3",
  "difficulty": 2532880297543,
  "gasLimit": {
    "_hex": "0x2fefd8"
  },
  "gasUsed": {
    "_hex": "0x38658"
  },
  "miner": "0xf927a40C8B7F6E07c5af7FA2155B4864a4112B13",
  "extraData": "0x",
  "transactions": [
    {
      "hash": "0xcd83faad6136172d01e2eccd2d5da81e8ec65f55f111c34172f14eb55315ccdd",
      "blockHash": "0x5e68e18960963efbea41250156198185a5b4976277904ad1979c5a50f08b18a5",
      "blockNumber": 84257,
      "transactionIndex": 0,
      "confirmations": null,
      "from": "0xe6A7a1d47ff21B6321162AEA7C6CB457D5476Bca",
      "gasPrice": {
        "_hex": "0xd8881cd8c"
      },
      "gasLimit": {
        "_hex": "0x55f0"
      },
      "to": "0xCC0c34544f4644d80d7FCD82E0b56e9d5C7AF43c",
      "value": {
        "_hex": "0x122cda3859e17be8"
      },
      "nonce": 1431,
      "data": "0x",
      "r": "0x1db2d875f035da82d92334efde65189839688f5f52c76adf09d1e3eb75645501",
      "s": "0x758803bea17b85e38c8171242bf9e130a0702f7167fb35945391a11ba39601b1",
      "v": 28,
      "creates": null,
      "raw": "0xf86e820597850d8881cd8c8255f094cc0c34544f4644d80d7fcd82e0b56e9d5c7af43c88122cda3859e17be8801ca01db2d875f035da82d92334efde65189839688f5f52c76adf09d1e3eb75645501a0758803bea17b85e38c8171242bf9e130a0702f7167fb35945391a11ba39601b1",
      "networkId": 0,
      "chainId": 0
    },
    {
      "hash": "0xa09c62606e078a02b0f29eb5f6a507d3b4f47e594e099c5150dfa1f88079c83a",
      "blockHash": "0x5e68e18960963efbea41250156198185a5b4976277904ad1979c5a50f08b18a5",
      "blockNumber": 84257,
      "transactionIndex": 1,
      "confirmations": null,
      "from": "0xe6A7a1d47ff21B6321162AEA7C6CB457D5476Bca",
      "gasPrice": {
        "_hex": "0xd8881cd8c"
      },
      "gasLimit": {
        "_hex": "0x55f0"
      },
      "to": "0xbF8d8B4eC992203984f7379b001E87E6943Dd5E3",
      "value": {
        "_hex": "0x12464f0da000f500"
      },
      "nonce": 1432,
      "data": "0x",
      "r": "0x65214074235bad5d83079452651756074bf9bb948e3b76b81cdb7bf16ccea26b",
      "s": "0x6b63a52c001f66446956e4a651d56dfbb4ccdaaa375d13d61f292bbba5e44096",
      "v": 28,
      "creates": null,
      "raw": "0xf86e820598850d8881cd8c8255f094bf8d8b4ec992203984f7379b001e87e6943dd5e38812464f0da000f500801ca065214074235bad5d83079452651756074bf9bb948e3b76b81cdb7bf16ccea26ba06b63a52c001f66446956e4a651d56dfbb4ccdaaa375d13d61f292bbba5e44096",
      "networkId": 0,
      "chainId": 0
    },
    {
      "hash": "0x76581447732ab784b5bfb74c3e89b3f94edea8ed63e2bfc424f9c258a0a87a85",
      "blockHash": "0x5e68e18960963efbea41250156198185a5b4976277904ad1979c5a50f08b18a5",
      "blockNumber": 84257,
      "transactionIndex": 2,
      "confirmations": null,
      "from": "0xe6A7a1d47ff21B6321162AEA7C6CB457D5476Bca",
      "gasPrice": {
        "_hex": "0xd8881cd8c"
      },
      "gasLimit": {
        "_hex": "0x55f0"
      },
      "to": "0x8C93d2F70d641AC1F4cCc3287E2A1376Ce3c7DCC",
      "value": {
        "_hex": "0x1270d5728a548418"
      },
      "nonce": 1433,
      "data": "0x",
      "r": "0xa1923653acf33ec34b0a238303e8b59a5a661c5d62307134e4f4c6e9973396a5",
      "s": "0x5f0d3cb04205bab0ddbf6c911bb820bbf54f9c3be43240f554971da0a74d9409",
      "v": 27,
      "creates": null,
      "raw": "0xf86e820599850d8881cd8c8255f0948c93d2f70d641ac1f4ccc3287e2a1376ce3c7dcc881270d5728a548418801ba0a1923653acf33ec34b0a238303e8b59a5a661c5d62307134e4f4c6e9973396a5a05f0d3cb04205bab0ddbf6c911bb820bbf54f9c3be43240f554971da0a74d9409",
      "networkId": 0,
      "chainId": 0
    },
    {
      "hash": "0xeaed3bf4cd59477fa3a8296815947ea67cfd938e9c8f6c9a9dd754d2bfc5f581",
      "blockHash": "0x5e68e18960963efbea41250156198185a5b4976277904ad1979c5a50f08b18a5",
      "blockNumber": 84257,
      "transactionIndex": 3,
      "confirmations": null,
      "from": "0xe6A7a1d47ff21B6321162AEA7C6CB457D5476Bca",
      "gasPrice": {
        "_hex": "0xd8881cd8c"
      },
      "gasLimit": {
        "_hex": "0x55f0"
      },
      "to": "0xB06c47325B63091CF8555d4709bC8fA20AAE1E49",
      "value": {
        "_hex": "0x12766202e045cf2c"
      },
      "nonce": 1434,
      "data": "0x",
      "r": "0xfefe361862853b440c1c41021094b6cfa8b6d23a05fca092896f23deff8e36e2",
      "s": "0x75cc3f438c40c168d5047520882e46f764c4030ba21bd163ac378c9cbc24ef3c",
      "v": 27,
      "creates": null,
      "raw": "0xf86e82059a850d8881cd8c8255f094b06c47325b63091cf8555d4709bc8fa20aae1e498812766202e045cf2c801ba0fefe361862853b440c1c41021094b6cfa8b6d23a05fca092896f23deff8e36e2a075cc3f438c40c168d5047520882e46f764c4030ba21bd163ac378c9cbc24ef3c",
      "networkId": 0,
      "chainId": 0
    },
    {
      "hash": "0xae30e961c0bf500447c411df738f42cda76a8f06fa79d16f7f117e0349c02112",
      "blockHash": "0x5e68e18960963efbea41250156198185a5b4976277904ad1979c5a50f08b18a5",
      "blockNumber": 84257,
      "transactionIndex": 4,
      "confirmations": null,
      "from": "0xe6A7a1d47ff21B6321162AEA7C6CB457D5476Bca",
      "gasPrice": {
        "_hex": "0xd8881cd8c"
      },
      "gasLimit": {
        "_hex": "0x55f0"
      },
      "to": "0xAba5352947CBaEAcf6B2E11E03EaE0008176aeDF",
      "value": {
        "_hex": "0x128d0581da81aa28"
      },
      "nonce": 1435,
      "data": "0x",
      "r": "0x449ba22b0856f1b431d5afbae9a70aeb076f6da77dc7594ef5d039834ba528c5",
      "s": "0x6189872135c0268c94981342805d4eb6e5eeab171c9a7f269ad13247922f94c2",
      "v": 27,
      "creates": null,
      "raw": "0xf86e82059b850d8881cd8c8255f094aba5352947cbaeacf6b2e11e03eae0008176aedf88128d0581da81aa28801ba0449ba22b0856f1b431d5afbae9a70aeb076f6da77dc7594ef5d039834ba528c5a06189872135c0268c94981342805d4eb6e5eeab171c9a7f269ad13247922f94c2",
      "networkId": 0,
      "chainId": 0
    },
    {
      "hash": "0xc1146bfa219d6ff51ff2262f96d05b713c8ed4c4b8025930a16003e54eba887a",
      "blockHash": "0x5e68e18960963efbea41250156198185a5b4976277904ad1979c5a50f08b18a5",
      "blockNumber": 84257,
      "transactionIndex": 5,
      "confirmations": null,
      "from": "0xe6A7a1d47ff21B6321162AEA7C6CB457D5476Bca",
      "gasPrice": {
        "_hex": "0xd8881cd8c"
      },
      "gasLimit": {
        "_hex": "0x55f0"
      },
      "to": "0x5c1653cb464DBbE53972CcAD9E6044C9A82b0242",
      "value": {
        "_hex": "0x129f15b106ef9f38"
      },
      "nonce": 1436,
      "data": "0x",
      "r": "0x3a0dbcf1cdfc8db58c68a8157f139cca8b717d112e9c6174bb2296c704725afa",
      "s": "0x4f6a1e26673d154eaa09ce98c8305923db5c43449655f6a39f6859bd7003438e",
      "v": 27,
      "creates": null,
      "raw": "0xf86e82059c850d8881cd8c8255f0945c1653cb464dbbe53972ccad9e6044c9a82b024288129f15b106ef9f38801ba03a0dbcf1cdfc8db58c68a8157f139cca8b717d112e9c6174bb2296c704725afaa04f6a1e26673d154eaa09ce98c8305923db5c43449655f6a39f6859bd7003438e",
      "networkId": 0,
      "chainId": 0
    },
    {
      "hash": "0xafd2829730be7e2accb2114f0d0bb3bf82341203ec1e38d513e826c270e09a04",
      "blockHash": "0x5e68e18960963efbea41250156198185a5b4976277904ad1979c5a50f08b18a5",
      "blockNumber": 84257,
      "transactionIndex": 6,
      "confirmations": null,
      "from": "0xe6A7a1d47ff21B6321162AEA7C6CB457D5476Bca",
      "gasPrice": {
        "_hex": "0xd8881cd8c"
      },
      "gasLimit": {
        "_hex": "0x55f0"
      },
      "to": "0x47fe9Ce29dA03E8466a067e4321fD32312e39607",
      "value": {
        "_hex": "0x12beaf8aeff28618"
      },
      "nonce": 1437,
      "data": "0x",
      "r": "0x64a570827436335c0ba754a5db7bf0b8ca645c89b60200b10a1fffe1cceebd3d",
      "s": "0x4cc796940d22e58db18bd221be85ebf219de91cd16208ba8dbeb84d2a3c98848",
      "v": 28,
      "creates": null,
      "raw": "0xf86e82059d850d8881cd8c8255f09447fe9ce29da03e8466a067e4321fd32312e396078812beaf8aeff28618801ca064a570827436335c0ba754a5db7bf0b8ca645c89b60200b10a1fffe1cceebd3da04cc796940d22e58db18bd221be85ebf219de91cd16208ba8dbeb84d2a3c98848",
      "networkId": 0,
      "chainId": 0
    },
    {
      "hash": "0xb7c32b6612ac7473ee4b52720eb2f3ce616dcf7853e1a12a71d0cb4fa269fbd0",
      "blockHash": "0x5e68e18960963efbea41250156198185a5b4976277904ad1979c5a50f08b18a5",
      "blockNumber": 84257,
      "transactionIndex": 7,
      "confirmations": null,
      "from": "0xe6A7a1d47ff21B6321162AEA7C6CB457D5476Bca",
      "gasPrice": {
        "_hex": "0xd8881cd8c"
      },
      "gasLimit": {
        "_hex": "0x55f0"
      },
      "to": "0x84a2dcC780Ba2Bfdc390077007DE77714793887f",
      "value": {
        "_hex": "0x12c4c60b5e6afcf0"
      },
      "nonce": 1438,
      "data": "0x",
      "r": "0x0d78c85153cbf1e36f1441a9dd1debd368fef95a6aebd3a3f6e2b8257128bd9d",
      "s": "0x3ea96d5aff80206bfebff6273ea99ac71ca1968e0839c6e2bb9ea50f3af7fb09",
      "v": 27,
      "creates": null,
      "raw": "0xf86e82059e850d8881cd8c8255f09484a2dcc780ba2bfdc390077007de77714793887f8812c4c60b5e6afcf0801ba00d78c85153cbf1e36f1441a9dd1debd368fef95a6aebd3a3f6e2b8257128bd9da03ea96d5aff80206bfebff6273ea99ac71ca1968e0839c6e2bb9ea50f3af7fb09",
      "networkId": 0,
      "chainId": 0
    },
    {
      "hash": "0x6f4d272842b25cdc74765a31f598020d7fcce706bf2fcd7b2ff9c5aab0a2f5bf",
      "blockHash": "0x5e68e18960963efbea41250156198185a5b4976277904ad1979c5a50f08b18a5",
      "blockNumber": 84257,
      "transactionIndex": 8,
      "confirmations": null,
      "from": "0xe6A7a1d47ff21B6321162AEA7C6CB457D5476Bca",
      "gasPrice": {
        "_hex": "0xd8881cd8c"
      },
      "gasLimit": {
        "_hex": "0x55f0"
      },
      "to": "0xee04bfEDEa5A989165311fe3d04136ce8841208f",
      "value": {
        "_hex": "0x12c7c6653e49eaf0"
      },
      "nonce": 1439,
      "data": "0x",
      "r": "0xf910816aaa3e50a819251e81b149b62c4e33da3970c775785a54ab1ed303f76c",
      "s": "0x1c536bb9bcaf0fdb27942a2701fb910a8204fe45f456d88482e9f5b2d50085e9",
      "v": 27,
      "creates": null,
      "raw": "0xf86e82059f850d8881cd8c8255f094ee04bfedea5a989165311fe3d04136ce8841208f8812c7c6653e49eaf0801ba0f910816aaa3e50a819251e81b149b62c4e33da3970c775785a54ab1ed303f76ca01c536bb9bcaf0fdb27942a2701fb910a8204fe45f456d88482e9f5b2d50085e9",
      "networkId": 0,
      "chainId": 0
    },
    {
      "hash": "0xbbc7c75393086a11d483390149b49fa4a8a70c3c5c7e12e8c9a0250676280ba4",
      "blockHash": "0x5e68e18960963efbea41250156198185a5b4976277904ad1979c5a50f08b18a5",
      "blockNumber": 84257,
      "transactionIndex": 9,
      "confirmations": null,
      "from": "0xe6A7a1d47ff21B6321162AEA7C6CB457D5476Bca",
      "gasPrice": {
        "_hex": "0xd8881cd8c"
      },
      "gasLimit": {
        "_hex": "0x55f0"
      },
      "to": "0x80618557521942001812b6689965bb92b59f95ae",
      "value": {
        "_hex": "0x12d4ca36927cfa2c"
      },
      "nonce": 1440,
      "data": "0x",
      "r": "0xc7418da660bf6d5487ac31d5adcb7947fb24663c627f1a9139823546f7c5f888",
      "s": "0x4dd0980bb673b02fd56294ab711995c9b6aabb25bbf3e8ac15cf2028a8881a12",
      "v": 27,
      "creates": null,
      "raw": "0xf86e8205a0850d8881cd8c8255f09480618557521942001812b6689965bb92b59f95ae8812d4ca36927cfa2c801ba0c7418da660bf6d5487ac31d5adcb7947fb24663c627f1a9139823546f7c5f888a04dd0980bb673b02fd56294ab711995c9b6aabb25bbf3e8ac15cf2028a8881a12",
      "networkId": 0,
      "chainId": 0
    },
    {
      "hash": "0x29f4d9f71d8b19dea8b508f7a68459716183b1d727bdfb9b7d481c8b349d36e2",
      "blockHash": "0x5e68e18960963efbea41250156198185a5b4976277904ad1979c5a50f08b18a5",
      "blockNumber": 84257,
      "transactionIndex": 10,
      "confirmations": null,
      "from": "0xe6A7a1d47ff21B6321162AEA7C6CB457D5476Bca",
      "gasPrice": {
        "_hex": "0xd668e0c33"
      },
      "gasLimit": {
        "_hex": "0x55f0"
      },
      "to": "0xe9B6523ad9492Fc53F2FBb9480958aefC4A4b1c9",
      "value": {
        "_hex": "0x12fa3c2ec65a0a08"
      },
      "nonce": 1441,
      "data": "0x",
      "r": "0xc12da745aa724207031096d4114c54191f648ac452b3d0af011595802d28efc8",
      "s": "0x5e44d1cc31efa572e4724b23812659985ccd5d7d9db3de7fc7a37d55e1b85c9b",
      "v": 28,
      "creates": null,
      "raw": "0xf86e8205a1850d668e0c338255f094e9b6523ad9492fc53f2fbb9480958aefc4a4b1c98812fa3c2ec65a0a08801ca0c12da745aa724207031096d4114c54191f648ac452b3d0af011595802d28efc8a05e44d1cc31efa572e4724b23812659985ccd5d7d9db3de7fc7a37d55e1b85c9b",
      "networkId": 0,
      "chainId": 0
    }
  ]
}