{
  "hash": "0x81462f3bc8f6e6b7e6c276fb10cac5e52f9e4e689b92e49378a6ed661348aa63",
  "parentHash": "0xb880070095db42b4229117da4def227a999cb90298745040e7f70c3966f55d51",
  "number": 48682,
  "timestamp": 1438961015,
  "nonce": "0xe07c98c2e782b37d",
  "difficulty": 1472867560168,
  "gasLimit": {
    "_hex": "0x1beea"
  },
  "gasUsed": {
    "_hex": "0xaa04"
  },
  "miner": "0x937a4C6CFA806b2FA9796F482CDA67dB579dE173",
  "extraData": "0x476574682f76312e302e312d37666266393930632f6c696e75782f676f312e34",
  "transactions": [
    {
      "hash": "0xd9b9a572218e298d348f07c9e2b59c114e011e0e4907ecd07f4fa3137af3314f",
      "blockHash": "0x81462f3bc8f6e6b7e6c276fb10cac5e52f9e4e689b92e49378a6ed661348aa63",
      "blockNumber": 48682,
      "transactionIndex": 0,
      "confirmations": null,
      "from": "0xe44ea51063405154AAE736Be2BF1Ee3B9BE639ae",
      "gasPrice": {
        "_hex": "0x110c8f7d8de"
      },
      "gasLimit": {
        "_hex": "0xc350"
      },
      "to": "0x2910543Af39abA0Cd09dBb2D50200b3E800A63D2",
      "value": {
        "_hex": "0x1b1ae4d6e2ef500000"
      },
      "nonce": 0,
      "data": "0x454e51384146474d30",
      "r": "0xc08cf3b6c3631db3f5ed7dcbe07883595584c3278bc6e7d0cb77b3f241b53ab4",
      "s": "0x2e2f30b70b14ab8051ae7c2d9d0edef6ce8f76d0475c00ad95441fca76df94f0",
      "v": 27,
      "creates": null,
      "raw": "0xf87780860110c8f7d8de82c350942910543af39aba0cd09dbb2d50200b3e800a63d2891b1ae4d6e2ef50000089454e51384146474d301ba0c08cf3b6c3631db3f5ed7dcbe07883595584c3278bc6e7d0cb77b3f241b53ab4a02e2f30b70b14ab8051ae7c2d9d0edef6ce8f76d0475c00ad95441fca76df94f0",
      "networkId": 0,
      "chainId": 0
    },
    {
      "hash": "0x14fd2abcc7382a18567fdfa1509f6c3c7d94bfd995b06a61dcb12d6cf29d33b9",
      "blockHash": "0x81462f3bc8f6e6b7e6c276fb10cac5e52f9e4e689b92e49378a6ed661348aa63",
      "blockNumber": 48682,
      "transactionIndex": 1,
      "confirmations": null,
      "from": "0x22F2DcFf5aD78c3Eb6850B5Cb951127B659522E6",
      "gasPrice": {
        "_hex": "0xcf7677de4"
      },
      "gasLimit": {
        "_hex": "0x15f90"
      },
      "to": "0x0000000000000000000000000000000000000000",
      "value": {
        "_hex": "0x0"
      },
      "nonce": 12,
      "data": "0x432ced046c697465636f696e000000000000000000000000000000000000000000000000",
      "r": "0xcae9487f955312fd64d852d2d6706c2ff82bafc91e7afca66fb8c9857f9945ab",
      "s": "0x7111f59f2ef65f704810b2b4fbb9835ee27d74a995dcd07f665a2c05a40f8fba",
      "v": 27,
      "creates": null,
      "raw": "0xf8890c850cf7677de483015f9094000000000000000000000000000000000000000080a4432ced046c697465636f696e0000000000000000000000000000000000000000000000001ba0cae9487f955312fd64d852d2d6706c2ff82bafc91e7afca66fb8c9857f9945aba07111f59f2ef65f704810b2b4fbb9835ee27d74a995dcd07f665a2c05a40f8fba",
      "networkId": 0,
      "chainId": 0
    }
  ]
}