{
  "hash": "0x3f8332521ac188fb931eea52451a27ba813b87b0cf96e841712e7334164f64de",
  "parentHash": "0x69daedbad7d491fcbca393d2a0fb5f7fa35a66c2e7536577e80a881548d16ac5",
  "number": 68148,
  "timestamp": 1439283330,
  "nonce": "0x85bdc2bc1718e7ac",
  "difficulty": 1969657099900,
  "gasLimit": {
    "_hex": "0x2fefd8"
  },
  "gasUsed": {
    "_hex": "0x5208"
  },
  "miner": "0xE4C6175183029A0f039bf2DFffa5C6e8F3cA9B23",
  "extraData": "0x",
  "transactions": [
    {
      "hash": "0x2fc372195b76a297112039b2220b843fe81664a62914f4737c52757d703f2a6b",
      "blockHash": "0x3f8332521ac188fb931eea52451a27ba813b87b0cf96e841712e7334164f64de",
      "blockNumber": 68148,
      "transactionIndex": 0,
      "confirmations": null,
      "from": "0x6747f922385c9a6F9cfDf095F34345257DD597bE",
      "gasPrice": {
        "_hex": "0xba43b7400"
      },
      "gasLimit": {
        "_hex": "0x5208"
      },
      "to": "0xc44108A2D949A9bd5Cc53A6e455005e1334C8F08",
      "value": {
        "_hex": "0x1fcbfa42bd6000"
      },
      "nonce": 25,
      "data": "0x",
      "r": "0x730ccd3a2b20b4cc052dd58ecd66830642ab1839fe06fcbe7e028e2ce769ae23",
      "s": "0x5bf533d9b3469ee070edd8f90db711c090d9fffd754bcfea00eac6a362136a60",
      "v": 28,
      "creates": null,
      "raw": "0xf86b19850ba43b740082520894c44108a2d949a9bd5cc53a6e455005e1334c8f08871fcbfa42bd6000801ca0730ccd3a2b20b4cc052dd58ecd66830642ab1839fe06fcbe7e028e2ce769ae23a05bf533d9b3469ee070edd8f90db711c090d9fffd754bcfea00eac6a362136a60",
      "networkId": 0,
      "chainId": 0
    }
  ]
}