{
  "hash": "0x128a3232de5f7971d9380bb213eb3b3f5bd59926c9c95b26162a4d231f717682",
  "parentHash": "0xea8aac425e0f389694430fbeb4f2761f3eec87b6e12be190c61560208153cdc1",
  "number": 63478,
  "timestamp": 1439205102,
  "nonce": "0x28cf5a817efee4dd",
  "difficulty": 1836944637875,
  "gasLimit": {
    "_hex": "0x2fefd8"
  },
  "gasUsed": {
    "_hex": "0x5208"
  },
  "miner": "0xf927a40C8B7F6E07c5af7FA2155B4864a4112B13",
  "extraData": "0x476574682f76312e302e312f6c696e75782f676f312e342e32",
  "transactions": [
    {
      "hash": "0x3c9ebe70a5071331fe4297d64067b35c15778bba658d611b5dfa02ba6199d43f",
      "blockHash": "0x128a3232de5f7971d9380bb213eb3b3f5bd59926c9c95b26162a4d231f717682",
      "blockNumber": 63478,
      "transactionIndex": 0,
      "confirmations": null,
      "from": "0x2A595F16EEE4Cb0C17D9a2D939B3C10F6C677243",
      "gasPrice": {
        "_hex": "0x1128f001b4a"
      },
      "gasLimit": {
        "_hex": "0x15f90"
      },
      "to": "0x0976e5160161889e5c91D626BbFb53E7E62Fd0c3",
      "value": {
        "_hex": "0xde0b6b3a7640000"
      },
      "nonce": 2,
      "data": "0x",
      "r": "0x6f2ec2576f2a48a3d6dda708791b1c51c6cb223634a046b3fba90c9728c88ab8",
      "s": "0x3e5ef839011519f970ed7fd84266091970fceb3f8d32259069ae207d68008870",
      "v": 28,
      "creates": null,
      "raw": "0xf86e028601128f001b4a83015f90940976e5160161889e5c91d626bbfb53e7e62fd0c3880de0b6b3a7640000801ca06f2ec2576f2a48a3d6dda708791b1c51c6cb223634a046b3fba90c9728c88ab8a03e5ef839011519f970ed7fd84266091970fceb3f8d32259069ae207d68008870",
      "networkId": 0,
      "chainId": 0
    }
  ]
}