{
  "hash": "0x81673f96e579be10a3f6fb6e07e964347bdee7595531c45b60174793c6de848b",
  "parentHash": "0x66f2c4705575c39ef840325918db2a926b69d7264e135e2304a368be0da45e4e",
  "number": 84747,
  "timestamp": 1439554065,
  "nonce": "0x124f0d8997933255",
  "difficulty": 2618238668531,
  "gasLimit": {
    "_hex": "0x2fefd8"
  },
  "gasUsed": {
    "_hex": "0xa410"
  },
  "miner": "0x123843545FB525C8E134c9A5F15ADA6865cc3848",
  "extraData": "0x476574682f76312e302e312f77696e646f77732f676f312e342e32",
  "transactions": [
    {
      "hash": "0x519469a4a6d6a9fe77fb0515a95415620fd4d964330e97871e03428b2a711a27",
      "blockHash": "0x81673f96e579be10a3f6fb6e07e964347bdee7595531c45b60174793c6de848b",
      "blockNumber": 84747,
      "transactionIndex": 0,
      "confirmations": null,
      "from": "0x32Be343B94f860124dC4fEe278FDCBD38C102D88",
      "gasPrice": {
        "_hex": "0xcb0dd5cca"
      },
      "gasLimit": {
        "_hex": "0x5208"
      },
      "to": "0xfa72d6482366B60E46D16e94e72775ED53B4836F",
      "value": {
        "_hex": "0x2d181958b908f0000"
      },
      "nonce": 698,
      "data": "0x",
      "r": "0xc6ae6fa8bd65590d624975915f32a6e57627c2062dc58623d265578b22a50112",
      "s": "0x6f1861c131a5b42ad4a8e81019dbf5598cd29b5c4b0d7ad10969a96a09df680d",
      "v": 28,
      "creates": null,
      "raw": "0xf86f8202ba850cb0dd5cca82520894fa72d6482366b60e46d16e94e72775ed53b4836f8902d181958b908f0000801ca0c6ae6fa8bd65590d624975915f32a6e57627c2062dc58623d265578b22a50112a06f1861c131a5b42ad4a8e81019dbf5598cd29b5c4b0d7ad10969a96a09df680d",
      "networkId": 0,
      "chainId": 0
    },
    {
      "hash": "0xb8cb412e8f39c11d638c3428ccc9e3fe9248e352d5a5d9345caaf7decbb5ba5f",
      "blockHash": "0x81673f96e579be10a3f6fb6e07e964347bdee7595531c45b60174793c6de848b",
      "blockNumber": 84747,
      "transactionIndex": 1,
      "confirmations": null,
      "from": "0x32Be343B94f860124dC4fEe278FDCBD38C102D88",
      "gasPrice": {
        "_hex": "0xcb0dd5cca"
      },
      "gasLimit": {
        "_hex": "0x5208"
      },
      "to": "0x2071130408d9aAf3D5D65953118c3FE37aCB8D04",
      "value": {
        "_hex": "0xad78ebc5ac6200000"
      },
      "nonce": 699,
      "data": "0x",
      "r": "0xaf0e625730d5953f6835ff838ab03f9f8855dc329aa9d92671cbd887313ac1f5",
      "s": "0x3198b7ec1a75b295940aa5d64c84de04fe8d77d2178bc6390f5082f2076324ab",
      "v": 28,
      "creates": null,
      "raw": "0xf86f8202bb850cb0dd5cca825208942071130408d9aaf3d5d65953118c3fe37acb8d04890ad78ebc5ac6200000801ca0af0e625730d5953f6835ff838ab03f9f8855dc329aa9d92671cbd887313ac1f5a03198b7ec1a75b295940aa5d64c84de04fe8d77d2178bc6390f5082f2076324ab",
      "networkId": 0,
      "chainId": 0
    }
  ]
}