{
  "hash": "0x897a136b36df3dc60f5eb82e1e110cb59382ff51082f51136cd8cc491ab3a4cd",
  "parentHash": "0xbae5f6adca9be8162d8854ca9e34d573e8a870a298d9d41b8a1e718b67df4133",
  "number": 48473,
  "timestamp": 1438957612,
  "nonce": "0x608b70b77556b915",
  "difficulty": 1466445733936,
  "gasLimit": {
    "_hex": "0x17caa"
  },
  "gasUsed": {
    "_hex": "0x5208"
  },
  "miner": "0xbb7B8287f3F0a933474a79eAe42CBCa977791171",
  "extraData": "0x476574682f4c5649562f76312e302e312f6c696e75782f676f312e342e32",
  "transactions": [
    {
      "hash": "0xd93937127c6e7113a3c22682a90a9a0d4559fea55fb738d3b4eda8303341b9bc",
      "blockHash": "0x897a136b36df3dc60f5eb82e1e110cb59382ff51082f51136cd8cc491ab3a4cd",
      "blockNumber": 48473,
      "transactionIndex": 0,
      "confirmations": null,
      "from": "0x44ED0492110267f9fC8CefA44F86d5d2114D21D6",
      "gasPrice": {
        "_hex": "0xd09e00740"
      },
      "gasLimit": {
        "_hex": "0x5208"
      },
      "to": "0x32Be343B94f860124dC4fEe278FDCBD38C102D88",
      "value": {
        "_hex": "0x2a7fec0c7c09b4000"
      },
      "nonce": 0,
      "data": "0x",
      "r": "0x510f8c15832fd22be4ce178c141433738b8f727aeea670a4c3ee97a4f1c8fbe2",
      "s": "0x1c9e9e4087c515086c58722c6c69fa907a4da779eb200fb55d6061b63e13fdb7",
      "v": 28,
      "creates": null,
      "raw": "0xf86d80850d09e007408252089432be343b94f860124dc4fee278fdcbd38c102d888902a7fec0c7c09b4000801ca0510f8c15832fd22be4ce178c141433738b8f727aeea670a4c3ee97a4f1c8fbe2a01c9e9e4087c515086c58722c6c69fa907a4da779eb200fb55d6061b63e13fdb7",
      "networkId": 0,
      "chainId": 0
    }
  ]
}