{
  "hash": "0x731e713a60021b2b9ee9246877143a3ad8dc9949ec8b04c7f390dd9ad54e8728",
  "parentHash": "0x7ddc651495913dd715d28f570d35acafb19e4c305fb2976575b01c67bb279d26",
  "number": 104807,
  "timestamp": 1439876093,
  "nonce": "0x1d861f1d1738b5dc",
  "difficulty": 4352945389829,
  "gasLimit": {
    "_hex": "0x2fefd8"
  },
  "gasUsed": {
    "_hex": "0x5208"
  },
  "miner": "0xaA35779Ef4dfBEd0B3D6F46F5f11cb86261B17A5",
  "extraData": "0x476574682f76312e302e312f77696e646f77732f676f312e342e32",
  "transactions": [
    {
      "hash": "0xb36c7678a7a1be6725aa9933d3e73d8889239ad63aa736246cda920b52b67863",
      "blockHash": "0x731e713a60021b2b9ee9246877143a3ad8dc9949ec8b04c7f390dd9ad54e8728",
      "blockNumber": 104807,
      "transactionIndex": 0,
      "confirmations": null,
      "from": "0x1308A2e95c0160B90803ddCA9B9a5bb55E416d79",
      "gasPrice": {
        "_hex": "0xdc16d4a50"
      },
      "gasLimit": {
        "_hex": "0x15f90"
      },
      "to": "0x1D3084Ea987fe5e3f02c772E1cAd2164B043C0e5",
      "value": {
        "_hex": "0xfee01c051fc067800"
      },
      "nonce": 163,
      "data": "0x",
      "r": "0x5fb467b1c9375b8b6c91360deee6966b51cb9cac5270d580a60b31ac6fb21b0e",
      "s": "0x5da803e8e636c85c1a2e22b8d48152e8ba5fc4b9eca4fc667f9d59b3969db722",
      "v": 27,
      "creates": null,
      "raw": "0xf86f81a3850dc16d4a5083015f90941d3084ea987fe5e3f02c772e1cad2164b043c0e5890fee01c051fc067800801ba05fb467b1c9375b8b6c91360deee6966b51cb9cac5270d580a60b31ac6fb21b0ea05da803e8e636c85c1a2e22b8d48152e8ba5fc4b9eca4fc667f9d59b3969db722",
      "networkId": 0,
      "chainId": 0
    }
  ]
}