{
  "hash": "0x03bc68bcb659f14742731d72fbd75fba24e2cac5f1935a1f1bd457ec9739da4f",
  "parentHash": "0x4c3c02624c2ff9de950167cde241a188abb41d7547155530afc4fd9c4f367e60",
  "number": 104857,
  "timestamp": 1439876996,
  "nonce": "0x40b79ea370412f7c",
  "difficulty": 4348670621053,
  "gasLimit": {
    "_hex": "0x2fefd8"
  },
  "gasUsed": {
    "_hex": "0x5208"
  },
  "miner": "0x9746c7e1ef2bd21FF3997fa467593a89cb852BD0",
  "extraData": "0x476574682f76312e302e312f77696e646f77732f676f312e342e32",
  "transactions": [
    {
      "hash": "0xb9ae5a9cdd252bfea72437b9583c3ca317f650b40d3bd5186232f4ad3656645e",
      "blockHash": "0x03bc68bcb659f14742731d72fbd75fba24e2cac5f1935a1f1bd457ec9739da4f",
      "blockNumber": 104857,
      "transactionIndex": 0,
      "confirmations": null,
      "from": "0x0D4EcC7d750180EBf4A9Df728B6669B5Bceb5E40",
      "gasPrice": {
        "_hex": "0xd6dccba1a"
      },
      "gasLimit": {
        "_hex": "0x5208"
      },
      "to": "0x32Be343B94f860124dC4fEe278FDCBD38C102D88",
      "value": {
        "_hex": "0x456bd82d40f51800"
      },
      "nonce": 75,
      "data": "0x",
      "r": "0x6ee28aaff4a209bb33c8ee24ec090a7eea1835103448e6721b8548699df6e305",
      "s": "0x0a71bf157c0b31ac13a31b0f2ea9e362f532da1f058cb92a77cde163d6a0b96b",
      "v": 28,
      "creates": null,
      "raw": "0xf86c4b850d6dccba1a8252089432be343b94f860124dc4fee278fdcbd38c102d8888456bd82d40f51800801ca06ee28aaff4a209bb33c8ee24ec090a7eea1835103448e6721b8548699df6e305a00a71bf157c0b31ac13a31b0f2ea9e362f532da1f058cb92a77cde163d6a0b96b",
      "networkId": 0,
      "chainId": 0
    }
  ]
}