{
  "hash": "0xf91e5addff5848712f857ef27dba23f3d992d5729ad6b88c3791b73ccacfe460",
  "parentHash": "0xc4becb68c02db9a069fa41b967a85817ef71c1201e5d385a519e5fbea6db30bd",
  "number": 81270,
  "timestamp": 1439498887,
  "nonce": "0x3c546a8bafffa813",
  "difficulty": 2449837711096,
  "gasLimit": {
    "_hex": "0x2fefd8"
  },
  "gasUsed": {
    "_hex": "0x5208"
  },
  "miner": "0xF2d2AfF1320476cb8C6b607199D23175cc595693",
  "extraData": "0x476574682f76312e302e312f77696e646f77732f676f312e342e32",
  "transactions": [
    {
      "hash": "0xf5ed48ac949424bcba835094c22f8fa5f134faf1abe4f015f625458061755d28",
      "blockHash": "0xf91e5addff5848712f857ef27dba23f3d992d5729ad6b88c3791b73ccacfe460",
      "blockNumber": 81270,
      "transactionIndex": 0,
      "confirmations": null,
      "from": "0x9def82c26c0c5fc4E0e7eC2f64425314E3F7B476",
      "gasPrice": {
        "_hex": "0xd606428e3"
      },
      "gasLimit": {
        "_hex": "0x5208"
      },
      "to": "0x42e16B3732ae6f3e38AeE7546f36149C9eCB8F26",
      "value": {
        "_hex": "0x4563918244f40000"
      },
      "nonce": 4,
      "data": "0x",
      "r": "0x5a8c445e3be6c379c41fd23703a227283b96999fffc642738f6edbd4093e6974",
      "s": "0x550eb37a080420dea866a59b46a613cda678c699b55654a052c7abe73a00376a",
      "v": 27,
      "creates": null,
      "raw": "0xf86c04850d606428e38252089442e16b3732ae6f3e38aee7546f36149c9ecb8f26884563918244f40000801ba05a8c445e3be6c379c41fd23703a227283b96999fffc642738f6edbd4093e6974a0550eb37a080420dea866a59b46a613cda678c699b55654a052c7abe73a00376a",
      "networkId": 0,
      "chainId": 0
    }
  ]
}