{
  "hash": "0x2377aa0e51917af2b58baccab8d43a2fa583d726b208ff0225717b84ebb5ab3b",
  "parentHash": "0x04b8d1d010c4c8d5e61344b8bd96f41ab6b4c0329f2af3fb8b664a758db93f9f",
  "number": 51014,
  "timestamp": 1438998123,
  "nonce": "0x2ce7dff55266ef15",
  "difficulty": 1547650411250,
  "gasLimit": {
    "_hex": "0x8aca5"
  },
  "gasUsed": {
    "_hex": "0x15f90"
  },
  "miner": "0x5Bf5E9cf9B456d6591073513De7Fd69A9BEF04Bc",
  "extraData": "0x476574682f76312e302e312f77696e646f77732f676f312e342e32",
  "transactions": [
    {
      "hash": "0x0bc9cf04ff092d4a44cc07e934f3b721b28c2ea889985baf359a77c610467f82",
      "blockHash": "0x2377aa0e51917af2b58baccab8d43a2fa583d726b208ff0225717b84ebb5ab3b",
      "blockNumber": 51014,
      "transactionIndex": 0,
      "confirmations": null,
      "from": "0x66493587E4BFbAf65E6295308371a78761a2794D",
      "gasPrice": {
        "_hex": "0x1111fdb0080"
      },
      "gasLimit": {
        "_hex": "0x15f90"
      },
      "to": "0xBAA54d6E90c3F4d7Ebec11bD180134C7eD8eBb52",
      "value": {
        "_hex": "0x8ac7230489e80000"
      },
      "nonce": 0,
      "data": "0x",
      "r": "0xaaa9e3495262fa42b19d72d7126f2927218e891fafbeba74be2f3dde8283d501",
      "s": "0x0d2eda9d606ae94d7e395e816a2f80d8bcb2590a7930f5d705db1bc1ce0dafb1",
      "v": 27,
      "creates": null,
      "raw": "0xf86e808601111fdb008083015f9094baa54d6e90c3f4d7ebec11bd180134c7ed8ebb52888ac7230489e80000801ba0aaa9e3495262fa42b19d72d7126f2927218e891fafbeba74be2f3dde8283d501a00d2eda9d606ae94d7e395e816a2f80d8bcb2590a7930f5d705db1bc1ce0dafb1",
      "networkId": 0,
      "chainId": 0
    }
  ]
}