{
  "hash": "0x6fa83c4bb2969fb683522ae9032e0d1fd35f14f37227ac000471e1a0e95287a1",
  "parentHash": "0xf3bd6eb6d650bbf32355120122c08e8e201497770a5b58279e8d9213a88e952a",
  "number": 54209,
  "timestamp": 1439050634,
  "nonce": "0x2335df6cd5a774f3",
  "difficulty": 1598509911096,
  "gasLimit": {
    "_hex": "0x2fefd5"
  },
  "gasUsed": {
    "_hex": "0x5208"
  },
  "miner": "0x458F183347F45a4001807728A89F31E9Da9D4A58",
  "extraData": "0x",
  "transactions": [
    {
      "hash": "0xc243205da79bf9babc9282d72dabcda9c84f844cfc0913bb82be24df0d1fb05a",
      "blockHash": "0x6fa83c4bb2969fb683522ae9032e0d1fd35f14f37227ac000471e1a0e95287a1",
      "blockNumber": 54209,
      "transactionIndex": 0,
      "confirmations": null,
      "from": "0xd5d9a0033e6B0A3ba7634d0e1a9055ad5f452C3D",
      "gasPrice": {
        "_hex": "0xd2f8c1a20"
      },
      "gasLimit": {
        "_hex": "0x5208"
      },
      "to": "0x32Be343B94f860124dC4fEe278FDCBD38C102D88",
      "value": {
        "_hex": "0x1ae31e61c712bc000"
      },
      "nonce": 1,
      "data": "0x",
      "r": "0xa1284d868a763dc05f2609a8388f63f00e6e6c17d656862316c874a9a0dc2b7e",
      "s": "0x23ec858cbc60738a9edaa0eb01cc23d6609b6e311021ef1ae8963b2787202ee7",
      "v": 28,
      "creates": null,
      "raw": "0xf86d01850d2f8c1a208252089432be343b94f860124dc4fee278fdcbd38c102d888901ae31e61c712bc000801ca0a1284d868a763dc05f2609a8388f63f00e6e6c17d656862316c874a9a0dc2b7ea023ec858cbc60738a9edaa0eb01cc23d6609b6e311021ef1ae8963b2787202ee7",
      "networkId": 0,
      "chainId": 0
    }
  ]
}