{
  "hash": "0x1aa45ac3847d3a7866597b54fa41bf331efc45236b35737297532ddd6ab701df",
  "parentHash": "0xf9507ea4fa02a9e7f7f29dec14b3f7eeb6d8a621699919836d28a74288aaa7a7",
  "number": 99137,
  "timestamp": 1439785060,
  "nonce": "0x30c2255d8f776ae9",
  "difficulty": 3810420539003,
  "gasLimit": {
    "_hex": "0x2fefd8"
  },
  "gasUsed": {
    "_hex": "0x5208"
  },
  "miner": "0xe6A7a1d47ff21B6321162AEA7C6CB457D5476Bca",
  "extraData": "0x476574682f76312e302e312d38326566323666362f6c696e75782f676f312e34",
  "transactions": [
    {
      "hash": "0xbc77ba539a9e42a1395d8451a2c83f2be0a4b0c51cb0de446ef5300ee51fb077",
      "blockHash": "0x1aa45ac3847d3a7866597b54fa41bf331efc45236b35737297532ddd6ab701df",
      "blockNumber": 99137,
      "transactionIndex": 0,
      "confirmations": null,
      "from": "0xa70a9a7040d542C632D8e0bE7c5513A8a5Bbc752",
      "gasPrice": {
        "_hex": "0xd9bdffd86"
      },
      "gasLimit": {
        "_hex": "0x5208"
      },
      "to": "0x32Be343B94f860124dC4fEe278FDCBD38C102D88",
      "value": {
        "_hex": "0x455f35289fc52000"
      },
      "nonce": 190,
      "data": "0x",
      "r": "0x1a65462dd29219333e6581159a9d43d62aa327be8554806623a84f3d1724a29f",
      "s": "0x1b7fad081e62ee0a34eab6a8572ef61ceebd3db6af57c4a3770f93c29aa22da9",
      "v": 27,
      "creates": null,
      "raw": "0xf86d81be850d9bdffd868252089432be343b94f860124dc4fee278fdcbd38c102d8888455f35289fc52000801ba01a65462dd29219333e6581159a9d43d62aa327be8554806623a84f3d1724a29fa01b7fad081e62ee0a34eab6a8572ef61ceebd3db6af57c4a3770f93c29aa22da9",
      "networkId": 0,
      "chainId": 0
    }
  ]
}