{
  "hash": "0xb86d9095750cddaa9d4471eda2e29fe2aa9101c2753c1a0d5bf1a91fdd020388",
  "parentHash": "0xb1560c387f29aec55e6fb4feaa637fa15d4a285654f68a6bf6a7e6e0ac8b5d16",
  "number": 68362,
  "timestamp": 1439286614,
  "nonce": "0xe961b28585461330",
  "difficulty": 2016314737264,
  "gasLimit": {
    "_hex": "0x2fefd8"
  },
  "gasUsed": {
    "_hex": "0x5208"
  },
  "miner": "0x05a56E2D52c817161883f50c441c3228CFe54d9f",
  "extraData": "0x476574682f76312e302e312f6c696e75782f676f312e342e32",
  "transactions": [
    {
      "hash": "0x77a23929a0fb674c31eb0196e822d049842f8abd757bfaa2d5f130800c742f47",
      "blockHash": "0xb86d9095750cddaa9d4471eda2e29fe2aa9101c2753c1a0d5bf1a91fdd020388",
      "blockNumber": 68362,
      "transactionIndex": 0,
      "confirmations": null,
      "from": "0x6747f922385c9a6F9cfDf095F34345257DD597bE",
      "gasPrice": {
        "_hex": "0xba43b7400"
      },
      "gasLimit": {
        "_hex": "0x5208"
      },
      "to": "0x524102646Db37316062849166e6F9529A2c5e5B3",
      "value": {
        "_hex": "0x1fcbfa42bd6000"
      },
      "nonce": 61,
      "data": "0x",
      "r": "0xd44e20a67d75512846817d0ca165b7be09a3e2bb22250d276f49c374ba5f24e6",
      "s": "0x58e0231f8e8c09218a1d22f2c451b5aea8699815202685d33b48cd4b8ee12f2c",
      "v": 27,
      "creates": null,
      "raw": "0xf86b3d850ba43b740082520894524102646db37316062849166e6f9529a2c5e5b3871fcbfa42bd6000801ba0d44e20a67d75512846817d0ca165b7be09a3e2bb22250d276f49c374ba5f24e6a058e0231f8e8c09218a1d22f2c451b5aea8699815202685d33b48cd4b8ee12f2c",
      "networkId": 0,
      "chainId": 0
    }
  ]
}