{
  "hash": "0x2e24dd092be22cb813b6a60d1f8b4ee821e7055067981855d11219e7bee6e682",
  "parentHash": "0x07545a83493e855e70030eb62ce1774e9ada70f681512d8713c93ad43b94d98d",
  "number": 66003,
  "timestamp": 1439246782,
  "nonce": "0xbcf451011c315c1e",
  "difficulty": 1948158760146,
  "gasLimit": {
    "_hex": "0x2fefd8"
  },
  "gasUsed": {
    "_hex": "0x5208"
  },
  "miner": "0x01d9DA08cc6Fb97c0DE1B6F4C28910A0859Ed1A1",
  "extraData": "0x476574682f76312e302e312f6c696e75782f676f312e342e32",
  "transactions": [
    {
      "hash": "0x2a5225f33f08ad7a3095ed16f7e1167e71dbbeef9f00fbee2f2fa18ea89453aa",
      "blockHash": "0x2e24dd092be22cb813b6a60d1f8b4ee821e7055067981855d11219e7bee6e682",
      "blockNumber": 66003,
      "transactionIndex": 0,
      "confirmations": null,
      "from": "0x32Be343B94f860124dC4fEe278FDCBD38C102D88",
      "gasPrice": {
        "_hex": "0xd0c5e365e"
      },
      "gasLimit": {
        "_hex": "0x5208"
      },
      "to": "0xCAc7000C7dBaa2E33Af15325AF5D435E011C7BdD",
      "value": {
        "_hex": "0xdbd2fc137a30000"
      },
      "nonce": 192,
      "data": "0x",
      "r": "0x2a09e39093633d2d93721ad2a77b61bdb316641f44d4b51454b60d4b4efd95be",
      "s": "0x78c4cacc56a925c16963c2d85010de3ff20f25cf82028b97eb1462ee88005a8a",
      "v": 27,
      "creates": null,
      "raw": "0xf86d81c0850d0c5e365e82520894cac7000c7dbaa2e33af15325af5d435e011c7bdd880dbd2fc137a30000801ba02a09e39093633d2d93721ad2a77b61bdb316641f44d4b51454b60d4b4efd95bea078c4cacc56a925c16963c2d85010de3ff20f25cf82028b97eb1462ee88005a8a",
      "networkId": 0,
      "chainId": 0
    }
  ]
}