{
  "hash": "0x4a00330cdbbc5303c8a141836e93416054334cd4fb098f836d6f72a2fe52066e",
  "parentHash": "0x7fdc198e2215e04ad9d58ed63addaa8815de7d07189075b1da561f49c7327039",
  "number": 110232,
  "timestamp": 1439970269,
  "nonce": "0xc647a825e996182a",
  "difficulty": 4369290059883,
  "gasLimit": {
    "_hex": "0x2fefd8"
  },
  "gasUsed": {
    "_hex": "0x520c"
  },
  "miner": "0xe6A7a1d47ff21B6321162AEA7C6CB457D5476Bca",
  "extraData": "0x476574682f76312e302e312d38326566323666362f6c696e75782f676f312e34",
  "transactions": [
    {
      "hash": "0x680765e4e28881126ebdd10cd133add1be31a7280a30b58071080f76f5ce1dbe",
      "blockHash": "0x4a00330cdbbc5303c8a141836e93416054334cd4fb098f836d6f72a2fe52066e",
      "blockNumber": 110232,
      "transactionIndex": 0,
      "confirmations": null,
      "from": "0xb9836ec1f42Bd48331bceaedb74a6Bcdc22832bD",
      "gasPrice": {
        "_hex": "0xdec0a1867"
      },
      "gasLimit": {
        "_hex": "0x7530"
      },
      "to": "0x7cB57B5A97eAbe94205C07890BE4c1aD31E486A8",
      "value": {
        "_hex": "0xe8d4a51000"
      },
      "nonce": 15,
      "data": "0x00",
      "r": "0x77e20b4a9b952b8c72c297d272746f3427aea3f3169b58d5cdcbb8b84fe189bb",
      "s": "0x63e62bbf042aebdf930e77ee2a7d45fd507e89b1979b9b35a7145d853b646784",
      "v": 27,
      "creates": null,
      "raw": "0xf8690f850dec0a1867827530947cb57b5a97eabe94205c07890be4c1ad31e486a885e8d4a51000001ba077e20b4a9b952b8c72c297d272746f3427aea3f3169b58d5cdcbb8b84fe189bba063e62bbf042aebdf930e77ee2a7d45fd507e89b1979b9b35a7145d853b646784",
      "networkId": 0,
      "chainId": 0
    }
  ]
}