{
  "hash": "0xd050ebe64ede2b34d546d0980cfc7b2362e8145d7676a7fed08af26c2a586fd7",
  "parentHash": "0x497638349e9cf3359aeb3dc6e45f7a985e28a9b57579dc16b6bd71f72c8ab6ce",
  "number": 87419,
  "timestamp": 1439591909,
  "nonce": "0x17a903df76a2119b",
  "difficulty": 3123459266907,
  "gasLimit": {
    "_hex": "0x2fefd8"
  },
  "gasUsed": {
    "_hex": "0x5208"
  },
  "miner": "0x8d7b4db3D7B3455f309B138fE3f813633e8577B4",
  "extraData": "0x476574682f76312e302e312f77696e646f77732f676f312e342e32",
  "transactions": [
    {
      "hash": "0x941424a831167b7b3bd561548e1240efb3baaf55b0fba20691f21944bc3e7d59",
      "blockHash": "0xd050ebe64ede2b34d546d0980cfc7b2362e8145d7676a7fed08af26c2a586fd7",
      "blockNumber": 87419,
      "transactionIndex": 0,
      "confirmations": null,
      "from": "0x87898CE53471043FcCa0a2aF4E1dC6d8B3fCf607",
      "gasPrice": {
        "_hex": "0xd9a64fa2c"
      },
      "gasLimit": {
        "_hex": "0x5208"
      },
      "to": "0xBFdD9820a04283b289957956353b5F3C1F665EcF",
      "value": {
        "_hex": "0x1e5b8fa8fe2ac0000"
      },
      "nonce": 38,
      "data": "0x",
      "r": "0x6ef0e09dd97dc855902ce11798b53b5725366e28519238e2b056de62f4d7ed0a",
      "s": "0x1c7093ef953fe7da034b6fc0fd4625592ece333f0cbded523228fa18a6f6851a",
      "v": 28,
      "creates": null,
      "raw": "0xf86d26850d9a64fa2c82520894bfdd9820a04283b289957956353b5f3c1f665ecf8901e5b8fa8fe2ac0000801ca06ef0e09dd97dc855902ce11798b53b5725366e28519238e2b056de62f4d7ed0aa01c7093ef953fe7da034b6fc0fd4625592ece333f0cbded523228fa18a6f6851a",
      "networkId": 0,
      "chainId": 0
    }
  ]
}