{
  "hash": "0xeaa620f2e429f3372a19a72caa0033472f65c3599fe9c506765ab9905fa38fc3",
  "parentHash": "0xb883441c6396e4afc4c533c6d0305c016583a2df9ee92cb1e952430fcbd5e132",
  "number": 60955,
  "timestamp": 1439164246,
  "nonce": "0xc2909dbd67dfba1b",
  "difficulty": 1742257651666,
  "gasLimit": {
    "_hex": "0x2fefd8"
  },
  "gasUsed": {
    "_hex": "0x5208"
  },
  "miner": "0xbb7B8287f3F0a933474a79eAe42CBCa977791171",
  "extraData": "0x476574682f4c5649562f76312e302e312f6c696e75782f676f312e342e32",
  "transactions": [
    {
      "hash": "0x6c73cdf31bb9ccb1e0a797c6bb029800066aa901903521de0e11173ef6c73820",
      "blockHash": "0xeaa620f2e429f3372a19a72caa0033472f65c3599fe9c506765ab9905fa38fc3",
      "blockNumber": 60955,
      "transactionIndex": 0,
      "confirmations": null,
      "from": "0x1E79617E91b265330Cdb34B9a2d2925855323113",
      "gasPrice": {
        "_hex": "0xba43b7400"
      },
      "gasLimit": {
        "_hex": "0x5267"
      },
      "to": "0x71cEe16c3410CB351b27dD9CFa24cF431287C837",
      "value": {
        "_hex": "0x2e8f5ab9756f8000"
      },
      "nonce": 0,
      "data": "0x",
      "r": "0xc933cfee832af82faa8aedf0544b86a168ce672cf2fe3fcb417e8c2c56be2490",
      "s": "0x40c745e17886e588cead8bb349fb477787839b0d2aee7c36addf6332b34d2991",
      "v": 27,
      "creates": null,
      "raw": "0xf86c80850ba43b74008252679471cee16c3410cb351b27dd9cfa24cf431287c837882e8f5ab9756f8000801ba0c933cfee832af82faa8aedf0544b86a168ce672cf2fe3fcb417e8c2c56be2490a040c745e17886e588cead8bb349fb477787839b0d2aee7c36addf6332b34d2991",
      "networkId": 0,
      "chainId": 0
    }
  ]
}