{
  "hash": "0x6644ed9e38e57431310eb142b1a53a81f5fe108de5cb46536a5bef2a3f9e5609",
  "parentHash": "0xd20d68b8ef6e36fbb33849ef567796fa3172b0d8c91a7ffb4b9178f1f821e0b9",
  "number": 73416,
  "timestamp": 1439369102,
  "nonce": "0xbe959261142a8744",
  "difficulty": 2198077342965,
  "gasLimit": {
    "_hex": "0x2fefd8"
  },
  "gasUsed": {
    "_hex": "0x5208"
  },
  "miner": "0xf927a40C8B7F6E07c5af7FA2155B4864a4112B13",
  "extraData": "0x",
  "transactions": [
    {
      "hash": "0x77914f5afef4d41c8bd4815074422a2e976e31b015f2dff569aff37c91c6e24f",
      "blockHash": "0x6644ed9e38e57431310eb142b1a53a81f5fe108de5cb46536a5bef2a3f9e5609",
      "blockNumber": 73416,
      "transactionIndex": 0,
      "confirmations": null,
      "from": "0xc597A5d92F5dC1137D847db733cfe02c6d209f13",
      "gasPrice": {
        "_hex": "0xe2ddba93d"
      },
      "gasLimit": {
        "_hex": "0x15f90"
      },
      "to": "0x460A1fBd987e6E83974c9f5749ec2802B6890c9b",
      "value": {
        "_hex": "0x44f8fcaf9dc8cc00"
      },
      "nonce": 3,
      "data": "0x",
      "r": "0xdc7a4e2707384697dbb1fbfef6ce631f19492ad58b9c1e19759b639b13621132",
      "s": "0x4a5da1e158aab498cedd7a8f6031f9a3270f87ccaf95535cca97e4331d8f481d",
      "v": 27,
      "creates": null,
      "raw": "0xf86d03850e2ddba93d83015f9094460a1fbd987e6e83974c9f5749ec2802b6890c9b8844f8fcaf9dc8cc00801ba0dc7a4e2707384697dbb1fbfef6ce631f19492ad58b9c1e19759b639b13621132a04a5da1e158aab498cedd7a8f6031f9a3270f87ccaf95535cca97e4331d8f481d",
      "networkId": 0,
      "chainId": 0
    }
  ]
}