{
  "hash": "0x302042e6450a21f78a694b39f589f9355f9f55319d84699c13395629b80adb61",
  "parentHash": "0x5b5aab834a73f8172e9d55ea6564032ec7a220908bf453dfb92b4666f1052d99",
  "number": 71653,
  "timestamp": 1439339667,
  "nonce": "0xd6846a4e395f2e8c",
  "difficulty": 2178237066984,
  "gasLimit": {
    "_hex": "0x2fefd8"
  },
  "gasUsed": {
    "_hex": "0x100c9"
  },
  "miner": "0x47ff6576639c2e94762eA5443978D7681C0E78DC",
  "extraData": "0x476574682f76312e302e312f6c696e75782f676f312e342e32",
  "transactions": [
    {
      "hash": "0xf1cf42a8a2a23deb078ae27486ff90a16b9b971c427e8629b8ca56c1bade2523",
      "blockHash": "0x302042e6450a21f78a694b39f589f9355f9f55319d84699c13395629b80adb61",
      "blockNumber": 71653,
      "transactionIndex": 0,
      "confirmations": null,
      "from": "0xabceA603089850F8f6bB612A9031554D90A247CF",
      "gasPrice": {
        "_hex": "0xd1aaf66fa"
      },
      "gasLimit": {
        "_hex": "0x5208"
      },
      "to": "0x32Be343B94f860124dC4fEe278FDCBD38C102D88",
      "value": {
        "_hex": "0x455f5e8cbf275c00"
      },
      "nonce": 5,
      "data": "0x",
      "r": "0xe0c9873920cb3fda7914dabd5186a4b2e9c3b1000ab591afb86a69ef4df99dba",
      "s": "0x7b638cb76252cf4f8c482aff7a95bc84c07176af5ed3a4a8d9b6600b51dbe190",
      "v": 28,
      "creates": null,
      "raw": "0xf86c05850d1aaf66fa8252089432be343b94f860124dc4fee278fdcbd38c102d8888455f5e8cbf275c00801ca0e0c9873920cb3fda7914dabd5186a4b2e9c3b1000ab591afb86a69ef4df99dbaa07b638cb76252cf4f8c482aff7a95bc84c07176af5ed3a4a8d9b6600b51dbe190",
      "networkId": 0,
      "chainId": 0
    },
    {
      "hash": "0x60acfbeba0ccc4fdb3791572db9ecdfff4ae7fc9ade07b394118da5c7f7c8813",
      "blockHash": "0x302042e6450a21f78a694b39f589f9355f9f55319d84699c13395629b80adb61",
      "blockNumber": 71653,
      "transactionIndex": 1,
      "confirmations": null,
      "from": "0x17580B766f7453525ca4C6A88b01b50570EA088C",
      "gasPrice": {
        "_hex": "0xd00bcbca8"
      },
      "gasLimit": {
        "_hex": "0x61a80"
      },
      "to": "0x5Fe5B7546D1628f7348B023A0393de1FC825A4fD",
      "value": {
        "_hex": "0x3782dace9d900000"
      },
      "nonce": 246,
      "data": "0xb595b8b50000000000000000000000000000000000000000000000000000000000000001",
      "r": "0x0a01ce5078602f9a566a57f8507eab0164543120f77ab4a8501f40ad5603da40",
      "s": "0x58858f71d88a6b7c052142086288853fc2c5df0f2ab128101e2362ce7a394401",
      "v": 27,
      "creates": null,
      "raw": "0xf89281f6850d00bcbca883061a80945fe5b7546d1628f7348b023a0393de1fc825a4fd883782dace9d900000a4b595b8b500000000000000000000000000000000000000000000000000000000000000011ba00a01ce5078602f9a566a57f8507eab0164543120f77ab4a8501f40ad5603da40a058858f71d88a6b7c052142086288853fc2c5df0f2ab128101e2362ce7a394401",
      "networkId": 0,
      "chainId": 0
    }
  ]
}