{
  "hash": "0x62a17f9a8753d22dba1cc258d40525453abeabec9ee5cbdf0aaf094c04955e79",
  "parentHash": "0x66a83275b9c3833890434998e58f50460c127bac7f4097f25316d44e9401cbc3",
  "number": 79949,
  "timestamp": 1439477725,
  "nonce": "0xf1d80e2f31db7a1d",
  "difficulty": 2352907766065,
  "gasLimit": {
    "_hex": "0x2fefd8"
  },
  "gasUsed": {
    "_hex": "0x5208"
  },
  "miner": "0x87898CE53471043FcCa0a2aF4E1dC6d8B3fCf607",
  "extraData": "0x476574682f5369626572696131392f76312e302e312d37666266393930632f6c",
  "transactions": [
    {
      "hash": "0x783fb85b7177441ca8c4efdeb955133eac48fa36b5e946823ca147a099a55f2c",
      "blockHash": "0x62a17f9a8753d22dba1cc258d40525453abeabec9ee5cbdf0aaf094c04955e79",
      "blockNumber": 79949,
      "transactionIndex": 0,
      "confirmations": null,
      "from": "0xa114c802ef29776f05f9c6925cE915232e8ae102",
      "gasPrice": {
        "_hex": "0xdf0ad6232"
      },
      "gasLimit": {
        "_hex": "0x5208"
      },
      "to": "0x32Be343B94f860124dC4fEe278FDCBD38C102D88",
      "value": {
        "_hex": "0xf9c86b567d50e000"
      },
      "nonce": 14,
      "data": "0x",
      "r": "0x5ac1b50963295a321c9428f0f3cde18bce6034ae8ccab72aa5d84f547f6d32de",
      "s": "0x1eb56d00ffa23cb3abfc1c7dfe5eb686350ba948db334ca8b6c630162fa075c4",
      "v": 27,
      "creates": null,
      "raw": "0xf86c0e850df0ad62328252089432be343b94f860124dc4fee278fdcbd38c102d8888f9c86b567d50e000801ba05ac1b50963295a321c9428f0f3cde18bce6034ae8ccab72aa5d84f547f6d32dea01eb56d00ffa23cb3abfc1c7dfe5eb686350ba948db334ca8b6c630162fa075c4",
      "networkId": 0,
      "chainId": 0
    }
  ]
}