{
  "hash": "0xb54985d51d6d11e19a47020267ce2295806be19dd9b5ecc2e3d773d11ef739e0",
  "parentHash": "0x45ea65fa1ffd8ffb0b8ca8991ed9526dfb402b0104261b16f2e1d31db89aafb7",
  "number": 65210,
  "timestamp": 1439233030,
  "nonce": "0x84f1f69f9b22456d",
  "difficulty": 1947391826925,
  "gasLimit": {
    "_hex": "0x2fefd8"
  },
  "gasUsed": {
    "_hex": "0x1cee0"
  },
  "miner": "0x6Cf387a1C50cF6b09634E0d24fDAa2c06Be0ea95",
  "extraData": "0x476574682f76312e302e312d38326566323666362f6c696e75782f676f312e34",
  "transactions": [
    {
      "hash": "0x54e901c778da54ff394cf744a2e7f8b08258d354a8e30f1ef8e28e9acc322719",
      "blockHash": "0xb54985d51d6d11e19a47020267ce2295806be19dd9b5ecc2e3d773d11ef739e0",
      "blockNumber": 65210,
      "transactionIndex": 0,
      "confirmations": null,
      "from": "0x5Fbb4aeB2F0319d71fE173c2faA23468b33542ed",
      "gasPrice": {
        "_hex": "0xba43b7400"
      },
      "gasLimit": {
        "_hex": "0x15f90"
      },
      "to": "0x793AE8C1b1a160BFc07BFB0d04F85eab1A71F4f2",
      "value": {
        "_hex": "0x0"
      },
      "nonce": 0,
      "data": "0x3ba15036",
      "r": "0x2566519d58c7a7e60d06a5b6ba9f4b34817b57cbc6b5285f6c2352312cdc2230",
      "s": "0x0365d22ba6578ae688c9b487823fc35affa5b93626d0ee7e7348003f859f3b50",
      "v": 28,
      "creates": null,
      "raw": "0xf86980850ba43b740083015f9094793ae8c1b1a160bfc07bfb0d04f85eab1a71f4f280843ba150361ca02566519d58c7a7e60d06a5b6ba9f4b34817b57cbc6b5285f6c2352312cdc2230a00365d22ba6578ae688c9b487823fc35affa5b93626d0ee7e7348003f859f3b50",
      "networkId": 0,
      "chainId": 0
    },
    {
      "hash": "0xf856185a18a5cbbc453454a80c2491636290230fb3b8d78340a138c52d143802",
      "blockHash": "0xb54985d51d6d11e19a47020267ce2295806be19dd9b5ecc2e3d773d11ef739e0",
      "blockNumber": 65210,
      "transactionIndex": 1,
      "confirmations": null,
      "from": "0xb90c8F5e7B1Ef1c42eED25A5Aa6EC422Dda462fd",
      "gasPrice": {
        "_hex": "0xba43b7400"
      },
      "gasLimit": {
        "_hex": "0x15f90"
      },
      "to": "0x793AE8C1b1a160BFc07BFB0d04F85eab1A71F4f2",
      "value": {
        "_hex": "0x0"
      },
      "nonce": 0,
      "data": "0x3ba15036",
      "r": "0x7ca098077e309048886bed27b261c95c880790ba1fab8214f69c279b08af775d",
      "s": "0x765be29dafc62e64721747f8b289f911270e43c2e1003cdb06b2d68a704136e6",
      "v": 28,
      "creates": null,
      "raw": "0xf86980850ba43b740083015f9094793ae8c1b1a160bfc07bfb0d04f85eab1a71f4f280843ba150361ca07ca098077e309048886bed27b261c95c880790ba1fab8214f69c279b08af775da0765be29dafc62e64721747f8b289f911270e43c2e1003cdb06b2d68a704136e6",
      "networkId": 0,
      "chainId": 0
    },
    {
      "hash": "0xe0e21712447a40cbb6cb68b8d5849dc8610322116ef94f4093e6f02089d87839",
      "blockHash": "0xb54985d51d6d11e19a47020267ce2295806be19dd9b5ecc2e3d773d11ef739e0",
      "blockNumber": 65210,
      "transactionIndex": 2,
      "confirmations": null,
      "from": "0x5Fbb4aeB2F0319d71fE173c2faA23468b33542ed",
      "gasPrice": {
        "_hex": "0xba43b7400"
      },
      "gasLimit": {
        "_hex": "0x5208"
      },
      "to": "0x535Ed2FEc482c97E79Fa1608903C60A10467115d",
      "value": {
        "_hex": "0x6b8d3c44ced5000"
      },
      "nonce": 1,
      "data": "0x",
      "r": "0xb69fe19d472dece5280f32570bb5916a91176658418b6f49b22d127f1d75a317",
      "s": "0x12bb1fad1bc5a698302269098ae1daa7c5a65bf1cecc78e21b2a5b9de3235ff3",
      "v": 28,
      "creates": null,
      "raw": "0xf86c01850ba43b740082520894535ed2fec482c97e79fa1608903c60a10467115d8806b8d3c44ced5000801ca0b69fe19d472dece5280f32570bb5916a91176658418b6f49b22d127f1d75a317a012bb1fad1bc5a698302269098ae1daa7c5a65bf1cecc78e21b2a5b9de3235ff3",
      "networkId": 0,
      "chainId": 0
    }
  ]
}