{
  "hash": "0xb41f89340fab09f1d4638b8ece12fd59cc48e3c54577de24139f0b9a6c320ca2",
  "parentHash": "0x71e78c02cb553114169bf821e39d8f922ca2baf0e1a7824ce86583f33a19e1eb",
  "number": 79250,
  "timestamp": 1439466727,
  "nonce": "0xbfa33099f9503496",
  "difficulty": 2324554030088,
  "gasLimit": {
    "_hex": "0x2fefd8"
  },
  "gasUsed": {
    "_hex": "0x5208"
  },
  "miner": "0x5B3e850E39e6f2C7dD38707b649e2B3536F14C0b",
  "extraData": "0x476574682f76312e302e312f64617277696e2f676f312e342e32",
  "transactions": [
    {
      "hash": "0x20956ef33d4828e9742356d1618d5c0fbfb91b6ce7dfecf2aa53db7769365f45",
      "blockHash": "0xb41f89340fab09f1d4638b8ece12fd59cc48e3c54577de24139f0b9a6c320ca2",
      "blockNumber": 79250,
      "transactionIndex": 0,
      "confirmations": null,
      "from": "0x5fF827e73C5B866c300b824fe12719a3DD350513",
      "gasPrice": {
        "_hex": "0xd905ea6a5"
      },
      "gasLimit": {
        "_hex": "0x5208"
      },
      "to": "0x32Be343B94f860124dC4fEe278FDCBD38C102D88",
      "value": {
        "_hex": "0x13f2c05f110b78000"
      },
      "nonce": 14,
      "data": "0x",
      "r": "0x73ae7ddae2c459550b140be95694267d1b665cad24c1c3b98aecccc1652a100b",
      "s": "0x66dd280e23a42425dfd8a80dbd0e7a8054f13de4a45ee4b1eda93b94b128f0bb",
      "v": 27,
      "creates": null,
      "raw": "0xf86d0e850d905ea6a58252089432be343b94f860124dc4fee278fdcbd38c102d8889013f2c05f110b78000801ba073ae7ddae2c459550b140be95694267d1b665cad24c1c3b98aecccc1652a100ba066dd280e23a42425dfd8a80dbd0e7a8054f13de4a45ee4b1eda93b94b128f0bb",
      "networkId": 0,
      "chainId": 0
    }
  ]
}