{
  "hash": "0x32a000c9ca9198ec8bb9977680a46a8aa06a272637882aeaf13720654b71bc39",
  "parentHash": "0x739c0356dc4bd00dd73977068bdf1d5d03a10e03b309ebb16319f7c82dd84e54",
  "number": 57503,
  "timestamp": 1439104588,
  "nonce": "0x719c3aec99f5717f",
  "difficulty": 1732791874824,
  "gasLimit": {
    "_hex": "0x2fefd8"
  },
  "gasUsed": {
    "_hex": "0x5208"
  },
  "miner": "0xf927a40C8B7F6E07c5af7FA2155B4864a4112B13",
  "extraData": "0x476574682f76312e302e312f6c696e75782f676f312e342e32",
  "transactions": [
    {
      "hash": "0x7d6fbbf6447e7e4fb190aabf9ce9f57a317ae30eaae1fcfc086d79b2eb562a52",
      "blockHash": "0x32a000c9ca9198ec8bb9977680a46a8aa06a272637882aeaf13720654b71bc39",
      "blockNumber": 57503,
      "transactionIndex": 0,
      "confirmations": null,
      "from": "0x7d7e7c61779adB7706C94D32409A2bb4E994bf60",
      "gasPrice": {
        "_hex": "0x45d964b800"
      },
      "gasLimit": {
        "_hex": "0x5208"
      },
      "to": "0x734B61f8167583Fcd27c677b8dB9369C6A3d0689",
      "value": {
        "_hex": "0xb469471f80140000"
      },
      "nonce": 9,
      "data": "0x",
      "r": "0x285f447c03c75610d32a0dcf07d98b6be2d668c99610fc95ceff193103c353a3",
      "s": "0x504b9cf635865238c602a0ed28014c7ecd80f1bf020482bf13a37bbed1694024",
      "v": 27,
      "creates": null,
      "raw": "0xf86c098545d964b80082520894734b61f8167583fcd27c677b8db9369c6a3d068988b469471f80140000801ba0285f447c03c75610d32a0dcf07d98b6be2d668c99610fc95ceff193103c353a3a0504b9cf635865238c602a0ed28014c7ecd80f1bf020482bf13a37bbed1694024",
      "networkId": 0,
      "chainId": 0
    }
  ]
}