{
  "hash": "0x86124e4e100983293648550f38b69196d6abcb5b35eeecd4feed4cf093771336",
  "parentHash": "0xeb4ebc94a79a2d6afbaa0969402f59cfae792d225925d7292dffb7b4e63779c3",
  "number": 103152,
  "timestamp": 1439848516,
  "nonce": "0xb3bc6930fd21a19d",
  "difficulty": 4197247325916,
  "gasLimit": {
    "_hex": "0x2fefd8"
  },
  "gasUsed": {
    "_hex": "0x5208"
  },
  "miner": "0xe6A7a1d47ff21B6321162AEA7C6CB457D5476Bca",
  "extraData": "0x476574682f76312e302e312d38326566323666362f6c696e75782f676f312e34",
  "transactions": [
    {
      "hash": "0x9808e149b2ac92df539c5de01e3bee008b2503a55d49811d57dc9fec96aea7c5",
      "blockHash": "0x86124e4e100983293648550f38b69196d6abcb5b35eeecd4feed4cf093771336",
      "blockNumber": 103152,
      "transactionIndex": 0,
      "confirmations": null,
      "from": "0x8e33bFA30c0c6eb3652321FF52E2fB3143fa51BF",
      "gasPrice": {
        "_hex": "0xd50bf2b5d"
      },
      "gasLimit": {
        "_hex": "0x15f90"
      },
      "to": "0xbcc72eA5bC902a76b1A86a7B02Dc73fe8055D1C7",
      "value": {
        "_hex": "0x1f399b1438a100000"
      },
      "nonce": 1,
      "data": "0x",
      "r": "0x8cdb9af41d69305ef6c8af1753bf4a8021b3aa303058ca97d8283d75688dc200",
      "s": "0x4e70ac2bfd55ae3f98593bdcc04ec6f0302fdd2fb3aedfa9d6bd50c2bc9cde7e",
      "v": 28,
      "creates": null,
      "raw": "0xf86e01850d50bf2b5d83015f9094bcc72ea5bc902a76b1a86a7b02dc73fe8055d1c78901f399b1438a100000801ca08cdb9af41d69305ef6c8af1753bf4a8021b3aa303058ca97d8283d75688dc200a04e70ac2bfd55ae3f98593bdcc04ec6f0302fdd2fb3aedfa9d6bd50c2bc9cde7e",
      "networkId": 0,
      "chainId": 0
    }
  ]
}