{
  "hash": "0x8d2bb4015afbe3aab92efc68f5cb40f7e8a5faf4c1f33b7245313ac5c4f43cea",
  "parentHash": "0x2b0ef58412e947d3e6a881141ff150b189db4d743b726494574b4cb9c9f9cbd3",
  "number": 82126,
  "timestamp": 1439514032,
  "nonce": "0xb1b252daa6d534a3",
  "difficulty": 2388174130451,
  "gasLimit": {
    "_hex": "0x2fefd8"
  },
  "gasUsed": {
    "_hex": "0xa410"
  },
  "miner": "0x580992B51e3925e23280EfB93d3047C82f17E038",
  "extraData": "0x476574682f76312e302e312f6c696e75782f676f312e342e32",
  "transactions": [
    {
      "hash": "0x13385729bb629795f46ae33596d5edca2dbdee1601be213f891e5efcf031ae0c",
      "blockHash": "0x8d2bb4015afbe3aab92efc68f5cb40f7e8a5faf4c1f33b7245313ac5c4f43cea",
      "blockNumber": 82126,
      "transactionIndex": 0,
      "confirmations": null,
      "from": "0x2910543Af39abA0Cd09dBb2D50200b3E800A63D2",
      "gasPrice": {
        "_hex": "0xd2fb9ec99"
      },
      "gasLimit": {
        "_hex": "0x5208"
      },
      "to": "0x4717DdA36062a4D937DF7601Bd07354806A957EA",
      "value": {
        "_hex": "0x1a1cf8206ddf0900000"
      },
      "nonce": 507,
      "data": "0x",
      "r": "0x1b21b4591498cbdb87f4ac7c43e2405615b85751fd56213829927ffa330c5d57",
      "s": "0x217a09fff7a5e44cc264da67117cda463d99614e68e0cf0103d8973d21999288",
      "v": 28,
      "creates": null,
      "raw": "0xf8708201fb850d2fb9ec99825208944717dda36062a4d937df7601bd07354806a957ea8a01a1cf8206ddf0900000801ca01b21b4591498cbdb87f4ac7c43e2405615b85751fd56213829927ffa330c5d57a0217a09fff7a5e44cc264da67117cda463d99614e68e0cf0103d8973d21999288",
      "networkId": 0,
      "chainId": 0
    },
    {
      "hash": "0x92ef007128aa4eba252c1df72aa7e3a9728bbc35748ca41eec2adcd258eb61a3",
      "blockHash": "0x8d2bb4015afbe3aab92efc68f5cb40f7e8a5faf4c1f33b7245313ac5c4f43cea",
      "blockNumber": 82126,
      "transactionIndex": 1,
      "confirmations": null,
      "from": "0xdd5B9750fb9a83caDeAC5bFa4E34540A76E97ECE",
      "gasPrice": {
        "_hex": "0xba43b7400"
      },
      "gasLimit": {
        "_hex": "0x5208"
      },
      "to": "0xC47Aaa860008be6f65B58c6C6E02a84e666EfE31",
      "value": {
        "_hex": "0x1b195a4f7ff4f21dc0"
      },
      "nonce": 0,
      "data": "0x",
      "r": "0x03de5be40616a28c0901d4da2e115e1c3627b3bfc596481470bed32cb9805ea8",
      "s": "0x660f8a6fa74a0d4f40179d88ed9a14f13f9f8358b0d897d528c1af4e4ee4412b",
      "v": 27,
      "creates": null,
      "raw": "0xf86d80850ba43b740082520894c47aaa860008be6f65b58c6c6e02a84e666efe31891b195a4f7ff4f21dc0801ba003de5be40616a28c0901d4da2e115e1c3627b3bfc596481470bed32cb9805ea8a0660f8a6fa74a0d4f40179d88ed9a14f13f9f8358b0d897d528c1af4e4ee4412b",
      "networkId": 0,
      "chainId": 0
    }
  ]
}