{
  "hash": "0xe978bb04a90195051cef24adf20ba8638f83eed19316b76bae718d18304917c1",
  "parentHash": "0x6b2ab6ac3d5f0f02bb3546cc3973ebc20008f6edd9e1bd33f752c35951ab83cd",
  "number": 84871,
  "timestamp": 1439555604,
  "nonce": "0x928b20e2eae77bce",
  "difficulty": 2662028988458,
  "gasLimit": {
    "_hex": "0x2fefd8"
  },
  "gasUsed": {
    "_hex": "0x5208"
  },
  "miner": "0xbb7B8287f3F0a933474a79eAe42CBCa977791171",
  "extraData": "0x476574682f4c5649562f76312e302e312f6c696e75782f676f312e342e32",
  "transactions": [
    {
      "hash": "0x9033d0625259412a6322387e4981566689bb134c5eeab96925d3b1ca78aabdbf",
      "blockHash": "0xe978bb04a90195051cef24adf20ba8638f83eed19316b76bae718d18304917c1",
      "blockNumber": 84871,
      "transactionIndex": 0,
      "confirmations": null,
      "from": "0x32Be343B94f860124dC4fEe278FDCBD38C102D88",
      "gasPrice": {
        "_hex": "0xd758333ea"
      },
      "gasLimit": {
        "_hex": "0x5208"
      },
      "to": "0x72bb27Cb99f3E2C2CF90A98F707d30E4A201A071",
      "value": {
        "_hex": "0xabba9c80107970000"
      },
      "nonce": 711,
      "data": "0x",
      "r": "0x186ce4204896a0a9292986c3394ab4035a2367c4060b8e528931187562204de0",
      "s": "0x7463d1148442c2cce0f8b2862ab545a308b63cb3bc11c8b0acf326ee3683d53a",
      "v": 27,
      "creates": null,
      "raw": "0xf86f8202c7850d758333ea8252089472bb27cb99f3e2c2cf90a98f707d30e4a201a071890abba9c80107970000801ba0186ce4204896a0a9292986c3394ab4035a2367c4060b8e528931187562204de0a07463d1148442c2cce0f8b2862ab545a308b63cb3bc11c8b0acf326ee3683d53a",
      "networkId": 0,
      "chainId": 0
    }
  ]
}