{
  "hash": "0x94fe6a9a60d51efa2af940cc6e463c0629058838d0b06730fd3f85c41fe0add1",
  "parentHash": "0xd388d9f45fc6a8e89d87abf27d16f64b6de798d226d9cf327105026417dbc051",
  "number": 91229,
  "timestamp": 1439652278,
  "nonce": "0x97732f2f0a0effc1",
  "difficulty": 3452411198452,
  "gasLimit": {
    "_hex": "0x2fefd8"
  },
  "gasUsed": {
    "_hex": "0x5208"
  },
  "miner": "0xe6A7a1d47ff21B6321162AEA7C6CB457D5476Bca",
  "extraData": "0x476574682f76312e302e312d38326566323666362f6c696e75782f676f312e34",
  "transactions": [
    {
      "hash": "0x7369cb7284f3c47f7a6f1bd3310458efef8b5e31c0e6052fcfef77a811775edd",
      "blockHash": "0x94fe6a9a60d51efa2af940cc6e463c0629058838d0b06730fd3f85c41fe0add1",
      "blockNumber": 91229,
      "transactionIndex": 0,
      "confirmations": null,
      "from": "0x32Be343B94f860124dC4fEe278FDCBD38C102D88",
      "gasPrice": {
        "_hex": "0xdeb95865a"
      },
      "gasLimit": {
        "_hex": "0x5208"
      },
      "to": "0x93630fa946A1A7918920F5127a422ed6CDCd7589",
      "value": {
        "_hex": "0xdbd2fc137a30000"
      },
      "nonce": 869,
      "data": "0x",
      "r": "0x9b27565b300d59ba0497c554f9a7bd3f8d6758b965203945fcf713745d534bd7",
      "s": "0x166c1461000023b63308e3d2a8f45e26d9cd34ef9ad7112205124baf4da08fe8",
      "v": 27,
      "creates": null,
      "raw": "0xf86e820365850deb95865a8252089493630fa946a1a7918920f5127a422ed6cdcd7589880dbd2fc137a30000801ba09b27565b300d59ba0497c554f9a7bd3f8d6758b965203945fcf713745d534bd7a0166c1461000023b63308e3d2a8f45e26d9cd34ef9ad7112205124baf4da08fe8",
      "networkId": 0,
      "chainId": 0
    }
  ]
}