{
  "hash": "0x78433526ee403e503d10801e868f1407959ba6b758798c68849a1bd80ff2ec4f",
  "parentHash": "0x6dbfd57cbd33205ddc1ec803db9d3d10235006bca23f5b5051996bdd6a1b479e",
  "number": 79080,
  "timestamp": 1439464077,
  "nonce": "0xef034d79c01f626a",
  "difficulty": 2317800749940,
  "gasLimit": {
    "_hex": "0x2fefd8"
  },
  "gasUsed": {
    "_hex": "0x22c48"
  },
  "miner": "0x9746c7e1ef2bd21FF3997fa467593a89cb852BD0",
  "extraData": "0x476574682f76312e302e312f77696e646f77732f676f312e342e32",
  "transactions": [
    {
      "hash": "0x2d3984ccfb85168981b1c574e05f6ac11adcb6c30064924eb324c302065d43a4",
      "blockHash": "0x78433526ee403e503d10801e868f1407959ba6b758798c68849a1bd80ff2ec4f",
      "blockNumber": 79080,
      "transactionIndex": 0,
      "confirmations": null,
      "from": "0xe6A7a1d47ff21B6321162AEA7C6CB457D5476Bca",
      "gasPrice": {
        "_hex": "0xd5dcf849c"
      },
      "gasLimit": {
        "_hex": "0x55f0"
      },
      "to": "0x24D0A28C70BAC94698980F2c297Ee1Cf505F06cB",
      "value": {
        "_hex": "0x113bd69f85a92610"
      },
      "nonce": 1029,
      "data": "0x",
      "r": "0x699b9a7d79f635b899ea8434601014ab060a728b1f1ab67e3307ddf8cae68db4",
      "s": "0x208db6c9f0103b181de6e22e03d790f26c5e62862ad59ce9ebf836f919db2b47",
      "v": 28,
      "creates": null,
      "raw": "0xf86e820405850d5dcf849c8255f09424d0a28c70bac94698980f2c297ee1cf505f06cb88113bd69f85a92610801ca0699b9a7d79f635b899ea8434601014ab060a728b1f1ab67e3307ddf8cae68db4a0208db6c9f0103b181de6e22e03d790f26c5e62862ad59ce9ebf836f919db2b47",
      "networkId": 0,
      "chainId": 0
    },
    {
      "hash": "0x4c60c086919d413a77fde8ec437363cac3b72169df4db102ace65fd9e70907bd",
      "blockHash": "0x78433526ee403e503d10801e868f1407959ba6b758798c68849a1bd80ff2ec4f",
      "blockNumber": 79080,
      "transactionIndex": 1,
      "confirmations": null,
      "from": "0xe6A7a1d47ff21B6321162AEA7C6CB457D5476Bca",
      "gasPrice": {
        "_hex": "0xd5dcf849c"
      },
      "gasLimit": {
        "_hex": "0x55f0"
      },
      "to": "0x274114A25f5421F186Af1cAA747864A7a06B77ff",
      "value": {
        "_hex": "0x1142dbba61aa50f0"
      },
      "nonce": 1030,
      "data": "0x",
      "r": "0x9c1ee73615065e5b3334becb7faa9bb36e17e71d47806798c8b35e717e4d7fc7",
      "s": "0x3b77f6bf6b596d3dd6e5aca5bca47487c2c2c5601babc32b07fffa49527288cd",
      "v": 27,
      "creates": null,
      "raw": "0xf86e820406850d5dcf849c8255f094274114a25f5421f186af1caa747864a7a06b77ff881142dbba61aa50f0801ba09c1ee73615065e5b3334becb7faa9bb36e17e71d47806798c8b35e717e4d7fc7a03b77f6bf6b596d3dd6e5aca5bca47487c2c2c5601babc32b07fffa49527288cd",
      "networkId": 0,
      "chainId": 0
    },
    {
      "hash": "0x3cf38656f3342be5de30e1818f95a6b884fab4b786835bcce1c7cf5c3931a7d3",
      "blockHash": "0x78433526ee403e503d10801e868f1407959ba6b758798c68849a1bd80ff2ec4f",
      "blockNumber": 79080,
      "transactionIndex": 2,
      "confirmations": null,
      "from": "0xe6A7a1d47ff21B6321162AEA7C6CB457D5476Bca",
      "gasPrice": {
        "_hex": "0xd5dcf849c"
      },
      "gasLimit": {
        "_hex": "0x55f0"
      },
      "to": "0xA560c68C8252c7BA1cA82B9C5C0d15CBa39c039b",
      "value": {
        "_hex": "0x115c325017155d18"
      },
      "nonce": 1031,
      "data": "0x",
      "r": "0x5550067fcfdcc76bdb274dbeae1f473e3e5c9444b50f508f04e4419131b587c9",
      "s": "0x2802b7068f482d689968305fb696b402e5fff473d9a7fc42de9ef943fee98f63",
      "v": 28,
      "creates": null,
      "raw": "0xf86e820407850d5dcf849c8255f094a560c68c8252c7ba1ca82b9c5c0d15cba39c039b88115c325017155d18801ca05550067fcfdcc76bdb274dbeae1f473e3e5c9444b50f508f04e4419131b587c9a02802b7068f482d689968305fb696b402e5fff473d9a7fc42de9ef943fee98f63",
      "networkId": 0,
      "chainId": 0
    },
    {
      "hash": "0x5516190eaa2bfdc354ad7878cc9949089ec35d26bcc4edb16d33d0f2a32bdfa7",
      "blockHash": "0x78433526ee403e503d10801e868f1407959ba6b758798c68849a1bd80ff2ec4f",
      "blockNumber": 79080,
      "transactionIndex": 3,
      "confirmations": null,
      "from": "0xe6A7a1d47ff21B6321162AEA7C6CB457D5476Bca",
      "gasPrice": {
        "_hex": "0xd5dcf849c"
      },
      "gasLimit": {
        "_hex": "0x55f0"
      },
      "to": "0x2e1A591a3Bd5FCE3c1E095c205Bd202C29541e70",
      "value": {
        "_hex": "0x11677048fd24eee0"
      },
      "nonce": 1032,
      "data": "0x",
      "r": "0xb17f9732e59e43d0641231392a049ace934c121cea64001558711b93b167ef5a",
      "s": "0x07fc2b1d0e0ad8e02279a4b28509e1363ec7d455a1bcca8807db7beed0610655",
      "v": 27,
      "creates": null,
      "raw": "0xf86e820408850d5dcf849c8255f0942e1a591a3bd5fce3c1e095c205bd202c29541e708811677048fd24eee0801ba0b17f9732e59e43d0641231392a049ace934c121cea64001558711b93b167ef5aa007fc2b1d0e0ad8e02279a4b28509e1363ec7d455a1bcca8807db7beed0610655",
      "networkId": 0,
      "chainId": 0
    },
    {
      "hash": "0x4585cb4e4b2f27a24888278725b191144a046319810c44e7c304e1bab4166d8a",
      "blockHash": "0x78433526ee403e503d10801e868f1407959ba6b758798c68849a1bd80ff2ec4f",
      "blockNumber": 79080,
      "transactionIndex": 4,
      "confirmations": null,
      "from": "0xe6A7a1d47ff21B6321162AEA7C6CB457D5476Bca",
      "gasPrice": {
        "_hex": "0xd5dcf849c"
      },
      "gasLimit": {
        "_hex": "0x55f0"
      },
      "to": "0x91C75e3cB4AA89F34619a164E2a47898f5674D9c",
      "value": {
        "_hex": "0x11a338336cb57cdc"
      },
      "nonce": 1033,
      "data": "0x",
      "r": "0x2c3bab08180a31a8fad10d35c790b2b8bef174b4b12b7e393f097babebd6fceb",
      "s": "0x013c7e88c40b71cd342e076c50980fc8334c6214e0d5894791e7069d54cbe63c",
      "v": 28,
      "creates": null,
      "raw": "0xf86e820409850d5dcf849c8255f09491c75e3cb4aa89f34619a164e2a47898f5674d9c8811a338336cb57cdc801ca02c3bab08180a31a8fad10d35c790b2b8bef174b4b12b7e393f097babebd6fceba0013c7e88c40b71cd342e076c50980fc8334c6214e0d5894791e7069d54cbe63c",
      "networkId": 0,
      "chainId": 0
    },
    {
      "hash": "0x2d8283b59dfd7e3b0ac69bf972e523b9fac480d2e1a28aeb6678ea11cc1cfc19",
      "blockHash": "0x78433526ee403e503d10801e868f1407959ba6b758798c68849a1bd80ff2ec4f",
      "blockNumber": 79080,
      "transactionIndex": 5,
      "confirmations": null,
      "from": "0x7cFa3d23636173A3beFaabc8ca86846A07C4B3DD",
      "gasPrice": {
        "_hex": "0xd27f2c698"
      },
      "gasLimit": {
        "_hex": "0xf4240"
      },
      "to": "0xBCd159845b81E35a0b5aFF57FECCD0b3114791Ab",
      "value": {
        "_hex": "0x0"
      },
      "nonce": 6,
      "data": "0x6ffcc7190000000000000000000000000000000000000000000000001b5ebda96dafe3dc00000000000000000000000000000000000000000000000000000000002f6249",
      "r": "0xd58d9dd009c14619d1910ab0468294e073115bdf70a58a24acf20cc1450bff62",
      "s": "0x396b123b5f24ebf9931b82222c9aa156932b382b210e5c750278ab5aaa8a30b3",
      "v": 27,
      "creates": null,
      "raw": "0xf8aa06850d27f2c698830f424094bcd159845b81e35a0b5aff57feccd0b3114791ab80b8446ffcc7190000000000000000000000000000000000000000000000001b5ebda96dafe3dc00000000000000000000000000000000000000000000000000000000002f62491ba0d58d9dd009c14619d1910ab0468294e073115bdf70a58a24acf20cc1450bff62a0396b123b5f24ebf9931b82222c9aa156932b382b210e5c750278ab5aaa8a30b3",
      "networkId": 0,
      "chainId": 0
    }
  ]
}