{
  "hash": "0xaa6b678ee2680e22cde5d11c1c48f93287083c46538b98a081a0142c469465e9",
  "parentHash": "0xbae7145a3640260f9573eb31df57a8bfe1f13278264988c3acad5c3678954c79",
  "number": 86293,
  "timestamp": 1439576287,
  "nonce": "0xf77d3dcfd99754eb",
  "difficulty": 2849884520752,
  "gasLimit": {
    "_hex": "0x2fefd8"
  },
  "gasUsed": {
    "_hex": "0x5208"
  },
  "miner": "0x88D74a59454F6cF3B51ef6b9136AFb6b9D405A88",
  "extraData": "0x476574682f76312e302e312d37666266393930632f6c696e75782f676f312e34",
  "transactions": [
    {
      "hash": "0x0b9d2f73794726abe82f24c0d1824bcb779f5711e48dbdc15fb1cbac9f46be49",
      "blockHash": "0xaa6b678ee2680e22cde5d11c1c48f93287083c46538b98a081a0142c469465e9",
      "blockNumber": 86293,
      "transactionIndex": 0,
      "confirmations": null,
      "from": "0x120A270bbC009644e35F0bB6ab13f95b8199c4ad",
      "gasPrice": {
        "_hex": "0xd7ca30452"
      },
      "gasLimit": {
        "_hex": "0x3d090"
      },
      "to": "0x017481d0d93849d5Fa4120CEB377Ab89F42E0206",
      "value": {
        "_hex": "0x6965918a581cb400"
      },
      "nonce": 474,
      "data": "0x",
      "r": "0xc31e4f3bddd6ec1528589f0a8650d8155dca0b65a23e9ebac28b34318547dcf7",
      "s": "0x7a2098650491c6c8f8193ec7fefa4dc0890aad34f2042be7c8765ef7b2905e3b",
      "v": 28,
      "creates": null,
      "raw": "0xf86f8201da850d7ca304528303d09094017481d0d93849d5fa4120ceb377ab89f42e0206886965918a581cb400801ca0c31e4f3bddd6ec1528589f0a8650d8155dca0b65a23e9ebac28b34318547dcf7a07a2098650491c6c8f8193ec7fefa4dc0890aad34f2042be7c8765ef7b2905e3b",
      "networkId": 0,
      "chainId": 0
    }
  ]
}