{
  "hash": "0xbbd640b0c9a6c5d16193e8047bf628312c7d040bc1f11073b25dcbd0d84c059a",
  "parentHash": "0x9348b76bd179dcd782648a461b543ae241c1d51a442b67dc9f9eeee4fea6b5d4",
  "number": 63199,
  "timestamp": 1439200813,
  "nonce": "0x687ae029ee26e17b",
  "difficulty": 1800595412806,
  "gasLimit": {
    "_hex": "0x2fefd8"
  },
  "gasUsed": {
    "_hex": "0xa410"
  },
  "miner": "0x66BE410479472f811a66312c3DB7825de83b3129",
  "extraData": "0x",
  "transactions": [
    {
      "hash": "0x6117e17e29699c7b88558bb328fd4410fa7e738c9647c73f9ba7c05235942bbe",
      "blockHash": "0xbbd640b0c9a6c5d16193e8047bf628312c7d040bc1f11073b25dcbd0d84c059a",
      "blockNumber": 63199,
      "transactionIndex": 0,
      "confirmations": null,
      "from": "0x392Eea65EeecFF248653B606c028D0810dc83Bfe",
      "gasPrice": {
        "_hex": "0xda185ef2b"
      },
      "gasLimit": {
        "_hex": "0x15f90"
      },
      "to": "0x120A270bbC009644e35F0bB6ab13f95b8199c4ad",
      "value": {
        "_hex": "0x56ba3d73af34f0000"
      },
      "nonce": 0,
      "data": "0x",
      "r": "0x0d45fef2a5ac6abf809f6e872d28a6960f75db9fb3cfab850e9cd18396f1515c",
      "s": "0x44a1d3cd4b3a75e3431eecd5800b292ef65747f62116b3075db5edc7672ca9d5",
      "v": 28,
      "creates": null,
      "raw": "0xf86e80850da185ef2b83015f9094120a270bbc009644e35f0bb6ab13f95b8199c4ad89056ba3d73af34f0000801ca00d45fef2a5ac6abf809f6e872d28a6960f75db9fb3cfab850e9cd18396f1515ca044a1d3cd4b3a75e3431eecd5800b292ef65747f62116b3075db5edc7672ca9d5",
      "networkId": 0,
      "chainId": 0
    },
    {
      "hash": "0x1b0ead2bc51d58e5b7b48bc35e2d3649c1757018e82f7e3f782390339e3e33bf",
      "blockHash": "0xbbd640b0c9a6c5d16193e8047bf628312c7d040bc1f11073b25dcbd0d84c059a",
      "blockNumber": 63199,
      "transactionIndex": 1,
      "confirmations": null,
      "from": "0x120A270bbC009644e35F0bB6ab13f95b8199c4ad",
      "gasPrice": {
        "_hex": "0xda185ef2b"
      },
      "gasLimit": {
        "_hex": "0x15f90"
      },
      "to": "0x5d964C49AF8eBF59AF86bb5bEA4d506b371C3e4a",
      "value": {
        "_hex": "0xda8f4eff37efc000"
      },
      "nonce": 95,
      "data": "0x",
      "r": "0x2a0713d41bb225dd03e4a256d09d2487bf671fde00bc944d06b6ec311aa37c2c",
      "s": "0x47473554c4f7556ae4f9e47d4ae2674e02060db2f9321bebcb76d57f936201ea",
      "v": 28,
      "creates": null,
      "raw": "0xf86d5f850da185ef2b83015f90945d964c49af8ebf59af86bb5bea4d506b371c3e4a88da8f4eff37efc000801ca02a0713d41bb225dd03e4a256d09d2487bf671fde00bc944d06b6ec311aa37c2ca047473554c4f7556ae4f9e47d4ae2674e02060db2f9321bebcb76d57f936201ea",
      "networkId": 0,
      "chainId": 0
    }
  ]
}