{
  "hash": "0x0e4a7549bc18dbcceb70cb1ac8a4cd8e7486c6fcd9ea761fd6e0c386fc9d45bf",
  "parentHash": "0xa056a8a414ee83083a1720682dec919b343672645ddf997db8ef416d99c8672c",
  "number": 48893,
  "timestamp": 1438964758,
  "nonce": "0x1b37cf5c9377f93f",
  "difficulty": 1474989561037,
  "gasLimit": {
    "_hex": "0x20695"
  },
  "gasUsed": {
    "_hex": "0xa674"
  },
  "miner": "0xf927a40C8B7F6E07c5af7FA2155B4864a4112B13",
  "extraData": "0x476574682f76312e302e312f6c696e75782f676f312e342e32",
  "transactions": [
    {
      "hash": "0x571a39684edff51b4293594b8354a6d014f709ad0d2fb72c0dbd429792f8fc63",
      "blockHash": "0x0e4a7549bc18dbcceb70cb1ac8a4cd8e7486c6fcd9ea761fd6e0c386fc9d45bf",
      "blockNumber": 48893,
      "transactionIndex": 0,
      "confirmations": null,
      "from": "0xba1FCAf223937Ef89e85675503Bdb7Ca6A928B78",
      "gasPrice": {
        "_hex": "0x10403fccd14"
      },
      "gasLimit": {
        "_hex": "0x15f90"
      },
      "to": "0xC939D6e2515872B4A5bed252f1d82A4dCE4A1507",
      "value": {
        "_hex": "0x64"
      },
      "nonce": 2,
      "data": "0x",
      "r": "0xd8369bcb53c81e9f1547291c63ee4b7380a5555f5bf50b0bd706885ba16d8a1b",
      "s": "0x69528db365456061910b144a095e7f7e1c15ee7bd7d42400354c8787d77968ea",
      "v": 28,
      "creates": null,
      "raw": "0xf8660286010403fccd1483015f9094c939d6e2515872b4a5bed252f1d82a4dce4a150764801ca0d8369bcb53c81e9f1547291c63ee4b7380a5555f5bf50b0bd706885ba16d8a1ba069528db365456061910b144a095e7f7e1c15ee7bd7d42400354c8787d77968ea",
      "networkId": 0,
      "chainId": 0
    },
    {
      "hash": "0x943e6b26cd1252415aefc7f038dd32ebd8267ed4dec997692abc28ec66d8b34c",
      "blockHash": "0x0e4a7549bc18dbcceb70cb1ac8a4cd8e7486c6fcd9ea761fd6e0c386fc9d45bf",
      "blockNumber": 48893,
      "transactionIndex": 1,
      "confirmations": null,
      "from": "0xd2a030ac8952325f9E1DB378A71485a24E1B07B2",
      "gasPrice": {
        "_hex": "0xd8a05adb6"
      },
      "gasLimit": {
        "_hex": "0x15f90"
      },
      "to": "0x2910543Af39abA0Cd09dBb2D50200b3E800A63D2",
      "value": {
        "_hex": "0x6c184f1355d0e80000"
      },
      "nonce": 1,
      "data": "0x454e514b454b313830",
      "r": "0xfd262a4b49247a8afacef512999d3a99be145612cb79a0293eacdb79e483adcf",
      "s": "0x3405bd6f73eed65ef9acb2c2aa090ce975be4abcebda6a8ab65cdb052fbff819",
      "v": 28,
      "creates": null,
      "raw": "0xf87701850d8a05adb683015f90942910543af39aba0cd09dbb2d50200b3e800a63d2896c184f1355d0e8000089454e514b454b3138301ca0fd262a4b49247a8afacef512999d3a99be145612cb79a0293eacdb79e483adcfa03405bd6f73eed65ef9acb2c2aa090ce975be4abcebda6a8ab65cdb052fbff819",
      "networkId": 0,
      "chainId": 0
    }
  ]
}