{
  "hash": "0x5b08ac8c4efd397ffe4fdd89f3c8bb65615151c3f59afd9462fe8e406ceeb731",
  "parentHash": "0x60873405436f8441d84cd665c7a14129ca05cf8b4db992a9ddab338647830e42",
  "number": 117547,
  "timestamp": 1440111373,
  "nonce": "0x852e140a21dbecbd",
  "difficulty": 4304101325642,
  "gasLimit": {
    "_hex": "0x2fefd8"
  },
  "gasUsed": {
    "_hex": "0xf618"
  },
  "miner": "0xe6A7a1d47ff21B6321162AEA7C6CB457D5476Bca",
  "extraData": "0xd783010002844765746887676f312e342e32856c696e7578",
  "transactions": [
    {
      "hash": "0x853705dfff4be87aca32fa709f2cbf867eda9f4203230fa5d5aa9bbab4388d99",
      "blockHash": "0x5b08ac8c4efd397ffe4fdd89f3c8bb65615151c3f59afd9462fe8e406ceeb731",
      "blockNumber": 117547,
      "transactionIndex": 0,
      "confirmations": null,
      "from": "0x007f7f58D3eb5b7510A301eCC749FC1fCDDBE14D",
      "gasPrice": {
        "_hex": "0xba43b7400"
      },
      "gasLimit": {
        "_hex": "0x15f90"
      },
      "to": "0xb1abce2918E21ddb93AA452731a12672A3d9F75a",
      "value": {
        "_hex": "0x4563918244f40000"
      },
      "nonce": 326,
      "data": "0x",
      "r": "0x14e03f13f260365cfdd24095493f3d01517713b6fe4997fe951966682b654c0d",
      "s": "0x70fcab04261e164fc0684869797073d4a31d9d25dfe83ef3623bec9e2aea3c65",
      "v": 28,
      "creates": null,
      "raw": "0xf86f820146850ba43b740083015f9094b1abce2918e21ddb93aa452731a12672a3d9f75a884563918244f40000801ca014e03f13f260365cfdd24095493f3d01517713b6fe4997fe951966682b654c0da070fcab04261e164fc0684869797073d4a31d9d25dfe83ef3623bec9e2aea3c65",
      "networkId": 0,
      "chainId": 0
    },
    {
      "hash": "0xbfd823a994e0c44044d74c950f5373905592217b260b52b4d796eaae337fbf43",
      "blockHash": "0x5b08ac8c4efd397ffe4fdd89f3c8bb65615151c3f59afd9462fe8e406ceeb731",
      "blockNumber": 117547,
      "transactionIndex": 1,
      "confirmations": null,
      "from": "0x52bc44d5378309EE2abF1539BF71dE1b7d7bE3b5",
      "gasPrice": {
        "_hex": "0xba43b7400"
      },
      "gasLimit": {
        "_hex": "0x61a8"
      },
      "to": "0x79f01183E6e364098Db23ba853aeF9AF30e13733",
      "value": {
        "_hex": "0x3ab78cff3153e080"
      },
      "nonce": 395,
      "data": "0x",
      "r": "0x61c8b498924c2dbcd25016a1c109c2854dab9bd1ad91cc008480e9df5ebb7c59",
      "s": "0x5f428eebafe816a2cac59088ea9d14f13ae2f0f3fb4ca6bf03e79258e2f6437e",
      "v": 28,
      "creates": null,
      "raw": "0xf86e82018b850ba43b74008261a89479f01183e6e364098db23ba853aef9af30e13733883ab78cff3153e080801ca061c8b498924c2dbcd25016a1c109c2854dab9bd1ad91cc008480e9df5ebb7c59a05f428eebafe816a2cac59088ea9d14f13ae2f0f3fb4ca6bf03e79258e2f6437e",
      "networkId": 0,
      "chainId": 0
    },
    {
      "hash": "0xc709d26577caf3f0d65b5aea8c4585902a6d73747e21daecc2cd2e5d5eafe981",
      "blockHash": "0x5b08ac8c4efd397ffe4fdd89f3c8bb65615151c3f59afd9462fe8e406ceeb731",
      "blockNumber": 117547,
      "transactionIndex": 2,
      "confirmations": null,
      "from": "0x52bc44d5378309EE2abF1539BF71dE1b7d7bE3b5",
      "gasPrice": {
        "_hex": "0xba43b7400"
      },
      "gasLimit": {
        "_hex": "0x61a8"
      },
      "to": "0xCeD2445e8A8061b19111d5A72547eAe2341E28CB",
      "value": {
        "_hex": "0x6bb6cd07fe260c0"
      },
      "nonce": 396,
      "data": "0x",
      "r": "0xb63ba6ed4f658fa2f260d36555d4a9859bb7c621ecb601d7b3063869e53d94e9",
      "s": "0x15ef1cb9d7af7e07ab897fd56f4ba416487ca86d103f01e49fa2521e82210a82",
      "v": 28,
      "creates": null,
      "raw": "0xf86e82018c850ba43b74008261a894ced2445e8a8061b19111d5a72547eae2341e28cb8806bb6cd07fe260c0801ca0b63ba6ed4f658fa2f260d36555d4a9859bb7c621ecb601d7b3063869e53d94e9a015ef1cb9d7af7e07ab897fd56f4ba416487ca86d103f01e49fa2521e82210a82",
      "networkId": 0,
      "chainId": 0
    }
  ]
}