{
  "hash": "0x79f7425a2629f7e0971484c421bf8a085408421fb224bfc02bdb03f4d127e123",
  "parentHash": "0x542a3601019d916620ad9462766d986a1e5ddfa0aaec92a1d1a92d62981a7e64",
  "number": 95005,
  "timestamp": 1439717519,
  "nonce": "0x541be240966442b6",
  "difficulty": 3512053387408,
  "gasLimit": {
    "_hex": "0x2fefd8"
  },
  "gasUsed": {
    "_hex": "0x546c"
  },
  "miner": "0xe64D681b0eBCa2997D5f35e72EbC7777973299D7",
  "extraData": "0x",
  "transactions": [
    {
      "hash": "0xa9400b8474916d94f69bad744c79471d6e3eb25a979f9c323ee97945949e6911",
      "blockHash": "0x79f7425a2629f7e0971484c421bf8a085408421fb224bfc02bdb03f4d127e123",
      "blockNumber": 95005,
      "transactionIndex": 0,
      "confirmations": null,
      "from": "0xd55508AdbBbe9bE81b80F97A6Ea89ADd68DA674F",
      "gasPrice": {
        "_hex": "0x110c8f7d8de"
      },
      "gasLimit": {
        "_hex": "0xc350"
      },
      "to": "0x2910543Af39abA0Cd09dBb2D50200b3E800A63D2",
      "value": {
        "_hex": "0x66ffcbfd5e5a300000"
      },
      "nonce": 0,
      "data": "0x454e4159364b4b4430",
      "r": "0x3c1c7aea4f2c5286abce5ddb4ca687a9558e449193359ee1274fc6c3a0ea3a03",
      "s": "0x1bfbaa4a36529a3ac791f8ec925c31a66de2cc121fb253e3028e462888c1ec9b",
      "v": 27,
      "creates": null,
      "raw": "0xf87780860110c8f7d8de82c350942910543af39aba0cd09dbb2d50200b3e800a63d28966ffcbfd5e5a30000089454e4159364b4b44301ba03c1c7aea4f2c5286abce5ddb4ca687a9558e449193359ee1274fc6c3a0ea3a03a01bfbaa4a36529a3ac791f8ec925c31a66de2cc121fb253e3028e462888c1ec9b",
      "networkId": 0,
      "chainId": 0
    }
  ]
}