{
  "hash": "0xc52c558f0eda5904963bbb5d1c0ab36a3001ae1939a41e7e37d59a84801c9e90",
  "parentHash": "0x265bf07189d334efc4c99aedf8c0862c876ff1c17d4975c83251bf1bd43602e2",
  "number": 83603,
  "timestamp": 1439537886,
  "nonce": "0x89187e96c2748109",
  "difficulty": 2443184375208,
  "gasLimit": {
    "_hex": "0x2fefd8"
  },
  "gasUsed": {
    "_hex": "0x546c"
  },
  "miner": "0xf927a40C8B7F6E07c5af7FA2155B4864a4112B13",
  "extraData": "0x",
  "transactions": [
    {
      "hash": "0x005cac010e967a00821dce1b429c2e483a845ca2d30d44f17d913e7fa9ac7965",
      "blockHash": "0xc52c558f0eda5904963bbb5d1c0ab36a3001ae1939a41e7e37d59a84801c9e90",
      "blockNumber": 83603,
      "transactionIndex": 0,
      "confirmations": null,
      "from": "0x95893F64255e656e6aD6aC405ebcEb1117884060",
      "gasPrice": {
        "_hex": "0xd7d40ace3"
      },
      "gasLimit": {
        "_hex": "0x55f0"
      },
      "to": "0x0000000000000000000000000000000000000000",
      "value": {
        "_hex": "0x4563918244f40000"
      },
      "nonce": 1,
      "data": "0x454e35414630443438",
      "r": "0x51c88efca18b718cba71bcee5f93b6ce2fc054da4205dc0181745956729ebefe",
      "s": "0x46c6a27122280643c0c5deb12475b2c628db55b440b7072ec21488adde83880e",
      "v": 27,
      "creates": null,
      "raw": "0xf87501850d7d40ace38255f0940000000000000000000000000000000000000000884563918244f4000089454e354146304434381ba051c88efca18b718cba71bcee5f93b6ce2fc054da4205dc0181745956729ebefea046c6a27122280643c0c5deb12475b2c628db55b440b7072ec21488adde83880e",
      "networkId": 0,
      "chainId": 0
    }
  ]
}