{
  "hash": "0xb4d4c8b456bccf6accf43c0ed02d2b0d17d951a48e0e66409b45c63233ba0420",
  "parentHash": "0x2cedfb0ddd1d514bfa5f78c4b697bae411c03d66bec08308b24c1ab7e24be531",
  "number": 76811,
  "timestamp": 1439426628,
  "nonce": "0x48eee4bf1fd12a2b",
  "difficulty": 2237243964459,
  "gasLimit": {
    "_hex": "0x2fefd8"
  },
  "gasUsed": {
    "_hex": "0x70f3"
  },
  "miner": "0x3222BA3F3e79eA0e31467EEE7639B57923558cCD",
  "extraData": "0x",
  "transactions": [
    {
      "hash": "0x16b48b6a937956077ddd24159fa4e12a59d6013f9a0d4d5561d666d096cd230c",
      "blockHash": "0xb4d4c8b456bccf6accf43c0ed02d2b0d17d951a48e0e66409b45c63233ba0420",
      "blockNumber": 76811,
      "transactionIndex": 0,
      "confirmations": null,
      "from": "0x8Be84A3adfBc51c59023B2413766E229108c35DE",
      "gasPrice": {
        "_hex": "0xdd8b97a94"
      },
      "gasLimit": {
        "_hex": "0x493e0"
      },
      "to": "0xD79B4C6791784184e2755B2fC1659eaaB0f80456",
      "value": {
        "_hex": "0x0"
      },
      "nonce": 22,
      "data": "0xbd66528a73302e3138363938383934343038323733353533000000000000000000000000",
      "r": "0x2e1d93facab41a12ecd6d64aeb9f86a64114e1a85deec2e94ced1dad585d8d84",
      "s": "0x01c2e96f3b66d5c2417723fe66c9e750b4ac1ca0123e3a6b8cd0b10475941112",
      "v": 27,
      "creates": null,
      "raw": "0xf88916850dd8b97a94830493e094d79b4c6791784184e2755b2fc1659eaab0f8045680a4bd66528a73302e31383639383839343430383237333535330000000000000000000000001ba02e1d93facab41a12ecd6d64aeb9f86a64114e1a85deec2e94ced1dad585d8d84a001c2e96f3b66d5c2417723fe66c9e750b4ac1ca0123e3a6b8cd0b10475941112",
      "networkId": 0,
      "chainId": 0
    }
  ]
}