{
  "hash": "0xed5fa952db0c62f9db8f6cd0c18e2b5985381d4b79464c9680bc97ad0c6307b5",
  "parentHash": "0x738e967d798002eab7059cb15de37d595aafe583ef78dbf6ca248787b2372a91",
  "number": 95500,
  "timestamp": 1439725064,
  "nonce": "0xdb79c90ee532b1b6",
  "difficulty": 3614488907292,
  "gasLimit": {
    "_hex": "0x2fefd8"
  },
  "gasUsed": {
    "_hex": "0x546c"
  },
  "miner": "0xE8CfAf09a32020eF1C065904a244b4dD6E7C69c6",
  "extraData": "0x",
  "transactions": [
    {
      "hash": "0xad88e199124f33e56d11460600f06a8ca61eb310eb261359b645a7ac6ced2065",
      "blockHash": "0xed5fa952db0c62f9db8f6cd0c18e2b5985381d4b79464c9680bc97ad0c6307b5",
      "blockNumber": 95500,
      "transactionIndex": 0,
      "confirmations": null,
      "from": "0x2c2428e4a66974eDc822D5dbfb241b2728075158",
      "gasPrice": {
        "_hex": "0x110c8f7d8de"
      },
      "gasLimit": {
        "_hex": "0xc350"
      },
      "to": "0x2910543Af39abA0Cd09dBb2D50200b3E800A63D2",
      "value": {
        "_hex": "0x6c6a3016135fb60000"
      },
      "nonce": 0,
      "data": "0x454e56343351314447",
      "r": "0xcc1b878d26339dd0db9728b65ee1df4c8bd64ab8e404c8fd28aaa6c2f7890afd",
      "s": "0xf373eab51d1277af1d956c015304f9aadf5de9dc830060b8aa25b7acdd8f7eb3",
      "v": 28,
      "creates": null,
      "raw": "0xf87780860110c8f7d8de82c350942910543af39aba0cd09dbb2d50200b3e800a63d2896c6a3016135fb6000089454e563433513144471ca0cc1b878d26339dd0db9728b65ee1df4c8bd64ab8e404c8fd28aaa6c2f7890afda0f373eab51d1277af1d956c015304f9aadf5de9dc830060b8aa25b7acdd8f7eb3",
      "networkId": 0,
      "chainId": 0
    }
  ]
}