{
  "hash": "0xf8b554251529c7b62735c3e50df496e19876eaf8a6a078453b25732fef759318",
  "parentHash": "0xe6034bf0d997becea4977c170b7d88979e8e68a9e7f9f000463628a1176632f7",
  "number": 72330,
  "timestamp": 1439351008,
  "nonce": "0xdc5363c05bac56a8",
  "difficulty": 2179125046361,
  "gasLimit": {
    "_hex": "0x2fefd8"
  },
  "gasUsed": {
    "_hex": "0x5208"
  },
  "miner": "0xF2d2AfF1320476cb8C6b607199D23175cc595693",
  "extraData": "0x476574682f76312e302e312f77696e646f77732f676f312e342e32",
  "transactions": [
    {
      "hash": "0x9621b69986b4373e8c70c1c213e12a9a7108081671a50fa49bd24693833ed8c1",
      "blockHash": "0xf8b554251529c7b62735c3e50df496e19876eaf8a6a078453b25732fef759318",
      "blockNumber": 72330,
      "transactionIndex": 0,
      "confirmations": null,
      "from": "0x7D45E10A0d63eCCA0694a7cbfF030f4dD87DA0dC",
      "gasPrice": {
        "_hex": "0xd7d40ace3"
      },
      "gasLimit": {
        "_hex": "0x15f90"
      },
      "to": "0x6d921977dEFE5f4e0682CA512De1D07b1f4802E1",
      "value": {
        "_hex": "0x3bd913e6c1df40000"
      },
      "nonce": 1,
      "data": "0x",
      "r": "0x62d7b3eabda920716f7760b7ee69e59bd4258e0c9d95a0222d97edb7671a9205",
      "s": "0x2ba62f224a1ea140a4d99ea67eb4fd072263c9e33b1b1d85f749dd4a887e8fec",
      "v": 28,
      "creates": null,
      "raw": "0xf86e01850d7d40ace383015f90946d921977defe5f4e0682ca512de1d07b1f4802e18903bd913e6c1df40000801ca062d7b3eabda920716f7760b7ee69e59bd4258e0c9d95a0222d97edb7671a9205a02ba62f224a1ea140a4d99ea67eb4fd072263c9e33b1b1d85f749dd4a887e8fec",
      "networkId": 0,
      "chainId": 0
    }
  ]
}