{
  "hash": "0x389f1cc445965f16d77efa5c544bbc68f60e590bf27f49d7e9408982f57b7635",
  "parentHash": "0x13b911d97fdd8bc4bdf2b40cc9de6b3fb07e5dd5d8dea831b281dcfdac779001",
  "number": 120663,
  "timestamp": 1440163871,
  "nonce": "0xebe432eac673138b",
  "difficulty": 4413144772273,
  "gasLimit": {
    "_hex": "0x2fefd8"
  },
  "gasUsed": {
    "_hex": "0x5208"
  },
  "miner": "0x52bc44d5378309EE2abF1539BF71dE1b7d7bE3b5",
  "extraData": "0xd783010002844765746887676f312e342e32856c696e7578",
  "transactions": [
    {
      "hash": "0xad45e8e969aac3637be59895df287290b72dc5c1532612ef1e591c556421e7b2",
      "blockHash": "0x389f1cc445965f16d77efa5c544bbc68f60e590bf27f49d7e9408982f57b7635",
      "blockNumber": 120663,
      "transactionIndex": 0,
      "confirmations": null,
      "from": "0x16C9b930E32c92004105d7F66801C75c61E3408D",
      "gasPrice": {
        "_hex": "0xba43b7400"
      },
      "gasLimit": {
        "_hex": "0x5208"
      },
      "to": "0x32Be343B94f860124dC4fEe278FDCBD38C102D88",
      "value": {
        "_hex": "0x3cb6e447590f48000"
      },
      "nonce": 6,
      "data": "0x",
      "r": "0x8990e25580098817411b2f64b5fde3ba3e7af3fa8536a6950fddcffca80a21e2",
      "s": "0x195a246acf30ebc453e81bea3052a868cc22df84124f11328caac5abec26d9ab",
      "v": 27,
      "creates": null,
      "raw": "0xf86d06850ba43b74008252089432be343b94f860124dc4fee278fdcbd38c102d888903cb6e447590f48000801ba08990e25580098817411b2f64b5fde3ba3e7af3fa8536a6950fddcffca80a21e2a0195a246acf30ebc453e81bea3052a868cc22df84124f11328caac5abec26d9ab",
      "networkId": 0,
      "chainId": 0
    }
  ]
}