{
  "hash": "0xa00e7fdda1a432e662e4683f7f64020c849b7c41578eca0abd200c0e137ab7e8",
  "parentHash": "0xbe24f61b5b1532c99c808a38bffd15560af0c03c4ec1546667c2de4016297df3",
  "number": 62389,
  "timestamp": 1439188000,
  "nonce": "0xaf24af37f054a458",
  "difficulty": 1767664644775,
  "gasLimit": {
    "_hex": "0x2fefd8"
  },
  "gasUsed": {
    "_hex": "0xddfd"
  },
  "miner": "0x88D74a59454F6cF3B51ef6b9136AFb6b9D405A88",
  "extraData": "0x476574682f76312e302e312d37666266393930632f6c696e75782f676f312e34",
  "transactions": [
    {
      "hash": "0xb00ddf9b98a7211773f37dcb0c215d8e503d7c969d56bd0f3155db94be6809ea",
      "blockHash": "0xa00e7fdda1a432e662e4683f7f64020c849b7c41578eca0abd200c0e137ab7e8",
      "blockNumber": 62389,
      "transactionIndex": 0,
      "confirmations": null,
      "from": "0xa522de7EB6ae1250522A513133a93bd42849475C",
      "gasPrice": {
        "_hex": "0xd7d40ace3"
      },
      "gasLimit": {
        "_hex": "0x61a80"
      },
      "to": "0x020522bF9B8eD6FF41E2fa6765a17E20E2767D64",
      "value": {
        "_hex": "0x56bc75e2d63100000"
      },
      "nonce": 0,
      "data": "0x",
      "r": "0x3a8423e97f706a73c8418fc907dfa1167668f0189baa69ff57a6e063e6b45cce",
      "s": "0x36d5ffcba23d1ed0ffb6f0623e12b75fd421a55a2bf30a8705e7cdbb7a1b30cc",
      "v": 27,
      "creates": null,
      "raw": "0xf86e80850d7d40ace383061a8094020522bf9b8ed6ff41e2fa6765a17e20e2767d6489056bc75e2d63100000801ba03a8423e97f706a73c8418fc907dfa1167668f0189baa69ff57a6e063e6b45ccea036d5ffcba23d1ed0ffb6f0623e12b75fd421a55a2bf30a8705e7cdbb7a1b30cc",
      "networkId": 0,
      "chainId": 0
    }
  ]
}