{
  "hash": "0x3d388dec66553e02bb46113632b09dd1560f67878e58ffc9534e4718275642b6",
  "parentHash": "0x753825dcebc3aa737384083647e8d94cbca729e157634500afc8efc92fb8a634",
  "number": 119551,
  "timestamp": 1440144871,
  "nonce": "0x42f0d43f6b7b6304",
  "difficulty": 4387943739528,
  "gasLimit": {
    "_hex": "0x2fefd8"
  },
  "gasUsed": {
    "_hex": "0x5208"
  },
  "miner": "0x608f4b86321a68453f9adf6F06F7Fc3E621739ad",
  "extraData": "0xd783010002844765746887676f312e342e32856c696e7578",
  "transactions": [
    {
      "hash": "0xdaf87635be96fb6a9c5c3c2c0453bf3f54333cdc954de33a233e0a2c0df052de",
      "blockHash": "0x3d388dec66553e02bb46113632b09dd1560f67878e58ffc9534e4718275642b6",
      "blockNumber": 119551,
      "transactionIndex": 0,
      "confirmations": null,
      "from": "0xd7C9Da7F000be9dcD742D6437dE28669DAFf0f4B",
      "gasPrice": {
        "_hex": "0xba43b7400"
      },
      "gasLimit": {
        "_hex": "0x55f0"
      },
      "to": "0x931Ac2444b057f80A06A4FB627f26FFA5CE41184",
      "value": {
        "_hex": "0xaeb4b839c2da94c"
      },
      "nonce": 4,
      "data": "0x",
      "r": "0x8d0e3aea98e587ea89dcf44b25f015ec9199e9ecba979c9be62f369a4737e81e",
      "s": "0x2e0f920322506dab6c73fd9f3de600a40fe14ad5e0d4a60ea17511840724da49",
      "v": 27,
      "creates": null,
      "raw": "0xf86c04850ba43b74008255f094931ac2444b057f80a06a4fb627f26ffa5ce41184880aeb4b839c2da94c801ba08d0e3aea98e587ea89dcf44b25f015ec9199e9ecba979c9be62f369a4737e81ea02e0f920322506dab6c73fd9f3de600a40fe14ad5e0d4a60ea17511840724da49",
      "networkId": 0,
      "chainId": 0
    }
  ]
}