{
  "hash": "0x3c40bc617440b4ee81d6031eee3d0998221f3448087545e7ef2bcd25d557e218",
  "parentHash": "0x2e64786cc504c329b33b5e6e612879cefec42fda2f3caec784307533f2332732",
  "number": 76255,
  "timestamp": 1439417356,
  "nonce": "0x82531ff0b7a9dfe3",
  "difficulty": 2235208367719,
  "gasLimit": {
    "_hex": "0x2fefd8"
  },
  "gasUsed": {
    "_hex": "0x5208"
  },
  "miner": "0x8B454d830feF179e66206840F8F3D1d83bC32b17",
  "extraData": "0x476574682f76312e302e312f77696e646f77732f676f312e342e32",
  "transactions": [
    {
      "hash": "0x5028742df57b6e98a7ac9d4c5d589dac45333084745cc3d3df7b91fc12e8eca5",
      "blockHash": "0x3c40bc617440b4ee81d6031eee3d0998221f3448087545e7ef2bcd25d557e218",
      "blockNumber": 76255,
      "transactionIndex": 0,
      "confirmations": null,
      "from": "0x2910543Af39abA0Cd09dBb2D50200b3E800A63D2",
      "gasPrice": {
        "_hex": "0xceb92d247"
      },
      "gasLimit": {
        "_hex": "0x5208"
      },
      "to": "0x7A3F5314eFB62CDe77750d52dD2bf12eF74a5D2a",
      "value": {
        "_hex": "0xb58f4f2246eb18b8000"
      },
      "nonce": 322,
      "data": "0x",
      "r": "0xdef26d7d1c59746748f17e62e616b13d996beb7b1b7cc10075dc71bfe0dc0c6a",
      "s": "0x2473a2bdede242de4c49510f532064165b996674fe2ec9b32a0f8464e56d4a94",
      "v": 27,
      "creates": null,
      "raw": "0xf870820142850ceb92d247825208947a3f5314efb62cde77750d52dd2bf12ef74a5d2a8a0b58f4f2246eb18b8000801ba0def26d7d1c59746748f17e62e616b13d996beb7b1b7cc10075dc71bfe0dc0c6aa02473a2bdede242de4c49510f532064165b996674fe2ec9b32a0f8464e56d4a94",
      "networkId": 0,
      "chainId": 0
    }
  ]
}