{
  "hash": "0xb17e1025fdd408037284915265dd5d22531547636ca8a7ffa6ec92243272dde9",
  "parentHash": "0x0bd8681e4e9b8d484de57842b99fcbef7ccf31dafbd4fd146a74721a8c7253e0",
  "number": 78674,
  "timestamp": 1439457461,
  "nonce": "0xee22b187c271bc4d",
  "difficulty": 2295387229389,
  "gasLimit": {
    "_hex": "0x2fefd8"
  },
  "gasUsed": {
    "_hex": "0x7a61"
  },
  "miner": "0xf8E0CA3Ed80bd541b94BEdCf259e8CF2141A9523",
  "extraData": "0x476574682f76312e302e312f77696e646f77732f676f312e342e32",
  "transactions": [
    {
      "hash": "0x0954dd14dff4c39fd3e16c92c7593d859bdd34edcbe3c50ec36937f7a5f22d5a",
      "blockHash": "0xb17e1025fdd408037284915265dd5d22531547636ca8a7ffa6ec92243272dde9",
      "blockNumber": 78674,
      "transactionIndex": 0,
      "confirmations": null,
      "from": "0x008FC7CBAdFFbD0D7fe44F8DFD60a79d721a1c9C",
      "gasPrice": {
        "_hex": "0xd245ae57f"
      },
      "gasLimit": {
        "_hex": "0x30d40"
      },
      "to": "0x94501FF386c3E84cB8FE37924Daa869151417e55",
      "value": {
        "_hex": "0x16345785d8a0000"
      },
      "nonce": 30,
      "data": "0x",
      "r": "0x90e639689a272ab004979981939e45a79c04359ddb1b1dcb95c2e0b0783e5364",
      "s": "0x282e9c2f0263e7930bcb00c6daf0ef1f25fcd16f490beb5e91d6eacb513a7564",
      "v": 28,
      "creates": null,
      "raw": "0xf86d1e850d245ae57f83030d409494501ff386c3e84cb8fe37924daa869151417e5588016345785d8a0000801ca090e639689a272ab004979981939e45a79c04359ddb1b1dcb95c2e0b0783e5364a0282e9c2f0263e7930bcb00c6daf0ef1f25fcd16f490beb5e91d6eacb513a7564",
      "networkId": 0,
      "chainId": 0
    }
  ]
}