{
  "hash": "0xb0a56a4d1e4201899223438fd790262ae7691385f04949c8bd9fbce5ccc6ae43",
  "parentHash": "0x6d35614a77ad85bc0d9076f15ac1eb79436f749cc7a727aab8c8f2b060dbd71b",
  "number": 94730,
  "timestamp": 1439713294,
  "nonce": "0xf7511835a91648e4",
  "difficulty": 3476339083586,
  "gasLimit": {
    "_hex": "0x2fefd8"
  },
  "gasUsed": {
    "_hex": "0x23e38"
  },
  "miner": "0x77EC9ad4A7E9418774C29415CAaF4Ee0da96eF64",
  "extraData": "0x",
  "transactions": [
    {
      "hash": "0x141f99cd738d6c7fac9b4d6a6162c5914d3df94c6e6b8864fe0a8f42a4907137",
      "blockHash": "0xb0a56a4d1e4201899223438fd790262ae7691385f04949c8bd9fbce5ccc6ae43",
      "blockNumber": 94730,
      "transactionIndex": 0,
      "confirmations": null,
      "from": "0x022A006FcC619ebf387F413eF06932bAbd47AE0E",
      "gasPrice": {
        "_hex": "0xd4a7a900c"
      },
      "gasLimit": {
        "_hex": "0x5208"
      },
      "to": "0x32Be343B94f860124dC4fEe278FDCBD38C102D88",
      "value": {
        "_hex": "0x12137c9e83e97f000"
      },
      "nonce": 4,
      "data": "0x",
      "r": "0xfcd6d87bf9804f828443d0c3ce9d65d09290fa916bb9cdce01e3e0f40be07709",
      "s": "0x68c9af1ba54a097b35e4f81b6c3b7d75c14c89ea4b3c2599d519667b5e082bc9",
      "v": 28,
      "creates": null,
      "raw": "0xf86d04850d4a7a900c8252089432be343b94f860124dc4fee278fdcbd38c102d8889012137c9e83e97f000801ca0fcd6d87bf9804f828443d0c3ce9d65d09290fa916bb9cdce01e3e0f40be07709a068c9af1ba54a097b35e4f81b6c3b7d75c14c89ea4b3c2599d519667b5e082bc9",
      "networkId": 0,
      "chainId": 0
    },
    {
      "hash": "0xbeca78ccf18d57a72eb5e434943a342ed25834d1ac7d5cc3a1a26759bba3a107",
      "blockHash": "0xb0a56a4d1e4201899223438fd790262ae7691385f04949c8bd9fbce5ccc6ae43",
      "blockNumber": 94730,
      "transactionIndex": 1,
      "confirmations": null,
      "from": "0x94b20d3d932AA82aD71b86b904A3D769689351b4",
      "gasPrice": {
        "_hex": "0xd4a7a900c"
      },
      "gasLimit": {
        "_hex": "0x5208"
      },
      "to": "0x32Be343B94f860124dC4fEe278FDCBD38C102D88",
      "value": {
        "_hex": "0xcf26fabe40901000"
      },
      "nonce": 4,
      "data": "0x",
      "r": "0x672695bf8de6584dd77dcfdab30a2afbd180bfd2293c235c578318616db41196",
      "s": "0x2b37bdff92241b4bd72512195f523cedd2603aa9b3df0f52a933568602b12259",
      "v": 28,
      "creates": null,
      "raw": "0xf86c04850d4a7a900c8252089432be343b94f860124dc4fee278fdcbd38c102d8888cf26fabe40901000801ca0672695bf8de6584dd77dcfdab30a2afbd180bfd2293c235c578318616db41196a02b37bdff92241b4bd72512195f523cedd2603aa9b3df0f52a933568602b12259",
      "networkId": 0,
      "chainId": 0
    },
    {
      "hash": "0x0b4b2194df89f98d02f1f659c4e13f56f127fc8748e8be079eeb6d647e55f2a9",
      "blockHash": "0xb0a56a4d1e4201899223438fd790262ae7691385f04949c8bd9fbce5ccc6ae43",
      "blockNumber": 94730,
      "transactionIndex": 2,
      "confirmations": null,
      "from": "0x1d06b86EBBfD6bA717B6d14c0136dE1D88aa5989",
      "gasPrice": {
        "_hex": "0xd4a7a900c"
      },
      "gasLimit": {
        "_hex": "0x5208"
      },
      "to": "0x32Be343B94f860124dC4fEe278FDCBD38C102D88",
      "value": {
        "_hex": "0x1764d6834f208800"
      },
      "nonce": 4,
      "data": "0x",
      "r": "0x1754a4a8b2984de561f84cdda184022b40ee37634f3b88efa32d3a27ed15c3ff",
      "s": "0x220217fb1fd7795f0a882e74310ff18eaabd39809d73ed3dbdbb1e7316ffbf04",
      "v": 27,
      "creates": null,
      "raw": "0xf86c04850d4a7a900c8252089432be343b94f860124dc4fee278fdcbd38c102d88881764d6834f208800801ba01754a4a8b2984de561f84cdda184022b40ee37634f3b88efa32d3a27ed15c3ffa0220217fb1fd7795f0a882e74310ff18eaabd39809d73ed3dbdbb1e7316ffbf04",
      "networkId": 0,
      "chainId": 0
    },
    {
      "hash": "0x00bdd664292be37a9e52cfac9f57694b49b312deb256ec3da98f17d5b369da01",
      "blockHash": "0xb0a56a4d1e4201899223438fd790262ae7691385f04949c8bd9fbce5ccc6ae43",
      "blockNumber": 94730,
      "transactionIndex": 3,
      "confirmations": null,
      "from": "0x629e35e0A481d821293F354E0dD27E43a354D061",
      "gasPrice": {
        "_hex": "0xd4a7a900c"
      },
      "gasLimit": {
        "_hex": "0x5208"
      },
      "to": "0x32Be343B94f860124dC4fEe278FDCBD38C102D88",
      "value": {
        "_hex": "0x6e6f7f6c5e2a9400"
      },
      "nonce": 4,
      "data": "0x",
      "r": "0x8e50a792d74623b5c2d30161287cd1e086423e20068e2d678b6c37e3151a34bc",
      "s": "0x6c57d62dd614439110d19ae55fef4c5a4abd183be07e7e67c25417f2e4d59a67",
      "v": 27,
      "creates": null,
      "raw": "0xf86c04850d4a7a900c8252089432be343b94f860124dc4fee278fdcbd38c102d88886e6f7f6c5e2a9400801ba08e50a792d74623b5c2d30161287cd1e086423e20068e2d678b6c37e3151a34bca06c57d62dd614439110d19ae55fef4c5a4abd183be07e7e67c25417f2e4d59a67",
      "networkId": 0,
      "chainId": 0
    },
    {
      "hash": "0x0c13dfe98fdd6f0171c58304de790b24c13e2bfbe8302526821d252ac7a886dd",
      "blockHash": "0xb0a56a4d1e4201899223438fd790262ae7691385f04949c8bd9fbce5ccc6ae43",
      "blockNumber": 94730,
      "transactionIndex": 4,
      "confirmations": null,
      "from": "0x68d3578bFBeEFB9C1e31cE355A29ad3a107F88C5",
      "gasPrice": {
        "_hex": "0xd4a7a900c"
      },
      "gasLimit": {
        "_hex": "0x5208"
      },
      "to": "0x32Be343B94f860124dC4fEe278FDCBD38C102D88",
      "value": {
        "_hex": "0x248060ad579ec000"
      },
      "nonce": 4,
      "data": "0x",
      "r": "0x48eefa8769a24344123fd3e5abb2f08b8ef7e6f13603dac57d81b288239cdf65",
      "s": "0x7e15da8437988d2baa8c99b6e34ef334fb736ac61b594e9e387b378a4318f2ae",
      "v": 28,
      "creates": null,
      "raw": "0xf86c04850d4a7a900c8252089432be343b94f860124dc4fee278fdcbd38c102d8888248060ad579ec000801ca048eefa8769a24344123fd3e5abb2f08b8ef7e6f13603dac57d81b288239cdf65a07e15da8437988d2baa8c99b6e34ef334fb736ac61b594e9e387b378a4318f2ae",
      "networkId": 0,
      "chainId": 0
    },
    {
      "hash": "0x186bd7debc4687c6c32228469ce405d619ccf78d6ad19954f91afb0c20af04e8",
      "blockHash": "0xb0a56a4d1e4201899223438fd790262ae7691385f04949c8bd9fbce5ccc6ae43",
      "blockNumber": 94730,
      "transactionIndex": 5,
      "confirmations": null,
      "from": "0xFAc1B5968b6CC27786d1A28c3E360B8c421569B9",
      "gasPrice": {
        "_hex": "0xd4a7a900c"
      },
      "gasLimit": {
        "_hex": "0x5208"
      },
      "to": "0x32Be343B94f860124dC4fEe278FDCBD38C102D88",
      "value": {
        "_hex": "0x2f2d29f1479e3400"
      },
      "nonce": 5,
      "data": "0x",
      "r": "0x7856cfd524c5dd32fd145240bcd44a66fb6879b3c9c49ff61304c5e9c152f30a",
      "s": "0x2901d67c7e4404e4acee65242c85f1de5caf9c41546cd48ad9b6a19c56e7f28e",
      "v": 28,
      "creates": null,
      "raw": "0xf86c05850d4a7a900c8252089432be343b94f860124dc4fee278fdcbd38c102d88882f2d29f1479e3400801ca07856cfd524c5dd32fd145240bcd44a66fb6879b3c9c49ff61304c5e9c152f30aa02901d67c7e4404e4acee65242c85f1de5caf9c41546cd48ad9b6a19c56e7f28e",
      "networkId": 0,
      "chainId": 0
    },
    {
      "hash": "0xeecdb8f8b244a91e2be43f72a3cef9153229670235cf47a71075dae25bd5cca6",
      "blockHash": "0xb0a56a4d1e4201899223438fd790262ae7691385f04949c8bd9fbce5ccc6ae43",
      "blockNumber": 94730,
      "transactionIndex": 6,
      "confirmations": null,
      "from": "0x6F2a83BC1c1846bf84ffC43B8776f1AA4a9F890F",
      "gasPrice": {
        "_hex": "0xd215c9d33"
      },
      "gasLimit": {
        "_hex": "0x15f90"
      },
      "to": "0x01Ad0ACFf478127D9d702B1A13599D706cB759b1",
      "value": {
        "_hex": "0x38d7ea4c68000"
      },
      "nonce": 0,
      "data": "0x",
      "r": "0xb571f9068af0a245fb4bd8bcd65cc1f473c3e0e6bba0229d658ba1af3fd7f8f9",
      "s": "0x0aa8195db48cd4c1b803c713f5fd2886c96a0ddb2b162f6891398940a70325a0",
      "v": 28,
      "creates": null,
      "raw": "0xf86c80850d215c9d3383015f909401ad0acff478127d9d702b1a13599d706cb759b187038d7ea4c68000801ca0b571f9068af0a245fb4bd8bcd65cc1f473c3e0e6bba0229d658ba1af3fd7f8f9a00aa8195db48cd4c1b803c713f5fd2886c96a0ddb2b162f6891398940a70325a0",
      "networkId": 0,
      "chainId": 0
    }
  ]
}