{
  "hash": "0x07c39d1db16113ef1def03b11e91766fe51e656e87c03e86464490da7f29c6ed",
  "parentHash": "0x4c93bcdc9782742372c81e79162263de8fbe4ec5b05373d652589e89d6355cc5",
  "number": 112505,
  "timestamp": 1440008529,
  "nonce": "0xb34350b95a35ea88",
  "difficulty": 4413126885474,
  "gasLimit": {
    "_hex": "0x2fefd8"
  },
  "gasUsed": {
    "_hex": "0xa410"
  },
  "miner": "0xe6A7a1d47ff21B6321162AEA7C6CB457D5476Bca",
  "extraData": "0x476574682f76312e302e312d38326566323666362f6c696e75782f676f312e34",
  "transactions": [
    {
      "hash": "0xe43ea8714d384384f73ed91528b657d0f52d113c6a05c629754027f39310b56c",
      "blockHash": "0x07c39d1db16113ef1def03b11e91766fe51e656e87c03e86464490da7f29c6ed",
      "blockNumber": 112505,
      "transactionIndex": 0,
      "confirmations": null,
      "from": "0x2910543Af39abA0Cd09dBb2D50200b3E800A63D2",
      "gasPrice": {
        "_hex": "0xd8c052b82"
      },
      "gasLimit": {
        "_hex": "0x5208"
      },
      "to": "0x3661DBe9bd90565ca9100771bF1E91690f99C6c5",
      "value": {
        "_hex": "0xd8d60a7f83fc78000"
      },
      "nonce": 1108,
      "data": "0x",
      "r": "0x8ca0e4d04aa1cba5ad5652b63ff17768fa681587f015766c8a557710170d83d1",
      "s": "0x5b79dd5d20405c5bdd7ab68c1a249f9e732ef1b3959537465f0c4311956101e3",
      "v": 28,
      "creates": null,
      "raw": "0xf86f820454850d8c052b82825208943661dbe9bd90565ca9100771bf1e91690f99c6c5890d8d60a7f83fc78000801ca08ca0e4d04aa1cba5ad5652b63ff17768fa681587f015766c8a557710170d83d1a05b79dd5d20405c5bdd7ab68c1a249f9e732ef1b3959537465f0c4311956101e3",
      "networkId": 0,
      "chainId": 0
    },
    {
      "hash": "0x07b9fb2c7419492d2c27b83587d7995db8e7f271e87809fa17925750f0217a2b",
      "blockHash": "0x07c39d1db16113ef1def03b11e91766fe51e656e87c03e86464490da7f29c6ed",
      "blockNumber": 112505,
      "transactionIndex": 1,
      "confirmations": null,
      "from": "0xa9f5E7bf6Cbf6fEc55B30850Eb492b47A376d050",
      "gasPrice": {
        "_hex": "0xcb495d758"
      },
      "gasLimit": {
        "_hex": "0x5208"
      },
      "to": "0x32Be343B94f860124dC4fEe278FDCBD38C102D88",
      "value": {
        "_hex": "0x8d6104d835c010000"
      },
      "nonce": 28,
      "data": "0x",
      "r": "0x87e64647a577392b6af516b748b6f7de5502beba149e51525b1c7d3dea9dc5fa",
      "s": "0x1163024fc2a8951d8d14b52cbd812d2504f6c370db51f2a16cf9381c85ef7942",
      "v": 27,
      "creates": null,
      "raw": "0xf86d1c850cb495d7588252089432be343b94f860124dc4fee278fdcbd38c102d888908d6104d835c010000801ba087e64647a577392b6af516b748b6f7de5502beba149e51525b1c7d3dea9dc5faa01163024fc2a8951d8d14b52cbd812d2504f6c370db51f2a16cf9381c85ef7942",
      "networkId": 0,
      "chainId": 0
    }
  ]
}