{
  "hash": "0x5b55cbb9f0716b9ffee98ae2c40abf87bde6e3bb991a6ea7ab6de785bc69618e",
  "parentHash": "0x2b51c016aee046d3347ab01bdc6ff19ff28fab01081149b9a35fc3a9cad1a10e",
  "number": 121123,
  "timestamp": 1440171897,
  "nonce": "0x6da7af096e6f8694",
  "difficulty": 4399993270981,
  "gasLimit": {
    "_hex": "0x2fefd8"
  },
  "gasUsed": {
    "_hex": "0xa674"
  },
  "miner": "0x790b8a3cE86E707ED0eD32bF89B3269692a23CC1",
  "extraData": "0xd783010002844765746887676f312e342e32856c696e7578",
  "transactions": [
    {
      "hash": "0x97310292f73251027ef968c2bc6a51695391d492820b696ed5f86a6e93a80a11",
      "blockHash": "0x5b55cbb9f0716b9ffee98ae2c40abf87bde6e3bb991a6ea7ab6de785bc69618e",
      "blockNumber": 121123,
      "transactionIndex": 0,
      "confirmations": null,
      "from": "0x24Fd9A6C874c2faB3Ff36e9AFBF8CE0d32c7DE92",
      "gasPrice": {
        "_hex": "0x110c8f7d8de"
      },
      "gasLimit": {
        "_hex": "0xc350"
      },
      "to": "0x2910543Af39abA0Cd09dBb2D50200b3E800A63D2",
      "value": {
        "_hex": "0xb1a2bc2ec500000"
      },
      "nonce": 5,
      "data": "0x454e505a3357575638",
      "r": "0xe4b4e51d531f787034be81a2e058901bb58573992837cefe3d2859e9107aba5b",
      "s": "0xa2c1743197d57d98bb435cc79da31b6677af674348d6b1f14d2630f7b7bbab95",
      "v": 27,
      "creates": null,
      "raw": "0xf87605860110c8f7d8de82c350942910543af39aba0cd09dbb2d50200b3e800a63d2880b1a2bc2ec50000089454e505a33575756381ba0e4b4e51d531f787034be81a2e058901bb58573992837cefe3d2859e9107aba5ba0a2c1743197d57d98bb435cc79da31b6677af674348d6b1f14d2630f7b7bbab95",
      "networkId": 0,
      "chainId": 0
    },
    {
      "hash": "0x57f103591f6959e20ab9aec66f2597eed0e2ba322317c5764f503eff67a6d7be",
      "blockHash": "0x5b55cbb9f0716b9ffee98ae2c40abf87bde6e3bb991a6ea7ab6de785bc69618e",
      "blockNumber": 121123,
      "transactionIndex": 1,
      "confirmations": null,
      "from": "0x608f4b86321a68453f9adf6F06F7Fc3E621739ad",
      "gasPrice": {
        "_hex": "0xba43b7400"
      },
      "gasLimit": {
        "_hex": "0x5208"
      },
      "to": "0x32Be343B94f860124dC4fEe278FDCBD38C102D88",
      "value": {
        "_hex": "0x478af3162a180000"
      },
      "nonce": 93,
      "data": "0x",
      "r": "0x692278d0a74f407454e00ec1cec195fbe435806fddceb23b8775b6502f80aa38",
      "s": "0x1d0fa81e17ed4dc2c3073b27e7496ab0ffad733606228499af2ee59cf837f433",
      "v": 27,
      "creates": null,
      "raw": "0xf86c5d850ba43b74008252089432be343b94f860124dc4fee278fdcbd38c102d8888478af3162a180000801ba0692278d0a74f407454e00ec1cec195fbe435806fddceb23b8775b6502f80aa38a01d0fa81e17ed4dc2c3073b27e7496ab0ffad733606228499af2ee59cf837f433",
      "networkId": 0,
      "chainId": 0
    }
  ]
}