{
  "hash": "0x0b8f048b8c85301d216cf6a31f2656748f277218387aba76ab40583667c6a60b",
  "parentHash": "0x901ca2aa5197a2c249348d786e22b611de342fb4d101f323f48513811424a5b1",
  "number": 105019,
  "timestamp": 1439880234,
  "nonce": "0xcd289c4c302c795e",
  "difficulty": 4314745668350,
  "gasLimit": {
    "_hex": "0x2fefd8"
  },
  "gasUsed": {
    "_hex": "0x5d9f"
  },
  "miner": "0xe6A7a1d47ff21B6321162AEA7C6CB457D5476Bca",
  "extraData": "0x476574682f76312e302e312d38326566323666362f6c696e75782f676f312e34",
  "transactions": [
    {
      "hash": "0xaccea54383785ef414bcdaa080d77b289686be15de7210ff728607a26844c0e2",
      "blockHash": "0x0b8f048b8c85301d216cf6a31f2656748f277218387aba76ab40583667c6a60b",
      "blockNumber": 105019,
      "transactionIndex": 0,
      "confirmations": null,
      "from": "0x888285790B0b6Cc7FDE84EDdd77A1b2B29089a99",
      "gasPrice": {
        "_hex": "0xcf1236893"
      },
      "gasLimit": {
        "_hex": "0x15f90"
      },
      "to": "0xAd8d3a5d2d92EB14bB56CA9f380be35b8EFE0c04",
      "value": {
        "_hex": "0x55de6a779bbac0000"
      },
      "nonce": 4,
      "data": "0xb214faa54141414141484a48430000000000000000000000000000000000000000000000",
      "r": "0x5102fb8f7ea1b945d3225e451bbb8b192d31e6473dc7db3ba75ef85240e80445",
      "s": "0x525bb9ae61307403da65cde1dd03a766ce211d1e1c253ff9e2dcde019f3bb596",
      "v": 28,
      "creates": null,
      "raw": "0xf89204850cf123689383015f9094ad8d3a5d2d92eb14bb56ca9f380be35b8efe0c0489055de6a779bbac0000a4b214faa54141414141484a484300000000000000000000000000000000000000000000001ca05102fb8f7ea1b945d3225e451bbb8b192d31e6473dc7db3ba75ef85240e80445a0525bb9ae61307403da65cde1dd03a766ce211d1e1c253ff9e2dcde019f3bb596",
      "networkId": 0,
      "chainId": 0
    }
  ]
}