{
  "hash": "0x2f87b8a941cee24c9797a6d532e35d6c232f3a5d460073b2a20461e86b0cfbce",
  "parentHash": "0x63bfc2c2343f94c45a63c83adc2575003ef8f553058f33f486f7f138105bd637",
  "number": 92396,
  "timestamp": 1439671302,
  "nonce": "0x4a7ab14819be9fc4",
  "difficulty": 3521733361344,
  "gasLimit": {
    "_hex": "0x2fefd8"
  },
  "gasUsed": {
    "_hex": "0xa410"
  },
  "miner": "0x88D74a59454F6cF3B51ef6b9136AFb6b9D405A88",
  "extraData": "0x476574682f76312e302e312d37666266393930632f6c696e75782f676f312e34",
  "transactions": [
    {
      "hash": "0x35ce3572cf32236d3cd74132c6ff3058470557163cf9b32057b2dc0fc344132d",
      "blockHash": "0x2f87b8a941cee24c9797a6d532e35d6c232f3a5d460073b2a20461e86b0cfbce",
      "blockNumber": 92396,
      "transactionIndex": 0,
      "confirmations": null,
      "from": "0xD2e57181beE0BF25a2E7D377EaCCec854Bd65334",
      "gasPrice": {
        "_hex": "0xd59e0753e"
      },
      "gasLimit": {
        "_hex": "0x5208"
      },
      "to": "0x32Be343B94f860124dC4fEe278FDCBD38C102D88",
      "value": {
        "_hex": "0x1b1ae099e0a2300000"
      },
      "nonce": 7,
      "data": "0x",
      "r": "0x9cbbf1688c359b94ac543dcab889ff8f718a0107d17968c02843692f20ed0c7e",
      "s": "0x707ea5d63672497ccd2175f6d707f8082c2d49671706e797aa03aac96f6568b5",
      "v": 28,
      "creates": null,
      "raw": "0xf86d07850d59e0753e8252089432be343b94f860124dc4fee278fdcbd38c102d88891b1ae099e0a2300000801ca09cbbf1688c359b94ac543dcab889ff8f718a0107d17968c02843692f20ed0c7ea0707ea5d63672497ccd2175f6d707f8082c2d49671706e797aa03aac96f6568b5",
      "networkId": 0,
      "chainId": 0
    },
    {
      "hash": "0x92eaeaead9194085d72c2b63a41c830873d85e92b303ca5c027a2b237ae9dec5",
      "blockHash": "0x2f87b8a941cee24c9797a6d532e35d6c232f3a5d460073b2a20461e86b0cfbce",
      "blockNumber": 92396,
      "transactionIndex": 1,
      "confirmations": null,
      "from": "0xa6BDc31c431B8F97848c9D60cbbe9660dc450eB7",
      "gasPrice": {
        "_hex": "0xd3873302e"
      },
      "gasLimit": {
        "_hex": "0x5208"
      },
      "to": "0x32Be343B94f860124dC4fEe278FDCBD38C102D88",
      "value": {
        "_hex": "0x455f5504ae79fc00"
      },
      "nonce": 99,
      "data": "0x",
      "r": "0x9b2ae74ba6044b134e541b33616c4d84037789f6955b5dad494e477c695f8042",
      "s": "0x1a2be183876421763de8a4bc4282057f91f7400267f1ca7405536c57bef0a2fa",
      "v": 28,
      "creates": null,
      "raw": "0xf86c63850d3873302e8252089432be343b94f860124dc4fee278fdcbd38c102d8888455f5504ae79fc00801ca09b2ae74ba6044b134e541b33616c4d84037789f6955b5dad494e477c695f8042a01a2be183876421763de8a4bc4282057f91f7400267f1ca7405536c57bef0a2fa",
      "networkId": 0,
      "chainId": 0
    }
  ]
}