{
  "hash": "0x9e78bdae500e80097c8835a73fffbb73ff0905affe4af572f4824ac97b7d662a",
  "parentHash": "0x41a20558d791924760286cfc2a2699ff002db7bf564d89454107dec43f229b07",
  "number": 67393,
  "timestamp": 1439271315,
  "nonce": "0xe700d81a5b760849",
  "difficulty": 1921386621239,
  "gasLimit": {
    "_hex": "0x2fefd8"
  },
  "gasUsed": {
    "_hex": "0xa410"
  },
  "miner": "0x47ff6576639c2e94762eA5443978D7681C0E78DC",
  "extraData": "0x476574682f76312e302e312f6c696e75782f676f312e342e32",
  "transactions": [
    {
      "hash": "0x511fc4f7c9c184750d6fb0ebc38065c3157ca93ee3a5fa826d6d91b935fe3816",
      "blockHash": "0x9e78bdae500e80097c8835a73fffbb73ff0905affe4af572f4824ac97b7d662a",
      "blockNumber": 67393,
      "transactionIndex": 0,
      "confirmations": null,
      "from": "0xC25f24A505b8fEF751D8f4FCc397651001F7a160",
      "gasPrice": {
        "_hex": "0xcfd8267f1"
      },
      "gasLimit": {
        "_hex": "0x5208"
      },
      "to": "0x32Be343B94f860124dC4fEe278FDCBD38C102D88",
      "value": {
        "_hex": "0x453be0f3cf25ec00"
      },
      "nonce": 10,
      "data": "0x",
      "r": "0x4941f407d9e9ec1e744ddcc61be51488d060174c982d4e938cde8d680d6af4b0",
      "s": "0x5d05352f8e280b4a131c5e95ba7b2f9f5b2cc2e8304ef42f6e6be1b64ace0d2a",
      "v": 27,
      "creates": null,
      "raw": "0xf86c0a850cfd8267f18252089432be343b94f860124dc4fee278fdcbd38c102d8888453be0f3cf25ec00801ba04941f407d9e9ec1e744ddcc61be51488d060174c982d4e938cde8d680d6af4b0a05d05352f8e280b4a131c5e95ba7b2f9f5b2cc2e8304ef42f6e6be1b64ace0d2a",
      "networkId": 0,
      "chainId": 0
    },
    {
      "hash": "0xda1ea8ac5db9b4c82e1a861b54b6a40a88d111e18bc29507e080334faf6795b6",
      "blockHash": "0x9e78bdae500e80097c8835a73fffbb73ff0905affe4af572f4824ac97b7d662a",
      "blockNumber": 67393,
      "transactionIndex": 1,
      "confirmations": null,
      "from": "0xAD063CE182014Fa78C3932981fE402a6Af48235B",
      "gasPrice": {
        "_hex": "0xcfd8267f1"
      },
      "gasLimit": {
        "_hex": "0x5208"
      },
      "to": "0x32Be343B94f860124dC4fEe278FDCBD38C102D88",
      "value": {
        "_hex": "0x43cbea95d18adc00"
      },
      "nonce": 2,
      "data": "0x",
      "r": "0xc325069298d69110c8e80446c9981c7d1c659f47169910f8fbf649334065d20f",
      "s": "0x7e52e19e3275124dedb9a9dd3c356a8fd551098326f691ee50ac363618bdcd29",
      "v": 27,
      "creates": null,
      "raw": "0xf86c02850cfd8267f18252089432be343b94f860124dc4fee278fdcbd38c102d888843cbea95d18adc00801ba0c325069298d69110c8e80446c9981c7d1c659f47169910f8fbf649334065d20fa07e52e19e3275124dedb9a9dd3c356a8fd551098326f691ee50ac363618bdcd29",
      "networkId": 0,
      "chainId": 0
    }
  ]
}