{
  "hash": "0x2c7fb45c10ab4e2f439225806e66d41beb9a5f63e4b7c998d9594a3b37d870d9",
  "parentHash": "0x16ee2f5588c1345861d8df74b6470b09af4af38ae73e20b698de07b277bf446f",
  "number": 84690,
  "timestamp": 1439553237,
  "nonce": "0x111781792e28d63b",
  "difficulty": 2611872027818,
  "gasLimit": {
    "_hex": "0x2fefd8"
  },
  "gasUsed": {
    "_hex": "0xf618"
  },
  "miner": "0x26E3f7C9e444f2Ca9E0BE2aF841bd060cF1CbDDb",
  "extraData": "0x476574682f76312e302e312f6c696e75782f676f312e342e32",
  "transactions": [
    {
      "hash": "0x1df544c8c03d7c1677c8e8812fa476fd2f601fba640486467dcb96429e3b8df4",
      "blockHash": "0x2c7fb45c10ab4e2f439225806e66d41beb9a5f63e4b7c998d9594a3b37d870d9",
      "blockNumber": 84690,
      "transactionIndex": 0,
      "confirmations": null,
      "from": "0x458F183347F45a4001807728A89F31E9Da9D4A58",
      "gasPrice": {
        "_hex": "0xd7d40ace3"
      },
      "gasLimit": {
        "_hex": "0x15f90"
      },
      "to": "0x1D3ffA437e5bce40fCC134f4E0ac62841E4A9E81",
      "value": {
        "_hex": "0x4af0a763bb1c0000"
      },
      "nonce": 19,
      "data": "0x",
      "r": "0x03e16f440de11b8b411c18f3c13ab4778436a28474ec3fd6ff7d9c764ddb5371",
      "s": "0x339ab1fbb710c16c9fb8de7e5c3a0e8977a72079b8ed5e3f31dc34115f78babc",
      "v": 28,
      "creates": null,
      "raw": "0xf86d13850d7d40ace383015f90941d3ffa437e5bce40fcc134f4e0ac62841e4a9e81884af0a763bb1c0000801ca003e16f440de11b8b411c18f3c13ab4778436a28474ec3fd6ff7d9c764ddb5371a0339ab1fbb710c16c9fb8de7e5c3a0e8977a72079b8ed5e3f31dc34115f78babc",
      "networkId": 0,
      "chainId": 0
    },
    {
      "hash": "0xf0c1c9f17a54aa20493233fc08f71750d10c962122d533fbb3f43aa9eadc9f1f",
      "blockHash": "0x2c7fb45c10ab4e2f439225806e66d41beb9a5f63e4b7c998d9594a3b37d870d9",
      "blockNumber": 84690,
      "transactionIndex": 1,
      "confirmations": null,
      "from": "0x2910543Af39abA0Cd09dBb2D50200b3E800A63D2",
      "gasPrice": {
        "_hex": "0xd34f59449"
      },
      "gasLimit": {
        "_hex": "0x5208"
      },
      "to": "0xD05f85Eb920117eeBBf13dd94FeEA60e9eB34537",
      "value": {
        "_hex": "0xa8911b95c12d8000"
      },
      "nonce": 568,
      "data": "0x",
      "r": "0x348f0b7c75f0f38229087e6d0bf28e0da687473dd1c8a780faf44912eaa0da14",
      "s": "0x76b50741368b06fef46844b1f480e5481e51929733037f2698a8a42af72744d4",
      "v": 28,
      "creates": null,
      "raw": "0xf86e820238850d34f5944982520894d05f85eb920117eebbf13dd94feea60e9eb3453788a8911b95c12d8000801ca0348f0b7c75f0f38229087e6d0bf28e0da687473dd1c8a780faf44912eaa0da14a076b50741368b06fef46844b1f480e5481e51929733037f2698a8a42af72744d4",
      "networkId": 0,
      "chainId": 0
    },
    {
      "hash": "0xe79af597635ef28eaa3136e9f4ad5f3f3f51fb7ecbf9e969b85c4346ecbb9b1f",
      "blockHash": "0x2c7fb45c10ab4e2f439225806e66d41beb9a5f63e4b7c998d9594a3b37d870d9",
      "blockNumber": 84690,
      "transactionIndex": 2,
      "confirmations": null,
      "from": "0x6bA20db629F46Fa525F5080d151B714a758dDff2",
      "gasPrice": {
        "_hex": "0xd00f99059"
      },
      "gasLimit": {
        "_hex": "0x15f90"
      },
      "to": "0x23f2D0fd3B4C98Fb1698564deB4898275E2e831f",
      "value": {
        "_hex": "0xde0b6b3a7640000"
      },
      "nonce": 0,
      "data": "0x",
      "r": "0x072987c51fe5309a4dcffcd22ec3f105b985a0918723bba6eabe949bcd47df17",
      "s": "0x43614250715aaf03c2bbce30c0ce49c1bd4b1b788e0beab2b065709e2b281423",
      "v": 28,
      "creates": null,
      "raw": "0xf86d80850d00f9905983015f909423f2d0fd3b4c98fb1698564deb4898275e2e831f880de0b6b3a7640000801ca0072987c51fe5309a4dcffcd22ec3f105b985a0918723bba6eabe949bcd47df17a043614250715aaf03c2bbce30c0ce49c1bd4b1b788e0beab2b065709e2b281423",
      "networkId": 0,
      "chainId": 0
    }
  ]
}