{
  "hash": "0xab3ecf4ec4dcc49cc3de74ab249dacb53382dfca2f6e671526f4fc027ef71046",
  "parentHash": "0x9283d172b1f93663c4c173fc017d78850d81ca30149c6f2cb441ba33ca2b10c3",
  "number": 62180,
  "timestamp": 1439184527,
  "nonce": "0xb9d27a47e6e1dd74",
  "difficulty": 1770300000929,
  "gasLimit": {
    "_hex": "0x2fefd8"
  },
  "gasUsed": {
    "_hex": "0x546c"
  },
  "miner": "0x00eBA8Ef4fF9B21Ec2FFF273953fDCC81f6fE7da",
  "extraData": "0x476574682f76312e302e312f6c696e75782f676f312e342e32",
  "transactions": [
    {
      "hash": "0x69c393f8fd8c9fdc53cc91c6376837aa83f8164c7769d3ce411cacafead9819d",
      "blockHash": "0xab3ecf4ec4dcc49cc3de74ab249dacb53382dfca2f6e671526f4fc027ef71046",
      "blockNumber": 62180,
      "transactionIndex": 0,
      "confirmations": null,
      "from": "0x47219229E8cD56659a65c2a943E2DD9A8f4Bfd89",
      "gasPrice": {
        "_hex": "0x110c8f7d8de"
      },
      "gasLimit": {
        "_hex": "0xc350"
      },
      "to": "0x2910543Af39abA0Cd09dBb2D50200b3E800A63D2",
      "value": {
        "_hex": "0x29bc8242e51d3e0000"
      },
      "nonce": 1,
      "data": "0x454e59504257313138",
      "r": "0xc2151c98298e3438e6f1c713e65fe40edbcdf2652693183c6ebb2d7c3cb194c1",
      "s": "0x7191c933371daf146e138bbecb41e2835a30c7bc9c47725d43db5f22b54459e8",
      "v": 27,
      "creates": null,
      "raw": "0xf87701860110c8f7d8de82c350942910543af39aba0cd09dbb2d50200b3e800a63d28929bc8242e51d3e000089454e595042573131381ba0c2151c98298e3438e6f1c713e65fe40edbcdf2652693183c6ebb2d7c3cb194c1a07191c933371daf146e138bbecb41e2835a30c7bc9c47725d43db5f22b54459e8",
      "networkId": 0,
      "chainId": 0
    }
  ]
}