{
  "hash": "0x088acb6451037b7657fd3ffc57ccc72d75d8910eb601a5788983a117db8188a9",
  "parentHash": "0x4a8860c0378f057c38bb5caf0653d87ea98cad964289203454325d0af50a0ce1",
  "number": 105455,
  "timestamp": 1439887925,
  "nonce": "0x8df9e3d81e4e45f1",
  "difficulty": 4391033112962,
  "gasLimit": {
    "_hex": "0x2fefd8"
  },
  "gasUsed": {
    "_hex": "0xa410"
  },
  "miner": "0xe6A7a1d47ff21B6321162AEA7C6CB457D5476Bca",
  "extraData": "0x476574682f76312e302e312d38326566323666362f6c696e75782f676f312e34",
  "transactions": [
    {
      "hash": "0xece2dde931acd025eef73824cc6e16e01ef44641865e9602e41025aafe4606a4",
      "blockHash": "0x088acb6451037b7657fd3ffc57ccc72d75d8910eb601a5788983a117db8188a9",
      "blockNumber": 105455,
      "transactionIndex": 0,
      "confirmations": null,
      "from": "0xB28fE7b9815982FF203F751ce550111D752d8795",
      "gasPrice": {
        "_hex": "0xd90fea0e6"
      },
      "gasLimit": {
        "_hex": "0x5208"
      },
      "to": "0x32Be343B94f860124dC4fEe278FDCBD38C102D88",
      "value": {
        "_hex": "0x4b5b3bd88627e0000"
      },
      "nonce": 4,
      "data": "0x",
      "r": "0x2a18e6263a5e71262eb9c3b721ce2547ef2a1df1d7d58ce0b4ea474e32cf6e53",
      "s": "0x7a26c8429af41b67c4e3cf43eaba9fd581a277db2a69680b229c026e2152b970",
      "v": 28,
      "creates": null,
      "raw": "0xf86d04850d90fea0e68252089432be343b94f860124dc4fee278fdcbd38c102d888904b5b3bd88627e0000801ca02a18e6263a5e71262eb9c3b721ce2547ef2a1df1d7d58ce0b4ea474e32cf6e53a07a26c8429af41b67c4e3cf43eaba9fd581a277db2a69680b229c026e2152b970",
      "networkId": 0,
      "chainId": 0
    },
    {
      "hash": "0x459b6cbcd08ad73ccd34fd075371fb6e7abb0900bc5ff6d7ea7897504d765359",
      "blockHash": "0x088acb6451037b7657fd3ffc57ccc72d75d8910eb601a5788983a117db8188a9",
      "blockNumber": 105455,
      "transactionIndex": 1,
      "confirmations": null,
      "from": "0xc3DBDB3Efa722db2a3F6041b0ca0042782296ba9",
      "gasPrice": {
        "_hex": "0xd4a5e1e67"
      },
      "gasLimit": {
        "_hex": "0x15f90"
      },
      "to": "0x92857A8BC0A6F66180324f49541C695A3a0Ff944",
      "value": {
        "_hex": "0x1bc16d674ec800000"
      },
      "nonce": 7,
      "data": "0x",
      "r": "0x573ecec8e352a0c9cea30930e1e95e7e3495e9b5b3edc5105f1a02ba3b59cfdf",
      "s": "0x7dc587a197370393c5319b8b3720d148298c08af8de17a9050cc6902e576ceaf",
      "v": 28,
      "creates": null,
      "raw": "0xf86e07850d4a5e1e6783015f909492857a8bc0a6f66180324f49541c695a3a0ff9448901bc16d674ec800000801ca0573ecec8e352a0c9cea30930e1e95e7e3495e9b5b3edc5105f1a02ba3b59cfdfa07dc587a197370393c5319b8b3720d148298c08af8de17a9050cc6902e576ceaf",
      "networkId": 0,
      "chainId": 0
    }
  ]
}