{
  "hash": "0xb397c462db8eb1cd6dac30da7fde0ffb9e710747232ff395add592971b93f812",
  "parentHash": "0xcceb74438f45f51a4d2658d9862947888e54da121531e88456c18b36f57babc0",
  "number": 103098,
  "timestamp": 1439847653,
  "nonce": "0x73d93f3603a66db3",
  "difficulty": 4176829793771,
  "gasLimit": {
    "_hex": "0x2fefd8"
  },
  "gasUsed": {
    "_hex": "0x5208"
  },
  "miner": "0xbb7B8287f3F0a933474a79eAe42CBCa977791171",
  "extraData": "0x476574682f4c5649562f76312e302e312f6c696e75782f676f312e342e32",
  "transactions": [
    {
      "hash": "0x830a171509f34f4cefd74ad15bed552337e8c5b17fbbd06fb05a6a3fd03ccc11",
      "blockHash": "0xb397c462db8eb1cd6dac30da7fde0ffb9e710747232ff395add592971b93f812",
      "blockNumber": 103098,
      "transactionIndex": 0,
      "confirmations": null,
      "from": "0x007f7f58D3eb5b7510A301eCC749FC1fCDDBE14D",
      "gasPrice": {
        "_hex": "0xe0cfe7246"
      },
      "gasLimit": {
        "_hex": "0x15f90"
      },
      "to": "0xb1abce2918E21ddb93AA452731a12672A3d9F75a",
      "value": {
        "_hex": "0x4563918244f40000"
      },
      "nonce": 219,
      "data": "0x",
      "r": "0x53766604be68e217ae57e1710e092cb442db02bfacf2db94d1483ed61058edeb",
      "s": "0x390c0f080c16e1a42ca4cdc99487dcde965f04c87b20b31dddc7215fdb08173a",
      "v": 28,
      "creates": null,
      "raw": "0xf86e81db850e0cfe724683015f9094b1abce2918e21ddb93aa452731a12672a3d9f75a884563918244f40000801ca053766604be68e217ae57e1710e092cb442db02bfacf2db94d1483ed61058edeba0390c0f080c16e1a42ca4cdc99487dcde965f04c87b20b31dddc7215fdb08173a",
      "networkId": 0,
      "chainId": 0
    }
  ]
}