{
  "hash": "0x6939d505d598c87e9e73235a62cca12a09709f86ecd403199763534d57717851",
  "parentHash": "0x17fd83b03d0647193215cfd53c646303728d5bcfa65347c0a82406ac21c1d6ea",
  "number": 48846,
  "timestamp": 1438963928,
  "nonce": "0x5d54a3d0ff1621c2",
  "difficulty": 1481494013130,
  "gasLimit": {
    "_hex": "0x1f5ea"
  },
  "gasUsed": {
    "_hex": "0x5208"
  },
  "miner": "0xdd2F1e6e498202e86D8f5442Af596580A4f03c2C",
  "extraData": "0x476574682f76312e302e312d38326566323666362f6c696e75782f676f312e34",
  "transactions": [
    {
      "hash": "0xc1845693a99267e81a3b16c6a1e34a13052c0df0720576cc61ee548696e620d6",
      "blockHash": "0x6939d505d598c87e9e73235a62cca12a09709f86ecd403199763534d57717851",
      "blockNumber": 48846,
      "transactionIndex": 0,
      "confirmations": null,
      "from": "0x96EA6Ac89A2bac95347B51DBa63D8bd5ebDedce1",
      "gasPrice": {
        "_hex": "0xccaa1da71"
      },
      "gasLimit": {
        "_hex": "0x15f90"
      },
      "to": "0x96EA6Ac89A2bac95347B51DBa63D8bd5ebDedce1",
      "value": {
        "_hex": "0xde0b6b3a7640000"
      },
      "nonce": 0,
      "data": "0x",
      "r": "0x146fc8a4970fdab06bd8eff3a86ca894be01230a03bdaa0cdf1ed0e176c312a7",
      "s": "0x52ceeaf42890f03f5eca37a82b86855426fb4c83097abd386b68246cf8659ab8",
      "v": 28,
      "creates": null,
      "raw": "0xf86d80850ccaa1da7183015f909496ea6ac89a2bac95347b51dba63d8bd5ebdedce1880de0b6b3a7640000801ca0146fc8a4970fdab06bd8eff3a86ca894be01230a03bdaa0cdf1ed0e176c312a7a052ceeaf42890f03f5eca37a82b86855426fb4c83097abd386b68246cf8659ab8",
      "networkId": 0,
      "chainId": 0
    }
  ]
}