{
  "hash": "0x4f2eb749fbb0562f610d88be511de84643691a3ba839e1e389fc3ea17adeb9d4",
  "parentHash": "0xa782f6be362ffb871545dff8185566678a99121bba3fc065d95b5e330c65ea05",
  "number": 62224,
  "timestamp": 1439185118,
  "nonce": "0x963732aac5cc7092",
  "difficulty": 1777219437865,
  "gasLimit": {
    "_hex": "0x2fefd8"
  },
  "gasUsed": {
    "_hex": "0x5208"
  },
  "miner": "0x88D74a59454F6cF3B51ef6b9136AFb6b9D405A88",
  "extraData": "0x476574682f76312e302e312d37666266393930632f6c696e75782f676f312e34",
  "transactions": [
    {
      "hash": "0x190a6d258bfd885c336255a0712cc753176d1e8f5016c4ca383789a31b65bd1f",
      "blockHash": "0x4f2eb749fbb0562f610d88be511de84643691a3ba839e1e389fc3ea17adeb9d4",
      "blockNumber": 62224,
      "transactionIndex": 0,
      "confirmations": null,
      "from": "0x32Be343B94f860124dC4fEe278FDCBD38C102D88",
      "gasPrice": {
        "_hex": "0xde5153b96"
      },
      "gasLimit": {
        "_hex": "0x5208"
      },
      "to": "0xF8FFFdCB6b8B88372B6aE42257f66D93E5189AC9",
      "value": {
        "_hex": "0x2086ac351052600000"
      },
      "nonce": 147,
      "data": "0x",
      "r": "0xdc091c7bc765c1d59cf7c72ddf2c0c0cc6c8ba4626e90daed0cb2dca2f43f367",
      "s": "0x57d273a543acf9484f4f9f1ea0a109b12f36c6c23457f848a37cddbe4ac1a84f",
      "v": 28,
      "creates": null,
      "raw": "0xf86e8193850de5153b9682520894f8fffdcb6b8b88372b6ae42257f66d93e5189ac9892086ac351052600000801ca0dc091c7bc765c1d59cf7c72ddf2c0c0cc6c8ba4626e90daed0cb2dca2f43f367a057d273a543acf9484f4f9f1ea0a109b12f36c6c23457f848a37cddbe4ac1a84f",
      "networkId": 0,
      "chainId": 0
    }
  ]
}