{
  "hash": "0x3334ee230bafabf099c726d1808351a78b6647e24d328345a71f4dad1ea02b40",
  "parentHash": "0xafe68a18f1e241cfbd0bbd82299ef964adcec888ba6c91da4dc70c01300818d7",
  "number": 66202,
  "timestamp": 1439250514,
  "nonce": "0x27682193a326367a",
  "difficulty": 1943362211789,
  "gasLimit": {
    "_hex": "0x2fefd5"
  },
  "gasUsed": {
    "_hex": "0x5208"
  },
  "miner": "0xe3002160DEbB2936e6ca494ed36F28056ed7aEfd",
  "extraData": "0x",
  "transactions": [
    {
      "hash": "0x27ea1228ce86d52bbdf3fe53ac6c411207ea44fa08b9012ac69ceac64e5095c9",
      "blockHash": "0x3334ee230bafabf099c726d1808351a78b6647e24d328345a71f4dad1ea02b40",
      "blockNumber": 66202,
      "transactionIndex": 0,
      "confirmations": null,
      "from": "0x32Be343B94f860124dC4fEe278FDCBD38C102D88",
      "gasPrice": {
        "_hex": "0xdc92f014f"
      },
      "gasLimit": {
        "_hex": "0x5208"
      },
      "to": "0x47232bEc0fEE0DBcA00D2Ce155C263503Daa9297",
      "value": {
        "_hex": "0x11e5dfb6b5eadc0000"
      },
      "nonce": 194,
      "data": "0x",
      "r": "0xb0a921f22152cb1743fca3a1926b77936f198a56febc407658592454f36ec25b",
      "s": "0x7c9edc13e99f3d01c820ec56159e0b4b973e68d95d3a6df86ae3ef3613cfd129",
      "v": 28,
      "creates": null,
      "raw": "0xf86e81c2850dc92f014f8252089447232bec0fee0dbca00d2ce155c263503daa92978911e5dfb6b5eadc0000801ca0b0a921f22152cb1743fca3a1926b77936f198a56febc407658592454f36ec25ba07c9edc13e99f3d01c820ec56159e0b4b973e68d95d3a6df86ae3ef3613cfd129",
      "networkId": 0,
      "chainId": 0
    }
  ]
}