{
  "hash": "0xd2ffb76500ffebd7d27affd19a7d49c684eeaf6895bdc19d7c9f43933fd21319",
  "parentHash": "0x024e1dfe274de4e4ec9c7251f73fee0b5ba2324a7b1fc6172987bf640baafe32",
  "number": 65196,
  "timestamp": 1439232715,
  "nonce": "0x6bb4842299e95203",
  "difficulty": 1951202300081,
  "gasLimit": {
    "_hex": "0x2fefd5"
  },
  "gasUsed": {
    "_hex": "0x17cd8"
  },
  "miner": "0x0eDEd3DA479d0beF8eeC92A76644D3f4E3C177f7",
  "extraData": "0x476574682f76312e302e312f6c696e75782f676f312e342e32",
  "transactions": [
    {
      "hash": "0xe6875200b6616005269b17bf7db2671bc75fbf3291c4af15f37dbeede67d5e12",
      "blockHash": "0xd2ffb76500ffebd7d27affd19a7d49c684eeaf6895bdc19d7c9f43933fd21319",
      "blockNumber": 65196,
      "transactionIndex": 0,
      "confirmations": null,
      "from": "0xcc67eEA4682EaEd9Ca1F9072344BAb9b04fcE7C7",
      "gasPrice": {
        "_hex": "0xba43b7400"
      },
      "gasLimit": {
        "_hex": "0x15f90"
      },
      "to": "0x793AE8C1b1a160BFc07BFB0d04F85eab1A71F4f2",
      "value": {
        "_hex": "0x0"
      },
      "nonce": 0,
      "data": "0x3ba15036",
      "r": "0xdf4619405d1439c5ddf591211c1068b49678600533f9d41ea2d50e088be83f72",
      "s": "0x66d613460db71d8fa452cedb8407258e0c7dd9db1ceed502e24f8f90d0c76bc5",
      "v": 28,
      "creates": null,
      "raw": "0xf86980850ba43b740083015f9094793ae8c1b1a160bfc07bfb0d04f85eab1a71f4f280843ba150361ca0df4619405d1439c5ddf591211c1068b49678600533f9d41ea2d50e088be83f72a066d613460db71d8fa452cedb8407258e0c7dd9db1ceed502e24f8f90d0c76bc5",
      "networkId": 0,
      "chainId": 0
    },
    {
      "hash": "0xa1c4895915327506e12303665fb4643ca8447a27095897993c44090a5b0bce9f",
      "blockHash": "0xd2ffb76500ffebd7d27affd19a7d49c684eeaf6895bdc19d7c9f43933fd21319",
      "blockNumber": 65196,
      "transactionIndex": 1,
      "confirmations": null,
      "from": "0x85dCcd991cF318E021F6BeB5FD552D34Cd291DAf",
      "gasPrice": {
        "_hex": "0xba43b7400"
      },
      "gasLimit": {
        "_hex": "0x15f90"
      },
      "to": "0x793AE8C1b1a160BFc07BFB0d04F85eab1A71F4f2",
      "value": {
        "_hex": "0x0"
      },
      "nonce": 0,
      "data": "0x3ba15036",
      "r": "0x57752d0962e7f582570450403f60832232617a719c19894ffd57746309a25f29",
      "s": "0x728b9a61f663ee60e2c67d8010109f13a5e151c0281734366dd49a9abebc6fe5",
      "v": 27,
      "creates": null,
      "raw": "0xf86980850ba43b740083015f9094793ae8c1b1a160bfc07bfb0d04f85eab1a71f4f280843ba150361ba057752d0962e7f582570450403f60832232617a719c19894ffd57746309a25f29a0728b9a61f663ee60e2c67d8010109f13a5e151c0281734366dd49a9abebc6fe5",
      "networkId": 0,
      "chainId": 0
    }
  ]
}