{
  "hash": "0xcf375c0697e6db0a1b2ae041b673377f66baf03ea361fb056d1eb11569232211",
  "parentHash": "0x824c85073da0094f4bb1e7b9557ff41e70bb5b3c57e3bbd760a28cb18fd3bd8a",
  "number": 109733,
  "timestamp": 1439961541,
  "nonce": "0x9586046624a213cb",
  "difficulty": 4449209461704,
  "gasLimit": {
    "_hex": "0x2fefd8"
  },
  "gasUsed": {
    "_hex": "0x5208"
  },
  "miner": "0x580992B51e3925e23280EfB93d3047C82f17E038",
  "extraData": "0x476574682f76312e302e312f6c696e75782f676f312e342e32",
  "transactions": [
    {
      "hash": "0xdd57fb7b7bf112a176b4ce473b82db2f2aa91daa83c12eb1eb8c778be141203a",
      "blockHash": "0xcf375c0697e6db0a1b2ae041b673377f66baf03ea361fb056d1eb11569232211",
      "blockNumber": 109733,
      "transactionIndex": 0,
      "confirmations": null,
      "from": "0x120A270bbC009644e35F0bB6ab13f95b8199c4ad",
      "gasPrice": {
        "_hex": "0xcd55585ad"
      },
      "gasLimit": {
        "_hex": "0x3d090"
      },
      "to": "0x612a19AB7c9B986099e2CD38f06b48Ec08A4B6fe",
      "value": {
        "_hex": "0x21eeb91a39df9400"
      },
      "nonce": 864,
      "data": "0x",
      "r": "0xcbbc51c0548b283c3d97d935bff49ba077c3339b439fd2ad91f8bb459ad01d30",
      "s": "0x02ee736beab0ff6d3885a42b31ef2f2412143ca4124d825bfb5536f76ac79aac",
      "v": 28,
      "creates": null,
      "raw": "0xf86f820360850cd55585ad8303d09094612a19ab7c9b986099e2cd38f06b48ec08a4b6fe8821eeb91a39df9400801ca0cbbc51c0548b283c3d97d935bff49ba077c3339b439fd2ad91f8bb459ad01d30a002ee736beab0ff6d3885a42b31ef2f2412143ca4124d825bfb5536f76ac79aac",
      "networkId": 0,
      "chainId": 0
    }
  ]
}