{
  "hash": "0x4ea98108fce3c0a0c7b5f62d19f5779772e4758b30fea99a022e8d3de2f8c33a",
  "parentHash": "0x9285ff2090dd0f3469cd7fcb8572a14b0fdf60ada8cbbd4c33ab5a1df98f03d0",
  "number": 78865,
  "timestamp": 1439460684,
  "nonce": "0x2441a2ab951a0c84",
  "difficulty": 2285270175548,
  "gasLimit": {
    "_hex": "0x2fefd8"
  },
  "gasUsed": {
    "_hex": "0x532d"
  },
  "miner": "0x01d9DA08cc6Fb97c0DE1B6F4C28910A0859Ed1A1",
  "extraData": "0x476574682f76312e302e312f6c696e75782f676f312e342e32",
  "transactions": [
    {
      "hash": "0x509420b852061836dec6d3607f6791fed738f464a5fbd0eeb5c2f1d670d3d3dd",
      "blockHash": "0x4ea98108fce3c0a0c7b5f62d19f5779772e4758b30fea99a022e8d3de2f8c33a",
      "blockNumber": 78865,
      "transactionIndex": 0,
      "confirmations": null,
      "from": "0x008FC7CBAdFFbD0D7fe44F8DFD60a79d721a1c9C",
      "gasPrice": {
        "_hex": "0xdacca909b"
      },
      "gasLimit": {
        "_hex": "0x30d40"
      },
      "to": "0xbedd8FF329DCdde43744C467724a4b4778c2C4A3",
      "value": {
        "_hex": "0xb1a2bc2ec50000"
      },
      "nonce": 33,
      "data": "0x",
      "r": "0x1c71c690546d8bd5f7f6e2bed835489aebdd5ef1b63e2f83368d7435b2902fa5",
      "s": "0x386d46e7084b90be216ca43fd2f3b80ab3c8fa2f52d8bc9b0c5acc32dbda4167",
      "v": 28,
      "creates": null,
      "raw": "0xf86c21850dacca909b83030d4094bedd8ff329dcdde43744c467724a4b4778c2c4a387b1a2bc2ec50000801ca01c71c690546d8bd5f7f6e2bed835489aebdd5ef1b63e2f83368d7435b2902fa5a0386d46e7084b90be216ca43fd2f3b80ab3c8fa2f52d8bc9b0c5acc32dbda4167",
      "networkId": 0,
      "chainId": 0
    }
  ]
}