{
  "hash": "0xae687c9de36c09106a82f02efff5ec3ae1576f9aea79600ac3c0638b3cf0ce11",
  "parentHash": "0x49d76de25e689ef4e82bdf6e82b263c3e7120393d302ce66e49f52a2e724904b",
  "number": 89102,
  "timestamp": 1439618216,
  "nonce": "0x5bff4767bd084164",
  "difficulty": 3267910067844,
  "gasLimit": {
    "_hex": "0x2fefd8"
  },
  "gasUsed": {
    "_hex": "0x5208"
  },
  "miner": "0x790b8a3cE86E707ED0eD32bF89B3269692a23CC1",
  "extraData": "0xd783010001844765746887676f312e342e32856c696e7578",
  "transactions": [
    {
      "hash": "0x5bcdb3c4cf7e6566fd69d4a58c22184197a3005312d1543ffebddd7de8905f50",
      "blockHash": "0xae687c9de36c09106a82f02efff5ec3ae1576f9aea79600ac3c0638b3cf0ce11",
      "blockNumber": 89102,
      "transactionIndex": 0,
      "confirmations": null,
      "from": "0xc15fa6D616245a5c7B7D75A6dFDcA10C0250BD2B",
      "gasPrice": {
        "_hex": "0xd01f01bb5"
      },
      "gasLimit": {
        "_hex": "0x15f90"
      },
      "to": "0xdeE4977F74E6Aef6D627191c9A45D2627e331150",
      "value": {
        "_hex": "0x1d7d843dc3b480000"
      },
      "nonce": 4,
      "data": "0x",
      "r": "0xa115aa16fe444ed63629c82094f66ab28832a49d4fb511420a5bac0f6e24a0fb",
      "s": "0x5cb0bc5c0e5c80df0998b9b806ae7e72017bf4edbf19d8c02e5c7e7c0030d2da",
      "v": 28,
      "creates": null,
      "raw": "0xf86e04850d01f01bb583015f9094dee4977f74e6aef6d627191c9a45d2627e3311508901d7d843dc3b480000801ca0a115aa16fe444ed63629c82094f66ab28832a49d4fb511420a5bac0f6e24a0fba05cb0bc5c0e5c80df0998b9b806ae7e72017bf4edbf19d8c02e5c7e7c0030d2da",
      "networkId": 0,
      "chainId": 0
    }
  ]
}