{
  "hash": "0xbdf7ac64a54c7e7c3be3e35a06535ae4673340db27e0b8637224c458c196bff1",
  "parentHash": "0x08868b4ad4387b9f34dae023889234c60e7728fd65f5c2b0d88442274bafb68b",
  "number": 76621,
  "timestamp": 1439423448,
  "nonce": "0xc10440451f50138f",
  "difficulty": 2246051162414,
  "gasLimit": {
    "_hex": "0x2fefd5"
  },
  "gasUsed": {
    "_hex": "0x5208"
  },
  "miner": "0xeB1325C8D9d3ea8D74aC11F4B00F1B2367686319",
  "extraData": "0x476574682f76312e302e312f77696e646f77732f676f312e342e32",
  "transactions": [
    {
      "hash": "0x47d42e41b2e89942ff194fd65bd1befb6c7619c04fd1e6754e816ec54d9807c1",
      "blockHash": "0xbdf7ac64a54c7e7c3be3e35a06535ae4673340db27e0b8637224c458c196bff1",
      "blockNumber": 76621,
      "transactionIndex": 0,
      "confirmations": null,
      "from": "0x2910543Af39abA0Cd09dBb2D50200b3E800A63D2",
      "gasPrice": {
        "_hex": "0xcdb84b8c1"
      },
      "gasLimit": {
        "_hex": "0x5208"
      },
      "to": "0xc38185BE927092366De6B1976dC3b460D6ADf241",
      "value": {
        "_hex": "0x841966811f60b5e000"
      },
      "nonce": 329,
      "data": "0x",
      "r": "0x26f6a9db4956bd5235c0ec0a823302c60fed153c3be687615618340eaa7ba953",
      "s": "0x75b5e4f172cf2e0c41a47baa45484199b25c4fac55eda71d3af650eaaa9685f8",
      "v": 28,
      "creates": null,
      "raw": "0xf86f820149850cdb84b8c182520894c38185be927092366de6b1976dc3b460d6adf24189841966811f60b5e000801ca026f6a9db4956bd5235c0ec0a823302c60fed153c3be687615618340eaa7ba953a075b5e4f172cf2e0c41a47baa45484199b25c4fac55eda71d3af650eaaa9685f8",
      "networkId": 0,
      "chainId": 0
    }
  ]
}