{
  "hash": "0xa00ab1060cd21f9a015883aaa03ac6a95b9e90be12693ed281082e7683e7b50d",
  "parentHash": "0x038b003ea96b7a7cd4e3d0e3c0e01babb5bc6e71b7fd30d541209427cf5ee0b0",
  "number": 81077,
  "timestamp": 1439495796,
  "nonce": "0xf3d43f99276bdd1b",
  "difficulty": 2434392241670,
  "gasLimit": {
    "_hex": "0x2fefd8"
  },
  "gasUsed": {
    "_hex": "0x5208"
  },
  "miner": "0xeB1325C8D9d3ea8D74aC11F4B00F1B2367686319",
  "extraData": "0x476574682f76312e302e312f77696e646f77732f676f312e342e32",
  "transactions": [
    {
      "hash": "0x7a988d4604d72b25f03a73de7d9d372a7fe44d847b12e41b57fdb14a409bd108",
      "blockHash": "0xa00ab1060cd21f9a015883aaa03ac6a95b9e90be12693ed281082e7683e7b50d",
      "blockNumber": 81077,
      "transactionIndex": 0,
      "confirmations": null,
      "from": "0x123843545FB525C8E134c9A5F15ADA6865cc3848",
      "gasPrice": {
        "_hex": "0xd41f0bebe"
      },
      "gasLimit": {
        "_hex": "0x7530"
      },
      "to": "0xa9f5E7bf6Cbf6fEc55B30850Eb492b47A376d050",
      "value": {
        "_hex": "0xee86442fcd06c0000"
      },
      "nonce": 9,
      "data": "0x",
      "r": "0x9104f81b52151b797152a568006f55519a939ddc293dc2ba39e1283809882174",
      "s": "0x4b74d7da03bd72df29577c7abe39a44d3eb3c0b69f07256c249f07e19cd50f23",
      "v": 28,
      "creates": null,
      "raw": "0xf86d09850d41f0bebe82753094a9f5e7bf6cbf6fec55b30850eb492b47a376d050890ee86442fcd06c0000801ca09104f81b52151b797152a568006f55519a939ddc293dc2ba39e1283809882174a04b74d7da03bd72df29577c7abe39a44d3eb3c0b69f07256c249f07e19cd50f23",
      "networkId": 0,
      "chainId": 0
    }
  ]
}