{
  "hash": "0xee5eab50e1d40d3e906c15053415bfccb0df2e6c5b33600ee4483e0838a2f0fe",
  "parentHash": "0x75b37664b13b2bb58639e8a52366eaebc1f2a43d9786c890a5f0f8c65f04fb5c",
  "number": 68582,
  "timestamp": 1439290335,
  "nonce": "0x66457bc3fb171673",
  "difficulty": 2016261857995,
  "gasLimit": {
    "_hex": "0x2fefd8"
  },
  "gasUsed": {
    "_hex": "0x1a4ed"
  },
  "miner": "0x31995C46B15C84523cDEE26f49A681b8237e43F5",
  "extraData": "0x476574682f76312e302e312f77696e646f77732f676f312e342e32",
  "transactions": [
    {
      "hash": "0xce94ae6987b64ba2f85a7fc2c3e90c5f6e67680608227734941f6f087d9b3834",
      "blockHash": "0xee5eab50e1d40d3e906c15053415bfccb0df2e6c5b33600ee4483e0838a2f0fe",
      "blockNumber": 68582,
      "transactionIndex": 0,
      "confirmations": null,
      "from": "0xd268fB48FA174088a25a120aFF0fd8eb0C2d4c87",
      "gasPrice": {
        "_hex": "0x14885a4552"
      },
      "gasLimit": {
        "_hex": "0x1e36d"
      },
      "to": "0xeDf619865C8303E591Ad2c4B373AAe82997B337a",
      "value": {
        "_hex": "0x0"
      },
      "nonce": 7,
      "data": "0xb61d27f600000000000000000000000045f4054e7384d9c4b5be63d3927d9b7d18781fdc0000000000000000000000000000000000000000000000000ff59ee833b30000000000000000000000000000000000000000000000000000000000000000006000000000000000000000000000000000000000000000000000000000000000000000000000000000000000000000000000000000000000000000000000000000",
      "r": "0xc49ba9b8cb568aaa241248c9b41678c534d3442c95915aaa09ee650e218ef669",
      "s": "0x182a0a785056449c87b5184169ab485d63d550e6622f71770f8e2cfdfacb3cb1",
      "v": 28,
      "creates": null,
      "raw": "0xf9010a078514885a45528301e36d94edf619865c8303e591ad2c4b373aae82997b337a80b8a4b61d27f600000000000000000000000045f4054e7384d9c4b5be63d3927d9b7d18781fdc0000000000000000000000000000000000000000000000000ff59ee833b300000000000000000000000000000000000000000000000000000000000000000060000000000000000000000000000000000000000000000000000000000000000000000000000000000000000000000000000000000000000000000000000000001ca0c49ba9b8cb568aaa241248c9b41678c534d3442c95915aaa09ee650e218ef669a0182a0a785056449c87b5184169ab485d63d550e6622f71770f8e2cfdfacb3cb1",
      "networkId": 0,
      "chainId": 0
    },
    {
      "hash": "0xc17c1e0d289d854cd65bfd5c51e097b5de178b72d0600404b14c04fce0929a91",
      "blockHash": "0xee5eab50e1d40d3e906c15053415bfccb0df2e6c5b33600ee4483e0838a2f0fe",
      "blockNumber": 68582,
      "transactionIndex": 1,
      "confirmations": null,
      "from": "0x903F53d3304cE48eaf57e0A1699b66e9642A0b31",
      "gasPrice": {
        "_hex": "0xba43b7400"
      },
      "gasLimit": {
        "_hex": "0x5208"
      },
      "to": "0x973C8931b03E5Cd01bee81F6777cC0A7F0cd3b31",
      "value": {
        "_hex": "0xc1c23435b07000"
      },
      "nonce": 1,
      "data": "0x",
      "r": "0x51d76f41593739d995a17a7ded50eca119066f0c9c8cdae26b4c690c9756f39f",
      "s": "0x0b8c472cfb4da1999cad24945cccf1f835d4ff894bb1358b05ad7bb8f1ea8af3",
      "v": 28,
      "creates": null,
      "raw": "0xf86b01850ba43b740082520894973c8931b03e5cd01bee81f6777cc0a7f0cd3b3187c1c23435b07000801ca051d76f41593739d995a17a7ded50eca119066f0c9c8cdae26b4c690c9756f39fa00b8c472cfb4da1999cad24945cccf1f835d4ff894bb1358b05ad7bb8f1ea8af3",
      "networkId": 0,
      "chainId": 0
    },
    {
      "hash": "0x91bf739a1874ee454c7f52156c026fc71898fe11783f307bd4a93f3b7f84dd2e",
      "blockHash": "0xee5eab50e1d40d3e906c15053415bfccb0df2e6c5b33600ee4483e0838a2f0fe",
      "blockNumber": 68582,
      "transactionIndex": 2,
      "confirmations": null,
      "from": "0x996Ac856a6eb5460E7fE501519e74B3f3CF00483",
      "gasPrice": {
        "_hex": "0xba43b7400"
      },
      "gasLimit": {
        "_hex": "0x5208"
      },
      "to": "0xF3806c5a5cA7217a11c8D352729f6674916F3e8a",
      "value": {
        "_hex": "0xc1c23435b07000"
      },
      "nonce": 1,
      "data": "0x",
      "r": "0x6deb814d865b1e61204615c754960fbac40fedcb3172255a1231335eac5540ea",
      "s": "0x1be767a757a444ba0a89c76a7de7ed4b0ded58cf45afc85958d79f1acc797251",
      "v": 27,
      "creates": null,
      "raw": "0xf86b01850ba43b740082520894f3806c5a5ca7217a11c8d352729f6674916f3e8a87c1c23435b07000801ba06deb814d865b1e61204615c754960fbac40fedcb3172255a1231335eac5540eaa01be767a757a444ba0a89c76a7de7ed4b0ded58cf45afc85958d79f1acc797251",
      "networkId": 0,
      "chainId": 0
    },
    {
      "hash": "0x2f6214a0593eeaf2338631c4e542baf6e2e660f644166f317c7e9ef8444f80c3",
      "blockHash": "0xee5eab50e1d40d3e906c15053415bfccb0df2e6c5b33600ee4483e0838a2f0fe",
      "blockNumber": 68582,
      "transactionIndex": 3,
      "confirmations": null,
      "from": "0xFA4F525ccb8b486672ee5768cC75a41b9b159B74",
      "gasPrice": {
        "_hex": "0xba43b7400"
      },
      "gasLimit": {
        "_hex": "0x5208"
      },
      "to": "0x0C5eCca86bFA7E743fA6d3eAD22Ba3a06DbcBe67",
      "value": {
        "_hex": "0xc1c23435b07000"
      },
      "nonce": 1,
      "data": "0x",
      "r": "0xb9bd52344184a70aa02f16d2e267cafdc3d93478a11dff10677f3f806e5df0fb",
      "s": "0x448d3f3c36ac3e8b503620f998512de32e22fd70dc452ea0bfabcb4197da0647",
      "v": 27,
      "creates": null,
      "raw": "0xf86b01850ba43b7400825208940c5ecca86bfa7e743fa6d3ead22ba3a06dbcbe6787c1c23435b07000801ba0b9bd52344184a70aa02f16d2e267cafdc3d93478a11dff10677f3f806e5df0fba0448d3f3c36ac3e8b503620f998512de32e22fd70dc452ea0bfabcb4197da0647",
      "networkId": 0,
      "chainId": 0
    },
    {
      "hash": "0x58c6ea3360426833c3cc62919d3d395c7286dca47f6dd5ad4f1ce5f7c296d87e",
      "blockHash": "0xee5eab50e1d40d3e906c15053415bfccb0df2e6c5b33600ee4483e0838a2f0fe",
      "blockNumber": 68582,
      "transactionIndex": 4,
      "confirmations": null,
      "from": "0x64e4869041746d9D55C6D8896fe5750E9faD30f3",
      "gasPrice": {
        "_hex": "0xba43b7400"
      },
      "gasLimit": {
        "_hex": "0x5208"
      },
      "to": "0xa5b6fb08c92C60b70EEA321110F27d7e06B8107d",
      "value": {
        "_hex": "0xc1c23435b07000"
      },
      "nonce": 1,
      "data": "0x",
      "r": "0xafaea70651a035e777fb603d0b5c99e002f40432b7f04cf233188f682d8ed2cc",
      "s": "0x5234ba44fb9fc6eaf5ea8479131ba24b731b81daf45626186eea38b611779fae",
      "v": 28,
      "creates": null,
      "raw": "0xf86b01850ba43b740082520894a5b6fb08c92c60b70eea321110f27d7e06b8107d87c1c23435b07000801ca0afaea70651a035e777fb603d0b5c99e002f40432b7f04cf233188f682d8ed2cca05234ba44fb9fc6eaf5ea8479131ba24b731b81daf45626186eea38b611779fae",
      "networkId": 0,
      "chainId": 0
    }
  ]
}