{
  "hash": "0xdf1fa86660d4a99a15436abc05559f7cb7866d19204ede6119268f8e9e7be32a",
  "parentHash": "0xf99043b7789a0e4b961d47c3706243771de147ea2e50f9f922ea561199027271",
  "number": 46259,
  "timestamp": 1438920102,
  "nonce": "0xb78835a7e49fecec",
  "difficulty": 1461114183488,
  "gasLimit": {
    "_hex": "0x571c"
  },
  "gasUsed": {
    "_hex": "0x5208"
  },
  "miner": "0x9746c7e1ef2bd21FF3997fa467593a89cb852BD0",
  "extraData": "0x476574682f76312e302e312f77696e646f77732f676f312e342e32",
  "transactions": [
    {
      "hash": "0x6a146485f54509d31fc1c692e2e15463ac14e220c8211a58edc3fc4abe4348e6",
      "blockHash": "0xdf1fa86660d4a99a15436abc05559f7cb7866d19204ede6119268f8e9e7be32a",
      "blockNumber": 46259,
      "transactionIndex": 0,
      "confirmations": null,
      "from": "0x03B35D960c861Fe987C50380d76db9D6Ae1fa510",
      "gasPrice": {
        "_hex": "0x21f01e2802"
      },
      "gasLimit": {
        "_hex": "0x5208"
      },
      "to": "0x07dc8c8B927adbEDfa8f5d639b4352351F2F36d2",
      "value": {
        "_hex": "0xde0b6b3a7640000"
      },
      "nonce": 1,
      "data": "0x",
      "r": "0x8bc84594149ac152bdd801a8d62d006bc3d11671d7c04001cb2616104d8947c2",
      "s": "0x16ce1dfd94779e87089b018940ee2a2e5f6cf3a16c99295fdb8b49c800c8cdcf",
      "v": 28,
      "creates": null,
      "raw": "0xf86c018521f01e28028252089407dc8c8b927adbedfa8f5d639b4352351f2f36d2880de0b6b3a7640000801ca08bc84594149ac152bdd801a8d62d006bc3d11671d7c04001cb2616104d8947c2a016ce1dfd94779e87089b018940ee2a2e5f6cf3a16c99295fdb8b49c800c8cdcf",
      "networkId": 0,
      "chainId": 0
    }
  ]
}