{
  "hash": "0x9910cf7d122b1b40f2088b4f0976ecb8b77bef912fcb6d3465e59bb5e0e78251",
  "parentHash": "0x99a2a91994ac808ac93967b53744b82ac17f6613b530063698156c75e9add542",
  "number": 96403,
  "timestamp": 1439739866,
  "nonce": "0x7361db49a53a1f20",
  "difficulty": 3662062133860,
  "gasLimit": {
    "_hex": "0x2fefd8"
  },
  "gasUsed": {
    "_hex": "0x520c"
  },
  "miner": "0xe6A7a1d47ff21B6321162AEA7C6CB457D5476Bca",
  "extraData": "0x476574682f76312e302e312d38326566323666362f6c696e75782f676f312e34",
  "transactions": [
    {
      "hash": "0x839bfd255c3f4c535a99be3db9f7cdf3821e5aabf7a11c6ebe6357c470845bba",
      "blockHash": "0x9910cf7d122b1b40f2088b4f0976ecb8b77bef912fcb6d3465e59bb5e0e78251",
      "blockNumber": 96403,
      "transactionIndex": 0,
      "confirmations": null,
      "from": "0xa28fb61A108456d201f8296eC31Fe1C5D73715D6",
      "gasPrice": {
        "_hex": "0xcffa3f1bf"
      },
      "gasLimit": {
        "_hex": "0x7530"
      },
      "to": "0x68E1B6FbAB2C4f9572Ffda08139D815A9192FA92",
      "value": {
        "_hex": "0x5257a1bb8b1664000"
      },
      "nonce": 0,
      "data": "0x00",
      "r": "0xb662a4546e5d87fd15ea811c322f319d694f36cf220c28a3435c772f38ba93bb",
      "s": "0x4ea0b64f9014d7718a95e67682d7b0156c9a4ded847b1b99a64f5543e4d2ec71",
      "v": 27,
      "creates": null,
      "raw": "0xf86d80850cffa3f1bf8275309468e1b6fbab2c4f9572ffda08139d815a9192fa928905257a1bb8b1664000001ba0b662a4546e5d87fd15ea811c322f319d694f36cf220c28a3435c772f38ba93bba04ea0b64f9014d7718a95e67682d7b0156c9a4ded847b1b99a64f5543e4d2ec71",
      "networkId": 0,
      "chainId": 0
    }
  ]
}