{
  "hash": "0xb7be957b9674db69565efc1b9c01301ea2115d5bcdb8698176d1142dd7892501",
  "parentHash": "0xa73ccdab6d3edf476becc304d68c1c06574cf9466f907356facbd3778826e24b",
  "number": 88067,
  "timestamp": 1439602118,
  "nonce": "0xf18af108938c6393",
  "difficulty": 3197282982712,
  "gasLimit": {
    "_hex": "0x2fefd8"
  },
  "gasUsed": {
    "_hex": "0x5208"
  },
  "miner": "0xe6A7a1d47ff21B6321162AEA7C6CB457D5476Bca",
  "extraData": "0x476574682f76312e302e312d38326566323666362f6c696e75782f676f312e34",
  "transactions": [
    {
      "hash": "0xbc2020faae67821d65fcef831f8a7c5a6915f38c403f4ca5082bfeb80235def4",
      "blockHash": "0xb7be957b9674db69565efc1b9c01301ea2115d5bcdb8698176d1142dd7892501",
      "blockNumber": 88067,
      "transactionIndex": 0,
      "confirmations": null,
      "from": "0xF2d2AfF1320476cb8C6b607199D23175cc595693",
      "gasPrice": {
        "_hex": "0xd422a5256"
      },
      "gasLimit": {
        "_hex": "0x15f90"
      },
      "to": "0xF5EeDc192aB70b08D8354384aD94efD095849E00",
      "value": {
        "_hex": "0x97c9ce4cf6d5c0000"
      },
      "nonce": 44,
      "data": "0x",
      "r": "0x4cc0159be11958fc095e06296b116b2af1cadace4823e8c3a5d596e607865f51",
      "s": "0x736149cf6bec915b93818c79452058e8221df0303f9e6eec450e774f1358305e",
      "v": 27,
      "creates": null,
      "raw": "0xf86e2c850d422a525683015f9094f5eedc192ab70b08d8354384ad94efd095849e0089097c9ce4cf6d5c0000801ba04cc0159be11958fc095e06296b116b2af1cadace4823e8c3a5d596e607865f51a0736149cf6bec915b93818c79452058e8221df0303f9e6eec450e774f1358305e",
      "networkId": 0,
      "chainId": 0
    }
  ]
}