{
  "hash": "0x7b00267d2667a010e048bd1c97c15a643fc0d862d37a2ae5d9e030dd4330cbca",
  "parentHash": "0x66c45f2770fc71e00bff54457d4523b89fad8be185b63fea935a5235179f3e7f",
  "number": 61407,
  "timestamp": 1439172042,
  "nonce": "0xe39de3c4174fad98",
  "difficulty": 1731985633028,
  "gasLimit": {
    "_hex": "0x2fefd8"
  },
  "gasUsed": {
    "_hex": "0x5498"
  },
  "miner": "0xA1623430350C5df1b52B0b57483A5bb45d1796Da",
  "extraData": "0x476574682f76312e302e312d38326566323666362f6c696e75782f676f312e34",
  "transactions": [
    {
      "hash": "0xa2ceac7ff5f3ab64fbf3acba58ac05fd89823857c4a8507bda334a4d3a69ba69",
      "blockHash": "0x7b00267d2667a010e048bd1c97c15a643fc0d862d37a2ae5d9e030dd4330cbca",
      "blockNumber": 61407,
      "transactionIndex": 0,
      "confirmations": null,
      "from": "0xF070bCfeD253b1DDd1989C2Db18B5cD92Df0bDc6",
      "gasPrice": {
        "_hex": "0xcf2b9d7cf"
      },
      "gasLimit": {
        "_hex": "0x15f90"
      },
      "to": "0x0000000000000000000000000000000000000000",
      "value": {
        "_hex": "0x0"
      },
      "nonce": 2,
      "data": "0x432ced04616c656300000000000000000000000000000000000000000000000000000000",
      "r": "0x8c9f9de8f54db34b5d471f2f93cf3c73f615b1ba837bee1a50693b6dc7bb56ac",
      "s": "0x671743353638ddeb6458851164af833b5454fcc0cdcb4ba6307c008389fb7b7c",
      "v": 27,
      "creates": null,
      "raw": "0xf88902850cf2b9d7cf83015f9094000000000000000000000000000000000000000080a4432ced04616c6563000000000000000000000000000000000000000000000000000000001ba08c9f9de8f54db34b5d471f2f93cf3c73f615b1ba837bee1a50693b6dc7bb56aca0671743353638ddeb6458851164af833b5454fcc0cdcb4ba6307c008389fb7b7c",
      "networkId": 0,
      "chainId": 0
    }
  ]
}