{
  "hash": "0x46755e98a1ec855c8c6ca029d3edec1c06875ed6f58f21010c02cd152c77ac6d",
  "parentHash": "0x2d2107e986bd1f93efd25508c47ace4f4a32eb16526780b74553817730dce0e3",
  "number": 98639,
  "timestamp": 1439776682,
  "nonce": "0x9853c32e277337e9",
  "difficulty": 3825561206917,
  "gasLimit": {
    "_hex": "0x2fefd8"
  },
  "gasUsed": {
    "_hex": "0xa410"
  },
  "miner": "0xe6A7a1d47ff21B6321162AEA7C6CB457D5476Bca",
  "extraData": "0x476574682f76312e302e312d38326566323666362f6c696e75782f676f312e34",
  "transactions": [
    {
      "hash": "0x95203f3f8c89c9557f7f511c6535b6a40c58cc6903d0fdbd96ca748e1bce7bbe",
      "blockHash": "0x46755e98a1ec855c8c6ca029d3edec1c06875ed6f58f21010c02cd152c77ac6d",
      "blockNumber": 98639,
      "transactionIndex": 0,
      "confirmations": null,
      "from": "0x120A270bbC009644e35F0bB6ab13f95b8199c4ad",
      "gasPrice": {
        "_hex": "0xe031c6441"
      },
      "gasLimit": {
        "_hex": "0x3d090"
      },
      "to": "0xd687dB72A0d918164C45434ed7d127dB9E2b7e44",
      "value": {
        "_hex": "0x1b596393df6a679c00"
      },
      "nonce": 657,
      "data": "0x",
      "r": "0xfc3988cc9b08296fbe45181f201af0a8b600c0e0d4491a9ee1b846e00fd58b6f",
      "s": "0x1359d7e9ff5eff5c440722694fc4e6ceca014db66303bb2d7a8db5ceee36293d",
      "v": 28,
      "creates": null,
      "raw": "0xf870820291850e031c64418303d09094d687db72a0d918164c45434ed7d127db9e2b7e44891b596393df6a679c00801ca0fc3988cc9b08296fbe45181f201af0a8b600c0e0d4491a9ee1b846e00fd58b6fa01359d7e9ff5eff5c440722694fc4e6ceca014db66303bb2d7a8db5ceee36293d",
      "networkId": 0,
      "chainId": 0
    },
    {
      "hash": "0x0ac45db970e206de3bbd29d92895048a895206625b1f1086d91e4d2ed9360584",
      "blockHash": "0x46755e98a1ec855c8c6ca029d3edec1c06875ed6f58f21010c02cd152c77ac6d",
      "blockNumber": 98639,
      "transactionIndex": 1,
      "confirmations": null,
      "from": "0xd70c667add50d3d9989Ef58A81a698c09f415Bff",
      "gasPrice": {
        "_hex": "0xdaa3be4c8"
      },
      "gasLimit": {
        "_hex": "0x15f90"
      },
      "to": "0x022A006FcC619ebf387F413eF06932bAbd47AE0E",
      "value": {
        "_hex": "0x7068fb1598aa0000"
      },
      "nonce": 12,
      "data": "0x",
      "r": "0xbbebf4a07fa9fae9b291e2ca0db1eb41eea3ceb663b32b64563a93f58c6eeef0",
      "s": "0x39b9a22a3e933f57fe047731fa43215d7adfe856a65d289320598c622621299c",
      "v": 27,
      "creates": null,
      "raw": "0xf86d0c850daa3be4c883015f9094022a006fcc619ebf387f413ef06932babd47ae0e887068fb1598aa0000801ba0bbebf4a07fa9fae9b291e2ca0db1eb41eea3ceb663b32b64563a93f58c6eeef0a039b9a22a3e933f57fe047731fa43215d7adfe856a65d289320598c622621299c",
      "networkId": 0,
      "chainId": 0
    }
  ]
}