{
  "hash": "0xbb29fe5a8c22b960648d39bf3ba56fe3969c04be77e6375320d15c81e20e8ba2",
  "parentHash": "0x4eb557b652f8f384ebc6535793a37a4c975395649b9f14c86decd5ff7924253f",
  "number": 90945,
  "timestamp": 1439647795,
  "nonce": "0xbfe4301816fbad15",
  "difficulty": 3422316555816,
  "gasLimit": {
    "_hex": "0x2fefd8"
  },
  "gasUsed": {
    "_hex": "0x31188"
  },
  "miner": "0xe6A7a1d47ff21B6321162AEA7C6CB457D5476Bca",
  "extraData": "0x476574682f76312e302e312d38326566323666362f6c696e75782f676f312e34",
  "transactions": [
    {
      "hash": "0xd562bea48d79624be907aa4f8a07525898050c59e4b9d1148957428a37cc43ee",
      "blockHash": "0xbb29fe5a8c22b960648d39bf3ba56fe3969c04be77e6375320d15c81e20e8ba2",
      "blockNumber": 90945,
      "transactionIndex": 0,
      "confirmations": null,
      "from": "0x5e0320BB4D82AB8Bb5d7291f2C67D1c99aBb3C05",
      "gasPrice": {
        "_hex": "0xdb3efbe57"
      },
      "gasLimit": {
        "_hex": "0x15f90"
      },
      "to": "0xc4A23A06e6642Fa00989b89575f0b9f783259159",
      "value": {
        "_hex": "0x0"
      },
      "nonce": 7,
      "data": "0x90b98a110000000000000000000000002473aaa3cbf24903c381650ffeb0626abf2f41ee00000000000000000000000000000000000000000000000000000000000003e8",
      "r": "0x72b57871767030f7bce09f58810b7285ac59409cfe945a927b78fe9e72c56c73",
      "s": "0x734276c243e11dd6c3e599c47f2f7f8f083e62b6e3c8de55e32f68c0dd75ef57",
      "v": 28,
      "creates": null,
      "raw": "0xf8aa07850db3efbe5783015f9094c4a23a06e6642fa00989b89575f0b9f78325915980b84490b98a110000000000000000000000002473aaa3cbf24903c381650ffeb0626abf2f41ee00000000000000000000000000000000000000000000000000000000000003e81ca072b57871767030f7bce09f58810b7285ac59409cfe945a927b78fe9e72c56c73a0734276c243e11dd6c3e599c47f2f7f8f083e62b6e3c8de55e32f68c0dd75ef57",
      "networkId": 0,
      "chainId": 0
    },
    {
      "hash": "0xa145771a84305d5c8ce6d46f1099a954710dde70c1121178b368ca602a9b5391",
      "blockHash": "0xbb29fe5a8c22b960648d39bf3ba56fe3969c04be77e6375320d15c81e20e8ba2",
      "blockNumber": 90945,
      "transactionIndex": 1,
      "confirmations": null,
      "from": "0x5e0320BB4D82AB8Bb5d7291f2C67D1c99aBb3C05",
      "gasPrice": {
        "_hex": "0xdb3efbe57"
      },
      "gasLimit": {
        "_hex": "0x15f90"
      },
      "to": "0xc4A23A06e6642Fa00989b89575f0b9f783259159",
      "value": {
        "_hex": "0x0"
      },
      "nonce": 8,
      "data": "0x90b98a110000000000000000000000007f3ea204a19e0905723e65245029916c0070436200000000000000000000000000000000000000000000000000000000000003e8",
      "r": "0xb0ebc0cad2f055be7a22cd9803d3b5d23be803776b10016a2c6ce234a99d588c",
      "s": "0x75c6c740397849bc2afd9867c4e52ce649060988cce5bbb7f960ad9434cc3d67",
      "v": 27,
      "creates": null,
      "raw": "0xf8aa08850db3efbe5783015f9094c4a23a06e6642fa00989b89575f0b9f78325915980b84490b98a110000000000000000000000007f3ea204a19e0905723e65245029916c0070436200000000000000000000000000000000000000000000000000000000000003e81ba0b0ebc0cad2f055be7a22cd9803d3b5d23be803776b10016a2c6ce234a99d588ca075c6c740397849bc2afd9867c4e52ce649060988cce5bbb7f960ad9434cc3d67",
      "networkId": 0,
      "chainId": 0
    },
    {
      "hash": "0xeaf67a98d7d88488f1db9d9f4ee5923b2f53caa82e70cd557d7efedd3d2ead92",
      "blockHash": "0xbb29fe5a8c22b960648d39bf3ba56fe3969c04be77e6375320d15c81e20e8ba2",
      "blockNumber": 90945,
      "transactionIndex": 2,
      "confirmations": null,
      "from": "0x5e0320BB4D82AB8Bb5d7291f2C67D1c99aBb3C05",
      "gasPrice": {
        "_hex": "0xdb3efbe57"
      },
      "gasLimit": {
        "_hex": "0x15f90"
      },
      "to": "0xc4A23A06e6642Fa00989b89575f0b9f783259159",
      "value": {
        "_hex": "0x0"
      },
      "nonce": 9,
      "data": "0x90b98a11000000000000000000000000c9b3116f758dcd531d35fb159ff46f228ff9c00a00000000000000000000000000000000000000000000000000000000000003e8",
      "r": "0x29fee61f48d5a275ce2b5d7ddae00ca0ebbdeec6a4d87b5669f6a6ae328af6b0",
      "s": "0x7863adbb60fa5d15b28c56c0e669a301f4a96c232b3fd933e4b9bc59d8516080",
      "v": 28,
      "creates": null,
      "raw": "0xf8aa09850db3efbe5783015f9094c4a23a06e6642fa00989b89575f0b9f78325915980b84490b98a11000000000000000000000000c9b3116f758dcd531d35fb159ff46f228ff9c00a00000000000000000000000000000000000000000000000000000000000003e81ca029fee61f48d5a275ce2b5d7ddae00ca0ebbdeec6a4d87b5669f6a6ae328af6b0a07863adbb60fa5d15b28c56c0e669a301f4a96c232b3fd933e4b9bc59d8516080",
      "networkId": 0,
      "chainId": 0
    },
    {
      "hash": "0x1650208d72eea9813344fa966f922b41dc619e0dd3ac85b1fdfd61c786303d40",
      "blockHash": "0xbb29fe5a8c22b960648d39bf3ba56fe3969c04be77e6375320d15c81e20e8ba2",
      "blockNumber": 90945,
      "transactionIndex": 3,
      "confirmations": null,
      "from": "0x5e0320BB4D82AB8Bb5d7291f2C67D1c99aBb3C05",
      "gasPrice": {
        "_hex": "0xdb3efbe57"
      },
      "gasLimit": {
        "_hex": "0x15f90"
      },
      "to": "0xc4A23A06e6642Fa00989b89575f0b9f783259159",
      "value": {
        "_hex": "0x0"
      },
      "nonce": 10,
      "data": "0x90b98a110000000000000000000000009ad943e6fdabc3200c3fef05f304cf2142913e2000000000000000000000000000000000000000000000000000000000000003e8",
      "r": "0xb863f5292e3fe4f59432b38445d7694f1b06a7476bba7fd875c99ced74276f08",
      "s": "0x4008831c1c2eab72d82ab02205926c6beb92c0aba1f7c51675bd34cb13d58e16",
      "v": 28,
      "creates": null,
      "raw": "0xf8aa0a850db3efbe5783015f9094c4a23a06e6642fa00989b89575f0b9f78325915980b84490b98a110000000000000000000000009ad943e6fdabc3200c3fef05f304cf2142913e2000000000000000000000000000000000000000000000000000000000000003e81ca0b863f5292e3fe4f59432b38445d7694f1b06a7476bba7fd875c99ced74276f08a04008831c1c2eab72d82ab02205926c6beb92c0aba1f7c51675bd34cb13d58e16",
      "networkId": 0,
      "chainId": 0
    }
  ]
}