{
  "hash": "0x0f8f48b37c822ddbb35d57196b5831808fc61633bdad7f56dc709438913905f3",
  "parentHash": "0x4e588f8c53b50e939244497c72ed0f132df2f025c9a0708f56dd1ce08f57208c",
  "number": 50823,
  "timestamp": 1438995183,
  "nonce": "0x02495f32ac9d75e0",
  "difficulty": 1548441540543,
  "gasLimit": {
    "_hex": "0x7aad7"
  },
  "gasUsed": {
    "_hex": "0xa674"
  },
  "miner": "0xf927a40C8B7F6E07c5af7FA2155B4864a4112B13",
  "extraData": "0x476574682f76312e302e312f6c696e75782f676f312e342e32",
  "transactions": [
    {
      "hash": "0xf1d78fc26f1e3a98393bc566279122e8d09ddf32ae1cf452b74509de26299076",
      "blockHash": "0x0f8f48b37c822ddbb35d57196b5831808fc61633bdad7f56dc709438913905f3",
      "blockNumber": 50823,
      "transactionIndex": 0,
      "confirmations": null,
      "from": "0x9d369165fb70b81A3A765F188FD60CBe5e7b0968",
      "gasPrice": {
        "_hex": "0x110c8f7d8de"
      },
      "gasLimit": {
        "_hex": "0xc350"
      },
      "to": "0x2910543Af39abA0Cd09dBb2D50200b3E800A63D2",
      "value": {
        "_hex": "0x56bc75e2d63100000"
      },
      "nonce": 0,
      "data": "0x454e424255444a5438",
      "r": "0x34ffed8a94d52e933eebdb3b10c99c893315f9605a684e63084b2000b3906786",
      "s": "0x1eb1e1c5e91855e1f85c83dd27da20962a5bd1543a870c7f9bd38ce9e409745b",
      "v": 28,
      "creates": null,
      "raw": "0xf87780860110c8f7d8de82c350942910543af39aba0cd09dbb2d50200b3e800a63d289056bc75e2d6310000089454e424255444a54381ca034ffed8a94d52e933eebdb3b10c99c893315f9605a684e63084b2000b3906786a01eb1e1c5e91855e1f85c83dd27da20962a5bd1543a870c7f9bd38ce9e409745b",
      "networkId": 0,
      "chainId": 0
    },
    {
      "hash": "0x75efe58ebc3412bb3af7f8b39930536e640e9aaff3f4eebc45bdbd192c8cee20",
      "blockHash": "0x0f8f48b37c822ddbb35d57196b5831808fc61633bdad7f56dc709438913905f3",
      "blockNumber": 50823,
      "transactionIndex": 1,
      "confirmations": null,
      "from": "0x3D0768da09CE77d25e2d998E6a7b6eD4b9116c2D",
      "gasPrice": {
        "_hex": "0xdd6432341"
      },
      "gasLimit": {
        "_hex": "0x61a8"
      },
      "to": "0x8dd1564B9F5de977842650A81926AF713963C070",
      "value": {
        "_hex": "0x38d7ea4c68000"
      },
      "nonce": 21,
      "data": "0x",
      "r": "0xa1ebf2f1742b6520e3516edb0528a1a8e30d3ca20b43ff39aec1c7953988f83b",
      "s": "0x6192246b2c45d232df3aaadb0d243b7931a93fcabce6c70504061409b8666955",
      "v": 28,
      "creates": null,
      "raw": "0xf86b15850dd64323418261a8948dd1564b9f5de977842650a81926af713963c07087038d7ea4c68000801ca0a1ebf2f1742b6520e3516edb0528a1a8e30d3ca20b43ff39aec1c7953988f83ba06192246b2c45d232df3aaadb0d243b7931a93fcabce6c70504061409b8666955",
      "networkId": 0,
      "chainId": 0
    }
  ]
}