{
  "hash": "0xbaed51fe4c6f3e4eaa764a9f0a647e600b3b2d1ffc8a4d8ff6b0cee65988b4e0",
  "parentHash": "0xf7240b0cbe384441a64e1541638f4f9cf4c3f0931b691d685b48b8240ab79d20",
  "number": 68159,
  "timestamp": 1439283556,
  "nonce": "0x4dd6f5d991307ba0",
  "difficulty": 1968693006403,
  "gasLimit": {
    "_hex": "0x2fefd8"
  },
  "gasUsed": {
    "_hex": "0x5208"
  },
  "miner": "0x01d9DA08cc6Fb97c0DE1B6F4C28910A0859Ed1A1",
  "extraData": "0x476574682f76312e302e312f6c696e75782f676f312e342e32",
  "transactions": [
    {
      "hash": "0x06fc2e1fce61cc94b02feecd58332d5d26797dd1efb0144f4cfc5e09d49d26fd",
      "blockHash": "0xbaed51fe4c6f3e4eaa764a9f0a647e600b3b2d1ffc8a4d8ff6b0cee65988b4e0",
      "blockNumber": 68159,
      "transactionIndex": 0,
      "confirmations": null,
      "from": "0x85855713597b0d27488465a0aDd62E86975154E1",
      "gasPrice": {
        "_hex": "0xd3d37f23a"
      },
      "gasLimit": {
        "_hex": "0x15f90"
      },
      "to": "0xcc71a3b4707041559d69f774284f47E8272be370",
      "value": {
        "_hex": "0x361f955640060000"
      },
      "nonce": 1,
      "data": "0x",
      "r": "0x4391d98ebf7fc06cbb8e5b4e1c93a9a3459df1be91997d86fce8bcd83eec5557",
      "s": "0x7b6e4ac9710b49e36f9c655986fa5537c92ec5bf80a2c2e23e80cfe0eafbc347",
      "v": 27,
      "creates": null,
      "raw": "0xf86d01850d3d37f23a83015f9094cc71a3b4707041559d69f774284f47e8272be37088361f955640060000801ba04391d98ebf7fc06cbb8e5b4e1c93a9a3459df1be91997d86fce8bcd83eec5557a07b6e4ac9710b49e36f9c655986fa5537c92ec5bf80a2c2e23e80cfe0eafbc347",
      "networkId": 0,
      "chainId": 0
    }
  ]
}