{
  "hash": "0x282276253fce954cf91e90819823ec374e6542d5f49095b556940b44208da7ce",
  "parentHash": "0xb9ca4aeb78076540edb9f99739d03133413548ec1d653eccab53dc7f15802e0f",
  "number": 65259,
  "timestamp": 1439233950,
  "nonce": "0xbbec163c7077bc0a",
  "difficulty": 1938841403116,
  "gasLimit": {
    "_hex": "0x2fefd8"
  },
  "gasUsed": {
    "_hex": "0x17cd8"
  },
  "miner": "0x580992B51e3925e23280EfB93d3047C82f17E038",
  "extraData": "0x476574682f76312e302e312f6c696e75782f676f312e342e32",
  "transactions": [
    {
      "hash": "0x696a7f42ef562cf3ff6b96930112bc6b9e9e5dda172d5effcf2a9eb017981415",
      "blockHash": "0x282276253fce954cf91e90819823ec374e6542d5f49095b556940b44208da7ce",
      "blockNumber": 65259,
      "transactionIndex": 0,
      "confirmations": null,
      "from": "0x84Add079ba323bC47e5179E208D6dfE6FA054e76",
      "gasPrice": {
        "_hex": "0xba43b7400"
      },
      "gasLimit": {
        "_hex": "0x15f90"
      },
      "to": "0x793AE8C1b1a160BFc07BFB0d04F85eab1A71F4f2",
      "value": {
        "_hex": "0x0"
      },
      "nonce": 0,
      "data": "0x3ba15036",
      "r": "0xce20a1f2572002022f0ebe559f54e5c02e396744f548b0b14a9a4c8aac36ed0b",
      "s": "0x78e27a8d797126b84dc9d78dd8d41d8c67fd94160c5f6bef9c2df179e7d54cd6",
      "v": 28,
      "creates": null,
      "raw": "0xf86980850ba43b740083015f9094793ae8c1b1a160bfc07bfb0d04f85eab1a71f4f280843ba150361ca0ce20a1f2572002022f0ebe559f54e5c02e396744f548b0b14a9a4c8aac36ed0ba078e27a8d797126b84dc9d78dd8d41d8c67fd94160c5f6bef9c2df179e7d54cd6",
      "networkId": 0,
      "chainId": 0
    },
    {
      "hash": "0xde046b731e645ddebe95dfe36b75631d960467ffb4012e2ce871addfa78fea02",
      "blockHash": "0x282276253fce954cf91e90819823ec374e6542d5f49095b556940b44208da7ce",
      "blockNumber": 65259,
      "transactionIndex": 1,
      "confirmations": null,
      "from": "0x0250B7Eda2902FB4102b9a2B8Af659A15Fd6d0EE",
      "gasPrice": {
        "_hex": "0xba43b7400"
      },
      "gasLimit": {
        "_hex": "0x15f90"
      },
      "to": "0x793AE8C1b1a160BFc07BFB0d04F85eab1A71F4f2",
      "value": {
        "_hex": "0x0"
      },
      "nonce": 0,
      "data": "0x3ba15036",
      "r": "0x4b0678fd14fe687e4e0a3fc9544c328d155cfffb55b44c442af70e80e9091c63",
      "s": "0x2a635b4043c71e4043f048d03ce62c4e64d4b9f2c548b2c490672cd7ea84088c",
      "v": 27,
      "creates": null,
      "raw": "0xf86980850ba43b740083015f9094793ae8c1b1a160bfc07bfb0d04f85eab1a71f4f280843ba150361ba04b0678fd14fe687e4e0a3fc9544c328d155cfffb55b44c442af70e80e9091c63a02a635b4043c71e4043f048d03ce62c4e64d4b9f2c548b2c490672cd7ea84088c",
      "networkId": 0,
      "chainId": 0
    }
  ]
}