{
  "hash": "0x0c7f7b589dacc3da41acd1058522212d59fe57a08825ffc0ab6e42dea18f5c5b",
  "parentHash": "0xac87b5658af7cc23c6a0fc4c2a7184cbd98d24a59045885d3ba6f2b9ffca2cf2",
  "number": 109583,
  "timestamp": 1439958925,
  "nonce": "0x877a7b8d7fbbc6a6",
  "difficulty": 4449289020485,
  "gasLimit": {
    "_hex": "0x2fefd8"
  },
  "gasUsed": {
    "_hex": "0x5208"
  },
  "miner": "0xA1623430350C5df1b52B0b57483A5bb45d1796Da",
  "extraData": "0x476574682f76312e302e312d38326566323666362f6c696e75782f676f312e34",
  "transactions": [
    {
      "hash": "0xfd745307fef977144e8d82170f23e205d2b6e5b6e768f3e54d28a1ed7c5588c3",
      "blockHash": "0x0c7f7b589dacc3da41acd1058522212d59fe57a08825ffc0ab6e42dea18f5c5b",
      "blockNumber": 109583,
      "transactionIndex": 0,
      "confirmations": null,
      "from": "0xb1abce2918E21ddb93AA452731a12672A3d9F75a",
      "gasPrice": {
        "_hex": "0xd083b545f"
      },
      "gasLimit": {
        "_hex": "0x5208"
      },
      "to": "0x32Be343B94f860124dC4fEe278FDCBD38C102D88",
      "value": {
        "_hex": "0x455f5997d1d6f800"
      },
      "nonce": 152,
      "data": "0x",
      "r": "0x7bdc7a54ef0a3a50c02d42b141db3856a6700e033774882d4fdf301abb3342fd",
      "s": "0x25165083fc72aa048a3d9a8d1f375c69f61a16bac0d08005e92608b4f4853807",
      "v": 27,
      "creates": null,
      "raw": "0xf86d8198850d083b545f8252089432be343b94f860124dc4fee278fdcbd38c102d8888455f5997d1d6f800801ba07bdc7a54ef0a3a50c02d42b141db3856a6700e033774882d4fdf301abb3342fda025165083fc72aa048a3d9a8d1f375c69f61a16bac0d08005e92608b4f4853807",
      "networkId": 0,
      "chainId": 0
    }
  ]
}