{
  "hash": "0xeb54b9bb6a754fe09fd44214aa5054e321cc5619821f0910e8b9a15e008970fa",
  "parentHash": "0x00fe65ea296500809f3b5769ba3b6ec2603c4b1a1742d169a70bb751e6b16ea4",
  "number": 89576,
  "timestamp": 1439625515,
  "nonce": "0xf0dcaa7779518784",
  "difficulty": 3335431200505,
  "gasLimit": {
    "_hex": "0x2fefd8"
  },
  "gasUsed": {
    "_hex": "0x5208"
  },
  "miner": "0xbb7B8287f3F0a933474a79eAe42CBCa977791171",
  "extraData": "0x476574682f4c5649562f76312e302e312f6c696e75782f676f312e342e32",
  "transactions": [
    {
      "hash": "0x7bf1c8fe848fc724b38d31fa8ef8bd221e8cd22b726fcd3bb6e23aa452d4a7ae",
      "blockHash": "0xeb54b9bb6a754fe09fd44214aa5054e321cc5619821f0910e8b9a15e008970fa",
      "blockNumber": 89576,
      "transactionIndex": 0,
      "confirmations": null,
      "from": "0xf4B1114a02EFe852013277F28ed88734Fa81E54f",
      "gasPrice": {
        "_hex": "0xd8364fc25"
      },
      "gasLimit": {
        "_hex": "0x15f90"
      },
      "to": "0x0C66AD817fcbFD565513051e51EdF2519A8d2ABd",
      "value": {
        "_hex": "0xbdbc41e0348b300000"
      },
      "nonce": 21,
      "data": "0x",
      "r": "0x927768fd2ecb66f31c4cda04b9e5e6dbc515168c884821635bcf240daf97be35",
      "s": "0x3514cbbebe3029681e864cedb80ace0253fb2e48c82b875de5b85c055fd6bdad",
      "v": 28,
      "creates": null,
      "raw": "0xf86e15850d8364fc2583015f90940c66ad817fcbfd565513051e51edf2519a8d2abd89bdbc41e0348b300000801ca0927768fd2ecb66f31c4cda04b9e5e6dbc515168c884821635bcf240daf97be35a03514cbbebe3029681e864cedb80ace0253fb2e48c82b875de5b85c055fd6bdad",
      "networkId": 0,
      "chainId": 0
    }
  ]
}