{
  "hash": "0x7296e9f647b9e835e396016d62108eacc3b57b4cc61741bb76350a17513f636d",
  "parentHash": "0x3e5ddafa4e2dbbbfd0e2365f001cf0195b41cc9e35127ed51f02cab7a85217d4",
  "number": 110662,
  "timestamp": 1439977363,
  "nonce": "0x78047b0f523c17c1",
  "difficulty": 4377607767458,
  "gasLimit": {
    "_hex": "0x2fefd8"
  },
  "gasUsed": {
    "_hex": "0xbd9a"
  },
  "miner": "0xf32866D5cE9a9b5673e076be48AbCd6ED48ADe78",
  "extraData": "0x476574682f76312e302e312d37666266393930632f6c696e75782f676f312e34",
  "transactions": [
    {
      "hash": "0x9cf64021516b9d9beb2c796d83863f35b0c09d88ea5612ed80dd4e39cf942cc1",
      "blockHash": "0x7296e9f647b9e835e396016d62108eacc3b57b4cc61741bb76350a17513f636d",
      "blockNumber": 110662,
      "transactionIndex": 0,
      "confirmations": null,
      "from": "0xBD744E3F13D79B33F6c8E1d5E32F8E9BA2866c46",
      "gasPrice": {
        "_hex": "0xd7385112e"
      },
      "gasLimit": {
        "_hex": "0x15f90"
      },
      "to": "0x65c4E65113DB14f8c15702883791cCA9E66C5Ed2",
      "value": {
        "_hex": "0x0"
      },
      "nonce": 19,
      "data": "0xa9059cbb000000000000000000000000790f91bd5d1c5cc4739ae91300db89e1c1303c930000000000000000000000000000000000000000000000000000000000001388",
      "r": "0x7a6b50405a70272a9bcdf37550e129652ae41f63d1a99addf6268afff93453a8",
      "s": "0x5293701f77d5d4db6b2af3d563956ef7bd7863d119836609e9b1db8fd47adc11",
      "v": 27,
      "creates": null,
      "raw": "0xf8aa13850d7385112e83015f909465c4e65113db14f8c15702883791cca9e66c5ed280b844a9059cbb000000000000000000000000790f91bd5d1c5cc4739ae91300db89e1c1303c9300000000000000000000000000000000000000000000000000000000000013881ba07a6b50405a70272a9bcdf37550e129652ae41f63d1a99addf6268afff93453a8a05293701f77d5d4db6b2af3d563956ef7bd7863d119836609e9b1db8fd47adc11",
      "networkId": 0,
      "chainId": 0
    }
  ]
}