{
  "hash": "0x36f9f381309d1594241e43543cfc4d278a922f74c0b5419aafa18ef8f9c6fcc9",
  "parentHash": "0x2b9c16be4c28cd60b80c0c09a8474913b2d50bf8f3609250ed571e2a8bdf9728",
  "number": 50551,
  "timestamp": 1438991077,
  "nonce": "0x80aa06f33155c2b9",
  "difficulty": 1521510004801,
  "gasLimit": {
    "_hex": "0x69722"
  },
  "gasUsed": {
    "_hex": "0x546c"
  },
  "miner": "0xf927a40C8B7F6E07c5af7FA2155B4864a4112B13",
  "extraData": "0x476574682f76312e302e312f6c696e75782f676f312e342e32",
  "transactions": [
    {
      "hash": "0x86832b7fc67bfd385843736632b0c4acb62b62ca5e6b48b602457499b14ecde7",
      "blockHash": "0x36f9f381309d1594241e43543cfc4d278a922f74c0b5419aafa18ef8f9c6fcc9",
      "blockNumber": 50551,
      "transactionIndex": 0,
      "confirmations": null,
      "from": "0x77C4A697E603D42b12056CBba761E7F51d0443f5",
      "gasPrice": {
        "_hex": "0x110c8f7d8de"
      },
      "gasLimit": {
        "_hex": "0xc350"
      },
      "to": "0x2910543Af39abA0Cd09dBb2D50200b3E800A63D2",
      "value": {
        "_hex": "0x24d8bb7ccb89020000"
      },
      "nonce": 0,
      "data": "0x454e55564159363430",
      "r": "0x45ec63756d9cd5275a5459c4b83b26398c10e41f8c794ba9a905b7fefb16625b",
      "s": "0x8f5b6526b7b2e39a03dadbc6ff82ecd0e8cb5d7681a28fa867d2a20f0a470901",
      "v": 27,
      "creates": null,
      "raw": "0xf87780860110c8f7d8de82c350942910543af39aba0cd09dbb2d50200b3e800a63d28924d8bb7ccb8902000089454e555641593634301ba045ec63756d9cd5275a5459c4b83b26398c10e41f8c794ba9a905b7fefb16625ba08f5b6526b7b2e39a03dadbc6ff82ecd0e8cb5d7681a28fa867d2a20f0a470901",
      "networkId": 0,
      "chainId": 0
    }
  ]
}