{
  "hash": "0x82425007e0987d7ffc1e3fc7326be4bcf4a6050afe41d4a1e98d9a5a75e07ea7",
  "parentHash": "0x99cf0da5401dfa4648518e139ec0ab250ac59b7cfe7e0e5f8072a8f3c0e90f02",
  "number": 113186,
  "timestamp": 1440019146,
  "nonce": "0x9669ec1436f239d8",
  "difficulty": 4519620744059,
  "gasLimit": {
    "_hex": "0x2fefd8"
  },
  "gasUsed": {
    "_hex": "0xa410"
  },
  "miner": "0xe6A7a1d47ff21B6321162AEA7C6CB457D5476Bca",
  "extraData": "0x476574682f76312e302e312d38326566323666362f6c696e75782f676f312e34",
  "transactions": [
    {
      "hash": "0x09d994f6278308caf5ea37bd9e00f161d5ad6c84e65ffe1217ce82f0dcdd4f28",
      "blockHash": "0x82425007e0987d7ffc1e3fc7326be4bcf4a6050afe41d4a1e98d9a5a75e07ea7",
      "blockNumber": 113186,
      "transactionIndex": 0,
      "confirmations": null,
      "from": "0x32Be343B94f860124dC4fEe278FDCBD38C102D88",
      "gasPrice": {
        "_hex": "0xd6207f50a"
      },
      "gasLimit": {
        "_hex": "0x5208"
      },
      "to": "0xfB3FA1AC08aba9cc3bf0FE9D483820688F65B410",
      "value": {
        "_hex": "0xdbd2fc137a30000"
      },
      "nonce": 1354,
      "data": "0x",
      "r": "0x8edf99b7eca8defa3487844050bbdde3ad3dc5475c3a8350e61b1a6c8b229784",
      "s": "0x1ab64815d8956c9e1bb384079b19c5460a7abbc1e27badd55e2863eb26ef1960",
      "v": 27,
      "creates": null,
      "raw": "0xf86e82054a850d6207f50a82520894fb3fa1ac08aba9cc3bf0fe9d483820688f65b410880dbd2fc137a30000801ba08edf99b7eca8defa3487844050bbdde3ad3dc5475c3a8350e61b1a6c8b229784a01ab64815d8956c9e1bb384079b19c5460a7abbc1e27badd55e2863eb26ef1960",
      "networkId": 0,
      "chainId": 0
    },
    {
      "hash": "0x8424d057458104055108a8f96e6677ec6edb95b0210615c41cc209f923663298",
      "blockHash": "0x82425007e0987d7ffc1e3fc7326be4bcf4a6050afe41d4a1e98d9a5a75e07ea7",
      "blockNumber": 113186,
      "transactionIndex": 1,
      "confirmations": null,
      "from": "0x32Be343B94f860124dC4fEe278FDCBD38C102D88",
      "gasPrice": {
        "_hex": "0xd6207f50a"
      },
      "gasLimit": {
        "_hex": "0x5208"
      },
      "to": "0x948c61d80269E56ed71E8f278e080Fb70bb1B856",
      "value": {
        "_hex": "0x5150ae84a8cdf00000"
      },
      "nonce": 1355,
      "data": "0x",
      "r": "0x87b730df616689411e5bdcb365ac6f7ee7bd5476270f9ce4debc793d3124c218",
      "s": "0x31cf4d79d0d547a8d950f7aa39d2c8eaf2595f956bfeaee75f6fd97c993c5a3e",
      "v": 28,
      "creates": null,
      "raw": "0xf86f82054b850d6207f50a82520894948c61d80269e56ed71e8f278e080fb70bb1b856895150ae84a8cdf00000801ca087b730df616689411e5bdcb365ac6f7ee7bd5476270f9ce4debc793d3124c218a031cf4d79d0d547a8d950f7aa39d2c8eaf2595f956bfeaee75f6fd97c993c5a3e",
      "networkId": 0,
      "chainId": 0
    }
  ]
}