{
  "hash": "0xd2bd506ae9f6cbf138a203d43526647bbaf9c37ea84ee03c23a4603242a416db",
  "parentHash": "0x120cab01497a2b90c6dcaba15521b2deff7cf4f04c117c854addf48f9f1c78a3",
  "number": 64848,
  "timestamp": 1439227137,
  "nonce": "0xc77ee0a15618068c",
  "difficulty": 1906081815806,
  "gasLimit": {
    "_hex": "0x2fefd8"
  },
  "gasUsed": {
    "_hex": "0x5208"
  },
  "miner": "0x040F866D0793aEbf4DaCDA92B2F2128e8599B5CF",
  "extraData": "0x476574682f76312e302e312f6c696e75782f676f312e342e32",
  "transactions": [
    {
      "hash": "0x213a928aba0353e81d7dd97bca67bc3c25528fcca5b154039a9aa28fdb4379a6",
      "blockHash": "0xd2bd506ae9f6cbf138a203d43526647bbaf9c37ea84ee03c23a4603242a416db",
      "blockNumber": 64848,
      "transactionIndex": 0,
      "confirmations": null,
      "from": "0xf0E93902C82C20C953Ba57D195E6C2987E6ba37F",
      "gasPrice": {
        "_hex": "0xcc50d71b7"
      },
      "gasLimit": {
        "_hex": "0x55f0"
      },
      "to": "0x28eE6F795bd9cc6BdACfd43Cad0b53B8566113F5",
      "value": {
        "_hex": "0x8ac7230489e80000"
      },
      "nonce": 2,
      "data": "0x",
      "r": "0x7e5d7a86418d98c8fc46722331adcb1ea8b830a4d7971e0011b397b33a460828",
      "s": "0x688bc6db382edb8a9fc372cbb5a8f58a8e7928ce24e99dfe94cdec57ae4fc5dd",
      "v": 28,
      "creates": null,
      "raw": "0xf86c02850cc50d71b78255f09428ee6f795bd9cc6bdacfd43cad0b53b8566113f5888ac7230489e80000801ca07e5d7a86418d98c8fc46722331adcb1ea8b830a4d7971e0011b397b33a460828a0688bc6db382edb8a9fc372cbb5a8f58a8e7928ce24e99dfe94cdec57ae4fc5dd",
      "networkId": 0,
      "chainId": 0
    }
  ]
}