{
  "hash": "0x87c63fa8ec033648e9649e3a222b14cb7f1675e0b9e06d8f7f482335516c5664",
  "parentHash": "0x6dd979128c5ee9c289e10d75761c6b9f005b951b28844ea0a4d1eff6592dcc1c",
  "number": 89747,
  "timestamp": 1439628464,
  "nonce": "0x607fd2149d76f003",
  "difficulty": 3340252575676,
  "gasLimit": {
    "_hex": "0x2fefd8"
  },
  "gasUsed": {
    "_hex": "0x5208"
  },
  "miner": "0x637A26bE53e619AaCd2f69D5C6f9594576293cD8",
  "extraData": "0x476574682f76312e302e312f77696e646f77732f676f312e342e32",
  "transactions": [
    {
      "hash": "0x168635b049868bce601e647a2e7eb727ece6f3e9b0776f285c2ce9c5a56decdc",
      "blockHash": "0x87c63fa8ec033648e9649e3a222b14cb7f1675e0b9e06d8f7f482335516c5664",
      "blockNumber": 89747,
      "transactionIndex": 0,
      "confirmations": null,
      "from": "0xe958637c6f3D30E8B632262f7486cd28C5791935",
      "gasPrice": {
        "_hex": "0xcba7529d3"
      },
      "gasLimit": {
        "_hex": "0x5208"
      },
      "to": "0x32Be343B94f860124dC4fEe278FDCBD38C102D88",
      "value": {
        "_hex": "0x3635b3cbd721a40000"
      },
      "nonce": 1,
      "data": "0x",
      "r": "0x2902631324e5de0e5211a7eda4d663c235db8b7beed58369c6f7f943f506c0a5",
      "s": "0x574512a4000693bfe4be58c40f1a0244c913bbedf7e8f7d34e3460e9583eeffd",
      "v": 27,
      "creates": null,
      "raw": "0xf86d01850cba7529d38252089432be343b94f860124dc4fee278fdcbd38c102d88893635b3cbd721a40000801ba02902631324e5de0e5211a7eda4d663c235db8b7beed58369c6f7f943f506c0a5a0574512a4000693bfe4be58c40f1a0244c913bbedf7e8f7d34e3460e9583eeffd",
      "networkId": 0,
      "chainId": 0
    }
  ]
}