{
  "hash": "0x3c6d29d9f18964970dbed998411b1631e2e3a808ebecb987301d2204fcd83b27",
  "parentHash": "0x8698a32d3fc7c4ae9baacee71c776c41f42e24137c8c5f552e94fdf85044d64a",
  "number": 58659,
  "timestamp": 1439124471,
  "nonce": "0xd4a6c997bf4ec6c5",
  "difficulty": 1712368245624,
  "gasLimit": {
    "_hex": "0x2fe3de"
  },
  "gasUsed": {
    "_hex": "0x546c"
  },
  "miner": "0x9Fa9952255B2b06639A04D63804d4BdFFf6E2d7e",
  "extraData": "0x476574682f76312e302e302f77696e646f77732f676f312e342e32",
  "transactions": [
    {
      "hash": "0x0eeadca8c0efa15efc6bb4ffe9fcf22d0282b584a274cc4cc4584b226990aa76",
      "blockHash": "0x3c6d29d9f18964970dbed998411b1631e2e3a808ebecb987301d2204fcd83b27",
      "blockNumber": 58659,
      "transactionIndex": 0,
      "confirmations": null,
      "from": "0xF32d25eB0ea2B8b3028a4c7a155dC1AAE865784D",
      "gasPrice": {
        "_hex": "0x110c8f7d8de"
      },
      "gasLimit": {
        "_hex": "0xc350"
      },
      "to": "0x2910543Af39abA0Cd09dBb2D50200b3E800A63D2",
      "value": {
        "_hex": "0x134ff63f81b0e900000"
      },
      "nonce": 1,
      "data": "0x454e5948354b4d3447",
      "r": "0x383ef916054977a0ba7310bd2769df7375d20d0a7a4fe7f845e9f884af5ea445",
      "s": "0xb517f5a92e4a0a4c5a14e82fa2c26c88481545a5854d595fac2673d98459b440",
      "v": 27,
      "creates": null,
      "raw": "0xf87801860110c8f7d8de82c350942910543af39aba0cd09dbb2d50200b3e800a63d28a0134ff63f81b0e90000089454e5948354b4d34471ba0383ef916054977a0ba7310bd2769df7375d20d0a7a4fe7f845e9f884af5ea445a0b517f5a92e4a0a4c5a14e82fa2c26c88481545a5854d595fac2673d98459b440",
      "networkId": 0,
      "chainId": 0
    }
  ]
}