{
  "hash": "0x7eb882c073194425319401fc26f69bc4a6f48318e882c8bdc14ec663e85b3c92",
  "parentHash": "0x54ba27eca8b86436f127b737b34e4e4e7f43d521f36ad5a463d2685a5cc37686",
  "number": 46493,
  "timestamp": 1438924072,
  "nonce": "0x107b4becc93e4b17",
  "difficulty": 1466791906466,
  "gasLimit": {
    "_hex": "0x64b4"
  },
  "gasUsed": {
    "_hex": "0x5208"
  },
  "miner": "0x756C55cbfa47fd23c0260F958e65866E64c096CB",
  "extraData": "0x476574682f76312e302e302f77696e646f77732f676f312e342e32",
  "transactions": [
    {
      "hash": "0x6e86b536c693e734582beea70455fdb462f7405c9ca76e4b70c0196682b70fdc",
      "blockHash": "0x7eb882c073194425319401fc26f69bc4a6f48318e882c8bdc14ec663e85b3c92",
      "blockNumber": 46493,
      "transactionIndex": 0,
      "confirmations": null,
      "from": "0xeD17Ea8E9fd42159037deE95ea173a56c54f55ce",
      "gasPrice": {
        "_hex": "0x746a528800"
      },
      "gasLimit": {
        "_hex": "0x5208"
      },
      "to": "0x32Be343B94f860124dC4fEe278FDCBD38C102D88",
      "value": {
        "_hex": "0x6c693e806f9afc000"
      },
      "nonce": 0,
      "data": "0x",
      "r": "0x4c65e125ab41bb8cc89c5e5dcd3140cf27ea5075f35ff0070bb497c5524fd090",
      "s": "0x7d8523ff677c99724a430754f4af6677bc49b3d24066024449aec50f6642fbe1",
      "v": 28,
      "creates": null,
      "raw": "0xf86d8085746a5288008252089432be343b94f860124dc4fee278fdcbd38c102d888906c693e806f9afc000801ca04c65e125ab41bb8cc89c5e5dcd3140cf27ea5075f35ff0070bb497c5524fd090a07d8523ff677c99724a430754f4af6677bc49b3d24066024449aec50f6642fbe1",
      "networkId": 0,
      "chainId": 0
    }
  ]
}