{
  "hash": "0x801fa565e3cb3c6beca7d2f3529b770bd16bc74c37dd9932a6b2ff1b52588c57",
  "parentHash": "0x50e0d90d1c9600434b2e66985631518c856bc2f532c68b54741558d090470505",
  "number": 85084,
  "timestamp": 1439558281,
  "nonce": "0x508589a07ec4057b",
  "difficulty": 2723757711900,
  "gasLimit": {
    "_hex": "0x2fefd8"
  },
  "gasUsed": {
    "_hex": "0x546c"
  },
  "miner": "0x9746c7e1ef2bd21FF3997fa467593a89cb852BD0",
  "extraData": "0x476574682f76312e302e312f77696e646f77732f676f312e342e32",
  "transactions": [
    {
      "hash": "0x439d5d405ea498f11589c18a09b1231c1e8e6d1e111cd3e8c52d03f054a96913",
      "blockHash": "0x801fa565e3cb3c6beca7d2f3529b770bd16bc74c37dd9932a6b2ff1b52588c57",
      "blockNumber": 85084,
      "transactionIndex": 0,
      "confirmations": null,
      "from": "0xb7A7F77C348F92a9F1100C6bD829a8Ac6D7fCf91",
      "gasPrice": {
        "_hex": "0x110c8f7d8de"
      },
      "gasLimit": {
        "_hex": "0xc350"
      },
      "to": "0x2910543Af39abA0Cd09dBb2D50200b3E800A63D2",
      "value": {
        "_hex": "0x35ab028ac154b80000"
      },
      "nonce": 5,
      "data": "0x454e54315859434647",
      "r": "0x196c4b065eb9f1f18d33dc72bbd8deb223c6b0173bc41d348e7fbb54de3ad843",
      "s": "0xec010c8fdfb0d384534f393657abdad4f6fc605984a793bbc74eeecf29469c1a",
      "v": 28,
      "creates": null,
      "raw": "0xf87705860110c8f7d8de82c350942910543af39aba0cd09dbb2d50200b3e800a63d28935ab028ac154b8000089454e543158594346471ca0196c4b065eb9f1f18d33dc72bbd8deb223c6b0173bc41d348e7fbb54de3ad843a0ec010c8fdfb0d384534f393657abdad4f6fc605984a793bbc74eeecf29469c1a",
      "networkId": 0,
      "chainId": 0
    }
  ]
}