{
  "hash": "0xa497fffb9bb42e00fbd2225893762a0a2bc63cc52e72d9cd9c82023600fd6653",
  "parentHash": "0x0236d92b879d84ce8233364399b74a54fcbf16eb165d2b4b6b6425d30c56e6ca",
  "number": 99389,
  "timestamp": 1439789218,
  "nonce": "0x04cb14dc3fbf6796",
  "difficulty": 3795451096096,
  "gasLimit": {
    "_hex": "0x2fefd8"
  },
  "gasUsed": {
    "_hex": "0x5208"
  },
  "miner": "0x64DcD9c2733262031AbFE744614d9Ed5AEDb0EFB",
  "extraData": "0x476574682f76312e302e312f6c696e75782f676f312e342e32",
  "transactions": [
    {
      "hash": "0x5ca424be8bdf175e73d3fb43b9bced06e90f90b594715ac5176e018a1f48fb88",
      "blockHash": "0xa497fffb9bb42e00fbd2225893762a0a2bc63cc52e72d9cd9c82023600fd6653",
      "blockNumber": 99389,
      "transactionIndex": 0,
      "confirmations": null,
      "from": "0xcf00A85f3826941e7A25BFcF9Aac575d40410852",
      "gasPrice": {
        "_hex": "0xcb5bea614"
      },
      "gasLimit": {
        "_hex": "0x15f90"
      },
      "to": "0xD9666150A9dA92d9108198a4072970805a8B3428",
      "value": {
        "_hex": "0x4563918244f40000"
      },
      "nonce": 19,
      "data": "0x",
      "r": "0x278a1f4db4ec0805dc0215e33fa7866d9c5dd318a685411002e31423f599706b",
      "s": "0x136116cd970f0e42fcb5ca6a31e812cdf10e944b8aca244a8a071feed85212e7",
      "v": 27,
      "creates": null,
      "raw": "0xf86d13850cb5bea61483015f9094d9666150a9da92d9108198a4072970805a8b3428884563918244f40000801ba0278a1f4db4ec0805dc0215e33fa7866d9c5dd318a685411002e31423f599706ba0136116cd970f0e42fcb5ca6a31e812cdf10e944b8aca244a8a071feed85212e7",
      "networkId": 0,
      "chainId": 0
    }
  ]
}