{
  "hash": "0xf3b3f615e7882bd4bac0b60ac02e9d0188a2765bdb1bcf421817ddc70631a1a0",
  "parentHash": "0x4877be85bd6d8464c5f58dc3733e59c8ab8d9f083c96065cc7158a9fb4655921",
  "number": 74742,
  "timestamp": 1439391420,
  "nonce": "0x444a4eab57cdad44",
  "difficulty": 2204178020193,
  "gasLimit": {
    "_hex": "0x2fefd8"
  },
  "gasUsed": {
    "_hex": "0x5208"
  },
  "miner": "0xbb7B8287f3F0a933474a79eAe42CBCa977791171",
  "extraData": "0x476574682f4c5649562f76312e302e312f6c696e75782f676f312e342e32",
  "transactions": [
    {
      "hash": "0x4a418736fcdff3342c2898cf92f2f7bed9223cf68b29a06db018f0ad3cc56c3e",
      "blockHash": "0xf3b3f615e7882bd4bac0b60ac02e9d0188a2765bdb1bcf421817ddc70631a1a0",
      "blockNumber": 74742,
      "transactionIndex": 0,
      "confirmations": null,
      "from": "0x2159240813A73095a7Ebf7C3b3743e8028aE5f09",
      "gasPrice": {
        "_hex": "0xd64108134"
      },
      "gasLimit": {
        "_hex": "0x15f90"
      },
      "to": "0x7d047d5F0C5b1DAB4220a98327Ec79586C8941DF",
      "value": {
        "_hex": "0xde0b6b3a7640000"
      },
      "nonce": 5,
      "data": "0x",
      "r": "0x02428e58a6953d255a19c0578fb5263e13d0a4db0c71ef3d323cadb77589bd19",
      "s": "0x1ebcf7c31615e8662d7d696ced76929a10901e7fccd8991f632667800ca16bf2",
      "v": 28,
      "creates": null,
      "raw": "0xf86d05850d6410813483015f90947d047d5f0c5b1dab4220a98327ec79586c8941df880de0b6b3a7640000801ca002428e58a6953d255a19c0578fb5263e13d0a4db0c71ef3d323cadb77589bd19a01ebcf7c31615e8662d7d696ced76929a10901e7fccd8991f632667800ca16bf2",
      "networkId": 0,
      "chainId": 0
    }
  ]
}