{
  "hash": "0xaa919a7b0bfaf802f0e0756e0cd4e15798833ccb1e418b24bce890282229ee6a",
  "parentHash": "0xec0a83c1330a55a8e3b482a369a3f39eaf5e707e11a8b5a977874a52424b5787",
  "number": 55060,
  "timestamp": 1439064742,
  "nonce": "0xbd4cc35dd50e032c",
  "difficulty": 1629076700449,
  "gasLimit": {
    "_hex": "0x2fefd8"
  },
  "gasUsed": {
    "_hex": "0x61a80"
  },
  "miner": "0x3DfCf2bF579C831a03379a140b74f884e49CaFf3",
  "extraData": "0x",
  "transactions": [
    {
      "hash": "0x5d6cacbdc1a46877182b9dd0bb1329b4f9495f4a52d44e1396ff9ef61eb0395a",
      "blockHash": "0xaa919a7b0bfaf802f0e0756e0cd4e15798833ccb1e418b24bce890282229ee6a",
      "blockNumber": 55060,
      "transactionIndex": 0,
      "confirmations": null,
      "from": "0xb884add88d83dC564Ab8E0E02cbDB63919Aea844",
      "gasPrice": {
        "_hex": "0xd59c524a9"
      },
      "gasLimit": {
        "_hex": "0x30d40"
      },
      "to": "0xA327075af2a223A1C83a36aDa1126afE7430f955",
      "value": {
        "_hex": "0x8ac7230489e80000"
      },
      "nonce": 4,
      "data": "0x",
      "r": "0x2836a07eb9c79bcc9666d9ee763bacd309230596eacebb984fcfe9a637e89174",
      "s": "0x429b1deb6a9166d4ef10e9d65a5d03071fea9c54a05d60cd7e06499d8804e328",
      "v": 28,
      "creates": null,
      "raw": "0xf86d04850d59c524a983030d4094a327075af2a223a1c83a36ada1126afe7430f955888ac7230489e80000801ca02836a07eb9c79bcc9666d9ee763bacd309230596eacebb984fcfe9a637e89174a0429b1deb6a9166d4ef10e9d65a5d03071fea9c54a05d60cd7e06499d8804e328",
      "networkId": 0,
      "chainId": 0
    },
    {
      "hash": "0xbe40b9be9c9c24aa5246c0969b0f9d82d5219ec29b9323075b9167964fc9e691",
      "blockHash": "0xaa919a7b0bfaf802f0e0756e0cd4e15798833ccb1e418b24bce890282229ee6a",
      "blockNumber": 55060,
      "transactionIndex": 1,
      "confirmations": null,
      "from": "0xb884add88d83dC564Ab8E0E02cbDB63919Aea844",
      "gasPrice": {
        "_hex": "0xd59c524a9"
      },
      "gasLimit": {
        "_hex": "0x30d40"
      },
      "to": "0xA327075af2a223A1C83a36aDa1126afE7430f955",
      "value": {
        "_hex": "0x8ac7230489e80000"
      },
      "nonce": 5,
      "data": "0x",
      "r": "0x52bef578f6f3407307d582e5f3ef0b8f91a12f7731c480fa5d86f43230c0a43b",
      "s": "0x30ad5324d106d6a0632d463be406b74464e3a84ee3907fa67d457d3964bef343",
      "v": 27,
      "creates": null,
      "raw": "0xf86d05850d59c524a983030d4094a327075af2a223a1c83a36ada1126afe7430f955888ac7230489e80000801ba052bef578f6f3407307d582e5f3ef0b8f91a12f7731c480fa5d86f43230c0a43ba030ad5324d106d6a0632d463be406b74464e3a84ee3907fa67d457d3964bef343",
      "networkId": 0,
      "chainId": 0
    }
  ]
}