{
  "hash": "0x4466f0aca2c41271f2189ba155330589c15a20105ba1f3efdc6c8196fa8e6feb",
  "parentHash": "0x2c1d65613354a9cb66926213a82d77e6853d0a0e5a048bd4fdbc0b13d4f31503",
  "number": 70764,
  "timestamp": 1439325196,
  "nonce": "0xb070f1aca8c9e6fb",
  "difficulty": 2135289658716,
  "gasLimit": {
    "_hex": "0x2fefd8"
  },
  "gasUsed": {
    "_hex": "0x546c"
  },
  "miner": "0x88D74a59454F6cF3B51ef6b9136AFb6b9D405A88",
  "extraData": "0x476574682f76312e302e312d38326566323666362f6c696e75782f676f312e34",
  "transactions": [
    {
      "hash": "0x38060b23fa0f304e7c33f861f66944bd7d8e93d1fcd19c5a41552c1022ab45f9",
      "blockHash": "0x4466f0aca2c41271f2189ba155330589c15a20105ba1f3efdc6c8196fa8e6feb",
      "blockNumber": 70764,
      "transactionIndex": 0,
      "confirmations": null,
      "from": "0xe22B20c77894463Baf774CC256D5bDDbbF7DDd09",
      "gasPrice": {
        "_hex": "0xd829211eb"
      },
      "gasLimit": {
        "_hex": "0x9c40"
      },
      "to": "0x2910543Af39abA0Cd09dBb2D50200b3E800A63D2",
      "value": {
        "_hex": "0x8ac7230489e80000"
      },
      "nonce": 2,
      "data": "0x454e34433248304a30",
      "r": "0x51e26156293ccb1e5a3853ab4440c5b5312f2f413ee53e01b67e2a7d93723060",
      "s": "0x36f2d073ec236563309ae27f3056d92c3e2379813babbe47a5d73a280d09c4ab",
      "v": 28,
      "creates": null,
      "raw": "0xf87502850d829211eb829c40942910543af39aba0cd09dbb2d50200b3e800a63d2888ac7230489e8000089454e34433248304a301ca051e26156293ccb1e5a3853ab4440c5b5312f2f413ee53e01b67e2a7d93723060a036f2d073ec236563309ae27f3056d92c3e2379813babbe47a5d73a280d09c4ab",
      "networkId": 0,
      "chainId": 0
    }
  ]
}