{
  "hash": "0x4481a6f5b67c64ce810e877aed32bf94c4d7c3c47cfc5d74c4f4c72eab4dc8bf",
  "parentHash": "0x9c03b7f57a28dcfffe08470797f10b1209d2e2f88b8fca1d7aeaf57dd640b9c5",
  "number": 74406,
  "timestamp": 1439385540,
  "nonce": "0xabb61641c61d75c6",
  "difficulty": 2215055648491,
  "gasLimit": {
    "_hex": "0x2fefd5"
  },
  "gasUsed": {
    "_hex": "0x8f3a"
  },
  "miner": "0xf927a40C8B7F6E07c5af7FA2155B4864a4112B13",
  "extraData": "0x",
  "transactions": [
    {
      "hash": "0x3be2e17549087a733ac9acab1566b50d0dde6b79427452a82fb40533a5b6d653",
      "blockHash": "0x4481a6f5b67c64ce810e877aed32bf94c4d7c3c47cfc5d74c4f4c72eab4dc8bf",
      "blockNumber": 74406,
      "transactionIndex": 0,
      "confirmations": null,
      "from": "0x326Be8F71bFb0379f989aAB1CC1fE37f0a771f60",
      "gasPrice": {
        "_hex": "0x10f2253ab08"
      },
      "gasLimit": {
        "_hex": "0x493e0"
      },
      "to": "0x88A91FD7Fb8AAEa8cDAD2C990f1DBDcd28022a02",
      "value": {
        "_hex": "0x8ac7230489e80000"
      },
      "nonce": 56,
      "data": "0x8d21618600000000000000000000000000000000000000000000000000000000000000803cfee65c03117152e88b03e8729fd692f14fd3477d56452b2c58b795338e27b2",
      "r": "0x89caf2bcd7755920142478a12c87a6387f3e0cad6356517424feb3d344d28ad2",
      "s": "0x48342cc47f2d414fb088fdc49a674f946a271830ff097a69d63e33ffc0a68722",
      "v": 28,
      "creates": null,
      "raw": "0xf8b33886010f2253ab08830493e09488a91fd7fb8aaea8cdad2c990f1dbdcd28022a02888ac7230489e80000b8448d21618600000000000000000000000000000000000000000000000000000000000000803cfee65c03117152e88b03e8729fd692f14fd3477d56452b2c58b795338e27b21ca089caf2bcd7755920142478a12c87a6387f3e0cad6356517424feb3d344d28ad2a048342cc47f2d414fb088fdc49a674f946a271830ff097a69d63e33ffc0a68722",
      "networkId": 0,
      "chainId": 0
    }
  ]
}