{
  "hash": "0x25cad7a59062d4364f90e4aae3132e7a88a0ea58f86a15408752d99af549369f",
  "parentHash": "0x89b2f9c593b867bafce4894d30ae7b6e12380e92f166be2bf632ec5286aa2737",
  "number": 80601,
  "timestamp": 1439487877,
  "nonce": "0x969b56102e2d73c9",
  "difficulty": 2422672000208,
  "gasLimit": {
    "_hex": "0x2fefd8"
  },
  "gasUsed": {
    "_hex": "0x6ed7"
  },
  "miner": "0xE300c4587D260cE22a677755Db6429B491A4309E",
  "extraData": "0x",
  "transactions": [
    {
      "hash": "0xc10b49091c2270a07b67a89139a1a242491a4ce296b6180a9f8e66aa7ec056a9",
      "blockHash": "0x25cad7a59062d4364f90e4aae3132e7a88a0ea58f86a15408752d99af549369f",
      "blockNumber": 80601,
      "transactionIndex": 0,
      "confirmations": null,
      "from": "0x87C5B5874A18B4306DF8a752a6C8cc3E82daFc19",
      "gasPrice": {
        "_hex": "0x10d2b956fbc"
      },
      "gasLimit": {
        "_hex": "0x493e0"
      },
      "to": "0xC4c51de1AbF5D60DBd329eC0F999Fd8f021ae9fC",
      "value": {
        "_hex": "0x0"
      },
      "nonce": 257,
      "data": "0xbd66528a6b6b6b0000000000000000000000000000000000000000000000000000000000",
      "r": "0x4a539f7ae0b8c018e94c4b54ac7712a6064fc84195270fb7c5ca1e616d657ddd",
      "s": "0x31e0b3355e9d90ab0e151c5289bf40c907d8dd951df5de48ea92fcc1bf611830",
      "v": 27,
      "creates": null,
      "raw": "0xf88c82010186010d2b956fbc830493e094c4c51de1abf5d60dbd329ec0f999fd8f021ae9fc80a4bd66528a6b6b6b00000000000000000000000000000000000000000000000000000000001ba04a539f7ae0b8c018e94c4b54ac7712a6064fc84195270fb7c5ca1e616d657ddda031e0b3355e9d90ab0e151c5289bf40c907d8dd951df5de48ea92fcc1bf611830",
      "networkId": 0,
      "chainId": 0
    }
  ]
}