{
  "hash": "0xb5a2fc37cafc242e8a4efa5db67346763d7de46562a584a3af5772c4ec5472e3",
  "parentHash": "0x0f8ee6abad92cb14c0932687f1104ffef1d470ce1dd07230fcb1725a0107c3da",
  "number": 53617,
  "timestamp": 1439040608,
  "nonce": "0x335b117f0930859a",
  "difficulty": 1595503461862,
  "gasLimit": {
    "_hex": "0x2d52ae"
  },
  "gasUsed": {
    "_hex": "0x5208"
  },
  "miner": "0xa50ec0D39fa913E62f1Bae7074E6F36caA71855b",
  "extraData": "0x",
  "transactions": [
    {
      "hash": "0x957afdb70121527ecedae6e8f1b294c4c3f8907dff97dc1fda5bb4d46c8619ff",
      "blockHash": "0xb5a2fc37cafc242e8a4efa5db67346763d7de46562a584a3af5772c4ec5472e3",
      "blockNumber": 53617,
      "transactionIndex": 0,
      "confirmations": null,
      "from": "0xC759dc67E0c3816fdC56A2f5bb29920fc07e767D",
      "gasPrice": {
        "_hex": "0xdc5f66fb7"
      },
      "gasLimit": {
        "_hex": "0x5208"
      },
      "to": "0x910a4aADabb3A7B3F7879118332E13Da66b68D77",
      "value": {
        "_hex": "0x649d2c967d9500000"
      },
      "nonce": 6,
      "data": "0x",
      "r": "0x7f21e9551b61a40cfc9c4abf79956b54b7a92cc938e21e2497679bcd71548f47",
      "s": "0x07e2240f8c58efa449ca2a54d9a0afad22895f1526733ce0d201f5e212635777",
      "v": 28,
      "creates": null,
      "raw": "0xf86d06850dc5f66fb782520894910a4aadabb3a7b3f7879118332e13da66b68d77890649d2c967d9500000801ca07f21e9551b61a40cfc9c4abf79956b54b7a92cc938e21e2497679bcd71548f47a007e2240f8c58efa449ca2a54d9a0afad22895f1526733ce0d201f5e212635777",
      "networkId": 0,
      "chainId": 0
    }
  ]
}