{
  "hash": "0xd8c958de5329d7ec8612b7f486f9fe58803aac2b4c8ec65d8cf2f5c265762142",
  "parentHash": "0xf48d94f7f78f9a7d92ffa94c158bc839979cb299f2e72fca2e2d00848b31e20d",
  "number": 120111,
  "timestamp": 1440154105,
  "nonce": "0x477c5f84b7572d72",
  "difficulty": 4413435182354,
  "gasLimit": {
    "_hex": "0x2fefd8"
  },
  "gasUsed": {
    "_hex": "0xa410"
  },
  "miner": "0xe6A7a1d47ff21B6321162AEA7C6CB457D5476Bca",
  "extraData": "0xd783010002844765746887676f312e342e32856c696e7578",
  "transactions": [
    {
      "hash": "0x6e6b22939c074814c0754aa80e1d540c15f74005f1a0d908427e45a78c7c64be",
      "blockHash": "0xd8c958de5329d7ec8612b7f486f9fe58803aac2b4c8ec65d8cf2f5c265762142",
      "blockNumber": 120111,
      "transactionIndex": 0,
      "confirmations": null,
      "from": "0xBB33a4b72d92FA335a3b591Ce7eE217f7a7338C1",
      "gasPrice": {
        "_hex": "0xba43b7400"
      },
      "gasLimit": {
        "_hex": "0x5208"
      },
      "to": "0x32Be343B94f860124dC4fEe278FDCBD38C102D88",
      "value": {
        "_hex": "0xd026f98ea1d86000"
      },
      "nonce": 12,
      "data": "0x",
      "r": "0x2a5500a88b3f82f3f5b551e3f61a06fc2a286707f8628757e919bd6ca4254b02",
      "s": "0x574da42e1c23e55ab8b279b7a273873108020b453c9d3f563dd21b40762fa578",
      "v": 27,
      "creates": null,
      "raw": "0xf86c0c850ba43b74008252089432be343b94f860124dc4fee278fdcbd38c102d8888d026f98ea1d86000801ba02a5500a88b3f82f3f5b551e3f61a06fc2a286707f8628757e919bd6ca4254b02a0574da42e1c23e55ab8b279b7a273873108020b453c9d3f563dd21b40762fa578",
      "networkId": 0,
      "chainId": 0
    },
    {
      "hash": "0xecefc1071797f1ad09f28b125f551e870a62e39259157ae6a1fe80eb5f21cb96",
      "blockHash": "0xd8c958de5329d7ec8612b7f486f9fe58803aac2b4c8ec65d8cf2f5c265762142",
      "blockNumber": 120111,
      "transactionIndex": 1,
      "confirmations": null,
      "from": "0x55192e9eEF50b024e6800e4657590f33D1070545",
      "gasPrice": {
        "_hex": "0xba43b7400"
      },
      "gasLimit": {
        "_hex": "0x5208"
      },
      "to": "0x32Be343B94f860124dC4fEe278FDCBD38C102D88",
      "value": {
        "_hex": "0xddcfbbb7a606000"
      },
      "nonce": 3,
      "data": "0x",
      "r": "0xe58ec689df31853fbe220d10291eeb85fe0294f423037dd2cd4bfa0137e8ed41",
      "s": "0x4ee5e843049a41a893959f671bad07a821c1252a8e8074aed7644bf9828473e6",
      "v": 28,
      "creates": null,
      "raw": "0xf86c03850ba43b74008252089432be343b94f860124dc4fee278fdcbd38c102d88880ddcfbbb7a606000801ca0e58ec689df31853fbe220d10291eeb85fe0294f423037dd2cd4bfa0137e8ed41a04ee5e843049a41a893959f671bad07a821c1252a8e8074aed7644bf9828473e6",
      "networkId": 0,
      "chainId": 0
    }
  ]
}