{
  "hash": "0xeba34194108b0ad752870191083febce7363d2222fc515a4729d5fa09b24808f",
  "parentHash": "0x8fd15784c33de5ecab1b180065b745cd8c37826038cfaeb392464f7bab1d6c3e",
  "number": 113422,
  "timestamp": 1440023310,
  "nonce": "0xfa0064428ce3555c",
  "difficulty": 4462479874770,
  "gasLimit": {
    "_hex": "0x2fefd8"
  },
  "gasUsed": {
    "_hex": "0x5208"
  },
  "miner": "0xe6A7a1d47ff21B6321162AEA7C6CB457D5476Bca",
  "extraData": "0x476574682f76312e302e312d38326566323666362f6c696e75782f676f312e34",
  "transactions": [
    {
      "hash": "0x92fc93241e779a28dc954403afe106e934dd163fbf6c2cb3660a9044b0f6b4db",
      "blockHash": "0xeba34194108b0ad752870191083febce7363d2222fc515a4729d5fa09b24808f",
      "blockNumber": 113422,
      "transactionIndex": 0,
      "confirmations": null,
      "from": "0x494E9242DCB2A208fF82E5E639a15b4B4623AA57",
      "gasPrice": {
        "_hex": "0xcef80c658"
      },
      "gasLimit": {
        "_hex": "0x5208"
      },
      "to": "0x32Be343B94f860124dC4fEe278FDCBD38C102D88",
      "value": {
        "_hex": "0x2e0210031caaac000"
      },
      "nonce": 1,
      "data": "0x",
      "r": "0x10403b832d9e7485a03958464e95cc2e75168411abde00ee78b8c6b884c35f06",
      "s": "0x5cc864c598b9bdcd9398279b7c9cc4773a29fc603957279daaf9e0ae23a23bac",
      "v": 27,
      "creates": null,
      "raw": "0xf86d01850cef80c6588252089432be343b94f860124dc4fee278fdcbd38c102d888902e0210031caaac000801ba010403b832d9e7485a03958464e95cc2e75168411abde00ee78b8c6b884c35f06a05cc864c598b9bdcd9398279b7c9cc4773a29fc603957279daaf9e0ae23a23bac",
      "networkId": 0,
      "chainId": 0
    }
  ]
}