{
  "hash": "0x45fd05c453c6677056ea788e6ccb50108993b05e70c3887507041735529f7225",
  "parentHash": "0x78eb8ec9e21b5d6e0e9736cdf4c0e67328467ceb5a2861af09ff85800cf1ca1c",
  "number": 46666,
  "timestamp": 1438927172,
  "nonce": "0xedf6ebb0561c7988",
  "difficulty": 1457480644793,
  "gasLimit": {
    "_hex": "0x6fb1"
  },
  "gasUsed": {
    "_hex": "0x5208"
  },
  "miner": "0x3f113041D56Dda809a245Fe338832c2D373e7c80",
  "extraData": "0x476574682f76312e302e312f77696e646f77732f676f312e342e32",
  "transactions": [
    {
      "hash": "0x7060b08cc094745df91cfb183c31afc2640150c20f8b8362b667f742abd54a91",
      "blockHash": "0x45fd05c453c6677056ea788e6ccb50108993b05e70c3887507041735529f7225",
      "blockNumber": 46666,
      "transactionIndex": 0,
      "confirmations": null,
      "from": "0x94d700B9157FfB28D39937b60317865D060bb2F2",
      "gasPrice": {
        "_hex": "0x243b03a856"
      },
      "gasLimit": {
        "_hex": "0x5208"
      },
      "to": "0xB4f6A8f7Cd91Cd4bcADcc0a20e417c392E5f50A4",
      "value": {
        "_hex": "0xb469471f80140000"
      },
      "nonce": 0,
      "data": "0x",
      "r": "0x81b341b9afafa6d28cccf079fbee3c0863d5e7539013fb452dc0020d4018fc65",
      "s": "0x59ab083101aa100de233a9f886bad336c84eb2f2c550e882955028cd5e08b2fa",
      "v": 27,
      "creates": null,
      "raw": "0xf86c8085243b03a85682520894b4f6a8f7cd91cd4bcadcc0a20e417c392e5f50a488b469471f80140000801ba081b341b9afafa6d28cccf079fbee3c0863d5e7539013fb452dc0020d4018fc65a059ab083101aa100de233a9f886bad336c84eb2f2c550e882955028cd5e08b2fa",
      "networkId": 0,
      "chainId": 0
    }
  ]
}