{
  "hash": "0x646b7829f69fa4381c183f892997629673d276c70bcb568a1eb2d658e0b802c0",
  "parentHash": "0x6e884f814a2e00dd0652c9c8687126f3ea9df0f1404b755f8206e51ebf3668c9",
  "number": 80292,
  "timestamp": 1439483182,
  "nonce": "0xdbb4e779de4eb393",
  "difficulty": 2381708420602,
  "gasLimit": {
    "_hex": "0x2fefd8"
  },
  "gasUsed": {
    "_hex": "0x5208"
  },
  "miner": "0x05f74a38293C914C6B14a39f5d8dEa98f22E4FBA",
  "extraData": "0x",
  "transactions": [
    {
      "hash": "0x7bed7355a333fa7c3cf09c2e6443f469996c23cc5f79743c442c103e62e35e36",
      "blockHash": "0x646b7829f69fa4381c183f892997629673d276c70bcb568a1eb2d658e0b802c0",
      "blockNumber": 80292,
      "transactionIndex": 0,
      "confirmations": null,
      "from": "0x32Be343B94f860124dC4fEe278FDCBD38C102D88",
      "gasPrice": {
        "_hex": "0xd69b48315"
      },
      "gasLimit": {
        "_hex": "0x5208"
      },
      "to": "0xb794F5eA0ba39494cE839613fffBA74279579268",
      "value": {
        "_hex": "0xa968163f0a57b000000"
      },
      "nonce": 523,
      "data": "0x",
      "r": "0x408268aff125a5f970a667a3601c27a712b898fe5fb924e82c1cef987c61dee7",
      "s": "0x16352a4d2b3ea748dc51750ec82a194f787e3552219901d68b4f0a522abad7c2",
      "v": 27,
      "creates": null,
      "raw": "0xf87082020b850d69b4831582520894b794f5ea0ba39494ce839613fffba742795792688a0a968163f0a57b000000801ba0408268aff125a5f970a667a3601c27a712b898fe5fb924e82c1cef987c61dee7a016352a4d2b3ea748dc51750ec82a194f787e3552219901d68b4f0a522abad7c2",
      "networkId": 0,
      "chainId": 0
    }
  ]
}