{
  "hash": "0x0181b4746a1280e7af8bf0dd5af1d48f8c3f07db80342f4a9018ff14e835c56a",
  "parentHash": "0x7338664ddb7c9c20e59f8afe4df341ca8f94d211f19069937d92ef047c9981c7",
  "number": 60550,
  "timestamp": 1439157719,
  "nonce": "0xe5604ee988f00342",
  "difficulty": 1736396665173,
  "gasLimit": {
    "_hex": "0x2fefd8"
  },
  "gasUsed": {
    "_hex": "0x546c"
  },
  "miner": "0xf927a40C8B7F6E07c5af7FA2155B4864a4112B13",
  "extraData": "0x476574682f76312e302e312f6c696e75782f676f312e342e32",
  "transactions": [
    {
      "hash": "0x20f068f78e72a9f1d311988a46278421400e63de82b984765f49da17eecf4e6a",
      "blockHash": "0x0181b4746a1280e7af8bf0dd5af1d48f8c3f07db80342f4a9018ff14e835c56a",
      "blockNumber": 60550,
      "transactionIndex": 0,
      "confirmations": null,
      "from": "0x6dBE8aBFA1742806263981371Bf3D35590806b6E",
      "gasPrice": {
        "_hex": "0x106f114505d"
      },
      "gasLimit": {
        "_hex": "0x61a8"
      },
      "to": "0x2910543Af39abA0Cd09dBb2D50200b3E800A63D2",
      "value": {
        "_hex": "0xde0b6b3a7640000"
      },
      "nonce": 4,
      "data": "0x454e32564e57354d30",
      "r": "0x27cd9217745d0ee48f5644693d69aa6410646fbd73d8a53370c616c43a04f091",
      "s": "0x6d1c1a103c45ab9d5507631edd9a271a8226e31e24300399a0a6c4156d28f717",
      "v": 28,
      "creates": null,
      "raw": "0xf87604860106f114505d8261a8942910543af39aba0cd09dbb2d50200b3e800a63d2880de0b6b3a764000089454e32564e57354d301ca027cd9217745d0ee48f5644693d69aa6410646fbd73d8a53370c616c43a04f091a06d1c1a103c45ab9d5507631edd9a271a8226e31e24300399a0a6c4156d28f717",
      "networkId": 0,
      "chainId": 0
    }
  ]
}