{
  "hash": "0x48dfc6111e36c5079a2caf0fcedcdce38b41c1018756e67bd4a7a8830a0a25c2",
  "parentHash": "0xce3dfd4a09c423d96b51ff7aa7afdc22ef099aee7187ed0ebd1985788679320b",
  "number": 115674,
  "timestamp": 1440061186,
  "nonce": "0xd512ab05ec1ac9db",
  "difficulty": 4607395560125,
  "gasLimit": {
    "_hex": "0x2fefd8"
  },
  "gasUsed": {
    "_hex": "0x5208"
  },
  "miner": "0x0037ce3d4B7f8729C8607D8D0248252Be68202c0",
  "extraData": "0x476574682f76312e302e312f77696e646f77732f676f312e342e32",
  "transactions": [
    {
      "hash": "0x1808eb2b7aa568547b6b9274fced91eeef69477ddcf47bbab4064c042de9b5ce",
      "blockHash": "0x48dfc6111e36c5079a2caf0fcedcdce38b41c1018756e67bd4a7a8830a0a25c2",
      "blockNumber": 115674,
      "transactionIndex": 0,
      "confirmations": null,
      "from": "0x60a175bB691fEE8557a7b6D8eFC9E49889486f41",
      "gasPrice": {
        "_hex": "0xcd712face"
      },
      "gasLimit": {
        "_hex": "0x15f90"
      },
      "to": "0xBb7f43EDfd8bf08B022fEd5BD91e3f9dE7e74D09",
      "value": {
        "_hex": "0x8ac7230489e80000"
      },
      "nonce": 15,
      "data": "0x",
      "r": "0x833fe3628ef2cc57e0f7c2adccaa5ca3d5def3ef1d4f7f474a609decc3056f30",
      "s": "0x6e0b5f9d6fd557b5f7fc9db68ca1a36439762809ee30aa942cbd8982ba79d91a",
      "v": 27,
      "creates": null,
      "raw": "0xf86d0f850cd712face83015f9094bb7f43edfd8bf08b022fed5bd91e3f9de7e74d09888ac7230489e80000801ba0833fe3628ef2cc57e0f7c2adccaa5ca3d5def3ef1d4f7f474a609decc3056f30a06e0b5f9d6fd557b5f7fc9db68ca1a36439762809ee30aa942cbd8982ba79d91a",
      "networkId": 0,
      "chainId": 0
    }
  ]
}