{
  "hash": "0xeddd715d978fd1a86dc6928bd5a6f976316a8dee6de9ee09dac0977b5764c59d",
  "parentHash": "0x74084d38dd715641fd65c6a089658ce77269fc3dbc99567abcb911530a70b860",
  "number": 80064,
  "timestamp": 1439479549,
  "nonce": "0xcacd8fff353111a9",
  "difficulty": 2349431437977,
  "gasLimit": {
    "_hex": "0x2fefd8"
  },
  "gasUsed": {
    "_hex": "0xaa37"
  },
  "miner": "0xE300c4587D260cE22a677755Db6429B491A4309E",
  "extraData": "0x",
  "transactions": [
    {
      "hash": "0x586c9c2fc109ef8b3cbb094e0ef9abb204ef50fc2beb875a5f6ac81c339bc266",
      "blockHash": "0xeddd715d978fd1a86dc6928bd5a6f976316a8dee6de9ee09dac0977b5764c59d",
      "blockNumber": 80064,
      "transactionIndex": 0,
      "confirmations": null,
      "from": "0x87C5B5874A18B4306DF8a752a6C8cc3E82daFc19",
      "gasPrice": {
        "_hex": "0xfe2211b8d3"
      },
      "gasLimit": {
        "_hex": "0x493e0"
      },
      "to": "0xC4c51de1AbF5D60DBd329eC0F999Fd8f021ae9fC",
      "value": {
        "_hex": "0x0"
      },
      "nonce": 128,
      "data": "0x03750d9400000000000000000000000087c5b5874a18b4306df8a752a6c8cc3e82dafc196361740000000000000000000000000000000000000000000000000000000000",
      "r": "0x00d80d763a9dd24abe327f7fc55619c1df5dd428bc10e3aea52080bd47d0fb09",
      "s": "0x5bb52b5aca981a185f94b7ba6cc7975bef202eacb91c1261bd820119407805c5",
      "v": 28,
      "creates": null,
      "raw": "0xf8aa818085fe2211b8d3830493e094c4c51de1abf5d60dbd329ec0f999fd8f021ae9fc80b84403750d9400000000000000000000000087c5b5874a18b4306df8a752a6c8cc3e82dafc1963617400000000000000000000000000000000000000000000000000000000001c9fd80d763a9dd24abe327f7fc55619c1df5dd428bc10e3aea52080bd47d0fb09a05bb52b5aca981a185f94b7ba6cc7975bef202eacb91c1261bd820119407805c5",
      "networkId": 0,
      "chainId": 0
    }
  ]
}