{
  "hash": "0x3e3c1e9788d58b92e829fc6a49f6a114a7915f71a6010feb8927dfac04eadbfe",
  "parentHash": "0xc66cf17a3977fe5e032b9125b34107e6b81db11b6dec856cb6ccebf752212949",
  "number": 50450,
  "timestamp": 1438989475,
  "nonce": "0xc741d9eb12802c8f",
  "difficulty": 1507477857987,
  "gasLimit": {
    "_hex": "0x63b1c"
  },
  "gasUsed": {
    "_hex": "0x12082"
  },
  "miner": "0xf927a40C8B7F6E07c5af7FA2155B4864a4112B13",
  "extraData": "0x",
  "transactions": [
    {
      "hash": "0x97e65e4146f43f4bfdacff32e85af0ebc77d076f6a3ae3697126a2d81d2564c0",
      "blockHash": "0x3e3c1e9788d58b92e829fc6a49f6a114a7915f71a6010feb8927dfac04eadbfe",
      "blockNumber": 50450,
      "transactionIndex": 0,
      "confirmations": null,
      "from": "0xa14Cf6cEC1c6aAe4b608458F6e14692863A937Aa",
      "gasPrice": {
        "_hex": "0xdd4307355"
      },
      "gasLimit": {
        "_hex": "0x30d40"
      },
      "to": "0xA327075af2a223A1C83a36aDa1126afE7430f955",
      "value": {
        "_hex": "0x8ac7230489e80000"
      },
      "nonce": 2,
      "data": "0x",
      "r": "0x5a5f23cc21e4f1d11b38fae5adc70ec970ab99a151739d1aa1e4612adc3f47df",
      "s": "0x26cc025997ff4066f60d94eed91d87f81c372dc917ac85e7d4ee6bb15a60e5da",
      "v": 28,
      "creates": null,
      "raw": "0xf86d02850dd430735583030d4094a327075af2a223a1c83a36ada1126afe7430f955888ac7230489e80000801ca05a5f23cc21e4f1d11b38fae5adc70ec970ab99a151739d1aa1e4612adc3f47dfa026cc025997ff4066f60d94eed91d87f81c372dc917ac85e7d4ee6bb15a60e5da",
      "networkId": 0,
      "chainId": 0
    }
  ]
}