{
  "hash": "0xdf4838c046fed7acb719e24844c01b54b8a5d3e8cd6e43c0bd30531f3a48f8e3",
  "parentHash": "0x576a4016770f99b2dab1b07ed342062bf1965886974db9b6b37e97afbe76622e",
  "number": 80508,
  "timestamp": 1439486532,
  "nonce": "0xc74ad526af681f60",
  "difficulty": 2416791280954,
  "gasLimit": {
    "_hex": "0x2fefd8"
  },
  "gasUsed": {
    "_hex": "0xac20"
  },
  "miner": "0xbb7B8287f3F0a933474a79eAe42CBCa977791171",
  "extraData": "0x476574682f4c5649562f76312e302e312f6c696e75782f676f312e342e32",
  "transactions": [
    {
      "hash": "0x36e24cbf05b793a7349c905052b4e5ad116ce977004f4dafdea9286c5e396d60",
      "blockHash": "0xdf4838c046fed7acb719e24844c01b54b8a5d3e8cd6e43c0bd30531f3a48f8e3",
      "blockNumber": 80508,
      "transactionIndex": 0,
      "confirmations": null,
      "from": "0x87C5B5874A18B4306DF8a752a6C8cc3E82daFc19",
      "gasPrice": {
        "_hex": "0x106c1ae516d"
      },
      "gasLimit": {
        "_hex": "0x493e0"
      },
      "to": "0xC4c51de1AbF5D60DBd329eC0F999Fd8f021ae9fC",
      "value": {
        "_hex": "0x0"
      },
      "nonce": 228,
      "data": "0xbd66528a6b6b6b0000000000000000000000000000000000000000000000000000000000",
      "r": "0x160fe2a56257855d0279a9ac0e53be536efc17dff594e74608c25074b5153e56",
      "s": "0x1934dc96fff11e8c797aa16331c69fa5b079f69249259973061808739c8428b2",
      "v": 28,
      "creates": null,
      "raw": "0xf88b81e4860106c1ae516d830493e094c4c51de1abf5d60dbd329ec0f999fd8f021ae9fc80a4bd66528a6b6b6b00000000000000000000000000000000000000000000000000000000001ca0160fe2a56257855d0279a9ac0e53be536efc17dff594e74608c25074b5153e56a01934dc96fff11e8c797aa16331c69fa5b079f69249259973061808739c8428b2",
      "networkId": 0,
      "chainId": 0
    },
    {
      "hash": "0x07bcbea8b8446552ba6aa786f2225d3cc82ad0cefcef55d48ab54a9012d2c78b",
      "blockHash": "0xdf4838c046fed7acb719e24844c01b54b8a5d3e8cd6e43c0bd30531f3a48f8e3",
      "blockNumber": 80508,
      "transactionIndex": 1,
      "confirmations": null,
      "from": "0x3E3161F1EA2fBf126E79DA1801da9512B37988C9",
      "gasPrice": {
        "_hex": "0x10217d8efdc"
      },
      "gasLimit": {
        "_hex": "0x55f0"
      },
      "to": "0x2910543Af39abA0Cd09dBb2D50200b3E800A63D2",
      "value": {
        "_hex": "0x65a4da25d3016c00000"
      },
      "nonce": 1,
      "data": "0x454e47304e52564338",
      "r": "0x34558cbe0cb4bfa73c2023554d0fa28f01319f32b9099c4c00a68dd33aeac1fb",
      "s": "0x39c07f952d231b633990cb5d1461b78d298e0f965de67e98d81c35cdf415603b",
      "v": 27,
      "creates": null,
      "raw": "0xf8780186010217d8efdc8255f0942910543af39aba0cd09dbb2d50200b3e800a63d28a065a4da25d3016c0000089454e47304e525643381ba034558cbe0cb4bfa73c2023554d0fa28f01319f32b9099c4c00a68dd33aeac1fba039c07f952d231b633990cb5d1461b78d298e0f965de67e98d81c35cdf415603b",
      "networkId": 0,
      "chainId": 0
    }
  ]
}