{
  "hash": "0x5a4ea9f09501054a013fa37bb874652413e4dc97b96958f6f3c823662c6db31d",
  "parentHash": "0x2976822f550174a1f7ee0e763c86238630c2ff6ed77a97cb04b3586a8eaeb7e7",
  "number": 122216,
  "timestamp": 1440190193,
  "nonce": "0x3d61846b67a3dbdc",
  "difficulty": 4479624041118,
  "gasLimit": {
    "_hex": "0x2fefd8"
  },
  "gasUsed": {
    "_hex": "0xa410"
  },
  "miner": "0x52bc44d5378309EE2abF1539BF71dE1b7d7bE3b5",
  "extraData": "0xd783010002844765746887676f312e342e32856c696e7578",
  "transactions": [
    {
      "hash": "0x854a5a699444f9377dece7cf54cea3e0345e918edc540794e520d7eb98e75c1b",
      "blockHash": "0x5a4ea9f09501054a013fa37bb874652413e4dc97b96958f6f3c823662c6db31d",
      "blockNumber": 122216,
      "transactionIndex": 0,
      "confirmations": null,
      "from": "0xee8bB0274117C9A1D3695E19bea188c382EC1A8E",
      "gasPrice": {
        "_hex": "0xd6654e6cb"
      },
      "gasLimit": {
        "_hex": "0x15f90"
      },
      "to": "0x9b0a028EAfDeCdE3AFc0fD00B7937098388b7C8a",
      "value": {
        "_hex": "0x340958fe7e12335e8"
      },
      "nonce": 2,
      "data": "0x",
      "r": "0xb9ffa4256043a09397178f0901b6d6f929b53cfd26826a6d6ff34c1feadeeb09",
      "s": "0x266b4cac39dd98c0e4097ed0eaeedec1fb4e72a0dfa9c464b0ac221ff8d2ed7b",
      "v": 28,
      "creates": null,
      "raw": "0xf86e02850d6654e6cb83015f90949b0a028eafdecde3afc0fd00b7937098388b7c8a890340958fe7e12335e8801ca0b9ffa4256043a09397178f0901b6d6f929b53cfd26826a6d6ff34c1feadeeb09a0266b4cac39dd98c0e4097ed0eaeedec1fb4e72a0dfa9c464b0ac221ff8d2ed7b",
      "networkId": 0,
      "chainId": 0
    },
    {
      "hash": "0x50962282a2df5f8db4b5921e08bdc3d551aa9302de7a1b9fe0d5771a2e3dc248",
      "blockHash": "0x5a4ea9f09501054a013fa37bb874652413e4dc97b96958f6f3c823662c6db31d",
      "blockNumber": 122216,
      "transactionIndex": 1,
      "confirmations": null,
      "from": "0x120A270bbC009644e35F0bB6ab13f95b8199c4ad",
      "gasPrice": {
        "_hex": "0xba43b7400"
      },
      "gasLimit": {
        "_hex": "0x3d090"
      },
      "to": "0x739f8ab33a41B67952f16778e3CC6D2dEcC3a2d5",
      "value": {
        "_hex": "0x3635c9adc5dea00000"
      },
      "nonce": 991,
      "data": "0x",
      "r": "0x586c12298ab82803f72bfb40c7b2f894fd8f6e28d1f61d5455541ccaf72bf412",
      "s": "0x4aa11bd9a44a9714c53df828769b72e12c14c1f637dd16dc42048008bccf1c82",
      "v": 28,
      "creates": null,
      "raw": "0xf8708203df850ba43b74008303d09094739f8ab33a41b67952f16778e3cc6d2decc3a2d5893635c9adc5dea00000801ca0586c12298ab82803f72bfb40c7b2f894fd8f6e28d1f61d5455541ccaf72bf412a04aa11bd9a44a9714c53df828769b72e12c14c1f637dd16dc42048008bccf1c82",
      "networkId": 0,
      "chainId": 0
    }
  ]
}