{
  "hash": "0x0112d593236c77a103f9931079bb97bf3994b04cca729e16be61188cde985e2d",
  "parentHash": "0xf1df489bd98d035075e9df3affbc8d3cfa6e0ec28b88bb191712acfebbda3daf",
  "number": 92992,
  "timestamp": 1439680485,
  "nonce": "0x86e4ecaf0e0172e5",
  "difficulty": 3647487245544,
  "gasLimit": {
    "_hex": "0x2fefd8"
  },
  "gasUsed": {
    "_hex": "0x5208"
  },
  "miner": "0x790b8a3cE86E707ED0eD32bF89B3269692a23CC1",
  "extraData": "0xd783010001844765746887676f312e342e32856c696e7578",
  "transactions": [
    {
      "hash": "0x963b7935f3c3c23a91b44563ffe3bceab42a49b50b50947b6288ff4fca7ed45e",
      "blockHash": "0x0112d593236c77a103f9931079bb97bf3994b04cca729e16be61188cde985e2d",
      "blockNumber": 92992,
      "transactionIndex": 0,
      "confirmations": null,
      "from": "0x120A270bbC009644e35F0bB6ab13f95b8199c4ad",
      "gasPrice": {
        "_hex": "0xced38c18a"
      },
      "gasLimit": {
        "_hex": "0x3d090"
      },
      "to": "0x6bb0A71c0b9EDB37fCEe7973D687012cb1149745",
      "value": {
        "_hex": "0xd02ab486cedc0000"
      },
      "nonce": 556,
      "data": "0x",
      "r": "0xfdaf72773e857e6ad2918972f6db7f0a82b2d762e4f337798673bfde053ac6da",
      "s": "0x25f165677dd3a3fd80fc0906f2f100e212628222aed45fb11347c52d589dc3b5",
      "v": 28,
      "creates": null,
      "raw": "0xf86f82022c850ced38c18a8303d090946bb0a71c0b9edb37fcee7973d687012cb114974588d02ab486cedc0000801ca0fdaf72773e857e6ad2918972f6db7f0a82b2d762e4f337798673bfde053ac6daa025f165677dd3a3fd80fc0906f2f100e212628222aed45fb11347c52d589dc3b5",
      "networkId": 0,
      "chainId": 0
    }
  ]
}