{
  "hash": "0x9be9887bd474a776f6df131aeb2021041235dcd75f415e7cd2e9941e8f70d4b6",
  "parentHash": "0x86dc872d724232414ca74b2c791d951d921473483d1822a3ec149c8cd7dcdd36",
  "number": 102244,
  "timestamp": 1439835042,
  "nonce": "0x46eb171d82f1c4e6",
  "difficulty": 3928001995920,
  "gasLimit": {
    "_hex": "0x2fefd8"
  },
  "gasUsed": {
    "_hex": "0x5208"
  },
  "miner": "0x15D8B2E0f97030dE1a38698C07307C38B2A55037",
  "extraData": "0x476574682f76312e302e302f77696e646f77732f676f312e342e32",
  "transactions": [
    {
      "hash": "0x67b74dedf766224d43ba2f950631f0fd1d8df3ecca9290cf47f870f0b885add3",
      "blockHash": "0x9be9887bd474a776f6df131aeb2021041235dcd75f415e7cd2e9941e8f70d4b6",
      "blockNumber": 102244,
      "transactionIndex": 0,
      "confirmations": null,
      "from": "0x2910543Af39abA0Cd09dBb2D50200b3E800A63D2",
      "gasPrice": {
        "_hex": "0xcb2223371"
      },
      "gasLimit": {
        "_hex": "0x5208"
      },
      "to": "0x6De181Fc4C140FA31F196e5393516c49EEeBdAd3",
      "value": {
        "_hex": "0x2bb16d7627ccf78000"
      },
      "nonce": 990,
      "data": "0x",
      "r": "0x59e3dcb573fed11d9a65d38366f45c186a84443324f37f56f8549d7418ebe20e",
      "s": "0x3da7c468801c263cb674470b6c4caae7f859a81c79bb18c1349851464f3c22bb",
      "v": 27,
      "creates": null,
      "raw": "0xf86f8203de850cb2223371825208946de181fc4c140fa31f196e5393516c49eeebdad3892bb16d7627ccf78000801ba059e3dcb573fed11d9a65d38366f45c186a84443324f37f56f8549d7418ebe20ea03da7c468801c263cb674470b6c4caae7f859a81c79bb18c1349851464f3c22bb",
      "networkId": 0,
      "chainId": 0
    }
  ]
}