{
  "hash": "0x3e67fa75df572e15d9dc3d2b38eed2843ed1d61ef9c3eb5f075c4281b57a35dd",
  "parentHash": "0xc6121d5105f89221068b7d5783e7e3d473e468e69520cc98f49336b19723447b",
  "number": 69288,
  "timestamp": 1439301303,
  "nonce": "0xc102a309910cf669",
  "difficulty": 2065918939217,
  "gasLimit": {
    "_hex": "0x2fefd8"
  },
  "gasUsed": {
    "_hex": "0x684f"
  },
  "miner": "0x9746c7e1ef2bd21FF3997fa467593a89cb852BD0",
  "extraData": "0x476574682f76312e302e312f77696e646f77732f676f312e342e32",
  "transactions": [
    {
      "hash": "0x1027a4d9fe2cdf9ea94fa2dd134cc69130b0d05b3f058979b78b8b24490ab4e6",
      "blockHash": "0x3e67fa75df572e15d9dc3d2b38eed2843ed1d61ef9c3eb5f075c4281b57a35dd",
      "blockNumber": 69288,
      "transactionIndex": 0,
      "confirmations": null,
      "from": "0x8bae48F227d978d084B009b775222BAaF61ed9fe",
      "gasPrice": {
        "_hex": "0xba43b7400"
      },
      "gasLimit": {
        "_hex": "0x6864"
      },
      "to": "0xad5e5A5Bc4654dbeF0d5CABD7ABeB426769C073a",
      "value": {
        "_hex": "0x0"
      },
      "nonce": 12,
      "data": "0x224993c2000000000000000000000000000000000000000000000000000000000000003c",
      "r": "0x7829a27d87b4e17b66c753fa84e653e4545fbf78e139eea358c6f6fd1f464189",
      "s": "0x35e88596dfc237e6fd6ceb7d6da0d38cdea19968c4adfbc83a5ed41b2df24cea",
      "v": 28,
      "creates": null,
      "raw": "0xf8880c850ba43b740082686494ad5e5a5bc4654dbef0d5cabd7abeb426769c073a80a4224993c2000000000000000000000000000000000000000000000000000000000000003c1ca07829a27d87b4e17b66c753fa84e653e4545fbf78e139eea358c6f6fd1f464189a035e88596dfc237e6fd6ceb7d6da0d38cdea19968c4adfbc83a5ed41b2df24cea",
      "networkId": 0,
      "chainId": 0
    }
  ]
}