{
  "hash": "0x7d2a9868d8a1ec26e55d3f3830329c96731b23dd1cb9d9f9d744f44c224cacef",
  "parentHash": "0x0b2efaec3f2e719b896c2b0eb68ee39c859e96c38a33ca174b7ba2609e6138f8",
  "number": 64535,
  "timestamp": 1439222437,
  "nonce": "0xcaa4f51444c23cd1",
  "difficulty": 1879351714869,
  "gasLimit": {
    "_hex": "0x2fefd8"
  },
  "gasUsed": {
    "_hex": "0xf618"
  },
  "miner": "0x0037ce3d4B7f8729C8607D8D0248252Be68202c0",
  "extraData": "0x476574682f76312e302e312f77696e646f77732f676f312e342e32",
  "transactions": [
    {
      "hash": "0x66851c73010a1198fcbcd01ddc6f2872023a888df98facf84bd49925e0999bbf",
      "blockHash": "0x7d2a9868d8a1ec26e55d3f3830329c96731b23dd1cb9d9f9d744f44c224cacef",
      "blockNumber": 64535,
      "transactionIndex": 0,
      "confirmations": null,
      "from": "0x2ee2a55a9770Aa821751F881F6B4e81a994153D6",
      "gasPrice": {
        "_hex": "0xba43b7400"
      },
      "gasLimit": {
        "_hex": "0x5208"
      },
      "to": "0x6747f922385c9a6F9cfDf095F34345257DD597bE",
      "value": {
        "_hex": "0x33342eef4a3000"
      },
      "nonce": 0,
      "data": "0x",
      "r": "0x9394226ce78113979c861ada33cd687c04bca3a1d05959af62b615df9274f428",
      "s": "0x1279cb9bedd30ddaf5dd09898dfd3e37875a8bd66ddd40fc7113de4a6b3783e8",
      "v": 28,
      "creates": null,
      "raw": "0xf86b80850ba43b7400825208946747f922385c9a6f9cfdf095f34345257dd597be8733342eef4a3000801ca09394226ce78113979c861ada33cd687c04bca3a1d05959af62b615df9274f428a01279cb9bedd30ddaf5dd09898dfd3e37875a8bd66ddd40fc7113de4a6b3783e8",
      "networkId": 0,
      "chainId": 0
    },
    {
      "hash": "0xf274e27d50652532ae36ae7a8a5513a8a984732aafa855fd80b31c60e61330c5",
      "blockHash": "0x7d2a9868d8a1ec26e55d3f3830329c96731b23dd1cb9d9f9d744f44c224cacef",
      "blockNumber": 64535,
      "transactionIndex": 1,
      "confirmations": null,
      "from": "0xAB54437bD27bB7e6914e9B36927F5a128Bc1487f",
      "gasPrice": {
        "_hex": "0xba43b7400"
      },
      "gasLimit": {
        "_hex": "0x5208"
      },
      "to": "0x6747f922385c9a6F9cfDf095F34345257DD597bE",
      "value": {
        "_hex": "0x33342eef4a3000"
      },
      "nonce": 0,
      "data": "0x",
      "r": "0x59725accb0e5b83c7c7e6ea4d96aef3bc70609b57362c0ecfded65755db61980",
      "s": "0x05793575617f1bd426edd5fa311331abaf092a81df26ec4852aad71a28bf4632",
      "v": 27,
      "creates": null,
      "raw": "0xf86b80850ba43b7400825208946747f922385c9a6f9cfdf095f34345257dd597be8733342eef4a3000801ba059725accb0e5b83c7c7e6ea4d96aef3bc70609b57362c0ecfded65755db61980a005793575617f1bd426edd5fa311331abaf092a81df26ec4852aad71a28bf4632",
      "networkId": 0,
      "chainId": 0
    },
    {
      "hash": "0xbe3e68d679b49899d3362dbabe167a64c1d46124392f3495b72cca4c97685b91",
      "blockHash": "0x7d2a9868d8a1ec26e55d3f3830329c96731b23dd1cb9d9f9d744f44c224cacef",
      "blockNumber": 64535,
      "transactionIndex": 2,
      "confirmations": null,
      "from": "0x365e172fF4921b034AA2E3ED21431EBf56f12Ab2",
      "gasPrice": {
        "_hex": "0xba43b7400"
      },
      "gasLimit": {
        "_hex": "0x5208"
      },
      "to": "0x6747f922385c9a6F9cfDf095F34345257DD597bE",
      "value": {
        "_hex": "0x33342eef4a3000"
      },
      "nonce": 0,
      "data": "0x",
      "r": "0x1c7d3060d9149abbff9a6a1b2e0288efa1a8ca515472740a3cf107c5333feff7",
      "s": "0x10008a6683605133286bd57545e42086c1c1e98e3d99800a1998869644c96c1f",
      "v": 27,
      "creates": null,
      "raw": "0xf86b80850ba43b7400825208946747f922385c9a6f9cfdf095f34345257dd597be8733342eef4a3000801ba01c7d3060d9149abbff9a6a1b2e0288efa1a8ca515472740a3cf107c5333feff7a010008a6683605133286bd57545e42086c1c1e98e3d99800a1998869644c96c1f",
      "networkId": 0,
      "chainId": 0
    }
  ]
}