{
  "hash": "0x99a2a91994ac808ac93967b53744b82ac17f6613b530063698156c75e9add542",
  "parentHash": "0x3e75605638d9d548b0a6cf4883ebd50267f19c6486e762dae8f7261b3c5fc5a7",
  "number": 96402,
  "timestamp": 1439739839,
  "nonce": "0xd15f4fb075e60026",
  "difficulty": 3663851123666,
  "gasLimit": {
    "_hex": "0x2fefd8"
  },
  "gasUsed": {
    "_hex": "0x5208"
  },
  "miner": "0xbb7B8287f3F0a933474a79eAe42CBCa977791171",
  "extraData": "0x476574682f4c5649562f76312e302e312f6c696e75782f676f312e342e32",
  "transactions": [
    {
      "hash": "0x60050af0455cd3448700d734a3cbc23951b8dcb73df249f84d834eb3a409cbb5",
      "blockHash": "0x99a2a91994ac808ac93967b53744b82ac17f6613b530063698156c75e9add542",
      "blockNumber": 96402,
      "transactionIndex": 0,
      "confirmations": null,
      "from": "0x11Ff1aa994C8e7D164E7Ee99Ce376549Db7a1A1D",
      "gasPrice": {
        "_hex": "0xd1f217cbf"
      },
      "gasLimit": {
        "_hex": "0x15f90"
      },
      "to": "0x1147fF21D549d7a7e5581827E1270fD6399EE943",
      "value": {
        "_hex": "0xd40d770b07f8000"
      },
      "nonce": 0,
      "data": "0x",
      "r": "0x240681e74e5c017e58cc99cff759b45408869fe4f55cb31b45b9915d60695966",
      "s": "0x261ac3bd526d1000019957dd2ec18a496acdcd4e0bbe0eee10e0b52f75bcf894",
      "v": 27,
      "creates": null,
      "raw": "0xf86d80850d1f217cbf83015f90941147ff21d549d7a7e5581827e1270fd6399ee943880d40d770b07f8000801ba0240681e74e5c017e58cc99cff759b45408869fe4f55cb31b45b9915d60695966a0261ac3bd526d1000019957dd2ec18a496acdcd4e0bbe0eee10e0b52f75bcf894",
      "networkId": 0,
      "chainId": 0
    }
  ]
}