{
  "hash": "0x1431e4dde1b10d3771d39b9b7870d126a8b8821e4b906cb9b55e345cf380a6ec",
  "parentHash": "0x92979d3a9b99526864e840112fa80036b4640b3577fc88491849d4126222e65b",
  "number": 108299,
  "timestamp": 1439937976,
  "nonce": "0x32e12065dff402cd",
  "difficulty": 4351133727704,
  "gasLimit": {
    "_hex": "0x2fefd8"
  },
  "gasUsed": {
    "_hex": "0x18326"
  },
  "miner": "0x580992B51e3925e23280EfB93d3047C82f17E038",
  "extraData": "0x476574682f76312e302e312f6c696e75782f676f312e342e32",
  "transactions": [
    {
      "hash": "0x0adc4760d8eb61dee64a48db7f2ff4c0d4611fddb344419442152866444cf04d",
      "blockHash": "0x1431e4dde1b10d3771d39b9b7870d126a8b8821e4b906cb9b55e345cf380a6ec",
      "blockNumber": 108299,
      "transactionIndex": 0,
      "confirmations": null,
      "from": "0xf32866D5cE9a9b5673e076be48AbCd6ED48ADe78",
      "gasPrice": {
        "_hex": "0xd2a99bc32"
      },
      "gasLimit": {
        "_hex": "0x249f0"
      },
      "to": "0xE28e72FCf78647ADCe1F1252F240bbfaebD63BcC",
      "value": {
        "_hex": "0xde0b6b3a7640000"
      },
      "nonce": 1,
      "data": "0x45466f3a",
      "r": "0xaeb326838a2d7b7ca7037f57a5b0d3bfa074480401c4cd9c6656aa5f3a6fc4d6",
      "s": "0x0c75d4c2a358e6ebea0700745b3d4d875a8a377e17d87f9f432370159b750c66",
      "v": 27,
      "creates": null,
      "raw": "0xf87101850d2a99bc32830249f094e28e72fcf78647adce1f1252f240bbfaebd63bcc880de0b6b3a76400008445466f3a1ba0aeb326838a2d7b7ca7037f57a5b0d3bfa074480401c4cd9c6656aa5f3a6fc4d6a00c75d4c2a358e6ebea0700745b3d4d875a8a377e17d87f9f432370159b750c66",
      "networkId": 0,
      "chainId": 0
    }
  ]
}