{
  "hash": "0x166b92b39354f58145d7b950e840b2f20566a95a71bddb6a62738808d10efc02",
  "parentHash": "0x4b220cfa1c45ef3d63e725d651781dfcddd377651d6bedb3f2effeabfa7266da",
  "number": 108659,
  "timestamp": 1439944167,
  "nonce": "0xd227507944bb7369",
  "difficulty": 4329753924221,
  "gasLimit": {
    "_hex": "0x2fefd8"
  },
  "gasUsed": {
    "_hex": "0x5208"
  },
  "miner": "0x88D74a59454F6cF3B51ef6b9136AFb6b9D405A88",
  "extraData": "0x",
  "transactions": [
    {
      "hash": "0xc235bc7c31bc214e77a6938ceb14971ea7cb1205de77479cefeb097f701e55dc",
      "blockHash": "0x166b92b39354f58145d7b950e840b2f20566a95a71bddb6a62738808d10efc02",
      "blockNumber": 108659,
      "transactionIndex": 0,
      "confirmations": null,
      "from": "0x2128E8d8db402ba3022732952487031Dd5D68c1F",
      "gasPrice": {
        "_hex": "0xd0bd72968"
      },
      "gasLimit": {
        "_hex": "0x5208"
      },
      "to": "0x32Be343B94f860124dC4fEe278FDCBD38C102D88",
      "value": {
        "_hex": "0x56bc33a408e0a8000"
      },
      "nonce": 1,
      "data": "0x",
      "r": "0x9da19347b1e7a82f4dca0de057bfe742dd5c649b1caf80a20a145baf5dd20a5d",
      "s": "0x08b588c6a65afed5f07562e980d0f0e76ed7e27139b05a8d03e6daeda9db785d",
      "v": 27,
      "creates": null,
      "raw": "0xf86d01850d0bd729688252089432be343b94f860124dc4fee278fdcbd38c102d8889056bc33a408e0a8000801ba09da19347b1e7a82f4dca0de057bfe742dd5c649b1caf80a20a145baf5dd20a5da008b588c6a65afed5f07562e980d0f0e76ed7e27139b05a8d03e6daeda9db785d",
      "networkId": 0,
      "chainId": 0
    }
  ]
}