{
  "hash": "0x3ed0b66ab86abc91c6d878886908a2c928e2e7dc087f02949adce2a9bee0b9c8",
  "parentHash": "0xa16dc7f28426015c950849f1209389adc82fa0cd5dd7fd309565ae14cc614c08",
  "number": 119329,
  "timestamp": 1440140936,
  "nonce": "0xe327de8c300656bc",
  "difficulty": 4409538335908,
  "gasLimit": {
    "_hex": "0x2fefd8"
  },
  "gasUsed": {
    "_hex": "0xf618"
  },
  "miner": "0xcf00A85f3826941e7A25BFcF9Aac575d40410852",
  "extraData": "0x",
  "transactions": [
    {
      "hash": "0xc8734efcbed0af65c8aab771049bc6534fae3efb66a036ae75f3b11a0a9add1d",
      "blockHash": "0x3ed0b66ab86abc91c6d878886908a2c928e2e7dc087f02949adce2a9bee0b9c8",
      "blockNumber": 119329,
      "transactionIndex": 0,
      "confirmations": null,
      "from": "0xe6A7a1d47ff21B6321162AEA7C6CB457D5476Bca",
      "gasPrice": {
        "_hex": "0xba43b7400"
      },
      "gasLimit": {
        "_hex": "0x55f0"
      },
      "to": "0x0F7606315036EF870B5D92Cd9e52b8d4f771a7eA",
      "value": {
        "_hex": "0x16df94127400f990"
      },
      "nonce": 5971,
      "data": "0x",
      "r": "0xe3dee7568b5fbb60001eb0139f179b1582c8df12f2ca3c2aacaabd6ca0d3fdfb",
      "s": "0x4de95b010bc3e1eeaf0d8f0417b8fcb77e3097317e86b9e5a5ce2c19038724df",
      "v": 28,
      "creates": null,
      "raw": "0xf86e821753850ba43b74008255f0940f7606315036ef870b5d92cd9e52b8d4f771a7ea8816df94127400f990801ca0e3dee7568b5fbb60001eb0139f179b1582c8df12f2ca3c2aacaabd6ca0d3fdfba04de95b010bc3e1eeaf0d8f0417b8fcb77e3097317e86b9e5a5ce2c19038724df",
      "networkId": 0,
      "chainId": 0
    },
    {
      "hash": "0x989c2ad9614e6776b1a5f079edb515ee42c0ae8a27ff7c9771f9063b0dd2f41b",
      "blockHash": "0x3ed0b66ab86abc91c6d878886908a2c928e2e7dc087f02949adce2a9bee0b9c8",
      "blockNumber": 119329,
      "transactionIndex": 1,
      "confirmations": null,
      "from": "0xe6A7a1d47ff21B6321162AEA7C6CB457D5476Bca",
      "gasPrice": {
        "_hex": "0xba43b7400"
      },
      "gasLimit": {
        "_hex": "0x55f0"
      },
      "to": "0xDd087A46e53FdDCe3d8FF96970235ae746b77D5c",
      "value": {
        "_hex": "0x16e35d2da4ecfe40"
      },
      "nonce": 5972,
      "data": "0x",
      "r": "0xe789b1a782d42f40394f3d3882e35d67f524165c17045405c92aa3b6ee6d4cc6",
      "s": "0x31ba4091c5531a3d0838919f849d503a267a69a7620eb7fe0444b1c856411e4f",
      "v": 27,
      "creates": null,
      "raw": "0xf86e821754850ba43b74008255f094dd087a46e53fddce3d8ff96970235ae746b77d5c8816e35d2da4ecfe40801ba0e789b1a782d42f40394f3d3882e35d67f524165c17045405c92aa3b6ee6d4cc6a031ba4091c5531a3d0838919f849d503a267a69a7620eb7fe0444b1c856411e4f",
      "networkId": 0,
      "chainId": 0
    },
    {
      "hash": "0xf364fd0d230f4a8a5a48c13c3241cd3096382f5e58ce36ed6c1958452365dfd3",
      "blockHash": "0x3ed0b66ab86abc91c6d878886908a2c928e2e7dc087f02949adce2a9bee0b9c8",
      "blockNumber": 119329,
      "transactionIndex": 2,
      "confirmations": null,
      "from": "0xe6A7a1d47ff21B6321162AEA7C6CB457D5476Bca",
      "gasPrice": {
        "_hex": "0xba43b7400"
      },
      "gasLimit": {
        "_hex": "0x55f0"
      },
      "to": "0x7903428Eb39b4da60a93f8FCB5228b3b431b7B52",
      "value": {
        "_hex": "0x17184c6ebf27eff8"
      },
      "nonce": 5973,
      "data": "0x",
      "r": "0x39a106b424e5b1385ab5276ce9eb45a0d805cee6fdca4726ffd07baa2985e000",
      "s": "0x2c73e0a77130e507ca96dab0534e21f8b053f27e1aa958b3cc1e1cd69908a0de",
      "v": 28,
      "creates": null,
      "raw": "0xf86e821755850ba43b74008255f0947903428eb39b4da60a93f8fcb5228b3b431b7b528817184c6ebf27eff8801ca039a106b424e5b1385ab5276ce9eb45a0d805cee6fdca4726ffd07baa2985e000a02c73e0a77130e507ca96dab0534e21f8b053f27e1aa958b3cc1e1cd69908a0de",
      "networkId": 0,
      "chainId": 0
    }
  ]
}