{
  "hash": "0x864a930bb3b49330a2e6c9fec6167906df573794fadcc42cfb77637915dc732c",
  "parentHash": "0x686a709232e38a1252207031a55c998d39f636619d09c82a31b54dbc3a0f9a8f",
  "number": 71206,
  "timestamp": 1439332407,
  "nonce": "0xde64b9525e3f6d2f",
  "difficulty": 2145628317464,
  "gasLimit": {
    "_hex": "0x2fefd8"
  },
  "gasUsed": {
    "_hex": "0xe5ba"
  },
  "miner": "0xB4f6A8f7Cd91Cd4bcADcc0a20e417c392E5f50A4",
  "extraData": "0x",
  "transactions": [
    {
      "hash": "0x71fb1fc828115e0656c2e480c6f1b121618ec856d72efb74a52768aeaed57330",
      "blockHash": "0x864a930bb3b49330a2e6c9fec6167906df573794fadcc42cfb77637915dc732c",
      "blockNumber": 71206,
      "transactionIndex": 0,
      "confirmations": null,
      "from": "0x17580B766f7453525ca4C6A88b01b50570EA088C",
      "gasPrice": {
        "_hex": "0xd61d2b679"
      },
      "gasLimit": {
        "_hex": "0x61a80"
      },
      "to": "0x5Fe5B7546D1628f7348B023A0393de1FC825A4fD",
      "value": {
        "_hex": "0x1bc16d674ec80000"
      },
      "nonce": 118,
      "data": "0xb595b8b50000000000000000000000000000000000000000000000000000000000000000",
      "r": "0x01c154fdd6fc9e4f394e3fa8b74bd3d8883f5a383517272da8dc7e42bfde8584",
      "s": "0x4c33dda835e053d5dc42a5702a7e67e41c7e5a2579de2c12bc89acd1ad4b5a70",
      "v": 28,
      "creates": null,
      "raw": "0xf89176850d61d2b67983061a80945fe5b7546d1628f7348b023a0393de1fc825a4fd881bc16d674ec80000a4b595b8b500000000000000000000000000000000000000000000000000000000000000001ca001c154fdd6fc9e4f394e3fa8b74bd3d8883f5a383517272da8dc7e42bfde8584a04c33dda835e053d5dc42a5702a7e67e41c7e5a2579de2c12bc89acd1ad4b5a70",
      "networkId": 0,
      "chainId": 0
    },
    {
      "hash": "0xbc5942a0e8a3ec819b7260dfb050f4bddafbec558239cac5722f21aa9acee304",
      "blockHash": "0x864a930bb3b49330a2e6c9fec6167906df573794fadcc42cfb77637915dc732c",
      "blockNumber": 71206,
      "transactionIndex": 1,
      "confirmations": null,
      "from": "0x617Ff2CC803e31C9082233b825D025BE3f7b1056",
      "gasPrice": {
        "_hex": "0xce807851d"
      },
      "gasLimit": {
        "_hex": "0x15f90"
      },
      "to": "0xdB6661457cC742E155bb2ca59EF030d4827D7305",
      "value": {
        "_hex": "0xde0b6b3a7640000"
      },
      "nonce": 2,
      "data": "0x",
      "r": "0xe323cb14be5db4234cbf961e47da9a0c3850aa9edd3a7fbaeac0c4c915f7b2f5",
      "s": "0x109c2414ed58fa4d1912685af8ff2716a7448dbc726442dd21a4b19e7a0ee8fb",
      "v": 27,
      "creates": null,
      "raw": "0xf86d02850ce807851d83015f9094db6661457cc742e155bb2ca59ef030d4827d7305880de0b6b3a7640000801ba0e323cb14be5db4234cbf961e47da9a0c3850aa9edd3a7fbaeac0c4c915f7b2f5a0109c2414ed58fa4d1912685af8ff2716a7448dbc726442dd21a4b19e7a0ee8fb",
      "networkId": 0,
      "chainId": 0
    }
  ]
}