{
  "hash": "0x8f2f4b2960ade0c5c76b0030835fbf75b55415f25b388293d9b18c359cb2d626",
  "parentHash": "0xe27fb38cf603d1111e443b0d88644bf025b1aeaf16a5ac5ab3a97fb336c95901",
  "number": 52981,
  "timestamp": 1439030624,
  "nonce": "0x16bd5567f0e08303",
  "difficulty": 1567821423284,
  "gasLimit": {
    "_hex": "0x1d154d"
  },
  "gasUsed": {
    "_hex": "0x5208"
  },
  "miner": "0x62b0559efe3a073EDfe78bBe7CB491A6C65F0806",
  "extraData": "0x687474703a2f2f692e696d6775722e636f6d2f4a7a5964526b652e706e67",
  "transactions": [
    {
      "hash": "0x472eee287e4517feaa2e39520f7d351b6a1d39fcd3fbcbe1fab51cd177168061",
      "blockHash": "0x8f2f4b2960ade0c5c76b0030835fbf75b55415f25b388293d9b18c359cb2d626",
      "blockNumber": 52981,
      "transactionIndex": 0,
      "confirmations": null,
      "from": "0xC6Bf5B6558f2eE21F2E43d9fF9B5408A0Cb89413",
      "gasPrice": {
        "_hex": "0xccd73943e"
      },
      "gasLimit": {
        "_hex": "0x15f90"
      },
      "to": "0x33A3f479f6c3e7F91128348490D1f7E8D2A0FAb5",
      "value": {
        "_hex": "0x3782dace9d900000"
      },
      "nonce": 5,
      "data": "0x",
      "r": "0x0918f75e7b5209f09625720401f617aad8a14d790f6ab423528f54e58206462f",
      "s": "0x1eee9adf2e3ad8751feeb800a3ad91ebfda0e13f72d4e9f8ee10eafbc7e2cbee",
      "v": 27,
      "creates": null,
      "raw": "0xf86d05850ccd73943e83015f909433a3f479f6c3e7f91128348490d1f7e8d2a0fab5883782dace9d900000801ba00918f75e7b5209f09625720401f617aad8a14d790f6ab423528f54e58206462fa01eee9adf2e3ad8751feeb800a3ad91ebfda0e13f72d4e9f8ee10eafbc7e2cbee",
      "networkId": 0,
      "chainId": 0
    }
  ]
}