{
  "hash": "0xa7270a6b6e2427ee2539514ae05175b64431be47032fdaceba566185e69e3451",
  "parentHash": "0x2b2542ce9afc22f7fcf17111f99ae26f11f9731666ed8575eeb6aaf1ae13f0cf",
  "number": 122211,
  "timestamp": 1440190068,
  "nonce": "0x14d330dda5c463ea",
  "difficulty": 4486193473359,
  "gasLimit": {
    "_hex": "0x2fefd8"
  },
  "gasUsed": {
    "_hex": "0x52a5"
  },
  "miner": "0x9D551f41feD6FC27B719777c224DfeCcE170004d",
  "extraData": "0x476574682f76312e302e322d61303330336666342f6c696e75782f676f312e34",
  "transactions": [
    {
      "hash": "0x38131a72523c3f2b6c9c57c90d4f6c1aef1fa3a8c89d97a238d56da8413dd1e1",
      "blockHash": "0xa7270a6b6e2427ee2539514ae05175b64431be47032fdaceba566185e69e3451",
      "blockNumber": 122211,
      "transactionIndex": 0,
      "confirmations": null,
      "from": "0xD007C3Ce0bFCFE50559e15a3737C236f8Fa15BbE",
      "gasPrice": {
        "_hex": "0xba43b7400"
      },
      "gasLimit": {
        "_hex": "0x7a120"
      },
      "to": "0x3DfFFfc010d080F35887154454b5518023c7Cd51",
      "value": {
        "_hex": "0x38d7ea4c68000"
      },
      "nonce": 11,
      "data": "0x",
      "r": "0x5ea8c7b1db123bec916bf121b181d4ebe97b719af8fb2315d2b6757f8a01c969",
      "s": "0x50eefac9c1863623ba6ca7be11a49da96f979bfe8ee4f89359c64f7c118623b0",
      "v": 28,
      "creates": null,
      "raw": "0xf86c0b850ba43b74008307a120943dffffc010d080f35887154454b5518023c7cd5187038d7ea4c68000801ca05ea8c7b1db123bec916bf121b181d4ebe97b719af8fb2315d2b6757f8a01c969a050eefac9c1863623ba6ca7be11a49da96f979bfe8ee4f89359c64f7c118623b0",
      "networkId": 0,
      "chainId": 0
    }
  ]
}