{
  "hash": "0xe7fe7e3a724180662c9cb36eceaa16501599618b7e682212e98657938e3a6aab",
  "parentHash": "0xf8af6c26d2a9cdb0a2a28f845a662976eed0ec2f4baf1acbfbdd59513d08f2bb",
  "number": 105478,
  "timestamp": 1439888369,
  "nonce": "0x5ac08e0474446802",
  "difficulty": 4384593622053,
  "gasLimit": {
    "_hex": "0x2fefd8"
  },
  "gasUsed": {
    "_hex": "0x14820"
  },
  "miner": "0xe6A7a1d47ff21B6321162AEA7C6CB457D5476Bca",
  "extraData": "0x476574682f76312e302e312d38326566323666362f6c696e75782f676f312e34",
  "transactions": [
    {
      "hash": "0x0ed49ccc08a37a5a12a2d897177ea7d3542ed84580de7f52424beca73124471a",
      "blockHash": "0xe7fe7e3a724180662c9cb36eceaa16501599618b7e682212e98657938e3a6aab",
      "blockNumber": 105478,
      "transactionIndex": 0,
      "confirmations": null,
      "from": "0xe2F27cFd700a6d294Ac1BaFFa42c24bA0968631D",
      "gasPrice": {
        "_hex": "0xd6902073f"
      },
      "gasLimit": {
        "_hex": "0x15f90"
      },
      "to": "0x89Ea4C778D3f3D6BE70883BB9995D41Bd4c453Ab",
      "value": {
        "_hex": "0x1bc16d674ec80000"
      },
      "nonce": 1,
      "data": "0x",
      "r": "0xe24c20be805e2a1236f314bdc9a95c7e27facd76bb654f961c1dab192909ee1c",
      "s": "0x18892f6fe138ae4ab98ab2f21fd7106c2d21051efbbd03b7c8153f2232a650b8",
      "v": 27,
      "creates": null,
      "raw": "0xf86d01850d6902073f83015f909489ea4c778d3f3d6be70883bb9995d41bd4c453ab881bc16d674ec80000801ba0e24c20be805e2a1236f314bdc9a95c7e27facd76bb654f961c1dab192909ee1ca018892f6fe138ae4ab98ab2f21fd7106c2d21051efbbd03b7c8153f2232a650b8",
      "networkId": 0,
      "chainId": 0
    },
    {
      "hash": "0x797a1b5c01f0a158d1afc143e885e2f403969976348bcf7147714f125232108b",
      "blockHash": "0xe7fe7e3a724180662c9cb36eceaa16501599618b7e682212e98657938e3a6aab",
      "blockNumber": 105478,
      "transactionIndex": 1,
      "confirmations": null,
      "from": "0x2C82c5457b3e101b0c8bc5c7e6BA098c1FfD53B6",
      "gasPrice": {
        "_hex": "0xd459d15a3"
      },
      "gasLimit": {
        "_hex": "0x15f90"
      },
      "to": "0x89Ea4C778D3f3D6BE70883BB9995D41Bd4c453Ab",
      "value": {
        "_hex": "0x53444835ec580000"
      },
      "nonce": 2,
      "data": "0x",
      "r": "0xf5bfa1826ddf5b65375fcc1f147912806e23d19361cc6edbc9ba205a5848d55b",
      "s": "0x6e3292a0d18cc2c168c5b2d1ce867090fced6875a13412d0143492f3969aa374",
      "v": 27,
      "creates": null,
      "raw": "0xf86d02850d459d15a383015f909489ea4c778d3f3d6be70883bb9995d41bd4c453ab8853444835ec580000801ba0f5bfa1826ddf5b65375fcc1f147912806e23d19361cc6edbc9ba205a5848d55ba06e3292a0d18cc2c168c5b2d1ce867090fced6875a13412d0143492f3969aa374",
      "networkId": 0,
      "chainId": 0
    },
    {
      "hash": "0xd704b15733bc55bd924e5033bfb5ba318c2692e3fd4706424ca131734409a38a",
      "blockHash": "0xe7fe7e3a724180662c9cb36eceaa16501599618b7e682212e98657938e3a6aab",
      "blockNumber": 105478,
      "transactionIndex": 2,
      "confirmations": null,
      "from": "0xB6Cc54EB0ad5452f98ec2Be0a901B41e26a77b3B",
      "gasPrice": {
        "_hex": "0xd2cc6425b"
      },
      "gasLimit": {
        "_hex": "0x5208"
      },
      "to": "0x32Be343B94f860124dC4fEe278FDCBD38C102D88",
      "value": {
        "_hex": "0xdcab001e6aa6c00"
      },
      "nonce": 0,
      "data": "0x",
      "r": "0xf8acf1ad15134dc49ffaf5427bab6e25b2ad1dd997f4c3b49a1c2eb785d96e1c",
      "s": "0x4b0d5ba2d0687773c0212d9458fdc8f76a18f95aaab520df8607edd1303e1e3c",
      "v": 27,
      "creates": null,
      "raw": "0xf86c80850d2cc6425b8252089432be343b94f860124dc4fee278fdcbd38c102d88880dcab001e6aa6c00801ba0f8acf1ad15134dc49ffaf5427bab6e25b2ad1dd997f4c3b49a1c2eb785d96e1ca04b0d5ba2d0687773c0212d9458fdc8f76a18f95aaab520df8607edd1303e1e3c",
      "networkId": 0,
      "chainId": 0
    },
    {
      "hash": "0xe43579c3ac4a6e932e8849e3d2de13a3b22a915199d435a0a442a6489b316239",
      "blockHash": "0xe7fe7e3a724180662c9cb36eceaa16501599618b7e682212e98657938e3a6aab",
      "blockNumber": 105478,
      "transactionIndex": 3,
      "confirmations": null,
      "from": "0xf01CD4c66F3633880Cbd076A2105f9c1400dD7c7",
      "gasPrice": {
        "_hex": "0xceede82ae"
      },
      "gasLimit": {
        "_hex": "0x15f90"
      },
      "to": "0xf2cC0eEAAAeD313542CB262B0B8c3972425143f0",
      "value": {
        "_hex": "0x45400a8fd5330000"
      },
      "nonce": 5,
      "data": "0x",
      "r": "0xd91ef0d4589cd7c910e26bf458bc5b7c1204116925d615a37daf40acad71a61a",
      "s": "0x495a5796e1c103d0c37e026b2d13bae4538c655fc258f03ca28660c41786629a",
      "v": 28,
      "creates": null,
      "raw": "0xf86d05850ceede82ae83015f9094f2cc0eeaaaed313542cb262b0b8c3972425143f08845400a8fd5330000801ca0d91ef0d4589cd7c910e26bf458bc5b7c1204116925d615a37daf40acad71a61aa0495a5796e1c103d0c37e026b2d13bae4538c655fc258f03ca28660c41786629a",
      "networkId": 0,
      "chainId": 0
    }
  ]
}