{
  "hash": "0xa5c7c4a42bf5f4da3ebc3b9f7c804f7b404afdf6d1e1df36873272a229c707af",
  "parentHash": "0xc13a8f11049df2f1f3dc908b349d196f27952ec33d65d60a156d1dc0652c9084",
  "number": 54106,
  "timestamp": 1439048843,
  "nonce": "0xb7e939631174f189",
  "difficulty": 1597749197078,
  "gasLimit": {
    "_hex": "0x2fefd8"
  },
  "gasUsed": {
    "_hex": "0xa410"
  },
  "miner": "0x123843545FB525C8E134c9A5F15ADA6865cc3848",
  "extraData": "0x476574682f76312e302e312f77696e646f77732f676f312e342e32",
  "transactions": [
    {
      "hash": "0x0850e62b1605f0e7dd96432063b1c59112e9f53c197d04afbbfce437e4869099",
      "blockHash": "0xa5c7c4a42bf5f4da3ebc3b9f7c804f7b404afdf6d1e1df36873272a229c707af",
      "blockNumber": 54106,
      "transactionIndex": 0,
      "confirmations": null,
      "from": "0xB0bF4A71F730782368Ef660FE6D298F432F95450",
      "gasPrice": {
        "_hex": "0xd2be56e1e"
      },
      "gasLimit": {
        "_hex": "0x5208"
      },
      "to": "0x32Be343B94f860124dC4fEe278FDCBD38C102D88",
      "value": {
        "_hex": "0x1b1ae09e6a755e0000"
      },
      "nonce": 5,
      "data": "0x",
      "r": "0xf5eb04c80215296e334122561756028d31e6fb74ce88f226d6929b718d7114b1",
      "s": "0x3b960b4d45b5be3953428029b3589bc7d5640215a4e5fa1f801c7a60193d0e75",
      "v": 28,
      "creates": null,
      "raw": "0xf86d05850d2be56e1e8252089432be343b94f860124dc4fee278fdcbd38c102d88891b1ae09e6a755e0000801ca0f5eb04c80215296e334122561756028d31e6fb74ce88f226d6929b718d7114b1a03b960b4d45b5be3953428029b3589bc7d5640215a4e5fa1f801c7a60193d0e75",
      "networkId": 0,
      "chainId": 0
    },
    {
      "hash": "0x6ce337695a093f807b017755d77e81af79203444ff2ae4f52766566f4ebf9063",
      "blockHash": "0xa5c7c4a42bf5f4da3ebc3b9f7c804f7b404afdf6d1e1df36873272a229c707af",
      "blockNumber": 54106,
      "transactionIndex": 1,
      "confirmations": null,
      "from": "0x0f83461Ba224Bb1E8Fdd9dae535172b735acB4e0",
      "gasPrice": {
        "_hex": "0xd23ee12e2"
      },
      "gasLimit": {
        "_hex": "0x15f90"
      },
      "to": "0x4EFfc71B00ADBF237Dca009fF5E8D0DD9E066FEa",
      "value": {
        "_hex": "0x16345785d8a0000"
      },
      "nonce": 0,
      "data": "0x",
      "r": "0xe343102400aa9bad2fd48de695f90c4fe7e5f5fe88c0815ad00c77376f2d5306",
      "s": "0x6c29d08b06835ce76081f1b4c89d30ae5ef5a690c6e12fc9d2595deb501e7fe3",
      "v": 28,
      "creates": null,
      "raw": "0xf86d80850d23ee12e283015f90944effc71b00adbf237dca009ff5e8d0dd9e066fea88016345785d8a0000801ca0e343102400aa9bad2fd48de695f90c4fe7e5f5fe88c0815ad00c77376f2d5306a06c29d08b06835ce76081f1b4c89d30ae5ef5a690c6e12fc9d2595deb501e7fe3",
      "networkId": 0,
      "chainId": 0
    }
  ]
}