{
  "hash": "0xe52ce0f5fb2ad997532bec780e6c2338d64f797abc085bf585e4c1ed75e4ef6e",
  "parentHash": "0xf25d39017d6ca53db65f37544cf8833a9316a649c3485335335ef50e5aa3383a",
  "number": 105031,
  "timestamp": 1439880436,
  "nonce": "0x74ba1d6bed878e7f",
  "difficulty": 4306320494174,
  "gasLimit": {
    "_hex": "0x2fefd8"
  },
  "gasUsed": {
    "_hex": "0xa410"
  },
  "miner": "0xe6A7a1d47ff21B6321162AEA7C6CB457D5476Bca",
  "extraData": "0x476574682f76312e302e312d38326566323666362f6c696e75782f676f312e34",
  "transactions": [
    {
      "hash": "0x6abdfd9d652eb9f2d2a4c38681ced345f5867801a7d9a275a1dc94210d5d8047",
      "blockHash": "0xe52ce0f5fb2ad997532bec780e6c2338d64f797abc085bf585e4c1ed75e4ef6e",
      "blockNumber": 105031,
      "transactionIndex": 0,
      "confirmations": null,
      "from": "0x7884D470204862a0d1A21122F41ee77430396Ee5",
      "gasPrice": {
        "_hex": "0xe2b51be92"
      },
      "gasLimit": {
        "_hex": "0x15f90"
      },
      "to": "0xF642b1FF42996A5FEC1604003bc9216F068AA45b",
      "value": {
        "_hex": "0x186cc6acd4b0000"
      },
      "nonce": 100,
      "data": "0x",
      "r": "0x03267d01d055e04d5760a392a4b3fb3c67be1894ec7ad3241aeb949cbb063fd9",
      "s": "0x560c7e22586f30e21826ef3517ee2f12e5787fc99f7806801567871b36d28a74",
      "v": 28,
      "creates": null,
      "raw": "0xf86d64850e2b51be9283015f9094f642b1ff42996a5fec1604003bc9216f068aa45b880186cc6acd4b0000801ca003267d01d055e04d5760a392a4b3fb3c67be1894ec7ad3241aeb949cbb063fd9a0560c7e22586f30e21826ef3517ee2f12e5787fc99f7806801567871b36d28a74",
      "networkId": 0,
      "chainId": 0
    },
    {
      "hash": "0xb18ae46eb97e58e50c311f16f3bb60061508eac8a34a65d1f7eb5949eb4159c1",
      "blockHash": "0xe52ce0f5fb2ad997532bec780e6c2338d64f797abc085bf585e4c1ed75e4ef6e",
      "blockNumber": 105031,
      "transactionIndex": 1,
      "confirmations": null,
      "from": "0xcf00A85f3826941e7A25BFcF9Aac575d40410852",
      "gasPrice": {
        "_hex": "0xcb5bea614"
      },
      "gasLimit": {
        "_hex": "0x15f90"
      },
      "to": "0xD9666150A9dA92d9108198a4072970805a8B3428",
      "value": {
        "_hex": "0x4563918244f40000"
      },
      "nonce": 63,
      "data": "0x",
      "r": "0xbb7d80802a677e8a028b6156eca0ca49ad5cdfbd15d60b069f93d887dccf9ad1",
      "s": "0x7380e723a3d1e295544d42132dbf805d6b806970793cc9d3d0640636ad3fee7f",
      "v": 28,
      "creates": null,
      "raw": "0xf86d3f850cb5bea61483015f9094d9666150a9da92d9108198a4072970805a8b3428884563918244f40000801ca0bb7d80802a677e8a028b6156eca0ca49ad5cdfbd15d60b069f93d887dccf9ad1a07380e723a3d1e295544d42132dbf805d6b806970793cc9d3d0640636ad3fee7f",
      "networkId": 0,
      "chainId": 0
    }
  ]
}