{
  "hash": "0x7d886b85abba17bd8b09a121f1858929b31d1b38f009805f85c54f3e14eaed1d",
  "parentHash": "0xac36281c103c51490834dd0c117c3ab16043b1254de359f20862195a64a42806",
  "number": 106419,
  "timestamp": 1439903818,
  "nonce": "0xa325c1dec040d277",
  "difficulty": 4494646926315,
  "gasLimit": {
    "_hex": "0x2fefd8"
  },
  "gasUsed": {
    "_hex": "0xaa37"
  },
  "miner": "0xe6A7a1d47ff21B6321162AEA7C6CB457D5476Bca",
  "extraData": "0x476574682f76312e302e312d38326566323666362f6c696e75782f676f312e34",
  "transactions": [
    {
      "hash": "0x0fcb626b42db7a6d734aa69003badb8157e374355ee542bcb7c614bb6f47d194",
      "blockHash": "0x7d886b85abba17bd8b09a121f1858929b31d1b38f009805f85c54f3e14eaed1d",
      "blockNumber": 106419,
      "transactionIndex": 0,
      "confirmations": null,
      "from": "0x87C5B5874A18B4306DF8a752a6C8cc3E82daFc19",
      "gasPrice": {
        "_hex": "0x1118335e08a"
      },
      "gasLimit": {
        "_hex": "0x493e0"
      },
      "to": "0xD79B4C6791784184e2755B2fC1659eaaB0f80456",
      "value": {
        "_hex": "0x0"
      },
      "nonce": 354,
      "data": "0x03750d9400000000000000000000000087c5b5874a18b4306df8a752a6c8cc3e82dafc196b6b6b0000000000000000000000000000000000000000000000000000000000",
      "r": "0x78e76769744da9da7872eef4245abbbd060dae1870cfdd473b1e96731e4e8a3b",
      "s": "0x4a5d8c4f45f99b1bdcafd95b258d5d01488dc57fe55d110083e968ba789c757d",
      "v": 27,
      "creates": null,
      "raw": "0xf8ad8201628601118335e08a830493e094d79b4c6791784184e2755b2fc1659eaab0f8045680b84403750d9400000000000000000000000087c5b5874a18b4306df8a752a6c8cc3e82dafc196b6b6b00000000000000000000000000000000000000000000000000000000001ba078e76769744da9da7872eef4245abbbd060dae1870cfdd473b1e96731e4e8a3ba04a5d8c4f45f99b1bdcafd95b258d5d01488dc57fe55d110083e968ba789c757d",
      "networkId": 0,
      "chainId": 0
    }
  ]
}