{
  "hash": "0xa9acb8ede27adf7428d7556c739a551de7bb71e59ae588573b8d8ffb3000e9f8",
  "parentHash": "0x1a4d987ba03c80d8562f81f3032ec9290aeb36ff431ac97e5bc9d90118faed8b",
  "number": 49769,
  "timestamp": 1438978807,
  "nonce": "0xbe5bf4ab04a00383",
  "difficulty": 1492220435856,
  "gasLimit": {
    "_hex": "0x3e3ee"
  },
  "gasUsed": {
    "_hex": "0xfd44"
  },
  "miner": "0xf8E0CA3Ed80bd541b94BEdCf259e8CF2141A9523",
  "extraData": "0x476574682f76312e302e312f77696e646f77732f676f312e342e32",
  "transactions": [
    {
      "hash": "0x22007d01ca67a3d0148c453aca26b7793617406de48c9dbee9d30c5820e462f5",
      "blockHash": "0xa9acb8ede27adf7428d7556c739a551de7bb71e59ae588573b8d8ffb3000e9f8",
      "blockNumber": 49769,
      "transactionIndex": 0,
      "confirmations": null,
      "from": "0x1B8aa0160cD79f005F88510A714913D70Ad3bE33",
      "gasPrice": {
        "_hex": "0x1169dec6bcf"
      },
      "gasLimit": {
        "_hex": "0x15f90"
      },
      "to": "0x2910543Af39abA0Cd09dBb2D50200b3E800A63D2",
      "value": {
        "_hex": "0x2b5e3af16b1880000"
      },
      "nonce": 4,
      "data": "0x454e42384b33564652",
      "r": "0xf056693a1367151de9101b7fcce81f2a6a594f05beca7ec1abaedec224fdb8e2",
      "s": "0x433655eb62bc379aa428fc06fe0cd12bf2dd77eebb2c2ac4991e6589b6cd14a4",
      "v": 27,
      "creates": null,
      "raw": "0xf878048601169dec6bcf83015f90942910543af39aba0cd09dbb2d50200b3e800a63d28902b5e3af16b188000089454e42384b335646521ba0f056693a1367151de9101b7fcce81f2a6a594f05beca7ec1abaedec224fdb8e2a0433655eb62bc379aa428fc06fe0cd12bf2dd77eebb2c2ac4991e6589b6cd14a4",
      "networkId": 0,
      "chainId": 0
    },
    {
      "hash": "0x2a85fd68e1d7cf7fb52207d24aee766ab7e2d5369bda8ec3673f24ee692fdfeb",
      "blockHash": "0xa9acb8ede27adf7428d7556c739a551de7bb71e59ae588573b8d8ffb3000e9f8",
      "blockNumber": 49769,
      "transactionIndex": 1,
      "confirmations": null,
      "from": "0xE09C68e61998D9c81b14E4ee802BA7ADf6d74CdB",
      "gasPrice": {
        "_hex": "0x110c8f7d8de"
      },
      "gasLimit": {
        "_hex": "0xc350"
      },
      "to": "0x2910543Af39abA0Cd09dBb2D50200b3E800A63D2",
      "value": {
        "_hex": "0x38d7ea4c68000"
      },
      "nonce": 10,
      "data": "0x454e32413658483230",
      "r": "0xa4ab0ed182b43a1b082f5894fdffd464e14eb52e59258e29d8ce84cc7f0e8b41",
      "s": "0x9aa8dcf64914d995f7ebc9cde556f3758154afcbbf5d4c28777c44b1d37ebaa8",
      "v": 27,
      "creates": null,
      "raw": "0xf8750a860110c8f7d8de82c350942910543af39aba0cd09dbb2d50200b3e800a63d287038d7ea4c6800089454e324136584832301ba0a4ab0ed182b43a1b082f5894fdffd464e14eb52e59258e29d8ce84cc7f0e8b41a09aa8dcf64914d995f7ebc9cde556f3758154afcbbf5d4c28777c44b1d37ebaa8",
      "networkId": 0,
      "chainId": 0
    },
    {
      "hash": "0x018159ba5de70a8e3d8de74cca9b34933c5457a67143be538acc92f833605eb2",
      "blockHash": "0xa9acb8ede27adf7428d7556c739a551de7bb71e59ae588573b8d8ffb3000e9f8",
      "blockNumber": 49769,
      "transactionIndex": 2,
      "confirmations": null,
      "from": "0x0a2B4FC5d81AcE67dC4bBA03F7B455413D46FE3d",
      "gasPrice": {
        "_hex": "0x110c8f7d8de"
      },
      "gasLimit": {
        "_hex": "0xc350"
      },
      "to": "0x2910543Af39abA0Cd09dBb2D50200b3E800A63D2",
      "value": {
        "_hex": "0x1bc16d674ec80000"
      },
      "nonce": 0,
      "data": "0x454e47414a46303238",
      "r": "0xc30eb72da563e8f29ec974ecf68efe36132b755a68192cd9c0297b64d34f18ac",
      "s": "0xacb319a679028f85d504c8548b7b385dd84131e2d8bd0a2748512d0a939182b9",
      "v": 27,
      "creates": null,
      "raw": "0xf87680860110c8f7d8de82c350942910543af39aba0cd09dbb2d50200b3e800a63d2881bc16d674ec8000089454e47414a463032381ba0c30eb72da563e8f29ec974ecf68efe36132b755a68192cd9c0297b64d34f18aca0acb319a679028f85d504c8548b7b385dd84131e2d8bd0a2748512d0a939182b9",
      "networkId": 0,
      "chainId": 0
    }
  ]
}