{
  "hash": "0x71600ad8424a3d45ac4905ffb59075075643511fa261a45231c9cdd1357777c7",
  "parentHash": "0xa5602a26786e1acf629efa9b37c3c55b6b402d0baeb1f4704e9088f10b2fdfca",
  "number": 109754,
  "timestamp": 1439961908,
  "nonce": "0x4f12e5cc028a6151",
  "difficulty": 4438349270995,
  "gasLimit": {
    "_hex": "0x2fefd5"
  },
  "gasUsed": {
    "_hex": "0x5208"
  },
  "miner": "0xbb7B8287f3F0a933474a79eAe42CBCa977791171",
  "extraData": "0x476574682f4c5649562f76312e302e312f6c696e75782f676f312e342e32",
  "transactions": [
    {
      "hash": "0x32c3493cc5509c531eeb1d6ce6db25f2918d324566eac34a1e60fd0bd46e9ede",
      "blockHash": "0x71600ad8424a3d45ac4905ffb59075075643511fa261a45231c9cdd1357777c7",
      "blockNumber": 109754,
      "transactionIndex": 0,
      "confirmations": null,
      "from": "0xC47Aaa860008be6f65B58c6C6E02a84e666EfE31",
      "gasPrice": {
        "_hex": "0xdf1bf87bc"
      },
      "gasLimit": {
        "_hex": "0x15f90"
      },
      "to": "0x6204c5A7CD96C7C9D5ae62283ed7039A0f55B3c5",
      "value": {
        "_hex": "0x45600403a02d7eb2"
      },
      "nonce": 95,
      "data": "0x",
      "r": "0x1f490ed77554d2ecf75161297aabfc031bc136ec668a0ca4416be570a29ad264",
      "s": "0x754de24883e27eb930edaf082914c00c65225eb48c202bb058bb77a2aad5ee21",
      "v": 28,
      "creates": null,
      "raw": "0xf86d5f850df1bf87bc83015f90946204c5a7cd96c7c9d5ae62283ed7039a0f55b3c58845600403a02d7eb2801ca01f490ed77554d2ecf75161297aabfc031bc136ec668a0ca4416be570a29ad264a0754de24883e27eb930edaf082914c00c65225eb48c202bb058bb77a2aad5ee21",
      "networkId": 0,
      "chainId": 0
    }
  ]
}