{
  "hash": "0x934eb8eaf1bbff025906785b2b586734177527c30228724ca822b7a07f954b12",
  "parentHash": "0x2007cb2e24fc0d965380b13c6c582244cafdeed72258c290071530bed807c964",
  "number": 65569,
  "timestamp": 1439239236,
  "nonce": "0x495a2a782d5faaa2",
  "difficulty": 1946357885648,
  "gasLimit": {
    "_hex": "0x2fefd8"
  },
  "gasUsed": {
    "_hex": "0x5208"
  },
  "miner": "0xFF72187BDe655112a85e30AAa0d1Dd5B43b9d607",
  "extraData": "0x476574682f76312e302e312f77696e646f77732f676f312e342e32",
  "transactions": [
    {
      "hash": "0x507e514f53f003e4fb2bf56705b7e01f2648bc32b819a43a42bb76760e43dbfa",
      "blockHash": "0x934eb8eaf1bbff025906785b2b586734177527c30228724ca822b7a07f954b12",
      "blockNumber": 65569,
      "transactionIndex": 0,
      "confirmations": null,
      "from": "0x29396fD3264c8F2B009c8d7EAdEc84741f32E8f2",
      "gasPrice": {
        "_hex": "0xdbe286ec4"
      },
      "gasLimit": {
        "_hex": "0x15f90"
      },
      "to": "0x120A270bbC009644e35F0bB6ab13f95b8199c4ad",
      "value": {
        "_hex": "0xac98a7eb4aefb0000"
      },
      "nonce": 0,
      "data": "0x",
      "r": "0x895b73215f78eff4d1f65953537dbc9a35dec979785346a1fa7590dcde936556",
      "s": "0x60efc33bce4f6986ae8208037d3efb99d63105488583daea97f4a7977adfd5f9",
      "v": 27,
      "creates": null,
      "raw": "0xf86e80850dbe286ec483015f9094120a270bbc009644e35f0bb6ab13f95b8199c4ad890ac98a7eb4aefb0000801ba0895b73215f78eff4d1f65953537dbc9a35dec979785346a1fa7590dcde936556a060efc33bce4f6986ae8208037d3efb99d63105488583daea97f4a7977adfd5f9",
      "networkId": 0,
      "chainId": 0
    }
  ]
}