{
  "hash": "0xd2049304eda1afd9594fce4b44dc0ddb5c298443b275c86c6326ca85727aa711",
  "parentHash": "0x36dca57256f365909ebdd20fedf0949d6a7693d58c09105c1a6b235e3e22db7e",
  "number": 47723,
  "timestamp": 1438945402,
  "nonce": "0x2cce8592d0519473",
  "difficulty": 1443839681914,
  "gasLimit": {
    "_hex": "0xe9c6"
  },
  "gasUsed": {
    "_hex": "0x546c"
  },
  "miner": "0xE13f83e0288E460362D9E7421f0601fB88C4fd91",
  "extraData": "0x476574682f76312e302e312f6c696e75782f676f312e342e32",
  "transactions": [
    {
      "hash": "0xf3a3c5f65dca4937f761da59bf588b80f309a34ada2553c6baa3d36f52685174",
      "blockHash": "0xd2049304eda1afd9594fce4b44dc0ddb5c298443b275c86c6326ca85727aa711",
      "blockNumber": 47723,
      "transactionIndex": 0,
      "confirmations": null,
      "from": "0x4d9279962029a8bd45639737E98b511eFF074C21",
      "gasPrice": {
        "_hex": "0xcd8c79d44"
      },
      "gasLimit": {
        "_hex": "0xe678"
      },
      "to": "0x2910543Af39abA0Cd09dBb2D50200b3E800A63D2",
      "value": {
        "_hex": "0xd8d726b7177a80000"
      },
      "nonce": 4,
      "data": "0x454e47484e32375a52",
      "r": "0xc43681e9d34190c5613fcd034a84b48cefaff10069d3b347b92a9090df3900d3",
      "s": "0x6a67a4096195aa56738218019294810ba2ecdf7c1e8ae32726d7c1d1195c3568",
      "v": 27,
      "creates": null,
      "raw": "0xf87604850cd8c79d4482e678942910543af39aba0cd09dbb2d50200b3e800a63d2890d8d726b7177a8000089454e47484e32375a521ba0c43681e9d34190c5613fcd034a84b48cefaff10069d3b347b92a9090df3900d3a06a67a4096195aa56738218019294810ba2ecdf7c1e8ae32726d7c1d1195c3568",
      "networkId": 0,
      "chainId": 0
    }
  ]
}