{
  "hash": "0xb07acbf1566af03f1146ca751bcf1a9ecab04b654373c4ced5519b9450e08974",
  "parentHash": "0x2f872b34c1c705d5fbdeeeeda657536b180ca6abd17d188eaf9a81ed84689136",
  "number": 58917,
  "timestamp": 1439128927,
  "nonce": "0x4a298b4f7b04b445",
  "difficulty": 1708974478061,
  "gasLimit": {
    "_hex": "0x2fefd8"
  },
  "gasUsed": {
    "_hex": "0x546c"
  },
  "miner": "0x88D74a59454F6cF3B51ef6b9136AFb6b9D405A88",
  "extraData": "0x476574682f76312e302e312d38326566323666362f6c696e75782f676f312e34",
  "transactions": [
    {
      "hash": "0x5e6cd48a80d968b23c8726f9d4fdc90c71337044d9f98e6abc2d9bcb5742c817",
      "blockHash": "0xb07acbf1566af03f1146ca751bcf1a9ecab04b654373c4ced5519b9450e08974",
      "blockNumber": 58917,
      "transactionIndex": 0,
      "confirmations": null,
      "from": "0x9E1B9435365FF9c0653fEe36AC89657c5879A566",
      "gasPrice": {
        "_hex": "0x10b532011e0"
      },
      "gasLimit": {
        "_hex": "0x55f0"
      },
      "to": "0x2910543Af39abA0Cd09dBb2D50200b3E800A63D2",
      "value": {
        "_hex": "0x31442230f8a30000"
      },
      "nonce": 1,
      "data": "0x454e37353756564e30",
      "r": "0x24f8be6861403ee5ed9d426da3b823a362e0fc6a878e13a76553751fb9321cfc",
      "s": "0x30068cefb1bdba91254ed0578ffcbe06d8412ff36bdf12a1c9c875d3af28400a",
      "v": 28,
      "creates": null,
      "raw": "0xf8760186010b532011e08255f0942910543af39aba0cd09dbb2d50200b3e800a63d28831442230f8a3000089454e37353756564e301ca024f8be6861403ee5ed9d426da3b823a362e0fc6a878e13a76553751fb9321cfca030068cefb1bdba91254ed0578ffcbe06d8412ff36bdf12a1c9c875d3af28400a",
      "networkId": 0,
      "chainId": 0
    }
  ]
}