{
  "hash": "0xf16ac1c01fc923da20eb85e1de7c6f5289e3327e83975cb70dca61e2ed53b2a1",
  "parentHash": "0xdf5a5ee0615e6491bf896c42f554065ff29848fa41f8845c7993fec08354fdfe",
  "number": 104383,
  "timestamp": 1439868952,
  "nonce": "0x4bfb23681a952f2e",
  "difficulty": 4310860930626,
  "gasLimit": {
    "_hex": "0x2fefd8"
  },
  "gasUsed": {
    "_hex": "0x5208"
  },
  "miner": "0x580992B51e3925e23280EfB93d3047C82f17E038",
  "extraData": "0x476574682f76312e302e312f6c696e75782f676f312e342e32",
  "transactions": [
    {
      "hash": "0xfa837d3a1652a96e55c848156542a82a17064316858450698aa840d61ea29a5e",
      "blockHash": "0xf16ac1c01fc923da20eb85e1de7c6f5289e3327e83975cb70dca61e2ed53b2a1",
      "blockNumber": 104383,
      "transactionIndex": 0,
      "confirmations": null,
      "from": "0xc77C9c7861CafaAb94ecb5Ea05f8AEf6216Da4d2",
      "gasPrice": {
        "_hex": "0xcb3146777"
      },
      "gasLimit": {
        "_hex": "0x15f90"
      },
      "to": "0x3D6fAAd34e509F34c23b9737961fECa278DD40Da",
      "value": {
        "_hex": "0x10eff0fae29b1bc0000"
      },
      "nonce": 0,
      "data": "0x",
      "r": "0x4f1c44d68de457cae861d46364daf4714e572c845eac0991c2ac299112f6d538",
      "s": "0x5eaccae437e3df1c4085ad30c136a9dd79ffd23aa7d162d5f597a8c658786292",
      "v": 27,
      "creates": null,
      "raw": "0xf86f80850cb314677783015f90943d6faad34e509f34c23b9737961feca278dd40da8a010eff0fae29b1bc0000801ba04f1c44d68de457cae861d46364daf4714e572c845eac0991c2ac299112f6d538a05eaccae437e3df1c4085ad30c136a9dd79ffd23aa7d162d5f597a8c658786292",
      "networkId": 0,
      "chainId": 0
    }
  ]
}