{
  "hash": "0xd8f1b50d5181a85604e93b578a04ff45b9212388ed7ae90adc45cb28627b746c",
  "parentHash": "0x12f1071dabca4e1d362cdbc512ab163840f9129ab84302c6f9fe912e6bf463c8",
  "number": 108114,
  "timestamp": 1439934328,
  "nonce": "0x12c796d812361d92",
  "difficulty": 4374663427963,
  "gasLimit": {
    "_hex": "0x2fefd8"
  },
  "gasUsed": {
    "_hex": "0x5208"
  },
  "miner": "0x9D49F602b0fdb924Bd63DDE2Bd0907E4A07c63a7",
  "extraData": "0x476574682f76312e302e312f6c696e75782f676f312e342e32",
  "transactions": [
    {
      "hash": "0x5fd590318c4bb599516b27a3211d90f8ad5c7e7c0646b0b6fab2d828aaa9fecf",
      "blockHash": "0xd8f1b50d5181a85604e93b578a04ff45b9212388ed7ae90adc45cb28627b746c",
      "blockNumber": 108114,
      "transactionIndex": 0,
      "confirmations": null,
      "from": "0x120A270bbC009644e35F0bB6ab13f95b8199c4ad",
      "gasPrice": {
        "_hex": "0xd2e41f5fc"
      },
      "gasLimit": {
        "_hex": "0x3d090"
      },
      "to": "0x226593b5163F54a6b4340d42D0016b758Bf83EC1",
      "value": {
        "_hex": "0x1a055690d9db80000"
      },
      "nonce": 826,
      "data": "0x",
      "r": "0x279da81487cbd01267c0b2832d25bb16a536a09df8793fe7df616522a423c494",
      "s": "0x278f739cd75d40785cfd8e7508dc834e0195fb1b24d8adf4f66ad42cbf677577",
      "v": 28,
      "creates": null,
      "raw": "0xf87082033a850d2e41f5fc8303d09094226593b5163f54a6b4340d42d0016b758bf83ec18901a055690d9db80000801ca0279da81487cbd01267c0b2832d25bb16a536a09df8793fe7df616522a423c494a0278f739cd75d40785cfd8e7508dc834e0195fb1b24d8adf4f66ad42cbf677577",
      "networkId": 0,
      "chainId": 0
    }
  ]
}