{
  "hash": "0x1225052a6aafe4a9c66c2817bfa2948d5e62a0d2dd13546129f98331dae37227",
  "parentHash": "0xad1819869efb4ddd02e340a0418a818816ba293b1e0c2f93ac974683947d29d7",
  "number": 78805,
  "timestamp": 1439459724,
  "nonce": "0xf8bd63d9b02e8238",
  "difficulty": 2285286521135,
  "gasLimit": {
    "_hex": "0x2fefd8"
  },
  "gasUsed": {
    "_hex": "0x5208"
  },
  "miner": "0xe6A7a1d47ff21B6321162AEA7C6CB457D5476Bca",
  "extraData": "0x476574682f76312e302e312d38326566323666362f6c696e75782f676f312e34",
  "transactions": [
    {
      "hash": "0xe17ea1715e332969b3279d2c91336ff60f8f174c26bd82ce551b1ce7155f4ac9",
      "blockHash": "0x1225052a6aafe4a9c66c2817bfa2948d5e62a0d2dd13546129f98331dae37227",
      "blockNumber": 78805,
      "transactionIndex": 0,
      "confirmations": null,
      "from": "0x845eDA2dC559f882D393FFe560a5a6989F7a46e5",
      "gasPrice": {
        "_hex": "0xcfbc90e1d"
      },
      "gasLimit": {
        "_hex": "0x55f0"
      },
      "to": "0x3312E14473d0B1CDd335DEDA6C0f6B4d9596c0D2",
      "value": {
        "_hex": "0xde0b6b3a7640000"
      },
      "nonce": 0,
      "data": "0x",
      "r": "0x6cbd77374010ee667378a09e4de90bfba22d83cd4e16a6755eef73ac8d97ec50",
      "s": "0x77ce014e22ac5e6d247ee6d6c6a02724bd0573f7c3124d62ebc5e52de687be43",
      "v": 27,
      "creates": null,
      "raw": "0xf86c80850cfbc90e1d8255f0943312e14473d0b1cdd335deda6c0f6b4d9596c0d2880de0b6b3a7640000801ba06cbd77374010ee667378a09e4de90bfba22d83cd4e16a6755eef73ac8d97ec50a077ce014e22ac5e6d247ee6d6c6a02724bd0573f7c3124d62ebc5e52de687be43",
      "networkId": 0,
      "chainId": 0
    }
  ]
}