{
  "hash": "0x0749840cd246c079488cf23bf81c7c1066abdbbb4f30efa31062518f7033ce10",
  "parentHash": "0x3c20730cde137f1961b45cbcd07f379aeaa301ba4915b946193308284dda1d0d",
  "number": 106057,
  "timestamp": 1439897868,
  "nonce": "0xb4f805b56ef8bb7b",
  "difficulty": 4477317166132,
  "gasLimit": {
    "_hex": "0x2fefd8"
  },
  "gasUsed": {
    "_hex": "0x6ed3"
  },
  "miner": "0xe6A7a1d47ff21B6321162AEA7C6CB457D5476Bca",
  "extraData": "0x476574682f76312e302e312d38326566323666362f6c696e75782f676f312e34",
  "transactions": [
    {
      "hash": "0xac1ac6d06e5948ee7cd4c3e1fb01e114d43fafebcfd8a8d3a7eee6060b488d95",
      "blockHash": "0x0749840cd246c079488cf23bf81c7c1066abdbbb4f30efa31062518f7033ce10",
      "blockNumber": 106057,
      "transactionIndex": 0,
      "confirmations": null,
      "from": "0x87C5B5874A18B4306DF8a752a6C8cc3E82daFc19",
      "gasPrice": {
        "_hex": "0x1072cef737e"
      },
      "gasLimit": {
        "_hex": "0x493e0"
      },
      "to": "0xD79B4C6791784184e2755B2fC1659eaaB0f80456",
      "value": {
        "_hex": "0x0"
      },
      "nonce": 338,
      "data": "0xbd66528a6b6b6b0000000000000000000000000000000000000000000000000000000000",
      "r": "0x3e3eb455fcdeb8215527798d70ff2b97a58358b93e90fc6e7ba27aaf60ac1d13",
      "s": "0x3ecc317a9c3e95f5b9b2ee6c3c477581abf429c8467cdfd7d5ba9c08adbc5b22",
      "v": 28,
      "creates": null,
      "raw": "0xf88c8201528601072cef737e830493e094d79b4c6791784184e2755b2fc1659eaab0f8045680a4bd66528a6b6b6b00000000000000000000000000000000000000000000000000000000001ca03e3eb455fcdeb8215527798d70ff2b97a58358b93e90fc6e7ba27aaf60ac1d13a03ecc317a9c3e95f5b9b2ee6c3c477581abf429c8467cdfd7d5ba9c08adbc5b22",
      "networkId": 0,
      "chainId": 0
    }
  ]
}