{
  "hash": "0xc7a4ebcc3e40d2852f41b945f1f0c9e2484394b701a3531ee0c7257ee2a23c31",
  "parentHash": "0xcdfa541146fed3a72c8a16228dc369879454384beada1db2df1f7f01d570c4ef",
  "number": 89846,
  "timestamp": 1439630034,
  "nonce": "0x484ec05f4f848c9c",
  "difficulty": 3345109631344,
  "gasLimit": {
    "_hex": "0x2fefd8"
  },
  "gasUsed": {
    "_hex": "0xa410"
  },
  "miner": "0x88D74a59454F6cF3B51ef6b9136AFb6b9D405A88",
  "extraData": "0x476574682f76312e302e312d37666266393930632f6c696e75782f676f312e34",
  "transactions": [
    {
      "hash": "0x6eb2c5da4683efe2879186f8c037994fc9cf04693f2d52d8700ea6f2a66fee35",
      "blockHash": "0xc7a4ebcc3e40d2852f41b945f1f0c9e2484394b701a3531ee0c7257ee2a23c31",
      "blockNumber": 89846,
      "transactionIndex": 0,
      "confirmations": null,
      "from": "0xAdCa16b4654a92cb67666C0cF61976cEEE81cEEB",
      "gasPrice": {
        "_hex": "0xd69d73745"
      },
      "gasLimit": {
        "_hex": "0x5208"
      },
      "to": "0x32Be343B94f860124dC4fEe278FDCBD38C102D88",
      "value": {
        "_hex": "0x145b2683180859000"
      },
      "nonce": 3,
      "data": "0x",
      "r": "0x84c35bf3fd02114a5761ce07c3516e33fe78ae9ac56695046c4e7840d78bc8d9",
      "s": "0x657e44312ef4aad547be3dbec67c22d321cee6d7fab51b98cf522da1e45da752",
      "v": 28,
      "creates": null,
      "raw": "0xf86d03850d69d737458252089432be343b94f860124dc4fee278fdcbd38c102d88890145b2683180859000801ca084c35bf3fd02114a5761ce07c3516e33fe78ae9ac56695046c4e7840d78bc8d9a0657e44312ef4aad547be3dbec67c22d321cee6d7fab51b98cf522da1e45da752",
      "networkId": 0,
      "chainId": 0
    },
    {
      "hash": "0x68e63fed198116b4b03e977aa376ad1bac3f6acd4147b814fbe33946a87de9a8",
      "blockHash": "0xc7a4ebcc3e40d2852f41b945f1f0c9e2484394b701a3531ee0c7257ee2a23c31",
      "blockNumber": 89846,
      "transactionIndex": 1,
      "confirmations": null,
      "from": "0xFc8bc4ed86dF73001ce6082F3dB914d7c7A9a6cC",
      "gasPrice": {
        "_hex": "0xd69d73745"
      },
      "gasLimit": {
        "_hex": "0x5208"
      },
      "to": "0x32Be343B94f860124dC4fEe278FDCBD38C102D88",
      "value": {
        "_hex": "0xe93ca77294898800"
      },
      "nonce": 2,
      "data": "0x",
      "r": "0xad50b18c3c9ee56b8e2199fcae603b4c120371e1374e1705ef676c699f908435",
      "s": "0x1988f30f363677fd9466dc1e9dc9cf7616b5f3eb1de3876570aa381c3c14cf3b",
      "v": 27,
      "creates": null,
      "raw": "0xf86c02850d69d737458252089432be343b94f860124dc4fee278fdcbd38c102d8888e93ca77294898800801ba0ad50b18c3c9ee56b8e2199fcae603b4c120371e1374e1705ef676c699f908435a01988f30f363677fd9466dc1e9dc9cf7616b5f3eb1de3876570aa381c3c14cf3b",
      "networkId": 0,
      "chainId": 0
    }
  ]
}