{
  "hash": "0xd8eca63860786c5a7f5365bc0fabeddfe990e8b3ce3d24d088917cfacc86eaed",
  "parentHash": "0x850d347e1dc9e0cc2ab01f19acbfb71874ab369422a9ff004463d2e73ab601e8",
  "number": 96532,
  "timestamp": 1439741799,
  "nonce": "0xcda5908d2373f0a8",
  "difficulty": 3685324907548,
  "gasLimit": {
    "_hex": "0x2fefd8"
  },
  "gasUsed": {
    "_hex": "0x5208"
  },
  "miner": "0xe6A7a1d47ff21B6321162AEA7C6CB457D5476Bca",
  "extraData": "0x476574682f76312e302e312d38326566323666362f6c696e75782f676f312e34",
  "transactions": [
    {
      "hash": "0x6ffaabe11759d04e9e5233a2ccdc4d08edcc99623b7542d6be60ff0eac0b542e",
      "blockHash": "0xd8eca63860786c5a7f5365bc0fabeddfe990e8b3ce3d24d088917cfacc86eaed",
      "blockNumber": 96532,
      "transactionIndex": 0,
      "confirmations": null,
      "from": "0x120A270bbC009644e35F0bB6ab13f95b8199c4ad",
      "gasPrice": {
        "_hex": "0xd2cd04764"
      },
      "gasLimit": {
        "_hex": "0x3d090"
      },
      "to": "0x36B33F21Ba59c53E3502E52b8e0a7fD311215FFd",
      "value": {
        "_hex": "0x249084a2bbeff9d800"
      },
      "nonce": 618,
      "data": "0x",
      "r": "0xdcf68c83e8f21ca5f73f20a70994193b1f28a66ec28f68c2f487f1a36d54c89a",
      "s": "0x703e53073059316de9002ae8f74a87bde24c2dbcb227155271b418b777d22bbf",
      "v": 27,
      "creates": null,
      "raw": "0xf87082026a850d2cd047648303d0909436b33f21ba59c53e3502e52b8e0a7fd311215ffd89249084a2bbeff9d800801ba0dcf68c83e8f21ca5f73f20a70994193b1f28a66ec28f68c2f487f1a36d54c89aa0703e53073059316de9002ae8f74a87bde24c2dbcb227155271b418b777d22bbf",
      "networkId": 0,
      "chainId": 0
    }
  ]
}