{
  "hash": "0xcb878ed41a6820a4fd64bf27e4907177ef0f213fa02bcd7e943f0374a7a68491",
  "parentHash": "0x8a2e7a783971663779e3f4a1e287cf1c87626aa165d2b537084e9b710c7ee51b",
  "number": 54404,
  "timestamp": 1439053618,
  "nonce": "0x355dfe2a17e1ce0a",
  "difficulty": 1616525533442,
  "gasLimit": {
    "_hex": "0x2fd7e2"
  },
  "gasUsed": {
    "_hex": "0xa410"
  },
  "miner": "0x5F8F73E26CdF436f19Cb24C82F90A15AFe55b592",
  "extraData": "0x476574682f76312e302e312f77696e646f77732f676f312e342e32",
  "transactions": [
    {
      "hash": "0xd07277b2aac99aca13a367ff3671d4944e303f4cca27b41c352e51faba2a160b",
      "blockHash": "0xcb878ed41a6820a4fd64bf27e4907177ef0f213fa02bcd7e943f0374a7a68491",
      "blockNumber": 54404,
      "transactionIndex": 0,
      "confirmations": null,
      "from": "0x30FbE5885F9fCcE9Ea5EdB82Ed4a1196dd259aEd",
      "gasPrice": {
        "_hex": "0xd42eb4c0e"
      },
      "gasLimit": {
        "_hex": "0x15f90"
      },
      "to": "0xf85787F98B727466F7A58c9424AbD404baBE6ede",
      "value": {
        "_hex": "0x119c8bdb3d0d0780000"
      },
      "nonce": 5,
      "data": "0x",
      "r": "0x55e11148b6019008b1cce17a2ab794c49e7dfeb48bfc02ff9406ec3bae663ba9",
      "s": "0x0f97fb909d87140954a7de1ec876e49fe3257ec77884d9a9f868ccba9a910488",
      "v": 27,
      "creates": null,
      "raw": "0xf86f05850d42eb4c0e83015f9094f85787f98b727466f7a58c9424abd404babe6ede8a0119c8bdb3d0d0780000801ba055e11148b6019008b1cce17a2ab794c49e7dfeb48bfc02ff9406ec3bae663ba9a00f97fb909d87140954a7de1ec876e49fe3257ec77884d9a9f868ccba9a910488",
      "networkId": 0,
      "chainId": 0
    },
    {
      "hash": "0x6eb89b3eebbfcd1319e8897255ac5226a524ea0b36dc2ad1969834989925268d",
      "blockHash": "0xcb878ed41a6820a4fd64bf27e4907177ef0f213fa02bcd7e943f0374a7a68491",
      "blockNumber": 54404,
      "transactionIndex": 1,
      "confirmations": null,
      "from": "0x32Be343B94f860124dC4fEe278FDCBD38C102D88",
      "gasPrice": {
        "_hex": "0xd35a229ac"
      },
      "gasLimit": {
        "_hex": "0x5208"
      },
      "to": "0x48CB3244b36C7BfF81B85403B618C0FbA1fbfF03",
      "value": {
        "_hex": "0x8ac7230489e80000"
      },
      "nonce": 56,
      "data": "0x",
      "r": "0xb731343d88c44fd8ee20bc3027a6d7f1b5c5d53fa14b9933c67359d757bac1f0",
      "s": "0x7a42d0896f09f53359f45967ae5fea32228026813317d42dcca7474e4d69bab1",
      "v": 28,
      "creates": null,
      "raw": "0xf86c38850d35a229ac8252089448cb3244b36c7bff81b85403b618c0fba1fbff03888ac7230489e80000801ca0b731343d88c44fd8ee20bc3027a6d7f1b5c5d53fa14b9933c67359d757bac1f0a07a42d0896f09f53359f45967ae5fea32228026813317d42dcca7474e4d69bab1",
      "networkId": 0,
      "chainId": 0
    }
  ]
}