{
  "hash": "0xc4c1453a245a6dc1eb5a344026507ed263516f5609dc50b092745dc370c523e3",
  "parentHash": "0x5a20f1b087cf3ff03b7bbc897d41e9b0bdfb9ea889e814bd0bae4e9290834e9b",
  "number": 73193,
  "timestamp": 1439364663,
  "nonce": "0xc8864c0e08a6ce5d",
  "difficulty": 2218623528559,
  "gasLimit": {
    "_hex": "0x2fe3de"
  },
  "gasUsed": {
    "_hex": "0x5208"
  },
  "miner": "0x2089035369B33403DdcaBa6258c34e0B3FfbbBd9",
  "extraData": "0x476574682f76312e302e302d30333937633636632f6c696e75782f676f312e34",
  "transactions": [
    {
      "hash": "0xbe2f6d28c7f42a662a02c7ed5ff3d907b1dac34a44c5dc072fe6a9f2f9323145",
      "blockHash": "0xc4c1453a245a6dc1eb5a344026507ed263516f5609dc50b092745dc370c523e3",
      "blockNumber": 73193,
      "transactionIndex": 0,
      "confirmations": null,
      "from": "0x40B9b889A21Ff1534d018D71Dc406122EBcf3F5A",
      "gasPrice": {
        "_hex": "0xff87a33081"
      },
      "gasLimit": {
        "_hex": "0x15f90"
      },
      "to": "0x50Da60D4Da4c04E154eA22AF84437e69Dd6dA401",
      "value": {
        "_hex": "0x16345785d8a0000"
      },
      "nonce": 5,
      "data": "0x",
      "r": "0x49ead36180c751e18e618606832ff23924df624c88f94904d77139071629aee4",
      "s": "0x3c29cc1b7d1a5654e70f52c263601e4cd3688acae9fd7e18e1a18bde8d3d110e",
      "v": 28,
      "creates": null,
      "raw": "0xf86d0585ff87a3308183015f909450da60d4da4c04e154ea22af84437e69dd6da40188016345785d8a0000801ca049ead36180c751e18e618606832ff23924df624c88f94904d77139071629aee4a03c29cc1b7d1a5654e70f52c263601e4cd3688acae9fd7e18e1a18bde8d3d110e",
      "networkId": 0,
      "chainId": 0
    }
  ]
}