{
  "hash": "0x0c042c61ebd085ea5c28ac6b7a2dd8f394facd30bcac2cb2420fb6c346681fe1",
  "parentHash": "0xe28e8c5d0fa46d5245969062349d02735e524ad37cbda58a7658bc4e6bfc51c9",
  "number": 115383,
  "timestamp": 1440056250,
  "nonce": "0x25081e8610d19363",
  "difficulty": 4565007186766,
  "gasLimit": {
    "_hex": "0x2fefd8"
  },
  "gasUsed": {
    "_hex": "0x5208"
  },
  "miner": "0x580992B51e3925e23280EfB93d3047C82f17E038",
  "extraData": "0x476574682f76312e302e312f6c696e75782f676f312e342e32",
  "transactions": [
    {
      "hash": "0xb5a355e042cc2c9628c13835abe071b214faef10a6afe194f6c763496576cb34",
      "blockHash": "0x0c042c61ebd085ea5c28ac6b7a2dd8f394facd30bcac2cb2420fb6c346681fe1",
      "blockNumber": 115383,
      "transactionIndex": 0,
      "confirmations": null,
      "from": "0x6d84df1cFAD609EAc476cBC2553390bFC23Cf6Fc",
      "gasPrice": {
        "_hex": "0xcc8a32aa9"
      },
      "gasLimit": {
        "_hex": "0x5208"
      },
      "to": "0x32Be343B94f860124dC4fEe278FDCBD38C102D88",
      "value": {
        "_hex": "0x9733c57a911338000"
      },
      "nonce": 8,
      "data": "0x",
      "r": "0xd771b4b4018de140e607718afa084f159a046a43edb8e542d03f2c55b32f20e3",
      "s": "0x4c4adc77b0293c0c84505f0eb47095aae7472b2fbf99fa9f93fc9cb5243e36d5",
      "v": 27,
      "creates": null,
      "raw": "0xf86d08850cc8a32aa98252089432be343b94f860124dc4fee278fdcbd38c102d888909733c57a911338000801ba0d771b4b4018de140e607718afa084f159a046a43edb8e542d03f2c55b32f20e3a04c4adc77b0293c0c84505f0eb47095aae7472b2fbf99fa9f93fc9cb5243e36d5",
      "networkId": 0,
      "chainId": 0
    }
  ]
}