{
  "hash": "0x4b22e0b5dc419577666487e63414c3dd668195e4edc498c175fd1b45957764ac",
  "parentHash": "0x9c1237ea6ad4b657bfe5b3d44f487deec03d49aefc7a116df25cdd28133447a3",
  "number": 69024,
  "timestamp": 1439297268,
  "nonce": "0x8ff7fe547e702d9b",
  "difficulty": 2039921429299,
  "gasLimit": {
    "_hex": "0x2fefd8"
  },
  "gasUsed": {
    "_hex": "0x12988c"
  },
  "miner": "0xf927a40C8B7F6E07c5af7FA2155B4864a4112B13",
  "extraData": "0x",
  "transactions": [
    {
      "hash": "0x3845bef227375ba76e1ba9b570d88ce767180b774d6a2f638b6754dbbca2abcc",
      "blockHash": "0x4b22e0b5dc419577666487e63414c3dd668195e4edc498c175fd1b45957764ac",
      "blockNumber": 69024,
      "transactionIndex": 0,
      "confirmations": null,
      "from": "0x910cbE9a6a92cFDE14572bd3f609a228aB874F15",
      "gasPrice": {
        "_hex": "0xba43b7400"
      },
      "gasLimit": {
        "_hex": "0x15f90"
      },
      "to": "0x793AE8C1b1a160BFc07BFB0d04F85eab1A71F4f2",
      "value": {
        "_hex": "0x0"
      },
      "nonce": 0,
      "data": "0x3ba15036",
      "r": "0x418302b371bd831f1cc7070fecf324c755ffdb355438e46ed561358579817922",
      "s": "0x037a1c448ddb98bb9b828c746eb1cc4a38fcee190141b44a7b6a702741292a89",
      "v": 28,
      "creates": null,
      "raw": "0xf86980850ba43b740083015f9094793ae8c1b1a160bfc07bfb0d04f85eab1a71f4f280843ba150361ca0418302b371bd831f1cc7070fecf324c755ffdb355438e46ed561358579817922a0037a1c448ddb98bb9b828c746eb1cc4a38fcee190141b44a7b6a702741292a89",
      "networkId": 0,
      "chainId": 0
    },
    {
      "hash": "0x579a92756c72ab75ce8ea50416b2fa40dbb55934d1f17b50c22ed55d01037298",
      "blockHash": "0x4b22e0b5dc419577666487e63414c3dd668195e4edc498c175fd1b45957764ac",
      "blockNumber": 69024,
      "transactionIndex": 1,
      "confirmations": null,
      "from": "0xc776b584fdDfCfc935031E3687D4410d6ec1499F",
      "gasPrice": {
        "_hex": "0xba43b7400"
      },
      "gasLimit": {
        "_hex": "0x15f90"
      },
      "to": "0x793AE8C1b1a160BFc07BFB0d04F85eab1A71F4f2",
      "value": {
        "_hex": "0x0"
      },
      "nonce": 0,
      "data": "0x3ba15036",
      "r": "0xeeb95509d598ced0958e9d3e10612a6d9439c5207b38205099a2cb760706bbe9",
      "s": "0x69c999f189def97d9de0e54566346227ee23501f38d35c7a24dd0d211b1605d3",
      "v": 28,
      "creates": null,
      "raw": "0xf86980850ba43b740083015f9094793ae8c1b1a160bfc07bfb0d04f85eab1a71f4f280843ba150361ca0eeb95509d598ced0958e9d3e10612a6d9439c5207b38205099a2cb760706bbe9a069c999f189def97d9de0e54566346227ee23501f38d35c7a24dd0d211b1605d3",
      "networkId": 0,
      "chainId": 0
    },
    {
      "hash": "0x5f9280ae9435d5aea591f8fd3e90acd9a683d0c0acd6840dd74f3db69c62fac8",
      "blockHash": "0x4b22e0b5dc419577666487e63414c3dd668195e4edc498c175fd1b45957764ac",
      "blockNumber": 69024,
      "transactionIndex": 2,
      "confirmations": null,
      "from": "0xB39FD26c2f56621Ab0663890D103Dc857169B99a",
      "gasPrice": {
        "_hex": "0xba43b7400"
      },
      "gasLimit": {
        "_hex": "0x15f90"
      },
      "to": "0x793AE8C1b1a160BFc07BFB0d04F85eab1A71F4f2",
      "value": {
        "_hex": "0x0"
      },
      "nonce": 0,
      "data": "0x3ba15036",
      "r": "0x1e11d7f357cd232c36a47b61a6cf542eede2c7b5398449b7e9d9f0c2639a00c1",
      "s": "0x2ba4d06ae2456be0d00ff574979593f49baf235d26e7e32bb42011d3d503e20d",
      "v": 27,
      "creates": null,
      "raw": "0xf86980850ba43b740083015f9094793ae8c1b1a160bfc07bfb0d04f85eab1a71f4f280843ba150361ba01e11d7f357cd232c36a47b61a6cf542eede2c7b5398449b7e9d9f0c2639a00c1a02ba4d06ae2456be0d00ff574979593f49baf235d26e7e32bb42011d3d503e20d",
      "networkId": 0,
      "chainId": 0
    },
    {
      "hash": "0x854363c4a5c975b66d75cbd449e8ca08d9c179186ff1ffec67b852b24bd2d30e",
      "blockHash": "0x4b22e0b5dc419577666487e63414c3dd668195e4edc498c175fd1b45957764ac",
      "blockNumber": 69024,
      "transactionIndex": 3,
      "confirmations": null,
      "from": "0xA2B09f388CB07cCce7a57734CbcDB57Fbe5126A0",
      "gasPrice": {
        "_hex": "0xba43b7400"
      },
      "gasLimit": {
        "_hex": "0x15f90"
      },
      "to": "0x793AE8C1b1a160BFc07BFB0d04F85eab1A71F4f2",
      "value": {
        "_hex": "0x0"
      },
      "nonce": 0,
      "data": "0x3ba15036",
      "r": "0x688e6ac4e2a2480ae822b293372343bb23b48c23f79e3581750988e68f6ec81f",
      "s": "0x349a0a4ac26fed4eb3e8825d2c715505922a859739a94fffa93e1f56f6773d3c",
      "v": 27,
      "creates": null,
      "raw": "0xf86980850ba43b740083015f9094793ae8c1b1a160bfc07bfb0d04f85eab1a71f4f280843ba150361ba0688e6ac4e2a2480ae822b293372343bb23b48c23f79e3581750988e68f6ec81fa0349a0a4ac26fed4eb3e8825d2c715505922a859739a94fffa93e1f56f6773d3c",
      "networkId": 0,
      "chainId": 0
    },
    {
      "hash": "0xa3275d61e19536dcc30272f13be29f62210bbc892de830f519b6c03217c85674",
      "blockHash": "0x4b22e0b5dc419577666487e63414c3dd668195e4edc498c175fd1b45957764ac",
      "blockNumber": 69024,
      "transactionIndex": 4,
      "confirmations": null,
      "from": "0x1b650981CbA965926ed15540A3875C817a7F8CA2",
      "gasPrice": {
        "_hex": "0xba43b7400"
      },
      "gasLimit": {
        "_hex": "0x15f90"
      },
      "to": "0x793AE8C1b1a160BFc07BFB0d04F85eab1A71F4f2",
      "value": {
        "_hex": "0x0"
      },
      "nonce": 0,
      "data": "0x3ba15036",
      "r": "0xf8d978d402a48cf0eca1c5eb893a466b1c5db0e0fd927de9382e939fc6b32906",
      "s": "0x497095048fcacbe13d8087118bf2ffea47815e191570f7fb0fc2fbdc4b4de0b7",
      "v": 28,
      "creates": null,
      "raw": "0xf86980850ba43b740083015f9094793ae8c1b1a160bfc07bfb0d04f85eab1a71f4f280843ba150361ca0f8d978d402a48cf0eca1c5eb893a466b1c5db0e0fd927de9382e939fc6b32906a0497095048fcacbe13d8087118bf2ffea47815e191570f7fb0fc2fbdc4b4de0b7",
      "networkId": 0,
      "chainId": 0
    },
    {
      "hash": "0xe2aefe1f46af9e43fc1156f0789b78811dd68acef73510ea26a695a712c8efc4",
      "blockHash": "0x4b22e0b5dc419577666487e63414c3dd668195e4edc498c175fd1b45957764ac",
      "blockNumber": 69024,
      "transactionIndex": 5,
      "confirmations": null,
      "from": "0x530571C67B1c96FCC8943F9809E2c33F8cfFC587",
      "gasPrice": {
        "_hex": "0xba43b7400"
      },
      "gasLimit": {
        "_hex": "0x15f90"
      },
      "to": "0x793AE8C1b1a160BFc07BFB0d04F85eab1A71F4f2",
      "value": {
        "_hex": "0x0"
      },
      "nonce": 0,
      "data": "0x3ba15036",
      "r": "0x702904394aec907ffc92d83dd392060717555ea7e7feeb6500e14f400b34ff65",
      "s": "0x2d3128c0614fd8146d6fd1327bbab18fed1112ff4b51cd3cb10ba941b492a4f9",
      "v": 27,
      "creates": null,
      "raw": "0xf86980850ba43b740083015f9094793ae8c1b1a160bfc07bfb0d04f85eab1a71f4f280843ba150361ba0702904394aec907ffc92d83dd392060717555ea7e7feeb6500e14f400b34ff65a02d3128c0614fd8146d6fd1327bbab18fed1112ff4b51cd3cb10ba941b492a4f9",
      "networkId": 0,
      "chainId": 0
    },
    {
      "hash": "0xc620c43a1e1caeff844492323480bdad57d7ae6defdafd786b6bb15e946e8aa2",
      "blockHash": "0x4b22e0b5dc419577666487e63414c3dd668195e4edc498c175fd1b45957764ac",
      "blockNumber": 69024,
      "transactionIndex": 6,
      "confirmations": null,
      "from": "0x915775888190057412254bC8619eb816aa304101",
      "gasPrice": {
        "_hex": "0xba43b7400"
      },
      "gasLimit": {
        "_hex": "0x15f90"
      },
      "to": "0x793AE8C1b1a160BFc07BFB0d04F85eab1A71F4f2",
      "value": {
        "_hex": "0x0"
      },
      "nonce": 0,
      "data": "0x3ba15036",
      "r": "0x54a020219f06f139f002a5e9803d02c9ef5459181e1945792874222549e77020",
      "s": "0x164fa722c4c9cfaf68f4da60321c154856e522ebf5d44e875d14748506235b5c",
      "v": 27,
      "creates": null,
      "raw": "0xf86980850ba43b740083015f9094793ae8c1b1a160bfc07bfb0d04f85eab1a71f4f280843ba150361ba054a020219f06f139f002a5e9803d02c9ef5459181e1945792874222549e77020a0164fa722c4c9cfaf68f4da60321c154856e522ebf5d44e875d14748506235b5c",
      "networkId": 0,
      "chainId": 0
    },
    {
      "hash": "0x24b25bf604d241029157798bbc18dff968a36df34123bf1b50f8cf4ed9019ebd",
      "blockHash": "0x4b22e0b5dc419577666487e63414c3dd668195e4edc498c175fd1b45957764ac",
      "blockNumber": 69024,
      "transactionIndex": 7,
      "confirmations": null,
      "from": "0xcDaDeDD85a9112D5616252BC62BcC39F30c0723a",
      "gasPrice": {
        "_hex": "0xba43b7400"
      },
      "gasLimit": {
        "_hex": "0x15f90"
      },
      "to": "0x793AE8C1b1a160BFc07BFB0d04F85eab1A71F4f2",
      "value": {
        "_hex": "0x0"
      },
      "nonce": 0,
      "data": "0x3ba15036",
      "r": "0xdb1eebcc5b618d81a05d0cafc1e73082a936d9dedab2cf89ab186ad16cecc41d",
      "s": "0x56cec34355264660f49a3fb88f741841c5fc2bf871698c445b21f7241274f927",
      "v": 28,
      "creates": null,
      "raw": "0xf86980850ba43b740083015f9094793ae8c1b1a160bfc07bfb0d04f85eab1a71f4f280843ba150361ca0db1eebcc5b618d81a05d0cafc1e73082a936d9dedab2cf89ab186ad16cecc41da056cec34355264660f49a3fb88f741841c5fc2bf871698c445b21f7241274f927",
      "networkId": 0,
      "chainId": 0
    },
    {
      "hash": "0xe0cae44328b15587cf33505bd0b3da9f18a043979340a98334ce940c15f68650",
      "blockHash": "0x4b22e0b5dc419577666487e63414c3dd668195e4edc498c175fd1b45957764ac",
      "blockNumber": 69024,
      "transactionIndex": 8,
      "confirmations": null,
      "from": "0xB3B53E5aB9733f9B6139ebf9287cBce491802dd3",
      "gasPrice": {
        "_hex": "0xba43b7400"
      },
      "gasLimit": {
        "_hex": "0x15f90"
      },
      "to": "0x793AE8C1b1a160BFc07BFB0d04F85eab1A71F4f2",
      "value": {
        "_hex": "0x0"
      },
      "nonce": 0,
      "data": "0x3ba15036",
      "r": "0x2d865ffb1a497423ea0407cf42db9978889c62d73e814e212812a7c50fc5fd68",
      "s": "0x75a27169fc754c25623edf84510d4cb0f654c096b6ef81fa70cd695c8bc4aa5d",
      "v": 27,
      "creates": null,
      "raw": "0xf86980850ba43b740083015f9094793ae8c1b1a160bfc07bfb0d04f85eab1a71f4f280843ba150361ba02d865ffb1a497423ea0407cf42db9978889c62d73e814e212812a7c50fc5fd68a075a27169fc754c25623edf84510d4cb0f654c096b6ef81fa70cd695c8bc4aa5d",
      "networkId": 0,
      "chainId": 0
    },
    {
      "hash": "0xed1253082156964ba93e69023c9f7c8db6c5022d17d1eae68166b080fcf563ea",
      "blockHash": "0x4b22e0b5dc419577666487e63414c3dd668195e4edc498c175fd1b45957764ac",
      "blockNumber": 69024,
      "transactionIndex": 9,
      "confirmations": null,
      "from": "0xD24D25fbc5dFD28d30d5e4c2a2029A529Ef74Dd6",
      "gasPrice": {
        "_hex": "0xba43b7400"
      },
      "gasLimit": {
        "_hex": "0x15f90"
      },
      "to": "0x793AE8C1b1a160BFc07BFB0d04F85eab1A71F4f2",
      "value": {
        "_hex": "0x0"
      },
      "nonce": 0,
      "data": "0x3ba15036",
      "r": "0x19aa0390070920c6e172ca766741f5cc5dcc662b734164e8c6ab97439ade2bfb",
      "s": "0x36442e5c911ed83199c0eb90876dee39dc8b25ab3b9f938d59d1b0d6bb6f1725",
      "v": 28,
      "creates": null,
      "raw": "0xf86980850ba43b740083015f9094793ae8c1b1a160bfc07bfb0d04f85eab1a71f4f280843ba150361ca019aa0390070920c6e172ca766741f5cc5dcc662b734164e8c6ab97439ade2bfba036442e5c911ed83199c0eb90876dee39dc8b25ab3b9f938d59d1b0d6bb6f1725",
      "networkId": 0,
      "chainId": 0
    },
    {
      "hash": "0xa367748440fb47c776a3cb2cf8d3e011c75c14b5d011612ccfa9b35a173c2fa2",
      "blockHash": "0x4b22e0b5dc419577666487e63414c3dd668195e4edc498c175fd1b45957764ac",
      "blockNumber": 69024,
      "transactionIndex": 10,
      "confirmations": null,
      "from": "0x867b846FAD61E85e91B639fCfD6f4F781E64720E",
      "gasPrice": {
        "_hex": "0xba43b7400"
      },
      "gasLimit": {
        "_hex": "0x15f90"
      },
      "to": "0x793AE8C1b1a160BFc07BFB0d04F85eab1A71F4f2",
      "value": {
        "_hex": "0x0"
      },
      "nonce": 0,
      "data": "0x3ba15036",
      "r": "0x2891aae3df3a87ce520cab66b4bba59fd82f6c7e781d05a14a8c29240a4602b2",
      "s": "0x1a6d32b973be339345c1530917a3d956318b3b5d9eb8c3393bb15adf3774f7cf",
      "v": 27,
      "creates": null,
      "raw": "0xf86980850ba43b740083015f9094793ae8c1b1a160bfc07bfb0d04f85eab1a71f4f280843ba150361ba02891aae3df3a87ce520cab66b4bba59fd82f6c7e781d05a14a8c29240a4602b2a01a6d32b973be339345c1530917a3d956318b3b5d9eb8c3393bb15adf3774f7cf",
      "networkId": 0,
      "chainId": 0
    },
    {
      "hash": "0x7d4245590fbea564c9b9cea88143aed4eddf3f39f0042bf5e85f1d5bc0ae787a",
      "blockHash": "0x4b22e0b5dc419577666487e63414c3dd668195e4edc498c175fd1b45957764ac",
      "blockNumber": 69024,
      "transactionIndex": 11,
      "confirmations": null,
      "from": "0xb67Ed294E8Ca7Cf86790F337BF41701e13F7c23d",
      "gasPrice": {
        "_hex": "0xba43b7400"
      },
      "gasLimit": {
        "_hex": "0x15f90"
      },
      "to": "0x793AE8C1b1a160BFc07BFB0d04F85eab1A71F4f2",
      "value": {
        "_hex": "0x0"
      },
      "nonce": 0,
      "data": "0x3ba15036",
      "r": "0xedec7fe65869ed567daf9ea82db5b8ae27338de1dedb36ea4461e2bf1ad8e282",
      "s": "0x5a34e3beb19ddef4a8e48dba19fc8995affb2d27b829893071a64402f0550432",
      "v": 28,
      "creates": null,
      "raw": "0xf86980850ba43b740083015f9094793ae8c1b1a160bfc07bfb0d04f85eab1a71f4f280843ba150361ca0edec7fe65869ed567daf9ea82db5b8ae27338de1dedb36ea4461e2bf1ad8e282a05a34e3beb19ddef4a8e48dba19fc8995affb2d27b829893071a64402f0550432",
      "networkId": 0,
      "chainId": 0
    },
    {
      "hash": "0x33d17f837bf5b345fa2e0b904e7595bfcce1b890375d2a9f7c4deeac8b6fd79f",
      "blockHash": "0x4b22e0b5dc419577666487e63414c3dd668195e4edc498c175fd1b45957764ac",
      "blockNumber": 69024,
      "transactionIndex": 12,
      "confirmations": null,
      "from": "0xB0f8a25f0cE8e1359470da6341B5ce390377b3EF",
      "gasPrice": {
        "_hex": "0xba43b7400"
      },
      "gasLimit": {
        "_hex": "0x15f90"
      },
      "to": "0x793AE8C1b1a160BFc07BFB0d04F85eab1A71F4f2",
      "value": {
        "_hex": "0x0"
      },
      "nonce": 0,
      "data": "0x3ba15036",
      "r": "0x6b1559d4f0086aa4b0ed3f6e81f9b425f97b22a3a10e65873275ea37a2016eef",
      "s": "0x2216a6e4832ce0b6ef6f164a8c2161930d7065fae2bbffbc66c518234444d4ed",
      "v": 27,
      "creates": null,
      "raw": "0xf86980850ba43b740083015f9094793ae8c1b1a160bfc07bfb0d04f85eab1a71f4f280843ba150361ba06b1559d4f0086aa4b0ed3f6e81f9b425f97b22a3a10e65873275ea37a2016eefa02216a6e4832ce0b6ef6f164a8c2161930d7065fae2bbffbc66c518234444d4ed",
      "networkId": 0,
      "chainId": 0
    },
    {
      "hash": "0xf5d77f807e94b796de25619da9d90bb470515c9f132f093e6be77d2a576c01d5",
      "blockHash": "0x4b22e0b5dc419577666487e63414c3dd668195e4edc498c175fd1b45957764ac",
      "blockNumber": 69024,
      "transactionIndex": 13,
      "confirmations": null,
      "from": "0x4612eD12344b7ca97814d61261bC7F539962b654",
      "gasPrice": {
        "_hex": "0xba43b7400"
      },
      "gasLimit": {
        "_hex": "0x15f90"
      },
      "to": "0x793AE8C1b1a160BFc07BFB0d04F85eab1A71F4f2",
      "value": {
        "_hex": "0x0"
      },
      "nonce": 0,
      "data": "0x3ba15036",
      "r": "0xb4d2b3595508471f0c0b71450c41196d4a486e741b988db41363db158a57dfbb",
      "s": "0x7571e1870f138a6e4161ad0e9daa96f634f1063851267380177aad669be51465",
      "v": 27,
      "creates": null,
      "raw": "0xf86980850ba43b740083015f9094793ae8c1b1a160bfc07bfb0d04f85eab1a71f4f280843ba150361ba0b4d2b3595508471f0c0b71450c41196d4a486e741b988db41363db158a57dfbba07571e1870f138a6e4161ad0e9daa96f634f1063851267380177aad669be51465",
      "networkId": 0,
      "chainId": 0
    },
    {
      "hash": "0xf7825809ece13dd6860a64ce1a89b2128cd8f8903cbf4091d42a693e0dfa293b",
      "blockHash": "0x4b22e0b5dc419577666487e63414c3dd668195e4edc498c175fd1b45957764ac",
      "blockNumber": 69024,
      "transactionIndex": 14,
      "confirmations": null,
      "from": "0x2f1A0cf338738fcd21351ec745029bA061b11D92",
      "gasPrice": {
        "_hex": "0xba43b7400"
      },
      "gasLimit": {
        "_hex": "0x15f90"
      },
      "to": "0x793AE8C1b1a160BFc07BFB0d04F85eab1A71F4f2",
      "value": {
        "_hex": "0x0"
      },
      "nonce": 0,
      "data": "0x3ba15036",
      "r": "0x1bf4702693e15190ae2ae1ccbedf99910ceaf8340c4fb6ba0a6a9c52f157ca96",
      "s": "0x134a81e9021e7b16e88aaca0c8255bc62f5de3bde04ec160f993463d7b16a1e7",
      "v": 27,
      "creates": null,
      "raw": "0xf86980850ba43b740083015f9094793ae8c1b1a160bfc07bfb0d04f85eab1a71f4f280843ba150361ba01bf4702693e15190ae2ae1ccbedf99910ceaf8340c4fb6ba0a6a9c52f157ca96a0134a81e9021e7b16e88aaca0c8255bc62f5de3bde04ec160f993463d7b16a1e7",
      "networkId": 0,
      "chainId": 0
    },
    {
      "hash": "0xc4fb74c8d50c462f0e49aa7778174fc99534978040de933f1f14d2f4274880c1",
      "blockHash": "0x4b22e0b5dc419577666487e63414c3dd668195e4edc498c175fd1b45957764ac",
      "blockNumber": 69024,
      "transactionIndex": 15,
      "confirmations": null,
      "from": "0xECa79f6AAdbBc84f72a6A9C192841Bd28dF011eA",
      "gasPrice": {
        "_hex": "0xba43b7400"
      },
      "gasLimit": {
        "_hex": "0x15f90"
      },
      "to": "0x793AE8C1b1a160BFc07BFB0d04F85eab1A71F4f2",
      "value": {
        "_hex": "0x0"
      },
      "nonce": 0,
      "data": "0x3ba15036",
      "r": "0xb05a1f7d7dde56eea781b184182c7912ab60bedf16f202128f10d80564245084",
      "s": "0x69ee69d2494b59912e45800c376af735665e7c044d14ee0d277b08e43eb5e597",
      "v": 27,
      "creates": null,
      "raw": "0xf86980850ba43b740083015f9094793ae8c1b1a160bfc07bfb0d04f85eab1a71f4f280843ba150361ba0b05a1f7d7dde56eea781b184182c7912ab60bedf16f202128f10d80564245084a069ee69d2494b59912e45800c376af735665e7c044d14ee0d277b08e43eb5e597",
      "networkId": 0,
      "chainId": 0
    },
    {
      "hash": "0xd0bf1dfc01d312b6a0cb3e3ff63a0010e23fdb77cce478914b19928d980fd7ab",
      "blockHash": "0x4b22e0b5dc419577666487e63414c3dd668195e4edc498c175fd1b45957764ac",
      "blockNumber": 69024,
      "transactionIndex": 16,
      "confirmations": null,
      "from": "0x0614c4F1a59a3883b749e0AAB29174157dCAA937",
      "gasPrice": {
        "_hex": "0xba43b7400"
      },
      "gasLimit": {
        "_hex": "0x15f90"
      },
      "to": "0x793AE8C1b1a160BFc07BFB0d04F85eab1A71F4f2",
      "value": {
        "_hex": "0x0"
      },
      "nonce": 0,
      "data": "0x3ba15036",
      "r": "0x2a8f14347b9f1c6850df88b3938e56ba0d0aacb99e18688cee4e58e62526b2b0",
      "s": "0x7149a62324e3d235ac675d5f984c0e807a8c042f65db76309202199680bc86dc",
      "v": 28,
      "creates": null,
      "raw": "0xf86980850ba43b740083015f9094793ae8c1b1a160bfc07bfb0d04f85eab1a71f4f280843ba150361ca02a8f14347b9f1c6850df88b3938e56ba0d0aacb99e18688cee4e58e62526b2b0a07149a62324e3d235ac675d5f984c0e807a8c042f65db76309202199680bc86dc",
      "networkId": 0,
      "chainId": 0
    },
    {
      "hash": "0x8cef7af65118df18bf980302be80401dfd3e4c5994819a151a18713448eed2e9",
      "blockHash": "0x4b22e0b5dc419577666487e63414c3dd668195e4edc498c175fd1b45957764ac",
      "blockNumber": 69024,
      "transactionIndex": 17,
      "confirmations": null,
      "from": "0xb5da863Ff37d16C4C65483405Da4b37BAD01f6cf",
      "gasPrice": {
        "_hex": "0xba43b7400"
      },
      "gasLimit": {
        "_hex": "0x15f90"
      },
      "to": "0x793AE8C1b1a160BFc07BFB0d04F85eab1A71F4f2",
      "value": {
        "_hex": "0x0"
      },
      "nonce": 0,
      "data": "0x3ba15036",
      "r": "0x6ac3b5d55d28dcea2bc603a1cac4d08c22bc29d7f0279430a687c877784453af",
      "s": "0x1dafbadea234e78c6754b7540b10d69c8133460567b445fc6d98d33bd57a4a98",
      "v": 27,
      "creates": null,
      "raw": "0xf86980850ba43b740083015f9094793ae8c1b1a160bfc07bfb0d04f85eab1a71f4f280843ba150361ba06ac3b5d55d28dcea2bc603a1cac4d08c22bc29d7f0279430a687c877784453afa01dafbadea234e78c6754b7540b10d69c8133460567b445fc6d98d33bd57a4a98",
      "networkId": 0,
      "chainId": 0
    },
    {
      "hash": "0xaa8fad5e559d8f9a8a438cc150e12ea278f82eaaebe55fda5fc2aff59e215897",
      "blockHash": "0x4b22e0b5dc419577666487e63414c3dd668195e4edc498c175fd1b45957764ac",
      "blockNumber": 69024,
      "transactionIndex": 18,
      "confirmations": null,
      "from": "0x12cf9Db35d08F0328F5288D3bFCd49C3a558Cd50",
      "gasPrice": {
        "_hex": "0xba43b7400"
      },
      "gasLimit": {
        "_hex": "0x15f90"
      },
      "to": "0x793AE8C1b1a160BFc07BFB0d04F85eab1A71F4f2",
      "value": {
        "_hex": "0x0"
      },
      "nonce": 0,
      "data": "0x3ba15036",
      "r": "0xf8ad7216105aac42894d6beef4c0c435ea86ad941d2dbf3e2ed1d705d2defabf",
      "s": "0x4ebb078c9cec2f23cda887591daf3dc27f678ed05bd32fb663b1b70db2495306",
      "v": 28,
      "creates": null,
      "raw": "0xf86980850ba43b740083015f9094793ae8c1b1a160bfc07bfb0d04f85eab1a71f4f280843ba150361ca0f8ad7216105aac42894d6beef4c0c435ea86ad941d2dbf3e2ed1d705d2defabfa04ebb078c9cec2f23cda887591daf3dc27f678ed05bd32fb663b1b70db2495306",
      "networkId": 0,
      "chainId": 0
    },
    {
      "hash": "0x7ae57a537ca00f321ec0e85655541175842e41aa9b46d1fd5acfbe87c5a5a5fa",
      "blockHash": "0x4b22e0b5dc419577666487e63414c3dd668195e4edc498c175fd1b45957764ac",
      "blockNumber": 69024,
      "transactionIndex": 19,
      "confirmations": null,
      "from": "0x381d12209F3d12ca9b10b47EeDDb206c4e790137",
      "gasPrice": {
        "_hex": "0xba43b7400"
      },
      "gasLimit": {
        "_hex": "0x15f90"
      },
      "to": "0x793AE8C1b1a160BFc07BFB0d04F85eab1A71F4f2",
      "value": {
        "_hex": "0x0"
      },
      "nonce": 0,
      "data": "0x3ba15036",
      "r": "0xc2d442fc8623fe637b1a140fcaa62f81273f0d166fa9f4a002807eec87e91720",
      "s": "0x384696d861a08919e9705eb53893ded899ecf89dff0b86118ad66eae08e87604",
      "v": 27,
      "creates": null,
      "raw": "0xf86980850ba43b740083015f9094793ae8c1b1a160bfc07bfb0d04f85eab1a71f4f280843ba150361ba0c2d442fc8623fe637b1a140fcaa62f81273f0d166fa9f4a002807eec87e91720a0384696d861a08919e9705eb53893ded899ecf89dff0b86118ad66eae08e87604",
      "networkId": 0,
      "chainId": 0
    },
    {
      "hash": "0x3973ee02b5cd853faba768e6a9fcf492d6224bcc92516fe12d5778146a4a8206",
      "blockHash": "0x4b22e0b5dc419577666487e63414c3dd668195e4edc498c175fd1b45957764ac",
      "blockNumber": 69024,
      "transactionIndex": 20,
      "confirmations": null,
      "from": "0xF4294A619Bf0b8971a8C0b90F80020C2C991bc81",
      "gasPrice": {
        "_hex": "0xba43b7400"
      },
      "gasLimit": {
        "_hex": "0x15f90"
      },
      "to": "0x793AE8C1b1a160BFc07BFB0d04F85eab1A71F4f2",
      "value": {
        "_hex": "0x0"
      },
      "nonce": 0,
      "data": "0x3ba15036",
      "r": "0x54b52865a6908a9aec0ae7285eab03ebf225f0f891262e02a10a9de93aa0c091",
      "s": "0x76c50204762b142588c8e373a7b672180fdd87e815604e911a1040872b5e25d3",
      "v": 28,
      "creates": null,
      "raw": "0xf86980850ba43b740083015f9094793ae8c1b1a160bfc07bfb0d04f85eab1a71f4f280843ba150361ca054b52865a6908a9aec0ae7285eab03ebf225f0f891262e02a10a9de93aa0c091a076c50204762b142588c8e373a7b672180fdd87e815604e911a1040872b5e25d3",
      "networkId": 0,
      "chainId": 0
    },
    {
      "hash": "0x776e3ed81293654db5e766569886eba575d4595436119c3f66c459e43e83cc21",
      "blockHash": "0x4b22e0b5dc419577666487e63414c3dd668195e4edc498c175fd1b45957764ac",
      "blockNumber": 69024,
      "transactionIndex": 21,
      "confirmations": null,
      "from": "0xc34f0900f81bD9c626E95C118Fec2d19EBCf1DBc",
      "gasPrice": {
        "_hex": "0xba43b7400"
      },
      "gasLimit": {
        "_hex": "0x15f90"
      },
      "to": "0x793AE8C1b1a160BFc07BFB0d04F85eab1A71F4f2",
      "value": {
        "_hex": "0x0"
      },
      "nonce": 0,
      "data": "0x3ba15036",
      "r": "0x30bc55c3efc3d3ba68f82362e5eb3a120445cf31067c4f3930c642df5ca61070",
      "s": "0x614f96d428b2c38c65eaf55820d2be7faf9797db6adeef79c32ced2f95e082b7",
      "v": 28,
      "creates": null,
      "raw": "0xf86980850ba43b740083015f9094793ae8c1b1a160bfc07bfb0d04f85eab1a71f4f280843ba150361ca030bc55c3efc3d3ba68f82362e5eb3a120445cf31067c4f3930c642df5ca61070a0614f96d428b2c38c65eaf55820d2be7faf9797db6adeef79c32ced2f95e082b7",
      "networkId": 0,
      "chainId": 0
    },
    {
      "hash": "0xe1b2ee03406e06ec516546cb6310903993240722a977081c05632ac2b357468f",
      "blockHash": "0x4b22e0b5dc419577666487e63414c3dd668195e4edc498c175fd1b45957764ac",
      "blockNumber": 69024,
      "transactionIndex": 22,
      "confirmations": null,
      "from": "0x585e19f87878b77c19BBDA8be0c976D1049F0edc",
      "gasPrice": {
        "_hex": "0xba43b7400"
      },
      "gasLimit": {
        "_hex": "0x15f90"
      },
      "to": "0x793AE8C1b1a160BFc07BFB0d04F85eab1A71F4f2",
      "value": {
        "_hex": "0x0"
      },
      "nonce": 0,
      "data": "0x3ba15036",
      "r": "0x41ab229b6acbe701b67770d8f122195808bdb26cac990cd9c29043b34405b5d6",
      "s": "0x5be0fd45bc3cfb1fd9dd5793de27ae25c3ae3cf99eff460d0d62b9793104de82",
      "v": 28,
      "creates": null,
      "raw": "0xf86980850ba43b740083015f9094793ae8c1b1a160bfc07bfb0d04f85eab1a71f4f280843ba150361ca041ab229b6acbe701b67770d8f122195808bdb26cac990cd9c29043b34405b5d6a05be0fd45bc3cfb1fd9dd5793de27ae25c3ae3cf99eff460d0d62b9793104de82",
      "networkId": 0,
      "chainId": 0
    },
    {
      "hash": "0x88f2d01a5aa72fa17e0b4b8a87e22acf6efba83eaae98190abfae0077e4e386c",
      "blockHash": "0x4b22e0b5dc419577666487e63414c3dd668195e4edc498c175fd1b45957764ac",
      "blockNumber": 69024,
      "transactionIndex": 23,
      "confirmations": null,
      "from": "0xd91B5a3bCDC372d101Be20dAC2C099080F6b646D",
      "gasPrice": {
        "_hex": "0xba43b7400"
      },
      "gasLimit": {
        "_hex": "0x15f90"
      },
      "to": "0x793AE8C1b1a160BFc07BFB0d04F85eab1A71F4f2",
      "value": {
        "_hex": "0x0"
      },
      "nonce": 0,
      "data": "0x3ba15036",
      "r": "0x0a7b6d86cfe96f4e63c790a89cc793fe386814e908615d539082e046a492dccd",
      "s": "0x6f7bcf73108941d896198be2d7c440b659a6be5b4510c78969bba6346c3c6cae",
      "v": 27,
      "creates": null,
      "raw": "0xf86980850ba43b740083015f9094793ae8c1b1a160bfc07bfb0d04f85eab1a71f4f280843ba150361ba00a7b6d86cfe96f4e63c790a89cc793fe386814e908615d539082e046a492dccda06f7bcf73108941d896198be2d7c440b659a6be5b4510c78969bba6346c3c6cae",
      "networkId": 0,
      "chainId": 0
    },
    {
      "hash": "0x7ac18a1640e443cd069ff51da382b92b585e42dae8f38db0932380bfe86908a6",
      "blockHash": "0x4b22e0b5dc419577666487e63414c3dd668195e4edc498c175fd1b45957764ac",
      "blockNumber": 69024,
      "transactionIndex": 24,
      "confirmations": null,
      "from": "0x691625324Eee68BCA95DA99E760FA72F01900eE0",
      "gasPrice": {
        "_hex": "0xba43b7400"
      },
      "gasLimit": {
        "_hex": "0x15f90"
      },
      "to": "0x793AE8C1b1a160BFc07BFB0d04F85eab1A71F4f2",
      "value": {
        "_hex": "0x0"
      },
      "nonce": 0,
      "data": "0x3ba15036",
      "r": "0x42aef9a84a07b4378bbbd7e9179a761d64503535c4d7b3656244e2857d10b00a",
      "s": "0x0742ffd9ae7c30dff7d0173daa6a57ce1e63bc4901109c07752c2daa63ae6b34",
      "v": 28,
      "creates": null,
      "raw": "0xf86980850ba43b740083015f9094793ae8c1b1a160bfc07bfb0d04f85eab1a71f4f280843ba150361ca042aef9a84a07b4378bbbd7e9179a761d64503535c4d7b3656244e2857d10b00aa00742ffd9ae7c30dff7d0173daa6a57ce1e63bc4901109c07752c2daa63ae6b34",
      "networkId": 0,
      "chainId": 0
    }
  ]
}