{
  "hash": "0xcea10d7e93fef30cbdb009e77a25cbca3884baf490047a66170d04dbb25e74fb",
  "parentHash": "0x8f56de98787d5d1091ea4ed557ef9c292fb9eb6e8a23ac149d6711f39d32cb38",
  "number": 64484,
  "timestamp": 1439221444,
  "nonce": "0x6e4e48394c2d1787",
  "difficulty": 1876612182538,
  "gasLimit": {
    "_hex": "0x2fefd8"
  },
  "gasUsed": {
    "_hex": "0x5208"
  },
  "miner": "0x00eBA8Ef4fF9B21Ec2FFF273953fDCC81f6fE7da",
  "extraData": "0x476574682f76312e302e312f6c696e75782f676f312e342e32",
  "transactions": [
    {
      "hash": "0x167febf8b16cb88f125bf051ea24af4ea2665697808dd73e83c1db08bb968d6f",
      "blockHash": "0xcea10d7e93fef30cbdb009e77a25cbca3884baf490047a66170d04dbb25e74fb",
      "blockNumber": 64484,
      "transactionIndex": 0,
      "confirmations": null,
      "from": "0x43c2AeB7b46cbB31eE7f9A86BDAfB5C87cD486a3",
      "gasPrice": {
        "_hex": "0xba43b7400"
      },
      "gasLimit": {
        "_hex": "0x5267"
      },
      "to": "0xf79785E5a846aCea08F94379fCCe79B1054bDB99",
      "value": {
        "_hex": "0x4563918244f40000"
      },
      "nonce": 4,
      "data": "0x",
      "r": "0x84fa76894575029951e6069e1728d73f10fb38eba07ca702adabf4c607a779ec",
      "s": "0x4147633c6e1b902de8c8095f3d5dd94f076ac8fdff16d18d267f745cab68c6be",
      "v": 27,
      "creates": null,
      "raw": "0xf86c04850ba43b740082526794f79785e5a846acea08f94379fcce79b1054bdb99884563918244f40000801ba084fa76894575029951e6069e1728d73f10fb38eba07ca702adabf4c607a779eca04147633c6e1b902de8c8095f3d5dd94f076ac8fdff16d18d267f745cab68c6be",
      "networkId": 0,
      "chainId": 0
    }
  ]
}