{
  "hash": "0x6eb90e0f1c4dbb1df8cb52d5a10d912a1b545380c3774d42f1fd5cac00fa6b83",
  "parentHash": "0x2cd012c2efb3c4ce2237a14bd805bf6e6ab44bc282ea7fc62a88b08b4443670c",
  "number": 85626,
  "timestamp": 1439566356,
  "nonce": "0x8dc1b4c86c69ac53",
  "difficulty": 2790893768360,
  "gasLimit": {
    "_hex": "0x2fefd8"
  },
  "gasUsed": {
    "_hex": "0xa674"
  },
  "miner": "0xf32866D5cE9a9b5673e076be48AbCd6ED48ADe78",
  "extraData": "0x476574682f76312e302e312d37666266393930632f6c696e75782f676f312e34",
  "transactions": [
    {
      "hash": "0xbd5c0f68e7020803aaa824f3eca4a67734ee436ac54d2a457f08b958e214f944",
      "blockHash": "0x6eb90e0f1c4dbb1df8cb52d5a10d912a1b545380c3774d42f1fd5cac00fa6b83",
      "blockNumber": 85626,
      "transactionIndex": 0,
      "confirmations": null,
      "from": "0x814e505e371c7748C7b4675B94ABccfD1df6DD8A",
      "gasPrice": {
        "_hex": "0x746a528800"
      },
      "gasLimit": {
        "_hex": "0x55f0"
      },
      "to": "0x2910543Af39abA0Cd09dBb2D50200b3E800A63D2",
      "value": {
        "_hex": "0x4be4e7267b6ae00000"
      },
      "nonce": 2,
      "data": "0x454e4e4b3732444a47",
      "r": "0x87aeb5a36c98dfb29b6ace0f89678e8960a25eb9a5a916780cd1085a1bfe62e3",
      "s": "0x1543d354b660b0b03c24edcf689cac30d2832cf92eac46c38e0988c1b80e2474",
      "v": 27,
      "creates": null,
      "raw": "0xf8760285746a5288008255f0942910543af39aba0cd09dbb2d50200b3e800a63d2894be4e7267b6ae0000089454e4e4b3732444a471ba087aeb5a36c98dfb29b6ace0f89678e8960a25eb9a5a916780cd1085a1bfe62e3a01543d354b660b0b03c24edcf689cac30d2832cf92eac46c38e0988c1b80e2474",
      "networkId": 0,
      "chainId": 0
    },
    {
      "hash": "0xac0e1e091bc98af4230a49579d056f304a79413f2da398fc01dbbbe22bca6e6c",
      "blockHash": "0x6eb90e0f1c4dbb1df8cb52d5a10d912a1b545380c3774d42f1fd5cac00fa6b83",
      "blockNumber": 85626,
      "transactionIndex": 1,
      "confirmations": null,
      "from": "0x76Df61770A702069FE1381EAE55AD11A03dEcA93",
      "gasPrice": {
        "_hex": "0xcc5ce1256"
      },
      "gasLimit": {
        "_hex": "0x15f90"
      },
      "to": "0xA8c8B89fD99a25b4a085DfF3d967b47b10b37034",
      "value": {
        "_hex": "0x2386f26fc10000"
      },
      "nonce": 1,
      "data": "0x",
      "r": "0xa6e388b8ff12adeddf666e9f1470401f00b75c1eacd1bbd95351691fc1f33f22",
      "s": "0x1141473089fd80b08dc479ae0b624717ba8a60b60b05697810f4e1b980e80ddb",
      "v": 28,
      "creates": null,
      "raw": "0xf86c01850cc5ce125683015f9094a8c8b89fd99a25b4a085dff3d967b47b10b37034872386f26fc10000801ca0a6e388b8ff12adeddf666e9f1470401f00b75c1eacd1bbd95351691fc1f33f22a01141473089fd80b08dc479ae0b624717ba8a60b60b05697810f4e1b980e80ddb",
      "networkId": 0,
      "chainId": 0
    }
  ]
}