{
  "hash": "0xb8c175fb778a2ed7f135546a3ac64ea13aef61c4dd889121761cc77c9cba4788",
  "parentHash": "0xd86310044fed85444f6689cc1488b0bb3fc090f91c30d72156cb725fe0336ecb",
  "number": 101539,
  "timestamp": 1439824385,
  "nonce": "0xb1f38d271698a10c",
  "difficulty": 3876882480971,
  "gasLimit": {
    "_hex": "0x2fefd8"
  },
  "gasUsed": {
    "_hex": "0x5208"
  },
  "miner": "0x9746c7e1ef2bd21FF3997fa467593a89cb852BD0",
  "extraData": "0x476574682f76312e302e312f77696e646f77732f676f312e342e32",
  "transactions": [
    {
      "hash": "0xf5c1e3d61d75f5ec1166fc8eca7fbd0176bc6e039131199f9f3f856729b18830",
      "blockHash": "0xb8c175fb778a2ed7f135546a3ac64ea13aef61c4dd889121761cc77c9cba4788",
      "blockNumber": 101539,
      "transactionIndex": 0,
      "confirmations": null,
      "from": "0xe33977E292cceF99Ea8828733e97562F3690a8ad",
      "gasPrice": {
        "_hex": "0xcff51b67a"
      },
      "gasLimit": {
        "_hex": "0x5208"
      },
      "to": "0x32Be343B94f860124dC4fEe278FDCBD38C102D88",
      "value": {
        "_hex": "0x80162e4bee6db000"
      },
      "nonce": 3,
      "data": "0x",
      "r": "0xced9f22452ae5d5530881e46ba5fceda63213252e961cf2da2dcfcedce1cb690",
      "s": "0x7590117f3ec15947f7961039967cba67026f8f0e41ea4715703846128f4ff38f",
      "v": 27,
      "creates": null,
      "raw": "0xf86c03850cff51b67a8252089432be343b94f860124dc4fee278fdcbd38c102d888880162e4bee6db000801ba0ced9f22452ae5d5530881e46ba5fceda63213252e961cf2da2dcfcedce1cb690a07590117f3ec15947f7961039967cba67026f8f0e41ea4715703846128f4ff38f",
      "networkId": 0,
      "chainId": 0
    }
  ]
}