{
  "hash": "0x62b1bc84444083f266e3e63567b55f4021f6a8f58ca5d1666c8098aec6fbba45",
  "parentHash": "0x09819c516a975bb064d3c8d135d6c41fff500706ded6d967cb9357885193c771",
  "number": 54821,
  "timestamp": 1439060537,
  "nonce": "0x20e89dc7fd8399e9",
  "difficulty": 1614079071115,
  "gasLimit": {
    "_hex": "0x2fefd8"
  },
  "gasUsed": {
    "_hex": "0x5208"
  },
  "miner": "0x9746c7e1ef2bd21FF3997fa467593a89cb852BD0",
  "extraData": "0x476574682f76312e302e312f77696e646f77732f676f312e342e32",
  "transactions": [
    {
      "hash": "0xde31c07227fb88457632b161e334617c3ad81e3fadbcd841df3bedb84b7be068",
      "blockHash": "0x62b1bc84444083f266e3e63567b55f4021f6a8f58ca5d1666c8098aec6fbba45",
      "blockNumber": 54821,
      "transactionIndex": 0,
      "confirmations": null,
      "from": "0xd0C34376F4b5Ae34E062c043f736f1304B153544",
      "gasPrice": {
        "_hex": "0x102eb89eb39"
      },
      "gasLimit": {
        "_hex": "0x5208"
      },
      "to": "0x835cFb953639ABaB9F2612b8d92C997771Ae6312",
      "value": {
        "_hex": "0x4563918244f40000"
      },
      "nonce": 4,
      "data": "0x",
      "r": "0xe44503a6b20563e12363e28cd6e1544b97eae77a7420776745104960f079e955",
      "s": "0x1e7a1153fe33755c482e78120fb282495e6c7357284311d42eb8800f3da0bd33",
      "v": 27,
      "creates": null,
      "raw": "0xf86d04860102eb89eb3982520894835cfb953639abab9f2612b8d92c997771ae6312884563918244f40000801ba0e44503a6b20563e12363e28cd6e1544b97eae77a7420776745104960f079e955a01e7a1153fe33755c482e78120fb282495e6c7357284311d42eb8800f3da0bd33",
      "networkId": 0,
      "chainId": 0
    }
  ]
}