{
  "hash": "0x85cb74a33323edbfb1f7c9dec6baed2ca5136ff7658a308043b743b0c1da836f",
  "parentHash": "0x50614555ef7d866316ba6b73f3980d6f9f62b0975e7128fa1dcc6e7d43199938",
  "number": 117351,
  "timestamp": 1440107973,
  "nonce": "0x8733ce6207b0f50d",
  "difficulty": 4316830349408,
  "gasLimit": {
    "_hex": "0x2fefd8"
  },
  "gasUsed": {
    "_hex": "0x2a20"
  },
  "miner": "0xe6A7a1d47ff21B6321162AEA7C6CB457D5476Bca",
  "extraData": "0xd783010002844765746887676f312e342e32856c696e7578",
  "transactions": [
    {
      "hash": "0xd3fdc00118330c56314455038c0ef7d72bd07966eed68ddb5d49676ee413686b",
      "blockHash": "0x85cb74a33323edbfb1f7c9dec6baed2ca5136ff7658a308043b743b0c1da836f",
      "blockNumber": 117351,
      "transactionIndex": 0,
      "confirmations": null,
      "from": "0x36B113901a68E562ce082b2da82Eb6027af3b375",
      "gasPrice": {
        "_hex": "0xdaf6bc840"
      },
      "gasLimit": {
        "_hex": "0x15f90"
      },
      "to": "0xC4F14b38020BD9d1494aca3Ee8C88ca0265eCb08",
      "value": {
        "_hex": "0x0"
      },
      "nonce": 1,
      "data": "0x41c0e1b5",
      "r": "0xc30870dd6a27fedce7b563359816276a7d0e84f8a5965915bc2377f4639396c3",
      "s": "0x6586c857e44cd9bf499bb11a0d407df7cb51f715ed1705bc66b5df757c2a7924",
      "v": 27,
      "creates": null,
      "raw": "0xf86901850daf6bc84083015f9094c4f14b38020bd9d1494aca3ee8c88ca0265ecb08808441c0e1b51ba0c30870dd6a27fedce7b563359816276a7d0e84f8a5965915bc2377f4639396c3a06586c857e44cd9bf499bb11a0d407df7cb51f715ed1705bc66b5df757c2a7924",
      "networkId": 0,
      "chainId": 0
    }
  ]
}