{
  "hash": "0x348fad2ef4f2ca39e26f7e6a81f8e2214978e95cfe2535c0cb0fb60d9fdc2578",
  "parentHash": "0xb653e91276125ee2e540ab2ad069f0b078536d48e24a2ecefa7e9d5825006ae4",
  "number": 100971,
  "timestamp": 1439815392,
  "nonce": "0xd1b0b90bbfeb32f7",
  "difficulty": 3858259767495,
  "gasLimit": {
    "_hex": "0x2fefd8"
  },
  "gasUsed": {
    "_hex": "0x5208"
  },
  "miner": "0x0eDEd3DA479d0beF8eeC92A76644D3f4E3C177f7",
  "extraData": "0x476574682f76312e302e312f6c696e75782f676f312e342e32",
  "transactions": [
    {
      "hash": "0xdf82d77f686ef158b388703ed271d6dd4c85055d6a4d0a482daf29462bc9f975",
      "blockHash": "0x348fad2ef4f2ca39e26f7e6a81f8e2214978e95cfe2535c0cb0fb60d9fdc2578",
      "blockNumber": 100971,
      "transactionIndex": 0,
      "confirmations": null,
      "from": "0xEa4933866ad977Ce24bBb244ECc2C79463454Fe4",
      "gasPrice": {
        "_hex": "0xd8f849988"
      },
      "gasLimit": {
        "_hex": "0x5208"
      },
      "to": "0x32Be343B94f860124dC4fEe278FDCBD38C102D88",
      "value": {
        "_hex": "0x6307a86cd6789000"
      },
      "nonce": 3,
      "data": "0x",
      "r": "0x88e517059745fce88acbcc67b5e7f7164aa9f127b32986de2b51d6d595053a48",
      "s": "0x32998d4740875202a53f3899b91358e4f5fa15fe69ba52266dd32a83c7622750",
      "v": 27,
      "creates": null,
      "raw": "0xf86c03850d8f8499888252089432be343b94f860124dc4fee278fdcbd38c102d88886307a86cd6789000801ba088e517059745fce88acbcc67b5e7f7164aa9f127b32986de2b51d6d595053a48a032998d4740875202a53f3899b91358e4f5fa15fe69ba52266dd32a83c7622750",
      "networkId": 0,
      "chainId": 0
    }
  ]
}