{
  "hash": "0x78ce6bced39bdfbd983c0d636e8fcfa2d8e0bf80f35cbf827377f822fcb45b3d",
  "parentHash": "0x39899e41b1ffc4b12fd5d2559715cdbb9039efcea716cf36f15f230208eb2d56",
  "number": 122330,
  "timestamp": 1440192280,
  "nonce": "0x3ebfc23aad2daf43",
  "difficulty": 4475190725645,
  "gasLimit": {
    "_hex": "0x2fefd8"
  },
  "gasUsed": {
    "_hex": "0x5208"
  },
  "miner": "0x608f4b86321a68453f9adf6F06F7Fc3E621739ad",
  "extraData": "0xd783010002844765746887676f312e342e32856c696e7578",
  "transactions": [
    {
      "hash": "0x48533e230aa5caf853afc59c47a251ba05195b7767b7bc611f6240db7655d5c7",
      "blockHash": "0x78ce6bced39bdfbd983c0d636e8fcfa2d8e0bf80f35cbf827377f822fcb45b3d",
      "blockNumber": 122330,
      "transactionIndex": 0,
      "confirmations": null,
      "from": "0xDbEdE24fCCCAa29C0F7E950314a9b28f91f8d659",
      "gasPrice": {
        "_hex": "0xdd0601ac9"
      },
      "gasLimit": {
        "_hex": "0x15f90"
      },
      "to": "0x812bbf42F8926f5528823Ac6C466A63A27C26Fd9",
      "value": {
        "_hex": "0x17da3a04c7b3e00000"
      },
      "nonce": 0,
      "data": "0x",
      "r": "0x9c8bbe78d888c564794d861ce0044c53141a0eed6cb8c46747e6373b69b1656d",
      "s": "0x06f7e5eecb7dbf24f8af1ab64e1de7db69eb68bfeb4d843a78d40d9f793d6be2",
      "v": 27,
      "creates": null,
      "raw": "0xf86e80850dd0601ac983015f9094812bbf42f8926f5528823ac6c466a63a27c26fd98917da3a04c7b3e00000801ba09c8bbe78d888c564794d861ce0044c53141a0eed6cb8c46747e6373b69b1656da006f7e5eecb7dbf24f8af1ab64e1de7db69eb68bfeb4d843a78d40d9f793d6be2",
      "networkId": 0,
      "chainId": 0
    }
  ]
}