{
  "hash": "0xc08602234d724079f799085047c6292f7b70c34d7a16d926025ce5251390034b",
  "parentHash": "0xeb93705bf47983087a7ca0cf00a41248616cd8d0d762732a0835c83c2625cdec",
  "number": 112163,
  "timestamp": 1440003013,
  "nonce": "0x12285736e09cf9d2",
  "difficulty": 4378962181694,
  "gasLimit": {
    "_hex": "0x2fefd8"
  },
  "gasUsed": {
    "_hex": "0x5208"
  },
  "miner": "0xD9A886C84f58D94968B03cCA5ce0Fa2AE32698bc",
  "extraData": "0x476574682f76312e302e312f77696e646f77732f676f312e342e32",
  "transactions": [
    {
      "hash": "0x6ae54815803e8acba4f62df768379b9f1608027be39a7b53eef4fc7dafb0cbcd",
      "blockHash": "0xc08602234d724079f799085047c6292f7b70c34d7a16d926025ce5251390034b",
      "blockNumber": 112163,
      "transactionIndex": 0,
      "confirmations": null,
      "from": "0x65C40Ee4e07E09671fF3cE2dff2AcCbE366bb5C8",
      "gasPrice": {
        "_hex": "0xd7300791d"
      },
      "gasLimit": {
        "_hex": "0x5208"
      },
      "to": "0x32Be343B94f860124dC4fEe278FDCBD38C102D88",
      "value": {
        "_hex": "0xea265d8c07ee4000"
      },
      "nonce": 5,
      "data": "0x",
      "r": "0x181306565aeef581cf02a03acdf230a89d63ecb99b14e95bfa2ce46a6498d25f",
      "s": "0x7c1fe7b5daf1fbbf1261f3b931d029115373c15b45766306d5d2cbd3603d5b95",
      "v": 27,
      "creates": null,
      "raw": "0xf86c05850d7300791d8252089432be343b94f860124dc4fee278fdcbd38c102d8888ea265d8c07ee4000801ba0181306565aeef581cf02a03acdf230a89d63ecb99b14e95bfa2ce46a6498d25fa07c1fe7b5daf1fbbf1261f3b931d029115373c15b45766306d5d2cbd3603d5b95",
      "networkId": 0,
      "chainId": 0
    }
  ]
}