{
  "hash": "0x553e3c82e275d3e949f0b85e35d8a42519c563ef2d8637e3bdc444cc90a97deb",
  "parentHash": "0x51616af976f5dd9b6439fe22add1f33d0f96c86046f189a8da5e051b5cb25ece",
  "number": 65659,
  "timestamp": 1439240776,
  "nonce": "0xf8eeab5855288ec5",
  "difficulty": 1936856568637,
  "gasLimit": {
    "_hex": "0x2fefd8"
  },
  "gasUsed": {
    "_hex": "0x7c2d"
  },
  "miner": "0x3ce70f7EBbb911d5FF14BB9244ac7C9be2c669B3",
  "extraData": "0xda8098302e392e33392b2b302d524c696e75782f672b2b2f696e74",
  "transactions": [
    {
      "hash": "0x5a4ce110a203aded2c50e002d2bd98df227d33854b1f068c2b095000e4734f9b",
      "blockHash": "0x553e3c82e275d3e949f0b85e35d8a42519c563ef2d8637e3bdc444cc90a97deb",
      "blockNumber": 65659,
      "transactionIndex": 0,
      "confirmations": null,
      "from": "0xD9E6086071980fE3484b6BaABA07A10b47B046A6",
      "gasPrice": {
        "_hex": "0xfe6afbf573"
      },
      "gasLimit": {
        "_hex": "0x15f90"
      },
      "to": "0x125B606C67E8066Da65069652b656c19717745Fa",
      "value": {
        "_hex": "0x13fbe85edc90000"
      },
      "nonce": 10,
      "data": "0xa55526db",
      "r": "0xded5b96b7f2606dfb16c9469891b23df45bc8fe4a780613cef554580dcdaa1e7",
      "s": "0x0851deea7428d15f3579e58cecb6ac3ea2f7a23e210c76c4ab074f5fc36c2cdc",
      "v": 27,
      "creates": null,
      "raw": "0xf8710a85fe6afbf57383015f9094125b606c67e8066da65069652b656c19717745fa88013fbe85edc9000084a55526db1ba0ded5b96b7f2606dfb16c9469891b23df45bc8fe4a780613cef554580dcdaa1e7a00851deea7428d15f3579e58cecb6ac3ea2f7a23e210c76c4ab074f5fc36c2cdc",
      "networkId": 0,
      "chainId": 0
    }
  ]
}