{
  "hash": "0x4ca0da4a992198105d0cd8e123ccf18bbec418948f71c4c8f60a63941b6d960e",
  "parentHash": "0xafce8fd28d65d19c7efc842d7a70085f97df15d6c7517b292e9cc1a3895b9959",
  "number": 53580,
  "timestamp": 1439039917,
  "nonce": "0x483a97b7742e83da",
  "difficulty": 1597849385636,
  "gasLimit": {
    "_hex": "0x2c7d54"
  },
  "gasUsed": {
    "_hex": "0xf512"
  },
  "miner": "0x0eDEd3DA479d0beF8eeC92A76644D3f4E3C177f7",
  "extraData": "0x476574682f76312e302e312f6c696e75782f676f312e342e32",
  "transactions": [
    {
      "hash": "0x39ed57f41cd509bd19cc3e0242c9deef6be4e71f1909122976f1d33cd62a7ce1",
      "blockHash": "0x4ca0da4a992198105d0cd8e123ccf18bbec418948f71c4c8f60a63941b6d960e",
      "blockNumber": 53580,
      "transactionIndex": 0,
      "confirmations": null,
      "from": "0x8674c218F0351a62C3BA78C34FD2182A93Da94E2",
      "gasPrice": {
        "_hex": "0xdbd4105d8"
      },
      "gasLimit": {
        "_hex": "0x15f90"
      },
      "to": "0xD2ECCDe805e888ae37646544d60185b842ff3D6b",
      "value": {
        "_hex": "0x0"
      },
      "nonce": 12,
      "data": "0x4ed3885e0000000000000000000000000000000000000000000000000000000000000020000000000000000000000000000000000000000000000000000000000000000668656c6c6f210000000000000000000000000000000000000000000000000000",
      "r": "0x7aaad8d349a15f74464043049bf989de024fbbe63e7adad4ba2a337de27bcbb5",
      "s": "0x012564dab023ac9ce8b49806ff595094d3eb3731397774bca6f62cc44aa7bdd8",
      "v": 28,
      "creates": null,
      "raw": "0xf8ca0c850dbd4105d883015f9094d2eccde805e888ae37646544d60185b842ff3d6b80b8644ed3885e0000000000000000000000000000000000000000000000000000000000000020000000000000000000000000000000000000000000000000000000000000000668656c6c6f2100000000000000000000000000000000000000000000000000001ca07aaad8d349a15f74464043049bf989de024fbbe63e7adad4ba2a337de27bcbb5a0012564dab023ac9ce8b49806ff595094d3eb3731397774bca6f62cc44aa7bdd8",
      "networkId": 0,
      "chainId": 0
    }
  ]
}