{
  "hash": "0x41e6ecb919f71dded6c01a006ce403dfb49e3967935ff218519d06354e9af43a",
  "parentHash": "0x1bd9c54dd9d8d5801bef51e04d8869c237554fcf44ae4eab169b07f2157c6ae7",
  "number": 55346,
  "timestamp": 1439069258,
  "nonce": "0x5f3412d8b8605187",
  "difficulty": 1627431095310,
  "gasLimit": {
    "_hex": "0x2fefd5"
  },
  "gasUsed": {
    "_hex": "0x546c"
  },
  "miner": "0xC759dc67E0c3816fdC56A2f5bb29920fc07e767D",
  "extraData": "0x476574682f76312e302e312f77696e646f77732f676f312e342e32",
  "transactions": [
    {
      "hash": "0x8d89cb2a5b8501a7b48972280b8c244465b5970478c61b0a8b6103fc7299a99f",
      "blockHash": "0x41e6ecb919f71dded6c01a006ce403dfb49e3967935ff218519d06354e9af43a",
      "blockNumber": 55346,
      "transactionIndex": 0,
      "confirmations": null,
      "from": "0xba10F2764290f875434372F79DBF713801caac01",
      "gasPrice": {
        "_hex": "0x110c8f7d8de"
      },
      "gasLimit": {
        "_hex": "0xc350"
      },
      "to": "0x2910543Af39abA0Cd09dBb2D50200b3E800A63D2",
      "value": {
        "_hex": "0x33b768d97dcaa80000"
      },
      "nonce": 0,
      "data": "0x454e4d505952504838",
      "r": "0xb66a27b59a931a4c0b84e12b950aea4e1a584cb42f1a1027cdad191b88d1ecde",
      "s": "0x406c4160da05a14d3b3c4fe30bf9ddd64a165d9e880a51d1847d6ba7e0f9bb46",
      "v": 27,
      "creates": null,
      "raw": "0xf87780860110c8f7d8de82c350942910543af39aba0cd09dbb2d50200b3e800a63d28933b768d97dcaa8000089454e4d5059525048381ba0b66a27b59a931a4c0b84e12b950aea4e1a584cb42f1a1027cdad191b88d1ecdea0406c4160da05a14d3b3c4fe30bf9ddd64a165d9e880a51d1847d6ba7e0f9bb46",
      "networkId": 0,
      "chainId": 0
    }
  ]
}