{
  "hash": "0xf08cdbc5b474a27f4ba6108f65c705b84ee568eb3a7987ce4f239242a5f613c7",
  "parentHash": "0xa5f83e0ca8b9487409670359817e868275541e67cbe4b7171d4b7610f98d12db",
  "number": 117527,
  "timestamp": 1440111065,
  "nonce": "0x8b5d178862b6a62a",
  "difficulty": 4304111587432,
  "gasLimit": {
    "_hex": "0x2fefd8"
  },
  "gasUsed": {
    "_hex": "0xa410"
  },
  "miner": "0xbb7B8287f3F0a933474a79eAe42CBCa977791171",
  "extraData": "0xd783010003844765746887676f312e342e32856c696e7578",
  "transactions": [
    {
      "hash": "0xbc6af461a7fcc30750d16e53ba530a9243932855f1d19f9c473132d39a765cbf",
      "blockHash": "0xf08cdbc5b474a27f4ba6108f65c705b84ee568eb3a7987ce4f239242a5f613c7",
      "blockNumber": 117527,
      "transactionIndex": 0,
      "confirmations": null,
      "from": "0x3222BA3F3e79eA0e31467EEE7639B57923558cCD",
      "gasPrice": {
        "_hex": "0xd60340b78"
      },
      "gasLimit": {
        "_hex": "0x5208"
      },
      "to": "0x5E33810d055F68eBA415be93fAEC212e9a2d6723",
      "value": {
        "_hex": "0x5188315f776b80000"
      },
      "nonce": 4,
      "data": "0x",
      "r": "0x4b101197d31e7fd561948238f5fb8feb9a5631d27c7f97d8bb5e916bd36137c4",
      "s": "0x5918ba062b364f8d2127e7caff886b50b025bf7c9da82859ec70b7cb44be144d",
      "v": 27,
      "creates": null,
      "raw": "0xf86d04850d60340b78825208945e33810d055f68eba415be93faec212e9a2d67238905188315f776b80000801ba04b101197d31e7fd561948238f5fb8feb9a5631d27c7f97d8bb5e916bd36137c4a05918ba062b364f8d2127e7caff886b50b025bf7c9da82859ec70b7cb44be144d",
      "networkId": 0,
      "chainId": 0
    },
    {
      "hash": "0xa9edb7c3954ce10a04ba6affaadde20acf41e758d9c85c9a483baf1a7f348a63",
      "blockHash": "0xf08cdbc5b474a27f4ba6108f65c705b84ee568eb3a7987ce4f239242a5f613c7",
      "blockNumber": 117527,
      "transactionIndex": 1,
      "confirmations": null,
      "from": "0x52bc44d5378309EE2abF1539BF71dE1b7d7bE3b5",
      "gasPrice": {
        "_hex": "0xba43b7400"
      },
      "gasLimit": {
        "_hex": "0x61a8"
      },
      "to": "0x387D649ec193BBbADad77eAF0A42e0eA8c87448c",
      "value": {
        "_hex": "0x9284980479eab00"
      },
      "nonce": 306,
      "data": "0x",
      "r": "0xa99babd1b08fc9fd553185eb967e67729e0ae7c56ae3e9981316dedde17c418a",
      "s": "0x0d810cc545ad8e00888ad920d43600027693fe4b89c800dfd7b79f3cf97c7f6d",
      "v": 28,
      "creates": null,
      "raw": "0xf86e820132850ba43b74008261a894387d649ec193bbbadad77eaf0a42e0ea8c87448c8809284980479eab00801ca0a99babd1b08fc9fd553185eb967e67729e0ae7c56ae3e9981316dedde17c418aa00d810cc545ad8e00888ad920d43600027693fe4b89c800dfd7b79f3cf97c7f6d",
      "networkId": 0,
      "chainId": 0
    }
  ]
}