{
  "hash": "0xc9f96b262c570e0cdc2eeeb8dfa1ab8e1fe7e687ecde43a4d6e9fc6d0c833d3b",
  "parentHash": "0x66ffc98d5cd012ff716a85966afe9ee9130d524938ee201d950477387dbdc41e",
  "number": 104593,
  "timestamp": 1439872251,
  "nonce": "0xd83c79a13812a10d",
  "difficulty": 4361566810563,
  "gasLimit": {
    "_hex": "0x2fefd8"
  },
  "gasUsed": {
    "_hex": "0x5208"
  },
  "miner": "0xe6A7a1d47ff21B6321162AEA7C6CB457D5476Bca",
  "extraData": "0x476574682f76312e302e312d38326566323666362f6c696e75782f676f312e34",
  "transactions": [
    {
      "hash": "0xa3172c3880ba5ebe8514373b94a7f02b3871d12280c8371bb276cf8fb4d43322",
      "blockHash": "0xc9f96b262c570e0cdc2eeeb8dfa1ab8e1fe7e687ecde43a4d6e9fc6d0c833d3b",
      "blockNumber": 104593,
      "transactionIndex": 0,
      "confirmations": null,
      "from": "0x32Be343B94f860124dC4fEe278FDCBD38C102D88",
      "gasPrice": {
        "_hex": "0xe0cb822fe"
      },
      "gasLimit": {
        "_hex": "0x5208"
      },
      "to": "0x120A270bbC009644e35F0bB6ab13f95b8199c4ad",
      "value": {
        "_hex": "0x10f0cf064dd59200000"
      },
      "nonce": 1153,
      "data": "0x",
      "r": "0xfe6fcca028377389d32ae708ed8bde5387f982f00695401b865abb706734d030",
      "s": "0x023e6628db01220985e5c35f4283355ea57d1f483573fdb399dcd263f1bd1723",
      "v": 27,
      "creates": null,
      "raw": "0xf870820481850e0cb822fe82520894120a270bbc009644e35f0bb6ab13f95b8199c4ad8a010f0cf064dd59200000801ba0fe6fcca028377389d32ae708ed8bde5387f982f00695401b865abb706734d030a0023e6628db01220985e5c35f4283355ea57d1f483573fdb399dcd263f1bd1723",
      "networkId": 0,
      "chainId": 0
    }
  ]
}