{
  "hash": "0xc362e4f07ff63d3f3699e7a1ff71aabd5f700bf49d1e65c7ffd2c4a21aadd5da",
  "parentHash": "0x831ab97257980c2d4b4b467bb44535544a68cf61cabeab0087ec033d4984216b",
  "number": 95263,
  "timestamp": 1439721448,
  "nonce": "0x3d2fd46e0db16e44",
  "difficulty": 3556814833162,
  "gasLimit": {
    "_hex": "0x2fefd8"
  },
  "gasUsed": {
    "_hex": "0x5208"
  },
  "miner": "0xe6A7a1d47ff21B6321162AEA7C6CB457D5476Bca",
  "extraData": "0x476574682f76312e302e312d38326566323666362f6c696e75782f676f312e34",
  "transactions": [
    {
      "hash": "0x6246d0c7f05142e429993c170af62b8bb5124949534170645a8aed06799c328b",
      "blockHash": "0xc362e4f07ff63d3f3699e7a1ff71aabd5f700bf49d1e65c7ffd2c4a21aadd5da",
      "blockNumber": 95263,
      "transactionIndex": 0,
      "confirmations": null,
      "from": "0x007f7f58D3eb5b7510A301eCC749FC1fCDDBE14D",
      "gasPrice": {
        "_hex": "0xcc8ddf695"
      },
      "gasLimit": {
        "_hex": "0x15f90"
      },
      "to": "0xb1abce2918E21ddb93AA452731a12672A3d9F75a",
      "value": {
        "_hex": "0x4563918244f40000"
      },
      "nonce": 54,
      "data": "0x",
      "r": "0x2ab4905589097c5dd44c795545097c6d36c7210c9438437f7893a6f257fd450d",
      "s": "0x4c4abda5be888543f680e03562889d994ef1096fb020ca7fdfda4a184e8a4b0a",
      "v": 27,
      "creates": null,
      "raw": "0xf86d36850cc8ddf69583015f9094b1abce2918e21ddb93aa452731a12672a3d9f75a884563918244f40000801ba02ab4905589097c5dd44c795545097c6d36c7210c9438437f7893a6f257fd450da04c4abda5be888543f680e03562889d994ef1096fb020ca7fdfda4a184e8a4b0a",
      "networkId": 0,
      "chainId": 0
    }
  ]
}