{
  "hash": "0x634203ae7b5f861a87b903049e1d0337060c1ce93ee11fbaec448f47c20083f4",
  "parentHash": "0x1e3f60ae11fd7e4367db7d0aae1ec6c2b59c74ecdf5dcece2733ccd2ddbd348b",
  "number": 104804,
  "timestamp": 1439876010,
  "nonce": "0x45ab34e7f21677cd",
  "difficulty": 4355072928106,
  "gasLimit": {
    "_hex": "0x2fefd8"
  },
  "gasUsed": {
    "_hex": "0xa410"
  },
  "miner": "0xe6A7a1d47ff21B6321162AEA7C6CB457D5476Bca",
  "extraData": "0x476574682f76312e302e312d38326566323666362f6c696e75782f676f312e34",
  "transactions": [
    {
      "hash": "0xe97f423cf1e969153fb80ee061f288c8cc3e952e1a979f02a33e673cb8e35e75",
      "blockHash": "0x634203ae7b5f861a87b903049e1d0337060c1ce93ee11fbaec448f47c20083f4",
      "blockNumber": 104804,
      "transactionIndex": 0,
      "confirmations": null,
      "from": "0xD9666150A9dA92d9108198a4072970805a8B3428",
      "gasPrice": {
        "_hex": "0xdbeb35a76"
      },
      "gasLimit": {
        "_hex": "0x5208"
      },
      "to": "0x32Be343B94f860124dC4fEe278FDCBD38C102D88",
      "value": {
        "_hex": "0x455f29ffcac75400"
      },
      "nonce": 72,
      "data": "0x",
      "r": "0x5a0f71d76cbabd98ad955f4919cd970a54ed225bc0162f93447adf4f559c016e",
      "s": "0x418c33572296e36e260c44b738c9a8bcc9eca0c25cf526add800fcf2bb24488d",
      "v": 27,
      "creates": null,
      "raw": "0xf86c48850dbeb35a768252089432be343b94f860124dc4fee278fdcbd38c102d8888455f29ffcac75400801ba05a0f71d76cbabd98ad955f4919cd970a54ed225bc0162f93447adf4f559c016ea0418c33572296e36e260c44b738c9a8bcc9eca0c25cf526add800fcf2bb24488d",
      "networkId": 0,
      "chainId": 0
    },
    {
      "hash": "0x4e51d4b2fa96185950c9046eda99486717193df1096f25ad3f0c561790d7b1ff",
      "blockHash": "0x634203ae7b5f861a87b903049e1d0337060c1ce93ee11fbaec448f47c20083f4",
      "blockNumber": 104804,
      "transactionIndex": 1,
      "confirmations": null,
      "from": "0xb1abce2918E21ddb93AA452731a12672A3d9F75a",
      "gasPrice": {
        "_hex": "0xdbeb35a76"
      },
      "gasLimit": {
        "_hex": "0x5208"
      },
      "to": "0x32Be343B94f860124dC4fEe278FDCBD38C102D88",
      "value": {
        "_hex": "0x455f29ffcac75400"
      },
      "nonce": 131,
      "data": "0x",
      "r": "0x1fae4fba9857e67a1794c7fc32d02827ce079e8fa73535ce0b46838197269c2c",
      "s": "0x44c005552c05bd503dad58b618d734c9cade648926282ce5a0eedd7deb2eaa36",
      "v": 27,
      "creates": null,
      "raw": "0xf86d8183850dbeb35a768252089432be343b94f860124dc4fee278fdcbd38c102d8888455f29ffcac75400801ba01fae4fba9857e67a1794c7fc32d02827ce079e8fa73535ce0b46838197269c2ca044c005552c05bd503dad58b618d734c9cade648926282ce5a0eedd7deb2eaa36",
      "networkId": 0,
      "chainId": 0
    }
  ]
}