{
  "hash": "0xda1a20bd96b5bca7aa964b2bdeffc6ef76931921449c64718eb7416ac9b5e16b",
  "parentHash": "0x057bb4c73879e85da53e310b7d33c598a4e7ab3a17f4a6ef5355f76c597e4cb4",
  "number": 48752,
  "timestamp": 1438962423,
  "nonce": "0xd44534d32da294f1",
  "difficulty": 1474294307528,
  "gasLimit": {
    "_hex": "0x1d86f"
  },
  "gasUsed": {
    "_hex": "0x546c"
  },
  "miner": "0x55D1554b08a5311C5c0A0B6464162192f9D2f884",
  "extraData": "0x5461796f20616e6420496665",
  "transactions": [
    {
      "hash": "0x2a69f756712e34c0ca7e8b7f0f1c7d2a52430b4d3712f0eaac3eaa994f6bc890",
      "blockHash": "0xda1a20bd96b5bca7aa964b2bdeffc6ef76931921449c64718eb7416ac9b5e16b",
      "blockNumber": 48752,
      "transactionIndex": 0,
      "confirmations": null,
      "from": "0x6232dF6f3A300fCD3Bc591452ac447eeA3aC079F",
      "gasPrice": {
        "_hex": "0xcff00d497"
      },
      "gasLimit": {
        "_hex": "0x15f90"
      },
      "to": "0x2910543Af39abA0Cd09dBb2D50200b3E800A63D2",
      "value": {
        "_hex": "0x4563918244f40000"
      },
      "nonce": 1,
      "data": "0x454e52483133434352",
      "r": "0xd76d4799f78ceca5b6732c957763eef84a8fca8e0e7d34df5ac502347d1591f5",
      "s": "0x7ad5ddd60d78c222aa9328a4a97cfb7ea113830b4831fa49dfe62ed673cdd9b5",
      "v": 27,
      "creates": null,
      "raw": "0xf87601850cff00d49783015f90942910543af39aba0cd09dbb2d50200b3e800a63d2884563918244f4000089454e524831334343521ba0d76d4799f78ceca5b6732c957763eef84a8fca8e0e7d34df5ac502347d1591f5a07ad5ddd60d78c222aa9328a4a97cfb7ea113830b4831fa49dfe62ed673cdd9b5",
      "networkId": 0,
      "chainId": 0
    }
  ]
}