{
  "hash": "0xdab5b315be240e543f02e9de17962048430caf2137dc5f25ee23909f74286b63",
  "parentHash": "0x7d5a11dc03e997951b698808dccdf78ced35638d9809015b0578702ff85df77d",
  "number": 53226,
  "timestamp": 1439034369,
  "nonce": "0x27d69d4726d2556d",
  "difficulty": 1580843559296,
  "gasLimit": {
    "_hex": "0x222d21"
  },
  "gasUsed": {
    "_hex": "0x5208"
  },
  "miner": "0xF2d2AfF1320476cb8C6b607199D23175cc595693",
  "extraData": "0x476574682f76312e302e312f77696e646f77732f676f312e342e32",
  "transactions": [
    {
      "hash": "0x956f9ec60fa61f2dfb500a80ce66a66afb075f22a283efe29fd6155acc4be51c",
      "blockHash": "0xdab5b315be240e543f02e9de17962048430caf2137dc5f25ee23909f74286b63",
      "blockNumber": 53226,
      "transactionIndex": 0,
      "confirmations": null,
      "from": "0x851d75A30Dca82dc6fec947DcCEDB1570A3934db",
      "gasPrice": {
        "_hex": "0xd455ef2c2"
      },
      "gasLimit": {
        "_hex": "0x5208"
      },
      "to": "0x957523c697993cB24FCf75EfBce4f228325e7383",
      "value": {
        "_hex": "0x7cc2e55e72c30000"
      },
      "nonce": 1,
      "data": "0x",
      "r": "0x737b86fbc67ba79f59c4c0dcd197e05e9814af40e17a60592063e6cec62d9449",
      "s": "0x07d94f978e30f552d761d27743516ca0b2d22716c2dc5ba8cf2932f82d5b4a18",
      "v": 27,
      "creates": null,
      "raw": "0xf86c01850d455ef2c282520894957523c697993cb24fcf75efbce4f228325e7383887cc2e55e72c30000801ba0737b86fbc67ba79f59c4c0dcd197e05e9814af40e17a60592063e6cec62d9449a007d94f978e30f552d761d27743516ca0b2d22716c2dc5ba8cf2932f82d5b4a18",
      "networkId": 0,
      "chainId": 0
    }
  ]
}