{
  "hash": "0xe344e28138f2763d98e5568a2acef1978a5ce3a2aa58c884c644e1521e4860dd",
  "parentHash": "0x8d2d3c152de983eceea572944f373dd6255b7411ebf0d8339036364a99a91c1c",
  "number": 54270,
  "timestamp": 1439051535,
  "nonce": "0x924e05b201ffc390",
  "difficulty": 1603971252653,
  "gasLimit": {
    "_hex": "0x2fefd8"
  },
  "gasUsed": {
    "_hex": "0xa674"
  },
  "miner": "0xCeA4Da6564B683a6DBf3cd0180FD03395999072d",
  "extraData": "0x476574682f76312e302e312f6c696e75782f676f312e342e32",
  "transactions": [
    {
      "hash": "0x3c5bd8a9a11e186370e626b171ec9cc0f81145d554ca87d8b187e527135bfff8",
      "blockHash": "0xe344e28138f2763d98e5568a2acef1978a5ce3a2aa58c884c644e1521e4860dd",
      "blockNumber": 54270,
      "transactionIndex": 0,
      "confirmations": null,
      "from": "0x0a2B4FC5d81AcE67dC4bBA03F7B455413D46FE3d",
      "gasPrice": {
        "_hex": "0x110c8f7d8de"
      },
      "gasLimit": {
        "_hex": "0xc350"
      },
      "to": "0x2910543Af39abA0Cd09dBb2D50200b3E800A63D2",
      "value": {
        "_hex": "0xa90c7e56023a20000"
      },
      "nonce": 1,
      "data": "0x454e57454337594a30",
      "r": "0x9210af9b8a7319911425e12b3872b8839ece648785cb916bef2e53afe6303a0f",
      "s": "0x504564e539c99ffaac4000b83141b9897881fdc82a6acf979d44488470db48e5",
      "v": 28,
      "creates": null,
      "raw": "0xf87701860110c8f7d8de82c350942910543af39aba0cd09dbb2d50200b3e800a63d2890a90c7e56023a2000089454e57454337594a301ca09210af9b8a7319911425e12b3872b8839ece648785cb916bef2e53afe6303a0fa0504564e539c99ffaac4000b83141b9897881fdc82a6acf979d44488470db48e5",
      "networkId": 0,
      "chainId": 0
    },
    {
      "hash": "0x9b02eca7231e1ae0b7115cfe866134362860db7b55e3ce77bda78e8769dce5d8",
      "blockHash": "0xe344e28138f2763d98e5568a2acef1978a5ce3a2aa58c884c644e1521e4860dd",
      "blockNumber": 54270,
      "transactionIndex": 1,
      "confirmations": null,
      "from": "0xF9B37825F03073d31E249378C30c795C33F83aF2",
      "gasPrice": {
        "_hex": "0xda190f52b"
      },
      "gasLimit": {
        "_hex": "0x15f90"
      },
      "to": "0xF9B37825F03073d31E249378C30c795C33F83aF2",
      "value": {
        "_hex": "0xde0b6b3a7640000"
      },
      "nonce": 1,
      "data": "0x",
      "r": "0x26725f0dec2e02bcdef80c4730f823fd005080ee0017bca350e8d1f4520739df",
      "s": "0x461b55af864914ee2aff04702eb4a8394141239a2e08c4694fe512cf9f517959",
      "v": 28,
      "creates": null,
      "raw": "0xf86d01850da190f52b83015f9094f9b37825f03073d31e249378c30c795c33f83af2880de0b6b3a7640000801ca026725f0dec2e02bcdef80c4730f823fd005080ee0017bca350e8d1f4520739dfa0461b55af864914ee2aff04702eb4a8394141239a2e08c4694fe512cf9f517959",
      "networkId": 0,
      "chainId": 0
    }
  ]
}