{
  "hash": "0x90ac87e9e205c5182c44fa56763357f89c7f4c6c598cd4498ae6272e6522bff3",
  "parentHash": "0x34a8410cf0bc93fa13185f755de72bc16066037f4ed9227b35448e412974adee",
  "number": 97157,
  "timestamp": 1439751711,
  "nonce": "0x2d7eaf393cc2db5f",
  "difficulty": 3763239974312,
  "gasLimit": {
    "_hex": "0x2fefd8"
  },
  "gasUsed": {
    "_hex": "0x5208"
  },
  "miner": "0xe6A7a1d47ff21B6321162AEA7C6CB457D5476Bca",
  "extraData": "0x476574682f76312e302e312d38326566323666362f6c696e75782f676f312e34",
  "transactions": [
    {
      "hash": "0xd8c4415ff47e55e336dd3431ca32c2b615d68503d8fc14f0633947d1faa7e54a",
      "blockHash": "0x90ac87e9e205c5182c44fa56763357f89c7f4c6c598cd4498ae6272e6522bff3",
      "blockNumber": 97157,
      "transactionIndex": 0,
      "confirmations": null,
      "from": "0x4D67f4F0Db45b3B5a3424B39ed8d972F710381D5",
      "gasPrice": {
        "_hex": "0xdf1504b1b"
      },
      "gasLimit": {
        "_hex": "0x5208"
      },
      "to": "0x32Be343B94f860124dC4fEe278FDCBD38C102D88",
      "value": {
        "_hex": "0x384a6a66b49dc6000"
      },
      "nonce": 13,
      "data": "0x",
      "r": "0xadfebec618512f6cfc463cd4f3a3f7b709371d7a4f0595c8a9de6c7e99f83116",
      "s": "0x7c2157fc3fa72f8918d3e1787c186f8e18023b2332150ed4f015967bea423466",
      "v": 28,
      "creates": null,
      "raw": "0xf86d0d850df1504b1b8252089432be343b94f860124dc4fee278fdcbd38c102d88890384a6a66b49dc6000801ca0adfebec618512f6cfc463cd4f3a3f7b709371d7a4f0595c8a9de6c7e99f83116a07c2157fc3fa72f8918d3e1787c186f8e18023b2332150ed4f015967bea423466",
      "networkId": 0,
      "chainId": 0
    }
  ]
}