{
  "hash": "0x8900a44e77ffe1d4630ff92f9a8af2d1e1220d820225b9ec0231472e55f0d136",
  "parentHash": "0x862fb0ee4ea8f72dc62e7c8abe047b05bdf3161355da661cd866eae43aeb7a78",
  "number": 50284,
  "timestamp": 1438986621,
  "nonce": "0x8718b7b0f97571f0",
  "difficulty": 1514886567524,
  "gasLimit": {
    "_hex": "0x5ade8"
  },
  "gasUsed": {
    "_hex": "0x546c"
  },
  "miner": "0xB5EDD17d2582A94610ebf0C6832c1652EBBBe210",
  "extraData": "0x476574682f76312e302e302d30636463373634372f6c696e75782f676f312e34",
  "transactions": [
    {
      "hash": "0x8024846eb25bb79048636e33997e2ff9d43c9417fc01d739de901df5d26f8aef",
      "blockHash": "0x8900a44e77ffe1d4630ff92f9a8af2d1e1220d820225b9ec0231472e55f0d136",
      "blockNumber": 50284,
      "transactionIndex": 0,
      "confirmations": null,
      "from": "0x8A7a06Be199A3a58019D846AC9cbD4D95DD757de",
      "gasPrice": {
        "_hex": "0x110c8f7d8de"
      },
      "gasLimit": {
        "_hex": "0xc350"
      },
      "to": "0x2910543Af39abA0Cd09dBb2D50200b3E800A63D2",
      "value": {
        "_hex": "0x2386f26fc10000"
      },
      "nonce": 3,
      "data": "0x454e51594e32314b52",
      "r": "0x8d0412871167967934c4a98cb21f5ef895ebbe978d668ec57a8f671fa15498bf",
      "s": "0xedf7fe004b26f2cd940ca112109722187284b39c7208ec094aae10d014075542",
      "v": 27,
      "creates": null,
      "raw": "0xf87503860110c8f7d8de82c350942910543af39aba0cd09dbb2d50200b3e800a63d2872386f26fc1000089454e51594e32314b521ba08d0412871167967934c4a98cb21f5ef895ebbe978d668ec57a8f671fa15498bfa0edf7fe004b26f2cd940ca112109722187284b39c7208ec094aae10d014075542",
      "networkId": 0,
      "chainId": 0
    }
  ]
}