{
  "hash": "0x39001f9d222521c82162f45bdedd9be3b96621e06167dbec84a09d615df16853",
  "parentHash": "0x2dba5fd86bad7aca78fad88c8d08606cc28493b5fd7d800fde60d007b4c6f5fd",
  "number": 96030,
  "timestamp": 1439733846,
  "nonce": "0xc124aa164571704b",
  "difficulty": 3624864728406,
  "gasLimit": {
    "_hex": "0x2fefd8"
  },
  "gasUsed": {
    "_hex": "0x5208"
  },
  "miner": "0xe6A7a1d47ff21B6321162AEA7C6CB457D5476Bca",
  "extraData": "0x476574682f76312e302e312d38326566323666362f6c696e75782f676f312e34",
  "transactions": [
    {
      "hash": "0x77539daf184876c6d6faf8ae3f3b70c561f39d65189027e6d8afea60c6bb48bc",
      "blockHash": "0x39001f9d222521c82162f45bdedd9be3b96621e06167dbec84a09d615df16853",
      "blockNumber": 96030,
      "transactionIndex": 0,
      "confirmations": null,
      "from": "0xE300c4587D260cE22a677755Db6429B491A4309E",
      "gasPrice": {
        "_hex": "0xd1ffe5974"
      },
      "gasLimit": {
        "_hex": "0x15f90"
      },
      "to": "0x06EC48800B2DB3eEfa052e98A9b5Fc2Bf783Ee74",
      "value": {
        "_hex": "0x19134f3d4088b0000"
      },
      "nonce": 12,
      "data": "0x",
      "r": "0x2156c3e67675594b1378185713bd6abadbd58875325941c3a6a793b9cdef9051",
      "s": "0x204f27fd7a860f43f30b87c57ca09f6d882978cb3f468d5324f711ab7582b706",
      "v": 28,
      "creates": null,
      "raw": "0xf86e0c850d1ffe597483015f909406ec48800b2db3eefa052e98a9b5fc2bf783ee7489019134f3d4088b0000801ca02156c3e67675594b1378185713bd6abadbd58875325941c3a6a793b9cdef9051a0204f27fd7a860f43f30b87c57ca09f6d882978cb3f468d5324f711ab7582b706",
      "networkId": 0,
      "chainId": 0
    }
  ]
}