{
  "hash": "0xd9d2b025cd4452e91673dce74887f72b19c0e081070c61a52a95cd2121108926",
  "parentHash": "0x3adbcde0ae844c42f6342c7c57fc784dcfa1802e3d695cd77ab74b0ba63ee28f",
  "number": 63163,
  "timestamp": 1439200230,
  "nonce": "0xd6ba305681643031",
  "difficulty": 1802362400658,
  "gasLimit": {
    "_hex": "0x2fefd8"
  },
  "gasUsed": {
    "_hex": "0xa8d8"
  },
  "miner": "0xC432c9Acf2CD728b0f53AbDE2caa535c432bF36a",
  "extraData": "0x",
  "transactions": [
    {
      "hash": "0xba0d1f1b745100a6d4ae6cf5feac531423b6cb63291606b97ddf34a62f37fe8a",
      "blockHash": "0xd9d2b025cd4452e91673dce74887f72b19c0e081070c61a52a95cd2121108926",
      "blockNumber": 63163,
      "transactionIndex": 0,
      "confirmations": null,
      "from": "0xD83ad260E9a6F432fB6ea28743299b4A09ad658C",
      "gasPrice": {
        "_hex": "0x110c8f7d8de"
      },
      "gasLimit": {
        "_hex": "0xc350"
      },
      "to": "0x2910543Af39abA0Cd09dBb2D50200b3E800A63D2",
      "value": {
        "_hex": "0x3635c9adc5dea00000"
      },
      "nonce": 0,
      "data": "0x454e43573042564230",
      "r": "0x2b1b201d383982e7fe656fb808b1e5f11faec4b63a7d50dac8340391979c847c",
      "s": "0x3133ee8945a9c6363f9a329c4d2dd0ddcf708283966b7fd195bc39d8a02835e8",
      "v": 27,
      "creates": null,
      "raw": "0xf87780860110c8f7d8de82c350942910543af39aba0cd09dbb2d50200b3e800a63d2893635c9adc5dea0000089454e435730425642301ba02b1b201d383982e7fe656fb808b1e5f11faec4b63a7d50dac8340391979c847ca03133ee8945a9c6363f9a329c4d2dd0ddcf708283966b7fd195bc39d8a02835e8",
      "networkId": 0,
      "chainId": 0
    },
    {
      "hash": "0xf3cdf73ae298b1e4e1d6e9718cd99c6bd0eeb6a65e6421cebe09f541dc4c5b2d",
      "blockHash": "0xd9d2b025cd4452e91673dce74887f72b19c0e081070c61a52a95cd2121108926",
      "blockNumber": 63163,
      "transactionIndex": 1,
      "confirmations": null,
      "from": "0x72dcecdD4a7374231676f7fA910A678DfC7c98D6",
      "gasPrice": {
        "_hex": "0xd5f21de42"
      },
      "gasLimit": {
        "_hex": "0x15f90"
      },
      "to": "0x2910543Af39abA0Cd09dBb2D50200b3E800A63D2",
      "value": {
        "_hex": "0x4563918244f40000"
      },
      "nonce": 1,
      "data": "0x454e35585546344d47",
      "r": "0xc7a44f5dfa8478cb2af18f5dcf0fb3d927fa8fa4d16476c06920cb197d7b3731",
      "s": "0x21c7d3237bfb9fedecf9099830691f99f6f023b744bdd55b8f61d52d723b5a18",
      "v": 27,
      "creates": null,
      "raw": "0xf87601850d5f21de4283015f90942910543af39aba0cd09dbb2d50200b3e800a63d2884563918244f4000089454e35585546344d471ba0c7a44f5dfa8478cb2af18f5dcf0fb3d927fa8fa4d16476c06920cb197d7b3731a021c7d3237bfb9fedecf9099830691f99f6f023b744bdd55b8f61d52d723b5a18",
      "networkId": 0,
      "chainId": 0
    }
  ]
}