{
  "hash": "0x4604b1ba8d19fa049f7d318c0fc838de5aa20c5fe65c42150ca80eaae9579a84",
  "parentHash": "0x8cb4dffe1443b1288f69e89dee4bc0f5a47fd45052a40dac1764b2b433ab8b30",
  "number": 88197,
  "timestamp": 1439604191,
  "nonce": "0x8525c10d6dcb65f7",
  "difficulty": 3212883102852,
  "gasLimit": {
    "_hex": "0x2fefd8"
  },
  "gasUsed": {
    "_hex": "0xa410"
  },
  "miner": "0x9D49F602b0fdb924Bd63DDE2Bd0907E4A07c63a7",
  "extraData": "0x476574682f76312e302e312f6c696e75782f676f312e342e32",
  "transactions": [
    {
      "hash": "0x4d0e6f45f6404fcb70bc1b0cf074865f37b7c49ca95a064839fd206245cc4cd3",
      "blockHash": "0x4604b1ba8d19fa049f7d318c0fc838de5aa20c5fe65c42150ca80eaae9579a84",
      "blockNumber": 88197,
      "transactionIndex": 0,
      "confirmations": null,
      "from": "0x32Be343B94f860124dC4fEe278FDCBD38C102D88",
      "gasPrice": {
        "_hex": "0xe1f0cdf15"
      },
      "gasLimit": {
        "_hex": "0x5208"
      },
      "to": "0xb794F5eA0ba39494cE839613fffBA74279579268",
      "value": {
        "_hex": "0x2a5a058fc295ec000000"
      },
      "nonce": 820,
      "data": "0x",
      "r": "0x2106348f54e75bf6e7a6af3329d5eab1e280c0cd918d8647aeab5875ed580563",
      "s": "0x34581351ec84b063f03f076483078a7505aa62318d091b1eae3e652ed787af8c",
      "v": 28,
      "creates": null,
      "raw": "0xf870820334850e1f0cdf1582520894b794f5ea0ba39494ce839613fffba742795792688a2a5a058fc295ec000000801ca02106348f54e75bf6e7a6af3329d5eab1e280c0cd918d8647aeab5875ed580563a034581351ec84b063f03f076483078a7505aa62318d091b1eae3e652ed787af8c",
      "networkId": 0,
      "chainId": 0
    },
    {
      "hash": "0xb64c22d1d9b21c99c20a9911eaa0d035b80438ffaad4c4be071e75878434da22",
      "blockHash": "0x4604b1ba8d19fa049f7d318c0fc838de5aa20c5fe65c42150ca80eaae9579a84",
      "blockNumber": 88197,
      "transactionIndex": 1,
      "confirmations": null,
      "from": "0x2910543Af39abA0Cd09dBb2D50200b3E800A63D2",
      "gasPrice": {
        "_hex": "0xd1407c5a7"
      },
      "gasLimit": {
        "_hex": "0x5208"
      },
      "to": "0x19e67b619e383c0a560A44AD24deB5F607b95442",
      "value": {
        "_hex": "0x4be4d5630232ff8000"
      },
      "nonce": 723,
      "data": "0x",
      "r": "0x816992196d05f784148c5dfd14db4b6fab7c64839e47740359b5a540609c709e",
      "s": "0x0d6195f8363e70481158e79e8f4b8b74b768001e579396bd2090aaa6941354a2",
      "v": 28,
      "creates": null,
      "raw": "0xf86f8202d3850d1407c5a78252089419e67b619e383c0a560a44ad24deb5f607b95442894be4d5630232ff8000801ca0816992196d05f784148c5dfd14db4b6fab7c64839e47740359b5a540609c709ea00d6195f8363e70481158e79e8f4b8b74b768001e579396bd2090aaa6941354a2",
      "networkId": 0,
      "chainId": 0
    }
  ]
}