{
  "hash": "0x94c3e401458981dc09ba4ebc2ec420f1682a634815c8b6e0663d8cdbf836b2a1",
  "parentHash": "0x4811478027f9d86e695bc207e337431c40d6d6d6e37c57042db45877154c407d",
  "number": 117837,
  "timestamp": 1440116130,
  "nonce": "0x397099b2761a012c",
  "difficulty": 4350435619234,
  "gasLimit": {
    "_hex": "0x2fefd8"
  },
  "gasUsed": {
    "_hex": "0xa410"
  },
  "miner": "0xD0ee3F53eE0fCf3F9fbCcdd17BD1b6441DdC2074",
  "extraData": "0x",
  "transactions": [
    {
      "hash": "0xf54d523e119427d4f6dfe94e55cadc0daa9478f0c571a0c43b348032dae268c6",
      "blockHash": "0x94c3e401458981dc09ba4ebc2ec420f1682a634815c8b6e0663d8cdbf836b2a1",
      "blockNumber": 117837,
      "transactionIndex": 0,
      "confirmations": null,
      "from": "0x790b8a3cE86E707ED0eD32bF89B3269692a23CC1",
      "gasPrice": {
        "_hex": "0xba43b7400"
      },
      "gasLimit": {
        "_hex": "0x15f90"
      },
      "to": "0x4D67f4F0Db45b3B5a3424B39ed8d972F710381D5",
      "value": {
        "_hex": "0x3ae4d424019060000"
      },
      "nonce": 61,
      "data": "0x",
      "r": "0x7de2e20560ba069665c319c705efdb067015a3156d4978b1409b2582e0794323",
      "s": "0x393573b16289cbf1461eaf2d8d39980e1e2f384610946ad0f82bc96a46435f4a",
      "v": 28,
      "creates": null,
      "raw": "0xf86e3d850ba43b740083015f90944d67f4f0db45b3b5a3424b39ed8d972f710381d58903ae4d424019060000801ca07de2e20560ba069665c319c705efdb067015a3156d4978b1409b2582e0794323a0393573b16289cbf1461eaf2d8d39980e1e2f384610946ad0f82bc96a46435f4a",
      "networkId": 0,
      "chainId": 0
    },
    {
      "hash": "0xa519460e4fcfab3b83f2be0f75a9707902104413ff4d6b0ae7c5dd5a190e0875",
      "blockHash": "0x94c3e401458981dc09ba4ebc2ec420f1682a634815c8b6e0663d8cdbf836b2a1",
      "blockNumber": 117837,
      "transactionIndex": 1,
      "confirmations": null,
      "from": "0x853Bff007d269E0526E871360d79d69D602770dc",
      "gasPrice": {
        "_hex": "0xba43b7400"
      },
      "gasLimit": {
        "_hex": "0x5208"
      },
      "to": "0x32Be343B94f860124dC4fEe278FDCBD38C102D88",
      "value": {
        "_hex": "0x142fe4dddf58be000"
      },
      "nonce": 18,
      "data": "0x",
      "r": "0x63c6be967ac65646a2b65632c119f7fd376efa930a74bbcebbf0c07b8ef05d22",
      "s": "0x7d9f4df32f59fa3ecb018cce8fe00ebc1b0a6ca3890c7f336cee397cea9fa221",
      "v": 27,
      "creates": null,
      "raw": "0xf86d12850ba43b74008252089432be343b94f860124dc4fee278fdcbd38c102d88890142fe4dddf58be000801ba063c6be967ac65646a2b65632c119f7fd376efa930a74bbcebbf0c07b8ef05d22a07d9f4df32f59fa3ecb018cce8fe00ebc1b0a6ca3890c7f336cee397cea9fa221",
      "networkId": 0,
      "chainId": 0
    }
  ]
}