{
  "hash": "0x2b3382b128f4e4e3e09ca26ad774af975d1d7fb11b6d6bf33bbed53e4ac12ffc",
  "parentHash": "0x70f8f1677470f3ff08450e3fb078642bf5d0c80e13e7bdd678387ac92148b94b",
  "number": 71872,
  "timestamp": 1439343291,
  "nonce": "0x49525c39baea1a75",
  "difficulty": 2166512352457,
  "gasLimit": {
    "_hex": "0x2fefd8"
  },
  "gasUsed": {
    "_hex": "0x93b2"
  },
  "miner": "0x458F183347F45a4001807728A89F31E9Da9D4A58",
  "extraData": "0x476574682f76312e302e312d38326566323666362f6c696e75782f676f312e34",
  "transactions": [
    {
      "hash": "0x57c30a5ddd1e2837eaa3cb9d260ea751ec2090e8cd3ea0805ba531d9f74ad117",
      "blockHash": "0x2b3382b128f4e4e3e09ca26ad774af975d1d7fb11b6d6bf33bbed53e4ac12ffc",
      "blockNumber": 71872,
      "transactionIndex": 0,
      "confirmations": null,
      "from": "0x17580B766f7453525ca4C6A88b01b50570EA088C",
      "gasPrice": {
        "_hex": "0xcc1ee0358"
      },
      "gasLimit": {
        "_hex": "0x61a80"
      },
      "to": "0x5Fe5B7546D1628f7348B023A0393de1FC825A4fD",
      "value": {
        "_hex": "0x29a2241af62c0000"
      },
      "nonce": 278,
      "data": "0xb595b8b50000000000000000000000000000000000000000000000000000000000000000",
      "r": "0xb75cb41a0d1bd7cc941d39242d1909c0facf0ff906635cbf1e649fbc0f49af3d",
      "s": "0x1e8528db96558cbddd2bcd95dc11984549e0ac09f243725cd20da7708a34f6d1",
      "v": 28,
      "creates": null,
      "raw": "0xf893820116850cc1ee035883061a80945fe5b7546d1628f7348b023a0393de1fc825a4fd8829a2241af62c0000a4b595b8b500000000000000000000000000000000000000000000000000000000000000001ca0b75cb41a0d1bd7cc941d39242d1909c0facf0ff906635cbf1e649fbc0f49af3da01e8528db96558cbddd2bcd95dc11984549e0ac09f243725cd20da7708a34f6d1",
      "networkId": 0,
      "chainId": 0
    }
  ]
}