{
  "hash": "0x5f00bbe87df7c854cd6f09a2dd66ed0a9b2f8e9229d3ab331ed79991dcd33584",
  "parentHash": "0x6b29af61cf207df62d5c23f47758e70af683cdd85fd9337014b3a2893c7bdca0",
  "number": 107091,
  "timestamp": 1439915731,
  "nonce": "0x50c78373554d4c3f",
  "difficulty": 4472395607735,
  "gasLimit": {
    "_hex": "0x2fefd8"
  },
  "gasUsed": {
    "_hex": "0x5208"
  },
  "miner": "0xe6A7a1d47ff21B6321162AEA7C6CB457D5476Bca",
  "extraData": "0x476574682f76312e302e312d38326566323666362f6c696e75782f676f312e34",
  "transactions": [
    {
      "hash": "0x155108220c0c88cab41171efd643c750eb3fb669723930fbe2d804b166d119b3",
      "blockHash": "0x5f00bbe87df7c854cd6f09a2dd66ed0a9b2f8e9229d3ab331ed79991dcd33584",
      "blockNumber": 107091,
      "transactionIndex": 0,
      "confirmations": null,
      "from": "0x120A270bbC009644e35F0bB6ab13f95b8199c4ad",
      "gasPrice": {
        "_hex": "0xda7a21273"
      },
      "gasLimit": {
        "_hex": "0x3d090"
      },
      "to": "0xd8bd2C0f1FF677215F8b235db85bd5e7f3fBD59D",
      "value": {
        "_hex": "0xcf1c1a16b3600c00"
      },
      "nonce": 798,
      "data": "0x",
      "r": "0xc2124ae36c39cc28e339a526edf74d04e9d5a4189ee44274b7e09f3c29b9ebbd",
      "s": "0x6e0a3673e9de49d7120b34db39a8400ced91928166e9711cc4e027ecc5ae4379",
      "v": 27,
      "creates": null,
      "raw": "0xf86f82031e850da7a212738303d09094d8bd2c0f1ff677215f8b235db85bd5e7f3fbd59d88cf1c1a16b3600c00801ba0c2124ae36c39cc28e339a526edf74d04e9d5a4189ee44274b7e09f3c29b9ebbda06e0a3673e9de49d7120b34db39a8400ced91928166e9711cc4e027ecc5ae4379",
      "networkId": 0,
      "chainId": 0
    }
  ]
}