{
  "hash": "0x04b4e8b373adeb349ec0ed0661167443d233fbdc06b4f14d74a118aceab0f4c2",
  "parentHash": "0xe1bf1539fb492ca2f0a1734ede2669d5f664c26cf2295aafb3d4b7992492297c",
  "number": 69608,
  "timestamp": 1439306818,
  "nonce": "0x2a79e95fbdd2978a",
  "difficulty": 2073925602468,
  "gasLimit": {
    "_hex": "0x2fefd8"
  },
  "gasUsed": {
    "_hex": "0x5208"
  },
  "miner": "0x06D138312754bDEB5c1175f47cE00620c480E9C9",
  "extraData": "0x476574682f76312e302e312f6c696e75782f676f312e342e32",
  "transactions": [
    {
      "hash": "0xe19f8b6a5c6b96a0210e7cfce244adc5376dd9081a1fa4aac9c791478dd4daa4",
      "blockHash": "0x04b4e8b373adeb349ec0ed0661167443d233fbdc06b4f14d74a118aceab0f4c2",
      "blockNumber": 69608,
      "transactionIndex": 0,
      "confirmations": null,
      "from": "0x120A270bbC009644e35F0bB6ab13f95b8199c4ad",
      "gasPrice": {
        "_hex": "0xdba7dbe0b"
      },
      "gasLimit": {
        "_hex": "0x15f90"
      },
      "to": "0x5E399fd349268F5970ef863E191952168c897a76",
      "value": {
        "_hex": "0xde0b6b3a7640000"
      },
      "nonce": 180,
      "data": "0x",
      "r": "0xbf20e949a943e2770a243a3d98c8a2700e76a7e4452d5e0067340d9013e425fb",
      "s": "0x10f7e45f65755aca2208d278b56378c97fca564a854f0c6d2499e5d48f6a0908",
      "v": 27,
      "creates": null,
      "raw": "0xf86e81b4850dba7dbe0b83015f90945e399fd349268f5970ef863e191952168c897a76880de0b6b3a7640000801ba0bf20e949a943e2770a243a3d98c8a2700e76a7e4452d5e0067340d9013e425fba010f7e45f65755aca2208d278b56378c97fca564a854f0c6d2499e5d48f6a0908",
      "networkId": 0,
      "chainId": 0
    }
  ]
}