{
  "hash": "0x911b9b2051daf0afc4b7af0a1bc1a9cbedb4a79c2cd781b20fd8538af3123be6",
  "parentHash": "0xf218e0c2b2429c4f9113e3d358d5cc12fdaffeb0204dc6fe264b5e5d9e73edc7",
  "number": 49181,
  "timestamp": 1438969383,
  "nonce": "0xe1875c3fd813c2a2",
  "difficulty": 1477822477519,
  "gasLimit": {
    "_hex": "0x2813a"
  },
  "gasUsed": {
    "_hex": "0xa410"
  },
  "miner": "0xeB1325C8D9d3ea8D74aC11F4B00F1B2367686319",
  "extraData": "0x476574682f76312e302e312f77696e646f77732f676f312e342e32",
  "transactions": [
    {
      "hash": "0x72d16544927c898777205e2d3088b06462c52c5d148bef110dfa08e08bf302f1",
      "blockHash": "0x911b9b2051daf0afc4b7af0a1bc1a9cbedb4a79c2cd781b20fd8538af3123be6",
      "blockNumber": 49181,
      "transactionIndex": 0,
      "confirmations": null,
      "from": "0x970510Bc87A686a93E9fF410631eb6CE42A761eE",
      "gasPrice": {
        "_hex": "0xceea95176"
      },
      "gasLimit": {
        "_hex": "0x5208"
      },
      "to": "0x32Be343B94f860124dC4fEe278FDCBD38C102D88",
      "value": {
        "_hex": "0xd2aef1d26dcb800"
      },
      "nonce": 3,
      "data": "0x",
      "r": "0xa2e6ebfc4c24bd8df4b295f0bb1e2e635304ad2d7315dd867330f41d5e3d0c19",
      "s": "0x7811dc44be563de1915e3a1bb32da9f47a50d1cd235cb16359a89e5c15c14671",
      "v": 28,
      "creates": null,
      "raw": "0xf86c03850ceea951768252089432be343b94f860124dc4fee278fdcbd38c102d88880d2aef1d26dcb800801ca0a2e6ebfc4c24bd8df4b295f0bb1e2e635304ad2d7315dd867330f41d5e3d0c19a07811dc44be563de1915e3a1bb32da9f47a50d1cd235cb16359a89e5c15c14671",
      "networkId": 0,
      "chainId": 0
    },
    {
      "hash": "0x1cf36d75140717f6d3e6ef124238c6179f7bf5661c714f01a77c2ae1fa72f533",
      "blockHash": "0x911b9b2051daf0afc4b7af0a1bc1a9cbedb4a79c2cd781b20fd8538af3123be6",
      "blockNumber": 49181,
      "transactionIndex": 1,
      "confirmations": null,
      "from": "0x7c3f4907164F65CcA6ec853aC340ef1e71B1f5C9",
      "gasPrice": {
        "_hex": "0xceea95176"
      },
      "gasLimit": {
        "_hex": "0x5208"
      },
      "to": "0x32Be343B94f860124dC4fEe278FDCBD38C102D88",
      "value": {
        "_hex": "0x6de2427ba413080000"
      },
      "nonce": 0,
      "data": "0x",
      "r": "0xca6e0f993dbd9019a13cea116d9af67c720f413335f5b88eb34be3337d14b521",
      "s": "0x6a4d5fede399ed420cc249adc49dffeebaf594118df6bafaa3660dc5a6a4cb4e",
      "v": 28,
      "creates": null,
      "raw": "0xf86d80850ceea951768252089432be343b94f860124dc4fee278fdcbd38c102d88896de2427ba413080000801ca0ca6e0f993dbd9019a13cea116d9af67c720f413335f5b88eb34be3337d14b521a06a4d5fede399ed420cc249adc49dffeebaf594118df6bafaa3660dc5a6a4cb4e",
      "networkId": 0,
      "chainId": 0
    }
  ]
}