{
  "hash": "0x9bbb90184d46eb28aa314c9b88ebcbd7eaea76da08a289354bc07471cfb307af",
  "parentHash": "0x199d2298826949d5b98bfac57555194a22a51067d70c54df62b637578fd2acb7",
  "number": 54894,
  "timestamp": 1439061783,
  "nonce": "0xd2718b5ad2d513bc",
  "difficulty": 1616431110810,
  "gasLimit": {
    "_hex": "0x2fefd8"
  },
  "gasUsed": {
    "_hex": "0x1ed688"
  },
  "miner": "0x306e6267d94f23a9b37Cb110f20852208Fbbf1aA",
  "extraData": "0x476574682f76312e302e312f77696e646f77732f676f312e342e32",
  "transactions": [
    {
      "hash": "0x628655aa656634c0aed27144ddd7c8e94d4a4a500ed6c261de290dda58bb5653",
      "blockHash": "0x9bbb90184d46eb28aa314c9b88ebcbd7eaea76da08a289354bc07471cfb307af",
      "blockNumber": 54894,
      "transactionIndex": 0,
      "confirmations": null,
      "from": "0x8674c218F0351a62C3BA78C34FD2182A93Da94E2",
      "gasPrice": {
        "_hex": "0x174876e800"
      },
      "gasLimit": {
        "_hex": "0x1e8480"
      },
      "to": "0x399dfaF3935523475E69Df74EE1675709115C189",
      "value": {
        "_hex": "0x0"
      },
      "nonce": 35,
      "data": "0xde6f24bb0000000000000000000000008674c218f0351a62c3ba78c34fd2182a93da94e20000000000000000000000000000000000000000000000000000000000000040000000000000000000000000000000000000000000000000000000000000000668656c6c6f210000000000000000000000000000000000000000000000000000",
      "r": "0xe0a5cf8c10a81ee55b18b461d16d664c43395700cd4312a7c9fb35ff4c6fb55a",
      "s": "0x11a8b5f84d72ef14d0d663d22f8ba44f55e2d92a8cc5d67b9cb913f6c2589a65",
      "v": 27,
      "creates": null,
      "raw": "0xf8ea2385174876e800831e848094399dfaf3935523475e69df74ee1675709115c18980b884de6f24bb0000000000000000000000008674c218f0351a62c3ba78c34fd2182a93da94e20000000000000000000000000000000000000000000000000000000000000040000000000000000000000000000000000000000000000000000000000000000668656c6c6f2100000000000000000000000000000000000000000000000000001ba0e0a5cf8c10a81ee55b18b461d16d664c43395700cd4312a7c9fb35ff4c6fb55aa011a8b5f84d72ef14d0d663d22f8ba44f55e2d92a8cc5d67b9cb913f6c2589a65",
      "networkId": 0,
      "chainId": 0
    },
    {
      "hash": "0xeffcf648746093a9e2e9763975d83a42081b56a9f480eb67cec855f8d776326b",
      "blockHash": "0x9bbb90184d46eb28aa314c9b88ebcbd7eaea76da08a289354bc07471cfb307af",
      "blockNumber": 54894,
      "transactionIndex": 1,
      "confirmations": null,
      "from": "0x2d5b42FC59ebda0Dfd66aE914BC28c1B0a6Ef83A",
      "gasPrice": {
        "_hex": "0xdac41f0f8"
      },
      "gasLimit": {
        "_hex": "0x15f90"
      },
      "to": "0xE73aa111fd3Ebc226B09A83b591b7D5143CE7F34",
      "value": {
        "_hex": "0x3627e8f712373c0000"
      },
      "nonce": 1,
      "data": "0x",
      "r": "0xa1bfbe1c6a857958531ee65b85665dd64d96ff883ba2e2deff6842c09f345dcc",
      "s": "0x35afd1607f9e522aecb24eb7421df2b833dfa1c31f106273812f6d65bbd7cc41",
      "v": 27,
      "creates": null,
      "raw": "0xf86e01850dac41f0f883015f9094e73aa111fd3ebc226b09a83b591b7d5143ce7f34893627e8f712373c0000801ba0a1bfbe1c6a857958531ee65b85665dd64d96ff883ba2e2deff6842c09f345dcca035afd1607f9e522aecb24eb7421df2b833dfa1c31f106273812f6d65bbd7cc41",
      "networkId": 0,
      "chainId": 0
    }
  ]
}