{
  "hash": "0x9a202ce0b306eacee186e243ba50cc34f5dd5651a5aa65728a2bf7809cfddfdd",
  "parentHash": "0x03d34ad8d46a5874a547ab127004e224bdf456d9333d7235363b86853ab90472",
  "number": 72357,
  "timestamp": 1439351447,
  "nonce": "0xb925e6b390748b0d",
  "difficulty": 2180182314903,
  "gasLimit": {
    "_hex": "0x2fefd8"
  },
  "gasUsed": {
    "_hex": "0x5208"
  },
  "miner": "0xe6A7a1d47ff21B6321162AEA7C6CB457D5476Bca",
  "extraData": "0x476574682f76312e302e312d38326566323666362f6c696e75782f676f312e34",
  "transactions": [
    {
      "hash": "0x11e0b55ae5d0981aed111e9f892ea70a4164abaf58e1feb4a464bc84067076b5",
      "blockHash": "0x9a202ce0b306eacee186e243ba50cc34f5dd5651a5aa65728a2bf7809cfddfdd",
      "blockNumber": 72357,
      "transactionIndex": 0,
      "confirmations": null,
      "from": "0x2C89f5FDcA3D155409b638B98A742E55eb4652B7",
      "gasPrice": {
        "_hex": "0x9184e72a000"
      },
      "gasLimit": {
        "_hex": "0x15f90"
      },
      "to": "0x1308A2e95c0160B90803ddCA9B9a5bb55E416d79",
      "value": {
        "_hex": "0xde0b6b3a7640000"
      },
      "nonce": 7,
      "data": "0x",
      "r": "0x6f6c88aad7fb6cd5d003b340cacd2ced4180f3bfc10b31d0b0274df2615c5c1f",
      "s": "0x51e7d233753a7b836b67fcfd6f8b206aa08b2f827a2bc92b34ad19d0da4de4df",
      "v": 27,
      "creates": null,
      "raw": "0xf86e078609184e72a00083015f90941308a2e95c0160b90803ddca9b9a5bb55e416d79880de0b6b3a7640000801ba06f6c88aad7fb6cd5d003b340cacd2ced4180f3bfc10b31d0b0274df2615c5c1fa051e7d233753a7b836b67fcfd6f8b206aa08b2f827a2bc92b34ad19d0da4de4df",
      "networkId": 0,
      "chainId": 0
    }
  ]
}