{
  "hash": "0xf0f2d7f58ce250a1b26357a29c902a7329682836ce695b1f4a3cfcac42c89729",
  "parentHash": "0x18911c073fc990fcd83211d1a702ef2d125d74b2ee925c1c873c0c8c8c7b41a6",
  "number": 58653,
  "timestamp": 1439124335,
  "nonce": "0xcfec4077b7357644",
  "difficulty": 1709028262481,
  "gasLimit": {
    "_hex": "0x2fefd2"
  },
  "gasUsed": {
    "_hex": "0x546c"
  },
  "miner": "0x1217627fe41A00f0b828317F43E6d58F47dBfc43",
  "extraData": "0x476574682f76312e302e302d66313265303136312f6c696e75782f676f312e34",
  "transactions": [
    {
      "hash": "0x2ba16ef281aad10c34f1c213027a483932d71080918d99d7e63db114f06cdeb0",
      "blockHash": "0xf0f2d7f58ce250a1b26357a29c902a7329682836ce695b1f4a3cfcac42c89729",
      "blockNumber": 58653,
      "transactionIndex": 0,
      "confirmations": null,
      "from": "0x726a14c90E3f84144c765CfFACBA3e0DF11b48BE",
      "gasPrice": {
        "_hex": "0x110c8f7d8de"
      },
      "gasLimit": {
        "_hex": "0xc350"
      },
      "to": "0x2910543Af39abA0Cd09dBb2D50200b3E800A63D2",
      "value": {
        "_hex": "0x3620f89bb8638a0000"
      },
      "nonce": 2,
      "data": "0x454e59474d4b355938",
      "r": "0x559996acb805b52c5c1d6ef215c16962fdddfa3152c3854a114dea8e01b0cf6c",
      "s": "0xd5fcf04effde2a6c5df34933cfdc984459110ad6fab221f7e1d0df9b171aad75",
      "v": 27,
      "creates": null,
      "raw": "0xf87702860110c8f7d8de82c350942910543af39aba0cd09dbb2d50200b3e800a63d2893620f89bb8638a000089454e59474d4b3559381ba0559996acb805b52c5c1d6ef215c16962fdddfa3152c3854a114dea8e01b0cf6ca0d5fcf04effde2a6c5df34933cfdc984459110ad6fab221f7e1d0df9b171aad75",
      "networkId": 0,
      "chainId": 0
    }
  ]
}