{
  "hash": "0x5eec496a4b0f27f35813e7bbd47632b8355c67b8b58cc4d7684d6c022b3c62e7",
  "parentHash": "0x4708d94389dcbb8aaccb78bbd1a3cd3c9224a888d4f48e238069ca439996bf26",
  "number": 64397,
  "timestamp": 1439220010,
  "nonce": "0x69641ad54d813cac",
  "difficulty": 1877548193244,
  "gasLimit": {
    "_hex": "0x2fefd8"
  },
  "gasUsed": {
    "_hex": "0x5208"
  },
  "miner": "0xF2d2AfF1320476cb8C6b607199D23175cc595693",
  "extraData": "0x476574682f76312e302e312f77696e646f77732f676f312e342e32",
  "transactions": [
    {
      "hash": "0xf51dd8ea59baa93acfae51264b72927f3fe08568554fcf5727a92b28735f00e3",
      "blockHash": "0x5eec496a4b0f27f35813e7bbd47632b8355c67b8b58cc4d7684d6c022b3c62e7",
      "blockNumber": 64397,
      "transactionIndex": 0,
      "confirmations": null,
      "from": "0x5e1a72dde3Ffc20B77eA8382E916EF04C89ff2Bd",
      "gasPrice": {
        "_hex": "0xd641f460d"
      },
      "gasLimit": {
        "_hex": "0x15f90"
      },
      "to": "0xdD81AaddCc8448A5fC0ac28DB93ec6801C21E8Ef",
      "value": {
        "_hex": "0x22b1c8c1227a00000"
      },
      "nonce": 3,
      "data": "0x",
      "r": "0x88399afdbb6cd003a3896226832d24accd494794a23a71eb625c3ee3a3736900",
      "s": "0x3350414ffd4c644c69eac67570828acf196d2cffc13ae8ad326a8bd800f33217",
      "v": 27,
      "creates": null,
      "raw": "0xf86e03850d641f460d83015f9094dd81aaddcc8448a5fc0ac28db93ec6801c21e8ef89022b1c8c1227a00000801ba088399afdbb6cd003a3896226832d24accd494794a23a71eb625c3ee3a3736900a03350414ffd4c644c69eac67570828acf196d2cffc13ae8ad326a8bd800f33217",
      "networkId": 0,
      "chainId": 0
    }
  ]
}