{
  "hash": "0x158c6f11b6721d5c4d82bea264ff644efa73d297a5e4ec4ef0602badf8e5304e",
  "parentHash": "0x2e4584384a8d388336deead19badcb9d13e3876c547be767cd2e5a5f74934e57",
  "number": 78305,
  "timestamp": 1439451722,
  "nonce": "0x9460aab99f7d78a3",
  "difficulty": 2278736962344,
  "gasLimit": {
    "_hex": "0x2fefd8"
  },
  "gasUsed": {
    "_hex": "0x5208"
  },
  "miner": "0x3FEe2E5f121CFb9d6D9BAb6Cec64eb60585124d4",
  "extraData": "0x476574682f76312e302e312f77696e646f77732f676f312e342e32",
  "transactions": [
    {
      "hash": "0x983930462657ddd9f33cebd1dd791a5cbae39e27452266eb8eff8ae00dd14601",
      "blockHash": "0x158c6f11b6721d5c4d82bea264ff644efa73d297a5e4ec4ef0602badf8e5304e",
      "blockNumber": 78305,
      "transactionIndex": 0,
      "confirmations": null,
      "from": "0x79d5794171E11dd5C2f0e26E1C187319db2FE6f7",
      "gasPrice": {
        "_hex": "0xcb647cc0e"
      },
      "gasLimit": {
        "_hex": "0x5208"
      },
      "to": "0x32Be343B94f860124dC4fEe278FDCBD38C102D88",
      "value": {
        "_hex": "0x455f737ed61f7800"
      },
      "nonce": 18,
      "data": "0x",
      "r": "0x93eee413bd8dd42ad38b7cffb4a0f8eb79991c18af59d721d90e360320998222",
      "s": "0x097d211d460450b52e6fb0454102c44a91b6fc2f00a70cd54d779e7a6bfce3b0",
      "v": 27,
      "creates": null,
      "raw": "0xf86c12850cb647cc0e8252089432be343b94f860124dc4fee278fdcbd38c102d8888455f737ed61f7800801ba093eee413bd8dd42ad38b7cffb4a0f8eb79991c18af59d721d90e360320998222a0097d211d460450b52e6fb0454102c44a91b6fc2f00a70cd54d779e7a6bfce3b0",
      "networkId": 0,
      "chainId": 0
    }
  ]
}