{
  "hash": "0xe85caf626d3690c8293565c8d5de76c6ae77a8b2a0a0eac6dec061ac78c260cf",
  "parentHash": "0x62ac3b8fb203a21479c6bfa1260257b4e5e5dbc6f7307dfc0d95515bc15f0cd0",
  "number": 52537,
  "timestamp": 1439023195,
  "nonce": "0x585083d1b1979cfb",
  "difficulty": 1566373999209,
  "gasLimit": {
    "_hex": "0x1517ce"
  },
  "gasUsed": {
    "_hex": "0xf4240"
  },
  "miner": "0x5146556427FF689250ED1801a783D12138C3Dd5E",
  "extraData": "0x476574682f76312e302e312f6c696e75782f676f312e342e32",
  "transactions": [
    {
      "hash": "0x641ff62b91f4e39a5c2d347ebd8955aace185e351ff2fde380637c8f3c7081cc",
      "blockHash": "0xe85caf626d3690c8293565c8d5de76c6ae77a8b2a0a0eac6dec061ac78c260cf",
      "blockNumber": 52537,
      "transactionIndex": 0,
      "confirmations": null,
      "from": "0x54dAeb3E8a6BBC797E4aD2b0339f134b186e4637",
      "gasPrice": {
        "_hex": "0xe7d27df17"
      },
      "gasLimit": {
        "_hex": "0x7a120"
      },
      "to": "0xBAA54d6E90c3F4d7Ebec11bD180134C7eD8eBb52",
      "value": {
        "_hex": "0x16345785d8a0000"
      },
      "nonce": 683,
      "data": "0x",
      "r": "0x25ea829b72c5821ccf908dd7aabf96851c816471297e57f1fce05d98cd92b685",
      "s": "0x5ab98d899905c31ebb066f14d5a0789cbe3eca1da5a621655bd0cecd2c3313ab",
      "v": 27,
      "creates": null,
      "raw": "0xf86f8202ab850e7d27df178307a12094baa54d6e90c3f4d7ebec11bd180134c7ed8ebb5288016345785d8a0000801ba025ea829b72c5821ccf908dd7aabf96851c816471297e57f1fce05d98cd92b685a05ab98d899905c31ebb066f14d5a0789cbe3eca1da5a621655bd0cecd2c3313ab",
      "networkId": 0,
      "chainId": 0
    },
    {
      "hash": "0x7306d66407cbafd0640088228e8270ec05de30c3dcec8a1b98968e9a3579a7e0",
      "blockHash": "0xe85caf626d3690c8293565c8d5de76c6ae77a8b2a0a0eac6dec061ac78c260cf",
      "blockNumber": 52537,
      "transactionIndex": 1,
      "confirmations": null,
      "from": "0x54dAeb3E8a6BBC797E4aD2b0339f134b186e4637",
      "gasPrice": {
        "_hex": "0xe7d27df17"
      },
      "gasLimit": {
        "_hex": "0x7a120"
      },
      "to": "0xBAA54d6E90c3F4d7Ebec11bD180134C7eD8eBb52",
      "value": {
        "_hex": "0x16345785d8a0000"
      },
      "nonce": 684,
      "data": "0x",
      "r": "0x9639d66e18e83c7bb9de886f9b86e8eac985bc7c76dc6f67f507be9468330dee",
      "s": "0x5fa0d8a0aae69995982d8ca893b5d5a2fa11c961d224eef565c17f0731bf0d22",
      "v": 28,
      "creates": null,
      "raw": "0xf86f8202ac850e7d27df178307a12094baa54d6e90c3f4d7ebec11bd180134c7ed8ebb5288016345785d8a0000801ca09639d66e18e83c7bb9de886f9b86e8eac985bc7c76dc6f67f507be9468330deea05fa0d8a0aae69995982d8ca893b5d5a2fa11c961d224eef565c17f0731bf0d22",
      "networkId": 0,
      "chainId": 0
    }
  ]
}