{
  "hash": "0x5900da1a30b3779b2d95591b69c53d9b262a00cfe205d087f917e9b72fafd1b4",
  "parentHash": "0x3d2142191ade4b946b8342edd8c21b2b9681d81b0de44fa3133f62e34d16c35b",
  "number": 60371,
  "timestamp": 1439154297,
  "nonce": "0x0b4bd2426ac7c858",
  "difficulty": 1747491059796,
  "gasLimit": {
    "_hex": "0x2fefd8"
  },
  "gasUsed": {
    "_hex": "0xf87c"
  },
  "miner": "0xEF247E639d49461D25F57e9362CadE3120910Ce0",
  "extraData": "0x476574682f76312e302e312f6c696e75782f676f312e342e32",
  "transactions": [
    {
      "hash": "0x1ae7248c64b1e8b217c14bb6364076fbfd93757a8205ed223950981eac3441a3",
      "blockHash": "0x5900da1a30b3779b2d95591b69c53d9b262a00cfe205d087f917e9b72fafd1b4",
      "blockNumber": 60371,
      "transactionIndex": 0,
      "confirmations": null,
      "from": "0x32Be343B94f860124dC4fEe278FDCBD38C102D88",
      "gasPrice": {
        "_hex": "0xdb843fa50"
      },
      "gasLimit": {
        "_hex": "0x5208"
      },
      "to": "0xE60d047A7f89348A473EB1b32c27A13cB459d776",
      "value": {
        "_hex": "0xaf32ca2cfa5270000"
      },
      "nonce": 118,
      "data": "0x",
      "r": "0xf8213baf1d0150c9b9c0d142f668187a6abf3e78447a997ee481bf0caeee6064",
      "s": "0x4908b96c659df7c739688049d92a5829b5e69df8eb0b9361d79850905f422fa2",
      "v": 28,
      "creates": null,
      "raw": "0xf86d76850db843fa5082520894e60d047a7f89348a473eb1b32c27a13cb459d776890af32ca2cfa5270000801ca0f8213baf1d0150c9b9c0d142f668187a6abf3e78447a997ee481bf0caeee6064a04908b96c659df7c739688049d92a5829b5e69df8eb0b9361d79850905f422fa2",
      "networkId": 0,
      "chainId": 0
    },
    {
      "hash": "0xa34257f2a072dd7c9f9caae18b2e2853a92a0c2e6f151c48ba6a9842d1562585",
      "blockHash": "0x5900da1a30b3779b2d95591b69c53d9b262a00cfe205d087f917e9b72fafd1b4",
      "blockNumber": 60371,
      "transactionIndex": 1,
      "confirmations": null,
      "from": "0xc955d372Fe1c428D17CD86E05d26F0206F3677b1",
      "gasPrice": {
        "_hex": "0xdb843fa50"
      },
      "gasLimit": {
        "_hex": "0x5208"
      },
      "to": "0x32Be343B94f860124dC4fEe278FDCBD38C102D88",
      "value": {
        "_hex": "0x2b5e368bf6d0d20000"
      },
      "nonce": 4,
      "data": "0x",
      "r": "0x6fbe3b233630ab9894c142a8942d1dfbecda28bff875a7e4748b549aad3def59",
      "s": "0x2665487aeaedb52b1fb2161ea8dc42ede2e66d19b39c313d94a96a0a70a95ad6",
      "v": 28,
      "creates": null,
      "raw": "0xf86d04850db843fa508252089432be343b94f860124dc4fee278fdcbd38c102d88892b5e368bf6d0d20000801ca06fbe3b233630ab9894c142a8942d1dfbecda28bff875a7e4748b549aad3def59a02665487aeaedb52b1fb2161ea8dc42ede2e66d19b39c313d94a96a0a70a95ad6",
      "networkId": 0,
      "chainId": 0
    },
    {
      "hash": "0xc252f4d90f84ae37429f3a71cf73ec218468a5d399399339dc188a2328b5d472",
      "blockHash": "0x5900da1a30b3779b2d95591b69c53d9b262a00cfe205d087f917e9b72fafd1b4",
      "blockNumber": 60371,
      "transactionIndex": 2,
      "confirmations": null,
      "from": "0x2496580535aEEF037C3232D8AfeB01545735c3Dc",
      "gasPrice": {
        "_hex": "0xd7d40ace3"
      },
      "gasLimit": {
        "_hex": "0x55f0"
      },
      "to": "0x2910543Af39abA0Cd09dBb2D50200b3E800A63D2",
      "value": {
        "_hex": "0xde0b6b3a7640000"
      },
      "nonce": 3,
      "data": "0x454e584136594a4230",
      "r": "0xfe32779f519d3c555807674ddb69da2dd34b3eadfaeca365197427cbdb8a3f55",
      "s": "0x5344c19e16ddbb8fc4763a84dda77459669e9e961a4ed82f40dc7db9104f76b4",
      "v": 27,
      "creates": null,
      "raw": "0xf87503850d7d40ace38255f0942910543af39aba0cd09dbb2d50200b3e800a63d2880de0b6b3a764000089454e584136594a42301ba0fe32779f519d3c555807674ddb69da2dd34b3eadfaeca365197427cbdb8a3f55a05344c19e16ddbb8fc4763a84dda77459669e9e961a4ed82f40dc7db9104f76b4",
      "networkId": 0,
      "chainId": 0
    }
  ]
}