{
  "hash": "0xd47a007fafaab4044a9a0fd34742944120fb4b6a53e909e8480ad218f6d4528d",
  "parentHash": "0xc8bd4333d4af11d6ac345425eee7622aa29864d272f55b447038597e2f9e26b5",
  "number": 86021,
  "timestamp": 1439572339,
  "nonce": "0xeab0a155bf772bea",
  "difficulty": 2789400010352,
  "gasLimit": {
    "_hex": "0x2fefd8"
  },
  "gasUsed": {
    "_hex": "0x5208"
  },
  "miner": "0xe6A7a1d47ff21B6321162AEA7C6CB457D5476Bca",
  "extraData": "0x476574682f76312e302e312d38326566323666362f6c696e75782f676f312e34",
  "transactions": [
    {
      "hash": "0x51bfb4bb664fc3a6251e018fed4e786506d16a5edf35e4fdcb41889dff43aad3",
      "blockHash": "0xd47a007fafaab4044a9a0fd34742944120fb4b6a53e909e8480ad218f6d4528d",
      "blockNumber": 86021,
      "transactionIndex": 0,
      "confirmations": null,
      "from": "0x3bEe0Da03BcEe401533d73bcAa8391E65B42d83a",
      "gasPrice": {
        "_hex": "0xd8eb3dced"
      },
      "gasLimit": {
        "_hex": "0x5208"
      },
      "to": "0x32Be343B94f860124dC4fEe278FDCBD38C102D88",
      "value": {
        "_hex": "0xddc5287aa433000"
      },
      "nonce": 0,
      "data": "0x",
      "r": "0x1129d8f412fb6539544a7ceadcec5ebe8695c59131a0c559b252cc61145fa788",
      "s": "0x4d701514808aad8a458b88324aa1a3ac5a64c0b8bc0aa1452bcf75a06ce58e86",
      "v": 27,
      "creates": null,
      "raw": "0xf86c80850d8eb3dced8252089432be343b94f860124dc4fee278fdcbd38c102d88880ddc5287aa433000801ba01129d8f412fb6539544a7ceadcec5ebe8695c59131a0c559b252cc61145fa788a04d701514808aad8a458b88324aa1a3ac5a64c0b8bc0aa1452bcf75a06ce58e86",
      "networkId": 0,
      "chainId": 0
    }
  ]
}