{
  "hash": "0x236f98815d4b8a841cde6caabb0e848c2a0daca1da06aefc77830d43dbe7f26a",
  "parentHash": "0xb0be087fe7f2cdafef8c444d735f1ea541e86655fa831b7583cf870be1f3054f",
  "number": 64942,
  "timestamp": 1439228740,
  "nonce": "0xce8ccafde4e7801b",
  "difficulty": 1911652806848,
  "gasLimit": {
    "_hex": "0x2fefd8"
  },
  "gasUsed": {
    "_hex": "0x17cd8"
  },
  "miner": "0xe6A7a1d47ff21B6321162AEA7C6CB457D5476Bca",
  "extraData": "0x476574682f76312e302e312f6c696e75782f676f312e342e32",
  "transactions": [
    {
      "hash": "0x49c8a473278260682445d10c6e3f5bcf473408ed3706320db812b7ec8ce1e07f",
      "blockHash": "0x236f98815d4b8a841cde6caabb0e848c2a0daca1da06aefc77830d43dbe7f26a",
      "blockNumber": 64942,
      "transactionIndex": 0,
      "confirmations": null,
      "from": "0x2b53f3D020aDeB84BdD5A8E25bc7AC263BabDEc4",
      "gasPrice": {
        "_hex": "0xba43b7400"
      },
      "gasLimit": {
        "_hex": "0x15f90"
      },
      "to": "0x793AE8C1b1a160BFc07BFB0d04F85eab1A71F4f2",
      "value": {
        "_hex": "0x0"
      },
      "nonce": 0,
      "data": "0x3ba15036",
      "r": "0x3a3f017a1af2563a9650a1754367a6166aa7458ad13db92208ca2fff9a467316",
      "s": "0x23933a14e65b52192b65051ae47b8c0989b706a818434343e7b53b92a6d731fb",
      "v": 27,
      "creates": null,
      "raw": "0xf86980850ba43b740083015f9094793ae8c1b1a160bfc07bfb0d04f85eab1a71f4f280843ba150361ba03a3f017a1af2563a9650a1754367a6166aa7458ad13db92208ca2fff9a467316a023933a14e65b52192b65051ae47b8c0989b706a818434343e7b53b92a6d731fb",
      "networkId": 0,
      "chainId": 0
    },
    {
      "hash": "0x06f3d39f945913d4ffe1ec4bff9145548d4cb8a5d2053bf98b3e1b54cf8c45e2",
      "blockHash": "0x236f98815d4b8a841cde6caabb0e848c2a0daca1da06aefc77830d43dbe7f26a",
      "blockNumber": 64942,
      "transactionIndex": 1,
      "confirmations": null,
      "from": "0x6994b8A5Ae7C04aA8B05e3B2B6D91D83CA0bb85E",
      "gasPrice": {
        "_hex": "0xba43b7400"
      },
      "gasLimit": {
        "_hex": "0x15f90"
      },
      "to": "0x793AE8C1b1a160BFc07BFB0d04F85eab1A71F4f2",
      "value": {
        "_hex": "0x0"
      },
      "nonce": 0,
      "data": "0x3ba15036",
      "r": "0x96ba2b21d7070b224b7d7de4072449425fd9c59bc89ac2802ac57b210991418a",
      "s": "0x14df9d1db5205f39caeb10fba940a2286329f72c809f0d7a64d419e13950cc50",
      "v": 27,
      "creates": null,
      "raw": "0xf86980850ba43b740083015f9094793ae8c1b1a160bfc07bfb0d04f85eab1a71f4f280843ba150361ba096ba2b21d7070b224b7d7de4072449425fd9c59bc89ac2802ac57b210991418aa014df9d1db5205f39caeb10fba940a2286329f72c809f0d7a64d419e13950cc50",
      "networkId": 0,
      "chainId": 0
    }
  ]
}