{
  "hash": "0xa3b66398861c83474a010fd2eefb5ecfa18898c3524be8818b02dd0c0de4748d",
  "parentHash": "0x111bc35b45370d2780d2708965aa91245ae751642f55f476df42da0957e0e318",
  "number": 99577,
  "timestamp": 1439792461,
  "nonce": "0x8ce3968bd7a3df9a",
  "difficulty": 3784263070610,
  "gasLimit": {
    "_hex": "0x2fefd8"
  },
  "gasUsed": {
    "_hex": "0x5208"
  },
  "miner": "0xaEAf103356C2Ee943F748E8655659D29881323E1",
  "extraData": "0x476574682f76312e302e312f77696e646f77732f676f312e342e32",
  "transactions": [
    {
      "hash": "0x5a63bef46bf28adcff7754d915485d176bdb0b5c61388ca22f73a9d8912a04f2",
      "blockHash": "0xa3b66398861c83474a010fd2eefb5ecfa18898c3524be8818b02dd0c0de4748d",
      "blockNumber": 99577,
      "transactionIndex": 0,
      "confirmations": null,
      "from": "0xf4B1114a02EFe852013277F28ed88734Fa81E54f",
      "gasPrice": {
        "_hex": "0xd7d40ace3"
      },
      "gasLimit": {
        "_hex": "0x15f90"
      },
      "to": "0xb4f523106D96985a62306557ED1e19F129D42812",
      "value": {
        "_hex": "0x323cd2d206ea0000"
      },
      "nonce": 23,
      "data": "0x",
      "r": "0xbaf2a5a9d98110bcf6562df1863494c0b5ffc97f19f044528c979d287750e6f8",
      "s": "0x3c5cb66dd8134205375ef0d0f2e2c9cebe1702fbb26a509052306f109aa908dd",
      "v": 28,
      "creates": null,
      "raw": "0xf86d17850d7d40ace383015f9094b4f523106d96985a62306557ed1e19f129d4281288323cd2d206ea0000801ca0baf2a5a9d98110bcf6562df1863494c0b5ffc97f19f044528c979d287750e6f8a03c5cb66dd8134205375ef0d0f2e2c9cebe1702fbb26a509052306f109aa908dd",
      "networkId": 0,
      "chainId": 0
    }
  ]
}