{
  "hash": "0x1dd8759f742c264fc837b6ad1a1053a3320e5622fcc86472e9ea8d64effcd790",
  "parentHash": "0x8b393ba71e0f6ce2ca6ba79f7bc02ae2d4d806c064171f28aefa696a41784350",
  "number": 64953,
  "timestamp": 1439228909,
  "nonce": "0x58f3c5b553288271",
  "difficulty": 1914452621293,
  "gasLimit": {
    "_hex": "0x2fefd8"
  },
  "gasUsed": {
    "_hex": "0xa410"
  },
  "miner": "0x39A1BB80a741bF5EC39FB9BE59408Fa0F418fFBf",
  "extraData": "0x476574682f76312e302e312f77696e646f77732f676f312e342e32",
  "transactions": [
    {
      "hash": "0x0778176a52ce3495f8bf70100cc4eb2e1083e492bdeb76e09a241af5887627a0",
      "blockHash": "0x1dd8759f742c264fc837b6ad1a1053a3320e5622fcc86472e9ea8d64effcd790",
      "blockNumber": 64953,
      "transactionIndex": 0,
      "confirmations": null,
      "from": "0x74cCE2aC834cF71B3B73e62e5Ec11BF94bb267F1",
      "gasPrice": {
        "_hex": "0xba43b7400"
      },
      "gasLimit": {
        "_hex": "0x5208"
      },
      "to": "0x94AB191ec8501CefafE1153959B2907c105F4345",
      "value": {
        "_hex": "0x1a921f4b554d000"
      },
      "nonce": 1,
      "data": "0x",
      "r": "0x14005756694b0571808817cf261782670633bd56e725d5cb6f4d44443433e3ae",
      "s": "0x4ea697580aaa5db7ecab33bd292faf1eec1b05656fa834a2dff3acedceea1ec5",
      "v": 27,
      "creates": null,
      "raw": "0xf86c01850ba43b74008252089494ab191ec8501cefafe1153959b2907c105f43458801a921f4b554d000801ba014005756694b0571808817cf261782670633bd56e725d5cb6f4d44443433e3aea04ea697580aaa5db7ecab33bd292faf1eec1b05656fa834a2dff3acedceea1ec5",
      "networkId": 0,
      "chainId": 0
    },
    {
      "hash": "0x61668f9c97cb7b41d5512dcefdad51050ddda8beca508d017903f844c774606f",
      "blockHash": "0x1dd8759f742c264fc837b6ad1a1053a3320e5622fcc86472e9ea8d64effcd790",
      "blockNumber": 64953,
      "transactionIndex": 1,
      "confirmations": null,
      "from": "0x12e4342f7DDA76C35f95f3bc3B38962aF11eABF7",
      "gasPrice": {
        "_hex": "0xba43b7400"
      },
      "gasLimit": {
        "_hex": "0x5208"
      },
      "to": "0xeF7180da41dF0447A8df5ebfd7e3Ab84555fb1F3",
      "value": {
        "_hex": "0x14c95414f131000"
      },
      "nonce": 1,
      "data": "0x",
      "r": "0x2c4f794ee03978a2b95f94bb2530e778a3a69693be5e6413ffffb7ea1499c780",
      "s": "0x42285a4961b34be088224d7c21061a627a5eef6ebe96b36a0f388302cf2eced3",
      "v": 28,
      "creates": null,
      "raw": "0xf86c01850ba43b740082520894ef7180da41df0447a8df5ebfd7e3ab84555fb1f388014c95414f131000801ca02c4f794ee03978a2b95f94bb2530e778a3a69693be5e6413ffffb7ea1499c780a042285a4961b34be088224d7c21061a627a5eef6ebe96b36a0f388302cf2eced3",
      "networkId": 0,
      "chainId": 0
    }
  ]
}