{
  "hash": "0xcae24195724fc6dd8d493d613776bd0fb0c2d10c6e0bd6ee8a6c0a5959e6eeeb",
  "parentHash": "0x358795585c257bc1e26e89f003a24e0c215ba6ac2382f7b040c3f5180f900d3d",
  "number": 55176,
  "timestamp": 1439066512,
  "nonce": "0x68e3e54367c392dd",
  "difficulty": 1640228436435,
  "gasLimit": {
    "_hex": "0x2fefd8"
  },
  "gasUsed": {
    "_hex": "0x2dc6c0"
  },
  "miner": "0xB63A725D56AA79935ac2a1182Eba0004f22Be610",
  "extraData": "0x476574682f76312e302e312f6c696e75782f676f312e342e32",
  "transactions": [
    {
      "hash": "0xb4cf5ba2ffe1c7ddd1a54a811cf222b7b66d4b1a30b21270db6d1689ab4f3a07",
      "blockHash": "0xcae24195724fc6dd8d493d613776bd0fb0c2d10c6e0bd6ee8a6c0a5959e6eeeb",
      "blockNumber": 55176,
      "transactionIndex": 0,
      "confirmations": null,
      "from": "0x0ae3F81a67725a8A7758FeB8684c6c17dA20755D",
      "gasPrice": {
        "_hex": "0x1196df27eb"
      },
      "gasLimit": {
        "_hex": "0x7a120"
      },
      "to": "0xBAA54d6E90c3F4d7Ebec11bD180134C7eD8eBb52",
      "value": {
        "_hex": "0x16345785d8a0000"
      },
      "nonce": 44,
      "data": "0x",
      "r": "0xc70c9cf39fd98e55e78275b29d93cebf6cbc05da93edecb85fcfc9e6c9bc14aa",
      "s": "0x7cd6ee6cf69737289a4754371b900a476d127891d10a2ac83d8c3c7daeb93175",
      "v": 27,
      "creates": null,
      "raw": "0xf86d2c851196df27eb8307a12094baa54d6e90c3f4d7ebec11bd180134c7ed8ebb5288016345785d8a0000801ba0c70c9cf39fd98e55e78275b29d93cebf6cbc05da93edecb85fcfc9e6c9bc14aaa07cd6ee6cf69737289a4754371b900a476d127891d10a2ac83d8c3c7daeb93175",
      "networkId": 0,
      "chainId": 0
    },
    {
      "hash": "0x37828078f4d19e27ef47fb0bf46df6ef34a38706a07ee755306216a3eb3605e5",
      "blockHash": "0xcae24195724fc6dd8d493d613776bd0fb0c2d10c6e0bd6ee8a6c0a5959e6eeeb",
      "blockNumber": 55176,
      "transactionIndex": 1,
      "confirmations": null,
      "from": "0x0ae3F81a67725a8A7758FeB8684c6c17dA20755D",
      "gasPrice": {
        "_hex": "0x1196df27eb"
      },
      "gasLimit": {
        "_hex": "0x7a120"
      },
      "to": "0xBAA54d6E90c3F4d7Ebec11bD180134C7eD8eBb52",
      "value": {
        "_hex": "0x16345785d8a0000"
      },
      "nonce": 45,
      "data": "0x",
      "r": "0xacc1b90cbb9e7dc997b636e810f2cc2243577fff21871b9c6598b532f65a8b65",
      "s": "0x08304ec278da854f507dcc224f7e018d8554157f2e6e366e9d08fad0b9ddb824",
      "v": 27,
      "creates": null,
      "raw": "0xf86d2d851196df27eb8307a12094baa54d6e90c3f4d7ebec11bd180134c7ed8ebb5288016345785d8a0000801ba0acc1b90cbb9e7dc997b636e810f2cc2243577fff21871b9c6598b532f65a8b65a008304ec278da854f507dcc224f7e018d8554157f2e6e366e9d08fad0b9ddb824",
      "networkId": 0,
      "chainId": 0
    },
    {
      "hash": "0x3cca6bb8da4b7aacc0d0f096714227b5e5fedba1f6dc06aadeccc2482d05e1ab",
      "blockHash": "0xcae24195724fc6dd8d493d613776bd0fb0c2d10c6e0bd6ee8a6c0a5959e6eeeb",
      "blockNumber": 55176,
      "transactionIndex": 2,
      "confirmations": null,
      "from": "0x0ae3F81a67725a8A7758FeB8684c6c17dA20755D",
      "gasPrice": {
        "_hex": "0x1196df27eb"
      },
      "gasLimit": {
        "_hex": "0x7a120"
      },
      "to": "0xBAA54d6E90c3F4d7Ebec11bD180134C7eD8eBb52",
      "value": {
        "_hex": "0x16345785d8a0000"
      },
      "nonce": 46,
      "data": "0x",
      "r": "0xd8fa85ea369f7474e7d3e81f2c08dd78bc160df780f4fba024311178b7e02e89",
      "s": "0x3f6bda0b176f5d1a0a5801d46d3ece1c2e0f66a0004d90e588ac3e55beec22a6",
      "v": 27,
      "creates": null,
      "raw": "0xf86d2e851196df27eb8307a12094baa54d6e90c3f4d7ebec11bd180134c7ed8ebb5288016345785d8a0000801ba0d8fa85ea369f7474e7d3e81f2c08dd78bc160df780f4fba024311178b7e02e89a03f6bda0b176f5d1a0a5801d46d3ece1c2e0f66a0004d90e588ac3e55beec22a6",
      "networkId": 0,
      "chainId": 0
    },
    {
      "hash": "0x1c718749a699a260b79b8c7ac096c0e8248e79f9b10c6b9d0c3c65f7f89072a1",
      "blockHash": "0xcae24195724fc6dd8d493d613776bd0fb0c2d10c6e0bd6ee8a6c0a5959e6eeeb",
      "blockNumber": 55176,
      "transactionIndex": 3,
      "confirmations": null,
      "from": "0x0ae3F81a67725a8A7758FeB8684c6c17dA20755D",
      "gasPrice": {
        "_hex": "0x1196df27eb"
      },
      "gasLimit": {
        "_hex": "0x7a120"
      },
      "to": "0xBAA54d6E90c3F4d7Ebec11bD180134C7eD8eBb52",
      "value": {
        "_hex": "0x16345785d8a0000"
      },
      "nonce": 47,
      "data": "0x",
      "r": "0xa873ffc9a42aff688097f3a88a1c8fe5c56845082923eeef848c4f3803971cd0",
      "s": "0x74a6776c8af290986367254351b7d5dfabae6a5cbdae6e00e5023ab6f689369b",
      "v": 27,
      "creates": null,
      "raw": "0xf86d2f851196df27eb8307a12094baa54d6e90c3f4d7ebec11bd180134c7ed8ebb5288016345785d8a0000801ba0a873ffc9a42aff688097f3a88a1c8fe5c56845082923eeef848c4f3803971cd0a074a6776c8af290986367254351b7d5dfabae6a5cbdae6e00e5023ab6f689369b",
      "networkId": 0,
      "chainId": 0
    },
    {
      "hash": "0x7d4abb05ee63f157dc2f161f5109e9836eac31ff34bc90dfacf7e7154d2394e0",
      "blockHash": "0xcae24195724fc6dd8d493d613776bd0fb0c2d10c6e0bd6ee8a6c0a5959e6eeeb",
      "blockNumber": 55176,
      "transactionIndex": 4,
      "confirmations": null,
      "from": "0x0ae3F81a67725a8A7758FeB8684c6c17dA20755D",
      "gasPrice": {
        "_hex": "0x1196df27eb"
      },
      "gasLimit": {
        "_hex": "0x7a120"
      },
      "to": "0xBAA54d6E90c3F4d7Ebec11bD180134C7eD8eBb52",
      "value": {
        "_hex": "0x16345785d8a0000"
      },
      "nonce": 48,
      "data": "0x",
      "r": "0x8f06a5211df2a3906babdc402a0b7490b1cd861bd21fd0291123c1992ba5476f",
      "s": "0x442554d93e8ed43d3ba7194649cfe3a4f97a91fd77f777bd2fcab50df2d04a02",
      "v": 28,
      "creates": null,
      "raw": "0xf86d30851196df27eb8307a12094baa54d6e90c3f4d7ebec11bd180134c7ed8ebb5288016345785d8a0000801ca08f06a5211df2a3906babdc402a0b7490b1cd861bd21fd0291123c1992ba5476fa0442554d93e8ed43d3ba7194649cfe3a4f97a91fd77f777bd2fcab50df2d04a02",
      "networkId": 0,
      "chainId": 0
    },
    {
      "hash": "0x8e26434b780d32f5ccc7cf308edf811d1b1519818903548183b9390b564b235c",
      "blockHash": "0xcae24195724fc6dd8d493d613776bd0fb0c2d10c6e0bd6ee8a6c0a5959e6eeeb",
      "blockNumber": 55176,
      "transactionIndex": 5,
      "confirmations": null,
      "from": "0x0ae3F81a67725a8A7758FeB8684c6c17dA20755D",
      "gasPrice": {
        "_hex": "0x1196df27eb"
      },
      "gasLimit": {
        "_hex": "0x7a120"
      },
      "to": "0xBAA54d6E90c3F4d7Ebec11bD180134C7eD8eBb52",
      "value": {
        "_hex": "0x16345785d8a0000"
      },
      "nonce": 49,
      "data": "0x",
      "r": "0x0cdb9fa9fcfb80b03251f109ec3b8677a538607ab9e89691458bff98840dd406",
      "s": "0x6d156856dd8e37f2fc4c418603bedd2826d5695a9ee03e0006fa1c6660a63ced",
      "v": 28,
      "creates": null,
      "raw": "0xf86d31851196df27eb8307a12094baa54d6e90c3f4d7ebec11bd180134c7ed8ebb5288016345785d8a0000801ca00cdb9fa9fcfb80b03251f109ec3b8677a538607ab9e89691458bff98840dd406a06d156856dd8e37f2fc4c418603bedd2826d5695a9ee03e0006fa1c6660a63ced",
      "networkId": 0,
      "chainId": 0
    }
  ]
}