{
  "hash": "0x706cea23ade41bbf4b5fab0105d73b6c9b065b26ef9e6ec405131136dcb58407",
  "parentHash": "0x2be1bb19147928cd48d160aaf9fe0513a95d61f4e289452f31df50cc1f5ffcae",
  "number": 90290,
  "timestamp": 1439637717,
  "nonce": "0xb27dceb067f5a800",
  "difficulty": 3305962934918,
  "gasLimit": {
    "_hex": "0x2fefd8"
  },
  "gasUsed": {
    "_hex": "0x5208"
  },
  "miner": "0xe6A7a1d47ff21B6321162AEA7C6CB457D5476Bca",
  "extraData": "0x476574682f76312e302e312d38326566323666362f6c696e75782f676f312e34",
  "transactions": [
    {
      "hash": "0x0bddd8a51637949e7da0c41e5a7aee7094ed3df096dff5362c7ba4dc3173a7a3",
      "blockHash": "0x706cea23ade41bbf4b5fab0105d73b6c9b065b26ef9e6ec405131136dcb58407",
      "blockNumber": 90290,
      "transactionIndex": 0,
      "confirmations": null,
      "from": "0xF87481A262E993a75F791E7859E71BaC36A606Eb",
      "gasPrice": {
        "_hex": "0xd932dff89"
      },
      "gasLimit": {
        "_hex": "0x5208"
      },
      "to": "0x32Be343B94f860124dC4fEe278FDCBD38C102D88",
      "value": {
        "_hex": "0x6e276498edba3c000"
      },
      "nonce": 25,
      "data": "0x",
      "r": "0xe4bcd9b196583cc03e84483d43cc8faf2b0c17882dfc91efed866135c6bedde9",
      "s": "0x0b5c0f633143caadd279fc05e95915da1080af6e178efc27b09b8c104f51f444",
      "v": 28,
      "creates": null,
      "raw": "0xf86d19850d932dff898252089432be343b94f860124dc4fee278fdcbd38c102d888906e276498edba3c000801ca0e4bcd9b196583cc03e84483d43cc8faf2b0c17882dfc91efed866135c6bedde9a00b5c0f633143caadd279fc05e95915da1080af6e178efc27b09b8c104f51f444",
      "networkId": 0,
      "chainId": 0
    }
  ]
}