{
  "hash": "0x7eef8cdd6d23ee7ab18c22d834088bc786e2d8385cfaaf7ac836aa8cf0b38f87",
  "parentHash": "0xe54af1e6c2adb339ee5ac09b4de935626567baf7f40ac527ae3995a34f572869",
  "number": 64728,
  "timestamp": 1439225429,
  "nonce": "0x26e5330be42beaaa",
  "difficulty": 1889429575535,
  "gasLimit": {
    "_hex": "0x2fefd5"
  },
  "gasUsed": {
    "_hex": "0x5208"
  },
  "miner": "0xe6A7a1d47ff21B6321162AEA7C6CB457D5476Bca",
  "extraData": "0x476574682f76312e302e312f6c696e75782f676f312e342e32",
  "transactions": [
    {
      "hash": "0x5cdf63b5a8a6a391105216d8ddee3c3698fb80c5820f79b6efd0dc9967867f46",
      "blockHash": "0x7eef8cdd6d23ee7ab18c22d834088bc786e2d8385cfaaf7ac836aa8cf0b38f87",
      "blockNumber": 64728,
      "transactionIndex": 0,
      "confirmations": null,
      "from": "0x6747f922385c9a6F9cfDf095F34345257DD597bE",
      "gasPrice": {
        "_hex": "0xba43b7400"
      },
      "gasLimit": {
        "_hex": "0x5208"
      },
      "to": "0x92107cEf488c90F2C2B3f103c1a2F50E41e45051",
      "value": {
        "_hex": "0x1fcbfa42bd6000"
      },
      "nonce": 20,
      "data": "0x",
      "r": "0xb761050843ceb32a1b5e42b312041141196ba8508e6995913a9d04df013b8db7",
      "s": "0x081e9bca36f69229183e322d99fae1fdc2255a7489dcf420bf5d52f2b434aed1",
      "v": 27,
      "creates": null,
      "raw": "0xf86b14850ba43b74008252089492107cef488c90f2c2b3f103c1a2f50e41e45051871fcbfa42bd6000801ba0b761050843ceb32a1b5e42b312041141196ba8508e6995913a9d04df013b8db7a0081e9bca36f69229183e322d99fae1fdc2255a7489dcf420bf5d52f2b434aed1",
      "networkId": 0,
      "chainId": 0
    }
  ]
}