{
  "hash": "0x23452ae48072f200c9cf58dc79ff0a765594034f302b264f1f9166ad702214b6",
  "parentHash": "0xd46baf6f23f99f97625c3d2a1fd6717ed9cc38ba4ed63c5ccbc8c0f5b089d10d",
  "number": 51717,
  "timestamp": 1439009660,
  "nonce": "0x8d5c5196954e4497",
  "difficulty": 1555854958636,
  "gasLimit": {
    "_hex": "0xd4130"
  },
  "gasUsed": {
    "_hex": "0xf87c"
  },
  "miner": "0xDaD56904f2996453f00a79C2C7ee2E8c47dFbba3",
  "extraData": "0x476574682f76312e302e312f6c696e75782f676f312e342e32",
  "transactions": [
    {
      "hash": "0x48d14b1f0bbedaf794c0f5cd1039a0dc774fc9f48edb105f9b00c015d4cf7319",
      "blockHash": "0x23452ae48072f200c9cf58dc79ff0a765594034f302b264f1f9166ad702214b6",
      "blockNumber": 51717,
      "transactionIndex": 0,
      "confirmations": null,
      "from": "0x1308A2e95c0160B90803ddCA9B9a5bb55E416d79",
      "gasPrice": {
        "_hex": "0xdc2aa9968"
      },
      "gasLimit": {
        "_hex": "0x15f90"
      },
      "to": "0xE5F9b98aFCd58f9a652BAd30417958Bc9dD7bFba",
      "value": {
        "_hex": "0x458b144b3c8105800"
      },
      "nonce": 7,
      "data": "0x",
      "r": "0xedad1108ef208050ebb67e8f7d898cae8e1e13c73145a55300097d2db7376930",
      "s": "0x377c79e6f1050b7b2738058c52dd11234389232158e0e4613d9674a0c9ab3100",
      "v": 27,
      "creates": null,
      "raw": "0xf86e07850dc2aa996883015f9094e5f9b98afcd58f9a652bad30417958bc9dd7bfba890458b144b3c8105800801ba0edad1108ef208050ebb67e8f7d898cae8e1e13c73145a55300097d2db7376930a0377c79e6f1050b7b2738058c52dd11234389232158e0e4613d9674a0c9ab3100",
      "networkId": 0,
      "chainId": 0
    },
    {
      "hash": "0xeba0b2198b513a8d99d5772f915907637eb69c7e0b6bf12cc684de9d3c78514b",
      "blockHash": "0x23452ae48072f200c9cf58dc79ff0a765594034f302b264f1f9166ad702214b6",
      "blockNumber": 51717,
      "transactionIndex": 1,
      "confirmations": null,
      "from": "0x9DFf5A2Cfc1Ad6549BE79f29f445dfe464E78825",
      "gasPrice": {
        "_hex": "0xd1b5ed1bf"
      },
      "gasLimit": {
        "_hex": "0x55f0"
      },
      "to": "0xf3b97103A8eB3DdD2003AECCcA155eCaF92858D6",
      "value": {
        "_hex": "0x455f2b22206af1f0"
      },
      "nonce": 0,
      "data": "0x",
      "r": "0x915b992b33d695db937acff02acf148e312352d68234d0837c5b970b4279781b",
      "s": "0x55babf0296987d4fdb695bf6145897601e62ea313cbf2e89904322d3c70e5021",
      "v": 28,
      "creates": null,
      "raw": "0xf86c80850d1b5ed1bf8255f094f3b97103a8eb3ddd2003aeccca155ecaf92858d688455f2b22206af1f0801ca0915b992b33d695db937acff02acf148e312352d68234d0837c5b970b4279781ba055babf0296987d4fdb695bf6145897601e62ea313cbf2e89904322d3c70e5021",
      "networkId": 0,
      "chainId": 0
    },
    {
      "hash": "0xa41a91ddcce7f18e2d4ddb78773d5b9b3ee221128c83bda3f34df6d8e1a19ed3",
      "blockHash": "0x23452ae48072f200c9cf58dc79ff0a765594034f302b264f1f9166ad702214b6",
      "blockNumber": 51717,
      "transactionIndex": 2,
      "confirmations": null,
      "from": "0x39101C1F2B3915d4197283d091ff662eB593bd74",
      "gasPrice": {
        "_hex": "0xce914deac"
      },
      "gasLimit": {
        "_hex": "0x15f90"
      },
      "to": "0xf8E0CA3Ed80bd541b94BEdCf259e8CF2141A9523",
      "value": {
        "_hex": "0x6d5b623ffe140000"
      },
      "nonce": 0,
      "data": "0x454e433933464b3330",
      "r": "0x985518361ec86c21fee843cc0fb6867d92d34de27d61684f25722b27f002a3e7",
      "s": "0x707cc71f157eda2e580b4c287a01a7616eeece212111627103d3e2ac95474e90",
      "v": 27,
      "creates": null,
      "raw": "0xf87680850ce914deac83015f9094f8e0ca3ed80bd541b94bedcf259e8cf2141a9523886d5b623ffe14000089454e433933464b33301ba0985518361ec86c21fee843cc0fb6867d92d34de27d61684f25722b27f002a3e7a0707cc71f157eda2e580b4c287a01a7616eeece212111627103d3e2ac95474e90",
      "networkId": 0,
      "chainId": 0
    }
  ]
}