{
  "hash": "0xaaccc6e077f785fd65fcaa09a990c6a300d71ae2f51ac016f877a2a0ecc6db88",
  "parentHash": "0x3ad515fe37e18d9e1639e6830c50976f37998d4a69de63560b1a0a6447901f14",
  "number": 62941,
  "timestamp": 1439196468,
  "nonce": "0x38ddaec06621fb21",
  "difficulty": 1793630720059,
  "gasLimit": {
    "_hex": "0x2fefd8"
  },
  "gasUsed": {
    "_hex": "0x5208"
  },
  "miner": "0xbb7B8287f3F0a933474a79eAe42CBCa977791171",
  "extraData": "0x476574682f4c5649562f76312e302e312f6c696e75782f676f312e342e32",
  "transactions": [
    {
      "hash": "0x29f8b0c7ab4dcbc708f642e60f0c0e8c03de09f88f1e9111676336960f47083b",
      "blockHash": "0xaaccc6e077f785fd65fcaa09a990c6a300d71ae2f51ac016f877a2a0ecc6db88",
      "blockNumber": 62941,
      "transactionIndex": 0,
      "confirmations": null,
      "from": "0x2910543Af39abA0Cd09dBb2D50200b3E800A63D2",
      "gasPrice": {
        "_hex": "0xd9ffd374f"
      },
      "gasLimit": {
        "_hex": "0x5208"
      },
      "to": "0x49499dfa1398D64383743e1764036F63aF0f58fa",
      "value": {
        "_hex": "0xde0b6b3a7640000"
      },
      "nonce": 118,
      "data": "0x",
      "r": "0x0688ce853b6aa4d31633a50b8a02017af0b98e5b36cb3f09e6f7b86ef3ce2866",
      "s": "0x24ccb1891f35012d27b63f6d4d2eba1958465ab5c4132ef059a1b6455e49ca58",
      "v": 27,
      "creates": null,
      "raw": "0xf86c76850d9ffd374f8252089449499dfa1398d64383743e1764036f63af0f58fa880de0b6b3a7640000801ba00688ce853b6aa4d31633a50b8a02017af0b98e5b36cb3f09e6f7b86ef3ce2866a024ccb1891f35012d27b63f6d4d2eba1958465ab5c4132ef059a1b6455e49ca58",
      "networkId": 0,
      "chainId": 0
    }
  ]
}