{
  "hash": "0xd00655b1c348beb83a1ea1050613c3f430cf1038755ed53e72263e94a3e44e01",
  "parentHash": "0x1946b0a382ed5001572f09de5e5bf8d7a90218170d3bdfcc66e6b3d10d60e0ca",
  "number": 60888,
  "timestamp": 1439163198,
  "nonce": "0xcfc22a5e9b7e79b3",
  "difficulty": 1738023162294,
  "gasLimit": {
    "_hex": "0x2fefd8"
  },
  "gasUsed": {
    "_hex": "0x5208"
  },
  "miner": "0x9746c7e1ef2bd21FF3997fa467593a89cb852BD0",
  "extraData": "0x476574682f76312e302e312f77696e646f77732f676f312e342e32",
  "transactions": [
    {
      "hash": "0xc75a527e1bd7af99c451421532a557dc14d9cc2616710159efaee78846f56fb6",
      "blockHash": "0xd00655b1c348beb83a1ea1050613c3f430cf1038755ed53e72263e94a3e44e01",
      "blockNumber": 60888,
      "transactionIndex": 0,
      "confirmations": null,
      "from": "0x3Ad06149b21C55Ff867cc3fb9740D2BCc7101231",
      "gasPrice": {
        "_hex": "0xd25cf324d"
      },
      "gasLimit": {
        "_hex": "0x15f90"
      },
      "to": "0xC624b0Cd3307f6CFFC473f5019FA380E6811ee58",
      "value": {
        "_hex": "0x43c33c1937564800000"
      },
      "nonce": 18,
      "data": "0x",
      "r": "0xa971e9037e48de09073ed3ce13622bbb6f67b542993e131732217ed09e4ba530",
      "s": "0x7a496d2f8538640515bb9be85b276f3bfe51f1476a0fb44093af25fd346e6134",
      "v": 27,
      "creates": null,
      "raw": "0xf86f12850d25cf324d83015f9094c624b0cd3307f6cffc473f5019fa380e6811ee588a043c33c1937564800000801ba0a971e9037e48de09073ed3ce13622bbb6f67b542993e131732217ed09e4ba530a07a496d2f8538640515bb9be85b276f3bfe51f1476a0fb44093af25fd346e6134",
      "networkId": 0,
      "chainId": 0
    }
  ]
}