{
  "hash": "0x43b7c3c364d8b355e19b17df8b805057a647396ccee4769d15114fe7b24ba321",
  "parentHash": "0xd65e57048a3cfe8a27a289f3101187e03e40878aa8cbb674827b8c5b4b0d4799",
  "number": 62142,
  "timestamp": 1439183885,
  "nonce": "0xcad4bfd41bc5d89f",
  "difficulty": 1770308020323,
  "gasLimit": {
    "_hex": "0x2fefd8"
  },
  "gasUsed": {
    "_hex": "0x5208"
  },
  "miner": "0x01d9DA08cc6Fb97c0DE1B6F4C28910A0859Ed1A1",
  "extraData": "0x476574682f76312e302e312f6c696e75782f676f312e342e32",
  "transactions": [
    {
      "hash": "0xf1fb0291b44093d7b881ecceda45a4ba3b6021326618ad93c5e74e6d95dc4319",
      "blockHash": "0x43b7c3c364d8b355e19b17df8b805057a647396ccee4769d15114fe7b24ba321",
      "blockNumber": 62142,
      "transactionIndex": 0,
      "confirmations": null,
      "from": "0x32Be343B94f860124dC4fEe278FDCBD38C102D88",
      "gasPrice": {
        "_hex": "0xd7e88f987"
      },
      "gasLimit": {
        "_hex": "0x5208"
      },
      "to": "0x0268ebc54d1d75962ca88bB311F2b61ecCeC08f2",
      "value": {
        "_hex": "0x15778e237734c00"
      },
      "nonce": 146,
      "data": "0x",
      "r": "0xbfa23d0b2b7211c3db78cd4fff7618c1a9ff9f9afa71b4708edb3a927485e13a",
      "s": "0x3e0724d2c3358b500241277f98c8e2b7d690cb3350f183c3600404dc0415daf3",
      "v": 27,
      "creates": null,
      "raw": "0xf86d8192850d7e88f987825208940268ebc54d1d75962ca88bb311f2b61eccec08f288015778e237734c00801ba0bfa23d0b2b7211c3db78cd4fff7618c1a9ff9f9afa71b4708edb3a927485e13aa03e0724d2c3358b500241277f98c8e2b7d690cb3350f183c3600404dc0415daf3",
      "networkId": 0,
      "chainId": 0
    }
  ]
}