{
  "hash": "0xbe0e60f907ba893ce5506664b930d2716329745fa3b6c74a878c64f1709f025e",
  "parentHash": "0x78433526ee403e503d10801e868f1407959ba6b758798c68849a1bd80ff2ec4f",
  "number": 79081,
  "timestamp": 1439464090,
  "nonce": "0x51a05dc723e2be45",
  "difficulty": 2316669011293,
  "gasLimit": {
    "_hex": "0x2fefd8"
  },
  "gasUsed": {
    "_hex": "0x38658"
  },
  "miner": "0x9746c7e1ef2bd21FF3997fa467593a89cb852BD0",
  "extraData": "0x476574682f76312e302e312f77696e646f77732f676f312e342e32",
  "transactions": [
    {
      "hash": "0x4ace8d8363ef4a4e41f8638b4d68643b32f0d5649bee8979bfb228b9b5a11bf4",
      "blockHash": "0xbe0e60f907ba893ce5506664b930d2716329745fa3b6c74a878c64f1709f025e",
      "blockNumber": 79081,
      "transactionIndex": 0,
      "confirmations": null,
      "from": "0xe6A7a1d47ff21B6321162AEA7C6CB457D5476Bca",
      "gasPrice": {
        "_hex": "0xd38fdef72"
      },
      "gasLimit": {
        "_hex": "0x55f0"
      },
      "to": "0x740Ab9f08593f931fC5d0589a528663565e707ee",
      "value": {
        "_hex": "0x121bc13cf5ac07d0"
      },
      "nonce": 1034,
      "data": "0x",
      "r": "0xde7ae65bf29cd5ee51f6ea4f178ffd979916814536238b8e1e80dd89de0e891d",
      "s": "0x3b73d3045cdb77a6add1f2dc9b2172986625e84241db5cead57aa6a994d34bf4",
      "v": 27,
      "creates": null,
      "raw": "0xf86e82040a850d38fdef728255f094740ab9f08593f931fc5d0589a528663565e707ee88121bc13cf5ac07d0801ba0de7ae65bf29cd5ee51f6ea4f178ffd979916814536238b8e1e80dd89de0e891da03b73d3045cdb77a6add1f2dc9b2172986625e84241db5cead57aa6a994d34bf4",
      "networkId": 0,
      "chainId": 0
    },
    {
      "hash": "0x95121691bb8a2bf1d66299bbdf13e2df9d1ae1ee5ed83b2a9a8dfed2c3ff4604",
      "blockHash": "0xbe0e60f907ba893ce5506664b930d2716329745fa3b6c74a878c64f1709f025e",
      "blockNumber": 79081,
      "transactionIndex": 1,
      "confirmations": null,
      "from": "0xe6A7a1d47ff21B6321162AEA7C6CB457D5476Bca",
      "gasPrice": {
        "_hex": "0xd38fdef72"
      },
      "gasLimit": {
        "_hex": "0x55f0"
      },
      "to": "0x62C0628EeA08203A030EE278217315fD43A5d57A",
      "value": {
        "_hex": "0x121c36127928d210"
      },
      "nonce": 1035,
      "data": "0x",
      "r": "0x909059398382d957f8801fc726ac776464fc7a825c52f4895514bdc667d4e43b",
      "s": "0x59174231682bfb5fd7a9ea19ca74f3ff34b4577c60a19d3df004dafeb34067c3",
      "v": 27,
      "creates": null,
      "raw": "0xf86e82040b850d38fdef728255f09462c0628eea08203a030ee278217315fd43a5d57a88121c36127928d210801ba0909059398382d957f8801fc726ac776464fc7a825c52f4895514bdc667d4e43ba059174231682bfb5fd7a9ea19ca74f3ff34b4577c60a19d3df004dafeb34067c3",
      "networkId": 0,
      "chainId": 0
    },
    {
      "hash": "0x869b1e692252beafd7d4884c2942872fb7c80ef310a799165be770ef0e632f76",
      "blockHash": "0xbe0e60f907ba893ce5506664b930d2716329745fa3b6c74a878c64f1709f025e",
      "blockNumber": 79081,
      "transactionIndex": 2,
      "confirmations": null,
      "from": "0xe6A7a1d47ff21B6321162AEA7C6CB457D5476Bca",
      "gasPrice": {
        "_hex": "0xd38fdef72"
      },
      "gasLimit": {
        "_hex": "0x55f0"
      },
      "to": "0xec4B2cCFC84A4C62d73D56c44917986aAAaEe10f",
      "value": {
        "_hex": "0x1223d8ecc36ddb70"
      },
      "nonce": 1036,
      "data": "0x",
      "r": "0x7e658f0ac7d352e0b3c08e8f7491d6b8ac744d05fb06b27330e45e6e653b3815",
      "s": "0x0a5463050b61032a97cdf99dcc2b51c8f201506fd18c10b4f4ef2e520f51b874",
      "v": 28,
      "creates": null,
      "raw": "0xf86e82040c850d38fdef728255f094ec4b2ccfc84a4c62d73d56c44917986aaaaee10f881223d8ecc36ddb70801ca07e658f0ac7d352e0b3c08e8f7491d6b8ac744d05fb06b27330e45e6e653b3815a00a5463050b61032a97cdf99dcc2b51c8f201506fd18c10b4f4ef2e520f51b874",
      "networkId": 0,
      "chainId": 0
    },
    {
      "hash": "0x448c5c055f5a5215b6abe2f4e9f6a1d0d78039f09e796626ca7b9cc4ad0e923c",
      "blockHash": "0xbe0e60f907ba893ce5506664b930d2716329745fa3b6c74a878c64f1709f025e",
      "blockNumber": 79081,
      "transactionIndex": 3,
      "confirmations": null,
      "from": "0xe6A7a1d47ff21B6321162AEA7C6CB457D5476Bca",
      "gasPrice": {
        "_hex": "0xd38fdef72"
      },
      "gasLimit": {
        "_hex": "0x55f0"
      },
      "to": "0x52524C3c4B039D2C330eD2D34973906987B21413",
      "value": {
        "_hex": "0x126c8cbfe5ed24d8"
      },
      "nonce": 1037,
      "data": "0x",
      "r": "0x6aa6bd70bdf378d631f329fc6ff9b6a27b6a38ec143da7b8c0806e471388c228",
      "s": "0x655e98bfabeb875d7ef6b8ee289dd94aeac146c0756161592259a822fd035816",
      "v": 27,
      "creates": null,
      "raw": "0xf86e82040d850d38fdef728255f09452524c3c4b039d2c330ed2d34973906987b2141388126c8cbfe5ed24d8801ba06aa6bd70bdf378d631f329fc6ff9b6a27b6a38ec143da7b8c0806e471388c228a0655e98bfabeb875d7ef6b8ee289dd94aeac146c0756161592259a822fd035816",
      "networkId": 0,
      "chainId": 0
    },
    {
      "hash": "0xc45b375a7b24ac1aa1229ad56f0c71e90a3ea75260878cd81db719efd719c98f",
      "blockHash": "0xbe0e60f907ba893ce5506664b930d2716329745fa3b6c74a878c64f1709f025e",
      "blockNumber": 79081,
      "transactionIndex": 4,
      "confirmations": null,
      "from": "0xe6A7a1d47ff21B6321162AEA7C6CB457D5476Bca",
      "gasPrice": {
        "_hex": "0xd38fdef72"
      },
      "gasLimit": {
        "_hex": "0x55f0"
      },
      "to": "0xE3535c3A7F74fDd1447140e98FA5fE310028f40f",
      "value": {
        "_hex": "0x126e263d6c0ae588"
      },
      "nonce": 1038,
      "data": "0x",
      "r": "0x650b7de3af8c381fff98b9ff58de14cec15866939c050173977c1431269313a4",
      "s": "0x4db86091d54e339b797b35faf34da065f299669b77a4c880e8c2432b5d814ecb",
      "v": 27,
      "creates": null,
      "raw": "0xf86e82040e850d38fdef728255f094e3535c3a7f74fdd1447140e98fa5fe310028f40f88126e263d6c0ae588801ba0650b7de3af8c381fff98b9ff58de14cec15866939c050173977c1431269313a4a04db86091d54e339b797b35faf34da065f299669b77a4c880e8c2432b5d814ecb",
      "networkId": 0,
      "chainId": 0
    },
    {
      "hash": "0x5d6fb7880ba71d21af70a705ed4b6f84e8aeaa0a26073ce2465aea8e1eeb1101",
      "blockHash": "0xbe0e60f907ba893ce5506664b930d2716329745fa3b6c74a878c64f1709f025e",
      "blockNumber": 79081,
      "transactionIndex": 5,
      "confirmations": null,
      "from": "0xe6A7a1d47ff21B6321162AEA7C6CB457D5476Bca",
      "gasPrice": {
        "_hex": "0xd38fdef72"
      },
      "gasLimit": {
        "_hex": "0x55f0"
      },
      "to": "0x9b7999611FD5eFF3ef9A86653490c42E83ED4B8E",
      "value": {
        "_hex": "0x12a806221ffcd3f0"
      },
      "nonce": 1039,
      "data": "0x",
      "r": "0xcce913412a6aa853895328015deaa096c3e19f5d465e63304facf4afbac3212e",
      "s": "0x4edf5bc51d77ad91fd017b2dd9ea924ddbafc96c750464576cee18b3229c892a",
      "v": 27,
      "creates": null,
      "raw": "0xf86e82040f850d38fdef728255f0949b7999611fd5eff3ef9a86653490c42e83ed4b8e8812a806221ffcd3f0801ba0cce913412a6aa853895328015deaa096c3e19f5d465e63304facf4afbac3212ea04edf5bc51d77ad91fd017b2dd9ea924ddbafc96c750464576cee18b3229c892a",
      "networkId": 0,
      "chainId": 0
    },
    {
      "hash": "0x4ff5e3daa4c2bf90d84ce49849ee4c8333734dab283448d4e1bca915a505d5c5",
      "blockHash": "0xbe0e60f907ba893ce5506664b930d2716329745fa3b6c74a878c64f1709f025e",
      "blockNumber": 79081,
      "transactionIndex": 6,
      "confirmations": null,
      "from": "0xe6A7a1d47ff21B6321162AEA7C6CB457D5476Bca",
      "gasPrice": {
        "_hex": "0xd38fdef72"
      },
      "gasLimit": {
        "_hex": "0x55f0"
      },
      "to": "0xE35453eef2cC3C7A044D0aC134ba615908FA82EE",
      "value": {
        "_hex": "0x12df92456f809ce0"
      },
      "nonce": 1040,
      "data": "0x",
      "r": "0xc1a2985bf9fc14e464a6b5273d130ba58f08ed0d8ade2ee813b4e03e863fbc17",
      "s": "0x1e1a2a863e28484a172bf325bc3e13f792d4fe5edac5895c8d01021bf64f1840",
      "v": 28,
      "creates": null,
      "raw": "0xf86e820410850d38fdef728255f094e35453eef2cc3c7a044d0ac134ba615908fa82ee8812df92456f809ce0801ca0c1a2985bf9fc14e464a6b5273d130ba58f08ed0d8ade2ee813b4e03e863fbc17a01e1a2a863e28484a172bf325bc3e13f792d4fe5edac5895c8d01021bf64f1840",
      "networkId": 0,
      "chainId": 0
    },
    {
      "hash": "0xdaaf93d03eb0c161214ab22bf9a42faf1b93b1d364c56271e2912072e9522b80",
      "blockHash": "0xbe0e60f907ba893ce5506664b930d2716329745fa3b6c74a878c64f1709f025e",
      "blockNumber": 79081,
      "transactionIndex": 7,
      "confirmations": null,
      "from": "0xe6A7a1d47ff21B6321162AEA7C6CB457D5476Bca",
      "gasPrice": {
        "_hex": "0xd38fdef72"
      },
      "gasLimit": {
        "_hex": "0x55f0"
      },
      "to": "0xcD690730A45cdebeF24F2a3db2de181bFBA5CBea",
      "value": {
        "_hex": "0x12dfc17f94e5d928"
      },
      "nonce": 1041,
      "data": "0x",
      "r": "0x2852bbb48bee08115542b2cc9ccc756b5cef1a452d905017f9138070f4d275e8",
      "s": "0x163eaff84fb58111156760b36707554d7fdee42f54820ed5e43e111bb21022b5",
      "v": 27,
      "creates": null,
      "raw": "0xf86e820411850d38fdef728255f094cd690730a45cdebef24f2a3db2de181bfba5cbea8812dfc17f94e5d928801ba02852bbb48bee08115542b2cc9ccc756b5cef1a452d905017f9138070f4d275e8a0163eaff84fb58111156760b36707554d7fdee42f54820ed5e43e111bb21022b5",
      "networkId": 0,
      "chainId": 0
    },
    {
      "hash": "0x1f842b114ce775170d6749712f383cfccb618b2329afee6b2d0e456257f32fcb",
      "blockHash": "0xbe0e60f907ba893ce5506664b930d2716329745fa3b6c74a878c64f1709f025e",
      "blockNumber": 79081,
      "transactionIndex": 8,
      "confirmations": null,
      "from": "0xe6A7a1d47ff21B6321162AEA7C6CB457D5476Bca",
      "gasPrice": {
        "_hex": "0xd38fdef72"
      },
      "gasLimit": {
        "_hex": "0x55f0"
      },
      "to": "0x4e6ee31D1BF178EEeD56D2AA21dA2b8F96d8bC41",
      "value": {
        "_hex": "0x12e7734fdfb54e28"
      },
      "nonce": 1042,
      "data": "0x",
      "r": "0xd28a716034e23f935178aeb4ea8e87eb997e23363417b239e39ec461919de421",
      "s": "0x715b62725701bb428f50a6b3bc67c7eb218c8b1aa7860550ac5d15ccf03f9eba",
      "v": 28,
      "creates": null,
      "raw": "0xf86e820412850d38fdef728255f0944e6ee31d1bf178eeed56d2aa21da2b8f96d8bc418812e7734fdfb54e28801ca0d28a716034e23f935178aeb4ea8e87eb997e23363417b239e39ec461919de421a0715b62725701bb428f50a6b3bc67c7eb218c8b1aa7860550ac5d15ccf03f9eba",
      "networkId": 0,
      "chainId": 0
    },
    {
      "hash": "0x792eb9053b19432287751ecc8a4c2f155750ae3023e75ddfe89e76c86ee488a2",
      "blockHash": "0xbe0e60f907ba893ce5506664b930d2716329745fa3b6c74a878c64f1709f025e",
      "blockNumber": 79081,
      "transactionIndex": 9,
      "confirmations": null,
      "from": "0xe6A7a1d47ff21B6321162AEA7C6CB457D5476Bca",
      "gasPrice": {
        "_hex": "0xd38fdef72"
      },
      "gasLimit": {
        "_hex": "0x55f0"
      },
      "to": "0xcCF7110d1Bd9A74bfd1d7d7d2d9D55607E7B837d",
      "value": {
        "_hex": "0x13244fb2bf872ce4"
      },
      "nonce": 1043,
      "data": "0x",
      "r": "0x8c0f4567bb48ce9eb50f956984eac6f034ef0076c270c4aaab4e4aeae0b47400",
      "s": "0x09c474d9dab737f2e8dc8c269d1ddf3ca5550e7357ac0169df5e54fdb645f2b1",
      "v": 27,
      "creates": null,
      "raw": "0xf86e820413850d38fdef728255f094ccf7110d1bd9a74bfd1d7d7d2d9d55607e7b837d8813244fb2bf872ce4801ba08c0f4567bb48ce9eb50f956984eac6f034ef0076c270c4aaab4e4aeae0b47400a009c474d9dab737f2e8dc8c269d1ddf3ca5550e7357ac0169df5e54fdb645f2b1",
      "networkId": 0,
      "chainId": 0
    },
    {
      "hash": "0x6d36906548e6d98ed3ca9d6eab79d1b03c3fc1f46a11bd8dd5f0b1a0511adc67",
      "blockHash": "0xbe0e60f907ba893ce5506664b930d2716329745fa3b6c74a878c64f1709f025e",
      "blockNumber": 79081,
      "transactionIndex": 10,
      "confirmations": null,
      "from": "0xe6A7a1d47ff21B6321162AEA7C6CB457D5476Bca",
      "gasPrice": {
        "_hex": "0xd38fdef72"
      },
      "gasLimit": {
        "_hex": "0x55f0"
      },
      "to": "0x440875EeE9a37dCF577dab873E86f62298EAD638",
      "value": {
        "_hex": "0x133eaca6c15b93f0"
      },
      "nonce": 1044,
      "data": "0x",
      "r": "0x9a1b1e12d9d84f460d5855705fcffd184232e51e9034dbdb028087a7da1755d6",
      "s": "0x139eafccb32d1096cd5ce6fa5630ea8f2a05e10b15dd95967f3fe8a696e0bed1",
      "v": 27,
      "creates": null,
      "raw": "0xf86e820414850d38fdef728255f094440875eee9a37dcf577dab873e86f62298ead63888133eaca6c15b93f0801ba09a1b1e12d9d84f460d5855705fcffd184232e51e9034dbdb028087a7da1755d6a0139eafccb32d1096cd5ce6fa5630ea8f2a05e10b15dd95967f3fe8a696e0bed1",
      "networkId": 0,
      "chainId": 0
    }
  ]
}