{
  "hash": "0xde042cd8aba8e3242e2f7079a1c8c2c41c190a044451407dbf1a571ddbc306b8",
  "parentHash": "0x3a1ab33b408c81ad37aa30f1fc8e911c4890495352dfa2da4798c92c811b0a6b",
  "number": 85209,
  "timestamp": 1439560072,
  "nonce": "0xfd2639a8dedcf86f",
  "difficulty": 2746420203167,
  "gasLimit": {
    "_hex": "0x2fefd8"
  },
  "gasUsed": {
    "_hex": "0xf618"
  },
  "miner": "0xf8E0CA3Ed80bd541b94BEdCf259e8CF2141A9523",
  "extraData": "0x476574682f76312e302e312f77696e646f77732f676f312e342e32",
  "transactions": [
    {
      "hash": "0x0483161ca10ddaa38ed96d2a50dfd4d33f7793aa1229160ee90a64d0608bed16",
      "blockHash": "0xde042cd8aba8e3242e2f7079a1c8c2c41c190a044451407dbf1a571ddbc306b8",
      "blockNumber": 85209,
      "transactionIndex": 0,
      "confirmations": null,
      "from": "0x2f86ba8019945f39edE131D38d4d8780884DA553",
      "gasPrice": {
        "_hex": "0xd39e02bef"
      },
      "gasLimit": {
        "_hex": "0x5208"
      },
      "to": "0x32Be343B94f860124dC4fEe278FDCBD38C102D88",
      "value": {
        "_hex": "0x3635b3ad5aa5f20000"
      },
      "nonce": 7,
      "data": "0x",
      "r": "0x3366ad8c5d16472a01507be9cfd0e90756d551dbf886f343c67153eb4628657a",
      "s": "0x4ddb91e9b456e88d3f9b49fb083437834ffa0e1967b51d928db625bcf7e93670",
      "v": 28,
      "creates": null,
      "raw": "0xf86d07850d39e02bef8252089432be343b94f860124dc4fee278fdcbd38c102d88893635b3ad5aa5f20000801ca03366ad8c5d16472a01507be9cfd0e90756d551dbf886f343c67153eb4628657aa04ddb91e9b456e88d3f9b49fb083437834ffa0e1967b51d928db625bcf7e93670",
      "networkId": 0,
      "chainId": 0
    },
    {
      "hash": "0x7101856534220bc43b08450dbb5ffea7c14d9158c2bc05780ab76d62e4f52d9e",
      "blockHash": "0xde042cd8aba8e3242e2f7079a1c8c2c41c190a044451407dbf1a571ddbc306b8",
      "blockNumber": 85209,
      "transactionIndex": 1,
      "confirmations": null,
      "from": "0xeAC8895afdC8eeBb9747C0ec1F0588c51322f93b",
      "gasPrice": {
        "_hex": "0xd39e02bef"
      },
      "gasLimit": {
        "_hex": "0x5208"
      },
      "to": "0x32Be343B94f860124dC4fEe278FDCBD38C102D88",
      "value": {
        "_hex": "0x4ceb48a9c905080000"
      },
      "nonce": 0,
      "data": "0x",
      "r": "0xe8b708e7c0299a73c277c65bb12df81fb4fd6eb8d234aabf4889dcda2c1c74ce",
      "s": "0x52218a37af1c2df9f3f864395f5db03c9590fd76914bb4254d58e45aabbbaf0c",
      "v": 28,
      "creates": null,
      "raw": "0xf86d80850d39e02bef8252089432be343b94f860124dc4fee278fdcbd38c102d88894ceb48a9c905080000801ca0e8b708e7c0299a73c277c65bb12df81fb4fd6eb8d234aabf4889dcda2c1c74cea052218a37af1c2df9f3f864395f5db03c9590fd76914bb4254d58e45aabbbaf0c",
      "networkId": 0,
      "chainId": 0
    },
    {
      "hash": "0x192044901f748a6b09306400cea195536672841bb61dbdd37b49a3a08578a196",
      "blockHash": "0xde042cd8aba8e3242e2f7079a1c8c2c41c190a044451407dbf1a571ddbc306b8",
      "blockNumber": 85209,
      "transactionIndex": 2,
      "confirmations": null,
      "from": "0x4D67f4F0Db45b3B5a3424B39ed8d972F710381D5",
      "gasPrice": {
        "_hex": "0xd39e02bef"
      },
      "gasLimit": {
        "_hex": "0x5208"
      },
      "to": "0x32Be343B94f860124dC4fEe278FDCBD38C102D88",
      "value": {
        "_hex": "0x1bbd3072f9ef9000"
      },
      "nonce": 0,
      "data": "0x",
      "r": "0x11845956bcfe5f050168b7d203d0585fa4dcb2c7f490a512c8c931f8130f3f62",
      "s": "0x7102c8a7dce32bf20d43d6d677e66c5f22ef4e71f6f6a46f374c2abda193b5e0",
      "v": 28,
      "creates": null,
      "raw": "0xf86c80850d39e02bef8252089432be343b94f860124dc4fee278fdcbd38c102d88881bbd3072f9ef9000801ca011845956bcfe5f050168b7d203d0585fa4dcb2c7f490a512c8c931f8130f3f62a07102c8a7dce32bf20d43d6d677e66c5f22ef4e71f6f6a46f374c2abda193b5e0",
      "networkId": 0,
      "chainId": 0
    }
  ]
}