{
  "hash": "0x61b87975446fa603c1ae8c959c4a5985e4a2cf8b4074fb21c12fe642103f00c4",
  "parentHash": "0x591116a615608b841026e2e2fee84252393f31a47d27e63141510e8f39a08d90",
  "number": 78510,
  "timestamp": 1439454901,
  "nonce": "0x208c7e0699c68189",
  "difficulty": 2295432105396,
  "gasLimit": {
    "_hex": "0x2fefd8"
  },
  "gasUsed": {
    "_hex": "0x546c"
  },
  "miner": "0xe6A7a1d47ff21B6321162AEA7C6CB457D5476Bca",
  "extraData": "0x476574682f76312e302e312d38326566323666362f6c696e75782f676f312e34",
  "transactions": [
    {
      "hash": "0xc3674b6d2b861eb2870fd264e404c596641c4841b694a22cbd1780091f7d947d",
      "blockHash": "0x61b87975446fa603c1ae8c959c4a5985e4a2cf8b4074fb21c12fe642103f00c4",
      "blockNumber": 78510,
      "transactionIndex": 0,
      "confirmations": null,
      "from": "0x2C4B470307A059854055d91Ec3794D80B53d0F4A",
      "gasPrice": {
        "_hex": "0xcb637887b"
      },
      "gasLimit": {
        "_hex": "0x55f0"
      },
      "to": "0x2910543Af39abA0Cd09dBb2D50200b3E800A63D2",
      "value": {
        "_hex": "0x4563918244f40000"
      },
      "nonce": 1,
      "data": "0x454e445444344e3730",
      "r": "0xad4d2ccb2dfb96ef5d2278b89214ac48fbf4e70a55c59ce365295ac055786fca",
      "s": "0x7d51a48882139521525344ccd786339ce18859c984ed1d4c2b33dff3fbe76353",
      "v": 28,
      "creates": null,
      "raw": "0xf87501850cb637887b8255f0942910543af39aba0cd09dbb2d50200b3e800a63d2884563918244f4000089454e445444344e37301ca0ad4d2ccb2dfb96ef5d2278b89214ac48fbf4e70a55c59ce365295ac055786fcaa07d51a48882139521525344ccd786339ce18859c984ed1d4c2b33dff3fbe76353",
      "networkId": 0,
      "chainId": 0
    }
  ]
}