{
  "hash": "0x23c078fe8da0c319bab4d1c0bed6c44d843f01eeb32349aa31a800be4fe110c6",
  "parentHash": "0x90d053a2dba274bde507d16cf3708d5170687218aea05b5dd1f55ad16b70d1ce",
  "number": 53453,
  "timestamp": 1439037880,
  "nonce": "0xac3816d1d0bf12ce",
  "difficulty": 1595534654781,
  "gasLimit": {
    "_hex": "0x28b56d"
  },
  "gasUsed": {
    "_hex": "0xddfd"
  },
  "miner": "0xa50ec0D39fa913E62f1Bae7074E6F36caA71855b",
  "extraData": "0x",
  "transactions": [
    {
      "hash": "0xd0c528fe492d7f796e58797811471e2d86c9a4def3e165c931526570bbc2d422",
      "blockHash": "0x23c078fe8da0c319bab4d1c0bed6c44d843f01eeb32349aa31a800be4fe110c6",
      "blockNumber": 53453,
      "transactionIndex": 0,
      "confirmations": null,
      "from": "0xAf1e0b1434C01f7aC75C76D46d3ef605b90A9934",
      "gasPrice": {
        "_hex": "0xd7d40ace3"
      },
      "gasLimit": {
        "_hex": "0x7a120"
      },
      "to": "0xA327075af2a223A1C83a36aDa1126afE7430f955",
      "value": {
        "_hex": "0x8ac7230489e80000"
      },
      "nonce": 0,
      "data": "0x",
      "r": "0x958a316d94b813f9e6cac025606a3fa741e8311d7183b519704a37d8fe532211",
      "s": "0x7e0eabb4c2a8fc6dc467621797f2f0cd4aa20fe707316f181da95b8e571ada4a",
      "v": 27,
      "creates": null,
      "raw": "0xf86d80850d7d40ace38307a12094a327075af2a223a1c83a36ada1126afe7430f955888ac7230489e80000801ba0958a316d94b813f9e6cac025606a3fa741e8311d7183b519704a37d8fe532211a07e0eabb4c2a8fc6dc467621797f2f0cd4aa20fe707316f181da95b8e571ada4a",
      "networkId": 0,
      "chainId": 0
    }
  ]
}