{
  "hash": "0x875af0c32661fcd4c123d6931cf6ef706f46d85189fd77312f810994b73a5092",
  "parentHash": "0xc7297e1c47623f5840b5c9c267c999f64d8e053f3853df733ad1d1bce5ee6cd2",
  "number": 47271,
  "timestamp": 1438937112,
  "nonce": "0x529a60a91955ec6f",
  "difficulty": 1466655875388,
  "gasLimit": {
    "_hex": "0xaaf1"
  },
  "gasUsed": {
    "_hex": "0x5208"
  },
  "miner": "0x80618557521942001812b6689965bb92b59f95ae",
  "extraData": "0x476574682f76312e302e312f77696e646f77732f676f312e342e32",
  "transactions": [
    {
      "hash": "0x675105ea375bf2c0c16a0175ec8a4314a06a2f1296c705f1fb15b5f4d9b12fe6",
      "blockHash": "0x875af0c32661fcd4c123d6931cf6ef706f46d85189fd77312f810994b73a5092",
      "blockNumber": 47271,
      "transactionIndex": 0,
      "confirmations": null,
      "from": "0xe6A7a1d47ff21B6321162AEA7C6CB457D5476Bca",
      "gasPrice": {
        "_hex": "0xec70c28e0"
      },
      "gasLimit": {
        "_hex": "0x5208"
      },
      "to": "0xb6f15735Af04ae6d37B89592E406311A94e4F5f2",
      "value": {
        "_hex": "0x9384d212fa9c9030"
      },
      "nonce": 94,
      "data": "0x",
      "r": "0x3aad87ba334583fa2bfa91faa5a45f6cbb473d8d33ccd851a45ad7d6e12ec564",
      "s": "0x6c2481ae647faba7c6f72380abfd8dbb767eb184f6157b392bb1d036e2f65f82",
      "v": 27,
      "creates": null,
      "raw": "0xf86c5e850ec70c28e082520894b6f15735af04ae6d37b89592e406311a94e4f5f2889384d212fa9c9030801ba03aad87ba334583fa2bfa91faa5a45f6cbb473d8d33ccd851a45ad7d6e12ec564a06c2481ae647faba7c6f72380abfd8dbb767eb184f6157b392bb1d036e2f65f82",
      "networkId": 0,
      "chainId": 0
    }
  ]
}