{
  "hash": "0xe4f32692de44fed78530c3939b30e46904cfa980f50b99dea6f0d9087ac68e05",
  "parentHash": "0x886eafadddb673639d9921e9ba066f596ba9cea0329ddd60a4debd830ce16fd6",
  "number": 106400,
  "timestamp": 1439903544,
  "nonce": "0xd5b6e49f01c68931",
  "difficulty": 4488077955594,
  "gasLimit": {
    "_hex": "0x2fefd8"
  },
  "gasUsed": {
    "_hex": "0xaa37"
  },
  "miner": "0x5B3e850E39e6f2C7dD38707b649e2B3536F14C0b",
  "extraData": "0x476574682f76312e302e312f64617277696e2f676f312e342e32",
  "transactions": [
    {
      "hash": "0x747c0842c98f0bdacebbc3a8481c7a8f101d07ce9cd79a26d31a6d48fa0d9e2d",
      "blockHash": "0xe4f32692de44fed78530c3939b30e46904cfa980f50b99dea6f0d9087ac68e05",
      "blockNumber": 106400,
      "transactionIndex": 0,
      "confirmations": null,
      "from": "0x87C5B5874A18B4306DF8a752a6C8cc3E82daFc19",
      "gasPrice": {
        "_hex": "0x10d13245553"
      },
      "gasLimit": {
        "_hex": "0x493e0"
      },
      "to": "0xD79B4C6791784184e2755B2fC1659eaaB0f80456",
      "value": {
        "_hex": "0x0"
      },
      "nonce": 348,
      "data": "0x03750d9400000000000000000000000087c5b5874a18b4306df8a752a6c8cc3e82dafc196b6b6b0000000000000000000000000000000000000000000000000000000000",
      "r": "0xbfe4b5990d070cf0ad62c42db42530aaec20ddebca3a7d642218b3d378b88457",
      "s": "0x50be9e28b3c54b5672a27e05c983f3010c7834d6f11458256453339221586287",
      "v": 27,
      "creates": null,
      "raw": "0xf8ad82015c86010d13245553830493e094d79b4c6791784184e2755b2fc1659eaab0f8045680b84403750d9400000000000000000000000087c5b5874a18b4306df8a752a6c8cc3e82dafc196b6b6b00000000000000000000000000000000000000000000000000000000001ba0bfe4b5990d070cf0ad62c42db42530aaec20ddebca3a7d642218b3d378b88457a050be9e28b3c54b5672a27e05c983f3010c7834d6f11458256453339221586287",
      "networkId": 0,
      "chainId": 0
    }
  ]
}