{
  "hash": "0x354a2e57d2587ead277fbc02307520b8ccc5e21f6f2c625610804e8690a381e5",
  "parentHash": "0x289ce726b6d73aff834584a2857cde5bf9fa9400eedc054acc43f3bbef15275e",
  "number": 86154,
  "timestamp": 1439574284,
  "nonce": "0xf4a642676444b967",
  "difficulty": 2804377984546,
  "gasLimit": {
    "_hex": "0x2fefd8"
  },
  "gasUsed": {
    "_hex": "0x5208"
  },
  "miner": "0x9746c7e1ef2bd21FF3997fa467593a89cb852BD0",
  "extraData": "0x476574682f76312e302e312f77696e646f77732f676f312e342e32",
  "transactions": [
    {
      "hash": "0x63de567346dd45c5e1ebb91b8b316ce289db9d9e4cb0c8199203a96f98807603",
      "blockHash": "0x354a2e57d2587ead277fbc02307520b8ccc5e21f6f2c625610804e8690a381e5",
      "blockNumber": 86154,
      "transactionIndex": 0,
      "confirmations": null,
      "from": "0xE89dA96e06beAF6bD880B378f0680c43FD2e9D30",
      "gasPrice": {
        "_hex": "0xba43b7400"
      },
      "gasLimit": {
        "_hex": "0x97514"
      },
      "to": "0x2FDfeedE63884ABE4F6A3D9476DF6091e0B27934",
      "value": {
        "_hex": "0xde0b6b3a7640000"
      },
      "nonce": 1,
      "data": "0x",
      "r": "0x1654e11c347359e0fa842a549362b593aed4070b0b65e82fe0fb3c4f8103c26b",
      "s": "0x526ddab79a96fa765907f965d01fe436a60e392e3ddd1df5de36310b32e00df5",
      "v": 27,
      "creates": null,
      "raw": "0xf86d01850ba43b740083097514942fdfeede63884abe4f6a3d9476df6091e0b27934880de0b6b3a7640000801ba01654e11c347359e0fa842a549362b593aed4070b0b65e82fe0fb3c4f8103c26ba0526ddab79a96fa765907f965d01fe436a60e392e3ddd1df5de36310b32e00df5",
      "networkId": 0,
      "chainId": 0
    }
  ]
}