{
  "hash": "0xb2a42af1cfad04702f76f2c0b5934d42ce6262c2398946e84e084fe5aecb8f4b",
  "parentHash": "0xe5da8eefc18b124c1791ccaaf72206f1b060accf0fbc44476e3c0c647937c97d",
  "number": 120160,
  "timestamp": 1440154956,
  "nonce": "0xd44f70aafd57e21b",
  "difficulty": 4419879095504,
  "gasLimit": {
    "_hex": "0x2fefd8"
  },
  "gasUsed": {
    "_hex": "0x1bdbe"
  },
  "miner": "0x17B719A685fC6C0002798e7f8151D0E2E83B7497",
  "extraData": "0x",
  "transactions": [
    {
      "hash": "0x2b2cc4f710020fdca5c4b23754adcfa4154811e2d1cc89531cccd3c2b60ad36a",
      "blockHash": "0xb2a42af1cfad04702f76f2c0b5934d42ce6262c2398946e84e084fe5aecb8f4b",
      "blockNumber": 120160,
      "transactionIndex": 0,
      "confirmations": null,
      "from": "0x7E859e90b9c68AE1e337932767025Da8A36f6ce6",
      "gasPrice": {
        "_hex": "0xd7d3cc6b0"
      },
      "gasLimit": {
        "_hex": "0x249f0"
      },
      "to": "0xE28e72FCf78647ADCe1F1252F240bbfaebD63BcC",
      "value": {
        "_hex": "0x3635c9adc5dea00000"
      },
      "nonce": 0,
      "data": "0x45466f3a",
      "r": "0xc40d46153f60ca5dc4a9f374854f1b36d4b68e660dd22e5d0a9aa8e31aecc875",
      "s": "0x4b7c6c6ea91297c70902ed07bf52f8b9cea7b64df9e46fe6bfe4a7f5b8848a8d",
      "v": 27,
      "creates": null,
      "raw": "0xf87280850d7d3cc6b0830249f094e28e72fcf78647adce1f1252f240bbfaebd63bcc893635c9adc5dea000008445466f3a1ba0c40d46153f60ca5dc4a9f374854f1b36d4b68e660dd22e5d0a9aa8e31aecc875a04b7c6c6ea91297c70902ed07bf52f8b9cea7b64df9e46fe6bfe4a7f5b8848a8d",
      "networkId": 0,
      "chainId": 0
    }
  ]
}