{
  "hash": "0x120b993e70f8cc481f85f312a435fb2ba381bacb0df4ce49c05b6ce63aa2da41",
  "parentHash": "0x1ee9f9f0405e7da77cbcec5a09729d41be5d2f030d5f5a6fc21016a8c94cb736",
  "number": 104407,
  "timestamp": 1439869283,
  "nonce": "0x01c870ff5e63ec74",
  "difficulty": 4323496555657,
  "gasLimit": {
    "_hex": "0x2fefd8"
  },
  "gasUsed": {
    "_hex": "0x5208"
  },
  "miner": "0xe6A7a1d47ff21B6321162AEA7C6CB457D5476Bca",
  "extraData": "0x476574682f76312e302e312d38326566323666362f6c696e75782f676f312e34",
  "transactions": [
    {
      "hash": "0xea3b4ec85c20cec9a2b6cebda6d27b5691c3cec45f34a76951bcfd531a313b57",
      "blockHash": "0x120b993e70f8cc481f85f312a435fb2ba381bacb0df4ce49c05b6ce63aa2da41",
      "blockNumber": 104407,
      "transactionIndex": 0,
      "confirmations": null,
      "from": "0xcf00A85f3826941e7A25BFcF9Aac575d40410852",
      "gasPrice": {
        "_hex": "0xcb5bea614"
      },
      "gasLimit": {
        "_hex": "0x15f90"
      },
      "to": "0xD9666150A9dA92d9108198a4072970805a8B3428",
      "value": {
        "_hex": "0x4563918244f40000"
      },
      "nonce": 57,
      "data": "0x",
      "r": "0xbfc5986d3ebf88cef6fe65c7fe9c1dd961215de1006fe31b3b3119e138a95de3",
      "s": "0x50c17c5885aa2c0fb472629189e29b5efcf5cf5b592fc82ac62ea7efe4794429",
      "v": 28,
      "creates": null,
      "raw": "0xf86d39850cb5bea61483015f9094d9666150a9da92d9108198a4072970805a8b3428884563918244f40000801ca0bfc5986d3ebf88cef6fe65c7fe9c1dd961215de1006fe31b3b3119e138a95de3a050c17c5885aa2c0fb472629189e29b5efcf5cf5b592fc82ac62ea7efe4794429",
      "networkId": 0,
      "chainId": 0
    }
  ]
}