{
  "hash": "0x8d0a44702d32a9a922c8b1c2e799346da66bc7598c3b75e26340801a324b0bb4",
  "parentHash": "0xce7710a0fdaa00fd01ba70f1d91911585d34cc7a04d8fb74800593ecfdb47917",
  "number": 83123,
  "timestamp": 1439530549,
  "nonce": "0x020b53b61245c626",
  "difficulty": 2403096026148,
  "gasLimit": {
    "_hex": "0x2fefd8"
  },
  "gasUsed": {
    "_hex": "0xa674"
  },
  "miner": "0x007f7f58D3eb5b7510A301eCC749FC1fCDDBE14D",
  "extraData": "0x476574682f76312e302e312f77696e646f77732f676f312e342e32",
  "transactions": [
    {
      "hash": "0x96ee9c5e1ba9cb140cf67af8756befc4c5b100677eff157eb385c8a00c196992",
      "blockHash": "0x8d0a44702d32a9a922c8b1c2e799346da66bc7598c3b75e26340801a324b0bb4",
      "blockNumber": 83123,
      "transactionIndex": 0,
      "confirmations": null,
      "from": "0x87fCBE7C4193ffcb08143779C9BEc83Fe7Fda9fc",
      "gasPrice": {
        "_hex": "0x110c8f7d8de"
      },
      "gasLimit": {
        "_hex": "0xc350"
      },
      "to": "0x2910543Af39abA0Cd09dBb2D50200b3E800A63D2",
      "value": {
        "_hex": "0x5188315f776b80000"
      },
      "nonce": 0,
      "data": "0x454e50474747454d52",
      "r": "0xdf8d568c6c87d2ebc2ad354216718d288eeec74a51183aee4f8b805468cda8cc",
      "s": "0x389f17be471f0322389a2c45ef1c843cd711e4dc9e722c3517d65ddc6edbb249",
      "v": 27,
      "creates": null,
      "raw": "0xf87780860110c8f7d8de82c350942910543af39aba0cd09dbb2d50200b3e800a63d28905188315f776b8000089454e50474747454d521ba0df8d568c6c87d2ebc2ad354216718d288eeec74a51183aee4f8b805468cda8cca0389f17be471f0322389a2c45ef1c843cd711e4dc9e722c3517d65ddc6edbb249",
      "networkId": 0,
      "chainId": 0
    },
    {
      "hash": "0x6e93259e28d2ab77113ea00c2ddab0440c8779f89fb486e212f3d8de463d5a73",
      "blockHash": "0x8d0a44702d32a9a922c8b1c2e799346da66bc7598c3b75e26340801a324b0bb4",
      "blockNumber": 83123,
      "transactionIndex": 1,
      "confirmations": null,
      "from": "0xA5a5181868a8Df772f87DC95aB9B366e974Da936",
      "gasPrice": {
        "_hex": "0xba43b7400"
      },
      "gasLimit": {
        "_hex": "0x5266"
      },
      "to": "0x1527fcd698B3A8707bb745F80ab114FfF3Db35E2",
      "value": {
        "_hex": "0xe47be0c51e08000"
      },
      "nonce": 6,
      "data": "0x",
      "r": "0x932721e24501dc35d5e71646490c43db2d989759694971ff09e7cad3a45076f3",
      "s": "0xaa1a09256d7c3015c31e37eb802e5bb5f5d1a0b5098aa4be0652a6f48107e051",
      "v": 27,
      "creates": null,
      "raw": "0xf86c06850ba43b7400825266941527fcd698b3a8707bb745f80ab114fff3db35e2880e47be0c51e08000801ba0932721e24501dc35d5e71646490c43db2d989759694971ff09e7cad3a45076f3a0aa1a09256d7c3015c31e37eb802e5bb5f5d1a0b5098aa4be0652a6f48107e051",
      "networkId": 0,
      "chainId": 0
    }
  ]
}