{
  "hash": "0x9ca4c7887a3856537eb072320682a131eb44c20656a0874692cb4b4972a40d89",
  "parentHash": "0x8d70539ab44964996934c69e67cf0faa171b848da515c115e5604fc0fbd3b0df",
  "number": 76436,
  "timestamp": 1439420686,
  "nonce": "0xdd7855cedd68cb7d",
  "difficulty": 2223187066832,
  "gasLimit": {
    "_hex": "0x2fefd8"
  },
  "gasUsed": {
    "_hex": "0x174ca"
  },
  "miner": "0xe6A7a1d47ff21B6321162AEA7C6CB457D5476Bca",
  "extraData": "0x476574682f76312e302e312d38326566323666362f6c696e75782f676f312e34",
  "transactions": [
    {
      "hash": "0xe1f6d9280f5823fcbaf39120402d2db8bafc6ad61b67283cda9d696bdd20f3cc",
      "blockHash": "0x9ca4c7887a3856537eb072320682a131eb44c20656a0874692cb4b4972a40d89",
      "blockNumber": 76436,
      "transactionIndex": 0,
      "confirmations": null,
      "from": "0x18E113D8177c691A61Be785852Fa5Bb47aEeBdAf",
      "gasPrice": {
        "_hex": "0xd9b98b409"
      },
      "gasLimit": {
        "_hex": "0x186a0"
      },
      "to": "0xc2ac6849Aec3938FB8c9B36F1c07be76f766637E",
      "value": {
        "_hex": "0x53444835ec580000"
      },
      "nonce": 5,
      "data": "0x",
      "r": "0x4e561f2cc8e215a883c7bd8d69196920506d808922158dca6c458f7cd3acde3e",
      "s": "0x11cacb3a914b99e6645fbc8f51b68af1d8f9cd413a03b9777d006c9cf634acdb",
      "v": 27,
      "creates": null,
      "raw": "0xf86d05850d9b98b409830186a094c2ac6849aec3938fb8c9b36f1c07be76f766637e8853444835ec580000801ba04e561f2cc8e215a883c7bd8d69196920506d808922158dca6c458f7cd3acde3ea011cacb3a914b99e6645fbc8f51b68af1d8f9cd413a03b9777d006c9cf634acdb",
      "networkId": 0,
      "chainId": 0
    }
  ]
}