{
  "hash": "0xf7f5e94264c3a64b16faa2a57bd05ab22f927242e8989610cdc090c48bc68373",
  "parentHash": "0xc470d2f3ed7fd689f47941d26c916a0ede6beb7a1e6bf65c6c773ef5c3af09f4",
  "number": 121898,
  "timestamp": 1440184582,
  "nonce": "0xedd5b52c8fdbcea0",
  "difficulty": 4475421196824,
  "gasLimit": {
    "_hex": "0x2fefd8"
  },
  "gasUsed": {
    "_hex": "0x5208"
  },
  "miner": "0x790b8a3cE86E707ED0eD32bF89B3269692a23CC1",
  "extraData": "0xd783010002844765746887676f312e342e32856c696e7578",
  "transactions": [
    {
      "hash": "0x59facb62822d1098d2360ee1a9154d1ccfb57092b47f7f2d0e4e9fc530e2253d",
      "blockHash": "0xf7f5e94264c3a64b16faa2a57bd05ab22f927242e8989610cdc090c48bc68373",
      "blockNumber": 121898,
      "transactionIndex": 0,
      "confirmations": null,
      "from": "0xf97e4688e66CD658F9666d93FD97f779b80218a0",
      "gasPrice": {
        "_hex": "0xd68ffc2fc"
      },
      "gasLimit": {
        "_hex": "0x5208"
      },
      "to": "0x32Be343B94f860124dC4fEe278FDCBD38C102D88",
      "value": {
        "_hex": "0x1d9d83fa6ac76c00"
      },
      "nonce": 9,
      "data": "0x",
      "r": "0x91cb4ecdfe57f08126c163a4fe4e96b9c4b4fde94d9462d42b12e160c3824439",
      "s": "0x51ff34568653d0fe4871abeac6ab29518ac3c0a654736f24a81638838d27acf3",
      "v": 27,
      "creates": null,
      "raw": "0xf86c09850d68ffc2fc8252089432be343b94f860124dc4fee278fdcbd38c102d88881d9d83fa6ac76c00801ba091cb4ecdfe57f08126c163a4fe4e96b9c4b4fde94d9462d42b12e160c3824439a051ff34568653d0fe4871abeac6ab29518ac3c0a654736f24a81638838d27acf3",
      "networkId": 0,
      "chainId": 0
    }
  ]
}