{
  "hash": "0xb3af9ab4e18fa7bf3b3a4d9ce53289df8779cea676d13a8eeead27204a29baf9",
  "parentHash": "0x8315a8e50777af22d0285fb7cada2a73a38df7e0937dae902508261ffe0cf7d7",
  "number": 79541,
  "timestamp": 1439471346,
  "nonce": "0xb6166431255b41fa",
  "difficulty": 2341560845606,
  "gasLimit": {
    "_hex": "0x2fefd8"
  },
  "gasUsed": {
    "_hex": "0x14140"
  },
  "miner": "0xe6A7a1d47ff21B6321162AEA7C6CB457D5476Bca",
  "extraData": "0x476574682f76312e302e312d38326566323666362f6c696e75782f676f312e34",
  "transactions": [
    {
      "hash": "0x61b148d544fa601a7c7b283c971644d935719b9fabb8cf6169ff50d665d1e417",
      "blockHash": "0xb3af9ab4e18fa7bf3b3a4d9ce53289df8779cea676d13a8eeead27204a29baf9",
      "blockNumber": 79541,
      "transactionIndex": 0,
      "confirmations": null,
      "from": "0x869e88783E4c2E97d967A89E1aca4523eeAB3D7C",
      "gasPrice": {
        "_hex": "0xd6ea1f669"
      },
      "gasLimit": {
        "_hex": "0x15f90"
      },
      "to": "0xE7B3A5522a9E1Fbfc7Ccc77B8f0B56c341C76498",
      "value": {
        "_hex": "0x1bc16d674ec80000"
      },
      "nonce": 1,
      "data": "0x1338736f000000000000000000000000000000000000000000000000000000000000012c000000000000000000000000000000000000000000000000000000000000000a",
      "r": "0x69bbc631dd4002d63662fa97e18dc9f591a954ea03ecc26fc49fd026d5dc13fa",
      "s": "0x1b134bc7f35f6301af97dec73e5043ec1247d11976f97e84c0992ca40414f768",
      "v": 27,
      "creates": null,
      "raw": "0xf8b201850d6ea1f66983015f9094e7b3a5522a9e1fbfc7ccc77b8f0b56c341c76498881bc16d674ec80000b8441338736f000000000000000000000000000000000000000000000000000000000000012c000000000000000000000000000000000000000000000000000000000000000a1ba069bbc631dd4002d63662fa97e18dc9f591a954ea03ecc26fc49fd026d5dc13faa01b134bc7f35f6301af97dec73e5043ec1247d11976f97e84c0992ca40414f768",
      "networkId": 0,
      "chainId": 0
    }
  ]
}