{
  "hash": "0x419f52afec8496784e72644aae4debbb5253d5438210df1802689b39c9572e86",
  "parentHash": "0xb9a7794a219dab249ca366d9ccf99da6800645879d07ad48b2d804bbbc8fd527",
  "number": 109080,
  "timestamp": 1439950672,
  "nonce": "0xc4d944c62c893cdb",
  "difficulty": 4425720901747,
  "gasLimit": {
    "_hex": "0x2fefd8"
  },
  "gasUsed": {
    "_hex": "0x5208"
  },
  "miner": "0x87cD3b7f4DBBFE553DB92Ac1C97c6C24231c5D26",
  "extraData": "0x476574682f76312e302e312f6c696e75782f676f312e342e32",
  "transactions": [
    {
      "hash": "0x9b902291069123bc90b896300d2e322443c0d89b4623da291d38fc9228af2bf4",
      "blockHash": "0x419f52afec8496784e72644aae4debbb5253d5438210df1802689b39c9572e86",
      "blockNumber": 109080,
      "transactionIndex": 0,
      "confirmations": null,
      "from": "0xF87481A262E993a75F791E7859E71BaC36A606Eb",
      "gasPrice": {
        "_hex": "0xd14b3d7ef"
      },
      "gasLimit": {
        "_hex": "0x5208"
      },
      "to": "0x32Be343B94f860124dC4fEe278FDCBD38C102D88",
      "value": {
        "_hex": "0x7b2a1312bc3654000"
      },
      "nonce": 40,
      "data": "0x",
      "r": "0xfa4f48576ff99609a9ea85d90ff88b7a2ee411d9d09d14e67aeafc047b793bc8",
      "s": "0x25a23471055f3a1b88c86fcbff35ec467f2b689942bd6090487d8f805dbd8cdf",
      "v": 28,
      "creates": null,
      "raw": "0xf86d28850d14b3d7ef8252089432be343b94f860124dc4fee278fdcbd38c102d888907b2a1312bc3654000801ca0fa4f48576ff99609a9ea85d90ff88b7a2ee411d9d09d14e67aeafc047b793bc8a025a23471055f3a1b88c86fcbff35ec467f2b689942bd6090487d8f805dbd8cdf",
      "networkId": 0,
      "chainId": 0
    }
  ]
}