{
  "hash": "0x69553fec4a9182b2c8979fbff478504084e65633a895a2a6ce69063896e0f87b",
  "parentHash": "0x1ad41de987a298068e7046b2335cd378bca859695cf04bdc7cd56eebee20ad12",
  "number": 90288,
  "timestamp": 1439637681,
  "nonce": "0xde22dfea83f8138e",
  "difficulty": 3309193780495,
  "gasLimit": {
    "_hex": "0x2fefd8"
  },
  "gasUsed": {
    "_hex": "0x5208"
  },
  "miner": "0xe6A7a1d47ff21B6321162AEA7C6CB457D5476Bca",
  "extraData": "0x476574682f76312e302e312d38326566323666362f6c696e75782f676f312e34",
  "transactions": [
    {
      "hash": "0x9a05b0ca8c2c07634883e169e78f4dcb18e02098ae77a1028db387a380722bfd",
      "blockHash": "0x69553fec4a9182b2c8979fbff478504084e65633a895a2a6ce69063896e0f87b",
      "blockNumber": 90288,
      "transactionIndex": 0,
      "confirmations": null,
      "from": "0x2910543Af39abA0Cd09dBb2D50200b3E800A63D2",
      "gasPrice": {
        "_hex": "0xcaaaa6846"
      },
      "gasLimit": {
        "_hex": "0x5208"
      },
      "to": "0x29DC22B481D07e23A7D44611d223E31D1e041334",
      "value": {
        "_hex": "0x2b5d1eb9d79a78000"
      },
      "nonce": 778,
      "data": "0x",
      "r": "0x77a1ff4da86b4bbcb04cfcba95cecace6838968e3dcca5645a7c3e96d1b8315a",
      "s": "0x71bf89bbea79a61561b6065a062de225ec487470ca45bae20ac551cb1992b5e2",
      "v": 27,
      "creates": null,
      "raw": "0xf86f82030a850caaaa68468252089429dc22b481d07e23a7d44611d223e31d1e0413348902b5d1eb9d79a78000801ba077a1ff4da86b4bbcb04cfcba95cecace6838968e3dcca5645a7c3e96d1b8315aa071bf89bbea79a61561b6065a062de225ec487470ca45bae20ac551cb1992b5e2",
      "networkId": 0,
      "chainId": 0
    }
  ]
}