{
  "hash": "0x4a3e152305f1a685e76205fe5623dbb8b94a1c8d765e27d8117815b95e04cef3",
  "parentHash": "0xe140d8f51a6d35340dacaf3dccd076bf02cafd253729f61fd3257e13004a070b",
  "number": 94232,
  "timestamp": 1439704799,
  "nonce": "0x529bac16658826ae",
  "difficulty": 3469761965134,
  "gasLimit": {
    "_hex": "0x2fefd8"
  },
  "gasUsed": {
    "_hex": "0x5208"
  },
  "miner": "0x0037ce3d4B7f8729C8607D8D0248252Be68202c0",
  "extraData": "0x476574682f76312e302e312f77696e646f77732f676f312e342e32",
  "transactions": [
    {
      "hash": "0x588d6c9ea40ccc24ada9370e9629d526ace9da37ae68977dc0e170536fde3926",
      "blockHash": "0x4a3e152305f1a685e76205fe5623dbb8b94a1c8d765e27d8117815b95e04cef3",
      "blockNumber": 94232,
      "transactionIndex": 0,
      "confirmations": null,
      "from": "0x0F7606315036EF870B5D92Cd9e52b8d4f771a7eA",
      "gasPrice": {
        "_hex": "0xd8364fc25"
      },
      "gasLimit": {
        "_hex": "0x15f90"
      },
      "to": "0x52F791EE5e11186Fc120EaB36Dd80277F6A630BB",
      "value": {
        "_hex": "0xde0b6b3a7640000"
      },
      "nonce": 0,
      "data": "0x",
      "r": "0x35a11bc1e8d213a987f12de248188bddb576fea98d4cc860a72594dfa078af88",
      "s": "0x0a9723942dbfc3992aad833b9d4fd75c8c3997ff30af4c554e9c9f35389e5cf5",
      "v": 28,
      "creates": null,
      "raw": "0xf86d80850d8364fc2583015f909452f791ee5e11186fc120eab36dd80277f6a630bb880de0b6b3a7640000801ca035a11bc1e8d213a987f12de248188bddb576fea98d4cc860a72594dfa078af88a00a9723942dbfc3992aad833b9d4fd75c8c3997ff30af4c554e9c9f35389e5cf5",
      "networkId": 0,
      "chainId": 0
    }
  ]
}