{
  "hash": "0xf69e56602e95e033d634a33735ab188bbe3c9d45e897bfad3786fbcb9c135717",
  "parentHash": "0x3893ea807e66d4e58bb1691e3a63fcabeffedf64823c7645f60513b24a20eec7",
  "number": 47072,
  "timestamp": 1438933919,
  "nonce": "0xd784813894f9cd96",
  "difficulty": 1454566379563,
  "gasLimit": {
    "_hex": "0x9445"
  },
  "gasUsed": {
    "_hex": "0x5208"
  },
  "miner": "0xeB1325C8D9d3ea8D74aC11F4B00F1B2367686319",
  "extraData": "0x476574682f76312e302e312f77696e646f77732f676f312e342e32",
  "transactions": [
    {
      "hash": "0xca69ece9c9467108a1cecc86156aa17a61c6dc8bcba3f3663db494240438b1a3",
      "blockHash": "0xf69e56602e95e033d634a33735ab188bbe3c9d45e897bfad3786fbcb9c135717",
      "blockNumber": 47072,
      "transactionIndex": 0,
      "confirmations": null,
      "from": "0xe6A7a1d47ff21B6321162AEA7C6CB457D5476Bca",
      "gasPrice": {
        "_hex": "0xe0c39c4e8"
      },
      "gasLimit": {
        "_hex": "0x5208"
      },
      "to": "0xB0f264dc10CE034cA560a614b1E044C1d91A3bAe",
      "value": {
        "_hex": "0x21f4abbe49777b48"
      },
      "nonce": 38,
      "data": "0x",
      "r": "0x68be109d8a149640e5602d1c8b5b00b6bd2e244ce4a81a6b92f2c7d3b5e71530",
      "s": "0x016e9cd19e14836b0af62ff908f1e27b2042888fd1fcea8e98247a41bdd21560",
      "v": 27,
      "creates": null,
      "raw": "0xf86c26850e0c39c4e882520894b0f264dc10ce034ca560a614b1e044c1d91a3bae8821f4abbe49777b48801ba068be109d8a149640e5602d1c8b5b00b6bd2e244ce4a81a6b92f2c7d3b5e71530a0016e9cd19e14836b0af62ff908f1e27b2042888fd1fcea8e98247a41bdd21560",
      "networkId": 0,
      "chainId": 0
    }
  ]
}