{
  "hash": "0x9c58985ac8edccf58e4130ebff32f09f2024c329eb0c5c602fe8e67afa657d7e",
  "parentHash": "0x0e6a4cb80222cfe3a0e0af519cfddcecd40285d67430c570fc15c8fdbc6316ef",
  "number": 99344,
  "timestamp": 1439788360,
  "nonce": "0xf51d86a914d0fb64",
  "difficulty": 3804749065607,
  "gasLimit": {
    "_hex": "0x2fefd8"
  },
  "gasUsed": {
    "_hex": "0x5208"
  },
  "miner": "0xe6A7a1d47ff21B6321162AEA7C6CB457D5476Bca",
  "extraData": "0x476574682f76312e302e312d38326566323666362f6c696e75782f676f312e34",
  "transactions": [
    {
      "hash": "0x569a6124371608c0a4923810bcc634c1b02b595474d24780437d79aab3ba8898",
      "blockHash": "0x9c58985ac8edccf58e4130ebff32f09f2024c329eb0c5c602fe8e67afa657d7e",
      "blockNumber": 99344,
      "transactionIndex": 0,
      "confirmations": null,
      "from": "0x40B9b889A21Ff1534d018D71Dc406122EBcf3F5A",
      "gasPrice": {
        "_hex": "0x11187410019"
      },
      "gasLimit": {
        "_hex": "0x15f90"
      },
      "to": "0x2f86ba8019945f39edE131D38d4d8780884DA553",
      "value": {
        "_hex": "0x6c6b935b8bbd400000"
      },
      "nonce": 45,
      "data": "0x",
      "r": "0x1aacfa534d62f6a67023e72db18f0b4e5dbc1092a26576ba0073ff05c8458ef2",
      "s": "0x13bc9f59eecade9f2241a50f7d7a1e69eb54d880cbfddde15e120e3a63dd9478",
      "v": 27,
      "creates": null,
      "raw": "0xf86f2d8601118741001983015f90942f86ba8019945f39ede131d38d4d8780884da553896c6b935b8bbd400000801ba01aacfa534d62f6a67023e72db18f0b4e5dbc1092a26576ba0073ff05c8458ef2a013bc9f59eecade9f2241a50f7d7a1e69eb54d880cbfddde15e120e3a63dd9478",
      "networkId": 0,
      "chainId": 0
    }
  ]
}