{
  "hash": "0x563d72910386d8c0aeeeb054d1cb1e921594803461fd0eb225e1583eb37de366",
  "parentHash": "0x3e21e13bd2ff0574582dc6f8e5b5791e1d36e24b6c93b7470c610e09e376557f",
  "number": 92406,
  "timestamp": 1439671474,
  "nonce": "0x7da3948c574c9991",
  "difficulty": 3518291652950,
  "gasLimit": {
    "_hex": "0x2fefd8"
  },
  "gasUsed": {
    "_hex": "0xafa7"
  },
  "miner": "0xe6A7a1d47ff21B6321162AEA7C6CB457D5476Bca",
  "extraData": "0x476574682f76312e302e312d38326566323666362f6c696e75782f676f312e34",
  "transactions": [
    {
      "hash": "0xa11143efff0e8b868b485c3d135fba029598d75f1c6943591f4bdf1985a872ef",
      "blockHash": "0x563d72910386d8c0aeeeb054d1cb1e921594803461fd0eb225e1583eb37de366",
      "blockNumber": 92406,
      "transactionIndex": 0,
      "confirmations": null,
      "from": "0x71744De37e18561C508082EA27aee707190C429b",
      "gasPrice": {
        "_hex": "0xd8364fc25"
      },
      "gasLimit": {
        "_hex": "0x15f90"
      },
      "to": "0x40D992204baF2ae5adEa86071c68eb9aFfbc725b",
      "value": {
        "_hex": "0x2386f26fc10000"
      },
      "nonce": 0,
      "data": "0x",
      "r": "0x60ac15a59e4be5005c43e7023a1c7e6e7fe03800984727c2cbc88f60352f70aa",
      "s": "0x06fb0634f6981f714942d9882559fec962c4ba3064b6a84320abc9014ef77928",
      "v": 28,
      "creates": null,
      "raw": "0xf86c80850d8364fc2583015f909440d992204baf2ae5adea86071c68eb9affbc725b872386f26fc10000801ca060ac15a59e4be5005c43e7023a1c7e6e7fe03800984727c2cbc88f60352f70aaa006fb0634f6981f714942d9882559fec962c4ba3064b6a84320abc9014ef77928",
      "networkId": 0,
      "chainId": 0
    },
    {
      "hash": "0xef8a9e1a2372434baabfc6522a1e4e339e575fff9c05b8df677504baf9d640ee",
      "blockHash": "0x563d72910386d8c0aeeeb054d1cb1e921594803461fd0eb225e1583eb37de366",
      "blockNumber": 92406,
      "transactionIndex": 1,
      "confirmations": null,
      "from": "0xDf660a91Dab9F730f6190D50c8390561500756Ca",
      "gasPrice": {
        "_hex": "0xd120d7864"
      },
      "gasLimit": {
        "_hex": "0x15f90"
      },
      "to": "0xCAc7000C7dBaa2E33Af15325AF5D435E011C7BdD",
      "value": {
        "_hex": "0x6c6b6fd4994d7f0000"
      },
      "nonce": 0,
      "data": "0xb214faa550533234324a5933550000000000000000000000000000000000000000000000",
      "r": "0xad2294d583839f24183272cc5888437cda5363b21c79b5660389b3b64197f9d1",
      "s": "0x2736f9541072c02006a25031ca51ead087a71cac053d66afa5bd1c66df787bd1",
      "v": 27,
      "creates": null,
      "raw": "0xf89280850d120d786483015f9094cac7000c7dbaa2e33af15325af5d435e011c7bdd896c6b6fd4994d7f0000a4b214faa550533234324a59335500000000000000000000000000000000000000000000001ba0ad2294d583839f24183272cc5888437cda5363b21c79b5660389b3b64197f9d1a02736f9541072c02006a25031ca51ead087a71cac053d66afa5bd1c66df787bd1",
      "networkId": 0,
      "chainId": 0
    }
  ]
}