{
  "hash": "0xf28ae87b56ffed229538f941cde75f649813d38566d16ac09ba50a7879f2a62e",
  "parentHash": "0x2855f5df4366a2e4e6de4c0a5993350c0a5d2b1ed20477df60a84502a3fa5611",
  "number": 83141,
  "timestamp": 1439530815,
  "nonce": "0x5264be470b3a6fa4",
  "difficulty": 2407788993410,
  "gasLimit": {
    "_hex": "0x2fefd8"
  },
  "gasUsed": {
    "_hex": "0xf618"
  },
  "miner": "0x88D74a59454F6cF3B51ef6b9136AFb6b9D405A88",
  "extraData": "0x476574682f76312e302e312d38326566323666362f6c696e75782f676f312e34",
  "transactions": [
    {
      "hash": "0x62166843c765f5c9aa4215c89fe8023d5e85a0a65e7555cd8fdb042ee554e2b4",
      "blockHash": "0xf28ae87b56ffed229538f941cde75f649813d38566d16ac09ba50a7879f2a62e",
      "blockNumber": 83141,
      "transactionIndex": 0,
      "confirmations": null,
      "from": "0xa70a9a7040d542C632D8e0bE7c5513A8a5Bbc752",
      "gasPrice": {
        "_hex": "0xdf89acd80"
      },
      "gasLimit": {
        "_hex": "0x5208"
      },
      "to": "0x32Be343B94f860124dC4fEe278FDCBD38C102D88",
      "value": {
        "_hex": "0x45846523ce2ab400"
      },
      "nonce": 70,
      "data": "0x",
      "r": "0xa28e7eec716e49e424eaeea480a6b1989de2bf9503212f07cfee948f03d5969a",
      "s": "0x512834cbc73150dc486642856b4b576d943512b6b1aa319b105b70ccdc4c3120",
      "v": 28,
      "creates": null,
      "raw": "0xf86c46850df89acd808252089432be343b94f860124dc4fee278fdcbd38c102d888845846523ce2ab400801ca0a28e7eec716e49e424eaeea480a6b1989de2bf9503212f07cfee948f03d5969aa0512834cbc73150dc486642856b4b576d943512b6b1aa319b105b70ccdc4c3120",
      "networkId": 0,
      "chainId": 0
    },
    {
      "hash": "0xc34ce9af2b37f33f5af9e857293d3b9ff1e9781d2ce55bd348c55a8b78217d4b",
      "blockHash": "0xf28ae87b56ffed229538f941cde75f649813d38566d16ac09ba50a7879f2a62e",
      "blockNumber": 83141,
      "transactionIndex": 1,
      "confirmations": null,
      "from": "0x1527fcd698B3A8707bb745F80ab114FfF3Db35E2",
      "gasPrice": {
        "_hex": "0xdf89acd80"
      },
      "gasLimit": {
        "_hex": "0x5208"
      },
      "to": "0x32Be343B94f860124dC4fEe278FDCBD38C102D88",
      "value": {
        "_hex": "0xe4343fc18f2f400"
      },
      "nonce": 5,
      "data": "0x",
      "r": "0xbece3a04ae68b18c88bf7e289389c78c12b9fa29bb2cbb0425e4401350937d64",
      "s": "0x0e9bc780d71e16536b7a9483d4b5f0c3da0d28f31212c00ee0f0470b57126a4f",
      "v": 27,
      "creates": null,
      "raw": "0xf86c05850df89acd808252089432be343b94f860124dc4fee278fdcbd38c102d88880e4343fc18f2f400801ba0bece3a04ae68b18c88bf7e289389c78c12b9fa29bb2cbb0425e4401350937d64a00e9bc780d71e16536b7a9483d4b5f0c3da0d28f31212c00ee0f0470b57126a4f",
      "networkId": 0,
      "chainId": 0
    },
    {
      "hash": "0x01de16a8668e37e3bf35e36bafd34785ddaa0eec7572e86f34a0b882242cfe91",
      "blockHash": "0xf28ae87b56ffed229538f941cde75f649813d38566d16ac09ba50a7879f2a62e",
      "blockNumber": 83141,
      "transactionIndex": 2,
      "confirmations": null,
      "from": "0xB6E50cCE61484289924ffb2629ea923272af1Ac1",
      "gasPrice": {
        "_hex": "0xba43b7400"
      },
      "gasLimit": {
        "_hex": "0x5208"
      },
      "to": "0xC47Aaa860008be6f65B58c6C6E02a84e666EfE31",
      "value": {
        "_hex": "0x1dda469459e241dc0"
      },
      "nonce": 0,
      "data": "0x",
      "r": "0xebfd95ff998ab142322fa3aa668f19dcd2f7419b74ee45f90874fef514b6bde3",
      "s": "0x1c5e0c2bd0b10e55c4cf7a098495820bd26286ccfac980fe3d9992384f6809d1",
      "v": 28,
      "creates": null,
      "raw": "0xf86d80850ba43b740082520894c47aaa860008be6f65b58c6c6e02a84e666efe318901dda469459e241dc0801ca0ebfd95ff998ab142322fa3aa668f19dcd2f7419b74ee45f90874fef514b6bde3a01c5e0c2bd0b10e55c4cf7a098495820bd26286ccfac980fe3d9992384f6809d1",
      "networkId": 0,
      "chainId": 0
    }
  ]
}