{
  "hash": "0xcb429ddf035cc03ba6709bbc04b34e5d6f6758f3ab52a879ddb1b170549fe50b",
  "parentHash": "0x8bb2f85d3de6ee9f52fe409905f9234ef827b5931b6093e60e4d9bbb481a8aca",
  "number": 95008,
  "timestamp": 1439717586,
  "nonce": "0xb6bd16277dd7a29f",
  "difficulty": 3506911289562,
  "gasLimit": {
    "_hex": "0x2fefd8"
  },
  "gasUsed": {
    "_hex": "0x5208"
  },
  "miner": "0xeB1325C8D9d3ea8D74aC11F4B00F1B2367686319",
  "extraData": "0x",
  "transactions": [
    {
      "hash": "0xd5d7ead0bf1fdfd1e15072ab0be8082cfd73fb8d7c952a247c26cf01b8fdab3d",
      "blockHash": "0xcb429ddf035cc03ba6709bbc04b34e5d6f6758f3ab52a879ddb1b170549fe50b",
      "blockNumber": 95008,
      "transactionIndex": 0,
      "confirmations": null,
      "from": "0x52292dB8B133f37fDA9D9F4E996A3140b41E7634",
      "gasPrice": {
        "_hex": "0xd7d40ace3"
      },
      "gasLimit": {
        "_hex": "0x15f90"
      },
      "to": "0x23f2D0fd3B4C98Fb1698564deB4898275E2e831f",
      "value": {
        "_hex": "0x29a2241af62c0000"
      },
      "nonce": 0,
      "data": "0x",
      "r": "0xf4d4878cd20998c37de25bd029ceef664918ae27601cbbb4f1336017646a958d",
      "s": "0x708d2345ee9d7a8038c2dac8d0baf92bace0c58babb15c750936bc0813c234fd",
      "v": 28,
      "creates": null,
      "raw": "0xf86d80850d7d40ace383015f909423f2d0fd3b4c98fb1698564deb4898275e2e831f8829a2241af62c0000801ca0f4d4878cd20998c37de25bd029ceef664918ae27601cbbb4f1336017646a958da0708d2345ee9d7a8038c2dac8d0baf92bace0c58babb15c750936bc0813c234fd",
      "networkId": 0,
      "chainId": 0
    }
  ]
}