{
  "hash": "0x07b5501a0c2c319d50321be9cc9265dacbe1338329a046c5a631a1f73a737f16",
  "parentHash": "0x7afaf14fa8078b416e5dca0c9cad24c73266199ac9297fa64ea58014b1e4f318",
  "number": 55268,
  "timestamp": 1439067907,
  "nonce": "0x8d9302497104fe7c",
  "difficulty": 1638609461450,
  "gasLimit": {
    "_hex": "0x2fe99b"
  },
  "gasUsed": {
    "_hex": "0x546c"
  },
  "miner": "0x354DF79c1A79065d127852d3FeC17D8Ad69dae28",
  "extraData": "0x476574682f76312e302e302d30636463373634372f6c696e75782f676f312e34",
  "transactions": [
    {
      "hash": "0x6b06b62714c99c4b4d13ab6175135438b990da4871b54a88b8eab44e9bc97166",
      "blockHash": "0x07b5501a0c2c319d50321be9cc9265dacbe1338329a046c5a631a1f73a737f16",
      "blockNumber": 55268,
      "transactionIndex": 0,
      "confirmations": null,
      "from": "0x08C802F87758349fa03e6bc2e2fD0791197EEA9a",
      "gasPrice": {
        "_hex": "0x110c8f7d8de"
      },
      "gasLimit": {
        "_hex": "0xc350"
      },
      "to": "0x2910543Af39abA0Cd09dBb2D50200b3E800A63D2",
      "value": {
        "_hex": "0x6c6ac33d38259b20a0"
      },
      "nonce": 0,
      "data": "0x454e524b4b38524b38",
      "r": "0x8ab6976ff5be9c23ebfa77c6fea44f6d8adc5d83e259c99acb2a0b045cd3f945",
      "s": "0x39bd104116ac2d626f5906feac944d65d911f9397dd79c5d547307aef6be4013",
      "v": 27,
      "creates": null,
      "raw": "0xf87780860110c8f7d8de82c350942910543af39aba0cd09dbb2d50200b3e800a63d2896c6ac33d38259b20a089454e524b4b38524b381ba08ab6976ff5be9c23ebfa77c6fea44f6d8adc5d83e259c99acb2a0b045cd3f945a039bd104116ac2d626f5906feac944d65d911f9397dd79c5d547307aef6be4013",
      "networkId": 0,
      "chainId": 0
    }
  ]
}