{
  "hash": "0x36e5187b899eedb11f146960bb7959efe837ba18cf92b5a0f9298c74e862ecbb",
  "parentHash": "0x9703cb26c5e15b04f63934b43424c24c397f689d2e10f36ce4db1d4c19b918f9",
  "number": 86533,
  "timestamp": 1439579599,
  "nonce": "0xdd14bf3fa7aef2cd",
  "difficulty": 2897509074330,
  "gasLimit": {
    "_hex": "0x2fefd8"
  },
  "gasUsed": {
    "_hex": "0xf618"
  },
  "miner": "0xe6A7a1d47ff21B6321162AEA7C6CB457D5476Bca",
  "extraData": "0x476574682f76312e302e312d38326566323666362f6c696e75782f676f312e34",
  "transactions": [
    {
      "hash": "0xca897f16814f7f60a250e95eeb2648ad55d49911413db18fb6d57ea01aec4ed3",
      "blockHash": "0x36e5187b899eedb11f146960bb7959efe837ba18cf92b5a0f9298c74e862ecbb",
      "blockNumber": 86533,
      "transactionIndex": 0,
      "confirmations": null,
      "from": "0x3979Be329bFC1Ee0f34A038661aDB14Fc1777805",
      "gasPrice": {
        "_hex": "0xdd5814131"
      },
      "gasLimit": {
        "_hex": "0x5208"
      },
      "to": "0x32Be343B94f860124dC4fEe278FDCBD38C102D88",
      "value": {
        "_hex": "0xcd5fbac3a4434000"
      },
      "nonce": 0,
      "data": "0x",
      "r": "0xc564689ba01739370ac6d2eca3c688b35bcddaf4dc2c98ad44ef1b2ff5a4431f",
      "s": "0x0e179cd8621a0964752f0a3dcaddf500171352a51a222761a83ba71487394d02",
      "v": 28,
      "creates": null,
      "raw": "0xf86c80850dd58141318252089432be343b94f860124dc4fee278fdcbd38c102d8888cd5fbac3a4434000801ca0c564689ba01739370ac6d2eca3c688b35bcddaf4dc2c98ad44ef1b2ff5a4431fa00e179cd8621a0964752f0a3dcaddf500171352a51a222761a83ba71487394d02",
      "networkId": 0,
      "chainId": 0
    },
    {
      "hash": "0x62516aed159e870e69a41d2cd7e02124166214f34405c6e3d93d522230b7585d",
      "blockHash": "0x36e5187b899eedb11f146960bb7959efe837ba18cf92b5a0f9298c74e862ecbb",
      "blockNumber": 86533,
      "transactionIndex": 1,
      "confirmations": null,
      "from": "0x151145F7F490268407b4eDafE018b117c1b321f1",
      "gasPrice": {
        "_hex": "0xdd5814131"
      },
      "gasLimit": {
        "_hex": "0x5208"
      },
      "to": "0x32Be343B94f860124dC4fEe278FDCBD38C102D88",
      "value": {
        "_hex": "0x222c47c6d86df4000"
      },
      "nonce": 1,
      "data": "0x",
      "r": "0x986481f663fd2b78b0abadbef004716caf1a10f227b0069e4e6b960f961ba8ab",
      "s": "0x046d5da10af0b59a5ecb4c7cca851af8bf7e76a5760cb625d18040f94d66de26",
      "v": 27,
      "creates": null,
      "raw": "0xf86d01850dd58141318252089432be343b94f860124dc4fee278fdcbd38c102d88890222c47c6d86df4000801ba0986481f663fd2b78b0abadbef004716caf1a10f227b0069e4e6b960f961ba8aba0046d5da10af0b59a5ecb4c7cca851af8bf7e76a5760cb625d18040f94d66de26",
      "networkId": 0,
      "chainId": 0
    },
    {
      "hash": "0x8b4e15a41732d52db9a439ca2b8cd85f0d7d152ed016a762c984e7ec430e9a87",
      "blockHash": "0x36e5187b899eedb11f146960bb7959efe837ba18cf92b5a0f9298c74e862ecbb",
      "blockNumber": 86533,
      "transactionIndex": 2,
      "confirmations": null,
      "from": "0xC3fe64D1af00F0d9c324E4387EF7533f7D788e95",
      "gasPrice": {
        "_hex": "0xdd5814131"
      },
      "gasLimit": {
        "_hex": "0x5208"
      },
      "to": "0x32Be343B94f860124dC4fEe278FDCBD38C102D88",
      "value": {
        "_hex": "0x3b10f535f786d8000"
      },
      "nonce": 10,
      "data": "0x",
      "r": "0xe6f37b2ad9e7d1b90cbde4a1618c8b6670abf7b0329b8fb3a9291a06c1b2c55a",
      "s": "0x2458917878e7413a351f696528b736e811a0c83b02aacb10169cbf23d73faa5a",
      "v": 28,
      "creates": null,
      "raw": "0xf86d0a850dd58141318252089432be343b94f860124dc4fee278fdcbd38c102d888903b10f535f786d8000801ca0e6f37b2ad9e7d1b90cbde4a1618c8b6670abf7b0329b8fb3a9291a06c1b2c55aa02458917878e7413a351f696528b736e811a0c83b02aacb10169cbf23d73faa5a",
      "networkId": 0,
      "chainId": 0
    }
  ]
}