{
  "hash": "0x1fef70c6a473d3faf84dc149592e549e3c203cf1c2f37b2599ec3fd1c3deab4e",
  "parentHash": "0x21556381f6a3dd924c27214c49ae201ab540dfa09e79eb80b2bf7e1a217ff776",
  "number": 51991,
  "timestamp": 1439014314,
  "nonce": "0x233b13edd821b34e",
  "difficulty": 1560368843644,
  "gasLimit": {
    "_hex": "0xf8a44"
  },
  "gasUsed": {
    "_hex": "0x7f328"
  },
  "miner": "0x400fb5A6482E54E44b2250E75251707514c605C1",
  "extraData": "0x476574682f76312e302e312f77696e646f77732f676f312e342e32",
  "transactions": [
    {
      "hash": "0xc85ae864f7e9510693ddb9c4fc68547f504ec7c6c90aafbcdf9cf59369b1c49f",
      "blockHash": "0x1fef70c6a473d3faf84dc149592e549e3c203cf1c2f37b2599ec3fd1c3deab4e",
      "blockNumber": 51991,
      "transactionIndex": 0,
      "confirmations": null,
      "from": "0x47ff6576639c2e94762eA5443978D7681C0E78DC",
      "gasPrice": {
        "_hex": "0xda2473de9"
      },
      "gasLimit": {
        "_hex": "0x7a120"
      },
      "to": "0xBAA54d6E90c3F4d7Ebec11bD180134C7eD8eBb52",
      "value": {
        "_hex": "0x16345785d8a0000"
      },
      "nonce": 4,
      "data": "0x",
      "r": "0x9b6aa7e5881d8eccb1a2d6e91443301668e3fc78b2702b854f8c1a8e0a750b7c",
      "s": "0x33aa0eaf973c6cd17ab4ae4ebb321cf8975e3fee9af4332af09e871e85916ac2",
      "v": 27,
      "creates": null,
      "raw": "0xf86d04850da2473de98307a12094baa54d6e90c3f4d7ebec11bd180134c7ed8ebb5288016345785d8a0000801ba09b6aa7e5881d8eccb1a2d6e91443301668e3fc78b2702b854f8c1a8e0a750b7ca033aa0eaf973c6cd17ab4ae4ebb321cf8975e3fee9af4332af09e871e85916ac2",
      "networkId": 0,
      "chainId": 0
    },
    {
      "hash": "0x5d4d1defdaa3ca64c99ff19862962167097ab1ebee5db01bc9667e8314a760f6",
      "blockHash": "0x1fef70c6a473d3faf84dc149592e549e3c203cf1c2f37b2599ec3fd1c3deab4e",
      "blockNumber": 51991,
      "transactionIndex": 1,
      "confirmations": null,
      "from": "0xCA092A957744f6385B1aee5dC694143E8A06F805",
      "gasPrice": {
        "_hex": "0xd540524f0"
      },
      "gasLimit": {
        "_hex": "0x15f90"
      },
      "to": "0x8078bf560A1A5De1af089a72B20F9F0710FCa9DA",
      "value": {
        "_hex": "0x3dcc416fcd0e000"
      },
      "nonce": 8,
      "data": "0x",
      "r": "0x0e1f39efde4df572d1a8e9195d0600bf7c32f3466ba83b4cc4907bee8b9e90d9",
      "s": "0x41c22d149db9e3c667f14d4bcca80fa3b8307f1b0814c697daeeb6f77b222358",
      "v": 28,
      "creates": null,
      "raw": "0xf86d08850d540524f083015f90948078bf560a1a5de1af089a72b20f9f0710fca9da8803dcc416fcd0e000801ca00e1f39efde4df572d1a8e9195d0600bf7c32f3466ba83b4cc4907bee8b9e90d9a041c22d149db9e3c667f14d4bcca80fa3b8307f1b0814c697daeeb6f77b222358",
      "networkId": 0,
      "chainId": 0
    }
  ]
}