{
  "hash": "0x582332accb82b10f8b448cc7560dea53b7e8a1a04545f2f6697a7975fb2c9d92",
  "parentHash": "0xf015b0336792d21632a0e148a3f9552278a7386ca5830a2dd6437e9f5176a655",
  "number": 72121,
  "timestamp": 1439347613,
  "nonce": "0x9a38ffa5a81d3167",
  "difficulty": 2171743686559,
  "gasLimit": {
    "_hex": "0x2fefd8"
  },
  "gasUsed": {
    "_hex": "0x5208"
  },
  "miner": "0xf8E0CA3Ed80bd541b94BEdCf259e8CF2141A9523",
  "extraData": "0x476574682f76312e302e312f77696e646f77732f676f312e342e32",
  "transactions": [
    {
      "hash": "0xcfcd0ff47d1367a38345f6edad456a97ae6f3eba06b4b6df6da807226f760a27",
      "blockHash": "0x582332accb82b10f8b448cc7560dea53b7e8a1a04545f2f6697a7975fb2c9d92",
      "blockNumber": 72121,
      "transactionIndex": 0,
      "confirmations": null,
      "from": "0xC4E15a24b5f80FCeBC7104b922B1baF37FdD708B",
      "gasPrice": {
        "_hex": "0xe190d50a7"
      },
      "gasLimit": {
        "_hex": "0x5208"
      },
      "to": "0x3FEFA8C1e27b90BD417C1E60C15a4C0cFf6f2562",
      "value": {
        "_hex": "0x22b1c8c1227a00000"
      },
      "nonce": 2,
      "data": "0x",
      "r": "0x2f4f68abb28468dc319b8420640996b2b77d4f870e5b2458f9d5482cb4988f85",
      "s": "0x3bee6bf63ddf8c89f04b6a6796fa1efacc1237faffa73ced44d32b884c6efafa",
      "v": 27,
      "creates": null,
      "raw": "0xf86d02850e190d50a7825208943fefa8c1e27b90bd417c1e60c15a4c0cff6f256289022b1c8c1227a00000801ba02f4f68abb28468dc319b8420640996b2b77d4f870e5b2458f9d5482cb4988f85a03bee6bf63ddf8c89f04b6a6796fa1efacc1237faffa73ced44d32b884c6efafa",
      "networkId": 0,
      "chainId": 0
    }
  ]
}