{
  "hash": "0x65f5408c1fc7d88b7be3c4e4a1d6b60afe92862c770e077cea5fa29b2287ddf2",
  "parentHash": "0x5a46e152bea11e836fb14704b8e4d2f841510dad3181c616f3395ba77adb2c5b",
  "number": 47362,
  "timestamp": 1438938903,
  "nonce": "0x8fcee9f6af291c3c",
  "difficulty": 1454516095054,
  "gasLimit": {
    "_hex": "0xb520"
  },
  "gasUsed": {
    "_hex": "0x5208"
  },
  "miner": "0xf8E0CA3Ed80bd541b94BEdCf259e8CF2141A9523",
  "extraData": "0x476574682f76312e302e312f77696e646f77732f676f312e342e32",
  "transactions": [
    {
      "hash": "0x9f9549493347c11fcb4050dd7c3ed2061515e6ddab462c640688e1521aeeca0c",
      "blockHash": "0x65f5408c1fc7d88b7be3c4e4a1d6b60afe92862c770e077cea5fa29b2287ddf2",
      "blockNumber": 47362,
      "transactionIndex": 0,
      "confirmations": null,
      "from": "0xc3cb6B36Af443F2C6e258B4a39553a818747811F",
      "gasPrice": {
        "_hex": "0x14b83fcb35"
      },
      "gasLimit": {
        "_hex": "0x5208"
      },
      "to": "0x655Ce0C27E77D78C7e3e89F09EA6dfa394610b5f",
      "value": {
        "_hex": "0x2b5e3af16b1880000"
      },
      "nonce": 1,
      "data": "0x",
      "r": "0x851b0ba360ff1d587f15c4651aa5cb83916d3f567bf27cc43f3535279e996727",
      "s": "0x75aa7fd7ffcfe046b2eda4770a08f46186f6e45c0ac7b36e885da8c7fdf7d2b7",
      "v": 28,
      "creates": null,
      "raw": "0xf86d018514b83fcb3582520894655ce0c27e77d78c7e3e89f09ea6dfa394610b5f8902b5e3af16b1880000801ca0851b0ba360ff1d587f15c4651aa5cb83916d3f567bf27cc43f3535279e996727a075aa7fd7ffcfe046b2eda4770a08f46186f6e45c0ac7b36e885da8c7fdf7d2b7",
      "networkId": 0,
      "chainId": 0
    }
  ]
}