{
  "hash": "0x0eec26df936ef7ae5cafe08e805623e08304a066f2b5a4db5f4fcd62192ebf26",
  "parentHash": "0x08b9282ada2a9bf2b00dcbb1fd5c34136fefc6327f2f7f867a348df81a2fe99d",
  "number": 64831,
  "timestamp": 1439226893,
  "nonce": "0x95c97b22ec1c72a8",
  "difficulty": 1903295604690,
  "gasLimit": {
    "_hex": "0x2fefd8"
  },
  "gasUsed": {
    "_hex": "0xa410"
  },
  "miner": "0xfFcD9CAE6d9f54fd8ae05296F839892677ff6EaA",
  "extraData": "0x",
  "transactions": [
    {
      "hash": "0x30f5de12669ad16a8170dd8197fba5300f64283f39cbfd9848b2e7ba1ce176bd",
      "blockHash": "0x0eec26df936ef7ae5cafe08e805623e08304a066f2b5a4db5f4fcd62192ebf26",
      "blockNumber": 64831,
      "transactionIndex": 0,
      "confirmations": null,
      "from": "0xd97997245B08eB1176F4f99100e0Ad3cC001df91",
      "gasPrice": {
        "_hex": "0xba43b7400"
      },
      "gasLimit": {
        "_hex": "0x5208"
      },
      "to": "0xB17D00436E59C378eaB32004CCE6c0f365d26823",
      "value": {
        "_hex": "0x21cd1d4f5270000"
      },
      "nonce": 1,
      "data": "0x",
      "r": "0x7f30120841a4b39be9c0c76feb5accf178ac73dcf0ddf7776d56dda51edfda53",
      "s": "0x757c2408476d384689ee2b7b61c2b055d6d9eefce7851133d5e1bd0bedeff8fa",
      "v": 28,
      "creates": null,
      "raw": "0xf86c01850ba43b740082520894b17d00436e59c378eab32004cce6c0f365d2682388021cd1d4f5270000801ca07f30120841a4b39be9c0c76feb5accf178ac73dcf0ddf7776d56dda51edfda53a0757c2408476d384689ee2b7b61c2b055d6d9eefce7851133d5e1bd0bedeff8fa",
      "networkId": 0,
      "chainId": 0
    },
    {
      "hash": "0xc0379dfff4bf8652a12926b693b42ee4ea4630576fe7abef68326c1323ea8d40",
      "blockHash": "0x0eec26df936ef7ae5cafe08e805623e08304a066f2b5a4db5f4fcd62192ebf26",
      "blockNumber": 64831,
      "transactionIndex": 1,
      "confirmations": null,
      "from": "0x4a64F7FB0c7Bae13c04e09801071184333ce52Be",
      "gasPrice": {
        "_hex": "0xba43b7400"
      },
      "gasLimit": {
        "_hex": "0x5208"
      },
      "to": "0xd9ef4d6239619f5F64A0b911C830Db5454BC80d0",
      "value": {
        "_hex": "0x1ee8b7b42062000"
      },
      "nonce": 1,
      "data": "0x",
      "r": "0x86807317a4dfa46e80df7c22ebfdd4edfc698d34870730877825004663e4a764",
      "s": "0x5fdc7b301d7c1e2e0b2c5ee582a3f07252f207b31d82e826cc280c5ca451251e",
      "v": 27,
      "creates": null,
      "raw": "0xf86c01850ba43b740082520894d9ef4d6239619f5f64a0b911c830db5454bc80d08801ee8b7b42062000801ba086807317a4dfa46e80df7c22ebfdd4edfc698d34870730877825004663e4a764a05fdc7b301d7c1e2e0b2c5ee582a3f07252f207b31d82e826cc280c5ca451251e",
      "networkId": 0,
      "chainId": 0
    }
  ]
}