{
  "hash": "0xd7e573b0df6624f1725f46c81d58bef3047ac4e5f37beef4ce485f3932881d83",
  "parentHash": "0xeb9a40a6aadd76516e98e76ae76c30ecc7b852c05bac50d60c31d21e8321a8c0",
  "number": 47692,
  "timestamp": 1438944815,
  "nonce": "0x583a068cdde95639",
  "difficulty": 1444550192269,
  "gasLimit": {
    "_hex": "0xe531"
  },
  "gasUsed": {
    "_hex": "0x546c"
  },
  "miner": "0x684a7b7c096606d1dE0bDDBB85d6E289B882dCEA",
  "extraData": "0xda8098302e392e33392b2b302d524c696e75782f672b2b2f696e74",
  "transactions": [
    {
      "hash": "0xf8b4e7101d33b9982d1166de4f24f4e3d62954601360f07ae91588d1512d5e38",
      "blockHash": "0xd7e573b0df6624f1725f46c81d58bef3047ac4e5f37beef4ce485f3932881d83",
      "blockNumber": 47692,
      "transactionIndex": 0,
      "confirmations": null,
      "from": "0xD79aFf13Ba2Da75d46240cAC0a2467C656949823",
      "gasPrice": {
        "_hex": "0x746a528800"
      },
      "gasLimit": {
        "_hex": "0xc350"
      },
      "to": "0x2910543Af39abA0Cd09dBb2D50200b3E800A63D2",
      "value": {
        "_hex": "0x1b1ae4d6e2ef500000"
      },
      "nonce": 3,
      "data": "0x454e42443831485552",
      "r": "0xad3415b7471ab15f106f926e215728613dd62d0004995383693064b278afda5b",
      "s": "0x62103808a700523a69679d91443c27172c62d06218ce29a38391f8f0cfc4e058",
      "v": 27,
      "creates": null,
      "raw": "0xf8760385746a52880082c350942910543af39aba0cd09dbb2d50200b3e800a63d2891b1ae4d6e2ef50000089454e424438314855521ba0ad3415b7471ab15f106f926e215728613dd62d0004995383693064b278afda5ba062103808a700523a69679d91443c27172c62d06218ce29a38391f8f0cfc4e058",
      "networkId": 0,
      "chainId": 0
    }
  ]
}