{
  "hash": "0x676ddd560fa621accfa086367bc4dd3224b0a3d28e2463ee7c26d49f961dfcb5",
  "parentHash": "0x297df2032ab2c06c315757e83c7e75a23ce1858c854d4f9c91cf8ae8fad5ed7a",
  "number": 82368,
  "timestamp": 1439518193,
  "nonce": "0x215b61e36f33ccda",
  "difficulty": 2371835967627,
  "gasLimit": {
    "_hex": "0x2fefd8"
  },
  "gasUsed": {
    "_hex": "0x5208"
  },
  "miner": "0xc2E9e042B88164B5408bd895Df7DdaD491c6321E",
  "extraData": "0x",
  "transactions": [
    {
      "hash": "0x53df1d5faf8650cdb56c330d68b0abc9d8a17a7017bd1616f87f650cef3345b1",
      "blockHash": "0x676ddd560fa621accfa086367bc4dd3224b0a3d28e2463ee7c26d49f961dfcb5",
      "blockNumber": 82368,
      "transactionIndex": 0,
      "confirmations": null,
      "from": "0x1217627fe41A00f0b828317F43E6d58F47dBfc43",
      "gasPrice": {
        "_hex": "0x1102457588d"
      },
      "gasLimit": {
        "_hex": "0x15f90"
      },
      "to": "0x151e1b655BC131b5aCf57Df4C4193029a2Af43bE",
      "value": {
        "_hex": "0xd55ef90a2da180000"
      },
      "nonce": 3,
      "data": "0x",
      "r": "0xa3bf5e17358fcd8ee58b48afa71986a9a398658dcd70197f89ca54ecd3361f51",
      "s": "0x40f0a8cca97fd6730d5d3f5e49c63f00dd5e54ae47ac9481458adbaa633fd817",
      "v": 27,
      "creates": null,
      "raw": "0xf86f038601102457588d83015f9094151e1b655bc131b5acf57df4c4193029a2af43be890d55ef90a2da180000801ba0a3bf5e17358fcd8ee58b48afa71986a9a398658dcd70197f89ca54ecd3361f51a040f0a8cca97fd6730d5d3f5e49c63f00dd5e54ae47ac9481458adbaa633fd817",
      "networkId": 0,
      "chainId": 0
    }
  ]
}