{
  "hash": "0xdba672cbc3598f9c8d80b76ae1b32b16c90f54e6025174c1e594e8335da77df5",
  "parentHash": "0x9b32a448f1d24ccf489c4d99f463058682e5bc43e7a1e66b6e954b777f2969a5",
  "number": 99899,
  "timestamp": 1439797336,
  "nonce": "0x9768e73a999d1f76",
  "difficulty": 3851223583116,
  "gasLimit": {
    "_hex": "0x2fefd8"
  },
  "gasUsed": {
    "_hex": "0x5208"
  },
  "miner": "0xe6A7a1d47ff21B6321162AEA7C6CB457D5476Bca",
  "extraData": "0x476574682f76312e302e312d38326566323666362f6c696e75782f676f312e34",
  "transactions": [
    {
      "hash": "0xd90c3024d2695691062c73a5b0874000ca9b7915981ddb5fe4e8afde5ec48433",
      "blockHash": "0xdba672cbc3598f9c8d80b76ae1b32b16c90f54e6025174c1e594e8335da77df5",
      "blockNumber": 99899,
      "transactionIndex": 0,
      "confirmations": null,
      "from": "0xb1abce2918E21ddb93AA452731a12672A3d9F75a",
      "gasPrice": {
        "_hex": "0xd88c5445c"
      },
      "gasLimit": {
        "_hex": "0x5208"
      },
      "to": "0x32Be343B94f860124dC4fEe278FDCBD38C102D88",
      "value": {
        "_hex": "0x8ac2ccc9d7fb8000"
      },
      "nonce": 74,
      "data": "0x",
      "r": "0x43ae8b6c758faa3471b797932d4824c7d7a634589c167088098fbf045eb7f793",
      "s": "0x40b3369cf277bd13dffa60e45fe129375a719c5b289cbd768419aab45e44858f",
      "v": 27,
      "creates": null,
      "raw": "0xf86c4a850d88c5445c8252089432be343b94f860124dc4fee278fdcbd38c102d88888ac2ccc9d7fb8000801ba043ae8b6c758faa3471b797932d4824c7d7a634589c167088098fbf045eb7f793a040b3369cf277bd13dffa60e45fe129375a719c5b289cbd768419aab45e44858f",
      "networkId": 0,
      "chainId": 0
    }
  ]
}