{
  "hash": "0x4915da9574d6c48b1d23336253868552e16e414bc9911a2268df6a1f946027ea",
  "parentHash": "0x5f609a5e5f1d37d985b4a11c11a3b3e2f92bd7bf59e24548d4db261b04af1b08",
  "number": 84625,
  "timestamp": 1439552292,
  "nonce": "0xc58cca5a023f2063",
  "difficulty": 2587772896796,
  "gasLimit": {
    "_hex": "0x2fefd8"
  },
  "gasUsed": {
    "_hex": "0xa410"
  },
  "miner": "0xe6A7a1d47ff21B6321162AEA7C6CB457D5476Bca",
  "extraData": "0x476574682f76312e302e312d38326566323666362f6c696e75782f676f312e34",
  "transactions": [
    {
      "hash": "0x55e85c0d5f38e74849d26ad9239a8f19ad57c6e493b3c96aba925f08e576a394",
      "blockHash": "0x4915da9574d6c48b1d23336253868552e16e414bc9911a2268df6a1f946027ea",
      "blockNumber": 84625,
      "transactionIndex": 0,
      "confirmations": null,
      "from": "0x4fA3954A093E9916a48C5960B4303d7832b21A9b",
      "gasPrice": {
        "_hex": "0xda565b15d"
      },
      "gasLimit": {
        "_hex": "0x5208"
      },
      "to": "0x32Be343B94f860124dC4fEe278FDCBD38C102D88",
      "value": {
        "_hex": "0x1b1ae0777afa860000"
      },
      "nonce": 2,
      "data": "0x",
      "r": "0x16c0d7a8b2a0842ad5de91b3b6b7185ff8991018eeebc8891551b8ea393d2e77",
      "s": "0x18de30d8fe2b1867e991b8c0f9188be7dc9d971b3fcb7fed7cfaaefe0422408f",
      "v": 27,
      "creates": null,
      "raw": "0xf86d02850da565b15d8252089432be343b94f860124dc4fee278fdcbd38c102d88891b1ae0777afa860000801ba016c0d7a8b2a0842ad5de91b3b6b7185ff8991018eeebc8891551b8ea393d2e77a018de30d8fe2b1867e991b8c0f9188be7dc9d971b3fcb7fed7cfaaefe0422408f",
      "networkId": 0,
      "chainId": 0
    },
    {
      "hash": "0xba84726019bc8c8918a0cbb032cfe41c6836140ced354eae4f8ba6e581683658",
      "blockHash": "0x4915da9574d6c48b1d23336253868552e16e414bc9911a2268df6a1f946027ea",
      "blockNumber": 84625,
      "transactionIndex": 1,
      "confirmations": null,
      "from": "0x463eADDDA71F29F36365F889EA7E6fcDBe1cF0c8",
      "gasPrice": {
        "_hex": "0xda565b15d"
      },
      "gasLimit": {
        "_hex": "0x5208"
      },
      "to": "0x32Be343B94f860124dC4fEe278FDCBD38C102D88",
      "value": {
        "_hex": "0x43fbeca1f29fe000"
      },
      "nonce": 0,
      "data": "0x",
      "r": "0xbaa3c26b67b472a6823690b6c55bfe9b75f2d60675878c1a39562e1e2d3dd647",
      "s": "0x7884a5ab1dbc231502f07eb4e47343869430c4ae1cabf2704c634f6d55909219",
      "v": 27,
      "creates": null,
      "raw": "0xf86c80850da565b15d8252089432be343b94f860124dc4fee278fdcbd38c102d888843fbeca1f29fe000801ba0baa3c26b67b472a6823690b6c55bfe9b75f2d60675878c1a39562e1e2d3dd647a07884a5ab1dbc231502f07eb4e47343869430c4ae1cabf2704c634f6d55909219",
      "networkId": 0,
      "chainId": 0
    }
  ]
}