{
  "hash": "0x7e6ae68370e3cfdd59c382c6e6e20a9cd1eefdb79c52d6f4af4b85d08295f350",
  "parentHash": "0x97633af58f3efaa14da6dbc7ab1132c6ba00908aac68d5b7f9da768141e341c5",
  "number": 90661,
  "timestamp": 1439643518,
  "nonce": "0x2364a106c7698984",
  "difficulty": 3343151853954,
  "gasLimit": {
    "_hex": "0x2fefd8"
  },
  "gasUsed": {
    "_hex": "0x5208"
  },
  "miner": "0xbb7B8287f3F0a933474a79eAe42CBCa977791171",
  "extraData": "0x476574682f4c5649562f76312e302e312f6c696e75782f676f312e342e32",
  "transactions": [
    {
      "hash": "0xc369cb75c4be122c6e69d56f1d32907516477651ab1846f1d4d9acb9b70341a2",
      "blockHash": "0x7e6ae68370e3cfdd59c382c6e6e20a9cd1eefdb79c52d6f4af4b85d08295f350",
      "blockNumber": 90661,
      "transactionIndex": 0,
      "confirmations": null,
      "from": "0x047fF53dFE1F7BD2c3Ed2D1f777F35D1f64e9ffE",
      "gasPrice": {
        "_hex": "0xd9475a0e5"
      },
      "gasLimit": {
        "_hex": "0x5208"
      },
      "to": "0x32Be343B94f860124dC4fEe278FDCBD38C102D88",
      "value": {
        "_hex": "0xddc50e6e5f2c400"
      },
      "nonce": 4,
      "data": "0x",
      "r": "0x7c872b267ecb0dca87331c2390bd028ca36e0c03d90d67cd28e732fc060079f4",
      "s": "0x7badddaf2877aa45f70245ea2b681a3e3ef055290a93e4796911b05735dfe62c",
      "v": 28,
      "creates": null,
      "raw": "0xf86c04850d9475a0e58252089432be343b94f860124dc4fee278fdcbd38c102d88880ddc50e6e5f2c400801ca07c872b267ecb0dca87331c2390bd028ca36e0c03d90d67cd28e732fc060079f4a07badddaf2877aa45f70245ea2b681a3e3ef055290a93e4796911b05735dfe62c",
      "networkId": 0,
      "chainId": 0
    }
  ]
}