{
  "hash": "0x160d518072d52bfee4e056fee5dee026438921724fbf429f10af4c188828f58e",
  "parentHash": "0x81dc4451ba3ffec9947fb71602b9bcfe6527184d34397c12888eb6f82c7d81d6",
  "number": 110321,
  "timestamp": 1439971731,
  "nonce": "0x5be49d3c1fa936ff",
  "difficulty": 4362848129147,
  "gasLimit": {
    "_hex": "0x2fefd8"
  },
  "gasUsed": {
    "_hex": "0x3d860"
  },
  "miner": "0xe6A7a1d47ff21B6321162AEA7C6CB457D5476Bca",
  "extraData": "0x476574682f76312e302e312d38326566323666362f6c696e75782f676f312e34",
  "transactions": [
    {
      "hash": "0xc57baa71797229966c646f61358cfd23debbf2009c48ec31d2eb32f4f8db7ef9",
      "blockHash": "0x160d518072d52bfee4e056fee5dee026438921724fbf429f10af4c188828f58e",
      "blockNumber": 110321,
      "transactionIndex": 0,
      "confirmations": null,
      "from": "0x32Be343B94f860124dC4fEe278FDCBD38C102D88",
      "gasPrice": {
        "_hex": "0xdeb01b93c"
      },
      "gasLimit": {
        "_hex": "0x5208"
      },
      "to": "0x0b96805e552162F6227d56D6d3B3214212199953",
      "value": {
        "_hex": "0xdbd2fc137a30000"
      },
      "nonce": 1284,
      "data": "0x",
      "r": "0x88b23b5d2f7964739aa3ddbc3322677c540e10fbcdab14f21e1fef5f93f11f4c",
      "s": "0x2a9b6a1ff3b5a5b7ae069dc627f35d01dfe3315ecf8b78f732d78ef9df2da949",
      "v": 27,
      "creates": null,
      "raw": "0xf86e820504850deb01b93c825208940b96805e552162f6227d56d6d3b3214212199953880dbd2fc137a30000801ba088b23b5d2f7964739aa3ddbc3322677c540e10fbcdab14f21e1fef5f93f11f4ca02a9b6a1ff3b5a5b7ae069dc627f35d01dfe3315ecf8b78f732d78ef9df2da949",
      "networkId": 0,
      "chainId": 0
    },
    {
      "hash": "0xfd5f2bed5ea84d7dcf4c08e197be175552a910034f205ea3351d608b0bbc1844",
      "blockHash": "0x160d518072d52bfee4e056fee5dee026438921724fbf429f10af4c188828f58e",
      "blockNumber": 110321,
      "transactionIndex": 1,
      "confirmations": null,
      "from": "0xe6A7a1d47ff21B6321162AEA7C6CB457D5476Bca",
      "gasPrice": {
        "_hex": "0xcb9beaed3"
      },
      "gasLimit": {
        "_hex": "0x55f0"
      },
      "to": "0x62C0628EeA08203A030EE278217315fD43A5d57A",
      "value": {
        "_hex": "0xe494eb874302280"
      },
      "nonce": 4084,
      "data": "0x",
      "r": "0x4d4af46c2902edb0a4ee5263c52bb01fe80297693c010dd353ddb162a2ad4e00",
      "s": "0x3edbcfff8a6a2028fe5397c1df683f57ed81b25f92051de5297ec2129ec5e0e2",
      "v": 27,
      "creates": null,
      "raw": "0xf86e820ff4850cb9beaed38255f09462c0628eea08203a030ee278217315fd43a5d57a880e494eb874302280801ba04d4af46c2902edb0a4ee5263c52bb01fe80297693c010dd353ddb162a2ad4e00a03edbcfff8a6a2028fe5397c1df683f57ed81b25f92051de5297ec2129ec5e0e2",
      "networkId": 0,
      "chainId": 0
    },
    {
      "hash": "0x5a3eaf342e762b2a668b938fafac8df24a0df398944c9660cec796e7cb58e35c",
      "blockHash": "0x160d518072d52bfee4e056fee5dee026438921724fbf429f10af4c188828f58e",
      "blockNumber": 110321,
      "transactionIndex": 2,
      "confirmations": null,
      "from": "0xe6A7a1d47ff21B6321162AEA7C6CB457D5476Bca",
      "gasPrice": {
        "_hex": "0xcb9beaed3"
      },
      "gasLimit": {
        "_hex": "0x55f0"
      },
      "to": "0x302c39f2ac88961D33bAAAB06F8C7E88E73A072a",
      "value": {
        "_hex": "0xe49cf1aeeb935f4"
      },
      "nonce": 4085,
      "data": "0x",
      "r": "0x5b2c412c6bf9656ed1f34a939c53fe4c1650ca04888400ee950a6c4d75134773",
      "s": "0x4c41b32a905d2af49e9b7d517b03d5769d65bc48505de546fc2bd977bb9a9962",
      "v": 27,
      "creates": null,
      "raw": "0xf86e820ff5850cb9beaed38255f094302c39f2ac88961d33baaab06f8c7e88e73a072a880e49cf1aeeb935f4801ba05b2c412c6bf9656ed1f34a939c53fe4c1650ca04888400ee950a6c4d75134773a04c41b32a905d2af49e9b7d517b03d5769d65bc48505de546fc2bd977bb9a9962",
      "networkId": 0,
      "chainId": 0
    },
    {
      "hash": "0x7b557a7526b32bab2ea03420c39f415a08c2a9e2190eba74da42f56a7373fdec",
      "blockHash": "0x160d518072d52bfee4e056fee5dee026438921724fbf429f10af4c188828f58e",
      "blockNumber": 110321,
      "transactionIndex": 3,
      "confirmations": null,
      "from": "0xe6A7a1d47ff21B6321162AEA7C6CB457D5476Bca",
      "gasPrice": {
        "_hex": "0xcb9beaed3"
      },
      "gasLimit": {
        "_hex": "0x55f0"
      },
      "to": "0x8Fa2257C8D899F0BEA233ad248C9B5908F0e82bC",
      "value": {
        "_hex": "0xe4add3e54f9a9e8"
      },
      "nonce": 4086,
      "data": "0x",
      "r": "0xf7ae845de212ff847e08cbdb298402cc45a67594a295dd6a80ec7a1ebb734813",
      "s": "0x00b885c922e6d3ca467079075e91b63bd264b28ac72352bd15e82cbb2e7db9ea",
      "v": 27,
      "creates": null,
      "raw": "0xf86d820ff6850cb9beaed38255f0948fa2257c8d899f0bea233ad248c9b5908f0e82bc880e4add3e54f9a9e8801ba0f7ae845de212ff847e08cbdb298402cc45a67594a295dd6a80ec7a1ebb7348139fb885c922e6d3ca467079075e91b63bd264b28ac72352bd15e82cbb2e7db9ea",
      "networkId": 0,
      "chainId": 0
    },
    {
      "hash": "0x6c8c1c0a9908ed55242b30ae168a8d0e72afd468bd36358d43796b89d9f719ea",
      "blockHash": "0x160d518072d52bfee4e056fee5dee026438921724fbf429f10af4c188828f58e",
      "blockNumber": 110321,
      "transactionIndex": 4,
      "confirmations": null,
      "from": "0xe6A7a1d47ff21B6321162AEA7C6CB457D5476Bca",
      "gasPrice": {
        "_hex": "0xcb9beaed3"
      },
      "gasLimit": {
        "_hex": "0x55f0"
      },
      "to": "0x83B72f566f6ef3fd4a25C58119809f846602292C",
      "value": {
        "_hex": "0xe5e8fa0ac243bfc"
      },
      "nonce": 4087,
      "data": "0x",
      "r": "0xfc93f95903f5695d018442392a19b316f296173f2af7795fb47ca948775edd53",
      "s": "0x3fd4208a7197673b25ba3779ee1929b9c36318597c421a000891f3c76f018902",
      "v": 27,
      "creates": null,
      "raw": "0xf86e820ff7850cb9beaed38255f09483b72f566f6ef3fd4a25c58119809f846602292c880e5e8fa0ac243bfc801ba0fc93f95903f5695d018442392a19b316f296173f2af7795fb47ca948775edd53a03fd4208a7197673b25ba3779ee1929b9c36318597c421a000891f3c76f018902",
      "networkId": 0,
      "chainId": 0
    },
    {
      "hash": "0x1191f2f38d34b2612d8cdc64ef2ba885d2fd776a90b9d53b0d178924891c4846",
      "blockHash": "0x160d518072d52bfee4e056fee5dee026438921724fbf429f10af4c188828f58e",
      "blockNumber": 110321,
      "transactionIndex": 5,
      "confirmations": null,
      "from": "0xe6A7a1d47ff21B6321162AEA7C6CB457D5476Bca",
      "gasPrice": {
        "_hex": "0xcb9beaed3"
      },
      "gasLimit": {
        "_hex": "0x55f0"
      },
      "to": "0x61A59C94e02c66f7873BdccD7dACdDDd21bAAD88",
      "value": {
        "_hex": "0xe7dd67d907cc00c"
      },
      "nonce": 4088,
      "data": "0x",
      "r": "0x50d7ed973cf7a68e5dc0258ee8465fb9ced010bcf0a91688bdf3d59c6789e747",
      "s": "0x179221c6dd0f8f4b90a391d74548980a97ab1e78d09cd8953a90423c8ba6d719",
      "v": 28,
      "creates": null,
      "raw": "0xf86e820ff8850cb9beaed38255f09461a59c94e02c66f7873bdccd7dacdddd21baad88880e7dd67d907cc00c801ca050d7ed973cf7a68e5dc0258ee8465fb9ced010bcf0a91688bdf3d59c6789e747a0179221c6dd0f8f4b90a391d74548980a97ab1e78d09cd8953a90423c8ba6d719",
      "networkId": 0,
      "chainId": 0
    },
    {
      "hash": "0x54976c3b0918ae3b4c96e165ddac6807c01eeb4ffd06d780df67799ff4f30024",
      "blockHash": "0x160d518072d52bfee4e056fee5dee026438921724fbf429f10af4c188828f58e",
      "blockNumber": 110321,
      "transactionIndex": 6,
      "confirmations": null,
      "from": "0xe6A7a1d47ff21B6321162AEA7C6CB457D5476Bca",
      "gasPrice": {
        "_hex": "0xcb9beaed3"
      },
      "gasLimit": {
        "_hex": "0x55f0"
      },
      "to": "0xCC0c34544f4644d80d7FCD82E0b56e9d5C7AF43c",
      "value": {
        "_hex": "0xe8bfa796b8f54e8"
      },
      "nonce": 4089,
      "data": "0x",
      "r": "0xa950f66dd9a731a9ebc51da74d5c41e1abe138e9665e5590343128089735ff68",
      "s": "0x269b02fdd7cc2a190c213de36245e870c5d3cb730be7fe8fc784f032034062ec",
      "v": 27,
      "creates": null,
      "raw": "0xf86e820ff9850cb9beaed38255f094cc0c34544f4644d80d7fcd82e0b56e9d5c7af43c880e8bfa796b8f54e8801ba0a950f66dd9a731a9ebc51da74d5c41e1abe138e9665e5590343128089735ff68a0269b02fdd7cc2a190c213de36245e870c5d3cb730be7fe8fc784f032034062ec",
      "networkId": 0,
      "chainId": 0
    },
    {
      "hash": "0xc902f4447c901147dc326cab10fda41ff6c3a0ac84f62914b5e878411e787dd1",
      "blockHash": "0x160d518072d52bfee4e056fee5dee026438921724fbf429f10af4c188828f58e",
      "blockNumber": 110321,
      "transactionIndex": 7,
      "confirmations": null,
      "from": "0xe6A7a1d47ff21B6321162AEA7C6CB457D5476Bca",
      "gasPrice": {
        "_hex": "0xcb9beaed3"
      },
      "gasLimit": {
        "_hex": "0x55f0"
      },
      "to": "0x7bBF144cBB0912fc478f3C6C48925c28F3721546",
      "value": {
        "_hex": "0xe9da6d8f111ae28"
      },
      "nonce": 4090,
      "data": "0x",
      "r": "0xad87aba1661446cdcca01d6d9b4390ba1f314fef0d79338ae4ac1646e7e614ca",
      "s": "0x046c889e99a12ee16e716abf5094013b7cf79735cf4084bbbfc331cdec4c83ca",
      "v": 28,
      "creates": null,
      "raw": "0xf86e820ffa850cb9beaed38255f0947bbf144cbb0912fc478f3c6c48925c28f3721546880e9da6d8f111ae28801ca0ad87aba1661446cdcca01d6d9b4390ba1f314fef0d79338ae4ac1646e7e614caa0046c889e99a12ee16e716abf5094013b7cf79735cf4084bbbfc331cdec4c83ca",
      "networkId": 0,
      "chainId": 0
    },
    {
      "hash": "0xb014490d2a4434622c52cac05240d4de4f329fa42a8e4f0704935f923310c7b6",
      "blockHash": "0x160d518072d52bfee4e056fee5dee026438921724fbf429f10af4c188828f58e",
      "blockNumber": 110321,
      "transactionIndex": 8,
      "confirmations": null,
      "from": "0xe6A7a1d47ff21B6321162AEA7C6CB457D5476Bca",
      "gasPrice": {
        "_hex": "0xcb9beaed3"
      },
      "gasLimit": {
        "_hex": "0x55f0"
      },
      "to": "0x1CC77ed71531833bAC1eA0E757Cd150dCD297920",
      "value": {
        "_hex": "0xea9ccae8cf7069c"
      },
      "nonce": 4091,
      "data": "0x",
      "r": "0xb9535efdb9ce77793f9cbd858ef311cd8106868aefb591c83f5a8b65d4a69b04",
      "s": "0x5ab079c4cf3fe3b8074e9802363ebd4c7e1c61945a3efc3d84dbc6e243cfacb4",
      "v": 28,
      "creates": null,
      "raw": "0xf86e820ffb850cb9beaed38255f0941cc77ed71531833bac1ea0e757cd150dcd297920880ea9ccae8cf7069c801ca0b9535efdb9ce77793f9cbd858ef311cd8106868aefb591c83f5a8b65d4a69b04a05ab079c4cf3fe3b8074e9802363ebd4c7e1c61945a3efc3d84dbc6e243cfacb4",
      "networkId": 0,
      "chainId": 0
    },
    {
      "hash": "0xee4b17ec681662d4ecf6a15d22ead8e2698460fe04b6c1b4c1c016d609ccb427",
      "blockHash": "0x160d518072d52bfee4e056fee5dee026438921724fbf429f10af4c188828f58e",
      "blockNumber": 110321,
      "transactionIndex": 9,
      "confirmations": null,
      "from": "0xe6A7a1d47ff21B6321162AEA7C6CB457D5476Bca",
      "gasPrice": {
        "_hex": "0xcb9beaed3"
      },
      "gasLimit": {
        "_hex": "0x55f0"
      },
      "to": "0x2C00E1387f33fE1029a2D4642D095F682438366a",
      "value": {
        "_hex": "0xec97143daf5339c"
      },
      "nonce": 4092,
      "data": "0x",
      "r": "0xa294be7a645006e3810bbc63013bedad10bad5ec6428fe5eddb674329c45dc03",
      "s": "0x24e7e0f9ca0c0c6be33b7719b555d3b214fcb1b36272c674a6cc4245e212f217",
      "v": 28,
      "creates": null,
      "raw": "0xf86e820ffc850cb9beaed38255f0942c00e1387f33fe1029a2d4642d095f682438366a880ec97143daf5339c801ca0a294be7a645006e3810bbc63013bedad10bad5ec6428fe5eddb674329c45dc03a024e7e0f9ca0c0c6be33b7719b555d3b214fcb1b36272c674a6cc4245e212f217",
      "networkId": 0,
      "chainId": 0
    },
    {
      "hash": "0xc21d4a87a672ef5b026e34f465be1169efef9937bc02d7073216f1c5ddbe1ffd",
      "blockHash": "0x160d518072d52bfee4e056fee5dee026438921724fbf429f10af4c188828f58e",
      "blockNumber": 110321,
      "transactionIndex": 10,
      "confirmations": null,
      "from": "0xe6A7a1d47ff21B6321162AEA7C6CB457D5476Bca",
      "gasPrice": {
        "_hex": "0xcb9beaed3"
      },
      "gasLimit": {
        "_hex": "0x55f0"
      },
      "to": "0xcD31245FE2d6bfF03027F42f489418aAec2e51Ae",
      "value": {
        "_hex": "0xed22d6927a90918"
      },
      "nonce": 4093,
      "data": "0x",
      "r": "0x9ec56078df846790e02b6e26326f4c12a22eae7c8913218e9579ae0b97178c98",
      "s": "0x79c81999fc1465695b19c48e1237b84caae9f60fc8d833f5b456377d64ddd2f8",
      "v": 27,
      "creates": null,
      "raw": "0xf86e820ffd850cb9beaed38255f094cd31245fe2d6bff03027f42f489418aaec2e51ae880ed22d6927a90918801ba09ec56078df846790e02b6e26326f4c12a22eae7c8913218e9579ae0b97178c98a079c81999fc1465695b19c48e1237b84caae9f60fc8d833f5b456377d64ddd2f8",
      "networkId": 0,
      "chainId": 0
    },
    {
      "hash": "0x3a4f395a5ed6af9f153275ec0ddad609763504645c513ab1fe1e9af749c5e86c",
      "blockHash": "0x160d518072d52bfee4e056fee5dee026438921724fbf429f10af4c188828f58e",
      "blockNumber": 110321,
      "transactionIndex": 11,
      "confirmations": null,
      "from": "0xe6A7a1d47ff21B6321162AEA7C6CB457D5476Bca",
      "gasPrice": {
        "_hex": "0xcb9beaed3"
      },
      "gasLimit": {
        "_hex": "0x55f0"
      },
      "to": "0xcA8f4Fb1A28593337AeE456Acc76ABD4C3c83257",
      "value": {
        "_hex": "0xf0a53229d1e072c"
      },
      "nonce": 4094,
      "data": "0x",
      "r": "0x2baaf0eecb10609928eff28d17f182fadd9434ce9a0069ff1a5652d61436c47c",
      "s": "0x64ddcd8ea4d1e8599feff1089086cd749a43178ad1658f6d26e6a8c5e77e6b4c",
      "v": 28,
      "creates": null,
      "raw": "0xf86e820ffe850cb9beaed38255f094ca8f4fb1a28593337aee456acc76abd4c3c83257880f0a53229d1e072c801ca02baaf0eecb10609928eff28d17f182fadd9434ce9a0069ff1a5652d61436c47ca064ddcd8ea4d1e8599feff1089086cd749a43178ad1658f6d26e6a8c5e77e6b4c",
      "networkId": 0,
      "chainId": 0
    }
  ]
}