{
  "hash": "0x4e7e15f8bfc7da0d806d0a3ed17060b705695bff01a51346d5815ebf37ac112f",
  "parentHash": "0x4e21db39ef3f26be1e1cda2db3e4a1df684d4e7197a9aac9200172ac08c00418",
  "number": 69022,
  "timestamp": 1439297253,
  "nonce": "0x8f6b1662f2ab7df6",
  "difficulty": 2037930776645,
  "gasLimit": {
    "_hex": "0x2fefd8"
  },
  "gasUsed": {
    "_hex": "0x14820"
  },
  "miner": "0x39A1BB80a741bF5EC39FB9BE59408Fa0F418fFBf",
  "extraData": "0x476574682f76312e302e312f77696e646f77732f676f312e342e32",
  "transactions": [
    {
      "hash": "0xdb117afa3d7da1ab2c6dd5e45e98797e57ebe8c57bdf80eec21b865c6bc59834",
      "blockHash": "0x4e7e15f8bfc7da0d806d0a3ed17060b705695bff01a51346d5815ebf37ac112f",
      "blockNumber": 69022,
      "transactionIndex": 0,
      "confirmations": null,
      "from": "0x96492501e1081466c97F9d5d941cA0c416F55992",
      "gasPrice": {
        "_hex": "0xba43b7400"
      },
      "gasLimit": {
        "_hex": "0x5208"
      },
      "to": "0xb67Ed294E8Ca7Cf86790F337BF41701e13F7c23d",
      "value": {
        "_hex": "0x1a921f4b554d000"
      },
      "nonce": 1,
      "data": "0x",
      "r": "0xf9444abc7db63af9a9f5c2eea7e520d34fab42d9f004042ce7dadcec636d2a41",
      "s": "0x279db541f3dcf5d4770bc1b82a66d054047c0d67874f3969755bf6f10d4cff27",
      "v": 28,
      "creates": null,
      "raw": "0xf86c01850ba43b740082520894b67ed294e8ca7cf86790f337bf41701e13f7c23d8801a921f4b554d000801ca0f9444abc7db63af9a9f5c2eea7e520d34fab42d9f004042ce7dadcec636d2a41a0279db541f3dcf5d4770bc1b82a66d054047c0d67874f3969755bf6f10d4cff27",
      "networkId": 0,
      "chainId": 0
    },
    {
      "hash": "0x48b0c2c9eee01fc2538a421bff3ea5bd178b2a7e50b3f1ad0954a487374bd6e6",
      "blockHash": "0x4e7e15f8bfc7da0d806d0a3ed17060b705695bff01a51346d5815ebf37ac112f",
      "blockNumber": 69022,
      "transactionIndex": 1,
      "confirmations": null,
      "from": "0x45A3B14Fda4803a40d7cc2044e3eB494e7066D4A",
      "gasPrice": {
        "_hex": "0xba43b7400"
      },
      "gasLimit": {
        "_hex": "0x5208"
      },
      "to": "0x915775888190057412254bC8619eb816aa304101",
      "value": {
        "_hex": "0x1a921f4b554d000"
      },
      "nonce": 1,
      "data": "0x",
      "r": "0x33559b7d1f56c57c0cb6b05c97c5987dbd801bfd4b2a23e98eea12d271e304db",
      "s": "0x1f407f6ab1c5d4245717fbcff4494ab4a1f34271be5f63821ad0610ac3394341",
      "v": 27,
      "creates": null,
      "raw": "0xf86c01850ba43b740082520894915775888190057412254bc8619eb816aa3041018801a921f4b554d000801ba033559b7d1f56c57c0cb6b05c97c5987dbd801bfd4b2a23e98eea12d271e304dba01f407f6ab1c5d4245717fbcff4494ab4a1f34271be5f63821ad0610ac3394341",
      "networkId": 0,
      "chainId": 0
    },
    {
      "hash": "0x5b21a6cf389ecec8b7857ac71fb924ef4ad911d6df91f0f3351ed9cccbaf38a6",
      "blockHash": "0x4e7e15f8bfc7da0d806d0a3ed17060b705695bff01a51346d5815ebf37ac112f",
      "blockNumber": 69022,
      "transactionIndex": 2,
      "confirmations": null,
      "from": "0x66A088bccdE561928dB71A174F30a62E4D441F39",
      "gasPrice": {
        "_hex": "0xba43b7400"
      },
      "gasLimit": {
        "_hex": "0x5208"
      },
      "to": "0xc34f0900f81bD9c626E95C118Fec2d19EBCf1DBc",
      "value": {
        "_hex": "0x1a921f4b554d000"
      },
      "nonce": 1,
      "data": "0x",
      "r": "0x7af9fd1347c1abaa2b86f3bc7b3aa057fc2e4f23e46b6ca69fbb43470d74c24a",
      "s": "0x7a8d29ea2988bb8389bf7a62e5aeae4d6c4afde78bbdc3c93fa9f13d650f3cd1",
      "v": 28,
      "creates": null,
      "raw": "0xf86c01850ba43b740082520894c34f0900f81bd9c626e95c118fec2d19ebcf1dbc8801a921f4b554d000801ca07af9fd1347c1abaa2b86f3bc7b3aa057fc2e4f23e46b6ca69fbb43470d74c24aa07a8d29ea2988bb8389bf7a62e5aeae4d6c4afde78bbdc3c93fa9f13d650f3cd1",
      "networkId": 0,
      "chainId": 0
    },
    {
      "hash": "0xad682cad9898f13a3796ee61d476507fab8af09e15994f7e2a42fbb07b70e831",
      "blockHash": "0x4e7e15f8bfc7da0d806d0a3ed17060b705695bff01a51346d5815ebf37ac112f",
      "blockNumber": 69022,
      "transactionIndex": 3,
      "confirmations": null,
      "from": "0x281996B2209e92EB4149c8Fe52214c95E5A73522",
      "gasPrice": {
        "_hex": "0xba43b7400"
      },
      "gasLimit": {
        "_hex": "0x5208"
      },
      "to": "0xd91B5a3bCDC372d101Be20dAC2C099080F6b646D",
      "value": {
        "_hex": "0x1a921f4b554d000"
      },
      "nonce": 1,
      "data": "0x",
      "r": "0xb68ded37e52ef47ec47206414a868489e70114235e5cbd7d43c8eac538971703",
      "s": "0x2e9c41cbafbb632132f6b7362b689465e3131f025d55e4274f86fa60741d19c1",
      "v": 27,
      "creates": null,
      "raw": "0xf86c01850ba43b740082520894d91b5a3bcdc372d101be20dac2c099080f6b646d8801a921f4b554d000801ba0b68ded37e52ef47ec47206414a868489e70114235e5cbd7d43c8eac538971703a02e9c41cbafbb632132f6b7362b689465e3131f025d55e4274f86fa60741d19c1",
      "networkId": 0,
      "chainId": 0
    }
  ]
}