{
  "hash": "0xa55acd659bacf2b77540bb47bbc211b931b627089d475946bbcb2d2c190a8790",
  "parentHash": "0x98d7978177b696a11f6e68c63f33833a6803dfbf06f6d9f1cc2a7bcf38b54437",
  "number": 47599,
  "timestamp": 1438943337,
  "nonce": "0x2126ce1fe5cc545d",
  "difficulty": 1450928368275,
  "gasLimit": {
    "_hex": "0xd4af"
  },
  "gasUsed": {
    "_hex": "0xa410"
  },
  "miner": "0x2Eaf0006A658AcF7D0d0aab8D8b242853A172e44",
  "extraData": "0x476574682f76312e302e312f77696e646f77732f676f312e342e32",
  "transactions": [
    {
      "hash": "0xe899d00ba1b959f7457ff4628c2f23dcf11dfef98c394b6c5647322134cadd43",
      "blockHash": "0xa55acd659bacf2b77540bb47bbc211b931b627089d475946bbcb2d2c190a8790",
      "blockNumber": 47599,
      "transactionIndex": 0,
      "confirmations": null,
      "from": "0xeD17Ea8E9fd42159037deE95ea173a56c54f55ce",
      "gasPrice": {
        "_hex": "0x136755a170"
      },
      "gasLimit": {
        "_hex": "0x5208"
      },
      "to": "0x32Be343B94f860124dC4fEe278FDCBD38C102D88",
      "value": {
        "_hex": "0x10e97b2fa574bc000"
      },
      "nonce": 1,
      "data": "0x",
      "r": "0x75d2371b77701d94c9f8459d0a68bea98ebf217cb204304b3f3197c41d63f146",
      "s": "0x408fb31df7dfc339f41c40cbee6526953a9eaa6c214b5a10173570c6900deb13",
      "v": 28,
      "creates": null,
      "raw": "0xf86d0185136755a1708252089432be343b94f860124dc4fee278fdcbd38c102d8889010e97b2fa574bc000801ca075d2371b77701d94c9f8459d0a68bea98ebf217cb204304b3f3197c41d63f146a0408fb31df7dfc339f41c40cbee6526953a9eaa6c214b5a10173570c6900deb13",
      "networkId": 0,
      "chainId": 0
    },
    {
      "hash": "0x50c87bca13b0e707d1c8a673860ed013b089b264e3d43c67d09438670adffb6c",
      "blockHash": "0xa55acd659bacf2b77540bb47bbc211b931b627089d475946bbcb2d2c190a8790",
      "blockNumber": 47599,
      "transactionIndex": 1,
      "confirmations": null,
      "from": "0x2Fe86C0450Bf1bE6001d119aA87f6f33117bD699",
      "gasPrice": {
        "_hex": "0x136755a170"
      },
      "gasLimit": {
        "_hex": "0x5208"
      },
      "to": "0x32Be343B94f860124dC4fEe278FDCBD38C102D88",
      "value": {
        "_hex": "0xa2a2dd9e0780580000"
      },
      "nonce": 2,
      "data": "0x",
      "r": "0x315936b48406c94a66d3685daf0bd8aa873fb965d0e36ec160de572658fa2b19",
      "s": "0x177e85c9fdb98c54f53c356c1eae956021cef6c84f41a4b0d109a642dbea2b06",
      "v": 28,
      "creates": null,
      "raw": "0xf86d0285136755a1708252089432be343b94f860124dc4fee278fdcbd38c102d8889a2a2dd9e0780580000801ca0315936b48406c94a66d3685daf0bd8aa873fb965d0e36ec160de572658fa2b19a0177e85c9fdb98c54f53c356c1eae956021cef6c84f41a4b0d109a642dbea2b06",
      "networkId": 0,
      "chainId": 0
    }
  ]
}