{
  "hash": "0xe88a1f75a91e5c49f5195c6318286b1839941054914f1e72e4c31d503549c99c",
  "parentHash": "0xfc1ac1bb9500d0dfd6e78af46e47469c779f08f4c3f2af2c7f32509518d9592b",
  "number": 120648,
  "timestamp": 1440163647,
  "nonce": "0xa63a5ad390fe7b52",
  "difficulty": 4419621980322,
  "gasLimit": {
    "_hex": "0x2fefd8"
  },
  "gasUsed": {
    "_hex": "0x5208"
  },
  "miner": "0xf927a40C8B7F6E07c5af7FA2155B4864a4112B13",
  "extraData": "0x476574682f76312e302e322f6c696e75782f676f312e342e32",
  "transactions": [
    {
      "hash": "0x8804a99789da851340a54c22dfc4a9c1412459614936a869c3edac2833dacefe",
      "blockHash": "0xe88a1f75a91e5c49f5195c6318286b1839941054914f1e72e4c31d503549c99c",
      "blockNumber": 120648,
      "transactionIndex": 0,
      "confirmations": null,
      "from": "0xb406315733467Ea62738DdAAF37E2D35fF76CF89",
      "gasPrice": {
        "_hex": "0xba43b7400"
      },
      "gasLimit": {
        "_hex": "0x5208"
      },
      "to": "0x32Be343B94f860124dC4fEe278FDCBD38C102D88",
      "value": {
        "_hex": "0x1b681a7f25d75400"
      },
      "nonce": 0,
      "data": "0x",
      "r": "0xcf9700044765c08452faab2cefbafe8d7e20ebcf8dabfdc91deaa2c312d7cda4",
      "s": "0x7acd79b66fc3c9f61ed6370e1bdef95fed96c4cd98446bb2ee98c287d4e1e408",
      "v": 27,
      "creates": null,
      "raw": "0xf86c80850ba43b74008252089432be343b94f860124dc4fee278fdcbd38c102d88881b681a7f25d75400801ba0cf9700044765c08452faab2cefbafe8d7e20ebcf8dabfdc91deaa2c312d7cda4a07acd79b66fc3c9f61ed6370e1bdef95fed96c4cd98446bb2ee98c287d4e1e408",
      "networkId": 0,
      "chainId": 0
    }
  ]
}