{
  "hash": "0x479eff3b6713e3e47021ec20fe15c1a327b78312574209546d5e9f75454482ab",
  "parentHash": "0x0c3dffdc6f816488a873381be4700bab952c2f8f33a946c3a98214b3e26e6ec2",
  "number": 68604,
  "timestamp": 1439290546,
  "nonce": "0x6fad069fccab5701",
  "difficulty": 2026125648526,
  "gasLimit": {
    "_hex": "0x2fefd8"
  },
  "gasUsed": {
    "_hex": "0x3b9d1"
  },
  "miner": "0xf8E0CA3Ed80bd541b94BEdCf259e8CF2141A9523",
  "extraData": "0x476574682f76312e302e312f77696e646f77732f676f312e342e32",
  "transactions": [
    {
      "hash": "0x162960a5b9d2860c771aace7fbfa4228e3aaf785406aa9e982adeb32d1d78223",
      "blockHash": "0x479eff3b6713e3e47021ec20fe15c1a327b78312574209546d5e9f75454482ab",
      "blockNumber": 68604,
      "transactionIndex": 0,
      "confirmations": null,
      "from": "0xa14Cf6cEC1c6aAe4b608458F6e14692863A937Aa",
      "gasPrice": {
        "_hex": "0xd1415d368"
      },
      "gasLimit": {
        "_hex": "0x61a80"
      },
      "to": "0x5Fe5B7546D1628f7348B023A0393de1FC825A4fD",
      "value": {
        "_hex": "0x0"
      },
      "nonce": 11,
      "data": "0x57266803000000000000000000000000000000000000000000000015af1d78b58c400000",
      "r": "0xac74e0469404fb258942e3bad53232600141ebff7ed8a6eaa9e7ff33696eb2c9",
      "s": "0x4c3c32e0ca93ccb1d32709c4417dc7790b8cdf5b051f351a49589d65925dbe50",
      "v": 28,
      "creates": null,
      "raw": "0xf8890b850d1415d36883061a80945fe5b7546d1628f7348b023a0393de1fc825a4fd80a457266803000000000000000000000000000000000000000000000015af1d78b58c4000001ca0ac74e0469404fb258942e3bad53232600141ebff7ed8a6eaa9e7ff33696eb2c9a04c3c32e0ca93ccb1d32709c4417dc7790b8cdf5b051f351a49589d65925dbe50",
      "networkId": 0,
      "chainId": 0
    },
    {
      "hash": "0xd6f6a2059c0fac304c1319a3387f7960f7e0f8d865b29deef1ba0ea950a6a9e0",
      "blockHash": "0x479eff3b6713e3e47021ec20fe15c1a327b78312574209546d5e9f75454482ab",
      "blockNumber": 68604,
      "transactionIndex": 1,
      "confirmations": null,
      "from": "0x181848765cBfbBdCaba5e482f0a4c330a1F1E20E",
      "gasPrice": {
        "_hex": "0xba43b7400"
      },
      "gasLimit": {
        "_hex": "0x5208"
      },
      "to": "0x0C04Db274Ba71332a8e170762509Fc0f55266177",
      "value": {
        "_hex": "0x1072bbac261c000"
      },
      "nonce": 1,
      "data": "0x",
      "r": "0xb16634b073b810c759f7b6fdd63cb204d8c836a9a16a2183b2f19e23e054df4f",
      "s": "0x70e34af3f04a3a90ba3448f5854e1b5acabfe65af83579c36f767bfaa429ad8e",
      "v": 28,
      "creates": null,
      "raw": "0xf86c01850ba43b7400825208940c04db274ba71332a8e170762509fc0f552661778801072bbac261c000801ca0b16634b073b810c759f7b6fdd63cb204d8c836a9a16a2183b2f19e23e054df4fa070e34af3f04a3a90ba3448f5854e1b5acabfe65af83579c36f767bfaa429ad8e",
      "networkId": 0,
      "chainId": 0
    },
    {
      "hash": "0xadb50c0195cb6f8339e073e9eefc7f69789f6f1b04b2a4359e1648da3c6e35f3",
      "blockHash": "0x479eff3b6713e3e47021ec20fe15c1a327b78312574209546d5e9f75454482ab",
      "blockNumber": 68604,
      "transactionIndex": 2,
      "confirmations": null,
      "from": "0x01b8e8b133B7aa40dc62BAf200E5C31e9f00e567",
      "gasPrice": {
        "_hex": "0xba43b7400"
      },
      "gasLimit": {
        "_hex": "0x5208"
      },
      "to": "0x733F17D51c8f5c3c09409B525CF046bE8dDFdCEd",
      "value": {
        "_hex": "0x1072bbac261c000"
      },
      "nonce": 1,
      "data": "0x",
      "r": "0x622147313a814531e354854fd7ef193bde4989a6db2dbf2a6f5ffebb993f5c83",
      "s": "0x1a9953c7ef5b16f9a3099616adc9568f404714a07719dca7545da66f74079e7b",
      "v": 27,
      "creates": null,
      "raw": "0xf86c01850ba43b740082520894733f17d51c8f5c3c09409b525cf046be8ddfdced8801072bbac261c000801ba0622147313a814531e354854fd7ef193bde4989a6db2dbf2a6f5ffebb993f5c83a01a9953c7ef5b16f9a3099616adc9568f404714a07719dca7545da66f74079e7b",
      "networkId": 0,
      "chainId": 0
    },
    {
      "hash": "0xef81eb1e151da287c297e444b5aae910bcbed6592850dc7d4ef4421d0f30bab2",
      "blockHash": "0x479eff3b6713e3e47021ec20fe15c1a327b78312574209546d5e9f75454482ab",
      "blockNumber": 68604,
      "transactionIndex": 3,
      "confirmations": null,
      "from": "0xa4f4Af0C28bD3569C715464C77E02125980c8686",
      "gasPrice": {
        "_hex": "0xba43b7400"
      },
      "gasLimit": {
        "_hex": "0x5208"
      },
      "to": "0x7Aa7c5340322062994f0e140d6877C89Fd6A195E",
      "value": {
        "_hex": "0x1072bbac261c000"
      },
      "nonce": 1,
      "data": "0x",
      "r": "0x79a310eac03a29602e0f10191bf84e09006f5f386202a13097ec6358136c1904",
      "s": "0x5fd49f1414944c8d2b3761cb3c147ee0a0242bc48f7e45e786be2fa6b13dedd2",
      "v": 28,
      "creates": null,
      "raw": "0xf86c01850ba43b7400825208947aa7c5340322062994f0e140d6877c89fd6a195e8801072bbac261c000801ca079a310eac03a29602e0f10191bf84e09006f5f386202a13097ec6358136c1904a05fd49f1414944c8d2b3761cb3c147ee0a0242bc48f7e45e786be2fa6b13dedd2",
      "networkId": 0,
      "chainId": 0
    },
    {
      "hash": "0x85396468035a5791cde54699078c75583307acedf3f98e751ab41ab04a151d45",
      "blockHash": "0x479eff3b6713e3e47021ec20fe15c1a327b78312574209546d5e9f75454482ab",
      "blockNumber": 68604,
      "transactionIndex": 4,
      "confirmations": null,
      "from": "0x8d35fF99b21421fFA241CdedB71709Bbef612345",
      "gasPrice": {
        "_hex": "0xba43b7400"
      },
      "gasLimit": {
        "_hex": "0x5208"
      },
      "to": "0x936b8692AEF98C883C10bb1a76004D1788846F7E",
      "value": {
        "_hex": "0x1072bbac261c000"
      },
      "nonce": 1,
      "data": "0x",
      "r": "0xec12dcd9dbf65b95f34bfb6f06735f7168f64596df6986e2d8a3750ad815fc85",
      "s": "0x2bcbaa392f0243c77ab3f449171d914ad2e803a9af4a204d1d9a72aedb566228",
      "v": 28,
      "creates": null,
      "raw": "0xf86c01850ba43b740082520894936b8692aef98c883c10bb1a76004d1788846f7e8801072bbac261c000801ca0ec12dcd9dbf65b95f34bfb6f06735f7168f64596df6986e2d8a3750ad815fc85a02bcbaa392f0243c77ab3f449171d914ad2e803a9af4a204d1d9a72aedb566228",
      "networkId": 0,
      "chainId": 0
    },
    {
      "hash": "0x6176748aaca77ff7e39c566d5a59c172c34785363a3a3ad27d77bc5eca7445ec",
      "blockHash": "0x479eff3b6713e3e47021ec20fe15c1a327b78312574209546d5e9f75454482ab",
      "blockNumber": 68604,
      "transactionIndex": 5,
      "confirmations": null,
      "from": "0xBB349DE21dD84C19A48dDd8632039BeE366991f5",
      "gasPrice": {
        "_hex": "0xba43b7400"
      },
      "gasLimit": {
        "_hex": "0x5208"
      },
      "to": "0x384AbF65B9859C51a3DcEEE22eB621BdE2a62B95",
      "value": {
        "_hex": "0x1072bbac261c000"
      },
      "nonce": 1,
      "data": "0x",
      "r": "0xe0673843d9d0c2de816e493dd2b1298ec813481247652e64bb526436b69d8bee",
      "s": "0x1dcbb129af86309eb19301a40a99828c316aa2b7b97f18507681838ffc9bbd39",
      "v": 27,
      "creates": null,
      "raw": "0xf86c01850ba43b740082520894384abf65b9859c51a3dceee22eb621bde2a62b958801072bbac261c000801ba0e0673843d9d0c2de816e493dd2b1298ec813481247652e64bb526436b69d8beea01dcbb129af86309eb19301a40a99828c316aa2b7b97f18507681838ffc9bbd39",
      "networkId": 0,
      "chainId": 0
    },
    {
      "hash": "0x16c2324b5af3a16038fa79ef3f442174ba17a163fe2582a3cefa63030a9d2f83",
      "blockHash": "0x479eff3b6713e3e47021ec20fe15c1a327b78312574209546d5e9f75454482ab",
      "blockNumber": 68604,
      "transactionIndex": 6,
      "confirmations": null,
      "from": "0xBE25a60b08cD53b72461d7668B67C977aC663844",
      "gasPrice": {
        "_hex": "0xba43b7400"
      },
      "gasLimit": {
        "_hex": "0x5208"
      },
      "to": "0x50a058fBc8901adC1cc80d08D698742c9C562478",
      "value": {
        "_hex": "0x1072bbac261c000"
      },
      "nonce": 1,
      "data": "0x",
      "r": "0x22328ecac6873e200cf553290607c8e9d854828f4627884833c6be4e79b2b653",
      "s": "0x35ff2a971694fff2bd97f67312d7e866742bcae25b1c2ad6877ce1e041efacb0",
      "v": 27,
      "creates": null,
      "raw": "0xf86c01850ba43b74008252089450a058fbc8901adc1cc80d08d698742c9c5624788801072bbac261c000801ba022328ecac6873e200cf553290607c8e9d854828f4627884833c6be4e79b2b653a035ff2a971694fff2bd97f67312d7e866742bcae25b1c2ad6877ce1e041efacb0",
      "networkId": 0,
      "chainId": 0
    },
    {
      "hash": "0xb0ca8d8a07df60914a080b175dc1a34baa43c420a6480c90b86dd303023b9446",
      "blockHash": "0x479eff3b6713e3e47021ec20fe15c1a327b78312574209546d5e9f75454482ab",
      "blockNumber": 68604,
      "transactionIndex": 7,
      "confirmations": null,
      "from": "0xAb46C5954afBE8cba15f5F51580c279a8499C7Ef",
      "gasPrice": {
        "_hex": "0xba43b7400"
      },
      "gasLimit": {
        "_hex": "0x5208"
      },
      "to": "0x7A084a4041dAEe4fE8cdeAa8eB8a897B1B8E002D",
      "value": {
        "_hex": "0x1072bbac261c000"
      },
      "nonce": 1,
      "data": "0x",
      "r": "0xc9552ebfc5b4d8b9efa437aa1194be324e7a8d4a0dcd0189da7440b3d516a7f9",
      "s": "0x49fc6c0cdee0cda3da55097a5f1d247f34187a73fc8723ebcd77cbe454f4b561",
      "v": 28,
      "creates": null,
      "raw": "0xf86c01850ba43b7400825208947a084a4041daee4fe8cdeaa8eb8a897b1b8e002d8801072bbac261c000801ca0c9552ebfc5b4d8b9efa437aa1194be324e7a8d4a0dcd0189da7440b3d516a7f9a049fc6c0cdee0cda3da55097a5f1d247f34187a73fc8723ebcd77cbe454f4b561",
      "networkId": 0,
      "chainId": 0
    },
    {
      "hash": "0xd78f396aad588008bb590f7da705a77652236d093761dee0cc074f6afd56d3d2",
      "blockHash": "0x479eff3b6713e3e47021ec20fe15c1a327b78312574209546d5e9f75454482ab",
      "blockNumber": 68604,
      "transactionIndex": 8,
      "confirmations": null,
      "from": "0xd7e04F09FF673b095bbe2fE6c1FD4f4C0DA1c2f1",
      "gasPrice": {
        "_hex": "0xba43b7400"
      },
      "gasLimit": {
        "_hex": "0x5208"
      },
      "to": "0xD2E3933F504d92e408cd5FA50D38c680E42a5D38",
      "value": {
        "_hex": "0x1072bbac261c000"
      },
      "nonce": 1,
      "data": "0x",
      "r": "0xbf0749ea680389147c0ae098d2bd0bc6c8e62ea797f599c0a104793aa0026a97",
      "s": "0x2d1c5a6d1fe0937d6730d10828287b85571b6d66acd6e57f1bee3deae91609aa",
      "v": 28,
      "creates": null,
      "raw": "0xf86c01850ba43b740082520894d2e3933f504d92e408cd5fa50d38c680e42a5d388801072bbac261c000801ca0bf0749ea680389147c0ae098d2bd0bc6c8e62ea797f599c0a104793aa0026a97a02d1c5a6d1fe0937d6730d10828287b85571b6d66acd6e57f1bee3deae91609aa",
      "networkId": 0,
      "chainId": 0
    },
    {
      "hash": "0x372da3b2ef6456e770f3f6b4f9b26b554ea29e4e4f934c8e9ccf945b1f3c4785",
      "blockHash": "0x479eff3b6713e3e47021ec20fe15c1a327b78312574209546d5e9f75454482ab",
      "blockNumber": 68604,
      "transactionIndex": 9,
      "confirmations": null,
      "from": "0x55718B71F2f9Ab4BA63769c4C7a421d53E3B9954",
      "gasPrice": {
        "_hex": "0xba43b7400"
      },
      "gasLimit": {
        "_hex": "0x5208"
      },
      "to": "0x19Ea3eC632b4dC815da70ea846e2F7b8b18668D2",
      "value": {
        "_hex": "0x1072bbac261c000"
      },
      "nonce": 1,
      "data": "0x",
      "r": "0xfa4671155c2289157871d89fc5a84c355cb619e1392d23057ab38ef7368f7542",
      "s": "0x7fdbc1f63c4940e56609e7d4a8d5ba373921261a3e3e7abc2f406ef12ab94a44",
      "v": 28,
      "creates": null,
      "raw": "0xf86c01850ba43b74008252089419ea3ec632b4dc815da70ea846e2f7b8b18668d28801072bbac261c000801ca0fa4671155c2289157871d89fc5a84c355cb619e1392d23057ab38ef7368f7542a07fdbc1f63c4940e56609e7d4a8d5ba373921261a3e3e7abc2f406ef12ab94a44",
      "networkId": 0,
      "chainId": 0
    },
    {
      "hash": "0x48b5f12837a695079163989a798d0f905991007c637d5ef82771c6a2e72ffa15",
      "blockHash": "0x479eff3b6713e3e47021ec20fe15c1a327b78312574209546d5e9f75454482ab",
      "blockNumber": 68604,
      "transactionIndex": 10,
      "confirmations": null,
      "from": "0x8FdC17D6028AabaAaCd3B21Be588ccD2531Da38a",
      "gasPrice": {
        "_hex": "0xba43b7400"
      },
      "gasLimit": {
        "_hex": "0x5208"
      },
      "to": "0x8Be704f380EB2C5aFCc6F487592EF3D4db5bF2B6",
      "value": {
        "_hex": "0x1072bbac261c000"
      },
      "nonce": 1,
      "data": "0x",
      "r": "0x2b2e0bcb01accdbf76e6581197a4d08a7302652933ad40669bc9f97ea2cc3a15",
      "s": "0x1903248e947d7e89a2754e0b9cf1792d3740185ff74915fb9e85a4460d2e9f32",
      "v": 27,
      "creates": null,
      "raw": "0xf86c01850ba43b7400825208948be704f380eb2c5afcc6f487592ef3d4db5bf2b68801072bbac261c000801ba02b2e0bcb01accdbf76e6581197a4d08a7302652933ad40669bc9f97ea2cc3a15a01903248e947d7e89a2754e0b9cf1792d3740185ff74915fb9e85a4460d2e9f32",
      "networkId": 0,
      "chainId": 0
    }
  ]
}