{
  "hash": "0x8ed7de179c89dc2ecf0761caf70778ca6a71dc7238f1b1208206c809c7b849aa",
  "parentHash": "0xebd9a99e87e93e1b1e2a0d09e21c43d9f876248337c8851a47be434c16ef6594",
  "number": 113509,
  "timestamp": 1440024930,
  "nonce": "0xed0033fccecb1f51",
  "difficulty": 4434197308896,
  "gasLimit": {
    "_hex": "0x2fefd8"
  },
  "gasUsed": {
    "_hex": "0xa410"
  },
  "miner": "0x56A1018A2F565672E98f4cB657cEB8059ff3E5a2",
  "extraData": "0x476574682f76312e302e312f77696e646f77732f676f312e342e32",
  "transactions": [
    {
      "hash": "0x80254696457e8ca0c4da0d5da99327c07846735b2f63255f58b4a5e8104fc9f3",
      "blockHash": "0x8ed7de179c89dc2ecf0761caf70778ca6a71dc7238f1b1208206c809c7b849aa",
      "blockNumber": 113509,
      "transactionIndex": 0,
      "confirmations": null,
      "from": "0xFBb1b73C4f0BDa4f67dcA266ce6Ef42f520fBB98",
      "gasPrice": {
        "_hex": "0xd6281115c"
      },
      "gasLimit": {
        "_hex": "0x5208"
      },
      "to": "0x83fDfD476CAEa5d514b9545805C269fC2441B2Dd",
      "value": {
        "_hex": "0xdbd2fc137a30000"
      },
      "nonce": 226,
      "data": "0x",
      "r": "0x2216afe8dc715ac9166c1659bcb477c3e79dbbc96c80edc1b63e771b289e3764",
      "s": "0x414d7d01e4dbdc94860038cae1d483e0921cb05875926cb0cd342546f6b28770",
      "v": 28,
      "creates": null,
      "raw": "0xf86d81e2850d6281115c8252089483fdfd476caea5d514b9545805c269fc2441b2dd880dbd2fc137a30000801ca02216afe8dc715ac9166c1659bcb477c3e79dbbc96c80edc1b63e771b289e3764a0414d7d01e4dbdc94860038cae1d483e0921cb05875926cb0cd342546f6b28770",
      "networkId": 0,
      "chainId": 0
    },
    {
      "hash": "0x6b335aa955e3e8d3a5602a7e51e3a5216e6bdd0ede7556d665a3e3da7a5a7e6b",
      "blockHash": "0x8ed7de179c89dc2ecf0761caf70778ca6a71dc7238f1b1208206c809c7b849aa",
      "blockNumber": 113509,
      "transactionIndex": 1,
      "confirmations": null,
      "from": "0xb706b0bEE2433E6e1DDd354fAe0E3cDe3FEd161d",
      "gasPrice": {
        "_hex": "0xba43b7400"
      },
      "gasLimit": {
        "_hex": "0x5208"
      },
      "to": "0xC47Aaa860008be6f65B58c6C6E02a84e666EfE31",
      "value": {
        "_hex": "0x159a6b12deb624f0"
      },
      "nonce": 1,
      "data": "0x",
      "r": "0xec8dba84b60a8679e99ea457eb982cbdecb4de23a1e0292e38d9b005c9c7a1a1",
      "s": "0x328a1447d4007a3bd7e6a68d86f0137eb6418be26d1aa1c9c0dbf4eda1a57e40",
      "v": 28,
      "creates": null,
      "raw": "0xf86c01850ba43b740082520894c47aaa860008be6f65b58c6c6e02a84e666efe3188159a6b12deb624f0801ca0ec8dba84b60a8679e99ea457eb982cbdecb4de23a1e0292e38d9b005c9c7a1a1a0328a1447d4007a3bd7e6a68d86f0137eb6418be26d1aa1c9c0dbf4eda1a57e40",
      "networkId": 0,
      "chainId": 0
    }
  ]
}