{
  "hash": "0xc8019b84ba84c8b76501f853f27fefca0afcd3cf8e874c41db0e6cc6e681efeb",
  "parentHash": "0xc82bfdfce4c71df5fae27d880571308f44b1a1e3f430f95e4135cf54668a20f6",
  "number": 115083,
  "timestamp": 1440051188,
  "nonce": "0x45869322bcbf7881",
  "difficulty": 4538499612897,
  "gasLimit": {
    "_hex": "0x2fefd8"
  },
  "gasUsed": {
    "_hex": "0x520c"
  },
  "miner": "0xe6A7a1d47ff21B6321162AEA7C6CB457D5476Bca",
  "extraData": "0x476574682f76312e302e312d38326566323666362f6c696e75782f676f312e34",
  "transactions": [
    {
      "hash": "0x9a8f01f0f4b16b57288d8b3a857052b65db89a31c6d96ade89c638ac97b9eb62",
      "blockHash": "0xc8019b84ba84c8b76501f853f27fefca0afcd3cf8e874c41db0e6cc6e681efeb",
      "blockNumber": 115083,
      "transactionIndex": 0,
      "confirmations": null,
      "from": "0xb9836ec1f42Bd48331bceaedb74a6Bcdc22832bD",
      "gasPrice": {
        "_hex": "0xd09b80540"
      },
      "gasLimit": {
        "_hex": "0x7530"
      },
      "to": "0x7cB57B5A97eAbe94205C07890BE4c1aD31E486A8",
      "value": {
        "_hex": "0x38d7ea4c68000"
      },
      "nonce": 19,
      "data": "0x00",
      "r": "0x96a8282da59269def751295f6fdf61e65c00b2708f40c0258e9ad996f55820ef",
      "s": "0xabc6657cdd355c650b5e94aab6c8e2d73af403aa41e3bc99fe57fe3d46b899d1",
      "v": 28,
      "creates": null,
      "raw": "0xf86b13850d09b80540827530947cb57b5a97eabe94205c07890be4c1ad31e486a887038d7ea4c68000001ca096a8282da59269def751295f6fdf61e65c00b2708f40c0258e9ad996f55820efa0abc6657cdd355c650b5e94aab6c8e2d73af403aa41e3bc99fe57fe3d46b899d1",
      "networkId": 0,
      "chainId": 0
    }
  ]
}