{
  "hash": "0xd8e62dc6118d95f17d9d7093b505d51dfd430e860260e8b27ae1a3bc1a9eb4b2",
  "parentHash": "0xb77e4a4b1091415750d99bed652f38248bf5205b8e14b08584c1009f0ae4107d",
  "number": 71211,
  "timestamp": 1439332497,
  "nonce": "0x0ea6221a2e673b2e",
  "difficulty": 2144579624771,
  "gasLimit": {
    "_hex": "0x2fefd8"
  },
  "gasUsed": {
    "_hex": "0x5208"
  },
  "miner": "0x9271AB1be3177bF3E3B684a8783698F1B9D600a2",
  "extraData": "0x476574682f76312e302e312f77696e646f77732f676f312e342e32",
  "transactions": [
    {
      "hash": "0xd03c16d6138e8e9cf4ec1c1eac5d4fa6c3138a9871ff14abca23fa1ec7a15f57",
      "blockHash": "0xd8e62dc6118d95f17d9d7093b505d51dfd430e860260e8b27ae1a3bc1a9eb4b2",
      "blockNumber": 71211,
      "transactionIndex": 0,
      "confirmations": null,
      "from": "0x32Be343B94f860124dC4fEe278FDCBD38C102D88",
      "gasPrice": {
        "_hex": "0xcb2157bfd"
      },
      "gasLimit": {
        "_hex": "0x5208"
      },
      "to": "0x120A270bbC009644e35F0bB6ab13f95b8199c4ad",
      "value": {
        "_hex": "0xd8d726b7177a800000"
      },
      "nonce": 266,
      "data": "0x",
      "r": "0xfaddf2716ea1b550fbc2aa07dd8ce1508d3022e306c1f29cf407f1c871ecabcc",
      "s": "0x318e1e6ca5b9f8141408028f6fea8c82f6e0c5f5f015a6ccd7fa1fb20f7f6fc8",
      "v": 28,
      "creates": null,
      "raw": "0xf86f82010a850cb2157bfd82520894120a270bbc009644e35f0bb6ab13f95b8199c4ad89d8d726b7177a800000801ca0faddf2716ea1b550fbc2aa07dd8ce1508d3022e306c1f29cf407f1c871ecabcca0318e1e6ca5b9f8141408028f6fea8c82f6e0c5f5f015a6ccd7fa1fb20f7f6fc8",
      "networkId": 0,
      "chainId": 0
    }
  ]
}