{
  "hash": "0x36dca57256f365909ebdd20fedf0949d6a7693d58c09105c1a6b235e3e22db7e",
  "parentHash": "0x25934ccd2033cf2a0623316619e3d0b02744cf0f9b576ec63e32fb5b2d280285",
  "number": 47722,
  "timestamp": 1438945400,
  "nonce": "0x055ef47897c50dcc",
  "difficulty": 1443135026140,
  "gasLimit": {
    "_hex": "0xe98d"
  },
  "gasUsed": {
    "_hex": "0xa674"
  },
  "miner": "0xf927a40C8B7F6E07c5af7FA2155B4864a4112B13",
  "extraData": "0x476574682f76312e302e312f6c696e75782f676f312e342e32",
  "transactions": [
    {
      "hash": "0x2970e0bc059d91f42f2e4ed3eebdac3620c96d820aace947b76137ad0c8cdf62",
      "blockHash": "0x36dca57256f365909ebdd20fedf0949d6a7693d58c09105c1a6b235e3e22db7e",
      "blockNumber": 47722,
      "transactionIndex": 0,
      "confirmations": null,
      "from": "0x35a549e8fD6c368D6DCCa6D2E7d18e4db95F5284",
      "gasPrice": {
        "_hex": "0xda5196c40"
      },
      "gasLimit": {
        "_hex": "0x9c40"
      },
      "to": "0x2910543Af39abA0Cd09dBb2D50200b3E800A63D2",
      "value": {
        "_hex": "0x56bc75e2d63100000"
      },
      "nonce": 2,
      "data": "0x454e34433248304a30",
      "r": "0x3c50bfd3e692c789d1304f20b1c35cbf5371b3d2e2569034ff63c5f125b4146e",
      "s": "0x35f410c2ce6999ecff14ed54d65113bb3caa1dce6621a3404b5551810945dcf3",
      "v": 28,
      "creates": null,
      "raw": "0xf87602850da5196c40829c40942910543af39aba0cd09dbb2d50200b3e800a63d289056bc75e2d6310000089454e34433248304a301ca03c50bfd3e692c789d1304f20b1c35cbf5371b3d2e2569034ff63c5f125b4146ea035f410c2ce6999ecff14ed54d65113bb3caa1dce6621a3404b5551810945dcf3",
      "networkId": 0,
      "chainId": 0
    },
    {
      "hash": "0x0aa6693a9e6b0e08efbfc15776c83d8c0bdd90bc03bbe39a2f344f88f678d912",
      "blockHash": "0x36dca57256f365909ebdd20fedf0949d6a7693d58c09105c1a6b235e3e22db7e",
      "blockNumber": 47722,
      "transactionIndex": 1,
      "confirmations": null,
      "from": "0x87898CE53471043FcCa0a2aF4E1dC6d8B3fCf607",
      "gasPrice": {
        "_hex": "0xd69f22fa7"
      },
      "gasLimit": {
        "_hex": "0x5208"
      },
      "to": "0xBFdD9820a04283b289957956353b5F3C1F665EcF",
      "value": {
        "_hex": "0x19274b259f6540000"
      },
      "nonce": 2,
      "data": "0x",
      "r": "0x3ece96061220c2a7fb777417836a142db134ced4c0a98e9e5be76d66aee84ebb",
      "s": "0x21905d15ce0a3e235f003ec09fce865d01d3b68bf66b4b1e20c64507ca2534d1",
      "v": 28,
      "creates": null,
      "raw": "0xf86d02850d69f22fa782520894bfdd9820a04283b289957956353b5f3c1f665ecf89019274b259f6540000801ca03ece96061220c2a7fb777417836a142db134ced4c0a98e9e5be76d66aee84ebba021905d15ce0a3e235f003ec09fce865d01d3b68bf66b4b1e20c64507ca2534d1",
      "networkId": 0,
      "chainId": 0
    }
  ]
}