{
  "hash": "0x3a5d26caae9f69fe00b1f64d15475a1d6e01a5595d36fce0346388838cf72ca1",
  "parentHash": "0x961bcc1f6a64214c267b9746fec33c17b3819da6be13b64becd27df8b389bcce",
  "number": 64669,
  "timestamp": 1439224511,
  "nonce": "0x60f887770df7c9bf",
  "difficulty": 1886677151977,
  "gasLimit": {
    "_hex": "0x2fefd8"
  },
  "gasUsed": {
    "_hex": "0x5208"
  },
  "miner": "0x9D49F602b0fdb924Bd63DDE2Bd0907E4A07c63a7",
  "extraData": "0x476574682f76312e302e312f6c696e75782f676f312e342e32",
  "transactions": [
    {
      "hash": "0x7d2e1b471133379c11f1bc4b7bcc92b57171914eedef9d526a7ab3a28bc159cb",
      "blockHash": "0x3a5d26caae9f69fe00b1f64d15475a1d6e01a5595d36fce0346388838cf72ca1",
      "blockNumber": 64669,
      "transactionIndex": 0,
      "confirmations": null,
      "from": "0x2910543Af39abA0Cd09dBb2D50200b3E800A63D2",
      "gasPrice": {
        "_hex": "0xd54865e8e"
      },
      "gasLimit": {
        "_hex": "0x5208"
      },
      "to": "0xAca1c2275abD87B31518221C1fa80E9d34151A71",
      "value": {
        "_hex": "0x89521a12f47d8000"
      },
      "nonce": 148,
      "data": "0x",
      "r": "0x0da1a834760c31129ea3a121e609bdcae822dbaf134a5743ec2e4f21de1b7ffb",
      "s": "0x2ba5f296e76c8d0e99a2134ce6f9360665f44356aa833f23830ac115213f4dc9",
      "v": 27,
      "creates": null,
      "raw": "0xf86d8194850d54865e8e82520894aca1c2275abd87b31518221c1fa80e9d34151a718889521a12f47d8000801ba00da1a834760c31129ea3a121e609bdcae822dbaf134a5743ec2e4f21de1b7ffba02ba5f296e76c8d0e99a2134ce6f9360665f44356aa833f23830ac115213f4dc9",
      "networkId": 0,
      "chainId": 0
    }
  ]
}