{
  "hash": "0xf9108a30021f69b7ed09866b4d07b32b21130f1c0c179687cb6c9b3be0002942",
  "parentHash": "0x599d171ae3a1087381645ccd74290be2ee401c7886fdda66ee4ad78b951d4d20",
  "number": 48694,
  "timestamp": 1438961235,
  "nonce": "0x5c03107403a2359f",
  "difficulty": 1472865453215,
  "gasLimit": {
    "_hex": "0x1c27d"
  },
  "gasUsed": {
    "_hex": "0xfae0"
  },
  "miner": "0x580992B51e3925e23280EfB93d3047C82f17E038",
  "extraData": "0x476574682f76312e302e312f6c696e75782f676f312e342e32",
  "transactions": [
    {
      "hash": "0xff297589886db8fbc3ebf40369c5119c80839b5ec53d5d4393de7c4cf1b622af",
      "blockHash": "0xf9108a30021f69b7ed09866b4d07b32b21130f1c0c179687cb6c9b3be0002942",
      "blockNumber": 48694,
      "transactionIndex": 0,
      "confirmations": null,
      "from": "0xd7C9Da7F000be9dcD742D6437dE28669DAFf0f4B",
      "gasPrice": {
        "_hex": "0x1050d6eeaf3"
      },
      "gasLimit": {
        "_hex": "0x15f90"
      },
      "to": "0x2910543Af39abA0Cd09dBb2D50200b3E800A63D2",
      "value": {
        "_hex": "0x69d17119dc5a80000"
      },
      "nonce": 0,
      "data": "0x454e3651444d473638",
      "r": "0xcbb617d8e3ba574a9f9e50bcb092cfb73e0bf6dcc84b3e00ee0afe4948ed4a30",
      "s": "0x7fd865c944d07f87ad370830dc9e47ddcab72e72925852aeb672b1696bc88628",
      "v": 28,
      "creates": null,
      "raw": "0xf878808601050d6eeaf383015f90942910543af39aba0cd09dbb2d50200b3e800a63d289069d17119dc5a8000089454e3651444d4736381ca0cbb617d8e3ba574a9f9e50bcb092cfb73e0bf6dcc84b3e00ee0afe4948ed4a30a07fd865c944d07f87ad370830dc9e47ddcab72e72925852aeb672b1696bc88628",
      "networkId": 0,
      "chainId": 0
    },
    {
      "hash": "0xd63a72ed825b69db7a63ca4b2d7615b491b0ae3a8c11dc70a8be6f9120c27deb",
      "blockHash": "0xf9108a30021f69b7ed09866b4d07b32b21130f1c0c179687cb6c9b3be0002942",
      "blockNumber": 48694,
      "transactionIndex": 1,
      "confirmations": null,
      "from": "0x241361559FEEF80Ef137302153Bd9Ed2f25db3eF",
      "gasPrice": {
        "_hex": "0xdd877c0f9"
      },
      "gasLimit": {
        "_hex": "0x15f90"
      },
      "to": "0x2910543Af39abA0Cd09dBb2D50200b3E800A63D2",
      "value": {
        "_hex": "0x4563918244f40000"
      },
      "nonce": 0,
      "data": "0x454e44364751573147",
      "r": "0x356afd2ad6615ddd3bec8ee1e801ef60832bdce84da5333491e382667d2c5ee0",
      "s": "0x2819385c8c392ba330d51a394e26bd71860947a0830b3919eb590100f4741d30",
      "v": 28,
      "creates": null,
      "raw": "0xf87680850dd877c0f983015f90942910543af39aba0cd09dbb2d50200b3e800a63d2884563918244f4000089454e443647515731471ca0356afd2ad6615ddd3bec8ee1e801ef60832bdce84da5333491e382667d2c5ee0a02819385c8c392ba330d51a394e26bd71860947a0830b3919eb590100f4741d30",
      "networkId": 0,
      "chainId": 0
    },
    {
      "hash": "0xc931feb0d63b170ec83667b7eaf203c648d7e0e2d9c626986344fef84a54de37",
      "blockHash": "0xf9108a30021f69b7ed09866b4d07b32b21130f1c0c179687cb6c9b3be0002942",
      "blockNumber": 48694,
      "transactionIndex": 2,
      "confirmations": null,
      "from": "0xf06A854a3c5Dc36d1C49F4c87D6Db333b57E4ADD",
      "gasPrice": {
        "_hex": "0xcf3b5a618"
      },
      "gasLimit": {
        "_hex": "0x55f0"
      },
      "to": "0x2910543Af39abA0Cd09dBb2D50200b3E800A63D2",
      "value": {
        "_hex": "0x4563918244f40000"
      },
      "nonce": 1,
      "data": "0x",
      "r": "0x522591dfe5bf0b0742673dbcea02d0a348b505e2845b4894f8cce40ed222b720",
      "s": "0x3c63c142d726576c365359497141346aaa0126c16f207d97211847ed16c7ba3d",
      "v": 28,
      "creates": null,
      "raw": "0xf86c01850cf3b5a6188255f0942910543af39aba0cd09dbb2d50200b3e800a63d2884563918244f40000801ca0522591dfe5bf0b0742673dbcea02d0a348b505e2845b4894f8cce40ed222b720a03c63c142d726576c365359497141346aaa0126c16f207d97211847ed16c7ba3d",
      "networkId": 0,
      "chainId": 0
    }
  ]
}