{
  "hash": "0x04760e8c6767f8ea1149071652c166885ded9740bf1b47f83758f1e2d23c905e",
  "parentHash": "0x1e285e221649209bba55016563f0add0e3674f121f48acdb52a67346cda3d42b",
  "number": 65874,
  "timestamp": 1439244534,
  "nonce": "0x15f1aaf3a2d5202d",
  "difficulty": 1943438200001,
  "gasLimit": {
    "_hex": "0x2fefd8"
  },
  "gasUsed": {
    "_hex": "0xa410"
  },
  "miner": "0x3222BA3F3e79eA0e31467EEE7639B57923558cCD",
  "extraData": "0x",
  "transactions": [
    {
      "hash": "0x9c00b46a69d854d9422ad8e4481c3beab3b735ddf416c39b590aa3296159c189",
      "blockHash": "0x04760e8c6767f8ea1149071652c166885ded9740bf1b47f83758f1e2d23c905e",
      "blockNumber": 65874,
      "transactionIndex": 0,
      "confirmations": null,
      "from": "0xC99478b218E58F45783fA70f0507cf614938E67d",
      "gasPrice": {
        "_hex": "0xd3abbc919"
      },
      "gasLimit": {
        "_hex": "0x15f90"
      },
      "to": "0xC3fe64D1af00F0d9c324E4387EF7533f7D788e95",
      "value": {
        "_hex": "0x16345785d8a0000"
      },
      "nonce": 0,
      "data": "0x",
      "r": "0xfab1de8daf11ac2a0ea9afb76b2e2f64d9df8cffdcd905b0bf8b2dcf92ce1577",
      "s": "0x0ee53df30b117725770b1a179ea02d67319e038ee038cf4c3d28ac006ef51248",
      "v": 27,
      "creates": null,
      "raw": "0xf86d80850d3abbc91983015f9094c3fe64d1af00f0d9c324e4387ef7533f7d788e9588016345785d8a0000801ba0fab1de8daf11ac2a0ea9afb76b2e2f64d9df8cffdcd905b0bf8b2dcf92ce1577a00ee53df30b117725770b1a179ea02d67319e038ee038cf4c3d28ac006ef51248",
      "networkId": 0,
      "chainId": 0
    },
    {
      "hash": "0xfb71597e57a8c4d85d0a2bb09a4dfeb34f8453d409394cb900757c96da3dfc5c",
      "blockHash": "0x04760e8c6767f8ea1149071652c166885ded9740bf1b47f83758f1e2d23c905e",
      "blockNumber": 65874,
      "transactionIndex": 1,
      "confirmations": null,
      "from": "0x120A270bbC009644e35F0bB6ab13f95b8199c4ad",
      "gasPrice": {
        "_hex": "0xd0883582f"
      },
      "gasLimit": {
        "_hex": "0x15f90"
      },
      "to": "0xC5804Fa54A994b2088fcD6a214E15093d0fc3b64",
      "value": {
        "_hex": "0x666e765d084b24800"
      },
      "nonce": 136,
      "data": "0x",
      "r": "0xa88ae4fa62a3569d1dd734e55daf165093452a3cbd55bbd23a7ea5073f45c5dc",
      "s": "0x18bd46173f5b7190bd2b7d7b7783ca70867714b387d543e1f426ca15d53c8c2d",
      "v": 27,
      "creates": null,
      "raw": "0xf86f8188850d0883582f83015f9094c5804fa54a994b2088fcd6a214e15093d0fc3b64890666e765d084b24800801ba0a88ae4fa62a3569d1dd734e55daf165093452a3cbd55bbd23a7ea5073f45c5dca018bd46173f5b7190bd2b7d7b7783ca70867714b387d543e1f426ca15d53c8c2d",
      "networkId": 0,
      "chainId": 0
    }
  ]
}