{
  "hash": "0x0674c6652f31cae4d75c4ce19c5fe8fbd0cee25a03330d49c6c7b93110692792",
  "parentHash": "0xc0de1c7eb245fcefa5e89deafc1d0190178a7d6c6f0d79598319cc9b67cb6b4c",
  "number": 70720,
  "timestamp": 1439324502,
  "nonce": "0xea12d48f060b3a08",
  "difficulty": 2135300858785,
  "gasLimit": {
    "_hex": "0x2fefd5"
  },
  "gasUsed": {
    "_hex": "0x5208"
  },
  "miner": "0xbb7B8287f3F0a933474a79eAe42CBCa977791171",
  "extraData": "0x476574682f4c5649562f76312e302e312f6c696e75782f676f312e342e32",
  "transactions": [
    {
      "hash": "0xd97bdd920b7b4e063905e74ccc50a87045c3baa06bfa519f77fa68decd0e138e",
      "blockHash": "0x0674c6652f31cae4d75c4ce19c5fe8fbd0cee25a03330d49c6c7b93110692792",
      "blockNumber": 70720,
      "transactionIndex": 0,
      "confirmations": null,
      "from": "0x32Be343B94f860124dC4fEe278FDCBD38C102D88",
      "gasPrice": {
        "_hex": "0xd1cf3de63"
      },
      "gasLimit": {
        "_hex": "0x5208"
      },
      "to": "0x15dF931fE33cbe8bB4a9e10158e1F45d95432A33",
      "value": {
        "_hex": "0xb1a2bc2ec50000"
      },
      "nonce": 255,
      "data": "0x",
      "r": "0x7d3a4dd7f14ff092135e12bb27e5ec030280491ce8e407df2ecc3fe7cde0cecf",
      "s": "0x5fdcb648214d78123b50224d72fc931654d3a1f522632e7ad672d56905842b82",
      "v": 28,
      "creates": null,
      "raw": "0xf86c81ff850d1cf3de638252089415df931fe33cbe8bb4a9e10158e1f45d95432a3387b1a2bc2ec50000801ca07d3a4dd7f14ff092135e12bb27e5ec030280491ce8e407df2ecc3fe7cde0cecfa05fdcb648214d78123b50224d72fc931654d3a1f522632e7ad672d56905842b82",
      "networkId": 0,
      "chainId": 0
    }
  ]
}