{
  "hash": "0xafc04bf20155d612a394082d7da0c791a1c2f91ee7e910e77b88387efd3121e4",
  "parentHash": "0xe351ef16429c843b463ae0744600af74230d069a4f538fcadf0beebb941198c8",
  "number": 68559,
  "timestamp": 1439289987,
  "nonce": "0xe95d3f7b97e8c495",
  "difficulty": 2013316031470,
  "gasLimit": {
    "_hex": "0x2fefd8"
  },
  "gasUsed": {
    "_hex": "0xf618"
  },
  "miner": "0x107C98584d4B18bC54E1D74F4d7a0bF505Ca466f",
  "extraData": "0x",
  "transactions": [
    {
      "hash": "0x78029d18b416ede62a7f0a600196180653d64395036571db5c23c622986a92d8",
      "blockHash": "0xafc04bf20155d612a394082d7da0c791a1c2f91ee7e910e77b88387efd3121e4",
      "blockNumber": 68559,
      "transactionIndex": 0,
      "confirmations": null,
      "from": "0xe246e5261B55008d0eE8c06dd22E15eBdF1C3BD3",
      "gasPrice": {
        "_hex": "0xba43b7400"
      },
      "gasLimit": {
        "_hex": "0x5208"
      },
      "to": "0xB3F9652e68fac0B3577b7f6E1375c80b17Cb809F",
      "value": {
        "_hex": "0x7c58ada8ff2000"
      },
      "nonce": 1,
      "data": "0x",
      "r": "0x080e16462afbadbaff0903e483ca8ecec690f4fbf5deaf91f116b885ca25d570",
      "s": "0x26efbe4e5d98a18eda31714c77bd0eebd0c9a51042af4d627d13f48a7a4d5519",
      "v": 28,
      "creates": null,
      "raw": "0xf86b01850ba43b740082520894b3f9652e68fac0b3577b7f6e1375c80b17cb809f877c58ada8ff2000801ca0080e16462afbadbaff0903e483ca8ecec690f4fbf5deaf91f116b885ca25d570a026efbe4e5d98a18eda31714c77bd0eebd0c9a51042af4d627d13f48a7a4d5519",
      "networkId": 0,
      "chainId": 0
    },
    {
      "hash": "0x50a3cb02ca701209ae866ae86141a4637c7bdd4dbebc829c1a956b36431a07d5",
      "blockHash": "0xafc04bf20155d612a394082d7da0c791a1c2f91ee7e910e77b88387efd3121e4",
      "blockNumber": 68559,
      "transactionIndex": 1,
      "confirmations": null,
      "from": "0x3414F3c013dfb3118e4a008f22dcefDC539E82c9",
      "gasPrice": {
        "_hex": "0xba43b7400"
      },
      "gasLimit": {
        "_hex": "0x5208"
      },
      "to": "0xE0688Cf63BF77eBf4870B29343389ae0D423b061",
      "value": {
        "_hex": "0x7c58ada8ff2000"
      },
      "nonce": 1,
      "data": "0x",
      "r": "0xac9aa7d79e2743040b8fdb66d0aa6ded97a984daeddc6944582b7f7df0b3ab19",
      "s": "0x1b0d71d0b1734c0853d95b50a229031d238268ee5fa1e7676fff8f81462a3bab",
      "v": 28,
      "creates": null,
      "raw": "0xf86b01850ba43b740082520894e0688cf63bf77ebf4870b29343389ae0d423b061877c58ada8ff2000801ca0ac9aa7d79e2743040b8fdb66d0aa6ded97a984daeddc6944582b7f7df0b3ab19a01b0d71d0b1734c0853d95b50a229031d238268ee5fa1e7676fff8f81462a3bab",
      "networkId": 0,
      "chainId": 0
    },
    {
      "hash": "0x0981ed70b6714e5c01b621b409c4d336d6ac4e28a07fff0c37ba076fc6dbc5d3",
      "blockHash": "0xafc04bf20155d612a394082d7da0c791a1c2f91ee7e910e77b88387efd3121e4",
      "blockNumber": 68559,
      "transactionIndex": 2,
      "confirmations": null,
      "from": "0x966071ddBB960BbB8196b02aC1E0Bc97fcd65C15",
      "gasPrice": {
        "_hex": "0xba43b7400"
      },
      "gasLimit": {
        "_hex": "0x5208"
      },
      "to": "0x43a2e50801BBA4EAAEDdf32821a6C80aec6cdA4D",
      "value": {
        "_hex": "0x7c58ada8ff2000"
      },
      "nonce": 1,
      "data": "0x",
      "r": "0xe22ac3e8bcd6d69eb8082f444952b9a35041d71f6ab523f9ddc7fab844697430",
      "s": "0x320804059acb601f9b3a02bda2efa481395e0c34e71016bf9edaac93c92134ce",
      "v": 27,
      "creates": null,
      "raw": "0xf86b01850ba43b74008252089443a2e50801bba4eaaeddf32821a6c80aec6cda4d877c58ada8ff2000801ba0e22ac3e8bcd6d69eb8082f444952b9a35041d71f6ab523f9ddc7fab844697430a0320804059acb601f9b3a02bda2efa481395e0c34e71016bf9edaac93c92134ce",
      "networkId": 0,
      "chainId": 0
    }
  ]
}