{
  "hash": "0xdc1620857272a798b8734241a2d619787e43243b66f39119dbc45872ad8e6c60",
  "parentHash": "0xec4019a27e833a64e4fdebbdda066b96233eb20223d6f1d350c8962bdd02b67e",
  "number": 82598,
  "timestamp": 1439522009,
  "nonce": "0x4526ebb39be229b8",
  "difficulty": 2371770937195,
  "gasLimit": {
    "_hex": "0x2fefd8"
  },
  "gasUsed": {
    "_hex": "0x5208"
  },
  "miner": "0x0089508679abF8c71BF6781687120e3E6a84584D",
  "extraData": "0x",
  "transactions": [
    {
      "hash": "0x4bb7088edc4af2d031e5b4f5ffd6a190db0f62577f25314012a1692c415b0ff2",
      "blockHash": "0xdc1620857272a798b8734241a2d619787e43243b66f39119dbc45872ad8e6c60",
      "blockNumber": 82598,
      "transactionIndex": 0,
      "confirmations": null,
      "from": "0xC8224326e29eD30AEEC1B70ec238A818169ecaBA",
      "gasPrice": {
        "_hex": "0xcd6dd9911"
      },
      "gasLimit": {
        "_hex": "0x15f90"
      },
      "to": "0x27A2f708f13CFE24f8e5d6E8b7D8E971D2449Ba0",
      "value": {
        "_hex": "0xde0b6b3a7640000"
      },
      "nonce": 5,
      "data": "0x",
      "r": "0x125b79d2911f576448c80d75a13c553f801f22fa88f4952deb21e72c9e262ebe",
      "s": "0x425696d8b76c48f27ea5f098bc000d75cf0bd1f9f13b4cf33feb40b3f2938a5c",
      "v": 27,
      "creates": null,
      "raw": "0xf86d05850cd6dd991183015f909427a2f708f13cfe24f8e5d6e8b7d8e971d2449ba0880de0b6b3a7640000801ba0125b79d2911f576448c80d75a13c553f801f22fa88f4952deb21e72c9e262ebea0425696d8b76c48f27ea5f098bc000d75cf0bd1f9f13b4cf33feb40b3f2938a5c",
      "networkId": 0,
      "chainId": 0
    }
  ]
}