{
  "hash": "0xe489691dca4db5684e172e31db4446d9d43bcdb2a5c0ee550100d38dca0e540c",
  "parentHash": "0xbb20a62dc2bbda818956c6378cabdf5b46479b55892f056311903b254f26b72c",
  "number": 67135,
  "timestamp": 1439266561,
  "nonce": "0x00a892d8645f3c7d",
  "difficulty": 1927083206259,
  "gasLimit": {
    "_hex": "0x2fefd8"
  },
  "gasUsed": {
    "_hex": "0x5208"
  },
  "miner": "0x47ff6576639c2e94762eA5443978D7681C0E78DC",
  "extraData": "0x476574682f76312e302e312f6c696e75782f676f312e342e32",
  "transactions": [
    {
      "hash": "0x6f8eb6477ae20286cb065a05e7c63057213de9cb8c133b0c910fb3a255df539c",
      "blockHash": "0xe489691dca4db5684e172e31db4446d9d43bcdb2a5c0ee550100d38dca0e540c",
      "blockNumber": 67135,
      "transactionIndex": 0,
      "confirmations": null,
      "from": "0x79d5794171E11dd5C2f0e26E1C187319db2FE6f7",
      "gasPrice": {
        "_hex": "0xcb5d78bba"
      },
      "gasLimit": {
        "_hex": "0x5208"
      },
      "to": "0x32Be343B94f860124dC4fEe278FDCBD38C102D88",
      "value": {
        "_hex": "0x455f7edd382ec000"
      },
      "nonce": 8,
      "data": "0x",
      "r": "0xf084b7608b5c38cd5c982ca686abde91d6c3f2e569f7a6eb3493fea7877c6e0d",
      "s": "0x6c2dbe5f3b5dfc4a38439c479aa1a5b3f27f0dd261e3d951b23f380c96da7251",
      "v": 27,
      "creates": null,
      "raw": "0xf86c08850cb5d78bba8252089432be343b94f860124dc4fee278fdcbd38c102d8888455f7edd382ec000801ba0f084b7608b5c38cd5c982ca686abde91d6c3f2e569f7a6eb3493fea7877c6e0da06c2dbe5f3b5dfc4a38439c479aa1a5b3f27f0dd261e3d951b23f380c96da7251",
      "networkId": 0,
      "chainId": 0
    }
  ]
}