{
  "hash": "0x9ecdd7928d5fcb2fb8c7f24ee6c4f555ad14cc44f962ebcdd930c703d81b68f3",
  "parentHash": "0xcfce8c2c33e4b64ac8fae2b4a156311eeda2f79e3e6ac4468aeac56f1da84d6b",
  "number": 102611,
  "timestamp": 1439840574,
  "nonce": "0x38dfa6a9b48468bf",
  "difficulty": 4007255855056,
  "gasLimit": {
    "_hex": "0x2fefd8"
  },
  "gasUsed": {
    "_hex": "0x5208"
  },
  "miner": "0xe6A7a1d47ff21B6321162AEA7C6CB457D5476Bca",
  "extraData": "0x476574682f76312e302e312d38326566323666362f6c696e75782f676f312e34",
  "transactions": [
    {
      "hash": "0xade11af97f905f2990d695083b8127cef9f1c0d6df4b4e7c0fcf58ee8ab0f900",
      "blockHash": "0x9ecdd7928d5fcb2fb8c7f24ee6c4f555ad14cc44f962ebcdd930c703d81b68f3",
      "blockNumber": 102611,
      "transactionIndex": 0,
      "confirmations": null,
      "from": "0xFBb1b73C4f0BDa4f67dcA266ce6Ef42f520fBB98",
      "gasPrice": {
        "_hex": "0xd4377b683"
      },
      "gasLimit": {
        "_hex": "0x5208"
      },
      "to": "0x6d813Ff76e76D9C387B6F3ADeD36009f6E1B9d7a",
      "value": {
        "_hex": "0x8aa39c121a270000"
      },
      "nonce": 99,
      "data": "0x",
      "r": "0xb157b4767cbb96780eb060c8f6691ab568b3f88602b4a99fc21311d6c8809037",
      "s": "0x1c540b8b23c1628c2c67d3d65be53d17021719eb7661eb0b5e68d312f40af63c",
      "v": 28,
      "creates": null,
      "raw": "0xf86c63850d4377b683825208946d813ff76e76d9c387b6f3aded36009f6e1b9d7a888aa39c121a270000801ca0b157b4767cbb96780eb060c8f6691ab568b3f88602b4a99fc21311d6c8809037a01c540b8b23c1628c2c67d3d65be53d17021719eb7661eb0b5e68d312f40af63c",
      "networkId": 0,
      "chainId": 0
    }
  ]
}