{
  "hash": "0x19e84cb551a18bcf4d3a9d695b2f61bfba9743a1504b555eed66c859452ef365",
  "parentHash": "0xbaaafa0b01369c5c99f34309882622468bb85a60d9f7609f64e4b7ef3014fcd9",
  "number": 50519,
  "timestamp": 1438990603,
  "nonce": "0xc67af3bc22594b62",
  "difficulty": 1512626744135,
  "gasLimit": {
    "_hex": "0x68301"
  },
  "gasUsed": {
    "_hex": "0xa8d8"
  },
  "miner": "0x5F8F73E26CdF436f19Cb24C82F90A15AFe55b592",
  "extraData": "0x476574682f76312e302e312f77696e646f77732f676f312e342e32",
  "transactions": [
    {
      "hash": "0xd0e81cbefded46f30a1c3aa1d89b5555953937c3dd627f628a0090aede418c96",
      "blockHash": "0x19e84cb551a18bcf4d3a9d695b2f61bfba9743a1504b555eed66c859452ef365",
      "blockNumber": 50519,
      "transactionIndex": 0,
      "confirmations": null,
      "from": "0x9cB28Ac1A20A106f7F373692C5Ce4C73f13732A1",
      "gasPrice": {
        "_hex": "0x110c8f7d8de"
      },
      "gasLimit": {
        "_hex": "0xc350"
      },
      "to": "0x2910543Af39abA0Cd09dBb2D50200b3E800A63D2",
      "value": {
        "_hex": "0x56bc75e2d63100000"
      },
      "nonce": 0,
      "data": "0x454e55564159363430",
      "r": "0xa7febfe21c9d730682eef002bb5e324995b7e47e01d2aae3de823c274f6c3b1d",
      "s": "0x2e0a4898463926c55a87da1ab6cdb93aa8855ed81421e2142deb5562106a7144",
      "v": 28,
      "creates": null,
      "raw": "0xf87780860110c8f7d8de82c350942910543af39aba0cd09dbb2d50200b3e800a63d289056bc75e2d6310000089454e555641593634301ca0a7febfe21c9d730682eef002bb5e324995b7e47e01d2aae3de823c274f6c3b1da02e0a4898463926c55a87da1ab6cdb93aa8855ed81421e2142deb5562106a7144",
      "networkId": 0,
      "chainId": 0
    },
    {
      "hash": "0x9c84fa54e4f12c1fcbfa87e085f2adc7e18159063436287d2178c3e6162c0183",
      "blockHash": "0x19e84cb551a18bcf4d3a9d695b2f61bfba9743a1504b555eed66c859452ef365",
      "blockNumber": 50519,
      "transactionIndex": 1,
      "confirmations": null,
      "from": "0x8aBEdC756E11B6Fe8EF40840F01efFe5Dc147331",
      "gasPrice": {
        "_hex": "0xdfc6cc011"
      },
      "gasLimit": {
        "_hex": "0x15f90"
      },
      "to": "0x2910543Af39abA0Cd09dBb2D50200b3E800A63D2",
      "value": {
        "_hex": "0x1c1a3ec5662a80000"
      },
      "nonce": 1,
      "data": "0x454e344d574d474d47",
      "r": "0x1cc4a096c48b4e0f2da3474048faf7e00ced6e70c8d41c2e2c3d1abf2d6c7afa",
      "s": "0x036a4132263c997bd42caa8f6c24996e0efc819156a1b4439d83e502d8c3673f",
      "v": 27,
      "creates": null,
      "raw": "0xf87701850dfc6cc01183015f90942910543af39aba0cd09dbb2d50200b3e800a63d28901c1a3ec5662a8000089454e344d574d474d471ba01cc4a096c48b4e0f2da3474048faf7e00ced6e70c8d41c2e2c3d1abf2d6c7afaa0036a4132263c997bd42caa8f6c24996e0efc819156a1b4439d83e502d8c3673f",
      "networkId": 0,
      "chainId": 0
    }
  ]
}