{
  "hash": "0xa8d393ae33a692a4c3d03ec19ea6b448d7b0897ae8d5a92b334ed09835d06dc3",
  "parentHash": "0xf310c29572f745b82175f4b7b19720b0711c8df4a192cbc9b99728e9054ac999",
  "number": 79916,
  "timestamp": 1439477263,
  "nonce": "0x425a7dcd31213b89",
  "difficulty": 2347179601960,
  "gasLimit": {
    "_hex": "0x2fefd8"
  },
  "gasUsed": {
    "_hex": "0x5208"
  },
  "miner": "0x580992B51e3925e23280EfB93d3047C82f17E038",
  "extraData": "0x476574682f76312e302e312f6c696e75782f676f312e342e32",
  "transactions": [
    {
      "hash": "0xb776695d81614db2af472f2bda35e0b73b2b9c2a898fca5b758061c177a91b86",
      "blockHash": "0xa8d393ae33a692a4c3d03ec19ea6b448d7b0897ae8d5a92b334ed09835d06dc3",
      "blockNumber": 79916,
      "transactionIndex": 0,
      "confirmations": null,
      "from": "0x32Be343B94f860124dC4fEe278FDCBD38C102D88",
      "gasPrice": {
        "_hex": "0xd116682e9"
      },
      "gasLimit": {
        "_hex": "0x5208"
      },
      "to": "0x95D26518548e038C30909c1B24E95c7Cb9CDbFd9",
      "value": {
        "_hex": "0x1156abf16a40f0000"
      },
      "nonce": 484,
      "data": "0x",
      "r": "0x4976791a86ec573d497fb19ed9fb8f86fbfcb6185403ae94090dca75c33db0e1",
      "s": "0x1a35fe6dcb07d2b8591199b4a05afda9343c99db8f08ad9573f203a4cfd95eaf",
      "v": 28,
      "creates": null,
      "raw": "0xf86f8201e4850d116682e98252089495d26518548e038c30909c1b24e95c7cb9cdbfd98901156abf16a40f0000801ca04976791a86ec573d497fb19ed9fb8f86fbfcb6185403ae94090dca75c33db0e1a01a35fe6dcb07d2b8591199b4a05afda9343c99db8f08ad9573f203a4cfd95eaf",
      "networkId": 0,
      "chainId": 0
    }
  ]
}