{
  "hash": "0x97d62e6728908a1c42a17df5de93495b1b5868b7a2e07b1b47d6e19bc8b5eb7e",
  "parentHash": "0xd7de3ac44bd047b7b6572d02727ae49d166b7d88e82db39c9788c3c56577e553",
  "number": 64408,
  "timestamp": 1439220209,
  "nonce": "0x74c1d4c4d2b3439c",
  "difficulty": 1872967469940,
  "gasLimit": {
    "_hex": "0x2fefd8"
  },
  "gasUsed": {
    "_hex": "0x5208"
  },
  "miner": "0xf8E0CA3Ed80bd541b94BEdCf259e8CF2141A9523",
  "extraData": "0x476574682f76312e302e312f77696e646f77732f676f312e342e32",
  "transactions": [
    {
      "hash": "0xd9db143414b1477b529cd6c04f15d84ffba0764776266a5a7ce35f345c037b6a",
      "blockHash": "0x97d62e6728908a1c42a17df5de93495b1b5868b7a2e07b1b47d6e19bc8b5eb7e",
      "blockNumber": 64408,
      "transactionIndex": 0,
      "confirmations": null,
      "from": "0x03B35D960c861Fe987C50380d76db9D6Ae1fa510",
      "gasPrice": {
        "_hex": "0xd600a1a1c"
      },
      "gasLimit": {
        "_hex": "0x5208"
      },
      "to": "0x1B636B7A496f044d7359596e353A104616436F6b",
      "value": {
        "_hex": "0xc249fdd327780000"
      },
      "nonce": 5,
      "data": "0x",
      "r": "0x8fbcd05a74b4f18905db444689c27bce755ef721cb0b3fefb733727c9461f781",
      "s": "0x5b54d5cca18139d69690a89474006f0f7f5a3a50519fdc5f5afdc1dda3fad0b8",
      "v": 27,
      "creates": null,
      "raw": "0xf86c05850d600a1a1c825208941b636b7a496f044d7359596e353a104616436f6b88c249fdd327780000801ba08fbcd05a74b4f18905db444689c27bce755ef721cb0b3fefb733727c9461f781a05b54d5cca18139d69690a89474006f0f7f5a3a50519fdc5f5afdc1dda3fad0b8",
      "networkId": 0,
      "chainId": 0
    }
  ]
}