{
  "hash": "0xdbcd7e79e9b2436c86df96fe6da5d6f0b193a09751c460d6d908dc083628fa4a",
  "parentHash": "0xca3dcfe683f3dace31bfd1029f5d2c5cfb3c232731195eb22a69c9a842a3e456",
  "number": 54931,
  "timestamp": 1439062679,
  "nonce": "0x4dcf00e11f7b1997",
  "difficulty": 1614057905800,
  "gasLimit": {
    "_hex": "0x2fefd8"
  },
  "gasUsed": {
    "_hex": "0x6ca63"
  },
  "miner": "0xbe4532E1B1Db5c913Cf553be76180c1777055403",
  "extraData": "0x476574682f686261722f76312e302e312f6c696e75782f676f312e342e32",
  "transactions": [
    {
      "hash": "0xa89d946b01fac7f0582370d2bb7a35afe746bce851c83c82a71c38deb9cfa409",
      "blockHash": "0xdbcd7e79e9b2436c86df96fe6da5d6f0b193a09751c460d6d908dc083628fa4a",
      "blockNumber": 54931,
      "transactionIndex": 0,
      "confirmations": null,
      "from": "0x1308A2e95c0160B90803ddCA9B9a5bb55E416d79",
      "gasPrice": {
        "_hex": "0xe8d4a51000"
      },
      "gasLimit": {
        "_hex": "0x15f90"
      },
      "to": "0x9C3ca57aFD1E6b12Fc5D00ebDfcC695Adcbb3F30",
      "value": {
        "_hex": "0xe0d1f62b31540000"
      },
      "nonce": 19,
      "data": "0x",
      "r": "0xcfa1fe7b4347f3802dc865f4032321c6e0e5be17c55774ae0b3c10a8643e2200",
      "s": "0x13c023bad19e0b1862c72d7a9a7285b053770c1a4ea60fc8d89532bf2368193e",
      "v": 27,
      "creates": null,
      "raw": "0xf86d1385e8d4a5100083015f90949c3ca57afd1e6b12fc5d00ebdfcc695adcbb3f3088e0d1f62b31540000801ba0cfa1fe7b4347f3802dc865f4032321c6e0e5be17c55774ae0b3c10a8643e2200a013c023bad19e0b1862c72d7a9a7285b053770c1a4ea60fc8d89532bf2368193e",
      "networkId": 0,
      "chainId": 0
    },
    {
      "hash": "0x764bca1c76a2ea5d0fa9302322ae8b112dabf149c8c9e0745969ad0ef7c1db67",
      "blockHash": "0xdbcd7e79e9b2436c86df96fe6da5d6f0b193a09751c460d6d908dc083628fa4a",
      "blockNumber": 54931,
      "transactionIndex": 1,
      "confirmations": null,
      "from": "0x8674c218F0351a62C3BA78C34FD2182A93Da94E2",
      "gasPrice": {
        "_hex": "0xd69058126"
      },
      "gasLimit": {
        "_hex": "0xf4240"
      },
      "to": null,
      "value": {
        "_hex": "0x0"
      },
      "nonce": 40,
      "data": "0x60606040526105e6806100136000396000f3006060604052361561006c5760e060020a60003504630a936fe5811461006e57806315853113146100e357806339bfc4a1146101165780636939cd971461014e578063affed0e0146101de578063c36948b5146101e7578063de6f24bb14610219578063fe1e3eca146102eb575b005b6040805160208181018352600080835233600160a060020a0316815260018252839020805484518184028101840190955280855261035694928301828280156100d957602002820191906000526020600020905b8160005054815260200190600101908083116100c2575b5050505050905090565b6103a060043560243560016020526000828152604090208054829081101561000257506000908152602090200154905081565b6103a0600435600160a060020a03331660009081526020818152604080832084845290915290205467ffffffffffffffff165b919050565b6103b260043560408051602081810183526000808352600160a060020a0333168152808252838120858252825283902060010180548451601f820184900484028101840190955280855292939290918301828280156101d257820191906000526020600020905b8154815290600101906020018083116101b557829003601f168201915b50505050509050610149565b6103a060025481565b61042060043560243560006020818152928152604080822090935290815220805467ffffffffffffffff169060010182565b60408051602060248035600481810135601f810185900485028601850190965285855261006c9590359460449490939290920191819084018382808284375094955050505050506002805460018181019092556000805467ffffffffffffffff1916600417815583518354818555848352929391928392916020601f929092018290047fb10e2d527612073b26eecdfd717e6a320cf44b4afac2b0732d9fcbe2b7fa0cf6908101928801821561048b579182015b8281111561048b5782518260005055916020019190600101906102cd565b61006c600435600160a060020a03331660009081526020818152604080832084845282528220805467ffffffffffffffff191681556001810180548482559084528284209192849261054e92601f01919091048101905b808211156105335760008155600101610342565b60405180806020018281038252838181518152602001915080519060200190602002808383829060006004602084601f0104600302600f01f1509050019250505060405180910390f35b60408051918252519081900360200190f35b60405180806020018281038252838181518152602001915080519060200190808383829060006004602084601f0104600302600f01f150905090810190601f1680156104125780820380516001836020036101000a031916815260200191505b509250505060405180910390f35b604051808367ffffffffffffffff16815260200180602001828103825283818154815260200191508054801561047b57820191906000526020600020905b81548152906001019060200180831161045e57829003601f168201915b5050935050505060405180910390f35b50610497929150610342565b5050600160a060020a038516600090815260208181526040808320868452825282208454815467ffffffffffffffff191667ffffffffffffffff9190911617815560018581018054918301805483825581875295859020889694959194601f019190910481019291821561053757600052602060002091601f016020900482015b82811115610537578254825591600101919060010190610518565b5090565b50610543929150610342565b505050505050505050565b505050600090505b600160a060020a0333166000908152600160205260409020548110156105e2576040600020805483919083908110156100025760009182526020909120015414156105da576001600050600033600160a060020a03168152602001908152602001600020600050818154811015610002579060005260206000209001600050600090555b600101610556565b505056",
      "r": "0x4e8222c3adb1a01221bdc92565e4310a0953bd326532a9f1e071670189b5d3f1",
      "s": "0x6e51d412eeb29a20ab8667b35cbe9fc93c510ad8fe4c3f471b106e655ac1aa83",
      "v": 28,
      "creates": "0x1e918DdDfAF23688EfD884e60F0D13Cf04B422c1",
      "raw": "0xf9064c28850d69058126830f42408080b905f960606040526105e6806100136000396000f3006060604052361561006c5760e060020a60003504630a936fe5811461006e57806315853113146100e357806339bfc4a1146101165780636939cd971461014e578063affed0e0146101de578063c36948b5146101e7578063de6f24bb14610219578063fe1e3eca146102eb575b005b6040805160208181018352600080835233600160a060020a0316815260018252839020805484518184028101840190955280855261035694928301828280156100d957602002820191906000526020600020905b8160005054815260200190600101908083116100c2575b5050505050905090565b6103a060043560243560016020526000828152604090208054829081101561000257506000908152602090200154905081565b6103a0600435600160a060020a03331660009081526020818152604080832084845290915290205467ffffffffffffffff165b919050565b6103b260043560408051602081810183526000808352600160a060020a0333168152808252838120858252825283902060010180548451601f820184900484028101840190955280855292939290918301828280156101d257820191906000526020600020905b8154815290600101906020018083116101b557829003601f168201915b50505050509050610149565b6103a060025481565b61042060043560243560006020818152928152604080822090935290815220805467ffffffffffffffff169060010182565b60408051602060248035600481810135601f810185900485028601850190965285855261006c9590359460449490939290920191819084018382808284375094955050505050506002805460018181019092556000805467ffffffffffffffff1916600417815583518354818555848352929391928392916020601f929092018290047fb10e2d527612073b26eecdfd717e6a320cf44b4afac2b0732d9fcbe2b7fa0cf6908101928801821561048b579182015b8281111561048b5782518260005055916020019190600101906102cd565b61006c600435600160a060020a03331660009081526020818152604080832084845282528220805467ffffffffffffffff191681556001810180548482559084528284209192849261054e92601f01919091048101905b808211156105335760008155600101610342565b60405180806020018281038252838181518152602001915080519060200190602002808383829060006004602084601f0104600302600f01f1509050019250505060405180910390f35b60408051918252519081900360200190f35b60405180806020018281038252838181518152602001915080519060200190808383829060006004602084601f0104600302600f01f150905090810190601f1680156104125780820380516001836020036101000a031916815260200191505b509250505060405180910390f35b604051808367ffffffffffffffff16815260200180602001828103825283818154815260200191508054801561047b57820191906000526020600020905b81548152906001019060200180831161045e57829003601f168201915b5050935050505060405180910390f35b50610497929150610342565b5050600160a060020a038516600090815260208181526040808320868452825282208454815467ffffffffffffffff191667ffffffffffffffff9190911617815560018581018054918301805483825581875295859020889694959194601f019190910481019291821561053757600052602060002091601f016020900482015b82811115610537578254825591600101919060010190610518565b5090565b50610543929150610342565b505050505050505050565b505050600090505b600160a060020a0333166000908152600160205260409020548110156105e2576040600020805483919083908110156100025760009182526020909120015414156105da576001600050600033600160a060020a03168152602001908152602001600020600050818154811015610002579060005260206000209001600050600090555b600101610556565b5050561ca04e8222c3adb1a01221bdc92565e4310a0953bd326532a9f1e071670189b5d3f1a06e51d412eeb29a20ab8667b35cbe9fc93c510ad8fe4c3f471b106e655ac1aa83",
      "networkId": 0,
      "chainId": 0
    }
  ]
}