{
  "hash": "0x973acc58aed5b898042e60c2145b88b747b7ce0a8ae85e3e5ad4e011f397afc5",
  "parentHash": "0x89f2c10c3ef9a17bb2b5ac036ad6ea555060dffa9621077c09cb14ca4e74d0ae",
  "number": 48057,
  "timestamp": 1438950620,
  "nonce": "0x96c57e9cdf3894c4",
  "difficulty": 1460801044269,
  "gasLimit": {
    "_hex": "0x12297"
  },
  "gasUsed": {
    "_hex": "0xf87c"
  },
  "miner": "0xf927a40C8B7F6E07c5af7FA2155B4864a4112B13",
  "extraData": "0x476574682f76312e302e312f6c696e75782f676f312e342e32",
  "transactions": [
    {
      "hash": "0xd7916dd948778495bc46c12fd9ae989511873e307b55e9210d87caf6c53b9005",
      "blockHash": "0x973acc58aed5b898042e60c2145b88b747b7ce0a8ae85e3e5ad4e011f397afc5",
      "blockNumber": 48057,
      "transactionIndex": 0,
      "confirmations": null,
      "from": "0xc47d9E6C75d388Aeb92574429dAD43A148f2f3ea",
      "gasPrice": {
        "_hex": "0x104c533c00"
      },
      "gasLimit": {
        "_hex": "0x546c"
      },
      "to": "0x2910543Af39abA0Cd09dBb2D50200b3E800A63D2",
      "value": {
        "_hex": "0x1bc16d674ec80000"
      },
      "nonce": 0,
      "data": "0x454e465935304d4630",
      "r": "0xd83f574119d7b72765ec722c0d13794617885a7d113258058c81d93d10e4adf8",
      "s": "0x2f807e66515d681a18dd2144f8436e996e0e9e5ce9ffb72e868e9a43dcda96b3",
      "v": 28,
      "creates": null,
      "raw": "0xf8758085104c533c0082546c942910543af39aba0cd09dbb2d50200b3e800a63d2881bc16d674ec8000089454e465935304d46301ca0d83f574119d7b72765ec722c0d13794617885a7d113258058c81d93d10e4adf8a02f807e66515d681a18dd2144f8436e996e0e9e5ce9ffb72e868e9a43dcda96b3",
      "networkId": 0,
      "chainId": 0
    },
    {
      "hash": "0x9a72db1a696995d0beb72eced87648342d1b74c89e46ab7399475dd280c8ad96",
      "blockHash": "0x973acc58aed5b898042e60c2145b88b747b7ce0a8ae85e3e5ad4e011f397afc5",
      "blockNumber": 48057,
      "transactionIndex": 1,
      "confirmations": null,
      "from": "0xa0E74ae010D51894734c308D612131056bB721AD",
      "gasPrice": {
        "_hex": "0xd736e9ac1"
      },
      "gasLimit": {
        "_hex": "0x5208"
      },
      "to": "0x32Be343B94f860124dC4fEe278FDCBD38C102D88",
      "value": {
        "_hex": "0x56bc30ec740058000"
      },
      "nonce": 4,
      "data": "0x",
      "r": "0xdf5a15ce3ee2a16d9df60606aca004713b2f61010be9466cfa46ecba629e6717",
      "s": "0x5b7171bb529450b6345a9d48ae03e20a15c0395e173a5e7a04e574d4262710c1",
      "v": 27,
      "creates": null,
      "raw": "0xf86d04850d736e9ac18252089432be343b94f860124dc4fee278fdcbd38c102d8889056bc30ec740058000801ba0df5a15ce3ee2a16d9df60606aca004713b2f61010be9466cfa46ecba629e6717a05b7171bb529450b6345a9d48ae03e20a15c0395e173a5e7a04e574d4262710c1",
      "networkId": 0,
      "chainId": 0
    },
    {
      "hash": "0x986be403645adcad97715c6e3e36b78a2644c4049afed182ea52e59f6571a14d",
      "blockHash": "0x973acc58aed5b898042e60c2145b88b747b7ce0a8ae85e3e5ad4e011f397afc5",
      "blockNumber": 48057,
      "transactionIndex": 2,
      "confirmations": null,
      "from": "0x3C4EaE3D92454e31e3E8f9F088A258759B4C3b5d",
      "gasPrice": {
        "_hex": "0xd736e9ac1"
      },
      "gasLimit": {
        "_hex": "0x5208"
      },
      "to": "0x32Be343B94f860124dC4fEe278FDCBD38C102D88",
      "value": {
        "_hex": "0xa5b7693b3471800"
      },
      "nonce": 1,
      "data": "0x",
      "r": "0x20a67ab5d20cdcd5959e500ca8d7fb2a5a89fb33e1200c51ea9e11a309431d32",
      "s": "0x61b6adeba3cd6210b22de57573d86505eb62b28732348d1de65903dde286f0a6",
      "v": 28,
      "creates": null,
      "raw": "0xf86c01850d736e9ac18252089432be343b94f860124dc4fee278fdcbd38c102d88880a5b7693b3471800801ca020a67ab5d20cdcd5959e500ca8d7fb2a5a89fb33e1200c51ea9e11a309431d32a061b6adeba3cd6210b22de57573d86505eb62b28732348d1de65903dde286f0a6",
      "networkId": 0,
      "chainId": 0
    }
  ]
}