{
  "hash": "0x9911cdbda6d27a10cecd73770eb41e50cec9d5274ccbdc04bbe5d3dbf204bc6d",
  "parentHash": "0x09371818cc40897d566abdfc98baaa80d1f0d05b68296d71764c5791e0e1950e",
  "number": 75855,
  "timestamp": 1439410533,
  "nonce": "0xcad5fc33717bcf4a",
  "difficulty": 2230953364212,
  "gasLimit": {
    "_hex": "0x2fefd8"
  },
  "gasUsed": {
    "_hex": "0x1b497"
  },
  "miner": "0x1217627fe41A00f0b828317F43E6d58F47dBfc43",
  "extraData": "0x476574682f76312e302e302d66313265303136312f6c696e75782f676f312e34",
  "transactions": [
    {
      "hash": "0x829029b2b23f72944c4282010c665ac5e5269a10e4cc7bb4edfeb95744031a89",
      "blockHash": "0x9911cdbda6d27a10cecd73770eb41e50cec9d5274ccbdc04bbe5d3dbf204bc6d",
      "blockNumber": 75855,
      "transactionIndex": 0,
      "confirmations": null,
      "from": "0x9724Ac4dc56e03379eBA5d157D1513EcC32cBD8f",
      "gasPrice": {
        "_hex": "0xd7cefbe6d"
      },
      "gasLimit": {
        "_hex": "0x493e0"
      },
      "to": "0xD79B4C6791784184e2755B2fC1659eaaB0f80456",
      "value": {
        "_hex": "0xde0b6b3a7640000"
      },
      "nonce": 14,
      "data": "0x8d2161860000000000000000000000000000000000000000000000000000000000000040ca947c9967b5e771345c56beb8612d5f2f76108576cd746f98b09d7101bccf8e",
      "r": "0x907ed9d12e92896599ca16f5a62be9b2a4d7d50275819fcad6764675ae399ebb",
      "s": "0x63cabb94a20761b8b2ae04cdfaa5007f2b5efc040f3f7607b2060742209fcf3c",
      "v": 27,
      "creates": null,
      "raw": "0xf8b20e850d7cefbe6d830493e094d79b4c6791784184e2755b2fc1659eaab0f80456880de0b6b3a7640000b8448d2161860000000000000000000000000000000000000000000000000000000000000040ca947c9967b5e771345c56beb8612d5f2f76108576cd746f98b09d7101bccf8e1ba0907ed9d12e92896599ca16f5a62be9b2a4d7d50275819fcad6764675ae399ebba063cabb94a20761b8b2ae04cdfaa5007f2b5efc040f3f7607b2060742209fcf3c",
      "networkId": 0,
      "chainId": 0
    }
  ]
}