{
  "hash": "0x375d18619a94a100a310d4fe2be934476b20160d7ebad14acb6050aba91aa3f8",
  "parentHash": "0xa842ec1b866e94d7d04718564e25dfe1555a40da44d1672404ea78ed023c11eb",
  "number": 75151,
  "timestamp": 1439398463,
  "nonce": "0x79900b71a3c7dab3",
  "difficulty": 2198696085827,
  "gasLimit": {
    "_hex": "0x2fefd8"
  },
  "gasUsed": {
    "_hex": "0x522d"
  },
  "miner": "0xbb7B8287f3F0a933474a79eAe42CBCa977791171",
  "extraData": "0x476574682f4c5649562f76312e302e312f6c696e75782f676f312e342e32",
  "transactions": [
    {
      "hash": "0xaba9f9bbf1beb98416bfa12b57f45e654d231ab1432d3dfa2eb2734da9386525",
      "blockHash": "0x375d18619a94a100a310d4fe2be934476b20160d7ebad14acb6050aba91aa3f8",
      "blockNumber": 75151,
      "transactionIndex": 0,
      "confirmations": null,
      "from": "0x326Be8F71bFb0379f989aAB1CC1fE37f0a771f60",
      "gasPrice": {
        "_hex": "0x1074ca06f5d"
      },
      "gasLimit": {
        "_hex": "0x493e0"
      },
      "to": "0xD79B4C6791784184e2755B2fC1659eaaB0f80456",
      "value": {
        "_hex": "0x0"
      },
      "nonce": 75,
      "data": "0x",
      "r": "0x20765b385b576cedbc0025650f7f9b0ab7c394071b8cc17284ae28b1bda3546d",
      "s": "0x6061d5914c0593675adde7bb4b87f5dea02887f9aa5e04bd6727d451279e207b",
      "v": 28,
      "creates": null,
      "raw": "0xf8664b8601074ca06f5d830493e094d79b4c6791784184e2755b2fc1659eaab0f8045680801ca020765b385b576cedbc0025650f7f9b0ab7c394071b8cc17284ae28b1bda3546da06061d5914c0593675adde7bb4b87f5dea02887f9aa5e04bd6727d451279e207b",
      "networkId": 0,
      "chainId": 0
    }
  ]
}