{
  "hash": "0xb890ac61e1fbea200936322c57f87783d50b6080ebcd4db2905068159fcb7c28",
  "parentHash": "0xea1752db66c6616079ef9b933f293ac62876fd163642da8651cb1c79a779b175",
  "number": 64896,
  "timestamp": 1439228000,
  "nonce": "0x1bf872c329630d53",
  "difficulty": 1906070909149,
  "gasLimit": {
    "_hex": "0x2fefd8"
  },
  "gasUsed": {
    "_hex": "0x5208"
  },
  "miner": "0xbb7B8287f3F0a933474a79eAe42CBCa977791171",
  "extraData": "0x476574682f4c5649562f76312e302e312f6c696e75782f676f312e342e32",
  "transactions": [
    {
      "hash": "0xb2980a8d20e32a29c19ecfc5dc29c372c64f48f15cad8b7ff72e87b1eb0ed859",
      "blockHash": "0xb890ac61e1fbea200936322c57f87783d50b6080ebcd4db2905068159fcb7c28",
      "blockNumber": 64896,
      "transactionIndex": 0,
      "confirmations": null,
      "from": "0x7D020D6e5Fb25618fc1009fFa05F45587fF0dC1D",
      "gasPrice": {
        "_hex": "0xba43b7400"
      },
      "gasLimit": {
        "_hex": "0x5208"
      },
      "to": "0xd7C82a75D50071E421ce739e89ADE1a163B24480",
      "value": {
        "_hex": "0x7c58ada8ff2000"
      },
      "nonce": 1,
      "data": "0x",
      "r": "0x55e866b0296fe388af1354ac38a89747745ffe6635d73ab0420f5e9495dec48e",
      "s": "0x5813d58dfabbc288d1ce4911aefd1908014fae98345a79d458e38e1721ff77b0",
      "v": 27,
      "creates": null,
      "raw": "0xf86b01850ba43b740082520894d7c82a75d50071e421ce739e89ade1a163b24480877c58ada8ff2000801ba055e866b0296fe388af1354ac38a89747745ffe6635d73ab0420f5e9495dec48ea05813d58dfabbc288d1ce4911aefd1908014fae98345a79d458e38e1721ff77b0",
      "networkId": 0,
      "chainId": 0
    }
  ]
}