{
  "hash": "0x0659c0c296603f671826f555f8a1d71295a67eb72c327a0cb4aa439d68a85dea",
  "parentHash": "0xa3dc70a59efd83d3edd4831be4b0619ccb5c46e216abd5649b804e897316fd7a",
  "number": 49171,
  "timestamp": 1438969213,
  "nonce": "0x2d0433b471ca7fba",
  "difficulty": 1476381755826,
  "gasLimit": {
    "_hex": "0x27de8"
  },
  "gasUsed": {
    "_hex": "0x5208"
  },
  "miner": "0xe6A7a1d47ff21B6321162AEA7C6CB457D5476Bca",
  "extraData": "0x657468706f6f6c2e6f7267",
  "transactions": [
    {
      "hash": "0x456a18459a1fccf1df0be68616fd57d1f50885ec11088c6e0aac383a1cada901",
      "blockHash": "0x0659c0c296603f671826f555f8a1d71295a67eb72c327a0cb4aa439d68a85dea",
      "blockNumber": 49171,
      "transactionIndex": 0,
      "confirmations": null,
      "from": "0x0089508679abF8c71BF6781687120e3E6a84584D",
      "gasPrice": {
        "_hex": "0xd53491f4e"
      },
      "gasLimit": {
        "_hex": "0x15f90"
      },
      "to": "0xA81fd3D89fe9c52094feDf0777c2F77212310B2F",
      "value": {
        "_hex": "0xde0b6b3a7640000"
      },
      "nonce": 2,
      "data": "0x",
      "r": "0xc56dc73183394f05f5ede7f4f714b7ebd308d63533ec4133214974fb60b640c2",
      "s": "0x0ec34b0974abaf96b7864a25719de6a1b93cfc35716a33ed701f292dcac135f3",
      "v": 27,
      "creates": null,
      "raw": "0xf86d02850d53491f4e83015f9094a81fd3d89fe9c52094fedf0777c2f77212310b2f880de0b6b3a7640000801ba0c56dc73183394f05f5ede7f4f714b7ebd308d63533ec4133214974fb60b640c2a00ec34b0974abaf96b7864a25719de6a1b93cfc35716a33ed701f292dcac135f3",
      "networkId": 0,
      "chainId": 0
    }
  ]
}