{
  "hash": "0x3ffafc79f1a6c1c52b9c425b2d8c5da0f9f28832da626f78b859c6a03484b943",
  "parentHash": "0xb8833d22f7662c0fddd7a64532e96325071672847a30bc41ad0733ec3938862d",
  "number": 47407,
  "timestamp": 1438939768,
  "nonce": "0x5b2b05fbbaf0ff54",
  "difficulty": 1450961577774,
  "gasLimit": {
    "_hex": "0xba29"
  },
  "gasUsed": {
    "_hex": "0xa410"
  },
  "miner": "0x3F98e477a361F777DA14611a7e419A75Fd238b6b",
  "extraData": "0x476574682f76312e302e312f6c696e75782f676f312e342e32",
  "transactions": [
    {
      "hash": "0xa4d67d31d943fe3059af1ea2233851053244888f1f1fb9fd6b29d714dd61b0b3",
      "blockHash": "0x3ffafc79f1a6c1c52b9c425b2d8c5da0f9f28832da626f78b859c6a03484b943",
      "blockNumber": 47407,
      "transactionIndex": 0,
      "confirmations": null,
      "from": "0x3D09688D93AD07F3abe68C722723Cd680990435e",
      "gasPrice": {
        "_hex": "0x746a528800"
      },
      "gasLimit": {
        "_hex": "0x5208"
      },
      "to": "0x8256990B4bf07ca7e82802976B131F64767Fd313",
      "value": {
        "_hex": "0x10eff0fae29b1bc0000"
      },
      "nonce": 1,
      "data": "0x",
      "r": "0xab251516691b2ffac43059f746ab4314245887701b5ad0ff086349cfdb17e390",
      "s": "0x47736986a10c9952f5d12b367993d9b90e3651f6aa29642514634c09b1ea26b1",
      "v": 28,
      "creates": null,
      "raw": "0xf86e0185746a528800825208948256990b4bf07ca7e82802976b131f64767fd3138a010eff0fae29b1bc0000801ca0ab251516691b2ffac43059f746ab4314245887701b5ad0ff086349cfdb17e390a047736986a10c9952f5d12b367993d9b90e3651f6aa29642514634c09b1ea26b1",
      "networkId": 0,
      "chainId": 0
    },
    {
      "hash": "0x5a88fdff5c749b88f0a748c76f7c61e5b34126ad832642f724065e2975842092",
      "blockHash": "0x3ffafc79f1a6c1c52b9c425b2d8c5da0f9f28832da626f78b859c6a03484b943",
      "blockNumber": 47407,
      "transactionIndex": 1,
      "confirmations": null,
      "from": "0xe6A7a1d47ff21B6321162AEA7C6CB457D5476Bca",
      "gasPrice": {
        "_hex": "0x1a47e44680"
      },
      "gasLimit": {
        "_hex": "0x5208"
      },
      "to": "0x03B35D960c861Fe987C50380d76db9D6Ae1fa510",
      "value": {
        "_hex": "0x12372e6556e08bc18"
      },
      "nonce": 134,
      "data": "0x",
      "r": "0x1c8489a90dd2ea63bcdb1ed802c466b88f4ec653bc4e7c795c4fc566cdd73369",
      "s": "0x2bf30f63f2cf01342bc36f3a00e9aaa1d31d6daebec71fc737594aa41070e06d",
      "v": 28,
      "creates": null,
      "raw": "0xf86e8186851a47e446808252089403b35d960c861fe987c50380d76db9d6ae1fa51089012372e6556e08bc18801ca01c8489a90dd2ea63bcdb1ed802c466b88f4ec653bc4e7c795c4fc566cdd73369a02bf30f63f2cf01342bc36f3a00e9aaa1d31d6daebec71fc737594aa41070e06d",
      "networkId": 0,
      "chainId": 0
    }
  ]
}