{
  "hash": "0x96db8b7065b8f6ef7a4d6d9165501884021f99392c04c9e06565346aad08043f",
  "parentHash": "0xfd41956db8bb4ad3a1d28b8228ec19ae9ffed8225ee46211c3cff52eff97ab76",
  "number": 64266,
  "timestamp": 1439217913,
  "nonce": "0xada4ce01cd97d035",
  "difficulty": 1878494523875,
  "gasLimit": {
    "_hex": "0x2fefd8"
  },
  "gasUsed": {
    "_hex": "0x5208"
  },
  "miner": "0xA1623430350C5df1b52B0b57483A5bb45d1796Da",
  "extraData": "0x476574682f76312e302e312d38326566323666362f6c696e75782f676f312e34",
  "transactions": [
    {
      "hash": "0xc2774c3dc50cadb6132c9814572c7211d2c95bd627c2a89f87bf75711b00598d",
      "blockHash": "0x96db8b7065b8f6ef7a4d6d9165501884021f99392c04c9e06565346aad08043f",
      "blockNumber": 64266,
      "transactionIndex": 0,
      "confirmations": null,
      "from": "0xD2a5A024230a57Ccc666760b89b0e26CAFd189C7",
      "gasPrice": {
        "_hex": "0x103da0cae01"
      },
      "gasLimit": {
        "_hex": "0x15f90"
      },
      "to": "0xdC6E506e643251bDf3C41d27f7001afC9358007F",
      "value": {
        "_hex": "0x949704318f41b40000"
      },
      "nonce": 2,
      "data": "0x",
      "r": "0x82bbc9d55a5f44475f45c60836a6b4762de42009a64518fb284aec53336a35b8",
      "s": "0x4ae521c49a7d167d65770acb0cecdda1eb78378d0bfbe492978a7bc92e4dbd75",
      "v": 28,
      "creates": null,
      "raw": "0xf86f02860103da0cae0183015f9094dc6e506e643251bdf3c41d27f7001afc9358007f89949704318f41b40000801ca082bbc9d55a5f44475f45c60836a6b4762de42009a64518fb284aec53336a35b8a04ae521c49a7d167d65770acb0cecdda1eb78378d0bfbe492978a7bc92e4dbd75",
      "networkId": 0,
      "chainId": 0
    }
  ]
}