{
  "hash": "0xed2de9f81865c4d3a45ab9f7306eb9dd41d11255eb2a2dcc6826288574eded4b",
  "parentHash": "0xdedb98856c286d5eeb85caea733e3cb0f7a5bfffc2714315f4e19218bad09186",
  "number": 62620,
  "timestamp": 1439191632,
  "nonce": "0xf5d84843d3f6559c",
  "difficulty": 1771936709856,
  "gasLimit": {
    "_hex": "0x2fefd8"
  },
  "gasUsed": {
    "_hex": "0x5208"
  },
  "miner": "0xbb7B8287f3F0a933474a79eAe42CBCa977791171",
  "extraData": "0x476574682f4c5649562f76312e302e312f6c696e75782f676f312e342e32",
  "transactions": [
    {
      "hash": "0x515637898ae1e172f7692acbc9fc35bb09c8d04f03357e06952517263bbbc9b3",
      "blockHash": "0xed2de9f81865c4d3a45ab9f7306eb9dd41d11255eb2a2dcc6826288574eded4b",
      "blockNumber": 62620,
      "transactionIndex": 0,
      "confirmations": null,
      "from": "0x19aF4b2766b8115B49E1fd31Ae71CaA12E706A96",
      "gasPrice": {
        "_hex": "0xd23814ff2"
      },
      "gasLimit": {
        "_hex": "0x5208"
      },
      "to": "0x32Be343B94f860124dC4fEe278FDCBD38C102D88",
      "value": {
        "_hex": "0x107a94dc94c1ed000"
      },
      "nonce": 1,
      "data": "0x",
      "r": "0x9eea0ba9f1cdd7259c730f0ad6c030bc43798b7876159e07079956486a06927c",
      "s": "0x7fabc868a43e5a1634ed1301bcc5657ed08984347dc1b8614e3373ce606276d1",
      "v": 28,
      "creates": null,
      "raw": "0xf86d01850d23814ff28252089432be343b94f860124dc4fee278fdcbd38c102d88890107a94dc94c1ed000801ca09eea0ba9f1cdd7259c730f0ad6c030bc43798b7876159e07079956486a06927ca07fabc868a43e5a1634ed1301bcc5657ed08984347dc1b8614e3373ce606276d1",
      "networkId": 0,
      "chainId": 0
    }
  ]
}