{
  "hash": "0x2412c3dfd88128d4e6bf42607d39eab98635e339df96551f3fd2755aed8dda3d",
  "parentHash": "0x2cede8fa3a89dca783b02c4e940f10ae692e12ba27a175eb9da3b180722c6df2",
  "number": 110563,
  "timestamp": 1439975789,
  "nonce": "0x743e95812bd15412",
  "difficulty": 4366984820960,
  "gasLimit": {
    "_hex": "0x2fefd8"
  },
  "gasUsed": {
    "_hex": "0xa410"
  },
  "miner": "0x0eDEd3DA479d0beF8eeC92A76644D3f4E3C177f7",
  "extraData": "0x476574682f76312e302e312f6c696e75782f676f312e342e32",
  "transactions": [
    {
      "hash": "0x926bf1f4c21d1deda3ea3da2b8acba5933b843d5b803217d632405ad397509b3",
      "blockHash": "0x2412c3dfd88128d4e6bf42607d39eab98635e339df96551f3fd2755aed8dda3d",
      "blockNumber": 110563,
      "transactionIndex": 0,
      "confirmations": null,
      "from": "0x2910543Af39abA0Cd09dBb2D50200b3E800A63D2",
      "gasPrice": {
        "_hex": "0xce006f36a"
      },
      "gasLimit": {
        "_hex": "0x5208"
      },
      "to": "0xb676E4AD85e5f9C15b4c67350bAAc2F5886250a9",
      "value": {
        "_hex": "0x4551ce090d138000"
      },
      "nonce": 1089,
      "data": "0x",
      "r": "0xd8f1b20fbe1f295d18f087531df734d6f56d9032880ba9bf52cb57c9fb04d2e4",
      "s": "0x728a1122e7b00f4c2c537d6a11c7428b8f0603101a120c37f22dba687c924fe2",
      "v": 27,
      "creates": null,
      "raw": "0xf86e820441850ce006f36a82520894b676e4ad85e5f9c15b4c67350baac2f5886250a9884551ce090d138000801ba0d8f1b20fbe1f295d18f087531df734d6f56d9032880ba9bf52cb57c9fb04d2e4a0728a1122e7b00f4c2c537d6a11c7428b8f0603101a120c37f22dba687c924fe2",
      "networkId": 0,
      "chainId": 0
    },
    {
      "hash": "0x4eff3c32097614349af512d04161edcc0a2d887fb69879f72ffd5958f4967ec4",
      "blockHash": "0x2412c3dfd88128d4e6bf42607d39eab98635e339df96551f3fd2755aed8dda3d",
      "blockNumber": 110563,
      "transactionIndex": 1,
      "confirmations": null,
      "from": "0x97A2b04809Fd7Dfa5C1d7B25e38Aad46964330F5",
      "gasPrice": {
        "_hex": "0xba43b7400"
      },
      "gasLimit": {
        "_hex": "0x15f90"
      },
      "to": "0xff8f61dC709E5782Dee998189520cb544177BB65",
      "value": {
        "_hex": "0x56bc75e2d63100000"
      },
      "nonce": 3,
      "data": "0x",
      "r": "0xcef6127445db9951e9d8b59b0846fae7f9818ead3cf520891d6de0cd593a1cde",
      "s": "0x1e6f679d181c9d4b4c8d72ff144e1af55c124a84d5ca961c168a321e0dfa6806",
      "v": 27,
      "creates": null,
      "raw": "0xf86e03850ba43b740083015f9094ff8f61dc709e5782dee998189520cb544177bb6589056bc75e2d63100000801ba0cef6127445db9951e9d8b59b0846fae7f9818ead3cf520891d6de0cd593a1cdea01e6f679d181c9d4b4c8d72ff144e1af55c124a84d5ca961c168a321e0dfa6806",
      "networkId": 0,
      "chainId": 0
    }
  ]
}