{
  "hash": "0x7de00c2c4ec804aea40e1f747ae69b9a49dd9d489bae30faff4958b8e05c5e32",
  "parentHash": "0xa429d1a102dda5132915ade11b19704fe14c0476f43de56a3c303d8b156e05af",
  "number": 76128,
  "timestamp": 1439415340,
  "nonce": "0x2d4c328cd04f4a5a",
  "difficulty": 2238518888260,
  "gasLimit": {
    "_hex": "0x2fefd8"
  },
  "gasUsed": {
    "_hex": "0x5208"
  },
  "miner": "0x0eDEd3DA479d0beF8eeC92A76644D3f4E3C177f7",
  "extraData": "0x476574682f76312e302e312f6c696e75782f676f312e342e32",
  "transactions": [
    {
      "hash": "0xdcf8854d84c7d4bc2b0dca26529ddf0b6bab48cb57ea2efc369d3f052d5753e0",
      "blockHash": "0x7de00c2c4ec804aea40e1f747ae69b9a49dd9d489bae30faff4958b8e05c5e32",
      "blockNumber": 76128,
      "transactionIndex": 0,
      "confirmations": null,
      "from": "0x64CF897D51472Dc7CfF0e6368EB15B9e2d5168E3",
      "gasPrice": {
        "_hex": "0x746a528800"
      },
      "gasLimit": {
        "_hex": "0x5b04"
      },
      "to": "0x9bc6B0dEB59eF75AeDe905EBa5a779514F43D409",
      "value": {
        "_hex": "0x8ac7230489e80000"
      },
      "nonce": 10,
      "data": "0x",
      "r": "0x5ef2369527aeed43c2599863752c8f2f8d26679b52d1cfacc650b36c655201d2",
      "s": "0x3db2a986ccc31634999dd131894893c8bf4ffabc187826e9a6bacc200497a976",
      "v": 28,
      "creates": null,
      "raw": "0xf86c0a85746a528800825b04949bc6b0deb59ef75aede905eba5a779514f43d409888ac7230489e80000801ca05ef2369527aeed43c2599863752c8f2f8d26679b52d1cfacc650b36c655201d2a03db2a986ccc31634999dd131894893c8bf4ffabc187826e9a6bacc200497a976",
      "networkId": 0,
      "chainId": 0
    }
  ]
}