{
  "hash": "0x1663acb9cb868fc335be1deb9672bf1c7340f03ba5e326016391c7573f3f9894",
  "parentHash": "0xcbf40fc5129ee6efad8e4a99a50d8a98f3be6e44ac3a32fdcc0e15ac6b02e1d3",
  "number": 48378,
  "timestamp": 1438956266,
  "nonce": "0xc22c6dc8cc4d84a5",
  "difficulty": 1452920378902,
  "gasLimit": {
    "_hex": "0x164d4"
  },
  "gasUsed": {
    "_hex": "0x5208"
  },
  "miner": "0x9746c7e1ef2bd21FF3997fa467593a89cb852BD0",
  "extraData": "0x476574682f76312e302e312f77696e646f77732f676f312e342e32",
  "transactions": [
    {
      "hash": "0x9d10e3714b6904f7803d6cf06f7e85606b36568f44e52d63cde4201f7a308d6b",
      "blockHash": "0x1663acb9cb868fc335be1deb9672bf1c7340f03ba5e326016391c7573f3f9894",
      "blockNumber": 48378,
      "transactionIndex": 0,
      "confirmations": null,
      "from": "0x3F3f46B75cABe37bfacc8760281F4341CA7F463d",
      "gasPrice": {
        "_hex": "0xeaac054a3"
      },
      "gasLimit": {
        "_hex": "0x61a8"
      },
      "to": "0xAb5199486803893a6dc1AD1D31612895300BCcA9",
      "value": {
        "_hex": "0xad78ebc5ac6200000"
      },
      "nonce": 0,
      "data": "0x",
      "r": "0xc9d7855b02e1ee102048dd24c044031e5f8e715b537b2669b9c449ae0b04e1fe",
      "s": "0x25546fd84ad772e44cfae31bb05efe6f17cb935429c7f2ac6f1f174941de64dc",
      "v": 28,
      "creates": null,
      "raw": "0xf86d80850eaac054a38261a894ab5199486803893a6dc1ad1d31612895300bcca9890ad78ebc5ac6200000801ca0c9d7855b02e1ee102048dd24c044031e5f8e715b537b2669b9c449ae0b04e1fea025546fd84ad772e44cfae31bb05efe6f17cb935429c7f2ac6f1f174941de64dc",
      "networkId": 0,
      "chainId": 0
    }
  ]
}