{
  "hash": "0xd487536bea1189567c9eaaf1b7cd96ffcbd9e7751fd95af0411b6654470c6023",
  "parentHash": "0xdcec8d3b04c8dd70c1b96ea964050d09d85dc09967c1bd7019a42451b6b8e1bb",
  "number": 51614,
  "timestamp": 1439007928,
  "nonce": "0x6c44383a6d621778",
  "difficulty": 1558154845071,
  "gasLimit": {
    "_hex": "0xc5314"
  },
  "gasUsed": {
    "_hex": "0x7a120"
  },
  "miner": "0xf8E0CA3Ed80bd541b94BEdCf259e8CF2141A9523",
  "extraData": "0x476574682f76312e302e312f77696e646f77732f676f312e342e32",
  "transactions": [
    {
      "hash": "0x540ea3244eeb5a3edd723b556b774391e867430a2d2af5252d596e444592604a",
      "blockHash": "0xd487536bea1189567c9eaaf1b7cd96ffcbd9e7751fd95af0411b6654470c6023",
      "blockNumber": 51614,
      "transactionIndex": 0,
      "confirmations": null,
      "from": "0xFCf9f6A78f06227522c6f948ec0119dA31680Ef7",
      "gasPrice": {
        "_hex": "0xdcda0424b"
      },
      "gasLimit": {
        "_hex": "0x7a120"
      },
      "to": "0xBAA54d6E90c3F4d7Ebec11bD180134C7eD8eBb52",
      "value": {
        "_hex": "0x16345785d8a0000"
      },
      "nonce": 25,
      "data": "0x",
      "r": "0x0ea40bcf5c30f500cd580277cad1db30f3a61e916b4032a3a930740258f53ec4",
      "s": "0x3e04b8d2d45c03d79e2e49037d8151c7db0460349e1299d26b1f64b41305b100",
      "v": 28,
      "creates": null,
      "raw": "0xf86d19850dcda0424b8307a12094baa54d6e90c3f4d7ebec11bd180134c7ed8ebb5288016345785d8a0000801ca00ea40bcf5c30f500cd580277cad1db30f3a61e916b4032a3a930740258f53ec4a03e04b8d2d45c03d79e2e49037d8151c7db0460349e1299d26b1f64b41305b100",
      "networkId": 0,
      "chainId": 0
    }
  ]
}