{
  "hash": "0xe795db933b22613c02913ec95e5df9e37fe685db5fe6b4c4029e564de3632491",
  "parentHash": "0x771126261a66931b22afc1837097c2e5f42b9c53a1d0ef0723b3ead4e8568761",
  "number": 95278,
  "timestamp": 1439721675,
  "nonce": "0x84e5a9e1cfe3d1e1",
  "difficulty": 3558545620184,
  "gasLimit": {
    "_hex": "0x2fefd8"
  },
  "gasUsed": {
    "_hex": "0xa410"
  },
  "miner": "0x9746c7e1ef2bd21FF3997fa467593a89cb852BD0",
  "extraData": "0x476574682f76312e302e312f77696e646f77732f676f312e342e32",
  "transactions": [
    {
      "hash": "0xc35b714e877d9b206a93e2ec2c2d064d41b9710771018a0ce2e7dfedad8709a2",
      "blockHash": "0xe795db933b22613c02913ec95e5df9e37fe685db5fe6b4c4029e564de3632491",
      "blockNumber": 95278,
      "transactionIndex": 0,
      "confirmations": null,
      "from": "0xAba5352947CBaEAcf6B2E11E03EaE0008176aeDF",
      "gasPrice": {
        "_hex": "0xd98912844"
      },
      "gasLimit": {
        "_hex": "0x5208"
      },
      "to": "0x32Be343B94f860124dC4fEe278FDCBD38C102D88",
      "value": {
        "_hex": "0x24c255aa1efd7000"
      },
      "nonce": 5,
      "data": "0x",
      "r": "0x5139beba9ed0d9608cbe578ab41fce18743fd779f3f1f1aaf98b7cf9ab2c53fb",
      "s": "0x5a451d428b876f8b6a8b026fb37f539cbdb73c57e48478b3c623365b6addbec9",
      "v": 28,
      "creates": null,
      "raw": "0xf86c05850d989128448252089432be343b94f860124dc4fee278fdcbd38c102d888824c255aa1efd7000801ca05139beba9ed0d9608cbe578ab41fce18743fd779f3f1f1aaf98b7cf9ab2c53fba05a451d428b876f8b6a8b026fb37f539cbdb73c57e48478b3c623365b6addbec9",
      "networkId": 0,
      "chainId": 0
    },
    {
      "hash": "0x0b3332e209307a9a56a9071f92c1e05e46b932dba48ada5d139066f42d1ae315",
      "blockHash": "0xe795db933b22613c02913ec95e5df9e37fe685db5fe6b4c4029e564de3632491",
      "blockNumber": 95278,
      "transactionIndex": 1,
      "confirmations": null,
      "from": "0xa70a9a7040d542C632D8e0bE7c5513A8a5Bbc752",
      "gasPrice": {
        "_hex": "0xd98912844"
      },
      "gasLimit": {
        "_hex": "0x5208"
      },
      "to": "0x32Be343B94f860124dC4fEe278FDCBD38C102D88",
      "value": {
        "_hex": "0x8ac2c7b8fa1c7000"
      },
      "nonce": 155,
      "data": "0x",
      "r": "0x5df7bbac373497083f02adf668254064036a5208baabe8d1bb24492ebb883047",
      "s": "0x5a2c8c1b82039ead4f9f6cf20273995c89ecf32381c5dd66ee0b0a5585311dae",
      "v": 27,
      "creates": null,
      "raw": "0xf86d819b850d989128448252089432be343b94f860124dc4fee278fdcbd38c102d88888ac2c7b8fa1c7000801ba05df7bbac373497083f02adf668254064036a5208baabe8d1bb24492ebb883047a05a2c8c1b82039ead4f9f6cf20273995c89ecf32381c5dd66ee0b0a5585311dae",
      "networkId": 0,
      "chainId": 0
    }
  ]
}