{
  "hash": "0x2e39884643814158e714e06533dd26399cbbbc97ae572346d7f2a0042ca4d6fb",
  "parentHash": "0x9ad2640351290e6db98f84cf3db36bf17617db429aaf07322481545a0059890e",
  "number": 119459,
  "timestamp": 1440143461,
  "nonce": "0x584c9abad03b039d",
  "difficulty": 4383708806522,
  "gasLimit": {
    "_hex": "0x2fefd8"
  },
  "gasUsed": {
    "_hex": "0xf618"
  },
  "miner": "0x608f4b86321a68453f9adf6F06F7Fc3E621739ad",
  "extraData": "0xd783010002844765746887676f312e342e32856c696e7578",
  "transactions": [
    {
      "hash": "0x6fb7a812c38a93a05c4f1a1fe39e5ce9f526b8d21630949b8e141f926c37e6b0",
      "blockHash": "0x2e39884643814158e714e06533dd26399cbbbc97ae572346d7f2a0042ca4d6fb",
      "blockNumber": 119459,
      "transactionIndex": 0,
      "confirmations": null,
      "from": "0xe33977E292cceF99Ea8828733e97562F3690a8ad",
      "gasPrice": {
        "_hex": "0xba43b7400"
      },
      "gasLimit": {
        "_hex": "0x5208"
      },
      "to": "0x32Be343B94f860124dC4fEe278FDCBD38C102D88",
      "value": {
        "_hex": "0x322c96237acde000"
      },
      "nonce": 9,
      "data": "0x",
      "r": "0xdcb645820ef24c81c6882f74b583adf37f980423a932915fd406dc4cb98a9900",
      "s": "0x770a6630af0e94493bd377ce4f73c41cbfb17a980df2a66aa2242d73b244c7e7",
      "v": 28,
      "creates": null,
      "raw": "0xf86c09850ba43b74008252089432be343b94f860124dc4fee278fdcbd38c102d8888322c96237acde000801ca0dcb645820ef24c81c6882f74b583adf37f980423a932915fd406dc4cb98a9900a0770a6630af0e94493bd377ce4f73c41cbfb17a980df2a66aa2242d73b244c7e7",
      "networkId": 0,
      "chainId": 0
    },
    {
      "hash": "0x8172dcbed3dfefa17786ff94af16ff14d614eadee733a69cd7a1e379be996875",
      "blockHash": "0x2e39884643814158e714e06533dd26399cbbbc97ae572346d7f2a0042ca4d6fb",
      "blockNumber": 119459,
      "transactionIndex": 1,
      "confirmations": null,
      "from": "0xe6F63A7e7F8dc774F8E3504c9b0c5458D7E28ED8",
      "gasPrice": {
        "_hex": "0xba43b7400"
      },
      "gasLimit": {
        "_hex": "0x5208"
      },
      "to": "0x32Be343B94f860124dC4fEe278FDCBD38C102D88",
      "value": {
        "_hex": "0x4abdd9d7bbfb8400"
      },
      "nonce": 8,
      "data": "0x",
      "r": "0x5ee73fbc62a7fbef69fe3a8f7f994ab1b8a15448c69f63bd7ec0c2c25400f819",
      "s": "0x4c3527495a90fe35b2ffaf6312756d6a4c7bc07146e3aeae3c606eb7ffd39893",
      "v": 27,
      "creates": null,
      "raw": "0xf86c08850ba43b74008252089432be343b94f860124dc4fee278fdcbd38c102d88884abdd9d7bbfb8400801ba05ee73fbc62a7fbef69fe3a8f7f994ab1b8a15448c69f63bd7ec0c2c25400f819a04c3527495a90fe35b2ffaf6312756d6a4c7bc07146e3aeae3c606eb7ffd39893",
      "networkId": 0,
      "chainId": 0
    },
    {
      "hash": "0xf4cf86cb99f50e0200ac6b8bffd48b5b521b3cc1865cf210b90a93c3b8dccb11",
      "blockHash": "0x2e39884643814158e714e06533dd26399cbbbc97ae572346d7f2a0042ca4d6fb",
      "blockNumber": 119459,
      "transactionIndex": 2,
      "confirmations": null,
      "from": "0x2cf4364bc4C7C3333aB9963C4B3473664f42D83A",
      "gasPrice": {
        "_hex": "0xba43b7400"
      },
      "gasLimit": {
        "_hex": "0x5208"
      },
      "to": "0x32Be343B94f860124dC4fEe278FDCBD38C102D88",
      "value": {
        "_hex": "0xb246e998e4922000"
      },
      "nonce": 9,
      "data": "0x",
      "r": "0xd8022651199c7a629334ee8ace85a55e61b7a358b50265211b7e626595a1296b",
      "s": "0x2b9d7d2d36a77daca2d144e9d37b0e37e606de1089a119bf659f8f705cfcb031",
      "v": 27,
      "creates": null,
      "raw": "0xf86c09850ba43b74008252089432be343b94f860124dc4fee278fdcbd38c102d8888b246e998e4922000801ba0d8022651199c7a629334ee8ace85a55e61b7a358b50265211b7e626595a1296ba02b9d7d2d36a77daca2d144e9d37b0e37e606de1089a119bf659f8f705cfcb031",
      "networkId": 0,
      "chainId": 0
    }
  ]
}