{
  "hash": "0x6ad88805a62f433f447e37c81917f435e4fe6d7e9eed5682b6a68b9e361db613",
  "parentHash": "0x49783ee684d1fb10989574bad955b85c4aad7f20c21967beb73faa5b806b07a3",
  "number": 47488,
  "timestamp": 1438941399,
  "nonce": "0x5e9fae774dc0c2ab",
  "difficulty": 1445996739297,
  "gasLimit": {
    "_hex": "0xc550"
  },
  "gasUsed": {
    "_hex": "0x5208"
  },
  "miner": "0xf8E0CA3Ed80bd541b94BEdCf259e8CF2141A9523",
  "extraData": "0x476574682f76312e302e312f77696e646f77732f676f312e342e32",
  "transactions": [
    {
      "hash": "0x662ae14235e1eeadeb6f431856f478dbe3972ee92fcf1f68cf48cd4f0f94b9ad",
      "blockHash": "0x6ad88805a62f433f447e37c81917f435e4fe6d7e9eed5682b6a68b9e361db613",
      "blockNumber": 47488,
      "transactionIndex": 0,
      "confirmations": null,
      "from": "0x139339dC645C59F787a6f65bCA069478f958167C",
      "gasPrice": {
        "_hex": "0xba43b7400"
      },
      "gasLimit": {
        "_hex": "0x5208"
      },
      "to": "0x256A6D2Ae68632a3c99b66d792C13330842476d7",
      "value": {
        "_hex": "0xdbd2fc137a30000"
      },
      "nonce": 0,
      "data": "0x",
      "r": "0x85bd7f0c2cedf3e316ca5b74d91496e38020037c4922e6dd8ba847a659b4b676",
      "s": "0x1a6d6086b47ea11addb8718dfba2ef138a3f67b6c493ff5d4ee8adf918b84304",
      "v": 28,
      "creates": null,
      "raw": "0xf86c80850ba43b740082520894256a6d2ae68632a3c99b66d792c13330842476d7880dbd2fc137a30000801ca085bd7f0c2cedf3e316ca5b74d91496e38020037c4922e6dd8ba847a659b4b676a01a6d6086b47ea11addb8718dfba2ef138a3f67b6c493ff5d4ee8adf918b84304",
      "networkId": 0,
      "chainId": 0
    }
  ]
}