{
  "hash": "0x828b999343ae4f1b1305611357dcd3dd74e1aa17221664c8f4fbce4dd5ee2185",
  "parentHash": "0x9fcfc4c4911f9b71cdc1bfdc700c01a653d31bf3981dc9ba77d7e0c20021c65c",
  "number": 108875,
  "timestamp": 1439947656,
  "nonce": "0x21bf8e5435ae78f3",
  "difficulty": 4367863657236,
  "gasLimit": {
    "_hex": "0x2fefd8"
  },
  "gasUsed": {
    "_hex": "0xa410"
  },
  "miner": "0x2A28A9F6Eb28Ca7b93978aDb543d29Ae4Ceb84d4",
  "extraData": "0x476574682f76312e302e312f6c696e75782f676f312e342e32",
  "transactions": [
    {
      "hash": "0xca7d12f3aca157d480c0b2662bb996764a17916b35765872ce501880d2543350",
      "blockHash": "0x828b999343ae4f1b1305611357dcd3dd74e1aa17221664c8f4fbce4dd5ee2185",
      "blockNumber": 108875,
      "transactionIndex": 0,
      "confirmations": null,
      "from": "0x0D4EcC7d750180EBf4A9Df728B6669B5Bceb5E40",
      "gasPrice": {
        "_hex": "0xdbf564e9f"
      },
      "gasLimit": {
        "_hex": "0x5208"
      },
      "to": "0x32Be343B94f860124dC4fEe278FDCBD38C102D88",
      "value": {
        "_hex": "0x455f29ca3db5d800"
      },
      "nonce": 97,
      "data": "0x",
      "r": "0x2599e09b6e4e0db38dd79d5b1127d8951705b0365d9c11accbd22d7ce292397b",
      "s": "0x5662b9376167615fc1d276dcae0436b4db5a5bb2dfb674cb84e02ee5ddb9b882",
      "v": 28,
      "creates": null,
      "raw": "0xf86c61850dbf564e9f8252089432be343b94f860124dc4fee278fdcbd38c102d8888455f29ca3db5d800801ca02599e09b6e4e0db38dd79d5b1127d8951705b0365d9c11accbd22d7ce292397ba05662b9376167615fc1d276dcae0436b4db5a5bb2dfb674cb84e02ee5ddb9b882",
      "networkId": 0,
      "chainId": 0
    },
    {
      "hash": "0xb91d1787708c242995812c51bfb6c146ee23482a6e1b31a49cd0421be2face5b",
      "blockHash": "0x828b999343ae4f1b1305611357dcd3dd74e1aa17221664c8f4fbce4dd5ee2185",
      "blockNumber": 108875,
      "transactionIndex": 1,
      "confirmations": null,
      "from": "0xa61ff394e3846F8bfbBF8801afb051730B04Ee75",
      "gasPrice": {
        "_hex": "0xdbf564e9f"
      },
      "gasLimit": {
        "_hex": "0x5208"
      },
      "to": "0x32Be343B94f860124dC4fEe278FDCBD38C102D88",
      "value": {
        "_hex": "0x455f29ca3db5d800"
      },
      "nonce": 17,
      "data": "0x",
      "r": "0xdee17378f50b0a8ce0424342e51efbf6ed1b9b36290fc4d4dafc56378d3f2bb6",
      "s": "0x0ad8838a20c3183e027ac7f00c752e1d19a83e2ffd8577710b479968a2b00426",
      "v": 28,
      "creates": null,
      "raw": "0xf86c11850dbf564e9f8252089432be343b94f860124dc4fee278fdcbd38c102d8888455f29ca3db5d800801ca0dee17378f50b0a8ce0424342e51efbf6ed1b9b36290fc4d4dafc56378d3f2bb6a00ad8838a20c3183e027ac7f00c752e1d19a83e2ffd8577710b479968a2b00426",
      "networkId": 0,
      "chainId": 0
    }
  ]
}