{
  "hash": "0x04d6f979dd1d5dd4a780c972959ffa1c5c500bdba4531925499810381d17e1b1",
  "parentHash": "0x16edf3f5ca887068ec8a6ab1f641962f2205828d4d4240ad13f3d991e7c1d9d2",
  "number": 110060,
  "timestamp": 1439967386,
  "nonce": "0xec0a5b8f590f6cef",
  "difficulty": 4395056636728,
  "gasLimit": {
    "_hex": "0x2fefd8"
  },
  "gasUsed": {
    "_hex": "0x5208"
  },
  "miner": "0xe6A7a1d47ff21B6321162AEA7C6CB457D5476Bca",
  "extraData": "0x476574682f76312e302e312d38326566323666362f6c696e75782f676f312e34",
  "transactions": [
    {
      "hash": "0x864efa7961632c0a4db24e7034b84dea57bca1e4ff33e7914d9fc9fa486d8f11",
      "blockHash": "0x04d6f979dd1d5dd4a780c972959ffa1c5c500bdba4531925499810381d17e1b1",
      "blockNumber": 110060,
      "transactionIndex": 0,
      "confirmations": null,
      "from": "0x2910543Af39abA0Cd09dBb2D50200b3E800A63D2",
      "gasPrice": {
        "_hex": "0xce5631c96"
      },
      "gasLimit": {
        "_hex": "0x5208"
      },
      "to": "0xCDca43540178fF7823Aa78B84F70b90A6BfcD605",
      "value": {
        "_hex": "0xa9219675f494b8000"
      },
      "nonce": 1084,
      "data": "0x",
      "r": "0xe4719b9b7b7a370ae335b12a5dc5919d5839c3ad25a0529e99181ff26c1064b7",
      "s": "0x04c7acef9fd71ebb930ae9eec12b8fbe03948adea15de2481bcfdec0facb1a22",
      "v": 27,
      "creates": null,
      "raw": "0xf86f82043c850ce5631c9682520894cdca43540178ff7823aa78b84f70b90a6bfcd605890a9219675f494b8000801ba0e4719b9b7b7a370ae335b12a5dc5919d5839c3ad25a0529e99181ff26c1064b7a004c7acef9fd71ebb930ae9eec12b8fbe03948adea15de2481bcfdec0facb1a22",
      "networkId": 0,
      "chainId": 0
    }
  ]
}