{
  "hash": "0x58399087766c570885831df92f021650454abd4d854caea41198b79a2323caae",
  "parentHash": "0x1402308687daae2e467c67fd9476de42955a9c5988c62609f037e94ea189e238",
  "number": 122204,
  "timestamp": 1440189932,
  "nonce": "0x201e9b8cfabf60f7",
  "difficulty": 4484007225485,
  "gasLimit": {
    "_hex": "0x2fefd8"
  },
  "gasUsed": {
    "_hex": "0xa410"
  },
  "miner": "0x64c0f4A860176e4f956550703F0eF522A9eD06F9",
  "extraData": "0x476574682f76312e302e322d61303330336666342f6c696e75782f676f312e34",
  "transactions": [
    {
      "hash": "0x7de820eaea54389d1b1eaffe29093610498a0bc8b7ab515f90c49180b55371a5",
      "blockHash": "0x58399087766c570885831df92f021650454abd4d854caea41198b79a2323caae",
      "blockNumber": 122204,
      "transactionIndex": 0,
      "confirmations": null,
      "from": "0xa70a9a7040d542C632D8e0bE7c5513A8a5Bbc752",
      "gasPrice": {
        "_hex": "0xddbaa14ed"
      },
      "gasLimit": {
        "_hex": "0x5208"
      },
      "to": "0x32Be343B94f860124dC4fEe278FDCBD38C102D88",
      "value": {
        "_hex": "0x4573c62fe8306000"
      },
      "nonce": 341,
      "data": "0x",
      "r": "0xb87cd6f1a2063f253a677b7f809a7a8591c30c17cc8d55e054d74d51ad4e90d9",
      "s": "0x777f9f1c7997dca8b7877110c04d4fb0fe23235c66ab7b00b3b484b21039f9c4",
      "v": 27,
      "creates": null,
      "raw": "0xf86e820155850ddbaa14ed8252089432be343b94f860124dc4fee278fdcbd38c102d88884573c62fe8306000801ba0b87cd6f1a2063f253a677b7f809a7a8591c30c17cc8d55e054d74d51ad4e90d9a0777f9f1c7997dca8b7877110c04d4fb0fe23235c66ab7b00b3b484b21039f9c4",
      "networkId": 0,
      "chainId": 0
    },
    {
      "hash": "0x21f532912bb052f0b4684170f43b0d6ffe7dcfede4d27db5c656f38d03c33e95",
      "blockHash": "0x58399087766c570885831df92f021650454abd4d854caea41198b79a2323caae",
      "blockNumber": 122204,
      "transactionIndex": 1,
      "confirmations": null,
      "from": "0xb1abce2918E21ddb93AA452731a12672A3d9F75a",
      "gasPrice": {
        "_hex": "0xddbaa14ed"
      },
      "gasLimit": {
        "_hex": "0x5208"
      },
      "to": "0x32Be343B94f860124dC4fEe278FDCBD38C102D88",
      "value": {
        "_hex": "0x455f20b6975b0000"
      },
      "nonce": 224,
      "data": "0x",
      "r": "0xb4b1c81d9383c904514dce9660c4d4a0a044e5c6eacd347e38f8faedcf4c6b1e",
      "s": "0x0c0ea1af196db6a3a6b5fcff2cdee8d2831ac5f4e4363ac58cd35bc6f333d15b",
      "v": 28,
      "creates": null,
      "raw": "0xf86d81e0850ddbaa14ed8252089432be343b94f860124dc4fee278fdcbd38c102d8888455f20b6975b0000801ca0b4b1c81d9383c904514dce9660c4d4a0a044e5c6eacd347e38f8faedcf4c6b1ea00c0ea1af196db6a3a6b5fcff2cdee8d2831ac5f4e4363ac58cd35bc6f333d15b",
      "networkId": 0,
      "chainId": 0
    }
  ]
}