{
  "hash": "0x09df6284f7fe134d7a84b8b16de9029349e76c6758a960253e46236632b46b08",
  "parentHash": "0x191a423826c7e5fed63b88e2356111cd61e36c9acedd6185c24d996b4e31b342",
  "number": 117832,
  "timestamp": 1440116044,
  "nonce": "0xbbfdc259fe93f7a3",
  "difficulty": 4352562968570,
  "gasLimit": {
    "_hex": "0x2fefd8"
  },
  "gasUsed": {
    "_hex": "0x5208"
  },
  "miner": "0x580992B51e3925e23280EfB93d3047C82f17E038",
  "extraData": "0x",
  "transactions": [
    {
      "hash": "0xebf79e75c7ef41c1777e97980e7d470b97f07066ac49d62ad1cba42f5e132c91",
      "blockHash": "0x09df6284f7fe134d7a84b8b16de9029349e76c6758a960253e46236632b46b08",
      "blockNumber": 117832,
      "transactionIndex": 0,
      "confirmations": null,
      "from": "0xe7523F78ae9eDb81dC7B2A9ca718Ba3776C14f2e",
      "gasPrice": {
        "_hex": "0xba43b7400"
      },
      "gasLimit": {
        "_hex": "0x5208"
      },
      "to": "0x32Be343B94f860124dC4fEe278FDCBD38C102D88",
      "value": {
        "_hex": "0x4a61c791aaf57800"
      },
      "nonce": 11,
      "data": "0x",
      "r": "0x42b253c8ae47910022664411a855b87ada0c771d319a08990d0f6ee0f4576113",
      "s": "0x44a1fc04ca8f8f33b6750b18e85d95cf1e43519328c15f1bcf81dc6fad118717",
      "v": 27,
      "creates": null,
      "raw": "0xf86c0b850ba43b74008252089432be343b94f860124dc4fee278fdcbd38c102d88884a61c791aaf57800801ba042b253c8ae47910022664411a855b87ada0c771d319a08990d0f6ee0f4576113a044a1fc04ca8f8f33b6750b18e85d95cf1e43519328c15f1bcf81dc6fad118717",
      "networkId": 0,
      "chainId": 0
    }
  ]
}