{
  "hash": "0x8928b4ba4b3484d0e63b2da04ebc83059fc08041132144ab9a09006965117cc1",
  "parentHash": "0xeac353e8120ec114e312d620892da6f6cf59167d8365f894ab1e404f6756efa6",
  "number": 70897,
  "timestamp": 1439327080,
  "nonce": "0x38c3ef4a687a5fc5",
  "difficulty": 2150952298265,
  "gasLimit": {
    "_hex": "0x2fefd8"
  },
  "gasUsed": {
    "_hex": "0x5208"
  },
  "miner": "0x39A1BB80a741bF5EC39FB9BE59408Fa0F418fFBf",
  "extraData": "0x476574682f76312e302e312f77696e646f77732f676f312e342e32",
  "transactions": [
    {
      "hash": "0x4985eb41fec70c9486fecd92700a4c0e67f0233f68be2f822a708c6956ad8bc9",
      "blockHash": "0x8928b4ba4b3484d0e63b2da04ebc83059fc08041132144ab9a09006965117cc1",
      "blockNumber": 70897,
      "transactionIndex": 0,
      "confirmations": null,
      "from": "0x7a3193C7532579275d8eD0e2e5680959B06c00F5",
      "gasPrice": {
        "_hex": "0xd3d37f23a"
      },
      "gasLimit": {
        "_hex": "0x15f90"
      },
      "to": "0x0e79Fa998677114124597D6BCCcA10fF8B57045F",
      "value": {
        "_hex": "0x7f7e56236aeab0000"
      },
      "nonce": 2,
      "data": "0x",
      "r": "0x06bea60e19410bc92e24daeb03f1f35597f51abbf8f11483cb89dc2bae701fc2",
      "s": "0x510236821a7ba0ff463fe11fe910b59858832f91e48becaf97563cd0ee423d02",
      "v": 27,
      "creates": null,
      "raw": "0xf86e02850d3d37f23a83015f90940e79fa998677114124597d6bccca10ff8b57045f8907f7e56236aeab0000801ba006bea60e19410bc92e24daeb03f1f35597f51abbf8f11483cb89dc2bae701fc2a0510236821a7ba0ff463fe11fe910b59858832f91e48becaf97563cd0ee423d02",
      "networkId": 0,
      "chainId": 0
    }
  ]
}