{
  "hash": "0xd34146a4a4d0c8ca581b7843bcbf70a565786fbbfa63301e52da76e1dd30f355",
  "parentHash": "0x7c99290b946a0f6b10d34ed829f04901cbcb0d57efe3fbff706421f8848ed5a8",
  "number": 111411,
  "timestamp": 1439989762,
  "nonce": "0x6f6e21ab00e90cbc",
  "difficulty": 4435306445277,
  "gasLimit": {
    "_hex": "0x2fefd8"
  },
  "gasUsed": {
    "_hex": "0xa410"
  },
  "miner": "0xe6A7a1d47ff21B6321162AEA7C6CB457D5476Bca",
  "extraData": "0x476574682f76312e302e312d38326566323666362f6c696e75782f676f312e34",
  "transactions": [
    {
      "hash": "0x2c83297143f18f0153799d620abc1ac2a5433e8a20d1a68ede2f5d1cfe8b4cf9",
      "blockHash": "0xd34146a4a4d0c8ca581b7843bcbf70a565786fbbfa63301e52da76e1dd30f355",
      "blockNumber": 111411,
      "transactionIndex": 0,
      "confirmations": null,
      "from": "0xa70a9a7040d542C632D8e0bE7c5513A8a5Bbc752",
      "gasPrice": {
        "_hex": "0xdb9bb63be"
      },
      "gasLimit": {
        "_hex": "0x5208"
      },
      "to": "0x32Be343B94f860124dC4fEe278FDCBD38C102D88",
      "value": {
        "_hex": "0x455f2b973ee83000"
      },
      "nonce": 292,
      "data": "0x",
      "r": "0x2e8dc4d8ddfbfdb3971cc6dcdc653c1f890e16ba9f56022d55856e335e54caa4",
      "s": "0x541d709d2306fb388c0110eb04308c3a133ef4ef6b9884190509ef74397a5cd8",
      "v": 27,
      "creates": null,
      "raw": "0xf86e820124850db9bb63be8252089432be343b94f860124dc4fee278fdcbd38c102d8888455f2b973ee83000801ba02e8dc4d8ddfbfdb3971cc6dcdc653c1f890e16ba9f56022d55856e335e54caa4a0541d709d2306fb388c0110eb04308c3a133ef4ef6b9884190509ef74397a5cd8",
      "networkId": 0,
      "chainId": 0
    },
    {
      "hash": "0xae2664d1e0430e31e20bf72596a694d3480c623dfb73cd298b2405c2bab33eb3",
      "blockHash": "0xd34146a4a4d0c8ca581b7843bcbf70a565786fbbfa63301e52da76e1dd30f355",
      "blockNumber": 111411,
      "transactionIndex": 1,
      "confirmations": null,
      "from": "0x285B048CC4cB946abCF3eF11aDe982C36946AF18",
      "gasPrice": {
        "_hex": "0xdb9bb63be"
      },
      "gasLimit": {
        "_hex": "0x5208"
      },
      "to": "0x32Be343B94f860124dC4fEe278FDCBD38C102D88",
      "value": {
        "_hex": "0x15aed71a052b83000"
      },
      "nonce": 16,
      "data": "0x",
      "r": "0x3efe072a721c74cf4e871ae8c3e6da2e2421658d0ae57841b20610d44ea86e71",
      "s": "0x7fa9aae41a271cd2deb669c4478f249baaef3b48ee9a34185feff32ff65b1779",
      "v": 27,
      "creates": null,
      "raw": "0xf86d10850db9bb63be8252089432be343b94f860124dc4fee278fdcbd38c102d8889015aed71a052b83000801ba03efe072a721c74cf4e871ae8c3e6da2e2421658d0ae57841b20610d44ea86e71a07fa9aae41a271cd2deb669c4478f249baaef3b48ee9a34185feff32ff65b1779",
      "networkId": 0,
      "chainId": 0
    }
  ]
}