{
  "hash": "0x63cc98d1102135b277df3a7a864b2204d51e24a8587816666aab8e0eaae80f8b",
  "parentHash": "0x36339dba557dbcb499788c345751024c40519c8c45365c22a7aa4779309975a3",
  "number": 95760,
  "timestamp": 1439729169,
  "nonce": "0xf6ecce292c3bc5ac",
  "difficulty": 3628523152314,
  "gasLimit": {
    "_hex": "0x2fefd8"
  },
  "gasUsed": {
    "_hex": "0x5208"
  },
  "miner": "0xC603Ab5ef41fC61AA8b76bEddb09e3Cfcbb174BD",
  "extraData": "0x476574682f76312e302e312f77696e646f77732f676f312e342e32",
  "transactions": [
    {
      "hash": "0x98b0a2867995305d271a1757013f29c534f5972e06b0cda7a1af2f6689d95ff5",
      "blockHash": "0x63cc98d1102135b277df3a7a864b2204d51e24a8587816666aab8e0eaae80f8b",
      "blockNumber": 95760,
      "transactionIndex": 0,
      "confirmations": null,
      "from": "0x32Be343B94f860124dC4fEe278FDCBD38C102D88",
      "gasPrice": {
        "_hex": "0xcc5c5c035"
      },
      "gasLimit": {
        "_hex": "0x5208"
      },
      "to": "0xCD1e66ED539dd92Fc40bBAa1FA16de8c02C14D45",
      "value": {
        "_hex": "0x28c418afbbb5c0000"
      },
      "nonce": 992,
      "data": "0x",
      "r": "0x245a8dcc8bf5fc7a689d54e3d24e5a31c93eee9dc2417dfd53114f235c8a3763",
      "s": "0x580e4bdc2ab28f221aec9fd7997a94ec756f46486fbef1b7541814d0d5a8233a",
      "v": 27,
      "creates": null,
      "raw": "0xf86f8203e0850cc5c5c03582520894cd1e66ed539dd92fc40bbaa1fa16de8c02c14d4589028c418afbbb5c0000801ba0245a8dcc8bf5fc7a689d54e3d24e5a31c93eee9dc2417dfd53114f235c8a3763a0580e4bdc2ab28f221aec9fd7997a94ec756f46486fbef1b7541814d0d5a8233a",
      "networkId": 0,
      "chainId": 0
    }
  ]
}