{
  "hash": "0x7b8a06990e8bee0e844862fa7d2d2ded9fc3c6ef023d917f445ab974eb8e6d1f",
  "parentHash": "0x2b35d3dc9bd75ecd09b00395486c0b85488aeec4358b0e53e038b44f45f821a2",
  "number": 65146,
  "timestamp": 1439232068,
  "nonce": "0x175c0381cbafb67e",
  "difficulty": 1934139730672,
  "gasLimit": {
    "_hex": "0x2fefd8"
  },
  "gasUsed": {
    "_hex": "0xa410"
  },
  "miner": "0xf927a40C8B7F6E07c5af7FA2155B4864a4112B13",
  "extraData": "0x",
  "transactions": [
    {
      "hash": "0xbeb26aa87ef34463900191f6d4b390a2ccb1837a5598f0a4682d77ff9e0f52f4",
      "blockHash": "0x7b8a06990e8bee0e844862fa7d2d2ded9fc3c6ef023d917f445ab974eb8e6d1f",
      "blockNumber": 65146,
      "transactionIndex": 0,
      "confirmations": null,
      "from": "0xd84B0329606556B845a1ABb0d7910082c4ee2f64",
      "gasPrice": {
        "_hex": "0xba43b7400"
      },
      "gasLimit": {
        "_hex": "0x5208"
      },
      "to": "0xb828469164841C1F62FdA4C5bf09BEE948492734",
      "value": {
        "_hex": "0x5a32daa1a281000"
      },
      "nonce": 1,
      "data": "0x",
      "r": "0x7f1f2451543eb24e30f0e9c09079cc4ede739fc39980b12cafd742b372e0371f",
      "s": "0x4046782f2e27e5d1edb60e01f672b7e3b87410b1ef6fce2fdf929b04e337da9d",
      "v": 28,
      "creates": null,
      "raw": "0xf86c01850ba43b740082520894b828469164841c1f62fda4c5bf09bee9484927348805a32daa1a281000801ca07f1f2451543eb24e30f0e9c09079cc4ede739fc39980b12cafd742b372e0371fa04046782f2e27e5d1edb60e01f672b7e3b87410b1ef6fce2fdf929b04e337da9d",
      "networkId": 0,
      "chainId": 0
    },
    {
      "hash": "0xcb3552418b807ed78b38ce31fdd1ee3496b9f4965b6d44f1ff3a742728485281",
      "blockHash": "0x7b8a06990e8bee0e844862fa7d2d2ded9fc3c6ef023d917f445ab974eb8e6d1f",
      "blockNumber": 65146,
      "transactionIndex": 1,
      "confirmations": null,
      "from": "0x105cA1EC80eDFCA8A62FcCaA76B399eE3C1B3702",
      "gasPrice": {
        "_hex": "0xba43b7400"
      },
      "gasLimit": {
        "_hex": "0x5208"
      },
      "to": "0x460203A07c702c028174455765F3BBB11A302bb9",
      "value": {
        "_hex": "0x546a0f6b3e65000"
      },
      "nonce": 1,
      "data": "0x",
      "r": "0xf6b305998b8691fe381d11bd9a12e6414b89b362fa86546aa97efc634366be46",
      "s": "0x573f1ad5f54f28c3d746fcee24039a92d0d58ac90a441026c751ec3c8c04a96c",
      "v": 28,
      "creates": null,
      "raw": "0xf86c01850ba43b740082520894460203a07c702c028174455765f3bbb11a302bb9880546a0f6b3e65000801ca0f6b305998b8691fe381d11bd9a12e6414b89b362fa86546aa97efc634366be46a0573f1ad5f54f28c3d746fcee24039a92d0d58ac90a441026c751ec3c8c04a96c",
      "networkId": 0,
      "chainId": 0
    }
  ]
}