{
  "hash": "0xc7c5eba9c9fdeb1ed52d41ce352ccde65445992d1b65bfc8ebf265733f30ce3d",
  "parentHash": "0xd3958035dbc92da08a07a8b16fa89c484133d83f1d6ddb783c6ffc84a198ac04",
  "number": 121497,
  "timestamp": 1440177927,
  "nonce": "0x034834985c8aec02",
  "difficulty": 4456009973432,
  "gasLimit": {
    "_hex": "0x2fefd8"
  },
  "gasUsed": {
    "_hex": "0xf618"
  },
  "miner": "0x7E6930B63D03e88F5928C5cd6ee3FCee4D714F7F",
  "extraData": "0xd783010003844765746887676f312e342e32856c696e7578",
  "transactions": [
    {
      "hash": "0x0694aeed68f3594ebd87293392b7b25d83471658463cd10a1a098d7810ddac6b",
      "blockHash": "0xc7c5eba9c9fdeb1ed52d41ce352ccde65445992d1b65bfc8ebf265733f30ce3d",
      "blockNumber": 121497,
      "transactionIndex": 0,
      "confirmations": null,
      "from": "0x608f4b86321a68453f9adf6F06F7Fc3E621739ad",
      "gasPrice": {
        "_hex": "0xba43b7400"
      },
      "gasLimit": {
        "_hex": "0x5208"
      },
      "to": "0x32Be343B94f860124dC4fEe278FDCBD38C102D88",
      "value": {
        "_hex": "0x4563918244f40000"
      },
      "nonce": 102,
      "data": "0x",
      "r": "0x7be9ef0f0d8d3349c7017adf322250a8bdd5f312704b803153aa005c3f35fcbd",
      "s": "0x1acf11809977c3a981378693841757994502e3524f87ea4a8042d4ed61459531",
      "v": 28,
      "creates": null,
      "raw": "0xf86c66850ba43b74008252089432be343b94f860124dc4fee278fdcbd38c102d88884563918244f40000801ca07be9ef0f0d8d3349c7017adf322250a8bdd5f312704b803153aa005c3f35fcbda01acf11809977c3a981378693841757994502e3524f87ea4a8042d4ed61459531",
      "networkId": 0,
      "chainId": 0
    },
    {
      "hash": "0x5b1c488873eebf01e6b4403f3b07bca6259c650b04f062419e166d60a17ae8a9",
      "blockHash": "0xc7c5eba9c9fdeb1ed52d41ce352ccde65445992d1b65bfc8ebf265733f30ce3d",
      "blockNumber": 121497,
      "transactionIndex": 1,
      "confirmations": null,
      "from": "0xb1abce2918E21ddb93AA452731a12672A3d9F75a",
      "gasPrice": {
        "_hex": "0xba43b7400"
      },
      "gasLimit": {
        "_hex": "0x5208"
      },
      "to": "0x32Be343B94f860124dC4fEe278FDCBD38C102D88",
      "value": {
        "_hex": "0x455fd68a17f06000"
      },
      "nonce": 211,
      "data": "0x",
      "r": "0x3b5ec1d80b0ad1a7847ae0f6e30ba4277d5cf1d3a3d9eaa28445e544eb8034f2",
      "s": "0x65266060c70c8121c3e645bd287038097194f02d6506bea518575d23ee90baea",
      "v": 28,
      "creates": null,
      "raw": "0xf86d81d3850ba43b74008252089432be343b94f860124dc4fee278fdcbd38c102d8888455fd68a17f06000801ca03b5ec1d80b0ad1a7847ae0f6e30ba4277d5cf1d3a3d9eaa28445e544eb8034f2a065266060c70c8121c3e645bd287038097194f02d6506bea518575d23ee90baea",
      "networkId": 0,
      "chainId": 0
    },
    {
      "hash": "0x36fdec4e9ba5ff506e3f47d85723720cdb206f8099a23d7d4b3a32745ae446bf",
      "blockHash": "0xc7c5eba9c9fdeb1ed52d41ce352ccde65445992d1b65bfc8ebf265733f30ce3d",
      "blockNumber": 121497,
      "transactionIndex": 2,
      "confirmations": null,
      "from": "0xa70a9a7040d542C632D8e0bE7c5513A8a5Bbc752",
      "gasPrice": {
        "_hex": "0xba43b7400"
      },
      "gasLimit": {
        "_hex": "0x5208"
      },
      "to": "0x32Be343B94f860124dC4fEe278FDCBD38C102D88",
      "value": {
        "_hex": "0x455fd68a17f06000"
      },
      "nonce": 335,
      "data": "0x",
      "r": "0xca2c1b9e82c86b5267b66839000f41830c655e59b121315b26128aa5eb68506b",
      "s": "0x76bff7b21695d327263d360b154f4784a634287dca8d5b73c74c2b239569f8fb",
      "v": 28,
      "creates": null,
      "raw": "0xf86e82014f850ba43b74008252089432be343b94f860124dc4fee278fdcbd38c102d8888455fd68a17f06000801ca0ca2c1b9e82c86b5267b66839000f41830c655e59b121315b26128aa5eb68506ba076bff7b21695d327263d360b154f4784a634287dca8d5b73c74c2b239569f8fb",
      "networkId": 0,
      "chainId": 0
    }
  ]
}