{
  "hash": "0x15f1d5a24e3244a735c58eea05185271c71f12f3ea31715f022201cca3b8eb1c",
  "parentHash": "0xfd9ed53d47049891360ed8a58fdc78232d99e66bb8df2fd8a6c88bd29c4b5868",
  "number": 63297,
  "timestamp": 1439202261,
  "nonce": "0xdc65ab55c407b712",
  "difficulty": 1814696458443,
  "gasLimit": {
    "_hex": "0x2fefd8"
  },
  "gasUsed": {
    "_hex": "0x5208"
  },
  "miner": "0x0338116f55fEd2F5ee9391C8624612Dc9744D149",
  "extraData": "0x476574682f76312e302e312f6c696e75782f676f312e342e32",
  "transactions": [
    {
      "hash": "0x996b36b946b0432f3d1f5d43f6504dad1e86bbecec75c2358d1cac5029857294",
      "blockHash": "0x15f1d5a24e3244a735c58eea05185271c71f12f3ea31715f022201cca3b8eb1c",
      "blockNumber": 63297,
      "transactionIndex": 0,
      "confirmations": null,
      "from": "0xB6AC12CefF0375Da80503AcCa54bf3061Fa917a8",
      "gasPrice": {
        "_hex": "0xcdecf1bb3"
      },
      "gasLimit": {
        "_hex": "0x15f90"
      },
      "to": "0x5fF827e73C5B866c300b824fe12719a3DD350513",
      "value": {
        "_hex": "0x4563918244f40000"
      },
      "nonce": 9,
      "data": "0x",
      "r": "0x8f760f3cbcf4923b8de1cbc64d3f380a5f59473d310b3e2257453751a836be03",
      "s": "0x154bf52c17b108e8587614adfb0b4e16581a7f9583daa90415982423c849c480",
      "v": 27,
      "creates": null,
      "raw": "0xf86d09850cdecf1bb383015f90945ff827e73c5b866c300b824fe12719a3dd350513884563918244f40000801ba08f760f3cbcf4923b8de1cbc64d3f380a5f59473d310b3e2257453751a836be03a0154bf52c17b108e8587614adfb0b4e16581a7f9583daa90415982423c849c480",
      "networkId": 0,
      "chainId": 0
    }
  ]
}