{
  "hash": "0xabe047f6ef9d8a5b54ba5d3f06020440adc064856b242d90c4c7a4b220685e53",
  "parentHash": "0x3a470c8b410ae01146e704e7837ba4d4ad68b4e83103deb432ca96e37e16ec2f",
  "number": 116257,
  "timestamp": 1440070892,
  "nonce": "0x6c6cd532ecc37878",
  "difficulty": 4595841337270,
  "gasLimit": {
    "_hex": "0x2fefd8"
  },
  "gasUsed": {
    "_hex": "0x5208"
  },
  "miner": "0xf8E0CA3Ed80bd541b94BEdCf259e8CF2141A9523",
  "extraData": "0x476574682f76312e302e312f77696e646f77732f676f312e342e32",
  "transactions": [
    {
      "hash": "0xe736823ca48100290156a28deb5761427ee2c28ebbf2a875f668105ff33039c7",
      "blockHash": "0xabe047f6ef9d8a5b54ba5d3f06020440adc064856b242d90c4c7a4b220685e53",
      "blockNumber": 116257,
      "transactionIndex": 0,
      "confirmations": null,
      "from": "0x2910543Af39abA0Cd09dBb2D50200b3E800A63D2",
      "gasPrice": {
        "_hex": "0xdc732e2ac"
      },
      "gasLimit": {
        "_hex": "0x5208"
      },
      "to": "0xA241367664A74D39a35406c9268970d0ef7561Ad",
      "value": {
        "_hex": "0x8ab55f8b52078000"
      },
      "nonce": 1129,
      "data": "0x",
      "r": "0x9d32d99615750ab6f7d698fde2051b1769ab93c7f6b560759e083cc041df22e5",
      "s": "0x311d10080bde6740dfef8e0e20af1540e99423ff0f73726c4a329b283f09b5e6",
      "v": 28,
      "creates": null,
      "raw": "0xf86e820469850dc732e2ac82520894a241367664a74d39a35406c9268970d0ef7561ad888ab55f8b52078000801ca09d32d99615750ab6f7d698fde2051b1769ab93c7f6b560759e083cc041df22e5a0311d10080bde6740dfef8e0e20af1540e99423ff0f73726c4a329b283f09b5e6",
      "networkId": 0,
      "chainId": 0
    }
  ]
}