{
  "hash": "0x826bfe59361fed6c693d25eb41ba2a71c127f5553f62983976e16fc9574563d0",
  "parentHash": "0x03ae3a5caf8b266cfa781686c891d92a8afc5ad7588e5ee3b6b2c079a4da7817",
  "number": 76933,
  "timestamp": 1439428697,
  "nonce": "0xfb1a1e3be34de1f5",
  "difficulty": 2237211427258,
  "gasLimit": {
    "_hex": "0x2fefd8"
  },
  "gasUsed": {
    "_hex": "0x5208"
  },
  "miner": "0x47ff6576639c2e94762eA5443978D7681C0E78DC",
  "extraData": "0x476574682f76312e302e312f6c696e75782f676f312e342e32",
  "transactions": [
    {
      "hash": "0x0dfa7174f1ab86a6fe1489cdc21528c341232764cf35c67a3f6db3c86398dc3f",
      "blockHash": "0x826bfe59361fed6c693d25eb41ba2a71c127f5553f62983976e16fc9574563d0",
      "blockNumber": 76933,
      "transactionIndex": 0,
      "confirmations": null,
      "from": "0xe3A29c590ae7Bf0D32A7121373bf5C94ADbeCa4a",
      "gasPrice": {
        "_hex": "0xe224f6860"
      },
      "gasLimit": {
        "_hex": "0x5208"
      },
      "to": "0x32Be343B94f860124dC4fEe278FDCBD38C102D88",
      "value": {
        "_hex": "0x6813f13af3a3c00"
      },
      "nonce": 4,
      "data": "0x",
      "r": "0x3a57094409f74a1732e87fd3fce977aa3d446a048c4f38a39360981f54ca29f2",
      "s": "0x08a40afa00e3b147109b3ee70279ff864a318cb6def14f25c5ff66467b70cd58",
      "v": 27,
      "creates": null,
      "raw": "0xf86c04850e224f68608252089432be343b94f860124dc4fee278fdcbd38c102d888806813f13af3a3c00801ba03a57094409f74a1732e87fd3fce977aa3d446a048c4f38a39360981f54ca29f2a008a40afa00e3b147109b3ee70279ff864a318cb6def14f25c5ff66467b70cd58",
      "networkId": 0,
      "chainId": 0
    }
  ]
}