{
  "hash": "0xcd50fb46719b495f80ff59e465603d13f409026af1e6203f425781b42c8b8f96",
  "parentHash": "0xe632a6f028395b2349c5edc03058494340a6258e9e487b37efe2ef552edc60b3",
  "number": 46807,
  "timestamp": 1438929450,
  "nonce": "0x131ccaa5fdd84f47",
  "difficulty": 1462446209953,
  "gasLimit": {
    "_hex": "0x7a85"
  },
  "gasUsed": {
    "_hex": "0x5208"
  },
  "miner": "0x306e6267d94f23a9b37Cb110f20852208Fbbf1aA",
  "extraData": "0x476574682f76312e302e312f77696e646f77732f676f312e342e32",
  "transactions": [
    {
      "hash": "0x7da0fd6a0edf315b8fdacab1850be7c1fb40e494eeede40c9d4c623b34e83e64",
      "blockHash": "0xcd50fb46719b495f80ff59e465603d13f409026af1e6203f425781b42c8b8f96",
      "blockNumber": 46807,
      "transactionIndex": 0,
      "confirmations": null,
      "from": "0xe6A7a1d47ff21B6321162AEA7C6CB457D5476Bca",
      "gasPrice": {
        "_hex": "0xd6c76a76a"
      },
      "gasLimit": {
        "_hex": "0x5208"
      },
      "to": "0x638F5CB148f5caFceF28905283373F0c8d8c2672",
      "value": {
        "_hex": "0xeb88ca8aa6d7648"
      },
      "nonce": 1,
      "data": "0x",
      "r": "0x64359199f1d3121984aaa88dc9e71c75afea4023dbbed4c3270ca393c9f7be40",
      "s": "0x2dae9e29dcaee679c794414e58ec97d9dfd3ade997f8b010658ccac7f0087571",
      "v": 28,
      "creates": null,
      "raw": "0xf86c01850d6c76a76a82520894638f5cb148f5cafcef28905283373f0c8d8c2672880eb88ca8aa6d7648801ca064359199f1d3121984aaa88dc9e71c75afea4023dbbed4c3270ca393c9f7be40a02dae9e29dcaee679c794414e58ec97d9dfd3ade997f8b010658ccac7f0087571",
      "networkId": 0,
      "chainId": 0
    }
  ]
}