{
  "hash": "0x003b6c8531435e05e374813408c021487aa8eba3eb86f359c15d30b107cf46cc",
  "parentHash": "0x061b452ad153a1710486bf5a2374660dcde67935669929c7fba86e3bba33ba06",
  "number": 92533,
  "timestamp": 1439673536,
  "nonce": "0x9e93f840d5a99270",
  "difficulty": 3526838331460,
  "gasLimit": {
    "_hex": "0x2fefd8"
  },
  "gasUsed": {
    "_hex": "0x5208"
  },
  "miner": "0xe6A7a1d47ff21B6321162AEA7C6CB457D5476Bca",
  "extraData": "0x476574682f76312e302e312d38326566323666362f6c696e75782f676f312e34",
  "transactions": [
    {
      "hash": "0xd65e662eb8cc082903cefc065a9592675428a66d54a9f15180b9fe021ef42f5f",
      "blockHash": "0x003b6c8531435e05e374813408c021487aa8eba3eb86f359c15d30b107cf46cc",
      "blockNumber": 92533,
      "transactionIndex": 0,
      "confirmations": null,
      "from": "0xB480F44F0868b5c45aa0C59dCe85CA5A2eef91e8",
      "gasPrice": {
        "_hex": "0x1111ac4fa58"
      },
      "gasLimit": {
        "_hex": "0x15f90"
      },
      "to": "0x103967E58a2593d7576B8A9819C24dB7C67C92C3",
      "value": {
        "_hex": "0xde0b6b3a7640000"
      },
      "nonce": 0,
      "data": "0x",
      "r": "0x1d18c9e6f782ad43e1ab461ccac7ddb2e1f7c3bad2a1d2009ea2c9df6473d6e7",
      "s": "0x5d8e367a435cbe5b89fec3790a705991a90488e52a78e3a9139549156b8bde09",
      "v": 28,
      "creates": null,
      "raw": "0xf86e808601111ac4fa5883015f9094103967e58a2593d7576b8a9819c24db7c67c92c3880de0b6b3a7640000801ca01d18c9e6f782ad43e1ab461ccac7ddb2e1f7c3bad2a1d2009ea2c9df6473d6e7a05d8e367a435cbe5b89fec3790a705991a90488e52a78e3a9139549156b8bde09",
      "networkId": 0,
      "chainId": 0
    }
  ]
}