{
  "hash": "0x8ef6559d18afb1c13636708343f6b833ef0a1278db202bd3ad04db4ecba6c5cd",
  "parentHash": "0xc316e002d5780fef7be17cdf26cb55eae90df4118901c0f14f58634b1bb94624",
  "number": 122026,
  "timestamp": 1440186928,
  "nonce": "0xacf46699ea2301f9",
  "difficulty": 4462260708712,
  "gasLimit": {
    "_hex": "0x2fefd8"
  },
  "gasUsed": {
    "_hex": "0x5208"
  },
  "miner": "0x52bc44d5378309EE2abF1539BF71dE1b7d7bE3b5",
  "extraData": "0xd783010002844765746887676f312e342e32856c696e7578",
  "transactions": [
    {
      "hash": "0x88df8dffa1b882dc0d295ba2ade59eeb0ec42a4467418e9aeb03b5807e10e7e7",
      "blockHash": "0x8ef6559d18afb1c13636708343f6b833ef0a1278db202bd3ad04db4ecba6c5cd",
      "blockNumber": 122026,
      "transactionIndex": 0,
      "confirmations": null,
      "from": "0x32Be343B94f860124dC4fEe278FDCBD38C102D88",
      "gasPrice": {
        "_hex": "0xcfca909d2"
      },
      "gasLimit": {
        "_hex": "0x5208"
      },
      "to": "0xBdF25376dA0767EfBF7eE3dCAe463ECe5572bFF3",
      "value": {
        "_hex": "0x1b2633a5dded5c000"
      },
      "nonce": 1593,
      "data": "0x",
      "r": "0x525762d352644df3cd2f1a107796e16ad8852939ea2d21b8eec86cfb5e558c86",
      "s": "0x2e93cb693bed544dd74ccea6c0e9fbe94923dbb026addae891ac3b55900da3c9",
      "v": 28,
      "creates": null,
      "raw": "0xf86f820639850cfca909d282520894bdf25376da0767efbf7ee3dcae463ece5572bff38901b2633a5dded5c000801ca0525762d352644df3cd2f1a107796e16ad8852939ea2d21b8eec86cfb5e558c86a02e93cb693bed544dd74ccea6c0e9fbe94923dbb026addae891ac3b55900da3c9",
      "networkId": 0,
      "chainId": 0
    }
  ]
}