{
  "hash": "0x8631f645d5f3c42dfed69ac87b9805f827d81041ca9d1a77c89169c2695a6d2f",
  "parentHash": "0x57e0afbba5de92194c6363cb29b3eb6ab4b8b79fed59d6e735ec1ad114b6fe0e",
  "number": 77390,
  "timestamp": 1439436383,
  "nonce": "0xbc7ec47b88639b7c",
  "difficulty": 2231634567093,
  "gasLimit": {
    "_hex": "0x2fefd8"
  },
  "gasUsed": {
    "_hex": "0x5208"
  },
  "miner": "0xf927a40C8B7F6E07c5af7FA2155B4864a4112B13",
  "extraData": "0x",
  "transactions": [
    {
      "hash": "0x7b3147466b7b2ca9a4d25f116570dfe5b2c95487a7723960e3a8cf1626f83852",
      "blockHash": "0x8631f645d5f3c42dfed69ac87b9805f827d81041ca9d1a77c89169c2695a6d2f",
      "blockNumber": 77390,
      "transactionIndex": 0,
      "confirmations": null,
      "from": "0x3ce70f7EBbb911d5FF14BB9244ac7C9be2c669B3",
      "gasPrice": {
        "_hex": "0xd072d14f8"
      },
      "gasLimit": {
        "_hex": "0x5208"
      },
      "to": "0x664254957B416b15EE4A881B59Deab3c4159E549",
      "value": {
        "_hex": "0x16c4abbebea0100000"
      },
      "nonce": 0,
      "data": "0x",
      "r": "0xd7fce572d0291d34e70ff6e7ff9ce03a1cc46e781e44316902f53e5399978b31",
      "s": "0x3cdd19ff86abd39c68229af9c7591f7fe27d85801eb3b2ed9647795a2eed5953",
      "v": 27,
      "creates": null,
      "raw": "0xf86d80850d072d14f882520894664254957b416b15ee4a881b59deab3c4159e5498916c4abbebea0100000801ba0d7fce572d0291d34e70ff6e7ff9ce03a1cc46e781e44316902f53e5399978b31a03cdd19ff86abd39c68229af9c7591f7fe27d85801eb3b2ed9647795a2eed5953",
      "networkId": 0,
      "chainId": 0
    }
  ]
}