{
  "hash": "0xdf7911636c208629217bbd427ef4e47d8a6f4b9b304c8181b853ddeeb3e486f8",
  "parentHash": "0x378c0a2bd36d47d1a1e15d81ef07ef446854f044909aa768e4e6efc8d6925f9e",
  "number": 48806,
  "timestamp": 1438963372,
  "nonce": "0xb99ee5559b06b19a",
  "difficulty": 1474284817075,
  "gasLimit": {
    "_hex": "0x1eaac"
  },
  "gasUsed": {
    "_hex": "0xa410"
  },
  "miner": "0x47ff6576639c2e94762eA5443978D7681C0E78DC",
  "extraData": "0x476574682f76312e302e312f6c696e75782f676f312e342e32",
  "transactions": [
    {
      "hash": "0x1a84d012eb34e61113afb943f5fd601086f9e13e90e2380e00582369a5ecd678",
      "blockHash": "0xdf7911636c208629217bbd427ef4e47d8a6f4b9b304c8181b853ddeeb3e486f8",
      "blockNumber": 48806,
      "transactionIndex": 0,
      "confirmations": null,
      "from": "0xA07A2aE7806378684B775111ba80806479b5A334",
      "gasPrice": {
        "_hex": "0xcefbbfd6f"
      },
      "gasLimit": {
        "_hex": "0x5208"
      },
      "to": "0x32Be343B94f860124dC4fEe278FDCBD38C102D88",
      "value": {
        "_hex": "0xddc9180dbdde000"
      },
      "nonce": 0,
      "data": "0x",
      "r": "0xf4cf314f4d784e4cc8a1f29ee8a6c005b1ce7e4505ee9a936e33e50cb67e493c",
      "s": "0x0dafe59ae57fa4cf98576bf6de9d42bdef49fbc6e3df2ab33bb656ec4e2eea83",
      "v": 28,
      "creates": null,
      "raw": "0xf86c80850cefbbfd6f8252089432be343b94f860124dc4fee278fdcbd38c102d88880ddc9180dbdde000801ca0f4cf314f4d784e4cc8a1f29ee8a6c005b1ce7e4505ee9a936e33e50cb67e493ca00dafe59ae57fa4cf98576bf6de9d42bdef49fbc6e3df2ab33bb656ec4e2eea83",
      "networkId": 0,
      "chainId": 0
    },
    {
      "hash": "0x7d1ccf72ca153964ac17242a3d386837d902b86540984274c0e1ce060e821956",
      "blockHash": "0xdf7911636c208629217bbd427ef4e47d8a6f4b9b304c8181b853ddeeb3e486f8",
      "blockNumber": 48806,
      "transactionIndex": 1,
      "confirmations": null,
      "from": "0xeC210EC3715d5918B37CFa4D344a45d177eD849f",
      "gasPrice": {
        "_hex": "0xcefbbfd6f"
      },
      "gasLimit": {
        "_hex": "0x5208"
      },
      "to": "0x32Be343B94f860124dC4fEe278FDCBD38C102D88",
      "value": {
        "_hex": "0xddc9180dbdde000"
      },
      "nonce": 0,
      "data": "0x",
      "r": "0xf1b61a43b8cad84d1aea5b7b7a430b09aaa2bf04519e9d9f3b2765965cce5eec",
      "s": "0x4263f583808adbe4e420af5765338dd8a076b666cf71489676fe95d4aa5a7cca",
      "v": 28,
      "creates": null,
      "raw": "0xf86c80850cefbbfd6f8252089432be343b94f860124dc4fee278fdcbd38c102d88880ddc9180dbdde000801ca0f1b61a43b8cad84d1aea5b7b7a430b09aaa2bf04519e9d9f3b2765965cce5eeca04263f583808adbe4e420af5765338dd8a076b666cf71489676fe95d4aa5a7cca",
      "networkId": 0,
      "chainId": 0
    }
  ]
}