{
  "hash": "0x490286dd836e7a63ac18bd11a6f7002fc6ab4d245fe9a91a571c68b5be40ebb7",
  "parentHash": "0x9cce7b844b15dace86f2dc6c949251df1d21eb846012faae5b3e9114306b2293",
  "number": 101015,
  "timestamp": 1439816065,
  "nonce": "0x338850c6835e784e",
  "difficulty": 3869559541139,
  "gasLimit": {
    "_hex": "0x2fefd8"
  },
  "gasUsed": {
    "_hex": "0xa410"
  },
  "miner": "0x47ff6576639c2e94762eA5443978D7681C0E78DC",
  "extraData": "0x476574682f76312e302e312f6c696e75782f676f312e342e32",
  "transactions": [
    {
      "hash": "0xfd0c40568562b528f8d7d8ba35f734b75ce971b6da9c430510db16850bd9612e",
      "blockHash": "0x490286dd836e7a63ac18bd11a6f7002fc6ab4d245fe9a91a571c68b5be40ebb7",
      "blockNumber": 101015,
      "transactionIndex": 0,
      "confirmations": null,
      "from": "0x2910543Af39abA0Cd09dBb2D50200b3E800A63D2",
      "gasPrice": {
        "_hex": "0xd50e514ce"
      },
      "gasLimit": {
        "_hex": "0x5208"
      },
      "to": "0x2e3A5f60a5590959B068587c47e643E18E7F5Cdf",
      "value": {
        "_hex": "0x11c37937e08000"
      },
      "nonce": 959,
      "data": "0x",
      "r": "0x791de7b191d90e38d6f09db0c6219a15e4e1f21440bc600de9738ec4d4f12498",
      "s": "0x54e5780fa4d048347a1a170fa6a7a8d5a497a08a26847fab811d4fbf73ad7ff8",
      "v": 27,
      "creates": null,
      "raw": "0xf86d8203bf850d50e514ce825208942e3a5f60a5590959b068587c47e643e18e7f5cdf8711c37937e08000801ba0791de7b191d90e38d6f09db0c6219a15e4e1f21440bc600de9738ec4d4f12498a054e5780fa4d048347a1a170fa6a7a8d5a497a08a26847fab811d4fbf73ad7ff8",
      "networkId": 0,
      "chainId": 0
    },
    {
      "hash": "0xf6a074142135301e359da86f622fcf308d7764a8254ffef47ad36c3c59ba5d00",
      "blockHash": "0x490286dd836e7a63ac18bd11a6f7002fc6ab4d245fe9a91a571c68b5be40ebb7",
      "blockNumber": 101015,
      "transactionIndex": 1,
      "confirmations": null,
      "from": "0x2910543Af39abA0Cd09dBb2D50200b3E800A63D2",
      "gasPrice": {
        "_hex": "0xd50e514ce"
      },
      "gasLimit": {
        "_hex": "0x5208"
      },
      "to": "0x7b8e8F3200b7871A4EBa6923A6AE518E914D0D37",
      "value": {
        "_hex": "0x332b857ee5c2b8000"
      },
      "nonce": 960,
      "data": "0x",
      "r": "0xda37f34a3a7e357aabfb56ba41eca018739e085cacb05e268eca10252bfa318d",
      "s": "0x724de19cc7c0aeeff63d385aa1c499e4200e98750c1b10fb1c5d17b834ac88b7",
      "v": 27,
      "creates": null,
      "raw": "0xf86f8203c0850d50e514ce825208947b8e8f3200b7871a4eba6923a6ae518e914d0d37890332b857ee5c2b8000801ba0da37f34a3a7e357aabfb56ba41eca018739e085cacb05e268eca10252bfa318da0724de19cc7c0aeeff63d385aa1c499e4200e98750c1b10fb1c5d17b834ac88b7",
      "networkId": 0,
      "chainId": 0
    }
  ]
}