{
  "hash": "0x29f2c60b4395c0c757f0e37cd9798800246777e5f08fe1c2809dd78415219312",
  "parentHash": "0xf2988b9870e092f2898662ccdbc06e0e320a08139e9c6be98d0ce372f8611f22",
  "number": 47885,
  "timestamp": 1438947963,
  "nonce": "0xb1898293bf9bdd83",
  "difficulty": 1453715418581,
  "gasLimit": {
    "_hex": "0x101a6"
  },
  "gasUsed": {
    "_hex": "0x546c"
  },
  "miner": "0xe6f6D9ce457FE194596C06a926bB1D2a42ABb7fd",
  "extraData": "0x476574682f76312e302e312d38326566323666362f6c696e75782f676f312e34",
  "transactions": [
    {
      "hash": "0x76524ec2dc7c0f34cf015e8edb84adcbaaddc792515a94e1ae0973cc70fab857",
      "blockHash": "0x29f2c60b4395c0c757f0e37cd9798800246777e5f08fe1c2809dd78415219312",
      "blockNumber": 47885,
      "transactionIndex": 0,
      "confirmations": null,
      "from": "0x74016F15e9262E1fAb078146a4002ACc513AfEf0",
      "gasPrice": {
        "_hex": "0xd1f349ba5"
      },
      "gasLimit": {
        "_hex": "0x55f0"
      },
      "to": "0x2910543Af39abA0Cd09dBb2D50200b3E800A63D2",
      "value": {
        "_hex": "0x56bc75e2d63100000"
      },
      "nonce": 1,
      "data": "0x454e3030434e505252",
      "r": "0x9c2868e2a3f999d137db009a67e1a7a652e8870131328f970ffbd77fa6dcde73",
      "s": "0x4a7f22af4d33c80b8a5a5577c77c41302a9d84084edac0f2b74c436897c828ea",
      "v": 27,
      "creates": null,
      "raw": "0xf87601850d1f349ba58255f0942910543af39aba0cd09dbb2d50200b3e800a63d289056bc75e2d6310000089454e3030434e5052521ba09c2868e2a3f999d137db009a67e1a7a652e8870131328f970ffbd77fa6dcde73a04a7f22af4d33c80b8a5a5577c77c41302a9d84084edac0f2b74c436897c828ea",
      "networkId": 0,
      "chainId": 0
    }
  ]
}