{
  "hash": "0xf19eec7b7564f52b1cf7a0360f7d88cb99f5497cf9e6f7f5096ed126a35979e6",
  "parentHash": "0x18a67a6858d2d0d84eecdccddd27f25db58a6109804b2abcb2c720d7cbc483da",
  "number": 68328,
  "timestamp": 1439286127,
  "nonce": "0x5069feab6f799d1f",
  "difficulty": 2008462010966,
  "gasLimit": {
    "_hex": "0x2fefd8"
  },
  "gasUsed": {
    "_hex": "0xf618"
  },
  "miner": "0x39A1BB80a741bF5EC39FB9BE59408Fa0F418fFBf",
  "extraData": "0x476574682f76312e302e312f77696e646f77732f676f312e342e32",
  "transactions": [
    {
      "hash": "0xe2a22f510896c4f6cc367f073999f07fed4ee2b1152556ac22cdac28823b0167",
      "blockHash": "0xf19eec7b7564f52b1cf7a0360f7d88cb99f5497cf9e6f7f5096ed126a35979e6",
      "blockNumber": 68328,
      "transactionIndex": 0,
      "confirmations": null,
      "from": "0xD14523E2998A8BEd4099b6ca900AB7cF5af9E31f",
      "gasPrice": {
        "_hex": "0xba43b7400"
      },
      "gasLimit": {
        "_hex": "0x5208"
      },
      "to": "0x9bf80f28BC38d7EBc1bdc890043B4A5e6Ba0604A",
      "value": {
        "_hex": "0x4e1253f5de4000"
      },
      "nonce": 1,
      "data": "0x",
      "r": "0x667ffbb6f8f59d070028760f76e8eb2b096415f1e7ef0b3781d9ee627b81921a",
      "s": "0x75dcd98024586cc1e8c70b4b6e004739ce4a33fdeaf675d812b813f549109b2f",
      "v": 28,
      "creates": null,
      "raw": "0xf86b01850ba43b7400825208949bf80f28bc38d7ebc1bdc890043b4a5e6ba0604a874e1253f5de4000801ca0667ffbb6f8f59d070028760f76e8eb2b096415f1e7ef0b3781d9ee627b81921aa075dcd98024586cc1e8c70b4b6e004739ce4a33fdeaf675d812b813f549109b2f",
      "networkId": 0,
      "chainId": 0
    },
    {
      "hash": "0x3864bfdb118c26fa5298b504a5ed597c08b190a9ae7855cbec8e8ec9e1fdd6f0",
      "blockHash": "0xf19eec7b7564f52b1cf7a0360f7d88cb99f5497cf9e6f7f5096ed126a35979e6",
      "blockNumber": 68328,
      "transactionIndex": 1,
      "confirmations": null,
      "from": "0x5B7684f60A6F108Fe4DF982c7ba6419E3277394A",
      "gasPrice": {
        "_hex": "0xba43b7400"
      },
      "gasLimit": {
        "_hex": "0x5208"
      },
      "to": "0x3Debc1Fc28BD28bC8f4F8Aa1b7a460EE0425f08e",
      "value": {
        "_hex": "0x4e1253f5de4000"
      },
      "nonce": 1,
      "data": "0x",
      "r": "0xce327bcd11aa837886b13f4606951c85d81af8147bfcc2bf26c1b4c50d83798a",
      "s": "0x3c8c52c6789b33312b7e881b4de0fd7b6f9c414c3f347a47c8a1ca3fbb4b045c",
      "v": 27,
      "creates": null,
      "raw": "0xf86b01850ba43b7400825208943debc1fc28bd28bc8f4f8aa1b7a460ee0425f08e874e1253f5de4000801ba0ce327bcd11aa837886b13f4606951c85d81af8147bfcc2bf26c1b4c50d83798aa03c8c52c6789b33312b7e881b4de0fd7b6f9c414c3f347a47c8a1ca3fbb4b045c",
      "networkId": 0,
      "chainId": 0
    },
    {
      "hash": "0x2b25a9ed0f587579fc0c174f3b9f1f94afb05051a8477d00a17f5c673ff4a341",
      "blockHash": "0xf19eec7b7564f52b1cf7a0360f7d88cb99f5497cf9e6f7f5096ed126a35979e6",
      "blockNumber": 68328,
      "transactionIndex": 2,
      "confirmations": null,
      "from": "0xBDE968AFdC7b5352e9cbCdA91D427344ADE449B4",
      "gasPrice": {
        "_hex": "0xba43b7400"
      },
      "gasLimit": {
        "_hex": "0x5208"
      },
      "to": "0xe2Fd68d37894d925DCE46510A4FEA8d2a00f50e2",
      "value": {
        "_hex": "0x4e1253f5de4000"
      },
      "nonce": 1,
      "data": "0x",
      "r": "0x363a3ad06708811f8ff68e46e95dfc70207781361c267a7d7073c9b3118d9e61",
      "s": "0x1cfeafe23542573a144678feaad4c25ace499786e56487421e83ea6f3c015f68",
      "v": 28,
      "creates": null,
      "raw": "0xf86b01850ba43b740082520894e2fd68d37894d925dce46510a4fea8d2a00f50e2874e1253f5de4000801ca0363a3ad06708811f8ff68e46e95dfc70207781361c267a7d7073c9b3118d9e61a01cfeafe23542573a144678feaad4c25ace499786e56487421e83ea6f3c015f68",
      "networkId": 0,
      "chainId": 0
    }
  ]
}