{
  "hash": "0xaae8f8c13a72ad4388ec699a8c138fc4d90e84aa4cb6e94d305bccc4ec2b2903",
  "parentHash": "0x6f28fb513c4e69ac802fbcc7204b35d5549473a1d1b257d412d7a675e5cc6dfc",
  "number": 74606,
  "timestamp": 1439389072,
  "nonce": "0xee426fedff977b48",
  "difficulty": 2204213755642,
  "gasLimit": {
    "_hex": "0x2fefd8"
  },
  "gasUsed": {
    "_hex": "0xf618"
  },
  "miner": "0x0eDEd3DA479d0beF8eeC92A76644D3f4E3C177f7",
  "extraData": "0x476574682f76312e302e312f6c696e75782f676f312e342e32",
  "transactions": [
    {
      "hash": "0x1fd54efc8f31dbd622693d55c0b7e4528539d3def4b9ee14f5928e9cdbb3999c",
      "blockHash": "0xaae8f8c13a72ad4388ec699a8c138fc4d90e84aa4cb6e94d305bccc4ec2b2903",
      "blockNumber": 74606,
      "transactionIndex": 0,
      "confirmations": null,
      "from": "0x223eA75ACE9d7F53BC6c131191Aff34B44bd57aC",
      "gasPrice": {
        "_hex": "0xcc10e4502"
      },
      "gasLimit": {
        "_hex": "0x5208"
      },
      "to": "0x7339BF89A60F8a29d0Ed436F3198774F8e191f37",
      "value": {
        "_hex": "0x373bcce9be0e0000"
      },
      "nonce": 1,
      "data": "0x",
      "r": "0x10529b871a12836412ece641fc2265651f8ee79597853260e3587791b8d53ff6",
      "s": "0x13f2604877024bb26fa46caefab52c6505da20b42facc8540cd446b85954daad",
      "v": 28,
      "creates": null,
      "raw": "0xf86c01850cc10e4502825208947339bf89a60f8a29d0ed436f3198774f8e191f3788373bcce9be0e0000801ca010529b871a12836412ece641fc2265651f8ee79597853260e3587791b8d53ff6a013f2604877024bb26fa46caefab52c6505da20b42facc8540cd446b85954daad",
      "networkId": 0,
      "chainId": 0
    },
    {
      "hash": "0xaf8dc38663ea5558a7d32e56975ea3bcff4772c3a79d2c8e7a3a2d6d0f7835a5",
      "blockHash": "0xaae8f8c13a72ad4388ec699a8c138fc4d90e84aa4cb6e94d305bccc4ec2b2903",
      "blockNumber": 74606,
      "transactionIndex": 1,
      "confirmations": null,
      "from": "0xDC6A542F97876923583019b526335fD1fB0DfC6A",
      "gasPrice": {
        "_hex": "0xcb0236210"
      },
      "gasLimit": {
        "_hex": "0x5208"
      },
      "to": "0x32Be343B94f860124dC4fEe278FDCBD38C102D88",
      "value": {
        "_hex": "0x15d8bb806dd7e80000"
      },
      "nonce": 7,
      "data": "0x",
      "r": "0xd02953607b734678b0d76d9d9ae184b4ba0060cd248f618b4fbfd510c9dc686a",
      "s": "0x4aa97ed9bc5549f38a8812c5c290a1a5cdae9dabde2aa59f1ddf406ce1fb5e6f",
      "v": 28,
      "creates": null,
      "raw": "0xf86d07850cb02362108252089432be343b94f860124dc4fee278fdcbd38c102d888915d8bb806dd7e80000801ca0d02953607b734678b0d76d9d9ae184b4ba0060cd248f618b4fbfd510c9dc686aa04aa97ed9bc5549f38a8812c5c290a1a5cdae9dabde2aa59f1ddf406ce1fb5e6f",
      "networkId": 0,
      "chainId": 0
    },
    {
      "hash": "0x0b2e0ea7176250daf96ced8a1bf220078ade31138bb210efaa818a9335fae5e3",
      "blockHash": "0xaae8f8c13a72ad4388ec699a8c138fc4d90e84aa4cb6e94d305bccc4ec2b2903",
      "blockNumber": 74606,
      "transactionIndex": 2,
      "confirmations": null,
      "from": "0x32Be343B94f860124dC4fEe278FDCBD38C102D88",
      "gasPrice": {
        "_hex": "0xcb0236210"
      },
      "gasLimit": {
        "_hex": "0x5208"
      },
      "to": "0x72bb27Cb99f3E2C2CF90A98F707d30E4A201A071",
      "value": {
        "_hex": "0x297e9d28866b0000"
      },
      "nonce": 321,
      "data": "0x",
      "r": "0x355d5ffba445b502e5332498d0b7b8b1687fd294d2367d8b7259083e3a1c6837",
      "s": "0x2e3f86398bffaed5606eb0aeca512222a671c9ffe68038d107fced8d0c60a739",
      "v": 28,
      "creates": null,
      "raw": "0xf86e820141850cb02362108252089472bb27cb99f3e2c2cf90a98f707d30e4a201a07188297e9d28866b0000801ca0355d5ffba445b502e5332498d0b7b8b1687fd294d2367d8b7259083e3a1c6837a02e3f86398bffaed5606eb0aeca512222a671c9ffe68038d107fced8d0c60a739",
      "networkId": 0,
      "chainId": 0
    }
  ]
}