{
  "hash": "0x3ba160a85db52daccdb5417b3aefb5c6e70aec900a07287ee1887ed9ab1af30d",
  "parentHash": "0x168a796194943754f380d2a4647542c5fe820dbab4e434b04cfb66f45b17758b",
  "number": 109267,
  "timestamp": 1439953713,
  "nonce": "0xc7b42b044b1781b6",
  "difficulty": 4449456628983,
  "gasLimit": {
    "_hex": "0x2fefd8"
  },
  "gasUsed": {
    "_hex": "0x5208"
  },
  "miner": "0xe6A7a1d47ff21B6321162AEA7C6CB457D5476Bca",
  "extraData": "0x476574682f76312e302e312d38326566323666362f6c696e75782f676f312e34",
  "transactions": [
    {
      "hash": "0x3b9b61c555249e90ff6d77b83d0c1e82c35ff7e42d2d8a901c486e5b1bbd3409",
      "blockHash": "0x3ba160a85db52daccdb5417b3aefb5c6e70aec900a07287ee1887ed9ab1af30d",
      "blockNumber": 109267,
      "transactionIndex": 0,
      "confirmations": null,
      "from": "0x32Be343B94f860124dC4fEe278FDCBD38C102D88",
      "gasPrice": {
        "_hex": "0xdc176d4fb"
      },
      "gasLimit": {
        "_hex": "0x5208"
      },
      "to": "0x7a381122BADa791A7AB1F6037dAC80432753BaAd",
      "value": {
        "_hex": "0x4912929c016bf80000"
      },
      "nonce": 1270,
      "data": "0x",
      "r": "0xf6f1a8d6cd18276fb9b361eea1dee6aa0d1f181bdd2ee4b67b545524e38b0ef4",
      "s": "0x5062bb329ce4d0f2f16ace71bcb51ebe1e90795078712d6d673020eae0667e5a",
      "v": 27,
      "creates": null,
      "raw": "0xf86f8204f6850dc176d4fb825208947a381122bada791a7ab1f6037dac80432753baad894912929c016bf80000801ba0f6f1a8d6cd18276fb9b361eea1dee6aa0d1f181bdd2ee4b67b545524e38b0ef4a05062bb329ce4d0f2f16ace71bcb51ebe1e90795078712d6d673020eae0667e5a",
      "networkId": 0,
      "chainId": 0
    }
  ]
}