{
  "hash": "0x64e9545ddace7ae6308ed7cf1808482223a1763247b31db909e1f2633fb4e884",
  "parentHash": "0xc2bfb66c6a1a0ffb03a4d285bc920713111fb6ed18a9b8ca9bd67de22046969d",
  "number": 96638,
  "timestamp": 1439743441,
  "nonce": "0x53fcddc671a22d8a",
  "difficulty": 3725079687490,
  "gasLimit": {
    "_hex": "0x2fefd8"
  },
  "gasUsed": {
    "_hex": "0x5208"
  },
  "miner": "0xe6A7a1d47ff21B6321162AEA7C6CB457D5476Bca",
  "extraData": "0x476574682f76312e302e312d38326566323666362f6c696e75782f676f312e34",
  "transactions": [
    {
      "hash": "0xa14b78477b018d0f6e3841a30d30f62a704e8a5142d808858083e1c92c16ebe0",
      "blockHash": "0x64e9545ddace7ae6308ed7cf1808482223a1763247b31db909e1f2633fb4e884",
      "blockNumber": 96638,
      "transactionIndex": 0,
      "confirmations": null,
      "from": "0xCbbdAd70d0ff27254925AD37B5C135EEe1116615",
      "gasPrice": {
        "_hex": "0xcafcfea5a"
      },
      "gasLimit": {
        "_hex": "0x15f90"
      },
      "to": "0x886e83d9133F65B9c27A946f699E88e71A888E4C",
      "value": {
        "_hex": "0x1bc16d674ec80000"
      },
      "nonce": 10,
      "data": "0x",
      "r": "0x49b216a75e4cf97c75d525d53d695be5eca19a682818131e18fb8c4d265d76ee",
      "s": "0x4f88e5df634fc6bf49e0258a5cb395752334c513237114d9c6ee956832b404ad",
      "v": 28,
      "creates": null,
      "raw": "0xf86d0a850cafcfea5a83015f9094886e83d9133f65b9c27a946f699e88e71a888e4c881bc16d674ec80000801ca049b216a75e4cf97c75d525d53d695be5eca19a682818131e18fb8c4d265d76eea04f88e5df634fc6bf49e0258a5cb395752334c513237114d9c6ee956832b404ad",
      "networkId": 0,
      "chainId": 0
    }
  ]
}