{
  "hash": "0xad3f22bdb0ad838c64cf4a45398a4f5b6d9700ad03a7f0c6d36625c8baeccafc",
  "parentHash": "0x21b24d6c1472058da57abfb6326c2a18cc13db4607a96c9bb083043a4fbf0664",
  "number": 88651,
  "timestamp": 1439611297,
  "nonce": "0xa7dce15019cec199",
  "difficulty": 3237906815767,
  "gasLimit": {
    "_hex": "0x2fefd8"
  },
  "gasUsed": {
    "_hex": "0x5208"
  },
  "miner": "0x0eDEd3DA479d0beF8eeC92A76644D3f4E3C177f7",
  "extraData": "0x476574682f76312e302e312f6c696e75782f676f312e342e32",
  "transactions": [
    {
      "hash": "0x0290021f0590606b269e7b8ef7d685ce0df2b97d033a9da89aab700b67ce3cdc",
      "blockHash": "0xad3f22bdb0ad838c64cf4a45398a4f5b6d9700ad03a7f0c6d36625c8baeccafc",
      "blockNumber": 88651,
      "transactionIndex": 0,
      "confirmations": null,
      "from": "0x120A270bbC009644e35F0bB6ab13f95b8199c4ad",
      "gasPrice": {
        "_hex": "0xcb1bdaa3c"
      },
      "gasLimit": {
        "_hex": "0x3d090"
      },
      "to": "0xc5623FA5c297c05c2d965A336b2068CfA0e567FA",
      "value": {
        "_hex": "0x1bfc33377a5041bc00"
      },
      "nonce": 517,
      "data": "0x",
      "r": "0x0893b3e173dfc00179bab8f8b535d4fa5364b1e0817318ba31d0a474d46c993f",
      "s": "0x37d80f315bdb941c7c6bd8a41196a23dd7ab06b4e360f251c34c5ba4cefbef4e",
      "v": 28,
      "creates": null,
      "raw": "0xf870820205850cb1bdaa3c8303d09094c5623fa5c297c05c2d965a336b2068cfa0e567fa891bfc33377a5041bc00801ca00893b3e173dfc00179bab8f8b535d4fa5364b1e0817318ba31d0a474d46c993fa037d80f315bdb941c7c6bd8a41196a23dd7ab06b4e360f251c34c5ba4cefbef4e",
      "networkId": 0,
      "chainId": 0
    }
  ]
}