{
  "hash": "0xaca5689ff79d796a8e053248a817b8a3e3f5c7368929432ce35d0dd1bfa76812",
  "parentHash": "0x2cec9790dc77c05b7c4ac9409185f299b17d66576faa362c351709cb9441bfe7",
  "number": 83780,
  "timestamp": 1439540790,
  "nonce": "0x731b5e3ce4e30f92",
  "difficulty": 2441940179603,
  "gasLimit": {
    "_hex": "0x2fefd8"
  },
  "gasUsed": {
    "_hex": "0x5208"
  },
  "miner": "0xEF247E639d49461D25F57e9362CadE3120910Ce0",
  "extraData": "0x476574682f76312e302e312f6c696e75782f676f312e342e32",
  "transactions": [
    {
      "hash": "0xec7441d78853bab7d29a3625e36dc1fbdbbb7370e40ed4dd36e00930494771b2",
      "blockHash": "0xaca5689ff79d796a8e053248a817b8a3e3f5c7368929432ce35d0dd1bfa76812",
      "blockNumber": 83780,
      "transactionIndex": 0,
      "confirmations": null,
      "from": "0xF5EeDc192aB70b08D8354384aD94efD095849E00",
      "gasPrice": {
        "_hex": "0xd28a06cdd"
      },
      "gasLimit": {
        "_hex": "0x5208"
      },
      "to": "0x32Be343B94f860124dC4fEe278FDCBD38C102D88",
      "value": {
        "_hex": "0x56bc326c0aa750000"
      },
      "nonce": 39,
      "data": "0x",
      "r": "0x19f156ea61df9b5989f543ad965573bf1c883667507aa4fb52ca70f839db6fc7",
      "s": "0x4e52cb20b61826c93be9da0bbb3a9e26488b8572edcca88fb97a931f8f6a772a",
      "v": 28,
      "creates": null,
      "raw": "0xf86d27850d28a06cdd8252089432be343b94f860124dc4fee278fdcbd38c102d8889056bc326c0aa750000801ca019f156ea61df9b5989f543ad965573bf1c883667507aa4fb52ca70f839db6fc7a04e52cb20b61826c93be9da0bbb3a9e26488b8572edcca88fb97a931f8f6a772a",
      "networkId": 0,
      "chainId": 0
    }
  ]
}