{
  "hash": "0xb580b562ca02380e03a53a4c12fcadf24b9775dd13837ea0c9c58c6cd3c61a37",
  "parentHash": "0x5d475e2133ce78005c9e1a10ba09a47548f911569c54b50402dab1f02fdc2037",
  "number": 90668,
  "timestamp": 1439643644,
  "nonce": "0xae718bf4924ce2d8",
  "difficulty": 3348049844174,
  "gasLimit": {
    "_hex": "0x2fefd8"
  },
  "gasUsed": {
    "_hex": "0x5208"
  },
  "miner": "0x8293b65bD915B9FF87F6aDAb479da2e5b6633fDB",
  "extraData": "0x476574682f76312e302e312f77696e646f77732f676f312e342e32",
  "transactions": [
    {
      "hash": "0x735e00bd1f8038a037fed720e914966249ff9e463a257ae3f2cb80feebb3f3d5",
      "blockHash": "0xb580b562ca02380e03a53a4c12fcadf24b9775dd13837ea0c9c58c6cd3c61a37",
      "blockNumber": 90668,
      "transactionIndex": 0,
      "confirmations": null,
      "from": "0x513cc87Fc09c7Dedae9A780a66dc47ebeE4B5C5A",
      "gasPrice": {
        "_hex": "0xd7d40ace3"
      },
      "gasLimit": {
        "_hex": "0x5208"
      },
      "to": "0xE3535c3A7F74fDd1447140e98FA5fE310028f40f",
      "value": {
        "_hex": "0x11c7ea162e7820000"
      },
      "nonce": 2,
      "data": "0x",
      "r": "0x8e8ec9f8b8f3f1c17016df4b9fb225c40b470086b7b1718fb194e2f45f7441f3",
      "s": "0x3a7f23f00831b8c6cda30fd60120e46d283de084b437414432339f0afdb60e65",
      "v": 27,
      "creates": null,
      "raw": "0xf86d02850d7d40ace382520894e3535c3a7f74fdd1447140e98fa5fe310028f40f89011c7ea162e7820000801ba08e8ec9f8b8f3f1c17016df4b9fb225c40b470086b7b1718fb194e2f45f7441f3a03a7f23f00831b8c6cda30fd60120e46d283de084b437414432339f0afdb60e65",
      "networkId": 0,
      "chainId": 0
    }
  ]
}