{
  "hash": "0x18d313eafd46b3a5c5c7d066380a3e61466195f537881a3cd9cc6436ea9b8a71",
  "parentHash": "0x6ed16299524d8e79c3b33351e6a324061bde7d6f86f5f52466606819a266cb98",
  "number": 81830,
  "timestamp": 1439508587,
  "nonce": "0xa8a399031b2dc3d8",
  "difficulty": 2423500145733,
  "gasLimit": {
    "_hex": "0x2fefd5"
  },
  "gasUsed": {
    "_hex": "0x5208"
  },
  "miner": "0xe6A7a1d47ff21B6321162AEA7C6CB457D5476Bca",
  "extraData": "0x476574682f76312e302e312d38326566323666362f6c696e75782f676f312e34",
  "transactions": [
    {
      "hash": "0x7d81ef0d724c2f6dba4e3503d66713cbd992ee8bbc2bea34c5e7c144c9d3d0e9",
      "blockHash": "0x18d313eafd46b3a5c5c7d066380a3e61466195f537881a3cd9cc6436ea9b8a71",
      "blockNumber": 81830,
      "transactionIndex": 0,
      "confirmations": null,
      "from": "0x2910543Af39abA0Cd09dBb2D50200b3E800A63D2",
      "gasPrice": {
        "_hex": "0xe0ebee3c9"
      },
      "gasLimit": {
        "_hex": "0x5208"
      },
      "to": "0x80459F7950368e582175a9AC45E2d9a1B76932EF",
      "value": {
        "_hex": "0xee9413230776438000"
      },
      "nonce": 501,
      "data": "0x",
      "r": "0xa7192fe4175874204f36a0116aa789d2043822c8f4f10ff41a211b5e982ba6ca",
      "s": "0x0ba485ed5c269587319abba7f8fb6909e52866975f8a0f779c701ca1716de016",
      "v": 28,
      "creates": null,
      "raw": "0xf86f8201f5850e0ebee3c98252089480459f7950368e582175a9ac45e2d9a1b76932ef89ee9413230776438000801ca0a7192fe4175874204f36a0116aa789d2043822c8f4f10ff41a211b5e982ba6caa00ba485ed5c269587319abba7f8fb6909e52866975f8a0f779c701ca1716de016",
      "networkId": 0,
      "chainId": 0
    }
  ]
}