{
  "hash": "0xa1d1fd02430c1e3d84f93d948b96f34d4815b837487860e89aad3e6eb5ca45ac",
  "parentHash": "0x60689a5e66a2e9d2fd07afa6bf93ba86643087d734c79ce1a57ffd498bb01dbe",
  "number": 78460,
  "timestamp": 1439454162,
  "nonce": "0xb1c03404cb20db1f",
  "difficulty": 2286496691550,
  "gasLimit": {
    "_hex": "0x2fefd8"
  },
  "gasUsed": {
    "_hex": "0x546c"
  },
  "miner": "0x0D70592F27eC3d8996b4317150B3eD8C0CD57e38",
  "extraData": "0x476574682f76312e302e312f6c696e75782f676f312e342e32",
  "transactions": [
    {
      "hash": "0x065b1a7cb2486fb1091da5679cd0ea969d67894a78eee3d4e39d0c92696f5eb8",
      "blockHash": "0xa1d1fd02430c1e3d84f93d948b96f34d4815b837487860e89aad3e6eb5ca45ac",
      "blockNumber": 78460,
      "transactionIndex": 0,
      "confirmations": null,
      "from": "0x1F8116Bd0aF5570Eaf0C56C49c7ab5E37A580458",
      "gasPrice": {
        "_hex": "0x10dc90d85e7"
      },
      "gasLimit": {
        "_hex": "0x55f0"
      },
      "to": "0x2910543Af39abA0Cd09dBb2D50200b3E800A63D2",
      "value": {
        "_hex": "0x30ca024f987b900000"
      },
      "nonce": 1,
      "data": "0x454e44485642394352",
      "r": "0x06ee8b580a023d90dcc1f889ac5c6a26c0b84a7670e3c5c7c0a755c49267d570",
      "s": "0x52e868c7837fddf2c07f306615082c1f91298b17b99dc4fbcebfe72747fde47f",
      "v": 27,
      "creates": null,
      "raw": "0xf8770186010dc90d85e78255f0942910543af39aba0cd09dbb2d50200b3e800a63d28930ca024f987b90000089454e444856423943521ba006ee8b580a023d90dcc1f889ac5c6a26c0b84a7670e3c5c7c0a755c49267d570a052e868c7837fddf2c07f306615082c1f91298b17b99dc4fbcebfe72747fde47f",
      "networkId": 0,
      "chainId": 0
    }
  ]
}