{
  "hash": "0xb0879263248663e3b79c06a889adc242fcfa4accdcd12261bcb6d15c69f64919",
  "parentHash": "0xb794726c6aa665472985a6330be24fa8fa45a7acfc81b5275f9169f40352e3e4",
  "number": 101289,
  "timestamp": 1439820537,
  "nonce": "0xe8cebd56a08defa2",
  "difficulty": 3820619988291,
  "gasLimit": {
    "_hex": "0x2fefd8"
  },
  "gasUsed": {
    "_hex": "0x5208"
  },
  "miner": "0xe6A7a1d47ff21B6321162AEA7C6CB457D5476Bca",
  "extraData": "0x476574682f76312e302e312d38326566323666362f6c696e75782f676f312e34",
  "transactions": [
    {
      "hash": "0x549887cbd986676412128fd9e866fd28dd6915aa67f11cc8ffb82919e082fac3",
      "blockHash": "0xb0879263248663e3b79c06a889adc242fcfa4accdcd12261bcb6d15c69f64919",
      "blockNumber": 101289,
      "transactionIndex": 0,
      "confirmations": null,
      "from": "0x95B8Be50517B180F2F101f1cFe0E4C66Ad6fa7dd",
      "gasPrice": {
        "_hex": "0xd105c74ab"
      },
      "gasLimit": {
        "_hex": "0x15f90"
      },
      "to": "0xbCab99c9250A69cCD7395f2543ed52FF1e220398",
      "value": {
        "_hex": "0x1"
      },
      "nonce": 8,
      "data": "0x",
      "r": "0xe8bff52c76d95f7b53b525698a185db4619a7b7ff7507451cbc2eccd7ad085d9",
      "s": "0x53a861d54a61adfe4586a067f63296379ea724996c20ac411aa366afe51a4c7f",
      "v": 27,
      "creates": null,
      "raw": "0xf86508850d105c74ab83015f9094bcab99c9250a69ccd7395f2543ed52ff1e22039801801ba0e8bff52c76d95f7b53b525698a185db4619a7b7ff7507451cbc2eccd7ad085d9a053a861d54a61adfe4586a067f63296379ea724996c20ac411aa366afe51a4c7f",
      "networkId": 0,
      "chainId": 0
    }
  ]
}