{
  "hash": "0xba6b6b5d69cf92fd89b199f6ec8c3930fe01cb11adca20960cfd91c759abccfa",
  "parentHash": "0xad75ce96bde3fec7c1c5b23bd4ae558a74bb996c9bc98c726cd4c8af40590a86",
  "number": 74504,
  "timestamp": 1439387062,
  "nonce": "0x98d7b3f9cdd2c038",
  "difficulty": 2217193942961,
  "gasLimit": {
    "_hex": "0x2fefd8"
  },
  "gasUsed": {
    "_hex": "0x5208"
  },
  "miner": "0xe6A7a1d47ff21B6321162AEA7C6CB457D5476Bca",
  "extraData": "0x476574682f76312e302e312d38326566323666362f6c696e75782f676f312e34",
  "transactions": [
    {
      "hash": "0xda1cdfabc9ab92b09121ef575383f7415789689ae3e4864ad1f1c03c8eaf5c17",
      "blockHash": "0xba6b6b5d69cf92fd89b199f6ec8c3930fe01cb11adca20960cfd91c759abccfa",
      "blockNumber": 74504,
      "transactionIndex": 0,
      "confirmations": null,
      "from": "0x32Be343B94f860124dC4fEe278FDCBD38C102D88",
      "gasPrice": {
        "_hex": "0xddc3a5095"
      },
      "gasLimit": {
        "_hex": "0x5208"
      },
      "to": "0x5Fc6b105a862830c0Ab0b9972a656C9B2eD66b9F",
      "value": {
        "_hex": "0x10f0cccddeae9600000"
      },
      "nonce": 318,
      "data": "0x",
      "r": "0x7282490227b8cb7f0ab505a7de97613c4831965b57ba2bc25fa072d7e1448b6a",
      "s": "0x73856d05b0a0eaebfd5de34f00021edc9f546a29ed343bd4ab5fae3cab0ef28a",
      "v": 28,
      "creates": null,
      "raw": "0xf87082013e850ddc3a5095825208945fc6b105a862830c0ab0b9972a656c9b2ed66b9f8a010f0cccddeae9600000801ca07282490227b8cb7f0ab505a7de97613c4831965b57ba2bc25fa072d7e1448b6aa073856d05b0a0eaebfd5de34f00021edc9f546a29ed343bd4ab5fae3cab0ef28a",
      "networkId": 0,
      "chainId": 0
    }
  ]
}