{
  "hash": "0x16defb8df65813c2dcfb60f7a6944f16cf79841ffed68624541c24eb50c503b7",
  "parentHash": "0xae9c7c71f2794015e36019d22befe955a25902be1cffb8099e4c4463ed5c1646",
  "number": 120261,
  "timestamp": 1440157002,
  "nonce": "0x50e5329e4724b52c",
  "difficulty": 4404744839875,
  "gasLimit": {
    "_hex": "0x2fefd8"
  },
  "gasUsed": {
    "_hex": "0x5208"
  },
  "miner": "0xbb7B8287f3F0a933474a79eAe42CBCa977791171",
  "extraData": "0xd783010003844765746887676f312e342e32856c696e7578",
  "transactions": [
    {
      "hash": "0x1882bfd9e14d15b2c9c6fa33952c7ce59243df50561f27b4c7cf4e2832bd1902",
      "blockHash": "0x16defb8df65813c2dcfb60f7a6944f16cf79841ffed68624541c24eb50c503b7",
      "blockNumber": 120261,
      "transactionIndex": 0,
      "confirmations": null,
      "from": "0x3B09D1F4B08ecc06d9C14ca7ab5CCcb86848E8F2",
      "gasPrice": {
        "_hex": "0xcb5d243c0"
      },
      "gasLimit": {
        "_hex": "0x15f90"
      },
      "to": "0xAae61E43CB0d0C96b30699F77E00D711d0a3979b",
      "value": {
        "_hex": "0xd9020a7163c20"
      },
      "nonce": 1,
      "data": "0x",
      "r": "0x2113c03f36da708a87f42ec6ebc8c529fb0adbbeca494650477c42377efaa33a",
      "s": "0x48d2859c73bf860b6135657ff7bb1900609ef2691d306fadf6b50bacd5a68665",
      "v": 28,
      "creates": null,
      "raw": "0xf86c01850cb5d243c083015f9094aae61e43cb0d0c96b30699f77e00d711d0a3979b870d9020a7163c20801ca02113c03f36da708a87f42ec6ebc8c529fb0adbbeca494650477c42377efaa33aa048d2859c73bf860b6135657ff7bb1900609ef2691d306fadf6b50bacd5a68665",
      "networkId": 0,
      "chainId": 0
    }
  ]
}