{
  "hash": "0x61c67080fccf2cb79ac5916a0e3c8dc60e82a775a08d82589629ebe12634a005",
  "parentHash": "0x58df9391490d28f53ea2f5147005209fc0e1b468bdf1fe2e674f6a33dd17551e",
  "number": 105573,
  "timestamp": 1439889721,
  "nonce": "0xc3e20836977c4a70",
  "difficulty": 4429733964745,
  "gasLimit": {
    "_hex": "0x2fefd8"
  },
  "gasUsed": {
    "_hex": "0x5208"
  },
  "miner": "0x77EC9ad4A7E9418774C29415CAaF4Ee0da96eF64",
  "extraData": "0x",
  "transactions": [
    {
      "hash": "0xe5ee354f2a5a039e01f003b29a92a3c80d9852095771dc8ac508e2a9618377f6",
      "blockHash": "0x61c67080fccf2cb79ac5916a0e3c8dc60e82a775a08d82589629ebe12634a005",
      "blockNumber": 105573,
      "transactionIndex": 0,
      "confirmations": null,
      "from": "0x496F5843F6D24cd98D255e4c23d1E1F023227545",
      "gasPrice": {
        "_hex": "0xba43b7400"
      },
      "gasLimit": {
        "_hex": "0x17190d"
      },
      "to": "0x33F36DffD23cf019833E1d59cBc7138824b12289",
      "value": {
        "_hex": "0x9fdf42f6e48000"
      },
      "nonce": 2,
      "data": "0x",
      "r": "0xcdce918be2d0c23486b9e39546e56e8620d59e7b206e5408a30b74a953984a0f",
      "s": "0x6e5a3921a6fe8a53d1a9b4e6a80d57bbb50fe82537d4a9534f639344959bb33c",
      "v": 28,
      "creates": null,
      "raw": "0xf86c02850ba43b74008317190d9433f36dffd23cf019833e1d59cbc7138824b12289879fdf42f6e48000801ca0cdce918be2d0c23486b9e39546e56e8620d59e7b206e5408a30b74a953984a0fa06e5a3921a6fe8a53d1a9b4e6a80d57bbb50fe82537d4a9534f639344959bb33c",
      "networkId": 0,
      "chainId": 0
    }
  ]
}