{
  "hash": "0x4753ab4280167d05e8929562e115a592c9f24d54a8acbfb16d6f7bfe767da703",
  "parentHash": "0xa26f8988c6e946990a1197cd91077ec32cc9af8ccf3b5faf7cd9267d5ae3c158",
  "number": 68909,
  "timestamp": 1439295555,
  "nonce": "0xf14e1c451a7c8a71",
  "difficulty": 2023086305133,
  "gasLimit": {
    "_hex": "0x2fe3db"
  },
  "gasUsed": {
    "_hex": "0x4ce78"
  },
  "miner": "0x88D74a59454F6cF3B51ef6b9136AFb6b9D405A88",
  "extraData": "0x476574682f76312e302e312d37666266393930632f6c696e75782f676f312e34",
  "transactions": [
    {
      "hash": "0xe8cba0a50f25cde5c885193fb9565d6fea0173c838e25e995d1a76ac41101fef",
      "blockHash": "0x4753ab4280167d05e8929562e115a592c9f24d54a8acbfb16d6f7bfe767da703",
      "blockNumber": 68909,
      "transactionIndex": 0,
      "confirmations": null,
      "from": "0x397b23718Ee50b248881dF7AE0BC4c54824fD2b0",
      "gasPrice": {
        "_hex": "0xba43b7400"
      },
      "gasLimit": {
        "_hex": "0x5208"
      },
      "to": "0xe2630676d1f72cbca15690d38D629C0011415B07",
      "value": {
        "_hex": "0x4e1253f5de4000"
      },
      "nonce": 1,
      "data": "0x",
      "r": "0x071e1203d5667da3d65d93392261438908282d73038c878178c2d343a340e9f5",
      "s": "0x1e3a226c16e28595ba3fc259754ac85c49aa55a8354bf45e7c54338c2cb2a615",
      "v": 27,
      "creates": null,
      "raw": "0xf86b01850ba43b740082520894e2630676d1f72cbca15690d38d629c0011415b07874e1253f5de4000801ba0071e1203d5667da3d65d93392261438908282d73038c878178c2d343a340e9f5a01e3a226c16e28595ba3fc259754ac85c49aa55a8354bf45e7c54338c2cb2a615",
      "networkId": 0,
      "chainId": 0
    },
    {
      "hash": "0x4d11e338a61c1e23c84cfad5bfb80e30c031ac7ebbfa6eb7583f238638c71a58",
      "blockHash": "0x4753ab4280167d05e8929562e115a592c9f24d54a8acbfb16d6f7bfe767da703",
      "blockNumber": 68909,
      "transactionIndex": 1,
      "confirmations": null,
      "from": "0xaeeDbeF1d97C50D40265247FEFa631BaB96c8bbc",
      "gasPrice": {
        "_hex": "0xba43b7400"
      },
      "gasLimit": {
        "_hex": "0x5208"
      },
      "to": "0xa2c923bbe9Fc444d88EEEEeE8199A87BDb8085F7",
      "value": {
        "_hex": "0x4e1253f5de4000"
      },
      "nonce": 1,
      "data": "0x",
      "r": "0xab0fc25e66a3df4c33422f18b7ab4488174876c1f7b489caed31540a0a2f92ba",
      "s": "0x63299a94f8575d3dcb697d6375d45606a4255b829866436f7fab1978de8582d1",
      "v": 28,
      "creates": null,
      "raw": "0xf86b01850ba43b740082520894a2c923bbe9fc444d88eeeeee8199a87bdb8085f7874e1253f5de4000801ca0ab0fc25e66a3df4c33422f18b7ab4488174876c1f7b489caed31540a0a2f92baa063299a94f8575d3dcb697d6375d45606a4255b829866436f7fab1978de8582d1",
      "networkId": 0,
      "chainId": 0
    },
    {
      "hash": "0xbd02830335efdd0b33f1281e63306420530fd7038a9ef9bd664eccee38f4318e",
      "blockHash": "0x4753ab4280167d05e8929562e115a592c9f24d54a8acbfb16d6f7bfe767da703",
      "blockNumber": 68909,
      "transactionIndex": 2,
      "confirmations": null,
      "from": "0x424ADd99e49313D93119540f785B76A4CC1c2faf",
      "gasPrice": {
        "_hex": "0xba43b7400"
      },
      "gasLimit": {
        "_hex": "0x5208"
      },
      "to": "0xdF141AcFf66d6CCFEb1645B2ecfbb063229E3F01",
      "value": {
        "_hex": "0x4e1253f5de4000"
      },
      "nonce": 1,
      "data": "0x",
      "r": "0xe6fb1855bc4369d5053e7b105b31dcf97dfda3197e366583aa3a0f9c1ad1a916",
      "s": "0x28ca2ea8716b6c37a61f30dcdc42778ddd53795d4f1e29e4a9742e89afcf4d34",
      "v": 27,
      "creates": null,
      "raw": "0xf86b01850ba43b740082520894df141acff66d6ccfeb1645b2ecfbb063229e3f01874e1253f5de4000801ba0e6fb1855bc4369d5053e7b105b31dcf97dfda3197e366583aa3a0f9c1ad1a916a028ca2ea8716b6c37a61f30dcdc42778ddd53795d4f1e29e4a9742e89afcf4d34",
      "networkId": 0,
      "chainId": 0
    },
    {
      "hash": "0x24427e6796a0cf0fcb4c2a86db48437e1484faf75bac2cc1acd7afcc799e5938",
      "blockHash": "0x4753ab4280167d05e8929562e115a592c9f24d54a8acbfb16d6f7bfe767da703",
      "blockNumber": 68909,
      "transactionIndex": 3,
      "confirmations": null,
      "from": "0xb6b90fAd07737F3F1BBA29432269Ffac3c189723",
      "gasPrice": {
        "_hex": "0xba43b7400"
      },
      "gasLimit": {
        "_hex": "0x5208"
      },
      "to": "0xBc8f4e4432bFf6e605c5D9ef7d51656FbAA50dD9",
      "value": {
        "_hex": "0x4e1253f5de4000"
      },
      "nonce": 1,
      "data": "0x",
      "r": "0x17eaeb7eca99f7910da9cccce1dace3028c26b50d55daf94372d36aebb3b91d7",
      "s": "0x77bbc0ac85bafa4da371c0f4f64c54f7f2844fa4d3b4733d8420abd314cce7b3",
      "v": 28,
      "creates": null,
      "raw": "0xf86b01850ba43b740082520894bc8f4e4432bff6e605c5d9ef7d51656fbaa50dd9874e1253f5de4000801ca017eaeb7eca99f7910da9cccce1dace3028c26b50d55daf94372d36aebb3b91d7a077bbc0ac85bafa4da371c0f4f64c54f7f2844fa4d3b4733d8420abd314cce7b3",
      "networkId": 0,
      "chainId": 0
    },
    {
      "hash": "0x397c09effab4dd2d8de5fa6daf26c97bbbb97298b87085289d8efb9b05fcfbdb",
      "blockHash": "0x4753ab4280167d05e8929562e115a592c9f24d54a8acbfb16d6f7bfe767da703",
      "blockNumber": 68909,
      "transactionIndex": 4,
      "confirmations": null,
      "from": "0x3F26c5147863CD0Dd74F6B096fA477Af012e7c00",
      "gasPrice": {
        "_hex": "0xba43b7400"
      },
      "gasLimit": {
        "_hex": "0x5208"
      },
      "to": "0x455C848bd6CE7585b0c9e132d3266637249f2d3B",
      "value": {
        "_hex": "0x4e1253f5de4000"
      },
      "nonce": 1,
      "data": "0x",
      "r": "0x34b17df9770208e2efc0b4b6f28c7207a092e1d0bf03c5fc6def1bf6b7bc7473",
      "s": "0x06869389c03724a7e95d40cd30cb54a0ad480e7b09559eb519b422c688cf5e53",
      "v": 27,
      "creates": null,
      "raw": "0xf86b01850ba43b740082520894455c848bd6ce7585b0c9e132d3266637249f2d3b874e1253f5de4000801ba034b17df9770208e2efc0b4b6f28c7207a092e1d0bf03c5fc6def1bf6b7bc7473a006869389c03724a7e95d40cd30cb54a0ad480e7b09559eb519b422c688cf5e53",
      "networkId": 0,
      "chainId": 0
    },
    {
      "hash": "0xd624c63f7cabe7da85554c55b94d96bbcc806a3eaf6ac6c67f17e6a400f99e3c",
      "blockHash": "0x4753ab4280167d05e8929562e115a592c9f24d54a8acbfb16d6f7bfe767da703",
      "blockNumber": 68909,
      "transactionIndex": 5,
      "confirmations": null,
      "from": "0x6313B26fdA3646Ba739FBBB39F5d0A0120abAd82",
      "gasPrice": {
        "_hex": "0xba43b7400"
      },
      "gasLimit": {
        "_hex": "0x5208"
      },
      "to": "0xd3E3ae51Ae2adEe3F17318Fc1562f7E6Be20f357",
      "value": {
        "_hex": "0x4e1253f5de4000"
      },
      "nonce": 1,
      "data": "0x",
      "r": "0xee368070890857f933b9cf0055d41554f39c84c23bdd8851b21a34eff7b7b0e7",
      "s": "0x340d56bbec9d601fa97a03e2630bff27d212b1c6cfe79f29a64eecbfeff25bc0",
      "v": 28,
      "creates": null,
      "raw": "0xf86b01850ba43b740082520894d3e3ae51ae2adee3f17318fc1562f7e6be20f357874e1253f5de4000801ca0ee368070890857f933b9cf0055d41554f39c84c23bdd8851b21a34eff7b7b0e7a0340d56bbec9d601fa97a03e2630bff27d212b1c6cfe79f29a64eecbfeff25bc0",
      "networkId": 0,
      "chainId": 0
    },
    {
      "hash": "0x02c4f461f97d2dd4f55e71a2c38d6c641a5024e53b1e0419b1bdd24ac59d11fd",
      "blockHash": "0x4753ab4280167d05e8929562e115a592c9f24d54a8acbfb16d6f7bfe767da703",
      "blockNumber": 68909,
      "transactionIndex": 6,
      "confirmations": null,
      "from": "0x311aF32A802D9F2B63F67c90b3394c501F3Ec985",
      "gasPrice": {
        "_hex": "0xba43b7400"
      },
      "gasLimit": {
        "_hex": "0x5208"
      },
      "to": "0x06CE2849B3f77F16754C8923Ef69Db2cF1F956b7",
      "value": {
        "_hex": "0x4e1253f5de4000"
      },
      "nonce": 1,
      "data": "0x",
      "r": "0xc0e420be6bf2b93510285515896a75a9b5ddc964457be6a5efb9c3cfebe04d6c",
      "s": "0x5857bc8fc0cd8d7bdb56fd267ba988e8acf136b5c45d4f2c04145a9814a52fb9",
      "v": 27,
      "creates": null,
      "raw": "0xf86b01850ba43b74008252089406ce2849b3f77f16754c8923ef69db2cf1f956b7874e1253f5de4000801ba0c0e420be6bf2b93510285515896a75a9b5ddc964457be6a5efb9c3cfebe04d6ca05857bc8fc0cd8d7bdb56fd267ba988e8acf136b5c45d4f2c04145a9814a52fb9",
      "networkId": 0,
      "chainId": 0
    },
    {
      "hash": "0x1ca7d4170f51b95fc6e2e6ac9642f1ab0e8d52622e37825c9a10d46debe2bfda",
      "blockHash": "0x4753ab4280167d05e8929562e115a592c9f24d54a8acbfb16d6f7bfe767da703",
      "blockNumber": 68909,
      "transactionIndex": 7,
      "confirmations": null,
      "from": "0xbFea9A2AbFEd7eB51fab77240C4da0908EC26290",
      "gasPrice": {
        "_hex": "0xba43b7400"
      },
      "gasLimit": {
        "_hex": "0x5208"
      },
      "to": "0x1C8e2ae5c64944f2C65AF7Ae5387E02fb72A9895",
      "value": {
        "_hex": "0x4e1253f5de4000"
      },
      "nonce": 1,
      "data": "0x",
      "r": "0xc250bc55e51d51d31b3936715a0803573e83f11aa79dc69e465f74d2151ca65d",
      "s": "0x2ac2649d9e17f667d3ce44aa09b181c5fd845710452788ef515ea59b51c3b77f",
      "v": 28,
      "creates": null,
      "raw": "0xf86b01850ba43b7400825208941c8e2ae5c64944f2c65af7ae5387e02fb72a9895874e1253f5de4000801ca0c250bc55e51d51d31b3936715a0803573e83f11aa79dc69e465f74d2151ca65da02ac2649d9e17f667d3ce44aa09b181c5fd845710452788ef515ea59b51c3b77f",
      "networkId": 0,
      "chainId": 0
    },
    {
      "hash": "0x60f5f38cf9d299766a72b4ea4a65caa6c7f4bf0fd5f71d6ff17917896f3dafe1",
      "blockHash": "0x4753ab4280167d05e8929562e115a592c9f24d54a8acbfb16d6f7bfe767da703",
      "blockNumber": 68909,
      "transactionIndex": 8,
      "confirmations": null,
      "from": "0xb4Beb2A42F3D88DB519Aa3DA782f4bFB917Fff73",
      "gasPrice": {
        "_hex": "0xba43b7400"
      },
      "gasLimit": {
        "_hex": "0x5208"
      },
      "to": "0xb18C46a37F3740f1280e4C5406E17db6753c9897",
      "value": {
        "_hex": "0x4e1253f5de4000"
      },
      "nonce": 1,
      "data": "0x",
      "r": "0x6f01d6b11f4fbe822963c5c7d5491c6ae40036799b80f9a661f134aa1a97de62",
      "s": "0x702ab8393b8c561f5900ff4deac7e03a10c5f43f836238f5a50908ed63b4a346",
      "v": 27,
      "creates": null,
      "raw": "0xf86b01850ba43b740082520894b18c46a37f3740f1280e4c5406e17db6753c9897874e1253f5de4000801ba06f01d6b11f4fbe822963c5c7d5491c6ae40036799b80f9a661f134aa1a97de62a0702ab8393b8c561f5900ff4deac7e03a10c5f43f836238f5a50908ed63b4a346",
      "networkId": 0,
      "chainId": 0
    },
    {
      "hash": "0xe020aa831aa054283645c48e87d99f5bf213a4d0ba4b8b2b5458e45447badc02",
      "blockHash": "0x4753ab4280167d05e8929562e115a592c9f24d54a8acbfb16d6f7bfe767da703",
      "blockNumber": 68909,
      "transactionIndex": 9,
      "confirmations": null,
      "from": "0x4baeFc5e6A82059595cFa386872f8DEA442F4001",
      "gasPrice": {
        "_hex": "0xba43b7400"
      },
      "gasLimit": {
        "_hex": "0x5208"
      },
      "to": "0xEE0664C04cB7196068D56EdA270A2DF41bF57D38",
      "value": {
        "_hex": "0x4e1253f5de4000"
      },
      "nonce": 1,
      "data": "0x",
      "r": "0xbdc02ec91c9be667aac8a27202f17384cc9a02d2e5f2346bc04d269a0a8529a2",
      "s": "0x181b2279a6501f143a8a72b948d8e726444eb79e5c367e59ce40958eba4dc165",
      "v": 28,
      "creates": null,
      "raw": "0xf86b01850ba43b740082520894ee0664c04cb7196068d56eda270a2df41bf57d38874e1253f5de4000801ca0bdc02ec91c9be667aac8a27202f17384cc9a02d2e5f2346bc04d269a0a8529a2a0181b2279a6501f143a8a72b948d8e726444eb79e5c367e59ce40958eba4dc165",
      "networkId": 0,
      "chainId": 0
    },
    {
      "hash": "0x9424bd61c1fd8a7057d4bc51092acb20a37a772ddd84dc854b876440f3ac3152",
      "blockHash": "0x4753ab4280167d05e8929562e115a592c9f24d54a8acbfb16d6f7bfe767da703",
      "blockNumber": 68909,
      "transactionIndex": 10,
      "confirmations": null,
      "from": "0xa934C7ea42105cF299285B43552dda6A812b0F2b",
      "gasPrice": {
        "_hex": "0xba43b7400"
      },
      "gasLimit": {
        "_hex": "0x5208"
      },
      "to": "0x96Bd809f0FF46b5675B1467791d47c325B40e815",
      "value": {
        "_hex": "0x4e1253f5de4000"
      },
      "nonce": 1,
      "data": "0x",
      "r": "0x677bb065a8f49c991c365ec725ba836dbcef6f3de69762bb9aebea1e492c6fcc",
      "s": "0x4d7534209f7767064a0fa103f84ecfdab4b18ba881e0fd7a68677a98dca81b2a",
      "v": 28,
      "creates": null,
      "raw": "0xf86b01850ba43b74008252089496bd809f0ff46b5675b1467791d47c325b40e815874e1253f5de4000801ca0677bb065a8f49c991c365ec725ba836dbcef6f3de69762bb9aebea1e492c6fcca04d7534209f7767064a0fa103f84ecfdab4b18ba881e0fd7a68677a98dca81b2a",
      "networkId": 0,
      "chainId": 0
    },
    {
      "hash": "0x2573f3228963cfe79b8ec81bd263480a961857b601ce142a4038efdfb97b2c29",
      "blockHash": "0x4753ab4280167d05e8929562e115a592c9f24d54a8acbfb16d6f7bfe767da703",
      "blockNumber": 68909,
      "transactionIndex": 11,
      "confirmations": null,
      "from": "0xF90Eb8E7c2A2403f7Bd6ECd13b92A22E1Eb3B5F9",
      "gasPrice": {
        "_hex": "0xba43b7400"
      },
      "gasLimit": {
        "_hex": "0x5208"
      },
      "to": "0xfbf7EBA1555a250BBF7740FF1703320C7F834c17",
      "value": {
        "_hex": "0x4e1253f5de4000"
      },
      "nonce": 1,
      "data": "0x",
      "r": "0xef494f6ff0f725eb816b294f42cda4204326b40ff1fcbc2c921d423b1600b0cc",
      "s": "0x55bd60ac2a3c0f5eea99795d2981c79b85f0419dd2cf5c6305eba84af456f24d",
      "v": 28,
      "creates": null,
      "raw": "0xf86b01850ba43b740082520894fbf7eba1555a250bbf7740ff1703320c7f834c17874e1253f5de4000801ca0ef494f6ff0f725eb816b294f42cda4204326b40ff1fcbc2c921d423b1600b0cca055bd60ac2a3c0f5eea99795d2981c79b85f0419dd2cf5c6305eba84af456f24d",
      "networkId": 0,
      "chainId": 0
    },
    {
      "hash": "0xee374fb40caa12398bebf613d6708f56092374720b46513ecb07fb84e5e5dad6",
      "blockHash": "0x4753ab4280167d05e8929562e115a592c9f24d54a8acbfb16d6f7bfe767da703",
      "blockNumber": 68909,
      "transactionIndex": 12,
      "confirmations": null,
      "from": "0x2545653a219517A6Aafde8c9cd20101592C24d5F",
      "gasPrice": {
        "_hex": "0xba43b7400"
      },
      "gasLimit": {
        "_hex": "0x5208"
      },
      "to": "0xC5e75A17e4b0f48147eA05e6B93D137F2BedE600",
      "value": {
        "_hex": "0x4e1253f5de4000"
      },
      "nonce": 1,
      "data": "0x",
      "r": "0xca128f2f8cb53e16107c9f69a4e1398d5c293a48d04a20bf692633ccab76a27e",
      "s": "0x489dbd5e5f01f37ab892a61113cdc76d2d1bc792b0134b587d45c2de9fce1064",
      "v": 27,
      "creates": null,
      "raw": "0xf86b01850ba43b740082520894c5e75a17e4b0f48147ea05e6b93d137f2bede600874e1253f5de4000801ba0ca128f2f8cb53e16107c9f69a4e1398d5c293a48d04a20bf692633ccab76a27ea0489dbd5e5f01f37ab892a61113cdc76d2d1bc792b0134b587d45c2de9fce1064",
      "networkId": 0,
      "chainId": 0
    },
    {
      "hash": "0xb8e16186b10fe87f43b29ee3f5958767680ab8107184459765eb17b5b4ea59ed",
      "blockHash": "0x4753ab4280167d05e8929562e115a592c9f24d54a8acbfb16d6f7bfe767da703",
      "blockNumber": 68909,
      "transactionIndex": 13,
      "confirmations": null,
      "from": "0x20C84cD688BfC88aC2af8fE78aC2E5a6b75a5b47",
      "gasPrice": {
        "_hex": "0xba43b7400"
      },
      "gasLimit": {
        "_hex": "0x5208"
      },
      "to": "0xfBe697c5FE5095015F707e69D9be951fE01A7795",
      "value": {
        "_hex": "0x4e1253f5de4000"
      },
      "nonce": 1,
      "data": "0x",
      "r": "0xc906c015108d4db2dc8c39301b46c3cf0f26595b69d671ae8762df32f0a1ef57",
      "s": "0x569c5e1e7636871f6243243ab976189e0d26dfb071cb0bdaec1baa9159f96446",
      "v": 28,
      "creates": null,
      "raw": "0xf86b01850ba43b740082520894fbe697c5fe5095015f707e69d9be951fe01a7795874e1253f5de4000801ca0c906c015108d4db2dc8c39301b46c3cf0f26595b69d671ae8762df32f0a1ef57a0569c5e1e7636871f6243243ab976189e0d26dfb071cb0bdaec1baa9159f96446",
      "networkId": 0,
      "chainId": 0
    },
    {
      "hash": "0xc67f1cfc59383ec851efdb2336903779c6ddc1e82a9cbc79c3b6f62089d1eab0",
      "blockHash": "0x4753ab4280167d05e8929562e115a592c9f24d54a8acbfb16d6f7bfe767da703",
      "blockNumber": 68909,
      "transactionIndex": 14,
      "confirmations": null,
      "from": "0xEb97c922Ff27b5b6436288ef78918637E6fd6eD3",
      "gasPrice": {
        "_hex": "0xba43b7400"
      },
      "gasLimit": {
        "_hex": "0x5208"
      },
      "to": "0xBbB64d6D19aBE60a9Fd2D53C6E22349D8F2c4642",
      "value": {
        "_hex": "0x4e1253f5de4000"
      },
      "nonce": 1,
      "data": "0x",
      "r": "0x54d29bbce5797911cb6c5772a2fb1b0ea22b7af2da9542c8f3ed4d64405b13df",
      "s": "0x10fb63a4b8e7f7b2ecb69de8d85fca50aec5a920f43c8642abb31f7e88d9d03e",
      "v": 27,
      "creates": null,
      "raw": "0xf86b01850ba43b740082520894bbb64d6d19abe60a9fd2d53c6e22349d8f2c4642874e1253f5de4000801ba054d29bbce5797911cb6c5772a2fb1b0ea22b7af2da9542c8f3ed4d64405b13dfa010fb63a4b8e7f7b2ecb69de8d85fca50aec5a920f43c8642abb31f7e88d9d03e",
      "networkId": 0,
      "chainId": 0
    }
  ]
}