{
  "hash": "0xf3f43056783e77ff8dee2c3bdc1daa0f7bfc404cc948fc05f24680dfea0fa411",
  "parentHash": "0x0e85d9239e47868e7d106daa1f18d12aece2d9c9e5656d3bdfb236ea474b3174",
  "number": 121248,
  "timestamp": 1440173877,
  "nonce": "0x4c145c8035ecd559",
  "difficulty": 4419305875585,
  "gasLimit": {
    "_hex": "0x2fefd8"
  },
  "gasUsed": {
    "_hex": "0xa410"
  },
  "miner": "0x9D49F602b0fdb924Bd63DDE2Bd0907E4A07c63a7",
  "extraData": "0x",
  "transactions": [
    {
      "hash": "0xb1cb7778c01ac77e246552fd963d0e63701056df0ce54131ff3afd4d778a3c11",
      "blockHash": "0xf3f43056783e77ff8dee2c3bdc1daa0f7bfc404cc948fc05f24680dfea0fa411",
      "blockNumber": 121248,
      "transactionIndex": 0,
      "confirmations": null,
      "from": "0x7871C9936A21B89507B5B65C7B13d8216D832D76",
      "gasPrice": {
        "_hex": "0xba43b7400"
      },
      "gasLimit": {
        "_hex": "0x15f90"
      },
      "to": "0x108feDb097c1DCfED441480170144D8e19BB217f",
      "value": {
        "_hex": "0x4563918244f40000"
      },
      "nonce": 12,
      "data": "0x",
      "r": "0x3a4c34f66d651cb8d923a275025855daf65f6d70fc9a2272e39aa1fe1d293b9b",
      "s": "0x6c6b6cf27f6747b313082ab2e8567f51df6e05bd679bc9a046d49ab6d2fecf95",
      "v": 27,
      "creates": null,
      "raw": "0xf86d0c850ba43b740083015f9094108fedb097c1dcfed441480170144d8e19bb217f884563918244f40000801ba03a4c34f66d651cb8d923a275025855daf65f6d70fc9a2272e39aa1fe1d293b9ba06c6b6cf27f6747b313082ab2e8567f51df6e05bd679bc9a046d49ab6d2fecf95",
      "networkId": 0,
      "chainId": 0
    },
    {
      "hash": "0x477fa7505ace186c569336483ab6a50f6057f6142b81f7ad7a6ce1761651dcc9",
      "blockHash": "0xf3f43056783e77ff8dee2c3bdc1daa0f7bfc404cc948fc05f24680dfea0fa411",
      "blockNumber": 121248,
      "transactionIndex": 1,
      "confirmations": null,
      "from": "0x6DDE07583870063b9391a6f354F88fbD2deef5e9",
      "gasPrice": {
        "_hex": "0xba43b7400"
      },
      "gasLimit": {
        "_hex": "0x15f90"
      },
      "to": "0x8B9a9b77Edb4d38018522c1C24008B0499fee12E",
      "value": {
        "_hex": "0x4c53ecdc18a60000"
      },
      "nonce": 1,
      "data": "0x",
      "r": "0xc407198f22bbb0c7a0e408de262061c593741d3bc68436f0ed638c7c4b8daedf",
      "s": "0x70545b687de9545aa4cc7ff90848581741ea34858aba84e44d70cbceb9470e11",
      "v": 28,
      "creates": null,
      "raw": "0xf86d01850ba43b740083015f90948b9a9b77edb4d38018522c1c24008b0499fee12e884c53ecdc18a60000801ca0c407198f22bbb0c7a0e408de262061c593741d3bc68436f0ed638c7c4b8daedfa070545b687de9545aa4cc7ff90848581741ea34858aba84e44d70cbceb9470e11",
      "networkId": 0,
      "chainId": 0
    }
  ]
}