{
  "hash": "0xc286b46450d19dd44d5d29b61c28f806e51030d96bcc0d054feffe0b6b483445",
  "parentHash": "0x20cf7aa4cd40856c82882a01335829ea7c1b624abeeadd5acff4e0fbfe20c5d9",
  "number": 112930,
  "timestamp": 1440015460,
  "nonce": "0x26d2875b6ee7f62e",
  "difficulty": 4458385592107,
  "gasLimit": {
    "_hex": "0x2fefd8"
  },
  "gasUsed": {
    "_hex": "0x5208"
  },
  "miner": "0xe6A7a1d47ff21B6321162AEA7C6CB457D5476Bca",
  "extraData": "0x476574682f76312e302e312d38326566323666362f6c696e75782f676f312e34",
  "transactions": [
    {
      "hash": "0x349b40c17d86e87de07916586e729d3a7ee5e502fb62d50f22d4e8e370b8911b",
      "blockHash": "0xc286b46450d19dd44d5d29b61c28f806e51030d96bcc0d054feffe0b6b483445",
      "blockNumber": 112930,
      "transactionIndex": 0,
      "confirmations": null,
      "from": "0xd268fB48FA174088a25a120aFF0fd8eb0C2d4c87",
      "gasPrice": {
        "_hex": "0xd34ade122"
      },
      "gasLimit": {
        "_hex": "0x1d8a8"
      },
      "to": "0xa3d940115503B0fD10494424c1b57D2A26E7d169",
      "value": {
        "_hex": "0x3810f6985c940000"
      },
      "nonce": 20,
      "data": "0x",
      "r": "0xb2174e015bda64cdd245a47eb5369bedba10452e3edc6191d305f499e1985827",
      "s": "0x592d39f81bf55955ceee2d774f413781b57a219cc9af020e5c30f35071c3f467",
      "v": 28,
      "creates": null,
      "raw": "0xf86d14850d34ade1228301d8a894a3d940115503b0fd10494424c1b57d2a26e7d169883810f6985c940000801ca0b2174e015bda64cdd245a47eb5369bedba10452e3edc6191d305f499e1985827a0592d39f81bf55955ceee2d774f413781b57a219cc9af020e5c30f35071c3f467",
      "networkId": 0,
      "chainId": 0
    }
  ]
}