{
  "hash": "0xb46f9fbe2cd611983e080343e1d75cd129c717c42a2c8eecb4b5a5a6822fae77",
  "parentHash": "0x262a1f81d035e029958b61e5eb40ff3547e61e7ccc43578de555439aefd43991",
  "number": 46651,
  "timestamp": 1438926854,
  "nonce": "0xfa85a35d48c3756c",
  "difficulty": 1456771762893,
  "gasLimit": {
    "_hex": "0x6e6d"
  },
  "gasUsed": {
    "_hex": "0x5208"
  },
  "miner": "0x4947190fcC30D3fb3a16233b259bFe6b3492339a",
  "extraData": "0x476574682f76312e302e312f6c696e75782f676f312e342e32",
  "transactions": [
    {
      "hash": "0x094875b223d90896a64f02ce6103f893dc8cc39a5aaef27cf32c8a4509a9ba1f",
      "blockHash": "0xb46f9fbe2cd611983e080343e1d75cd129c717c42a2c8eecb4b5a5a6822fae77",
      "blockNumber": 46651,
      "transactionIndex": 0,
      "confirmations": null,
      "from": "0xFD7c9117BbEB649d9b37B3D3C9917f7c12f526B3",
      "gasPrice": {
        "_hex": "0xdf6db2395"
      },
      "gasLimit": {
        "_hex": "0x5208"
      },
      "to": "0x32Be343B94f860124dC4fEe278FDCBD38C102D88",
      "value": {
        "_hex": "0x455f0cf0da60c800"
      },
      "nonce": 0,
      "data": "0x",
      "r": "0xb2a17c035dc282c6391abac9f1e8855f6d2b60a94cc1e9178dc35f92ae736345",
      "s": "0x4c3009d3e382cb7c3c634e99dbdc456de033b98d0f064a310526e94ca4b4d7b4",
      "v": 27,
      "creates": null,
      "raw": "0xf86c80850df6db23958252089432be343b94f860124dc4fee278fdcbd38c102d8888455f0cf0da60c800801ba0b2a17c035dc282c6391abac9f1e8855f6d2b60a94cc1e9178dc35f92ae736345a04c3009d3e382cb7c3c634e99dbdc456de033b98d0f064a310526e94ca4b4d7b4",
      "networkId": 0,
      "chainId": 0
    }
  ]
}