{
  "hash": "0x297b897c28d1b8e0e3204d3ce70bf107c47e2d6f80a63135095ecfb93b838d41",
  "parentHash": "0xfde9b1a00223cf85c194d60d1e5a8efb46e4fde2754ee00d7ed2af8e9810defe",
  "number": 80517,
  "timestamp": 1439486638,
  "nonce": "0xc35094917c9afa5c",
  "difficulty": 2420331500305,
  "gasLimit": {
    "_hex": "0x2fefd8"
  },
  "gasUsed": {
    "_hex": "0x6ed7"
  },
  "miner": "0xEF247E639d49461D25F57e9362CadE3120910Ce0",
  "extraData": "0x476574682f76312e302e312f6c696e75782f676f312e342e32",
  "transactions": [
    {
      "hash": "0xebada50b5599a565366aa82c9089ecf5f0c02edc10c7c5979a9dbda4a3ee39b3",
      "blockHash": "0x297b897c28d1b8e0e3204d3ce70bf107c47e2d6f80a63135095ecfb93b838d41",
      "blockNumber": 80517,
      "transactionIndex": 0,
      "confirmations": null,
      "from": "0x87C5B5874A18B4306DF8a752a6C8cc3E82daFc19",
      "gasPrice": {
        "_hex": "0x10b24260b31"
      },
      "gasLimit": {
        "_hex": "0x493e0"
      },
      "to": "0xC4c51de1AbF5D60DBd329eC0F999Fd8f021ae9fC",
      "value": {
        "_hex": "0x0"
      },
      "nonce": 231,
      "data": "0xbd66528a6b6b6b0000000000000000000000000000000000000000000000000000000000",
      "r": "0x410089b78f6faf0a608f43d50d8c48b0428e8fab6d8c2a9b0314df5cb4df5e21",
      "s": "0x290968dce14fc72d8b6c10202d60c372c1de16e819f74cbe2feb4ead27abe675",
      "v": 27,
      "creates": null,
      "raw": "0xf88b81e786010b24260b31830493e094c4c51de1abf5d60dbd329ec0f999fd8f021ae9fc80a4bd66528a6b6b6b00000000000000000000000000000000000000000000000000000000001ba0410089b78f6faf0a608f43d50d8c48b0428e8fab6d8c2a9b0314df5cb4df5e21a0290968dce14fc72d8b6c10202d60c372c1de16e819f74cbe2feb4ead27abe675",
      "networkId": 0,
      "chainId": 0
    }
  ]
}