{
  "hash": "0x09a50b3e32a5eab3929cdd4a5c83bea7a62b5f11391d75a983cfd46a92ed1710",
  "parentHash": "0x7fd6b632fc26e69d3bb4051087454e3548206c6194eedd54f90c98c1839698b5",
  "number": 75203,
  "timestamp": 1439399385,
  "nonce": "0xd59eb952c11bd316",
  "difficulty": 2196536353476,
  "gasLimit": {
    "_hex": "0x2fefd8"
  },
  "gasUsed": {
    "_hex": "0xa410"
  },
  "miner": "0xF2d2AfF1320476cb8C6b607199D23175cc595693",
  "extraData": "0x476574682f76312e302e312f77696e646f77732f676f312e342e32",
  "transactions": [
    {
      "hash": "0x884596ea52f967efa36ce99b7439dc41c84ed984bf6210dd81668113641b1159",
      "blockHash": "0x09a50b3e32a5eab3929cdd4a5c83bea7a62b5f11391d75a983cfd46a92ed1710",
      "blockNumber": 75203,
      "transactionIndex": 0,
      "confirmations": null,
      "from": "0x640bAfc5732d621d5611eed670718409acb81366",
      "gasPrice": {
        "_hex": "0xdcb527196"
      },
      "gasLimit": {
        "_hex": "0x15f90"
      },
      "to": "0xDA4E0Ba268486216E0B3Ad5ccEAa1E7EdB1C2751",
      "value": {
        "_hex": "0xd02ab486cedc0000"
      },
      "nonce": 3,
      "data": "0x",
      "r": "0x40afc416d378c3ada865dc56b1f96cb335213f010406bfc7cfd525d86763933a",
      "s": "0x45464ce6f4325dc1a18facaaeb81cef31c0729a22e7ac03b591c53e9eaf64461",
      "v": 28,
      "creates": null,
      "raw": "0xf86d03850dcb52719683015f9094da4e0ba268486216e0b3ad5cceaa1e7edb1c275188d02ab486cedc0000801ca040afc416d378c3ada865dc56b1f96cb335213f010406bfc7cfd525d86763933aa045464ce6f4325dc1a18facaaeb81cef31c0729a22e7ac03b591c53e9eaf64461",
      "networkId": 0,
      "chainId": 0
    },
    {
      "hash": "0xd7d6b8394ce8ba57d7094b8252c7009b222d964e92d037a6a5de39d8ef2549f6",
      "blockHash": "0x09a50b3e32a5eab3929cdd4a5c83bea7a62b5f11391d75a983cfd46a92ed1710",
      "blockNumber": 75203,
      "transactionIndex": 1,
      "confirmations": null,
      "from": "0x76628150e2995B5b279FC83e0DD5F102A671dd1C",
      "gasPrice": {
        "_hex": "0xd3d37f23a"
      },
      "gasLimit": {
        "_hex": "0x15f90"
      },
      "to": "0x00d4C26dee05E008302b543291B452768145beeD",
      "value": {
        "_hex": "0x56bc75e2d63100000"
      },
      "nonce": 1,
      "data": "0x",
      "r": "0x9c5f079b6c5997cd5e0eccbeaa4b45314e8a0391d25659facad56421b892a5c0",
      "s": "0x12d487e907300fd3fbd2d17909b3484d04c71a24b8c97441534e1acc4c891deb",
      "v": 28,
      "creates": null,
      "raw": "0xf86e01850d3d37f23a83015f909400d4c26dee05e008302b543291b452768145beed89056bc75e2d63100000801ca09c5f079b6c5997cd5e0eccbeaa4b45314e8a0391d25659facad56421b892a5c0a012d487e907300fd3fbd2d17909b3484d04c71a24b8c97441534e1acc4c891deb",
      "networkId": 0,
      "chainId": 0
    }
  ]
}