{
  "hash": "0x9009e20192aa45c9a88ba9aad0fdf8fdbb4f82cc1a445866c758b342031bf01b",
  "parentHash": "0xc9832988bfb948daaae5d460a0e142c211d1119dd59ea6e4d8d02958614f22e7",
  "number": 51862,
  "timestamp": 1439012201,
  "nonce": "0x0a95ce2aecb4bacc",
  "difficulty": 1559631114543,
  "gasLimit": {
    "_hex": "0xe787f"
  },
  "gasUsed": {
    "_hex": "0x5208"
  },
  "miner": "0xbb7B8287f3F0a933474a79eAe42CBCa977791171",
  "extraData": "0x476574682f4c5649562f76312e302e312f6c696e75782f676f312e342e32",
  "transactions": [
    {
      "hash": "0xea432b5c59ee54335f31185e1c860f260650d74d28cf5c6d539415108bdc56ba",
      "blockHash": "0x9009e20192aa45c9a88ba9aad0fdf8fdbb4f82cc1a445866c758b342031bf01b",
      "blockNumber": 51862,
      "transactionIndex": 0,
      "confirmations": null,
      "from": "0xE4324912D64ea3AEF76B3C2ff9dF82c7E13ae991",
      "gasPrice": {
        "_hex": "0xd9151ce03"
      },
      "gasLimit": {
        "_hex": "0x15f90"
      },
      "to": "0xBebab47f96750510d35E034a43d668e25E7ce2d6",
      "value": {
        "_hex": "0xde0b6b3a7640000"
      },
      "nonce": 4,
      "data": "0x",
      "r": "0xfd333b38565f58c8ba4a2cb0dc556c3a71990feedbc00d864977b12fe1140399",
      "s": "0x1211a994b3ccec5a211cbbf1f1d58562485fa2dc7396caa252dbc4e49565fb39",
      "v": 28,
      "creates": null,
      "raw": "0xf86d04850d9151ce0383015f9094bebab47f96750510d35e034a43d668e25e7ce2d6880de0b6b3a7640000801ca0fd333b38565f58c8ba4a2cb0dc556c3a71990feedbc00d864977b12fe1140399a01211a994b3ccec5a211cbbf1f1d58562485fa2dc7396caa252dbc4e49565fb39",
      "networkId": 0,
      "chainId": 0
    }
  ]
}