{
  "hash": "0x50f5841b63901b0a97166daac6903147c3d7488576b5ab6c0e23caf1f367cd5d",
  "parentHash": "0xdf747824a086f0bcf05f26caae543ec63b649acb8961973f66aae2ffac7caea5",
  "number": 122160,
  "timestamp": 1440189260,
  "nonce": "0xb1635ecf9d3ba029",
  "difficulty": 4466549164562,
  "gasLimit": {
    "_hex": "0x2fefd8"
  },
  "gasUsed": {
    "_hex": "0x5208"
  },
  "miner": "0x9D49F602b0fdb924Bd63DDE2Bd0907E4A07c63a7",
  "extraData": "0x",
  "transactions": [
    {
      "hash": "0x6ef645d8ae9a6a3fca362f302ef25457f7de0a03e3065509cec97cb5ad5e190a",
      "blockHash": "0x50f5841b63901b0a97166daac6903147c3d7488576b5ab6c0e23caf1f367cd5d",
      "blockNumber": 122160,
      "transactionIndex": 0,
      "confirmations": null,
      "from": "0x007f7f58D3eb5b7510A301eCC749FC1fCDDBE14D",
      "gasPrice": {
        "_hex": "0xba43b7400"
      },
      "gasLimit": {
        "_hex": "0x15f90"
      },
      "to": "0xb1abce2918E21ddb93AA452731a12672A3d9F75a",
      "value": {
        "_hex": "0x4563918244f40000"
      },
      "nonce": 387,
      "data": "0x",
      "r": "0x9650c19d45eab34acbd74c55ed6d1ffe1cfce663d5e6d67bb66ae6f3235da28b",
      "s": "0x4a5c1a7831bd3e1bcb0e6fd52445e616dff82b6801c5332722e7bed1b65c73b2",
      "v": 28,
      "creates": null,
      "raw": "0xf86f820183850ba43b740083015f9094b1abce2918e21ddb93aa452731a12672a3d9f75a884563918244f40000801ca09650c19d45eab34acbd74c55ed6d1ffe1cfce663d5e6d67bb66ae6f3235da28ba04a5c1a7831bd3e1bcb0e6fd52445e616dff82b6801c5332722e7bed1b65c73b2",
      "networkId": 0,
      "chainId": 0
    }
  ]
}