{
  "hash": "0xb7476f119dbbfc6baaa57e9fa3f44c8b7e4c7bad3516d105d3359fa2e1928a47",
  "parentHash": "0x2678a4ab6564ace5eb20d7e72c78b1dce8438569d64299363d552e6f4282fa5d",
  "number": 113351,
  "timestamp": 1440021858,
  "nonce": "0xd393b7d2431b5b34",
  "difficulty": 4504110595945,
  "gasLimit": {
    "_hex": "0x2fefd5"
  },
  "gasUsed": {
    "_hex": "0x5208"
  },
  "miner": "0xe6A7a1d47ff21B6321162AEA7C6CB457D5476Bca",
  "extraData": "0x476574682f76312e302e312d38326566323666362f6c696e75782f676f312e34",
  "transactions": [
    {
      "hash": "0xcffd109a73660e7bac85a30dac21136e514ba8d95771658a3e479caafdb58836",
      "blockHash": "0xb7476f119dbbfc6baaa57e9fa3f44c8b7e4c7bad3516d105d3359fa2e1928a47",
      "blockNumber": 113351,
      "transactionIndex": 0,
      "confirmations": null,
      "from": "0x226E8B888E9F360E1Aea28229C40E2adC5D698b5",
      "gasPrice": {
        "_hex": "0xdb99a2a25"
      },
      "gasLimit": {
        "_hex": "0x15f90"
      },
      "to": "0xbA8c9CDA6af013Cc68A076E17c84d4cDbc5960c5",
      "value": {
        "_hex": "0xcb72c853f73a0000"
      },
      "nonce": 6,
      "data": "0x",
      "r": "0x215569f50f65940de97cc0e300273a552332ee105ce6252a1464a15fb1df06f6",
      "s": "0x7df18c57bd24230309619bde5a69907e532026001fa8b73ac7c0b939ec2d992d",
      "v": 27,
      "creates": null,
      "raw": "0xf86d06850db99a2a2583015f9094ba8c9cda6af013cc68a076e17c84d4cdbc5960c588cb72c853f73a0000801ba0215569f50f65940de97cc0e300273a552332ee105ce6252a1464a15fb1df06f6a07df18c57bd24230309619bde5a69907e532026001fa8b73ac7c0b939ec2d992d",
      "networkId": 0,
      "chainId": 0
    }
  ]
}