{
  "hash": "0x9bc2aa2ef968c63497e84418eb82c9ccd3df2fe55be7022f702da46bb285e9af",
  "parentHash": "0x4b627952393aba409fc9a9f6049430b49d96c28f96f8a39b4c7bafa90030a60c",
  "number": 93568,
  "timestamp": 1439693340,
  "nonce": "0x16575d24e933841b",
  "difficulty": 3466649571135,
  "gasLimit": {
    "_hex": "0x2fefd8"
  },
  "gasUsed": {
    "_hex": "0xa410"
  },
  "miner": "0xF11940EA05aA9CC3F13aCF5C5cA6EDCF312E3Aec",
  "extraData": "0x476574682f76312e302e312f77696e646f77732f676f312e342e32",
  "transactions": [
    {
      "hash": "0x6f9a19e69e7d02c440c0974a0a53cc823f82bd4a4f8670d752795bd7f334d6d2",
      "blockHash": "0x9bc2aa2ef968c63497e84418eb82c9ccd3df2fe55be7022f702da46bb285e9af",
      "blockNumber": 93568,
      "transactionIndex": 0,
      "confirmations": null,
      "from": "0xb1abce2918E21ddb93AA452731a12672A3d9F75a",
      "gasPrice": {
        "_hex": "0xd8d4ee7e5"
      },
      "gasLimit": {
        "_hex": "0x5208"
      },
      "to": "0x32Be343B94f860124dC4fEe278FDCBD38C102D88",
      "value": {
        "_hex": "0x7517c010e0c610000"
      },
      "nonce": 6,
      "data": "0x",
      "r": "0xcb922f31f89112bcb3901b8dbfc8824119d92f84d2c952607c673b02ed1f6f71",
      "s": "0x32cd0907d3bbcd01865f8453bcbda0374e6916005c74ee719e20c3e8aab737f4",
      "v": 27,
      "creates": null,
      "raw": "0xf86d06850d8d4ee7e58252089432be343b94f860124dc4fee278fdcbd38c102d888907517c010e0c610000801ba0cb922f31f89112bcb3901b8dbfc8824119d92f84d2c952607c673b02ed1f6f71a032cd0907d3bbcd01865f8453bcbda0374e6916005c74ee719e20c3e8aab737f4",
      "networkId": 0,
      "chainId": 0
    },
    {
      "hash": "0x1782a5b5a0c0d1b172d11c34a49dbda7020be6bf2a887c1a182c1e1273e56f1d",
      "blockHash": "0x9bc2aa2ef968c63497e84418eb82c9ccd3df2fe55be7022f702da46bb285e9af",
      "blockNumber": 93568,
      "transactionIndex": 1,
      "confirmations": null,
      "from": "0x9Fa9952255B2b06639A04D63804d4BdFFf6E2d7e",
      "gasPrice": {
        "_hex": "0xd795052c4"
      },
      "gasLimit": {
        "_hex": "0x15f90"
      },
      "to": "0xE12517204a15E890f12755207271102F4800A0c4",
      "value": {
        "_hex": "0x2b5e3af16b1880000"
      },
      "nonce": 10,
      "data": "0x",
      "r": "0x7bab1103e1f623a0c9bff722dd8b7b280dcdd6272f078e6e076f14a03d1f49fc",
      "s": "0x12ebdbcab5868b3eb7069b1e68d826bdffca1f9bf9cee068342a6c0bc26bd0fd",
      "v": 28,
      "creates": null,
      "raw": "0xf86e0a850d795052c483015f9094e12517204a15e890f12755207271102f4800a0c48902b5e3af16b1880000801ca07bab1103e1f623a0c9bff722dd8b7b280dcdd6272f078e6e076f14a03d1f49fca012ebdbcab5868b3eb7069b1e68d826bdffca1f9bf9cee068342a6c0bc26bd0fd",
      "networkId": 0,
      "chainId": 0
    }
  ]
}