{
  "hash": "0x28c91806daca42ef8c90c8ba49bb1583626d3ca8f8ee2d4e96a1319bbdf1e1e4",
  "parentHash": "0xb31f7003ba0ebd934c00aad1ac447e93a3ce4ccf830a1e5c6e3adc8c9e068c3d",
  "number": 56562,
  "timestamp": 1439089146,
  "nonce": "0xb4599c975b9a8348",
  "difficulty": 1662532720124,
  "gasLimit": {
    "_hex": "0x2fe415"
  },
  "gasUsed": {
    "_hex": "0x5208"
  },
  "miner": "0xbf70c9698D1f1Bd0A3D75E005a1A0Dd797AceB50",
  "extraData": "0x476574682f76312e302e302d30636463373634372f6c696e75782f676f312e34",
  "transactions": [
    {
      "hash": "0x40c475215e956323ed0ba8c64562202ad5f639fe41148335d03146cb13762d90",
      "blockHash": "0x28c91806daca42ef8c90c8ba49bb1583626d3ca8f8ee2d4e96a1319bbdf1e1e4",
      "blockNumber": 56562,
      "transactionIndex": 0,
      "confirmations": null,
      "from": "0x1308A2e95c0160B90803ddCA9B9a5bb55E416d79",
      "gasPrice": {
        "_hex": "0xe8d4a51000"
      },
      "gasLimit": {
        "_hex": "0x15f90"
      },
      "to": "0x7266c8FD66eD582bEA23bd8BC48E58D7f17321F3",
      "value": {
        "_hex": "0x56bc75e2d63100000"
      },
      "nonce": 70,
      "data": "0x",
      "r": "0xa3be8d7969409d637598369a6a3e9fb671991928fb4fca15394ce290e5c3db10",
      "s": "0x173f3666bb66c89ea409661c1d5752210c4763c703d3c6b3efe2a83947d849f1",
      "v": 28,
      "creates": null,
      "raw": "0xf86e4685e8d4a5100083015f90947266c8fd66ed582bea23bd8bc48e58d7f17321f389056bc75e2d63100000801ca0a3be8d7969409d637598369a6a3e9fb671991928fb4fca15394ce290e5c3db10a0173f3666bb66c89ea409661c1d5752210c4763c703d3c6b3efe2a83947d849f1",
      "networkId": 0,
      "chainId": 0
    }
  ]
}