{
  "hash": "0x6b56b8441d4711701398dd34313ba4ccbe8c92ef3f20e946d897fe3d2586bcdc",
  "parentHash": "0xfab544fe34e3c07ae245f55b868677adf0d690ca4f7ee3cd2ff5e2b1461cbdef",
  "number": 94658,
  "timestamp": 1439711830,
  "nonce": "0xb27e0d85e2d3f1d1",
  "difficulty": 3503634422916,
  "gasLimit": {
    "_hex": "0x2fefd8"
  },
  "gasUsed": {
    "_hex": "0x23e38"
  },
  "miner": "0xB52DBc32e60afc8456369c817ac6d3a7C5C07410",
  "extraData": "0x476574682f76312e302e312f64617277696e2f676f312e342e32",
  "transactions": [
    {
      "hash": "0x484d66723dcade5e956c7efe704a1fee4905ff51d23546b277519174a2ca0758",
      "blockHash": "0x6b56b8441d4711701398dd34313ba4ccbe8c92ef3f20e946d897fe3d2586bcdc",
      "blockNumber": 94658,
      "transactionIndex": 0,
      "confirmations": null,
      "from": "0xe6A7a1d47ff21B6321162AEA7C6CB457D5476Bca",
      "gasPrice": {
        "_hex": "0xdf7bf4de8"
      },
      "gasLimit": {
        "_hex": "0x55f0"
      },
      "to": "0x59C7860aBcb1eE791165B63365c3C8657EEe54c5",
      "value": {
        "_hex": "0x6699458c3305c148"
      },
      "nonce": 2798,
      "data": "0x",
      "r": "0x09f5dc6774ae9be7f437c9e9d578ef24c74ed6ef98e166dfbad8bf87614a7063",
      "s": "0x4ad78362ac53fbe5b8d4284ce521375d088775a22d198188b2254a1eb5750aea",
      "v": 27,
      "creates": null,
      "raw": "0xf86e820aee850df7bf4de88255f09459c7860abcb1ee791165b63365c3c8657eee54c5886699458c3305c148801ba009f5dc6774ae9be7f437c9e9d578ef24c74ed6ef98e166dfbad8bf87614a7063a04ad78362ac53fbe5b8d4284ce521375d088775a22d198188b2254a1eb5750aea",
      "networkId": 0,
      "chainId": 0
    },
    {
      "hash": "0x99037ea190128d478f82c63048c2ef6d74f7c99c6af43f9ac6b8cee65313aaaf",
      "blockHash": "0x6b56b8441d4711701398dd34313ba4ccbe8c92ef3f20e946d897fe3d2586bcdc",
      "blockNumber": 94658,
      "transactionIndex": 1,
      "confirmations": null,
      "from": "0xe6A7a1d47ff21B6321162AEA7C6CB457D5476Bca",
      "gasPrice": {
        "_hex": "0xdf7bf4de8"
      },
      "gasLimit": {
        "_hex": "0x55f0"
      },
      "to": "0xA56697139eB8704667673Af60c361AF8C32694E3",
      "value": {
        "_hex": "0x68abee8718f05dc8"
      },
      "nonce": 2799,
      "data": "0x",
      "r": "0x022dc761773cf29ee4c5368a885934e3fb10004be1e756be40c06ce88c66cbf7",
      "s": "0x6daf7141af8e231da85cfd454b13878d35e19501f9ded9e4294a3f2208e37d84",
      "v": 27,
      "creates": null,
      "raw": "0xf86e820aef850df7bf4de88255f094a56697139eb8704667673af60c361af8c32694e38868abee8718f05dc8801ba0022dc761773cf29ee4c5368a885934e3fb10004be1e756be40c06ce88c66cbf7a06daf7141af8e231da85cfd454b13878d35e19501f9ded9e4294a3f2208e37d84",
      "networkId": 0,
      "chainId": 0
    },
    {
      "hash": "0x3024a69dc838408002f1afd82c5bd7b8ff612acca5d25907559cf7203cd71b5e",
      "blockHash": "0x6b56b8441d4711701398dd34313ba4ccbe8c92ef3f20e946d897fe3d2586bcdc",
      "blockNumber": 94658,
      "transactionIndex": 2,
      "confirmations": null,
      "from": "0xe6A7a1d47ff21B6321162AEA7C6CB457D5476Bca",
      "gasPrice": {
        "_hex": "0xdf7bf4de8"
      },
      "gasLimit": {
        "_hex": "0x55f0"
      },
      "to": "0x10c4712a317A10F60fE9347b199400d6BaA89558",
      "value": {
        "_hex": "0x6d3281e63695dc90"
      },
      "nonce": 2800,
      "data": "0x",
      "r": "0x00b98eee6f16fdaa970583ff70c08802109897513c144710a3e95e5dec80883b",
      "s": "0x62085887e50f08071375bab04e7cbcb75f6ab1f28a3812d467206db13b1ace86",
      "v": 28,
      "creates": null,
      "raw": "0xf86d820af0850df7bf4de88255f09410c4712a317a10f60fe9347b199400d6baa89558886d3281e63695dc90801c9fb98eee6f16fdaa970583ff70c08802109897513c144710a3e95e5dec80883ba062085887e50f08071375bab04e7cbcb75f6ab1f28a3812d467206db13b1ace86",
      "networkId": 0,
      "chainId": 0
    },
    {
      "hash": "0x0adaeeff4dbf267d5c7c8fe937d28531a33c927d0d0f44e9f43fcd72800b06b4",
      "blockHash": "0x6b56b8441d4711701398dd34313ba4ccbe8c92ef3f20e946d897fe3d2586bcdc",
      "blockNumber": 94658,
      "transactionIndex": 3,
      "confirmations": null,
      "from": "0xe6A7a1d47ff21B6321162AEA7C6CB457D5476Bca",
      "gasPrice": {
        "_hex": "0xdf7bf4de8"
      },
      "gasLimit": {
        "_hex": "0x55f0"
      },
      "to": "0xce8ff6d2027CA9837abb85FD515752151b6C7d0A",
      "value": {
        "_hex": "0x6d35abe7df9e10b8"
      },
      "nonce": 2801,
      "data": "0x",
      "r": "0x79e47d3d562710810d1f65635ebeaef1e8f6ca547359b7e8bd1ac858726004b2",
      "s": "0x6fa514255fb8ebd36ce4adfb0e61d4b8034e25f510b25420fa26224b9bc25f6c",
      "v": 27,
      "creates": null,
      "raw": "0xf86e820af1850df7bf4de88255f094ce8ff6d2027ca9837abb85fd515752151b6c7d0a886d35abe7df9e10b8801ba079e47d3d562710810d1f65635ebeaef1e8f6ca547359b7e8bd1ac858726004b2a06fa514255fb8ebd36ce4adfb0e61d4b8034e25f510b25420fa26224b9bc25f6c",
      "networkId": 0,
      "chainId": 0
    },
    {
      "hash": "0xa64aad6eb214cd482c6780b7041af126137f3791815651cd1046e18b33bf42b5",
      "blockHash": "0x6b56b8441d4711701398dd34313ba4ccbe8c92ef3f20e946d897fe3d2586bcdc",
      "blockNumber": 94658,
      "transactionIndex": 4,
      "confirmations": null,
      "from": "0xe6A7a1d47ff21B6321162AEA7C6CB457D5476Bca",
      "gasPrice": {
        "_hex": "0xdf7bf4de8"
      },
      "gasLimit": {
        "_hex": "0x55f0"
      },
      "to": "0xec4B2cCFC84A4C62d73D56c44917986aAAaEe10f",
      "value": {
        "_hex": "0x6d71965985b7fb20"
      },
      "nonce": 2802,
      "data": "0x",
      "r": "0x2d269b02bc2f2d5a06a362eae92a647efdf882a1e1dc08b3cab1f7ade92c9bea",
      "s": "0x42a11c407676e3f94251891b2bb80389682765be347dd52bb5f276993023f842",
      "v": 28,
      "creates": null,
      "raw": "0xf86e820af2850df7bf4de88255f094ec4b2ccfc84a4c62d73d56c44917986aaaaee10f886d71965985b7fb20801ca02d269b02bc2f2d5a06a362eae92a647efdf882a1e1dc08b3cab1f7ade92c9beaa042a11c407676e3f94251891b2bb80389682765be347dd52bb5f276993023f842",
      "networkId": 0,
      "chainId": 0
    },
    {
      "hash": "0x5cf8f12221624c2000c0ed18998747353cab78980d09c52843fc3c0dd4289cef",
      "blockHash": "0x6b56b8441d4711701398dd34313ba4ccbe8c92ef3f20e946d897fe3d2586bcdc",
      "blockNumber": 94658,
      "transactionIndex": 5,
      "confirmations": null,
      "from": "0xe6A7a1d47ff21B6321162AEA7C6CB457D5476Bca",
      "gasPrice": {
        "_hex": "0xdf7bf4de8"
      },
      "gasLimit": {
        "_hex": "0x55f0"
      },
      "to": "0x8d629C20608135491B5013f1002586A0383130e5",
      "value": {
        "_hex": "0x6da6f3c01ad50380"
      },
      "nonce": 2803,
      "data": "0x",
      "r": "0xccec1d0a1b6a576c370cf9e24b15fa43915573804bd72719692a851f64a5cadc",
      "s": "0x641b88f48626dcb47edd9f6592e371d3014e7bd1ab64bc83d57919d596d1fccd",
      "v": 28,
      "creates": null,
      "raw": "0xf86e820af3850df7bf4de88255f0948d629c20608135491b5013f1002586a0383130e5886da6f3c01ad50380801ca0ccec1d0a1b6a576c370cf9e24b15fa43915573804bd72719692a851f64a5cadca0641b88f48626dcb47edd9f6592e371d3014e7bd1ab64bc83d57919d596d1fccd",
      "networkId": 0,
      "chainId": 0
    },
    {
      "hash": "0xb81b04b4610c38c448fe6209a83f073b17fa6528f7da1dedbf123496a2a58833",
      "blockHash": "0x6b56b8441d4711701398dd34313ba4ccbe8c92ef3f20e946d897fe3d2586bcdc",
      "blockNumber": 94658,
      "transactionIndex": 6,
      "confirmations": null,
      "from": "0xe6A7a1d47ff21B6321162AEA7C6CB457D5476Bca",
      "gasPrice": {
        "_hex": "0xdf7bf4de8"
      },
      "gasLimit": {
        "_hex": "0x55f0"
      },
      "to": "0x629e35e0A481d821293F354E0dD27E43a354D061",
      "value": {
        "_hex": "0x6e73c1b283c06938"
      },
      "nonce": 2804,
      "data": "0x",
      "r": "0x9f83137bfbf965cb77499ff62ae5c2e346b4fa1c34277b07e3d61cd8100be13e",
      "s": "0x011d0d2762a2c0d7200d54471b49e0b34d8a03bb9d06efa947bd709a0d55211c",
      "v": 27,
      "creates": null,
      "raw": "0xf86e820af4850df7bf4de88255f094629e35e0a481d821293f354e0dd27e43a354d061886e73c1b283c06938801ba09f83137bfbf965cb77499ff62ae5c2e346b4fa1c34277b07e3d61cd8100be13ea0011d0d2762a2c0d7200d54471b49e0b34d8a03bb9d06efa947bd709a0d55211c",
      "networkId": 0,
      "chainId": 0
    }
  ]
}