{
  "hash": "0x2d51f39bd3d8f86432fd687b7d6d91638f8fa183a0f7bd7552227e401baed67a",
  "parentHash": "0x3f66dbf68dd3967835c50e1a0740b243fd222c3001fdb229f365501bb778fc83",
  "number": 97987,
  "timestamp": 1439765234,
  "nonce": "0x8c9004c9bbfbe56c",
  "difficulty": 3848341503621,
  "gasLimit": {
    "_hex": "0x2fefd8"
  },
  "gasUsed": {
    "_hex": "0x5208"
  },
  "miner": "0xe6A7a1d47ff21B6321162AEA7C6CB457D5476Bca",
  "extraData": "0x476574682f76312e302e312d38326566323666362f6c696e75782f676f312e34",
  "transactions": [
    {
      "hash": "0xa1534b9c97a1a347ac2b3aff121619d09685f0d9664a0eb46a953c5c25ae2926",
      "blockHash": "0x2d51f39bd3d8f86432fd687b7d6d91638f8fa183a0f7bd7552227e401baed67a",
      "blockNumber": 97987,
      "transactionIndex": 0,
      "confirmations": null,
      "from": "0xb62A0BF317fceb39ed916f0F9E60e623Ad309127",
      "gasPrice": {
        "_hex": "0xdf3dddc29"
      },
      "gasLimit": {
        "_hex": "0x15f90"
      },
      "to": "0x93923a3BfcF68a4bd9463Ab5444689269B0d31bb",
      "value": {
        "_hex": "0x16345785d8a0000"
      },
      "nonce": 2,
      "data": "0x",
      "r": "0x02f515c51f1bf9f0332b5ae98104a06f7431ff1d5559db5829cd76907bdc5a11",
      "s": "0x35c0866f8fc2b2ef21d737331cacadc748693ce4a9dc019ce3b47c626d12459f",
      "v": 28,
      "creates": null,
      "raw": "0xf86d02850df3dddc2983015f909493923a3bfcf68a4bd9463ab5444689269b0d31bb88016345785d8a0000801ca002f515c51f1bf9f0332b5ae98104a06f7431ff1d5559db5829cd76907bdc5a11a035c0866f8fc2b2ef21d737331cacadc748693ce4a9dc019ce3b47c626d12459f",
      "networkId": 0,
      "chainId": 0
    }
  ]
}