{
  "hash": "0xe8317317719ad886ac844a647ce7f7712a3b6c4887ed95d89902cd69fd26dd69",
  "parentHash": "0xe4a2ed5d387acb3f5aec97a177579761eefcd3a36606e92588de87734020bdbb",
  "number": 54781,
  "timestamp": 1439059911,
  "nonce": "0x1804bf29a4f9a77f",
  "difficulty": 1615663794305,
  "gasLimit": {
    "_hex": "0x2fe3db"
  },
  "gasUsed": {
    "_hex": "0xa410"
  },
  "miner": "0xbe4532E1B1Db5c913Cf553be76180c1777055403",
  "extraData": "0x476574682f686261722f76312e302e312f6c696e75782f676f312e342e32",
  "transactions": [
    {
      "hash": "0xae5192b32bf28acf645878988eeb1d835dfedd653b226732e141d03fe8c7d2ee",
      "blockHash": "0xe8317317719ad886ac844a647ce7f7712a3b6c4887ed95d89902cd69fd26dd69",
      "blockNumber": 54781,
      "transactionIndex": 0,
      "confirmations": null,
      "from": "0xCdA1B886e3A795c9BA77914e0A2fe5676F0F5cCF",
      "gasPrice": {
        "_hex": "0xda5d79f4f"
      },
      "gasLimit": {
        "_hex": "0x15f90"
      },
      "to": "0x9aD28d4b9331aAC808DED237E46c6f5d69FCEDF6",
      "value": {
        "_hex": "0x58788cb94b1d80000"
      },
      "nonce": 1,
      "data": "0x",
      "r": "0x658c67c63a8bdcf345850f17b50fbb1212e5637956ffbe80dbe8de32f50c29d6",
      "s": "0x5fccaf4dc82f18759f76171643821d7aa26b45d4dec123fd2a88d378b6bc07d4",
      "v": 28,
      "creates": null,
      "raw": "0xf86e01850da5d79f4f83015f90949ad28d4b9331aac808ded237e46c6f5d69fcedf689058788cb94b1d80000801ca0658c67c63a8bdcf345850f17b50fbb1212e5637956ffbe80dbe8de32f50c29d6a05fccaf4dc82f18759f76171643821d7aa26b45d4dec123fd2a88d378b6bc07d4",
      "networkId": 0,
      "chainId": 0
    },
    {
      "hash": "0x34157fe989feafab46beb02b5624edfc0280c78d4b59a78018ef5827184d5619",
      "blockHash": "0xe8317317719ad886ac844a647ce7f7712a3b6c4887ed95d89902cd69fd26dd69",
      "blockNumber": 54781,
      "transactionIndex": 1,
      "confirmations": null,
      "from": "0x32Be343B94f860124dC4fEe278FDCBD38C102D88",
      "gasPrice": {
        "_hex": "0xcfd36bb2e"
      },
      "gasLimit": {
        "_hex": "0x5208"
      },
      "to": "0xc384Ac6ee27C39E2F278C220BDfA5BAeD626D9d3",
      "value": {
        "_hex": "0x1d26c556c85df40000"
      },
      "nonce": 60,
      "data": "0x",
      "r": "0x772a6a760de9b098e6ed31f65d702d77f0c4582d413b972b5835eb00ed4cbf5e",
      "s": "0x4eee98d93ef18dacfdaffcf9babd6fe13152a8aae7fb7c1fab46808af52a7811",
      "v": 28,
      "creates": null,
      "raw": "0xf86d3c850cfd36bb2e82520894c384ac6ee27c39e2f278c220bdfa5baed626d9d3891d26c556c85df40000801ca0772a6a760de9b098e6ed31f65d702d77f0c4582d413b972b5835eb00ed4cbf5ea04eee98d93ef18dacfdaffcf9babd6fe13152a8aae7fb7c1fab46808af52a7811",
      "networkId": 0,
      "chainId": 0
    }
  ]
}