{
  "hash": "0x0ca366b94ac1244c866319fafb1487fe81bcacc6c20919b4ac51a27d5eb91db8",
  "parentHash": "0x245e2a7ad33996ded4cbff078094b740f181182760bca19064f3b4f8f9b2eb04",
  "number": 86807,
  "timestamp": 1439583107,
  "nonce": "0x416189fbd6521e2a",
  "difficulty": 2954560817233,
  "gasLimit": {
    "_hex": "0x2fefd8"
  },
  "gasUsed": {
    "_hex": "0x5208"
  },
  "miner": "0x007f7f58D3eb5b7510A301eCC749FC1fCDDBE14D",
  "extraData": "0x476574682f76312e302e312f77696e646f77732f676f312e342e32",
  "transactions": [
    {
      "hash": "0x72a878edace9828d92b19fb01c1af1e1727fc4c0a208c2d694eef361964a365e",
      "blockHash": "0x0ca366b94ac1244c866319fafb1487fe81bcacc6c20919b4ac51a27d5eb91db8",
      "blockNumber": 86807,
      "transactionIndex": 0,
      "confirmations": null,
      "from": "0x2910543Af39abA0Cd09dBb2D50200b3E800A63D2",
      "gasPrice": {
        "_hex": "0xd48a4f5a7"
      },
      "gasLimit": {
        "_hex": "0x5208"
      },
      "to": "0x345e37Ef306072c3E6968376963262E3264f25f3",
      "value": {
        "_hex": "0x1157c828fdbef8000"
      },
      "nonce": 681,
      "data": "0x",
      "r": "0xc50231e007a5432f36d531a7ef1360c0c48e7d64d64dc83f7295ac3a6fbf85dc",
      "s": "0x558d8ebefabd3171c7a3e2759717c5baeafba063fbe38444a100530f214d97c7",
      "v": 27,
      "creates": null,
      "raw": "0xf86f8202a9850d48a4f5a782520894345e37ef306072c3e6968376963262e3264f25f38901157c828fdbef8000801ba0c50231e007a5432f36d531a7ef1360c0c48e7d64d64dc83f7295ac3a6fbf85dca0558d8ebefabd3171c7a3e2759717c5baeafba063fbe38444a100530f214d97c7",
      "networkId": 0,
      "chainId": 0
    }
  ]
}