{
  "hash": "0x80603ed86ad31bfbdec9142c12d0dd38804477fc8bf9ee2554a8b8904ab7e12b",
  "parentHash": "0x6376779b005d58e7daf686b0169667d86c26d8f17ea257fba5714ae60ea7a545",
  "number": 111648,
  "timestamp": 1439993783,
  "nonce": "0xb46d5f292925cbf6",
  "difficulty": 4437347282851,
  "gasLimit": {
    "_hex": "0x2fefd8"
  },
  "gasUsed": {
    "_hex": "0x5208"
  },
  "miner": "0xe6A7a1d47ff21B6321162AEA7C6CB457D5476Bca",
  "extraData": "0x476574682f76312e302e312d38326566323666362f6c696e75782f676f312e34",
  "transactions": [
    {
      "hash": "0x23cb72df87a7aa28ca9fae9cf6da2af799ac633be342a4e2b921208b2e9613c6",
      "blockHash": "0x80603ed86ad31bfbdec9142c12d0dd38804477fc8bf9ee2554a8b8904ab7e12b",
      "blockNumber": 111648,
      "transactionIndex": 0,
      "confirmations": null,
      "from": "0x32Be343B94f860124dC4fEe278FDCBD38C102D88",
      "gasPrice": {
        "_hex": "0xdfdde896f"
      },
      "gasLimit": {
        "_hex": "0x5208"
      },
      "to": "0x5A89048Fb5710E89dc5973652dAF900aC9018d26",
      "value": {
        "_hex": "0x2177cce4fe8616000"
      },
      "nonce": 1312,
      "data": "0x",
      "r": "0xf64b13c7cd2336544b665a36b03cd267f7ec305b9148e2aae3c550381bb61f31",
      "s": "0x262dc3aa5c6fc53b15e0a26025e82909ae4f935766174c30af30a152292ab4ce",
      "v": 27,
      "creates": null,
      "raw": "0xf86f820520850dfdde896f825208945a89048fb5710e89dc5973652daf900ac9018d268902177cce4fe8616000801ba0f64b13c7cd2336544b665a36b03cd267f7ec305b9148e2aae3c550381bb61f31a0262dc3aa5c6fc53b15e0a26025e82909ae4f935766174c30af30a152292ab4ce",
      "networkId": 0,
      "chainId": 0
    }
  ]
}