{
  "hash": "0x0f1aebeb3adc6bf5859a947b6bd1cbd7253692835da300ad631a60b421a689a4",
  "parentHash": "0x21e131e114a772396b48f65b8e1b072dcdc5a10927df141c67981073f0847db3",
  "number": 71216,
  "timestamp": 1439332606,
  "nonce": "0x55ece79eecf3407f",
  "difficulty": 2143531444637,
  "gasLimit": {
    "_hex": "0x2fefd8"
  },
  "gasUsed": {
    "_hex": "0xaec1"
  },
  "miner": "0xA1623430350C5df1b52B0b57483A5bb45d1796Da",
  "extraData": "0x476574682f76312e302e312d38326566323666362f6c696e75782f676f312e34",
  "transactions": [
    {
      "hash": "0xd40c6ff3f255114965f93d4b2cb954a13f67d6d8c8774f5af6e4fb4ec9683094",
      "blockHash": "0x0f1aebeb3adc6bf5859a947b6bd1cbd7253692835da300ad631a60b421a689a4",
      "blockNumber": 71216,
      "transactionIndex": 0,
      "confirmations": null,
      "from": "0x17580B766f7453525ca4C6A88b01b50570EA088C",
      "gasPrice": {
        "_hex": "0xd5a048310"
      },
      "gasLimit": {
        "_hex": "0x61a80"
      },
      "to": "0x5Fe5B7546D1628f7348B023A0393de1FC825A4fD",
      "value": {
        "_hex": "0x1bc16d674ec80000"
      },
      "nonce": 120,
      "data": "0xb595b8b50000000000000000000000000000000000000000000000000000000000000001",
      "r": "0xdd6ac48cd38ff65e6033152f0205eb7fb814f9b8ff8d726aa716533696da247d",
      "s": "0x757265eccd0e0f1d081a496b622348a02de32aaddc99cc237e84b2678adec3cc",
      "v": 27,
      "creates": null,
      "raw": "0xf89178850d5a04831083061a80945fe5b7546d1628f7348b023a0393de1fc825a4fd881bc16d674ec80000a4b595b8b500000000000000000000000000000000000000000000000000000000000000011ba0dd6ac48cd38ff65e6033152f0205eb7fb814f9b8ff8d726aa716533696da247da0757265eccd0e0f1d081a496b622348a02de32aaddc99cc237e84b2678adec3cc",
      "networkId": 0,
      "chainId": 0
    }
  ]
}