{
  "hash": "0x5c7f12ff2fe7871ecd3a97049bed547acdab6e1d4c2745efdb95d4eeec58e00c",
  "parentHash": "0x95018d4ac0220ff291b159fb2d3453eaaa7d518002193b6c324ef98285a22807",
  "number": 104912,
  "timestamp": 1439878249,
  "nonce": "0x8b5d2de94d2edb9d",
  "difficulty": 4329573792724,
  "gasLimit": {
    "_hex": "0x2fefd8"
  },
  "gasUsed": {
    "_hex": "0x5208"
  },
  "miner": "0xe6A7a1d47ff21B6321162AEA7C6CB457D5476Bca",
  "extraData": "0x476574682f76312e302e312d38326566323666362f6c696e75782f676f312e34",
  "transactions": [
    {
      "hash": "0xb1f4857ea08725abd08c379a4007262cbb60c60b83b3aac2460c8a2b7293af99",
      "blockHash": "0x5c7f12ff2fe7871ecd3a97049bed547acdab6e1d4c2745efdb95d4eeec58e00c",
      "blockNumber": 104912,
      "transactionIndex": 0,
      "confirmations": null,
      "from": "0x30beD8049947963394D93412326225E4e3123601",
      "gasPrice": {
        "_hex": "0xcd01d143e"
      },
      "gasLimit": {
        "_hex": "0x5208"
      },
      "to": "0x32Be343B94f860124dC4fEe278FDCBD38C102D88",
      "value": {
        "_hex": "0x1236ae1adff77f000"
      },
      "nonce": 13,
      "data": "0x",
      "r": "0x8e2cfd00e7a2e6ee27c9804d557f8e044b9fd3685ef18fd8e5db98a8dfdaa4f7",
      "s": "0x5b972bae7e76a5a7f97e3675cbf98991afc67b9866546f8d2d63ef7650ab6cd3",
      "v": 28,
      "creates": null,
      "raw": "0xf86d0d850cd01d143e8252089432be343b94f860124dc4fee278fdcbd38c102d888901236ae1adff77f000801ca08e2cfd00e7a2e6ee27c9804d557f8e044b9fd3685ef18fd8e5db98a8dfdaa4f7a05b972bae7e76a5a7f97e3675cbf98991afc67b9866546f8d2d63ef7650ab6cd3",
      "networkId": 0,
      "chainId": 0
    }
  ]
}