{
  "hash": "0x819b4bc4f088242f0606c77f333a62698a04402aff733eb20c9f721956e7d133",
  "parentHash": "0x36e1cd2b7874d261afca7bdcb2e5eb38e23747d3bcfca527e4b15a5803e6b1af",
  "number": 72499,
  "timestamp": 1439353700,
  "nonce": "0xfc033f76ecb1ad05",
  "difficulty": 2199391298249,
  "gasLimit": {
    "_hex": "0x2fefd8"
  },
  "gasUsed": {
    "_hex": "0xa410"
  },
  "miner": "0xe6A7a1d47ff21B6321162AEA7C6CB457D5476Bca",
  "extraData": "0x476574682f76312e302e312d38326566323666362f6c696e75782f676f312e34",
  "transactions": [
    {
      "hash": "0x249485ef3de9f3322e31845b322b094cc3939a49e6b277e09b3c194c8ecaa570",
      "blockHash": "0x819b4bc4f088242f0606c77f333a62698a04402aff733eb20c9f721956e7d133",
      "blockNumber": 72499,
      "transactionIndex": 0,
      "confirmations": null,
      "from": "0x6d37bd781411ccDd33792481E2C9CE5b62D3a5B8",
      "gasPrice": {
        "_hex": "0xd2b4a5d66"
      },
      "gasLimit": {
        "_hex": "0x5208"
      },
      "to": "0x32Be343B94f860124dC4fEe278FDCBD38C102D88",
      "value": {
        "_hex": "0xddc7e6c126b5800"
      },
      "nonce": 1,
      "data": "0x",
      "r": "0x6400b39663941260353ce4c0f0478d25cf207352b95a3be8ccb23648b8f198bc",
      "s": "0x4fe2b4b7008da911c670d16aa7f060b04fa45ca2960b82cceb67a0c11dd8a804",
      "v": 28,
      "creates": null,
      "raw": "0xf86c01850d2b4a5d668252089432be343b94f860124dc4fee278fdcbd38c102d88880ddc7e6c126b5800801ca06400b39663941260353ce4c0f0478d25cf207352b95a3be8ccb23648b8f198bca04fe2b4b7008da911c670d16aa7f060b04fa45ca2960b82cceb67a0c11dd8a804",
      "networkId": 0,
      "chainId": 0
    },
    {
      "hash": "0x4c197601cdd046accab23d23bcfb3e2051407f173679c7346c952d74201cdbfa",
      "blockHash": "0x819b4bc4f088242f0606c77f333a62698a04402aff733eb20c9f721956e7d133",
      "blockNumber": 72499,
      "transactionIndex": 1,
      "confirmations": null,
      "from": "0xa391109Aa419A9241C6d91d824581D672e96E93B",
      "gasPrice": {
        "_hex": "0xd2b4a5d66"
      },
      "gasLimit": {
        "_hex": "0x5208"
      },
      "to": "0x32Be343B94f860124dC4fEe278FDCBD38C102D88",
      "value": {
        "_hex": "0x937351b05936f8000"
      },
      "nonce": 0,
      "data": "0x",
      "r": "0x9f81404bf114e7d668ef9f1d4e219e2d47a6555a3ecf02ab8a88eb76cfc5b371",
      "s": "0x1281365191753a5d95da8c6012af36a35df7ece96d4fb8be5d956782004235e4",
      "v": 27,
      "creates": null,
      "raw": "0xf86d80850d2b4a5d668252089432be343b94f860124dc4fee278fdcbd38c102d88890937351b05936f8000801ba09f81404bf114e7d668ef9f1d4e219e2d47a6555a3ecf02ab8a88eb76cfc5b371a01281365191753a5d95da8c6012af36a35df7ece96d4fb8be5d956782004235e4",
      "networkId": 0,
      "chainId": 0
    }
  ]
}