{
  "hash": "0x645988106899e9b4fcc7191b611b1ef04a0aed63e1ab2d03636848fa3421b9ed",
  "parentHash": "0xc5ae90276359311722d23adb4dd880b7c495f913b78fb9b33e92397c885d3086",
  "number": 106118,
  "timestamp": 1439898928,
  "nonce": "0x57c53c3d36eae14a",
  "difficulty": 4466367069249,
  "gasLimit": {
    "_hex": "0x2fefd8"
  },
  "gasUsed": {
    "_hex": "0x5208"
  },
  "miner": "0x5532A650304265014A873E4399A3487d0296B8CF",
  "extraData": "0x",
  "transactions": [
    {
      "hash": "0x7455c59624c0ceb7ddf65c17d0b30084508c54c50b50b86f282270afd2614aef",
      "blockHash": "0x645988106899e9b4fcc7191b611b1ef04a0aed63e1ab2d03636848fa3421b9ed",
      "blockNumber": 106118,
      "transactionIndex": 0,
      "confirmations": null,
      "from": "0xFf1Ef60B3bF5d14b5C40388e35A6fbd42700efC6",
      "gasPrice": {
        "_hex": "0xdcdf5a358"
      },
      "gasLimit": {
        "_hex": "0x15f90"
      },
      "to": "0x556ca325C21e450b2aFf86D9c8eF0Fa371971c97",
      "value": {
        "_hex": "0x58d15e176280000"
      },
      "nonce": 2,
      "data": "0x",
      "r": "0x00022e86006ac6d70c28c9962e638d15d951c28b46351b93de817defeb07d3dc",
      "s": "0x18a242849207ddc9be58ea443dd3c540073165bc8bf7bbf3f6635c2d6b9a738b",
      "v": 27,
      "creates": null,
      "raw": "0xf86c02850dcdf5a35883015f9094556ca325c21e450b2aff86d9c8ef0fa371971c9788058d15e176280000801b9f022e86006ac6d70c28c9962e638d15d951c28b46351b93de817defeb07d3dca018a242849207ddc9be58ea443dd3c540073165bc8bf7bbf3f6635c2d6b9a738b",
      "networkId": 0,
      "chainId": 0
    }
  ]
}