{
  "hash": "0x2eafa64e15bced3ebf920327a11b08a768b6d916715a493b420b654a9424165f",
  "parentHash": "0xa189c5f445ac693e82a7ba1b218bd9430e009d479755f468fb253328b8d7cb2d",
  "number": 115055,
  "timestamp": 1440050795,
  "nonce": "0xfb52e7585ce605fe",
  "difficulty": 4534084781557,
  "gasLimit": {
    "_hex": "0x2fefd8"
  },
  "gasUsed": {
    "_hex": "0x5208"
  },
  "miner": "0x21ebDdD2615b9c950B1b96CFF015AEEbFcf14759",
  "extraData": "0x476574682f76312e302e312f6c696e75782f676f312e342e32",
  "transactions": [
    {
      "hash": "0x278c5f3d1a6c0e83e8a433eb5d1532dcc297380abd3bdfaadb0cd123520f2916",
      "blockHash": "0x2eafa64e15bced3ebf920327a11b08a768b6d916715a493b420b654a9424165f",
      "blockNumber": 115055,
      "transactionIndex": 0,
      "confirmations": null,
      "from": "0x0F789E30397c53bf256Fc364e6eF39F853504114",
      "gasPrice": {
        "_hex": "0x106ce997e44"
      },
      "gasLimit": {
        "_hex": "0x15f90"
      },
      "to": "0x709637dC145477a8e9ab86613B3c5c10cD1c5dDC",
      "value": {
        "_hex": "0x2386f26fc10000"
      },
      "nonce": 0,
      "data": "0x",
      "r": "0xc42aab2953cb3b3c77b3e35e6e7c79c9676d4138f55dbc7e809ab9858d252fc9",
      "s": "0x0c690aadd468eab365692b616604d45dca31f1629ba010f6ce82eb62e6143843",
      "v": 28,
      "creates": null,
      "raw": "0xf86d80860106ce997e4483015f9094709637dc145477a8e9ab86613b3c5c10cd1c5ddc872386f26fc10000801ca0c42aab2953cb3b3c77b3e35e6e7c79c9676d4138f55dbc7e809ab9858d252fc9a00c690aadd468eab365692b616604d45dca31f1629ba010f6ce82eb62e6143843",
      "networkId": 0,
      "chainId": 0
    }
  ]
}