{
  "hash": "0x25f6cb908d3d613e92b21236306e817d05df7b15d4ff520a46c06d01313b0e5a",
  "parentHash": "0x94e3f77237a57c581b79479b2564f83bfe66df311e0d030e6e1ceb03dc6d83b9",
  "number": 68948,
  "timestamp": 1439296060,
  "nonce": "0x65fc6539fb131ea9",
  "difficulty": 2035959541271,
  "gasLimit": {
    "_hex": "0x2fefd8"
  },
  "gasUsed": {
    "_hex": "0xf9edc"
  },
  "miner": "0xdd2F1e6e498202e86D8f5442Af596580A4f03c2C",
  "extraData": "0x476574682f76312e302e312d38326566323666362f6c696e75782f676f312e34",
  "transactions": [
    {
      "hash": "0xd8bf1dc3497bdde78a98c31b70f5fcc52a8b3398e346faf5135af02c07936b46",
      "blockHash": "0x25f6cb908d3d613e92b21236306e817d05df7b15d4ff520a46c06d01313b0e5a",
      "blockNumber": 68948,
      "transactionIndex": 0,
      "confirmations": null,
      "from": "0x0D4034E02bb759035dBaE78bDe38D2ec9f79Feb1",
      "gasPrice": {
        "_hex": "0xba43b7400"
      },
      "gasLimit": {
        "_hex": "0x15f90"
      },
      "to": "0x793AE8C1b1a160BFc07BFB0d04F85eab1A71F4f2",
      "value": {
        "_hex": "0x0"
      },
      "nonce": 0,
      "data": "0x3ba15036",
      "r": "0xfd834ba8b03810d23f9f8b0ef7e1cb91b535d71972cf161aa48bc8f5edc2e3db",
      "s": "0x2b9ebab651a1b72b32f197dba8ebe41f93d3b3de590b11975b9fe93f064d7e63",
      "v": 27,
      "creates": null,
      "raw": "0xf86980850ba43b740083015f9094793ae8c1b1a160bfc07bfb0d04f85eab1a71f4f280843ba150361ba0fd834ba8b03810d23f9f8b0ef7e1cb91b535d71972cf161aa48bc8f5edc2e3dba02b9ebab651a1b72b32f197dba8ebe41f93d3b3de590b11975b9fe93f064d7e63",
      "networkId": 0,
      "chainId": 0
    },
    {
      "hash": "0x43be1921dbb1211ee8d791b75e72eb4075cf456cc5a4bab693d71d03fa6be7a7",
      "blockHash": "0x25f6cb908d3d613e92b21236306e817d05df7b15d4ff520a46c06d01313b0e5a",
      "blockNumber": 68948,
      "transactionIndex": 1,
      "confirmations": null,
      "from": "0xd352EBaF7D800953741B07638a90d0d01E7f2Fe7",
      "gasPrice": {
        "_hex": "0xba43b7400"
      },
      "gasLimit": {
        "_hex": "0x15f90"
      },
      "to": "0x793AE8C1b1a160BFc07BFB0d04F85eab1A71F4f2",
      "value": {
        "_hex": "0x0"
      },
      "nonce": 0,
      "data": "0x3ba15036",
      "r": "0x7171aa81bb0bb5b9046219263f03dc6eee000a5dd410a057f8e51321caad76b1",
      "s": "0x07f8f759835835e13b98f56595bd71bc730fa9d1abd2cb46220986030f67f363",
      "v": 27,
      "creates": null,
      "raw": "0xf86980850ba43b740083015f9094793ae8c1b1a160bfc07bfb0d04f85eab1a71f4f280843ba150361ba07171aa81bb0bb5b9046219263f03dc6eee000a5dd410a057f8e51321caad76b1a007f8f759835835e13b98f56595bd71bc730fa9d1abd2cb46220986030f67f363",
      "networkId": 0,
      "chainId": 0
    },
    {
      "hash": "0xeead35eda7a0a71aa00c6cc268aa57afdc9a8754157d334ba4fcbb9b27ac76d3",
      "blockHash": "0x25f6cb908d3d613e92b21236306e817d05df7b15d4ff520a46c06d01313b0e5a",
      "blockNumber": 68948,
      "transactionIndex": 2,
      "confirmations": null,
      "from": "0x2b7AC2cD9b501BdC2388E86F23f2D1312c046af3",
      "gasPrice": {
        "_hex": "0xba43b7400"
      },
      "gasLimit": {
        "_hex": "0x15f90"
      },
      "to": "0x793AE8C1b1a160BFc07BFB0d04F85eab1A71F4f2",
      "value": {
        "_hex": "0x0"
      },
      "nonce": 0,
      "data": "0x3ba15036",
      "r": "0x72e74d1f52f0ab14a8745487632b6376638608fdbf7f107b2306ca2fa7855226",
      "s": "0x7e4f2c80eb90fc7907509780d295a8ca9d90bd574f5ca36e50a669d6a8f22737",
      "v": 27,
      "creates": null,
      "raw": "0xf86980850ba43b740083015f9094793ae8c1b1a160bfc07bfb0d04f85eab1a71f4f280843ba150361ba072e74d1f52f0ab14a8745487632b6376638608fdbf7f107b2306ca2fa7855226a07e4f2c80eb90fc7907509780d295a8ca9d90bd574f5ca36e50a669d6a8f22737",
      "networkId": 0,
      "chainId": 0
    },
    {
      "hash": "0xa9d7c3ccac372fd9cd4fdddf36c0ef9fe4c96ac1f80b8c9f1cfff666d4b9242a",
      "blockHash": "0x25f6cb908d3d613e92b21236306e817d05df7b15d4ff520a46c06d01313b0e5a",
      "blockNumber": 68948,
      "transactionIndex": 3,
      "confirmations": null,
      "from": "0x053fe0596ECBd7283D1589BeC2b497BFCfBaa202",
      "gasPrice": {
        "_hex": "0xba43b7400"
      },
      "gasLimit": {
        "_hex": "0x15f90"
      },
      "to": "0x793AE8C1b1a160BFc07BFB0d04F85eab1A71F4f2",
      "value": {
        "_hex": "0x0"
      },
      "nonce": 0,
      "data": "0x3ba15036",
      "r": "0x9da40cc212843b770404f6cdd9d1aa9924410c1b3c9eeee71f30a0937704ee21",
      "s": "0x62e37f11e1ef9b9187aaedbabc2b8e495fc659de4024a2a48cd9bc89c1ec0c58",
      "v": 27,
      "creates": null,
      "raw": "0xf86980850ba43b740083015f9094793ae8c1b1a160bfc07bfb0d04f85eab1a71f4f280843ba150361ba09da40cc212843b770404f6cdd9d1aa9924410c1b3c9eeee71f30a0937704ee21a062e37f11e1ef9b9187aaedbabc2b8e495fc659de4024a2a48cd9bc89c1ec0c58",
      "networkId": 0,
      "chainId": 0
    },
    {
      "hash": "0xd02adfb562c789dded387db61404cac91d265098245134fa86d43de50bd68ae3",
      "blockHash": "0x25f6cb908d3d613e92b21236306e817d05df7b15d4ff520a46c06d01313b0e5a",
      "blockNumber": 68948,
      "transactionIndex": 4,
      "confirmations": null,
      "from": "0x3899A1cdB9b4275d84860c6AB72D09e08DCc589A",
      "gasPrice": {
        "_hex": "0xba43b7400"
      },
      "gasLimit": {
        "_hex": "0x15f90"
      },
      "to": "0x793AE8C1b1a160BFc07BFB0d04F85eab1A71F4f2",
      "value": {
        "_hex": "0x0"
      },
      "nonce": 0,
      "data": "0x3ba15036",
      "r": "0x3843c34a59ae1d0e9ba6ba29e1932903ce3498023731d43eb580c237202ea444",
      "s": "0x116b4804dfd7606e02917764d35e3fa66b1b4ab4c11e063b78610981232753bc",
      "v": 28,
      "creates": null,
      "raw": "0xf86980850ba43b740083015f9094793ae8c1b1a160bfc07bfb0d04f85eab1a71f4f280843ba150361ca03843c34a59ae1d0e9ba6ba29e1932903ce3498023731d43eb580c237202ea444a0116b4804dfd7606e02917764d35e3fa66b1b4ab4c11e063b78610981232753bc",
      "networkId": 0,
      "chainId": 0
    },
    {
      "hash": "0x0f0c7476a329b6d0162481465da45778277932a6ceeca900317ee23d69852a86",
      "blockHash": "0x25f6cb908d3d613e92b21236306e817d05df7b15d4ff520a46c06d01313b0e5a",
      "blockNumber": 68948,
      "transactionIndex": 5,
      "confirmations": null,
      "from": "0xDDFb0A4a63aBD565c7D801662c75cbA520638829",
      "gasPrice": {
        "_hex": "0xba43b7400"
      },
      "gasLimit": {
        "_hex": "0x15f90"
      },
      "to": "0x793AE8C1b1a160BFc07BFB0d04F85eab1A71F4f2",
      "value": {
        "_hex": "0x0"
      },
      "nonce": 0,
      "data": "0x3ba15036",
      "r": "0x70a0e949b1cb26314af289df003f4685d2cd58ce84b9df6ecfdaf6fc3fd11010",
      "s": "0x04f387b6652f1bb93009bf401fd580ec13097b016fb523550e0377cf87f69503",
      "v": 28,
      "creates": null,
      "raw": "0xf86980850ba43b740083015f9094793ae8c1b1a160bfc07bfb0d04f85eab1a71f4f280843ba150361ca070a0e949b1cb26314af289df003f4685d2cd58ce84b9df6ecfdaf6fc3fd11010a004f387b6652f1bb93009bf401fd580ec13097b016fb523550e0377cf87f69503",
      "networkId": 0,
      "chainId": 0
    },
    {
      "hash": "0xa302069f2bc9e32f31d26efddb145d86df8ecfe4b911c46b5ea45d40e2e4c56c",
      "blockHash": "0x25f6cb908d3d613e92b21236306e817d05df7b15d4ff520a46c06d01313b0e5a",
      "blockNumber": 68948,
      "transactionIndex": 6,
      "confirmations": null,
      "from": "0x4a1b224A2AF5F0eE69a738D71fbc718154689d62",
      "gasPrice": {
        "_hex": "0xba43b7400"
      },
      "gasLimit": {
        "_hex": "0x15f90"
      },
      "to": "0x793AE8C1b1a160BFc07BFB0d04F85eab1A71F4f2",
      "value": {
        "_hex": "0x0"
      },
      "nonce": 0,
      "data": "0x3ba15036",
      "r": "0x3f7ecf4e4ad735e35d79a076cd0effc53ae6a0bbc1884ff7b8d9eeb641a3b590",
      "s": "0x03b170eaed9168f97c089def5fc994b5b0c22d5d9b9341725ed58cba63098d88",
      "v": 27,
      "creates": null,
      "raw": "0xf86980850ba43b740083015f9094793ae8c1b1a160bfc07bfb0d04f85eab1a71f4f280843ba150361ba03f7ecf4e4ad735e35d79a076cd0effc53ae6a0bbc1884ff7b8d9eeb641a3b590a003b170eaed9168f97c089def5fc994b5b0c22d5d9b9341725ed58cba63098d88",
      "networkId": 0,
      "chainId": 0
    },
    {
      "hash": "0x05dda24cf3eba0ec0a039949c172dcf16b40c7bdddc3d78a718f5d4f76f8f3a8",
      "blockHash": "0x25f6cb908d3d613e92b21236306e817d05df7b15d4ff520a46c06d01313b0e5a",
      "blockNumber": 68948,
      "transactionIndex": 7,
      "confirmations": null,
      "from": "0xd7cd983a1343848E6B4D7e189F8Fb050F1d440Ac",
      "gasPrice": {
        "_hex": "0xba43b7400"
      },
      "gasLimit": {
        "_hex": "0x15f90"
      },
      "to": "0x793AE8C1b1a160BFc07BFB0d04F85eab1A71F4f2",
      "value": {
        "_hex": "0x0"
      },
      "nonce": 0,
      "data": "0x3ba15036",
      "r": "0xf132589d23dfa7da18b7ebbb6dd0ebbb9bfbeb793faa3fdef48612f4c405167d",
      "s": "0x32bd5506416e361b1138a53235cae74bcc11373ebc7dbf6cea65db6d62015082",
      "v": 27,
      "creates": null,
      "raw": "0xf86980850ba43b740083015f9094793ae8c1b1a160bfc07bfb0d04f85eab1a71f4f280843ba150361ba0f132589d23dfa7da18b7ebbb6dd0ebbb9bfbeb793faa3fdef48612f4c405167da032bd5506416e361b1138a53235cae74bcc11373ebc7dbf6cea65db6d62015082",
      "networkId": 0,
      "chainId": 0
    },
    {
      "hash": "0x698b3aa703f859b8cbb4927afd44dd7eb3a45ce0456da8ed74f0922b4e6d317b",
      "blockHash": "0x25f6cb908d3d613e92b21236306e817d05df7b15d4ff520a46c06d01313b0e5a",
      "blockNumber": 68948,
      "transactionIndex": 8,
      "confirmations": null,
      "from": "0xE76bB0A55DcC3DA4ca385241EAc5718F6bB1D67D",
      "gasPrice": {
        "_hex": "0xba43b7400"
      },
      "gasLimit": {
        "_hex": "0x15f90"
      },
      "to": "0x793AE8C1b1a160BFc07BFB0d04F85eab1A71F4f2",
      "value": {
        "_hex": "0x0"
      },
      "nonce": 0,
      "data": "0x3ba15036",
      "r": "0x668e9a99564e0d0ec0c6750ef39b099b5b5bb5466d0a4af6c610f98678e19428",
      "s": "0x43fbf30db8a56b0f5733ae1446ccd8f90137a585a960d32e3c4e0017ddfccffe",
      "v": 28,
      "creates": null,
      "raw": "0xf86980850ba43b740083015f9094793ae8c1b1a160bfc07bfb0d04f85eab1a71f4f280843ba150361ca0668e9a99564e0d0ec0c6750ef39b099b5b5bb5466d0a4af6c610f98678e19428a043fbf30db8a56b0f5733ae1446ccd8f90137a585a960d32e3c4e0017ddfccffe",
      "networkId": 0,
      "chainId": 0
    },
    {
      "hash": "0x182d37254965ca44ecc1b44af7ae8e302a291fab46d8199a0273ee26537687f5",
      "blockHash": "0x25f6cb908d3d613e92b21236306e817d05df7b15d4ff520a46c06d01313b0e5a",
      "blockNumber": 68948,
      "transactionIndex": 9,
      "confirmations": null,
      "from": "0x4ad723b0Bd1E2f189ec2012D28b9d1d58c744373",
      "gasPrice": {
        "_hex": "0xba43b7400"
      },
      "gasLimit": {
        "_hex": "0x15f90"
      },
      "to": "0x793AE8C1b1a160BFc07BFB0d04F85eab1A71F4f2",
      "value": {
        "_hex": "0x0"
      },
      "nonce": 0,
      "data": "0x3ba15036",
      "r": "0x40ef301e2474fddac486fef012c24f5ee9043c05c0855b10d320c1b74ec233a2",
      "s": "0x3ad9e7235fcdded3e8e22e3c377bc1e789976ad7f911abab358b42ab4fe52145",
      "v": 28,
      "creates": null,
      "raw": "0xf86980850ba43b740083015f9094793ae8c1b1a160bfc07bfb0d04f85eab1a71f4f280843ba150361ca040ef301e2474fddac486fef012c24f5ee9043c05c0855b10d320c1b74ec233a2a03ad9e7235fcdded3e8e22e3c377bc1e789976ad7f911abab358b42ab4fe52145",
      "networkId": 0,
      "chainId": 0
    },
    {
      "hash": "0x26fbfa672add6dd118d1e4e4bd49ab0f048bef0307b33306a361cc384d963ab5",
      "blockHash": "0x25f6cb908d3d613e92b21236306e817d05df7b15d4ff520a46c06d01313b0e5a",
      "blockNumber": 68948,
      "transactionIndex": 10,
      "confirmations": null,
      "from": "0x442EbF322d14521EadBdd1dEe407365230219734",
      "gasPrice": {
        "_hex": "0xba43b7400"
      },
      "gasLimit": {
        "_hex": "0x15f90"
      },
      "to": "0x793AE8C1b1a160BFc07BFB0d04F85eab1A71F4f2",
      "value": {
        "_hex": "0x0"
      },
      "nonce": 0,
      "data": "0x3ba15036",
      "r": "0xe93f57368ec4ac391bcf27cd5a48dc1d4c2031e217fcfb3d72e1ecdcf892db61",
      "s": "0x044e3370fe10fae1b741a60ff4d28aaa16ae27e8db1354d78f924f1a4046f213",
      "v": 27,
      "creates": null,
      "raw": "0xf86980850ba43b740083015f9094793ae8c1b1a160bfc07bfb0d04f85eab1a71f4f280843ba150361ba0e93f57368ec4ac391bcf27cd5a48dc1d4c2031e217fcfb3d72e1ecdcf892db61a0044e3370fe10fae1b741a60ff4d28aaa16ae27e8db1354d78f924f1a4046f213",
      "networkId": 0,
      "chainId": 0
    },
    {
      "hash": "0x7f187ed7dc295f40e1294fbfa8998b51ab59a643f4e0ddbee4173f19a7e0138a",
      "blockHash": "0x25f6cb908d3d613e92b21236306e817d05df7b15d4ff520a46c06d01313b0e5a",
      "blockNumber": 68948,
      "transactionIndex": 11,
      "confirmations": null,
      "from": "0xBf3403210f9802205f426759947a80a9Fda71B1E",
      "gasPrice": {
        "_hex": "0xba43b7400"
      },
      "gasLimit": {
        "_hex": "0x15f90"
      },
      "to": "0x793AE8C1b1a160BFc07BFB0d04F85eab1A71F4f2",
      "value": {
        "_hex": "0x0"
      },
      "nonce": 0,
      "data": "0x3ba15036",
      "r": "0x5ca33b4be376611500bd0cfd471307d063c8106db89e39d9657e5ea11a02ebcc",
      "s": "0x4bf9824e6ce8203bc1c127a3730010367f811c56cc7f7ca8405ac57532f4e5a8",
      "v": 27,
      "creates": null,
      "raw": "0xf86980850ba43b740083015f9094793ae8c1b1a160bfc07bfb0d04f85eab1a71f4f280843ba150361ba05ca33b4be376611500bd0cfd471307d063c8106db89e39d9657e5ea11a02ebcca04bf9824e6ce8203bc1c127a3730010367f811c56cc7f7ca8405ac57532f4e5a8",
      "networkId": 0,
      "chainId": 0
    },
    {
      "hash": "0xfe4712ee6db14458f8b55e87c54b0dfdf8ab0037381552c86ec3684ad627d911",
      "blockHash": "0x25f6cb908d3d613e92b21236306e817d05df7b15d4ff520a46c06d01313b0e5a",
      "blockNumber": 68948,
      "transactionIndex": 12,
      "confirmations": null,
      "from": "0x9c615806a972e71cb467B03FA71C396fd8B1158C",
      "gasPrice": {
        "_hex": "0xba43b7400"
      },
      "gasLimit": {
        "_hex": "0x15f90"
      },
      "to": "0x793AE8C1b1a160BFc07BFB0d04F85eab1A71F4f2",
      "value": {
        "_hex": "0x0"
      },
      "nonce": 0,
      "data": "0x3ba15036",
      "r": "0xa6d927074b4a6922898869e15f0529bc94f0c0834a04d7a8eb6022546ad10648",
      "s": "0x37f12a74425efba9dedbb4567b551e6f925df5037edaeeb453951ebf21370e1b",
      "v": 28,
      "creates": null,
      "raw": "0xf86980850ba43b740083015f9094793ae8c1b1a160bfc07bfb0d04f85eab1a71f4f280843ba150361ca0a6d927074b4a6922898869e15f0529bc94f0c0834a04d7a8eb6022546ad10648a037f12a74425efba9dedbb4567b551e6f925df5037edaeeb453951ebf21370e1b",
      "networkId": 0,
      "chainId": 0
    },
    {
      "hash": "0x16be2c5b0ee34ce5156039261113a14974bcf8d3553d5612dacdcac9d0b43fd0",
      "blockHash": "0x25f6cb908d3d613e92b21236306e817d05df7b15d4ff520a46c06d01313b0e5a",
      "blockNumber": 68948,
      "transactionIndex": 13,
      "confirmations": null,
      "from": "0x74d7e96ae0E11F6537CD6811EfCEF7511e69C9f1",
      "gasPrice": {
        "_hex": "0xba43b7400"
      },
      "gasLimit": {
        "_hex": "0x15f90"
      },
      "to": "0x793AE8C1b1a160BFc07BFB0d04F85eab1A71F4f2",
      "value": {
        "_hex": "0x0"
      },
      "nonce": 0,
      "data": "0x3ba15036",
      "r": "0x45ba56463c56a7dec588c6c81e99e50104698ca5922cd2fec32e7c9e4b414921",
      "s": "0x16eb6c92ed3da08fb0bd6cd67b59d9f44078dfab2921d3ee64d78b3e42dbf873",
      "v": 28,
      "creates": null,
      "raw": "0xf86980850ba43b740083015f9094793ae8c1b1a160bfc07bfb0d04f85eab1a71f4f280843ba150361ca045ba56463c56a7dec588c6c81e99e50104698ca5922cd2fec32e7c9e4b414921a016eb6c92ed3da08fb0bd6cd67b59d9f44078dfab2921d3ee64d78b3e42dbf873",
      "networkId": 0,
      "chainId": 0
    },
    {
      "hash": "0x2936d4d7d34b98f53353333b618380ea6577721ae68d2a8918e07dac334b89c7",
      "blockHash": "0x25f6cb908d3d613e92b21236306e817d05df7b15d4ff520a46c06d01313b0e5a",
      "blockNumber": 68948,
      "transactionIndex": 14,
      "confirmations": null,
      "from": "0x6ac7a0d5305606f01601B140cFFb80c88A52f18e",
      "gasPrice": {
        "_hex": "0xba43b7400"
      },
      "gasLimit": {
        "_hex": "0x15f90"
      },
      "to": "0x793AE8C1b1a160BFc07BFB0d04F85eab1A71F4f2",
      "value": {
        "_hex": "0x0"
      },
      "nonce": 0,
      "data": "0x3ba15036",
      "r": "0x1d08e53fb55f0aaae4c3e303ad620cb424612238f0b9a089a9c396ff5bc038a5",
      "s": "0x79049eb36f402843d04436e6c31f71f521f55c6e94df1a97b59eeb83efd92e65",
      "v": 28,
      "creates": null,
      "raw": "0xf86980850ba43b740083015f9094793ae8c1b1a160bfc07bfb0d04f85eab1a71f4f280843ba150361ca01d08e53fb55f0aaae4c3e303ad620cb424612238f0b9a089a9c396ff5bc038a5a079049eb36f402843d04436e6c31f71f521f55c6e94df1a97b59eeb83efd92e65",
      "networkId": 0,
      "chainId": 0
    },
    {
      "hash": "0xcd0b8de4dea148ad4556bbc04b3fcad66965312a241f16d0c81897b488253480",
      "blockHash": "0x25f6cb908d3d613e92b21236306e817d05df7b15d4ff520a46c06d01313b0e5a",
      "blockNumber": 68948,
      "transactionIndex": 15,
      "confirmations": null,
      "from": "0xd1F105e1859Ea55476CB304f015F997Ed9Ca6bd0",
      "gasPrice": {
        "_hex": "0xba43b7400"
      },
      "gasLimit": {
        "_hex": "0x15f90"
      },
      "to": "0x793AE8C1b1a160BFc07BFB0d04F85eab1A71F4f2",
      "value": {
        "_hex": "0x0"
      },
      "nonce": 0,
      "data": "0x3ba15036",
      "r": "0x222f3e5d3adabd1ad818f0762d274070e5b2263df96a9cd9f8fea8961b934ac1",
      "s": "0x39c44ccd66be790194f699141cf2cb7cee1c0c94ffe8a89df82248b8894b78b0",
      "v": 28,
      "creates": null,
      "raw": "0xf86980850ba43b740083015f9094793ae8c1b1a160bfc07bfb0d04f85eab1a71f4f280843ba150361ca0222f3e5d3adabd1ad818f0762d274070e5b2263df96a9cd9f8fea8961b934ac1a039c44ccd66be790194f699141cf2cb7cee1c0c94ffe8a89df82248b8894b78b0",
      "networkId": 0,
      "chainId": 0
    },
    {
      "hash": "0x547a02e15e9e223036101e140ddcf1076d599ff3aad5a4bc3f107457ba3523ae",
      "blockHash": "0x25f6cb908d3d613e92b21236306e817d05df7b15d4ff520a46c06d01313b0e5a",
      "blockNumber": 68948,
      "transactionIndex": 16,
      "confirmations": null,
      "from": "0x1A3Ce525F241FA23dDe7E8e1EdF13565bFf21FAe",
      "gasPrice": {
        "_hex": "0xba43b7400"
      },
      "gasLimit": {
        "_hex": "0x15f90"
      },
      "to": "0x793AE8C1b1a160BFc07BFB0d04F85eab1A71F4f2",
      "value": {
        "_hex": "0x0"
      },
      "nonce": 0,
      "data": "0x3ba15036",
      "r": "0x13f4fb3f57e53753203552dda4e57203c14929da111c0bdb6df21cbbd1334005",
      "s": "0x468fe6e8799febc92aa2b4e30ff80895badddbebc81911bdf6bec599b25a55b1",
      "v": 27,
      "creates": null,
      "raw": "0xf86980850ba43b740083015f9094793ae8c1b1a160bfc07bfb0d04f85eab1a71f4f280843ba150361ba013f4fb3f57e53753203552dda4e57203c14929da111c0bdb6df21cbbd1334005a0468fe6e8799febc92aa2b4e30ff80895badddbebc81911bdf6bec599b25a55b1",
      "networkId": 0,
      "chainId": 0
    },
    {
      "hash": "0xe7274b2121bb7aef183cdd30dae7d64b9f21e6dc9991c3a1aed79eb72ee65895",
      "blockHash": "0x25f6cb908d3d613e92b21236306e817d05df7b15d4ff520a46c06d01313b0e5a",
      "blockNumber": 68948,
      "transactionIndex": 17,
      "confirmations": null,
      "from": "0x2BFdD4929e414Ae645784d184592AE44CCC0e0a4",
      "gasPrice": {
        "_hex": "0xba43b7400"
      },
      "gasLimit": {
        "_hex": "0x15f90"
      },
      "to": "0x793AE8C1b1a160BFc07BFB0d04F85eab1A71F4f2",
      "value": {
        "_hex": "0x0"
      },
      "nonce": 0,
      "data": "0x3ba15036",
      "r": "0xd72bde462b0b46b7474a623a4659d4762c2a4b8438c7284e6693a6c3ec33c4fa",
      "s": "0x59ab31945c1992db744f5072ed694cff179e8fd4e819eb605a88ac1a975667a7",
      "v": 27,
      "creates": null,
      "raw": "0xf86980850ba43b740083015f9094793ae8c1b1a160bfc07bfb0d04f85eab1a71f4f280843ba150361ba0d72bde462b0b46b7474a623a4659d4762c2a4b8438c7284e6693a6c3ec33c4faa059ab31945c1992db744f5072ed694cff179e8fd4e819eb605a88ac1a975667a7",
      "networkId": 0,
      "chainId": 0
    },
    {
      "hash": "0x786210c3950c13b613d7db1df2ae31a87c74fcf71f25eeab8f42319828e1e977",
      "blockHash": "0x25f6cb908d3d613e92b21236306e817d05df7b15d4ff520a46c06d01313b0e5a",
      "blockNumber": 68948,
      "transactionIndex": 18,
      "confirmations": null,
      "from": "0x5b915a920711fd4f281E098BF4010e3AE55135B8",
      "gasPrice": {
        "_hex": "0xba43b7400"
      },
      "gasLimit": {
        "_hex": "0x15f90"
      },
      "to": "0x793AE8C1b1a160BFc07BFB0d04F85eab1A71F4f2",
      "value": {
        "_hex": "0x0"
      },
      "nonce": 0,
      "data": "0x3ba15036",
      "r": "0xb0ced187b48ed1d528411d63fa03ea10f68ccf74bb4a69069b2c3c9ea49a87b2",
      "s": "0x719ce579cad78437c78c11b2e8e75907e9c88fe8d18048d441ec3df1537d920d",
      "v": 28,
      "creates": null,
      "raw": "0xf86980850ba43b740083015f9094793ae8c1b1a160bfc07bfb0d04f85eab1a71f4f280843ba150361ca0b0ced187b48ed1d528411d63fa03ea10f68ccf74bb4a69069b2c3c9ea49a87b2a0719ce579cad78437c78c11b2e8e75907e9c88fe8d18048d441ec3df1537d920d",
      "networkId": 0,
      "chainId": 0
    },
    {
      "hash": "0xf2521dc17649f9dfc9a85fe33944efa90d0566e92b96d0dc94e45aa2c562f28a",
      "blockHash": "0x25f6cb908d3d613e92b21236306e817d05df7b15d4ff520a46c06d01313b0e5a",
      "blockNumber": 68948,
      "transactionIndex": 19,
      "confirmations": null,
      "from": "0x1387f0408dD08CEF5A4b7f5258Bda0067666b93b",
      "gasPrice": {
        "_hex": "0xba43b7400"
      },
      "gasLimit": {
        "_hex": "0x15f90"
      },
      "to": "0x793AE8C1b1a160BFc07BFB0d04F85eab1A71F4f2",
      "value": {
        "_hex": "0x0"
      },
      "nonce": 0,
      "data": "0x3ba15036",
      "r": "0xeb35189f3a5f0ddd59440cc2d36798c1fc75f623faf3d754d59e2181cebffdb6",
      "s": "0x421f8491628453b146a6286abc27655ee783446c5858e15059cc34a7e0c8a8e7",
      "v": 28,
      "creates": null,
      "raw": "0xf86980850ba43b740083015f9094793ae8c1b1a160bfc07bfb0d04f85eab1a71f4f280843ba150361ca0eb35189f3a5f0ddd59440cc2d36798c1fc75f623faf3d754d59e2181cebffdb6a0421f8491628453b146a6286abc27655ee783446c5858e15059cc34a7e0c8a8e7",
      "networkId": 0,
      "chainId": 0
    },
    {
      "hash": "0x0adf2f24c884639a61d6e1a0cc5550343aab2ec0e8220fe2fcbfab3fea4dd12d",
      "blockHash": "0x25f6cb908d3d613e92b21236306e817d05df7b15d4ff520a46c06d01313b0e5a",
      "blockNumber": 68948,
      "transactionIndex": 20,
      "confirmations": null,
      "from": "0xdcF5c560049f0571C5B5B6e0489BEeF617b74391",
      "gasPrice": {
        "_hex": "0xba43b7400"
      },
      "gasLimit": {
        "_hex": "0x15f90"
      },
      "to": "0x793AE8C1b1a160BFc07BFB0d04F85eab1A71F4f2",
      "value": {
        "_hex": "0x0"
      },
      "nonce": 0,
      "data": "0x3ba15036",
      "r": "0x258a8f5c840197b957ece73973b9b2f40ce7d2121fde19c79c13c3767d6ef447",
      "s": "0x22a64dfbe22be1f1eae3692b29d786d3e43326c04f221a8fcf98a29607fdf2f4",
      "v": 27,
      "creates": null,
      "raw": "0xf86980850ba43b740083015f9094793ae8c1b1a160bfc07bfb0d04f85eab1a71f4f280843ba150361ba0258a8f5c840197b957ece73973b9b2f40ce7d2121fde19c79c13c3767d6ef447a022a64dfbe22be1f1eae3692b29d786d3e43326c04f221a8fcf98a29607fdf2f4",
      "networkId": 0,
      "chainId": 0
    }
  ]
}