{
  "hash": "0xf14d97ce2a84783c49982182fc0d0ada2b9227dc1dc315531b6da8f36b2a7f2f",
  "parentHash": "0xa518e2ebe68e594a5e0b2db84da247411ff9da22374efbe147c8d3b1509cdc90",
  "number": 46879,
  "timestamp": 1438930874,
  "nonce": "0x4c328cd050a103a0",
  "difficulty": 1456732168774,
  "gasLimit": {
    "_hex": "0x818b"
  },
  "gasUsed": {
    "_hex": "0x5208"
  },
  "miner": "0xf8E0CA3Ed80bd541b94BEdCf259e8CF2141A9523",
  "extraData": "0x476574682f76312e302e312f77696e646f77732f676f312e342e32",
  "transactions": [
    {
      "hash": "0xdd46214912ffa3f5648424fcddfe31035a16d29845247299120dc7d9879b68d5",
      "blockHash": "0xf14d97ce2a84783c49982182fc0d0ada2b9227dc1dc315531b6da8f36b2a7f2f",
      "blockNumber": 46879,
      "transactionIndex": 0,
      "confirmations": null,
      "from": "0xC1CdC601f89c0428b31302D187e0dc08ad7D1C57",
      "gasPrice": {
        "_hex": "0xccf4c40a2"
      },
      "gasLimit": {
        "_hex": "0x5209"
      },
      "to": "0xdC49b9dc1AbB93Ebb856547a1C0578D65f4A32DE",
      "value": {
        "_hex": "0x45"
      },
      "nonce": 3,
      "data": "0x",
      "r": "0xc82fb1f4eddce2d45ac622a455447f3fb276ae43229b6e226813ad49674238d8",
      "s": "0x28011a0a44a40470186f7f731090933a8be2810a3353cea2f12a6e2572551f5f",
      "v": 28,
      "creates": null,
      "raw": "0xf86403850ccf4c40a282520994dc49b9dc1abb93ebb856547a1c0578d65f4a32de45801ca0c82fb1f4eddce2d45ac622a455447f3fb276ae43229b6e226813ad49674238d8a028011a0a44a40470186f7f731090933a8be2810a3353cea2f12a6e2572551f5f",
      "networkId": 0,
      "chainId": 0
    }
  ]
}