{
  "hash": "0xdd0368441a466bbb5643a75e09fded8955b29c19ddb8869979965368715f5f87",
  "parentHash": "0xd93cdd82ac99c6f5b22166c200ec9b0dbd3efac455724fb4494963edc053229b",
  "number": 110617,
  "timestamp": 1439976743,
  "nonce": "0x21479669553704e2",
  "difficulty": 4366956709447,
  "gasLimit": {
    "_hex": "0x2fefd8"
  },
  "gasUsed": {
    "_hex": "0x5208"
  },
  "miner": "0x306e6267d94f23a9b37Cb110f20852208Fbbf1aA",
  "extraData": "0x",
  "transactions": [
    {
      "hash": "0xa1a79811922c1c35b3be0ebed01a012a73f96f93f76e7927740ec597c4755ea6",
      "blockHash": "0xdd0368441a466bbb5643a75e09fded8955b29c19ddb8869979965368715f5f87",
      "blockNumber": 110617,
      "transactionIndex": 0,
      "confirmations": null,
      "from": "0x0909648c18A3CE5BAe7A047Ec2F868D24cDdA81D",
      "gasPrice": {
        "_hex": "0xceacf3652"
      },
      "gasLimit": {
        "_hex": "0x15f90"
      },
      "to": "0x9C08586Ec84981a00A3edc1873a1a70fFE05C818",
      "value": {
        "_hex": "0x47c5b57e8b2fe0"
      },
      "nonce": 4,
      "data": "0x",
      "r": "0x8a1440f7d499160a6b23359c418088414dc6b1af9d9c5124812e97f283c1d7d2",
      "s": "0x39a367299896a382844d5f90721d9cce234b314ae32e1a0b76985e6c7714e2d2",
      "v": 27,
      "creates": null,
      "raw": "0xf86c04850ceacf365283015f90949c08586ec84981a00a3edc1873a1a70ffe05c8188747c5b57e8b2fe0801ba08a1440f7d499160a6b23359c418088414dc6b1af9d9c5124812e97f283c1d7d2a039a367299896a382844d5f90721d9cce234b314ae32e1a0b76985e6c7714e2d2",
      "networkId": 0,
      "chainId": 0
    }
  ]
}