{
  "hash": "0x432231c6267f1564d7cbcae5acf96ac168587ee354aea2449460cec4684a6cdb",
  "parentHash": "0x310fe99a3068bdb4dbf5a17abe5466993851b5500f87c0fba08906300da0ad01",
  "number": 70639,
  "timestamp": 1439323199,
  "nonce": "0x0fb279b012dc71ed",
  "difficulty": 2142632427091,
  "gasLimit": {
    "_hex": "0x2fefd8"
  },
  "gasUsed": {
    "_hex": "0x5208"
  },
  "miner": "0x31995C46B15C84523cDEE26f49A681b8237e43F5",
  "extraData": "0x476574682f76312e302e312f77696e646f77732f676f312e342e32",
  "transactions": [
    {
      "hash": "0x619ca8bdaec5fd8cf5169a712d74b636d50077d193303345c3c5d2ef243972ca",
      "blockHash": "0x432231c6267f1564d7cbcae5acf96ac168587ee354aea2449460cec4684a6cdb",
      "blockNumber": 70639,
      "transactionIndex": 0,
      "confirmations": null,
      "from": "0xe408fceaa1b98F3C640f48fcbA39f056066D6308",
      "gasPrice": {
        "_hex": "0xcc2815518"
      },
      "gasLimit": {
        "_hex": "0x61a8"
      },
      "to": "0x50056353D06a71b1f427499419D04F81f5dE4F20",
      "value": {
        "_hex": "0x6c6b935b8bbd400000"
      },
      "nonce": 3,
      "data": "0x",
      "r": "0xf7376afea8a0e7a8627d34a68cb0de129013cff3b90e8ec398cde1c8183a0dee",
      "s": "0x010f9a26b01b4bf9f68a83b5b2a8ba20ba2ebce542e8a8e6ac0f50d6acdd0c5b",
      "v": 28,
      "creates": null,
      "raw": "0xf86d03850cc28155188261a89450056353d06a71b1f427499419d04f81f5de4f20896c6b935b8bbd400000801ca0f7376afea8a0e7a8627d34a68cb0de129013cff3b90e8ec398cde1c8183a0deea0010f9a26b01b4bf9f68a83b5b2a8ba20ba2ebce542e8a8e6ac0f50d6acdd0c5b",
      "networkId": 0,
      "chainId": 0
    }
  ]
}