{
  "hash": "0x4690707afdb2278060d19c722f12b4ca1da0762b12f92a0d5f5869b7726d3e94",
  "parentHash": "0x4d6cff9157a8109c0f1333d3668ba3adf6671317a3553318bc15f86a01ebee23",
  "number": 80434,
  "timestamp": 1439485434,
  "nonce": "0x377fad68c44c5033",
  "difficulty": 2405040520856,
  "gasLimit": {
    "_hex": "0x2fefd8"
  },
  "gasUsed": {
    "_hex": "0x111f8"
  },
  "miner": "0x9746c7e1ef2bd21FF3997fa467593a89cb852BD0",
  "extraData": "0x476574682f76312e302e312f77696e646f77732f676f312e342e32",
  "transactions": [
    {
      "hash": "0x7f76b4ea43730068e65a206888ac0d64e119fb6b2b8741a3c3150ddd12aab15c",
      "blockHash": "0x4690707afdb2278060d19c722f12b4ca1da0762b12f92a0d5f5869b7726d3e94",
      "blockNumber": 80434,
      "transactionIndex": 0,
      "confirmations": null,
      "from": "0x87C5B5874A18B4306DF8a752a6C8cc3E82daFc19",
      "gasPrice": {
        "_hex": "0x101f0c5e002"
      },
      "gasLimit": {
        "_hex": "0x493e0"
      },
      "to": "0xC4c51de1AbF5D60DBd329eC0F999Fd8f021ae9fC",
      "value": {
        "_hex": "0x0"
      },
      "nonce": 206,
      "data": "0xbd66528a6b6b6b0000000000000000000000000000000000000000000000000000000000",
      "r": "0xb3c9e3e4417da8680f9c88dfc7bd622ca2a914d3b0adf578b41d30a8484e9db4",
      "s": "0x7892c3e5d490f12236d768d443a3bceb026d3a6cc7181d34f3c646651cf0ed9c",
      "v": 27,
      "creates": null,
      "raw": "0xf88b81ce860101f0c5e002830493e094c4c51de1abf5d60dbd329ec0f999fd8f021ae9fc80a4bd66528a6b6b6b00000000000000000000000000000000000000000000000000000000001ba0b3c9e3e4417da8680f9c88dfc7bd622ca2a914d3b0adf578b41d30a8484e9db4a07892c3e5d490f12236d768d443a3bceb026d3a6cc7181d34f3c646651cf0ed9c",
      "networkId": 0,
      "chainId": 0
    },
    {
      "hash": "0xa4e33f1c9bc959e7ea6eb0e511cdda74bf56095ee78612532ac93f44d63a4b06",
      "blockHash": "0x4690707afdb2278060d19c722f12b4ca1da0762b12f92a0d5f5869b7726d3e94",
      "blockNumber": 80434,
      "transactionIndex": 1,
      "confirmations": null,
      "from": "0x062b7D49861d2A000578D647BCE532Eb1dCF5EFe",
      "gasPrice": {
        "_hex": "0x278c649d68"
      },
      "gasLimit": {
        "_hex": "0x2dc6c0"
      },
      "to": "0x93D38e72C5281e78f6B364eACaC6fa907EcBa164",
      "value": {
        "_hex": "0x0"
      },
      "nonce": 0,
      "data": "0x56fbf54f0000000000000000000000000000000000000000000000000000000000000064",
      "r": "0x7d19801e299dd70ed42ef8088f06c4f8010f0d315ccabd9c6bebde750e8bd5e0",
      "s": "0x2f9e38911732d8e67e01a68d7f73fdca924e4995a59f399085ec31a91a001686",
      "v": 28,
      "creates": null,
      "raw": "0xf8898085278c649d68832dc6c09493d38e72c5281e78f6b364eacac6fa907ecba16480a456fbf54f00000000000000000000000000000000000000000000000000000000000000641ca07d19801e299dd70ed42ef8088f06c4f8010f0d315ccabd9c6bebde750e8bd5e0a02f9e38911732d8e67e01a68d7f73fdca924e4995a59f399085ec31a91a001686",
      "networkId": 0,
      "chainId": 0
    }
  ]
}