{
  "hash": "0x8a2019cd997a5d025c14525319d47d3dd911951661fc2e72f6456c652e7bc554",
  "parentHash": "0xb83c7d641a023f229d863d71351cd1d5ed2fe144cb518d29735d01275ad0bbd2",
  "number": 117090,
  "timestamp": 1440103381,
  "nonce": "0x3d638969adee2209",
  "difficulty": 4293839997959,
  "gasLimit": {
    "_hex": "0x2fefd8"
  },
  "gasUsed": {
    "_hex": "0x5208"
  },
  "miner": "0x790b8a3cE86E707ED0eD32bF89B3269692a23CC1",
  "extraData": "0xd783010002844765746887676f312e342e32856c696e7578",
  "transactions": [
    {
      "hash": "0x3261b713702bd85008511fc41d9d2de3830d7feffabbe3bc52fc667c59de2c41",
      "blockHash": "0x8a2019cd997a5d025c14525319d47d3dd911951661fc2e72f6456c652e7bc554",
      "blockNumber": 117090,
      "transactionIndex": 0,
      "confirmations": null,
      "from": "0x007f7f58D3eb5b7510A301eCC749FC1fCDDBE14D",
      "gasPrice": {
        "_hex": "0xba43b7400"
      },
      "gasLimit": {
        "_hex": "0x15f90"
      },
      "to": "0xb1abce2918E21ddb93AA452731a12672A3d9F75a",
      "value": {
        "_hex": "0x4563918244f40000"
      },
      "nonce": 315,
      "data": "0x",
      "r": "0x860ca295c014590520ef84870dee5bc7a4e4bfa09210b4df935e67f0977e6fef",
      "s": "0x656b408b3abc1d9bc6f4e733051fe86a6afd945348eb426a0b2bcc321db7b7de",
      "v": 27,
      "creates": null,
      "raw": "0xf86f82013b850ba43b740083015f9094b1abce2918e21ddb93aa452731a12672a3d9f75a884563918244f40000801ba0860ca295c014590520ef84870dee5bc7a4e4bfa09210b4df935e67f0977e6fefa0656b408b3abc1d9bc6f4e733051fe86a6afd945348eb426a0b2bcc321db7b7de",
      "networkId": 0,
      "chainId": 0
    }
  ]
}