{
  "hash": "0x2cfbf05d609d2256ea7fcdee2fbde2d36a98219e2eec5b36063074e2e5048f9c",
  "parentHash": "0xfc1886ac0b054c18b4f86c69ca21347d936c248c1ba5a51dcbee9491eb0c3c88",
  "number": 61747,
  "timestamp": 1439177519,
  "nonce": "0x7a050617f675daa9",
  "difficulty": 1733607584962,
  "gasLimit": {
    "_hex": "0x2fefd8"
  },
  "gasUsed": {
    "_hex": "0x110de"
  },
  "miner": "0xbb7B8287f3F0a933474a79eAe42CBCa977791171",
  "extraData": "0x476574682f4c5649562f76312e302e312f6c696e75782f676f312e342e32",
  "transactions": [
    {
      "hash": "0x3aa795e5046309150c29cd8f604cc6d4dac5907e022fa3af82fb87c2fec8c5db",
      "blockHash": "0x2cfbf05d609d2256ea7fcdee2fbde2d36a98219e2eec5b36063074e2e5048f9c",
      "blockNumber": 61747,
      "transactionIndex": 0,
      "confirmations": null,
      "from": "0x1308A2e95c0160B90803ddCA9B9a5bb55E416d79",
      "gasPrice": {
        "_hex": "0xe8d4a51000"
      },
      "gasLimit": {
        "_hex": "0x15f90"
      },
      "to": "0x15e1C47974Cff16E4F82aE97a444EA7BA3cF1a1E",
      "value": {
        "_hex": "0x1cc0c755d20330000"
      },
      "nonce": 99,
      "data": "0x",
      "r": "0xd6c2134ad145aeb111f6a093b9a1501675e81e6702daf918f7c1a41ece035d5e",
      "s": "0x7f917b82110d69a924c25acf6e4a2916f030b31d2fd5b30e485170eaab8d05bb",
      "v": 28,
      "creates": null,
      "raw": "0xf86e6385e8d4a5100083015f909415e1c47974cff16e4f82ae97a444ea7ba3cf1a1e8901cc0c755d20330000801ca0d6c2134ad145aeb111f6a093b9a1501675e81e6702daf918f7c1a41ece035d5ea07f917b82110d69a924c25acf6e4a2916f030b31d2fd5b30e485170eaab8d05bb",
      "networkId": 0,
      "chainId": 0
    },
    {
      "hash": "0x07aea1eedd181e059ffb77836257e17e126d0cd942af144638c0f575f4972302",
      "blockHash": "0x2cfbf05d609d2256ea7fcdee2fbde2d36a98219e2eec5b36063074e2e5048f9c",
      "blockNumber": 61747,
      "transactionIndex": 1,
      "confirmations": null,
      "from": "0x2B15C5211bdA6A867c582080536f6c61766aA5Af",
      "gasPrice": {
        "_hex": "0xd3dd573f2"
      },
      "gasLimit": {
        "_hex": "0x15f90"
      },
      "to": "0xC7d3E431Be6222543364408a94C12C0D089Be305",
      "value": {
        "_hex": "0x0"
      },
      "nonce": 0,
      "data": "0x3ba15036",
      "r": "0x341d291e5c5e406ca0f7eb90eb695e955b0709981625db31ca18e6d26952e454",
      "s": "0x1980bee8495b392e6e2e15d985cdf7bc34bef563bfe4e06a6a94d8a77c63ed75",
      "v": 27,
      "creates": null,
      "raw": "0xf86980850d3dd573f283015f9094c7d3e431be6222543364408a94c12c0d089be30580843ba150361ba0341d291e5c5e406ca0f7eb90eb695e955b0709981625db31ca18e6d26952e454a01980bee8495b392e6e2e15d985cdf7bc34bef563bfe4e06a6a94d8a77c63ed75",
      "networkId": 0,
      "chainId": 0
    }
  ]
}