{
  "hash": "0x1de57bdc722595c21a53898ab5eb710eff51e11a91905c2b61db86562afc5277",
  "parentHash": "0x191bfc26337524b6fe83d7ceb89001e8bc05fd0c527da74302f8d0e3ec61520d",
  "number": 95196,
  "timestamp": 1439720418,
  "nonce": "0xbf6eac2fed05cad6",
  "difficulty": 3534337127734,
  "gasLimit": {
    "_hex": "0x2fefd8"
  },
  "gasUsed": {
    "_hex": "0x5208"
  },
  "miner": "0xd70c667add50d3d9989Ef58A81a698c09f415Bff",
  "extraData": "0x",
  "transactions": [
    {
      "hash": "0x3b31ca1c082d0fcef113dd5fc3edbe439b72ae4b0c8ac17b00a71db9e685def5",
      "blockHash": "0x1de57bdc722595c21a53898ab5eb710eff51e11a91905c2b61db86562afc5277",
      "blockNumber": 95196,
      "transactionIndex": 0,
      "confirmations": null,
      "from": "0x89Ea4C778D3f3D6BE70883BB9995D41Bd4c453Ab",
      "gasPrice": {
        "_hex": "0xd38da726e"
      },
      "gasLimit": {
        "_hex": "0x5208"
      },
      "to": "0x32Be343B94f860124dC4fEe278FDCBD38C102D88",
      "value": {
        "_hex": "0x377e9e2e1a63a000"
      },
      "nonce": 3,
      "data": "0x",
      "r": "0x1ce8cd7f9787b5ff5e5a6ff902b5b3ad7c3b2bdee2bdda4a19098d17e149e8c2",
      "s": "0x4b0ac7775bd679614e11c0fa263b2d8457e828d732c56b7905ee248ef2040569",
      "v": 28,
      "creates": null,
      "raw": "0xf86c03850d38da726e8252089432be343b94f860124dc4fee278fdcbd38c102d8888377e9e2e1a63a000801ca01ce8cd7f9787b5ff5e5a6ff902b5b3ad7c3b2bdee2bdda4a19098d17e149e8c2a04b0ac7775bd679614e11c0fa263b2d8457e828d732c56b7905ee248ef2040569",
      "networkId": 0,
      "chainId": 0
    }
  ]
}