{
  "hash": "0x83ed45312417cb580ab6356f23a05009b47866a7123a56b4b47b990debd221ae",
  "parentHash": "0x5d81a9a091d854aed2f6fd9c3592426e07f180bce65f84a6686eed9805d54bbe",
  "number": 73190,
  "timestamp": 1439364623,
  "nonce": "0x940486da147d7929",
  "difficulty": 2219707899267,
  "gasLimit": {
    "_hex": "0x2fefd8"
  },
  "gasUsed": {
    "_hex": "0x5208"
  },
  "miner": "0xfABFCDb9aD54126a8829d5aB6357F608C6B005d0",
  "extraData": "0x476574682f76312e302e312f77696e646f77732f676f312e342e32",
  "transactions": [
    {
      "hash": "0x33830088bbae3670270a40c50aa2c52f68a972f0d77afcde2623c44424f36ec4",
      "blockHash": "0x83ed45312417cb580ab6356f23a05009b47866a7123a56b4b47b990debd221ae",
      "blockNumber": 73190,
      "transactionIndex": 0,
      "confirmations": null,
      "from": "0xb9b3Fb6f39Aa2067ee6E7130601bd8aCB235735A",
      "gasPrice": {
        "_hex": "0xd2b11f597"
      },
      "gasLimit": {
        "_hex": "0x15f90"
      },
      "to": "0xd50EC384FEdb1033ad98072b30a5315f71cE5Bbb",
      "value": {
        "_hex": "0x38d7ea4c68000"
      },
      "nonce": 1,
      "data": "0x",
      "r": "0xcbd12e3a86748f672b08d2838de3dfda841aad0a308710e8161ce757c3dbad48",
      "s": "0x128facb5b654b295a52e842500615ba221346d877bb3adcffe6f6096512ebbbc",
      "v": 27,
      "creates": null,
      "raw": "0xf86c01850d2b11f59783015f9094d50ec384fedb1033ad98072b30a5315f71ce5bbb87038d7ea4c68000801ba0cbd12e3a86748f672b08d2838de3dfda841aad0a308710e8161ce757c3dbad48a0128facb5b654b295a52e842500615ba221346d877bb3adcffe6f6096512ebbbc",
      "networkId": 0,
      "chainId": 0
    }
  ]
}