{
  "hash": "0x84747dce64f89946d64bc08745debafdd5af2f630ea0255cd3f29420622ceabb",
  "parentHash": "0x911fa0ec3024a529912dadd2cd03f4a43ca6686515030b8f2497062fabfa9c90",
  "number": 107176,
  "timestamp": 1439917580,
  "nonce": "0xb120d285177e7f8e",
  "difficulty": 4448393270821,
  "gasLimit": {
    "_hex": "0x2fefd8"
  },
  "gasUsed": {
    "_hex": "0x5208"
  },
  "miner": "0xe64D681b0eBCa2997D5f35e72EbC7777973299D7",
  "extraData": "0x",
  "transactions": [
    {
      "hash": "0x563899a1a9e10f7998319662835f772fce940b4c4d774fadbe9c9b1c891e1683",
      "blockHash": "0x84747dce64f89946d64bc08745debafdd5af2f630ea0255cd3f29420622ceabb",
      "blockNumber": 107176,
      "transactionIndex": 0,
      "confirmations": null,
      "from": "0xDe67A361d7cfe914C7A67445ade94Df2918919aB",
      "gasPrice": {
        "_hex": "0xe0c354f37"
      },
      "gasLimit": {
        "_hex": "0x15f90"
      },
      "to": "0xf652cE4D07f4b2f4Fd6F582F9e1f22a868AD60dA",
      "value": {
        "_hex": "0x16e5fa4207650000"
      },
      "nonce": 2,
      "data": "0x",
      "r": "0x25bdc08c392ac13536eff9e0f32b12ae026703045c2b8dcbe09fc02257854f41",
      "s": "0x389b3fe239418b9f71113718e64ca3556144e6d190f933886fb5362a3ddc3dab",
      "v": 27,
      "creates": null,
      "raw": "0xf86d02850e0c354f3783015f9094f652ce4d07f4b2f4fd6f582f9e1f22a868ad60da8816e5fa4207650000801ba025bdc08c392ac13536eff9e0f32b12ae026703045c2b8dcbe09fc02257854f41a0389b3fe239418b9f71113718e64ca3556144e6d190f933886fb5362a3ddc3dab",
      "networkId": 0,
      "chainId": 0
    }
  ]
}