{
  "hash": "0x6d0111f379bc098ad963267d192492910a44b82431b63689ab98f8130e04410d",
  "parentHash": "0xdfa4d84c253e8cad96909c446f1c21195703d3727e989304ab38eafb4379f8dd",
  "number": 108179,
  "timestamp": 1439935636,
  "nonce": "0x34c85ee527abc181",
  "difficulty": 4368226072500,
  "gasLimit": {
    "_hex": "0x2fefd8"
  },
  "gasUsed": {
    "_hex": "0x5208"
  },
  "miner": "0xfC97c2C87E3Cc03BeB5fA2fACaa10bbd0D0dA1AF",
  "extraData": "0x476574682f76312e302e312d38326566323666362f6c696e75782f676f312e34",
  "transactions": [
    {
      "hash": "0xf78308a42c98d3c094e92939ca9f1ae77936675fc82935a3771f2095c1cee00b",
      "blockHash": "0x6d0111f379bc098ad963267d192492910a44b82431b63689ab98f8130e04410d",
      "blockNumber": 108179,
      "transactionIndex": 0,
      "confirmations": null,
      "from": "0xBBDa93a81B882774e1c9b5e3F933Fa35DaC8bc88",
      "gasPrice": {
        "_hex": "0xda7cedb53"
      },
      "gasLimit": {
        "_hex": "0x5208"
      },
      "to": "0x32Be343B94f860124dC4fEe278FDCBD38C102D88",
      "value": {
        "_hex": "0x6ebfb2bf6f52c00"
      },
      "nonce": 10,
      "data": "0x",
      "r": "0xef8e33658dc15fe32ae8cde6905ceebeeb4305f785f588214e78949942fe5449",
      "s": "0x59e12049a1801335ad0b95593d4536aa57cc37e4a5d467d942a8c6c98a2f1572",
      "v": 27,
      "creates": null,
      "raw": "0xf86c0a850da7cedb538252089432be343b94f860124dc4fee278fdcbd38c102d888806ebfb2bf6f52c00801ba0ef8e33658dc15fe32ae8cde6905ceebeeb4305f785f588214e78949942fe5449a059e12049a1801335ad0b95593d4536aa57cc37e4a5d467d942a8c6c98a2f1572",
      "networkId": 0,
      "chainId": 0
    }
  ]
}