{
  "hash": "0xa5ae3a566efd141ef2ab4f5743bf7c1ebdcc9958cc5e7c73957adb8210177c62",
  "parentHash": "0x030b6958c736a22b10eb936a8e643a8115e5e025dec0f125381d01a483b66772",
  "number": 60508,
  "timestamp": 1439156834,
  "nonce": "0x1e75ee81ccafc1ab",
  "difficulty": 1743201457927,
  "gasLimit": {
    "_hex": "0x2fefd8"
  },
  "gasUsed": {
    "_hex": "0xa410"
  },
  "miner": "0xA21Ba94e45f0E168dA824fC67aC9cb5Cb577a8aF",
  "extraData": "0x",
  "transactions": [
    {
      "hash": "0x742cd1a6ce8f2597e66cc1dae9b86319a1f11cdc9d4927ca719716c7dfe49853",
      "blockHash": "0xa5ae3a566efd141ef2ab4f5743bf7c1ebdcc9958cc5e7c73957adb8210177c62",
      "blockNumber": 60508,
      "transactionIndex": 0,
      "confirmations": null,
      "from": "0x42E6723A0c884E922240e56D7B618BeC96F35800",
      "gasPrice": {
        "_hex": "0x9184e72a000"
      },
      "gasLimit": {
        "_hex": "0x5208"
      },
      "to": "0x640Eb8074d09975F11D756985e4fe0863e52C393",
      "value": {
        "_hex": "0x8ac7230489e80000"
      },
      "nonce": 0,
      "data": "0x",
      "r": "0x4bb175cb382d3bde18b2652aeab488ccc1837ef8e27c70d02744f3df7851b523",
      "s": "0x7db58f4d2637aede20a32d0e591a6593d8b1b8d6c9c323c2e477c3dfa82e4a01",
      "v": 28,
      "creates": null,
      "raw": "0xf86d808609184e72a00082520894640eb8074d09975f11d756985e4fe0863e52c393888ac7230489e80000801ca04bb175cb382d3bde18b2652aeab488ccc1837ef8e27c70d02744f3df7851b523a07db58f4d2637aede20a32d0e591a6593d8b1b8d6c9c323c2e477c3dfa82e4a01",
      "networkId": 0,
      "chainId": 0
    },
    {
      "hash": "0xd67a973ef820987663cc54fb9e9dda63e23bc2dd562eed2beea4c722f7001dc2",
      "blockHash": "0xa5ae3a566efd141ef2ab4f5743bf7c1ebdcc9958cc5e7c73957adb8210177c62",
      "blockNumber": 60508,
      "transactionIndex": 1,
      "confirmations": null,
      "from": "0xDf5a6962905AE4E93677Aa75F1Cb40f895f390Db",
      "gasPrice": {
        "_hex": "0xd2be90793"
      },
      "gasLimit": {
        "_hex": "0x5208"
      },
      "to": "0x32Be343B94f860124dC4fEe278FDCBD38C102D88",
      "value": {
        "_hex": "0x677c9c6dbb36d40000"
      },
      "nonce": 0,
      "data": "0x",
      "r": "0xe745319a76859858adc794dfa732c35e3f34bc326e366cf49ed732da9ba10774",
      "s": "0x3e0c7a00e3277efff9c3968911d4640440fe4149c749ae8a0aa746603217f564",
      "v": 28,
      "creates": null,
      "raw": "0xf86d80850d2be907938252089432be343b94f860124dc4fee278fdcbd38c102d8889677c9c6dbb36d40000801ca0e745319a76859858adc794dfa732c35e3f34bc326e366cf49ed732da9ba10774a03e0c7a00e3277efff9c3968911d4640440fe4149c749ae8a0aa746603217f564",
      "networkId": 0,
      "chainId": 0
    }
  ]
}