{
  "hash": "0x25bc956aa506fd7c3601b78fc1c0f633fe8a10dad55e2aa03b6661b1751bfb24",
  "parentHash": "0x8426672cb7e710a394f3dd41350cc6568cc5a09bc65314e1647e690082897bc6",
  "number": 69013,
  "timestamp": 1439297150,
  "nonce": "0xb4ab5113ebe9f351",
  "difficulty": 2034949894908,
  "gasLimit": {
    "_hex": "0x2fefd8"
  },
  "gasUsed": {
    "_hex": "0x4ce78"
  },
  "miner": "0x88D74a59454F6cF3B51ef6b9136AFb6b9D405A88",
  "extraData": "0x476574682f76312e302e312d37666266393930632f6c696e75782f676f312e34",
  "transactions": [
    {
      "hash": "0x9386228b64f93a8c350184952f2988842e0d1cfeea99bedb091b2601adcd3031",
      "blockHash": "0x25bc956aa506fd7c3601b78fc1c0f633fe8a10dad55e2aa03b6661b1751bfb24",
      "blockNumber": 69013,
      "transactionIndex": 0,
      "confirmations": null,
      "from": "0xa9E0860818586ce969d91e6991138D1D98f1F973",
      "gasPrice": {
        "_hex": "0xba43b7400"
      },
      "gasLimit": {
        "_hex": "0x5208"
      },
      "to": "0xE0D3e770686bc2FCc727837d5A20d59892E004AE",
      "value": {
        "_hex": "0x191fec7dbc46000"
      },
      "nonce": 1,
      "data": "0x",
      "r": "0x5b7e1c9da2afbcd4713468f21fcbc7e40e67b58f7186086c8c6e9d04553c7984",
      "s": "0x7cc55bfea0fabe435f902f237af46a0bf658b1c6efa8012c5d843fdb131a942b",
      "v": 28,
      "creates": null,
      "raw": "0xf86c01850ba43b740082520894e0d3e770686bc2fcc727837d5a20d59892e004ae880191fec7dbc46000801ca05b7e1c9da2afbcd4713468f21fcbc7e40e67b58f7186086c8c6e9d04553c7984a07cc55bfea0fabe435f902f237af46a0bf658b1c6efa8012c5d843fdb131a942b",
      "networkId": 0,
      "chainId": 0
    },
    {
      "hash": "0xab9592f4504ccebb21b50f90966282d4c0e8a34eef342deef24edaa6edc32c42",
      "blockHash": "0x25bc956aa506fd7c3601b78fc1c0f633fe8a10dad55e2aa03b6661b1751bfb24",
      "blockNumber": 69013,
      "transactionIndex": 1,
      "confirmations": null,
      "from": "0x05dc41d1dce4E2ada0252E947139468BC4A5d9F2",
      "gasPrice": {
        "_hex": "0xba43b7400"
      },
      "gasLimit": {
        "_hex": "0x5208"
      },
      "to": "0xb6267ACb1Aa81566c95e663c874ca4d7Efac492a",
      "value": {
        "_hex": "0x191fec7dbc46000"
      },
      "nonce": 1,
      "data": "0x",
      "r": "0x28fd245f389c2270a70a61bca5bb4f2fd7a797a17385be33b5f3ab7eb5d9ac61",
      "s": "0x22a90bef977cf3011a5054db54933a8e63bd87c6307a410242093056f449796c",
      "v": 28,
      "creates": null,
      "raw": "0xf86c01850ba43b740082520894b6267acb1aa81566c95e663c874ca4d7efac492a880191fec7dbc46000801ca028fd245f389c2270a70a61bca5bb4f2fd7a797a17385be33b5f3ab7eb5d9ac61a022a90bef977cf3011a5054db54933a8e63bd87c6307a410242093056f449796c",
      "networkId": 0,
      "chainId": 0
    },
    {
      "hash": "0xbafc0105a89fc09daaba90df325e2a541fcb669985f549eb29ea7835dc053649",
      "blockHash": "0x25bc956aa506fd7c3601b78fc1c0f633fe8a10dad55e2aa03b6661b1751bfb24",
      "blockNumber": 69013,
      "transactionIndex": 2,
      "confirmations": null,
      "from": "0x6AC7D1F13B393Bf1ddcFEB93658c8D03DFeE110f",
      "gasPrice": {
        "_hex": "0xba43b7400"
      },
      "gasLimit": {
        "_hex": "0x5208"
      },
      "to": "0x0892593Ac75ce6E8E04B2748aDC2b20Ee3fFF7a7",
      "value": {
        "_hex": "0x191fec7dbc46000"
      },
      "nonce": 1,
      "data": "0x",
      "r": "0x8205c6d8044eb3c188dabd3ea166f394a39219d149af399b003742e848acd3a0",
      "s": "0x0427d553f2dc10bcfbd3e711573870bd9331716ca60b39f370724556b327864a",
      "v": 28,
      "creates": null,
      "raw": "0xf86c01850ba43b7400825208940892593ac75ce6e8e04b2748adc2b20ee3fff7a7880191fec7dbc46000801ca08205c6d8044eb3c188dabd3ea166f394a39219d149af399b003742e848acd3a0a00427d553f2dc10bcfbd3e711573870bd9331716ca60b39f370724556b327864a",
      "networkId": 0,
      "chainId": 0
    },
    {
      "hash": "0x1dfdbf0de84097c88ee86c497a806ab7cc75e8e661b1422dfa312a426b0b7fd8",
      "blockHash": "0x25bc956aa506fd7c3601b78fc1c0f633fe8a10dad55e2aa03b6661b1751bfb24",
      "blockNumber": 69013,
      "transactionIndex": 3,
      "confirmations": null,
      "from": "0xFDBbC8B1B9C230369A3E11dC2d2d6a3Eed7adEBA",
      "gasPrice": {
        "_hex": "0xba43b7400"
      },
      "gasLimit": {
        "_hex": "0x5208"
      },
      "to": "0x9De8eca2d37437ef9F7B762b89e27302fB61Efda",
      "value": {
        "_hex": "0x191fec7dbc46000"
      },
      "nonce": 1,
      "data": "0x",
      "r": "0xad8d3a24ab785f9d131af9b8024e8c1d89a7214ae56f42573d2b10e34710054c",
      "s": "0x6c0e6d4b4070e990e3e446cc126a9cf603322cb7e0b032ed10209c2780469f4f",
      "v": 28,
      "creates": null,
      "raw": "0xf86c01850ba43b7400825208949de8eca2d37437ef9f7b762b89e27302fb61efda880191fec7dbc46000801ca0ad8d3a24ab785f9d131af9b8024e8c1d89a7214ae56f42573d2b10e34710054ca06c0e6d4b4070e990e3e446cc126a9cf603322cb7e0b032ed10209c2780469f4f",
      "networkId": 0,
      "chainId": 0
    },
    {
      "hash": "0xb60f4f46e63e7a1d15bbb73d31b6db5b0d8ab258a091e4c19bb6109ba6566ee2",
      "blockHash": "0x25bc956aa506fd7c3601b78fc1c0f633fe8a10dad55e2aa03b6661b1751bfb24",
      "blockNumber": 69013,
      "transactionIndex": 4,
      "confirmations": null,
      "from": "0xa73c8b8fCaFB17b4cC8cfcC584d82913e33adf1E",
      "gasPrice": {
        "_hex": "0xba43b7400"
      },
      "gasLimit": {
        "_hex": "0x5208"
      },
      "to": "0x07f60A5E6090E4EA2c7b9f0EeF580e9Bc60920A7",
      "value": {
        "_hex": "0x191fec7dbc46000"
      },
      "nonce": 1,
      "data": "0x",
      "r": "0x230ba2aeb612e5a901cb3d00735e94577d51e12e091809d5ac53def5b4463ce1",
      "s": "0x05713a62b5e8f5135f355490852772f5528dffe24eef0fa504e81f637f2911b2",
      "v": 28,
      "creates": null,
      "raw": "0xf86c01850ba43b74008252089407f60a5e6090e4ea2c7b9f0eef580e9bc60920a7880191fec7dbc46000801ca0230ba2aeb612e5a901cb3d00735e94577d51e12e091809d5ac53def5b4463ce1a005713a62b5e8f5135f355490852772f5528dffe24eef0fa504e81f637f2911b2",
      "networkId": 0,
      "chainId": 0
    },
    {
      "hash": "0x7866083e0015e67b96601e79a09e64dd1339885bad8892b9fe63c49df7d57af6",
      "blockHash": "0x25bc956aa506fd7c3601b78fc1c0f633fe8a10dad55e2aa03b6661b1751bfb24",
      "blockNumber": 69013,
      "transactionIndex": 5,
      "confirmations": null,
      "from": "0xbA2290eF0232D34d38668cCE7F9fB72d3477260B",
      "gasPrice": {
        "_hex": "0xba43b7400"
      },
      "gasLimit": {
        "_hex": "0x5208"
      },
      "to": "0xEcA50F9F6A4BFfb86d95b7C0AFFeed70b54af734",
      "value": {
        "_hex": "0x191fec7dbc46000"
      },
      "nonce": 1,
      "data": "0x",
      "r": "0x356263baa7fd121718c3120ee6d3efe014805c1e6a8e8f8e37b582c00f5936d4",
      "s": "0x3de37ac586848d19c09e3092c1eb0469d9319c974c421a6fbec958bba878fe59",
      "v": 28,
      "creates": null,
      "raw": "0xf86c01850ba43b740082520894eca50f9f6a4bffb86d95b7c0affeed70b54af734880191fec7dbc46000801ca0356263baa7fd121718c3120ee6d3efe014805c1e6a8e8f8e37b582c00f5936d4a03de37ac586848d19c09e3092c1eb0469d9319c974c421a6fbec958bba878fe59",
      "networkId": 0,
      "chainId": 0
    },
    {
      "hash": "0x193760222a934cc2d0978e063c0f715429355d587387b5d04d48e8f0e202ac70",
      "blockHash": "0x25bc956aa506fd7c3601b78fc1c0f633fe8a10dad55e2aa03b6661b1751bfb24",
      "blockNumber": 69013,
      "transactionIndex": 6,
      "confirmations": null,
      "from": "0xAcC31d0F91c315215d5581a86BC3fd919bA81881",
      "gasPrice": {
        "_hex": "0xba43b7400"
      },
      "gasLimit": {
        "_hex": "0x5208"
      },
      "to": "0x8Bf1d6f6DD25bd727666b1fC615266e16A067a4E",
      "value": {
        "_hex": "0x191fec7dbc46000"
      },
      "nonce": 1,
      "data": "0x",
      "r": "0x6b5baeba856271f77db334fb77cdd73d6cb2b90f1bd1f0eb06620c2aca375ed5",
      "s": "0x42bbb97c191ec7652ee6802dc0335d92d773a00011ce335103348ba0b2285cd3",
      "v": 28,
      "creates": null,
      "raw": "0xf86c01850ba43b7400825208948bf1d6f6dd25bd727666b1fc615266e16a067a4e880191fec7dbc46000801ca06b5baeba856271f77db334fb77cdd73d6cb2b90f1bd1f0eb06620c2aca375ed5a042bbb97c191ec7652ee6802dc0335d92d773a00011ce335103348ba0b2285cd3",
      "networkId": 0,
      "chainId": 0
    },
    {
      "hash": "0x8143986441379dfb9567bfe59a420110ae3004388f02dfe9fd47aaacb6c37ed6",
      "blockHash": "0x25bc956aa506fd7c3601b78fc1c0f633fe8a10dad55e2aa03b6661b1751bfb24",
      "blockNumber": 69013,
      "transactionIndex": 7,
      "confirmations": null,
      "from": "0x9A400f9333d5d52ff1201e6779bA2Fa5Dec907d7",
      "gasPrice": {
        "_hex": "0xba43b7400"
      },
      "gasLimit": {
        "_hex": "0x5208"
      },
      "to": "0xAbbFe34FcD2F66FcA82A768DFf1d3A717ed9d8CB",
      "value": {
        "_hex": "0x191fec7dbc46000"
      },
      "nonce": 1,
      "data": "0x",
      "r": "0x63aa25fe7f7d06de88e62f762dba04dc9ae2bdc4d1f71f556395d1491cae3f6f",
      "s": "0x185b9277e59e128010e354f8214bfbed7432c55d8e0db4cde71539aec0c3527e",
      "v": 28,
      "creates": null,
      "raw": "0xf86c01850ba43b740082520894abbfe34fcd2f66fca82a768dff1d3a717ed9d8cb880191fec7dbc46000801ca063aa25fe7f7d06de88e62f762dba04dc9ae2bdc4d1f71f556395d1491cae3f6fa0185b9277e59e128010e354f8214bfbed7432c55d8e0db4cde71539aec0c3527e",
      "networkId": 0,
      "chainId": 0
    },
    {
      "hash": "0xeadbeb32c53a8448a02003d344225c96886280ed144a6b74d1fe7c85c1343a94",
      "blockHash": "0x25bc956aa506fd7c3601b78fc1c0f633fe8a10dad55e2aa03b6661b1751bfb24",
      "blockNumber": 69013,
      "transactionIndex": 8,
      "confirmations": null,
      "from": "0x18852D40E029FA9dbA50Ff571d950AFFab8be7Cd",
      "gasPrice": {
        "_hex": "0xba43b7400"
      },
      "gasLimit": {
        "_hex": "0x5208"
      },
      "to": "0xB5d7627B1161e85f9D081A4681D4d3159De3434a",
      "value": {
        "_hex": "0x191fec7dbc46000"
      },
      "nonce": 1,
      "data": "0x",
      "r": "0x61ec8258e84bba54ba54f61827e1f3f20b1efc80294cf5060ade8f78f41f623e",
      "s": "0x68cec17c7f9ad1a330ba86a629acb7a474cdd860b35739815a33d736e5ea5362",
      "v": 27,
      "creates": null,
      "raw": "0xf86c01850ba43b740082520894b5d7627b1161e85f9d081a4681d4d3159de3434a880191fec7dbc46000801ba061ec8258e84bba54ba54f61827e1f3f20b1efc80294cf5060ade8f78f41f623ea068cec17c7f9ad1a330ba86a629acb7a474cdd860b35739815a33d736e5ea5362",
      "networkId": 0,
      "chainId": 0
    },
    {
      "hash": "0x17c292dcb84aab3282ae4293e445c4b5783cdc7515e2b97c1e5eb41f2c0761c2",
      "blockHash": "0x25bc956aa506fd7c3601b78fc1c0f633fe8a10dad55e2aa03b6661b1751bfb24",
      "blockNumber": 69013,
      "transactionIndex": 9,
      "confirmations": null,
      "from": "0x54fCd4e22f37487F6e0457FCED91B1c40D6BA9Af",
      "gasPrice": {
        "_hex": "0xba43b7400"
      },
      "gasLimit": {
        "_hex": "0x5208"
      },
      "to": "0x54C83F367C8eA8Abe8dAF46888443C3b93bFe4c1",
      "value": {
        "_hex": "0x191fec7dbc46000"
      },
      "nonce": 1,
      "data": "0x",
      "r": "0xf6791253954974ae69de0e58620b24dc163beb04f6b63ca2da83eed64d981a70",
      "s": "0x6eea3c75f188c134cbbdbd9b7064fb0624ebc5f62850626630914c9c321e2d39",
      "v": 27,
      "creates": null,
      "raw": "0xf86c01850ba43b74008252089454c83f367c8ea8abe8daf46888443c3b93bfe4c1880191fec7dbc46000801ba0f6791253954974ae69de0e58620b24dc163beb04f6b63ca2da83eed64d981a70a06eea3c75f188c134cbbdbd9b7064fb0624ebc5f62850626630914c9c321e2d39",
      "networkId": 0,
      "chainId": 0
    },
    {
      "hash": "0x8d04b7afeb6e86318074126dbab0e1d1563a6baa13e8b1547d2a28c6f9f43a86",
      "blockHash": "0x25bc956aa506fd7c3601b78fc1c0f633fe8a10dad55e2aa03b6661b1751bfb24",
      "blockNumber": 69013,
      "transactionIndex": 10,
      "confirmations": null,
      "from": "0x77fA4a488BBC6b00ca2Ec233c2952745F8210086",
      "gasPrice": {
        "_hex": "0xba43b7400"
      },
      "gasLimit": {
        "_hex": "0x5208"
      },
      "to": "0x6aB90D5d357dED5c4Aee06f2B3aA5CeeC6c7dc0A",
      "value": {
        "_hex": "0x191fec7dbc46000"
      },
      "nonce": 1,
      "data": "0x",
      "r": "0xc1bee46f030375620b3d1716866dc8daa1dbbd952d0bbd5e72cd7b4bcf9f01e4",
      "s": "0x6d7cbd6eb0584ad08498441beb8eef73455914d99ba712e26dcd79e488349b97",
      "v": 27,
      "creates": null,
      "raw": "0xf86c01850ba43b7400825208946ab90d5d357ded5c4aee06f2b3aa5ceec6c7dc0a880191fec7dbc46000801ba0c1bee46f030375620b3d1716866dc8daa1dbbd952d0bbd5e72cd7b4bcf9f01e4a06d7cbd6eb0584ad08498441beb8eef73455914d99ba712e26dcd79e488349b97",
      "networkId": 0,
      "chainId": 0
    },
    {
      "hash": "0x0618b8215fb47f1b7fab6f4aa2988cc8bad6742c391de09d96933c15850bea69",
      "blockHash": "0x25bc956aa506fd7c3601b78fc1c0f633fe8a10dad55e2aa03b6661b1751bfb24",
      "blockNumber": 69013,
      "transactionIndex": 11,
      "confirmations": null,
      "from": "0xAFeCB78b7dDf43251b9b46581168C061b9d0ef1f",
      "gasPrice": {
        "_hex": "0xba43b7400"
      },
      "gasLimit": {
        "_hex": "0x5208"
      },
      "to": "0x7bf3481e5e615832F8BDEb7d8Ad5E460BCBD8C76",
      "value": {
        "_hex": "0x191fec7dbc46000"
      },
      "nonce": 1,
      "data": "0x",
      "r": "0x1e4e8e33d07d3afcc96313b4ee37df7dcc15e633aa5ec6a5d672c9eb829a8dd0",
      "s": "0x5b8a58cb1d510b6e8b8f262dbc71f687794feda1bd070460dc3eb6e1277a8a3f",
      "v": 27,
      "creates": null,
      "raw": "0xf86c01850ba43b7400825208947bf3481e5e615832f8bdeb7d8ad5e460bcbd8c76880191fec7dbc46000801ba01e4e8e33d07d3afcc96313b4ee37df7dcc15e633aa5ec6a5d672c9eb829a8dd0a05b8a58cb1d510b6e8b8f262dbc71f687794feda1bd070460dc3eb6e1277a8a3f",
      "networkId": 0,
      "chainId": 0
    },
    {
      "hash": "0xcb2d23913fd5cf451480fbafaa364de8c23e8844950f4c209b430bac87d754a9",
      "blockHash": "0x25bc956aa506fd7c3601b78fc1c0f633fe8a10dad55e2aa03b6661b1751bfb24",
      "blockNumber": 69013,
      "transactionIndex": 12,
      "confirmations": null,
      "from": "0x3A7A6296575159F66321B872d24dDdC30D6DB256",
      "gasPrice": {
        "_hex": "0xba43b7400"
      },
      "gasLimit": {
        "_hex": "0x5208"
      },
      "to": "0xE8d87aC2C83953C4C0E3aC1034ECc8AA375E0A2B",
      "value": {
        "_hex": "0x191fec7dbc46000"
      },
      "nonce": 1,
      "data": "0x",
      "r": "0x393ffb04022431cecb5fe9e3c3942f4d5b0a455994cc7d28acd9ebd7bb620f68",
      "s": "0x124eb51429020c4a91156b36f80b70a4e9ede446a2e262b75f5c72c5bce5549a",
      "v": 27,
      "creates": null,
      "raw": "0xf86c01850ba43b740082520894e8d87ac2c83953c4c0e3ac1034ecc8aa375e0a2b880191fec7dbc46000801ba0393ffb04022431cecb5fe9e3c3942f4d5b0a455994cc7d28acd9ebd7bb620f68a0124eb51429020c4a91156b36f80b70a4e9ede446a2e262b75f5c72c5bce5549a",
      "networkId": 0,
      "chainId": 0
    },
    {
      "hash": "0xa1600600b538bc968a8a3e0fc98c9ee20049c81177561940796515a0dff22eff",
      "blockHash": "0x25bc956aa506fd7c3601b78fc1c0f633fe8a10dad55e2aa03b6661b1751bfb24",
      "blockNumber": 69013,
      "transactionIndex": 13,
      "confirmations": null,
      "from": "0x58aC51cD425cDBd713B133d5095C05b1b1f3A7b0",
      "gasPrice": {
        "_hex": "0xba43b7400"
      },
      "gasLimit": {
        "_hex": "0x5208"
      },
      "to": "0x410eb1483E878D298D54E58b5DeCc8d517D9A732",
      "value": {
        "_hex": "0x191fec7dbc46000"
      },
      "nonce": 1,
      "data": "0x",
      "r": "0x94e051f64f6ada12408fd6f98f8fc6a855afd7255ad6c5acd250ca0d16ab4f0c",
      "s": "0x73a71310513b6539b4df4edec4f03e908b2362e0a355a255240aa39286e91dce",
      "v": 27,
      "creates": null,
      "raw": "0xf86c01850ba43b740082520894410eb1483e878d298d54e58b5decc8d517d9a732880191fec7dbc46000801ba094e051f64f6ada12408fd6f98f8fc6a855afd7255ad6c5acd250ca0d16ab4f0ca073a71310513b6539b4df4edec4f03e908b2362e0a355a255240aa39286e91dce",
      "networkId": 0,
      "chainId": 0
    },
    {
      "hash": "0x88bf109fb893a98f41c650cee597bd80249e8027c0c46c66540ff79b0b8717ce",
      "blockHash": "0x25bc956aa506fd7c3601b78fc1c0f633fe8a10dad55e2aa03b6661b1751bfb24",
      "blockNumber": 69013,
      "transactionIndex": 14,
      "confirmations": null,
      "from": "0xf35D87901C1D2AC4D49b9FB6A1B80397C40e7B84",
      "gasPrice": {
        "_hex": "0xba43b7400"
      },
      "gasLimit": {
        "_hex": "0x5208"
      },
      "to": "0xF13D2dC7B0605b892631085fd390793b69F6f0e3",
      "value": {
        "_hex": "0x191fec7dbc46000"
      },
      "nonce": 1,
      "data": "0x",
      "r": "0x0f41ad5e51165e247344ff87a77ca43915d7b34e5fdf261560a95799fd6e3a3b",
      "s": "0x28355f7faacc3ff175b6eaf75139d6400b204f5ce21a89a676bf0f0944f4bfc6",
      "v": 27,
      "creates": null,
      "raw": "0xf86c01850ba43b740082520894f13d2dc7b0605b892631085fd390793b69f6f0e3880191fec7dbc46000801ba00f41ad5e51165e247344ff87a77ca43915d7b34e5fdf261560a95799fd6e3a3ba028355f7faacc3ff175b6eaf75139d6400b204f5ce21a89a676bf0f0944f4bfc6",
      "networkId": 0,
      "chainId": 0
    }
  ]
}