{
  "hash": "0x576943a456050b4e19470b9660e3beb5b88fb64858ad39d5593a7d4224be23a6",
  "parentHash": "0x22f2e11be1f4541753eec014ef8329d01e3c359072c003bc7996c0734c47c6bd",
  "number": 53360,
  "timestamp": 1439036408,
  "nonce": "0x1a7231ed9045c40e",
  "difficulty": 1590108104658,
  "gasLimit": {
    "_hex": "0x25ad8b"
  },
  "gasUsed": {
    "_hex": "0x53e4"
  },
  "miner": "0xF2d2AfF1320476cb8C6b607199D23175cc595693",
  "extraData": "0x476574682f76312e302e312f77696e646f77732f676f312e342e32",
  "transactions": [
    {
      "hash": "0x8dfdc192989a2875d43219cf15a6191c1d5ddc8506aa6f33d94a31057a1567ca",
      "blockHash": "0x576943a456050b4e19470b9660e3beb5b88fb64858ad39d5593a7d4224be23a6",
      "blockNumber": 53360,
      "transactionIndex": 0,
      "confirmations": null,
      "from": "0x154230ed91D1e711e56b9C0f88b5ba5fD2B0503f",
      "gasPrice": {
        "_hex": "0xa7a358200"
      },
      "gasLimit": {
        "_hex": "0x55f0"
      },
      "to": "0x5d7A51290EAAf19876F6Ea7f2Fabf0B12BAE55bd",
      "value": {
        "_hex": "0xde0b6b3a7640000"
      },
      "nonce": 1,
      "data": "0x43727970746f43",
      "r": "0x539e1ffe62f52515ae3edfe89b1c74f4cc0f3b1f7bec3848ea7c9838545e3a62",
      "s": "0x17d3296c709c8e8e3233333ba514260eb0108938cbb68b0a0c9f7841d5058ed9",
      "v": 27,
      "creates": null,
      "raw": "0xf87301850a7a3582008255f0945d7a51290eaaf19876f6ea7f2fabf0b12bae55bd880de0b6b3a76400008743727970746f431ba0539e1ffe62f52515ae3edfe89b1c74f4cc0f3b1f7bec3848ea7c9838545e3a62a017d3296c709c8e8e3233333ba514260eb0108938cbb68b0a0c9f7841d5058ed9",
      "networkId": 0,
      "chainId": 0
    }
  ]
}