{
  "hash": "0xb8fffc5b50981448197dc1afa4ddf7cf9a8f11c0d4d44bede4aecf1b1eacd7d7",
  "parentHash": "0x86fb7702d9f1f9a7572421608ebe7636f02c4b223ef725dc1e6ea9bbfe49f901",
  "number": 120840,
  "timestamp": 1440166769,
  "nonce": "0xcdcc182c4b4f71e6",
  "difficulty": 4445492470739,
  "gasLimit": {
    "_hex": "0x2fefd8"
  },
  "gasUsed": {
    "_hex": "0xf618"
  },
  "miner": "0x580992B51e3925e23280EfB93d3047C82f17E038",
  "extraData": "0x",
  "transactions": [
    {
      "hash": "0x62c1526ea998e59c8cfd21950456291505983e52b6c8e3621c2cfd77f4fb6699",
      "blockHash": "0xb8fffc5b50981448197dc1afa4ddf7cf9a8f11c0d4d44bede4aecf1b1eacd7d7",
      "blockNumber": 120840,
      "transactionIndex": 0,
      "confirmations": null,
      "from": "0x2910543Af39abA0Cd09dBb2D50200b3E800A63D2",
      "gasPrice": {
        "_hex": "0xdc41d17af"
      },
      "gasLimit": {
        "_hex": "0x5208"
      },
      "to": "0xbABd4712D58140ce2Bad193D96257B75E44C0AFb",
      "value": {
        "_hex": "0x2b5d1eb9d79a78000"
      },
      "nonce": 1183,
      "data": "0x",
      "r": "0x48ee0f4680efa898bf05882e0a4185f329203ca9a3fc8ab535ddafd8057e18fc",
      "s": "0x065de0a35d94cd9de319efc2bcbc2d0f3509e29b31cd5bd8a94ad7a8686b5187",
      "v": 28,
      "creates": null,
      "raw": "0xf86f82049f850dc41d17af82520894babd4712d58140ce2bad193d96257b75e44c0afb8902b5d1eb9d79a78000801ca048ee0f4680efa898bf05882e0a4185f329203ca9a3fc8ab535ddafd8057e18fca0065de0a35d94cd9de319efc2bcbc2d0f3509e29b31cd5bd8a94ad7a8686b5187",
      "networkId": 0,
      "chainId": 0
    },
    {
      "hash": "0xc94c704a786d32e02d7737564c6796c7a546498e504ca26e849cb57d6b30c4a0",
      "blockHash": "0xb8fffc5b50981448197dc1afa4ddf7cf9a8f11c0d4d44bede4aecf1b1eacd7d7",
      "blockNumber": 120840,
      "transactionIndex": 1,
      "confirmations": null,
      "from": "0xe63a1879EC438Fd87bc623f66301B703087d3C4c",
      "gasPrice": {
        "_hex": "0xd6605fe0c"
      },
      "gasLimit": {
        "_hex": "0x5208"
      },
      "to": "0xAa9f47431b42B8621C6363fB64b911Ce9BeA2EA5",
      "value": {
        "_hex": "0x1c19afaa54947cf3030"
      },
      "nonce": 7,
      "data": "0x",
      "r": "0xc0d39a07c6fed2d2e88596e93c63dff254e19d3fb58351da786b728e7e498081",
      "s": "0x61843fc02ea07770e3e1be9826bde35469904dbd7ec4a2e93929136be5e21009",
      "v": 28,
      "creates": null,
      "raw": "0xf86e07850d6605fe0c82520894aa9f47431b42b8621c6363fb64b911ce9bea2ea58a01c19afaa54947cf3030801ca0c0d39a07c6fed2d2e88596e93c63dff254e19d3fb58351da786b728e7e498081a061843fc02ea07770e3e1be9826bde35469904dbd7ec4a2e93929136be5e21009",
      "networkId": 0,
      "chainId": 0
    },
    {
      "hash": "0xc4a0d1093059847fdae1947b9de2e7b2398f423a7efb1138d84d278f3f413a65",
      "blockHash": "0xb8fffc5b50981448197dc1afa4ddf7cf9a8f11c0d4d44bede4aecf1b1eacd7d7",
      "blockNumber": 120840,
      "transactionIndex": 2,
      "confirmations": null,
      "from": "0xa89692a6206E27D6DB1c940cF88CabcaaC95cE4E",
      "gasPrice": {
        "_hex": "0xba43b7400"
      },
      "gasLimit": {
        "_hex": "0x15f90"
      },
      "to": "0x75a6A81322A26109a83b1816b9E43bEFaD1e2173",
      "value": {
        "_hex": "0x2386f26fc10000"
      },
      "nonce": 0,
      "data": "0x",
      "r": "0x99dba1171d64020607273f3ff5ee2d8eb9e74b4db35591aa73de78e34fff6b84",
      "s": "0x4ace74051a63afaa86b9294f1ac4b752c8d6c63222cd9b6b5a571ee27625f336",
      "v": 27,
      "creates": null,
      "raw": "0xf86c80850ba43b740083015f909475a6a81322a26109a83b1816b9e43befad1e2173872386f26fc10000801ba099dba1171d64020607273f3ff5ee2d8eb9e74b4db35591aa73de78e34fff6b84a04ace74051a63afaa86b9294f1ac4b752c8d6c63222cd9b6b5a571ee27625f336",
      "networkId": 0,
      "chainId": 0
    }
  ]
}