{
  "hash": "0x82f02426243553053b60999f165b1f6cc7e1d36773d2d112411e3ef6aedb465c",
  "parentHash": "0x0bc0effc7851bf2c9732ee06cd26f19b66804db48a32f0ed2609eadcf2ed6f92",
  "number": 68964,
  "timestamp": 1439296385,
  "nonce": "0xeded700b53d36039",
  "difficulty": 2033968390389,
  "gasLimit": {
    "_hex": "0x2fefd8"
  },
  "gasUsed": {
    "_hex": "0xa410"
  },
  "miner": "0x70137010922f2fC2964b3792907F79FBB75fEbe8",
  "extraData": "0x476574682f76312e302e302f6c696e75782f676f312e342e32",
  "transactions": [
    {
      "hash": "0x52a8014b77ef27b1d3f8150fa46c14a850a7c7772ff5cd5c52f2d6318f48aaeb",
      "blockHash": "0x82f02426243553053b60999f165b1f6cc7e1d36773d2d112411e3ef6aedb465c",
      "blockNumber": 68964,
      "transactionIndex": 0,
      "confirmations": null,
      "from": "0xa261aC2B40E50E38c8cAff49d0028E97E63b5C56",
      "gasPrice": {
        "_hex": "0xba43b7400"
      },
      "gasLimit": {
        "_hex": "0x5208"
      },
      "to": "0xf041d27009C0437EAFb29129DAf1fcA0a71E6d92",
      "value": {
        "_hex": "0xf0088de8d15000"
      },
      "nonce": 1,
      "data": "0x",
      "r": "0x76ca26d7267060ca36c2e6ea8288618f0147cc0eb28a51f85cc01b582add3f20",
      "s": "0x30af5051213cc11d6676c24995c5e9cf8f61b920696c33e2e2303b05365e9c18",
      "v": 27,
      "creates": null,
      "raw": "0xf86b01850ba43b740082520894f041d27009c0437eafb29129daf1fca0a71e6d9287f0088de8d15000801ba076ca26d7267060ca36c2e6ea8288618f0147cc0eb28a51f85cc01b582add3f20a030af5051213cc11d6676c24995c5e9cf8f61b920696c33e2e2303b05365e9c18",
      "networkId": 0,
      "chainId": 0
    },
    {
      "hash": "0xb5269cc13da9f444fd73a46aa42f65809480894fb1976fc14bc79124dbad8ab6",
      "blockHash": "0x82f02426243553053b60999f165b1f6cc7e1d36773d2d112411e3ef6aedb465c",
      "blockNumber": 68964,
      "transactionIndex": 1,
      "confirmations": null,
      "from": "0xf0b5c7086D7e9d70f3864e8EfCDe74547d12B0Ed",
      "gasPrice": {
        "_hex": "0xba43b7400"
      },
      "gasLimit": {
        "_hex": "0x5208"
      },
      "to": "0x548605050397DCcD41D55B4adb87FCd73836Ede5",
      "value": {
        "_hex": "0xf0088de8d15000"
      },
      "nonce": 1,
      "data": "0x",
      "r": "0x8f81fdfdb453169bf43272a1ae6b2a355f0f2168065fbf07b1317f6b88ca1884",
      "s": "0x52008c0792738dd776e5bdcaedc52dfd3a12744697c571480b67ad2f6dd98f77",
      "v": 27,
      "creates": null,
      "raw": "0xf86b01850ba43b740082520894548605050397dccd41d55b4adb87fcd73836ede587f0088de8d15000801ba08f81fdfdb453169bf43272a1ae6b2a355f0f2168065fbf07b1317f6b88ca1884a052008c0792738dd776e5bdcaedc52dfd3a12744697c571480b67ad2f6dd98f77",
      "networkId": 0,
      "chainId": 0
    }
  ]
}