{
  "hash": "0x435207cc6b76525c2303a4e049c976211b1d72a93b9657330fe89eca37ceecf2",
  "parentHash": "0xc2eb7381b45a92547ff36a1d7728bc5d8dc36e883e2de5e68cce9bcd47862199",
  "number": 46284,
  "timestamp": 1438920536,
  "nonce": "0x59516fc7c4d01d4e",
  "difficulty": 1463251695170,
  "gasLimit": {
    "_hex": "0x580a"
  },
  "gasUsed": {
    "_hex": "0x5208"
  },
  "miner": "0xeB1325C8D9d3ea8D74aC11F4B00F1B2367686319",
  "extraData": "0x476574682f76312e302e312f77696e646f77732f676f312e342e32",
  "transactions": [
    {
      "hash": "0xd0aeaae2480e1716520cc7ec3848d0b5188623695ddf5807882471ba23e5df95",
      "blockHash": "0x435207cc6b76525c2303a4e049c976211b1d72a93b9657330fe89eca37ceecf2",
      "blockNumber": 46284,
      "transactionIndex": 0,
      "confirmations": null,
      "from": "0xC1CdC601f89c0428b31302D187e0dc08ad7D1C57",
      "gasPrice": {
        "_hex": "0x3bee5a770c"
      },
      "gasLimit": {
        "_hex": "0x5209"
      },
      "to": "0x6331fC207Bfc3aAbDeD887b553e5CD9898c8f801",
      "value": {
        "_hex": "0x1b1ae4d6e2ef500000"
      },
      "nonce": 1,
      "data": "0x",
      "r": "0xfffc0b0293f8f759035bd8695815e02c03210c24fc4b3b524de4f90db5b3eaa3",
      "s": "0x3101b193e29d8c1be9304f442f26ea1eeba2246fef2188a086f4c61d0be5f08d",
      "v": 27,
      "creates": null,
      "raw": "0xf86d01853bee5a770c825209946331fc207bfc3aabded887b553e5cd9898c8f801891b1ae4d6e2ef500000801ba0fffc0b0293f8f759035bd8695815e02c03210c24fc4b3b524de4f90db5b3eaa3a03101b193e29d8c1be9304f442f26ea1eeba2246fef2188a086f4c61d0be5f08d",
      "networkId": 0,
      "chainId": 0
    }
  ]
}