{
  "hash": "0xc9e289cf9789f138d35cc823fc953968101ce6d5c5711da14187fee9d1c99e79",
  "parentHash": "0x5c87dca67fe1cdfb9327c19f7355f58f99e94a09020c9a6d7f0c5a208349f7ef",
  "number": 101683,
  "timestamp": 1439826581,
  "nonce": "0xf83837f11680e910",
  "difficulty": 3880603733008,
  "gasLimit": {
    "_hex": "0x2fefd8"
  },
  "gasUsed": {
    "_hex": "0x5208"
  },
  "miner": "0xaEAf103356C2Ee943F748E8655659D29881323E1",
  "extraData": "0x476574682f76312e302e312f77696e646f77732f676f312e342e32",
  "transactions": [
    {
      "hash": "0xb3fd34fb482ecb75e55afb14574afab2b7a8f25f043d31372f971bd211a55694",
      "blockHash": "0xc9e289cf9789f138d35cc823fc953968101ce6d5c5711da14187fee9d1c99e79",
      "blockNumber": 101683,
      "transactionIndex": 0,
      "confirmations": null,
      "from": "0x6c62451A24cE7F7E2D068e72E72E0bA9d7a125Ad",
      "gasPrice": {
        "_hex": "0xe028a8e4f"
      },
      "gasLimit": {
        "_hex": "0x7530"
      },
      "to": "0x6De181Fc4C140FA31F196e5393516c49EEeBdAd3",
      "value": {
        "_hex": "0x21d3bd55e803c0000"
      },
      "nonce": 3,
      "data": "0x",
      "r": "0x104e84e7fcc65b35b476db0f7a95e170102ab35e6795f5529a945d93fc597e5f",
      "s": "0x40e954e30eda7f9b543025f01c8f3f52a0c106bb3cc6c19e4b983d1072233ef1",
      "v": 27,
      "creates": null,
      "raw": "0xf86d03850e028a8e4f827530946de181fc4c140fa31f196e5393516c49eeebdad389021d3bd55e803c0000801ba0104e84e7fcc65b35b476db0f7a95e170102ab35e6795f5529a945d93fc597e5fa040e954e30eda7f9b543025f01c8f3f52a0c106bb3cc6c19e4b983d1072233ef1",
      "networkId": 0,
      "chainId": 0
    }
  ]
}