{
  "hash": "0xae186aaf0862ca1e38ecd6047cc2c0b7d9b13160f121e51e0628b0625d58786d",
  "parentHash": "0x6393f3cb42600db1c67d22e182b41d81c7385419b5e4da14b13055c36cb44411",
  "number": 71077,
  "timestamp": 1439330256,
  "nonce": "0xe8c0d4f24e379c7d",
  "difficulty": 2153007664737,
  "gasLimit": {
    "_hex": "0x2fefd8"
  },
  "gasUsed": {
    "_hex": "0x142c1"
  },
  "miner": "0xf927a40C8B7F6E07c5af7FA2155B4864a4112B13",
  "extraData": "0x",
  "transactions": [
    {
      "hash": "0xb32802e8ae59ac00e70989c14b48796062195d9d667bdd3c4402e8096bcb076e",
      "blockHash": "0xae186aaf0862ca1e38ecd6047cc2c0b7d9b13160f121e51e0628b0625d58786d",
      "blockNumber": 71077,
      "transactionIndex": 0,
      "confirmations": null,
      "from": "0x17580B766f7453525ca4C6A88b01b50570EA088C",
      "gasPrice": {
        "_hex": "0xd58b2627f"
      },
      "gasLimit": {
        "_hex": "0x61a80"
      },
      "to": "0x5Fe5B7546D1628f7348B023A0393de1FC825A4fD",
      "value": {
        "_hex": "0x1bc16d674ec80000"
      },
      "nonce": 111,
      "data": "0xb595b8b50000000000000000000000000000000000000000000000000000000000000001",
      "r": "0xd971bc07abd7a7312c1ccef484876b37f62b62f099c76642d18fb8e1daf0398b",
      "s": "0x4c30dae339a91f80e8d79c32d89012909b1bca5307b08339e597b740bdbad51f",
      "v": 28,
      "creates": null,
      "raw": "0xf8916f850d58b2627f83061a80945fe5b7546d1628f7348b023a0393de1fc825a4fd881bc16d674ec80000a4b595b8b500000000000000000000000000000000000000000000000000000000000000011ca0d971bc07abd7a7312c1ccef484876b37f62b62f099c76642d18fb8e1daf0398ba04c30dae339a91f80e8d79c32d89012909b1bca5307b08339e597b740bdbad51f",
      "networkId": 0,
      "chainId": 0
    },
    {
      "hash": "0x6d382595e68d5f9c15bc7893d296482270e0c213c9642f2e7c35efb7bf4cb9b6",
      "blockHash": "0xae186aaf0862ca1e38ecd6047cc2c0b7d9b13160f121e51e0628b0625d58786d",
      "blockNumber": 71077,
      "transactionIndex": 1,
      "confirmations": null,
      "from": "0x17580B766f7453525ca4C6A88b01b50570EA088C",
      "gasPrice": {
        "_hex": "0xd58b2627f"
      },
      "gasLimit": {
        "_hex": "0x61a80"
      },
      "to": "0x5Fe5B7546D1628f7348B023A0393de1FC825A4fD",
      "value": {
        "_hex": "0x3782dace9d900000"
      },
      "nonce": 112,
      "data": "0xb595b8b50000000000000000000000000000000000000000000000000000000000000001",
      "r": "0xb1543469d6cdf97d69b83385173c06bcbd3eaf1fd1752f2272e13925d40deede",
      "s": "0x0b58b068c792b2b5c9d3c12bb9360c4a4ec7dfbf9fac994e124211d4e3cba7c6",
      "v": 27,
      "creates": null,
      "raw": "0xf89170850d58b2627f83061a80945fe5b7546d1628f7348b023a0393de1fc825a4fd883782dace9d900000a4b595b8b500000000000000000000000000000000000000000000000000000000000000011ba0b1543469d6cdf97d69b83385173c06bcbd3eaf1fd1752f2272e13925d40deedea00b58b068c792b2b5c9d3c12bb9360c4a4ec7dfbf9fac994e124211d4e3cba7c6",
      "networkId": 0,
      "chainId": 0
    }
  ]
}