{
  "hash": "0x922fc2e435e1f1e8462bae4b9bd0431914f41a1e4c37d9d74b37912c5d548881",
  "parentHash": "0x69636ddf3ecfa176633de2b9a47824e921710bf9c22ad74ab0f702394ce4dd40",
  "number": 74958,
  "timestamp": 1439395253,
  "nonce": "0x11e34fd46f8d395e",
  "difficulty": 2189105410884,
  "gasLimit": {
    "_hex": "0x2fefd8"
  },
  "gasUsed": {
    "_hex": "0xa410"
  },
  "miner": "0xf927a40C8B7F6E07c5af7FA2155B4864a4112B13",
  "extraData": "0x",
  "transactions": [
    {
      "hash": "0x88403e3801d9cec18400feda65da55c1726dbe1363bd46237873a5f54b0ae4e6",
      "blockHash": "0x922fc2e435e1f1e8462bae4b9bd0431914f41a1e4c37d9d74b37912c5d548881",
      "blockNumber": 74958,
      "transactionIndex": 0,
      "confirmations": null,
      "from": "0x43279854AaF8825a6d1fcCf056caF190Ab8a7b76",
      "gasPrice": {
        "_hex": "0xd0c08b316"
      },
      "gasLimit": {
        "_hex": "0x5208"
      },
      "to": "0x32Be343B94f860124dC4fEe278FDCBD38C102D88",
      "value": {
        "_hex": "0xd8d72288d35ca80000"
      },
      "nonce": 6,
      "data": "0x",
      "r": "0x290c470da3f17fa6765e88c3108ca7ded4351a7f9b3863a86b0a24f30591d50c",
      "s": "0x5a5191a6b0435a88f13742be8704abc21cb2d8be7b96484bf92d97cdfff5c505",
      "v": 27,
      "creates": null,
      "raw": "0xf86d06850d0c08b3168252089432be343b94f860124dc4fee278fdcbd38c102d8889d8d72288d35ca80000801ba0290c470da3f17fa6765e88c3108ca7ded4351a7f9b3863a86b0a24f30591d50ca05a5191a6b0435a88f13742be8704abc21cb2d8be7b96484bf92d97cdfff5c505",
      "networkId": 0,
      "chainId": 0
    },
    {
      "hash": "0x0803d01ea0c8bee874d6727358ba1d1b1ec127c22ab311390078851f1d840525",
      "blockHash": "0x922fc2e435e1f1e8462bae4b9bd0431914f41a1e4c37d9d74b37912c5d548881",
      "blockNumber": 74958,
      "transactionIndex": 1,
      "confirmations": null,
      "from": "0xEe2e3665531f220d70d01CCaBb559537a2663174",
      "gasPrice": {
        "_hex": "0xd0c08b316"
      },
      "gasLimit": {
        "_hex": "0x5208"
      },
      "to": "0x32Be343B94f860124dC4fEe278FDCBD38C102D88",
      "value": {
        "_hex": "0xddc886f898eec00"
      },
      "nonce": 4,
      "data": "0x",
      "r": "0xbe2397b4436ade8d1ceb7e63e358aa1c867cff8c2c453e1bb3a80aba7928de29",
      "s": "0x4414c31b24eabd4d6c004becc3961df0051d498b4cbd3031f4f2fcd3c01864fc",
      "v": 27,
      "creates": null,
      "raw": "0xf86c04850d0c08b3168252089432be343b94f860124dc4fee278fdcbd38c102d88880ddc886f898eec00801ba0be2397b4436ade8d1ceb7e63e358aa1c867cff8c2c453e1bb3a80aba7928de29a04414c31b24eabd4d6c004becc3961df0051d498b4cbd3031f4f2fcd3c01864fc",
      "networkId": 0,
      "chainId": 0
    }
  ]
}