{
  "hash": "0xb53f32bc97e17ab19f61a19a125b0c15373fc834d4eaf95715975f9432ee7267",
  "parentHash": "0x27194f132a83e49873d011c35b3d949ba77160dbbf16e3ab355e8c2810388ec8",
  "number": 113865,
  "timestamp": 1440031097,
  "nonce": "0x71d9572ff190cb58",
  "difficulty": 4425357409083,
  "gasLimit": {
    "_hex": "0x2fefd8"
  },
  "gasUsed": {
    "_hex": "0x5208"
  },
  "miner": "0xf927a40C8B7F6E07c5af7FA2155B4864a4112B13",
  "extraData": "0x476574682f76312e302e312f6c696e75782f676f312e342e32",
  "transactions": [
    {
      "hash": "0xba878bbdea74160ad779842e63f90afe1ae3c3481df8c4b816665ef46cff0708",
      "blockHash": "0xb53f32bc97e17ab19f61a19a125b0c15373fc834d4eaf95715975f9432ee7267",
      "blockNumber": 113865,
      "transactionIndex": 0,
      "confirmations": null,
      "from": "0x32Be343B94f860124dC4fEe278FDCBD38C102D88",
      "gasPrice": {
        "_hex": "0xd89f5d675"
      },
      "gasLimit": {
        "_hex": "0x5208"
      },
      "to": "0xAaA4BEfA989B980188a418Cc5C4C02E7d9103818",
      "value": {
        "_hex": "0x15f04a2ae0bc4c0000"
      },
      "nonce": 1375,
      "data": "0x",
      "r": "0x0e001c2d3c1ce6ba8918d7ede3da8a66e8fd5d7bfced137880b68144aba6030e",
      "s": "0x2cb4a38d0ddd7210fd82195eb8f5974c22029c03588fd38571eaad3b98d36413",
      "v": 27,
      "creates": null,
      "raw": "0xf86f82055f850d89f5d67582520894aaa4befa989b980188a418cc5c4c02e7d91038188915f04a2ae0bc4c0000801ba00e001c2d3c1ce6ba8918d7ede3da8a66e8fd5d7bfced137880b68144aba6030ea02cb4a38d0ddd7210fd82195eb8f5974c22029c03588fd38571eaad3b98d36413",
      "networkId": 0,
      "chainId": 0
    }
  ]
}