{
  "hash": "0xde04827c6d6d21c8a53cebb289f16282a62b7c4cb3dee2b99e64b9384edcbc8b",
  "parentHash": "0xa5bdfec3b46846543069253ea657bee14fe2456e4931bb8a0271a6e6d6df363f",
  "number": 58962,
  "timestamp": 1439129756,
  "nonce": "0xcf8d9d144e259797",
  "difficulty": 1708131058338,
  "gasLimit": {
    "_hex": "0x2fefd8"
  },
  "gasUsed": {
    "_hex": "0x5208"
  },
  "miner": "0x47ff6576639c2e94762eA5443978D7681C0E78DC",
  "extraData": "0x476574682f76312e302e312f6c696e75782f676f312e342e32",
  "transactions": [
    {
      "hash": "0xa1757cdbd4340a1de9b6f59544ae52f674db73e76f00efed6f0b6b2bdf1c1e1f",
      "blockHash": "0xde04827c6d6d21c8a53cebb289f16282a62b7c4cb3dee2b99e64b9384edcbc8b",
      "blockNumber": 58962,
      "transactionIndex": 0,
      "confirmations": null,
      "from": "0x0aAA075488f382ADfb50f99Ce0E8e27b47740AEF",
      "gasPrice": {
        "_hex": "0xdf5664995"
      },
      "gasLimit": {
        "_hex": "0x5208"
      },
      "to": "0x32Be343B94f860124dC4fEe278FDCBD38C102D88",
      "value": {
        "_hex": "0x77199aad7369700000"
      },
      "nonce": 0,
      "data": "0x",
      "r": "0xc4771ed612c091676cd8fc88c162b0c3382326ef247842bd4a5a89d127b258bc",
      "s": "0x335b01384dbf45ad08cf3a51da1eb3ca53851b7333ea6b9d5582eb2fc5db6737",
      "v": 27,
      "creates": null,
      "raw": "0xf86d80850df56649958252089432be343b94f860124dc4fee278fdcbd38c102d888977199aad7369700000801ba0c4771ed612c091676cd8fc88c162b0c3382326ef247842bd4a5a89d127b258bca0335b01384dbf45ad08cf3a51da1eb3ca53851b7333ea6b9d5582eb2fc5db6737",
      "networkId": 0,
      "chainId": 0
    }
  ]
}