{
  "hash": "0x6896d419af601147fcd19452d60b563b07aa9cec60894582289bc2276f0cb6af",
  "parentHash": "0x37214b5685ee8468e3e6ad1c6fa6539559caf4875c0569c780541e9c2ee26963",
  "number": 49120,
  "timestamp": 1438968389,
  "nonce": "0xefbca3612cac08e3",
  "difficulty": 1478554998444,
  "gasLimit": {
    "_hex": "0x265b6"
  },
  "gasUsed": {
    "_hex": "0xa410"
  },
  "miner": "0x785ffdDd5cE55c6DF963f345e68d3F2024E5Acb1",
  "extraData": "0x476574682f4d69676e6f7474652f76312e302e312f6c696e75782f676f312e34",
  "transactions": [
    {
      "hash": "0xd33606b7e9de90768a85d82c989bc9dfbf5aad0c253fd5557702d6b1a6bdd11e",
      "blockHash": "0x6896d419af601147fcd19452d60b563b07aa9cec60894582289bc2276f0cb6af",
      "blockNumber": 49120,
      "transactionIndex": 0,
      "confirmations": null,
      "from": "0x229FF80BF5708009a9F739e0F8b560914016d5A6",
      "gasPrice": {
        "_hex": "0xd19b6187e"
      },
      "gasLimit": {
        "_hex": "0x15f90"
      },
      "to": "0x4c5a01D2D3B8dD733d7c0216aeBfA391E38F2201",
      "value": {
        "_hex": "0x56bc75e2d63100000"
      },
      "nonce": 0,
      "data": "0x",
      "r": "0x1eda40e7e11f3f79e8c931bc00d29dcc08b1cff57b7c23be68d3ea1c706f623b",
      "s": "0x08b88a013d9ca200c06d8890304292d852c8e3af86fcbeca6501758531852f51",
      "v": 28,
      "creates": null,
      "raw": "0xf86e80850d19b6187e83015f90944c5a01d2d3b8dd733d7c0216aebfa391e38f220189056bc75e2d63100000801ca01eda40e7e11f3f79e8c931bc00d29dcc08b1cff57b7c23be68d3ea1c706f623ba008b88a013d9ca200c06d8890304292d852c8e3af86fcbeca6501758531852f51",
      "networkId": 0,
      "chainId": 0
    },
    {
      "hash": "0xb81f0a1b3d7892136658c642c9042ff3e58a80d7a6149e09068758ca9ca5cce2",
      "blockHash": "0x6896d419af601147fcd19452d60b563b07aa9cec60894582289bc2276f0cb6af",
      "blockNumber": 49120,
      "transactionIndex": 1,
      "confirmations": null,
      "from": "0x970510Bc87A686a93E9fF410631eb6CE42A761eE",
      "gasPrice": {
        "_hex": "0xce77fde16"
      },
      "gasLimit": {
        "_hex": "0x5208"
      },
      "to": "0x32Be343B94f860124dC4fEe278FDCBD38C102D88",
      "value": {
        "_hex": "0xc245db45e5761000"
      },
      "nonce": 2,
      "data": "0x",
      "r": "0x2fd5b0edb80dd85c35e82f9b85253d32318f18b4915c362a91dc8ec54add1af4",
      "s": "0x1a4e5addc2595460e6a1747c44cdeb18b301900fc8579dcd1cb1d428ef4e10cb",
      "v": 28,
      "creates": null,
      "raw": "0xf86c02850ce77fde168252089432be343b94f860124dc4fee278fdcbd38c102d8888c245db45e5761000801ca02fd5b0edb80dd85c35e82f9b85253d32318f18b4915c362a91dc8ec54add1af4a01a4e5addc2595460e6a1747c44cdeb18b301900fc8579dcd1cb1d428ef4e10cb",
      "networkId": 0,
      "chainId": 0
    }
  ]
}