{
  "hash": "0xbcbac80bac7d0a2994122bbb80cbebd3169694f7a477f8cbe2ad0504e14ef7be",
  "parentHash": "0x746a1ee7f1c4ecdc329f6e61d56c2d4ca83637798ca12bf7f77e9f48958ea284",
  "number": 115337,
  "timestamp": 1440055492,
  "nonce": "0x0f4ae516dd0c959b",
  "difficulty": 4551677672624,
  "gasLimit": {
    "_hex": "0x2fefd8"
  },
  "gasUsed": {
    "_hex": "0xa410"
  },
  "miner": "0xa50ec0D39fa913E62f1Bae7074E6F36caA71855b",
  "extraData": "0xd783010001844765746887676f312e342e32856c696e7578",
  "transactions": [
    {
      "hash": "0xa28fde7aed27ed76cd0995b95ca4dad6f9903a680c7323f0d4405607c6eaac2c",
      "blockHash": "0xbcbac80bac7d0a2994122bbb80cbebd3169694f7a477f8cbe2ad0504e14ef7be",
      "blockNumber": 115337,
      "transactionIndex": 0,
      "confirmations": null,
      "from": "0xa6BDc31c431B8F97848c9D60cbbe9660dc450eB7",
      "gasPrice": {
        "_hex": "0xd4c9b340b"
      },
      "gasLimit": {
        "_hex": "0x5208"
      },
      "to": "0x32Be343B94f860124dC4fEe278FDCBD38C102D88",
      "value": {
        "_hex": "0x1b4d976ce8df86000"
      },
      "nonce": 202,
      "data": "0x",
      "r": "0x7bc1dee183608983105805f7619035504868ce91111da6aceb707ca8e71097c5",
      "s": "0x26df7c3916bbba8f14bdbbe49de05ee40fe8d0a2e9785b4e39fa1c3434a00679",
      "v": 27,
      "creates": null,
      "raw": "0xf86e81ca850d4c9b340b8252089432be343b94f860124dc4fee278fdcbd38c102d888901b4d976ce8df86000801ba07bc1dee183608983105805f7619035504868ce91111da6aceb707ca8e71097c5a026df7c3916bbba8f14bdbbe49de05ee40fe8d0a2e9785b4e39fa1c3434a00679",
      "networkId": 0,
      "chainId": 0
    },
    {
      "hash": "0xcbff23af0ba27259558f260949fddc9df617a9df26b35910ae4c6c2037c05193",
      "blockHash": "0xbcbac80bac7d0a2994122bbb80cbebd3169694f7a477f8cbe2ad0504e14ef7be",
      "blockNumber": 115337,
      "transactionIndex": 1,
      "confirmations": null,
      "from": "0x5248EfBC7319bd65d436374266765D9727253F12",
      "gasPrice": {
        "_hex": "0xd4c9b340b"
      },
      "gasLimit": {
        "_hex": "0x5208"
      },
      "to": "0x32Be343B94f860124dC4fEe278FDCBD38C102D88",
      "value": {
        "_hex": "0x1249fb365c2031000"
      },
      "nonce": 12,
      "data": "0x",
      "r": "0x9d782f43f3a55ece92c1364420103114c290638867685a8e07a32b2c746f403b",
      "s": "0x2994b309b53823458a72b7a460d4807d4228bd567ee759d086aed1ff12cf5fec",
      "v": 27,
      "creates": null,
      "raw": "0xf86d0c850d4c9b340b8252089432be343b94f860124dc4fee278fdcbd38c102d888901249fb365c2031000801ba09d782f43f3a55ece92c1364420103114c290638867685a8e07a32b2c746f403ba02994b309b53823458a72b7a460d4807d4228bd567ee759d086aed1ff12cf5fec",
      "networkId": 0,
      "chainId": 0
    }
  ]
}