{
  "hash": "0xb27d40ae761d5e940d6c1851c813bef270affb18e11c295e51986e072ade6210",
  "parentHash": "0xd18e7c5d9f297dd36b967ba7013f6331f4db5715c9b4ecc1cf740a3737f96922",
  "number": 68885,
  "timestamp": 1439295150,
  "nonce": "0x4593b5d1bed4db3d",
  "difficulty": 2025068734264,
  "gasLimit": {
    "_hex": "0x2fefd8"
  },
  "gasUsed": {
    "_hex": "0xa410"
  },
  "miner": "0xf927a40C8B7F6E07c5af7FA2155B4864a4112B13",
  "extraData": "0x",
  "transactions": [
    {
      "hash": "0x5f8988d41c9d6951d215c3e5f1ac5c606b9900d9eb1aa157b3d4cb2890e079bb",
      "blockHash": "0xb27d40ae761d5e940d6c1851c813bef270affb18e11c295e51986e072ade6210",
      "blockNumber": 68885,
      "transactionIndex": 0,
      "confirmations": null,
      "from": "0xA10C59651885FeAaac91F871082a23BBbaBeDfCf",
      "gasPrice": {
        "_hex": "0x10a178f1ed5"
      },
      "gasLimit": {
        "_hex": "0x5208"
      },
      "to": "0x4c74B6F32c9680aCB5Fe0e72B7Aa95C612540A04",
      "value": {
        "_hex": "0xad78ebc5ac6200000"
      },
      "nonce": 15,
      "data": "0x",
      "r": "0x2e63d50e8546a2cf14c53b0060b4a0352f0a07cf8ae5d66e71333f285c708edc",
      "s": "0x0133c3fa2a84c3a83132f4c4963f63b2655ffc52d800a77fb49b4bd2fd540f59",
      "v": 27,
      "creates": null,
      "raw": "0xf86e0f86010a178f1ed5825208944c74b6f32c9680acb5fe0e72b7aa95c612540a04890ad78ebc5ac6200000801ba02e63d50e8546a2cf14c53b0060b4a0352f0a07cf8ae5d66e71333f285c708edca00133c3fa2a84c3a83132f4c4963f63b2655ffc52d800a77fb49b4bd2fd540f59",
      "networkId": 0,
      "chainId": 0
    },
    {
      "hash": "0x5263bdc0d219a76f187b26c5773ada62de6501eda581358ffb31fa442667867b",
      "blockHash": "0xb27d40ae761d5e940d6c1851c813bef270affb18e11c295e51986e072ade6210",
      "blockNumber": 68885,
      "transactionIndex": 1,
      "confirmations": null,
      "from": "0x6747f922385c9a6F9cfDf095F34345257DD597bE",
      "gasPrice": {
        "_hex": "0xba43b7400"
      },
      "gasLimit": {
        "_hex": "0x5208"
      },
      "to": "0xE2EF95C416Df818D43B232FE2cff18cB6D9f6961",
      "value": {
        "_hex": "0x1fcbfa42bd6000"
      },
      "nonce": 145,
      "data": "0x",
      "r": "0x729cb55344d2a11e05ccb4b921db6f2569ef920cf5444f9965b41ebb6c519c54",
      "s": "0x4ce1dfae30b8de63b9438ee154054a2302c5819d4540c1f1e250198fef4c37eb",
      "v": 27,
      "creates": null,
      "raw": "0xf86c8191850ba43b740082520894e2ef95c416df818d43b232fe2cff18cb6d9f6961871fcbfa42bd6000801ba0729cb55344d2a11e05ccb4b921db6f2569ef920cf5444f9965b41ebb6c519c54a04ce1dfae30b8de63b9438ee154054a2302c5819d4540c1f1e250198fef4c37eb",
      "networkId": 0,
      "chainId": 0
    }
  ]
}