{
  "hash": "0xd23430c47ec101c00d6909d20b2916489949566448359c66ff6dd4bd22c16717",
  "parentHash": "0x286c04c493f667de9fa1fa4508f7c21f965a9e69f514e5e2d70fe4d380f01727",
  "number": 62786,
  "timestamp": 1439194391,
  "nonce": "0x180e584375997a0e",
  "difficulty": 1768444277558,
  "gasLimit": {
    "_hex": "0x2fefd8"
  },
  "gasUsed": {
    "_hex": "0xa410"
  },
  "miner": "0xf8E0CA3Ed80bd541b94BEdCf259e8CF2141A9523",
  "extraData": "0x476574682f76312e302e312f77696e646f77732f676f312e342e32",
  "transactions": [
    {
      "hash": "0xd29e7370f32bb63a7e412cb424abf0fe2e74c1f771919e33fe795d8723991a21",
      "blockHash": "0xd23430c47ec101c00d6909d20b2916489949566448359c66ff6dd4bd22c16717",
      "blockNumber": 62786,
      "transactionIndex": 0,
      "confirmations": null,
      "from": "0x32Be343B94f860124dC4fEe278FDCBD38C102D88",
      "gasPrice": {
        "_hex": "0xd70b443ff"
      },
      "gasLimit": {
        "_hex": "0x5208"
      },
      "to": "0xC151A0473225AE2768CF864F30ef38AC4b36C06C",
      "value": {
        "_hex": "0x375f53dc2dcf0000"
      },
      "nonce": 155,
      "data": "0x",
      "r": "0x1457d1b620e485fdb1bea6a52cc28d2af76b38a3a29290d3524f7fd8c94be41f",
      "s": "0x0546e49b366a131be7c6127fde56af1b3c6273a8d57882a6ac7cda95c09cd888",
      "v": 28,
      "creates": null,
      "raw": "0xf86d819b850d70b443ff82520894c151a0473225ae2768cf864f30ef38ac4b36c06c88375f53dc2dcf0000801ca01457d1b620e485fdb1bea6a52cc28d2af76b38a3a29290d3524f7fd8c94be41fa00546e49b366a131be7c6127fde56af1b3c6273a8d57882a6ac7cda95c09cd888",
      "networkId": 0,
      "chainId": 0
    },
    {
      "hash": "0xa6f9d39eecfaf0743b9533ea11f76add53106f8a80a316be5966707122d2596f",
      "blockHash": "0xd23430c47ec101c00d6909d20b2916489949566448359c66ff6dd4bd22c16717",
      "blockNumber": 62786,
      "transactionIndex": 1,
      "confirmations": null,
      "from": "0x2910543Af39abA0Cd09dBb2D50200b3E800A63D2",
      "gasPrice": {
        "_hex": "0xce46860ab"
      },
      "gasLimit": {
        "_hex": "0x5208"
      },
      "to": "0x333Ad1596401e05Aea2d36Ca47318eF4Cd2cB3DF",
      "value": {
        "_hex": "0x3e6172af39618000"
      },
      "nonce": 115,
      "data": "0x",
      "r": "0x4a07b9fe9a605f69f81d7fcfdd4d711569f51b317e68f90b3e77251b8b03c6fe",
      "s": "0x28e94c2e0b3985da04fd70758803df4caabbb968e6b94065d62587cd487fde8a",
      "v": 28,
      "creates": null,
      "raw": "0xf86c73850ce46860ab82520894333ad1596401e05aea2d36ca47318ef4cd2cb3df883e6172af39618000801ca04a07b9fe9a605f69f81d7fcfdd4d711569f51b317e68f90b3e77251b8b03c6fea028e94c2e0b3985da04fd70758803df4caabbb968e6b94065d62587cd487fde8a",
      "networkId": 0,
      "chainId": 0
    }
  ]
}