{
  "hash": "0x953d8e14908e5d616e5a979768c1ec2119dc7344a767cb3874c312f386c19773",
  "parentHash": "0xc2741fc98a3dc33df7e25f19efd56836ff28343517e88abdd5748f6949a48af1",
  "number": 72321,
  "timestamp": 1439350940,
  "nonce": "0xa09f71fd5c3f3006",
  "difficulty": 2171691908771,
  "gasLimit": {
    "_hex": "0x2fefd8"
  },
  "gasUsed": {
    "_hex": "0xa410"
  },
  "miner": "0xf8E0CA3Ed80bd541b94BEdCf259e8CF2141A9523",
  "extraData": "0x476574682f76312e302e312f77696e646f77732f676f312e342e32",
  "transactions": [
    {
      "hash": "0xff2906eb0c3108865a106b4ef1836894fb27964b35be288eac99551399114b38",
      "blockHash": "0x953d8e14908e5d616e5a979768c1ec2119dc7344a767cb3874c312f386c19773",
      "blockNumber": 72321,
      "transactionIndex": 0,
      "confirmations": null,
      "from": "0x2c04115C3E52961b0dC0b0BF31fbA4546f5966FD",
      "gasPrice": {
        "_hex": "0x10c13c25376"
      },
      "gasLimit": {
        "_hex": "0x15f90"
      },
      "to": "0x71685764F4d080b317A51947290164605e5D1Ced",
      "value": {
        "_hex": "0xb1a2bc2ec500000"
      },
      "nonce": 2,
      "data": "0x",
      "r": "0x029300897dc35704e3c78fd35392d8f588e9d75de5a1342f5e965d876317afe7",
      "s": "0x08bd5671276f0ce3f4255f5be61156e06d2c674f165d0c0b61d2f46c1e6e3947",
      "v": 28,
      "creates": null,
      "raw": "0xf86e0286010c13c2537683015f909471685764f4d080b317a51947290164605e5d1ced880b1a2bc2ec500000801ca0029300897dc35704e3c78fd35392d8f588e9d75de5a1342f5e965d876317afe7a008bd5671276f0ce3f4255f5be61156e06d2c674f165d0c0b61d2f46c1e6e3947",
      "networkId": 0,
      "chainId": 0
    },
    {
      "hash": "0x953c4f7d0000bc4d235a20fa4d83fd58d7adc8cdcb07347b0d86dcad22e9be70",
      "blockHash": "0x953d8e14908e5d616e5a979768c1ec2119dc7344a767cb3874c312f386c19773",
      "blockNumber": 72321,
      "transactionIndex": 1,
      "confirmations": null,
      "from": "0x32Be343B94f860124dC4fEe278FDCBD38C102D88",
      "gasPrice": {
        "_hex": "0xd175c2753"
      },
      "gasLimit": {
        "_hex": "0x5208"
      },
      "to": "0xc30F3e11B4f34259ce948A5558F73f64fDc9Ed7B",
      "value": {
        "_hex": "0xdbd2fc137a30000"
      },
      "nonce": 279,
      "data": "0x",
      "r": "0xbc19826725a7fe9228add50ba2c2b4a706f9adb585ca881d653d14e89420444f",
      "s": "0x640b76f13d981e9aee8b2fd80ec65c7c402dc7df634cc1f68ccb39d5c0075c5a",
      "v": 27,
      "creates": null,
      "raw": "0xf86e820117850d175c275382520894c30f3e11b4f34259ce948a5558f73f64fdc9ed7b880dbd2fc137a30000801ba0bc19826725a7fe9228add50ba2c2b4a706f9adb585ca881d653d14e89420444fa0640b76f13d981e9aee8b2fd80ec65c7c402dc7df634cc1f68ccb39d5c0075c5a",
      "networkId": 0,
      "chainId": 0
    }
  ]
}