{
  "hash": "0x8233bde06280236256c2e0bcc5e2e33f71b06f1298ca40cd0cde677751083760",
  "parentHash": "0xa279b7022873bea02774d779cd987422cedbc3dc353ddc4820334161857ca378",
  "number": 110604,
  "timestamp": 1439976553,
  "nonce": "0x952bea978c4f5dd0",
  "difficulty": 4373365084214,
  "gasLimit": {
    "_hex": "0x2fefd8"
  },
  "gasUsed": {
    "_hex": "0x5208"
  },
  "miner": "0xe6A7a1d47ff21B6321162AEA7C6CB457D5476Bca",
  "extraData": "0x476574682f76312e302e312d38326566323666362f6c696e75782f676f312e34",
  "transactions": [
    {
      "hash": "0xc69a0d7e0a5abac67ceb67390938e7d26318c60a55be2d6b8c9d69a7b4b76c7a",
      "blockHash": "0x8233bde06280236256c2e0bcc5e2e33f71b06f1298ca40cd0cde677751083760",
      "blockNumber": 110604,
      "transactionIndex": 0,
      "confirmations": null,
      "from": "0x0909648c18A3CE5BAe7A047Ec2F868D24cDdA81D",
      "gasPrice": {
        "_hex": "0xd46e186de"
      },
      "gasLimit": {
        "_hex": "0x15f90"
      },
      "to": "0xBaA949Dbf5dbaE91Bf1cf03fC3bD9E30d0237Fd6",
      "value": {
        "_hex": "0xcf0693e755f2070000"
      },
      "nonce": 3,
      "data": "0x",
      "r": "0xc5778b7b1cfe53430809f6461832a511556cbaad7781ca3baafa96f5d986f164",
      "s": "0x11f5350714cb4719e29939401360a01257ee0e9f5bd506f20ba53a8c48fc7209",
      "v": 27,
      "creates": null,
      "raw": "0xf86e03850d46e186de83015f9094baa949dbf5dbae91bf1cf03fc3bd9e30d0237fd689cf0693e755f2070000801ba0c5778b7b1cfe53430809f6461832a511556cbaad7781ca3baafa96f5d986f164a011f5350714cb4719e29939401360a01257ee0e9f5bd506f20ba53a8c48fc7209",
      "networkId": 0,
      "chainId": 0
    }
  ]
}