{
  "hash": "0xdcc0fed0d3fd30c07ece8aa092bc32cb71bdce88348454f0dc23fac875da03de",
  "parentHash": "0x84382573e59aca61c8e0e7ab21841c9c540ac46a5dc509ec7210a0148e47e621",
  "number": 94478,
  "timestamp": 1439709140,
  "nonce": "0xed7ca4b45992d566",
  "difficulty": 3479840139844,
  "gasLimit": {
    "_hex": "0x2fefd8"
  },
  "gasUsed": {
    "_hex": "0xa410"
  },
  "miner": "0xe6A7a1d47ff21B6321162AEA7C6CB457D5476Bca",
  "extraData": "0x476574682f76312e302e312d38326566323666362f6c696e75782f676f312e34",
  "transactions": [
    {
      "hash": "0xe7cda115ea831d30564a8bb346ce11fa252403abefbe5d295937f3bb9429b106",
      "blockHash": "0xdcc0fed0d3fd30c07ece8aa092bc32cb71bdce88348454f0dc23fac875da03de",
      "blockNumber": 94478,
      "transactionIndex": 0,
      "confirmations": null,
      "from": "0x193bB9b5E9b6099FB6c33DBb5CcDA4AC18ed14D7",
      "gasPrice": {
        "_hex": "0xd5d490519"
      },
      "gasLimit": {
        "_hex": "0x5208"
      },
      "to": "0x32Be343B94f860124dC4fEe278FDCBD38C102D88",
      "value": {
        "_hex": "0xdb8e7757cdef400"
      },
      "nonce": 2,
      "data": "0x",
      "r": "0x5c3399de25f6e35faeb7d4ab7f06fc0075e6677cd129c9fa53e9859926a656fa",
      "s": "0x66c81ac12a74abbe3355786c2e18ebef110ef28a9567b39fc685e207a4b1a5d9",
      "v": 27,
      "creates": null,
      "raw": "0xf86c02850d5d4905198252089432be343b94f860124dc4fee278fdcbd38c102d88880db8e7757cdef400801ba05c3399de25f6e35faeb7d4ab7f06fc0075e6677cd129c9fa53e9859926a656faa066c81ac12a74abbe3355786c2e18ebef110ef28a9567b39fc685e207a4b1a5d9",
      "networkId": 0,
      "chainId": 0
    },
    {
      "hash": "0x68b56289fbbe07b715276f5d07c43a6f5c757628fb1cafcfb8a239e8fc56ddc0",
      "blockHash": "0xdcc0fed0d3fd30c07ece8aa092bc32cb71bdce88348454f0dc23fac875da03de",
      "blockNumber": 94478,
      "transactionIndex": 1,
      "confirmations": null,
      "from": "0x007f7f58D3eb5b7510A301eCC749FC1fCDDBE14D",
      "gasPrice": {
        "_hex": "0xcd8a77067"
      },
      "gasLimit": {
        "_hex": "0x15f90"
      },
      "to": "0xb1abce2918E21ddb93AA452731a12672A3d9F75a",
      "value": {
        "_hex": "0x4563918244f40000"
      },
      "nonce": 30,
      "data": "0x",
      "r": "0xd019d26af6ae2b05353ed7c5fc48ba1961e5a575d83d2db01871972e7beadb73",
      "s": "0x67a6b2f09301bb7508498547a5c3d75ebcdc6dff0ef44a6cf286463abf59f402",
      "v": 28,
      "creates": null,
      "raw": "0xf86d1e850cd8a7706783015f9094b1abce2918e21ddb93aa452731a12672a3d9f75a884563918244f40000801ca0d019d26af6ae2b05353ed7c5fc48ba1961e5a575d83d2db01871972e7beadb73a067a6b2f09301bb7508498547a5c3d75ebcdc6dff0ef44a6cf286463abf59f402",
      "networkId": 0,
      "chainId": 0
    }
  ]
}