{
  "hash": "0xd9da60d70d283be1bbeaae57e87746a7d0a11de8acd94ad9f4cd20ab01e253c5",
  "parentHash": "0xa8514aef5503e9c06246ed00e04bf2c03a8b35cdda91536d2bddbe989bc1b9e2",
  "number": 98030,
  "timestamp": 1439765937,
  "nonce": "0xab6aa036b29595c3",
  "difficulty": 3865270562432,
  "gasLimit": {
    "_hex": "0x2fefd8"
  },
  "gasUsed": {
    "_hex": "0x5208"
  },
  "miner": "0x5F8F73E26CdF436f19Cb24C82F90A15AFe55b592",
  "extraData": "0x476574682f76312e302e312f77696e646f77732f676f312e342e32",
  "transactions": [
    {
      "hash": "0xbd9903908f8a41ba6e74594b9b08ee56e22d32f8fd3630a1f69d36162708ab60",
      "blockHash": "0xd9da60d70d283be1bbeaae57e87746a7d0a11de8acd94ad9f4cd20ab01e253c5",
      "blockNumber": 98030,
      "transactionIndex": 0,
      "confirmations": null,
      "from": "0x790b8a3cE86E707ED0eD32bF89B3269692a23CC1",
      "gasPrice": {
        "_hex": "0xd38b37287"
      },
      "gasLimit": {
        "_hex": "0x15f90"
      },
      "to": "0x4D67f4F0Db45b3B5a3424B39ed8d972F710381D5",
      "value": {
        "_hex": "0x33166d5ef36820000"
      },
      "nonce": 17,
      "data": "0x",
      "r": "0xab1e26103f77533c9d9fe21ffe9fe0221ea5f997bd3325808733ae7c5381c9aa",
      "s": "0x4e493acb97513e6751c22a40afaa962147638cbc52e7bac516cf52bdb1e0efae",
      "v": 27,
      "creates": null,
      "raw": "0xf86e11850d38b3728783015f90944d67f4f0db45b3b5a3424b39ed8d972f710381d589033166d5ef36820000801ba0ab1e26103f77533c9d9fe21ffe9fe0221ea5f997bd3325808733ae7c5381c9aaa04e493acb97513e6751c22a40afaa962147638cbc52e7bac516cf52bdb1e0efae",
      "networkId": 0,
      "chainId": 0
    }
  ]
}