{
  "hash": "0x6cea2e64977c3db118674c10c85ee8bd4d1a732ae1406db576a424ede51ab23f",
  "parentHash": "0x37c5f2903bc784788dffce891092e59fb245dda784c79621a95bb6b3236b665f",
  "number": 119605,
  "timestamp": 1440145860,
  "nonce": "0xe97b7fd03369def8",
  "difficulty": 4379353708811,
  "gasLimit": {
    "_hex": "0x2fefd8"
  },
  "gasUsed": {
    "_hex": "0x5208"
  },
  "miner": "0x33b01a7fe4A1a5F774Bb73f89A4eF15a6Ffe1141",
  "extraData": "0x",
  "transactions": [
    {
      "hash": "0x7348269c9534b796fd6d2d6591b603a4c15722872f1ea38967e9412ff305348e",
      "blockHash": "0x6cea2e64977c3db118674c10c85ee8bd4d1a732ae1406db576a424ede51ab23f",
      "blockNumber": 119605,
      "transactionIndex": 0,
      "confirmations": null,
      "from": "0x931Ac2444b057f80A06A4FB627f26FFA5CE41184",
      "gasPrice": {
        "_hex": "0xba43b7400"
      },
      "gasLimit": {
        "_hex": "0x5208"
      },
      "to": "0x32Be343B94f860124dC4fEe278FDCBD38C102D88",
      "value": {
        "_hex": "0x1c1ac8c63622330000"
      },
      "nonce": 11,
      "data": "0x",
      "r": "0xfbccff89242aa41536809742140130f275a0cdd03b6899d93a9ebd1f0c4c4ab7",
      "s": "0x2261f476c1a4714edc918815554518489616153b83d60a24e012fc427d65ecaa",
      "v": 28,
      "creates": null,
      "raw": "0xf86d0b850ba43b74008252089432be343b94f860124dc4fee278fdcbd38c102d88891c1ac8c63622330000801ca0fbccff89242aa41536809742140130f275a0cdd03b6899d93a9ebd1f0c4c4ab7a02261f476c1a4714edc918815554518489616153b83d60a24e012fc427d65ecaa",
      "networkId": 0,
      "chainId": 0
    }
  ]
}