{
  "hash": "0x2ceadcbdbecc12c180b8c0e92d30a74c00223441c3dc8d2ca7337bf0d9800d91",
  "parentHash": "0x27b47dcc0b68a992a0ba479978c9a4c45e3cbabc23c312eb5aa9cbc025a9759e",
  "number": 70969,
  "timestamp": 1439328284,
  "nonce": "0x42619d0e473fe50b",
  "difficulty": 2163573960968,
  "gasLimit": {
    "_hex": "0x2fefd8"
  },
  "gasUsed": {
    "_hex": "0x5208"
  },
  "miner": "0xa70a9a7040d542C632D8e0bE7c5513A8a5Bbc752",
  "extraData": "0x",
  "transactions": [
    {
      "hash": "0x54630ea2a1134c7881a1778a6eaf60c7294841e8060512df4322d84f0b837a2c",
      "blockHash": "0x2ceadcbdbecc12c180b8c0e92d30a74c00223441c3dc8d2ca7337bf0d9800d91",
      "blockNumber": 70969,
      "transactionIndex": 0,
      "confirmations": null,
      "from": "0x8693E9B8bE94425EEf7969bc69f9D42F7CAD671e",
      "gasPrice": {
        "_hex": "0xd4dfa5aef"
      },
      "gasLimit": {
        "_hex": "0x15f90"
      },
      "to": "0xb0DBD02650b659f9B8b02E77cf0481aA6b3Ff9f8",
      "value": {
        "_hex": "0x64"
      },
      "nonce": 0,
      "data": "0x",
      "r": "0xcf1352914425c05d5a66a6314f7c205b6e577a9b78ef0921bea687f33fe69ab0",
      "s": "0x736773b30eeb142c21f99da6c833b9983c02ffaf85bae83db016674d7f0bc100",
      "v": 28,
      "creates": null,
      "raw": "0xf86580850d4dfa5aef83015f9094b0dbd02650b659f9b8b02e77cf0481aa6b3ff9f864801ca0cf1352914425c05d5a66a6314f7c205b6e577a9b78ef0921bea687f33fe69ab0a0736773b30eeb142c21f99da6c833b9983c02ffaf85bae83db016674d7f0bc100",
      "networkId": 0,
      "chainId": 0
    }
  ]
}