{
  "hash": "0x6bb7a3a9a2a36de344eda6da6903cf293044da00de04938b0667ce4b03818a87",
  "parentHash": "0xd0f4f38a6186e45ac52ee620361ebd0ec9915ccfbceca895fb9510475d8c0ac9",
  "number": 54163,
  "timestamp": 1439049674,
  "nonce": "0x2fb59f559aaa0657",
  "difficulty": 1604775102452,
  "gasLimit": {
    "_hex": "0x2fe3de"
  },
  "gasUsed": {
    "_hex": "0x546c"
  },
  "miner": "0x356CEFb4Eb836DC68403308309E075a31DD991D2",
  "extraData": "0x476574682f76312e302e302f6c696e75782f676f312e342e32",
  "transactions": [
    {
      "hash": "0x70ec8a901507744e1eec0671468029428bc69a1d3656e67fcd2fa615666f93e5",
      "blockHash": "0x6bb7a3a9a2a36de344eda6da6903cf293044da00de04938b0667ce4b03818a87",
      "blockNumber": 54163,
      "transactionIndex": 0,
      "confirmations": null,
      "from": "0x0AB366E6e7D5AbbcE6B44A438d69a1caBb90d133",
      "gasPrice": {
        "_hex": "0x110c8f7d8de"
      },
      "gasLimit": {
        "_hex": "0xc350"
      },
      "to": "0x2910543Af39abA0Cd09dBb2D50200b3E800A63D2",
      "value": {
        "_hex": "0x114b03a9dd959c0000"
      },
      "nonce": 0,
      "data": "0x454e41353237573847",
      "r": "0x57eaa72e2a34fc338bb7a08efc9d87c16ae65aef52f603c6849bd196bc165faf",
      "s": "0x28cbdb50ea5ed028fe99adb45b2b72d29d81b99e2e8f9a49be0a6684c16f3d5a",
      "v": 28,
      "creates": null,
      "raw": "0xf87780860110c8f7d8de82c350942910543af39aba0cd09dbb2d50200b3e800a63d289114b03a9dd959c000089454e413532375738471ca057eaa72e2a34fc338bb7a08efc9d87c16ae65aef52f603c6849bd196bc165fafa028cbdb50ea5ed028fe99adb45b2b72d29d81b99e2e8f9a49be0a6684c16f3d5a",
      "networkId": 0,
      "chainId": 0
    }
  ]
}