{
  "hash": "0xcc37185e2480246e613d1846bd7b63692fa82b22265a967bde75c818ed8a95b2",
  "parentHash": "0x2f15781f848a32600588cfaaf961d426f03eba37d87746882809dd5f25480fb9",
  "number": 115284,
  "timestamp": 1440054511,
  "nonce": "0x8621e2f43f3d16b8",
  "difficulty": 4558378855721,
  "gasLimit": {
    "_hex": "0x2fefd8"
  },
  "gasUsed": {
    "_hex": "0x4ce78"
  },
  "miner": "0x52bc44d5378309EE2abF1539BF71dE1b7d7bE3b5",
  "extraData": "0x476574682f76312e302e312d61383839306436312f6c696e75782f676f312e34",
  "transactions": [
    {
      "hash": "0x3cb5917da93935bb030eef50571201f8746af3b18db8ede15380b41bab7769fb",
      "blockHash": "0xcc37185e2480246e613d1846bd7b63692fa82b22265a967bde75c818ed8a95b2",
      "blockNumber": 115284,
      "transactionIndex": 0,
      "confirmations": null,
      "from": "0xe6A7a1d47ff21B6321162AEA7C6CB457D5476Bca",
      "gasPrice": {
        "_hex": "0xd87e1e169"
      },
      "gasLimit": {
        "_hex": "0x55f0"
      },
      "to": "0x4C84686094c69469502847D76a8190f3CD9e921c",
      "value": {
        "_hex": "0x1516826c957e29f8"
      },
      "nonce": 5117,
      "data": "0x",
      "r": "0x700e886b8dd3634a1e0e1efa78b137dcf583187876ecfcc2cfcf6057d1b2fc51",
      "s": "0x43c3bf89ce875e8b3ed05f57fd52eb364bb93c22cc5c53f2222cf6874e766532",
      "v": 27,
      "creates": null,
      "raw": "0xf86e8213fd850d87e1e1698255f0944c84686094c69469502847d76a8190f3cd9e921c881516826c957e29f8801ba0700e886b8dd3634a1e0e1efa78b137dcf583187876ecfcc2cfcf6057d1b2fc51a043c3bf89ce875e8b3ed05f57fd52eb364bb93c22cc5c53f2222cf6874e766532",
      "networkId": 0,
      "chainId": 0
    },
    {
      "hash": "0x5df278befcb298a7cb4a86f45f374fe48540c07e13713ef0a80838d61a77182f",
      "blockHash": "0xcc37185e2480246e613d1846bd7b63692fa82b22265a967bde75c818ed8a95b2",
      "blockNumber": 115284,
      "transactionIndex": 1,
      "confirmations": null,
      "from": "0xe6A7a1d47ff21B6321162AEA7C6CB457D5476Bca",
      "gasPrice": {
        "_hex": "0xd87e1e169"
      },
      "gasLimit": {
        "_hex": "0x55f0"
      },
      "to": "0xd223eD5b348a82910987CbBc7875a7AE62E1Ba53",
      "value": {
        "_hex": "0x151c12ae61f03400"
      },
      "nonce": 5118,
      "data": "0x",
      "r": "0xd1900d6d3e427657e1ccb9ceaaff0b28bd3142ff0b4a8cc95ca9644ec832ae7e",
      "s": "0x5626ed70dce9d61929bb9facebbeab2dfcad788db4d5e40b0883677473c4e923",
      "v": 27,
      "creates": null,
      "raw": "0xf86e8213fe850d87e1e1698255f094d223ed5b348a82910987cbbc7875a7ae62e1ba5388151c12ae61f03400801ba0d1900d6d3e427657e1ccb9ceaaff0b28bd3142ff0b4a8cc95ca9644ec832ae7ea05626ed70dce9d61929bb9facebbeab2dfcad788db4d5e40b0883677473c4e923",
      "networkId": 0,
      "chainId": 0
    },
    {
      "hash": "0x0e4b0fb811db4b092f54555f4847bf67fe84438c7c0d56a0bd45dde39465cc90",
      "blockHash": "0xcc37185e2480246e613d1846bd7b63692fa82b22265a967bde75c818ed8a95b2",
      "blockNumber": 115284,
      "transactionIndex": 2,
      "confirmations": null,
      "from": "0xe6A7a1d47ff21B6321162AEA7C6CB457D5476Bca",
      "gasPrice": {
        "_hex": "0xd87e1e169"
      },
      "gasLimit": {
        "_hex": "0x55f0"
      },
      "to": "0x03B35D960c861Fe987C50380d76db9D6Ae1fa510",
      "value": {
        "_hex": "0x151f1de9a4836c30"
      },
      "nonce": 5119,
      "data": "0x",
      "r": "0xe4ab3803b631b868e1df32660cb2b0c83a5c0fd709bcf3b2426af6eab97f92b1",
      "s": "0x2e168f54e03ef98b93d968600b687d2b0de1f15cc981b1b71eff191f2ccd18d3",
      "v": 28,
      "creates": null,
      "raw": "0xf86e8213ff850d87e1e1698255f09403b35d960c861fe987c50380d76db9d6ae1fa51088151f1de9a4836c30801ca0e4ab3803b631b868e1df32660cb2b0c83a5c0fd709bcf3b2426af6eab97f92b1a02e168f54e03ef98b93d968600b687d2b0de1f15cc981b1b71eff191f2ccd18d3",
      "networkId": 0,
      "chainId": 0
    },
    {
      "hash": "0x8e3da6efddff961da05aaeb556fb3390b805e5f1821fe259d14592e155c60db0",
      "blockHash": "0xcc37185e2480246e613d1846bd7b63692fa82b22265a967bde75c818ed8a95b2",
      "blockNumber": 115284,
      "transactionIndex": 3,
      "confirmations": null,
      "from": "0xe6A7a1d47ff21B6321162AEA7C6CB457D5476Bca",
      "gasPrice": {
        "_hex": "0xd87e1e169"
      },
      "gasLimit": {
        "_hex": "0x55f0"
      },
      "to": "0x0Ca595962471f3C517a9C71150cB2F722f7298EF",
      "value": {
        "_hex": "0x15217a02761c86e8"
      },
      "nonce": 5120,
      "data": "0x",
      "r": "0x1f7414fa98b7e0cab66063b2dffc0f49352922ed27d932532e547cc72cf4c46e",
      "s": "0x5c7ae2ddc48d1e1a6655836783a39d47ebfe1f789ff47a200560e3d767118c63",
      "v": 28,
      "creates": null,
      "raw": "0xf86e821400850d87e1e1698255f0940ca595962471f3c517a9c71150cb2f722f7298ef8815217a02761c86e8801ca01f7414fa98b7e0cab66063b2dffc0f49352922ed27d932532e547cc72cf4c46ea05c7ae2ddc48d1e1a6655836783a39d47ebfe1f789ff47a200560e3d767118c63",
      "networkId": 0,
      "chainId": 0
    },
    {
      "hash": "0x0d8f6ea7d7b1a9795f921750e84465670e1e9c26dfa277c2285b97326c31a2a0",
      "blockHash": "0xcc37185e2480246e613d1846bd7b63692fa82b22265a967bde75c818ed8a95b2",
      "blockNumber": 115284,
      "transactionIndex": 4,
      "confirmations": null,
      "from": "0xe6A7a1d47ff21B6321162AEA7C6CB457D5476Bca",
      "gasPrice": {
        "_hex": "0xd87e1e169"
      },
      "gasLimit": {
        "_hex": "0x55f0"
      },
      "to": "0x52524C3c4B039D2C330eD2D34973906987B21413",
      "value": {
        "_hex": "0x1524f4742d919d10"
      },
      "nonce": 5121,
      "data": "0x",
      "r": "0x7a2c0e962d14ea9c380511a63874b94ca9ab7cc1e9ac4736aa77e1dea17aedd3",
      "s": "0x632f93c1450786073201965a39317784cd75cdc3f76bc2ab5ee39ab749ad5f14",
      "v": 27,
      "creates": null,
      "raw": "0xf86e821401850d87e1e1698255f09452524c3c4b039d2c330ed2d34973906987b21413881524f4742d919d10801ba07a2c0e962d14ea9c380511a63874b94ca9ab7cc1e9ac4736aa77e1dea17aedd3a0632f93c1450786073201965a39317784cd75cdc3f76bc2ab5ee39ab749ad5f14",
      "networkId": 0,
      "chainId": 0
    },
    {
      "hash": "0xfa8281894b2f0aac9f5a96d64e155b15c3a0baaf89e6731297cac9822b4085cd",
      "blockHash": "0xcc37185e2480246e613d1846bd7b63692fa82b22265a967bde75c818ed8a95b2",
      "blockNumber": 115284,
      "transactionIndex": 5,
      "confirmations": null,
      "from": "0xe6A7a1d47ff21B6321162AEA7C6CB457D5476Bca",
      "gasPrice": {
        "_hex": "0xd87e1e169"
      },
      "gasLimit": {
        "_hex": "0x55f0"
      },
      "to": "0xAf3A6A5088BFBFc43bFf4eFC46e3142092B49258",
      "value": {
        "_hex": "0x1576a10622a36bdc"
      },
      "nonce": 5122,
      "data": "0x",
      "r": "0xad07671b4d7dad93f9200f90a977a43c79a80642559f03081663a67ca15de91c",
      "s": "0x322548acd12d1dd347b6ca5b0c6175faf3f125584db752e04c724e985baf0af3",
      "v": 28,
      "creates": null,
      "raw": "0xf86e821402850d87e1e1698255f094af3a6a5088bfbfc43bff4efc46e3142092b49258881576a10622a36bdc801ca0ad07671b4d7dad93f9200f90a977a43c79a80642559f03081663a67ca15de91ca0322548acd12d1dd347b6ca5b0c6175faf3f125584db752e04c724e985baf0af3",
      "networkId": 0,
      "chainId": 0
    },
    {
      "hash": "0x4078ae3623c5d0c6a9d1f96aa1a0d6ba7a772e008c6b111f6d6a84eb063c1bd9",
      "blockHash": "0xcc37185e2480246e613d1846bd7b63692fa82b22265a967bde75c818ed8a95b2",
      "blockNumber": 115284,
      "transactionIndex": 6,
      "confirmations": null,
      "from": "0xe6A7a1d47ff21B6321162AEA7C6CB457D5476Bca",
      "gasPrice": {
        "_hex": "0xd87e1e169"
      },
      "gasLimit": {
        "_hex": "0x55f0"
      },
      "to": "0x46532c79E7F23Aa3520221582D7AC182fb98C56B",
      "value": {
        "_hex": "0x1619f601f7b24430"
      },
      "nonce": 5123,
      "data": "0x",
      "r": "0x0831b6c87da5eaefb0834851091bd58c12550696c0f3de2cc68ac6fa275e5a29",
      "s": "0x772d1012d5ba4e5fba5e65c97b706f113de56057c4aa214fe85c4f241a548709",
      "v": 27,
      "creates": null,
      "raw": "0xf86e821403850d87e1e1698255f09446532c79e7f23aa3520221582d7ac182fb98c56b881619f601f7b24430801ba00831b6c87da5eaefb0834851091bd58c12550696c0f3de2cc68ac6fa275e5a29a0772d1012d5ba4e5fba5e65c97b706f113de56057c4aa214fe85c4f241a548709",
      "networkId": 0,
      "chainId": 0
    },
    {
      "hash": "0xb82a48cee56fcdbbe84354e0ae8c55e6d1681cd059222825d01d08fb5663440a",
      "blockHash": "0xcc37185e2480246e613d1846bd7b63692fa82b22265a967bde75c818ed8a95b2",
      "blockNumber": 115284,
      "transactionIndex": 7,
      "confirmations": null,
      "from": "0xe6A7a1d47ff21B6321162AEA7C6CB457D5476Bca",
      "gasPrice": {
        "_hex": "0xd87e1e169"
      },
      "gasLimit": {
        "_hex": "0x55f0"
      },
      "to": "0xFAc1B5968b6CC27786d1A28c3E360B8c421569B9",
      "value": {
        "_hex": "0x1621133f3829a024"
      },
      "nonce": 5124,
      "data": "0x",
      "r": "0xcf8498e7a56108604452509801c4cf03b54fb5ea83314049eb0c7aedbb9feb54",
      "s": "0x1f74e483a61535d2bbc87f6d8d9d8b8be454de35f3ca035915198aff7dae4b0b",
      "v": 28,
      "creates": null,
      "raw": "0xf86e821404850d87e1e1698255f094fac1b5968b6cc27786d1a28c3e360b8c421569b9881621133f3829a024801ca0cf8498e7a56108604452509801c4cf03b54fb5ea83314049eb0c7aedbb9feb54a01f74e483a61535d2bbc87f6d8d9d8b8be454de35f3ca035915198aff7dae4b0b",
      "networkId": 0,
      "chainId": 0
    },
    {
      "hash": "0xaf3f272b8826a507540a0af58d075f315c0d302024fc8005d7bf742dc23feb63",
      "blockHash": "0xcc37185e2480246e613d1846bd7b63692fa82b22265a967bde75c818ed8a95b2",
      "blockNumber": 115284,
      "transactionIndex": 8,
      "confirmations": null,
      "from": "0xe6A7a1d47ff21B6321162AEA7C6CB457D5476Bca",
      "gasPrice": {
        "_hex": "0xd87e1e169"
      },
      "gasLimit": {
        "_hex": "0x55f0"
      },
      "to": "0x5C6935CC46A0ccd4f0E1eb8c27103e46AA9517dB",
      "value": {
        "_hex": "0x1643977f3a618000"
      },
      "nonce": 5125,
      "data": "0x",
      "r": "0x88a9ea6806e85bcdeaf6332a1fd7798a39adb71c2806a18dbb913ab487cb3429",
      "s": "0x1124c51d27f61b13bfd68a4c86f000994d59c59f7ee4d43f3cd8e56d65827b03",
      "v": 27,
      "creates": null,
      "raw": "0xf86e821405850d87e1e1698255f0945c6935cc46a0ccd4f0e1eb8c27103e46aa9517db881643977f3a618000801ba088a9ea6806e85bcdeaf6332a1fd7798a39adb71c2806a18dbb913ab487cb3429a01124c51d27f61b13bfd68a4c86f000994d59c59f7ee4d43f3cd8e56d65827b03",
      "networkId": 0,
      "chainId": 0
    },
    {
      "hash": "0x35063bd9c70db39daffe31e07d5d77979a818f8cd0a49c4e7eb4c7c042cbf70c",
      "blockHash": "0xcc37185e2480246e613d1846bd7b63692fa82b22265a967bde75c818ed8a95b2",
      "blockNumber": 115284,
      "transactionIndex": 9,
      "confirmations": null,
      "from": "0xe6A7a1d47ff21B6321162AEA7C6CB457D5476Bca",
      "gasPrice": {
        "_hex": "0xd87e1e169"
      },
      "gasLimit": {
        "_hex": "0x55f0"
      },
      "to": "0xa1962d0A7c48886Eaed5B9e12129384281adEb2a",
      "value": {
        "_hex": "0x167498d9b1a427d0"
      },
      "nonce": 5126,
      "data": "0x",
      "r": "0x0b9cbadcdb1c9430c922b272797136432d95ce736e56533935badacdb4cfe1c7",
      "s": "0x376c594b2460b568c47d632c2194808b0c386aa0892aad41940621e423209062",
      "v": 27,
      "creates": null,
      "raw": "0xf86e821406850d87e1e1698255f094a1962d0a7c48886eaed5b9e12129384281adeb2a88167498d9b1a427d0801ba00b9cbadcdb1c9430c922b272797136432d95ce736e56533935badacdb4cfe1c7a0376c594b2460b568c47d632c2194808b0c386aa0892aad41940621e423209062",
      "networkId": 0,
      "chainId": 0
    },
    {
      "hash": "0x338aabedc8ff4646371556e57d3c10051798bdd7fd19fe1f983b9b6b35e35ec3",
      "blockHash": "0xcc37185e2480246e613d1846bd7b63692fa82b22265a967bde75c818ed8a95b2",
      "blockNumber": 115284,
      "transactionIndex": 10,
      "confirmations": null,
      "from": "0xe6A7a1d47ff21B6321162AEA7C6CB457D5476Bca",
      "gasPrice": {
        "_hex": "0xd87e1e169"
      },
      "gasLimit": {
        "_hex": "0x55f0"
      },
      "to": "0x1543667B9bad3e41865C3233E1764d8dda8E1F3D",
      "value": {
        "_hex": "0x167e1f278aafbae4"
      },
      "nonce": 5127,
      "data": "0x",
      "r": "0xedae217e4dfddec4c6149366787bb42db77fb3446abf680a386789dcb00b371c",
      "s": "0x39eb8f5ff980255990c829d5ab86a9bedf6a035ab161d96a0a3620d1d0fbc125",
      "v": 28,
      "creates": null,
      "raw": "0xf86e821407850d87e1e1698255f0941543667b9bad3e41865c3233e1764d8dda8e1f3d88167e1f278aafbae4801ca0edae217e4dfddec4c6149366787bb42db77fb3446abf680a386789dcb00b371ca039eb8f5ff980255990c829d5ab86a9bedf6a035ab161d96a0a3620d1d0fbc125",
      "networkId": 0,
      "chainId": 0
    },
    {
      "hash": "0x9a0e3467615e05f36c5d31fa58ea6c03dadfeab30aca5097a83061f12b21ec63",
      "blockHash": "0xcc37185e2480246e613d1846bd7b63692fa82b22265a967bde75c818ed8a95b2",
      "blockNumber": 115284,
      "transactionIndex": 11,
      "confirmations": null,
      "from": "0xe6A7a1d47ff21B6321162AEA7C6CB457D5476Bca",
      "gasPrice": {
        "_hex": "0xd87e1e169"
      },
      "gasLimit": {
        "_hex": "0x55f0"
      },
      "to": "0xfEE4dEb01301A2633e0046305A31fcA8d04F416c",
      "value": {
        "_hex": "0x16b79d1ccb0b7bd0"
      },
      "nonce": 5128,
      "data": "0x",
      "r": "0x571d8edcce5243f583802c9779b96c53d75198720365a0e37849023c61d40140",
      "s": "0x5a78fbccdd7c44ba6df96283501e69b2b40ad0244561976f59bedac4a15471a4",
      "v": 27,
      "creates": null,
      "raw": "0xf86e821408850d87e1e1698255f094fee4deb01301a2633e0046305a31fca8d04f416c8816b79d1ccb0b7bd0801ba0571d8edcce5243f583802c9779b96c53d75198720365a0e37849023c61d40140a05a78fbccdd7c44ba6df96283501e69b2b40ad0244561976f59bedac4a15471a4",
      "networkId": 0,
      "chainId": 0
    },
    {
      "hash": "0x1810211e468c7ca2a20654c71de0dc9e9a4be3135521d0d98528ea56bc1fa11f",
      "blockHash": "0xcc37185e2480246e613d1846bd7b63692fa82b22265a967bde75c818ed8a95b2",
      "blockNumber": 115284,
      "transactionIndex": 12,
      "confirmations": null,
      "from": "0xe6A7a1d47ff21B6321162AEA7C6CB457D5476Bca",
      "gasPrice": {
        "_hex": "0xd87e1e169"
      },
      "gasLimit": {
        "_hex": "0x55f0"
      },
      "to": "0x37E0B394d41C669662b52628639E6E4c1ac3F23D",
      "value": {
        "_hex": "0x16c03aaf09932aa0"
      },
      "nonce": 5129,
      "data": "0x",
      "r": "0x79edde0c1027d9c4778299289df2bf5293f5843708e0bab17eaf9c7944458a5a",
      "s": "0x30fff322796ec04b2ab89b10578c909c75f31f0c1190a109f5ed84ede49e5b10",
      "v": 28,
      "creates": null,
      "raw": "0xf86e821409850d87e1e1698255f09437e0b394d41c669662b52628639e6e4c1ac3f23d8816c03aaf09932aa0801ca079edde0c1027d9c4778299289df2bf5293f5843708e0bab17eaf9c7944458a5aa030fff322796ec04b2ab89b10578c909c75f31f0c1190a109f5ed84ede49e5b10",
      "networkId": 0,
      "chainId": 0
    },
    {
      "hash": "0xd02253eb6779e2c7033afa74c324fbda6437ead76fff73aa6c5ff2e32ee42777",
      "blockHash": "0xcc37185e2480246e613d1846bd7b63692fa82b22265a967bde75c818ed8a95b2",
      "blockNumber": 115284,
      "transactionIndex": 13,
      "confirmations": null,
      "from": "0xe6A7a1d47ff21B6321162AEA7C6CB457D5476Bca",
      "gasPrice": {
        "_hex": "0xd87e1e169"
      },
      "gasLimit": {
        "_hex": "0x55f0"
      },
      "to": "0x5646281e1f0F9F62F912AC1c953Fc48333261A36",
      "value": {
        "_hex": "0x16e6a00d6e16fbd4"
      },
      "nonce": 5130,
      "data": "0x",
      "r": "0xe31978c030acff07a6e6dfb239f88b7d5b0e02e9a953ad93aa2d79035ffdb8d1",
      "s": "0x5e630271b295d33723cea2af3b9d7f405655d058adb21528b0e39d0a298b0981",
      "v": 27,
      "creates": null,
      "raw": "0xf86e82140a850d87e1e1698255f0945646281e1f0f9f62f912ac1c953fc48333261a368816e6a00d6e16fbd4801ba0e31978c030acff07a6e6dfb239f88b7d5b0e02e9a953ad93aa2d79035ffdb8d1a05e630271b295d33723cea2af3b9d7f405655d058adb21528b0e39d0a298b0981",
      "networkId": 0,
      "chainId": 0
    },
    {
      "hash": "0xa6492718096dc52168d47eec940423bb61a5dc18b4a690b32ef46a6a3e98e5c5",
      "blockHash": "0xcc37185e2480246e613d1846bd7b63692fa82b22265a967bde75c818ed8a95b2",
      "blockNumber": 115284,
      "transactionIndex": 14,
      "confirmations": null,
      "from": "0xe6A7a1d47ff21B6321162AEA7C6CB457D5476Bca",
      "gasPrice": {
        "_hex": "0xd87e1e169"
      },
      "gasLimit": {
        "_hex": "0x55f0"
      },
      "to": "0x1FC0a68ee75c96453Dc8A877F49CfD6ab21d00ec",
      "value": {
        "_hex": "0x173fcea3b81fc0e4"
      },
      "nonce": 5131,
      "data": "0x",
      "r": "0x09e9f36d40caea8c0bdff68348a4ae5bf0c927d371b5eda2ca5b7a8b47a8d972",
      "s": "0x24851cf6659b93f471d068fda6c68a19b9ff5f4b5ab1c6715e8e12f4e050d522",
      "v": 27,
      "creates": null,
      "raw": "0xf86e82140b850d87e1e1698255f0941fc0a68ee75c96453dc8a877f49cfd6ab21d00ec88173fcea3b81fc0e4801ba009e9f36d40caea8c0bdff68348a4ae5bf0c927d371b5eda2ca5b7a8b47a8d972a024851cf6659b93f471d068fda6c68a19b9ff5f4b5ab1c6715e8e12f4e050d522",
      "networkId": 0,
      "chainId": 0
    }
  ]
}