{
  "hash": "0x390a8d0d4cd90dfb59831deaa85d6175dc87ce3fbbf8744d27973a457a98895d",
  "parentHash": "0x64cd04ef82c782c7ca271bae764bfa918634cd6468b4fce017ec1a20ae2f1b24",
  "number": 59593,
  "timestamp": 1439140692,
  "nonce": "0x5b25d5fcb1cae621",
  "difficulty": 1702174641345,
  "gasLimit": {
    "_hex": "0x2fefd8"
  },
  "gasUsed": {
    "_hex": "0x5208"
  },
  "miner": "0x88D74a59454F6cF3B51ef6b9136AFb6b9D405A88",
  "extraData": "0x476574682f76312e302e312d37666266393930632f6c696e75782f676f312e34",
  "transactions": [
    {
      "hash": "0xb3cedcc562084d5b47512061c1e4cb6759bfde21b8475d60065d87f6185b0156",
      "blockHash": "0x390a8d0d4cd90dfb59831deaa85d6175dc87ce3fbbf8744d27973a457a98895d",
      "blockNumber": 59593,
      "transactionIndex": 0,
      "confirmations": null,
      "from": "0xc185Eb46fA4eeD04eCc6b69DE58E1de88aE9642D",
      "gasPrice": {
        "_hex": "0xe241696cf"
      },
      "gasLimit": {
        "_hex": "0x5208"
      },
      "to": "0x32Be343B94f860124dC4fEe278FDCBD38C102D88",
      "value": {
        "_hex": "0x1314b2b6ede762000"
      },
      "nonce": 0,
      "data": "0x",
      "r": "0xd4991d2be890560814f326ac11001b2467a6487a244211fd960075fbc5dbe3b9",
      "s": "0x59449d201f9a2bc7d50bf9f840e306ae93435980ce08ad43e3e9a8d9caaf53ce",
      "v": 28,
      "creates": null,
      "raw": "0xf86d80850e241696cf8252089432be343b94f860124dc4fee278fdcbd38c102d888901314b2b6ede762000801ca0d4991d2be890560814f326ac11001b2467a6487a244211fd960075fbc5dbe3b9a059449d201f9a2bc7d50bf9f840e306ae93435980ce08ad43e3e9a8d9caaf53ce",
      "networkId": 0,
      "chainId": 0
    }
  ]
}