{
  "hash": "0x9d19f4c143eb582fe3c0db998e1554b1da99f74cfe15885ba772eb5d87777368",
  "parentHash": "0xb6109ed4ebebe5b504688a88bf958d9f8c8aa7f7f957fecb9e1bfb556452ac8b",
  "number": 69097,
  "timestamp": 1439298301,
  "nonce": "0xa6ef353a747d9ade",
  "difficulty": 2054899227665,
  "gasLimit": {
    "_hex": "0x2fefd8"
  },
  "gasUsed": {
    "_hex": "0x17cd8"
  },
  "miner": "0xa50ec0D39fa913E62f1Bae7074E6F36caA71855b",
  "extraData": "0x",
  "transactions": [
    {
      "hash": "0x5bdc342efcbb34829544d6376f00f5f0f564ac04de8f59f7ebfb1d84177b6ed8",
      "blockHash": "0x9d19f4c143eb582fe3c0db998e1554b1da99f74cfe15885ba772eb5d87777368",
      "blockNumber": 69097,
      "transactionIndex": 0,
      "confirmations": null,
      "from": "0x7A03EA4B5a06c24D67A5ebF4eeCf9Af2a7994135",
      "gasPrice": {
        "_hex": "0xba43b7400"
      },
      "gasLimit": {
        "_hex": "0x15f90"
      },
      "to": "0x793AE8C1b1a160BFc07BFB0d04F85eab1A71F4f2",
      "value": {
        "_hex": "0x0"
      },
      "nonce": 0,
      "data": "0x3ba15036",
      "r": "0xa6e644607dead5b01a1d17ca9bf54541966d288afab52c4ee4c0a54a17482755",
      "s": "0x05fac8d9316a3d86d1acdb40ffe1619fdee50d417e27465a0431fbd47615b380",
      "v": 27,
      "creates": null,
      "raw": "0xf86980850ba43b740083015f9094793ae8c1b1a160bfc07bfb0d04f85eab1a71f4f280843ba150361ba0a6e644607dead5b01a1d17ca9bf54541966d288afab52c4ee4c0a54a17482755a005fac8d9316a3d86d1acdb40ffe1619fdee50d417e27465a0431fbd47615b380",
      "networkId": 0,
      "chainId": 0
    },
    {
      "hash": "0x7d593388049fc4a115fffec2d587e24aa04e2a366e33dffd4bd9690e2a0df4f2",
      "blockHash": "0x9d19f4c143eb582fe3c0db998e1554b1da99f74cfe15885ba772eb5d87777368",
      "blockNumber": 69097,
      "transactionIndex": 1,
      "confirmations": null,
      "from": "0x8bA6B4B89e7Bc7320b229C480d36f8Fd79b660C8",
      "gasPrice": {
        "_hex": "0xba43b7400"
      },
      "gasLimit": {
        "_hex": "0x15f90"
      },
      "to": "0x793AE8C1b1a160BFc07BFB0d04F85eab1A71F4f2",
      "value": {
        "_hex": "0x0"
      },
      "nonce": 0,
      "data": "0x3ba15036",
      "r": "0x896039208e5bd1dc5407a3af1ab205693469f6fc48838b9d9b98fd2b5e043d26",
      "s": "0x488fa10dbe38dac4d51099c09414089897d9c5cb9c1f9f3436990326617b047a",
      "v": 28,
      "creates": null,
      "raw": "0xf86980850ba43b740083015f9094793ae8c1b1a160bfc07bfb0d04f85eab1a71f4f280843ba150361ca0896039208e5bd1dc5407a3af1ab205693469f6fc48838b9d9b98fd2b5e043d26a0488fa10dbe38dac4d51099c09414089897d9c5cb9c1f9f3436990326617b047a",
      "networkId": 0,
      "chainId": 0
    }
  ]
}