{
  "hash": "0x27de910e37aa4f51ce79a9af65ab9b9e784f5f0b1b364394ad703cacc5889088",
  "parentHash": "0xc99611c658639524f29ffce279a02277f5f59f01f4bfb66aa0097d3e228a3f5b",
  "number": 79487,
  "timestamp": 1439470538,
  "nonce": "0x5bb3080256eb4637",
  "difficulty": 2332446978905,
  "gasLimit": {
    "_hex": "0x2fefd8"
  },
  "gasUsed": {
    "_hex": "0xa410"
  },
  "miner": "0x9D0B366c06Bdb8D00C9Ab617db64B505f9e05d79",
  "extraData": "0x476574682f76312e302e312d38326566323666362f6c696e75782f676f312e34",
  "transactions": [
    {
      "hash": "0x498822edd2d4e72afeb166084adf20c8729248f3926fd23644aa795a352e27ce",
      "blockHash": "0x27de910e37aa4f51ce79a9af65ab9b9e784f5f0b1b364394ad703cacc5889088",
      "blockNumber": 79487,
      "transactionIndex": 0,
      "confirmations": null,
      "from": "0x4d67f2AB8599fef5Fc413999Aa01FD7fcE70B43D",
      "gasPrice": {
        "_hex": "0xd6ca5d0f5"
      },
      "gasLimit": {
        "_hex": "0x55f0"
      },
      "to": "0x60f7C29656Fc491e766750556fE4F0E407f81eB5",
      "value": {
        "_hex": "0x1bc16d674ec80000"
      },
      "nonce": 6,
      "data": "0x",
      "r": "0xce7a0d37cbe0f985841ee537cbc6fc12209f20b32521ce12b47be4e7187dfc1b",
      "s": "0x3ddd5817a4cf59ac53d9cd136a256c58c43875bb8ef6b7690ec00d50dfdeb04a",
      "v": 28,
      "creates": null,
      "raw": "0xf86c06850d6ca5d0f58255f09460f7c29656fc491e766750556fe4f0e407f81eb5881bc16d674ec80000801ca0ce7a0d37cbe0f985841ee537cbc6fc12209f20b32521ce12b47be4e7187dfc1ba03ddd5817a4cf59ac53d9cd136a256c58c43875bb8ef6b7690ec00d50dfdeb04a",
      "networkId": 0,
      "chainId": 0
    },
    {
      "hash": "0xeeba08561e53731301bd642da7ac4bafc778646d85429f560dd433e11adde772",
      "blockHash": "0x27de910e37aa4f51ce79a9af65ab9b9e784f5f0b1b364394ad703cacc5889088",
      "blockNumber": 79487,
      "transactionIndex": 1,
      "confirmations": null,
      "from": "0x4d67f2AB8599fef5Fc413999Aa01FD7fcE70B43D",
      "gasPrice": {
        "_hex": "0xd6ca5d0f5"
      },
      "gasLimit": {
        "_hex": "0x55f0"
      },
      "to": "0x60f7C29656Fc491e766750556fE4F0E407f81eB5",
      "value": {
        "_hex": "0xc7d713b49da0000"
      },
      "nonce": 7,
      "data": "0x",
      "r": "0x1719da78c4b2eaf53f5f3774b9310f625dc080935225c7ecef4770350c48c40a",
      "s": "0x780a5e2dc8b6d3a3587a4c2d3c6f3dc70a491315a6d28ebe05917b6076c4f8e6",
      "v": 28,
      "creates": null,
      "raw": "0xf86c07850d6ca5d0f58255f09460f7c29656fc491e766750556fe4f0e407f81eb5880c7d713b49da0000801ca01719da78c4b2eaf53f5f3774b9310f625dc080935225c7ecef4770350c48c40aa0780a5e2dc8b6d3a3587a4c2d3c6f3dc70a491315a6d28ebe05917b6076c4f8e6",
      "networkId": 0,
      "chainId": 0
    }
  ]
}