{
  "hash": "0x5c9bc03922dc871a1e295f853d0ac204b75ec1b185291a1462707d922ba6810c",
  "parentHash": "0x2e79e79a04a56237dd35eff572b0da169b0f6e8f058084a0472c19221c924c90",
  "number": 85352,
  "timestamp": 1439562310,
  "nonce": "0x98f447bf3242da6e",
  "difficulty": 2734330840962,
  "gasLimit": {
    "_hex": "0x2fefd8"
  },
  "gasUsed": {
    "_hex": "0x5208"
  },
  "miner": "0x4E9f76CBc24805BF1Db0fb2113B3FAb42F9879Df",
  "extraData": "0xdd809b302e392e34302b2b616339392d5257696e646f2f6d73762f4a4954",
  "transactions": [
    {
      "hash": "0x576b3e2d46f2f22dfd1e4fb100cfb2dcc7a350f9815042e9914da96d0c4f09c4",
      "blockHash": "0x5c9bc03922dc871a1e295f853d0ac204b75ec1b185291a1462707d922ba6810c",
      "blockNumber": 85352,
      "transactionIndex": 0,
      "confirmations": null,
      "from": "0x2f86ba8019945f39edE131D38d4d8780884DA553",
      "gasPrice": {
        "_hex": "0xd7b64588d"
      },
      "gasLimit": {
        "_hex": "0x5208"
      },
      "to": "0x32Be343B94f860124dC4fEe278FDCBD38C102D88",
      "value": {
        "_hex": "0xa05a68ee4893880000"
      },
      "nonce": 12,
      "data": "0x",
      "r": "0x8f023279ad8285be757280e81553bed932f084a9d05acd9b9a331f17306ff48c",
      "s": "0x1e1a055dc27318e47e8dcc85141d46c7bdab1775b626de9adc64ad2706ef0df7",
      "v": 27,
      "creates": null,
      "raw": "0xf86d0c850d7b64588d8252089432be343b94f860124dc4fee278fdcbd38c102d8889a05a68ee4893880000801ba08f023279ad8285be757280e81553bed932f084a9d05acd9b9a331f17306ff48ca01e1a055dc27318e47e8dcc85141d46c7bdab1775b626de9adc64ad2706ef0df7",
      "networkId": 0,
      "chainId": 0
    }
  ]
}