{
  "hash": "0xaf920b4d1b48554ae4f2247b12d2c8fa910aa3d0e11fe24d10540ca2df31eff8",
  "parentHash": "0x5a718f08f5d163bf8fb7f2af315f0767200c9d06bb02ec191601c9353478972e",
  "number": 96041,
  "timestamp": 1439733932,
  "nonce": "0xa2eeda822f4a24bf",
  "difficulty": 3637270832096,
  "gasLimit": {
    "_hex": "0x2fefd8"
  },
  "gasUsed": {
    "_hex": "0xa410"
  },
  "miner": "0xe6A7a1d47ff21B6321162AEA7C6CB457D5476Bca",
  "extraData": "0x476574682f76312e302e312d38326566323666362f6c696e75782f676f312e34",
  "transactions": [
    {
      "hash": "0x97f787b993ba40a7331e55f64c6e72a52de25c9d93fd63c08502c293a2fdadc9",
      "blockHash": "0xaf920b4d1b48554ae4f2247b12d2c8fa910aa3d0e11fe24d10540ca2df31eff8",
      "blockNumber": 96041,
      "transactionIndex": 0,
      "confirmations": null,
      "from": "0x007f7f58D3eb5b7510A301eCC749FC1fCDDBE14D",
      "gasPrice": {
        "_hex": "0xcc8ddf695"
      },
      "gasLimit": {
        "_hex": "0x15f90"
      },
      "to": "0xb1abce2918E21ddb93AA452731a12672A3d9F75a",
      "value": {
        "_hex": "0x4563918244f40000"
      },
      "nonce": 68,
      "data": "0x",
      "r": "0x36cec106b41ca80a177872cc43245f7e55fc40c807b3c259e9cdc27c26c4ae35",
      "s": "0x2e23fe7669f2c3ede65387095464f1e890aab74b49a1752f0bd93c76ee5da649",
      "v": 27,
      "creates": null,
      "raw": "0xf86d44850cc8ddf69583015f9094b1abce2918e21ddb93aa452731a12672a3d9f75a884563918244f40000801ba036cec106b41ca80a177872cc43245f7e55fc40c807b3c259e9cdc27c26c4ae35a02e23fe7669f2c3ede65387095464f1e890aab74b49a1752f0bd93c76ee5da649",
      "networkId": 0,
      "chainId": 0
    },
    {
      "hash": "0x32304e80ed772ced4b202123ec6f4237000f354e8f122aa787fe222d5c3a3e22",
      "blockHash": "0xaf920b4d1b48554ae4f2247b12d2c8fa910aa3d0e11fe24d10540ca2df31eff8",
      "blockNumber": 96041,
      "transactionIndex": 1,
      "confirmations": null,
      "from": "0xc597A5d92F5dC1137D847db733cfe02c6d209f13",
      "gasPrice": {
        "_hex": "0xcad1848a2"
      },
      "gasLimit": {
        "_hex": "0x15f90"
      },
      "to": "0xC756a750a6c04844BBd9773E948d41610284FdC2",
      "value": {
        "_hex": "0x2af6b3b2f17018000"
      },
      "nonce": 34,
      "data": "0x",
      "r": "0x7dd252f7e49f3d27a0abc210649c278e9f50561fe90af880ab10a55fe5cfd7f4",
      "s": "0x7776b560879cc00efac8e8b68fe794a08f28b99cc729db2c1445d48c8b73c349",
      "v": 27,
      "creates": null,
      "raw": "0xf86e22850cad1848a283015f9094c756a750a6c04844bbd9773e948d41610284fdc28902af6b3b2f17018000801ba07dd252f7e49f3d27a0abc210649c278e9f50561fe90af880ab10a55fe5cfd7f4a07776b560879cc00efac8e8b68fe794a08f28b99cc729db2c1445d48c8b73c349",
      "networkId": 0,
      "chainId": 0
    }
  ]
}