{
  "hash": "0xf4e3e761e692fd08d70aa0cfecdef223cab3bc937a524b85bc084768ddf95833",
  "parentHash": "0x3bdf186cca8ec30a722932e0258af68dc1f678bc6b344e7e3d08472a3612f321",
  "number": 105429,
  "timestamp": 1439887429,
  "nonce": "0x8d11d14ff1fb37fb",
  "difficulty": 4382478828732,
  "gasLimit": {
    "_hex": "0x2fefd8"
  },
  "gasUsed": {
    "_hex": "0x23e38"
  },
  "miner": "0x88D74a59454F6cF3B51ef6b9136AFb6b9D405A88",
  "extraData": "0x476574682f76312e302e312d39393231366634612f6c696e75782f676f312e34",
  "transactions": [
    {
      "hash": "0xcafaf4253ae64119721eddecf325696f18b018e3065493dd44215697d030943d",
      "blockHash": "0xf4e3e761e692fd08d70aa0cfecdef223cab3bc937a524b85bc084768ddf95833",
      "blockNumber": 105429,
      "transactionIndex": 0,
      "confirmations": null,
      "from": "0x8461Ecc4a6A45eb1a5b947FB86B88069b91fcD6F",
      "gasPrice": {
        "_hex": "0x10c421a41c6"
      },
      "gasLimit": {
        "_hex": "0x7530"
      },
      "to": "0x6A62b5108FE4EDDd296093fFB802B67B85E90ddE",
      "value": {
        "_hex": "0x1b4fbd92b5f8000"
      },
      "nonce": 4,
      "data": "0x",
      "r": "0x32a6985ae313556795b1a7ed202828da04a6791b63d00b794821b10407dd460d",
      "s": "0x06893aa8801863c97a34178627dfdcb62bf942577c0e9014b7d9a8fcdfcc2af8",
      "v": 27,
      "creates": null,
      "raw": "0xf86d0486010c421a41c6827530946a62b5108fe4eddd296093ffb802b67b85e90dde8801b4fbd92b5f8000801ba032a6985ae313556795b1a7ed202828da04a6791b63d00b794821b10407dd460da006893aa8801863c97a34178627dfdcb62bf942577c0e9014b7d9a8fcdfcc2af8",
      "networkId": 0,
      "chainId": 0
    },
    {
      "hash": "0x38c54da7cd808e41a7ca8d968ffa2c49ec1bddd798e6812cc9525991f35dc85f",
      "blockHash": "0xf4e3e761e692fd08d70aa0cfecdef223cab3bc937a524b85bc084768ddf95833",
      "blockNumber": 105429,
      "transactionIndex": 1,
      "confirmations": null,
      "from": "0x463eADDDA71F29F36365F889EA7E6fcDBe1cF0c8",
      "gasPrice": {
        "_hex": "0xd25d91890"
      },
      "gasLimit": {
        "_hex": "0x5208"
      },
      "to": "0x32Be343B94f860124dC4fEe278FDCBD38C102D88",
      "value": {
        "_hex": "0x423a8edb66bb60000"
      },
      "nonce": 5,
      "data": "0x",
      "r": "0xd6fecabaf8e2ac45022f5dbded027c8e63051613a82f35731a7d12039aa8a051",
      "s": "0x616a76d3c3e3813ee5f67ef50478849c5ad6a1f3f73c759e20a7722936610238",
      "v": 27,
      "creates": null,
      "raw": "0xf86d05850d25d918908252089432be343b94f860124dc4fee278fdcbd38c102d88890423a8edb66bb60000801ba0d6fecabaf8e2ac45022f5dbded027c8e63051613a82f35731a7d12039aa8a051a0616a76d3c3e3813ee5f67ef50478849c5ad6a1f3f73c759e20a7722936610238",
      "networkId": 0,
      "chainId": 0
    },
    {
      "hash": "0x792d9b44f3549f09301157bde87da5701aa9543b4e119f680d0833dee44ce79e",
      "blockHash": "0xf4e3e761e692fd08d70aa0cfecdef223cab3bc937a524b85bc084768ddf95833",
      "blockNumber": 105429,
      "transactionIndex": 2,
      "confirmations": null,
      "from": "0xC711d87af18Db9a7EbE2CFB279b73c8785E55d41",
      "gasPrice": {
        "_hex": "0xd25d91890"
      },
      "gasLimit": {
        "_hex": "0x5208"
      },
      "to": "0x32Be343B94f860124dC4fEe278FDCBD38C102D88",
      "value": {
        "_hex": "0x4ce8568e25dd4c00"
      },
      "nonce": 5,
      "data": "0x",
      "r": "0x08c4cea72f22d5e50f2302797757decd301c978b6dcb84636ca2977632b0275e",
      "s": "0x0d54d34b09ae9a573b07605085bffbcdd863e48632a91b930486a39f176cb747",
      "v": 28,
      "creates": null,
      "raw": "0xf86c05850d25d918908252089432be343b94f860124dc4fee278fdcbd38c102d88884ce8568e25dd4c00801ca008c4cea72f22d5e50f2302797757decd301c978b6dcb84636ca2977632b0275ea00d54d34b09ae9a573b07605085bffbcdd863e48632a91b930486a39f176cb747",
      "networkId": 0,
      "chainId": 0
    },
    {
      "hash": "0xf8ddca714eabafc58d783b1000a48f5d13a28be241518119074576d26c881c6f",
      "blockHash": "0xf4e3e761e692fd08d70aa0cfecdef223cab3bc937a524b85bc084768ddf95833",
      "blockNumber": 105429,
      "transactionIndex": 3,
      "confirmations": null,
      "from": "0x4CD33268dF93C6b4F6b3D504009EAE965Afe272d",
      "gasPrice": {
        "_hex": "0xd052a67d2"
      },
      "gasLimit": {
        "_hex": "0x5208"
      },
      "to": "0x32Be343B94f860124dC4fEe278FDCBD38C102D88",
      "value": {
        "_hex": "0xa66b8176ca0c3800"
      },
      "nonce": 5,
      "data": "0x",
      "r": "0x880b54a42ae36c75ea1497743b4589392e55ddbae440d0bb8436b17f7695ea5e",
      "s": "0x572fe8284f46fd9a2c815821ff81b792c5478808d84bac1e5bc398c548dacbbb",
      "v": 27,
      "creates": null,
      "raw": "0xf86c05850d052a67d28252089432be343b94f860124dc4fee278fdcbd38c102d8888a66b8176ca0c3800801ba0880b54a42ae36c75ea1497743b4589392e55ddbae440d0bb8436b17f7695ea5ea0572fe8284f46fd9a2c815821ff81b792c5478808d84bac1e5bc398c548dacbbb",
      "networkId": 0,
      "chainId": 0
    },
    {
      "hash": "0xfc4aa5d3278273d439f5a1646faa71e51f6ebb080c59878e4e33eb3d3f2aad56",
      "blockHash": "0xf4e3e761e692fd08d70aa0cfecdef223cab3bc937a524b85bc084768ddf95833",
      "blockNumber": 105429,
      "transactionIndex": 4,
      "confirmations": null,
      "from": "0xD72ab61a64fEAeE7b5EB3D42B5445858B95d38fd",
      "gasPrice": {
        "_hex": "0xd052a67d2"
      },
      "gasLimit": {
        "_hex": "0x5208"
      },
      "to": "0x32Be343B94f860124dC4fEe278FDCBD38C102D88",
      "value": {
        "_hex": "0xe24bac9b92558800"
      },
      "nonce": 5,
      "data": "0x",
      "r": "0x3a621459e70b7620a5083e5aa3d46dbe74d73ba3b92c7188e2f6a1cf90f8c2bb",
      "s": "0x16c8f8f1db811a3c899b3cff9c010ba5b48cf900fca6896140c9c1d592afe7c4",
      "v": 27,
      "creates": null,
      "raw": "0xf86c05850d052a67d28252089432be343b94f860124dc4fee278fdcbd38c102d8888e24bac9b92558800801ba03a621459e70b7620a5083e5aa3d46dbe74d73ba3b92c7188e2f6a1cf90f8c2bba016c8f8f1db811a3c899b3cff9c010ba5b48cf900fca6896140c9c1d592afe7c4",
      "networkId": 0,
      "chainId": 0
    },
    {
      "hash": "0xcf938ee4d45c2cfcb579ebd33175036867a682bf2bb239da7e74266cb27b3d59",
      "blockHash": "0xf4e3e761e692fd08d70aa0cfecdef223cab3bc937a524b85bc084768ddf95833",
      "blockNumber": 105429,
      "transactionIndex": 5,
      "confirmations": null,
      "from": "0xf97e4688e66CD658F9666d93FD97f779b80218a0",
      "gasPrice": {
        "_hex": "0xd052a67d2"
      },
      "gasLimit": {
        "_hex": "0x5208"
      },
      "to": "0x32Be343B94f860124dC4fEe278FDCBD38C102D88",
      "value": {
        "_hex": "0x2cbebe0b89393800"
      },
      "nonce": 5,
      "data": "0x",
      "r": "0x918d858686ec1b03f39735b7960a84f70e35c96a9ea0ba5d6f1ead2a7a345303",
      "s": "0x3554686ec5ef7ce2d3345bba6c743586207a63cdd5b3aee1b7444ebbb2022632",
      "v": 27,
      "creates": null,
      "raw": "0xf86c05850d052a67d28252089432be343b94f860124dc4fee278fdcbd38c102d88882cbebe0b89393800801ba0918d858686ec1b03f39735b7960a84f70e35c96a9ea0ba5d6f1ead2a7a345303a03554686ec5ef7ce2d3345bba6c743586207a63cdd5b3aee1b7444ebbb2022632",
      "networkId": 0,
      "chainId": 0
    },
    {
      "hash": "0xeb8f997367a5bbd3617f2b96f0217dddbe1b63c6e360cd7a769b85014dc2e556",
      "blockHash": "0xf4e3e761e692fd08d70aa0cfecdef223cab3bc937a524b85bc084768ddf95833",
      "blockNumber": 105429,
      "transactionIndex": 6,
      "confirmations": null,
      "from": "0xFAF4d1326d886D8dFe403B3F8A00DC7a7EA05629",
      "gasPrice": {
        "_hex": "0xd052a67d2"
      },
      "gasLimit": {
        "_hex": "0x5208"
      },
      "to": "0x32Be343B94f860124dC4fEe278FDCBD38C102D88",
      "value": {
        "_hex": "0x5798e0c3f5648400"
      },
      "nonce": 5,
      "data": "0x",
      "r": "0x461806e5460b309d3bdc4b7b06086105cbaad7b74385c5029767a0d8b87974f9",
      "s": "0x4ea79865e192acf864c25c2600ee24e6530f6b65bc52d0b8bbd0c4de080262e4",
      "v": 27,
      "creates": null,
      "raw": "0xf86c05850d052a67d28252089432be343b94f860124dc4fee278fdcbd38c102d88885798e0c3f5648400801ba0461806e5460b309d3bdc4b7b06086105cbaad7b74385c5029767a0d8b87974f9a04ea79865e192acf864c25c2600ee24e6530f6b65bc52d0b8bbd0c4de080262e4",
      "networkId": 0,
      "chainId": 0
    }
  ]
}