{
  "hash": "0x519296f8401af954cdb0000849d35bb0bc1bb5c2423b34def84301dd3dbc0b06",
  "parentHash": "0xf5abbe260e788a9f52ed88309beec64da914c90838193e50447eb6515a55d982",
  "number": 120255,
  "timestamp": 1440156865,
  "nonce": "0x9da55f4124314ea4",
  "difficulty": 4409051603477,
  "gasLimit": {
    "_hex": "0x2fefd8"
  },
  "gasUsed": {
    "_hex": "0x5208"
  },
  "miner": "0xe6A7a1d47ff21B6321162AEA7C6CB457D5476Bca",
  "extraData": "0xd783010002844765746887676f312e342e32856c696e7578",
  "transactions": [
    {
      "hash": "0x26275d9e064f2afaa8affe6dfeb1ebd0b36f44b0595c68f85d0725403846a728",
      "blockHash": "0x519296f8401af954cdb0000849d35bb0bc1bb5c2423b34def84301dd3dbc0b06",
      "blockNumber": 120255,
      "transactionIndex": 0,
      "confirmations": null,
      "from": "0x608f4b86321a68453f9adf6F06F7Fc3E621739ad",
      "gasPrice": {
        "_hex": "0xba43b7400"
      },
      "gasLimit": {
        "_hex": "0x5208"
      },
      "to": "0x32Be343B94f860124dC4fEe278FDCBD38C102D88",
      "value": {
        "_hex": "0x4563918244f40000"
      },
      "nonce": 60,
      "data": "0x",
      "r": "0x065dbb25e3b72b7e18b2869ebe7e388c43cc01fd59c5421b15c8395fbf06a697",
      "s": "0x19570203f0589ca4fa7a894d16c61caa97666ea60333e0d80f898a22218da658",
      "v": 28,
      "creates": null,
      "raw": "0xf86c3c850ba43b74008252089432be343b94f860124dc4fee278fdcbd38c102d88884563918244f40000801ca0065dbb25e3b72b7e18b2869ebe7e388c43cc01fd59c5421b15c8395fbf06a697a019570203f0589ca4fa7a894d16c61caa97666ea60333e0d80f898a22218da658",
      "networkId": 0,
      "chainId": 0
    }
  ]
}