{
  "hash": "0x81bbe3c61834d42f176a23eae4496dc79c2489b59d4a0fc6ebd3b55104c6083f",
  "parentHash": "0xd0c343c1b5de369cae2c7aa50767b4665aa5613ce04c0d911f3ff799401aa231",
  "number": 119480,
  "timestamp": 1440143715,
  "nonce": "0x2cd0a57d79dbb96e",
  "difficulty": 4394413295592,
  "gasLimit": {
    "_hex": "0x2fefd8"
  },
  "gasUsed": {
    "_hex": "0x5208"
  },
  "miner": "0x52bc44d5378309EE2abF1539BF71dE1b7d7bE3b5",
  "extraData": "0xd783010002844765746887676f312e342e32856c696e7578",
  "transactions": [
    {
      "hash": "0x674292bb09209e9d556fdcbdfcc93ad6072cf9a61241b1af2ef5c42550e09ba0",
      "blockHash": "0x81bbe3c61834d42f176a23eae4496dc79c2489b59d4a0fc6ebd3b55104c6083f",
      "blockNumber": 119480,
      "transactionIndex": 0,
      "confirmations": null,
      "from": "0x49f0609Ed78ee50FAa268a9Bdeb2949fa50d83eD",
      "gasPrice": {
        "_hex": "0xba43b7400"
      },
      "gasLimit": {
        "_hex": "0x5208"
      },
      "to": "0x32Be343B94f860124dC4fEe278FDCBD38C102D88",
      "value": {
        "_hex": "0x6a224a6d2d465c00"
      },
      "nonce": 5,
      "data": "0x",
      "r": "0x9d4a40483861438bdd73d204afeda622118084ac0131335939e20b0a893c62b4",
      "s": "0x27937601c820b2066ec8fb590b64720e9d1a6ab1ff69a7dd5f05f6384fe8d77e",
      "v": 28,
      "creates": null,
      "raw": "0xf86c05850ba43b74008252089432be343b94f860124dc4fee278fdcbd38c102d88886a224a6d2d465c00801ca09d4a40483861438bdd73d204afeda622118084ac0131335939e20b0a893c62b4a027937601c820b2066ec8fb590b64720e9d1a6ab1ff69a7dd5f05f6384fe8d77e",
      "networkId": 0,
      "chainId": 0
    }
  ]
}