{
  "hash": "0xc558e2840abd6b4b363d6b0051d4f247bc28639186e4bf0c09386f0d50c09068",
  "parentHash": "0x76057149fb212035277daa95fd37ab281daa92cbbfb34ad4dd71eabf70a129ac",
  "number": 84621,
  "timestamp": 1439552222,
  "nonce": "0xc10c8a6a5bd56080",
  "difficulty": 2590302488466,
  "gasLimit": {
    "_hex": "0x2fefd8"
  },
  "gasUsed": {
    "_hex": "0x546c"
  },
  "miner": "0x785ffdDd5cE55c6DF963f345e68d3F2024E5Acb1",
  "extraData": "0x",
  "transactions": [
    {
      "hash": "0x252711b38b45ace0e0f148dfe6065139b668324840f8b8875ac1a22994ad5d14",
      "blockHash": "0xc558e2840abd6b4b363d6b0051d4f247bc28639186e4bf0c09386f0d50c09068",
      "blockNumber": 84621,
      "transactionIndex": 0,
      "confirmations": null,
      "from": "0x32EF5Cdc671dF5562a901AeE5DB716B9bE76Dcf6",
      "gasPrice": {
        "_hex": "0x110c8f7d8de"
      },
      "gasLimit": {
        "_hex": "0xc350"
      },
      "to": "0x2910543Af39abA0Cd09dBb2D50200b3E800A63D2",
      "value": {
        "_hex": "0x6c262fca09784c0000"
      },
      "nonce": 1,
      "data": "0x454e55384735584438",
      "r": "0x4a3cb4c2f17a7ea5f343e0f99c6a3868aae15cdd377e701c649281c6d1d51a24",
      "s": "0x41943a7a3d8be753bfe1a71a35e89ee7c162f93af7948daa32a60ebb84854e13",
      "v": 27,
      "creates": null,
      "raw": "0xf87701860110c8f7d8de82c350942910543af39aba0cd09dbb2d50200b3e800a63d2896c262fca09784c000089454e553847355844381ba04a3cb4c2f17a7ea5f343e0f99c6a3868aae15cdd377e701c649281c6d1d51a24a041943a7a3d8be753bfe1a71a35e89ee7c162f93af7948daa32a60ebb84854e13",
      "networkId": 0,
      "chainId": 0
    }
  ]
}