{
  "hash": "0x782a59a5615800c75e933615ed04e6b28542744966e7baf3d14ddc8a68e94a65",
  "parentHash": "0x2878c9ebd2e0974d615f509151bdb14639850cdc641e665aaa9d17e802130338",
  "number": 90079,
  "timestamp": 1439633962,
  "nonce": "0xe94bd47c2501fc5c",
  "difficulty": 3336860135097,
  "gasLimit": {
    "_hex": "0x2fefd8"
  },
  "gasUsed": {
    "_hex": "0x5208"
  },
  "miner": "0xe6A7a1d47ff21B6321162AEA7C6CB457D5476Bca",
  "extraData": "0x476574682f76312e302e312d38326566323666362f6c696e75782f676f312e34",
  "transactions": [
    {
      "hash": "0x2fca751f1ca0e2b0dff2bb54f69d92a808a7f2144db2a559699c67bc95790ffe",
      "blockHash": "0x782a59a5615800c75e933615ed04e6b28542744966e7baf3d14ddc8a68e94a65",
      "blockNumber": 90079,
      "transactionIndex": 0,
      "confirmations": null,
      "from": "0x9040C4FEa1b297d3e033743bB8dFF3485fE80cFd",
      "gasPrice": {
        "_hex": "0xdbb8dbd6f"
      },
      "gasLimit": {
        "_hex": "0x5208"
      },
      "to": "0x32Be343B94f860124dC4fEe278FDCBD38C102D88",
      "value": {
        "_hex": "0xddc50314a534c00"
      },
      "nonce": 0,
      "data": "0x",
      "r": "0x3a28f9399bf27b5e354488c730269c44176e746f22ba8f30a722bc64a2d2eab0",
      "s": "0x3e44a685d1cc35746f14b4d4a29e9211b35066c359a41eda5505d9bd2ebbe8dc",
      "v": 27,
      "creates": null,
      "raw": "0xf86c80850dbb8dbd6f8252089432be343b94f860124dc4fee278fdcbd38c102d88880ddc50314a534c00801ba03a28f9399bf27b5e354488c730269c44176e746f22ba8f30a722bc64a2d2eab0a03e44a685d1cc35746f14b4d4a29e9211b35066c359a41eda5505d9bd2ebbe8dc",
      "networkId": 0,
      "chainId": 0
    }
  ]
}