{
  "hash": "0x15b3822d2c6c2b043d835ec67c35847747d2a869b6c44be70db175b886f6a199",
  "parentHash": "0x7819aa6d9e6bea244a274485c51248f74145efd49de376abf801b34c9f027453",
  "number": 117896,
  "timestamp": 1440117149,
  "nonce": "0x2276ebfa01bfbdf2",
  "difficulty": 4344037022297,
  "gasLimit": {
    "_hex": "0x2fefd8"
  },
  "gasUsed": {
    "_hex": "0x5208"
  },
  "miner": "0xe6A7a1d47ff21B6321162AEA7C6CB457D5476Bca",
  "extraData": "0xd783010002844765746887676f312e342e32856c696e7578",
  "transactions": [
    {
      "hash": "0x430235e1eb046b48068565b95f4cf134eca91dab8e76056bc88a270b819bf6ad",
      "blockHash": "0x15b3822d2c6c2b043d835ec67c35847747d2a869b6c44be70db175b886f6a199",
      "blockNumber": 117896,
      "transactionIndex": 0,
      "confirmations": null,
      "from": "0x357A01795bfA480a007fB4B1B6eDf2e8C23f1840",
      "gasPrice": {
        "_hex": "0xba43b7400"
      },
      "gasLimit": {
        "_hex": "0x5208"
      },
      "to": "0x32Be343B94f860124dC4fEe278FDCBD38C102D88",
      "value": {
        "_hex": "0x15aa41ac817e0c00"
      },
      "nonce": 10,
      "data": "0x",
      "r": "0x0a127e57dd39209412e92c0bb22c6a75fd2f513a87aade2dfb555e3b898f7813",
      "s": "0x0df48e9aa5bbad8050ed714da350daa85871a5db58762a9c2812c5d62331b436",
      "v": 27,
      "creates": null,
      "raw": "0xf86c0a850ba43b74008252089432be343b94f860124dc4fee278fdcbd38c102d888815aa41ac817e0c00801ba00a127e57dd39209412e92c0bb22c6a75fd2f513a87aade2dfb555e3b898f7813a00df48e9aa5bbad8050ed714da350daa85871a5db58762a9c2812c5d62331b436",
      "networkId": 0,
      "chainId": 0
    }
  ]
}