{
  "hash": "0x099edea0321301055a367a94a0add249df33f793c65c49bdb45eab5c4516e3b1",
  "parentHash": "0xa160385d4dc8f5183b57ffcfa6b1ee05e90cf4334410844e6611272c83c2309a",
  "number": 93594,
  "timestamp": 1439693896,
  "nonce": "0x5262de7db3a22fd0",
  "difficulty": 3470025869783,
  "gasLimit": {
    "_hex": "0x2fefd8"
  },
  "gasUsed": {
    "_hex": "0x5208"
  },
  "miner": "0x445Aa5d2cB3Bc1A77460aB63C13328368d12fb9F",
  "extraData": "0x476574682f76312e302e312f6c696e75782f676f312e342e32",
  "transactions": [
    {
      "hash": "0x1e1ff2a9fff4e59f27e966a23cc59cda6fbfb228fa0e535446aae1e995d52428",
      "blockHash": "0x099edea0321301055a367a94a0add249df33f793c65c49bdb45eab5c4516e3b1",
      "blockNumber": 93594,
      "transactionIndex": 0,
      "confirmations": null,
      "from": "0x32Be343B94f860124dC4fEe278FDCBD38C102D88",
      "gasPrice": {
        "_hex": "0xd1f822363"
      },
      "gasLimit": {
        "_hex": "0x5208"
      },
      "to": "0xCb9245908Fec879CFCDbc5574B473ABa09405901",
      "value": {
        "_hex": "0x1526ff53f6d4c800"
      },
      "nonce": 928,
      "data": "0x",
      "r": "0x55cd86da1a7aec5d91311baf3e8627c3c0b24b37bfc2dba9563fbdac967b99f1",
      "s": "0x1b3da41f784f21b4b848ea18f9fd034c8bfff53cdcea450c9c3b4a8a3f5960df",
      "v": 27,
      "creates": null,
      "raw": "0xf86e8203a0850d1f82236382520894cb9245908fec879cfcdbc5574b473aba09405901881526ff53f6d4c800801ba055cd86da1a7aec5d91311baf3e8627c3c0b24b37bfc2dba9563fbdac967b99f1a01b3da41f784f21b4b848ea18f9fd034c8bfff53cdcea450c9c3b4a8a3f5960df",
      "networkId": 0,
      "chainId": 0
    }
  ]
}