{
  "hash": "0x43d99b70f84e3bbbe647e2884836bd2f49ce8642272fa118f9949c1dd4d40639",
  "parentHash": "0x1327ab2b9c12167de682e43b2f1a3c40af5f085f2382900eb00735f2de1a4438",
  "number": 105403,
  "timestamp": 1439887056,
  "nonce": "0xc9ff58693fe03615",
  "difficulty": 4361145680025,
  "gasLimit": {
    "_hex": "0x2fefd8"
  },
  "gasUsed": {
    "_hex": "0xf618"
  },
  "miner": "0xe6A7a1d47ff21B6321162AEA7C6CB457D5476Bca",
  "extraData": "0x476574682f76312e302e312d38326566323666362f6c696e75782f676f312e34",
  "transactions": [
    {
      "hash": "0xf5f32796fa626c037c0ed225a1b27b76a34e72c3023a46ae58d7b3eb5dcf2389",
      "blockHash": "0x43d99b70f84e3bbbe647e2884836bd2f49ce8642272fa118f9949c1dd4d40639",
      "blockNumber": 105403,
      "transactionIndex": 0,
      "confirmations": null,
      "from": "0x0d62E666D681E8Be96903Ac4aBD3537f28c6125A",
      "gasPrice": {
        "_hex": "0xda1d9576c"
      },
      "gasLimit": {
        "_hex": "0x5208"
      },
      "to": "0x32Be343B94f860124dC4fEe278FDCBD38C102D88",
      "value": {
        "_hex": "0x6c53060c84c3cc00"
      },
      "nonce": 6,
      "data": "0x",
      "r": "0xeb4d0ef02b80a26e0fd68fc0536d976c0f8bfd24e69842b1974d1eec8fb73805",
      "s": "0x13328603395f7f19c2513342e7cf4d9ad0006a9c510669e75a7d598e0f562d35",
      "v": 28,
      "creates": null,
      "raw": "0xf86c06850da1d9576c8252089432be343b94f860124dc4fee278fdcbd38c102d88886c53060c84c3cc00801ca0eb4d0ef02b80a26e0fd68fc0536d976c0f8bfd24e69842b1974d1eec8fb73805a013328603395f7f19c2513342e7cf4d9ad0006a9c510669e75a7d598e0f562d35",
      "networkId": 0,
      "chainId": 0
    },
    {
      "hash": "0x778cb16982e2fcf51433cdcb6c8d1b49849c3b3d7939a6b2a425202775751b1e",
      "blockHash": "0x43d99b70f84e3bbbe647e2884836bd2f49ce8642272fa118f9949c1dd4d40639",
      "blockNumber": 105403,
      "transactionIndex": 1,
      "confirmations": null,
      "from": "0x7fDF07A0f977e4032C1f082Df831423abf58D13D",
      "gasPrice": {
        "_hex": "0xda1d9576c"
      },
      "gasLimit": {
        "_hex": "0x5208"
      },
      "to": "0x32Be343B94f860124dC4fEe278FDCBD38C102D88",
      "value": {
        "_hex": "0x2e559d7f91f12c00"
      },
      "nonce": 5,
      "data": "0x",
      "r": "0x67aa4eea73895a94f68b23624cc45297c14a3a484439ca8bb29f2332155260c0",
      "s": "0x06439a7ef4c7bddd0e17c7197bc7fc802ba8fbe6a0f087c5c39ad5530c67fdee",
      "v": 27,
      "creates": null,
      "raw": "0xf86c05850da1d9576c8252089432be343b94f860124dc4fee278fdcbd38c102d88882e559d7f91f12c00801ba067aa4eea73895a94f68b23624cc45297c14a3a484439ca8bb29f2332155260c0a006439a7ef4c7bddd0e17c7197bc7fc802ba8fbe6a0f087c5c39ad5530c67fdee",
      "networkId": 0,
      "chainId": 0
    },
    {
      "hash": "0x4bae772d0bc92470519ee1f9de5ff47b7c2c7abfbd21bf02f7edac1e451c5736",
      "blockHash": "0x43d99b70f84e3bbbe647e2884836bd2f49ce8642272fa118f9949c1dd4d40639",
      "blockNumber": 105403,
      "transactionIndex": 2,
      "confirmations": null,
      "from": "0x3629B45bBf972aDc23C064D31B7d7c6ce17415D5",
      "gasPrice": {
        "_hex": "0xda1d9576c"
      },
      "gasLimit": {
        "_hex": "0x5208"
      },
      "to": "0x32Be343B94f860124dC4fEe278FDCBD38C102D88",
      "value": {
        "_hex": "0x465117c0317db4000"
      },
      "nonce": 4,
      "data": "0x",
      "r": "0xe7c3d8913f6d34e885697242bba8333a4afac606019730cdd91c8dc8202666a2",
      "s": "0x2499e9fcefb2264bbfc642ad91e1ed6c6b57d1d003bc72055c2c8c6818fbc263",
      "v": 27,
      "creates": null,
      "raw": "0xf86d04850da1d9576c8252089432be343b94f860124dc4fee278fdcbd38c102d88890465117c0317db4000801ba0e7c3d8913f6d34e885697242bba8333a4afac606019730cdd91c8dc8202666a2a02499e9fcefb2264bbfc642ad91e1ed6c6b57d1d003bc72055c2c8c6818fbc263",
      "networkId": 0,
      "chainId": 0
    }
  ]
}