{
  "hash": "0x475b3e8e126c0b39be368874922e998a0470b3bcfc62fb9c9bb80534fc737167",
  "parentHash": "0x1a4d12a273837dea95467e97fdd197e91707110e45f90b15e8dc5e05db4d6581",
  "number": 113275,
  "timestamp": 1440020562,
  "nonce": "0x979df554e4dee572",
  "difficulty": 4526198112646,
  "gasLimit": {
    "_hex": "0x2fefd8"
  },
  "gasUsed": {
    "_hex": "0x5208"
  },
  "miner": "0x8Bf770A8F2F4cCa135f0699F96f4FB1CEb9c44c9",
  "extraData": "0x",
  "transactions": [
    {
      "hash": "0x1bc32cec945bd4916604c29a10d4792027d404503a58f2d0df3141d07b491e1a",
      "blockHash": "0x475b3e8e126c0b39be368874922e998a0470b3bcfc62fb9c9bb80534fc737167",
      "blockNumber": 113275,
      "transactionIndex": 0,
      "confirmations": null,
      "from": "0xFc8B1B712E10a89E87176215AED8352b323B7265",
      "gasPrice": {
        "_hex": "0xcf43bcf28"
      },
      "gasLimit": {
        "_hex": "0x5208"
      },
      "to": "0x32Be343B94f860124dC4fEe278FDCBD38C102D88",
      "value": {
        "_hex": "0x22ada21e779d2800"
      },
      "nonce": 2,
      "data": "0x",
      "r": "0x1937b78d77b75e246fdafe0ef5116a9c43b339de465f779eca03949579b78d88",
      "s": "0x53353251ab16a555c219eb10a42020a9a75297bc7cdf7a79398809f86cd0d17d",
      "v": 28,
      "creates": null,
      "raw": "0xf86c02850cf43bcf288252089432be343b94f860124dc4fee278fdcbd38c102d888822ada21e779d2800801ca01937b78d77b75e246fdafe0ef5116a9c43b339de465f779eca03949579b78d88a053353251ab16a555c219eb10a42020a9a75297bc7cdf7a79398809f86cd0d17d",
      "networkId": 0,
      "chainId": 0
    }
  ]
}