{
  "hash": "0x4bf9eb31bfa73d382319d9f83c5ff56dd7c795ec3aa9bff81a0720346a6b9b11",
  "parentHash": "0x8aa55a4637be59778e3b80fa0f9b1a86934b8a1d720b7a45a8ab720167d9ccc5",
  "number": 86441,
  "timestamp": 1439578190,
  "nonce": "0x9a5abb698eab147c",
  "difficulty": 2897540852228,
  "gasLimit": {
    "_hex": "0x2fefd8"
  },
  "gasUsed": {
    "_hex": "0x5208"
  },
  "miner": "0xe6A7a1d47ff21B6321162AEA7C6CB457D5476Bca",
  "extraData": "0x476574682f76312e302e312d38326566323666362f6c696e75782f676f312e34",
  "transactions": [
    {
      "hash": "0xe6db5e93514200ef78ce5c22408141f78c17c4f4dff2c77c8c324b4cfd524517",
      "blockHash": "0x4bf9eb31bfa73d382319d9f83c5ff56dd7c795ec3aa9bff81a0720346a6b9b11",
      "blockNumber": 86441,
      "transactionIndex": 0,
      "confirmations": null,
      "from": "0x8Bf770A8F2F4cCa135f0699F96f4FB1CEb9c44c9",
      "gasPrice": {
        "_hex": "0xd7d40ace3"
      },
      "gasLimit": {
        "_hex": "0x15f90"
      },
      "to": "0x13aE5B35f82651Ff327d41502F0Aa90DA76D777E",
      "value": {
        "_hex": "0x8c2a687ce7720000"
      },
      "nonce": 0,
      "data": "0x",
      "r": "0x2225b4c80e624042e2ea12b76971c65753799a45db51351bc6bc139e8508d403",
      "s": "0x47624336ccf5a2fb1354ee1f88b6985ca1262884309dd2bd4678cdc4deecdb74",
      "v": 27,
      "creates": null,
      "raw": "0xf86d80850d7d40ace383015f909413ae5b35f82651ff327d41502f0aa90da76d777e888c2a687ce7720000801ba02225b4c80e624042e2ea12b76971c65753799a45db51351bc6bc139e8508d403a047624336ccf5a2fb1354ee1f88b6985ca1262884309dd2bd4678cdc4deecdb74",
      "networkId": 0,
      "chainId": 0
    }
  ]
}