{
  "hash": "0xdc9b1a3facc50fc2ac136874659bd0bface66435e85d745080aa0d8ebe49d73b",
  "parentHash": "0xa39692ac65f06673b00e96a81314c88fda77499f0274cb899d8c1ff54d1de9bf",
  "number": 58338,
  "timestamp": 1439118960,
  "nonce": "0x689d2ce81e89226d",
  "difficulty": 1714944058927,
  "gasLimit": {
    "_hex": "0x2fefd8"
  },
  "gasUsed": {
    "_hex": "0x546c"
  },
  "miner": "0xbb7B8287f3F0a933474a79eAe42CBCa977791171",
  "extraData": "0x476574682f4c5649562f76312e302e312f6c696e75782f676f312e342e32",
  "transactions": [
    {
      "hash": "0x55056806f1cc11ff32c4d8d0c39c77a6868a2b7818548910edea41d982ba76a8",
      "blockHash": "0xdc9b1a3facc50fc2ac136874659bd0bface66435e85d745080aa0d8ebe49d73b",
      "blockNumber": 58338,
      "transactionIndex": 0,
      "confirmations": null,
      "from": "0x708A2AF425CeB01e87fFC1be54c0f532b20EaCD6",
      "gasPrice": {
        "_hex": "0xd1834f2a3"
      },
      "gasLimit": {
        "_hex": "0x55f0"
      },
      "to": "0x2910543Af39abA0Cd09dBb2D50200b3E800A63D2",
      "value": {
        "_hex": "0x6fd5ec8383fccf680"
      },
      "nonce": 1,
      "data": "0x454e59334d47575952",
      "r": "0xecfc67cc784a15f50b1fe1dc5c274794c70585aea1f4e22565d9c438b29f9c8a",
      "s": "0x4f4d99644693c70164487992449ed133daf896aa2d44606195de88949376072c",
      "v": 28,
      "creates": null,
      "raw": "0xf87601850d1834f2a38255f0942910543af39aba0cd09dbb2d50200b3e800a63d28906fd5ec8383fccf68089454e59334d475759521ca0ecfc67cc784a15f50b1fe1dc5c274794c70585aea1f4e22565d9c438b29f9c8aa04f4d99644693c70164487992449ed133daf896aa2d44606195de88949376072c",
      "networkId": 0,
      "chainId": 0
    }
  ]
}