{
  "hash": "0x54551e4cffa09ff2a74f119fe36c727a4149f218d0f7f9fb3b6750cbe9c4bc01",
  "parentHash": "0x2e4ef4dc00eb1bc53c73b86e0f9df7a3a00f2adcbfe2e94f76af6d9173263bd3",
  "number": 93790,
  "timestamp": 1439697827,
  "nonce": "0xf05737e1988fe526",
  "difficulty": 3429518708966,
  "gasLimit": {
    "_hex": "0x2fefd8"
  },
  "gasUsed": {
    "_hex": "0x520c"
  },
  "miner": "0xa70a9a7040d542C632D8e0bE7c5513A8a5Bbc752",
  "extraData": "0x",
  "transactions": [
    {
      "hash": "0x948b02b9f3a30813ddc1d8ce31ac1ec6113a3b7b28ba36eef795459bf76d3a9a",
      "blockHash": "0x54551e4cffa09ff2a74f119fe36c727a4149f218d0f7f9fb3b6750cbe9c4bc01",
      "blockNumber": 93790,
      "transactionIndex": 0,
      "confirmations": null,
      "from": "0x8375eA550366a24550ec93283600485F4Ba8CFE5",
      "gasPrice": {
        "_hex": "0xd9e7e57f0"
      },
      "gasLimit": {
        "_hex": "0x7530"
      },
      "to": "0xb9836ec1f42Bd48331bceaedb74a6Bcdc22832bD",
      "value": {
        "_hex": "0x11c37937e08000"
      },
      "nonce": 14,
      "data": "0x00",
      "r": "0x99dccb40cf1d374f956b2cc4de1a963798cef70200ec75fa944c75d63cc8990a",
      "s": "0x6ba735b48f87d1bd76e2ce16639886141adac7b280007c1044a3b90f80706909",
      "v": 28,
      "creates": null,
      "raw": "0xf86b0e850d9e7e57f082753094b9836ec1f42bd48331bceaedb74a6bcdc22832bd8711c37937e08000001ca099dccb40cf1d374f956b2cc4de1a963798cef70200ec75fa944c75d63cc8990aa06ba735b48f87d1bd76e2ce16639886141adac7b280007c1044a3b90f80706909",
      "networkId": 0,
      "chainId": 0
    }
  ]
}