{
  "hash": "0xe2a30e8d82ddb344774d77f7bd480769886579cc420e66f205d5080dbf9da88c",
  "parentHash": "0xead3beaf252356c223ab4492bb05175314191be3535b9889fa09ace9c0dc555f",
  "number": 70324,
  "timestamp": 1439318196,
  "nonce": "0xa5a49c7480d54092",
  "difficulty": 2133317326622,
  "gasLimit": {
    "_hex": "0x2fefd8"
  },
  "gasUsed": {
    "_hex": "0x5208"
  },
  "miner": "0xEc98b7A32A91F21203E7DB60feABDA1eDD7ef5bb",
  "extraData": "0x476574682f76312e302e312f6c696e75782f676f312e342e32",
  "transactions": [
    {
      "hash": "0xe914d2c1147555c0d4c5fc5c8a092318d78a3453e277dde17efb154d59e78931",
      "blockHash": "0xe2a30e8d82ddb344774d77f7bd480769886579cc420e66f205d5080dbf9da88c",
      "blockNumber": 70324,
      "transactionIndex": 0,
      "confirmations": null,
      "from": "0x232832cD5977e00a4c30D0163F2E24F088A6Cb09",
      "gasPrice": {
        "_hex": "0xfd8600bf76"
      },
      "gasLimit": {
        "_hex": "0x15f90"
      },
      "to": "0x919a0748E207c101103e6b771b7c3b7bd9c66015",
      "value": {
        "_hex": "0xa2937c529df47c0000"
      },
      "nonce": 2,
      "data": "0x",
      "r": "0x9304f59afc590e682abb8d20bc2fbbe44804ec415da509183745c49c2368a6be",
      "s": "0x22dbdee61b3cf20295bdca424f126f389c166acb9cbe0044f96f962987ec67bc",
      "v": 28,
      "creates": null,
      "raw": "0xf86e0285fd8600bf7683015f9094919a0748e207c101103e6b771b7c3b7bd9c6601589a2937c529df47c0000801ca09304f59afc590e682abb8d20bc2fbbe44804ec415da509183745c49c2368a6bea022dbdee61b3cf20295bdca424f126f389c166acb9cbe0044f96f962987ec67bc",
      "networkId": 0,
      "chainId": 0
    }
  ]
}