{
  "hash": "0x42914ea13ecb799b1f89b233600ca49545bc8948ca9d9152a8fce8524da59e71",
  "parentHash": "0x2d9b3862f56cd4e0df2618aa89e4779527189ac13c570848f571152c3cbd8e77",
  "number": 89769,
  "timestamp": 1439628755,
  "nonce": "0xac8a5cc8d44a230a",
  "difficulty": 3343507365907,
  "gasLimit": {
    "_hex": "0x2fefd8"
  },
  "gasUsed": {
    "_hex": "0x14820"
  },
  "miner": "0xe6A7a1d47ff21B6321162AEA7C6CB457D5476Bca",
  "extraData": "0x476574682f76312e302e312d38326566323666362f6c696e75782f676f312e34",
  "transactions": [
    {
      "hash": "0x2f40ab5cfb16f19306eb2d5ecf52c4f021547873642688de2ac15a0bcd38d09f",
      "blockHash": "0x42914ea13ecb799b1f89b233600ca49545bc8948ca9d9152a8fce8524da59e71",
      "blockNumber": 89769,
      "transactionIndex": 0,
      "confirmations": null,
      "from": "0xe6A7a1d47ff21B6321162AEA7C6CB457D5476Bca",
      "gasPrice": {
        "_hex": "0xd7b6a0c7f"
      },
      "gasLimit": {
        "_hex": "0x55f0"
      },
      "to": "0x6dC8a46AB80ED97E4073b96F78554A536E2e7152",
      "value": {
        "_hex": "0x18c90eccffe8bb1c"
      },
      "nonce": 2005,
      "data": "0x",
      "r": "0xc6c8fe1433ef9a333c214ff3abfc1c0cfeb75f60c4f42883a989e9577db44b35",
      "s": "0x017a6fe274aead91d732d1393110d14b0b95f8d5be9fd8365362424a67081060",
      "v": 27,
      "creates": null,
      "raw": "0xf86e8207d5850d7b6a0c7f8255f0946dc8a46ab80ed97e4073b96f78554a536e2e71528818c90eccffe8bb1c801ba0c6c8fe1433ef9a333c214ff3abfc1c0cfeb75f60c4f42883a989e9577db44b35a0017a6fe274aead91d732d1393110d14b0b95f8d5be9fd8365362424a67081060",
      "networkId": 0,
      "chainId": 0
    },
    {
      "hash": "0xdd94bc174b2b6547148a75b059e5070104b6b1d43b11c136addbdee799c9a8a3",
      "blockHash": "0x42914ea13ecb799b1f89b233600ca49545bc8948ca9d9152a8fce8524da59e71",
      "blockNumber": 89769,
      "transactionIndex": 1,
      "confirmations": null,
      "from": "0xe6A7a1d47ff21B6321162AEA7C6CB457D5476Bca",
      "gasPrice": {
        "_hex": "0xd7b6a0c7f"
      },
      "gasLimit": {
        "_hex": "0x55f0"
      },
      "to": "0x586c9f00191c01babA71993c5a6d6eE02905816d",
      "value": {
        "_hex": "0x18fb2d0a6c67ac20"
      },
      "nonce": 2006,
      "data": "0x",
      "r": "0x8d3fc63c76ebf19f1a8caad02757e33b4837fb52090758214bcba3e2cb66c65b",
      "s": "0x1f7d5748b3e4775488a2c3d01dd42b232d30e036dad4e339cf781dac675ec281",
      "v": 27,
      "creates": null,
      "raw": "0xf86e8207d6850d7b6a0c7f8255f094586c9f00191c01baba71993c5a6d6ee02905816d8818fb2d0a6c67ac20801ba08d3fc63c76ebf19f1a8caad02757e33b4837fb52090758214bcba3e2cb66c65ba01f7d5748b3e4775488a2c3d01dd42b232d30e036dad4e339cf781dac675ec281",
      "networkId": 0,
      "chainId": 0
    },
    {
      "hash": "0xa32741f96e7d4542e37e3b16d55b3fe4d3e3ba36656a0455267809ea6c4e7b3e",
      "blockHash": "0x42914ea13ecb799b1f89b233600ca49545bc8948ca9d9152a8fce8524da59e71",
      "blockNumber": 89769,
      "transactionIndex": 2,
      "confirmations": null,
      "from": "0xe6A7a1d47ff21B6321162AEA7C6CB457D5476Bca",
      "gasPrice": {
        "_hex": "0xd7b6a0c7f"
      },
      "gasLimit": {
        "_hex": "0x55f0"
      },
      "to": "0x657a04FeFfb4412AA72aEe9c4d23918A998B3DF3",
      "value": {
        "_hex": "0x192d3f2ac619ecb0"
      },
      "nonce": 2007,
      "data": "0x",
      "r": "0x808aca342d3e4a57a689ceca6ac347bee4f9c886b9aaf68f79bc10bd9dc504a3",
      "s": "0x4ce1a1dc4cf503151b574ae58e82393bb99b3c798e48c511b3702ecdc18f6b73",
      "v": 28,
      "creates": null,
      "raw": "0xf86e8207d7850d7b6a0c7f8255f094657a04feffb4412aa72aee9c4d23918a998b3df388192d3f2ac619ecb0801ca0808aca342d3e4a57a689ceca6ac347bee4f9c886b9aaf68f79bc10bd9dc504a3a04ce1a1dc4cf503151b574ae58e82393bb99b3c798e48c511b3702ecdc18f6b73",
      "networkId": 0,
      "chainId": 0
    },
    {
      "hash": "0xffafb5f1a5c946d666011c8c74e40b498e8557058252048d38871543f3ab3b76",
      "blockHash": "0x42914ea13ecb799b1f89b233600ca49545bc8948ca9d9152a8fce8524da59e71",
      "blockNumber": 89769,
      "transactionIndex": 3,
      "confirmations": null,
      "from": "0xe6A7a1d47ff21B6321162AEA7C6CB457D5476Bca",
      "gasPrice": {
        "_hex": "0xd7b6a0c7f"
      },
      "gasLimit": {
        "_hex": "0x55f0"
      },
      "to": "0xDe67A361d7cfe914C7A67445ade94Df2918919aB",
      "value": {
        "_hex": "0x192ed597527938ec"
      },
      "nonce": 2008,
      "data": "0x",
      "r": "0xe9d253a9f41c6274dfd6579f9453f453eedd007b4bca098263aa267306933126",
      "s": "0x07ceb9e7653de56bf8afdde62f6c86ca1c59954fb4d57c0b9dd24217196fc7fb",
      "v": 27,
      "creates": null,
      "raw": "0xf86e8207d8850d7b6a0c7f8255f094de67a361d7cfe914c7a67445ade94df2918919ab88192ed597527938ec801ba0e9d253a9f41c6274dfd6579f9453f453eedd007b4bca098263aa267306933126a007ceb9e7653de56bf8afdde62f6c86ca1c59954fb4d57c0b9dd24217196fc7fb",
      "networkId": 0,
      "chainId": 0
    }
  ]
}