{
  "hash": "0x1faa7521b87d5cfb0245dc869ebf00a509b23cab8766edcbee740af1ac5ebdde",
  "parentHash": "0x4652c9347206ce93749dadc6c5a1b7c86200b18824b196091b59533f8760db56",
  "number": 99457,
  "timestamp": 1439790550,
  "nonce": "0xeecfc02466408dfe",
  "difficulty": 3776933173510,
  "gasLimit": {
    "_hex": "0x2fefd8"
  },
  "gasUsed": {
    "_hex": "0xa410"
  },
  "miner": "0x580992B51e3925e23280EfB93d3047C82f17E038",
  "extraData": "0x476574682f76312e302e312f6c696e75782f676f312e342e32",
  "transactions": [
    {
      "hash": "0xcf77f7fbaa717f2dcf370af23083bd4d8daf2f5da3e81bf21b6f14dac4fa7363",
      "blockHash": "0x1faa7521b87d5cfb0245dc869ebf00a509b23cab8766edcbee740af1ac5ebdde",
      "blockNumber": 99457,
      "transactionIndex": 0,
      "confirmations": null,
      "from": "0x32Be343B94f860124dC4fEe278FDCBD38C102D88",
      "gasPrice": {
        "_hex": "0xd0b48c072"
      },
      "gasLimit": {
        "_hex": "0x5208"
      },
      "to": "0x120A270bbC009644e35F0bB6ab13f95b8199c4ad",
      "value": {
        "_hex": "0xc893d09c8f51500000"
      },
      "nonce": 1062,
      "data": "0x",
      "r": "0x44b9e2daae11d386b8fc5f25ad6c0428bcb8f951fd26c0a962459c870cdedb75",
      "s": "0x3726eac1d38823900499a7e0e2e1de97f9e09da2d6c21711c0bb248b330ea470",
      "v": 28,
      "creates": null,
      "raw": "0xf86f820426850d0b48c07282520894120a270bbc009644e35f0bb6ab13f95b8199c4ad89c893d09c8f51500000801ca044b9e2daae11d386b8fc5f25ad6c0428bcb8f951fd26c0a962459c870cdedb75a03726eac1d38823900499a7e0e2e1de97f9e09da2d6c21711c0bb248b330ea470",
      "networkId": 0,
      "chainId": 0
    },
    {
      "hash": "0x2f4899bd1ddf9198ad5bc64f9c33bcb4910dcf139b004f1b2a29ff5ef5187f7c",
      "blockHash": "0x1faa7521b87d5cfb0245dc869ebf00a509b23cab8766edcbee740af1ac5ebdde",
      "blockNumber": 99457,
      "transactionIndex": 1,
      "confirmations": null,
      "from": "0x2910543Af39abA0Cd09dBb2D50200b3E800A63D2",
      "gasPrice": {
        "_hex": "0xd0af74687"
      },
      "gasLimit": {
        "_hex": "0x5208"
      },
      "to": "0xC02516234B2c5eA2fdE935a1a1B079E952047fd5",
      "value": {
        "_hex": "0xdcef33a6f838000"
      },
      "nonce": 944,
      "data": "0x",
      "r": "0x43da8902c1863e721d5d80f925d1b635a26a348fba0876f2a40045ed363f7ed1",
      "s": "0x4db52c48994c4c9a618aedb325f215dfd66959b6c4163021a1388117e7d6aa0c",
      "v": 27,
      "creates": null,
      "raw": "0xf86e8203b0850d0af7468782520894c02516234b2c5ea2fde935a1a1b079e952047fd5880dcef33a6f838000801ba043da8902c1863e721d5d80f925d1b635a26a348fba0876f2a40045ed363f7ed1a04db52c48994c4c9a618aedb325f215dfd66959b6c4163021a1388117e7d6aa0c",
      "networkId": 0,
      "chainId": 0
    }
  ]
}