{
  "hash": "0xcadc8e3eebf3bcf0fa682f2f4cc9b380cd3702a52257ee0efd53cf4ee38ab147",
  "parentHash": "0x67a9818b89d2f3333f1c6520deccd8259e42db102af8322e48cf1540f2a85130",
  "number": 113449,
  "timestamp": 1440023724,
  "nonce": "0xdaad23e4f9a821b5",
  "difficulty": 4464644982093,
  "gasLimit": {
    "_hex": "0x2fefd8"
  },
  "gasUsed": {
    "_hex": "0xa410"
  },
  "miner": "0x7eD2359220bC2A40b70C40350EcAb732B39c0eF4",
  "extraData": "0x",
  "transactions": [
    {
      "hash": "0x71d3e8a5d8c4d1359c4306a722b510e06f0e3dfc6b1acc9ba3bf2f3f03877365",
      "blockHash": "0xcadc8e3eebf3bcf0fa682f2f4cc9b380cd3702a52257ee0efd53cf4ee38ab147",
      "blockNumber": 113449,
      "transactionIndex": 0,
      "confirmations": null,
      "from": "0xCEFA54c1A83A0eCC31Dd4E329e0D4B42869b1eb9",
      "gasPrice": {
        "_hex": "0xd4aed633a"
      },
      "gasLimit": {
        "_hex": "0x7a120"
      },
      "to": "0xBBDa93a81B882774e1c9b5e3F933Fa35DaC8bc88",
      "value": {
        "_hex": "0xd02ab486cedc0000"
      },
      "nonce": 2,
      "data": "0x",
      "r": "0x2d38cda8359141547d7eaef4c20096b09824f2ba70b5e1a98b7fea34f23687cb",
      "s": "0x3d293b1a2b7eeaee5a71b34ff9dc2593b972d84a1de5944671fcadea329be76c",
      "v": 27,
      "creates": null,
      "raw": "0xf86d02850d4aed633a8307a12094bbda93a81b882774e1c9b5e3f933fa35dac8bc8888d02ab486cedc0000801ba02d38cda8359141547d7eaef4c20096b09824f2ba70b5e1a98b7fea34f23687cba03d293b1a2b7eeaee5a71b34ff9dc2593b972d84a1de5944671fcadea329be76c",
      "networkId": 0,
      "chainId": 0
    },
    {
      "hash": "0x597d0deb8e687e5758daec9a4adf2496316790c2eb5966c64cb77fbeacf132aa",
      "blockHash": "0xcadc8e3eebf3bcf0fa682f2f4cc9b380cd3702a52257ee0efd53cf4ee38ab147",
      "blockNumber": 113449,
      "transactionIndex": 1,
      "confirmations": null,
      "from": "0x289B9bA6dC9c12D3130F1115180397C20cCBF220",
      "gasPrice": {
        "_hex": "0xba43b7400"
      },
      "gasLimit": {
        "_hex": "0x5208"
      },
      "to": "0xC47Aaa860008be6f65B58c6C6E02a84e666EfE31",
      "value": {
        "_hex": "0x6c6b6c19a1207a4e90"
      },
      "nonce": 15,
      "data": "0x",
      "r": "0x606445d4826b57eb8929391dbddd740cc60c401af6c637189acefef3df2e4d04",
      "s": "0x722e21e4c4a6bf6e38dfa756b7a200f475d9f138e07c62d7ed69d8ff1c248b7e",
      "v": 28,
      "creates": null,
      "raw": "0xf86d0f850ba43b740082520894c47aaa860008be6f65b58c6c6e02a84e666efe31896c6b6c19a1207a4e90801ca0606445d4826b57eb8929391dbddd740cc60c401af6c637189acefef3df2e4d04a0722e21e4c4a6bf6e38dfa756b7a200f475d9f138e07c62d7ed69d8ff1c248b7e",
      "networkId": 0,
      "chainId": 0
    }
  ]
}