{
  "hash": "0x7b9f193e8433fcf330028cabe3061b8f3fa7742400cfa8383fbbc60130fd0bcb",
  "parentHash": "0x74ded26f2bdb987ca085801cd4ecde6d0861f19067622f6f6ce6a8da96a93b7b",
  "number": 71382,
  "timestamp": 1439335018,
  "nonce": "0x42794b2f4bcab8fa",
  "difficulty": 2181500656136,
  "gasLimit": {
    "_hex": "0x2fefd8"
  },
  "gasUsed": {
    "_hex": "0x5208"
  },
  "miner": "0xf8E0CA3Ed80bd541b94BEdCf259e8CF2141A9523",
  "extraData": "0x476574682f76312e302e312f77696e646f77732f676f312e342e32",
  "transactions": [
    {
      "hash": "0x3c3e2719c4a847d27057a9abc504146c766a28fa05efd1aa1d4fa8ce724261c5",
      "blockHash": "0x7b9f193e8433fcf330028cabe3061b8f3fa7742400cfa8383fbbc60130fd0bcb",
      "blockNumber": 71382,
      "transactionIndex": 0,
      "confirmations": null,
      "from": "0xaA35779Ef4dfBEd0B3D6F46F5f11cb86261B17A5",
      "gasPrice": {
        "_hex": "0xd7d40ace3"
      },
      "gasLimit": {
        "_hex": "0x61a8"
      },
      "to": "0x30beD8049947963394D93412326225E4e3123601",
      "value": {
        "_hex": "0xac15a64d4ed80000"
      },
      "nonce": 3,
      "data": "0x",
      "r": "0xbc5ce71da7a93f14736ce74e472ccdf3f0e2e82ddbb3824a448154a20bb51fb3",
      "s": "0x34d2c83533b6561d1490b3894c935f599fbaa97c1b501e7daab56d761660b256",
      "v": 27,
      "creates": null,
      "raw": "0xf86c03850d7d40ace38261a89430bed8049947963394d93412326225e4e312360188ac15a64d4ed80000801ba0bc5ce71da7a93f14736ce74e472ccdf3f0e2e82ddbb3824a448154a20bb51fb3a034d2c83533b6561d1490b3894c935f599fbaa97c1b501e7daab56d761660b256",
      "networkId": 0,
      "chainId": 0
    }
  ]
}