{
  "hash": "0x3476d51b289f17c6cf1e370e81959e959db4bb001dc4864fcea70331cc6606c4",
  "parentHash": "0xbc5df2a5443ed356d07734d2064db6fb5ab6015f0396f1a15b3567dd7bc6a026",
  "number": 105276,
  "timestamp": 1439884763,
  "nonce": "0xa885f404de1eba12",
  "difficulty": 4363341724501,
  "gasLimit": {
    "_hex": "0x2fefd8"
  },
  "gasUsed": {
    "_hex": "0x5208"
  },
  "miner": "0xf5B16AbF021545b8298f4a32d7384Fac30e780Ae",
  "extraData": "0x",
  "transactions": [
    {
      "hash": "0xc39d79c6bf9ef8692e57669ea596e0054bf54e65081bac8cc4352966fb9e729b",
      "blockHash": "0x3476d51b289f17c6cf1e370e81959e959db4bb001dc4864fcea70331cc6606c4",
      "blockNumber": 105276,
      "transactionIndex": 0,
      "confirmations": null,
      "from": "0x97f99B6Ba31346CD98A9FE4c308f87C5a58C5151",
      "gasPrice": {
        "_hex": "0xd03cab680"
      },
      "gasLimit": {
        "_hex": "0x15f90"
      },
      "to": "0xb4f523106D96985a62306557ED1e19F129D42812",
      "value": {
        "_hex": "0x30d63414970fb2c000"
      },
      "nonce": 1,
      "data": "0x",
      "r": "0x06eb4316a35f124e7f146fc453039b5cbb004fd66d41849c7ec3a8a5a3103508",
      "s": "0x0f0c95d9cacf67f4a693b13b9498c766ac95a94cef3af9f6e161abe7c901cb68",
      "v": 28,
      "creates": null,
      "raw": "0xf86e01850d03cab68083015f9094b4f523106d96985a62306557ed1e19f129d428128930d63414970fb2c000801ca006eb4316a35f124e7f146fc453039b5cbb004fd66d41849c7ec3a8a5a3103508a00f0c95d9cacf67f4a693b13b9498c766ac95a94cef3af9f6e161abe7c901cb68",
      "networkId": 0,
      "chainId": 0
    }
  ]
}