{
  "hash": "0x1cbcb597d7807455031ca67dda157c928350bbe91e8f9ab2dbf61788159e2356",
  "parentHash": "0xafa9716df663223cfd31b80a0be9fd887d1fdf756db24dff67c464825137c9d4",
  "number": 52762,
  "timestamp": 1439026762,
  "nonce": "0x0799522a5ffb741e",
  "difficulty": 1577846260415,
  "gasLimit": {
    "_hex": "0x1950f5"
  },
  "gasUsed": {
    "_hex": "0x546c"
  },
  "miner": "0xF2d2AfF1320476cb8C6b607199D23175cc595693",
  "extraData": "0x476574682f76312e302e312f77696e646f77732f676f312e342e32",
  "transactions": [
    {
      "hash": "0x36b40ec1c169adfd045560444fb2a2f9420e1096308c7da048cdeb62e4a905e6",
      "blockHash": "0x1cbcb597d7807455031ca67dda157c928350bbe91e8f9ab2dbf61788159e2356",
      "blockNumber": 52762,
      "transactionIndex": 0,
      "confirmations": null,
      "from": "0xB0f264dc10CE034cA560a614b1E044C1d91A3bAe",
      "gasPrice": {
        "_hex": "0xd0c1a947c"
      },
      "gasLimit": {
        "_hex": "0x15f90"
      },
      "to": "0x2910543Af39abA0Cd09dBb2D50200b3E800A63D2",
      "value": {
        "_hex": "0x1c9f78d2893e40000"
      },
      "nonce": 0,
      "data": "0x454e39553139485452",
      "r": "0x19f8e9c61bfd256d3eb23e6f7bffff9c16ae96692bf297843abdca988d5ebed0",
      "s": "0x6c359c8d6e2b2253ee72123e8412b292f59c5121bdf9b3f2031d68a48e84c136",
      "v": 27,
      "creates": null,
      "raw": "0xf87780850d0c1a947c83015f90942910543af39aba0cd09dbb2d50200b3e800a63d28901c9f78d2893e4000089454e395531394854521ba019f8e9c61bfd256d3eb23e6f7bffff9c16ae96692bf297843abdca988d5ebed0a06c359c8d6e2b2253ee72123e8412b292f59c5121bdf9b3f2031d68a48e84c136",
      "networkId": 0,
      "chainId": 0
    }
  ]
}