{
  "hash": "0x2798c710b003b1f1ec6b55dd4deaface1fc39003b8804d2fad828e4c0acf6ed4",
  "parentHash": "0x39801182333e0bb6f2fd6d9dbd0a0279ccf892451e07278cc7d545e21698adb7",
  "number": 79107,
  "timestamp": 1439464550,
  "nonce": "0x76a77816decdc690",
  "difficulty": 2314400569988,
  "gasLimit": {
    "_hex": "0x2fefd8"
  },
  "gasUsed": {
    "_hex": "0xbdb28"
  },
  "miner": "0x580992B51e3925e23280EfB93d3047C82f17E038",
  "extraData": "0x476574682f76312e302e312f6c696e75782f676f312e342e32",
  "transactions": [
    {
      "hash": "0xab99085c0f84fd5f27197a2ec06ca529aa842940279499f437674547f37a9b6a",
      "blockHash": "0x2798c710b003b1f1ec6b55dd4deaface1fc39003b8804d2fad828e4c0acf6ed4",
      "blockNumber": 79107,
      "transactionIndex": 0,
      "confirmations": null,
      "from": "0x1Fab7BE036A5C6A69b2B05D6e172FF4e5b2a5e6B",
      "gasPrice": {
        "_hex": "0xd04f9df7b"
      },
      "gasLimit": {
        "_hex": "0x5208"
      },
      "to": "0x32Be343B94f860124dC4fEe278FDCBD38C102D88",
      "value": {
        "_hex": "0x3a5566b3e22cec00"
      },
      "nonce": 1,
      "data": "0x",
      "r": "0x48e3cc26c0b0d02480a84c1fb3763de6dee575701b5a0d81934276176411e995",
      "s": "0x7e726e5b773cb51456d58d644f27ad7978c95392796311c644d7772117879674",
      "v": 27,
      "creates": null,
      "raw": "0xf86c01850d04f9df7b8252089432be343b94f860124dc4fee278fdcbd38c102d88883a5566b3e22cec00801ba048e3cc26c0b0d02480a84c1fb3763de6dee575701b5a0d81934276176411e995a07e726e5b773cb51456d58d644f27ad7978c95392796311c644d7772117879674",
      "networkId": 0,
      "chainId": 0
    },
    {
      "hash": "0x8f1218a670eee475a44ede382e85cff84c24339d37e9421a9e0930de3b245c48",
      "blockHash": "0x2798c710b003b1f1ec6b55dd4deaface1fc39003b8804d2fad828e4c0acf6ed4",
      "blockNumber": 79107,
      "transactionIndex": 1,
      "confirmations": null,
      "from": "0x027698B61229ECCa19311e977ADE3C2923D4e414",
      "gasPrice": {
        "_hex": "0xd04f9df7b"
      },
      "gasLimit": {
        "_hex": "0x5208"
      },
      "to": "0x32Be343B94f860124dC4fEe278FDCBD38C102D88",
      "value": {
        "_hex": "0x69ec46ab4b21b400"
      },
      "nonce": 2,
      "data": "0x",
      "r": "0x4294d3c72de5af8dffbb21c2fda7fd1c0041d122e17b63a04ddf5c8555029255",
      "s": "0x31173464b36edd301538e1b99500b6ad0236053f92e5f0f475578846fb1fe2bc",
      "v": 28,
      "creates": null,
      "raw": "0xf86c02850d04f9df7b8252089432be343b94f860124dc4fee278fdcbd38c102d888869ec46ab4b21b400801ca04294d3c72de5af8dffbb21c2fda7fd1c0041d122e17b63a04ddf5c8555029255a031173464b36edd301538e1b99500b6ad0236053f92e5f0f475578846fb1fe2bc",
      "networkId": 0,
      "chainId": 0
    },
    {
      "hash": "0x2df877a797047ac9cf92d85fcd8232bf85a87e342322e592bde99d165807c48f",
      "blockHash": "0x2798c710b003b1f1ec6b55dd4deaface1fc39003b8804d2fad828e4c0acf6ed4",
      "blockNumber": 79107,
      "transactionIndex": 2,
      "confirmations": null,
      "from": "0xbc681E36E2BC0d9Cb397811ce7a5821da2D66059",
      "gasPrice": {
        "_hex": "0xd04f9df7b"
      },
      "gasLimit": {
        "_hex": "0x5208"
      },
      "to": "0x32Be343B94f860124dC4fEe278FDCBD38C102D88",
      "value": {
        "_hex": "0x872d95112893b000"
      },
      "nonce": 2,
      "data": "0x",
      "r": "0xdae9c86276d2913957a142e5f2068b6560098d2f7db108f37bc3c386ac8307e7",
      "s": "0x3ed894cd553f854ba5b73919b1d15d6eee4d3158934237570bf7e4a4bc15cb0b",
      "v": 28,
      "creates": null,
      "raw": "0xf86c02850d04f9df7b8252089432be343b94f860124dc4fee278fdcbd38c102d8888872d95112893b000801ca0dae9c86276d2913957a142e5f2068b6560098d2f7db108f37bc3c386ac8307e7a03ed894cd553f854ba5b73919b1d15d6eee4d3158934237570bf7e4a4bc15cb0b",
      "networkId": 0,
      "chainId": 0
    },
    {
      "hash": "0x92f1e69bbeec1273aa3c05959912dc7e32bcda755bcff8c3951fa8c222e9ec0e",
      "blockHash": "0x2798c710b003b1f1ec6b55dd4deaface1fc39003b8804d2fad828e4c0acf6ed4",
      "blockNumber": 79107,
      "transactionIndex": 3,
      "confirmations": null,
      "from": "0xC8E61bFB4846B622B084B98Bc586388aFCb70d5F",
      "gasPrice": {
        "_hex": "0xd04f9df7b"
      },
      "gasLimit": {
        "_hex": "0x5208"
      },
      "to": "0x32Be343B94f860124dC4fEe278FDCBD38C102D88",
      "value": {
        "_hex": "0x9ffafc6cb31e9800"
      },
      "nonce": 2,
      "data": "0x",
      "r": "0xa4d7594a5780ee95e9dcb87deb2e03d10f4ef2db974f422e40a805bb94e805f8",
      "s": "0x69340ea129aec80e80b1e17bed907804b8d827b3440a6223c76e73da03221351",
      "v": 27,
      "creates": null,
      "raw": "0xf86c02850d04f9df7b8252089432be343b94f860124dc4fee278fdcbd38c102d88889ffafc6cb31e9800801ba0a4d7594a5780ee95e9dcb87deb2e03d10f4ef2db974f422e40a805bb94e805f8a069340ea129aec80e80b1e17bed907804b8d827b3440a6223c76e73da03221351",
      "networkId": 0,
      "chainId": 0
    },
    {
      "hash": "0x8c0d44015f295172d491a2b99f69972760f667a96fa13512f99fe64fc5a54757",
      "blockHash": "0x2798c710b003b1f1ec6b55dd4deaface1fc39003b8804d2fad828e4c0acf6ed4",
      "blockNumber": 79107,
      "transactionIndex": 4,
      "confirmations": null,
      "from": "0xb7B3690EFa6b3f08D4EC289fF655C4b7bb15EE39",
      "gasPrice": {
        "_hex": "0xd04f9df7b"
      },
      "gasLimit": {
        "_hex": "0x5208"
      },
      "to": "0x32Be343B94f860124dC4fEe278FDCBD38C102D88",
      "value": {
        "_hex": "0x5e891b2358ab1c00"
      },
      "nonce": 1,
      "data": "0x",
      "r": "0x2095fd2a2277816cdedae8f378ba37d8f1bef33449dc061588f863821d5d3344",
      "s": "0x315621fdc4bf26aac7fd1122a1e40c80b7c60ee5df85d9dc09be974173d85491",
      "v": 27,
      "creates": null,
      "raw": "0xf86c01850d04f9df7b8252089432be343b94f860124dc4fee278fdcbd38c102d88885e891b2358ab1c00801ba02095fd2a2277816cdedae8f378ba37d8f1bef33449dc061588f863821d5d3344a0315621fdc4bf26aac7fd1122a1e40c80b7c60ee5df85d9dc09be974173d85491",
      "networkId": 0,
      "chainId": 0
    },
    {
      "hash": "0xb90ca4d7bf6de87749ddb61b14b0ecb25617b1b79165f16111255a29b051f86f",
      "blockHash": "0x2798c710b003b1f1ec6b55dd4deaface1fc39003b8804d2fad828e4c0acf6ed4",
      "blockNumber": 79107,
      "transactionIndex": 5,
      "confirmations": null,
      "from": "0x6589D22b54648e5D67Dc008eBd0c836D3DF39c87",
      "gasPrice": {
        "_hex": "0xd04f9df7b"
      },
      "gasLimit": {
        "_hex": "0x5208"
      },
      "to": "0x32Be343B94f860124dC4fEe278FDCBD38C102D88",
      "value": {
        "_hex": "0x482bfab752886800"
      },
      "nonce": 2,
      "data": "0x",
      "r": "0x706bc423b4635b1b6797a0994f2428c87d081e44ed6fff03baa558c9806d09f2",
      "s": "0x73591a8dc5c9b71c125acaa6663db4e4b1a2b0aba57e825d69d9a08420653de2",
      "v": 28,
      "creates": null,
      "raw": "0xf86c02850d04f9df7b8252089432be343b94f860124dc4fee278fdcbd38c102d8888482bfab752886800801ca0706bc423b4635b1b6797a0994f2428c87d081e44ed6fff03baa558c9806d09f2a073591a8dc5c9b71c125acaa6663db4e4b1a2b0aba57e825d69d9a08420653de2",
      "networkId": 0,
      "chainId": 0
    },
    {
      "hash": "0x6318ee806bbf4352bd29809a9b720ed3e52f03801a9e84d0bdcadf35abdbec07",
      "blockHash": "0x2798c710b003b1f1ec6b55dd4deaface1fc39003b8804d2fad828e4c0acf6ed4",
      "blockNumber": 79107,
      "transactionIndex": 6,
      "confirmations": null,
      "from": "0xC8E18619E6F0976FC389a37cba21bc6d080284ee",
      "gasPrice": {
        "_hex": "0xd04f9df7b"
      },
      "gasLimit": {
        "_hex": "0x5208"
      },
      "to": "0x32Be343B94f860124dC4fEe278FDCBD38C102D88",
      "value": {
        "_hex": "0x2363d376843ca000"
      },
      "nonce": 1,
      "data": "0x",
      "r": "0x5e603a5932facfcc0a8bde24b5459d7b700a0db87a7a0f49ba4dbc3221806c1e",
      "s": "0x071fc531f0f0aa37aa2993fb4b33465be1c6fc94b00153b519673aa604f6db7b",
      "v": 27,
      "creates": null,
      "raw": "0xf86c01850d04f9df7b8252089432be343b94f860124dc4fee278fdcbd38c102d88882363d376843ca000801ba05e603a5932facfcc0a8bde24b5459d7b700a0db87a7a0f49ba4dbc3221806c1ea0071fc531f0f0aa37aa2993fb4b33465be1c6fc94b00153b519673aa604f6db7b",
      "networkId": 0,
      "chainId": 0
    },
    {
      "hash": "0x56731a16bd0dbe40c0549850bef37f88489db881d406d0217c201639ed0d0efb",
      "blockHash": "0x2798c710b003b1f1ec6b55dd4deaface1fc39003b8804d2fad828e4c0acf6ed4",
      "blockNumber": 79107,
      "transactionIndex": 7,
      "confirmations": null,
      "from": "0x34d34F0a638F6991e4E2536F41295DF6E934A646",
      "gasPrice": {
        "_hex": "0xd04f9df7b"
      },
      "gasLimit": {
        "_hex": "0x5208"
      },
      "to": "0x32Be343B94f860124dC4fEe278FDCBD38C102D88",
      "value": {
        "_hex": "0x53cc2cedbdca1000"
      },
      "nonce": 3,
      "data": "0x",
      "r": "0xcbae0b3d9e60736aaa104306a19cbecc49aa3fde0b70783f70510a2b5d9a2374",
      "s": "0x698339c0e457971e133c31bedc22109f327d8250d3c8cbea1491f3ab39e3ffea",
      "v": 27,
      "creates": null,
      "raw": "0xf86c03850d04f9df7b8252089432be343b94f860124dc4fee278fdcbd38c102d888853cc2cedbdca1000801ba0cbae0b3d9e60736aaa104306a19cbecc49aa3fde0b70783f70510a2b5d9a2374a0698339c0e457971e133c31bedc22109f327d8250d3c8cbea1491f3ab39e3ffea",
      "networkId": 0,
      "chainId": 0
    },
    {
      "hash": "0x0a809ec49a008724f046a35058901a585cd75e48ea9223479ceb04ff25ee001b",
      "blockHash": "0x2798c710b003b1f1ec6b55dd4deaface1fc39003b8804d2fad828e4c0acf6ed4",
      "blockNumber": 79107,
      "transactionIndex": 8,
      "confirmations": null,
      "from": "0x2118baa5B9d6423676CF5502Eb6eaeD859228c33",
      "gasPrice": {
        "_hex": "0xd04f9df7b"
      },
      "gasLimit": {
        "_hex": "0x5208"
      },
      "to": "0x32Be343B94f860124dC4fEe278FDCBD38C102D88",
      "value": {
        "_hex": "0x63cde91f27b54800"
      },
      "nonce": 2,
      "data": "0x",
      "r": "0x83373486275034402b877ff2bed03afdbeabb5dfe2e6e0cebf37529d9f1d657a",
      "s": "0x6d3bca098f6132abcfbcded1781dae4fcb101566166f11cb08561ba8ff31510c",
      "v": 28,
      "creates": null,
      "raw": "0xf86c02850d04f9df7b8252089432be343b94f860124dc4fee278fdcbd38c102d888863cde91f27b54800801ca083373486275034402b877ff2bed03afdbeabb5dfe2e6e0cebf37529d9f1d657aa06d3bca098f6132abcfbcded1781dae4fcb101566166f11cb08561ba8ff31510c",
      "networkId": 0,
      "chainId": 0
    },
    {
      "hash": "0x8da191dfa2442facb12735b7d35dc3ea70f50b22ba70896dcdc03084d55c6cf3",
      "blockHash": "0x2798c710b003b1f1ec6b55dd4deaface1fc39003b8804d2fad828e4c0acf6ed4",
      "blockNumber": 79107,
      "transactionIndex": 9,
      "confirmations": null,
      "from": "0xad74C8133300eB63De8d69A384B1E8CcFe28DED7",
      "gasPrice": {
        "_hex": "0xd04f9df7b"
      },
      "gasLimit": {
        "_hex": "0x5208"
      },
      "to": "0x32Be343B94f860124dC4fEe278FDCBD38C102D88",
      "value": {
        "_hex": "0x38d067f8e6b5b800"
      },
      "nonce": 2,
      "data": "0x",
      "r": "0xd34c28f49df1d5c0e661ed82f7a029c6a2e44ac97299a00f2843d11141360d71",
      "s": "0x6cf424b166e15494b4382048db24f1e1e8d1030f26305a3a9e283f7646f5bf76",
      "v": 27,
      "creates": null,
      "raw": "0xf86c02850d04f9df7b8252089432be343b94f860124dc4fee278fdcbd38c102d888838d067f8e6b5b800801ba0d34c28f49df1d5c0e661ed82f7a029c6a2e44ac97299a00f2843d11141360d71a06cf424b166e15494b4382048db24f1e1e8d1030f26305a3a9e283f7646f5bf76",
      "networkId": 0,
      "chainId": 0
    },
    {
      "hash": "0xf9829b01bb7377978e491320642d6a335a7868694420ad7396c5ce56eb30ae43",
      "blockHash": "0x2798c710b003b1f1ec6b55dd4deaface1fc39003b8804d2fad828e4c0acf6ed4",
      "blockNumber": 79107,
      "transactionIndex": 10,
      "confirmations": null,
      "from": "0x61E20833179bA2eCCc2065e5F733CC8CdA7394c0",
      "gasPrice": {
        "_hex": "0xd04f9df7b"
      },
      "gasLimit": {
        "_hex": "0x5208"
      },
      "to": "0x32Be343B94f860124dC4fEe278FDCBD38C102D88",
      "value": {
        "_hex": "0x57a7f31fb9f84000"
      },
      "nonce": 0,
      "data": "0x",
      "r": "0xcad00ae0ac6da45eefdab42cc586aef2b01f9939981a226a8bb69c9e97697ded",
      "s": "0x27a85d5b77718aa9fa4a4692e57b7d923466c35ffc2dd462835fbe097ff1d1a1",
      "v": 27,
      "creates": null,
      "raw": "0xf86c80850d04f9df7b8252089432be343b94f860124dc4fee278fdcbd38c102d888857a7f31fb9f84000801ba0cad00ae0ac6da45eefdab42cc586aef2b01f9939981a226a8bb69c9e97697deda027a85d5b77718aa9fa4a4692e57b7d923466c35ffc2dd462835fbe097ff1d1a1",
      "networkId": 0,
      "chainId": 0
    },
    {
      "hash": "0xce60266024ee6b5378e4fdb18ab6d9d3f28638095ea1837b202673aa9f50f911",
      "blockHash": "0x2798c710b003b1f1ec6b55dd4deaface1fc39003b8804d2fad828e4c0acf6ed4",
      "blockNumber": 79107,
      "transactionIndex": 11,
      "confirmations": null,
      "from": "0x540Aac794755c0b6bb99070a9ea4DD6E1feb0fcf",
      "gasPrice": {
        "_hex": "0xd04f9df7b"
      },
      "gasLimit": {
        "_hex": "0x5208"
      },
      "to": "0x32Be343B94f860124dC4fEe278FDCBD38C102D88",
      "value": {
        "_hex": "0x3276bd0a0c2f4000"
      },
      "nonce": 0,
      "data": "0x",
      "r": "0x2b65ecdb86797b308ad81d4ab4e81f86e423e019b515b2f9c5f12e7787c4dbfc",
      "s": "0x6b4918e587fe54675060fbb4567b15f36b97161aa2c04eba5cf01130cb093466",
      "v": 27,
      "creates": null,
      "raw": "0xf86c80850d04f9df7b8252089432be343b94f860124dc4fee278fdcbd38c102d88883276bd0a0c2f4000801ba02b65ecdb86797b308ad81d4ab4e81f86e423e019b515b2f9c5f12e7787c4dbfca06b4918e587fe54675060fbb4567b15f36b97161aa2c04eba5cf01130cb093466",
      "networkId": 0,
      "chainId": 0
    },
    {
      "hash": "0x15303340903005ae6e11450a60bc62e6830344a1d34a012e07cab4ee038bb34e",
      "blockHash": "0x2798c710b003b1f1ec6b55dd4deaface1fc39003b8804d2fad828e4c0acf6ed4",
      "blockNumber": 79107,
      "transactionIndex": 12,
      "confirmations": null,
      "from": "0x01Ad0ACFf478127D9d702B1A13599D706cB759b1",
      "gasPrice": {
        "_hex": "0xd04f9df7b"
      },
      "gasLimit": {
        "_hex": "0x5208"
      },
      "to": "0x32Be343B94f860124dC4fEe278FDCBD38C102D88",
      "value": {
        "_hex": "0x2a22903ce412a400"
      },
      "nonce": 20,
      "data": "0x",
      "r": "0xa4838d45bd621e46d96c7a258ebf25b4f90a1191113004392de13aa96097f84d",
      "s": "0x55428c8a5fbbeb6105f11da56b60d1716892bbdac9502a4cc25becfa678dbbe6",
      "v": 27,
      "creates": null,
      "raw": "0xf86c14850d04f9df7b8252089432be343b94f860124dc4fee278fdcbd38c102d88882a22903ce412a400801ba0a4838d45bd621e46d96c7a258ebf25b4f90a1191113004392de13aa96097f84da055428c8a5fbbeb6105f11da56b60d1716892bbdac9502a4cc25becfa678dbbe6",
      "networkId": 0,
      "chainId": 0
    },
    {
      "hash": "0x550aa653924a2c236c4b3754c37081d4a1d8b06e61db6892ceb64ea8c9c7c650",
      "blockHash": "0x2798c710b003b1f1ec6b55dd4deaface1fc39003b8804d2fad828e4c0acf6ed4",
      "blockNumber": 79107,
      "transactionIndex": 13,
      "confirmations": null,
      "from": "0xBDda295a4aa9E3A60063548157510B47c6BE932f",
      "gasPrice": {
        "_hex": "0xd04f9df7b"
      },
      "gasLimit": {
        "_hex": "0x5208"
      },
      "to": "0x32Be343B94f860124dC4fEe278FDCBD38C102D88",
      "value": {
        "_hex": "0x41362b1293fe1800"
      },
      "nonce": 2,
      "data": "0x",
      "r": "0x3f8b4d4f566f32b1547c7220244b8a775c0708f7349836ada8bfc0320f2a6781",
      "s": "0x0271b6437caaa089925fc21ecda3692933cbb22a07df79ab64792edc913e2f8d",
      "v": 27,
      "creates": null,
      "raw": "0xf86c02850d04f9df7b8252089432be343b94f860124dc4fee278fdcbd38c102d888841362b1293fe1800801ba03f8b4d4f566f32b1547c7220244b8a775c0708f7349836ada8bfc0320f2a6781a00271b6437caaa089925fc21ecda3692933cbb22a07df79ab64792edc913e2f8d",
      "networkId": 0,
      "chainId": 0
    },
    {
      "hash": "0x81f160aa1df77693ed63459baffe3cd7e6f78e117d4a98cef3b23f351a53b884",
      "blockHash": "0x2798c710b003b1f1ec6b55dd4deaface1fc39003b8804d2fad828e4c0acf6ed4",
      "blockNumber": 79107,
      "transactionIndex": 14,
      "confirmations": null,
      "from": "0x4b0a38C16B842d68A8721B4CAd662e07cc430652",
      "gasPrice": {
        "_hex": "0xd04f9df7b"
      },
      "gasLimit": {
        "_hex": "0x5208"
      },
      "to": "0x32Be343B94f860124dC4fEe278FDCBD38C102D88",
      "value": {
        "_hex": "0x5ca5798636e23000"
      },
      "nonce": 2,
      "data": "0x",
      "r": "0x5d6ff43ac100562951499aba0996e3b14e6cbd9a1389f5a4ef84a88c6f1c2526",
      "s": "0x7fde451e20a0ff863f37d9018f074ad71693fa3ce8c6714da67fddc09f771ed5",
      "v": 28,
      "creates": null,
      "raw": "0xf86c02850d04f9df7b8252089432be343b94f860124dc4fee278fdcbd38c102d88885ca5798636e23000801ca05d6ff43ac100562951499aba0996e3b14e6cbd9a1389f5a4ef84a88c6f1c2526a07fde451e20a0ff863f37d9018f074ad71693fa3ce8c6714da67fddc09f771ed5",
      "networkId": 0,
      "chainId": 0
    },
    {
      "hash": "0xa8a8403305630a37506fe732dba72c196f1a176a584048aefe341358cf616ad3",
      "blockHash": "0x2798c710b003b1f1ec6b55dd4deaface1fc39003b8804d2fad828e4c0acf6ed4",
      "blockNumber": 79107,
      "transactionIndex": 15,
      "confirmations": null,
      "from": "0xe6A7a1d47ff21B6321162AEA7C6CB457D5476Bca",
      "gasPrice": {
        "_hex": "0xcde539f1d"
      },
      "gasLimit": {
        "_hex": "0x55f0"
      },
      "to": "0x187b1f47Cd55b27878699DfCDCee2234cD49E97e",
      "value": {
        "_hex": "0x23e6f9fd157980580"
      },
      "nonce": 1342,
      "data": "0x",
      "r": "0xe327e4c8413a1504150f0deeb67c95bd18739c7603b99dcee22e5bfa4d2f0f7b",
      "s": "0x29077227e3ad1279764242496315d380c4c3ecfd8ef17914d9fa735175b69018",
      "v": 28,
      "creates": null,
      "raw": "0xf86f82053e850cde539f1d8255f094187b1f47cd55b27878699dfcdcee2234cd49e97e89023e6f9fd157980580801ca0e327e4c8413a1504150f0deeb67c95bd18739c7603b99dcee22e5bfa4d2f0f7ba029077227e3ad1279764242496315d380c4c3ecfd8ef17914d9fa735175b69018",
      "networkId": 0,
      "chainId": 0
    },
    {
      "hash": "0x25222b7afd26a71bf5fb0bf6970fcb117ef705a0e2c78c5cc2b3ab1984b9dbe7",
      "blockHash": "0x2798c710b003b1f1ec6b55dd4deaface1fc39003b8804d2fad828e4c0acf6ed4",
      "blockNumber": 79107,
      "transactionIndex": 16,
      "confirmations": null,
      "from": "0xe6A7a1d47ff21B6321162AEA7C6CB457D5476Bca",
      "gasPrice": {
        "_hex": "0xcde539f1d"
      },
      "gasLimit": {
        "_hex": "0x55f0"
      },
      "to": "0x2b176421eEBBf303fa94aD4fE78362Fa9e4Ca693",
      "value": {
        "_hex": "0x259c4004e5549a160"
      },
      "nonce": 1343,
      "data": "0x",
      "r": "0xfd0622639fe18559ecf49f3d8b419eea12392213df2096dabab091fd2ff86c1b",
      "s": "0x3c79a12f209f672c0ecbc6497f7ab1d0f763f98caf3887e266143c5df872155e",
      "v": 28,
      "creates": null,
      "raw": "0xf86f82053f850cde539f1d8255f0942b176421eebbf303fa94ad4fe78362fa9e4ca693890259c4004e5549a160801ca0fd0622639fe18559ecf49f3d8b419eea12392213df2096dabab091fd2ff86c1ba03c79a12f209f672c0ecbc6497f7ab1d0f763f98caf3887e266143c5df872155e",
      "networkId": 0,
      "chainId": 0
    },
    {
      "hash": "0xc133efc0d75918f38e03453a7d6a386fe6bbefb9d861d6c8a83749da13677e8c",
      "blockHash": "0x2798c710b003b1f1ec6b55dd4deaface1fc39003b8804d2fad828e4c0acf6ed4",
      "blockNumber": 79107,
      "transactionIndex": 17,
      "confirmations": null,
      "from": "0xe6A7a1d47ff21B6321162AEA7C6CB457D5476Bca",
      "gasPrice": {
        "_hex": "0xcde539f1d"
      },
      "gasLimit": {
        "_hex": "0x55f0"
      },
      "to": "0xa61ff394e3846F8bfbBF8801afb051730B04Ee75",
      "value": {
        "_hex": "0x26149fafcf6699c90"
      },
      "nonce": 1344,
      "data": "0x",
      "r": "0x4e6f2507992936e11d082e632f67819fc8007c64469e8b5b51395f679fac72cc",
      "s": "0x69dd9dd421ea590cf40e10db5b4fd4f34c57d18eed2aa97e749c5226db9d80bb",
      "v": 28,
      "creates": null,
      "raw": "0xf86f820540850cde539f1d8255f094a61ff394e3846f8bfbbf8801afb051730b04ee7589026149fafcf6699c90801ca04e6f2507992936e11d082e632f67819fc8007c64469e8b5b51395f679fac72cca069dd9dd421ea590cf40e10db5b4fd4f34c57d18eed2aa97e749c5226db9d80bb",
      "networkId": 0,
      "chainId": 0
    },
    {
      "hash": "0x0e30864070ad7d523bf84189a90942fb645b0fbf366daf577bb377950196312f",
      "blockHash": "0x2798c710b003b1f1ec6b55dd4deaface1fc39003b8804d2fad828e4c0acf6ed4",
      "blockNumber": 79107,
      "transactionIndex": 18,
      "confirmations": null,
      "from": "0xe6A7a1d47ff21B6321162AEA7C6CB457D5476Bca",
      "gasPrice": {
        "_hex": "0xcde539f1d"
      },
      "gasLimit": {
        "_hex": "0x55f0"
      },
      "to": "0x267069452478cA39b3f5F1A4fFdD4131f50Bc977",
      "value": {
        "_hex": "0x28ebd5f09982378b0"
      },
      "nonce": 1345,
      "data": "0x",
      "r": "0x8757709a41dd71f9634d2347efee513d668a957c2206af5cfd573404f1d279f9",
      "s": "0x139ca15489ba9a29c5c15897d412f445d12deb38ecc5d61a92861f635b8703ea",
      "v": 27,
      "creates": null,
      "raw": "0xf86f820541850cde539f1d8255f094267069452478ca39b3f5f1a4ffdd4131f50bc97789028ebd5f09982378b0801ba08757709a41dd71f9634d2347efee513d668a957c2206af5cfd573404f1d279f9a0139ca15489ba9a29c5c15897d412f445d12deb38ecc5d61a92861f635b8703ea",
      "networkId": 0,
      "chainId": 0
    },
    {
      "hash": "0x063e9eb973b457665a5bf498c102400d30648485a7569d6ad0d065c99a1ddc08",
      "blockHash": "0x2798c710b003b1f1ec6b55dd4deaface1fc39003b8804d2fad828e4c0acf6ed4",
      "blockNumber": 79107,
      "transactionIndex": 19,
      "confirmations": null,
      "from": "0xe6A7a1d47ff21B6321162AEA7C6CB457D5476Bca",
      "gasPrice": {
        "_hex": "0xcde539f1d"
      },
      "gasLimit": {
        "_hex": "0x55f0"
      },
      "to": "0xc0920452d99591a4e8b190632c52754c72F73328",
      "value": {
        "_hex": "0x297674af5ce044b50"
      },
      "nonce": 1346,
      "data": "0x",
      "r": "0x9975bc184af7668e12c10fdcee8004e9ef6e84cfebbe64db0d3b1f584e394d8b",
      "s": "0x6e6e39a72fa3ed0d8cba112e187cdee6ed92a6d4886bd9da4651d8b5a96f6dff",
      "v": 27,
      "creates": null,
      "raw": "0xf86f820542850cde539f1d8255f094c0920452d99591a4e8b190632c52754c72f73328890297674af5ce044b50801ba09975bc184af7668e12c10fdcee8004e9ef6e84cfebbe64db0d3b1f584e394d8ba06e6e39a72fa3ed0d8cba112e187cdee6ed92a6d4886bd9da4651d8b5a96f6dff",
      "networkId": 0,
      "chainId": 0
    },
    {
      "hash": "0x753ba64a7041ac42d5e4145a815d7bc63497f3e5d52c9517912ff88821b2e357",
      "blockHash": "0x2798c710b003b1f1ec6b55dd4deaface1fc39003b8804d2fad828e4c0acf6ed4",
      "blockNumber": 79107,
      "transactionIndex": 20,
      "confirmations": null,
      "from": "0xe6A7a1d47ff21B6321162AEA7C6CB457D5476Bca",
      "gasPrice": {
        "_hex": "0xcde539f1d"
      },
      "gasLimit": {
        "_hex": "0x55f0"
      },
      "to": "0x30853f0562c79055Fbd88CFFC01A109b346752ba",
      "value": {
        "_hex": "0x2b3135f6649faeab0"
      },
      "nonce": 1347,
      "data": "0x",
      "r": "0x5db927926313d8ac3fe35b76819edbbc16b3eca61dda96087ac7cc4b5e744532",
      "s": "0x2dfbd76ebf28a6d76b73688a2ee408e762d2c3b3fb1e82356e1ff471cf5a38d2",
      "v": 28,
      "creates": null,
      "raw": "0xf86f820543850cde539f1d8255f09430853f0562c79055fbd88cffc01a109b346752ba8902b3135f6649faeab0801ca05db927926313d8ac3fe35b76819edbbc16b3eca61dda96087ac7cc4b5e744532a02dfbd76ebf28a6d76b73688a2ee408e762d2c3b3fb1e82356e1ff471cf5a38d2",
      "networkId": 0,
      "chainId": 0
    },
    {
      "hash": "0x3b85b335c8d2f6905c38778a74a3dc0131887d7a53f6e56a82f1e96dde9b08b2",
      "blockHash": "0x2798c710b003b1f1ec6b55dd4deaface1fc39003b8804d2fad828e4c0acf6ed4",
      "blockNumber": 79107,
      "transactionIndex": 21,
      "confirmations": null,
      "from": "0xe6A7a1d47ff21B6321162AEA7C6CB457D5476Bca",
      "gasPrice": {
        "_hex": "0xcde539f1d"
      },
      "gasLimit": {
        "_hex": "0x55f0"
      },
      "to": "0x6964b95BF8BA16b837e2f3Ae8dA7D299553eC1f7",
      "value": {
        "_hex": "0x2b45a0a6cbe2237b0"
      },
      "nonce": 1348,
      "data": "0x",
      "r": "0xbb06ce134b4b6c4c7be9a846d2f198cf61ef1b7280716df2b07affa4069f8f63",
      "s": "0x11f339a75e190897a80954902363f8968c7d78b105dd1a7cc4cbdc8215a04336",
      "v": 27,
      "creates": null,
      "raw": "0xf86f820544850cde539f1d8255f0946964b95bf8ba16b837e2f3ae8da7d299553ec1f78902b45a0a6cbe2237b0801ba0bb06ce134b4b6c4c7be9a846d2f198cf61ef1b7280716df2b07affa4069f8f63a011f339a75e190897a80954902363f8968c7d78b105dd1a7cc4cbdc8215a04336",
      "networkId": 0,
      "chainId": 0
    },
    {
      "hash": "0x0b526d2b28a8f5e6206eef2d0db982ac3b3e1740066b4743976112ce5d3ee5c3",
      "blockHash": "0x2798c710b003b1f1ec6b55dd4deaface1fc39003b8804d2fad828e4c0acf6ed4",
      "blockNumber": 79107,
      "transactionIndex": 22,
      "confirmations": null,
      "from": "0xe6A7a1d47ff21B6321162AEA7C6CB457D5476Bca",
      "gasPrice": {
        "_hex": "0xcde539f1d"
      },
      "gasLimit": {
        "_hex": "0x55f0"
      },
      "to": "0x2D1d94521E896625F8Ec3f65171Fa82262Da6BCF",
      "value": {
        "_hex": "0x2cac3c8a85160bf00"
      },
      "nonce": 1349,
      "data": "0x",
      "r": "0xd6a34cba65467b13cb1d250b663177fc9b929e457fc8275b50becb106954eaf2",
      "s": "0x3d7db48fd46e384a248685649da5e2d952d1f176f3dfaec0408cd7e0f5170c89",
      "v": 27,
      "creates": null,
      "raw": "0xf86f820545850cde539f1d8255f0942d1d94521e896625f8ec3f65171fa82262da6bcf8902cac3c8a85160bf00801ba0d6a34cba65467b13cb1d250b663177fc9b929e457fc8275b50becb106954eaf2a03d7db48fd46e384a248685649da5e2d952d1f176f3dfaec0408cd7e0f5170c89",
      "networkId": 0,
      "chainId": 0
    },
    {
      "hash": "0x8b0f0492fe1922b25fb223149d0c9255189ed8c46bf0612d644ec83b266e8757",
      "blockHash": "0x2798c710b003b1f1ec6b55dd4deaface1fc39003b8804d2fad828e4c0acf6ed4",
      "blockNumber": 79107,
      "transactionIndex": 23,
      "confirmations": null,
      "from": "0xe6A7a1d47ff21B6321162AEA7C6CB457D5476Bca",
      "gasPrice": {
        "_hex": "0xcde539f1d"
      },
      "gasLimit": {
        "_hex": "0x55f0"
      },
      "to": "0xF928B4834e4E886e04630Af5b4Ea8eBf46Fb205b",
      "value": {
        "_hex": "0x2dae4e56f49e68ec0"
      },
      "nonce": 1350,
      "data": "0x",
      "r": "0xa8f2a8bad0369fce9131e9cc96d62b9005c4fd3351db5c25a12253099e25df50",
      "s": "0x7ec2d64f1ac21e0ff28f936a61a8f36da98bd5e252f524201c278ec59a9da432",
      "v": 28,
      "creates": null,
      "raw": "0xf86f820546850cde539f1d8255f094f928b4834e4e886e04630af5b4ea8ebf46fb205b8902dae4e56f49e68ec0801ca0a8f2a8bad0369fce9131e9cc96d62b9005c4fd3351db5c25a12253099e25df50a07ec2d64f1ac21e0ff28f936a61a8f36da98bd5e252f524201c278ec59a9da432",
      "networkId": 0,
      "chainId": 0
    },
    {
      "hash": "0xcf2924e30435ee3856e2a7397118b1ba70ddc2e6d42695d6b8ebce183e4f73ed",
      "blockHash": "0x2798c710b003b1f1ec6b55dd4deaface1fc39003b8804d2fad828e4c0acf6ed4",
      "blockNumber": 79107,
      "transactionIndex": 24,
      "confirmations": null,
      "from": "0xe6A7a1d47ff21B6321162AEA7C6CB457D5476Bca",
      "gasPrice": {
        "_hex": "0xcde539f1d"
      },
      "gasLimit": {
        "_hex": "0x55f0"
      },
      "to": "0xE12517204a15E890f12755207271102F4800A0c4",
      "value": {
        "_hex": "0x2e15dfc256cc1ce90"
      },
      "nonce": 1351,
      "data": "0x",
      "r": "0xe1e1b3c02a0a16d80929663bcaaf4aef86593d7c1e562755f535d5a3c93f682a",
      "s": "0x25d4bffb48e51c7c086efddd512e37338ce9433c50bc92e9e17a469272111f22",
      "v": 28,
      "creates": null,
      "raw": "0xf86f820547850cde539f1d8255f094e12517204a15e890f12755207271102f4800a0c48902e15dfc256cc1ce90801ca0e1e1b3c02a0a16d80929663bcaaf4aef86593d7c1e562755f535d5a3c93f682aa025d4bffb48e51c7c086efddd512e37338ce9433c50bc92e9e17a469272111f22",
      "networkId": 0,
      "chainId": 0
    },
    {
      "hash": "0xc819836e2d13aaf0bc36a43ea92287a58d1544bd5217eaf48d79015f8129c6d0",
      "blockHash": "0x2798c710b003b1f1ec6b55dd4deaface1fc39003b8804d2fad828e4c0acf6ed4",
      "blockNumber": 79107,
      "transactionIndex": 25,
      "confirmations": null,
      "from": "0xe6A7a1d47ff21B6321162AEA7C6CB457D5476Bca",
      "gasPrice": {
        "_hex": "0xcde539f1d"
      },
      "gasLimit": {
        "_hex": "0x55f0"
      },
      "to": "0xc3DBDB3Efa722db2a3F6041b0ca0042782296ba9",
      "value": {
        "_hex": "0x30aefe882484f73a0"
      },
      "nonce": 1352,
      "data": "0x",
      "r": "0xfcc9c4e95b78f8478f2f6626be3532b0c4e2cc1446a29012a6d6ea0be0201fee",
      "s": "0x326bd26b9774b302da4735fe2ab4a9a6c694e0e39e38a89c609965b70e51d467",
      "v": 28,
      "creates": null,
      "raw": "0xf86f820548850cde539f1d8255f094c3dbdb3efa722db2a3f6041b0ca0042782296ba989030aefe882484f73a0801ca0fcc9c4e95b78f8478f2f6626be3532b0c4e2cc1446a29012a6d6ea0be0201feea0326bd26b9774b302da4735fe2ab4a9a6c694e0e39e38a89c609965b70e51d467",
      "networkId": 0,
      "chainId": 0
    },
    {
      "hash": "0x9b307641f28a688c8d6bb6862b114190a3c14e3d240d09e58930892c83121577",
      "blockHash": "0x2798c710b003b1f1ec6b55dd4deaface1fc39003b8804d2fad828e4c0acf6ed4",
      "blockNumber": 79107,
      "transactionIndex": 26,
      "confirmations": null,
      "from": "0xe6A7a1d47ff21B6321162AEA7C6CB457D5476Bca",
      "gasPrice": {
        "_hex": "0xcde539f1d"
      },
      "gasLimit": {
        "_hex": "0x55f0"
      },
      "to": "0x5248EfBC7319bd65d436374266765D9727253F12",
      "value": {
        "_hex": "0x31b3fa22de223b760"
      },
      "nonce": 1353,
      "data": "0x",
      "r": "0x44421dd8f4d681417614a0759d943c9edb01e06d8d4df064a0fe9b24ac3f36d4",
      "s": "0x32b08c12ca44c2590ec3b8b450cfa9d8f4006cda06abcb56d96dd6b7de092a0d",
      "v": 28,
      "creates": null,
      "raw": "0xf86f820549850cde539f1d8255f0945248efbc7319bd65d436374266765d9727253f1289031b3fa22de223b760801ca044421dd8f4d681417614a0759d943c9edb01e06d8d4df064a0fe9b24ac3f36d4a032b08c12ca44c2590ec3b8b450cfa9d8f4006cda06abcb56d96dd6b7de092a0d",
      "networkId": 0,
      "chainId": 0
    },
    {
      "hash": "0x4ab1d54ec44986c38646ee4278bebe22f98d942e80b7e1922bf91b179cffad55",
      "blockHash": "0x2798c710b003b1f1ec6b55dd4deaface1fc39003b8804d2fad828e4c0acf6ed4",
      "blockNumber": 79107,
      "transactionIndex": 27,
      "confirmations": null,
      "from": "0xe6A7a1d47ff21B6321162AEA7C6CB457D5476Bca",
      "gasPrice": {
        "_hex": "0xcde539f1d"
      },
      "gasLimit": {
        "_hex": "0x55f0"
      },
      "to": "0xdc41BFACFAaF8B0F0949aB5A3f18f47063Ae62fB",
      "value": {
        "_hex": "0x336abcddbfe3da3f0"
      },
      "nonce": 1354,
      "data": "0x",
      "r": "0x7345a63e995621fe3564014d725e9839f891f46727ca52b627762154331bbd01",
      "s": "0x67c756fc43f3b05938d6252717995a80c39eaa3c1700f9ee345190ec05b1be30",
      "v": 27,
      "creates": null,
      "raw": "0xf86f82054a850cde539f1d8255f094dc41bfacfaaf8b0f0949ab5a3f18f47063ae62fb890336abcddbfe3da3f0801ba07345a63e995621fe3564014d725e9839f891f46727ca52b627762154331bbd01a067c756fc43f3b05938d6252717995a80c39eaa3c1700f9ee345190ec05b1be30",
      "networkId": 0,
      "chainId": 0
    },
    {
      "hash": "0x7ba1e6c81d5a651263f35bf140cf8ed26aee0b425506d7380f6951b56f53e2d0",
      "blockHash": "0x2798c710b003b1f1ec6b55dd4deaface1fc39003b8804d2fad828e4c0acf6ed4",
      "blockNumber": 79107,
      "transactionIndex": 28,
      "confirmations": null,
      "from": "0xe6A7a1d47ff21B6321162AEA7C6CB457D5476Bca",
      "gasPrice": {
        "_hex": "0xcde539f1d"
      },
      "gasLimit": {
        "_hex": "0x55f0"
      },
      "to": "0x4Dbfc5Cd4D88480476F951dbCD591396773aE56c",
      "value": {
        "_hex": "0x34652ff2e7eac1730"
      },
      "nonce": 1355,
      "data": "0x",
      "r": "0x5bf62aa5d18e97767073669a1ab56e80e3fd23889f2d437ba2dc64bde4e259d5",
      "s": "0x7f91c6f5488a1d9d0894bc28e49d0ced7c5a34d6ba932ac1c7231040dee739fa",
      "v": 27,
      "creates": null,
      "raw": "0xf86f82054b850cde539f1d8255f0944dbfc5cd4d88480476f951dbcd591396773ae56c89034652ff2e7eac1730801ba05bf62aa5d18e97767073669a1ab56e80e3fd23889f2d437ba2dc64bde4e259d5a07f91c6f5488a1d9d0894bc28e49d0ced7c5a34d6ba932ac1c7231040dee739fa",
      "networkId": 0,
      "chainId": 0
    },
    {
      "hash": "0x211cb05653c25c8d4ae48203d20612c1f5d366f9d8e56863391d8eb8edea649e",
      "blockHash": "0x2798c710b003b1f1ec6b55dd4deaface1fc39003b8804d2fad828e4c0acf6ed4",
      "blockNumber": 79107,
      "transactionIndex": 29,
      "confirmations": null,
      "from": "0xe6A7a1d47ff21B6321162AEA7C6CB457D5476Bca",
      "gasPrice": {
        "_hex": "0xcde539f1d"
      },
      "gasLimit": {
        "_hex": "0x55f0"
      },
      "to": "0xdCB14605B0EE4F372D223e5DF87aa9e760886D01",
      "value": {
        "_hex": "0x3aa2e4918c6f398b0"
      },
      "nonce": 1356,
      "data": "0x",
      "r": "0x6cc3797658e5d525f7dc3262b2c945930accfe96e69a0a5a76c79d6e5da4acf9",
      "s": "0x078a0aed2007e9e944093666752d10fa41cc25e644cef8ccc67ed88eb5913ab5",
      "v": 28,
      "creates": null,
      "raw": "0xf86f82054c850cde539f1d8255f094dcb14605b0ee4f372d223e5df87aa9e760886d018903aa2e4918c6f398b0801ca06cc3797658e5d525f7dc3262b2c945930accfe96e69a0a5a76c79d6e5da4acf9a0078a0aed2007e9e944093666752d10fa41cc25e644cef8ccc67ed88eb5913ab5",
      "networkId": 0,
      "chainId": 0
    },
    {
      "hash": "0xc07560b962718635251be48c6a177506f9c302d7f07eeffe2ced65795ece185d",
      "blockHash": "0x2798c710b003b1f1ec6b55dd4deaface1fc39003b8804d2fad828e4c0acf6ed4",
      "blockNumber": 79107,
      "transactionIndex": 30,
      "confirmations": null,
      "from": "0xe6A7a1d47ff21B6321162AEA7C6CB457D5476Bca",
      "gasPrice": {
        "_hex": "0xcde539f1d"
      },
      "gasLimit": {
        "_hex": "0x55f0"
      },
      "to": "0x3A652ae439FFB94328afa58E11F544aFB5B85f7A",
      "value": {
        "_hex": "0x3ea0a37cd6eaaa940"
      },
      "nonce": 1357,
      "data": "0x",
      "r": "0xde38f591fbf9e1defae4f6ccdd0968616b4bafb646d2aadf82838f8a64b3ca70",
      "s": "0x7617fa37ebd22f0cb340d81b82e85eb88b140dee74c36b5580b3e7a8c305a34a",
      "v": 27,
      "creates": null,
      "raw": "0xf86f82054d850cde539f1d8255f0943a652ae439ffb94328afa58e11f544afb5b85f7a8903ea0a37cd6eaaa940801ba0de38f591fbf9e1defae4f6ccdd0968616b4bafb646d2aadf82838f8a64b3ca70a07617fa37ebd22f0cb340d81b82e85eb88b140dee74c36b5580b3e7a8c305a34a",
      "networkId": 0,
      "chainId": 0
    },
    {
      "hash": "0x4b124ecf3b9f3167e460fbb36fb49734e46f34cd996d7bd3984df505037e6d69",
      "blockHash": "0x2798c710b003b1f1ec6b55dd4deaface1fc39003b8804d2fad828e4c0acf6ed4",
      "blockNumber": 79107,
      "transactionIndex": 31,
      "confirmations": null,
      "from": "0xe6A7a1d47ff21B6321162AEA7C6CB457D5476Bca",
      "gasPrice": {
        "_hex": "0xcde539f1d"
      },
      "gasLimit": {
        "_hex": "0x55f0"
      },
      "to": "0xF7e66D2622220807d8696064E94ca24b1dC6e7Da",
      "value": {
        "_hex": "0x4111ce7d44c9891f0"
      },
      "nonce": 1358,
      "data": "0x",
      "r": "0x1291314d16569153715a2006e2a78066967406fe77e6584e77c6678a4d034260",
      "s": "0x2099e24b4fcdf4bfed8a1c2191d158044e95c29217a832fc271b8f402faf0b3b",
      "v": 27,
      "creates": null,
      "raw": "0xf86f82054e850cde539f1d8255f094f7e66d2622220807d8696064e94ca24b1dc6e7da8904111ce7d44c9891f0801ba01291314d16569153715a2006e2a78066967406fe77e6584e77c6678a4d034260a02099e24b4fcdf4bfed8a1c2191d158044e95c29217a832fc271b8f402faf0b3b",
      "networkId": 0,
      "chainId": 0
    },
    {
      "hash": "0x2b82566079c3854f73af8af4cfef1dd0a2b3621b73f75b7344b6733ff24ff841",
      "blockHash": "0x2798c710b003b1f1ec6b55dd4deaface1fc39003b8804d2fad828e4c0acf6ed4",
      "blockNumber": 79107,
      "transactionIndex": 32,
      "confirmations": null,
      "from": "0xe6A7a1d47ff21B6321162AEA7C6CB457D5476Bca",
      "gasPrice": {
        "_hex": "0xcde539f1d"
      },
      "gasLimit": {
        "_hex": "0x55f0"
      },
      "to": "0x047fF53dFE1F7BD2c3Ed2D1f777F35D1f64e9ffE",
      "value": {
        "_hex": "0x4478e7caa747ff330"
      },
      "nonce": 1359,
      "data": "0x",
      "r": "0xf8870a670d413bc2a13a77c7806c3dc7f735ba15c1c067f3938accf3ad43b76d",
      "s": "0x73f4f0e51957cce37bc7b963c605a9573d50b04fa6de8aa6c2d7605e93bc4c3b",
      "v": 27,
      "creates": null,
      "raw": "0xf86f82054f850cde539f1d8255f094047ff53dfe1f7bd2c3ed2d1f777f35d1f64e9ffe8904478e7caa747ff330801ba0f8870a670d413bc2a13a77c7806c3dc7f735ba15c1c067f3938accf3ad43b76da073f4f0e51957cce37bc7b963c605a9573d50b04fa6de8aa6c2d7605e93bc4c3b",
      "networkId": 0,
      "chainId": 0
    },
    {
      "hash": "0x3a72e51a1a342d42ac981b4874dcded7aca8b40bd972ec0c3d37f51a0c3bd340",
      "blockHash": "0x2798c710b003b1f1ec6b55dd4deaface1fc39003b8804d2fad828e4c0acf6ed4",
      "blockNumber": 79107,
      "transactionIndex": 33,
      "confirmations": null,
      "from": "0xe6A7a1d47ff21B6321162AEA7C6CB457D5476Bca",
      "gasPrice": {
        "_hex": "0xcde539f1d"
      },
      "gasLimit": {
        "_hex": "0x55f0"
      },
      "to": "0x837A2A346557050c8cF0fb24b84Aa695E8Add19f",
      "value": {
        "_hex": "0x4c37349405974c980"
      },
      "nonce": 1360,
      "data": "0x",
      "r": "0x4d8f56d8a04d19a843468bd7b59e5f4e67a4fbb987927e60d66b196084af00f7",
      "s": "0x34c154502b1d1456b301bbe25c19c70c62a0ba5b74b5e7ed75bd43b0687666d7",
      "v": 27,
      "creates": null,
      "raw": "0xf86f820550850cde539f1d8255f094837a2a346557050c8cf0fb24b84aa695e8add19f8904c37349405974c980801ba04d8f56d8a04d19a843468bd7b59e5f4e67a4fbb987927e60d66b196084af00f7a034c154502b1d1456b301bbe25c19c70c62a0ba5b74b5e7ed75bd43b0687666d7",
      "networkId": 0,
      "chainId": 0
    },
    {
      "hash": "0xcff0ab156861788b1ca5caa5aa226820041b5862be3ae652aaa755f26195d390",
      "blockHash": "0x2798c710b003b1f1ec6b55dd4deaface1fc39003b8804d2fad828e4c0acf6ed4",
      "blockNumber": 79107,
      "transactionIndex": 34,
      "confirmations": null,
      "from": "0xe6A7a1d47ff21B6321162AEA7C6CB457D5476Bca",
      "gasPrice": {
        "_hex": "0xcde539f1d"
      },
      "gasLimit": {
        "_hex": "0x55f0"
      },
      "to": "0x853Bff007d269E0526E871360d79d69D602770dc",
      "value": {
        "_hex": "0x52ca898188250fc00"
      },
      "nonce": 1361,
      "data": "0x",
      "r": "0x175d459472f7abd8d016defdb12891fd45929a1509fa28b47622c3ab9dd9a008",
      "s": "0x10242375d9d1223563659c2f6882a67cf4b34f84835d6dfdfb3332622d7f0c71",
      "v": 27,
      "creates": null,
      "raw": "0xf86f820551850cde539f1d8255f094853bff007d269e0526e871360d79d69d602770dc89052ca898188250fc00801ba0175d459472f7abd8d016defdb12891fd45929a1509fa28b47622c3ab9dd9a008a010242375d9d1223563659c2f6882a67cf4b34f84835d6dfdfb3332622d7f0c71",
      "networkId": 0,
      "chainId": 0
    },
    {
      "hash": "0xae182e09bbf2cd5d4f2e00257ab3d11978c4c5cd0c0ec19574a67ec45696b010",
      "blockHash": "0x2798c710b003b1f1ec6b55dd4deaface1fc39003b8804d2fad828e4c0acf6ed4",
      "blockNumber": 79107,
      "transactionIndex": 35,
      "confirmations": null,
      "from": "0xe6A7a1d47ff21B6321162AEA7C6CB457D5476Bca",
      "gasPrice": {
        "_hex": "0xcde539f1d"
      },
      "gasLimit": {
        "_hex": "0x55f0"
      },
      "to": "0x40dDAE161B79aaebeb68187233fe59bd3B1c2db2",
      "value": {
        "_hex": "0x5f37f098f4ebe0870"
      },
      "nonce": 1362,
      "data": "0x",
      "r": "0x331b15dcbe006f306465778933414fcd067d1d9f9461ffa1836a0f9c1a72d74a",
      "s": "0x3925a11c9a636195cbf61c4afd7080d710d1d0bd888801c750c13f39eefce8ef",
      "v": 28,
      "creates": null,
      "raw": "0xf86f820552850cde539f1d8255f09440ddae161b79aaebeb68187233fe59bd3b1c2db28905f37f098f4ebe0870801ca0331b15dcbe006f306465778933414fcd067d1d9f9461ffa1836a0f9c1a72d74aa03925a11c9a636195cbf61c4afd7080d710d1d0bd888801c750c13f39eefce8ef",
      "networkId": 0,
      "chainId": 0
    },
    {
      "hash": "0x22b6e87f2e65d171819143160539fbca2a15b8f9a47b3ab864086fdaddc9a809",
      "blockHash": "0x2798c710b003b1f1ec6b55dd4deaface1fc39003b8804d2fad828e4c0acf6ed4",
      "blockNumber": 79107,
      "transactionIndex": 36,
      "confirmations": null,
      "from": "0xe6A7a1d47ff21B6321162AEA7C6CB457D5476Bca",
      "gasPrice": {
        "_hex": "0xcde539f1d"
      },
      "gasLimit": {
        "_hex": "0x55f0"
      },
      "to": "0xd0DF24FD0DfcDc3850D1590dAA1D03ca7706b11B",
      "value": {
        "_hex": "0x94f6ddfec6ca595c0"
      },
      "nonce": 1363,
      "data": "0x",
      "r": "0x7875a0770fac31b74597e1fde27ba9e1237cb678339fd451e14f97f35aa251db",
      "s": "0x1b4411713667ba1cfc68554afd499323382e0fd582862d99360e22bf44a9efce",
      "v": 28,
      "creates": null,
      "raw": "0xf86f820553850cde539f1d8255f094d0df24fd0dfcdc3850d1590daa1d03ca7706b11b89094f6ddfec6ca595c0801ca07875a0770fac31b74597e1fde27ba9e1237cb678339fd451e14f97f35aa251dba01b4411713667ba1cfc68554afd499323382e0fd582862d99360e22bf44a9efce",
      "networkId": 0,
      "chainId": 0
    }
  ]
}