{
  "hash": "0xa1c71da1c5989f3d698200aa3f0d7a9facf4ba2755c405a39bcb24a562ece150",
  "parentHash": "0x038220018d9026f72991b16f8e41f61b55cd915c87e389d8bce1dd3ddef54581",
  "number": 98866,
  "timestamp": 1439780261,
  "nonce": "0x93fa637ca1e8eb32",
  "difficulty": 3861112912619,
  "gasLimit": {
    "_hex": "0x2fefd8"
  },
  "gasUsed": {
    "_hex": "0x546c"
  },
  "miner": "0x7366ADF97960d404c38D975e1A8786bEb14B6507",
  "extraData": "0x476574682f76312e302e312f77696e646f77732f676f312e342e32",
  "transactions": [
    {
      "hash": "0xda80ba9b818b008acfb10d47dc876d087a42ca579c0829cf2561ebe9b4e62333",
      "blockHash": "0xa1c71da1c5989f3d698200aa3f0d7a9facf4ba2755c405a39bcb24a562ece150",
      "blockNumber": 98866,
      "transactionIndex": 0,
      "confirmations": null,
      "from": "0x6e12b51e225b4A4372e59AD7A2A1A13ea3D3A137",
      "gasPrice": {
        "_hex": "0x110c8f7d8de"
      },
      "gasLimit": {
        "_hex": "0xc350"
      },
      "to": "0x2910543Af39abA0Cd09dBb2D50200b3E800A63D2",
      "value": {
        "_hex": "0x3002840d41f55280000"
      },
      "nonce": 0,
      "data": "0x454e553358384e4330",
      "r": "0x7ccb39fd3d252128ca3e7e5b09c2c72cf5f79fd0ca5055e3b01fd5fa765f21c8",
      "s": "0x5336cec3cbd471101716d6032bd58a6cc119ec433ef29be3d9a721b36a58052a",
      "v": 27,
      "creates": null,
      "raw": "0xf87880860110c8f7d8de82c350942910543af39aba0cd09dbb2d50200b3e800a63d28a03002840d41f5528000089454e553358384e43301ba07ccb39fd3d252128ca3e7e5b09c2c72cf5f79fd0ca5055e3b01fd5fa765f21c8a05336cec3cbd471101716d6032bd58a6cc119ec433ef29be3d9a721b36a58052a",
      "networkId": 0,
      "chainId": 0
    }
  ]
}