{
  "hash": "0x04f325fdc3dca56e298fdf440708153a51834658857976566075b35dafdb60f2",
  "parentHash": "0xb6c5d57b60e2c3f57268d871d68efd6c6e51ec2a32f5718e7d341e3e569bb053",
  "number": 81651,
  "timestamp": 1439505332,
  "nonce": "0x814769a59b497283",
  "difficulty": 2436604006109,
  "gasLimit": {
    "_hex": "0x2fefd8"
  },
  "gasUsed": {
    "_hex": "0x546c"
  },
  "miner": "0xbb7B8287f3F0a933474a79eAe42CBCa977791171",
  "extraData": "0x476574682f4c5649562f76312e302e312f6c696e75782f676f312e342e32",
  "transactions": [
    {
      "hash": "0xb29f5b82240b26b6a974eff4449ba23cef3a3a19c52fdb58db10691f1f5c580a",
      "blockHash": "0x04f325fdc3dca56e298fdf440708153a51834658857976566075b35dafdb60f2",
      "blockNumber": 81651,
      "transactionIndex": 0,
      "confirmations": null,
      "from": "0x3954bDFE0BF587C695A305d9244C3d5bdDDaC9Bb",
      "gasPrice": {
        "_hex": "0xd829211eb"
      },
      "gasLimit": {
        "_hex": "0x55f0"
      },
      "to": "0x2910543Af39abA0Cd09dBb2D50200b3E800A63D2",
      "value": {
        "_hex": "0x4563918244f40000"
      },
      "nonce": 3,
      "data": "0x454e54395034424430",
      "r": "0x0ead1c21ebbdf60538e4ea30804e8047b72a3dc41dd896722fe8a022405cc914",
      "s": "0x4290754511b9ec0c24ab4f6c06bfd9f2524478bf41ac1487a717f7c60d4b25a1",
      "v": 28,
      "creates": null,
      "raw": "0xf87503850d829211eb8255f0942910543af39aba0cd09dbb2d50200b3e800a63d2884563918244f4000089454e543950344244301ca00ead1c21ebbdf60538e4ea30804e8047b72a3dc41dd896722fe8a022405cc914a04290754511b9ec0c24ab4f6c06bfd9f2524478bf41ac1487a717f7c60d4b25a1",
      "networkId": 0,
      "chainId": 0
    }
  ]
}