{
  "hash": "0x3f1fd5ff648ce62bec3973d300a0095a1417fd50b0a1b71102e469c096d2dbd8",
  "parentHash": "0xba3ffcb1fd78049dbbaf0ab847e834e491c6c5d270252a9ca40d82e731ab491c",
  "number": 86271,
  "timestamp": 1439576035,
  "nonce": "0x04a81cfb8093d419",
  "difficulty": 2838781318070,
  "gasLimit": {
    "_hex": "0x2fefd8"
  },
  "gasUsed": {
    "_hex": "0x5208"
  },
  "miner": "0xe6A7a1d47ff21B6321162AEA7C6CB457D5476Bca",
  "extraData": "0x476574682f76312e302e312d38326566323666362f6c696e75782f676f312e34",
  "transactions": [
    {
      "hash": "0xe42d645b9d2f3744473eccad6aca9dbbd0f4e704a75d3f4747f15e98fd5266ea",
      "blockHash": "0x3f1fd5ff648ce62bec3973d300a0095a1417fd50b0a1b71102e469c096d2dbd8",
      "blockNumber": 86271,
      "transactionIndex": 0,
      "confirmations": null,
      "from": "0xC4c6bAF00209a0f33331e4B7cb1c7B680A3d2F79",
      "gasPrice": {
        "_hex": "0xcc032f216"
      },
      "gasLimit": {
        "_hex": "0x15f90"
      },
      "to": "0xf4B1114a02EFe852013277F28ed88734Fa81E54f",
      "value": {
        "_hex": "0x70c1cc73b00c80000"
      },
      "nonce": 13,
      "data": "0x",
      "r": "0xc3159f5282eb03f13d02fb714f43678e092f4e7fcc9de5eb9f3aa55c97798cca",
      "s": "0x35f137d8986f80ee6b09e295b66aa374f1a943d9dfbca2000c386f3ad827ec55",
      "v": 28,
      "creates": null,
      "raw": "0xf86e0d850cc032f21683015f9094f4b1114a02efe852013277f28ed88734fa81e54f89070c1cc73b00c80000801ca0c3159f5282eb03f13d02fb714f43678e092f4e7fcc9de5eb9f3aa55c97798ccaa035f137d8986f80ee6b09e295b66aa374f1a943d9dfbca2000c386f3ad827ec55",
      "networkId": 0,
      "chainId": 0
    }
  ]
}