{
  "hash": "0x6bbbd32eb1b5073447dc012d44f6d4ae0b1aa4808cfbbcb001f6a7fb384471d3",
  "parentHash": "0x65c7c61224b14debb9642ca05e1ccbacc8fa909e29becde4f0440b66471ac819",
  "number": 73223,
  "timestamp": 1439365376,
  "nonce": "0xf331b5c76f110b41",
  "difficulty": 2207808914313,
  "gasLimit": {
    "_hex": "0x2fefd8"
  },
  "gasUsed": {
    "_hex": "0x5208"
  },
  "miner": "0xbb7B8287f3F0a933474a79eAe42CBCa977791171",
  "extraData": "0x476574682f4c5649562f76312e302e312f6c696e75782f676f312e342e32",
  "transactions": [
    {
      "hash": "0x40365a5f3c2ceb3fb36e8836bef0ba18c7c3b7c537978093649a25efebeb5f7e",
      "blockHash": "0x6bbbd32eb1b5073447dc012d44f6d4ae0b1aa4808cfbbcb001f6a7fb384471d3",
      "blockNumber": 73223,
      "transactionIndex": 0,
      "confirmations": null,
      "from": "0x458F183347F45a4001807728A89F31E9Da9D4A58",
      "gasPrice": {
        "_hex": "0xd8f61b81c"
      },
      "gasLimit": {
        "_hex": "0x15f90"
      },
      "to": "0x7fa165177F28D171bA7C17f765c1904344Ec64CB",
      "value": {
        "_hex": "0x270801d946c940000"
      },
      "nonce": 9,
      "data": "0x",
      "r": "0x04b8912226bcc1c873f4b977a9787b1b187067c240d67f7cb5cb125b7785659f",
      "s": "0x2fcbcad266bd68db872e909c8d067907f8eff6f9e049f5dca375bc9295dd691f",
      "v": 28,
      "creates": null,
      "raw": "0xf86e09850d8f61b81c83015f90947fa165177f28d171ba7c17f765c1904344ec64cb890270801d946c940000801ca004b8912226bcc1c873f4b977a9787b1b187067c240d67f7cb5cb125b7785659fa02fcbcad266bd68db872e909c8d067907f8eff6f9e049f5dca375bc9295dd691f",
      "networkId": 0,
      "chainId": 0
    }
  ]
}