{
  "hash": "0x37c689a3dbc4badf645c2ed7142d2ba383e63408762ccc4e4346e165aa1e556b",
  "parentHash": "0x0f5df97184eb40feaeb26984452fcd3a73da1eb4199c166709c4901ad451fb0c",
  "number": 81029,
  "timestamp": 1439494909,
  "nonce": "0xaa7a10569f78b0fa",
  "difficulty": 2434406171418,
  "gasLimit": {
    "_hex": "0x2fefd8"
  },
  "gasUsed": {
    "_hex": "0xa410"
  },
  "miner": "0x55bAf64fc9eAccFFd7Cc643BB61142E1C6ac093e",
  "extraData": "0x",
  "transactions": [
    {
      "hash": "0x3771412c7dc09b392bb40c8541395593e4554bbe8b033bfaa7a993d8a0cd471a",
      "blockHash": "0x37c689a3dbc4badf645c2ed7142d2ba383e63408762ccc4e4346e165aa1e556b",
      "blockNumber": 81029,
      "transactionIndex": 0,
      "confirmations": null,
      "from": "0x16919885ae5b483cFFd18E00783c6352297bAFbA",
      "gasPrice": {
        "_hex": "0x746a528800"
      },
      "gasLimit": {
        "_hex": "0x5b04"
      },
      "to": "0x2910543Af39abA0Cd09dBb2D50200b3E800A63D2",
      "value": {
        "_hex": "0x6f05b59d3b20000"
      },
      "nonce": 3,
      "data": "0x",
      "r": "0x6030e18f13ffcb0217dae595ec48df19f72759ff9cdc62260a51ee7b8dad98ee",
      "s": "0x9fd679048fe6a76a0b996190ce6c31126774eba6ddd12861f7ecb419374653b7",
      "v": 27,
      "creates": null,
      "raw": "0xf86c0385746a528800825b04942910543af39aba0cd09dbb2d50200b3e800a63d28806f05b59d3b20000801ba06030e18f13ffcb0217dae595ec48df19f72759ff9cdc62260a51ee7b8dad98eea09fd679048fe6a76a0b996190ce6c31126774eba6ddd12861f7ecb419374653b7",
      "networkId": 0,
      "chainId": 0
    },
    {
      "hash": "0xf6e1fb1aff1c233dbba214b5fe18b485fda9d29414a73ba6369cf51bea03de9c",
      "blockHash": "0x37c689a3dbc4badf645c2ed7142d2ba383e63408762ccc4e4346e165aa1e556b",
      "blockNumber": 81029,
      "transactionIndex": 1,
      "confirmations": null,
      "from": "0x9d4020CB4186dF7700247DB29365fb1c9912117c",
      "gasPrice": {
        "_hex": "0xd8424a7a3"
      },
      "gasLimit": {
        "_hex": "0x15f90"
      },
      "to": "0x1d5886c94A247eCaf060Ce8bBDD258B8521E7359",
      "value": {
        "_hex": "0xa2a15d09519be00000"
      },
      "nonce": 0,
      "data": "0x",
      "r": "0x030b005cdae07174e0413b67791655400ce7f17755d22119c03ff5f9db2d9421",
      "s": "0x29d09d00e8c7e1b8d8cbd9204249fbb4cc1bfcdb61453b64d6d8da1bf27f5eb3",
      "v": 27,
      "creates": null,
      "raw": "0xf86e80850d8424a7a383015f90941d5886c94a247ecaf060ce8bbdd258b8521e735989a2a15d09519be00000801ba0030b005cdae07174e0413b67791655400ce7f17755d22119c03ff5f9db2d9421a029d09d00e8c7e1b8d8cbd9204249fbb4cc1bfcdb61453b64d6d8da1bf27f5eb3",
      "networkId": 0,
      "chainId": 0
    }
  ]
}