{
  "hash": "0x58ac6c72766c545fbae5483f7ed6059cb8951c651192af22ccff1eab64b9b4e3",
  "parentHash": "0xb558291f9dee544b434bdc2e2a36ef8ff214805db9e8172dece2714a89ab4c4b",
  "number": 57172,
  "timestamp": 1439098694,
  "nonce": "0x53f8bd93cb6abafd",
  "difficulty": 1730323737700,
  "gasLimit": {
    "_hex": "0x2fefd8"
  },
  "gasUsed": {
    "_hex": "0x5208"
  },
  "miner": "0x5A8d4616D25AD4928b08383073adb961A87De5d8",
  "extraData": "0x",
  "transactions": [
    {
      "hash": "0x9a434bba02346b9634332facb4212857a0e3c7aea6ef25f5de6f540191a5ea5d",
      "blockHash": "0x58ac6c72766c545fbae5483f7ed6059cb8951c651192af22ccff1eab64b9b4e3",
      "blockNumber": 57172,
      "transactionIndex": 0,
      "confirmations": null,
      "from": "0xC25f24A505b8fEF751D8f4FCc397651001F7a160",
      "gasPrice": {
        "_hex": "0xde561a592"
      },
      "gasLimit": {
        "_hex": "0x5208"
      },
      "to": "0x32Be343B94f860124dC4fEe278FDCBD38C102D88",
      "value": {
        "_hex": "0x117e5c83a8a256000"
      },
      "nonce": 2,
      "data": "0x",
      "r": "0xc68003a263f87ba0433438f5c124dd5ef69b5325e176a159a2b38116918b289a",
      "s": "0x75ad353ca22aee457b6949a3571b858fb1b7a83c9601480587e2177c75bbd973",
      "v": 28,
      "creates": null,
      "raw": "0xf86d02850de561a5928252089432be343b94f860124dc4fee278fdcbd38c102d88890117e5c83a8a256000801ca0c68003a263f87ba0433438f5c124dd5ef69b5325e176a159a2b38116918b289aa075ad353ca22aee457b6949a3571b858fb1b7a83c9601480587e2177c75bbd973",
      "networkId": 0,
      "chainId": 0
    }
  ]
}