{
  "hash": "0x8adb10814a7ae0150d9a472bc4fd95c3743a31bb6f29d5fd38bc36d8ada5e9e1",
  "parentHash": "0x3951cda0448392792d8b57b03cbfc67a02ef440c694d7116c05eb5a1316284ab",
  "number": 95489,
  "timestamp": 1439724901,
  "nonce": "0x50e56b19ca856bec",
  "difficulty": 3609202854174,
  "gasLimit": {
    "_hex": "0x2fefd8"
  },
  "gasUsed": {
    "_hex": "0x5208"
  },
  "miner": "0xe6A7a1d47ff21B6321162AEA7C6CB457D5476Bca",
  "extraData": "0x476574682f76312e302e312d38326566323666362f6c696e75782f676f312e34",
  "transactions": [
    {
      "hash": "0xd7d5e434b7e65ccd766753f393b02652f05231e31c274b3c9e50b81be123ba15",
      "blockHash": "0x8adb10814a7ae0150d9a472bc4fd95c3743a31bb6f29d5fd38bc36d8ada5e9e1",
      "blockNumber": 95489,
      "transactionIndex": 0,
      "confirmations": null,
      "from": "0x63738Ec4C9adec404749B5747F3bbE2147de632F",
      "gasPrice": {
        "_hex": "0xd6d9651bf"
      },
      "gasLimit": {
        "_hex": "0x15f90"
      },
      "to": "0x557C2806B6ceA65a66F415bb2Ed1ce897B340745",
      "value": {
        "_hex": "0x8ac7230489e80000"
      },
      "nonce": 3,
      "data": "0x",
      "r": "0x56a1aaf491e07749c523519a890c5b7c0c529b57f275c9aba17541d94192ae32",
      "s": "0x562f0a6a95a072882a1403a02e62eb68a8e44534544869a2c49f376b539f2538",
      "v": 27,
      "creates": null,
      "raw": "0xf86d03850d6d9651bf83015f9094557c2806b6cea65a66f415bb2ed1ce897b340745888ac7230489e80000801ba056a1aaf491e07749c523519a890c5b7c0c529b57f275c9aba17541d94192ae32a0562f0a6a95a072882a1403a02e62eb68a8e44534544869a2c49f376b539f2538",
      "networkId": 0,
      "chainId": 0
    }
  ]
}