{
  "hash": "0xd72bb18265d9729165dab2be9b8754fed1001825092fe80b8ada4458513cb42f",
  "parentHash": "0x6c7e556c1f58e526fa8a094b3a815fce6b9e64bafff39f209d337f511ba92ae6",
  "number": 81584,
  "timestamp": 1439504270,
  "nonce": "0x77751f4f0fca233e",
  "difficulty": 2442579523250,
  "gasLimit": {
    "_hex": "0x2fefd8"
  },
  "gasUsed": {
    "_hex": "0xf618"
  },
  "miner": "0xF2d2AfF1320476cb8C6b607199D23175cc595693",
  "extraData": "0x476574682f76312e302e312f77696e646f77732f676f312e342e32",
  "transactions": [
    {
      "hash": "0x17b42cd77a79d01fc2b23b4edfabab188e5341f061363b546e928070b3354e7e",
      "blockHash": "0xd72bb18265d9729165dab2be9b8754fed1001825092fe80b8ada4458513cb42f",
      "blockNumber": 81584,
      "transactionIndex": 0,
      "confirmations": null,
      "from": "0x32Be343B94f860124dC4fEe278FDCBD38C102D88",
      "gasPrice": {
        "_hex": "0xd4da431c1"
      },
      "gasLimit": {
        "_hex": "0x5208"
      },
      "to": "0xb49c181AbbC9Fb925B8252F4a31a212A41839876",
      "value": {
        "_hex": "0xdbd2fc137a30000"
      },
      "nonce": 603,
      "data": "0x",
      "r": "0xcf9b42b4c1f4e4ff295cb6244b5e171d077410ec32da0b5828f55147f73affd4",
      "s": "0x78ff4aaaf1d23a140459f1f1477d9487e3cf9364f367f515dea0520e5b452dc1",
      "v": 28,
      "creates": null,
      "raw": "0xf86e82025b850d4da431c182520894b49c181abbc9fb925b8252f4a31a212a41839876880dbd2fc137a30000801ca0cf9b42b4c1f4e4ff295cb6244b5e171d077410ec32da0b5828f55147f73affd4a078ff4aaaf1d23a140459f1f1477d9487e3cf9364f367f515dea0520e5b452dc1",
      "networkId": 0,
      "chainId": 0
    },
    {
      "hash": "0x60b3ad4bb14f1150012d3497df7b63604633073ba233f62808d0873a5ef162f1",
      "blockHash": "0xd72bb18265d9729165dab2be9b8754fed1001825092fe80b8ada4458513cb42f",
      "blockNumber": 81584,
      "transactionIndex": 1,
      "confirmations": null,
      "from": "0x751F0a036c4A71c3aA4e642C74bb301F55861214",
      "gasPrice": {
        "_hex": "0xd4da431c1"
      },
      "gasLimit": {
        "_hex": "0x5208"
      },
      "to": "0x32Be343B94f860124dC4fEe278FDCBD38C102D88",
      "value": {
        "_hex": "0x24f71baae5f9e40000"
      },
      "nonce": 0,
      "data": "0x",
      "r": "0xbb2455d0df6466f7359acfcacccb4f343aa10b9d5cd9d7fa81486327ff2531be",
      "s": "0x019e7107f23aa806273fc210f0aaccb3eefa8a5d2966b0e900c638f4306d3272",
      "v": 28,
      "creates": null,
      "raw": "0xf86d80850d4da431c18252089432be343b94f860124dc4fee278fdcbd38c102d888924f71baae5f9e40000801ca0bb2455d0df6466f7359acfcacccb4f343aa10b9d5cd9d7fa81486327ff2531bea0019e7107f23aa806273fc210f0aaccb3eefa8a5d2966b0e900c638f4306d3272",
      "networkId": 0,
      "chainId": 0
    },
    {
      "hash": "0x8cd290bb47f876848c5beafc452179dc4afd33791ca3b79c8e26a9805d397972",
      "blockHash": "0xd72bb18265d9729165dab2be9b8754fed1001825092fe80b8ada4458513cb42f",
      "blockNumber": 81584,
      "transactionIndex": 2,
      "confirmations": null,
      "from": "0xC60C0509E9B13B71920cef72F2b77127Df91AA9c",
      "gasPrice": {
        "_hex": "0xd49a919f5"
      },
      "gasLimit": {
        "_hex": "0x15f90"
      },
      "to": "0x62d3e24cf84e47AB701A8893BECfAd5cA30D6D02",
      "value": {
        "_hex": "0x6a"
      },
      "nonce": 0,
      "data": "0x",
      "r": "0x576de8a49ee735cc11da0875dba971634b73ef4397551df2c313826050fde89f",
      "s": "0x24612b6e39749b72e0ca91c5a67ddfa83dae9ed25bbbf84d4172559a5d83e343",
      "v": 27,
      "creates": null,
      "raw": "0xf86580850d49a919f583015f909462d3e24cf84e47ab701a8893becfad5ca30d6d026a801ba0576de8a49ee735cc11da0875dba971634b73ef4397551df2c313826050fde89fa024612b6e39749b72e0ca91c5a67ddfa83dae9ed25bbbf84d4172559a5d83e343",
      "networkId": 0,
      "chainId": 0
    }
  ]
}