{
  "hash": "0x0354e1a23c0d7fa0fbad5338e18e084b330c6778afce4a3f400136bdad78cfd0",
  "parentHash": "0x2f71f945ba4fa80283ee0ea22f1923fd24ba7caf9653ab5150464d463ab12288",
  "number": 47321,
  "timestamp": 1438938137,
  "nonce": "0xc6b61f5ca7d07dad",
  "difficulty": 1452394114518,
  "gasLimit": {
    "_hex": "0xb0bf"
  },
  "gasUsed": {
    "_hex": "0xa410"
  },
  "miner": "0xf8E0CA3Ed80bd541b94BEdCf259e8CF2141A9523",
  "extraData": "0x476574682f76312e302e312f77696e646f77732f676f312e342e32",
  "transactions": [
    {
      "hash": "0xcff184edca254b42c2376efcea73765f7df78cf8d241ac40b6fdee050b36d3ef",
      "blockHash": "0x0354e1a23c0d7fa0fbad5338e18e084b330c6778afce4a3f400136bdad78cfd0",
      "blockNumber": 47321,
      "transactionIndex": 0,
      "confirmations": null,
      "from": "0xe6A7a1d47ff21B6321162AEA7C6CB457D5476Bca",
      "gasPrice": {
        "_hex": "0x1111652fc6"
      },
      "gasLimit": {
        "_hex": "0x5208"
      },
      "to": "0x9E0Afd592B1e40BEe26816E360f02eebF04aD74B",
      "value": {
        "_hex": "0xc35daa37097c1ad0"
      },
      "nonce": 107,
      "data": "0x",
      "r": "0xb1df2fe5813bb957e615dbc3c480e806051e0c5bb908a1cba759934bc58bf11f",
      "s": "0x59ff7caba87076fb534a65dfc94c16a958f341bf2d5c96e0e5ace3149003c568",
      "v": 28,
      "creates": null,
      "raw": "0xf86c6b851111652fc6825208949e0afd592b1e40bee26816e360f02eebf04ad74b88c35daa37097c1ad0801ca0b1df2fe5813bb957e615dbc3c480e806051e0c5bb908a1cba759934bc58bf11fa059ff7caba87076fb534a65dfc94c16a958f341bf2d5c96e0e5ace3149003c568",
      "networkId": 0,
      "chainId": 0
    },
    {
      "hash": "0xb4b5adabde0ce2a8fc30608d110d6d301d56863dc1d6f2919f7bc1dc80a5f7db",
      "blockHash": "0x0354e1a23c0d7fa0fbad5338e18e084b330c6778afce4a3f400136bdad78cfd0",
      "blockNumber": 47321,
      "transactionIndex": 1,
      "confirmations": null,
      "from": "0xe6A7a1d47ff21B6321162AEA7C6CB457D5476Bca",
      "gasPrice": {
        "_hex": "0x1111652fc6"
      },
      "gasLimit": {
        "_hex": "0x5208"
      },
      "to": "0xaEA7Dd890b77a6DeD1086BF512f2D635E7DA10E6",
      "value": {
        "_hex": "0xc57c0224830af7a8"
      },
      "nonce": 108,
      "data": "0x",
      "r": "0x0952e141bd488ea66296a9decb0b3a86ce868a9a50933394ab58abd12f5f09ec",
      "s": "0x4ea56cbd164ced0352eb859aa35047d4120264cc495719097ee0d23ad6adb068",
      "v": 27,
      "creates": null,
      "raw": "0xf86c6c851111652fc682520894aea7dd890b77a6ded1086bf512f2d635e7da10e688c57c0224830af7a8801ba00952e141bd488ea66296a9decb0b3a86ce868a9a50933394ab58abd12f5f09eca04ea56cbd164ced0352eb859aa35047d4120264cc495719097ee0d23ad6adb068",
      "networkId": 0,
      "chainId": 0
    }
  ]
}