{
  "hash": "0xfdcaf127611117550281e620f2a6c20f3b7a759a2787a880d6b074082aca6b42",
  "parentHash": "0xf5f44f1a23e691c5f789bd03de2c9bf2a64ea10a8e138c86efcb33b1475293eb",
  "number": 94430,
  "timestamp": 1439708296,
  "nonce": "0x1f4756c61615565a",
  "difficulty": 3483260012676,
  "gasLimit": {
    "_hex": "0x2fefd8"
  },
  "gasUsed": {
    "_hex": "0x5208"
  },
  "miner": "0xbb7B8287f3F0a933474a79eAe42CBCa977791171",
  "extraData": "0x476574682f4c5649562f76312e302e312f6c696e75782f676f312e342e32",
  "transactions": [
    {
      "hash": "0xa091e97885364a0ad80e7fd6ee74ed1a394ed3b1296809c20cd516355fdb64a3",
      "blockHash": "0xfdcaf127611117550281e620f2a6c20f3b7a759a2787a880d6b074082aca6b42",
      "blockNumber": 94430,
      "transactionIndex": 0,
      "confirmations": null,
      "from": "0xFaE76719D97Eac41870428e940279d97dd57B2F6",
      "gasPrice": {
        "_hex": "0xe8d4a51000"
      },
      "gasLimit": {
        "_hex": "0x15f90"
      },
      "to": "0x1308A2e95c0160B90803ddCA9B9a5bb55E416d79",
      "value": {
        "_hex": "0x21e19e0c9bab2400000"
      },
      "nonce": 0,
      "data": "0x",
      "r": "0xb76f4cd4d9230c5843a8d3228c7012140d1f143cbc0c8c0ce53384008ff4e4e1",
      "s": "0x13b85b2640455a8e02770e06d8fb3b612456c9c15a4d80a77a262e333c241086",
      "v": 28,
      "creates": null,
      "raw": "0xf86f8085e8d4a5100083015f90941308a2e95c0160b90803ddca9b9a5bb55e416d798a021e19e0c9bab2400000801ca0b76f4cd4d9230c5843a8d3228c7012140d1f143cbc0c8c0ce53384008ff4e4e1a013b85b2640455a8e02770e06d8fb3b612456c9c15a4d80a77a262e333c241086",
      "networkId": 0,
      "chainId": 0
    }
  ]
}