{
  "hash": "0x03b02298df7f1be22862ab11b69a929d1cbebbe3e1c03e8f2c2122c5d91c0e44",
  "parentHash": "0x0204108abfeceffba71dfdb26c0c2abf146aa36f2d0f44c50c40da137fa3bee4",
  "number": 83408,
  "timestamp": 1439534945,
  "nonce": "0xd5aee4618247e693",
  "difficulty": 2425411708622,
  "gasLimit": {
    "_hex": "0x2fefd8"
  },
  "gasUsed": {
    "_hex": "0x5208"
  },
  "miner": "0x580992B51e3925e23280EfB93d3047C82f17E038",
  "extraData": "0x476574682f76312e302e312f6c696e75782f676f312e342e32",
  "transactions": [
    {
      "hash": "0x6e8f4838e3c05f0a84882ce791e110bc5679f7dcc98af2b9587e3ac545bf87a9",
      "blockHash": "0x03b02298df7f1be22862ab11b69a929d1cbebbe3e1c03e8f2c2122c5d91c0e44",
      "blockNumber": 83408,
      "transactionIndex": 0,
      "confirmations": null,
      "from": "0x184BDE3Ce2E854Cdc2018432AbE1b612B4BfE7E0",
      "gasPrice": {
        "_hex": "0xba43b7400"
      },
      "gasLimit": {
        "_hex": "0x5208"
      },
      "to": "0xC47Aaa860008be6f65B58c6C6E02a84e666EfE31",
      "value": {
        "_hex": "0x532ec9c48773b8f0"
      },
      "nonce": 0,
      "data": "0x",
      "r": "0xb58019c3b14deb69207ee14e53858d0e0a18cc964cb96509864572621ebc11a2",
      "s": "0x6e4f2476801bcd464c5f57fbf21bb63c607b9e50904c8a64b0ae20603509d0ea",
      "v": 28,
      "creates": null,
      "raw": "0xf86c80850ba43b740082520894c47aaa860008be6f65b58c6c6e02a84e666efe3188532ec9c48773b8f0801ca0b58019c3b14deb69207ee14e53858d0e0a18cc964cb96509864572621ebc11a2a06e4f2476801bcd464c5f57fbf21bb63c607b9e50904c8a64b0ae20603509d0ea",
      "networkId": 0,
      "chainId": 0
    }
  ]
}