{
  "hash": "0x4b5a5a074859ffb082e33db15f107fa6cb4566808fc47d49ff2584dbc51fe994",
  "parentHash": "0x8698bcd07063eb3743ecd5b438fcbf6b54d5400c8508d495f9a79109ade36e18",
  "number": 93122,
  "timestamp": 1439683018,
  "nonce": "0xdd847713d9ba138c",
  "difficulty": 3643870514433,
  "gasLimit": {
    "_hex": "0x2fefd8"
  },
  "gasUsed": {
    "_hex": "0xa418"
  },
  "miner": "0x7E6930B63D03e88F5928C5cd6ee3FCee4D714F7F",
  "extraData": "0x",
  "transactions": [
    {
      "hash": "0x33aa02f430d2bb9137c0691f4d437035aa5ad5cb122dbc87b3607833f83bd3c6",
      "blockHash": "0x4b5a5a074859ffb082e33db15f107fa6cb4566808fc47d49ff2584dbc51fe994",
      "blockNumber": 93122,
      "transactionIndex": 0,
      "confirmations": null,
      "from": "0x8375eA550366a24550ec93283600485F4Ba8CFE5",
      "gasPrice": {
        "_hex": "0xd9f2aa79f"
      },
      "gasLimit": {
        "_hex": "0x7530"
      },
      "to": "0xb9836ec1f42Bd48331bceaedb74a6Bcdc22832bD",
      "value": {
        "_hex": "0x38d7ea4c68000"
      },
      "nonce": 7,
      "data": "0x00",
      "r": "0x75b2d46702d72ebbf0f507909d443a6dc7ef0a9a7b7aa84e53c2226c1439b0bc",
      "s": "0xae3aba7f2211812d832c2be4c7aacd264b703a5b0368180cf3980ad28fd911a1",
      "v": 27,
      "creates": null,
      "raw": "0xf86b07850d9f2aa79f82753094b9836ec1f42bd48331bceaedb74a6bcdc22832bd87038d7ea4c68000001ba075b2d46702d72ebbf0f507909d443a6dc7ef0a9a7b7aa84e53c2226c1439b0bca0ae3aba7f2211812d832c2be4c7aacd264b703a5b0368180cf3980ad28fd911a1",
      "networkId": 0,
      "chainId": 0
    },
    {
      "hash": "0x093a9dd05a902875dc226b663e555cc6403680df3b1b2f592136616b3173a2ea",
      "blockHash": "0x4b5a5a074859ffb082e33db15f107fa6cb4566808fc47d49ff2584dbc51fe994",
      "blockNumber": 93122,
      "transactionIndex": 1,
      "confirmations": null,
      "from": "0x8375eA550366a24550ec93283600485F4Ba8CFE5",
      "gasPrice": {
        "_hex": "0xd9f2aa79f"
      },
      "gasLimit": {
        "_hex": "0x7530"
      },
      "to": "0xb9836ec1f42Bd48331bceaedb74a6Bcdc22832bD",
      "value": {
        "_hex": "0x38d7ea4c68000"
      },
      "nonce": 8,
      "data": "0x00",
      "r": "0xc20eba6ce1340ea9e76b2527e15f4d3f798a6c4b8b1a82d41a7ac0387c9b8e2d",
      "s": "0x19a9b8f7de0a30a17c9e7da9ca6f104608d96943831020d728179eca4caef91b",
      "v": 28,
      "creates": null,
      "raw": "0xf86b08850d9f2aa79f82753094b9836ec1f42bd48331bceaedb74a6bcdc22832bd87038d7ea4c68000001ca0c20eba6ce1340ea9e76b2527e15f4d3f798a6c4b8b1a82d41a7ac0387c9b8e2da019a9b8f7de0a30a17c9e7da9ca6f104608d96943831020d728179eca4caef91b",
      "networkId": 0,
      "chainId": 0
    }
  ]
}