{
  "hash": "0x64b5f87a2ff3c7667317b45205506b27fe25c052d448df56babf7d8f0186e346",
  "parentHash": "0xbfadffcb17cae1404e2e94806561ba5a00a57c06aea864f53a8678877e5837f3",
  "number": 77552,
  "timestamp": 1439439103,
  "nonce": "0x119a675d085335bc",
  "difficulty": 2253491115386,
  "gasLimit": {
    "_hex": "0x2fefd8"
  },
  "gasUsed": {
    "_hex": "0x54c8"
  },
  "miner": "0x5F8F73E26CdF436f19Cb24C82F90A15AFe55b592",
  "extraData": "0x476574682f76312e302e312f77696e646f77732f676f312e342e32",
  "transactions": [
    {
      "hash": "0x27aca4a30826f5cd75e2dea7046aa4f17ec7c1194aab0a081eea064f2531063e",
      "blockHash": "0x64b5f87a2ff3c7667317b45205506b27fe25c052d448df56babf7d8f0186e346",
      "blockNumber": 77552,
      "transactionIndex": 0,
      "confirmations": null,
      "from": "0x4BD5f0Ee173C81d42765154865EE69361b6aD189",
      "gasPrice": {
        "_hex": "0x746a528800"
      },
      "gasLimit": {
        "_hex": "0x5dc4"
      },
      "to": "0x2910543Af39abA0Cd09dBb2D50200b3E800A63D2",
      "value": {
        "_hex": "0x8ac7230489e80000"
      },
      "nonce": 22,
      "data": "0x0000000000000000000000000000000000000000000000454e465631595a3552",
      "r": "0xd326d54da46ff4fa1c4e0d91091bc7f10ce89d11fd59fa515a1549b6877c1cdd",
      "s": "0x24b6c34af12ba81fca27d2e1e02607a05e863df06061a0bcafe1406c5502c0cf",
      "v": 27,
      "creates": null,
      "raw": "0xf88c1685746a528800825dc4942910543af39aba0cd09dbb2d50200b3e800a63d2888ac7230489e80000a00000000000000000000000000000000000000000000000454e465631595a35521ba0d326d54da46ff4fa1c4e0d91091bc7f10ce89d11fd59fa515a1549b6877c1cdda024b6c34af12ba81fca27d2e1e02607a05e863df06061a0bcafe1406c5502c0cf",
      "networkId": 0,
      "chainId": 0
    }
  ]
}