{
  "hash": "0xb2217c9905d0a2ce802291db548c5d79bae178e1fb057d4774eac8369923ef33",
  "parentHash": "0xff5b45692aad115286acdb10a624885269b53e0c172cbadd774e3ea7f314e3e6",
  "number": 98636,
  "timestamp": 1439776538,
  "nonce": "0x0727c271e86a7f9a",
  "difficulty": 3827430981786,
  "gasLimit": {
    "_hex": "0x2fefd8"
  },
  "gasUsed": {
    "_hex": "0x5208"
  },
  "miner": "0xC6A5D22D1DDd24B32a308bA4A49ec3cA38a2D0A6",
  "extraData": "0x",
  "transactions": [
    {
      "hash": "0x1a74f16efe47b7b47a037e3c8b9a500dd03dc5fee6f4f9bac3828c059fb96820",
      "blockHash": "0xb2217c9905d0a2ce802291db548c5d79bae178e1fb057d4774eac8369923ef33",
      "blockNumber": 98636,
      "transactionIndex": 0,
      "confirmations": null,
      "from": "0x32Be343B94f860124dC4fEe278FDCBD38C102D88",
      "gasPrice": {
        "_hex": "0xdb88f7a46"
      },
      "gasLimit": {
        "_hex": "0x5208"
      },
      "to": "0x289B9bA6dC9c12D3130F1115180397C20cCBF220",
      "value": {
        "_hex": "0x2471343e51e0980000"
      },
      "nonce": 1045,
      "data": "0x",
      "r": "0xb47c4ef907b75ce6ffe758a52c522c5e37ca426e87c952dfb6c104d637933ba4",
      "s": "0x06b86caf240fdeb693658b270421d487e23b25cafe36d1ceada3dbbaa6ffe36f",
      "v": 27,
      "creates": null,
      "raw": "0xf86f820415850db88f7a4682520894289b9ba6dc9c12d3130f1115180397c20ccbf220892471343e51e0980000801ba0b47c4ef907b75ce6ffe758a52c522c5e37ca426e87c952dfb6c104d637933ba4a006b86caf240fdeb693658b270421d487e23b25cafe36d1ceada3dbbaa6ffe36f",
      "networkId": 0,
      "chainId": 0
    }
  ]
}