{
  "hash": "0x9977d0bacd41d807f6c097e441c63fc40e7a39e156738d8efcad40b7d6ef41db",
  "parentHash": "0xcfe4ada8cec8ad3cf58a95ee4949dbcfdd8d772c29254d87f9c0def79a7ef7f9",
  "number": 106704,
  "timestamp": 1439909074,
  "nonce": "0x25d451a2f7a1f2a6",
  "difficulty": 4448643574667,
  "gasLimit": {
    "_hex": "0x2fefd8"
  },
  "gasUsed": {
    "_hex": "0xa410"
  },
  "miner": "0xf927a40C8B7F6E07c5af7FA2155B4864a4112B13",
  "extraData": "0x",
  "transactions": [
    {
      "hash": "0x76ed11863d03db64215fe19485eb69d895917558282022ef0f1cc8a4114ade5b",
      "blockHash": "0x9977d0bacd41d807f6c097e441c63fc40e7a39e156738d8efcad40b7d6ef41db",
      "blockNumber": 106704,
      "transactionIndex": 0,
      "confirmations": null,
      "from": "0xa70a9a7040d542C632D8e0bE7c5513A8a5Bbc752",
      "gasPrice": {
        "_hex": "0xce96f0070"
      },
      "gasLimit": {
        "_hex": "0x5208"
      },
      "to": "0x32Be343B94f860124dC4fEe278FDCBD38C102D88",
      "value": {
        "_hex": "0x4563d585584a1800"
      },
      "nonce": 250,
      "data": "0x",
      "r": "0x986744c770ceb81e3beedc6249a7adcc59f86963c2cb17ab74fabeccf34cf27d",
      "s": "0x71d370a4dac23b370ffced8d90a3634846abfa0ebe5a2049a8e9dd7296e2db55",
      "v": 27,
      "creates": null,
      "raw": "0xf86d81fa850ce96f00708252089432be343b94f860124dc4fee278fdcbd38c102d88884563d585584a1800801ba0986744c770ceb81e3beedc6249a7adcc59f86963c2cb17ab74fabeccf34cf27da071d370a4dac23b370ffced8d90a3634846abfa0ebe5a2049a8e9dd7296e2db55",
      "networkId": 0,
      "chainId": 0
    },
    {
      "hash": "0x409a0bfaf5e4b9bf9378ff62f49007c78056349531d00323b6cbc86cc663a4e5",
      "blockHash": "0x9977d0bacd41d807f6c097e441c63fc40e7a39e156738d8efcad40b7d6ef41db",
      "blockNumber": 106704,
      "transactionIndex": 1,
      "confirmations": null,
      "from": "0xe81C595000faF9aa9cD5DD53ae4137806d4Ca08E",
      "gasPrice": {
        "_hex": "0xce96f0070"
      },
      "gasLimit": {
        "_hex": "0x5208"
      },
      "to": "0x32Be343B94f860124dC4fEe278FDCBD38C102D88",
      "value": {
        "_hex": "0x15f224a74539800"
      },
      "nonce": 0,
      "data": "0x",
      "r": "0x76488b465fde0479ce265a11cbde01c04474b77a871172ca4c3485e7925b7aa0",
      "s": "0x56285b4fd7a144a4420f1f1f80890db3fd57b8f6a2ab6325d7d9beb1987479e5",
      "v": 28,
      "creates": null,
      "raw": "0xf86c80850ce96f00708252089432be343b94f860124dc4fee278fdcbd38c102d8888015f224a74539800801ca076488b465fde0479ce265a11cbde01c04474b77a871172ca4c3485e7925b7aa0a056285b4fd7a144a4420f1f1f80890db3fd57b8f6a2ab6325d7d9beb1987479e5",
      "networkId": 0,
      "chainId": 0
    }
  ]
}