{
  "hash": "0x01c31de7fafc6ce301450508146121f283461ff3e3899c0d6b51373fcf04599f",
  "parentHash": "0x0deb95d90dc69ebab7184fe94d6cd268e5f3b7a9e05127297364ed29f8623158",
  "number": 49789,
  "timestamp": 1438979224,
  "nonce": "0x25a041d1ddd1146c",
  "difficulty": 1490760346282,
  "gasLimit": {
    "_hex": "0x3f3a1"
  },
  "gasUsed": {
    "_hex": "0x5208"
  },
  "miner": "0xf927a40C8B7F6E07c5af7FA2155B4864a4112B13",
  "extraData": "0x476574682f76312e302e312f6c696e75782f676f312e342e32",
  "transactions": [
    {
      "hash": "0x16187bea698df0cccfce60c4ce9703654b5ab33236317a02d98c289335de24e2",
      "blockHash": "0x01c31de7fafc6ce301450508146121f283461ff3e3899c0d6b51373fcf04599f",
      "blockNumber": 49789,
      "transactionIndex": 0,
      "confirmations": null,
      "from": "0x5E51b8a3BB09D303EA7c86051582fd600FB3DC1a",
      "gasPrice": {
        "_hex": "0x10041aab762"
      },
      "gasLimit": {
        "_hex": "0x15f90"
      },
      "to": "0x51e07ebFfb63C575d3aA5C7F25c5B6Fcae1Da362",
      "value": {
        "_hex": "0x16345785d8a0000"
      },
      "nonce": 0,
      "data": "0x",
      "r": "0x845dd2449b1ff1f07edabf4f7ca46d9ebad0dd99a05885941843c3030b52539d",
      "s": "0x0d81f0e96d847fa2cc1d138aed136f074e605bd240a4291da9255bb77eabddac",
      "v": 27,
      "creates": null,
      "raw": "0xf86e8086010041aab76283015f909451e07ebffb63c575d3aa5c7f25c5b6fcae1da36288016345785d8a0000801ba0845dd2449b1ff1f07edabf4f7ca46d9ebad0dd99a05885941843c3030b52539da00d81f0e96d847fa2cc1d138aed136f074e605bd240a4291da9255bb77eabddac",
      "networkId": 0,
      "chainId": 0
    }
  ]
}