{
  "hash": "0xb06edd2a2d53b5aacfc0266ddef4a5e5d41d4a2745578a6dc861017185094f45",
  "parentHash": "0xa7d17e1cf74bc5f421a1c3baf375cb91be2e6a41a63b3f8c8ee3add00bd1b574",
  "number": 107318,
  "timestamp": 1439920368,
  "nonce": "0x93683e6716f2cb8e",
  "difficulty": 4405088785253,
  "gasLimit": {
    "_hex": "0x2fefd8"
  },
  "gasUsed": {
    "_hex": "0x5208"
  },
  "miner": "0xf8E0CA3Ed80bd541b94BEdCf259e8CF2141A9523",
  "extraData": "0x476574682f76312e302e312f77696e646f77732f676f312e342e32",
  "transactions": [
    {
      "hash": "0x28bd5bd67cc5438aafbd7102b3a85feb9b0287b4b805a47d359961012cec8c02",
      "blockHash": "0xb06edd2a2d53b5aacfc0266ddef4a5e5d41d4a2745578a6dc861017185094f45",
      "blockNumber": 107318,
      "transactionIndex": 0,
      "confirmations": null,
      "from": "0x32Be343B94f860124dC4fEe278FDCBD38C102D88",
      "gasPrice": {
        "_hex": "0xd1abdf800"
      },
      "gasLimit": {
        "_hex": "0x5208"
      },
      "to": "0x120A270bbC009644e35F0bB6ab13f95b8199c4ad",
      "value": {
        "_hex": "0x17b7883c06916600000"
      },
      "nonce": 1207,
      "data": "0x",
      "r": "0x75d108c75b25d1109266d0653bd12ac767a6678edf222488b2cf3e60942c2611",
      "s": "0x7e37dbe735c47163cbb8e93a751b4db289b2306353dfcb02324cc08c88f835f2",
      "v": 27,
      "creates": null,
      "raw": "0xf8708204b7850d1abdf80082520894120a270bbc009644e35f0bb6ab13f95b8199c4ad8a017b7883c06916600000801ba075d108c75b25d1109266d0653bd12ac767a6678edf222488b2cf3e60942c2611a07e37dbe735c47163cbb8e93a751b4db289b2306353dfcb02324cc08c88f835f2",
      "networkId": 0,
      "chainId": 0
    }
  ]
}