{
  "hash": "0x2d583e9dd6a6012ee2588b963703bf4fdcad3114906893e676b12793e4e3e5ce",
  "parentHash": "0x35ff9d691810226970a794851c75dc0e02b8f2070a127dc4ed6199577164fa1a",
  "number": 77074,
  "timestamp": 1439430985,
  "nonce": "0x19a5994d3fffb0dc",
  "difficulty": 2238266460234,
  "gasLimit": {
    "_hex": "0x2fefd8"
  },
  "gasUsed": {
    "_hex": "0x5208"
  },
  "miner": "0xbb7B8287f3F0a933474a79eAe42CBCa977791171",
  "extraData": "0x476574682f4c5649562f76312e302e312f6c696e75782f676f312e342e32",
  "transactions": [
    {
      "hash": "0xd907bb6fd852c4c0120e8515929c6ac29adc9812a09db31a6d72ce0c0c243a7c",
      "blockHash": "0x2d583e9dd6a6012ee2588b963703bf4fdcad3114906893e676b12793e4e3e5ce",
      "blockNumber": 77074,
      "transactionIndex": 0,
      "confirmations": null,
      "from": "0x723E05fF30e4ba7A87b4D7D459eE5B488A9c36d1",
      "gasPrice": {
        "_hex": "0xd8906ccd0"
      },
      "gasLimit": {
        "_hex": "0x15f90"
      },
      "to": "0xabceA603089850F8f6bB612A9031554D90A247CF",
      "value": {
        "_hex": "0x4563918244f40000"
      },
      "nonce": 9,
      "data": "0x",
      "r": "0x83349e8478c520534fef725d9fbb8212361cc495b36ec38d3ff5f83326201ce5",
      "s": "0x30097d12311b800bcb5d5e766a7ccc271c4adf225d1a7ad0c803d12ab23fc66f",
      "v": 27,
      "creates": null,
      "raw": "0xf86d09850d8906ccd083015f9094abcea603089850f8f6bb612a9031554d90a247cf884563918244f40000801ba083349e8478c520534fef725d9fbb8212361cc495b36ec38d3ff5f83326201ce5a030097d12311b800bcb5d5e766a7ccc271c4adf225d1a7ad0c803d12ab23fc66f",
      "networkId": 0,
      "chainId": 0
    }
  ]
}