{
  "hash": "0x5a71a880426563d5385875135f354d9e7e28c849bb4845cb2a2124fec7240e09",
  "parentHash": "0x9945956c5d1c04a1f23dbac3ce289b04dabd314610ee5eddf61451fb1810cde4",
  "number": 56945,
  "timestamp": 1439094985,
  "nonce": "0x8cc163c89bd76cfa",
  "difficulty": 1711046400527,
  "gasLimit": {
    "_hex": "0x2fefd8"
  },
  "gasUsed": {
    "_hex": "0x546c"
  },
  "miner": "0x400fb5A6482E54E44b2250E75251707514c605C1",
  "extraData": "0x476574682f76312e302e312f77696e646f77732f676f312e342e32",
  "transactions": [
    {
      "hash": "0xeeb47008ddfe100a8f0d428d337b31325e8a97b790ff4fd0ea7326121d9b193c",
      "blockHash": "0x5a71a880426563d5385875135f354d9e7e28c849bb4845cb2a2124fec7240e09",
      "blockNumber": 56945,
      "transactionIndex": 0,
      "confirmations": null,
      "from": "0x157c6f2431eB1a95797EE86F7d17b3c0FD47A247",
      "gasPrice": {
        "_hex": "0xcf4bd71b5"
      },
      "gasLimit": {
        "_hex": "0x15f90"
      },
      "to": "0xc0b9d23f8d37650D0141B559dbD33d94Ea004e07",
      "value": {
        "_hex": "0xea300b17a8b780000"
      },
      "nonce": 2,
      "data": "0x454e433933464b3330",
      "r": "0x7a8b52ce87dd44352e0d23e185722820d9ebdc22c1f17668d47b00ee51f2ec71",
      "s": "0x1498253b29dcd8de70a84ffd4f226c2b2b5da2b50197612000c498bb44ff54ff",
      "v": 28,
      "creates": null,
      "raw": "0xf87702850cf4bd71b583015f9094c0b9d23f8d37650d0141b559dbd33d94ea004e07890ea300b17a8b78000089454e433933464b33301ca07a8b52ce87dd44352e0d23e185722820d9ebdc22c1f17668d47b00ee51f2ec71a01498253b29dcd8de70a84ffd4f226c2b2b5da2b50197612000c498bb44ff54ff",
      "networkId": 0,
      "chainId": 0
    }
  ]
}