{
  "hash": "0x593e1f151f6ff35d22e0d899d82b8703c5b3a87b9675563b1876d3a93f8d7b9c",
  "parentHash": "0x4a384e3e9357ab34b52f4f626f1559c7cd6d9590b838e6a09dfb2c8010a680b3",
  "number": 56976,
  "timestamp": 1439095536,
  "nonce": "0xf3d2087ae1c935a0",
  "difficulty": 1706867828271,
  "gasLimit": {
    "_hex": "0x2fefd8"
  },
  "gasUsed": {
    "_hex": "0x5208"
  },
  "miner": "0x00eBA8Ef4fF9B21Ec2FFF273953fDCC81f6fE7da",
  "extraData": "0x476574682f76312e302e312f6c696e75782f676f312e342e32",
  "transactions": [
    {
      "hash": "0xb508b1bd4e672b0cfd950f7f02746f77f64b7e25be18c857c34994435160122a",
      "blockHash": "0x593e1f151f6ff35d22e0d899d82b8703c5b3a87b9675563b1876d3a93f8d7b9c",
      "blockNumber": 56976,
      "transactionIndex": 0,
      "confirmations": null,
      "from": "0x06B0A142c49df51771F80A73C237BF6bd5C93bd1",
      "gasPrice": {
        "_hex": "0x113681fa037"
      },
      "gasLimit": {
        "_hex": "0x15f90"
      },
      "to": "0x26eAB902725342208bC79c5Bfa2C5fE795f7aeD6",
      "value": {
        "_hex": "0x19d14de52c2db500"
      },
      "nonce": 2,
      "data": "0x",
      "r": "0x5a57d50b5ad1bd119a3d5103abc11777e8bd615b00ef7ff359e6421cfa2c1eb1",
      "s": "0x6d875f96d163ecd6acaeb1e7528afeda82bfb1eeefd3a824a805a4179101ac58",
      "v": 28,
      "creates": null,
      "raw": "0xf86e02860113681fa03783015f909426eab902725342208bc79c5bfa2c5fe795f7aed68819d14de52c2db500801ca05a57d50b5ad1bd119a3d5103abc11777e8bd615b00ef7ff359e6421cfa2c1eb1a06d875f96d163ecd6acaeb1e7528afeda82bfb1eeefd3a824a805a4179101ac58",
      "networkId": 0,
      "chainId": 0
    }
  ]
}