{
  "hash": "0xffa2ae12b8e5409ea0c605f06e19243467fefe0441db0f2d27ea3b60c8f0f2c9",
  "parentHash": "0x56f6d5adf7ac0763e43a6f40d538687ffaa6c12129b42d6cea13b66f83416838",
  "number": 58039,
  "timestamp": 1439114016,
  "nonce": "0x42beb3f402c1f5b0",
  "difficulty": 1710823269008,
  "gasLimit": {
    "_hex": "0x2fefd8"
  },
  "gasUsed": {
    "_hex": "0x5208"
  },
  "miner": "0xc8ebccC5F5689Fa8659d83713341e5aD19349448",
  "extraData": "0x476574682f76312e302e302d35363231396135652f6c696e75782f676f312e34",
  "transactions": [
    {
      "hash": "0xab115a7dbea033c41d9a9db6379c829109e316561e870f79cdea37e9878b7563",
      "blockHash": "0xffa2ae12b8e5409ea0c605f06e19243467fefe0441db0f2d27ea3b60c8f0f2c9",
      "blockNumber": 58039,
      "transactionIndex": 0,
      "confirmations": null,
      "from": "0xb583f9403De6C5B2c83D7e2DE9928331176071b8",
      "gasPrice": {
        "_hex": "0xcb867322b"
      },
      "gasLimit": {
        "_hex": "0x5208"
      },
      "to": "0x32Be343B94f860124dC4fEe278FDCBD38C102D88",
      "value": {
        "_hex": "0x3567f6dbe1e2a20000"
      },
      "nonce": 8,
      "data": "0x",
      "r": "0x876ee4ff24f7361919be1441c406def560a0632d35cb0d3fd0aedb23e8338817",
      "s": "0x617efe69d1b9b8e9ca621801f667d5506a0e0503726f4822b44ac1d7ba598977",
      "v": 28,
      "creates": null,
      "raw": "0xf86d08850cb867322b8252089432be343b94f860124dc4fee278fdcbd38c102d88893567f6dbe1e2a20000801ca0876ee4ff24f7361919be1441c406def560a0632d35cb0d3fd0aedb23e8338817a0617efe69d1b9b8e9ca621801f667d5506a0e0503726f4822b44ac1d7ba598977",
      "networkId": 0,
      "chainId": 0
    }
  ]
}