{
  "hash": "0xf29e93114b7fd4e4e61db46fac0bfbed6a2c20b74403e06348fba9df4c98f7bf",
  "parentHash": "0x983dafb2ffc3a4d50e2bdd2f33a4a13c44716e3a60436957cd16df708f4302a2",
  "number": 102262,
  "timestamp": 1439835295,
  "nonce": "0x6e5ffd4dc6d47f91",
  "difficulty": 3935672927329,
  "gasLimit": {
    "_hex": "0x2fefd8"
  },
  "gasUsed": {
    "_hex": "0x5208"
  },
  "miner": "0x0eDEd3DA479d0beF8eeC92A76644D3f4E3C177f7",
  "extraData": "0x476574682f76312e302e312f6c696e75782f676f312e342e32",
  "transactions": [
    {
      "hash": "0x0ba3c50924708fc93e41b3a29f6c9e58ab409219b89349af7df9faf3adee1e4d",
      "blockHash": "0xf29e93114b7fd4e4e61db46fac0bfbed6a2c20b74403e06348fba9df4c98f7bf",
      "blockNumber": 102262,
      "transactionIndex": 0,
      "confirmations": null,
      "from": "0x007f7f58D3eb5b7510A301eCC749FC1fCDDBE14D",
      "gasPrice": {
        "_hex": "0xe0cfe7246"
      },
      "gasLimit": {
        "_hex": "0x15f90"
      },
      "to": "0xb1abce2918E21ddb93AA452731a12672A3d9F75a",
      "value": {
        "_hex": "0x4563918244f40000"
      },
      "nonce": 207,
      "data": "0x",
      "r": "0x218a4f1d7ff3eace30f8669459f45baa6c7e2a8a3a7f990cc4eacb1d7e4b04b9",
      "s": "0x056e511dfdb4adf9a5ea5e1a2ecdc72cfd5cda11c087e36d7b790f380c6081de",
      "v": 28,
      "creates": null,
      "raw": "0xf86e81cf850e0cfe724683015f9094b1abce2918e21ddb93aa452731a12672a3d9f75a884563918244f40000801ca0218a4f1d7ff3eace30f8669459f45baa6c7e2a8a3a7f990cc4eacb1d7e4b04b9a0056e511dfdb4adf9a5ea5e1a2ecdc72cfd5cda11c087e36d7b790f380c6081de",
      "networkId": 0,
      "chainId": 0
    }
  ]
}