{
  "hash": "0x95ed9e962558a80064897ff59f4de0408460c5d4d0207f71d0653fa43fa0c721",
  "parentHash": "0xad1c59036306a13e7627a938866efcad28d786c1ec433c248a79f364457c2278",
  "number": 90002,
  "timestamp": 1439632370,
  "nonce": "0xfd237a79c8aeff50",
  "difficulty": 3354861737904,
  "gasLimit": {
    "_hex": "0x2fefd8"
  },
  "gasUsed": {
    "_hex": "0x5208"
  },
  "miner": "0x007f7f58D3eb5b7510A301eCC749FC1fCDDBE14D",
  "extraData": "0x476574682f76312e302e312f77696e646f77732f676f312e342e32",
  "transactions": [
    {
      "hash": "0xff2465731e1247b42d0ad10456b28ba99825fd9321488b8e850520f9d3839449",
      "blockHash": "0x95ed9e962558a80064897ff59f4de0408460c5d4d0207f71d0653fa43fa0c721",
      "blockNumber": 90002,
      "transactionIndex": 0,
      "confirmations": null,
      "from": "0x8293b65bD915B9FF87F6aDAb479da2e5b6633fDB",
      "gasPrice": {
        "_hex": "0xd8a0ef9a5"
      },
      "gasLimit": {
        "_hex": "0x15f90"
      },
      "to": "0x9f78552704fe7e52cC7C3853534aA2C3cf580D54",
      "value": {
        "_hex": "0x1158e460913d00000"
      },
      "nonce": 3,
      "data": "0x",
      "r": "0xfebc750c0ce74d03226ac939b74c8e387a6c3995891a0c58fe6e027bdc76c2f5",
      "s": "0x18112f5b6a204829c4dbfdce5a2838cd0c5fdf69858dac1f2873bbc04053c17c",
      "v": 27,
      "creates": null,
      "raw": "0xf86e03850d8a0ef9a583015f90949f78552704fe7e52cc7c3853534aa2c3cf580d548901158e460913d00000801ba0febc750c0ce74d03226ac939b74c8e387a6c3995891a0c58fe6e027bdc76c2f5a018112f5b6a204829c4dbfdce5a2838cd0c5fdf69858dac1f2873bbc04053c17c",
      "networkId": 0,
      "chainId": 0
    }
  ]
}