{
  "hash": "0xc315c8e9b8510cf5d512ff466cf8152bccc04baab4f4a2ef2973a5d60d228f8f",
  "parentHash": "0xf995b5d7e61fac7d2e58358c9f416be0fa072add122f0590c48d3b49a41879cd",
  "number": 70716,
  "timestamp": 1439324426,
  "nonce": "0xd632f2cff79357c2",
  "difficulty": 2137388151403,
  "gasLimit": {
    "_hex": "0x2fefd8"
  },
  "gasUsed": {
    "_hex": "0xa410"
  },
  "miner": "0xe6A7a1d47ff21B6321162AEA7C6CB457D5476Bca",
  "extraData": "0x476574682f76312e302e312d38326566323666362f6c696e75782f676f312e34",
  "transactions": [
    {
      "hash": "0xa5d0ac0b3d024b6f4531a5c6ec99e7f8b1899bbfece9b328101eafe099cd7157",
      "blockHash": "0xc315c8e9b8510cf5d512ff466cf8152bccc04baab4f4a2ef2973a5d60d228f8f",
      "blockNumber": 70716,
      "transactionIndex": 0,
      "confirmations": null,
      "from": "0x6E5f2caE525AFa4fffa88dB226B0EcF70B6E10b7",
      "gasPrice": {
        "_hex": "0xd84f8322a"
      },
      "gasLimit": {
        "_hex": "0x5208"
      },
      "to": "0x32Be343B94f860124dC4fEe278FDCBD38C102D88",
      "value": {
        "_hex": "0xa9682113e5ca2800000"
      },
      "nonce": 0,
      "data": "0x",
      "r": "0xd42cd1823316045a9a89818c23ec271d4044f1fe5f4dcdf5eae4bc0ca1aca56c",
      "s": "0x1f068c354760f7b6a7a8fd84a61e1dbc05079975e4ac152d2927b5e544a8ba4d",
      "v": 27,
      "creates": null,
      "raw": "0xf86e80850d84f8322a8252089432be343b94f860124dc4fee278fdcbd38c102d888a0a9682113e5ca2800000801ba0d42cd1823316045a9a89818c23ec271d4044f1fe5f4dcdf5eae4bc0ca1aca56ca01f068c354760f7b6a7a8fd84a61e1dbc05079975e4ac152d2927b5e544a8ba4d",
      "networkId": 0,
      "chainId": 0
    },
    {
      "hash": "0x50adb0a7248cdb30146b0c1c77e305739a0c041341a7717bf2ed704b0af1a93f",
      "blockHash": "0xc315c8e9b8510cf5d512ff466cf8152bccc04baab4f4a2ef2973a5d60d228f8f",
      "blockNumber": 70716,
      "transactionIndex": 1,
      "confirmations": null,
      "from": "0x972ad000397A3c903299F1353d6d4b85eE4E4e2A",
      "gasPrice": {
        "_hex": "0xd84f8322a"
      },
      "gasLimit": {
        "_hex": "0x5208"
      },
      "to": "0x32Be343B94f860124dC4fEe278FDCBD38C102D88",
      "value": {
        "_hex": "0x1d670a96f22523000"
      },
      "nonce": 1,
      "data": "0x",
      "r": "0x569f4db60fd1c4dc76bb68db543822d688e8ad7899a7a618a1a37ba46c0fb164",
      "s": "0x35e6dc4ac398870867c62fca065cc2f87806db51899547ea960a52e0cc8b5f0f",
      "v": 28,
      "creates": null,
      "raw": "0xf86d01850d84f8322a8252089432be343b94f860124dc4fee278fdcbd38c102d888901d670a96f22523000801ca0569f4db60fd1c4dc76bb68db543822d688e8ad7899a7a618a1a37ba46c0fb164a035e6dc4ac398870867c62fca065cc2f87806db51899547ea960a52e0cc8b5f0f",
      "networkId": 0,
      "chainId": 0
    }
  ]
}