{
  "hash": "0x7d6ea35c9e77f59a1c9377a1bf8904ac0598dad53fca8d2e3abd6a714de36b36",
  "parentHash": "0xd95a0a0c47ca572d5fd294e9e746297017bf787bf698fd77f5ed1dea716766fe",
  "number": 98261,
  "timestamp": 1439769630,
  "nonce": "0x62e469cb5602fa8a",
  "difficulty": 3882187087048,
  "gasLimit": {
    "_hex": "0x2fefd8"
  },
  "gasUsed": {
    "_hex": "0x5208"
  },
  "miner": "0x790b8a3cE86E707ED0eD32bF89B3269692a23CC1",
  "extraData": "0xd783010001844765746887676f312e342e32856c696e7578",
  "transactions": [
    {
      "hash": "0x5691ac29715b03b7cd9796bc69f92d34025adbb67df83b5b15e6c368eb53de20",
      "blockHash": "0x7d6ea35c9e77f59a1c9377a1bf8904ac0598dad53fca8d2e3abd6a714de36b36",
      "blockNumber": 98261,
      "transactionIndex": 0,
      "confirmations": null,
      "from": "0x1D3ffA437e5bce40fCC134f4E0ac62841E4A9E81",
      "gasPrice": {
        "_hex": "0xba43b7400"
      },
      "gasLimit": {
        "_hex": "0x5208"
      },
      "to": "0xC47Aaa860008be6f65B58c6C6E02a84e666EfE31",
      "value": {
        "_hex": "0x53408d3dbf5438f0"
      },
      "nonce": 10,
      "data": "0x",
      "r": "0xb62df44142f2754fbc74f20c69952c991a374ecc012d4e4002011cbd88c84579",
      "s": "0x10e0de39d614a1de0cf578da1006392f49a3b4c3631b7d53a8b0f67bb4e9ae3e",
      "v": 27,
      "creates": null,
      "raw": "0xf86c0a850ba43b740082520894c47aaa860008be6f65b58c6c6e02a84e666efe318853408d3dbf5438f0801ba0b62df44142f2754fbc74f20c69952c991a374ecc012d4e4002011cbd88c84579a010e0de39d614a1de0cf578da1006392f49a3b4c3631b7d53a8b0f67bb4e9ae3e",
      "networkId": 0,
      "chainId": 0
    }
  ]
}