{
  "hash": "0x5bd0cdb7c054c10956ec043a4015250c0d93516d8858c91c0c8843efd1bcfda0",
  "parentHash": "0x3080881d2f6a7390cc3d4a559131811bba85af0a18a6f2b80c24cc8e0d02e343",
  "number": 79311,
  "timestamp": 1439467499,
  "nonce": "0x95ef55f5da1f1c8b",
  "difficulty": 2341625047734,
  "gasLimit": {
    "_hex": "0x2fefd8"
  },
  "gasUsed": {
    "_hex": "0x5208"
  },
  "miner": "0xe6A7a1d47ff21B6321162AEA7C6CB457D5476Bca",
  "extraData": "0x476574682f76312e302e312d38326566323666362f6c696e75782f676f312e34",
  "transactions": [
    {
      "hash": "0x851e70dad47bc2cd3f1700568170679e7ff338ef241d3410e47d6009247fd719",
      "blockHash": "0x5bd0cdb7c054c10956ec043a4015250c0d93516d8858c91c0c8843efd1bcfda0",
      "blockNumber": 79311,
      "transactionIndex": 0,
      "confirmations": null,
      "from": "0x72B76a3BFDA65ad99F958B3851FD91c47AcdAe0e",
      "gasPrice": {
        "_hex": "0xd9e78ef0a"
      },
      "gasLimit": {
        "_hex": "0x15f90"
      },
      "to": "0xf3891d2a067de02CE7013436019B0B7dc503a3f6",
      "value": {
        "_hex": "0xcd64299613c80000"
      },
      "nonce": 0,
      "data": "0x",
      "r": "0x91ef9285ae10dd0d25437df45ca495e8e28c4426cf42e05834ea251bb0e7269e",
      "s": "0x6a88967453081117cff20656d1b066a066a54c72bd65d14c559bd6d0e4e08eee",
      "v": 28,
      "creates": null,
      "raw": "0xf86d80850d9e78ef0a83015f9094f3891d2a067de02ce7013436019b0b7dc503a3f688cd64299613c80000801ca091ef9285ae10dd0d25437df45ca495e8e28c4426cf42e05834ea251bb0e7269ea06a88967453081117cff20656d1b066a066a54c72bd65d14c559bd6d0e4e08eee",
      "networkId": 0,
      "chainId": 0
    }
  ]
}