{
  "hash": "0x0da649171351fd48f57a623203e95eea2c5dc8419a76b917c6d5679fc9d020c7",
  "parentHash": "0xccee2da7784f48a684c3b6cda204652bfd2fb5a9de08e2705f3e81174e5ca57a",
  "number": 85960,
  "timestamp": 1439571464,
  "nonce": "0x0fcddcdd537838e2",
  "difficulty": 2785337220349,
  "gasLimit": {
    "_hex": "0x2fefd8"
  },
  "gasUsed": {
    "_hex": "0x5208"
  },
  "miner": "0xe6A7a1d47ff21B6321162AEA7C6CB457D5476Bca",
  "extraData": "0x476574682f76312e302e312d38326566323666362f6c696e75782f676f312e34",
  "transactions": [
    {
      "hash": "0xa846a49d731be872bdceb8e48e021c83aa304ac982c4c2c80410a5f0a6f73c6a",
      "blockHash": "0x0da649171351fd48f57a623203e95eea2c5dc8419a76b917c6d5679fc9d020c7",
      "blockNumber": 85960,
      "transactionIndex": 0,
      "confirmations": null,
      "from": "0x019D3FA6E3cdA649b26F74395A846575c7bEA14C",
      "gasPrice": {
        "_hex": "0xce6de168a"
      },
      "gasLimit": {
        "_hex": "0x15f90"
      },
      "to": "0x04a2a3ee9C9ea82e1F918ecE209f8A7E6d7521E7",
      "value": {
        "_hex": "0x37403dc80c0620000"
      },
      "nonce": 6,
      "data": "0x",
      "r": "0x330137ecd46bbf57a547b9000f56fc3dd3d1ec04fb3f430a223d04e8e8c48ae0",
      "s": "0x2cdf3ee0936b2c18892dfba29e74b4b7e9751ee2f697e4629b807aaa235c5e29",
      "v": 28,
      "creates": null,
      "raw": "0xf86e06850ce6de168a83015f909404a2a3ee9c9ea82e1f918ece209f8a7e6d7521e789037403dc80c0620000801ca0330137ecd46bbf57a547b9000f56fc3dd3d1ec04fb3f430a223d04e8e8c48ae0a02cdf3ee0936b2c18892dfba29e74b4b7e9751ee2f697e4629b807aaa235c5e29",
      "networkId": 0,
      "chainId": 0
    }
  ]
}