{
  "hash": "0x9bdd8673a0edf064c2cdbf298383edee2d08a1ffdad4ba3d41ffc6741d069527",
  "parentHash": "0xdb598da5b2029dfe64884b7afbff6f591e9b6fe4f3e3675447f86e9e8e6eed98",
  "number": 96768,
  "timestamp": 1439745313,
  "nonce": "0x8b5635836eeef591",
  "difficulty": 3772613738266,
  "gasLimit": {
    "_hex": "0x2fefd8"
  },
  "gasUsed": {
    "_hex": "0x546c"
  },
  "miner": "0xa70a9a7040d542C632D8e0bE7c5513A8a5Bbc752",
  "extraData": "0x",
  "transactions": [
    {
      "hash": "0x356cfab7da9813bc12092256adf1efbee6052e053b09e1c4fab1aeb64c7ad9c6",
      "blockHash": "0x9bdd8673a0edf064c2cdbf298383edee2d08a1ffdad4ba3d41ffc6741d069527",
      "blockNumber": 96768,
      "transactionIndex": 0,
      "confirmations": null,
      "from": "0xfDECC82DdfC56192e26f563C3D68CB544a96BFEd",
      "gasPrice": {
        "_hex": "0x110c8f7d8de"
      },
      "gasLimit": {
        "_hex": "0xc350"
      },
      "to": "0x2910543Af39abA0Cd09dBb2D50200b3E800A63D2",
      "value": {
        "_hex": "0x17cc594e140c7c0000"
      },
      "nonce": 0,
      "data": "0x454e42504e304d3338",
      "r": "0x0b00c32a70aa331418bc45f966eb565900a60e116dbc41a31942d8b9c09ca55a",
      "s": "0xa1d949a4a963381d8b57a2df061d3364124cb07fe26ccd37b58fb7bf0e7f34ce",
      "v": 28,
      "creates": null,
      "raw": "0xf87780860110c8f7d8de82c350942910543af39aba0cd09dbb2d50200b3e800a63d28917cc594e140c7c000089454e42504e304d33381ca00b00c32a70aa331418bc45f966eb565900a60e116dbc41a31942d8b9c09ca55aa0a1d949a4a963381d8b57a2df061d3364124cb07fe26ccd37b58fb7bf0e7f34ce",
      "networkId": 0,
      "chainId": 0
    }
  ]
}