{
  "hash": "0x1a6174c75dd3ac17491b8a4c7da02ce1f0a9e41c06982bc3bb2e34d676e51240",
  "parentHash": "0xcf78724fa7706f2c88a9177d844c7b27a367c8f584f20e313aaf42a15f164ff9",
  "number": 121671,
  "timestamp": 1440180670,
  "nonce": "0xb2f4564f937e79f3",
  "difficulty": 4486482272489,
  "gasLimit": {
    "_hex": "0x2fefd8"
  },
  "gasUsed": {
    "_hex": "0xf618"
  },
  "miner": "0xa50ec0D39fa913E62f1Bae7074E6F36caA71855b",
  "extraData": "0xd783010100844765746887676f312e342e32856c696e7578",
  "transactions": [
    {
      "hash": "0x9f18fe93c3d1f91332b143fd2acb43a1df7c1812c85ae06bc24c318f3231b34e",
      "blockHash": "0x1a6174c75dd3ac17491b8a4c7da02ce1f0a9e41c06982bc3bb2e34d676e51240",
      "blockNumber": 121671,
      "transactionIndex": 0,
      "confirmations": null,
      "from": "0x7884D470204862a0d1A21122F41ee77430396Ee5",
      "gasPrice": {
        "_hex": "0xdc9fee2fc"
      },
      "gasLimit": {
        "_hex": "0x15f90"
      },
      "to": "0x1cE5d819B4F8ccAe022dE09D93aaeD19388727EA",
      "value": {
        "_hex": "0x16345785d8a0000"
      },
      "nonce": 119,
      "data": "0x",
      "r": "0xe9e9505017e2ca431642875bf4f912233ca6e2ceafe8168c9af99aee42d82866",
      "s": "0x745d7e99f67b1108432dfab0e6f765e6731038e6be112341fd0d5b282a2b01e7",
      "v": 28,
      "creates": null,
      "raw": "0xf86d77850dc9fee2fc83015f90941ce5d819b4f8ccae022de09d93aaed19388727ea88016345785d8a0000801ca0e9e9505017e2ca431642875bf4f912233ca6e2ceafe8168c9af99aee42d82866a0745d7e99f67b1108432dfab0e6f765e6731038e6be112341fd0d5b282a2b01e7",
      "networkId": 0,
      "chainId": 0
    },
    {
      "hash": "0x7f3bb902cf62b7f66a6c18f610d10e1204de99d40a2911532de2dd231e4ac20d",
      "blockHash": "0x1a6174c75dd3ac17491b8a4c7da02ce1f0a9e41c06982bc3bb2e34d676e51240",
      "blockNumber": 121671,
      "transactionIndex": 1,
      "confirmations": null,
      "from": "0xDC6A542F97876923583019b526335fD1fB0DfC6A",
      "gasPrice": {
        "_hex": "0xd1c578097"
      },
      "gasLimit": {
        "_hex": "0x5208"
      },
      "to": "0x32Be343B94f860124dC4fEe278FDCBD38C102D88",
      "value": {
        "_hex": "0x3ce5d27a3be320000"
      },
      "nonce": 8,
      "data": "0x",
      "r": "0x6685f92f20612abca1a1c88830c211c9566ac1b0cf6800f41ba542ba4636cdd2",
      "s": "0x2ead9eb5e9f4ab0633acb1d523d1867c22bde934d5956fc3292b8806457c1a08",
      "v": 27,
      "creates": null,
      "raw": "0xf86d08850d1c5780978252089432be343b94f860124dc4fee278fdcbd38c102d888903ce5d27a3be320000801ba06685f92f20612abca1a1c88830c211c9566ac1b0cf6800f41ba542ba4636cdd2a02ead9eb5e9f4ab0633acb1d523d1867c22bde934d5956fc3292b8806457c1a08",
      "networkId": 0,
      "chainId": 0
    },
    {
      "hash": "0x7c5bb2a5de1847459b651282d7b4b62b54cf7f81c500586057253dcf717ed4db",
      "blockHash": "0x1a6174c75dd3ac17491b8a4c7da02ce1f0a9e41c06982bc3bb2e34d676e51240",
      "blockNumber": 121671,
      "transactionIndex": 2,
      "confirmations": null,
      "from": "0xd5d9a0033e6B0A3ba7634d0e1a9055ad5f452C3D",
      "gasPrice": {
        "_hex": "0xd1c578097"
      },
      "gasLimit": {
        "_hex": "0x5208"
      },
      "to": "0x32Be343B94f860124dC4fEe278FDCBD38C102D88",
      "value": {
        "_hex": "0x1d8c716b1fe5e0000"
      },
      "nonce": 11,
      "data": "0x",
      "r": "0x79ad9464fb44e3820da074652bbfb184eccf3e9e687b71b6f9ca6dee18011aa1",
      "s": "0x4782ce8f1264de19350d46985d1bdc9b333c18f1b54326d56328b75553347450",
      "v": 27,
      "creates": null,
      "raw": "0xf86d0b850d1c5780978252089432be343b94f860124dc4fee278fdcbd38c102d888901d8c716b1fe5e0000801ba079ad9464fb44e3820da074652bbfb184eccf3e9e687b71b6f9ca6dee18011aa1a04782ce8f1264de19350d46985d1bdc9b333c18f1b54326d56328b75553347450",
      "networkId": 0,
      "chainId": 0
    }
  ]
}