{
  "hash": "0x3945bb2145332200992afafe154f4bca8ab42e9617ce7735e224067cf4b29c6b",
  "parentHash": "0xb0e19f3fb8ce7ad5d009472b1a1010cad8bff6a66572bde12387cfe0e9d81122",
  "number": 66872,
  "timestamp": 1439261714,
  "nonce": "0xc494f2f7a66b6151",
  "difficulty": 1952718519976,
  "gasLimit": {
    "_hex": "0x2fe3de"
  },
  "gasUsed": {
    "_hex": "0x5208"
  },
  "miner": "0xd0DF24FD0DfcDc3850D1590dAA1D03ca7706b11B",
  "extraData": "0x476574682f76312e302e302f77696e646f77732f676f312e342e32",
  "transactions": [
    {
      "hash": "0xd476a772a55278c6a49b82e0b6322d07f0ab41cad59bbbb77ea8367d2aa67a9a",
      "blockHash": "0x3945bb2145332200992afafe154f4bca8ab42e9617ce7735e224067cf4b29c6b",
      "blockNumber": 66872,
      "transactionIndex": 0,
      "confirmations": null,
      "from": "0xD3221E91D252E8f4ec403E46ae6478b7EBaC265c",
      "gasPrice": {
        "_hex": "0x746a528800"
      },
      "gasLimit": {
        "_hex": "0x5b04"
      },
      "to": "0x0d187496799a43E7c43e4324026E32d1Dc80D8E4",
      "value": {
        "_hex": "0x1bc16d674ec80000"
      },
      "nonce": 1,
      "data": "0x",
      "r": "0xe33bfc634501b27af858257041728831be4c8f5b69f2e207365cf6162843e5fe",
      "s": "0x9b4be99dce9c603d223641186aeedd06f20217c45aff6473670d915ee6d119c5",
      "v": 27,
      "creates": null,
      "raw": "0xf86c0185746a528800825b04940d187496799a43e7c43e4324026e32d1dc80d8e4881bc16d674ec80000801ba0e33bfc634501b27af858257041728831be4c8f5b69f2e207365cf6162843e5fea09b4be99dce9c603d223641186aeedd06f20217c45aff6473670d915ee6d119c5",
      "networkId": 0,
      "chainId": 0
    }
  ]
}