{
  "hash": "0xcdb9ddc9ab4b89e21dd9e1632625a55b5a7ac2c9934f400325921d5255ea6c90",
  "parentHash": "0x3b9642d98137d477b2e963edd548afbd5da1fadfddb8fe73bc9c38c0b94c30fe",
  "number": 111488,
  "timestamp": 1439991029,
  "nonce": "0x8d1a75a1fa4009b4",
  "difficulty": 4446107248497,
  "gasLimit": {
    "_hex": "0x2fefd8"
  },
  "gasUsed": {
    "_hex": "0x5208"
  },
  "miner": "0x92762b7a067B2278454eF38d6cb6a96A4c92834e",
  "extraData": "0x476574682f76312e302e312f6c696e75782f676f312e342e32",
  "transactions": [
    {
      "hash": "0x242c1078caf43c3743382b2367b4d1bb073586596ac91a4f5c84614008f20086",
      "blockHash": "0xcdb9ddc9ab4b89e21dd9e1632625a55b5a7ac2c9934f400325921d5255ea6c90",
      "blockNumber": 111488,
      "transactionIndex": 0,
      "confirmations": null,
      "from": "0x32Be343B94f860124dC4fEe278FDCBD38C102D88",
      "gasPrice": {
        "_hex": "0xd20bef556"
      },
      "gasLimit": {
        "_hex": "0x5208"
      },
      "to": "0x65553f5e8FA2eDfCe37Aec51A90ed28777dDe402",
      "value": {
        "_hex": "0x2242b24aa26f9a000"
      },
      "nonce": 1307,
      "data": "0x",
      "r": "0xbbeeb4029847917fcaefd5fa5345208ef421e9e89972159a0c10c5839eb82947",
      "s": "0x4343a6477a8f91a0ac7b755ac848345eb08f2780b0f69ac57815845c005b5a22",
      "v": 27,
      "creates": null,
      "raw": "0xf86f82051b850d20bef5568252089465553f5e8fa2edfce37aec51a90ed28777dde4028902242b24aa26f9a000801ba0bbeeb4029847917fcaefd5fa5345208ef421e9e89972159a0c10c5839eb82947a04343a6477a8f91a0ac7b755ac848345eb08f2780b0f69ac57815845c005b5a22",
      "networkId": 0,
      "chainId": 0
    }
  ]
}