{
  "hash": "0x85e9e00a574ac42cc31cd7c15e8fa945c7f5357b4bb88604ebda58e0e5b298f5",
  "parentHash": "0xd8befbb4541846807a39baa094e802cf5b1febb22a9090d4a34f104f4fad4927",
  "number": 47666,
  "timestamp": 1438944429,
  "nonce": "0x9e5f6b3cf4ae706b",
  "difficulty": 1447378822700,
  "gasLimit": {
    "_hex": "0xe054"
  },
  "gasUsed": {
    "_hex": "0x5208"
  },
  "miner": "0xf927a40C8B7F6E07c5af7FA2155B4864a4112B13",
  "extraData": "0x476574682f76312e302e312f6c696e75782f676f312e342e32",
  "transactions": [
    {
      "hash": "0x3c68cce16da939ae096d12da3ce1fbc48316f3400ea806d471d045dee1ba1c87",
      "blockHash": "0x85e9e00a574ac42cc31cd7c15e8fa945c7f5357b4bb88604ebda58e0e5b298f5",
      "blockNumber": 47666,
      "transactionIndex": 0,
      "confirmations": null,
      "from": "0xe6A7a1d47ff21B6321162AEA7C6CB457D5476Bca",
      "gasPrice": {
        "_hex": "0xcd294add2"
      },
      "gasLimit": {
        "_hex": "0x55f0"
      },
      "to": "0xa28F8098A723e4ca02E9f4512410C519a252c1a9",
      "value": {
        "_hex": "0x35cb71793e4a2d90"
      },
      "nonce": 188,
      "data": "0x",
      "r": "0xa5e56835a453134100308cd0a87cc12280406b310e62393909a32c99d0723886",
      "s": "0x6a31a8d14b86c8856a2ab4caca11f21ae1d055a1a7872175e86a00c0e4a6a2d7",
      "v": 28,
      "creates": null,
      "raw": "0xf86d81bc850cd294add28255f094a28f8098a723e4ca02e9f4512410c519a252c1a98835cb71793e4a2d90801ca0a5e56835a453134100308cd0a87cc12280406b310e62393909a32c99d0723886a06a31a8d14b86c8856a2ab4caca11f21ae1d055a1a7872175e86a00c0e4a6a2d7",
      "networkId": 0,
      "chainId": 0
    }
  ]
}