{
  "hash": "0x856064a0229fa4d8babf366f2cfa001ce357d9a26c680b67190c6f9888dfd49a",
  "parentHash": "0xa7a6588599c82e120330145754361f044770b5364142d95622192aac80424656",
  "number": 68461,
  "timestamp": 1439288322,
  "nonce": "0x91cdf283932acd4b",
  "difficulty": 2007449727897,
  "gasLimit": {
    "_hex": "0x2fefd8"
  },
  "gasUsed": {
    "_hex": "0x28d4c"
  },
  "miner": "0xf8E0CA3Ed80bd541b94BEdCf259e8CF2141A9523",
  "extraData": "0x476574682f76312e302e312f77696e646f77732f676f312e342e32",
  "transactions": [
    {
      "hash": "0x45b463f6f0f495cecadfaab602d40c3fe55793aeda336eeac19fe5db94512e51",
      "blockHash": "0x856064a0229fa4d8babf366f2cfa001ce357d9a26c680b67190c6f9888dfd49a",
      "blockNumber": 68461,
      "transactionIndex": 0,
      "confirmations": null,
      "from": "0x2D38bf4b797D74bc0c700a9a89D6b629eDc9e634",
      "gasPrice": {
        "_hex": "0xba43b7400"
      },
      "gasLimit": {
        "_hex": "0x15f90"
      },
      "to": "0x793AE8C1b1a160BFc07BFB0d04F85eab1A71F4f2",
      "value": {
        "_hex": "0x0"
      },
      "nonce": 0,
      "data": "0x3ba15036",
      "r": "0x8777f9cb074d445e210ac19a7061affb7338c569baa03e60f2314743534e3cb9",
      "s": "0x7a944b209b823d4e64447bdf7ce4e970e1023f4b2bfd9dbe6ff1ad001048ba38",
      "v": 28,
      "creates": null,
      "raw": "0xf86980850ba43b740083015f9094793ae8c1b1a160bfc07bfb0d04f85eab1a71f4f280843ba150361ca08777f9cb074d445e210ac19a7061affb7338c569baa03e60f2314743534e3cb9a07a944b209b823d4e64447bdf7ce4e970e1023f4b2bfd9dbe6ff1ad001048ba38",
      "networkId": 0,
      "chainId": 0
    },
    {
      "hash": "0xd630ba9a848aba98b7171a7ed986e3862012668273084d90e9941d45c136b85a",
      "blockHash": "0x856064a0229fa4d8babf366f2cfa001ce357d9a26c680b67190c6f9888dfd49a",
      "blockNumber": 68461,
      "transactionIndex": 1,
      "confirmations": null,
      "from": "0x6747f922385c9a6F9cfDf095F34345257DD597bE",
      "gasPrice": {
        "_hex": "0xba43b7400"
      },
      "gasLimit": {
        "_hex": "0x5208"
      },
      "to": "0xe04bfFAEc98F74608d9eDBDc60100e98bb57229D",
      "value": {
        "_hex": "0x1fcbfa42bd6000"
      },
      "nonce": 100,
      "data": "0x",
      "r": "0x384df62ccbcda9784a5fab59f92de225a0fb62f987e7e13c8029344cf8639020",
      "s": "0x38b47a2878d9272c1949565e36b732851ed684915ed493255c149a6510cf687a",
      "v": 28,
      "creates": null,
      "raw": "0xf86b64850ba43b740082520894e04bffaec98f74608d9edbdc60100e98bb57229d871fcbfa42bd6000801ca0384df62ccbcda9784a5fab59f92de225a0fb62f987e7e13c8029344cf8639020a038b47a2878d9272c1949565e36b732851ed684915ed493255c149a6510cf687a",
      "networkId": 0,
      "chainId": 0
    },
    {
      "hash": "0x15ae0ee08f350356305984fdc74574783a5d1bec7704d1c0eb1f255425e1f631",
      "blockHash": "0x856064a0229fa4d8babf366f2cfa001ce357d9a26c680b67190c6f9888dfd49a",
      "blockNumber": 68461,
      "transactionIndex": 2,
      "confirmations": null,
      "from": "0xAe799414BF9dA4749666ae0A84a8152605577274",
      "gasPrice": {
        "_hex": "0xba43b7400"
      },
      "gasLimit": {
        "_hex": "0x15f90"
      },
      "to": "0x793AE8C1b1a160BFc07BFB0d04F85eab1A71F4f2",
      "value": {
        "_hex": "0x0"
      },
      "nonce": 0,
      "data": "0x3ba15036",
      "r": "0x8316877802662953cee4e0785b16f0dfcb630c3ad192b6e979506eb388fafb87",
      "s": "0x1a11b841650f1f11c0d876fc22eaabaa2389cbb9ebc3742a37bfbb08a43c5696",
      "v": 28,
      "creates": null,
      "raw": "0xf86980850ba43b740083015f9094793ae8c1b1a160bfc07bfb0d04f85eab1a71f4f280843ba150361ca08316877802662953cee4e0785b16f0dfcb630c3ad192b6e979506eb388fafb87a01a11b841650f1f11c0d876fc22eaabaa2389cbb9ebc3742a37bfbb08a43c5696",
      "networkId": 0,
      "chainId": 0
    },
    {
      "hash": "0xef6ecc7208e6a2bf7ef95387dd62badf395421bc073bee0564ae2bbb102f58dc",
      "blockHash": "0x856064a0229fa4d8babf366f2cfa001ce357d9a26c680b67190c6f9888dfd49a",
      "blockNumber": 68461,
      "transactionIndex": 3,
      "confirmations": null,
      "from": "0x7300D197BA9bb1eae25b00ff1D77DdC0Db3FF1f4",
      "gasPrice": {
        "_hex": "0xba43b7400"
      },
      "gasLimit": {
        "_hex": "0x15f90"
      },
      "to": "0x793AE8C1b1a160BFc07BFB0d04F85eab1A71F4f2",
      "value": {
        "_hex": "0x0"
      },
      "nonce": 0,
      "data": "0x3ba15036",
      "r": "0xf3f45062b7d95da83e54c27480edc4626e97a0108b24f652dbd95f3c1dce19df",
      "s": "0x2cfef6ba6640f52a3183be737580231f4ccbe2a9373f3e3f4437f4aa5a24ef4c",
      "v": 27,
      "creates": null,
      "raw": "0xf86980850ba43b740083015f9094793ae8c1b1a160bfc07bfb0d04f85eab1a71f4f280843ba150361ba0f3f45062b7d95da83e54c27480edc4626e97a0108b24f652dbd95f3c1dce19dfa02cfef6ba6640f52a3183be737580231f4ccbe2a9373f3e3f4437f4aa5a24ef4c",
      "networkId": 0,
      "chainId": 0
    }
  ]
}