{
  "hash": "0x2bab969cda67aa50c5058014411fdb7492c9e58693aa65db2a4dc2df138a0c4b",
  "parentHash": "0x9f4f440623b70b532a111f9865e17bfa8032bccf23ca045fb16f48aada60ed5c",
  "number": 100481,
  "timestamp": 1439807134,
  "nonce": "0xba1a61e2a48aa693",
  "difficulty": 3828458172926,
  "gasLimit": {
    "_hex": "0x2fefd8"
  },
  "gasUsed": {
    "_hex": "0x5208"
  },
  "miner": "0x7E6930B63D03e88F5928C5cd6ee3FCee4D714F7F",
  "extraData": "0x",
  "transactions": [
    {
      "hash": "0xb963cb94786cd1d1d695c6946b08ea302437330a44537ce3be604908fb46c695",
      "blockHash": "0x2bab969cda67aa50c5058014411fdb7492c9e58693aa65db2a4dc2df138a0c4b",
      "blockNumber": 100481,
      "transactionIndex": 0,
      "confirmations": null,
      "from": "0x6964b95BF8BA16b837e2f3Ae8dA7D299553eC1f7",
      "gasPrice": {
        "_hex": "0xe192ea169"
      },
      "gasLimit": {
        "_hex": "0x5208"
      },
      "to": "0x32Be343B94f860124dC4fEe278FDCBD38C102D88",
      "value": {
        "_hex": "0x32f15d4e16803c000"
      },
      "nonce": 6,
      "data": "0x",
      "r": "0x88ebe6f44637a05279e808c82672db997907b0e8307cee2b94cfcfef73c93fd8",
      "s": "0x5128a07f363f1c52033ba12a2bfc5b50858958ef6e964265480365396f5cfd05",
      "v": 27,
      "creates": null,
      "raw": "0xf86d06850e192ea1698252089432be343b94f860124dc4fee278fdcbd38c102d8889032f15d4e16803c000801ba088ebe6f44637a05279e808c82672db997907b0e8307cee2b94cfcfef73c93fd8a05128a07f363f1c52033ba12a2bfc5b50858958ef6e964265480365396f5cfd05",
      "networkId": 0,
      "chainId": 0
    }
  ]
}