{
  "hash": "0x8362060cea014c061101655571f420bb707c45bf15a40c51ebe113beb057ca96",
  "parentHash": "0xe2260c0464ae53ccdd89a2a798cff602d558b8a4b012ffc76f007f9bcc633228",
  "number": 72369,
  "timestamp": 1439351632,
  "nonce": "0xfbecdc601d6700a9",
  "difficulty": 2184441520027,
  "gasLimit": {
    "_hex": "0x2fefd8"
  },
  "gasUsed": {
    "_hex": "0x546c"
  },
  "miner": "0xF2d2AfF1320476cb8C6b607199D23175cc595693",
  "extraData": "0x476574682f76312e302e312f77696e646f77732f676f312e342e32",
  "transactions": [
    {
      "hash": "0x762ade17b9af2f56e51a8ac304bdc581661009894fc62d796cfa8a2036f71070",
      "blockHash": "0x8362060cea014c061101655571f420bb707c45bf15a40c51ebe113beb057ca96",
      "blockNumber": 72369,
      "transactionIndex": 0,
      "confirmations": null,
      "from": "0x8F68fbE2DCFf038C24F650C9e05Ee478038171cd",
      "gasPrice": {
        "_hex": "0xd1e2d2e8b"
      },
      "gasLimit": {
        "_hex": "0x55f0"
      },
      "to": "0x2910543Af39abA0Cd09dBb2D50200b3E800A63D2",
      "value": {
        "_hex": "0x10f0cf064dd59200000"
      },
      "nonce": 9,
      "data": "0x454e36383358334d30",
      "r": "0x1ec48ce8142277fcc3ae13d1263e94d75f74c41404ea57877f912f95dbc334ff",
      "s": "0x4212f22764ee9813dc5e09c4a7ca3f7b42756d7661fe166606420eb51fd595e3",
      "v": 28,
      "creates": null,
      "raw": "0xf87709850d1e2d2e8b8255f0942910543af39aba0cd09dbb2d50200b3e800a63d28a010f0cf064dd5920000089454e36383358334d301ca01ec48ce8142277fcc3ae13d1263e94d75f74c41404ea57877f912f95dbc334ffa04212f22764ee9813dc5e09c4a7ca3f7b42756d7661fe166606420eb51fd595e3",
      "networkId": 0,
      "chainId": 0
    }
  ]
}