{
  "hash": "0x25635f505ea6dc15915bd729ca3d02b9c0e42e98ca1c007cb1e60319f6f04420",
  "parentHash": "0x1f43c1ec610f88c4bbb1ba547f758aa26f0cf3f16e67b64f2ddccfb29cea1e24",
  "number": 93888,
  "timestamp": 1439699354,
  "nonce": "0xf6e6241ddc047e3d",
  "difficulty": 3466517331449,
  "gasLimit": {
    "_hex": "0x2fefd8"
  },
  "gasUsed": {
    "_hex": "0x5208"
  },
  "miner": "0xe6A7a1d47ff21B6321162AEA7C6CB457D5476Bca",
  "extraData": "0x476574682f76312e302e312d38326566323666362f6c696e75782f676f312e34",
  "transactions": [
    {
      "hash": "0x9b21fca4e6f223933748d6e9dc495619d6ee7ae278c70c89ad4771795f102311",
      "blockHash": "0x25635f505ea6dc15915bd729ca3d02b9c0e42e98ca1c007cb1e60319f6f04420",
      "blockNumber": 93888,
      "transactionIndex": 0,
      "confirmations": null,
      "from": "0xb1abce2918E21ddb93AA452731a12672A3d9F75a",
      "gasPrice": {
        "_hex": "0xe027bc3f2"
      },
      "gasLimit": {
        "_hex": "0x5208"
      },
      "to": "0x32Be343B94f860124dC4fEe278FDCBD38C102D88",
      "value": {
        "_hex": "0x7ce1ef141560a000"
      },
      "nonce": 7,
      "data": "0x",
      "r": "0x84ae3d32dd1e7909184ee75557375124c86d5a3dae5da5ed4425d5105ceda4f8",
      "s": "0x5d7c90bca3bf9ef558848a39e5bd5becaad22538325aa30141ddddae40867fb5",
      "v": 27,
      "creates": null,
      "raw": "0xf86c07850e027bc3f28252089432be343b94f860124dc4fee278fdcbd38c102d88887ce1ef141560a000801ba084ae3d32dd1e7909184ee75557375124c86d5a3dae5da5ed4425d5105ceda4f8a05d7c90bca3bf9ef558848a39e5bd5becaad22538325aa30141ddddae40867fb5",
      "networkId": 0,
      "chainId": 0
    }
  ]
}