{
  "hash": "0x94f69af7390376283ce500b047da02db31f24ca675d5d729a4a5fefec7085fec",
  "parentHash": "0xcb74c3c55f16d97685966571ae57a4154725e3dfbf45226dc0997157fcdc1d49",
  "number": 79182,
  "timestamp": 1439465838,
  "nonce": "0x6d2db4b82d259cef",
  "difficulty": 2315510222053,
  "gasLimit": {
    "_hex": "0x2fefd8"
  },
  "gasUsed": {
    "_hex": "0x7108"
  },
  "miner": "0xe6A7a1d47ff21B6321162AEA7C6CB457D5476Bca",
  "extraData": "0x476574682f76312e302e312d38326566323666362f6c696e75782f676f312e34",
  "transactions": [
    {
      "hash": "0xc77ea17713fdf70d5ca315371bcd10ef0f4f83a3d7cd250470e3b8fa248ce38c",
      "blockHash": "0x94f69af7390376283ce500b047da02db31f24ca675d5d729a4a5fefec7085fec",
      "blockNumber": 79182,
      "transactionIndex": 0,
      "confirmations": null,
      "from": "0x7cFa3d23636173A3beFaabc8ca86846A07C4B3DD",
      "gasPrice": {
        "_hex": "0xd34beab15"
      },
      "gasLimit": {
        "_hex": "0x186a0"
      },
      "to": "0xBCd159845b81E35a0b5aFF57FECCD0b3114791Ab",
      "value": {
        "_hex": "0x0"
      },
      "nonce": 10,
      "data": "0x2e1a7d4d000000000000000000000000000000000000000000000003d2625079990a0000",
      "r": "0xfbd697344a0fe130c3c668a005db45806112963965901fbc79388a3ae50fea6a",
      "s": "0x5ec542262ceb7d508f3779b6f891b67b1f1d0c59ac9073e694b620b03f3acc20",
      "v": 27,
      "creates": null,
      "raw": "0xf8890a850d34beab15830186a094bcd159845b81e35a0b5aff57feccd0b3114791ab80a42e1a7d4d000000000000000000000000000000000000000000000003d2625079990a00001ba0fbd697344a0fe130c3c668a005db45806112963965901fbc79388a3ae50fea6aa05ec542262ceb7d508f3779b6f891b67b1f1d0c59ac9073e694b620b03f3acc20",
      "networkId": 0,
      "chainId": 0
    }
  ]
}