{
  "hash": "0xc940e31fe6a104c1acd2ba332e99f96f0008a6e14e10ee7e3306a6e78d363457",
  "parentHash": "0xfbe4cb7cfa19b5d86ade63ba4076bb0e14643d54edbc6015c7e4879ea9b460fc",
  "number": 91752,
  "timestamp": 1439660966,
  "nonce": "0x5a688d36d244edce",
  "difficulty": 3470787914003,
  "gasLimit": {
    "_hex": "0x2fefd8"
  },
  "gasUsed": {
    "_hex": "0x5208"
  },
  "miner": "0xbb7B8287f3F0a933474a79eAe42CBCa977791171",
  "extraData": "0x476574682f4c5649562f76312e302e312f6c696e75782f676f312e342e32",
  "transactions": [
    {
      "hash": "0xcb771d4a2a817bbc5b6a4a239d826876133a02313bdac912a8a80a346834517e",
      "blockHash": "0xc940e31fe6a104c1acd2ba332e99f96f0008a6e14e10ee7e3306a6e78d363457",
      "blockNumber": 91752,
      "transactionIndex": 0,
      "confirmations": null,
      "from": "0x8293b65bD915B9FF87F6aDAb479da2e5b6633fDB",
      "gasPrice": {
        "_hex": "0xccfd09377"
      },
      "gasLimit": {
        "_hex": "0x15f90"
      },
      "to": "0x9f78552704fe7e52cC7C3853534aA2C3cf580D54",
      "value": {
        "_hex": "0x8ac7230489e80000"
      },
      "nonce": 21,
      "data": "0x",
      "r": "0x8f89ca31a9c9e2b25948739db4af483f63c0284a400acbb2bf4d488a0fdf3348",
      "s": "0x72526e31863d859d55734710a2e494c17259c7c40549bbde5fe7e4b447f81c09",
      "v": 28,
      "creates": null,
      "raw": "0xf86d15850ccfd0937783015f90949f78552704fe7e52cc7c3853534aa2c3cf580d54888ac7230489e80000801ca08f89ca31a9c9e2b25948739db4af483f63c0284a400acbb2bf4d488a0fdf3348a072526e31863d859d55734710a2e494c17259c7c40549bbde5fe7e4b447f81c09",
      "networkId": 0,
      "chainId": 0
    }
  ]
}