{
  "hash": "0x464337894b4db166c124c6a2b624c27b5db2266406c8dbe3e7673d7be682a89c",
  "parentHash": "0x85fe3e4afeeb448d99ff57f1cffcb2fa9376e08f2f1ce4f618bcace526158935",
  "number": 119711,
  "timestamp": 1440147542,
  "nonce": "0xcf256aa22002b7b9",
  "difficulty": 4392147159827,
  "gasLimit": {
    "_hex": "0x2fefd8"
  },
  "gasUsed": {
    "_hex": "0x5208"
  },
  "miner": "0x52bc44d5378309EE2abF1539BF71dE1b7d7bE3b5",
  "extraData": "0xd783010002844765746887676f312e342e32856c696e7578",
  "transactions": [
    {
      "hash": "0x758fec1d2a823ee7a6493ac0f65892ad6afdf003ef672f1e40cac216dd95b8eb",
      "blockHash": "0x464337894b4db166c124c6a2b624c27b5db2266406c8dbe3e7673d7be682a89c",
      "blockNumber": 119711,
      "transactionIndex": 0,
      "confirmations": null,
      "from": "0x2910543Af39abA0Cd09dBb2D50200b3E800A63D2",
      "gasPrice": {
        "_hex": "0xdd60b7d68"
      },
      "gasLimit": {
        "_hex": "0x5208"
      },
      "to": "0x853D9B310A9C6995b3f364E9b2AFDF40E2489e64",
      "value": {
        "_hex": "0x61133b705bdb8000"
      },
      "nonce": 1164,
      "data": "0x",
      "r": "0x3a5a662d5301baa181aa319f21c648fa2f8c26070810f9d8355c129968e8a270",
      "s": "0x7323d71975dd254e03034342fc5862a0387ad886d67a7f50c2cacaca53d95cb4",
      "v": 28,
      "creates": null,
      "raw": "0xf86e82048c850dd60b7d6882520894853d9b310a9c6995b3f364e9b2afdf40e2489e648861133b705bdb8000801ca03a5a662d5301baa181aa319f21c648fa2f8c26070810f9d8355c129968e8a270a07323d71975dd254e03034342fc5862a0387ad886d67a7f50c2cacaca53d95cb4",
      "networkId": 0,
      "chainId": 0
    }
  ]
}