{
  "hash": "0xeda1d9d37a50bb01c6cd94af65f66cafac901d9947654f5788b515cb70f7796e",
  "parentHash": "0x960525c59a81bbecfd308dc2e565b1d495620faf15d293970b2bc10c88aa904a",
  "number": 100802,
  "timestamp": 1439812559,
  "nonce": "0x7baf121d85f1bde4",
  "difficulty": 3848929217587,
  "gasLimit": {
    "_hex": "0x2fefd8"
  },
  "gasUsed": {
    "_hex": "0x5208"
  },
  "miner": "0x55bAf64fc9eAccFFd7Cc643BB61142E1C6ac093e",
  "extraData": "0x",
  "transactions": [
    {
      "hash": "0x91fa1f1c8c93608e93fbd2f5c04bec9b470207eb75e16954ba911cdeea016b28",
      "blockHash": "0xeda1d9d37a50bb01c6cd94af65f66cafac901d9947654f5788b515cb70f7796e",
      "blockNumber": 100802,
      "transactionIndex": 0,
      "confirmations": null,
      "from": "0x6c341709A69F0D286ff289986ECd928bb3a51B7A",
      "gasPrice": {
        "_hex": "0xba43b7400"
      },
      "gasLimit": {
        "_hex": "0x5267"
      },
      "to": "0x37C543aA8401165F7212ee311C488FcA6A5721D1",
      "value": {
        "_hex": "0xad8394419ab58000"
      },
      "nonce": 7,
      "data": "0x",
      "r": "0xe045eb2d0f7eb5118ace10411c2e958c199f8a5ebc1995ea01e155e6a829e26a",
      "s": "0x84c23e2c0b4bd86f0dea961197c1375c84c02a97578aba03a9dd8caf8a09a44d",
      "v": 27,
      "creates": null,
      "raw": "0xf86c07850ba43b74008252679437c543aa8401165f7212ee311c488fca6a5721d188ad8394419ab58000801ba0e045eb2d0f7eb5118ace10411c2e958c199f8a5ebc1995ea01e155e6a829e26aa084c23e2c0b4bd86f0dea961197c1375c84c02a97578aba03a9dd8caf8a09a44d",
      "networkId": 0,
      "chainId": 0
    }
  ]
}