{
  "hash": "0xb6599b5477f0bab6b05ea15ff1c59be14096f380d7c89c7b0379d2f35129e73e",
  "parentHash": "0x5359a70a6332aa18925289f28523e1d0516920e93362502ca594fe8a414bd0ec",
  "number": 117027,
  "timestamp": 1440102233,
  "nonce": "0x78b935a0d43ae4bf",
  "difficulty": 4308573678140,
  "gasLimit": {
    "_hex": "0x2fefd8"
  },
  "gasUsed": {
    "_hex": "0x5208"
  },
  "miner": "0x4197AAB12B9F602257C187FB63Ea77eF9036e2F8",
  "extraData": "0xd783010002844765746887676f312e342e32856c696e7578",
  "transactions": [
    {
      "hash": "0xda67695a0cd02442a11c86f749ce908678a03647dfc35045a214ba88d2e00ac0",
      "blockHash": "0xb6599b5477f0bab6b05ea15ff1c59be14096f380d7c89c7b0379d2f35129e73e",
      "blockNumber": 117027,
      "transactionIndex": 0,
      "confirmations": null,
      "from": "0x007f7f58D3eb5b7510A301eCC749FC1fCDDBE14D",
      "gasPrice": {
        "_hex": "0xba43b7400"
      },
      "gasLimit": {
        "_hex": "0x15f90"
      },
      "to": "0xb1abce2918E21ddb93AA452731a12672A3d9F75a",
      "value": {
        "_hex": "0x821ab0d4414980000"
      },
      "nonce": 311,
      "data": "0x",
      "r": "0x69cac7b010e99aadacf3f9b6b90d6b1984efd57e49c4e89c0fa9699cfb00d93f",
      "s": "0x1759d913246007f3bae061584a0677cca3c29b29500e57370d0d9704f15a650e",
      "v": 28,
      "creates": null,
      "raw": "0xf870820137850ba43b740083015f9094b1abce2918e21ddb93aa452731a12672a3d9f75a890821ab0d4414980000801ca069cac7b010e99aadacf3f9b6b90d6b1984efd57e49c4e89c0fa9699cfb00d93fa01759d913246007f3bae061584a0677cca3c29b29500e57370d0d9704f15a650e",
      "networkId": 0,
      "chainId": 0
    }
  ]
}