{
  "hash": "0x110960ab9c14d76c395cd6eaf9956d866f1e8bd1dd6ef79640a801454725b61f",
  "parentHash": "0xfac54c43c61b4ea291097e702b094fa20fadebf9a2d97e61da74c66c79c37895",
  "number": 62594,
  "timestamp": 1439191289,
  "nonce": "0x7f201aac0ce4b8cf",
  "difficulty": 1773673459527,
  "gasLimit": {
    "_hex": "0x2fefd8"
  },
  "gasUsed": {
    "_hex": "0x2a2b"
  },
  "miner": "0x4947190fcC30D3fb3a16233b259bFe6b3492339a",
  "extraData": "0x476574682f76312e302e312d38326566323666362f6c696e75782f676f312e34",
  "transactions": [
    {
      "hash": "0x349769e72b8b8c098dfe6c77f524e0462893ffe0ae1c13a61b0c3a210204c995",
      "blockHash": "0x110960ab9c14d76c395cd6eaf9956d866f1e8bd1dd6ef79640a801454725b61f",
      "blockNumber": 62594,
      "transactionIndex": 0,
      "confirmations": null,
      "from": "0xE2beA3e7d349ab64EBD9873418e78912e13CD35f",
      "gasPrice": {
        "_hex": "0xd59b23934"
      },
      "gasLimit": {
        "_hex": "0x15f90"
      },
      "to": "0x6C18EB3a3cbFc8fc6EeC1d80aB1d0dc5510FA0b1",
      "value": {
        "_hex": "0x0"
      },
      "nonce": 30,
      "data": "0x41c0e1b5",
      "r": "0x486f6e49f479332f7babdcc86c93c2cfea1bacbfa1a041ea6a5ca694d8c0e3c2",
      "s": "0x4b5bcf2e68ea008aee3d009dbf78c162cd55a12ba207fea74027d3a634419c18",
      "v": 28,
      "creates": null,
      "raw": "0xf8691e850d59b2393483015f90946c18eb3a3cbfc8fc6eec1d80ab1d0dc5510fa0b1808441c0e1b51ca0486f6e49f479332f7babdcc86c93c2cfea1bacbfa1a041ea6a5ca694d8c0e3c2a04b5bcf2e68ea008aee3d009dbf78c162cd55a12ba207fea74027d3a634419c18",
      "networkId": 0,
      "chainId": 0
    }
  ]
}