{
  "hash": "0xe9b5433cb3aef708c42d0264f9930e81364768cd1b80e6f0a15ca9b995a5b128",
  "parentHash": "0xb01a0d27c685ae7c6d5dfc6c928289c40d9463bb25409b3981675f50a78a18b3",
  "number": 52866,
  "timestamp": 1439028545,
  "nonce": "0x7ecce612c2cd0ff2",
  "difficulty": 1570141244818,
  "gasLimit": {
    "_hex": "0x1b0d8b"
  },
  "gasUsed": {
    "_hex": "0xf618"
  },
  "miner": "0xf8E0CA3Ed80bd541b94BEdCf259e8CF2141A9523",
  "extraData": "0x476574682f76312e302e312f77696e646f77732f676f312e342e32",
  "transactions": [
    {
      "hash": "0x5c2499291e639cb27ef002c896fa1629799c03e2c277b21dc1def401e681123c",
      "blockHash": "0xe9b5433cb3aef708c42d0264f9930e81364768cd1b80e6f0a15ca9b995a5b128",
      "blockNumber": 52866,
      "transactionIndex": 0,
      "confirmations": null,
      "from": "0x7fa165177F28D171bA7C17f765c1904344Ec64CB",
      "gasPrice": {
        "_hex": "0xdf5f946b8"
      },
      "gasLimit": {
        "_hex": "0x5208"
      },
      "to": "0x32Be343B94f860124dC4fEe278FDCBD38C102D88",
      "value": {
        "_hex": "0x56bc2e4f35e688000"
      },
      "nonce": 2,
      "data": "0x",
      "r": "0x7991688c26a3406681b0374c3b548e11a687e4db9ec4fa1ebff7b96d90d5582c",
      "s": "0x476aa3b0a4fac3486d7fb9e3788e5c69a582a10a96b235ddf25d65c1d66ce6f0",
      "v": 28,
      "creates": null,
      "raw": "0xf86d02850df5f946b88252089432be343b94f860124dc4fee278fdcbd38c102d8889056bc2e4f35e688000801ca07991688c26a3406681b0374c3b548e11a687e4db9ec4fa1ebff7b96d90d5582ca0476aa3b0a4fac3486d7fb9e3788e5c69a582a10a96b235ddf25d65c1d66ce6f0",
      "networkId": 0,
      "chainId": 0
    },
    {
      "hash": "0x00a488e48efdad0b8cb5c966a4ddf11cd36206ce1f3affd1dc1714d64c80d9ae",
      "blockHash": "0xe9b5433cb3aef708c42d0264f9930e81364768cd1b80e6f0a15ca9b995a5b128",
      "blockNumber": 52866,
      "transactionIndex": 1,
      "confirmations": null,
      "from": "0x1a79c7f4039C67A39d7513884cDC0E2C34222490",
      "gasPrice": {
        "_hex": "0xd9f4fe92f"
      },
      "gasLimit": {
        "_hex": "0x15f90"
      },
      "to": "0x99425213944D7885b88Ec9D20D974B7Ac89D62E2",
      "value": {
        "_hex": "0x2a23ddd552673a6"
      },
      "nonce": 3,
      "data": "0x",
      "r": "0x86cde7223ea91397317965d8cc0049c432cc055fac65a167cee2ec2aeeb7a957",
      "s": "0x2cfab216b420f9ebec23afd4486e57c45c86344252ee7fa8cb5bdf56fdf38e5e",
      "v": 28,
      "creates": null,
      "raw": "0xf86d03850d9f4fe92f83015f909499425213944d7885b88ec9d20d974b7ac89d62e28802a23ddd552673a6801ca086cde7223ea91397317965d8cc0049c432cc055fac65a167cee2ec2aeeb7a957a02cfab216b420f9ebec23afd4486e57c45c86344252ee7fa8cb5bdf56fdf38e5e",
      "networkId": 0,
      "chainId": 0
    },
    {
      "hash": "0x6694cd97a16d70fcfdc3e93fabc3f1236ec4d8706e1ff5a8b24ce9e6552a3df4",
      "blockHash": "0xe9b5433cb3aef708c42d0264f9930e81364768cd1b80e6f0a15ca9b995a5b128",
      "blockNumber": 52866,
      "transactionIndex": 2,
      "confirmations": null,
      "from": "0xDe50f61a9a1176B7875050872C6Baf0032e6F6FF",
      "gasPrice": {
        "_hex": "0xd4be89f70"
      },
      "gasLimit": {
        "_hex": "0x15f90"
      },
      "to": "0x40406c243663125ad18ac5729c3356cf673F1d7f",
      "value": {
        "_hex": "0xa688906bd8b00000"
      },
      "nonce": 4,
      "data": "0x",
      "r": "0x73dc1cdd8f3600c911cb77cbcdd9df3e6fc3f42aa993485f3faeadd327d68358",
      "s": "0x2909fb644d72444554add4e39e3c56a18eae550fbc63f5617f1b9920868afca4",
      "v": 27,
      "creates": null,
      "raw": "0xf86d04850d4be89f7083015f909440406c243663125ad18ac5729c3356cf673f1d7f88a688906bd8b00000801ba073dc1cdd8f3600c911cb77cbcdd9df3e6fc3f42aa993485f3faeadd327d68358a02909fb644d72444554add4e39e3c56a18eae550fbc63f5617f1b9920868afca4",
      "networkId": 0,
      "chainId": 0
    }
  ]
}