{
  "hash": "0xc16293d47bb7a0cb7f82e09cb4827e0586da4ca394fade90cb2cda1aadb18f04",
  "parentHash": "0xc8b62d41e4946c4361222e0c712158ef6a05c431d338ed790c6bdff3bb44f634",
  "number": 70561,
  "timestamp": 1439321731,
  "nonce": "0x6da114afef398b3f",
  "difficulty": 2140560937340,
  "gasLimit": {
    "_hex": "0x2fefd8"
  },
  "gasUsed": {
    "_hex": "0xa410"
  },
  "miner": "0xfcd004FbAD7E8FfeE821d8A10D7f0685b14933B1",
  "extraData": "0x",
  "transactions": [
    {
      "hash": "0xa4e547e032ce42d9b6b6a50a619f0a0e373507e1c4df3fb85fd46f6da6f8f041",
      "blockHash": "0xc16293d47bb7a0cb7f82e09cb4827e0586da4ca394fade90cb2cda1aadb18f04",
      "blockNumber": 70561,
      "transactionIndex": 0,
      "confirmations": null,
      "from": "0xf4AB32100Cefc6D1588124c8905578d9F4A64Ed2",
      "gasPrice": {
        "_hex": "0xd4a230884"
      },
      "gasLimit": {
        "_hex": "0x15f90"
      },
      "to": "0xc597A5d92F5dC1137D847db733cfe02c6d209f13",
      "value": {
        "_hex": "0xa747a10bdcb54000"
      },
      "nonce": 0,
      "data": "0x",
      "r": "0xe02e1698bad868b464fe685a96a2d4451520130b4647488b6731f1638777fda2",
      "s": "0x4cd28fe7031f06b1a3102ad6f59de5610513aacc456563560666474fd776449b",
      "v": 28,
      "creates": null,
      "raw": "0xf86d80850d4a23088483015f9094c597a5d92f5dc1137d847db733cfe02c6d209f1388a747a10bdcb54000801ca0e02e1698bad868b464fe685a96a2d4451520130b4647488b6731f1638777fda2a04cd28fe7031f06b1a3102ad6f59de5610513aacc456563560666474fd776449b",
      "networkId": 0,
      "chainId": 0
    },
    {
      "hash": "0x3ada986bcc5acc8255d7619cf6c657230101b0f372e08a9e9e78b96d80aae8ed",
      "blockHash": "0xc16293d47bb7a0cb7f82e09cb4827e0586da4ca394fade90cb2cda1aadb18f04",
      "blockNumber": 70561,
      "transactionIndex": 1,
      "confirmations": null,
      "from": "0x196fD2a85180d94075490F5E912AEAb912DecDf8",
      "gasPrice": {
        "_hex": "0xd4a230884"
      },
      "gasLimit": {
        "_hex": "0x15f90"
      },
      "to": "0xc597A5d92F5dC1137D847db733cfe02c6d209f13",
      "value": {
        "_hex": "0x1b8b87b6de626f10"
      },
      "nonce": 1,
      "data": "0x",
      "r": "0x151389c371951739b6daa49bb8ed8abcc3b20d86a256ab843a856483565ddd3e",
      "s": "0x76c74ad374613228b6eeb185224d5ffecdbacae95ffc6aa4e037c3e85e296cb2",
      "v": 27,
      "creates": null,
      "raw": "0xf86d01850d4a23088483015f9094c597a5d92f5dc1137d847db733cfe02c6d209f13881b8b87b6de626f10801ba0151389c371951739b6daa49bb8ed8abcc3b20d86a256ab843a856483565ddd3ea076c74ad374613228b6eeb185224d5ffecdbacae95ffc6aa4e037c3e85e296cb2",
      "networkId": 0,
      "chainId": 0
    }
  ]
}