{
  "hash": "0x8a7045504f2d8ee51e9c5ee3dfa6cbf3369179aef203dc8fe95a3d2203259c41",
  "parentHash": "0xf0cbd81fda9714ae59699e4f226b50c431f76496a2fb481e40f447cce3f6ae29",
  "number": 75829,
  "timestamp": 1439409977,
  "nonce": "0xa0eabb14112df6f4",
  "difficulty": 2233140015405,
  "gasLimit": {
    "_hex": "0x2fefd8"
  },
  "gasUsed": {
    "_hex": "0x14b50"
  },
  "miner": "0xf927a40C8B7F6E07c5af7FA2155B4864a4112B13",
  "extraData": "0x",
  "transactions": [
    {
      "hash": "0x90fbc38bff921f9e4958012e8957ea4271477c26f03350bf43c6e168e0253b97",
      "blockHash": "0x8a7045504f2d8ee51e9c5ee3dfa6cbf3369179aef203dc8fe95a3d2203259c41",
      "blockNumber": 75829,
      "transactionIndex": 0,
      "confirmations": null,
      "from": "0x908CABeD14f5632705F9D7BdB95d672b164446A8",
      "gasPrice": {
        "_hex": "0xd6673ca24"
      },
      "gasLimit": {
        "_hex": "0x55f0"
      },
      "to": "0x8dB8F218CeD465C5458C6b7fc56AEa358ec27997",
      "value": {
        "_hex": "0xf6b74a878626000"
      },
      "nonce": 1,
      "data": "0x676f61746d696e6542617365",
      "r": "0xd920dd94939f6e06fae8fc78c462d1821ed44c12949d0327b463a734d83a1371",
      "s": "0x1ccf9f16fb3d784acf0a2271ddf78cb817dee9b9e0a214ae0a29ddecf0e709d2",
      "v": 28,
      "creates": null,
      "raw": "0xf87801850d6673ca248255f0948db8f218ced465c5458c6b7fc56aea358ec27997880f6b74a8786260008c676f61746d696e65426173651ca0d920dd94939f6e06fae8fc78c462d1821ed44c12949d0327b463a734d83a1371a01ccf9f16fb3d784acf0a2271ddf78cb817dee9b9e0a214ae0a29ddecf0e709d2",
      "networkId": 0,
      "chainId": 0
    },
    {
      "hash": "0xc07afc247541997b7c16020d0633b2f428d90e099491efeeeef32974ed4c82e6",
      "blockHash": "0x8a7045504f2d8ee51e9c5ee3dfa6cbf3369179aef203dc8fe95a3d2203259c41",
      "blockNumber": 75829,
      "transactionIndex": 1,
      "confirmations": null,
      "from": "0xA3AA3C09d07c1DB0822Bc6CbE1154846bD2d4594",
      "gasPrice": {
        "_hex": "0xd641f460d"
      },
      "gasLimit": {
        "_hex": "0x15f90"
      },
      "to": "0xf2cC0eEAAAeD313542CB262B0B8c3972425143f0",
      "value": {
        "_hex": "0x4"
      },
      "nonce": 3,
      "data": "0x",
      "r": "0x95962a20d5021d90ac4c4198c87224161d9146e520aaf857112fd5f6a3c1c4be",
      "s": "0x60e20797f16a0c00b6434402d135b1ad6b545fde507461e7f2a396f07793ac6d",
      "v": 28,
      "creates": null,
      "raw": "0xf86503850d641f460d83015f9094f2cc0eeaaaed313542cb262b0b8c3972425143f004801ca095962a20d5021d90ac4c4198c87224161d9146e520aaf857112fd5f6a3c1c4bea060e20797f16a0c00b6434402d135b1ad6b545fde507461e7f2a396f07793ac6d",
      "networkId": 0,
      "chainId": 0
    },
    {
      "hash": "0x845a65a3f624f2331b0404799081cba4c81152ff39a72ff06bf4862beb22256f",
      "blockHash": "0x8a7045504f2d8ee51e9c5ee3dfa6cbf3369179aef203dc8fe95a3d2203259c41",
      "blockNumber": 75829,
      "transactionIndex": 2,
      "confirmations": null,
      "from": "0x7fa165177F28D171bA7C17f765c1904344Ec64CB",
      "gasPrice": {
        "_hex": "0xd5622a21b"
      },
      "gasLimit": {
        "_hex": "0x5208"
      },
      "to": "0x32Be343B94f860124dC4fEe278FDCBD38C102D88",
      "value": {
        "_hex": "0x2fb42fa97f76c6000"
      },
      "nonce": 11,
      "data": "0x",
      "r": "0x1ab961d24250a6a00e4616e1aa9d3448068ef5a7b549ffc7675f9f8d41dde541",
      "s": "0x1b8716dda6704ff0ddb54515a9aece5a781116255075dea6c39da63f653db42e",
      "v": 28,
      "creates": null,
      "raw": "0xf86d0b850d5622a21b8252089432be343b94f860124dc4fee278fdcbd38c102d888902fb42fa97f76c6000801ca01ab961d24250a6a00e4616e1aa9d3448068ef5a7b549ffc7675f9f8d41dde541a01b8716dda6704ff0ddb54515a9aece5a781116255075dea6c39da63f653db42e",
      "networkId": 0,
      "chainId": 0
    },
    {
      "hash": "0xb621f8049837244cbb578a62e1b4bcd61c2e56f3cd430553b71ca60f62691f4c",
      "blockHash": "0x8a7045504f2d8ee51e9c5ee3dfa6cbf3369179aef203dc8fe95a3d2203259c41",
      "blockNumber": 75829,
      "transactionIndex": 3,
      "confirmations": null,
      "from": "0x8016f3A56b09360f6Fe72dE1450955Fd69492985",
      "gasPrice": {
        "_hex": "0xd5622a21b"
      },
      "gasLimit": {
        "_hex": "0x5208"
      },
      "to": "0x32Be343B94f860124dC4fEe278FDCBD38C102D88",
      "value": {
        "_hex": "0x1fbdef6fe80aa50000"
      },
      "nonce": 0,
      "data": "0x",
      "r": "0x2e96db1b7fd684ef8ada60fa2d1fa22591c470544528ffd11d48e587a1117fdb",
      "s": "0x370193b510d27fe1c98bf94249ad1df083be4dc60c6dd010d8d42827ba1442f8",
      "v": 28,
      "creates": null,
      "raw": "0xf86d80850d5622a21b8252089432be343b94f860124dc4fee278fdcbd38c102d88891fbdef6fe80aa50000801ca02e96db1b7fd684ef8ada60fa2d1fa22591c470544528ffd11d48e587a1117fdba0370193b510d27fe1c98bf94249ad1df083be4dc60c6dd010d8d42827ba1442f8",
      "networkId": 0,
      "chainId": 0
    }
  ]
}