{
  "hash": "0x2d050ef2636c24395ff9291eebd6604d0f3db5f6ebbc4b2282d2433e000c1a48",
  "parentHash": "0xb206b8689d229648f7bd9eab8e43c3040783160dfc143eb6c505a4c5204103d9",
  "number": 87786,
  "timestamp": 1439597494,
  "nonce": "0x0b3e3fe7cb2c4584",
  "difficulty": 3170959099412,
  "gasLimit": {
    "_hex": "0x2fefd8"
  },
  "gasUsed": {
    "_hex": "0x5208"
  },
  "miner": "0x88D74a59454F6cF3B51ef6b9136AFb6b9D405A88",
  "extraData": "0x476574682f76312e302e312d38326566323666362f6c696e75782f676f312e34",
  "transactions": [
    {
      "hash": "0x242fda771db17b2e4c7592a379d5ed57f6b29635eb66b470bdf2b53f0483fb5d",
      "blockHash": "0x2d050ef2636c24395ff9291eebd6604d0f3db5f6ebbc4b2282d2433e000c1a48",
      "blockNumber": 87786,
      "transactionIndex": 0,
      "confirmations": null,
      "from": "0xf2Ae859397af92154241eAd0aC7c4ce3bea76E8F",
      "gasPrice": {
        "_hex": "0xcc55aedbf"
      },
      "gasLimit": {
        "_hex": "0x15f90"
      },
      "to": "0xC2B34a73703b5274E7B7ec06F35895bA696Bac3f",
      "value": {
        "_hex": "0x2386f26fc10000"
      },
      "nonce": 1,
      "data": "0x",
      "r": "0xa425d683ffbc2b684ac346339361a7117ebf2b162915b5ed1e4412765d5b2f4b",
      "s": "0x36af5ba28ba6f6399a9230ae59ca3d562b56fd850c91a6ffb3f79f14e18e0928",
      "v": 28,
      "creates": null,
      "raw": "0xf86c01850cc55aedbf83015f9094c2b34a73703b5274e7b7ec06f35895ba696bac3f872386f26fc10000801ca0a425d683ffbc2b684ac346339361a7117ebf2b162915b5ed1e4412765d5b2f4ba036af5ba28ba6f6399a9230ae59ca3d562b56fd850c91a6ffb3f79f14e18e0928",
      "networkId": 0,
      "chainId": 0
    }
  ]
}