{
  "hash": "0x9f0f7b6009ee75bfc89e9983a0f2b66acfc710c60bdc61dbb75d0a0ec91a6356",
  "parentHash": "0x294b12d3cd118f029906024c9a51424009eaf7ea01ee5b4fc00d838f466f66f1",
  "number": 68741,
  "timestamp": 1439292960,
  "nonce": "0x4b7771d6a38a94bd",
  "difficulty": 2021152076663,
  "gasLimit": {
    "_hex": "0x2fefd8"
  },
  "gasUsed": {
    "_hex": "0x9400"
  },
  "miner": "0x0037ce3d4B7f8729C8607D8D0248252Be68202c0",
  "extraData": "0x476574682f76312e302e312f77696e646f77732f676f312e342e32",
  "transactions": [
    {
      "hash": "0x53f4aaac8c964543d56804b250bf749d650bf2992f832db90d60de2120596559",
      "blockHash": "0x9f0f7b6009ee75bfc89e9983a0f2b66acfc710c60bdc61dbb75d0a0ec91a6356",
      "blockNumber": 68741,
      "transactionIndex": 0,
      "confirmations": null,
      "from": "0xc8ebccC5F5689Fa8659d83713341e5aD19349448",
      "gasPrice": {
        "_hex": "0xcf00f525f"
      },
      "gasLimit": {
        "_hex": "0x61a80"
      },
      "to": "0x5Fe5B7546D1628f7348B023A0393de1FC825A4fD",
      "value": {
        "_hex": "0x1bc16d674ec80000"
      },
      "nonce": 38,
      "data": "0xb595b8b50000000000000000000000000000000000000000000000000000000000000001",
      "r": "0x7f7004d0d68610914d3d137face33bf31981d107efd828ee9fb23f1beebedf01",
      "s": "0x02f5e6175acbe469024b7045ae05fba517d23534ef104c3c3b519f33d1dabc48",
      "v": 28,
      "creates": null,
      "raw": "0xf89126850cf00f525f83061a80945fe5b7546d1628f7348b023a0393de1fc825a4fd881bc16d674ec80000a4b595b8b500000000000000000000000000000000000000000000000000000000000000011ca07f7004d0d68610914d3d137face33bf31981d107efd828ee9fb23f1beebedf01a002f5e6175acbe469024b7045ae05fba517d23534ef104c3c3b519f33d1dabc48",
      "networkId": 0,
      "chainId": 0
    }
  ]
}