{
  "hash": "0x53e5408704e0fbde2526e2e3b321558d662399656d4af74d4081de304ef0796e",
  "parentHash": "0x6aaabe5fdc7cb4229297f7666f5a2cf62c86ade9fab336218920c8c8f47c89dd",
  "number": 80749,
  "timestamp": 1439490234,
  "nonce": "0x4e4ef7310f56e66f",
  "difficulty": 2439246934936,
  "gasLimit": {
    "_hex": "0x2fefd8"
  },
  "gasUsed": {
    "_hex": "0xa410"
  },
  "miner": "0xC603Ab5ef41fC61AA8b76bEddb09e3Cfcbb174BD",
  "extraData": "0x476574682f76312e302e312f77696e646f77732f676f312e342e32",
  "transactions": [
    {
      "hash": "0xbd5424863082ee8117a3f931872920d849821bf2f7d7e035ff5cc2dde97fffa8",
      "blockHash": "0x53e5408704e0fbde2526e2e3b321558d662399656d4af74d4081de304ef0796e",
      "blockNumber": 80749,
      "transactionIndex": 0,
      "confirmations": null,
      "from": "0x0D4EcC7d750180EBf4A9Df728B6669B5Bceb5E40",
      "gasPrice": {
        "_hex": "0xd4176ddf8"
      },
      "gasLimit": {
        "_hex": "0x5208"
      },
      "to": "0x32Be343B94f860124dC4fEe278FDCBD38C102D88",
      "value": {
        "_hex": "0x34066dbfb677c400"
      },
      "nonce": 6,
      "data": "0x",
      "r": "0x3b9305e56964f43d8665414947050a9b258d0059b8dceceddaf563ce3e37190c",
      "s": "0x28ac514c4bac00e72b234cc72be0194332904ae4e946b2f8e55e6d8f1f0d0b77",
      "v": 28,
      "creates": null,
      "raw": "0xf86c06850d4176ddf88252089432be343b94f860124dc4fee278fdcbd38c102d888834066dbfb677c400801ca03b9305e56964f43d8665414947050a9b258d0059b8dceceddaf563ce3e37190ca028ac514c4bac00e72b234cc72be0194332904ae4e946b2f8e55e6d8f1f0d0b77",
      "networkId": 0,
      "chainId": 0
    },
    {
      "hash": "0x57897f6efb881caf24f58f40180b98762d53ca37b0ca1b04fdfa592ff0559c21",
      "blockHash": "0x53e5408704e0fbde2526e2e3b321558d662399656d4af74d4081de304ef0796e",
      "blockNumber": 80749,
      "transactionIndex": 1,
      "confirmations": null,
      "from": "0xAd941B747c499E3ad5728C285446813783A33564",
      "gasPrice": {
        "_hex": "0xd4176ddf8"
      },
      "gasLimit": {
        "_hex": "0x5208"
      },
      "to": "0x32Be343B94f860124dC4fEe278FDCBD38C102D88",
      "value": {
        "_hex": "0x455f529bae2af800"
      },
      "nonce": 8,
      "data": "0x",
      "r": "0x943e7d9fd1a1235caa21932362c39b374590a367c83c23bb9a4677c05ee8acf1",
      "s": "0x3ecf95ae596769cd7afbe120fa24e445ea7cefac1b2f21225f8f52205ffe926a",
      "v": 28,
      "creates": null,
      "raw": "0xf86c08850d4176ddf88252089432be343b94f860124dc4fee278fdcbd38c102d8888455f529bae2af800801ca0943e7d9fd1a1235caa21932362c39b374590a367c83c23bb9a4677c05ee8acf1a03ecf95ae596769cd7afbe120fa24e445ea7cefac1b2f21225f8f52205ffe926a",
      "networkId": 0,
      "chainId": 0
    }
  ]
}