{
  "hash": "0xbe94e2d6b466a1a0c23249cf12531349f9507ac7e0500d0cb39cb117d0b52080",
  "parentHash": "0x04f6bbe7dacf00b0b0c6d5e6a4557dc9f1ab072df6a517ca9af9355c59ff4761",
  "number": 121413,
  "timestamp": 1440176760,
  "nonce": "0x7d1e70ee7f20c535",
  "difficulty": 4408443000716,
  "gasLimit": {
    "_hex": "0x2fefd8"
  },
  "gasUsed": {
    "_hex": "0x5208"
  },
  "miner": "0x9D551f41feD6FC27B719777c224DfeCcE170004d",
  "extraData": "0x476574682f76312e302e322d61303330336666342f6c696e75782f676f312e34",
  "transactions": [
    {
      "hash": "0xbcbd58680876b39704f01c0f81befb0528b63eca78f1f66c69482c6ec8e2faac",
      "blockHash": "0xbe94e2d6b466a1a0c23249cf12531349f9507ac7e0500d0cb39cb117d0b52080",
      "blockNumber": 121413,
      "transactionIndex": 0,
      "confirmations": null,
      "from": "0x007f7f58D3eb5b7510A301eCC749FC1fCDDBE14D",
      "gasPrice": {
        "_hex": "0xba43b7400"
      },
      "gasLimit": {
        "_hex": "0x15f90"
      },
      "to": "0xb1abce2918E21ddb93AA452731a12672A3d9F75a",
      "value": {
        "_hex": "0x4563918244f40000"
      },
      "nonce": 373,
      "data": "0x",
      "r": "0x743b789cdd948ef46501795d42a6e06ed560b228568e801c58dc3e662b8fcff9",
      "s": "0x1eec6622d0c064fce9c850a21dcfa10a359a3e777e284b8a4779d7376cd3dfd2",
      "v": 28,
      "creates": null,
      "raw": "0xf86f820175850ba43b740083015f9094b1abce2918e21ddb93aa452731a12672a3d9f75a884563918244f40000801ca0743b789cdd948ef46501795d42a6e06ed560b228568e801c58dc3e662b8fcff9a01eec6622d0c064fce9c850a21dcfa10a359a3e777e284b8a4779d7376cd3dfd2",
      "networkId": 0,
      "chainId": 0
    }
  ]
}