{
  "hash": "0x7ce725832e873799645485a2397a0665528a71075142fc2f789fa002a718de67",
  "parentHash": "0xca62d48c3a15f479a0064ba8f3efa3f2554ca57d286f0a19f89f270dc6dfcd7e",
  "number": 94747,
  "timestamp": 1439713576,
  "nonce": "0xd41ed31183874c2d",
  "difficulty": 3481428053776,
  "gasLimit": {
    "_hex": "0x2fefd8"
  },
  "gasUsed": {
    "_hex": "0x5208"
  },
  "miner": "0xe6A7a1d47ff21B6321162AEA7C6CB457D5476Bca",
  "extraData": "0x476574682f76312e302e312d38326566323666362f6c696e75782f676f312e34",
  "transactions": [
    {
      "hash": "0x16daa033f5b98630f5879ce3771afaf198703535cc424acdf6a0a00cce6d7eec",
      "blockHash": "0x7ce725832e873799645485a2397a0665528a71075142fc2f789fa002a718de67",
      "blockNumber": 94747,
      "transactionIndex": 0,
      "confirmations": null,
      "from": "0x357A01795bfA480a007fB4B1B6eDf2e8C23f1840",
      "gasPrice": {
        "_hex": "0xdc544db54"
      },
      "gasLimit": {
        "_hex": "0x5208"
      },
      "to": "0x32Be343B94f860124dC4fEe278FDCBD38C102D88",
      "value": {
        "_hex": "0x34247ebf7aec5c00"
      },
      "nonce": 4,
      "data": "0x",
      "r": "0x4ac3d3396afe2aac8f59e7f0c947c40189625994b167a7a24165f20644dcd0dc",
      "s": "0x006209cd2d566ad20c6565a789a994ce58596ae89760c9de80232fa0c98262bd",
      "v": 27,
      "creates": null,
      "raw": "0xf86b04850dc544db548252089432be343b94f860124dc4fee278fdcbd38c102d888834247ebf7aec5c00801ba04ac3d3396afe2aac8f59e7f0c947c40189625994b167a7a24165f20644dcd0dc9f6209cd2d566ad20c6565a789a994ce58596ae89760c9de80232fa0c98262bd",
      "networkId": 0,
      "chainId": 0
    }
  ]
}