{
  "hash": "0x50cfc3ef36ec7aa9271a750d2cf46b2295f77ab3fb0e0788983e6c38dd548c7e",
  "parentHash": "0xd3fab2c54c34a86fcf1592fe66b054e694530cfe5a5b7a0153c03b46a5cfc85a",
  "number": 67268,
  "timestamp": 1439269182,
  "nonce": "0xa6fe5c70222079a4",
  "difficulty": 1918602739446,
  "gasLimit": {
    "_hex": "0x2fefd5"
  },
  "gasUsed": {
    "_hex": "0xb77f"
  },
  "miner": "0xf8E0CA3Ed80bd541b94BEdCf259e8CF2141A9523",
  "extraData": "0x476574682f76312e302e312f77696e646f77732f676f312e342e32",
  "transactions": [
    {
      "hash": "0xb4e0c48118c2df51d0369a76949dbf2d8471d6a979ba152321f714a5ba9268df",
      "blockHash": "0x50cfc3ef36ec7aa9271a750d2cf46b2295f77ab3fb0e0788983e6c38dd548c7e",
      "blockNumber": 67268,
      "transactionIndex": 0,
      "confirmations": null,
      "from": "0xB100987e77FEbA6F022dBd22B80B008e35d3Ff2E",
      "gasPrice": {
        "_hex": "0xe143f14f3"
      },
      "gasLimit": {
        "_hex": "0x15f90"
      },
      "to": "0xD251a133116194Faa5aD2Bf40F4baF2Aa97D2ae4",
      "value": {
        "_hex": "0x0"
      },
      "nonce": 19,
      "data": "0xc2ca0ac5000000000000000000000000000000000000000000000000000000000000007b",
      "r": "0x9574fa18af951fb6eebef5f6ac8e59783913fe1e76d948ea6210d2fb15b08025",
      "s": "0x51b6f895bef9fe1ab856ff614d453c20b39f8bff504a5ce5a7465e35bfdc4a21",
      "v": 27,
      "creates": null,
      "raw": "0xf88913850e143f14f383015f9094d251a133116194faa5ad2bf40f4baf2aa97d2ae480a4c2ca0ac5000000000000000000000000000000000000000000000000000000000000007b1ba09574fa18af951fb6eebef5f6ac8e59783913fe1e76d948ea6210d2fb15b08025a051b6f895bef9fe1ab856ff614d453c20b39f8bff504a5ce5a7465e35bfdc4a21",
      "networkId": 0,
      "chainId": 0
    }
  ]
}