{
  "hash": "0xc8edba721d9666dbfd32588698b481c40d2f2803fe569bea0b937815ff07742c",
  "parentHash": "0xb9cb42020745a3d7704938ee330164788865faeba01b7448271519a680662426",
  "number": 60534,
  "timestamp": 1439157348,
  "nonce": "0x7c725988ac52f4a5",
  "difficulty": 1739794697641,
  "gasLimit": {
    "_hex": "0x2fefd8"
  },
  "gasUsed": {
    "_hex": "0x546c"
  },
  "miner": "0x01d9DA08cc6Fb97c0DE1B6F4C28910A0859Ed1A1",
  "extraData": "0x476574682f76312e302e312f6c696e75782f676f312e342e32",
  "transactions": [
    {
      "hash": "0xa1278828cd31e3b3c5da5a5ab08639acbc7fc1c911cf4e43d9da4151e565c10e",
      "blockHash": "0xc8edba721d9666dbfd32588698b481c40d2f2803fe569bea0b937815ff07742c",
      "blockNumber": 60534,
      "transactionIndex": 0,
      "confirmations": null,
      "from": "0x6dBE8aBFA1742806263981371Bf3D35590806b6E",
      "gasPrice": {
        "_hex": "0xfd7c0eccb7"
      },
      "gasLimit": {
        "_hex": "0x61a8"
      },
      "to": "0x2910543Af39abA0Cd09dBb2D50200b3E800A63D2",
      "value": {
        "_hex": "0x43ba8fa7070da980000"
      },
      "nonce": 1,
      "data": "0x454e32564e57354d30",
      "r": "0x06e2f1eb539aa00a6e4ee25f6df3763dd27a44688b97d3e1534b1e87ba79199b",
      "s": "0x5ea7ee06b1c718f09814f0c8438d16658ddf60110b71b6b736779edfc04385af",
      "v": 28,
      "creates": null,
      "raw": "0xf8770185fd7c0eccb78261a8942910543af39aba0cd09dbb2d50200b3e800a63d28a043ba8fa7070da98000089454e32564e57354d301ca006e2f1eb539aa00a6e4ee25f6df3763dd27a44688b97d3e1534b1e87ba79199ba05ea7ee06b1c718f09814f0c8438d16658ddf60110b71b6b736779edfc04385af",
      "networkId": 0,
      "chainId": 0
    }
  ]
}