{
  "hash": "0xfb22741c0b8a42871a66e5bf2a422eadd8d0d6e22ee261851dcd7e8954b8f3bf",
  "parentHash": "0xc31841371336ddcfc7ef694e0abc7e2fd091228f74564bfde06d92e0930a50c6",
  "number": 120926,
  "timestamp": 1440168629,
  "nonce": "0x1f83e3981d85d9e5",
  "difficulty": 4415161727933,
  "gasLimit": {
    "_hex": "0x2fefd8"
  },
  "gasUsed": {
    "_hex": "0x5208"
  },
  "miner": "0x52bc44d5378309EE2abF1539BF71dE1b7d7bE3b5",
  "extraData": "0xd783010002844765746887676f312e342e32856c696e7578",
  "transactions": [
    {
      "hash": "0x4d3cc510d44cfc7bac3bf2947845ecbce6185517a421f6f75d3a5005a98ea955",
      "blockHash": "0xfb22741c0b8a42871a66e5bf2a422eadd8d0d6e22ee261851dcd7e8954b8f3bf",
      "blockNumber": 120926,
      "transactionIndex": 0,
      "confirmations": null,
      "from": "0x8F586E3212291c58DCc78980a9c3432a3aFd3b6E",
      "gasPrice": {
        "_hex": "0xba43b7400"
      },
      "gasLimit": {
        "_hex": "0x5208"
      },
      "to": "0x32Be343B94f860124dC4fEe278FDCBD38C102D88",
      "value": {
        "_hex": "0x15af07fa44275c0000"
      },
      "nonce": 14,
      "data": "0x",
      "r": "0xd5186b746910b9eada94d2f0f97f4e55eb562b1a021d9541abd21791ff126a29",
      "s": "0x1546b5a9329bc68f6286117fcdf9e157f07f54a8766ef26b1b6f1d01915ea324",
      "v": 28,
      "creates": null,
      "raw": "0xf86d0e850ba43b74008252089432be343b94f860124dc4fee278fdcbd38c102d888915af07fa44275c0000801ca0d5186b746910b9eada94d2f0f97f4e55eb562b1a021d9541abd21791ff126a29a01546b5a9329bc68f6286117fcdf9e157f07f54a8766ef26b1b6f1d01915ea324",
      "networkId": 0,
      "chainId": 0
    }
  ]
}