{
  "hash": "0x537709206368aec6971b1e0c5655589a4039c31ff3cc0c753d28a5ff5580c27e",
  "parentHash": "0x748f6c97589704e5d0b4be0fa74ccd3862cb5883bb27543d5217d1c107b05ac8",
  "number": 65098,
  "timestamp": 1439231258,
  "nonce": "0x0fc40a4a1ccad4e1",
  "difficulty": 1930376846067,
  "gasLimit": {
    "_hex": "0x2fefd8"
  },
  "gasUsed": {
    "_hex": "0x17cd8"
  },
  "miner": "0xe6A7a1d47ff21B6321162AEA7C6CB457D5476Bca",
  "extraData": "0x476574682f76312e302e312f6c696e75782f676f312e342e32",
  "transactions": [
    {
      "hash": "0x5cb69db8388e85ad62c3de77a24f6bcf0ea6bdd613d00b334fec2d8dede2abcd",
      "blockHash": "0x537709206368aec6971b1e0c5655589a4039c31ff3cc0c753d28a5ff5580c27e",
      "blockNumber": 65098,
      "transactionIndex": 0,
      "confirmations": null,
      "from": "0x22FD23d32e711bE429C784a170798718BbDD46C4",
      "gasPrice": {
        "_hex": "0xba43b7400"
      },
      "gasLimit": {
        "_hex": "0x15f90"
      },
      "to": "0x793AE8C1b1a160BFc07BFB0d04F85eab1A71F4f2",
      "value": {
        "_hex": "0x0"
      },
      "nonce": 0,
      "data": "0x3ba15036",
      "r": "0x54cae3768ffb79b0308f8ff89e4d9e38380916a646ab217c6b548c4e81c0398b",
      "s": "0x4a1f7852539e8df63970794267c355acac209797d715958b7038ba00a2e44085",
      "v": 27,
      "creates": null,
      "raw": "0xf86980850ba43b740083015f9094793ae8c1b1a160bfc07bfb0d04f85eab1a71f4f280843ba150361ba054cae3768ffb79b0308f8ff89e4d9e38380916a646ab217c6b548c4e81c0398ba04a1f7852539e8df63970794267c355acac209797d715958b7038ba00a2e44085",
      "networkId": 0,
      "chainId": 0
    },
    {
      "hash": "0xd066c0f522e5054e9fda216e29e1de317e0345b4de18ef50fef11b812495261a",
      "blockHash": "0x537709206368aec6971b1e0c5655589a4039c31ff3cc0c753d28a5ff5580c27e",
      "blockNumber": 65098,
      "transactionIndex": 1,
      "confirmations": null,
      "from": "0x89419017C71A31cAD180366e78ec5d206794cDBD",
      "gasPrice": {
        "_hex": "0xba43b7400"
      },
      "gasLimit": {
        "_hex": "0x15f90"
      },
      "to": "0x793AE8C1b1a160BFc07BFB0d04F85eab1A71F4f2",
      "value": {
        "_hex": "0x0"
      },
      "nonce": 0,
      "data": "0x3ba15036",
      "r": "0x0fa6b6947e6c7aa2e42200fcb26c3d1fef83a2b78439d1ce80f939e6c3a42a34",
      "s": "0x6cf453db49dbf0cd3b68f73b94fae3846a05c3d7d78563fe451c9a220d790a19",
      "v": 28,
      "creates": null,
      "raw": "0xf86980850ba43b740083015f9094793ae8c1b1a160bfc07bfb0d04f85eab1a71f4f280843ba150361ca00fa6b6947e6c7aa2e42200fcb26c3d1fef83a2b78439d1ce80f939e6c3a42a34a06cf453db49dbf0cd3b68f73b94fae3846a05c3d7d78563fe451c9a220d790a19",
      "networkId": 0,
      "chainId": 0
    }
  ]
}