{
  "hash": "0xd8e5bdbe2b45ec669bd0fc1085358ea4923a4e702636744bb6ff82654142dc31",
  "parentHash": "0xd529c45b4f77b5b5de591d92e3df6b096f8c6548d27d97013fcebe847758ae28",
  "number": 102828,
  "timestamp": 1439843785,
  "nonce": "0x5d00832b96256b22",
  "difficulty": 4060330637129,
  "gasLimit": {
    "_hex": "0x2fefd5"
  },
  "gasUsed": {
    "_hex": "0x5208"
  },
  "miner": "0xe6A7a1d47ff21B6321162AEA7C6CB457D5476Bca",
  "extraData": "0x476574682f76312e302e312d38326566323666362f6c696e75782f676f312e34",
  "transactions": [
    {
      "hash": "0xd3353fac332776ad918977986f891de45562da3beddede737e798d118ab0ec2b",
      "blockHash": "0xd8e5bdbe2b45ec669bd0fc1085358ea4923a4e702636744bb6ff82654142dc31",
      "blockNumber": 102828,
      "transactionIndex": 0,
      "confirmations": null,
      "from": "0xe0e82eD3e93079cE76aAC1dA7b4bfa990D885A0D",
      "gasPrice": {
        "_hex": "0xcc7ceac0f"
      },
      "gasLimit": {
        "_hex": "0x5208"
      },
      "to": "0xFBb1b73C4f0BDa4f67dcA266ce6Ef42f520fBB98",
      "value": {
        "_hex": "0x6d1191194e6806588"
      },
      "nonce": 5,
      "data": "0x",
      "r": "0x0541341615d8e3952859cbf29b56bf73915661a4e2e3f3dad8f827ecdf401cdd",
      "s": "0x0920a8ba614a982c474f88b17288a6a20ac2ebc10c6d4d9b524c74b018ac2685",
      "v": 28,
      "creates": null,
      "raw": "0xf86d05850cc7ceac0f82520894fbb1b73c4f0bda4f67dca266ce6ef42f520fbb988906d1191194e6806588801ca00541341615d8e3952859cbf29b56bf73915661a4e2e3f3dad8f827ecdf401cdda00920a8ba614a982c474f88b17288a6a20ac2ebc10c6d4d9b524c74b018ac2685",
      "networkId": 0,
      "chainId": 0
    }
  ]
}