{
  "hash": "0x26ecc022fd56c8766c39b7dd2efd733bf80231ed563e612f3d66f4c70ca17691",
  "parentHash": "0xa5bc5f5511de0ffc7bc18981a6affb70fb2510c06acd6a8a4fcd3a69d8bda14e",
  "number": 49550,
  "timestamp": 1438975215,
  "nonce": "0xccbc2f7a84851987",
  "difficulty": 1479923742360,
  "gasLimit": {
    "_hex": "0x34f49"
  },
  "gasUsed": {
    "_hex": "0x546c"
  },
  "miner": "0x87cD3b7f4DBBFE553DB92Ac1C97c6C24231c5D26",
  "extraData": "0x476574682f76312e302e302f6c696e75782f676f312e342e32",
  "transactions": [
    {
      "hash": "0x692da57fd9a3e9ea3c944e98843495e60bc3f317e0bddc1ed22ce10615f1f678",
      "blockHash": "0x26ecc022fd56c8766c39b7dd2efd733bf80231ed563e612f3d66f4c70ca17691",
      "blockNumber": 49550,
      "transactionIndex": 0,
      "confirmations": null,
      "from": "0xBe8d7f18aDfe5D6CC775394989E1930C979d007d",
      "gasPrice": {
        "_hex": "0x11a2eabfccc"
      },
      "gasLimit": {
        "_hex": "0x15f90"
      },
      "to": "0x2910543Af39abA0Cd09dBb2D50200b3E800A63D2",
      "value": {
        "_hex": "0x363442e15b11550000"
      },
      "nonce": 0,
      "data": "0x454e42304a42363352",
      "r": "0xf1d91320be03d432e708eb74e37a24e589fe4b52120f0a47ff25ab9e4fbc9d11",
      "s": "0x106ccd44703a3a0902bee78af888f889d9e60405dcf13a6af21829b0b81f2643",
      "v": 28,
      "creates": null,
      "raw": "0xf8788086011a2eabfccc83015f90942910543af39aba0cd09dbb2d50200b3e800a63d289363442e15b1155000089454e42304a423633521ca0f1d91320be03d432e708eb74e37a24e589fe4b52120f0a47ff25ab9e4fbc9d11a0106ccd44703a3a0902bee78af888f889d9e60405dcf13a6af21829b0b81f2643",
      "networkId": 0,
      "chainId": 0
    }
  ]
}