{
  "hash": "0x1b011ac0078a24a224bc61e0a0a8e947bffa61bc601fb7fa068e82fe9fd88851",
  "parentHash": "0x1a6174c75dd3ac17491b8a4c7da02ce1f0a9e41c06982bc3bb2e34d676e51240",
  "number": 121672,
  "timestamp": 1440180691,
  "nonce": "0xd30fbd2d8ffafd2c",
  "difficulty": 4484291607317,
  "gasLimit": {
    "_hex": "0x2fefd8"
  },
  "gasUsed": {
    "_hex": "0xf618"
  },
  "miner": "0x007f7f58D3eb5b7510A301eCC749FC1fCDDBE14D",
  "extraData": "0x",
  "transactions": [
    {
      "hash": "0xb72af96e43963b89e0062ce9085996d88c309ab5d570e0671e17e7874a9cf5f8",
      "blockHash": "0x1b011ac0078a24a224bc61e0a0a8e947bffa61bc601fb7fa068e82fe9fd88851",
      "blockNumber": 121672,
      "transactionIndex": 0,
      "confirmations": null,
      "from": "0x0fCA66B29fD596F59398744163e3eB9C323E5133",
      "gasPrice": {
        "_hex": "0xcf8e61a24"
      },
      "gasLimit": {
        "_hex": "0x5208"
      },
      "to": "0x32Be343B94f860124dC4fEe278FDCBD38C102D88",
      "value": {
        "_hex": "0x409f1bac84c1cc000"
      },
      "nonce": 4,
      "data": "0x",
      "r": "0xd31be3526945cd3f70e2bd59baa01269080c54758a24cb72c74990972f60e301",
      "s": "0x78fce583825f480ce2271b4b4eca2d78a4060692a1774d98bcb1a2dd37399ec8",
      "v": 28,
      "creates": null,
      "raw": "0xf86d04850cf8e61a248252089432be343b94f860124dc4fee278fdcbd38c102d88890409f1bac84c1cc000801ca0d31be3526945cd3f70e2bd59baa01269080c54758a24cb72c74990972f60e301a078fce583825f480ce2271b4b4eca2d78a4060692a1774d98bcb1a2dd37399ec8",
      "networkId": 0,
      "chainId": 0
    },
    {
      "hash": "0x03c166b860d71446e9007dec8860d0276c7e5aa1dc4b4f33690129a2b73b777a",
      "blockHash": "0x1b011ac0078a24a224bc61e0a0a8e947bffa61bc601fb7fa068e82fe9fd88851",
      "blockNumber": 121672,
      "transactionIndex": 1,
      "confirmations": null,
      "from": "0xAbA21175EF27AcBe1648642b9D9E678b856F62a8",
      "gasPrice": {
        "_hex": "0xc7823e4cc"
      },
      "gasLimit": {
        "_hex": "0x15f90"
      },
      "to": "0x3F587446d527E3a66c695E46D735838500fA92fe",
      "value": {
        "_hex": "0x5d65c357ca610000"
      },
      "nonce": 1,
      "data": "0x",
      "r": "0x352f3c1ea0487cb891e4ec1bf1c12d049262ecec8f676fb0e95a05ac44f63c9b",
      "s": "0x3b71be28a9bdc499d20843691389a3334e14d1057322390e1d3fae9d059c865b",
      "v": 27,
      "creates": null,
      "raw": "0xf86d01850c7823e4cc83015f90943f587446d527e3a66c695e46d735838500fa92fe885d65c357ca610000801ba0352f3c1ea0487cb891e4ec1bf1c12d049262ecec8f676fb0e95a05ac44f63c9ba03b71be28a9bdc499d20843691389a3334e14d1057322390e1d3fae9d059c865b",
      "networkId": 0,
      "chainId": 0
    },
    {
      "hash": "0x38529566ac18c452a26215a289ea6c6fda0b6d4fa88d802bcbb5385b40ee05f2",
      "blockHash": "0x1b011ac0078a24a224bc61e0a0a8e947bffa61bc601fb7fa068e82fe9fd88851",
      "blockNumber": 121672,
      "transactionIndex": 2,
      "confirmations": null,
      "from": "0xEa5b801969342B44467C9dE87fEfE2C1dB740bd4",
      "gasPrice": {
        "_hex": "0xc6d22e867"
      },
      "gasLimit": {
        "_hex": "0x15f90"
      },
      "to": "0x211D45933Ef88c3D7aD0120942CF50ab506e618F",
      "value": {
        "_hex": "0xde0b6b3a76400000"
      },
      "nonce": 6,
      "data": "0x",
      "r": "0x7208f23facebf1130e57f20ae0c3a07bb928428062566f464df16a06e486baa6",
      "s": "0x317baf10ce424999d1e3fc4cbe355f1c8609abcffb07d8191b1c2c00b9772539",
      "v": 27,
      "creates": null,
      "raw": "0xf86d06850c6d22e86783015f9094211d45933ef88c3d7ad0120942cf50ab506e618f88de0b6b3a76400000801ba07208f23facebf1130e57f20ae0c3a07bb928428062566f464df16a06e486baa6a0317baf10ce424999d1e3fc4cbe355f1c8609abcffb07d8191b1c2c00b9772539",
      "networkId": 0,
      "chainId": 0
    }
  ]
}