{
  "hash": "0x7312c5406e84f0112af5449735c173495bd236a81f612fc8be80b07463277845",
  "parentHash": "0x577cbccb76cdf62c3eede73127f3d19b760720748f8be0402f378f13126492a8",
  "number": 107578,
  "timestamp": 1439924940,
  "nonce": "0x7e6aabb489908423",
  "difficulty": 4404952254204,
  "gasLimit": {
    "_hex": "0x2fefd8"
  },
  "gasUsed": {
    "_hex": "0x15858"
  },
  "miner": "0x580992B51e3925e23280EfB93d3047C82f17E038",
  "extraData": "0x476574682f76312e302e312f6c696e75782f676f312e342e32",
  "transactions": [
    {
      "hash": "0x29ac8a3dde087d6cb199e055f3ca94154ec50e7dcc3f795c6ba3d82babbfaeff",
      "blockHash": "0x7312c5406e84f0112af5449735c173495bd236a81f612fc8be80b07463277845",
      "blockNumber": 107578,
      "transactionIndex": 0,
      "confirmations": null,
      "from": "0x77b97786B0FB73e55d9E92d4B182beFBF346F979",
      "gasPrice": {
        "_hex": "0xd601fcbbe"
      },
      "gasLimit": {
        "_hex": "0x2fefd8"
      },
      "to": "0xcf2405263b7E0D11EEC326b2Da9d4b0d5463246b",
      "value": {
        "_hex": "0x1f592b6c0d5f4a"
      },
      "nonce": 20,
      "data": "0x3f887fad0000000000000000000000015b2feb2fc83a53b8bcc48289455ff2ac1b92fb7200000000000000000000000000000000000000000000000000000000000000010000000000000000000000000000000000000000000000000058d15e176280000000000000000000000000000000000000000000000000000000000000000000",
      "r": "0x3bda56bbab69a78f1a9e92d23a718b1c0f4d3372db8fdfd0cbbe80a696dcf7a0",
      "s": "0x1f993e9401493dc3f42d4ae0e49f55cd6903a6e199a2eebbdd5e5dc8c50b7d81",
      "v": 27,
      "creates": null,
      "raw": "0xf8f114850d601fcbbe832fefd894cf2405263b7e0d11eec326b2da9d4b0d5463246b871f592b6c0d5f4ab8843f887fad0000000000000000000000015b2feb2fc83a53b8bcc48289455ff2ac1b92fb7200000000000000000000000000000000000000000000000000000000000000010000000000000000000000000000000000000000000000000058d15e1762800000000000000000000000000000000000000000000000000000000000000000001ba03bda56bbab69a78f1a9e92d23a718b1c0f4d3372db8fdfd0cbbe80a696dcf7a0a01f993e9401493dc3f42d4ae0e49f55cd6903a6e199a2eebbdd5e5dc8c50b7d81",
      "networkId": 0,
      "chainId": 0
    }
  ]
}