{
  "hash": "0x4e09fc2930b30aa9c5c43f230d7346d6555edb579aa7e3541f41732c106a046e",
  "parentHash": "0x630845b5b496f6eac718819bd8ab4f94bff832460ad7ae94962ba6e0391b67b0",
  "number": 74380,
  "timestamp": 1439385177,
  "nonce": "0x30c42b065c3166eb",
  "difficulty": 2210740441772,
  "gasLimit": {
    "_hex": "0x2fefd8"
  },
  "gasUsed": {
    "_hex": "0x8f3a"
  },
  "miner": "0x9D0B366c06Bdb8D00C9Ab617db64B505f9e05d79",
  "extraData": "0x476574682f76312e302e312d38326566323666362f6c696e75782f676f312e34",
  "transactions": [
    {
      "hash": "0xde534d0886ae7681a07bdddf1b744c194c3b4e3c262ab1e0b1ed7f5ab6b21e05",
      "blockHash": "0x4e09fc2930b30aa9c5c43f230d7346d6555edb579aa7e3541f41732c106a046e",
      "blockNumber": 74380,
      "transactionIndex": 0,
      "confirmations": null,
      "from": "0x326Be8F71bFb0379f989aAB1CC1fE37f0a771f60",
      "gasPrice": {
        "_hex": "0x102bd7801ea"
      },
      "gasLimit": {
        "_hex": "0x493e0"
      },
      "to": "0x88A91FD7Fb8AAEa8cDAD2C990f1DBDcd28022a02",
      "value": {
        "_hex": "0x8ac7230489e80000"
      },
      "nonce": 52,
      "data": "0x8d2161860000000000000000000000000000000000000000000000000000000000000080a4dce68b712fee32c7e4d7ddc6345d37e9bf07c932be0a8cd66fcc9754def399",
      "r": "0x3a0adbf4cb6008edb3a57b5bc453da6c9cb9c48b609b55e52e8e04b85951611e",
      "s": "0x53fb710572d68738c12fc86e6c6622534a7270e707dc7ca409773cea53e0a24a",
      "v": 27,
      "creates": null,
      "raw": "0xf8b334860102bd7801ea830493e09488a91fd7fb8aaea8cdad2c990f1dbdcd28022a02888ac7230489e80000b8448d2161860000000000000000000000000000000000000000000000000000000000000080a4dce68b712fee32c7e4d7ddc6345d37e9bf07c932be0a8cd66fcc9754def3991ba03a0adbf4cb6008edb3a57b5bc453da6c9cb9c48b609b55e52e8e04b85951611ea053fb710572d68738c12fc86e6c6622534a7270e707dc7ca409773cea53e0a24a",
      "networkId": 0,
      "chainId": 0
    }
  ]
}