{
  "hash": "0xa584087a142d555b18965a2f120aee8f581cbb3f9051ca312998663ae75b445c",
  "parentHash": "0x628623f9c173a4b208745ca7e2ebb189a4bf800e20805b2f52ed39b1a505aee7",
  "number": 61017,
  "timestamp": 1439165265,
  "nonce": "0x40cf35eaae14683d",
  "difficulty": 1740544194178,
  "gasLimit": {
    "_hex": "0x2fefd8"
  },
  "gasUsed": {
    "_hex": "0x5208"
  },
  "miner": "0x87898CE53471043FcCa0a2aF4E1dC6d8B3fCf607",
  "extraData": "0x476574682f5369626572696131392f76312e302e312d37666266393930632f6c",
  "transactions": [
    {
      "hash": "0x43ceeb32362bb33026fdab3f57a4a74a516a2cbd2f686b263fb7786770f36112",
      "blockHash": "0xa584087a142d555b18965a2f120aee8f581cbb3f9051ca312998663ae75b445c",
      "blockNumber": 61017,
      "transactionIndex": 0,
      "confirmations": null,
      "from": "0x2910543Af39abA0Cd09dBb2D50200b3E800A63D2",
      "gasPrice": {
        "_hex": "0xcc12453af"
      },
      "gasLimit": {
        "_hex": "0x5208"
      },
      "to": "0x7c3f4907164F65CcA6ec853aC340ef1e71B1f5C9",
      "value": {
        "_hex": "0x303f29691ab9c78000"
      },
      "nonce": 95,
      "data": "0x",
      "r": "0x8354b3a747ac637e23325154b87c329b0ad5bd8b4253ab930d96130c235a7037",
      "s": "0x35bf90fb40637800f27feadf087c1dc6a8696baa6d132624a73f7a124ce35491",
      "v": 27,
      "creates": null,
      "raw": "0xf86d5f850cc12453af825208947c3f4907164f65cca6ec853ac340ef1e71b1f5c989303f29691ab9c78000801ba08354b3a747ac637e23325154b87c329b0ad5bd8b4253ab930d96130c235a7037a035bf90fb40637800f27feadf087c1dc6a8696baa6d132624a73f7a124ce35491",
      "networkId": 0,
      "chainId": 0
    }
  ]
}