{
  "hash": "0xb2b97b176b92cdef23457a33a02143449f2db81ecddf71ec634cc69ac4f36568",
  "parentHash": "0x5b88ad56ee2b995fe29e7ba5054ca5c1edee2e2fd0892468c9a7bea68ad63485",
  "number": 113145,
  "timestamp": 1440018514,
  "nonce": "0x603e986bcaed39a5",
  "difficulty": 4499824698488,
  "gasLimit": {
    "_hex": "0x2fefd8"
  },
  "gasUsed": {
    "_hex": "0x5208"
  },
  "miner": "0xe6A7a1d47ff21B6321162AEA7C6CB457D5476Bca",
  "extraData": "0x476574682f76312e302e312d38326566323666362f6c696e75782f676f312e34",
  "transactions": [
    {
      "hash": "0x334fa5b8229064e215d2563d4abecfb3c6a503143503f8c819cfeb7f8103a94d",
      "blockHash": "0xb2b97b176b92cdef23457a33a02143449f2db81ecddf71ec634cc69ac4f36568",
      "blockNumber": 113145,
      "transactionIndex": 0,
      "confirmations": null,
      "from": "0x056507108FE6d30189EcCD6cd7F4Fad56eEef622",
      "gasPrice": {
        "_hex": "0xcba909dac"
      },
      "gasLimit": {
        "_hex": "0x15f90"
      },
      "to": "0x0cA19A53a3256482A89770FC1daFC7630717F201",
      "value": {
        "_hex": "0x8788277371483433"
      },
      "nonce": 25,
      "data": "0x",
      "r": "0xf62721070e16002074c2feed051ff964c12cf1af177b0c8bde5e5feb947ab65c",
      "s": "0x18f0a9d5b9c098615f030939df2880f02e61406643291b5d211e5dec26655dca",
      "v": 28,
      "creates": null,
      "raw": "0xf86d19850cba909dac83015f90940ca19a53a3256482a89770fc1dafc7630717f201888788277371483433801ca0f62721070e16002074c2feed051ff964c12cf1af177b0c8bde5e5feb947ab65ca018f0a9d5b9c098615f030939df2880f02e61406643291b5d211e5dec26655dca",
      "networkId": 0,
      "chainId": 0
    }
  ]
}