{
  "hash": "0x873815842f6d4185d5b17b577b68313d72b01725e254e8404973ee2cdaf157c6",
  "parentHash": "0xb8b4ae5ff5275283e782e87b80cc35db70dea460315095b3bf3fc899c824fa30",
  "number": 105913,
  "timestamp": 1439895488,
  "nonce": "0xeb57bcf1792de96f",
  "difficulty": 4455585035736,
  "gasLimit": {
    "_hex": "0x2fefd8"
  },
  "gasUsed": {
    "_hex": "0xaa37"
  },
  "miner": "0x9746c7e1ef2bd21FF3997fa467593a89cb852BD0",
  "extraData": "0x476574682f76312e302e312f77696e646f77732f676f312e342e32",
  "transactions": [
    {
      "hash": "0xed35d43b482558a90cc231ba3b610f098b17006a2aef7d5edb68917b856630aa",
      "blockHash": "0x873815842f6d4185d5b17b577b68313d72b01725e254e8404973ee2cdaf157c6",
      "blockNumber": 105913,
      "transactionIndex": 0,
      "confirmations": null,
      "from": "0x87C5B5874A18B4306DF8a752a6C8cc3E82daFc19",
      "gasPrice": {
        "_hex": "0x10038e61ccd"
      },
      "gasLimit": {
        "_hex": "0x493e0"
      },
      "to": "0xD79B4C6791784184e2755B2fC1659eaaB0f80456",
      "value": {
        "_hex": "0x0"
      },
      "nonce": 298,
      "data": "0x03750d9400000000000000000000000087c5b5874a18b4306df8a752a6c8cc3e82dafc196b6b6b0000000000000000000000000000000000000000000000000000000000",
      "r": "0x4bbe309386742416da7b74b08f7e99aa46ecd8303607f7284b8e62a5daca5213",
      "s": "0x4f54f9475afc5df5a76036b001d2a5cc34f65fed73575f290d4435d9e6ecdc45",
      "v": 27,
      "creates": null,
      "raw": "0xf8ad82012a86010038e61ccd830493e094d79b4c6791784184e2755b2fc1659eaab0f8045680b84403750d9400000000000000000000000087c5b5874a18b4306df8a752a6c8cc3e82dafc196b6b6b00000000000000000000000000000000000000000000000000000000001ba04bbe309386742416da7b74b08f7e99aa46ecd8303607f7284b8e62a5daca5213a04f54f9475afc5df5a76036b001d2a5cc34f65fed73575f290d4435d9e6ecdc45",
      "networkId": 0,
      "chainId": 0
    }
  ]
}