{
  "hash": "0x23eb4f872852dd63b39ad4f714546155d2dd746ec73282bd2689f9636139dc98",
  "parentHash": "0xc58e11409fc6507b728595a5751fc5bde83b6490ad30d6dae8d7d76da2450b01",
  "number": 69260,
  "timestamp": 1439300723,
  "nonce": "0x02b001627d6b06d1",
  "difficulty": 2067944326267,
  "gasLimit": {
    "_hex": "0x2fefd8"
  },
  "gasUsed": {
    "_hex": "0x19a28"
  },
  "miner": "0xe6A7a1d47ff21B6321162AEA7C6CB457D5476Bca",
  "extraData": "0x476574682f76312e302e312d38326566323666362f6c696e75782f676f312e34",
  "transactions": [
    {
      "hash": "0xb9a45631c08dadb035eb48ec833d4aa6808329803aed51da9a31db4f0ce32e36",
      "blockHash": "0x23eb4f872852dd63b39ad4f714546155d2dd746ec73282bd2689f9636139dc98",
      "blockNumber": 69260,
      "transactionIndex": 0,
      "confirmations": null,
      "from": "0x2910543Af39abA0Cd09dBb2D50200b3E800A63D2",
      "gasPrice": {
        "_hex": "0xd4abb17b8"
      },
      "gasLimit": {
        "_hex": "0x5208"
      },
      "to": "0x439dEe3F7679fF1030733F9340c096686b49390b",
      "value": {
        "_hex": "0x41b3cf3713458f8000"
      },
      "nonce": 222,
      "data": "0x",
      "r": "0x605a5ef423010dbc3e2508692e5c47db2d51bf3c5ef4f70f93989de81c04d982",
      "s": "0x10481ed65ed93ebf92806f3731af9fbe395acf3706a40080e6462ce586caab57",
      "v": 27,
      "creates": null,
      "raw": "0xf86e81de850d4abb17b882520894439dee3f7679ff1030733f9340c096686b49390b8941b3cf3713458f8000801ba0605a5ef423010dbc3e2508692e5c47db2d51bf3c5ef4f70f93989de81c04d982a010481ed65ed93ebf92806f3731af9fbe395acf3706a40080e6462ce586caab57",
      "networkId": 0,
      "chainId": 0
    },
    {
      "hash": "0x32d10f44519d49d72679af1221755d44e538f7ad867541cd08c3a92c556441d6",
      "blockHash": "0x23eb4f872852dd63b39ad4f714546155d2dd746ec73282bd2689f9636139dc98",
      "blockNumber": 69260,
      "transactionIndex": 1,
      "confirmations": null,
      "from": "0xe6A7a1d47ff21B6321162AEA7C6CB457D5476Bca",
      "gasPrice": {
        "_hex": "0xd41f0bebe"
      },
      "gasLimit": {
        "_hex": "0x55f0"
      },
      "to": "0x21E219c89CA8ac14Ae4cBA6130eEB77D9e6d3962",
      "value": {
        "_hex": "0xdc464e08cff98dc"
      },
      "nonce": 509,
      "data": "0x",
      "r": "0xe837f784f7966f298363628d43dd51d97f16f806e704dc59ecfb30b103bddbce",
      "s": "0x32b2b2e386038c5742b34e6092fd87b187baa5c2fe2ec9a0495756fac476d57e",
      "v": 27,
      "creates": null,
      "raw": "0xf86e8201fd850d41f0bebe8255f09421e219c89ca8ac14ae4cba6130eeb77d9e6d3962880dc464e08cff98dc801ba0e837f784f7966f298363628d43dd51d97f16f806e704dc59ecfb30b103bddbcea032b2b2e386038c5742b34e6092fd87b187baa5c2fe2ec9a0495756fac476d57e",
      "networkId": 0,
      "chainId": 0
    },
    {
      "hash": "0xa03cfcae05f7ee808e4777e3a89c65f15831abc321a83d72d2bea75c997f64e4",
      "blockHash": "0x23eb4f872852dd63b39ad4f714546155d2dd746ec73282bd2689f9636139dc98",
      "blockNumber": 69260,
      "transactionIndex": 2,
      "confirmations": null,
      "from": "0xe6A7a1d47ff21B6321162AEA7C6CB457D5476Bca",
      "gasPrice": {
        "_hex": "0xd41f0bebe"
      },
      "gasLimit": {
        "_hex": "0x55f0"
      },
      "to": "0x4adA827a479Cf31e27be19Fcf33Fb06D881057b7",
      "value": {
        "_hex": "0xdff6118dc69a204"
      },
      "nonce": 510,
      "data": "0x",
      "r": "0x10f6eb4e5eb95400f74871f04aec5ed5aa3dbc8011ea2b766bf0d85b9779e922",
      "s": "0x31daf417ef9dfda481c22cce23e249dc2944f00d44d0552e775ce9f1c81f5124",
      "v": 27,
      "creates": null,
      "raw": "0xf86e8201fe850d41f0bebe8255f0944ada827a479cf31e27be19fcf33fb06d881057b7880dff6118dc69a204801ba010f6eb4e5eb95400f74871f04aec5ed5aa3dbc8011ea2b766bf0d85b9779e922a031daf417ef9dfda481c22cce23e249dc2944f00d44d0552e775ce9f1c81f5124",
      "networkId": 0,
      "chainId": 0
    },
    {
      "hash": "0xe24cda56cf9189e5ba196f712fba639c6b80dfac0074455a2064bb29273c8bb0",
      "blockHash": "0x23eb4f872852dd63b39ad4f714546155d2dd746ec73282bd2689f9636139dc98",
      "blockNumber": 69260,
      "transactionIndex": 3,
      "confirmations": null,
      "from": "0xe6A7a1d47ff21B6321162AEA7C6CB457D5476Bca",
      "gasPrice": {
        "_hex": "0xd41f0bebe"
      },
      "gasLimit": {
        "_hex": "0x55f0"
      },
      "to": "0x86889b1CeA13d370E827e099e3778b17d488B3Dd",
      "value": {
        "_hex": "0xe363d488088c468"
      },
      "nonce": 511,
      "data": "0x",
      "r": "0x23f0463918962722ce8ea33791f57b651582b67522cdc32c42caea3c5388fe80",
      "s": "0x1df278c0d391d794110798b42dd3aadae462dc331e0e0d550c3dcf2e5cd51303",
      "v": 27,
      "creates": null,
      "raw": "0xf86e8201ff850d41f0bebe8255f09486889b1cea13d370e827e099e3778b17d488b3dd880e363d488088c468801ba023f0463918962722ce8ea33791f57b651582b67522cdc32c42caea3c5388fe80a01df278c0d391d794110798b42dd3aadae462dc331e0e0d550c3dcf2e5cd51303",
      "networkId": 0,
      "chainId": 0
    },
    {
      "hash": "0x4ca504614c7bb332c16d7cfe054ccdd2fd45ecbe175221666aac88683ac916db",
      "blockHash": "0x23eb4f872852dd63b39ad4f714546155d2dd746ec73282bd2689f9636139dc98",
      "blockNumber": 69260,
      "transactionIndex": 4,
      "confirmations": null,
      "from": "0xe6A7a1d47ff21B6321162AEA7C6CB457D5476Bca",
      "gasPrice": {
        "_hex": "0xd41f0bebe"
      },
      "gasLimit": {
        "_hex": "0x55f0"
      },
      "to": "0xD0a2D2eA08cDb43A8970fbBe131cbc13AdeB993d",
      "value": {
        "_hex": "0xe6ee4b5a81f13a4"
      },
      "nonce": 512,
      "data": "0x",
      "r": "0xcfd3ceb32d7353f5a2696f5b691d2e1ee1e7904d99c3837849538d3155a5077e",
      "s": "0x57655046e86890c853a59cb1c544ad7887367db58420ef5304cb759f6c1f94d9",
      "v": 27,
      "creates": null,
      "raw": "0xf86e820200850d41f0bebe8255f094d0a2d2ea08cdb43a8970fbbe131cbc13adeb993d880e6ee4b5a81f13a4801ba0cfd3ceb32d7353f5a2696f5b691d2e1ee1e7904d99c3837849538d3155a5077ea057655046e86890c853a59cb1c544ad7887367db58420ef5304cb759f6c1f94d9",
      "networkId": 0,
      "chainId": 0
    }
  ]
}