{
  "hash": "0xe07465db451bf4c404d08a0c104b8f67c7d76803a2ac1665068a30d081aa6e2f",
  "parentHash": "0x30a8db40a5f3ec488b28f636919428dc5c1310ba417a963ce17b4a3c89469bc2",
  "number": 89995,
  "timestamp": 1439632209,
  "nonce": "0x12b27208c915b568",
  "difficulty": 3359782491298,
  "gasLimit": {
    "_hex": "0x2fefd8"
  },
  "gasUsed": {
    "_hex": "0xa410"
  },
  "miner": "0xe6A7a1d47ff21B6321162AEA7C6CB457D5476Bca",
  "extraData": "0x476574682f76312e302e312d38326566323666362f6c696e75782f676f312e34",
  "transactions": [
    {
      "hash": "0xc867ace81452354cd874666287e3468133168b2dc07293bb024e36f1a0809510",
      "blockHash": "0xe07465db451bf4c404d08a0c104b8f67c7d76803a2ac1665068a30d081aa6e2f",
      "blockNumber": 89995,
      "transactionIndex": 0,
      "confirmations": null,
      "from": "0x2910543Af39abA0Cd09dBb2D50200b3E800A63D2",
      "gasPrice": {
        "_hex": "0xdb9a51909"
      },
      "gasLimit": {
        "_hex": "0x5208"
      },
      "to": "0xFD7c9117BbEB649d9b37B3D3C9917f7c12f526B3",
      "value": {
        "_hex": "0x2b6d965851d88a4b00"
      },
      "nonce": 771,
      "data": "0x",
      "r": "0x6f172d407e2da3ee472d1cc5492882d6bb0126b48864b3a8919eda0347914dae",
      "s": "0x5c0616b033111788a0aa7193aef5e49899e39647b0b4e660a7b29cd7bd1fd7eb",
      "v": 28,
      "creates": null,
      "raw": "0xf86f820303850db9a5190982520894fd7c9117bbeb649d9b37b3d3c9917f7c12f526b3892b6d965851d88a4b00801ca06f172d407e2da3ee472d1cc5492882d6bb0126b48864b3a8919eda0347914daea05c0616b033111788a0aa7193aef5e49899e39647b0b4e660a7b29cd7bd1fd7eb",
      "networkId": 0,
      "chainId": 0
    },
    {
      "hash": "0x9bc6a4f980406190d726fb2b04597873be9d5280ef9fac9d73eaccc137add845",
      "blockHash": "0xe07465db451bf4c404d08a0c104b8f67c7d76803a2ac1665068a30d081aa6e2f",
      "blockNumber": 89995,
      "transactionIndex": 1,
      "confirmations": null,
      "from": "0x23f2D0fd3B4C98Fb1698564deB4898275E2e831f",
      "gasPrice": {
        "_hex": "0xcc3a489a0"
      },
      "gasLimit": {
        "_hex": "0x5208"
      },
      "to": "0x32Be343B94f860124dC4fEe278FDCBD38C102D88",
      "value": {
        "_hex": "0x299e1830dbc5d000"
      },
      "nonce": 12,
      "data": "0x",
      "r": "0x44b2247e0835247d88f31a71ed4e98b88107ab6a8d49df719066980eb577f03e",
      "s": "0x6ab25874f33ac0208cdc911580078c796ce21da081ca2f092af6546126615222",
      "v": 28,
      "creates": null,
      "raw": "0xf86c0c850cc3a489a08252089432be343b94f860124dc4fee278fdcbd38c102d8888299e1830dbc5d000801ca044b2247e0835247d88f31a71ed4e98b88107ab6a8d49df719066980eb577f03ea06ab25874f33ac0208cdc911580078c796ce21da081ca2f092af6546126615222",
      "networkId": 0,
      "chainId": 0
    }
  ]
}