{
  "hash": "0x932daf47ffd62380cf49e61dfdd85133bf77c040c49ebf439e2a06dbb6a78c1d",
  "parentHash": "0xe18d68cd8dbbe62a4a51384109a37bd57cbb931907decd5227a462d484da779f",
  "number": 52711,
  "timestamp": 1439026116,
  "nonce": "0xfdf80b55ac9a4997",
  "difficulty": 1567871886796,
  "gasLimit": {
    "_hex": "0x1852fd"
  },
  "gasUsed": {
    "_hex": "0x5208"
  },
  "miner": "0x24339341F29d2aaD7d3c591c0f9931e7D4bFEd6e",
  "extraData": "0x476574682f76312e302e312f6c696e75782f676f312e342e32",
  "transactions": [
    {
      "hash": "0xebc71ddb1381dcb5381e767c00b43c2bcd7dc397450f1e9c0e51f8ba48a4c49b",
      "blockHash": "0x932daf47ffd62380cf49e61dfdd85133bf77c040c49ebf439e2a06dbb6a78c1d",
      "blockNumber": 52711,
      "transactionIndex": 0,
      "confirmations": null,
      "from": "0xF2d2AfF1320476cb8C6b607199D23175cc595693",
      "gasPrice": {
        "_hex": "0xdfe28f19b"
      },
      "gasLimit": {
        "_hex": "0x15f90"
      },
      "to": "0xF5EeDc192aB70b08D8354384aD94efD095849E00",
      "value": {
        "_hex": "0x55005f0c614480000"
      },
      "nonce": 4,
      "data": "0x",
      "r": "0x645f7e6f4c72a69430dc40c9ad90d7d7277e84534e98122b0d59481bb94751c6",
      "s": "0x27f9f7473f95755cad81938c8d8a4119f30bcf1128bb4485a7f593e2fb5f174d",
      "v": 27,
      "creates": null,
      "raw": "0xf86e04850dfe28f19b83015f9094f5eedc192ab70b08d8354384ad94efd095849e0089055005f0c614480000801ba0645f7e6f4c72a69430dc40c9ad90d7d7277e84534e98122b0d59481bb94751c6a027f9f7473f95755cad81938c8d8a4119f30bcf1128bb4485a7f593e2fb5f174d",
      "networkId": 0,
      "chainId": 0
    }
  ]
}