{
  "hash": "0x2c19fa06db2282b3364fe074de0af20ff3223f714d960ba09dede55d6228a809",
  "parentHash": "0x66eac51a891e55e7d38ea7b86e7f16877a6acc344e76ee10e01bd80a623472d3",
  "number": 122065,
  "timestamp": 1440187598,
  "nonce": "0x039739cdff5d24f9",
  "difficulty": 4460061666554,
  "gasLimit": {
    "_hex": "0x2fefd8"
  },
  "gasUsed": {
    "_hex": "0x5208"
  },
  "miner": "0x608f4b86321a68453f9adf6F06F7Fc3E621739ad",
  "extraData": "0xd783010002844765746887676f312e342e32856c696e7578",
  "transactions": [
    {
      "hash": "0x41ed8cdd485adae5114674ded9a4a7c6307880f705c12a2f7d8d9b8ceb43afe8",
      "blockHash": "0x2c19fa06db2282b3364fe074de0af20ff3223f714d960ba09dede55d6228a809",
      "blockNumber": 122065,
      "transactionIndex": 0,
      "confirmations": null,
      "from": "0x2910543Af39abA0Cd09dBb2D50200b3E800A63D2",
      "gasPrice": {
        "_hex": "0xd6b5bdba4"
      },
      "gasLimit": {
        "_hex": "0x5208"
      },
      "to": "0x8Dcca392c5D80d5ed8A566AF8821002d12CD2f65",
      "value": {
        "_hex": "0x619567e4a954aa0000"
      },
      "nonce": 1214,
      "data": "0x",
      "r": "0x56d189b8b45a930cb6dd97b03aa8cf1224bd801e7c9a30ed78b2c39e0981c8c2",
      "s": "0x3c2503929528fa6efc3827b5590d705923410a7fdd0083a25717f1f26f187d99",
      "v": 27,
      "creates": null,
      "raw": "0xf86f8204be850d6b5bdba4825208948dcca392c5d80d5ed8a566af8821002d12cd2f6589619567e4a954aa0000801ba056d189b8b45a930cb6dd97b03aa8cf1224bd801e7c9a30ed78b2c39e0981c8c2a03c2503929528fa6efc3827b5590d705923410a7fdd0083a25717f1f26f187d99",
      "networkId": 0,
      "chainId": 0
    }
  ]
}