{
  "hash": "0xa06a7e588e321b029c147ee81717cad7ff8aa8930557fcb85dfd9dbb2224d5ad",
  "parentHash": "0x1ae17e886897afd9fa8bf70cf12d8b70aa82b6c70017299bfe2732cde65e49b3",
  "number": 49229,
  "timestamp": 1438970134,
  "nonce": "0x978b99ffa939ce39",
  "difficulty": 1479257904150,
  "gasLimit": {
    "_hex": "0x2990a"
  },
  "gasUsed": {
    "_hex": "0x14820"
  },
  "miner": "0x9746c7e1ef2bd21FF3997fa467593a89cb852BD0",
  "extraData": "0x476574682f76312e302e312f77696e646f77732f676f312e342e32",
  "transactions": [
    {
      "hash": "0xf4f7a4debd27c4bd9e3f434cbb1da85a3ed2790df9bd1c4252a104842fafb11b",
      "blockHash": "0xa06a7e588e321b029c147ee81717cad7ff8aa8930557fcb85dfd9dbb2224d5ad",
      "blockNumber": 49229,
      "transactionIndex": 0,
      "confirmations": null,
      "from": "0x13f418c203E89b6Fa20D46b90f7134abB7B3eDd9",
      "gasPrice": {
        "_hex": "0xdbb7a52c9"
      },
      "gasLimit": {
        "_hex": "0x5208"
      },
      "to": "0x32Be343B94f860124dC4fEe278FDCBD38C102D88",
      "value": {
        "_hex": "0x55de24c3e7833c000"
      },
      "nonce": 1,
      "data": "0x",
      "r": "0x84cb0b9db9063dab5e1b1ada20c8ea29191f4731a3781ffdb56dc7c15d9c1594",
      "s": "0x450ad02cadb8e0f90a9d98202ba176a87f5e3c90ea7afaa3bb3b468a2a61e12b",
      "v": 27,
      "creates": null,
      "raw": "0xf86d01850dbb7a52c98252089432be343b94f860124dc4fee278fdcbd38c102d8889055de24c3e7833c000801ba084cb0b9db9063dab5e1b1ada20c8ea29191f4731a3781ffdb56dc7c15d9c1594a0450ad02cadb8e0f90a9d98202ba176a87f5e3c90ea7afaa3bb3b468a2a61e12b",
      "networkId": 0,
      "chainId": 0
    },
    {
      "hash": "0x537e19464cb9836c2f7eb20277a715489a5d4a5885fcff12440bace8ba3c10cd",
      "blockHash": "0xa06a7e588e321b029c147ee81717cad7ff8aa8930557fcb85dfd9dbb2224d5ad",
      "blockNumber": 49229,
      "transactionIndex": 1,
      "confirmations": null,
      "from": "0x33A3f479f6c3e7F91128348490D1f7E8D2A0FAb5",
      "gasPrice": {
        "_hex": "0xdbb7a52c9"
      },
      "gasLimit": {
        "_hex": "0x5208"
      },
      "to": "0x32Be343B94f860124dC4fEe278FDCBD38C102D88",
      "value": {
        "_hex": "0x54220d3970bf70000"
      },
      "nonce": 1,
      "data": "0x",
      "r": "0xf0c60c49eb8ba4039ac42abb4be3c1b943600b131b41be81ca06a67feb4e7b3f",
      "s": "0x028fa321666e5cddb7a2a361c54d3865805ebc0c6acefa49e598fb8d3ed302db",
      "v": 28,
      "creates": null,
      "raw": "0xf86d01850dbb7a52c98252089432be343b94f860124dc4fee278fdcbd38c102d8889054220d3970bf70000801ca0f0c60c49eb8ba4039ac42abb4be3c1b943600b131b41be81ca06a67feb4e7b3fa0028fa321666e5cddb7a2a361c54d3865805ebc0c6acefa49e598fb8d3ed302db",
      "networkId": 0,
      "chainId": 0
    },
    {
      "hash": "0x0650c06646442bdd09b57b4fa378c3ba4c57e9f97ef9d336d2ee0b772b05b8af",
      "blockHash": "0xa06a7e588e321b029c147ee81717cad7ff8aa8930557fcb85dfd9dbb2224d5ad",
      "blockNumber": 49229,
      "transactionIndex": 2,
      "confirmations": null,
      "from": "0x7c3f4907164F65CcA6ec853aC340ef1e71B1f5C9",
      "gasPrice": {
        "_hex": "0xdbb7a52c9"
      },
      "gasLimit": {
        "_hex": "0x5208"
      },
      "to": "0x32Be343B94f860124dC4fEe278FDCBD38C102D88",
      "value": {
        "_hex": "0x1ba192cd215a800"
      },
      "nonce": 2,
      "data": "0x",
      "r": "0x9312c16710e42b55495b5e51f7f03e137f8800f11cf1b71612966f8f08338215",
      "s": "0x72d151d76d734f556b903575b9adfb889bad6186edd3d7e57c358435b4d6f978",
      "v": 28,
      "creates": null,
      "raw": "0xf86c02850dbb7a52c98252089432be343b94f860124dc4fee278fdcbd38c102d888801ba192cd215a800801ca09312c16710e42b55495b5e51f7f03e137f8800f11cf1b71612966f8f08338215a072d151d76d734f556b903575b9adfb889bad6186edd3d7e57c358435b4d6f978",
      "networkId": 0,
      "chainId": 0
    },
    {
      "hash": "0x58a6ad2e8d661d2a22739db61b8e35e8119c7625bff70a7035d2b3228fbce82c",
      "blockHash": "0xa06a7e588e321b029c147ee81717cad7ff8aa8930557fcb85dfd9dbb2224d5ad",
      "blockNumber": 49229,
      "transactionIndex": 3,
      "confirmations": null,
      "from": "0x38876939fFE3E2F973C27BB77c403BB85CD78645",
      "gasPrice": {
        "_hex": "0xdbb7a52c9"
      },
      "gasLimit": {
        "_hex": "0x5208"
      },
      "to": "0x32Be343B94f860124dC4fEe278FDCBD38C102D88",
      "value": {
        "_hex": "0x160215f3b452750000"
      },
      "nonce": 1,
      "data": "0x",
      "r": "0xf0778c134f88b1be373996b7a05f3703616e89aeecc6cbe24f1996dbaf834393",
      "s": "0x41e2c612d6287616ce2bc700d01e4bf3016a6982717d9c9dfd12291dbe550794",
      "v": 27,
      "creates": null,
      "raw": "0xf86d01850dbb7a52c98252089432be343b94f860124dc4fee278fdcbd38c102d8889160215f3b452750000801ba0f0778c134f88b1be373996b7a05f3703616e89aeecc6cbe24f1996dbaf834393a041e2c612d6287616ce2bc700d01e4bf3016a6982717d9c9dfd12291dbe550794",
      "networkId": 0,
      "chainId": 0
    }
  ]
}