{
  "hash": "0x503e006e0f6074ff9bbaa6d0fa9bee7f1e8e185ce205d815a33ffa43509700f9",
  "parentHash": "0x731b565c155044fb1e9e85435ab0a7434ac017f11239063378d7d887a14fd849",
  "number": 97162,
  "timestamp": 1439751787,
  "nonce": "0x3af4480770e80600",
  "difficulty": 3765075698501,
  "gasLimit": {
    "_hex": "0x2fefd8"
  },
  "gasUsed": {
    "_hex": "0x5208"
  },
  "miner": "0x790b8a3cE86E707ED0eD32bF89B3269692a23CC1",
  "extraData": "0xd783010001844765746887676f312e342e32856c696e7578",
  "transactions": [
    {
      "hash": "0xa69ce644c0601f51ee8a3862ad5b320ef29e6aa6f5eb10e84d81c82ab66e2ded",
      "blockHash": "0x503e006e0f6074ff9bbaa6d0fa9bee7f1e8e185ce205d815a33ffa43509700f9",
      "blockNumber": 97162,
      "transactionIndex": 0,
      "confirmations": null,
      "from": "0x120A270bbC009644e35F0bB6ab13f95b8199c4ad",
      "gasPrice": {
        "_hex": "0xcc1589db8"
      },
      "gasLimit": {
        "_hex": "0x3d090"
      },
      "to": "0xf6FC17A34bc34A0B30CecACEe3A3eDDBDB926B24",
      "value": {
        "_hex": "0x2484131e216bd93800"
      },
      "nonce": 637,
      "data": "0x",
      "r": "0x5eb7d08528a925cdf809eef111f58c9bffbd1a393abc1c503a548ab7c714b98b",
      "s": "0x5b1cb5c85d156e21d92cbb6fea315e06cf2b1a74531d6cc93b141f7404d2bb7d",
      "v": 28,
      "creates": null,
      "raw": "0xf87082027d850cc1589db88303d09094f6fc17a34bc34a0b30cecacee3a3eddbdb926b24892484131e216bd93800801ca05eb7d08528a925cdf809eef111f58c9bffbd1a393abc1c503a548ab7c714b98ba05b1cb5c85d156e21d92cbb6fea315e06cf2b1a74531d6cc93b141f7404d2bb7d",
      "networkId": 0,
      "chainId": 0
    }
  ]
}