{
  "hash": "0x3a89b254a52af0acb992bfed4a4eb8629f2b69aa9b6ba747c694b91be96a8560",
  "parentHash": "0xaecad96313811c84dc7dd39880a5cf5640356e51e9db82d43ea8739f91fbdaf2",
  "number": 81371,
  "timestamp": 1439500538,
  "nonce": "0x535a139a03aee7bc",
  "difficulty": 2453399431065,
  "gasLimit": {
    "_hex": "0x2fefd5"
  },
  "gasUsed": {
    "_hex": "0x19a28"
  },
  "miner": "0xe6A7a1d47ff21B6321162AEA7C6CB457D5476Bca",
  "extraData": "0x476574682f76312e302e312d38326566323666362f6c696e75782f676f312e34",
  "transactions": [
    {
      "hash": "0x3eaf61a53393e52457c63b05b94c60891c4978140c738df6e03e366b957ed56b",
      "blockHash": "0x3a89b254a52af0acb992bfed4a4eb8629f2b69aa9b6ba747c694b91be96a8560",
      "blockNumber": 81371,
      "transactionIndex": 0,
      "confirmations": null,
      "from": "0x32Be343B94f860124dC4fEe278FDCBD38C102D88",
      "gasPrice": {
        "_hex": "0xdc2d1b2df"
      },
      "gasLimit": {
        "_hex": "0x5208"
      },
      "to": "0xd63d66704099F24ED9DD6a45BD57b13B872ad515",
      "value": {
        "_hex": "0x54ba05921f24d4000"
      },
      "nonce": 593,
      "data": "0x",
      "r": "0xd82d797d2cec366629c31f33d5c6a4aa11bbf87c0596cc9d226e7fe366dbbbb4",
      "s": "0x29f810d3fbb371730edbc623a17fb8f69836c3f5153790167cbe68eb3792c98b",
      "v": 28,
      "creates": null,
      "raw": "0xf86f820251850dc2d1b2df82520894d63d66704099f24ed9dd6a45bd57b13b872ad51589054ba05921f24d4000801ca0d82d797d2cec366629c31f33d5c6a4aa11bbf87c0596cc9d226e7fe366dbbbb4a029f810d3fbb371730edbc623a17fb8f69836c3f5153790167cbe68eb3792c98b",
      "networkId": 0,
      "chainId": 0
    },
    {
      "hash": "0x2d1e8860a2de6383c3f84850d548928f1b4a51a947fca2ad8015932f0848a57b",
      "blockHash": "0x3a89b254a52af0acb992bfed4a4eb8629f2b69aa9b6ba747c694b91be96a8560",
      "blockNumber": 81371,
      "transactionIndex": 1,
      "confirmations": null,
      "from": "0x077BC4363eBf116c408C421b293cB018d22779fc",
      "gasPrice": {
        "_hex": "0xba43b7400"
      },
      "gasLimit": {
        "_hex": "0x5208"
      },
      "to": "0xC47Aaa860008be6f65B58c6C6E02a84e666EfE31",
      "value": {
        "_hex": "0x1fcbfa42bd6000"
      },
      "nonce": 0,
      "data": "0x",
      "r": "0x9114fa6cf6ef26ce32da5a578374f8af7d6bc511f5a1b83860c2d697d06f73f6",
      "s": "0x49112b1eb5cf3e804c13df0912db4912bcea9a0443ebb7ee38db4429f3d7b609",
      "v": 27,
      "creates": null,
      "raw": "0xf86b80850ba43b740082520894c47aaa860008be6f65b58c6c6e02a84e666efe31871fcbfa42bd6000801ba09114fa6cf6ef26ce32da5a578374f8af7d6bc511f5a1b83860c2d697d06f73f6a049112b1eb5cf3e804c13df0912db4912bcea9a0443ebb7ee38db4429f3d7b609",
      "networkId": 0,
      "chainId": 0
    },
    {
      "hash": "0xbaac1a9d0a614c8826913e5cdbe617a8e72d0e5cc61c1b8c1dfd35b0e3feff29",
      "blockHash": "0x3a89b254a52af0acb992bfed4a4eb8629f2b69aa9b6ba747c694b91be96a8560",
      "blockNumber": 81371,
      "transactionIndex": 2,
      "confirmations": null,
      "from": "0x8c0A6b62918D317e3B431EfB67E3fB5eff333b1c",
      "gasPrice": {
        "_hex": "0xba43b7400"
      },
      "gasLimit": {
        "_hex": "0x5208"
      },
      "to": "0xC47Aaa860008be6f65B58c6C6E02a84e666EfE31",
      "value": {
        "_hex": "0x11567041e76fc1dc0"
      },
      "nonce": 0,
      "data": "0x",
      "r": "0x2b71b5fa3e05112b265036a2989520d2024a23243b16d2f9c391b80bf98f27a0",
      "s": "0x4fb4bb746e88746c142613d25c87de7a66894ce74c521cf9667bf76dd8b4273c",
      "v": 27,
      "creates": null,
      "raw": "0xf86d80850ba43b740082520894c47aaa860008be6f65b58c6c6e02a84e666efe3189011567041e76fc1dc0801ba02b71b5fa3e05112b265036a2989520d2024a23243b16d2f9c391b80bf98f27a0a04fb4bb746e88746c142613d25c87de7a66894ce74c521cf9667bf76dd8b4273c",
      "networkId": 0,
      "chainId": 0
    },
    {
      "hash": "0x519fee99d24002232bd14f4e73f76a7c20a4deb4e9593822d9518dd368991b6e",
      "blockHash": "0x3a89b254a52af0acb992bfed4a4eb8629f2b69aa9b6ba747c694b91be96a8560",
      "blockNumber": 81371,
      "transactionIndex": 3,
      "confirmations": null,
      "from": "0x76899c112A85c5a7d27Ff89f1b97112e900aeEBc",
      "gasPrice": {
        "_hex": "0xba43b7400"
      },
      "gasLimit": {
        "_hex": "0x5208"
      },
      "to": "0xC47Aaa860008be6f65B58c6C6E02a84e666EfE31",
      "value": {
        "_hex": "0x4802da8863436000"
      },
      "nonce": 2,
      "data": "0x",
      "r": "0x46e935af5a01e23dfd05befac0e61c09bfa136e14788658182b48ccd67456bb5",
      "s": "0x0563d990132ef739b1269245c55aa77f71390165f16ed3e91c092c44b8dd55a1",
      "v": 28,
      "creates": null,
      "raw": "0xf86c02850ba43b740082520894c47aaa860008be6f65b58c6c6e02a84e666efe31884802da8863436000801ca046e935af5a01e23dfd05befac0e61c09bfa136e14788658182b48ccd67456bb5a00563d990132ef739b1269245c55aa77f71390165f16ed3e91c092c44b8dd55a1",
      "networkId": 0,
      "chainId": 0
    },
    {
      "hash": "0xa5af5652a2505bbb9cbe665321e94a8a585978d166cd7e683d7f8c7f948bf010",
      "blockHash": "0x3a89b254a52af0acb992bfed4a4eb8629f2b69aa9b6ba747c694b91be96a8560",
      "blockNumber": 81371,
      "transactionIndex": 4,
      "confirmations": null,
      "from": "0x28a9D631e5C22Ee57312DDdc75936822a2243A05",
      "gasPrice": {
        "_hex": "0xba43b7400"
      },
      "gasLimit": {
        "_hex": "0x5208"
      },
      "to": "0xC47Aaa860008be6f65B58c6C6E02a84e666EfE31",
      "value": {
        "_hex": "0x6311d684bfbfec00"
      },
      "nonce": 4,
      "data": "0x",
      "r": "0xbe872677f7d48110bcc1d787a965962b63546a38187c7b20323eec015c69dc05",
      "s": "0x42a6d51966faccb95d42c44486b7139183ae8e84ce43a5446d904fd27ea986df",
      "v": 27,
      "creates": null,
      "raw": "0xf86c04850ba43b740082520894c47aaa860008be6f65b58c6c6e02a84e666efe31886311d684bfbfec00801ba0be872677f7d48110bcc1d787a965962b63546a38187c7b20323eec015c69dc05a042a6d51966faccb95d42c44486b7139183ae8e84ce43a5446d904fd27ea986df",
      "networkId": 0,
      "chainId": 0
    }
  ]
}