{
  "hash": "0x4ce76c215533e44bba76d9872ed0c10225ca9dfaf87bb9295f41f58c50606e8a",
  "parentHash": "0x8fb7e2721ac343bd8874a5526df85ad6139f6ac736b7aab09e3c47ecc3ae58b9",
  "number": 104813,
  "timestamp": 1439876228,
  "nonce": "0xbd98e95151f80ef0",
  "difficulty": 4348693430800,
  "gasLimit": {
    "_hex": "0x2fefd8"
  },
  "gasUsed": {
    "_hex": "0x5208"
  },
  "miner": "0x55bAf64fc9eAccFFd7Cc643BB61142E1C6ac093e",
  "extraData": "0x",
  "transactions": [
    {
      "hash": "0x92048c84b59a8840a1b871a29575da272b2301981223b3acee37fcd4ba249445",
      "blockHash": "0x4ce76c215533e44bba76d9872ed0c10225ca9dfaf87bb9295f41f58c50606e8a",
      "blockNumber": 104813,
      "transactionIndex": 0,
      "confirmations": null,
      "from": "0x1308A2e95c0160B90803ddCA9B9a5bb55E416d79",
      "gasPrice": {
        "_hex": "0xcf1824248"
      },
      "gasLimit": {
        "_hex": "0x15f90"
      },
      "to": "0xbdbeeE5faCa2d43243957a26014B6f225cE10F4a",
      "value": {
        "_hex": "0x4549b0b29e651f400"
      },
      "nonce": 165,
      "data": "0x",
      "r": "0x3fd4dc162e2bfed65ec16c5857b4d6c35b4e15766ed4687635fdcf6c7c4b05b3",
      "s": "0x5fb79c34d65c6f7a2f9528819b94dc55eee17e8559d1bfb5b3bb861251509d53",
      "v": 28,
      "creates": null,
      "raw": "0xf86f81a5850cf182424883015f9094bdbeee5faca2d43243957a26014b6f225ce10f4a8904549b0b29e651f400801ca03fd4dc162e2bfed65ec16c5857b4d6c35b4e15766ed4687635fdcf6c7c4b05b3a05fb79c34d65c6f7a2f9528819b94dc55eee17e8559d1bfb5b3bb861251509d53",
      "networkId": 0,
      "chainId": 0
    }
  ]
}