{
  "hash": "0x9c701f52768526c00c660f3b0b4edd1b2a9a43d45e7d3f3df71bf102e1444b62",
  "parentHash": "0x5190397a7434a5823f4b7c714eda425fce0d68b721a8555f332d78df8b418958",
  "number": 94764,
  "timestamp": 1439713866,
  "nonce": "0xd3bf38bbb1a5abe1",
  "difficulty": 3479721500683,
  "gasLimit": {
    "_hex": "0x2fefd8"
  },
  "gasUsed": {
    "_hex": "0x5208"
  },
  "miner": "0xe6A7a1d47ff21B6321162AEA7C6CB457D5476Bca",
  "extraData": "0x476574682f76312e302e312d38326566323666362f6c696e75782f676f312e34",
  "transactions": [
    {
      "hash": "0x84400eab70511e3132bed26bdf4558505a33587e45dc35f21b4b07feeb70389f",
      "blockHash": "0x9c701f52768526c00c660f3b0b4edd1b2a9a43d45e7d3f3df71bf102e1444b62",
      "blockNumber": 94764,
      "transactionIndex": 0,
      "confirmations": null,
      "from": "0x806C4e20CC913d7b70f5b7e24C6Ba15B16c56a5C",
      "gasPrice": {
        "_hex": "0xd047b2836"
      },
      "gasLimit": {
        "_hex": "0x5208"
      },
      "to": "0x32Be343B94f860124dC4fEe278FDCBD38C102D88",
      "value": {
        "_hex": "0x6f535c1f1e5ae400"
      },
      "nonce": 1,
      "data": "0x",
      "r": "0x3ff73943421d9cb07dfa94f4613f2939b92ff2b5df9b3697750b0f7bb1deee38",
      "s": "0x1c625739e609bb64f9cb514400a0ca06d62677ae4778da32ce4b3e90a1a3be75",
      "v": 28,
      "creates": null,
      "raw": "0xf86c01850d047b28368252089432be343b94f860124dc4fee278fdcbd38c102d88886f535c1f1e5ae400801ca03ff73943421d9cb07dfa94f4613f2939b92ff2b5df9b3697750b0f7bb1deee38a01c625739e609bb64f9cb514400a0ca06d62677ae4778da32ce4b3e90a1a3be75",
      "networkId": 0,
      "chainId": 0
    }
  ]
}