{
  "hash": "0x6595889a2f0885e10c194f73ba6c39a710444827c0259ba8a0fe76d710be1ba1",
  "parentHash": "0x15439408156c561f744b166189c80159020020653b1c7f674c01d2abd0114379",
  "number": 55766,
  "timestamp": 1439076686,
  "nonce": "0x9134038161eb3323",
  "difficulty": 1595873821997,
  "gasLimit": {
    "_hex": "0x2fefd5"
  },
  "gasUsed": {
    "_hex": "0xa410"
  },
  "miner": "0xF2d2AfF1320476cb8C6b607199D23175cc595693",
  "extraData": "0x476574682f76312e302e312f77696e646f77732f676f312e342e32",
  "transactions": [
    {
      "hash": "0x9f25feec27a8daf39d3d7976851584b45e51ea35d08d3483832befdcf74cc981",
      "blockHash": "0x6595889a2f0885e10c194f73ba6c39a710444827c0259ba8a0fe76d710be1ba1",
      "blockNumber": 55766,
      "transactionIndex": 0,
      "confirmations": null,
      "from": "0x27e806e70622d2864e1B1f4426D72FFb0457C83a",
      "gasPrice": {
        "_hex": "0xde3279e45"
      },
      "gasLimit": {
        "_hex": "0x5208"
      },
      "to": "0x32Be343B94f860124dC4fEe278FDCBD38C102D88",
      "value": {
        "_hex": "0x1f58aed44e85e000"
      },
      "nonce": 0,
      "data": "0x",
      "r": "0x9b383fea778f7d453bcae36c579ee644c5825fb79d17f8d75af5bfb2077ea9fc",
      "s": "0x177a1bcf7bcf3d6e6462caba06cc08f5de08c905952459731106807101365f10",
      "v": 27,
      "creates": null,
      "raw": "0xf86c80850de3279e458252089432be343b94f860124dc4fee278fdcbd38c102d88881f58aed44e85e000801ba09b383fea778f7d453bcae36c579ee644c5825fb79d17f8d75af5bfb2077ea9fca0177a1bcf7bcf3d6e6462caba06cc08f5de08c905952459731106807101365f10",
      "networkId": 0,
      "chainId": 0
    },
    {
      "hash": "0x9886df997591526d235cce90f2a0a9888b3ce21a86a49ba96bef0c8c1fd12596",
      "blockHash": "0x6595889a2f0885e10c194f73ba6c39a710444827c0259ba8a0fe76d710be1ba1",
      "blockNumber": 55766,
      "transactionIndex": 1,
      "confirmations": null,
      "from": "0xB67b6BB30Bb68ED96f23f1fB8C6Da01B3C37F6D4",
      "gasPrice": {
        "_hex": "0xdc2f1ef3a"
      },
      "gasLimit": {
        "_hex": "0x5208"
      },
      "to": "0x32Be343B94f860124dC4fEe278FDCBD38C102D88",
      "value": {
        "_hex": "0x455f1e4feb17e000"
      },
      "nonce": 0,
      "data": "0x",
      "r": "0x1b7929967663cf1bfe7a5543e91f8075204cb10520a7f460f9d7576a9224e7ae",
      "s": "0x48ba2bb268c02f495da12e0c25982e8ff42732142993069dab7b2c5c6bb92568",
      "v": 28,
      "creates": null,
      "raw": "0xf86c80850dc2f1ef3a8252089432be343b94f860124dc4fee278fdcbd38c102d8888455f1e4feb17e000801ca01b7929967663cf1bfe7a5543e91f8075204cb10520a7f460f9d7576a9224e7aea048ba2bb268c02f495da12e0c25982e8ff42732142993069dab7b2c5c6bb92568",
      "networkId": 0,
      "chainId": 0
    }
  ]
}