{
  "hash": "0x6b2ab6ac3d5f0f02bb3546cc3973ebc20008f6edd9e1bd33f752c35951ab83cd",
  "parentHash": "0xeb298b289df3eeeddaa1879ed52de6cf983a50ea5d1298f4f71ee28379aa3192",
  "number": 84870,
  "timestamp": 1439555600,
  "nonce": "0x96e13f8312a77fad",
  "difficulty": 2660729803984,
  "gasLimit": {
    "_hex": "0x2fefd8"
  },
  "gasUsed": {
    "_hex": "0x38658"
  },
  "miner": "0xe6A7a1d47ff21B6321162AEA7C6CB457D5476Bca",
  "extraData": "0x476574682f76312e302e312d38326566323666362f6c696e75782f676f312e34",
  "transactions": [
    {
      "hash": "0xd4c24f71fe8bfe614e8a9e4e98fadba4486881263936602f1c8111b17ebfa075",
      "blockHash": "0x6b2ab6ac3d5f0f02bb3546cc3973ebc20008f6edd9e1bd33f752c35951ab83cd",
      "blockNumber": 84870,
      "transactionIndex": 0,
      "confirmations": null,
      "from": "0x3AF05A4d613476D483A68D0B1a6Fdf4eb61644e2",
      "gasPrice": {
        "_hex": "0xd758333ea"
      },
      "gasLimit": {
        "_hex": "0x5208"
      },
      "to": "0x32Be343B94f860124dC4fEe278FDCBD38C102D88",
      "value": {
        "_hex": "0x15adbc40ffebc3000"
      },
      "nonce": 1,
      "data": "0x",
      "r": "0x39314e7d53df549f1a8df63bf555aa21239b505d8ed6e55446fc74f3a86260cf",
      "s": "0x54c1504f197b2f585bf4dd9836f16924f18de08131cae1ed7d438387e30896dd",
      "v": 28,
      "creates": null,
      "raw": "0xf86d01850d758333ea8252089432be343b94f860124dc4fee278fdcbd38c102d8889015adbc40ffebc3000801ca039314e7d53df549f1a8df63bf555aa21239b505d8ed6e55446fc74f3a86260cfa054c1504f197b2f585bf4dd9836f16924f18de08131cae1ed7d438387e30896dd",
      "networkId": 0,
      "chainId": 0
    },
    {
      "hash": "0x4aebe270b7da15837e7dfb4acfbac84b23d5c751efab17675c197ef2ca385626",
      "blockHash": "0x6b2ab6ac3d5f0f02bb3546cc3973ebc20008f6edd9e1bd33f752c35951ab83cd",
      "blockNumber": 84870,
      "transactionIndex": 1,
      "confirmations": null,
      "from": "0x23f2D0fd3B4C98Fb1698564deB4898275E2e831f",
      "gasPrice": {
        "_hex": "0xd758333ea"
      },
      "gasLimit": {
        "_hex": "0x5208"
      },
      "to": "0x32Be343B94f860124dC4fEe278FDCBD38C102D88",
      "value": {
        "_hex": "0x6ad7952408135c00"
      },
      "nonce": 4,
      "data": "0x",
      "r": "0xf9c9d273a43087fb47657265070d121259e05ff790b38ee3d490c09b4ead4b08",
      "s": "0x166a37b83868a982b8ee4a7f3fb8fc9a97ba8800e77bb8fb225de2edc5c496c9",
      "v": 27,
      "creates": null,
      "raw": "0xf86c04850d758333ea8252089432be343b94f860124dc4fee278fdcbd38c102d88886ad7952408135c00801ba0f9c9d273a43087fb47657265070d121259e05ff790b38ee3d490c09b4ead4b08a0166a37b83868a982b8ee4a7f3fb8fc9a97ba8800e77bb8fb225de2edc5c496c9",
      "networkId": 0,
      "chainId": 0
    },
    {
      "hash": "0x2ebc72c5c020f531f4d618341381ef10deda6ff4e000b91acc73e88cdd0162a9",
      "blockHash": "0x6b2ab6ac3d5f0f02bb3546cc3973ebc20008f6edd9e1bd33f752c35951ab83cd",
      "blockNumber": 84870,
      "transactionIndex": 2,
      "confirmations": null,
      "from": "0x59C62d3D43f9EA1c4118d98c188AA5d028b8bB8E",
      "gasPrice": {
        "_hex": "0xd758333ea"
      },
      "gasLimit": {
        "_hex": "0x5208"
      },
      "to": "0x32Be343B94f860124dC4fEe278FDCBD38C102D88",
      "value": {
        "_hex": "0x8ac2d2f46f796000"
      },
      "nonce": 10,
      "data": "0x",
      "r": "0x9d234e5e095b722c8966d6715c710730f180230ea1ffb4f534bca98b73674d85",
      "s": "0x3241563eb6ba8928219a9f2542870a1e0b430c7c42c37b1eb58bc78a1a729eb9",
      "v": 27,
      "creates": null,
      "raw": "0xf86c0a850d758333ea8252089432be343b94f860124dc4fee278fdcbd38c102d88888ac2d2f46f796000801ba09d234e5e095b722c8966d6715c710730f180230ea1ffb4f534bca98b73674d85a03241563eb6ba8928219a9f2542870a1e0b430c7c42c37b1eb58bc78a1a729eb9",
      "networkId": 0,
      "chainId": 0
    },
    {
      "hash": "0x0fba934e20ca574bc523f12fe142c897402bcc39101b473cc6efb3c34a776199",
      "blockHash": "0x6b2ab6ac3d5f0f02bb3546cc3973ebc20008f6edd9e1bd33f752c35951ab83cd",
      "blockNumber": 84870,
      "transactionIndex": 3,
      "confirmations": null,
      "from": "0x32Be343B94f860124dC4fEe278FDCBD38C102D88",
      "gasPrice": {
        "_hex": "0xd758333ea"
      },
      "gasLimit": {
        "_hex": "0x5208"
      },
      "to": "0x4c1E3793EC978772BC3f5dd236933Bf9Ed342D4e",
      "value": {
        "_hex": "0x15af1d78b58c400000"
      },
      "nonce": 709,
      "data": "0x",
      "r": "0x4570cb7e6479bf3a4a1937a85f1fdf6ab82fd9d0cbdc628be9576ec5e9a1a00b",
      "s": "0x72f69f5f5f76c38510d2a7903703465bd192dddcdb46c0512ef185d0cdd61058",
      "v": 27,
      "creates": null,
      "raw": "0xf86f8202c5850d758333ea825208944c1e3793ec978772bc3f5dd236933bf9ed342d4e8915af1d78b58c400000801ba04570cb7e6479bf3a4a1937a85f1fdf6ab82fd9d0cbdc628be9576ec5e9a1a00ba072f69f5f5f76c38510d2a7903703465bd192dddcdb46c0512ef185d0cdd61058",
      "networkId": 0,
      "chainId": 0
    },
    {
      "hash": "0xf1f7e8184d25968422c9e0ee5fa5a7ee4d19e9ac00d045243f34205b87535b00",
      "blockHash": "0x6b2ab6ac3d5f0f02bb3546cc3973ebc20008f6edd9e1bd33f752c35951ab83cd",
      "blockNumber": 84870,
      "transactionIndex": 4,
      "confirmations": null,
      "from": "0xf357482c5A92C7B2Cee6a157034362b7d7d88c5A",
      "gasPrice": {
        "_hex": "0xd758333ea"
      },
      "gasLimit": {
        "_hex": "0x5208"
      },
      "to": "0x32Be343B94f860124dC4fEe278FDCBD38C102D88",
      "value": {
        "_hex": "0x44df5ba2fe9b5c00"
      },
      "nonce": 3,
      "data": "0x",
      "r": "0xeaeeeb18a13c6b33eb2debd0a3f649e5a7f58f87e3bbbd4f087190d28d508404",
      "s": "0x0cf674c10af1282929988c526350359141756a9875f2ed113544fde8634d04da",
      "v": 27,
      "creates": null,
      "raw": "0xf86c03850d758333ea8252089432be343b94f860124dc4fee278fdcbd38c102d888844df5ba2fe9b5c00801ba0eaeeeb18a13c6b33eb2debd0a3f649e5a7f58f87e3bbbd4f087190d28d508404a00cf674c10af1282929988c526350359141756a9875f2ed113544fde8634d04da",
      "networkId": 0,
      "chainId": 0
    },
    {
      "hash": "0xd317c08ad655fee581fffe0c9c4f5754a070ee47071d84073310f1e6fa9f6540",
      "blockHash": "0x6b2ab6ac3d5f0f02bb3546cc3973ebc20008f6edd9e1bd33f752c35951ab83cd",
      "blockNumber": 84870,
      "transactionIndex": 5,
      "confirmations": null,
      "from": "0x32Be343B94f860124dC4fEe278FDCBD38C102D88",
      "gasPrice": {
        "_hex": "0xd758333ea"
      },
      "gasLimit": {
        "_hex": "0x5208"
      },
      "to": "0xEd3fb5705153F3E5E864B8Cda23a132d6dFaC5F8",
      "value": {
        "_hex": "0xde94012ba8c6c800"
      },
      "nonce": 710,
      "data": "0x",
      "r": "0x1eb01644c3df772b43325046e800ee37218fb2bc83b309431696a61977d449e7",
      "s": "0x59c9d28765f9535e12c8dcd7c2de54439d639608c76184c0c2d2130db3a79786",
      "v": 28,
      "creates": null,
      "raw": "0xf86e8202c6850d758333ea82520894ed3fb5705153f3e5e864b8cda23a132d6dfac5f888de94012ba8c6c800801ca01eb01644c3df772b43325046e800ee37218fb2bc83b309431696a61977d449e7a059c9d28765f9535e12c8dcd7c2de54439d639608c76184c0c2d2130db3a79786",
      "networkId": 0,
      "chainId": 0
    },
    {
      "hash": "0x2f2809a52b51e42feb052e27cd5298f8651a71aaee020bf45563a6d2d516658f",
      "blockHash": "0x6b2ab6ac3d5f0f02bb3546cc3973ebc20008f6edd9e1bd33f752c35951ab83cd",
      "blockNumber": 84870,
      "transactionIndex": 6,
      "confirmations": null,
      "from": "0x89009E3C6488bD5E570d1DA34eAbE28ED024de1B",
      "gasPrice": {
        "_hex": "0xcd3d5ecf0"
      },
      "gasLimit": {
        "_hex": "0x15f90"
      },
      "to": "0xbc46d537CF2Edd403565bde733b2E34B215001Bd",
      "value": {
        "_hex": "0x6c6b935b8bbd400000"
      },
      "nonce": 0,
      "data": "0x",
      "r": "0x3a73245aa8d94cefd34fb269a3b95b14192f8327ebff402f54a71cfd80e9e705",
      "s": "0x5f5f63d2b326c268022343392099401c37063ef15846a76eef90c9faaaa4ac10",
      "v": 27,
      "creates": null,
      "raw": "0xf86e80850cd3d5ecf083015f9094bc46d537cf2edd403565bde733b2e34b215001bd896c6b935b8bbd400000801ba03a73245aa8d94cefd34fb269a3b95b14192f8327ebff402f54a71cfd80e9e705a05f5f63d2b326c268022343392099401c37063ef15846a76eef90c9faaaa4ac10",
      "networkId": 0,
      "chainId": 0
    },
    {
      "hash": "0xa7c7d398b4726fa92f7b4a07d9f38bbf230225e8da54c0bd6064cc6de4121ffa",
      "blockHash": "0x6b2ab6ac3d5f0f02bb3546cc3973ebc20008f6edd9e1bd33f752c35951ab83cd",
      "blockNumber": 84870,
      "transactionIndex": 7,
      "confirmations": null,
      "from": "0x89009E3C6488bD5E570d1DA34eAbE28ED024de1B",
      "gasPrice": {
        "_hex": "0xcd8e1da39"
      },
      "gasLimit": {
        "_hex": "0x15f90"
      },
      "to": "0xbc46d537CF2Edd403565bde733b2E34B215001Bd",
      "value": {
        "_hex": "0x6c6b935b8bbd400000"
      },
      "nonce": 1,
      "data": "0x",
      "r": "0x804f848e19976d6f3a444f127053712bac095af24c74ea75a6f2aeff76de263c",
      "s": "0x5e7bc82d1413a218bb6e8eb60b61858e1af592c1151f8c2a494176b231f6d507",
      "v": 27,
      "creates": null,
      "raw": "0xf86e01850cd8e1da3983015f9094bc46d537cf2edd403565bde733b2e34b215001bd896c6b935b8bbd400000801ba0804f848e19976d6f3a444f127053712bac095af24c74ea75a6f2aeff76de263ca05e7bc82d1413a218bb6e8eb60b61858e1af592c1151f8c2a494176b231f6d507",
      "networkId": 0,
      "chainId": 0
    },
    {
      "hash": "0x5c2270290506f4b88bff7ad05f76b5508fdb8e2827ab20571be15db07690078b",
      "blockHash": "0x6b2ab6ac3d5f0f02bb3546cc3973ebc20008f6edd9e1bd33f752c35951ab83cd",
      "blockNumber": 84870,
      "transactionIndex": 8,
      "confirmations": null,
      "from": "0x89009E3C6488bD5E570d1DA34eAbE28ED024de1B",
      "gasPrice": {
        "_hex": "0xcd8e1da39"
      },
      "gasLimit": {
        "_hex": "0x15f90"
      },
      "to": "0xbc46d537CF2Edd403565bde733b2E34B215001Bd",
      "value": {
        "_hex": "0x6c6b935b8bbd400000"
      },
      "nonce": 2,
      "data": "0x",
      "r": "0xf1978d416a234e5c4e970f751063dffac6d24add4e5ad183b258c988f29b5cf5",
      "s": "0x38b9ced2a738bb459427c16c7378ab3ec0b6a72bba3dc94688518b7101627f15",
      "v": 27,
      "creates": null,
      "raw": "0xf86e02850cd8e1da3983015f9094bc46d537cf2edd403565bde733b2e34b215001bd896c6b935b8bbd400000801ba0f1978d416a234e5c4e970f751063dffac6d24add4e5ad183b258c988f29b5cf5a038b9ced2a738bb459427c16c7378ab3ec0b6a72bba3dc94688518b7101627f15",
      "networkId": 0,
      "chainId": 0
    },
    {
      "hash": "0x92587b09329297878e3eb1b5c34412aef96c6d56215f62e26e636bbf6d3fc213",
      "blockHash": "0x6b2ab6ac3d5f0f02bb3546cc3973ebc20008f6edd9e1bd33f752c35951ab83cd",
      "blockNumber": 84870,
      "transactionIndex": 9,
      "confirmations": null,
      "from": "0x89009E3C6488bD5E570d1DA34eAbE28ED024de1B",
      "gasPrice": {
        "_hex": "0xcd8e1da39"
      },
      "gasLimit": {
        "_hex": "0x15f90"
      },
      "to": "0xbc46d537CF2Edd403565bde733b2E34B215001Bd",
      "value": {
        "_hex": "0x6c6b935b8bbd400000"
      },
      "nonce": 3,
      "data": "0x",
      "r": "0x40450684046d7fadf931271bd27f494d5d09f1754449b3ab02a331dfa59e6b9e",
      "s": "0x1b31b4274d4bbb4606c4051aabd5f8f1b1bdc963c5934bd189f96197b0540655",
      "v": 28,
      "creates": null,
      "raw": "0xf86e03850cd8e1da3983015f9094bc46d537cf2edd403565bde733b2e34b215001bd896c6b935b8bbd400000801ca040450684046d7fadf931271bd27f494d5d09f1754449b3ab02a331dfa59e6b9ea01b31b4274d4bbb4606c4051aabd5f8f1b1bdc963c5934bd189f96197b0540655",
      "networkId": 0,
      "chainId": 0
    },
    {
      "hash": "0x91ac3f70b4c012678a51853b0c1ac1d964875d334f1c0c0a92e46b93eb11b72f",
      "blockHash": "0x6b2ab6ac3d5f0f02bb3546cc3973ebc20008f6edd9e1bd33f752c35951ab83cd",
      "blockNumber": 84870,
      "transactionIndex": 10,
      "confirmations": null,
      "from": "0x89009E3C6488bD5E570d1DA34eAbE28ED024de1B",
      "gasPrice": {
        "_hex": "0xcd8e1da39"
      },
      "gasLimit": {
        "_hex": "0x15f90"
      },
      "to": "0xbc46d537CF2Edd403565bde733b2E34B215001Bd",
      "value": {
        "_hex": "0x6c6b935b8bbd400000"
      },
      "nonce": 4,
      "data": "0x",
      "r": "0x8fb66a0f021110a9e4a61c53b5231668bd3b387f30b6c269191fcc74f9bbf2fa",
      "s": "0x24b417306e0ad0f6f075cc64dc0a11fc1b588355060a0cb7be45b25423419a76",
      "v": 27,
      "creates": null,
      "raw": "0xf86e04850cd8e1da3983015f9094bc46d537cf2edd403565bde733b2e34b215001bd896c6b935b8bbd400000801ba08fb66a0f021110a9e4a61c53b5231668bd3b387f30b6c269191fcc74f9bbf2faa024b417306e0ad0f6f075cc64dc0a11fc1b588355060a0cb7be45b25423419a76",
      "networkId": 0,
      "chainId": 0
    }
  ]
}