{
  "hash": "0x64c8fac96852e34b3c7feaf6e227f2bafccb4cf0cf67b46be45a56701bf4ec93",
  "parentHash": "0x55f47f226e1945df06be1dd7d26c1a69c55524f9a384a40879212e99fe7de205",
  "number": 108435,
  "timestamp": 1439940549,
  "nonce": "0xeccd7e9ee3f40c6b",
  "difficulty": 4296174227915,
  "gasLimit": {
    "_hex": "0x2fefd8"
  },
  "gasUsed": {
    "_hex": "0x5208"
  },
  "miner": "0xe6A7a1d47ff21B6321162AEA7C6CB457D5476Bca",
  "extraData": "0x476574682f76312e302e312d38326566323666362f6c696e75782f676f312e34",
  "transactions": [
    {
      "hash": "0xabbfeddb72e879d0ea22c10e265c5d2272d3840d11339b2d3082ad331ae5df36",
      "blockHash": "0x64c8fac96852e34b3c7feaf6e227f2bafccb4cf0cf67b46be45a56701bf4ec93",
      "blockNumber": 108435,
      "transactionIndex": 0,
      "confirmations": null,
      "from": "0xFBb1b73C4f0BDa4f67dcA266ce6Ef42f520fBB98",
      "gasPrice": {
        "_hex": "0xdbeaba365"
      },
      "gasLimit": {
        "_hex": "0x5208"
      },
      "to": "0x0AE502D5084FDe52CdEAb47766c05DD73F5a3Df8",
      "value": {
        "_hex": "0xdbd2fc137a30000"
      },
      "nonce": 212,
      "data": "0x",
      "r": "0x8d1a4efbd6f6e4c7568809168642d277dec7fb532f9064de8ce2a0e2d0a7178a",
      "s": "0x7e155d965b332b9be1ec652dfb9ec29ddaea656401a7fede77b834e50566362e",
      "v": 27,
      "creates": null,
      "raw": "0xf86d81d4850dbeaba365825208940ae502d5084fde52cdeab47766c05dd73f5a3df8880dbd2fc137a30000801ba08d1a4efbd6f6e4c7568809168642d277dec7fb532f9064de8ce2a0e2d0a7178aa07e155d965b332b9be1ec652dfb9ec29ddaea656401a7fede77b834e50566362e",
      "networkId": 0,
      "chainId": 0
    }
  ]
}