{
  "hash": "0x3411626b2bdea39f60d9a2f495bc12c0e6d3898197b8c202573ccd1f9cc4be70",
  "parentHash": "0xb1e48b9b2509c65ec7c2e716c3e8d5dcf8f11b95ed008b0c9b8eaa19d5443722",
  "number": 75191,
  "timestamp": 1439399151,
  "nonce": "0x245380a34f6800b6",
  "difficulty": 2192253565948,
  "gasLimit": {
    "_hex": "0x2fefd8"
  },
  "gasUsed": {
    "_hex": "0xa410"
  },
  "miner": "0x909755D480A27911cB7EeeB5edB918fae50883c0",
  "extraData": "0x476574682f76312e302e312d39383130306634372f6c696e75782f676f312e34",
  "transactions": [
    {
      "hash": "0xdaa7c338ae7cd75392961d39310c7091ff2f8d2d0aca542a6b3f75095e500374",
      "blockHash": "0x3411626b2bdea39f60d9a2f495bc12c0e6d3898197b8c202573ccd1f9cc4be70",
      "blockNumber": 75191,
      "transactionIndex": 0,
      "confirmations": null,
      "from": "0xB7268c7705A1866b2A78e882fdfDc8E2a4e1428E",
      "gasPrice": {
        "_hex": "0xd6b187d36"
      },
      "gasLimit": {
        "_hex": "0x15f90"
      },
      "to": "0x96811Ad897894eC178872117C8BF2f03971A393B",
      "value": {
        "_hex": "0x4563918244f40000"
      },
      "nonce": 14,
      "data": "0x",
      "r": "0x2c46f576c8f97aaaafdaef257298715dd4d29cf1870ca09bfe96dd1968efac76",
      "s": "0x1cb13e343e5909b8922fef0e672457f2e5f42f75a97dad124e6cf09de0acc75f",
      "v": 28,
      "creates": null,
      "raw": "0xf86d0e850d6b187d3683015f909496811ad897894ec178872117c8bf2f03971a393b884563918244f40000801ca02c46f576c8f97aaaafdaef257298715dd4d29cf1870ca09bfe96dd1968efac76a01cb13e343e5909b8922fef0e672457f2e5f42f75a97dad124e6cf09de0acc75f",
      "networkId": 0,
      "chainId": 0
    },
    {
      "hash": "0x4b8e6086d3af61ceb61b009f5ddf303314f1143f2aceafdb7271801db41fb3ec",
      "blockHash": "0x3411626b2bdea39f60d9a2f495bc12c0e6d3898197b8c202573ccd1f9cc4be70",
      "blockNumber": 75191,
      "transactionIndex": 1,
      "confirmations": null,
      "from": "0x120A270bbC009644e35F0bB6ab13f95b8199c4ad",
      "gasPrice": {
        "_hex": "0xd1579cae3"
      },
      "gasLimit": {
        "_hex": "0x15f90"
      },
      "to": "0x0C834b0a01810533a5417Ee59c7bB6b5D3956A82",
      "value": {
        "_hex": "0x28c7dea56059b58000"
      },
      "nonce": 292,
      "data": "0x",
      "r": "0xe2d33c927b555106c4d5f7622dbe9d8848fff520fd8f1f96703369d462018f09",
      "s": "0x40653a4af0779441d0f8c835a99eae1b8fa45b4779cf095e739f699e4c1cfbd6",
      "v": 27,
      "creates": null,
      "raw": "0xf870820124850d1579cae383015f90940c834b0a01810533a5417ee59c7bb6b5d3956a828928c7dea56059b58000801ba0e2d33c927b555106c4d5f7622dbe9d8848fff520fd8f1f96703369d462018f09a040653a4af0779441d0f8c835a99eae1b8fa45b4779cf095e739f699e4c1cfbd6",
      "networkId": 0,
      "chainId": 0
    }
  ]
}