{
  "hash": "0x720135a76747fde19dd95f29321b19805500e267430b1030a5439ee6b4253376",
  "parentHash": "0x2b54e05ad751106c9235f0b0976552f5550af934dd01e4d590b3802adba9836c",
  "number": 50490,
  "timestamp": 1438990145,
  "nonce": "0x0f28854d0eb7638d",
  "difficulty": 1508943528283,
  "gasLimit": {
    "_hex": "0x66019"
  },
  "gasUsed": {
    "_hex": "0x5208"
  },
  "miner": "0x0eDEd3DA479d0beF8eeC92A76644D3f4E3C177f7",
  "extraData": "0x476574682f76312e302e312f6c696e75782f676f312e342e32",
  "transactions": [
    {
      "hash": "0x99558d18808c317e596caedc217184cbaec1b44a2d05ada659f1e61b4009895c",
      "blockHash": "0x720135a76747fde19dd95f29321b19805500e267430b1030a5439ee6b4253376",
      "blockNumber": 50490,
      "transactionIndex": 0,
      "confirmations": null,
      "from": "0xF0a3af9e925b07D1FAA4ddF8beBfAA86B7B95e33",
      "gasPrice": {
        "_hex": "0xd8364fc25"
      },
      "gasLimit": {
        "_hex": "0x5208"
      },
      "to": "0xBAA54d6E90c3F4d7Ebec11bD180134C7eD8eBb52",
      "value": {
        "_hex": "0x16345785d8a0000"
      },
      "nonce": 2,
      "data": "0x",
      "r": "0x7f28219b29ecc1b7599bd3b3302dc15168b53260fa01ff0bffd9c3cf468df03f",
      "s": "0x253b65a9d6ad4514667f6866692595a2e0a751c526e0cf82735c38f469295f41",
      "v": 28,
      "creates": null,
      "raw": "0xf86c02850d8364fc2582520894baa54d6e90c3f4d7ebec11bd180134c7ed8ebb5288016345785d8a0000801ca07f28219b29ecc1b7599bd3b3302dc15168b53260fa01ff0bffd9c3cf468df03fa0253b65a9d6ad4514667f6866692595a2e0a751c526e0cf82735c38f469295f41",
      "networkId": 0,
      "chainId": 0
    }
  ]
}