{
  "hash": "0x191bfc26337524b6fe83d7ceb89001e8bc05fd0c527da74302f8d0e3ec61520d",
  "parentHash": "0xb17c3f5142aecaf9da108c5cce425070589ce6ba0b91e6dd9d5cd95aeeb01007",
  "number": 95195,
  "timestamp": 1439720409,
  "nonce": "0x1d5885a090c71557",
  "difficulty": 3532612219424,
  "gasLimit": {
    "_hex": "0x2fefd8"
  },
  "gasUsed": {
    "_hex": "0x5208"
  },
  "miner": "0x790b8a3cE86E707ED0eD32bF89B3269692a23CC1",
  "extraData": "0xd783010001844765746887676f312e342e32856c696e7578",
  "transactions": [
    {
      "hash": "0xb7acab93f8591bde3e597bf5b16e4c812caba7bd08c8fed311f09b8ce1b39453",
      "blockHash": "0x191bfc26337524b6fe83d7ceb89001e8bc05fd0c527da74302f8d0e3ec61520d",
      "blockNumber": 95195,
      "transactionIndex": 0,
      "confirmations": null,
      "from": "0x859217617481BD9b6E3e38f6aE9BB677F0D26154",
      "gasPrice": {
        "_hex": "0xd5caaee59"
      },
      "gasLimit": {
        "_hex": "0x5208"
      },
      "to": "0x32Be343B94f860124dC4fEe278FDCBD38C102D88",
      "value": {
        "_hex": "0x40ff736b547b9c0000"
      },
      "nonce": 12,
      "data": "0x",
      "r": "0x10eacc597f7cfaf51f1057faa66171d574262230cddfd0e865cd1c29e2ceb9b1",
      "s": "0x719d84f9aa87f26e9330acdb6fa23ba83f979a7aeb9d21c9884cbd19ae99135b",
      "v": 28,
      "creates": null,
      "raw": "0xf86d0c850d5caaee598252089432be343b94f860124dc4fee278fdcbd38c102d888940ff736b547b9c0000801ca010eacc597f7cfaf51f1057faa66171d574262230cddfd0e865cd1c29e2ceb9b1a0719d84f9aa87f26e9330acdb6fa23ba83f979a7aeb9d21c9884cbd19ae99135b",
      "networkId": 0,
      "chainId": 0
    }
  ]
}