{
  "hash": "0x119d73c163fbf2e72fcb5ce0811fd0b74fa452729c1792128d9c29ffda537bff",
  "parentHash": "0x52e761eb42e529d8c10ff92d9c8382a5adf0603f8b82ba99b747b073e5b83e87",
  "number": 71473,
  "timestamp": 1439336660,
  "nonce": "0x4ad82fce40488a7b",
  "difficulty": 2178283807384,
  "gasLimit": {
    "_hex": "0x2fefd8"
  },
  "gasUsed": {
    "_hex": "0x5208"
  },
  "miner": "0xf927a40C8B7F6E07c5af7FA2155B4864a4112B13",
  "extraData": "0x",
  "transactions": [
    {
      "hash": "0xf017f381073917bb0bb4050ce89654396ccb703af476ecbb19047f776bcca499",
      "blockHash": "0x119d73c163fbf2e72fcb5ce0811fd0b74fa452729c1792128d9c29ffda537bff",
      "blockNumber": 71473,
      "transactionIndex": 0,
      "confirmations": null,
      "from": "0x2910543Af39abA0Cd09dBb2D50200b3E800A63D2",
      "gasPrice": {
        "_hex": "0xd4eef8ce8"
      },
      "gasLimit": {
        "_hex": "0x5208"
      },
      "to": "0x88a0A05437262a1b65f41A978Cb16CB1f0BFCfE0",
      "value": {
        "_hex": "0xb42c519d73fd690000"
      },
      "nonce": 272,
      "data": "0x",
      "r": "0xdf21cc334a60d7b4301d9af9b4778891b8a45cfb397a8aabfc6465fe892a0316",
      "s": "0x33cbfea2da3dd67ea8fb3fbd4d7f4e4fbf445db3beff0af558f25a986f07b278",
      "v": 27,
      "creates": null,
      "raw": "0xf86f820110850d4eef8ce88252089488a0a05437262a1b65f41a978cb16cb1f0bfcfe089b42c519d73fd690000801ba0df21cc334a60d7b4301d9af9b4778891b8a45cfb397a8aabfc6465fe892a0316a033cbfea2da3dd67ea8fb3fbd4d7f4e4fbf445db3beff0af558f25a986f07b278",
      "networkId": 0,
      "chainId": 0
    }
  ]
}