{
  "hash": "0xb776eb69d8e4858947035f60f306783821055a957eeccffabcc0e13592b962ea",
  "parentHash": "0xe1cb8d7b88d16c118fda202ef73b04b08a07a9a0bbb3cb0687548ff57039720b",
  "number": 85637,
  "timestamp": 1439566518,
  "nonce": "0xb9bc8b2a30d81d03",
  "difficulty": 2789527701886,
  "gasLimit": {
    "_hex": "0x2fefd8"
  },
  "gasUsed": {
    "_hex": "0x5208"
  },
  "miner": "0x1217627fe41A00f0b828317F43E6d58F47dBfc43",
  "extraData": "0x476574682f76312e302e302d66313265303136312f6c696e75782f676f312e34",
  "transactions": [
    {
      "hash": "0xe40c34557dd64ff08b898216ba9745a728a82fdedeea38f57fbcb1227a5ee456",
      "blockHash": "0xb776eb69d8e4858947035f60f306783821055a957eeccffabcc0e13592b962ea",
      "blockNumber": 85637,
      "transactionIndex": 0,
      "confirmations": null,
      "from": "0x141d08EDaDA2C1bA62A2940184Ba03d62d3fFF22",
      "gasPrice": {
        "_hex": "0xba43b7400"
      },
      "gasLimit": {
        "_hex": "0x5208"
      },
      "to": "0xC47Aaa860008be6f65B58c6C6E02a84e666EfE31",
      "value": {
        "_hex": "0x98925b46cc67b8f0"
      },
      "nonce": 4,
      "data": "0x",
      "r": "0x98a59553ff8a4a7b34b9ea4bfc5af24260de0c89abf8bd957a49223f9b532f99",
      "s": "0x202581a9535cbc0e17cddc16041e14caf0b86b73d3d204277ac23e11512e3d63",
      "v": 27,
      "creates": null,
      "raw": "0xf86c04850ba43b740082520894c47aaa860008be6f65b58c6c6e02a84e666efe318898925b46cc67b8f0801ba098a59553ff8a4a7b34b9ea4bfc5af24260de0c89abf8bd957a49223f9b532f99a0202581a9535cbc0e17cddc16041e14caf0b86b73d3d204277ac23e11512e3d63",
      "networkId": 0,
      "chainId": 0
    }
  ]
}