{
  "hash": "0xcdef6b600a508e41a5adcebcd5dd7f6c331370101fcf8bafa6fb4d078c24d685",
  "parentHash": "0x2aa73c627ecb892b97fbffa179c9c0237ad68d7a24cd4be1d4c8bef6270bee1f",
  "number": 92014,
  "timestamp": 1439665303,
  "nonce": "0x4581eec8f5f2739c",
  "difficulty": 3477464808710,
  "gasLimit": {
    "_hex": "0x2fefd8"
  },
  "gasUsed": {
    "_hex": "0x2aa3b"
  },
  "miner": "0xf927a40C8B7F6E07c5af7FA2155B4864a4112B13",
  "extraData": "0x",
  "transactions": [
    {
      "hash": "0xe31329e966cfa5d3fb9415934475867b9c654bf5fd63442a3561ebe3e2920f36",
      "blockHash": "0xcdef6b600a508e41a5adcebcd5dd7f6c331370101fcf8bafa6fb4d078c24d685",
      "blockNumber": 92014,
      "transactionIndex": 0,
      "confirmations": null,
      "from": "0xa70a9a7040d542C632D8e0bE7c5513A8a5Bbc752",
      "gasPrice": {
        "_hex": "0xe12119255"
      },
      "gasLimit": {
        "_hex": "0x5208"
      },
      "to": "0x32Be343B94f860124dC4fEe278FDCBD38C102D88",
      "value": {
        "_hex": "0x455f0f473a50ac00"
      },
      "nonce": 124,
      "data": "0x",
      "r": "0x8a055066ec46b4b3f0a90f88bd333061d5904cda7153837dae6e86b90762855f",
      "s": "0x4ebecc8d9ef80b7ae85c79146b12b89b161a3bf44e069d1b5bd7b9ec0025abd3",
      "v": 27,
      "creates": null,
      "raw": "0xf86c7c850e121192558252089432be343b94f860124dc4fee278fdcbd38c102d8888455f0f473a50ac00801ba08a055066ec46b4b3f0a90f88bd333061d5904cda7153837dae6e86b90762855fa04ebecc8d9ef80b7ae85c79146b12b89b161a3bf44e069d1b5bd7b9ec0025abd3",
      "networkId": 0,
      "chainId": 0
    },
    {
      "hash": "0x1a3beb075b9f895e84a2798ffa746144fafcfd63313de6d9b0bc23b5f8f84ef2",
      "blockHash": "0xcdef6b600a508e41a5adcebcd5dd7f6c331370101fcf8bafa6fb4d078c24d685",
      "blockNumber": 92014,
      "transactionIndex": 1,
      "confirmations": null,
      "from": "0x32Be343B94f860124dC4fEe278FDCBD38C102D88",
      "gasPrice": {
        "_hex": "0xe12119255"
      },
      "gasLimit": {
        "_hex": "0x5208"
      },
      "to": "0xcd0Af3474e22F069EC3407870DD770443d5b12B0",
      "value": {
        "_hex": "0x4d058f98476b0000"
      },
      "nonce": 890,
      "data": "0x",
      "r": "0x4aa1cb67c4231b06aa6b4a4a4cf003b53d6cd0d115af4fd49ef489c559d25749",
      "s": "0x295af7c20ca6c8c90a626db8fd48ec4089fc12d766d54cfb6a89473b6a619dc1",
      "v": 27,
      "creates": null,
      "raw": "0xf86e82037a850e1211925582520894cd0af3474e22f069ec3407870dd770443d5b12b0884d058f98476b0000801ba04aa1cb67c4231b06aa6b4a4a4cf003b53d6cd0d115af4fd49ef489c559d25749a0295af7c20ca6c8c90a626db8fd48ec4089fc12d766d54cfb6a89473b6a619dc1",
      "networkId": 0,
      "chainId": 0
    },
    {
      "hash": "0x83d86f41594d1f800329248e9b5039521fc54d7647092489a3a3328527fc0563",
      "blockHash": "0xcdef6b600a508e41a5adcebcd5dd7f6c331370101fcf8bafa6fb4d078c24d685",
      "blockNumber": 92014,
      "transactionIndex": 2,
      "confirmations": null,
      "from": "0xd3CdA913deB6f67967B99D67aCDFa1712C293601",
      "gasPrice": {
        "_hex": "0xda609479d"
      },
      "gasLimit": {
        "_hex": "0xf4240"
      },
      "to": null,
      "value": {
        "_hex": "0x0"
      },
      "nonce": 16,
      "data": "0x60606040526101be806100136000396000f30060606040526000357c010000000000000000000000000000000000000000000000000000000090048063471407e614610044578063e37678761461007757610042565b005b6100616004803590602001803590602001803590602001506100b3565b6040518082815260200191505060405180910390f35b61008e600480359060200180359060200150610090565b005b8060006000506000848152602001908152602001600020600050819055505b5050565b6000818301905080506100c684826100d5565b8090506100ce565b9392505050565b3373ffffffffffffffffffffffffffffffffffffffff1660405180807f7265676973746572496e7428627974657333322c696e74290000000000000000815260200150601801905060405180910390207c0100000000000000000000000000000000000000000000000000000000809104027c010000000000000000000000000000000000000000000000000000000090048383604051837c010000000000000000000000000000000000000000000000000000000002815260040180838152602001828152602001925050506000604051808303816000876161da5a03f192505050505b505056",
      "r": "0x35aac7a34be6b4ab82f20f3bc38010d569f1bf3a6302b90b00b979b5f9e5810e",
      "s": "0x14ccad15991ed473b212bbe0c25b2caf196b4e012337a96156de9d2ea0913cff",
      "v": 28,
      "creates": "0xa72f859F9c5d6BfCfe3B157049Dd234E3Fa5674c",
      "raw": "0xf9022410850da609479d830f42408080b901d160606040526101be806100136000396000f30060606040526000357c010000000000000000000000000000000000000000000000000000000090048063471407e614610044578063e37678761461007757610042565b005b6100616004803590602001803590602001803590602001506100b3565b6040518082815260200191505060405180910390f35b61008e600480359060200180359060200150610090565b005b8060006000506000848152602001908152602001600020600050819055505b5050565b6000818301905080506100c684826100d5565b8090506100ce565b9392505050565b3373ffffffffffffffffffffffffffffffffffffffff1660405180807f7265676973746572496e7428627974657333322c696e74290000000000000000815260200150601801905060405180910390207c0100000000000000000000000000000000000000000000000000000000809104027c010000000000000000000000000000000000000000000000000000000090048383604051837c010000000000000000000000000000000000000000000000000000000002815260040180838152602001828152602001925050506000604051808303816000876161da5a03f192505050505b5050561ca035aac7a34be6b4ab82f20f3bc38010d569f1bf3a6302b90b00b979b5f9e5810ea014ccad15991ed473b212bbe0c25b2caf196b4e012337a96156de9d2ea0913cff",
      "networkId": 0,
      "chainId": 0
    }
  ]
}