{
  "hash": "0x8bb99e68bdf9fcc270356926f2108211b032084cc83a8ded47690cd1804081a8",
  "parentHash": "0x57b015de08125d2732e58f0b496a7cdb54a263006301e5c39353f256c0c10ef9",
  "number": 55106,
  "timestamp": 1439065448,
  "nonce": "0xa9ea514b6e6641e9",
  "difficulty": 1635443758693,
  "gasLimit": {
    "_hex": "0x2fefd8"
  },
  "gasUsed": {
    "_hex": "0x5208"
  },
  "miner": "0xA1623430350C5df1b52B0b57483A5bb45d1796Da",
  "extraData": "0x476574682f76312e302e312d38326566323666362f6c696e75782f676f312e34",
  "transactions": [
    {
      "hash": "0x60fbff5953059698882211f0ebc924f62241feaeb2c9b3cbb4cd9e4fcb1d3cc8",
      "blockHash": "0x8bb99e68bdf9fcc270356926f2108211b032084cc83a8ded47690cd1804081a8",
      "blockNumber": 55106,
      "transactionIndex": 0,
      "confirmations": null,
      "from": "0x430F8F6FDc140D44d9c99dA1f0A0e7ea541DB4b0",
      "gasPrice": {
        "_hex": "0xd49e60785"
      },
      "gasLimit": {
        "_hex": "0x15f90"
      },
      "to": "0x6111E933E5e6297DFd0AAd9aAB64017c69062a08",
      "value": {
        "_hex": "0x8ac7230489e80000"
      },
      "nonce": 5,
      "data": "0x",
      "r": "0x9824d0aeb157fe5f4b85c584591acb795537045312784bc5c14c1738c9549246",
      "s": "0x7ac8450c31cd76d48daa06c122e18655291e4c7989add957a946746c9716ee6a",
      "v": 27,
      "creates": null,
      "raw": "0xf86d05850d49e6078583015f90946111e933e5e6297dfd0aad9aab64017c69062a08888ac7230489e80000801ba09824d0aeb157fe5f4b85c584591acb795537045312784bc5c14c1738c9549246a07ac8450c31cd76d48daa06c122e18655291e4c7989add957a946746c9716ee6a",
      "networkId": 0,
      "chainId": 0
    }
  ]
}