{
  "hash": "0x5ffffa734c3b05f13989cd2a78d8d1667531a05ae0f453947a0263a96c7ab613",
  "parentHash": "0xf8c19c0175f56ccc4e36d8374f7a4e08cbdc7cbe3f31dd5db10224b037755151",
  "number": 79086,
  "timestamp": 1439464159,
  "nonce": "0x72998523a8bf745e",
  "difficulty": 2320063673548,
  "gasLimit": {
    "_hex": "0x2fefd8"
  },
  "gasUsed": {
    "_hex": "0xa410"
  },
  "miner": "0xC4E15a24b5f80FCeBC7104b922B1baF37FdD708B",
  "extraData": "0x",
  "transactions": [
    {
      "hash": "0x8367c8ce948d30656fc20ceae96f41c0743880febc623ce83fc2dd7d4f9ea2cd",
      "blockHash": "0x5ffffa734c3b05f13989cd2a78d8d1667531a05ae0f453947a0263a96c7ab613",
      "blockNumber": 79086,
      "transactionIndex": 0,
      "confirmations": null,
      "from": "0xe6A7a1d47ff21B6321162AEA7C6CB457D5476Bca",
      "gasPrice": {
        "_hex": "0xe0eff25da"
      },
      "gasLimit": {
        "_hex": "0x55f0"
      },
      "to": "0xF8FFFdCB6b8B88372B6aE42257f66D93E5189AC9",
      "value": {
        "_hex": "0x1bbd3e5e1155f600"
      },
      "nonce": 1085,
      "data": "0x",
      "r": "0x7e2350af912b665c904c16cd720285412d140d248f680848db0128cb58381ec3",
      "s": "0x5f26c3b88a9f662068da2a1db8b1c00356dd602bb5a0eb36f244d613c4eeddab",
      "v": 27,
      "creates": null,
      "raw": "0xf86e82043d850e0eff25da8255f094f8fffdcb6b8b88372b6ae42257f66d93e5189ac9881bbd3e5e1155f600801ba07e2350af912b665c904c16cd720285412d140d248f680848db0128cb58381ec3a05f26c3b88a9f662068da2a1db8b1c00356dd602bb5a0eb36f244d613c4eeddab",
      "networkId": 0,
      "chainId": 0
    },
    {
      "hash": "0x2a3d2d3a7c846fdfa747bb4e5c623f47491ea3eab369d6ed73cb18baf46ee9cd",
      "blockHash": "0x5ffffa734c3b05f13989cd2a78d8d1667531a05ae0f453947a0263a96c7ab613",
      "blockNumber": 79086,
      "transactionIndex": 1,
      "confirmations": null,
      "from": "0xe6A7a1d47ff21B6321162AEA7C6CB457D5476Bca",
      "gasPrice": {
        "_hex": "0xe0eff25da"
      },
      "gasLimit": {
        "_hex": "0x55f0"
      },
      "to": "0xE7bD36a7CF4F1F8896378D41177BEf637075a1eD",
      "value": {
        "_hex": "0x1be491d6f4ba2518"
      },
      "nonce": 1086,
      "data": "0x",
      "r": "0xaee7f08f5069d622deaa5535f1b44a3759572b3af17c98e5c14e697d4f912109",
      "s": "0x70852f7cf0401c0b5b59a7dd83266f2c966ca9f997529df63a31fa19264aac22",
      "v": 27,
      "creates": null,
      "raw": "0xf86e82043e850e0eff25da8255f094e7bd36a7cf4f1f8896378d41177bef637075a1ed881be491d6f4ba2518801ba0aee7f08f5069d622deaa5535f1b44a3759572b3af17c98e5c14e697d4f912109a070852f7cf0401c0b5b59a7dd83266f2c966ca9f997529df63a31fa19264aac22",
      "networkId": 0,
      "chainId": 0
    }
  ]
}