{
  "hash": "0xb74a4e0ac8ec67c1bfaf95d3f75432abc5b43ba78a9e3f9d407bd837925b9680",
  "parentHash": "0x69bf0bd6a39de8d8cdb209385dab792900eb5223cf4b95d0b70cb9c898604c3e",
  "number": 65299,
  "timestamp": 1439234499,
  "nonce": "0x6e170c862c7173d6",
  "difficulty": 1946420533134,
  "gasLimit": {
    "_hex": "0x2fefd8"
  },
  "gasUsed": {
    "_hex": "0xf618"
  },
  "miner": "0x88D74a59454F6cF3B51ef6b9136AFb6b9D405A88",
  "extraData": "0x476574682f76312e302e312d37666266393930632f6c696e75782f676f312e34",
  "transactions": [
    {
      "hash": "0x429a7078b2a26f0c53a47756c81a07510b42d7b7a1567a4be0bc45f0dff7015f",
      "blockHash": "0xb74a4e0ac8ec67c1bfaf95d3f75432abc5b43ba78a9e3f9d407bd837925b9680",
      "blockNumber": 65299,
      "transactionIndex": 0,
      "confirmations": null,
      "from": "0x8F586E3212291c58DCc78980a9c3432a3aFd3b6E",
      "gasPrice": {
        "_hex": "0xcd665f2fe"
      },
      "gasLimit": {
        "_hex": "0x5208"
      },
      "to": "0x32Be343B94f860124dC4fEe278FDCBD38C102D88",
      "value": {
        "_hex": "0x1043402e87fcc90000"
      },
      "nonce": 4,
      "data": "0x",
      "r": "0xf740585b1c8f5223d65b84c60f6bcf3bfb665ae605da7041c853c1c2d268864f",
      "s": "0x4ed533b0cfb6ff24c3fb32f24f9931e6e3a6b011bd3a8f3de6ea9c4bd229b78c",
      "v": 28,
      "creates": null,
      "raw": "0xf86d04850cd665f2fe8252089432be343b94f860124dc4fee278fdcbd38c102d88891043402e87fcc90000801ca0f740585b1c8f5223d65b84c60f6bcf3bfb665ae605da7041c853c1c2d268864fa04ed533b0cfb6ff24c3fb32f24f9931e6e3a6b011bd3a8f3de6ea9c4bd229b78c",
      "networkId": 0,
      "chainId": 0
    },
    {
      "hash": "0x935ca673f57ebaf0cb678d785725573a037de2a4705b9aedbdf3437c55cae9fd",
      "blockHash": "0xb74a4e0ac8ec67c1bfaf95d3f75432abc5b43ba78a9e3f9d407bd837925b9680",
      "blockNumber": 65299,
      "transactionIndex": 1,
      "confirmations": null,
      "from": "0x7B25BF429aaA99bC7851cd2F9353bC66f5df256c",
      "gasPrice": {
        "_hex": "0xba43b7400"
      },
      "gasLimit": {
        "_hex": "0x5208"
      },
      "to": "0x70F0f06B0d9fa951D3CE6CBc3c9700aBb37A7708",
      "value": {
        "_hex": "0x813e3650c63e000"
      },
      "nonce": 1,
      "data": "0x",
      "r": "0xc6798fe2681b82ab5d9b88a5cd6803ec361311a9b7c1ddf090569f3b1f0c78aa",
      "s": "0x6b8b4fa7077829c4a04e9fc3380afaae46c5855507325fae2f1d2c7a21741109",
      "v": 28,
      "creates": null,
      "raw": "0xf86c01850ba43b74008252089470f0f06b0d9fa951d3ce6cbc3c9700abb37a7708880813e3650c63e000801ca0c6798fe2681b82ab5d9b88a5cd6803ec361311a9b7c1ddf090569f3b1f0c78aaa06b8b4fa7077829c4a04e9fc3380afaae46c5855507325fae2f1d2c7a21741109",
      "networkId": 0,
      "chainId": 0
    },
    {
      "hash": "0xdd4997d174d43a7d11f4a89cb45b34d53410e78d757010a8d2866b4ce814a77e",
      "blockHash": "0xb74a4e0ac8ec67c1bfaf95d3f75432abc5b43ba78a9e3f9d407bd837925b9680",
      "blockNumber": 65299,
      "transactionIndex": 2,
      "confirmations": null,
      "from": "0xA6501680FB9FD0A30001c66D2eC34E3aC3cEe6d6",
      "gasPrice": {
        "_hex": "0xba43b7400"
      },
      "gasLimit": {
        "_hex": "0x5208"
      },
      "to": "0x7e288A2093d928D44990466F2F9b14BA57886B82",
      "value": {
        "_hex": "0x88793454c361000"
      },
      "nonce": 1,
      "data": "0x",
      "r": "0x1db63c7f41dd3f4934ef2357de9aaac4cf64b74f554654f804699f3693e6d581",
      "s": "0x4ec40f0f94f1294285140a9da8ca7e425ec1fba89ecccb5870de4cb3765ff0d1",
      "v": 28,
      "creates": null,
      "raw": "0xf86c01850ba43b7400825208947e288a2093d928d44990466f2f9b14ba57886b8288088793454c361000801ca01db63c7f41dd3f4934ef2357de9aaac4cf64b74f554654f804699f3693e6d581a04ec40f0f94f1294285140a9da8ca7e425ec1fba89ecccb5870de4cb3765ff0d1",
      "networkId": 0,
      "chainId": 0
    }
  ]
}