{
  "hash": "0x88f9c0e58249b417da378f55fddf0cf74dcae969151015e9766c4697757741b5",
  "parentHash": "0x9e140b2960d9225b30c541265d3dc3c89ccf504df2a15d9b86dddc832684d131",
  "number": 101173,
  "timestamp": 1439818530,
  "nonce": "0xf956ca17f3d14af6",
  "difficulty": 3858166860643,
  "gasLimit": {
    "_hex": "0x2fefd8"
  },
  "gasUsed": {
    "_hex": "0x2ed9f"
  },
  "miner": "0xe6A7a1d47ff21B6321162AEA7C6CB457D5476Bca",
  "extraData": "0x476574682f76312e302e312d38326566323666362f6c696e75782f676f312e34",
  "transactions": [
    {
      "hash": "0xd700b100d521c00fed5516d3b2384a6f424cecc45cf58df2fc2b4380fcacbfa5",
      "blockHash": "0x88f9c0e58249b417da378f55fddf0cf74dcae969151015e9766c4697757741b5",
      "blockNumber": 101173,
      "transactionIndex": 0,
      "confirmations": null,
      "from": "0x5eD8Cee6b63b1c6AFce3AD7c92f4fD7E1B8fAd9F",
      "gasPrice": {
        "_hex": "0xd01198da9"
      },
      "gasLimit": {
        "_hex": "0x7a120"
      },
      "to": "0xde0B295669a9FD93d5F28D9Ec85E40f4cb697BAe",
      "value": {
        "_hex": "0x0"
      },
      "nonce": 8,
      "data": "0xb61d27f6000000000000000000000000883903542907ea85643c9625a3e69e9bfb5c783800000000000000000000000000000000000000000000e025fc631854ad76400000000000000000000000000000000000000000000000000000000000000000600000000000000000000000000000000000000000000000000000000000000000",
      "r": "0xec09d6d7bd8fd351a83e23bb8a989849367d12f575662ea946795a9cd58fcc27",
      "s": "0x40f7432342bb53e6bcac1b944a9dd82bf6e14b05788632217831d50cbae89920",
      "v": 27,
      "creates": null,
      "raw": "0xf8ea08850d01198da98307a12094de0b295669a9fd93d5f28d9ec85e40f4cb697bae80b884b61d27f6000000000000000000000000883903542907ea85643c9625a3e69e9bfb5c783800000000000000000000000000000000000000000000e025fc631854ad764000000000000000000000000000000000000000000000000000000000000000006000000000000000000000000000000000000000000000000000000000000000001ba0ec09d6d7bd8fd351a83e23bb8a989849367d12f575662ea946795a9cd58fcc27a040f7432342bb53e6bcac1b944a9dd82bf6e14b05788632217831d50cbae89920",
      "networkId": 0,
      "chainId": 0
    },
    {
      "hash": "0x8c0cbf448718fa5ccfd733e86f0caa9c4880c63b551e58340fc9d96262714560",
      "blockHash": "0x88f9c0e58249b417da378f55fddf0cf74dcae969151015e9766c4697757741b5",
      "blockNumber": 101173,
      "transactionIndex": 1,
      "confirmations": null,
      "from": "0xC47Aaa860008be6f65B58c6C6E02a84e666EfE31",
      "gasPrice": {
        "_hex": "0xcca56f29f"
      },
      "gasLimit": {
        "_hex": "0x15f90"
      },
      "to": "0x1088F2CB8324A270c8D7E71083449a0722820D99",
      "value": {
        "_hex": "0xddd2935029d7fff"
      },
      "nonce": 39,
      "data": "0x",
      "r": "0x6f3c79dae7bee812d31998a88633a6f3edc755499a52d225fb6e1809a1fc0a6d",
      "s": "0x47773154024b7ca1348196906e80a833ae4901e4803561798520767d44518610",
      "v": 27,
      "creates": null,
      "raw": "0xf86d27850cca56f29f83015f90941088f2cb8324a270c8d7e71083449a0722820d99880ddd2935029d7fff801ba06f3c79dae7bee812d31998a88633a6f3edc755499a52d225fb6e1809a1fc0a6da047773154024b7ca1348196906e80a833ae4901e4803561798520767d44518610",
      "networkId": 0,
      "chainId": 0
    }
  ]
}