{
  "hash": "0xcc014e35bb69fd6b4a272234b25bb40cbf78ae53842b112dc071df23ce7ab3cf",
  "parentHash": "0x48e7c9615bf8156602e3f9d4f490d00ff7c6d117811a29d667104fa9c6633e4c",
  "number": 71352,
  "timestamp": 1439334553,
  "nonce": "0xd184bace72cb161a",
  "difficulty": 2179379118170,
  "gasLimit": {
    "_hex": "0x2fefd8"
  },
  "gasUsed": {
    "_hex": "0x9400"
  },
  "miner": "0x47ff6576639c2e94762eA5443978D7681C0E78DC",
  "extraData": "0x476574682f76312e302e312f6c696e75782f676f312e342e32",
  "transactions": [
    {
      "hash": "0x1fdbc1157a0002cef41b0997293563433d6c501edebe8b97343e046918088588",
      "blockHash": "0xcc014e35bb69fd6b4a272234b25bb40cbf78ae53842b112dc071df23ce7ab3cf",
      "blockNumber": 71352,
      "transactionIndex": 0,
      "confirmations": null,
      "from": "0x17580B766f7453525ca4C6A88b01b50570EA088C",
      "gasPrice": {
        "_hex": "0xd1aa23f39"
      },
      "gasLimit": {
        "_hex": "0x61a80"
      },
      "to": "0x5Fe5B7546D1628f7348B023A0393de1FC825A4fD",
      "value": {
        "_hex": "0x29a2241af62c0000"
      },
      "nonce": 158,
      "data": "0xb595b8b50000000000000000000000000000000000000000000000000000000000000001",
      "r": "0xf866f3e42b7632bf09b1ff8c2ace3df35326ab905a320638e71c785d66cfc77c",
      "s": "0x124c63f5aba6c6e6ae18ebb8db448b6d8e565f203bb87f04c8cc2d7bab9c39ad",
      "v": 28,
      "creates": null,
      "raw": "0xf892819e850d1aa23f3983061a80945fe5b7546d1628f7348b023a0393de1fc825a4fd8829a2241af62c0000a4b595b8b500000000000000000000000000000000000000000000000000000000000000011ca0f866f3e42b7632bf09b1ff8c2ace3df35326ab905a320638e71c785d66cfc77ca0124c63f5aba6c6e6ae18ebb8db448b6d8e565f203bb87f04c8cc2d7bab9c39ad",
      "networkId": 0,
      "chainId": 0
    }
  ]
}