{
  "hash": "0x88ccab9f69d53bbdc612e402eafd4f2e22e08064d8c1a266f540b9c33191f314",
  "parentHash": "0x9e7e3dd20f2e6b56410cf82e20b3a15cc26e6e42d303586f72b538c3707a4949",
  "number": 47028,
  "timestamp": 1438933359,
  "nonce": "0x4847463019be8f35",
  "difficulty": 1450318797724,
  "gasLimit": {
    "_hex": "0x90e9"
  },
  "gasUsed": {
    "_hex": "0x5208"
  },
  "miner": "0x3f113041D56Dda809a245Fe338832c2D373e7c80",
  "extraData": "0x476574682f76312e302e312f77696e646f77732f676f312e342e32",
  "transactions": [
    {
      "hash": "0xdcb8085644110f2fd46a0b528efb5a65d8ba54c791f9a7dedd54ce64a32f5b53",
      "blockHash": "0x88ccab9f69d53bbdc612e402eafd4f2e22e08064d8c1a266f540b9c33191f314",
      "blockNumber": 47028,
      "transactionIndex": 0,
      "confirmations": null,
      "from": "0x217CC0cD81DADa7C89Ad3EFdADf04e399A3167E2",
      "gasPrice": {
        "_hex": "0xddc2a9637"
      },
      "gasLimit": {
        "_hex": "0x5208"
      },
      "to": "0x32Be343B94f860124dC4fEe278FDCBD38C102D88",
      "value": {
        "_hex": "0x1b1b03ecdfc8a20000"
      },
      "nonce": 0,
      "data": "0x",
      "r": "0x2a0821b02bab67b85be29d42f3bf56db38d3a15984eb9d235390586112e23d15",
      "s": "0x70500567ebbeaba41c30727b8aab423d2f99c242e3cdf82ee604e322de50868d",
      "v": 27,
      "creates": null,
      "raw": "0xf86d80850ddc2a96378252089432be343b94f860124dc4fee278fdcbd38c102d88891b1b03ecdfc8a20000801ba02a0821b02bab67b85be29d42f3bf56db38d3a15984eb9d235390586112e23d15a070500567ebbeaba41c30727b8aab423d2f99c242e3cdf82ee604e322de50868d",
      "networkId": 0,
      "chainId": 0
    }
  ]
}