{
  "hash": "0x38ea510af3a76a58941653adf1ed0e0abbbca15e0785902f35aad9b22e033037",
  "parentHash": "0x9e0be877f8c5e8d746922feae8c7517d3586bbcc6615e99a77d63ae8c7954e1b",
  "number": 74210,
  "timestamp": 1439382410,
  "nonce": "0xb0f335ca1fc16e0e",
  "difficulty": 2210785244161,
  "gasLimit": {
    "_hex": "0x2fefd8"
  },
  "gasUsed": {
    "_hex": "0x5208"
  },
  "miner": "0xF2d2AfF1320476cb8C6b607199D23175cc595693",
  "extraData": "0x476574682f76312e302e312f77696e646f77732f676f312e342e32",
  "transactions": [
    {
      "hash": "0x2a9f51930763b16278b23c0cdec9c78be177aa457d9a2ac4ffdd7ec061aa2191",
      "blockHash": "0x38ea510af3a76a58941653adf1ed0e0abbbca15e0785902f35aad9b22e033037",
      "blockNumber": 74210,
      "transactionIndex": 0,
      "confirmations": null,
      "from": "0xEF247E639d49461D25F57e9362CadE3120910Ce0",
      "gasPrice": {
        "_hex": "0xcc7b7895c"
      },
      "gasLimit": {
        "_hex": "0x15f90"
      },
      "to": "0xF87481A262E993a75F791E7859E71BaC36A606Eb",
      "value": {
        "_hex": "0x8ac7230489e80000"
      },
      "nonce": 17,
      "data": "0x",
      "r": "0x61d673f46fabc16e4b0abaabad13edfeec0b608def67fae15f43e4cbe1b6e74d",
      "s": "0x71a0d96be03be874d2a5431abb0a2e41bd4be90a67a10a4870c7d734c056225e",
      "v": 28,
      "creates": null,
      "raw": "0xf86d11850cc7b7895c83015f9094f87481a262e993a75f791e7859e71bac36a606eb888ac7230489e80000801ca061d673f46fabc16e4b0abaabad13edfeec0b608def67fae15f43e4cbe1b6e74da071a0d96be03be874d2a5431abb0a2e41bd4be90a67a10a4870c7d734c056225e",
      "networkId": 0,
      "chainId": 0
    }
  ]
}