{
  "hash": "0xe5191f6dd10ba116eba7a960aaf183e58374bb2c964735b82df0558892b9e2b7",
  "parentHash": "0xf2e1b1d9d2dc07e4cb512189eb8c6c9bde34b8102b2fe0beb56fa56d76c2d074",
  "number": 47913,
  "timestamp": 1438948316,
  "nonce": "0x3745cc8b2a893d6f",
  "difficulty": 1459400229027,
  "gasLimit": {
    "_hex": "0x105fa"
  },
  "gasUsed": {
    "_hex": "0x546c"
  },
  "miner": "0x55bAf64fc9eAccFFd7Cc643BB61142E1C6ac093e",
  "extraData": "0x476574682f76312e302e302f6c696e75782f676f312e342e32",
  "transactions": [
    {
      "hash": "0x42da0486808ec91b998ef8f22636855795930bbcf1569dbf8afc8117a4101a1e",
      "blockHash": "0xe5191f6dd10ba116eba7a960aaf183e58374bb2c964735b82df0558892b9e2b7",
      "blockNumber": 47913,
      "transactionIndex": 0,
      "confirmations": null,
      "from": "0xB6F78Da4F4D041b3BC14BC5Ba519A5ba0c32F128",
      "gasPrice": {
        "_hex": "0x111b2345cd3"
      },
      "gasLimit": {
        "_hex": "0x55f0"
      },
      "to": "0x2910543Af39abA0Cd09dBb2D50200b3E800A63D2",
      "value": {
        "_hex": "0x1b1ae4d6e2ef500000"
      },
      "nonce": 1,
      "data": "0x454e4a384b48473238",
      "r": "0x2462a2c806ef1c97fb96135890c23edd23240a96e954d151183fdf90d2663a6b",
      "s": "0x7111cd1308de552cd9268f97b7b7a9161ac04fcbfe5d622d3b097faf2d97673c",
      "v": 27,
      "creates": null,
      "raw": "0xf87701860111b2345cd38255f0942910543af39aba0cd09dbb2d50200b3e800a63d2891b1ae4d6e2ef50000089454e4a384b484732381ba02462a2c806ef1c97fb96135890c23edd23240a96e954d151183fdf90d2663a6ba07111cd1308de552cd9268f97b7b7a9161ac04fcbfe5d622d3b097faf2d97673c",
      "networkId": 0,
      "chainId": 0
    }
  ]
}