{
  "hash": "0x81f9d45747aa9173a41b7d2b63364e822c0eeb1051ab3d7d5dd547b5b6e85c5e",
  "parentHash": "0x10c4162f7e681d763c9138e0ea4eebda127307e6a4ab9afcefce8ec53d9b1943",
  "number": 121280,
  "timestamp": 1440174492,
  "nonce": "0xf22edd0cc335b6b4",
  "difficulty": 4406360827510,
  "gasLimit": {
    "_hex": "0x2fefd8"
  },
  "gasUsed": {
    "_hex": "0x5208"
  },
  "miner": "0xe6A7a1d47ff21B6321162AEA7C6CB457D5476Bca",
  "extraData": "0xd783010002844765746887676f312e342e32856c696e7578",
  "transactions": [
    {
      "hash": "0x1ce095a188e0adb0ee9033cddc6df3d438a89be10c02f26dcc0272a129c648b6",
      "blockHash": "0x81f9d45747aa9173a41b7d2b63364e822c0eeb1051ab3d7d5dd547b5b6e85c5e",
      "blockNumber": 121280,
      "transactionIndex": 0,
      "confirmations": null,
      "from": "0x32Be343B94f860124dC4fEe278FDCBD38C102D88",
      "gasPrice": {
        "_hex": "0xba43b7400"
      },
      "gasLimit": {
        "_hex": "0x5208"
      },
      "to": "0x867A5221564160c128F2b0EC6b22216c380DdC76",
      "value": {
        "_hex": "0x1234b75ca4b730000"
      },
      "nonce": 1547,
      "data": "0x",
      "r": "0xd2352a64aeda7f5f76d1ad7b58398aded70c0ed26d4f714d3f9614b46f38a0ca",
      "s": "0x37058c1b5044e9f5d4013e0e59cd87a815c3e37f128df401816c9f3d47151074",
      "v": 28,
      "creates": null,
      "raw": "0xf86f82060b850ba43b740082520894867a5221564160c128f2b0ec6b22216c380ddc768901234b75ca4b730000801ca0d2352a64aeda7f5f76d1ad7b58398aded70c0ed26d4f714d3f9614b46f38a0caa037058c1b5044e9f5d4013e0e59cd87a815c3e37f128df401816c9f3d47151074",
      "networkId": 0,
      "chainId": 0
    }
  ]
}