{
  "hash": "0x1b3ec4f6bf65cc42c94c4a6cf1f77a25196c0a0574b9f272292be55f85d12ecd",
  "parentHash": "0x198c28c47d76aae4ae68af233f0fd22b4a641d99ab3100e3d3437e7fd8b40a75",
  "number": 84964,
  "timestamp": 1439556804,
  "nonce": "0xebe5a51f4ef7072e",
  "difficulty": 2705240467346,
  "gasLimit": {
    "_hex": "0x2fefd8"
  },
  "gasUsed": {
    "_hex": "0x5208"
  },
  "miner": "0x4F85e43F44D2B0e6f57C9355806cE3e1B3F40Ab8",
  "extraData": "0x476574682f76312e302e312f6c696e75782f676f312e342e32",
  "transactions": [
    {
      "hash": "0xf732a31bf6b7a4f9eb368747d20d1717e7c6b3362a6af66c6f4deac156fc1ac5",
      "blockHash": "0x1b3ec4f6bf65cc42c94c4a6cf1f77a25196c0a0574b9f272292be55f85d12ecd",
      "blockNumber": 84964,
      "transactionIndex": 0,
      "confirmations": null,
      "from": "0xBFdD9820a04283b289957956353b5F3C1F665EcF",
      "gasPrice": {
        "_hex": "0xda5380b3d"
      },
      "gasLimit": {
        "_hex": "0x5208"
      },
      "to": "0x32Be343B94f860124dC4fEe278FDCBD38C102D88",
      "value": {
        "_hex": "0x455f2749f4efec00"
      },
      "nonce": 38,
      "data": "0x",
      "r": "0x1c7497472941a679ad48cce61773dbcd1222341f6634bbf2e408c93ce1996cc1",
      "s": "0x7730845b29ac258ed0a10f1ffc0401273a236df5bcdce18ee8bba95ef1783d86",
      "v": 27,
      "creates": null,
      "raw": "0xf86c26850da5380b3d8252089432be343b94f860124dc4fee278fdcbd38c102d8888455f2749f4efec00801ba01c7497472941a679ad48cce61773dbcd1222341f6634bbf2e408c93ce1996cc1a07730845b29ac258ed0a10f1ffc0401273a236df5bcdce18ee8bba95ef1783d86",
      "networkId": 0,
      "chainId": 0
    }
  ]
}