{
  "hash": "0x5541840bacf641319de4d400b412bb4d17c4f76859452651da6bb879f1c008ce",
  "parentHash": "0xd81b99148a57691251958d9429b16b4e619f4f7d63b079bf8ff0aee50057da75",
  "number": 117912,
  "timestamp": 1440117432,
  "nonce": "0x182ac84805d3552e",
  "difficulty": 4344028736713,
  "gasLimit": {
    "_hex": "0x2fefd8"
  },
  "gasUsed": {
    "_hex": "0x14820"
  },
  "miner": "0xbb7B8287f3F0a933474a79eAe42CBCa977791171",
  "extraData": "0xd783010003844765746887676f312e342e32856c696e7578",
  "transactions": [
    {
      "hash": "0x15e2f0751c669c468279e0134eccc4b4fcc526b2798a2fa71f0e7e19266f187f",
      "blockHash": "0x5541840bacf641319de4d400b412bb4d17c4f76859452651da6bb879f1c008ce",
      "blockNumber": 117912,
      "transactionIndex": 0,
      "confirmations": null,
      "from": "0x59cC965F1643a68ad7a4272ff1654d4af4343ea7",
      "gasPrice": {
        "_hex": "0xba43b7400"
      },
      "gasLimit": {
        "_hex": "0x5208"
      },
      "to": "0x32Be343B94f860124dC4fEe278FDCBD38C102D88",
      "value": {
        "_hex": "0x2900bdc95e6812000"
      },
      "nonce": 8,
      "data": "0x",
      "r": "0x3d03483ccd0385f226d9324e705cfc78b8671a818fb08d2a739f02aaf248495d",
      "s": "0x1e0b642115f5a9da6b039116991c6531f464c4d81920cc2f7b657e05d24eb59e",
      "v": 28,
      "creates": null,
      "raw": "0xf86d08850ba43b74008252089432be343b94f860124dc4fee278fdcbd38c102d888902900bdc95e6812000801ca03d03483ccd0385f226d9324e705cfc78b8671a818fb08d2a739f02aaf248495da01e0b642115f5a9da6b039116991c6531f464c4d81920cc2f7b657e05d24eb59e",
      "networkId": 0,
      "chainId": 0
    },
    {
      "hash": "0xdaf649ca3d40f80c087ccfbb4b4a636666a29ec80d5b7c5d16a882987e960672",
      "blockHash": "0x5541840bacf641319de4d400b412bb4d17c4f76859452651da6bb879f1c008ce",
      "blockNumber": 117912,
      "transactionIndex": 1,
      "confirmations": null,
      "from": "0x665646727edaAEbB32B5F1A9b4e4F3BD867AA8fB",
      "gasPrice": {
        "_hex": "0xba43b7400"
      },
      "gasLimit": {
        "_hex": "0x5208"
      },
      "to": "0x32Be343B94f860124dC4fEe278FDCBD38C102D88",
      "value": {
        "_hex": "0x11c5ed1b9adf4f000"
      },
      "nonce": 8,
      "data": "0x",
      "r": "0x27aa4a3a1faf230c2f8a1b27b6573fd3ae1012524de638ae27f48b4dc2809b41",
      "s": "0x1169e703306933a726a39aa8b165dd454c68ac4796f50b1d61094bb917aa0676",
      "v": 27,
      "creates": null,
      "raw": "0xf86d08850ba43b74008252089432be343b94f860124dc4fee278fdcbd38c102d8889011c5ed1b9adf4f000801ba027aa4a3a1faf230c2f8a1b27b6573fd3ae1012524de638ae27f48b4dc2809b41a01169e703306933a726a39aa8b165dd454c68ac4796f50b1d61094bb917aa0676",
      "networkId": 0,
      "chainId": 0
    },
    {
      "hash": "0xcc7b6677846b83fe91313cd8ddaff519e503caab6065af5a7a86269e62af8d99",
      "blockHash": "0x5541840bacf641319de4d400b412bb4d17c4f76859452651da6bb879f1c008ce",
      "blockNumber": 117912,
      "transactionIndex": 2,
      "confirmations": null,
      "from": "0x3F6DDbC103F2999640fe4AFc6884708fa691C2b8",
      "gasPrice": {
        "_hex": "0xba43b7400"
      },
      "gasLimit": {
        "_hex": "0x5208"
      },
      "to": "0x32Be343B94f860124dC4fEe278FDCBD38C102D88",
      "value": {
        "_hex": "0x249f57e7dbdaa000"
      },
      "nonce": 8,
      "data": "0x",
      "r": "0x3b8046b3bea45bd5e74c2cd37c83b321fe680c653581fd9cc89658f5c337535b",
      "s": "0x57b21537920873fb537c2e6af12957fbde382e179f006c8179ce5edbc7964435",
      "v": 27,
      "creates": null,
      "raw": "0xf86c08850ba43b74008252089432be343b94f860124dc4fee278fdcbd38c102d8888249f57e7dbdaa000801ba03b8046b3bea45bd5e74c2cd37c83b321fe680c653581fd9cc89658f5c337535ba057b21537920873fb537c2e6af12957fbde382e179f006c8179ce5edbc7964435",
      "networkId": 0,
      "chainId": 0
    },
    {
      "hash": "0xa88584d743c889c9be49eaf5bb15a9c80fca3d187e70f48678af59fafa56d0b7",
      "blockHash": "0x5541840bacf641319de4d400b412bb4d17c4f76859452651da6bb879f1c008ce",
      "blockNumber": 117912,
      "transactionIndex": 3,
      "confirmations": null,
      "from": "0xF2B3F8Eb4e663dA275b8C57fe45A0E8D489Eac2E",
      "gasPrice": {
        "_hex": "0xba43b7400"
      },
      "gasLimit": {
        "_hex": "0x5208"
      },
      "to": "0x32Be343B94f860124dC4fEe278FDCBD38C102D88",
      "value": {
        "_hex": "0x1b7ad5eaa7fa0c00"
      },
      "nonce": 6,
      "data": "0x",
      "r": "0x1c794e4dc2730eefb374e72f72796e06a4fbc5285bc0f2bcf423628f053ce60d",
      "s": "0x02e50126daedbc06d6f5e233ca1b565d103e19aa499b59e50f5ab98d52cc5eea",
      "v": 27,
      "creates": null,
      "raw": "0xf86c06850ba43b74008252089432be343b94f860124dc4fee278fdcbd38c102d88881b7ad5eaa7fa0c00801ba01c794e4dc2730eefb374e72f72796e06a4fbc5285bc0f2bcf423628f053ce60da002e50126daedbc06d6f5e233ca1b565d103e19aa499b59e50f5ab98d52cc5eea",
      "networkId": 0,
      "chainId": 0
    }
  ]
}