{
  "hash": "0xa4ea9e1c3932a89acaec5a8601c295cc4665ec1dd52f955d89c3249f508914bb",
  "parentHash": "0x212c00194d4c6cf6af7950da0db3dfbcda192620b572b05aec8ed7d511a2a21c",
  "number": 86411,
  "timestamp": 1439577729,
  "nonce": "0xaae2d527dd0c1bfe",
  "difficulty": 2897551214660,
  "gasLimit": {
    "_hex": "0x2fefd8"
  },
  "gasUsed": {
    "_hex": "0x5208"
  },
  "miner": "0xC603Ab5ef41fC61AA8b76bEddb09e3Cfcbb174BD",
  "extraData": "0x476574682f76312e302e312f77696e646f77732f676f312e342e32",
  "transactions": [
    {
      "hash": "0xc6f862dcee01b6fc6fdcfc704542a1d8d960dececa4fac413b82e87128d0a42c",
      "blockHash": "0xa4ea9e1c3932a89acaec5a8601c295cc4665ec1dd52f955d89c3249f508914bb",
      "blockNumber": 86411,
      "transactionIndex": 0,
      "confirmations": null,
      "from": "0xB7268c7705A1866b2A78e882fdfDc8E2a4e1428E",
      "gasPrice": {
        "_hex": "0xdb2816147"
      },
      "gasLimit": {
        "_hex": "0x15f90"
      },
      "to": "0x96811Ad897894eC178872117C8BF2f03971A393B",
      "value": {
        "_hex": "0xbe202d6a0eda0000"
      },
      "nonce": 30,
      "data": "0x",
      "r": "0x0a647776c90fe549963820513f85d60573f3abd5a47580c5e57569342c55eb61",
      "s": "0x501112f8f262f2e2d78fa598f69f58b72a24f4ca75e6819323763017f82ac905",
      "v": 28,
      "creates": null,
      "raw": "0xf86d1e850db281614783015f909496811ad897894ec178872117c8bf2f03971a393b88be202d6a0eda0000801ca00a647776c90fe549963820513f85d60573f3abd5a47580c5e57569342c55eb61a0501112f8f262f2e2d78fa598f69f58b72a24f4ca75e6819323763017f82ac905",
      "networkId": 0,
      "chainId": 0
    }
  ]
}