{
  "hash": "0x98266b284353588f674f47fdd91f2e1682dd1b97ecb9f76fe39862b506ab12eb",
  "parentHash": "0xb6d30e493023b7584198c0f2068f09047aa168c981743e9a924fbcd045376a12",
  "number": 110422,
  "timestamp": 1439973516,
  "nonce": "0x047e8d27a937b9da",
  "difficulty": 4377733013630,
  "gasLimit": {
    "_hex": "0x2fefd8"
  },
  "gasUsed": {
    "_hex": "0x5208"
  },
  "miner": "0xe6A7a1d47ff21B6321162AEA7C6CB457D5476Bca",
  "extraData": "0x476574682f76312e302e312d38326566323666362f6c696e75782f676f312e34",
  "transactions": [
    {
      "hash": "0xc47b19e4a921385d68c20ce0f7347a83e83d5a24efd8e2f7daa3463b7c6c55a5",
      "blockHash": "0x98266b284353588f674f47fdd91f2e1682dd1b97ecb9f76fe39862b506ab12eb",
      "blockNumber": 110422,
      "transactionIndex": 0,
      "confirmations": null,
      "from": "0x4Dbfc5Cd4D88480476F951dbCD591396773aE56c",
      "gasPrice": {
        "_hex": "0xd11e8356d"
      },
      "gasLimit": {
        "_hex": "0x5208"
      },
      "to": "0x32Be343B94f860124dC4fEe278FDCBD38C102D88",
      "value": {
        "_hex": "0x1e80ec54e3cbe3000"
      },
      "nonce": 7,
      "data": "0x",
      "r": "0x55a5920c915cc039feb349e5606c341254cc789cb0409f2ca4af1f018e93dc4b",
      "s": "0x7ecf7e876c691ec86bc18b591d2901a8172fe26654612012706a3cc91d1d23e3",
      "v": 27,
      "creates": null,
      "raw": "0xf86d07850d11e8356d8252089432be343b94f860124dc4fee278fdcbd38c102d888901e80ec54e3cbe3000801ba055a5920c915cc039feb349e5606c341254cc789cb0409f2ca4af1f018e93dc4ba07ecf7e876c691ec86bc18b591d2901a8172fe26654612012706a3cc91d1d23e3",
      "networkId": 0,
      "chainId": 0
    }
  ]
}