{
  "hash": "0xe4dd5b13921f9ec3ba8c60054c16225c03b4ebabd0ff7996c7486842058880b2",
  "parentHash": "0x5f2774320031ad8a967996df4eeddfc104acea276f36e1e393f80e2262e3b607",
  "number": 102273,
  "timestamp": 1439835436,
  "nonce": "0x7dea35e8f420e9a4",
  "difficulty": 3941437129837,
  "gasLimit": {
    "_hex": "0x2fefd8"
  },
  "gasUsed": {
    "_hex": "0x5208"
  },
  "miner": "0x5F8F73E26CdF436f19Cb24C82F90A15AFe55b592",
  "extraData": "0x476574682f76312e302e312f77696e646f77732f676f312e342e32",
  "transactions": [
    {
      "hash": "0x3fde9009448fefa4aaa7de715c926b91efb2ce252fe165f03f76299d477ad4f2",
      "blockHash": "0xe4dd5b13921f9ec3ba8c60054c16225c03b4ebabd0ff7996c7486842058880b2",
      "blockNumber": 102273,
      "transactionIndex": 0,
      "confirmations": null,
      "from": "0x01f2c407D48959817C396105d402041EeAfD9090",
      "gasPrice": {
        "_hex": "0xd96a7b36f"
      },
      "gasLimit": {
        "_hex": "0x5208"
      },
      "to": "0x32Be343B94f860124dC4fEe278FDCBD38C102D88",
      "value": {
        "_hex": "0xfc2b8f08e9b72000"
      },
      "nonce": 1,
      "data": "0x",
      "r": "0x9985a8981b759e68d5f092408ab0c6ef1b1e2d3640da233905d5233465a79aa9",
      "s": "0x01fff1c210408c06a8380fd2db712a8a11f89c1032120b564e324f2255acefb8",
      "v": 28,
      "creates": null,
      "raw": "0xf86c01850d96a7b36f8252089432be343b94f860124dc4fee278fdcbd38c102d8888fc2b8f08e9b72000801ca09985a8981b759e68d5f092408ab0c6ef1b1e2d3640da233905d5233465a79aa9a001fff1c210408c06a8380fd2db712a8a11f89c1032120b564e324f2255acefb8",
      "networkId": 0,
      "chainId": 0
    }
  ]
}