{
  "hash": "0xf15e2ce3d6d93bd46f904cdb2f8f92fb2abb48f256f5e68ff17fb1dcfbc776dd",
  "parentHash": "0x973acc58aed5b898042e60c2145b88b747b7ce0a8ae85e3e5ad4e011f397afc5",
  "number": 48058,
  "timestamp": 1438950635,
  "nonce": "0x359358a1635a4e29",
  "difficulty": 1460087762510,
  "gasLimit": {
    "_hex": "0x122de"
  },
  "gasUsed": {
    "_hex": "0xa8d8"
  },
  "miner": "0x4Fb808254480c89d6eD63716Ca6d160Fe02bE66c",
  "extraData": "0x476574682f76312e302e312f6c696e75782f676f312e342e32",
  "transactions": [
    {
      "hash": "0xc78c2c0c1bf876ade5d0ec599fab3479eacf08cb8b609d3605dd93ca4c489516",
      "blockHash": "0xf15e2ce3d6d93bd46f904cdb2f8f92fb2abb48f256f5e68ff17fb1dcfbc776dd",
      "blockNumber": 48058,
      "transactionIndex": 0,
      "confirmations": null,
      "from": "0xd7cF02FADF1681E45227D6eDB3649645B4936EBB",
      "gasPrice": {
        "_hex": "0xd616a6e00"
      },
      "gasLimit": {
        "_hex": "0x55f0"
      },
      "to": "0x2910543Af39abA0Cd09dBb2D50200b3E800A63D2",
      "value": {
        "_hex": "0x4563918244f40000"
      },
      "nonce": 0,
      "data": "0x454e43304244483138",
      "r": "0x3f3302d8286ba37649d6f64759f5c84323ad513bb077198b165b2ad486e555a6",
      "s": "0x0fbd2d373933e8fff47c16e5a7b257fa2a083158db344a89d3e6b0687f9a0555",
      "v": 27,
      "creates": null,
      "raw": "0xf87580850d616a6e008255f0942910543af39aba0cd09dbb2d50200b3e800a63d2884563918244f4000089454e433042444831381ba03f3302d8286ba37649d6f64759f5c84323ad513bb077198b165b2ad486e555a6a00fbd2d373933e8fff47c16e5a7b257fa2a083158db344a89d3e6b0687f9a0555",
      "networkId": 0,
      "chainId": 0
    },
    {
      "hash": "0x04c2e066b381c31713bd6bf49c2d32aee3cab67f463dad28268d09c767ad8112",
      "blockHash": "0xf15e2ce3d6d93bd46f904cdb2f8f92fb2abb48f256f5e68ff17fb1dcfbc776dd",
      "blockNumber": 48058,
      "transactionIndex": 1,
      "confirmations": null,
      "from": "0xC759dc67E0c3816fdC56A2f5bb29920fc07e767D",
      "gasPrice": {
        "_hex": "0xcdacef7ca"
      },
      "gasLimit": {
        "_hex": "0x55f0"
      },
      "to": "0x2910543Af39abA0Cd09dBb2D50200b3E800A63D2",
      "value": {
        "_hex": "0x56bc75e2d63100000"
      },
      "nonce": 4,
      "data": "0x454e444d31394d3552",
      "r": "0xd3ed1cec31e56efb2190e5bb1c3ce610e593ac8b80032bb8e16ed92b1b40f330",
      "s": "0x210f2dc7db703ddb2e82efdb4316fcb42bfd09c0811f0ce461345603d247e328",
      "v": 28,
      "creates": null,
      "raw": "0xf87604850cdacef7ca8255f0942910543af39aba0cd09dbb2d50200b3e800a63d289056bc75e2d6310000089454e444d31394d35521ca0d3ed1cec31e56efb2190e5bb1c3ce610e593ac8b80032bb8e16ed92b1b40f330a0210f2dc7db703ddb2e82efdb4316fcb42bfd09c0811f0ce461345603d247e328",
      "networkId": 0,
      "chainId": 0
    }
  ]
}