{
  "hash": "0xeff6e117e9b325a0f2f6372ee622834b65e83bea57d3e01127df061d30af2978",
  "parentHash": "0x7615dfc05f8785dfba1c034c1e9e65a06f06dca666b529ee6216119d2cd2946f",
  "number": 92601,
  "timestamp": 1439674476,
  "nonce": "0x3f6b06169e43bfef",
  "difficulty": 3547535304805,
  "gasLimit": {
    "_hex": "0x2fefd8"
  },
  "gasUsed": {
    "_hex": "0x5208"
  },
  "miner": "0x77EC9ad4A7E9418774C29415CAaF4Ee0da96eF64",
  "extraData": "0x",
  "transactions": [
    {
      "hash": "0x27b7e316fb02e833aa45950ef2819496bc736fa679cf54bc295bc59bdf0fa94f",
      "blockHash": "0xeff6e117e9b325a0f2f6372ee622834b65e83bea57d3e01127df061d30af2978",
      "blockNumber": 92601,
      "transactionIndex": 0,
      "confirmations": null,
      "from": "0xfc510Dc637540f49bF28D065ea11cA81b5189BaF",
      "gasPrice": {
        "_hex": "0xba43b7400"
      },
      "gasLimit": {
        "_hex": "0x5b04"
      },
      "to": "0x59b8fF676EBC26F9cBCcd044b7531f1a92c14cDC",
      "value": {
        "_hex": "0x16345785d8a0000"
      },
      "nonce": 1,
      "data": "0x",
      "r": "0x7d93f79978078987bd09b8e9f2badcb4d93dbd448f4783784e64089e2c071d2e",
      "s": "0xf52e5593582d4330d20c0ee190d427238c45213dd8daaa473acaacc4d39cd2ea",
      "v": 28,
      "creates": null,
      "raw": "0xf86c01850ba43b7400825b049459b8ff676ebc26f9cbccd044b7531f1a92c14cdc88016345785d8a0000801ca07d93f79978078987bd09b8e9f2badcb4d93dbd448f4783784e64089e2c071d2ea0f52e5593582d4330d20c0ee190d427238c45213dd8daaa473acaacc4d39cd2ea",
      "networkId": 0,
      "chainId": 0
    }
  ]
}