{
  "hash": "0x46578e188d2d1e6ed4655ec4c917c117ee1f4203eeb939f8505c39df844d7fd5",
  "parentHash": "0xc88a7a1201ce6d44e0375f5a279900716642b0fed6ee03aec8674c3aebce49ae",
  "number": 76032,
  "timestamp": 1439413716,
  "nonce": "0x94c7855eaa0bc24c",
  "difficulty": 2240731652796,
  "gasLimit": {
    "_hex": "0x2fefd8"
  },
  "gasUsed": {
    "_hex": "0x546c"
  },
  "miner": "0xf927a40C8B7F6E07c5af7FA2155B4864a4112B13",
  "extraData": "0x",
  "transactions": [
    {
      "hash": "0x154d8925485369d8b49aa05efb71ba194c348c6bbc24186e48edd570247d13b2",
      "blockHash": "0x46578e188d2d1e6ed4655ec4c917c117ee1f4203eeb939f8505c39df844d7fd5",
      "blockNumber": 76032,
      "transactionIndex": 0,
      "confirmations": null,
      "from": "0xE9cAFe41A5E8Bbd90bA02D9e06585B4EB546C57F",
      "gasPrice": {
        "_hex": "0x110c8f7d8de"
      },
      "gasLimit": {
        "_hex": "0xc350"
      },
      "to": "0x2910543Af39abA0Cd09dBb2D50200b3E800A63D2",
      "value": {
        "_hex": "0x6bdf8c7a01458f0000"
      },
      "nonce": 1,
      "data": "0x454e41345138573152",
      "r": "0xf75417011e8922713e4e7146d0f41ddede90badbbc0e3b7d4f9d00c78f7218d9",
      "s": "0xd58ffd09bfc2dddd92d44608520bf6709a400151927e3c7d0c2b8469e71327c1",
      "v": 28,
      "creates": null,
      "raw": "0xf87701860110c8f7d8de82c350942910543af39aba0cd09dbb2d50200b3e800a63d2896bdf8c7a01458f000089454e413451385731521ca0f75417011e8922713e4e7146d0f41ddede90badbbc0e3b7d4f9d00c78f7218d9a0d58ffd09bfc2dddd92d44608520bf6709a400151927e3c7d0c2b8469e71327c1",
      "networkId": 0,
      "chainId": 0
    }
  ]
}