{
  "hash": "0x3e64dfb4c9de4243a4e5a1511e7abce694971c0c06b1191bff60f5310ad45aaa",
  "parentHash": "0x23e8cb25033a46a6b59a728b15964cb26725c3555c1745bf71e8b3fdb89a1ff9",
  "number": 96115,
  "timestamp": 1439735208,
  "nonce": "0x1c13614aca97d6c4",
  "difficulty": 3640792472278,
  "gasLimit": {
    "_hex": "0x2fefd8"
  },
  "gasUsed": {
    "_hex": "0x5208"
  },
  "miner": "0x0037ce3d4B7f8729C8607D8D0248252Be68202c0",
  "extraData": "0x476574682f76312e302e312f77696e646f77732f676f312e342e32",
  "transactions": [
    {
      "hash": "0xef3386d8a9e0e737da02ee9a40bb98d751481e48aae5061df934bfa3495301fd",
      "blockHash": "0x3e64dfb4c9de4243a4e5a1511e7abce694971c0c06b1191bff60f5310ad45aaa",
      "blockNumber": 96115,
      "transactionIndex": 0,
      "confirmations": null,
      "from": "0x120A270bbC009644e35F0bB6ab13f95b8199c4ad",
      "gasPrice": {
        "_hex": "0xd6872cd82"
      },
      "gasLimit": {
        "_hex": "0x3d090"
      },
      "to": "0x162dA3315AB5Bd741b603831ff0eD69656eF1409",
      "value": {
        "_hex": "0xde0b6b3a7640000"
      },
      "nonce": 607,
      "data": "0x",
      "r": "0xd0271e18af5cf5a225f0322761335ac2336363bdb7c6d7e307055f503bc04d69",
      "s": "0x02864c420e20b90404b52543ea7d9e299d1054fc7f9e0b62d9384d3bb95e9ecd",
      "v": 28,
      "creates": null,
      "raw": "0xf86f82025f850d6872cd828303d09094162da3315ab5bd741b603831ff0ed69656ef1409880de0b6b3a7640000801ca0d0271e18af5cf5a225f0322761335ac2336363bdb7c6d7e307055f503bc04d69a002864c420e20b90404b52543ea7d9e299d1054fc7f9e0b62d9384d3bb95e9ecd",
      "networkId": 0,
      "chainId": 0
    }
  ]
}