{
  "hash": "0xcb236285d5f5e5f7a4e3e077a547652a704d1259e507581de1b6f822aae45b1c",
  "parentHash": "0xa1cb08335ea4d7bcd1b4eb3df0a11cce0c4f5301a62a6177a1850298b9e19802",
  "number": 115411,
  "timestamp": 1440056780,
  "nonce": "0x6175e64b335d21eb",
  "difficulty": 4569452127206,
  "gasLimit": {
    "_hex": "0x2fefd8"
  },
  "gasUsed": {
    "_hex": "0xa410"
  },
  "miner": "0xe6A7a1d47ff21B6321162AEA7C6CB457D5476Bca",
  "extraData": "0x476574682f76312e302e312d38326566323666362f6c696e75782f676f312e34",
  "transactions": [
    {
      "hash": "0xcb4c9acfe79d7fa50a527abbcf50bcd26b0ae4f76fb5046dd6aa334d82687ced",
      "blockHash": "0xcb236285d5f5e5f7a4e3e077a547652a704d1259e507581de1b6f822aae45b1c",
      "blockNumber": 115411,
      "transactionIndex": 0,
      "confirmations": null,
      "from": "0x7871C9936A21B89507B5B65C7B13d8216D832D76",
      "gasPrice": {
        "_hex": "0xdac272288"
      },
      "gasLimit": {
        "_hex": "0x15f90"
      },
      "to": "0x108feDb097c1DCfED441480170144D8e19BB217f",
      "value": {
        "_hex": "0x33c86b588434dd18"
      },
      "nonce": 8,
      "data": "0x",
      "r": "0x32e77f5f299092055cc75e5252e137cd1fe797db1c68d4a07959cd7f0e5509da",
      "s": "0x1779b0d1479057c2a541718d5f1afa77c69c4f356b8ac21ad31e72f50430a528",
      "v": 28,
      "creates": null,
      "raw": "0xf86d08850dac27228883015f9094108fedb097c1dcfed441480170144d8e19bb217f8833c86b588434dd18801ca032e77f5f299092055cc75e5252e137cd1fe797db1c68d4a07959cd7f0e5509daa01779b0d1479057c2a541718d5f1afa77c69c4f356b8ac21ad31e72f50430a528",
      "networkId": 0,
      "chainId": 0
    },
    {
      "hash": "0x16d269e17294f976aace5db3b9cdd1cf436a74000e34beabb6a72335a2e494cd",
      "blockHash": "0xcb236285d5f5e5f7a4e3e077a547652a704d1259e507581de1b6f822aae45b1c",
      "blockNumber": 115411,
      "transactionIndex": 1,
      "confirmations": null,
      "from": "0xbA8c9CDA6af013Cc68A076E17c84d4cDbc5960c5",
      "gasPrice": {
        "_hex": "0xd253b5a8c"
      },
      "gasLimit": {
        "_hex": "0x5208"
      },
      "to": "0x32Be343B94f860124dC4fEe278FDCBD38C102D88",
      "value": {
        "_hex": "0xcb6e91fea431f000"
      },
      "nonce": 7,
      "data": "0x",
      "r": "0x38976ed3c3e300df2d01750e092f310929cff8fa602e7a6d3495b2011edb1755",
      "s": "0x318a0e66dc1c559c1d735c09653d33e536a3dc79b5a259c41b2ba42658c46333",
      "v": 28,
      "creates": null,
      "raw": "0xf86c07850d253b5a8c8252089432be343b94f860124dc4fee278fdcbd38c102d8888cb6e91fea431f000801ca038976ed3c3e300df2d01750e092f310929cff8fa602e7a6d3495b2011edb1755a0318a0e66dc1c559c1d735c09653d33e536a3dc79b5a259c41b2ba42658c46333",
      "networkId": 0,
      "chainId": 0
    }
  ]
}