{
  "hash": "0x0311dc58d85f6fcf87c1f209b23a8bcb204df2f8d169e01376cde3f98ce08946",
  "parentHash": "0x7a4595457394b95fbeca729acd1bae9bb824349426a0114f401baf73fef38580",
  "number": 78623,
  "timestamp": 1439456729,
  "nonce": "0xef984042e024cffd",
  "difficulty": 2292041241791,
  "gasLimit": {
    "_hex": "0x2fefd8"
  },
  "gasUsed": {
    "_hex": "0xa410"
  },
  "miner": "0x01d9DA08cc6Fb97c0DE1B6F4C28910A0859Ed1A1",
  "extraData": "0x476574682f76312e302e312f6c696e75782f676f312e342e32",
  "transactions": [
    {
      "hash": "0xb14edcd0ba8547a0b7425cf59789aaf0311be8111fd1da7a2158f23c5205a87c",
      "blockHash": "0x0311dc58d85f6fcf87c1f209b23a8bcb204df2f8d169e01376cde3f98ce08946",
      "blockNumber": 78623,
      "transactionIndex": 0,
      "confirmations": null,
      "from": "0x5a0f0935E8E5591B2f9f2d55f29C626B50292088",
      "gasPrice": {
        "_hex": "0xdea044bfc"
      },
      "gasLimit": {
        "_hex": "0x5208"
      },
      "to": "0x32Be343B94f860124dC4fEe278FDCBD38C102D88",
      "value": {
        "_hex": "0xe7063bc52a3f38000"
      },
      "nonce": 5,
      "data": "0x",
      "r": "0xb28f9480cf4bbc279afbec861304e537e5fc2d2ec08453e613716be15a96ebed",
      "s": "0x5cff224ae559153e5afa6b9a77d13aa42c90a0770aa9367afec9c3e9f723589c",
      "v": 27,
      "creates": null,
      "raw": "0xf86d05850dea044bfc8252089432be343b94f860124dc4fee278fdcbd38c102d88890e7063bc52a3f38000801ba0b28f9480cf4bbc279afbec861304e537e5fc2d2ec08453e613716be15a96ebeda05cff224ae559153e5afa6b9a77d13aa42c90a0770aa9367afec9c3e9f723589c",
      "networkId": 0,
      "chainId": 0
    },
    {
      "hash": "0xeacf4749d2af005efb72a07fb2a0fcfa8ac0c2cb7a1ee134fd22b83471fd27ff",
      "blockHash": "0x0311dc58d85f6fcf87c1f209b23a8bcb204df2f8d169e01376cde3f98ce08946",
      "blockNumber": 78623,
      "transactionIndex": 1,
      "confirmations": null,
      "from": "0xFAc1B5968b6CC27786d1A28c3E360B8c421569B9",
      "gasPrice": {
        "_hex": "0xdea044bfc"
      },
      "gasLimit": {
        "_hex": "0x5208"
      },
      "to": "0x32Be343B94f860124dC4fEe278FDCBD38C102D88",
      "value": {
        "_hex": "0xb6503f559e47a000"
      },
      "nonce": 1,
      "data": "0x",
      "r": "0xc3738c9d2599a87d6b21f7f1a59d3df7b9f881ff79a46cba869c7be9e34704e0",
      "s": "0x59c4ec4f01d7281b0b4cf65620722bfc6cd74c845c87a1cdfa27c0095ca64de9",
      "v": 27,
      "creates": null,
      "raw": "0xf86c01850dea044bfc8252089432be343b94f860124dc4fee278fdcbd38c102d8888b6503f559e47a000801ba0c3738c9d2599a87d6b21f7f1a59d3df7b9f881ff79a46cba869c7be9e34704e0a059c4ec4f01d7281b0b4cf65620722bfc6cd74c845c87a1cdfa27c0095ca64de9",
      "networkId": 0,
      "chainId": 0
    }
  ]
}