{
  "hash": "0xbbad2b061a5ca60be7bd1df8f89c5fae8b00fef5bf895c0509577510e582bb56",
  "parentHash": "0x3f8a3bcdfa0c75e7205e7f1d38a8b66ec1a1e7a9884a0851521798e8a7875cb0",
  "number": 112123,
  "timestamp": 1440002275,
  "nonce": "0xf7c8586b9ddcb585",
  "difficulty": 4383261501992,
  "gasLimit": {
    "_hex": "0x2fefd8"
  },
  "gasUsed": {
    "_hex": "0xf618"
  },
  "miner": "0xe6A7a1d47ff21B6321162AEA7C6CB457D5476Bca",
  "extraData": "0x476574682f76312e302e312d38326566323666362f6c696e75782f676f312e34",
  "transactions": [
    {
      "hash": "0x9671b8296f04692bcb855f761195d24e775e5a83a014b90a828a2614128215ec",
      "blockHash": "0xbbad2b061a5ca60be7bd1df8f89c5fae8b00fef5bf895c0509577510e582bb56",
      "blockNumber": 112123,
      "transactionIndex": 0,
      "confirmations": null,
      "from": "0x8c1B019b926ce92d867317f1460D477729E466F1",
      "gasPrice": {
        "_hex": "0x746a528800"
      },
      "gasLimit": {
        "_hex": "0x5b04"
      },
      "to": "0xF161498A7f225A91C338015ca11833B3399393A8",
      "value": {
        "_hex": "0x901445fe6a1b0000"
      },
      "nonce": 1,
      "data": "0x",
      "r": "0x4a3a946934fdf3426eb8759852821c3746e4791ef99d9a95109ddb5eb90a573d",
      "s": "0xb7d4607801f87589beac8eb6bd4adaa72b2185ddf743ed89797bd6f458167436",
      "v": 28,
      "creates": null,
      "raw": "0xf86c0185746a528800825b0494f161498a7f225a91c338015ca11833b3399393a888901445fe6a1b0000801ca04a3a946934fdf3426eb8759852821c3746e4791ef99d9a95109ddb5eb90a573da0b7d4607801f87589beac8eb6bd4adaa72b2185ddf743ed89797bd6f458167436",
      "networkId": 0,
      "chainId": 0
    },
    {
      "hash": "0xeec07b68370c3c09480a7843453c8d78c7435c1658781ecad24f18ffd1e7bbf6",
      "blockHash": "0xbbad2b061a5ca60be7bd1df8f89c5fae8b00fef5bf895c0509577510e582bb56",
      "blockNumber": 112123,
      "transactionIndex": 1,
      "confirmations": null,
      "from": "0x26163E84886A136fC8034eB4e9F1cc00b1D345f1",
      "gasPrice": {
        "_hex": "0xd7d40ace3"
      },
      "gasLimit": {
        "_hex": "0x15f90"
      },
      "to": "0x6d921977dEFE5f4e0682CA512De1D07b1f4802E1",
      "value": {
        "_hex": "0x1236efcbcbb340000"
      },
      "nonce": 7,
      "data": "0x",
      "r": "0xe55cf2bf569699f9188f170ef27d5a0d72ea5623d04a5502ff7c356ad4e4b59e",
      "s": "0x45670808c7525d69bcd35de867a9808ce9cb5787ea01f927f7237aa29af73318",
      "v": 27,
      "creates": null,
      "raw": "0xf86e07850d7d40ace383015f90946d921977defe5f4e0682ca512de1d07b1f4802e18901236efcbcbb340000801ba0e55cf2bf569699f9188f170ef27d5a0d72ea5623d04a5502ff7c356ad4e4b59ea045670808c7525d69bcd35de867a9808ce9cb5787ea01f927f7237aa29af73318",
      "networkId": 0,
      "chainId": 0
    },
    {
      "hash": "0xca1c137598475f83899a362797eb2a6f214be02c9a645c2ad1393738b4134a46",
      "blockHash": "0xbbad2b061a5ca60be7bd1df8f89c5fae8b00fef5bf895c0509577510e582bb56",
      "blockNumber": 112123,
      "transactionIndex": 2,
      "confirmations": null,
      "from": "0x0cA19A53a3256482A89770FC1daFC7630717F201",
      "gasPrice": {
        "_hex": "0xd1e2c0cda"
      },
      "gasLimit": {
        "_hex": "0x5208"
      },
      "to": "0x32Be343B94f860124dC4fEe278FDCBD38C102D88",
      "value": {
        "_hex": "0x29d8d127f0e4c00"
      },
      "nonce": 9,
      "data": "0x",
      "r": "0x62f19d2f52036b86fa4ccaf3a94368f06d1d12197d460aa29687994ea123cc49",
      "s": "0x3488786dbecfc06f2a421c2518523041220c9f29a71013158af617f15b3ab4e2",
      "v": 28,
      "creates": null,
      "raw": "0xf86c09850d1e2c0cda8252089432be343b94f860124dc4fee278fdcbd38c102d8888029d8d127f0e4c00801ca062f19d2f52036b86fa4ccaf3a94368f06d1d12197d460aa29687994ea123cc49a03488786dbecfc06f2a421c2518523041220c9f29a71013158af617f15b3ab4e2",
      "networkId": 0,
      "chainId": 0
    }
  ]
}