{
  "hash": "0x0d626af5966e7642d5d875d8ee5eadb24915bff0abbfe02fc3283772b1e58fd3",
  "parentHash": "0xec4443a7f6267d2241fd5306c4639c3053eabffd97fc39311cb030f876288d60",
  "number": 46818,
  "timestamp": 1438929643,
  "nonce": "0x9dfa49aa3591be60",
  "difficulty": 1458878226207,
  "gasLimit": {
    "_hex": "0x7b8c"
  },
  "gasUsed": {
    "_hex": "0x5208"
  },
  "miner": "0x3222BA3F3e79eA0e31467EEE7639B57923558cCD",
  "extraData": "0x476574682f76312e302e302f77696e646f77732f676f312e342e32",
  "transactions": [
    {
      "hash": "0x3e522455d53b7d47f28a65eefbfaafb5f549fbb860668f6a8b61dd8dcf475f70",
      "blockHash": "0x0d626af5966e7642d5d875d8ee5eadb24915bff0abbfe02fc3283772b1e58fd3",
      "blockNumber": 46818,
      "transactionIndex": 0,
      "confirmations": null,
      "from": "0x931Ac2444b057f80A06A4FB627f26FFA5CE41184",
      "gasPrice": {
        "_hex": "0xd1512aff9"
      },
      "gasLimit": {
        "_hex": "0x5208"
      },
      "to": "0x32Be343B94f860124dC4fEe278FDCBD38C102D88",
      "value": {
        "_hex": "0xad78a803ef9998000"
      },
      "nonce": 1,
      "data": "0x",
      "r": "0xb3f18c60bfba91e7af38dee97efa32bc17a0c91be2b7cc2e88f44b20eb9111d4",
      "s": "0x500fc571950d21f5abe3005ecafbc4933f83dca752f84180663eedc6728a32d9",
      "v": 27,
      "creates": null,
      "raw": "0xf86d01850d1512aff98252089432be343b94f860124dc4fee278fdcbd38c102d88890ad78a803ef9998000801ba0b3f18c60bfba91e7af38dee97efa32bc17a0c91be2b7cc2e88f44b20eb9111d4a0500fc571950d21f5abe3005ecafbc4933f83dca752f84180663eedc6728a32d9",
      "networkId": 0,
      "chainId": 0
    }
  ]
}