{
  "hash": "0xc232dd1148abe977e756f317ef5b6d05c6b7c0d6c3a45602010e929a2f19dddc",
  "parentHash": "0x9062f8e32e2543f7000462b078beb798eb5f6e88d3d4d8b7975becb885080fb5",
  "number": 103100,
  "timestamp": 1439847682,
  "nonce": "0x35d24a0c64501d70",
  "difficulty": 4176828797937,
  "gasLimit": {
    "_hex": "0x2fefd8"
  },
  "gasUsed": {
    "_hex": "0xa410"
  },
  "miner": "0xe6A7a1d47ff21B6321162AEA7C6CB457D5476Bca",
  "extraData": "0x476574682f76312e302e312d38326566323666362f6c696e75782f676f312e34",
  "transactions": [
    {
      "hash": "0xa77cac375b82f661d030af8f0d24dff1d52e049c326f430984c15d2adb71f8be",
      "blockHash": "0xc232dd1148abe977e756f317ef5b6d05c6b7c0d6c3a45602010e929a2f19dddc",
      "blockNumber": 103100,
      "transactionIndex": 0,
      "confirmations": null,
      "from": "0x9746c7e1ef2bd21FF3997fa467593a89cb852BD0",
      "gasPrice": {
        "_hex": "0xdc0be9146"
      },
      "gasLimit": {
        "_hex": "0x5208"
      },
      "to": "0xB0bF4A71F730782368Ef660FE6D298F432F95450",
      "value": {
        "_hex": "0xad78ebc5ac6200000"
      },
      "nonce": 33,
      "data": "0x",
      "r": "0xf739fb510b9e72069df1087225d89f5a512394d19c12b023e317c60789684c33",
      "s": "0x2085c06d6b06e4ac1df9599d3f51814da5993fb5d91e7c6306590ab1ae5ade65",
      "v": 27,
      "creates": null,
      "raw": "0xf86d21850dc0be914682520894b0bf4a71f730782368ef660fe6d298f432f95450890ad78ebc5ac6200000801ba0f739fb510b9e72069df1087225d89f5a512394d19c12b023e317c60789684c33a02085c06d6b06e4ac1df9599d3f51814da5993fb5d91e7c6306590ab1ae5ade65",
      "networkId": 0,
      "chainId": 0
    },
    {
      "hash": "0x2326a975529898b9d48bc45834b7167861348bbc4f953ff8f997f9edeeb7b38f",
      "blockHash": "0xc232dd1148abe977e756f317ef5b6d05c6b7c0d6c3a45602010e929a2f19dddc",
      "blockNumber": 103100,
      "transactionIndex": 1,
      "confirmations": null,
      "from": "0xa70a9a7040d542C632D8e0bE7c5513A8a5Bbc752",
      "gasPrice": {
        "_hex": "0xd33e3c3e6"
      },
      "gasLimit": {
        "_hex": "0x5208"
      },
      "to": "0x32Be343B94f860124dC4fEe278FDCBD38C102D88",
      "value": {
        "_hex": "0x455f567935e87c00"
      },
      "nonce": 224,
      "data": "0x",
      "r": "0xbdb571fdfbf6b3e57a5f1155cccf2a767f024b2383bdf3aa3dc91e9efd61357b",
      "s": "0x6112031a821f56e56b1c275feee92ad5f7990c7db860098fecc0e4420214d935",
      "v": 27,
      "creates": null,
      "raw": "0xf86d81e0850d33e3c3e68252089432be343b94f860124dc4fee278fdcbd38c102d8888455f567935e87c00801ba0bdb571fdfbf6b3e57a5f1155cccf2a767f024b2383bdf3aa3dc91e9efd61357ba06112031a821f56e56b1c275feee92ad5f7990c7db860098fecc0e4420214d935",
      "networkId": 0,
      "chainId": 0
    }
  ]
}