{
  "hash": "0xf4f8da5aa9e3e56cbbfe9e1c3312ab1ee88945451d789c49dad597787a985c78",
  "parentHash": "0x29a3606b3b34fee5918f7326958b2c6dbbd485f5d1b1c99110f64dfc0978305f",
  "number": 79379,
  "timestamp": 1439468502,
  "nonce": "0x770751a4dd0f6c9d",
  "difficulty": 2353067649938,
  "gasLimit": {
    "_hex": "0x2fefd8"
  },
  "gasUsed": {
    "_hex": "0x5208"
  },
  "miner": "0xee5379D0c1ca47327368027455074C26D9952628",
  "extraData": "0x476574682f76312e302e312d38326566323666362f6c696e75782f676f312e34",
  "transactions": [
    {
      "hash": "0xe20305b8d9e76bf5928a3a9954b2003345b5b800acf7a5dac7427b9b54c6b133",
      "blockHash": "0xf4f8da5aa9e3e56cbbfe9e1c3312ab1ee88945451d789c49dad597787a985c78",
      "blockNumber": 79379,
      "transactionIndex": 0,
      "confirmations": null,
      "from": "0x32Be343B94f860124dC4fEe278FDCBD38C102D88",
      "gasPrice": {
        "_hex": "0xd0fa4e0ad"
      },
      "gasLimit": {
        "_hex": "0x5208"
      },
      "to": "0xDb5c291125C43cE9d5bdc7a48410bf9D34A2Dd31",
      "value": {
        "_hex": "0x72ab7e33448f9800"
      },
      "nonce": 419,
      "data": "0x",
      "r": "0x9277ac68449516721425adbac3c9be5ea0ea8d33b5f157ebc54183097e974ab4",
      "s": "0x007c917b297694278f9ede3fad0a283941c443c0251e1152fc436fd419093a5d",
      "v": 28,
      "creates": null,
      "raw": "0xf86d8201a3850d0fa4e0ad82520894db5c291125c43ce9d5bdc7a48410bf9d34a2dd318872ab7e33448f9800801ca09277ac68449516721425adbac3c9be5ea0ea8d33b5f157ebc54183097e974ab49f7c917b297694278f9ede3fad0a283941c443c0251e1152fc436fd419093a5d",
      "networkId": 0,
      "chainId": 0
    }
  ]
}