{
  "hash": "0x1facb1ee90d77a738633e60ec4739387258b6a85ef5675b89e3cb4f8073034e1",
  "parentHash": "0x32a7dee9ce860d3123e7cf686aa0f1433ebf17a0e98f45876864517a7d03ed5c",
  "number": 59506,
  "timestamp": 1439139329,
  "nonce": "0x6a1763f2a3f419e7",
  "difficulty": 1699700674472,
  "gasLimit": {
    "_hex": "0x2fefcf"
  },
  "gasUsed": {
    "_hex": "0x5208"
  },
  "miner": "0xbb7B8287f3F0a933474a79eAe42CBCa977791171",
  "extraData": "0x476574682f4c5649562f76312e302e312f6c696e75782f676f312e342e32",
  "transactions": [
    {
      "hash": "0x8062b9427c907e5460dd30c0beae8d7068d7218e06ec2d1b84da9fb051a77c0e",
      "blockHash": "0x1facb1ee90d77a738633e60ec4739387258b6a85ef5675b89e3cb4f8073034e1",
      "blockNumber": 59506,
      "transactionIndex": 0,
      "confirmations": null,
      "from": "0xC759dc67E0c3816fdC56A2f5bb29920fc07e767D",
      "gasPrice": {
        "_hex": "0xd295d84c3"
      },
      "gasLimit": {
        "_hex": "0x5208"
      },
      "to": "0x910a4aADabb3A7B3F7879118332E13Da66b68D77",
      "value": {
        "_hex": "0x107ad8f556c6c0000"
      },
      "nonce": 10,
      "data": "0x",
      "r": "0xe2b8e6205ca02672a5fe0c58e1940a6c42f8bd61c8be2e2c8597c96cbca68785",
      "s": "0x42b9ce0cf6e66bfc13b2ec4b0500694033f1a582f87a6b4fc403af55d3fae25e",
      "v": 27,
      "creates": null,
      "raw": "0xf86d0a850d295d84c382520894910a4aadabb3a7b3f7879118332e13da66b68d77890107ad8f556c6c0000801ba0e2b8e6205ca02672a5fe0c58e1940a6c42f8bd61c8be2e2c8597c96cbca68785a042b9ce0cf6e66bfc13b2ec4b0500694033f1a582f87a6b4fc403af55d3fae25e",
      "networkId": 0,
      "chainId": 0
    }
  ]
}