{
  "hash": "0x335c7665fa0f1d724738565428ca907b81d3ba7c1b307b42180212ec43643e47",
  "parentHash": "0x1961416638cf6b354be48c4d4e274ebe8c78d3f7d22d02baa6c3be2c79d3f6de",
  "number": 55143,
  "timestamp": 1439066008,
  "nonce": "0x7294ed5a43d310dc",
  "difficulty": 1637833959863,
  "gasLimit": {
    "_hex": "0x2fefd8"
  },
  "gasUsed": {
    "_hex": "0x267a0c"
  },
  "miner": "0x58fd91e12A6286a450cC61c28b76166212d6862e",
  "extraData": "0x476574682f76312e302e312f77696e646f77732f676f312e342e32",
  "transactions": [
    {
      "hash": "0x838666633447c285d0352140945769801299f33ef5f8fddca2f48e39388814f1",
      "blockHash": "0x335c7665fa0f1d724738565428ca907b81d3ba7c1b307b42180212ec43643e47",
      "blockNumber": 55143,
      "transactionIndex": 0,
      "confirmations": null,
      "from": "0x72D069e30Bd70282AcB6D74c2eBcc089e9C93277",
      "gasPrice": {
        "_hex": "0x9184e72a000"
      },
      "gasLimit": {
        "_hex": "0x994e3"
      },
      "to": "0x2910543Af39abA0Cd09dBb2D50200b3E800A63D2",
      "value": {
        "_hex": "0xde0b6b3a7640000"
      },
      "nonce": 1,
      "data": "0x454e32544635393930",
      "r": "0x92a45bdc51b4028aa7fe01705833195244a42b126e98b6457b8e1b9f482ea02a",
      "s": "0x52ca651d40cb20349781adbcae016c2358d38b45ff6b54f7a3558b81a6455b72",
      "v": 27,
      "creates": null,
      "raw": "0xf877018609184e72a000830994e3942910543af39aba0cd09dbb2d50200b3e800a63d2880de0b6b3a764000089454e325446353939301ba092a45bdc51b4028aa7fe01705833195244a42b126e98b6457b8e1b9f482ea02aa052ca651d40cb20349781adbcae016c2358d38b45ff6b54f7a3558b81a6455b72",
      "networkId": 0,
      "chainId": 0
    },
    {
      "hash": "0xdaf9ce4cae883052d2a43b567a47b01c51c3bb6b5436180b7238ddef3192ae9a",
      "blockHash": "0x335c7665fa0f1d724738565428ca907b81d3ba7c1b307b42180212ec43643e47",
      "blockNumber": 55143,
      "transactionIndex": 1,
      "confirmations": null,
      "from": "0x0ae3F81a67725a8A7758FeB8684c6c17dA20755D",
      "gasPrice": {
        "_hex": "0xd600a1a1c"
      },
      "gasLimit": {
        "_hex": "0x7a120"
      },
      "to": "0x109C4f2CCc82C4d77Bde15F306707320294Aea3F",
      "value": {
        "_hex": "0xde0b6b3a7640000"
      },
      "nonce": 11,
      "data": "0x",
      "r": "0xe36cf6a7ba36c1aa407c06d517683f9aa454e4a8657d902f3e4b91e4df3926ba",
      "s": "0x3f04bb12700c49ccc5e0f47e8094592a73f59940f95c542b4df1cf76b9a26063",
      "v": 27,
      "creates": null,
      "raw": "0xf86d0b850d600a1a1c8307a12094109c4f2ccc82c4d77bde15f306707320294aea3f880de0b6b3a7640000801ba0e36cf6a7ba36c1aa407c06d517683f9aa454e4a8657d902f3e4b91e4df3926baa03f04bb12700c49ccc5e0f47e8094592a73f59940f95c542b4df1cf76b9a26063",
      "networkId": 0,
      "chainId": 0
    },
    {
      "hash": "0x0f7f523f9b9f3afec7865d923297b18765954e5c7b4d96e7331154987cc51552",
      "blockHash": "0x335c7665fa0f1d724738565428ca907b81d3ba7c1b307b42180212ec43643e47",
      "blockNumber": 55143,
      "transactionIndex": 2,
      "confirmations": null,
      "from": "0x0ae3F81a67725a8A7758FeB8684c6c17dA20755D",
      "gasPrice": {
        "_hex": "0xd600a1a1c"
      },
      "gasLimit": {
        "_hex": "0x7a120"
      },
      "to": "0x109C4f2CCc82C4d77Bde15F306707320294Aea3F",
      "value": {
        "_hex": "0xde0b6b3a7640000"
      },
      "nonce": 12,
      "data": "0x",
      "r": "0xd7ef7dbc23d06fe8477c00fbe67338ae4a98115e11082356594bc08acce2a218",
      "s": "0x64429fd2604a2457db95ab55806dbf356727707213cfa70731302e86817f1f30",
      "v": 27,
      "creates": null,
      "raw": "0xf86d0c850d600a1a1c8307a12094109c4f2ccc82c4d77bde15f306707320294aea3f880de0b6b3a7640000801ba0d7ef7dbc23d06fe8477c00fbe67338ae4a98115e11082356594bc08acce2a218a064429fd2604a2457db95ab55806dbf356727707213cfa70731302e86817f1f30",
      "networkId": 0,
      "chainId": 0
    },
    {
      "hash": "0xcee9c0d647382186db73bf7b3015d1f26b0b8132314226edfad1483d481f177d",
      "blockHash": "0x335c7665fa0f1d724738565428ca907b81d3ba7c1b307b42180212ec43643e47",
      "blockNumber": 55143,
      "transactionIndex": 3,
      "confirmations": null,
      "from": "0x0ae3F81a67725a8A7758FeB8684c6c17dA20755D",
      "gasPrice": {
        "_hex": "0xd600a1a1c"
      },
      "gasLimit": {
        "_hex": "0x7a120"
      },
      "to": "0x109C4f2CCc82C4d77Bde15F306707320294Aea3F",
      "value": {
        "_hex": "0xde0b6b3a7640000"
      },
      "nonce": 13,
      "data": "0x",
      "r": "0x80ed38e067def10fadc714e24b07a614f67c9cf1777cf4fd266a587832468499",
      "s": "0x1b75bc94d03a2c27cc167836a9788221e9bbde808d1494c1e1c645df4fa1fa73",
      "v": 28,
      "creates": null,
      "raw": "0xf86d0d850d600a1a1c8307a12094109c4f2ccc82c4d77bde15f306707320294aea3f880de0b6b3a7640000801ca080ed38e067def10fadc714e24b07a614f67c9cf1777cf4fd266a587832468499a01b75bc94d03a2c27cc167836a9788221e9bbde808d1494c1e1c645df4fa1fa73",
      "networkId": 0,
      "chainId": 0
    },
    {
      "hash": "0x38fd8573d37298cae35d3b028f80ee4b118277e3ae091a6c3d6e432267239659",
      "blockHash": "0x335c7665fa0f1d724738565428ca907b81d3ba7c1b307b42180212ec43643e47",
      "blockNumber": 55143,
      "transactionIndex": 4,
      "confirmations": null,
      "from": "0x0ae3F81a67725a8A7758FeB8684c6c17dA20755D",
      "gasPrice": {
        "_hex": "0xd600a1a1c"
      },
      "gasLimit": {
        "_hex": "0x7a120"
      },
      "to": "0x109C4f2CCc82C4d77Bde15F306707320294Aea3F",
      "value": {
        "_hex": "0xde0b6b3a7640000"
      },
      "nonce": 14,
      "data": "0x",
      "r": "0x3b3a36d32198b7b5b9bb32350715f95e5abfc96eab97baf9c0f58df1431c1b12",
      "s": "0x45d6643d53eed5fe0132fcae2bcba6ed269ea49eda76f7a44f639a83731285a1",
      "v": 28,
      "creates": null,
      "raw": "0xf86d0e850d600a1a1c8307a12094109c4f2ccc82c4d77bde15f306707320294aea3f880de0b6b3a7640000801ca03b3a36d32198b7b5b9bb32350715f95e5abfc96eab97baf9c0f58df1431c1b12a045d6643d53eed5fe0132fcae2bcba6ed269ea49eda76f7a44f639a83731285a1",
      "networkId": 0,
      "chainId": 0
    },
    {
      "hash": "0xf17607b7bcca13d70a17e43d73b11ce1ffe6ad0b83017849b043c98d6b48175c",
      "blockHash": "0x335c7665fa0f1d724738565428ca907b81d3ba7c1b307b42180212ec43643e47",
      "blockNumber": 55143,
      "transactionIndex": 5,
      "confirmations": null,
      "from": "0x0ae3F81a67725a8A7758FeB8684c6c17dA20755D",
      "gasPrice": {
        "_hex": "0xd600a1a1c"
      },
      "gasLimit": {
        "_hex": "0x7a120"
      },
      "to": "0x109C4f2CCc82C4d77Bde15F306707320294Aea3F",
      "value": {
        "_hex": "0xde0b6b3a7640000"
      },
      "nonce": 15,
      "data": "0x",
      "r": "0xe31007cf6bd84160840301fcf69b3b968f8227b2114818f868c50b831c0db5d8",
      "s": "0x3dbdb02d02508d1cb94ed12de48c0af3b28d0b0d73349fb7d3b32186c6fba85c",
      "v": 27,
      "creates": null,
      "raw": "0xf86d0f850d600a1a1c8307a12094109c4f2ccc82c4d77bde15f306707320294aea3f880de0b6b3a7640000801ba0e31007cf6bd84160840301fcf69b3b968f8227b2114818f868c50b831c0db5d8a03dbdb02d02508d1cb94ed12de48c0af3b28d0b0d73349fb7d3b32186c6fba85c",
      "networkId": 0,
      "chainId": 0
    }
  ]
}