{
  "hash": "0x594e49b92010b10c79b59143612fd5a79a12619f82f334ca9c2433a40d2dd305",
  "parentHash": "0xb1a488cd2421f4d652066e19367fcba892158507a6d395d453a112bfe2ded25a",
  "number": 101407,
  "timestamp": 1439822608,
  "nonce": "0x79d22659a7db0637",
  "difficulty": 3831775723340,
  "gasLimit": {
    "_hex": "0x2fefd8"
  },
  "gasUsed": {
    "_hex": "0x546c"
  },
  "miner": "0x9D49F602b0fdb924Bd63DDE2Bd0907E4A07c63a7",
  "extraData": "0x476574682f76312e302e312f6c696e75782f676f312e342e32",
  "transactions": [
    {
      "hash": "0x725f720dabb72caa0bd0851d7c7d153f57a27af20eef821b909bd56a251a4413",
      "blockHash": "0x594e49b92010b10c79b59143612fd5a79a12619f82f334ca9c2433a40d2dd305",
      "blockNumber": 101407,
      "transactionIndex": 0,
      "confirmations": null,
      "from": "0x426259B0A756701a8B663528522156C0288f0F24",
      "gasPrice": {
        "_hex": "0x110c8f7d8de"
      },
      "gasLimit": {
        "_hex": "0xc350"
      },
      "to": "0x2910543Af39abA0Cd09dBb2D50200b3E800A63D2",
      "value": {
        "_hex": "0xd8d726b7177a800000"
      },
      "nonce": 0,
      "data": "0x454e384e4246514d52",
      "r": "0x049170d4ed48a0f1559fb80a97a9606bc2c06ed78515b2a0e5d86e655b4be95f",
      "s": "0x82fb77dfc9b1480fdacdf99d5762313b330425b6512b72aa03ea03dbf7154485",
      "v": 28,
      "creates": null,
      "raw": "0xf87780860110c8f7d8de82c350942910543af39aba0cd09dbb2d50200b3e800a63d289d8d726b7177a80000089454e384e4246514d521ca0049170d4ed48a0f1559fb80a97a9606bc2c06ed78515b2a0e5d86e655b4be95fa082fb77dfc9b1480fdacdf99d5762313b330425b6512b72aa03ea03dbf7154485",
      "networkId": 0,
      "chainId": 0
    }
  ]
}