{
  "hash": "0xafacbbf065a9cb1ef0b1e301b4c6fb8f13567e39710f1e81fcc9839e2661528d",
  "parentHash": "0xe7b820a5af1936b54d9c060ef93a3fa4fed94e9f35c393862e8cee8329b49b1b",
  "number": 102754,
  "timestamp": 1439842702,
  "nonce": "0xa20b37e3ff18c1c5",
  "difficulty": 4040588770459,
  "gasLimit": {
    "_hex": "0x2fefd8"
  },
  "gasUsed": {
    "_hex": "0xa410"
  },
  "miner": "0x9D49F602b0fdb924Bd63DDE2Bd0907E4A07c63a7",
  "extraData": "0x476574682f76312e302e312f6c696e75782f676f312e342e32",
  "transactions": [
    {
      "hash": "0x264ea83ed3d1c3938245524d498d354739fbf4ed38f25fb3cc2f17782fb0c2de",
      "blockHash": "0xafacbbf065a9cb1ef0b1e301b4c6fb8f13567e39710f1e81fcc9839e2661528d",
      "blockNumber": 102754,
      "transactionIndex": 0,
      "confirmations": null,
      "from": "0x120A270bbC009644e35F0bB6ab13f95b8199c4ad",
      "gasPrice": {
        "_hex": "0xdf6107d79"
      },
      "gasLimit": {
        "_hex": "0x3d090"
      },
      "to": "0xCA092A957744f6385B1aee5dC694143E8A06F805",
      "value": {
        "_hex": "0x53e5be7d41ddc00"
      },
      "nonce": 705,
      "data": "0x",
      "r": "0x051dc1424ec2de7f59aa1bcf54ec2ab2380db93d99c33a61d5e156175d895158",
      "s": "0x19c0605722dc06d5de7fe364946e0dd4446900569c24892e92dc2291eef87fbd",
      "v": 28,
      "creates": null,
      "raw": "0xf86f8202c1850df6107d798303d09094ca092a957744f6385b1aee5dc694143e8a06f80588053e5be7d41ddc00801ca0051dc1424ec2de7f59aa1bcf54ec2ab2380db93d99c33a61d5e156175d895158a019c0605722dc06d5de7fe364946e0dd4446900569c24892e92dc2291eef87fbd",
      "networkId": 0,
      "chainId": 0
    },
    {
      "hash": "0xbb444adfd8f389e4d7c84ee1e1287af18bbc44a63980058a39dbe50010af2cd0",
      "blockHash": "0xafacbbf065a9cb1ef0b1e301b4c6fb8f13567e39710f1e81fcc9839e2661528d",
      "blockNumber": 102754,
      "transactionIndex": 1,
      "confirmations": null,
      "from": "0x32Be343B94f860124dC4fEe278FDCBD38C102D88",
      "gasPrice": {
        "_hex": "0xd00271ee5"
      },
      "gasLimit": {
        "_hex": "0x5208"
      },
      "to": "0x8378f6e5447D7C2A6069e070afe3fb2703251b94",
      "value": {
        "_hex": "0x6e9b20c5ebdd0000"
      },
      "nonce": 1112,
      "data": "0x",
      "r": "0x7dbe3ae50b946ee78e39e7986f3b4f262f3634f4298c51100a00785928e621a0",
      "s": "0x65fd76a483e2414e01bfe5a20e1c3f3f690b3b7890d53969979c1060ab74fe57",
      "v": 28,
      "creates": null,
      "raw": "0xf86e820458850d00271ee5825208948378f6e5447d7c2a6069e070afe3fb2703251b94886e9b20c5ebdd0000801ca07dbe3ae50b946ee78e39e7986f3b4f262f3634f4298c51100a00785928e621a0a065fd76a483e2414e01bfe5a20e1c3f3f690b3b7890d53969979c1060ab74fe57",
      "networkId": 0,
      "chainId": 0
    }
  ]
}