{
  "hash": "0x52318e026a8f35097c775f090c971a8b9a65c11a6d8ac148cd09d0d8204b0999",
  "parentHash": "0x14f37b589de147fd2af0a34f129f1ebbb4666d039b195efee2b328a49ee02892",
  "number": 98627,
  "timestamp": 1439776236,
  "nonce": "0x39657d05de7cd79a",
  "difficulty": 3840539525259,
  "gasLimit": {
    "_hex": "0x2fefd8"
  },
  "gasUsed": {
    "_hex": "0xa410"
  },
  "miner": "0x79d5794171E11dd5C2f0e26E1C187319db2FE6f7",
  "extraData": "0x",
  "transactions": [
    {
      "hash": "0xd44c575ff11443b2f5c3e269805bc62d02e716394c9d6bf945ab827b53fbb724",
      "blockHash": "0x52318e026a8f35097c775f090c971a8b9a65c11a6d8ac148cd09d0d8204b0999",
      "blockNumber": 98627,
      "transactionIndex": 0,
      "confirmations": null,
      "from": "0xd70c667add50d3d9989Ef58A81a698c09f415Bff",
      "gasPrice": {
        "_hex": "0xdf5f2f86b"
      },
      "gasLimit": {
        "_hex": "0x15f90"
      },
      "to": "0x86d3856ad0105B9d4199936c1fd203664BA325dC",
      "value": {
        "_hex": "0x33590a6584f20000"
      },
      "nonce": 9,
      "data": "0x",
      "r": "0xe86cdf6af78e59f2b89db384ba4a841da33d4df3a21a82199f12acbf94c2a3f8",
      "s": "0x0ac7ba580cc35b0a06f6036c235abdcd6e39e7f59c6886cbbb4761e574f8adeb",
      "v": 27,
      "creates": null,
      "raw": "0xf86d09850df5f2f86b83015f909486d3856ad0105b9d4199936c1fd203664ba325dc8833590a6584f20000801ba0e86cdf6af78e59f2b89db384ba4a841da33d4df3a21a82199f12acbf94c2a3f8a00ac7ba580cc35b0a06f6036c235abdcd6e39e7f59c6886cbbb4761e574f8adeb",
      "networkId": 0,
      "chainId": 0
    },
    {
      "hash": "0x0e24cc124cb7b252d2e659dd4ce4fd7e0bfb49b21bc591ef6e9609a9e082b511",
      "blockHash": "0x52318e026a8f35097c775f090c971a8b9a65c11a6d8ac148cd09d0d8204b0999",
      "blockNumber": 98627,
      "transactionIndex": 1,
      "confirmations": null,
      "from": "0x5F28bcc5faFC8982536A9e4be559657998CdE1E3",
      "gasPrice": {
        "_hex": "0xba43b7400"
      },
      "gasLimit": {
        "_hex": "0x5208"
      },
      "to": "0xC47Aaa860008be6f65B58c6C6E02a84e666EfE31",
      "value": {
        "_hex": "0x12a1a0fe2ec63c8f0"
      },
      "nonce": 17,
      "data": "0x",
      "r": "0x73cca2e36a877ea16d80a32ee1b82a001f6e741bf6a253706ee8af4f019f5f62",
      "s": "0x5cb9134f4429496dd0a2a2091876d88c99b25b5af29c00fd28e162f10b427cd6",
      "v": 27,
      "creates": null,
      "raw": "0xf86d11850ba43b740082520894c47aaa860008be6f65b58c6c6e02a84e666efe3189012a1a0fe2ec63c8f0801ba073cca2e36a877ea16d80a32ee1b82a001f6e741bf6a253706ee8af4f019f5f62a05cb9134f4429496dd0a2a2091876d88c99b25b5af29c00fd28e162f10b427cd6",
      "networkId": 0,
      "chainId": 0
    }
  ]
}