{
  "hash": "0x911457fe7af46ac2c77bda841aee58fd1e051cfbe20aa858dc99e4959f1233ff",
  "parentHash": "0x67056c802eea8d5824fb727e8ec28ae62723e110bc9b5d433a65116abdf27f96",
  "number": 111317,
  "timestamp": 1439988072,
  "nonce": "0xbcd0a7e38434762e",
  "difficulty": 4431026857583,
  "gasLimit": {
    "_hex": "0x2fefd8"
  },
  "gasUsed": {
    "_hex": "0xf618"
  },
  "miner": "0xa50ec0D39fa913E62f1Bae7074E6F36caA71855b",
  "extraData": "0xd783010001844765746887676f312e342e32856c696e7578",
  "transactions": [
    {
      "hash": "0x3d5abd37ef026f2407dc940b704e4cbeca9b5ac8a60feebd014511a1ff2a8e1f",
      "blockHash": "0x911457fe7af46ac2c77bda841aee58fd1e051cfbe20aa858dc99e4959f1233ff",
      "blockNumber": 111317,
      "transactionIndex": 0,
      "confirmations": null,
      "from": "0x2910543Af39abA0Cd09dBb2D50200b3E800A63D2",
      "gasPrice": {
        "_hex": "0xd83fef6b2"
      },
      "gasLimit": {
        "_hex": "0x5208"
      },
      "to": "0xfbB5F5B2Dd4e470E131C6F275bEAE4fbE36cf104",
      "value": {
        "_hex": "0xa1decada8fc692000"
      },
      "nonce": 1094,
      "data": "0x",
      "r": "0x5f5c1910644473f704d5b018a957c136e2111165bbc5f1b84ccbf0746830a17e",
      "s": "0x6e6a2ab0f565c2290ee567de145953d60c1a7b37baa06ed332d316e64866a5c3",
      "v": 28,
      "creates": null,
      "raw": "0xf86f820446850d83fef6b282520894fbb5f5b2dd4e470e131c6f275beae4fbe36cf104890a1decada8fc692000801ca05f5c1910644473f704d5b018a957c136e2111165bbc5f1b84ccbf0746830a17ea06e6a2ab0f565c2290ee567de145953d60c1a7b37baa06ed332d316e64866a5c3",
      "networkId": 0,
      "chainId": 0
    },
    {
      "hash": "0x7a7c50a1adf6662d5da75867255405022cd650a3fdfe6ed770875b0df6fdd9d5",
      "blockHash": "0x911457fe7af46ac2c77bda841aee58fd1e051cfbe20aa858dc99e4959f1233ff",
      "blockNumber": 111317,
      "transactionIndex": 1,
      "confirmations": null,
      "from": "0x056507108FE6d30189EcCD6cd7F4Fad56eEef622",
      "gasPrice": {
        "_hex": "0xd035a3937"
      },
      "gasLimit": {
        "_hex": "0x15f90"
      },
      "to": "0x0cA19A53a3256482A89770FC1daFC7630717F201",
      "value": {
        "_hex": "0x884303d4382aadd8"
      },
      "nonce": 17,
      "data": "0x",
      "r": "0x88e8b0e3273484f19755b5e1ac55a5fc415469b9f34e2f73ef6093e2db297422",
      "s": "0x28c4a7621f4e52e97c77d3721991fe9b944993b7e4cf2fa0f08b7b154cd8cd0a",
      "v": 28,
      "creates": null,
      "raw": "0xf86d11850d035a393783015f90940ca19a53a3256482a89770fc1dafc7630717f20188884303d4382aadd8801ca088e8b0e3273484f19755b5e1ac55a5fc415469b9f34e2f73ef6093e2db297422a028c4a7621f4e52e97c77d3721991fe9b944993b7e4cf2fa0f08b7b154cd8cd0a",
      "networkId": 0,
      "chainId": 0
    },
    {
      "hash": "0xb4cd5c210e53bfeb0e9f72f7e4f9411af3a314d040ffa90c6c6e837637e68231",
      "blockHash": "0x911457fe7af46ac2c77bda841aee58fd1e051cfbe20aa858dc99e4959f1233ff",
      "blockNumber": 111317,
      "transactionIndex": 2,
      "confirmations": null,
      "from": "0x1454Fe62A285aEBa20F1c08fD413f6A95e5199eD",
      "gasPrice": {
        "_hex": "0xcb74db415"
      },
      "gasLimit": {
        "_hex": "0x15f90"
      },
      "to": "0x1177848589133f5C4E69EdFcb18bBCd9cACE72D1",
      "value": {
        "_hex": "0x470de4df820000"
      },
      "nonce": 0,
      "data": "0x",
      "r": "0xc78d3cf8e63fc490ec80c8792f4490a707e19ed96e382a7c74437cd8bd25f108",
      "s": "0x327d2d4021db8dc99c477035713f719e3401f3aa9d6d92d705238aa777fcbafe",
      "v": 27,
      "creates": null,
      "raw": "0xf86c80850cb74db41583015f90941177848589133f5c4e69edfcb18bbcd9cace72d187470de4df820000801ba0c78d3cf8e63fc490ec80c8792f4490a707e19ed96e382a7c74437cd8bd25f108a0327d2d4021db8dc99c477035713f719e3401f3aa9d6d92d705238aa777fcbafe",
      "networkId": 0,
      "chainId": 0
    }
  ]
}