{
  "hash": "0x43113f9c7c8d0db75b2f5f9c6915caa8ff0a25ebda34ee75a33b59aa244fcd51",
  "parentHash": "0x38e0c8f4f130dea3f55c5080b1238a7f5e28779638af9d5a2182fc14fd5c2fd9",
  "number": 90437,
  "timestamp": 1439640025,
  "nonce": "0x212602615c2d96b5",
  "difficulty": 3330207063992,
  "gasLimit": {
    "_hex": "0x2fefd8"
  },
  "gasUsed": {
    "_hex": "0xa8d8"
  },
  "miner": "0xe6A7a1d47ff21B6321162AEA7C6CB457D5476Bca",
  "extraData": "0x476574682f76312e302e312d38326566323666362f6c696e75782f676f312e34",
  "transactions": [
    {
      "hash": "0x0ae2aa8e8fc269f8eeb0653ec1ef07233d69dd5b57e7a051bff342d284736fae",
      "blockHash": "0x43113f9c7c8d0db75b2f5f9c6915caa8ff0a25ebda34ee75a33b59aa244fcd51",
      "blockNumber": 90437,
      "transactionIndex": 0,
      "confirmations": null,
      "from": "0x6CE13F1816a2cFab76C59714291Cb8403CbBB3D8",
      "gasPrice": {
        "_hex": "0xd3d37f23a"
      },
      "gasLimit": {
        "_hex": "0x55f0"
      },
      "to": "0x2910543Af39abA0Cd09dBb2D50200b3E800A63D2",
      "value": {
        "_hex": "0x16345785d8a0000"
      },
      "nonce": 7,
      "data": "0x454e454130344d4138",
      "r": "0x94d17d2c6301ee3128e09c33724280e027d025fc37bc0b767223f7304bd3bad9",
      "s": "0x552ba1809b060d2688dbbadb0becb490bc4d0960dbaa335fdf576ecf2a073e2f",
      "v": 27,
      "creates": null,
      "raw": "0xf87507850d3d37f23a8255f0942910543af39aba0cd09dbb2d50200b3e800a63d288016345785d8a000089454e454130344d41381ba094d17d2c6301ee3128e09c33724280e027d025fc37bc0b767223f7304bd3bad9a0552ba1809b060d2688dbbadb0becb490bc4d0960dbaa335fdf576ecf2a073e2f",
      "networkId": 0,
      "chainId": 0
    },
    {
      "hash": "0x5f8bdb9257acc071bd7f03d7c58caf5e0f14b27ec351e0f12a06c36eb37ff452",
      "blockHash": "0x43113f9c7c8d0db75b2f5f9c6915caa8ff0a25ebda34ee75a33b59aa244fcd51",
      "blockNumber": 90437,
      "transactionIndex": 1,
      "confirmations": null,
      "from": "0x6CE13F1816a2cFab76C59714291Cb8403CbBB3D8",
      "gasPrice": {
        "_hex": "0xd3d37f23a"
      },
      "gasLimit": {
        "_hex": "0x55f0"
      },
      "to": "0x2910543Af39abA0Cd09dBb2D50200b3E800A63D2",
      "value": {
        "_hex": "0x16345785d8a0000"
      },
      "nonce": 8,
      "data": "0x454e454130344d4138",
      "r": "0xfdf0fbb234419cc75ae0c26dc814161be09dac6f201d1c4f2bf702b9e059d6f8",
      "s": "0x01a9c0a3eadd220b59617c4c2d8e20e4083117dc85e257d9effa402f0ad6a954",
      "v": 28,
      "creates": null,
      "raw": "0xf87508850d3d37f23a8255f0942910543af39aba0cd09dbb2d50200b3e800a63d288016345785d8a000089454e454130344d41381ca0fdf0fbb234419cc75ae0c26dc814161be09dac6f201d1c4f2bf702b9e059d6f8a001a9c0a3eadd220b59617c4c2d8e20e4083117dc85e257d9effa402f0ad6a954",
      "networkId": 0,
      "chainId": 0
    }
  ]
}