{
  "hash": "0x8d4f4b2b230b55fde91bb7f43b402cb2117fb61de7fa82a851a4e9c616fef02f",
  "parentHash": "0xf7ed7c19c84fb08831815c5d5bd0ecbc2e7c5328c35cbd82f812f845f24d7912",
  "number": 110015,
  "timestamp": 1439966610,
  "nonce": "0x131a159b1a4d2ea7",
  "difficulty": 4397226773165,
  "gasLimit": {
    "_hex": "0x2fefd5"
  },
  "gasUsed": {
    "_hex": "0x546c"
  },
  "miner": "0xa50ec0D39fa913E62f1Bae7074E6F36caA71855b",
  "extraData": "0xd783010001844765746887676f312e342e32856c696e7578",
  "transactions": [
    {
      "hash": "0x9c88a2660fd8d2e7eee2924643ca0046a37ea3ff971029066087519f334f86e0",
      "blockHash": "0x8d4f4b2b230b55fde91bb7f43b402cb2117fb61de7fa82a851a4e9c616fef02f",
      "blockNumber": 110015,
      "transactionIndex": 0,
      "confirmations": null,
      "from": "0xc42333fFCaB0a62138cf32808723Db35bB9dC45b",
      "gasPrice": {
        "_hex": "0xba43b7400"
      },
      "gasLimit": {
        "_hex": "0x55f0"
      },
      "to": "0xeeb66aFe554366d685C7832C6c93727Ba577378D",
      "value": {
        "_hex": "0x1"
      },
      "nonce": 0,
      "data": "0x454e453057334a5a38",
      "r": "0x69b2fb3c191714625807b21e39c3bf56fb3199d31084ea14391a6bb49c1aa7e9",
      "s": "0x3110346021270b1a0c628c114ac474538b7ef0a089ceda2e5fd0e1118a5257c3",
      "v": 28,
      "creates": null,
      "raw": "0xf86d80850ba43b74008255f094eeb66afe554366d685c7832c6c93727ba577378d0189454e453057334a5a381ca069b2fb3c191714625807b21e39c3bf56fb3199d31084ea14391a6bb49c1aa7e9a03110346021270b1a0c628c114ac474538b7ef0a089ceda2e5fd0e1118a5257c3",
      "networkId": 0,
      "chainId": 0
    }
  ]
}