{
  "hash": "0x8144db52efcca9388400fe23420a960cb49dbafb5a90689dbf2bf836a0566dca",
  "parentHash": "0x15c24c6cd5e8aa16f5935575bd2a1f279bafc035bd2eb912c6911c312db3c184",
  "number": 107391,
  "timestamp": 1439921676,
  "nonce": "0x58144f4eb716d04e",
  "difficulty": 4398602463773,
  "gasLimit": {
    "_hex": "0x2fefd8"
  },
  "gasUsed": {
    "_hex": "0x546c"
  },
  "miner": "0x8Ab68e66cBE9f38Ad5C330a6B888DbC73788254A",
  "extraData": "0xda8098302e392e34302b2b302d524c696e75782f672b2b2f696e74",
  "transactions": [
    {
      "hash": "0xf6b264b8e1326df2281d8e7fd54f9e9c7342da78842a85bed94c2f5619237514",
      "blockHash": "0x8144db52efcca9388400fe23420a960cb49dbafb5a90689dbf2bf836a0566dca",
      "blockNumber": 107391,
      "transactionIndex": 0,
      "confirmations": null,
      "from": "0x2c640E5e3DE20DECa76ee10c5Fd6ECd074EFb3e8",
      "gasPrice": {
        "_hex": "0xd130f841e"
      },
      "gasLimit": {
        "_hex": "0x7530"
      },
      "to": "0x2910543Af39abA0Cd09dBb2D50200b3E800A63D2",
      "value": {
        "_hex": "0x9b41fbf9e0aec0000"
      },
      "nonce": 2,
      "data": "0x454e3651304d384252",
      "r": "0x0f261eef3dd548a736ebb726314b33e0a070a734057a477b782dd60f192830f8",
      "s": "0x2216ac3898c42512fe9eb09de53b58f92201fe72a026b89436183992b0bbf166",
      "v": 27,
      "creates": null,
      "raw": "0xf87602850d130f841e827530942910543af39aba0cd09dbb2d50200b3e800a63d28909b41fbf9e0aec000089454e3651304d3842521ba00f261eef3dd548a736ebb726314b33e0a070a734057a477b782dd60f192830f8a02216ac3898c42512fe9eb09de53b58f92201fe72a026b89436183992b0bbf166",
      "networkId": 0,
      "chainId": 0
    }
  ]
}