{
  "hash": "0xb2672cc7ae1ae6868bcc6fa0059b2d2005edff6365be5d0273451dea748f9224",
  "parentHash": "0xdb403a00878b3f3a52396196a06366772d1133440c7f4a0ddbf59b36315812f8",
  "number": 53100,
  "timestamp": 1439032398,
  "nonce": "0xe9a290bc913377f9",
  "difficulty": 1576242634516,
  "gasLimit": {
    "_hex": "0x1f89af"
  },
  "gasUsed": {
    "_hex": "0x5b0a"
  },
  "miner": "0x785ffdDd5cE55c6DF963f345e68d3F2024E5Acb1",
  "extraData": "0x476574682f4d69676e6f7474652f76312e302e312f6c696e75782f676f312e34",
  "transactions": [
    {
      "hash": "0x6756d9e15741bfb02c478c256d772e25b1f8db2da377408b3746e54dacceae02",
      "blockHash": "0xb2672cc7ae1ae6868bcc6fa0059b2d2005edff6365be5d0273451dea748f9224",
      "blockNumber": 53100,
      "transactionIndex": 0,
      "confirmations": null,
      "from": "0x4b0C6F0297CEe4B551B6fab3277067B64B238990",
      "gasPrice": {
        "_hex": "0x10c998b9a43"
      },
      "gasLimit": {
        "_hex": "0x15f90"
      },
      "to": "0x33e98638ea7F2C2fd83731528fb53802Af395D13",
      "value": {
        "_hex": "0x0"
      },
      "nonce": 4,
      "data": "0x90b98a11000000000000000000000000258091741a3ab6ddd5e304ea6b9eff060badb8bf00000000000000000000000000000000000000000000000000000000000003e8",
      "r": "0xb0cfeb865f6d731db9a7ecacd29db940ad524f12a2d8fae62d0ebdaa35d5694b",
      "s": "0x4f11a6dcea7a8bfd93e316feb5bdd6ea2ffc27e0f15530eb9f45e4d93d30328b",
      "v": 27,
      "creates": null,
      "raw": "0xf8ab0486010c998b9a4383015f909433e98638ea7f2c2fd83731528fb53802af395d1380b84490b98a11000000000000000000000000258091741a3ab6ddd5e304ea6b9eff060badb8bf00000000000000000000000000000000000000000000000000000000000003e81ba0b0cfeb865f6d731db9a7ecacd29db940ad524f12a2d8fae62d0ebdaa35d5694ba04f11a6dcea7a8bfd93e316feb5bdd6ea2ffc27e0f15530eb9f45e4d93d30328b",
      "networkId": 0,
      "chainId": 0
    }
  ]
}