{
  "hash": "0xd9c7d612dbcb4480063cf2a76c9f319762993c4343717645016b0a7c10044830",
  "parentHash": "0x8415ded59da3718df2e03cc2df12e1748c07cd9a465cfc65ceacf76a186c5273",
  "number": 110260,
  "timestamp": 1439970655,
  "nonce": "0xabc87e6cc4691378",
  "difficulty": 4382094857807,
  "gasLimit": {
    "_hex": "0x2fefd8"
  },
  "gasUsed": {
    "_hex": "0x5208"
  },
  "miner": "0xe6A7a1d47ff21B6321162AEA7C6CB457D5476Bca",
  "extraData": "0x476574682f76312e302e312d38326566323666362f6c696e75782f676f312e34",
  "transactions": [
    {
      "hash": "0xc3f99935306740d07e76630ca2897ae3f0e40da7f66f7e54e6787d1187005b65",
      "blockHash": "0xd9c7d612dbcb4480063cf2a76c9f319762993c4343717645016b0a7c10044830",
      "blockNumber": 110260,
      "transactionIndex": 0,
      "confirmations": null,
      "from": "0xbd4937d0D4B8028BbeF37193be765cf34082FAD2",
      "gasPrice": {
        "_hex": "0xba43b7400"
      },
      "gasLimit": {
        "_hex": "0x7530"
      },
      "to": "0xeeb66aFe554366d685C7832C6c93727Ba577378D",
      "value": {
        "_hex": "0x40d9d4bdcb668000"
      },
      "nonce": 0,
      "data": "0x",
      "r": "0x69e68773d2ba37d33b95784aab754423fdba9d41721ff5cbfe04afa36e58e963",
      "s": "0x658d172647830c7b88e7f1d62dfc80bd76c5d1688a0660e10c5c43f1ad1039a1",
      "v": 27,
      "creates": null,
      "raw": "0xf86c80850ba43b740082753094eeb66afe554366d685c7832c6c93727ba577378d8840d9d4bdcb668000801ba069e68773d2ba37d33b95784aab754423fdba9d41721ff5cbfe04afa36e58e963a0658d172647830c7b88e7f1d62dfc80bd76c5d1688a0660e10c5c43f1ad1039a1",
      "networkId": 0,
      "chainId": 0
    }
  ]
}