{
  "hash": "0xf7184d038f7cb4aa9788952a80a437f67d1cfba26f9c5848d36e844e7801a39a",
  "parentHash": "0x0c274423a93432d9abfa41e2da653129c58b8867a5d52826d679cbcad6d3e75a",
  "number": 84399,
  "timestamp": 1439549110,
  "nonce": "0x3f7fd8fb168e0329",
  "difficulty": 2562693710428,
  "gasLimit": {
    "_hex": "0x2fefd8"
  },
  "gasUsed": {
    "_hex": "0x5208"
  },
  "miner": "0xe6A7a1d47ff21B6321162AEA7C6CB457D5476Bca",
  "extraData": "0x476574682f76312e302e312d38326566323666362f6c696e75782f676f312e34",
  "transactions": [
    {
      "hash": "0x28e2ff3b2d5f825e1dfbecbeebe2a36a426c3a06549dbf7ad09d7056cc897ffc",
      "blockHash": "0xf7184d038f7cb4aa9788952a80a437f67d1cfba26f9c5848d36e844e7801a39a",
      "blockNumber": 84399,
      "transactionIndex": 0,
      "confirmations": null,
      "from": "0x2910543Af39abA0Cd09dBb2D50200b3E800A63D2",
      "gasPrice": {
        "_hex": "0xdd64b10e5"
      },
      "gasLimit": {
        "_hex": "0x5208"
      },
      "to": "0x1c7214DE5162a5606CF124ed3A8c3556b1899804",
      "value": {
        "_hex": "0x4551ce090d138000"
      },
      "nonce": 555,
      "data": "0x",
      "r": "0x59527f278af452948a4d645b94343a32d15fda9e5837e1d10d63e7a6d824f1b9",
      "s": "0x337cea5828e3fec7bfd8e86e4ed621b778cea254cc86d301268fe00d643ad7d4",
      "v": 28,
      "creates": null,
      "raw": "0xf86e82022b850dd64b10e5825208941c7214de5162a5606cf124ed3a8c3556b1899804884551ce090d138000801ca059527f278af452948a4d645b94343a32d15fda9e5837e1d10d63e7a6d824f1b9a0337cea5828e3fec7bfd8e86e4ed621b778cea254cc86d301268fe00d643ad7d4",
      "networkId": 0,
      "chainId": 0
    }
  ]
}