{
  "hash": "0x9bd63388619b8329b7a93cae7ce76813dd5821efca397b734d0563281121e587",
  "parentHash": "0xb60cd4792357043c2848022a11fafe46d6655b11fec4784e46899eb60585c235",
  "number": 54870,
  "timestamp": 1439061412,
  "nonce": "0x9627f0d39a6b1191",
  "difficulty": 1610133849259,
  "gasLimit": {
    "_hex": "0x2fefd5"
  },
  "gasUsed": {
    "_hex": "0x5208"
  },
  "miner": "0xbb7B8287f3F0a933474a79eAe42CBCa977791171",
  "extraData": "0x476574682f4c5649562f76312e302e312f6c696e75782f676f312e342e32",
  "transactions": [
    {
      "hash": "0x1f6fd41d5fcd3f9522fac864af9a5ad5edb999ba303f5855e0bc0569d681499d",
      "blockHash": "0x9bd63388619b8329b7a93cae7ce76813dd5821efca397b734d0563281121e587",
      "blockNumber": 54870,
      "transactionIndex": 0,
      "confirmations": null,
      "from": "0x3Ad06149b21C55Ff867cc3fb9740D2BCc7101231",
      "gasPrice": {
        "_hex": "0xcb255d6a6"
      },
      "gasLimit": {
        "_hex": "0x15f90"
      },
      "to": "0x314c7Daa4825ffC0293819119c5FDCC0CcF19827",
      "value": {
        "_hex": "0x21e19e0c9bab2400000"
      },
      "nonce": 15,
      "data": "0x",
      "r": "0xc65ea5cfdc90e4c8472257f641d02a05d21c7d396ec573d0583aa93c244f2a1c",
      "s": "0x34ac74e534f3a2289a7173697caa7696808f5d585b0b6358d01690fed30f4290",
      "v": 28,
      "creates": null,
      "raw": "0xf86f0f850cb255d6a683015f9094314c7daa4825ffc0293819119c5fdcc0ccf198278a021e19e0c9bab2400000801ca0c65ea5cfdc90e4c8472257f641d02a05d21c7d396ec573d0583aa93c244f2a1ca034ac74e534f3a2289a7173697caa7696808f5d585b0b6358d01690fed30f4290",
      "networkId": 0,
      "chainId": 0
    }
  ]
}