{
  "hash": "0xea1feac6019fe25154b3b15b5d0351ffd1963118b9664c63292e3245040c1de7",
  "parentHash": "0x660bdb13706bee816107cd246a4f203677daed1904ecc0c7547ffd11053f0c57",
  "number": 113464,
  "timestamp": 1440023912,
  "nonce": "0x03bd01dc2da86518",
  "difficulty": 4466817529713,
  "gasLimit": {
    "_hex": "0x2fefd8"
  },
  "gasUsed": {
    "_hex": "0xa410"
  },
  "miner": "0x7e8504a5e26df87f6D26fA1ba148BE146F42775A",
  "extraData": "0x476574682f76312e302e312f77696e646f77732f676f312e342e32",
  "transactions": [
    {
      "hash": "0x34b76e37109ce864e836a28186267f786a3e6aa3dba47539632bf4eb5d094278",
      "blockHash": "0xea1feac6019fe25154b3b15b5d0351ffd1963118b9664c63292e3245040c1de7",
      "blockNumber": 113464,
      "transactionIndex": 0,
      "confirmations": null,
      "from": "0x92762b7a067B2278454eF38d6cb6a96A4c92834e",
      "gasPrice": {
        "_hex": "0xccf61334e"
      },
      "gasLimit": {
        "_hex": "0x7a120"
      },
      "to": "0xBBDa93a81B882774e1c9b5e3F933Fa35DaC8bc88",
      "value": {
        "_hex": "0xd02ab486cedc0000"
      },
      "nonce": 2,
      "data": "0x",
      "r": "0xe035d6883df90509c578e5b1521eb8aea3eee4245468bcab4ee2e7f79b080800",
      "s": "0x051e07235e07b6f3da78aad7512dfda5db6b84460f1add2109c353ff769fe83e",
      "v": 28,
      "creates": null,
      "raw": "0xf86d02850ccf61334e8307a12094bbda93a81b882774e1c9b5e3f933fa35dac8bc8888d02ab486cedc0000801ca0e035d6883df90509c578e5b1521eb8aea3eee4245468bcab4ee2e7f79b080800a0051e07235e07b6f3da78aad7512dfda5db6b84460f1add2109c353ff769fe83e",
      "networkId": 0,
      "chainId": 0
    },
    {
      "hash": "0xca10acaf8301b13aea7cb5f17c96b02b4843913e776624808add99d4dfe7292e",
      "blockHash": "0xea1feac6019fe25154b3b15b5d0351ffd1963118b9664c63292e3245040c1de7",
      "blockNumber": 113464,
      "transactionIndex": 1,
      "confirmations": null,
      "from": "0x1f1f1f6FAA77a31e6c9aeF1eF25A6F6819177EEB",
      "gasPrice": {
        "_hex": "0xba43b7400"
      },
      "gasLimit": {
        "_hex": "0x5267"
      },
      "to": "0xdbdbDbf47e276489cCf09100B4bC18ef500Aef6D",
      "value": {
        "_hex": "0xdd2d5fcf3bc9c0000"
      },
      "nonce": 2,
      "data": "0x",
      "r": "0xb49a47c6c13b3511454f79dc721ee297d8974dd85f0e143659a5de129cd708a7",
      "s": "0xbd568594ff12b5f1a8582da7a25263c90f77c8d74b177dd953b565ba7bd97a5d",
      "v": 28,
      "creates": null,
      "raw": "0xf86d02850ba43b740082526794dbdbdbf47e276489ccf09100b4bc18ef500aef6d890dd2d5fcf3bc9c0000801ca0b49a47c6c13b3511454f79dc721ee297d8974dd85f0e143659a5de129cd708a7a0bd568594ff12b5f1a8582da7a25263c90f77c8d74b177dd953b565ba7bd97a5d",
      "networkId": 0,
      "chainId": 0
    }
  ]
}