{
  "hash": "0x3ac7c567dad927c279d5362a0c3a88a9fe79568092d337b4c5ccea86dfed7ffe",
  "parentHash": "0xdd2cd63f35d8c94fe86b6d43c23e515660618dd2afbe3be6e86e80d13d9214f9",
  "number": 87499,
  "timestamp": 1439593224,
  "nonce": "0xa1ee0d0e06a775f8",
  "difficulty": 3141784547569,
  "gasLimit": {
    "_hex": "0x2fefd8"
  },
  "gasUsed": {
    "_hex": "0x53f5"
  },
  "miner": "0xC99478b218E58F45783fA70f0507cf614938E67d",
  "extraData": "0xd983010001844765746887676f312e342e328777696e646f7773",
  "transactions": [
    {
      "hash": "0x98734bd08acbaf28836391ea1901531b9cf473a250a242733cf2bfc122979abe",
      "blockHash": "0x3ac7c567dad927c279d5362a0c3a88a9fe79568092d337b4c5ccea86dfed7ffe",
      "blockNumber": 87499,
      "transactionIndex": 0,
      "confirmations": null,
      "from": "0x77b97786B0FB73e55d9E92d4B182beFBF346F979",
      "gasPrice": {
        "_hex": "0xdda762d81"
      },
      "gasLimit": {
        "_hex": "0xf4240"
      },
      "to": "0xA236078f02627205B2E3bDeA8dBA2e9D150113D3",
      "value": {
        "_hex": "0x0"
      },
      "nonce": 13,
      "data": "0x4757f1d2000000000000000000000007c163fe6b2e6c942f643a24c3ce0834cef6dde98d000000000000000000000000000000000000000000000000017557d2775ae4e0",
      "r": "0xb479b14e16a9312a6133df9c8124582517c4f31fdd112627e6a5fc0690a0d749",
      "s": "0x71fe97927955d6c69200ca6a25a66edeaf1ba8f5d15e7e1e8b3e54914c69acbb",
      "v": 28,
      "creates": null,
      "raw": "0xf8aa0d850dda762d81830f424094a236078f02627205b2e3bdea8dba2e9d150113d380b8444757f1d2000000000000000000000007c163fe6b2e6c942f643a24c3ce0834cef6dde98d000000000000000000000000000000000000000000000000017557d2775ae4e01ca0b479b14e16a9312a6133df9c8124582517c4f31fdd112627e6a5fc0690a0d749a071fe97927955d6c69200ca6a25a66edeaf1ba8f5d15e7e1e8b3e54914c69acbb",
      "networkId": 0,
      "chainId": 0
    }
  ]
}