{
  "hash": "0x7c0c946214e5bda621970cece71faa293e6da9bfa30996a276cbff812a389c7a",
  "parentHash": "0x8640a6c21ad5ee042522b924d42b29447011961c096154c5ac121e2aa16b2e28",
  "number": 88280,
  "timestamp": 1439605708,
  "nonce": "0xba6cf0bf8ea30e15",
  "difficulty": 3198763314686,
  "gasLimit": {
    "_hex": "0x2fefd8"
  },
  "gasUsed": {
    "_hex": "0x14820"
  },
  "miner": "0x790b8a3cE86E707ED0eD32bF89B3269692a23CC1",
  "extraData": "0xd783010001844765746887676f312e342e32856c696e7578",
  "transactions": [
    {
      "hash": "0xea0829d45fe1c8aacd923d934b7a29c9fb799b3676f1e40344eaa6f076b99b20",
      "blockHash": "0x7c0c946214e5bda621970cece71faa293e6da9bfa30996a276cbff812a389c7a",
      "blockNumber": 88280,
      "transactionIndex": 0,
      "confirmations": null,
      "from": "0xa6BDc31c431B8F97848c9D60cbbe9660dc450eB7",
      "gasPrice": {
        "_hex": "0xce8c2570e"
      },
      "gasLimit": {
        "_hex": "0x5208"
      },
      "to": "0x32Be343B94f860124dC4fEe278FDCBD38C102D88",
      "value": {
        "_hex": "0x4563cbe5ff25d000"
      },
      "nonce": 83,
      "data": "0x",
      "r": "0x8ee6ed24216a06b823a526739dd45df01bb52144bb2a5b3c4c183f15ac4a27d0",
      "s": "0x4c11e3463beed4b7ae04560fe8a0f69d8018e2d117307c44f3c4c1fa56c67436",
      "v": 27,
      "creates": null,
      "raw": "0xf86c53850ce8c2570e8252089432be343b94f860124dc4fee278fdcbd38c102d88884563cbe5ff25d000801ba08ee6ed24216a06b823a526739dd45df01bb52144bb2a5b3c4c183f15ac4a27d0a04c11e3463beed4b7ae04560fe8a0f69d8018e2d117307c44f3c4c1fa56c67436",
      "networkId": 0,
      "chainId": 0
    },
    {
      "hash": "0x2959acfefc658bbb9a961d06bfd8e8e2be2eb83037d0110fda87c2233087fe39",
      "blockHash": "0x7c0c946214e5bda621970cece71faa293e6da9bfa30996a276cbff812a389c7a",
      "blockNumber": 88280,
      "transactionIndex": 1,
      "confirmations": null,
      "from": "0x19ae27E1b61445EB9f27821A5eB4b3e957319e7e",
      "gasPrice": {
        "_hex": "0xce8c2570e"
      },
      "gasLimit": {
        "_hex": "0x5208"
      },
      "to": "0x32Be343B94f860124dC4fEe278FDCBD38C102D88",
      "value": {
        "_hex": "0x1303bdd1e3c45100000"
      },
      "nonce": 9,
      "data": "0x",
      "r": "0xe89ee68ee04248778c1f930d7a777c6f0bdc01a7f9de4f540130e95941be2e03",
      "s": "0x37f87bfb855c67bd870a07007126d6b4b5071eccc9477ebaa99a1444367b8f11",
      "v": 28,
      "creates": null,
      "raw": "0xf86e09850ce8c2570e8252089432be343b94f860124dc4fee278fdcbd38c102d888a01303bdd1e3c45100000801ca0e89ee68ee04248778c1f930d7a777c6f0bdc01a7f9de4f540130e95941be2e03a037f87bfb855c67bd870a07007126d6b4b5071eccc9477ebaa99a1444367b8f11",
      "networkId": 0,
      "chainId": 0
    },
    {
      "hash": "0x3aed269d79776d76c29ee12dabd6db08eeaa16697923837e16aefdf2fded105e",
      "blockHash": "0x7c0c946214e5bda621970cece71faa293e6da9bfa30996a276cbff812a389c7a",
      "blockNumber": 88280,
      "transactionIndex": 2,
      "confirmations": null,
      "from": "0x32Be343B94f860124dC4fEe278FDCBD38C102D88",
      "gasPrice": {
        "_hex": "0xce8c2570e"
      },
      "gasLimit": {
        "_hex": "0x5208"
      },
      "to": "0xE54C51118A2Cc163BC4BDb7C653Ab45Fc179d928",
      "value": {
        "_hex": "0x81d5db5eae0450000"
      },
      "nonce": 825,
      "data": "0x",
      "r": "0x0b2bd2a6c7e44ae7690a62af727d646800a5ab65675b92efb7b921c503b485ea",
      "s": "0x32adf4f7cebbed97c15f4833348d32222f6323b969210a8468e997ae9c4c4def",
      "v": 27,
      "creates": null,
      "raw": "0xf86f820339850ce8c2570e82520894e54c51118a2cc163bc4bdb7c653ab45fc179d92889081d5db5eae0450000801ba00b2bd2a6c7e44ae7690a62af727d646800a5ab65675b92efb7b921c503b485eaa032adf4f7cebbed97c15f4833348d32222f6323b969210a8468e997ae9c4c4def",
      "networkId": 0,
      "chainId": 0
    },
    {
      "hash": "0x7432dece4400e76cdb052fbf22a349f27c7211566bcd1cc1a564020cf0786339",
      "blockHash": "0x7c0c946214e5bda621970cece71faa293e6da9bfa30996a276cbff812a389c7a",
      "blockNumber": 88280,
      "transactionIndex": 3,
      "confirmations": null,
      "from": "0xbfaD6AD0969573860D304312400E078277821a4d",
      "gasPrice": {
        "_hex": "0xce8c2570e"
      },
      "gasLimit": {
        "_hex": "0x5208"
      },
      "to": "0x32Be343B94f860124dC4fEe278FDCBD38C102D88",
      "value": {
        "_hex": "0x8ac3000e81cef800"
      },
      "nonce": 0,
      "data": "0x",
      "r": "0x343dc91670a20495a70bf7fc5535d9cfc338cb6d57d4cd525c051556cb4c4e61",
      "s": "0x624bce1e3ba0ab9c2bae12699a0451b6b7a54ff039acc8437f3bef264657b452",
      "v": 28,
      "creates": null,
      "raw": "0xf86c80850ce8c2570e8252089432be343b94f860124dc4fee278fdcbd38c102d88888ac3000e81cef800801ca0343dc91670a20495a70bf7fc5535d9cfc338cb6d57d4cd525c051556cb4c4e61a0624bce1e3ba0ab9c2bae12699a0451b6b7a54ff039acc8437f3bef264657b452",
      "networkId": 0,
      "chainId": 0
    }
  ]
}