{
  "hash": "0x10447997b2a31215a0fcfebfaf0b1a1c44ee3e0bf0b1fb081a530bd9e489ca8d",
  "parentHash": "0x6abe60f14d685f81606c25a5a618ad97e76632a8d35d0fea1a05a4d78b66ef7f",
  "number": 111612,
  "timestamp": 1439993294,
  "nonce": "0x907bb14d03f34df5",
  "difficulty": 4420066672724,
  "gasLimit": {
    "_hex": "0x2fefd8"
  },
  "gasUsed": {
    "_hex": "0xa410"
  },
  "miner": "0x7e8504a5e26df87f6D26fA1ba148BE146F42775A",
  "extraData": "0x476574682f76312e302e312f77696e646f77732f676f312e342e32",
  "transactions": [
    {
      "hash": "0x8a434ab42b335a9fa2b8fec96cd92c89b2c03e269c04a6da27c31e131e0e7c38",
      "blockHash": "0x10447997b2a31215a0fcfebfaf0b1a1c44ee3e0bf0b1fb081a530bd9e489ca8d",
      "blockNumber": 111612,
      "transactionIndex": 0,
      "confirmations": null,
      "from": "0xFD7c9117BbEB649d9b37B3D3C9917f7c12f526B3",
      "gasPrice": {
        "_hex": "0xd44466a42"
      },
      "gasLimit": {
        "_hex": "0x5208"
      },
      "to": "0x32Be343B94f860124dC4fEe278FDCBD38C102D88",
      "value": {
        "_hex": "0x159f840bead0300000"
      },
      "nonce": 32,
      "data": "0x",
      "r": "0x578e76b60ed1e967b7ee465d3ce104c72ffb145a166ba4dbc53efc29697877f2",
      "s": "0x166181e620a4e1a86cfa3a88443e966758044d7dbc05a5e383553233ea087dc9",
      "v": 27,
      "creates": null,
      "raw": "0xf86d20850d44466a428252089432be343b94f860124dc4fee278fdcbd38c102d8889159f840bead0300000801ba0578e76b60ed1e967b7ee465d3ce104c72ffb145a166ba4dbc53efc29697877f2a0166181e620a4e1a86cfa3a88443e966758044d7dbc05a5e383553233ea087dc9",
      "networkId": 0,
      "chainId": 0
    },
    {
      "hash": "0x14d8fd17776764ac27fe418c8822fd7a6eb2c7714ec860b81c3b4983684e75e3",
      "blockHash": "0x10447997b2a31215a0fcfebfaf0b1a1c44ee3e0bf0b1fb081a530bd9e489ca8d",
      "blockNumber": 111612,
      "transactionIndex": 1,
      "confirmations": null,
      "from": "0x4D67f4F0Db45b3B5a3424B39ed8d972F710381D5",
      "gasPrice": {
        "_hex": "0xd44466a42"
      },
      "gasLimit": {
        "_hex": "0x5208"
      },
      "to": "0x32Be343B94f860124dC4fEe278FDCBD38C102D88",
      "value": {
        "_hex": "0x2f9dfbad81b19a000"
      },
      "nonce": 36,
      "data": "0x",
      "r": "0xcd0049335f66d879ce4a3824abea1e68dd50a2c703b4b99ef95c195c3a1a53b2",
      "s": "0x20bafb4aac7e0a956857c4f0207690e2adf59e3b3cad9342f7c00fbdeae1c66d",
      "v": 27,
      "creates": null,
      "raw": "0xf86d24850d44466a428252089432be343b94f860124dc4fee278fdcbd38c102d888902f9dfbad81b19a000801ba0cd0049335f66d879ce4a3824abea1e68dd50a2c703b4b99ef95c195c3a1a53b2a020bafb4aac7e0a956857c4f0207690e2adf59e3b3cad9342f7c00fbdeae1c66d",
      "networkId": 0,
      "chainId": 0
    }
  ]
}