{
  "hash": "0x8782f61768ac01eeafafa8e28b9ca57fea5927d2917ba3c7e0bf2a8ed7463e1f",
  "parentHash": "0x84d3a8573bf6935f803690303e1a3c6c3e194a508823a61b0bbf0fe4be7fe5fa",
  "number": 115788,
  "timestamp": 1440063349,
  "nonce": "0xec881a19a7d0ff9e",
  "difficulty": 4558104989752,
  "gasLimit": {
    "_hex": "0x2fefd8"
  },
  "gasUsed": {
    "_hex": "0x20fc6"
  },
  "miner": "0x55bAf64fc9eAccFFd7Cc643BB61142E1C6ac093e",
  "extraData": "0x",
  "transactions": [
    {
      "hash": "0x8f772bec3d07967a7b9010ff7365f66b27a80cd6486c7bb84b78a737ef387ae3",
      "blockHash": "0x8782f61768ac01eeafafa8e28b9ca57fea5927d2917ba3c7e0bf2a8ed7463e1f",
      "blockNumber": 115788,
      "transactionIndex": 0,
      "confirmations": null,
      "from": "0xf15B7384b900a75f5909f72BE3f0100221d88C1F",
      "gasPrice": {
        "_hex": "0xd7d40ace3"
      },
      "gasLimit": {
        "_hex": "0x249f0"
      },
      "to": "0xE28e72FCf78647ADCe1F1252F240bbfaebD63BcC",
      "value": {
        "_hex": "0x3782dace9d900000"
      },
      "nonce": 0,
      "data": "0x45466f3a",
      "r": "0xf8e7dbb88776bedb9809e21fcfe34eb0fc274aadee146338c305fe612910ed1a",
      "s": "0x3f0ccb76b8e552840805814301c8d8d1904ef82aac812bcc6bed2649e3c7190b",
      "v": 27,
      "creates": null,
      "raw": "0xf87180850d7d40ace3830249f094e28e72fcf78647adce1f1252f240bbfaebd63bcc883782dace9d9000008445466f3a1ba0f8e7dbb88776bedb9809e21fcfe34eb0fc274aadee146338c305fe612910ed1aa03f0ccb76b8e552840805814301c8d8d1904ef82aac812bcc6bed2649e3c7190b",
      "networkId": 0,
      "chainId": 0
    },
    {
      "hash": "0xc70c4b66c7688ba1838fb90f053aff26051fdac2963270463d189545d0cbb64b",
      "blockHash": "0x8782f61768ac01eeafafa8e28b9ca57fea5927d2917ba3c7e0bf2a8ed7463e1f",
      "blockNumber": 115788,
      "transactionIndex": 1,
      "confirmations": null,
      "from": "0x286c2305Af13204F46Da83Dc2Ed5eAB84AB8046f",
      "gasPrice": {
        "_hex": "0xcce416600"
      },
      "gasLimit": {
        "_hex": "0x1d8a8"
      },
      "to": "0xEe38Df16452Bb041e346cAa6679EFC57c8bD4603",
      "value": {
        "_hex": "0xd529ae9e8600000"
      },
      "nonce": 3,
      "data": "0x",
      "r": "0xf703879a1de5141aa14038c2c80193bf876dd43f7ea9e399bd23671f3f3bf266",
      "s": "0x7af04a18bfe21f9e09a5c94f83bc6f9b451089acef21faf24ac64324f24930cc",
      "v": 28,
      "creates": null,
      "raw": "0xf86d03850cce4166008301d8a894ee38df16452bb041e346caa6679efc57c8bd4603880d529ae9e8600000801ca0f703879a1de5141aa14038c2c80193bf876dd43f7ea9e399bd23671f3f3bf266a07af04a18bfe21f9e09a5c94f83bc6f9b451089acef21faf24ac64324f24930cc",
      "networkId": 0,
      "chainId": 0
    }
  ]
}