{
  "hash": "0x421509b010f041021ca932b3eb5e6c7778e4ecc1c73e41e280fc64dd3eaf9bb1",
  "parentHash": "0x22c5879efb0166cd59ae2e8d9c96d814a4ca1adc742598c1c93831bb1d04e6cd",
  "number": 57053,
  "timestamp": 1439096720,
  "nonce": "0x40dec85f6b4ca9af",
  "difficulty": 1714369482014,
  "gasLimit": {
    "_hex": "0x2fefd8"
  },
  "gasUsed": {
    "_hex": "0x5208"
  },
  "miner": "0xf927a40C8B7F6E07c5af7FA2155B4864a4112B13",
  "extraData": "0x476574682f76312e302e312f6c696e75782f676f312e342e32",
  "transactions": [
    {
      "hash": "0x9d91063fcef0a2df657e11452944c7b7d53e01d2e6131d4728c1720f3a95efc8",
      "blockHash": "0x421509b010f041021ca932b3eb5e6c7778e4ecc1c73e41e280fc64dd3eaf9bb1",
      "blockNumber": 57053,
      "transactionIndex": 0,
      "confirmations": null,
      "from": "0x8cEe38D6595788a56E3FB94634b3ffE1fBdB26d6",
      "gasPrice": {
        "_hex": "0xcc042e020"
      },
      "gasLimit": {
        "_hex": "0x15f90"
      },
      "to": "0x7b0813f6450be6d2d27984878f03ee858471fF1c",
      "value": {
        "_hex": "0x218ae196b8d4f300000"
      },
      "nonce": 2,
      "data": "0x",
      "r": "0x3fa375bc81a0326c6cdde6ebb0fa362b5c59f5effb1deb920777bcf79d6fc7ce",
      "s": "0x0d83101bb035b24e318a478949a4fad167f4790b0426878441f08928591f8066",
      "v": 27,
      "creates": null,
      "raw": "0xf86f02850cc042e02083015f90947b0813f6450be6d2d27984878f03ee858471ff1c8a0218ae196b8d4f300000801ba03fa375bc81a0326c6cdde6ebb0fa362b5c59f5effb1deb920777bcf79d6fc7cea00d83101bb035b24e318a478949a4fad167f4790b0426878441f08928591f8066",
      "networkId": 0,
      "chainId": 0
    }
  ]
}