{
  "hash": "0xe67fbb650ea8996111040b2d3416171db77ffe0cb1262e5c5e3adf270c2b80d7",
  "parentHash": "0x7e2dd4322944a4117eaf3d154a0d1c1c4733d258fa4c560cb0d17442e3e53d21",
  "number": 105386,
  "timestamp": 1439886665,
  "nonce": "0xc9ea6b9f3481964c",
  "difficulty": 4367547609892,
  "gasLimit": {
    "_hex": "0x2fefd8"
  },
  "gasUsed": {
    "_hex": "0x19a28"
  },
  "miner": "0x790b8a3cE86E707ED0eD32bF89B3269692a23CC1",
  "extraData": "0xd783010001844765746887676f312e342e32856c696e7578",
  "transactions": [
    {
      "hash": "0xdbd3c04dfb8b9e0061dc6fbc2ed59f8c1fb4130962ff948953bb5e63febf4e19",
      "blockHash": "0xe67fbb650ea8996111040b2d3416171db77ffe0cb1262e5c5e3adf270c2b80d7",
      "blockNumber": 105386,
      "transactionIndex": 0,
      "confirmations": null,
      "from": "0x6599C9c86f1635FAAEFE7A5540914811DAD8d167",
      "gasPrice": {
        "_hex": "0xd27aa1e82"
      },
      "gasLimit": {
        "_hex": "0x5208"
      },
      "to": "0x32Be343B94f860124dC4fEe278FDCBD38C102D88",
      "value": {
        "_hex": "0x83d373865e55c800"
      },
      "nonce": 6,
      "data": "0x",
      "r": "0xea58682e0615e7c86ef0f626548c9ec634ee96c9e60039efeef2b1275d340c1c",
      "s": "0x7d6cd0836b34d566eece10d35087e08a7e5b2a578437fd04445d659350203a99",
      "v": 28,
      "creates": null,
      "raw": "0xf86c06850d27aa1e828252089432be343b94f860124dc4fee278fdcbd38c102d888883d373865e55c800801ca0ea58682e0615e7c86ef0f626548c9ec634ee96c9e60039efeef2b1275d340c1ca07d6cd0836b34d566eece10d35087e08a7e5b2a578437fd04445d659350203a99",
      "networkId": 0,
      "chainId": 0
    },
    {
      "hash": "0xf5290d674a4c7ecc50f41921bf6b72bbca737058f604e7f6ac473b96352cf6f1",
      "blockHash": "0xe67fbb650ea8996111040b2d3416171db77ffe0cb1262e5c5e3adf270c2b80d7",
      "blockNumber": 105386,
      "transactionIndex": 1,
      "confirmations": null,
      "from": "0xaa71fa80d26F718E6A3c87e41D817b8D10944a63",
      "gasPrice": {
        "_hex": "0xd27aa1e82"
      },
      "gasLimit": {
        "_hex": "0x5208"
      },
      "to": "0x32Be343B94f860124dC4fEe278FDCBD38C102D88",
      "value": {
        "_hex": "0x8d039f8a27ccb000"
      },
      "nonce": 6,
      "data": "0x",
      "r": "0xfe898b70606d5366b7dce5c0e784fb9aafcbf20cdf6be2135f7df956c9d6f16f",
      "s": "0x68a9ee983bfb2a83d0c3b04bb04beaf99b85d428a6467fe0a21519f8b6fdd587",
      "v": 28,
      "creates": null,
      "raw": "0xf86c06850d27aa1e828252089432be343b94f860124dc4fee278fdcbd38c102d88888d039f8a27ccb000801ca0fe898b70606d5366b7dce5c0e784fb9aafcbf20cdf6be2135f7df956c9d6f16fa068a9ee983bfb2a83d0c3b04bb04beaf99b85d428a6467fe0a21519f8b6fdd587",
      "networkId": 0,
      "chainId": 0
    },
    {
      "hash": "0xd82ef04c18976c0af34e58de98b822a56a999151981d86760c7daeb13ce21127",
      "blockHash": "0xe67fbb650ea8996111040b2d3416171db77ffe0cb1262e5c5e3adf270c2b80d7",
      "blockNumber": 105386,
      "transactionIndex": 2,
      "confirmations": null,
      "from": "0x60781265e9850f54AE0Bc9545948d05DeE6FC3e3",
      "gasPrice": {
        "_hex": "0xd27aa1e82"
      },
      "gasLimit": {
        "_hex": "0x5208"
      },
      "to": "0x32Be343B94f860124dC4fEe278FDCBD38C102D88",
      "value": {
        "_hex": "0x8d6c9a78b1a93800"
      },
      "nonce": 9,
      "data": "0x",
      "r": "0xe433fad0ed9348cd78e5674340e5b8819755e133230ee7ab485ed5d6e22d5f5b",
      "s": "0x361fb586d27b16777aa8bb873bd804b0416c3a766f5e03aaa0f3fbac90453726",
      "v": 28,
      "creates": null,
      "raw": "0xf86c09850d27aa1e828252089432be343b94f860124dc4fee278fdcbd38c102d88888d6c9a78b1a93800801ca0e433fad0ed9348cd78e5674340e5b8819755e133230ee7ab485ed5d6e22d5f5ba0361fb586d27b16777aa8bb873bd804b0416c3a766f5e03aaa0f3fbac90453726",
      "networkId": 0,
      "chainId": 0
    },
    {
      "hash": "0x92dbb6c7160253edb10984b946a753e569634ceb2b5b7e18f295f9fb22b55d54",
      "blockHash": "0xe67fbb650ea8996111040b2d3416171db77ffe0cb1262e5c5e3adf270c2b80d7",
      "blockNumber": 105386,
      "transactionIndex": 3,
      "confirmations": null,
      "from": "0xe70361D11B44B2fBA997417D7AAa26eb69EBfef0",
      "gasPrice": {
        "_hex": "0xd27aa1e82"
      },
      "gasLimit": {
        "_hex": "0x5208"
      },
      "to": "0x32Be343B94f860124dC4fEe278FDCBD38C102D88",
      "value": {
        "_hex": "0x19b0eb06a54ea6000"
      },
      "nonce": 6,
      "data": "0x",
      "r": "0x52b7e53b57e4c9459ee51c916eeadb34484ad09139c3b0ef5888c6a627338259",
      "s": "0x297c6bd88de03d8ac9f85ec01d7f8ba7565ab9ef91b61c0969a1461a3c41a2c6",
      "v": 27,
      "creates": null,
      "raw": "0xf86d06850d27aa1e828252089432be343b94f860124dc4fee278fdcbd38c102d8889019b0eb06a54ea6000801ba052b7e53b57e4c9459ee51c916eeadb34484ad09139c3b0ef5888c6a627338259a0297c6bd88de03d8ac9f85ec01d7f8ba7565ab9ef91b61c0969a1461a3c41a2c6",
      "networkId": 0,
      "chainId": 0
    },
    {
      "hash": "0xd9dd2478a01170bdcc442857fc68d26ad22a8dea732dedaf2f8b5994bf0c75ac",
      "blockHash": "0xe67fbb650ea8996111040b2d3416171db77ffe0cb1262e5c5e3adf270c2b80d7",
      "blockNumber": 105386,
      "transactionIndex": 4,
      "confirmations": null,
      "from": "0xAdCa16b4654a92cb67666C0cF61976cEEE81cEEB",
      "gasPrice": {
        "_hex": "0xd27aa1e82"
      },
      "gasLimit": {
        "_hex": "0x5208"
      },
      "to": "0x32Be343B94f860124dC4fEe278FDCBD38C102D88",
      "value": {
        "_hex": "0xf70366cc5001f800"
      },
      "nonce": 6,
      "data": "0x",
      "r": "0x8e21a7658f4f07a46463c2045bffa82e792f72397e213b2463feee185fb05a96",
      "s": "0x759af3a5646cae85db22ae4e46411332e725ce36179c3843d0c79a3c3a2c72f1",
      "v": 28,
      "creates": null,
      "raw": "0xf86c06850d27aa1e828252089432be343b94f860124dc4fee278fdcbd38c102d8888f70366cc5001f800801ca08e21a7658f4f07a46463c2045bffa82e792f72397e213b2463feee185fb05a96a0759af3a5646cae85db22ae4e46411332e725ce36179c3843d0c79a3c3a2c72f1",
      "networkId": 0,
      "chainId": 0
    }
  ]
}