{
  "hash": "0xfbe233669dac11b17574f3126d38e3fccbadd20ca7cc5d60554f4cd2d3be771d",
  "parentHash": "0x284f3fc250503de8f5c5f1b494361780ff95ed469677a86b186a6256fd697c92",
  "number": 71172,
  "timestamp": 1439331931,
  "nonce": "0x41911c98307299f9",
  "difficulty": 2143542687939,
  "gasLimit": {
    "_hex": "0x2fefd8"
  },
  "gasUsed": {
    "_hex": "0x5208"
  },
  "miner": "0xe6A7a1d47ff21B6321162AEA7C6CB457D5476Bca",
  "extraData": "0x476574682f76312e302e312d38326566323666362f6c696e75782f676f312e34",
  "transactions": [
    {
      "hash": "0xa9d64e4e0b58acfeec1bca40e3bca6258052dabfb16da07d631ddcee4929fdc7",
      "blockHash": "0xfbe233669dac11b17574f3126d38e3fccbadd20ca7cc5d60554f4cd2d3be771d",
      "blockNumber": 71172,
      "transactionIndex": 0,
      "confirmations": null,
      "from": "0xa114c802ef29776f05f9c6925cE915232e8ae102",
      "gasPrice": {
        "_hex": "0xda3991596"
      },
      "gasLimit": {
        "_hex": "0x5208"
      },
      "to": "0x32Be343B94f860124dC4fEe278FDCBD38C102D88",
      "value": {
        "_hex": "0xd0264b041a776000"
      },
      "nonce": 4,
      "data": "0x",
      "r": "0x632c1e1233d8defddb69446e3b7533c6f4760ec7d2ad0cdd19473ce2604fed7e",
      "s": "0x4a9c154e4a2b3b76b49a7151a250d4d8165bbd72f7477c3b4eea7a5fbb2397d3",
      "v": 28,
      "creates": null,
      "raw": "0xf86c04850da39915968252089432be343b94f860124dc4fee278fdcbd38c102d8888d0264b041a776000801ca0632c1e1233d8defddb69446e3b7533c6f4760ec7d2ad0cdd19473ce2604fed7ea04a9c154e4a2b3b76b49a7151a250d4d8165bbd72f7477c3b4eea7a5fbb2397d3",
      "networkId": 0,
      "chainId": 0
    }
  ]
}