{
  "hash": "0x6307ec9d6506041cd552c29652287b1162099818215b896a2824dd8b1570aa71",
  "parentHash": "0x1f49a8288d412190b6760bb68bc721ba538bbd83786843660920a10b8a1f8986",
  "number": 82029,
  "timestamp": 1439512196,
  "nonce": "0x4ecbe47aae7b7a7b",
  "difficulty": 2405757672429,
  "gasLimit": {
    "_hex": "0x2fefd8"
  },
  "gasUsed": {
    "_hex": "0x5208"
  },
  "miner": "0x3FF679B0823a026F2378E5f5F22A6F127cC85828",
  "extraData": "0x",
  "transactions": [
    {
      "hash": "0x3b42b3cc6433a77fe19f8dbffdba202b7ec00ef533fcb0b23cf8daca8c2b0dc4",
      "blockHash": "0x6307ec9d6506041cd552c29652287b1162099818215b896a2824dd8b1570aa71",
      "blockNumber": 82029,
      "transactionIndex": 0,
      "confirmations": null,
      "from": "0x2C89f5FDcA3D155409b638B98A742E55eb4652B7",
      "gasPrice": {
        "_hex": "0x10c5f4527a4"
      },
      "gasLimit": {
        "_hex": "0x15f90"
      },
      "to": "0x77250235Ff0E547084f07111A860193029eda6A9",
      "value": {
        "_hex": "0xde0b6b3a7640000"
      },
      "nonce": 24,
      "data": "0x",
      "r": "0x66c13b428d8960a3aad9aeae690931c0d372f9b395361e6288aa2ca2c515be32",
      "s": "0x75c8e974a9f161aa0ef870cc4975b7bd7932846014d7d6356fbbd6f545a812c1",
      "v": 28,
      "creates": null,
      "raw": "0xf86e1886010c5f4527a483015f909477250235ff0e547084f07111a860193029eda6a9880de0b6b3a7640000801ca066c13b428d8960a3aad9aeae690931c0d372f9b395361e6288aa2ca2c515be32a075c8e974a9f161aa0ef870cc4975b7bd7932846014d7d6356fbbd6f545a812c1",
      "networkId": 0,
      "chainId": 0
    }
  ]
}