{
  "hash": "0xe6ec2a4f3f33ffd94638333efc58a14c2478d22c57369f57c9460b61dc34be74",
  "parentHash": "0x739849f4a9dd2c888ffd9911d964db1ed6e908c7a21432de0fafcc3a102dda89",
  "number": 51639,
  "timestamp": 1439008295,
  "nonce": "0x0a92dc9b010dc37d",
  "difficulty": 1558911202778,
  "gasLimit": {
    "_hex": "0xc8a20"
  },
  "gasUsed": {
    "_hex": "0x7a120"
  },
  "miner": "0xc56e71225f1372c990E6829D53A1Ab76d27301cf",
  "extraData": "0x476574682f76312e302e302f77696e646f77732f676f312e342e32",
  "transactions": [
    {
      "hash": "0x006cfcd6040a851930f7fcb880883baa59a155d0230629ae187507df071c3a2f",
      "blockHash": "0xe6ec2a4f3f33ffd94638333efc58a14c2478d22c57369f57c9460b61dc34be74",
      "blockNumber": 51639,
      "transactionIndex": 0,
      "confirmations": null,
      "from": "0xFCf9f6A78f06227522c6f948ec0119dA31680Ef7",
      "gasPrice": {
        "_hex": "0xd5d448346"
      },
      "gasLimit": {
        "_hex": "0x7a120"
      },
      "to": "0xBAA54d6E90c3F4d7Ebec11bD180134C7eD8eBb52",
      "value": {
        "_hex": "0x16345785d8a0000"
      },
      "nonce": 44,
      "data": "0x",
      "r": "0xec24b1c6d4b4adbb07f93cc163b699fcf8289f7c5d48c42adbb9728a293cfeb0",
      "s": "0x7bbdc08bb2506a638d6cc2e167d116c3fdabbecf57fe933f3e8f22b2ff2c2a82",
      "v": 28,
      "creates": null,
      "raw": "0xf86d2c850d5d4483468307a12094baa54d6e90c3f4d7ebec11bd180134c7ed8ebb5288016345785d8a0000801ca0ec24b1c6d4b4adbb07f93cc163b699fcf8289f7c5d48c42adbb9728a293cfeb0a07bbdc08bb2506a638d6cc2e167d116c3fdabbecf57fe933f3e8f22b2ff2c2a82",
      "networkId": 0,
      "chainId": 0
    }
  ]
}