{
  "hash": "0x969aceb9085a619b68f3e96f022e0b94c1422b8652c0d40ebef0eba7e1a22eb7",
  "parentHash": "0x8604134a50e79f3205952f42144d0e0a6a70a7c3a860f009a0f2916740bec4ec",
  "number": 111269,
  "timestamp": 1439987545,
  "nonce": "0xcf950db65b5d1cd3",
  "difficulty": 4396569487590,
  "gasLimit": {
    "_hex": "0x2fefd8"
  },
  "gasUsed": {
    "_hex": "0xa410"
  },
  "miner": "0xC6A5D22D1DDd24B32a308bA4A49ec3cA38a2D0A6",
  "extraData": "0x",
  "transactions": [
    {
      "hash": "0x784b67ebe908358055bc3ca7e34434c62cb832d18564a5b242810f7d4b3d21f6",
      "blockHash": "0x969aceb9085a619b68f3e96f022e0b94c1422b8652c0d40ebef0eba7e1a22eb7",
      "blockNumber": 111269,
      "transactionIndex": 0,
      "confirmations": null,
      "from": "0xF87481A262E993a75F791E7859E71BaC36A606Eb",
      "gasPrice": {
        "_hex": "0xd14e69b74"
      },
      "gasLimit": {
        "_hex": "0x5208"
      },
      "to": "0x32Be343B94f860124dC4fEe278FDCBD38C102D88",
      "value": {
        "_hex": "0x8ac2fd99dd448000"
      },
      "nonce": 43,
      "data": "0x",
      "r": "0x9d47480679c025a95b2a39431f53fd4f2ca3977d77eae731dae623687286c95c",
      "s": "0x5526ad7aec342105f42a99f47c67bffabe50b1a42f3704e054977d02850cb58f",
      "v": 28,
      "creates": null,
      "raw": "0xf86c2b850d14e69b748252089432be343b94f860124dc4fee278fdcbd38c102d88888ac2fd99dd448000801ca09d47480679c025a95b2a39431f53fd4f2ca3977d77eae731dae623687286c95ca05526ad7aec342105f42a99f47c67bffabe50b1a42f3704e054977d02850cb58f",
      "networkId": 0,
      "chainId": 0
    },
    {
      "hash": "0xe062358f1312831febf693d421f90af85acb9f236a4e6e3bea692494c7a83820",
      "blockHash": "0x969aceb9085a619b68f3e96f022e0b94c1422b8652c0d40ebef0eba7e1a22eb7",
      "blockNumber": 111269,
      "transactionIndex": 1,
      "confirmations": null,
      "from": "0xb1abce2918E21ddb93AA452731a12672A3d9F75a",
      "gasPrice": {
        "_hex": "0xd14e69b74"
      },
      "gasLimit": {
        "_hex": "0x5208"
      },
      "to": "0x32Be343B94f860124dC4fEe278FDCBD38C102D88",
      "value": {
        "_hex": "0x455f6067b8a10c00"
      },
      "nonce": 181,
      "data": "0x",
      "r": "0xfe2cf2d1bf8300c743e34ac7f2f911f58929842d14d9c58e450209b034a31d03",
      "s": "0x7ce05e1a5c6522122979675daf270a4c5d9d3e4fcf7947cf4719b3797ccf39af",
      "v": 28,
      "creates": null,
      "raw": "0xf86d81b5850d14e69b748252089432be343b94f860124dc4fee278fdcbd38c102d8888455f6067b8a10c00801ca0fe2cf2d1bf8300c743e34ac7f2f911f58929842d14d9c58e450209b034a31d03a07ce05e1a5c6522122979675daf270a4c5d9d3e4fcf7947cf4719b3797ccf39af",
      "networkId": 0,
      "chainId": 0
    }
  ]
}