{
  "hash": "0x3d374b7df1ece4c355a0639bd50c0268f2d134e1a17e5e8717a16bb4e0d3e9bc",
  "parentHash": "0xd85ddeef5abf71d5cad0f9f12d27a07731a43e98ca9ff11673bddad1856489f4",
  "number": 75503,
  "timestamp": 1439404491,
  "nonce": "0x1ec69ee01e007f9d",
  "difficulty": 2207208919544,
  "gasLimit": {
    "_hex": "0x2fefd8"
  },
  "gasUsed": {
    "_hex": "0x5208"
  },
  "miner": "0xe6A7a1d47ff21B6321162AEA7C6CB457D5476Bca",
  "extraData": "0x476574682f76312e302e312d38326566323666362f6c696e75782f676f312e34",
  "transactions": [
    {
      "hash": "0xb54f0b7c6e4e8427c85e9712b354446ec0a65fcdf0f99f6997fda7967527c1ee",
      "blockHash": "0x3d374b7df1ece4c355a0639bd50c0268f2d134e1a17e5e8717a16bb4e0d3e9bc",
      "blockNumber": 75503,
      "transactionIndex": 0,
      "confirmations": null,
      "from": "0x4B85e9D2e433D7EcA29f8A7A859Cf0346702c89a",
      "gasPrice": {
        "_hex": "0xcb8872f0f"
      },
      "gasLimit": {
        "_hex": "0x15f90"
      },
      "to": "0x457a7E74fE5Fe8a2fd3036fa19B7e084869cCd63",
      "value": {
        "_hex": "0x2386f26fc10000"
      },
      "nonce": 0,
      "data": "0x",
      "r": "0xe10b07b72afd601e3537583fd9eeb9faf4a0036bff508e3bcc0ff6d2f1814392",
      "s": "0x6b34e9cdae897932304bc94b236dd21731655830040ba5597ba174753323776d",
      "v": 27,
      "creates": null,
      "raw": "0xf86c80850cb8872f0f83015f9094457a7e74fe5fe8a2fd3036fa19b7e084869ccd63872386f26fc10000801ba0e10b07b72afd601e3537583fd9eeb9faf4a0036bff508e3bcc0ff6d2f1814392a06b34e9cdae897932304bc94b236dd21731655830040ba5597ba174753323776d",
      "networkId": 0,
      "chainId": 0
    }
  ]
}