{
  "hash": "0x90be34e33b75ba17764e1ecda1353bbe27b493714282c2c639d7fdcc7380baaf",
  "parentHash": "0x8ec54c519cbec9449e2edd17769f18f6a13042d89e12d4df66c35f502b892a33",
  "number": 85892,
  "timestamp": 1439570450,
  "nonce": "0x6d930c5833d5fc23",
  "difficulty": 2774500709426,
  "gasLimit": {
    "_hex": "0x2fefd8"
  },
  "gasUsed": {
    "_hex": "0xfae0"
  },
  "miner": "0xB7268c7705A1866b2A78e882fdfDc8E2a4e1428E",
  "extraData": "0x476574682f76312e302e312f77696e646f77732f676f312e342e32",
  "transactions": [
    {
      "hash": "0x28a34a4f21f6c5af0b91748e3e580b4ea52d7d265dc3b4141a95e25fc249f47e",
      "blockHash": "0x90be34e33b75ba17764e1ecda1353bbe27b493714282c2c639d7fdcc7380baaf",
      "blockNumber": 85892,
      "transactionIndex": 0,
      "confirmations": null,
      "from": "0x2910543Af39abA0Cd09dBb2D50200b3E800A63D2",
      "gasPrice": {
        "_hex": "0xd1e9a6c26"
      },
      "gasLimit": {
        "_hex": "0x5208"
      },
      "to": "0x0A63E1A8C33e351679e3581AC84ce341C32f813a",
      "value": {
        "_hex": "0x410d46a6a76cdf8000"
      },
      "nonce": 629,
      "data": "0x",
      "r": "0x258c0fd19a46bbbf8e24c7b5f332964666bbd70dc5619fa0d956ccb59846c24b",
      "s": "0x504997cb31bb17d89105e2db835ee91f96a3c3e49bf3e5e8a98288cc421684bf",
      "v": 28,
      "creates": null,
      "raw": "0xf86f820275850d1e9a6c26825208940a63e1a8c33e351679e3581ac84ce341c32f813a89410d46a6a76cdf8000801ca0258c0fd19a46bbbf8e24c7b5f332964666bbd70dc5619fa0d956ccb59846c24ba0504997cb31bb17d89105e2db835ee91f96a3c3e49bf3e5e8a98288cc421684bf",
      "networkId": 0,
      "chainId": 0
    },
    {
      "hash": "0xc9d44bd0723f386521675809d4851de62914583af9bff927e12775ce6a2a01d4",
      "blockHash": "0x90be34e33b75ba17764e1ecda1353bbe27b493714282c2c639d7fdcc7380baaf",
      "blockNumber": 85892,
      "transactionIndex": 1,
      "confirmations": null,
      "from": "0x8156360BBd370961ceCa6B6691D75006Ad204Cf2",
      "gasPrice": {
        "_hex": "0xd1808e44d"
      },
      "gasLimit": {
        "_hex": "0x55f0"
      },
      "to": "0x2910543Af39abA0Cd09dBb2D50200b3E800A63D2",
      "value": {
        "_hex": "0xa2a15d09519be00000"
      },
      "nonce": 6,
      "data": "0x454e50393935473647",
      "r": "0xf9ff469722518cb2c1ef4aff9b0fcd29f1a433cab75a605f46832cf694637a82",
      "s": "0x7cab80ffc3aa3a3f5813a0111b6d322ff829267c656f4f3ed4131781031ddcb7",
      "v": 27,
      "creates": null,
      "raw": "0xf87606850d1808e44d8255f0942910543af39aba0cd09dbb2d50200b3e800a63d289a2a15d09519be0000089454e503939354736471ba0f9ff469722518cb2c1ef4aff9b0fcd29f1a433cab75a605f46832cf694637a82a07cab80ffc3aa3a3f5813a0111b6d322ff829267c656f4f3ed4131781031ddcb7",
      "networkId": 0,
      "chainId": 0
    },
    {
      "hash": "0xcb06e4bcd328c0ce8dea372eff1eea104142615633fd3241c3889971fec545db",
      "blockHash": "0x90be34e33b75ba17764e1ecda1353bbe27b493714282c2c639d7fdcc7380baaf",
      "blockNumber": 85892,
      "transactionIndex": 2,
      "confirmations": null,
      "from": "0x8156360BBd370961ceCa6B6691D75006Ad204Cf2",
      "gasPrice": {
        "_hex": "0xd1808e44d"
      },
      "gasLimit": {
        "_hex": "0x55f0"
      },
      "to": "0x2910543Af39abA0Cd09dBb2D50200b3E800A63D2",
      "value": {
        "_hex": "0xa2a15d09519be00000"
      },
      "nonce": 7,
      "data": "0x454e50393935473647",
      "r": "0x14bcc60553d3d7e15a1e0cbcbbe009ea69d3034f7b1a0316f39249aad8de2ef9",
      "s": "0x710b9845e0696bff9461b7d4bd6fc105f5797ac6a8b5d8008ec786f54e62c7d7",
      "v": 27,
      "creates": null,
      "raw": "0xf87607850d1808e44d8255f0942910543af39aba0cd09dbb2d50200b3e800a63d289a2a15d09519be0000089454e503939354736471ba014bcc60553d3d7e15a1e0cbcbbe009ea69d3034f7b1a0316f39249aad8de2ef9a0710b9845e0696bff9461b7d4bd6fc105f5797ac6a8b5d8008ec786f54e62c7d7",
      "networkId": 0,
      "chainId": 0
    }
  ]
}