{
  "hash": "0x1bab3180987d589ca084938a1eee0fa0d62cc237eb7ccbc9b52d2578255fd91d",
  "parentHash": "0xc3c8fbc30e011459a92acb5690cd278778bcfb067b0e2ee83411e821b57a7a9a",
  "number": 104497,
  "timestamp": 1439870734,
  "nonce": "0xc5dc149ca83a0143",
  "difficulty": 4361616725027,
  "gasLimit": {
    "_hex": "0x2fefd8"
  },
  "gasUsed": {
    "_hex": "0x5208"
  },
  "miner": "0xbb7B8287f3F0a933474a79eAe42CBCa977791171",
  "extraData": "0x476574682f4c5649562f76312e302e312f6c696e75782f676f312e342e32",
  "transactions": [
    {
      "hash": "0xb454fcfa5ec31bb584e00d5f4e41958ada46cd84d26201ae2c04c2007e09c39d",
      "blockHash": "0x1bab3180987d589ca084938a1eee0fa0d62cc237eb7ccbc9b52d2578255fd91d",
      "blockNumber": 104497,
      "transactionIndex": 0,
      "confirmations": null,
      "from": "0x9230b1300eF6Bc6abD4b702f79a69dee0fDCe4C1",
      "gasPrice": {
        "_hex": "0xce1ae8876"
      },
      "gasLimit": {
        "_hex": "0x5208"
      },
      "to": "0x32Be343B94f860124dC4fEe278FDCBD38C102D88",
      "value": {
        "_hex": "0x6d28aa754e0de400"
      },
      "nonce": 2,
      "data": "0x",
      "r": "0xa39495372578d104f22e2c7e851cf870fdadde85788378fd090194afe307a213",
      "s": "0x15685c6aed076567c63e7dfe5fb7ec3f1b6d82e9d7c3b3608723bb10ebeb23df",
      "v": 28,
      "creates": null,
      "raw": "0xf86c02850ce1ae88768252089432be343b94f860124dc4fee278fdcbd38c102d88886d28aa754e0de400801ca0a39495372578d104f22e2c7e851cf870fdadde85788378fd090194afe307a213a015685c6aed076567c63e7dfe5fb7ec3f1b6d82e9d7c3b3608723bb10ebeb23df",
      "networkId": 0,
      "chainId": 0
    }
  ]
}