{
  "hash": "0x2d9912f80595969a76d648f05c6e08ef17a79b29e2e71353c686a0fae123ec91",
  "parentHash": "0x45fbbc635d906aaf6fdc70ab08cc29383d1aea096d3a7f3076db6d678737fb09",
  "number": 83685,
  "timestamp": 1439539067,
  "nonce": "0xfc3fd2733454b81b",
  "difficulty": 2445547557278,
  "gasLimit": {
    "_hex": "0x2fefd8"
  },
  "gasUsed": {
    "_hex": "0x54f21"
  },
  "miner": "0xe090Ffdced499691fA9379752a59F8A058c1eE4A",
  "extraData": "0x476574682f76312e302e312f6c696e75782f676f312e342e32",
  "transactions": [
    {
      "hash": "0xf5609e598da1fb270227ab2e6ca19b37094e3b83d35d8e6cd0f604eab2056d2f",
      "blockHash": "0x2d9912f80595969a76d648f05c6e08ef17a79b29e2e71353c686a0fae123ec91",
      "blockNumber": 83685,
      "transactionIndex": 0,
      "confirmations": null,
      "from": "0xE30fBFf0F73d76643501B77772aBc74377dacE64",
      "gasPrice": {
        "_hex": "0xe0c4d88e3"
      },
      "gasLimit": {
        "_hex": "0xf4240"
      },
      "to": null,
      "value": {
        "_hex": "0x0"
      },
      "nonce": 3,
      "data": "0x60606040526040516020806104278339016040526060805190602001505b33600060006101000a81548173ffffffffffffffffffffffffffffffffffffffff021916908302179055508060016000506000600060009054906101000a900473ffffffffffffffffffffffffffffffffffffffff1673ffffffffffffffffffffffffffffffffffffffff168152602001908152602001600020600050819055505b50610378806100af6000396000f30060606040526000357c01000000000000000000000000000000000000000000000000000000009004806341c0e1b51461005a578063a0712d6814610067578063d0679d341461007a578063e3d670d7146100a757610058565b005b6100656004506100e9565b005b61007860048035906020015061017d565b005b610091600480359060200180359060200150610236565b6040518082815260200191505060405180910390f35b6100b86004803590602001506100ce565b6040518082815260200191505060405180910390f35b60016000506020528060005260406000206000915090505481565b600060009054906101000a900473ffffffffffffffffffffffffffffffffffffffff1673ffffffffffffffffffffffffffffffffffffffff163373ffffffffffffffffffffffffffffffffffffffff16141561017a57600060009054906101000a900473ffffffffffffffffffffffffffffffffffffffff1673ffffffffffffffffffffffffffffffffffffffff16ff5b5b565b600060009054906101000a900473ffffffffffffffffffffffffffffffffffffffff1673ffffffffffffffffffffffffffffffffffffffff163373ffffffffffffffffffffffffffffffffffffffff161415610232578060016000506000600060009054906101000a900473ffffffffffffffffffffffffffffffffffffffff1673ffffffffffffffffffffffffffffffffffffffff1681526020019081526020016000206000828282505401925050819055505b5b50565b600081600160005060003373ffffffffffffffffffffffffffffffffffffffff168152602001908152602001600020600050541015156103685781600160005060003373ffffffffffffffffffffffffffffffffffffffff16815260200190815260200160002060008282825054039250508190555081600160005060008573ffffffffffffffffffffffffffffffffffffffff1681526020019081526020016000206000828282505401925050819055507f93eb3c629eb575edaf0252e4f9fc0c5ccada50496f8c1d32f0f93a65a8257eb5338484604051808473ffffffffffffffffffffffffffffffffffffffff1681526020018373ffffffffffffffffffffffffffffffffffffffff168152602001828152602001935050505060405180910390a16001905061037256610371565b60009050610372565b5b929150505600000000000000000000000000000000000000000000000000000000000f4240",
      "r": "0x783637745aa5efefa7fad245a6de9195a9ba770ac432dad784fa760d2aed090d",
      "s": "0x3c3757573ab0e4d888c1af3ceb8a35cac4b481dd01a8e8481c26bd2283e37c16",
      "v": 27,
      "creates": "0x0a105Bf0e4eD0D55F1867694ACa81cC84e613d32",
      "raw": "0xf9049a03850e0c4d88e3830f42408080b9044760606040526040516020806104278339016040526060805190602001505b33600060006101000a81548173ffffffffffffffffffffffffffffffffffffffff021916908302179055508060016000506000600060009054906101000a900473ffffffffffffffffffffffffffffffffffffffff1673ffffffffffffffffffffffffffffffffffffffff168152602001908152602001600020600050819055505b50610378806100af6000396000f30060606040526000357c01000000000000000000000000000000000000000000000000000000009004806341c0e1b51461005a578063a0712d6814610067578063d0679d341461007a578063e3d670d7146100a757610058565b005b6100656004506100e9565b005b61007860048035906020015061017d565b005b610091600480359060200180359060200150610236565b6040518082815260200191505060405180910390f35b6100b86004803590602001506100ce565b6040518082815260200191505060405180910390f35b60016000506020528060005260406000206000915090505481565b600060009054906101000a900473ffffffffffffffffffffffffffffffffffffffff1673ffffffffffffffffffffffffffffffffffffffff163373ffffffffffffffffffffffffffffffffffffffff16141561017a57600060009054906101000a900473ffffffffffffffffffffffffffffffffffffffff1673ffffffffffffffffffffffffffffffffffffffff16ff5b5b565b600060009054906101000a900473ffffffffffffffffffffffffffffffffffffffff1673ffffffffffffffffffffffffffffffffffffffff163373ffffffffffffffffffffffffffffffffffffffff161415610232578060016000506000600060009054906101000a900473ffffffffffffffffffffffffffffffffffffffff1673ffffffffffffffffffffffffffffffffffffffff1681526020019081526020016000206000828282505401925050819055505b5b50565b600081600160005060003373ffffffffffffffffffffffffffffffffffffffff168152602001908152602001600020600050541015156103685781600160005060003373ffffffffffffffffffffffffffffffffffffffff16815260200190815260200160002060008282825054039250508190555081600160005060008573ffffffffffffffffffffffffffffffffffffffff1681526020019081526020016000206000828282505401925050819055507f93eb3c629eb575edaf0252e4f9fc0c5ccada50496f8c1d32f0f93a65a8257eb5338484604051808473ffffffffffffffffffffffffffffffffffffffff1681526020018373ffffffffffffffffffffffffffffffffffffffff168152602001828152602001935050505060405180910390a16001905061037256610371565b60009050610372565b5b929150505600000000000000000000000000000000000000000000000000000000000f42401ba0783637745aa5efefa7fad245a6de9195a9ba770ac432dad784fa760d2aed090da03c3757573ab0e4d888c1af3ceb8a35cac4b481dd01a8e8481c26bd2283e37c16",
      "networkId": 0,
      "chainId": 0
    },
    {
      "hash": "0x0b31166c2647481b00469363d64e1e5f78a9d9f19cce4c7c9b6fb72e374779e9",
      "blockHash": "0x2d9912f80595969a76d648f05c6e08ef17a79b29e2e71353c686a0fae123ec91",
      "blockNumber": 83685,
      "transactionIndex": 1,
      "confirmations": null,
      "from": "0x2910543Af39abA0Cd09dBb2D50200b3E800A63D2",
      "gasPrice": {
        "_hex": "0xd2139fa28"
      },
      "gasLimit": {
        "_hex": "0x5208"
      },
      "to": "0xEdD03B3afA58aaE8C5732fF58e26099bc5C10659",
      "value": {
        "_hex": "0x20869a71971a7f8000"
      },
      "nonce": 530,
      "data": "0x",
      "r": "0x408d062c51e84289598558fabd2659b7e34060b1839c6da4d41d92c41393d6a1",
      "s": "0x05ee4da28e0b1dcd4c3b8b4cac5ad50ec4894f19d437751ac3e83d2ceade0214",
      "v": 28,
      "creates": null,
      "raw": "0xf86f820212850d2139fa2882520894edd03b3afa58aae8c5732ff58e26099bc5c106598920869a71971a7f8000801ca0408d062c51e84289598558fabd2659b7e34060b1839c6da4d41d92c41393d6a1a005ee4da28e0b1dcd4c3b8b4cac5ad50ec4894f19d437751ac3e83d2ceade0214",
      "networkId": 0,
      "chainId": 0
    },
    {
      "hash": "0xb339a119449bd402da5ed70b8a0abc0363599307ec204741a223c4bcbbbeaa85",
      "blockHash": "0x2d9912f80595969a76d648f05c6e08ef17a79b29e2e71353c686a0fae123ec91",
      "blockNumber": 83685,
      "transactionIndex": 2,
      "confirmations": null,
      "from": "0xEdD03B3afA58aaE8C5732fF58e26099bc5C10659",
      "gasPrice": {
        "_hex": "0xba43b7400"
      },
      "gasLimit": {
        "_hex": "0x5208"
      },
      "to": "0xC47Aaa860008be6f65B58c6C6E02a84e666EfE31",
      "value": {
        "_hex": "0x1dd0b307883bf3e000"
      },
      "nonce": 2,
      "data": "0x",
      "r": "0x1ed780c28154b8c07129c28bc18d0f45a98298874117a8b18625a52600edd93d",
      "s": "0x5b35f85092bf7298492ab0fb3e4cd28f425a75200c1967c9ea9c06a36d903360",
      "v": 28,
      "creates": null,
      "raw": "0xf86d02850ba43b740082520894c47aaa860008be6f65b58c6c6e02a84e666efe31891dd0b307883bf3e000801ca01ed780c28154b8c07129c28bc18d0f45a98298874117a8b18625a52600edd93da05b35f85092bf7298492ab0fb3e4cd28f425a75200c1967c9ea9c06a36d903360",
      "networkId": 0,
      "chainId": 0
    }
  ]
}