{
  "hash": "0xaf926dc32783ce8a744e5a718f478c751e7104c3084497cf9583acfa436390c2",
  "parentHash": "0x3dac73f1271094ade88b93bd3a1d3b1ba21bbff3453a4eea73ce3c765bf70cc9",
  "number": 77772,
  "timestamp": 1439442717,
  "nonce": "0x1b4d465e2350beee",
  "difficulty": 2266674478655,
  "gasLimit": {
    "_hex": "0x2fefd8"
  },
  "gasUsed": {
    "_hex": "0xa410"
  },
  "miner": "0xF2d2AfF1320476cb8C6b607199D23175cc595693",
  "extraData": "0x476574682f76312e302e312f77696e646f77732f676f312e342e32",
  "transactions": [
    {
      "hash": "0x99a09cc1126e5f4dace44fdd733c5a048f8ffbff11d3ff8a846ca9ecd70e0bf0",
      "blockHash": "0xaf926dc32783ce8a744e5a718f478c751e7104c3084497cf9583acfa436390c2",
      "blockNumber": 77772,
      "transactionIndex": 0,
      "confirmations": null,
      "from": "0xA10C59651885FeAaac91F871082a23BBbaBeDfCf",
      "gasPrice": {
        "_hex": "0x107b19081d2"
      },
      "gasLimit": {
        "_hex": "0x5208"
      },
      "to": "0x4c74B6F32c9680aCB5Fe0e72B7Aa95C612540A04",
      "value": {
        "_hex": "0x2b5e3af16b1880000"
      },
      "nonce": 21,
      "data": "0x",
      "r": "0xfde484909be952dabdcc1f765cc3b9d57f483e000cb190c0f3d0ef731a26d102",
      "s": "0x1cbcec08e6ccb0ecf3a61a5b7ebef13a1835802c5a1a5a7823f9352c2d22fb53",
      "v": 28,
      "creates": null,
      "raw": "0xf86e15860107b19081d2825208944c74b6f32c9680acb5fe0e72b7aa95c612540a048902b5e3af16b1880000801ca0fde484909be952dabdcc1f765cc3b9d57f483e000cb190c0f3d0ef731a26d102a01cbcec08e6ccb0ecf3a61a5b7ebef13a1835802c5a1a5a7823f9352c2d22fb53",
      "networkId": 0,
      "chainId": 0
    },
    {
      "hash": "0xc78f6bcf471a67264e587589c37a82b2a1f504920d240f70be50ae8e3f264a33",
      "blockHash": "0xaf926dc32783ce8a744e5a718f478c751e7104c3084497cf9583acfa436390c2",
      "blockNumber": 77772,
      "transactionIndex": 1,
      "confirmations": null,
      "from": "0x96811Ad897894eC178872117C8BF2f03971A393B",
      "gasPrice": {
        "_hex": "0xdf18a80cc"
      },
      "gasLimit": {
        "_hex": "0x5208"
      },
      "to": "0x32Be343B94f860124dC4fEe278FDCBD38C102D88",
      "value": {
        "_hex": "0x455f19b5cb973800"
      },
      "nonce": 20,
      "data": "0x",
      "r": "0x80451f45cc703a3909f7f66cc05542504061dab7ca52139154b3077cfdf17b9e",
      "s": "0x11b56a9e9329ee1bac46ff619ed310dc8107bd53effbe4ad21719d045fcb80b0",
      "v": 27,
      "creates": null,
      "raw": "0xf86c14850df18a80cc8252089432be343b94f860124dc4fee278fdcbd38c102d8888455f19b5cb973800801ba080451f45cc703a3909f7f66cc05542504061dab7ca52139154b3077cfdf17b9ea011b56a9e9329ee1bac46ff619ed310dc8107bd53effbe4ad21719d045fcb80b0",
      "networkId": 0,
      "chainId": 0
    }
  ]
}