{
  "hash": "0xe95c87c10ccaff7418adbff61bfed6ffb2db87bf7f0c9cbb6f8ee592c14d98d1",
  "parentHash": "0xa576a0b5cdd0e8ab440a8deaad89ee1a570bd20eeff44f75704a0b7a4f12593e",
  "number": 109495,
  "timestamp": 1439957505,
  "nonce": "0x8a46775c1e71f6e4",
  "difficulty": 4453682872669,
  "gasLimit": {
    "_hex": "0x2fefd8"
  },
  "gasUsed": {
    "_hex": "0x5208"
  },
  "miner": "0xe6A7a1d47ff21B6321162AEA7C6CB457D5476Bca",
  "extraData": "0x476574682f76312e302e312d38326566323666362f6c696e75782f676f312e34",
  "transactions": [
    {
      "hash": "0x9a5337aa20126ea0ce294f41e44fe98fd11429b81dada196fdd66bf43e5a52e1",
      "blockHash": "0xe95c87c10ccaff7418adbff61bfed6ffb2db87bf7f0c9cbb6f8ee592c14d98d1",
      "blockNumber": 109495,
      "transactionIndex": 0,
      "confirmations": null,
      "from": "0x120A270bbC009644e35F0bB6ab13f95b8199c4ad",
      "gasPrice": {
        "_hex": "0xd33601c02"
      },
      "gasLimit": {
        "_hex": "0x3d090"
      },
      "to": "0xbE285A564cc713aFBDdc5aB18432D7AeEa61599e",
      "value": {
        "_hex": "0x5852ccd0a9aec800"
      },
      "nonce": 861,
      "data": "0x",
      "r": "0x75d3bbc7dbd76c76fdadf8a8002da3acbab021f87023b6fd6c98d8f8e0dee16d",
      "s": "0x6c8ff26f756b3c523774cc8ad1f4733e8fdb2f2e94787d607a1f7f824e3dbfdc",
      "v": 28,
      "creates": null,
      "raw": "0xf86f82035d850d33601c028303d09094be285a564cc713afbddc5ab18432d7aeea61599e885852ccd0a9aec800801ca075d3bbc7dbd76c76fdadf8a8002da3acbab021f87023b6fd6c98d8f8e0dee16da06c8ff26f756b3c523774cc8ad1f4733e8fdb2f2e94787d607a1f7f824e3dbfdc",
      "networkId": 0,
      "chainId": 0
    }
  ]
}