{
  "hash": "0xd6abaabb82ea6272a765c72e8eb60336f1438e9774bec60a2b326e3b0fd2c777",
  "parentHash": "0xabd097db2d2424945e1b7ed95e2880f37662b20db5bc67a070cc416b5eadbc37",
  "number": 59815,
  "timestamp": 1439144130,
  "nonce": "0x39fc499545965d16",
  "difficulty": 1722193761430,
  "gasLimit": {
    "_hex": "0x2fefd8"
  },
  "gasUsed": {
    "_hex": "0x5208"
  },
  "miner": "0x31995C46B15C84523cDEE26f49A681b8237e43F5",
  "extraData": "0x476574682f76312e302e312f77696e646f77732f676f312e342e32",
  "transactions": [
    {
      "hash": "0xea0c2dccc0f18c240b600aa55404a20fb2ac48284afd4e1f1958a5184115e601",
      "blockHash": "0xd6abaabb82ea6272a765c72e8eb60336f1438e9774bec60a2b326e3b0fd2c777",
      "blockNumber": 59815,
      "transactionIndex": 0,
      "confirmations": null,
      "from": "0x123843545FB525C8E134c9A5F15ADA6865cc3848",
      "gasPrice": {
        "_hex": "0xd8e023aba"
      },
      "gasLimit": {
        "_hex": "0x7530"
      },
      "to": "0xa9f5E7bf6Cbf6fEc55B30850Eb492b47A376d050",
      "value": {
        "_hex": "0xda933d8d8c6700000"
      },
      "nonce": 5,
      "data": "0x",
      "r": "0xc3c0b21346719d881c880850fefedd0c7c4a5107dc315ad53cde3ec00eca6f93",
      "s": "0x77f465ccc9be2ec97e422919a36e137861c0697c11292aaf69b9765af53d2926",
      "v": 27,
      "creates": null,
      "raw": "0xf86d05850d8e023aba82753094a9f5e7bf6cbf6fec55b30850eb492b47a376d050890da933d8d8c6700000801ba0c3c0b21346719d881c880850fefedd0c7c4a5107dc315ad53cde3ec00eca6f93a077f465ccc9be2ec97e422919a36e137861c0697c11292aaf69b9765af53d2926",
      "networkId": 0,
      "chainId": 0
    }
  ]
}