{
  "hash": "0xdd677fde81c00f73f53e0bfd1b4721e6e659f7d7e69b3ccdbe8b4a6239fb3641",
  "parentHash": "0xf3f9f6c27ef77995bf9c034df622713bae88610a5115780a0dc69a69aa693297",
  "number": 71267,
  "timestamp": 1439333475,
  "nonce": "0x8c67b3c7439d2d72",
  "difficulty": 2148758005747,
  "gasLimit": {
    "_hex": "0x2fefd8"
  },
  "gasUsed": {
    "_hex": "0xae73"
  },
  "miner": "0x88D74a59454F6cF3B51ef6b9136AFb6b9D405A88",
  "extraData": "0x476574682f76312e302e312d37666266393930632f6c696e75782f676f312e34",
  "transactions": [
    {
      "hash": "0x2e2ba46bc49a3ae5aa2b3a359ca27469507afa07a94e4a82206190b49ba473e0",
      "blockHash": "0xdd677fde81c00f73f53e0bfd1b4721e6e659f7d7e69b3ccdbe8b4a6239fb3641",
      "blockNumber": 71267,
      "transactionIndex": 0,
      "confirmations": null,
      "from": "0x17580B766f7453525ca4C6A88b01b50570EA088C",
      "gasPrice": {
        "_hex": "0xd43dbc083"
      },
      "gasLimit": {
        "_hex": "0x61a80"
      },
      "to": "0x5Fe5B7546D1628f7348B023A0393de1FC825A4fD",
      "value": {
        "_hex": "0x1bc16d674ec80000"
      },
      "nonce": 138,
      "data": "0xb595b8b50000000000000000000000000000000000000000000000000000000000000000",
      "r": "0xbddd013c49f3a083abe7286182265a2d2ee3a1fcafda637274ce3c5e8901cbac",
      "s": "0x2293f30134983bb6768eaa0c64fcc0c064d16143558f27484167999e94b2b7da",
      "v": 28,
      "creates": null,
      "raw": "0xf892818a850d43dbc08383061a80945fe5b7546d1628f7348b023a0393de1fc825a4fd881bc16d674ec80000a4b595b8b500000000000000000000000000000000000000000000000000000000000000001ca0bddd013c49f3a083abe7286182265a2d2ee3a1fcafda637274ce3c5e8901cbaca02293f30134983bb6768eaa0c64fcc0c064d16143558f27484167999e94b2b7da",
      "networkId": 0,
      "chainId": 0
    }
  ]
}