{
  "hash": "0x5939fc74d16b1eec811ce26f0e3cf958a44e3eeb83d83ddf9ac6b6d420ef5cd4",
  "parentHash": "0xfa4a78c4a570b09d558581b35190c47b03a4a3fd792c98a6cb0cf814f3237866",
  "number": 73616,
  "timestamp": 1439371926,
  "nonce": "0x29908b55e0ac72dd",
  "difficulty": 2228282428926,
  "gasLimit": {
    "_hex": "0x2fefd8"
  },
  "gasUsed": {
    "_hex": "0x5208"
  },
  "miner": "0x1B7047b4338ACf65bE94C1A3e8c5c9338ad7d67C",
  "extraData": "0x476574682f76312e302e312d38326566323666362f6c696e75782f676f312e34",
  "transactions": [
    {
      "hash": "0x1b39982ab43319549d8f1de7a39bdaebcf63326d2ca55037a4be11d8835b35e2",
      "blockHash": "0x5939fc74d16b1eec811ce26f0e3cf958a44e3eeb83d83ddf9ac6b6d420ef5cd4",
      "blockNumber": 73616,
      "transactionIndex": 0,
      "confirmations": null,
      "from": "0xD2D6E7efc52B33B4daf79E3920655832fBC92105",
      "gasPrice": {
        "_hex": "0xd4dfa5aef"
      },
      "gasLimit": {
        "_hex": "0x15f90"
      },
      "to": "0x62b0559efe3a073EDfe78bBe7CB491A6C65F0806",
      "value": {
        "_hex": "0x1bc16d674ec80000"
      },
      "nonce": 0,
      "data": "0x",
      "r": "0x7342819bfcd39a4351c3fc56ac7b9a258f69a9998d5704fde6d0293e0d939276",
      "s": "0x2b113fa0a5377b0069a9461ec830e2e1d7173dda4fc4e6487cf16d0884eec49a",
      "v": 27,
      "creates": null,
      "raw": "0xf86d80850d4dfa5aef83015f909462b0559efe3a073edfe78bbe7cb491a6c65f0806881bc16d674ec80000801ba07342819bfcd39a4351c3fc56ac7b9a258f69a9998d5704fde6d0293e0d939276a02b113fa0a5377b0069a9461ec830e2e1d7173dda4fc4e6487cf16d0884eec49a",
      "networkId": 0,
      "chainId": 0
    }
  ]
}