{
  "hash": "0x235d9647c6029065287c4cdf31de1b618af8d23185f4d08f1481229239dc4ba6",
  "parentHash": "0x77abcd1ed0f99c4122e62adca4409f175f4c1fc545696d882d0c761bc764313c",
  "number": 90971,
  "timestamp": 1439648201,
  "nonce": "0x9e3d03b14f447891",
  "difficulty": 3425649676896,
  "gasLimit": {
    "_hex": "0x2fefd8"
  },
  "gasUsed": {
    "_hex": "0x5208"
  },
  "miner": "0x58c444CC2658bB485F7985d5889b1d5857614F31",
  "extraData": "0x",
  "transactions": [
    {
      "hash": "0xac40850dc644dbf79c9081a9814870ac4a5c1e677ab705790533e75781ec72ed",
      "blockHash": "0x235d9647c6029065287c4cdf31de1b618af8d23185f4d08f1481229239dc4ba6",
      "blockNumber": 90971,
      "transactionIndex": 0,
      "confirmations": null,
      "from": "0x2910543Af39abA0Cd09dBb2D50200b3E800A63D2",
      "gasPrice": {
        "_hex": "0xd5982a707"
      },
      "gasLimit": {
        "_hex": "0x5208"
      },
      "to": "0x19ae27E1b61445EB9f27821A5eB4b3e957319e7e",
      "value": {
        "_hex": "0xd64ad368a287438000"
      },
      "nonce": 793,
      "data": "0x",
      "r": "0x4f27798d926a77298d8d0d472cd3af1109bc17ff6833bf04f431a987ef5fea90",
      "s": "0x146bbe1c73714d88094bf95f408f9993fe12a4b3ffed5d7b1e3990d64b7d17b0",
      "v": 28,
      "creates": null,
      "raw": "0xf86f820319850d5982a7078252089419ae27e1b61445eb9f27821a5eb4b3e957319e7e89d64ad368a287438000801ca04f27798d926a77298d8d0d472cd3af1109bc17ff6833bf04f431a987ef5fea90a0146bbe1c73714d88094bf95f408f9993fe12a4b3ffed5d7b1e3990d64b7d17b0",
      "networkId": 0,
      "chainId": 0
    }
  ]
}