{
  "hash": "0x120d034f0ac5805be81cd4916dc4eca9abc7b8786141d81b4b62c3b7a9ee0801",
  "parentHash": "0x64eca2f0b638b2fcbb5448934ad76981e12d7a0140df26505a41730c25ccad8b",
  "number": 106395,
  "timestamp": 1439903440,
  "nonce": "0x10ff99fb75ec5bc9",
  "difficulty": 4485889719838,
  "gasLimit": {
    "_hex": "0x2fefd8"
  },
  "gasUsed": {
    "_hex": "0xc0db"
  },
  "miner": "0x790b8a3cE86E707ED0eD32bF89B3269692a23CC1",
  "extraData": "0xd783010001844765746887676f312e342e32856c696e7578",
  "transactions": [
    {
      "hash": "0xd48454dbfbb92d7c7ef0f9b5df2aa6ce52bace2498c81cb302aa4f56d20de148",
      "blockHash": "0x120d034f0ac5805be81cd4916dc4eca9abc7b8786141d81b4b62c3b7a9ee0801",
      "blockNumber": 106395,
      "transactionIndex": 0,
      "confirmations": null,
      "from": "0x87C5B5874A18B4306DF8a752a6C8cc3E82daFc19",
      "gasPrice": {
        "_hex": "0x100914117df"
      },
      "gasLimit": {
        "_hex": "0x493e0"
      },
      "to": "0xD79B4C6791784184e2755B2fC1659eaaB0f80456",
      "value": {
        "_hex": "0x0"
      },
      "nonce": 346,
      "data": "0xbd66528a6b6b6b0000000000000000000000000000000000000000000000000000000000",
      "r": "0x7c40a553356cf32bb62be54d2c0a32901cd276e7051b23c36352a6e57e88919f",
      "s": "0x1e728845e721ce57749f0ee0b72d3a1a59a9e90c84b0fed3b91e8cf6701deceb",
      "v": 27,
      "creates": null,
      "raw": "0xf88c82015a860100914117df830493e094d79b4c6791784184e2755b2fc1659eaab0f8045680a4bd66528a6b6b6b00000000000000000000000000000000000000000000000000000000001ba07c40a553356cf32bb62be54d2c0a32901cd276e7051b23c36352a6e57e88919fa01e728845e721ce57749f0ee0b72d3a1a59a9e90c84b0fed3b91e8cf6701deceb",
      "networkId": 0,
      "chainId": 0
    },
    {
      "hash": "0x22fbbcea32d900d28c381939abfbe522dd13e8a0635221cc8563d19040e9a86b",
      "blockHash": "0x120d034f0ac5805be81cd4916dc4eca9abc7b8786141d81b4b62c3b7a9ee0801",
      "blockNumber": 106395,
      "transactionIndex": 1,
      "confirmations": null,
      "from": "0xbcc72eA5bC902a76b1A86a7B02Dc73fe8055D1C7",
      "gasPrice": {
        "_hex": "0xba43b7400"
      },
      "gasLimit": {
        "_hex": "0x5208"
      },
      "to": "0xC47Aaa860008be6f65B58c6C6E02a84e666EfE31",
      "value": {
        "_hex": "0xf9c91da998046000"
      },
      "nonce": 2,
      "data": "0x",
      "r": "0x5e2f0b56c0d61001d519996fea50bbe2461343c164eb5f57eaf1dacf492f5501",
      "s": "0x726fddeb786fca614db73b99a461c5e8820f52f6470e021159a4d0e5cc2c1d43",
      "v": 27,
      "creates": null,
      "raw": "0xf86c02850ba43b740082520894c47aaa860008be6f65b58c6c6e02a84e666efe3188f9c91da998046000801ba05e2f0b56c0d61001d519996fea50bbe2461343c164eb5f57eaf1dacf492f5501a0726fddeb786fca614db73b99a461c5e8820f52f6470e021159a4d0e5cc2c1d43",
      "networkId": 0,
      "chainId": 0
    }
  ]
}