{
  "hash": "0x923b5f921e46f5987e669bcee41d95e2ce125eff6e532c4047255e506326ebf7",
  "parentHash": "0x9d36e6700383be6524bc9d9b0b91a0d833170f91f1011841255817201d408051",
  "number": 80792,
  "timestamp": 1439490904,
  "nonce": "0x96e2649596068f57",
  "difficulty": 2452371036625,
  "gasLimit": {
    "_hex": "0x2fefd8"
  },
  "gasUsed": {
    "_hex": "0x5208"
  },
  "miner": "0x0193d941b50d91BE6567c7eE1C0Fe7AF498b4137",
  "extraData": "0x4a5ace9e4e",
  "transactions": [
    {
      "hash": "0x48eea56a0ab6fc8b644d1853c8e6ea796e2e5d6ee67f82fd90038e76f522f226",
      "blockHash": "0x923b5f921e46f5987e669bcee41d95e2ce125eff6e532c4047255e506326ebf7",
      "blockNumber": 80792,
      "transactionIndex": 0,
      "confirmations": null,
      "from": "0xcb101DE19B809Da93093Cb290F28393D8c639473",
      "gasPrice": {
        "_hex": "0xba43b7400"
      },
      "gasLimit": {
        "_hex": "0x5208"
      },
      "to": "0xC47Aaa860008be6f65B58c6C6E02a84e666EfE31",
      "value": {
        "_hex": "0xb0d1a1d89b64f8dc0"
      },
      "nonce": 2,
      "data": "0x",
      "r": "0x54b25e4c3d890dc8d6ccd60d2e860138076715d1817b82e603b8cd9a12b12f66",
      "s": "0x5dffc11a0a1ce47c751ceedcf5db87f970896627241665e0edb32f59a6311240",
      "v": 28,
      "creates": null,
      "raw": "0xf86d02850ba43b740082520894c47aaa860008be6f65b58c6c6e02a84e666efe31890b0d1a1d89b64f8dc0801ca054b25e4c3d890dc8d6ccd60d2e860138076715d1817b82e603b8cd9a12b12f66a05dffc11a0a1ce47c751ceedcf5db87f970896627241665e0edb32f59a6311240",
      "networkId": 0,
      "chainId": 0
    }
  ]
}