{
  "hash": "0x2ce8ab7d1399f05f455661d1ed0cc29452fe0ec22d751e178913aa7fb5e6faeb",
  "parentHash": "0x3d90492e9946aa66239b2b00c0f72b45a8487d7d5c7d8ca67138d9913c5d6bb7",
  "number": 84894,
  "timestamp": 1439555907,
  "nonce": "0xd2be920aec00c112",
  "difficulty": 2673745770163,
  "gasLimit": {
    "_hex": "0x2fe3db"
  },
  "gasUsed": {
    "_hex": "0x5208"
  },
  "miner": "0xe090Ffdced499691fA9379752a59F8A058c1eE4A",
  "extraData": "0x476574682f76312e302e312f6c696e75782f676f312e342e32",
  "transactions": [
    {
      "hash": "0xe38f27aae841720c6ac38773212e2b7ee30a36c704d0ac308ec292d1dc211ec9",
      "blockHash": "0x2ce8ab7d1399f05f455661d1ed0cc29452fe0ec22d751e178913aa7fb5e6faeb",
      "blockNumber": 84894,
      "transactionIndex": 0,
      "confirmations": null,
      "from": "0x5B7970CD176308e0Ffd0358e8B14aaF4A19BA544",
      "gasPrice": {
        "_hex": "0xd829211eb"
      },
      "gasLimit": {
        "_hex": "0x15f90"
      },
      "to": "0x663F37156fa35DBA128c9682f13D515b68002002",
      "value": {
        "_hex": "0x4563918244f40000"
      },
      "nonce": 2,
      "data": "0x",
      "r": "0x94791262ac591054efee061b4b37d5a360c72cef59be1831d8f01620701615b6",
      "s": "0x6b6effc02880ea3fd53cdf7ffd75c72aac3fa3e5af4752a4675a8d734956f659",
      "v": 28,
      "creates": null,
      "raw": "0xf86d02850d829211eb83015f9094663f37156fa35dba128c9682f13d515b68002002884563918244f40000801ca094791262ac591054efee061b4b37d5a360c72cef59be1831d8f01620701615b6a06b6effc02880ea3fd53cdf7ffd75c72aac3fa3e5af4752a4675a8d734956f659",
      "networkId": 0,
      "chainId": 0
    }
  ]
}