{
  "hash": "0xdc750f7dfc5b229232948003667392004824b7d626bae44f2f2ca89d322b6ee8",
  "parentHash": "0x971e88cd61ef14e9e52c4193ce3de78fcccc72d0886da34a5f39e329db4fa110",
  "number": 72150,
  "timestamp": 1439348124,
  "nonce": "0x092b6a47a95c3c0d",
  "difficulty": 2174919764281,
  "gasLimit": {
    "_hex": "0x2fefd8"
  },
  "gasUsed": {
    "_hex": "0x1e512"
  },
  "miner": "0xe6A7a1d47ff21B6321162AEA7C6CB457D5476Bca",
  "extraData": "0x476574682f76312e302e312d38326566323666362f6c696e75782f676f312e34",
  "transactions": [
    {
      "hash": "0x9d85e5d509ea4134ac476c7ba176ab347990e83e9a27a1aef723d31656128ef2",
      "blockHash": "0xdc750f7dfc5b229232948003667392004824b7d626bae44f2f2ca89d322b6ee8",
      "blockNumber": 72150,
      "transactionIndex": 0,
      "confirmations": null,
      "from": "0x17580B766f7453525ca4C6A88b01b50570EA088C",
      "gasPrice": {
        "_hex": "0xd98cbcb7c"
      },
      "gasLimit": {
        "_hex": "0x61a80"
      },
      "to": "0x5Fe5B7546D1628f7348B023A0393de1FC825A4fD",
      "value": {
        "_hex": "0x53444835ec580000"
      },
      "nonce": 329,
      "data": "0xb595b8b50000000000000000000000000000000000000000000000000000000000000001",
      "r": "0xeca1fd838065dea2ec656cb71aa7439cbb7a427e85d4c74a9f070a03e09a8c77",
      "s": "0x48cfab49497dd04b91dd4c4066914b0db47df360206e50944144fa098c7b0e95",
      "v": 27,
      "creates": null,
      "raw": "0xf893820149850d98cbcb7c83061a80945fe5b7546d1628f7348b023a0393de1fc825a4fd8853444835ec580000a4b595b8b500000000000000000000000000000000000000000000000000000000000000011ba0eca1fd838065dea2ec656cb71aa7439cbb7a427e85d4c74a9f070a03e09a8c77a048cfab49497dd04b91dd4c4066914b0db47df360206e50944144fa098c7b0e95",
      "networkId": 0,
      "chainId": 0
    },
    {
      "hash": "0x0fbca2eb613c71734d93db2ad6c19a2d36c5ae5443ef8c1e59fc6eee6d678af2",
      "blockHash": "0xdc750f7dfc5b229232948003667392004824b7d626bae44f2f2ca89d322b6ee8",
      "blockNumber": 72150,
      "transactionIndex": 1,
      "confirmations": null,
      "from": "0x17580B766f7453525ca4C6A88b01b50570EA088C",
      "gasPrice": {
        "_hex": "0xd98cbcb7c"
      },
      "gasLimit": {
        "_hex": "0x61a80"
      },
      "to": "0x5Fe5B7546D1628f7348B023A0393de1FC825A4fD",
      "value": {
        "_hex": "0x53444835ec580000"
      },
      "nonce": 330,
      "data": "0xb595b8b50000000000000000000000000000000000000000000000000000000000000001",
      "r": "0xe889dd5c70d3d82fd77cd56f927db072bbb50dde4bf6e2535a6c4840118ba5ca",
      "s": "0x419baeda778ac690b93bd55190fb79e656ea480134d8cde96c0245843faf7269",
      "v": 27,
      "creates": null,
      "raw": "0xf89382014a850d98cbcb7c83061a80945fe5b7546d1628f7348b023a0393de1fc825a4fd8853444835ec580000a4b595b8b500000000000000000000000000000000000000000000000000000000000000011ba0e889dd5c70d3d82fd77cd56f927db072bbb50dde4bf6e2535a6c4840118ba5caa0419baeda778ac690b93bd55190fb79e656ea480134d8cde96c0245843faf7269",
      "networkId": 0,
      "chainId": 0
    },
    {
      "hash": "0x151c100b4cbf6a050f67571f0ef549167dda27edcc6a101045de8b5f69730ac4",
      "blockHash": "0xdc750f7dfc5b229232948003667392004824b7d626bae44f2f2ca89d322b6ee8",
      "blockNumber": 72150,
      "transactionIndex": 2,
      "confirmations": null,
      "from": "0x18E113D8177c691A61Be785852Fa5Bb47aEeBdAf",
      "gasPrice": {
        "_hex": "0xd531cbb2d"
      },
      "gasLimit": {
        "_hex": "0x7a120"
      },
      "to": "0xc2ac6849Aec3938FB8c9B36F1c07be76f766637E",
      "value": {
        "_hex": "0xde0b6b3a7640000"
      },
      "nonce": 1,
      "data": "0x4f013184",
      "r": "0x0e2ce2d4cb1d8e64b6468d76b3c224dbbde341d61edfca959960e469253d0eda",
      "s": "0x4ac0bf161107bc9bf86e15c32f532ffdf972ee1724fedae8226adaeca4bc53da",
      "v": 27,
      "creates": null,
      "raw": "0xf87101850d531cbb2d8307a12094c2ac6849aec3938fb8c9b36f1c07be76f766637e880de0b6b3a7640000844f0131841ba00e2ce2d4cb1d8e64b6468d76b3c224dbbde341d61edfca959960e469253d0edaa04ac0bf161107bc9bf86e15c32f532ffdf972ee1724fedae8226adaeca4bc53da",
      "networkId": 0,
      "chainId": 0
    }
  ]
}