{
  "hash": "0xf66f2a6cc4be737b93f1a4d9a5082fe73a5cb4d5bc2329e075330936eb98c1d8",
  "parentHash": "0x293439343c1b086bc73ddb9cb9261d562345b79ada315daf994a18d15b1ccedb",
  "number": 105365,
  "timestamp": 1439886314,
  "nonce": "0xb83c32a6f71098b5",
  "difficulty": 4361165435858,
  "gasLimit": {
    "_hex": "0x2fefd8"
  },
  "gasUsed": {
    "_hex": "0x5208"
  },
  "miner": "0xe6A7a1d47ff21B6321162AEA7C6CB457D5476Bca",
  "extraData": "0x476574682f76312e302e312d38326566323666362f6c696e75782f676f312e34",
  "transactions": [
    {
      "hash": "0x4ea8c1d46cfd1b6759afaea1597dd8da9ca4309b36aa27be364a631bf9474b72",
      "blockHash": "0xf66f2a6cc4be737b93f1a4d9a5082fe73a5cb4d5bc2329e075330936eb98c1d8",
      "blockNumber": 105365,
      "transactionIndex": 0,
      "confirmations": null,
      "from": "0xa114c802ef29776f05f9c6925cE915232e8ae102",
      "gasPrice": {
        "_hex": "0xd2e975d9b"
      },
      "gasLimit": {
        "_hex": "0x5208"
      },
      "to": "0x32Be343B94f860124dC4fEe278FDCBD38C102D88",
      "value": {
        "_hex": "0x20269cb2a29cde000"
      },
      "nonce": 22,
      "data": "0x",
      "r": "0xe8561ead5b1ba7c884813509b2d0147d8b6b8e3045d6e370afc3385d97186b08",
      "s": "0x09c4e86a865309d78c0ec0c42698a67c20779ae506fe605ea3969f848d0c821f",
      "v": 28,
      "creates": null,
      "raw": "0xf86d16850d2e975d9b8252089432be343b94f860124dc4fee278fdcbd38c102d8889020269cb2a29cde000801ca0e8561ead5b1ba7c884813509b2d0147d8b6b8e3045d6e370afc3385d97186b08a009c4e86a865309d78c0ec0c42698a67c20779ae506fe605ea3969f848d0c821f",
      "networkId": 0,
      "chainId": 0
    }
  ]
}