{
  "hash": "0xf4417899cd2ab6c3effb940c8a626fb79fa8aa3871eb7be8fc5883714f873674",
  "parentHash": "0x89ab02ea74f818c7e7a4442b02e64f6738ea888b86c57d3c9ebfc1c7590e821d",
  "number": 69095,
  "timestamp": 1439298272,
  "nonce": "0x9f799f30bddaad4c",
  "difficulty": 2054899717592,
  "gasLimit": {
    "_hex": "0x2fefd8"
  },
  "gasUsed": {
    "_hex": "0x5208"
  },
  "miner": "0xE81c9A6Ebe623E5d483110e0eaF2b10c769b1212",
  "extraData": "0x476574682f76312e302e312f6c696e75782f676f312e342e32",
  "transactions": [
    {
      "hash": "0x7e42e4d3ca6e5608daa4e1b0d7f8757e565026b0d82756ebb010c009ebebcdd7",
      "blockHash": "0xf4417899cd2ab6c3effb940c8a626fb79fa8aa3871eb7be8fc5883714f873674",
      "blockNumber": 69095,
      "transactionIndex": 0,
      "confirmations": null,
      "from": "0x1E0314b6602BE5a1C7c811C97EFc98EDe9E55e4a",
      "gasPrice": {
        "_hex": "0xba43b7400"
      },
      "gasLimit": {
        "_hex": "0x5208"
      },
      "to": "0x8bA6B4B89e7Bc7320b229C480d36f8Fd79b660C8",
      "value": {
        "_hex": "0x937bda828f9000"
      },
      "nonce": 1,
      "data": "0x",
      "r": "0xa1f3b5029d7f40714258841dcb8be4a8efc733a3a8ae7d05d977f8066545ed17",
      "s": "0x10ce0764be7720f6d6460eb4b42f5447d8197a8a6a180abef70339c2f414afea",
      "v": 28,
      "creates": null,
      "raw": "0xf86b01850ba43b7400825208948ba6b4b89e7bc7320b229c480d36f8fd79b660c887937bda828f9000801ca0a1f3b5029d7f40714258841dcb8be4a8efc733a3a8ae7d05d977f8066545ed17a010ce0764be7720f6d6460eb4b42f5447d8197a8a6a180abef70339c2f414afea",
      "networkId": 0,
      "chainId": 0
    }
  ]
}