{
  "hash": "0x85791ce0cae90d56f8225afc881a39e0d43998ed22bd10e140069e8fd887af5f",
  "parentHash": "0x205e2be51822539f960ec5e1fb6980fc4d2461d5db0dfebc583fa801613981f8",
  "number": 114958,
  "timestamp": 1440049378,
  "nonce": "0x58a10e652b7c1d6e",
  "difficulty": 4479125301038,
  "gasLimit": {
    "_hex": "0x2fefd8"
  },
  "gasUsed": {
    "_hex": "0x261ce"
  },
  "miner": "0x52bc44d5378309EE2abF1539BF71dE1b7d7bE3b5",
  "extraData": "0x476574682f76312e302e312d65626434373230372f6c696e75782f676f312e34",
  "transactions": [
    {
      "hash": "0xe59b119effbea00c178f4ec6e9802dd9b288bdbb343504648a5d65b908c92cf6",
      "blockHash": "0x85791ce0cae90d56f8225afc881a39e0d43998ed22bd10e140069e8fd887af5f",
      "blockNumber": 114958,
      "transactionIndex": 0,
      "confirmations": null,
      "from": "0x9d93fAb6E22845f8f45A07496F11dE71530dEbC7",
      "gasPrice": {
        "_hex": "0x10f2ca71e83"
      },
      "gasLimit": {
        "_hex": "0x249f0"
      },
      "to": "0xE28e72FCf78647ADCe1F1252F240bbfaebD63BcC",
      "value": {
        "_hex": "0xde0b6b3a7640000"
      },
      "nonce": 2,
      "data": "0x45466f3a",
      "r": "0x00bb991a204e51779ca51f725842f63c8a302cacbcc521e9a4906251dd9325a1",
      "s": "0x154cf82d24767cf42abe624f647a9b02309025420fc9aafe37e1b24572404f18",
      "v": 27,
      "creates": null,
      "raw": "0xf8710286010f2ca71e83830249f094e28e72fcf78647adce1f1252f240bbfaebd63bcc880de0b6b3a76400008445466f3a1b9fbb991a204e51779ca51f725842f63c8a302cacbcc521e9a4906251dd9325a1a0154cf82d24767cf42abe624f647a9b02309025420fc9aafe37e1b24572404f18",
      "networkId": 0,
      "chainId": 0
    },
    {
      "hash": "0x52258f9e0050cc92275df8f4fdb1c2f0cd7996a0a1a86d32ee3b2535d4136301",
      "blockHash": "0x85791ce0cae90d56f8225afc881a39e0d43998ed22bd10e140069e8fd887af5f",
      "blockNumber": 114958,
      "transactionIndex": 1,
      "confirmations": null,
      "from": "0x6ACfef6b58D6EE01D4BdB53CA81c5D6560824446",
      "gasPrice": {
        "_hex": "0xdc5b45fcd"
      },
      "gasLimit": {
        "_hex": "0x5208"
      },
      "to": "0x32Be343B94f860124dC4fEe278FDCBD38C102D88",
      "value": {
        "_hex": "0x124c9d872c04b000000"
      },
      "nonce": 5,
      "data": "0x",
      "r": "0x7d93de754cdb3ef3190b61577a535fd032d8750d756e848129109d90ffe8cef9",
      "s": "0x2737e20ace3c6099e93f0d43101a8d513b5ec60570553295409b0f8cbbf2a1c0",
      "v": 28,
      "creates": null,
      "raw": "0xf86e05850dc5b45fcd8252089432be343b94f860124dc4fee278fdcbd38c102d888a0124c9d872c04b000000801ca07d93de754cdb3ef3190b61577a535fd032d8750d756e848129109d90ffe8cef9a02737e20ace3c6099e93f0d43101a8d513b5ec60570553295409b0f8cbbf2a1c0",
      "networkId": 0,
      "chainId": 0
    },
    {
      "hash": "0xb3248a7ed563be8fa4ee67474458384805aef457606adcc2c7277af5e1a19ff6",
      "blockHash": "0x85791ce0cae90d56f8225afc881a39e0d43998ed22bd10e140069e8fd887af5f",
      "blockNumber": 114958,
      "transactionIndex": 2,
      "confirmations": null,
      "from": "0x79204D7826f5d18687B4bB92dF98b98218Ab38B9",
      "gasPrice": {
        "_hex": "0xdc5b45fcd"
      },
      "gasLimit": {
        "_hex": "0x5208"
      },
      "to": "0x32Be343B94f860124dC4fEe278FDCBD38C102D88",
      "value": {
        "_hex": "0xd480a702da10e8000"
      },
      "nonce": 3,
      "data": "0x",
      "r": "0xb6485691be3ca586997a8bce452658991f866fe4d443b786dc1660229f5c957c",
      "s": "0x7ac0d8a5f1c5dced01753d8dec697a6ea7b6ce1d3168129d04fd1c9ea1c0991a",
      "v": 28,
      "creates": null,
      "raw": "0xf86d03850dc5b45fcd8252089432be343b94f860124dc4fee278fdcbd38c102d88890d480a702da10e8000801ca0b6485691be3ca586997a8bce452658991f866fe4d443b786dc1660229f5c957ca07ac0d8a5f1c5dced01753d8dec697a6ea7b6ce1d3168129d04fd1c9ea1c0991a",
      "networkId": 0,
      "chainId": 0
    }
  ]
}