{
  "hash": "0x27cac50c3af8e9b8a46a5aed9143ac22eeab1209c000d415246ec47842fb7766",
  "parentHash": "0x94bde423959bc63351d09fafae5890e1a3c2548a4f7cc62f19963259e2e7a0d9",
  "number": 55326,
  "timestamp": 1439068830,
  "nonce": "0xa86873abbb60f063",
  "difficulty": 1633804576315,
  "gasLimit": {
    "_hex": "0x2fefd8"
  },
  "gasUsed": {
    "_hex": "0x5208"
  },
  "miner": "0x3F98e477a361F777DA14611a7e419A75Fd238b6b",
  "extraData": "0x476574682f76312e302e312f6c696e75782f676f312e342e32",
  "transactions": [
    {
      "hash": "0x2881434d0898072dc7850cb14d0accb96e16e62c5a69569f2299cd3f4eb42f71",
      "blockHash": "0x27cac50c3af8e9b8a46a5aed9143ac22eeab1209c000d415246ec47842fb7766",
      "blockNumber": 55326,
      "transactionIndex": 0,
      "confirmations": null,
      "from": "0x5e1fBd4E58e2312b3C78d7aAAAfA10bf9C3189E3",
      "gasPrice": {
        "_hex": "0x11484527df2"
      },
      "gasLimit": {
        "_hex": "0x15f90"
      },
      "to": "0xe22b075c9b0b2B0C042a72DfE027aeC8AF8cBC96",
      "value": {
        "_hex": "0x3635c9adc5dea00000"
      },
      "nonce": 15,
      "data": "0x",
      "r": "0x3bfd6e1f89a0159f0e20dca7605d76d21e7a88b4153482f11991906ab605417b",
      "s": "0x40d3fae6f27c49306a2182e14f7119fbdbf6cf579b050adea75151909beb882d",
      "v": 28,
      "creates": null,
      "raw": "0xf86f0f86011484527df283015f9094e22b075c9b0b2b0c042a72dfe027aec8af8cbc96893635c9adc5dea00000801ca03bfd6e1f89a0159f0e20dca7605d76d21e7a88b4153482f11991906ab605417ba040d3fae6f27c49306a2182e14f7119fbdbf6cf579b050adea75151909beb882d",
      "networkId": 0,
      "chainId": 0
    }
  ]
}