{
  "hash": "0x00128bc32680486a5fdde60bdeac7029b129ad96498558159462892648624d57",
  "parentHash": "0xc37f116bd636cffc62ff5c988f2add1ed934c8227d27dc0be24284be42ff618f",
  "number": 55440,
  "timestamp": 1439070728,
  "nonce": "0x075ab7292bfa6a69",
  "difficulty": 1629002905708,
  "gasLimit": {
    "_hex": "0x2fefd8"
  },
  "gasUsed": {
    "_hex": "0x5208"
  },
  "miner": "0xa50ec0D39fa913E62f1Bae7074E6F36caA71855b",
  "extraData": "0x",
  "transactions": [
    {
      "hash": "0x6ae621e283b35b683f9b91219eb863c2cf27eaeb14516a59eaafe3458e8d9916",
      "blockHash": "0x00128bc32680486a5fdde60bdeac7029b129ad96498558159462892648624d57",
      "blockNumber": 55440,
      "transactionIndex": 0,
      "confirmations": null,
      "from": "0x120A270bbC009644e35F0bB6ab13f95b8199c4ad",
      "gasPrice": {
        "_hex": "0xd3f9f8fd4"
      },
      "gasLimit": {
        "_hex": "0x15f90"
      },
      "to": "0x6CC9D1b6EA96A58B5D2AF70EC96D15379F95F2Ef",
      "value": {
        "_hex": "0x8ac7230489e80000"
      },
      "nonce": 16,
      "data": "0x",
      "r": "0x87fb3d0705c27056c9b0d8c3dba6360ab00dda2eec36fa31caee02759315a9fc",
      "s": "0x3ed2698e6c9949070de39bd84d5c97c8f00bc265c4bc7664e9014c23c6cdaa3a",
      "v": 28,
      "creates": null,
      "raw": "0xf86d10850d3f9f8fd483015f90946cc9d1b6ea96a58b5d2af70ec96d15379f95f2ef888ac7230489e80000801ca087fb3d0705c27056c9b0d8c3dba6360ab00dda2eec36fa31caee02759315a9fca03ed2698e6c9949070de39bd84d5c97c8f00bc265c4bc7664e9014c23c6cdaa3a",
      "networkId": 0,
      "chainId": 0
    }
  ]
}