{
  "hash": "0x9110cf0a65c49c50aa117a804b44d2f9952e7702a05c4c507a4945e7123f3bda",
  "parentHash": "0x3be5d4991791cc937f3e48757bfad17bd4358c916b944449889f305727d0c395",
  "number": 92452,
  "timestamp": 1439672256,
  "nonce": "0x9dbabce79bd797c5",
  "difficulty": 3521709851308,
  "gasLimit": {
    "_hex": "0x2fefd8"
  },
  "gasUsed": {
    "_hex": "0xa410"
  },
  "miner": "0xe6A7a1d47ff21B6321162AEA7C6CB457D5476Bca",
  "extraData": "0x476574682f76312e302e312d38326566323666362f6c696e75782f676f312e34",
  "transactions": [
    {
      "hash": "0x663c526fe148add49e17959b7a5d897ada88ef1351ab3ad64a92bfdf3dc4f441",
      "blockHash": "0x9110cf0a65c49c50aa117a804b44d2f9952e7702a05c4c507a4945e7123f3bda",
      "blockNumber": 92452,
      "transactionIndex": 0,
      "confirmations": null,
      "from": "0x2910543Af39abA0Cd09dBb2D50200b3E800A63D2",
      "gasPrice": {
        "_hex": "0xd1b03f254"
      },
      "gasLimit": {
        "_hex": "0x5208"
      },
      "to": "0x6ccce6Ca8893e44300ec4b8C3c576de9F8a276A6",
      "value": {
        "_hex": "0xdcef33a6f838000"
      },
      "nonce": 828,
      "data": "0x",
      "r": "0xad88e558b762448f6a331f1a6b955f9dbf2bfde1e1e51f77148f59698da81861",
      "s": "0x450749fc91bcc2d93228f497f4acf2896b9602e36f61b6c2035f27ed0e0d992b",
      "v": 27,
      "creates": null,
      "raw": "0xf86e82033c850d1b03f254825208946ccce6ca8893e44300ec4b8c3c576de9f8a276a6880dcef33a6f838000801ba0ad88e558b762448f6a331f1a6b955f9dbf2bfde1e1e51f77148f59698da81861a0450749fc91bcc2d93228f497f4acf2896b9602e36f61b6c2035f27ed0e0d992b",
      "networkId": 0,
      "chainId": 0
    },
    {
      "hash": "0x09efe48b7335fa73b4bbf22051bf5793de1ea22f0e349d9e9f31c5b45deacf8d",
      "blockHash": "0x9110cf0a65c49c50aa117a804b44d2f9952e7702a05c4c507a4945e7123f3bda",
      "blockNumber": 92452,
      "transactionIndex": 1,
      "confirmations": null,
      "from": "0x54dAeb3E8a6BBC797E4aD2b0339f134b186e4637",
      "gasPrice": {
        "_hex": "0xccd0b5958"
      },
      "gasLimit": {
        "_hex": "0x15f90"
      },
      "to": "0x0F87Fb507513e749081E34373c84E95e85b5c057",
      "value": {
        "_hex": "0x55709ecd577b23"
      },
      "nonce": 974,
      "data": "0x",
      "r": "0xb7104cace8ce9a4a22a16a3b44dff79a2e1cfc9fd059905d09c4f8f9b844b333",
      "s": "0x19512fecb83f345d8a126257a8884e685ee3dc2e04a8ec0598b1e50bbf899fe8",
      "v": 27,
      "creates": null,
      "raw": "0xf86e8203ce850ccd0b595883015f90940f87fb507513e749081e34373c84e95e85b5c0578755709ecd577b23801ba0b7104cace8ce9a4a22a16a3b44dff79a2e1cfc9fd059905d09c4f8f9b844b333a019512fecb83f345d8a126257a8884e685ee3dc2e04a8ec0598b1e50bbf899fe8",
      "networkId": 0,
      "chainId": 0
    }
  ]
}