{
  "hash": "0xb7718dd4a969fb8b4810f18a45f0b5d06a3dabd33bd010bb7a24f1d1d0655940",
  "parentHash": "0x58f55e0c68f7de4680c223532627f2d3f145e695b33d0c73483ac2d92e5cc4f6",
  "number": 90713,
  "timestamp": 1439644398,
  "nonce": "0x40b68dfd83c63600",
  "difficulty": 3369351634722,
  "gasLimit": {
    "_hex": "0x2fefd8"
  },
  "gasUsed": {
    "_hex": "0x546c"
  },
  "miner": "0xe6A7a1d47ff21B6321162AEA7C6CB457D5476Bca",
  "extraData": "0x476574682f76312e302e312d38326566323666362f6c696e75782f676f312e34",
  "transactions": [
    {
      "hash": "0xdaa2712a3875ceef669db848f5194c9929b4b64f64be2cab4e49c1ad8a19f419",
      "blockHash": "0xb7718dd4a969fb8b4810f18a45f0b5d06a3dabd33bd010bb7a24f1d1d0655940",
      "blockNumber": 90713,
      "transactionIndex": 0,
      "confirmations": null,
      "from": "0xa7a517D7AD35820B09D497fA7E5540cdE9495853",
      "gasPrice": {
        "_hex": "0x110c8f7d8de"
      },
      "gasLimit": {
        "_hex": "0xc350"
      },
      "to": "0x2910543Af39abA0Cd09dBb2D50200b3E800A63D2",
      "value": {
        "_hex": "0x1b1ae4d6e2ef500000"
      },
      "nonce": 1,
      "data": "0x454e35415550524652",
      "r": "0x1319a66b1f27e3df99dcb1942b7a25d99894192faefe9d90cd89091b4b52a0c1",
      "s": "0x1c0129fc9f93f07d2687aff61c85aa493f6ee2b2a070e4408a6ba7e2033c1226",
      "v": 27,
      "creates": null,
      "raw": "0xf87701860110c8f7d8de82c350942910543af39aba0cd09dbb2d50200b3e800a63d2891b1ae4d6e2ef50000089454e354155505246521ba01319a66b1f27e3df99dcb1942b7a25d99894192faefe9d90cd89091b4b52a0c1a01c0129fc9f93f07d2687aff61c85aa493f6ee2b2a070e4408a6ba7e2033c1226",
      "networkId": 0,
      "chainId": 0
    }
  ]
}