{
  "hash": "0x05d00c31f341c74e3103f7f49930dc5b8ef55dd3a5508d9be14399e09260b2fd",
  "parentHash": "0xc321c125d3cf52e828062dd1d3ac4e7018db7c36f312c648cf774b06a0b1ce05",
  "number": 92789,
  "timestamp": 1439677058,
  "nonce": "0xc6288c9f7e3c56d0",
  "difficulty": 3635129495996,
  "gasLimit": {
    "_hex": "0x2fefd8"
  },
  "gasUsed": {
    "_hex": "0x5208"
  },
  "miner": "0x9746c7e1ef2bd21FF3997fa467593a89cb852BD0",
  "extraData": "0x476574682f76312e302e312f77696e646f77732f676f312e342e32",
  "transactions": [
    {
      "hash": "0xd87e5257f96593ddc09d5eefcf7721c699ca8fa916355b4c0d6702d09ea30789",
      "blockHash": "0x05d00c31f341c74e3103f7f49930dc5b8ef55dd3a5508d9be14399e09260b2fd",
      "blockNumber": 92789,
      "transactionIndex": 0,
      "confirmations": null,
      "from": "0x32Be343B94f860124dC4fEe278FDCBD38C102D88",
      "gasPrice": {
        "_hex": "0xd665254f6"
      },
      "gasLimit": {
        "_hex": "0x5208"
      },
      "to": "0x25A0be9f6fCbDE4F61024B86a33dd80F7cbB3cEc",
      "value": {
        "_hex": "0x1be4f459be890000"
      },
      "nonce": 900,
      "data": "0x",
      "r": "0x81eee793a2daf45dfdd5db3cc1d95c42e0509b669c522b7703e486b080e5e462",
      "s": "0x03fce3c24c7f9cc941be1fea128d0659c0f23254736cc4d778298bf666d73af6",
      "v": 28,
      "creates": null,
      "raw": "0xf86e820384850d665254f68252089425a0be9f6fcbde4f61024b86a33dd80f7cbb3cec881be4f459be890000801ca081eee793a2daf45dfdd5db3cc1d95c42e0509b669c522b7703e486b080e5e462a003fce3c24c7f9cc941be1fea128d0659c0f23254736cc4d778298bf666d73af6",
      "networkId": 0,
      "chainId": 0
    }
  ]
}