{
  "hash": "0xe1136790fbde9b319d1f004fe83011fd2fa59b98ac30e0ef30c4c5f12b12fd9b",
  "parentHash": "0xc5d5088ffb43d9a4024071e5699639d0b51fb1ec354f10200ffdb31e19be86d9",
  "number": 74236,
  "timestamp": 1439382770,
  "nonce": "0x9fefc24762c24c40",
  "difficulty": 2212938409940,
  "gasLimit": {
    "_hex": "0x2fefd8"
  },
  "gasUsed": {
    "_hex": "0xa410"
  },
  "miner": "0x8dd979d3638B9c8e7a169d955ef8E8Da5B772C51",
  "extraData": "0x476574682f76312e302e312f77696e646f77732f676f312e342e32",
  "transactions": [
    {
      "hash": "0x384cfbd0509149873627e693337241516a53221a1d760f196593a9f777fe4f1d",
      "blockHash": "0xe1136790fbde9b319d1f004fe83011fd2fa59b98ac30e0ef30c4c5f12b12fd9b",
      "blockNumber": 74236,
      "transactionIndex": 0,
      "confirmations": null,
      "from": "0xe6A7a1d47ff21B6321162AEA7C6CB457D5476Bca",
      "gasPrice": {
        "_hex": "0xcd966388b"
      },
      "gasLimit": {
        "_hex": "0x55f0"
      },
      "to": "0xe2073a029bBF0eE2A933ceeFa9b3658973320CA5",
      "value": {
        "_hex": "0x129b6c5850df4ef0"
      },
      "nonce": 697,
      "data": "0x",
      "r": "0xcd4deeb7552a34ec38caa409268819ffc46e88f8eeb8c8e07e256dadbc02d61e",
      "s": "0x54ddd3e81ab7d7ab6c4eb66c14f58105feab2ce3984ad68d1821d56e2de5371c",
      "v": 28,
      "creates": null,
      "raw": "0xf86e8202b9850cd966388b8255f094e2073a029bbf0ee2a933ceefa9b3658973320ca588129b6c5850df4ef0801ca0cd4deeb7552a34ec38caa409268819ffc46e88f8eeb8c8e07e256dadbc02d61ea054ddd3e81ab7d7ab6c4eb66c14f58105feab2ce3984ad68d1821d56e2de5371c",
      "networkId": 0,
      "chainId": 0
    },
    {
      "hash": "0xb98ef4665bf7130f224b9ca421806f99536fd5b843ff3bfbbaffffe85c8cd296",
      "blockHash": "0xe1136790fbde9b319d1f004fe83011fd2fa59b98ac30e0ef30c4c5f12b12fd9b",
      "blockNumber": 74236,
      "transactionIndex": 1,
      "confirmations": null,
      "from": "0xe6A7a1d47ff21B6321162AEA7C6CB457D5476Bca",
      "gasPrice": {
        "_hex": "0xcd966388b"
      },
      "gasLimit": {
        "_hex": "0x55f0"
      },
      "to": "0xabceA603089850F8f6bB612A9031554D90A247CF",
      "value": {
        "_hex": "0x129c51fc103412e8"
      },
      "nonce": 698,
      "data": "0x",
      "r": "0x5f11877e8ef3159a1ebad0f6570031bf74899b6d22f1cd4971915355cda72187",
      "s": "0x60c1160f024c27d86875bf8cb7cf08aafdcfe8ae6eabb16333a73a18b7276869",
      "v": 27,
      "creates": null,
      "raw": "0xf86e8202ba850cd966388b8255f094abcea603089850f8f6bb612a9031554d90a247cf88129c51fc103412e8801ba05f11877e8ef3159a1ebad0f6570031bf74899b6d22f1cd4971915355cda72187a060c1160f024c27d86875bf8cb7cf08aafdcfe8ae6eabb16333a73a18b7276869",
      "networkId": 0,
      "chainId": 0
    }
  ]
}