{
  "hash": "0x6e52f7d68158230d1f5cfc94a79513dfac4d804aa35d13fb4b1b1fd00734658f",
  "parentHash": "0x543e3160c99f858c03521da24491c2e557718ff08d65664b55fc1e7f217ad255",
  "number": 116260,
  "timestamp": 1440070972,
  "nonce": "0x9919ad0b032e8a6b",
  "difficulty": 4593596178920,
  "gasLimit": {
    "_hex": "0x2fefd8"
  },
  "gasUsed": {
    "_hex": "0x5208"
  },
  "miner": "0xf8E0CA3Ed80bd541b94BEdCf259e8CF2141A9523",
  "extraData": "0x476574682f76312e302e312f77696e646f77732f676f312e342e32",
  "transactions": [
    {
      "hash": "0x912ef8deddae9833322d69590b4a2c76f8883ed7cad2b8aa4c8bc10cafbdac66",
      "blockHash": "0x6e52f7d68158230d1f5cfc94a79513dfac4d804aa35d13fb4b1b1fd00734658f",
      "blockNumber": 116260,
      "transactionIndex": 0,
      "confirmations": null,
      "from": "0x4E66F49aAbe24B61cC417cf717BCd89862C69372",
      "gasPrice": {
        "_hex": "0xd9cd1c416"
      },
      "gasLimit": {
        "_hex": "0x15f90"
      },
      "to": "0xF000d531B485D3fc32Ed670b26509813D8f47008",
      "value": {
        "_hex": "0x77b227cd83be80000"
      },
      "nonce": 2,
      "data": "0x",
      "r": "0x067c4ec14a89a06a7fbc47113a1cc2375b8ef882c7694caa247d409ef54b46ba",
      "s": "0x7038b733132c9676f33b2308c988f633694d1096a47bc26cfbefd6c62a728bb8",
      "v": 28,
      "creates": null,
      "raw": "0xf86e02850d9cd1c41683015f9094f000d531b485d3fc32ed670b26509813d8f4700889077b227cd83be80000801ca0067c4ec14a89a06a7fbc47113a1cc2375b8ef882c7694caa247d409ef54b46baa07038b733132c9676f33b2308c988f633694d1096a47bc26cfbefd6c62a728bb8",
      "networkId": 0,
      "chainId": 0
    }
  ]
}