{
  "hash": "0xf540b05d91c306f10f33a95ea311cd4b6cd4b0978697245183b8e5dd4ea9d65a",
  "parentHash": "0x2be5050dbb0d2ca2e5104ffc33c8f01ef353cbb44c67a31c1bf712d8f614ca0b",
  "number": 68809,
  "timestamp": 1439294114,
  "nonce": "0xbc19c39b36278e28",
  "difficulty": 2015223061669,
  "gasLimit": {
    "_hex": "0x2fefd8"
  },
  "gasUsed": {
    "_hex": "0x5208"
  },
  "miner": "0x79d5794171E11dd5C2f0e26E1C187319db2FE6f7",
  "extraData": "0x",
  "transactions": [
    {
      "hash": "0xfccfa086987d197a981092127ee74364c2bd9a2dabd9bb9a7f56973d3e7f15e4",
      "blockHash": "0xf540b05d91c306f10f33a95ea311cd4b6cd4b0978697245183b8e5dd4ea9d65a",
      "blockNumber": 68809,
      "transactionIndex": 0,
      "confirmations": null,
      "from": "0xE87470b43FA5904a32866396B2f798D898c13978",
      "gasPrice": {
        "_hex": "0xcf81fe65a"
      },
      "gasLimit": {
        "_hex": "0x15f90"
      },
      "to": "0x972ad000397A3c903299F1353d6d4b85eE4E4e2A",
      "value": {
        "_hex": "0x270801d946c940000"
      },
      "nonce": 0,
      "data": "0x",
      "r": "0x7e5f0f2759a6b7968604c441c4a9e24993659a23ca0d58bfec459594f619cb25",
      "s": "0x482cfd5742e3391f316d4cc4a2d12af14d30e9e3adbc44e787229fc3f0c4f17e",
      "v": 28,
      "creates": null,
      "raw": "0xf86e80850cf81fe65a83015f9094972ad000397a3c903299f1353d6d4b85ee4e4e2a890270801d946c940000801ca07e5f0f2759a6b7968604c441c4a9e24993659a23ca0d58bfec459594f619cb25a0482cfd5742e3391f316d4cc4a2d12af14d30e9e3adbc44e787229fc3f0c4f17e",
      "networkId": 0,
      "chainId": 0
    }
  ]
}