{
  "hash": "0xa51da987797592ad1f99e925d4346b9a9872207d11e601e13589f18454d7248c",
  "parentHash": "0xd529c5de2fa54ab0830ff3728af1380064033ae17dd8e8e8469214025c397d4d",
  "number": 71604,
  "timestamp": 1439338989,
  "nonce": "0xd8f6356abc1af281",
  "difficulty": 2170817309588,
  "gasLimit": {
    "_hex": "0x2fefd8"
  },
  "gasUsed": {
    "_hex": "0xae73"
  },
  "miner": "0xbb7B8287f3F0a933474a79eAe42CBCa977791171",
  "extraData": "0x476574682f4c5649562f76312e302e312f6c696e75782f676f312e342e32",
  "transactions": [
    {
      "hash": "0x082f2dcd27706f8ed0c283e62f1c21dc7c9e51800d44ea5c0f6fbe1880aeb134",
      "blockHash": "0xa51da987797592ad1f99e925d4346b9a9872207d11e601e13589f18454d7248c",
      "blockNumber": 71604,
      "transactionIndex": 0,
      "confirmations": null,
      "from": "0x17580B766f7453525ca4C6A88b01b50570EA088C",
      "gasPrice": {
        "_hex": "0xcd5726433"
      },
      "gasLimit": {
        "_hex": "0x61a80"
      },
      "to": "0x5Fe5B7546D1628f7348B023A0393de1FC825A4fD",
      "value": {
        "_hex": "0x4563918244f40000"
      },
      "nonce": 232,
      "data": "0xb595b8b50000000000000000000000000000000000000000000000000000000000000000",
      "r": "0x54df83077d65d82302b8c7c3dee9d6f0e7e44754a2e89beaac250ee50966bb7b",
      "s": "0x4fc2314d423c967131cf4dba1496d0151119aca748b3f2eed83aa7d40de65a1e",
      "v": 27,
      "creates": null,
      "raw": "0xf89281e8850cd572643383061a80945fe5b7546d1628f7348b023a0393de1fc825a4fd884563918244f40000a4b595b8b500000000000000000000000000000000000000000000000000000000000000001ba054df83077d65d82302b8c7c3dee9d6f0e7e44754a2e89beaac250ee50966bb7ba04fc2314d423c967131cf4dba1496d0151119aca748b3f2eed83aa7d40de65a1e",
      "networkId": 0,
      "chainId": 0
    }
  ]
}