{
  "hash": "0x25a182519be888b3477973cbb583b12bcdd7180f3d52085e146748e46d0dfe70",
  "parentHash": "0x12d05f82b344db83e1d513d14742888e69719cac446bf05b09614ce9d4c54734",
  "number": 113286,
  "timestamp": 1440020824,
  "nonce": "0x0433b387dbb5e025",
  "difficulty": 4506345323645,
  "gasLimit": {
    "_hex": "0x2fefd8"
  },
  "gasUsed": {
    "_hex": "0x5208"
  },
  "miner": "0xe6A7a1d47ff21B6321162AEA7C6CB457D5476Bca",
  "extraData": "0x476574682f76312e302e312d38326566323666362f6c696e75782f676f312e34",
  "transactions": [
    {
      "hash": "0xc7ce536ccc4548c4eb48025826a7fc23158ee65c36f88e17551ec82891839ded",
      "blockHash": "0x25a182519be888b3477973cbb583b12bcdd7180f3d52085e146748e46d0dfe70",
      "blockNumber": 113286,
      "transactionIndex": 0,
      "confirmations": null,
      "from": "0x32Be343B94f860124dC4fEe278FDCBD38C102D88",
      "gasPrice": {
        "_hex": "0xd00dcd928"
      },
      "gasLimit": {
        "_hex": "0x5208"
      },
      "to": "0xDE66D746e52F318B602e16b0B3840e3cc43e260D",
      "value": {
        "_hex": "0x13fbe85edc90000"
      },
      "nonce": 1360,
      "data": "0x",
      "r": "0x0d09cc301cfab4936e9cebdbf9f769c7e94ce0e2fb71b68d63724ebb4531fd0c",
      "s": "0x781e69ef7684bd06f3fffe74ba17da846bfe56988503a2cd7238d0aa15454455",
      "v": 27,
      "creates": null,
      "raw": "0xf86e820550850d00dcd92882520894de66d746e52f318b602e16b0b3840e3cc43e260d88013fbe85edc90000801ba00d09cc301cfab4936e9cebdbf9f769c7e94ce0e2fb71b68d63724ebb4531fd0ca0781e69ef7684bd06f3fffe74ba17da846bfe56988503a2cd7238d0aa15454455",
      "networkId": 0,
      "chainId": 0
    }
  ]
}