{
  "hash": "0x5de8c89632fd3771942c29f5c2a9c0366aa971a1438580d6c5ebd08990c3f8e0",
  "parentHash": "0x4950f151b7e5d241e54aa645e16f89cc545f0243bc9ebcef7278526fa1f7b60c",
  "number": 107000,
  "timestamp": 1439914251,
  "nonce": "0xda762d7e3ee3f6ac",
  "difficulty": 4452832950245,
  "gasLimit": {
    "_hex": "0x2fefd8"
  },
  "gasUsed": {
    "_hex": "0x2122a"
  },
  "miner": "0x580992B51e3925e23280EfB93d3047C82f17E038",
  "extraData": "0x476574682f76312e302e312f6c696e75782f676f312e342e32",
  "transactions": [
    {
      "hash": "0xf41e416f56552127e8b8163f1c4e43ae0b60ed8bd825fae13ed2e9f79b7cba26",
      "blockHash": "0x5de8c89632fd3771942c29f5c2a9c0366aa971a1438580d6c5ebd08990c3f8e0",
      "blockNumber": 107000,
      "transactionIndex": 0,
      "confirmations": null,
      "from": "0x0998d8273115b56af43C505e087AFf0676ed3659",
      "gasPrice": {
        "_hex": "0xd728f960e"
      },
      "gasLimit": {
        "_hex": "0x249f0"
      },
      "to": "0xE28e72FCf78647ADCe1F1252F240bbfaebD63BcC",
      "value": {
        "_hex": "0xd8d6989b4dbb7c0000"
      },
      "nonce": 0,
      "data": "0x45466f3a",
      "r": "0xe246b07e1a12e503c40309ab86bf438388b40d7438322fe60adb25c1b8798eed",
      "s": "0x3280770f3b97da2384a21587755ee7e418db8672110e677139111de3a45c3e05",
      "v": 27,
      "creates": null,
      "raw": "0xf87280850d728f960e830249f094e28e72fcf78647adce1f1252f240bbfaebd63bcc89d8d6989b4dbb7c00008445466f3a1ba0e246b07e1a12e503c40309ab86bf438388b40d7438322fe60adb25c1b8798eeda03280770f3b97da2384a21587755ee7e418db8672110e677139111de3a45c3e05",
      "networkId": 0,
      "chainId": 0
    },
    {
      "hash": "0xfbec3544c266385fae8fa6f5de7f48e4fa7b22c1ce0b771fafcd17e616a4530c",
      "blockHash": "0x5de8c89632fd3771942c29f5c2a9c0366aa971a1438580d6c5ebd08990c3f8e0",
      "blockNumber": 107000,
      "transactionIndex": 1,
      "confirmations": null,
      "from": "0x77e41B4125b7c14757e0f07fE36b2E95db757a10",
      "gasPrice": {
        "_hex": "0xd3d37f23a"
      },
      "gasLimit": {
        "_hex": "0x55f0"
      },
      "to": "0x2910543Af39abA0Cd09dBb2D50200b3E800A63D2",
      "value": {
        "_hex": "0x805e99fdcc5d0000"
      },
      "nonce": 13,
      "data": "0x454e47583939505930",
      "r": "0x66a8d67d6448fb771a86d9f7fd25a1929537b85277a34f8433a68c7bb464af1d",
      "s": "0x44205d6356c9fbbb2a2c1e854c3db6eb4b2b3917f115ce7ceb5ec965abce87fc",
      "v": 27,
      "creates": null,
      "raw": "0xf8750d850d3d37f23a8255f0942910543af39aba0cd09dbb2d50200b3e800a63d288805e99fdcc5d000089454e475839395059301ba066a8d67d6448fb771a86d9f7fd25a1929537b85277a34f8433a68c7bb464af1da044205d6356c9fbbb2a2c1e854c3db6eb4b2b3917f115ce7ceb5ec965abce87fc",
      "networkId": 0,
      "chainId": 0
    }
  ]
}