{
  "hash": "0xac8ddf98543174a4fc4da832b53798e5436be91f45c20b7673b8ae896ef7a5df",
  "parentHash": "0x21daf08042cb926184b29bc750e24e57b0bf69dce74ddb953d66b1f80153e869",
  "number": 49083,
  "timestamp": 1438967628,
  "nonce": "0xaef9565a90340c43",
  "difficulty": 1483623843958,
  "gasLimit": {
    "_hex": "0x254f5"
  },
  "gasUsed": {
    "_hex": "0x5208"
  },
  "miner": "0xf927a40C8B7F6E07c5af7FA2155B4864a4112B13",
  "extraData": "0x476574682f76312e302e312f6c696e75782f676f312e342e32",
  "transactions": [
    {
      "hash": "0xd18da991158927fe3dbe4256690f5c56f9d65980624964b27dbe0f9bf75a04a3",
      "blockHash": "0xac8ddf98543174a4fc4da832b53798e5436be91f45c20b7673b8ae896ef7a5df",
      "blockNumber": 49083,
      "transactionIndex": 0,
      "confirmations": null,
      "from": "0xAae61E43CB0d0C96b30699F77E00D711d0a3979b",
      "gasPrice": {
        "_hex": "0xdcb17f155"
      },
      "gasLimit": {
        "_hex": "0x15f90"
      },
      "to": "0x3B09D1F4B08ecc06d9C14ca7ab5CCcb86848E8F2",
      "value": {
        "_hex": "0xb1a2bc2ec50000"
      },
      "nonce": 3,
      "data": "0x",
      "r": "0xccecf64d1bc09484d546c0d564044d12c34dbec3bf8f058089e486cc7725df7d",
      "s": "0x6e81918d2158f2f906757f46eb2201b2b1a2c237b975b479e579697e297380cd",
      "v": 27,
      "creates": null,
      "raw": "0xf86c03850dcb17f15583015f90943b09d1f4b08ecc06d9c14ca7ab5cccb86848e8f287b1a2bc2ec50000801ba0ccecf64d1bc09484d546c0d564044d12c34dbec3bf8f058089e486cc7725df7da06e81918d2158f2f906757f46eb2201b2b1a2c237b975b479e579697e297380cd",
      "networkId": 0,
      "chainId": 0
    }
  ]
}