{
  "hash": "0x57fed58ee86fa012ab6a1981392d42f9d91bb246b37e396031de618d67f74099",
  "parentHash": "0x266a6007c1d1185363982acb61af9e78b8368e18ee7ddd4979ca2fa6054e4e3a",
  "number": 119630,
  "timestamp": 1440146190,
  "nonce": "0xec0d11841039f935",
  "difficulty": 4390045469919,
  "gasLimit": {
    "_hex": "0x2fefd8"
  },
  "gasUsed": {
    "_hex": "0x5208"
  },
  "miner": "0x52bc44d5378309EE2abF1539BF71dE1b7d7bE3b5",
  "extraData": "0xd783010002844765746887676f312e342e32856c696e7578",
  "transactions": [
    {
      "hash": "0x8fceed337accf5e797192ec92afd7f154c435cf4b743e531697cfe8cc9754499",
      "blockHash": "0x57fed58ee86fa012ab6a1981392d42f9d91bb246b37e396031de618d67f74099",
      "blockNumber": 119630,
      "transactionIndex": 0,
      "confirmations": null,
      "from": "0x32Be343B94f860124dC4fEe278FDCBD38C102D88",
      "gasPrice": {
        "_hex": "0xba43b7400"
      },
      "gasLimit": {
        "_hex": "0x5208"
      },
      "to": "0x0C473d7A7006C15EDd586751F352F1D74Bea83FE",
      "value": {
        "_hex": "0x23793896f392980000"
      },
      "nonce": 1512,
      "data": "0x",
      "r": "0x81bce5b1415b4e6c4d3e791b52525c33e9d73ab2e6ee856cc02dc5e57d239007",
      "s": "0x2e3896ae192ca6ecef14a6a0434866efa2648ccef29d3db29cf878ac1d76c1f3",
      "v": 28,
      "creates": null,
      "raw": "0xf86f8205e8850ba43b7400825208940c473d7a7006c15edd586751f352f1d74bea83fe8923793896f392980000801ca081bce5b1415b4e6c4d3e791b52525c33e9d73ab2e6ee856cc02dc5e57d239007a02e3896ae192ca6ecef14a6a0434866efa2648ccef29d3db29cf878ac1d76c1f3",
      "networkId": 0,
      "chainId": 0
    }
  ]
}