{
  "hash": "0xe1a1e514b098d68369bd82f979a3d2e122c4fad6c515fd1627f48fbb80635787",
  "parentHash": "0x5d398932511d9d2b93e2c70ef6b9e1edcd3d8fc1ece86e5a543c489d490f3ea1",
  "number": 82399,
  "timestamp": 1439518811,
  "nonce": "0x7197006c2451f298",
  "difficulty": 2372985604183,
  "gasLimit": {
    "_hex": "0x2fefd8"
  },
  "gasUsed": {
    "_hex": "0xa410"
  },
  "miner": "0xC7F13fb553585546Dbbf3D0e4b52b20Bb52Af854",
  "extraData": "0xdd809b302e392e34312b2b373965362d524c696e75782f672b2b2f4a4954",
  "transactions": [
    {
      "hash": "0x2a0874d03be47b967bcdff230413ebe43282bfd549ea2883e7c2d360d52f2c7c",
      "blockHash": "0xe1a1e514b098d68369bd82f979a3d2e122c4fad6c515fd1627f48fbb80635787",
      "blockNumber": 82399,
      "transactionIndex": 0,
      "confirmations": null,
      "from": "0xC47Aaa860008be6f65B58c6C6E02a84e666EfE31",
      "gasPrice": {
        "_hex": "0xe05288dbd"
      },
      "gasLimit": {
        "_hex": "0x15f90"
      },
      "to": "0x193bB9b5E9b6099FB6c33DBb5CcDA4AC18ed14D7",
      "value": {
        "_hex": "0x1bbddfe8aa01806e"
      },
      "nonce": 3,
      "data": "0x",
      "r": "0x8ae8114fc563340c749faf20a567a56b0e4c24f64f721a2cdc11da26f8aa895a",
      "s": "0x669de4104869e0cb0eeecccb9ec042d386a6949f7e9652a53ccbaf7f22355e2b",
      "v": 28,
      "creates": null,
      "raw": "0xf86d03850e05288dbd83015f9094193bb9b5e9b6099fb6c33dbb5ccda4ac18ed14d7881bbddfe8aa01806e801ca08ae8114fc563340c749faf20a567a56b0e4c24f64f721a2cdc11da26f8aa895aa0669de4104869e0cb0eeecccb9ec042d386a6949f7e9652a53ccbaf7f22355e2b",
      "networkId": 0,
      "chainId": 0
    },
    {
      "hash": "0x895291e2070104c02c3fe7de03b9ca73ab962ac0f2187c572d6a01ebfb4b98af",
      "blockHash": "0xe1a1e514b098d68369bd82f979a3d2e122c4fad6c515fd1627f48fbb80635787",
      "blockNumber": 82399,
      "transactionIndex": 1,
      "confirmations": null,
      "from": "0x8eC407EDf8FAbf4dCDD81b9bf6AC7f07591D1488",
      "gasPrice": {
        "_hex": "0xba43b7400"
      },
      "gasLimit": {
        "_hex": "0x5208"
      },
      "to": "0xC47Aaa860008be6f65B58c6C6E02a84e666EfE31",
      "value": {
        "_hex": "0x3a1a88f1a32581dc0"
      },
      "nonce": 2,
      "data": "0x",
      "r": "0x70edd61d4ccd493b3f49469d3c236af4f4e9454d440efca1ad0fef0a8412b727",
      "s": "0x12532a4db5dffec32e30e159ef3b8d7ce612317ef5c44bdf535564b1c17a545b",
      "v": 28,
      "creates": null,
      "raw": "0xf86d02850ba43b740082520894c47aaa860008be6f65b58c6c6e02a84e666efe318903a1a88f1a32581dc0801ca070edd61d4ccd493b3f49469d3c236af4f4e9454d440efca1ad0fef0a8412b727a012532a4db5dffec32e30e159ef3b8d7ce612317ef5c44bdf535564b1c17a545b",
      "networkId": 0,
      "chainId": 0
    }
  ]
}