{
  "hash": "0x66cb10fd957fbe1d56497ab912b53cbf7946ca0ebe809f895a0f4f2e564f4286",
  "parentHash": "0x2a90e3896401ea83bd67f6ce9638d93efd84c4361dd07b37822b518b122ca546",
  "number": 119482,
  "timestamp": 1440143750,
  "nonce": "0xa52b33523dc95f0c",
  "difficulty": 4390122924069,
  "gasLimit": {
    "_hex": "0x2fefd8"
  },
  "gasUsed": {
    "_hex": "0xf618"
  },
  "miner": "0x52bc44d5378309EE2abF1539BF71dE1b7d7bE3b5",
  "extraData": "0xd783010002844765746887676f312e342e32856c696e7578",
  "transactions": [
    {
      "hash": "0xe6cb2f8784e8379ca89b591a0329a9f56ed3ed04e349677b4f8f8f46fcbcbbd3",
      "blockHash": "0x66cb10fd957fbe1d56497ab912b53cbf7946ca0ebe809f895a0f4f2e564f4286",
      "blockNumber": 119482,
      "transactionIndex": 0,
      "confirmations": null,
      "from": "0x259ce58778abd156fC9084AB53322FEA6EeC550E",
      "gasPrice": {
        "_hex": "0xba43b7400"
      },
      "gasLimit": {
        "_hex": "0x15f90"
      },
      "to": "0x6ed7A6220B1Cd6F93AC32948C2221E0D372F46Ad",
      "value": {
        "_hex": "0xde0b6b3a7640000"
      },
      "nonce": 6,
      "data": "0x",
      "r": "0x9db34f8e16e705c1c1eb983442ce1add129788ca5b110a1f2d7f960e372364b1",
      "s": "0x1234439a9b637b3eba1f6df1c94b83c2af66948f9d0ae8dabf5809b011ce9957",
      "v": 27,
      "creates": null,
      "raw": "0xf86d06850ba43b740083015f90946ed7a6220b1cd6f93ac32948c2221e0d372f46ad880de0b6b3a7640000801ba09db34f8e16e705c1c1eb983442ce1add129788ca5b110a1f2d7f960e372364b1a01234439a9b637b3eba1f6df1c94b83c2af66948f9d0ae8dabf5809b011ce9957",
      "networkId": 0,
      "chainId": 0
    },
    {
      "hash": "0x96557b9fcbdf8a06852d2dfbf2c43d3f87043af874b8b3c47e6ed5deea16b470",
      "blockHash": "0x66cb10fd957fbe1d56497ab912b53cbf7946ca0ebe809f895a0f4f2e564f4286",
      "blockNumber": 119482,
      "transactionIndex": 1,
      "confirmations": null,
      "from": "0xA61A4A69dcB2D8C74BdeCd17AD5821Adc21E95ec",
      "gasPrice": {
        "_hex": "0xba43b7400"
      },
      "gasLimit": {
        "_hex": "0x5208"
      },
      "to": "0x32Be343B94f860124dC4fEe278FDCBD38C102D88",
      "value": {
        "_hex": "0x448358a6cfa97400"
      },
      "nonce": 5,
      "data": "0x",
      "r": "0x1d1b20c87334ada683047a08e7c383d3414b22f0a068739a24db22d426a14c75",
      "s": "0x0f9bfe3fadd437a6b734fe0f8de28fbaa3a95cb0017d1317b08807f17dfa6d26",
      "v": 28,
      "creates": null,
      "raw": "0xf86c05850ba43b74008252089432be343b94f860124dc4fee278fdcbd38c102d8888448358a6cfa97400801ca01d1b20c87334ada683047a08e7c383d3414b22f0a068739a24db22d426a14c75a00f9bfe3fadd437a6b734fe0f8de28fbaa3a95cb0017d1317b08807f17dfa6d26",
      "networkId": 0,
      "chainId": 0
    },
    {
      "hash": "0x58703cf939c14a68c40805555b24487e3f7285e69930175fe825602fbde43e8e",
      "blockHash": "0x66cb10fd957fbe1d56497ab912b53cbf7946ca0ebe809f895a0f4f2e564f4286",
      "blockNumber": 119482,
      "transactionIndex": 2,
      "confirmations": null,
      "from": "0xFa9F15F96E3244897308A95163a62861685e8917",
      "gasPrice": {
        "_hex": "0xba43b7400"
      },
      "gasLimit": {
        "_hex": "0x5208"
      },
      "to": "0x32Be343B94f860124dC4fEe278FDCBD38C102D88",
      "value": {
        "_hex": "0x42a09fb603e2ac000"
      },
      "nonce": 7,
      "data": "0x",
      "r": "0x9f808f3176ce27d6ac696fcb3f174ed6c38b852e4e9c721089cab43efef798f9",
      "s": "0x49537508f37f5ed63eee6dda703614f2e8351fd02053abecaeb33f11f778d347",
      "v": 27,
      "creates": null,
      "raw": "0xf86d07850ba43b74008252089432be343b94f860124dc4fee278fdcbd38c102d8889042a09fb603e2ac000801ba09f808f3176ce27d6ac696fcb3f174ed6c38b852e4e9c721089cab43efef798f9a049537508f37f5ed63eee6dda703614f2e8351fd02053abecaeb33f11f778d347",
      "networkId": 0,
      "chainId": 0
    }
  ]
}