{
  "hash": "0xcbf71d2379b3547385fda2ed0ab7aa8d422295c9cfc35fe4e45b573cd495353b",
  "parentHash": "0x22c2173e2ae1b0ef661a14dfb4c8aebb1827a695af46884d1536cbf47dc6d725",
  "number": 99062,
  "timestamp": 1439783686,
  "nonce": "0x520ae9506029814f",
  "difficulty": 3823500905996,
  "gasLimit": {
    "_hex": "0x2fefd8"
  },
  "gasUsed": {
    "_hex": "0x5208"
  },
  "miner": "0x007f7f58D3eb5b7510A301eCC749FC1fCDDBE14D",
  "extraData": "0x476574682f76312e302e312f77696e646f77732f676f312e342e32",
  "transactions": [
    {
      "hash": "0x724308430899154d488c39b26924f3408915b9b61fa70fb024d0e0f30271a9a0",
      "blockHash": "0xcbf71d2379b3547385fda2ed0ab7aa8d422295c9cfc35fe4e45b573cd495353b",
      "blockNumber": 99062,
      "transactionIndex": 0,
      "confirmations": null,
      "from": "0x6d134bfF5434a4cCe5992A7fb698Ec4755A9B601",
      "gasPrice": {
        "_hex": "0xd3e0dd636"
      },
      "gasLimit": {
        "_hex": "0x15f90"
      },
      "to": "0xb0Ea60401D3173cE6f4eE25eb9690CEb13Df98ff",
      "value": {
        "_hex": "0xde0b6b3a7640000"
      },
      "nonce": 0,
      "data": "0x",
      "r": "0xb52a052b53a26cc8ffc14878d12e3439050aa6e640ca3d31aa7e66ad9454e3db",
      "s": "0x2a10db6cb1bddb1a9fc775f1837a8ff4f5ac764bdef1875c28629634a5b3779d",
      "v": 27,
      "creates": null,
      "raw": "0xf86d80850d3e0dd63683015f9094b0ea60401d3173ce6f4ee25eb9690ceb13df98ff880de0b6b3a7640000801ba0b52a052b53a26cc8ffc14878d12e3439050aa6e640ca3d31aa7e66ad9454e3dba02a10db6cb1bddb1a9fc775f1837a8ff4f5ac764bdef1875c28629634a5b3779d",
      "networkId": 0,
      "chainId": 0
    }
  ]
}