{
  "hash": "0x40ab9d5013261826187a67dbbea98150c377771d3f12f920320d5b510de09618",
  "parentHash": "0x0c402c7c8d8c2050b8b041cafa3e5d1336230172f381ea4ba6bd3dc33a591d98",
  "number": 47369,
  "timestamp": 1438939059,
  "nonce": "0x40c680df0566a9e3",
  "difficulty": 1452385803875,
  "gasLimit": {
    "_hex": "0xb5ff"
  },
  "gasUsed": {
    "_hex": "0xa410"
  },
  "miner": "0x1D889aFF5D57138c9819412d63b5d877567B5936",
  "extraData": "0x476574682f76312e302e312f77696e646f77732f676f312e342e32",
  "transactions": [
    {
      "hash": "0xac95476c938ba2bf30c733b976dda033ee29e7134a6237f2e248fe3f10b753be",
      "blockHash": "0x40ab9d5013261826187a67dbbea98150c377771d3f12f920320d5b510de09618",
      "blockNumber": 47369,
      "transactionIndex": 0,
      "confirmations": null,
      "from": "0xe6A7a1d47ff21B6321162AEA7C6CB457D5476Bca",
      "gasPrice": {
        "_hex": "0x1b97c3918d"
      },
      "gasLimit": {
        "_hex": "0x5208"
      },
      "to": "0x465343D19e8C73075C03a1859beB9e3896Bc6489",
      "value": {
        "_hex": "0x10d8dc5ae71228b80"
      },
      "nonce": 126,
      "data": "0x",
      "r": "0x4a42566acfa7de9d77bf2436a3612236c7f58a5b7065233917f209e078251d56",
      "s": "0x3af2e29d259d0a3d5eb77837a16fee36070a0299b17899bb7e665d09231d6585",
      "v": 27,
      "creates": null,
      "raw": "0xf86d7e851b97c3918d82520894465343d19e8c73075c03a1859beb9e3896bc648989010d8dc5ae71228b80801ba04a42566acfa7de9d77bf2436a3612236c7f58a5b7065233917f209e078251d56a03af2e29d259d0a3d5eb77837a16fee36070a0299b17899bb7e665d09231d6585",
      "networkId": 0,
      "chainId": 0
    },
    {
      "hash": "0xd027b4b92a96ae423c444c79c5ec2986bdbeaa590a35d0251b5b405bf0f38414",
      "blockHash": "0x40ab9d5013261826187a67dbbea98150c377771d3f12f920320d5b510de09618",
      "blockNumber": 47369,
      "transactionIndex": 1,
      "confirmations": null,
      "from": "0xF9A19Aea1193D9b9E4ef2F5B8c9eC8df93a22356",
      "gasPrice": {
        "_hex": "0x1a0a734c15"
      },
      "gasLimit": {
        "_hex": "0x5208"
      },
      "to": "0x32Be343B94f860124dC4fEe278FDCBD38C102D88",
      "value": {
        "_hex": "0x1bb90015055fc000"
      },
      "nonce": 2,
      "data": "0x",
      "r": "0x11a5076f3fe636cbfa914942f2cb765334804f8a6a30769c6ca977a0170062b3",
      "s": "0x784a205242cae51f301ae257d5072ffe2d273f288031cc073e462bcdbc75f26b",
      "v": 27,
      "creates": null,
      "raw": "0xf86c02851a0a734c158252089432be343b94f860124dc4fee278fdcbd38c102d88881bb90015055fc000801ba011a5076f3fe636cbfa914942f2cb765334804f8a6a30769c6ca977a0170062b3a0784a205242cae51f301ae257d5072ffe2d273f288031cc073e462bcdbc75f26b",
      "networkId": 0,
      "chainId": 0
    }
  ]
}