{
  "hash": "0xba250521cd5940c704199a5cbe73c463f5d7ed22ab34c9f8b608bcc135f7e0ff",
  "parentHash": "0x8a4f7a6da7177daeb792b9da37e561d704df6cb918a1334cd0ec4d85c1476cc5",
  "number": 113126,
  "timestamp": 1440018312,
  "nonce": "0x01e630ea29c350d4",
  "difficulty": 4480103610503,
  "gasLimit": {
    "_hex": "0x2fefd8"
  },
  "gasUsed": {
    "_hex": "0x546c"
  },
  "miner": "0xe6A7a1d47ff21B6321162AEA7C6CB457D5476Bca",
  "extraData": "0x476574682f76312e302e312d38326566323666362f6c696e75782f676f312e34",
  "transactions": [
    {
      "hash": "0x1d8cc04295cec57d09218d45678534c94081810e38ea26c99e798ef90327a2a4",
      "blockHash": "0xba250521cd5940c704199a5cbe73c463f5d7ed22ab34c9f8b608bcc135f7e0ff",
      "blockNumber": 113126,
      "transactionIndex": 0,
      "confirmations": null,
      "from": "0x35e8e5dC5FBd97c5b421A80B596C030a2Be2A04D",
      "gasPrice": {
        "_hex": "0xdaed47da2"
      },
      "gasLimit": {
        "_hex": "0x55f0"
      },
      "to": "0x2910543Af39abA0Cd09dBb2D50200b3E800A63D2",
      "value": {
        "_hex": "0xad78ebc5ac6200000"
      },
      "nonce": 4,
      "data": "0x454e423451384a3252",
      "r": "0xb53773c881e3e7f000cfddb81948d92fc8f34103276256b4088e6f556331f7db",
      "s": "0x0ea550a465a2a6bdf18b961a2d68358b6b77bbd64f7a30aa12f219e9c8b75a80",
      "v": 28,
      "creates": null,
      "raw": "0xf87604850daed47da28255f0942910543af39aba0cd09dbb2d50200b3e800a63d2890ad78ebc5ac620000089454e423451384a32521ca0b53773c881e3e7f000cfddb81948d92fc8f34103276256b4088e6f556331f7dba00ea550a465a2a6bdf18b961a2d68358b6b77bbd64f7a30aa12f219e9c8b75a80",
      "networkId": 0,
      "chainId": 0
    }
  ]
}