{
  "hash": "0xb198abd5a74015b80170b0fdc8295a99f9c8005416f97bae9dee9a9708f37275",
  "parentHash": "0x620f42b59e4d598de02f4ec16f8b64041ecef7b762d4522b50e3b83dfb2ae84e",
  "number": 52007,
  "timestamp": 1439014611,
  "nonce": "0xecb84d11c50f6aa6",
  "difficulty": 1560365867479,
  "gasLimit": {
    "_hex": "0xf9cc8"
  },
  "gasUsed": {
    "_hex": "0x546c"
  },
  "miner": "0xF2d2AfF1320476cb8C6b607199D23175cc595693",
  "extraData": "0x476574682f76312e302e312f77696e646f77732f676f312e342e32",
  "transactions": [
    {
      "hash": "0x0589f877030ce5689bea262b789859e441cacb860fe14590a223d32d1e1aa16c",
      "blockHash": "0xb198abd5a74015b80170b0fdc8295a99f9c8005416f97bae9dee9a9708f37275",
      "blockNumber": 52007,
      "transactionIndex": 0,
      "confirmations": null,
      "from": "0xf8E0CA3Ed80bd541b94BEdCf259e8CF2141A9523",
      "gasPrice": {
        "_hex": "0xd256801fc"
      },
      "gasLimit": {
        "_hex": "0x15f90"
      },
      "to": "0x9252f10822221Afe05035227D96a9b5B2b50349B",
      "value": {
        "_hex": "0x129736bf4a0c85c0000"
      },
      "nonce": 2,
      "data": "0x454e433933464b3330",
      "r": "0x094c9f579984688d91bad3e659f47f35fd84e741b0ca1fb2b1992d11fc2bc6fb",
      "s": "0x54d36588f3b375f9b607abd99b665282dc32b63a76f799e3d237a0294309b087",
      "v": 28,
      "creates": null,
      "raw": "0xf87802850d256801fc83015f90949252f10822221afe05035227d96a9b5b2b50349b8a0129736bf4a0c85c000089454e433933464b33301ca0094c9f579984688d91bad3e659f47f35fd84e741b0ca1fb2b1992d11fc2bc6fba054d36588f3b375f9b607abd99b665282dc32b63a76f799e3d237a0294309b087",
      "networkId": 0,
      "chainId": 0
    }
  ]
}