{
  "hash": "0x4546665e43ebf7ed1161c112bd98ab94d027a341b9fcb50370da38c765d87ab5",
  "parentHash": "0x88e269bed2a932a1c96c2612d373b9e93382dcbb1bf3c650b62dfca155d170de",
  "number": 70191,
  "timestamp": 1439316081,
  "nonce": "0xb7fb292f493c5676",
  "difficulty": 2115715961845,
  "gasLimit": {
    "_hex": "0x2fefd8"
  },
  "gasUsed": {
    "_hex": "0x5208"
  },
  "miner": "0x0193d941b50d91BE6567c7eE1C0Fe7AF498b4137",
  "extraData": "0x4a5ace9e4e",
  "transactions": [
    {
      "hash": "0x3d7fd71c066c58d075e2b3adf65c5bc55eea4a8235f42402ec711ed5343f3cf4",
      "blockHash": "0x4546665e43ebf7ed1161c112bd98ab94d027a341b9fcb50370da38c765d87ab5",
      "blockNumber": 70191,
      "transactionIndex": 0,
      "confirmations": null,
      "from": "0xb382dCcb66709711E2ACB84dD540F2DfFD259fed",
      "gasPrice": {
        "_hex": "0xe0bb04cab"
      },
      "gasLimit": {
        "_hex": "0x15f90"
      },
      "to": "0xc597A5d92F5dC1137D847db733cfe02c6d209f13",
      "value": {
        "_hex": "0xd02ab486cedc0000"
      },
      "nonce": 0,
      "data": "0x",
      "r": "0x119bb26d16778b08c16ad5a8ec1b24ad5ca1378b296aa2b8322bf1370774a5ef",
      "s": "0x1eaa93a965dbc2f5f2b5e54632830bb3746cc52384027ce8495abb0c51eebebb",
      "v": 27,
      "creates": null,
      "raw": "0xf86d80850e0bb04cab83015f9094c597a5d92f5dc1137d847db733cfe02c6d209f1388d02ab486cedc0000801ba0119bb26d16778b08c16ad5a8ec1b24ad5ca1378b296aa2b8322bf1370774a5efa01eaa93a965dbc2f5f2b5e54632830bb3746cc52384027ce8495abb0c51eebebb",
      "networkId": 0,
      "chainId": 0
    }
  ]
}