{
  "hash": "0xb3efddef12fa9450878ff359cc9c40c4ec536a587ff0ab04e499d3edbe56e9ea",
  "parentHash": "0xd8d35f8868ff63abd7b59a1ffca98f3dcfb4eb9dedf455ba631aa1c4eb63e0f2",
  "number": 74030,
  "timestamp": 1439379142,
  "nonce": "0x9c9b05ce989f425e",
  "difficulty": 2243456289016,
  "gasLimit": {
    "_hex": "0x2fefd8"
  },
  "gasUsed": {
    "_hex": "0x546c"
  },
  "miner": "0xbb7B8287f3F0a933474a79eAe42CBCa977791171",
  "extraData": "0x476574682f4c5649562f76312e302e312f6c696e75782f676f312e342e32",
  "transactions": [
    {
      "hash": "0xf6a2d44e49f3d442d6664883ebc429ca09ff9c69fba515da49b95c7225ac94b3",
      "blockHash": "0xb3efddef12fa9450878ff359cc9c40c4ec536a587ff0ab04e499d3edbe56e9ea",
      "blockNumber": 74030,
      "transactionIndex": 0,
      "confirmations": null,
      "from": "0x6beec71ecB0326Dc98dff793dDF44A360a8889Af",
      "gasPrice": {
        "_hex": "0x10e2cd1b09f"
      },
      "gasLimit": {
        "_hex": "0x55f0"
      },
      "to": "0x2910543Af39abA0Cd09dBb2D50200b3E800A63D2",
      "value": {
        "_hex": "0x4563918244f40000"
      },
      "nonce": 0,
      "data": "0x454e415657354a4738",
      "r": "0xf42864ce85e6c26704bf508507cbcce8cb0acefb05ac863560716d7a24a033f4",
      "s": "0x47655048f09116feb1e1cb3d47b8e9492a7e4d654b5617b8e624dd98c1321351",
      "v": 28,
      "creates": null,
      "raw": "0xf8768086010e2cd1b09f8255f0942910543af39aba0cd09dbb2d50200b3e800a63d2884563918244f4000089454e415657354a47381ca0f42864ce85e6c26704bf508507cbcce8cb0acefb05ac863560716d7a24a033f4a047655048f09116feb1e1cb3d47b8e9492a7e4d654b5617b8e624dd98c1321351",
      "networkId": 0,
      "chainId": 0
    }
  ]
}