{
  "hash": "0xd57a146112a4c5d9b077a965908f9dd5ce31d505c312d0a834ade5658d56f03d",
  "parentHash": "0x51cc35c7c049e53af718d7ac259358dbea13000e16fea8969dc45116bfbdccda",
  "number": 106220,
  "timestamp": 1439900598,
  "nonce": "0xcdefda70b5bf1fdd",
  "difficulty": 4479416849243,
  "gasLimit": {
    "_hex": "0x2fefd8"
  },
  "gasUsed": {
    "_hex": "0x5438"
  },
  "miner": "0xe6A7a1d47ff21B6321162AEA7C6CB457D5476Bca",
  "extraData": "0x476574682f76312e302e312d38326566323666362f6c696e75782f676f312e34",
  "transactions": [
    {
      "hash": "0x6829c92e5a2cdf2e119f74e03642168670ea224a66265e5e4e4f9cd7c0825c8f",
      "blockHash": "0xd57a146112a4c5d9b077a965908f9dd5ce31d505c312d0a834ade5658d56f03d",
      "blockNumber": 106220,
      "transactionIndex": 0,
      "confirmations": null,
      "from": "0xf669D33ffC879Ed84BECd4EF67CB17c76f4607D5",
      "gasPrice": {
        "_hex": "0xd13e6df19"
      },
      "gasLimit": {
        "_hex": "0x15f90"
      },
      "to": "0x056507108FE6d30189EcCD6cd7F4Fad56eEef622",
      "value": {
        "_hex": "0x3782dace9d9000000"
      },
      "nonce": 6,
      "data": "0x000002ff0002ff00f277f21a",
      "r": "0x71868a38fc23b02998c73418cdd505f48d019a45dd03ef3b4cbf2b900e809225",
      "s": "0x2dcc6626833964dd9ac15320cd99788f4b483b74e2e27b6be96f234d40264c30",
      "v": 27,
      "creates": null,
      "raw": "0xf87a06850d13e6df1983015f9094056507108fe6d30189eccd6cd7f4fad56eeef6228903782dace9d90000008c000002ff0002ff00f277f21a1ba071868a38fc23b02998c73418cdd505f48d019a45dd03ef3b4cbf2b900e809225a02dcc6626833964dd9ac15320cd99788f4b483b74e2e27b6be96f234d40264c30",
      "networkId": 0,
      "chainId": 0
    }
  ]
}