{
  "hash": "0xb30af06e3620cfb1ee5eedb9ad20661fd3ba982e546cfd9aa0a15477cf8ed07d",
  "parentHash": "0x7f8f34614987eca5a86de0d2ea34a23b6f10a8b1d631c31caaa16d2efd4087cd",
  "number": 105457,
  "timestamp": 1439887951,
  "nonce": "0x92eaaf92341f0fef",
  "difficulty": 4391032066058,
  "gasLimit": {
    "_hex": "0x2fefd8"
  },
  "gasUsed": {
    "_hex": "0x5208"
  },
  "miner": "0x0193d941b50d91BE6567c7eE1C0Fe7AF498b4137",
  "extraData": "0x4a5ace9e4e",
  "transactions": [
    {
      "hash": "0xe25ad9a1625ee402fb33fe19ffb284a4fec1de21e4bfb98bd7274288d8344c28",
      "blockHash": "0xb30af06e3620cfb1ee5eedb9ad20661fd3ba982e546cfd9aa0a15477cf8ed07d",
      "blockNumber": 105457,
      "transactionIndex": 0,
      "confirmations": null,
      "from": "0x378fCAEF49580b550cB7164f14811a5E613BD683",
      "gasPrice": {
        "_hex": "0xd4ce99031"
      },
      "gasLimit": {
        "_hex": "0x5208"
      },
      "to": "0x32Be343B94f860124dC4fEe278FDCBD38C102D88",
      "value": {
        "_hex": "0xde836294e4a81000"
      },
      "nonce": 3,
      "data": "0x",
      "r": "0x1d523de874fef30acd3f4df5ae04ec4219660057860da1fed20e35e7f9e9878a",
      "s": "0x1eb956cbc74249ad66d3a29836db004d091472d4f9f19999393c801085ed512f",
      "v": 28,
      "creates": null,
      "raw": "0xf86c03850d4ce990318252089432be343b94f860124dc4fee278fdcbd38c102d8888de836294e4a81000801ca01d523de874fef30acd3f4df5ae04ec4219660057860da1fed20e35e7f9e9878aa01eb956cbc74249ad66d3a29836db004d091472d4f9f19999393c801085ed512f",
      "networkId": 0,
      "chainId": 0
    }
  ]
}