{
  "hash": "0x712cd21d7858aae94917fd89d0e60c0184c6c63394795a1c6ea1c5523cd02b26",
  "parentHash": "0xd55c924b7b0030483808b1d6cb88460244492ccd85093ea19bea4d6df9b2c037",
  "number": 84784,
  "timestamp": 1439554555,
  "nonce": "0x9a1a9a714d7c65b5",
  "difficulty": 2627191450533,
  "gasLimit": {
    "_hex": "0x2fefd8"
  },
  "gasUsed": {
    "_hex": "0x5208"
  },
  "miner": "0x9746c7e1ef2bd21FF3997fa467593a89cb852BD0",
  "extraData": "0x476574682f76312e302e312f77696e646f77732f676f312e342e32",
  "transactions": [
    {
      "hash": "0x3dac47bb73900422a431d81cec4c5478f34cddf7736219e064cb11f56820b75a",
      "blockHash": "0x712cd21d7858aae94917fd89d0e60c0184c6c63394795a1c6ea1c5523cd02b26",
      "blockNumber": 84784,
      "transactionIndex": 0,
      "confirmations": null,
      "from": "0x93Db80284c8E4d2B0eE8586dE2D072208c075145",
      "gasPrice": {
        "_hex": "0xd50fa5163"
      },
      "gasLimit": {
        "_hex": "0x5208"
      },
      "to": "0x32Be343B94f860124dC4fEe278FDCBD38C102D88",
      "value": {
        "_hex": "0x2086962d3b87d80000"
      },
      "nonce": 4,
      "data": "0x",
      "r": "0xf4d33c44968e14373347b71efd1a0dd1733335ff2c52e97b2749e1f6992b729f",
      "s": "0x71597bc23324dfcbc1b524164b1dc85e5fd867e8433e3f7d0c258dda4d5cfe54",
      "v": 27,
      "creates": null,
      "raw": "0xf86d04850d50fa51638252089432be343b94f860124dc4fee278fdcbd38c102d88892086962d3b87d80000801ba0f4d33c44968e14373347b71efd1a0dd1733335ff2c52e97b2749e1f6992b729fa071597bc23324dfcbc1b524164b1dc85e5fd867e8433e3f7d0c258dda4d5cfe54",
      "networkId": 0,
      "chainId": 0
    }
  ]
}