{
  "hash": "0xa26e365f74c82c4a799dc06ae7cfa782b6c4d738e77fcb3651df6b424a56d129",
  "parentHash": "0xbd3ba90f47a88b10a1b1bff4032ad2d05b967a998316424224a6b6753f7565f2",
  "number": 67554,
  "timestamp": 1439273953,
  "nonce": "0xf924f05b7a8d42e9",
  "difficulty": 1920411814879,
  "gasLimit": {
    "_hex": "0x2fefd8"
  },
  "gasUsed": {
    "_hex": "0x5208"
  },
  "miner": "0xf927a40C8B7F6E07c5af7FA2155B4864a4112B13",
  "extraData": "0x",
  "transactions": [
    {
      "hash": "0xc2b0c26af7d30dde3bc3babd5901039eac56cfbd3e017f8acecccad66fb2718a",
      "blockHash": "0xa26e365f74c82c4a799dc06ae7cfa782b6c4d738e77fcb3651df6b424a56d129",
      "blockNumber": 67554,
      "transactionIndex": 0,
      "confirmations": null,
      "from": "0x120A270bbC009644e35F0bB6ab13f95b8199c4ad",
      "gasPrice": {
        "_hex": "0xd51bd79a8"
      },
      "gasLimit": {
        "_hex": "0x15f90"
      },
      "to": "0x63116ca569ba01384f4B68C196f4745cf45C7d11",
      "value": {
        "_hex": "0x4694e135b556980000"
      },
      "nonce": 167,
      "data": "0x",
      "r": "0xe42ca3f8c8cc2c06c645130410608ad8fbac4a104b5587f50cfecc9bf03de0d7",
      "s": "0x78688728c2e9cde20e78067203726874a9fbd3bd4e2204927b8e84f8a936bd5b",
      "v": 28,
      "creates": null,
      "raw": "0xf86f81a7850d51bd79a883015f909463116ca569ba01384f4b68c196f4745cf45c7d11894694e135b556980000801ca0e42ca3f8c8cc2c06c645130410608ad8fbac4a104b5587f50cfecc9bf03de0d7a078688728c2e9cde20e78067203726874a9fbd3bd4e2204927b8e84f8a936bd5b",
      "networkId": 0,
      "chainId": 0
    }
  ]
}