{
  "hash": "0x593b2231a62acacc39987ec3395a21ce956f2ec5fe9d88881ccee0c351fbdb89",
  "parentHash": "0x289d21c45ae08bf71aa9fa23e11c96c684d57c3bf2cd3fbdc5bc67be0884e54b",
  "number": 48038,
  "timestamp": 1438950247,
  "nonce": "0x09bde68938ed71e6",
  "difficulty": 1464375127192,
  "gasLimit": {
    "_hex": "0x11e55"
  },
  "gasUsed": {
    "_hex": "0x5208"
  },
  "miner": "0xbb7B8287f3F0a933474a79eAe42CBCa977791171",
  "extraData": "0x476574682f4c5649562f76312e302e312f6c696e75782f676f312e342e32",
  "transactions": [
    {
      "hash": "0x2cceca345eefc402c5d50b1474fa98fd16e39d4a65d0cb56e16f5504cf1c2cce",
      "blockHash": "0x593b2231a62acacc39987ec3395a21ce956f2ec5fe9d88881ccee0c351fbdb89",
      "blockNumber": 48038,
      "transactionIndex": 0,
      "confirmations": null,
      "from": "0x1406854D149E081aC09Cb4CA560Da463f3123059",
      "gasPrice": {
        "_hex": "0xd02f0ba0c"
      },
      "gasLimit": {
        "_hex": "0x5208"
      },
      "to": "0x11594d28A010e5c8e92576098d0d543eA32776FC",
      "value": {
        "_hex": "0x55de6a779bbac0000"
      },
      "nonce": 11,
      "data": "0x",
      "r": "0xb338b8d8aff9e4e32df15779d50773084cebae20dd0cfa5e7e709c8879687d31",
      "s": "0x0bead621d404425aad8c35038b1e43641785dc73e7d3b848ffdfad4dd0f483cd",
      "v": 28,
      "creates": null,
      "raw": "0xf86d0b850d02f0ba0c8252089411594d28a010e5c8e92576098d0d543ea32776fc89055de6a779bbac0000801ca0b338b8d8aff9e4e32df15779d50773084cebae20dd0cfa5e7e709c8879687d31a00bead621d404425aad8c35038b1e43641785dc73e7d3b848ffdfad4dd0f483cd",
      "networkId": 0,
      "chainId": 0
    }
  ]
}