{
  "hash": "0xb26778eed12b666922e1c13463cebdf80414960efabadd188b161050a799e136",
  "parentHash": "0xc83275783d6577bd7f2a67ce4f6c6d70c230838c5777befc17c9b9f4349772e6",
  "number": 63412,
  "timestamp": 1439204060,
  "nonce": "0x2d29621c797aee40",
  "difficulty": 1836959090673,
  "gasLimit": {
    "_hex": "0x2fefd5"
  },
  "gasUsed": {
    "_hex": "0xa410"
  },
  "miner": "0xDe7Fea21Fe516d824641ae65F97b60552568E30A",
  "extraData": "0x476574682f76312e302e312f6c696e75782f676f312e342e32",
  "transactions": [
    {
      "hash": "0x5a6ea11ac3539e2237a2ef884fc59325026f44d2e15313a65ca355bed8a6c511",
      "blockHash": "0xb26778eed12b666922e1c13463cebdf80414960efabadd188b161050a799e136",
      "blockNumber": 63412,
      "transactionIndex": 0,
      "confirmations": null,
      "from": "0xd81C0676a709C835d46771A49DB31AF66C2DD87F",
      "gasPrice": {
        "_hex": "0xe0265ed65"
      },
      "gasLimit": {
        "_hex": "0x15f90"
      },
      "to": "0x40dDAE161B79aaebeb68187233fe59bd3B1c2db2",
      "value": {
        "_hex": "0x20264a9c5c25498000"
      },
      "nonce": 1,
      "data": "0x",
      "r": "0x3987141bf2ccb6128f059a147c8e8f425f999467d76131e521ef8a1fbd877c3d",
      "s": "0x1390d1a25db74e73adff6441c3955d46eae5d5253187368c1083f1f8b30e0c62",
      "v": 27,
      "creates": null,
      "raw": "0xf86e01850e0265ed6583015f909440ddae161b79aaebeb68187233fe59bd3b1c2db28920264a9c5c25498000801ba03987141bf2ccb6128f059a147c8e8f425f999467d76131e521ef8a1fbd877c3da01390d1a25db74e73adff6441c3955d46eae5d5253187368c1083f1f8b30e0c62",
      "networkId": 0,
      "chainId": 0
    },
    {
      "hash": "0xd631766e22c2151e2243704a7044babf2acd0f5d1c4324a12b0a90b029a0ee02",
      "blockHash": "0xb26778eed12b666922e1c13463cebdf80414960efabadd188b161050a799e136",
      "blockNumber": 63412,
      "transactionIndex": 1,
      "confirmations": null,
      "from": "0x2b5016e2457387956562587115aa8759d8695fdf",
      "gasPrice": {
        "_hex": "0xd1c343161"
      },
      "gasLimit": {
        "_hex": "0x5208"
      },
      "to": "0xBb990e55844f15Ac000cEB515D5a2A315Db9CB0B",
      "value": {
        "_hex": "0x1fc3686a648922f80000"
      },
      "nonce": 2,
      "data": "0x",
      "r": "0x65b820bc013208cb7d02d19bc13f11a95380c1b7ce78c92fd81cab1eaf90600e",
      "s": "0x170dd625ff344dcc2a9783961e0e22b4be4cee5aa90b48dc2fe7411876d41112",
      "v": 27,
      "creates": null,
      "raw": "0xf86e02850d1c34316182520894bb990e55844f15ac000ceb515d5a2a315db9cb0b8a1fc3686a648922f80000801ba065b820bc013208cb7d02d19bc13f11a95380c1b7ce78c92fd81cab1eaf90600ea0170dd625ff344dcc2a9783961e0e22b4be4cee5aa90b48dc2fe7411876d41112",
      "networkId": 0,
      "chainId": 0
    }
  ]
}