{
  "hash": "0xe376e9be6aa3cd0582fe30ba84258fb229a599cffa053a2bb2fe1944b8427795",
  "parentHash": "0x323a65e813c847f3a29afad9d5ae9e79eff51e5f07530dd999e54e75cb253498",
  "number": 85252,
  "timestamp": 1439560681,
  "nonce": "0x0a1fef9a5cddfc78",
  "difficulty": 2750432129233,
  "gasLimit": {
    "_hex": "0x2fefd8"
  },
  "gasUsed": {
    "_hex": "0x546c"
  },
  "miner": "0xe6A7a1d47ff21B6321162AEA7C6CB457D5476Bca",
  "extraData": "0x476574682f76312e302e312d38326566323666362f6c696e75782f676f312e34",
  "transactions": [
    {
      "hash": "0x1ef0dcd273098ba952b79e8cdfdf53f6f42324f970a11dcc6b3dd7ac40511fea",
      "blockHash": "0xe376e9be6aa3cd0582fe30ba84258fb229a599cffa053a2bb2fe1944b8427795",
      "blockNumber": 85252,
      "transactionIndex": 0,
      "confirmations": null,
      "from": "0x91AC5cfe67c54AA7EBfBa448666c461A3B1fE2E1",
      "gasPrice": {
        "_hex": "0x110c8f7d8de"
      },
      "gasLimit": {
        "_hex": "0xc350"
      },
      "to": "0x2910543Af39abA0Cd09dBb2D50200b3E800A63D2",
      "value": {
        "_hex": "0xde0b6b3a7640000"
      },
      "nonce": 0,
      "data": "0x454e51483734564752",
      "r": "0xd1ba1ac8bd3e2ac00958ba2fae9cf4bf216bea1157334347b617d8d41de71a69",
      "s": "0xed3bf836217ec33794a9800bbce890fa411149e0115c705f540218d0efc19541",
      "v": 28,
      "creates": null,
      "raw": "0xf87680860110c8f7d8de82c350942910543af39aba0cd09dbb2d50200b3e800a63d2880de0b6b3a764000089454e514837345647521ca0d1ba1ac8bd3e2ac00958ba2fae9cf4bf216bea1157334347b617d8d41de71a69a0ed3bf836217ec33794a9800bbce890fa411149e0115c705f540218d0efc19541",
      "networkId": 0,
      "chainId": 0
    }
  ]
}