{
  "hash": "0x69609951df82132256d0ac63f6e845bfd796825562e1485c6dbe14b9e7ea67c7",
  "parentHash": "0xa760125e9b1c86546ca09f36723bc5d47d931404712bc31cf08038517d3f4702",
  "number": 100989,
  "timestamp": 1439815664,
  "nonce": "0x72aff8f53483ad96",
  "difficulty": 3865794500436,
  "gasLimit": {
    "_hex": "0x2fefd8"
  },
  "gasUsed": {
    "_hex": "0xa410"
  },
  "miner": "0x790b8a3cE86E707ED0eD32bF89B3269692a23CC1",
  "extraData": "0xd783010001844765746887676f312e342e32856c696e7578",
  "transactions": [
    {
      "hash": "0xb7786767d9b6dbc8fa85a1e55eea225ffd73663ec68db9564312c9c14bdead96",
      "blockHash": "0x69609951df82132256d0ac63f6e845bfd796825562e1485c6dbe14b9e7ea67c7",
      "blockNumber": 100989,
      "transactionIndex": 0,
      "confirmations": null,
      "from": "0xb1abce2918E21ddb93AA452731a12672A3d9F75a",
      "gasPrice": {
        "_hex": "0xcaf82a5ff"
      },
      "gasLimit": {
        "_hex": "0x5208"
      },
      "to": "0x32Be343B94f860124dC4fEe278FDCBD38C102D88",
      "value": {
        "_hex": "0x455f75ab4d395400"
      },
      "nonce": 81,
      "data": "0x",
      "r": "0xd1c4d07e3d0b2eeee99ce71f30196016130c0c04c1320f6ee54a137efd3a364c",
      "s": "0x560dcf24bbbb2d9b430360c623ac2cd3011488a8a36b614b24333e89e43e06a4",
      "v": 27,
      "creates": null,
      "raw": "0xf86c51850caf82a5ff8252089432be343b94f860124dc4fee278fdcbd38c102d8888455f75ab4d395400801ba0d1c4d07e3d0b2eeee99ce71f30196016130c0c04c1320f6ee54a137efd3a364ca0560dcf24bbbb2d9b430360c623ac2cd3011488a8a36b614b24333e89e43e06a4",
      "networkId": 0,
      "chainId": 0
    },
    {
      "hash": "0xfa5964a51b94119f2cc99379691a3c6e7f94b08ed9e52bbeb60377ae74ed9d6b",
      "blockHash": "0x69609951df82132256d0ac63f6e845bfd796825562e1485c6dbe14b9e7ea67c7",
      "blockNumber": 100989,
      "transactionIndex": 1,
      "confirmations": null,
      "from": "0x5c34E9095588400B7CFF963daa495eFbEFCa083E",
      "gasPrice": {
        "_hex": "0xcaf82a5ff"
      },
      "gasLimit": {
        "_hex": "0x5208"
      },
      "to": "0x32Be343B94f860124dC4fEe278FDCBD38C102D88",
      "value": {
        "_hex": "0x24f595e863de9800"
      },
      "nonce": 4,
      "data": "0x",
      "r": "0x250ac0bff906de8a25e62091864c9b110ee4f662778842eb52ba4d7b7bbe7af6",
      "s": "0x39ad08cbec388be432156fd54addf6448d2703a46eda3b68ce25fc8bf3cf2cc2",
      "v": 28,
      "creates": null,
      "raw": "0xf86c04850caf82a5ff8252089432be343b94f860124dc4fee278fdcbd38c102d888824f595e863de9800801ca0250ac0bff906de8a25e62091864c9b110ee4f662778842eb52ba4d7b7bbe7af6a039ad08cbec388be432156fd54addf6448d2703a46eda3b68ce25fc8bf3cf2cc2",
      "networkId": 0,
      "chainId": 0
    }
  ]
}