{
  "hash": "0x32b3d66092b6d5c45b655f1e8adac5a12dd5a5fda2a218ca09d4ddc400b71563",
  "parentHash": "0x329a5ebc0f39f12fc37a04d8727c8ae7db09af6240441b076bdae46f78ac611d",
  "number": 47125,
  "timestamp": 1438934591,
  "nonce": "0x1c2b66d8d7dc70aa",
  "difficulty": 1460963352767,
  "gasLimit": {
    "_hex": "0x9977"
  },
  "gasUsed": {
    "_hex": "0x5208"
  },
  "miner": "0x107C98584d4B18bC54E1D74F4d7a0bF505Ca466f",
  "extraData": "0x476574682f76312e302e312f6c696e75782f676f312e342e32",
  "transactions": [
    {
      "hash": "0x3af726b66e6e5bdfed8d660587f36bfd1f826128f68f544c0b85be13e54d4591",
      "blockHash": "0x32b3d66092b6d5c45b655f1e8adac5a12dd5a5fda2a218ca09d4ddc400b71563",
      "blockNumber": 47125,
      "transactionIndex": 0,
      "confirmations": null,
      "from": "0xe6A7a1d47ff21B6321162AEA7C6CB457D5476Bca",
      "gasPrice": {
        "_hex": "0xcd6e27ffc"
      },
      "gasLimit": {
        "_hex": "0x5208"
      },
      "to": "0x15A77BDBF3B8FEcc6E606874365fCF11a9BE6c0f",
      "value": {
        "_hex": "0x3185132916fad648"
      },
      "nonce": 48,
      "data": "0x",
      "r": "0xd0a7dc45ccd0ee652c7ae4b0d6e0abafd7de86cd402ebfd1f3ed85b913a749af",
      "s": "0x7d30833fa949afb1f45645f78adce1f302a35e1d6458ba5011ff8e37929477ef",
      "v": 28,
      "creates": null,
      "raw": "0xf86c30850cd6e27ffc8252089415a77bdbf3b8fecc6e606874365fcf11a9be6c0f883185132916fad648801ca0d0a7dc45ccd0ee652c7ae4b0d6e0abafd7de86cd402ebfd1f3ed85b913a749afa07d30833fa949afb1f45645f78adce1f302a35e1d6458ba5011ff8e37929477ef",
      "networkId": 0,
      "chainId": 0
    }
  ]
}