{
  "hash": "0x23e1d63506f4fd6405f064abaef682c5b4f3b4912030d972fb9c0b1eaf587e40",
  "parentHash": "0xbee4330cdd56d2bcc47fa42e52e3c089c649b209acc0ae5611f6c7bc7c0b350e",
  "number": 46240,
  "timestamp": 1438919809,
  "nonce": "0xb73c5b1dc4c1c097",
  "difficulty": 1460404230700,
  "gasLimit": {
    "_hex": "0x5618"
  },
  "gasUsed": {
    "_hex": "0x5208"
  },
  "miner": "0xcaD6D85426181593cf3E16f594824847600c6122",
  "extraData": "0x476574682f3130312f76312e302e312f6c696e75782f676f312e342e32",
  "transactions": [
    {
      "hash": "0x04ff148add6a0b71ba11ff0813e376c0bf12a23bc9b984b9fdac33f3ad85121d",
      "blockHash": "0x23e1d63506f4fd6405f064abaef682c5b4f3b4912030d972fb9c0b1eaf587e40",
      "blockNumber": 46240,
      "transactionIndex": 0,
      "confirmations": null,
      "from": "0x136D4b662BbD1080Cfe4445B0fA213864435B7f1",
      "gasPrice": {
        "_hex": "0x12f3dfeb61"
      },
      "gasLimit": {
        "_hex": "0x5208"
      },
      "to": "0xc8ebccC5F5689Fa8659d83713341e5aD19349448",
      "value": {
        "_hex": "0x3635c9adc5dea00000"
      },
      "nonce": 0,
      "data": "0x",
      "r": "0x68b3b598282309080c95822cc33f2efa6fa4d0132c442536343c4553c3fbf979",
      "s": "0x250dc2185bbe3ac25b89fac71d48ede2412d09522face6368f359609d65d2a15",
      "v": 27,
      "creates": null,
      "raw": "0xf86d808512f3dfeb6182520894c8ebccc5f5689fa8659d83713341e5ad19349448893635c9adc5dea00000801ba068b3b598282309080c95822cc33f2efa6fa4d0132c442536343c4553c3fbf979a0250dc2185bbe3ac25b89fac71d48ede2412d09522face6368f359609d65d2a15",
      "networkId": 0,
      "chainId": 0
    }
  ]
}