{
  "hash": "0xf3965c2c2bc9c6532bfeee5b54585c680afb2f317b324cece998207d027dc914",
  "parentHash": "0x0dc72e07805f51be6652a1f0bf2a73f3dda9837d47f525487809f8057e9a19e7",
  "number": 78383,
  "timestamp": 1439452969,
  "nonce": "0x11efe6bddb53b693",
  "difficulty": 2276491551676,
  "gasLimit": {
    "_hex": "0x2fefd8"
  },
  "gasUsed": {
    "_hex": "0x5208"
  },
  "miner": "0xa50ec0D39fa913E62f1Bae7074E6F36caA71855b",
  "extraData": "0xd783010001844765746887676f312e342e32856c696e7578",
  "transactions": [
    {
      "hash": "0x048cef5fb827ce669f1140b2c509d92665536fb1f4ab390015a71c45fa67bdc8",
      "blockHash": "0xf3965c2c2bc9c6532bfeee5b54585c680afb2f317b324cece998207d027dc914",
      "blockNumber": 78383,
      "transactionIndex": 0,
      "confirmations": null,
      "from": "0xa70a9a7040d542C632D8e0bE7c5513A8a5Bbc752",
      "gasPrice": {
        "_hex": "0xd7676277b"
      },
      "gasLimit": {
        "_hex": "0x5208"
      },
      "to": "0x32Be343B94f860124dC4fEe278FDCBD38C102D88",
      "value": {
        "_hex": "0x34065cc4c3bff800"
      },
      "nonce": 50,
      "data": "0x",
      "r": "0xc35502581590699ccba928ff47a7ad84e97856dd4b79d4322dd2f7f4bf6c968b",
      "s": "0x3e5f09deb4f2ecf1c72835dfd608a37807eb3942ced13ba737a1c957d36c7e71",
      "v": 28,
      "creates": null,
      "raw": "0xf86c32850d7676277b8252089432be343b94f860124dc4fee278fdcbd38c102d888834065cc4c3bff800801ca0c35502581590699ccba928ff47a7ad84e97856dd4b79d4322dd2f7f4bf6c968ba03e5f09deb4f2ecf1c72835dfd608a37807eb3942ced13ba737a1c957d36c7e71",
      "networkId": 0,
      "chainId": 0
    }
  ]
}