{
  "hash": "0x5a96846cd68ad82ee37f9b6ba8d71235eec9ec37c47880606fe021be846cce84",
  "parentHash": "0x39630796ef2fa090e4473b4810840051270e4308f22a40923b27f2eb3fb4646f",
  "number": 121887,
  "timestamp": 1440184406,
  "nonce": "0x965257b2f26dfe01",
  "difficulty": 4473242331588,
  "gasLimit": {
    "_hex": "0x2fefd8"
  },
  "gasUsed": {
    "_hex": "0xf618"
  },
  "miner": "0x87cD3b7f4DBBFE553DB92Ac1C97c6C24231c5D26",
  "extraData": "0x476574682f76312e302e322f6c696e75782f676f312e342e32",
  "transactions": [
    {
      "hash": "0x40e8fb27d58545e011f12f75ea2641bceddd0d29ab64a23f8e2099b4ed424e46",
      "blockHash": "0x5a96846cd68ad82ee37f9b6ba8d71235eec9ec37c47880606fe021be846cce84",
      "blockNumber": 121887,
      "transactionIndex": 0,
      "confirmations": null,
      "from": "0xe72717ae0d6792286968449ABA7d469BCAE1d957",
      "gasPrice": {
        "_hex": "0xd9a0ad88b"
      },
      "gasLimit": {
        "_hex": "0x5208"
      },
      "to": "0x32Be343B94f860124dC4fEe278FDCBD38C102D88",
      "value": {
        "_hex": "0x2c305a5336da4400"
      },
      "nonce": 12,
      "data": "0x",
      "r": "0xa06e9126836197178e2ddf8b368b3a333d13bf9169321b7b4479c153864fa23a",
      "s": "0x520042a6373a731d27181ba95a938d8a092ceaf5d007fb2b410c375acfa5376e",
      "v": 28,
      "creates": null,
      "raw": "0xf86c0c850d9a0ad88b8252089432be343b94f860124dc4fee278fdcbd38c102d88882c305a5336da4400801ca0a06e9126836197178e2ddf8b368b3a333d13bf9169321b7b4479c153864fa23aa0520042a6373a731d27181ba95a938d8a092ceaf5d007fb2b410c375acfa5376e",
      "networkId": 0,
      "chainId": 0
    },
    {
      "hash": "0x2d05b71d0637e4eeb3f983b0f0b281fc9f875d6105b5b6c38d5d9e73da490d8d",
      "blockHash": "0x5a96846cd68ad82ee37f9b6ba8d71235eec9ec37c47880606fe021be846cce84",
      "blockNumber": 121887,
      "transactionIndex": 1,
      "confirmations": null,
      "from": "0xe6A7a1d47ff21B6321162AEA7C6CB457D5476Bca",
      "gasPrice": {
        "_hex": "0xba43b7400"
      },
      "gasLimit": {
        "_hex": "0x55f0"
      },
      "to": "0x10a3287DC19D160c0EF7dAE4e51670b0394ef951",
      "value": {
        "_hex": "0xd5afb8d7e7270a30"
      },
      "nonce": 6698,
      "data": "0x",
      "r": "0xdc15ce4a3511ccdf55d62824e42fa6302d3c048ffdeadf4c217f94f43c537cba",
      "s": "0x63e4ebee7b1b4e206dc9ef682006641af7f8022fd75177a2b2b4135c4a897916",
      "v": 27,
      "creates": null,
      "raw": "0xf86e821a2a850ba43b74008255f09410a3287dc19d160c0ef7dae4e51670b0394ef95188d5afb8d7e7270a30801ba0dc15ce4a3511ccdf55d62824e42fa6302d3c048ffdeadf4c217f94f43c537cbaa063e4ebee7b1b4e206dc9ef682006641af7f8022fd75177a2b2b4135c4a897916",
      "networkId": 0,
      "chainId": 0
    },
    {
      "hash": "0x19269aeb37faad7645a330f795444323ce1c5a1e8723a5ccd084231116dc9bac",
      "blockHash": "0x5a96846cd68ad82ee37f9b6ba8d71235eec9ec37c47880606fe021be846cce84",
      "blockNumber": 121887,
      "transactionIndex": 2,
      "confirmations": null,
      "from": "0xe6A7a1d47ff21B6321162AEA7C6CB457D5476Bca",
      "gasPrice": {
        "_hex": "0xba43b7400"
      },
      "gasLimit": {
        "_hex": "0x55f0"
      },
      "to": "0x383Ad663AFd1716301FC92d469d9985b97cfBCB0",
      "value": {
        "_hex": "0xd7174fb893ced9b8"
      },
      "nonce": 6699,
      "data": "0x",
      "r": "0xc6defe674744d17ba4c213e769b507557e6bdfd9a190be925c6bbe52476b7bfa",
      "s": "0x06dd7c68cb8b30bb8b28524e849a9d8db7d0bcf9157584ffd61144159012ef49",
      "v": 27,
      "creates": null,
      "raw": "0xf86e821a2b850ba43b74008255f094383ad663afd1716301fc92d469d9985b97cfbcb088d7174fb893ced9b8801ba0c6defe674744d17ba4c213e769b507557e6bdfd9a190be925c6bbe52476b7bfaa006dd7c68cb8b30bb8b28524e849a9d8db7d0bcf9157584ffd61144159012ef49",
      "networkId": 0,
      "chainId": 0
    }
  ]
}