{
  "hash": "0x07c84194730ce4bb7f6e18cae97d89441479917c892cd6c81afee1c7b63ee530",
  "parentHash": "0x53081782eb87d17c64f386f36435df78708c358c8b751b1d42d05530f73b9ed9",
  "number": 50249,
  "timestamp": 1438986071,
  "nonce": "0x3765876f3a6e2944",
  "difficulty": 1514153374846,
  "gasLimit": {
    "_hex": "0x58ae2"
  },
  "gasUsed": {
    "_hex": "0x117bc"
  },
  "miner": "0xeB1325C8D9d3ea8D74aC11F4B00F1B2367686319",
  "extraData": "0x476574682f76312e302e312f77696e646f77732f676f312e342e32",
  "transactions": [
    {
      "hash": "0xc7b726f297f9eb9b7d17864b31ed3b2f527672fcdf71d6fcd2728abaa6397851",
      "blockHash": "0x07c84194730ce4bb7f6e18cae97d89441479917c892cd6c81afee1c7b63ee530",
      "blockNumber": 50249,
      "transactionIndex": 0,
      "confirmations": null,
      "from": "0xfC372FF6927CB396d9cf29803500110Da632bC52",
      "gasPrice": {
        "_hex": "0x1056c6e0788"
      },
      "gasLimit": {
        "_hex": "0xc350"
      },
      "to": "0x109C4f2CCc82C4d77Bde15F306707320294Aea3F",
      "value": {
        "_hex": "0x56bc75e2d63100000"
      },
      "nonce": 0,
      "data": "0x",
      "r": "0x1079ee0629632d429b6299b3b6d6ea6f814d7b361313ca9c57c17f33c0154a96",
      "s": "0x117aec047d5e6ddc9c2e80169f8273a27315491da35d5bafd8c7291eee7c304d",
      "v": 27,
      "creates": null,
      "raw": "0xf86e808601056c6e078882c35094109c4f2ccc82c4d77bde15f306707320294aea3f89056bc75e2d63100000801ba01079ee0629632d429b6299b3b6d6ea6f814d7b361313ca9c57c17f33c0154a96a0117aec047d5e6ddc9c2e80169f8273a27315491da35d5bafd8c7291eee7c304d",
      "networkId": 0,
      "chainId": 0
    },
    {
      "hash": "0x58a2cf5eaf3920ff4387b0e4c206169140ff9f8a998a5becff3bf4f6f3b91a57",
      "blockHash": "0x07c84194730ce4bb7f6e18cae97d89441479917c892cd6c81afee1c7b63ee530",
      "blockNumber": 50249,
      "transactionIndex": 1,
      "confirmations": null,
      "from": "0x3e76a62db187AA74f63817533B306cEAd0e8CebE",
      "gasPrice": {
        "_hex": "0xd6b0a4690"
      },
      "gasLimit": {
        "_hex": "0x15f90"
      },
      "to": "0x2910543Af39abA0Cd09dBb2D50200b3E800A63D2",
      "value": {
        "_hex": "0xde0b6b3a7640000"
      },
      "nonce": 0,
      "data": "0x454e45554350585a30",
      "r": "0x996de422fc10461f231cce958a8df87e0c60f5b17695423b488e799d662a2c89",
      "s": "0x195c4f0383e740445104f502f35719e5afd73b067189d8b4188b7c0f2257550c",
      "v": 27,
      "creates": null,
      "raw": "0xf87680850d6b0a469083015f90942910543af39aba0cd09dbb2d50200b3e800a63d2880de0b6b3a764000089454e45554350585a301ba0996de422fc10461f231cce958a8df87e0c60f5b17695423b488e799d662a2c89a0195c4f0383e740445104f502f35719e5afd73b067189d8b4188b7c0f2257550c",
      "networkId": 0,
      "chainId": 0
    }
  ]
}