{
  "hash": "0x3f20f38fbffa16a58b181bf86a159805c390760428445dd857b9f27fc5a42a91",
  "parentHash": "0x6b02941ea05089088c3012e7950f330fd84b65cd42e85bae9f85601353eb646b",
  "number": 85326,
  "timestamp": 1439561872,
  "nonce": "0x9814fa4a26d518df",
  "difficulty": 2745041218223,
  "gasLimit": {
    "_hex": "0x2fefd8"
  },
  "gasUsed": {
    "_hex": "0x5208"
  },
  "miner": "0x9D49F602b0fdb924Bd63DDE2Bd0907E4A07c63a7",
  "extraData": "0x476574682f76312e302e312f6c696e75782f676f312e342e32",
  "transactions": [
    {
      "hash": "0x09b297e6aaeb96fb42e315b93b5366a4558f41b455151895ca8abf7765b5228a",
      "blockHash": "0x3f20f38fbffa16a58b181bf86a159805c390760428445dd857b9f27fc5a42a91",
      "blockNumber": 85326,
      "transactionIndex": 0,
      "confirmations": null,
      "from": "0x182c02d431a667bF08d1BB680306aB6feC4971e5",
      "gasPrice": {
        "_hex": "0xe014737e8"
      },
      "gasLimit": {
        "_hex": "0x15f90"
      },
      "to": "0xfe8635C30D5b0a49D09Fc9480d59e05d7450fd41",
      "value": {
        "_hex": "0x120a3e3987f02650"
      },
      "nonce": 1,
      "data": "0x",
      "r": "0xef822e41937488f5aea4bbf0d8d3d7df0db6416a820c712381bf93b9e9c3552a",
      "s": "0x05835c09f1291ca4950b7e126dd8d34d6251b19a0d4e84e66ea00b24edceff00",
      "v": 28,
      "creates": null,
      "raw": "0xf86d01850e014737e883015f9094fe8635c30d5b0a49d09fc9480d59e05d7450fd4188120a3e3987f02650801ca0ef822e41937488f5aea4bbf0d8d3d7df0db6416a820c712381bf93b9e9c3552aa005835c09f1291ca4950b7e126dd8d34d6251b19a0d4e84e66ea00b24edceff00",
      "networkId": 0,
      "chainId": 0
    }
  ]
}