{
  "hash": "0x02771aea0508ab26d4defea266d049cfb01fe0cd017c4cdca203a4b149eaa462",
  "parentHash": "0xc3b5cb6e409f13267b2a15fdf3a78b891b4e7bf876a3574383cdd0cb98d31a54",
  "number": 46349,
  "timestamp": 1438921677,
  "nonce": "0x8020d8d8ef45977b",
  "difficulty": 1462526058572,
  "gasLimit": {
    "_hex": "0x5c4e"
  },
  "gasUsed": {
    "_hex": "0x56d0"
  },
  "miner": "0xd8aE46Ba60513f7811Dcd26882405F6Be01C730F",
  "extraData": "0x627463616464722e65732f717561",
  "transactions": [
    {
      "hash": "0x4a110de8110bb9eb250bdeb772ecafd517dfa109c14ff5d93dcfb96e9c562bb8",
      "blockHash": "0x02771aea0508ab26d4defea266d049cfb01fe0cd017c4cdca203a4b149eaa462",
      "blockNumber": 46349,
      "transactionIndex": 0,
      "confirmations": null,
      "from": "0x22F2DcFf5aD78c3Eb6850B5Cb951127B659522E6",
      "gasPrice": {
        "_hex": "0x517da02c00"
      },
      "gasLimit": {
        "_hex": "0x59d8"
      },
      "to": "0x9AA9205fAa68e731703c633b53FE5AF8eCe59d38",
      "value": {
        "_hex": "0xde0b6b3a7640000"
      },
      "nonce": 2,
      "data": "0x4672616e6b6f2069732046726565646f6d2e",
      "r": "0xda05aaab26d184da8bfda8d3deb3b991b2bcf5c6b5723b3ec812dae8735b87f7",
      "s": "0x352a1cee6e1c2a82d0fcdda3df0d746a6af2630ca012b1320bec5f257a3247ef",
      "v": 27,
      "creates": null,
      "raw": "0xf87e0285517da02c008259d8949aa9205faa68e731703c633b53fe5af8ece59d38880de0b6b3a7640000924672616e6b6f2069732046726565646f6d2e1ba0da05aaab26d184da8bfda8d3deb3b991b2bcf5c6b5723b3ec812dae8735b87f7a0352a1cee6e1c2a82d0fcdda3df0d746a6af2630ca012b1320bec5f257a3247ef",
      "networkId": 0,
      "chainId": 0
    }
  ]
}