{
  "hash": "0x36e1cd2b7874d261afca7bdcb2e5eb38e23747d3bcfca527e4b15a5803e6b1af",
  "parentHash": "0x96eb64638eaab45833f43d23bdce73cf7cfd9e6d2ef5ad39ef1b9700f66f8485",
  "number": 72498,
  "timestamp": 1439353632,
  "nonce": "0x05e2485efcdf0a37",
  "difficulty": 2200465744413,
  "gasLimit": {
    "_hex": "0x2fefd8"
  },
  "gasUsed": {
    "_hex": "0x5208"
  },
  "miner": "0xe6A7a1d47ff21B6321162AEA7C6CB457D5476Bca",
  "extraData": "0x476574682f76312e302e312d38326566323666362f6c696e75782f676f312e34",
  "transactions": [
    {
      "hash": "0x9ad35b677d329755bdac3be7f236b316f9650f71d8af7978ebe6a2b8764a297f",
      "blockHash": "0x36e1cd2b7874d261afca7bdcb2e5eb38e23747d3bcfca527e4b15a5803e6b1af",
      "blockNumber": 72498,
      "transactionIndex": 0,
      "confirmations": null,
      "from": "0x1308A2e95c0160B90803ddCA9B9a5bb55E416d79",
      "gasPrice": {
        "_hex": "0x9184e72a000"
      },
      "gasLimit": {
        "_hex": "0x15f90"
      },
      "to": "0x5b333696E04ccA1692e71986579c920D6B2916F9",
      "value": {
        "_hex": "0x26a4471448ee6e3400"
      },
      "nonce": 118,
      "data": "0x",
      "r": "0xce9c3b4ca10d63a33c18635f693b71b330625f426c7f477d9c0b6acd94058044",
      "s": "0x3b3170f6102353264f2901e608334ae61aaaa179645b193837397a5f78dc1d74",
      "v": 27,
      "creates": null,
      "raw": "0xf86f768609184e72a00083015f90945b333696e04cca1692e71986579c920d6b2916f98926a4471448ee6e3400801ba0ce9c3b4ca10d63a33c18635f693b71b330625f426c7f477d9c0b6acd94058044a03b3170f6102353264f2901e608334ae61aaaa179645b193837397a5f78dc1d74",
      "networkId": 0,
      "chainId": 0
    }
  ]
}