{
  "hash": "0x0f7359847ed14ac9f6e2852efa12f39b514f0292bf52854a0d16f91a920c6deb",
  "parentHash": "0xdad33826b99d913d19546b55508d68c4119456ea0156f893527c9d2128d0bf54",
  "number": 64564,
  "timestamp": 1439222769,
  "nonce": "0xb4c9142760318124",
  "difficulty": 1889466514869,
  "gasLimit": {
    "_hex": "0x2fefd8"
  },
  "gasUsed": {
    "_hex": "0x5208"
  },
  "miner": "0x88D74a59454F6cF3B51ef6b9136AFb6b9D405A88",
  "extraData": "0x476574682f76312e302e312d37666266393930632f6c696e75782f676f312e34",
  "transactions": [
    {
      "hash": "0x18c2c2b06235783ae100c081e612f69ac676f6aed5a68e3196cbf47da52cd5be",
      "blockHash": "0x0f7359847ed14ac9f6e2852efa12f39b514f0292bf52854a0d16f91a920c6deb",
      "blockNumber": 64564,
      "transactionIndex": 0,
      "confirmations": null,
      "from": "0xEF6f9577EdDfE34DCBa0e339930799b391E1d66f",
      "gasPrice": {
        "_hex": "0xba43b7400"
      },
      "gasLimit": {
        "_hex": "0x5208"
      },
      "to": "0x6747f922385c9a6F9cfDf095F34345257DD597bE",
      "value": {
        "_hex": "0x1072bbac261c000"
      },
      "nonce": 1,
      "data": "0x",
      "r": "0x0f3620f974683e7286817f7ce2e623adb06a1fc411219167360e41234b06c652",
      "s": "0x295beb462bf23841429af226305f948d0cbb6cbebbb3f9ee0715b469d9469cb1",
      "v": 27,
      "creates": null,
      "raw": "0xf86c01850ba43b7400825208946747f922385c9a6f9cfdf095f34345257dd597be8801072bbac261c000801ba00f3620f974683e7286817f7ce2e623adb06a1fc411219167360e41234b06c652a0295beb462bf23841429af226305f948d0cbb6cbebbb3f9ee0715b469d9469cb1",
      "networkId": 0,
      "chainId": 0
    }
  ]
}