{
  "hash": "0x5cb5a96de35e7d0e21cb1f97b099f2edd9c17679ec53adaba8ff4b34e3343da4",
  "parentHash": "0x1c70d370854917d2a59aca669334ade0584ce49c1a64c8ac0634704eff8e6aaf",
  "number": 52588,
  "timestamp": 1439023978,
  "nonce": "0x0a08836762f42bd7",
  "difficulty": 1567129489414,
  "gasLimit": {
    "_hex": "0x15e653"
  },
  "gasUsed": {
    "_hex": "0xf4240"
  },
  "miner": "0xbb7B8287f3F0a933474a79eAe42CBCa977791171",
  "extraData": "0x476574682f4c5649562f76312e302e312f6c696e75782f676f312e342e32",
  "transactions": [
    {
      "hash": "0xb7f2f8ea5c8fbca07b63e0124b7fa7e3e2d00a2b65b0968578f02e51ffd36f1e",
      "blockHash": "0x5cb5a96de35e7d0e21cb1f97b099f2edd9c17679ec53adaba8ff4b34e3343da4",
      "blockNumber": 52588,
      "transactionIndex": 0,
      "confirmations": null,
      "from": "0x54dAeb3E8a6BBC797E4aD2b0339f134b186e4637",
      "gasPrice": {
        "_hex": "0xdce5b224a"
      },
      "gasLimit": {
        "_hex": "0x7a120"
      },
      "to": "0xBAA54d6E90c3F4d7Ebec11bD180134C7eD8eBb52",
      "value": {
        "_hex": "0x16345785d8a0000"
      },
      "nonce": 765,
      "data": "0x",
      "r": "0xf2442b6271f79395309994987cae3d396e800dd214af6a8cde25a91dbd5be5ae",
      "s": "0x5600ca18c338ddda74063886bf2f5f3c6ce83952ddb2e61cec80d9c553d89ade",
      "v": 28,
      "creates": null,
      "raw": "0xf86f8202fd850dce5b224a8307a12094baa54d6e90c3f4d7ebec11bd180134c7ed8ebb5288016345785d8a0000801ca0f2442b6271f79395309994987cae3d396e800dd214af6a8cde25a91dbd5be5aea05600ca18c338ddda74063886bf2f5f3c6ce83952ddb2e61cec80d9c553d89ade",
      "networkId": 0,
      "chainId": 0
    },
    {
      "hash": "0xe877991c3d4595a8535710b740b04eda1710cdf112ee333668663a7b07bb39ea",
      "blockHash": "0x5cb5a96de35e7d0e21cb1f97b099f2edd9c17679ec53adaba8ff4b34e3343da4",
      "blockNumber": 52588,
      "transactionIndex": 1,
      "confirmations": null,
      "from": "0x54dAeb3E8a6BBC797E4aD2b0339f134b186e4637",
      "gasPrice": {
        "_hex": "0xdf4ba21f9"
      },
      "gasLimit": {
        "_hex": "0x7a120"
      },
      "to": "0xBAA54d6E90c3F4d7Ebec11bD180134C7eD8eBb52",
      "value": {
        "_hex": "0x16345785d8a0000"
      },
      "nonce": 766,
      "data": "0x",
      "r": "0x7ea92ac5efad9e2dbad2d5ab91473f0f6cabcb112ae19d3db17d40edc39fce03",
      "s": "0x77b27a514673ffaf95dbba2b5e65dbda36bb93c6716eedecf4a3af6d99b76d34",
      "v": 28,
      "creates": null,
      "raw": "0xf86f8202fe850df4ba21f98307a12094baa54d6e90c3f4d7ebec11bd180134c7ed8ebb5288016345785d8a0000801ca07ea92ac5efad9e2dbad2d5ab91473f0f6cabcb112ae19d3db17d40edc39fce03a077b27a514673ffaf95dbba2b5e65dbda36bb93c6716eedecf4a3af6d99b76d34",
      "networkId": 0,
      "chainId": 0
    }
  ]
}