{
  "hash": "0xa1e4933d3a8d7ab1f4416adc99b5b5fd098a7e1bf8305262699a28d3e405adc9",
  "parentHash": "0x3f09d7d4abc7c104a29dc3c9bf3c7dfff29c57a859a9fd8b19286a7e3e4e1fc4",
  "number": 106851,
  "timestamp": 1439911737,
  "nonce": "0xf9e5379591fa374e",
  "difficulty": 4433386514516,
  "gasLimit": {
    "_hex": "0x2fefd8"
  },
  "gasUsed": {
    "_hex": "0x5208"
  },
  "miner": "0xe6A7a1d47ff21B6321162AEA7C6CB457D5476Bca",
  "extraData": "0x476574682f76312e302e312d38326566323666362f6c696e75782f676f312e34",
  "transactions": [
    {
      "hash": "0x279c0fb5ef96effa33fbd5beb6370a2f23dff01452cc8fa346984a78d460a4df",
      "blockHash": "0xa1e4933d3a8d7ab1f4416adc99b5b5fd098a7e1bf8305262699a28d3e405adc9",
      "blockNumber": 106851,
      "transactionIndex": 0,
      "confirmations": null,
      "from": "0x120A270bbC009644e35F0bB6ab13f95b8199c4ad",
      "gasPrice": {
        "_hex": "0xd742019df"
      },
      "gasLimit": {
        "_hex": "0x3d090"
      },
      "to": "0x60d85a32126130b225913C23dF4e5EF8b759fA09",
      "value": {
        "_hex": "0x25f273933db5700000"
      },
      "nonce": 790,
      "data": "0x",
      "r": "0x64eb31c087274b0ebdc1d2ec93f60843c86e96c9e61fb5122a4d4be9fed4cfb0",
      "s": "0x4de17c02713de2dc78a5e1e46968b17ff31f2c78ae688010a3dcc2807e742d31",
      "v": 28,
      "creates": null,
      "raw": "0xf870820316850d742019df8303d0909460d85a32126130b225913c23df4e5ef8b759fa098925f273933db5700000801ca064eb31c087274b0ebdc1d2ec93f60843c86e96c9e61fb5122a4d4be9fed4cfb0a04de17c02713de2dc78a5e1e46968b17ff31f2c78ae688010a3dcc2807e742d31",
      "networkId": 0,
      "chainId": 0
    }
  ]
}