{
  "hash": "0xf5493b6e7d36c58f962f292fb93fd78a6be10b273643ff53c8d483054f8c0de2",
  "parentHash": "0xf5ed5b437e560c13bd9e06b36597c6164fedc72b5ff401142bacb5d43b1e21d0",
  "number": 80381,
  "timestamp": 1439484833,
  "nonce": "0x77aa576e2a72d7e1",
  "difficulty": 2382846366982,
  "gasLimit": {
    "_hex": "0x2fefd8"
  },
  "gasUsed": {
    "_hex": "0x1b4ad"
  },
  "miner": "0xf8E0CA3Ed80bd541b94BEdCf259e8CF2141A9523",
  "extraData": "0x476574682f76312e302e312f77696e646f77732f676f312e342e32",
  "transactions": [
    {
      "hash": "0xed7f97bb413ee7d79dacda14a895dac44aafd80cb6c2316b906baac1ac4541f1",
      "blockHash": "0xf5493b6e7d36c58f962f292fb93fd78a6be10b273643ff53c8d483054f8c0de2",
      "blockNumber": 80381,
      "transactionIndex": 0,
      "confirmations": null,
      "from": "0x87C5B5874A18B4306DF8a752a6C8cc3E82daFc19",
      "gasPrice": {
        "_hex": "0x104ac64a6b8"
      },
      "gasLimit": {
        "_hex": "0x493e0"
      },
      "to": "0xC4c51de1AbF5D60DBd329eC0F999Fd8f021ae9fC",
      "value": {
        "_hex": "0x75cb26fbea04b10"
      },
      "nonce": 192,
      "data": "0x8d2161860000000000000000000000000000000000000000000000000000000000000006d3d96ceed0cfca4794c2a5a3d3aeefe69da0a2a669e66a5651f30b64831c3db0",
      "r": "0x6c82194af7f480d1ed858d76980d2beae1ff1f780c954bb3af4d334c035df4b8",
      "s": "0x461828c694917eed78c250d15e1c0bfe62d7147242502a4559f8e5abf9a42dc9",
      "v": 27,
      "creates": null,
      "raw": "0xf8b481c0860104ac64a6b8830493e094c4c51de1abf5d60dbd329ec0f999fd8f021ae9fc88075cb26fbea04b10b8448d2161860000000000000000000000000000000000000000000000000000000000000006d3d96ceed0cfca4794c2a5a3d3aeefe69da0a2a669e66a5651f30b64831c3db01ba06c82194af7f480d1ed858d76980d2beae1ff1f780c954bb3af4d334c035df4b8a0461828c694917eed78c250d15e1c0bfe62d7147242502a4559f8e5abf9a42dc9",
      "networkId": 0,
      "chainId": 0
    }
  ]
}