{
  "hash": "0xb6255a70d6b2ccd7be98c6036fd09ddadac2a4d43086b23d784885304730d4d2",
  "parentHash": "0xa51ba753b683e2f542f4bfcb977bea5bb4809cc7b060b5900f2954c833ab24ea",
  "number": 102326,
  "timestamp": 1439836287,
  "nonce": "0x72916b805b4bc52f",
  "difficulty": 3935642900636,
  "gasLimit": {
    "_hex": "0x2fefd8"
  },
  "gasUsed": {
    "_hex": "0x5208"
  },
  "miner": "0xbb7B8287f3F0a933474a79eAe42CBCa977791171",
  "extraData": "0x476574682f4c5649562f76312e302e312f6c696e75782f676f312e342e32",
  "transactions": [
    {
      "hash": "0xc6aa1d41780f3a4260590a48fc3db5b15eb0cfc793e77b003820449825f8e362",
      "blockHash": "0xb6255a70d6b2ccd7be98c6036fd09ddadac2a4d43086b23d784885304730d4d2",
      "blockNumber": 102326,
      "transactionIndex": 0,
      "confirmations": null,
      "from": "0x120A270bbC009644e35F0bB6ab13f95b8199c4ad",
      "gasPrice": {
        "_hex": "0xd052dec78"
      },
      "gasLimit": {
        "_hex": "0x3d090"
      },
      "to": "0x60d85a32126130b225913C23dF4e5EF8b759fA09",
      "value": {
        "_hex": "0x25f273933db5700000"
      },
      "nonce": 694,
      "data": "0x",
      "r": "0xa0e99a69a1983bcc2c2da9d0b35a1250642890f5a9de4636509edb04856f3c41",
      "s": "0x3362155fbb7267748e80732536165ab0459211a970753ac05089394ba4ae7ed6",
      "v": 28,
      "creates": null,
      "raw": "0xf8708202b6850d052dec788303d0909460d85a32126130b225913c23df4e5ef8b759fa098925f273933db5700000801ca0a0e99a69a1983bcc2c2da9d0b35a1250642890f5a9de4636509edb04856f3c41a03362155fbb7267748e80732536165ab0459211a970753ac05089394ba4ae7ed6",
      "networkId": 0,
      "chainId": 0
    }
  ]
}