{
  "hash": "0x5b8e4e6aab796358d350819357d1a3db67abcce220c8f05f613ccca9d031f14e",
  "parentHash": "0xda3590486d0fbc98df081c0f2ab48810887d0319012e7af7040885cb61f6082f",
  "number": 65118,
  "timestamp": 1439231670,
  "nonce": "0xee6fd23c74794765",
  "difficulty": 1926605664604,
  "gasLimit": {
    "_hex": "0x2fefd8"
  },
  "gasUsed": {
    "_hex": "0x17cd8"
  },
  "miner": "0x70137010922f2fC2964b3792907F79FBB75fEbe8",
  "extraData": "0x476574682f76312e302e302f6c696e75782f676f312e342e32",
  "transactions": [
    {
      "hash": "0xa562c804ecec8dbb51de43c1ccf95bbba14e4cab4b8c37c91c113218d819a5a2",
      "blockHash": "0x5b8e4e6aab796358d350819357d1a3db67abcce220c8f05f613ccca9d031f14e",
      "blockNumber": 65118,
      "transactionIndex": 0,
      "confirmations": null,
      "from": "0xb9D945210D2a51023959B8fD534C7499CF9450CC",
      "gasPrice": {
        "_hex": "0xba43b7400"
      },
      "gasLimit": {
        "_hex": "0x15f90"
      },
      "to": "0x793AE8C1b1a160BFc07BFB0d04F85eab1A71F4f2",
      "value": {
        "_hex": "0x0"
      },
      "nonce": 0,
      "data": "0x3ba15036",
      "r": "0x71088c6ee76e7b3b312293a6875125c1fd957a0cc208117a2b02c095b9edc860",
      "s": "0x621539707684d8e6039940e95939972d6df3840f8c34455cf2c398a56374fbc7",
      "v": 27,
      "creates": null,
      "raw": "0xf86980850ba43b740083015f9094793ae8c1b1a160bfc07bfb0d04f85eab1a71f4f280843ba150361ba071088c6ee76e7b3b312293a6875125c1fd957a0cc208117a2b02c095b9edc860a0621539707684d8e6039940e95939972d6df3840f8c34455cf2c398a56374fbc7",
      "networkId": 0,
      "chainId": 0
    },
    {
      "hash": "0xad07611247a968d4d1c54b2530f5dc7bd3e549a69f121441f1268c69e5ce642f",
      "blockHash": "0x5b8e4e6aab796358d350819357d1a3db67abcce220c8f05f613ccca9d031f14e",
      "blockNumber": 65118,
      "transactionIndex": 1,
      "confirmations": null,
      "from": "0x0260753EEe4D0F0D001Fe8ec0C0648B8094B691b",
      "gasPrice": {
        "_hex": "0xba43b7400"
      },
      "gasLimit": {
        "_hex": "0x15f90"
      },
      "to": "0x793AE8C1b1a160BFc07BFB0d04F85eab1A71F4f2",
      "value": {
        "_hex": "0x0"
      },
      "nonce": 0,
      "data": "0x3ba15036",
      "r": "0x75553e65d3c4101d7fe9828ec56f21bf57f9d902735676c8ef69f7423e3ccb04",
      "s": "0x548f5e331f8627c72b57a33acfacd5904cbf8d9e1c2a9a6806e214ed79bacd1c",
      "v": 27,
      "creates": null,
      "raw": "0xf86980850ba43b740083015f9094793ae8c1b1a160bfc07bfb0d04f85eab1a71f4f280843ba150361ba075553e65d3c4101d7fe9828ec56f21bf57f9d902735676c8ef69f7423e3ccb04a0548f5e331f8627c72b57a33acfacd5904cbf8d9e1c2a9a6806e214ed79bacd1c",
      "networkId": 0,
      "chainId": 0
    }
  ]
}