{
  "hash": "0x746967bfafd478198fbebc009fa0951c2f297a2893c93c53682515cd982aba6c",
  "parentHash": "0x4e09e30ab8cc3e2697e2aea66deba8dbbdac23f2f95919f459b3483d49e2019a",
  "number": 47210,
  "timestamp": 1438936138,
  "nonce": "0x267888b68b1a3edd",
  "difficulty": 1460235369494,
  "gasLimit": {
    "_hex": "0xa35b"
  },
  "gasUsed": {
    "_hex": "0x5208"
  },
  "miner": "0x47ff6576639c2e94762eA5443978D7681C0E78DC",
  "extraData": "0x476574682f76312e302e312f6c696e75782f676f312e342e32",
  "transactions": [
    {
      "hash": "0x115959ad70b8c5907d05d91b99a6985816b75eeb034f9c1d465bfd60304b359e",
      "blockHash": "0x746967bfafd478198fbebc009fa0951c2f297a2893c93c53682515cd982aba6c",
      "blockNumber": 47210,
      "transactionIndex": 0,
      "confirmations": null,
      "from": "0x1406854D149E081aC09Cb4CA560Da463f3123059",
      "gasPrice": {
        "_hex": "0xd150a5e46"
      },
      "gasLimit": {
        "_hex": "0x9c40"
      },
      "to": "0x11594d28A010e5c8e92576098d0d543eA32776FC",
      "value": {
        "_hex": "0x340aad21b3b700000"
      },
      "nonce": 7,
      "data": "0x",
      "r": "0x97485e5d29c99d54223e95c948c36709a0b9295737e2baa88822c45f97f75767",
      "s": "0x4bcb35097cf5f533c88aa078f0feda2a1a6b1e69eb364fdd4afe82a101a0ab57",
      "v": 27,
      "creates": null,
      "raw": "0xf86d07850d150a5e46829c409411594d28a010e5c8e92576098d0d543ea32776fc890340aad21b3b700000801ba097485e5d29c99d54223e95c948c36709a0b9295737e2baa88822c45f97f75767a04bcb35097cf5f533c88aa078f0feda2a1a6b1e69eb364fdd4afe82a101a0ab57",
      "networkId": 0,
      "chainId": 0
    }
  ]
}