{
  "hash": "0xed5b40e3a8ba940e150725a7ff43752365100a77066dd10873f3827e4ac5dab2",
  "parentHash": "0x8437898e7a5d6edc55b23dd648324a0ff7683d6ec0fed509ef07e06318e3cba0",
  "number": 94896,
  "timestamp": 1439715582,
  "nonce": "0x34133960974e2dd9",
  "difficulty": 3544833585293,
  "gasLimit": {
    "_hex": "0x2fefd8"
  },
  "gasUsed": {
    "_hex": "0x5208"
  },
  "miner": "0x007f7f58D3eb5b7510A301eCC749FC1fCDDBE14D",
  "extraData": "0x476574682f76312e302e312f77696e646f77732f676f312e342e32",
  "transactions": [
    {
      "hash": "0x888c5eec57b190af369f4f6c1c99de0ff6cca6e838f73c5003185eb9396dcadc",
      "blockHash": "0xed5b40e3a8ba940e150725a7ff43752365100a77066dd10873f3827e4ac5dab2",
      "blockNumber": 94896,
      "transactionIndex": 0,
      "confirmations": null,
      "from": "0x007f7f58D3eb5b7510A301eCC749FC1fCDDBE14D",
      "gasPrice": {
        "_hex": "0xcc8ddf695"
      },
      "gasLimit": {
        "_hex": "0x15f90"
      },
      "to": "0xb1abce2918E21ddb93AA452731a12672A3d9F75a",
      "value": {
        "_hex": "0x4563918244f40000"
      },
      "nonce": 45,
      "data": "0x",
      "r": "0x6ceabb51c7a2ebbe4992fcd4997dd184fb888df8a19dd9c310ddc3884e5f25bd",
      "s": "0x5662b765bb57333868ea1e348b494708ab0977ea68504448a450999972a3f190",
      "v": 28,
      "creates": null,
      "raw": "0xf86d2d850cc8ddf69583015f9094b1abce2918e21ddb93aa452731a12672a3d9f75a884563918244f40000801ca06ceabb51c7a2ebbe4992fcd4997dd184fb888df8a19dd9c310ddc3884e5f25bda05662b765bb57333868ea1e348b494708ab0977ea68504448a450999972a3f190",
      "networkId": 0,
      "chainId": 0
    }
  ]
}