{
  "hash": "0xfe853d3e6e00a7f20b0a3f9581405df797a3400c8c94ce455f686cc3920da853",
  "parentHash": "0xccaead824199fa398ff57945549487f5d7ae0324e167a14dd4b720cf2008b220",
  "number": 59808,
  "timestamp": 1439144059,
  "nonce": "0x4fd7c8b608c638ed",
  "difficulty": 1719674298284,
  "gasLimit": {
    "_hex": "0x2fefd8"
  },
  "gasUsed": {
    "_hex": "0x5208"
  },
  "miner": "0x88D74a59454F6cF3B51ef6b9136AFb6b9D405A88",
  "extraData": "0x476574682f76312e302e312d37666266393930632f6c696e75782f676f312e34",
  "transactions": [
    {
      "hash": "0xc0bbcfd4537a7438680e41af9c743519e64f89f8326f50744c4400c5251b5ba7",
      "blockHash": "0xfe853d3e6e00a7f20b0a3f9581405df797a3400c8c94ce455f686cc3920da853",
      "blockNumber": 59808,
      "transactionIndex": 0,
      "confirmations": null,
      "from": "0x664B099B945b899AaC84DA69dd6D4eEb3D03c8a3",
      "gasPrice": {
        "_hex": "0x746a528800"
      },
      "gasLimit": {
        "_hex": "0x5267"
      },
      "to": "0x27e806e70622d2864e1B1f4426D72FFb0457C83a",
      "value": {
        "_hex": "0x4806958090470000"
      },
      "nonce": 7,
      "data": "0x",
      "r": "0xaeb42c8f442ae07259777794429f9684e316d9c8424653e2e927173b501208d7",
      "s": "0xbc7bf61e281464eb1cbd41fb379c83566f9df398a66ae8ff5085827132082378",
      "v": 27,
      "creates": null,
      "raw": "0xf86c0785746a5288008252679427e806e70622d2864e1b1f4426d72ffb0457c83a884806958090470000801ba0aeb42c8f442ae07259777794429f9684e316d9c8424653e2e927173b501208d7a0bc7bf61e281464eb1cbd41fb379c83566f9df398a66ae8ff5085827132082378",
      "networkId": 0,
      "chainId": 0
    }
  ]
}