{
  "hash": "0xa1690fb625a040c4aa862d854bf095ce6d2fb34dcd64ad8260ea18f3b9375998",
  "parentHash": "0xf52b8e501f4a7b9d0748bd5a487610a2f6ca7148be1eb1e564c780cea95d0a23",
  "number": 49430,
  "timestamp": 1438973376,
  "nonce": "0x8c50b54b90f75d62",
  "difficulty": 1478500359636,
  "gasLimit": {
    "_hex": "0x30f42"
  },
  "gasUsed": {
    "_hex": "0x5208"
  },
  "miner": "0xf927a40C8B7F6E07c5af7FA2155B4864a4112B13",
  "extraData": "0x476574682f76312e302e312f6c696e75782f676f312e342e32",
  "transactions": [
    {
      "hash": "0x5f1f2434bb3e3ef107f6434fcefc1ad4f1468e57ad6aaf149b40d2cd4ee3089b",
      "blockHash": "0xa1690fb625a040c4aa862d854bf095ce6d2fb34dcd64ad8260ea18f3b9375998",
      "blockNumber": 49430,
      "transactionIndex": 0,
      "confirmations": null,
      "from": "0x84ad64deFF6B187f690634051D2a096C359D1099",
      "gasPrice": {
        "_hex": "0xd2b437ee6"
      },
      "gasLimit": {
        "_hex": "0x5208"
      },
      "to": "0xd8806Af9F36874CABFdC064548e4B74197E75e11",
      "value": {
        "_hex": "0x6046f37e5945c0000"
      },
      "nonce": 1,
      "data": "0x",
      "r": "0x3562292570d3cbb8fdfae428e155c57d0d6e7af7ca20c1ad4c1483448bab2126",
      "s": "0x23529cd7afed3b12017aae342ed30454e5d09e7035d63452cdd96c577a6651b4",
      "v": 28,
      "creates": null,
      "raw": "0xf86d01850d2b437ee682520894d8806af9f36874cabfdc064548e4b74197e75e118906046f37e5945c0000801ca03562292570d3cbb8fdfae428e155c57d0d6e7af7ca20c1ad4c1483448bab2126a023529cd7afed3b12017aae342ed30454e5d09e7035d63452cdd96c577a6651b4",
      "networkId": 0,
      "chainId": 0
    }
  ]
}