{
  "hash": "0x62dd3aeae12e85b7dd263605239a098b8f19af5c214de7112ff3370d2f931e42",
  "parentHash": "0xae573cd6f7514f60b82173d99c5c03ab7a67d0e2d92da06973961d07a8d4484c",
  "number": 115369,
  "timestamp": 1440056036,
  "nonce": "0x5e1ae6ca330045ee",
  "difficulty": 4551660309382,
  "gasLimit": {
    "_hex": "0x2fefd8"
  },
  "gasUsed": {
    "_hex": "0x5208"
  },
  "miner": "0xbb7B8287f3F0a933474a79eAe42CBCa977791171",
  "extraData": "0x476574682f4c5649562f76312e302e312f6c696e75782f676f312e342e32",
  "transactions": [
    {
      "hash": "0xe1845d38e1660a4d489adf6b68d1eeacc4e843114a227ff63a12960a0dceef8e",
      "blockHash": "0x62dd3aeae12e85b7dd263605239a098b8f19af5c214de7112ff3370d2f931e42",
      "blockNumber": 115369,
      "transactionIndex": 0,
      "confirmations": null,
      "from": "0xc7Dda420b6e858441b9Ea42B762dF14C59552fbb",
      "gasPrice": {
        "_hex": "0xd6b719919"
      },
      "gasLimit": {
        "_hex": "0x5208"
      },
      "to": "0x32Be343B94f860124dC4fEe278FDCBD38C102D88",
      "value": {
        "_hex": "0x260b404b38845400"
      },
      "nonce": 6,
      "data": "0x",
      "r": "0x0e049c74a98f8eedf07f7508fadd52098fc656288f54e31ebd0bf032ad759856",
      "s": "0x0eb4d93edfce46e4bae5f9d0265df160d7ee46d1711b94885adbfdfa50b8c03f",
      "v": 27,
      "creates": null,
      "raw": "0xf86c06850d6b7199198252089432be343b94f860124dc4fee278fdcbd38c102d8888260b404b38845400801ba00e049c74a98f8eedf07f7508fadd52098fc656288f54e31ebd0bf032ad759856a00eb4d93edfce46e4bae5f9d0265df160d7ee46d1711b94885adbfdfa50b8c03f",
      "networkId": 0,
      "chainId": 0
    }
  ]
}