{
  "hash": "0x9f1ce9f159e382682b54794e790f1bf90ba49161c5494095053fd1b6ee26e0e5",
  "parentHash": "0x49a039fb0a903847f34d27af64cb2b32f786db9e00d022d504542eb4aae9d3a9",
  "number": 70312,
  "timestamp": 1439317925,
  "nonce": "0x9caa7eaebf55145c",
  "difficulty": 2137491091689,
  "gasLimit": {
    "_hex": "0x2fefd8"
  },
  "gasUsed": {
    "_hex": "0x5208"
  },
  "miner": "0xf927a40C8B7F6E07c5af7FA2155B4864a4112B13",
  "extraData": "0x",
  "transactions": [
    {
      "hash": "0x2afd4a304aa80f4bcc9c90da389f88b1b481250fbf1c363707fd3eb644e3e473",
      "blockHash": "0x9f1ce9f159e382682b54794e790f1bf90ba49161c5494095053fd1b6ee26e0e5",
      "blockNumber": 70312,
      "transactionIndex": 0,
      "confirmations": null,
      "from": "0xD2e57181beE0BF25a2E7D377EaCCec854Bd65334",
      "gasPrice": {
        "_hex": "0xd2cc3bfba"
      },
      "gasLimit": {
        "_hex": "0x5208"
      },
      "to": "0x32Be343B94f860124dC4fEe278FDCBD38C102D88",
      "value": {
        "_hex": "0xad78a7942d5ed8000"
      },
      "nonce": 3,
      "data": "0x",
      "r": "0x4db5d904ce7009b6077a763296d6be811cb8fb00300edf63b8f1b91c2024df66",
      "s": "0x7f939530d63da72300eb0b7ff0b14b85c1b21756626930296960b47a9978d69b",
      "v": 27,
      "creates": null,
      "raw": "0xf86d03850d2cc3bfba8252089432be343b94f860124dc4fee278fdcbd38c102d88890ad78a7942d5ed8000801ba04db5d904ce7009b6077a763296d6be811cb8fb00300edf63b8f1b91c2024df66a07f939530d63da72300eb0b7ff0b14b85c1b21756626930296960b47a9978d69b",
      "networkId": 0,
      "chainId": 0
    }
  ]
}