{
  "hash": "0x8496f3ebec80178003984ba799e2f13feb086ec2781782bcbc2ced837426bab4",
  "parentHash": "0x8fd582bba722200cb28b104688c4e530974f254d5b8e92b6478aad38b8678e81",
  "number": 84320,
  "timestamp": 1439548003,
  "nonce": "0xf87e5d00281ab3e7",
  "difficulty": 2539052573715,
  "gasLimit": {
    "_hex": "0x2fefd8"
  },
  "gasUsed": {
    "_hex": "0x47c70"
  },
  "miner": "0x0D70592F27eC3d8996b4317150B3eD8C0CD57e38",
  "extraData": "0x476574682f76312e302e312f6c696e75782f676f312e342e32",
  "transactions": [
    {
      "hash": "0x86bf41db0106f92e7ed0fbabad8513a798d1870fce49936c2a80a926e456b765",
      "blockHash": "0x8496f3ebec80178003984ba799e2f13feb086ec2781782bcbc2ced837426bab4",
      "blockNumber": 84320,
      "transactionIndex": 0,
      "confirmations": null,
      "from": "0x19d1f826fce0c97733e0202eFCCc4A5608e8Eb6d",
      "gasPrice": {
        "_hex": "0xd75e04685"
      },
      "gasLimit": {
        "_hex": "0x5208"
      },
      "to": "0x32Be343B94f860124dC4fEe278FDCBD38C102D88",
      "value": {
        "_hex": "0x7bd08adc28a08800"
      },
      "nonce": 0,
      "data": "0x",
      "r": "0xccb46bbe7062b7d4856a1daccdbaab57ba67e29f79377bdbf7e888281de2f678",
      "s": "0x032d519d10bd67cb8347e763a3b6a3371967cd8cf16128af8ef7cb53d9745e60",
      "v": 28,
      "creates": null,
      "raw": "0xf86c80850d75e046858252089432be343b94f860124dc4fee278fdcbd38c102d88887bd08adc28a08800801ca0ccb46bbe7062b7d4856a1daccdbaab57ba67e29f79377bdbf7e888281de2f678a0032d519d10bd67cb8347e763a3b6a3371967cd8cf16128af8ef7cb53d9745e60",
      "networkId": 0,
      "chainId": 0
    },
    {
      "hash": "0xaa8342b2377b90e0d66d3c89c33fc156c7207eccdcc44a096a68532ba7f2f0ee",
      "blockHash": "0x8496f3ebec80178003984ba799e2f13feb086ec2781782bcbc2ced837426bab4",
      "blockNumber": 84320,
      "transactionIndex": 1,
      "confirmations": null,
      "from": "0x7001C4730b81A539eF8b760A3eEb14C64515137B",
      "gasPrice": {
        "_hex": "0xd75e04685"
      },
      "gasLimit": {
        "_hex": "0x5208"
      },
      "to": "0x32Be343B94f860124dC4fEe278FDCBD38C102D88",
      "value": {
        "_hex": "0x47780bc1727498000"
      },
      "nonce": 0,
      "data": "0x",
      "r": "0x29e3736296eed68eb86f528580683b0e0ef746e6b42f514d5c50b05babae900c",
      "s": "0x6bebda704861bd8a1c6d8c44cf8f8ed4f5624698c43216b7df183e675588acfa",
      "v": 27,
      "creates": null,
      "raw": "0xf86d80850d75e046858252089432be343b94f860124dc4fee278fdcbd38c102d8889047780bc1727498000801ba029e3736296eed68eb86f528580683b0e0ef746e6b42f514d5c50b05babae900ca06bebda704861bd8a1c6d8c44cf8f8ed4f5624698c43216b7df183e675588acfa",
      "networkId": 0,
      "chainId": 0
    },
    {
      "hash": "0xd3e397ce9459fcebde452fd2a130208581538a6dcc9c01815564c3d704bdbc7f",
      "blockHash": "0x8496f3ebec80178003984ba799e2f13feb086ec2781782bcbc2ced837426bab4",
      "blockNumber": 84320,
      "transactionIndex": 2,
      "confirmations": null,
      "from": "0xBa9CF76D809cF9f2e3f180AFb33f0adb0826D7DF",
      "gasPrice": {
        "_hex": "0xd75e04685"
      },
      "gasLimit": {
        "_hex": "0x5208"
      },
      "to": "0x32Be343B94f860124dC4fEe278FDCBD38C102D88",
      "value": {
        "_hex": "0x81f5856c3640e800"
      },
      "nonce": 0,
      "data": "0x",
      "r": "0xf4e51f27dd261a77cdc1862c1dc92ac1210b35e4ca4d571c75598aacff1c1a53",
      "s": "0x0c2988d516a87d4575ae483719a89a9a868fc8aa12a044f80854e1fd1dac2303",
      "v": 28,
      "creates": null,
      "raw": "0xf86c80850d75e046858252089432be343b94f860124dc4fee278fdcbd38c102d888881f5856c3640e800801ca0f4e51f27dd261a77cdc1862c1dc92ac1210b35e4ca4d571c75598aacff1c1a53a00c2988d516a87d4575ae483719a89a9a868fc8aa12a044f80854e1fd1dac2303",
      "networkId": 0,
      "chainId": 0
    },
    {
      "hash": "0x82ca0420079fde4cb3cd028fcc280097ab18a063fe1a9c2e7990c89b7eaaff52",
      "blockHash": "0x8496f3ebec80178003984ba799e2f13feb086ec2781782bcbc2ced837426bab4",
      "blockNumber": 84320,
      "transactionIndex": 3,
      "confirmations": null,
      "from": "0x383Ad663AFd1716301FC92d469d9985b97cfBCB0",
      "gasPrice": {
        "_hex": "0xd75e04685"
      },
      "gasLimit": {
        "_hex": "0x5208"
      },
      "to": "0x32Be343B94f860124dC4fEe278FDCBD38C102D88",
      "value": {
        "_hex": "0x13391e78512dc1000"
      },
      "nonce": 0,
      "data": "0x",
      "r": "0xa228d6f9853152d1c15963f88ad271f2aa8ca6e9d5b650873a6883132a4b4b74",
      "s": "0x2b0b8324e5877344d7811fd2d11a0e13ff8a8aa8942c16216e9ace5b1afc711d",
      "v": 28,
      "creates": null,
      "raw": "0xf86d80850d75e046858252089432be343b94f860124dc4fee278fdcbd38c102d8889013391e78512dc1000801ca0a228d6f9853152d1c15963f88ad271f2aa8ca6e9d5b650873a6883132a4b4b74a02b0b8324e5877344d7811fd2d11a0e13ff8a8aa8942c16216e9ace5b1afc711d",
      "networkId": 0,
      "chainId": 0
    },
    {
      "hash": "0x06d6d103c31cf791f23e7a8804aeb1edd92e708cdd049accd7d9e825bbca3911",
      "blockHash": "0x8496f3ebec80178003984ba799e2f13feb086ec2781782bcbc2ced837426bab4",
      "blockNumber": 84320,
      "transactionIndex": 4,
      "confirmations": null,
      "from": "0xB9eE81c1A5CdE84454DC603a8000836118627cfd",
      "gasPrice": {
        "_hex": "0xd75e04685"
      },
      "gasLimit": {
        "_hex": "0x5208"
      },
      "to": "0x32Be343B94f860124dC4fEe278FDCBD38C102D88",
      "value": {
        "_hex": "0x5a6d301f4d5c74000"
      },
      "nonce": 1,
      "data": "0x",
      "r": "0x01e87e8e31d4e78ea338a369462028b035ca2b2b408a9d0b923b27583faf70a9",
      "s": "0x6e862d756ab40d33eea6d6644caa8b97340cc199436353e70bccaeaf051763c7",
      "v": 28,
      "creates": null,
      "raw": "0xf86d01850d75e046858252089432be343b94f860124dc4fee278fdcbd38c102d888905a6d301f4d5c74000801ca001e87e8e31d4e78ea338a369462028b035ca2b2b408a9d0b923b27583faf70a9a06e862d756ab40d33eea6d6644caa8b97340cc199436353e70bccaeaf051763c7",
      "networkId": 0,
      "chainId": 0
    },
    {
      "hash": "0x15288ae75e6cd84353d093bbadc333836b323a7f3bd59608e5927aedcb622671",
      "blockHash": "0x8496f3ebec80178003984ba799e2f13feb086ec2781782bcbc2ced837426bab4",
      "blockNumber": 84320,
      "transactionIndex": 5,
      "confirmations": null,
      "from": "0xF2C14aDd753869D4EEdfefdCdFBA341Abfa1D702",
      "gasPrice": {
        "_hex": "0xd75e04685"
      },
      "gasLimit": {
        "_hex": "0x5208"
      },
      "to": "0x32Be343B94f860124dC4fEe278FDCBD38C102D88",
      "value": {
        "_hex": "0x18f4b8f919fc40000"
      },
      "nonce": 1,
      "data": "0x",
      "r": "0xb748ce64f8b25cd96d26b5ccbe15dd9b7f9fdd59e1d8913920dcaa4757fa4f9a",
      "s": "0x14b8ce633196681871b0811f0d6b64ed5fcddea336d4019b70b780a927d4ffd7",
      "v": 28,
      "creates": null,
      "raw": "0xf86d01850d75e046858252089432be343b94f860124dc4fee278fdcbd38c102d8889018f4b8f919fc40000801ca0b748ce64f8b25cd96d26b5ccbe15dd9b7f9fdd59e1d8913920dcaa4757fa4f9aa014b8ce633196681871b0811f0d6b64ed5fcddea336d4019b70b780a927d4ffd7",
      "networkId": 0,
      "chainId": 0
    },
    {
      "hash": "0x1d3b94bf3eead4952d7a36527c253b5ae7198becdb68d157921ccb571178cb03",
      "blockHash": "0x8496f3ebec80178003984ba799e2f13feb086ec2781782bcbc2ced837426bab4",
      "blockNumber": 84320,
      "transactionIndex": 6,
      "confirmations": null,
      "from": "0x5D9067970755043fF5cE7FA2cd21C12F3646Bc55",
      "gasPrice": {
        "_hex": "0xd75e04685"
      },
      "gasLimit": {
        "_hex": "0x5208"
      },
      "to": "0x32Be343B94f860124dC4fEe278FDCBD38C102D88",
      "value": {
        "_hex": "0x1cd241e4220016000"
      },
      "nonce": 1,
      "data": "0x",
      "r": "0x36f0012735cb159384ce8b819bc3cf8aae7254832c8f16602427c5633cd831d2",
      "s": "0x431615fd5c6e9c3cdbde84e572fc9201c7a562571421ae626d394df5d8258878",
      "v": 27,
      "creates": null,
      "raw": "0xf86d01850d75e046858252089432be343b94f860124dc4fee278fdcbd38c102d888901cd241e4220016000801ba036f0012735cb159384ce8b819bc3cf8aae7254832c8f16602427c5633cd831d2a0431615fd5c6e9c3cdbde84e572fc9201c7a562571421ae626d394df5d8258878",
      "networkId": 0,
      "chainId": 0
    },
    {
      "hash": "0x5f1a18bc771223be7569158ce4e3e9e389dd8fd1d4b1781ade62cbe14302a317",
      "blockHash": "0x8496f3ebec80178003984ba799e2f13feb086ec2781782bcbc2ced837426bab4",
      "blockNumber": 84320,
      "transactionIndex": 7,
      "confirmations": null,
      "from": "0x10a3287DC19D160c0EF7dAE4e51670b0394ef951",
      "gasPrice": {
        "_hex": "0xd75e04685"
      },
      "gasLimit": {
        "_hex": "0x5208"
      },
      "to": "0x32Be343B94f860124dC4fEe278FDCBD38C102D88",
      "value": {
        "_hex": "0x1b2092cb444230000"
      },
      "nonce": 0,
      "data": "0x",
      "r": "0x721de2fbf7822f3b1edc6c8c306c0add79d802a039f7cb9976c3cf3dfccd59c6",
      "s": "0x21569ba52b67c3164d35718073d91cc4227388db8026cc3223fdb77d3398e12c",
      "v": 28,
      "creates": null,
      "raw": "0xf86d80850d75e046858252089432be343b94f860124dc4fee278fdcbd38c102d888901b2092cb444230000801ca0721de2fbf7822f3b1edc6c8c306c0add79d802a039f7cb9976c3cf3dfccd59c6a021569ba52b67c3164d35718073d91cc4227388db8026cc3223fdb77d3398e12c",
      "networkId": 0,
      "chainId": 0
    },
    {
      "hash": "0x08d0a3daadcc43df5c762b77a22dc1adfc02cda039f575a3f38c48e0f591a43b",
      "blockHash": "0x8496f3ebec80178003984ba799e2f13feb086ec2781782bcbc2ced837426bab4",
      "blockNumber": 84320,
      "transactionIndex": 8,
      "confirmations": null,
      "from": "0x608f4b86321a68453f9adf6F06F7Fc3E621739ad",
      "gasPrice": {
        "_hex": "0xd75e04685"
      },
      "gasLimit": {
        "_hex": "0x5208"
      },
      "to": "0x32Be343B94f860124dC4fEe278FDCBD38C102D88",
      "value": {
        "_hex": "0x283963b4e365fe000"
      },
      "nonce": 0,
      "data": "0x",
      "r": "0x109cab468b5532de15cb01c3c2ed0e438f346178e51e3ad1b6bc083abf9d6da8",
      "s": "0x337fa2b68f0b34dc2ba98c351912c2a4ca4009465c60c01e4123e032c41dd04c",
      "v": 28,
      "creates": null,
      "raw": "0xf86d80850d75e046858252089432be343b94f860124dc4fee278fdcbd38c102d88890283963b4e365fe000801ca0109cab468b5532de15cb01c3c2ed0e438f346178e51e3ad1b6bc083abf9d6da8a0337fa2b68f0b34dc2ba98c351912c2a4ca4009465c60c01e4123e032c41dd04c",
      "networkId": 0,
      "chainId": 0
    },
    {
      "hash": "0x7480f97521f3179217168272a30d579e19f169f1b50e939bc4a71ba70b844805",
      "blockHash": "0x8496f3ebec80178003984ba799e2f13feb086ec2781782bcbc2ced837426bab4",
      "blockNumber": 84320,
      "transactionIndex": 9,
      "confirmations": null,
      "from": "0x61F642543d22bAf5382908a714E675Cc0b51ea45",
      "gasPrice": {
        "_hex": "0xd75e04685"
      },
      "gasLimit": {
        "_hex": "0x5208"
      },
      "to": "0x32Be343B94f860124dC4fEe278FDCBD38C102D88",
      "value": {
        "_hex": "0xd02664586fd2c800"
      },
      "nonce": 2,
      "data": "0x",
      "r": "0xb72608ceafe45e4cbd53cdc9b261cabe91d1bb3e2588d9749cdc900a9db539ad",
      "s": "0x6bfa4f63688a2d05e2a43bef093a52bc8ea155d1c1d0dec4e7398f981a70a485",
      "v": 27,
      "creates": null,
      "raw": "0xf86c02850d75e046858252089432be343b94f860124dc4fee278fdcbd38c102d8888d02664586fd2c800801ba0b72608ceafe45e4cbd53cdc9b261cabe91d1bb3e2588d9749cdc900a9db539ada06bfa4f63688a2d05e2a43bef093a52bc8ea155d1c1d0dec4e7398f981a70a485",
      "networkId": 0,
      "chainId": 0
    },
    {
      "hash": "0x5eddc8f948dc81167bb66f8de8872fc9ebc71bfc04d28c405e07ac67736a6891",
      "blockHash": "0x8496f3ebec80178003984ba799e2f13feb086ec2781782bcbc2ced837426bab4",
      "blockNumber": 84320,
      "transactionIndex": 10,
      "confirmations": null,
      "from": "0x4A29dF8a7967b36664f256F18dAcf2e58E9f1E7E",
      "gasPrice": {
        "_hex": "0xd75e04685"
      },
      "gasLimit": {
        "_hex": "0x5208"
      },
      "to": "0x32Be343B94f860124dC4fEe278FDCBD38C102D88",
      "value": {
        "_hex": "0x2e93bd00b924d6000"
      },
      "nonce": 0,
      "data": "0x",
      "r": "0xf323a593ec00209cd0425303405f9e8d774f0e54656ee6181646bbc85d9d406d",
      "s": "0x498e6d4ec251d771d37e47273c04396b519e943cf4ba0d616e85fb184aa17f4d",
      "v": 28,
      "creates": null,
      "raw": "0xf86d80850d75e046858252089432be343b94f860124dc4fee278fdcbd38c102d888902e93bd00b924d6000801ca0f323a593ec00209cd0425303405f9e8d774f0e54656ee6181646bbc85d9d406da0498e6d4ec251d771d37e47273c04396b519e943cf4ba0d616e85fb184aa17f4d",
      "networkId": 0,
      "chainId": 0
    },
    {
      "hash": "0xe5c10ec29a46d54e7a781537dc4b2366f5729ed27ac95e51750709f292c359ed",
      "blockHash": "0x8496f3ebec80178003984ba799e2f13feb086ec2781782bcbc2ced837426bab4",
      "blockNumber": 84320,
      "transactionIndex": 11,
      "confirmations": null,
      "from": "0x9A6eb0bBBE50281644D7a7839147F59819506Ac0",
      "gasPrice": {
        "_hex": "0xd75e04685"
      },
      "gasLimit": {
        "_hex": "0x5208"
      },
      "to": "0x32Be343B94f860124dC4fEe278FDCBD38C102D88",
      "value": {
        "_hex": "0xc3413e94df070000"
      },
      "nonce": 0,
      "data": "0x",
      "r": "0x8be0dfb4164c5d60aaed467b0b9906cc0720eced6e3920745549cece42919741",
      "s": "0x16d10c22ee4ef0058bee1e35e78a468b3be529bfe8e4613662a45ad46b44f72d",
      "v": 27,
      "creates": null,
      "raw": "0xf86c80850d75e046858252089432be343b94f860124dc4fee278fdcbd38c102d8888c3413e94df070000801ba08be0dfb4164c5d60aaed467b0b9906cc0720eced6e3920745549cece42919741a016d10c22ee4ef0058bee1e35e78a468b3be529bfe8e4613662a45ad46b44f72d",
      "networkId": 0,
      "chainId": 0
    },
    {
      "hash": "0x8eafed4b1963f6ed60488f2c54f55f8d0a9df3f0bbb7c022de2e8d7aaac045b9",
      "blockHash": "0x8496f3ebec80178003984ba799e2f13feb086ec2781782bcbc2ced837426bab4",
      "blockNumber": 84320,
      "transactionIndex": 12,
      "confirmations": null,
      "from": "0x0A38f5Ba343D4eA8641F955ecf98e1c43dF1B5a3",
      "gasPrice": {
        "_hex": "0xd75e04685"
      },
      "gasLimit": {
        "_hex": "0x5208"
      },
      "to": "0x32Be343B94f860124dC4fEe278FDCBD38C102D88",
      "value": {
        "_hex": "0x104780be86fa5e000"
      },
      "nonce": 0,
      "data": "0x",
      "r": "0xb293ed868673590e31d17e9a3c3791388dff06529d1af7ecd7ae4bbff082d529",
      "s": "0x466eac31d1670c7768b7aa07f17cf76f434a45106b89a9f72ae04919ed1c0264",
      "v": 28,
      "creates": null,
      "raw": "0xf86d80850d75e046858252089432be343b94f860124dc4fee278fdcbd38c102d88890104780be86fa5e000801ca0b293ed868673590e31d17e9a3c3791388dff06529d1af7ecd7ae4bbff082d529a0466eac31d1670c7768b7aa07f17cf76f434a45106b89a9f72ae04919ed1c0264",
      "networkId": 0,
      "chainId": 0
    },
    {
      "hash": "0x69b5c644b44477c6dcf3416fa068c2fd022a29efbfa8a9779804a1e9e4180983",
      "blockHash": "0x8496f3ebec80178003984ba799e2f13feb086ec2781782bcbc2ced837426bab4",
      "blockNumber": 84320,
      "transactionIndex": 13,
      "confirmations": null,
      "from": "0x250978C66B17d66f4167197A38b631d8900968C0",
      "gasPrice": {
        "_hex": "0xd75e04685"
      },
      "gasLimit": {
        "_hex": "0x5208"
      },
      "to": "0x32Be343B94f860124dC4fEe278FDCBD38C102D88",
      "value": {
        "_hex": "0x807fc3480d4950000"
      },
      "nonce": 0,
      "data": "0x",
      "r": "0x60c8f37fcd747124397ece87691bb18dfa556d8d971457181d5b3dd8a1eed567",
      "s": "0x32b0270dc8a2edb1176e52b5abfd0fb81f159bf620d6e0da85e468b4e51d756d",
      "v": 27,
      "creates": null,
      "raw": "0xf86d80850d75e046858252089432be343b94f860124dc4fee278fdcbd38c102d88890807fc3480d4950000801ba060c8f37fcd747124397ece87691bb18dfa556d8d971457181d5b3dd8a1eed567a032b0270dc8a2edb1176e52b5abfd0fb81f159bf620d6e0da85e468b4e51d756d",
      "networkId": 0,
      "chainId": 0
    }
  ]
}