{
  "hash": "0x6428698f797be1f3684db015a7f0527366254a9eee5377601cb325c803a99566",
  "parentHash": "0x449adab561cc99cf934c01c733cd76360d3fdb903c0a7a8c936094e4be9f456e",
  "number": 59385,
  "timestamp": 1439137353,
  "nonce": "0x4fc1376a1525e4fa",
  "difficulty": 1702216848210,
  "gasLimit": {
    "_hex": "0x2fefd8"
  },
  "gasUsed": {
    "_hex": "0x5208"
  },
  "miner": "0x785ffdDd5cE55c6DF963f345e68d3F2024E5Acb1",
  "extraData": "0x457468657265756d20474f212121212121",
  "transactions": [
    {
      "hash": "0xe306d63bfdfbffb113204b9b580d7ff781b595313da84f67bdb42ac03614bae0",
      "blockHash": "0x6428698f797be1f3684db015a7f0527366254a9eee5377601cb325c803a99566",
      "blockNumber": 59385,
      "transactionIndex": 0,
      "confirmations": null,
      "from": "0x03B35D960c861Fe987C50380d76db9D6Ae1fa510",
      "gasPrice": {
        "_hex": "0xdcfddd840"
      },
      "gasLimit": {
        "_hex": "0x5208"
      },
      "to": "0x961A3E33FC9789a8Adf573e07066BfCc81e21E5f",
      "value": {
        "_hex": "0x3a0aaa72bd8c29800"
      },
      "nonce": 4,
      "data": "0x",
      "r": "0xe2da7f6fe2c4e385325f219df4eb45ed3c9504e660d84da355497ea44475af6a",
      "s": "0x0d5d149d20df1957c35dcaf72e7b40c19f0edb721f4d83a63a053cbc26e651c8",
      "v": 28,
      "creates": null,
      "raw": "0xf86d04850dcfddd84082520894961a3e33fc9789a8adf573e07066bfcc81e21e5f8903a0aaa72bd8c29800801ca0e2da7f6fe2c4e385325f219df4eb45ed3c9504e660d84da355497ea44475af6aa00d5d149d20df1957c35dcaf72e7b40c19f0edb721f4d83a63a053cbc26e651c8",
      "networkId": 0,
      "chainId": 0
    }
  ]
}