{
  "hash": "0x9b3f2b68f621e7442da0218301ce6e64bbe1ffcb0990dcbbffde7a4f4bd24bf9",
  "parentHash": "0xd294a2b9ba82d73ca016c01c6719502ca4774c9396c4e592d21a8e0ec3a3a06d",
  "number": 69255,
  "timestamp": 1439300679,
  "nonce": "0xbb337274e4cab9c6",
  "difficulty": 2064918559073,
  "gasLimit": {
    "_hex": "0x2fefd8"
  },
  "gasUsed": {
    "_hex": "0x5208"
  },
  "miner": "0x39A1BB80a741bF5EC39FB9BE59408Fa0F418fFBf",
  "extraData": "0x476574682f76312e302e312f77696e646f77732f676f312e342e32",
  "transactions": [
    {
      "hash": "0x8b85daa7a95c5baf989eb47d4a55a01bfc79f76e6c9a7dd1ba33ea1da1c06bcd",
      "blockHash": "0x9b3f2b68f621e7442da0218301ce6e64bbe1ffcb0990dcbbffde7a4f4bd24bf9",
      "blockNumber": 69255,
      "transactionIndex": 0,
      "confirmations": null,
      "from": "0x33f844352144a9DDd91542b0adCD8Ba0dD142e93",
      "gasPrice": {
        "_hex": "0xcecd3c659"
      },
      "gasLimit": {
        "_hex": "0x15f90"
      },
      "to": "0x3a7dB224aCaE17de7798797D82cdF8253017DFa8",
      "value": {
        "_hex": "0xde0b6b3a7640000"
      },
      "nonce": 0,
      "data": "0x",
      "r": "0xf5625cd3dbc182187be926bbba3cd19367798c428d7622762cdf5801313fa4b9",
      "s": "0x145412877ddcb2745c4e42cbce6b26a322def5c62696f88ec8baae89823ebbe5",
      "v": 27,
      "creates": null,
      "raw": "0xf86d80850cecd3c65983015f90943a7db224acae17de7798797d82cdf8253017dfa8880de0b6b3a7640000801ba0f5625cd3dbc182187be926bbba3cd19367798c428d7622762cdf5801313fa4b9a0145412877ddcb2745c4e42cbce6b26a322def5c62696f88ec8baae89823ebbe5",
      "networkId": 0,
      "chainId": 0
    }
  ]
}