{
  "hash": "0x6bbf423d2066eb81ff814d81bccd9cad18266b0d4a4c34ceb82999ea8900e2d0",
  "parentHash": "0x91da9d63ee7372e6b1013b46c527e369a9afbb24edc1cacceec36b14beef296c",
  "number": 85142,
  "timestamp": 1439559061,
  "nonce": "0x539cf37ad01147c5",
  "difficulty": 2739745135822,
  "gasLimit": {
    "_hex": "0x2fefd8"
  },
  "gasUsed": {
    "_hex": "0xa410"
  },
  "miner": "0xe6A7a1d47ff21B6321162AEA7C6CB457D5476Bca",
  "extraData": "0x476574682f76312e302e312d38326566323666362f6c696e75782f676f312e34",
  "transactions": [
    {
      "hash": "0x58387f8665af0512aba40aebb6655a8f9290b4ac1fdd15d849596fffbc952295",
      "blockHash": "0x6bbf423d2066eb81ff814d81bccd9cad18266b0d4a4c34ceb82999ea8900e2d0",
      "blockNumber": 85142,
      "transactionIndex": 0,
      "confirmations": null,
      "from": "0xa70a9a7040d542C632D8e0bE7c5513A8a5Bbc752",
      "gasPrice": {
        "_hex": "0xce3ceb213"
      },
      "gasLimit": {
        "_hex": "0x5208"
      },
      "to": "0x32Be343B94f860124dC4fEe278FDCBD38C102D88",
      "value": {
        "_hex": "0x455f7023b0fbd400"
      },
      "nonce": 85,
      "data": "0x",
      "r": "0xce6df34fd4c84d5db1834ee8e0ff0174793cb5ce24d09d198a6db7915f00b034",
      "s": "0x7210f457075b0371adefb3526fb6a7741e29b405883d496cbe8e94f62181d889",
      "v": 27,
      "creates": null,
      "raw": "0xf86c55850ce3ceb2138252089432be343b94f860124dc4fee278fdcbd38c102d8888455f7023b0fbd400801ba0ce6df34fd4c84d5db1834ee8e0ff0174793cb5ce24d09d198a6db7915f00b034a07210f457075b0371adefb3526fb6a7741e29b405883d496cbe8e94f62181d889",
      "networkId": 0,
      "chainId": 0
    },
    {
      "hash": "0xed81b177ca9ee2873175550e91bdca405e64d0f8774d0d1d915bb935f9c7754c",
      "blockHash": "0x6bbf423d2066eb81ff814d81bccd9cad18266b0d4a4c34ceb82999ea8900e2d0",
      "blockNumber": 85142,
      "transactionIndex": 1,
      "confirmations": null,
      "from": "0x151e1b655BC131b5aCf57Df4C4193029a2Af43bE",
      "gasPrice": {
        "_hex": "0xce3ceb213"
      },
      "gasLimit": {
        "_hex": "0x5208"
      },
      "to": "0x32Be343B94f860124dC4fEe278FDCBD38C102D88",
      "value": {
        "_hex": "0x6c6b8f443c44a80000"
      },
      "nonce": 4,
      "data": "0x",
      "r": "0xf0d5a26d771b6f40f49912f62a25d69382b5ab6803d9ae7610939ebac3337ad4",
      "s": "0x0531ff1f72a777d07190757d3fe6ec0fbcada859dcbcb9e5d1e4638a5fac1656",
      "v": 27,
      "creates": null,
      "raw": "0xf86d04850ce3ceb2138252089432be343b94f860124dc4fee278fdcbd38c102d88896c6b8f443c44a80000801ba0f0d5a26d771b6f40f49912f62a25d69382b5ab6803d9ae7610939ebac3337ad4a00531ff1f72a777d07190757d3fe6ec0fbcada859dcbcb9e5d1e4638a5fac1656",
      "networkId": 0,
      "chainId": 0
    }
  ]
}