{
  "hash": "0x1b9fd24c3695e6619f1cb242f353c9dd19d21381fd1afb9764221b7b62bb64d0",
  "parentHash": "0xe92d69659d98e803d0e05fd3c56be03caaa6b5d678e230775583d9fbd2483bd4",
  "number": 72218,
  "timestamp": 1439349225,
  "nonce": "0xcf9ae0d4892824fe",
  "difficulty": 2174902133950,
  "gasLimit": {
    "_hex": "0x2fefd8"
  },
  "gasUsed": {
    "_hex": "0x142c1"
  },
  "miner": "0x9746c7e1ef2bd21FF3997fa467593a89cb852BD0",
  "extraData": "0x476574682f76312e302e312f77696e646f77732f676f312e342e32",
  "transactions": [
    {
      "hash": "0x6073b5ed32238a3b723ce055f238e29285b398a5b7a2ebff3b5bcd266b32dd45",
      "blockHash": "0x1b9fd24c3695e6619f1cb242f353c9dd19d21381fd1afb9764221b7b62bb64d0",
      "blockNumber": 72218,
      "transactionIndex": 0,
      "confirmations": null,
      "from": "0x17580B766f7453525ca4C6A88b01b50570EA088C",
      "gasPrice": {
        "_hex": "0xccda10e0f"
      },
      "gasLimit": {
        "_hex": "0x61a80"
      },
      "to": "0x5Fe5B7546D1628f7348B023A0393de1FC825A4fD",
      "value": {
        "_hex": "0x8ac7230489e80000"
      },
      "nonce": 389,
      "data": "0xb595b8b50000000000000000000000000000000000000000000000000000000000000001",
      "r": "0x93d8939b9f76ba59c7f6e1c4dd2bccc39597843fcb50a6c9d2c55014fb7ce862",
      "s": "0x03d591b8a1a2fff56b3dffa36c81795fea5337a34d79c58a1f0800cdacbca0b6",
      "v": 28,
      "creates": null,
      "raw": "0xf893820185850ccda10e0f83061a80945fe5b7546d1628f7348b023a0393de1fc825a4fd888ac7230489e80000a4b595b8b500000000000000000000000000000000000000000000000000000000000000011ca093d8939b9f76ba59c7f6e1c4dd2bccc39597843fcb50a6c9d2c55014fb7ce862a003d591b8a1a2fff56b3dffa36c81795fea5337a34d79c58a1f0800cdacbca0b6",
      "networkId": 0,
      "chainId": 0
    },
    {
      "hash": "0xd89e425dfe9f16785b0d641ba2261be743743eda12cb5a20bd3df46c79c0744f",
      "blockHash": "0x1b9fd24c3695e6619f1cb242f353c9dd19d21381fd1afb9764221b7b62bb64d0",
      "blockNumber": 72218,
      "transactionIndex": 1,
      "confirmations": null,
      "from": "0x17580B766f7453525ca4C6A88b01b50570EA088C",
      "gasPrice": {
        "_hex": "0xccda10e0f"
      },
      "gasLimit": {
        "_hex": "0x61a80"
      },
      "to": "0x5Fe5B7546D1628f7348B023A0393de1FC825A4fD",
      "value": {
        "_hex": "0x8ac7230489e80000"
      },
      "nonce": 390,
      "data": "0xb595b8b50000000000000000000000000000000000000000000000000000000000000001",
      "r": "0x82374d30a854f2fb15478b6d33f5b993488857b85204d8317ac8345d3b06f6ef",
      "s": "0x7f763f1cc2d187a64d5e37f8242a8d0a5141ae5ee6977d415dda5dc7148a3af7",
      "v": 28,
      "creates": null,
      "raw": "0xf893820186850ccda10e0f83061a80945fe5b7546d1628f7348b023a0393de1fc825a4fd888ac7230489e80000a4b595b8b500000000000000000000000000000000000000000000000000000000000000011ca082374d30a854f2fb15478b6d33f5b993488857b85204d8317ac8345d3b06f6efa07f763f1cc2d187a64d5e37f8242a8d0a5141ae5ee6977d415dda5dc7148a3af7",
      "networkId": 0,
      "chainId": 0
    }
  ]
}