{
  "hash": "0x9019474a96bb463e87360071231c0e72f638fb65f0120d23633b9d4c9507881d",
  "parentHash": "0xd566dbf7d9120e7f77b04511a7e1122da49841ad3656b7bd677fc4ac011a0ce4",
  "number": 117866,
  "timestamp": 1440116659,
  "nonce": "0x00c18fbbc67b1f59",
  "difficulty": 4331344464791,
  "gasLimit": {
    "_hex": "0x2fefd8"
  },
  "gasUsed": {
    "_hex": "0xf618"
  },
  "miner": "0xd10E6C4B44Ee5557dF0f11239Ca4BE5025791E8E",
  "extraData": "0xd783010002844765746887676f312e342e32856c696e7578",
  "transactions": [
    {
      "hash": "0x1f54caa4df46c229c4565db763901020117eaec5fecd8792975be2405a3db49e",
      "blockHash": "0x9019474a96bb463e87360071231c0e72f638fb65f0120d23633b9d4c9507881d",
      "blockNumber": 117866,
      "transactionIndex": 0,
      "confirmations": null,
      "from": "0x6599C9c86f1635FAAEFE7A5540914811DAD8d167",
      "gasPrice": {
        "_hex": "0xba43b7400"
      },
      "gasLimit": {
        "_hex": "0x5208"
      },
      "to": "0x32Be343B94f860124dC4fEe278FDCBD38C102D88",
      "value": {
        "_hex": "0x2e4f4c81f7fef400"
      },
      "nonce": 10,
      "data": "0x",
      "r": "0x5c5c1d4e31c5d20a58b93bdc4f15023a547b29ab689888b7f968f5fe2548af0c",
      "s": "0x2bcdd528cf369462c69908c5bbf2507a53d386bb2aa8d3d6332ff82270bb8c46",
      "v": 28,
      "creates": null,
      "raw": "0xf86c0a850ba43b74008252089432be343b94f860124dc4fee278fdcbd38c102d88882e4f4c81f7fef400801ca05c5c1d4e31c5d20a58b93bdc4f15023a547b29ab689888b7f968f5fe2548af0ca02bcdd528cf369462c69908c5bbf2507a53d386bb2aa8d3d6332ff82270bb8c46",
      "networkId": 0,
      "chainId": 0
    },
    {
      "hash": "0x7cad97f50b8ff8f057c63a46282064292267d365280c7cdc8a7fcf30bef9d514",
      "blockHash": "0x9019474a96bb463e87360071231c0e72f638fb65f0120d23633b9d4c9507881d",
      "blockNumber": 117866,
      "transactionIndex": 1,
      "confirmations": null,
      "from": "0x972ad000397A3c903299F1353d6d4b85eE4E4e2A",
      "gasPrice": {
        "_hex": "0xba43b7400"
      },
      "gasLimit": {
        "_hex": "0x5208"
      },
      "to": "0x32Be343B94f860124dC4fEe278FDCBD38C102D88",
      "value": {
        "_hex": "0x761dbe2a5f7c7000"
      },
      "nonce": 22,
      "data": "0x",
      "r": "0x64a943889eab162a3e4e551916552a0aa59351fec196e7495165242fdf68a78f",
      "s": "0x6e37bc6ed0e2798e3467ef360233838915952056b005691f02eb8bae4494a8bf",
      "v": 27,
      "creates": null,
      "raw": "0xf86c16850ba43b74008252089432be343b94f860124dc4fee278fdcbd38c102d8888761dbe2a5f7c7000801ba064a943889eab162a3e4e551916552a0aa59351fec196e7495165242fdf68a78fa06e37bc6ed0e2798e3467ef360233838915952056b005691f02eb8bae4494a8bf",
      "networkId": 0,
      "chainId": 0
    },
    {
      "hash": "0xa157b1424d49a490b330ee24039e2abad933df80803c828a29ccfe590393b651",
      "blockHash": "0x9019474a96bb463e87360071231c0e72f638fb65f0120d23633b9d4c9507881d",
      "blockNumber": 117866,
      "transactionIndex": 2,
      "confirmations": null,
      "from": "0x0d62E666D681E8Be96903Ac4aBD3537f28c6125A",
      "gasPrice": {
        "_hex": "0xba43b7400"
      },
      "gasLimit": {
        "_hex": "0x5208"
      },
      "to": "0x32Be343B94f860124dC4fEe278FDCBD38C102D88",
      "value": {
        "_hex": "0x265fb258a3939c00"
      },
      "nonce": 10,
      "data": "0x",
      "r": "0xa1afe496208e191a4c932d42b7879998c406b4f7bb6ea78f7ffedfb1f00c863c",
      "s": "0x31a976e2f07c1381cdcbacf202b8b51b71df85e49b22e8fb9dcd72ca177e113c",
      "v": 28,
      "creates": null,
      "raw": "0xf86c0a850ba43b74008252089432be343b94f860124dc4fee278fdcbd38c102d8888265fb258a3939c00801ca0a1afe496208e191a4c932d42b7879998c406b4f7bb6ea78f7ffedfb1f00c863ca031a976e2f07c1381cdcbacf202b8b51b71df85e49b22e8fb9dcd72ca177e113c",
      "networkId": 0,
      "chainId": 0
    }
  ]
}