{
  "hash": "0x1819305a1d6bc49beefb86dd1a5e2340d16f8cf03f6f8e7c9e292d38a4318093",
  "parentHash": "0xafba455b5a96f3ba23623a6fc8e796b45199c7c6736a7486ebcefc7337747ede",
  "number": 83386,
  "timestamp": 1439534568,
  "nonce": "0xff446783bac276ef",
  "difficulty": 2427787798956,
  "gasLimit": {
    "_hex": "0x2fefd8"
  },
  "gasUsed": {
    "_hex": "0xf618"
  },
  "miner": "0xe6A7a1d47ff21B6321162AEA7C6CB457D5476Bca",
  "extraData": "0x476574682f76312e302e312d38326566323666362f6c696e75782f676f312e34",
  "transactions": [
    {
      "hash": "0x27fd9736b3ff753086d94fb4c1ba01a7268eeaf90b3c3f2fa62ccf9f8aea3d19",
      "blockHash": "0x1819305a1d6bc49beefb86dd1a5e2340d16f8cf03f6f8e7c9e292d38a4318093",
      "blockNumber": 83386,
      "transactionIndex": 0,
      "confirmations": null,
      "from": "0x96811Ad897894eC178872117C8BF2f03971A393B",
      "gasPrice": {
        "_hex": "0xe0bb8f511"
      },
      "gasLimit": {
        "_hex": "0x5208"
      },
      "to": "0x32Be343B94f860124dC4fEe278FDCBD38C102D88",
      "value": {
        "_hex": "0x455f11302c11b400"
      },
      "nonce": 29,
      "data": "0x",
      "r": "0x12a76ccc83b8168aa15215dd31352e7bd51fc6840e8eafe228e7152df9db4b8d",
      "s": "0x2ab8e88798967e8e36ab3d0ea27847875ff8ab2d39b1b7f4bc93f65716910fcf",
      "v": 28,
      "creates": null,
      "raw": "0xf86c1d850e0bb8f5118252089432be343b94f860124dc4fee278fdcbd38c102d8888455f11302c11b400801ca012a76ccc83b8168aa15215dd31352e7bd51fc6840e8eafe228e7152df9db4b8da02ab8e88798967e8e36ab3d0ea27847875ff8ab2d39b1b7f4bc93f65716910fcf",
      "networkId": 0,
      "chainId": 0
    },
    {
      "hash": "0xd109cf6fb766328e8e33a21ffa3c50209f961ec8a1d0a3904079c022afed081a",
      "blockHash": "0x1819305a1d6bc49beefb86dd1a5e2340d16f8cf03f6f8e7c9e292d38a4318093",
      "blockNumber": 83386,
      "transactionIndex": 1,
      "confirmations": null,
      "from": "0x32Be343B94f860124dC4fEe278FDCBD38C102D88",
      "gasPrice": {
        "_hex": "0xe0bb8f511"
      },
      "gasLimit": {
        "_hex": "0x5208"
      },
      "to": "0xd6Bb39DA0858E6AEddcaa12a509327b2D05f5B51",
      "value": {
        "_hex": "0x56ba3d73af34f0000"
      },
      "nonce": 647,
      "data": "0x",
      "r": "0xf8838289e57e0e1bfcb6e73141d85fbe7bcd5f74c5c2e64e94aae183646d9257",
      "s": "0x4a75ca11051d86deda5139ac28c2a48de13e6e38a8e984321faa2b3244300686",
      "v": 28,
      "creates": null,
      "raw": "0xf86f820287850e0bb8f51182520894d6bb39da0858e6aeddcaa12a509327b2d05f5b5189056ba3d73af34f0000801ca0f8838289e57e0e1bfcb6e73141d85fbe7bcd5f74c5c2e64e94aae183646d9257a04a75ca11051d86deda5139ac28c2a48de13e6e38a8e984321faa2b3244300686",
      "networkId": 0,
      "chainId": 0
    },
    {
      "hash": "0x417a4337f183d1f9f9d6c4d42a9d9477c944e56c30ad0892df1fda2373b8d5b5",
      "blockHash": "0x1819305a1d6bc49beefb86dd1a5e2340d16f8cf03f6f8e7c9e292d38a4318093",
      "blockNumber": 83386,
      "transactionIndex": 2,
      "confirmations": null,
      "from": "0x6De181Fc4C140FA31F196e5393516c49EEeBdAd3",
      "gasPrice": {
        "_hex": "0xe0bb8f511"
      },
      "gasLimit": {
        "_hex": "0x5208"
      },
      "to": "0x32Be343B94f860124dC4fEe278FDCBD38C102D88",
      "value": {
        "_hex": "0xdca7308ef47ac00"
      },
      "nonce": 9,
      "data": "0x",
      "r": "0x3185d3a49e49df3cbf47f626bd9690c06f72b1871db37b5409b081f265dd7cc4",
      "s": "0x1ec8dd21d0170b8bb035c80ff930908fc2ebe9e13259351bd4327aaec1dba50b",
      "v": 27,
      "creates": null,
      "raw": "0xf86c09850e0bb8f5118252089432be343b94f860124dc4fee278fdcbd38c102d88880dca7308ef47ac00801ba03185d3a49e49df3cbf47f626bd9690c06f72b1871db37b5409b081f265dd7cc4a01ec8dd21d0170b8bb035c80ff930908fc2ebe9e13259351bd4327aaec1dba50b",
      "networkId": 0,
      "chainId": 0
    }
  ]
}