{
  "hash": "0xa5184581881bfd41a75ed18b0050d3a5357e720507449d725413b3c692efe346",
  "parentHash": "0x5c300fb13a2c129d3d0c2060bc2cda98a5c93133be905fac0c592e61505c332f",
  "number": 96477,
  "timestamp": 1439740995,
  "nonce": "0xdc4368c93c171b08",
  "difficulty": 3665607777206,
  "gasLimit": {
    "_hex": "0x2fefd8"
  },
  "gasUsed": {
    "_hex": "0x5208"
  },
  "miner": "0xDe7Fea21Fe516d824641ae65F97b60552568E30A",
  "extraData": "0x476574682f76312e302e312f6c696e75782f676f312e342e32",
  "transactions": [
    {
      "hash": "0xacf4142d1da1f4b317b607a77a1b3f9ae0eaa6b8f0ac7c10a6793f157ba53552",
      "blockHash": "0xa5184581881bfd41a75ed18b0050d3a5357e720507449d725413b3c692efe346",
      "blockNumber": 96477,
      "transactionIndex": 0,
      "confirmations": null,
      "from": "0x120A270bbC009644e35F0bB6ab13f95b8199c4ad",
      "gasPrice": {
        "_hex": "0xda9dd2186"
      },
      "gasLimit": {
        "_hex": "0x3d090"
      },
      "to": "0x5d5C63DC6059181d044515c7602236C9cA2B25e6",
      "value": {
        "_hex": "0x12769b4bfe3fb2400"
      },
      "nonce": 617,
      "data": "0x",
      "r": "0x87f0f2763ed7fd0b0399dbeea3ee0eaf134117cb1adc0ae0f700296af09bcb41",
      "s": "0x54bb735c13b45369a6e02214717178fe7638472ed7b3a980d2235fc4754712dd",
      "v": 28,
      "creates": null,
      "raw": "0xf870820269850da9dd21868303d090945d5c63dc6059181d044515c7602236c9ca2b25e689012769b4bfe3fb2400801ca087f0f2763ed7fd0b0399dbeea3ee0eaf134117cb1adc0ae0f700296af09bcb41a054bb735c13b45369a6e02214717178fe7638472ed7b3a980d2235fc4754712dd",
      "networkId": 0,
      "chainId": 0
    }
  ]
}