{
  "hash": "0x9583f4931c8b132edfaec2d618f26ccd90be0eb2a06a4329b7e1d01ed8405aa9",
  "parentHash": "0xb9cc77b5b941d3ff656eeae9b98dee70343c295e937e7891c691960b8c0ff3ee",
  "number": 86881,
  "timestamp": 1439584149,
  "nonce": "0xe015ca1febcaed1c",
  "difficulty": 2966098476714,
  "gasLimit": {
    "_hex": "0x2fefd8"
  },
  "gasUsed": {
    "_hex": "0x171c5"
  },
  "miner": "0xe6A7a1d47ff21B6321162AEA7C6CB457D5476Bca",
  "extraData": "0x476574682f76312e302e312d38326566323666362f6c696e75782f676f312e34",
  "transactions": [
    {
      "hash": "0x7184ede1fafc2eeb706caa12b2c9bec40fc657eefd4f56d35b7d9fa34fbe40d1",
      "blockHash": "0x9583f4931c8b132edfaec2d618f26ccd90be0eb2a06a4329b7e1d01ed8405aa9",
      "blockNumber": 86881,
      "transactionIndex": 0,
      "confirmations": null,
      "from": "0x283CaE2444d4fda7BD11B730E6e9666D4363c84E",
      "gasPrice": {
        "_hex": "0xdb73e7cfd"
      },
      "gasLimit": {
        "_hex": "0xf4240"
      },
      "to": "0xA236078f02627205B2E3bDeA8dBA2e9D150113D3",
      "value": {
        "_hex": "0xde0b6b3a7640000"
      },
      "nonce": 1,
      "data": "0x3f887fad000000000000000000005eabcc93287d98bc4fbdec5c5e4cdf36603380d6b6d700000000000000000000000000000000000000000000000000000000000000020000000000000000000000000000000000000000000000000de0b6b3a76400000000000000000000000000000000000000000000000000000000000000000000",
      "r": "0x20670dd4191fcebdee6f1832f685a8723bce6e9199465c9cfb3a5e4a4540b769",
      "s": "0x082d3b3240b31748cb9435452a278a74118887be6879edb57420d151acc299bf",
      "v": 27,
      "creates": null,
      "raw": "0xf8f201850db73e7cfd830f424094a236078f02627205b2e3bdea8dba2e9d150113d3880de0b6b3a7640000b8843f887fad000000000000000000005eabcc93287d98bc4fbdec5c5e4cdf36603380d6b6d700000000000000000000000000000000000000000000000000000000000000020000000000000000000000000000000000000000000000000de0b6b3a764000000000000000000000000000000000000000000000000000000000000000000001ba020670dd4191fcebdee6f1832f685a8723bce6e9199465c9cfb3a5e4a4540b769a0082d3b3240b31748cb9435452a278a74118887be6879edb57420d151acc299bf",
      "networkId": 0,
      "chainId": 0
    }
  ]
}