{
  "hash": "0x15fecd92b459fd4f20d535999fa8535366b141f47514085939abefd03d27ebe7",
  "parentHash": "0xf4158be7a0170fc6288532f146185a4ef951e292381d38a87174113409aea642",
  "number": 80727,
  "timestamp": 1439489879,
  "nonce": "0x86a66be253a26bb5",
  "difficulty": 2436872411353,
  "gasLimit": {
    "_hex": "0x2fefd8"
  },
  "gasUsed": {
    "_hex": "0xa674"
  },
  "miner": "0x007f7f58D3eb5b7510A301eCC749FC1fCDDBE14D",
  "extraData": "0x476574682f76312e302e312f77696e646f77732f676f312e342e32",
  "transactions": [
    {
      "hash": "0x0da6fbbd9379b6b4eeb0f66cc31db9cc7d2fa74e13f57da0491ffe5ee01abff4",
      "blockHash": "0x15fecd92b459fd4f20d535999fa8535366b141f47514085939abefd03d27ebe7",
      "blockNumber": 80727,
      "transactionIndex": 0,
      "confirmations": null,
      "from": "0x1796BCc97B8Abc717F4B4a7C6B1036ea2182639f",
      "gasPrice": {
        "_hex": "0x110c8f7d8de"
      },
      "gasLimit": {
        "_hex": "0xc350"
      },
      "to": "0x2910543Af39abA0Cd09dBb2D50200b3E800A63D2",
      "value": {
        "_hex": "0xad78ebc5ac6200000"
      },
      "nonce": 0,
      "data": "0x454e52383547565652",
      "r": "0xa7e2e266935744b61641125666ff97cb80e666efc23014eb664005c93f1b948e",
      "s": "0xdc85e31f8690fc7591779c315c469a3553a2af4090ce11063e88560538d0f859",
      "v": 27,
      "creates": null,
      "raw": "0xf87780860110c8f7d8de82c350942910543af39aba0cd09dbb2d50200b3e800a63d2890ad78ebc5ac620000089454e523835475656521ba0a7e2e266935744b61641125666ff97cb80e666efc23014eb664005c93f1b948ea0dc85e31f8690fc7591779c315c469a3553a2af4090ce11063e88560538d0f859",
      "networkId": 0,
      "chainId": 0
    },
    {
      "hash": "0x8417671ea1cd82aacc6e553f8241f522b483aa0805389eaf35f2599e715ba258",
      "blockHash": "0x15fecd92b459fd4f20d535999fa8535366b141f47514085939abefd03d27ebe7",
      "blockNumber": 80727,
      "transactionIndex": 1,
      "confirmations": null,
      "from": "0x869e88783E4c2E97d967A89E1aca4523eeAB3D7C",
      "gasPrice": {
        "_hex": "0xd641f460d"
      },
      "gasLimit": {
        "_hex": "0x15f90"
      },
      "to": "0xF4c284c2348682eb8b996060b5CADa1a259C1517",
      "value": {
        "_hex": "0x29a2241af62c0000"
      },
      "nonce": 3,
      "data": "0x",
      "r": "0x89cb26ec14dc7610bc96e28cf152381d8c1737ff227b8a3364c4e47c60e1f59f",
      "s": "0x5be774706702ec2dc007c88eb8e07c2a19e278a1561d941fd716f0c6bd4141e0",
      "v": 27,
      "creates": null,
      "raw": "0xf86d03850d641f460d83015f9094f4c284c2348682eb8b996060b5cada1a259c15178829a2241af62c0000801ba089cb26ec14dc7610bc96e28cf152381d8c1737ff227b8a3364c4e47c60e1f59fa05be774706702ec2dc007c88eb8e07c2a19e278a1561d941fd716f0c6bd4141e0",
      "networkId": 0,
      "chainId": 0
    }
  ]
}