{
  "hash": "0xf56e1efee4f2a56cd6da3b270a2b35a9822950cfe85b0b92794e7e5327d67aa4",
  "parentHash": "0x5131a84ed796460858369373c3ffafeea64d074e10c613a39bcb4f14a257aecb",
  "number": 47826,
  "timestamp": 1438947038,
  "nonce": "0x88b08d6a93f91fef",
  "difficulty": 1457279114224,
  "gasLimit": {
    "_hex": "0xf83d"
  },
  "gasUsed": {
    "_hex": "0xa8d8"
  },
  "miner": "0xa50ec0D39fa913E62f1Bae7074E6F36caA71855b",
  "extraData": "0x476574682f76312e302e302f6c696e75782f676f312e342e32",
  "transactions": [
    {
      "hash": "0xe08609cd69595409e0b62d3cfcdba002a706bb140d61a84d43b4ad748e44d8a5",
      "blockHash": "0xf56e1efee4f2a56cd6da3b270a2b35a9822950cfe85b0b92794e7e5327d67aa4",
      "blockNumber": 47826,
      "transactionIndex": 0,
      "confirmations": null,
      "from": "0x17E4a0e52BAc3eE44eFe0954e753d4b85D644E05",
      "gasPrice": {
        "_hex": "0x11604566b71"
      },
      "gasLimit": {
        "_hex": "0x55f0"
      },
      "to": "0x2910543Af39abA0Cd09dBb2D50200b3E800A63D2",
      "value": {
        "_hex": "0x4563918244f40000"
      },
      "nonce": 0,
      "data": "0x454e4b364e48445238",
      "r": "0x24636390e19ea64e9c969c88b16a7279f22dbabc4ff97a1334e721de97b8577f",
      "s": "0x0704e6fc6a19679003d18181ce6bc552b440c2038bf56e2f2e677f92dc0cf30c",
      "v": 27,
      "creates": null,
      "raw": "0xf8768086011604566b718255f0942910543af39aba0cd09dbb2d50200b3e800a63d2884563918244f4000089454e4b364e484452381ba024636390e19ea64e9c969c88b16a7279f22dbabc4ff97a1334e721de97b8577fa00704e6fc6a19679003d18181ce6bc552b440c2038bf56e2f2e677f92dc0cf30c",
      "networkId": 0,
      "chainId": 0
    },
    {
      "hash": "0x07dca938f8b86c1e649306156e4bf1e70e27288ffa30bbfc97eb1d5a28ab76ae",
      "blockHash": "0xf56e1efee4f2a56cd6da3b270a2b35a9822950cfe85b0b92794e7e5327d67aa4",
      "blockNumber": 47826,
      "transactionIndex": 1,
      "confirmations": null,
      "from": "0xFc39Be41094b1997D2169E8264c2C3BAA6c99bc4",
      "gasPrice": {
        "_hex": "0x1009e118f5b"
      },
      "gasLimit": {
        "_hex": "0x61a8"
      },
      "to": "0x2910543Af39abA0Cd09dBb2D50200b3E800A63D2",
      "value": {
        "_hex": "0x56bc75e2d63100000"
      },
      "nonce": 0,
      "data": "0x454e3337314a4d5838",
      "r": "0xfd86bcc09af1c09629509b1580ee1263a076d89cb04cd19623ef81f8c92dbb6b",
      "s": "0x6df6caf88238467ac8e7c4c723eb157685a40e29dcd84ae052f79a9eaf4c829c",
      "v": 28,
      "creates": null,
      "raw": "0xf877808601009e118f5b8261a8942910543af39aba0cd09dbb2d50200b3e800a63d289056bc75e2d6310000089454e3337314a4d58381ca0fd86bcc09af1c09629509b1580ee1263a076d89cb04cd19623ef81f8c92dbb6ba06df6caf88238467ac8e7c4c723eb157685a40e29dcd84ae052f79a9eaf4c829c",
      "networkId": 0,
      "chainId": 0
    }
  ]
}