{
  "hash": "0xcf1213b247577fbe3788880957df1edcb9e23de95701e7610d35a3afcb02ca90",
  "parentHash": "0x6895249bf059e07d22641e7e5fff347f33bdecbc4bf5b827e8a7828bc17aaae8",
  "number": 111586,
  "timestamp": 1439992839,
  "nonce": "0x9e80dd2bc2acf099",
  "difficulty": 4428721778773,
  "gasLimit": {
    "_hex": "0x2fefd8"
  },
  "gasUsed": {
    "_hex": "0x5208"
  },
  "miner": "0xaB638742EBe3A78F2a85028350e1AADB86C0a6ed",
  "extraData": "0x",
  "transactions": [
    {
      "hash": "0x89f87538010992e74a6e9b269d35d24312235fc8116a8cfd840eba3a105fdb57",
      "blockHash": "0xcf1213b247577fbe3788880957df1edcb9e23de95701e7610d35a3afcb02ca90",
      "blockNumber": 111586,
      "transactionIndex": 0,
      "confirmations": null,
      "from": "0x120A270bbC009644e35F0bB6ab13f95b8199c4ad",
      "gasPrice": {
        "_hex": "0xcff681853"
      },
      "gasLimit": {
        "_hex": "0x3d090"
      },
      "to": "0x60d85a32126130b225913C23dF4e5EF8b759fA09",
      "value": {
        "_hex": "0xa31cd41f3ac1b5400"
      },
      "nonce": 884,
      "data": "0x",
      "r": "0xedca60255a2dae367d7038a2eedaad4938eb2f3ad2a79b54d9c17cf4533d3efd",
      "s": "0x398424a68c8a2300556ef69aebb8a82b7df61d82e5db8eb46aeeea48b016d975",
      "v": 28,
      "creates": null,
      "raw": "0xf870820374850cff6818538303d0909460d85a32126130b225913c23df4e5ef8b759fa09890a31cd41f3ac1b5400801ca0edca60255a2dae367d7038a2eedaad4938eb2f3ad2a79b54d9c17cf4533d3efda0398424a68c8a2300556ef69aebb8a82b7df61d82e5db8eb46aeeea48b016d975",
      "networkId": 0,
      "chainId": 0
    }
  ]
}