{
  "hash": "0xc0a604191ccb14ec58322c8e2a7bb916483df6f3779b091005f713bf85640c26",
  "parentHash": "0xf3c5d5cc5a2b847bad8d7e2cba40630c5fdaef1965a81735ffa1d0e136e25588",
  "number": 80494,
  "timestamp": 1439486318,
  "nonce": "0x4c2e8e6f684e4fa4",
  "difficulty": 2414436314594,
  "gasLimit": {
    "_hex": "0x2fefd8"
  },
  "gasUsed": {
    "_hex": "0x206b5"
  },
  "miner": "0xEF247E639d49461D25F57e9362CadE3120910Ce0",
  "extraData": "0x476574682f76312e302e312f6c696e75782f676f312e342e32",
  "transactions": [
    {
      "hash": "0xaf60420b828216a7528c88fe7da6b0ddfc05ee0749b1056a1be849969949f0dc",
      "blockHash": "0xc0a604191ccb14ec58322c8e2a7bb916483df6f3779b091005f713bf85640c26",
      "blockNumber": 80494,
      "transactionIndex": 0,
      "confirmations": null,
      "from": "0x87C5B5874A18B4306DF8a752a6C8cc3E82daFc19",
      "gasPrice": {
        "_hex": "0x10e230e07a5"
      },
      "gasLimit": {
        "_hex": "0x493e0"
      },
      "to": "0xC4c51de1AbF5D60DBd329eC0F999Fd8f021ae9fC",
      "value": {
        "_hex": "0x47954b625b56514"
      },
      "nonce": 224,
      "data": "0x8d2161860000000000000000000000000000000000000000000000000000000000000006d3d96ceed0cfca4794c2a5a3d3aeefe69da0a2a669e66a5651f30b64831c3db0",
      "r": "0x045d4a83109c18ed98205ec2fed54f01898151932d81dbd8455e5e9a93536b54",
      "s": "0x7882960401508db50b60ddf0c4c158e05b4c74035e87e21eb2ee9713cfbb9fe6",
      "v": 28,
      "creates": null,
      "raw": "0xf8b481e086010e230e07a5830493e094c4c51de1abf5d60dbd329ec0f999fd8f021ae9fc88047954b625b56514b8448d2161860000000000000000000000000000000000000000000000000000000000000006d3d96ceed0cfca4794c2a5a3d3aeefe69da0a2a669e66a5651f30b64831c3db01ca0045d4a83109c18ed98205ec2fed54f01898151932d81dbd8455e5e9a93536b54a07882960401508db50b60ddf0c4c158e05b4c74035e87e21eb2ee9713cfbb9fe6",
      "networkId": 0,
      "chainId": 0
    },
    {
      "hash": "0xf767b0afa09c5927bd7daa900ad80da050b0c91e212e87ff5f4cce0742b33c76",
      "blockHash": "0xc0a604191ccb14ec58322c8e2a7bb916483df6f3779b091005f713bf85640c26",
      "blockNumber": 80494,
      "transactionIndex": 1,
      "confirmations": null,
      "from": "0x94B4EA2caa897785bb092aB92caa27081Ef32c82",
      "gasPrice": {
        "_hex": "0xdc7ec4166"
      },
      "gasLimit": {
        "_hex": "0x15f90"
      },
      "to": "0xD2a69d19BaD610A0CaE27bb4545C4afd40A207B7",
      "value": {
        "_hex": "0x16345785d8a0000"
      },
      "nonce": 5,
      "data": "0x",
      "r": "0x240f16fe18143c1a67fb621361ed83f9fc6c11136969086d9026e41826416037",
      "s": "0x41a68493bd11934bd0a6016eafb76f1c7d8d7471a8553b08fac181dd249b80c7",
      "v": 27,
      "creates": null,
      "raw": "0xf86d05850dc7ec416683015f9094d2a69d19bad610a0cae27bb4545c4afd40a207b788016345785d8a0000801ba0240f16fe18143c1a67fb621361ed83f9fc6c11136969086d9026e41826416037a041a68493bd11934bd0a6016eafb76f1c7d8d7471a8553b08fac181dd249b80c7",
      "networkId": 0,
      "chainId": 0
    }
  ]
}