{
  "hash": "0x46ca1e9a1d7bb8e1f1048def7395105c9d66794be1860929a8a590de07c96724",
  "parentHash": "0xaff503146cef899584850b75c19f6ffd5afd19a4a6a37125746ac25dd7f22236",
  "number": 86054,
  "timestamp": 1439572846,
  "nonce": "0x71094cab04bfca11",
  "difficulty": 2793478050709,
  "gasLimit": {
    "_hex": "0x2fefd8"
  },
  "gasUsed": {
    "_hex": "0xa410"
  },
  "miner": "0x55bAf64fc9eAccFFd7Cc643BB61142E1C6ac093e",
  "extraData": "0x",
  "transactions": [
    {
      "hash": "0xe0deff2c7c07af36b1d81b7f445b6cd3c0e13f22eb09bd715b6c45689db443f4",
      "blockHash": "0x46ca1e9a1d7bb8e1f1048def7395105c9d66794be1860929a8a590de07c96724",
      "blockNumber": 86054,
      "transactionIndex": 0,
      "confirmations": null,
      "from": "0x463eADDDA71F29F36365F889EA7E6fcDBe1cF0c8",
      "gasPrice": {
        "_hex": "0xd3d311e82"
      },
      "gasLimit": {
        "_hex": "0x5208"
      },
      "to": "0x32Be343B94f860124dC4fEe278FDCBD38C102D88",
      "value": {
        "_hex": "0x455f537d86ac5c00"
      },
      "nonce": 1,
      "data": "0x",
      "r": "0x4621f753997fc9a4f9e74c1ae24f04b15d5bad7d433f9fe31cc5c3bd1d5bcca0",
      "s": "0x10cec035bc7ff4afc5f6878e5c0fb33782d0a4df6482527f21681d200b7f8a46",
      "v": 27,
      "creates": null,
      "raw": "0xf86c01850d3d311e828252089432be343b94f860124dc4fee278fdcbd38c102d8888455f537d86ac5c00801ba04621f753997fc9a4f9e74c1ae24f04b15d5bad7d433f9fe31cc5c3bd1d5bcca0a010cec035bc7ff4afc5f6878e5c0fb33782d0a4df6482527f21681d200b7f8a46",
      "networkId": 0,
      "chainId": 0
    },
    {
      "hash": "0xa5812a66e1c7c2c41a05fc96eb054ee3d23ba13ecd4ae9ea48cc74aa73d6a7a7",
      "blockHash": "0x46ca1e9a1d7bb8e1f1048def7395105c9d66794be1860929a8a590de07c96724",
      "blockNumber": 86054,
      "transactionIndex": 1,
      "confirmations": null,
      "from": "0xF5EeDc192aB70b08D8354384aD94efD095849E00",
      "gasPrice": {
        "_hex": "0xd3d311e82"
      },
      "gasLimit": {
        "_hex": "0x5208"
      },
      "to": "0x32Be343B94f860124dC4fEe278FDCBD38C102D88",
      "value": {
        "_hex": "0x2b5df7111f3406000"
      },
      "nonce": 43,
      "data": "0x",
      "r": "0x8ce3492bcaa848c746e64bd1c3447fa3f2a3ee3204d2ea521696f7555dff2ead",
      "s": "0x36009c3f3e5dc443c66cc06892e6db05babe116e0ebefeeda9aeb2541d77edbb",
      "v": 27,
      "creates": null,
      "raw": "0xf86d2b850d3d311e828252089432be343b94f860124dc4fee278fdcbd38c102d888902b5df7111f3406000801ba08ce3492bcaa848c746e64bd1c3447fa3f2a3ee3204d2ea521696f7555dff2eada036009c3f3e5dc443c66cc06892e6db05babe116e0ebefeeda9aeb2541d77edbb",
      "networkId": 0,
      "chainId": 0
    }
  ]
}