{
  "hash": "0x66192c9382120c7cd64a2a4f92aa9d40482c155596c5eecc1b93cd5af909fbd5",
  "parentHash": "0x9f9e4f7a581260892d23eee5426f1561c71f787d8d381810d54cd9de90bdb44e",
  "number": 51709,
  "timestamp": 1439009460,
  "nonce": "0xa9cbedd30905185a",
  "difficulty": 1555856442415,
  "gasLimit": {
    "_hex": "0xd33df"
  },
  "gasUsed": {
    "_hex": "0x546c"
  },
  "miner": "0xe6A7a1d47ff21B6321162AEA7C6CB457D5476Bca",
  "extraData": "0x657468706f6f6c2e6f7267",
  "transactions": [
    {
      "hash": "0x628bb7f00b3ebdce4fb19e04cdafa446c475d61cad36568afb6c6825a6ccf95d",
      "blockHash": "0x66192c9382120c7cd64a2a4f92aa9d40482c155596c5eecc1b93cd5af909fbd5",
      "blockNumber": 51709,
      "transactionIndex": 0,
      "confirmations": null,
      "from": "0xf8E0CA3Ed80bd541b94BEdCf259e8CF2141A9523",
      "gasPrice": {
        "_hex": "0xd5cdf79f8"
      },
      "gasLimit": {
        "_hex": "0x15f90"
      },
      "to": "0x39101C1F2B3915d4197283d091ff662eB593bd74",
      "value": {
        "_hex": "0x2c21a126d1be0000"
      },
      "nonce": 0,
      "data": "0x454e433933464b3330",
      "r": "0xc8a78c24400e64ae4c00fb06bbe161754d5a3d6b043ce77d28189e7d8e3be444",
      "s": "0x063a88eeece332ffb77c8b48597acc07c1cbc7d91de22981ee5a724d1338c32b",
      "v": 27,
      "creates": null,
      "raw": "0xf87680850d5cdf79f883015f909439101c1f2b3915d4197283d091ff662eb593bd74882c21a126d1be000089454e433933464b33301ba0c8a78c24400e64ae4c00fb06bbe161754d5a3d6b043ce77d28189e7d8e3be444a0063a88eeece332ffb77c8b48597acc07c1cbc7d91de22981ee5a724d1338c32b",
      "networkId": 0,
      "chainId": 0
    }
  ]
}