{
  "hash": "0x18ccfaad0f69c095054dfb7bf39906d02f5fb73f90d221a031e2b5c013935be9",
  "parentHash": "0x60d42a3eb7860ede88f6a83cca35677fed88bdf0187c81e3ceddce6b562ad60a",
  "number": 53640,
  "timestamp": 1439041107,
  "nonce": "0x94163c1c4cee2262",
  "difficulty": 1591608576635,
  "gasLimit": {
    "_hex": "0x2dfe0b"
  },
  "gasUsed": {
    "_hex": "0x5208"
  },
  "miner": "0x9746c7e1ef2bd21FF3997fa467593a89cb852BD0",
  "extraData": "0x476574682f76312e302e312f77696e646f77732f676f312e342e32",
  "transactions": [
    {
      "hash": "0x68ead28b6f9c1e35faeef90e526ddc7d115bdc808de06ad03aac829942a9611a",
      "blockHash": "0x18ccfaad0f69c095054dfb7bf39906d02f5fb73f90d221a031e2b5c013935be9",
      "blockNumber": 53640,
      "transactionIndex": 0,
      "confirmations": null,
      "from": "0x3f113041D56Dda809a245Fe338832c2D373e7c80",
      "gasPrice": {
        "_hex": "0xd9fc3241a"
      },
      "gasLimit": {
        "_hex": "0x15f90"
      },
      "to": "0xd5d9a0033e6B0A3ba7634d0e1a9055ad5f452C3D",
      "value": {
        "_hex": "0xde0b6b3a7640000"
      },
      "nonce": 1,
      "data": "0x",
      "r": "0xf541a619f1816f22d9b9220df7ff9d6f2ecfb396afddcb40c64c4ec593b657fa",
      "s": "0x10aac5d37e7461abe3a27dd34b6b2b30e93ae02d02ef29729c5382b13263bd1b",
      "v": 28,
      "creates": null,
      "raw": "0xf86d01850d9fc3241a83015f9094d5d9a0033e6b0a3ba7634d0e1a9055ad5f452c3d880de0b6b3a7640000801ca0f541a619f1816f22d9b9220df7ff9d6f2ecfb396afddcb40c64c4ec593b657faa010aac5d37e7461abe3a27dd34b6b2b30e93ae02d02ef29729c5382b13263bd1b",
      "networkId": 0,
      "chainId": 0
    }
  ]
}