{
  "hash": "0x51a2cc595aaa3839c1331cd07a372ef30edcc68edaee9501da4b987870faab1a",
  "parentHash": "0xb637f1845b7ff41a10f68f37264eb294c050d4036ef541808f66dc4828def64d",
  "number": 94643,
  "timestamp": 1439711508,
  "nonce": "0x082cdfd8115d04a6",
  "difficulty": 3508776735316,
  "gasLimit": {
    "_hex": "0x2fefd8"
  },
  "gasUsed": {
    "_hex": "0x23e38"
  },
  "miner": "0x47ff6576639c2e94762eA5443978D7681C0E78DC",
  "extraData": "0x476574682f76312e302e312f6c696e75782f676f312e342e32",
  "transactions": [
    {
      "hash": "0x47e198d4768de535e82eefe21e7f59ba98e0961d874966da7cfa987eb66424ea",
      "blockHash": "0x51a2cc595aaa3839c1331cd07a372ef30edcc68edaee9501da4b987870faab1a",
      "blockNumber": 94643,
      "transactionIndex": 0,
      "confirmations": null,
      "from": "0xe6A7a1d47ff21B6321162AEA7C6CB457D5476Bca",
      "gasPrice": {
        "_hex": "0xd16057dc4"
      },
      "gasLimit": {
        "_hex": "0x55f0"
      },
      "to": "0x34d34F0a638F6991e4E2536F41295DF6E934A646",
      "value": {
        "_hex": "0x16f7313e920fd880"
      },
      "nonce": 2567,
      "data": "0x",
      "r": "0xe42338e32d425c01a72af2b9219fab15f08423baa29aefa8ec127d75a318fbc6",
      "s": "0x049e44fd2dd602a0a8a6a7d022534f33fa3fac1e7e1ba033ef322a006580bd39",
      "v": 27,
      "creates": null,
      "raw": "0xf86e820a07850d16057dc48255f09434d34f0a638f6991e4e2536f41295df6e934a6468816f7313e920fd880801ba0e42338e32d425c01a72af2b9219fab15f08423baa29aefa8ec127d75a318fbc6a0049e44fd2dd602a0a8a6a7d022534f33fa3fac1e7e1ba033ef322a006580bd39",
      "networkId": 0,
      "chainId": 0
    },
    {
      "hash": "0xdad71735e9c9445342469bdd91815ace9b0b40236e64495e3b9b64e837c2609c",
      "blockHash": "0x51a2cc595aaa3839c1331cd07a372ef30edcc68edaee9501da4b987870faab1a",
      "blockNumber": 94643,
      "transactionIndex": 1,
      "confirmations": null,
      "from": "0xe6A7a1d47ff21B6321162AEA7C6CB457D5476Bca",
      "gasPrice": {
        "_hex": "0xcf28b72f9"
      },
      "gasLimit": {
        "_hex": "0x55f0"
      },
      "to": "0xA10DcDc99cF571e66c6Af1F1175a15686C4C6800",
      "value": {
        "_hex": "0x170bab4886e27ce0"
      },
      "nonce": 2568,
      "data": "0x",
      "r": "0xd6a978d6589dcbda6ea7099c8b2eff47cb3c6ddb190ffdfc4eb35f5f0736f9bb",
      "s": "0x628551a3b184531fc0554cdd777ceb010fef512388989e13998708f4421e4be3",
      "v": 27,
      "creates": null,
      "raw": "0xf86e820a08850cf28b72f98255f094a10dcdc99cf571e66c6af1f1175a15686c4c680088170bab4886e27ce0801ba0d6a978d6589dcbda6ea7099c8b2eff47cb3c6ddb190ffdfc4eb35f5f0736f9bba0628551a3b184531fc0554cdd777ceb010fef512388989e13998708f4421e4be3",
      "networkId": 0,
      "chainId": 0
    },
    {
      "hash": "0xd734083770feead5e2dd1cb43c553db489aa32cd006b8450d1c9ed5b68286e81",
      "blockHash": "0x51a2cc595aaa3839c1331cd07a372ef30edcc68edaee9501da4b987870faab1a",
      "blockNumber": 94643,
      "transactionIndex": 2,
      "confirmations": null,
      "from": "0xe6A7a1d47ff21B6321162AEA7C6CB457D5476Bca",
      "gasPrice": {
        "_hex": "0xcf28b72f9"
      },
      "gasLimit": {
        "_hex": "0x55f0"
      },
      "to": "0x3205cd1aC9e2Bb844A056D57E3f2463613554677",
      "value": {
        "_hex": "0x1710d9ef363b9c10"
      },
      "nonce": 2569,
      "data": "0x",
      "r": "0x4dd20c4d710610d39c83bb980157a32d1a857c42b54558203981aa4a4bfef392",
      "s": "0x43cd65fa709d4e1042abb138d1389afe7a4bbb0577ca3659c7e67507e36d0b43",
      "v": 27,
      "creates": null,
      "raw": "0xf86e820a09850cf28b72f98255f0943205cd1ac9e2bb844a056d57e3f2463613554677881710d9ef363b9c10801ba04dd20c4d710610d39c83bb980157a32d1a857c42b54558203981aa4a4bfef392a043cd65fa709d4e1042abb138d1389afe7a4bbb0577ca3659c7e67507e36d0b43",
      "networkId": 0,
      "chainId": 0
    },
    {
      "hash": "0xa8231977f9f2398173ffdd58386cbacc4450740e66319c8890c196d55bab59ed",
      "blockHash": "0x51a2cc595aaa3839c1331cd07a372ef30edcc68edaee9501da4b987870faab1a",
      "blockNumber": 94643,
      "transactionIndex": 3,
      "confirmations": null,
      "from": "0xe6A7a1d47ff21B6321162AEA7C6CB457D5476Bca",
      "gasPrice": {
        "_hex": "0xcf28b72f9"
      },
      "gasLimit": {
        "_hex": "0x55f0"
      },
      "to": "0xD971aB50bF8821BBafcFBA3ddF6Cf949357cc935",
      "value": {
        "_hex": "0x171478ef8ff4c1d0"
      },
      "nonce": 2570,
      "data": "0x",
      "r": "0x056bc3f6995a1fd72855b1398a7ff96e7573dc45125e36a34ef7ec6736ab9826",
      "s": "0x6c10e99efc7a0c36d03b3fa11f06c14a16050fa331dcc8b8fb94236fe9caacf7",
      "v": 27,
      "creates": null,
      "raw": "0xf86e820a0a850cf28b72f98255f094d971ab50bf8821bbafcfba3ddf6cf949357cc93588171478ef8ff4c1d0801ba0056bc3f6995a1fd72855b1398a7ff96e7573dc45125e36a34ef7ec6736ab9826a06c10e99efc7a0c36d03b3fa11f06c14a16050fa331dcc8b8fb94236fe9caacf7",
      "networkId": 0,
      "chainId": 0
    },
    {
      "hash": "0xab137a6d7d1cedb5317111c2cc6717976759c5d990219a760f5d4eb00ef40d82",
      "blockHash": "0x51a2cc595aaa3839c1331cd07a372ef30edcc68edaee9501da4b987870faab1a",
      "blockNumber": 94643,
      "transactionIndex": 4,
      "confirmations": null,
      "from": "0xe6A7a1d47ff21B6321162AEA7C6CB457D5476Bca",
      "gasPrice": {
        "_hex": "0xcf28b72f9"
      },
      "gasLimit": {
        "_hex": "0x55f0"
      },
      "to": "0x0C9A9E318c2FbF98388cCC81141392c066fbbC19",
      "value": {
        "_hex": "0x173bff363a08db18"
      },
      "nonce": 2571,
      "data": "0x",
      "r": "0xe10f2bcf8dd89f7d70a2d4f093007c0a7567b2b64e808058b139d5298871b11f",
      "s": "0x0414f99bed10de71cee81e3a10e4fe2acdadd8caec05ee38760f661cf47dbf59",
      "v": 28,
      "creates": null,
      "raw": "0xf86e820a0b850cf28b72f98255f0940c9a9e318c2fbf98388ccc81141392c066fbbc1988173bff363a08db18801ca0e10f2bcf8dd89f7d70a2d4f093007c0a7567b2b64e808058b139d5298871b11fa00414f99bed10de71cee81e3a10e4fe2acdadd8caec05ee38760f661cf47dbf59",
      "networkId": 0,
      "chainId": 0
    },
    {
      "hash": "0x0121f25099ef7142234a4cc115900ac1684c3567d0d8dc7b91afe34ebeedb7a5",
      "blockHash": "0x51a2cc595aaa3839c1331cd07a372ef30edcc68edaee9501da4b987870faab1a",
      "blockNumber": 94643,
      "transactionIndex": 5,
      "confirmations": null,
      "from": "0xe6A7a1d47ff21B6321162AEA7C6CB457D5476Bca",
      "gasPrice": {
        "_hex": "0xcf28b72f9"
      },
      "gasLimit": {
        "_hex": "0x55f0"
      },
      "to": "0x1d06b86EBBfD6bA717B6d14c0136dE1D88aa5989",
      "value": {
        "_hex": "0x176918c840cbd378"
      },
      "nonce": 2572,
      "data": "0x",
      "r": "0x493ea130d6e6a15dcf367537af5a551794f044c1ceed05cb640b9ee9a2a16eb4",
      "s": "0x06651bb11b95d1c47834f484a0602930e043c2fae043535c08a49b293ee0014e",
      "v": 27,
      "creates": null,
      "raw": "0xf86e820a0c850cf28b72f98255f0941d06b86ebbfd6ba717b6d14c0136de1d88aa598988176918c840cbd378801ba0493ea130d6e6a15dcf367537af5a551794f044c1ceed05cb640b9ee9a2a16eb4a006651bb11b95d1c47834f484a0602930e043c2fae043535c08a49b293ee0014e",
      "networkId": 0,
      "chainId": 0
    },
    {
      "hash": "0x2bac0e8a590430f76905d4c919e67d4c596339ce02b1368dee256ae97b05b1ea",
      "blockHash": "0x51a2cc595aaa3839c1331cd07a372ef30edcc68edaee9501da4b987870faab1a",
      "blockNumber": 94643,
      "transactionIndex": 6,
      "confirmations": null,
      "from": "0xe6A7a1d47ff21B6321162AEA7C6CB457D5476Bca",
      "gasPrice": {
        "_hex": "0xcf28b72f9"
      },
      "gasLimit": {
        "_hex": "0x55f0"
      },
      "to": "0xb2e4017063376d7eb1a72d91EC8Ff38712ffebdF",
      "value": {
        "_hex": "0x1795cfac97d6f9dc"
      },
      "nonce": 2573,
      "data": "0x",
      "r": "0x46c99b74f6d7c7b1232ee40f9359d033f7364f4fb83c7516adafc7fb35036d99",
      "s": "0x07e0b41bf957ba0fae1678a09b2c363a63ad47ebf96644b8c5b3576f1e480806",
      "v": 28,
      "creates": null,
      "raw": "0xf86e820a0d850cf28b72f98255f094b2e4017063376d7eb1a72d91ec8ff38712ffebdf881795cfac97d6f9dc801ca046c99b74f6d7c7b1232ee40f9359d033f7364f4fb83c7516adafc7fb35036d99a007e0b41bf957ba0fae1678a09b2c363a63ad47ebf96644b8c5b3576f1e480806",
      "networkId": 0,
      "chainId": 0
    }
  ]
}