{
  "hash": "0x08d9466e4a8cf5d1c36121efb9256f5de52570f778764c4bf6314ffa73ce54b2",
  "parentHash": "0xb628e3a975a8fb27dab17a0c101b07938ed2e99963f553d2b5e13ca6d183b6eb",
  "number": 89788,
  "timestamp": 1439629159,
  "nonce": "0x42d2263bdfe9b515",
  "difficulty": 3335346907315,
  "gasLimit": {
    "_hex": "0x2fefd8"
  },
  "gasUsed": {
    "_hex": "0x61698"
  },
  "miner": "0xe6A7a1d47ff21B6321162AEA7C6CB457D5476Bca",
  "extraData": "0x476574682f76312e302e312d38326566323666362f6c696e75782f676f312e34",
  "transactions": [
    {
      "hash": "0xe49a8915ec49adc508acc80a7c99fdaa7bb1beeb81c071f417f02ea9c5567196",
      "blockHash": "0x08d9466e4a8cf5d1c36121efb9256f5de52570f778764c4bf6314ffa73ce54b2",
      "blockNumber": 89788,
      "transactionIndex": 0,
      "confirmations": null,
      "from": "0xe6A7a1d47ff21B6321162AEA7C6CB457D5476Bca",
      "gasPrice": {
        "_hex": "0xdcd0fff22"
      },
      "gasLimit": {
        "_hex": "0x55f0"
      },
      "to": "0x86d3856ad0105B9d4199936c1fd203664BA325dC",
      "value": {
        "_hex": "0xb1d79a18b3becfb8"
      },
      "nonce": 2305,
      "data": "0x",
      "r": "0x3841d1dc5716cb037529fe23cd51d54d2f33ba5f7b965b4e04d96be6445fc3d6",
      "s": "0x187a4885bbb51f11161ffc172f770e05e59d741aefb1f06dd188720399e8a60e",
      "v": 27,
      "creates": null,
      "raw": "0xf86e820901850dcd0fff228255f09486d3856ad0105b9d4199936c1fd203664ba325dc88b1d79a18b3becfb8801ba03841d1dc5716cb037529fe23cd51d54d2f33ba5f7b965b4e04d96be6445fc3d6a0187a4885bbb51f11161ffc172f770e05e59d741aefb1f06dd188720399e8a60e",
      "networkId": 0,
      "chainId": 0
    },
    {
      "hash": "0x57eb92ee526b9d4806d71b566585a43c5a31ca87e4ae4cfd102f234bea90f151",
      "blockHash": "0x08d9466e4a8cf5d1c36121efb9256f5de52570f778764c4bf6314ffa73ce54b2",
      "blockNumber": 89788,
      "transactionIndex": 1,
      "confirmations": null,
      "from": "0xe6A7a1d47ff21B6321162AEA7C6CB457D5476Bca",
      "gasPrice": {
        "_hex": "0xdcd0fff22"
      },
      "gasLimit": {
        "_hex": "0x55f0"
      },
      "to": "0x61E20833179bA2eCCc2065e5F733CC8CdA7394c0",
      "value": {
        "_hex": "0xb394d4895b1cd958"
      },
      "nonce": 2306,
      "data": "0x",
      "r": "0xd4c878b7db71186e09351e9be887ba5b1f5a1d81bbeacc585c622a123d1e609a",
      "s": "0x28ec9b1ae7147ed798c614ac0dae5285e523063fd7b281e9efc09bf5e4b83723",
      "v": 28,
      "creates": null,
      "raw": "0xf86e820902850dcd0fff228255f09461e20833179ba2eccc2065e5f733cc8cda7394c088b394d4895b1cd958801ca0d4c878b7db71186e09351e9be887ba5b1f5a1d81bbeacc585c622a123d1e609aa028ec9b1ae7147ed798c614ac0dae5285e523063fd7b281e9efc09bf5e4b83723",
      "networkId": 0,
      "chainId": 0
    },
    {
      "hash": "0x8e2f88edc4e7e67c4e6de964786fafaab1a28ca209470a9dae5bb50c473c80ab",
      "blockHash": "0x08d9466e4a8cf5d1c36121efb9256f5de52570f778764c4bf6314ffa73ce54b2",
      "blockNumber": 89788,
      "transactionIndex": 2,
      "confirmations": null,
      "from": "0xe6A7a1d47ff21B6321162AEA7C6CB457D5476Bca",
      "gasPrice": {
        "_hex": "0xdcd0fff22"
      },
      "gasLimit": {
        "_hex": "0x55f0"
      },
      "to": "0xeD3Fe86896534C24D9F91232faE34b78DFf3c1f4",
      "value": {
        "_hex": "0xb686d0a991e1ff70"
      },
      "nonce": 2307,
      "data": "0x",
      "r": "0xe59b7d3e35405a00d8af0089f200e6ddc01554f66bf1aa92d069ff909bab1b8e",
      "s": "0x537ec8e1315629f5ace24a9bbf235ac99cb60148fe2a0ed0d6c2eef2a82eb957",
      "v": 28,
      "creates": null,
      "raw": "0xf86e820903850dcd0fff228255f094ed3fe86896534c24d9f91232fae34b78dff3c1f488b686d0a991e1ff70801ca0e59b7d3e35405a00d8af0089f200e6ddc01554f66bf1aa92d069ff909bab1b8ea0537ec8e1315629f5ace24a9bbf235ac99cb60148fe2a0ed0d6c2eef2a82eb957",
      "networkId": 0,
      "chainId": 0
    },
    {
      "hash": "0x55e7e18f34499ed80dca981405dea74c219d3c71e76543f859f2e845e34fc7af",
      "blockHash": "0x08d9466e4a8cf5d1c36121efb9256f5de52570f778764c4bf6314ffa73ce54b2",
      "blockNumber": 89788,
      "transactionIndex": 3,
      "confirmations": null,
      "from": "0xe6A7a1d47ff21B6321162AEA7C6CB457D5476Bca",
      "gasPrice": {
        "_hex": "0xdcd0fff22"
      },
      "gasLimit": {
        "_hex": "0x55f0"
      },
      "to": "0xbc681E36E2BC0d9Cb397811ce7a5821da2D66059",
      "value": {
        "_hex": "0xb7bceb362b46ef30"
      },
      "nonce": 2308,
      "data": "0x",
      "r": "0xb519f5dc6a795fc3633e1e3c4deafe5ae4efc7d054d5aa46ab9a094469fff7af",
      "s": "0x2fc9f4ddc612de3be8d7c70b547ea37de30ae02e34e0ae5215d2e9dc82eb6d91",
      "v": 28,
      "creates": null,
      "raw": "0xf86e820904850dcd0fff228255f094bc681e36e2bc0d9cb397811ce7a5821da2d6605988b7bceb362b46ef30801ca0b519f5dc6a795fc3633e1e3c4deafe5ae4efc7d054d5aa46ab9a094469fff7afa02fc9f4ddc612de3be8d7c70b547ea37de30ae02e34e0ae5215d2e9dc82eb6d91",
      "networkId": 0,
      "chainId": 0
    },
    {
      "hash": "0xe73b2e5c57a105a8db14a5817358329559fa6433c9767a64a862b685ba6a08ed",
      "blockHash": "0x08d9466e4a8cf5d1c36121efb9256f5de52570f778764c4bf6314ffa73ce54b2",
      "blockNumber": 89788,
      "transactionIndex": 4,
      "confirmations": null,
      "from": "0xe6A7a1d47ff21B6321162AEA7C6CB457D5476Bca",
      "gasPrice": {
        "_hex": "0xdcd0fff22"
      },
      "gasLimit": {
        "_hex": "0x55f0"
      },
      "to": "0x8fA33bA169f6aFf86fB3C9E172bddA7CA6D2A66a",
      "value": {
        "_hex": "0xb9420ccc67e3d690"
      },
      "nonce": 2309,
      "data": "0x",
      "r": "0x0fa68d87701082f682e365ef4b1d535e3864ebd81f8a8792aeb4d4916e391043",
      "s": "0x38190fe4f2f98b3d22131deef1244f15ce56dc491ad0c12a9a19c9d5408174e9",
      "v": 28,
      "creates": null,
      "raw": "0xf86e820905850dcd0fff228255f0948fa33ba169f6aff86fb3c9e172bdda7ca6d2a66a88b9420ccc67e3d690801ca00fa68d87701082f682e365ef4b1d535e3864ebd81f8a8792aeb4d4916e391043a038190fe4f2f98b3d22131deef1244f15ce56dc491ad0c12a9a19c9d5408174e9",
      "networkId": 0,
      "chainId": 0
    },
    {
      "hash": "0x269ad41182c434417aa2c7ddd9a1fd30ec851ac4a3ce426bbd84cbb4371fcbf0",
      "blockHash": "0x08d9466e4a8cf5d1c36121efb9256f5de52570f778764c4bf6314ffa73ce54b2",
      "blockNumber": 89788,
      "transactionIndex": 5,
      "confirmations": null,
      "from": "0xe6A7a1d47ff21B6321162AEA7C6CB457D5476Bca",
      "gasPrice": {
        "_hex": "0xdcd0fff22"
      },
      "gasLimit": {
        "_hex": "0x55f0"
      },
      "to": "0x46b29910396E1cF71678f81101334A180876E9b1",
      "value": {
        "_hex": "0xbb5b11b9e4f61078"
      },
      "nonce": 2310,
      "data": "0x",
      "r": "0x822a30a4a3d76b7198f65112f5bc69b60906336f2910ef60ec79126c610a2a59",
      "s": "0x150c90997ce13d0eabb3cb366ce87a1e0508194f907c434221bd7dedd9139b65",
      "v": 28,
      "creates": null,
      "raw": "0xf86e820906850dcd0fff228255f09446b29910396e1cf71678f81101334a180876e9b188bb5b11b9e4f61078801ca0822a30a4a3d76b7198f65112f5bc69b60906336f2910ef60ec79126c610a2a59a0150c90997ce13d0eabb3cb366ce87a1e0508194f907c434221bd7dedd9139b65",
      "networkId": 0,
      "chainId": 0
    },
    {
      "hash": "0x763ddd4a7c46c6572ca8c40947f43b05603072a06b828de1068d144d643f7923",
      "blockHash": "0x08d9466e4a8cf5d1c36121efb9256f5de52570f778764c4bf6314ffa73ce54b2",
      "blockNumber": 89788,
      "transactionIndex": 6,
      "confirmations": null,
      "from": "0xe6A7a1d47ff21B6321162AEA7C6CB457D5476Bca",
      "gasPrice": {
        "_hex": "0xdcd0fff22"
      },
      "gasLimit": {
        "_hex": "0x55f0"
      },
      "to": "0x59389A554d044d4b3BED659834A248C59957f168",
      "value": {
        "_hex": "0xbb6c5bd3464b29e8"
      },
      "nonce": 2311,
      "data": "0x",
      "r": "0xc30ecb41b5eff05ca7ff1a73d56ecb861087e19c1b31186a09c6a20919694123",
      "s": "0x2702d653cc716ec7092ba1dcea416aa2acc1bd81bf84f9cd80f2cb8907408fa0",
      "v": 27,
      "creates": null,
      "raw": "0xf86e820907850dcd0fff228255f09459389a554d044d4b3bed659834a248c59957f16888bb6c5bd3464b29e8801ba0c30ecb41b5eff05ca7ff1a73d56ecb861087e19c1b31186a09c6a20919694123a02702d653cc716ec7092ba1dcea416aa2acc1bd81bf84f9cd80f2cb8907408fa0",
      "networkId": 0,
      "chainId": 0
    },
    {
      "hash": "0xf8b6e4e5277f2ef82f8c6fb478677364b8d9b7dabd55eb25c4c8f745bf68f30b",
      "blockHash": "0x08d9466e4a8cf5d1c36121efb9256f5de52570f778764c4bf6314ffa73ce54b2",
      "blockNumber": 89788,
      "transactionIndex": 7,
      "confirmations": null,
      "from": "0xe6A7a1d47ff21B6321162AEA7C6CB457D5476Bca",
      "gasPrice": {
        "_hex": "0xdcd0fff22"
      },
      "gasLimit": {
        "_hex": "0x55f0"
      },
      "to": "0x305E8d20Ca61Ba9DD2DD18E1134e7CDB9a13F68D",
      "value": {
        "_hex": "0xbdd32cd27f0bcf38"
      },
      "nonce": 2312,
      "data": "0x",
      "r": "0x2c014c98abe7eeffc9339a43dc08be72e2eefc7317ef6791423f58c7a47efa3b",
      "s": "0x73977e80775c87bf76aea9fbc68d6605bb1a79cfa83b6ed542d476084439f14c",
      "v": 27,
      "creates": null,
      "raw": "0xf86e820908850dcd0fff228255f094305e8d20ca61ba9dd2dd18e1134e7cdb9a13f68d88bdd32cd27f0bcf38801ba02c014c98abe7eeffc9339a43dc08be72e2eefc7317ef6791423f58c7a47efa3ba073977e80775c87bf76aea9fbc68d6605bb1a79cfa83b6ed542d476084439f14c",
      "networkId": 0,
      "chainId": 0
    },
    {
      "hash": "0xa6beb1cd305a59ea656f27332450efc96fe6fd6fb05ca715c859a0a64c46f2d8",
      "blockHash": "0x08d9466e4a8cf5d1c36121efb9256f5de52570f778764c4bf6314ffa73ce54b2",
      "blockNumber": 89788,
      "transactionIndex": 8,
      "confirmations": null,
      "from": "0xe6A7a1d47ff21B6321162AEA7C6CB457D5476Bca",
      "gasPrice": {
        "_hex": "0xdcd0fff22"
      },
      "gasLimit": {
        "_hex": "0x55f0"
      },
      "to": "0x3175a28CF6105466923f11bFFabD279F162aa2f8",
      "value": {
        "_hex": "0xbeae416d2d7aa0f0"
      },
      "nonce": 2313,
      "data": "0x",
      "r": "0x941eef51406797c5d6326a1cdf610da4f5bab4a14a2c9e6b5adaa923ee0f41eb",
      "s": "0x6b05a559be5503f08abe0745d5e48ad79cd1d25359f5ef5ba8c74358196417d1",
      "v": 27,
      "creates": null,
      "raw": "0xf86e820909850dcd0fff228255f0943175a28cf6105466923f11bffabd279f162aa2f888beae416d2d7aa0f0801ba0941eef51406797c5d6326a1cdf610da4f5bab4a14a2c9e6b5adaa923ee0f41eba06b05a559be5503f08abe0745d5e48ad79cd1d25359f5ef5ba8c74358196417d1",
      "networkId": 0,
      "chainId": 0
    },
    {
      "hash": "0xd69fe2ce21a62f091e2551a8441a8da66df97865b02ff5042cef076a4b7503d0",
      "blockHash": "0x08d9466e4a8cf5d1c36121efb9256f5de52570f778764c4bf6314ffa73ce54b2",
      "blockNumber": 89788,
      "transactionIndex": 9,
      "confirmations": null,
      "from": "0xe6A7a1d47ff21B6321162AEA7C6CB457D5476Bca",
      "gasPrice": {
        "_hex": "0xdcd0fff22"
      },
      "gasLimit": {
        "_hex": "0x55f0"
      },
      "to": "0x19aF4b2766b8115B49E1fd31Ae71CaA12E706A96",
      "value": {
        "_hex": "0xc06ba989f569c030"
      },
      "nonce": 2314,
      "data": "0x",
      "r": "0x61917e13ee51abff2d8b283f9215a7369455b0851fa013e0a6caf5d72c6252be",
      "s": "0x56c8ea4f8e120a70ef631d6892fb9ecea3dad9d695c345a0507689da086be2d9",
      "v": 27,
      "creates": null,
      "raw": "0xf86e82090a850dcd0fff228255f09419af4b2766b8115b49e1fd31ae71caa12e706a9688c06ba989f569c030801ba061917e13ee51abff2d8b283f9215a7369455b0851fa013e0a6caf5d72c6252bea056c8ea4f8e120a70ef631d6892fb9ecea3dad9d695c345a0507689da086be2d9",
      "networkId": 0,
      "chainId": 0
    },
    {
      "hash": "0xac10add24781461285655c197486d66bd8c5cf0bd0cf0c40d4604cab98f87b0c",
      "blockHash": "0x08d9466e4a8cf5d1c36121efb9256f5de52570f778764c4bf6314ffa73ce54b2",
      "blockNumber": 89788,
      "transactionIndex": 10,
      "confirmations": null,
      "from": "0xe6A7a1d47ff21B6321162AEA7C6CB457D5476Bca",
      "gasPrice": {
        "_hex": "0xdcd0fff22"
      },
      "gasLimit": {
        "_hex": "0x55f0"
      },
      "to": "0x7550E0d09f273C690454B44F794D7D381B2E55EA",
      "value": {
        "_hex": "0xc130ecf6c73d08b8"
      },
      "nonce": 2315,
      "data": "0x",
      "r": "0x7c3fe66d5e88b0568840f3bb915d185d591c3520e2a90214f0f192e150a0bbc1",
      "s": "0x0abd128e26de5c68bc777cef02eafade07e8cfd39b6bc1a1ec5c7ab163c2b15b",
      "v": 28,
      "creates": null,
      "raw": "0xf86e82090b850dcd0fff228255f0947550e0d09f273c690454b44f794d7d381b2e55ea88c130ecf6c73d08b8801ca07c3fe66d5e88b0568840f3bb915d185d591c3520e2a90214f0f192e150a0bbc1a00abd128e26de5c68bc777cef02eafade07e8cfd39b6bc1a1ec5c7ab163c2b15b",
      "networkId": 0,
      "chainId": 0
    },
    {
      "hash": "0x9803c0d45f0b1ffb60fddaa11e33720236809150af39159350fdb0bf399a99d3",
      "blockHash": "0x08d9466e4a8cf5d1c36121efb9256f5de52570f778764c4bf6314ffa73ce54b2",
      "blockNumber": 89788,
      "transactionIndex": 11,
      "confirmations": null,
      "from": "0xe6A7a1d47ff21B6321162AEA7C6CB457D5476Bca",
      "gasPrice": {
        "_hex": "0xdcd0fff22"
      },
      "gasLimit": {
        "_hex": "0x55f0"
      },
      "to": "0x13258A1Aa418C990ce59616C26338A44899d854c",
      "value": {
        "_hex": "0xc1b4296dbad75128"
      },
      "nonce": 2316,
      "data": "0x",
      "r": "0x24bf089c3492bc7a0384c9cbd4092138652f5b5aa227dcdfd3fe31f1b31d6b51",
      "s": "0x59126b6e813ae5b62b20948e6f921a7cecd102c52740d8dcecc35d0efe71b69d",
      "v": 27,
      "creates": null,
      "raw": "0xf86e82090c850dcd0fff228255f09413258a1aa418c990ce59616c26338a44899d854c88c1b4296dbad75128801ba024bf089c3492bc7a0384c9cbd4092138652f5b5aa227dcdfd3fe31f1b31d6b51a059126b6e813ae5b62b20948e6f921a7cecd102c52740d8dcecc35d0efe71b69d",
      "networkId": 0,
      "chainId": 0
    },
    {
      "hash": "0x536ed0913411068cd3672155ad53d42ae117552bb4ce9e76fd0a6c3915360fac",
      "blockHash": "0x08d9466e4a8cf5d1c36121efb9256f5de52570f778764c4bf6314ffa73ce54b2",
      "blockNumber": 89788,
      "transactionIndex": 12,
      "confirmations": null,
      "from": "0xe6A7a1d47ff21B6321162AEA7C6CB457D5476Bca",
      "gasPrice": {
        "_hex": "0xdcd0fff22"
      },
      "gasLimit": {
        "_hex": "0x55f0"
      },
      "to": "0xDdaCBcba2a4fe9313F7CCA044872A9c51bD1E4c8",
      "value": {
        "_hex": "0xc2f1f1e36f6a7e40"
      },
      "nonce": 2317,
      "data": "0x",
      "r": "0x702b642f43081c8d009533c3f8f6de48ecaacfea0b35d068c909052708c91f36",
      "s": "0x305d897c3fe261a3170b6956661caa31fa2b6423f11ec3498423047712133636",
      "v": 28,
      "creates": null,
      "raw": "0xf86e82090d850dcd0fff228255f094ddacbcba2a4fe9313f7cca044872a9c51bd1e4c888c2f1f1e36f6a7e40801ca0702b642f43081c8d009533c3f8f6de48ecaacfea0b35d068c909052708c91f36a0305d897c3fe261a3170b6956661caa31fa2b6423f11ec3498423047712133636",
      "networkId": 0,
      "chainId": 0
    },
    {
      "hash": "0x72b07be92c6e24d6e906fd7dfc860f1aae1e5cd434c5a93eeb78b0d324c6f034",
      "blockHash": "0x08d9466e4a8cf5d1c36121efb9256f5de52570f778764c4bf6314ffa73ce54b2",
      "blockNumber": 89788,
      "transactionIndex": 13,
      "confirmations": null,
      "from": "0xe6A7a1d47ff21B6321162AEA7C6CB457D5476Bca",
      "gasPrice": {
        "_hex": "0xdcd0fff22"
      },
      "gasLimit": {
        "_hex": "0x55f0"
      },
      "to": "0x211D45933Ef88c3D7aD0120942CF50ab506e618F",
      "value": {
        "_hex": "0xc38d2a28747777f8"
      },
      "nonce": 2318,
      "data": "0x",
      "r": "0x0c6ebc2a1c22774273d49e3f7c1976bd64d4eaf76fa8481129a9897935b9ad07",
      "s": "0x63ad8d71b4326e4034bdebaafba39c254372f0473e3cca0a2075aa8f2f4cedbd",
      "v": 27,
      "creates": null,
      "raw": "0xf86e82090e850dcd0fff228255f094211d45933ef88c3d7ad0120942cf50ab506e618f88c38d2a28747777f8801ba00c6ebc2a1c22774273d49e3f7c1976bd64d4eaf76fa8481129a9897935b9ad07a063ad8d71b4326e4034bdebaafba39c254372f0473e3cca0a2075aa8f2f4cedbd",
      "networkId": 0,
      "chainId": 0
    },
    {
      "hash": "0xf6fdc06151e15b3ed602e7ca5c6d5a5f71fad2e4422f336bb105e40af5226fe6",
      "blockHash": "0x08d9466e4a8cf5d1c36121efb9256f5de52570f778764c4bf6314ffa73ce54b2",
      "blockNumber": 89788,
      "transactionIndex": 14,
      "confirmations": null,
      "from": "0xe6A7a1d47ff21B6321162AEA7C6CB457D5476Bca",
      "gasPrice": {
        "_hex": "0xdcd0fff22"
      },
      "gasLimit": {
        "_hex": "0x55f0"
      },
      "to": "0x610821723ac6726cBCec2037C83743dfbDADa663",
      "value": {
        "_hex": "0xc540854dbef7eb20"
      },
      "nonce": 2319,
      "data": "0x",
      "r": "0x1dd444bd1f8bb070d34bba7bef5fb8f6c4a286979a5e9e361bacb4beeac8834d",
      "s": "0x7a407cc0c045f8964ff604148ff96ba9429358c39b201fbbc1ab425abb86ab4c",
      "v": 27,
      "creates": null,
      "raw": "0xf86e82090f850dcd0fff228255f094610821723ac6726cbcec2037c83743dfbdada66388c540854dbef7eb20801ba01dd444bd1f8bb070d34bba7bef5fb8f6c4a286979a5e9e361bacb4beeac8834da07a407cc0c045f8964ff604148ff96ba9429358c39b201fbbc1ab425abb86ab4c",
      "networkId": 0,
      "chainId": 0
    },
    {
      "hash": "0x3f14abe3120b23aa4b4b1590bf8e1e66b6cee6f42231d29faaf241757e113b64",
      "blockHash": "0x08d9466e4a8cf5d1c36121efb9256f5de52570f778764c4bf6314ffa73ce54b2",
      "blockNumber": 89788,
      "transactionIndex": 15,
      "confirmations": null,
      "from": "0xe6A7a1d47ff21B6321162AEA7C6CB457D5476Bca",
      "gasPrice": {
        "_hex": "0xdcd0fff22"
      },
      "gasLimit": {
        "_hex": "0x55f0"
      },
      "to": "0x9A6eb0bBBE50281644D7a7839147F59819506Ac0",
      "value": {
        "_hex": "0xc603465a42c59fc0"
      },
      "nonce": 2320,
      "data": "0x",
      "r": "0x38f4e13e09fc34d3560ea67882622bd2734e52b0cbc6af1d6b9e3c64e673b8e1",
      "s": "0x448fbb7fac57a19b21e2bd2d2e5840a227b1c89132d774a26a341798f731377d",
      "v": 28,
      "creates": null,
      "raw": "0xf86e820910850dcd0fff228255f0949a6eb0bbbe50281644d7a7839147f59819506ac088c603465a42c59fc0801ca038f4e13e09fc34d3560ea67882622bd2734e52b0cbc6af1d6b9e3c64e673b8e1a0448fbb7fac57a19b21e2bd2d2e5840a227b1c89132d774a26a341798f731377d",
      "networkId": 0,
      "chainId": 0
    },
    {
      "hash": "0x80011a72104f8d09a7cedc4f4b33525ed238dbb06ac54288bb8f2871a28bd1b2",
      "blockHash": "0x08d9466e4a8cf5d1c36121efb9256f5de52570f778764c4bf6314ffa73ce54b2",
      "blockNumber": 89788,
      "transactionIndex": 16,
      "confirmations": null,
      "from": "0xe6A7a1d47ff21B6321162AEA7C6CB457D5476Bca",
      "gasPrice": {
        "_hex": "0xdcd0fff22"
      },
      "gasLimit": {
        "_hex": "0x55f0"
      },
      "to": "0xaa71fa80d26F718E6A3c87e41D817b8D10944a63",
      "value": {
        "_hex": "0xca2fdb691e06f790"
      },
      "nonce": 2321,
      "data": "0x",
      "r": "0x7dedf81dcd20f3c0389471e75ddef4c80e8ca643bf01b2fc25c8e860a837c283",
      "s": "0x0401d25408f4aab1e1d25f25aae8d9b7f6ac800923c88dcd5ae05f3b00b0b81d",
      "v": 27,
      "creates": null,
      "raw": "0xf86e820911850dcd0fff228255f094aa71fa80d26f718e6a3c87e41d817b8d10944a6388ca2fdb691e06f790801ba07dedf81dcd20f3c0389471e75ddef4c80e8ca643bf01b2fc25c8e860a837c283a00401d25408f4aab1e1d25f25aae8d9b7f6ac800923c88dcd5ae05f3b00b0b81d",
      "networkId": 0,
      "chainId": 0
    },
    {
      "hash": "0xa8d58c36cf3faed9770cae8898809ff3751fe948fc6059b498d87b99e7e25d9d",
      "blockHash": "0x08d9466e4a8cf5d1c36121efb9256f5de52570f778764c4bf6314ffa73ce54b2",
      "blockNumber": 89788,
      "transactionIndex": 17,
      "confirmations": null,
      "from": "0xA270859a7dD7bEF18258BDE4b85Dd3691FdE277D",
      "gasPrice": {
        "_hex": "0xce5dcd980"
      },
      "gasLimit": {
        "_hex": "0x5208"
      },
      "to": "0x32Be343B94f860124dC4fEe278FDCBD38C102D88",
      "value": {
        "_hex": "0x183d486e84b9ec00"
      },
      "nonce": 0,
      "data": "0x",
      "r": "0xb9d13ac8877059118dbcf87fb33ec0e3fb9d7c9f41162876c3121f1e99e65a74",
      "s": "0x10b063647c8f879c3148c9c5ee90edef6398b3964aaab7aed56ac3f27331dab5",
      "v": 28,
      "creates": null,
      "raw": "0xf86c80850ce5dcd9808252089432be343b94f860124dc4fee278fdcbd38c102d8888183d486e84b9ec00801ca0b9d13ac8877059118dbcf87fb33ec0e3fb9d7c9f41162876c3121f1e99e65a74a010b063647c8f879c3148c9c5ee90edef6398b3964aaab7aed56ac3f27331dab5",
      "networkId": 0,
      "chainId": 0
    },
    {
      "hash": "0x7b3b7cda971350244ed2e597ecf085b56ffa7292dfb85b5c29282389f1e8e0e8",
      "blockHash": "0x08d9466e4a8cf5d1c36121efb9256f5de52570f778764c4bf6314ffa73ce54b2",
      "blockNumber": 89788,
      "transactionIndex": 18,
      "confirmations": null,
      "from": "0xdCe26B66eabfB4dE900E4944DcC2FA2d455021fc",
      "gasPrice": {
        "_hex": "0xce5dcd980"
      },
      "gasLimit": {
        "_hex": "0x5208"
      },
      "to": "0x32Be343B94f860124dC4fEe278FDCBD38C102D88",
      "value": {
        "_hex": "0x179c14b11303fc00"
      },
      "nonce": 1,
      "data": "0x",
      "r": "0xcb0f31b6b64a1e6fef646b793c549338f4245b8302c69fa48ef70b58ec607540",
      "s": "0x305283044b9d0141a4a9b60576ce1939f4cbe368b07e10224d90a1ed267693c2",
      "v": 27,
      "creates": null,
      "raw": "0xf86c01850ce5dcd9808252089432be343b94f860124dc4fee278fdcbd38c102d8888179c14b11303fc00801ba0cb0f31b6b64a1e6fef646b793c549338f4245b8302c69fa48ef70b58ec607540a0305283044b9d0141a4a9b60576ce1939f4cbe368b07e10224d90a1ed267693c2",
      "networkId": 0,
      "chainId": 0
    }
  ]
}