{
  "hash": "0xfbe284b4288fb01f7bd39396da360d972df3b6051df4dc6827bbcbaac9102ca2",
  "parentHash": "0xcd21201871f190dff20fa573228db7a9122325c7f86dcc295a32a76bbcf41183",
  "number": 80164,
  "timestamp": 1439481158,
  "nonce": "0x2d4c42830a31f08f",
  "difficulty": 2365518826183,
  "gasLimit": {
    "_hex": "0x2fefd8"
  },
  "gasUsed": {
    "_hex": "0x7a13"
  },
  "miner": "0xf927a40C8B7F6E07c5af7FA2155B4864a4112B13",
  "extraData": "0x",
  "transactions": [
    {
      "hash": "0x6090c2172470ea425724295e097dd71f0a516df4188b9153b70bb7e4cd14eb52",
      "blockHash": "0xfbe284b4288fb01f7bd39396da360d972df3b6051df4dc6827bbcbaac9102ca2",
      "blockNumber": 80164,
      "transactionIndex": 0,
      "confirmations": null,
      "from": "0x87C5B5874A18B4306DF8a752a6C8cc3E82daFc19",
      "gasPrice": {
        "_hex": "0x10b012a1b05"
      },
      "gasLimit": {
        "_hex": "0x493e0"
      },
      "to": "0xC4c51de1AbF5D60DBd329eC0F999Fd8f021ae9fC",
      "value": {
        "_hex": "0x96f7bcd12c7bced5"
      },
      "nonce": 133,
      "data": "0x8d216186000000000000000000000000000000000000000000000000000000000000001ad3d96ceed0cfca4794c2a5a3d3aeefe69da0a2a669e66a5651f30b64831c3db0",
      "r": "0xf12f3423aee8305b13595a308b19975cab3db316f932fe3c39b95afacf9dfc03",
      "s": "0x7c2767b28b080b2b7bfa411586bbb38c78afea7715deef54824980c6b673e72b",
      "v": 27,
      "creates": null,
      "raw": "0xf8b4818586010b012a1b05830493e094c4c51de1abf5d60dbd329ec0f999fd8f021ae9fc8896f7bcd12c7bced5b8448d216186000000000000000000000000000000000000000000000000000000000000001ad3d96ceed0cfca4794c2a5a3d3aeefe69da0a2a669e66a5651f30b64831c3db01ba0f12f3423aee8305b13595a308b19975cab3db316f932fe3c39b95afacf9dfc03a07c2767b28b080b2b7bfa411586bbb38c78afea7715deef54824980c6b673e72b",
      "networkId": 0,
      "chainId": 0
    }
  ]
}