{
  "hash": "0xb551f590ec62677eb8a6718503938e34a8c6be30d2a84e3f463daa630540bd85",
  "parentHash": "0xfe3ef7900c383b22f57350ddde3d91e0fe38d910e3d67af268b1c8eb7ff79d65",
  "number": 58069,
  "timestamp": 1439114661,
  "nonce": "0xe23df9d0d06df9f5",
  "difficulty": 1707478971631,
  "gasLimit": {
    "_hex": "0x2fe3db"
  },
  "gasUsed": {
    "_hex": "0x546c"
  },
  "miner": "0x3F98e477a361F777DA14611a7e419A75Fd238b6b",
  "extraData": "0x476574682f76312e302e312f6c696e75782f676f312e342e32",
  "transactions": [
    {
      "hash": "0xa4850905ffd56d14c2e95dbab4f011f463e1b2e8f5aca8bc3817b932137c7d59",
      "blockHash": "0xb551f590ec62677eb8a6718503938e34a8c6be30d2a84e3f463daa630540bd85",
      "blockNumber": 58069,
      "transactionIndex": 0,
      "confirmations": null,
      "from": "0x116A09dF66cb150E97578E297fB06e13040c893c",
      "gasPrice": {
        "_hex": "0xd7d88eefd"
      },
      "gasLimit": {
        "_hex": "0x15f90"
      },
      "to": "0x2910543Af39abA0Cd09dBb2D50200b3E800A63D2",
      "value": {
        "_hex": "0xde0b6b3a7640000"
      },
      "nonce": 3,
      "data": "0x454e4d373645325638",
      "r": "0xdbbd6d47e6a3d589544c8a4ec16ffd4dd2378682d54d04012448f4ff35a597ec",
      "s": "0x7daa72405e761fe0ac5f101fbb53596be72566002470fc3141455bb8bbf1075f",
      "v": 28,
      "creates": null,
      "raw": "0xf87603850d7d88eefd83015f90942910543af39aba0cd09dbb2d50200b3e800a63d2880de0b6b3a764000089454e4d3736453256381ca0dbbd6d47e6a3d589544c8a4ec16ffd4dd2378682d54d04012448f4ff35a597eca07daa72405e761fe0ac5f101fbb53596be72566002470fc3141455bb8bbf1075f",
      "networkId": 0,
      "chainId": 0
    }
  ]
}