{
  "hash": "0xd2be078807087e94b4665e9393fa45c10bd4f2dd9051b293c7650c53e341bc09",
  "parentHash": "0xd2573879d501ae5cc926cb33b952eba0f9153d80b7b2458c2f3e11a6a7858d6b",
  "number": 117856,
  "timestamp": 1440116439,
  "nonce": "0x7d2fc7aeceb9fe90",
  "difficulty": 4335581528138,
  "gasLimit": {
    "_hex": "0x2fefd8"
  },
  "gasUsed": {
    "_hex": "0x5208"
  },
  "miner": "0x52bc44d5378309EE2abF1539BF71dE1b7d7bE3b5",
  "extraData": "0xd783010002844765746887676f312e342e32856c696e7578",
  "transactions": [
    {
      "hash": "0x60c29fa595d6e2c1007e56930815ae25702d922e6a5a8f999fb29df5d40b19d1",
      "blockHash": "0xd2be078807087e94b4665e9393fa45c10bd4f2dd9051b293c7650c53e341bc09",
      "blockNumber": 117856,
      "transactionIndex": 0,
      "confirmations": null,
      "from": "0x701aE497d3522329870Ada714AA902424EA8Da01",
      "gasPrice": {
        "_hex": "0xba43b7400"
      },
      "gasLimit": {
        "_hex": "0x5208"
      },
      "to": "0x32Be343B94f860124dC4fEe278FDCBD38C102D88",
      "value": {
        "_hex": "0xa82d0c629cbf9000"
      },
      "nonce": 11,
      "data": "0x",
      "r": "0xca877ac50c5c3d750b608c9a5eb6708879e42dac8af8eb71f5c0e23175b0955e",
      "s": "0x59c66b3eb0842cfd3b22f1278f57bf397e10dcfaac4728a5724f46872ede4c2f",
      "v": 28,
      "creates": null,
      "raw": "0xf86c0b850ba43b74008252089432be343b94f860124dc4fee278fdcbd38c102d8888a82d0c629cbf9000801ca0ca877ac50c5c3d750b608c9a5eb6708879e42dac8af8eb71f5c0e23175b0955ea059c66b3eb0842cfd3b22f1278f57bf397e10dcfaac4728a5724f46872ede4c2f",
      "networkId": 0,
      "chainId": 0
    }
  ]
}