{
  "hash": "0x2fb5f701e20e815c93c363a47f6d76034bf67a9bdd1d6a6be76e563c50fe4dc5",
  "parentHash": "0x6b77b13421586be53c8d3f100115ea2f6bc05b408321145d70f877eface2ec26",
  "number": 115455,
  "timestamp": 1440057552,
  "nonce": "0x679ab2eda257fe4b",
  "difficulty": 4564968005161,
  "gasLimit": {
    "_hex": "0x2fefd8"
  },
  "gasUsed": {
    "_hex": "0x5208"
  },
  "miner": "0x580992B51e3925e23280EfB93d3047C82f17E038",
  "extraData": "0x476574682f76312e302e312f6c696e75782f676f312e342e32",
  "transactions": [
    {
      "hash": "0x31cc732404851248d9d1e9087e5921d1fc3c8481da46e8eb7d85b9cb12941360",
      "blockHash": "0x2fb5f701e20e815c93c363a47f6d76034bf67a9bdd1d6a6be76e563c50fe4dc5",
      "blockNumber": 115455,
      "transactionIndex": 0,
      "confirmations": null,
      "from": "0x6262C9b7542384345651e521f3Cae37C96023FB3",
      "gasPrice": {
        "_hex": "0xd5d5f446f"
      },
      "gasLimit": {
        "_hex": "0x30d40"
      },
      "to": "0x120A270bbC009644e35F0bB6ab13f95b8199c4ad",
      "value": {
        "_hex": "0xdb7ed80abcc4140"
      },
      "nonce": 0,
      "data": "0x",
      "r": "0x5026b83cf41ac6d98a040a6270678ca881cf4da2542a88870c118d714daf3161",
      "s": "0x373796ee757f406c8fb7a7f08bbbe742084a332d42db915ba1663951a44bfcd9",
      "v": 27,
      "creates": null,
      "raw": "0xf86d80850d5d5f446f83030d4094120a270bbc009644e35f0bb6ab13f95b8199c4ad880db7ed80abcc4140801ba05026b83cf41ac6d98a040a6270678ca881cf4da2542a88870c118d714daf3161a0373796ee757f406c8fb7a7f08bbbe742084a332d42db915ba1663951a44bfcd9",
      "networkId": 0,
      "chainId": 0
    }
  ]
}