{
  "hash": "0xb00ba41fd832c6dbcce4ffd210d77555bce95af1e6895745a8568a488e4d0eaf",
  "parentHash": "0x45de0c41b3595b1138882910a78d9cf453d2a19aa619072b6e2bdbc2360070bc",
  "number": 120567,
  "timestamp": 1440162053,
  "nonce": "0x81374a8f4aad1cb3",
  "difficulty": 4430468036313,
  "gasLimit": {
    "_hex": "0x2fefd8"
  },
  "gasUsed": {
    "_hex": "0x5208"
  },
  "miner": "0x790b8a3cE86E707ED0eD32bF89B3269692a23CC1",
  "extraData": "0xd783010002844765746887676f312e342e32856c696e7578",
  "transactions": [
    {
      "hash": "0x9d30e033ceecce3956ccd415f78464aa9adc4d119784167214dcb7ebcbeabeee",
      "blockHash": "0xb00ba41fd832c6dbcce4ffd210d77555bce95af1e6895745a8568a488e4d0eaf",
      "blockNumber": 120567,
      "transactionIndex": 0,
      "confirmations": null,
      "from": "0xb3395f0a13448d9A660aC4aB2aBBC61F555f3656",
      "gasPrice": {
        "_hex": "0xba43b7400"
      },
      "gasLimit": {
        "_hex": "0x7530"
      },
      "to": "0x6De181Fc4C140FA31F196e5393516c49EEeBdAd3",
      "value": {
        "_hex": "0x46c6d6faa27e00000"
      },
      "nonce": 7,
      "data": "0x",
      "r": "0x45dffc26b9b3f085ddf05845a441c4077ff5b8a9113b6de38546c5937d7337b4",
      "s": "0x7969bef296b834d33fbef4f77a9fcd9420ed020e5561ec73b98e7f5387dd4869",
      "v": 28,
      "creates": null,
      "raw": "0xf86d07850ba43b7400827530946de181fc4c140fa31f196e5393516c49eeebdad389046c6d6faa27e00000801ca045dffc26b9b3f085ddf05845a441c4077ff5b8a9113b6de38546c5937d7337b4a07969bef296b834d33fbef4f77a9fcd9420ed020e5561ec73b98e7f5387dd4869",
      "networkId": 0,
      "chainId": 0
    }
  ]
}