{
  "hash": "0x52ba4f597739d7c264718ca71fb007370b7cb172c0f405ea492bfe2695e49c58",
  "parentHash": "0x85609170442803d2b349c5484ed0d7e0bec65e19a81efcd5b4eb8dc1ede1208c",
  "number": 47140,
  "timestamp": 1438934811,
  "nonce": "0x72a37aa8db52cc80",
  "difficulty": 1460247554703,
  "gasLimit": {
    "_hex": "0x9b58"
  },
  "gasUsed": {
    "_hex": "0x5208"
  },
  "miner": "0x1217627fe41A00f0b828317F43E6d58F47dBfc43",
  "extraData": "0x476574682f76312e302e302d66313265303136312f6c696e75782f676f312e34",
  "transactions": [
    {
      "hash": "0xdf31a12f4ced5b4b7e56b0218322e060d4c0f336bf6d82f1a408ea47d6887883",
      "blockHash": "0x52ba4f597739d7c264718ca71fb007370b7cb172c0f405ea492bfe2695e49c58",
      "blockNumber": 47140,
      "transactionIndex": 0,
      "confirmations": null,
      "from": "0x01434e4Ac3238bEC44a39ad642aBaBBB68D097e6",
      "gasPrice": {
        "_hex": "0x45d964b800"
      },
      "gasLimit": {
        "_hex": "0x5208"
      },
      "to": "0xb891F05f7E7E5F3767E96bF020C5b49dbEC895C0",
      "value": {
        "_hex": "0xde0b6b3a7640000"
      },
      "nonce": 0,
      "data": "0x",
      "r": "0x750ac2bba8d20c1ea60832b2a7b87065ea1b3caae39c666ed6f87333ae8ce441",
      "s": "0x147ff1c3f125f422132460497c91f7a42f359f25c336a1fd5621c2739ad5f68d",
      "v": 27,
      "creates": null,
      "raw": "0xf86c808545d964b80082520894b891f05f7e7e5f3767e96bf020c5b49dbec895c0880de0b6b3a7640000801ba0750ac2bba8d20c1ea60832b2a7b87065ea1b3caae39c666ed6f87333ae8ce441a0147ff1c3f125f422132460497c91f7a42f359f25c336a1fd5621c2739ad5f68d",
      "networkId": 0,
      "chainId": 0
    }
  ]
}