{
  "hash": "0x484121fd10f35540cbc54ebc7e308a5aa9cadf8de092c39821cad4fabab668a7",
  "parentHash": "0xe9023c3341ca6a8b7d3049ff8f5af8865175268dad8987a6184a9eea2e554c83",
  "number": 55294,
  "timestamp": 1439068297,
  "nonce": "0x940323edd8f27528",
  "difficulty": 1640205364006,
  "gasLimit": {
    "_hex": "0x2fefd8"
  },
  "gasUsed": {
    "_hex": "0x1bbfa"
  },
  "miner": "0x93641e54c9aA6F9038FE7Adb03629a1747326Cd6",
  "extraData": "0x476574682f76312e302e312f77696e646f77732f676f312e342e32",
  "transactions": [
    {
      "hash": "0xcae3f5683dee0fe7fe3e6f013da676f1557fd98b6815f76c5ea9a5e5032966eb",
      "blockHash": "0x484121fd10f35540cbc54ebc7e308a5aa9cadf8de092c39821cad4fabab668a7",
      "blockNumber": 55294,
      "transactionIndex": 0,
      "confirmations": null,
      "from": "0x0ae3F81a67725a8A7758FeB8684c6c17dA20755D",
      "gasPrice": {
        "_hex": "0xd4c920630"
      },
      "gasLimit": {
        "_hex": "0x1e8480"
      },
      "to": "0xBAA54d6E90c3F4d7Ebec11bD180134C7eD8eBb52",
      "value": {
        "_hex": "0x16345785d8a0000"
      },
      "nonce": 135,
      "data": "0x",
      "r": "0x23f339bf0cbc6606c65e71152a721f4102188981dba2661036846094ad936471",
      "s": "0x3b284baebeef46c3f6d56eb103f1c3379530c15ce45db378971c7192f9ebc6ad",
      "v": 28,
      "creates": null,
      "raw": "0xf86e8187850d4c920630831e848094baa54d6e90c3f4d7ebec11bd180134c7ed8ebb5288016345785d8a0000801ca023f339bf0cbc6606c65e71152a721f4102188981dba2661036846094ad936471a03b284baebeef46c3f6d56eb103f1c3379530c15ce45db378971c7192f9ebc6ad",
      "networkId": 0,
      "chainId": 0
    },
    {
      "hash": "0x3e3e988ff5352b4d2b6b361399230d4c3ceba5b116eb2669769188dfea63af38",
      "blockHash": "0x484121fd10f35540cbc54ebc7e308a5aa9cadf8de092c39821cad4fabab668a7",
      "blockNumber": 55294,
      "transactionIndex": 1,
      "confirmations": null,
      "from": "0x0ae3F81a67725a8A7758FeB8684c6c17dA20755D",
      "gasPrice": {
        "_hex": "0xd4c920630"
      },
      "gasLimit": {
        "_hex": "0x1e8480"
      },
      "to": "0xBAA54d6E90c3F4d7Ebec11bD180134C7eD8eBb52",
      "value": {
        "_hex": "0x16345785d8a0000"
      },
      "nonce": 136,
      "data": "0x",
      "r": "0x5eb218b7fbef172e0b742330d5c3c458a2e04f79d73a9694e9df23d0d0a58b95",
      "s": "0x07583700090491940df5fe23ed20dacc7dd62db5f345ff1b29fd40eb4583feeb",
      "v": 28,
      "creates": null,
      "raw": "0xf86e8188850d4c920630831e848094baa54d6e90c3f4d7ebec11bd180134c7ed8ebb5288016345785d8a0000801ca05eb218b7fbef172e0b742330d5c3c458a2e04f79d73a9694e9df23d0d0a58b95a007583700090491940df5fe23ed20dacc7dd62db5f345ff1b29fd40eb4583feeb",
      "networkId": 0,
      "chainId": 0
    }
  ]
}