{
  "hash": "0x92ab1c53288b80db5429d45c40f1bae54b1cab1b33093086135c626aa20a619f",
  "parentHash": "0xd27f067153e227cb7f8c6f9fd067549bac85384753d003dd0996d90df319ad3b",
  "number": 68995,
  "timestamp": 1439296875,
  "nonce": "0x38123a4711b706a6",
  "difficulty": 2034954261441,
  "gasLimit": {
    "_hex": "0x2fefd8"
  },
  "gasUsed": {
    "_hex": "0x2e248"
  },
  "miner": "0xe6A7a1d47ff21B6321162AEA7C6CB457D5476Bca",
  "extraData": "0x476574682f76312e302e312d38326566323666362f6c696e75782f676f312e34",
  "transactions": [
    {
      "hash": "0x7d329ba9fb13a4da6d7a328052e959d4f92de080f972d0b5c76fb7d5597b7e86",
      "blockHash": "0x92ab1c53288b80db5429d45c40f1bae54b1cab1b33093086135c626aa20a619f",
      "blockNumber": 68995,
      "transactionIndex": 0,
      "confirmations": null,
      "from": "0x32Be343B94f860124dC4fEe278FDCBD38C102D88",
      "gasPrice": {
        "_hex": "0xcaec323a7"
      },
      "gasLimit": {
        "_hex": "0x5208"
      },
      "to": "0x576e6acE6eBBaC590a6cb166598BFEbA1697BDB8",
      "value": {
        "_hex": "0x21e19bd42c842800000"
      },
      "nonce": 232,
      "data": "0x",
      "r": "0x5b151257d2b2edb75b786b326acb7836bf3d66f77ed4c1dc2126372752c20ef5",
      "s": "0x2695f6f4bc401e653512b6a38590597452c0cde50bdda9c87651b891ee188db7",
      "v": 28,
      "creates": null,
      "raw": "0xf86f81e8850caec323a782520894576e6ace6ebbac590a6cb166598bfeba1697bdb88a021e19bd42c842800000801ca05b151257d2b2edb75b786b326acb7836bf3d66f77ed4c1dc2126372752c20ef5a02695f6f4bc401e653512b6a38590597452c0cde50bdda9c87651b891ee188db7",
      "networkId": 0,
      "chainId": 0
    },
    {
      "hash": "0x489858e9386ebeb17d5d0a6f3afa6f4877f267922678b93f1878fe9ec83f547d",
      "blockHash": "0x92ab1c53288b80db5429d45c40f1bae54b1cab1b33093086135c626aa20a619f",
      "blockNumber": 68995,
      "transactionIndex": 1,
      "confirmations": null,
      "from": "0xb7a6086E070666B297bf77e5471d8Cc838655F7b",
      "gasPrice": {
        "_hex": "0xba43b7400"
      },
      "gasLimit": {
        "_hex": "0x5208"
      },
      "to": "0x6e1af1C9Df9Cd64167834DAa921784305CbE8404",
      "value": {
        "_hex": "0x14c95414f131000"
      },
      "nonce": 1,
      "data": "0x",
      "r": "0xe397bfa216e5aa269436ba66f2e392677c0271a29a790bf7b19b64396558dbd9",
      "s": "0x12457e88dbd2ab171dd5336e46413479ed1a0e283e8f51d6cbfc2b9dd681f1e2",
      "v": 27,
      "creates": null,
      "raw": "0xf86c01850ba43b7400825208946e1af1c9df9cd64167834daa921784305cbe840488014c95414f131000801ba0e397bfa216e5aa269436ba66f2e392677c0271a29a790bf7b19b64396558dbd9a012457e88dbd2ab171dd5336e46413479ed1a0e283e8f51d6cbfc2b9dd681f1e2",
      "networkId": 0,
      "chainId": 0
    },
    {
      "hash": "0xef91f9d4fe613b996ef8b0eb390dac3eaa112d56c405cf97cfca8e1f61ed4da3",
      "blockHash": "0x92ab1c53288b80db5429d45c40f1bae54b1cab1b33093086135c626aa20a619f",
      "blockNumber": 68995,
      "transactionIndex": 2,
      "confirmations": null,
      "from": "0x101F34688b6EcD69Ad153AA441DC0329e5DD645B",
      "gasPrice": {
        "_hex": "0xba43b7400"
      },
      "gasLimit": {
        "_hex": "0x5208"
      },
      "to": "0x38ea2CAf2a4d3560eb559eFb7125Cf90a17Ca97d",
      "value": {
        "_hex": "0x14c95414f131000"
      },
      "nonce": 1,
      "data": "0x",
      "r": "0x51b75fa32d2b49cdffdfa2abd5444ea28a1edfee4431d8634660c8657ab81e01",
      "s": "0x5618f1d77b802fb16fec1d2ba18d1384e5ff03700b34b8c8de5f1035fcbc8271",
      "v": 28,
      "creates": null,
      "raw": "0xf86c01850ba43b74008252089438ea2caf2a4d3560eb559efb7125cf90a17ca97d88014c95414f131000801ca051b75fa32d2b49cdffdfa2abd5444ea28a1edfee4431d8634660c8657ab81e01a05618f1d77b802fb16fec1d2ba18d1384e5ff03700b34b8c8de5f1035fcbc8271",
      "networkId": 0,
      "chainId": 0
    },
    {
      "hash": "0xeab81e8673ed7bb8186cdf030183bb3a36e994778d40112042eb0237ea7c0374",
      "blockHash": "0x92ab1c53288b80db5429d45c40f1bae54b1cab1b33093086135c626aa20a619f",
      "blockNumber": 68995,
      "transactionIndex": 3,
      "confirmations": null,
      "from": "0x4DC64f7E95D75AdF7b3CEe5d21115b57a03765Ab",
      "gasPrice": {
        "_hex": "0xba43b7400"
      },
      "gasLimit": {
        "_hex": "0x5208"
      },
      "to": "0x9068276C49ad810c9a62076cA7C9C2f471202E71",
      "value": {
        "_hex": "0x14c95414f131000"
      },
      "nonce": 1,
      "data": "0x",
      "r": "0x92953a8cb4bfe01f7224f5fdba3b731831c046e6e5d1280b7e345d38fcee4ac6",
      "s": "0x4d25e766ec841f7b522f5cdad76a2b0d2e39c714eeeea28e68de6972289f2e23",
      "v": 27,
      "creates": null,
      "raw": "0xf86c01850ba43b7400825208949068276c49ad810c9a62076ca7c9c2f471202e7188014c95414f131000801ba092953a8cb4bfe01f7224f5fdba3b731831c046e6e5d1280b7e345d38fcee4ac6a04d25e766ec841f7b522f5cdad76a2b0d2e39c714eeeea28e68de6972289f2e23",
      "networkId": 0,
      "chainId": 0
    },
    {
      "hash": "0x3744674795ce229dd21d6b65078946c93d2445e3a9f45d61067184d8921f48c9",
      "blockHash": "0x92ab1c53288b80db5429d45c40f1bae54b1cab1b33093086135c626aa20a619f",
      "blockNumber": 68995,
      "transactionIndex": 4,
      "confirmations": null,
      "from": "0x8960a86e1Beb7F40F4613b41b4b8eF10574cF714",
      "gasPrice": {
        "_hex": "0xba43b7400"
      },
      "gasLimit": {
        "_hex": "0x5208"
      },
      "to": "0x631f3CcA5a96854229Fa3435495fA603b75f08a5",
      "value": {
        "_hex": "0x14c95414f131000"
      },
      "nonce": 1,
      "data": "0x",
      "r": "0x21cbe305ce545d503b1edcc0b26a9c04045e7fc5fc62ae42d02ea18d88b8a215",
      "s": "0x5506b99dc26909091cfab9899be845ad36953295cbc072d9a6231a325d656541",
      "v": 28,
      "creates": null,
      "raw": "0xf86c01850ba43b740082520894631f3cca5a96854229fa3435495fa603b75f08a588014c95414f131000801ca021cbe305ce545d503b1edcc0b26a9c04045e7fc5fc62ae42d02ea18d88b8a215a05506b99dc26909091cfab9899be845ad36953295cbc072d9a6231a325d656541",
      "networkId": 0,
      "chainId": 0
    },
    {
      "hash": "0x8e29e5caa14cdb7fe03bca222a9adc6e8dfdc06ad59b7eab1c3621e1b318aaf4",
      "blockHash": "0x92ab1c53288b80db5429d45c40f1bae54b1cab1b33093086135c626aa20a619f",
      "blockNumber": 68995,
      "transactionIndex": 5,
      "confirmations": null,
      "from": "0xda68c9e72ed550750ed6172E11b2a9D69b8f48fE",
      "gasPrice": {
        "_hex": "0xba43b7400"
      },
      "gasLimit": {
        "_hex": "0x5208"
      },
      "to": "0x39c0FE6212c3E246aed422e3924f9fE3AC414d15",
      "value": {
        "_hex": "0x14c95414f131000"
      },
      "nonce": 1,
      "data": "0x",
      "r": "0x86db8287727dbaf313d0f4ec0c097e090160f7ae88aad08adf9605367fe91b9c",
      "s": "0x46528b75ae74f90f667f8805c7d8525a9fa316733ffec1296ca76d165a44e09d",
      "v": 28,
      "creates": null,
      "raw": "0xf86c01850ba43b74008252089439c0fe6212c3e246aed422e3924f9fe3ac414d1588014c95414f131000801ca086db8287727dbaf313d0f4ec0c097e090160f7ae88aad08adf9605367fe91b9ca046528b75ae74f90f667f8805c7d8525a9fa316733ffec1296ca76d165a44e09d",
      "networkId": 0,
      "chainId": 0
    },
    {
      "hash": "0x4120514c6bfab6c19e7b7d526df5f638aa7c6b0b26875f150f23f2d79a3750b0",
      "blockHash": "0x92ab1c53288b80db5429d45c40f1bae54b1cab1b33093086135c626aa20a619f",
      "blockNumber": 68995,
      "transactionIndex": 6,
      "confirmations": null,
      "from": "0x52C7acB70804318f64F8915A5b5E4b3159650adD",
      "gasPrice": {
        "_hex": "0xba43b7400"
      },
      "gasLimit": {
        "_hex": "0x5208"
      },
      "to": "0xBA7ea202b0C53774bB72A4f196bB07234D194504",
      "value": {
        "_hex": "0x14c95414f131000"
      },
      "nonce": 1,
      "data": "0x",
      "r": "0xa4e73a1ad1a158af404e289a8a47c6504de918230b945c7aa147201d9a2ddec3",
      "s": "0x1b2833b71cbdadf7d64a6ef62ac00f48a9d8775fa3218fd6221879e5f3df40c5",
      "v": 27,
      "creates": null,
      "raw": "0xf86c01850ba43b740082520894ba7ea202b0c53774bb72a4f196bb07234d19450488014c95414f131000801ba0a4e73a1ad1a158af404e289a8a47c6504de918230b945c7aa147201d9a2ddec3a01b2833b71cbdadf7d64a6ef62ac00f48a9d8775fa3218fd6221879e5f3df40c5",
      "networkId": 0,
      "chainId": 0
    },
    {
      "hash": "0x25481a477756a95c74586b73f24857770d91e4b6f5ea214e7e27e57ea2b43714",
      "blockHash": "0x92ab1c53288b80db5429d45c40f1bae54b1cab1b33093086135c626aa20a619f",
      "blockNumber": 68995,
      "transactionIndex": 7,
      "confirmations": null,
      "from": "0x2fB5E8AbdBdE157B5E85FF8E5E75C7fbf566dCC9",
      "gasPrice": {
        "_hex": "0xba43b7400"
      },
      "gasLimit": {
        "_hex": "0x5208"
      },
      "to": "0xE385cfe9d0ef6e4c27b3E527c3E132ABB85171cc",
      "value": {
        "_hex": "0x14c95414f131000"
      },
      "nonce": 1,
      "data": "0x",
      "r": "0x75a7db75d1828d319686bd7023196ed9a73a13e7dd1f9b0bf9ca26e32c40bbfe",
      "s": "0x21c1e0292385227ce26b3d219e42e8bfe5af9009ba7c52ef7504fb6a0f0a068f",
      "v": 28,
      "creates": null,
      "raw": "0xf86c01850ba43b740082520894e385cfe9d0ef6e4c27b3e527c3e132abb85171cc88014c95414f131000801ca075a7db75d1828d319686bd7023196ed9a73a13e7dd1f9b0bf9ca26e32c40bbfea021c1e0292385227ce26b3d219e42e8bfe5af9009ba7c52ef7504fb6a0f0a068f",
      "networkId": 0,
      "chainId": 0
    },
    {
      "hash": "0x0188db894a9457f6027ec589599fad7f935453016e62e5931b369216f64637fa",
      "blockHash": "0x92ab1c53288b80db5429d45c40f1bae54b1cab1b33093086135c626aa20a619f",
      "blockNumber": 68995,
      "transactionIndex": 8,
      "confirmations": null,
      "from": "0x90e0AFbf91774e9104cd1eAd9adF52dB47941473",
      "gasPrice": {
        "_hex": "0xba43b7400"
      },
      "gasLimit": {
        "_hex": "0x5208"
      },
      "to": "0x1F149a609cAaE4C9d311B223331C13389D29Fa81",
      "value": {
        "_hex": "0x14c95414f131000"
      },
      "nonce": 1,
      "data": "0x",
      "r": "0x7487606fa5eee284a7cad8f1e006bd9da7682c67e7234cd8b64e7159399ccbf6",
      "s": "0x1f88b19a6729062628de985716cdf65e05f84bd38e0b341c60cf7565398ee7b5",
      "v": 27,
      "creates": null,
      "raw": "0xf86c01850ba43b7400825208941f149a609caae4c9d311b223331c13389d29fa8188014c95414f131000801ba07487606fa5eee284a7cad8f1e006bd9da7682c67e7234cd8b64e7159399ccbf6a01f88b19a6729062628de985716cdf65e05f84bd38e0b341c60cf7565398ee7b5",
      "networkId": 0,
      "chainId": 0
    }
  ]
}