{
  "hash": "0x820b7b93716f071527bc42101673547790c9c63c7633e02619ca39808dcb27d7",
  "parentHash": "0x6483320fe75bb2babbe0c6cb80d89a7c19ea8bb92b8e1dfb8e3ae01143afdca8",
  "number": 52218,
  "timestamp": 1439018341,
  "nonce": "0xb5bed7be4ee6c973",
  "difficulty": 1548940194692,
  "gasLimit": {
    "_hex": "0x1169ca"
  },
  "gasUsed": {
    "_hex": "0x5208"
  },
  "miner": "0xbb7B8287f3F0a933474a79eAe42CBCa977791171",
  "extraData": "0x476574682f4c5649562f76312e302e312f6c696e75782f676f312e342e32",
  "transactions": [
    {
      "hash": "0x102422b4bb43b26c372be4bb681d4bb050e446bb5fd32fe1d4271df89bf758db",
      "blockHash": "0x820b7b93716f071527bc42101673547790c9c63c7633e02619ca39808dcb27d7",
      "blockNumber": 52218,
      "transactionIndex": 0,
      "confirmations": null,
      "from": "0x2001BEF77b66F51e1599B02Fb110194A0099b78d",
      "gasPrice": {
        "_hex": "0xd69b48315"
      },
      "gasLimit": {
        "_hex": "0x15f90"
      },
      "to": "0x94F429fDA438c622D39c8f98d586679951F63581",
      "value": {
        "_hex": "0xde0b6b3a7640000"
      },
      "nonce": 2,
      "data": "0x",
      "r": "0x50312a3f08489194e54eda7f213090e48e4cf87951cb190534b01c0c7b09f6fd",
      "s": "0x40d0a17d6829fb8a5f763e066bff1d8779637a55341137036227b49e0888969e",
      "v": 27,
      "creates": null,
      "raw": "0xf86d02850d69b4831583015f909494f429fda438c622d39c8f98d586679951f63581880de0b6b3a7640000801ba050312a3f08489194e54eda7f213090e48e4cf87951cb190534b01c0c7b09f6fda040d0a17d6829fb8a5f763e066bff1d8779637a55341137036227b49e0888969e",
      "networkId": 0,
      "chainId": 0
    }
  ]
}