{
  "hash": "0xcb0c793662e20601249c0f0091694ca44b1e336fc01a1f25cebb8e8887dd9056",
  "parentHash": "0x7d313ccf361d087b287293a18c0002b23e558291fd0e54ab3d6115d93a791f82",
  "number": 57207,
  "timestamp": 1439099384,
  "nonce": "0x706d96714f128cef",
  "difficulty": 1731161605723,
  "gasLimit": {
    "_hex": "0x2fe3fc"
  },
  "gasUsed": {
    "_hex": "0x5208"
  },
  "miner": "0x70C6b45fe0A5116E97B112B806A76E2F51E24413",
  "extraData": "0x476574682f76312e302e302f77696e646f77732f676f312e342e32",
  "transactions": [
    {
      "hash": "0x9c05c31d6075a1da2688de998f2eaff3a71dd0c649ff9b8eb75b95cbdd475a60",
      "blockHash": "0xcb0c793662e20601249c0f0091694ca44b1e336fc01a1f25cebb8e8887dd9056",
      "blockNumber": 57207,
      "transactionIndex": 0,
      "confirmations": null,
      "from": "0x3e24D2A72282bE2807BB9e0B9e6D75ed7776e4fb",
      "gasPrice": {
        "_hex": "0x746a528800"
      },
      "gasLimit": {
        "_hex": "0x5266"
      },
      "to": "0x5a9bC4FDfE098D03128afDCCa4Ff1Ae24fEc72bC",
      "value": {
        "_hex": "0x34da82925b1340000"
      },
      "nonce": 3,
      "data": "0x",
      "r": "0xad05d3d0f16eebcd395ff13f042348396abcf4019949600da5dd6cc9aade1c0b",
      "s": "0xb41a5c9b85c62523d3d83a937ba66f931a451e530343e9fbf34aec0a7d9669ce",
      "v": 27,
      "creates": null,
      "raw": "0xf86d0385746a528800825266945a9bc4fdfe098d03128afdcca4ff1ae24fec72bc89034da82925b1340000801ba0ad05d3d0f16eebcd395ff13f042348396abcf4019949600da5dd6cc9aade1c0ba0b41a5c9b85c62523d3d83a937ba66f931a451e530343e9fbf34aec0a7d9669ce",
      "networkId": 0,
      "chainId": 0
    }
  ]
}