{
  "hash": "0x92b841023fc2d8ab87b16f5e5552de7e3e042d0d13e0c8a1be8b4cbce8944363",
  "parentHash": "0x7e2e5e5e26e3358a1906d9814e23940659adb2e3fac1b5ea49c68ff7d0bc710d",
  "number": 100166,
  "timestamp": 1439801908,
  "nonce": "0x1b72949249d02666",
  "difficulty": 3834214351508,
  "gasLimit": {
    "_hex": "0x2fefd8"
  },
  "gasUsed": {
    "_hex": "0x5208"
  },
  "miner": "0xE87470b43FA5904a32866396B2f798D898c13978",
  "extraData": "0x",
  "transactions": [
    {
      "hash": "0x8c7c286795af5a9d9d17dbc27d0bcb1c99330186c56c4a55deae2f488e96c831",
      "blockHash": "0x92b841023fc2d8ab87b16f5e5552de7e3e042d0d13e0c8a1be8b4cbce8944363",
      "blockNumber": 100166,
      "transactionIndex": 0,
      "confirmations": null,
      "from": "0xaA35779Ef4dfBEd0B3D6F46F5f11cb86261B17A5",
      "gasPrice": {
        "_hex": "0xd7d40ace3"
      },
      "gasLimit": {
        "_hex": "0x61a8"
      },
      "to": "0x30beD8049947963394D93412326225E4e3123601",
      "value": {
        "_hex": "0x7b8326d884fa0000"
      },
      "nonce": 12,
      "data": "0x",
      "r": "0xc29661133c03ca6d70a1bc8354f54eb904a301da3ff622e755e71b29c95b51f4",
      "s": "0x4273b8a7ad590457df1e66e0537a8792a5aab7372ba33d1b45f37910cb876bf8",
      "v": 28,
      "creates": null,
      "raw": "0xf86c0c850d7d40ace38261a89430bed8049947963394d93412326225e4e3123601887b8326d884fa0000801ca0c29661133c03ca6d70a1bc8354f54eb904a301da3ff622e755e71b29c95b51f4a04273b8a7ad590457df1e66e0537a8792a5aab7372ba33d1b45f37910cb876bf8",
      "networkId": 0,
      "chainId": 0
    }
  ]
}