{
  "hash": "0xda711c92d34433d80968bbf473c5db33e9b81203515508677d923c02acf72d46",
  "parentHash": "0x796876727dadba5f7339389ecafcbce4c2f62dc12d9b099e27c4ec2e3551d30b",
  "number": 100270,
  "timestamp": 1439803731,
  "nonce": "0xa837f72facc47179",
  "difficulty": 3830424339958,
  "gasLimit": {
    "_hex": "0x2fefd8"
  },
  "gasUsed": {
    "_hex": "0x5208"
  },
  "miner": "0xe6A7a1d47ff21B6321162AEA7C6CB457D5476Bca",
  "extraData": "0x476574682f76312e302e312d38326566323666362f6c696e75782f676f312e34",
  "transactions": [
    {
      "hash": "0xe48e785ecd9ee65a2e1aee00adf23bd519a2c8674bb21bf93a81baffa7551a08",
      "blockHash": "0xda711c92d34433d80968bbf473c5db33e9b81203515508677d923c02acf72d46",
      "blockNumber": 100270,
      "transactionIndex": 0,
      "confirmations": null,
      "from": "0x65B2003cE03eDcF961C6b724862D6a7f942B8971",
      "gasPrice": {
        "_hex": "0xd60340b78"
      },
      "gasLimit": {
        "_hex": "0x15f90"
      },
      "to": "0xEe2e3665531f220d70d01CCaBb559537a2663174",
      "value": {
        "_hex": "0x2b5e3af16b1880000"
      },
      "nonce": 3,
      "data": "0x",
      "r": "0x49322c6efe409063cd7f5360e2ea3fd71ca29c64e75445ce603f827b90e351fc",
      "s": "0x61b97debfd0353a2790c3c27c9cca9a3869f0477677acd2976c2781191a7f3a8",
      "v": 28,
      "creates": null,
      "raw": "0xf86e03850d60340b7883015f9094ee2e3665531f220d70d01ccabb559537a26631748902b5e3af16b1880000801ca049322c6efe409063cd7f5360e2ea3fd71ca29c64e75445ce603f827b90e351fca061b97debfd0353a2790c3c27c9cca9a3869f0477677acd2976c2781191a7f3a8",
      "networkId": 0,
      "chainId": 0
    }
  ]
}