{
  "hash": "0x73c8fb5efe3750d59d0294935a97558a5078e302cd29d775612dbce4113107cd",
  "parentHash": "0xc042f2d1daed9e78f6ebbdaa18a4ce75ffd3bac38a5daa570f0d710c5b305c24",
  "number": 105796,
  "timestamp": 1439893519,
  "nonce": "0x294c76d6de8f3612",
  "difficulty": 4436109658630,
  "gasLimit": {
    "_hex": "0x2fefd8"
  },
  "gasUsed": {
    "_hex": "0x5208"
  },
  "miner": "0x5F8F73E26CdF436f19Cb24C82F90A15AFe55b592",
  "extraData": "0x476574682f76312e302e312f77696e646f77732f676f312e342e32",
  "transactions": [
    {
      "hash": "0xfa5b4c454293a693324579f119c8362152c42fc80175ae8c0f9e8b6020fa53d3",
      "blockHash": "0x73c8fb5efe3750d59d0294935a97558a5078e302cd29d775612dbce4113107cd",
      "blockNumber": 105796,
      "transactionIndex": 0,
      "confirmations": null,
      "from": "0x67a8Acb3621e0683EC4eeb0be82BE8cf344d97c6",
      "gasPrice": {
        "_hex": "0xba43b7400"
      },
      "gasLimit": {
        "_hex": "0x5208"
      },
      "to": "0xC47Aaa860008be6f65B58c6C6E02a84e666EfE31",
      "value": {
        "_hex": "0x8ac3680c5ce46000"
      },
      "nonce": 2,
      "data": "0x",
      "r": "0x549c3018cb01920195c7471f8685adb1f9f7619888f377eeef895ed7a629b051",
      "s": "0x163b201a958043de7ef9ee8a3064d7103238ad879ede051b2572a7c13330968d",
      "v": 28,
      "creates": null,
      "raw": "0xf86c02850ba43b740082520894c47aaa860008be6f65b58c6c6e02a84e666efe31888ac3680c5ce46000801ca0549c3018cb01920195c7471f8685adb1f9f7619888f377eeef895ed7a629b051a0163b201a958043de7ef9ee8a3064d7103238ad879ede051b2572a7c13330968d",
      "networkId": 0,
      "chainId": 0
    }
  ]
}