{
  "hash": "0x1e68269051f2a34c555c2b5fcb5ebb9bd9968a3ba9f0fa8cac704d56027cf017",
  "parentHash": "0x34884ec4e9e98f1e7fdd45a5754d8c2d58cd83195d6785ba5528520f93ef4146",
  "number": 91566,
  "timestamp": 1439657802,
  "nonce": "0x9f29dcef873fdcb3",
  "difficulty": 3487853899489,
  "gasLimit": {
    "_hex": "0x2fefd8"
  },
  "gasUsed": {
    "_hex": "0xa410"
  },
  "miner": "0xe6A7a1d47ff21B6321162AEA7C6CB457D5476Bca",
  "extraData": "0x476574682f76312e302e312d38326566323666362f6c696e75782f676f312e34",
  "transactions": [
    {
      "hash": "0x1dee6bf9a2422bc16005045ff224e99f9f7bb7738180341a6c840256db799aa1",
      "blockHash": "0x1e68269051f2a34c555c2b5fcb5ebb9bd9968a3ba9f0fa8cac704d56027cf017",
      "blockNumber": 91566,
      "transactionIndex": 0,
      "confirmations": null,
      "from": "0xFc69e7491Be7a42bA934102080463540f8334Be0",
      "gasPrice": {
        "_hex": "0xdd82156ad"
      },
      "gasLimit": {
        "_hex": "0x5208"
      },
      "to": "0x32Be343B94f860124dC4fEe278FDCBD38C102D88",
      "value": {
        "_hex": "0x3d94aaea9d01f0000"
      },
      "nonce": 0,
      "data": "0x",
      "r": "0xebacb129131c99f77dd02e1bcedae6c921d8805e068eb8b056c46a4e4de06ebd",
      "s": "0x4b3c9a16169f2d19615efbfb6dec6bb26645f14423d4f699b9813eb1b41889f5",
      "v": 28,
      "creates": null,
      "raw": "0xf86d80850dd82156ad8252089432be343b94f860124dc4fee278fdcbd38c102d888903d94aaea9d01f0000801ca0ebacb129131c99f77dd02e1bcedae6c921d8805e068eb8b056c46a4e4de06ebda04b3c9a16169f2d19615efbfb6dec6bb26645f14423d4f699b9813eb1b41889f5",
      "networkId": 0,
      "chainId": 0
    },
    {
      "hash": "0xc525399cbae48c455b731ed351a2300c28ba40e0b80ddbf74bdab0d751276e4b",
      "blockHash": "0x1e68269051f2a34c555c2b5fcb5ebb9bd9968a3ba9f0fa8cac704d56027cf017",
      "blockNumber": 91566,
      "transactionIndex": 1,
      "confirmations": null,
      "from": "0x32Be343B94f860124dC4fEe278FDCBD38C102D88",
      "gasPrice": {
        "_hex": "0xdd82156ad"
      },
      "gasLimit": {
        "_hex": "0x5208"
      },
      "to": "0x29062F7438d8fa6ac773F453E356A34542b6f2AF",
      "value": {
        "_hex": "0xd8d4ee47f07e70000"
      },
      "nonce": 876,
      "data": "0x",
      "r": "0xf121b98fe422a09f06447d98486431534f21f4d38d908db70d982ce90c0189b2",
      "s": "0x349be136028a08aa44404b65409cafc1b04ccfba467fa363d3a9a67c11d8887d",
      "v": 28,
      "creates": null,
      "raw": "0xf86f82036c850dd82156ad8252089429062f7438d8fa6ac773f453e356a34542b6f2af890d8d4ee47f07e70000801ca0f121b98fe422a09f06447d98486431534f21f4d38d908db70d982ce90c0189b2a0349be136028a08aa44404b65409cafc1b04ccfba467fa363d3a9a67c11d8887d",
      "networkId": 0,
      "chainId": 0
    }
  ]
}