{
  "hash": "0x5f9a3fdc5eff4b702f058ef2a690903272a9740c07c5ec5f038864607746955a",
  "parentHash": "0xb6f1ed159a6a1e2a043b2fdb8375b07b253bdcdd69530fe6542bbd515bc3d523",
  "number": 119433,
  "timestamp": 1440142914,
  "nonce": "0xe1abdfb77e6a10b5",
  "difficulty": 4379443503994,
  "gasLimit": {
    "_hex": "0x2fefd8"
  },
  "gasUsed": {
    "_hex": "0x5208"
  },
  "miner": "0x52bc44d5378309EE2abF1539BF71dE1b7d7bE3b5",
  "extraData": "0xd783010002844765746887676f312e342e32856c696e7578",
  "transactions": [
    {
      "hash": "0x0dff4dd6f5d2943b1c4d61bae09ed5ad7f4cd23891d75d74acd6b3cb128c1497",
      "blockHash": "0x5f9a3fdc5eff4b702f058ef2a690903272a9740c07c5ec5f038864607746955a",
      "blockNumber": 119433,
      "transactionIndex": 0,
      "confirmations": null,
      "from": "0x04a2a3ee9C9ea82e1F918ecE209f8A7E6d7521E7",
      "gasPrice": {
        "_hex": "0xba43b7400"
      },
      "gasLimit": {
        "_hex": "0x5208"
      },
      "to": "0x32Be343B94f860124dC4fEe278FDCBD38C102D88",
      "value": {
        "_hex": "0x4be1b18eeb8f4400"
      },
      "nonce": 21,
      "data": "0x",
      "r": "0x32084216d6584636bd5cbcc9c595511dcb69c7eeba83b45c050a65f73f0aa35b",
      "s": "0x6538fa60169d1316978179f791c350dbc61f97a06ab594d3d98d8c208e79bb1f",
      "v": 27,
      "creates": null,
      "raw": "0xf86c15850ba43b74008252089432be343b94f860124dc4fee278fdcbd38c102d88884be1b18eeb8f4400801ba032084216d6584636bd5cbcc9c595511dcb69c7eeba83b45c050a65f73f0aa35ba06538fa60169d1316978179f791c350dbc61f97a06ab594d3d98d8c208e79bb1f",
      "networkId": 0,
      "chainId": 0
    }
  ]
}