{
  "hash": "0xd6ef382b4573c610a0f59f63c2d1e00610599d2ce31197c1770702ac8ef671c3",
  "parentHash": "0xef8537752a77e3f7d17e132d524b602ac5acbf024aaf53f190266f836ba5a560",
  "number": 90148,
  "timestamp": 1439635369,
  "nonce": "0x78b7fd575209fcb8",
  "difficulty": 3309249009092,
  "gasLimit": {
    "_hex": "0x2fefd8"
  },
  "gasUsed": {
    "_hex": "0x5208"
  },
  "miner": "0xe6A7a1d47ff21B6321162AEA7C6CB457D5476Bca",
  "extraData": "0x476574682f76312e302e312d38326566323666362f6c696e75782f676f312e34",
  "transactions": [
    {
      "hash": "0x2012668958bd62189628a6fe504d8dd89ebbe5fdd5d02205aec9af055c639ae0",
      "blockHash": "0xd6ef382b4573c610a0f59f63c2d1e00610599d2ce31197c1770702ac8ef671c3",
      "blockNumber": 90148,
      "transactionIndex": 0,
      "confirmations": null,
      "from": "0x9dD46b1C6D3F05e29E9c6f037eED9a595Af4A9aa",
      "gasPrice": {
        "_hex": "0x115f77b4775"
      },
      "gasLimit": {
        "_hex": "0x59d8"
      },
      "to": "0xF3786E61962AB4fBD64819cCf11A8Bb563f9EC47",
      "value": {
        "_hex": "0x56bc75e2d63100000"
      },
      "nonce": 1,
      "data": "0x",
      "r": "0xc900389fb9f0e1cb416044d8a48caeadfbbd3c5d8995e7e7aeb851b1c24c3201",
      "s": "0x32e0eb01749108dfbbf78cf207adf336e460a2eaaec77c762c9a676bc69fa694",
      "v": 28,
      "creates": null,
      "raw": "0xf86e01860115f77b47758259d894f3786e61962ab4fbd64819ccf11a8bb563f9ec4789056bc75e2d63100000801ca0c900389fb9f0e1cb416044d8a48caeadfbbd3c5d8995e7e7aeb851b1c24c3201a032e0eb01749108dfbbf78cf207adf336e460a2eaaec77c762c9a676bc69fa694",
      "networkId": 0,
      "chainId": 0
    }
  ]
}