{
  "hash": "0x21556381f6a3dd924c27214c49ae201ab540dfa09e79eb80b2bf7e1a217ff776",
  "parentHash": "0xca727b562374c670232b8e01c78d8065f9c6aa3771bc3b72d919350a91e3d9c0",
  "number": 51990,
  "timestamp": 1439014294,
  "nonce": "0xedd3e8f68bc01007",
  "difficulty": 1561131114696,
  "gasLimit": {
    "_hex": "0xf8664"
  },
  "gasUsed": {
    "_hex": "0x5208"
  },
  "miner": "0xf8E0CA3Ed80bd541b94BEdCf259e8CF2141A9523",
  "extraData": "0x476574682f76312e302e312f77696e646f77732f676f312e342e32",
  "transactions": [
    {
      "hash": "0x1d7709023bef6a5ad0b33b130a286a1880d046e4559950fabb13d9993730ce1d",
      "blockHash": "0x21556381f6a3dd924c27214c49ae201ab540dfa09e79eb80b2bf7e1a217ff776",
      "blockNumber": 51990,
      "transactionIndex": 0,
      "confirmations": null,
      "from": "0xAE239ACffD4EbE2E1BA5b4170572DC79CC6533Ec",
      "gasPrice": {
        "_hex": "0x1176e029f32"
      },
      "gasLimit": {
        "_hex": "0x15f90"
      },
      "to": "0x60D9C8bDDD1014deb66B2AC1F7f703dFD3c2D204",
      "value": {
        "_hex": "0xb1a2bc2ec500000"
      },
      "nonce": 1,
      "data": "0x",
      "r": "0xccc23b9a6fe1bd8947ea8137e6e12d16a7e4e37eaf6d1a94f87e3608e6b11426",
      "s": "0x015224bbcfae7066bb02c00eca070693ab9a4a5d9928118a97906da4297330b1",
      "v": 27,
      "creates": null,
      "raw": "0xf86e018601176e029f3283015f909460d9c8bddd1014deb66b2ac1f7f703dfd3c2d204880b1a2bc2ec500000801ba0ccc23b9a6fe1bd8947ea8137e6e12d16a7e4e37eaf6d1a94f87e3608e6b11426a0015224bbcfae7066bb02c00eca070693ab9a4a5d9928118a97906da4297330b1",
      "networkId": 0,
      "chainId": 0
    }
  ]
}