{
  "hash": "0xb65b24b4990cdd530ededc07415fbf4f63e3180d2dff4c2f0d17c732fad6ee7f",
  "parentHash": "0x878da6ce1e5f4c0b5730dc5ef232d42e3492c39c81564751cb44d974ba8e0c38",
  "number": 103858,
  "timestamp": 1439860017,
  "nonce": "0xa3e8af1fc9090071",
  "difficulty": 4250514623832,
  "gasLimit": {
    "_hex": "0x2fefd8"
  },
  "gasUsed": {
    "_hex": "0x5208"
  },
  "miner": "0xe6A7a1d47ff21B6321162AEA7C6CB457D5476Bca",
  "extraData": "0x476574682f76312e302e312d38326566323666362f6c696e75782f676f312e34",
  "transactions": [
    {
      "hash": "0x6ba1678f38be623ab2d3c27a114e6e866104263ec27064587953e9b4736863df",
      "blockHash": "0xb65b24b4990cdd530ededc07415fbf4f63e3180d2dff4c2f0d17c732fad6ee7f",
      "blockNumber": 103858,
      "transactionIndex": 0,
      "confirmations": null,
      "from": "0x007f7f58D3eb5b7510A301eCC749FC1fCDDBE14D",
      "gasPrice": {
        "_hex": "0xe0cfe7246"
      },
      "gasLimit": {
        "_hex": "0x15f90"
      },
      "to": "0xb1abce2918E21ddb93AA452731a12672A3d9F75a",
      "value": {
        "_hex": "0x4563918244f40000"
      },
      "nonce": 234,
      "data": "0x",
      "r": "0xf0b70822d778cdeed654416bcfb7817419ef9c538045b479b8085327b12bcfe2",
      "s": "0x07ebe5d64177fea2c1c5cb2b59d1a98aed6c2806cf77c23567c688abb3bbc2da",
      "v": 28,
      "creates": null,
      "raw": "0xf86e81ea850e0cfe724683015f9094b1abce2918e21ddb93aa452731a12672a3d9f75a884563918244f40000801ca0f0b70822d778cdeed654416bcfb7817419ef9c538045b479b8085327b12bcfe2a007ebe5d64177fea2c1c5cb2b59d1a98aed6c2806cf77c23567c688abb3bbc2da",
      "networkId": 0,
      "chainId": 0
    }
  ]
}