{
  "hash": "0x98a675ec95f598811d90fedfcc7e25d428d5c768ecc61fcaef29e4c95413355a",
  "parentHash": "0x55ac56437be55001774f151e97393a7fdf81053fc223468dc3dbcca97cf3c1d1",
  "number": 58703,
  "timestamp": 1439125177,
  "nonce": "0x9fce5ab472ec1968",
  "difficulty": 1714032306672,
  "gasLimit": {
    "_hex": "0x2fefd8"
  },
  "gasUsed": {
    "_hex": "0x5208"
  },
  "miner": "0xdd2F1e6e498202e86D8f5442Af596580A4f03c2C",
  "extraData": "0x476574682f76312e302e312d38326566323666362f6c696e75782f676f312e34",
  "transactions": [
    {
      "hash": "0xb8ea1083cc3d5939f4bc6969e65b0c46c19be2ee1cacb49c84838222584f7301",
      "blockHash": "0x98a675ec95f598811d90fedfcc7e25d428d5c768ecc61fcaef29e4c95413355a",
      "blockNumber": 58703,
      "transactionIndex": 0,
      "confirmations": null,
      "from": "0xa8E7201ff619fAFFc332E6aD37Ed41e301bf014a",
      "gasPrice": {
        "_hex": "0xd69b48315"
      },
      "gasLimit": {
        "_hex": "0x15f90"
      },
      "to": "0x00C865a16eD3c930DD70B642507639D199C62180",
      "value": {
        "_hex": "0xde0b6b3a7640000"
      },
      "nonce": 0,
      "data": "0x",
      "r": "0x1f0c5a23cd1aee97fee16097536c795ae7cd10fd7bb6c1c590be0f32f940b66f",
      "s": "0x70cc30451ac3f3856f726c97dd7bf397208440b4dd171dbc6c7af960524dcb0c",
      "v": 28,
      "creates": null,
      "raw": "0xf86d80850d69b4831583015f909400c865a16ed3c930dd70b642507639d199c62180880de0b6b3a7640000801ca01f0c5a23cd1aee97fee16097536c795ae7cd10fd7bb6c1c590be0f32f940b66fa070cc30451ac3f3856f726c97dd7bf397208440b4dd171dbc6c7af960524dcb0c",
      "networkId": 0,
      "chainId": 0
    }
  ]
}