{
  "hash": "0x0f7b764dbb88befa591fc91585c86684c34c29a68a747cb3edadbb400913a003",
  "parentHash": "0x6954d8af5168ee0a6e18f63d5faa3f72087a6b4dd1fca5ab9e31d364f3283030",
  "number": 84276,
  "timestamp": 1439547422,
  "nonce": "0x1447842082709978",
  "difficulty": 2529167011025,
  "gasLimit": {
    "_hex": "0x2fefd8"
  },
  "gasUsed": {
    "_hex": "0xf618"
  },
  "miner": "0xe6A7a1d47ff21B6321162AEA7C6CB457D5476Bca",
  "extraData": "0x476574682f76312e302e312d38326566323666362f6c696e75782f676f312e34",
  "transactions": [
    {
      "hash": "0x66701f44986ff75a490e902fab5be51328a93d0747a3a0463c667f7985917c22",
      "blockHash": "0x0f7b764dbb88befa591fc91585c86684c34c29a68a747cb3edadbb400913a003",
      "blockNumber": 84276,
      "transactionIndex": 0,
      "confirmations": null,
      "from": "0xe6A7a1d47ff21B6321162AEA7C6CB457D5476Bca",
      "gasPrice": {
        "_hex": "0xddca11405"
      },
      "gasLimit": {
        "_hex": "0x55f0"
      },
      "to": "0x46e97208BC7F618816Cb502A2b516fb4BC41f1D3",
      "value": {
        "_hex": "0x4304b9a56a4a8b78"
      },
      "nonce": 1674,
      "data": "0x",
      "r": "0xcc56d10e108b321bc900c9ceba7427591bc42048a509015b02c62fd822e3c2a6",
      "s": "0x7cd25803f8d7452b5d8376a79751a24ba01ac71e16f41378e6d81ac098bb16b4",
      "v": 27,
      "creates": null,
      "raw": "0xf86e82068a850ddca114058255f09446e97208bc7f618816cb502a2b516fb4bc41f1d3884304b9a56a4a8b78801ba0cc56d10e108b321bc900c9ceba7427591bc42048a509015b02c62fd822e3c2a6a07cd25803f8d7452b5d8376a79751a24ba01ac71e16f41378e6d81ac098bb16b4",
      "networkId": 0,
      "chainId": 0
    },
    {
      "hash": "0xa203c5fd23f37a6d864872778588045a29a5bb9a1d7e79c557e14e2304f960b9",
      "blockHash": "0x0f7b764dbb88befa591fc91585c86684c34c29a68a747cb3edadbb400913a003",
      "blockNumber": 84276,
      "transactionIndex": 1,
      "confirmations": null,
      "from": "0xe6A7a1d47ff21B6321162AEA7C6CB457D5476Bca",
      "gasPrice": {
        "_hex": "0xddca11405"
      },
      "gasLimit": {
        "_hex": "0x55f0"
      },
      "to": "0xBf2E71Ec98f4FAbfFC80EAc8f941ce73d5e02E9b",
      "value": {
        "_hex": "0x439514d08352c420"
      },
      "nonce": 1675,
      "data": "0x",
      "r": "0xaa93983c77735edc16f85f53bd9d9614b0ee78ac8b3cac448b65171dece28c87",
      "s": "0x41e2e553fde8afe7e6ac247ddf256fd5e0e073bc94f5cca73e76ab5c46c88fd9",
      "v": 28,
      "creates": null,
      "raw": "0xf86e82068b850ddca114058255f094bf2e71ec98f4fabffc80eac8f941ce73d5e02e9b88439514d08352c420801ca0aa93983c77735edc16f85f53bd9d9614b0ee78ac8b3cac448b65171dece28c87a041e2e553fde8afe7e6ac247ddf256fd5e0e073bc94f5cca73e76ab5c46c88fd9",
      "networkId": 0,
      "chainId": 0
    },
    {
      "hash": "0x3e192dcdc7f952f2099babd4c92e58d2d279cb9cdecc3d0bb7cc578717c3adc8",
      "blockHash": "0x0f7b764dbb88befa591fc91585c86684c34c29a68a747cb3edadbb400913a003",
      "blockNumber": 84276,
      "transactionIndex": 2,
      "confirmations": null,
      "from": "0xe6A7a1d47ff21B6321162AEA7C6CB457D5476Bca",
      "gasPrice": {
        "_hex": "0xddca11405"
      },
      "gasLimit": {
        "_hex": "0x55f0"
      },
      "to": "0x0A319A7e0C887F104359e1eEe6717BD8f232d3Da",
      "value": {
        "_hex": "0x43e43484bb178710"
      },
      "nonce": 1676,
      "data": "0x",
      "r": "0x22d0cbd1cbbad19e3b5d10d533ae5f7db1cae8980d7a59085c4a893fa16a3e74",
      "s": "0x00089b8ae85b9323c26e2c4e829acd46e66984bb033b7c5575b4b09845e2e1e3",
      "v": 27,
      "creates": null,
      "raw": "0xf86d82068c850ddca114058255f0940a319a7e0c887f104359e1eee6717bd8f232d3da8843e43484bb178710801ba022d0cbd1cbbad19e3b5d10d533ae5f7db1cae8980d7a59085c4a893fa16a3e749f089b8ae85b9323c26e2c4e829acd46e66984bb033b7c5575b4b09845e2e1e3",
      "networkId": 0,
      "chainId": 0
    }
  ]
}