{
  "hash": "0xfb84e8a375ac1ee4c2a84a5aeafb2cee6a60217dd65238fcc0f5874aabd7f0e0",
  "parentHash": "0x704b4d698db06032d09043d12f581248589d6ba1b7b56170328ac261cea282ec",
  "number": 122115,
  "timestamp": 1440188426,
  "nonce": "0xeed650684c3e8c92",
  "difficulty": 4473120751759,
  "gasLimit": {
    "_hex": "0x2fefd8"
  },
  "gasUsed": {
    "_hex": "0x5208"
  },
  "miner": "0x7E6930B63D03e88F5928C5cd6ee3FCee4D714F7F",
  "extraData": "0xd783010003844765746887676f312e342e32856c696e7578",
  "transactions": [
    {
      "hash": "0x2c1f8501ac54404e4bcde8887d51f976f7cce5fb1932c4223ab653bab2ca0010",
      "blockHash": "0xfb84e8a375ac1ee4c2a84a5aeafb2cee6a60217dd65238fcc0f5874aabd7f0e0",
      "blockNumber": 122115,
      "transactionIndex": 0,
      "confirmations": null,
      "from": "0xcA8f4Fb1A28593337AeE456Acc76ABD4C3c83257",
      "gasPrice": {
        "_hex": "0xba43b7400"
      },
      "gasLimit": {
        "_hex": "0x5208"
      },
      "to": "0xf357482c5A92C7B2Cee6a157034362b7d7d88c5A",
      "value": {
        "_hex": "0x6f05b59d3b20000"
      },
      "nonce": 6,
      "data": "0x",
      "r": "0xcfdc3ac36531e4d3f5a6a3b752634bbc3d64ed0adb3b8259f9ad650a14511fc0",
      "s": "0x9fd51889cf628d5a589aed7f194de849b06a97d3890884eca2dfb423081566a4",
      "v": 27,
      "creates": null,
      "raw": "0xf86c06850ba43b740082520894f357482c5a92c7b2cee6a157034362b7d7d88c5a8806f05b59d3b20000801ba0cfdc3ac36531e4d3f5a6a3b752634bbc3d64ed0adb3b8259f9ad650a14511fc0a09fd51889cf628d5a589aed7f194de849b06a97d3890884eca2dfb423081566a4",
      "networkId": 0,
      "chainId": 0
    }
  ]
}