{
  "hash": "0xd094514d5dd1c3799e2e0d1d909005a9a9e69d2242323c9eb8383b310d6a15da",
  "parentHash": "0xdb9844e335d5e0d8ebfa430878f8c6701926969e96592a37482431d6edaef69f",
  "number": 54633,
  "timestamp": 1439057454,
  "nonce": "0xf33b4f80220d8319",
  "difficulty": 1625187036942,
  "gasLimit": {
    "_hex": "0x2fefd8"
  },
  "gasUsed": {
    "_hex": "0x5208"
  },
  "miner": "0xc56e71225f1372c990E6829D53A1Ab76d27301cf",
  "extraData": "0x476574682f76312e302e302f77696e646f77732f676f312e342e32",
  "transactions": [
    {
      "hash": "0xed8b0e8a782e93ac2df5ae5c081b022e3fda7d41f1de8b6e47410786d0f6e95c",
      "blockHash": "0xd094514d5dd1c3799e2e0d1d909005a9a9e69d2242323c9eb8383b310d6a15da",
      "blockNumber": 54633,
      "transactionIndex": 0,
      "confirmations": null,
      "from": "0x02E852cB5c68F09CE16EFa450e5e22e727683e90",
      "gasPrice": {
        "_hex": "0xd5c987100"
      },
      "gasLimit": {
        "_hex": "0x15f90"
      },
      "to": "0x7a137d87f0a48899c3A6ae528A474bE90f7686B2",
      "value": {
        "_hex": "0x14542ba12a337c00000"
      },
      "nonce": 1,
      "data": "0x",
      "r": "0x5a01865cfb2057996280945978ad42679044377395fd1887c055c102701099e2",
      "s": "0x58b7b0d38625b51ae7daefd566c88379c93e593b58c926b27e1996ea0eb10f47",
      "v": 27,
      "creates": null,
      "raw": "0xf86f01850d5c98710083015f90947a137d87f0a48899c3a6ae528a474be90f7686b28a014542ba12a337c00000801ba05a01865cfb2057996280945978ad42679044377395fd1887c055c102701099e2a058b7b0d38625b51ae7daefd566c88379c93e593b58c926b27e1996ea0eb10f47",
      "networkId": 0,
      "chainId": 0
    }
  ]
}