{
  "hash": "0xd508fbf0ba37b300d1296b9c1488d9fc012d5eb645abeaf6df1b41c5941fbdc9",
  "parentHash": "0xa39b89d49f49496e0eb145afbb460109f7ff39b8c1bd88e80e3b53ca37f877fb",
  "number": 64858,
  "timestamp": 1439227300,
  "nonce": "0xe2db17d1d9720bf7",
  "difficulty": 1907941858718,
  "gasLimit": {
    "_hex": "0x2fefd8"
  },
  "gasUsed": {
    "_hex": "0xbe6c"
  },
  "miner": "0x9D49F602b0fdb924Bd63DDE2Bd0907E4A07c63a7",
  "extraData": "0x476574682f76312e302e312f6c696e75782f676f312e342e32",
  "transactions": [
    {
      "hash": "0xdf8071165a202eda0c6fdaa29589c73e23a5f8eb2f74976c1c0ee8602cb75ccd",
      "blockHash": "0xd508fbf0ba37b300d1296b9c1488d9fc012d5eb645abeaf6df1b41c5941fbdc9",
      "blockNumber": 64858,
      "transactionIndex": 0,
      "confirmations": null,
      "from": "0x6932058445E8A734c070B77E6E312416D2e1B02D",
      "gasPrice": {
        "_hex": "0xba43b7400"
      },
      "gasLimit": {
        "_hex": "0x15f90"
      },
      "to": "0x793AE8C1b1a160BFc07BFB0d04F85eab1A71F4f2",
      "value": {
        "_hex": "0x0"
      },
      "nonce": 0,
      "data": "0x3ba15036",
      "r": "0x28c1cc5eecf14a73d8db211c4c399356fd74ab0dfa8dc36568eaf1475638e59e",
      "s": "0x5a5e326139312911b909244e68ad969e8db24573893aceeae800eaefccaf075d",
      "v": 27,
      "creates": null,
      "raw": "0xf86980850ba43b740083015f9094793ae8c1b1a160bfc07bfb0d04f85eab1a71f4f280843ba150361ba028c1cc5eecf14a73d8db211c4c399356fd74ab0dfa8dc36568eaf1475638e59ea05a5e326139312911b909244e68ad969e8db24573893aceeae800eaefccaf075d",
      "networkId": 0,
      "chainId": 0
    }
  ]
}