{
  "hash": "0x1f5812727aefc1c63555872f320a4f7c86719873f5e8d2450eab85b6bb25c0c5",
  "parentHash": "0x0c0b365a5b8d8db8146edb80df634b99db441fa0e95d417d45ce96df315897d0",
  "number": 65341,
  "timestamp": 1439235308,
  "nonce": "0xa3d6599a40fc7d06",
  "difficulty": 1940716756973,
  "gasLimit": {
    "_hex": "0x2fefd8"
  },
  "gasUsed": {
    "_hex": "0x5208"
  },
  "miner": "0x88D74a59454F6cF3B51ef6b9136AFb6b9D405A88",
  "extraData": "0x476574682f76312e302e312d37666266393930632f6c696e75782f676f312e34",
  "transactions": [
    {
      "hash": "0xf8196f82f440748250ec32108d0a4227c8dce69eb43cddcb307b80e8a8d41655",
      "blockHash": "0x1f5812727aefc1c63555872f320a4f7c86719873f5e8d2450eab85b6bb25c0c5",
      "blockNumber": 65341,
      "transactionIndex": 0,
      "confirmations": null,
      "from": "0xc1284bD10EEdb223aD9fa46e8d2Ad9098B706252",
      "gasPrice": {
        "_hex": "0xba43b7400"
      },
      "gasLimit": {
        "_hex": "0x5208"
      },
      "to": "0x064823C5A099cf6b35fcd0B92983D58a614fd5c5",
      "value": {
        "_hex": "0x8e41ff8b277d000"
      },
      "nonce": 1,
      "data": "0x",
      "r": "0x7e127a8b29bc6d9d388c1a1f1383e731b6874f2bd0836ee4954267f5c3fe36d2",
      "s": "0x2b8c0f13e0f5c8dc39bd4eae1dcd482c8386e9c897a1bed2f260f6d30be3d830",
      "v": 27,
      "creates": null,
      "raw": "0xf86c01850ba43b740082520894064823c5a099cf6b35fcd0b92983d58a614fd5c58808e41ff8b277d000801ba07e127a8b29bc6d9d388c1a1f1383e731b6874f2bd0836ee4954267f5c3fe36d2a02b8c0f13e0f5c8dc39bd4eae1dcd482c8386e9c897a1bed2f260f6d30be3d830",
      "networkId": 0,
      "chainId": 0
    }
  ]
}