{
  "hash": "0xd3d54bfbbcaedc9ce223fca2bdb693fbfa274f424432c9ea70dc06fa8f445b99",
  "parentHash": "0x8041e349a6dde401f2a32f9d9353bc673bd60ff7cbe82726a7f87a19bbb19280",
  "number": 119827,
  "timestamp": 1440149367,
  "nonce": "0xd9e5e28bfb470ef8",
  "difficulty": 4404972733339,
  "gasLimit": {
    "_hex": "0x2fefd8"
  },
  "gasUsed": {
    "_hex": "0xf618"
  },
  "miner": "0xEF247E639d49461D25F57e9362CadE3120910Ce0",
  "extraData": "0x476574682f76312e302e322f6c696e75782f676f312e342e32",
  "transactions": [
    {
      "hash": "0x786b98fc943a582c2106b905de140944813ae892bc99fef376bd4f3eb2f896f0",
      "blockHash": "0xd3d54bfbbcaedc9ce223fca2bdb693fbfa274f424432c9ea70dc06fa8f445b99",
      "blockNumber": 119827,
      "transactionIndex": 0,
      "confirmations": null,
      "from": "0xb1abce2918E21ddb93AA452731a12672A3d9F75a",
      "gasPrice": {
        "_hex": "0xba43b7400"
      },
      "gasLimit": {
        "_hex": "0x5208"
      },
      "to": "0x32Be343B94f860124dC4fEe278FDCBD38C102D88",
      "value": {
        "_hex": "0x8ac3680c5ce46000"
      },
      "nonce": 201,
      "data": "0x",
      "r": "0xb999f427cb9abdc87931c5b1b99659f2f54a730dc017ec5133c1b97c9c3d98dc",
      "s": "0x46080d9a9ab55ebb6f805610df005e58ce56158ecf3499ff2d1cba99efa39984",
      "v": 28,
      "creates": null,
      "raw": "0xf86d81c9850ba43b74008252089432be343b94f860124dc4fee278fdcbd38c102d88888ac3680c5ce46000801ca0b999f427cb9abdc87931c5b1b99659f2f54a730dc017ec5133c1b97c9c3d98dca046080d9a9ab55ebb6f805610df005e58ce56158ecf3499ff2d1cba99efa39984",
      "networkId": 0,
      "chainId": 0
    },
    {
      "hash": "0xae53df6fba65147b7a797447d8ad47d7d816246fc2b42688eda8a9a68184d7cc",
      "blockHash": "0xd3d54bfbbcaedc9ce223fca2bdb693fbfa274f424432c9ea70dc06fa8f445b99",
      "blockNumber": 119827,
      "transactionIndex": 1,
      "confirmations": null,
      "from": "0x608f4b86321a68453f9adf6F06F7Fc3E621739ad",
      "gasPrice": {
        "_hex": "0xba43b7400"
      },
      "gasLimit": {
        "_hex": "0x5208"
      },
      "to": "0x32Be343B94f860124dC4fEe278FDCBD38C102D88",
      "value": {
        "_hex": "0x455fd68a17f06000"
      },
      "nonce": 46,
      "data": "0x",
      "r": "0x37bd1c03920fe4d7571976502d4ce85231044d1c93d740fbc5fa771307ff22ec",
      "s": "0x6493d41f643804939d862be83dc9f4172d59e2fb9c3d19cf3d594bb03159e3fc",
      "v": 27,
      "creates": null,
      "raw": "0xf86c2e850ba43b74008252089432be343b94f860124dc4fee278fdcbd38c102d8888455fd68a17f06000801ba037bd1c03920fe4d7571976502d4ce85231044d1c93d740fbc5fa771307ff22eca06493d41f643804939d862be83dc9f4172d59e2fb9c3d19cf3d594bb03159e3fc",
      "networkId": 0,
      "chainId": 0
    },
    {
      "hash": "0x140cd1df9613fb9bc8d236a7ae70a83a1cfac5b2a033bf6b2969edeb74c34f6c",
      "blockHash": "0xd3d54bfbbcaedc9ce223fca2bdb693fbfa274f424432c9ea70dc06fa8f445b99",
      "blockNumber": 119827,
      "transactionIndex": 2,
      "confirmations": null,
      "from": "0x0DBaD90C967BFfeA4d6B589c0d2AF50A0eA16304",
      "gasPrice": {
        "_hex": "0xba43b7400"
      },
      "gasLimit": {
        "_hex": "0x5208"
      },
      "to": "0x32Be343B94f860124dC4fEe278FDCBD38C102D88",
      "value": {
        "_hex": "0x46bb811f5cc178000"
      },
      "nonce": 7,
      "data": "0x",
      "r": "0x5403bf2e4c9c1e8bcf20a1f985d6d4a16b069d0a85a8ee0b46c9b3debe0e0a92",
      "s": "0x63b3264b149e207a9361325c3edd38e353f0c1a9ebe59fc2dfee2597a5536483",
      "v": 27,
      "creates": null,
      "raw": "0xf86d07850ba43b74008252089432be343b94f860124dc4fee278fdcbd38c102d8889046bb811f5cc178000801ba05403bf2e4c9c1e8bcf20a1f985d6d4a16b069d0a85a8ee0b46c9b3debe0e0a92a063b3264b149e207a9361325c3edd38e353f0c1a9ebe59fc2dfee2597a5536483",
      "networkId": 0,
      "chainId": 0
    }
  ]
}