{
  "hash": "0x6bcb4bc5935264b159cb37cbb3e6140b6decf6288f55de5609d36dddc888787a",
  "parentHash": "0xf781661b5ec9575fe5a426a6c077e9805b32a84d631ebc61308d369f6bde270d",
  "number": 87954,
  "timestamp": 1439600212,
  "nonce": "0x7f091ad235abb884",
  "difficulty": 3183306130179,
  "gasLimit": {
    "_hex": "0x2fefd8"
  },
  "gasUsed": {
    "_hex": "0x546c"
  },
  "miner": "0xf8E0CA3Ed80bd541b94BEdCf259e8CF2141A9523",
  "extraData": "0x476574682f76312e302e312f77696e646f77732f676f312e342e32",
  "transactions": [
    {
      "hash": "0x5ab7c74f8c2408422cd94b9217c87e463bfac5a7aa91479f54b0349874933bf2",
      "blockHash": "0x6bcb4bc5935264b159cb37cbb3e6140b6decf6288f55de5609d36dddc888787a",
      "blockNumber": 87954,
      "transactionIndex": 0,
      "confirmations": null,
      "from": "0x4ad047faE67eF162FE68FedbC27d3B65cAF10C36",
      "gasPrice": {
        "_hex": "0x110c8f7d8de"
      },
      "gasLimit": {
        "_hex": "0xc350"
      },
      "to": "0x2910543Af39abA0Cd09dBb2D50200b3E800A63D2",
      "value": {
        "_hex": "0x1b1ae4d6e2ef500000"
      },
      "nonce": 2,
      "data": "0x454e4837585a564152",
      "r": "0x5d0721d5fe5e1558a219ffe46e64a14e036547424dff519741393c8076a6059f",
      "s": "0x97f0949ab77be24f3cf0b307fd56bdee106112ae19711f6758adb24c190912ca",
      "v": 28,
      "creates": null,
      "raw": "0xf87702860110c8f7d8de82c350942910543af39aba0cd09dbb2d50200b3e800a63d2891b1ae4d6e2ef50000089454e4837585a5641521ca05d0721d5fe5e1558a219ffe46e64a14e036547424dff519741393c8076a6059fa097f0949ab77be24f3cf0b307fd56bdee106112ae19711f6758adb24c190912ca",
      "networkId": 0,
      "chainId": 0
    }
  ]
}