{
  "hash": "0xb79fda3d1b9afb8a6c14c20e6642047822efd2c6f40374bf7d11d276163d24fb",
  "parentHash": "0xde5d0b2b8d3f3cf20dc1a9e1984693e6a009d8da1cb2fbc475c7b4c07b44a399",
  "number": 80229,
  "timestamp": 1439482252,
  "nonce": "0x0cf7b08fe257507b",
  "difficulty": 2378240004640,
  "gasLimit": {
    "_hex": "0x2fefd8"
  },
  "gasUsed": {
    "_hex": "0x5208"
  },
  "miner": "0xbb7B8287f3F0a933474a79eAe42CBCa977791171",
  "extraData": "0x476574682f4c5649562f76312e302e312f6c696e75782f676f312e342e32",
  "transactions": [
    {
      "hash": "0x0aad035625f33f0738a1acc916c6d28f9b7f0a31fbe281e66a7179fc232f2894",
      "blockHash": "0xb79fda3d1b9afb8a6c14c20e6642047822efd2c6f40374bf7d11d276163d24fb",
      "blockNumber": 80229,
      "transactionIndex": 0,
      "confirmations": null,
      "from": "0x32Be343B94f860124dC4fEe278FDCBD38C102D88",
      "gasPrice": {
        "_hex": "0xcf7bfd0cd"
      },
      "gasLimit": {
        "_hex": "0x5208"
      },
      "to": "0x1E1f7dDeCbe7b21492957BF4C5365eae580aA990",
      "value": {
        "_hex": "0x3eb12f8955c02a000"
      },
      "nonce": 521,
      "data": "0x",
      "r": "0x727d3f058c8eb5c7771fd00b50921dcea923b0844945690932225dae9e781f8c",
      "s": "0x6324ae9da18eb3dac1200f15b44133cdc5f4a81af1a2b6d395b72082a2ccc8ed",
      "v": 27,
      "creates": null,
      "raw": "0xf86f820209850cf7bfd0cd825208941e1f7ddecbe7b21492957bf4c5365eae580aa9908903eb12f8955c02a000801ba0727d3f058c8eb5c7771fd00b50921dcea923b0844945690932225dae9e781f8ca06324ae9da18eb3dac1200f15b44133cdc5f4a81af1a2b6d395b72082a2ccc8ed",
      "networkId": 0,
      "chainId": 0
    }
  ]
}