{
  "hash": "0x3b7d8cd6913ba5f56cbd0f3d222791542f1952c331e00ccdfe224395c25cc9c7",
  "parentHash": "0xf4afdb2a1ac9849a77a6d1989dfdd7dfdef9f1a522a0684db6214d60bc48d9a1",
  "number": 71662,
  "timestamp": 1439339751,
  "nonce": "0xcc2831c5ba3bf6e0",
  "difficulty": 2183559183226,
  "gasLimit": {
    "_hex": "0x2fefd8"
  },
  "gasUsed": {
    "_hex": "0x13a26"
  },
  "miner": "0x9746c7e1ef2bd21FF3997fa467593a89cb852BD0",
  "extraData": "0x476574682f76312e302e312f77696e646f77732f676f312e342e32",
  "transactions": [
    {
      "hash": "0x8891c070b0c328aa64b4171ee242c2d105061967fecfd3a8f0d43b00b8fe9aff",
      "blockHash": "0x3b7d8cd6913ba5f56cbd0f3d222791542f1952c331e00ccdfe224395c25cc9c7",
      "blockNumber": 71662,
      "transactionIndex": 0,
      "confirmations": null,
      "from": "0x2ef9E465716AcAcFb8c8252fa8E7bc7969EbF6E4",
      "gasPrice": {
        "_hex": "0x110c8f7d8de"
      },
      "gasLimit": {
        "_hex": "0xc350"
      },
      "to": "0x2910543Af39abA0Cd09dBb2D50200b3E800A63D2",
      "value": {
        "_hex": "0x3635c9adc5dea00000"
      },
      "nonce": 1,
      "data": "0x454e384e3358313947",
      "r": "0x365c0c2f05a88b26bf9b3ce75b555806bdf2f3cbf1f923af8f8180e6686b0886",
      "s": "0x32342380e1e94f210dbf8e3dd8ff250b95907ba121b5480dae025d0c3d46e31b",
      "v": 27,
      "creates": null,
      "raw": "0xf87701860110c8f7d8de82c350942910543af39aba0cd09dbb2d50200b3e800a63d2893635c9adc5dea0000089454e384e33583139471ba0365c0c2f05a88b26bf9b3ce75b555806bdf2f3cbf1f923af8f8180e6686b0886a032342380e1e94f210dbf8e3dd8ff250b95907ba121b5480dae025d0c3d46e31b",
      "networkId": 0,
      "chainId": 0
    },
    {
      "hash": "0x3f940f4183a08a31829f4ee3214bdb84165926379588c46f39b0a112b331eea2",
      "blockHash": "0x3b7d8cd6913ba5f56cbd0f3d222791542f1952c331e00ccdfe224395c25cc9c7",
      "blockNumber": 71662,
      "transactionIndex": 1,
      "confirmations": null,
      "from": "0x2910543Af39abA0Cd09dBb2D50200b3E800A63D2",
      "gasPrice": {
        "_hex": "0xd9124d04a"
      },
      "gasLimit": {
        "_hex": "0x5208"
      },
      "to": "0xAca1c2275abD87B31518221C1fa80E9d34151A71",
      "value": {
        "_hex": "0xdcef33a6f838000"
      },
      "nonce": 274,
      "data": "0x",
      "r": "0x4bdbae75806848f894b979b7aac7519dc62d9276a2c32cac3c46b241ee797b4e",
      "s": "0x21b9e324298ec8e92b0b59e909b4d3a06f1d9828697664e587a9c381f25aa35f",
      "v": 28,
      "creates": null,
      "raw": "0xf86e820112850d9124d04a82520894aca1c2275abd87b31518221c1fa80e9d34151a71880dcef33a6f838000801ca04bdbae75806848f894b979b7aac7519dc62d9276a2c32cac3c46b241ee797b4ea021b9e324298ec8e92b0b59e909b4d3a06f1d9828697664e587a9c381f25aa35f",
      "networkId": 0,
      "chainId": 0
    },
    {
      "hash": "0xa8b367a67d98930985cc8e9e82ee99e269540f9ef5d223466596175797a7e452",
      "blockHash": "0x3b7d8cd6913ba5f56cbd0f3d222791542f1952c331e00ccdfe224395c25cc9c7",
      "blockNumber": 71662,
      "transactionIndex": 2,
      "confirmations": null,
      "from": "0x17580B766f7453525ca4C6A88b01b50570EA088C",
      "gasPrice": {
        "_hex": "0xd2d66a6b6"
      },
      "gasLimit": {
        "_hex": "0x61a80"
      },
      "to": "0x5Fe5B7546D1628f7348B023A0393de1FC825A4fD",
      "value": {
        "_hex": "0x1bc16d674ec80000"
      },
      "nonce": 248,
      "data": "0xb595b8b50000000000000000000000000000000000000000000000000000000000000000",
      "r": "0xd1fb46b6ab8036ebca08197f10f1a7f5f4aaffb7cff6b7cce7ddd1f7e855152c",
      "s": "0x02a2d5e9029b6762d1c41661693424eb1e76befd17281ebbdeda8bf162de211a",
      "v": 28,
      "creates": null,
      "raw": "0xf89281f8850d2d66a6b683061a80945fe5b7546d1628f7348b023a0393de1fc825a4fd881bc16d674ec80000a4b595b8b500000000000000000000000000000000000000000000000000000000000000001ca0d1fb46b6ab8036ebca08197f10f1a7f5f4aaffb7cff6b7cce7ddd1f7e855152ca002a2d5e9029b6762d1c41661693424eb1e76befd17281ebbdeda8bf162de211a",
      "networkId": 0,
      "chainId": 0
    }
  ]
}