{
  "hash": "0xf61981d13cd8b8b5ce6654c0fc0fb057bf25c64ecfc17ae94dafdff96fb20d00",
  "parentHash": "0xccdfa5f50a1454870384c716c37eee928ec20712a2ceac2f4dc8e1065dce1369",
  "number": 65106,
  "timestamp": 1439231349,
  "nonce": "0x423560ba9f001af0",
  "difficulty": 1930375005116,
  "gasLimit": {
    "_hex": "0x2fefd8"
  },
  "gasUsed": {
    "_hex": "0x17cd8"
  },
  "miner": "0x445Aa5d2cB3Bc1A77460aB63C13328368d12fb9F",
  "extraData": "0x",
  "transactions": [
    {
      "hash": "0xdce9afd87650e5a4ccfeb8e9b31ee38fe7f93e4aabecb1ef083384e12f9ef131",
      "blockHash": "0xf61981d13cd8b8b5ce6654c0fc0fb057bf25c64ecfc17ae94dafdff96fb20d00",
      "blockNumber": 65106,
      "transactionIndex": 0,
      "confirmations": null,
      "from": "0x065C972D8A5CdB748f43F204367c309a23e8316A",
      "gasPrice": {
        "_hex": "0xba43b7400"
      },
      "gasLimit": {
        "_hex": "0x15f90"
      },
      "to": "0x793AE8C1b1a160BFc07BFB0d04F85eab1A71F4f2",
      "value": {
        "_hex": "0x0"
      },
      "nonce": 0,
      "data": "0x3ba15036",
      "r": "0xc2157864302d6a66e8dc472def76c857a4f13b499cfca5eb318b2432ac1e0061",
      "s": "0x1750be43ad3fa5cf3d7828dabe765d14beedf028cf1edb145a8d8ec55a289a6e",
      "v": 27,
      "creates": null,
      "raw": "0xf86980850ba43b740083015f9094793ae8c1b1a160bfc07bfb0d04f85eab1a71f4f280843ba150361ba0c2157864302d6a66e8dc472def76c857a4f13b499cfca5eb318b2432ac1e0061a01750be43ad3fa5cf3d7828dabe765d14beedf028cf1edb145a8d8ec55a289a6e",
      "networkId": 0,
      "chainId": 0
    },
    {
      "hash": "0xa5073de91fe1424174d8a74d0246667626859fb9f2d339ecc56eee143cb5a030",
      "blockHash": "0xf61981d13cd8b8b5ce6654c0fc0fb057bf25c64ecfc17ae94dafdff96fb20d00",
      "blockNumber": 65106,
      "transactionIndex": 1,
      "confirmations": null,
      "from": "0x411c67710aDece61E5ec396a1a3F029e30589280",
      "gasPrice": {
        "_hex": "0xba43b7400"
      },
      "gasLimit": {
        "_hex": "0x15f90"
      },
      "to": "0x793AE8C1b1a160BFc07BFB0d04F85eab1A71F4f2",
      "value": {
        "_hex": "0x0"
      },
      "nonce": 0,
      "data": "0x3ba15036",
      "r": "0xacb2c0989e8f1885eb97a152b826393e8327244fc51f86c40358936c36d9802c",
      "s": "0x6a9e132175a48ff79b973a7a157a923c07a30dc2ba9c3ca4ce7c3f2c1854a379",
      "v": 28,
      "creates": null,
      "raw": "0xf86980850ba43b740083015f9094793ae8c1b1a160bfc07bfb0d04f85eab1a71f4f280843ba150361ca0acb2c0989e8f1885eb97a152b826393e8327244fc51f86c40358936c36d9802ca06a9e132175a48ff79b973a7a157a923c07a30dc2ba9c3ca4ce7c3f2c1854a379",
      "networkId": 0,
      "chainId": 0
    }
  ]
}