{
  "hash": "0xdbc2f3810f746fbc418006b6303b56061e80eff9b228dd42a11055c73a95d74d",
  "parentHash": "0x32dad44a56d8f18f31eab182f968dd3c582788f144b8c382ba12f22542d374f6",
  "number": 54032,
  "timestamp": 1439047480,
  "nonce": "0x4ee32e38be9c1e44",
  "difficulty": 1611868027114,
  "gasLimit": {
    "_hex": "0x2fefd8"
  },
  "gasUsed": {
    "_hex": "0x7a120"
  },
  "miner": "0x0A63E1A8C33e351679e3581AC84ce341C32f813a",
  "extraData": "0x476574682f76312e302e312d38326566323666362f6c696e75782f676f312e34",
  "transactions": [
    {
      "hash": "0xab3183a1eb19b81d39fcf5921a06795235d361a2d871e7b554b6bb6d52e9b6b9",
      "blockHash": "0xdbc2f3810f746fbc418006b6303b56061e80eff9b228dd42a11055c73a95d74d",
      "blockNumber": 54032,
      "transactionIndex": 0,
      "confirmations": null,
      "from": "0x8be48706740cfb8bC229aAE498cfDbcdE1b93deb",
      "gasPrice": {
        "_hex": "0xd1c37ec27"
      },
      "gasLimit": {
        "_hex": "0x7a120"
      },
      "to": "0xBAA54d6E90c3F4d7Ebec11bD180134C7eD8eBb52",
      "value": {
        "_hex": "0x16345785d8a0000"
      },
      "nonce": 1,
      "data": "0x",
      "r": "0x65b556cae2ec7729d9ea38b029370360effb9d723ddcbadbe9ef9d86812a71e8",
      "s": "0x496a4666b2ff2ea3c49514d0e7aee0fd8e159645c1412038294c9442f1818e77",
      "v": 28,
      "creates": null,
      "raw": "0xf86d01850d1c37ec278307a12094baa54d6e90c3f4d7ebec11bd180134c7ed8ebb5288016345785d8a0000801ca065b556cae2ec7729d9ea38b029370360effb9d723ddcbadbe9ef9d86812a71e8a0496a4666b2ff2ea3c49514d0e7aee0fd8e159645c1412038294c9442f1818e77",
      "networkId": 0,
      "chainId": 0
    }
  ]
}