{
  "hash": "0x8dc3ab045a3955c17176fc227810d88460268f1f3447b70bae5e9a7b2a263946",
  "parentHash": "0x3764983d6286b1163fd3d86b2d21607d9f2dfa1f5631fd188e31b4df21fb838a",
  "number": 117910,
  "timestamp": 1440117392,
  "nonce": "0x43f77ace2ea3da91",
  "difficulty": 4344029772410,
  "gasLimit": {
    "_hex": "0x2fefd8"
  },
  "gasUsed": {
    "_hex": "0xa410"
  },
  "miner": "0xe6A7a1d47ff21B6321162AEA7C6CB457D5476Bca",
  "extraData": "0xd783010002844765746887676f312e342e32856c696e7578",
  "transactions": [
    {
      "hash": "0x0d59edf7aab3a94b3fb55c8155e17f453779f11a5f75b4548d04f86fc1b17feb",
      "blockHash": "0x8dc3ab045a3955c17176fc227810d88460268f1f3447b70bae5e9a7b2a263946",
      "blockNumber": 117910,
      "transactionIndex": 0,
      "confirmations": null,
      "from": "0x037658E13e294088Cfd16A534b9C1F3B37282eB2",
      "gasPrice": {
        "_hex": "0xba43b7400"
      },
      "gasLimit": {
        "_hex": "0x5208"
      },
      "to": "0x32Be343B94f860124dC4fEe278FDCBD38C102D88",
      "value": {
        "_hex": "0x18345bceed309800"
      },
      "nonce": 8,
      "data": "0x",
      "r": "0x1df17e5571011fe1fee7cc4399bbf006b648556ba28f5d2623712b7106353c76",
      "s": "0x0b042280cefd56054014f17cb38b0fa786edf8b2a01d3549e0e93e45ef40597d",
      "v": 27,
      "creates": null,
      "raw": "0xf86c08850ba43b74008252089432be343b94f860124dc4fee278fdcbd38c102d888818345bceed309800801ba01df17e5571011fe1fee7cc4399bbf006b648556ba28f5d2623712b7106353c76a00b042280cefd56054014f17cb38b0fa786edf8b2a01d3549e0e93e45ef40597d",
      "networkId": 0,
      "chainId": 0
    },
    {
      "hash": "0xc8a00b6fa8c1da5ce87b03e11dd62c8d0e0fb9a74aa0a9de1c37c33452bc7f22",
      "blockHash": "0x8dc3ab045a3955c17176fc227810d88460268f1f3447b70bae5e9a7b2a263946",
      "blockNumber": 117910,
      "transactionIndex": 1,
      "confirmations": null,
      "from": "0x5BeBc02e4CDF3e92B5a2947CfD1430c4EBBa4039",
      "gasPrice": {
        "_hex": "0xba43b7400"
      },
      "gasLimit": {
        "_hex": "0x5208"
      },
      "to": "0x32Be343B94f860124dC4fEe278FDCBD38C102D88",
      "value": {
        "_hex": "0x2efebbaef8ad4400"
      },
      "nonce": 8,
      "data": "0x",
      "r": "0xef0553ca3e02965735f8e2a4ed34ae8e0ce69802f3b9ce3b8792a828f16533bf",
      "s": "0x5ca2bec9280f10baa28174795bf1ee03ee6012520f49e5ad6a40e350891ddf91",
      "v": 28,
      "creates": null,
      "raw": "0xf86c08850ba43b74008252089432be343b94f860124dc4fee278fdcbd38c102d88882efebbaef8ad4400801ca0ef0553ca3e02965735f8e2a4ed34ae8e0ce69802f3b9ce3b8792a828f16533bfa05ca2bec9280f10baa28174795bf1ee03ee6012520f49e5ad6a40e350891ddf91",
      "networkId": 0,
      "chainId": 0
    }
  ]
}