{
  "hash": "0x2afb5d4a08828241e29cfb75f5d0f29258f07ed97a080ddeae15c3594ff352da",
  "parentHash": "0xdb6f9e75086c0aeccf76c6c5b69f02ef32a7891e7e5cfd7b26fa0a07c67d2ec0",
  "number": 92332,
  "timestamp": 1439670334,
  "nonce": "0x336cd99196fa3a0b",
  "difficulty": 3511457671416,
  "gasLimit": {
    "_hex": "0x2fefd8"
  },
  "gasUsed": {
    "_hex": "0x546c"
  },
  "miner": "0xe6A7a1d47ff21B6321162AEA7C6CB457D5476Bca",
  "extraData": "0x476574682f76312e302e312d38326566323666362f6c696e75782f676f312e34",
  "transactions": [
    {
      "hash": "0xe74ecf17c42927778b919dd1f10e1ccd663bcf2bc6b1e72df4aacc3b37b5e941",
      "blockHash": "0x2afb5d4a08828241e29cfb75f5d0f29258f07ed97a080ddeae15c3594ff352da",
      "blockNumber": 92332,
      "transactionIndex": 0,
      "confirmations": null,
      "from": "0x9E1B9435365FF9c0653fEe36AC89657c5879A566",
      "gasPrice": {
        "_hex": "0x10041aab762"
      },
      "gasLimit": {
        "_hex": "0x55f0"
      },
      "to": "0x2910543Af39abA0Cd09dBb2D50200b3E800A63D2",
      "value": {
        "_hex": "0x36d138126ecb0000"
      },
      "nonce": 2,
      "data": "0x454e37353756564e30",
      "r": "0x08803348a46fff190247bba0824771032fe6460e2d44dc1519619a6f20cce1a9",
      "s": "0x533def83cc3a1454b1c2213d66fbbcde48527959d8e167d92126c18e5455c33b",
      "v": 27,
      "creates": null,
      "raw": "0xf8760286010041aab7628255f0942910543af39aba0cd09dbb2d50200b3e800a63d28836d138126ecb000089454e37353756564e301ba008803348a46fff190247bba0824771032fe6460e2d44dc1519619a6f20cce1a9a0533def83cc3a1454b1c2213d66fbbcde48527959d8e167d92126c18e5455c33b",
      "networkId": 0,
      "chainId": 0
    }
  ]
}