{
  "hash": "0x93d9dc63fac669159aec496de7cda49ee7e9d95c1183a21f04398a24d502dcfc",
  "parentHash": "0xec97cc8e7c3090caf02ea511ae30e490a2fb97aee1edcb263650e9a19adab79f",
  "number": 98103,
  "timestamp": 1439767021,
  "nonce": "0x959bbdaa13d8ab12",
  "difficulty": 3886053330848,
  "gasLimit": {
    "_hex": "0x2fefd8"
  },
  "gasUsed": {
    "_hex": "0x5208"
  },
  "miner": "0x123843545FB525C8E134c9A5F15ADA6865cc3848",
  "extraData": "0x476574682f76312e302e312f77696e646f77732f676f312e342e32",
  "transactions": [
    {
      "hash": "0x693dc646e058f5f34720e518a7e41f612902aa7675155335a68ee923957fe574",
      "blockHash": "0x93d9dc63fac669159aec496de7cda49ee7e9d95c1183a21f04398a24d502dcfc",
      "blockNumber": 98103,
      "transactionIndex": 0,
      "confirmations": null,
      "from": "0xa6BDc31c431B8F97848c9D60cbbe9660dc450eB7",
      "gasPrice": {
        "_hex": "0xde10a40ae"
      },
      "gasLimit": {
        "_hex": "0x5208"
      },
      "to": "0x32Be343B94f860124dC4fEe278FDCBD38C102D88",
      "value": {
        "_hex": "0x455f1f00de9f9000"
      },
      "nonce": 138,
      "data": "0x",
      "r": "0x512b8f5b90c35d952104a5bf5a3464c0d5e671e85eba51eccfc7b4012290282d",
      "s": "0x3889d0254fc8247cde58d2bf695dd8f128235b30893d5af66f518962ed865509",
      "v": 28,
      "creates": null,
      "raw": "0xf86d818a850de10a40ae8252089432be343b94f860124dc4fee278fdcbd38c102d8888455f1f00de9f9000801ca0512b8f5b90c35d952104a5bf5a3464c0d5e671e85eba51eccfc7b4012290282da03889d0254fc8247cde58d2bf695dd8f128235b30893d5af66f518962ed865509",
      "networkId": 0,
      "chainId": 0
    }
  ]
}