{
  "hash": "0xe7043360d1886da85a46f808c5455790fcc0559d7c89a47ce9f3a7f3cd71bde3",
  "parentHash": "0x2f32588c59bfe85aeee554f952b3856964161f0b625d1005519a7ff52d5ff2f9",
  "number": 88149,
  "timestamp": 1439603390,
  "nonce": "0xc1e9dbbeb916efce",
  "difficulty": 3209765419350,
  "gasLimit": {
    "_hex": "0x2fefd8"
  },
  "gasUsed": {
    "_hex": "0x5728"
  },
  "miner": "0xe6A7a1d47ff21B6321162AEA7C6CB457D5476Bca",
  "extraData": "0x476574682f76312e302e312d38326566323666362f6c696e75782f676f312e34",
  "transactions": [
    {
      "hash": "0xa94ec0578add97018dd56e762f4b454381ae4adf8b40130b1bf0710f81f73d5e",
      "blockHash": "0xe7043360d1886da85a46f808c5455790fcc0559d7c89a47ce9f3a7f3cd71bde3",
      "blockNumber": 88149,
      "transactionIndex": 0,
      "confirmations": null,
      "from": "0x073f70b5bfAde6409E4951EF72BC8F4157677729",
      "gasPrice": {
        "_hex": "0xdc930dfdb"
      },
      "gasLimit": {
        "_hex": "0x15f90"
      },
      "to": "0xa50156cF80fa9eC2e16899E4fb7e072300787417",
      "value": {
        "_hex": "0x0"
      },
      "nonce": 24,
      "data": "0x960edffb000000000000000000000000000000000000000000000000000000000000000000000000000000000000000000000000000000000000000000000000000000010000000000000000000000000000000000000000000000000000000000000000",
      "r": "0x91fe86796282051c0d52a864f883e4d444b061f22dac16c1c6a403d35eca3b23",
      "s": "0x19654e5371e8137b172c0c7477e539993826458e62088057804df0a16ff5ed20",
      "v": 27,
      "creates": null,
      "raw": "0xf8ca18850dc930dfdb83015f9094a50156cf80fa9ec2e16899e4fb7e07230078741780b864960edffb0000000000000000000000000000000000000000000000000000000000000000000000000000000000000000000000000000000000000000000000000000000100000000000000000000000000000000000000000000000000000000000000001ba091fe86796282051c0d52a864f883e4d444b061f22dac16c1c6a403d35eca3b23a019654e5371e8137b172c0c7477e539993826458e62088057804df0a16ff5ed20",
      "networkId": 0,
      "chainId": 0
    }
  ]
}