{
  "hash": "0x4c40b9c2c7434d2c08fcab3c0703ddc6b69df43fd004553b1eeb86254fe531fa",
  "parentHash": "0x27a260ed2e3bea0b5c97298440bbeed53dea4c40ceaf8c474af7e7f3811bf857",
  "number": 96469,
  "timestamp": 1439740922,
  "nonce": "0x02dcdf5e890144ee",
  "difficulty": 3658458862471,
  "gasLimit": {
    "_hex": "0x2fefd8"
  },
  "gasUsed": {
    "_hex": "0x5208"
  },
  "miner": "0xe6A7a1d47ff21B6321162AEA7C6CB457D5476Bca",
  "extraData": "0x476574682f76312e302e312d38326566323666362f6c696e75782f676f312e34",
  "transactions": [
    {
      "hash": "0x0823c6e1a1011e3db2878314f25e993b9706fc039d7dded3c264d4bf5f041756",
      "blockHash": "0x4c40b9c2c7434d2c08fcab3c0703ddc6b69df43fd004553b1eeb86254fe531fa",
      "blockNumber": 96469,
      "transactionIndex": 0,
      "confirmations": null,
      "from": "0x007f7f58D3eb5b7510A301eCC749FC1fCDDBE14D",
      "gasPrice": {
        "_hex": "0xcc8ddf695"
      },
      "gasLimit": {
        "_hex": "0x15f90"
      },
      "to": "0xb1abce2918E21ddb93AA452731a12672A3d9F75a",
      "value": {
        "_hex": "0x4563918244f40000"
      },
      "nonce": 83,
      "data": "0x",
      "r": "0xe9c1f6154b2425e5d9077b41a95b468ce3063507466a32f3671d77f62ea029f2",
      "s": "0x3571cb2306652d9c9cc3beafedc546894f4224cadf2a6c057a78a6f8603bf085",
      "v": 28,
      "creates": null,
      "raw": "0xf86d53850cc8ddf69583015f9094b1abce2918e21ddb93aa452731a12672a3d9f75a884563918244f40000801ca0e9c1f6154b2425e5d9077b41a95b468ce3063507466a32f3671d77f62ea029f2a03571cb2306652d9c9cc3beafedc546894f4224cadf2a6c057a78a6f8603bf085",
      "networkId": 0,
      "chainId": 0
    }
  ]
}