{
  "hash": "0x5d53ff9d638290c43581eef9f03ce42b0296b226689c266a04727027a23a3c94",
  "parentHash": "0x2bc1a67b7ccf832544cd1a5d682e2295ee55a7a581a0e48330e2b7aff273125e",
  "number": 87075,
  "timestamp": 1439586785,
  "nonce": "0xbba477bafeab2404",
  "difficulty": 3036367259020,
  "gasLimit": {
    "_hex": "0x2fefd8"
  },
  "gasUsed": {
    "_hex": "0xafa7"
  },
  "miner": "0xe6A7a1d47ff21B6321162AEA7C6CB457D5476Bca",
  "extraData": "0x476574682f76312e302e312d38326566323666362f6c696e75782f676f312e34",
  "transactions": [
    {
      "hash": "0x618293f874d300ae8ba686307a6e81e2bc505152989f43a8ec355856ec0b0ea5",
      "blockHash": "0x5d53ff9d638290c43581eef9f03ce42b0296b226689c266a04727027a23a3c94",
      "blockNumber": 87075,
      "transactionIndex": 0,
      "confirmations": null,
      "from": "0x2856c3180459583cD8492b62c180A9D7E11E1C2E",
      "gasPrice": {
        "_hex": "0xce5ba441d"
      },
      "gasLimit": {
        "_hex": "0x15f90"
      },
      "to": "0x829297c94af2b8d4Ce4796d42521E384C84Ae690",
      "value": {
        "_hex": "0x11c37937e08000"
      },
      "nonce": 0,
      "data": "0x",
      "r": "0x127e79749431ccd8e1f514a5444e00ddf198f7e8a6ff4e42b643f17ca6612b51",
      "s": "0x1003bffa8bec4eff47bd7fecbe924981a9b9de65eaf1054543236bbaa24b2860",
      "v": 27,
      "creates": null,
      "raw": "0xf86c80850ce5ba441d83015f9094829297c94af2b8d4ce4796d42521e384c84ae6908711c37937e08000801ba0127e79749431ccd8e1f514a5444e00ddf198f7e8a6ff4e42b643f17ca6612b51a01003bffa8bec4eff47bd7fecbe924981a9b9de65eaf1054543236bbaa24b2860",
      "networkId": 0,
      "chainId": 0
    },
    {
      "hash": "0x0138235a190f7136a1a383f0d02d5e41d6326987a985d51b20e25aaa20825a07",
      "blockHash": "0x5d53ff9d638290c43581eef9f03ce42b0296b226689c266a04727027a23a3c94",
      "blockNumber": 87075,
      "transactionIndex": 1,
      "confirmations": null,
      "from": "0x02020D22dCF88f5eDd66B382D7da019F161fB7e3",
      "gasPrice": {
        "_hex": "0xccc664ff1"
      },
      "gasLimit": {
        "_hex": "0x15f90"
      },
      "to": "0xCAc7000C7dBaa2E33Af15325AF5D435E011C7BdD",
      "value": {
        "_hex": "0x3635c9adc5dea00000"
      },
      "nonce": 11,
      "data": "0xb214faa5384e53354b355737410000000000000000000000000000000000000000000000",
      "r": "0xc0e1981f6f683ec6aa3575b6272813ef4a48304234bc4b2580c706e7bc873c1d",
      "s": "0x4f3626f909a67d605f316ec53822b1515d39298bbda1b096daab3c2db934727e",
      "v": 27,
      "creates": null,
      "raw": "0xf8920b850ccc664ff183015f9094cac7000c7dbaa2e33af15325af5d435e011c7bdd893635c9adc5dea00000a4b214faa5384e53354b3557374100000000000000000000000000000000000000000000001ba0c0e1981f6f683ec6aa3575b6272813ef4a48304234bc4b2580c706e7bc873c1da04f3626f909a67d605f316ec53822b1515d39298bbda1b096daab3c2db934727e",
      "networkId": 0,
      "chainId": 0
    }
  ]
}