{
  "hash": "0xc257dd0dace598ff44318266a150685913d4beb957759bd0175d7d994b4a5a97",
  "parentHash": "0xdf05e0f5ae3cc85974d71e4fa8bfb56d9389f03518f2c08d08678850b2020d90",
  "number": 109428,
  "timestamp": 1439956380,
  "nonce": "0x20dd837b6046888e",
  "difficulty": 4464605065316,
  "gasLimit": {
    "_hex": "0x2fefd8"
  },
  "gasUsed": {
    "_hex": "0x5208"
  },
  "miner": "0xbb7B8287f3F0a933474a79eAe42CBCa977791171",
  "extraData": "0x476574682f4c5649562f76312e302e312f6c696e75782f676f312e342e32",
  "transactions": [
    {
      "hash": "0xbd2f7bd744aa602474cce62b389b3614510c3493fbc41fb92863b554d592082b",
      "blockHash": "0xc257dd0dace598ff44318266a150685913d4beb957759bd0175d7d994b4a5a97",
      "blockNumber": 109428,
      "transactionIndex": 0,
      "confirmations": null,
      "from": "0x9Fa9952255B2b06639A04D63804d4BdFFf6E2d7e",
      "gasPrice": {
        "_hex": "0xd597f13f0"
      },
      "gasLimit": {
        "_hex": "0x15f90"
      },
      "to": "0xE12517204a15E890f12755207271102F4800A0c4",
      "value": {
        "_hex": "0x270801d946c940000"
      },
      "nonce": 18,
      "data": "0x",
      "r": "0xdfb6543389abdddf1c2ef777296f7886f58c46232eafa0602b4be3fc9dfef535",
      "s": "0x62855adf65fe9731c89217c9d45a2c7b4626dda332cfb716f1b41ae173872500",
      "v": 28,
      "creates": null,
      "raw": "0xf86e12850d597f13f083015f9094e12517204a15e890f12755207271102f4800a0c4890270801d946c940000801ca0dfb6543389abdddf1c2ef777296f7886f58c46232eafa0602b4be3fc9dfef535a062855adf65fe9731c89217c9d45a2c7b4626dda332cfb716f1b41ae173872500",
      "networkId": 0,
      "chainId": 0
    }
  ]
}