{
  "hash": "0xc3c71c82866a38e43ac6be69bcbabeec310c84264be265cd9578c78e4bbcd169",
  "parentHash": "0x55366f34620ea9aa532b52510385eb29caaee1a3ee523587e4f6e08b5e709331",
  "number": 69090,
  "timestamp": 1439298175,
  "nonce": "0xf9799227d1f43e09",
  "difficulty": 2053897817652,
  "gasLimit": {
    "_hex": "0x2fefd8"
  },
  "gasUsed": {
    "_hex": "0x5208"
  },
  "miner": "0x20dff602D440dC119Bd3fF52E76f5cFE42Da65Fe",
  "extraData": "0x476574682f76312e302e312d37666266393930632f6c696e75782f676f312e34",
  "transactions": [
    {
      "hash": "0x8e3365a998453d0502c316f446f0aee1200b64f8aeba1a07ff7b7b7388e119c0",
      "blockHash": "0xc3c71c82866a38e43ac6be69bcbabeec310c84264be265cd9578c78e4bbcd169",
      "blockNumber": 69090,
      "transactionIndex": 0,
      "confirmations": null,
      "from": "0xe56Ddaf998A184c40b5761D66c3D23f3e7dBf9bA",
      "gasPrice": {
        "_hex": "0xba43b7400"
      },
      "gasLimit": {
        "_hex": "0x5208"
      },
      "to": "0x1E0314b6602BE5a1C7c811C97EFc98EDe9E55e4a",
      "value": {
        "_hex": "0x7c58ada8ff2000"
      },
      "nonce": 1,
      "data": "0x",
      "r": "0x045b7bc11d31b98f2730b5413b73ac66d53b7fb6ee31b947f34301b6cf187f3f",
      "s": "0x52d71a289789623559dde54aeab984e26e75d0e5b078cffbf45011157f41f36b",
      "v": 28,
      "creates": null,
      "raw": "0xf86b01850ba43b7400825208941e0314b6602be5a1c7c811c97efc98ede9e55e4a877c58ada8ff2000801ca0045b7bc11d31b98f2730b5413b73ac66d53b7fb6ee31b947f34301b6cf187f3fa052d71a289789623559dde54aeab984e26e75d0e5b078cffbf45011157f41f36b",
      "networkId": 0,
      "chainId": 0
    }
  ]
}