{
  "hash": "0xc25434a1f34a7daf6ac52c47b3c05a0bd5b83ae2f80d2982d0d154b94ba7af47",
  "parentHash": "0x898cbe4099b5238ec5729717d0a8b1e217736fa21faf50aa629f49958ae4272a",
  "number": 101553,
  "timestamp": 1439824506,
  "nonce": "0xa1dbd6eec16fb151",
  "difficulty": 3888250700827,
  "gasLimit": {
    "_hex": "0x2fefd8"
  },
  "gasUsed": {
    "_hex": "0x8c11"
  },
  "miner": "0x785ffdDd5cE55c6DF963f345e68d3F2024E5Acb1",
  "extraData": "0x",
  "transactions": [
    {
      "hash": "0x618fa51559b8e75e6c515636da2a020179204cfa4e834a41f4537b3beba38384",
      "blockHash": "0xc25434a1f34a7daf6ac52c47b3c05a0bd5b83ae2f80d2982d0d154b94ba7af47",
      "blockNumber": 101553,
      "transactionIndex": 0,
      "confirmations": null,
      "from": "0x063dD253C8da4EA9b12105781C9611b8297F5d14",
      "gasPrice": {
        "_hex": "0xd4734b2d4"
      },
      "gasLimit": {
        "_hex": "0x30d40"
      },
      "to": "0xde0B295669a9FD93d5F28D9Ec85E40f4cb697BAe",
      "value": {
        "_hex": "0x0"
      },
      "nonce": 9,
      "data": "0x797af6272153b9b2b56bb29c21cf47fe64fd2abdd7171b14cca48560f6f6cf294a1a5c52",
      "r": "0xa7026e963fe3538dcc6ce17883cb5c67c357b2ed6b232cea1c3b65ecb4294482",
      "s": "0x7e62909fd0be978caf4ee3430982b774b2b21eea9a9aff1d3e766c6660b50816",
      "v": 28,
      "creates": null,
      "raw": "0xf88909850d4734b2d483030d4094de0b295669a9fd93d5f28d9ec85e40f4cb697bae80a4797af6272153b9b2b56bb29c21cf47fe64fd2abdd7171b14cca48560f6f6cf294a1a5c521ca0a7026e963fe3538dcc6ce17883cb5c67c357b2ed6b232cea1c3b65ecb4294482a07e62909fd0be978caf4ee3430982b774b2b21eea9a9aff1d3e766c6660b50816",
      "networkId": 0,
      "chainId": 0
    }
  ]
}