{
  "hash": "0x6d025cf8b073610848eb1391857b4f642ac49207afa3f61e3e1c795bafd8ea9f",
  "parentHash": "0xa2d7aaba9337e73ba5ca625383da63872aba3ad732ed1a5e4093585c91398ec1",
  "number": 70966,
  "timestamp": 1439328238,
  "nonce": "0x4559234e9578ed97",
  "difficulty": 2164631425742,
  "gasLimit": {
    "_hex": "0x2fefd8"
  },
  "gasUsed": {
    "_hex": "0x1a48b"
  },
  "miner": "0x346Ad0cADdD5A8b2CAfd5b363414E4AE348db24c",
  "extraData": "0x",
  "transactions": [
    {
      "hash": "0x27c70fc6f428fbef51bcfb22cd29704a5c94e895979ce93df88f027353b0d6b8",
      "blockHash": "0x6d025cf8b073610848eb1391857b4f642ac49207afa3f61e3e1c795bafd8ea9f",
      "blockNumber": 70966,
      "transactionIndex": 0,
      "confirmations": null,
      "from": "0x1333a55102f1f4B3df95298b6CE863eF8d5BAf45",
      "gasPrice": {
        "_hex": "0xd58cdf090"
      },
      "gasLimit": {
        "_hex": "0x5208"
      },
      "to": "0x32Be343B94f860124dC4fEe278FDCBD38C102D88",
      "value": {
        "_hex": "0x4538363554ff2c00"
      },
      "nonce": 4,
      "data": "0x",
      "r": "0xc057c16c3dc03f001cfe6a66f8198d9ae827f57fa5804312f6ea2b3fb9670ff2",
      "s": "0x4bd6b89dc8255ddae3b1cf55d555cfe0740b17fe522fe12da54c26202a8a70f7",
      "v": 28,
      "creates": null,
      "raw": "0xf86c04850d58cdf0908252089432be343b94f860124dc4fee278fdcbd38c102d88884538363554ff2c00801ca0c057c16c3dc03f001cfe6a66f8198d9ae827f57fa5804312f6ea2b3fb9670ff2a04bd6b89dc8255ddae3b1cf55d555cfe0740b17fe522fe12da54c26202a8a70f7",
      "networkId": 0,
      "chainId": 0
    },
    {
      "hash": "0xcabd5e1929c1d926401d2e8856c56ec361d78cfcdfeefe31b3935a545fc6b8e9",
      "blockHash": "0x6d025cf8b073610848eb1391857b4f642ac49207afa3f61e3e1c795bafd8ea9f",
      "blockNumber": 70966,
      "transactionIndex": 1,
      "confirmations": null,
      "from": "0xC624b0Cd3307f6CFFC473f5019FA380E6811ee58",
      "gasPrice": {
        "_hex": "0xd58cdf090"
      },
      "gasLimit": {
        "_hex": "0x5208"
      },
      "to": "0x32Be343B94f860124dC4fEe278FDCBD38C102D88",
      "value": {
        "_hex": "0xa96815fa9c9a0000000"
      },
      "nonce": 8,
      "data": "0x",
      "r": "0x8d3aa27f75e508699f7e91cf1fe6ffa19b2d72c38d3762acc031831ff3ccb83a",
      "s": "0x0fe51492cb775c575354742b12130eb55026e01df241e312ab1d52345327212b",
      "v": 28,
      "creates": null,
      "raw": "0xf86e08850d58cdf0908252089432be343b94f860124dc4fee278fdcbd38c102d888a0a96815fa9c9a0000000801ca08d3aa27f75e508699f7e91cf1fe6ffa19b2d72c38d3762acc031831ff3ccb83aa00fe51492cb775c575354742b12130eb55026e01df241e312ab1d52345327212b",
      "networkId": 0,
      "chainId": 0
    },
    {
      "hash": "0xdf72267e2ed9e1df09fa682581cbff096c2db55c29c4c5021c3e62e545403280",
      "blockHash": "0x6d025cf8b073610848eb1391857b4f642ac49207afa3f61e3e1c795bafd8ea9f",
      "blockNumber": 70966,
      "transactionIndex": 2,
      "confirmations": null,
      "from": "0xC3fe64D1af00F0d9c324E4387EF7533f7D788e95",
      "gasPrice": {
        "_hex": "0xd58cdf090"
      },
      "gasLimit": {
        "_hex": "0x5208"
      },
      "to": "0x32Be343B94f860124dC4fEe278FDCBD38C102D88",
      "value": {
        "_hex": "0x2d3991de7458ac00"
      },
      "nonce": 6,
      "data": "0x",
      "r": "0xa8ae47fc26053abb8b719b80ffdc6280e2f0bfdb2e86dbc1cb59b6a67a1696e1",
      "s": "0x132d95ab9f86a99b10ef906960604f410de896725df99e96dbba34cca9e9d53a",
      "v": 28,
      "creates": null,
      "raw": "0xf86c06850d58cdf0908252089432be343b94f860124dc4fee278fdcbd38c102d88882d3991de7458ac00801ca0a8ae47fc26053abb8b719b80ffdc6280e2f0bfdb2e86dbc1cb59b6a67a1696e1a0132d95ab9f86a99b10ef906960604f410de896725df99e96dbba34cca9e9d53a",
      "networkId": 0,
      "chainId": 0
    },
    {
      "hash": "0xa633766d6b247ae7b443f5df8b8e33bbf63a162e1c9065083d68771bf2aff219",
      "blockHash": "0x6d025cf8b073610848eb1391857b4f642ac49207afa3f61e3e1c795bafd8ea9f",
      "blockNumber": 70966,
      "transactionIndex": 3,
      "confirmations": null,
      "from": "0x17580B766f7453525ca4C6A88b01b50570EA088C",
      "gasPrice": {
        "_hex": "0xcbe39b42a"
      },
      "gasLimit": {
        "_hex": "0x61a80"
      },
      "to": "0x5Fe5B7546D1628f7348B023A0393de1FC825A4fD",
      "value": {
        "_hex": "0x3782dace9d900000"
      },
      "nonce": 66,
      "data": "0xb595b8b50000000000000000000000000000000000000000000000000000000000000000",
      "r": "0xdd7163886d96987a06c73be2a91aac5ba5b239120c5ef93cac506dc5d37bef34",
      "s": "0x48cd2550999e57556ab44cc17737cc86c46dce0e2440c852d62e1bcddf5a82dc",
      "v": 28,
      "creates": null,
      "raw": "0xf89142850cbe39b42a83061a80945fe5b7546d1628f7348b023a0393de1fc825a4fd883782dace9d900000a4b595b8b500000000000000000000000000000000000000000000000000000000000000001ca0dd7163886d96987a06c73be2a91aac5ba5b239120c5ef93cac506dc5d37bef34a048cd2550999e57556ab44cc17737cc86c46dce0e2440c852d62e1bcddf5a82dc",
      "networkId": 0,
      "chainId": 0
    }
  ]
}