{
  "hash": "0x0b4ffa9a464788da20efe49af168fb5ce18ce850afceeed9157dc641d5f27c89",
  "parentHash": "0x4477b70a9fa1f4b59b559e9ea5b0ce49c5b6bef77e8594b5b4fdad17b2a316b9",
  "number": 116756,
  "timestamp": 1440096499,
  "nonce": "0xd406021f3011bb09",
  "difficulty": 4353121304191,
  "gasLimit": {
    "_hex": "0x2fefd8"
  },
  "gasUsed": {
    "_hex": "0x2a20"
  },
  "miner": "0xe6A7a1d47ff21B6321162AEA7C6CB457D5476Bca",
  "extraData": "0xd783010002844765746887676f312e342e32856c696e7578",
  "transactions": [
    {
      "hash": "0xa248eef16a2c944f519c9d23df5f2aea752325a187460ba321e0b505a1b8e34a",
      "blockHash": "0x0b4ffa9a464788da20efe49af168fb5ce18ce850afceeed9157dc641d5f27c89",
      "blockNumber": 116756,
      "transactionIndex": 0,
      "confirmations": null,
      "from": "0x276e2f360f94f35DDc4a45F16Ca8771A746a4582",
      "gasPrice": {
        "_hex": "0xdfc5d3f61"
      },
      "gasLimit": {
        "_hex": "0x15f90"
      },
      "to": "0xf070658CD7E54bc4d8942D66B922AF803c33BF7C",
      "value": {
        "_hex": "0x0"
      },
      "nonce": 1,
      "data": "0x41c0e1b5",
      "r": "0x91204e21d7a8790672ef1b4548fdf8e675310bd1a2a4e937eb51760a36ac2561",
      "s": "0x438ef0b5ab9f01cb359206eea12d04b28c455b48b3d31da21e686c06bf1806d1",
      "v": 27,
      "creates": null,
      "raw": "0xf86901850dfc5d3f6183015f9094f070658cd7e54bc4d8942d66b922af803c33bf7c808441c0e1b51ba091204e21d7a8790672ef1b4548fdf8e675310bd1a2a4e937eb51760a36ac2561a0438ef0b5ab9f01cb359206eea12d04b28c455b48b3d31da21e686c06bf1806d1",
      "networkId": 0,
      "chainId": 0
    }
  ]
}