{
  "hash": "0x2d1283d293668587cfb38320c2a7d9b113839a4700ffe373c1cee940f387cb3e",
  "parentHash": "0x83a8957aefe7a7c61b5ef854ea09bfa6b14bcf3bd2ccbfd09604c91b70ebebda",
  "number": 68074,
  "timestamp": 1439282137,
  "nonce": "0x2fca4a76aa4ab66f",
  "difficulty": 1961995441638,
  "gasLimit": {
    "_hex": "0x2fefd8"
  },
  "gasUsed": {
    "_hex": "0x5208"
  },
  "miner": "0x75F9Ad8F648129cB38e85D8AB3018AF048e18F24",
  "extraData": "0x476574682f64616e69656c6e6f76792f76312e302e312f6c696e75782f676f31",
  "transactions": [
    {
      "hash": "0x025ba077ebe74e8c025b0cde7f1bc69139324e918bc26e2f0fb314a81b56f016",
      "blockHash": "0x2d1283d293668587cfb38320c2a7d9b113839a4700ffe373c1cee940f387cb3e",
      "blockNumber": 68074,
      "transactionIndex": 0,
      "confirmations": null,
      "from": "0x33F36DffD23cf019833E1d59cBc7138824b12289",
      "gasPrice": {
        "_hex": "0x746a528800"
      },
      "gasLimit": {
        "_hex": "0x5267"
      },
      "to": "0x117D2945355d346cE6637d6D5CC9A9E46CB43B73",
      "value": {
        "_hex": "0x27e19c66334760000"
      },
      "nonce": 3,
      "data": "0x",
      "r": "0x6eee44d6b66a6f5b30ba006c2c9e8cb9c54590b4425d5883babc9968bf4dbab5",
      "s": "0xc2e3313c8f2ad49e484913b54b7187ef6165216aefe9801c30876c5fbe777a3e",
      "v": 27,
      "creates": null,
      "raw": "0xf86d0385746a52880082526794117d2945355d346ce6637d6d5cc9a9e46cb43b7389027e19c66334760000801ba06eee44d6b66a6f5b30ba006c2c9e8cb9c54590b4425d5883babc9968bf4dbab5a0c2e3313c8f2ad49e484913b54b7187ef6165216aefe9801c30876c5fbe777a3e",
      "networkId": 0,
      "chainId": 0
    }
  ]
}