{
  "hash": "0x16bae52240526083dbf1811e69b1f93d3ff1c8c8373b40e9effacc6fa843958d",
  "parentHash": "0x2638af02dbb1d64614b809169632076d1e9ace6d6aff7cad3052695f14615a15",
  "number": 47167,
  "timestamp": 1438935415,
  "nonce": "0x589c44b8c3ae3e58",
  "difficulty": 1458105392802,
  "gasLimit": {
    "_hex": "0x9e81"
  },
  "gasUsed": {
    "_hex": "0x5208"
  },
  "miner": "0xe6A7a1d47ff21B6321162AEA7C6CB457D5476Bca",
  "extraData": "0x657468706f6f6c2e6f7267",
  "transactions": [
    {
      "hash": "0x97d8b2cf689fb311390cfc32ed868188ab7f76f722d7840dad5330997b636117",
      "blockHash": "0x16bae52240526083dbf1811e69b1f93d3ff1c8c8373b40e9effacc6fa843958d",
      "blockNumber": 47167,
      "transactionIndex": 0,
      "confirmations": null,
      "from": "0xe6A7a1d47ff21B6321162AEA7C6CB457D5476Bca",
      "gasPrice": {
        "_hex": "0xd0c4dad1b"
      },
      "gasLimit": {
        "_hex": "0x5208"
      },
      "to": "0x837A2A346557050c8cF0fb24b84Aa695E8Add19f",
      "value": {
        "_hex": "0x4797545e63c079d0"
      },
      "nonce": 60,
      "data": "0x",
      "r": "0x2f50f100ab262424aa9ed837fc4fb9be9e24fb56ca51cbd7033a0e9632264118",
      "s": "0x1247cd095580803213ab20d4eca7445bcdb101c8d61e501abfd119f1dd346241",
      "v": 27,
      "creates": null,
      "raw": "0xf86c3c850d0c4dad1b82520894837a2a346557050c8cf0fb24b84aa695e8add19f884797545e63c079d0801ba02f50f100ab262424aa9ed837fc4fb9be9e24fb56ca51cbd7033a0e9632264118a01247cd095580803213ab20d4eca7445bcdb101c8d61e501abfd119f1dd346241",
      "networkId": 0,
      "chainId": 0
    }
  ]
}