{
  "hash": "0x6099ec16761692de38f705e3e19552fd7ba834168a695a8d51e6031bd5257de0",
  "parentHash": "0x5896bf92adde51e36dccbf42bff5df9da43dfb0426c0b4d9f6aa863f1ed39137",
  "number": 88888,
  "timestamp": 1439615052,
  "nonce": "0x8804b3c42714986b",
  "difficulty": 3245729818286,
  "gasLimit": {
    "_hex": "0x2fefd8"
  },
  "gasUsed": {
    "_hex": "0x546c"
  },
  "miner": "0xe6A7a1d47ff21B6321162AEA7C6CB457D5476Bca",
  "extraData": "0x476574682f76312e302e312d38326566323666362f6c696e75782f676f312e34",
  "transactions": [
    {
      "hash": "0xdd18b384154c9ed534042cdc3a5a43250c7474a33d0c18a3dc5c3f571413b6e4",
      "blockHash": "0x6099ec16761692de38f705e3e19552fd7ba834168a695a8d51e6031bd5257de0",
      "blockNumber": 88888,
      "transactionIndex": 0,
      "confirmations": null,
      "from": "0x9d30cB237BC096f17036FC80dd21CA68992ca2d9",
      "gasPrice": {
        "_hex": "0x110c8f7d8de"
      },
      "gasLimit": {
        "_hex": "0xc350"
      },
      "to": "0x2910543Af39abA0Cd09dBb2D50200b3E800A63D2",
      "value": {
        "_hex": "0xad78ebc5ac6200000"
      },
      "nonce": 1,
      "data": "0x454e4e445759415947",
      "r": "0xd9316129c95f1759619e288c065522266a079213a93189ff8b5afbf637dd93ba",
      "s": "0x044d4fdb0802288f723a1c82991e42542a0c8dff06d3da0b677070ee694400b0",
      "v": 28,
      "creates": null,
      "raw": "0xf87701860110c8f7d8de82c350942910543af39aba0cd09dbb2d50200b3e800a63d2890ad78ebc5ac620000089454e4e4457594159471ca0d9316129c95f1759619e288c065522266a079213a93189ff8b5afbf637dd93baa0044d4fdb0802288f723a1c82991e42542a0c8dff06d3da0b677070ee694400b0",
      "networkId": 0,
      "chainId": 0
    }
  ]
}