{
  "hash": "0x30ef7ec5a44fc22285dc3f2a57435ed5f752766e2ff2c3778084063ce544f9ac",
  "parentHash": "0x435a38142baa57a34fc9fe0bf9e3a1b819dcaded49a5f3c4be1226ce1e818f4f",
  "number": 101240,
  "timestamp": 1439819675,
  "nonce": "0x40ca481ea1c89f11",
  "difficulty": 3822508309258,
  "gasLimit": {
    "_hex": "0x2fefd8"
  },
  "gasUsed": {
    "_hex": "0x5208"
  },
  "miner": "0x790b8a3cE86E707ED0eD32bF89B3269692a23CC1",
  "extraData": "0xd783010001844765746887676f312e342e32856c696e7578",
  "transactions": [
    {
      "hash": "0x4fd795148918430fa9cc7ef65cd345158686eee806800ff2027331dc90be66d7",
      "blockHash": "0x30ef7ec5a44fc22285dc3f2a57435ed5f752766e2ff2c3778084063ce544f9ac",
      "blockNumber": 101240,
      "transactionIndex": 0,
      "confirmations": null,
      "from": "0x42979fca296FEA2C163EA66E1900acDe7886F86F",
      "gasPrice": {
        "_hex": "0xd59ffc7e0"
      },
      "gasLimit": {
        "_hex": "0x15f90"
      },
      "to": "0x8ebE92ed6021914491025848aD1C093507418548",
      "value": {
        "_hex": "0x16345785d8a0000"
      },
      "nonce": 0,
      "data": "0x",
      "r": "0xfcbb7a68efedbb7202cbaae4ad9e184fbc442ef866d1adaa21e02ecf590ba179",
      "s": "0x18f1399479857c7dc202ba45d7704102cd67e19d951a222995818cdf8c8bdb47",
      "v": 28,
      "creates": null,
      "raw": "0xf86d80850d59ffc7e083015f90948ebe92ed6021914491025848ad1c09350741854888016345785d8a0000801ca0fcbb7a68efedbb7202cbaae4ad9e184fbc442ef866d1adaa21e02ecf590ba179a018f1399479857c7dc202ba45d7704102cd67e19d951a222995818cdf8c8bdb47",
      "networkId": 0,
      "chainId": 0
    }
  ]
}