{
  "hash": "0x00b040a5d9056a43cea5eec0f6f7263af9d1a448e71b904f05edfdbdd0ba27ee",
  "parentHash": "0xc7cdac2ee815eafdd118e89056cd1ea2d7d1995d0e7b1887fda867b1da1d3ab4",
  "number": 50370,
  "timestamp": 1438988112,
  "nonce": "0x2a001ae87ae3040f",
  "difficulty": 1508965114050,
  "gasLimit": {
    "_hex": "0x5ebeb"
  },
  "gasUsed": {
    "_hex": "0x546c"
  },
  "miner": "0x5c49320A0C821DaF65Db8378d8e8E1359c5CB1Fd",
  "extraData": "0x476574682f76312e302e312f6c696e75782f676f312e342e32",
  "transactions": [
    {
      "hash": "0x31435a36c87d5d0893587f638712d2ec792d9ec979034c7cd5723e469257f3c5",
      "blockHash": "0x00b040a5d9056a43cea5eec0f6f7263af9d1a448e71b904f05edfdbdd0ba27ee",
      "blockNumber": 50370,
      "transactionIndex": 0,
      "confirmations": null,
      "from": "0x3E8745BA322f5fd6cB50124Ec46688c7a69a7FaE",
      "gasPrice": {
        "_hex": "0xd8364fc25"
      },
      "gasLimit": {
        "_hex": "0x15f90"
      },
      "to": "0x2910543Af39abA0Cd09dBb2D50200b3E800A63D2",
      "value": {
        "_hex": "0x1b1ae4d6e2ef500000"
      },
      "nonce": 4,
      "data": "0x454e435250324d4a52",
      "r": "0xc7abc6da6c3e244c22eb485c6d2d9911355707b85bbe41a9caf9e0102fa53ce5",
      "s": "0x6c21b52ae53de0801449372cb9f5202ed442fa1c7716f604a9a3fc549681f35f",
      "v": 28,
      "creates": null,
      "raw": "0xf87704850d8364fc2583015f90942910543af39aba0cd09dbb2d50200b3e800a63d2891b1ae4d6e2ef50000089454e435250324d4a521ca0c7abc6da6c3e244c22eb485c6d2d9911355707b85bbe41a9caf9e0102fa53ce5a06c21b52ae53de0801449372cb9f5202ed442fa1c7716f604a9a3fc549681f35f",
      "networkId": 0,
      "chainId": 0
    }
  ]
}