{
  "hash": "0x69de8f5946cbf43131b0786d9df26cc1f031c1acba23faf78924402d9ba82bc5",
  "parentHash": "0x75e47a1af60602dc2c35d9401ea056ebfbbe9c41930fc5ebd4511c188329487e",
  "number": 98995,
  "timestamp": 1439782570,
  "nonce": "0x78ff987763a2a26d",
  "difficulty": 3836622516230,
  "gasLimit": {
    "_hex": "0x2fefd8"
  },
  "gasUsed": {
    "_hex": "0x5208"
  },
  "miner": "0x790b8a3cE86E707ED0eD32bF89B3269692a23CC1",
  "extraData": "0xd783010001844765746887676f312e342e32856c696e7578",
  "transactions": [
    {
      "hash": "0xb286c9050b18c82bdc199293da1e4ae3c7c912bba492c218837678fbe4487e99",
      "blockHash": "0x69de8f5946cbf43131b0786d9df26cc1f031c1acba23faf78924402d9ba82bc5",
      "blockNumber": 98995,
      "transactionIndex": 0,
      "confirmations": null,
      "from": "0x32Be343B94f860124dC4fEe278FDCBD38C102D88",
      "gasPrice": {
        "_hex": "0xd3553eca5"
      },
      "gasLimit": {
        "_hex": "0x5208"
      },
      "to": "0x0F87Fb507513e749081E34373c84E95e85b5c057",
      "value": {
        "_hex": "0x28f6d97c7428bc0000"
      },
      "nonce": 1052,
      "data": "0x",
      "r": "0x3150739125c33059b6a22d2201be3b4939f8cc1e17482e820a8f603e3d6dc199",
      "s": "0x1a17630af4bca7bc3b4788d7e29263b55c0273cd3c9fc000f6411a2d3555cccd",
      "v": 27,
      "creates": null,
      "raw": "0xf86f82041c850d3553eca5825208940f87fb507513e749081e34373c84e95e85b5c0578928f6d97c7428bc0000801ba03150739125c33059b6a22d2201be3b4939f8cc1e17482e820a8f603e3d6dc199a01a17630af4bca7bc3b4788d7e29263b55c0273cd3c9fc000f6411a2d3555cccd",
      "networkId": 0,
      "chainId": 0
    }
  ]
}