{
  "hash": "0x94f5239820fa3c9ce860bd9f9cea466672284fc4c02f0e5983752b22ec70da3d",
  "parentHash": "0xddc9005f8c770ac49bf56ff3f854b0fddacfc41ceee1b5a693df0e00437757fd",
  "number": 59327,
  "timestamp": 1439136385,
  "nonce": "0x1c4dca3a0c3bf31c",
  "difficulty": 1700567096270,
  "gasLimit": {
    "_hex": "0x2fefd8"
  },
  "gasUsed": {
    "_hex": "0x5208"
  },
  "miner": "0xecAb9B89BbB858a7e3DDe3ed0b13946eDAEb5533",
  "extraData": "0x476574682f76312e302e312d38326566323666362f6c696e75782f676f312e34",
  "transactions": [
    {
      "hash": "0x1c9c556f16efa29af9aad5d7fba9e00ff77d7877810d76f834b2fe775bfbfe94",
      "blockHash": "0x94f5239820fa3c9ce860bd9f9cea466672284fc4c02f0e5983752b22ec70da3d",
      "blockNumber": 59327,
      "transactionIndex": 0,
      "confirmations": null,
      "from": "0xeF0a7407D5b9AF9fA9f38f67aBB66d20686afb55",
      "gasPrice": {
        "_hex": "0xd57c5a50f"
      },
      "gasLimit": {
        "_hex": "0x15f90"
      },
      "to": "0xeC210EC3715d5918B37CFa4D344a45d177eD849f",
      "value": {
        "_hex": "0x36a4cf636319c0000"
      },
      "nonce": 2,
      "data": "0x",
      "r": "0x487b8ac2caa21a40e1a36fcafafb93d034987bf7d823e8257e055f59b190cc89",
      "s": "0x078aac3e805cd551d70298dda9881ca01d3a4928965e35dff94417b1dc814cd8",
      "v": 27,
      "creates": null,
      "raw": "0xf86e02850d57c5a50f83015f9094ec210ec3715d5918b37cfa4d344a45d177ed849f89036a4cf636319c0000801ba0487b8ac2caa21a40e1a36fcafafb93d034987bf7d823e8257e055f59b190cc89a0078aac3e805cd551d70298dda9881ca01d3a4928965e35dff94417b1dc814cd8",
      "networkId": 0,
      "chainId": 0
    }
  ]
}