{
  "hash": "0x3d8f07c3c4c320a32417bf84bc5df6a779a16dd7d86656680fd563486dbdcf72",
  "parentHash": "0x41ae0ffba2f2441a370440538f6119a5cfdc485ef13a79231609abb290e279e7",
  "number": 67004,
  "timestamp": 1439264156,
  "nonce": "0x52af7aaf6893a474",
  "difficulty": 1943176423859,
  "gasLimit": {
    "_hex": "0x2fefd8"
  },
  "gasUsed": {
    "_hex": "0x5208"
  },
  "miner": "0x88D74a59454F6cF3B51ef6b9136AFb6b9D405A88",
  "extraData": "0x476574682f76312e302e312d38326566323666362f6c696e75782f676f312e34",
  "transactions": [
    {
      "hash": "0x69fac224da287cc151696e29a0415ae2ce43126b32fbaea469d9c2fb37a27fd3",
      "blockHash": "0x3d8f07c3c4c320a32417bf84bc5df6a779a16dd7d86656680fd563486dbdcf72",
      "blockNumber": 67004,
      "transactionIndex": 0,
      "confirmations": null,
      "from": "0x120A270bbC009644e35F0bB6ab13f95b8199c4ad",
      "gasPrice": {
        "_hex": "0xcbccde380"
      },
      "gasLimit": {
        "_hex": "0x15f90"
      },
      "to": "0x29526660144f704b86Be58E5D74fd52c05b66F54",
      "value": {
        "_hex": "0x56bc75e2d63100000"
      },
      "nonce": 152,
      "data": "0x",
      "r": "0x80cdbcfe70a66853adcb22211a3bae085dbf8e50c0400913a412ee7b26f25141",
      "s": "0x7554fb21e7016f6f3afdd7c2ab682be9b2bb8b4a3e04841739f99b11b358be79",
      "v": 28,
      "creates": null,
      "raw": "0xf86f8198850cbccde38083015f909429526660144f704b86be58e5d74fd52c05b66f5489056bc75e2d63100000801ca080cdbcfe70a66853adcb22211a3bae085dbf8e50c0400913a412ee7b26f25141a07554fb21e7016f6f3afdd7c2ab682be9b2bb8b4a3e04841739f99b11b358be79",
      "networkId": 0,
      "chainId": 0
    }
  ]
}