{
  "hash": "0x994aaff02724aa1f2e0c60befd0406964f6b3a57d01fb771dcf69a50d0b0528f",
  "parentHash": "0x03c2c76fcb80b18407793dbe2a106553dcd77cc2223961f97ed0491a74c68ba4",
  "number": 72380,
  "timestamp": 1439351759,
  "nonce": "0xce3606517295338b",
  "difficulty": 2189778273609,
  "gasLimit": {
    "_hex": "0x2fefd8"
  },
  "gasUsed": {
    "_hex": "0x5208"
  },
  "miner": "0x1d6C4F7d4438bd7E81D4FE153Dd956bCaBcfF265",
  "extraData": "0x476574682f76312e302e312f77696e646f77732f676f312e342e32",
  "transactions": [
    {
      "hash": "0x0d49f658fd8e4067939a72b4bc4f4316753f8413112b685b72a0f9f345fd0930",
      "blockHash": "0x994aaff02724aa1f2e0c60befd0406964f6b3a57d01fb771dcf69a50d0b0528f",
      "blockNumber": 72380,
      "transactionIndex": 0,
      "confirmations": null,
      "from": "0x2C89f5FDcA3D155409b638B98A742E55eb4652B7",
      "gasPrice": {
        "_hex": "0x9184e72a000"
      },
      "gasLimit": {
        "_hex": "0x15f90"
      },
      "to": "0x1308A2e95c0160B90803ddCA9B9a5bb55E416d79",
      "value": {
        "_hex": "0x3635c9adc5dea00000"
      },
      "nonce": 10,
      "data": "0x",
      "r": "0xee515b663e02998ef8ae2a51b2540c61d5b0f272256fbaceed0d1c19327a84cc",
      "s": "0x1802e1f4a9eaac064bf3a6dd74aec32f505dc4f0ffad415beddaa9120c7226d0",
      "v": 28,
      "creates": null,
      "raw": "0xf86f0a8609184e72a00083015f90941308a2e95c0160b90803ddca9b9a5bb55e416d79893635c9adc5dea00000801ca0ee515b663e02998ef8ae2a51b2540c61d5b0f272256fbaceed0d1c19327a84cca01802e1f4a9eaac064bf3a6dd74aec32f505dc4f0ffad415beddaa9120c7226d0",
      "networkId": 0,
      "chainId": 0
    }
  ]
}