{
  "hash": "0x89a76aaebfe16f06a85de5b5a15f4b942f4039081049698dab831fc1307b64a0",
  "parentHash": "0x55e00cb739126c059b57a57a723cfc29a50a1f270984aa8b64776ea6aab7e753",
  "number": 87339,
  "timestamp": 1439590625,
  "nonce": "0x02b161ac5618cfd1",
  "difficulty": 3117394443342,
  "gasLimit": {
    "_hex": "0x2fefd8"
  },
  "gasUsed": {
    "_hex": "0xa410"
  },
  "miner": "0xe6A7a1d47ff21B6321162AEA7C6CB457D5476Bca",
  "extraData": "0x476574682f76312e302e312d38326566323666362f6c696e75782f676f312e34",
  "transactions": [
    {
      "hash": "0xb5e7dcef87cc59ec542b8acb7bce3de629601c31b604875dde9100bff53061cb",
      "blockHash": "0x89a76aaebfe16f06a85de5b5a15f4b942f4039081049698dab831fc1307b64a0",
      "blockNumber": 87339,
      "transactionIndex": 0,
      "confirmations": null,
      "from": "0x06EC48800B2DB3eEfa052e98A9b5Fc2Bf783Ee74",
      "gasPrice": {
        "_hex": "0xdab38e325"
      },
      "gasLimit": {
        "_hex": "0x5208"
      },
      "to": "0x32Be343B94f860124dC4fEe278FDCBD38C102D88",
      "value": {
        "_hex": "0x1e83416567bee5000"
      },
      "nonce": 7,
      "data": "0x",
      "r": "0xcea435810c60527a2c29dddae0b5822cca01daee5b2cf02449ed9a882bbf43bc",
      "s": "0x4b056ca868d54dfeed952f9484627de4304efa01d986a4237d2416df7ba7abea",
      "v": 27,
      "creates": null,
      "raw": "0xf86d07850dab38e3258252089432be343b94f860124dc4fee278fdcbd38c102d888901e83416567bee5000801ba0cea435810c60527a2c29dddae0b5822cca01daee5b2cf02449ed9a882bbf43bca04b056ca868d54dfeed952f9484627de4304efa01d986a4237d2416df7ba7abea",
      "networkId": 0,
      "chainId": 0
    },
    {
      "hash": "0xaeccca7ed00f79dca9e7c318bc8d2445270243c958dc4de67ef132706558ff6e",
      "blockHash": "0x89a76aaebfe16f06a85de5b5a15f4b942f4039081049698dab831fc1307b64a0",
      "blockNumber": 87339,
      "transactionIndex": 1,
      "confirmations": null,
      "from": "0xa70a9a7040d542C632D8e0bE7c5513A8a5Bbc752",
      "gasPrice": {
        "_hex": "0xdab38e325"
      },
      "gasLimit": {
        "_hex": "0x5208"
      },
      "to": "0x32Be343B94f860124dC4fEe278FDCBD38C102D88",
      "value": {
        "_hex": "0x45639956f0f1d400"
      },
      "nonce": 99,
      "data": "0x",
      "r": "0x57dd202f0504c6c1e7cdeee600bf2f36b1a97cbc5bdfcf6db8b62efbcc307055",
      "s": "0x57c7a1db2c02cf525435c332d56da835f0ae2c94800335d7127ce42b3fefc6bc",
      "v": 28,
      "creates": null,
      "raw": "0xf86c63850dab38e3258252089432be343b94f860124dc4fee278fdcbd38c102d888845639956f0f1d400801ca057dd202f0504c6c1e7cdeee600bf2f36b1a97cbc5bdfcf6db8b62efbcc307055a057c7a1db2c02cf525435c332d56da835f0ae2c94800335d7127ce42b3fefc6bc",
      "networkId": 0,
      "chainId": 0
    }
  ]
}