{
  "hash": "0x46cd5885af1cde4abde12819d8785321408dd0c35e1ba9870bd08cdfd40a1be7",
  "parentHash": "0xc385c503770f5f63ad85bdcf452c56a82fadfa13360ffe5dbd426dce2c1bcd67",
  "number": 80933,
  "timestamp": 1439493517,
  "nonce": "0x1b3415799e42f84e",
  "difficulty": 2439193431832,
  "gasLimit": {
    "_hex": "0x2fefd8"
  },
  "gasUsed": {
    "_hex": "0x14a84"
  },
  "miner": "0x157c6f2431eB1a95797EE86F7d17b3c0FD47A247",
  "extraData": "0x476574682f76312e302e312f77696e646f77732f676f312e342e32",
  "transactions": [
    {
      "hash": "0xe76367906e959f7d1830e91a8d6f1d5a679bcda6d1bcf0745b1addfda2347fe6",
      "blockHash": "0x46cd5885af1cde4abde12819d8785321408dd0c35e1ba9870bd08cdfd40a1be7",
      "blockNumber": 80933,
      "transactionIndex": 0,
      "confirmations": null,
      "from": "0xb7A7F77C348F92a9F1100C6bD829a8Ac6D7fCf91",
      "gasPrice": {
        "_hex": "0x110c8f7d8de"
      },
      "gasLimit": {
        "_hex": "0xc350"
      },
      "to": "0x2910543Af39abA0Cd09dBb2D50200b3E800A63D2",
      "value": {
        "_hex": "0x8ac7230489e80000"
      },
      "nonce": 2,
      "data": "0x454e54315859434647",
      "r": "0xabf9bdec0d64e58c7265d6e1f57f7885760a2442e81f3febf19eb83304c6f74c",
      "s": "0x83b6a4fdaab7593f1b4260e05a63c42acbabfd9977287e915aac30aba79fce56",
      "v": 27,
      "creates": null,
      "raw": "0xf87602860110c8f7d8de82c350942910543af39aba0cd09dbb2d50200b3e800a63d2888ac7230489e8000089454e543158594346471ba0abf9bdec0d64e58c7265d6e1f57f7885760a2442e81f3febf19eb83304c6f74ca083b6a4fdaab7593f1b4260e05a63c42acbabfd9977287e915aac30aba79fce56",
      "networkId": 0,
      "chainId": 0
    },
    {
      "hash": "0x220cd982aaedcc082b6d4d32bf21d70c44069fed3c5d5137d3b1a5b38c4e10b5",
      "blockHash": "0x46cd5885af1cde4abde12819d8785321408dd0c35e1ba9870bd08cdfd40a1be7",
      "blockNumber": 80933,
      "transactionIndex": 1,
      "confirmations": null,
      "from": "0xaA9485EBA854ABA86Bfdd64C8f4f08Badd0f31C3",
      "gasPrice": {
        "_hex": "0xce5ded049"
      },
      "gasLimit": {
        "_hex": "0x5208"
      },
      "to": "0x32Be343B94f860124dC4fEe278FDCBD38C102D88",
      "value": {
        "_hex": "0xa1d591952acd000"
      },
      "nonce": 3,
      "data": "0x",
      "r": "0xe4317be58ad5a1ddfd165fc544bc8529a65d637a9ca125ed568a1ca5a077d6ff",
      "s": "0x143bb2b00ff76977043baabb202cf464892994d8ce8b02578e720e9bdeb739a0",
      "v": 27,
      "creates": null,
      "raw": "0xf86c03850ce5ded0498252089432be343b94f860124dc4fee278fdcbd38c102d88880a1d591952acd000801ba0e4317be58ad5a1ddfd165fc544bc8529a65d637a9ca125ed568a1ca5a077d6ffa0143bb2b00ff76977043baabb202cf464892994d8ce8b02578e720e9bdeb739a0",
      "networkId": 0,
      "chainId": 0
    },
    {
      "hash": "0xf2c82b8cb9b1a63c701e2935fa79682c24b84c0b4f7f8239dc4fd067b83990ac",
      "blockHash": "0x46cd5885af1cde4abde12819d8785321408dd0c35e1ba9870bd08cdfd40a1be7",
      "blockNumber": 80933,
      "transactionIndex": 2,
      "confirmations": null,
      "from": "0x738e836870D34d909F8De81Ae8c759cf55f4EAaF",
      "gasPrice": {
        "_hex": "0xce5ded049"
      },
      "gasLimit": {
        "_hex": "0x5208"
      },
      "to": "0x32Be343B94f860124dC4fEe278FDCBD38C102D88",
      "value": {
        "_hex": "0x9d3591891bad700000"
      },
      "nonce": 1,
      "data": "0x",
      "r": "0x8f3863d483bdca8bb5e6eed0c45691cc050a5b9273d04d1d9a66543c8943e0e5",
      "s": "0x0f672b935b08421c74b1550405d00f17a93b45cf5cbfd75cb921c46ff8c3f86b",
      "v": 27,
      "creates": null,
      "raw": "0xf86d01850ce5ded0498252089432be343b94f860124dc4fee278fdcbd38c102d88899d3591891bad700000801ba08f3863d483bdca8bb5e6eed0c45691cc050a5b9273d04d1d9a66543c8943e0e5a00f672b935b08421c74b1550405d00f17a93b45cf5cbfd75cb921c46ff8c3f86b",
      "networkId": 0,
      "chainId": 0
    },
    {
      "hash": "0xaae9fc5187d930370ebd3038ebb3d09cf58c662422fb7d70a91f7ba526f32dff",
      "blockHash": "0x46cd5885af1cde4abde12819d8785321408dd0c35e1ba9870bd08cdfd40a1be7",
      "blockNumber": 80933,
      "transactionIndex": 3,
      "confirmations": null,
      "from": "0x0D4EcC7d750180EBf4A9Df728B6669B5Bceb5E40",
      "gasPrice": {
        "_hex": "0xce5ded049"
      },
      "gasLimit": {
        "_hex": "0x5208"
      },
      "to": "0x32Be343B94f860124dC4fEe278FDCBD38C102D88",
      "value": {
        "_hex": "0x3406800e97f79800"
      },
      "nonce": 8,
      "data": "0x",
      "r": "0x43c502839b8313e9fb8e28b3af60fdd006550730117045cdbabf5a7d68763ed9",
      "s": "0x10fe2b8cd2a65ad48e30263cfcc0737737f6d1b353a6e55775e10d73dd2ed18f",
      "v": 28,
      "creates": null,
      "raw": "0xf86c08850ce5ded0498252089432be343b94f860124dc4fee278fdcbd38c102d88883406800e97f79800801ca043c502839b8313e9fb8e28b3af60fdd006550730117045cdbabf5a7d68763ed9a010fe2b8cd2a65ad48e30263cfcc0737737f6d1b353a6e55775e10d73dd2ed18f",
      "networkId": 0,
      "chainId": 0
    }
  ]
}