{
  "hash": "0x817fad7db7d12513159fbd430517f5592387b941fafdcaff62f7922d09f3416d",
  "parentHash": "0xd5a132b6f8da635333730473e3768efd20d84341a1a5321015985334854556b6",
  "number": 54510,
  "timestamp": 1439055254,
  "nonce": "0x786d20004d465809",
  "difficulty": 1619665428886,
  "gasLimit": {
    "_hex": "0x2fefd8"
  },
  "gasUsed": {
    "_hex": "0x5208"
  },
  "miner": "0xCE09fD3E23b65BaD12809190a19b6BFCFfD48c35",
  "extraData": "0xdd809b302e392e34302b2b373237362d524c696e75782f672b2b2f4a4954",
  "transactions": [
    {
      "hash": "0xaa6ab054ba93e3135099896512cce6077684c2d9ec9bfffc03663d83a5fd773a",
      "blockHash": "0x817fad7db7d12513159fbd430517f5592387b941fafdcaff62f7922d09f3416d",
      "blockNumber": 54510,
      "transactionIndex": 0,
      "confirmations": null,
      "from": "0x255BdD6474cC8262f26a22C38f45940e1Ceea69B",
      "gasPrice": {
        "_hex": "0xda312a0a8"
      },
      "gasLimit": {
        "_hex": "0x15f90"
      },
      "to": "0x60780933D9a5A8e8E3ab20CB6382cd314f04065F",
      "value": {
        "_hex": "0xdb4447a313f38b8"
      },
      "nonce": 2,
      "data": "0x",
      "r": "0x72d3404864228c2e6d87255638b2d5a7d7dd2e735a0af0634384887d40940d78",
      "s": "0x0cf7dcf61373c8a468121a3442d91c1d7fe7c616a57c905837a9610975c5254b",
      "v": 28,
      "creates": null,
      "raw": "0xf86d02850da312a0a883015f909460780933d9a5a8e8e3ab20cb6382cd314f04065f880db4447a313f38b8801ca072d3404864228c2e6d87255638b2d5a7d7dd2e735a0af0634384887d40940d78a00cf7dcf61373c8a468121a3442d91c1d7fe7c616a57c905837a9610975c5254b",
      "networkId": 0,
      "chainId": 0
    }
  ]
}