{
  "hash": "0xbb93fed748c925a86dd729fb07bfc228941be378fedb66fb7f1f9d29206d0c64",
  "parentHash": "0xc383d951be96c5073d2f577e5c723a8980df57ae9e32a228fc9a88ebc622c95e",
  "number": 72869,
  "timestamp": 1439359493,
  "nonce": "0x9c2b31e847036072",
  "difficulty": 2195002985953,
  "gasLimit": {
    "_hex": "0x2fefd8"
  },
  "gasUsed": {
    "_hex": "0x5208"
  },
  "miner": "0xf8E0CA3Ed80bd541b94BEdCf259e8CF2141A9523",
  "extraData": "0x476574682f76312e302e312f77696e646f77732f676f312e342e32",
  "transactions": [
    {
      "hash": "0x64f1d2bbc8d7d81cfee86fba45c589afe2224cb2dea6b31990a52119517f643c",
      "blockHash": "0xbb93fed748c925a86dd729fb07bfc228941be378fedb66fb7f1f9d29206d0c64",
      "blockNumber": 72869,
      "transactionIndex": 0,
      "confirmations": null,
      "from": "0xa70a9a7040d542C632D8e0bE7c5513A8a5Bbc752",
      "gasPrice": {
        "_hex": "0xdc090c4b9"
      },
      "gasLimit": {
        "_hex": "0x5208"
      },
      "to": "0x32Be343B94f860124dC4fEe278FDCBD38C102D88",
      "value": {
        "_hex": "0x455f29661fb68c00"
      },
      "nonce": 19,
      "data": "0x",
      "r": "0xa3e6cc85660e22c12c0d02440e993a8d1e326dcb72e7d2463ced3015bdb269e6",
      "s": "0x446238a85f946e1e4fb971f1f9fc2185232ca0b66179d2ea31c26557d24341a5",
      "v": 28,
      "creates": null,
      "raw": "0xf86c13850dc090c4b98252089432be343b94f860124dc4fee278fdcbd38c102d8888455f29661fb68c00801ca0a3e6cc85660e22c12c0d02440e993a8d1e326dcb72e7d2463ced3015bdb269e6a0446238a85f946e1e4fb971f1f9fc2185232ca0b66179d2ea31c26557d24341a5",
      "networkId": 0,
      "chainId": 0
    }
  ]
}