{
  "hash": "0xb1ca044b4fa5cd31c0d484222e25de35aeeb6d0c60117af6dfd29a04e38ec8c2",
  "parentHash": "0xf34bdb7131ecb5b6bf9efe579f1c07beebce264d4e781a2839334d29137abdd3",
  "number": 104170,
  "timestamp": 1439865508,
  "nonce": "0xe4096f1862d67a9b",
  "difficulty": 4266991962543,
  "gasLimit": {
    "_hex": "0x2fefd8"
  },
  "gasUsed": {
    "_hex": "0x5208"
  },
  "miner": "0xe6A7a1d47ff21B6321162AEA7C6CB457D5476Bca",
  "extraData": "0x476574682f76312e302e312d38326566323666362f6c696e75782f676f312e34",
  "transactions": [
    {
      "hash": "0xfde30cc204bc357f38fff0a1c929171be3de40cd8754c0e5b4d61d50cfd98b12",
      "blockHash": "0xb1ca044b4fa5cd31c0d484222e25de35aeeb6d0c60117af6dfd29a04e38ec8c2",
      "blockNumber": 104170,
      "transactionIndex": 0,
      "confirmations": null,
      "from": "0x32Be343B94f860124dC4fEe278FDCBD38C102D88",
      "gasPrice": {
        "_hex": "0xcb3e57c95"
      },
      "gasLimit": {
        "_hex": "0x5208"
      },
      "to": "0x0a0105788d1E1Edb95d9D21140f17F2a08F343fB",
      "value": {
        "_hex": "0x1aeec63479a94d000"
      },
      "nonce": 1148,
      "data": "0x",
      "r": "0x3d0ec6ab343c452513f32c180c5459b388b875e720c5fab4c23deea65089e110",
      "s": "0x6b9067a74325c1787af9606ef15302428e693566ec342929ee7dc69a0720b7e3",
      "v": 27,
      "creates": null,
      "raw": "0xf86f82047c850cb3e57c95825208940a0105788d1e1edb95d9d21140f17f2a08f343fb8901aeec63479a94d000801ba03d0ec6ab343c452513f32c180c5459b388b875e720c5fab4c23deea65089e110a06b9067a74325c1787af9606ef15302428e693566ec342929ee7dc69a0720b7e3",
      "networkId": 0,
      "chainId": 0
    }
  ]
}