{
  "hash": "0x18136fd49507b3cf5a11488f6303b3fd1b20eb26eaf5d32d948ab4e4d9479215",
  "parentHash": "0xaae9571a5d5b393f72a6f65917d8f63f19a7d7bd1f8b29a6266d163390336065",
  "number": 67194,
  "timestamp": 1439267660,
  "nonce": "0xd51a37d433d5ea39",
  "difficulty": 1924248862815,
  "gasLimit": {
    "_hex": "0x2fefd8"
  },
  "gasUsed": {
    "_hex": "0x5208"
  },
  "miner": "0xf927a40C8B7F6E07c5af7FA2155B4864a4112B13",
  "extraData": "0x",
  "transactions": [
    {
      "hash": "0xbb0f551bcacff6e3c3b09efcdb46cb4358027b5fc37439b73ee9344c85023740",
      "blockHash": "0x18136fd49507b3cf5a11488f6303b3fd1b20eb26eaf5d32d948ab4e4d9479215",
      "blockNumber": 67194,
      "transactionIndex": 0,
      "confirmations": null,
      "from": "0xD35dB22141772c5b778CaE0ec680EF1fEcF357bD",
      "gasPrice": {
        "_hex": "0xcc27bbb72"
      },
      "gasLimit": {
        "_hex": "0x55f0"
      },
      "to": "0x29aeA5f51879982Fdb53Fb4F0720823Ed77E49Dc",
      "value": {
        "_hex": "0x1158e460913d00000"
      },
      "nonce": 0,
      "data": "0x",
      "r": "0xc9547553f20e69ace30931537ff3de6f05d8e770b1652557973f9a1d95163beb",
      "s": "0x5c3d64d877ed98975ae4b2df2e44312a28e7f8ad4d6acffa8e6cf253811a057f",
      "v": 27,
      "creates": null,
      "raw": "0xf86d80850cc27bbb728255f09429aea5f51879982fdb53fb4f0720823ed77e49dc8901158e460913d00000801ba0c9547553f20e69ace30931537ff3de6f05d8e770b1652557973f9a1d95163beba05c3d64d877ed98975ae4b2df2e44312a28e7f8ad4d6acffa8e6cf253811a057f",
      "networkId": 0,
      "chainId": 0
    }
  ]
}