{
  "hash": "0xc19f3119196a2a6606fa7aaa1d7411abe27fc360500d1656b90bd4fd9e0a80ed",
  "parentHash": "0xa4bb0298a7bb07763d976fd9c63ed6bea302bdbea6ebd09d4d8de71c1aff018c",
  "number": 81023,
  "timestamp": 1439494810,
  "nonce": "0x73cdde9206faab85",
  "difficulty": 2436786425501,
  "gasLimit": {
    "_hex": "0x2fefd8"
  },
  "gasUsed": {
    "_hex": "0x5208"
  },
  "miner": "0xe090Ffdced499691fA9379752a59F8A058c1eE4A",
  "extraData": "0x476574682f76312e302e312f6c696e75782f676f312e342e32",
  "transactions": [
    {
      "hash": "0xd042841a886067c602be962f5e10d94e5f3a093c87b65734d07024d49b15239b",
      "blockHash": "0xc19f3119196a2a6606fa7aaa1d7411abe27fc360500d1656b90bd4fd9e0a80ed",
      "blockNumber": 81023,
      "transactionIndex": 0,
      "confirmations": null,
      "from": "0x9E6f2758B1aDF663a2626eC9cd73A35Dc3106a9E",
      "gasPrice": {
        "_hex": "0xba43b7400"
      },
      "gasLimit": {
        "_hex": "0x5208"
      },
      "to": "0xC47Aaa860008be6f65B58c6C6E02a84e666EfE31",
      "value": {
        "_hex": "0x65c7f25d2132cdc0"
      },
      "nonce": 0,
      "data": "0x",
      "r": "0x515d9ca42d5b7a2b0a5fb8e95e85d146ea4e08fbf6509bb9d9e5230d13124444",
      "s": "0x1ca50f54e0fb192080470e45bf87cbdc8ceee4e9f99ad29329eed308e750c513",
      "v": 28,
      "creates": null,
      "raw": "0xf86c80850ba43b740082520894c47aaa860008be6f65b58c6c6e02a84e666efe318865c7f25d2132cdc0801ca0515d9ca42d5b7a2b0a5fb8e95e85d146ea4e08fbf6509bb9d9e5230d13124444a01ca50f54e0fb192080470e45bf87cbdc8ceee4e9f99ad29329eed308e750c513",
      "networkId": 0,
      "chainId": 0
    }
  ]
}