{
  "hash": "0xeaeb571bab2060f68865ea62110f6aa995393cb7b90eae19c17b9dde8f26ca3d",
  "parentHash": "0xde38b9ad7162eb88ac048d4695a7ec7c6d101f5dde5162d3b4b8da64223264ee",
  "number": 47172,
  "timestamp": 1438935542,
  "nonce": "0x2452f27014a74c7f",
  "difficulty": 1458816662706,
  "gasLimit": {
    "_hex": "0x9f3f"
  },
  "gasUsed": {
    "_hex": "0x5208"
  },
  "miner": "0x123843545FB525C8E134c9A5F15ADA6865cc3848",
  "extraData": "0x476574682f76312e302e312f77696e646f77732f676f312e342e32",
  "transactions": [
    {
      "hash": "0x1b32a21e41b579392c4f7a40b6cc653e3ef32b2d8651aa01b3c74717686df9a6",
      "blockHash": "0xeaeb571bab2060f68865ea62110f6aa995393cb7b90eae19c17b9dde8f26ca3d",
      "blockNumber": 47172,
      "transactionIndex": 0,
      "confirmations": null,
      "from": "0x8a780aB87a9145fe10Ed60FA476a740af4CAB1d2",
      "gasPrice": {
        "_hex": "0xcba73f946"
      },
      "gasLimit": {
        "_hex": "0x88b8"
      },
      "to": "0x6dA78495a1077714f3Fc0f082109545D8c3C0032",
      "value": {
        "_hex": "0x120d4da7b0bd140000"
      },
      "nonce": 0,
      "data": "0x",
      "r": "0xc0333a40ac3ac5ef837e90a51e507fc7c4bd10acb6fef8fa13a8b3d370cef576",
      "s": "0x61442dfa4929376ddf42fc8823022ad1c26580c788b12257d4bf302445ba4669",
      "v": 28,
      "creates": null,
      "raw": "0xf86d80850cba73f9468288b8946da78495a1077714f3fc0f082109545d8c3c003289120d4da7b0bd140000801ca0c0333a40ac3ac5ef837e90a51e507fc7c4bd10acb6fef8fa13a8b3d370cef576a061442dfa4929376ddf42fc8823022ad1c26580c788b12257d4bf302445ba4669",
      "networkId": 0,
      "chainId": 0
    }
  ]
}