{
  "hash": "0xca084957ca1ca6a1cc787114c645355ef4942de923f51541254634dcb7a2152c",
  "parentHash": "0x2fc222a96a37713ad21904445751f850275b8d761ab964bab82fd0620530660d",
  "number": 100733,
  "timestamp": 1439811511,
  "nonce": "0x2c1af89a98250ea5",
  "difficulty": 3832083607676,
  "gasLimit": {
    "_hex": "0x2fefd8"
  },
  "gasUsed": {
    "_hex": "0x5208"
  },
  "miner": "0x157c6f2431eB1a95797EE86F7d17b3c0FD47A247",
  "extraData": "0x476574682f76312e302e312f77696e646f77732f676f312e342e32",
  "transactions": [
    {
      "hash": "0x1e78126e24c81f0dce11a83555db38fd7d4f5b84423f837a850358969b65a28a",
      "blockHash": "0xca084957ca1ca6a1cc787114c645355ef4942de923f51541254634dcb7a2152c",
      "blockNumber": 100733,
      "transactionIndex": 0,
      "confirmations": null,
      "from": "0x7884D470204862a0d1A21122F41ee77430396Ee5",
      "gasPrice": {
        "_hex": "0xe0ee9d0fd"
      },
      "gasLimit": {
        "_hex": "0x15f90"
      },
      "to": "0xE9f1bbcC9F6d340c67Dac6983ab7fc17051Aa1C2",
      "value": {
        "_hex": "0x16345785d8a0000"
      },
      "nonce": 70,
      "data": "0x",
      "r": "0xab92a0edc8fa449f57ba70c66f429cd42e4904d110d4833052835818dc3fea08",
      "s": "0x6037bc60609922d2e957c3ade44f6bfce4d8f06bad590f29bf09af63b45b74f8",
      "v": 28,
      "creates": null,
      "raw": "0xf86d46850e0ee9d0fd83015f9094e9f1bbcc9f6d340c67dac6983ab7fc17051aa1c288016345785d8a0000801ca0ab92a0edc8fa449f57ba70c66f429cd42e4904d110d4833052835818dc3fea08a06037bc60609922d2e957c3ade44f6bfce4d8f06bad590f29bf09af63b45b74f8",
      "networkId": 0,
      "chainId": 0
    }
  ]
}