{
  "hash": "0x3308f76cfaf196fa1abf6866ef2ccc2d95babd749760d67c6e7a9f6ce2ddbc81",
  "parentHash": "0xc510db3cf8c66ac4bdc12b15f1fba42890a30e5cb179d12b56786df838406940",
  "number": 75305,
  "timestamp": 1439400993,
  "nonce": "0x0c00dbf868cff1ae",
  "difficulty": 2198655722018,
  "gasLimit": {
    "_hex": "0x2fefd8"
  },
  "gasUsed": {
    "_hex": "0xff7f"
  },
  "miner": "0xbb7B8287f3F0a933474a79eAe42CBCa977791171",
  "extraData": "0x476574682f4c5649562f76312e302e312f6c696e75782f676f312e342e32",
  "transactions": [
    {
      "hash": "0xa4abe2ef075b9b5182752bbdcbd06b683a1a7d93db2429763a191d8c45bc9e6d",
      "blockHash": "0x3308f76cfaf196fa1abf6866ef2ccc2d95babd749760d67c6e7a9f6ce2ddbc81",
      "blockNumber": 75305,
      "transactionIndex": 0,
      "confirmations": null,
      "from": "0x87C5B5874A18B4306DF8a752a6C8cc3E82daFc19",
      "gasPrice": {
        "_hex": "0x10ecc2e34c7"
      },
      "gasLimit": {
        "_hex": "0x493e0"
      },
      "to": "0xD79B4C6791784184e2755B2fC1659eaaB0f80456",
      "value": {
        "_hex": "0x0"
      },
      "nonce": 42,
      "data": "0x03750d940000000000000000000000009724ac4dc56e03379eba5d157d1513ecc32cbd8f3463303637396563633765333230363000000000000000000000000000000000",
      "r": "0xbab04a4bf442c8c0353faf635c661d7b3d2ed08ebd2952d397ad551fbf101049",
      "s": "0x16f41b79d3837a5a5a17332827e76a15cb21755b2e5caa2011ab9810b880c835",
      "v": 28,
      "creates": null,
      "raw": "0xf8ab2a86010ecc2e34c7830493e094d79b4c6791784184e2755b2fc1659eaab0f8045680b84403750d940000000000000000000000009724ac4dc56e03379eba5d157d1513ecc32cbd8f34633036373965636337653332303630000000000000000000000000000000001ca0bab04a4bf442c8c0353faf635c661d7b3d2ed08ebd2952d397ad551fbf101049a016f41b79d3837a5a5a17332827e76a15cb21755b2e5caa2011ab9810b880c835",
      "networkId": 0,
      "chainId": 0
    },
    {
      "hash": "0xaa81438a895acf8d50d9c329c2bfb10631804d4a0a8d21a15afadcc408512bd2",
      "blockHash": "0x3308f76cfaf196fa1abf6866ef2ccc2d95babd749760d67c6e7a9f6ce2ddbc81",
      "blockNumber": 75305,
      "transactionIndex": 1,
      "confirmations": null,
      "from": "0xa9f5E7bf6Cbf6fEc55B30850Eb492b47A376d050",
      "gasPrice": {
        "_hex": "0xcf6fb6740"
      },
      "gasLimit": {
        "_hex": "0x5208"
      },
      "to": "0x32Be343B94f860124dC4fEe278FDCBD38C102D88",
      "value": {
        "_hex": "0xbdf38242baf2e0000"
      },
      "nonce": 14,
      "data": "0x",
      "r": "0xb288bc63b27eafe03304f57c18e98bcb8c3775bb94d7f704ea3da7c43bb753c9",
      "s": "0x611588180efdaa4f1f8bde554fe2457dca15f147d509e934e3af6783506c2492",
      "v": 27,
      "creates": null,
      "raw": "0xf86d0e850cf6fb67408252089432be343b94f860124dc4fee278fdcbd38c102d88890bdf38242baf2e0000801ba0b288bc63b27eafe03304f57c18e98bcb8c3775bb94d7f704ea3da7c43bb753c9a0611588180efdaa4f1f8bde554fe2457dca15f147d509e934e3af6783506c2492",
      "networkId": 0,
      "chainId": 0
    }
  ]
}