{
  "hash": "0x2398a4fda65ed50fc4df2a231dda4e72d17a7fee7a059bfaacfe27addedae783",
  "parentHash": "0x3eea051bffd8d2dc6dffd2f87bc2b94819ab2e857b89f61d40db49d6e8ada520",
  "number": 101250,
  "timestamp": 1439819864,
  "nonce": "0x1b57c1f486a62445",
  "difficulty": 3815045210346,
  "gasLimit": {
    "_hex": "0x2fefd8"
  },
  "gasUsed": {
    "_hex": "0x29b97"
  },
  "miner": "0xe6A7a1d47ff21B6321162AEA7C6CB457D5476Bca",
  "extraData": "0x476574682f76312e302e312d38326566323666362f6c696e75782f676f312e34",
  "transactions": [
    {
      "hash": "0x14c906a009fd0521af9f8120ffd9ed0c14c01c521050157f434d799030e2e0c3",
      "blockHash": "0x2398a4fda65ed50fc4df2a231dda4e72d17a7fee7a059bfaacfe27addedae783",
      "blockNumber": 101250,
      "transactionIndex": 0,
      "confirmations": null,
      "from": "0x775e18be7A50a0Abb8A4e82B1bD697D79F31fE04",
      "gasPrice": {
        "_hex": "0xdee66d9d6"
      },
      "gasLimit": {
        "_hex": "0xf4240"
      },
      "to": "0xde0B295669a9FD93d5F28D9Ec85E40f4cb697BAe",
      "value": {
        "_hex": "0x0"
      },
      "nonce": 8,
      "data": "0xb61d27f6000000000000000000000000883903542907ea85643c9625a3e69e9bfb5c783800000000000000000000000000000000000000000000e025fc631854ad76400000000000000000000000000000000000000000000000000000000000000000600000000000000000000000000000000000000000000000000000000000000000",
      "r": "0x4133ef8056c4cdc0378b417ec99f8c9b3ea2e75d0026fcadb11cca67dd12cc69",
      "s": "0x7bfc963de2b837330ea46bfd70a86dd37ef2c3f59eceec748b5c594d5e1f2dab",
      "v": 28,
      "creates": null,
      "raw": "0xf8ea08850dee66d9d6830f424094de0b295669a9fd93d5f28d9ec85e40f4cb697bae80b884b61d27f6000000000000000000000000883903542907ea85643c9625a3e69e9bfb5c783800000000000000000000000000000000000000000000e025fc631854ad764000000000000000000000000000000000000000000000000000000000000000006000000000000000000000000000000000000000000000000000000000000000001ca04133ef8056c4cdc0378b417ec99f8c9b3ea2e75d0026fcadb11cca67dd12cc69a07bfc963de2b837330ea46bfd70a86dd37ef2c3f59eceec748b5c594d5e1f2dab",
      "networkId": 0,
      "chainId": 0
    }
  ]
}