{
  "hash": "0x18d88a68caec58c2a45122702fc083089bdcf92a0182260fa6370505d56afab8",
  "parentHash": "0x2c0474147fdea611bf2852eb938aedf8e856ecbf60fda3f22b9467473d8345d6",
  "number": 80506,
  "timestamp": 1439486502,
  "nonce": "0xe1eedbc683b208dd",
  "difficulty": 2416791857162,
  "gasLimit": {
    "_hex": "0x2fefd8"
  },
  "gasUsed": {
    "_hex": "0x33a77"
  },
  "miner": "0x181F9AcDf63AbE5CC05917d3549Bec724d756350",
  "extraData": "0x476574682f76312e302e312f6c696e75782f676f312e342e32",
  "transactions": [
    {
      "hash": "0x83f7b856925b158b814dd66ff28ac9d8492d54ac1b1393119f35387fb187e32c",
      "blockHash": "0x18d88a68caec58c2a45122702fc083089bdcf92a0182260fa6370505d56afab8",
      "blockNumber": 80506,
      "transactionIndex": 0,
      "confirmations": null,
      "from": "0x87C5B5874A18B4306DF8a752a6C8cc3E82daFc19",
      "gasPrice": {
        "_hex": "0x10c161f4328"
      },
      "gasLimit": {
        "_hex": "0x493e0"
      },
      "to": "0xC4c51de1AbF5D60DBd329eC0F999Fd8f021ae9fC",
      "value": {
        "_hex": "0x0"
      },
      "nonce": 227,
      "data": "0x03750d9400000000000000000000000087c5b5874a18b4306df8a752a6c8cc3e82dafc196b6b6b0000000000000000000000000000000000000000000000000000000000",
      "r": "0x9afc984100af44f27a03c62170fb33afdcb268147f5868e4bab31db45d7cfccd",
      "s": "0x2399c5adc53be5a80b4e9307e2f038987855d23f05be8849e8c88d67825c36eb",
      "v": 27,
      "creates": null,
      "raw": "0xf8ac81e386010c161f4328830493e094c4c51de1abf5d60dbd329ec0f999fd8f021ae9fc80b84403750d9400000000000000000000000087c5b5874a18b4306df8a752a6c8cc3e82dafc196b6b6b00000000000000000000000000000000000000000000000000000000001ba09afc984100af44f27a03c62170fb33afdcb268147f5868e4bab31db45d7cfccda02399c5adc53be5a80b4e9307e2f038987855d23f05be8849e8c88d67825c36eb",
      "networkId": 0,
      "chainId": 0
    },
    {
      "hash": "0x90ad46df99165ef276e272bfff98b3d4449e7484874332ae5ff689ca1ca6511b",
      "blockHash": "0x18d88a68caec58c2a45122702fc083089bdcf92a0182260fa6370505d56afab8",
      "blockNumber": 80506,
      "transactionIndex": 1,
      "confirmations": null,
      "from": "0x910a4aADabb3A7B3F7879118332E13Da66b68D77",
      "gasPrice": {
        "_hex": "0xd437e5a0b"
      },
      "gasLimit": {
        "_hex": "0x5208"
      },
      "to": "0x32Be343B94f860124dC4fEe278FDCBD38C102D88",
      "value": {
        "_hex": "0x1158a0601c7448000"
      },
      "nonce": 14,
      "data": "0x",
      "r": "0x48e5ae9ee47a32f047f7528ef0235e0c33656d66312d7aa07ec6bc4d3d717225",
      "s": "0x55aace6186568f0ceb6d0b00e7995dc10766225bc2fa56be02b3dc6413be582e",
      "v": 28,
      "creates": null,
      "raw": "0xf86d0e850d437e5a0b8252089432be343b94f860124dc4fee278fdcbd38c102d888901158a0601c7448000801ca048e5ae9ee47a32f047f7528ef0235e0c33656d66312d7aa07ec6bc4d3d717225a055aace6186568f0ceb6d0b00e7995dc10766225bc2fa56be02b3dc6413be582e",
      "networkId": 0,
      "chainId": 0
    },
    {
      "hash": "0x5bc5cb806dfd5f6f205de830878ee4facdf8c05c11bd7ce8b9ae2d0c8f6eb447",
      "blockHash": "0x18d88a68caec58c2a45122702fc083089bdcf92a0182260fa6370505d56afab8",
      "blockNumber": 80506,
      "transactionIndex": 2,
      "confirmations": null,
      "from": "0xa6BDc31c431B8F97848c9D60cbbe9660dc450eB7",
      "gasPrice": {
        "_hex": "0xd437e5a0b"
      },
      "gasLimit": {
        "_hex": "0x5208"
      },
      "to": "0x32Be343B94f860124dC4fEe278FDCBD38C102D88",
      "value": {
        "_hex": "0x34066d18131fa400"
      },
      "nonce": 44,
      "data": "0x",
      "r": "0xe84c75b570697f93d56af58295535c12a923c1a2f191139af22b5364e59cbf0b",
      "s": "0x267e7c74addccf709216094fe0d5726687729f08ffbe8f4a4ce67f3ec20281d5",
      "v": 27,
      "creates": null,
      "raw": "0xf86c2c850d437e5a0b8252089432be343b94f860124dc4fee278fdcbd38c102d888834066d18131fa400801ba0e84c75b570697f93d56af58295535c12a923c1a2f191139af22b5364e59cbf0ba0267e7c74addccf709216094fe0d5726687729f08ffbe8f4a4ce67f3ec20281d5",
      "networkId": 0,
      "chainId": 0
    },
    {
      "hash": "0x14241c313502d3838e1d09f194cc171b0e91bbe13c667043a6d95a94451be1fe",
      "blockHash": "0x18d88a68caec58c2a45122702fc083089bdcf92a0182260fa6370505d56afab8",
      "blockNumber": 80506,
      "transactionIndex": 3,
      "confirmations": null,
      "from": "0xF5EeDc192aB70b08D8354384aD94efD095849E00",
      "gasPrice": {
        "_hex": "0xd437e5a0b"
      },
      "gasLimit": {
        "_hex": "0x5208"
      },
      "to": "0x32Be343B94f860124dC4fEe278FDCBD38C102D88",
      "value": {
        "_hex": "0x2b5df6f0d10f0a000"
      },
      "nonce": 33,
      "data": "0x",
      "r": "0x05292f7dc69d246bdab62489cc6140fba83fa43e2f099631dea6672bb950149c",
      "s": "0x1781314dde3bcaf2d9332ce868d978490a83614c281691f2eb91a23071fe5045",
      "v": 28,
      "creates": null,
      "raw": "0xf86d21850d437e5a0b8252089432be343b94f860124dc4fee278fdcbd38c102d888902b5df6f0d10f0a000801ca005292f7dc69d246bdab62489cc6140fba83fa43e2f099631dea6672bb950149ca01781314dde3bcaf2d9332ce868d978490a83614c281691f2eb91a23071fe5045",
      "networkId": 0,
      "chainId": 0
    },
    {
      "hash": "0x08f431d282f035948a04ce9996acf11ceb1a622a7f24b92a2f4cd762addbed59",
      "blockHash": "0x18d88a68caec58c2a45122702fc083089bdcf92a0182260fa6370505d56afab8",
      "blockNumber": 80506,
      "transactionIndex": 4,
      "confirmations": null,
      "from": "0xc8b25f8890816e7F491d8EE02BA8b4548c73D3A4",
      "gasPrice": {
        "_hex": "0xd437e5a0b"
      },
      "gasLimit": {
        "_hex": "0x5208"
      },
      "to": "0x32Be343B94f860124dC4fEe278FDCBD38C102D88",
      "value": {
        "_hex": "0x6c4fcdb904c59c0000"
      },
      "nonce": 5,
      "data": "0x",
      "r": "0x03ab88fe5915750f8786b8b78ff797f535475f630f13e75ae1f8fd403a68efe9",
      "s": "0x255c6c6f0bd8eae9eecbe2f9a9d5fa3acd17cacc4c37acb0949197d8adf52513",
      "v": 28,
      "creates": null,
      "raw": "0xf86d05850d437e5a0b8252089432be343b94f860124dc4fee278fdcbd38c102d88896c4fcdb904c59c0000801ca003ab88fe5915750f8786b8b78ff797f535475f630f13e75ae1f8fd403a68efe9a0255c6c6f0bd8eae9eecbe2f9a9d5fa3acd17cacc4c37acb0949197d8adf52513",
      "networkId": 0,
      "chainId": 0
    },
    {
      "hash": "0xef80087803c865c1b667bdb8b482c44f4143695dd60aa0a8f76ee7beb8f98536",
      "blockHash": "0x18d88a68caec58c2a45122702fc083089bdcf92a0182260fa6370505d56afab8",
      "blockNumber": 80506,
      "transactionIndex": 5,
      "confirmations": null,
      "from": "0x1527fcd698B3A8707bb745F80ab114FfF3Db35E2",
      "gasPrice": {
        "_hex": "0xd437e5a0b"
      },
      "gasLimit": {
        "_hex": "0x5208"
      },
      "to": "0x32Be343B94f860124dC4fEe278FDCBD38C102D88",
      "value": {
        "_hex": "0x756b027825da400"
      },
      "nonce": 0,
      "data": "0x",
      "r": "0xb40862216839d402098c9a36d9185fb7b47333b13e3735f82924015adad3fe5d",
      "s": "0x0d044b400cd5642787143b4463b2c8ddd1074d28a06ca8cd4f46900ea8b348d5",
      "v": 27,
      "creates": null,
      "raw": "0xf86c80850d437e5a0b8252089432be343b94f860124dc4fee278fdcbd38c102d88880756b027825da400801ba0b40862216839d402098c9a36d9185fb7b47333b13e3735f82924015adad3fe5da00d044b400cd5642787143b4463b2c8ddd1074d28a06ca8cd4f46900ea8b348d5",
      "networkId": 0,
      "chainId": 0
    },
    {
      "hash": "0x670958a98d5348876beea1a327a06e412009231285e1e863f049dfb101d8b3a3",
      "blockHash": "0x18d88a68caec58c2a45122702fc083089bdcf92a0182260fa6370505d56afab8",
      "blockNumber": 80506,
      "transactionIndex": 6,
      "confirmations": null,
      "from": "0x357BCEA183e0438656287b3AA482606276b95d9A",
      "gasPrice": {
        "_hex": "0xd437e5a0b"
      },
      "gasLimit": {
        "_hex": "0x5208"
      },
      "to": "0x32Be343B94f860124dC4fEe278FDCBD38C102D88",
      "value": {
        "_hex": "0xddc76aa06cca400"
      },
      "nonce": 0,
      "data": "0x",
      "r": "0xa48ec6e20366afc0c48a539488e239f0c06006c03c37e71c5352be0baae0fac7",
      "s": "0x40a33ff724f416e9ba4fd965d7135e12ce12cb8b98374a4e7fa36f0ba75fda7b",
      "v": 28,
      "creates": null,
      "raw": "0xf86c80850d437e5a0b8252089432be343b94f860124dc4fee278fdcbd38c102d88880ddc76aa06cca400801ca0a48ec6e20366afc0c48a539488e239f0c06006c03c37e71c5352be0baae0fac7a040a33ff724f416e9ba4fd965d7135e12ce12cb8b98374a4e7fa36f0ba75fda7b",
      "networkId": 0,
      "chainId": 0
    },
    {
      "hash": "0x25f3bfaeacdf60ca807d8f238a2dded546b96a513ac057814c46c6f3afedcabb",
      "blockHash": "0x18d88a68caec58c2a45122702fc083089bdcf92a0182260fa6370505d56afab8",
      "blockNumber": 80506,
      "transactionIndex": 7,
      "confirmations": null,
      "from": "0xD2a69d19BaD610A0CaE27bb4545C4afd40A207B7",
      "gasPrice": {
        "_hex": "0xd437e5a0b"
      },
      "gasLimit": {
        "_hex": "0x5208"
      },
      "to": "0x32Be343B94f860124dC4fEe278FDCBD38C102D88",
      "value": {
        "_hex": "0x17efee287ed2400"
      },
      "nonce": 0,
      "data": "0x",
      "r": "0xe08ffc6a4635c6c59f88015b274171925951aeda6649aaf2a89326ccf45d04f1",
      "s": "0x534db5d1214a81d14d78c1c9df5027b6848b20e5604640c6341b70f791e771e4",
      "v": 27,
      "creates": null,
      "raw": "0xf86c80850d437e5a0b8252089432be343b94f860124dc4fee278fdcbd38c102d8888017efee287ed2400801ba0e08ffc6a4635c6c59f88015b274171925951aeda6649aaf2a89326ccf45d04f1a0534db5d1214a81d14d78c1c9df5027b6848b20e5604640c6341b70f791e771e4",
      "networkId": 0,
      "chainId": 0
    },
    {
      "hash": "0xc502333551d8a7584cba0d3185bf77f3c0ea7e25bf73a153e327866f688eddbe",
      "blockHash": "0x18d88a68caec58c2a45122702fc083089bdcf92a0182260fa6370505d56afab8",
      "blockNumber": 80506,
      "transactionIndex": 8,
      "confirmations": null,
      "from": "0x55bAf64fc9eAccFFd7Cc643BB61142E1C6ac093e",
      "gasPrice": {
        "_hex": "0xd0c74920a"
      },
      "gasLimit": {
        "_hex": "0x55f0"
      },
      "to": "0xfE439e496730A23d448f85fA219972ea04793aB7",
      "value": {
        "_hex": "0xde0b6b3a7640000"
      },
      "nonce": 4,
      "data": "0x",
      "r": "0x5edab8f5b2eb0a68183056349a1a6d83718bf8252008c2c96d7ce3828abe75ef",
      "s": "0x27996209a8dda289ba1fc4308052ce9b318683906327d63552d9604465ec92f8",
      "v": 27,
      "creates": null,
      "raw": "0xf86c04850d0c74920a8255f094fe439e496730a23d448f85fa219972ea04793ab7880de0b6b3a7640000801ba05edab8f5b2eb0a68183056349a1a6d83718bf8252008c2c96d7ce3828abe75efa027996209a8dda289ba1fc4308052ce9b318683906327d63552d9604465ec92f8",
      "networkId": 0,
      "chainId": 0
    }
  ]
}