{
  "hash": "0xd19bad7ad853ebacff35fc93b2a77686324a854349bca256d0ab234296668373",
  "parentHash": "0x28e8a8c3622635f4a392db82f8d32a4f3b463d438746643519b310f24c2d2465",
  "number": 83249,
  "timestamp": 1439532633,
  "nonce": "0x118b6696754cec24",
  "difficulty": 2414822316410,
  "gasLimit": {
    "_hex": "0x2fefd8"
  },
  "gasUsed": {
    "_hex": "0x5208"
  },
  "miner": "0x0037ce3d4B7f8729C8607D8D0248252Be68202c0",
  "extraData": "0x476574682f76312e302e312f77696e646f77732f676f312e342e32",
  "transactions": [
    {
      "hash": "0x13258d11b30e45f7813f3a079074bda297177bedcc2405cb3050b4ff58c3b9dc",
      "blockHash": "0xd19bad7ad853ebacff35fc93b2a77686324a854349bca256d0ab234296668373",
      "blockNumber": 83249,
      "transactionIndex": 0,
      "confirmations": null,
      "from": "0x723E05fF30e4ba7A87b4D7D459eE5B488A9c36d1",
      "gasPrice": {
        "_hex": "0xce56230f1"
      },
      "gasLimit": {
        "_hex": "0x15f90"
      },
      "to": "0xabceA603089850F8f6bB612A9031554D90A247CF",
      "value": {
        "_hex": "0x1806a2b3d36520000"
      },
      "nonce": 19,
      "data": "0x",
      "r": "0x64adda70a7afbc768c9e12f4362aabe8a329049765d776c5ccc1dda44094447f",
      "s": "0x26befc19162934daf39156ceba299f986fd392bccbb79a86d450b8757abdf735",
      "v": 27,
      "creates": null,
      "raw": "0xf86e13850ce56230f183015f9094abcea603089850f8f6bb612a9031554d90a247cf8901806a2b3d36520000801ba064adda70a7afbc768c9e12f4362aabe8a329049765d776c5ccc1dda44094447fa026befc19162934daf39156ceba299f986fd392bccbb79a86d450b8757abdf735",
      "networkId": 0,
      "chainId": 0
    }
  ]
}