{
  "hash": "0xd7f36719f8decbe42704f5b2a00f82e9dc9501824f95b289643298b392b51e38",
  "parentHash": "0x40609e665d4cb67c4a5f26f3d4a08b75d396537b3e2df0d7a0e0776fb8238687",
  "number": 119047,
  "timestamp": 1440135791,
  "nonce": "0x563e3a518c175ce3",
  "difficulty": 4426945600591,
  "gasLimit": {
    "_hex": "0x2fefd8"
  },
  "gasUsed": {
    "_hex": "0x5208"
  },
  "miner": "0x52bc44d5378309EE2abF1539BF71dE1b7d7bE3b5",
  "extraData": "0xd783010002844765746887676f312e342e32856c696e7578",
  "transactions": [
    {
      "hash": "0x850eee71adb7d06903f3854b5039b7fcc7d43e48a57fc2539ee2fee1a8d1e959",
      "blockHash": "0xd7f36719f8decbe42704f5b2a00f82e9dc9501824f95b289643298b392b51e38",
      "blockNumber": 119047,
      "transactionIndex": 0,
      "confirmations": null,
      "from": "0xFBb1b73C4f0BDa4f67dcA266ce6Ef42f520fBB98",
      "gasPrice": {
        "_hex": "0xba43b7400"
      },
      "gasLimit": {
        "_hex": "0x5208"
      },
      "to": "0x1Fabd401B08dF84f615091C14C6db1a5E0BeaD0c",
      "value": {
        "_hex": "0x12b174a3b3788400"
      },
      "nonce": 247,
      "data": "0x",
      "r": "0x28ea1425e265b9b990dc94906bb3366216ab81b6b73a74aeb5823ad315561f43",
      "s": "0x7c416b7df3cdc7da87c40d0317b7ed998cbd5e8754297e9de67f779b1779f8e7",
      "v": 27,
      "creates": null,
      "raw": "0xf86d81f7850ba43b7400825208941fabd401b08df84f615091c14c6db1a5e0bead0c8812b174a3b3788400801ba028ea1425e265b9b990dc94906bb3366216ab81b6b73a74aeb5823ad315561f43a07c416b7df3cdc7da87c40d0317b7ed998cbd5e8754297e9de67f779b1779f8e7",
      "networkId": 0,
      "chainId": 0
    }
  ]
}