{
  "hash": "0x0c83b894d6e66dc8fb7292d2b88c9db8c729e86d085bb10e8f34ac81bb2988b7",
  "parentHash": "0xdfcef74bfe38716215ba54e88ed504fe1590aa84d53231a382d4e755123eb5a2",
  "number": 49196,
  "timestamp": 1438969608,
  "nonce": "0xa44985b70e23fea0",
  "difficulty": 1478541602941,
  "gasLimit": {
    "_hex": "0x28975"
  },
  "gasUsed": {
    "_hex": "0x5208"
  },
  "miner": "0xbb7B8287f3F0a933474a79eAe42CBCa977791171",
  "extraData": "0x476574682f4c5649562f76312e302e312f6c696e75782f676f312e342e32",
  "transactions": [
    {
      "hash": "0xc3d7e7c14cf54dd934e824f660b5b60d7d466bdbdefbc9768e84394e21d23898",
      "blockHash": "0x0c83b894d6e66dc8fb7292d2b88c9db8c729e86d085bb10e8f34ac81bb2988b7",
      "blockNumber": 49196,
      "transactionIndex": 0,
      "confirmations": null,
      "from": "0xDD3b3C2c929F76DcfA8bE2F127DCEe66c985d05a",
      "gasPrice": {
        "_hex": "0xd68cd3dd6"
      },
      "gasLimit": {
        "_hex": "0x5208"
      },
      "to": "0xBFdD9820a04283b289957956353b5F3C1F665EcF",
      "value": {
        "_hex": "0x2f2f39fc6c5400000"
      },
      "nonce": 0,
      "data": "0x",
      "r": "0x679e596c1495c84f2d26fd43d2a62393776494516f2625c4340a3cad8f19c5b0",
      "s": "0x6876e178bd3f9b317a5e424682eb14a97a79935d766c9c5b6ec0d1eaa73b7f03",
      "v": 27,
      "creates": null,
      "raw": "0xf86d80850d68cd3dd682520894bfdd9820a04283b289957956353b5f3c1f665ecf8902f2f39fc6c5400000801ba0679e596c1495c84f2d26fd43d2a62393776494516f2625c4340a3cad8f19c5b0a06876e178bd3f9b317a5e424682eb14a97a79935d766c9c5b6ec0d1eaa73b7f03",
      "networkId": 0,
      "chainId": 0
    }
  ]
}