{
  "hash": "0x534caf731a0a22ada435e013cf76004eff8eb0e49d045cbb0747b37c73234d61",
  "parentHash": "0x5a69f33f74e38d54197848eba2dd6b46156c0a12a87f4f98f42d4740c0c4476c",
  "number": 109836,
  "timestamp": 1439963288,
  "nonce": "0xfcdf5fdcd77c9a37",
  "difficulty": 4421002569425,
  "gasLimit": {
    "_hex": "0x2fefd8"
  },
  "gasUsed": {
    "_hex": "0x5208"
  },
  "miner": "0xe6A7a1d47ff21B6321162AEA7C6CB457D5476Bca",
  "extraData": "0x476574682f76312e302e312d38326566323666362f6c696e75782f676f312e34",
  "transactions": [
    {
      "hash": "0xe3bfe957aa1abe74d48aa38740c68291003e90e5abbdedebf71eba919cf81e88",
      "blockHash": "0x534caf731a0a22ada435e013cf76004eff8eb0e49d045cbb0747b37c73234d61",
      "blockNumber": 109836,
      "transactionIndex": 0,
      "confirmations": null,
      "from": "0x2910543Af39abA0Cd09dBb2D50200b3E800A63D2",
      "gasPrice": {
        "_hex": "0xd4fdf4970"
      },
      "gasLimit": {
        "_hex": "0x5208"
      },
      "to": "0x65553f5e8FA2eDfCe37Aec51A90ed28777dDe402",
      "value": {
        "_hex": "0x14c48f52ebccb9000"
      },
      "nonce": 1082,
      "data": "0x",
      "r": "0xe4eced548d6b0253878ae648e5a483487d7bd3121cce2b14fb6002de5915108a",
      "s": "0x57593203a420afe098048913712815dee964aeb65d7fbc2c865ed3d8dadb8645",
      "v": 28,
      "creates": null,
      "raw": "0xf86f82043a850d4fdf49708252089465553f5e8fa2edfce37aec51a90ed28777dde40289014c48f52ebccb9000801ca0e4eced548d6b0253878ae648e5a483487d7bd3121cce2b14fb6002de5915108aa057593203a420afe098048913712815dee964aeb65d7fbc2c865ed3d8dadb8645",
      "networkId": 0,
      "chainId": 0
    }
  ]
}