{
  "hash": "0x34bff306798b536ff33c975cebdcad3f31e58dddcef702acc35c2d440a6d2718",
  "parentHash": "0x8a3885a6fc10a6374fe4b24b88bfdb1beaa043e79ebf063a7b70375a0ed49d04",
  "number": 58073,
  "timestamp": 1439114740,
  "nonce": "0x5b9740325d68843b",
  "difficulty": 1709146431165,
  "gasLimit": {
    "_hex": "0x2fefd8"
  },
  "gasUsed": {
    "_hex": "0xf87c"
  },
  "miner": "0xf8E0CA3Ed80bd541b94BEdCf259e8CF2141A9523",
  "extraData": "0x476574682f76312e302e312f77696e646f77732f676f312e342e32",
  "transactions": [
    {
      "hash": "0x2270e487ebc0423e1325e39e985c7548cae24f68d5e119c5c0b06b487fadeb1c",
      "blockHash": "0x34bff306798b536ff33c975cebdcad3f31e58dddcef702acc35c2d440a6d2718",
      "blockNumber": 58073,
      "transactionIndex": 0,
      "confirmations": null,
      "from": "0x120A270bbC009644e35F0bB6ab13f95b8199c4ad",
      "gasPrice": {
        "_hex": "0xdcc19b964"
      },
      "gasLimit": {
        "_hex": "0x15f90"
      },
      "to": "0x97f5585473fe2644e4cf3b9802b168647B4ec882",
      "value": {
        "_hex": "0x1ee040ad9c0ad32000"
      },
      "nonce": 42,
      "data": "0x",
      "r": "0xe8adb01b719d1e618d03cdbf35aec27f5de0c44720c2782e6ee7b56fabc6aa73",
      "s": "0x12f6c7dc6f4e445975e36004f7148bdc36e2740479524fd73b759af6298adaa2",
      "v": 27,
      "creates": null,
      "raw": "0xf86e2a850dcc19b96483015f909497f5585473fe2644e4cf3b9802b168647b4ec882891ee040ad9c0ad32000801ba0e8adb01b719d1e618d03cdbf35aec27f5de0c44720c2782e6ee7b56fabc6aa73a012f6c7dc6f4e445975e36004f7148bdc36e2740479524fd73b759af6298adaa2",
      "networkId": 0,
      "chainId": 0
    },
    {
      "hash": "0x4733c485f954aedbe9275218f78dacc088a5d0951152e79078b921e2983b1caf",
      "blockHash": "0x34bff306798b536ff33c975cebdcad3f31e58dddcef702acc35c2d440a6d2718",
      "blockNumber": 58073,
      "transactionIndex": 1,
      "confirmations": null,
      "from": "0x120A270bbC009644e35F0bB6ab13f95b8199c4ad",
      "gasPrice": {
        "_hex": "0xd3e262ffa"
      },
      "gasLimit": {
        "_hex": "0x15f90"
      },
      "to": "0x5e95D6E811fe4F27124569DBF42C8B636754637e",
      "value": {
        "_hex": "0x7b7f586312ee40800"
      },
      "nonce": 43,
      "data": "0x",
      "r": "0x65eb1b5dc132937aac636df8fd55ad07ff8cdc7459a4e4933d0a58bfeb4d470e",
      "s": "0x7f988ff7b034a1d4d331632a793f6cb34d6459e5ee38a84c243cf16d0e7852b6",
      "v": 27,
      "creates": null,
      "raw": "0xf86e2b850d3e262ffa83015f90945e95d6e811fe4f27124569dbf42c8b636754637e8907b7f586312ee40800801ba065eb1b5dc132937aac636df8fd55ad07ff8cdc7459a4e4933d0a58bfeb4d470ea07f988ff7b034a1d4d331632a793f6cb34d6459e5ee38a84c243cf16d0e7852b6",
      "networkId": 0,
      "chainId": 0
    },
    {
      "hash": "0xc712ddbac113dd09f0a8702ccbb84eabd63d92b9989f823278ddcdd12e05eb2d",
      "blockHash": "0x34bff306798b536ff33c975cebdcad3f31e58dddcef702acc35c2d440a6d2718",
      "blockNumber": 58073,
      "transactionIndex": 2,
      "confirmations": null,
      "from": "0x116A09dF66cb150E97578E297fB06e13040c893c",
      "gasPrice": {
        "_hex": "0xcf39be05d"
      },
      "gasLimit": {
        "_hex": "0x15f90"
      },
      "to": "0x2910543Af39abA0Cd09dBb2D50200b3E800A63D2",
      "value": {
        "_hex": "0xc7d713b49da0000"
      },
      "nonce": 4,
      "data": "0x454e4d373645325638",
      "r": "0xa6038b7bf2ad2a8e72756e3835a37baebdbc4ee8684651b6304b496669d372ce",
      "s": "0x286a0abe9cc2b007511b3f5e7fdca634728fead80957755105aaed85250defba",
      "v": 28,
      "creates": null,
      "raw": "0xf87604850cf39be05d83015f90942910543af39aba0cd09dbb2d50200b3e800a63d2880c7d713b49da000089454e4d3736453256381ca0a6038b7bf2ad2a8e72756e3835a37baebdbc4ee8684651b6304b496669d372cea0286a0abe9cc2b007511b3f5e7fdca634728fead80957755105aaed85250defba",
      "networkId": 0,
      "chainId": 0
    }
  ]
}