{
  "hash": "0xe7b6aebc47e8ca327ba5cc89bf0e76c55b446c67855caf903b4296dc076155cb",
  "parentHash": "0xeafb9f0b58ded1ede5663050da377b6da9079ba1a9a0dcf9abff2088eed15fd7",
  "number": 85836,
  "timestamp": 1439569527,
  "nonce": "0x5c0b238b3fbc779a",
  "difficulty": 2774519231280,
  "gasLimit": {
    "_hex": "0x2fefd8"
  },
  "gasUsed": {
    "_hex": "0x5208"
  },
  "miner": "0x6DE55b563cE6E319cCB403032Da3BE5Ad4ec4FcF",
  "extraData": "0x",
  "transactions": [
    {
      "hash": "0x01da5a3d6e2552fa6ea14971b875e86be2521325cb27f7c789aef2c0ed044cf2",
      "blockHash": "0xe7b6aebc47e8ca327ba5cc89bf0e76c55b446c67855caf903b4296dc076155cb",
      "blockNumber": 85836,
      "transactionIndex": 0,
      "confirmations": null,
      "from": "0xA4158Fb0fb25BD56BB6aAf915203C5F3144Da3dd",
      "gasPrice": {
        "_hex": "0xba43b7400"
      },
      "gasLimit": {
        "_hex": "0x5208"
      },
      "to": "0xC47Aaa860008be6f65B58c6C6E02a84e666EfE31",
      "value": {
        "_hex": "0x1b9a2b7cb20338f0"
      },
      "nonce": 0,
      "data": "0x",
      "r": "0x97e7729b0b3cb1ef1cbb3bf8d5ece2f0e330300f8c1e80247eae07f80f372dce",
      "s": "0x3a8056ac8f32312cc397e2c390a03cafaa5b7ffe47410cc76b0222fdaf5766c9",
      "v": 27,
      "creates": null,
      "raw": "0xf86c80850ba43b740082520894c47aaa860008be6f65b58c6c6e02a84e666efe31881b9a2b7cb20338f0801ba097e7729b0b3cb1ef1cbb3bf8d5ece2f0e330300f8c1e80247eae07f80f372dcea03a8056ac8f32312cc397e2c390a03cafaa5b7ffe47410cc76b0222fdaf5766c9",
      "networkId": 0,
      "chainId": 0
    }
  ]
}