{
  "hash": "0x18a091c872bd15a5010a251e9e0f845583d1b4f616f2344868ad40165c84a331",
  "parentHash": "0x3e1dcd1fbe92db0fd1d0010fd3e6ff965b746950bf3924591f658ec1174f6191",
  "number": 90082,
  "timestamp": 1439634018,
  "nonce": "0x5015931fc2869df8",
  "difficulty": 3335230013679,
  "gasLimit": {
    "_hex": "0x2fefd8"
  },
  "gasUsed": {
    "_hex": "0x5208"
  },
  "miner": "0xBD744E3F13D79B33F6c8E1d5E32F8E9BA2866c46",
  "extraData": "0x476574682f76312e302e312d39613032663533372f6c696e75782f676f312e34",
  "transactions": [
    {
      "hash": "0xf8bf352f7efe05c864d2ae82918c39d230c89b7edd1cbeb675499cebd81a9801",
      "blockHash": "0x18a091c872bd15a5010a251e9e0f845583d1b4f616f2344868ad40165c84a331",
      "blockNumber": 90082,
      "transactionIndex": 0,
      "confirmations": null,
      "from": "0xB70f652788a24CeB11C0b586677b03679ccaCE6a",
      "gasPrice": {
        "_hex": "0xda4a6640a"
      },
      "gasLimit": {
        "_hex": "0x15f90"
      },
      "to": "0x64aF60Be7c74AE1D077e7F350114a5098D179b4a",
      "value": {
        "_hex": "0x1fa8a0c9d5dc20000"
      },
      "nonce": 2,
      "data": "0x",
      "r": "0x39f0189867071429e94c8c42057d438ed433b083528d04f9b15cff5122198207",
      "s": "0x3abfab64c9dfc05495e25d6d03576ce0fd98892650ab0fb4ded5212565ba3e7a",
      "v": 27,
      "creates": null,
      "raw": "0xf86e02850da4a6640a83015f909464af60be7c74ae1d077e7f350114a5098d179b4a8901fa8a0c9d5dc20000801ba039f0189867071429e94c8c42057d438ed433b083528d04f9b15cff5122198207a03abfab64c9dfc05495e25d6d03576ce0fd98892650ab0fb4ded5212565ba3e7a",
      "networkId": 0,
      "chainId": 0
    }
  ]
}