{
  "hash": "0x0dd3be8d75dbb257641d2f3b9fb45ca25beb34ee5a68019040e6a87eec4155f1",
  "parentHash": "0xdf2ce3246186eb257ea736a108d0e65d215b2049240966e5b65a5e08be2507ff",
  "number": 83078,
  "timestamp": 1439529907,
  "nonce": "0x9804514ef7490dfe",
  "difficulty": 2399591315038,
  "gasLimit": {
    "_hex": "0x2fefd8"
  },
  "gasUsed": {
    "_hex": "0x5208"
  },
  "miner": "0x445Aa5d2cB3Bc1A77460aB63C13328368d12fb9F",
  "extraData": "0x",
  "transactions": [
    {
      "hash": "0xbce7659a4d6953d8f459e961e1c103ff722dcdfc3c93c6cf1bd7241203033dbe",
      "blockHash": "0x0dd3be8d75dbb257641d2f3b9fb45ca25beb34ee5a68019040e6a87eec4155f1",
      "blockNumber": 83078,
      "transactionIndex": 0,
      "confirmations": null,
      "from": "0x87898CE53471043FcCa0a2aF4E1dC6d8B3fCf607",
      "gasPrice": {
        "_hex": "0xd6fde96c6"
      },
      "gasLimit": {
        "_hex": "0x5208"
      },
      "to": "0xBFdD9820a04283b289957956353b5F3C1F665EcF",
      "value": {
        "_hex": "0x1158e460913d00000"
      },
      "nonce": 32,
      "data": "0x",
      "r": "0x687751565433b9d48473fa799698ac0626b28f88e95d7844a1e260b1057a0838",
      "s": "0x0522d53cf03588c1c4df57b5467a8de670038d104398dcfe0c321dfd9bc93ada",
      "v": 27,
      "creates": null,
      "raw": "0xf86d20850d6fde96c682520894bfdd9820a04283b289957956353b5f3c1f665ecf8901158e460913d00000801ba0687751565433b9d48473fa799698ac0626b28f88e95d7844a1e260b1057a0838a00522d53cf03588c1c4df57b5467a8de670038d104398dcfe0c321dfd9bc93ada",
      "networkId": 0,
      "chainId": 0
    }
  ]
}