{
  "hash": "0x663c5e0e393f5e084ce01ebba0aaddde7a957b8d934f5d9ec24c8827cc1682dd",
  "parentHash": "0x710c0c3d6c99b076db2ade2d07be9a897870be8fc0eb836fcfb89b7699571088",
  "number": 104573,
  "timestamp": 1439871976,
  "nonce": "0x0898b0e97815c7a1",
  "difficulty": 4361577209363,
  "gasLimit": {
    "_hex": "0x2fefd8"
  },
  "gasUsed": {
    "_hex": "0x5208"
  },
  "miner": "0xe6A7a1d47ff21B6321162AEA7C6CB457D5476Bca",
  "extraData": "0x476574682f76312e302e312d38326566323666362f6c696e75782f676f312e34",
  "transactions": [
    {
      "hash": "0xe68bda9dd03bffcc235ecdadaaa2b944a287a551e3b505c247f815dec8891260",
      "blockHash": "0x663c5e0e393f5e084ce01ebba0aaddde7a957b8d934f5d9ec24c8827cc1682dd",
      "blockNumber": 104573,
      "transactionIndex": 0,
      "confirmations": null,
      "from": "0x120A270bbC009644e35F0bB6ab13f95b8199c4ad",
      "gasPrice": {
        "_hex": "0xcc2612c85"
      },
      "gasLimit": {
        "_hex": "0x15f90"
      },
      "to": "0xF6F1A44309051c6B25e47dff909B179Bb9aB591C",
      "value": {
        "_hex": "0x3635c9adc5dea00000"
      },
      "nonce": 749,
      "data": "0x",
      "r": "0x434d58ecc7e86c91f258a8d96282102426e399af2de1e0151e257d824d1b8c34",
      "s": "0x5b046daa722141f9eb45a90fc6f5aa9b0c5428e8efc21e964ae9c9e97bae51c9",
      "v": 27,
      "creates": null,
      "raw": "0xf8708202ed850cc2612c8583015f9094f6f1a44309051c6b25e47dff909b179bb9ab591c893635c9adc5dea00000801ba0434d58ecc7e86c91f258a8d96282102426e399af2de1e0151e257d824d1b8c34a05b046daa722141f9eb45a90fc6f5aa9b0c5428e8efc21e964ae9c9e97bae51c9",
      "networkId": 0,
      "chainId": 0
    }
  ]
}