{
  "hash": "0xf20166560022fbd006a5049c4f4ca61b020c7a21e03a119c4d7cd9ae83e76ace",
  "parentHash": "0xa41920447f9fc71ccb61f5c3db419052325b04d89a376d2390457b6f62bc16ef",
  "number": 119502,
  "timestamp": 1440144066,
  "nonce": "0x0a4e30b6d0796846",
  "difficulty": 4390112457214,
  "gasLimit": {
    "_hex": "0x2fefd8"
  },
  "gasUsed": {
    "_hex": "0x1b198"
  },
  "miner": "0x52bc44d5378309EE2abF1539BF71dE1b7d7bE3b5",
  "extraData": "0xd783010002844765746887676f312e342e32856c696e7578",
  "transactions": [
    {
      "hash": "0x97cf1a8d940067172796b3292eafe432e1a9c9811b9e03acfc2dbc6d489c61ca",
      "blockHash": "0xf20166560022fbd006a5049c4f4ca61b020c7a21e03a119c4d7cd9ae83e76ace",
      "blockNumber": 119502,
      "transactionIndex": 0,
      "confirmations": null,
      "from": "0x34C57A97dF78772fAc54FF75CeF9590457feE4D9",
      "gasPrice": {
        "_hex": "0xcc7b4a143"
      },
      "gasLimit": {
        "_hex": "0x15f90"
      },
      "to": "0xb3DE3FbF82C14D6ea7ABACfF5bc8cCce34D101FD",
      "value": {
        "_hex": "0x0"
      },
      "nonce": 10,
      "data": "0xc1e6adfd00000000000000000000000000000000000000000000000000000000000000400000000000000000000000000000000000000000000000000000000000000080000000000000000000000000000000000000000000000000000000000000000754657374696e6700000000000000000000000000000000000000000000000000000000000000000000000000000000000000000000000000000000000000003d546869732069732074686520746573742073656374696f6e2c20776865726520796f752063616e20706f73742074657374696e6720636f6d6d656e7473000000",
      "r": "0xc8b279859ac1e9db85af1f856c7498021c3e0817deab565124ad411c2352c9c7",
      "s": "0x5ca209da1b78159d9112bb61ba40a24dfc05e1db5b24f1831393870b232fa6e1",
      "v": 27,
      "creates": null,
      "raw": "0xf9014a0a850cc7b4a14383015f9094b3de3fbf82c14d6ea7abacff5bc8ccce34d101fd80b8e4c1e6adfd00000000000000000000000000000000000000000000000000000000000000400000000000000000000000000000000000000000000000000000000000000080000000000000000000000000000000000000000000000000000000000000000754657374696e6700000000000000000000000000000000000000000000000000000000000000000000000000000000000000000000000000000000000000003d546869732069732074686520746573742073656374696f6e2c20776865726520796f752063616e20706f73742074657374696e6720636f6d6d656e74730000001ba0c8b279859ac1e9db85af1f856c7498021c3e0817deab565124ad411c2352c9c7a05ca209da1b78159d9112bb61ba40a24dfc05e1db5b24f1831393870b232fa6e1",
      "networkId": 0,
      "chainId": 0
    },
    {
      "hash": "0x50dab2a67bf0fd1f80b7e7a71ad08fbca877c91344641146da0ee2c8414b41e0",
      "blockHash": "0xf20166560022fbd006a5049c4f4ca61b020c7a21e03a119c4d7cd9ae83e76ace",
      "blockNumber": 119502,
      "transactionIndex": 1,
      "confirmations": null,
      "from": "0x832a92A886288ACC68dF3115cf74aEbd67Ba1bf8",
      "gasPrice": {
        "_hex": "0xba43b7400"
      },
      "gasLimit": {
        "_hex": "0x5208"
      },
      "to": "0x32Be343B94f860124dC4fEe278FDCBD38C102D88",
      "value": {
        "_hex": "0xdd88201672ac800"
      },
      "nonce": 0,
      "data": "0x",
      "r": "0xf949506cf0acccd6db8bf4cc8a39ee90af5e65ccae9d354af0dfc1f00469f927",
      "s": "0x1a2a24476740ec8af492ed7b2c00a713d648969cbbe45fd17a84c6895c5c062e",
      "v": 27,
      "creates": null,
      "raw": "0xf86c80850ba43b74008252089432be343b94f860124dc4fee278fdcbd38c102d88880dd88201672ac800801ba0f949506cf0acccd6db8bf4cc8a39ee90af5e65ccae9d354af0dfc1f00469f927a01a2a24476740ec8af492ed7b2c00a713d648969cbbe45fd17a84c6895c5c062e",
      "networkId": 0,
      "chainId": 0
    }
  ]
}