{
  "hash": "0x264c081c3aef6eadbf7960fd8846ae461f7ae502c7749eace1b8e550476dcd4f",
  "parentHash": "0xf6308a2135e9e8d33d3efa193a4f455c5fe683db5182e3588736dd71c8746430",
  "number": 96370,
  "timestamp": 1439739281,
  "nonce": "0x6a4ac6be507106aa",
  "difficulty": 3663865100175,
  "gasLimit": {
    "_hex": "0x2fefd8"
  },
  "gasUsed": {
    "_hex": "0x5208"
  },
  "miner": "0xa50ec0D39fa913E62f1Bae7074E6F36caA71855b",
  "extraData": "0xd783010001844765746887676f312e342e32856c696e7578",
  "transactions": [
    {
      "hash": "0xa756006175c5b94d9e2f00a418e24137328dfc65afd5aff819b7be0dd178686e",
      "blockHash": "0x264c081c3aef6eadbf7960fd8846ae461f7ae502c7749eace1b8e550476dcd4f",
      "blockNumber": 96370,
      "transactionIndex": 0,
      "confirmations": null,
      "from": "0x007f7f58D3eb5b7510A301eCC749FC1fCDDBE14D",
      "gasPrice": {
        "_hex": "0xcc8ddf695"
      },
      "gasLimit": {
        "_hex": "0x15f90"
      },
      "to": "0xb1abce2918E21ddb93AA452731a12672A3d9F75a",
      "value": {
        "_hex": "0x4563918244f40000"
      },
      "nonce": 80,
      "data": "0x",
      "r": "0x1804a4ad661f625f055b102a783437b651889e7326c01d7536443ef9d57a705a",
      "s": "0x2f5f20bccfa045e0f5d926979fe4069321e4874c8430f698eec153e40e259599",
      "v": 28,
      "creates": null,
      "raw": "0xf86d50850cc8ddf69583015f9094b1abce2918e21ddb93aa452731a12672a3d9f75a884563918244f40000801ca01804a4ad661f625f055b102a783437b651889e7326c01d7536443ef9d57a705aa02f5f20bccfa045e0f5d926979fe4069321e4874c8430f698eec153e40e259599",
      "networkId": 0,
      "chainId": 0
    }
  ]
}