{
  "hash": "0x96c0cf004d061437a733996df1fb7d7835de0152f7192fd1302b9defe85ba2e4",
  "parentHash": "0x4dbf0f8ad4c0d2c8a1aa9ca71cfc5086e633d7562f270013cff401772da4d19a",
  "number": 64550,
  "timestamp": 1439222622,
  "nonce": "0x9653ba027375d768",
  "difficulty": 1883942212966,
  "gasLimit": {
    "_hex": "0x2fefd8"
  },
  "gasUsed": {
    "_hex": "0x23b44"
  },
  "miner": "0xE4BA8cF48d11D4cd54fba46C5331b5477DbF5539",
  "extraData": "0x476574682f76312e302e312f77696e646f77732f676f312e342e32",
  "transactions": [
    {
      "hash": "0xb1c19507f756f2f7020aca6005ed8fe401e91a8a8414228282ac0bbffccfd840",
      "blockHash": "0x96c0cf004d061437a733996df1fb7d7835de0152f7192fd1302b9defe85ba2e4",
      "blockNumber": 64550,
      "transactionIndex": 0,
      "confirmations": null,
      "from": "0x109e985B31c18610016A2b6A3e3913969C29230E",
      "gasPrice": {
        "_hex": "0xba43b7400"
      },
      "gasLimit": {
        "_hex": "0x15f90"
      },
      "to": "0x793AE8C1b1a160BFc07BFB0d04F85eab1A71F4f2",
      "value": {
        "_hex": "0x0"
      },
      "nonce": 0,
      "data": "0x3ba15036",
      "r": "0x5cc3a4b1b631727eaebbad9f2a862da902176f650124c7d61471923ddf9afecd",
      "s": "0x164bfb2031ff7d212cbeda8ca756e77d5dff91af80942232d036f6aaf01c1b60",
      "v": 27,
      "creates": null,
      "raw": "0xf86980850ba43b740083015f9094793ae8c1b1a160bfc07bfb0d04f85eab1a71f4f280843ba150361ba05cc3a4b1b631727eaebbad9f2a862da902176f650124c7d61471923ddf9afecda0164bfb2031ff7d212cbeda8ca756e77d5dff91af80942232d036f6aaf01c1b60",
      "networkId": 0,
      "chainId": 0
    },
    {
      "hash": "0x5e321e581814911da44db4c5bf7c32596645e1f8b301597fad7e4ce401ab3a6f",
      "blockHash": "0x96c0cf004d061437a733996df1fb7d7835de0152f7192fd1302b9defe85ba2e4",
      "blockNumber": 64550,
      "transactionIndex": 1,
      "confirmations": null,
      "from": "0x02E17FD12EAE4c85F953e85630455adc68B5d0ee",
      "gasPrice": {
        "_hex": "0xba43b7400"
      },
      "gasLimit": {
        "_hex": "0x15f90"
      },
      "to": "0x793AE8C1b1a160BFc07BFB0d04F85eab1A71F4f2",
      "value": {
        "_hex": "0x0"
      },
      "nonce": 0,
      "data": "0x3ba15036",
      "r": "0x11a97471c17abeadfe64d51aa1f491cb38d8428f791a6d542fed8b7e83676882",
      "s": "0x1274746f8c145452e41f86237382685e604a3b9cea676ac8fda587718d6c1b90",
      "v": 27,
      "creates": null,
      "raw": "0xf86980850ba43b740083015f9094793ae8c1b1a160bfc07bfb0d04f85eab1a71f4f280843ba150361ba011a97471c17abeadfe64d51aa1f491cb38d8428f791a6d542fed8b7e83676882a01274746f8c145452e41f86237382685e604a3b9cea676ac8fda587718d6c1b90",
      "networkId": 0,
      "chainId": 0
    },
    {
      "hash": "0x263ba726f910bdf140702ef00bc3fea7ef5d9dc13199cd6ef506b1074fbc3e1c",
      "blockHash": "0x96c0cf004d061437a733996df1fb7d7835de0152f7192fd1302b9defe85ba2e4",
      "blockNumber": 64550,
      "transactionIndex": 2,
      "confirmations": null,
      "from": "0x0450C094A4e10649938D5A8a3601AfE87771f55A",
      "gasPrice": {
        "_hex": "0xba43b7400"
      },
      "gasLimit": {
        "_hex": "0x15f90"
      },
      "to": "0x793AE8C1b1a160BFc07BFB0d04F85eab1A71F4f2",
      "value": {
        "_hex": "0x0"
      },
      "nonce": 0,
      "data": "0x3ba15036",
      "r": "0xb39d28bcd844712453c2258f652a0bac4c63b355b29f41ae0cbe3c7ca359df8a",
      "s": "0x6f251324e7c2db6657612330722b236cf3819a65186ba499409fc75704b2f6d1",
      "v": 27,
      "creates": null,
      "raw": "0xf86980850ba43b740083015f9094793ae8c1b1a160bfc07bfb0d04f85eab1a71f4f280843ba150361ba0b39d28bcd844712453c2258f652a0bac4c63b355b29f41ae0cbe3c7ca359df8aa06f251324e7c2db6657612330722b236cf3819a65186ba499409fc75704b2f6d1",
      "networkId": 0,
      "chainId": 0
    }
  ]
}