{
  "hash": "0x4be755e7fc595ffae7e475a0d30c2ccc7fe156be18c1d252495c0dec33de90a3",
  "parentHash": "0x3429692448bdf7a7011543c54c0bad5f608033bc7ee731e60784e4f38df09550",
  "number": 110454,
  "timestamp": 1439974073,
  "nonce": "0x9dfdd155dc4de4e3",
  "difficulty": 4377716313934,
  "gasLimit": {
    "_hex": "0x2fefd8"
  },
  "gasUsed": {
    "_hex": "0xa410"
  },
  "miner": "0xe6A7a1d47ff21B6321162AEA7C6CB457D5476Bca",
  "extraData": "0x476574682f76312e302e312d38326566323666362f6c696e75782f676f312e34",
  "transactions": [
    {
      "hash": "0x52166bd79eb05ba0bb89d6e11d6a02358d46f71b6ded9ff7b824bdd7e7ddbb57",
      "blockHash": "0x4be755e7fc595ffae7e475a0d30c2ccc7fe156be18c1d252495c0dec33de90a3",
      "blockNumber": 110454,
      "transactionIndex": 0,
      "confirmations": null,
      "from": "0x31353beec2eD3DFfC213c27A9F28ad8dfee828e9",
      "gasPrice": {
        "_hex": "0xd8364fc25"
      },
      "gasLimit": {
        "_hex": "0x15f90"
      },
      "to": "0x2071130408d9aAf3D5D65953118c3FE37aCB8D04",
      "value": {
        "_hex": "0xa688906bd8b00000"
      },
      "nonce": 9,
      "data": "0x",
      "r": "0x6d8ca43674a8661c1c3522388d2957b346f8d4bf032aaf41bf61dab1f607a48e",
      "s": "0x2eb12f1fe1653d028639abbec5f2527a345b35695cd4decc8882bbea3e6a90ff",
      "v": 28,
      "creates": null,
      "raw": "0xf86d09850d8364fc2583015f90942071130408d9aaf3d5d65953118c3fe37acb8d0488a688906bd8b00000801ca06d8ca43674a8661c1c3522388d2957b346f8d4bf032aaf41bf61dab1f607a48ea02eb12f1fe1653d028639abbec5f2527a345b35695cd4decc8882bbea3e6a90ff",
      "networkId": 0,
      "chainId": 0
    },
    {
      "hash": "0x78cf380c87f950d5ae9c6f18be2b1e5b55d86126dab28f636f0646cbf4250c98",
      "blockHash": "0x4be755e7fc595ffae7e475a0d30c2ccc7fe156be18c1d252495c0dec33de90a3",
      "blockNumber": 110454,
      "transactionIndex": 1,
      "confirmations": null,
      "from": "0x7001C4730b81A539eF8b760A3eEb14C64515137B",
      "gasPrice": {
        "_hex": "0xd0794ec7d"
      },
      "gasLimit": {
        "_hex": "0x5208"
      },
      "to": "0x32Be343B94f860124dC4fEe278FDCBD38C102D88",
      "value": {
        "_hex": "0x3bc1705e84ca6c00"
      },
      "nonce": 5,
      "data": "0x",
      "r": "0xef82ef8ea2b9c186474e830de6eef453cc5732738c66cb92ca84a055e9840d92",
      "s": "0x58f4298792b02b6ffe727abf6ba2666e68cf452e0319a59d931f1f0e16664f17",
      "v": 27,
      "creates": null,
      "raw": "0xf86c05850d0794ec7d8252089432be343b94f860124dc4fee278fdcbd38c102d88883bc1705e84ca6c00801ba0ef82ef8ea2b9c186474e830de6eef453cc5732738c66cb92ca84a055e9840d92a058f4298792b02b6ffe727abf6ba2666e68cf452e0319a59d931f1f0e16664f17",
      "networkId": 0,
      "chainId": 0
    }
  ]
}