{
  "hash": "0x44ec8d924ed08788aebb0d6c8379fe5659c2da0e823421745e2da2cebbc0d621",
  "parentHash": "0x6ea537ed1a9c3d9f9b0feade8826896306a132fe88751a7f106afeb4615e97e7",
  "number": 112819,
  "timestamp": 1440013749,
  "nonce": "0xd85cd37e799fc793",
  "difficulty": 4430233542739,
  "gasLimit": {
    "_hex": "0x2fefd8"
  },
  "gasUsed": {
    "_hex": "0x5208"
  },
  "miner": "0xe6A7a1d47ff21B6321162AEA7C6CB457D5476Bca",
  "extraData": "0x476574682f76312e302e312d38326566323666362f6c696e75782f676f312e34",
  "transactions": [
    {
      "hash": "0xac7fb98bd0bd88b64cc662a2d7faa4d7e8adaeee6e2d69ae45e0c64c6f90b26d",
      "blockHash": "0x44ec8d924ed08788aebb0d6c8379fe5659c2da0e823421745e2da2cebbc0d621",
      "blockNumber": 112819,
      "transactionIndex": 0,
      "confirmations": null,
      "from": "0xf5695Ae85aB4f83A5f859c4c691ce7CEf32b708B",
      "gasPrice": {
        "_hex": "0xce43d7cd5"
      },
      "gasLimit": {
        "_hex": "0x5208"
      },
      "to": "0x32Be343B94f860124dC4fEe278FDCBD38C102D88",
      "value": {
        "_hex": "0x1980af0ac49820000"
      },
      "nonce": 1,
      "data": "0x",
      "r": "0x2580d358d909b1b4410d6b50cea51adc100c60a222f58f8466ef0196dbf93054",
      "s": "0x0dc5e1b70501ee35cfe2dd4a96ba79a740eed44c809789837a244aa45933bd7d",
      "v": 27,
      "creates": null,
      "raw": "0xf86d01850ce43d7cd58252089432be343b94f860124dc4fee278fdcbd38c102d888901980af0ac49820000801ba02580d358d909b1b4410d6b50cea51adc100c60a222f58f8466ef0196dbf93054a00dc5e1b70501ee35cfe2dd4a96ba79a740eed44c809789837a244aa45933bd7d",
      "networkId": 0,
      "chainId": 0
    }
  ]
}