{
  "hash": "0x78620657cbc7a298d643892b473e1119f26693cd54b3fea87bc156e25575db6d",
  "parentHash": "0xb856e037f6826c6e57886fc9464a38d900f9d48eb842c07bc3d99aaeea04319b",
  "number": 101690,
  "timestamp": 1439826679,
  "nonce": "0x5fd207c297476b25",
  "difficulty": 3878706132699,
  "gasLimit": {
    "_hex": "0x2fefd8"
  },
  "gasUsed": {
    "_hex": "0x5208"
  },
  "miner": "0x9746c7e1ef2bd21FF3997fa467593a89cb852BD0",
  "extraData": "0x476574682f76312e302e312f77696e646f77732f676f312e342e32",
  "transactions": [
    {
      "hash": "0xfbb2699213e0e4143633ff2d7da224f83f926bd5ca29dc4c7ba1405a52074f67",
      "blockHash": "0x78620657cbc7a298d643892b473e1119f26693cd54b3fea87bc156e25575db6d",
      "blockNumber": 101690,
      "transactionIndex": 0,
      "confirmations": null,
      "from": "0xB1A4B41b8e75a153841c99c62d18588d45e7b406",
      "gasPrice": {
        "_hex": "0xcc94a7987"
      },
      "gasLimit": {
        "_hex": "0x15f90"
      },
      "to": "0x9d0D51Aa42b97151aaCa5876a743172C8c04f09E",
      "value": {
        "_hex": "0x4563918244f40000"
      },
      "nonce": 7,
      "data": "0x",
      "r": "0xf881fa7a4a939bc934ff74fc4f720ede917ab2aac5787995c59c1159bd93ec87",
      "s": "0x646660139283a6c18dbe41c65180f7b451d5a371c89b5568ae74d921d8c6848d",
      "v": 28,
      "creates": null,
      "raw": "0xf86d07850cc94a798783015f90949d0d51aa42b97151aaca5876a743172c8c04f09e884563918244f40000801ca0f881fa7a4a939bc934ff74fc4f720ede917ab2aac5787995c59c1159bd93ec87a0646660139283a6c18dbe41c65180f7b451d5a371c89b5568ae74d921d8c6848d",
      "networkId": 0,
      "chainId": 0
    }
  ]
}