{
  "hash": "0xbb820ecbc1157e29f02c16abc62efa36015d14b62ff4d1e4ce328252e5254a23",
  "parentHash": "0x840fede472c48bda8c66c1fdd729adaaa1e3ea258662c424ce063e30bc081ea2",
  "number": 73407,
  "timestamp": 1439368933,
  "nonce": "0xde5b963f2cbcde85",
  "difficulty": 2194862214816,
  "gasLimit": {
    "_hex": "0x2fefd8"
  },
  "gasUsed": {
    "_hex": "0x8eef"
  },
  "miner": "0x39A1BB80a741bF5EC39FB9BE59408Fa0F418fFBf",
  "extraData": "0x476574682f76312e302e312f77696e646f77732f676f312e342e32",
  "transactions": [
    {
      "hash": "0x3633649c6760b9dc58c3fd7a3d5f7cf598afa50e182f3a2eddfa61e98873cd69",
      "blockHash": "0xbb820ecbc1157e29f02c16abc62efa36015d14b62ff4d1e4ce328252e5254a23",
      "blockNumber": 73407,
      "transactionIndex": 0,
      "confirmations": null,
      "from": "0x326Be8F71bFb0379f989aAB1CC1fE37f0a771f60",
      "gasPrice": {
        "_hex": "0x1050185fc05"
      },
      "gasLimit": {
        "_hex": "0x493e0"
      },
      "to": "0xDf595d10E76EffaBB38FB3ddFAF89a4Bd50Acf0f",
      "value": {
        "_hex": "0x8ac7230489e80000"
      },
      "nonce": 47,
      "data": "0x8d216186000000000000000000000000000000000000000000000000000000000000008023f57f91de1d586682d4d6f1ced45fafc8faf0dd782adac69dbdc25372dc2ab5",
      "r": "0x64cb6844f502055b5945171e7396036643c3b78a6da18392b08a62dc5228414d",
      "s": "0x32f32ff3c5e4ac75e9d48e66bd9dc5d611f746af4c1c776878545da4e5181897",
      "v": 27,
      "creates": null,
      "raw": "0xf8b32f8601050185fc05830493e094df595d10e76effabb38fb3ddfaf89a4bd50acf0f888ac7230489e80000b8448d216186000000000000000000000000000000000000000000000000000000000000008023f57f91de1d586682d4d6f1ced45fafc8faf0dd782adac69dbdc25372dc2ab51ba064cb6844f502055b5945171e7396036643c3b78a6da18392b08a62dc5228414da032f32ff3c5e4ac75e9d48e66bd9dc5d611f746af4c1c776878545da4e5181897",
      "networkId": 0,
      "chainId": 0
    }
  ]
}