{
  "hash": "0x3e096dfd9d2d6e6c57c45840c059e5ed584527b093da723d0cef90f5f83a3a49",
  "parentHash": "0xa4efda60cb046e296ec4b1d9406476915d82b12b10cf42020642d2225bf600e3",
  "number": 79843,
  "timestamp": 1439476036,
  "nonce": "0x4212f6890dee86cb",
  "difficulty": 2352937498028,
  "gasLimit": {
    "_hex": "0x2fefd8"
  },
  "gasUsed": {
    "_hex": "0x6ed7"
  },
  "miner": "0xf8E0CA3Ed80bd541b94BEdCf259e8CF2141A9523",
  "extraData": "0x476574682f76312e302e312f77696e646f77732f676f312e342e32",
  "transactions": [
    {
      "hash": "0x340d99c41642efc10b02885920f089136efc0e753b865ba2d399d38210bd4ecc",
      "blockHash": "0x3e096dfd9d2d6e6c57c45840c059e5ed584527b093da723d0cef90f5f83a3a49",
      "blockNumber": 79843,
      "transactionIndex": 0,
      "confirmations": null,
      "from": "0x87C5B5874A18B4306DF8a752a6C8cc3E82daFc19",
      "gasPrice": {
        "_hex": "0x1091d3610a5"
      },
      "gasLimit": {
        "_hex": "0x493e0"
      },
      "to": "0xC4c51de1AbF5D60DBd329eC0F999Fd8f021ae9fC",
      "value": {
        "_hex": "0x0"
      },
      "nonce": 112,
      "data": "0xbd66528a6361740000000000000000000000000000000000000000000000000000000000",
      "r": "0xdf09363467cd66d48ef1fcdd59d37f3f7d9d89f8a6c77f7affc3e5a726df2765",
      "s": "0x7be08a358a10416e9e66d191d7f1063edfe535ee324559c49056dea4866538ba",
      "v": 27,
      "creates": null,
      "raw": "0xf88a708601091d3610a5830493e094c4c51de1abf5d60dbd329ec0f999fd8f021ae9fc80a4bd66528a63617400000000000000000000000000000000000000000000000000000000001ba0df09363467cd66d48ef1fcdd59d37f3f7d9d89f8a6c77f7affc3e5a726df2765a07be08a358a10416e9e66d191d7f1063edfe535ee324559c49056dea4866538ba",
      "networkId": 0,
      "chainId": 0
    }
  ]
}