{
  "hash": "0xf9b61d22b5fb0e99f2eaecadd850af5fba9ff95dbf98038492595a0df17bec54",
  "parentHash": "0x168628ebbe310ca7d6987deda0460f1576ee3d64bf27a8bb2834d059ea23e5fd",
  "number": 105306,
  "timestamp": 1439885231,
  "nonce": "0x53d9c414b8b59a32",
  "difficulty": 4367589262275,
  "gasLimit": {
    "_hex": "0x2fefd8"
  },
  "gasUsed": {
    "_hex": "0x5208"
  },
  "miner": "0xe6A7a1d47ff21B6321162AEA7C6CB457D5476Bca",
  "extraData": "0x476574682f76312e302e312d38326566323666362f6c696e75782f676f312e34",
  "transactions": [
    {
      "hash": "0xb7040cc52c839d46418b63905eebd754d47c60651bdfbc4251165aee536c4ec9",
      "blockHash": "0xf9b61d22b5fb0e99f2eaecadd850af5fba9ff95dbf98038492595a0df17bec54",
      "blockNumber": 105306,
      "transactionIndex": 0,
      "confirmations": null,
      "from": "0x007f7f58D3eb5b7510A301eCC749FC1fCDDBE14D",
      "gasPrice": {
        "_hex": "0xde90f59a8"
      },
      "gasLimit": {
        "_hex": "0x15f90"
      },
      "to": "0xb1abce2918E21ddb93AA452731a12672A3d9F75a",
      "value": {
        "_hex": "0x4563918244f40000"
      },
      "nonce": 251,
      "data": "0x",
      "r": "0x2c65c0460bd89f0a84b303c39380435acde7072cd62a3af028c54ad3a660b7a1",
      "s": "0x38823a49bfbf0b734345af5a028e1d545f70d53acde0c3dd86c3a7baff1f0a30",
      "v": 28,
      "creates": null,
      "raw": "0xf86e81fb850de90f59a883015f9094b1abce2918e21ddb93aa452731a12672a3d9f75a884563918244f40000801ca02c65c0460bd89f0a84b303c39380435acde7072cd62a3af028c54ad3a660b7a1a038823a49bfbf0b734345af5a028e1d545f70d53acde0c3dd86c3a7baff1f0a30",
      "networkId": 0,
      "chainId": 0
    }
  ]
}