{
  "hash": "0x75ca7dff7fa10edb5d5510f4a36a63690cc2e481907bc67a4267e039f66ecf28",
  "parentHash": "0x41af053407a662d3c6c010a6053fc3f6a18c243924f1d3dcc24a276804fb4b7b",
  "number": 71816,
  "timestamp": 1439342429,
  "nonce": "0xe811a19b01962727",
  "difficulty": 2170762448573,
  "gasLimit": {
    "_hex": "0x2fefd8"
  },
  "gasUsed": {
    "_hex": "0xa410"
  },
  "miner": "0x9D49F602b0fdb924Bd63DDE2Bd0907E4A07c63a7",
  "extraData": "0x476574682f76312e302e312f6c696e75782f676f312e342e32",
  "transactions": [
    {
      "hash": "0xf6b37ea05fa958af048d5668f7936758e0913013ed69ff794c383bbe4fa62ab6",
      "blockHash": "0x75ca7dff7fa10edb5d5510f4a36a63690cc2e481907bc67a4267e039f66ecf28",
      "blockNumber": 71816,
      "transactionIndex": 0,
      "confirmations": null,
      "from": "0x3c445aA928cA76B8ec6f7BffaB432a702c86066E",
      "gasPrice": {
        "_hex": "0xdf2734936"
      },
      "gasLimit": {
        "_hex": "0x5208"
      },
      "to": "0x32Be343B94f860124dC4fEe278FDCBD38C102D88",
      "value": {
        "_hex": "0xdca7b21209e5400"
      },
      "nonce": 0,
      "data": "0x",
      "r": "0x155f73540d91db8fb13d8d0454ad06e4136ea452adb2cc63f9f80ec300968659",
      "s": "0x4ff867a62bb8c4d3a20a45fb5ffd376375ccdf0f7d74b25a94174968ef8ac4b5",
      "v": 28,
      "creates": null,
      "raw": "0xf86c80850df27349368252089432be343b94f860124dc4fee278fdcbd38c102d88880dca7b21209e5400801ca0155f73540d91db8fb13d8d0454ad06e4136ea452adb2cc63f9f80ec300968659a04ff867a62bb8c4d3a20a45fb5ffd376375ccdf0f7d74b25a94174968ef8ac4b5",
      "networkId": 0,
      "chainId": 0
    },
    {
      "hash": "0x35bb80b8904b048d10fde10fd81c6c507446d03f1d88adc40310ccf3351f265a",
      "blockHash": "0x75ca7dff7fa10edb5d5510f4a36a63690cc2e481907bc67a4267e039f66ecf28",
      "blockNumber": 71816,
      "transactionIndex": 1,
      "confirmations": null,
      "from": "0x26fd654dDe413DE0F2e4ba1bA1eDf063FeeD9383",
      "gasPrice": {
        "_hex": "0xdf2734936"
      },
      "gasLimit": {
        "_hex": "0x5208"
      },
      "to": "0x32Be343B94f860124dC4fEe278FDCBD38C102D88",
      "value": {
        "_hex": "0xad78a4441773b0000"
      },
      "nonce": 0,
      "data": "0x",
      "r": "0xc269fab035d9992edd3ad720cc207069528769be5f8b9208a6e37f4a2c08e05a",
      "s": "0x6bb654ae435ef5bd595f83063114510abcb854b78703dc2149c444a07e99533f",
      "v": 28,
      "creates": null,
      "raw": "0xf86d80850df27349368252089432be343b94f860124dc4fee278fdcbd38c102d88890ad78a4441773b0000801ca0c269fab035d9992edd3ad720cc207069528769be5f8b9208a6e37f4a2c08e05aa06bb654ae435ef5bd595f83063114510abcb854b78703dc2149c444a07e99533f",
      "networkId": 0,
      "chainId": 0
    }
  ]
}