{
  "hash": "0x73d8bde8c0ebfefa3ebcc64a36fc225788764d1df6ee45a187b4eec679b56f99",
  "parentHash": "0x42c923e91597bee9351535c01798dcfdf2eb38a07dda116396b77dc93dede20d",
  "number": 55127,
  "timestamp": 1439065748,
  "nonce": "0x147ac115eee9abc2",
  "difficulty": 1639437315427,
  "gasLimit": {
    "_hex": "0x2fefd8"
  },
  "gasUsed": {
    "_hex": "0x5208"
  },
  "miner": "0xF2d2AfF1320476cb8C6b607199D23175cc595693",
  "extraData": "0x476574682f76312e302e312f77696e646f77732f676f312e342e32",
  "transactions": [
    {
      "hash": "0x8661b73cf3314946d3e900adefa70e3f79c82a239f927d404677215dc249b028",
      "blockHash": "0x73d8bde8c0ebfefa3ebcc64a36fc225788764d1df6ee45a187b4eec679b56f99",
      "blockNumber": 55127,
      "transactionIndex": 0,
      "confirmations": null,
      "from": "0x120A270bbC009644e35F0bB6ab13f95b8199c4ad",
      "gasPrice": {
        "_hex": "0xd74e00af5"
      },
      "gasLimit": {
        "_hex": "0x15f90"
      },
      "to": "0x9e7042dc22347f0b7b1F99e134f1D7141ddf883C",
      "value": {
        "_hex": "0x4563918244f40000"
      },
      "nonce": 11,
      "data": "0x",
      "r": "0x1cb7174379fd2deef9ee0c8fa1695d16ef64e457db22c60ffffde117941f020c",
      "s": "0x3f1be91940452d655f0ad264ea361c6557a8ef429e0121a143b4cce51b11bf5e",
      "v": 28,
      "creates": null,
      "raw": "0xf86d0b850d74e00af583015f90949e7042dc22347f0b7b1f99e134f1d7141ddf883c884563918244f40000801ca01cb7174379fd2deef9ee0c8fa1695d16ef64e457db22c60ffffde117941f020ca03f1be91940452d655f0ad264ea361c6557a8ef429e0121a143b4cce51b11bf5e",
      "networkId": 0,
      "chainId": 0
    }
  ]
}