{
  "hash": "0x9d0a6e7a208eff19623ffa88a528b75d8fae0f304fd0915dbfd2a11baeeb7f89",
  "parentHash": "0x7dccd69364d1ae3b5682a81fe1072d25266c8b993e43a4e43fd6cbd5c3f6be7b",
  "number": 61692,
  "timestamp": 1439176546,
  "nonce": "0x2bfc440190173648",
  "difficulty": 1736160293387,
  "gasLimit": {
    "_hex": "0x2fefd8"
  },
  "gasUsed": {
    "_hex": "0xa410"
  },
  "miner": "0x88D74a59454F6cF3B51ef6b9136AFb6b9D405A88",
  "extraData": "0x476574682f76312e302e312d37666266393930632f6c696e75782f676f312e34",
  "transactions": [
    {
      "hash": "0xb0e1b8727388f851e2d125d9021ce8d6418fc9a192916e8236e8365f0cad60b0",
      "blockHash": "0x9d0a6e7a208eff19623ffa88a528b75d8fae0f304fd0915dbfd2a11baeeb7f89",
      "blockNumber": 61692,
      "transactionIndex": 0,
      "confirmations": null,
      "from": "0x120A270bbC009644e35F0bB6ab13f95b8199c4ad",
      "gasPrice": {
        "_hex": "0xd10a9c636"
      },
      "gasLimit": {
        "_hex": "0x15f90"
      },
      "to": "0x1fc000454B2169C9EFfB548829DBf7154Ddb6878",
      "value": {
        "_hex": "0x79c20705f5ba36800"
      },
      "nonce": 80,
      "data": "0x",
      "r": "0x0225ed2d97b1e44a77f4ac67b4ab2096ea29d22c40fe4cef5df1deaf62051531",
      "s": "0x12ee38ec2ffdde4c15223327bc71979d4827a335a9ffb5dbd6033e99db31409d",
      "v": 27,
      "creates": null,
      "raw": "0xf86e50850d10a9c63683015f90941fc000454b2169c9effb548829dbf7154ddb687889079c20705f5ba36800801ba00225ed2d97b1e44a77f4ac67b4ab2096ea29d22c40fe4cef5df1deaf62051531a012ee38ec2ffdde4c15223327bc71979d4827a335a9ffb5dbd6033e99db31409d",
      "networkId": 0,
      "chainId": 0
    },
    {
      "hash": "0xfb052cf37a09ca8c8244c6118c8af66bed341cde2081630160c3d4becbf9dcef",
      "blockHash": "0x9d0a6e7a208eff19623ffa88a528b75d8fae0f304fd0915dbfd2a11baeeb7f89",
      "blockNumber": 61692,
      "transactionIndex": 1,
      "confirmations": null,
      "from": "0x120A270bbC009644e35F0bB6ab13f95b8199c4ad",
      "gasPrice": {
        "_hex": "0xd10a9c636"
      },
      "gasLimit": {
        "_hex": "0x15f90"
      },
      "to": "0x68d0e1fA35d65C760F5A120aD35fB5f86BC16c19",
      "value": {
        "_hex": "0x255d867529529c00"
      },
      "nonce": 81,
      "data": "0x",
      "r": "0xe3eb34ef79dc8532fcdc58440a1960e4c650bdba8d2e366a5a72f75cf8595288",
      "s": "0x1a2d3c0511a5daea120f87c2e9f09f50f4769b0966c9212564b3d0e283fc941a",
      "v": 27,
      "creates": null,
      "raw": "0xf86d51850d10a9c63683015f909468d0e1fa35d65c760f5a120ad35fb5f86bc16c1988255d867529529c00801ba0e3eb34ef79dc8532fcdc58440a1960e4c650bdba8d2e366a5a72f75cf8595288a01a2d3c0511a5daea120f87c2e9f09f50f4769b0966c9212564b3d0e283fc941a",
      "networkId": 0,
      "chainId": 0
    }
  ]
}