{
  "hash": "0xfe0d03e3f0b9cead2e3182280a2290decb762494533560194ef953f71bec5a55",
  "parentHash": "0x836cf2162eabfb7918c2d0269cb94c2412ff3bd0925b801903944f78868e662b",
  "number": 116223,
  "timestamp": 1440070454,
  "nonce": "0x7337b7bb9bc50f1d",
  "difficulty": 4577942403401,
  "gasLimit": {
    "_hex": "0x2fefd8"
  },
  "gasUsed": {
    "_hex": "0x5208"
  },
  "miner": "0x52bc44d5378309EE2abF1539BF71dE1b7d7bE3b5",
  "extraData": "0x476574682f76312e302e312d65626434373230372f6c696e75782f676f312e34",
  "transactions": [
    {
      "hash": "0x14d94093748e651b3019e64d0c8d54188b43c6239afb336c44baf669db771716",
      "blockHash": "0xfe0d03e3f0b9cead2e3182280a2290decb762494533560194ef953f71bec5a55",
      "blockNumber": 116223,
      "transactionIndex": 0,
      "confirmations": null,
      "from": "0x40B9b889A21Ff1534d018D71Dc406122EBcf3F5A",
      "gasPrice": {
        "_hex": "0x110be956d13"
      },
      "gasLimit": {
        "_hex": "0x15f90"
      },
      "to": "0xE3291e02d1d7b6A7F4aAA164c56Cf21FD30D0eb5",
      "value": {
        "_hex": "0x3635c9adc5dea00000"
      },
      "nonce": 60,
      "data": "0x",
      "r": "0x352ab80bbf296b2b4c24b626208fdaf7e451bc0942cb78a668272c8f13258ae0",
      "s": "0x59102672ba7e588de1c1f8860850637bacab4a33c7da28db564b07b23d09d5d9",
      "v": 28,
      "creates": null,
      "raw": "0xf86f3c860110be956d1383015f9094e3291e02d1d7b6a7f4aaa164c56cf21fd30d0eb5893635c9adc5dea00000801ca0352ab80bbf296b2b4c24b626208fdaf7e451bc0942cb78a668272c8f13258ae0a059102672ba7e588de1c1f8860850637bacab4a33c7da28db564b07b23d09d5d9",
      "networkId": 0,
      "chainId": 0
    }
  ]
}