{
  "hash": "0xbb97667d3f72ba09323fa139c8884355aac83727b070980b78c35924bc497b56",
  "parentHash": "0xf35bbfc8809cc8704faaacac4a437ee45944f55a742dc8a87f4cda6c7e7a5640",
  "number": 115593,
  "timestamp": 1440059816,
  "nonce": "0x7966cd308b9a805d",
  "difficulty": 4605190871533,
  "gasLimit": {
    "_hex": "0x2fefd8"
  },
  "gasUsed": {
    "_hex": "0x18326"
  },
  "miner": "0x52bc44d5378309EE2abF1539BF71dE1b7d7bE3b5",
  "extraData": "0x476574682f76312e302e312d65626434373230372f6c696e75782f676f312e34",
  "transactions": [
    {
      "hash": "0x4f60f1e2043a1fd8cbae79aaeb2bce44b4149b4b2d70a77f690cd1c019d75b6d",
      "blockHash": "0xbb97667d3f72ba09323fa139c8884355aac83727b070980b78c35924bc497b56",
      "blockNumber": 115593,
      "transactionIndex": 0,
      "confirmations": null,
      "from": "0x841145B44840C946E21dbC190264b8E0D5029369",
      "gasPrice": {
        "_hex": "0xe027821bb"
      },
      "gasLimit": {
        "_hex": "0x249f0"
      },
      "to": "0xE28e72FCf78647ADCe1F1252F240bbfaebD63BcC",
      "value": {
        "_hex": "0x878678326eac9000000"
      },
      "nonce": 3,
      "data": "0x45466f3a",
      "r": "0x05daed9b4af04840a2cfb75da2440fe6c5d2e9fbfad15a5cb2125a0894290ada",
      "s": "0x7362558dae201357b32702655449d5fb3978f999fbb6919dd7681a3affdaa7e2",
      "v": 27,
      "creates": null,
      "raw": "0xf87303850e027821bb830249f094e28e72fcf78647adce1f1252f240bbfaebd63bcc8a0878678326eac90000008445466f3a1ba005daed9b4af04840a2cfb75da2440fe6c5d2e9fbfad15a5cb2125a0894290adaa07362558dae201357b32702655449d5fb3978f999fbb6919dd7681a3affdaa7e2",
      "networkId": 0,
      "chainId": 0
    }
  ]
}