{
  "hash": "0xc3291836e0af1d00ff526501741bcb3b3f6dfe847cb1d1ea7f9a37146ffa8a57",
  "parentHash": "0x77a74530146bbb63b0ab7ae9d85ab3705f6eea1c9e3f9f8dbb13e99300379e67",
  "number": 120242,
  "timestamp": 1440156612,
  "nonce": "0x1f9e6f97ccf57af3",
  "difficulty": 4415521751206,
  "gasLimit": {
    "_hex": "0x2fefd8"
  },
  "gasUsed": {
    "_hex": "0x5208"
  },
  "miner": "0xe6A7a1d47ff21B6321162AEA7C6CB457D5476Bca",
  "extraData": "0xd783010002844765746887676f312e342e32856c696e7578",
  "transactions": [
    {
      "hash": "0xf3dbdd33848ad5fdfc51222f241d7bc5cd32ae1c522e97257e25d127f89d91de",
      "blockHash": "0xc3291836e0af1d00ff526501741bcb3b3f6dfe847cb1d1ea7f9a37146ffa8a57",
      "blockNumber": 120242,
      "transactionIndex": 0,
      "confirmations": null,
      "from": "0x608f4b86321a68453f9adf6F06F7Fc3E621739ad",
      "gasPrice": {
        "_hex": "0xba43b7400"
      },
      "gasLimit": {
        "_hex": "0x5208"
      },
      "to": "0x32Be343B94f860124dC4fEe278FDCBD38C102D88",
      "value": {
        "_hex": "0x455fd68a17f06000"
      },
      "nonce": 59,
      "data": "0x",
      "r": "0x709345500cfa9bcc03f3294236cdd09b5054aad4f787a04ce912d11b0262805a",
      "s": "0x4c1cccfcf56d648112a776637d2b130f7b9a10981fdd696dc8402a16a5f512bc",
      "v": 27,
      "creates": null,
      "raw": "0xf86c3b850ba43b74008252089432be343b94f860124dc4fee278fdcbd38c102d8888455fd68a17f06000801ba0709345500cfa9bcc03f3294236cdd09b5054aad4f787a04ce912d11b0262805aa04c1cccfcf56d648112a776637d2b130f7b9a10981fdd696dc8402a16a5f512bc",
      "networkId": 0,
      "chainId": 0
    }
  ]
}