{
  "hash": "0x879cd4dff5a013d50b1d864fc4a8c2c3853f4b3bb60c589747e1c113f9e40445",
  "parentHash": "0x9d40e36db2e65be67b87114253672ca72dd31e15c8da4a6aa34d9a2af5deee44",
  "number": 47324,
  "timestamp": 1438938181,
  "nonce": "0x7faf99d6bd2592b7",
  "difficulty": 1453102944884,
  "gasLimit": {
    "_hex": "0xb127"
  },
  "gasUsed": {
    "_hex": "0x5208"
  },
  "miner": "0xaA35779Ef4dfBEd0B3D6F46F5f11cb86261B17A5",
  "extraData": "0x476574682f76312e302e312f77696e646f77732f676f312e342e32",
  "transactions": [
    {
      "hash": "0x3ac6cd29b2ea9b4036fe96edab9c0b50d47bdd4ec37b1a4be0f29fa52ef6d1ce",
      "blockHash": "0x879cd4dff5a013d50b1d864fc4a8c2c3853f4b3bb60c589747e1c113f9e40445",
      "blockNumber": 47324,
      "transactionIndex": 0,
      "confirmations": null,
      "from": "0xe6A7a1d47ff21B6321162AEA7C6CB457D5476Bca",
      "gasPrice": {
        "_hex": "0x128dbc3a3c"
      },
      "gasLimit": {
        "_hex": "0x5208"
      },
      "to": "0xB700725f1574c1E333F41f81bd84cAe05d934dbC",
      "value": {
        "_hex": "0xc5a925547e0fe620"
      },
      "nonce": 109,
      "data": "0x",
      "r": "0x06c4a5d45e3ac1ab82f645a2de7918aadc9944e64958f7d61f60cd4462bba10e",
      "s": "0x3df7565e7cacfc1caf38c881ee77c563fbf70f1bb9915020248f7feca2302f3b",
      "v": 27,
      "creates": null,
      "raw": "0xf86c6d85128dbc3a3c82520894b700725f1574c1e333f41f81bd84cae05d934dbc88c5a925547e0fe620801ba006c4a5d45e3ac1ab82f645a2de7918aadc9944e64958f7d61f60cd4462bba10ea03df7565e7cacfc1caf38c881ee77c563fbf70f1bb9915020248f7feca2302f3b",
      "networkId": 0,
      "chainId": 0
    }
  ]
}