{
  "hash": "0x8bce923857d34ba07ff19b534af667c82bbe1f03c307f4c394f0f8420e31ae6e",
  "parentHash": "0x70293a8d3d3e7cc8f8496297aec0b235913968eeafefc16c14a29744435c4cfc",
  "number": 73384,
  "timestamp": 1439368438,
  "nonce": "0xc31226811441fcb5",
  "difficulty": 2198085727985,
  "gasLimit": {
    "_hex": "0x2fefd8"
  },
  "gasUsed": {
    "_hex": "0xa6c5"
  },
  "miner": "0x47ff6576639c2e94762eA5443978D7681C0E78DC",
  "extraData": "0x476574682f76312e302e312f6c696e75782f676f312e342e32",
  "transactions": [
    {
      "hash": "0x8554e2dd15065324fc56305490b1a2be58a8908a76d7264995b9186006a219ec",
      "blockHash": "0x8bce923857d34ba07ff19b534af667c82bbe1f03c307f4c394f0f8420e31ae6e",
      "blockNumber": 73384,
      "transactionIndex": 0,
      "confirmations": null,
      "from": "0x326Be8F71bFb0379f989aAB1CC1fE37f0a771f60",
      "gasPrice": {
        "_hex": "0x109db1e7b3b"
      },
      "gasLimit": {
        "_hex": "0x15f90"
      },
      "to": "0xDf595d10E76EffaBB38FB3ddFAF89a4Bd50Acf0f",
      "value": {
        "_hex": "0x3635c9adc5dea00000"
      },
      "nonce": 43,
      "data": "0x",
      "r": "0xcf86e2c3e2379e39bd99a5a71d3fc7bd93994b0159720e1ac03af862582e2785",
      "s": "0x300f84bc8dd1f1594c8a5e06549adee25dc36bd233cf62da4a4b3bb4c996cceb",
      "v": 28,
      "creates": null,
      "raw": "0xf86f2b860109db1e7b3b83015f9094df595d10e76effabb38fb3ddfaf89a4bd50acf0f893635c9adc5dea00000801ca0cf86e2c3e2379e39bd99a5a71d3fc7bd93994b0159720e1ac03af862582e2785a0300f84bc8dd1f1594c8a5e06549adee25dc36bd233cf62da4a4b3bb4c996cceb",
      "networkId": 0,
      "chainId": 0
    },
    {
      "hash": "0xb2e28f6ac8b8f2e5eaec9b626a17a00333d95f6993b2c8e88de7acc82198346f",
      "blockHash": "0x8bce923857d34ba07ff19b534af667c82bbe1f03c307f4c394f0f8420e31ae6e",
      "blockNumber": 73384,
      "transactionIndex": 1,
      "confirmations": null,
      "from": "0xf4B1114a02EFe852013277F28ed88734Fa81E54f",
      "gasPrice": {
        "_hex": "0xd4a39d6e5"
      },
      "gasLimit": {
        "_hex": "0x15f90"
      },
      "to": "0xc6d9d2cD449A754c494264e1809c50e34D64562b",
      "value": {
        "_hex": "0x3bd913e6c1df40000"
      },
      "nonce": 0,
      "data": "0x432ced0448484b4200000000000000000000000000000000000000000000000000000000",
      "r": "0x015987f95a586ca632ea5a8b099d265c3be74231f6d2b387da0697a2a58c29e1",
      "s": "0x09b35009c44ad44f11b97dfd64c6734c7e4a71a931bf6b16256f095416f2a87c",
      "v": 27,
      "creates": null,
      "raw": "0xf89280850d4a39d6e583015f9094c6d9d2cd449a754c494264e1809c50e34d64562b8903bd913e6c1df40000a4432ced0448484b42000000000000000000000000000000000000000000000000000000001ba0015987f95a586ca632ea5a8b099d265c3be74231f6d2b387da0697a2a58c29e1a009b35009c44ad44f11b97dfd64c6734c7e4a71a931bf6b16256f095416f2a87c",
      "networkId": 0,
      "chainId": 0
    }
  ]
}