{
  "hash": "0x879d9f3f2b921225569ac0fc73440a9dec9ff3cf6c6f353836f076831267d799",
  "parentHash": "0x48299519c7acac04d3246f0c4822b14b2a7612fcf07bcd7d0e1cef4378ad44e5",
  "number": 77738,
  "timestamp": 1439442104,
  "nonce": "0xffc79ba33bc294c8",
  "difficulty": 2271115108826,
  "gasLimit": {
    "_hex": "0x2fe3de"
  },
  "gasUsed": {
    "_hex": "0x207af"
  },
  "miner": "0xF78645Ea06d743C6B52a11EB3f3d486bbb4Cf01F",
  "extraData": "0x476574682f76312e302e302f77696e646f77732f676f312e342e32",
  "transactions": [
    {
      "hash": "0x9de1eb042b42edffb121a146cb532b7a8563debe42b9086dd8f53d872741ba7d",
      "blockHash": "0x879d9f3f2b921225569ac0fc73440a9dec9ff3cf6c6f353836f076831267d799",
      "blockNumber": 77738,
      "transactionIndex": 0,
      "confirmations": null,
      "from": "0xa748fac76B1d857E2f77484a0F816463e8b56EDc",
      "gasPrice": {
        "_hex": "0x10f0fa2c5b7"
      },
      "gasLimit": {
        "_hex": "0x7a120"
      },
      "to": "0xc2ac6849Aec3938FB8c9B36F1c07be76f766637E",
      "value": {
        "_hex": "0x53444835ec580000"
      },
      "nonce": 9,
      "data": "0x",
      "r": "0x144a7b43f775d5175a2e0ed608404087c247db8a8451bd3b4b97f0d2661ae0e8",
      "s": "0x5a7a8dfe5c733b03f8d2e935b8fde40416f720c3f87fdf640feec90125b78fcd",
      "v": 28,
      "creates": null,
      "raw": "0xf86e0986010f0fa2c5b78307a12094c2ac6849aec3938fb8c9b36f1c07be76f766637e8853444835ec580000801ca0144a7b43f775d5175a2e0ed608404087c247db8a8451bd3b4b97f0d2661ae0e8a05a7a8dfe5c733b03f8d2e935b8fde40416f720c3f87fdf640feec90125b78fcd",
      "networkId": 0,
      "chainId": 0
    },
    {
      "hash": "0x6c65a08b6a578b61021fb638a3f77c359530ba5302a5f0bcb1bebacc9cc34171",
      "blockHash": "0x879d9f3f2b921225569ac0fc73440a9dec9ff3cf6c6f353836f076831267d799",
      "blockNumber": 77738,
      "transactionIndex": 1,
      "confirmations": null,
      "from": "0x87C5B5874A18B4306DF8a752a6C8cc3E82daFc19",
      "gasPrice": {
        "_hex": "0x107c4783abc"
      },
      "gasLimit": {
        "_hex": "0x493e0"
      },
      "to": "0xD79B4C6791784184e2755B2fC1659eaaB0f80456",
      "value": {
        "_hex": "0x0"
      },
      "nonce": 91,
      "data": "0x03750d94000000000000000000000000326be8f71bfb0379f989aab1cc1fe37f0a771f603539333131666661366433356437316600000000000000000000000000000000",
      "r": "0x606ed38e64ae53452f8cdd554cdc8f93f50d55c7639cfd1b727464dca18a6965",
      "s": "0x11e6065441800528631f324954deea8894fcfeb94d4f93ed456a75b92eafbc88",
      "v": 27,
      "creates": null,
      "raw": "0xf8ab5b860107c4783abc830493e094d79b4c6791784184e2755b2fc1659eaab0f8045680b84403750d94000000000000000000000000326be8f71bfb0379f989aab1cc1fe37f0a771f6035393331316666613664333564373166000000000000000000000000000000001ba0606ed38e64ae53452f8cdd554cdc8f93f50d55c7639cfd1b727464dca18a6965a011e6065441800528631f324954deea8894fcfeb94d4f93ed456a75b92eafbc88",
      "networkId": 0,
      "chainId": 0
    }
  ]
}