{
  "hash": "0xbf7238520e84f44f2db824a1411b5d21b2831cff9b7b9363e0ca99e5cc1c95dc",
  "parentHash": "0x7e0e94685fd0bec23f7d92a34ba52a39281edf439514aa816ca22d5e67b09cdb",
  "number": 104200,
  "timestamp": 1439865979,
  "nonce": "0xa90240d670a37735",
  "difficulty": 4266976702616,
  "gasLimit": {
    "_hex": "0x2fefd8"
  },
  "gasUsed": {
    "_hex": "0xa410"
  },
  "miner": "0xa50ec0D39fa913E62f1Bae7074E6F36caA71855b",
  "extraData": "0xd783010001844765746887676f312e342e32856c696e7578",
  "transactions": [
    {
      "hash": "0x76b9c76fae2dde0b9426c5dd6b1252e40d6095bfbd9c2ebf8a9d9ef5bb7e6433",
      "blockHash": "0xbf7238520e84f44f2db824a1411b5d21b2831cff9b7b9363e0ca99e5cc1c95dc",
      "blockNumber": 104200,
      "transactionIndex": 0,
      "confirmations": null,
      "from": "0xa61ff394e3846F8bfbBF8801afb051730B04Ee75",
      "gasPrice": {
        "_hex": "0xcecc9d589"
      },
      "gasLimit": {
        "_hex": "0x5208"
      },
      "to": "0x32Be343B94f860124dC4fEe278FDCBD38C102D88",
      "value": {
        "_hex": "0x455f77e11482c000"
      },
      "nonce": 8,
      "data": "0x",
      "r": "0x2fd40a13eee768883991641a6bb45a5d6d2d9b69e3e7d326f30786db6373c0d3",
      "s": "0x0dcdc49c3a50998173cdbac43485eb52dd29445b0df1281e7fe79f9981a2fcb0",
      "v": 28,
      "creates": null,
      "raw": "0xf86c08850cecc9d5898252089432be343b94f860124dc4fee278fdcbd38c102d8888455f77e11482c000801ca02fd40a13eee768883991641a6bb45a5d6d2d9b69e3e7d326f30786db6373c0d3a00dcdc49c3a50998173cdbac43485eb52dd29445b0df1281e7fe79f9981a2fcb0",
      "networkId": 0,
      "chainId": 0
    },
    {
      "hash": "0x83f7bdd18f304c30d0afb74feb63a11501f531124d104d66c70ee5196a8fa34f",
      "blockHash": "0xbf7238520e84f44f2db824a1411b5d21b2831cff9b7b9363e0ca99e5cc1c95dc",
      "blockNumber": 104200,
      "transactionIndex": 1,
      "confirmations": null,
      "from": "0xB4137d028aBB8Dc65A224E4751397d50DdE6c73D",
      "gasPrice": {
        "_hex": "0xcecc9d589"
      },
      "gasLimit": {
        "_hex": "0x5208"
      },
      "to": "0x32Be343B94f860124dC4fEe278FDCBD38C102D88",
      "value": {
        "_hex": "0xadff55d01fee0000"
      },
      "nonce": 3,
      "data": "0x",
      "r": "0xede7be3d8b2f1764c898647264b258f3b1483f7e985e75c37833a8d042f6d5a1",
      "s": "0x3f114e3b268a85eddfb0033d87478b6b7d83b9ec5fc8fd20e8b236ebd3a641ae",
      "v": 28,
      "creates": null,
      "raw": "0xf86c03850cecc9d5898252089432be343b94f860124dc4fee278fdcbd38c102d8888adff55d01fee0000801ca0ede7be3d8b2f1764c898647264b258f3b1483f7e985e75c37833a8d042f6d5a1a03f114e3b268a85eddfb0033d87478b6b7d83b9ec5fc8fd20e8b236ebd3a641ae",
      "networkId": 0,
      "chainId": 0
    }
  ]
}