{
  "hash": "0x9864eed9ef85cac58be74f7dae133167d6e624618ff625caea0dfd465ac39d9c",
  "parentHash": "0xf0e80376caefafc694e0fd218f9f8560ecd20406c7be54337e33948c7786ef92",
  "number": 74649,
  "timestamp": 1439389812,
  "nonce": "0x379c246aa8ea5c98",
  "difficulty": 2205278990493,
  "gasLimit": {
    "_hex": "0x2fefd8"
  },
  "gasUsed": {
    "_hex": "0x5208"
  },
  "miner": "0x9746c7e1ef2bd21FF3997fa467593a89cb852BD0",
  "extraData": "0x476574682f76312e302e312f77696e646f77732f676f312e342e32",
  "transactions": [
    {
      "hash": "0xd64a9ecc59a4e034380aa92069f2fddde3182bb1385d178f70630e48d3c4461c",
      "blockHash": "0x9864eed9ef85cac58be74f7dae133167d6e624618ff625caea0dfd465ac39d9c",
      "blockNumber": 74649,
      "transactionIndex": 0,
      "confirmations": null,
      "from": "0x6866e5e1FaBB4AbceF3EEb9Ea0d8CD6b52dfC9FF",
      "gasPrice": {
        "_hex": "0xd8364fc25"
      },
      "gasLimit": {
        "_hex": "0x15f90"
      },
      "to": "0x01Ad0ACFf478127D9d702B1A13599D706cB759b1",
      "value": {
        "_hex": "0x4563918244f40000"
      },
      "nonce": 8,
      "data": "0x",
      "r": "0x43e463b956b2fb1ffa4cb1d118fc68718f47b3f9f5805676f1f61a62a86eb171",
      "s": "0x2ca20a8b481a4e6121cfb0904441bc833415681861a8ae8125a2a7fd9b85104d",
      "v": 27,
      "creates": null,
      "raw": "0xf86d08850d8364fc2583015f909401ad0acff478127d9d702b1a13599d706cb759b1884563918244f40000801ba043e463b956b2fb1ffa4cb1d118fc68718f47b3f9f5805676f1f61a62a86eb171a02ca20a8b481a4e6121cfb0904441bc833415681861a8ae8125a2a7fd9b85104d",
      "networkId": 0,
      "chainId": 0
    }
  ]
}