{
  "hash": "0x25827ee26ca177d0a4310f62e62a8c4a0d466ccfba19668a391b9c513e32774f",
  "parentHash": "0xf9d79ce5d84a647a99a8fd40b37a0c0c15bd46138c5abd606332019dda01edc9",
  "number": 76815,
  "timestamp": 1439426757,
  "nonce": "0x248c88d0393a594c",
  "difficulty": 2235059156421,
  "gasLimit": {
    "_hex": "0x2fefd8"
  },
  "gasUsed": {
    "_hex": "0x546c"
  },
  "miner": "0x5F8F73E26CdF436f19Cb24C82F90A15AFe55b592",
  "extraData": "0x476574682f76312e302e312f77696e646f77732f676f312e342e32",
  "transactions": [
    {
      "hash": "0xcaef3da96a3a3a86aee424838f4028edd89dde6591e2b94794a6395ed28dff1c",
      "blockHash": "0x25827ee26ca177d0a4310f62e62a8c4a0d466ccfba19668a391b9c513e32774f",
      "blockNumber": 76815,
      "transactionIndex": 0,
      "confirmations": null,
      "from": "0xF87fF81fd2d041F0d54FC7da43440E54DaC5A8ef",
      "gasPrice": {
        "_hex": "0xd05abb222"
      },
      "gasLimit": {
        "_hex": "0x55f0"
      },
      "to": "0x2910543Af39abA0Cd09dBb2D50200b3E800A63D2",
      "value": {
        "_hex": "0x9860cbd351ca0000"
      },
      "nonce": 1,
      "data": "0x454e4e555239574538",
      "r": "0xa76c69274297a1aa987a8bbcb5bd781855896c535c6c0fd53718bfb90fa7c26d",
      "s": "0x66ddf4eab476f975ca1f6b4d7e70142865d44967a22d8a3256065b6f543e333f",
      "v": 28,
      "creates": null,
      "raw": "0xf87501850d05abb2228255f0942910543af39aba0cd09dbb2d50200b3e800a63d2889860cbd351ca000089454e4e5552395745381ca0a76c69274297a1aa987a8bbcb5bd781855896c535c6c0fd53718bfb90fa7c26da066ddf4eab476f975ca1f6b4d7e70142865d44967a22d8a3256065b6f543e333f",
      "networkId": 0,
      "chainId": 0
    }
  ]
}