{
  "hash": "0x7deb040393a61c284519d2b704ff0f74a66c8fbace8b0786b800f8cda930235a",
  "parentHash": "0xbc616c33a659adae70049d7e78aba12fa833144c1a1e0cbe8f90746199a4bb38",
  "number": 69268,
  "timestamp": 1439300915,
  "nonce": "0xc24f83911a40ab3f",
  "difficulty": 2069962815631,
  "gasLimit": {
    "_hex": "0x2fefd8"
  },
  "gasUsed": {
    "_hex": "0x1ec30"
  },
  "miner": "0x31995C46B15C84523cDEE26f49A681b8237e43F5",
  "extraData": "0x476574682f76312e302e312f77696e646f77732f676f312e342e32",
  "transactions": [
    {
      "hash": "0xb9f8a658c5b4facb932c0185241a6f7ad4cce7cc2f9df133c21fc808eca79da2",
      "blockHash": "0x7deb040393a61c284519d2b704ff0f74a66c8fbace8b0786b800f8cda930235a",
      "blockNumber": 69268,
      "transactionIndex": 0,
      "confirmations": null,
      "from": "0xC25f24A505b8fEF751D8f4FCc397651001F7a160",
      "gasPrice": {
        "_hex": "0xe06c4d0a7"
      },
      "gasLimit": {
        "_hex": "0x5208"
      },
      "to": "0x32Be343B94f860124dC4fEe278FDCBD38C102D88",
      "value": {
        "_hex": "0x455f12e5e4cd2400"
      },
      "nonce": 13,
      "data": "0x",
      "r": "0x23efe4f5b1c244a08017129dad59c07f1e9a869fcc5b4c7bc16512be8aa07582",
      "s": "0x7c737f37c69f0c4abe1b2835a490f045eba9344acba9699b56c677cfa674b032",
      "v": 28,
      "creates": null,
      "raw": "0xf86c0d850e06c4d0a78252089432be343b94f860124dc4fee278fdcbd38c102d8888455f12e5e4cd2400801ca023efe4f5b1c244a08017129dad59c07f1e9a869fcc5b4c7bc16512be8aa07582a07c737f37c69f0c4abe1b2835a490f045eba9344acba9699b56c677cfa674b032",
      "networkId": 0,
      "chainId": 0
    },
    {
      "hash": "0x2bdac52888d53d8879ab2a0aff604593bdc490c0b5320b962c72695e6b0983f9",
      "blockHash": "0x7deb040393a61c284519d2b704ff0f74a66c8fbace8b0786b800f8cda930235a",
      "blockNumber": 69268,
      "transactionIndex": 1,
      "confirmations": null,
      "from": "0xabceA603089850F8f6bB612A9031554D90A247CF",
      "gasPrice": {
        "_hex": "0xe06c4d0a7"
      },
      "gasLimit": {
        "_hex": "0x5208"
      },
      "to": "0x32Be343B94f860124dC4fEe278FDCBD38C102D88",
      "value": {
        "_hex": "0x1384c0a9fe9ac800"
      },
      "nonce": 1,
      "data": "0x",
      "r": "0x2d77442733322295bc1ddf33e5b26aa3c0b2acfa179259db496b946939e8fdb3",
      "s": "0x2e46ed970daed2885055a00b2fce85fec206756f7833e774e35d54fa51c712fe",
      "v": 28,
      "creates": null,
      "raw": "0xf86c01850e06c4d0a78252089432be343b94f860124dc4fee278fdcbd38c102d88881384c0a9fe9ac800801ca02d77442733322295bc1ddf33e5b26aa3c0b2acfa179259db496b946939e8fdb3a02e46ed970daed2885055a00b2fce85fec206756f7833e774e35d54fa51c712fe",
      "networkId": 0,
      "chainId": 0
    },
    {
      "hash": "0x075f131383fa6767f0f01dd3ed395ba02b550b7f519e5e90f00bf30eaddc49c5",
      "blockHash": "0x7deb040393a61c284519d2b704ff0f74a66c8fbace8b0786b800f8cda930235a",
      "blockNumber": 69268,
      "transactionIndex": 2,
      "confirmations": null,
      "from": "0x3175a28CF6105466923f11bFFabD279F162aa2f8",
      "gasPrice": {
        "_hex": "0xe06c4d0a7"
      },
      "gasLimit": {
        "_hex": "0x5208"
      },
      "to": "0x32Be343B94f860124dC4fEe278FDCBD38C102D88",
      "value": {
        "_hex": "0xf528d68d2168800"
      },
      "nonce": 4,
      "data": "0x",
      "r": "0xe165c29094db0d2de0552aeca22dd0081d79781939e273563460777dca4f32d8",
      "s": "0x7597c4deec202c484dfead89a5ded5938b57735ba99b88405e4f0650c8f07407",
      "v": 27,
      "creates": null,
      "raw": "0xf86c04850e06c4d0a78252089432be343b94f860124dc4fee278fdcbd38c102d88880f528d68d2168800801ba0e165c29094db0d2de0552aeca22dd0081d79781939e273563460777dca4f32d8a07597c4deec202c484dfead89a5ded5938b57735ba99b88405e4f0650c8f07407",
      "networkId": 0,
      "chainId": 0
    },
    {
      "hash": "0xdba91b9137fd5879d573bcb589a88a48f250e801d91cfce9f189d50d2fcd25ef",
      "blockHash": "0x7deb040393a61c284519d2b704ff0f74a66c8fbace8b0786b800f8cda930235a",
      "blockNumber": 69268,
      "transactionIndex": 3,
      "confirmations": null,
      "from": "0x90fba3C13F19F8cf72A3Bb9EE63C8f728F548654",
      "gasPrice": {
        "_hex": "0xe06c4d0a7"
      },
      "gasLimit": {
        "_hex": "0x5208"
      },
      "to": "0x32Be343B94f860124dC4fEe278FDCBD38C102D88",
      "value": {
        "_hex": "0x16f298fbb2a89800"
      },
      "nonce": 0,
      "data": "0x",
      "r": "0xcf2e56b27b28e0f22379f018040e7d90709ba8edd5e60e772aabc7b0f0163449",
      "s": "0x642fb0dc50566dc194560f8581b736aeec3df045bd6e5bfa9848f40201116e01",
      "v": 27,
      "creates": null,
      "raw": "0xf86c80850e06c4d0a78252089432be343b94f860124dc4fee278fdcbd38c102d888816f298fbb2a89800801ba0cf2e56b27b28e0f22379f018040e7d90709ba8edd5e60e772aabc7b0f0163449a0642fb0dc50566dc194560f8581b736aeec3df045bd6e5bfa9848f40201116e01",
      "networkId": 0,
      "chainId": 0
    },
    {
      "hash": "0x9d1c7ff09dc3594a93b9be72e1611011e9dac0ca11ffa09628fbbe673c3a02fa",
      "blockHash": "0x7deb040393a61c284519d2b704ff0f74a66c8fbace8b0786b800f8cda930235a",
      "blockNumber": 69268,
      "transactionIndex": 4,
      "confirmations": null,
      "from": "0x9FA0960220d2d51D54f755501E391Da140c2EF63",
      "gasPrice": {
        "_hex": "0xe06c4d0a7"
      },
      "gasLimit": {
        "_hex": "0x5208"
      },
      "to": "0x32Be343B94f860124dC4fEe278FDCBD38C102D88",
      "value": {
        "_hex": "0x114e450f91bb4000"
      },
      "nonce": 0,
      "data": "0x",
      "r": "0x7dd41aef3ffc2e9eed7b4b4acbb080eb60f4eb3f5c2f1ddad23925b7054ca6a8",
      "s": "0x022b25f24b547c0bded306413db113abb782285d14b23e8e77569f3ba7e90456",
      "v": 28,
      "creates": null,
      "raw": "0xf86c80850e06c4d0a78252089432be343b94f860124dc4fee278fdcbd38c102d8888114e450f91bb4000801ca07dd41aef3ffc2e9eed7b4b4acbb080eb60f4eb3f5c2f1ddad23925b7054ca6a8a0022b25f24b547c0bded306413db113abb782285d14b23e8e77569f3ba7e90456",
      "networkId": 0,
      "chainId": 0
    },
    {
      "hash": "0x5ec5c84ceac9ea0709fc452b66ffe63e03ac876bf24b483f68e8496c06d06420",
      "blockHash": "0x7deb040393a61c284519d2b704ff0f74a66c8fbace8b0786b800f8cda930235a",
      "blockNumber": 69268,
      "transactionIndex": 5,
      "confirmations": null,
      "from": "0x120A270bbC009644e35F0bB6ab13f95b8199c4ad",
      "gasPrice": {
        "_hex": "0xdc18cd465"
      },
      "gasLimit": {
        "_hex": "0x15f90"
      },
      "to": "0x63116ca569ba01384f4B68C196f4745cf45C7d11",
      "value": {
        "_hex": "0x3298654641ba21d000"
      },
      "nonce": 175,
      "data": "0x",
      "r": "0x753f62aec2e5554887cfb0fb419c4708625b05e16c1b6998b792c4f44006b460",
      "s": "0x686a629b69dcc94bf7eb59ef1e4e26a91a36cd2004ac91120ba222b848f55ecc",
      "v": 27,
      "creates": null,
      "raw": "0xf86f81af850dc18cd46583015f909463116ca569ba01384f4b68c196f4745cf45c7d11893298654641ba21d000801ba0753f62aec2e5554887cfb0fb419c4708625b05e16c1b6998b792c4f44006b460a0686a629b69dcc94bf7eb59ef1e4e26a91a36cd2004ac91120ba222b848f55ecc",
      "networkId": 0,
      "chainId": 0
    }
  ]
}