{
  "hash": "0xa09222639622fc27b85e4b1ccb507e91543c97b1b89b25160f5388e7c93d34b8",
  "parentHash": "0x05a00ddbb2c4b2a510d6bdbb4f248a2866c13c34beaaa223d772f0d0b797fe3c",
  "number": 94569,
  "timestamp": 1439710409,
  "nonce": "0x48930a5a2464a897",
  "difficulty": 3498543020725,
  "gasLimit": {
    "_hex": "0x2fefd8"
  },
  "gasUsed": {
    "_hex": "0xf87c"
  },
  "miner": "0xe6A7a1d47ff21B6321162AEA7C6CB457D5476Bca",
  "extraData": "0x476574682f76312e302e312d38326566323666362f6c696e75782f676f312e34",
  "transactions": [
    {
      "hash": "0xe3ae982893ad78d8905b538ccc624a357d1f158335c85cf80cb400f066f2b8f2",
      "blockHash": "0xa09222639622fc27b85e4b1ccb507e91543c97b1b89b25160f5388e7c93d34b8",
      "blockNumber": 94569,
      "transactionIndex": 0,
      "confirmations": null,
      "from": "0xa7859Fc07F756Ea7DcebBCCd42F05817582D973F",
      "gasPrice": {
        "_hex": "0x110c8f7d8de"
      },
      "gasLimit": {
        "_hex": "0xc350"
      },
      "to": "0x2910543Af39abA0Cd09dBb2D50200b3E800A63D2",
      "value": {
        "_hex": "0x3782dace9d90000"
      },
      "nonce": 3,
      "data": "0x454e30344151424338",
      "r": "0x3cbc727b4b85d26c70995f1cb7aeca06ed37d8342675eb9a3f4d725212ff5d74",
      "s": "0x4e3d952d6377bb092b519c6b23e01e79bd7067c9aae791e76677a4149cf79e48",
      "v": 27,
      "creates": null,
      "raw": "0xf87603860110c8f7d8de82c350942910543af39aba0cd09dbb2d50200b3e800a63d28803782dace9d9000089454e303441514243381ba03cbc727b4b85d26c70995f1cb7aeca06ed37d8342675eb9a3f4d725212ff5d74a04e3d952d6377bb092b519c6b23e01e79bd7067c9aae791e76677a4149cf79e48",
      "networkId": 0,
      "chainId": 0
    },
    {
      "hash": "0x18e92c18b8b8d1dae386d3547e8d30f9bde0e68f549b22052c9574ba6e647a03",
      "blockHash": "0xa09222639622fc27b85e4b1ccb507e91543c97b1b89b25160f5388e7c93d34b8",
      "blockNumber": 94569,
      "transactionIndex": 1,
      "confirmations": null,
      "from": "0xb1abce2918E21ddb93AA452731a12672A3d9F75a",
      "gasPrice": {
        "_hex": "0xe0ed02b46"
      },
      "gasLimit": {
        "_hex": "0x5208"
      },
      "to": "0x32Be343B94f860124dC4fEe278FDCBD38C102D88",
      "value": {
        "_hex": "0x455f1052fba81800"
      },
      "nonce": 20,
      "data": "0x",
      "r": "0x151c58878eb838437149af3c8b1e7ac8ed351bf6ebaa4d43f97fdd5b352edc66",
      "s": "0x168632f4f4dbd4d0527b21991f2e0f594bda4b607c9c797d586eba4a0d508db7",
      "v": 28,
      "creates": null,
      "raw": "0xf86c14850e0ed02b468252089432be343b94f860124dc4fee278fdcbd38c102d8888455f1052fba81800801ca0151c58878eb838437149af3c8b1e7ac8ed351bf6ebaa4d43f97fdd5b352edc66a0168632f4f4dbd4d0527b21991f2e0f594bda4b607c9c797d586eba4a0d508db7",
      "networkId": 0,
      "chainId": 0
    },
    {
      "hash": "0xdc2474f94a66480db39133be5fa798696249defa02261d49bb914e98339713b8",
      "blockHash": "0xa09222639622fc27b85e4b1ccb507e91543c97b1b89b25160f5388e7c93d34b8",
      "blockNumber": 94569,
      "transactionIndex": 2,
      "confirmations": null,
      "from": "0xAaE8DCB1d3D159A0D2439c8e0e2F73812320c79d",
      "gasPrice": {
        "_hex": "0xe0ed02b46"
      },
      "gasLimit": {
        "_hex": "0x5208"
      },
      "to": "0x32Be343B94f860124dC4fEe278FDCBD38C102D88",
      "value": {
        "_hex": "0x9d357f667bb7a00000"
      },
      "nonce": 3,
      "data": "0x",
      "r": "0xd52e83567603871713aef7fe635fcc812524e6fc2d31164de33e51a7fed1398e",
      "s": "0x766d146f5f48acd6ab91bdadc64cbbfce064e167cb764d638664bc8722345103",
      "v": 28,
      "creates": null,
      "raw": "0xf86d03850e0ed02b468252089432be343b94f860124dc4fee278fdcbd38c102d88899d357f667bb7a00000801ca0d52e83567603871713aef7fe635fcc812524e6fc2d31164de33e51a7fed1398ea0766d146f5f48acd6ab91bdadc64cbbfce064e167cb764d638664bc8722345103",
      "networkId": 0,
      "chainId": 0
    }
  ]
}