{
  "hash": "0x9e1e5a32f392c19b1b645204ce3713dc7fb4c6b898ac935dd139fc359a161c73",
  "parentHash": "0x6d69cc8a8b11ab270c53a5f3b5f465ba8c63356adc3369b3a595855862ef0d64",
  "number": 102059,
  "timestamp": 1439832226,
  "nonce": "0x11934eb8c63463a4",
  "difficulty": 3907047048731,
  "gasLimit": {
    "_hex": "0x2fefd8"
  },
  "gasUsed": {
    "_hex": "0x1bdbe"
  },
  "miner": "0xe6A7a1d47ff21B6321162AEA7C6CB457D5476Bca",
  "extraData": "0x476574682f76312e302e312d38326566323666362f6c696e75782f676f312e34",
  "transactions": [
    {
      "hash": "0x4b647bc060e5f8e226fb7cdeeb406ade7063c17845c1c291d87805de4e4705df",
      "blockHash": "0x9e1e5a32f392c19b1b645204ce3713dc7fb4c6b898ac935dd139fc359a161c73",
      "blockNumber": 102059,
      "transactionIndex": 0,
      "confirmations": null,
      "from": "0x841145B44840C946E21dbC190264b8E0D5029369",
      "gasPrice": {
        "_hex": "0xd716d8914"
      },
      "gasLimit": {
        "_hex": "0x249f0"
      },
      "to": "0xE28e72FCf78647ADCe1F1252F240bbfaebD63BcC",
      "value": {
        "_hex": "0x10f0cf064dd59200000"
      },
      "nonce": 0,
      "data": "0x45466f3a",
      "r": "0x00e83cc3d9192daa67e6af5d0a7558db2be4f38db570e2621c2348638f4cfbe3",
      "s": "0x77c9909664b81b3e1d8d18eda02a6781d3e24ce0b7ab0ccbfa34cc90d61be046",
      "v": 27,
      "creates": null,
      "raw": "0xf87280850d716d8914830249f094e28e72fcf78647adce1f1252f240bbfaebd63bcc8a010f0cf064dd592000008445466f3a1b9fe83cc3d9192daa67e6af5d0a7558db2be4f38db570e2621c2348638f4cfbe3a077c9909664b81b3e1d8d18eda02a6781d3e24ce0b7ab0ccbfa34cc90d61be046",
      "networkId": 0,
      "chainId": 0
    }
  ]
}