{
  "hash": "0x6077dc964530f09fd738271e6eff0a83f00b365eacf9aa459f7fbf081a002507",
  "parentHash": "0x50821869e25efd95dc58161be3afd8a4d93c069bfd4f6ca99a3d7c9b224d1e40",
  "number": 104749,
  "timestamp": 1439874798,
  "nonce": "0x02f395bd15c66090",
  "difficulty": 4374282227688,
  "gasLimit": {
    "_hex": "0x2fefd8"
  },
  "gasUsed": {
    "_hex": "0x5208"
  },
  "miner": "0x790b8a3cE86E707ED0eD32bF89B3269692a23CC1",
  "extraData": "0xd783010001844765746887676f312e342e32856c696e7578",
  "transactions": [
    {
      "hash": "0x6719a023c08bd07f30d8ff4f70eb9dd3498b317510f3b4f9183c4d2952607770",
      "blockHash": "0x6077dc964530f09fd738271e6eff0a83f00b365eacf9aa459f7fbf081a002507",
      "blockNumber": 104749,
      "transactionIndex": 0,
      "confirmations": null,
      "from": "0xe090Ffdced499691fA9379752a59F8A058c1eE4A",
      "gasPrice": {
        "_hex": "0xd5b96f513"
      },
      "gasLimit": {
        "_hex": "0x5208"
      },
      "to": "0x3620db64D25D412bAb4C8d93E2e0D7e64e8Cb933",
      "value": {
        "_hex": "0x8ac7230489e80000"
      },
      "nonce": 7,
      "data": "0x",
      "r": "0x78753439159dd3a4ef0bf57535e9cbbcf53fdbd1df6e6f393a39dd875136bea3",
      "s": "0x53efdd8d50359dfd1732ed8080ead7356c659970cc272339f53eac9861ccea57",
      "v": 27,
      "creates": null,
      "raw": "0xf86c07850d5b96f513825208943620db64d25d412bab4c8d93e2e0d7e64e8cb933888ac7230489e80000801ba078753439159dd3a4ef0bf57535e9cbbcf53fdbd1df6e6f393a39dd875136bea3a053efdd8d50359dfd1732ed8080ead7356c659970cc272339f53eac9861ccea57",
      "networkId": 0,
      "chainId": 0
    }
  ]
}