{
  "hash": "0xf085cf961a95942af6cdf52fb8f4815f53d65d41b565497f16d68f410f3d53cb",
  "parentHash": "0xb587b4b590fa08e3c4a9ff6b9c802fe846d68d0e6cbc52cda1fff5e7418e9c40",
  "number": 92996,
  "timestamp": 1439680561,
  "nonce": "0xc3c0154e208037e5",
  "difficulty": 3643925247131,
  "gasLimit": {
    "_hex": "0x2fefd8"
  },
  "gasUsed": {
    "_hex": "0x5208"
  },
  "miner": "0x70137010922f2fC2964b3792907F79FBB75fEbe8",
  "extraData": "0x476574682f76312e302e302f6c696e75782f676f312e342e32",
  "transactions": [
    {
      "hash": "0xa239e456e37d925d5af8889844a5d78ccb9efebc099e2208f73bcb290a210d1d",
      "blockHash": "0xf085cf961a95942af6cdf52fb8f4815f53d65d41b565497f16d68f410f3d53cb",
      "blockNumber": 92996,
      "transactionIndex": 0,
      "confirmations": null,
      "from": "0xa70a9a7040d542C632D8e0bE7c5513A8a5Bbc752",
      "gasPrice": {
        "_hex": "0xe0914e1bd"
      },
      "gasLimit": {
        "_hex": "0x5208"
      },
      "to": "0x32Be343B94f860124dC4fEe278FDCBD38C102D88",
      "value": {
        "_hex": "0x455f12294d0a0000"
      },
      "nonce": 131,
      "data": "0x",
      "r": "0xe45e27040aa2f4e60b933d8f151eb446817bcd798e8d7af1368527930da3dd8f",
      "s": "0x4b70044c5fbac2e79154ffcf353eff7a7316d22945eeae7be1bbfce27e50b89d",
      "v": 28,
      "creates": null,
      "raw": "0xf86d8183850e0914e1bd8252089432be343b94f860124dc4fee278fdcbd38c102d8888455f12294d0a0000801ca0e45e27040aa2f4e60b933d8f151eb446817bcd798e8d7af1368527930da3dd8fa04b70044c5fbac2e79154ffcf353eff7a7316d22945eeae7be1bbfce27e50b89d",
      "networkId": 0,
      "chainId": 0
    }
  ]
}