{
  "hash": "0xf63d77da4c9f7091f36034a19a5f5207b784e792e93e5c4e32015c6e26c61926",
  "parentHash": "0x6b48b69bc5aea77f4f1b4bd3c6c7625db80d9b5965c0717c5d9dc008056b853f",
  "number": 68557,
  "timestamp": 1439289968,
  "nonce": "0xe82652c54374f173",
  "difficulty": 2011351341633,
  "gasLimit": {
    "_hex": "0x2fefd8"
  },
  "gasUsed": {
    "_hex": "0xa410"
  },
  "miner": "0x47ff6576639c2e94762eA5443978D7681C0E78DC",
  "extraData": "0x476574682f76312e302e312f6c696e75782f676f312e342e32",
  "transactions": [
    {
      "hash": "0x75d9068f359d459a138211660aee602e6fb43e5340daa456c46ffdf35e0274f1",
      "blockHash": "0xf63d77da4c9f7091f36034a19a5f5207b784e792e93e5c4e32015c6e26c61926",
      "blockNumber": 68557,
      "transactionIndex": 0,
      "confirmations": null,
      "from": "0xA9c80A4842699BC9F7Fd8778574fd7A0FEb4bd7F",
      "gasPrice": {
        "_hex": "0xba43b7400"
      },
      "gasLimit": {
        "_hex": "0x5208"
      },
      "to": "0xa229CcFC90535F38957Da1311dc4793f0Bfd02aA",
      "value": {
        "_hex": "0x7c58ada8ff2000"
      },
      "nonce": 1,
      "data": "0x",
      "r": "0xcb760b21a339bdafab7e53b34e7e173695d82fa8819c4a65628b25dada1a211c",
      "s": "0x3949c2d3f6158cf5f73c2c533996171a7a14319aa0f058ac09163a1483478fe9",
      "v": 28,
      "creates": null,
      "raw": "0xf86b01850ba43b740082520894a229ccfc90535f38957da1311dc4793f0bfd02aa877c58ada8ff2000801ca0cb760b21a339bdafab7e53b34e7e173695d82fa8819c4a65628b25dada1a211ca03949c2d3f6158cf5f73c2c533996171a7a14319aa0f058ac09163a1483478fe9",
      "networkId": 0,
      "chainId": 0
    },
    {
      "hash": "0x89cb54699fa019aea55cfbb48055a463ec6f662d5dbc12bc92ee76de647237b8",
      "blockHash": "0xf63d77da4c9f7091f36034a19a5f5207b784e792e93e5c4e32015c6e26c61926",
      "blockNumber": 68557,
      "transactionIndex": 1,
      "confirmations": null,
      "from": "0xb70a3F9E5a7d21CB08BDb3d479a945780D2Ad291",
      "gasPrice": {
        "_hex": "0xba43b7400"
      },
      "gasLimit": {
        "_hex": "0x5208"
      },
      "to": "0x3A96D476c6F64a6Ed641C577FD1E1A9dE97EF0A4",
      "value": {
        "_hex": "0x7c58ada8ff2000"
      },
      "nonce": 1,
      "data": "0x",
      "r": "0xbc4164e07f5d560e9a98d90a50a3d915337408663c4b854ee9628166e82780be",
      "s": "0x1170ed0ebab89a277a69d5bbafa410cb1c040204c57aabfa40ae25918d72a945",
      "v": 27,
      "creates": null,
      "raw": "0xf86b01850ba43b7400825208943a96d476c6f64a6ed641c577fd1e1a9de97ef0a4877c58ada8ff2000801ba0bc4164e07f5d560e9a98d90a50a3d915337408663c4b854ee9628166e82780bea01170ed0ebab89a277a69d5bbafa410cb1c040204c57aabfa40ae25918d72a945",
      "networkId": 0,
      "chainId": 0
    }
  ]
}