{
  "hash": "0x761ecd11cf591e30e92b0f8f27fc19cb44cd19548f0fa1f1181c7868b84033f3",
  "parentHash": "0x05d4ee94a709b63a99eac96821e5be831ece0f9557d0a70e0ec5be4f82b9e294",
  "number": 75137,
  "timestamp": 1439398258,
  "nonce": "0x008113a8be80df46",
  "difficulty": 2196553635481,
  "gasLimit": {
    "_hex": "0x2fefd8"
  },
  "gasUsed": {
    "_hex": "0x5208"
  },
  "miner": "0xFef646055590d4B4C67Dd7c1f329A86da04d9311",
  "extraData": "0x43ce9e4677617265",
  "transactions": [
    {
      "hash": "0x36c25a165aef95ec4166ad25a961d3c9c88913f9d42ab2674222254c89ebc2a4",
      "blockHash": "0x761ecd11cf591e30e92b0f8f27fc19cb44cd19548f0fa1f1181c7868b84033f3",
      "blockNumber": 75137,
      "transactionIndex": 0,
      "confirmations": null,
      "from": "0x5175f107219871c88e0C4202F14A5f34088b54c8",
      "gasPrice": {
        "_hex": "0x746a528800"
      },
      "gasLimit": {
        "_hex": "0x5b04"
      },
      "to": "0x60781265e9850f54AE0Bc9545948d05DeE6FC3e3",
      "value": {
        "_hex": "0xde0b6b3a7640000"
      },
      "nonce": 2,
      "data": "0x",
      "r": "0x6bc43d3f572303f1745d0b533d4454852a3fa8ad00fe4f847aaa86fc92b2d90b",
      "s": "0x6e3c78e1ce9b4b407a883c2425b90df6972a0f6d7f2a60051f7913b92b6b57fe",
      "v": 28,
      "creates": null,
      "raw": "0xf86c0285746a528800825b049460781265e9850f54ae0bc9545948d05dee6fc3e3880de0b6b3a7640000801ca06bc43d3f572303f1745d0b533d4454852a3fa8ad00fe4f847aaa86fc92b2d90ba06e3c78e1ce9b4b407a883c2425b90df6972a0f6d7f2a60051f7913b92b6b57fe",
      "networkId": 0,
      "chainId": 0
    }
  ]
}