{
  "hash": "0x209a5fa68e5d6167e5f1930757e83a74f85050f97be7ba1788d0d73df42d0f55",
  "parentHash": "0xd5440471e4be2c08a63d8c92f19277b818907acf6c9ec283bba1f3a277b69adb",
  "number": 84713,
  "timestamp": 1439553545,
  "nonce": "0x9ed2515dcc5b3178",
  "difficulty": 2615693644385,
  "gasLimit": {
    "_hex": "0x2fefd8"
  },
  "gasUsed": {
    "_hex": "0x5208"
  },
  "miner": "0x9D49F602b0fdb924Bd63DDE2Bd0907E4A07c63a7",
  "extraData": "0x476574682f76312e302e312f6c696e75782f676f312e342e32",
  "transactions": [
    {
      "hash": "0xf8b0724e276bc3169f7889ca87bf89d2b53ee1162de8fd4f1aa927693244c20a",
      "blockHash": "0x209a5fa68e5d6167e5f1930757e83a74f85050f97be7ba1788d0d73df42d0f55",
      "blockNumber": 84713,
      "transactionIndex": 0,
      "confirmations": null,
      "from": "0x23f2D0fd3B4C98Fb1698564deB4898275E2e831f",
      "gasPrice": {
        "_hex": "0xd3eb3e4c5"
      },
      "gasLimit": {
        "_hex": "0x5208"
      },
      "to": "0x32Be343B94f860124dC4fEe278FDCBD38C102D88",
      "value": {
        "_hex": "0xddc6c4719c18c00"
      },
      "nonce": 1,
      "data": "0x",
      "r": "0x64a522aaeca97372e3879d39878d420d2b744890e97455a1725e1f71525a1981",
      "s": "0x243c434358ee6647313e3aea3816d24cb66262275c40f851ca690a64511eef87",
      "v": 28,
      "creates": null,
      "raw": "0xf86c01850d3eb3e4c58252089432be343b94f860124dc4fee278fdcbd38c102d88880ddc6c4719c18c00801ca064a522aaeca97372e3879d39878d420d2b744890e97455a1725e1f71525a1981a0243c434358ee6647313e3aea3816d24cb66262275c40f851ca690a64511eef87",
      "networkId": 0,
      "chainId": 0
    }
  ]
}