{
  "hash": "0x9493fb89a5bd30ca0c49f9d821715b7eec06d6007aa1e2cfa572d896c6500017",
  "parentHash": "0x28ebbfdc55ecfe74ec9e249f1ff0ac6357d71d75691adf1abb969c072dfd590b",
  "number": 100405,
  "timestamp": 1439806029,
  "nonce": "0x9280ca1b244903dd",
  "difficulty": 3809844609300,
  "gasLimit": {
    "_hex": "0x2fefd8"
  },
  "gasUsed": {
    "_hex": "0x5208"
  },
  "miner": "0x8B454d830feF179e66206840F8F3D1d83bC32b17",
  "extraData": "0x476574682f76312e302e312f77696e646f77732f676f312e342e32",
  "transactions": [
    {
      "hash": "0xd133956b0ddcd58f30fcc60ed18d6f175b03b342b203ad56c525d18d6e6e0acc",
      "blockHash": "0x9493fb89a5bd30ca0c49f9d821715b7eec06d6007aa1e2cfa572d896c6500017",
      "blockNumber": 100405,
      "transactionIndex": 0,
      "confirmations": null,
      "from": "0x007f7f58D3eb5b7510A301eCC749FC1fCDDBE14D",
      "gasPrice": {
        "_hex": "0xe0cfe7246"
      },
      "gasLimit": {
        "_hex": "0x15f90"
      },
      "to": "0xb1abce2918E21ddb93AA452731a12672A3d9F75a",
      "value": {
        "_hex": "0x4563918244f40000"
      },
      "nonce": 164,
      "data": "0x",
      "r": "0xb012f3940f3351717de1d7ce879d63d8a50b7d5e4b50a5ef86da1ea437328eaf",
      "s": "0x61fa731ecd52bc2aad1f398d7b565085c20925758be8fcd3b4bc277161537a9f",
      "v": 28,
      "creates": null,
      "raw": "0xf86e81a4850e0cfe724683015f9094b1abce2918e21ddb93aa452731a12672a3d9f75a884563918244f40000801ca0b012f3940f3351717de1d7ce879d63d8a50b7d5e4b50a5ef86da1ea437328eafa061fa731ecd52bc2aad1f398d7b565085c20925758be8fcd3b4bc277161537a9f",
      "networkId": 0,
      "chainId": 0
    }
  ]
}