{
  "hash": "0x3a0e8747c2841b88128b7d86f0690d7cdeeb67fc9f31ce858804aa8c0bbed158",
  "parentHash": "0x32b14c1e07350930fd1f2d1aee1b0eb71169f1d6bac178f49394c3b521a06cfd",
  "number": 65047,
  "timestamp": 1439230401,
  "nonce": "0x7e8980da108298e3",
  "difficulty": 1923801836855,
  "gasLimit": {
    "_hex": "0x2fefd8"
  },
  "gasUsed": {
    "_hex": "0xa410"
  },
  "miner": "0x01d9DA08cc6Fb97c0DE1B6F4C28910A0859Ed1A1",
  "extraData": "0x476574682f76312e302e312f6c696e75782f676f312e342e32",
  "transactions": [
    {
      "hash": "0x2eef6276ff985b96e9a2fbd2f6a76b14b5c5d93d9a37b3a84930de766a4fd48e",
      "blockHash": "0x3a0e8747c2841b88128b7d86f0690d7cdeeb67fc9f31ce858804aa8c0bbed158",
      "blockNumber": 65047,
      "transactionIndex": 0,
      "confirmations": null,
      "from": "0x65CB677a0c0d982646F16b5c2c094E2d767B99c7",
      "gasPrice": {
        "_hex": "0xba43b7400"
      },
      "gasLimit": {
        "_hex": "0x5208"
      },
      "to": "0x16C1a82Dc4C3C29d1c64527e2Bb4da731Fa8d792",
      "value": {
        "_hex": "0x33277ef27ec4000"
      },
      "nonce": 1,
      "data": "0x",
      "r": "0xa72daa102fc47a29c70f8c0c6f63c64703636c85589e5cd4377cf7ae89272463",
      "s": "0x0ad5ca04e63b0920e1542f95bda20ab650d96872dcebb2d1714637f0486ddd39",
      "v": 27,
      "creates": null,
      "raw": "0xf86c01850ba43b74008252089416c1a82dc4c3c29d1c64527e2bb4da731fa8d79288033277ef27ec4000801ba0a72daa102fc47a29c70f8c0c6f63c64703636c85589e5cd4377cf7ae89272463a00ad5ca04e63b0920e1542f95bda20ab650d96872dcebb2d1714637f0486ddd39",
      "networkId": 0,
      "chainId": 0
    },
    {
      "hash": "0x06066d04157559bc4c4c2c321e36d6d6975ab23d8476149bd5830f3538dfec7d",
      "blockHash": "0x3a0e8747c2841b88128b7d86f0690d7cdeeb67fc9f31ce858804aa8c0bbed158",
      "blockNumber": 65047,
      "transactionIndex": 1,
      "confirmations": null,
      "from": "0x9d87318916d47DcFCfcc3f183D3D50Cb7E07e524",
      "gasPrice": {
        "_hex": "0xba43b7400"
      },
      "gasLimit": {
        "_hex": "0x5208"
      },
      "to": "0xd771932b6072542c4568A196e0f4D5e038D3f264",
      "value": {
        "_hex": "0x38f04a28e2e0000"
      },
      "nonce": 1,
      "data": "0x",
      "r": "0xe68bff94b0ac2e76034e3acc48398b5a5c7cbb8552ffd4f29e38da9fa5ddaf21",
      "s": "0x2130a75bd413187ea542bb300c5405aaebcbfbe1e55854d07bd23a5c81879384",
      "v": 27,
      "creates": null,
      "raw": "0xf86c01850ba43b740082520894d771932b6072542c4568a196e0f4d5e038d3f26488038f04a28e2e0000801ba0e68bff94b0ac2e76034e3acc48398b5a5c7cbb8552ffd4f29e38da9fa5ddaf21a02130a75bd413187ea542bb300c5405aaebcbfbe1e55854d07bd23a5c81879384",
      "networkId": 0,
      "chainId": 0
    }
  ]
}