{
  "hash": "0xb2883348908f5bfbb44eb36e4c6489629822303e11da7ec6ce26e774be6e9d98",
  "parentHash": "0xd38a657db421ac9ca09af1670106dac277368cb15c3821ef8c23241f2b9f95e0",
  "number": 86758,
  "timestamp": 1439582440,
  "nonce": "0x61a18e4d200c6d35",
  "difficulty": 2950253248431,
  "gasLimit": {
    "_hex": "0x2fefd8"
  },
  "gasUsed": {
    "_hex": "0x546c"
  },
  "miner": "0xe6A7a1d47ff21B6321162AEA7C6CB457D5476Bca",
  "extraData": "0x476574682f76312e302e312d38326566323666362f6c696e75782f676f312e34",
  "transactions": [
    {
      "hash": "0xb09819d779dfbd81b001159eea4ee4855ed0fe51ab332b6aa53ae56ed40beb07",
      "blockHash": "0xb2883348908f5bfbb44eb36e4c6489629822303e11da7ec6ce26e774be6e9d98",
      "blockNumber": 86758,
      "transactionIndex": 0,
      "confirmations": null,
      "from": "0x39D6caCA22Bccd6A72f87Ee7d6B59e0bde21d719",
      "gasPrice": {
        "_hex": "0x110c8f7d8de"
      },
      "gasLimit": {
        "_hex": "0xc350"
      },
      "to": "0x2910543Af39abA0Cd09dBb2D50200b3E800A63D2",
      "value": {
        "_hex": "0x15af1d78b58c400000"
      },
      "nonce": 2,
      "data": "0x454e52335745523347",
      "r": "0xb93e4b095458df54ca4c7198e74db7ad106ae3c197fbcb2017293eeccf216a3b",
      "s": "0x565a53c6a6919cfcac2e93c3671e28ebdff398492b001014316b203f829442aa",
      "v": 27,
      "creates": null,
      "raw": "0xf87702860110c8f7d8de82c350942910543af39aba0cd09dbb2d50200b3e800a63d28915af1d78b58c40000089454e523357455233471ba0b93e4b095458df54ca4c7198e74db7ad106ae3c197fbcb2017293eeccf216a3ba0565a53c6a6919cfcac2e93c3671e28ebdff398492b001014316b203f829442aa",
      "networkId": 0,
      "chainId": 0
    }
  ]
}