{
  "hash": "0x08c98ab7451568e6fe7877eff82d8cd5e15ddb8a74c7732c92fae4e190f0ca37",
  "parentHash": "0x3f1e0af59c9078b343fab74955f41181373aaeb68f20db140dbe86ad7346b469",
  "number": 100433,
  "timestamp": 1439806641,
  "nonce": "0xf30434459c7f554a",
  "difficulty": 3794978764486,
  "gasLimit": {
    "_hex": "0x2fefd8"
  },
  "gasUsed": {
    "_hex": "0xa410"
  },
  "miner": "0x6dED38803DA575897de5d51b7AEF3b86f35945A1",
  "extraData": "0x476574682f76312e302e312f6c696e75782f676f312e342e32",
  "transactions": [
    {
      "hash": "0x528b84f87cc0f4fc4ff52ad6d4fffd247987a19ab4147590ab99cb2f87618db3",
      "blockHash": "0x08c98ab7451568e6fe7877eff82d8cd5e15ddb8a74c7732c92fae4e190f0ca37",
      "blockNumber": 100433,
      "transactionIndex": 0,
      "confirmations": null,
      "from": "0xD9666150A9dA92d9108198a4072970805a8B3428",
      "gasPrice": {
        "_hex": "0xd483db961"
      },
      "gasLimit": {
        "_hex": "0x5208"
      },
      "to": "0x32Be343B94f860124dC4fEe278FDCBD38C102D88",
      "value": {
        "_hex": "0x455f5ae4c47b5400"
      },
      "nonce": 43,
      "data": "0x",
      "r": "0xb9d92421dfed545cf9db930da03f481d4760d4d165d39e08d2b8a1b55bb37343",
      "s": "0x50f63c7faf9e1f76d19e9a0c78882c37280fbd8d6eaf9b2460a49275beb4c67b",
      "v": 28,
      "creates": null,
      "raw": "0xf86c2b850d483db9618252089432be343b94f860124dc4fee278fdcbd38c102d8888455f5ae4c47b5400801ca0b9d92421dfed545cf9db930da03f481d4760d4d165d39e08d2b8a1b55bb37343a050f63c7faf9e1f76d19e9a0c78882c37280fbd8d6eaf9b2460a49275beb4c67b",
      "networkId": 0,
      "chainId": 0
    },
    {
      "hash": "0x89d447e668cca665ad78513922794d22b1ce0d8df6bb046315fc40271259da81",
      "blockHash": "0x08c98ab7451568e6fe7877eff82d8cd5e15ddb8a74c7732c92fae4e190f0ca37",
      "blockNumber": 100433,
      "transactionIndex": 1,
      "confirmations": null,
      "from": "0x47fe9Ce29dA03E8466a067e4321fD32312e39607",
      "gasPrice": {
        "_hex": "0xcf69610a9"
      },
      "gasLimit": {
        "_hex": "0x15f90"
      },
      "to": "0x132ACC4ebA2B5039C65849368648bc19f32BEd97",
      "value": {
        "_hex": "0xde0b6b3a7640000"
      },
      "nonce": 5,
      "data": "0x",
      "r": "0x69302dd2214187098f65a54dd56c2b7dbd5545eaeff31c458e5a218495457835",
      "s": "0x041b5a03102f5a95ec404ad0d90b37731c65ef0743c15b1096d63bae5659a579",
      "v": 28,
      "creates": null,
      "raw": "0xf86d05850cf69610a983015f9094132acc4eba2b5039c65849368648bc19f32bed97880de0b6b3a7640000801ca069302dd2214187098f65a54dd56c2b7dbd5545eaeff31c458e5a218495457835a0041b5a03102f5a95ec404ad0d90b37731c65ef0743c15b1096d63bae5659a579",
      "networkId": 0,
      "chainId": 0
    }
  ]
}