{
  "hash": "0xa403da1fcfa3fdc31d7360d5e242f1205afb60cc04389d4fcd6008c5b5a977a2",
  "parentHash": "0xdfab3477cfc0da5ef580bdbb9f8d9b5d0143571daf0e70b0bbc0d08559c1fdd9",
  "number": 63170,
  "timestamp": 1439200328,
  "nonce": "0x33a77a8d1b4d6c06",
  "difficulty": 1803241170643,
  "gasLimit": {
    "_hex": "0x2fefd8"
  },
  "gasUsed": {
    "_hex": "0x5208"
  },
  "miner": "0xbb7B8287f3F0a933474a79eAe42CBCa977791171",
  "extraData": "0x476574682f4c5649562f76312e302e312f6c696e75782f676f312e342e32",
  "transactions": [
    {
      "hash": "0xb3971475a5534ea260a18fa00fdc11fa1fdb24419dae1533ef7d8dc805676eee",
      "blockHash": "0xa403da1fcfa3fdc31d7360d5e242f1205afb60cc04389d4fcd6008c5b5a977a2",
      "blockNumber": 63170,
      "transactionIndex": 0,
      "confirmations": null,
      "from": "0x2Aef8Fb29909AaAa9132e12eFa89a6d04FbC5261",
      "gasPrice": {
        "_hex": "0xd7d40ace3"
      },
      "gasLimit": {
        "_hex": "0x15f90"
      },
      "to": "0x1FC0a68ee75c96453Dc8A877F49CfD6ab21d00ec",
      "value": {
        "_hex": "0x16345785d8a0000"
      },
      "nonce": 0,
      "data": "0x",
      "r": "0xe34728560593f95869001910d4d2a84f5c90bde2053f9c8cdf33f1acf423e64e",
      "s": "0x328ff12d27440e706b032c3647fba1c63250d7446c0cae040642d994c77aea3c",
      "v": 27,
      "creates": null,
      "raw": "0xf86d80850d7d40ace383015f90941fc0a68ee75c96453dc8a877f49cfd6ab21d00ec88016345785d8a0000801ba0e34728560593f95869001910d4d2a84f5c90bde2053f9c8cdf33f1acf423e64ea0328ff12d27440e706b032c3647fba1c63250d7446c0cae040642d994c77aea3c",
      "networkId": 0,
      "chainId": 0
    }
  ]
}