{
  "hash": "0xbf6b87fac9b7e5b2dbe8492f919ce3f5b1f977266d3e683b2ecdfaf0bec5d2d8",
  "parentHash": "0x67744e7b934d5a0ff4b03184325d193c1e32a5f39f9683cbd49588a629c61b29",
  "number": 92345,
  "timestamp": 1439670647,
  "nonce": "0x3ae837f80c948670",
  "difficulty": 3502889803973,
  "gasLimit": {
    "_hex": "0x2fefd8"
  },
  "gasUsed": {
    "_hex": "0x133de"
  },
  "miner": "0xe6A7a1d47ff21B6321162AEA7C6CB457D5476Bca",
  "extraData": "0x476574682f76312e302e312d38326566323666362f6c696e75782f676f312e34",
  "transactions": [
    {
      "hash": "0xd93a95e696ff2298d21065852592f7d72c1b986e48f82897b3c293c2069bc331",
      "blockHash": "0xbf6b87fac9b7e5b2dbe8492f919ce3f5b1f977266d3e683b2ecdfaf0bec5d2d8",
      "blockNumber": 92345,
      "transactionIndex": 0,
      "confirmations": null,
      "from": "0xa30e0ACB534c9b3084E8501dA090B4eB16A2C0Cd",
      "gasPrice": {
        "_hex": "0x746a528800"
      },
      "gasLimit": {
        "_hex": "0x5208"
      },
      "to": "0xFcefbDb5ab3B71FDE148e3d9Eb4Ac77F16e6e7Cb",
      "value": {
        "_hex": "0xde0b6b3a7640000"
      },
      "nonce": 0,
      "data": "0x",
      "r": "0xee18ed99897bf5a2ffd02706e2107b218c65e48a8159a839d0dc6e759ccefaf2",
      "s": "0x348e191ef824b0261b1fa58d2b6d8abee764aa42a0a0b140bae853da9f9126ce",
      "v": 27,
      "creates": null,
      "raw": "0xf86c8085746a52880082520894fcefbdb5ab3b71fde148e3d9eb4ac77f16e6e7cb880de0b6b3a7640000801ba0ee18ed99897bf5a2ffd02706e2107b218c65e48a8159a839d0dc6e759ccefaf2a0348e191ef824b0261b1fa58d2b6d8abee764aa42a0a0b140bae853da9f9126ce",
      "networkId": 0,
      "chainId": 0
    },
    {
      "hash": "0x7eeb3e6fe4f17cd3e0aa05a8cd118e0be8b9a441f46c77dac6d1f7f82b5a69d2",
      "blockHash": "0xbf6b87fac9b7e5b2dbe8492f919ce3f5b1f977266d3e683b2ecdfaf0bec5d2d8",
      "blockNumber": 92345,
      "transactionIndex": 1,
      "confirmations": null,
      "from": "0xFBb1b73C4f0BDa4f67dcA266ce6Ef42f520fBB98",
      "gasPrice": {
        "_hex": "0xcc7fe1d02"
      },
      "gasLimit": {
        "_hex": "0x15f90"
      },
      "to": "0xCAc7000C7dBaa2E33Af15325AF5D435E011C7BdD",
      "value": {
        "_hex": "0x0"
      },
      "nonce": 49,
      "data": "0x3feb1bd84249545452455830300000000000000000000000000000000000000000000000000000000000000000000000e0f2071907ecf7f55df7a681cd68fa5b7575ea7b000000000000000000000000000000000000000000000000013fbe85edc90000",
      "r": "0x214907b9069f066f09e20cd2cdb61be9f6289dd1a8c9dbb1849223db722c3a2c",
      "s": "0x7d817d55f0ba791856bd07128c0545d468cccba5a435c5212f65f458ee98425e",
      "v": 27,
      "creates": null,
      "raw": "0xf8ca31850cc7fe1d0283015f9094cac7000c7dbaa2e33af15325af5d435e011c7bdd80b8643feb1bd84249545452455830300000000000000000000000000000000000000000000000000000000000000000000000e0f2071907ecf7f55df7a681cd68fa5b7575ea7b000000000000000000000000000000000000000000000000013fbe85edc900001ba0214907b9069f066f09e20cd2cdb61be9f6289dd1a8c9dbb1849223db722c3a2ca07d817d55f0ba791856bd07128c0545d468cccba5a435c5212f65f458ee98425e",
      "networkId": 0,
      "chainId": 0
    }
  ]
}