{
  "hash": "0x3870bc5704111bada54fae19d270c69b0caaabd8ae6d7e7345ca66e6ada2cd23",
  "parentHash": "0x474bc8afe59df78bd5334ea4e15d17dfa28f6fee575c3407cb75b5d3fc312b17",
  "number": 62140,
  "timestamp": 1439183854,
  "nonce": "0x76fa1e2331aceb4d",
  "difficulty": 1770308442398,
  "gasLimit": {
    "_hex": "0x2fefd5"
  },
  "gasUsed": {
    "_hex": "0x5208"
  },
  "miner": "0xcedF8EBB5ee36636816b0CC979a22EFDe57015D6",
  "extraData": "0x476574682f76312e302e312f6c696e75782f676f312e342e32",
  "transactions": [
    {
      "hash": "0x21f805917bb9fa1c54d74e3c4ef233629f1dc1c522362d81bf76580e914dd4be",
      "blockHash": "0x3870bc5704111bada54fae19d270c69b0caaabd8ae6d7e7345ca66e6ada2cd23",
      "blockNumber": 62140,
      "transactionIndex": 0,
      "confirmations": null,
      "from": "0x96811Ad897894eC178872117C8BF2f03971A393B",
      "gasPrice": {
        "_hex": "0xdc1031082"
      },
      "gasLimit": {
        "_hex": "0x5208"
      },
      "to": "0x32Be343B94f860124dC4fEe278FDCBD38C102D88",
      "value": {
        "_hex": "0x155ee75323ba45000"
      },
      "nonce": 9,
      "data": "0x",
      "r": "0x7fc574c59c0ab304ce78b8526e9f28e5010e15ea4b28638e3deab1046cc187e1",
      "s": "0x34ac00fc0ff9dc5ce7d0652810890b6f3d1ee643f2a15d02aae9b431d9713f0f",
      "v": 27,
      "creates": null,
      "raw": "0xf86d09850dc10310828252089432be343b94f860124dc4fee278fdcbd38c102d88890155ee75323ba45000801ba07fc574c59c0ab304ce78b8526e9f28e5010e15ea4b28638e3deab1046cc187e1a034ac00fc0ff9dc5ce7d0652810890b6f3d1ee643f2a15d02aae9b431d9713f0f",
      "networkId": 0,
      "chainId": 0
    }
  ]
}