{
  "hash": "0xaa7ec97576e89e366e2c8fb08a127266e75d0792234773d9ca05014c93eaf009",
  "parentHash": "0xb42ba4d6c96b4bd6d7c8934f63384a3ffcb0e32932294e04c197f343dcc3b6c5",
  "number": 104247,
  "timestamp": 1439866643,
  "nonce": "0x7c228dee91acd775",
  "difficulty": 4285745316317,
  "gasLimit": {
    "_hex": "0x2fefd8"
  },
  "gasUsed": {
    "_hex": "0x5208"
  },
  "miner": "0x580992B51e3925e23280EfB93d3047C82f17E038",
  "extraData": "0x476574682f76312e302e312f6c696e75782f676f312e342e32",
  "transactions": [
    {
      "hash": "0xd1e21b357df867c350ad073835ba297630a24d222f697e501a48307275a69eb7",
      "blockHash": "0xaa7ec97576e89e366e2c8fb08a127266e75d0792234773d9ca05014c93eaf009",
      "blockNumber": 104247,
      "transactionIndex": 0,
      "confirmations": null,
      "from": "0x120A270bbC009644e35F0bB6ab13f95b8199c4ad",
      "gasPrice": {
        "_hex": "0xe04af2f99"
      },
      "gasLimit": {
        "_hex": "0x3d090"
      },
      "to": "0x9eE2bcfE9d322cFD264b1aa913ff9e2Ca905C204",
      "value": {
        "_hex": "0x293138ba2817678400"
      },
      "nonce": 742,
      "data": "0x",
      "r": "0x791c324ca687dead56e2872a0952909c782c4b934132b621a26ad9a10dcd5e3e",
      "s": "0x587b515bb8f1735fee686aa63976c018752fa43ba678d805c858d1e56dc857cd",
      "v": 28,
      "creates": null,
      "raw": "0xf8708202e6850e04af2f998303d090949ee2bcfe9d322cfd264b1aa913ff9e2ca905c20489293138ba2817678400801ca0791c324ca687dead56e2872a0952909c782c4b934132b621a26ad9a10dcd5e3ea0587b515bb8f1735fee686aa63976c018752fa43ba678d805c858d1e56dc857cd",
      "networkId": 0,
      "chainId": 0
    }
  ]
}