{
  "hash": "0x77166fc5c5f394a2936b808c9c210c4984a383125753118d572188315ac08191",
  "parentHash": "0x6a1c608c66379bab0ec0435e540b1b1f2b8ec10158338ce6c6be39aba1104d5c",
  "number": 77337,
  "timestamp": 1439435552,
  "nonce": "0xcdded059e59b904b",
  "difficulty": 2234920079143,
  "gasLimit": {
    "_hex": "0x2fefd8"
  },
  "gasUsed": {
    "_hex": "0xabb0"
  },
  "miner": "0x108b54b7E3c09F8127CB8B28ffA3AD4001b32998",
  "extraData": "0x476574682f76312e302e312d38326566323666362f6c696e75782f676f312e34",
  "transactions": [
    {
      "hash": "0xbcb73a23174415183fc95a266223927bf089ee151e5732d580588ea6b18b7d40",
      "blockHash": "0x77166fc5c5f394a2936b808c9c210c4984a383125753118d572188315ac08191",
      "blockNumber": 77337,
      "transactionIndex": 0,
      "confirmations": null,
      "from": "0x770d98d31b4353FceEE8560c4CCf803e88C0c4e0",
      "gasPrice": {
        "_hex": "0xce1d5c051"
      },
      "gasLimit": {
        "_hex": "0x15f90"
      },
      "to": "0x0000000000000000000000000000000000000000",
      "value": {
        "_hex": "0x38d7ea4c68000"
      },
      "nonce": 11,
      "data": "0xb214faa54131313131313131410000000000000000000000000000000000000000000000",
      "r": "0x4585b8f39b4a69166d5121ac29b11726695960dc5f27873f5c11fe0876ee2ceb",
      "s": "0x60bb1e5e46452c807c9b642a45c3af120ad5d66d3bc04c1323635d705a393be5",
      "v": 27,
      "creates": null,
      "raw": "0xf8900b850ce1d5c05183015f9094000000000000000000000000000000000000000087038d7ea4c68000a4b214faa541313131313131314100000000000000000000000000000000000000000000001ba04585b8f39b4a69166d5121ac29b11726695960dc5f27873f5c11fe0876ee2ceba060bb1e5e46452c807c9b642a45c3af120ad5d66d3bc04c1323635d705a393be5",
      "networkId": 0,
      "chainId": 0
    },
    {
      "hash": "0xd0b113ac8dc2295f4e76e3d3eeedd723e687d04c887a2597ab2d91df5b26c959",
      "blockHash": "0x77166fc5c5f394a2936b808c9c210c4984a383125753118d572188315ac08191",
      "blockNumber": 77337,
      "transactionIndex": 1,
      "confirmations": null,
      "from": "0x770d98d31b4353FceEE8560c4CCf803e88C0c4e0",
      "gasPrice": {
        "_hex": "0xce1d5c051"
      },
      "gasLimit": {
        "_hex": "0x15f90"
      },
      "to": "0x0000000000000000000000000000000000000000",
      "value": {
        "_hex": "0x0"
      },
      "nonce": 12,
      "data": "0xb214faa54131313131313131410000000000000000000000000000000000000000000000",
      "r": "0xbece4f4e0df9811eb403376155930d6988addbd962db76629d2645b99479769e",
      "s": "0x142a124f49703066cc4a7ab0a0e5f99d6771ea731e3783b43e4613d973211065",
      "v": 27,
      "creates": null,
      "raw": "0xf8890c850ce1d5c05183015f9094000000000000000000000000000000000000000080a4b214faa541313131313131314100000000000000000000000000000000000000000000001ba0bece4f4e0df9811eb403376155930d6988addbd962db76629d2645b99479769ea0142a124f49703066cc4a7ab0a0e5f99d6771ea731e3783b43e4613d973211065",
      "networkId": 0,
      "chainId": 0
    }
  ]
}