{
  "hash": "0xaf608dbe673d8327f04ffdf75f6e2128de40f571472bbbe014019040eb9c9662",
  "parentHash": "0x006f040f45e7c5d9097c6bf74c23ecf4ab431281ac078829b5cc23391b45f460",
  "number": 60584,
  "timestamp": 1439158322,
  "nonce": "0x7546913dce74d26e",
  "difficulty": 1731309992486,
  "gasLimit": {
    "_hex": "0x2fefd8"
  },
  "gasUsed": {
    "_hex": "0xa410"
  },
  "miner": "0x2134e2a2b718DCa96580ECAC31E653Ea1fdd58DA",
  "extraData": "0x476574682f76312e302e312f77696e646f77732f676f312e342e32",
  "transactions": [
    {
      "hash": "0xb7f5cc787ff1a3f64bd08f28536e075efc2319dc051eb515bb35294e35c740f1",
      "blockHash": "0xaf608dbe673d8327f04ffdf75f6e2128de40f571472bbbe014019040eb9c9662",
      "blockNumber": 60584,
      "transactionIndex": 0,
      "confirmations": null,
      "from": "0x32Be343B94f860124dC4fEe278FDCBD38C102D88",
      "gasPrice": {
        "_hex": "0xcc329237e"
      },
      "gasLimit": {
        "_hex": "0x5208"
      },
      "to": "0x9B2c46642CAF6B936dc0633da521f1E946B7e18F",
      "value": {
        "_hex": "0xdbd2fc137a30000"
      },
      "nonce": 122,
      "data": "0x",
      "r": "0xea136e0efb2c2326fe05238e105bb7cc244cec81573c73e3003e2b64e7e21e2a",
      "s": "0x125a6ea682a1ba9631ca3e27fe4d34934489bfeb444f391338be7d24df57c0ed",
      "v": 27,
      "creates": null,
      "raw": "0xf86c7a850cc329237e825208949b2c46642caf6b936dc0633da521f1e946b7e18f880dbd2fc137a30000801ba0ea136e0efb2c2326fe05238e105bb7cc244cec81573c73e3003e2b64e7e21e2aa0125a6ea682a1ba9631ca3e27fe4d34934489bfeb444f391338be7d24df57c0ed",
      "networkId": 0,
      "chainId": 0
    },
    {
      "hash": "0x564097e69376ccfdd43f78e027dfe78a3ce0cd00f910ce7401762db9a6f0bba1",
      "blockHash": "0xaf608dbe673d8327f04ffdf75f6e2128de40f571472bbbe014019040eb9c9662",
      "blockNumber": 60584,
      "transactionIndex": 1,
      "confirmations": null,
      "from": "0x32Be343B94f860124dC4fEe278FDCBD38C102D88",
      "gasPrice": {
        "_hex": "0xcc329237e"
      },
      "gasLimit": {
        "_hex": "0x5208"
      },
      "to": "0x9E5B4729c3266d77caE7F08C303b191Ac4d6B8CD",
      "value": {
        "_hex": "0x64b0935f8320a4000"
      },
      "nonce": 123,
      "data": "0x",
      "r": "0xcd4e29c4cdc1838cca5bfc81a01808961eb6a92ca160d6bff8364554f6f97d54",
      "s": "0x23abb72cc408f3f235884a01b980b72f5a32fe6d9ed2201b3287c31d3f256b64",
      "v": 27,
      "creates": null,
      "raw": "0xf86d7b850cc329237e825208949e5b4729c3266d77cae7f08c303b191ac4d6b8cd89064b0935f8320a4000801ba0cd4e29c4cdc1838cca5bfc81a01808961eb6a92ca160d6bff8364554f6f97d54a023abb72cc408f3f235884a01b980b72f5a32fe6d9ed2201b3287c31d3f256b64",
      "networkId": 0,
      "chainId": 0
    }
  ]
}