{
  "hash": "0x53692f56d9ea9ebdef2293e07cb20b95e6dbe2a3908884ed766eab556fbae976",
  "parentHash": "0x17e5ab5fabbe028f5c4fb969df74a11204bb534da88e9fcba95b9b896a477210",
  "number": 53595,
  "timestamp": 1439040196,
  "nonce": "0xea55b8893acfa0b4",
  "difficulty": 1597066520345,
  "gasLimit": {
    "_hex": "0x2cb516"
  },
  "gasUsed": {
    "_hex": "0x546c"
  },
  "miner": "0xA1623430350C5df1b52B0b57483A5bb45d1796Da",
  "extraData": "0x476574682f76312e302e302d30636463373634372f6c696e75782f676f312e34",
  "transactions": [
    {
      "hash": "0x8ae0c8da1eeac13db3f912678f4470875e391f39fe8dfd1f8cb0146a8430f56d",
      "blockHash": "0x53692f56d9ea9ebdef2293e07cb20b95e6dbe2a3908884ed766eab556fbae976",
      "blockNumber": 53595,
      "transactionIndex": 0,
      "confirmations": null,
      "from": "0x63F5B53D79bF2E411489526530223845FAC6f601",
      "gasPrice": {
        "_hex": "0x110c8f7d8de"
      },
      "gasLimit": {
        "_hex": "0xc350"
      },
      "to": "0x2910543Af39abA0Cd09dBb2D50200b3E800A63D2",
      "value": {
        "_hex": "0xc7d713b49da0000"
      },
      "nonce": 1,
      "data": "0x454e44374157385a52",
      "r": "0x883a8ea07efd26c4536b1f36aa1894a435c01121e2e0b1e847d3efbefd660627",
      "s": "0x5b269d5e202e4f5e37a6f50db4069286ef5ec1caffd1ae24bccea9a000e8db98",
      "v": 27,
      "creates": null,
      "raw": "0xf87601860110c8f7d8de82c350942910543af39aba0cd09dbb2d50200b3e800a63d2880c7d713b49da000089454e44374157385a521ba0883a8ea07efd26c4536b1f36aa1894a435c01121e2e0b1e847d3efbefd660627a05b269d5e202e4f5e37a6f50db4069286ef5ec1caffd1ae24bccea9a000e8db98",
      "networkId": 0,
      "chainId": 0
    }
  ]
}