{
  "hash": "0xb16fc13d7e334466d68ba78d085e51b4f6856f83d44708593ac24e8b0f40ef6f",
  "parentHash": "0x3e9638ce660eef40c1b2de8bd6ee7d0455b6377726f44dcce266e46553e59b5c",
  "number": 57291,
  "timestamp": 1439100697,
  "nonce": "0x62a24bc571175076",
  "difficulty": 1741317470135,
  "gasLimit": {
    "_hex": "0x2fefd8"
  },
  "gasUsed": {
    "_hex": "0x5208"
  },
  "miner": "0xbb7B8287f3F0a933474a79eAe42CBCa977791171",
  "extraData": "0x476574682f4c5649562f76312e302e312f6c696e75782f676f312e342e32",
  "transactions": [
    {
      "hash": "0xef1594c440359b0909c870179a64efe90d50b67ee178ccf0a17aae9c08e1beea",
      "blockHash": "0xb16fc13d7e334466d68ba78d085e51b4f6856f83d44708593ac24e8b0f40ef6f",
      "blockNumber": 57291,
      "transactionIndex": 0,
      "confirmations": null,
      "from": "0xF0224ea727d4924A8dd69a8d2d473Cc4c3590423",
      "gasPrice": {
        "_hex": "0xd1771fb03"
      },
      "gasLimit": {
        "_hex": "0x5208"
      },
      "to": "0x32Be343B94f860124dC4fEe278FDCBD38C102D88",
      "value": {
        "_hex": "0x15f1e7194addc00"
      },
      "nonce": 1,
      "data": "0x",
      "r": "0x3e1256d10a3f9ec2e921863f18895cd2f81026be24c9a5d99b3b624557a2480b",
      "s": "0x058a9e218317b9b1769d4ded3d12caab4704e24ba7bc206132d078f2d7b0f650",
      "v": 28,
      "creates": null,
      "raw": "0xf86c01850d1771fb038252089432be343b94f860124dc4fee278fdcbd38c102d8888015f1e7194addc00801ca03e1256d10a3f9ec2e921863f18895cd2f81026be24c9a5d99b3b624557a2480ba0058a9e218317b9b1769d4ded3d12caab4704e24ba7bc206132d078f2d7b0f650",
      "networkId": 0,
      "chainId": 0
    }
  ]
}