{
  "hash": "0x33d5cb4f952adb3c983498b2f3b9dec66a7290caf4a13f5e4b111c18102cae16",
  "parentHash": "0x64a5d0384323436628ff49667cc17c02ffc609315434103d63bf7fead071c037",
  "number": 46507,
  "timestamp": 1438924235,
  "nonce": "0x461dbcdffb2d99a1",
  "difficulty": 1468222569836,
  "gasLimit": {
    "_hex": "0x6583"
  },
  "gasUsed": {
    "_hex": "0x5208"
  },
  "miner": "0x0A63E1A8C33e351679e3581AC84ce341C32f813a",
  "extraData": "0x476574682f76312e302e312d38326566323666362f6c696e75782f676f312e34",
  "transactions": [
    {
      "hash": "0x6e238f1413997a54309f955f9fd6d37043cf8431b55458b324d896c3a1a07004",
      "blockHash": "0x33d5cb4f952adb3c983498b2f3b9dec66a7290caf4a13f5e4b111c18102cae16",
      "blockNumber": 46507,
      "transactionIndex": 0,
      "confirmations": null,
      "from": "0xa89AC93b23370472DaAc337E9afdF642543F3E57",
      "gasPrice": {
        "_hex": "0x746a528800"
      },
      "gasLimit": {
        "_hex": "0x5208"
      },
      "to": "0xB5046cb3dC1DEDbd364514a2848E44C1dE4ED147",
      "value": {
        "_hex": "0x3635c9adc5dea00000"
      },
      "nonce": 9,
      "data": "0x",
      "r": "0xc2c8b8464580ceb22764b4d9636aff73fc3ab2eae8fdbe6db54278ce30ed5d1c",
      "s": "0x0551489bb21117334f3bbb8043d7f9d5024899c4babc7863440b4338c17a0176",
      "v": 28,
      "creates": null,
      "raw": "0xf86d0985746a52880082520894b5046cb3dc1dedbd364514a2848e44c1de4ed147893635c9adc5dea00000801ca0c2c8b8464580ceb22764b4d9636aff73fc3ab2eae8fdbe6db54278ce30ed5d1ca00551489bb21117334f3bbb8043d7f9d5024899c4babc7863440b4338c17a0176",
      "networkId": 0,
      "chainId": 0
    }
  ]
}