{
  "hash": "0x27d623d51f7b5ba57d832a44f39b3bf7bd1911f8d8f541af48853fabe0821d3f",
  "parentHash": "0x173aac2215e3a146009cdffcc5cfc3f06a10b32d47d3e78a6793dc0ba7e36568",
  "number": 119077,
  "timestamp": 1440136327,
  "nonce": "0x93c5f378c2790a36",
  "difficulty": 4426929768628,
  "gasLimit": {
    "_hex": "0x2fefd8"
  },
  "gasUsed": {
    "_hex": "0x5208"
  },
  "miner": "0x5DE860D6869F1f5B252804d304547004Da5d69dF",
  "extraData": "0xd783010002844765746887676f312e342e32856c696e7578",
  "transactions": [
    {
      "hash": "0x7a568015d6e69a6475437fe6bd3636c748565c9fe15b33aeb5db01cdaafa9da6",
      "blockHash": "0x27d623d51f7b5ba57d832a44f39b3bf7bd1911f8d8f541af48853fabe0821d3f",
      "blockNumber": 119077,
      "transactionIndex": 0,
      "confirmations": null,
      "from": "0x608f4b86321a68453f9adf6F06F7Fc3E621739ad",
      "gasPrice": {
        "_hex": "0xba43b7400"
      },
      "gasLimit": {
        "_hex": "0x5208"
      },
      "to": "0x32Be343B94f860124dC4fEe278FDCBD38C102D88",
      "value": {
        "_hex": "0x455fd68a17f06000"
      },
      "nonce": 20,
      "data": "0x",
      "r": "0x61125735921862f0b33eeba98a9f75909675b2406f3ec77c60f28d735eea43b8",
      "s": "0x1bdf36542d2bc86bb0f59ce2b62e9d372fadafd61c332e89d480b46f749b1031",
      "v": 28,
      "creates": null,
      "raw": "0xf86c14850ba43b74008252089432be343b94f860124dc4fee278fdcbd38c102d8888455fd68a17f06000801ca061125735921862f0b33eeba98a9f75909675b2406f3ec77c60f28d735eea43b8a01bdf36542d2bc86bb0f59ce2b62e9d372fadafd61c332e89d480b46f749b1031",
      "networkId": 0,
      "chainId": 0
    }
  ]
}