{
  "hash": "0x2626cefd3f6c862877e62db1e2f5f555fcc7d22acbb7fdce31752086e566a022",
  "parentHash": "0xe978c7eda122bcbd035b01a2822d498e0e796e7a71aafe107ea1c3d674cb3d93",
  "number": 110678,
  "timestamp": 1439977723,
  "nonce": "0xcd8f02a64e675b7d",
  "difficulty": 4373326504793,
  "gasLimit": {
    "_hex": "0x2fefd8"
  },
  "gasUsed": {
    "_hex": "0xa410"
  },
  "miner": "0x007f7f58D3eb5b7510A301eCC749FC1fCDDBE14D",
  "extraData": "0x476574682f76312e302e312f77696e646f77732f676f312e342e32",
  "transactions": [
    {
      "hash": "0x8460a31e3783f06441ce8a0e2a75c51c5e307646b4d5fcf4a9acf1666b8a3471",
      "blockHash": "0x2626cefd3f6c862877e62db1e2f5f555fcc7d22acbb7fdce31752086e566a022",
      "blockNumber": 110678,
      "transactionIndex": 0,
      "confirmations": null,
      "from": "0x19ae27E1b61445EB9f27821A5eB4b3e957319e7e",
      "gasPrice": {
        "_hex": "0xcd18d1837"
      },
      "gasLimit": {
        "_hex": "0x5208"
      },
      "to": "0x32Be343B94f860124dC4fEe278FDCBD38C102D88",
      "value": {
        "_hex": "0xd8d71f0e15afa80000"
      },
      "nonce": 18,
      "data": "0x",
      "r": "0xa39cbe6538370f047188986247f5c1118800f7f033e50834323e079358b428ab",
      "s": "0x57f4a9f056f4c8662c9b768b177f93c174568f8fec2dfde9cc6ee05815cab839",
      "v": 28,
      "creates": null,
      "raw": "0xf86d12850cd18d18378252089432be343b94f860124dc4fee278fdcbd38c102d8889d8d71f0e15afa80000801ca0a39cbe6538370f047188986247f5c1118800f7f033e50834323e079358b428aba057f4a9f056f4c8662c9b768b177f93c174568f8fec2dfde9cc6ee05815cab839",
      "networkId": 0,
      "chainId": 0
    },
    {
      "hash": "0x6e2469e8670f8a28b11cb0b7631416a3e2a25a60a7cbe3bd1b0b1c593f150a14",
      "blockHash": "0x2626cefd3f6c862877e62db1e2f5f555fcc7d22acbb7fdce31752086e566a022",
      "blockNumber": 110678,
      "transactionIndex": 1,
      "confirmations": null,
      "from": "0xE6D67E3661E28eE2DfC1c68D5DeeA3C3bB880059",
      "gasPrice": {
        "_hex": "0xcd18d1837"
      },
      "gasLimit": {
        "_hex": "0x5208"
      },
      "to": "0x32Be343B94f860124dC4fEe278FDCBD38C102D88",
      "value": {
        "_hex": "0x25d852631c210000"
      },
      "nonce": 10,
      "data": "0x",
      "r": "0x82850415e00da7c39ed6f9fd3bbb6e1926e4343bfb508bef83feb372aa46cbe3",
      "s": "0x334e987b891fedef821ae02ad7113766b75dae98021b90e29557ad7137e1c1cc",
      "v": 28,
      "creates": null,
      "raw": "0xf86c0a850cd18d18378252089432be343b94f860124dc4fee278fdcbd38c102d888825d852631c210000801ca082850415e00da7c39ed6f9fd3bbb6e1926e4343bfb508bef83feb372aa46cbe3a0334e987b891fedef821ae02ad7113766b75dae98021b90e29557ad7137e1c1cc",
      "networkId": 0,
      "chainId": 0
    }
  ]
}