{
  "hash": "0xfb1969858e0264e33b4f03d808ac4a0099e52fdc4a0e50abd6f531fc4df88932",
  "parentHash": "0x4a93f1fe77472009905088c8670632d71083fac38cc7ac855eddb36c8f49a802",
  "number": 85221,
  "timestamp": 1439560290,
  "nonce": "0xbc9016b8a42e04f4",
  "difficulty": 2746416274384,
  "gasLimit": {
    "_hex": "0x2fefd8"
  },
  "gasUsed": {
    "_hex": "0x5208"
  },
  "miner": "0xe6A7a1d47ff21B6321162AEA7C6CB457D5476Bca",
  "extraData": "0x476574682f76312e302e312d38326566323666362f6c696e75782f676f312e34",
  "transactions": [
    {
      "hash": "0x181cdc526ca53fceb955a1b0cdad8822ba5fdee562583db125a772c580d611f3",
      "blockHash": "0xfb1969858e0264e33b4f03d808ac4a0099e52fdc4a0e50abd6f531fc4df88932",
      "blockNumber": 85221,
      "transactionIndex": 0,
      "confirmations": null,
      "from": "0x2910543Af39abA0Cd09dBb2D50200b3E800A63D2",
      "gasPrice": {
        "_hex": "0xcd56a6940"
      },
      "gasLimit": {
        "_hex": "0x5208"
      },
      "to": "0x7deEaDaB7830dB2Be70624089951cD480B4206b4",
      "value": {
        "_hex": "0x822fc8f433a418000"
      },
      "nonce": 596,
      "data": "0x",
      "r": "0x6f653d88083385b3f1366b09136fe2e7f59e308f6140537f5856de48422e7be3",
      "s": "0x0a474247bac892baed0d58aa0f3cb7a9ae1b1c01d542d4c6c297b78ca1973327",
      "v": 27,
      "creates": null,
      "raw": "0xf86f820254850cd56a6940825208947deeadab7830db2be70624089951cd480b4206b4890822fc8f433a418000801ba06f653d88083385b3f1366b09136fe2e7f59e308f6140537f5856de48422e7be3a00a474247bac892baed0d58aa0f3cb7a9ae1b1c01d542d4c6c297b78ca1973327",
      "networkId": 0,
      "chainId": 0
    }
  ]
}