{
  "hash": "0xe2eb7e9a3a08a3d503a949a14c84f3cf293ac4f75cc26dd18dc2cafdad2ecdcc",
  "parentHash": "0xdadd334b03c5565b3cdba222533eae51acecf7451f95f5a7634272511618ada7",
  "number": 73267,
  "timestamp": 1439366252,
  "nonce": "0x5f21d54c3084f94a",
  "difficulty": 2203489437715,
  "gasLimit": {
    "_hex": "0x2fefd8"
  },
  "gasUsed": {
    "_hex": "0x5208"
  },
  "miner": "0xf927a40C8B7F6E07c5af7FA2155B4864a4112B13",
  "extraData": "0x",
  "transactions": [
    {
      "hash": "0x055c5f535098c4f4b5f25e11f23b72cc75eff0a85cedf76dc292eddefe6aed4d",
      "blockHash": "0xe2eb7e9a3a08a3d503a949a14c84f3cf293ac4f75cc26dd18dc2cafdad2ecdcc",
      "blockNumber": 73267,
      "transactionIndex": 0,
      "confirmations": null,
      "from": "0xAD220cCE3937674e425c9693786E3eC3615C900C",
      "gasPrice": {
        "_hex": "0xba43b7400"
      },
      "gasLimit": {
        "_hex": "0x5265"
      },
      "to": "0x9E5871FB2fe165484413293aa230D2774E888865",
      "value": {
        "_hex": "0x8ac7230489e80000"
      },
      "nonce": 0,
      "data": "0x",
      "r": "0xd901af962aff67b7dc1041500c06cd59307246bbb1b677a75309f29da18d9778",
      "s": "0x307ce7d57576f86c02f034157008f3d80a6b1549b502699850866a8894221484",
      "v": 27,
      "creates": null,
      "raw": "0xf86c80850ba43b7400825265949e5871fb2fe165484413293aa230d2774e888865888ac7230489e80000801ba0d901af962aff67b7dc1041500c06cd59307246bbb1b677a75309f29da18d9778a0307ce7d57576f86c02f034157008f3d80a6b1549b502699850866a8894221484",
      "networkId": 0,
      "chainId": 0
    }
  ]
}