{
  "hash": "0xb54fbda21865ad1bf60c3fafcb915b78fea34f45096fee7446798f4e079d2048",
  "parentHash": "0xb9a2b9d56fbcccbe10729019a3752b794ec052f3bbcefc1bb0480c9a81579abf",
  "number": 100561,
  "timestamp": 1439808522,
  "nonce": "0xbe999953bbcbc561",
  "difficulty": 3820951572805,
  "gasLimit": {
    "_hex": "0x2fefd8"
  },
  "gasUsed": {
    "_hex": "0x5208"
  },
  "miner": "0x8B454d830feF179e66206840F8F3D1d83bC32b17",
  "extraData": "0x476574682f76312e302e312f77696e646f77732f676f312e342e32",
  "transactions": [
    {
      "hash": "0x2aa47f18f9135dfe7da248b4b5478b86043a620f13814e212c9a0e276b2d8c8f",
      "blockHash": "0xb54fbda21865ad1bf60c3fafcb915b78fea34f45096fee7446798f4e079d2048",
      "blockNumber": 100561,
      "transactionIndex": 0,
      "confirmations": null,
      "from": "0x790b8a3cE86E707ED0eD32bF89B3269692a23CC1",
      "gasPrice": {
        "_hex": "0xd38fc1f8b"
      },
      "gasLimit": {
        "_hex": "0x15f90"
      },
      "to": "0x4D67f4F0Db45b3B5a3424B39ed8d972F710381D5",
      "value": {
        "_hex": "0x376ca67717b760000"
      },
      "nonce": 27,
      "data": "0x",
      "r": "0x4df4fb7db1de48bf58bf2c34c8d6b0879aba6774d7891b80150aa373e46c6ec6",
      "s": "0x10f1664655f536a4a658bcc3956e6014e70168f7be9edc7905fc173e2f93ea85",
      "v": 27,
      "creates": null,
      "raw": "0xf86e1b850d38fc1f8b83015f90944d67f4f0db45b3b5a3424b39ed8d972f710381d5890376ca67717b760000801ba04df4fb7db1de48bf58bf2c34c8d6b0879aba6774d7891b80150aa373e46c6ec6a010f1664655f536a4a658bcc3956e6014e70168f7be9edc7905fc173e2f93ea85",
      "networkId": 0,
      "chainId": 0
    }
  ]
}