{
  "hash": "0x29bf3053f03eb855b9629a5202c35545f808f05eac15bcade07929ee991862a7",
  "parentHash": "0x39caccbe35bf4d02b4a1f10c2d4292be7642938ceef06bcf9aa1fa3af8086819",
  "number": 79340,
  "timestamp": 1439467909,
  "nonce": "0xec8f32c1fa55c2c9",
  "difficulty": 2349634220369,
  "gasLimit": {
    "_hex": "0x2fefd8"
  },
  "gasUsed": {
    "_hex": "0xa674"
  },
  "miner": "0x882dEC39352D0baC3548879651FB0Fc9dED217fd",
  "extraData": "0x476574682f76312e302e312f77696e646f77732f676f312e342e32",
  "transactions": [
    {
      "hash": "0x48e44e6c0626d0ea0c2598fac5ef2dfb895b61be420999402db8f7e45bbbea13",
      "blockHash": "0x29bf3053f03eb855b9629a5202c35545f808f05eac15bcade07929ee991862a7",
      "blockNumber": 79340,
      "transactionIndex": 0,
      "confirmations": null,
      "from": "0xeB1325C8D9d3ea8D74aC11F4B00F1B2367686319",
      "gasPrice": {
        "_hex": "0xe01e4e451"
      },
      "gasLimit": {
        "_hex": "0x15f90"
      },
      "to": "0x3010cacF5965f60685011055570972e92B4479aB",
      "value": {
        "_hex": "0x3635c9adc5dea00000"
      },
      "nonce": 5,
      "data": "0x",
      "r": "0x24dbcafb831825c4803e8c19e3127c29e3c7ca79e0ce25df7d7733794b3ffb11",
      "s": "0x32a62734c5def7141f74e9813634a9b5575faea9feb666638a894c5580392d6e",
      "v": 28,
      "creates": null,
      "raw": "0xf86e05850e01e4e45183015f90943010cacf5965f60685011055570972e92b4479ab893635c9adc5dea00000801ca024dbcafb831825c4803e8c19e3127c29e3c7ca79e0ce25df7d7733794b3ffb11a032a62734c5def7141f74e9813634a9b5575faea9feb666638a894c5580392d6e",
      "networkId": 0,
      "chainId": 0
    },
    {
      "hash": "0x83f6cb14c0cad806db8003cbb54816d09847304f43115447a771f243d4967d60",
      "blockHash": "0x29bf3053f03eb855b9629a5202c35545f808f05eac15bcade07929ee991862a7",
      "blockNumber": 79340,
      "transactionIndex": 1,
      "confirmations": null,
      "from": "0x2F85B3bF062769b2A2672200aFb21e3F4067a86d",
      "gasPrice": {
        "_hex": "0xd5dbbbe1f"
      },
      "gasLimit": {
        "_hex": "0x55f0"
      },
      "to": "0x2910543Af39abA0Cd09dBb2D50200b3E800A63D2",
      "value": {
        "_hex": "0x1ae986218935c40d0"
      },
      "nonce": 2,
      "data": "0x454e514e4258475547",
      "r": "0xb8ca52b80a8400efe4e86fefc3ca07cf3eaa49676941beaad93a9d129c7abc13",
      "s": "0x3dd56501be06e51a1b8ac39a97eca5b9fb43f38b7fd761f127748a3c43eca8d5",
      "v": 27,
      "creates": null,
      "raw": "0xf87602850d5dbbbe1f8255f0942910543af39aba0cd09dbb2d50200b3e800a63d28901ae986218935c40d089454e514e42584755471ba0b8ca52b80a8400efe4e86fefc3ca07cf3eaa49676941beaad93a9d129c7abc13a03dd56501be06e51a1b8ac39a97eca5b9fb43f38b7fd761f127748a3c43eca8d5",
      "networkId": 0,
      "chainId": 0
    }
  ]
}