{
  "hash": "0x526178d25662be1f5e23205d12e7a634ec99b884b03a3a3b2ae87a5ce2b5f344",
  "parentHash": "0x07c3676a27f8f2f10c681a729f9511f1e48a1a05bf533c66c3f98403be9d564d",
  "number": 47412,
  "timestamp": 1438939830,
  "nonce": "0x420a0bfd8683396b",
  "difficulty": 1451669362896,
  "gasLimit": {
    "_hex": "0xbab1"
  },
  "gasUsed": {
    "_hex": "0x5208"
  },
  "miner": "0x9746c7e1ef2bd21FF3997fa467593a89cb852BD0",
  "extraData": "0x476574682f76312e302e312f77696e646f77732f676f312e342e32",
  "transactions": [
    {
      "hash": "0x7e4d8e7e5eb7e5cbfffcc4a69e6c9d34ae9ba91d54bda26306a3d7ee730085a9",
      "blockHash": "0x526178d25662be1f5e23205d12e7a634ec99b884b03a3a3b2ae87a5ce2b5f344",
      "blockNumber": 47412,
      "transactionIndex": 0,
      "confirmations": null,
      "from": "0x3D09688D93AD07F3abe68C722723Cd680990435e",
      "gasPrice": {
        "_hex": "0x746a528800"
      },
      "gasLimit": {
        "_hex": "0x5208"
      },
      "to": "0xca815A9e4868f5fE0132809E41A4f2c4473c4119",
      "value": {
        "_hex": "0x10f0cf064dd59200000"
      },
      "nonce": 2,
      "data": "0x",
      "r": "0xf21e3bffc66007b83f8ae193cc90ba169402b4c98a2082c0962b9421f66881f2",
      "s": "0x72c72dd9dd030b766d93c47faaa173e1965a10f7604dd6cee79831ecc8b5a6fb",
      "v": 28,
      "creates": null,
      "raw": "0xf86e0285746a52880082520894ca815a9e4868f5fe0132809e41a4f2c4473c41198a010f0cf064dd59200000801ca0f21e3bffc66007b83f8ae193cc90ba169402b4c98a2082c0962b9421f66881f2a072c72dd9dd030b766d93c47faaa173e1965a10f7604dd6cee79831ecc8b5a6fb",
      "networkId": 0,
      "chainId": 0
    }
  ]
}