{
  "hash": "0x4f86b2f2e55cd5747bca9ddcc2a18752e1b308c4ebe701df3406f0fc7482d089",
  "parentHash": "0xcc217ad477a898e4980a744664d82740497d26b5a45423ad8ee490a23e1e036d",
  "number": 78026,
  "timestamp": 1439446974,
  "nonce": "0xb34d7438e039e535",
  "difficulty": 2286614990713,
  "gasLimit": {
    "_hex": "0x2fefd8"
  },
  "gasUsed": {
    "_hex": "0xa410"
  },
  "miner": "0x01d9DA08cc6Fb97c0DE1B6F4C28910A0859Ed1A1",
  "extraData": "0x476574682f76312e302e312f6c696e75782f676f312e342e32",
  "transactions": [
    {
      "hash": "0x19e43ec9c2efa12fd5d849cf5a596a9ecf39bd333b3ea2aa83ccd56664ebd3f4",
      "blockHash": "0x4f86b2f2e55cd5747bca9ddcc2a18752e1b308c4ebe701df3406f0fc7482d089",
      "blockNumber": 78026,
      "transactionIndex": 0,
      "confirmations": null,
      "from": "0x3620db64D25D412bAb4C8d93E2e0D7e64e8Cb933",
      "gasPrice": {
        "_hex": "0xddf13e478"
      },
      "gasLimit": {
        "_hex": "0x5208"
      },
      "to": "0x32Be343B94f860124dC4fEe278FDCBD38C102D88",
      "value": {
        "_hex": "0x38609f1ba6d382000"
      },
      "nonce": 5,
      "data": "0x",
      "r": "0x3b1b0370925d45061077936325d82808defe5b6ba172f973f21d53b57c7dd618",
      "s": "0x1772fbae8e86518f53a11cea3cb480e4d4fbe0b69b34c102b6380db8780b996d",
      "v": 28,
      "creates": null,
      "raw": "0xf86d05850ddf13e4788252089432be343b94f860124dc4fee278fdcbd38c102d8889038609f1ba6d382000801ca03b1b0370925d45061077936325d82808defe5b6ba172f973f21d53b57c7dd618a01772fbae8e86518f53a11cea3cb480e4d4fbe0b69b34c102b6380db8780b996d",
      "networkId": 0,
      "chainId": 0
    },
    {
      "hash": "0x01b583eb9eb44b7863351ab1524d673240482cf6d411b50c78f35f01fd597410",
      "blockHash": "0x4f86b2f2e55cd5747bca9ddcc2a18752e1b308c4ebe701df3406f0fc7482d089",
      "blockNumber": 78026,
      "transactionIndex": 1,
      "confirmations": null,
      "from": "0xa70a9a7040d542C632D8e0bE7c5513A8a5Bbc752",
      "gasPrice": {
        "_hex": "0xddf13e478"
      },
      "gasLimit": {
        "_hex": "0x5208"
      },
      "to": "0x32Be343B94f860124dC4fEe278FDCBD38C102D88",
      "value": {
        "_hex": "0x455f1fa185d40400"
      },
      "nonce": 47,
      "data": "0x",
      "r": "0x5b5e6c9f33e32c3dec09d382bffc6eb1792abcb96d164b176bf1925bb423f586",
      "s": "0x3e9aacf542286279f6eb58a3ac039dedb54177c7bf242919c3052d2a4611c5a0",
      "v": 28,
      "creates": null,
      "raw": "0xf86c2f850ddf13e4788252089432be343b94f860124dc4fee278fdcbd38c102d8888455f1fa185d40400801ca05b5e6c9f33e32c3dec09d382bffc6eb1792abcb96d164b176bf1925bb423f586a03e9aacf542286279f6eb58a3ac039dedb54177c7bf242919c3052d2a4611c5a0",
      "networkId": 0,
      "chainId": 0
    }
  ]
}