{
  "hash": "0x11364e2e969ae6630bb60a10eb7f1d1a22e60c790b006cba449ac960728f9bf4",
  "parentHash": "0xcb55aff38ead4eea8077f475a3822373bd9c053c280428719d90cc18b2339539",
  "number": 117544,
  "timestamp": 1440111328,
  "nonce": "0x4f39692626982093",
  "difficulty": 4306204990975,
  "gasLimit": {
    "_hex": "0x2fefd8"
  },
  "gasUsed": {
    "_hex": "0x546c"
  },
  "miner": "0xe6A7a1d47ff21B6321162AEA7C6CB457D5476Bca",
  "extraData": "0xd783010002844765746887676f312e342e32856c696e7578",
  "transactions": [
    {
      "hash": "0x44a61789c0d8039c452a7b5f3864da056995e9889848d33c24daa9d9533e0ef5",
      "blockHash": "0x11364e2e969ae6630bb60a10eb7f1d1a22e60c790b006cba449ac960728f9bf4",
      "blockNumber": 117544,
      "transactionIndex": 0,
      "confirmations": null,
      "from": "0xC5d30A49174e1a78D4b8a71824e78563cB041e94",
      "gasPrice": {
        "_hex": "0xd1f217cbf"
      },
      "gasLimit": {
        "_hex": "0x15f90"
      },
      "to": "0x7548566f611b89EBfb57C547FeA0c293A2830aD2",
      "value": {
        "_hex": "0x4563918244f40000"
      },
      "nonce": 4,
      "data": "0x706f6c6f6e69657836",
      "r": "0x72fb07e25ed937e7b2735fb25955aa4f77bc35f6178c2fb3b4813d1ac03e78b2",
      "s": "0x4dad091bc331fc352ef2e0629ca5d2b9f6a928484df26882e9b57666a07ea41f",
      "v": 27,
      "creates": null,
      "raw": "0xf87604850d1f217cbf83015f90947548566f611b89ebfb57c547fea0c293a2830ad2884563918244f4000089706f6c6f6e696578361ba072fb07e25ed937e7b2735fb25955aa4f77bc35f6178c2fb3b4813d1ac03e78b2a04dad091bc331fc352ef2e0629ca5d2b9f6a928484df26882e9b57666a07ea41f",
      "networkId": 0,
      "chainId": 0
    }
  ]
}