{
  "hash": "0x33bd9eac36b5ccd0038cb9be3235ea42a6b3a244121120c6f905ef2a258a6315",
  "parentHash": "0xf2fbc03651e58cd383888d561a4543fdd9266743e4adcb143cc2610a1865dcce",
  "number": 94653,
  "timestamp": 1439711675,
  "nonce": "0xdd9a2f079b22ffbb",
  "difficulty": 3508772552529,
  "gasLimit": {
    "_hex": "0x2fefd8"
  },
  "gasUsed": {
    "_hex": "0xc7f38"
  },
  "miner": "0xaB638742EBe3A78F2a85028350e1AADB86C0a6ed",
  "extraData": "0x",
  "transactions": [
    {
      "hash": "0xa4dfdac95412bb16e55620fd4a6607a0f1afad5dbca5b3195e3d13673d17fe1f",
      "blockHash": "0x33bd9eac36b5ccd0038cb9be3235ea42a6b3a244121120c6f905ef2a258a6315",
      "blockNumber": 94653,
      "transactionIndex": 0,
      "confirmations": null,
      "from": "0x42e16B3732ae6f3e38AeE7546f36149C9eCB8F26",
      "gasPrice": {
        "_hex": "0xdedfa415e"
      },
      "gasLimit": {
        "_hex": "0x5208"
      },
      "to": "0x32Be343B94f860124dC4fEe278FDCBD38C102D88",
      "value": {
        "_hex": "0x11e67a8f7defb800"
      },
      "nonce": 5,
      "data": "0x",
      "r": "0x149566df56dae0dd9e25d9d5d46a3fe09a19851b6b0318afd2c512c76481edd1",
      "s": "0x51bc93f3ff50a5ed6a1c1e5fd1f87f22b9cd512444b78c2cd40c42b149f25925",
      "v": 28,
      "creates": null,
      "raw": "0xf86c05850dedfa415e8252089432be343b94f860124dc4fee278fdcbd38c102d888811e67a8f7defb800801ca0149566df56dae0dd9e25d9d5d46a3fe09a19851b6b0318afd2c512c76481edd1a051bc93f3ff50a5ed6a1c1e5fd1f87f22b9cd512444b78c2cd40c42b149f25925",
      "networkId": 0,
      "chainId": 0
    },
    {
      "hash": "0x22d576ff90c735cc9a557bd50dcf25fee08282a6eb1a0b2f514f7f4a64223d2b",
      "blockHash": "0x33bd9eac36b5ccd0038cb9be3235ea42a6b3a244121120c6f905ef2a258a6315",
      "blockNumber": 94653,
      "transactionIndex": 1,
      "confirmations": null,
      "from": "0xED2aF977080D441C24E9910f1e2078A4446d0bbf",
      "gasPrice": {
        "_hex": "0xdedfa415e"
      },
      "gasLimit": {
        "_hex": "0x5208"
      },
      "to": "0x32Be343B94f860124dC4fEe278FDCBD38C102D88",
      "value": {
        "_hex": "0xeba8707da876400"
      },
      "nonce": 1,
      "data": "0x",
      "r": "0xb4b4cdb145f8122c3d64b78ca6afa840eef3340f85324a6183adf4143431487e",
      "s": "0x402c5b9c6d5c0d2d069386b0a2c2d53616c47f4502780e8ca61d0da629473f1c",
      "v": 27,
      "creates": null,
      "raw": "0xf86c01850dedfa415e8252089432be343b94f860124dc4fee278fdcbd38c102d88880eba8707da876400801ba0b4b4cdb145f8122c3d64b78ca6afa840eef3340f85324a6183adf4143431487ea0402c5b9c6d5c0d2d069386b0a2c2d53616c47f4502780e8ca61d0da629473f1c",
      "networkId": 0,
      "chainId": 0
    },
    {
      "hash": "0x048607b58e3c915a2f394ce8de4dc3d5c99c0fda7b126400a3935d4625a53609",
      "blockHash": "0x33bd9eac36b5ccd0038cb9be3235ea42a6b3a244121120c6f905ef2a258a6315",
      "blockNumber": 94653,
      "transactionIndex": 2,
      "confirmations": null,
      "from": "0xd223eD5b348a82910987CbBc7875a7AE62E1Ba53",
      "gasPrice": {
        "_hex": "0xdedfa415e"
      },
      "gasLimit": {
        "_hex": "0x5208"
      },
      "to": "0x32Be343B94f860124dC4fEe278FDCBD38C102D88",
      "value": {
        "_hex": "0x1908adf9ff165800"
      },
      "nonce": 6,
      "data": "0x",
      "r": "0x4636cfcfda678db1fef23e5634d35d7a2f199af5f4731533f932a93751533c55",
      "s": "0x04d638f20f9c3e1b611905a1e1a8b4d2d858b8cc200321b943106344dc9ab673",
      "v": 28,
      "creates": null,
      "raw": "0xf86c06850dedfa415e8252089432be343b94f860124dc4fee278fdcbd38c102d88881908adf9ff165800801ca04636cfcfda678db1fef23e5634d35d7a2f199af5f4731533f932a93751533c55a004d638f20f9c3e1b611905a1e1a8b4d2d858b8cc200321b943106344dc9ab673",
      "networkId": 0,
      "chainId": 0
    },
    {
      "hash": "0xd4be211aba148fb2bb26296e1aa37c60324975d69a91a475b16388f254bf8f6e",
      "blockHash": "0x33bd9eac36b5ccd0038cb9be3235ea42a6b3a244121120c6f905ef2a258a6315",
      "blockNumber": 94653,
      "transactionIndex": 3,
      "confirmations": null,
      "from": "0x34d34F0a638F6991e4E2536F41295DF6E934A646",
      "gasPrice": {
        "_hex": "0xdedfa415e"
      },
      "gasLimit": {
        "_hex": "0x5208"
      },
      "to": "0x32Be343B94f860124dC4fEe278FDCBD38C102D88",
      "value": {
        "_hex": "0x16f2ba94763c9000"
      },
      "nonce": 17,
      "data": "0x",
      "r": "0x3b85f8efe83f75697c420a5103e1167482f29e730e237aee7de28b2e53b84314",
      "s": "0x2ea8029c70e350d22109b5fb58645f7cab33c1435c8e14543745a6f0702eb880",
      "v": 27,
      "creates": null,
      "raw": "0xf86c11850dedfa415e8252089432be343b94f860124dc4fee278fdcbd38c102d888816f2ba94763c9000801ba03b85f8efe83f75697c420a5103e1167482f29e730e237aee7de28b2e53b84314a02ea8029c70e350d22109b5fb58645f7cab33c1435c8e14543745a6f0702eb880",
      "networkId": 0,
      "chainId": 0
    },
    {
      "hash": "0x4a788ef08be47fd065163dc460a3635e894187e77297ea0290245f4abc562157",
      "blockHash": "0x33bd9eac36b5ccd0038cb9be3235ea42a6b3a244121120c6f905ef2a258a6315",
      "blockNumber": 94653,
      "transactionIndex": 4,
      "confirmations": null,
      "from": "0xC8E18619E6F0976FC389a37cba21bc6d080284ee",
      "gasPrice": {
        "_hex": "0xdedfa415e"
      },
      "gasLimit": {
        "_hex": "0x5208"
      },
      "to": "0x32Be343B94f860124dC4fEe278FDCBD38C102D88",
      "value": {
        "_hex": "0xe15e124fbb61000"
      },
      "nonce": 4,
      "data": "0x",
      "r": "0x0cfc6de31036d57b579f69f8e21b1bee692b722c2d4a427c2ef282afb4357927",
      "s": "0x342531441ffd4408d48e57558c4295b7495c6e955a9aa9e95df42601ca8c0a06",
      "v": 27,
      "creates": null,
      "raw": "0xf86c04850dedfa415e8252089432be343b94f860124dc4fee278fdcbd38c102d88880e15e124fbb61000801ba00cfc6de31036d57b579f69f8e21b1bee692b722c2d4a427c2ef282afb4357927a0342531441ffd4408d48e57558c4295b7495c6e955a9aa9e95df42601ca8c0a06",
      "networkId": 0,
      "chainId": 0
    },
    {
      "hash": "0xd91a403057501c3d2d723b3bef481294501630bd3cb5830b9e39b6e51a19966d",
      "blockHash": "0x33bd9eac36b5ccd0038cb9be3235ea42a6b3a244121120c6f905ef2a258a6315",
      "blockNumber": 94653,
      "transactionIndex": 5,
      "confirmations": null,
      "from": "0xe6A7a1d47ff21B6321162AEA7C6CB457D5476Bca",
      "gasPrice": {
        "_hex": "0xd1dde1044"
      },
      "gasLimit": {
        "_hex": "0x55f0"
      },
      "to": "0xA80A8ecbF729C98404eE20b39945Ad8DEBd08C61",
      "value": {
        "_hex": "0x285553d9fe22be20"
      },
      "nonce": 2656,
      "data": "0x",
      "r": "0xb3a1cae26122437eeb52b2c28a5e0e4c4824cc5d1e2ec95e41f76b9bbcf4fc03",
      "s": "0x2645af8cecad4301a890d960aa5e8f974744a2719ea7bdf49bcf8de0cf8b7050",
      "v": 28,
      "creates": null,
      "raw": "0xf86e820a60850d1dde10448255f094a80a8ecbf729c98404ee20b39945ad8debd08c6188285553d9fe22be20801ca0b3a1cae26122437eeb52b2c28a5e0e4c4824cc5d1e2ec95e41f76b9bbcf4fc03a02645af8cecad4301a890d960aa5e8f974744a2719ea7bdf49bcf8de0cf8b7050",
      "networkId": 0,
      "chainId": 0
    },
    {
      "hash": "0xa8bcb968d2a4c2b53bce1ce0ce0e0e102171115da01356459ae32b35c3361fc5",
      "blockHash": "0x33bd9eac36b5ccd0038cb9be3235ea42a6b3a244121120c6f905ef2a258a6315",
      "blockNumber": 94653,
      "transactionIndex": 6,
      "confirmations": null,
      "from": "0xe6A7a1d47ff21B6321162AEA7C6CB457D5476Bca",
      "gasPrice": {
        "_hex": "0xd1dde1044"
      },
      "gasLimit": {
        "_hex": "0x55f0"
      },
      "to": "0x7E4252d3d1881b358f2c1Fc2264ce4C27B83683d",
      "value": {
        "_hex": "0x286e4182f323ba10"
      },
      "nonce": 2657,
      "data": "0x",
      "r": "0x9135b0026e867ae97031e7f72de8ca17038f264d2a4e7bc58b22f5820cf7f50f",
      "s": "0x591c81de0733851c51000d24ba08aea43d7c54f6a8d6964ff59cecfd1201f43c",
      "v": 28,
      "creates": null,
      "raw": "0xf86e820a61850d1dde10448255f0947e4252d3d1881b358f2c1fc2264ce4c27b83683d88286e4182f323ba10801ca09135b0026e867ae97031e7f72de8ca17038f264d2a4e7bc58b22f5820cf7f50fa0591c81de0733851c51000d24ba08aea43d7c54f6a8d6964ff59cecfd1201f43c",
      "networkId": 0,
      "chainId": 0
    },
    {
      "hash": "0xd2283f17e4420a801c56b6962cb69af6b738cd8dd06e282bb03df13f355129f7",
      "blockHash": "0x33bd9eac36b5ccd0038cb9be3235ea42a6b3a244121120c6f905ef2a258a6315",
      "blockNumber": 94653,
      "transactionIndex": 7,
      "confirmations": null,
      "from": "0xe6A7a1d47ff21B6321162AEA7C6CB457D5476Bca",
      "gasPrice": {
        "_hex": "0xd1dde1044"
      },
      "gasLimit": {
        "_hex": "0x55f0"
      },
      "to": "0x3fe698DDd00ce16bFb0F2B875D29Cf6B91eB677d",
      "value": {
        "_hex": "0x28b401c1b92bec98"
      },
      "nonce": 2658,
      "data": "0x",
      "r": "0xbd55c0983137c0e855e5d613f233e57130c15526e845f0ad9a591785d182201b",
      "s": "0x25ee67806e4235ba55ac1e91a9aa8533102dff966ec662f14bc8ec2c1f1a1760",
      "v": 28,
      "creates": null,
      "raw": "0xf86e820a62850d1dde10448255f0943fe698ddd00ce16bfb0f2b875d29cf6b91eb677d8828b401c1b92bec98801ca0bd55c0983137c0e855e5d613f233e57130c15526e845f0ad9a591785d182201ba025ee67806e4235ba55ac1e91a9aa8533102dff966ec662f14bc8ec2c1f1a1760",
      "networkId": 0,
      "chainId": 0
    },
    {
      "hash": "0x2c31f6b9e59059c96080a585115a268c5e5dc8a217568a66684c9e8a8641785f",
      "blockHash": "0x33bd9eac36b5ccd0038cb9be3235ea42a6b3a244121120c6f905ef2a258a6315",
      "blockNumber": 94653,
      "transactionIndex": 8,
      "confirmations": null,
      "from": "0xe6A7a1d47ff21B6321162AEA7C6CB457D5476Bca",
      "gasPrice": {
        "_hex": "0xd1dde1044"
      },
      "gasLimit": {
        "_hex": "0x55f0"
      },
      "to": "0x06D8532FBF8657Fe91402132191f01Dc4e1E54d0",
      "value": {
        "_hex": "0x28ccff325e3fdbdc"
      },
      "nonce": 2659,
      "data": "0x",
      "r": "0x7deb77c86019f0ac542dc723dc2100d2a37432c912163c1f5e862aa72c5e0ffa",
      "s": "0x02fa32777a3f3cc15f1eeb3917ddf2db8cdc4a900f61bc34dfd5ce120d541905",
      "v": 27,
      "creates": null,
      "raw": "0xf86e820a63850d1dde10448255f09406d8532fbf8657fe91402132191f01dc4e1e54d08828ccff325e3fdbdc801ba07deb77c86019f0ac542dc723dc2100d2a37432c912163c1f5e862aa72c5e0ffaa002fa32777a3f3cc15f1eeb3917ddf2db8cdc4a900f61bc34dfd5ce120d541905",
      "networkId": 0,
      "chainId": 0
    },
    {
      "hash": "0x88bcbfae1b9b06ac177c6f9cc8ccccba48e618ea28a32e48c752259d1566b10f",
      "blockHash": "0x33bd9eac36b5ccd0038cb9be3235ea42a6b3a244121120c6f905ef2a258a6315",
      "blockNumber": 94653,
      "transactionIndex": 9,
      "confirmations": null,
      "from": "0xe6A7a1d47ff21B6321162AEA7C6CB457D5476Bca",
      "gasPrice": {
        "_hex": "0xd1dde1044"
      },
      "gasLimit": {
        "_hex": "0x55f0"
      },
      "to": "0x0f3136Da8F55444F1bFc5938a2eFb507b3a24976",
      "value": {
        "_hex": "0x29137c8eb9654590"
      },
      "nonce": 2660,
      "data": "0x",
      "r": "0x965229469dfe5f649dd880e29c395241fcf52d98053705d3e8ff714992158ba0",
      "s": "0x73c45e84c1423cdc6026dbfc1c7327367d4e4e882e7bf22e36b7f694c0f2dece",
      "v": 27,
      "creates": null,
      "raw": "0xf86e820a64850d1dde10448255f0940f3136da8f55444f1bfc5938a2efb507b3a249768829137c8eb9654590801ba0965229469dfe5f649dd880e29c395241fcf52d98053705d3e8ff714992158ba0a073c45e84c1423cdc6026dbfc1c7327367d4e4e882e7bf22e36b7f694c0f2dece",
      "networkId": 0,
      "chainId": 0
    },
    {
      "hash": "0xb12471a4d28aeac99878df2d6967a082977be8f6a1db33494c69507b78845af4",
      "blockHash": "0x33bd9eac36b5ccd0038cb9be3235ea42a6b3a244121120c6f905ef2a258a6315",
      "blockNumber": 94653,
      "transactionIndex": 10,
      "confirmations": null,
      "from": "0xe6A7a1d47ff21B6321162AEA7C6CB457D5476Bca",
      "gasPrice": {
        "_hex": "0xd1dde1044"
      },
      "gasLimit": {
        "_hex": "0x55f0"
      },
      "to": "0x4adA827a479Cf31e27be19Fcf33Fb06D881057b7",
      "value": {
        "_hex": "0x2948aa702f577f18"
      },
      "nonce": 2661,
      "data": "0x",
      "r": "0x229a462207d60dff154a9d751371f69ac87a34627dd5f3ca5104ec07ffac37f5",
      "s": "0x514bfbd3c049f49acdcf77d89772564bfd7c91a5f5626731912094876513e891",
      "v": 28,
      "creates": null,
      "raw": "0xf86e820a65850d1dde10448255f0944ada827a479cf31e27be19fcf33fb06d881057b7882948aa702f577f18801ca0229a462207d60dff154a9d751371f69ac87a34627dd5f3ca5104ec07ffac37f5a0514bfbd3c049f49acdcf77d89772564bfd7c91a5f5626731912094876513e891",
      "networkId": 0,
      "chainId": 0
    },
    {
      "hash": "0x44a0954b30c6f1bdb9f9e7df535495a6ff4de7a5fa0eaa4296eccbb59b276107",
      "blockHash": "0x33bd9eac36b5ccd0038cb9be3235ea42a6b3a244121120c6f905ef2a258a6315",
      "blockNumber": 94653,
      "transactionIndex": 11,
      "confirmations": null,
      "from": "0xe6A7a1d47ff21B6321162AEA7C6CB457D5476Bca",
      "gasPrice": {
        "_hex": "0xd1dde1044"
      },
      "gasLimit": {
        "_hex": "0x55f0"
      },
      "to": "0x1f93892ca56B9a0ab7440eEe4F31C6302Adb219F",
      "value": {
        "_hex": "0x296bc7da40953db0"
      },
      "nonce": 2662,
      "data": "0x",
      "r": "0x4cd9c71fec95731c19cec4a6b89c355d7fa596eda04ff8d0bd161975e40d2f71",
      "s": "0x55605d0909fc481ef342a92eb1cdf139e7616e25b87959b35e239262315c94ea",
      "v": 28,
      "creates": null,
      "raw": "0xf86e820a66850d1dde10448255f0941f93892ca56b9a0ab7440eee4f31c6302adb219f88296bc7da40953db0801ca04cd9c71fec95731c19cec4a6b89c355d7fa596eda04ff8d0bd161975e40d2f71a055605d0909fc481ef342a92eb1cdf139e7616e25b87959b35e239262315c94ea",
      "networkId": 0,
      "chainId": 0
    },
    {
      "hash": "0xc0bd49dfffa1bac0b36586bc916f8c9111f01b8c4c7a8b697a54c7a8a05c6599",
      "blockHash": "0x33bd9eac36b5ccd0038cb9be3235ea42a6b3a244121120c6f905ef2a258a6315",
      "blockNumber": 94653,
      "transactionIndex": 12,
      "confirmations": null,
      "from": "0xe6A7a1d47ff21B6321162AEA7C6CB457D5476Bca",
      "gasPrice": {
        "_hex": "0xd1dde1044"
      },
      "gasLimit": {
        "_hex": "0x55f0"
      },
      "to": "0x902cA27B08D58442b67bb4Fa988de351468AB59f",
      "value": {
        "_hex": "0x2a2589414ffbfb08"
      },
      "nonce": 2663,
      "data": "0x",
      "r": "0x2b8ee24d24e0167b3279d0a799812047331f622a748e5f23490c8ac4669b4f97",
      "s": "0x63065f916cbbd36ae4005ac35c611c928d175306038a73c0db45d0eb702ce91f",
      "v": 27,
      "creates": null,
      "raw": "0xf86e820a67850d1dde10448255f094902ca27b08d58442b67bb4fa988de351468ab59f882a2589414ffbfb08801ba02b8ee24d24e0167b3279d0a799812047331f622a748e5f23490c8ac4669b4f97a063065f916cbbd36ae4005ac35c611c928d175306038a73c0db45d0eb702ce91f",
      "networkId": 0,
      "chainId": 0
    },
    {
      "hash": "0x91251857d3bf5797e6b4444e3243cd66513510b311dce2ac73be0b7140f258c7",
      "blockHash": "0x33bd9eac36b5ccd0038cb9be3235ea42a6b3a244121120c6f905ef2a258a6315",
      "blockNumber": 94653,
      "transactionIndex": 13,
      "confirmations": null,
      "from": "0xe6A7a1d47ff21B6321162AEA7C6CB457D5476Bca",
      "gasPrice": {
        "_hex": "0xd1dde1044"
      },
      "gasLimit": {
        "_hex": "0x55f0"
      },
      "to": "0x4C84686094c69469502847D76a8190f3CD9e921c",
      "value": {
        "_hex": "0x2a28dad2ec61ce10"
      },
      "nonce": 2664,
      "data": "0x",
      "r": "0x64b1759968fd71a7687e07cac7edd4da904ed4a18f80c4daefb8811460189803",
      "s": "0x0f1a41d599f0d1adc237d731bbcf53e6ca9c322431316f4acc68cdcce8821562",
      "v": 28,
      "creates": null,
      "raw": "0xf86e820a68850d1dde10448255f0944c84686094c69469502847d76a8190f3cd9e921c882a28dad2ec61ce10801ca064b1759968fd71a7687e07cac7edd4da904ed4a18f80c4daefb8811460189803a00f1a41d599f0d1adc237d731bbcf53e6ca9c322431316f4acc68cdcce8821562",
      "networkId": 0,
      "chainId": 0
    },
    {
      "hash": "0x9e7dadb4502372262c82af613a3b0c426bb65799d0e964014b6b683d5e8b461e",
      "blockHash": "0x33bd9eac36b5ccd0038cb9be3235ea42a6b3a244121120c6f905ef2a258a6315",
      "blockNumber": 94653,
      "transactionIndex": 14,
      "confirmations": null,
      "from": "0xe6A7a1d47ff21B6321162AEA7C6CB457D5476Bca",
      "gasPrice": {
        "_hex": "0xd1dde1044"
      },
      "gasLimit": {
        "_hex": "0x55f0"
      },
      "to": "0x1333a55102f1f4B3df95298b6CE863eF8d5BAf45",
      "value": {
        "_hex": "0x2ac516e4e870e198"
      },
      "nonce": 2665,
      "data": "0x",
      "r": "0x73f2dc488de8b4b002bcebf58ece5613cc7c8e9f5ad3cbd39924617a75e14ea1",
      "s": "0x4ffc87ff178e7c1bb4f2ad2ca6381945666ab3b692d1649befe562d087a1f620",
      "v": 27,
      "creates": null,
      "raw": "0xf86e820a69850d1dde10448255f0941333a55102f1f4b3df95298b6ce863ef8d5baf45882ac516e4e870e198801ba073f2dc488de8b4b002bcebf58ece5613cc7c8e9f5ad3cbd39924617a75e14ea1a04ffc87ff178e7c1bb4f2ad2ca6381945666ab3b692d1649befe562d087a1f620",
      "networkId": 0,
      "chainId": 0
    },
    {
      "hash": "0xc3f286148f6b775f673c0e5ba6d631949d3350ca25a8aa108b80f10129a195f4",
      "blockHash": "0x33bd9eac36b5ccd0038cb9be3235ea42a6b3a244121120c6f905ef2a258a6315",
      "blockNumber": 94653,
      "transactionIndex": 15,
      "confirmations": null,
      "from": "0xe6A7a1d47ff21B6321162AEA7C6CB457D5476Bca",
      "gasPrice": {
        "_hex": "0xd1dde1044"
      },
      "gasLimit": {
        "_hex": "0x55f0"
      },
      "to": "0x139961171236F8260f7D28B94b5a7352Bb114F80",
      "value": {
        "_hex": "0x2af8444d04ffe228"
      },
      "nonce": 2666,
      "data": "0x",
      "r": "0x65042f389220a55e7146c1720c24b4d88388eef30fc2069d80add551a1803acb",
      "s": "0x6505955fd33740b4961026f117b61c67ddd44bb0c5b39ff0e7ce4d2008eb9f8a",
      "v": 28,
      "creates": null,
      "raw": "0xf86e820a6a850d1dde10448255f094139961171236f8260f7d28b94b5a7352bb114f80882af8444d04ffe228801ca065042f389220a55e7146c1720c24b4d88388eef30fc2069d80add551a1803acba06505955fd33740b4961026f117b61c67ddd44bb0c5b39ff0e7ce4d2008eb9f8a",
      "networkId": 0,
      "chainId": 0
    },
    {
      "hash": "0xde08ab965941760b8360259cd6f7807bea214fb91971b885f772c28842bcc01d",
      "blockHash": "0x33bd9eac36b5ccd0038cb9be3235ea42a6b3a244121120c6f905ef2a258a6315",
      "blockNumber": 94653,
      "transactionIndex": 16,
      "confirmations": null,
      "from": "0xe6A7a1d47ff21B6321162AEA7C6CB457D5476Bca",
      "gasPrice": {
        "_hex": "0xd1dde1044"
      },
      "gasLimit": {
        "_hex": "0x55f0"
      },
      "to": "0x1dbe45A9437978D7Bdc5D468e6be0988a71D153f",
      "value": {
        "_hex": "0x2b876e9599652160"
      },
      "nonce": 2667,
      "data": "0x",
      "r": "0x32e9105d78ae8fe64fc9ba893837df4489fc9a1bb31a702fe85c9471d698f59e",
      "s": "0x024a65f6589e6af2235d45476fd8bfc015c2c7bd3701f3877cacc5e23f9e3875",
      "v": 28,
      "creates": null,
      "raw": "0xf86e820a6b850d1dde10448255f0941dbe45a9437978d7bdc5d468e6be0988a71d153f882b876e9599652160801ca032e9105d78ae8fe64fc9ba893837df4489fc9a1bb31a702fe85c9471d698f59ea0024a65f6589e6af2235d45476fd8bfc015c2c7bd3701f3877cacc5e23f9e3875",
      "networkId": 0,
      "chainId": 0
    },
    {
      "hash": "0x72ae8d9055c9e3cdb4355e2b635b22fb6de53c122b1c077018c9be7e8534df09",
      "blockHash": "0x33bd9eac36b5ccd0038cb9be3235ea42a6b3a244121120c6f905ef2a258a6315",
      "blockNumber": 94653,
      "transactionIndex": 17,
      "confirmations": null,
      "from": "0xe6A7a1d47ff21B6321162AEA7C6CB457D5476Bca",
      "gasPrice": {
        "_hex": "0xd1dde1044"
      },
      "gasLimit": {
        "_hex": "0x55f0"
      },
      "to": "0x223eA75ACE9d7F53BC6c131191Aff34B44bd57aC",
      "value": {
        "_hex": "0x2c2a6a4c38cf142c"
      },
      "nonce": 2668,
      "data": "0x",
      "r": "0x2dbcd20dc9dea0b2b5823cdb1005a1dc10f06d90d2f67bc084515519fb93da90",
      "s": "0x0229a947f4a0a68b4895ee9bdb77ef6eabfb4ebcb58224e6a28a14a3566ee209",
      "v": 27,
      "creates": null,
      "raw": "0xf86e820a6c850d1dde10448255f094223ea75ace9d7f53bc6c131191aff34b44bd57ac882c2a6a4c38cf142c801ba02dbcd20dc9dea0b2b5823cdb1005a1dc10f06d90d2f67bc084515519fb93da90a00229a947f4a0a68b4895ee9bdb77ef6eabfb4ebcb58224e6a28a14a3566ee209",
      "networkId": 0,
      "chainId": 0
    },
    {
      "hash": "0x90c3afbca6a319efe07c58c2f77a5b4757026c6af8e19372961ad4f7d66a68ed",
      "blockHash": "0x33bd9eac36b5ccd0038cb9be3235ea42a6b3a244121120c6f905ef2a258a6315",
      "blockNumber": 94653,
      "transactionIndex": 18,
      "confirmations": null,
      "from": "0xe6A7a1d47ff21B6321162AEA7C6CB457D5476Bca",
      "gasPrice": {
        "_hex": "0xd1dde1044"
      },
      "gasLimit": {
        "_hex": "0x55f0"
      },
      "to": "0xfaA12B5C220f5CB5594D244e125f6AEd574b5697",
      "value": {
        "_hex": "0x2c441de6b07f9818"
      },
      "nonce": 2669,
      "data": "0x",
      "r": "0x3a8f53d2821dd2cafc2b3022ff6b4b9571909931128e35842ff00fec19b034d4",
      "s": "0x6c2f9e87af1a36b1f91a59b5f629e77f9f83517e2147646164ffc5f02c15669b",
      "v": 28,
      "creates": null,
      "raw": "0xf86e820a6d850d1dde10448255f094faa12b5c220f5cb5594d244e125f6aed574b5697882c441de6b07f9818801ca03a8f53d2821dd2cafc2b3022ff6b4b9571909931128e35842ff00fec19b034d4a06c2f9e87af1a36b1f91a59b5f629e77f9f83517e2147646164ffc5f02c15669b",
      "networkId": 0,
      "chainId": 0
    },
    {
      "hash": "0xf833d4400689c85a36602d317024bef2d29ed2b3ba4ca87045d004f37c8094f6",
      "blockHash": "0x33bd9eac36b5ccd0038cb9be3235ea42a6b3a244121120c6f905ef2a258a6315",
      "blockNumber": 94653,
      "transactionIndex": 19,
      "confirmations": null,
      "from": "0xe6A7a1d47ff21B6321162AEA7C6CB457D5476Bca",
      "gasPrice": {
        "_hex": "0xd1dde1044"
      },
      "gasLimit": {
        "_hex": "0x55f0"
      },
      "to": "0x7B578F673507975447C714DF2bdCd15801fe30Fe",
      "value": {
        "_hex": "0x2cfa57b19b8b3a50"
      },
      "nonce": 2670,
      "data": "0x",
      "r": "0x1c7715a75e0bc68eb7e28cf496b7619c4ca0bd97c3303fa4d16a33ad1df5d856",
      "s": "0x57b146a72a14bb9a9fe0cb7f3b6e9507167f06616746845ebdd91fa0834af852",
      "v": 28,
      "creates": null,
      "raw": "0xf86e820a6e850d1dde10448255f0947b578f673507975447c714df2bdcd15801fe30fe882cfa57b19b8b3a50801ca01c7715a75e0bc68eb7e28cf496b7619c4ca0bd97c3303fa4d16a33ad1df5d856a057b146a72a14bb9a9fe0cb7f3b6e9507167f06616746845ebdd91fa0834af852",
      "networkId": 0,
      "chainId": 0
    },
    {
      "hash": "0x1034f05d554f25019d6bec68963d97743dcf0bc1ab8423722036970290aa9942",
      "blockHash": "0x33bd9eac36b5ccd0038cb9be3235ea42a6b3a244121120c6f905ef2a258a6315",
      "blockNumber": 94653,
      "transactionIndex": 20,
      "confirmations": null,
      "from": "0xe6A7a1d47ff21B6321162AEA7C6CB457D5476Bca",
      "gasPrice": {
        "_hex": "0xd1dde1044"
      },
      "gasLimit": {
        "_hex": "0x55f0"
      },
      "to": "0x7fDF07A0f977e4032C1f082Df831423abf58D13D",
      "value": {
        "_hex": "0x2d0b7e37cd7af5d8"
      },
      "nonce": 2671,
      "data": "0x",
      "r": "0xfd3b195d5fc45e314b15c1dd07e83bb3ba6417db4f5bf8c63bc54d56ebc1b863",
      "s": "0x3ca037a1584d83f6f219abf6a9cb7965776eda2b5fe9ed55df011131393c2635",
      "v": 28,
      "creates": null,
      "raw": "0xf86e820a6f850d1dde10448255f0947fdf07a0f977e4032c1f082df831423abf58d13d882d0b7e37cd7af5d8801ca0fd3b195d5fc45e314b15c1dd07e83bb3ba6417db4f5bf8c63bc54d56ebc1b863a03ca037a1584d83f6f219abf6a9cb7965776eda2b5fe9ed55df011131393c2635",
      "networkId": 0,
      "chainId": 0
    },
    {
      "hash": "0x41646b9e230b41b3699b3e8b579a0fa4a0d8bdf7debd19157ca42e5ff8617926",
      "blockHash": "0x33bd9eac36b5ccd0038cb9be3235ea42a6b3a244121120c6f905ef2a258a6315",
      "blockNumber": 94653,
      "transactionIndex": 21,
      "confirmations": null,
      "from": "0xe6A7a1d47ff21B6321162AEA7C6CB457D5476Bca",
      "gasPrice": {
        "_hex": "0xd1dde1044"
      },
      "gasLimit": {
        "_hex": "0x55f0"
      },
      "to": "0xa1962d0A7c48886Eaed5B9e12129384281adEb2a",
      "value": {
        "_hex": "0x2d127d607e60d2e0"
      },
      "nonce": 2672,
      "data": "0x",
      "r": "0x544a64ffcb8b6c6c6983ad80b0d7ab6a7c419df9dc5f4b59d85fba4233abb1ff",
      "s": "0x5329f129ebbc8ffa7993e662db99c5b3b02c2e39a89a8d68c9d878db95d30263",
      "v": 27,
      "creates": null,
      "raw": "0xf86e820a70850d1dde10448255f094a1962d0a7c48886eaed5b9e12129384281adeb2a882d127d607e60d2e0801ba0544a64ffcb8b6c6c6983ad80b0d7ab6a7c419df9dc5f4b59d85fba4233abb1ffa05329f129ebbc8ffa7993e662db99c5b3b02c2e39a89a8d68c9d878db95d30263",
      "networkId": 0,
      "chainId": 0
    },
    {
      "hash": "0xb90a9ace22cc3baed83d7ef850a467017fda93a3e715d6606346ead74d216100",
      "blockHash": "0x33bd9eac36b5ccd0038cb9be3235ea42a6b3a244121120c6f905ef2a258a6315",
      "blockNumber": 94653,
      "transactionIndex": 22,
      "confirmations": null,
      "from": "0xe6A7a1d47ff21B6321162AEA7C6CB457D5476Bca",
      "gasPrice": {
        "_hex": "0xd1dde1044"
      },
      "gasLimit": {
        "_hex": "0x55f0"
      },
      "to": "0x0A38ff322A11A9bA4f9a7C668F79025e8CEadc45",
      "value": {
        "_hex": "0x2d8ef5b70f205a08"
      },
      "nonce": 2673,
      "data": "0x",
      "r": "0x6e8977591d5338be6023b78d6a58cd4534871f2cb371ba51d7e71134301d7eb6",
      "s": "0x227dd456f7fdcf3a15117edeb65c2f871e79e159e546721bffa3513a6bea7333",
      "v": 28,
      "creates": null,
      "raw": "0xf86e820a71850d1dde10448255f0940a38ff322a11a9ba4f9a7c668f79025e8ceadc45882d8ef5b70f205a08801ca06e8977591d5338be6023b78d6a58cd4534871f2cb371ba51d7e71134301d7eb6a0227dd456f7fdcf3a15117edeb65c2f871e79e159e546721bffa3513a6bea7333",
      "networkId": 0,
      "chainId": 0
    },
    {
      "hash": "0xef29f00f48ee783ad46263912eadd111b0db4ae902a884d012c71a0ed43950cd",
      "blockHash": "0x33bd9eac36b5ccd0038cb9be3235ea42a6b3a244121120c6f905ef2a258a6315",
      "blockNumber": 94653,
      "transactionIndex": 23,
      "confirmations": null,
      "from": "0xe6A7a1d47ff21B6321162AEA7C6CB457D5476Bca",
      "gasPrice": {
        "_hex": "0xd1dde1044"
      },
      "gasLimit": {
        "_hex": "0x55f0"
      },
      "to": "0xdF8b20CeD9C6Ed58a7219519c1d936fC3b46223A",
      "value": {
        "_hex": "0x2db650663a2f6f50"
      },
      "nonce": 2674,
      "data": "0x",
      "r": "0xfe4a048b65db3749318edb0b09ab5bfc549d6d696aa5e3eca6d1661214ab5c66",
      "s": "0x73acd9ffe36013d3fb38513cb5ed86a18630a85be4a2f6bf593e14e9f704b37a",
      "v": 27,
      "creates": null,
      "raw": "0xf86e820a72850d1dde10448255f094df8b20ced9c6ed58a7219519c1d936fc3b46223a882db650663a2f6f50801ba0fe4a048b65db3749318edb0b09ab5bfc549d6d696aa5e3eca6d1661214ab5c66a073acd9ffe36013d3fb38513cb5ed86a18630a85be4a2f6bf593e14e9f704b37a",
      "networkId": 0,
      "chainId": 0
    },
    {
      "hash": "0x9eb259774993f2654148c0504b7d0781f1070355b8277dd7b4e74008c0a872af",
      "blockHash": "0x33bd9eac36b5ccd0038cb9be3235ea42a6b3a244121120c6f905ef2a258a6315",
      "blockNumber": 94653,
      "transactionIndex": 24,
      "confirmations": null,
      "from": "0xe6A7a1d47ff21B6321162AEA7C6CB457D5476Bca",
      "gasPrice": {
        "_hex": "0xd1dde1044"
      },
      "gasLimit": {
        "_hex": "0x55f0"
      },
      "to": "0xA881a976d37b162a8e82169bf5B83a627d8A1480",
      "value": {
        "_hex": "0x2e61d970dbe94a20"
      },
      "nonce": 2675,
      "data": "0x",
      "r": "0xdcad96f1d140a1a9700ded9e8f08959b8c170bf9d9fc8068a6460aadbd80ebb6",
      "s": "0x2316ae08fb731fbb99149db754392f4911c32ec71d0433f87cfdd5005c8269ac",
      "v": 27,
      "creates": null,
      "raw": "0xf86e820a73850d1dde10448255f094a881a976d37b162a8e82169bf5b83a627d8a1480882e61d970dbe94a20801ba0dcad96f1d140a1a9700ded9e8f08959b8c170bf9d9fc8068a6460aadbd80ebb6a02316ae08fb731fbb99149db754392f4911c32ec71d0433f87cfdd5005c8269ac",
      "networkId": 0,
      "chainId": 0
    },
    {
      "hash": "0xd9fc4ce7d1b44c149a4159637fd06b8cfc6fd79c8dc853a0ddc10e218e1271a8",
      "blockHash": "0x33bd9eac36b5ccd0038cb9be3235ea42a6b3a244121120c6f905ef2a258a6315",
      "blockNumber": 94653,
      "transactionIndex": 25,
      "confirmations": null,
      "from": "0xe6A7a1d47ff21B6321162AEA7C6CB457D5476Bca",
      "gasPrice": {
        "_hex": "0xd1dde1044"
      },
      "gasLimit": {
        "_hex": "0x55f0"
      },
      "to": "0x53937BE115FF5C49519ca11B9482C21b73FbB83F",
      "value": {
        "_hex": "0x2eb110f6360f33f0"
      },
      "nonce": 2676,
      "data": "0x",
      "r": "0xe9df74803cc247a890c40af1dd708279b965cea7ced335900f5319362bfe0eb0",
      "s": "0x4d784a038cdb1f2ebe4761cb94f73067dfd8d82e5321631f3d343316d8114ccf",
      "v": 27,
      "creates": null,
      "raw": "0xf86e820a74850d1dde10448255f09453937be115ff5c49519ca11b9482c21b73fbb83f882eb110f6360f33f0801ba0e9df74803cc247a890c40af1dd708279b965cea7ced335900f5319362bfe0eb0a04d784a038cdb1f2ebe4761cb94f73067dfd8d82e5321631f3d343316d8114ccf",
      "networkId": 0,
      "chainId": 0
    },
    {
      "hash": "0x44c1cea01097d461835ca8d6db3e88d11fe0a10bf23e40652ad7015d3fecd6b5",
      "blockHash": "0x33bd9eac36b5ccd0038cb9be3235ea42a6b3a244121120c6f905ef2a258a6315",
      "blockNumber": 94653,
      "transactionIndex": 26,
      "confirmations": null,
      "from": "0xe6A7a1d47ff21B6321162AEA7C6CB457D5476Bca",
      "gasPrice": {
        "_hex": "0xd1dde1044"
      },
      "gasLimit": {
        "_hex": "0x55f0"
      },
      "to": "0x6Bedb96f76B075444F810e1d6a66938A1D7972D9",
      "value": {
        "_hex": "0x2f183a72702dfeb0"
      },
      "nonce": 2677,
      "data": "0x",
      "r": "0x625d0ef325e0bcb56e25f948c9ae1eca763ee0adb697c92c90b941d0844f15e3",
      "s": "0x5b2f3a34afa8df0ab4bf2d764be1158dac73e057a6e00e1c7c720ac5848f5444",
      "v": 27,
      "creates": null,
      "raw": "0xf86e820a75850d1dde10448255f0946bedb96f76b075444f810e1d6a66938a1d7972d9882f183a72702dfeb0801ba0625d0ef325e0bcb56e25f948c9ae1eca763ee0adb697c92c90b941d0844f15e3a05b2f3a34afa8df0ab4bf2d764be1158dac73e057a6e00e1c7c720ac5848f5444",
      "networkId": 0,
      "chainId": 0
    },
    {
      "hash": "0x7826960e2519e9edbd2afc056961aae49df5979b6a7290e1c591f41ed035e745",
      "blockHash": "0x33bd9eac36b5ccd0038cb9be3235ea42a6b3a244121120c6f905ef2a258a6315",
      "blockNumber": 94653,
      "transactionIndex": 27,
      "confirmations": null,
      "from": "0xe6A7a1d47ff21B6321162AEA7C6CB457D5476Bca",
      "gasPrice": {
        "_hex": "0xd1dde1044"
      },
      "gasLimit": {
        "_hex": "0x55f0"
      },
      "to": "0xFAc1B5968b6CC27786d1A28c3E360B8c421569B9",
      "value": {
        "_hex": "0x2f316c37eef7f024"
      },
      "nonce": 2678,
      "data": "0x",
      "r": "0x44825d64486a530f0c64e717f482ebdd2b703e606e999df02c3f4b71cafb08b4",
      "s": "0x23383812bf60c56f51e8b074f404cf559e7de7b7bcea4c5a686fa6205c6f98ec",
      "v": 27,
      "creates": null,
      "raw": "0xf86e820a76850d1dde10448255f094fac1b5968b6cc27786d1a28c3e360b8c421569b9882f316c37eef7f024801ba044825d64486a530f0c64e717f482ebdd2b703e606e999df02c3f4b71cafb08b4a023383812bf60c56f51e8b074f404cf559e7de7b7bcea4c5a686fa6205c6f98ec",
      "networkId": 0,
      "chainId": 0
    },
    {
      "hash": "0xe511e14fa179502517d7734b9aaf2558b03faea7acb3d759e986d24ef2b5a957",
      "blockHash": "0x33bd9eac36b5ccd0038cb9be3235ea42a6b3a244121120c6f905ef2a258a6315",
      "blockNumber": 94653,
      "transactionIndex": 28,
      "confirmations": null,
      "from": "0xe6A7a1d47ff21B6321162AEA7C6CB457D5476Bca",
      "gasPrice": {
        "_hex": "0xd1dde1044"
      },
      "gasLimit": {
        "_hex": "0x55f0"
      },
      "to": "0xb7B3690EFa6b3f08D4EC289fF655C4b7bb15EE39",
      "value": {
        "_hex": "0x2f59834c2eea2e24"
      },
      "nonce": 2679,
      "data": "0x",
      "r": "0x1bfd6a792578bfeb3b084ba24dfeac2f048cd7b789c3f8b00148746f53948b3c",
      "s": "0x74438d0fea9e342ea3d0fd98fee8cdcc21fbd4262959a8771d57772ef54728fc",
      "v": 28,
      "creates": null,
      "raw": "0xf86e820a77850d1dde10448255f094b7b3690efa6b3f08d4ec289ff655c4b7bb15ee39882f59834c2eea2e24801ca01bfd6a792578bfeb3b084ba24dfeac2f048cd7b789c3f8b00148746f53948b3ca074438d0fea9e342ea3d0fd98fee8cdcc21fbd4262959a8771d57772ef54728fc",
      "networkId": 0,
      "chainId": 0
    },
    {
      "hash": "0xa986dcb1eaf0e58ee6397ee4a926b9620a0f0228a96091cc480be30793fe92d3",
      "blockHash": "0x33bd9eac36b5ccd0038cb9be3235ea42a6b3a244121120c6f905ef2a258a6315",
      "blockNumber": 94653,
      "transactionIndex": 29,
      "confirmations": null,
      "from": "0xe6A7a1d47ff21B6321162AEA7C6CB457D5476Bca",
      "gasPrice": {
        "_hex": "0xd1dde1044"
      },
      "gasLimit": {
        "_hex": "0x55f0"
      },
      "to": "0xafa4dbAdd4e76B6C5946DFB726E5095516A96144",
      "value": {
        "_hex": "0x3047da9a1e8cb1d4"
      },
      "nonce": 2680,
      "data": "0x",
      "r": "0x2305a5079b206dec1795b1c77ab387fe4108b0cba78870c6bd588edf17dd8fd5",
      "s": "0x3a32d9cd3ad322d1fb38a88f8a254067d9333b17986011154c04339cfe8aee3d",
      "v": 27,
      "creates": null,
      "raw": "0xf86e820a78850d1dde10448255f094afa4dbadd4e76b6c5946dfb726e5095516a96144883047da9a1e8cb1d4801ba02305a5079b206dec1795b1c77ab387fe4108b0cba78870c6bd588edf17dd8fd5a03a32d9cd3ad322d1fb38a88f8a254067d9333b17986011154c04339cfe8aee3d",
      "networkId": 0,
      "chainId": 0
    },
    {
      "hash": "0xe832985361b315132a87d2940a384c80cfb0a95a780c5c2390cd9a1990d3c45f",
      "blockHash": "0x33bd9eac36b5ccd0038cb9be3235ea42a6b3a244121120c6f905ef2a258a6315",
      "blockNumber": 94653,
      "transactionIndex": 30,
      "confirmations": null,
      "from": "0xe6A7a1d47ff21B6321162AEA7C6CB457D5476Bca",
      "gasPrice": {
        "_hex": "0xd1dde1044"
      },
      "gasLimit": {
        "_hex": "0x55f0"
      },
      "to": "0x0Bce1f08Ac26719f94701275c8cAfF71f7D27AAC",
      "value": {
        "_hex": "0x306c546e6bf7b780"
      },
      "nonce": 2681,
      "data": "0x",
      "r": "0xc8a4187265b99bbd1f8e1bf613146f10a63259af2a1ce850a6d5da48374557ad",
      "s": "0x50327d647b90f1bf3e2193f27aec77c6655c567652d35c76930e2b3e1e27b89c",
      "v": 28,
      "creates": null,
      "raw": "0xf86e820a79850d1dde10448255f0940bce1f08ac26719f94701275c8caff71f7d27aac88306c546e6bf7b780801ca0c8a4187265b99bbd1f8e1bf613146f10a63259af2a1ce850a6d5da48374557ada050327d647b90f1bf3e2193f27aec77c6655c567652d35c76930e2b3e1e27b89c",
      "networkId": 0,
      "chainId": 0
    },
    {
      "hash": "0x5c777add9c53bac1a0f70160b65325d1dcde2db6d7a05894fd24b3106b254a2a",
      "blockHash": "0x33bd9eac36b5ccd0038cb9be3235ea42a6b3a244121120c6f905ef2a258a6315",
      "blockNumber": 94653,
      "transactionIndex": 31,
      "confirmations": null,
      "from": "0xe6A7a1d47ff21B6321162AEA7C6CB457D5476Bca",
      "gasPrice": {
        "_hex": "0xd1dde1044"
      },
      "gasLimit": {
        "_hex": "0x55f0"
      },
      "to": "0xc8aB34A1891E416F845A740f0203e2186f8BBd09",
      "value": {
        "_hex": "0x313cf36c0012f098"
      },
      "nonce": 2682,
      "data": "0x",
      "r": "0x9f9280a0f605f380efa35525ab16bfd93760c6e48086acf6dce09b97905c2df1",
      "s": "0x7128caaf4f3ba1c9154bf2c7337df79930fb7593b4863761ad0121fbfb273479",
      "v": 28,
      "creates": null,
      "raw": "0xf86e820a7a850d1dde10448255f094c8ab34a1891e416f845a740f0203e2186f8bbd0988313cf36c0012f098801ca09f9280a0f605f380efa35525ab16bfd93760c6e48086acf6dce09b97905c2df1a07128caaf4f3ba1c9154bf2c7337df79930fb7593b4863761ad0121fbfb273479",
      "networkId": 0,
      "chainId": 0
    },
    {
      "hash": "0xfdc4ce77d188a917153c7003b5f42b934cb5be1f90c4220fb0a3df8bc0cf5b56",
      "blockHash": "0x33bd9eac36b5ccd0038cb9be3235ea42a6b3a244121120c6f905ef2a258a6315",
      "blockNumber": 94653,
      "transactionIndex": 32,
      "confirmations": null,
      "from": "0xe6A7a1d47ff21B6321162AEA7C6CB457D5476Bca",
      "gasPrice": {
        "_hex": "0xd1dde1044"
      },
      "gasLimit": {
        "_hex": "0x55f0"
      },
      "to": "0xaEcF258f8242D3806087bE4a8F10Bc00093876b1",
      "value": {
        "_hex": "0x3177a4eb31c5e404"
      },
      "nonce": 2683,
      "data": "0x",
      "r": "0xb2ef403f8352a24416d6f3809c3b7650907654d325c60765b59d566639cbfecd",
      "s": "0x458a1a1b2a02352bad62d880085da1996644b0f18fafc7f70b3a3023df91efbc",
      "v": 28,
      "creates": null,
      "raw": "0xf86e820a7b850d1dde10448255f094aecf258f8242d3806087be4a8f10bc00093876b1883177a4eb31c5e404801ca0b2ef403f8352a24416d6f3809c3b7650907654d325c60765b59d566639cbfecda0458a1a1b2a02352bad62d880085da1996644b0f18fafc7f70b3a3023df91efbc",
      "networkId": 0,
      "chainId": 0
    },
    {
      "hash": "0x2b8d8deb7fa46121b365ada558d26c3a12a2b181b861c834f06a7d1b601c8b27",
      "blockHash": "0x33bd9eac36b5ccd0038cb9be3235ea42a6b3a244121120c6f905ef2a258a6315",
      "blockNumber": 94653,
      "transactionIndex": 33,
      "confirmations": null,
      "from": "0xe6A7a1d47ff21B6321162AEA7C6CB457D5476Bca",
      "gasPrice": {
        "_hex": "0xd1dde1044"
      },
      "gasLimit": {
        "_hex": "0x55f0"
      },
      "to": "0x7Ec8871Dc96E1E7E9798651aC7557C1F95CA2D70",
      "value": {
        "_hex": "0x31a4ff8efe855bc0"
      },
      "nonce": 2684,
      "data": "0x",
      "r": "0xe75f4813778e6c2dc1407faedf1414a3e8460a40de32f55a4122860592ea8dd2",
      "s": "0x4436c1b59ef69c856df1a24ccefb4c2257098f32ad9f9d316034e10b2d3af2ce",
      "v": 27,
      "creates": null,
      "raw": "0xf86e820a7c850d1dde10448255f0947ec8871dc96e1e7e9798651ac7557c1f95ca2d708831a4ff8efe855bc0801ba0e75f4813778e6c2dc1407faedf1414a3e8460a40de32f55a4122860592ea8dd2a04436c1b59ef69c856df1a24ccefb4c2257098f32ad9f9d316034e10b2d3af2ce",
      "networkId": 0,
      "chainId": 0
    },
    {
      "hash": "0x03fe2150c7d20e059bfff4b65f2bb6a7ad646ad7ef6f0059ca8f04e485829687",
      "blockHash": "0x33bd9eac36b5ccd0038cb9be3235ea42a6b3a244121120c6f905ef2a258a6315",
      "blockNumber": 94653,
      "transactionIndex": 34,
      "confirmations": null,
      "from": "0xe6A7a1d47ff21B6321162AEA7C6CB457D5476Bca",
      "gasPrice": {
        "_hex": "0xd1dde1044"
      },
      "gasLimit": {
        "_hex": "0x55f0"
      },
      "to": "0xba1c85BF47A2236D2668AF0Fa26C34d3e33e6470",
      "value": {
        "_hex": "0x31e70305107781e4"
      },
      "nonce": 2685,
      "data": "0x",
      "r": "0xe3769e401451c81fb6191ec4238f5930b152c1b8cf6163e07f0e2cf2033fbdcb",
      "s": "0x342433a0505a3e16adcc76045d97c192d408b7eaa3c6bd968aed79e065c83499",
      "v": 27,
      "creates": null,
      "raw": "0xf86e820a7d850d1dde10448255f094ba1c85bf47a2236d2668af0fa26c34d3e33e64708831e70305107781e4801ba0e3769e401451c81fb6191ec4238f5930b152c1b8cf6163e07f0e2cf2033fbdcba0342433a0505a3e16adcc76045d97c192d408b7eaa3c6bd968aed79e065c83499",
      "networkId": 0,
      "chainId": 0
    },
    {
      "hash": "0x9a4ec179be5c453b82271a25e2d2fea824ba410ad52f1e9c65cb0ce3a7f23718",
      "blockHash": "0x33bd9eac36b5ccd0038cb9be3235ea42a6b3a244121120c6f905ef2a258a6315",
      "blockNumber": 94653,
      "transactionIndex": 35,
      "confirmations": null,
      "from": "0xe6A7a1d47ff21B6321162AEA7C6CB457D5476Bca",
      "gasPrice": {
        "_hex": "0xd1dde1044"
      },
      "gasLimit": {
        "_hex": "0x55f0"
      },
      "to": "0x78FF59159FAfb4a337fd158FcF8D9603a7c6f03a",
      "value": {
        "_hex": "0x32043bb302da7f10"
      },
      "nonce": 2686,
      "data": "0x",
      "r": "0xf3f118955cb04b34e7c20ac46b8ade0fbffdee2d6e8df3d92e3335126849b077",
      "s": "0x63ff745f66bfcacb3296d062641e29c2c438a4adc189cf610fca57ee6a7d4825",
      "v": 28,
      "creates": null,
      "raw": "0xf86e820a7e850d1dde10448255f09478ff59159fafb4a337fd158fcf8d9603a7c6f03a8832043bb302da7f10801ca0f3f118955cb04b34e7c20ac46b8ade0fbffdee2d6e8df3d92e3335126849b077a063ff745f66bfcacb3296d062641e29c2c438a4adc189cf610fca57ee6a7d4825",
      "networkId": 0,
      "chainId": 0
    },
    {
      "hash": "0xa8b5cad33dad6f8a24fd975259caa0f2018efd9527fb81dfafc7e0c8ed3e730a",
      "blockHash": "0x33bd9eac36b5ccd0038cb9be3235ea42a6b3a244121120c6f905ef2a258a6315",
      "blockNumber": 94653,
      "transactionIndex": 36,
      "confirmations": null,
      "from": "0xe6A7a1d47ff21B6321162AEA7C6CB457D5476Bca",
      "gasPrice": {
        "_hex": "0xd1dde1044"
      },
      "gasLimit": {
        "_hex": "0x55f0"
      },
      "to": "0x8c8eef67181456cBBB05CDFB634709119C2F644F",
      "value": {
        "_hex": "0x325b912b0b003e08"
      },
      "nonce": 2687,
      "data": "0x",
      "r": "0xd5f729254626bd8dd8d746a57b084a793113feab6d8ed2153910917a03d443f1",
      "s": "0x1a8f663aeb50e21c827a1c8f262d7f39ccc505577b11f7286be6190bbaa32653",
      "v": 27,
      "creates": null,
      "raw": "0xf86e820a7f850d1dde10448255f0948c8eef67181456cbbb05cdfb634709119c2f644f88325b912b0b003e08801ba0d5f729254626bd8dd8d746a57b084a793113feab6d8ed2153910917a03d443f1a01a8f663aeb50e21c827a1c8f262d7f39ccc505577b11f7286be6190bbaa32653",
      "networkId": 0,
      "chainId": 0
    },
    {
      "hash": "0xc6d89ecd219124aba36ccbdd503a19b1c95501ac91843eeb7076d5b7bc39c76a",
      "blockHash": "0x33bd9eac36b5ccd0038cb9be3235ea42a6b3a244121120c6f905ef2a258a6315",
      "blockNumber": 94653,
      "transactionIndex": 37,
      "confirmations": null,
      "from": "0xe6A7a1d47ff21B6321162AEA7C6CB457D5476Bca",
      "gasPrice": {
        "_hex": "0xd1dde1044"
      },
      "gasLimit": {
        "_hex": "0x55f0"
      },
      "to": "0x8eB3FbB4A0Cc2366e88FB476df63D3Ad6907907b",
      "value": {
        "_hex": "0x3290af7620190830"
      },
      "nonce": 2688,
      "data": "0x",
      "r": "0x45fcae42518ad607a9abab8955f6796c081cbb2e4d4861749991cb8926d02698",
      "s": "0x21bd5557a4556272da5f1f0deae47b71a02b34e24274a2511fb99cfcddd86148",
      "v": 27,
      "creates": null,
      "raw": "0xf86e820a80850d1dde10448255f0948eb3fbb4a0cc2366e88fb476df63d3ad6907907b883290af7620190830801ba045fcae42518ad607a9abab8955f6796c081cbb2e4d4861749991cb8926d02698a021bd5557a4556272da5f1f0deae47b71a02b34e24274a2511fb99cfcddd86148",
      "networkId": 0,
      "chainId": 0
    },
    {
      "hash": "0x15af85b915e16cdcd88c76f32d271c35e15ed3ee78a873413f6be267505bf971",
      "blockHash": "0x33bd9eac36b5ccd0038cb9be3235ea42a6b3a244121120c6f905ef2a258a6315",
      "blockNumber": 94653,
      "transactionIndex": 38,
      "confirmations": null,
      "from": "0xe6A7a1d47ff21B6321162AEA7C6CB457D5476Bca",
      "gasPrice": {
        "_hex": "0xd1dde1044"
      },
      "gasLimit": {
        "_hex": "0x55f0"
      },
      "to": "0x06Db13340f562261d079E4FA344802DdE8340307",
      "value": {
        "_hex": "0x329610126d12381c"
      },
      "nonce": 2689,
      "data": "0x",
      "r": "0xdf6d6a7bb5ba2d034f3dfa5f5027893e0918d7e3b0d63b861c915db7bd89bc22",
      "s": "0x2df4c79ec2b86c1aebd6cab1a10b102ff2df065a23fb8febec57df3c7fbc65c7",
      "v": 28,
      "creates": null,
      "raw": "0xf86e820a81850d1dde10448255f09406db13340f562261d079e4fa344802dde834030788329610126d12381c801ca0df6d6a7bb5ba2d034f3dfa5f5027893e0918d7e3b0d63b861c915db7bd89bc22a02df4c79ec2b86c1aebd6cab1a10b102ff2df065a23fb8febec57df3c7fbc65c7",
      "networkId": 0,
      "chainId": 0
    }
  ]
}