{
  "hash": "0x0ed7024850bd11947623fa4a5c1de6a08d6b1e890694360fb738efa78801f431",
  "parentHash": "0x297c807dbdec8b83c973c005f7491baf3eaf60da602bce70586cb9e689a9ad78",
  "number": 49907,
  "timestamp": 1438981068,
  "nonce": "0xc279f0fcf22c5521",
  "difficulty": 1495113181027,
  "gasLimit": {
    "_hex": "0x454c0"
  },
  "gasUsed": {
    "_hex": "0x546c"
  },
  "miner": "0xab84940B570d6358ed6A9Dbf7e0bc8Ec8F5A6E89",
  "extraData": "0x322831652933",
  "transactions": [
    {
      "hash": "0x49efa34a35a691968092129f4a8daa5370f257bbe964b443b9723304e0759ea3",
      "blockHash": "0x0ed7024850bd11947623fa4a5c1de6a08d6b1e890694360fb738efa78801f431",
      "blockNumber": 49907,
      "transactionIndex": 0,
      "confirmations": null,
      "from": "0xbb7B8287f3F0a933474a79eAe42CBCa977791171",
      "gasPrice": {
        "_hex": "0x746a528800"
      },
      "gasLimit": {
        "_hex": "0x61a8"
      },
      "to": "0x2910543Af39abA0Cd09dBb2D50200b3E800A63D2",
      "value": {
        "_hex": "0x1b1ae4d6e2ef5000000"
      },
      "nonce": 6,
      "data": "0x454e52304e30313330",
      "r": "0x67e15c791cce8c2b44b3fb40967378576223f4fa16bb92f0f25d255741676016",
      "s": "0x7a6b672f6ade4dd93be0a80d2ca9f82a460889f57d33ad04c8d4a9b3af60dee0",
      "v": 28,
      "creates": null,
      "raw": "0xf8770685746a5288008261a8942910543af39aba0cd09dbb2d50200b3e800a63d28a01b1ae4d6e2ef500000089454e52304e303133301ca067e15c791cce8c2b44b3fb40967378576223f4fa16bb92f0f25d255741676016a07a6b672f6ade4dd93be0a80d2ca9f82a460889f57d33ad04c8d4a9b3af60dee0",
      "networkId": 0,
      "chainId": 0
    }
  ]
}