{
  "hash": "0x971b64d20087aff0629bebc87ceeb3c93119db795e2058c98cc19197a02a6e5d",
  "parentHash": "0x5392d9c8c186099b44c16b3302215b6a15af9f571f5715701233f2a3a93d7ecc",
  "number": 118613,
  "timestamp": 1440128649,
  "nonce": "0x24d37585c561e09f",
  "difficulty": 4337307605846,
  "gasLimit": {
    "_hex": "0x2fefd8"
  },
  "gasUsed": {
    "_hex": "0x5208"
  },
  "miner": "0x790b8a3cE86E707ED0eD32bF89B3269692a23CC1",
  "extraData": "0xd783010002844765746887676f312e342e32856c696e7578",
  "transactions": [
    {
      "hash": "0x4e2b1a55a16e95b8acb361e4093f3318370f08e587bdc8f742646e8db7ccdb1d",
      "blockHash": "0x971b64d20087aff0629bebc87ceeb3c93119db795e2058c98cc19197a02a6e5d",
      "blockNumber": 118613,
      "transactionIndex": 0,
      "confirmations": null,
      "from": "0x007f7f58D3eb5b7510A301eCC749FC1fCDDBE14D",
      "gasPrice": {
        "_hex": "0xba43b7400"
      },
      "gasLimit": {
        "_hex": "0x15f90"
      },
      "to": "0xb1abce2918E21ddb93AA452731a12672A3d9F75a",
      "value": {
        "_hex": "0x4563918244f40000"
      },
      "nonce": 346,
      "data": "0x",
      "r": "0x0b6c88a7782d9fef1acde62093dbdaa3f5be49ae55062f8f0771e28ff419ae2a",
      "s": "0x5a7a96b806ba67acc1c6c3a23da43dbcbfc6e87cc58c7cb54d475397347c49e9",
      "v": 27,
      "creates": null,
      "raw": "0xf86f82015a850ba43b740083015f9094b1abce2918e21ddb93aa452731a12672a3d9f75a884563918244f40000801ba00b6c88a7782d9fef1acde62093dbdaa3f5be49ae55062f8f0771e28ff419ae2aa05a7a96b806ba67acc1c6c3a23da43dbcbfc6e87cc58c7cb54d475397347c49e9",
      "networkId": 0,
      "chainId": 0
    }
  ]
}