{
  "hash": "0xd890c5f6c27bc925c0b3b46571bcf7ae5fbb5c862f72e2ac307ee72137795412",
  "parentHash": "0xa4305adec587efd48c7bf7502e597ae088637ec25859f787ad826183afc55ecc",
  "number": 82666,
  "timestamp": 1439523262,
  "nonce": "0x44c6639c2ba12754",
  "difficulty": 2367123904034,
  "gasLimit": {
    "_hex": "0x2fefd8"
  },
  "gasUsed": {
    "_hex": "0xf618"
  },
  "miner": "0x9746c7e1ef2bd21FF3997fa467593a89cb852BD0",
  "extraData": "0x476574682f76312e302e312f77696e646f77732f676f312e342e32",
  "transactions": [
    {
      "hash": "0x648495aef4ce86464f814f603628c161a8c785a1ade9165daa219b3e9b700173",
      "blockHash": "0xd890c5f6c27bc925c0b3b46571bcf7ae5fbb5c862f72e2ac307ee72137795412",
      "blockNumber": 82666,
      "transactionIndex": 0,
      "confirmations": null,
      "from": "0x00C865a16eD3c930DD70B642507639D199C62180",
      "gasPrice": {
        "_hex": "0xe0243f106"
      },
      "gasLimit": {
        "_hex": "0x5208"
      },
      "to": "0x32Be343B94f860124dC4fEe278FDCBD38C102D88",
      "value": {
        "_hex": "0x27e5c4a58f5fd4000"
      },
      "nonce": 4,
      "data": "0x",
      "r": "0xfea7e8ebdc19b2784deb7b911b0e0d598244695a9f6796c08b6c4d55bb90ddb5",
      "s": "0x0faf55b2d49d9e55d0f09ca3494db7abde5267b52fb6509ef912c06a0431ec9b",
      "v": 28,
      "creates": null,
      "raw": "0xf86d04850e0243f1068252089432be343b94f860124dc4fee278fdcbd38c102d8889027e5c4a58f5fd4000801ca0fea7e8ebdc19b2784deb7b911b0e0d598244695a9f6796c08b6c4d55bb90ddb5a00faf55b2d49d9e55d0f09ca3494db7abde5267b52fb6509ef912c06a0431ec9b",
      "networkId": 0,
      "chainId": 0
    },
    {
      "hash": "0x6d83b3c2bd375875328e52e256991af39f6988e7dc534a45de14d10bb9fd5d80",
      "blockHash": "0xd890c5f6c27bc925c0b3b46571bcf7ae5fbb5c862f72e2ac307ee72137795412",
      "blockNumber": 82666,
      "transactionIndex": 1,
      "confirmations": null,
      "from": "0x3620db64D25D412bAb4C8d93E2e0D7e64e8Cb933",
      "gasPrice": {
        "_hex": "0xe0243f106"
      },
      "gasLimit": {
        "_hex": "0x5208"
      },
      "to": "0x32Be343B94f860124dC4fEe278FDCBD38C102D88",
      "value": {
        "_hex": "0x158576d77069500000"
      },
      "nonce": 8,
      "data": "0x",
      "r": "0xfd7b395a214957669e85de6f7dc2096039ac243281b06c729520f3535c1e9920",
      "s": "0x54b03fd94178831fc1a61c82bfacb40d080ecb482b6e5cf1a434bb08e5384119",
      "v": 28,
      "creates": null,
      "raw": "0xf86d08850e0243f1068252089432be343b94f860124dc4fee278fdcbd38c102d8889158576d77069500000801ca0fd7b395a214957669e85de6f7dc2096039ac243281b06c729520f3535c1e9920a054b03fd94178831fc1a61c82bfacb40d080ecb482b6e5cf1a434bb08e5384119",
      "networkId": 0,
      "chainId": 0
    },
    {
      "hash": "0x99fa9aa256b0eedf0283e72a3fdf027c84c8934d8ee93a9267433ee8188b78cd",
      "blockHash": "0xd890c5f6c27bc925c0b3b46571bcf7ae5fbb5c862f72e2ac307ee72137795412",
      "blockNumber": 82666,
      "transactionIndex": 2,
      "confirmations": null,
      "from": "0x8Cb4bac8Ac25112a55E9fB83Bcc5ba2644834624",
      "gasPrice": {
        "_hex": "0xe0243f106"
      },
      "gasLimit": {
        "_hex": "0x5208"
      },
      "to": "0x32Be343B94f860124dC4fEe278FDCBD38C102D88",
      "value": {
        "_hex": "0x5f08aec9fae0440000"
      },
      "nonce": 0,
      "data": "0x",
      "r": "0x2ba87f7a44672b0033a57d3b3e923cf435bdf082f0b0ee775c1760b71916d855",
      "s": "0x2da302ba064505933f3ff434fe64023cf683544ddc9c4af2f4579cd9f430c69d",
      "v": 28,
      "creates": null,
      "raw": "0xf86d80850e0243f1068252089432be343b94f860124dc4fee278fdcbd38c102d88895f08aec9fae0440000801ca02ba87f7a44672b0033a57d3b3e923cf435bdf082f0b0ee775c1760b71916d855a02da302ba064505933f3ff434fe64023cf683544ddc9c4af2f4579cd9f430c69d",
      "networkId": 0,
      "chainId": 0
    }
  ]
}