{
  "hash": "0x7f57ab5486cbf45293d0015c64f13b0dd99ce7467bdd42017e284bebc57631ff",
  "parentHash": "0x1464321f7caed7a38ef319becdcc6eb4e36d2789fbd1ad36913e7cc10203e069",
  "number": 94916,
  "timestamp": 1439715993,
  "nonce": "0x9670c7dfeae91392",
  "difficulty": 3531005169178,
  "gasLimit": {
    "_hex": "0x2fefd8"
  },
  "gasUsed": {
    "_hex": "0x5208"
  },
  "miner": "0x88D74a59454F6cF3B51ef6b9136AFb6b9D405A88",
  "extraData": "0x476574682f76312e302e312d37666266393930632f6c696e75782f676f312e34",
  "transactions": [
    {
      "hash": "0x6c32c75be5806481e4dadf40d47608043e2f16561b0e0b0b0aa2dad77e301f6f",
      "blockHash": "0x7f57ab5486cbf45293d0015c64f13b0dd99ce7467bdd42017e284bebc57631ff",
      "blockNumber": 94916,
      "transactionIndex": 0,
      "confirmations": null,
      "from": "0x007f7f58D3eb5b7510A301eCC749FC1fCDDBE14D",
      "gasPrice": {
        "_hex": "0xcc8ddf695"
      },
      "gasLimit": {
        "_hex": "0x15f90"
      },
      "to": "0xb1abce2918E21ddb93AA452731a12672A3d9F75a",
      "value": {
        "_hex": "0x4563918244f40000"
      },
      "nonce": 47,
      "data": "0x",
      "r": "0xee4cbadf1f9d6f60e8c76ca738bde89b653b3924b87c54c6490413eda1a001af",
      "s": "0x20ad02c9c06ef88be368d7e35dcfedb7eec443b496cf8c4115dcff5beefa1f86",
      "v": 28,
      "creates": null,
      "raw": "0xf86d2f850cc8ddf69583015f9094b1abce2918e21ddb93aa452731a12672a3d9f75a884563918244f40000801ca0ee4cbadf1f9d6f60e8c76ca738bde89b653b3924b87c54c6490413eda1a001afa020ad02c9c06ef88be368d7e35dcfedb7eec443b496cf8c4115dcff5beefa1f86",
      "networkId": 0,
      "chainId": 0
    }
  ]
}