{
  "hash": "0x38060849a81c7dc123b043b945487466502f04972edabdf729bd63c343a27435",
  "parentHash": "0x4cd63248079b475069e17300f93efa340bc5b80524f3bdc73919c468723f1e3c",
  "number": 87833,
  "timestamp": 1439598221,
  "nonce": "0x1235498232ad7057",
  "difficulty": 3178692347531,
  "gasLimit": {
    "_hex": "0x2fefd5"
  },
  "gasUsed": {
    "_hex": "0xa410"
  },
  "miner": "0xe6A7a1d47ff21B6321162AEA7C6CB457D5476Bca",
  "extraData": "0x476574682f76312e302e312d38326566323666362f6c696e75782f676f312e34",
  "transactions": [
    {
      "hash": "0x3e8e8423d11776e6c562e495e36fd72e1fe8f1f231da32bc70b0db9c6bd91432",
      "blockHash": "0x38060849a81c7dc123b043b945487466502f04972edabdf729bd63c343a27435",
      "blockNumber": 87833,
      "transactionIndex": 0,
      "confirmations": null,
      "from": "0x61F642543d22bAf5382908a714E675Cc0b51ea45",
      "gasPrice": {
        "_hex": "0xcb1966a23"
      },
      "gasLimit": {
        "_hex": "0x5208"
      },
      "to": "0x32Be343B94f860124dC4fEe278FDCBD38C102D88",
      "value": {
        "_hex": "0x1a0516221c0d1c000"
      },
      "nonce": 5,
      "data": "0x",
      "r": "0x0671feffa00ddadb4f2bb198b146ea27917c8844d6d4050f70c37e3739916bff",
      "s": "0x778fb392ede978b1a947f98ff26fb7cacf98f32063c5fd96b320b8299abfee34",
      "v": 28,
      "creates": null,
      "raw": "0xf86d05850cb1966a238252089432be343b94f860124dc4fee278fdcbd38c102d888901a0516221c0d1c000801ca00671feffa00ddadb4f2bb198b146ea27917c8844d6d4050f70c37e3739916bffa0778fb392ede978b1a947f98ff26fb7cacf98f32063c5fd96b320b8299abfee34",
      "networkId": 0,
      "chainId": 0
    },
    {
      "hash": "0x8cdae9060d6949f6febb765195b0687cf3bc62e832312c9b4f010ce68ef42f20",
      "blockHash": "0x38060849a81c7dc123b043b945487466502f04972edabdf729bd63c343a27435",
      "blockNumber": 87833,
      "transactionIndex": 1,
      "confirmations": null,
      "from": "0x32Be343B94f860124dC4fEe278FDCBD38C102D88",
      "gasPrice": {
        "_hex": "0xcb1966a23"
      },
      "gasLimit": {
        "_hex": "0x5208"
      },
      "to": "0x031778CE7A0BB1Aac0f29615378Fb240ed41c51b",
      "value": {
        "_hex": "0xdc3c015250b8800"
      },
      "nonce": 802,
      "data": "0x",
      "r": "0x1b71304fc28b51d3ef9d02880d825d191cdbcab558d6fa55bbfe1035e56beefc",
      "s": "0x0778380d84e8266996dc49110cba0234363ff89d5a0ef168c7f7a5f08556bca2",
      "v": 27,
      "creates": null,
      "raw": "0xf86e820322850cb1966a2382520894031778ce7a0bb1aac0f29615378fb240ed41c51b880dc3c015250b8800801ba01b71304fc28b51d3ef9d02880d825d191cdbcab558d6fa55bbfe1035e56beefca00778380d84e8266996dc49110cba0234363ff89d5a0ef168c7f7a5f08556bca2",
      "networkId": 0,
      "chainId": 0
    }
  ]
}