{
  "hash": "0x9be255b45be7f55606d1903def2dbf00a3e85a623dfa4e92f7ca960545effd34",
  "parentHash": "0x216a2c02bbd3b24961d81bde4caaff15bdfa8267290f3e943511ab5b3193b53c",
  "number": 110132,
  "timestamp": 1439968652,
  "nonce": "0x4ec0b61dddee581b",
  "difficulty": 4377884357540,
  "gasLimit": {
    "_hex": "0x2fefd8"
  },
  "gasUsed": {
    "_hex": "0x5208"
  },
  "miner": "0xe6A7a1d47ff21B6321162AEA7C6CB457D5476Bca",
  "extraData": "0x476574682f76312e302e312d38326566323666362f6c696e75782f676f312e34",
  "transactions": [
    {
      "hash": "0xc609146b24a9b34abc6be2d02481f7220f69c35aa60f578c5d6e9806d16b66df",
      "blockHash": "0x9be255b45be7f55606d1903def2dbf00a3e85a623dfa4e92f7ca960545effd34",
      "blockNumber": 110132,
      "transactionIndex": 0,
      "confirmations": null,
      "from": "0x120A270bbC009644e35F0bB6ab13f95b8199c4ad",
      "gasPrice": {
        "_hex": "0xce727522a"
      },
      "gasLimit": {
        "_hex": "0x3d090"
      },
      "to": "0xfC0096B21e95aCB8D619D176a4a1d8D529badBEF",
      "value": {
        "_hex": "0xa9ae346cbda0800"
      },
      "nonce": 868,
      "data": "0x",
      "r": "0x4c9e141032ee9a16481184b2705f551be6887d073290627efd07032eefa1e73a",
      "s": "0x3f5bcae0b8364f05728deadda97745aab9136bddbf47ad8fc4b35a9578aa80e5",
      "v": 27,
      "creates": null,
      "raw": "0xf86f820364850ce727522a8303d09094fc0096b21e95acb8d619d176a4a1d8d529badbef880a9ae346cbda0800801ba04c9e141032ee9a16481184b2705f551be6887d073290627efd07032eefa1e73aa03f5bcae0b8364f05728deadda97745aab9136bddbf47ad8fc4b35a9578aa80e5",
      "networkId": 0,
      "chainId": 0
    }
  ]
}