{
  "hash": "0xfa698a5f4d98cee8899898ec16655da54d1d75fb95dfb123e30b6639d6de2199",
  "parentHash": "0x01829015eb92e233249ecd34aa6aeb2436206b367ac7b27d9207b330b99e56ad",
  "number": 79969,
  "timestamp": 1439478140,
  "nonce": "0xa454bf5d67f0d70f",
  "difficulty": 2343729059397,
  "gasLimit": {
    "_hex": "0x2fefd8"
  },
  "gasUsed": {
    "_hex": "0xf327"
  },
  "miner": "0xC603Ab5ef41fC61AA8b76bEddb09e3Cfcbb174BD",
  "extraData": "0x476574682f76312e302e312f77696e646f77732f676f312e342e32",
  "transactions": [
    {
      "hash": "0x34a61b38b2b5d45b20fbec8d9eedbdf33eeebdd9a1d56992d4078f6c90c36ba1",
      "blockHash": "0xfa698a5f4d98cee8899898ec16655da54d1d75fb95dfb123e30b6639d6de2199",
      "blockNumber": 79969,
      "transactionIndex": 0,
      "confirmations": null,
      "from": "0xD1826373C4E0938f0b4302B40324f7f9c546492C",
      "gasPrice": {
        "_hex": "0xe199edc8c"
      },
      "gasLimit": {
        "_hex": "0x30d40"
      },
      "to": "0x5d6f0e293786F1ec9fEEc3851c03951Dc8c6112a",
      "value": {
        "_hex": "0xde0b6b3a7640000"
      },
      "nonce": 32,
      "data": "0x",
      "r": "0xd93cd89b095f7d494985e357617cedf0d7fc4423c66ec577b04032c6669dd0da",
      "s": "0x0bd03c0813f15b332a7432a053fc3666c4de5c8876105b310ca9d4cca794c8da",
      "v": 28,
      "creates": null,
      "raw": "0xf86d20850e199edc8c83030d40945d6f0e293786f1ec9feec3851c03951dc8c6112a880de0b6b3a7640000801ca0d93cd89b095f7d494985e357617cedf0d7fc4423c66ec577b04032c6669dd0daa00bd03c0813f15b332a7432a053fc3666c4de5c8876105b310ca9d4cca794c8da",
      "networkId": 0,
      "chainId": 0
    }
  ]
}