{
  "hash": "0x32e28a410a6c3fcfe15765b1ad283bdf14c5ba907ab0bd90d2e49d07083afdc2",
  "parentHash": "0x04bf6174ba7875a96f40e5918615d57eebdce1294be930513d6e92d2ee4cf5d3",
  "number": 80812,
  "timestamp": 1439491319,
  "nonce": "0x95f6015818f59106",
  "difficulty": 2457159646426,
  "gasLimit": {
    "_hex": "0x2fefd8"
  },
  "gasUsed": {
    "_hex": "0xa410"
  },
  "miner": "0x88D74a59454F6cF3B51ef6b9136AFb6b9D405A88",
  "extraData": "0x476574682f76312e302e312d38326566323666362f6c696e75782f676f312e34",
  "transactions": [
    {
      "hash": "0xd3611a0d7e275ec647ebdf3e56f2b9526238913d420d3a5c6b4b9cd34965ed2d",
      "blockHash": "0x32e28a410a6c3fcfe15765b1ad283bdf14c5ba907ab0bd90d2e49d07083afdc2",
      "blockNumber": 80812,
      "transactionIndex": 0,
      "confirmations": null,
      "from": "0x32Be343B94f860124dC4fEe278FDCBD38C102D88",
      "gasPrice": {
        "_hex": "0xd702f641a"
      },
      "gasLimit": {
        "_hex": "0x5208"
      },
      "to": "0xC20b3638Bf021A5f01B7732C141963181DDF3366",
      "value": {
        "_hex": "0x51508afdb65e300000"
      },
      "nonce": 553,
      "data": "0x",
      "r": "0xbaff06b6e6d2a3bcbe0dafc84689c4f4d53968f576dd1cbdddc1d9c8907f9c97",
      "s": "0x230a750d3e56a5acb008edb5e96a51c2f30146c4e3e981ac79dfa998c58ad35a",
      "v": 28,
      "creates": null,
      "raw": "0xf86f820229850d702f641a82520894c20b3638bf021a5f01b7732c141963181ddf33668951508afdb65e300000801ca0baff06b6e6d2a3bcbe0dafc84689c4f4d53968f576dd1cbdddc1d9c8907f9c97a0230a750d3e56a5acb008edb5e96a51c2f30146c4e3e981ac79dfa998c58ad35a",
      "networkId": 0,
      "chainId": 0
    },
    {
      "hash": "0xf8de7464cf9ec5243d5bc839e3134604deae00ebb6fd77861f31c924bb311c00",
      "blockHash": "0x32e28a410a6c3fcfe15765b1ad283bdf14c5ba907ab0bd90d2e49d07083afdc2",
      "blockNumber": 80812,
      "transactionIndex": 1,
      "confirmations": null,
      "from": "0x120A270bbC009644e35F0bB6ab13f95b8199c4ad",
      "gasPrice": {
        "_hex": "0xce9da13f8"
      },
      "gasLimit": {
        "_hex": "0x15f90"
      },
      "to": "0x20134CBFf88bFADc466b52ECEAA79857891d831E",
      "value": {
        "_hex": "0x2c73c937742c500000"
      },
      "nonce": 350,
      "data": "0x",
      "r": "0xbb65447ed9c3684413067d622b21aa224254d0fbe59dcf360a1279e1570e21db",
      "s": "0x3fbc7d0332db909b27294829fd5776d00f21075b1043b00a0d6a53586c629750",
      "v": 28,
      "creates": null,
      "raw": "0xf87082015e850ce9da13f883015f909420134cbff88bfadc466b52eceaa79857891d831e892c73c937742c500000801ca0bb65447ed9c3684413067d622b21aa224254d0fbe59dcf360a1279e1570e21dba03fbc7d0332db909b27294829fd5776d00f21075b1043b00a0d6a53586c629750",
      "networkId": 0,
      "chainId": 0
    }
  ]
}