{
  "hash": "0x96fa6d7115aeb35969f9b430e9c8eb7d4af2688b5ea99b6fec4ab167f1a42a45",
  "parentHash": "0xb87debcc8d2857da2a6e7fc83c19b75cf44a090c5687a30f81ce9f6d5c06d287",
  "number": 52579,
  "timestamp": 1439023857,
  "nonce": "0xcb228569815f2b18",
  "difficulty": 1566366156722,
  "gasLimit": {
    "_hex": "0x15ca6d"
  },
  "gasUsed": {
    "_hex": "0xf4240"
  },
  "miner": "0xbb7B8287f3F0a933474a79eAe42CBCa977791171",
  "extraData": "0x476574682f4c5649562f76312e302e312f6c696e75782f676f312e342e32",
  "transactions": [
    {
      "hash": "0x1e2cf37739fdf713869230058eb28b76d593f473216a84c62e9f1e0a32ffa707",
      "blockHash": "0x96fa6d7115aeb35969f9b430e9c8eb7d4af2688b5ea99b6fec4ab167f1a42a45",
      "blockNumber": 52579,
      "transactionIndex": 0,
      "confirmations": null,
      "from": "0x54dAeb3E8a6BBC797E4aD2b0339f134b186e4637",
      "gasPrice": {
        "_hex": "0xdf4ba21f9"
      },
      "gasLimit": {
        "_hex": "0x7a120"
      },
      "to": "0xBAA54d6E90c3F4d7Ebec11bD180134C7eD8eBb52",
      "value": {
        "_hex": "0x16345785d8a0000"
      },
      "nonce": 753,
      "data": "0x",
      "r": "0x131cd19a9330840507317760ef4f911c423d1cc70ec5dacbc6b6a9063ec96070",
      "s": "0x7469f82b069737fa885904b814cea6496180fe7c55928a7840280851fea8f24a",
      "v": 28,
      "creates": null,
      "raw": "0xf86f8202f1850df4ba21f98307a12094baa54d6e90c3f4d7ebec11bd180134c7ed8ebb5288016345785d8a0000801ca0131cd19a9330840507317760ef4f911c423d1cc70ec5dacbc6b6a9063ec96070a07469f82b069737fa885904b814cea6496180fe7c55928a7840280851fea8f24a",
      "networkId": 0,
      "chainId": 0
    },
    {
      "hash": "0x456673dddbb1e01e859b234c792d6addbc70c521d36e0a751876ce794c1eb5a9",
      "blockHash": "0x96fa6d7115aeb35969f9b430e9c8eb7d4af2688b5ea99b6fec4ab167f1a42a45",
      "blockNumber": 52579,
      "transactionIndex": 1,
      "confirmations": null,
      "from": "0x54dAeb3E8a6BBC797E4aD2b0339f134b186e4637",
      "gasPrice": {
        "_hex": "0xdf4ba21f9"
      },
      "gasLimit": {
        "_hex": "0x7a120"
      },
      "to": "0xBAA54d6E90c3F4d7Ebec11bD180134C7eD8eBb52",
      "value": {
        "_hex": "0x16345785d8a0000"
      },
      "nonce": 754,
      "data": "0x",
      "r": "0x3cf1e181b6272cb0c672ebebaa87e9546bd7188d075feea65dc7351e29fcc6e4",
      "s": "0x49b5067b961df302037ae6d7a3b93e9aa69237172a20aae0f33d7f41ecfc6bc2",
      "v": 27,
      "creates": null,
      "raw": "0xf86f8202f2850df4ba21f98307a12094baa54d6e90c3f4d7ebec11bd180134c7ed8ebb5288016345785d8a0000801ba03cf1e181b6272cb0c672ebebaa87e9546bd7188d075feea65dc7351e29fcc6e4a049b5067b961df302037ae6d7a3b93e9aa69237172a20aae0f33d7f41ecfc6bc2",
      "networkId": 0,
      "chainId": 0
    }
  ]
}