{
  "hash": "0x67ac8832d55c1c9320306bc0f38f72ca18ecf71e64109be7d112e7c2ac5d5576",
  "parentHash": "0x96cf0b9132c9b3e24e6ae5785461918c2f72ea13e814b49e7f7fb8c520a85230",
  "number": 77464,
  "timestamp": 1439437702,
  "nonce": "0xbb40d08bf4dab74b",
  "difficulty": 2238162401991,
  "gasLimit": {
    "_hex": "0x2fefd8"
  },
  "gasUsed": {
    "_hex": "0x5d9f"
  },
  "miner": "0x923707da8Dd7Ff41a0bDD87b62c9E5DfA9c420a5",
  "extraData": "0x",
  "transactions": [
    {
      "hash": "0x74ae554b938a24ab6b129b87e890db9d466a46391acd2902606d5fc77c21fafe",
      "blockHash": "0x67ac8832d55c1c9320306bc0f38f72ca18ecf71e64109be7d112e7c2ac5d5576",
      "blockNumber": 77464,
      "transactionIndex": 0,
      "confirmations": null,
      "from": "0x770d98d31b4353FceEE8560c4CCf803e88C0c4e0",
      "gasPrice": {
        "_hex": "0xcb922d02e"
      },
      "gasLimit": {
        "_hex": "0x15f90"
      },
      "to": "0xCAc7000C7dBaa2E33Af15325AF5D435E011C7BdD",
      "value": {
        "_hex": "0x9"
      },
      "nonce": 17,
      "data": "0xb214faa54131313131313131410000000000000000000000000000000000000000000000",
      "r": "0x54662a5e983feefefe3fb81f6f2b48f6087c9de79688cec4f087e5b7158c95ce",
      "s": "0x39f5fb2b46445bee550eab22eaa6da9f9c157587b52190f3d649a080eb690f64",
      "v": 27,
      "creates": null,
      "raw": "0xf88911850cb922d02e83015f9094cac7000c7dbaa2e33af15325af5d435e011c7bdd09a4b214faa541313131313131314100000000000000000000000000000000000000000000001ba054662a5e983feefefe3fb81f6f2b48f6087c9de79688cec4f087e5b7158c95cea039f5fb2b46445bee550eab22eaa6da9f9c157587b52190f3d649a080eb690f64",
      "networkId": 0,
      "chainId": 0
    }
  ]
}