{
  "hash": "0x6ff7104a256315dcc9c14063b14bd07d6f4d8783775afbf65800a3cb85ee9607",
  "parentHash": "0x8f97caa3326e6b20ad057beeb08eabbd16ec82bb5c647c0396813894e77f2561",
  "number": 83572,
  "timestamp": 1439537525,
  "nonce": "0xd2628faba8cd27cb",
  "difficulty": 2432480270212,
  "gasLimit": {
    "_hex": "0x2fefd8"
  },
  "gasUsed": {
    "_hex": "0x5208"
  },
  "miner": "0xe090Ffdced499691fA9379752a59F8A058c1eE4A",
  "extraData": "0x476574682f76312e302e312f6c696e75782f676f312e342e32",
  "transactions": [
    {
      "hash": "0x8cdceecd81943aa2ea5c0cfde5ea694a724e57694b2a8dd1553a519175992582",
      "blockHash": "0x6ff7104a256315dcc9c14063b14bd07d6f4d8783775afbf65800a3cb85ee9607",
      "blockNumber": 83572,
      "transactionIndex": 0,
      "confirmations": null,
      "from": "0xc0b9d23f8d37650D0141B559dbD33d94Ea004e07",
      "gasPrice": {
        "_hex": "0xcd82504f5"
      },
      "gasLimit": {
        "_hex": "0x5208"
      },
      "to": "0x32Be343B94f860124dC4fEe278FDCBD38C102D88",
      "value": {
        "_hex": "0x681518694d1ff0000"
      },
      "nonce": 11,
      "data": "0x",
      "r": "0x675640444353d79c3f72ef33ea12a31b6353eb3c62b6761b6e355c5a02037a6d",
      "s": "0x0ff5f384791cb237e1c23f65fa55967f6912d60c6eaf659623f74cd1feada0e6",
      "v": 27,
      "creates": null,
      "raw": "0xf86d0b850cd82504f58252089432be343b94f860124dc4fee278fdcbd38c102d88890681518694d1ff0000801ba0675640444353d79c3f72ef33ea12a31b6353eb3c62b6761b6e355c5a02037a6da00ff5f384791cb237e1c23f65fa55967f6912d60c6eaf659623f74cd1feada0e6",
      "networkId": 0,
      "chainId": 0
    }
  ]
}