{
  "hash": "0xca6c9cc0c09ff0767a8355cfcc9848134c7e8accdcd6f59e7a333b5f50fd7bf9",
  "parentHash": "0x7c81d41a2271672dca6953891867cbb2a3b849f7a6e3a2b0cfd182accb13af83",
  "number": 104832,
  "timestamp": 1439876602,
  "nonce": "0xdbf2675f228b6d01",
  "difficulty": 4346560718618,
  "gasLimit": {
    "_hex": "0x2fefd8"
  },
  "gasUsed": {
    "_hex": "0xa410"
  },
  "miner": "0xe6A7a1d47ff21B6321162AEA7C6CB457D5476Bca",
  "extraData": "0x476574682f76312e302e312d38326566323666362f6c696e75782f676f312e34",
  "transactions": [
    {
      "hash": "0x98a679a205e612ae729749a9795d7caf5d6c9f2cd0628c6a6f8118a571ddf3bd",
      "blockHash": "0xca6c9cc0c09ff0767a8355cfcc9848134c7e8accdcd6f59e7a333b5f50fd7bf9",
      "blockNumber": 104832,
      "transactionIndex": 0,
      "confirmations": null,
      "from": "0x120A270bbC009644e35F0bB6ab13f95b8199c4ad",
      "gasPrice": {
        "_hex": "0xdca48d51f"
      },
      "gasLimit": {
        "_hex": "0x3d090"
      },
      "to": "0xCA092A957744f6385B1aee5dC694143E8A06F805",
      "value": {
        "_hex": "0x6025334b3be8000"
      },
      "nonce": 758,
      "data": "0x",
      "r": "0xf19c343a57edc88fef8932c71777ddd95aeec2f5be56b5cff6596756bc2686bc",
      "s": "0x5f6ac868f6cc8f858de469f34d46f06deded4e252eff74a135048978ea4fa35a",
      "v": 28,
      "creates": null,
      "raw": "0xf86f8202f6850dca48d51f8303d09094ca092a957744f6385b1aee5dc694143e8a06f8058806025334b3be8000801ca0f19c343a57edc88fef8932c71777ddd95aeec2f5be56b5cff6596756bc2686bca05f6ac868f6cc8f858de469f34d46f06deded4e252eff74a135048978ea4fa35a",
      "networkId": 0,
      "chainId": 0
    },
    {
      "hash": "0x87af32ec24f115426e4a7e111529836fbae390732a9328407dd960946a51329d",
      "blockHash": "0xca6c9cc0c09ff0767a8355cfcc9848134c7e8accdcd6f59e7a333b5f50fd7bf9",
      "blockNumber": 104832,
      "transactionIndex": 1,
      "confirmations": null,
      "from": "0x120A270bbC009644e35F0bB6ab13f95b8199c4ad",
      "gasPrice": {
        "_hex": "0xdca48d51f"
      },
      "gasLimit": {
        "_hex": "0x3d090"
      },
      "to": "0xCA092A957744f6385B1aee5dC694143E8A06F805",
      "value": {
        "_hex": "0x478dcaaeadea000"
      },
      "nonce": 759,
      "data": "0x",
      "r": "0x0351b247c0fe2dd4478958fa5f2dfa4dbfc5bd4af2597f1360935aa89baf0e83",
      "s": "0x5d1eaf85536aa1be7550b8c803e7040863bb7e68ba57b64036f088a50fb89748",
      "v": 28,
      "creates": null,
      "raw": "0xf86f8202f7850dca48d51f8303d09094ca092a957744f6385b1aee5dc694143e8a06f805880478dcaaeadea000801ca00351b247c0fe2dd4478958fa5f2dfa4dbfc5bd4af2597f1360935aa89baf0e83a05d1eaf85536aa1be7550b8c803e7040863bb7e68ba57b64036f088a50fb89748",
      "networkId": 0,
      "chainId": 0
    }
  ]
}