{
  "hash": "0x74820360d639420acda36add33788d9eba90b9d9e5dd7e9c106104bb1b207183",
  "parentHash": "0x08460a2444bf3938eb7ead87121d3dc10ca81d4398f3289123452c84902d4f7f",
  "number": 108252,
  "timestamp": 1439937150,
  "nonce": "0x768e1ecec7d8a91a",
  "difficulty": 4349034035994,
  "gasLimit": {
    "_hex": "0x2fefd8"
  },
  "gasUsed": {
    "_hex": "0x1d52e"
  },
  "miner": "0x76CB306530455abB4341FC10608d5FD869389acf",
  "extraData": "0xd983010001844765746887676f312e342e328777696e646f7773",
  "transactions": [
    {
      "hash": "0x7e8ce0dbc8502c57f0c3ad281c45d7482d03477cbd9d75ca18ac497d59937487",
      "blockHash": "0x74820360d639420acda36add33788d9eba90b9d9e5dd7e9c106104bb1b207183",
      "blockNumber": 108252,
      "transactionIndex": 0,
      "confirmations": null,
      "from": "0xeD3Fd00D62A795a3A07c71B4f4D94003F92f8A86",
      "gasPrice": {
        "_hex": "0xd99db8f46"
      },
      "gasLimit": {
        "_hex": "0x249f0"
      },
      "to": "0xE28e72FCf78647ADCe1F1252F240bbfaebD63BcC",
      "value": {
        "_hex": "0x8ac7230489e80000"
      },
      "nonce": 1,
      "data": "0x45466f3a",
      "r": "0xd3011e34ffacf3369f3de8b64ea5e6ffe40c78890a0fb2775be1512d4d7fff2c",
      "s": "0x006217c8ae84a2f915e12c07d8e89ff90451dc32cb7593ecc5cb7f05d8e0b466",
      "v": 28,
      "creates": null,
      "raw": "0xf87001850d99db8f46830249f094e28e72fcf78647adce1f1252f240bbfaebd63bcc888ac7230489e800008445466f3a1ca0d3011e34ffacf3369f3de8b64ea5e6ffe40c78890a0fb2775be1512d4d7fff2c9f6217c8ae84a2f915e12c07d8e89ff90451dc32cb7593ecc5cb7f05d8e0b466",
      "networkId": 0,
      "chainId": 0
    },
    {
      "hash": "0xb282088ed997e957a15cd21e25eb65ca2fe96090ac0fd7101b51fbfc08d7d8fa",
      "blockHash": "0x74820360d639420acda36add33788d9eba90b9d9e5dd7e9c106104bb1b207183",
      "blockNumber": 108252,
      "transactionIndex": 1,
      "confirmations": null,
      "from": "0xbCa6DD2fDDAf2d917006b0Aa1F8d1962BFf7FB87",
      "gasPrice": {
        "_hex": "0xd69b48315"
      },
      "gasLimit": {
        "_hex": "0x15f90"
      },
      "to": "0x6BED894B45159c6001dfbC5bd6257A10B9eF2202",
      "value": {
        "_hex": "0x5af3107a4000"
      },
      "nonce": 0,
      "data": "0x",
      "r": "0x2088f1a51fd86ae0397bbbd0730cb74f5f744e1f283a55e8e22ac033daf3ae92",
      "s": "0x096d5152eda9b7d4a795883b1c37df1e47c21ff4f2d5cbc03b6253f8b06a77ef",
      "v": 28,
      "creates": null,
      "raw": "0xf86b80850d69b4831583015f90946bed894b45159c6001dfbc5bd6257a10b9ef2202865af3107a4000801ca02088f1a51fd86ae0397bbbd0730cb74f5f744e1f283a55e8e22ac033daf3ae92a0096d5152eda9b7d4a795883b1c37df1e47c21ff4f2d5cbc03b6253f8b06a77ef",
      "networkId": 0,
      "chainId": 0
    }
  ]
}