{
  "hash": "0xac059d46ca830e671ee6b7ede20c7e89a0b161d69256ce21472f1a95559f7c34",
  "parentHash": "0x6dc99819b1ed513e483be712eb68c1dc30cbe4e7315698e497a85ffec9ac78b0",
  "number": 83341,
  "timestamp": 1439533892,
  "nonce": "0x8fb02f9957b5d091",
  "difficulty": 2419516839926,
  "gasLimit": {
    "_hex": "0x2fefd8"
  },
  "gasUsed": {
    "_hex": "0x5208"
  },
  "miner": "0x89972aA7C0b19D1aE9cd89386160c3f28f7bB590",
  "extraData": "0xd983010001844765746887676f312e342e328777696e646f7773",
  "transactions": [
    {
      "hash": "0xd5db89aa5609d9635b81d9f00dbc4135333fa0b4c3c0f69dafbb88d794877f05",
      "blockHash": "0xac059d46ca830e671ee6b7ede20c7e89a0b161d69256ce21472f1a95559f7c34",
      "blockNumber": 83341,
      "transactionIndex": 0,
      "confirmations": null,
      "from": "0xB7268c7705A1866b2A78e882fdfDc8E2a4e1428E",
      "gasPrice": {
        "_hex": "0xd28da5078"
      },
      "gasLimit": {
        "_hex": "0x15f90"
      },
      "to": "0x96811Ad897894eC178872117C8BF2f03971A393B",
      "value": {
        "_hex": "0x4563918244f40000"
      },
      "nonce": 25,
      "data": "0x",
      "r": "0xc5c4785031a2fb7e393c75f8a0aac0cac0fc9776c5d7acc1c52553343632c1f1",
      "s": "0x07c35acfb81fdf172c524f41894f8029f708d66c01413cce8ccfb67fa8d822dc",
      "v": 28,
      "creates": null,
      "raw": "0xf86d19850d28da507883015f909496811ad897894ec178872117c8bf2f03971a393b884563918244f40000801ca0c5c4785031a2fb7e393c75f8a0aac0cac0fc9776c5d7acc1c52553343632c1f1a007c35acfb81fdf172c524f41894f8029f708d66c01413cce8ccfb67fa8d822dc",
      "networkId": 0,
      "chainId": 0
    }
  ]
}