{
  "hash": "0x3fc6866ece4e7a398412f11673be4718f7be5477047ec047f223070091377ccc",
  "parentHash": "0x03b28ce9f17401eb13b78493d561fed904d8d3f1da68c111c72afe2ba2fa4c19",
  "number": 102655,
  "timestamp": 1439841180,
  "nonce": "0x31ecddbc04baadf9",
  "difficulty": 4038663971067,
  "gasLimit": {
    "_hex": "0x2fefd8"
  },
  "gasUsed": {
    "_hex": "0x18326"
  },
  "miner": "0xa70a9a7040d542C632D8e0bE7c5513A8a5Bbc752",
  "extraData": "0x",
  "transactions": [
    {
      "hash": "0xd3463fd41c87002657345579ca4a8e9caf147f387d8887f6e01be3e2df5e10dd",
      "blockHash": "0x3fc6866ece4e7a398412f11673be4718f7be5477047ec047f223070091377ccc",
      "blockNumber": 102655,
      "transactionIndex": 0,
      "confirmations": null,
      "from": "0xFfeef280ABabd07bD185B0ff831Ac17b8020d365",
      "gasPrice": {
        "_hex": "0xd969f01fb"
      },
      "gasLimit": {
        "_hex": "0x249f0"
      },
      "to": "0xE28e72FCf78647ADCe1F1252F240bbfaebD63BcC",
      "value": {
        "_hex": "0x56bc75e2d63100000"
      },
      "nonce": 3,
      "data": "0x45466f3a",
      "r": "0x5ff79aae2e0a873e51992ff0f129c7d265f89e6a5cf012fd1b5f024b50934e43",
      "s": "0x055bfcc8ad4a32cf0a6a987ba715cc77f94fae7baa0407839c4bf0afd769aa7d",
      "v": 28,
      "creates": null,
      "raw": "0xf87203850d969f01fb830249f094e28e72fcf78647adce1f1252f240bbfaebd63bcc89056bc75e2d631000008445466f3a1ca05ff79aae2e0a873e51992ff0f129c7d265f89e6a5cf012fd1b5f024b50934e43a0055bfcc8ad4a32cf0a6a987ba715cc77f94fae7baa0407839c4bf0afd769aa7d",
      "networkId": 0,
      "chainId": 0
    }
  ]
}