{
  "hash": "0xaa30e827d0f859b974be882766257d0a5ce209a3aa6609ef0b138b81be86b990",
  "parentHash": "0xe4ed918fa5fcf2b7c1fd1fdd1ec8aa94a550e0b9f831cb6880abc76ddec5b08b",
  "number": 73531,
  "timestamp": 1439370626,
  "nonce": "0xc38fbfeb55d4c703",
  "difficulty": 2225043278386,
  "gasLimit": {
    "_hex": "0x2fefd8"
  },
  "gasUsed": {
    "_hex": "0x7a83"
  },
  "miner": "0x94b7fDF01f4E5d76b2C31eEb846f91F427606C98",
  "extraData": "0x476574682f76312e302e312d38326566323666362f6c696e75782f676f312e34",
  "transactions": [
    {
      "hash": "0xea54c2ac23800ee5e78a37231fe9e03e4a948d3cfb2155e32cf9d3cc4a03eb7c",
      "blockHash": "0xaa30e827d0f859b974be882766257d0a5ce209a3aa6609ef0b138b81be86b990",
      "blockNumber": 73531,
      "transactionIndex": 0,
      "confirmations": null,
      "from": "0x008FC7CBAdFFbD0D7fe44F8DFD60a79d721a1c9C",
      "gasPrice": {
        "_hex": "0xd062c238b"
      },
      "gasLimit": {
        "_hex": "0x30d40"
      },
      "to": "0x91601CBAb0bD60A0BC314a409da5070f135BeC6E",
      "value": {
        "_hex": "0x38d7ea4c68000"
      },
      "nonce": 12,
      "data": "0x",
      "r": "0xeeee17e3787cf4785a753b7d2867b46de93f832eadb3912f54da706ca9331aa3",
      "s": "0x6d462c17590c8eff2bd0ccc962812b78f30bbeef34975ddb455d08ec0f6c4d9a",
      "v": 27,
      "creates": null,
      "raw": "0xf86c0c850d062c238b83030d409491601cbab0bd60a0bc314a409da5070f135bec6e87038d7ea4c68000801ba0eeee17e3787cf4785a753b7d2867b46de93f832eadb3912f54da706ca9331aa3a06d462c17590c8eff2bd0ccc962812b78f30bbeef34975ddb455d08ec0f6c4d9a",
      "networkId": 0,
      "chainId": 0
    }
  ]
}