{
  "hash": "0x5171a643638272a5d0f6df758db4c5d62fdcf66e6dd68e6dad9adc08fc33310a",
  "parentHash": "0x82cf6ccbb8b6250c0378128a19d4f3a8701c78573b7a64bc3a18900bd90c2009",
  "number": 83219,
  "timestamp": 1439532144,
  "nonce": "0x5dd0c056abb5bd35",
  "difficulty": 2410119088355,
  "gasLimit": {
    "_hex": "0x2fefd8"
  },
  "gasUsed": {
    "_hex": "0x5208"
  },
  "miner": "0x00bD7514616c0E4Dd28F5B351090ABAD03F104C8",
  "extraData": "0x476574682f76312e302e312f77696e646f77732f676f312e342e32",
  "transactions": [
    {
      "hash": "0x561a40be1c14374f0b64c97cb358333ac965c5754f0e0825757a6efa2e9f627c",
      "blockHash": "0x5171a643638272a5d0f6df758db4c5d62fdcf66e6dd68e6dad9adc08fc33310a",
      "blockNumber": 83219,
      "transactionIndex": 0,
      "confirmations": null,
      "from": "0x548303a76b24d477704da08a513179F39AE78C7c",
      "gasPrice": {
        "_hex": "0xffcefb77c5"
      },
      "gasLimit": {
        "_hex": "0x15f90"
      },
      "to": "0x82226e5858223d7aac5A9b3193c8c1fd4Bb4E1F3",
      "value": {
        "_hex": "0x8ac7230489e800000"
      },
      "nonce": 3,
      "data": "0x",
      "r": "0xa502cdaff3edd62bfb6c08d0433ee90a41bd3538c11609df22c64cb9732f1f91",
      "s": "0x22e8dc0efc5bfe718e37e40f62be855d80cfcbbf2e614f7c90dfaf402e6157cf",
      "v": 28,
      "creates": null,
      "raw": "0xf86e0385ffcefb77c583015f909482226e5858223d7aac5a9b3193c8c1fd4bb4e1f38908ac7230489e800000801ca0a502cdaff3edd62bfb6c08d0433ee90a41bd3538c11609df22c64cb9732f1f91a022e8dc0efc5bfe718e37e40f62be855d80cfcbbf2e614f7c90dfaf402e6157cf",
      "networkId": 0,
      "chainId": 0
    }
  ]
}