{
  "hash": "0x691a8be6e93a255c88c1599edec4d7db9c5693013e153ed4e17f1f01d0e41d80",
  "parentHash": "0x7b99ae43fea8cef78a5f707456fef20c699556de18c05c5a926fc5550e7cb85b",
  "number": 48225,
  "timestamp": 1438953766,
  "nonce": "0xfaf5e732f40807fa",
  "difficulty": 1453656498997,
  "gasLimit": {
    "_hex": "0x13f2e"
  },
  "gasUsed": {
    "_hex": "0x5208"
  },
  "miner": "0xF6e1652a0397E078f434d6DDa181b218CFd42e09",
  "extraData": "0x476574682f76312e302e312f6c696e75782f676f312e342e32",
  "transactions": [
    {
      "hash": "0x2f5095e2900a5eee56a2bf7dfa5838365d3eb7d96a67ae24e1209332345d37a9",
      "blockHash": "0x691a8be6e93a255c88c1599edec4d7db9c5693013e153ed4e17f1f01d0e41d80",
      "blockNumber": 48225,
      "transactionIndex": 0,
      "confirmations": null,
      "from": "0xad7210d76107F888745616FFF7979623b84F928c",
      "gasPrice": {
        "_hex": "0xd7d9c6c55"
      },
      "gasLimit": {
        "_hex": "0x61a8"
      },
      "to": "0xF109ca710C0Df51c1a86dBA1B0BA0Ed038114463",
      "value": {
        "_hex": "0x58788cb94b1d80000"
      },
      "nonce": 0,
      "data": "0x",
      "r": "0x9911cffc94cff950983e09f368a6829128577450d18b9604968a9e8635e48a86",
      "s": "0x2ca9bcfb47ffda80557a18b1aedd8913233b0024c35611e850f5c2972130f2fa",
      "v": 28,
      "creates": null,
      "raw": "0xf86d80850d7d9c6c558261a894f109ca710c0df51c1a86dba1b0ba0ed03811446389058788cb94b1d80000801ca09911cffc94cff950983e09f368a6829128577450d18b9604968a9e8635e48a86a02ca9bcfb47ffda80557a18b1aedd8913233b0024c35611e850f5c2972130f2fa",
      "networkId": 0,
      "chainId": 0
    }
  ]
}