{
  "hash": "0x2ae52732068422c57bff1b207c190d1045e4d22425a6fa0579448169c031d2e5",
  "parentHash": "0xfdeb929962c0b3135e8ebc0d02e153eb4c5f9fd6df20780d732e90d5f14b3b9e",
  "number": 63779,
  "timestamp": 1439209918,
  "nonce": "0x402fb8542e24621b",
  "difficulty": 1850381817919,
  "gasLimit": {
    "_hex": "0x2fefd8"
  },
  "gasUsed": {
    "_hex": "0xa410"
  },
  "miner": "0x1217627fe41A00f0b828317F43E6d58F47dBfc43",
  "extraData": "0x476574682f76312e302e302d66313265303136312f6c696e75782f676f312e34",
  "transactions": [
    {
      "hash": "0x320219229dc56eb037bf363d8ccf8e92451a0ece050767c1982ba7f3b6c695ff",
      "blockHash": "0x2ae52732068422c57bff1b207c190d1045e4d22425a6fa0579448169c031d2e5",
      "blockNumber": 63779,
      "transactionIndex": 0,
      "confirmations": null,
      "from": "0xE12517204a15E890f12755207271102F4800A0c4",
      "gasPrice": {
        "_hex": "0xd9829e279"
      },
      "gasLimit": {
        "_hex": "0x5208"
      },
      "to": "0x32Be343B94f860124dC4fEe278FDCBD38C102D88",
      "value": {
        "_hex": "0xddc5b88b03ee800"
      },
      "nonce": 0,
      "data": "0x",
      "r": "0xca9eca21a40715f2e8aabef1311c993ff6a443ad39df81b627109a306c425976",
      "s": "0x503e9a010c035d76dde3a73f5996ad0744c50d578a5946a84447bd0360f548a2",
      "v": 27,
      "creates": null,
      "raw": "0xf86c80850d9829e2798252089432be343b94f860124dc4fee278fdcbd38c102d88880ddc5b88b03ee800801ba0ca9eca21a40715f2e8aabef1311c993ff6a443ad39df81b627109a306c425976a0503e9a010c035d76dde3a73f5996ad0744c50d578a5946a84447bd0360f548a2",
      "networkId": 0,
      "chainId": 0
    },
    {
      "hash": "0x7cd4e4be4b4e483792727769e7e2097e543b7389a4294c4ed6beb2f1142fbeba",
      "blockHash": "0x2ae52732068422c57bff1b207c190d1045e4d22425a6fa0579448169c031d2e5",
      "blockNumber": 63779,
      "transactionIndex": 1,
      "confirmations": null,
      "from": "0x6ACfef6b58D6EE01D4BdB53CA81c5D6560824446",
      "gasPrice": {
        "_hex": "0xd9829e279"
      },
      "gasLimit": {
        "_hex": "0x5208"
      },
      "to": "0x32Be343B94f860124dC4fEe278FDCBD38C102D88",
      "value": {
        "_hex": "0xc6e4cbac124c480000"
      },
      "nonce": 1,
      "data": "0x",
      "r": "0x1692e4fd472c1c787748a5c01c00b2d15f0ec6739890a84d8c940cbd95060457",
      "s": "0x0acb4922c66843949c04b5d6e3041d86ea0b03c83d7ec8d1d6eada7e57d0072e",
      "v": 28,
      "creates": null,
      "raw": "0xf86d01850d9829e2798252089432be343b94f860124dc4fee278fdcbd38c102d8889c6e4cbac124c480000801ca01692e4fd472c1c787748a5c01c00b2d15f0ec6739890a84d8c940cbd95060457a00acb4922c66843949c04b5d6e3041d86ea0b03c83d7ec8d1d6eada7e57d0072e",
      "networkId": 0,
      "chainId": 0
    }
  ]
}