{
  "hash": "0xd3bbb799b16784ba8dbbd21168c7ed15d761eca644e53d6354df04bc70207287",
  "parentHash": "0x7439be98ba1046cb2c9942502568dd44d33f9b1ce3aac34b2d1ed660981a9414",
  "number": 64200,
  "timestamp": 1439216865,
  "nonce": "0xf0f91d4ee651390f",
  "difficulty": 1871185689281,
  "gasLimit": {
    "_hex": "0x2fefd8"
  },
  "gasUsed": {
    "_hex": "0x5208"
  },
  "miner": "0xf927a40C8B7F6E07c5af7FA2155B4864a4112B13",
  "extraData": "0x",
  "transactions": [
    {
      "hash": "0x40896c4187ffd302289ebcb23c2b3f2405f1b6c24fbb4b007b4d3e6976da7cd3",
      "blockHash": "0xd3bbb799b16784ba8dbbd21168c7ed15d761eca644e53d6354df04bc70207287",
      "blockNumber": 64200,
      "transactionIndex": 0,
      "confirmations": null,
      "from": "0x9746c7e1ef2bd21FF3997fa467593a89cb852BD0",
      "gasPrice": {
        "_hex": "0xd7577bd04"
      },
      "gasLimit": {
        "_hex": "0x5208"
      },
      "to": "0xB0bF4A71F730782368Ef660FE6D298F432F95450",
      "value": {
        "_hex": "0x1b1ae4d6e2ef500000"
      },
      "nonce": 14,
      "data": "0x",
      "r": "0xeb98d9de2ecbcc4ab86e8eaf9d3e80545105ca60f0f09089e15bf7f59a9ba5ff",
      "s": "0x148584a604f0fba5d0e70636877adcd6e0628b40bfacb38b117c0ad2059c0d2a",
      "v": 28,
      "creates": null,
      "raw": "0xf86d0e850d7577bd0482520894b0bf4a71f730782368ef660fe6d298f432f95450891b1ae4d6e2ef500000801ca0eb98d9de2ecbcc4ab86e8eaf9d3e80545105ca60f0f09089e15bf7f59a9ba5ffa0148584a604f0fba5d0e70636877adcd6e0628b40bfacb38b117c0ad2059c0d2a",
      "networkId": 0,
      "chainId": 0
    }
  ]
}