{
  "hash": "0xce7a299426176e9ebf8b31ab615a53c2b7ba524d049a0a8b914fd1aa5ae7cf19",
  "parentHash": "0x302d46cd54c8fa01d70e18d7ec70cd5b6166aa2d9c4a1b09014c59ed603358ee",
  "number": 111508,
  "timestamp": 1439991451,
  "nonce": "0x2eb4f6c8c43973db",
  "difficulty": 4446096648163,
  "gasLimit": {
    "_hex": "0x2fefd8"
  },
  "gasUsed": {
    "_hex": "0x5208"
  },
  "miner": "0xe6A7a1d47ff21B6321162AEA7C6CB457D5476Bca",
  "extraData": "0x476574682f76312e302e312d38326566323666362f6c696e75782f676f312e34",
  "transactions": [
    {
      "hash": "0x7786fcbc6171ee812095981ddae5da065a6554868aef7021b6e6f8a93f3f2f68",
      "blockHash": "0xce7a299426176e9ebf8b31ab615a53c2b7ba524d049a0a8b914fd1aa5ae7cf19",
      "blockNumber": 111508,
      "transactionIndex": 0,
      "confirmations": null,
      "from": "0xe63a1879EC438Fd87bc623f66301B703087d3C4c",
      "gasPrice": {
        "_hex": "0xd1f217cbf"
      },
      "gasLimit": {
        "_hex": "0x5208"
      },
      "to": "0x656Ed7fF71A6cFf2CF368297896634F9E6955e0a",
      "value": {
        "_hex": "0x1b1ae4d6e2ef5000000"
      },
      "nonce": 6,
      "data": "0x",
      "r": "0xf75cafe38986b9d35bac1f4898bc13e176cd0c46e38d3212fa3741937b981721",
      "s": "0x5134cf07e23c48d65745e5f3459679b9eb2747819519b42419269acbcd831adf",
      "v": 27,
      "creates": null,
      "raw": "0xf86e06850d1f217cbf82520894656ed7ff71a6cff2cf368297896634f9e6955e0a8a01b1ae4d6e2ef5000000801ba0f75cafe38986b9d35bac1f4898bc13e176cd0c46e38d3212fa3741937b981721a05134cf07e23c48d65745e5f3459679b9eb2747819519b42419269acbcd831adf",
      "networkId": 0,
      "chainId": 0
    }
  ]
}