{
  "hash": "0xfa7e1f419194614c0ba2a347034c49706455d0f23401e58990012869ac819386",
  "parentHash": "0x3bcac960ee76706b448b8c998c2cbd0def948f98012506d55d1d6465dbbe9168",
  "number": 47252,
  "timestamp": 1438936920,
  "nonce": "0x09f5aa9c966d120e",
  "difficulty": 1461654759014,
  "gasLimit": {
    "_hex": "0xa907"
  },
  "gasUsed": {
    "_hex": "0x5208"
  },
  "miner": "0xe6A7a1d47ff21B6321162AEA7C6CB457D5476Bca",
  "extraData": "0x657468706f6f6c2e6f7267",
  "transactions": [
    {
      "hash": "0x045f4e3c295e3fca2079fc608f6e872d784f2c34cdb5d5bb996dbd18da999ade",
      "blockHash": "0xfa7e1f419194614c0ba2a347034c49706455d0f23401e58990012869ac819386",
      "blockNumber": 47252,
      "transactionIndex": 0,
      "confirmations": null,
      "from": "0xe6A7a1d47ff21B6321162AEA7C6CB457D5476Bca",
      "gasPrice": {
        "_hex": "0xd225cae34"
      },
      "gasLimit": {
        "_hex": "0x5208"
      },
      "to": "0x8421b6810A1aee71B0baa38D7E1b5de6f71245d2",
      "value": {
        "_hex": "0x8747928029377750"
      },
      "nonce": 89,
      "data": "0x",
      "r": "0xef212459cb5904d2f49e12b0406ffe94e4a78fe34664927c4aeda6eb7ec2c1fc",
      "s": "0x441e670c68e1a1a357526aa40951db8d14c3c2d47415b7bad44014ace891733e",
      "v": 27,
      "creates": null,
      "raw": "0xf86c59850d225cae34825208948421b6810a1aee71b0baa38d7e1b5de6f71245d2888747928029377750801ba0ef212459cb5904d2f49e12b0406ffe94e4a78fe34664927c4aeda6eb7ec2c1fca0441e670c68e1a1a357526aa40951db8d14c3c2d47415b7bad44014ace891733e",
      "networkId": 0,
      "chainId": 0
    }
  ]
}