{
  "hash": "0xbc1dcb0ad95fed4bdc17eef27b77d73ec83f0cf187aa3b835e7505940fe5f1db",
  "parentHash": "0x60b0eda25690a440dce62ac6927b31200b146b250abf99ca780a14c03399691f",
  "number": 119201,
  "timestamp": 1440138422,
  "nonce": "0x07fc73526811c118",
  "difficulty": 4439852677174,
  "gasLimit": {
    "_hex": "0x2fefd8"
  },
  "gasUsed": {
    "_hex": "0x5208"
  },
  "miner": "0x9746c7e1ef2bd21FF3997fa467593a89cb852BD0",
  "extraData": "0x476574682f76312e302e312f77696e646f77732f676f312e342e32",
  "transactions": [
    {
      "hash": "0x9df23a6db1db1449533bb789080f8ac177f2146893307f219bf6c8768df96f28",
      "blockHash": "0xbc1dcb0ad95fed4bdc17eef27b77d73ec83f0cf187aa3b835e7505940fe5f1db",
      "blockNumber": 119201,
      "transactionIndex": 0,
      "confirmations": null,
      "from": "0x007f7f58D3eb5b7510A301eCC749FC1fCDDBE14D",
      "gasPrice": {
        "_hex": "0xba43b7400"
      },
      "gasLimit": {
        "_hex": "0x15f90"
      },
      "to": "0xb1abce2918E21ddb93AA452731a12672A3d9F75a",
      "value": {
        "_hex": "0x4563918244f40000"
      },
      "nonce": 356,
      "data": "0x",
      "r": "0xfc9afd4c038c5816a4c677db44b914f07aa392b81a99ba7831cb526fff39a807",
      "s": "0x01a3dbd60d2bf64330dbc02a9d1efc8d8a0e643f42ea15043df596bcf2576af3",
      "v": 28,
      "creates": null,
      "raw": "0xf86f820164850ba43b740083015f9094b1abce2918e21ddb93aa452731a12672a3d9f75a884563918244f40000801ca0fc9afd4c038c5816a4c677db44b914f07aa392b81a99ba7831cb526fff39a807a001a3dbd60d2bf64330dbc02a9d1efc8d8a0e643f42ea15043df596bcf2576af3",
      "networkId": 0,
      "chainId": 0
    }
  ]
}