{
  "hash": "0xa747257ca58aad407e77bdd902709a6a4bcfb16674ad7daed57a02d1a0deedef",
  "parentHash": "0x564e474ad421f425bc7dc28e4a045823ffb320495e4bd1a235348322fc5f7b84",
  "number": 121916,
  "timestamp": 1440184896,
  "nonce": "0xb8257e37fd0dc9d6",
  "difficulty": 4475411593620,
  "gasLimit": {
    "_hex": "0x2fefd8"
  },
  "gasUsed": {
    "_hex": "0x5208"
  },
  "miner": "0x88D74a59454F6cF3B51ef6b9136AFb6b9D405A88",
  "extraData": "0x",
  "transactions": [
    {
      "hash": "0xa37ad1aeede38cec3e8916a9bd2b2920b1a43c1fda2fef7561a38253b5696609",
      "blockHash": "0xa747257ca58aad407e77bdd902709a6a4bcfb16674ad7daed57a02d1a0deedef",
      "blockNumber": 121916,
      "transactionIndex": 0,
      "confirmations": null,
      "from": "0x0dd48f729D5084545452A08F5E5AB412d7c2888a",
      "gasPrice": {
        "_hex": "0xba43b7400"
      },
      "gasLimit": {
        "_hex": "0x15f90"
      },
      "to": "0x2533B90f7afF15196EaA7e4719E057c85dEF3A47",
      "value": {
        "_hex": "0x11c5b1a7077c10000"
      },
      "nonce": 9,
      "data": "0x",
      "r": "0x429590b7347296cd9e96ecc4733477580dd19c573d3e76b4bd464710296453e6",
      "s": "0x2979a8df3ac9881bb68ac12817ec49af0e01c2f092e4f3444c57cd8a395ac8b6",
      "v": 28,
      "creates": null,
      "raw": "0xf86e09850ba43b740083015f90942533b90f7aff15196eaa7e4719e057c85def3a4789011c5b1a7077c10000801ca0429590b7347296cd9e96ecc4733477580dd19c573d3e76b4bd464710296453e6a02979a8df3ac9881bb68ac12817ec49af0e01c2f092e4f3444c57cd8a395ac8b6",
      "networkId": 0,
      "chainId": 0
    }
  ]
}