{
  "hash": "0x720dc5c71731af1e663ff6d4dbb20bfce4d85626ddd2d05b6cbeee0c37b0596c",
  "parentHash": "0x5a012945e457fb565bcc8aac95f5a759cdc5fc28780dfac1ef017539577cb587",
  "number": 53941,
  "timestamp": 1439046099,
  "nonce": "0x9f2b19c494afe68a",
  "difficulty": 1604817572533,
  "gasLimit": {
    "_hex": "0x2fefd8"
  },
  "gasUsed": {
    "_hex": "0xf618"
  },
  "miner": "0x5B3e850E39e6f2C7dD38707b649e2B3536F14C0b",
  "extraData": "0x476574682f76312e302e312f64617277696e2f676f312e342e32",
  "transactions": [
    {
      "hash": "0x84e47690e7103fa67baad7696f48e0b52e58b92105ad70dad6ccdc952e29e4b1",
      "blockHash": "0x720dc5c71731af1e663ff6d4dbb20bfce4d85626ddd2d05b6cbeee0c37b0596c",
      "blockNumber": 53941,
      "transactionIndex": 0,
      "confirmations": null,
      "from": "0x893608751d68D046E85802926673CDf2f57f7cB8",
      "gasPrice": {
        "_hex": "0xd8364fc25"
      },
      "gasLimit": {
        "_hex": "0x15f90"
      },
      "to": "0xeEdc88E60ca35E52381d99aE64711EB55960b67F",
      "value": {
        "_hex": "0xde0b6b3a7640000"
      },
      "nonce": 0,
      "data": "0x",
      "r": "0x5574522b80e91a7628dfef3245993bd548811b5db4e65961da37b903aaa2a7eb",
      "s": "0x268111e783efbecd60c707c97aa4a1ad5f6e5eac22760862f0bc01d976c7dee8",
      "v": 27,
      "creates": null,
      "raw": "0xf86d80850d8364fc2583015f9094eedc88e60ca35e52381d99ae64711eb55960b67f880de0b6b3a7640000801ba05574522b80e91a7628dfef3245993bd548811b5db4e65961da37b903aaa2a7eba0268111e783efbecd60c707c97aa4a1ad5f6e5eac22760862f0bc01d976c7dee8",
      "networkId": 0,
      "chainId": 0
    },
    {
      "hash": "0x4fa532b2fe72365034f2e5cf092cc3a37e91320e787bace8aac59bd828af60da",
      "blockHash": "0x720dc5c71731af1e663ff6d4dbb20bfce4d85626ddd2d05b6cbeee0c37b0596c",
      "blockNumber": 53941,
      "transactionIndex": 1,
      "confirmations": null,
      "from": "0x32Be343B94f860124dC4fEe278FDCBD38C102D88",
      "gasPrice": {
        "_hex": "0xd330ec8c8"
      },
      "gasLimit": {
        "_hex": "0x5208"
      },
      "to": "0xAd7F5C601260b460ADAC6A54411Ca6Cf07dC83c3",
      "value": {
        "_hex": "0x3085de7c9c24640000"
      },
      "nonce": 44,
      "data": "0x",
      "r": "0xf06616140124d37b1246116ce6a72710b85a578576e70462af5f7a57171a3c1d",
      "s": "0x582376293b254a70e22620e7f39c33abfe57c5e8114f63e8683c60198b78b11d",
      "v": 28,
      "creates": null,
      "raw": "0xf86d2c850d330ec8c882520894ad7f5c601260b460adac6a54411ca6cf07dc83c3893085de7c9c24640000801ca0f06616140124d37b1246116ce6a72710b85a578576e70462af5f7a57171a3c1da0582376293b254a70e22620e7f39c33abfe57c5e8114f63e8683c60198b78b11d",
      "networkId": 0,
      "chainId": 0
    },
    {
      "hash": "0xc7280fb7a56b152ecb1050f07fb836d977cacea26777a7eaa8859750bddd3c8b",
      "blockHash": "0x720dc5c71731af1e663ff6d4dbb20bfce4d85626ddd2d05b6cbeee0c37b0596c",
      "blockNumber": 53941,
      "transactionIndex": 2,
      "confirmations": null,
      "from": "0x32Be343B94f860124dC4fEe278FDCBD38C102D88",
      "gasPrice": {
        "_hex": "0xd330ec8c8"
      },
      "gasLimit": {
        "_hex": "0x5208"
      },
      "to": "0x18df227A7F09E1B87C42357A2402b6aB76128ca2",
      "value": {
        "_hex": "0x1b1abd2e3021a30000"
      },
      "nonce": 45,
      "data": "0x",
      "r": "0xe14b6672c06c31d510be5ea73b3986c0af443e589a92e447354545f5cf50b0a9",
      "s": "0x03b86e517218c184ed6e80f23f61393a2899ae6575149abec239ec4fb3bafccf",
      "v": 27,
      "creates": null,
      "raw": "0xf86d2d850d330ec8c88252089418df227a7f09e1b87c42357a2402b6ab76128ca2891b1abd2e3021a30000801ba0e14b6672c06c31d510be5ea73b3986c0af443e589a92e447354545f5cf50b0a9a003b86e517218c184ed6e80f23f61393a2899ae6575149abec239ec4fb3bafccf",
      "networkId": 0,
      "chainId": 0
    }
  ]
}