{
  "hash": "0xe48ac54da0242c8dc83498a5dc43f521ac7290f9e4dc718ce35c77cbe549b0ac",
  "parentHash": "0x421c077008026f023b29eee175897b5738d2a34ddaef0c2121e6df8464032a7f",
  "number": 118519,
  "timestamp": 1440127331,
  "nonce": "0xcccc4be77fc311eb",
  "difficulty": 4299401946279,
  "gasLimit": {
    "_hex": "0x2fefd8"
  },
  "gasUsed": {
    "_hex": "0x5208"
  },
  "miner": "0xe6A7a1d47ff21B6321162AEA7C6CB457D5476Bca",
  "extraData": "0xd783010002844765746887676f312e342e32856c696e7578",
  "transactions": [
    {
      "hash": "0x66084068c3507be2e006ccfd40c780009f598a91f6e6acd248d05e7e908d9bff",
      "blockHash": "0xe48ac54da0242c8dc83498a5dc43f521ac7290f9e4dc718ce35c77cbe549b0ac",
      "blockNumber": 118519,
      "transactionIndex": 0,
      "confirmations": null,
      "from": "0x007f7f58D3eb5b7510A301eCC749FC1fCDDBE14D",
      "gasPrice": {
        "_hex": "0xba43b7400"
      },
      "gasLimit": {
        "_hex": "0x15f90"
      },
      "to": "0xb1abce2918E21ddb93AA452731a12672A3d9F75a",
      "value": {
        "_hex": "0x4563918244f40000"
      },
      "nonce": 344,
      "data": "0x",
      "r": "0x5e2e1fce61731a55c7e5ca6a6896238d3ff58b0d274cfa7b325f92f82aba807c",
      "s": "0x20392e31972c59e19dbc75f56c4f7636ddbb5679fe9a47f6fb1bedf9e2c2695d",
      "v": 28,
      "creates": null,
      "raw": "0xf86f820158850ba43b740083015f9094b1abce2918e21ddb93aa452731a12672a3d9f75a884563918244f40000801ca05e2e1fce61731a55c7e5ca6a6896238d3ff58b0d274cfa7b325f92f82aba807ca020392e31972c59e19dbc75f56c4f7636ddbb5679fe9a47f6fb1bedf9e2c2695d",
      "networkId": 0,
      "chainId": 0
    }
  ]
}