{
  "hash": "0xd20d071ceb4c224524cc752d2d2f0ad00a672a8f7fe2a45cfe94ef4670a9345d",
  "parentHash": "0xfcaa04f7e22c44e145d4d7ba6dcf9ebebc869dded9cbf5574d5ca42b46a76fa1",
  "number": 107684,
  "timestamp": 1439926861,
  "nonce": "0xe751e861e6e5f34e",
  "difficulty": 4379162117342,
  "gasLimit": {
    "_hex": "0x2fefd8"
  },
  "gasUsed": {
    "_hex": "0x5208"
  },
  "miner": "0xe6A7a1d47ff21B6321162AEA7C6CB457D5476Bca",
  "extraData": "0x476574682f76312e302e312d38326566323666362f6c696e75782f676f312e34",
  "transactions": [
    {
      "hash": "0xe10ea63b00fffd832c5c434700ce55619781f34be7b7ddbb56e5cf27123eb911",
      "blockHash": "0xd20d071ceb4c224524cc752d2d2f0ad00a672a8f7fe2a45cfe94ef4670a9345d",
      "blockNumber": 107684,
      "transactionIndex": 0,
      "confirmations": null,
      "from": "0xBaA949Dbf5dbaE91Bf1cf03fC3bD9E30d0237Fd6",
      "gasPrice": {
        "_hex": "0xd0a80fe32"
      },
      "gasLimit": {
        "_hex": "0x5208"
      },
      "to": "0x32Be343B94f860124dC4fEe278FDCBD38C102D88",
      "value": {
        "_hex": "0xe000fdfb3d20400"
      },
      "nonce": 0,
      "data": "0x",
      "r": "0x667d85365568302042f8e9416b1d485c23b9298fd5c53a305556eec5a7d25f69",
      "s": "0x47957de5a2cdc3f1f5867e56678c6700dcffd8c8ff6c831cc8e9b352448cf2fa",
      "v": 28,
      "creates": null,
      "raw": "0xf86c80850d0a80fe328252089432be343b94f860124dc4fee278fdcbd38c102d88880e000fdfb3d20400801ca0667d85365568302042f8e9416b1d485c23b9298fd5c53a305556eec5a7d25f69a047957de5a2cdc3f1f5867e56678c6700dcffd8c8ff6c831cc8e9b352448cf2fa",
      "networkId": 0,
      "chainId": 0
    }
  ]
}