{
  "hash": "0xab5fd658f7527822c7d713850f2ca483740d164cae490b89b565c6ba56ab4796",
  "parentHash": "0xcc0e24b14e9ecacdb8cf8e71c9050612043a5e1cf0601852e265920b288071f9",
  "number": 105270,
  "timestamp": 1439884672,
  "nonce": "0x06f1693aceca247b",
  "difficulty": 4359085846048,
  "gasLimit": {
    "_hex": "0x2fefd8"
  },
  "gasUsed": {
    "_hex": "0x5208"
  },
  "miner": "0x0eDEd3DA479d0beF8eeC92A76644D3f4E3C177f7",
  "extraData": "0x476574682f76312e302e312f6c696e75782f676f312e342e32",
  "transactions": [
    {
      "hash": "0xa187ea6fd2a80c427d1887728009626815df25a55d0751a14115d087fe8693bf",
      "blockHash": "0xab5fd658f7527822c7d713850f2ca483740d164cae490b89b565c6ba56ab4796",
      "blockNumber": 105270,
      "transactionIndex": 0,
      "confirmations": null,
      "from": "0x32Be343B94f860124dC4fEe278FDCBD38C102D88",
      "gasPrice": {
        "_hex": "0xd82063d39"
      },
      "gasLimit": {
        "_hex": "0x5208"
      },
      "to": "0x0F87Fb507513e749081E34373c84E95e85b5c057",
      "value": {
        "_hex": "0x6c744aafb085b40000"
      },
      "nonce": 1166,
      "data": "0x",
      "r": "0xe1044ba80877b13f6325e1afa0e3a4169b72e534b677d85069c47b700262a5c9",
      "s": "0x0373e4933c75d2ec58dce1cf0e3c3f0a066cc7cef4e3c0dd93b7312a5c189cb9",
      "v": 28,
      "creates": null,
      "raw": "0xf86f82048e850d82063d39825208940f87fb507513e749081e34373c84e95e85b5c057896c744aafb085b40000801ca0e1044ba80877b13f6325e1afa0e3a4169b72e534b677d85069c47b700262a5c9a00373e4933c75d2ec58dce1cf0e3c3f0a066cc7cef4e3c0dd93b7312a5c189cb9",
      "networkId": 0,
      "chainId": 0
    }
  ]
}