{
  "hash": "0x341f22b0b8015135c214fb73ed4f2fd99d7cf7aeac2e4b7dad72bd2c30b5f9b2",
  "parentHash": "0xaa6d5742f194331980fbfcc7bd129b3a4dbc30e7b4eac7a71acf84cd141964a8",
  "number": 60840,
  "timestamp": 1439162541,
  "nonce": "0xbb6aeb5cf611ef06",
  "difficulty": 1732948664651,
  "gasLimit": {
    "_hex": "0x2fefd8"
  },
  "gasUsed": {
    "_hex": "0x13005"
  },
  "miner": "0x93641e54c9aA6F9038FE7Adb03629a1747326Cd6",
  "extraData": "0x476574682f76312e302e312f77696e646f77732f676f312e342e32",
  "transactions": [
    {
      "hash": "0xa300dfdd7cbd96259230053bd3e31f43030d3bdd2c7d4d813d5c41e09415f324",
      "blockHash": "0x341f22b0b8015135c214fb73ed4f2fd99d7cf7aeac2e4b7dad72bd2c30b5f9b2",
      "blockNumber": 60840,
      "transactionIndex": 0,
      "confirmations": null,
      "from": "0x120A270bbC009644e35F0bB6ab13f95b8199c4ad",
      "gasPrice": {
        "_hex": "0xdeb42be82"
      },
      "gasLimit": {
        "_hex": "0x15f90"
      },
      "to": "0x59B0919d408f6c5c498E72e52f5e06B37f82f8de",
      "value": {
        "_hex": "0x8ac7230489e80000"
      },
      "nonce": 53,
      "data": "0x",
      "r": "0x3c861ce8200c954f7a950527bf4965648055e648b1577d736dbb37d51eaf6f1e",
      "s": "0x7464bb7fb652344be5521f77a84e388f224681a251abbdab8282a1c474a3cb0c",
      "v": 28,
      "creates": null,
      "raw": "0xf86d35850deb42be8283015f909459b0919d408f6c5c498e72e52f5e06b37f82f8de888ac7230489e80000801ca03c861ce8200c954f7a950527bf4965648055e648b1577d736dbb37d51eaf6f1ea07464bb7fb652344be5521f77a84e388f224681a251abbdab8282a1c474a3cb0c",
      "networkId": 0,
      "chainId": 0
    },
    {
      "hash": "0xfc571d854303101cf99cec929d26b343f05c8f21384f75cae5d21fa6084f9ba9",
      "blockHash": "0x341f22b0b8015135c214fb73ed4f2fd99d7cf7aeac2e4b7dad72bd2c30b5f9b2",
      "blockNumber": 60840,
      "transactionIndex": 1,
      "confirmations": null,
      "from": "0x772839bE0F739D21E2CB761CDA4B3F49A6502481",
      "gasPrice": {
        "_hex": "0xd7d40ace3"
      },
      "gasLimit": {
        "_hex": "0x61a80"
      },
      "to": "0x020522bF9B8eD6FF41E2fa6765a17E20E2767D64",
      "value": {
        "_hex": "0x56bc75e2d63100000"
      },
      "nonce": 3,
      "data": "0x",
      "r": "0x6f370c49f2cf7cfc2f9c9cc68f7e1d47f5e00d736701f76e6c9ed17c8078bf51",
      "s": "0x37ea45a15c53e1fef84ba2a0e27e15b98992d96fd74ee4833bfa35a2dd6ff44a",
      "v": 27,
      "creates": null,
      "raw": "0xf86e03850d7d40ace383061a8094020522bf9b8ed6ff41e2fa6765a17e20e2767d6489056bc75e2d63100000801ba06f370c49f2cf7cfc2f9c9cc68f7e1d47f5e00d736701f76e6c9ed17c8078bf51a037ea45a15c53e1fef84ba2a0e27e15b98992d96fd74ee4833bfa35a2dd6ff44a",
      "networkId": 0,
      "chainId": 0
    }
  ]
}