{
  "hash": "0xb6d27fae14c817179d9a5288d8d3aca107754b695c538ae81deb35c8e6f48efb",
  "parentHash": "0x50a8e922e90a709014876aaf029e214707847f51b12409f0aad862676cd6e868",
  "number": 89215,
  "timestamp": 1439619930,
  "nonce": "0x2e33407a3f219666",
  "difficulty": 3291888480326,
  "gasLimit": {
    "_hex": "0x2fefd8"
  },
  "gasUsed": {
    "_hex": "0x5208"
  },
  "miner": "0xe6A7a1d47ff21B6321162AEA7C6CB457D5476Bca",
  "extraData": "0x476574682f76312e302e312d38326566323666362f6c696e75782f676f312e34",
  "transactions": [
    {
      "hash": "0x160d6e299c72dbe1376b9f5bf94ff6570dadb93ea0518cf91025a8a3ef02bbe4",
      "blockHash": "0xb6d27fae14c817179d9a5288d8d3aca107754b695c538ae81deb35c8e6f48efb",
      "blockNumber": 89215,
      "transactionIndex": 0,
      "confirmations": null,
      "from": "0xA5fb3E4399E8F18643f969D0Ce65CC352fc252C6",
      "gasPrice": {
        "_hex": "0xccbb36df6"
      },
      "gasLimit": {
        "_hex": "0x5208"
      },
      "to": "0x32Be343B94f860124dC4fEe278FDCBD38C102D88",
      "value": {
        "_hex": "0xa4cc37fb063af0000"
      },
      "nonce": 9,
      "data": "0x",
      "r": "0xeb7c4d744236ad94c4e69e7356384cc80a0822b024c9e746ca623a0ba1b8530c",
      "s": "0x6ce85c93438ee841d3fb4c6ed135a56c1625a590408eb5a5b6d8a6caf087f8c6",
      "v": 27,
      "creates": null,
      "raw": "0xf86d09850ccbb36df68252089432be343b94f860124dc4fee278fdcbd38c102d88890a4cc37fb063af0000801ba0eb7c4d744236ad94c4e69e7356384cc80a0822b024c9e746ca623a0ba1b8530ca06ce85c93438ee841d3fb4c6ed135a56c1625a590408eb5a5b6d8a6caf087f8c6",
      "networkId": 0,
      "chainId": 0
    }
  ]
}