{
  "hash": "0x406dacffe6dee559e658336ee46da82f752fcf9286f0f19673ef07381e94b206",
  "parentHash": "0x75ca7241164ac37bb70f7da97d3e61127253eddf36d3223ac7ce991066d3996f",
  "number": 98367,
  "timestamp": 1439771518,
  "nonce": "0xe0a98caa836f4dbb",
  "difficulty": 3878348731148,
  "gasLimit": {
    "_hex": "0x2fefd8"
  },
  "gasUsed": {
    "_hex": "0x5208"
  },
  "miner": "0x123843545FB525C8E134c9A5F15ADA6865cc3848",
  "extraData": "0x476574682f76312e302e312f77696e646f77732f676f312e342e32",
  "transactions": [
    {
      "hash": "0x6a321520c94f3f9314fbcff67607b7a720705b6a0582010b8baa4ee390f9105c",
      "blockHash": "0x406dacffe6dee559e658336ee46da82f752fcf9286f0f19673ef07381e94b206",
      "blockNumber": 98367,
      "transactionIndex": 0,
      "confirmations": null,
      "from": "0x0422403B43601b14BDE8c376a5396C292D090dFB",
      "gasPrice": {
        "_hex": "0xd57ac1d92"
      },
      "gasLimit": {
        "_hex": "0x5208"
      },
      "to": "0x32Be343B94f860124dC4fEe278FDCBD38C102D88",
      "value": {
        "_hex": "0x3627f68030ff8c0000"
      },
      "nonce": 2,
      "data": "0x",
      "r": "0xca16483ae6f062282cb82719d4fae00a0f44e8241ee1ac21f4133237b5e9f7a5",
      "s": "0x2060ea7b0f0c6d1aa1215272d35365b757fa1ceb85ecae08f468cc1dc9a26e62",
      "v": 27,
      "creates": null,
      "raw": "0xf86d02850d57ac1d928252089432be343b94f860124dc4fee278fdcbd38c102d88893627f68030ff8c0000801ba0ca16483ae6f062282cb82719d4fae00a0f44e8241ee1ac21f4133237b5e9f7a5a02060ea7b0f0c6d1aa1215272d35365b757fa1ceb85ecae08f468cc1dc9a26e62",
      "networkId": 0,
      "chainId": 0
    }
  ]
}