{
  "hash": "0x3a46aa77e15ed25a8c1545c38993f2707fb77e8104c5715a2e9178939bee0f27",
  "parentHash": "0x36ce8e47d8c49aa1fb4ad245bc8afd87f66d1ec8708cd02d02f25dcb501692fd",
  "number": 64732,
  "timestamp": 1439225483,
  "nonce": "0xd80ee7ba4439949c",
  "difficulty": 1889428674584,
  "gasLimit": {
    "_hex": "0x2fe3db"
  },
  "gasUsed": {
    "_hex": "0x1627c"
  },
  "miner": "0x47ff6576639c2e94762eA5443978D7681C0E78DC",
  "extraData": "0x476574682f76312e302e312f6c696e75782f676f312e342e32",
  "transactions": [
    {
      "hash": "0x03f5b80b96273cff7124dcdce5f30be56d95fad7c187e0b18863ff7e47c3a70d",
      "blockHash": "0x3a46aa77e15ed25a8c1545c38993f2707fb77e8104c5715a2e9178939bee0f27",
      "blockNumber": 64732,
      "transactionIndex": 0,
      "confirmations": null,
      "from": "0xD2883586F46d3ae001F84C548013D9447051c0C3",
      "gasPrice": {
        "_hex": "0xddf2e4073"
      },
      "gasLimit": {
        "_hex": "0x5208"
      },
      "to": "0x32Be343B94f860124dC4fEe278FDCBD38C102D88",
      "value": {
        "_hex": "0x27301fdf3ba2e400"
      },
      "nonce": 0,
      "data": "0x",
      "r": "0x90214e7f756bbf3bb50d47a05a7d8c15ac0adc95a82e4f53d2c4fb6d5f7f7527",
      "s": "0x68716ef480370761fab5f89a8c934b8a0a0998412d79bc9be2350ad58180fb7f",
      "v": 27,
      "creates": null,
      "raw": "0xf86c80850ddf2e40738252089432be343b94f860124dc4fee278fdcbd38c102d888827301fdf3ba2e400801ba090214e7f756bbf3bb50d47a05a7d8c15ac0adc95a82e4f53d2c4fb6d5f7f7527a068716ef480370761fab5f89a8c934b8a0a0998412d79bc9be2350ad58180fb7f",
      "networkId": 0,
      "chainId": 0
    },
    {
      "hash": "0x9a25db1b849ac6ba78b75174383ae6a198b4f0f4270484ac3f8f3ddab00600c0",
      "blockHash": "0x3a46aa77e15ed25a8c1545c38993f2707fb77e8104c5715a2e9178939bee0f27",
      "blockNumber": 64732,
      "transactionIndex": 1,
      "confirmations": null,
      "from": "0xFD7c9117BbEB649d9b37B3D3C9917f7c12f526B3",
      "gasPrice": {
        "_hex": "0xddf2e4073"
      },
      "gasLimit": {
        "_hex": "0x5208"
      },
      "to": "0x32Be343B94f860124dC4fEe278FDCBD38C102D88",
      "value": {
        "_hex": "0x8ac2b118268c9000"
      },
      "nonce": 3,
      "data": "0x",
      "r": "0xcccc2805b49a15826cd4267a5f820826d0db4a4ded196a3499537b6cd1901eaa",
      "s": "0x7a5d3cb1a3f872f6ccaff8258cebee33ed3d3e4a4a0f17f1e0fff4dacc1acc0c",
      "v": 28,
      "creates": null,
      "raw": "0xf86c03850ddf2e40738252089432be343b94f860124dc4fee278fdcbd38c102d88888ac2b118268c9000801ca0cccc2805b49a15826cd4267a5f820826d0db4a4ded196a3499537b6cd1901eaaa07a5d3cb1a3f872f6ccaff8258cebee33ed3d3e4a4a0f17f1e0fff4dacc1acc0c",
      "networkId": 0,
      "chainId": 0
    },
    {
      "hash": "0x12cbaaff7a240e0561431ff5a3595d3701366aa5c31d31799a03b601de0fd3fd",
      "blockHash": "0x3a46aa77e15ed25a8c1545c38993f2707fb77e8104c5715a2e9178939bee0f27",
      "blockNumber": 64732,
      "transactionIndex": 2,
      "confirmations": null,
      "from": "0x92107cEf488c90F2C2B3f103c1a2F50E41e45051",
      "gasPrice": {
        "_hex": "0xba43b7400"
      },
      "gasLimit": {
        "_hex": "0x15f90"
      },
      "to": "0x793AE8C1b1a160BFc07BFB0d04F85eab1A71F4f2",
      "value": {
        "_hex": "0x0"
      },
      "nonce": 0,
      "data": "0x3ba15036",
      "r": "0x32565d21afb58548d20e6aef39a71ddb6e51d2badd6003969bb4c97d9a0afe1b",
      "s": "0x7842ab49e5d541120548597c215504a4eb291834a2931dbfa88bd09e002aad9b",
      "v": 28,
      "creates": null,
      "raw": "0xf86980850ba43b740083015f9094793ae8c1b1a160bfc07bfb0d04f85eab1a71f4f280843ba150361ca032565d21afb58548d20e6aef39a71ddb6e51d2badd6003969bb4c97d9a0afe1ba07842ab49e5d541120548597c215504a4eb291834a2931dbfa88bd09e002aad9b",
      "networkId": 0,
      "chainId": 0
    }
  ]
}