{
  "hash": "0x35075a6a8c49a670021495ebb8fb8904f58e9d0161dea7fa3e9d83c2dd3a440c",
  "parentHash": "0x926635a4ff9c6843956e6d007b0ab9bc221c6120a08938a534b10268992ea26b",
  "number": 93275,
  "timestamp": 1439686756,
  "nonce": "0x335c3fe6f6bf0cfa",
  "difficulty": 3557657855853,
  "gasLimit": {
    "_hex": "0x2fefd8"
  },
  "gasUsed": {
    "_hex": "0xe1d6"
  },
  "miner": "0xf927a40C8B7F6E07c5af7FA2155B4864a4112B13",
  "extraData": "0x",
  "transactions": [
    {
      "hash": "0x3cee49689b48f254bf661123f428c9edc940c15208e4ddf6820bfb2f791bc54e",
      "blockHash": "0x35075a6a8c49a670021495ebb8fb8904f58e9d0161dea7fa3e9d83c2dd3a440c",
      "blockNumber": 93275,
      "transactionIndex": 0,
      "confirmations": null,
      "from": "0xFBb1b73C4f0BDa4f67dcA266ce6Ef42f520fBB98",
      "gasPrice": {
        "_hex": "0xd264962b2"
      },
      "gasLimit": {
        "_hex": "0x15f90"
      },
      "to": "0xCAc7000C7dBaa2E33Af15325AF5D435E011C7BdD",
      "value": {
        "_hex": "0x0"
      },
      "nonce": 54,
      "data": "0x3feb1bd842495454524558303000000000000000000000000000000000000000000000000000000000000000000000006a8e07b95462c39fb93748460ff696dd331eab8c0000000000000000000000000000000000000000000000000dbd2fc137a30000",
      "r": "0x37fb660ba7f505feeffc4f3af485c8e68623015a4422b0214f400348dd8151c1",
      "s": "0x4f421a3230c103c31b7a93bf8e787e93b015f13e3d3232ff9188a72d1525bcf5",
      "v": 27,
      "creates": null,
      "raw": "0xf8ca36850d264962b283015f9094cac7000c7dbaa2e33af15325af5d435e011c7bdd80b8643feb1bd842495454524558303000000000000000000000000000000000000000000000000000000000000000000000006a8e07b95462c39fb93748460ff696dd331eab8c0000000000000000000000000000000000000000000000000dbd2fc137a300001ba037fb660ba7f505feeffc4f3af485c8e68623015a4422b0214f400348dd8151c1a04f421a3230c103c31b7a93bf8e787e93b015f13e3d3232ff9188a72d1525bcf5",
      "networkId": 0,
      "chainId": 0
    }
  ]
}