{
  "hash": "0x4b9419bbd5000b97a2330ce61a07a5ad69de66117bf0f1cb73fc53154722386b",
  "parentHash": "0xc11bfc01f8e1d3ca8c30c48a215376a60b9163d37e4f6a4efbe85fe4a52649d7",
  "number": 47490,
  "timestamp": 1438941440,
  "nonce": "0x5480a0ad83624a56",
  "difficulty": 1445996394545,
  "gasLimit": {
    "_hex": "0xc5b0"
  },
  "gasUsed": {
    "_hex": "0xa410"
  },
  "miner": "0x0037ce3d4B7f8729C8607D8D0248252Be68202c0",
  "extraData": "0x476574682f76312e302e312f77696e646f77732f676f312e342e32",
  "transactions": [
    {
      "hash": "0xef9e0ba92e63900598af4319e18bf5b8893ae11529c7b3c201900019e1a3c759",
      "blockHash": "0x4b9419bbd5000b97a2330ce61a07a5ad69de66117bf0f1cb73fc53154722386b",
      "blockNumber": 47490,
      "transactionIndex": 0,
      "confirmations": null,
      "from": "0x3B7Ce4d16316f594a3c5ebB7CCc4c022FC2858c6",
      "gasPrice": {
        "_hex": "0x746a528800"
      },
      "gasLimit": {
        "_hex": "0x5b04"
      },
      "to": "0x0000000000000000000000000000000000000000",
      "value": {
        "_hex": "0x1bc16d674ec80000"
      },
      "nonce": 1,
      "data": "0x",
      "r": "0x8e3eda5a2e8a7c65986002a5f2c71c6364c5315c4efe6979e0dd0c6b5cd396f0",
      "s": "0x1fe7820dcce2ce1997dd8c4b0a5d4bca26bfc3452377f7fd35963f6b6a03f340",
      "v": 28,
      "creates": null,
      "raw": "0xf86c0185746a528800825b04940000000000000000000000000000000000000000881bc16d674ec80000801ca08e3eda5a2e8a7c65986002a5f2c71c6364c5315c4efe6979e0dd0c6b5cd396f0a01fe7820dcce2ce1997dd8c4b0a5d4bca26bfc3452377f7fd35963f6b6a03f340",
      "networkId": 0,
      "chainId": 0
    },
    {
      "hash": "0x18a305a545764e9065e13d25a59e62f390ddde3d217cb7345b053c685c3c6444",
      "blockHash": "0x4b9419bbd5000b97a2330ce61a07a5ad69de66117bf0f1cb73fc53154722386b",
      "blockNumber": 47490,
      "transactionIndex": 1,
      "confirmations": null,
      "from": "0x827531A6c5817Ae35F82b00B9754FCf74c55E232",
      "gasPrice": {
        "_hex": "0x45d964b800"
      },
      "gasLimit": {
        "_hex": "0x5208"
      },
      "to": "0xa701174A7e8338D26063A01C07674cC96F1777A8",
      "value": {
        "_hex": "0x1b1ae4d6e2ef500000"
      },
      "nonce": 0,
      "data": "0x",
      "r": "0xaab71d62c31ba318b89e58cd9eb26a186d8596d883096637b7b9975e28548d39",
      "s": "0x5e37bf30fcb9623f1929da780a1e0210c4be2dac5e64c3e45aaafd7deb9cecae",
      "v": 27,
      "creates": null,
      "raw": "0xf86d808545d964b80082520894a701174a7e8338d26063a01c07674cc96f1777a8891b1ae4d6e2ef500000801ba0aab71d62c31ba318b89e58cd9eb26a186d8596d883096637b7b9975e28548d39a05e37bf30fcb9623f1929da780a1e0210c4be2dac5e64c3e45aaafd7deb9cecae",
      "networkId": 0,
      "chainId": 0
    }
  ]
}