{
  "hash": "0xeacacb224ef5cb097a91592bbbdd15645ed86adc92daa254189d1d0a683aba5a",
  "parentHash": "0x7472eff4d3701bcf774a4340c65ecee7f6582ed653439c27dc2701c01eaf70b3",
  "number": 90672,
  "timestamp": 1439643812,
  "nonce": "0x38a1d02e7d2c9c53",
  "difficulty": 3344780265028,
  "gasLimit": {
    "_hex": "0x2fefd8"
  },
  "gasUsed": {
    "_hex": "0x5208"
  },
  "miner": "0xe6A7a1d47ff21B6321162AEA7C6CB457D5476Bca",
  "extraData": "0x476574682f76312e302e312d38326566323666362f6c696e75782f676f312e34",
  "transactions": [
    {
      "hash": "0xbbb4894b22a65454a6b96f3aab8b71bba47ac1a266f2ed0e536a229db2f0211a",
      "blockHash": "0xeacacb224ef5cb097a91592bbbdd15645ed86adc92daa254189d1d0a683aba5a",
      "blockNumber": 90672,
      "transactionIndex": 0,
      "confirmations": null,
      "from": "0xC5d48ca2Db2f85D8c555cb0e9CFE826936783f9e",
      "gasPrice": {
        "_hex": "0xba43b7400"
      },
      "gasLimit": {
        "_hex": "0x5208"
      },
      "to": "0xc25F4fa317dCc3E4Fa6c1a427C41899c13b57CD7",
      "value": {
        "_hex": "0xad78b0162991c6000"
      },
      "nonce": 0,
      "data": "0x",
      "r": "0xa9bc7b0733a1c5225ba1ca46c28bb3fcce9681c3ede05f82b900186277f7ba45",
      "s": "0xb495cc657f8e65c099e20a2cb8c2c76277c7259f9bef001aa6162316bb40685e",
      "v": 27,
      "creates": null,
      "raw": "0xf86d80850ba43b740082520894c25f4fa317dcc3e4fa6c1a427c41899c13b57cd7890ad78b0162991c6000801ba0a9bc7b0733a1c5225ba1ca46c28bb3fcce9681c3ede05f82b900186277f7ba45a0b495cc657f8e65c099e20a2cb8c2c76277c7259f9bef001aa6162316bb40685e",
      "networkId": 0,
      "chainId": 0
    }
  ]
}