{
  "hash": "0xfe15c16a3c393d8082e70f8d7116242d355551ce6c224fc776d8bee8da5948a5",
  "parentHash": "0xe97ff6cac5417da856c2c2b9ad2603b7b7f01427731eef65c7ab452aa41a528c",
  "number": 114160,
  "timestamp": 1440035874,
  "nonce": "0x273fc7c32c53a4a1",
  "difficulty": 4462087298834,
  "gasLimit": {
    "_hex": "0x2fefd8"
  },
  "gasUsed": {
    "_hex": "0xa410"
  },
  "miner": "0xe6A7a1d47ff21B6321162AEA7C6CB457D5476Bca",
  "extraData": "0x476574682f76312e302e312d38326566323666362f6c696e75782f676f312e34",
  "transactions": [
    {
      "hash": "0x0f6686444ecec921b2bccd02cb64be6f4fd93723850272889f0390516eb39103",
      "blockHash": "0xfe15c16a3c393d8082e70f8d7116242d355551ce6c224fc776d8bee8da5948a5",
      "blockNumber": 114160,
      "transactionIndex": 0,
      "confirmations": null,
      "from": "0x32Be343B94f860124dC4fEe278FDCBD38C102D88",
      "gasPrice": {
        "_hex": "0xcd4b2aa14"
      },
      "gasLimit": {
        "_hex": "0x5208"
      },
      "to": "0xed433C980AaED4E749B3229F3993BfB2840f2433",
      "value": {
        "_hex": "0x168af074c90670000"
      },
      "nonce": 1385,
      "data": "0x",
      "r": "0x3aa479ece8564c37cc7a911e3705a5067592aef197ce798deb85c8995f10614f",
      "s": "0x2a7d398b1b07b12d09da5f54590a5b52d524322428da990665aaccdfca7c75f0",
      "v": 28,
      "creates": null,
      "raw": "0xf86f820569850cd4b2aa1482520894ed433c980aaed4e749b3229f3993bfb2840f2433890168af074c90670000801ca03aa479ece8564c37cc7a911e3705a5067592aef197ce798deb85c8995f10614fa02a7d398b1b07b12d09da5f54590a5b52d524322428da990665aaccdfca7c75f0",
      "networkId": 0,
      "chainId": 0
    },
    {
      "hash": "0x5e17e0129f72986523611c6d622d56ed32f49566e19f7a3e1ed20b3150b2e6b5",
      "blockHash": "0xfe15c16a3c393d8082e70f8d7116242d355551ce6c224fc776d8bee8da5948a5",
      "blockNumber": 114160,
      "transactionIndex": 1,
      "confirmations": null,
      "from": "0x32Be343B94f860124dC4fEe278FDCBD38C102D88",
      "gasPrice": {
        "_hex": "0xcd4b2aa14"
      },
      "gasLimit": {
        "_hex": "0x5208"
      },
      "to": "0xEe80Ef3c49d9465c7fC2B3D7373FdbBbc3FE282f",
      "value": {
        "_hex": "0x51508afdb65e300000"
      },
      "nonce": 1386,
      "data": "0x",
      "r": "0xbc7cc7feb1530787ce3b1e7090804369d2a9bb7f969a40d4f74b1c187b64b8b0",
      "s": "0x773cff8025fff431f86092225be0ec7e3052476b866c5ebb9d882effcd661bfd",
      "v": 27,
      "creates": null,
      "raw": "0xf86f82056a850cd4b2aa1482520894ee80ef3c49d9465c7fc2b3d7373fdbbbc3fe282f8951508afdb65e300000801ba0bc7cc7feb1530787ce3b1e7090804369d2a9bb7f969a40d4f74b1c187b64b8b0a0773cff8025fff431f86092225be0ec7e3052476b866c5ebb9d882effcd661bfd",
      "networkId": 0,
      "chainId": 0
    }
  ]
}