{
  "hash": "0x2541e565adaeb2337d48d8fc6e0680a91c3b8d7be9453ddb96d2f68b985909fc",
  "parentHash": "0x48e210f2fc37ff76c4af34ab0dd1c92f332a8c368b768280474d7f7703b78c24",
  "number": 55854,
  "timestamp": 1439078135,
  "nonce": "0x7590f0e2db6bd3f0",
  "difficulty": 1609944988495,
  "gasLimit": {
    "_hex": "0x2fefd8"
  },
  "gasUsed": {
    "_hex": "0x20718"
  },
  "miner": "0xF2d2AfF1320476cb8C6b607199D23175cc595693",
  "extraData": "0x476574682f76312e302e312f77696e646f77732f676f312e342e32",
  "transactions": [
    {
      "hash": "0x6e579bc6838294f5adea3c2b164c3e44d59c5751e94b47e530939d75612e354a",
      "blockHash": "0x2541e565adaeb2337d48d8fc6e0680a91c3b8d7be9453ddb96d2f68b985909fc",
      "blockNumber": 55854,
      "transactionIndex": 0,
      "confirmations": null,
      "from": "0xe6A7a1d47ff21B6321162AEA7C6CB457D5476Bca",
      "gasPrice": {
        "_hex": "0xe000372c8"
      },
      "gasLimit": {
        "_hex": "0x55f0"
      },
      "to": "0x4adA827a479Cf31e27be19Fcf33Fb06D881057b7",
      "value": {
        "_hex": "0xe7d2ca38100bff4"
      },
      "nonce": 251,
      "data": "0x",
      "r": "0x894da4e0656e1083a9f789b42241d6dd015dedbd41e9bcc092943d9cda9eb9c7",
      "s": "0x048e6ae5a7fe2833e0508fbb4cb5e8948a7142189e97f70fd3975510e79ef5d7",
      "v": 27,
      "creates": null,
      "raw": "0xf86d81fb850e000372c88255f0944ada827a479cf31e27be19fcf33fb06d881057b7880e7d2ca38100bff4801ba0894da4e0656e1083a9f789b42241d6dd015dedbd41e9bcc092943d9cda9eb9c7a0048e6ae5a7fe2833e0508fbb4cb5e8948a7142189e97f70fd3975510e79ef5d7",
      "networkId": 0,
      "chainId": 0
    },
    {
      "hash": "0x08370bcd63fc4897106e2de060a9cf56b8acfd86bb4215d581e840559decbd5b",
      "blockHash": "0x2541e565adaeb2337d48d8fc6e0680a91c3b8d7be9453ddb96d2f68b985909fc",
      "blockNumber": 55854,
      "transactionIndex": 1,
      "confirmations": null,
      "from": "0xe6A7a1d47ff21B6321162AEA7C6CB457D5476Bca",
      "gasPrice": {
        "_hex": "0xe000372c8"
      },
      "gasLimit": {
        "_hex": "0x55f0"
      },
      "to": "0x55d6bb729E3D6128B9032d03897D7C85cBB4e688",
      "value": {
        "_hex": "0xe939bffaf5a17b0"
      },
      "nonce": 252,
      "data": "0x",
      "r": "0xfae005e31827fac789afc0fef4f4692e6b0913f1ef83c0cb56fb046212556584",
      "s": "0x61141f19ce5899d099ae9ac2c336e04312f435c7b5b93a38f409a5f4da732abb",
      "v": 27,
      "creates": null,
      "raw": "0xf86d81fc850e000372c88255f09455d6bb729e3d6128b9032d03897d7c85cbb4e688880e939bffaf5a17b0801ba0fae005e31827fac789afc0fef4f4692e6b0913f1ef83c0cb56fb046212556584a061141f19ce5899d099ae9ac2c336e04312f435c7b5b93a38f409a5f4da732abb",
      "networkId": 0,
      "chainId": 0
    },
    {
      "hash": "0x566a51f3bdf7a06bb93fed1dd01cf13e90b7b2f5d5218a08335e745d80560b75",
      "blockHash": "0x2541e565adaeb2337d48d8fc6e0680a91c3b8d7be9453ddb96d2f68b985909fc",
      "blockNumber": 55854,
      "transactionIndex": 2,
      "confirmations": null,
      "from": "0xe6A7a1d47ff21B6321162AEA7C6CB457D5476Bca",
      "gasPrice": {
        "_hex": "0xe000372c8"
      },
      "gasLimit": {
        "_hex": "0x55f0"
      },
      "to": "0x965F9b7bfA0f8AeC1D0e948ae13634cA2DeEBA20",
      "value": {
        "_hex": "0xed281194692dee0"
      },
      "nonce": 253,
      "data": "0x",
      "r": "0x942af9b738ca569219bb5c8ba64a027b446c640a97ca50ee3bd01e6f9b6acccb",
      "s": "0x0c66a30478e41df298662579216a694bc0b2657de209e57a5860a4b0f7a3f027",
      "v": 28,
      "creates": null,
      "raw": "0xf86d81fd850e000372c88255f094965f9b7bfa0f8aec1d0e948ae13634ca2deeba20880ed281194692dee0801ca0942af9b738ca569219bb5c8ba64a027b446c640a97ca50ee3bd01e6f9b6acccba00c66a30478e41df298662579216a694bc0b2657de209e57a5860a4b0f7a3f027",
      "networkId": 0,
      "chainId": 0
    },
    {
      "hash": "0x7429b4c64f87245f57fd885f197fe78b3d37ae213ddcb55fb166f8ea19692472",
      "blockHash": "0x2541e565adaeb2337d48d8fc6e0680a91c3b8d7be9453ddb96d2f68b985909fc",
      "blockNumber": 55854,
      "transactionIndex": 3,
      "confirmations": null,
      "from": "0xe6A7a1d47ff21B6321162AEA7C6CB457D5476Bca",
      "gasPrice": {
        "_hex": "0xe000372c8"
      },
      "gasLimit": {
        "_hex": "0x55f0"
      },
      "to": "0x8C0289BE956871067742EcFCd1E7797f313eC7D4",
      "value": {
        "_hex": "0xf1c659f89d7bfe0"
      },
      "nonce": 254,
      "data": "0x",
      "r": "0x15bcb666ce749c4c683ded089ff7acd04c738e02d65914360a7926b6d69739af",
      "s": "0x6f161492fe6c236474293aabee6beafbc0c4499ceb8d54518e05c7953f7a21cb",
      "v": 27,
      "creates": null,
      "raw": "0xf86d81fe850e000372c88255f0948c0289be956871067742ecfcd1e7797f313ec7d4880f1c659f89d7bfe0801ba015bcb666ce749c4c683ded089ff7acd04c738e02d65914360a7926b6d69739afa06f161492fe6c236474293aabee6beafbc0c4499ceb8d54518e05c7953f7a21cb",
      "networkId": 0,
      "chainId": 0
    },
    {
      "hash": "0x63383e2c0f68864f3fb61c0fdc976d4dbfe1f1aaa3e31cbbd1031c3149b2ae07",
      "blockHash": "0x2541e565adaeb2337d48d8fc6e0680a91c3b8d7be9453ddb96d2f68b985909fc",
      "blockNumber": 55854,
      "transactionIndex": 4,
      "confirmations": null,
      "from": "0xc70bA22fe446A85A247bf85BaD1AdDf3ddaF62E9",
      "gasPrice": {
        "_hex": "0xdf0629f4b"
      },
      "gasLimit": {
        "_hex": "0x15f90"
      },
      "to": "0x0013e723F574bAFD47CC1542532cdCD98C1C2989",
      "value": {
        "_hex": "0x12c"
      },
      "nonce": 20,
      "data": "0x",
      "r": "0xc4ae2e19135351ab2c261f7f1cc373dfead779498002735f22720a60463cacbf",
      "s": "0x2c31299fe2227607ef7d0d6b46db9815bdcb9de8dcc780e35aaa628c6a1d7356",
      "v": 28,
      "creates": null,
      "raw": "0xf86714850df0629f4b83015f90940013e723f574bafd47cc1542532cdcd98c1c298982012c801ca0c4ae2e19135351ab2c261f7f1cc373dfead779498002735f22720a60463cacbfa02c31299fe2227607ef7d0d6b46db9815bdcb9de8dcc780e35aaa628c6a1d7356",
      "networkId": 0,
      "chainId": 0
    },
    {
      "hash": "0xae1e4b09a02f2269bd22bada43ee4680fff4d3e8b37dd26cca35301df92ea63c",
      "blockHash": "0x2541e565adaeb2337d48d8fc6e0680a91c3b8d7be9453ddb96d2f68b985909fc",
      "blockNumber": 55854,
      "transactionIndex": 5,
      "confirmations": null,
      "from": "0x96811Ad897894eC178872117C8BF2f03971A393B",
      "gasPrice": {
        "_hex": "0xd0466fcab"
      },
      "gasLimit": {
        "_hex": "0x5208"
      },
      "to": "0x32Be343B94f860124dC4fEe278FDCBD38C102D88",
      "value": {
        "_hex": "0xddc8ae1da0d8000"
      },
      "nonce": 1,
      "data": "0x",
      "r": "0xe26c444e1531b66db0bc080438e3a6a2d83789f9dce5c71960977731d27f55d5",
      "s": "0x185ae3b4ebccb129de7031f8a28d4e066bb45bba4a1379bf30582a991da4cf71",
      "v": 28,
      "creates": null,
      "raw": "0xf86c01850d0466fcab8252089432be343b94f860124dc4fee278fdcbd38c102d88880ddc8ae1da0d8000801ca0e26c444e1531b66db0bc080438e3a6a2d83789f9dce5c71960977731d27f55d5a0185ae3b4ebccb129de7031f8a28d4e066bb45bba4a1379bf30582a991da4cf71",
      "networkId": 0,
      "chainId": 0
    }
  ]
}