{
  "hash": "0xfa9ab242f4d231e578de88684ddc6d29ee90e2b3abf9e854caa50735b4371069",
  "parentHash": "0xb27e2d3c0e001c88b8946f95388fc4410b62c6352f1b34ecc5e25dca8022c4fa",
  "number": 108540,
  "timestamp": 1439942161,
  "nonce": "0x04c7084ec45d8ac5",
  "difficulty": 4327701694397,
  "gasLimit": {
    "_hex": "0x2fefd8"
  },
  "gasUsed": {
    "_hex": "0x5208"
  },
  "miner": "0x8dd979d3638B9c8e7a169d955ef8E8Da5B772C51",
  "extraData": "0x476574682f76312e302e312f77696e646f77732f676f312e342e32",
  "transactions": [
    {
      "hash": "0xcaca7a0d3d3353ed04a2145ffd9cc1d8f1626f58deab54d368b363abc0e774f6",
      "blockHash": "0xfa9ab242f4d231e578de88684ddc6d29ee90e2b3abf9e854caa50735b4371069",
      "blockNumber": 108540,
      "transactionIndex": 0,
      "confirmations": null,
      "from": "0xa70a9a7040d542C632D8e0bE7c5513A8a5Bbc752",
      "gasPrice": {
        "_hex": "0xdbc3c9610"
      },
      "gasLimit": {
        "_hex": "0x5208"
      },
      "to": "0x32Be343B94f860124dC4fEe278FDCBD38C102D88",
      "value": {
        "_hex": "0x455f34cb7de98000"
      },
      "nonce": 266,
      "data": "0x",
      "r": "0xefde8ad3f7f25eab4dda5601938dd91befdbdf7f5e368fe0170fabe249dbbc71",
      "s": "0x179922c0ed76844d480e19290bbe37c46de086986d6bdb6c8841ad8f99a3667b",
      "v": 28,
      "creates": null,
      "raw": "0xf86e82010a850dbc3c96108252089432be343b94f860124dc4fee278fdcbd38c102d8888455f34cb7de98000801ca0efde8ad3f7f25eab4dda5601938dd91befdbdf7f5e368fe0170fabe249dbbc71a0179922c0ed76844d480e19290bbe37c46de086986d6bdb6c8841ad8f99a3667b",
      "networkId": 0,
      "chainId": 0
    }
  ]
}