{
  "hash": "0x4e4262657e0c71926dca6509f3f62bb2c6dd12213e6c8ef4ed83c5f1f1d760fe",
  "parentHash": "0x7764a9df5e1ff5aa02db79425d8b458934c34783d2e055734d24ee8394e0cc81",
  "number": 122057,
  "timestamp": 1440187413,
  "nonce": "0x743539d0d1f2da9f",
  "difficulty": 4464423580891,
  "gasLimit": {
    "_hex": "0x2fefd8"
  },
  "gasUsed": {
    "_hex": "0x5208"
  },
  "miner": "0x52bc44d5378309EE2abF1539BF71dE1b7d7bE3b5",
  "extraData": "0xd783010002844765746887676f312e342e32856c696e7578",
  "transactions": [
    {
      "hash": "0x9c5750028643b594f8a478ab9f523f3e5df4a79a45045321ba24b91ae1722108",
      "blockHash": "0x4e4262657e0c71926dca6509f3f62bb2c6dd12213e6c8ef4ed83c5f1f1d760fe",
      "blockNumber": 122057,
      "transactionIndex": 0,
      "confirmations": null,
      "from": "0x0396d43A2B6C2795509Cb88DA53e6c4b41b8D55e",
      "gasPrice": {
        "_hex": "0xd20fa99f7"
      },
      "gasLimit": {
        "_hex": "0x5208"
      },
      "to": "0x32Be343B94f860124dC4fEe278FDCBD38C102D88",
      "value": {
        "_hex": "0x1a5bc4a0970fc3000"
      },
      "nonce": 0,
      "data": "0x",
      "r": "0x42baf42f747512832bdb836f0b5ab98109e27dd067166cdcb2c421fb8cac14c9",
      "s": "0x3606de0904feb5395bc0d0372786594657a038eeab586479ce1fbdd8fb1bfa9a",
      "v": 27,
      "creates": null,
      "raw": "0xf86d80850d20fa99f78252089432be343b94f860124dc4fee278fdcbd38c102d888901a5bc4a0970fc3000801ba042baf42f747512832bdb836f0b5ab98109e27dd067166cdcb2c421fb8cac14c9a03606de0904feb5395bc0d0372786594657a038eeab586479ce1fbdd8fb1bfa9a",
      "networkId": 0,
      "chainId": 0
    }
  ]
}