{
  "hash": "0xc6c70072463568bf4efa29cb280cff0a0c359ef562264ecf10ff932fb57bb9d9",
  "parentHash": "0x7364f0bc24015d22af1decb4b1049c4f9ee16448dd797296a9b8533391e8110c",
  "number": 62378,
  "timestamp": 1439187794,
  "nonce": "0x576b923eaff8826d",
  "difficulty": 1768530292179,
  "gasLimit": {
    "_hex": "0x2fefd8"
  },
  "gasUsed": {
    "_hex": "0x2a34"
  },
  "miner": "0x93641e54c9aA6F9038FE7Adb03629a1747326Cd6",
  "extraData": "0x476574682f76312e302e312f77696e646f77732f676f312e342e32",
  "transactions": [
    {
      "hash": "0x172190f0de376feeabff3fa50bf09bb1162fef011d34e693c4980099e4bdc9f2",
      "blockHash": "0xc6c70072463568bf4efa29cb280cff0a0c359ef562264ecf10ff932fb57bb9d9",
      "blockNumber": 62378,
      "transactionIndex": 0,
      "confirmations": null,
      "from": "0xE2beA3e7d349ab64EBD9873418e78912e13CD35f",
      "gasPrice": {
        "_hex": "0xce6476b8d"
      },
      "gasLimit": {
        "_hex": "0x15f90"
      },
      "to": "0x0B7591abDF17A364F167A99aF38e58694ACB2Aa6",
      "value": {
        "_hex": "0x0"
      },
      "nonce": 13,
      "data": "0x41c0e1b5",
      "r": "0xa5378beae6dc712f948345f45309f754e7beb6b3dc48c1046d4bbb5023eea940",
      "s": "0x646924144eff873db21e007b0c4c9602ebb5f233d3e0ed9ce64c5a38128f3926",
      "v": 27,
      "creates": null,
      "raw": "0xf8690d850ce6476b8d83015f90940b7591abdf17a364f167a99af38e58694acb2aa6808441c0e1b51ba0a5378beae6dc712f948345f45309f754e7beb6b3dc48c1046d4bbb5023eea940a0646924144eff873db21e007b0c4c9602ebb5f233d3e0ed9ce64c5a38128f3926",
      "networkId": 0,
      "chainId": 0
    }
  ]
}