{
  "hash": "0x57537c84c9f954ee8c585530fb2550cb13e69747d59ce987f9dfcef998bb0de1",
  "parentHash": "0xf80ca6e4af18d8b3250a73602e5ce0835657ebfedd36a91131c2ff54e310615d",
  "number": 62718,
  "timestamp": 1439193296,
  "nonce": "0x3e64d6c5a5872ea6",
  "difficulty": 1765007962908,
  "gasLimit": {
    "_hex": "0x2fefd8"
  },
  "gasUsed": {
    "_hex": "0x5208"
  },
  "miner": "0x43c2AeB7b46cbB31eE7f9A86BDAfB5C87cD486a3",
  "extraData": "0xdd809b302e392e34302b2b653834372d5257696e646f2f6d73762f4a4954",
  "transactions": [
    {
      "hash": "0x29d19db19f89517c46d7f1b1db884c7cc18a23259659f22c39fbcb5075ebf667",
      "blockHash": "0x57537c84c9f954ee8c585530fb2550cb13e69747d59ce987f9dfcef998bb0de1",
      "blockNumber": 62718,
      "transactionIndex": 0,
      "confirmations": null,
      "from": "0x6866e5e1FaBB4AbceF3EEb9Ea0d8CD6b52dfC9FF",
      "gasPrice": {
        "_hex": "0xd091429af"
      },
      "gasLimit": {
        "_hex": "0x15f90"
      },
      "to": "0x01Ad0ACFf478127D9d702B1A13599D706cB759b1",
      "value": {
        "_hex": "0x4563918244f40000"
      },
      "nonce": 3,
      "data": "0x",
      "r": "0x14f8f2b928ea955f11f028aa32fc4ccc7ec40a4526118715d72df810f8bd3801",
      "s": "0x5aa1ae964f0c997bdfb05452df188f3c60a7c4ad2e4872221aefc6dc3d52da51",
      "v": 28,
      "creates": null,
      "raw": "0xf86d03850d091429af83015f909401ad0acff478127d9d702b1a13599d706cb759b1884563918244f40000801ca014f8f2b928ea955f11f028aa32fc4ccc7ec40a4526118715d72df810f8bd3801a05aa1ae964f0c997bdfb05452df188f3c60a7c4ad2e4872221aefc6dc3d52da51",
      "networkId": 0,
      "chainId": 0
    }
  ]
}