{
  "hash": "0x650e7aa54dbcf3e91e90af75eea3cd0ecb5b78d421477e2b52861cc5d5f27c53",
  "parentHash": "0x993eb8bbee96da1e409a93402aec7d3d6efffe81dfd2d599825c437699b398bb",
  "number": 93332,
  "timestamp": 1439688199,
  "nonce": "0x88191d6740441369",
  "difficulty": 3528224767951,
  "gasLimit": {
    "_hex": "0x2fefd5"
  },
  "gasUsed": {
    "_hex": "0xa410"
  },
  "miner": "0x5F8F73E26CdF436f19Cb24C82F90A15AFe55b592",
  "extraData": "0x476574682f76312e302e312f77696e646f77732f676f312e342e32",
  "transactions": [
    {
      "hash": "0x91c1fc8be61efcfd6aa297d8b28417246fd89b3ebb246ac25a28fb9fc29614f2",
      "blockHash": "0x650e7aa54dbcf3e91e90af75eea3cd0ecb5b78d421477e2b52861cc5d5f27c53",
      "blockNumber": 93332,
      "transactionIndex": 0,
      "confirmations": null,
      "from": "0xCbbdAd70d0ff27254925AD37B5C135EEe1116615",
      "gasPrice": {
        "_hex": "0xd848b554a"
      },
      "gasLimit": {
        "_hex": "0x15f90"
      },
      "to": "0x886e83d9133F65B9c27A946f699E88e71A888E4C",
      "value": {
        "_hex": "0x2c68af0bb140000"
      },
      "nonce": 4,
      "data": "0x",
      "r": "0x60d187512f7d61b8ce8aedc372ae322d252e06862ca828eec7e5920513457b34",
      "s": "0x4256028c1ebcad8a2db3c179459febd60ef8c42507f22c908eb4c8a71600d69c",
      "v": 27,
      "creates": null,
      "raw": "0xf86d04850d848b554a83015f9094886e83d9133f65b9c27a946f699e88e71a888e4c8802c68af0bb140000801ba060d187512f7d61b8ce8aedc372ae322d252e06862ca828eec7e5920513457b34a04256028c1ebcad8a2db3c179459febd60ef8c42507f22c908eb4c8a71600d69c",
      "networkId": 0,
      "chainId": 0
    },
    {
      "hash": "0x50277bbb7326c6717560ca2d0b0aa202de6fcbf213bf6b423f4ed8b33425493f",
      "blockHash": "0x650e7aa54dbcf3e91e90af75eea3cd0ecb5b78d421477e2b52861cc5d5f27c53",
      "blockNumber": 93332,
      "transactionIndex": 1,
      "confirmations": null,
      "from": "0xeDb63085aAC5CF2eDbc0C9AD9c274076201da37E",
      "gasPrice": {
        "_hex": "0xd0d0decee"
      },
      "gasLimit": {
        "_hex": "0x5208"
      },
      "to": "0x2AeDF47e935C75601e9D779453F1a5F8c616bd6E",
      "value": {
        "_hex": "0x3e6f079192ee5c90"
      },
      "nonce": 2,
      "data": "0x",
      "r": "0x664f6abafdb232e2a19374cbff781eff72e225a803846c39028d6edc9de1ac4d",
      "s": "0x2a6b73a4d24f418bbcfaaba6e5a65dce85b4c325dfe388ce31f234984dd3c1d6",
      "v": 28,
      "creates": null,
      "raw": "0xf86c02850d0d0decee825208942aedf47e935c75601e9d779453f1a5f8c616bd6e883e6f079192ee5c90801ca0664f6abafdb232e2a19374cbff781eff72e225a803846c39028d6edc9de1ac4da02a6b73a4d24f418bbcfaaba6e5a65dce85b4c325dfe388ce31f234984dd3c1d6",
      "networkId": 0,
      "chainId": 0
    }
  ]
}