{
  "hash": "0x2e824fe02ed9e2fcfefd21d56e292a5f3fab7965b1739337a7a822421ed93bd4",
  "parentHash": "0x5c9138f566332a750eb1c7ba5a6825144422dd7aab43da79066c26c302569223",
  "number": 111554,
  "timestamp": 1439992202,
  "nonce": "0x43ffc8d2cfe23a9a",
  "difficulty": 4441732519060,
  "gasLimit": {
    "_hex": "0x2fefd8"
  },
  "gasUsed": {
    "_hex": "0x546c"
  },
  "miner": "0xe6A7a1d47ff21B6321162AEA7C6CB457D5476Bca",
  "extraData": "0x476574682f76312e302e312d38326566323666362f6c696e75782f676f312e34",
  "transactions": [
    {
      "hash": "0x9956070e123f87ec5c5a9c2d92bf794e62c3faa66f0d7348cd830ff70b2520cd",
      "blockHash": "0x2e824fe02ed9e2fcfefd21d56e292a5f3fab7965b1739337a7a822421ed93bd4",
      "blockNumber": 111554,
      "transactionIndex": 0,
      "confirmations": null,
      "from": "0x8aBEdC756E11B6Fe8EF40840F01efFe5Dc147331",
      "gasPrice": {
        "_hex": "0xba43b7400"
      },
      "gasLimit": {
        "_hex": "0x15f90"
      },
      "to": "0x2910543Af39abA0Cd09dBb2D50200b3E800A63D2",
      "value": {
        "_hex": "0xf9ccd8a1c5080000"
      },
      "nonce": 2,
      "data": "0x454e344d574d474d47",
      "r": "0x280247224234715222f65100459c4255c99accc05716199693e82d3f58c795eb",
      "s": "0x2c9fbb80d441be4f9ccedc0aba1fb70b52a18c1ecf6ffe66430373f32c513f7b",
      "v": 27,
      "creates": null,
      "raw": "0xf87602850ba43b740083015f90942910543af39aba0cd09dbb2d50200b3e800a63d288f9ccd8a1c508000089454e344d574d474d471ba0280247224234715222f65100459c4255c99accc05716199693e82d3f58c795eba02c9fbb80d441be4f9ccedc0aba1fb70b52a18c1ecf6ffe66430373f32c513f7b",
      "networkId": 0,
      "chainId": 0
    }
  ]
}