{
  "hash": "0x47994e528002d89ae1beed85b7745cc4e12d89db07aa58eb1f29c0121b4c20e6",
  "parentHash": "0x712b28871c3abe404bbda0a1c59487aa9873e0a92032c735ebc43577e4d420f7",
  "number": 102930,
  "timestamp": 1439845320,
  "nonce": "0x661083eb7173fadd",
  "difficulty": 4104132680968,
  "gasLimit": {
    "_hex": "0x2fefd8"
  },
  "gasUsed": {
    "_hex": "0x5208"
  },
  "miner": "0x123843545FB525C8E134c9A5F15ADA6865cc3848",
  "extraData": "0x",
  "transactions": [
    {
      "hash": "0xf2c55dd4d83b0e3441d878392644c92b64d452a1756a6dc4ab987651ef214064",
      "blockHash": "0x47994e528002d89ae1beed85b7745cc4e12d89db07aa58eb1f29c0121b4c20e6",
      "blockNumber": 102930,
      "transactionIndex": 0,
      "confirmations": null,
      "from": "0x007f7f58D3eb5b7510A301eCC749FC1fCDDBE14D",
      "gasPrice": {
        "_hex": "0xe0cfe7246"
      },
      "gasLimit": {
        "_hex": "0x15f90"
      },
      "to": "0xb1abce2918E21ddb93AA452731a12672A3d9F75a",
      "value": {
        "_hex": "0x4563918244f40000"
      },
      "nonce": 216,
      "data": "0x",
      "r": "0x7b5338104cc589460914e53648dfcb1dd4966dc745320aaf350a8647d485cc7f",
      "s": "0x65a5c88e236c6e8d09a2bd4384205cb9d82533d418e882d0a161109a843e8615",
      "v": 27,
      "creates": null,
      "raw": "0xf86e81d8850e0cfe724683015f9094b1abce2918e21ddb93aa452731a12672a3d9f75a884563918244f40000801ba07b5338104cc589460914e53648dfcb1dd4966dc745320aaf350a8647d485cc7fa065a5c88e236c6e8d09a2bd4384205cb9d82533d418e882d0a161109a843e8615",
      "networkId": 0,
      "chainId": 0
    }
  ]
}