{
  "hash": "0x34c6b4e6358f2c0bb081dc54dca4f18502aa4417156f52b86afff24ac4bfbbeb",
  "parentHash": "0x29b526c585a1713c970548ee6433e89410215b7a1e2dfc4bf6b4e4dc25aa391e",
  "number": 104420,
  "timestamp": 1439869482,
  "nonce": "0x8832280123c96f17",
  "difficulty": 4329827733910,
  "gasLimit": {
    "_hex": "0x2fefd8"
  },
  "gasUsed": {
    "_hex": "0x5208"
  },
  "miner": "0xEF247E639d49461D25F57e9362CadE3120910Ce0",
  "extraData": "0x476574682f76312e302e312f6c696e75782f676f312e342e32",
  "transactions": [
    {
      "hash": "0xcec7cf87ff122fb5172f82bfd0796288ef4c59e6f54dc5525aa0b228e1f799d8",
      "blockHash": "0x34c6b4e6358f2c0bb081dc54dca4f18502aa4417156f52b86afff24ac4bfbbeb",
      "blockNumber": 104420,
      "transactionIndex": 0,
      "confirmations": null,
      "from": "0xD9666150A9dA92d9108198a4072970805a8B3428",
      "gasPrice": {
        "_hex": "0xd21ecf76a"
      },
      "gasLimit": {
        "_hex": "0x5208"
      },
      "to": "0x32Be343B94f860124dC4fEe278FDCBD38C102D88",
      "value": {
        "_hex": "0x455f50b9b88d9c00"
      },
      "nonce": 68,
      "data": "0x",
      "r": "0x9108f8f2808fc1976e56857d798a9f584895937f0311ad5f89e7729f2ed71157",
      "s": "0x47280e9a06e975af3f1be45d3844e9bfaa09a5e22589547d4375e4333c9aeb74",
      "v": 27,
      "creates": null,
      "raw": "0xf86c44850d21ecf76a8252089432be343b94f860124dc4fee278fdcbd38c102d8888455f50b9b88d9c00801ba09108f8f2808fc1976e56857d798a9f584895937f0311ad5f89e7729f2ed71157a047280e9a06e975af3f1be45d3844e9bfaa09a5e22589547d4375e4333c9aeb74",
      "networkId": 0,
      "chainId": 0
    }
  ]
}