{
  "hash": "0xa15bade6b9108a8d6a6a0a8cc3cbd2912b674553c5fcabcd44df9600445bdee7",
  "parentHash": "0x92cbcc2d28f211d03b1e443735a16b35916d92f4c9db0a034637c0181618e62f",
  "number": 95260,
  "timestamp": 1439721403,
  "nonce": "0xbc22386855991b64",
  "difficulty": 3555079802364,
  "gasLimit": {
    "_hex": "0x2fefd8"
  },
  "gasUsed": {
    "_hex": "0xa414"
  },
  "miner": "0xe6A7a1d47ff21B6321162AEA7C6CB457D5476Bca",
  "extraData": "0x476574682f76312e302e312d38326566323666362f6c696e75782f676f312e34",
  "transactions": [
    {
      "hash": "0xb7d7e1a43795b32e14fab96f097ff608fee8edeba48170ed94c3c7d970032264",
      "blockHash": "0xa15bade6b9108a8d6a6a0a8cc3cbd2912b674553c5fcabcd44df9600445bdee7",
      "blockNumber": 95260,
      "transactionIndex": 0,
      "confirmations": null,
      "from": "0xb9836ec1f42Bd48331bceaedb74a6Bcdc22832bD",
      "gasPrice": {
        "_hex": "0xd56c9c435"
      },
      "gasLimit": {
        "_hex": "0x7530"
      },
      "to": "0x7cB57B5A97eAbe94205C07890BE4c1aD31E486A8",
      "value": {
        "_hex": "0x11c37937e08000"
      },
      "nonce": 0,
      "data": "0x00",
      "r": "0xbd948bd3d79ff30941a1ededbf43f108a900813f4aa55976cc93a8dc402ed766",
      "s": "0xffc1a7dd2ae87a828148b7ba1823b3262c9576792356e81c7f0ce3fccd0875f7",
      "v": 27,
      "creates": null,
      "raw": "0xf86b80850d56c9c435827530947cb57b5a97eabe94205c07890be4c1ad31e486a88711c37937e08000001ba0bd948bd3d79ff30941a1ededbf43f108a900813f4aa55976cc93a8dc402ed766a0ffc1a7dd2ae87a828148b7ba1823b3262c9576792356e81c7f0ce3fccd0875f7",
      "networkId": 0,
      "chainId": 0
    },
    {
      "hash": "0xf2e15f83928abe6d3ec186ca8109b33adb9fca7439cc5ae1a23ae6ecfce7a334",
      "blockHash": "0xa15bade6b9108a8d6a6a0a8cc3cbd2912b674553c5fcabcd44df9600445bdee7",
      "blockNumber": 95260,
      "transactionIndex": 1,
      "confirmations": null,
      "from": "0x9cF18B3eb373C383a42d06136ba331D766ed9Fbb",
      "gasPrice": {
        "_hex": "0xd1abd6c3d"
      },
      "gasLimit": {
        "_hex": "0x5208"
      },
      "to": "0x32Be343B94f860124dC4fEe278FDCBD38C102D88",
      "value": {
        "_hex": "0x7f804b62ef0878000"
      },
      "nonce": 5,
      "data": "0x",
      "r": "0x8746ad99e959ac22ef69701a1391600c18da224be4bbcd7103e2381ebb5c9f66",
      "s": "0x23b2b8966662decd6651331d7cd10bc67d5b5b588bbe7bae975097770a80ac1b",
      "v": 28,
      "creates": null,
      "raw": "0xf86d05850d1abd6c3d8252089432be343b94f860124dc4fee278fdcbd38c102d888907f804b62ef0878000801ca08746ad99e959ac22ef69701a1391600c18da224be4bbcd7103e2381ebb5c9f66a023b2b8966662decd6651331d7cd10bc67d5b5b588bbe7bae975097770a80ac1b",
      "networkId": 0,
      "chainId": 0
    }
  ]
}