{
  "hash": "0xdc6b0e585cda757275c197f983e713f04d7c62c60d7d9e9f48a9cc3e6249133c",
  "parentHash": "0x3307607ff52c1a302116d64932055614dddb9119485448ff5860986c2c41b443",
  "number": 59670,
  "timestamp": 1439141770,
  "nonce": "0xfbca9093870e7af5",
  "difficulty": 1714671770065,
  "gasLimit": {
    "_hex": "0x2fefd5"
  },
  "gasUsed": {
    "_hex": "0x5208"
  },
  "miner": "0xEF247E639d49461D25F57e9362CadE3120910Ce0",
  "extraData": "0x476574682f76312e302e312f6c696e75782f676f312e342e32",
  "transactions": [
    {
      "hash": "0xa65b8854998ab141ff2bf9531dcd9c0dbf8bf7ad47d8f04cbada18be329ec5c8",
      "blockHash": "0xdc6b0e585cda757275c197f983e713f04d7c62c60d7d9e9f48a9cc3e6249133c",
      "blockNumber": 59670,
      "transactionIndex": 0,
      "confirmations": null,
      "from": "0x27e806e70622d2864e1B1f4426D72FFb0457C83a",
      "gasPrice": {
        "_hex": "0xdae57e57c"
      },
      "gasLimit": {
        "_hex": "0x5208"
      },
      "to": "0x32Be343B94f860124dC4fEe278FDCBD38C102D88",
      "value": {
        "_hex": "0x455f2f3ce5885400"
      },
      "nonce": 2,
      "data": "0x",
      "r": "0x3de838d245e3b956609ab9362e04125eff27c078adc9864a70527037505b04bb",
      "s": "0x30e08f34fe8a1a6eec0e91f22b7892052f68920000e30e324098f724b5933bbe",
      "v": 28,
      "creates": null,
      "raw": "0xf86c02850dae57e57c8252089432be343b94f860124dc4fee278fdcbd38c102d8888455f2f3ce5885400801ca03de838d245e3b956609ab9362e04125eff27c078adc9864a70527037505b04bba030e08f34fe8a1a6eec0e91f22b7892052f68920000e30e324098f724b5933bbe",
      "networkId": 0,
      "chainId": 0
    }
  ]
}