{
  "hash": "0xb64ea3dca8c583a1b790be4a17f58513c3c92a377d9e84732e8d5d3ab3dff4bd",
  "parentHash": "0x2f02e01640de68299e8940dae096e0e3c8bb0ee8e91549d26783cfbac1880419",
  "number": 64050,
  "timestamp": 1439214507,
  "nonce": "0xcbc4be8cbaa79f12",
  "difficulty": 1853034460004,
  "gasLimit": {
    "_hex": "0x2fefd5"
  },
  "gasUsed": {
    "_hex": "0x5208"
  },
  "miner": "0x19dafe19F11E960E4cCfC6A5AA8890ebD748cA1E",
  "extraData": "0x476574682f76312e302e312d37666266393930632f6c696e75782f676f312e34",
  "transactions": [
    {
      "hash": "0x97b70cbaa0736a5c75f1817ff6952660b9e03a6eef923f94211f72cd5f2efca0",
      "blockHash": "0xb64ea3dca8c583a1b790be4a17f58513c3c92a377d9e84732e8d5d3ab3dff4bd",
      "blockNumber": 64050,
      "transactionIndex": 0,
      "confirmations": null,
      "from": "0xA21Ba94e45f0E168dA824fC67aC9cb5Cb577a8aF",
      "gasPrice": {
        "_hex": "0x45d964b800"
      },
      "gasLimit": {
        "_hex": "0x5208"
      },
      "to": "0x56011d6b57A70c27F7cc294905A5DdA65BfBd154",
      "value": {
        "_hex": "0x56bc75e2d63100000"
      },
      "nonce": 3,
      "data": "0x",
      "r": "0x237571ea51115276944aaa7fef6e25bc3542829f9c7cd95a378c68ee5dd40ecb",
      "s": "0x6245392505f70311437fa29c7d3231480c590086cc0e9c067fdb12c3258d2986",
      "v": 28,
      "creates": null,
      "raw": "0xf86d038545d964b8008252089456011d6b57a70c27f7cc294905a5dda65bfbd15489056bc75e2d63100000801ca0237571ea51115276944aaa7fef6e25bc3542829f9c7cd95a378c68ee5dd40ecba06245392505f70311437fa29c7d3231480c590086cc0e9c067fdb12c3258d2986",
      "networkId": 0,
      "chainId": 0
    }
  ]
}