{
  "hash": "0x77e07e258c02fe6cbea71943ce9cd14294a32b71504e8db96950757f56d845dc",
  "parentHash": "0x5ffad17e15a2cefe1b92e4379aead005a1354809f6b42bc2c651c135442978e9",
  "number": 97513,
  "timestamp": 1439757321,
  "nonce": "0x3df82ae483b1259a",
  "difficulty": 3826074745222,
  "gasLimit": {
    "_hex": "0x2fefd5"
  },
  "gasUsed": {
    "_hex": "0x5208"
  },
  "miner": "0xA21Ba94e45f0E168dA824fC67aC9cb5Cb577a8aF",
  "extraData": "0x",
  "transactions": [
    {
      "hash": "0x2ed6d7cd135375d53dd3be6c0f54da1349b8ea46c029c5c9f1ba535c60cf0aac",
      "blockHash": "0x77e07e258c02fe6cbea71943ce9cd14294a32b71504e8db96950757f56d845dc",
      "blockNumber": 97513,
      "transactionIndex": 0,
      "confirmations": null,
      "from": "0xBa18638701c0389D7f4A852e142eDBF84B2F2446",
      "gasPrice": {
        "_hex": "0xba43b7400"
      },
      "gasLimit": {
        "_hex": "0x5208"
      },
      "to": "0xC47Aaa860008be6f65B58c6C6E02a84e666EfE31",
      "value": {
        "_hex": "0xdd932de85e855800"
      },
      "nonce": 1,
      "data": "0x",
      "r": "0xc7854d144ec0abe9e2c7f62b880bceb248f341ab888108098b23b6c647b7c34c",
      "s": "0x1e3e447c5538d3934c607d16fdf3bfd393eb4026c2c23da3552774113490fd6b",
      "v": 27,
      "creates": null,
      "raw": "0xf86c01850ba43b740082520894c47aaa860008be6f65b58c6c6e02a84e666efe3188dd932de85e855800801ba0c7854d144ec0abe9e2c7f62b880bceb248f341ab888108098b23b6c647b7c34ca01e3e447c5538d3934c607d16fdf3bfd393eb4026c2c23da3552774113490fd6b",
      "networkId": 0,
      "chainId": 0
    }
  ]
}