{
  "hash": "0x8f36c88191f8ea1b1f28052789f3565614b24395c29abbb29a6a9847e1e9b3f7",
  "parentHash": "0x974a24d41e6668c6a741681b349c0977d524c8f11835f5919039807914205148",
  "number": 69880,
  "timestamp": 1439311261,
  "nonce": "0x3ea80aa698e49848",
  "difficulty": 2100354471039,
  "gasLimit": {
    "_hex": "0x2fefd8"
  },
  "gasUsed": {
    "_hex": "0x520c"
  },
  "miner": "0xC5624D986419AeBa6B6A7Ce5BAFd9883f75d8bc8",
  "extraData": "0x",
  "transactions": [
    {
      "hash": "0xb6d9b5ce2569d18b5432ad5cde3feaa84fd0428eda9d9e5aaaccfe3a0fbef626",
      "blockHash": "0x8f36c88191f8ea1b1f28052789f3565614b24395c29abbb29a6a9847e1e9b3f7",
      "blockNumber": 69880,
      "transactionIndex": 0,
      "confirmations": null,
      "from": "0xF32124626031dC61D64D3bC92A7Dece6A4B46a37",
      "gasPrice": {
        "_hex": "0xcf1f591ae"
      },
      "gasLimit": {
        "_hex": "0x55f0"
      },
      "to": "0xa27f6FEDC7Ee75E02d31410ffafC3FFe22af7837",
      "value": {
        "_hex": "0x13e3c2a6149ad20000"
      },
      "nonce": 1,
      "data": "0x00",
      "r": "0x5f2f47535d7c94f62459efd6397ed242e3b66a157aa03e4b379a8580c42e5fc4",
      "s": "0xdea4b83b0a4e7d10101541f7d6cbcfe0d6405b6f367c51d713429b884c9dd3ad",
      "v": 28,
      "creates": null,
      "raw": "0xf86d01850cf1f591ae8255f094a27f6fedc7ee75e02d31410ffafc3ffe22af78378913e3c2a6149ad20000001ca05f2f47535d7c94f62459efd6397ed242e3b66a157aa03e4b379a8580c42e5fc4a0dea4b83b0a4e7d10101541f7d6cbcfe0d6405b6f367c51d713429b884c9dd3ad",
      "networkId": 0,
      "chainId": 0
    }
  ]
}