{
  "hash": "0x7e32b0e6d59cdd3da567465bb7ac6502f75a97bff45f4655198bf3d48169c4a5",
  "parentHash": "0xc8da4cfa1131b92df66868bf0bd7ef1ace77d9d15c16557ad1b8836e555f34dc",
  "number": 69851,
  "timestamp": 1439310776,
  "nonce": "0x087cf2fb4b127537",
  "difficulty": 2099336415132,
  "gasLimit": {
    "_hex": "0x2fefd8"
  },
  "gasUsed": {
    "_hex": "0x5208"
  },
  "miner": "0xe6A7a1d47ff21B6321162AEA7C6CB457D5476Bca",
  "extraData": "0x476574682f76312e302e312d38326566323666362f6c696e75782f676f312e34",
  "transactions": [
    {
      "hash": "0xdc1d7fca42dd8c2badd9bbdd2b6525ed5388242deb138fb34c12cd7b44a916b3",
      "blockHash": "0x7e32b0e6d59cdd3da567465bb7ac6502f75a97bff45f4655198bf3d48169c4a5",
      "blockNumber": 69851,
      "transactionIndex": 0,
      "confirmations": null,
      "from": "0x019D3FA6E3cdA649b26F74395A846575c7bEA14C",
      "gasPrice": {
        "_hex": "0xd10c2a64d"
      },
      "gasLimit": {
        "_hex": "0x15f90"
      },
      "to": "0x04a2a3ee9C9ea82e1F918ecE209f8A7E6d7521E7",
      "value": {
        "_hex": "0xd02ab486cedc0000"
      },
      "nonce": 0,
      "data": "0x",
      "r": "0xa951b13209177340d567e5bd03fbf7682fbd2f36dff6736d2c1cec3d53ea1c5c",
      "s": "0x26e187ab6b3a9e5aa7ea9a327e4a54c40d6f566aca8f8a93b671a70ff55f79c4",
      "v": 28,
      "creates": null,
      "raw": "0xf86d80850d10c2a64d83015f909404a2a3ee9c9ea82e1f918ece209f8a7e6d7521e788d02ab486cedc0000801ca0a951b13209177340d567e5bd03fbf7682fbd2f36dff6736d2c1cec3d53ea1c5ca026e187ab6b3a9e5aa7ea9a327e4a54c40d6f566aca8f8a93b671a70ff55f79c4",
      "networkId": 0,
      "chainId": 0
    }
  ]
}