{
  "hash": "0x4a179ba96951498386ab23905751cd61bd9f49387fb528103996e6cef0a0a03c",
  "parentHash": "0x86338c75d026e3a5975a8a24e67f534a9eabbaab33699a851b2ecdd56075492e",
  "number": 50203,
  "timestamp": 1438985398,
  "nonce": "0x9f8a63fa8b24f1c2",
  "difficulty": 1514161677923,
  "gasLimit": {
    "_hex": "0x563d4"
  },
  "gasUsed": {
    "_hex": "0x546c"
  },
  "miner": "0x684a7b7c096606d1dE0bDDBB85d6E289B882dCEA",
  "extraData": "0xda8098302e392e33392b2b302d524c696e75782f672b2b2f696e74",
  "transactions": [
    {
      "hash": "0xf33affad8185dad46aa83f65d178fa8c0a3844ab34c3c27c964e899c2dff4053",
      "blockHash": "0x4a179ba96951498386ab23905751cd61bd9f49387fb528103996e6cef0a0a03c",
      "blockNumber": 50203,
      "transactionIndex": 0,
      "confirmations": null,
      "from": "0xC13Dad778D7BcE116BD97f744625D57f7124c38A",
      "gasPrice": {
        "_hex": "0xdb195dd08"
      },
      "gasLimit": {
        "_hex": "0x15f90"
      },
      "to": "0x2910543Af39abA0Cd09dBb2D50200b3E800A63D2",
      "value": {
        "_hex": "0x4563918244f40000"
      },
      "nonce": 0,
      "data": "0x454e47464542323730",
      "r": "0x6172c33da9ef63267d4d4116a3e38561c4c72d2acbdc2b2f5e7c82e13d294552",
      "s": "0x27a2c88f2e91b42c238c5947517934a991287bbc8d9e9b424d560e1271f01010",
      "v": 28,
      "creates": null,
      "raw": "0xf87680850db195dd0883015f90942910543af39aba0cd09dbb2d50200b3e800a63d2884563918244f4000089454e474645423237301ca06172c33da9ef63267d4d4116a3e38561c4c72d2acbdc2b2f5e7c82e13d294552a027a2c88f2e91b42c238c5947517934a991287bbc8d9e9b424d560e1271f01010",
      "networkId": 0,
      "chainId": 0
    }
  ]
}