{
  "hash": "0xcee2e85716a0d3652056d7820a2fb8a8a3c14c9c1ac773da76a382bc5fcd0746",
  "parentHash": "0x7f411544fd260d42df2f1680d8fc845316f0a5992a97fb9c8737be896ed4d9c5",
  "number": 88932,
  "timestamp": 1439615718,
  "nonce": "0x134958f56d6ef01e",
  "difficulty": 3248883983630,
  "gasLimit": {
    "_hex": "0x2fefd8"
  },
  "gasUsed": {
    "_hex": "0x5208"
  },
  "miner": "0xF2d2AfF1320476cb8C6b607199D23175cc595693",
  "extraData": "0x476574682f76312e302e312f77696e646f77732f676f312e342e32",
  "transactions": [
    {
      "hash": "0xebb2f85a7c46ee8b688a56568251f681b792f9ed45ed4c81e9a9613bb648ba46",
      "blockHash": "0xcee2e85716a0d3652056d7820a2fb8a8a3c14c9c1ac773da76a382bc5fcd0746",
      "blockNumber": 88932,
      "transactionIndex": 0,
      "confirmations": null,
      "from": "0x1490dF8723A2496AD757c0D395840Ef9331e7e3c",
      "gasPrice": {
        "_hex": "0xba43b7400"
      },
      "gasLimit": {
        "_hex": "0x5208"
      },
      "to": "0xC47Aaa860008be6f65B58c6C6E02a84e666EfE31",
      "value": {
        "_hex": "0xb38b0004c2cd86000"
      },
      "nonce": 1,
      "data": "0x",
      "r": "0xefaa80d3b5a95b41c8f7b2e23101ecfab79f3b5d7549c2cb38bdbfe6635c8b41",
      "s": "0x5fa89bf11317384f8fdfc48b6f6c25425e6973e01e26962d34731d0bdddc4d44",
      "v": 27,
      "creates": null,
      "raw": "0xf86d01850ba43b740082520894c47aaa860008be6f65b58c6c6e02a84e666efe31890b38b0004c2cd86000801ba0efaa80d3b5a95b41c8f7b2e23101ecfab79f3b5d7549c2cb38bdbfe6635c8b41a05fa89bf11317384f8fdfc48b6f6c25425e6973e01e26962d34731d0bdddc4d44",
      "networkId": 0,
      "chainId": 0
    }
  ]
}