{
  "hash": "0x0e3017fe2d719b81350b0adaed9de972795c5734fb793882e9ebbb80312eba4d",
  "parentHash": "0x67f041b3ce67fcf35e927c49813b072a4adedc5b5353cf1a2422adc8c990fb65",
  "number": 46485,
  "timestamp": 1438923997,
  "nonce": "0x0cfcb8382e00d733",
  "difficulty": 1465361589053,
  "gasLimit": {
    "_hex": "0x6424"
  },
  "gasUsed": {
    "_hex": "0x5208"
  },
  "miner": "0x9746c7e1ef2bd21FF3997fa467593a89cb852BD0",
  "extraData": "0x476574682f76312e302e312f77696e646f77732f676f312e342e32",
  "transactions": [
    {
      "hash": "0x983d8a7329eb37c88a4d74d9c8eabbc3026c66df1fdd5c0a7e86ad055d64052e",
      "blockHash": "0x0e3017fe2d719b81350b0adaed9de972795c5734fb793882e9ebbb80312eba4d",
      "blockNumber": 46485,
      "transactionIndex": 0,
      "confirmations": null,
      "from": "0x2A3A69c490DD4c3b15959D4dF6531d37E4F3e0d6",
      "gasPrice": {
        "_hex": "0x746a528800"
      },
      "gasLimit": {
        "_hex": "0x5208"
      },
      "to": "0xF6e1652a0397E078f434d6DDa181b218CFd42e09",
      "value": {
        "_hex": "0x2386f26fc10000"
      },
      "nonce": 0,
      "data": "0x",
      "r": "0x6086d9f1ec3181f731fda058188486f06b99d6ef8dde572e9acefb6469f2c79f",
      "s": "0x3770aa5253e88936f84c5147bc46ba03d5e0c3ba93a9c9b57ddf58a43027a077",
      "v": 28,
      "creates": null,
      "raw": "0xf86b8085746a52880082520894f6e1652a0397e078f434d6dda181b218cfd42e09872386f26fc10000801ca06086d9f1ec3181f731fda058188486f06b99d6ef8dde572e9acefb6469f2c79fa03770aa5253e88936f84c5147bc46ba03d5e0c3ba93a9c9b57ddf58a43027a077",
      "networkId": 0,
      "chainId": 0
    }
  ]
}