{
  "hash": "0x4e3c23967f006c64833afbc3892cee1bdf714894c9e864878670a1ab3ae33260",
  "parentHash": "0x48115e3740c49e3901222fca18f7c57f341179c427940e5ef55737a6eb5a34b5",
  "number": 49205,
  "timestamp": 1438969803,
  "nonce": "0x7a047a150f5b1773",
  "difficulty": 1479262136347,
  "gasLimit": {
    "_hex": "0x28cb9"
  },
  "gasUsed": {
    "_hex": "0xa674"
  },
  "miner": "0xe6A7a1d47ff21B6321162AEA7C6CB457D5476Bca",
  "extraData": "0x657468706f6f6c2e6f7267",
  "transactions": [
    {
      "hash": "0x3eb67054cf7a1f238d0e479b378d7f36878344aaeaa60a844991fbbc3daed1de",
      "blockHash": "0x4e3c23967f006c64833afbc3892cee1bdf714894c9e864878670a1ab3ae33260",
      "blockNumber": 49205,
      "transactionIndex": 0,
      "confirmations": null,
      "from": "0xC36668c8176255Da85D6949D7c719760D09E35Ee",
      "gasPrice": {
        "_hex": "0xdcd7b584e"
      },
      "gasLimit": {
        "_hex": "0x5208"
      },
      "to": "0xBFdD9820a04283b289957956353b5F3C1F665EcF",
      "value": {
        "_hex": "0x5e05a29ac14580000"
      },
      "nonce": 0,
      "data": "0x",
      "r": "0x75762d3d7e1927c4bfd30996351b206564eb833fdd84136e58621c297bb72ba9",
      "s": "0x32692d805387256d01860e64ed5947bc7346c02acd62da4a5dd5d2e7c2ce96ea",
      "v": 28,
      "creates": null,
      "raw": "0xf86d80850dcd7b584e82520894bfdd9820a04283b289957956353b5f3c1f665ecf8905e05a29ac14580000801ca075762d3d7e1927c4bfd30996351b206564eb833fdd84136e58621c297bb72ba9a032692d805387256d01860e64ed5947bc7346c02acd62da4a5dd5d2e7c2ce96ea",
      "networkId": 0,
      "chainId": 0
    },
    {
      "hash": "0x026d42fb36828bb482c5a37d2c7f64d611685257013602cc9f2653b988199ec7",
      "blockHash": "0x4e3c23967f006c64833afbc3892cee1bdf714894c9e864878670a1ab3ae33260",
      "blockNumber": 49205,
      "transactionIndex": 1,
      "confirmations": null,
      "from": "0x4e5C9FD685DCC9AbEDe1Cbde4959039388bf7c5A",
      "gasPrice": {
        "_hex": "0xcbc7685ee"
      },
      "gasLimit": {
        "_hex": "0x15f90"
      },
      "to": "0x2910543Af39abA0Cd09dBb2D50200b3E800A63D2",
      "value": {
        "_hex": "0x4563918244f40000"
      },
      "nonce": 1,
      "data": "0x454e4a3536524b5052",
      "r": "0x10783a10dd27e04e996a7843c88c199d64f99277c7c6992c06d5bb16debf440a",
      "s": "0x7571af3d8643a469daf0e17f16f3712d56aa1f4f169b8fbedc653a344675f08b",
      "v": 27,
      "creates": null,
      "raw": "0xf87601850cbc7685ee83015f90942910543af39aba0cd09dbb2d50200b3e800a63d2884563918244f4000089454e4a3536524b50521ba010783a10dd27e04e996a7843c88c199d64f99277c7c6992c06d5bb16debf440aa07571af3d8643a469daf0e17f16f3712d56aa1f4f169b8fbedc653a344675f08b",
      "networkId": 0,
      "chainId": 0
    }
  ]
}