{
  "hash": "0x2828fe30420390dc7390a353d67a11a69f3f3d7900a3e9390f705dc64d37509d",
  "parentHash": "0x92953364e493d81550f4834d241e05015063085ad9573077eeb5357b1cd522bd",
  "number": 58475,
  "timestamp": 1439121239,
  "nonce": "0x118fb44e7cc783c9",
  "difficulty": 1715753617133,
  "gasLimit": {
    "_hex": "0x2fefd8"
  },
  "gasUsed": {
    "_hex": "0x5208"
  },
  "miner": "0x93641e54c9aA6F9038FE7Adb03629a1747326Cd6",
  "extraData": "0x476574682f76312e302e312f77696e646f77732f676f312e342e32",
  "transactions": [
    {
      "hash": "0xa34515f6fabd08b372cbc7dee430b31be323504cfc9b3dc98cd07b43061b3f14",
      "blockHash": "0x2828fe30420390dc7390a353d67a11a69f3f3d7900a3e9390f705dc64d37509d",
      "blockNumber": 58475,
      "transactionIndex": 0,
      "confirmations": null,
      "from": "0xD20654d200807101bB76403d2Ee893eD43e2fDa0",
      "gasPrice": {
        "_hex": "0xd2e780ab7"
      },
      "gasLimit": {
        "_hex": "0x5208"
      },
      "to": "0x32Be343B94f860124dC4fEe278FDCBD38C102D88",
      "value": {
        "_hex": "0x15af193f6932140000"
      },
      "nonce": 2,
      "data": "0x",
      "r": "0xadcacd084616e4273e861888c4271497b800d401549c1f52b284a50452693ba0",
      "s": "0x5b3f0ca6fdd4515d3edb3ac976fd38701cb12939c58589414a6e23bfc36eae53",
      "v": 27,
      "creates": null,
      "raw": "0xf86d02850d2e780ab78252089432be343b94f860124dc4fee278fdcbd38c102d888915af193f6932140000801ba0adcacd084616e4273e861888c4271497b800d401549c1f52b284a50452693ba0a05b3f0ca6fdd4515d3edb3ac976fd38701cb12939c58589414a6e23bfc36eae53",
      "networkId": 0,
      "chainId": 0
    }
  ]
}