{
  "hash": "0x95d5e92306447b4624a6f9bb09ce7ac89d531c03b287a686fe6d228e3d71ce97",
  "parentHash": "0x5569d78fa4ab44e3895689ae489b8df8fd3a1c2e6e7759773aa515a06739b330",
  "number": 85514,
  "timestamp": 1439564831,
  "nonce": "0x65be4abb3d671489",
  "difficulty": 2761110778401,
  "gasLimit": {
    "_hex": "0x2fefd8"
  },
  "gasUsed": {
    "_hex": "0x5208"
  },
  "miner": "0x88D74a59454F6cF3B51ef6b9136AFb6b9D405A88",
  "extraData": "0x476574682f76312e302e312d38326566323666362f6c696e75782f676f312e34",
  "transactions": [
    {
      "hash": "0x83c4337618b89e5a8c07fc0c23cf5fce60fe373d1731dac7af0c40e97ee144c3",
      "blockHash": "0x95d5e92306447b4624a6f9bb09ce7ac89d531c03b287a686fe6d228e3d71ce97",
      "blockNumber": 85514,
      "transactionIndex": 0,
      "confirmations": null,
      "from": "0x738e836870D34d909F8De81Ae8c759cf55f4EAaF",
      "gasPrice": {
        "_hex": "0xd43cdb582"
      },
      "gasLimit": {
        "_hex": "0x5208"
      },
      "to": "0x32Be343B94f860124dC4fEe278FDCBD38C102D88",
      "value": {
        "_hex": "0x109a124bba769500000"
      },
      "nonce": 6,
      "data": "0x",
      "r": "0xf1e9d2c8d85b44463a7e2bd3d31f839a4d16ac4769904b52c1492238214f2be4",
      "s": "0x3fe2b80dfb6260a8fd8338a6ca46dcb9cb657fee3510b187b6db09c4f43ea4b7",
      "v": 28,
      "creates": null,
      "raw": "0xf86e06850d43cdb5828252089432be343b94f860124dc4fee278fdcbd38c102d888a0109a124bba769500000801ca0f1e9d2c8d85b44463a7e2bd3d31f839a4d16ac4769904b52c1492238214f2be4a03fe2b80dfb6260a8fd8338a6ca46dcb9cb657fee3510b187b6db09c4f43ea4b7",
      "networkId": 0,
      "chainId": 0
    }
  ]
}