{
  "hash": "0x5e09faca3772fe6413ff30b3c62abe5996b2f8aa5137cb85dce36cdad9ff0dc5",
  "parentHash": "0x3bd2e949468e8f953f8f40837f92fe631d1d604e9954363e450f73e6a2193ecd",
  "number": 55277,
  "timestamp": 1439067994,
  "nonce": "0x40982839d473d78e",
  "difficulty": 1642613098228,
  "gasLimit": {
    "_hex": "0x2fefd8"
  },
  "gasUsed": {
    "_hex": "0x2f4d60"
  },
  "miner": "0xEF247E639d49461D25F57e9362CadE3120910Ce0",
  "extraData": "0x476574682f76312e302e312f6c696e75782f676f312e342e32",
  "transactions": [
    {
      "hash": "0xc28611b194209258531d0d8a070adfb07b4e92a0bc476fb7e1d1a5b1199b6ed7",
      "blockHash": "0x5e09faca3772fe6413ff30b3c62abe5996b2f8aa5137cb85dce36cdad9ff0dc5",
      "blockNumber": 55277,
      "transactionIndex": 0,
      "confirmations": null,
      "from": "0x8674c218F0351a62C3BA78C34FD2182A93Da94E2",
      "gasPrice": {
        "_hex": "0xba43b7400"
      },
      "gasLimit": {
        "_hex": "0x2f4d60"
      },
      "to": "0x6517102217a362f2506ED0c137c716f629b1b222",
      "value": {
        "_hex": "0x0"
      },
      "nonce": 50,
      "data": "0xde6f24bb0000000000000000000000008674c218f0351a62c3ba78c34fd2182a93da94e20000000000000000000000000000000000000000000000000000000000000040000000000000000000000000000000000000000000000000000000000000000768656c6c6f322100000000000000000000000000000000000000000000000000",
      "r": "0xcf8fb11d9de5fa34b176480eb11ee0973963b201019061f8a2853509e50fbe53",
      "s": "0x5948c3f4fbec1b423eed556e439c4039ead86eefa44f8b82a57941492101fbce",
      "v": 27,
      "creates": null,
      "raw": "0xf8ea32850ba43b7400832f4d60946517102217a362f2506ed0c137c716f629b1b22280b884de6f24bb0000000000000000000000008674c218f0351a62c3ba78c34fd2182a93da94e20000000000000000000000000000000000000000000000000000000000000040000000000000000000000000000000000000000000000000000000000000000768656c6c6f3221000000000000000000000000000000000000000000000000001ba0cf8fb11d9de5fa34b176480eb11ee0973963b201019061f8a2853509e50fbe53a05948c3f4fbec1b423eed556e439c4039ead86eefa44f8b82a57941492101fbce",
      "networkId": 0,
      "chainId": 0
    }
  ]
}