{
  "hash": "0x6ce2a8ace68a752ed16862296c2d177b1acf32cc0148c9c1d2d0e1e7c3951b29",
  "parentHash": "0xa5d68b0e68fc0cf2a67f44eb7943ea3f2bafaf3b1fb681c69a1164bd3b9724b6",
  "number": 80438,
  "timestamp": 1439485524,
  "nonce": "0x4d12ae122ae0c22e",
  "difficulty": 2402691849033,
  "gasLimit": {
    "_hex": "0x2fefd8"
  },
  "gasUsed": {
    "_hex": "0x5208"
  },
  "miner": "0xF2d2AfF1320476cb8C6b607199D23175cc595693",
  "extraData": "0x476574682f76312e302e312f77696e646f77732f676f312e342e32",
  "transactions": [
    {
      "hash": "0x6d31d725f91acdc8ba65f4a7299a22fa1369acf08275b98feee6041c39c68138",
      "blockHash": "0x6ce2a8ace68a752ed16862296c2d177b1acf32cc0148c9c1d2d0e1e7c3951b29",
      "blockNumber": 80438,
      "transactionIndex": 0,
      "confirmations": null,
      "from": "0x2910543Af39abA0Cd09dBb2D50200b3E800A63D2",
      "gasPrice": {
        "_hex": "0xcef904a49"
      },
      "gasLimit": {
        "_hex": "0x5208"
      },
      "to": "0x9653c9859b18f8777Fe4eEc9a67c9F64F3D6F62a",
      "value": {
        "_hex": "0x1b3f0e5bccf13c000"
      },
      "nonce": 392,
      "data": "0x",
      "r": "0xe981fa84421cd9fa46118df9ec4a14b0f2f5389e54e58f7b195b4ee8a2511070",
      "s": "0x6a2456f61ae74161c5852eebc49288132055eb0024af6121d6a705cce9a51b88",
      "v": 28,
      "creates": null,
      "raw": "0xf86f820188850cef904a49825208949653c9859b18f8777fe4eec9a67c9f64f3d6f62a8901b3f0e5bccf13c000801ca0e981fa84421cd9fa46118df9ec4a14b0f2f5389e54e58f7b195b4ee8a2511070a06a2456f61ae74161c5852eebc49288132055eb0024af6121d6a705cce9a51b88",
      "networkId": 0,
      "chainId": 0
    }
  ]
}