{
  "hash": "0x8e651e9dd45e9a6857a297fe7b1276358970338821451dbc7dc1da0be5cab21b",
  "parentHash": "0x6cf20fa7d91d22d7083ed5eae53b7e24160d66f9387a3f51f3b43e7b5ee670f0",
  "number": 80566,
  "timestamp": 1439487400,
  "nonce": "0x0c7f36020786efd9",
  "difficulty": 2419135855367,
  "gasLimit": {
    "_hex": "0x2fefd8"
  },
  "gasUsed": {
    "_hex": "0x1b4ad"
  },
  "miner": "0xA21Ba94e45f0E168dA824fC67aC9cb5Cb577a8aF",
  "extraData": "0x",
  "transactions": [
    {
      "hash": "0xdc5e1333e27a6c0ed6e5b9ec1d73af5a2bcf4e401aff8581f7b293a17e22da08",
      "blockHash": "0x8e651e9dd45e9a6857a297fe7b1276358970338821451dbc7dc1da0be5cab21b",
      "blockNumber": 80566,
      "transactionIndex": 0,
      "confirmations": null,
      "from": "0x87C5B5874A18B4306DF8a752a6C8cc3E82daFc19",
      "gasPrice": {
        "_hex": "0x1136f41f348"
      },
      "gasLimit": {
        "_hex": "0x493e0"
      },
      "to": "0xC4c51de1AbF5D60DBd329eC0F999Fd8f021ae9fC",
      "value": {
        "_hex": "0x32830b185c04dfb"
      },
      "nonce": 247,
      "data": "0x8d2161860000000000000000000000000000000000000000000000000000000000000006d3d96ceed0cfca4794c2a5a3d3aeefe69da0a2a669e66a5651f30b64831c3db0",
      "r": "0xd24a780293bcf42f69f11548b6e2823c2b05aff0d5723148e766be301df58566",
      "s": "0x796436b6f1babcdf764cbca455a6d8afee4da6bdfcb3b6b4405be5e5c8a8022a",
      "v": 28,
      "creates": null,
      "raw": "0xf8b481f78601136f41f348830493e094c4c51de1abf5d60dbd329ec0f999fd8f021ae9fc88032830b185c04dfbb8448d2161860000000000000000000000000000000000000000000000000000000000000006d3d96ceed0cfca4794c2a5a3d3aeefe69da0a2a669e66a5651f30b64831c3db01ca0d24a780293bcf42f69f11548b6e2823c2b05aff0d5723148e766be301df58566a0796436b6f1babcdf764cbca455a6d8afee4da6bdfcb3b6b4405be5e5c8a8022a",
      "networkId": 0,
      "chainId": 0
    }
  ]
}