{
  "hash": "0xfc89a70655a1fbaa5b132053311b6822da55965e426a89927b03942d1a902a50",
  "parentHash": "0x4ec6a05723893215dedba60063865305e8da183d76f234b41e3b7f34e19487aa",
  "number": 78854,
  "timestamp": 1439460501,
  "nonce": "0x5db5021a3e8ab6f1",
  "difficulty": 2288623193649,
  "gasLimit": {
    "_hex": "0x2fefd8"
  },
  "gasUsed": {
    "_hex": "0x546c"
  },
  "miner": "0xf8E0CA3Ed80bd541b94BEdCf259e8CF2141A9523",
  "extraData": "0x476574682f76312e302e312f77696e646f77732f676f312e342e32",
  "transactions": [
    {
      "hash": "0xd35f81e23f53307289a9d760f1a62bfa0c39de1e0e60c40ea2cff6c9fbbcf264",
      "blockHash": "0xfc89a70655a1fbaa5b132053311b6822da55965e426a89927b03942d1a902a50",
      "blockNumber": 78854,
      "transactionIndex": 0,
      "confirmations": null,
      "from": "0x00bD7514616c0E4Dd28F5B351090ABAD03F104C8",
      "gasPrice": {
        "_hex": "0xd253d0d92"
      },
      "gasLimit": {
        "_hex": "0x55f0"
      },
      "to": "0x2910543Af39abA0Cd09dBb2D50200b3E800A63D2",
      "value": {
        "_hex": "0x4563918244f40000"
      },
      "nonce": 4,
      "data": "0x454e503330514a3547",
      "r": "0x477a6822bd7632e8d9016b5dd5c314f2147dee94e3d848440ff60765589bbf4b",
      "s": "0x34c2af4ea7d3e72957214f6c425fa0337312c9ce700ec6cc36e796c54ab098ce",
      "v": 27,
      "creates": null,
      "raw": "0xf87504850d253d0d928255f0942910543af39aba0cd09dbb2d50200b3e800a63d2884563918244f4000089454e503330514a35471ba0477a6822bd7632e8d9016b5dd5c314f2147dee94e3d848440ff60765589bbf4ba034c2af4ea7d3e72957214f6c425fa0337312c9ce700ec6cc36e796c54ab098ce",
      "networkId": 0,
      "chainId": 0
    }
  ]
}