{
  "hash": "0x2a499419cba51e348084e2fdd3702b3f898f0194317ffb0d179e6f86afb84825",
  "parentHash": "0x3810d1c1efbd984f690c8cdea19763984a9b366f0761caf3feade32e7c746207",
  "number": 111521,
  "timestamp": 1439991602,
  "nonce": "0x4eeb7f2465ff41c6",
  "difficulty": 4452607357738,
  "gasLimit": {
    "_hex": "0x2fefd8"
  },
  "gasUsed": {
    "_hex": "0x5208"
  },
  "miner": "0xeB1325C8D9d3ea8D74aC11F4B00F1B2367686319",
  "extraData": "0x",
  "transactions": [
    {
      "hash": "0x6b5d70bcef2f445efebb51a5aa3547dfc7813f8bbcde1fa050ac734fe45b356a",
      "blockHash": "0x2a499419cba51e348084e2fdd3702b3f898f0194317ffb0d179e6f86afb84825",
      "blockNumber": 111521,
      "transactionIndex": 0,
      "confirmations": null,
      "from": "0x229f76DdF9053EEb247D1aB455af64e6D26029b8",
      "gasPrice": {
        "_hex": "0xd641f460d"
      },
      "gasLimit": {
        "_hex": "0x15f90"
      },
      "to": "0xDA4E0Ba268486216E0B3Ad5ccEAa1E7EdB1C2751",
      "value": {
        "_hex": "0x18cc41586106b0000"
      },
      "nonce": 3,
      "data": "0x",
      "r": "0xecd7eb961308854bf5298f654b2682a879631df31abdfb10ec5aefeb898c8254",
      "s": "0x61a48446cb7c40804789454ed49324210d889b5d7e9674ca3305a4fc5b949ffa",
      "v": 27,
      "creates": null,
      "raw": "0xf86e03850d641f460d83015f9094da4e0ba268486216e0b3ad5cceaa1e7edb1c275189018cc41586106b0000801ba0ecd7eb961308854bf5298f654b2682a879631df31abdfb10ec5aefeb898c8254a061a48446cb7c40804789454ed49324210d889b5d7e9674ca3305a4fc5b949ffa",
      "networkId": 0,
      "chainId": 0
    }
  ]
}