{
  "hash": "0xa6b41eefb420462325caf00f1216672ae2d58dfd0dfdb8d23700b6d25aeb5bb8",
  "parentHash": "0x32b1546646ce1275a9a6f8c02f3f9487866f87f61c0b9ae744580ce44790d579",
  "number": 121542,
  "timestamp": 1440178509,
  "nonce": "0x359a3d06ccb6b932",
  "difficulty": 4466878233386,
  "gasLimit": {
    "_hex": "0x2fefd8"
  },
  "gasUsed": {
    "_hex": "0x5208"
  },
  "miner": "0xe6A7a1d47ff21B6321162AEA7C6CB457D5476Bca",
  "extraData": "0xd783010002844765746887676f312e342e32856c696e7578",
  "transactions": [
    {
      "hash": "0x6b155e725424cd38f7a08b9fc2f194ca6ce038eda7650fde3c15ab88c948564d",
      "blockHash": "0xa6b41eefb420462325caf00f1216672ae2d58dfd0dfdb8d23700b6d25aeb5bb8",
      "blockNumber": 121542,
      "transactionIndex": 0,
      "confirmations": null,
      "from": "0x4B5C8DDb3Ba75912c33F9B2e3300655a2FBf44aC",
      "gasPrice": {
        "_hex": "0xba43b7400"
      },
      "gasLimit": {
        "_hex": "0x5208"
      },
      "to": "0x32Be343B94f860124dC4fEe278FDCBD38C102D88",
      "value": {
        "_hex": "0x6eca061a6ae6000"
      },
      "nonce": 0,
      "data": "0x",
      "r": "0x463b3b8057a686c71e867e60a34464cfdebb403c66418c6d2fb6a77a2db782f0",
      "s": "0x4aa2e2be360fb85611baa87a8c77a459b62d269667164e652c5e5ae324aa421e",
      "v": 28,
      "creates": null,
      "raw": "0xf86c80850ba43b74008252089432be343b94f860124dc4fee278fdcbd38c102d888806eca061a6ae6000801ca0463b3b8057a686c71e867e60a34464cfdebb403c66418c6d2fb6a77a2db782f0a04aa2e2be360fb85611baa87a8c77a459b62d269667164e652c5e5ae324aa421e",
      "networkId": 0,
      "chainId": 0
    }
  ]
}