{
  "hash": "0xe5bff4164837fdd48d23d7879f57d3a241c3566d1192d45a2aefa98da4735d3f",
  "parentHash": "0x985d6883802ac9650c7ca35c0c50a2c3d8f885c8330ac4ec28d4438770e96599",
  "number": 110369,
  "timestamp": 1439972642,
  "nonce": "0x057f12ea551cca64",
  "difficulty": 4362823164795,
  "gasLimit": {
    "_hex": "0x2fefd8"
  },
  "gasUsed": {
    "_hex": "0x19a28"
  },
  "miner": "0xe6A7a1d47ff21B6321162AEA7C6CB457D5476Bca",
  "extraData": "0x476574682f76312e302e312d38326566323666362f6c696e75782f676f312e34",
  "transactions": [
    {
      "hash": "0x9f36e45fd902d0d563562836a9d834c16caa47ae96f29793a208e1b1900db109",
      "blockHash": "0xe5bff4164837fdd48d23d7879f57d3a241c3566d1192d45a2aefa98da4735d3f",
      "blockNumber": 110369,
      "transactionIndex": 0,
      "confirmations": null,
      "from": "0x36c510bf8d6e569BF2F37d47265dbcB502Ff2BcE",
      "gasPrice": {
        "_hex": "0xded01fcda"
      },
      "gasLimit": {
        "_hex": "0x15f90"
      },
      "to": "0x7BD85B8e7546f88b3560CC11380C61eb7c9F95db",
      "value": {
        "_hex": "0x8ac7230489e80000"
      },
      "nonce": 6,
      "data": "0x",
      "r": "0x474900cb494fffc73ebd12ed05617242463f9a4126de4e81a8b215bd80789185",
      "s": "0x121a205a3c2d6700a76697ad8c39fbc6745e60d77e89beb012c68dc9f5f8d19d",
      "v": 27,
      "creates": null,
      "raw": "0xf86d06850ded01fcda83015f90947bd85b8e7546f88b3560cc11380c61eb7c9f95db888ac7230489e80000801ba0474900cb494fffc73ebd12ed05617242463f9a4126de4e81a8b215bd80789185a0121a205a3c2d6700a76697ad8c39fbc6745e60d77e89beb012c68dc9f5f8d19d",
      "networkId": 0,
      "chainId": 0
    },
    {
      "hash": "0x30127b0101ab437a9adbfa35ec9f6bd89a4151c9f14f73e8f738978e828f463a",
      "blockHash": "0xe5bff4164837fdd48d23d7879f57d3a241c3566d1192d45a2aefa98da4735d3f",
      "blockNumber": 110369,
      "transactionIndex": 1,
      "confirmations": null,
      "from": "0xbAeF66124E137Eb5eE0DE1BbAB5a30002508a1bf",
      "gasPrice": {
        "_hex": "0xcf5eb52cf"
      },
      "gasLimit": {
        "_hex": "0x15f90"
      },
      "to": "0xAF17A4ab5d6B10055Fc1eB1BFaCcbDe69B83aF76",
      "value": {
        "_hex": "0x4a97d605a3b980000"
      },
      "nonce": 5,
      "data": "0x",
      "r": "0x671efb880399749ebb7a9cadada825b277ea52c9bd057aeb0ad30343014bb238",
      "s": "0x0270dc4b57691352d4a38fc9b500f320b4e1fb8c37c5b3f683c3a3421cfaac38",
      "v": 28,
      "creates": null,
      "raw": "0xf86e05850cf5eb52cf83015f9094af17a4ab5d6b10055fc1eb1bfaccbde69b83af768904a97d605a3b980000801ca0671efb880399749ebb7a9cadada825b277ea52c9bd057aeb0ad30343014bb238a00270dc4b57691352d4a38fc9b500f320b4e1fb8c37c5b3f683c3a3421cfaac38",
      "networkId": 0,
      "chainId": 0
    },
    {
      "hash": "0x9e7d18de4be280f05ddfab865b29cbfe929582df6803ca7787ec52868f8b3c4f",
      "blockHash": "0xe5bff4164837fdd48d23d7879f57d3a241c3566d1192d45a2aefa98da4735d3f",
      "blockNumber": 110369,
      "transactionIndex": 2,
      "confirmations": null,
      "from": "0xf79785E5a846aCea08F94379fCCe79B1054bDB99",
      "gasPrice": {
        "_hex": "0xcc661f602"
      },
      "gasLimit": {
        "_hex": "0x5208"
      },
      "to": "0x32Be343B94f860124dC4fEe278FDCBD38C102D88",
      "value": {
        "_hex": "0x12e460bda4a38e000"
      },
      "nonce": 14,
      "data": "0x",
      "r": "0x3e42675f0d95d94309433ace7e1a30fb17efcea70446d7ca6e06843f5fbb5100",
      "s": "0x310434f71a5228e1b4abeba4891fe74599da802c64fb0c27bc7dab2dabb635ef",
      "v": 27,
      "creates": null,
      "raw": "0xf86d0e850cc661f6028252089432be343b94f860124dc4fee278fdcbd38c102d8889012e460bda4a38e000801ba03e42675f0d95d94309433ace7e1a30fb17efcea70446d7ca6e06843f5fbb5100a0310434f71a5228e1b4abeba4891fe74599da802c64fb0c27bc7dab2dabb635ef",
      "networkId": 0,
      "chainId": 0
    },
    {
      "hash": "0x2a17f4bedb57c935f1bb98bf7df2d9c0f7fed3c2a25f80749422b7560d66fcd9",
      "blockHash": "0xe5bff4164837fdd48d23d7879f57d3a241c3566d1192d45a2aefa98da4735d3f",
      "blockNumber": 110369,
      "transactionIndex": 3,
      "confirmations": null,
      "from": "0xc7704Fc5c51C7a5f1a6574b0014b58C8915BA55C",
      "gasPrice": {
        "_hex": "0xcc661f602"
      },
      "gasLimit": {
        "_hex": "0x5208"
      },
      "to": "0x32Be343B94f860124dC4fEe278FDCBD38C102D88",
      "value": {
        "_hex": "0x1850f1a6824be5000"
      },
      "nonce": 7,
      "data": "0x",
      "r": "0x823ee6edc7ab00fc59ddd7bccd3e81aaa1999bfd9fda0c5741713d68c03f3d56",
      "s": "0x534de0ab0c89d1bcfc3aaa978c1414961c24d708898db845694ddc7d809a99bf",
      "v": 28,
      "creates": null,
      "raw": "0xf86d07850cc661f6028252089432be343b94f860124dc4fee278fdcbd38c102d888901850f1a6824be5000801ca0823ee6edc7ab00fc59ddd7bccd3e81aaa1999bfd9fda0c5741713d68c03f3d56a0534de0ab0c89d1bcfc3aaa978c1414961c24d708898db845694ddc7d809a99bf",
      "networkId": 0,
      "chainId": 0
    },
    {
      "hash": "0xd797c672e2d7961583773246d92f0807d9be79f06d6d510958cf4e9c82f104ac",
      "blockHash": "0xe5bff4164837fdd48d23d7879f57d3a241c3566d1192d45a2aefa98da4735d3f",
      "blockNumber": 110369,
      "transactionIndex": 4,
      "confirmations": null,
      "from": "0xF7e66D2622220807d8696064E94ca24b1dC6e7Da",
      "gasPrice": {
        "_hex": "0xcc661f602"
      },
      "gasLimit": {
        "_hex": "0x5208"
      },
      "to": "0x32Be343B94f860124dC4fEe278FDCBD38C102D88",
      "value": {
        "_hex": "0x22387972cf824400"
      },
      "nonce": 16,
      "data": "0x",
      "r": "0x1286f4961089b20d6667d1174de5aea91774ca3c50f8529fa0893ac89aa66c55",
      "s": "0x23c2c62c39a8c56921f829626c007d529602eae4aed8c4aca954df51d82ebd3f",
      "v": 27,
      "creates": null,
      "raw": "0xf86c10850cc661f6028252089432be343b94f860124dc4fee278fdcbd38c102d888822387972cf824400801ba01286f4961089b20d6667d1174de5aea91774ca3c50f8529fa0893ac89aa66c55a023c2c62c39a8c56921f829626c007d529602eae4aed8c4aca954df51d82ebd3f",
      "networkId": 0,
      "chainId": 0
    }
  ]
}