{
  "hash": "0x95ac4ad6e7a2f8801c4d5c45381a7e747341b9752a08d53bdc62668b7c4a440b",
  "parentHash": "0x355953e5299018c17f00f6a3678cf649ace69a46ffc669b33ed26ab1117c4d27",
  "number": 53936,
  "timestamp": 1439046035,
  "nonce": "0xea14ea955c55df66",
  "difficulty": 1604035117498,
  "gasLimit": {
    "_hex": "0x2fe41a"
  },
  "gasUsed": {
    "_hex": "0xa410"
  },
  "miner": "0xeB1325C8D9d3ea8D74aC11F4B00F1B2367686319",
  "extraData": "0x476574682f76312e302e312f77696e646f77732f676f312e342e32",
  "transactions": [
    {
      "hash": "0x0eb497686c196289360ceea103932c1659628b10e48404afb1beeea953d7864b",
      "blockHash": "0x95ac4ad6e7a2f8801c4d5c45381a7e747341b9752a08d53bdc62668b7c4a440b",
      "blockNumber": 53936,
      "transactionIndex": 0,
      "confirmations": null,
      "from": "0xA6745A30DeC47EAec79E7a33ff221fc9CbF6615E",
      "gasPrice": {
        "_hex": "0xba43b7400"
      },
      "gasLimit": {
        "_hex": "0x5b04"
      },
      "to": "0x50851F0A477440DdfD402D389A84CA4a91A52AD6",
      "value": {
        "_hex": "0x8ac7230489e80000"
      },
      "nonce": 2,
      "data": "0x",
      "r": "0x9b8d48317c39f55933ea8b2de894a0ca3fefa49eff0d609e00454f214bc7fe19",
      "s": "0xdd1cbd2964b4a9d7c941a88a4e72fd3a61cfe548a762dd1ff97df773f65a8777",
      "v": 28,
      "creates": null,
      "raw": "0xf86c02850ba43b7400825b049450851f0a477440ddfd402d389a84ca4a91a52ad6888ac7230489e80000801ca09b8d48317c39f55933ea8b2de894a0ca3fefa49eff0d609e00454f214bc7fe19a0dd1cbd2964b4a9d7c941a88a4e72fd3a61cfe548a762dd1ff97df773f65a8777",
      "networkId": 0,
      "chainId": 0
    },
    {
      "hash": "0x6d41d721cbd999c219a611ad03d51afdda7b02375964558a1d2d39ac28e17c4d",
      "blockHash": "0x95ac4ad6e7a2f8801c4d5c45381a7e747341b9752a08d53bdc62668b7c4a440b",
      "blockNumber": 53936,
      "transactionIndex": 1,
      "confirmations": null,
      "from": "0xA6745A30DeC47EAec79E7a33ff221fc9CbF6615E",
      "gasPrice": {
        "_hex": "0xba43b7400"
      },
      "gasLimit": {
        "_hex": "0x5b04"
      },
      "to": "0x50851F0A477440DdfD402D389A84CA4a91A52AD6",
      "value": {
        "_hex": "0x8ac7230489e80000"
      },
      "nonce": 3,
      "data": "0x",
      "r": "0x66916e4baddc1b67582fdeea84de1511e059aaf0ad19bcd9a47cb8d1f7bb4ab9",
      "s": "0x1ee335dcaa952a82baaf615aea28228709d864bd8a175192794de4ab80e2e13f",
      "v": 28,
      "creates": null,
      "raw": "0xf86c03850ba43b7400825b049450851f0a477440ddfd402d389a84ca4a91a52ad6888ac7230489e80000801ca066916e4baddc1b67582fdeea84de1511e059aaf0ad19bcd9a47cb8d1f7bb4ab9a01ee335dcaa952a82baaf615aea28228709d864bd8a175192794de4ab80e2e13f",
      "networkId": 0,
      "chainId": 0
    }
  ]
}