{
  "hash": "0xec09d8837d4b5e8c5d239f381ec0134fc46b1dacc639d1b81b26655f53aee5d1",
  "parentHash": "0x24a50eec94dd1dfbd4ac94e90e9984bc8289ef247b9b8710dc454de9e4e8e243",
  "number": 72467,
  "timestamp": 1439353058,
  "nonce": "0x88ea338457ab7edb",
  "difficulty": 2203699588889,
  "gasLimit": {
    "_hex": "0x2fefd8"
  },
  "gasUsed": {
    "_hex": "0x5208"
  },
  "miner": "0xe6A7a1d47ff21B6321162AEA7C6CB457D5476Bca",
  "extraData": "0x476574682f76312e302e312d38326566323666362f6c696e75782f676f312e34",
  "transactions": [
    {
      "hash": "0xedff0630456b41606ba6f1144b5e49af8c1fa3f5d1586a5264a60d999363ae3e",
      "blockHash": "0xec09d8837d4b5e8c5d239f381ec0134fc46b1dacc639d1b81b26655f53aee5d1",
      "blockNumber": 72467,
      "transactionIndex": 0,
      "confirmations": null,
      "from": "0x1308A2e95c0160B90803ddCA9B9a5bb55E416d79",
      "gasPrice": {
        "_hex": "0x9184e72a000"
      },
      "gasLimit": {
        "_hex": "0x15f90"
      },
      "to": "0x00D497b37Ce44e75ACE856c096d52419E2A7375A",
      "value": {
        "_hex": "0x328280b23c6b96c00"
      },
      "nonce": 115,
      "data": "0x",
      "r": "0x6777524e5339ac907095b38a8f10685d2f63d4b187418a7bdfb8d5326e857125",
      "s": "0x5c83528eedd821278645ee747e75580f49a2502379fa0fbd38ce39333292bcc4",
      "v": 27,
      "creates": null,
      "raw": "0xf86f738609184e72a00083015f909400d497b37ce44e75ace856c096d52419e2a7375a890328280b23c6b96c00801ba06777524e5339ac907095b38a8f10685d2f63d4b187418a7bdfb8d5326e857125a05c83528eedd821278645ee747e75580f49a2502379fa0fbd38ce39333292bcc4",
      "networkId": 0,
      "chainId": 0
    }
  ]
}