{
  "hash": "0x8fdd32451d70d933c91623cd23d29481f3400a2e8ebff6b444d5e24868acc597",
  "parentHash": "0x361895c36d6b8d525b4cfef409c94fe5ca7facd45d5ccac9f2a1003f10155d51",
  "number": 71070,
  "timestamp": 1439330021,
  "nonce": "0x3fa5722598502646",
  "difficulty": 2154060992282,
  "gasLimit": {
    "_hex": "0x2fefd8"
  },
  "gasUsed": {
    "_hex": "0x1d6c1"
  },
  "miner": "0xf927a40C8B7F6E07c5af7FA2155B4864a4112B13",
  "extraData": "0x",
  "transactions": [
    {
      "hash": "0xd32124390fdd069a8e57c4d1c2af710865ff8d5273134dd6b1e8f2782ba82cbe",
      "blockHash": "0x8fdd32451d70d933c91623cd23d29481f3400a2e8ebff6b444d5e24868acc597",
      "blockNumber": 71070,
      "transactionIndex": 0,
      "confirmations": null,
      "from": "0x17580B766f7453525ca4C6A88b01b50570EA088C",
      "gasPrice": {
        "_hex": "0xceeac3715"
      },
      "gasLimit": {
        "_hex": "0x61a80"
      },
      "to": "0x5Fe5B7546D1628f7348B023A0393de1FC825A4fD",
      "value": {
        "_hex": "0x8ac7230489e80000"
      },
      "nonce": 99,
      "data": "0xb595b8b50000000000000000000000000000000000000000000000000000000000000001",
      "r": "0x7b361919f90aaef015d25057aa60ff30519a652bb564c18d3bbb26efc831f832",
      "s": "0x6f29aee17d1f267228cf39e8b75dbccac4d2a7dae5264c4984e06a8b9eb8e9af",
      "v": 27,
      "creates": null,
      "raw": "0xf89163850ceeac371583061a80945fe5b7546d1628f7348b023a0393de1fc825a4fd888ac7230489e80000a4b595b8b500000000000000000000000000000000000000000000000000000000000000011ba07b361919f90aaef015d25057aa60ff30519a652bb564c18d3bbb26efc831f832a06f29aee17d1f267228cf39e8b75dbccac4d2a7dae5264c4984e06a8b9eb8e9af",
      "networkId": 0,
      "chainId": 0
    },
    {
      "hash": "0xbebdfa1183373553bc23af3687e8d6ba40d7d8b021a534662f5b008e32e32445",
      "blockHash": "0x8fdd32451d70d933c91623cd23d29481f3400a2e8ebff6b444d5e24868acc597",
      "blockNumber": 71070,
      "transactionIndex": 1,
      "confirmations": null,
      "from": "0x17580B766f7453525ca4C6A88b01b50570EA088C",
      "gasPrice": {
        "_hex": "0xceeac3715"
      },
      "gasLimit": {
        "_hex": "0x61a80"
      },
      "to": "0x5Fe5B7546D1628f7348B023A0393de1FC825A4fD",
      "value": {
        "_hex": "0x8ac7230489e80000"
      },
      "nonce": 100,
      "data": "0xb595b8b50000000000000000000000000000000000000000000000000000000000000001",
      "r": "0x6adb78a117a51b62f29d402adf6d94b7283395fe96bdc76efac128208b02c68b",
      "s": "0x339006f53a464ed68e2d358a8899afc66d9a13e87fba20aa8cf1b94e2db1b542",
      "v": 28,
      "creates": null,
      "raw": "0xf89164850ceeac371583061a80945fe5b7546d1628f7348b023a0393de1fc825a4fd888ac7230489e80000a4b595b8b500000000000000000000000000000000000000000000000000000000000000011ca06adb78a117a51b62f29d402adf6d94b7283395fe96bdc76efac128208b02c68ba0339006f53a464ed68e2d358a8899afc66d9a13e87fba20aa8cf1b94e2db1b542",
      "networkId": 0,
      "chainId": 0
    },
    {
      "hash": "0x33c28481e897447aefddef4f93e67eb194671e684a411a97f7552462171e5d95",
      "blockHash": "0x8fdd32451d70d933c91623cd23d29481f3400a2e8ebff6b444d5e24868acc597",
      "blockNumber": 71070,
      "transactionIndex": 2,
      "confirmations": null,
      "from": "0x17580B766f7453525ca4C6A88b01b50570EA088C",
      "gasPrice": {
        "_hex": "0xceeac3715"
      },
      "gasLimit": {
        "_hex": "0x61a80"
      },
      "to": "0x5Fe5B7546D1628f7348B023A0393de1FC825A4fD",
      "value": {
        "_hex": "0x8ac7230489e80000"
      },
      "nonce": 101,
      "data": "0xb595b8b50000000000000000000000000000000000000000000000000000000000000001",
      "r": "0x85aceee6748859d54f4d5076ec6ab60f7dbaf894b452523282cffec5b1b0b410",
      "s": "0x38f54a0fd03518bcbbcdee86e6959c438d34596210be89e35ff47c66519c6159",
      "v": 27,
      "creates": null,
      "raw": "0xf89165850ceeac371583061a80945fe5b7546d1628f7348b023a0393de1fc825a4fd888ac7230489e80000a4b595b8b500000000000000000000000000000000000000000000000000000000000000011ba085aceee6748859d54f4d5076ec6ab60f7dbaf894b452523282cffec5b1b0b410a038f54a0fd03518bcbbcdee86e6959c438d34596210be89e35ff47c66519c6159",
      "networkId": 0,
      "chainId": 0
    }
  ]
}