{
  "hash": "0x687305e6fcbd87431137c41e8feee6df6eaedcca44d57af8ebb755e2aa6e8ec6",
  "parentHash": "0x678eb4acefb777238cd1cf91a988c226577e5a99861bd2ba54c274cf2d038eed",
  "number": 50359,
  "timestamp": 1438987887,
  "nonce": "0xcb88afa8d7efc5ea",
  "difficulty": 1512655595476,
  "gasLimit": {
    "_hex": "0x5e1a4"
  },
  "gasUsed": {
    "_hex": "0x195b2"
  },
  "miner": "0x19e83223b783b5c6673c06b06E093de7E85F3F87",
  "extraData": "0x",
  "transactions": [
    {
      "hash": "0xcbf49be03454a3e3346bd682d7eb197921ab43ec67f72f5da0bf19782297468b",
      "blockHash": "0x687305e6fcbd87431137c41e8feee6df6eaedcca44d57af8ebb755e2aa6e8ec6",
      "blockNumber": 50359,
      "transactionIndex": 0,
      "confirmations": null,
      "from": "0x17580B766f7453525ca4C6A88b01b50570EA088C",
      "gasPrice": {
        "_hex": "0xd710bf6ac"
      },
      "gasLimit": {
        "_hex": "0x30d40"
      },
      "to": "0xBAA54d6E90c3F4d7Ebec11bD180134C7eD8eBb52",
      "value": {
        "_hex": "0x16345785d8a0000"
      },
      "nonce": 2,
      "data": "0x",
      "r": "0xd0fd4d9e358b062ffbc309f7b4c15c204439d6f4c46363f692561ebae243ce19",
      "s": "0x66f70b1c928445a247fdd92ef41c221d21426b67c988f89a2ea64a9f83c33997",
      "v": 28,
      "creates": null,
      "raw": "0xf86d02850d710bf6ac83030d4094baa54d6e90c3f4d7ebec11bd180134c7ed8ebb5288016345785d8a0000801ca0d0fd4d9e358b062ffbc309f7b4c15c204439d6f4c46363f692561ebae243ce19a066f70b1c928445a247fdd92ef41c221d21426b67c988f89a2ea64a9f83c33997",
      "networkId": 0,
      "chainId": 0
    }
  ]
}