{
  "hash": "0x913ac028932782ee8bd7b3a4f7c54ef99674161213e7c28e02a99f651993fcff",
  "parentHash": "0xf1f7e5f0e7f10c569e0f264672de8d881642c7c052078fc8aaa2d0df55c67131",
  "number": 86571,
  "timestamp": 1439579987,
  "nonce": "0x2c1e4bdf2d973f29",
  "difficulty": 2908836428180,
  "gasLimit": {
    "_hex": "0x2fefd8"
  },
  "gasUsed": {
    "_hex": "0xa410"
  },
  "miner": "0x2f6BCe4fc330B69C9B4c2694d57C63Ec7B18feC7",
  "extraData": "0x476574682f76312e302e312f77696e646f77732f676f312e342e32",
  "transactions": [
    {
      "hash": "0xacbf144e647f414cd479125fd7cff72686531cb9ceb8ee950df1b1dc0d48c0d0",
      "blockHash": "0x913ac028932782ee8bd7b3a4f7c54ef99674161213e7c28e02a99f651993fcff",
      "blockNumber": 86571,
      "transactionIndex": 0,
      "confirmations": null,
      "from": "0x1308A2e95c0160B90803ddCA9B9a5bb55E416d79",
      "gasPrice": {
        "_hex": "0xd1993eb02"
      },
      "gasLimit": {
        "_hex": "0x15f90"
      },
      "to": "0x142e555f7D1147DdA488e4DACB7719bc59bb4ab6",
      "value": {
        "_hex": "0x5b97e9081d940000"
      },
      "nonce": 135,
      "data": "0x",
      "r": "0x849b86f831f1aea37e0ab0fd5fe76bd1b6c5e0cf85ca2d44f5d51fbe1024129b",
      "s": "0x7deba3c781a7b89180108c4046cb40820fe7f22fdf680856a75fb1619a67bb61",
      "v": 27,
      "creates": null,
      "raw": "0xf86e8187850d1993eb0283015f9094142e555f7d1147dda488e4dacb7719bc59bb4ab6885b97e9081d940000801ba0849b86f831f1aea37e0ab0fd5fe76bd1b6c5e0cf85ca2d44f5d51fbe1024129ba07deba3c781a7b89180108c4046cb40820fe7f22fdf680856a75fb1619a67bb61",
      "networkId": 0,
      "chainId": 0
    },
    {
      "hash": "0xcf3f664df003968a948197bf890bddfdd5cc51f59240d225342c459dacd07317",
      "blockHash": "0x913ac028932782ee8bd7b3a4f7c54ef99674161213e7c28e02a99f651993fcff",
      "blockNumber": 86571,
      "transactionIndex": 1,
      "confirmations": null,
      "from": "0x1308A2e95c0160B90803ddCA9B9a5bb55E416d79",
      "gasPrice": {
        "_hex": "0xd1993eb02"
      },
      "gasLimit": {
        "_hex": "0x15f90"
      },
      "to": "0xB7EA4ED2aDf246745A341ba34BFc0dF0a9265Cf3",
      "value": {
        "_hex": "0x8078340d431938400"
      },
      "nonce": 136,
      "data": "0x",
      "r": "0xa2f61402cff183c85ddb9b7dc98f4f25816ba24973e8c1d7361bba66953b1019",
      "s": "0x3ef0648731946f782510ec5ab3f3eedcbfe96950faa90ae1a6510877fe2411df",
      "v": 27,
      "creates": null,
      "raw": "0xf86f8188850d1993eb0283015f9094b7ea4ed2adf246745a341ba34bfc0df0a9265cf38908078340d431938400801ba0a2f61402cff183c85ddb9b7dc98f4f25816ba24973e8c1d7361bba66953b1019a03ef0648731946f782510ec5ab3f3eedcbfe96950faa90ae1a6510877fe2411df",
      "networkId": 0,
      "chainId": 0
    }
  ]
}