{
  "hash": "0x297740dfbe39862ee22d3e57167ea37ee1602d524c9ed5675cfeea2b9ff06794",
  "parentHash": "0xcf157c91a1354971d3ccf45bd84df86f01c97f4595230c01a578876dc5e8cb1a",
  "number": 100086,
  "timestamp": 1439800396,
  "nonce": "0x126d02e5ba518550",
  "difficulty": 3849257752584,
  "gasLimit": {
    "_hex": "0x2fefd8"
  },
  "gasUsed": {
    "_hex": "0x29040"
  },
  "miner": "0xe6A7a1d47ff21B6321162AEA7C6CB457D5476Bca",
  "extraData": "0x476574682f76312e302e312d38326566323666362f6c696e75782f676f312e34",
  "transactions": [
    {
      "hash": "0x3d8f589f9f65bca82e6af7b97ba781ae81ab9b896e5e0ee3eec74a4c9bcda349",
      "blockHash": "0x297740dfbe39862ee22d3e57167ea37ee1602d524c9ed5675cfeea2b9ff06794",
      "blockNumber": 100086,
      "transactionIndex": 0,
      "confirmations": null,
      "from": "0x32Be343B94f860124dC4fEe278FDCBD38C102D88",
      "gasPrice": {
        "_hex": "0xdca996902"
      },
      "gasLimit": {
        "_hex": "0x5208"
      },
      "to": "0x7884D470204862a0d1A21122F41ee77430396Ee5",
      "value": {
        "_hex": "0x6ee22eaacb5f0000"
      },
      "nonce": 1068,
      "data": "0x",
      "r": "0xf3406dd1d1e13bab6786e5e83c1d935fcd4a66305b9260f1fecb33124354c293",
      "s": "0x527ff8c4f4c2a58b5d6f15b2007fb955b3436ca5f950064b069fdbeae8abb48c",
      "v": 28,
      "creates": null,
      "raw": "0xf86e82042c850dca996902825208947884d470204862a0d1a21122f41ee77430396ee5886ee22eaacb5f0000801ca0f3406dd1d1e13bab6786e5e83c1d935fcd4a66305b9260f1fecb33124354c293a0527ff8c4f4c2a58b5d6f15b2007fb955b3436ca5f950064b069fdbeae8abb48c",
      "networkId": 0,
      "chainId": 0
    },
    {
      "hash": "0xceb7f7a0cde102e8c50951d046435fcfb027b905fba52c9f7ed36ae8b9c92017",
      "blockHash": "0x297740dfbe39862ee22d3e57167ea37ee1602d524c9ed5675cfeea2b9ff06794",
      "blockNumber": 100086,
      "transactionIndex": 1,
      "confirmations": null,
      "from": "0x2f86ba8019945f39edE131D38d4d8780884DA553",
      "gasPrice": {
        "_hex": "0xdca996902"
      },
      "gasLimit": {
        "_hex": "0x5208"
      },
      "to": "0x32Be343B94f860124dC4fEe278FDCBD38C102D88",
      "value": {
        "_hex": "0x6c6b7d2cbe27b00000"
      },
      "nonce": 23,
      "data": "0x",
      "r": "0x291c05d164ff39051fc6cd8221cbb045fcf115341f87dfb9fc82165db781df67",
      "s": "0x70b75ef9c64e81f666f4cf6783292a08158ae26fd0878dba1e2684a19aeca7d4",
      "v": 27,
      "creates": null,
      "raw": "0xf86d17850dca9969028252089432be343b94f860124dc4fee278fdcbd38c102d88896c6b7d2cbe27b00000801ba0291c05d164ff39051fc6cd8221cbb045fcf115341f87dfb9fc82165db781df67a070b75ef9c64e81f666f4cf6783292a08158ae26fd0878dba1e2684a19aeca7d4",
      "networkId": 0,
      "chainId": 0
    },
    {
      "hash": "0xf988f3b5f32b94016fe15ed3a0116a4ada3f365c08cd43ff4eca819deff03a04",
      "blockHash": "0x297740dfbe39862ee22d3e57167ea37ee1602d524c9ed5675cfeea2b9ff06794",
      "blockNumber": 100086,
      "transactionIndex": 2,
      "confirmations": null,
      "from": "0xBF7B0E43c329d2cD6864dD8F81c0d79cd2134297",
      "gasPrice": {
        "_hex": "0xdca996902"
      },
      "gasLimit": {
        "_hex": "0x5208"
      },
      "to": "0x32Be343B94f860124dC4fEe278FDCBD38C102D88",
      "value": {
        "_hex": "0x16ecfa299e9fb800"
      },
      "nonce": 2,
      "data": "0x",
      "r": "0x1532017dbef3cf5a9e74c3e3002b286b6feeeba8c3ef874d06e0530f627a3f0d",
      "s": "0x04b9822bbfc292468cbe2934095b6de076bf1c262f349d12f99ed871baa03067",
      "v": 27,
      "creates": null,
      "raw": "0xf86c02850dca9969028252089432be343b94f860124dc4fee278fdcbd38c102d888816ecfa299e9fb800801ba01532017dbef3cf5a9e74c3e3002b286b6feeeba8c3ef874d06e0530f627a3f0da004b9822bbfc292468cbe2934095b6de076bf1c262f349d12f99ed871baa03067",
      "networkId": 0,
      "chainId": 0
    },
    {
      "hash": "0x6e806d3b8547a308415171c34b71f1f3da867cd240003fd17c09612ba1de6d71",
      "blockHash": "0x297740dfbe39862ee22d3e57167ea37ee1602d524c9ed5675cfeea2b9ff06794",
      "blockNumber": 100086,
      "transactionIndex": 3,
      "confirmations": null,
      "from": "0xe7523F78ae9eDb81dC7B2A9ca718Ba3776C14f2e",
      "gasPrice": {
        "_hex": "0xdca996902"
      },
      "gasLimit": {
        "_hex": "0x5208"
      },
      "to": "0x32Be343B94f860124dC4fEe278FDCBD38C102D88",
      "value": {
        "_hex": "0x14268c83ed6531000"
      },
      "nonce": 6,
      "data": "0x",
      "r": "0x4da6223c6cf3af83ef5ab40f560ef9ea616eef4cc7ba01ab96d356a497ad874b",
      "s": "0x71b786b2c1efe21823c3a43145a930f894042d9a0b7d6b6ed2eb620d58ed1b1b",
      "v": 27,
      "creates": null,
      "raw": "0xf86d06850dca9969028252089432be343b94f860124dc4fee278fdcbd38c102d8889014268c83ed6531000801ba04da6223c6cf3af83ef5ab40f560ef9ea616eef4cc7ba01ab96d356a497ad874ba071b786b2c1efe21823c3a43145a930f894042d9a0b7d6b6ed2eb620d58ed1b1b",
      "networkId": 0,
      "chainId": 0
    },
    {
      "hash": "0xbd429ee16c5e243c1e976accd0171154bf99b11aa6b690029c0d80e0adac645e",
      "blockHash": "0x297740dfbe39862ee22d3e57167ea37ee1602d524c9ed5675cfeea2b9ff06794",
      "blockNumber": 100086,
      "transactionIndex": 4,
      "confirmations": null,
      "from": "0x6923f88FCDC5D737237Ba10C2D830Aa40F4634de",
      "gasPrice": {
        "_hex": "0xda35f08d0"
      },
      "gasLimit": {
        "_hex": "0x5208"
      },
      "to": "0x0F87Fb507513e749081E34373c84E95e85b5c057",
      "value": {
        "_hex": "0x437a30dab0f02662"
      },
      "nonce": 6,
      "data": "0x",
      "r": "0xc28a99be737fdab6142f14697b6dc7eade05091f6b1cfb63f2f938ab0bf6cde7",
      "s": "0x1a3b1535f64b324f88d67cd13b70a9fd2f0e7e08cd303708aeefaacf63bf83c1",
      "v": 28,
      "creates": null,
      "raw": "0xf86c06850da35f08d0825208940f87fb507513e749081e34373c84e95e85b5c05788437a30dab0f02662801ca0c28a99be737fdab6142f14697b6dc7eade05091f6b1cfb63f2f938ab0bf6cde7a01a3b1535f64b324f88d67cd13b70a9fd2f0e7e08cd303708aeefaacf63bf83c1",
      "networkId": 0,
      "chainId": 0
    },
    {
      "hash": "0x400471c3d5ccfad6f0d31a6345a360a57a89b442d95ea16b4e43695bf41813e3",
      "blockHash": "0x297740dfbe39862ee22d3e57167ea37ee1602d524c9ed5675cfeea2b9ff06794",
      "blockNumber": 100086,
      "transactionIndex": 5,
      "confirmations": null,
      "from": "0xc8ebccC5F5689Fa8659d83713341e5aD19349448",
      "gasPrice": {
        "_hex": "0xda35f08d0"
      },
      "gasLimit": {
        "_hex": "0x5208"
      },
      "to": "0x0F87Fb507513e749081E34373c84E95e85b5c057",
      "value": {
        "_hex": "0x49e53d8a7b473548"
      },
      "nonce": 73,
      "data": "0x",
      "r": "0x99f1a489e5dc6f7b4080eb63e81cf74d87bf552ededac2809abd0a33e5dc3eef",
      "s": "0x50c31b72f791f7131494d0444e5d213c313879b2757bcebd7c39adde46c96a60",
      "v": 28,
      "creates": null,
      "raw": "0xf86c49850da35f08d0825208940f87fb507513e749081e34373c84e95e85b5c0578849e53d8a7b473548801ca099f1a489e5dc6f7b4080eb63e81cf74d87bf552ededac2809abd0a33e5dc3eefa050c31b72f791f7131494d0444e5d213c313879b2757bcebd7c39adde46c96a60",
      "networkId": 0,
      "chainId": 0
    },
    {
      "hash": "0xcbbaca0490964844dbfeb9f4543517d32b0e94d5514c61e6e19b7cfb822c4116",
      "blockHash": "0x297740dfbe39862ee22d3e57167ea37ee1602d524c9ed5675cfeea2b9ff06794",
      "blockNumber": 100086,
      "transactionIndex": 6,
      "confirmations": null,
      "from": "0x0617194e49BaAD419B57FB8EBba265E417362835",
      "gasPrice": {
        "_hex": "0xda35f08d0"
      },
      "gasLimit": {
        "_hex": "0x5208"
      },
      "to": "0x0F87Fb507513e749081E34373c84E95e85b5c057",
      "value": {
        "_hex": "0x3d6950ca5c903969"
      },
      "nonce": 6,
      "data": "0x",
      "r": "0x19353941eb0ade48c2b783d0f8728b34f6ed89882675b03edf31914b641c85c1",
      "s": "0x04dc864c46a8de5dfc036172dc54f13a058a2ff6e6408d3c8166daa68649a0ee",
      "v": 27,
      "creates": null,
      "raw": "0xf86c06850da35f08d0825208940f87fb507513e749081e34373c84e95e85b5c057883d6950ca5c903969801ba019353941eb0ade48c2b783d0f8728b34f6ed89882675b03edf31914b641c85c1a004dc864c46a8de5dfc036172dc54f13a058a2ff6e6408d3c8166daa68649a0ee",
      "networkId": 0,
      "chainId": 0
    },
    {
      "hash": "0xc99e5dfa3ed061359f8bde5bd9b78790e7a8f5362e163a942f20848d07bdcabf",
      "blockHash": "0x297740dfbe39862ee22d3e57167ea37ee1602d524c9ed5675cfeea2b9ff06794",
      "blockNumber": 100086,
      "transactionIndex": 7,
      "confirmations": null,
      "from": "0x2910543Af39abA0Cd09dBb2D50200b3E800A63D2",
      "gasPrice": {
        "_hex": "0xd64a0dd51"
      },
      "gasLimit": {
        "_hex": "0x5208"
      },
      "to": "0xFD7c9117BbEB649d9b37B3D3C9917f7c12f526B3",
      "value": {
        "_hex": "0x184c001e9e31be8f00"
      },
      "nonce": 947,
      "data": "0x",
      "r": "0xd3ca2a740cf64535ecfcdfaee7cd59037c6298ce3721043ba1b43187acd6ddde",
      "s": "0x16819b2e8c041308cd0e4f86b5c0c8ad56e9c41332083da293373a8166401e55",
      "v": 28,
      "creates": null,
      "raw": "0xf86f8203b3850d64a0dd5182520894fd7c9117bbeb649d9b37b3d3c9917f7c12f526b389184c001e9e31be8f00801ca0d3ca2a740cf64535ecfcdfaee7cd59037c6298ce3721043ba1b43187acd6dddea016819b2e8c041308cd0e4f86b5c0c8ad56e9c41332083da293373a8166401e55",
      "networkId": 0,
      "chainId": 0
    }
  ]
}