{
  "hash": "0x2c02b18022579cd4bf9426ea56828e70440a9a1e916b6df26e21c101e13cd868",
  "parentHash": "0x8dfd9f6877081787da4c2924d0026a5aefc025273ed2250c848933f450e73d1f",
  "number": 102188,
  "timestamp": 1439834164,
  "nonce": "0xd990d9f302c9bc0a",
  "difficulty": 3916537162991,
  "gasLimit": {
    "_hex": "0x2fefd8"
  },
  "gasUsed": {
    "_hex": "0x5208"
  },
  "miner": "0x53824166ea5271d3425e3194c848A90CA4e97eB2",
  "extraData": "0x476574682f76312e302e312f6c696e75782f676f312e342e32",
  "transactions": [
    {
      "hash": "0xf585b1beac17a7bc21f613d3cd897c3969418dc1eb4ada8d401e8cc90d9b9062",
      "blockHash": "0x2c02b18022579cd4bf9426ea56828e70440a9a1e916b6df26e21c101e13cd868",
      "blockNumber": 102188,
      "transactionIndex": 0,
      "confirmations": null,
      "from": "0x645B979F8ce622236DB26feB803455d40C328615",
      "gasPrice": {
        "_hex": "0xd4f7704e9"
      },
      "gasLimit": {
        "_hex": "0x5208"
      },
      "to": "0x32Be343B94f860124dC4fEe278FDCBD38C102D88",
      "value": {
        "_hex": "0x5150aa4af855c40000"
      },
      "nonce": 8,
      "data": "0x",
      "r": "0x4fc28a759af7e93bcea006c9165c0b14d56995d7ce74e1b2a5f249e54a48cd94",
      "s": "0x3c5729469d32f243b2ef6d2f50aa669c544bc812ca27abf11b9223a58acdeec4",
      "v": 28,
      "creates": null,
      "raw": "0xf86d08850d4f7704e98252089432be343b94f860124dc4fee278fdcbd38c102d88895150aa4af855c40000801ca04fc28a759af7e93bcea006c9165c0b14d56995d7ce74e1b2a5f249e54a48cd94a03c5729469d32f243b2ef6d2f50aa669c544bc812ca27abf11b9223a58acdeec4",
      "networkId": 0,
      "chainId": 0
    }
  ]
}