{
  "hash": "0x1e6754fefc509c3cbaa02dcaba540a1f6c1efbb563eb4ae3ec684bc591d66297",
  "parentHash": "0xad3f4c5409a11d0bacefafbd2fb6f1b91e316f4acb40b161bfd9a8ec30dbf131",
  "number": 75815,
  "timestamp": 1439409712,
  "nonce": "0x8a905f8a47a719c1",
  "difficulty": 2226610902802,
  "gasLimit": {
    "_hex": "0x2fefd8"
  },
  "gasUsed": {
    "_hex": "0x70d3"
  },
  "miner": "0x33b01a7fe4A1a5F774Bb73f89A4eF15a6Ffe1141",
  "extraData": "0x476574682f76312e302e312f6c696e75782f676f312e342e32",
  "transactions": [
    {
      "hash": "0x4f75ed5ffdb565449e365c8db99a6675f9772b2f287ea33e6b2e36cde92b1d3d",
      "blockHash": "0x1e6754fefc509c3cbaa02dcaba540a1f6c1efbb563eb4ae3ec684bc591d66297",
      "blockNumber": 75815,
      "transactionIndex": 0,
      "confirmations": null,
      "from": "0x326Be8F71bFb0379f989aAB1CC1fE37f0a771f60",
      "gasPrice": {
        "_hex": "0x106f62fb709"
      },
      "gasLimit": {
        "_hex": "0x493e0"
      },
      "to": "0xD79B4C6791784184e2755B2fC1659eaaB0f80456",
      "value": {
        "_hex": "0x0"
      },
      "nonce": 114,
      "data": "0xbd66528a73302e3832323737333232393131323336373200000000000000000000000000",
      "r": "0xa2f914094ca30c1786a41dd77324d6a78874817b63283bb7daf520e2395c9619",
      "s": "0x576cb1ec6e312b9aecd9808d0f1548900dabe21d91904806634ee1ae0660563f",
      "v": 27,
      "creates": null,
      "raw": "0xf88a72860106f62fb709830493e094d79b4c6791784184e2755b2fc1659eaab0f8045680a4bd66528a73302e38323237373332323931313233363732000000000000000000000000001ba0a2f914094ca30c1786a41dd77324d6a78874817b63283bb7daf520e2395c9619a0576cb1ec6e312b9aecd9808d0f1548900dabe21d91904806634ee1ae0660563f",
      "networkId": 0,
      "chainId": 0
    }
  ]
}