{
  "hash": "0x42162e485eb2b0f86dfef9718f7427896ae4bd29cd561a9edbbe1c2a84ef298b",
  "parentHash": "0x73d8bde8c0ebfefa3ebcc64a36fc225788764d1df6ee45a187b4eec679b56f99",
  "number": 55128,
  "timestamp": 1439065756,
  "nonce": "0xe11cd2885c840cb3",
  "difficulty": 1640237821928,
  "gasLimit": {
    "_hex": "0x2fefd8"
  },
  "gasUsed": {
    "_hex": "0x7a120"
  },
  "miner": "0x6232dF6f3A300fCD3Bc591452ac447eeA3aC079F",
  "extraData": "0x476574682f76312e302e312f77696e646f77732f676f312e342e32",
  "transactions": [
    {
      "hash": "0xcf79e733788df0c26414ce49e945d68c239a72f9af5120c526732b7db5a9012c",
      "blockHash": "0x42162e485eb2b0f86dfef9718f7427896ae4bd29cd561a9edbbe1c2a84ef298b",
      "blockNumber": 55128,
      "transactionIndex": 0,
      "confirmations": null,
      "from": "0x0ae3F81a67725a8A7758FeB8684c6c17dA20755D",
      "gasPrice": {
        "_hex": "0xd24e2a06b"
      },
      "gasLimit": {
        "_hex": "0x7a120"
      },
      "to": "0xA327075af2a223A1C83a36aDa1126afE7430f955",
      "value": {
        "_hex": "0x8ac7230489e80000"
      },
      "nonce": 1,
      "data": "0x",
      "r": "0xf0ee4d300c0f0ca3842b4d2d5c4902009ad6be4b5547291239de61ac97165470",
      "s": "0x48e2dfe7174f85599d269e631ba5455ed6a0214b924c4bce987fc1a151dc6c64",
      "v": 27,
      "creates": null,
      "raw": "0xf86d01850d24e2a06b8307a12094a327075af2a223a1c83a36ada1126afe7430f955888ac7230489e80000801ba0f0ee4d300c0f0ca3842b4d2d5c4902009ad6be4b5547291239de61ac97165470a048e2dfe7174f85599d269e631ba5455ed6a0214b924c4bce987fc1a151dc6c64",
      "networkId": 0,
      "chainId": 0
    }
  ]
}