{
  "hash": "0xdf8764768f6b825bccc8f47160cc0ad5f21864d61abbb1fcbcaa1b40197f2ece",
  "parentHash": "0x01fa2e35a24c367cc617177ec9b904f4a3cd10a68c9f3f11a3e8e54af5260c94",
  "number": 109489,
  "timestamp": 1439957447,
  "nonce": "0x6c3d56b18155ff95",
  "difficulty": 4449338878050,
  "gasLimit": {
    "_hex": "0x2fefd8"
  },
  "gasUsed": {
    "_hex": "0x1d52e"
  },
  "miner": "0x580992B51e3925e23280EfB93d3047C82f17E038",
  "extraData": "0x476574682f76312e302e312f6c696e75782f676f312e342e32",
  "transactions": [
    {
      "hash": "0x9b96d504d552b090f9a91040c41e6deba651f3be00d6477ffc503c4b0fdb789f",
      "blockHash": "0xdf8764768f6b825bccc8f47160cc0ad5f21864d61abbb1fcbcaa1b40197f2ece",
      "blockNumber": 109489,
      "transactionIndex": 0,
      "confirmations": null,
      "from": "0x7e99dfbE989d3bA529D19751b7F4317f8953A3e2",
      "gasPrice": {
        "_hex": "0xd641f460d"
      },
      "gasLimit": {
        "_hex": "0x249f0"
      },
      "to": "0xE28e72FCf78647ADCe1F1252F240bbfaebD63BcC",
      "value": {
        "_hex": "0x7518058bd45bc0000"
      },
      "nonce": 1,
      "data": "0x45466f3a",
      "r": "0xf2abf09d681f56f512c6ea5e6c76a21eba3c94f618c354d9ec54217b79801e38",
      "s": "0x2ce7214019984df78f07e5309a1aef5ef991b44b22cc740dd693899a557b7250",
      "v": 28,
      "creates": null,
      "raw": "0xf87201850d641f460d830249f094e28e72fcf78647adce1f1252f240bbfaebd63bcc8907518058bd45bc00008445466f3a1ca0f2abf09d681f56f512c6ea5e6c76a21eba3c94f618c354d9ec54217b79801e38a02ce7214019984df78f07e5309a1aef5ef991b44b22cc740dd693899a557b7250",
      "networkId": 0,
      "chainId": 0
    },
    {
      "hash": "0xde01ec29d5521092b93d2151980182c6781ffb0014b651eac0ed9a85d9f7e123",
      "blockHash": "0xdf8764768f6b825bccc8f47160cc0ad5f21864d61abbb1fcbcaa1b40197f2ece",
      "blockNumber": 109489,
      "transactionIndex": 1,
      "confirmations": null,
      "from": "0x1527fcd698B3A8707bb745F80ab114FfF3Db35E2",
      "gasPrice": {
        "_hex": "0xd33b5ef14"
      },
      "gasLimit": {
        "_hex": "0x5208"
      },
      "to": "0x32Be343B94f860124dC4fEe278FDCBD38C102D88",
      "value": {
        "_hex": "0x960d746cda0cf0000"
      },
      "nonce": 9,
      "data": "0x",
      "r": "0x018584ec16f10602650364d531112067f87148d18f60f3dc6134fe7cd87887b5",
      "s": "0x1c0d63bb1a0c16b26ee08ac0928adfa463a4b7e65622f8f4a00bb831f1d283f9",
      "v": 28,
      "creates": null,
      "raw": "0xf86d09850d33b5ef148252089432be343b94f860124dc4fee278fdcbd38c102d88890960d746cda0cf0000801ca0018584ec16f10602650364d531112067f87148d18f60f3dc6134fe7cd87887b5a01c0d63bb1a0c16b26ee08ac0928adfa463a4b7e65622f8f4a00bb831f1d283f9",
      "networkId": 0,
      "chainId": 0
    }
  ]
}