{
  "hash": "0xe9024cd143f3f4559fa48525497622ae462ddff90855a25c5909af796d841298",
  "parentHash": "0x2c2a51b19c5c0b43a471847e00bd03edd6ee09cd087b1b6d9227babd67f60562",
  "number": 110746,
  "timestamp": 1439978756,
  "nonce": "0x1affbdfd68fb1fa2",
  "difficulty": 4394697234307,
  "gasLimit": {
    "_hex": "0x2fefd8"
  },
  "gasUsed": {
    "_hex": "0x2e18c8"
  },
  "miner": "0x580992B51e3925e23280EfB93d3047C82f17E038",
  "extraData": "0x476574682f76312e302e312f6c696e75782f676f312e342e32",
  "transactions": [
    {
      "hash": "0x64d14b9fe9a9f5434cee42a2fdf4515ada8cd35e578f9a59a2acb025bd5bcefd",
      "blockHash": "0xe9024cd143f3f4559fa48525497622ae462ddff90855a25c5909af796d841298",
      "blockNumber": 110746,
      "transactionIndex": 0,
      "confirmations": null,
      "from": "0x54dAeb3E8a6BBC797E4aD2b0339f134b186e4637",
      "gasPrice": {
        "_hex": "0xdf4ba21f9"
      },
      "gasLimit": {
        "_hex": "0x7a120"
      },
      "to": "0xBAA54d6E90c3F4d7Ebec11bD180134C7eD8eBb52",
      "value": {
        "_hex": "0x16345785d8a0000"
      },
      "nonce": 976,
      "data": "0x",
      "r": "0xa307fa9e41cf72ca14c1f601fa4904464ebf0bba3d49afff08721491fd972da4",
      "s": "0x418e0ba1297e2b3551c23ecaed20e4f0e4ab296771de58f7c2afedb63f77e01a",
      "v": 27,
      "creates": null,
      "raw": "0xf86f8203d0850df4ba21f98307a12094baa54d6e90c3f4d7ebec11bd180134c7ed8ebb5288016345785d8a0000801ba0a307fa9e41cf72ca14c1f601fa4904464ebf0bba3d49afff08721491fd972da4a0418e0ba1297e2b3551c23ecaed20e4f0e4ab296771de58f7c2afedb63f77e01a",
      "networkId": 0,
      "chainId": 0
    },
    {
      "hash": "0x7148b31fb26037824e4407be0ab7a3e08d7dfaac485747ab1710a8e429950f4a",
      "blockHash": "0xe9024cd143f3f4559fa48525497622ae462ddff90855a25c5909af796d841298",
      "blockNumber": 110746,
      "transactionIndex": 1,
      "confirmations": null,
      "from": "0x54dAeb3E8a6BBC797E4aD2b0339f134b186e4637",
      "gasPrice": {
        "_hex": "0xdf4ba21f9"
      },
      "gasLimit": {
        "_hex": "0x7a120"
      },
      "to": "0xBAA54d6E90c3F4d7Ebec11bD180134C7eD8eBb52",
      "value": {
        "_hex": "0x16345785d8a0000"
      },
      "nonce": 977,
      "data": "0x",
      "r": "0x8fa45654807dbe999f3623698285ca2840a5b79e49951308dfe576be44a40e94",
      "s": "0x080813753f47835cc94dd9333bccd46879c785aa08ad7c136fad6d6ae8935140",
      "v": 27,
      "creates": null,
      "raw": "0xf86f8203d1850df4ba21f98307a12094baa54d6e90c3f4d7ebec11bd180134c7ed8ebb5288016345785d8a0000801ba08fa45654807dbe999f3623698285ca2840a5b79e49951308dfe576be44a40e94a0080813753f47835cc94dd9333bccd46879c785aa08ad7c136fad6d6ae8935140",
      "networkId": 0,
      "chainId": 0
    },
    {
      "hash": "0xc07eb420559a8aef59176a92e51677c30eeac10c489c97e95444f0a3125551bc",
      "blockHash": "0xe9024cd143f3f4559fa48525497622ae462ddff90855a25c5909af796d841298",
      "blockNumber": 110746,
      "transactionIndex": 2,
      "confirmations": null,
      "from": "0x54dAeb3E8a6BBC797E4aD2b0339f134b186e4637",
      "gasPrice": {
        "_hex": "0xe7d27df17"
      },
      "gasLimit": {
        "_hex": "0x7a120"
      },
      "to": "0xBAA54d6E90c3F4d7Ebec11bD180134C7eD8eBb52",
      "value": {
        "_hex": "0x16345785d8a0000"
      },
      "nonce": 978,
      "data": "0x",
      "r": "0x4f2d9c969ede9ada7be6dcbd01de81b0ccb9e5f79ae5e0e20800b8d412662f32",
      "s": "0x6de6166ecfc273b7c03c0733d61572424b71f570e7a2731a363f19fcf229fd6c",
      "v": 28,
      "creates": null,
      "raw": "0xf86f8203d2850e7d27df178307a12094baa54d6e90c3f4d7ebec11bd180134c7ed8ebb5288016345785d8a0000801ca04f2d9c969ede9ada7be6dcbd01de81b0ccb9e5f79ae5e0e20800b8d412662f32a06de6166ecfc273b7c03c0733d61572424b71f570e7a2731a363f19fcf229fd6c",
      "networkId": 0,
      "chainId": 0
    },
    {
      "hash": "0x23e47ac46878651d342df4a77e5bf2eb37f2e7ddaaea02b935c272568b9362a4",
      "blockHash": "0xe9024cd143f3f4559fa48525497622ae462ddff90855a25c5909af796d841298",
      "blockNumber": 110746,
      "transactionIndex": 3,
      "confirmations": null,
      "from": "0x54dAeb3E8a6BBC797E4aD2b0339f134b186e4637",
      "gasPrice": {
        "_hex": "0xe1780dfbb"
      },
      "gasLimit": {
        "_hex": "0x7a120"
      },
      "to": "0xBAA54d6E90c3F4d7Ebec11bD180134C7eD8eBb52",
      "value": {
        "_hex": "0x16345785d8a0000"
      },
      "nonce": 979,
      "data": "0x",
      "r": "0x1fe8489fb9b6d7738952c12fde0d6c30040585d981b87a8cc2699782d7ebf057",
      "s": "0x2246a6e8ce751a7eb6a0154d5b304892d4f810802df0b28ecb633bd5932808ee",
      "v": 27,
      "creates": null,
      "raw": "0xf86f8203d3850e1780dfbb8307a12094baa54d6e90c3f4d7ebec11bd180134c7ed8ebb5288016345785d8a0000801ba01fe8489fb9b6d7738952c12fde0d6c30040585d981b87a8cc2699782d7ebf057a02246a6e8ce751a7eb6a0154d5b304892d4f810802df0b28ecb633bd5932808ee",
      "networkId": 0,
      "chainId": 0
    },
    {
      "hash": "0x1ad00395d28650d61144f26ba227ab470512f9f564c34a9aba5350a29e147a53",
      "blockHash": "0xe9024cd143f3f4559fa48525497622ae462ddff90855a25c5909af796d841298",
      "blockNumber": 110746,
      "transactionIndex": 4,
      "confirmations": null,
      "from": "0x54dAeb3E8a6BBC797E4aD2b0339f134b186e4637",
      "gasPrice": {
        "_hex": "0xe1780dfbb"
      },
      "gasLimit": {
        "_hex": "0x7a120"
      },
      "to": "0xBAA54d6E90c3F4d7Ebec11bD180134C7eD8eBb52",
      "value": {
        "_hex": "0x16345785d8a0000"
      },
      "nonce": 980,
      "data": "0x",
      "r": "0x15c8ccf6aa2466a6b85e28c71bc998ba9eaea3b74bc601d5caea242f519aa30d",
      "s": "0x5690f3f4bfdab45636a921987bc8fb42d2faca9831243fec13bd16cec8d92bfd",
      "v": 27,
      "creates": null,
      "raw": "0xf86f8203d4850e1780dfbb8307a12094baa54d6e90c3f4d7ebec11bd180134c7ed8ebb5288016345785d8a0000801ba015c8ccf6aa2466a6b85e28c71bc998ba9eaea3b74bc601d5caea242f519aa30da05690f3f4bfdab45636a921987bc8fb42d2faca9831243fec13bd16cec8d92bfd",
      "networkId": 0,
      "chainId": 0
    },
    {
      "hash": "0x24bed5696a26b08ab4fbefca828f6de50eb41554c7f32c7aaaf1898d5db3dd1b",
      "blockHash": "0xe9024cd143f3f4559fa48525497622ae462ddff90855a25c5909af796d841298",
      "blockNumber": 110746,
      "transactionIndex": 5,
      "confirmations": null,
      "from": "0x54dAeb3E8a6BBC797E4aD2b0339f134b186e4637",
      "gasPrice": {
        "_hex": "0xdf4ba21f9"
      },
      "gasLimit": {
        "_hex": "0x7a120"
      },
      "to": "0xBAA54d6E90c3F4d7Ebec11bD180134C7eD8eBb52",
      "value": {
        "_hex": "0x16345785d8a0000"
      },
      "nonce": 981,
      "data": "0x",
      "r": "0x3223cd4c93fdafe7bb849ad9c3b1a0c51e39ee04910959dbbd24730f82161179",
      "s": "0x4c3d6935f31156c9cd7130ea3180f84a570f62118025f159912f12e6c38770f7",
      "v": 27,
      "creates": null,
      "raw": "0xf86f8203d5850df4ba21f98307a12094baa54d6e90c3f4d7ebec11bd180134c7ed8ebb5288016345785d8a0000801ba03223cd4c93fdafe7bb849ad9c3b1a0c51e39ee04910959dbbd24730f82161179a04c3d6935f31156c9cd7130ea3180f84a570f62118025f159912f12e6c38770f7",
      "networkId": 0,
      "chainId": 0
    },
    {
      "hash": "0x7ef272d4c56ef4a51e1f529e669a0901ee0b29bedbe1f5463e35922392494704",
      "blockHash": "0xe9024cd143f3f4559fa48525497622ae462ddff90855a25c5909af796d841298",
      "blockNumber": 110746,
      "transactionIndex": 6,
      "confirmations": null,
      "from": "0x63d25FB5edc318Aae1DEc4F3aBd7c645f921cff8",
      "gasPrice": {
        "_hex": "0xba43b7400"
      },
      "gasLimit": {
        "_hex": "0x5208"
      },
      "to": "0xC47Aaa860008be6f65B58c6C6E02a84e666EfE31",
      "value": {
        "_hex": "0x75553e3e5e0fc300"
      },
      "nonce": 6,
      "data": "0x",
      "r": "0x3b85477a72d3943a15e9a49903a64a8e6b7dcc278bfc33095e7a76472aa4f92b",
      "s": "0x49856079800a8317f3a46865f56de55507ab452891e094dbf41660ba7b9cfd15",
      "v": 27,
      "creates": null,
      "raw": "0xf86c06850ba43b740082520894c47aaa860008be6f65b58c6c6e02a84e666efe318875553e3e5e0fc300801ba03b85477a72d3943a15e9a49903a64a8e6b7dcc278bfc33095e7a76472aa4f92ba049856079800a8317f3a46865f56de55507ab452891e094dbf41660ba7b9cfd15",
      "networkId": 0,
      "chainId": 0
    }
  ]
}