{
  "hash": "0x23717c34299c9a7c3e45c1ad3bb5f562e5a6b988bb7c7a5dec4180421965d025",
  "parentHash": "0xce9e6bafb2c74c7f13505aecfeb40b39ab101f71aa336489e960744a451700fa",
  "number": 62414,
  "timestamp": 1439188376,
  "nonce": "0x05205aa04d701a88",
  "difficulty": 1765071927304,
  "gasLimit": {
    "_hex": "0x2fefd8"
  },
  "gasUsed": {
    "_hex": "0x5208"
  },
  "miner": "0x39A1BB80a741bF5EC39FB9BE59408Fa0F418fFBf",
  "extraData": "0x476574682f76312e302e312f77696e646f77732f676f312e342e32",
  "transactions": [
    {
      "hash": "0xa9d76be6a9368917596aff5b25b15488fd6d0fddc330f9c140e98496d1c0b99d",
      "blockHash": "0x23717c34299c9a7c3e45c1ad3bb5f562e5a6b988bb7c7a5dec4180421965d025",
      "blockNumber": 62414,
      "transactionIndex": 0,
      "confirmations": null,
      "from": "0xC25f24A505b8fEF751D8f4FCc397651001F7a160",
      "gasPrice": {
        "_hex": "0xcd2752ab8"
      },
      "gasLimit": {
        "_hex": "0x5208"
      },
      "to": "0x32Be343B94f860124dC4fEe278FDCBD38C102D88",
      "value": {
        "_hex": "0x453beebfd99c0000"
      },
      "nonce": 6,
      "data": "0x",
      "r": "0xc3e83983c99b37a822fe89978feebaada003c51430a0a6bbca614fc2a218c92b",
      "s": "0x21e63bf122f2d3e0567c658113b2e5cf63edacbd6bc7d4297931e1fae7b851fa",
      "v": 28,
      "creates": null,
      "raw": "0xf86c06850cd2752ab88252089432be343b94f860124dc4fee278fdcbd38c102d8888453beebfd99c0000801ca0c3e83983c99b37a822fe89978feebaada003c51430a0a6bbca614fc2a218c92ba021e63bf122f2d3e0567c658113b2e5cf63edacbd6bc7d4297931e1fae7b851fa",
      "networkId": 0,
      "chainId": 0
    }
  ]
}