{
  "hash": "0x71143c393b566979867e3365a5f8c7d4862341e6268d6465b97eb0c4d67dc610",
  "parentHash": "0xb0e4a31c76c02ad6cdb90bfce88cf8f32971fc56c678d2c9b0e2b3132d59da43",
  "number": 63421,
  "timestamp": 1439204188,
  "nonce": "0x5fee3b056cb205a2",
  "difficulty": 1837854290637,
  "gasLimit": {
    "_hex": "0x2fefd8"
  },
  "gasUsed": {
    "_hex": "0x5208"
  },
  "miner": "0x9746c7e1ef2bd21FF3997fa467593a89cb852BD0",
  "extraData": "0x476574682f76312e302e312f77696e646f77732f676f312e342e32",
  "transactions": [
    {
      "hash": "0x2fe394539d4fc6e815ecf252ea4034ca0188685babae2044239d298a720ad65b",
      "blockHash": "0x71143c393b566979867e3365a5f8c7d4862341e6268d6465b97eb0c4d67dc610",
      "blockNumber": 63421,
      "transactionIndex": 0,
      "confirmations": null,
      "from": "0x765E9271F0720BB268573c5b9eFA820AC8e0eA41",
      "gasPrice": {
        "_hex": "0xd8364fc25"
      },
      "gasLimit": {
        "_hex": "0x15f90"
      },
      "to": "0xaf720cF7813ad4cd45B1A77aF5044c18DEC84167",
      "value": {
        "_hex": "0x895f78021a196478"
      },
      "nonce": 2,
      "data": "0x",
      "r": "0xbff348b35661b6e13e3c28f34209265a4e2990572ffd9b8f8f40cf4818734747",
      "s": "0x0f76471cf2da6466d8e1cb3047b207a54ba6b7de62d60817eb7c8c80d6c4fb5f",
      "v": 28,
      "creates": null,
      "raw": "0xf86d02850d8364fc2583015f9094af720cf7813ad4cd45b1a77af5044c18dec8416788895f78021a196478801ca0bff348b35661b6e13e3c28f34209265a4e2990572ffd9b8f8f40cf4818734747a00f76471cf2da6466d8e1cb3047b207a54ba6b7de62d60817eb7c8c80d6c4fb5f",
      "networkId": 0,
      "chainId": 0
    }
  ]
}