{
  "hash": "0x769efeb4201604c30de9825c5cdd67cfbb1adfd6c3062b916cdb422c9f6aa568",
  "parentHash": "0xcc3890933fb9ee7a615d24751d484c712026ce9b29e79b808c8d64a08a9c98fb",
  "number": 97246,
  "timestamp": 1439753124,
  "nonce": "0xccc6dae1af370d11",
  "difficulty": 3783466928746,
  "gasLimit": {
    "_hex": "0x2fefd8"
  },
  "gasUsed": {
    "_hex": "0x2a20"
  },
  "miner": "0xe6A7a1d47ff21B6321162AEA7C6CB457D5476Bca",
  "extraData": "0x476574682f76312e302e312d38326566323666362f6c696e75782f676f312e34",
  "transactions": [
    {
      "hash": "0x438a42c583164747033d53288f0b83c8eddb74a291ffbee76e5d831ed5f13c0c",
      "blockHash": "0x769efeb4201604c30de9825c5cdd67cfbb1adfd6c3062b916cdb422c9f6aa568",
      "blockNumber": 97246,
      "transactionIndex": 0,
      "confirmations": null,
      "from": "0x4BBc2EF7E5482B88E8c9C4bc05c5A3d3FF2B03c7",
      "gasPrice": {
        "_hex": "0xd3e51b733"
      },
      "gasLimit": {
        "_hex": "0x15f90"
      },
      "to": "0xFD8fae660D861036728B466c620c24f745b61974",
      "value": {
        "_hex": "0x0"
      },
      "nonce": 5,
      "data": "0x41c0e1b5",
      "r": "0x1c3be0c955e682c23d5d8396ce2960c50acec53bc4ac533840316f750aa0640c",
      "s": "0x6d272b3410796761f0aba378fdde8cc4998ada94fe8e816d9870dd33395f48d2",
      "v": 28,
      "creates": null,
      "raw": "0xf86905850d3e51b73383015f9094fd8fae660d861036728b466c620c24f745b61974808441c0e1b51ca01c3be0c955e682c23d5d8396ce2960c50acec53bc4ac533840316f750aa0640ca06d272b3410796761f0aba378fdde8cc4998ada94fe8e816d9870dd33395f48d2",
      "networkId": 0,
      "chainId": 0
    }
  ]
}