{
  "hash": "0x7f49ee8d05f268a425a18a7a5e598fef08c66b704cd0d0dfdb5b38d35e71a32e",
  "parentHash": "0x92ee8d872ed374a86ffaeb631615b5b68deecbd078392c4b689a5410a3d7f752",
  "number": 71768,
  "timestamp": 1439341635,
  "nonce": "0x48d2985a90d9c4e0",
  "difficulty": 2172895802759,
  "gasLimit": {
    "_hex": "0x2fefd8"
  },
  "gasUsed": {
    "_hex": "0x5208"
  },
  "miner": "0xf927a40C8B7F6E07c5af7FA2155B4864a4112B13",
  "extraData": "0x",
  "transactions": [
    {
      "hash": "0xccb0e31a7ebbb7c0f17f2d07c744cab94bfbc8423fdc60b101cedda5dacd3f52",
      "blockHash": "0x7f49ee8d05f268a425a18a7a5e598fef08c66b704cd0d0dfdb5b38d35e71a32e",
      "blockNumber": 71768,
      "transactionIndex": 0,
      "confirmations": null,
      "from": "0x723E05fF30e4ba7A87b4D7D459eE5B488A9c36d1",
      "gasPrice": {
        "_hex": "0xcebdcc808"
      },
      "gasLimit": {
        "_hex": "0x15f90"
      },
      "to": "0xabceA603089850F8f6bB612A9031554D90A247CF",
      "value": {
        "_hex": "0x4563918244f40000"
      },
      "nonce": 4,
      "data": "0x",
      "r": "0x5e83f28c6174753960b3c0c88d4abf8748a86de656ff1a529d1464182cca6a13",
      "s": "0x4005ba42c51f41eb31ac1f4168417df6f2e82fdd8909de4aaf27d06e6df1ee62",
      "v": 27,
      "creates": null,
      "raw": "0xf86d04850cebdcc80883015f9094abcea603089850f8f6bb612a9031554d90a247cf884563918244f40000801ba05e83f28c6174753960b3c0c88d4abf8748a86de656ff1a529d1464182cca6a13a04005ba42c51f41eb31ac1f4168417df6f2e82fdd8909de4aaf27d06e6df1ee62",
      "networkId": 0,
      "chainId": 0
    }
  ]
}