{
  "hash": "0x65e05cbbe0b7aa6af373803ff8c0edd412a370df24b19b6687e6c53afef7c95b",
  "parentHash": "0x2916f115af0d86a20b5591a1882fd39d86c74c388999a6e84507d7574f518bd9",
  "number": 100132,
  "timestamp": 1439801309,
  "nonce": "0x8015c49fc3471810",
  "difficulty": 3834229892057,
  "gasLimit": {
    "_hex": "0x2fefd8"
  },
  "gasUsed": {
    "_hex": "0x5208"
  },
  "miner": "0x13db2d4DF4EE21C407B0B3F867d2892037f05DB3",
  "extraData": "0x476574682f76312e302e312f6c696e75782f676f312e342e32",
  "transactions": [
    {
      "hash": "0x2048146d668d441be044fa397ab662ace797442036d4085a2817cfdc3bbb0aa1",
      "blockHash": "0x65e05cbbe0b7aa6af373803ff8c0edd412a370df24b19b6687e6c53afef7c95b",
      "blockNumber": 100132,
      "transactionIndex": 0,
      "confirmations": null,
      "from": "0x007f7f58D3eb5b7510A301eCC749FC1fCDDBE14D",
      "gasPrice": {
        "_hex": "0xe0cfe7246"
      },
      "gasLimit": {
        "_hex": "0x15f90"
      },
      "to": "0xb1abce2918E21ddb93AA452731a12672A3d9F75a",
      "value": {
        "_hex": "0x4563918244f40000"
      },
      "nonce": 159,
      "data": "0x",
      "r": "0x732f8fe743dbc5b6be9341f8fce430396da731ec068e9a869a978f238ceccde4",
      "s": "0x029c2e94d062eee897371698005f7da44730bcfef37b7f339311d02e9813c9ad",
      "v": 28,
      "creates": null,
      "raw": "0xf86e819f850e0cfe724683015f9094b1abce2918e21ddb93aa452731a12672a3d9f75a884563918244f40000801ca0732f8fe743dbc5b6be9341f8fce430396da731ec068e9a869a978f238ceccde4a0029c2e94d062eee897371698005f7da44730bcfef37b7f339311d02e9813c9ad",
      "networkId": 0,
      "chainId": 0
    }
  ]
}