{
  "hash": "0x84a2257d66956c74eb73646715628464204c0322544821e5206198c641472b80",
  "parentHash": "0x48d8450f69bfb3fb576ebdb159c2d8264932489aaeef6ee2465ada41302cbcf4",
  "number": 68598,
  "timestamp": 1439290476,
  "nonce": "0xe213c3992e2d658a",
  "difficulty": 2024149423644,
  "gasLimit": {
    "_hex": "0x2fefd8"
  },
  "gasUsed": {
    "_hex": "0x100c9"
  },
  "miner": "0x87898CE53471043FcCa0a2aF4E1dC6d8B3fCf607",
  "extraData": "0x476574682f5369626572696131392f76312e302e312d37666266393930632f6c",
  "transactions": [
    {
      "hash": "0x4b9b20f5d583f9be727cf16744054e28635047481da6e85c61c474c50e67526a",
      "blockHash": "0x84a2257d66956c74eb73646715628464204c0322544821e5206198c641472b80",
      "blockNumber": 68598,
      "transactionIndex": 0,
      "confirmations": null,
      "from": "0x17580B766f7453525ca4C6A88b01b50570EA088C",
      "gasPrice": {
        "_hex": "0xd698ce549"
      },
      "gasLimit": {
        "_hex": "0x61a80"
      },
      "to": "0x5Fe5B7546D1628f7348B023A0393de1FC825A4fD",
      "value": {
        "_hex": "0xde0b6b3a7640000"
      },
      "nonce": 44,
      "data": "0xb595b8b50000000000000000000000000000000000000000000000000000000000000001",
      "r": "0x6def2b458974fd06a072a86f567dd2ea87cf159dc71c44f3805205702797706c",
      "s": "0x2624c26c21abf82f7bcf1cc21a21113daedddd3abb6a9d856be1f5b5fcfd80f0",
      "v": 27,
      "creates": null,
      "raw": "0xf8912c850d698ce54983061a80945fe5b7546d1628f7348b023a0393de1fc825a4fd880de0b6b3a7640000a4b595b8b500000000000000000000000000000000000000000000000000000000000000011ba06def2b458974fd06a072a86f567dd2ea87cf159dc71c44f3805205702797706ca02624c26c21abf82f7bcf1cc21a21113daedddd3abb6a9d856be1f5b5fcfd80f0",
      "networkId": 0,
      "chainId": 0
    },
    {
      "hash": "0x1e06e1e3fcfb518034c6d0cbc539df1e5c35bb123030b3efddf008fa4aff7fb6",
      "blockHash": "0x84a2257d66956c74eb73646715628464204c0322544821e5206198c641472b80",
      "blockNumber": 68598,
      "transactionIndex": 1,
      "confirmations": null,
      "from": "0xc90CD003F617EE1d067548627BB18D6Be4a0Ed46",
      "gasPrice": {
        "_hex": "0xba43b7400"
      },
      "gasLimit": {
        "_hex": "0x5208"
      },
      "to": "0xf32F426861Dd27FA1B2DB66361FcAB5104d0fD2D",
      "value": {
        "_hex": "0xf0088de8d15000"
      },
      "nonce": 1,
      "data": "0x",
      "r": "0x325f28175cf2d2570aa29d3deabac2559bcf47823aefe0181fce42f3e9cb620e",
      "s": "0x671c5e766ea8ccc4627f5afc9a1236ca6e6b46d67470a37cffc5572a90e6f681",
      "v": 27,
      "creates": null,
      "raw": "0xf86b01850ba43b740082520894f32f426861dd27fa1b2db66361fcab5104d0fd2d87f0088de8d15000801ba0325f28175cf2d2570aa29d3deabac2559bcf47823aefe0181fce42f3e9cb620ea0671c5e766ea8ccc4627f5afc9a1236ca6e6b46d67470a37cffc5572a90e6f681",
      "networkId": 0,
      "chainId": 0
    }
  ]
}