{
  "hash": "0x2d7006db4bb896481027e2ea052c9d87f33fb6b0ce49ce9c2de2cc55799931e9",
  "parentHash": "0x5b08ac8c4efd397ffe4fdd89f3c8bb65615151c3f59afd9462fe8e406ceeb731",
  "number": 117548,
  "timestamp": 1440111397,
  "nonce": "0x32a2ca00af10089b",
  "difficulty": 4301999713667,
  "gasLimit": {
    "_hex": "0x2fefd8"
  },
  "gasUsed": {
    "_hex": "0xf87c"
  },
  "miner": "0x55bAf64fc9eAccFFd7Cc643BB61142E1C6ac093e",
  "extraData": "0x",
  "transactions": [
    {
      "hash": "0x41126037e93bf519cab37942fe8d42f1bb3ff235279b17397ddc1cdae2a6b327",
      "blockHash": "0x2d7006db4bb896481027e2ea052c9d87f33fb6b0ce49ce9c2de2cc55799931e9",
      "blockNumber": 117548,
      "transactionIndex": 0,
      "confirmations": null,
      "from": "0xbE53322F43FBb58494d7cCe19dDa272B2450e827",
      "gasPrice": {
        "_hex": "0x110c8f7d8de"
      },
      "gasLimit": {
        "_hex": "0xc350"
      },
      "to": "0x2910543Af39abA0Cd09dBb2D50200b3E800A63D2",
      "value": {
        "_hex": "0xabbcd4ef377580000"
      },
      "nonce": 1,
      "data": "0x454e57344436305630",
      "r": "0xab4cdc2b80723ccdf4e7755e3e6d299ef7e8be369b603f9ad46825851fd19216",
      "s": "0xe3b6dc4cf7edf3337f561888539d3626b30176006f0fb3ae64698da0e3f547c3",
      "v": 27,
      "creates": null,
      "raw": "0xf87701860110c8f7d8de82c350942910543af39aba0cd09dbb2d50200b3e800a63d2890abbcd4ef37758000089454e573444363056301ba0ab4cdc2b80723ccdf4e7755e3e6d299ef7e8be369b603f9ad46825851fd19216a0e3b6dc4cf7edf3337f561888539d3626b30176006f0fb3ae64698da0e3f547c3",
      "networkId": 0,
      "chainId": 0
    },
    {
      "hash": "0x95af32b99827c4c40b377cbd751cbdba550a69b6c5b76556db71ac6850e9c25a",
      "blockHash": "0x2d7006db4bb896481027e2ea052c9d87f33fb6b0ce49ce9c2de2cc55799931e9",
      "blockNumber": 117548,
      "transactionIndex": 1,
      "confirmations": null,
      "from": "0x52bc44d5378309EE2abF1539BF71dE1b7d7bE3b5",
      "gasPrice": {
        "_hex": "0xba43b7400"
      },
      "gasLimit": {
        "_hex": "0x61a8"
      },
      "to": "0xc517a1ceF7630dc7FeBd59e9f7fb80F56EaCB21E",
      "value": {
        "_hex": "0x20e653a85298c6a00"
      },
      "nonce": 397,
      "data": "0x",
      "r": "0x0c71a9c7c4087b7fb8f8d9e3a0dd7a3e5cf94a410ed7a31364a4dba113617df6",
      "s": "0x7e5cf20e85ccc61acad2f5f3c82900c21444aa402ac5a09c6d50cba58b7e389e",
      "v": 27,
      "creates": null,
      "raw": "0xf86f82018d850ba43b74008261a894c517a1cef7630dc7febd59e9f7fb80f56eacb21e89020e653a85298c6a00801ba00c71a9c7c4087b7fb8f8d9e3a0dd7a3e5cf94a410ed7a31364a4dba113617df6a07e5cf20e85ccc61acad2f5f3c82900c21444aa402ac5a09c6d50cba58b7e389e",
      "networkId": 0,
      "chainId": 0
    },
    {
      "hash": "0x54039b3ab6fe6496cf4a72d3be031116b318556ea5d7684d899720faa0d53a48",
      "blockHash": "0x2d7006db4bb896481027e2ea052c9d87f33fb6b0ce49ce9c2de2cc55799931e9",
      "blockNumber": 117548,
      "transactionIndex": 2,
      "confirmations": null,
      "from": "0x52bc44d5378309EE2abF1539BF71dE1b7d7bE3b5",
      "gasPrice": {
        "_hex": "0xba43b7400"
      },
      "gasLimit": {
        "_hex": "0x61a8"
      },
      "to": "0x0c9e9FdC3824D4deF10e414e04E3f8D2F6d1F06c",
      "value": {
        "_hex": "0x173ee954adc07880"
      },
      "nonce": 398,
      "data": "0x",
      "r": "0x7876a8d31f8d950622f29013823d3b37bf97b7a78bc905518fab05610591d850",
      "s": "0x63dac543c1636c125d205c769897ad3654e78205a192c64e362ba807d5842dc1",
      "v": 27,
      "creates": null,
      "raw": "0xf86e82018e850ba43b74008261a8940c9e9fdc3824d4def10e414e04e3f8d2f6d1f06c88173ee954adc07880801ba07876a8d31f8d950622f29013823d3b37bf97b7a78bc905518fab05610591d850a063dac543c1636c125d205c769897ad3654e78205a192c64e362ba807d5842dc1",
      "networkId": 0,
      "chainId": 0
    }
  ]
}