{
  "hash": "0x5ff0c8569183494acf538d4e4f12d85269b94dfd73bdc32a2d5ee876f850ab43",
  "parentHash": "0xdb6bb055d0f9445657c2b73dc0af80a2d0cbcb6c5f7272928d1c4ecd9c6e6d5d",
  "number": 49131,
  "timestamp": 1438968618,
  "nonce": "0x8a4f13c3997e0b1c",
  "difficulty": 1474947713497,
  "gasLimit": {
    "_hex": "0x26b32"
  },
  "gasUsed": {
    "_hex": "0x546c"
  },
  "miner": "0x3222BA3F3e79eA0e31467EEE7639B57923558cCD",
  "extraData": "0x476574682f76312e302e302f77696e646f77732f676f312e342e32",
  "transactions": [
    {
      "hash": "0x05cd76fdd54acc08cf21f0e168f748d542377051958481f68307bd80f5807b51",
      "blockHash": "0x5ff0c8569183494acf538d4e4f12d85269b94dfd73bdc32a2d5ee876f850ab43",
      "blockNumber": 49131,
      "transactionIndex": 0,
      "confirmations": null,
      "from": "0x2D8C52329f38D2A2fA9CBAF5C583DaF1490Bb11c",
      "gasPrice": {
        "_hex": "0xdea153c08"
      },
      "gasLimit": {
        "_hex": "0x15f90"
      },
      "to": "0x2910543Af39abA0Cd09dBb2D50200b3E800A63D2",
      "value": {
        "_hex": "0x105dfb505bf9f0000"
      },
      "nonce": 1,
      "data": "0x454e3758414d464b38",
      "r": "0xd0151296c1061e00988343717b8234c653c523b918f6a6022bb6f591855838ce",
      "s": "0x54e44156b3b647b5036b2434be7a838c7204e254854256672c3e8d1247fb0531",
      "v": 27,
      "creates": null,
      "raw": "0xf87701850dea153c0883015f90942910543af39aba0cd09dbb2d50200b3e800a63d2890105dfb505bf9f000089454e3758414d464b381ba0d0151296c1061e00988343717b8234c653c523b918f6a6022bb6f591855838cea054e44156b3b647b5036b2434be7a838c7204e254854256672c3e8d1247fb0531",
      "networkId": 0,
      "chainId": 0
    }
  ]
}