{
  "hash": "0x31fd03dd8e2c70b07f784526f520760d8f337562195a800ba7da3a5246ea0b66",
  "parentHash": "0x87cfbd065e945d9e0eb19ab49109911a9b1a7c15b88fb71d1093255a406ad50e",
  "number": 107935,
  "timestamp": 1439931154,
  "nonce": "0x29d70c5895f93f02",
  "difficulty": 4389735143916,
  "gasLimit": {
    "_hex": "0x2fefd8"
  },
  "gasUsed": {
    "_hex": "0x5208"
  },
  "miner": "0xf8E0CA3Ed80bd541b94BEdCf259e8CF2141A9523",
  "extraData": "0x476574682f76312e302e312f77696e646f77732f676f312e342e32",
  "transactions": [
    {
      "hash": "0x307d1ae5caf04c4bdee26941819be2179e006df4e46abfc61511f90b18c49f45",
      "blockHash": "0x31fd03dd8e2c70b07f784526f520760d8f337562195a800ba7da3a5246ea0b66",
      "blockNumber": 107935,
      "transactionIndex": 0,
      "confirmations": null,
      "from": "0x2910543Af39abA0Cd09dBb2D50200b3E800A63D2",
      "gasPrice": {
        "_hex": "0xccf86f0e8"
      },
      "gasLimit": {
        "_hex": "0x5208"
      },
      "to": "0x2675436DF4af8065911a28F8845afEE29BD0452e",
      "value": {
        "_hex": "0x1a043a59465d78000"
      },
      "nonce": 1060,
      "data": "0x",
      "r": "0x2953bb23775b4e184a80028f8d63d5f691cde79839891ff816d4b9ce916a6f20",
      "s": "0x3d840deb279e97f4b72b9c7f6633f1f3bf208577e10d50fd1001e1c26702815a",
      "v": 28,
      "creates": null,
      "raw": "0xf86f820424850ccf86f0e8825208942675436df4af8065911a28f8845afee29bd0452e8901a043a59465d78000801ca02953bb23775b4e184a80028f8d63d5f691cde79839891ff816d4b9ce916a6f20a03d840deb279e97f4b72b9c7f6633f1f3bf208577e10d50fd1001e1c26702815a",
      "networkId": 0,
      "chainId": 0
    }
  ]
}