{
  "hash": "0x6f41ee182e029d1a513280fb988f184bfd4383f4159b627294a36ff0d6b9bbd5",
  "parentHash": "0xcbb160dc3891c136f95fd74905776baeb1816f721a2c606c5d4dd6110bc691eb",
  "number": 89818,
  "timestamp": 1439629610,
  "nonce": "0x9c99d1cf51a7369c",
  "difficulty": 3341855671645,
  "gasLimit": {
    "_hex": "0x2fefd8"
  },
  "gasUsed": {
    "_hex": "0xf618"
  },
  "miner": "0x0037ce3d4B7f8729C8607D8D0248252Be68202c0",
  "extraData": "0x476574682f76312e302e312f77696e646f77732f676f312e342e32",
  "transactions": [
    {
      "hash": "0x22680c3acd5329f35a60923a65c027302729db17f8ccca224fee090b3b2452f6",
      "blockHash": "0x6f41ee182e029d1a513280fb988f184bfd4383f4159b627294a36ff0d6b9bbd5",
      "blockNumber": 89818,
      "transactionIndex": 0,
      "confirmations": null,
      "from": "0x2910543Af39abA0Cd09dBb2D50200b3E800A63D2",
      "gasPrice": {
        "_hex": "0xdd03a56eb"
      },
      "gasLimit": {
        "_hex": "0x5208"
      },
      "to": "0x79B8C67B1298733172AB8A72633499AD67F4A8c9",
      "value": {
        "_hex": "0x10e8c2736083d8000"
      },
      "nonce": 765,
      "data": "0x",
      "r": "0xce7fb59ffb99e6dbeb695c768ee1be5290486c5e6543d1ba3f12bbf29f0cf919",
      "s": "0x46d69ddbab268ecea179ebd7dd4a87f35845ec1311292d2babfda8197c10550c",
      "v": 27,
      "creates": null,
      "raw": "0xf86f8202fd850dd03a56eb8252089479b8c67b1298733172ab8a72633499ad67f4a8c989010e8c2736083d8000801ba0ce7fb59ffb99e6dbeb695c768ee1be5290486c5e6543d1ba3f12bbf29f0cf919a046d69ddbab268ecea179ebd7dd4a87f35845ec1311292d2babfda8197c10550c",
      "networkId": 0,
      "chainId": 0
    },
    {
      "hash": "0x318241039d9bc779f71779cb15adc03a33909f559e5ed559d70f1eb663ac123d",
      "blockHash": "0x6f41ee182e029d1a513280fb988f184bfd4383f4159b627294a36ff0d6b9bbd5",
      "blockNumber": 89818,
      "transactionIndex": 1,
      "confirmations": null,
      "from": "0xf79785E5a846aCea08F94379fCCe79B1054bDB99",
      "gasPrice": {
        "_hex": "0xd3ff448dc"
      },
      "gasLimit": {
        "_hex": "0x5208"
      },
      "to": "0x32Be343B94f860124dC4fEe278FDCBD38C102D88",
      "value": {
        "_hex": "0x187f79ff6b3859000"
      },
      "nonce": 10,
      "data": "0x",
      "r": "0xa04f4fb2d31953531b3323e318944ad2c819de4f98d311fe3de0b34243e8703b",
      "s": "0x65d28ea5776fa2ef978f3a2ea1684e4c32b178f9fcf27f537b422d45ab7c8ed6",
      "v": 27,
      "creates": null,
      "raw": "0xf86d0a850d3ff448dc8252089432be343b94f860124dc4fee278fdcbd38c102d88890187f79ff6b3859000801ba0a04f4fb2d31953531b3323e318944ad2c819de4f98d311fe3de0b34243e8703ba065d28ea5776fa2ef978f3a2ea1684e4c32b178f9fcf27f537b422d45ab7c8ed6",
      "networkId": 0,
      "chainId": 0
    },
    {
      "hash": "0xaa76cf71955a9cf35b779049fbbdae27d019ff0d190b9893d0194eb40c30dd1d",
      "blockHash": "0x6f41ee182e029d1a513280fb988f184bfd4383f4159b627294a36ff0d6b9bbd5",
      "blockNumber": 89818,
      "transactionIndex": 2,
      "confirmations": null,
      "from": "0x34d34F0a638F6991e4E2536F41295DF6E934A646",
      "gasPrice": {
        "_hex": "0xd3ff448dc"
      },
      "gasLimit": {
        "_hex": "0x5208"
      },
      "to": "0x32Be343B94f860124dC4fEe278FDCBD38C102D88",
      "value": {
        "_hex": "0xd9de4dd5664fb000"
      },
      "nonce": 14,
      "data": "0x",
      "r": "0x45b7a028aab55365ef62446e1754174dc6fc3450bc0cb37caffe65b5b8ffcf83",
      "s": "0x32cd943cd6ed19cb56aae0153476628cece1a62528650392d8d4a5d151f4eae9",
      "v": 28,
      "creates": null,
      "raw": "0xf86c0e850d3ff448dc8252089432be343b94f860124dc4fee278fdcbd38c102d8888d9de4dd5664fb000801ca045b7a028aab55365ef62446e1754174dc6fc3450bc0cb37caffe65b5b8ffcf83a032cd943cd6ed19cb56aae0153476628cece1a62528650392d8d4a5d151f4eae9",
      "networkId": 0,
      "chainId": 0
    }
  ]
}