{
  "hash": "0x6f6075a65eecff7a3ce20c5ecd4617f1bf69045022fc735f16804c3f19b7b7ea",
  "parentHash": "0x975c820e85ac01840840bc79372dbcf16c51b7e81386544bf2cb2c107b580a7f",
  "number": 112915,
  "timestamp": 1440015246,
  "nonce": "0xea4c3a4696525e95",
  "difficulty": 4456217145571,
  "gasLimit": {
    "_hex": "0x2fefd8"
  },
  "gasUsed": {
    "_hex": "0x5208"
  },
  "miner": "0x9D49F602b0fdb924Bd63DDE2Bd0907E4A07c63a7",
  "extraData": "0x476574682f76312e302e312f6c696e75782f676f312e342e32",
  "transactions": [
    {
      "hash": "0x43fb6de63f1c950254e888ce5286cac030c664954cdc27eec3db25ac0c5790b7",
      "blockHash": "0x6f6075a65eecff7a3ce20c5ecd4617f1bf69045022fc735f16804c3f19b7b7ea",
      "blockNumber": 112915,
      "transactionIndex": 0,
      "confirmations": null,
      "from": "0xd268fB48FA174088a25a120aFF0fd8eb0C2d4c87",
      "gasPrice": {
        "_hex": "0x14703906b2"
      },
      "gasLimit": {
        "_hex": "0x1d8a8"
      },
      "to": "0xf698016399d4868FAa45924D98B4A202424CdB5C",
      "value": {
        "_hex": "0x1c087b4c2e4a0000"
      },
      "nonce": 18,
      "data": "0x",
      "r": "0x24d596d713c24912e232242f1f9b9823b3dd7defd6a3f0cabdfe8d178170b32b",
      "s": "0x2bb5b3439a5085233d7e0a6d10bbc3dc1e046152473f13412e65a0cbab0af7be",
      "v": 27,
      "creates": null,
      "raw": "0xf86d128514703906b28301d8a894f698016399d4868faa45924d98b4a202424cdb5c881c087b4c2e4a0000801ba024d596d713c24912e232242f1f9b9823b3dd7defd6a3f0cabdfe8d178170b32ba02bb5b3439a5085233d7e0a6d10bbc3dc1e046152473f13412e65a0cbab0af7be",
      "networkId": 0,
      "chainId": 0
    }
  ]
}