{
  "hash": "0xdf37a499e081e694040dde0687a89532057c8094672c89737967bf6915800358",
  "parentHash": "0xfb091ea0fd625d2ca2ec26eb70407a6b251f9b8e8b3aac1bb0f30649a52b8f1b",
  "number": 46724,
  "timestamp": 1438928152,
  "nonce": "0x682dbff8ba9e243e",
  "difficulty": 1453206882642,
  "gasLimit": {
    "_hex": "0x747f"
  },
  "gasUsed": {
    "_hex": "0x5208"
  },
  "miner": "0xE13f83e0288E460362D9E7421f0601fB88C4fd91",
  "extraData": "0x476574682f76312e302e312f6c696e75782f676f312e342e32",
  "transactions": [
    {
      "hash": "0xe2c3b4462c170c8770d7cbc8f312f4337aabdaf8636e223d5fdf40780ad3d27f",
      "blockHash": "0xdf37a499e081e694040dde0687a89532057c8094672c89737967bf6915800358",
      "blockNumber": 46724,
      "transactionIndex": 0,
      "confirmations": null,
      "from": "0x7e1f96dE76715323e90CF5138ea516AD8528d407",
      "gasPrice": {
        "_hex": "0xd7cc02568"
      },
      "gasLimit": {
        "_hex": "0x5208"
      },
      "to": "0x32Be343B94f860124dC4fEe278FDCBD38C102D88",
      "value": {
        "_hex": "0x104351c82656e90000"
      },
      "nonce": 0,
      "data": "0x",
      "r": "0x5c12fb96bd3ac14fec64d4f0f69e95644f6dd205a62d05d368caa78a508a040d",
      "s": "0x3193db8116f891d08644bcea912548ea3d3d7898f0071ca7faeccf4c34ff3764",
      "v": 28,
      "creates": null,
      "raw": "0xf86d80850d7cc025688252089432be343b94f860124dc4fee278fdcbd38c102d8889104351c82656e90000801ca05c12fb96bd3ac14fec64d4f0f69e95644f6dd205a62d05d368caa78a508a040da03193db8116f891d08644bcea912548ea3d3d7898f0071ca7faeccf4c34ff3764",
      "networkId": 0,
      "chainId": 0
    }
  ]
}