{
  "hash": "0x2193c510297d5d7f32e3e35399eb3cb50466349fc418090cd4df1e7667cb1242",
  "parentHash": "0xd06aef578158ad25a18a62f6a585d1c74f889de131efc2d87804e76c84293df4",
  "number": 77508,
  "timestamp": 1439438515,
  "nonce": "0x023cf7b3f61a198b",
  "difficulty": 2240337424150,
  "gasLimit": {
    "_hex": "0x2fefd8"
  },
  "gasUsed": {
    "_hex": "0x5208"
  },
  "miner": "0xeEa71DC26083232a9e7a61b6A7836Dc2428376Cf",
  "extraData": "0x",
  "transactions": [
    {
      "hash": "0x86fd57c5c6cdc2c69733545350e999229d74b2e5aeb4a765624c44de7ff83ba7",
      "blockHash": "0x2193c510297d5d7f32e3e35399eb3cb50466349fc418090cd4df1e7667cb1242",
      "blockNumber": 77508,
      "transactionIndex": 0,
      "confirmations": null,
      "from": "0x32Be343B94f860124dC4fEe278FDCBD38C102D88",
      "gasPrice": {
        "_hex": "0xdf14c81b9"
      },
      "gasLimit": {
        "_hex": "0x5208"
      },
      "to": "0xE44722E814a70BF7009543535e6bCf0DF77545c2",
      "value": {
        "_hex": "0x6f1bad076dd15400"
      },
      "nonce": 368,
      "data": "0x",
      "r": "0x370b79130e6d698f9885ae6014f432225f4a0595ca3838759a79ac11959e4e5d",
      "s": "0x73c2a29428a2f5c5f80fe4defa94c7500e18e46b152c87c2b80a77271f08dcc4",
      "v": 27,
      "creates": null,
      "raw": "0xf86e820170850df14c81b982520894e44722e814a70bf7009543535e6bcf0df77545c2886f1bad076dd15400801ba0370b79130e6d698f9885ae6014f432225f4a0595ca3838759a79ac11959e4e5da073c2a29428a2f5c5f80fe4defa94c7500e18e46b152c87c2b80a77271f08dcc4",
      "networkId": 0,
      "chainId": 0
    }
  ]
}