{
  "hash": "0xe719a11192f951f65bfed32a0abc2ad5c376c048d6dfcf02bab84ce2723bc885",
  "parentHash": "0x07d6af514d2af70d10b79ff20073adbfabd51197df140d53b665c5755b5c9523",
  "number": 84938,
  "timestamp": 1439556499,
  "nonce": "0xb943cd86aa5c7ee6",
  "difficulty": 2692071824798,
  "gasLimit": {
    "_hex": "0x2fefd8"
  },
  "gasUsed": {
    "_hex": "0x5208"
  },
  "miner": "0xbb7B8287f3F0a933474a79eAe42CBCa977791171",
  "extraData": "0x476574682f4c5649562f76312e302e312f6c696e75782f676f312e342e32",
  "transactions": [
    {
      "hash": "0x47da5bf5dd0861b5e97d9040cacc86d3420287b4797b9b0707821f3256a7cd5e",
      "blockHash": "0xe719a11192f951f65bfed32a0abc2ad5c376c048d6dfcf02bab84ce2723bc885",
      "blockNumber": 84938,
      "transactionIndex": 0,
      "confirmations": null,
      "from": "0x91d32201228cd1Dea4e21d71f7A9e0CeF5de4A39",
      "gasPrice": {
        "_hex": "0xcfe8a8244"
      },
      "gasLimit": {
        "_hex": "0x15f90"
      },
      "to": "0x65d6F6040D1B3E8E8bFD5F70B46A2dB2ADBFca9a",
      "value": {
        "_hex": "0x257853b1dd8e0000"
      },
      "nonce": 4,
      "data": "0x",
      "r": "0x28c86f88e81bfab9c3f6a94b6048f7824769f989eb613f5ca068c02dbad9765b",
      "s": "0x4769e11d7c6498ef380c1e6a93371882ae4447206c2fd511ad20136193099d75",
      "v": 27,
      "creates": null,
      "raw": "0xf86d04850cfe8a824483015f909465d6f6040d1b3e8e8bfd5f70b46a2db2adbfca9a88257853b1dd8e0000801ba028c86f88e81bfab9c3f6a94b6048f7824769f989eb613f5ca068c02dbad9765ba04769e11d7c6498ef380c1e6a93371882ae4447206c2fd511ad20136193099d75",
      "networkId": 0,
      "chainId": 0
    }
  ]
}