{
  "hash": "0x69c0b3aaeeb2b9f30195bbcccaf0343b59c20207f71bfbd23a4cf71e6870a4f6",
  "parentHash": "0x7f27f996d31b164ba43916f8c8c6a3b4ad540b87d61e14c711b7c34af634b719",
  "number": 78997,
  "timestamp": 1439462930,
  "nonce": "0xa1ee0a2f1746208f",
  "difficulty": 2294178370206,
  "gasLimit": {
    "_hex": "0x2fefd8"
  },
  "gasUsed": {
    "_hex": "0x5658"
  },
  "miner": "0xC603Ab5ef41fC61AA8b76bEddb09e3Cfcbb174BD",
  "extraData": "0x476574682f76312e302e312f77696e646f77732f676f312e342e32",
  "transactions": [
    {
      "hash": "0x8ab863a5fa25a53a0c8b74e78acea9b761bae4bb6c87b6d2dcf09f6aa1a38a22",
      "blockHash": "0x69c0b3aaeeb2b9f30195bbcccaf0343b59c20207f71bfbd23a4cf71e6870a4f6",
      "blockNumber": 78997,
      "transactionIndex": 0,
      "confirmations": null,
      "from": "0x7cFa3d23636173A3beFaabc8ca86846A07C4B3DD",
      "gasPrice": {
        "_hex": "0xd377db94c"
      },
      "gasLimit": {
        "_hex": "0xf4240"
      },
      "to": "0x4d149EB99BDEEFC1f858f8fd22289C6beAE99f2c",
      "value": {
        "_hex": "0x0"
      },
      "nonce": 3,
      "data": "0x6ffcc7190000000000000000000000000000000000000000000000001b5df38d4912000000000000000000000000000000000000000000000000000000000000002f6249",
      "r": "0x71bfd276b645c998268fd36cce790b249dd0be6c2d1404024abc4eede6c00425",
      "s": "0x367060c7bc3dfa80998d844246c26aa046805bbadfd0cf9b9d5d38422657a606",
      "v": 27,
      "creates": null,
      "raw": "0xf8aa03850d377db94c830f4240944d149eb99bdeefc1f858f8fd22289c6beae99f2c80b8446ffcc7190000000000000000000000000000000000000000000000001b5df38d4912000000000000000000000000000000000000000000000000000000000000002f62491ba071bfd276b645c998268fd36cce790b249dd0be6c2d1404024abc4eede6c00425a0367060c7bc3dfa80998d844246c26aa046805bbadfd0cf9b9d5d38422657a606",
      "networkId": 0,
      "chainId": 0
    }
  ]
}