{
  "hash": "0x565afe57023329e0729edf1c18b01815841c595bf9d2f5ce547d45e2a9e7d5f6",
  "parentHash": "0xd2dc79019d1db00e500e8d005bc056f46b499290529f8885faaaa369726206ab",
  "number": 59717,
  "timestamp": 1439142513,
  "nonce": "0xaa6f4282e99aced4",
  "difficulty": 1712152289448,
  "gasLimit": {
    "_hex": "0x2fefd8"
  },
  "gasUsed": {
    "_hex": "0xa410"
  },
  "miner": "0x88D74a59454F6cF3B51ef6b9136AFb6b9D405A88",
  "extraData": "0x476574682f76312e302e312d37666266393930632f6c696e75782f676f312e34",
  "transactions": [
    {
      "hash": "0x305374e220f1fb9530c21d09883e416d06626e30b4d66605b3d5dd64dbc5b91c",
      "blockHash": "0x565afe57023329e0729edf1c18b01815841c595bf9d2f5ce547d45e2a9e7d5f6",
      "blockNumber": 59717,
      "transactionIndex": 0,
      "confirmations": null,
      "from": "0xBD744E3F13D79B33F6c8E1d5E32F8E9BA2866c46",
      "gasPrice": {
        "_hex": "0xd84eae365"
      },
      "gasLimit": {
        "_hex": "0x5208"
      },
      "to": "0xD2e57181beE0BF25a2E7D377EaCCec854Bd65334",
      "value": {
        "_hex": "0x1b1ae4d6e2ef500000"
      },
      "nonce": 11,
      "data": "0x",
      "r": "0xc0ec6c9a17ac17d80ae8ff00f2860c31bf671617869d1ca2d975c6bf7e3d669c",
      "s": "0x07cc0756cd2e72c4caaab7b8a03694841cc6af576b501512fa1e5c93456d82f3",
      "v": 27,
      "creates": null,
      "raw": "0xf86d0b850d84eae36582520894d2e57181bee0bf25a2e7d377eaccec854bd65334891b1ae4d6e2ef500000801ba0c0ec6c9a17ac17d80ae8ff00f2860c31bf671617869d1ca2d975c6bf7e3d669ca007cc0756cd2e72c4caaab7b8a03694841cc6af576b501512fa1e5c93456d82f3",
      "networkId": 0,
      "chainId": 0
    },
    {
      "hash": "0xbcdd681e56f530bca48278ad661216ee5c914d67b922e578e5c9fe2258ef4bea",
      "blockHash": "0x565afe57023329e0729edf1c18b01815841c595bf9d2f5ce547d45e2a9e7d5f6",
      "blockNumber": 59717,
      "transactionIndex": 1,
      "confirmations": null,
      "from": "0xD2e57181beE0BF25a2E7D377EaCCec854Bd65334",
      "gasPrice": {
        "_hex": "0xd009ac59e"
      },
      "gasLimit": {
        "_hex": "0x5208"
      },
      "to": "0x32Be343B94f860124dC4fEe278FDCBD38C102D88",
      "value": {
        "_hex": "0x128a2fe967d07b0000"
      },
      "nonce": 1,
      "data": "0x",
      "r": "0x42515d6b6e651ff3470cf113ff4805121c586872d60f6b06a92e86c33e25ed45",
      "s": "0x6d4744fa72b314931560630dc099d61221fadb78bd1da63095ec7e6b92a9c152",
      "v": 28,
      "creates": null,
      "raw": "0xf86d01850d009ac59e8252089432be343b94f860124dc4fee278fdcbd38c102d8889128a2fe967d07b0000801ca042515d6b6e651ff3470cf113ff4805121c586872d60f6b06a92e86c33e25ed45a06d4744fa72b314931560630dc099d61221fadb78bd1da63095ec7e6b92a9c152",
      "networkId": 0,
      "chainId": 0
    }
  ]
}