{
  "hash": "0xafa890857bad7ae120581b6967c2dab3737da0b2790c1bc14c48ad54a3fddd8e",
  "parentHash": "0xda2e8254626b3e53f8d8f8319dbbe92ad6f93f6ce02ea33a6992a167634837df",
  "number": 63286,
  "timestamp": 1439202143,
  "nonce": "0xcc8a47ac78c588b1",
  "difficulty": 1812042533611,
  "gasLimit": {
    "_hex": "0x2fefd8"
  },
  "gasUsed": {
    "_hex": "0xa674"
  },
  "miner": "0xf927a40C8B7F6E07c5af7FA2155B4864a4112B13",
  "extraData": "0x476574682f76312e302e312f6c696e75782f676f312e342e32",
  "transactions": [
    {
      "hash": "0xe5cb20ed6ad195d86527ac24cd5bef35c48ea04e0a2a77a321ace66442aeeac4",
      "blockHash": "0xafa890857bad7ae120581b6967c2dab3737da0b2790c1bc14c48ad54a3fddd8e",
      "blockNumber": 63286,
      "transactionIndex": 0,
      "confirmations": null,
      "from": "0xa914cDb571BFd93D64da66a4e108EA134e50D000",
      "gasPrice": {
        "_hex": "0x9184e72a000"
      },
      "gasLimit": {
        "_hex": "0x9965e"
      },
      "to": "0xCb88dAC50e0b4f450f3a5d02c2D65Bc56361313E",
      "value": {
        "_hex": "0xde0b6b3a7640000"
      },
      "nonce": 4,
      "data": "0x",
      "r": "0x8b0606b0b23368aa8fc20fef44a4b0a1b85fb13274bf94e48b2ec262b1e26e40",
      "s": "0x3be668082aea21f32a9c5078d95dac9de9ae897adb0dedd61b0998758c99e1b2",
      "v": 28,
      "creates": null,
      "raw": "0xf86e048609184e72a0008309965e94cb88dac50e0b4f450f3a5d02c2d65bc56361313e880de0b6b3a7640000801ca08b0606b0b23368aa8fc20fef44a4b0a1b85fb13274bf94e48b2ec262b1e26e40a03be668082aea21f32a9c5078d95dac9de9ae897adb0dedd61b0998758c99e1b2",
      "networkId": 0,
      "chainId": 0
    },
    {
      "hash": "0x1b609a2dcae1ff9b2bd15b9e86a262378b22f0f966230636cc66c51c8c15ba0c",
      "blockHash": "0xafa890857bad7ae120581b6967c2dab3737da0b2790c1bc14c48ad54a3fddd8e",
      "blockNumber": 63286,
      "transactionIndex": 1,
      "confirmations": null,
      "from": "0x7a94B19992CeB8cE63BC92Ee4b5adeD10c4D9725",
      "gasPrice": {
        "_hex": "0x110c8f7d8de"
      },
      "gasLimit": {
        "_hex": "0xc350"
      },
      "to": "0x2910543Af39abA0Cd09dBb2D50200b3E800A63D2",
      "value": {
        "_hex": "0x2c0bb3dd30c4e200000"
      },
      "nonce": 1,
      "data": "0x454e585042344b5647",
      "r": "0x6ac264b587dbbbc360af0c998ff402010f34a826058b11b9b62cb306297e002a",
      "s": "0x14916fdfc8018d7ef67a00a9d8ff870c49e3c5a1814d3e48f60b822c241ad42e",
      "v": 28,
      "creates": null,
      "raw": "0xf87801860110c8f7d8de82c350942910543af39aba0cd09dbb2d50200b3e800a63d28a02c0bb3dd30c4e20000089454e585042344b56471ca06ac264b587dbbbc360af0c998ff402010f34a826058b11b9b62cb306297e002aa014916fdfc8018d7ef67a00a9d8ff870c49e3c5a1814d3e48f60b822c241ad42e",
      "networkId": 0,
      "chainId": 0
    }
  ]
}