{
  "hash": "0x97f3366690f2d12f41814ce0316443f46d06b2138d540a1eb693b53f0cb48ce1",
  "parentHash": "0x86cd61bf65da2c1d2b1b64c22c1c33c82fdc19f2f2f1ba93349e28ab83f4b773",
  "number": 69032,
  "timestamp": 1439297421,
  "nonce": "0x7f767425b5e3eb29",
  "difficulty": 2037928347244,
  "gasLimit": {
    "_hex": "0x2fefd8"
  },
  "gasUsed": {
    "_hex": "0x29040"
  },
  "miner": "0x47ff6576639c2e94762eA5443978D7681C0E78DC",
  "extraData": "0x476574682f76312e302e312f6c696e75782f676f312e342e32",
  "transactions": [
    {
      "hash": "0x54df7a8c331aead19313d9c9d491d08442804efa23fb7c104070dcfc552c2193",
      "blockHash": "0x97f3366690f2d12f41814ce0316443f46d06b2138d540a1eb693b53f0cb48ce1",
      "blockNumber": 69032,
      "transactionIndex": 0,
      "confirmations": null,
      "from": "0x1Bfec905351fE8a518Fc1A6f3ccBF830Ed1D3128",
      "gasPrice": {
        "_hex": "0xba43b7400"
      },
      "gasLimit": {
        "_hex": "0x5208"
      },
      "to": "0xB63f8e5eAA9255F461647398A0C61e4D06A15766",
      "value": {
        "_hex": "0x1d7684e6875b000"
      },
      "nonce": 1,
      "data": "0x",
      "r": "0x3d5cd89a7dd77cc9ba451f2980455a6c2fbbbd43bb99818752c95486eeb9ef84",
      "s": "0x06eaae92d15b0f1070d047d16b684017364672094d6114d9c45109eec52ffba5",
      "v": 28,
      "creates": null,
      "raw": "0xf86c01850ba43b740082520894b63f8e5eaa9255f461647398a0c61e4d06a157668801d7684e6875b000801ca03d5cd89a7dd77cc9ba451f2980455a6c2fbbbd43bb99818752c95486eeb9ef84a006eaae92d15b0f1070d047d16b684017364672094d6114d9c45109eec52ffba5",
      "networkId": 0,
      "chainId": 0
    },
    {
      "hash": "0xfef081f7f9acef13c27578056101ca93164dc8da12c1810aab6e0609d1403c70",
      "blockHash": "0x97f3366690f2d12f41814ce0316443f46d06b2138d540a1eb693b53f0cb48ce1",
      "blockNumber": 69032,
      "transactionIndex": 1,
      "confirmations": null,
      "from": "0x2bF8B33e2A8B6cCC48b6b4C77134b0914b49B09f",
      "gasPrice": {
        "_hex": "0xba43b7400"
      },
      "gasLimit": {
        "_hex": "0x5208"
      },
      "to": "0xA84C48f517770B47e1aDCf954F4ef6478DCAc27b",
      "value": {
        "_hex": "0x1d7684e6875b000"
      },
      "nonce": 1,
      "data": "0x",
      "r": "0x2d80986972519fd9e870467a7c05c58a19cf2b639cb569cf12dc9e6f30958527",
      "s": "0x14e2d85007dcd0909bd3cc7206870ba179d53b16dda70947722b2381d1fd7ae2",
      "v": 28,
      "creates": null,
      "raw": "0xf86c01850ba43b740082520894a84c48f517770b47e1adcf954f4ef6478dcac27b8801d7684e6875b000801ca02d80986972519fd9e870467a7c05c58a19cf2b639cb569cf12dc9e6f30958527a014e2d85007dcd0909bd3cc7206870ba179d53b16dda70947722b2381d1fd7ae2",
      "networkId": 0,
      "chainId": 0
    },
    {
      "hash": "0x95657a408240941de254eecb7c74ee58071e195a54fd4c2819ede557ca6a0b76",
      "blockHash": "0x97f3366690f2d12f41814ce0316443f46d06b2138d540a1eb693b53f0cb48ce1",
      "blockNumber": 69032,
      "transactionIndex": 2,
      "confirmations": null,
      "from": "0x6031F8c12A0bC32DbE89FdaC9c707F033FD37286",
      "gasPrice": {
        "_hex": "0xba43b7400"
      },
      "gasLimit": {
        "_hex": "0x5208"
      },
      "to": "0x25A44ee5CDf5171c16632113d9665fcfE7D6708b",
      "value": {
        "_hex": "0x1d7684e6875b000"
      },
      "nonce": 1,
      "data": "0x",
      "r": "0xf0972af0ec3f4d6de6b2a4f76597c8146c922590fa7b8633065428ccf5ea581c",
      "s": "0x35657bc60530f4a5babaf84ffdb191da80be98a3334d765b44a69a17a490b098",
      "v": 27,
      "creates": null,
      "raw": "0xf86c01850ba43b74008252089425a44ee5cdf5171c16632113d9665fcfe7d6708b8801d7684e6875b000801ba0f0972af0ec3f4d6de6b2a4f76597c8146c922590fa7b8633065428ccf5ea581ca035657bc60530f4a5babaf84ffdb191da80be98a3334d765b44a69a17a490b098",
      "networkId": 0,
      "chainId": 0
    },
    {
      "hash": "0x22a3d9e7958ecd93f25c7a1192a9bebb174b51b22a497dde2848824e48285115",
      "blockHash": "0x97f3366690f2d12f41814ce0316443f46d06b2138d540a1eb693b53f0cb48ce1",
      "blockNumber": 69032,
      "transactionIndex": 3,
      "confirmations": null,
      "from": "0x3CE41D6Adb1d07f8A4CcF96ce4C0F1e5C3D03956",
      "gasPrice": {
        "_hex": "0xba43b7400"
      },
      "gasLimit": {
        "_hex": "0x5208"
      },
      "to": "0xf88Bb49e1F8BBC0e7DEa0aA5Cf4D1D832c829f0D",
      "value": {
        "_hex": "0x1d7684e6875b000"
      },
      "nonce": 1,
      "data": "0x",
      "r": "0xbbfc837db0b0050317392e53e07eb113555c45f7c4c4f432fe73428d0f364c78",
      "s": "0x4dfde8bf9de58f7dc0bd41a9b659fe38ade368624b8da2ae7819b1197d9c9cea",
      "v": 28,
      "creates": null,
      "raw": "0xf86c01850ba43b740082520894f88bb49e1f8bbc0e7dea0aa5cf4d1d832c829f0d8801d7684e6875b000801ca0bbfc837db0b0050317392e53e07eb113555c45f7c4c4f432fe73428d0f364c78a04dfde8bf9de58f7dc0bd41a9b659fe38ade368624b8da2ae7819b1197d9c9cea",
      "networkId": 0,
      "chainId": 0
    },
    {
      "hash": "0xdc14b076e00e5d4a79d96b3cb3e16721c5f209d7243e1baed38e6ddd6bafb785",
      "blockHash": "0x97f3366690f2d12f41814ce0316443f46d06b2138d540a1eb693b53f0cb48ce1",
      "blockNumber": 69032,
      "transactionIndex": 4,
      "confirmations": null,
      "from": "0x6959113357DbDfcD8F7a2B4B32025d9F4922352a",
      "gasPrice": {
        "_hex": "0xba43b7400"
      },
      "gasLimit": {
        "_hex": "0x5208"
      },
      "to": "0x16730db8dFc9E0b15Ac338975c4d7a75ef375E9e",
      "value": {
        "_hex": "0x1d7684e6875b000"
      },
      "nonce": 1,
      "data": "0x",
      "r": "0x14e9b04c53a8976a285bb0786c58c75cef7873310ff50a83fec6927ba466687f",
      "s": "0x422795e1da0e75c8589450a2617bc65b16397ccdbfe90c4c56940a6c048d5445",
      "v": 27,
      "creates": null,
      "raw": "0xf86c01850ba43b74008252089416730db8dfc9e0b15ac338975c4d7a75ef375e9e8801d7684e6875b000801ba014e9b04c53a8976a285bb0786c58c75cef7873310ff50a83fec6927ba466687fa0422795e1da0e75c8589450a2617bc65b16397ccdbfe90c4c56940a6c048d5445",
      "networkId": 0,
      "chainId": 0
    },
    {
      "hash": "0x382adf25ef7cf1b0373cb75f3d3cfca60a073bd425d48a0fb1b90eb639e078e7",
      "blockHash": "0x97f3366690f2d12f41814ce0316443f46d06b2138d540a1eb693b53f0cb48ce1",
      "blockNumber": 69032,
      "transactionIndex": 5,
      "confirmations": null,
      "from": "0x3Cb7897f04Cf291a4069e38E2809c260A3fCe3D3",
      "gasPrice": {
        "_hex": "0xba43b7400"
      },
      "gasLimit": {
        "_hex": "0x5208"
      },
      "to": "0x72b81bDFEDcF2dde462ED93396ee1f3A99ada1F6",
      "value": {
        "_hex": "0x1d7684e6875b000"
      },
      "nonce": 1,
      "data": "0x",
      "r": "0xa0edb1607c09d432611bbd9e24df90813f9bc2da46432de3709104d52fa86210",
      "s": "0x6e1d40402f2023d897a3135e6b8c2b18375f5ed122b8ceb8be185b8f65ef98ab",
      "v": 28,
      "creates": null,
      "raw": "0xf86c01850ba43b74008252089472b81bdfedcf2dde462ed93396ee1f3a99ada1f68801d7684e6875b000801ca0a0edb1607c09d432611bbd9e24df90813f9bc2da46432de3709104d52fa86210a06e1d40402f2023d897a3135e6b8c2b18375f5ed122b8ceb8be185b8f65ef98ab",
      "networkId": 0,
      "chainId": 0
    },
    {
      "hash": "0xc7beb482ced2a0a9c8e3a1dd2dfc0ecc433351f135ab82ed2e350092e2f58904",
      "blockHash": "0x97f3366690f2d12f41814ce0316443f46d06b2138d540a1eb693b53f0cb48ce1",
      "blockNumber": 69032,
      "transactionIndex": 6,
      "confirmations": null,
      "from": "0xE4588a12A7B3bcc8d6De5fbdBc3a82bC042A1415",
      "gasPrice": {
        "_hex": "0xba43b7400"
      },
      "gasLimit": {
        "_hex": "0x5208"
      },
      "to": "0xf4e8bE8B1d4133f08c272ab78d07baC4d4D91b81",
      "value": {
        "_hex": "0x1d7684e6875b000"
      },
      "nonce": 1,
      "data": "0x",
      "r": "0x2e5c12f94476194ca1bfe8f6e0ad1bbe9d67d5e5fbd82191c46d21e6757f5133",
      "s": "0x53b3bc5c32a3cf757647dce106cc653584727e13a7df35c2151b6d37c238b20d",
      "v": 28,
      "creates": null,
      "raw": "0xf86c01850ba43b740082520894f4e8be8b1d4133f08c272ab78d07bac4d4d91b818801d7684e6875b000801ca02e5c12f94476194ca1bfe8f6e0ad1bbe9d67d5e5fbd82191c46d21e6757f5133a053b3bc5c32a3cf757647dce106cc653584727e13a7df35c2151b6d37c238b20d",
      "networkId": 0,
      "chainId": 0
    },
    {
      "hash": "0xa58cd838061926bddd3d38883a55332cb603f3a30bd9891de2cd8544d8186a0f",
      "blockHash": "0x97f3366690f2d12f41814ce0316443f46d06b2138d540a1eb693b53f0cb48ce1",
      "blockNumber": 69032,
      "transactionIndex": 7,
      "confirmations": null,
      "from": "0x9d8266bDb1B9D926FB0AF6Da6D97d73C557B4878",
      "gasPrice": {
        "_hex": "0xba43b7400"
      },
      "gasLimit": {
        "_hex": "0x5208"
      },
      "to": "0xd392Ab3B669de4650076Cf5A8705CF846a5192Fb",
      "value": {
        "_hex": "0x1d7684e6875b000"
      },
      "nonce": 1,
      "data": "0x",
      "r": "0xa2c1c36f74d235812ce3b8487355094f1a4bb9fce0db88371c0f2be91969ffe8",
      "s": "0x52ea07b5907cdf8b422d8eb0b9ee4f3068d87426e85591569fd760e58e0b68fc",
      "v": 27,
      "creates": null,
      "raw": "0xf86c01850ba43b740082520894d392ab3b669de4650076cf5a8705cf846a5192fb8801d7684e6875b000801ba0a2c1c36f74d235812ce3b8487355094f1a4bb9fce0db88371c0f2be91969ffe8a052ea07b5907cdf8b422d8eb0b9ee4f3068d87426e85591569fd760e58e0b68fc",
      "networkId": 0,
      "chainId": 0
    }
  ]
}