{
  "hash": "0xc3b36ace590d8c44da4fc51830009e9f3ca11aba1d19331c983e0a5bfbfcc7f0",
  "parentHash": "0x99c893f64a8a30ee3885b253fabae08127a33353a91ea6633bfa2d9221f661a2",
  "number": 95798,
  "timestamp": 1439729751,
  "nonce": "0x8c562c4a41a30629",
  "difficulty": 3635600568386,
  "gasLimit": {
    "_hex": "0x2fefd8"
  },
  "gasUsed": {
    "_hex": "0x5208"
  },
  "miner": "0xf927a40C8B7F6E07c5af7FA2155B4864a4112B13",
  "extraData": "0x",
  "transactions": [
    {
      "hash": "0xe267b3eed3bc0731be603246b3c75d4238defb1fa161e6824a54a23aa180ad72",
      "blockHash": "0xc3b36ace590d8c44da4fc51830009e9f3ca11aba1d19331c983e0a5bfbfcc7f0",
      "blockNumber": 95798,
      "transactionIndex": 0,
      "confirmations": null,
      "from": "0xCdA0AD7542e30BF520652A05056eBe0105c7e49A",
      "gasPrice": {
        "_hex": "0xdc903bed3"
      },
      "gasLimit": {
        "_hex": "0x1e8480"
      },
      "to": "0x02E816AFC1b5C0f39852131959D946eb3b07b5ad",
      "value": {
        "_hex": "0x0"
      },
      "nonce": 8,
      "data": "0x",
      "r": "0xc7e9f28f586f24a83874a0da56eeb6d7161657ff45389a8bcb1d41fca85da447",
      "s": "0x73555c74650f42ccbca5073558f25773c14204168ec67b33e07d3b4e9ee01eee",
      "v": 28,
      "creates": null,
      "raw": "0xf86508850dc903bed3831e84809402e816afc1b5c0f39852131959d946eb3b07b5ad80801ca0c7e9f28f586f24a83874a0da56eeb6d7161657ff45389a8bcb1d41fca85da447a073555c74650f42ccbca5073558f25773c14204168ec67b33e07d3b4e9ee01eee",
      "networkId": 0,
      "chainId": 0
    }
  ]
}