{
  "hash": "0xd428ab14d3bbd2f0a9444b67d6c02a47230dd3e0c8da071de393d5a2deb0f8c2",
  "parentHash": "0x8b713d1e670e3e87f65519db2f32e25e0c020482cc8dd8182c1f50364a49ba86",
  "number": 69900,
  "timestamp": 1439311534,
  "nonce": "0x61678f090c8921fd",
  "difficulty": 2104455717489,
  "gasLimit": {
    "_hex": "0x2fefd8"
  },
  "gasUsed": {
    "_hex": "0x174f1"
  },
  "miner": "0x31995C46B15C84523cDEE26f49A681b8237e43F5",
  "extraData": "0x476574682f76312e302e312f77696e646f77732f676f312e342e32",
  "transactions": [
    {
      "hash": "0xe522fd46e38920efc9100dd6de617dbc92c84500479654a71fec717e2b2280d8",
      "blockHash": "0xd428ab14d3bbd2f0a9444b67d6c02a47230dd3e0c8da071de393d5a2deb0f8c2",
      "blockNumber": 69900,
      "transactionIndex": 0,
      "confirmations": null,
      "from": "0x25A0be9f6fCbDE4F61024B86a33dd80F7cbB3cEc",
      "gasPrice": {
        "_hex": "0xcf4344a63"
      },
      "gasLimit": {
        "_hex": "0x55f0"
      },
      "to": "0x2910543Af39abA0Cd09dBb2D50200b3E800A63D2",
      "value": {
        "_hex": "0x40cabb638f1ae0000"
      },
      "nonce": 1,
      "data": "0x454e51343033375047",
      "r": "0x352b1744e78d364aabe350be1d7459d49a14a9fafff6001d79a17f2895db1637",
      "s": "0x37015e3e583f931273e5c087302e9ff2e6e56da5bd0e97559139d85af8a23379",
      "v": 28,
      "creates": null,
      "raw": "0xf87601850cf4344a638255f0942910543af39aba0cd09dbb2d50200b3e800a63d289040cabb638f1ae000089454e513430333750471ca0352b1744e78d364aabe350be1d7459d49a14a9fafff6001d79a17f2895db1637a037015e3e583f931273e5c087302e9ff2e6e56da5bd0e97559139d85af8a23379",
      "networkId": 0,
      "chainId": 0
    },
    {
      "hash": "0x063e376351c3de0f0dab7d7601c45f994a3f498b540272fd0dd74905004b454e",
      "blockHash": "0xd428ab14d3bbd2f0a9444b67d6c02a47230dd3e0c8da071de393d5a2deb0f8c2",
      "blockNumber": 69900,
      "transactionIndex": 1,
      "confirmations": null,
      "from": "0x120A270bbC009644e35F0bB6ab13f95b8199c4ad",
      "gasPrice": {
        "_hex": "0xcd78047da"
      },
      "gasLimit": {
        "_hex": "0x15f90"
      },
      "to": "0xA8471786fF71d0F894e60Ab9e3217a7E842c7b38",
      "value": {
        "_hex": "0x2b5e3af16b1880000"
      },
      "nonce": 187,
      "data": "0x",
      "r": "0x473d99b2354fd8282f2a24d04d9e90c8569655530e07a67ef6387241a38c660f",
      "s": "0x7106b20f83ba900b22c6848547f77cab95d8e4a8a183928e44ea3da298ab2b03",
      "v": 28,
      "creates": null,
      "raw": "0xf86f81bb850cd78047da83015f9094a8471786ff71d0f894e60ab9e3217a7e842c7b388902b5e3af16b1880000801ca0473d99b2354fd8282f2a24d04d9e90c8569655530e07a67ef6387241a38c660fa07106b20f83ba900b22c6848547f77cab95d8e4a8a183928e44ea3da298ab2b03",
      "networkId": 0,
      "chainId": 0
    },
    {
      "hash": "0x263a10b6b4c8899359f26c7ff2a8b7f2cbcfb7d25f2369993ca50777790537b0",
      "blockHash": "0xd428ab14d3bbd2f0a9444b67d6c02a47230dd3e0c8da071de393d5a2deb0f8c2",
      "blockNumber": 69900,
      "transactionIndex": 2,
      "confirmations": null,
      "from": "0x000Df160997ba9420e4622996b05447871848834",
      "gasPrice": {
        "_hex": "0xba43b7400"
      },
      "gasLimit": {
        "_hex": "0x985f6"
      },
      "to": "0xad5e5A5Bc4654dbeF0d5CABD7ABeB426769C073a",
      "value": {
        "_hex": "0xa"
      },
      "nonce": 6,
      "data": "0xfcfff16f",
      "r": "0x3ff6206f2d52935ae21c3594de2668d99d20e99bb3e8845d4132daf26b087fe3",
      "s": "0x787c801fb70ed012f80fd3316f57ee9f35a898f0ca9e634d759d78a3b847c775",
      "v": 27,
      "creates": null,
      "raw": "0xf86906850ba43b7400830985f694ad5e5a5bc4654dbef0d5cabd7abeb426769c073a0a84fcfff16f1ba03ff6206f2d52935ae21c3594de2668d99d20e99bb3e8845d4132daf26b087fe3a0787c801fb70ed012f80fd3316f57ee9f35a898f0ca9e634d759d78a3b847c775",
      "networkId": 0,
      "chainId": 0
    }
  ]
}