{
  "hash": "0x7293151da0b8d89a70d0245d3746dfb4126a225d8192ae2664c5ad0ca5bc2835",
  "parentHash": "0x0c41ab86973a22799855c42dcdf38934c8963cdd2dcb9287cf76420620d84963",
  "number": 69689,
  "timestamp": 1439308103,
  "nonce": "0x2a2b070f1da136b1",
  "difficulty": 2087111887796,
  "gasLimit": {
    "_hex": "0x2fefd8"
  },
  "gasUsed": {
    "_hex": "0x5208"
  },
  "miner": "0x47ff6576639c2e94762eA5443978D7681C0E78DC",
  "extraData": "0x476574682f76312e302e312f6c696e75782f676f312e342e32",
  "transactions": [
    {
      "hash": "0x088956f2873ceb23733ddbd25f635e3fa14eeaedb572e97c56ef1e2ed44f3427",
      "blockHash": "0x7293151da0b8d89a70d0245d3746dfb4126a225d8192ae2664c5ad0ca5bc2835",
      "blockNumber": 69689,
      "transactionIndex": 0,
      "confirmations": null,
      "from": "0x72c083BeadBdc227c5fb43881597E32e83C26056",
      "gasPrice": {
        "_hex": "0x10dee9d4b05"
      },
      "gasLimit": {
        "_hex": "0x15f90"
      },
      "to": "0x249502491a53b217181420Cc4A6dE23a720636CA",
      "value": {
        "_hex": "0x3635c9adc5dea00000"
      },
      "nonce": 6,
      "data": "0x",
      "r": "0x9565709265a68b60b0af5618651e8fd72d84afbba3ba1987977061803d664392",
      "s": "0x47769f6badac5f87fc00565b77bfae72aa7e012af79b3908d74b3a2026d47191",
      "v": 28,
      "creates": null,
      "raw": "0xf86f0686010dee9d4b0583015f9094249502491a53b217181420cc4a6de23a720636ca893635c9adc5dea00000801ca09565709265a68b60b0af5618651e8fd72d84afbba3ba1987977061803d664392a047769f6badac5f87fc00565b77bfae72aa7e012af79b3908d74b3a2026d47191",
      "networkId": 0,
      "chainId": 0
    }
  ]
}