{
  "hash": "0xd65de7643f85dc31619293a37fb971df1a69cf43d8ca1b219cab74077e129b66",
  "parentHash": "0x8f0c3f9da9f54415ea794c453182aead49bc8fea01d8f2c1e7e45594f9656e82",
  "number": 59320,
  "timestamp": 1439136247,
  "nonce": "0x6394ec7f25f302db",
  "difficulty": 1701399073877,
  "gasLimit": {
    "_hex": "0x2fefd8"
  },
  "gasUsed": {
    "_hex": "0x5208"
  },
  "miner": "0x87898CE53471043FcCa0a2aF4E1dC6d8B3fCf607",
  "extraData": "0x476574682f5369626572696131392f76312e302e312d37666266393930632f6c",
  "transactions": [
    {
      "hash": "0x6b9ae598ed8294fd7c1bde720fcef760ca65075a1f18532c24d46c5ca378b6c5",
      "blockHash": "0xd65de7643f85dc31619293a37fb971df1a69cf43d8ca1b219cab74077e129b66",
      "blockNumber": 59320,
      "transactionIndex": 0,
      "confirmations": null,
      "from": "0x008B1D771AF0dCFd83C30D9D93f3B83CdF18BebA",
      "gasPrice": {
        "_hex": "0x2000000000"
      },
      "gasLimit": {
        "_hex": "0x5208"
      },
      "to": "0x00ec3B9E2e7Ba7FFBd1D77d100a29f8055C258Bb",
      "value": {
        "_hex": "0x1"
      },
      "nonce": 0,
      "data": "0x",
      "r": "0x799d4019e4b84c555f2646a870bcc06fc8fd71bad4243f526c9e9c5e300b07d4",
      "s": "0x670dae02c8bf1af10e046ea9fe653d737caecb67df7b4f7185efd91d01ce9597",
      "v": 27,
      "creates": null,
      "raw": "0xf864808520000000008252089400ec3b9e2e7ba7ffbd1d77d100a29f8055c258bb01801ba0799d4019e4b84c555f2646a870bcc06fc8fd71bad4243f526c9e9c5e300b07d4a0670dae02c8bf1af10e046ea9fe653d737caecb67df7b4f7185efd91d01ce9597",
      "networkId": 0,
      "chainId": 0
    }
  ]
}