{
  "hash": "0xf645022810eff29733bdfa7d41c5ee146ee3c6eaffc4b66b01da90690dab7a31",
  "parentHash": "0xdc2b460c012c116a7c34a33a80da5f661251abe754b08c7e9241a78dc9671e54",
  "number": 85135,
  "timestamp": 1439559022,
  "nonce": "0x2821741c612b571c",
  "difficulty": 2730399035581,
  "gasLimit": {
    "_hex": "0x2fefd8"
  },
  "gasUsed": {
    "_hex": "0xa410"
  },
  "miner": "0xf21b87E098b23069BE8199836a5116cfEE32b9B6",
  "extraData": "0x",
  "transactions": [
    {
      "hash": "0xd7a2e42136e2166ebc31be656e0982e8608c48ca3f22b32e79017b1b7c6c0b76",
      "blockHash": "0xf645022810eff29733bdfa7d41c5ee146ee3c6eaffc4b66b01da90690dab7a31",
      "blockNumber": 85135,
      "transactionIndex": 0,
      "confirmations": null,
      "from": "0x2C89f5FDcA3D155409b638B98A742E55eb4652B7",
      "gasPrice": {
        "_hex": "0x109ee2c7909"
      },
      "gasLimit": {
        "_hex": "0x15f90"
      },
      "to": "0x2aBAA2b360f586C7B4997E0532C4BD76bCFb20fF",
      "value": {
        "_hex": "0xde0b6b3a7640000"
      },
      "nonce": 26,
      "data": "0x",
      "r": "0x8030446c4a7f57ce04312dfc620d923099cfd76c74afdfdd97166bfc469cefc9",
      "s": "0x32963186d49a1c4afe95eccf0f494e0c7e9fc4ff6707b6f7a6a3f92bbf8c8675",
      "v": 27,
      "creates": null,
      "raw": "0xf86e1a860109ee2c790983015f90942abaa2b360f586c7b4997e0532c4bd76bcfb20ff880de0b6b3a7640000801ba08030446c4a7f57ce04312dfc620d923099cfd76c74afdfdd97166bfc469cefc9a032963186d49a1c4afe95eccf0f494e0c7e9fc4ff6707b6f7a6a3f92bbf8c8675",
      "networkId": 0,
      "chainId": 0
    },
    {
      "hash": "0xba6438492909c8a009fa319b2a421a7dbd53a0c874649c20abcd1e772a9bebbf",
      "blockHash": "0xf645022810eff29733bdfa7d41c5ee146ee3c6eaffc4b66b01da90690dab7a31",
      "blockNumber": 85135,
      "transactionIndex": 1,
      "confirmations": null,
      "from": "0x4FCD326ae0739D0DA0fC71020adb6aBf9abf3BdA",
      "gasPrice": {
        "_hex": "0xba43b7400"
      },
      "gasLimit": {
        "_hex": "0x5208"
      },
      "to": "0xC47Aaa860008be6f65B58c6C6E02a84e666EfE31",
      "value": {
        "_hex": "0xddcfbbb7a606000"
      },
      "nonce": 1,
      "data": "0x",
      "r": "0x6346d320914f2b9add01a643118fcd3a56ba8166bc5e620e46beb2f5d6efbce7",
      "s": "0x24759c265f9f5f724081f1aa892b62ee1716ba4e88f41808868714c5d6a38262",
      "v": 27,
      "creates": null,
      "raw": "0xf86c01850ba43b740082520894c47aaa860008be6f65b58c6c6e02a84e666efe31880ddcfbbb7a606000801ba06346d320914f2b9add01a643118fcd3a56ba8166bc5e620e46beb2f5d6efbce7a024759c265f9f5f724081f1aa892b62ee1716ba4e88f41808868714c5d6a38262",
      "networkId": 0,
      "chainId": 0
    }
  ]
}