{
  "hash": "0xf8bab9b8678f7ba16f702537f5af8fcbfd760b2e57958f3884df325ebd942fff",
  "parentHash": "0xd11061e5483ac2761b70b71fd1cc94e984f2aeda62455382807ba05cba2dad32",
  "number": 112146,
  "timestamp": 1440002762,
  "nonce": "0x052bf8939db488cd",
  "difficulty": 4368293247510,
  "gasLimit": {
    "_hex": "0x2fefd8"
  },
  "gasUsed": {
    "_hex": "0x20fc6"
  },
  "miner": "0xe6A7a1d47ff21B6321162AEA7C6CB457D5476Bca",
  "extraData": "0x476574682f76312e302e312d38326566323666362f6c696e75782f676f312e34",
  "transactions": [
    {
      "hash": "0xb0143b643993514dff3721fba5fd37cee894322a85f589186dc969e58eec3eaf",
      "blockHash": "0xf8bab9b8678f7ba16f702537f5af8fcbfd760b2e57958f3884df325ebd942fff",
      "blockNumber": 112146,
      "transactionIndex": 0,
      "confirmations": null,
      "from": "0xe30cbBc85225cABF434935a66D50462559D900f4",
      "gasPrice": {
        "_hex": "0xdb2816147"
      },
      "gasLimit": {
        "_hex": "0x249f0"
      },
      "to": "0xE28e72FCf78647ADCe1F1252F240bbfaebD63BcC",
      "value": {
        "_hex": "0x4e1003b28d9280000"
      },
      "nonce": 0,
      "data": "0x45466f3a",
      "r": "0xad04217e131d2ed2c82948c8561937d1a4a07aba1aacccfe916b8b4491e8e92f",
      "s": "0x7c98a3e0135e9ae0fe5478d05005e711c84b2661732d110c645261042bc23639",
      "v": 28,
      "creates": null,
      "raw": "0xf87280850db2816147830249f094e28e72fcf78647adce1f1252f240bbfaebd63bcc8904e1003b28d92800008445466f3a1ca0ad04217e131d2ed2c82948c8561937d1a4a07aba1aacccfe916b8b4491e8e92fa07c98a3e0135e9ae0fe5478d05005e711c84b2661732d110c645261042bc23639",
      "networkId": 0,
      "chainId": 0
    },
    {
      "hash": "0x7aae39b6f54248f8157152efc4486b764600ee05687408a8442ff8acd44acec4",
      "blockHash": "0xf8bab9b8678f7ba16f702537f5af8fcbfd760b2e57958f3884df325ebd942fff",
      "blockNumber": 112146,
      "transactionIndex": 1,
      "confirmations": null,
      "from": "0xaB638742EBe3A78F2a85028350e1AADB86C0a6ed",
      "gasPrice": {
        "_hex": "0xd59f5dc84"
      },
      "gasLimit": {
        "_hex": "0x15f90"
      },
      "to": "0xD5bf64B3B17Fb895536953EfE17578a8b7b16880",
      "value": {
        "_hex": "0x56bc75e2d63100000"
      },
      "nonce": 7,
      "data": "0x",
      "r": "0x91299584bb9a7056ead40e48c60c3ff14c0a49438582b5895c89f582f861140e",
      "s": "0x65f8e43ec68ce07b53972be55dff5343bc9e07beafe3d0d8397b081d5095e46c",
      "v": 27,
      "creates": null,
      "raw": "0xf86e07850d59f5dc8483015f9094d5bf64b3b17fb895536953efe17578a8b7b1688089056bc75e2d63100000801ba091299584bb9a7056ead40e48c60c3ff14c0a49438582b5895c89f582f861140ea065f8e43ec68ce07b53972be55dff5343bc9e07beafe3d0d8397b081d5095e46c",
      "networkId": 0,
      "chainId": 0
    }
  ]
}