{
  "hash": "0x1b5aa9298b893eb9bfcf4de48005baa353e85cd9fdd169c6947409d132b34cdb",
  "parentHash": "0xa4acba55df1f1267f654eb5859df39609d1ce94eea9e4c05afeba947f20d2db8",
  "number": 68577,
  "timestamp": 1439290293,
  "nonce": "0xb2cae8b565aba041",
  "difficulty": 2013311711366,
  "gasLimit": {
    "_hex": "0x2fefd8"
  },
  "gasUsed": {
    "_hex": "0x1ec30"
  },
  "miner": "0x0037ce3d4B7f8729C8607D8D0248252Be68202c0",
  "extraData": "0x476574682f76312e302e312f77696e646f77732f676f312e342e32",
  "transactions": [
    {
      "hash": "0x3e06fdebd4b0a0af1a84c5765b67f98ff534803efd70e0a9b790b7d823d17cbd",
      "blockHash": "0x1b5aa9298b893eb9bfcf4de48005baa353e85cd9fdd169c6947409d132b34cdb",
      "blockNumber": 68577,
      "transactionIndex": 0,
      "confirmations": null,
      "from": "0x2910543Af39abA0Cd09dBb2D50200b3E800A63D2",
      "gasPrice": {
        "_hex": "0xcbf6dd23f"
      },
      "gasLimit": {
        "_hex": "0x5208"
      },
      "to": "0xEfA6B1F0DB603537826891B8B4bc163984Bb40CD",
      "value": {
        "_hex": "0x662f8f855e53738000"
      },
      "nonce": 216,
      "data": "0x",
      "r": "0x9e0876ab9ae809365f7e732ed20f0fbefd7b7f709bdcc40f0e2b9d74ea4d35d5",
      "s": "0x61de79689c3e7a192c02428bdc5bcddd6e22765cb151308f339d51c60bbcbe68",
      "v": 27,
      "creates": null,
      "raw": "0xf86e81d8850cbf6dd23f82520894efa6b1f0db603537826891b8b4bc163984bb40cd89662f8f855e53738000801ba09e0876ab9ae809365f7e732ed20f0fbefd7b7f709bdcc40f0e2b9d74ea4d35d5a061de79689c3e7a192c02428bdc5bcddd6e22765cb151308f339d51c60bbcbe68",
      "networkId": 0,
      "chainId": 0
    },
    {
      "hash": "0x5fc97e1be4ce2d0aebb190dbaeef255f6dce4a983662a2bbeca4dfd602fce73a",
      "blockHash": "0x1b5aa9298b893eb9bfcf4de48005baa353e85cd9fdd169c6947409d132b34cdb",
      "blockNumber": 68577,
      "transactionIndex": 1,
      "confirmations": null,
      "from": "0xed165CE1728510608A1F65591173Bf68BD597598",
      "gasPrice": {
        "_hex": "0xba43b7400"
      },
      "gasLimit": {
        "_hex": "0x5208"
      },
      "to": "0xf8BbDE2F4012bb68f9376b209fD0f946e3CFde47",
      "value": {
        "_hex": "0xc1c23435b07000"
      },
      "nonce": 1,
      "data": "0x",
      "r": "0xe8885ff022d3cdd06cd364595702dd29950d8614d104acdc25aacb32aa49f89b",
      "s": "0x1fc2692c743d82f165bdbf0fce346572e913731e4abce305096a3574ab7211b2",
      "v": 27,
      "creates": null,
      "raw": "0xf86b01850ba43b740082520894f8bbde2f4012bb68f9376b209fd0f946e3cfde4787c1c23435b07000801ba0e8885ff022d3cdd06cd364595702dd29950d8614d104acdc25aacb32aa49f89ba01fc2692c743d82f165bdbf0fce346572e913731e4abce305096a3574ab7211b2",
      "networkId": 0,
      "chainId": 0
    },
    {
      "hash": "0x401a264af80d3e43548c3cfcb3dcfe8f6911e5b997f8178f2287d343323d3566",
      "blockHash": "0x1b5aa9298b893eb9bfcf4de48005baa353e85cd9fdd169c6947409d132b34cdb",
      "blockNumber": 68577,
      "transactionIndex": 2,
      "confirmations": null,
      "from": "0xDaa83D26C4399Afd0C28A8a25812A30FAc047d34",
      "gasPrice": {
        "_hex": "0xba43b7400"
      },
      "gasLimit": {
        "_hex": "0x5208"
      },
      "to": "0x0A433839C7BCF89DE8b85eBf553c29FBc4184295",
      "value": {
        "_hex": "0xc1c23435b07000"
      },
      "nonce": 1,
      "data": "0x",
      "r": "0x4822d07d372f57a2fd74ecc35dff7cc06b20a2020286b4b0720279812e394f35",
      "s": "0x311790a118b54ff900e9151e1216f63b8d2d7de77d2178dcfefb405cde5c4de8",
      "v": 28,
      "creates": null,
      "raw": "0xf86b01850ba43b7400825208940a433839c7bcf89de8b85ebf553c29fbc418429587c1c23435b07000801ca04822d07d372f57a2fd74ecc35dff7cc06b20a2020286b4b0720279812e394f35a0311790a118b54ff900e9151e1216f63b8d2d7de77d2178dcfefb405cde5c4de8",
      "networkId": 0,
      "chainId": 0
    },
    {
      "hash": "0x9bfbb6bbb92d21b012b6492e0b278079154a249102a3664ad56153b283ddfdef",
      "blockHash": "0x1b5aa9298b893eb9bfcf4de48005baa353e85cd9fdd169c6947409d132b34cdb",
      "blockNumber": 68577,
      "transactionIndex": 3,
      "confirmations": null,
      "from": "0x60d52c5289c196b99d3ec2bc6f9270043D9804cC",
      "gasPrice": {
        "_hex": "0xba43b7400"
      },
      "gasLimit": {
        "_hex": "0x5208"
      },
      "to": "0x680a0E42aF0EA1752277AEC2bB89000Fb18A2f09",
      "value": {
        "_hex": "0xc1c23435b07000"
      },
      "nonce": 1,
      "data": "0x",
      "r": "0x9a5103fc07d9b93ef926c2f9ea851790b964d6349e600e3a633199304eff0b87",
      "s": "0x1f0ac7849386a7bf98e486f55d8a3b5b08eac0cdbdaf156b7778e87658ed73e6",
      "v": 27,
      "creates": null,
      "raw": "0xf86b01850ba43b740082520894680a0e42af0ea1752277aec2bb89000fb18a2f0987c1c23435b07000801ba09a5103fc07d9b93ef926c2f9ea851790b964d6349e600e3a633199304eff0b87a01f0ac7849386a7bf98e486f55d8a3b5b08eac0cdbdaf156b7778e87658ed73e6",
      "networkId": 0,
      "chainId": 0
    },
    {
      "hash": "0x482dfcbd354df60a07f8396af4537db5df2d02d5e875eee8463adbed8bffb5e5",
      "blockHash": "0x1b5aa9298b893eb9bfcf4de48005baa353e85cd9fdd169c6947409d132b34cdb",
      "blockNumber": 68577,
      "transactionIndex": 4,
      "confirmations": null,
      "from": "0x80FeF5cA24064ADBd088875A85E25e5D317f36C8",
      "gasPrice": {
        "_hex": "0xba43b7400"
      },
      "gasLimit": {
        "_hex": "0x5208"
      },
      "to": "0xcA960466327B701f97eab0F769Bb6b47D7e4f1A5",
      "value": {
        "_hex": "0xc1c23435b07000"
      },
      "nonce": 1,
      "data": "0x",
      "r": "0xe3d7e80e67f13fe3897291dc526f94ddf22dda5751cbb9ef9be39d79e23ee47f",
      "s": "0x4851d4b603b31e65cd9552952f87d12c80f45f619a41577b330ea4d9ad90a89d",
      "v": 28,
      "creates": null,
      "raw": "0xf86b01850ba43b740082520894ca960466327b701f97eab0f769bb6b47d7e4f1a587c1c23435b07000801ca0e3d7e80e67f13fe3897291dc526f94ddf22dda5751cbb9ef9be39d79e23ee47fa04851d4b603b31e65cd9552952f87d12c80f45f619a41577b330ea4d9ad90a89d",
      "networkId": 0,
      "chainId": 0
    },
    {
      "hash": "0x1a94843cc6a73f95e33031bd9e757b5a29e69be3cefcc8bb4f52b67c0a906b2a",
      "blockHash": "0x1b5aa9298b893eb9bfcf4de48005baa353e85cd9fdd169c6947409d132b34cdb",
      "blockNumber": 68577,
      "transactionIndex": 5,
      "confirmations": null,
      "from": "0xd813564893f443456979D731a6f36E7E1D030E88",
      "gasPrice": {
        "_hex": "0xba43b7400"
      },
      "gasLimit": {
        "_hex": "0x5208"
      },
      "to": "0xcDFEE001CC85eEAe29a5368877E0D13B6a068b11",
      "value": {
        "_hex": "0xc1c23435b07000"
      },
      "nonce": 1,
      "data": "0x",
      "r": "0x09d10739c052ddcb1e5efd73e4dd1a96bff347952d253f2ac3e44ce7c77283e6",
      "s": "0x1a02f691e7bcd7d6f5def9aa2109e67a486f1e03b527db2bb3f8b8f144db8770",
      "v": 28,
      "creates": null,
      "raw": "0xf86b01850ba43b740082520894cdfee001cc85eeae29a5368877e0d13b6a068b1187c1c23435b07000801ca009d10739c052ddcb1e5efd73e4dd1a96bff347952d253f2ac3e44ce7c77283e6a01a02f691e7bcd7d6f5def9aa2109e67a486f1e03b527db2bb3f8b8f144db8770",
      "networkId": 0,
      "chainId": 0
    }
  ]
}