{
  "hash": "0xfc9ae2aac3157a9e7c497c00654311c30e045c55a0e744da95775e7a3d466fa8",
  "parentHash": "0x667d309df29be10ca4b95e7fa5d008bef79f2bcbbac1ccbe95c225702b08fa93",
  "number": 94766,
  "timestamp": 1439713878,
  "nonce": "0xacab02654537c3d9",
  "difficulty": 3483120495841,
  "gasLimit": {
    "_hex": "0x2fefd8"
  },
  "gasUsed": {
    "_hex": "0x5208"
  },
  "miner": "0xe6A7a1d47ff21B6321162AEA7C6CB457D5476Bca",
  "extraData": "0x476574682f76312e302e312d38326566323666362f6c696e75782f676f312e34",
  "transactions": [
    {
      "hash": "0x440442acdb2a0d423a36e7e3d80816675519c431b2a5dde89a9cdc4720bee518",
      "blockHash": "0xfc9ae2aac3157a9e7c497c00654311c30e045c55a0e744da95775e7a3d466fa8",
      "blockNumber": 94766,
      "transactionIndex": 0,
      "confirmations": null,
      "from": "0xAF654b2845616930f74573a909B477E23752DcA4",
      "gasPrice": {
        "_hex": "0xba43b7400"
      },
      "gasLimit": {
        "_hex": "0x5265"
      },
      "to": "0x014e478251F22a79fA7014f285647d91462A9669",
      "value": {
        "_hex": "0x29a2241af62c0000"
      },
      "nonce": 6,
      "data": "0x",
      "r": "0x42d032c94bd66c486866717d070c9cb41d63aac391504c256bec9df5fb8e9316",
      "s": "0xa954cd2d4eb0e2f2132ac849caa3aad0fb4fb5f3a0c15008092db1eece17b5ea",
      "v": 27,
      "creates": null,
      "raw": "0xf86c06850ba43b740082526594014e478251f22a79fa7014f285647d91462a96698829a2241af62c0000801ba042d032c94bd66c486866717d070c9cb41d63aac391504c256bec9df5fb8e9316a0a954cd2d4eb0e2f2132ac849caa3aad0fb4fb5f3a0c15008092db1eece17b5ea",
      "networkId": 0,
      "chainId": 0
    }
  ]
}