{
  "hash": "0xbec05d3f9a3ff1279bb4ca34f3dce3fac8d5f726404beabeec6754834e55e572",
  "parentHash": "0x44fa34a137d786213095339fc5eae4898ad0003bbc331d1ff86cdc189d29662e",
  "number": 79550,
  "timestamp": 1439471528,
  "nonce": "0x2da5e2a6f8fb59f9",
  "difficulty": 2338130827018,
  "gasLimit": {
    "_hex": "0x2fefd8"
  },
  "gasUsed": {
    "_hex": "0x19a28"
  },
  "miner": "0xf8E0CA3Ed80bd541b94BEdCf259e8CF2141A9523",
  "extraData": "0x476574682f76312e302e312f77696e646f77732f676f312e342e32",
  "transactions": [
    {
      "hash": "0xc3612559fa46dc069e5c17963a07a95214821a803acf41bf0f238f456054a9c3",
      "blockHash": "0xbec05d3f9a3ff1279bb4ca34f3dce3fac8d5f726404beabeec6754834e55e572",
      "blockNumber": 79550,
      "transactionIndex": 0,
      "confirmations": null,
      "from": "0xEF247E639d49461D25F57e9362CadE3120910Ce0",
      "gasPrice": {
        "_hex": "0xdc4ae927a"
      },
      "gasLimit": {
        "_hex": "0x15f90"
      },
      "to": "0xF87481A262E993a75F791E7859E71BaC36A606Eb",
      "value": {
        "_hex": "0x8ac7230489e80000"
      },
      "nonce": 21,
      "data": "0x",
      "r": "0x771e29b9f7317bf4d0f12bac2a534c8d82548f597062ffabfce6b740ed5a5259",
      "s": "0x5cbfe3a39db191e6bf3f3182312ceac58e641bc43a8aef2876a709b64ac6bcb7",
      "v": 27,
      "creates": null,
      "raw": "0xf86d15850dc4ae927a83015f9094f87481a262e993a75f791e7859e71bac36a606eb888ac7230489e80000801ba0771e29b9f7317bf4d0f12bac2a534c8d82548f597062ffabfce6b740ed5a5259a05cbfe3a39db191e6bf3f3182312ceac58e641bc43a8aef2876a709b64ac6bcb7",
      "networkId": 0,
      "chainId": 0
    },
    {
      "hash": "0x9e23ac0b3d12d4b812ca764196fa6088ed6b356c6eeb728e21e781b4826d87d8",
      "blockHash": "0xbec05d3f9a3ff1279bb4ca34f3dce3fac8d5f726404beabeec6754834e55e572",
      "blockNumber": 79550,
      "transactionIndex": 1,
      "confirmations": null,
      "from": "0x645cd9bb0842A32f6B7F27Cab3389e4A2476450F",
      "gasPrice": {
        "_hex": "0xcd269e9c3"
      },
      "gasLimit": {
        "_hex": "0x15f90"
      },
      "to": "0x0C67318ee92b57BFa68eE68eF61cA4fb9F6eb2b6",
      "value": {
        "_hex": "0x5"
      },
      "nonce": 0,
      "data": "0x",
      "r": "0xe766b4dc334a75bf1da1823514e768de20e4f48a4c4da7645d80187469898301",
      "s": "0x7929f78760090ec8c33aea5979eec591fd540230d18fcce8d271f73ccfaaeb90",
      "v": 28,
      "creates": null,
      "raw": "0xf86580850cd269e9c383015f90940c67318ee92b57bfa68ee68ef61ca4fb9f6eb2b605801ca0e766b4dc334a75bf1da1823514e768de20e4f48a4c4da7645d80187469898301a07929f78760090ec8c33aea5979eec591fd540230d18fcce8d271f73ccfaaeb90",
      "networkId": 0,
      "chainId": 0
    },
    {
      "hash": "0x257c53b2829e5d4172b3058b920133b0acfcb194a979e18367574b9d37b01e27",
      "blockHash": "0xbec05d3f9a3ff1279bb4ca34f3dce3fac8d5f726404beabeec6754834e55e572",
      "blockNumber": 79550,
      "transactionIndex": 2,
      "confirmations": null,
      "from": "0x32Be343B94f860124dC4fEe278FDCBD38C102D88",
      "gasPrice": {
        "_hex": "0xcb5c0bade"
      },
      "gasLimit": {
        "_hex": "0x5208"
      },
      "to": "0x02fFA0599A02Fdb0c30793A61493359dEa887C01",
      "value": {
        "_hex": "0x32a0e8ec5a98f000"
      },
      "nonce": 438,
      "data": "0x",
      "r": "0xbf0762e3fa7456b99e8af4ccaf3d7760e4b397f1464afd428b30118617301847",
      "s": "0x4628941ba71ea0da7628f5bec00f5399718c2bc3f077fd375fa18ab47e2854ef",
      "v": 27,
      "creates": null,
      "raw": "0xf86e8201b6850cb5c0bade8252089402ffa0599a02fdb0c30793a61493359dea887c018832a0e8ec5a98f000801ba0bf0762e3fa7456b99e8af4ccaf3d7760e4b397f1464afd428b30118617301847a04628941ba71ea0da7628f5bec00f5399718c2bc3f077fd375fa18ab47e2854ef",
      "networkId": 0,
      "chainId": 0
    },
    {
      "hash": "0x4fdb62d2195797e79b23dd95945ae8fada8ac90de86a6dd53b54dec6f356095e",
      "blockHash": "0xbec05d3f9a3ff1279bb4ca34f3dce3fac8d5f726404beabeec6754834e55e572",
      "blockNumber": 79550,
      "transactionIndex": 3,
      "confirmations": null,
      "from": "0x32Be343B94f860124dC4fEe278FDCBD38C102D88",
      "gasPrice": {
        "_hex": "0xcb5c0bade"
      },
      "gasLimit": {
        "_hex": "0x5208"
      },
      "to": "0x2845A058eF8C5aD7d022c344ffF46A61Cd6655f6",
      "value": {
        "_hex": "0x1156abf16a40f0000"
      },
      "nonce": 439,
      "data": "0x",
      "r": "0x18f4b465a9ccb8e7f2615f6ce2b079cac28155dc023267285732f000efc7ae6d",
      "s": "0x57b493b078c73349f9429dd543015e27bec417f03ff3bdebfd296b7b5c8fa334",
      "v": 27,
      "creates": null,
      "raw": "0xf86f8201b7850cb5c0bade825208942845a058ef8c5ad7d022c344fff46a61cd6655f68901156abf16a40f0000801ba018f4b465a9ccb8e7f2615f6ce2b079cac28155dc023267285732f000efc7ae6da057b493b078c73349f9429dd543015e27bec417f03ff3bdebfd296b7b5c8fa334",
      "networkId": 0,
      "chainId": 0
    },
    {
      "hash": "0x878f9e8be7b4c487b0e6eacf6b6b328d9e688fe82a8c0263ce102bf11ff62650",
      "blockHash": "0xbec05d3f9a3ff1279bb4ca34f3dce3fac8d5f726404beabeec6754834e55e572",
      "blockNumber": 79550,
      "transactionIndex": 4,
      "confirmations": null,
      "from": "0x32Be343B94f860124dC4fEe278FDCBD38C102D88",
      "gasPrice": {
        "_hex": "0xcb5c0bade"
      },
      "gasLimit": {
        "_hex": "0x5208"
      },
      "to": "0x65d6F6040D1B3E8E8bFD5F70B46A2dB2ADBFca9a",
      "value": {
        "_hex": "0x1d4e91484d1166000"
      },
      "nonce": 440,
      "data": "0x",
      "r": "0x61cb2d7a57b4720a3cb54974e3a094f50131c09c0203f688bcaa8694ee2f8e1f",
      "s": "0x40941b224c912e0cfc8eade639d5b39b4c715674a7d5d3a5386e131048063285",
      "v": 27,
      "creates": null,
      "raw": "0xf86f8201b8850cb5c0bade8252089465d6f6040d1b3e8e8bfd5f70b46a2db2adbfca9a8901d4e91484d1166000801ba061cb2d7a57b4720a3cb54974e3a094f50131c09c0203f688bcaa8694ee2f8e1fa040941b224c912e0cfc8eade639d5b39b4c715674a7d5d3a5386e131048063285",
      "networkId": 0,
      "chainId": 0
    }
  ]
}