{
  "hash": "0x8a7846003fda05d55b51abd708191c4776be7f2f5f96efcc32917ba615596a09",
  "parentHash": "0xbf725e08d361e778bcd74b542e0d5ace01205f66d281fc0bc2cd6f9cde35335e",
  "number": 81996,
  "timestamp": 1439511579,
  "nonce": "0xed9c79d91c7442ec",
  "difficulty": 2404592732140,
  "gasLimit": {
    "_hex": "0x2fefd8"
  },
  "gasUsed": {
    "_hex": "0x369b4"
  },
  "miner": "0x8B454d830feF179e66206840F8F3D1d83bC32b17",
  "extraData": "0x476574682f76312e302e312f77696e646f77732f676f312e342e32",
  "transactions": [
    {
      "hash": "0xa568bbbdab4826a5f34d1d857463d923555c35b273c085e807fda13245715a3a",
      "blockHash": "0x8a7846003fda05d55b51abd708191c4776be7f2f5f96efcc32917ba615596a09",
      "blockNumber": 81996,
      "transactionIndex": 0,
      "confirmations": null,
      "from": "0x0D82Cd113DC35DdDA93f38166cD5CDe8b88e36A1",
      "gasPrice": {
        "_hex": "0xe054a7570"
      },
      "gasLimit": {
        "_hex": "0x15f90"
      },
      "to": "0x3cb6797fD58b6A4a6D3107f686f09df04b62f6E4",
      "value": {
        "_hex": "0x0"
      },
      "nonce": 13,
      "data": "0x748dc522",
      "r": "0xc8b008e743b6b904929403929e614ce5684224315821b04aa1cbab36be6a72e9",
      "s": "0x5cabbd4302c7352827affa7d576be02223e2163577e10e09bafb56e24662504d",
      "v": 27,
      "creates": null,
      "raw": "0xf8690d850e054a757083015f90943cb6797fd58b6a4a6d3107f686f09df04b62f6e48084748dc5221ba0c8b008e743b6b904929403929e614ce5684224315821b04aa1cbab36be6a72e9a05cabbd4302c7352827affa7d576be02223e2163577e10e09bafb56e24662504d",
      "networkId": 0,
      "chainId": 0
    },
    {
      "hash": "0x51359bff524d024db30987a96e843dc86535845f4ef77442778abe9a67dffd96",
      "blockHash": "0x8a7846003fda05d55b51abd708191c4776be7f2f5f96efcc32917ba615596a09",
      "blockNumber": 81996,
      "transactionIndex": 1,
      "confirmations": null,
      "from": "0x0D82Cd113DC35DdDA93f38166cD5CDe8b88e36A1",
      "gasPrice": {
        "_hex": "0xe054a7570"
      },
      "gasLimit": {
        "_hex": "0x15f90"
      },
      "to": "0x3cb6797fD58b6A4a6D3107f686f09df04b62f6E4",
      "value": {
        "_hex": "0x0"
      },
      "nonce": 14,
      "data": "0x748dc522",
      "r": "0x210eabad961036b5cfc3ceca1f00613cff2ea19e316dcb4be231028b5f259688",
      "s": "0x5ca9b052e89c543562305ee855520708bd8bece63b209bd7bab4b964b42e77d9",
      "v": 27,
      "creates": null,
      "raw": "0xf8690e850e054a757083015f90943cb6797fd58b6a4a6d3107f686f09df04b62f6e48084748dc5221ba0210eabad961036b5cfc3ceca1f00613cff2ea19e316dcb4be231028b5f259688a05ca9b052e89c543562305ee855520708bd8bece63b209bd7bab4b964b42e77d9",
      "networkId": 0,
      "chainId": 0
    },
    {
      "hash": "0x59d17e254feb6187f50b2892e2a1584a65f2fe41008c8af24a82845f3210a4d7",
      "blockHash": "0x8a7846003fda05d55b51abd708191c4776be7f2f5f96efcc32917ba615596a09",
      "blockNumber": 81996,
      "transactionIndex": 2,
      "confirmations": null,
      "from": "0x0D82Cd113DC35DdDA93f38166cD5CDe8b88e36A1",
      "gasPrice": {
        "_hex": "0xe054a7570"
      },
      "gasLimit": {
        "_hex": "0x15f90"
      },
      "to": "0x3cb6797fD58b6A4a6D3107f686f09df04b62f6E4",
      "value": {
        "_hex": "0x0"
      },
      "nonce": 15,
      "data": "0x748dc522",
      "r": "0xc9ca58ca809d8bd62a677e7b3743767ae94c48c2cc5499aca674ecd09bff85fe",
      "s": "0x0fc2cd877279de29c9966b6dc7a0c8d1ee3a2ce0e8b428d8ab795ae2aee53bcb",
      "v": 28,
      "creates": null,
      "raw": "0xf8690f850e054a757083015f90943cb6797fd58b6a4a6d3107f686f09df04b62f6e48084748dc5221ca0c9ca58ca809d8bd62a677e7b3743767ae94c48c2cc5499aca674ecd09bff85fea00fc2cd877279de29c9966b6dc7a0c8d1ee3a2ce0e8b428d8ab795ae2aee53bcb",
      "networkId": 0,
      "chainId": 0
    },
    {
      "hash": "0x80f327a50d3a675b78e10487fbad38984dff7a3184f99c3f9b582147fb18ab74",
      "blockHash": "0x8a7846003fda05d55b51abd708191c4776be7f2f5f96efcc32917ba615596a09",
      "blockNumber": 81996,
      "transactionIndex": 3,
      "confirmations": null,
      "from": "0x0D82Cd113DC35DdDA93f38166cD5CDe8b88e36A1",
      "gasPrice": {
        "_hex": "0xe054a7570"
      },
      "gasLimit": {
        "_hex": "0x15f90"
      },
      "to": "0x3cb6797fD58b6A4a6D3107f686f09df04b62f6E4",
      "value": {
        "_hex": "0x0"
      },
      "nonce": 16,
      "data": "0x748dc522",
      "r": "0xc3039a893e0a51a7489d3acdd3f223efab0f798ec75e2f02b8466c8c27aca065",
      "s": "0x708163cf10fb7ebb5ae102980df5af902da6a90cb54063aca47982cdff8ecc32",
      "v": 27,
      "creates": null,
      "raw": "0xf86910850e054a757083015f90943cb6797fd58b6a4a6d3107f686f09df04b62f6e48084748dc5221ba0c3039a893e0a51a7489d3acdd3f223efab0f798ec75e2f02b8466c8c27aca065a0708163cf10fb7ebb5ae102980df5af902da6a90cb54063aca47982cdff8ecc32",
      "networkId": 0,
      "chainId": 0
    },
    {
      "hash": "0x01869f54e695e059c700f2dd364fb87568f43bf9b110c5d703bb736ee811d5bc",
      "blockHash": "0x8a7846003fda05d55b51abd708191c4776be7f2f5f96efcc32917ba615596a09",
      "blockNumber": 81996,
      "transactionIndex": 4,
      "confirmations": null,
      "from": "0x3250E3e858c26ADeccADf36a5663C22Aa84c4170",
      "gasPrice": {
        "_hex": "0xd6d9651bf"
      },
      "gasLimit": {
        "_hex": "0x15f90"
      },
      "to": "0x971fb830e0Cb043055d5387B50FD09900Fe7a140",
      "value": {
        "_hex": "0xde0b6b3a7640000"
      },
      "nonce": 0,
      "data": "0x",
      "r": "0x9b6bc0e5b41123984d1d86e7b0a8d487907001811438bfc3e0cf3177ba75ea78",
      "s": "0x349c6653a00a5c1ca4f19c30909adf392f2a2a62ba5004fc8ede53c72f5b8a1a",
      "v": 28,
      "creates": null,
      "raw": "0xf86d80850d6d9651bf83015f9094971fb830e0cb043055d5387b50fd09900fe7a140880de0b6b3a7640000801ca09b6bc0e5b41123984d1d86e7b0a8d487907001811438bfc3e0cf3177ba75ea78a0349c6653a00a5c1ca4f19c30909adf392f2a2a62ba5004fc8ede53c72f5b8a1a",
      "networkId": 0,
      "chainId": 0
    }
  ]
}