{
  "hash": "0x3a3e3997fe8ec4a69021028cd9f9bf774c4d7fc0d37b359c444de1d68b5848f1",
  "parentHash": "0xb1b31795abb269f485bc51bed98dc3830624c95a05c0dbcb6979251531ab7115",
  "number": 59368,
  "timestamp": 1439137107,
  "nonce": "0x1e0ffde8c81b7d68",
  "difficulty": 1701389338421,
  "gasLimit": {
    "_hex": "0x2fefd8"
  },
  "gasUsed": {
    "_hex": "0x5208"
  },
  "miner": "0xC49418429e58989172a4ACE0bab0cB8D3F00F97f",
  "extraData": "0x476574682f76312e302e312f6c696e75782f676f312e342e32",
  "transactions": [
    {
      "hash": "0x3da9bf62e6c109ee3e815988bc5bbe81b17e6ebe7feab0d67ddcf279b5d96498",
      "blockHash": "0x3a3e3997fe8ec4a69021028cd9f9bf774c4d7fc0d37b359c444de1d68b5848f1",
      "blockNumber": 59368,
      "transactionIndex": 0,
      "confirmations": null,
      "from": "0x07dc8c8B927adbEDfa8f5d639b4352351F2F36d2",
      "gasPrice": {
        "_hex": "0xd641f460d"
      },
      "gasLimit": {
        "_hex": "0x5208"
      },
      "to": "0x03B35D960c861Fe987C50380d76db9D6Ae1fa510",
      "value": {
        "_hex": "0x1b9de674df070000"
      },
      "nonce": 3,
      "data": "0x",
      "r": "0x528fdab8a33dbee22bc54f971340504e3ec509acafc1b538742db12ddc39dc8f",
      "s": "0x2b4b5c2f4ce6f1573a058c5cd42ad5e850788b2edbd585b123a4036e0b68bd56",
      "v": 27,
      "creates": null,
      "raw": "0xf86c03850d641f460d8252089403b35d960c861fe987c50380d76db9d6ae1fa510881b9de674df070000801ba0528fdab8a33dbee22bc54f971340504e3ec509acafc1b538742db12ddc39dc8fa02b4b5c2f4ce6f1573a058c5cd42ad5e850788b2edbd585b123a4036e0b68bd56",
      "networkId": 0,
      "chainId": 0
    }
  ]
}