{
  "hash": "0xcefdfe9822975fa546b28d0ed578a08885728675568bae65731af5af6f784fae",
  "parentHash": "0x8bf5f472e1ad3614b0b2f656ab8f6b6b15740d6df1b2c9006ed8fb818d074fb6",
  "number": 113773,
  "timestamp": 1440029395,
  "nonce": "0x5b24c6f9dd0191b5",
  "difficulty": 4447067213473,
  "gasLimit": {
    "_hex": "0x2fefd8"
  },
  "gasUsed": {
    "_hex": "0x5208"
  },
  "miner": "0x7E6930B63D03e88F5928C5cd6ee3FCee4D714F7F",
  "extraData": "0x",
  "transactions": [
    {
      "hash": "0x2a00d8a6f84093d5ae485ffc798e8dbe02e20d005ea9fe570ecac127226e5e5e",
      "blockHash": "0xcefdfe9822975fa546b28d0ed578a08885728675568bae65731af5af6f784fae",
      "blockNumber": 113773,
      "transactionIndex": 0,
      "confirmations": null,
      "from": "0x32Be343B94f860124dC4fEe278FDCBD38C102D88",
      "gasPrice": {
        "_hex": "0xd346deb52"
      },
      "gasLimit": {
        "_hex": "0x5208"
      },
      "to": "0x3f6da2f18Ce077B065ac7bcae884bF439a222B35",
      "value": {
        "_hex": "0x56bc75e2d63100000"
      },
      "nonce": 1374,
      "data": "0x",
      "r": "0x2f7d8824f9e6bead9e8f610f4716eeae31a811e8333f1375139d7278e5fd1eee",
      "s": "0x4cd64545157d18941d9de4041ce9425cb88a258e4f344d127b5eec2425841fdf",
      "v": 28,
      "creates": null,
      "raw": "0xf86f82055e850d346deb52825208943f6da2f18ce077b065ac7bcae884bf439a222b3589056bc75e2d63100000801ca02f7d8824f9e6bead9e8f610f4716eeae31a811e8333f1375139d7278e5fd1eeea04cd64545157d18941d9de4041ce9425cb88a258e4f344d127b5eec2425841fdf",
      "networkId": 0,
      "chainId": 0
    }
  ]
}