{
  "hash": "0x397bd7755acaf78fc1a7e205553ea6a04dce1500fd4a5bad512b4fc24e4e3eb2",
  "parentHash": "0x05743235e8db4830a074244564652ca9947396400ebef774c27ec740ac64b8d2",
  "number": 72003,
  "timestamp": 1439345581,
  "nonce": "0xd656762b58c73fd4",
  "difficulty": 2165420926853,
  "gasLimit": {
    "_hex": "0x2fefd8"
  },
  "gasUsed": {
    "_hex": "0x546c"
  },
  "miner": "0x88D74a59454F6cF3B51ef6b9136AFb6b9D405A88",
  "extraData": "0x476574682f76312e302e312d37666266393930632f6c696e75782f676f312e34",
  "transactions": [
    {
      "hash": "0x12456d48f9dbad4cdf492615622d9e2c3765a71bf1a29e3093215c16bca88b67",
      "blockHash": "0x397bd7755acaf78fc1a7e205553ea6a04dce1500fd4a5bad512b4fc24e4e3eb2",
      "blockNumber": 72003,
      "transactionIndex": 0,
      "confirmations": null,
      "from": "0x00a5797F52c9d58f189f36B1d45D1Bf6041f2F6b",
      "gasPrice": {
        "_hex": "0x110c8f7d8de"
      },
      "gasLimit": {
        "_hex": "0xc350"
      },
      "to": "0x2910543Af39abA0Cd09dBb2D50200b3E800A63D2",
      "value": {
        "_hex": "0xa04b3b13ac208a0000"
      },
      "nonce": 0,
      "data": "0x454e4d484748434152",
      "r": "0xf34a09f273bb8035994d0a8553384d70400bbba57dd929332fdceab3a895a21b",
      "s": "0x82f2dd4bf5352a57a743f7f5cb23310e846676e243758d265ad02f617da41ce3",
      "v": 27,
      "creates": null,
      "raw": "0xf87780860110c8f7d8de82c350942910543af39aba0cd09dbb2d50200b3e800a63d289a04b3b13ac208a000089454e4d4847484341521ba0f34a09f273bb8035994d0a8553384d70400bbba57dd929332fdceab3a895a21ba082f2dd4bf5352a57a743f7f5cb23310e846676e243758d265ad02f617da41ce3",
      "networkId": 0,
      "chainId": 0
    }
  ]
}