{
  "hash": "0x2d0f5c87781e562103873b92101d3b825327d1487ff264092e060ced8cfc9d84",
  "parentHash": "0xd238651f5bf2de672818f8a0593c78be503f97db8cfac73906d60c5bcad3f186",
  "number": 81254,
  "timestamp": 1439498600,
  "nonce": "0xfd7a84e9d6e99ac9",
  "difficulty": 2457030180832,
  "gasLimit": {
    "_hex": "0x2fefd8"
  },
  "gasUsed": {
    "_hex": "0x5208"
  },
  "miner": "0x1C8eCebAD1FDa19EF7701CF4Ca45033a34a6da31",
  "extraData": "0x476574682f76312e302e312f6c696e75782f676f312e342e32",
  "transactions": [
    {
      "hash": "0xcd8a805fac273fdc0cd7319f4b737fe4a10920732f774023ec0acc9b924d8f69",
      "blockHash": "0x2d0f5c87781e562103873b92101d3b825327d1487ff264092e060ced8cfc9d84",
      "blockNumber": 81254,
      "transactionIndex": 0,
      "confirmations": null,
      "from": "0x85804C279425A6403f00cC9C4b7045dC0CA2F82E",
      "gasPrice": {
        "_hex": "0xd21f14c31"
      },
      "gasLimit": {
        "_hex": "0x15f90"
      },
      "to": "0x519DC97eF09491aE962A8F13fe144c71feca4662",
      "value": {
        "_hex": "0x4563918244f40000"
      },
      "nonce": 1,
      "data": "0x",
      "r": "0x15204082d4250e429d2759497fa9d03151429b7d8bf38a4d1fd49461941a57e9",
      "s": "0x1000ebf7e7bd68b29478ec4932a5751aebf07ec6ab769bb03ada7c95cfeb4b81",
      "v": 27,
      "creates": null,
      "raw": "0xf86d01850d21f14c3183015f9094519dc97ef09491ae962a8f13fe144c71feca4662884563918244f40000801ba015204082d4250e429d2759497fa9d03151429b7d8bf38a4d1fd49461941a57e9a01000ebf7e7bd68b29478ec4932a5751aebf07ec6ab769bb03ada7c95cfeb4b81",
      "networkId": 0,
      "chainId": 0
    }
  ]
}