{
  "hash": "0x19413dc304eedca1532c88020ccb036d1c329685f966de4a535a200864937c57",
  "parentHash": "0xbb8e6aca0fd54e84feaec33e03dbd84e9ceee2c60816058d35bb9fa4aad63091",
  "number": 91656,
  "timestamp": 1439659285,
  "nonce": "0x0eb6a76316aa911d",
  "difficulty": 3491224213784,
  "gasLimit": {
    "_hex": "0x2fefd8"
  },
  "gasUsed": {
    "_hex": "0x5208"
  },
  "miner": "0xe6A7a1d47ff21B6321162AEA7C6CB457D5476Bca",
  "extraData": "0x476574682f76312e302e312d38326566323666362f6c696e75782f676f312e34",
  "transactions": [
    {
      "hash": "0x4b88ed2707512dfca288827c6119e8b3b99cd87a8372a29d9477132072e1f927",
      "blockHash": "0x19413dc304eedca1532c88020ccb036d1c329685f966de4a535a200864937c57",
      "blockNumber": 91656,
      "transactionIndex": 0,
      "confirmations": null,
      "from": "0xa70a9a7040d542C632D8e0bE7c5513A8a5Bbc752",
      "gasPrice": {
        "_hex": "0xcf8fe5f68"
      },
      "gasLimit": {
        "_hex": "0x5208"
      },
      "to": "0x32Be343B94f860124dC4fEe278FDCBD38C102D88",
      "value": {
        "_hex": "0x455f695872498800"
      },
      "nonce": 121,
      "data": "0x",
      "r": "0x7702c6c1233659b1da74ef0eb4301fe04e0ffe95f63614eb3d7eabe76a1cdb7f",
      "s": "0x758f313133b2cef5393d466ed9bf59b1c6bbddffeb52ce1345d25b7199c9debb",
      "v": 28,
      "creates": null,
      "raw": "0xf86c79850cf8fe5f688252089432be343b94f860124dc4fee278fdcbd38c102d8888455f695872498800801ca07702c6c1233659b1da74ef0eb4301fe04e0ffe95f63614eb3d7eabe76a1cdb7fa0758f313133b2cef5393d466ed9bf59b1c6bbddffeb52ce1345d25b7199c9debb",
      "networkId": 0,
      "chainId": 0
    }
  ]
}