{
  "hash": "0x0be5005378e92d2886b60122e28bc119c54a7e6b0364d5fc1d9bcb02a914b016",
  "parentHash": "0x7ae5c677e8f8de8a8e68d205924ca7c4dddedfccb55f63691003d46e85b961a3",
  "number": 79287,
  "timestamp": 1439467258,
  "nonce": "0x6448fc1652e9b67b",
  "difficulty": 2327951365970,
  "gasLimit": {
    "_hex": "0x2fefd8"
  },
  "gasUsed": {
    "_hex": "0x5208"
  },
  "miner": "0x6BB048244aC4f934163a15b7a472Ce7B48fC9F32",
  "extraData": "0x476574682f76312e302e312d37666266393930632f6c696e75782f676f312e34",
  "transactions": [
    {
      "hash": "0x1b91a0be7d04dc7265a9ed1090710fcc5fc1755b272f24a4b91ee36d96a6531a",
      "blockHash": "0x0be5005378e92d2886b60122e28bc119c54a7e6b0364d5fc1d9bcb02a914b016",
      "blockNumber": 79287,
      "transactionIndex": 0,
      "confirmations": null,
      "from": "0xa6BDc31c431B8F97848c9D60cbbe9660dc450eB7",
      "gasPrice": {
        "_hex": "0xcb21a09a1"
      },
      "gasLimit": {
        "_hex": "0x5208"
      },
      "to": "0x32Be343B94f860124dC4fEe278FDCBD38C102D88",
      "value": {
        "_hex": "0x455f80108e505000"
      },
      "nonce": 32,
      "data": "0x",
      "r": "0xd5ce6a2bbdb5f70515e0103c850866bda547e2441a2616fddc91b5270b5914ac",
      "s": "0x50439958231e626278ba4beea201c57e2d53bbfede42a25baf900adb169f5149",
      "v": 27,
      "creates": null,
      "raw": "0xf86c20850cb21a09a18252089432be343b94f860124dc4fee278fdcbd38c102d8888455f80108e505000801ba0d5ce6a2bbdb5f70515e0103c850866bda547e2441a2616fddc91b5270b5914aca050439958231e626278ba4beea201c57e2d53bbfede42a25baf900adb169f5149",
      "networkId": 0,
      "chainId": 0
    }
  ]
}