{
  "hash": "0x425e4c69cffbc50494647749b6d45c8801a12c963a4a68e38a60a70ba8e46965",
  "parentHash": "0x29f123efad37ad13a4c7626d9c12bde2a47bde5a15779da95d5417e9d525638a",
  "number": 94404,
  "timestamp": 1439707816,
  "nonce": "0x2aaae1a4ca150734",
  "difficulty": 3490080720831,
  "gasLimit": {
    "_hex": "0x2fefd8"
  },
  "gasUsed": {
    "_hex": "0x5208"
  },
  "miner": "0xe6A7a1d47ff21B6321162AEA7C6CB457D5476Bca",
  "extraData": "0x476574682f76312e302e312d38326566323666362f6c696e75782f676f312e34",
  "transactions": [
    {
      "hash": "0x41e46eefe6dc8a6675417af846c2690fd4a863a579d307379b6d2cc24e4ebba2",
      "blockHash": "0x425e4c69cffbc50494647749b6d45c8801a12c963a4a68e38a60a70ba8e46965",
      "blockNumber": 94404,
      "transactionIndex": 0,
      "confirmations": null,
      "from": "0x289B9bA6dC9c12D3130F1115180397C20cCBF220",
      "gasPrice": {
        "_hex": "0xba43b7400"
      },
      "gasLimit": {
        "_hex": "0x5208"
      },
      "to": "0xC47Aaa860008be6f65B58c6C6E02a84e666EfE31",
      "value": {
        "_hex": "0x16c14f16cf9ab5b02e0"
      },
      "nonce": 6,
      "data": "0x",
      "r": "0x709da8853c8f0898137c38859b30183ddda0c9659043fa86ffa4667dfbbcbf40",
      "s": "0x00157d65e9e04ab40bf846a98a8095b7e36956996ab233e4ffad7f25fb477931",
      "v": 27,
      "creates": null,
      "raw": "0xf86d06850ba43b740082520894c47aaa860008be6f65b58c6c6e02a84e666efe318a016c14f16cf9ab5b02e0801ba0709da8853c8f0898137c38859b30183ddda0c9659043fa86ffa4667dfbbcbf409f157d65e9e04ab40bf846a98a8095b7e36956996ab233e4ffad7f25fb477931",
      "networkId": 0,
      "chainId": 0
    }
  ]
}