{
  "hash": "0x4671a0fbc7d3a0bc57fca970c081474c30fbedb0e3778371149333c4066978a5",
  "parentHash": "0xe9d2158122d3c24b3183c6891169adefd95f130b6e2c46d4b1eaab1cdae6c2e0",
  "number": 92116,
  "timestamp": 1439667024,
  "nonce": "0xea3f2a72885e3d95",
  "difficulty": 3474028262178,
  "gasLimit": {
    "_hex": "0x2fefd8"
  },
  "gasUsed": {
    "_hex": "0xa410"
  },
  "miner": "0xf927a40C8B7F6E07c5af7FA2155B4864a4112B13",
  "extraData": "0x",
  "transactions": [
    {
      "hash": "0x49c26d212b3604b79d65ba5f03fe502121119b5812426ca707ba7231bac64ac5",
      "blockHash": "0x4671a0fbc7d3a0bc57fca970c081474c30fbedb0e3778371149333c4066978a5",
      "blockNumber": 92116,
      "transactionIndex": 0,
      "confirmations": null,
      "from": "0xF85670D57a7162B9598D92283A96B0893361d019",
      "gasPrice": {
        "_hex": "0xba43b7400"
      },
      "gasLimit": {
        "_hex": "0x5208"
      },
      "to": "0xC47Aaa860008be6f65B58c6C6E02a84e666EfE31",
      "value": {
        "_hex": "0x16e31098300d87c00"
      },
      "nonce": 0,
      "data": "0x",
      "r": "0x30a4a2843c85e40433a0f6db5a15fcbc9b6930ee8024a4be06202b2a5a3882fc",
      "s": "0x47f5683f58a4df45da345415e53ed431bd652a9d08c3501b6b515ea09338ca92",
      "v": 27,
      "creates": null,
      "raw": "0xf86d80850ba43b740082520894c47aaa860008be6f65b58c6c6e02a84e666efe3189016e31098300d87c00801ba030a4a2843c85e40433a0f6db5a15fcbc9b6930ee8024a4be06202b2a5a3882fca047f5683f58a4df45da345415e53ed431bd652a9d08c3501b6b515ea09338ca92",
      "networkId": 0,
      "chainId": 0
    },
    {
      "hash": "0x00c73c8da45b59f13c9700322d4037f94876897bde59d225e407b86c1f7ba127",
      "blockHash": "0x4671a0fbc7d3a0bc57fca970c081474c30fbedb0e3778371149333c4066978a5",
      "blockNumber": 92116,
      "transactionIndex": 1,
      "confirmations": null,
      "from": "0x8c0A6b62918D317e3B431EfB67E3fB5eff333b1c",
      "gasPrice": {
        "_hex": "0xba43b7400"
      },
      "gasLimit": {
        "_hex": "0x5208"
      },
      "to": "0xC47Aaa860008be6f65B58c6C6E02a84e666EfE31",
      "value": {
        "_hex": "0xcf23f8a00814ef620"
      },
      "nonce": 1,
      "data": "0x",
      "r": "0x6d83c8d0ca42d957dd84754ded6080a779831c63638204f0385954084d07d665",
      "s": "0x04498cdc0b613d85d3096180f113583e06d655da00e001381095687bfc91e4ea",
      "v": 27,
      "creates": null,
      "raw": "0xf86d01850ba43b740082520894c47aaa860008be6f65b58c6c6e02a84e666efe31890cf23f8a00814ef620801ba06d83c8d0ca42d957dd84754ded6080a779831c63638204f0385954084d07d665a004498cdc0b613d85d3096180f113583e06d655da00e001381095687bfc91e4ea",
      "networkId": 0,
      "chainId": 0
    }
  ]
}