{
  "hash": "0x2563280af4e4fb445fb3f277a999a30f93db3e6fbac557efb66ced2dc655fb4c",
  "parentHash": "0xd338bb16057022eb8c18090cbb5263b6702ea29222fab5dc6dc42fec9cdba842",
  "number": 112438,
  "timestamp": 1440007513,
  "nonce": "0xa03141ef5f156c13",
  "difficulty": 4411007794877,
  "gasLimit": {
    "_hex": "0x2fefd8"
  },
  "gasUsed": {
    "_hex": "0x5208"
  },
  "miner": "0xe6A7a1d47ff21B6321162AEA7C6CB457D5476Bca",
  "extraData": "0x476574682f76312e302e312d38326566323666362f6c696e75782f676f312e34",
  "transactions": [
    {
      "hash": "0x4bb73ff4e355b70d35e9637fb2c6978f56eb1c5a0de6048d6f84263c9f473c4a",
      "blockHash": "0x2563280af4e4fb445fb3f277a999a30f93db3e6fbac557efb66ced2dc655fb4c",
      "blockNumber": 112438,
      "transactionIndex": 0,
      "confirmations": null,
      "from": "0x289B9bA6dC9c12D3130F1115180397C20cCBF220",
      "gasPrice": {
        "_hex": "0xba43b7400"
      },
      "gasLimit": {
        "_hex": "0x5208"
      },
      "to": "0xC47Aaa860008be6f65B58c6C6E02a84e666EfE31",
      "value": {
        "_hex": "0xa2a135c766ff212c60"
      },
      "nonce": 14,
      "data": "0x",
      "r": "0x9b5cd076ee806ab0130cdb165f73b74a46e896ea8f3d3ebf62972dec53d1fa0f",
      "s": "0x60420f6e926549d3a7ce84dcacee2139e04048227a588fcdd8d3eef61fef0051",
      "v": 27,
      "creates": null,
      "raw": "0xf86d0e850ba43b740082520894c47aaa860008be6f65b58c6c6e02a84e666efe3189a2a135c766ff212c60801ba09b5cd076ee806ab0130cdb165f73b74a46e896ea8f3d3ebf62972dec53d1fa0fa060420f6e926549d3a7ce84dcacee2139e04048227a588fcdd8d3eef61fef0051",
      "networkId": 0,
      "chainId": 0
    }
  ]
}