{
  "hash": "0x882478b9ed005ba34ec856fc71ca4b89d112ae70035a9273a2f916fc02f6f9f9",
  "parentHash": "0xcf7417e39aec32e849eab82e1807d321bb105ee7dccde7087475acfaac20accd",
  "number": 87248,
  "timestamp": 1439589453,
  "nonce": "0x6be1f5252453fdef",
  "difficulty": 3073596054265,
  "gasLimit": {
    "_hex": "0x2fefd8"
  },
  "gasUsed": {
    "_hex": "0x5208"
  },
  "miner": "0xe6A7a1d47ff21B6321162AEA7C6CB457D5476Bca",
  "extraData": "0x476574682f76312e302e312d38326566323666362f6c696e75782f676f312e34",
  "transactions": [
    {
      "hash": "0x089c68b3d9924db096dad2b2e2a4feb3eb64da1a962658bbb768a67c854fcbd3",
      "blockHash": "0x882478b9ed005ba34ec856fc71ca4b89d112ae70035a9273a2f916fc02f6f9f9",
      "blockNumber": 87248,
      "transactionIndex": 0,
      "confirmations": null,
      "from": "0x02020D22dCF88f5eDd66B382D7da019F161fB7e3",
      "gasPrice": {
        "_hex": "0xcdd6aebc1"
      },
      "gasLimit": {
        "_hex": "0x15f90"
      },
      "to": "0x4FCD326ae0739D0DA0fC71020adb6aBf9abf3BdA",
      "value": {
        "_hex": "0xde0b6b3a7640000"
      },
      "nonce": 12,
      "data": "0x",
      "r": "0x719ccd0ecaa6d2356f88bd04887d52838566d941500bf31e84264c119f8be3af",
      "s": "0x2bfc2d99faf94292c131e989b947d7c19734cafb3e730bc26451593515135d14",
      "v": 27,
      "creates": null,
      "raw": "0xf86d0c850cdd6aebc183015f90944fcd326ae0739d0da0fc71020adb6abf9abf3bda880de0b6b3a7640000801ba0719ccd0ecaa6d2356f88bd04887d52838566d941500bf31e84264c119f8be3afa02bfc2d99faf94292c131e989b947d7c19734cafb3e730bc26451593515135d14",
      "networkId": 0,
      "chainId": 0
    }
  ]
}