{
  "hash": "0x70acf68c4470af06226d1fbf76f3d4b8097ecddb8db68bd6e8a778bc47899bce",
  "parentHash": "0xb8f7c48186f23c82cd6b64b2af4c762ace656d117ae2bf7ae4a2750af82fe54d",
  "number": 116246,
  "timestamp": 1440070732,
  "nonce": "0xea1c887c1d758901",
  "difficulty": 4593603845316,
  "gasLimit": {
    "_hex": "0x2fefd8"
  },
  "gasUsed": {
    "_hex": "0x5208"
  },
  "miner": "0x0037ce3d4B7f8729C8607D8D0248252Be68202c0",
  "extraData": "0x476574682f76312e302e312f77696e646f77732f676f312e342e32",
  "transactions": [
    {
      "hash": "0xa1e0d90629dd0ef98fe1ce7b9868fc49dfd1242af0e3b8714927ee2d2064db0e",
      "blockHash": "0x70acf68c4470af06226d1fbf76f3d4b8097ecddb8db68bd6e8a778bc47899bce",
      "blockNumber": 116246,
      "transactionIndex": 0,
      "confirmations": null,
      "from": "0x32Be343B94f860124dC4fEe278FDCBD38C102D88",
      "gasPrice": {
        "_hex": "0xcb901dd45"
      },
      "gasLimit": {
        "_hex": "0x5208"
      },
      "to": "0x13378156Fb27F79ad053fF11f023b145440A2d10",
      "value": {
        "_hex": "0xdbd2fc137a30000"
      },
      "nonce": 1460,
      "data": "0x",
      "r": "0xead79892c148da42fb1893ccdd0918975ccaa882f31d49da4cff6201c12a61d1",
      "s": "0x34244e4cc5834e6fb25c6bb442f634aa8b12a3c156a029720411993b6511b67d",
      "v": 27,
      "creates": null,
      "raw": "0xf86e8205b4850cb901dd458252089413378156fb27f79ad053ff11f023b145440a2d10880dbd2fc137a30000801ba0ead79892c148da42fb1893ccdd0918975ccaa882f31d49da4cff6201c12a61d1a034244e4cc5834e6fb25c6bb442f634aa8b12a3c156a029720411993b6511b67d",
      "networkId": 0,
      "chainId": 0
    }
  ]
}