{
  "hash": "0xdef085ab1a400ad93d58018dda5178b9ad0ab8b62894ba3f14cb0048dc054928",
  "parentHash": "0x6cf61786863c15e7804bc72e4e6c321781c630bb44e01e1630fd1efdaefe2844",
  "number": 71131,
  "timestamp": 1439331359,
  "nonce": "0xb6aa7ce633aaee8a",
  "difficulty": 2142506763291,
  "gasLimit": {
    "_hex": "0x2fefd5"
  },
  "gasUsed": {
    "_hex": "0x5208"
  },
  "miner": "0x5e1a72dde3Ffc20B77eA8382E916EF04C89ff2Bd",
  "extraData": "0x476574682f76312e302e302f77696e646f77732f676f312e342e32",
  "transactions": [
    {
      "hash": "0x21395414bed5a65477d3e9cf64293a850abb4832df3ae0f7163c1c341adbebda",
      "blockHash": "0xdef085ab1a400ad93d58018dda5178b9ad0ab8b62894ba3f14cb0048dc054928",
      "blockNumber": 71131,
      "transactionIndex": 0,
      "confirmations": null,
      "from": "0x2910543Af39abA0Cd09dBb2D50200b3E800A63D2",
      "gasPrice": {
        "_hex": "0xdcf086027"
      },
      "gasLimit": {
        "_hex": "0x5208"
      },
      "to": "0xAA977A3542936031d6D16289441e1C32052Cb913",
      "value": {
        "_hex": "0x3635b7ea4ca6bf8000"
      },
      "nonce": 265,
      "data": "0x",
      "r": "0xbeaa16855f8e708480d365bb054f87ef06623810357896607f31ece9d6e0d982",
      "s": "0x400627c734eddc9ebbb074823df5598596413d49afe9a33e93b88ac743f51f5f",
      "v": 27,
      "creates": null,
      "raw": "0xf86f820109850dcf08602782520894aa977a3542936031d6d16289441e1c32052cb913893635b7ea4ca6bf8000801ba0beaa16855f8e708480d365bb054f87ef06623810357896607f31ece9d6e0d982a0400627c734eddc9ebbb074823df5598596413d49afe9a33e93b88ac743f51f5f",
      "networkId": 0,
      "chainId": 0
    }
  ]
}