{
  "hash": "0x9a64b83b2ea4cb9fc2a2975530f3dff461abb70ca77452a2d9b5c0f0860c0786",
  "parentHash": "0xc27668534673443c2c850f760004ae4ca4017cff983238070002ad57074deab1",
  "number": 78586,
  "timestamp": 1439456141,
  "nonce": "0x476ea48775977d43",
  "difficulty": 2297654016765,
  "gasLimit": {
    "_hex": "0x2fefd5"
  },
  "gasUsed": {
    "_hex": "0x5208"
  },
  "miner": "0x38E8Ac573F0718497B99B698bB6A6D4A25404300",
  "extraData": "0x476574682f76312e302e312f77696e646f77732f676f312e342e32",
  "transactions": [
    {
      "hash": "0x54ed1bceb94d2c9e22dfcbc8d70feaeb4c02edf252e32940b5b7158058eb8115",
      "blockHash": "0x9a64b83b2ea4cb9fc2a2975530f3dff461abb70ca77452a2d9b5c0f0860c0786",
      "blockNumber": 78586,
      "transactionIndex": 0,
      "confirmations": null,
      "from": "0xc3DBDB3Efa722db2a3F6041b0ca0042782296ba9",
      "gasPrice": {
        "_hex": "0xd1e0146c9"
      },
      "gasLimit": {
        "_hex": "0x15f90"
      },
      "to": "0x92857A8BC0A6F66180324f49541C695A3a0Ff944",
      "value": {
        "_hex": "0x1236efcbcbb340000"
      },
      "nonce": 1,
      "data": "0x",
      "r": "0xf42f84f0cd84229d95ea5a6000fd765def279e14a3fbbb8fac2db2de2c5e8a39",
      "s": "0x52a7612d23b7889a536a7cf1f336f084be7e6fad8ceed0a760ffdb17593c9062",
      "v": 27,
      "creates": null,
      "raw": "0xf86e01850d1e0146c983015f909492857a8bc0a6f66180324f49541c695a3a0ff9448901236efcbcbb340000801ba0f42f84f0cd84229d95ea5a6000fd765def279e14a3fbbb8fac2db2de2c5e8a39a052a7612d23b7889a536a7cf1f336f084be7e6fad8ceed0a760ffdb17593c9062",
      "networkId": 0,
      "chainId": 0
    }
  ]
}