{
  "hash": "0x4cc2255aaabc166d94c36dff573f5576b118304c094ba83b3229d066ea2c9f22",
  "parentHash": "0xe25cf5b3a5e76d6e3e88dfe7678ddafa4f83aeadf9ed5a7dc0cdc7ca468038ef",
  "number": 96789,
  "timestamp": 1439745709,
  "nonce": "0x34481bb9f80fdf51",
  "difficulty": 3767082063265,
  "gasLimit": {
    "_hex": "0x2fefd8"
  },
  "gasUsed": {
    "_hex": "0x5208"
  },
  "miner": "0x5c53D4655ABD45d7206858D6CDF7D7c2F036a323",
  "extraData": "0x476574682f76312e302e312d38326566323666362f6c696e75782f676f312e34",
  "transactions": [
    {
      "hash": "0xdc6709a772143fda975fa3ff0b5d75ca2809f3ecf34c05cd935c7828310d0e0c",
      "blockHash": "0x4cc2255aaabc166d94c36dff573f5576b118304c094ba83b3229d066ea2c9f22",
      "blockNumber": 96789,
      "transactionIndex": 0,
      "confirmations": null,
      "from": "0x32Be343B94f860124dC4fEe278FDCBD38C102D88",
      "gasPrice": {
        "_hex": "0xdf0869855"
      },
      "gasLimit": {
        "_hex": "0x5208"
      },
      "to": "0x4E6Ae28d6e61fd3543a9b755839138a6c9167664",
      "value": {
        "_hex": "0xdbd2fc137a30000"
      },
      "nonce": 1013,
      "data": "0x",
      "r": "0x50a328264a48e7457c071102dd249b93e1ff764359ce1f33fb5271793aa27215",
      "s": "0x7a080a97680deeac0fd123634c9fbeff545890e2277407c72a07f1c34bdfe4d2",
      "v": 27,
      "creates": null,
      "raw": "0xf86e8203f5850df0869855825208944e6ae28d6e61fd3543a9b755839138a6c9167664880dbd2fc137a30000801ba050a328264a48e7457c071102dd249b93e1ff764359ce1f33fb5271793aa27215a07a080a97680deeac0fd123634c9fbeff545890e2277407c72a07f1c34bdfe4d2",
      "networkId": 0,
      "chainId": 0
    }
  ]
}