{
  "hash": "0x5d4a3723a12102dbefaf279c7388761713e99ccb1c101cc10febdec3e31ac199",
  "parentHash": "0x6c9224b33d2c5b905f5d38d8e2ed94cbc0fc9b8f4f0b2c97dca9aa06f054984f",
  "number": 64924,
  "timestamp": 1439228506,
  "nonce": "0xbc8738b04245b65a",
  "difficulty": 1911656908815,
  "gasLimit": {
    "_hex": "0x2fefd8"
  },
  "gasUsed": {
    "_hex": "0x17cd8"
  },
  "miner": "0x9746c7e1ef2bd21FF3997fa467593a89cb852BD0",
  "extraData": "0x476574682f76312e302e312f77696e646f77732f676f312e342e32",
  "transactions": [
    {
      "hash": "0x77dd080cd1e193102d0980ec49fae5aac8e0c7a70c0e8daab4a3ae16c59afa06",
      "blockHash": "0x5d4a3723a12102dbefaf279c7388761713e99ccb1c101cc10febdec3e31ac199",
      "blockNumber": 64924,
      "transactionIndex": 0,
      "confirmations": null,
      "from": "0x555472756BCd4AF62c8e227FbDaCD36B6c025aa4",
      "gasPrice": {
        "_hex": "0xba43b7400"
      },
      "gasLimit": {
        "_hex": "0x15f90"
      },
      "to": "0x793AE8C1b1a160BFc07BFB0d04F85eab1A71F4f2",
      "value": {
        "_hex": "0x0"
      },
      "nonce": 0,
      "data": "0x3ba15036",
      "r": "0x96e27f532feb3bf9d69c3b49e91fe7fe196e64c8c6ff458893dc7b27b9ba8ba1",
      "s": "0x40fc9b83a2cdfda2e034485d89201bc3cb81528fca41f0918ae7e24e2925e2b5",
      "v": 28,
      "creates": null,
      "raw": "0xf86980850ba43b740083015f9094793ae8c1b1a160bfc07bfb0d04f85eab1a71f4f280843ba150361ca096e27f532feb3bf9d69c3b49e91fe7fe196e64c8c6ff458893dc7b27b9ba8ba1a040fc9b83a2cdfda2e034485d89201bc3cb81528fca41f0918ae7e24e2925e2b5",
      "networkId": 0,
      "chainId": 0
    },
    {
      "hash": "0x894f13353fc58a862b5eafc78ee328a2898a0be1a1ae5558f362714620ba949d",
      "blockHash": "0x5d4a3723a12102dbefaf279c7388761713e99ccb1c101cc10febdec3e31ac199",
      "blockNumber": 64924,
      "transactionIndex": 1,
      "confirmations": null,
      "from": "0x73671D93942DEFb28f8f94bAC1CA3fA7E2EF0788",
      "gasPrice": {
        "_hex": "0xba43b7400"
      },
      "gasLimit": {
        "_hex": "0x15f90"
      },
      "to": "0x793AE8C1b1a160BFc07BFB0d04F85eab1A71F4f2",
      "value": {
        "_hex": "0x0"
      },
      "nonce": 0,
      "data": "0x3ba15036",
      "r": "0xfc0be43314d4923356601f8a6e2cf5e694032082b5bb435edffdb7509b67d662",
      "s": "0x3a8f70f801fc43d640980d2353870dbfdfc12fc3c8969be73fad61de921c6675",
      "v": 27,
      "creates": null,
      "raw": "0xf86980850ba43b740083015f9094793ae8c1b1a160bfc07bfb0d04f85eab1a71f4f280843ba150361ba0fc0be43314d4923356601f8a6e2cf5e694032082b5bb435edffdb7509b67d662a03a8f70f801fc43d640980d2353870dbfdfc12fc3c8969be73fad61de921c6675",
      "networkId": 0,
      "chainId": 0
    }
  ]
}