{
  "hash": "0xa27e24626a8703b927c498529ecfa8a93c65bd92513c3c735d6897e5c5875a8d",
  "parentHash": "0x12b8b51bd2c9493cef9fd20dabace886190abae1e66a7a557dc2426c00780a52",
  "number": 85339,
  "timestamp": 1439562111,
  "nonce": "0x989188c9d8a6cf3c",
  "difficulty": 2738343387441,
  "gasLimit": {
    "_hex": "0x2fefd8"
  },
  "gasUsed": {
    "_hex": "0xa410"
  },
  "miner": "0x157c6f2431eB1a95797EE86F7d17b3c0FD47A247",
  "extraData": "0x476574682f76312e302e312f77696e646f77732f676f312e342e32",
  "transactions": [
    {
      "hash": "0xbbf221885dd48c2c412e1224faae3c4b12db65aff38954ef99d2c3146bb2fb4e",
      "blockHash": "0xa27e24626a8703b927c498529ecfa8a93c65bd92513c3c735d6897e5c5875a8d",
      "blockNumber": 85339,
      "transactionIndex": 0,
      "confirmations": null,
      "from": "0xA21Ba94e45f0E168dA824fC67aC9cb5Cb577a8aF",
      "gasPrice": {
        "_hex": "0x45d964b800"
      },
      "gasLimit": {
        "_hex": "0x5208"
      },
      "to": "0x56011d6b57A70c27F7cc294905A5DdA65BfBd154",
      "value": {
        "_hex": "0x56bc75e2d63100000"
      },
      "nonce": 9,
      "data": "0x",
      "r": "0x39bcb265089fa3e6181f3739caee46c84e3bb6714e25ad8c9886254403b1c04b",
      "s": "0x186a556756a9b9ba25bbb5ef53d7561b59a229e3ee54829b25625c40a2f60b69",
      "v": 28,
      "creates": null,
      "raw": "0xf86d098545d964b8008252089456011d6b57a70c27f7cc294905a5dda65bfbd15489056bc75e2d63100000801ca039bcb265089fa3e6181f3739caee46c84e3bb6714e25ad8c9886254403b1c04ba0186a556756a9b9ba25bbb5ef53d7561b59a229e3ee54829b25625c40a2f60b69",
      "networkId": 0,
      "chainId": 0
    },
    {
      "hash": "0x375f8b18419480a1a700f5dc73af6b2c84687a55845d9afdbe063206a24f920e",
      "blockHash": "0xa27e24626a8703b927c498529ecfa8a93c65bd92513c3c735d6897e5c5875a8d",
      "blockNumber": 85339,
      "transactionIndex": 1,
      "confirmations": null,
      "from": "0x120A270bbC009644e35F0bB6ab13f95b8199c4ad",
      "gasPrice": {
        "_hex": "0xd3b7d0da4"
      },
      "gasLimit": {
        "_hex": "0x3d090"
      },
      "to": "0xFbc92cE518a6CA6341B08b4468880Cc9Dd61a027",
      "value": {
        "_hex": "0x15a8e99bb0eaafd000"
      },
      "nonce": 452,
      "data": "0x",
      "r": "0xf6dc784cdf2bb6dd4c2b9aa7592cfb5e6c56bdad1a0ed28cb1fff35e18a3a168",
      "s": "0x1331b19fc959dccc304dd0049c2e5ec8ea6b301114a8f690d0ceeec037d16288",
      "v": 27,
      "creates": null,
      "raw": "0xf8708201c4850d3b7d0da48303d09094fbc92ce518a6ca6341b08b4468880cc9dd61a0278915a8e99bb0eaafd000801ba0f6dc784cdf2bb6dd4c2b9aa7592cfb5e6c56bdad1a0ed28cb1fff35e18a3a168a01331b19fc959dccc304dd0049c2e5ec8ea6b301114a8f690d0ceeec037d16288",
      "networkId": 0,
      "chainId": 0
    }
  ]
}