{
  "hash": "0xabc9be3c4f96714f2ee393d2e705a39eb86dfe82cbf0d9c90c774f0fdda63bfb",
  "parentHash": "0x7a1118471afd197d6259e4d3c64c3d9ff9a14e326908dd20478448b2481b49d6",
  "number": 55685,
  "timestamp": 1439075100,
  "nonce": "0xf04b014acb4c9ac9",
  "difficulty": 1607620784302,
  "gasLimit": {
    "_hex": "0x2fefd8"
  },
  "gasUsed": {
    "_hex": "0x663d"
  },
  "miner": "0xf927a40C8B7F6E07c5af7FA2155B4864a4112B13",
  "extraData": "0x476574682f76312e302e302f6c696e75782f676f312e342e32",
  "transactions": [
    {
      "hash": "0xac1c4aa148fd3cac788738323d36720c61509b50f9eafb1e0829ff3b05d11709",
      "blockHash": "0xabc9be3c4f96714f2ee393d2e705a39eb86dfe82cbf0d9c90c774f0fdda63bfb",
      "blockNumber": 55685,
      "transactionIndex": 0,
      "confirmations": null,
      "from": "0xc70bA22fe446A85A247bf85BaD1AdDf3ddaF62E9",
      "gasPrice": {
        "_hex": "0xe06ee4f91"
      },
      "gasLimit": {
        "_hex": "0x15f90"
      },
      "to": "0xb87824547dB80F1fb37D0225B99F1A602f8642AD",
      "value": {
        "_hex": "0x190"
      },
      "nonce": 12,
      "data": "0x",
      "r": "0x1bd23eadcda1ddedce1e6e11ae79d6c7cc1a5957f921ad04234393ee33cc2158",
      "s": "0x138c9d12fe49075587377be15ce434c5302506ae8c03c84029dbebf66dbc13e2",
      "v": 28,
      "creates": null,
      "raw": "0xf8670c850e06ee4f9183015f9094b87824547db80f1fb37d0225b99f1a602f8642ad820190801ca01bd23eadcda1ddedce1e6e11ae79d6c7cc1a5957f921ad04234393ee33cc2158a0138c9d12fe49075587377be15ce434c5302506ae8c03c84029dbebf66dbc13e2",
      "networkId": 0,
      "chainId": 0
    }
  ]
}