{
  "hash": "0x3fe336496b1acc5688d17a4c9b34e5ddbfb161baeb7cddceb5930481b1d20fc2",
  "parentHash": "0xcac14311cdda1f42851cd3f4e59874d490fca0539b7888dfa0a8b43dfce9737c",
  "number": 61504,
  "timestamp": 1439173401,
  "nonce": "0x7b2fd0de3b1d2d31",
  "difficulty": 1739593531551,
  "gasLimit": {
    "_hex": "0x2fefd8"
  },
  "gasUsed": {
    "_hex": "0x546c"
  },
  "miner": "0xbb7B8287f3F0a933474a79eAe42CBCa977791171",
  "extraData": "0x476574682f4c5649562f76312e302e312f6c696e75782f676f312e342e32",
  "transactions": [
    {
      "hash": "0x7e715e1ccd251f6beb7b54b7cd5331c4c3f3df35bace26b368d917c6632c8b24",
      "blockHash": "0x3fe336496b1acc5688d17a4c9b34e5ddbfb161baeb7cddceb5930481b1d20fc2",
      "blockNumber": 61504,
      "transactionIndex": 0,
      "confirmations": null,
      "from": "0x2378fD4382511E968ED192106737D324f454b535",
      "gasPrice": {
        "_hex": "0x110c8f7d8de"
      },
      "gasLimit": {
        "_hex": "0xc350"
      },
      "to": "0x2910543Af39abA0Cd09dBb2D50200b3E800A63D2",
      "value": {
        "_hex": "0x44004c09e76a0000"
      },
      "nonce": 1,
      "data": "0x454e5a304243453552",
      "r": "0x69b68a60a583579f35073f047fe3ca9f1c8766893df84dbb8599ece8fcb5013f",
      "s": "0xb44fd6dc72f7f46502e9b53c9b209fbad04087ba6978fe9670c020c9e24d4e57",
      "v": 27,
      "creates": null,
      "raw": "0xf87601860110c8f7d8de82c350942910543af39aba0cd09dbb2d50200b3e800a63d28844004c09e76a000089454e5a3042434535521ba069b68a60a583579f35073f047fe3ca9f1c8766893df84dbb8599ece8fcb5013fa0b44fd6dc72f7f46502e9b53c9b209fbad04087ba6978fe9670c020c9e24d4e57",
      "networkId": 0,
      "chainId": 0
    }
  ]
}