{
  "hash": "0x5743f03de879ab62c71f0788b952a3524e1f863e09d0f665119046d4f70ff092",
  "parentHash": "0x1d90179d0f5389f7732f8cf707dfef87d71ea6ee793d4a956f780b5aec6f0e4b",
  "number": 107495,
  "timestamp": 1439923270,
  "nonce": "0xed11d54673775a4e",
  "difficulty": 4433046172999,
  "gasLimit": {
    "_hex": "0x2fefd8"
  },
  "gasUsed": {
    "_hex": "0x520c"
  },
  "miner": "0x55D1554b08a5311C5c0A0B6464162192f9D2f884",
  "extraData": "0x",
  "transactions": [
    {
      "hash": "0x9f8bb7fce35d53b1a4379a723bc4bb5d1547168571cebd77d6d7eec2d1e30283",
      "blockHash": "0x5743f03de879ab62c71f0788b952a3524e1f863e09d0f665119046d4f70ff092",
      "blockNumber": 107495,
      "transactionIndex": 0,
      "confirmations": null,
      "from": "0xD021d7e87Aa8053C9A196aEF9ad37Aa7CdC44898",
      "gasPrice": {
        "_hex": "0xd829c0496"
      },
      "gasLimit": {
        "_hex": "0x7530"
      },
      "to": "0xF7d656314a325997c2adD0c4A788975eFbdDF659",
      "value": {
        "_hex": "0xde0b6b3a7640000"
      },
      "nonce": 0,
      "data": "0x00",
      "r": "0x0e8cd492a942518968ab4bf32bb7b614f850dd604492d63d86ec4f102ce44ae9",
      "s": "0x63ef3f9145004a6b70957a86b6158c4defeb4d62197cf362f86074043f498075",
      "v": 28,
      "creates": null,
      "raw": "0xf86c80850d829c049682753094f7d656314a325997c2add0c4a788975efbddf659880de0b6b3a7640000001ca00e8cd492a942518968ab4bf32bb7b614f850dd604492d63d86ec4f102ce44ae9a063ef3f9145004a6b70957a86b6158c4defeb4d62197cf362f86074043f498075",
      "networkId": 0,
      "chainId": 0
    }
  ]
}