{
  "hash": "0x769b6d4f8bffb4bba7fa4e7378ce4e8bc5719877e81ba5a3555a38a19a704f68",
  "parentHash": "0xf09d1f2123fe6b0b8d66e0fffb0518dae4064aecc0025a3b3b37413e99edd046",
  "number": 58997,
  "timestamp": 1439130382,
  "nonce": "0xdba4ccbd04207b65",
  "difficulty": 1707290090112,
  "gasLimit": {
    "_hex": "0x2fefd8"
  },
  "gasUsed": {
    "_hex": "0x5428"
  },
  "miner": "0xf8E0CA3Ed80bd541b94BEdCf259e8CF2141A9523",
  "extraData": "0x476574682f76312e302e312f77696e646f77732f676f312e342e32",
  "transactions": [
    {
      "hash": "0x43a46136b048c5ecad670672172f43ccb899e76e97412f8c10d76d9d44bb6048",
      "blockHash": "0x769b6d4f8bffb4bba7fa4e7378ce4e8bc5719877e81ba5a3555a38a19a704f68",
      "blockNumber": 58997,
      "transactionIndex": 0,
      "confirmations": null,
      "from": "0xc7bF2ED1ed312940eE6ADED1516E268E4a604856",
      "gasPrice": {
        "_hex": "0xd3d37f23a"
      },
      "gasLimit": {
        "_hex": "0x15f90"
      },
      "to": "0x88a0A05437262a1b65f41A978Cb16CB1f0BFCfE0",
      "value": {
        "_hex": "0x1bc16d674ec80000"
      },
      "nonce": 0,
      "data": "0x0a496e759d03f437",
      "r": "0x5291300c09d90eba913fee622335b0fee638f7143b4b1bf76b62d57dcf0df461",
      "s": "0x1b359a54cf670b13a5c34b93f87997f47e5822a7529787d851956f1409eb3e60",
      "v": 27,
      "creates": null,
      "raw": "0xf87580850d3d37f23a83015f909488a0a05437262a1b65f41a978cb16cb1f0bfcfe0881bc16d674ec80000880a496e759d03f4371ba05291300c09d90eba913fee622335b0fee638f7143b4b1bf76b62d57dcf0df461a01b359a54cf670b13a5c34b93f87997f47e5822a7529787d851956f1409eb3e60",
      "networkId": 0,
      "chainId": 0
    }
  ]
}