{
  "hash": "0x9f75e04e5d5110a68eac079ea31209297961a62869e5ab7f9ab3793faed830e7",
  "parentHash": "0xf51ce44be32713a45ae60d92c86975282e151fb067122861edf630d01ded571a",
  "number": 83336,
  "timestamp": 1439533814,
  "nonce": "0x56f63605e259699c",
  "difficulty": 2418337164949,
  "gasLimit": {
    "_hex": "0x2fefd8"
  },
  "gasUsed": {
    "_hex": "0x5208"
  },
  "miner": "0xf927a40C8B7F6E07c5af7FA2155B4864a4112B13",
  "extraData": "0x",
  "transactions": [
    {
      "hash": "0x4efb7375c346e2e664e6c33a1fae39dbedbf1319ffb16c453e37158f721bd0e4",
      "blockHash": "0x9f75e04e5d5110a68eac079ea31209297961a62869e5ab7f9ab3793faed830e7",
      "blockNumber": 83336,
      "transactionIndex": 0,
      "confirmations": null,
      "from": "0xC47Aaa860008be6f65B58c6C6E02a84e666EfE31",
      "gasPrice": {
        "_hex": "0xd1c03e44e"
      },
      "gasLimit": {
        "_hex": "0x15f90"
      },
      "to": "0x548938756fCb5655A7523f66C01F1cd40aa620bE",
      "value": {
        "_hex": "0xf8ec126e19e544a"
      },
      "nonce": 11,
      "data": "0x",
      "r": "0xec47eac5e14ab65319aff5edfe3536231c5cbc40f1d096cf6cb7db873f816c1e",
      "s": "0x5cb07907ac638327debd3abe38cda99cb8f68ce6f5a1e986ef026338aa65ef88",
      "v": 28,
      "creates": null,
      "raw": "0xf86d0b850d1c03e44e83015f9094548938756fcb5655a7523f66c01f1cd40aa620be880f8ec126e19e544a801ca0ec47eac5e14ab65319aff5edfe3536231c5cbc40f1d096cf6cb7db873f816c1ea05cb07907ac638327debd3abe38cda99cb8f68ce6f5a1e986ef026338aa65ef88",
      "networkId": 0,
      "chainId": 0
    }
  ]
}