{
  "hash": "0x2e3a80b5ff0021a857e633fb9e557625a0f1d8d8ff7c76f749aed03b2d95835b",
  "parentHash": "0x06c77bc6bda135d761cf38eefac477c5699356ef7119b1661ea2e4394f0f1b69",
  "number": 86515,
  "timestamp": 1439579315,
  "nonce": "0xaed00038116c632d",
  "difficulty": 2897515291718,
  "gasLimit": {
    "_hex": "0x2fefd8"
  },
  "gasUsed": {
    "_hex": "0x19df8"
  },
  "miner": "0xe6A7a1d47ff21B6321162AEA7C6CB457D5476Bca",
  "extraData": "0x476574682f76312e302e312d38326566323666362f6c696e75782f676f312e34",
  "transactions": [
    {
      "hash": "0xe8a5b6a1440c86f7a8a733a403ea8c31bb8f7efbb984c7e26a0818475bd24ab3",
      "blockHash": "0x2e3a80b5ff0021a857e633fb9e557625a0f1d8d8ff7c76f749aed03b2d95835b",
      "blockNumber": 86515,
      "transactionIndex": 0,
      "confirmations": null,
      "from": "0x1308A2e95c0160B90803ddCA9B9a5bb55E416d79",
      "gasPrice": {
        "_hex": "0xd9cf01a4e"
      },
      "gasLimit": {
        "_hex": "0x15f90"
      },
      "to": "0x151145F7F490268407b4eDafE018b117c1b321f1",
      "value": {
        "_hex": "0x222c8eb3ff6640000"
      },
      "nonce": 126,
      "data": "0x",
      "r": "0x44c54181ae0aa1d3324aa3deb5c075bcc28213d2d10c2cc8414ccacaff635d98",
      "s": "0x010902726dad9036a6f94cfd755f988ae1ec8682421d5a317d3501713e6eb99a",
      "v": 27,
      "creates": null,
      "raw": "0xf86e7e850d9cf01a4e83015f9094151145f7f490268407b4edafe018b117c1b321f1890222c8eb3ff6640000801ba044c54181ae0aa1d3324aa3deb5c075bcc28213d2d10c2cc8414ccacaff635d98a0010902726dad9036a6f94cfd755f988ae1ec8682421d5a317d3501713e6eb99a",
      "networkId": 0,
      "chainId": 0
    },
    {
      "hash": "0x1d91e210c13c0c1b6513e77482523b4ebdb0a4e7844aa596d1e4d89d0a9080b2",
      "blockHash": "0x2e3a80b5ff0021a857e633fb9e557625a0f1d8d8ff7c76f749aed03b2d95835b",
      "blockNumber": 86515,
      "transactionIndex": 1,
      "confirmations": null,
      "from": "0x19b94273cAf9AE6b9560d14dB9A6709c9c5a599F",
      "gasPrice": {
        "_hex": "0xd9bc8fd5f"
      },
      "gasLimit": {
        "_hex": "0x15f90"
      },
      "to": "0x24e7eDc14752f3cDf84b3f75380c513781a46A8d",
      "value": {
        "_hex": "0x4c3065e9a8e50000"
      },
      "nonce": 2,
      "data": "0x",
      "r": "0xeca46e763788a00dd505dbfb24c90c617121ef02ceaa0d82bd10837aed4c3c1a",
      "s": "0x310172ba2a8c6102fde5420ce8d0987393c8b7c7aa5769a82385b81bb16dcec5",
      "v": 28,
      "creates": null,
      "raw": "0xf86d02850d9bc8fd5f83015f909424e7edc14752f3cdf84b3f75380c513781a46a8d884c3065e9a8e50000801ca0eca46e763788a00dd505dbfb24c90c617121ef02ceaa0d82bd10837aed4c3c1aa0310172ba2a8c6102fde5420ce8d0987393c8b7c7aa5769a82385b81bb16dcec5",
      "networkId": 0,
      "chainId": 0
    },
    {
      "hash": "0xb538289e0a1c99b89c2940d9375d40aaa68868d3b0ca94fa8479a3a22bac6821",
      "blockHash": "0x2e3a80b5ff0021a857e633fb9e557625a0f1d8d8ff7c76f749aed03b2d95835b",
      "blockNumber": 86515,
      "transactionIndex": 2,
      "confirmations": null,
      "from": "0x120A270bbC009644e35F0bB6ab13f95b8199c4ad",
      "gasPrice": {
        "_hex": "0xd8f40f153"
      },
      "gasLimit": {
        "_hex": "0x15f90"
      },
      "to": "0x3d1FC29b89717742e275fB98A8D2a26F216f49F2",
      "value": {
        "_hex": "0xa688906bd8b00000"
      },
      "nonce": 477,
      "data": "0x",
      "r": "0x29696a9e63ef87d69898c14eb505a7ae209e55318c4f7b86193c560452f45cd4",
      "s": "0x6f22d42271eb7c6ed129e6a39eb25649a36c66fdd5da3e0d5f0b48da5fd4251b",
      "v": 28,
      "creates": null,
      "raw": "0xf86f8201dd850d8f40f15383015f90943d1fc29b89717742e275fb98a8d2a26f216f49f288a688906bd8b00000801ca029696a9e63ef87d69898c14eb505a7ae209e55318c4f7b86193c560452f45cd4a06f22d42271eb7c6ed129e6a39eb25649a36c66fdd5da3e0d5f0b48da5fd4251b",
      "networkId": 0,
      "chainId": 0
    },
    {
      "hash": "0x4356e929e411397a0cc03f646be67825955528277cd56df460a7062a97449bad",
      "blockHash": "0x2e3a80b5ff0021a857e633fb9e557625a0f1d8d8ff7c76f749aed03b2d95835b",
      "blockNumber": 86515,
      "transactionIndex": 3,
      "confirmations": null,
      "from": "0x36d85Dc3683156e63Bf880A9fAb7788CF8143a27",
      "gasPrice": {
        "_hex": "0xd464ff3a7"
      },
      "gasLimit": {
        "_hex": "0x15f90"
      },
      "to": "0x0000000000000000000000000000000000000000",
      "value": {
        "_hex": "0x16345785d8a0000"
      },
      "nonce": 21,
      "data": "0xb214faa55341334343365143420000000000000000000000000000000000000000000000",
      "r": "0x1c1c928b75c35bc0bc777a98b2cd855e5dace3e68a2295e0de007bc9c66b321a",
      "s": "0x3754a5084007e0621bff921cb0a70dd5b08eee597d90c907fb2d6b0e27fbc8f5",
      "v": 27,
      "creates": null,
      "raw": "0xf89115850d464ff3a783015f9094000000000000000000000000000000000000000088016345785d8a0000a4b214faa553413343433651434200000000000000000000000000000000000000000000001ba01c1c928b75c35bc0bc777a98b2cd855e5dace3e68a2295e0de007bc9c66b321aa03754a5084007e0621bff921cb0a70dd5b08eee597d90c907fb2d6b0e27fbc8f5",
      "networkId": 0,
      "chainId": 0
    },
    {
      "hash": "0xf0675ba63e9eb55c2e0d3418aa96af9d51cb8d3169c456e85a81f204eee90a1d",
      "blockHash": "0x2e3a80b5ff0021a857e633fb9e557625a0f1d8d8ff7c76f749aed03b2d95835b",
      "blockNumber": 86515,
      "transactionIndex": 4,
      "confirmations": null,
      "from": "0x89054430DcdC28AC15fA635EF87c105E602bf70c",
      "gasPrice": {
        "_hex": "0xd1f409a35"
      },
      "gasLimit": {
        "_hex": "0x15f90"
      },
      "to": "0xeFFFe92E81e65eA3AD7C8C87D370e1CD31b0cac4",
      "value": {
        "_hex": "0x2bb38"
      },
      "nonce": 1,
      "data": "0x",
      "r": "0x350839f145b3ab4f37a58fc1cd7eb4ce784c097571a2032f506356792381fb81",
      "s": "0x3184e067fc929a2c93a717161b2102f3400e7199d40173ee7085bafe2e2b5acd",
      "v": 28,
      "creates": null,
      "raw": "0xf86801850d1f409a3583015f9094efffe92e81e65ea3ad7c8c87d370e1cd31b0cac48302bb38801ca0350839f145b3ab4f37a58fc1cd7eb4ce784c097571a2032f506356792381fb81a03184e067fc929a2c93a717161b2102f3400e7199d40173ee7085bafe2e2b5acd",
      "networkId": 0,
      "chainId": 0
    }
  ]
}