{
  "hash": "0xb046e9d41df2d599becbcef721e0d5b84a9f40991882ea0b9df6751c85aedf81",
  "parentHash": "0xb746ea2789e433b7b92d1a2e430be3c0077d37ffb75396ff175ab32628543fac",
  "number": 96845,
  "timestamp": 1439746729,
  "nonce": "0x47d47dc76c8bc939",
  "difficulty": 3737741443556,
  "gasLimit": {
    "_hex": "0x2fefd8"
  },
  "gasUsed": {
    "_hex": "0x5208"
  },
  "miner": "0x580992B51e3925e23280EfB93d3047C82f17E038",
  "extraData": "0x476574682f76312e302e312f6c696e75782f676f312e342e32",
  "transactions": [
    {
      "hash": "0xfade2be2b5dfa6b53018632092e7b43ea480b3186c0282397475fcc477832e21",
      "blockHash": "0xb046e9d41df2d599becbcef721e0d5b84a9f40991882ea0b9df6751c85aedf81",
      "blockNumber": 96845,
      "transactionIndex": 0,
      "confirmations": null,
      "from": "0xB4137d028aBB8Dc65A224E4751397d50DdE6c73D",
      "gasPrice": {
        "_hex": "0xd1b26fb1f"
      },
      "gasLimit": {
        "_hex": "0x5208"
      },
      "to": "0x32Be343B94f860124dC4fEe278FDCBD38C102D88",
      "value": {
        "_hex": "0xd0268c22c7084000"
      },
      "nonce": 2,
      "data": "0x",
      "r": "0xaa5dc62d8c0237e761259e885dca3506ffe3216cf44d53c09ae7f963b294c014",
      "s": "0x6417ee0cf52b08c62d0b693c3aa9b259722ab3096655123940dff67dc52c744e",
      "v": 28,
      "creates": null,
      "raw": "0xf86c02850d1b26fb1f8252089432be343b94f860124dc4fee278fdcbd38c102d8888d0268c22c7084000801ca0aa5dc62d8c0237e761259e885dca3506ffe3216cf44d53c09ae7f963b294c014a06417ee0cf52b08c62d0b693c3aa9b259722ab3096655123940dff67dc52c744e",
      "networkId": 0,
      "chainId": 0
    }
  ]
}