{
  "hash": "0x0888c92d75e468ea0061f910c18b88a774c3190f507bd2301c48628722c2fce7",
  "parentHash": "0x0a3f8ca10f0a4c6377d2c7b20331c9e8a8975fa887924e54e102dcfb30db4560",
  "number": 87600,
  "timestamp": 1439594630,
  "nonce": "0x5b473fc8a2d3d002",
  "difficulty": 3164842036669,
  "gasLimit": {
    "_hex": "0x2fefd8"
  },
  "gasUsed": {
    "_hex": "0xa410"
  },
  "miner": "0xeB1325C8D9d3ea8D74aC11F4B00F1B2367686319",
  "extraData": "0x476574682f76312e302e312f77696e646f77732f676f312e342e32",
  "transactions": [
    {
      "hash": "0x06fb363997ee3c405b3d18bf67197c7999b78e2fd3fb6867056240b197a88102",
      "blockHash": "0x0888c92d75e468ea0061f910c18b88a774c3190f507bd2301c48628722c2fce7",
      "blockNumber": 87600,
      "transactionIndex": 0,
      "confirmations": null,
      "from": "0xa6BDc31c431B8F97848c9D60cbbe9660dc450eB7",
      "gasPrice": {
        "_hex": "0xdf47f9dbc"
      },
      "gasLimit": {
        "_hex": "0x5208"
      },
      "to": "0x32Be343B94f860124dC4fEe278FDCBD38C102D88",
      "value": {
        "_hex": "0x34063460c179b400"
      },
      "nonce": 79,
      "data": "0x",
      "r": "0x336b5bee771f6e4f91a5327ac3a8410a799827eb7e09fdfcdedc368508e9a054",
      "s": "0x29a1408b31b76be933cec2a596cbd2432f1f192ee17963e2bb813631d343889e",
      "v": 27,
      "creates": null,
      "raw": "0xf86c4f850df47f9dbc8252089432be343b94f860124dc4fee278fdcbd38c102d888834063460c179b400801ba0336b5bee771f6e4f91a5327ac3a8410a799827eb7e09fdfcdedc368508e9a054a029a1408b31b76be933cec2a596cbd2432f1f192ee17963e2bb813631d343889e",
      "networkId": 0,
      "chainId": 0
    },
    {
      "hash": "0x9f662f81345c28f18ca8e8a29621953d20a9ca3248a5e7750790bd3175219c13",
      "blockHash": "0x0888c92d75e468ea0061f910c18b88a774c3190f507bd2301c48628722c2fce7",
      "blockNumber": 87600,
      "transactionIndex": 1,
      "confirmations": null,
      "from": "0x0fFecdF99016b9C74f1088c858B0A6b71992A471",
      "gasPrice": {
        "_hex": "0xdf47f9dbc"
      },
      "gasLimit": {
        "_hex": "0x5208"
      },
      "to": "0x32Be343B94f860124dC4fEe278FDCBD38C102D88",
      "value": {
        "_hex": "0x363690a0a161ba0000"
      },
      "nonce": 6,
      "data": "0x",
      "r": "0x3facb97930c188b2511707a8189bcb648eecc6feace26432fc910505dc5ae7b0",
      "s": "0x38bbaf21bf750c55665961310295cca5e4e310c30e0027882bfdd9e5a62c3605",
      "v": 28,
      "creates": null,
      "raw": "0xf86d06850df47f9dbc8252089432be343b94f860124dc4fee278fdcbd38c102d8889363690a0a161ba0000801ca03facb97930c188b2511707a8189bcb648eecc6feace26432fc910505dc5ae7b0a038bbaf21bf750c55665961310295cca5e4e310c30e0027882bfdd9e5a62c3605",
      "networkId": 0,
      "chainId": 0
    }
  ]
}