{
  "hash": "0x9d1a4341a762177a2917bb437d5153b77269e521a9a2471fffd15cb4853b42b2",
  "parentHash": "0x97729d248c631131424b286448a12d652d0ddb8cc668de6f31950de9a49eaa63",
  "number": 100355,
  "timestamp": 1439805013,
  "nonce": "0xce8807a1751a88bd",
  "difficulty": 3817315736987,
  "gasLimit": {
    "_hex": "0x2fefd8"
  },
  "gasUsed": {
    "_hex": "0x19a28"
  },
  "miner": "0x8df03bD37602d97980327B58D940258dC57007B3",
  "extraData": "0x",
  "transactions": [
    {
      "hash": "0x8843f333388b23181d66ff9bec27ca95a9dfbf846e299d4eaeb65d5bce43915e",
      "blockHash": "0x9d1a4341a762177a2917bb437d5153b77269e521a9a2471fffd15cb4853b42b2",
      "blockNumber": 100355,
      "transactionIndex": 0,
      "confirmations": null,
      "from": "0xe6C9430205BD87DA80B9D5F286442Bf45CB49423",
      "gasPrice": {
        "_hex": "0xba43b7400"
      },
      "gasLimit": {
        "_hex": "0x5208"
      },
      "to": "0xC47Aaa860008be6f65B58c6C6E02a84e666EfE31",
      "value": {
        "_hex": "0x16936d900f64bf20"
      },
      "nonce": 2,
      "data": "0x",
      "r": "0xcce61f02b693e13974d76d00e5e6d554085ff63ecef30d733cb1f9055529d641",
      "s": "0x20977676feb43707066b183ca25cd7c1d8a79232bd59c585f5b19e7ae65b59f7",
      "v": 28,
      "creates": null,
      "raw": "0xf86c02850ba43b740082520894c47aaa860008be6f65b58c6c6e02a84e666efe318816936d900f64bf20801ca0cce61f02b693e13974d76d00e5e6d554085ff63ecef30d733cb1f9055529d641a020977676feb43707066b183ca25cd7c1d8a79232bd59c585f5b19e7ae65b59f7",
      "networkId": 0,
      "chainId": 0
    },
    {
      "hash": "0x556b0089c7b405b6ab4725b5db181025d91a82255a7ee25bb744f2859e48161e",
      "blockHash": "0x9d1a4341a762177a2917bb437d5153b77269e521a9a2471fffd15cb4853b42b2",
      "blockNumber": 100355,
      "transactionIndex": 1,
      "confirmations": null,
      "from": "0x423F06030a6c726925816243446a11Ed6d40Ab99",
      "gasPrice": {
        "_hex": "0xba43b7400"
      },
      "gasLimit": {
        "_hex": "0x5208"
      },
      "to": "0xC47Aaa860008be6f65B58c6C6E02a84e666EfE31",
      "value": {
        "_hex": "0x20b83d19b9edf0b0"
      },
      "nonce": 5,
      "data": "0x",
      "r": "0x4b4723262fcad49a6d99848d4e597214345f62787ada208e4dad11526fa09fab",
      "s": "0x1f985f1f963a9b8baf62028077a16dbcb6b741e81ce9dd60490b18db9e785f5b",
      "v": 28,
      "creates": null,
      "raw": "0xf86c05850ba43b740082520894c47aaa860008be6f65b58c6c6e02a84e666efe318820b83d19b9edf0b0801ca04b4723262fcad49a6d99848d4e597214345f62787ada208e4dad11526fa09faba01f985f1f963a9b8baf62028077a16dbcb6b741e81ce9dd60490b18db9e785f5b",
      "networkId": 0,
      "chainId": 0
    },
    {
      "hash": "0xcf7406feb4e12d06aa62c5bbb756c790dbd553d1486924ef9866560c7a387cc0",
      "blockHash": "0x9d1a4341a762177a2917bb437d5153b77269e521a9a2471fffd15cb4853b42b2",
      "blockNumber": 100355,
      "transactionIndex": 2,
      "confirmations": null,
      "from": "0x63d25FB5edc318Aae1DEc4F3aBd7c645f921cff8",
      "gasPrice": {
        "_hex": "0xba43b7400"
      },
      "gasLimit": {
        "_hex": "0x5208"
      },
      "to": "0xC47Aaa860008be6f65B58c6C6E02a84e666EfE31",
      "value": {
        "_hex": "0x5145fc4e408c4020"
      },
      "nonce": 4,
      "data": "0x",
      "r": "0x2181746a258a4db74d600c34da2c68e12cdabd2691944bb38753aa7eca9e88e7",
      "s": "0x6036f3a5670a227fb1c0b177b530d5337e2da36c4a6393f00841c138cbca4e95",
      "v": 28,
      "creates": null,
      "raw": "0xf86c04850ba43b740082520894c47aaa860008be6f65b58c6c6e02a84e666efe31885145fc4e408c4020801ca02181746a258a4db74d600c34da2c68e12cdabd2691944bb38753aa7eca9e88e7a06036f3a5670a227fb1c0b177b530d5337e2da36c4a6393f00841c138cbca4e95",
      "networkId": 0,
      "chainId": 0
    },
    {
      "hash": "0x26bb1cfe107306b17fafe4ac039048571a3a71eb8df52f42e48b808bc276ec27",
      "blockHash": "0x9d1a4341a762177a2917bb437d5153b77269e521a9a2471fffd15cb4853b42b2",
      "blockNumber": 100355,
      "transactionIndex": 3,
      "confirmations": null,
      "from": "0x02f4c7248513B56356B261cB797fBC618c410569",
      "gasPrice": {
        "_hex": "0xba43b7400"
      },
      "gasLimit": {
        "_hex": "0x5208"
      },
      "to": "0xC47Aaa860008be6f65B58c6C6E02a84e666EfE31",
      "value": {
        "_hex": "0x260aee0339133200"
      },
      "nonce": 3,
      "data": "0x",
      "r": "0x94d5990a664c60e693f21bd298d23733566f16efd45b99d2f94d93d3ae818459",
      "s": "0x546b0850b84f5d47c5e1d534d068c0a7ffc335d83002748dd82e06aefbfb54b2",
      "v": 28,
      "creates": null,
      "raw": "0xf86c03850ba43b740082520894c47aaa860008be6f65b58c6c6e02a84e666efe3188260aee0339133200801ca094d5990a664c60e693f21bd298d23733566f16efd45b99d2f94d93d3ae818459a0546b0850b84f5d47c5e1d534d068c0a7ffc335d83002748dd82e06aefbfb54b2",
      "networkId": 0,
      "chainId": 0
    },
    {
      "hash": "0xb7c82e73d8209f243b0a5059f7b808d26a9bd7fb918b0fc2fbeece557ed8fb97",
      "blockHash": "0x9d1a4341a762177a2917bb437d5153b77269e521a9a2471fffd15cb4853b42b2",
      "blockNumber": 100355,
      "transactionIndex": 4,
      "confirmations": null,
      "from": "0x160aa7EC7e94C7E72bbd4560b1db208E951e4d70",
      "gasPrice": {
        "_hex": "0xba43b7400"
      },
      "gasLimit": {
        "_hex": "0x5208"
      },
      "to": "0xC47Aaa860008be6f65B58c6C6E02a84e666EfE31",
      "value": {
        "_hex": "0x18a29d7d2d9a0c60"
      },
      "nonce": 0,
      "data": "0x",
      "r": "0x3caf4497226bb5161eab71e1b616d802901d1f91db8a47289baedd35c249a0ee",
      "s": "0x09d71ae3bc0f5868bf43bf6c1d04ca965d93ef50bc603ab75e4b349b3e67a03a",
      "v": 27,
      "creates": null,
      "raw": "0xf86c80850ba43b740082520894c47aaa860008be6f65b58c6c6e02a84e666efe318818a29d7d2d9a0c60801ba03caf4497226bb5161eab71e1b616d802901d1f91db8a47289baedd35c249a0eea009d71ae3bc0f5868bf43bf6c1d04ca965d93ef50bc603ab75e4b349b3e67a03a",
      "networkId": 0,
      "chainId": 0
    }
  ]
}