{
  "hash": "0xbf0e360be273d5a5e8a323bd95e5ce76d8a8c99b8393d0e1865f1d43dbf57382",
  "parentHash": "0x618e9fa13d8fdafb428e93471040a97243fd802b3a64147a62aeee3a40ee9927",
  "number": 61372,
  "timestamp": 1439171480,
  "nonce": "0xb3d3eae09f980580",
  "difficulty": 1724398261680,
  "gasLimit": {
    "_hex": "0x2fefd8"
  },
  "gasUsed": {
    "_hex": "0x5208"
  },
  "miner": "0x39A1BB80a741bF5EC39FB9BE59408Fa0F418fFBf",
  "extraData": "0x476574682f76312e302e312f77696e646f77732f676f312e342e32",
  "transactions": [
    {
      "hash": "0xe888336043d1182bc3323b28750678241ca0975df245663667089e6e165724ff",
      "blockHash": "0xbf0e360be273d5a5e8a323bd95e5ce76d8a8c99b8393d0e1865f1d43dbf57382",
      "blockNumber": 61372,
      "transactionIndex": 0,
      "confirmations": null,
      "from": "0xF070bCfeD253b1DDd1989C2Db18B5cD92Df0bDc6",
      "gasPrice": {
        "_hex": "0xd7d40ace3"
      },
      "gasLimit": {
        "_hex": "0x15f90"
      },
      "to": "0x025c951653890ccBECfA9865d5Ba7977aa7442D1",
      "value": {
        "_hex": "0x1bc16d674ec80000"
      },
      "nonce": 0,
      "data": "0x",
      "r": "0x78aecbac2cdabef9842a0f5dd54fd337f0312f87d0fe30d1d67619e8c071ca6b",
      "s": "0x187f11116fb02c3d3b6ee270acb5edfc107544e7d2a0d236e5cda2932d39c0e3",
      "v": 27,
      "creates": null,
      "raw": "0xf86d80850d7d40ace383015f9094025c951653890ccbecfa9865d5ba7977aa7442d1881bc16d674ec80000801ba078aecbac2cdabef9842a0f5dd54fd337f0312f87d0fe30d1d67619e8c071ca6ba0187f11116fb02c3d3b6ee270acb5edfc107544e7d2a0d236e5cda2932d39c0e3",
      "networkId": 0,
      "chainId": 0
    }
  ]
}