{
  "hash": "0xebd19ffb3f71b75eb121927c5b5120d28253b6d5b5969bd26dcd8c836289383c",
  "parentHash": "0xaf3fa6a612be65352ef67ca93d66f191779e10f5bcea6020eaaed3be1c20be53",
  "number": 80805,
  "timestamp": 1439491223,
  "nonce": "0x5487a3d97a6f88c1",
  "difficulty": 2451170083402,
  "gasLimit": {
    "_hex": "0x2fefd8"
  },
  "gasUsed": {
    "_hex": "0x23e38"
  },
  "miner": "0xE300c4587D260cE22a677755Db6429B491A4309E",
  "extraData": "0x",
  "transactions": [
    {
      "hash": "0xd93812f159c16ca5e56d2625904b9fdec54b7f25641102ec4da54327588fad9e",
      "blockHash": "0xebd19ffb3f71b75eb121927c5b5120d28253b6d5b5969bd26dcd8c836289383c",
      "blockNumber": 80805,
      "transactionIndex": 0,
      "confirmations": null,
      "from": "0xe090Ffdced499691fA9379752a59F8A058c1eE4A",
      "gasPrice": {
        "_hex": "0xcd081daf1"
      },
      "gasLimit": {
        "_hex": "0x5208"
      },
      "to": "0x3620db64D25D412bAb4C8d93E2e0D7e64e8Cb933",
      "value": {
        "_hex": "0x1a3cd96ba879100000"
      },
      "nonce": 0,
      "data": "0x",
      "r": "0x013c1f18a4b4a66cb8b49c5bd79942f4c8f0fcf2677798dbf316324b98ecf62c",
      "s": "0x438797edc87dae50178748b39cb307c94a75b6c035501dce60ac030e50e64f98",
      "v": 28,
      "creates": null,
      "raw": "0xf86d80850cd081daf1825208943620db64d25d412bab4c8d93e2e0d7e64e8cb933891a3cd96ba879100000801ca0013c1f18a4b4a66cb8b49c5bd79942f4c8f0fcf2677798dbf316324b98ecf62ca0438797edc87dae50178748b39cb307c94a75b6c035501dce60ac030e50e64f98",
      "networkId": 0,
      "chainId": 0
    },
    {
      "hash": "0x839dd7e19a8b59f4abd203cf0f39e978db8298cfe5d9e0f2291f4799990fb1eb",
      "blockHash": "0xebd19ffb3f71b75eb121927c5b5120d28253b6d5b5969bd26dcd8c836289383c",
      "blockNumber": 80805,
      "transactionIndex": 1,
      "confirmations": null,
      "from": "0x07DD04f7355E91a3556482a927Dfa3122a2AD580",
      "gasPrice": {
        "_hex": "0xcd01555c5"
      },
      "gasLimit": {
        "_hex": "0x15f90"
      },
      "to": "0x457a7E74fE5Fe8a2fd3036fa19B7e084869cCd63",
      "value": {
        "_hex": "0x2386f26fc10000"
      },
      "nonce": 0,
      "data": "0x",
      "r": "0x534e7a0c166fae315fdf42d5998ae6316e74bd45bf091bb870fd67925b6bd277",
      "s": "0x40bbcd06e42c4a517f911de18b4cb0a1997ce0c8f6db57e9c23afaeb81f403d4",
      "v": 27,
      "creates": null,
      "raw": "0xf86c80850cd01555c583015f9094457a7e74fe5fe8a2fd3036fa19b7e084869ccd63872386f26fc10000801ba0534e7a0c166fae315fdf42d5998ae6316e74bd45bf091bb870fd67925b6bd277a040bbcd06e42c4a517f911de18b4cb0a1997ce0c8f6db57e9c23afaeb81f403d4",
      "networkId": 0,
      "chainId": 0
    },
    {
      "hash": "0x537ef77ad48474ab7fc3df9d8c0e7a170146c50d2a73dd7175dd030dcb6b8974",
      "blockHash": "0xebd19ffb3f71b75eb121927c5b5120d28253b6d5b5969bd26dcd8c836289383c",
      "blockNumber": 80805,
      "transactionIndex": 2,
      "confirmations": null,
      "from": "0x07DD04f7355E91a3556482a927Dfa3122a2AD580",
      "gasPrice": {
        "_hex": "0xcd01555c5"
      },
      "gasLimit": {
        "_hex": "0x15f90"
      },
      "to": "0x457a7E74fE5Fe8a2fd3036fa19B7e084869cCd63",
      "value": {
        "_hex": "0x2386f26fc10000"
      },
      "nonce": 1,
      "data": "0x",
      "r": "0xb900b9cadd2f478b4a184b017d9796f534eb9282d71426d031971d8bdf33d42e",
      "s": "0x45db72416ddf58d5083c75eadb0a51283213b6e18baade11ab8c16340b5d34ba",
      "v": 27,
      "creates": null,
      "raw": "0xf86c01850cd01555c583015f9094457a7e74fe5fe8a2fd3036fa19b7e084869ccd63872386f26fc10000801ba0b900b9cadd2f478b4a184b017d9796f534eb9282d71426d031971d8bdf33d42ea045db72416ddf58d5083c75eadb0a51283213b6e18baade11ab8c16340b5d34ba",
      "networkId": 0,
      "chainId": 0
    },
    {
      "hash": "0x629b9715d211ae625ec618847fc6fe87a8ea16ef77f255e478b5d82154fa04d9",
      "blockHash": "0xebd19ffb3f71b75eb121927c5b5120d28253b6d5b5969bd26dcd8c836289383c",
      "blockNumber": 80805,
      "transactionIndex": 3,
      "confirmations": null,
      "from": "0x0912EBf05225Df8a148751323E98912b35Ab0Bb6",
      "gasPrice": {
        "_hex": "0xba43b7400"
      },
      "gasLimit": {
        "_hex": "0x5208"
      },
      "to": "0xC47Aaa860008be6f65B58c6C6E02a84e666EfE31",
      "value": {
        "_hex": "0xdb974c90a901dc0"
      },
      "nonce": 0,
      "data": "0x",
      "r": "0x68cfd607dc3e5db915eea1b65e7a2d36962aae56278ad0d6540fc7958eaf0d7f",
      "s": "0x197aa441f8ad3e4b82733001f2708db6d7f84c8ed090e60c3b5fbe66dd9d95e1",
      "v": 27,
      "creates": null,
      "raw": "0xf86c80850ba43b740082520894c47aaa860008be6f65b58c6c6e02a84e666efe31880db974c90a901dc0801ba068cfd607dc3e5db915eea1b65e7a2d36962aae56278ad0d6540fc7958eaf0d7fa0197aa441f8ad3e4b82733001f2708db6d7f84c8ed090e60c3b5fbe66dd9d95e1",
      "networkId": 0,
      "chainId": 0
    },
    {
      "hash": "0xa77324a8f272b17e41ffaf3eff00ff7cf1c91afe13898bf0f42102ec1bb0f30e",
      "blockHash": "0xebd19ffb3f71b75eb121927c5b5120d28253b6d5b5969bd26dcd8c836289383c",
      "blockNumber": 80805,
      "transactionIndex": 4,
      "confirmations": null,
      "from": "0x6164914935DDF47d204f9786569E951e425dc355",
      "gasPrice": {
        "_hex": "0xba43b7400"
      },
      "gasLimit": {
        "_hex": "0x5208"
      },
      "to": "0xC47Aaa860008be6f65B58c6C6E02a84e666EfE31",
      "value": {
        "_hex": "0x1b1abd94f8527c1dc0"
      },
      "nonce": 0,
      "data": "0x",
      "r": "0x2eeeb415f4b0eeea32fb2877189b1b379fde091546d2fe87aa3982cfbcc50da4",
      "s": "0x2932ae2fdabe550e04073cec611ec14e28c22553ace428dbfb3764526700b157",
      "v": 28,
      "creates": null,
      "raw": "0xf86d80850ba43b740082520894c47aaa860008be6f65b58c6c6e02a84e666efe31891b1abd94f8527c1dc0801ca02eeeb415f4b0eeea32fb2877189b1b379fde091546d2fe87aa3982cfbcc50da4a02932ae2fdabe550e04073cec611ec14e28c22553ace428dbfb3764526700b157",
      "networkId": 0,
      "chainId": 0
    },
    {
      "hash": "0x2a6ea1eaf482508995a40818677e6e7f0433c080e1257c151705c717d08fdfcb",
      "blockHash": "0xebd19ffb3f71b75eb121927c5b5120d28253b6d5b5969bd26dcd8c836289383c",
      "blockNumber": 80805,
      "transactionIndex": 5,
      "confirmations": null,
      "from": "0x574ebf17f50Cd641207357583C1c16e6D912FfAC",
      "gasPrice": {
        "_hex": "0xba43b7400"
      },
      "gasLimit": {
        "_hex": "0x5208"
      },
      "to": "0xC47Aaa860008be6f65B58c6C6E02a84e666EfE31",
      "value": {
        "_hex": "0x453c4f97a8201dc0"
      },
      "nonce": 0,
      "data": "0x",
      "r": "0x54fe11442166f2309565ba5d9374dcef7887a9d44f0ef9bd5f6e3ac840951059",
      "s": "0x32b1cfbc015b21fa72a058b27354bf170ff241e49bce4b182df2887168a39215",
      "v": 27,
      "creates": null,
      "raw": "0xf86c80850ba43b740082520894c47aaa860008be6f65b58c6c6e02a84e666efe3188453c4f97a8201dc0801ba054fe11442166f2309565ba5d9374dcef7887a9d44f0ef9bd5f6e3ac840951059a032b1cfbc015b21fa72a058b27354bf170ff241e49bce4b182df2887168a39215",
      "networkId": 0,
      "chainId": 0
    },
    {
      "hash": "0x1698890fa5c485b149f0eadf477afc1f1d367928ccf423dfedb2e974af591ca0",
      "blockHash": "0xebd19ffb3f71b75eb121927c5b5120d28253b6d5b5969bd26dcd8c836289383c",
      "blockNumber": 80805,
      "transactionIndex": 6,
      "confirmations": null,
      "from": "0xe7878Ea935daafa9b715aeD4B227649173FCC7d2",
      "gasPrice": {
        "_hex": "0xba43b7400"
      },
      "gasLimit": {
        "_hex": "0x5208"
      },
      "to": "0xC47Aaa860008be6f65B58c6C6E02a84e666EfE31",
      "value": {
        "_hex": "0x14d0d65df845c6000"
      },
      "nonce": 0,
      "data": "0x",
      "r": "0xe21c2566f10f4f25ff68b635daefeafe51fcc9c9eb6080dd7e8743dc15683fa8",
      "s": "0x49c657cacbf787c11d201f3aecc96e900118110ea0dc186286990328d1c37f38",
      "v": 27,
      "creates": null,
      "raw": "0xf86d80850ba43b740082520894c47aaa860008be6f65b58c6c6e02a84e666efe3189014d0d65df845c6000801ba0e21c2566f10f4f25ff68b635daefeafe51fcc9c9eb6080dd7e8743dc15683fa8a049c657cacbf787c11d201f3aecc96e900118110ea0dc186286990328d1c37f38",
      "networkId": 0,
      "chainId": 0
    }
  ]
}