{
  "hash": "0x266eced3463e0b18131d67d3bfbc19c3f538af395069027d7186a51687ea5155",
  "parentHash": "0xa44420b09468c688f3cd0a65139c65402515ba2feebee920f7fe7101629b8ad8",
  "number": 100763,
  "timestamp": 1439811931,
  "nonce": "0xbdea6e6050f9cc66",
  "difficulty": 3850826939688,
  "gasLimit": {
    "_hex": "0x2fefd8"
  },
  "gasUsed": {
    "_hex": "0x5208"
  },
  "miner": "0xe6A7a1d47ff21B6321162AEA7C6CB457D5476Bca",
  "extraData": "0x476574682f76312e302e312d38326566323666362f6c696e75782f676f312e34",
  "transactions": [
    {
      "hash": "0x6c7368b3cdb49f978b2beeef1db401cbedb2ba6479668fdbf72ae80a04d82486",
      "blockHash": "0x266eced3463e0b18131d67d3bfbc19c3f538af395069027d7186a51687ea5155",
      "blockNumber": 100763,
      "transactionIndex": 0,
      "confirmations": null,
      "from": "0x090041473c833bf54B1197fD120F895C537c26B0",
      "gasPrice": {
        "_hex": "0xdc8e1396d"
      },
      "gasLimit": {
        "_hex": "0x7a120"
      },
      "to": "0xBBDa93a81B882774e1c9b5e3F933Fa35DaC8bc88",
      "value": {
        "_hex": "0xde0b6b3a7640000"
      },
      "nonce": 3,
      "data": "0x",
      "r": "0x6c96881fb5c9f24f6c0012f5cb729471977c959cbba5d9355773f27d3566bb7f",
      "s": "0x23874dc80f6fbb4495ad7f30af65da88c505d7e39458938c33450dce3a9445f8",
      "v": 28,
      "creates": null,
      "raw": "0xf86d03850dc8e1396d8307a12094bbda93a81b882774e1c9b5e3f933fa35dac8bc88880de0b6b3a7640000801ca06c96881fb5c9f24f6c0012f5cb729471977c959cbba5d9355773f27d3566bb7fa023874dc80f6fbb4495ad7f30af65da88c505d7e39458938c33450dce3a9445f8",
      "networkId": 0,
      "chainId": 0
    }
  ]
}