{
  "hash": "0xf8c1336f4e1c2f07353b6788f7ffd043cfe665ef75dd7d60da5ce61ff25e6a8a",
  "parentHash": "0x8af4ce98c0c9ccb11a5c9791c14a43cb732d7289ec1488cb5e87928408e34510",
  "number": 114706,
  "timestamp": 1440044887,
  "nonce": "0x2558a31844de623b",
  "difficulty": 4479259859314,
  "gasLimit": {
    "_hex": "0x2fefd8"
  },
  "gasUsed": {
    "_hex": "0x5208"
  },
  "miner": "0xe6A7a1d47ff21B6321162AEA7C6CB457D5476Bca",
  "extraData": "0x476574682f76312e302e312d38326566323666362f6c696e75782f676f312e34",
  "transactions": [
    {
      "hash": "0x1347446bdde55d55d2fecb3c8dfb1e2ca0fa65d386c495d3695b21f360743208",
      "blockHash": "0xf8c1336f4e1c2f07353b6788f7ffd043cfe665ef75dd7d60da5ce61ff25e6a8a",
      "blockNumber": 114706,
      "transactionIndex": 0,
      "confirmations": null,
      "from": "0x0f3136Da8F55444F1bFc5938a2eFb507b3a24976",
      "gasPrice": {
        "_hex": "0xd0aeec301"
      },
      "gasLimit": {
        "_hex": "0x15f90"
      },
      "to": "0x0a856CdC3EaFBAD120c51220d0F71d4Aa2Dee7AE",
      "value": {
        "_hex": "0x2874290e404380000"
      },
      "nonce": 0,
      "data": "0x",
      "r": "0xce028c8453e56802b0e0eaddbcd81ba8eab2a762661733da96d613cef69f9f50",
      "s": "0x7ae8d9a9d428b1067b1986f60d1b8a39d3eed14eedb05accc7a8087a0471c72f",
      "v": 28,
      "creates": null,
      "raw": "0xf86e80850d0aeec30183015f90940a856cdc3eafbad120c51220d0f71d4aa2dee7ae8902874290e404380000801ca0ce028c8453e56802b0e0eaddbcd81ba8eab2a762661733da96d613cef69f9f50a07ae8d9a9d428b1067b1986f60d1b8a39d3eed14eedb05accc7a8087a0471c72f",
      "networkId": 0,
      "chainId": 0
    }
  ]
}