{
  "hash": "0x930b51bd42277faa635d3d14d868a91cb9dce5f0019dfddf86f968a82dad1114",
  "parentHash": "0xcd6feeb5c43bc7f5b8e97effadcedce6435cf2604af5691d1553c25a6a0fe914",
  "number": 111615,
  "timestamp": 1439993322,
  "nonce": "0x7d5f6a1530e5b7b1",
  "difficulty": 4422223854063,
  "gasLimit": {
    "_hex": "0x2fefd8"
  },
  "gasUsed": {
    "_hex": "0x5208"
  },
  "miner": "0xD0ee3F53eE0fCf3F9fbCcdd17BD1b6441DdC2074",
  "extraData": "0x476574682f76312e302e312d38326566323666362f6c696e75782f676f312e34",
  "transactions": [
    {
      "hash": "0x61428f99cae1550d57e409fddc1beabfcec007b4b1d7cbeab22a15fac3a326e6",
      "blockHash": "0x930b51bd42277faa635d3d14d868a91cb9dce5f0019dfddf86f968a82dad1114",
      "blockNumber": 111615,
      "transactionIndex": 0,
      "confirmations": null,
      "from": "0xB6AC12CefF0375Da80503AcCa54bf3061Fa917a8",
      "gasPrice": {
        "_hex": "0xd4042734e"
      },
      "gasLimit": {
        "_hex": "0x15f90"
      },
      "to": "0x5fF827e73C5B866c300b824fe12719a3DD350513",
      "value": {
        "_hex": "0xe7c2518505060000"
      },
      "nonce": 22,
      "data": "0x",
      "r": "0xf76deccedb2cb502639b82444e5f76c5926503874f75707d2a53dbd2f976a26e",
      "s": "0x479a3f8d93c60025586396f02ba5ba2e508041a32e039293bd650d909f7be963",
      "v": 28,
      "creates": null,
      "raw": "0xf86d16850d4042734e83015f90945ff827e73c5b866c300b824fe12719a3dd35051388e7c2518505060000801ca0f76deccedb2cb502639b82444e5f76c5926503874f75707d2a53dbd2f976a26ea0479a3f8d93c60025586396f02ba5ba2e508041a32e039293bd650d909f7be963",
      "networkId": 0,
      "chainId": 0
    }
  ]
}