{
  "hash": "0xce56d59cf882d498a89a1a14ba168ff5dd5dc338aa673249c39ac63d66ab0208",
  "parentHash": "0x55d0061d08125ade38ea7919f8b0a25bfad8a0f80f51e4b77a5950a34781d230",
  "number": 68753,
  "timestamp": 1439293109,
  "nonce": "0x8aa29df8d9ce88c7",
  "difficulty": 2023123928114,
  "gasLimit": {
    "_hex": "0x2fefd8"
  },
  "gasUsed": {
    "_hex": "0x9400"
  },
  "miner": "0xe6A7a1d47ff21B6321162AEA7C6CB457D5476Bca",
  "extraData": "0x476574682f76312e302e312d38326566323666362f6c696e75782f676f312e34",
  "transactions": [
    {
      "hash": "0x292fe072eca5f7ab731e12187b66cd6d199aff231300946e2944c1676b46c97c",
      "blockHash": "0xce56d59cf882d498a89a1a14ba168ff5dd5dc338aa673249c39ac63d66ab0208",
      "blockNumber": 68753,
      "transactionIndex": 0,
      "confirmations": null,
      "from": "0xc8ebccC5F5689Fa8659d83713341e5aD19349448",
      "gasPrice": {
        "_hex": "0xcb140bb7a"
      },
      "gasLimit": {
        "_hex": "0x61a80"
      },
      "to": "0x5Fe5B7546D1628f7348B023A0393de1FC825A4fD",
      "value": {
        "_hex": "0xde0b6b3a7640000"
      },
      "nonce": 42,
      "data": "0xb595b8b50000000000000000000000000000000000000000000000000000000000000001",
      "r": "0x8055f3daba58334b2314f9b48916275a4a03f86fbd40f07f766641b7448fdf11",
      "s": "0x1be6d1f916c15cc7339e7d68a23425bf5dfbd7c7698ee72e12873d4d641f97a4",
      "v": 27,
      "creates": null,
      "raw": "0xf8912a850cb140bb7a83061a80945fe5b7546d1628f7348b023a0393de1fc825a4fd880de0b6b3a7640000a4b595b8b500000000000000000000000000000000000000000000000000000000000000011ba08055f3daba58334b2314f9b48916275a4a03f86fbd40f07f766641b7448fdf11a01be6d1f916c15cc7339e7d68a23425bf5dfbd7c7698ee72e12873d4d641f97a4",
      "networkId": 0,
      "chainId": 0
    }
  ]
}