{
  "hash": "0xe8ca983ea367621f4350964b23e527f173e7dbcd7d15aaa0864fb3975b508e7d",
  "parentHash": "0xaab1e656ad7e38973d6f5d5fcb63e50d3dbc3bf83c36eb8daaab980996c72cdd",
  "number": 91300,
  "timestamp": 1439653433,
  "nonce": "0x30b656179d8641a8",
  "difficulty": 3464202301738,
  "gasLimit": {
    "_hex": "0x2fefd8"
  },
  "gasUsed": {
    "_hex": "0x5208"
  },
  "miner": "0xe6A7a1d47ff21B6321162AEA7C6CB457D5476Bca",
  "extraData": "0x476574682f76312e302e312d38326566323666362f6c696e75782f676f312e34",
  "transactions": [
    {
      "hash": "0xcd22404b5610024803a3c2bc51a3b718b82f798c9df796983ebdd7d3ab06ba01",
      "blockHash": "0xe8ca983ea367621f4350964b23e527f173e7dbcd7d15aaa0864fb3975b508e7d",
      "blockNumber": 91300,
      "transactionIndex": 0,
      "confirmations": null,
      "from": "0x0eDEd3DA479d0beF8eeC92A76644D3f4E3C177f7",
      "gasPrice": {
        "_hex": "0xd4be89f70"
      },
      "gasLimit": {
        "_hex": "0x15f90"
      },
      "to": "0x3f0073d6bBE51612013aA09BC970e08E84D7BA23",
      "value": {
        "_hex": "0x403d2db599d5e40000"
      },
      "nonce": 11,
      "data": "0x",
      "r": "0x77213d3e898896faa004366b2ee48319371f1eaffabfcb2d820d65adce87868c",
      "s": "0x1a24ce05d6b085c5897eef18cd9121bec82b9faad2d9d10e20171d017e3dd5f5",
      "v": 27,
      "creates": null,
      "raw": "0xf86e0b850d4be89f7083015f90943f0073d6bbe51612013aa09bc970e08e84d7ba2389403d2db599d5e40000801ba077213d3e898896faa004366b2ee48319371f1eaffabfcb2d820d65adce87868ca01a24ce05d6b085c5897eef18cd9121bec82b9faad2d9d10e20171d017e3dd5f5",
      "networkId": 0,
      "chainId": 0
    }
  ]
}