{
  "hash": "0x66507ef50e93751b32f3698bf4d0f802c9a043d328d24d2c23d9f6b1ed2fe66f",
  "parentHash": "0x937574f6d266b845e55912f2def5bbfc4eadfd6eef0937398e377fdece4e18d1",
  "number": 104492,
  "timestamp": 1439870619,
  "nonce": "0x72c6bba5d42d6cb2",
  "difficulty": 4363749541887,
  "gasLimit": {
    "_hex": "0x2fefd8"
  },
  "gasUsed": {
    "_hex": "0x5208"
  },
  "miner": "0xC603Ab5ef41fC61AA8b76bEddb09e3Cfcbb174BD",
  "extraData": "0x476574682f76312e302e312f77696e646f77732f676f312e342e32",
  "transactions": [
    {
      "hash": "0xf51928629bc50c93acddd3fd12e5872af734fd99c2eeb346ed8e47f09c8a5774",
      "blockHash": "0x66507ef50e93751b32f3698bf4d0f802c9a043d328d24d2c23d9f6b1ed2fe66f",
      "blockNumber": 104492,
      "transactionIndex": 0,
      "confirmations": null,
      "from": "0x7884D470204862a0d1A21122F41ee77430396Ee5",
      "gasPrice": {
        "_hex": "0xd5929f16b"
      },
      "gasLimit": {
        "_hex": "0x15f90"
      },
      "to": "0xcB29A0d8918Af3d40FA0B999a357b2628Ab50342",
      "value": {
        "_hex": "0x186cc6acd4b0000"
      },
      "nonce": 91,
      "data": "0x",
      "r": "0x8bf720180967d24b2706f1a9e7f3c357a5474649b94a287d07b7088f7b25f24c",
      "s": "0x569e0ac55e85dfa4432827038446c43451166a6d52cb66e076fd85c18d7d1d19",
      "v": 28,
      "creates": null,
      "raw": "0xf86d5b850d5929f16b83015f9094cb29a0d8918af3d40fa0b999a357b2628ab50342880186cc6acd4b0000801ca08bf720180967d24b2706f1a9e7f3c357a5474649b94a287d07b7088f7b25f24ca0569e0ac55e85dfa4432827038446c43451166a6d52cb66e076fd85c18d7d1d19",
      "networkId": 0,
      "chainId": 0
    }
  ]
}