{
  "hash": "0x51592fcd24de6ce73388966dfb64095edc75b9e8de23b0b8f4b9aaf01d689eca",
  "parentHash": "0xfc01ea739e4e3df50a0920a184063d5836a02ce105ddd49d02fc2a80c244fc53",
  "number": 87860,
  "timestamp": 1439598604,
  "nonce": "0xb95c309cdb5ead17",
  "difficulty": 3183341801469,
  "gasLimit": {
    "_hex": "0x2fefd8"
  },
  "gasUsed": {
    "_hex": "0x5208"
  },
  "miner": "0xe6A7a1d47ff21B6321162AEA7C6CB457D5476Bca",
  "extraData": "0x476574682f76312e302e312d38326566323666362f6c696e75782f676f312e34",
  "transactions": [
    {
      "hash": "0x04f2a7b38b929e65387ac95c30a59bb0514b0ad98273f62e7e1927e604a3e96b",
      "blockHash": "0x51592fcd24de6ce73388966dfb64095edc75b9e8de23b0b8f4b9aaf01d689eca",
      "blockNumber": 87860,
      "transactionIndex": 0,
      "confirmations": null,
      "from": "0x289B9bA6dC9c12D3130F1115180397C20cCBF220",
      "gasPrice": {
        "_hex": "0xba43b7400"
      },
      "gasLimit": {
        "_hex": "0x5208"
      },
      "to": "0xC47Aaa860008be6f65B58c6C6E02a84e666EfE31",
      "value": {
        "_hex": "0xce5ad3576e8d8d43c0"
      },
      "nonce": 3,
      "data": "0x",
      "r": "0xda17217558a377cb52cfa3dbd45058bc238ac1b6948e6c27e1ef6cfffb8743d1",
      "s": "0x1ed109440629e541d90f5e2ed66b7227dc63ddbe6c3fb1cae33dcf63b57b8768",
      "v": 28,
      "creates": null,
      "raw": "0xf86d03850ba43b740082520894c47aaa860008be6f65b58c6c6e02a84e666efe3189ce5ad3576e8d8d43c0801ca0da17217558a377cb52cfa3dbd45058bc238ac1b6948e6c27e1ef6cfffb8743d1a01ed109440629e541d90f5e2ed66b7227dc63ddbe6c3fb1cae33dcf63b57b8768",
      "networkId": 0,
      "chainId": 0
    }
  ]
}