{
  "hash": "0x7645f557530fba64ca63c38fe2694214795635de95b071d9ac52abefa29f33a4",
  "parentHash": "0x35000081914a5034839dff2d42c5b21cb432db6211d9ab48b252d46cf357871a",
  "number": 119104,
  "timestamp": 1440136823,
  "nonce": "0x8ef7529533bea60e",
  "difficulty": 4420435527112,
  "gasLimit": {
    "_hex": "0x2fefd8"
  },
  "gasUsed": {
    "_hex": "0xa410"
  },
  "miner": "0xB8eFAc747cE9BC6cc485105c54bdeBf9Aaa1E00D",
  "extraData": "0x",
  "transactions": [
    {
      "hash": "0x037ca891a3d54e0135d88e8ded9a94f592a3a2144089a70cc060690a010163a2",
      "blockHash": "0x7645f557530fba64ca63c38fe2694214795635de95b071d9ac52abefa29f33a4",
      "blockNumber": 119104,
      "transactionIndex": 0,
      "confirmations": null,
      "from": "0x6e960b25B5b29111d7D9294b89Bb216b8Ce9D482",
      "gasPrice": {
        "_hex": "0xba43b7400"
      },
      "gasLimit": {
        "_hex": "0x5208"
      },
      "to": "0x32Be343B94f860124dC4fEe278FDCBD38C102D88",
      "value": {
        "_hex": "0x14c14b53e76156000"
      },
      "nonce": 0,
      "data": "0x",
      "r": "0xaa3bc14c95991f4f80a21d2e69633144ad2cd7e026195b490251bdbf6afc00b1",
      "s": "0x2964e2d52a57d17ad5d2ba1308e4159edb0dff53b31159d0d86bd8efe334f36e",
      "v": 28,
      "creates": null,
      "raw": "0xf86d80850ba43b74008252089432be343b94f860124dc4fee278fdcbd38c102d8889014c14b53e76156000801ca0aa3bc14c95991f4f80a21d2e69633144ad2cd7e026195b490251bdbf6afc00b1a02964e2d52a57d17ad5d2ba1308e4159edb0dff53b31159d0d86bd8efe334f36e",
      "networkId": 0,
      "chainId": 0
    },
    {
      "hash": "0x84ee9b3b2ebf32ea1b3b67905f886230306ed250c8873d5a40e83d2091d3cb92",
      "blockHash": "0x7645f557530fba64ca63c38fe2694214795635de95b071d9ac52abefa29f33a4",
      "blockNumber": 119104,
      "transactionIndex": 1,
      "confirmations": null,
      "from": "0x1151790FE5F7C3113dfb07Dc3914B1916EcC8a7A",
      "gasPrice": {
        "_hex": "0xba43b7400"
      },
      "gasLimit": {
        "_hex": "0x5208"
      },
      "to": "0x32Be343B94f860124dC4fEe278FDCBD38C102D88",
      "value": {
        "_hex": "0xe0ec2abf45ef400"
      },
      "nonce": 8,
      "data": "0x",
      "r": "0xe47f9e3d6b4bbb25bb6d582a25e6d7e51c8e2485ad2a48b9048af41a6e46ad43",
      "s": "0x24f457b052dda6c736056ed77de1cb5419a518e2cd9de303237bc259e7e09e06",
      "v": 27,
      "creates": null,
      "raw": "0xf86c08850ba43b74008252089432be343b94f860124dc4fee278fdcbd38c102d88880e0ec2abf45ef400801ba0e47f9e3d6b4bbb25bb6d582a25e6d7e51c8e2485ad2a48b9048af41a6e46ad43a024f457b052dda6c736056ed77de1cb5419a518e2cd9de303237bc259e7e09e06",
      "networkId": 0,
      "chainId": 0
    }
  ]
}