{
  "hash": "0xc1b997cb30a95700280267141784397fd7c74d8783080467d20ac40d873bf700",
  "parentHash": "0x88e8521b1145fcbebca69dc066b335a088500a7709b18ccb2094132542dbde70",
  "number": 62228,
  "timestamp": 1439185190,
  "nonce": "0x92ade4a74bc2ed48",
  "difficulty": 1777218590421,
  "gasLimit": {
    "_hex": "0x2fefd8"
  },
  "gasUsed": {
    "_hex": "0x10f30"
  },
  "miner": "0x051219f568c86EA6DD6Dd2cC8052c31504F33d44",
  "extraData": "0x52696735",
  "transactions": [
    {
      "hash": "0xd0c474b501f91d29eb3999a3fc263cdde126d2e8722e408bac3bfd3ece4103cf",
      "blockHash": "0xc1b997cb30a95700280267141784397fd7c74d8783080467d20ac40d873bf700",
      "blockNumber": 62228,
      "transactionIndex": 0,
      "confirmations": null,
      "from": "0xefA38028F9f7c5274E3a7E154F858c297e03a3e8",
      "gasPrice": {
        "_hex": "0x107194b3c0f"
      },
      "gasLimit": {
        "_hex": "0x15f90"
      },
      "to": "0x2910543Af39abA0Cd09dBb2D50200b3E800A63D2",
      "value": {
        "_hex": "0x83d6c7aab6360000"
      },
      "nonce": 1,
      "data": "0x454e47345551393952",
      "r": "0x08cdffe4d06afccebb481f56da46fe2f197a9c1e5266014298529c826b63c248",
      "s": "0x494840de2554f718932d5f043e0911d4140f98f2074ac7bd38a9167da944b283",
      "v": 27,
      "creates": null,
      "raw": "0xf87701860107194b3c0f83015f90942910543af39aba0cd09dbb2d50200b3e800a63d28883d6c7aab636000089454e473455513939521ba008cdffe4d06afccebb481f56da46fe2f197a9c1e5266014298529c826b63c248a0494840de2554f718932d5f043e0911d4140f98f2074ac7bd38a9167da944b283",
      "networkId": 0,
      "chainId": 0
    },
    {
      "hash": "0xb12d62ebfaa5714d273f0f4dfed95ac340500e9b3e5aa71dd77f214b66f65a80",
      "blockHash": "0xc1b997cb30a95700280267141784397fd7c74d8783080467d20ac40d873bf700",
      "blockNumber": 62228,
      "transactionIndex": 1,
      "confirmations": null,
      "from": "0xB100987e77FEbA6F022dBd22B80B008e35d3Ff2E",
      "gasPrice": {
        "_hex": "0xde415c17c"
      },
      "gasLimit": {
        "_hex": "0x15f90"
      },
      "to": "0xDd078da257128aEF13471Ace70Ef448C0A3F1EcA",
      "value": {
        "_hex": "0x0"
      },
      "nonce": 14,
      "data": "0xc2ca0ac500000000000000000000000000000000000000018ee90ff6c373e0ee4e3f0ad2",
      "r": "0xd36252e2e41bc742a4e60ea62570246b9f719802ef8fb04479aa8fa8ebc45160",
      "s": "0x7eb8e4e9fc86527611c91d00d47e3cde360639618e90f7d33569de25b4c129ea",
      "v": 28,
      "creates": null,
      "raw": "0xf8890e850de415c17c83015f9094dd078da257128aef13471ace70ef448c0a3f1eca80a4c2ca0ac500000000000000000000000000000000000000018ee90ff6c373e0ee4e3f0ad21ca0d36252e2e41bc742a4e60ea62570246b9f719802ef8fb04479aa8fa8ebc45160a07eb8e4e9fc86527611c91d00d47e3cde360639618e90f7d33569de25b4c129ea",
      "networkId": 0,
      "chainId": 0
    }
  ]
}