{
  "hash": "0x64d3eb5630dfbb8c57f0d3b6e596da8c4fa25d785126dd02dd93d3b603f74b2a",
  "parentHash": "0x6d4e8c59fa89256aebf87e455f33185b3ec2faa107e7e0841cf59b21e15372fa",
  "number": 63809,
  "timestamp": 1439210480,
  "nonce": "0x10f99c2ef3fd5fb2",
  "difficulty": 1852183090237,
  "gasLimit": {
    "_hex": "0x2fefd8"
  },
  "gasUsed": {
    "_hex": "0x29531"
  },
  "miner": "0xf927a40C8B7F6E07c5af7FA2155B4864a4112B13",
  "extraData": "0x",
  "transactions": [
    {
      "hash": "0x258a93bf65790447d671ba836ca522fecd0f8034bfdad0f95634c0f923a20984",
      "blockHash": "0x64d3eb5630dfbb8c57f0d3b6e596da8c4fa25d785126dd02dd93d3b603f74b2a",
      "blockNumber": 63809,
      "transactionIndex": 0,
      "confirmations": null,
      "from": "0xc8ebccC5F5689Fa8659d83713341e5aD19349448",
      "gasPrice": {
        "_hex": "0xd00ce57b4"
      },
      "gasLimit": {
        "_hex": "0xf4240"
      },
      "to": null,
      "value": {
        "_hex": "0x0"
      },
      "nonce": 27,
      "data": "0x60606040525b662386f26fc100006000600050819055506116806002600050819055505b610147806100326000396000f30060606040526000357c0100000000000000000000000000000000000000000000000000000000900480633ba150361461003957610037565b005b61004460045061005a565b6040518082815260200191505060405180910390f35b60006002600050544303600160005060003373ffffffffffffffffffffffffffffffffffffffff168152602001908152602001600020600050541080156100bc57506000600050543073ffffffffffffffffffffffffffffffffffffffff1631115b1561013a573373ffffffffffffffffffffffffffffffffffffffff166000600060005054604051809050600060405180830381858888f193505050505043600160005060003373ffffffffffffffffffffffffffffffffffffffff168152602001908152602001600020600050819055506001905061014456610143565b60009050610144565b5b9056",
      "r": "0xb83ca9cee0ad068a721ca2cf1ea934ef226472384cda6e7ac84c6d2c4917728f",
      "s": "0x666c92df95f740efb9b9e3f4fc06a03e5550b66673c5b5e4f242bd92f7de9ed1",
      "v": 27,
      "creates": "0x793AE8C1b1a160BFc07BFB0d04F85eab1A71F4f2",
      "raw": "0xf901cc1b850d00ce57b4830f42408080b9017960606040525b662386f26fc100006000600050819055506116806002600050819055505b610147806100326000396000f30060606040526000357c0100000000000000000000000000000000000000000000000000000000900480633ba150361461003957610037565b005b61004460045061005a565b6040518082815260200191505060405180910390f35b60006002600050544303600160005060003373ffffffffffffffffffffffffffffffffffffffff168152602001908152602001600020600050541080156100bc57506000600050543073ffffffffffffffffffffffffffffffffffffffff1631115b1561013a573373ffffffffffffffffffffffffffffffffffffffff166000600060005054604051809050600060405180830381858888f193505050505043600160005060003373ffffffffffffffffffffffffffffffffffffffff168152602001908152602001600020600050819055506001905061014456610143565b60009050610144565b5b90561ba0b83ca9cee0ad068a721ca2cf1ea934ef226472384cda6e7ac84c6d2c4917728fa0666c92df95f740efb9b9e3f4fc06a03e5550b66673c5b5e4f242bd92f7de9ed1",
      "networkId": 0,
      "chainId": 0
    },
    {
      "hash": "0x25e653f359c2aaf827c948591abb6076034fd3ad39450a4d50acdafe027abfc3",
      "blockHash": "0x64d3eb5630dfbb8c57f0d3b6e596da8c4fa25d785126dd02dd93d3b603f74b2a",
      "blockNumber": 63809,
      "transactionIndex": 1,
      "confirmations": null,
      "from": "0x120A270bbC009644e35F0bB6ab13f95b8199c4ad",
      "gasPrice": {
        "_hex": "0xce749176a"
      },
      "gasLimit": {
        "_hex": "0x15f90"
      },
      "to": "0x613AC53bE565d46536B820715b9b8d3Ae68A4b95",
      "value": {
        "_hex": "0x167f482d3c5b1c0000"
      },
      "nonce": 108,
      "data": "0x",
      "r": "0xfc26456f9c52eca6ceae7f2ce7837476e149359ac69ef4ce5b1e257599a1add9",
      "s": "0x7e0944c1dff43b1d65a90957fda2a471e552f0b746ac096e96c903a9f58d15de",
      "v": 28,
      "creates": null,
      "raw": "0xf86e6c850ce749176a83015f9094613ac53be565d46536b820715b9b8d3ae68a4b9589167f482d3c5b1c0000801ca0fc26456f9c52eca6ceae7f2ce7837476e149359ac69ef4ce5b1e257599a1add9a07e0944c1dff43b1d65a90957fda2a471e552f0b746ac096e96c903a9f58d15de",
      "networkId": 0,
      "chainId": 0
    }
  ]
}