{
  "hash": "0xad6a7845d117641e7cd475105072309160931b42dfe632a8afbfd6df2253774e",
  "parentHash": "0x47f3bd07f615b59bd62b6d89601447d3e9406d689f5e738a7397091b34e4bc30",
  "number": 103461,
  "timestamp": 1439853760,
  "nonce": "0x8910aeae52e659cc",
  "difficulty": 4170535393945,
  "gasLimit": {
    "_hex": "0x2fefd8"
  },
  "gasUsed": {
    "_hex": "0x5208"
  },
  "miner": "0xe6A7a1d47ff21B6321162AEA7C6CB457D5476Bca",
  "extraData": "0x476574682f76312e302e312d38326566323666362f6c696e75782f676f312e34",
  "transactions": [
    {
      "hash": "0x92b12f35c5569771a9357311acfb2104af50b31a20c90362042b6474ed19c6d4",
      "blockHash": "0xad6a7845d117641e7cd475105072309160931b42dfe632a8afbfd6df2253774e",
      "blockNumber": 103461,
      "transactionIndex": 0,
      "confirmations": null,
      "from": "0x007f7f58D3eb5b7510A301eCC749FC1fCDDBE14D",
      "gasPrice": {
        "_hex": "0xe0cfe7246"
      },
      "gasLimit": {
        "_hex": "0x15f90"
      },
      "to": "0xb1abce2918E21ddb93AA452731a12672A3d9F75a",
      "value": {
        "_hex": "0x4563918244f40000"
      },
      "nonce": 225,
      "data": "0x",
      "r": "0x654abbdd4fb679eb08491131aa33aeaa0cd4c84ac59f9194ea4002465a2eeabb",
      "s": "0x347cb1ff2c03db0bf2b9fabf32a0bcc95919fbfc728d405c205a7129008d3acc",
      "v": 28,
      "creates": null,
      "raw": "0xf86e81e1850e0cfe724683015f9094b1abce2918e21ddb93aa452731a12672a3d9f75a884563918244f40000801ca0654abbdd4fb679eb08491131aa33aeaa0cd4c84ac59f9194ea4002465a2eeabba0347cb1ff2c03db0bf2b9fabf32a0bcc95919fbfc728d405c205a7129008d3acc",
      "networkId": 0,
      "chainId": 0
    }
  ]
}