{
  "hash": "0xf89db03c371b878f8b8998eec7d25d8a5fe08ab69d7453430674758fd294ef15",
  "parentHash": "0x5ef5bf8d5480c2400400a61775f9df4ace2547cff8a406977bc7414454d638b7",
  "number": 109613,
  "timestamp": 1439959611,
  "nonce": "0xcd4a091cc35a235c",
  "difficulty": 4440591602180,
  "gasLimit": {
    "_hex": "0x2fefd5"
  },
  "gasUsed": {
    "_hex": "0x5208"
  },
  "miner": "0xe6A7a1d47ff21B6321162AEA7C6CB457D5476Bca",
  "extraData": "0x476574682f76312e302e312d38326566323666362f6c696e75782f676f312e34",
  "transactions": [
    {
      "hash": "0x9bb7d4cbe74b78ef551d202051a514b6079b5997079ce1e9b7208ee30a134a46",
      "blockHash": "0xf89db03c371b878f8b8998eec7d25d8a5fe08ab69d7453430674758fd294ef15",
      "blockNumber": 109613,
      "transactionIndex": 0,
      "confirmations": null,
      "from": "0x4E66F49aAbe24B61cC417cf717BCd89862C69372",
      "gasPrice": {
        "_hex": "0xd07925d77"
      },
      "gasLimit": {
        "_hex": "0x15f90"
      },
      "to": "0xD9176cf582B2f51fAD57941e0a84dfBa0Ed3620D",
      "value": {
        "_hex": "0x1cb809202882b10000"
      },
      "nonce": 1,
      "data": "0x",
      "r": "0xaf547192254b92dde648477f48c8392f13dba55f63aec8b9de0f2a73c1887ebd",
      "s": "0x296d52e6f77e7a953d1c00c016db72df1c2672d8b0b6753956c138f41fbda0f0",
      "v": 28,
      "creates": null,
      "raw": "0xf86e01850d07925d7783015f9094d9176cf582b2f51fad57941e0a84dfba0ed3620d891cb809202882b10000801ca0af547192254b92dde648477f48c8392f13dba55f63aec8b9de0f2a73c1887ebda0296d52e6f77e7a953d1c00c016db72df1c2672d8b0b6753956c138f41fbda0f0",
      "networkId": 0,
      "chainId": 0
    }
  ]
}