{
  "hash": "0xf3eab3dcc3455223108eb3c6bb231230fb2c47fb3cc610d0abe529c3d9d8d4f7",
  "parentHash": "0x508d6652b9b7daccd674477a298c595d118dc0005f3906a5b944b53ec888b447",
  "number": 108156,
  "timestamp": 1439935139,
  "nonce": "0x8075462749315351",
  "difficulty": 4374641524994,
  "gasLimit": {
    "_hex": "0x2fefd8"
  },
  "gasUsed": {
    "_hex": "0x5208"
  },
  "miner": "0xe6A7a1d47ff21B6321162AEA7C6CB457D5476Bca",
  "extraData": "0x476574682f76312e302e312d38326566323666362f6c696e75782f676f312e34",
  "transactions": [
    {
      "hash": "0x0c8e4140143526f727a7b10beb89cf4b2283a2d382fdb015b51e105e709f5f87",
      "blockHash": "0xf3eab3dcc3455223108eb3c6bb231230fb2c47fb3cc610d0abe529c3d9d8d4f7",
      "blockNumber": 108156,
      "transactionIndex": 0,
      "confirmations": null,
      "from": "0x939CD990e1F4959202878aaaCfAd8454AA2C1D1e",
      "gasPrice": {
        "_hex": "0xd6d9651bf"
      },
      "gasLimit": {
        "_hex": "0x15f90"
      },
      "to": "0x7eB5Cc45034BED946072C50Cc87d2864b5c0d7Cf",
      "value": {
        "_hex": "0x2386f26fc10000"
      },
      "nonce": 1,
      "data": "0x",
      "r": "0xa09e2bd0ed0d0053275cca0701ba599416db344b406b09aa52c98b0ef195c747",
      "s": "0x0a74c848460abde3291ed664b0fc31e35022b1457f3071b4d0b0fb7e41541017",
      "v": 27,
      "creates": null,
      "raw": "0xf86c01850d6d9651bf83015f90947eb5cc45034bed946072c50cc87d2864b5c0d7cf872386f26fc10000801ba0a09e2bd0ed0d0053275cca0701ba599416db344b406b09aa52c98b0ef195c747a00a74c848460abde3291ed664b0fc31e35022b1457f3071b4d0b0fb7e41541017",
      "networkId": 0,
      "chainId": 0
    }
  ]
}