{
  "hash": "0x348a7fa030589aa2f345f6e0173427636fb75776036b14be641e91215417e72f",
  "parentHash": "0x642143fd869570fa14b9f1cca4fa61475a08d6611fb56cc0776f5f4dc16c5ad0",
  "number": 108439,
  "timestamp": 1439940656,
  "nonce": "0x3c0be31f4dccf81c",
  "difficulty": 4291978746272,
  "gasLimit": {
    "_hex": "0x2fefd8"
  },
  "gasUsed": {
    "_hex": "0x5208"
  },
  "miner": "0xa50ec0D39fa913E62f1Bae7074E6F36caA71855b",
  "extraData": "0xd783010001844765746887676f312e342e32856c696e7578",
  "transactions": [
    {
      "hash": "0x9c4e77bd30608783e641622e1799c70a9ee8d5ba9f9c86b7f57d70ac748c1b83",
      "blockHash": "0x348a7fa030589aa2f345f6e0173427636fb75776036b14be641e91215417e72f",
      "blockNumber": 108439,
      "transactionIndex": 0,
      "confirmations": null,
      "from": "0x32Be343B94f860124dC4fEe278FDCBD38C102D88",
      "gasPrice": {
        "_hex": "0xd872fe198"
      },
      "gasLimit": {
        "_hex": "0x5208"
      },
      "to": "0x1c5882903Db400D54A042Ff314258D9080d1C158",
      "value": {
        "_hex": "0xe043da617250000"
      },
      "nonce": 1250,
      "data": "0x",
      "r": "0x790796a878b4f0fba8edd84c91d752c23a901ca8d39ec53bb4c2ba3356f32837",
      "s": "0x5f5970bbb6dacdc2c2674d37306c5f0fbbe7a933c4ffcf470dce5ab63729d15f",
      "v": 28,
      "creates": null,
      "raw": "0xf86e8204e2850d872fe198825208941c5882903db400d54a042ff314258d9080d1c158880e043da617250000801ca0790796a878b4f0fba8edd84c91d752c23a901ca8d39ec53bb4c2ba3356f32837a05f5970bbb6dacdc2c2674d37306c5f0fbbe7a933c4ffcf470dce5ab63729d15f",
      "networkId": 0,
      "chainId": 0
    }
  ]
}