{
  "hash": "0x26ff4cc5e38edc104c78653b944460e6986643a972833e5bb9a60ab97027e5e8",
  "parentHash": "0xd5ad849a8cb29dd438e977f14fdc7649a02f357b77d6c12a4034efe31a24aa4f",
  "number": 87607,
  "timestamp": 1439594764,
  "nonce": "0x37a83f335458b811",
  "difficulty": 3160206793992,
  "gasLimit": {
    "_hex": "0x2fefd8"
  },
  "gasUsed": {
    "_hex": "0x5208"
  },
  "miner": "0xF2d2AfF1320476cb8C6b607199D23175cc595693",
  "extraData": "0x476574682f76312e302e312f77696e646f77732f676f312e342e32",
  "transactions": [
    {
      "hash": "0xcff0df90a27b269198ba07f9eb145ba10427c430c0f7899d7ff33a1da5f15571",
      "blockHash": "0x26ff4cc5e38edc104c78653b944460e6986643a972833e5bb9a60ab97027e5e8",
      "blockNumber": 87607,
      "transactionIndex": 0,
      "confirmations": null,
      "from": "0x5F93ff832774dB5114C55bB4Bf44CCf3B58f903f",
      "gasPrice": {
        "_hex": "0xd641f460d"
      },
      "gasLimit": {
        "_hex": "0x15f90"
      },
      "to": "0x990BA897951E7bB159badE10e800f0B27A4CB89F",
      "value": {
        "_hex": "0xd51a817c38ae4400"
      },
      "nonce": 0,
      "data": "0x",
      "r": "0x40d2d22fb3217d8bb47bc01d2d33343c7dc4a48b1741583e0c12974fc55e1f64",
      "s": "0x41ce647448092303ee7ae4f0decb35df4fdd972bb3f0aab0a476299be3c7571c",
      "v": 28,
      "creates": null,
      "raw": "0xf86d80850d641f460d83015f9094990ba897951e7bb159bade10e800f0b27a4cb89f88d51a817c38ae4400801ca040d2d22fb3217d8bb47bc01d2d33343c7dc4a48b1741583e0c12974fc55e1f64a041ce647448092303ee7ae4f0decb35df4fdd972bb3f0aab0a476299be3c7571c",
      "networkId": 0,
      "chainId": 0
    }
  ]
}