{
  "hash": "0x59e89d05bd8e6b824fa554973151a546eef1316c53b7d546ab8b6640314a9922",
  "parentHash": "0x4c763bd4ca1ffeb88b1437b79b84a839e54936516047735960f654ceb9e5f79a",
  "number": 99110,
  "timestamp": 1439784552,
  "nonce": "0x300daf9b7af52db6",
  "difficulty": 3801141334981,
  "gasLimit": {
    "_hex": "0x2fefd8"
  },
  "gasUsed": {
    "_hex": "0x5208"
  },
  "miner": "0x790b8a3cE86E707ED0eD32bF89B3269692a23CC1",
  "extraData": "0xd783010001844765746887676f312e342e32856c696e7578",
  "transactions": [
    {
      "hash": "0x2fdef762354c5778ff1490c713a8983e6b175896c152e966e5550a676a69a322",
      "blockHash": "0x59e89d05bd8e6b824fa554973151a546eef1316c53b7d546ab8b6640314a9922",
      "blockNumber": 99110,
      "transactionIndex": 0,
      "confirmations": null,
      "from": "0x022A006FcC619ebf387F413eF06932bAbd47AE0E",
      "gasPrice": {
        "_hex": "0xd3facf5b2"
      },
      "gasLimit": {
        "_hex": "0x5208"
      },
      "to": "0x32Be343B94f860124dC4fEe278FDCBD38C102D88",
      "value": {
        "_hex": "0x85595546352ee000"
      },
      "nonce": 5,
      "data": "0x",
      "r": "0x6100d7238de620f09ba45f818ef59be4f5e3c9474ade5bf3ba850ad0146e517e",
      "s": "0x18499d27a0e436b27600e7a258b38865e45d6aa1e0642a956c7308a5efcb5c11",
      "v": 27,
      "creates": null,
      "raw": "0xf86c05850d3facf5b28252089432be343b94f860124dc4fee278fdcbd38c102d888885595546352ee000801ba06100d7238de620f09ba45f818ef59be4f5e3c9474ade5bf3ba850ad0146e517ea018499d27a0e436b27600e7a258b38865e45d6aa1e0642a956c7308a5efcb5c11",
      "networkId": 0,
      "chainId": 0
    }
  ]
}