{
  "hash": "0x46bd93e90aa40e4724b1a1dd350e7ed631f50b78599fd7f92aefc6dbe1ed47d0",
  "parentHash": "0x029b33476a7e1133ba0f2474a4cbfdf3fc95d7e50bd61d7f8f8333c2659eedc2",
  "number": 81104,
  "timestamp": 1439496320,
  "nonce": "0x2407163eb3521098",
  "difficulty": 2437953012376,
  "gasLimit": {
    "_hex": "0x2fefd8"
  },
  "gasUsed": {
    "_hex": "0x1f180"
  },
  "miner": "0xe6A7a1d47ff21B6321162AEA7C6CB457D5476Bca",
  "extraData": "0x476574682f76312e302e312d38326566323666362f6c696e75782f676f312e34",
  "transactions": [
    {
      "hash": "0xd483d6680a07a70d845d27dbd4656941d3742a4c65cb5a267e314f1c54087fb4",
      "blockHash": "0x46bd93e90aa40e4724b1a1dd350e7ed631f50b78599fd7f92aefc6dbe1ed47d0",
      "blockNumber": 81104,
      "transactionIndex": 0,
      "confirmations": null,
      "from": "0x6FDdbd9BCA66E28765c2162c8433548c1052eD11",
      "gasPrice": {
        "_hex": "0x1118a755c37"
      },
      "gasLimit": {
        "_hex": "0x61a8"
      },
      "to": "0x2910543Af39abA0Cd09dBb2D50200b3E800A63D2",
      "value": {
        "_hex": "0x4563918244f40000"
      },
      "nonce": 3,
      "data": "0x584537314554484b52414b454e59373457465730",
      "r": "0xe5e3257179ff9ed0a9a21fa2fed98aa214219906d6ca2c7639c9770e83973fce",
      "s": "0x0c51418be03bc825f22e020081902abdbaf30ad6c336d3c1be3c67568c944070",
      "v": 27,
      "creates": null,
      "raw": "0xf881038601118a755c378261a8942910543af39aba0cd09dbb2d50200b3e800a63d2884563918244f4000094584537314554484b52414b454e593734574657301ba0e5e3257179ff9ed0a9a21fa2fed98aa214219906d6ca2c7639c9770e83973fcea00c51418be03bc825f22e020081902abdbaf30ad6c336d3c1be3c67568c944070",
      "networkId": 0,
      "chainId": 0
    },
    {
      "hash": "0x9df7ea345c48fe370bca20867c4586b882054186dfdfe227d5e90ac2bf38bd3b",
      "blockHash": "0x46bd93e90aa40e4724b1a1dd350e7ed631f50b78599fd7f92aefc6dbe1ed47d0",
      "blockNumber": 81104,
      "transactionIndex": 1,
      "confirmations": null,
      "from": "0x01aa273d9E71Ba27a14fB5c17F54508f02d4dc4C",
      "gasPrice": {
        "_hex": "0xba43b7400"
      },
      "gasLimit": {
        "_hex": "0x5208"
      },
      "to": "0xC47Aaa860008be6f65B58c6C6E02a84e666EfE31",
      "value": {
        "_hex": "0xa0c0f6149d7e61c0"
      },
      "nonce": 0,
      "data": "0x",
      "r": "0x5b327bdcda1cb17e64811878c6344916c08d44337ad1f33899afcea986b7168b",
      "s": "0x34f82d641424c6d6298437014fc895b7d0df33c3350c472d2ccd70343b9da8e5",
      "v": 28,
      "creates": null,
      "raw": "0xf86c80850ba43b740082520894c47aaa860008be6f65b58c6c6e02a84e666efe3188a0c0f6149d7e61c0801ca05b327bdcda1cb17e64811878c6344916c08d44337ad1f33899afcea986b7168ba034f82d641424c6d6298437014fc895b7d0df33c3350c472d2ccd70343b9da8e5",
      "networkId": 0,
      "chainId": 0
    },
    {
      "hash": "0x2fd873efbb48b989b8e0c798dd32238dae3d6c52fac314417d4a861f7467b2f2",
      "blockHash": "0x46bd93e90aa40e4724b1a1dd350e7ed631f50b78599fd7f92aefc6dbe1ed47d0",
      "blockNumber": 81104,
      "transactionIndex": 2,
      "confirmations": null,
      "from": "0xA56bb79Fc3B611f03E2a0BFCc86d45f4B9ca3285",
      "gasPrice": {
        "_hex": "0xba43b7400"
      },
      "gasLimit": {
        "_hex": "0x5208"
      },
      "to": "0xC47Aaa860008be6f65B58c6C6E02a84e666EfE31",
      "value": {
        "_hex": "0x136a119cf0791dc0"
      },
      "nonce": 0,
      "data": "0x",
      "r": "0x5f5add475b491aad77f75a6169627a9f2936180e515bec59f1aea75067c3db20",
      "s": "0x476972e70cc03d1323a31295e6b28875b55cd0adc2aff036467ab9eff35a7f6b",
      "v": 27,
      "creates": null,
      "raw": "0xf86c80850ba43b740082520894c47aaa860008be6f65b58c6c6e02a84e666efe3188136a119cf0791dc0801ba05f5add475b491aad77f75a6169627a9f2936180e515bec59f1aea75067c3db20a0476972e70cc03d1323a31295e6b28875b55cd0adc2aff036467ab9eff35a7f6b",
      "networkId": 0,
      "chainId": 0
    },
    {
      "hash": "0x7215417d902f41b7b3098302a440f1712819039971840dc62b9e7f8873cf80d6",
      "blockHash": "0x46bd93e90aa40e4724b1a1dd350e7ed631f50b78599fd7f92aefc6dbe1ed47d0",
      "blockNumber": 81104,
      "transactionIndex": 3,
      "confirmations": null,
      "from": "0x2C3d5c472E35947eb8Bf098e5207b0e1f3D1Ef91",
      "gasPrice": {
        "_hex": "0xba43b7400"
      },
      "gasLimit": {
        "_hex": "0x5208"
      },
      "to": "0xC47Aaa860008be6f65B58c6C6E02a84e666EfE31",
      "value": {
        "_hex": "0x13b982147a4e22c00"
      },
      "nonce": 1,
      "data": "0x",
      "r": "0x1f72e736cf3feac570606ae7d548f61f13a2301cc39ba7dee0495b48129870ea",
      "s": "0x6d321aeaf02d67df5bbe76f73450ede460f9e4e8e46a4cad36192294d6befa42",
      "v": 28,
      "creates": null,
      "raw": "0xf86d01850ba43b740082520894c47aaa860008be6f65b58c6c6e02a84e666efe3189013b982147a4e22c00801ca01f72e736cf3feac570606ae7d548f61f13a2301cc39ba7dee0495b48129870eaa06d321aeaf02d67df5bbe76f73450ede460f9e4e8e46a4cad36192294d6befa42",
      "networkId": 0,
      "chainId": 0
    },
    {
      "hash": "0x6df2bee6f5b16978bd769a01a60cf50c8c7f3de76d0df7b80b6fc021d9d61393",
      "blockHash": "0x46bd93e90aa40e4724b1a1dd350e7ed631f50b78599fd7f92aefc6dbe1ed47d0",
      "blockNumber": 81104,
      "transactionIndex": 4,
      "confirmations": null,
      "from": "0x5F28bcc5faFC8982536A9e4be559657998CdE1E3",
      "gasPrice": {
        "_hex": "0xba43b7400"
      },
      "gasLimit": {
        "_hex": "0x5208"
      },
      "to": "0xC47Aaa860008be6f65B58c6C6E02a84e666EfE31",
      "value": {
        "_hex": "0x8a9fe119ed236000"
      },
      "nonce": 0,
      "data": "0x",
      "r": "0x89b261acab6a4ec74f7f9f472a95726fedb293d8fd9fabf4c7170cb5ddb065a0",
      "s": "0x3a44f89da7d6258fc1c4129b5289440c7e94b82a05a98d34ba4e2cc31c95e34d",
      "v": 28,
      "creates": null,
      "raw": "0xf86c80850ba43b740082520894c47aaa860008be6f65b58c6c6e02a84e666efe31888a9fe119ed236000801ca089b261acab6a4ec74f7f9f472a95726fedb293d8fd9fabf4c7170cb5ddb065a0a03a44f89da7d6258fc1c4129b5289440c7e94b82a05a98d34ba4e2cc31c95e34d",
      "networkId": 0,
      "chainId": 0
    },
    {
      "hash": "0xe6a37b1f45b6ecd33a2830d9995e937baabf02ad062c3ffc9ec2d1ccf75ddf25",
      "blockHash": "0x46bd93e90aa40e4724b1a1dd350e7ed631f50b78599fd7f92aefc6dbe1ed47d0",
      "blockNumber": 81104,
      "transactionIndex": 5,
      "confirmations": null,
      "from": "0xEa63C59e990047BF874D6A47900521D711460B79",
      "gasPrice": {
        "_hex": "0xba43b7400"
      },
      "gasLimit": {
        "_hex": "0x5208"
      },
      "to": "0xC47Aaa860008be6f65B58c6C6E02a84e666EfE31",
      "value": {
        "_hex": "0xddcfbbb7a606000"
      },
      "nonce": 0,
      "data": "0x",
      "r": "0x1ee5bb73e45fe379f3a69b26d65ac4cf55325afdf4139a63de12fb5dccb8d7a1",
      "s": "0x545a064519e7c44cc2422e7f5f02d33cefa17e945b38a9d452bbc11b6e68d8eb",
      "v": 28,
      "creates": null,
      "raw": "0xf86c80850ba43b740082520894c47aaa860008be6f65b58c6c6e02a84e666efe31880ddcfbbb7a606000801ca01ee5bb73e45fe379f3a69b26d65ac4cf55325afdf4139a63de12fb5dccb8d7a1a0545a064519e7c44cc2422e7f5f02d33cefa17e945b38a9d452bbc11b6e68d8eb",
      "networkId": 0,
      "chainId": 0
    }
  ]
}