{
  "hash": "0x89e5cd12a2db4a73e8001a369942e1a886747bc2b6383cb5c913470f0e455dd6",
  "parentHash": "0x36d2aff4b0ff8fa77930cc58372c229117369ed5092d8afb02fcead5e4d1cd03",
  "number": 73119,
  "timestamp": 1439363375,
  "nonce": "0x0545fd11101a3e95",
  "difficulty": 2220810802304,
  "gasLimit": {
    "_hex": "0x2fefd8"
  },
  "gasUsed": {
    "_hex": "0x5208"
  },
  "miner": "0xf927a40C8B7F6E07c5af7FA2155B4864a4112B13",
  "extraData": "0x",
  "transactions": [
    {
      "hash": "0xc2ebf5ca61c0747df4c7fb02f3163da080c69ff9a43505ace8da10ce5cdb9362",
      "blockHash": "0x89e5cd12a2db4a73e8001a369942e1a886747bc2b6383cb5c913470f0e455dd6",
      "blockNumber": 73119,
      "transactionIndex": 0,
      "confirmations": null,
      "from": "0x76d4a9bc9612bE738A81d0fE632b00B971E2bB9a",
      "gasPrice": {
        "_hex": "0xce3a1e999"
      },
      "gasLimit": {
        "_hex": "0x55f0"
      },
      "to": "0xb50405193Dc0c7077dD65252C15C39242F0aCB76",
      "value": {
        "_hex": "0x22b1c8c1227a00000"
      },
      "nonce": 4,
      "data": "0x",
      "r": "0x9bfc713ec905309738d6f0fee42e2c2c9862c05719a1895747772dda4e28b675",
      "s": "0x3691513a7cb0dc3736d7d3c6f599f3264de589fbfcbaa735423af23b7da7290f",
      "v": 28,
      "creates": null,
      "raw": "0xf86d04850ce3a1e9998255f094b50405193dc0c7077dd65252c15c39242f0acb7689022b1c8c1227a00000801ca09bfc713ec905309738d6f0fee42e2c2c9862c05719a1895747772dda4e28b675a03691513a7cb0dc3736d7d3c6f599f3264de589fbfcbaa735423af23b7da7290f",
      "networkId": 0,
      "chainId": 0
    }
  ]
}