{
  "hash": "0x35365af9b0cb4a4d85a6957015b180e354f7778822ef2e609c78aeb84537da02",
  "parentHash": "0x16323ef94e03a1a46e8c93128b8f59078d057cd40089b34656d4230f3f777623",
  "number": 80126,
  "timestamp": 1439480664,
  "nonce": "0xada5ec30664657f2",
  "difficulty": 2344829851958,
  "gasLimit": {
    "_hex": "0x2fefd8"
  },
  "gasUsed": {
    "_hex": "0x7951"
  },
  "miner": "0xe090Ffdced499691fA9379752a59F8A058c1eE4A",
  "extraData": "0x476574682f76312e302e312f6c696e75782f676f312e342e32",
  "transactions": [
    {
      "hash": "0x334a7a083bee9f622b86301782f9f71404d496382b78c433b9cc994bfdf74b07",
      "blockHash": "0x35365af9b0cb4a4d85a6957015b180e354f7778822ef2e609c78aeb84537da02",
      "blockNumber": 80126,
      "transactionIndex": 0,
      "confirmations": null,
      "from": "0x87C5B5874A18B4306DF8a752a6C8cc3E82daFc19",
      "gasPrice": {
        "_hex": "0x10984b82ec5"
      },
      "gasLimit": {
        "_hex": "0x493e0"
      },
      "to": "0xC4c51de1AbF5D60DBd329eC0F999Fd8f021ae9fC",
      "value": {
        "_hex": "0x3c631853ab64b922"
      },
      "nonce": 131,
      "data": "0x8d216186000000000000000000000000000000000000000000000000000000000000001ad3d96ceed0cfca4794c2a5a3d3aeefe69da0a2a669e66a5651f30b64831c3db0",
      "r": "0xb70cac986a788934206f2ee049637db4d8e5bc33dbc8100a898c1608dc853a1c",
      "s": "0x489126e224abbe55c9996917bbc1fb949f6d31f9f069aa7057b4d09fa9076a15",
      "v": 28,
      "creates": null,
      "raw": "0xf8b4818386010984b82ec5830493e094c4c51de1abf5d60dbd329ec0f999fd8f021ae9fc883c631853ab64b922b8448d216186000000000000000000000000000000000000000000000000000000000000001ad3d96ceed0cfca4794c2a5a3d3aeefe69da0a2a669e66a5651f30b64831c3db01ca0b70cac986a788934206f2ee049637db4d8e5bc33dbc8100a898c1608dc853a1ca0489126e224abbe55c9996917bbc1fb949f6d31f9f069aa7057b4d09fa9076a15",
      "networkId": 0,
      "chainId": 0
    }
  ]
}