{
  "hash": "0x56d80d829fa9e9a3130255bc24ff67ba8ea789d75d2443702708bdb978b09d8d",
  "parentHash": "0x715c0512aeacf81657069d28bf35e5583ec5001b2b8dc15da2ee49617e0f5f77",
  "number": 60355,
  "timestamp": 1439154043,
  "nonce": "0x5fbdb53436a39a72",
  "difficulty": 1745788688245,
  "gasLimit": {
    "_hex": "0x2fefd8"
  },
  "gasUsed": {
    "_hex": "0x5208"
  },
  "miner": "0x051219f568c86EA6DD6Dd2cC8052c31504F33d44",
  "extraData": "0x52696735",
  "transactions": [
    {
      "hash": "0x7e583af7d79b9c0c50a23935a5e14da52e43d4497bec01d4c7e0dd83e628214a",
      "blockHash": "0x56d80d829fa9e9a3130255bc24ff67ba8ea789d75d2443702708bdb978b09d8d",
      "blockNumber": 60355,
      "transactionIndex": 0,
      "confirmations": null,
      "from": "0x71f913897f689FE1c71FF4a8009CBfe512660C6C",
      "gasPrice": {
        "_hex": "0xd12bb6509"
      },
      "gasLimit": {
        "_hex": "0x5208"
      },
      "to": "0x32Be343B94f860124dC4fEe278FDCBD38C102D88",
      "value": {
        "_hex": "0x2b5df7ead18bcc000"
      },
      "nonce": 1,
      "data": "0x",
      "r": "0x7f08b1afb695b6321177c015b41dd34b11a0f4ce0609ad23ca0c9daa2ee68fa0",
      "s": "0x44900f72472fa995e2bfaeb0cf90bbaa851296d088e0393daf09c5efb87ceeb3",
      "v": 28,
      "creates": null,
      "raw": "0xf86d01850d12bb65098252089432be343b94f860124dc4fee278fdcbd38c102d888902b5df7ead18bcc000801ca07f08b1afb695b6321177c015b41dd34b11a0f4ce0609ad23ca0c9daa2ee68fa0a044900f72472fa995e2bfaeb0cf90bbaa851296d088e0393daf09c5efb87ceeb3",
      "networkId": 0,
      "chainId": 0
    }
  ]
}