{
  "hash": "0x36ac8db17823dc69d6f03e65700d9eb48a0495b1f08eca329c046cdc70483b17",
  "parentHash": "0xef6b9404e7fe443e495c290b4fef603c46c6c3aa9e8a6a7c91d755f8e11aa40e",
  "number": 98951,
  "timestamp": 1439781784,
  "nonce": "0x97acb28f1c7c5e32",
  "difficulty": 3847899286219,
  "gasLimit": {
    "_hex": "0x2fefd8"
  },
  "gasUsed": {
    "_hex": "0x5208"
  },
  "miner": "0x3D5292e9d2a2D31014717ff936A0F9375A5Cc8b7",
  "extraData": "0x476574682f76312e302e312f77696e646f77732f676f312e342e32",
  "transactions": [
    {
      "hash": "0xf8738eac0cde044c19488d69f3c9e1adf713d3720c8f2b50177a723182230298",
      "blockHash": "0x36ac8db17823dc69d6f03e65700d9eb48a0495b1f08eca329c046cdc70483b17",
      "blockNumber": 98951,
      "transactionIndex": 0,
      "confirmations": null,
      "from": "0xF109ca710C0Df51c1a86dBA1B0BA0Ed038114463",
      "gasPrice": {
        "_hex": "0xd9607c71f"
      },
      "gasLimit": {
        "_hex": "0x5208"
      },
      "to": "0x32Be343B94f860124dC4fEe278FDCBD38C102D88",
      "value": {
        "_hex": "0x455f41e1ecc01c00"
      },
      "nonce": 14,
      "data": "0x",
      "r": "0x7de4b2658fcd376172435374cb0c7bb9a5a7176d9f88d833349bd55a7c2b84ed",
      "s": "0x0d4a98271a03d5ec2c3101ee34363217e3b03c503f97629d4e5c7b02f17df8ea",
      "v": 27,
      "creates": null,
      "raw": "0xf86c0e850d9607c71f8252089432be343b94f860124dc4fee278fdcbd38c102d8888455f41e1ecc01c00801ba07de4b2658fcd376172435374cb0c7bb9a5a7176d9f88d833349bd55a7c2b84eda00d4a98271a03d5ec2c3101ee34363217e3b03c503f97629d4e5c7b02f17df8ea",
      "networkId": 0,
      "chainId": 0
    }
  ]
}