{
  "hash": "0x22bd833a72b6ddad593b4c1ca970fbcffc87268954df9a5d92fc630e6b998d4f",
  "parentHash": "0x7a1e760e8bc6af92e09a16fc3a7a73a6f921bc47ddf131bb1893700bbc0233f3",
  "number": 46677,
  "timestamp": 1438927258,
  "nonce": "0x5a579f6e550b1ada",
  "difficulty": 1461041378728,
  "gasLimit": {
    "_hex": "0x7070"
  },
  "gasUsed": {
    "_hex": "0x5208"
  },
  "miner": "0xbb7B8287f3F0a933474a79eAe42CBCa977791171",
  "extraData": "0x476574682f4c5649562f76312e302e312f6c696e75782f676f312e342e32",
  "transactions": [
    {
      "hash": "0x6c61bef12cc59c4d120cf718182758dce6d69f4a147451dc4409d85d1fd2dca0",
      "blockHash": "0x22bd833a72b6ddad593b4c1ca970fbcffc87268954df9a5d92fc630e6b998d4f",
      "blockNumber": 46677,
      "transactionIndex": 0,
      "confirmations": null,
      "from": "0xa89AC93b23370472DaAc337E9afdF642543F3E57",
      "gasPrice": {
        "_hex": "0x1e80dfee58"
      },
      "gasLimit": {
        "_hex": "0x5208"
      },
      "to": "0x92c27672FE65e002159Ec2597fcf8897ADBf5B29",
      "value": {
        "_hex": "0xa2a15d09519be00000"
      },
      "nonce": 13,
      "data": "0x",
      "r": "0x5194f130672fd3ac09296944b9945bad1b1463c249e2cf5f8f44f14f23545e37",
      "s": "0x1f9477d79b5bd998f64b8c07ac19138987f4635f87045668504f833418ef52a1",
      "v": 28,
      "creates": null,
      "raw": "0xf86d0d851e80dfee588252089492c27672fe65e002159ec2597fcf8897adbf5b2989a2a15d09519be00000801ca05194f130672fd3ac09296944b9945bad1b1463c249e2cf5f8f44f14f23545e37a01f9477d79b5bd998f64b8c07ac19138987f4635f87045668504f833418ef52a1",
      "networkId": 0,
      "chainId": 0
    }
  ]
}