{
  "hash": "0x74ded26f2bdb987ca085801cd4ecde6d0861f19067622f6f6ce6a8da96a93b7b",
  "parentHash": "0xa8cb443c2daf66044e6808059e6dc4eae6b16d5625f8edd1c384077a67eece4e",
  "number": 71381,
  "timestamp": 1439334996,
  "nonce": "0x5047e926fe0a428b",
  "difficulty": 2182566362367,
  "gasLimit": {
    "_hex": "0x2fefd5"
  },
  "gasUsed": {
    "_hex": "0xae73"
  },
  "miner": "0x33b01a7fe4A1a5F774Bb73f89A4eF15a6Ffe1141",
  "extraData": "0x476574682f76312e302e312f6c696e75782f676f312e342e32",
  "transactions": [
    {
      "hash": "0x199749a06c72f10ea4930da9df0b3dd6c1302bc3029b9a98ce1be8bdd877fa77",
      "blockHash": "0x74ded26f2bdb987ca085801cd4ecde6d0861f19067622f6f6ce6a8da96a93b7b",
      "blockNumber": 71381,
      "transactionIndex": 0,
      "confirmations": null,
      "from": "0x17580B766f7453525ca4C6A88b01b50570EA088C",
      "gasPrice": {
        "_hex": "0xd68d114e6"
      },
      "gasLimit": {
        "_hex": "0x61a80"
      },
      "to": "0x5Fe5B7546D1628f7348B023A0393de1FC825A4fD",
      "value": {
        "_hex": "0x1bc16d674ec80000"
      },
      "nonce": 168,
      "data": "0xb595b8b50000000000000000000000000000000000000000000000000000000000000000",
      "r": "0xc10e8fdc7f1549329a7a3193127670cba74e69ec584a8117884ebab5229557b8",
      "s": "0x0411410d842f4255c86bafe6326c1b2e99960d72052b63a7c4a52224ee4de0fa",
      "v": 27,
      "creates": null,
      "raw": "0xf89281a8850d68d114e683061a80945fe5b7546d1628f7348b023a0393de1fc825a4fd881bc16d674ec80000a4b595b8b500000000000000000000000000000000000000000000000000000000000000001ba0c10e8fdc7f1549329a7a3193127670cba74e69ec584a8117884ebab5229557b8a00411410d842f4255c86bafe6326c1b2e99960d72052b63a7c4a52224ee4de0fa",
      "networkId": 0,
      "chainId": 0
    }
  ]
}