{
  "hash": "0x5f801b4ee76f10e5faac351c74287d4d75e5291a5aac3fa78fdca522816a35f0",
  "parentHash": "0xd20026c7eed06e2548fe0b856a8ba937b7dfce3a8fed7f8bb31ea352c8ce21f8",
  "number": 49421,
  "timestamp": 1438973226,
  "nonce": "0x513515b1b621f2a5",
  "difficulty": 1479224047010,
  "gasLimit": {
    "_hex": "0x30875"
  },
  "gasUsed": {
    "_hex": "0x546c"
  },
  "miner": "0xf927a40C8B7F6E07c5af7FA2155B4864a4112B13",
  "extraData": "0x476574682f76312e302e312f6c696e75782f676f312e342e32",
  "transactions": [
    {
      "hash": "0xdf67d2d5d59deff10fd53a17d7995c589faaecd539dd2466d620d8abb163234f",
      "blockHash": "0x5f801b4ee76f10e5faac351c74287d4d75e5291a5aac3fa78fdca522816a35f0",
      "blockNumber": 49421,
      "transactionIndex": 0,
      "confirmations": null,
      "from": "0xBe2346A27Ff9b702044f500defF2E7fFE6824541",
      "gasPrice": {
        "_hex": "0x110c8f7d8de"
      },
      "gasLimit": {
        "_hex": "0xc350"
      },
      "to": "0x2910543Af39abA0Cd09dBb2D50200b3E800A63D2",
      "value": {
        "_hex": "0x0"
      },
      "nonce": 0,
      "data": "0x454e3347514d323752",
      "r": "0xd73af8c15746e9836da541b22a2b12048b0ed4e74408c7c88fa798681cfcd104",
      "s": "0xcdfc35c4c200a10f65d9fc312e23e209037bb10d6c9d993bb3823942ede41fef",
      "v": 27,
      "creates": null,
      "raw": "0xf86e80860110c8f7d8de82c350942910543af39aba0cd09dbb2d50200b3e800a63d28089454e3347514d3237521ba0d73af8c15746e9836da541b22a2b12048b0ed4e74408c7c88fa798681cfcd104a0cdfc35c4c200a10f65d9fc312e23e209037bb10d6c9d993bb3823942ede41fef",
      "networkId": 0,
      "chainId": 0
    }
  ]
}