{
  "hash": "0x334283aa90bf21abd73bd368a5d8ef38bea7726196bf9c0a735fa93a89ab48e2",
  "parentHash": "0x624930b7b0e313e7a67f5815ba9c7698943ec69ae105049d66799cddd4e21568",
  "number": 113420,
  "timestamp": 1440023265,
  "nonce": "0x3a088a94789f4ecf",
  "difficulty": 4462480938709,
  "gasLimit": {
    "_hex": "0x2fefd8"
  },
  "gasUsed": {
    "_hex": "0x5208"
  },
  "miner": "0xe6A7a1d47ff21B6321162AEA7C6CB457D5476Bca",
  "extraData": "0x476574682f76312e302e312d38326566323666362f6c696e75782f676f312e34",
  "transactions": [
    {
      "hash": "0x2a5334fff5ab4a705401b27507f317a0b0b156e8547a0d3d7ce7ec65d59993c6",
      "blockHash": "0x334283aa90bf21abd73bd368a5d8ef38bea7726196bf9c0a735fa93a89ab48e2",
      "blockNumber": 113420,
      "transactionIndex": 0,
      "confirmations": null,
      "from": "0x295f7067f6e4182a32a4eFF344Af3daADFdE10E5",
      "gasPrice": {
        "_hex": "0xd31575719"
      },
      "gasLimit": {
        "_hex": "0x5208"
      },
      "to": "0x32Be343B94f860124dC4fEe278FDCBD38C102D88",
      "value": {
        "_hex": "0xade4cdd57965b800"
      },
      "nonce": 3,
      "data": "0x",
      "r": "0x74e26479321e2810a4c26d3d283e65af0d98aafbbdd2b0a00e09d99c908e6e79",
      "s": "0x3bf70b30e606ffb8247335c715db9bcdee0dedd56673cee576e278ca8c015fa7",
      "v": 27,
      "creates": null,
      "raw": "0xf86c03850d315757198252089432be343b94f860124dc4fee278fdcbd38c102d8888ade4cdd57965b800801ba074e26479321e2810a4c26d3d283e65af0d98aafbbdd2b0a00e09d99c908e6e79a03bf70b30e606ffb8247335c715db9bcdee0dedd56673cee576e278ca8c015fa7",
      "networkId": 0,
      "chainId": 0
    }
  ]
}