{
  "hash": "0x9a205b3217003c381f1b55ab47ab593cd76105421950e8377c3d24311a375bad",
  "parentHash": "0x49c4478efb70f9ea2e95623ff4937c86c9ab507df4eadee7f63d4db3eaf712ed",
  "number": 75380,
  "timestamp": 1439402322,
  "nonce": "0xecd68217d5691527",
  "difficulty": 2199709879579,
  "gasLimit": {
    "_hex": "0x2fefd8"
  },
  "gasUsed": {
    "_hex": "0x5208"
  },
  "miner": "0x458F183347F45a4001807728A89F31E9Da9D4A58",
  "extraData": "0x476574682f76312e302e312d38326566323666362f6c696e75782f676f312e34",
  "transactions": [
    {
      "hash": "0xdaff956263b15d027b2e02968bdb2dd05f9f746fb5c9c540e823268f88b640f7",
      "blockHash": "0x9a205b3217003c381f1b55ab47ab593cd76105421950e8377c3d24311a375bad",
      "blockNumber": 75380,
      "transactionIndex": 0,
      "confirmations": null,
      "from": "0x5B7970CD176308e0Ffd0358e8B14aaF4A19BA544",
      "gasPrice": {
        "_hex": "0xd1f217cbf"
      },
      "gasLimit": {
        "_hex": "0x15f90"
      },
      "to": "0xdD81AaddCc8448A5fC0ac28DB93ec6801C21E8Ef",
      "value": {
        "_hex": "0x2b5e3af16b1880000"
      },
      "nonce": 1,
      "data": "0x",
      "r": "0xa763f6749f953ad7775587b3bb34403a204390f07a19a7077915c35a19dce237",
      "s": "0x1e592ca2c1a9aa1e1a96a412616b434abbae7c97c3d5df66b76462c37ed575ae",
      "v": 28,
      "creates": null,
      "raw": "0xf86e01850d1f217cbf83015f9094dd81aaddcc8448a5fc0ac28db93ec6801c21e8ef8902b5e3af16b1880000801ca0a763f6749f953ad7775587b3bb34403a204390f07a19a7077915c35a19dce237a01e592ca2c1a9aa1e1a96a412616b434abbae7c97c3d5df66b76462c37ed575ae",
      "networkId": 0,
      "chainId": 0
    }
  ]
}