{
  "hash": "0x8fc9ebe4d7d962602f61ed18df6523392e67800abfaa7afb3d52350da5a97b5b",
  "parentHash": "0x0bd061f7ef1a520a843078924109a047a6d021a0e08083ecca4a6fa6ac4599da",
  "number": 81266,
  "timestamp": 1439498805,
  "nonce": "0xa3d3cff66ba367f8",
  "difficulty": 2452232468795,
  "gasLimit": {
    "_hex": "0x2fefd8"
  },
  "gasUsed": {
    "_hex": "0xa674"
  },
  "miner": "0x9746c7e1ef2bd21FF3997fa467593a89cb852BD0",
  "extraData": "0x476574682f76312e302e312f77696e646f77732f676f312e342e32",
  "transactions": [
    {
      "hash": "0xe75b9a96ef4074819a849f8dea92702d748ea61ad9d6332e0952bf3710ccb4af",
      "blockHash": "0x8fc9ebe4d7d962602f61ed18df6523392e67800abfaa7afb3d52350da5a97b5b",
      "blockNumber": 81266,
      "transactionIndex": 0,
      "confirmations": null,
      "from": "0x8f1fcC3c51E252B693BC5b0EC3f63529fE69281E",
      "gasPrice": {
        "_hex": "0x110c8f7d8de"
      },
      "gasLimit": {
        "_hex": "0xc350"
      },
      "to": "0x2910543Af39abA0Cd09dBb2D50200b3E800A63D2",
      "value": {
        "_hex": "0x14534d95bef905c0000"
      },
      "nonce": 0,
      "data": "0x454e425a54504d4630",
      "r": "0xf876433d73836db107e4890b96b7b8f74e861d4219d74c2674a8c390538c266d",
      "s": "0x07c68f3c1baf0cb20524a6753b2e4c27ac691824d18ed4bcc2d90f19a7510817",
      "v": 28,
      "creates": null,
      "raw": "0xf87880860110c8f7d8de82c350942910543af39aba0cd09dbb2d50200b3e800a63d28a014534d95bef905c000089454e425a54504d46301ca0f876433d73836db107e4890b96b7b8f74e861d4219d74c2674a8c390538c266da007c68f3c1baf0cb20524a6753b2e4c27ac691824d18ed4bcc2d90f19a7510817",
      "networkId": 0,
      "chainId": 0
    },
    {
      "hash": "0x8b5437d5a89f4b31504f54940d33258f22c6cb4e2df0fb5257619b6574add01b",
      "blockHash": "0x8fc9ebe4d7d962602f61ed18df6523392e67800abfaa7afb3d52350da5a97b5b",
      "blockNumber": 81266,
      "transactionIndex": 1,
      "confirmations": null,
      "from": "0x6FDdbd9BCA66E28765c2162c8433548c1052eD11",
      "gasPrice": {
        "_hex": "0x10e43e3b6f8"
      },
      "gasLimit": {
        "_hex": "0x15f90"
      },
      "to": "0x97322F3992D6C50857b4aB28154cA3f9f8219976",
      "value": {
        "_hex": "0xde0b6b3a7640000"
      },
      "nonce": 5,
      "data": "0x",
      "r": "0x5c1ffd3cece507b53afd324de3b88500b789aff78417f5c621db400b090c0889",
      "s": "0x47ce2b02dea3a14b8e458468d5f52e19f29db586dd754fb5cbda91291c31a3ab",
      "v": 28,
      "creates": null,
      "raw": "0xf86e0586010e43e3b6f883015f909497322f3992d6c50857b4ab28154ca3f9f8219976880de0b6b3a7640000801ca05c1ffd3cece507b53afd324de3b88500b789aff78417f5c621db400b090c0889a047ce2b02dea3a14b8e458468d5f52e19f29db586dd754fb5cbda91291c31a3ab",
      "networkId": 0,
      "chainId": 0
    }
  ]
}