{
  "hash": "0x1dbfb389eb59513092b76d226943829c0e9cc7b2631e430ee388bae1efd3d057",
  "parentHash": "0xeb81afb4a1097dadccf07f1223bfd7bf2dfdfc4016526f4dc385bdd2fbd1ea13",
  "number": 52353,
  "timestamp": 1439020231,
  "nonce": "0x4a4732bc5074e43a",
  "difficulty": 1561825985625,
  "gasLimit": {
    "_hex": "0x12d400"
  },
  "gasUsed": {
    "_hex": "0x5208"
  },
  "miner": "0xE4Dd37247830493DE1Df7c758DD746DCdE19419e",
  "extraData": "0x476574682f76312e302e312f77696e646f77732f676f312e342e32",
  "transactions": [
    {
      "hash": "0x4ba84fa4e9da249cc88a4cd8f7bdc38f04ce324cb545d1444a1633836c4468d5",
      "blockHash": "0x1dbfb389eb59513092b76d226943829c0e9cc7b2631e430ee388bae1efd3d057",
      "blockNumber": 52353,
      "transactionIndex": 0,
      "confirmations": null,
      "from": "0x88a0A05437262a1b65f41A978Cb16CB1f0BFCfE0",
      "gasPrice": {
        "_hex": "0xceb1c4d59"
      },
      "gasLimit": {
        "_hex": "0x15f90"
      },
      "to": "0xb81b17f58AE6eBbC0c104C748cA0EB9A18516820",
      "value": {
        "_hex": "0x3635c9adc5dea00000"
      },
      "nonce": 1,
      "data": "0x",
      "r": "0xe77ff894116296b2f0fdcf278209bf6a2ce2124709115e9ffe9968744403d1fe",
      "s": "0x72e70716d94a150c0a52e87017eb16910f3420d0e1d38a06af4ddbd2cf64054e",
      "v": 27,
      "creates": null,
      "raw": "0xf86e01850ceb1c4d5983015f9094b81b17f58ae6ebbc0c104c748ca0eb9a18516820893635c9adc5dea00000801ba0e77ff894116296b2f0fdcf278209bf6a2ce2124709115e9ffe9968744403d1fea072e70716d94a150c0a52e87017eb16910f3420d0e1d38a06af4ddbd2cf64054e",
      "networkId": 0,
      "chainId": 0
    }
  ]
}