{
  "hash": "0xb8b02098eab55a75ca05b67aba52e56d90790e1ea8d7fc33910b739f7ae22ab4",
  "parentHash": "0x8ed3ba210cdf9dce94ee598ed118bc50703725399a1c8f08fa8275649f07cff1",
  "number": 64763,
  "timestamp": 1439225912,
  "nonce": "0x438f96f2cf7aa19e",
  "difficulty": 1890344486767,
  "gasLimit": {
    "_hex": "0x2fefd8"
  },
  "gasUsed": {
    "_hex": "0x5208"
  },
  "miner": "0x0193d941b50d91BE6567c7eE1C0Fe7AF498b4137",
  "extraData": "0x4a5ace9e4e",
  "transactions": [
    {
      "hash": "0x88c5dda959d226abe6987cc63abefcd35919ac9b03c220dc7479e19ed75540c2",
      "blockHash": "0xb8b02098eab55a75ca05b67aba52e56d90790e1ea8d7fc33910b739f7ae22ab4",
      "blockNumber": 64763,
      "transactionIndex": 0,
      "confirmations": null,
      "from": "0xC862dc932A9Afa1aFa5624f8dC3c8Aa5b3f8Fb27",
      "gasPrice": {
        "_hex": "0xba43b7400"
      },
      "gasLimit": {
        "_hex": "0x5208"
      },
      "to": "0xC27a572921e5813F97A5Ae25AeCC48885Bf41d66",
      "value": {
        "_hex": "0xc1c23435b07000"
      },
      "nonce": 1,
      "data": "0x",
      "r": "0x6ec37244988c67c560021d82a4514936c12de11346b25ff31e3515a6eb818f05",
      "s": "0x59f7f992b818cda4d871a9b02e6011376e1572725febbd177076e28814f298c0",
      "v": 27,
      "creates": null,
      "raw": "0xf86b01850ba43b740082520894c27a572921e5813f97a5ae25aecc48885bf41d6687c1c23435b07000801ba06ec37244988c67c560021d82a4514936c12de11346b25ff31e3515a6eb818f05a059f7f992b818cda4d871a9b02e6011376e1572725febbd177076e28814f298c0",
      "networkId": 0,
      "chainId": 0
    }
  ]
}