{
  "hash": "0xf6e594050bd5d83ab368cf4acadb755724bab1f80366a03b330e01ac0324f9cf",
  "parentHash": "0xd65752efb755dfe48a4776565a34484413c43ba2fcd55f6ee513567393f9f651",
  "number": 91372,
  "timestamp": 1439654713,
  "nonce": "0x585c9ceca5fde278",
  "difficulty": 3470945142646,
  "gasLimit": {
    "_hex": "0x2fefd8"
  },
  "gasUsed": {
    "_hex": "0x5208"
  },
  "miner": "0xe6A7a1d47ff21B6321162AEA7C6CB457D5476Bca",
  "extraData": "0x476574682f76312e302e312d38326566323666362f6c696e75782f676f312e34",
  "transactions": [
    {
      "hash": "0x92aa7873baa0855a278a1896d4824f1ffafdc5120ed37362deef095df8d58eaf",
      "blockHash": "0xf6e594050bd5d83ab368cf4acadb755724bab1f80366a03b330e01ac0324f9cf",
      "blockNumber": 91372,
      "transactionIndex": 0,
      "confirmations": null,
      "from": "0x892E75d6aA470004954fCAcc47Dce91652467906",
      "gasPrice": {
        "_hex": "0xd6b5781a9"
      },
      "gasLimit": {
        "_hex": "0x7530"
      },
      "to": "0x6De181Fc4C140FA31F196e5393516c49EEeBdAd3",
      "value": {
        "_hex": "0x1158e460913d00000"
      },
      "nonce": 5,
      "data": "0x",
      "r": "0x3939906d3c70c466bfe823d926ccdfef9c04bb768efd88050108b3e5e33d2b8c",
      "s": "0x05844b8a96228878fd9df94941a12dc37c56cf7b55c58c17b7ea419b8800a3ec",
      "v": 28,
      "creates": null,
      "raw": "0xf86d05850d6b5781a9827530946de181fc4c140fa31f196e5393516c49eeebdad38901158e460913d00000801ca03939906d3c70c466bfe823d926ccdfef9c04bb768efd88050108b3e5e33d2b8ca005844b8a96228878fd9df94941a12dc37c56cf7b55c58c17b7ea419b8800a3ec",
      "networkId": 0,
      "chainId": 0
    }
  ]
}