{
  "hash": "0x3ba41863389f3ecb8276e88b8af8f1db772a921a9255052a8f31cb3ea16a1fd5",
  "parentHash": "0x363474d35866fe146b1d93d99ad8e2c42036312fd60cf1aeae36f07ed8967194",
  "number": 78718,
  "timestamp": 1439458177,
  "nonce": "0xbf30036929202214",
  "difficulty": 2297617862021,
  "gasLimit": {
    "_hex": "0x2fefd8"
  },
  "gasUsed": {
    "_hex": "0x5208"
  },
  "miner": "0x88D74a59454F6cF3B51ef6b9136AFb6b9D405A88",
  "extraData": "0x476574682f76312e302e312d37666266393930632f6c696e75782f676f312e34",
  "transactions": [
    {
      "hash": "0xcd3cb88388ad55cc98d2fbeb0e2a5cea2d549a3250058a7f67cbd768492efbbd",
      "blockHash": "0x3ba41863389f3ecb8276e88b8af8f1db772a921a9255052a8f31cb3ea16a1fd5",
      "blockNumber": 78718,
      "transactionIndex": 0,
      "confirmations": null,
      "from": "0x40B9b889A21Ff1534d018D71Dc406122EBcf3F5A",
      "gasPrice": {
        "_hex": "0x11571b7c90d"
      },
      "gasLimit": {
        "_hex": "0x15f90"
      },
      "to": "0x8F68fbE2DCFf038C24F650C9e05Ee478038171cd",
      "value": {
        "_hex": "0x6c6b935b8bbd400000"
      },
      "nonce": 13,
      "data": "0x",
      "r": "0x5982f25f829797570f7e02f425e2ebae1fb046c159c1c52084bf136c687bafa2",
      "s": "0x67a557a4405b37d7e20ad56ede797ff58bdcaa0ef441bb295e82324788cac01d",
      "v": 28,
      "creates": null,
      "raw": "0xf86f0d86011571b7c90d83015f90948f68fbe2dcff038c24f650c9e05ee478038171cd896c6b935b8bbd400000801ca05982f25f829797570f7e02f425e2ebae1fb046c159c1c52084bf136c687bafa2a067a557a4405b37d7e20ad56ede797ff58bdcaa0ef441bb295e82324788cac01d",
      "networkId": 0,
      "chainId": 0
    }
  ]
}