{
  "hash": "0xce33e82d9e7550b2823a4c39854e2effb4760eab6ff49fa0d99d575f12a44da4",
  "parentHash": "0xa73c5149596af05bccec2a0d15255193c3546fc44c8e64ddf4a2410ed9f851b4",
  "number": 49942,
  "timestamp": 1438981665,
  "nonce": "0x10bc73ebf1a20f72",
  "difficulty": 1497298646035,
  "gasLimit": {
    "_hex": "0x4726f"
  },
  "gasUsed": {
    "_hex": "0xa674"
  },
  "miner": "0x9746c7e1ef2bd21FF3997fa467593a89cb852BD0",
  "extraData": "0x476574682f76312e302e312f77696e646f77732f676f312e342e32",
  "transactions": [
    {
      "hash": "0x028a20c42e73b8e56a28dd82b039dfe763b30f4bc410bb1a9dddb08e8c95433f",
      "blockHash": "0xce33e82d9e7550b2823a4c39854e2effb4760eab6ff49fa0d99d575f12a44da4",
      "blockNumber": 49942,
      "transactionIndex": 0,
      "confirmations": null,
      "from": "0x28E4Af30CD93f686a122ad7Bb19F8a8785EEE342",
      "gasPrice": {
        "_hex": "0x110c8f7d8de"
      },
      "gasLimit": {
        "_hex": "0xc350"
      },
      "to": "0x2910543Af39abA0Cd09dBb2D50200b3E800A63D2",
      "value": {
        "_hex": "0x7191f72836db5c0000"
      },
      "nonce": 0,
      "data": "0x454e315a5859464e52",
      "r": "0xd0c25136623510102b61508add2f2aa69fae58ac0e415e1f01530eac75a22de8",
      "s": "0xfd0bd684f41ac5995709f2028191e484ef010f90e21afaaffe68c562b52af360",
      "v": 27,
      "creates": null,
      "raw": "0xf87780860110c8f7d8de82c350942910543af39aba0cd09dbb2d50200b3e800a63d2897191f72836db5c000089454e315a5859464e521ba0d0c25136623510102b61508add2f2aa69fae58ac0e415e1f01530eac75a22de8a0fd0bd684f41ac5995709f2028191e484ef010f90e21afaaffe68c562b52af360",
      "networkId": 0,
      "chainId": 0
    },
    {
      "hash": "0x7bceed4fe131cba187d3d4354e265b49c6395f8e0f60e8d22d2599fd9782f010",
      "blockHash": "0xce33e82d9e7550b2823a4c39854e2effb4760eab6ff49fa0d99d575f12a44da4",
      "blockNumber": 49942,
      "transactionIndex": 1,
      "confirmations": null,
      "from": "0x33A3f479f6c3e7F91128348490D1f7E8D2A0FAb5",
      "gasPrice": {
        "_hex": "0xfaf010801"
      },
      "gasLimit": {
        "_hex": "0x5208"
      },
      "to": "0x32Be343B94f860124dC4fEe278FDCBD38C102D88",
      "value": {
        "_hex": "0x455e8af70697dc00"
      },
      "nonce": 4,
      "data": "0x",
      "r": "0xc5e6336761b5c42b37e6a53d9bc87a283191f10bc0c3b64da1be6cf4390d9319",
      "s": "0x43df574dd2ec4c1bd7b1d45faeea36f8a8dd99d161cb0558f0616f1eeb149dfb",
      "v": 27,
      "creates": null,
      "raw": "0xf86c04850faf0108018252089432be343b94f860124dc4fee278fdcbd38c102d8888455e8af70697dc00801ba0c5e6336761b5c42b37e6a53d9bc87a283191f10bc0c3b64da1be6cf4390d9319a043df574dd2ec4c1bd7b1d45faeea36f8a8dd99d161cb0558f0616f1eeb149dfb",
      "networkId": 0,
      "chainId": 0
    }
  ]
}