{
  "hash": "0xf009e5c5982a1c97838a4133599b102eaa44ef6a39e3cea1abd020711658331f",
  "parentHash": "0xdbe050a8ef010ab173317b2a11119b45a93287ee95fe083f2cd52978043ff087",
  "number": 90141,
  "timestamp": 1439635257,
  "nonce": "0x36f225af40541263",
  "difficulty": 3310868010823,
  "gasLimit": {
    "_hex": "0x2fefd8"
  },
  "gasUsed": {
    "_hex": "0x5208"
  },
  "miner": "0x88D74a59454F6cF3B51ef6b9136AFb6b9D405A88",
  "extraData": "0x476574682f76312e302e312d37666266393930632f6c696e75782f676f312e34",
  "transactions": [
    {
      "hash": "0x246010f945f8635b7a5281a148e9a5eaf047dfd70dd70bc760c6a1ae298c1ee0",
      "blockHash": "0xf009e5c5982a1c97838a4133599b102eaa44ef6a39e3cea1abd020711658331f",
      "blockNumber": 90141,
      "transactionIndex": 0,
      "confirmations": null,
      "from": "0x379965B927911bcF18D2d4F062Edf10c45847069",
      "gasPrice": {
        "_hex": "0xba43b7400"
      },
      "gasLimit": {
        "_hex": "0x5267"
      },
      "to": "0xE9820EfC74A9fe5fb68bf1e0FBf9945c1302bC0B",
      "value": {
        "_hex": "0x4563918244f40000"
      },
      "nonce": 2,
      "data": "0x",
      "r": "0x945046b7138ff51d330124965fdda35f22c59bbd26e181868bba292abfce3705",
      "s": "0x4b725a19873da4147bdef941af67a07b89ae21ceb9c869926db77ea9a15446a5",
      "v": 28,
      "creates": null,
      "raw": "0xf86c02850ba43b740082526794e9820efc74a9fe5fb68bf1e0fbf9945c1302bc0b884563918244f40000801ca0945046b7138ff51d330124965fdda35f22c59bbd26e181868bba292abfce3705a04b725a19873da4147bdef941af67a07b89ae21ceb9c869926db77ea9a15446a5",
      "networkId": 0,
      "chainId": 0
    }
  ]
}