{
  "hash": "0x64a07d4fc3a5b45a04af1b530b1901ff41d08b830613701d06cbcf6d33aa0556",
  "parentHash": "0x930e876c9f21c8fcb01640e7cfb3ba1ded9eaca25b26734d00beedfa21e42a1c",
  "number": 92289,
  "timestamp": 1439669779,
  "nonce": "0x740961367a06064f",
  "difficulty": 3485850808816,
  "gasLimit": {
    "_hex": "0x2fefd8"
  },
  "gasUsed": {
    "_hex": "0x7a120"
  },
  "miner": "0xe6A7a1d47ff21B6321162AEA7C6CB457D5476Bca",
  "extraData": "0x476574682f76312e302e312d38326566323666362f6c696e75782f676f312e34",
  "transactions": [
    {
      "hash": "0xb520e64427405784b8363d6f2535ae702fe7255e63523c19e060588e292a42eb",
      "blockHash": "0x64a07d4fc3a5b45a04af1b530b1901ff41d08b830613701d06cbcf6d33aa0556",
      "blockNumber": 92289,
      "transactionIndex": 0,
      "confirmations": null,
      "from": "0x4459e455175681CB925de98347A69DcC99A640DA",
      "gasPrice": {
        "_hex": "0xd1368d54d"
      },
      "gasLimit": {
        "_hex": "0x7a120"
      },
      "to": "0xA327075af2a223A1C83a36aDa1126afE7430f955",
      "value": {
        "_hex": "0x8ac7230489e80000"
      },
      "nonce": 2,
      "data": "0x",
      "r": "0x8652048b10422012567285778ae1a9a73ae78a537595f1e0ad1cccf2dbb38172",
      "s": "0x345c2a602278dfacdbd6c9ae3bd468aede08d0321240b6123c24f7e77b4b1c72",
      "v": 28,
      "creates": null,
      "raw": "0xf86d02850d1368d54d8307a12094a327075af2a223a1c83a36ada1126afe7430f955888ac7230489e80000801ca08652048b10422012567285778ae1a9a73ae78a537595f1e0ad1cccf2dbb38172a0345c2a602278dfacdbd6c9ae3bd468aede08d0321240b6123c24f7e77b4b1c72",
      "networkId": 0,
      "chainId": 0
    }
  ]
}