{
  "hash": "0x1182c81e866346411114aea2c0eb5401ac879cb3fd665d8f6c12380739587ac5",
  "parentHash": "0x2553d23a9c74a1c47adcbe56d4f80b88da17f464f0e06d8bea6f44462f575f8d",
  "number": 73280,
  "timestamp": 1439366459,
  "nonce": "0x0f96896bbcba1266",
  "difficulty": 2206716151148,
  "gasLimit": {
    "_hex": "0x2fefd8"
  },
  "gasUsed": {
    "_hex": "0x5208"
  },
  "miner": "0xe6A7a1d47ff21B6321162AEA7C6CB457D5476Bca",
  "extraData": "0x476574682f76312e302e312d38326566323666362f6c696e75782f676f312e34",
  "transactions": [
    {
      "hash": "0x524285823b0a9ca2b300372fc99ad35275f1a92f040fa7c02a9b7a5d47372fc6",
      "blockHash": "0x1182c81e866346411114aea2c0eb5401ac879cb3fd665d8f6c12380739587ac5",
      "blockNumber": 73280,
      "transactionIndex": 0,
      "confirmations": null,
      "from": "0xa70a9a7040d542C632D8e0bE7c5513A8a5Bbc752",
      "gasPrice": {
        "_hex": "0xdba833774"
      },
      "gasLimit": {
        "_hex": "0x5208"
      },
      "to": "0x32Be343B94f860124dC4fEe278FDCBD38C102D88",
      "value": {
        "_hex": "0x455f2b560d9b4000"
      },
      "nonce": 21,
      "data": "0x",
      "r": "0x985370f107f1e8da756d159c5b7e0ffc6644c86cde77a108a3761c0892e2b20a",
      "s": "0x14ac12512ed96d8e84c8643e21b48a47e92411d985be3cda0c1811c6e14ca655",
      "v": 28,
      "creates": null,
      "raw": "0xf86c15850dba8337748252089432be343b94f860124dc4fee278fdcbd38c102d8888455f2b560d9b4000801ca0985370f107f1e8da756d159c5b7e0ffc6644c86cde77a108a3761c0892e2b20aa014ac12512ed96d8e84c8643e21b48a47e92411d985be3cda0c1811c6e14ca655",
      "networkId": 0,
      "chainId": 0
    }
  ]
}