{
  "hash": "0x624f844aba47a92d354eff0d36e82a4a79534266bab2b606c9f514cd36e6955c",
  "parentHash": "0xa3798d2fb4733720e1f16f62f5dc123c67b20fa729da255e1da9c534c949890b",
  "number": 72459,
  "timestamp": 1439352929,
  "nonce": "0xf73059c7b7a06805",
  "difficulty": 2205854794253,
  "gasLimit": {
    "_hex": "0x2fefd8"
  },
  "gasUsed": {
    "_hex": "0x5208"
  },
  "miner": "0xe6A7a1d47ff21B6321162AEA7C6CB457D5476Bca",
  "extraData": "0x476574682f76312e302e312d38326566323666362f6c696e75782f676f312e34",
  "transactions": [
    {
      "hash": "0x4342ed8f0f474d53f9d9eaa7f6eeb77431b0b84fe9a17df4ad2b56598168ded7",
      "blockHash": "0x624f844aba47a92d354eff0d36e82a4a79534266bab2b606c9f514cd36e6955c",
      "blockNumber": 72459,
      "transactionIndex": 0,
      "confirmations": null,
      "from": "0x40B9b889A21Ff1534d018D71Dc406122EBcf3F5A",
      "gasPrice": {
        "_hex": "0x10375a999e8"
      },
      "gasLimit": {
        "_hex": "0x15f90"
      },
      "to": "0x50Da60D4Da4c04E154eA22AF84437e69Dd6dA401",
      "value": {
        "_hex": "0xde0b6b3a7640000"
      },
      "nonce": 0,
      "data": "0x",
      "r": "0xb5c259752f5136b9928e5d7a8b3933233b69fa90084f1d24d11a3108502d58cc",
      "s": "0x470c78a747bfb1714c60f11608b079b9daa3da1a335a8f30dc9b3a96f752eeb1",
      "v": 28,
      "creates": null,
      "raw": "0xf86e8086010375a999e883015f909450da60d4da4c04e154ea22af84437e69dd6da401880de0b6b3a7640000801ca0b5c259752f5136b9928e5d7a8b3933233b69fa90084f1d24d11a3108502d58cca0470c78a747bfb1714c60f11608b079b9daa3da1a335a8f30dc9b3a96f752eeb1",
      "networkId": 0,
      "chainId": 0
    }
  ]
}