{
  "hash": "0x14b9a9f7542baee58ef69a254a337db740d104cbfb9a23192f2267a7c244fde8",
  "parentHash": "0xf8d4e4fc62a6f49c15f4a7136c0232a2dde54e6f8ed6ef0f8aabd61ea3d46cb7",
  "number": 55894,
  "timestamp": 1439078863,
  "nonce": "0x3ff0c6266d46670f",
  "difficulty": 1606795971351,
  "gasLimit": {
    "_hex": "0x2fefd8"
  },
  "gasUsed": {
    "_hex": "0x38658"
  },
  "miner": "0xf927a40C8B7F6E07c5af7FA2155B4864a4112B13",
  "extraData": "0x476574682f76312e302e312f6c696e75782f676f312e342e32",
  "transactions": [
    {
      "hash": "0xd2e966024abf08b80c377cdba8039c8598049fdb742da83c27f0bd94f33a7ed8",
      "blockHash": "0x14b9a9f7542baee58ef69a254a337db740d104cbfb9a23192f2267a7c244fde8",
      "blockNumber": 55894,
      "transactionIndex": 0,
      "confirmations": null,
      "from": "0xe6A7a1d47ff21B6321162AEA7C6CB457D5476Bca",
      "gasPrice": {
        "_hex": "0xcd3f959db"
      },
      "gasLimit": {
        "_hex": "0x55f0"
      },
      "to": "0x02020D22dCF88f5eDd66B382D7da019F161fB7e3",
      "value": {
        "_hex": "0xa9c198bdb8423770"
      },
      "nonce": 448,
      "data": "0x",
      "r": "0x80dd8ba89ab1011b866e3e3d26ed143066d69dd0dbd0277869ea690b8b676774",
      "s": "0x5d3beaf5943548616cb759ce29e741ffcef4d5842c4be9a432b65d1ca544e952",
      "v": 28,
      "creates": null,
      "raw": "0xf86e8201c0850cd3f959db8255f09402020d22dcf88f5edd66b382d7da019f161fb7e388a9c198bdb8423770801ca080dd8ba89ab1011b866e3e3d26ed143066d69dd0dbd0277869ea690b8b676774a05d3beaf5943548616cb759ce29e741ffcef4d5842c4be9a432b65d1ca544e952",
      "networkId": 0,
      "chainId": 0
    },
    {
      "hash": "0x50a93720e9bbc85007a7df6446c1a9bf95c764b02ac28bce4c39d024db520487",
      "blockHash": "0x14b9a9f7542baee58ef69a254a337db740d104cbfb9a23192f2267a7c244fde8",
      "blockNumber": 55894,
      "transactionIndex": 1,
      "confirmations": null,
      "from": "0xe6A7a1d47ff21B6321162AEA7C6CB457D5476Bca",
      "gasPrice": {
        "_hex": "0xcd3f959db"
      },
      "gasLimit": {
        "_hex": "0x55f0"
      },
      "to": "0xF0224ea727d4924A8dd69a8d2d473Cc4c3590423",
      "value": {
        "_hex": "0xaa05c441a70a70a0"
      },
      "nonce": 449,
      "data": "0x",
      "r": "0xb2555fe32b8716e5a741f9fd70690ebe6c949a42d5fa1a72c11ae5251ef235bb",
      "s": "0x2387ac38f2bfa1e8d3a556657600bf08069d45e281c631915bf5438feb898aaf",
      "v": 28,
      "creates": null,
      "raw": "0xf86e8201c1850cd3f959db8255f094f0224ea727d4924a8dd69a8d2d473cc4c359042388aa05c441a70a70a0801ca0b2555fe32b8716e5a741f9fd70690ebe6c949a42d5fa1a72c11ae5251ef235bba02387ac38f2bfa1e8d3a556657600bf08069d45e281c631915bf5438feb898aaf",
      "networkId": 0,
      "chainId": 0
    },
    {
      "hash": "0x9aa61411b10794a6105d5d30205020ba543be545ef85f4fe199f4507e2d375db",
      "blockHash": "0x14b9a9f7542baee58ef69a254a337db740d104cbfb9a23192f2267a7c244fde8",
      "blockNumber": 55894,
      "transactionIndex": 2,
      "confirmations": null,
      "from": "0xe6A7a1d47ff21B6321162AEA7C6CB457D5476Bca",
      "gasPrice": {
        "_hex": "0xcd3f959db"
      },
      "gasLimit": {
        "_hex": "0x55f0"
      },
      "to": "0xad7210d76107F888745616FFF7979623b84F928c",
      "value": {
        "_hex": "0xabf81e6c38ff0ca0"
      },
      "nonce": 450,
      "data": "0x",
      "r": "0xff95eef65f13d8b42be98f9fb6426ba1198f324d19b4efdfaec628d3914f9f21",
      "s": "0x6430ddf2ff28c98e11920284994183d3e37ffb3b87ab96580321aeb636fe34c6",
      "v": 28,
      "creates": null,
      "raw": "0xf86e8201c2850cd3f959db8255f094ad7210d76107f888745616fff7979623b84f928c88abf81e6c38ff0ca0801ca0ff95eef65f13d8b42be98f9fb6426ba1198f324d19b4efdfaec628d3914f9f21a06430ddf2ff28c98e11920284994183d3e37ffb3b87ab96580321aeb636fe34c6",
      "networkId": 0,
      "chainId": 0
    },
    {
      "hash": "0x86a8d3091e33d44adcba5052dc2a48112f0b45d912d2ed93d0f0253525b31013",
      "blockHash": "0x14b9a9f7542baee58ef69a254a337db740d104cbfb9a23192f2267a7c244fde8",
      "blockNumber": 55894,
      "transactionIndex": 3,
      "confirmations": null,
      "from": "0xe6A7a1d47ff21B6321162AEA7C6CB457D5476Bca",
      "gasPrice": {
        "_hex": "0xcd3f959db"
      },
      "gasLimit": {
        "_hex": "0x55f0"
      },
      "to": "0x3737216EE91f177732Fb58fA4097267207E2cF55",
      "value": {
        "_hex": "0xac71c27325a9b680"
      },
      "nonce": 451,
      "data": "0x",
      "r": "0x9f065c2c92c548a8fa148d68214fc62975a7e9bd108849340688eafd0db3a7f0",
      "s": "0x6593cb5102815cf26bbf0ce3cc8e79d28b8baacc4015a4f3b3fd5f50423b88f5",
      "v": 27,
      "creates": null,
      "raw": "0xf86e8201c3850cd3f959db8255f0943737216ee91f177732fb58fa4097267207e2cf5588ac71c27325a9b680801ba09f065c2c92c548a8fa148d68214fc62975a7e9bd108849340688eafd0db3a7f0a06593cb5102815cf26bbf0ce3cc8e79d28b8baacc4015a4f3b3fd5f50423b88f5",
      "networkId": 0,
      "chainId": 0
    },
    {
      "hash": "0x23e29f371bb678185d1730b52d1d284018e9574e7f374dd10ddbb24f8e38618c",
      "blockHash": "0x14b9a9f7542baee58ef69a254a337db740d104cbfb9a23192f2267a7c244fde8",
      "blockNumber": 55894,
      "transactionIndex": 4,
      "confirmations": null,
      "from": "0xe6A7a1d47ff21B6321162AEA7C6CB457D5476Bca",
      "gasPrice": {
        "_hex": "0xcd3f959db"
      },
      "gasLimit": {
        "_hex": "0x55f0"
      },
      "to": "0x7C09fc7bF606786C2fFD57FFe7c84A0FFe275A36",
      "value": {
        "_hex": "0xb4bae8bb0b108190"
      },
      "nonce": 452,
      "data": "0x",
      "r": "0x6cd92795af86591796bb87579f418db8a720c9927dd2ab87fd63d43e34ba791f",
      "s": "0x7f5b21dcd5ae3e21813342e4661c2ef7b963a6b8c5dc1999c1d06a99e2405183",
      "v": 28,
      "creates": null,
      "raw": "0xf86e8201c4850cd3f959db8255f0947c09fc7bf606786c2ffd57ffe7c84a0ffe275a3688b4bae8bb0b108190801ca06cd92795af86591796bb87579f418db8a720c9927dd2ab87fd63d43e34ba791fa07f5b21dcd5ae3e21813342e4661c2ef7b963a6b8c5dc1999c1d06a99e2405183",
      "networkId": 0,
      "chainId": 0
    },
    {
      "hash": "0x00bcefec5382e6c0bf947dac452c3f4238a463d3429de1bec4fa4c83ca4c21fe",
      "blockHash": "0x14b9a9f7542baee58ef69a254a337db740d104cbfb9a23192f2267a7c244fde8",
      "blockNumber": 55894,
      "transactionIndex": 5,
      "confirmations": null,
      "from": "0xe6A7a1d47ff21B6321162AEA7C6CB457D5476Bca",
      "gasPrice": {
        "_hex": "0xcd3f959db"
      },
      "gasLimit": {
        "_hex": "0x55f0"
      },
      "to": "0x86d3856ad0105B9d4199936c1fd203664BA325dC",
      "value": {
        "_hex": "0xb5a556decb11e250"
      },
      "nonce": 453,
      "data": "0x",
      "r": "0xb5ecfba5ad998007e44be622c444cd16dabfd2002f62e869a87c2e9b49240b67",
      "s": "0x5f0d3bf0497d3547ad1eba19d3a7e6bb33c3dc5fd2c99bdf4a77e0e2ca381c7d",
      "v": 28,
      "creates": null,
      "raw": "0xf86e8201c5850cd3f959db8255f09486d3856ad0105b9d4199936c1fd203664ba325dc88b5a556decb11e250801ca0b5ecfba5ad998007e44be622c444cd16dabfd2002f62e869a87c2e9b49240b67a05f0d3bf0497d3547ad1eba19d3a7e6bb33c3dc5fd2c99bdf4a77e0e2ca381c7d",
      "networkId": 0,
      "chainId": 0
    },
    {
      "hash": "0xa3a252d57b1f9538595e6bfe00a1d0553e43b920193d94b9cdc57746b82a20a8",
      "blockHash": "0x14b9a9f7542baee58ef69a254a337db740d104cbfb9a23192f2267a7c244fde8",
      "blockNumber": 55894,
      "transactionIndex": 6,
      "confirmations": null,
      "from": "0xe6A7a1d47ff21B6321162AEA7C6CB457D5476Bca",
      "gasPrice": {
        "_hex": "0xcd3f959db"
      },
      "gasLimit": {
        "_hex": "0x55f0"
      },
      "to": "0x59389A554d044d4b3BED659834A248C59957f168",
      "value": {
        "_hex": "0xb62179d852f22610"
      },
      "nonce": 454,
      "data": "0x",
      "r": "0x098148ec880fbe11142fe488d88df1876750d247b9c3bfb52bace3451e098073",
      "s": "0x6d336e916524d15ecc716f196d2144539b99d01c88637196c3d16ed1ff17ba01",
      "v": 27,
      "creates": null,
      "raw": "0xf86e8201c6850cd3f959db8255f09459389a554d044d4b3bed659834a248c59957f16888b62179d852f22610801ba0098148ec880fbe11142fe488d88df1876750d247b9c3bfb52bace3451e098073a06d336e916524d15ecc716f196d2144539b99d01c88637196c3d16ed1ff17ba01",
      "networkId": 0,
      "chainId": 0
    },
    {
      "hash": "0xe08fe7dd8e35ef5d04a48d933a58cc412e52c62bec3b32afb54d9c2aea1217b0",
      "blockHash": "0x14b9a9f7542baee58ef69a254a337db740d104cbfb9a23192f2267a7c244fde8",
      "blockNumber": 55894,
      "transactionIndex": 7,
      "confirmations": null,
      "from": "0xe6A7a1d47ff21B6321162AEA7C6CB457D5476Bca",
      "gasPrice": {
        "_hex": "0xcd3f959db"
      },
      "gasLimit": {
        "_hex": "0x55f0"
      },
      "to": "0x323cD41e4d4e74eB94CA49EdcCAab03f798a930a",
      "value": {
        "_hex": "0xb6218d246cf06180"
      },
      "nonce": 455,
      "data": "0x",
      "r": "0x10c770eafbf09bcb45100c328b542983d3161aa50deba3ce3ae17abf7ac2ce02",
      "s": "0x46cb5a8edf6431e0f45af64607e07be6b35f1bfe6ebf05626f64b884297dccb0",
      "v": 28,
      "creates": null,
      "raw": "0xf86e8201c7850cd3f959db8255f094323cd41e4d4e74eb94ca49edccaab03f798a930a88b6218d246cf06180801ca010c770eafbf09bcb45100c328b542983d3161aa50deba3ce3ae17abf7ac2ce02a046cb5a8edf6431e0f45af64607e07be6b35f1bfe6ebf05626f64b884297dccb0",
      "networkId": 0,
      "chainId": 0
    },
    {
      "hash": "0xd4ad8e1d57d0b23db3bb5469246717338d81502841b58f6c0550fae2bd174047",
      "blockHash": "0x14b9a9f7542baee58ef69a254a337db740d104cbfb9a23192f2267a7c244fde8",
      "blockNumber": 55894,
      "transactionIndex": 8,
      "confirmations": null,
      "from": "0xe6A7a1d47ff21B6321162AEA7C6CB457D5476Bca",
      "gasPrice": {
        "_hex": "0xcd3f959db"
      },
      "gasLimit": {
        "_hex": "0x55f0"
      },
      "to": "0xA9bb0843E0Da908bd03b9eE0d6f95242129aaa50",
      "value": {
        "_hex": "0xbb5f51028644da00"
      },
      "nonce": 456,
      "data": "0x",
      "r": "0xc0e645c6e2496c7063f6a532fc30d8bca7bcfe2073934fadacbd36a90f3ed2d1",
      "s": "0x5fa6e7b5b6a311eebd920d45b56bf96cb0b7e2364207f74457f89b7c16a6fe2f",
      "v": 28,
      "creates": null,
      "raw": "0xf86e8201c8850cd3f959db8255f094a9bb0843e0da908bd03b9ee0d6f95242129aaa5088bb5f51028644da00801ca0c0e645c6e2496c7063f6a532fc30d8bca7bcfe2073934fadacbd36a90f3ed2d1a05fa6e7b5b6a311eebd920d45b56bf96cb0b7e2364207f74457f89b7c16a6fe2f",
      "networkId": 0,
      "chainId": 0
    },
    {
      "hash": "0x0677a87abcf53bb44a4f25a3e2ab7e8e28d5fca404fbe7392e6d0c9569d2880a",
      "blockHash": "0x14b9a9f7542baee58ef69a254a337db740d104cbfb9a23192f2267a7c244fde8",
      "blockNumber": 55894,
      "transactionIndex": 9,
      "confirmations": null,
      "from": "0xe6A7a1d47ff21B6321162AEA7C6CB457D5476Bca",
      "gasPrice": {
        "_hex": "0xcd3f959db"
      },
      "gasLimit": {
        "_hex": "0x55f0"
      },
      "to": "0x90891a4dAE53428129E5E2044f4677213EcCBB59",
      "value": {
        "_hex": "0xbe3614f9046d27f0"
      },
      "nonce": 457,
      "data": "0x",
      "r": "0xc4f33876664cc91cd70ab644ca0d4eed69d4325012f3a6b41a59ac92c5b9770d",
      "s": "0x3421c4fd96a1064b89a4e25c4af4dc7a79ad9ce0637ee86eb3b8c357c121e6bd",
      "v": 27,
      "creates": null,
      "raw": "0xf86e8201c9850cd3f959db8255f09490891a4dae53428129e5e2044f4677213eccbb5988be3614f9046d27f0801ba0c4f33876664cc91cd70ab644ca0d4eed69d4325012f3a6b41a59ac92c5b9770da03421c4fd96a1064b89a4e25c4af4dc7a79ad9ce0637ee86eb3b8c357c121e6bd",
      "networkId": 0,
      "chainId": 0
    },
    {
      "hash": "0x79478eebdcde74fd88ecaa512e4f19310558b9960ab7e4bdf40da9f0ddef6bb9",
      "blockHash": "0x14b9a9f7542baee58ef69a254a337db740d104cbfb9a23192f2267a7c244fde8",
      "blockNumber": 55894,
      "transactionIndex": 10,
      "confirmations": null,
      "from": "0xe6A7a1d47ff21B6321162AEA7C6CB457D5476Bca",
      "gasPrice": {
        "_hex": "0xcd3f959db"
      },
      "gasLimit": {
        "_hex": "0x55f0"
      },
      "to": "0x3175a28CF6105466923f11bFFabD279F162aa2f8",
      "value": {
        "_hex": "0xc235276dc5ef1940"
      },
      "nonce": 458,
      "data": "0x",
      "r": "0x138f26ab45007ca643370dd7756560c884072cd5b82318d3b9a3c54f616e4594",
      "s": "0x0c12acc80a39b5fd5911d0322fba4e591b8f76137f83d385db9bbbaf78cba7db",
      "v": 27,
      "creates": null,
      "raw": "0xf86e8201ca850cd3f959db8255f0943175a28cf6105466923f11bffabd279f162aa2f888c235276dc5ef1940801ba0138f26ab45007ca643370dd7756560c884072cd5b82318d3b9a3c54f616e4594a00c12acc80a39b5fd5911d0322fba4e591b8f76137f83d385db9bbbaf78cba7db",
      "networkId": 0,
      "chainId": 0
    }
  ]
}