{
  "hash": "0x705cc6f92cf893d908da2e6829eca77f18aab9ab1630674df999ffc79c46befc",
  "parentHash": "0x291b0c5e6687c7277ed65182d5c451abf9cb3df4b8850f15040e10b2ad898ce0",
  "number": 82200,
  "timestamp": 1439515158,
  "nonce": "0xe3418b7c3ade9d73",
  "difficulty": 2390486383333,
  "gasLimit": {
    "_hex": "0x2fefd8"
  },
  "gasUsed": {
    "_hex": "0x5208"
  },
  "miner": "0x98f7A0eDF3E25675482cA52480B7e07cA828a4b9",
  "extraData": "0x476574682f76312e302e312f6c696e75782f676f312e342e32",
  "transactions": [
    {
      "hash": "0x2ae656dedc834be420a677403ad5d2ea7d0463f29b91751c9bd48bdf954eeb54",
      "blockHash": "0x705cc6f92cf893d908da2e6829eca77f18aab9ab1630674df999ffc79c46befc",
      "blockNumber": 82200,
      "transactionIndex": 0,
      "confirmations": null,
      "from": "0x28cF1915522F9744EF20294FAeBe6575e2fd5F38",
      "gasPrice": {
        "_hex": "0xd8445c289"
      },
      "gasLimit": {
        "_hex": "0x15f90"
      },
      "to": "0x00679d9E4E302166faE312b52266638Ee8ec9EC2",
      "value": {
        "_hex": "0x2386f26fc10000"
      },
      "nonce": 0,
      "data": "0x",
      "r": "0x346948c11c418be70727371f5312c856f25c57fb3cbf71de8158a8f36bb48fb4",
      "s": "0x1ac5423d0f42323eda61b15af1c5b5f2269777d134bc5aa8a86ee717525276e8",
      "v": 27,
      "creates": null,
      "raw": "0xf86c80850d8445c28983015f909400679d9e4e302166fae312b52266638ee8ec9ec2872386f26fc10000801ba0346948c11c418be70727371f5312c856f25c57fb3cbf71de8158a8f36bb48fb4a01ac5423d0f42323eda61b15af1c5b5f2269777d134bc5aa8a86ee717525276e8",
      "networkId": 0,
      "chainId": 0
    }
  ]
}