{
  "hash": "0x78fda36c893b118e8dd856a12a3c64e2727c2e023e3c5abd60b1174c1df264a0",
  "parentHash": "0xdb481a34fdba9a4067b583dea6f6aee81eadab098753ae536938de1fcaab6c7b",
  "number": 81419,
  "timestamp": 1439501330,
  "nonce": "0xe91109193122b91e",
  "difficulty": 2450990677761,
  "gasLimit": {
    "_hex": "0x2fefd8"
  },
  "gasUsed": {
    "_hex": "0x308b3"
  },
  "miner": "0xe6A7a1d47ff21B6321162AEA7C6CB457D5476Bca",
  "extraData": "0x476574682f76312e302e312d38326566323666362f6c696e75782f676f312e34",
  "transactions": [
    {
      "hash": "0x453f4e8dfae290081364a22aa76ce8146acc48ac57c588cc11dfe3c8cc3fb104",
      "blockHash": "0x78fda36c893b118e8dd856a12a3c64e2727c2e023e3c5abd60b1174c1df264a0",
      "blockNumber": 81419,
      "transactionIndex": 0,
      "confirmations": null,
      "from": "0x062b7D49861d2A000578D647BCE532Eb1dCF5EFe",
      "gasPrice": {
        "_hex": "0xd09237388"
      },
      "gasLimit": {
        "_hex": "0x2dc6c0"
      },
      "to": "0x93D38e72C5281e78f6B364eACaC6fa907EcBa164",
      "value": {
        "_hex": "0x3e8"
      },
      "nonce": 3,
      "data": "0x690167fc00000000000000000000000000000000000000000000000000000000000000006b3132363134343031313931303831383432343731000000000000000000000000000000000000000000000000000000000000000000000000000000000003e8000000000000000000000000062b7d49861d2a000578d647bce532eb1dcf5efe0000000000000000000000000000000000000000000000000000000000000064",
      "r": "0x717d0863b0b05070bed0806446637f1c755ebf2c94e9ac6146cc8ef7bfdaaf9e",
      "s": "0x5f631488c49b29d12e4514a71a554e2becae470b6fefcc913c8786a8bc4ceede",
      "v": 27,
      "creates": null,
      "raw": "0xf9010c03850d09237388832dc6c09493d38e72c5281e78f6b364eacac6fa907ecba1648203e8b8a4690167fc00000000000000000000000000000000000000000000000000000000000000006b3132363134343031313931303831383432343731000000000000000000000000000000000000000000000000000000000000000000000000000000000003e8000000000000000000000000062b7d49861d2a000578d647bce532eb1dcf5efe00000000000000000000000000000000000000000000000000000000000000641ba0717d0863b0b05070bed0806446637f1c755ebf2c94e9ac6146cc8ef7bfdaaf9ea05f631488c49b29d12e4514a71a554e2becae470b6fefcc913c8786a8bc4ceede",
      "networkId": 0,
      "chainId": 0
    }
  ]
}