{
  "hash": "0x5d9dee1093d68349febb3ec9dfd9e658a86d812d44c6fcc6cae8f63720cc3fab",
  "parentHash": "0xac63d3d3b5ef436cfe67e8148c7a7181590dfdb50f5c593ffd16f420b2ae997a",
  "number": 68520,
  "timestamp": 1439289373,
  "nonce": "0x540d738cbc54c07c",
  "difficulty": 2002540620383,
  "gasLimit": {
    "_hex": "0x2fefd8"
  },
  "gasUsed": {
    "_hex": "0x12988c"
  },
  "miner": "0xeB1325C8D9d3ea8D74aC11F4B00F1B2367686319",
  "extraData": "0x476574682f76312e302e312f77696e646f77732f676f312e342e32",
  "transactions": [
    {
      "hash": "0xb950bbfb6a6511de69668191660ad8b64a53bbc30e5cdaacdfc02e7615a659eb",
      "blockHash": "0x5d9dee1093d68349febb3ec9dfd9e658a86d812d44c6fcc6cae8f63720cc3fab",
      "blockNumber": 68520,
      "transactionIndex": 0,
      "confirmations": null,
      "from": "0x7427A70c01E8A7B752acD97229b4d86E4403371d",
      "gasPrice": {
        "_hex": "0xba43b7400"
      },
      "gasLimit": {
        "_hex": "0x15f90"
      },
      "to": "0x793AE8C1b1a160BFc07BFB0d04F85eab1A71F4f2",
      "value": {
        "_hex": "0x0"
      },
      "nonce": 0,
      "data": "0x3ba15036",
      "r": "0x44d7902560c6fd10977bd21d87033c8a144493d05110e229db71807daac92759",
      "s": "0x46e3c5b2e4607ddadc7e257976365d573c2acf4521d5f87c7291a40464007521",
      "v": 28,
      "creates": null,
      "raw": "0xf86980850ba43b740083015f9094793ae8c1b1a160bfc07bfb0d04f85eab1a71f4f280843ba150361ca044d7902560c6fd10977bd21d87033c8a144493d05110e229db71807daac92759a046e3c5b2e4607ddadc7e257976365d573c2acf4521d5f87c7291a40464007521",
      "networkId": 0,
      "chainId": 0
    },
    {
      "hash": "0xb93b7905d6aed29b5a998fc91ae8868be030f0d120aef8fbf73fc3b3cf862291",
      "blockHash": "0x5d9dee1093d68349febb3ec9dfd9e658a86d812d44c6fcc6cae8f63720cc3fab",
      "blockNumber": 68520,
      "transactionIndex": 1,
      "confirmations": null,
      "from": "0xb7E4D58bbA3ffD083F569F1E4ed7C3faD1F5F465",
      "gasPrice": {
        "_hex": "0xba43b7400"
      },
      "gasLimit": {
        "_hex": "0x15f90"
      },
      "to": "0x793AE8C1b1a160BFc07BFB0d04F85eab1A71F4f2",
      "value": {
        "_hex": "0x0"
      },
      "nonce": 0,
      "data": "0x3ba15036",
      "r": "0xb406a214922466a9216c63241105b375d672e7763ffdc57a09351409c3eee106",
      "s": "0x34dd22b14251b88ac699ef1fa37def6e68bd40700358438e5a857a13ac22a5a9",
      "v": 27,
      "creates": null,
      "raw": "0xf86980850ba43b740083015f9094793ae8c1b1a160bfc07bfb0d04f85eab1a71f4f280843ba150361ba0b406a214922466a9216c63241105b375d672e7763ffdc57a09351409c3eee106a034dd22b14251b88ac699ef1fa37def6e68bd40700358438e5a857a13ac22a5a9",
      "networkId": 0,
      "chainId": 0
    },
    {
      "hash": "0x9f5e423346bcd4f38c5210e5b53e6865cba39d5ba0bfdc26a0a87cb9e7e1c20d",
      "blockHash": "0x5d9dee1093d68349febb3ec9dfd9e658a86d812d44c6fcc6cae8f63720cc3fab",
      "blockNumber": 68520,
      "transactionIndex": 2,
      "confirmations": null,
      "from": "0xF279ee7C96D3e2AF8296f100f2Ef24DF8331a87c",
      "gasPrice": {
        "_hex": "0xba43b7400"
      },
      "gasLimit": {
        "_hex": "0x15f90"
      },
      "to": "0x793AE8C1b1a160BFc07BFB0d04F85eab1A71F4f2",
      "value": {
        "_hex": "0x0"
      },
      "nonce": 0,
      "data": "0x3ba15036",
      "r": "0x938404bf0a27a93fc5ccbe9484907b04a7affc552618c91a9cdc9787e79e523b",
      "s": "0x18806c96d1359197290d772eaf3ad2cdbc22e0eb2e7dd1b52aa0d8665b4531b2",
      "v": 27,
      "creates": null,
      "raw": "0xf86980850ba43b740083015f9094793ae8c1b1a160bfc07bfb0d04f85eab1a71f4f280843ba150361ba0938404bf0a27a93fc5ccbe9484907b04a7affc552618c91a9cdc9787e79e523ba018806c96d1359197290d772eaf3ad2cdbc22e0eb2e7dd1b52aa0d8665b4531b2",
      "networkId": 0,
      "chainId": 0
    },
    {
      "hash": "0xb59897f472daf265eac47f050d5f347b8d394a6c4489319244ff409c89724983",
      "blockHash": "0x5d9dee1093d68349febb3ec9dfd9e658a86d812d44c6fcc6cae8f63720cc3fab",
      "blockNumber": 68520,
      "transactionIndex": 3,
      "confirmations": null,
      "from": "0xB550C8090fC49524b37de6f1C4E99D92c299A57C",
      "gasPrice": {
        "_hex": "0xba43b7400"
      },
      "gasLimit": {
        "_hex": "0x15f90"
      },
      "to": "0x793AE8C1b1a160BFc07BFB0d04F85eab1A71F4f2",
      "value": {
        "_hex": "0x0"
      },
      "nonce": 0,
      "data": "0x3ba15036",
      "r": "0x05f48b92a8bd2c75821c7eb943576168ce6d0dde7e9f5808eb47070a74c2eb0d",
      "s": "0x784d8d23549354afa933f3e409112d42df039e32a4d7017aa3e4ad1d2b7a411d",
      "v": 28,
      "creates": null,
      "raw": "0xf86980850ba43b740083015f9094793ae8c1b1a160bfc07bfb0d04f85eab1a71f4f280843ba150361ca005f48b92a8bd2c75821c7eb943576168ce6d0dde7e9f5808eb47070a74c2eb0da0784d8d23549354afa933f3e409112d42df039e32a4d7017aa3e4ad1d2b7a411d",
      "networkId": 0,
      "chainId": 0
    },
    {
      "hash": "0xbfe89259b2ea9c7de323e87f43928a617ae440c1982817256005016afc4cfe15",
      "blockHash": "0x5d9dee1093d68349febb3ec9dfd9e658a86d812d44c6fcc6cae8f63720cc3fab",
      "blockNumber": 68520,
      "transactionIndex": 4,
      "confirmations": null,
      "from": "0xCe18dB6c6daFA17eEC92EdE938410C737a0f9be6",
      "gasPrice": {
        "_hex": "0xba43b7400"
      },
      "gasLimit": {
        "_hex": "0x15f90"
      },
      "to": "0x793AE8C1b1a160BFc07BFB0d04F85eab1A71F4f2",
      "value": {
        "_hex": "0x0"
      },
      "nonce": 0,
      "data": "0x3ba15036",
      "r": "0x7ad4a6c312ce30538ddb2e87e636e120dbaab8be6e57c135c0e424764f333ad4",
      "s": "0x4eb887bec55e58bb3e4ba242c18d759fbac100efcaeab75ec2c99425e4bbf4a9",
      "v": 28,
      "creates": null,
      "raw": "0xf86980850ba43b740083015f9094793ae8c1b1a160bfc07bfb0d04f85eab1a71f4f280843ba150361ca07ad4a6c312ce30538ddb2e87e636e120dbaab8be6e57c135c0e424764f333ad4a04eb887bec55e58bb3e4ba242c18d759fbac100efcaeab75ec2c99425e4bbf4a9",
      "networkId": 0,
      "chainId": 0
    },
    {
      "hash": "0xa23cb1c064b6648b25b095a3a0158ba85fc28a798126e4b53f1632739bfb10da",
      "blockHash": "0x5d9dee1093d68349febb3ec9dfd9e658a86d812d44c6fcc6cae8f63720cc3fab",
      "blockNumber": 68520,
      "transactionIndex": 5,
      "confirmations": null,
      "from": "0x94f7f374AEa3371ccE2Dcfb0c50525Eedd90AdF0",
      "gasPrice": {
        "_hex": "0xba43b7400"
      },
      "gasLimit": {
        "_hex": "0x15f90"
      },
      "to": "0x793AE8C1b1a160BFc07BFB0d04F85eab1A71F4f2",
      "value": {
        "_hex": "0x0"
      },
      "nonce": 0,
      "data": "0x3ba15036",
      "r": "0x227ffca1f21eb5c7ea72ef905310f7ea2a97789c3e0f1ddcbbf2181b377e7d19",
      "s": "0x17a96382f17a2bbdae2a18a95c7cf8808499adf735af329c740702b71484f151",
      "v": 27,
      "creates": null,
      "raw": "0xf86980850ba43b740083015f9094793ae8c1b1a160bfc07bfb0d04f85eab1a71f4f280843ba150361ba0227ffca1f21eb5c7ea72ef905310f7ea2a97789c3e0f1ddcbbf2181b377e7d19a017a96382f17a2bbdae2a18a95c7cf8808499adf735af329c740702b71484f151",
      "networkId": 0,
      "chainId": 0
    },
    {
      "hash": "0x8df2339635e4ad6e3ba75851d866a8fca9426398654d18ba222c8ae40d65405a",
      "blockHash": "0x5d9dee1093d68349febb3ec9dfd9e658a86d812d44c6fcc6cae8f63720cc3fab",
      "blockNumber": 68520,
      "transactionIndex": 6,
      "confirmations": null,
      "from": "0x05a293c73042d3dDC4aD884266a84f60cD364924",
      "gasPrice": {
        "_hex": "0xba43b7400"
      },
      "gasLimit": {
        "_hex": "0x15f90"
      },
      "to": "0x793AE8C1b1a160BFc07BFB0d04F85eab1A71F4f2",
      "value": {
        "_hex": "0x0"
      },
      "nonce": 0,
      "data": "0x3ba15036",
      "r": "0x06131a56c8681e4f576f2e4be07fc8d7d8bb72eebcb472cd699faae161c9737d",
      "s": "0x42ae215c50d4ec5ca826d8e25ee35ab1c1a4a4f24589192f9eb85db19bef1a9c",
      "v": 27,
      "creates": null,
      "raw": "0xf86980850ba43b740083015f9094793ae8c1b1a160bfc07bfb0d04f85eab1a71f4f280843ba150361ba006131a56c8681e4f576f2e4be07fc8d7d8bb72eebcb472cd699faae161c9737da042ae215c50d4ec5ca826d8e25ee35ab1c1a4a4f24589192f9eb85db19bef1a9c",
      "networkId": 0,
      "chainId": 0
    },
    {
      "hash": "0x0479253e83bdf690bb03ad12eed8c53f47a9dae9036186f89e125929dc08395d",
      "blockHash": "0x5d9dee1093d68349febb3ec9dfd9e658a86d812d44c6fcc6cae8f63720cc3fab",
      "blockNumber": 68520,
      "transactionIndex": 7,
      "confirmations": null,
      "from": "0x9222931397344F0f098d7cF874A29c9C92e38d1A",
      "gasPrice": {
        "_hex": "0xba43b7400"
      },
      "gasLimit": {
        "_hex": "0x15f90"
      },
      "to": "0x793AE8C1b1a160BFc07BFB0d04F85eab1A71F4f2",
      "value": {
        "_hex": "0x0"
      },
      "nonce": 0,
      "data": "0x3ba15036",
      "r": "0x0e0dde242c5596b82bba264b3ab42e39315ce12f1da7b7c9362020a3563c4fff",
      "s": "0x396a76ca9a1aec318e5e521f8bffabd0d7ba0fab0d71482a916de52d948b9f25",
      "v": 27,
      "creates": null,
      "raw": "0xf86980850ba43b740083015f9094793ae8c1b1a160bfc07bfb0d04f85eab1a71f4f280843ba150361ba00e0dde242c5596b82bba264b3ab42e39315ce12f1da7b7c9362020a3563c4fffa0396a76ca9a1aec318e5e521f8bffabd0d7ba0fab0d71482a916de52d948b9f25",
      "networkId": 0,
      "chainId": 0
    },
    {
      "hash": "0xc00b5e66620325914c9fa0e087b45150cd4327528959a939e191733793443d17",
      "blockHash": "0x5d9dee1093d68349febb3ec9dfd9e658a86d812d44c6fcc6cae8f63720cc3fab",
      "blockNumber": 68520,
      "transactionIndex": 8,
      "confirmations": null,
      "from": "0x1b7aF00a4f83C711f3acFfbED0BE0Df003B3E298",
      "gasPrice": {
        "_hex": "0xba43b7400"
      },
      "gasLimit": {
        "_hex": "0x15f90"
      },
      "to": "0x793AE8C1b1a160BFc07BFB0d04F85eab1A71F4f2",
      "value": {
        "_hex": "0x0"
      },
      "nonce": 0,
      "data": "0x3ba15036",
      "r": "0x729dc12dc15a33d9c090a5cad522ddac25f758bdce5bd425f815768434b60cf7",
      "s": "0x69e0f21c45c67495cf0ccc2d5f53328ef20be718ad50b52fb8fe90114f56a496",
      "v": 28,
      "creates": null,
      "raw": "0xf86980850ba43b740083015f9094793ae8c1b1a160bfc07bfb0d04f85eab1a71f4f280843ba150361ca0729dc12dc15a33d9c090a5cad522ddac25f758bdce5bd425f815768434b60cf7a069e0f21c45c67495cf0ccc2d5f53328ef20be718ad50b52fb8fe90114f56a496",
      "networkId": 0,
      "chainId": 0
    },
    {
      "hash": "0x46b7f84aca4718213d5348abde135b37d7e111382e7184ed15174a248d2ef22c",
      "blockHash": "0x5d9dee1093d68349febb3ec9dfd9e658a86d812d44c6fcc6cae8f63720cc3fab",
      "blockNumber": 68520,
      "transactionIndex": 9,
      "confirmations": null,
      "from": "0x3BA6349156f9e83A2963Da4600cd12dff6AE2E28",
      "gasPrice": {
        "_hex": "0xba43b7400"
      },
      "gasLimit": {
        "_hex": "0x15f90"
      },
      "to": "0x793AE8C1b1a160BFc07BFB0d04F85eab1A71F4f2",
      "value": {
        "_hex": "0x0"
      },
      "nonce": 0,
      "data": "0x3ba15036",
      "r": "0x723974f14346236853d0658a65360aa73f56b49d0f21303c1ba690cbc5568422",
      "s": "0x6231470de89380236d0a34505b103290a7b55cbd3669534ad122e5258db10008",
      "v": 27,
      "creates": null,
      "raw": "0xf86980850ba43b740083015f9094793ae8c1b1a160bfc07bfb0d04f85eab1a71f4f280843ba150361ba0723974f14346236853d0658a65360aa73f56b49d0f21303c1ba690cbc5568422a06231470de89380236d0a34505b103290a7b55cbd3669534ad122e5258db10008",
      "networkId": 0,
      "chainId": 0
    },
    {
      "hash": "0xe8817b6ab7140b79dbfc30a7382a6c4b4ac6c0d93b9df31f23725310ae8c8c70",
      "blockHash": "0x5d9dee1093d68349febb3ec9dfd9e658a86d812d44c6fcc6cae8f63720cc3fab",
      "blockNumber": 68520,
      "transactionIndex": 10,
      "confirmations": null,
      "from": "0x6138926768c083222f4DAC1886aab983B8079D4A",
      "gasPrice": {
        "_hex": "0xba43b7400"
      },
      "gasLimit": {
        "_hex": "0x15f90"
      },
      "to": "0x793AE8C1b1a160BFc07BFB0d04F85eab1A71F4f2",
      "value": {
        "_hex": "0x0"
      },
      "nonce": 0,
      "data": "0x3ba15036",
      "r": "0x1ee08bef1ca457b79f5e0ca9c7a44503b24ee157eb27967d9a1951dd37972241",
      "s": "0x601c7d8a739757846cb27c5f98846fdbe1f7bc3afc4864e1cfeeba1e2246ac14",
      "v": 27,
      "creates": null,
      "raw": "0xf86980850ba43b740083015f9094793ae8c1b1a160bfc07bfb0d04f85eab1a71f4f280843ba150361ba01ee08bef1ca457b79f5e0ca9c7a44503b24ee157eb27967d9a1951dd37972241a0601c7d8a739757846cb27c5f98846fdbe1f7bc3afc4864e1cfeeba1e2246ac14",
      "networkId": 0,
      "chainId": 0
    },
    {
      "hash": "0xe38c0f01ddf3cca47b16f028649cdad0afccb43e941e86b8f973ee9c6f366af0",
      "blockHash": "0x5d9dee1093d68349febb3ec9dfd9e658a86d812d44c6fcc6cae8f63720cc3fab",
      "blockNumber": 68520,
      "transactionIndex": 11,
      "confirmations": null,
      "from": "0xD70B1dc0559053FfCAE9F71e0f1809f64a2b024c",
      "gasPrice": {
        "_hex": "0xba43b7400"
      },
      "gasLimit": {
        "_hex": "0x15f90"
      },
      "to": "0x793AE8C1b1a160BFc07BFB0d04F85eab1A71F4f2",
      "value": {
        "_hex": "0x0"
      },
      "nonce": 0,
      "data": "0x3ba15036",
      "r": "0x65bd57b4f065270754818cfb40991aa334541335c6672a47e1e933ca34b3c62a",
      "s": "0x430da81c2084a3d083db2b91f112ad7ece410e72b11a46c087c10b7d62b5dae0",
      "v": 27,
      "creates": null,
      "raw": "0xf86980850ba43b740083015f9094793ae8c1b1a160bfc07bfb0d04f85eab1a71f4f280843ba150361ba065bd57b4f065270754818cfb40991aa334541335c6672a47e1e933ca34b3c62aa0430da81c2084a3d083db2b91f112ad7ece410e72b11a46c087c10b7d62b5dae0",
      "networkId": 0,
      "chainId": 0
    },
    {
      "hash": "0xfd8ee9dfeb5854b5eefc06fc5c530259bb10cb1f9eb6fc452c0ee8174db4c0c1",
      "blockHash": "0x5d9dee1093d68349febb3ec9dfd9e658a86d812d44c6fcc6cae8f63720cc3fab",
      "blockNumber": 68520,
      "transactionIndex": 12,
      "confirmations": null,
      "from": "0xdB1783D791A215308C7d2331110E571Af76Ee9d8",
      "gasPrice": {
        "_hex": "0xba43b7400"
      },
      "gasLimit": {
        "_hex": "0x15f90"
      },
      "to": "0x793AE8C1b1a160BFc07BFB0d04F85eab1A71F4f2",
      "value": {
        "_hex": "0x0"
      },
      "nonce": 0,
      "data": "0x3ba15036",
      "r": "0xa69552981f4db634c9df396050ec9ba41ef476fa468a3844f63d5d2e9553e6d7",
      "s": "0x269b794c422e6f32a3ab1f1fd4fa42c2c8b7928a4adc435740d5a717912ce8df",
      "v": 28,
      "creates": null,
      "raw": "0xf86980850ba43b740083015f9094793ae8c1b1a160bfc07bfb0d04f85eab1a71f4f280843ba150361ca0a69552981f4db634c9df396050ec9ba41ef476fa468a3844f63d5d2e9553e6d7a0269b794c422e6f32a3ab1f1fd4fa42c2c8b7928a4adc435740d5a717912ce8df",
      "networkId": 0,
      "chainId": 0
    },
    {
      "hash": "0x843f42babd848d2e2aa3bf074fdb135898199dea3a6009b6b099afa8d1719e4e",
      "blockHash": "0x5d9dee1093d68349febb3ec9dfd9e658a86d812d44c6fcc6cae8f63720cc3fab",
      "blockNumber": 68520,
      "transactionIndex": 13,
      "confirmations": null,
      "from": "0xdf2852Fe991DCf5C090a32E39C3104A3637e73e8",
      "gasPrice": {
        "_hex": "0xba43b7400"
      },
      "gasLimit": {
        "_hex": "0x15f90"
      },
      "to": "0x793AE8C1b1a160BFc07BFB0d04F85eab1A71F4f2",
      "value": {
        "_hex": "0x0"
      },
      "nonce": 0,
      "data": "0x3ba15036",
      "r": "0x7b1d08689f56be0a9409662fa95881c6240dbbfca690d6d24a88b861ae8732f7",
      "s": "0x6c532098d5f25309d064019afca705afb5ec9edd30fc4bd3a96cf0078653e81f",
      "v": 27,
      "creates": null,
      "raw": "0xf86980850ba43b740083015f9094793ae8c1b1a160bfc07bfb0d04f85eab1a71f4f280843ba150361ba07b1d08689f56be0a9409662fa95881c6240dbbfca690d6d24a88b861ae8732f7a06c532098d5f25309d064019afca705afb5ec9edd30fc4bd3a96cf0078653e81f",
      "networkId": 0,
      "chainId": 0
    },
    {
      "hash": "0x50fb655a39225bdaa1dcaf3693966272f869dc88e3db9f54b2e32deee714f413",
      "blockHash": "0x5d9dee1093d68349febb3ec9dfd9e658a86d812d44c6fcc6cae8f63720cc3fab",
      "blockNumber": 68520,
      "transactionIndex": 14,
      "confirmations": null,
      "from": "0xBa5c789c8E176bF1B4DFAE5F66C0fD388505211D",
      "gasPrice": {
        "_hex": "0xba43b7400"
      },
      "gasLimit": {
        "_hex": "0x15f90"
      },
      "to": "0x793AE8C1b1a160BFc07BFB0d04F85eab1A71F4f2",
      "value": {
        "_hex": "0x0"
      },
      "nonce": 0,
      "data": "0x3ba15036",
      "r": "0x3093f26a8078855addfa72fd734ec85730971d414f3e38a0fbb109eee72ef2d2",
      "s": "0x7d6bc5a45e5447ea20c70380ec573750760e5621ec2ef80ad507146200360cec",
      "v": 27,
      "creates": null,
      "raw": "0xf86980850ba43b740083015f9094793ae8c1b1a160bfc07bfb0d04f85eab1a71f4f280843ba150361ba03093f26a8078855addfa72fd734ec85730971d414f3e38a0fbb109eee72ef2d2a07d6bc5a45e5447ea20c70380ec573750760e5621ec2ef80ad507146200360cec",
      "networkId": 0,
      "chainId": 0
    },
    {
      "hash": "0x28945c8c52a8cdcc782ae4108329d54e608fa3eceb93d8cb18b1447db82224d1",
      "blockHash": "0x5d9dee1093d68349febb3ec9dfd9e658a86d812d44c6fcc6cae8f63720cc3fab",
      "blockNumber": 68520,
      "transactionIndex": 15,
      "confirmations": null,
      "from": "0x528ff87f89965934De0aBFcb65aaaFA4487fd82d",
      "gasPrice": {
        "_hex": "0xba43b7400"
      },
      "gasLimit": {
        "_hex": "0x15f90"
      },
      "to": "0x793AE8C1b1a160BFc07BFB0d04F85eab1A71F4f2",
      "value": {
        "_hex": "0x0"
      },
      "nonce": 0,
      "data": "0x3ba15036",
      "r": "0x3709cf4336f90f23636ff1821f268216aa5f626bdfbea1f368df36c171ae6283",
      "s": "0x29ea880d3f6a7443a1dc0b604e819bbb80f26204534e3fce97750e4c0f0c2ee0",
      "v": 28,
      "creates": null,
      "raw": "0xf86980850ba43b740083015f9094793ae8c1b1a160bfc07bfb0d04f85eab1a71f4f280843ba150361ca03709cf4336f90f23636ff1821f268216aa5f626bdfbea1f368df36c171ae6283a029ea880d3f6a7443a1dc0b604e819bbb80f26204534e3fce97750e4c0f0c2ee0",
      "networkId": 0,
      "chainId": 0
    },
    {
      "hash": "0xcc30a7e623a0da20cf7329616bdc9b5e6e49fa540ed62745e0481b208bd3b664",
      "blockHash": "0x5d9dee1093d68349febb3ec9dfd9e658a86d812d44c6fcc6cae8f63720cc3fab",
      "blockNumber": 68520,
      "transactionIndex": 16,
      "confirmations": null,
      "from": "0x111aBd839a93481D79BD3349AE86C87CeB0211Ac",
      "gasPrice": {
        "_hex": "0xba43b7400"
      },
      "gasLimit": {
        "_hex": "0x15f90"
      },
      "to": "0x793AE8C1b1a160BFc07BFB0d04F85eab1A71F4f2",
      "value": {
        "_hex": "0x0"
      },
      "nonce": 0,
      "data": "0x3ba15036",
      "r": "0xc24fa018b7f053bb10d7467feebba258ac87086f9819ca31fbce79863f192d2e",
      "s": "0x6ff091ce98e0241c28be712145d853cefbb2415617505024d5dc23a6ff490ae5",
      "v": 27,
      "creates": null,
      "raw": "0xf86980850ba43b740083015f9094793ae8c1b1a160bfc07bfb0d04f85eab1a71f4f280843ba150361ba0c24fa018b7f053bb10d7467feebba258ac87086f9819ca31fbce79863f192d2ea06ff091ce98e0241c28be712145d853cefbb2415617505024d5dc23a6ff490ae5",
      "networkId": 0,
      "chainId": 0
    },
    {
      "hash": "0x6a58bbb7acd7762999e516f81db4d40da3c327d589a22d4ca1257a5c017dad1d",
      "blockHash": "0x5d9dee1093d68349febb3ec9dfd9e658a86d812d44c6fcc6cae8f63720cc3fab",
      "blockNumber": 68520,
      "transactionIndex": 17,
      "confirmations": null,
      "from": "0x3A9F65df026Fc2c7B39FD23Dc639BdF9609d329c",
      "gasPrice": {
        "_hex": "0xba43b7400"
      },
      "gasLimit": {
        "_hex": "0x15f90"
      },
      "to": "0x793AE8C1b1a160BFc07BFB0d04F85eab1A71F4f2",
      "value": {
        "_hex": "0x0"
      },
      "nonce": 0,
      "data": "0x3ba15036",
      "r": "0x1fe84be16396fca81e91b4744709b1fdbe816f2a114662378483699387e260b4",
      "s": "0x694383a93dbd7c2acf9387467dcd93a9c0db4d3d119e475cf2d4688e9116b6e4",
      "v": 27,
      "creates": null,
      "raw": "0xf86980850ba43b740083015f9094793ae8c1b1a160bfc07bfb0d04f85eab1a71f4f280843ba150361ba01fe84be16396fca81e91b4744709b1fdbe816f2a114662378483699387e260b4a0694383a93dbd7c2acf9387467dcd93a9c0db4d3d119e475cf2d4688e9116b6e4",
      "networkId": 0,
      "chainId": 0
    },
    {
      "hash": "0xcd84e9a13fc8296283da73001748d51c15946595156b1ecbdee2e66211a4f736",
      "blockHash": "0x5d9dee1093d68349febb3ec9dfd9e658a86d812d44c6fcc6cae8f63720cc3fab",
      "blockNumber": 68520,
      "transactionIndex": 18,
      "confirmations": null,
      "from": "0xA52F7f3E529a8E2E0c84657B8F9053f8AD31137F",
      "gasPrice": {
        "_hex": "0xba43b7400"
      },
      "gasLimit": {
        "_hex": "0x15f90"
      },
      "to": "0x793AE8C1b1a160BFc07BFB0d04F85eab1A71F4f2",
      "value": {
        "_hex": "0x0"
      },
      "nonce": 0,
      "data": "0x3ba15036",
      "r": "0xab4f4d47a9b3c0a2faaea00e7a9d33c36f0145eb6faeb17c47f8098ce7985fd5",
      "s": "0x56c1a124b0a14370b4b9c19e703ed260d3fac2f5d0f6eda779b8aec57f48b437",
      "v": 27,
      "creates": null,
      "raw": "0xf86980850ba43b740083015f9094793ae8c1b1a160bfc07bfb0d04f85eab1a71f4f280843ba150361ba0ab4f4d47a9b3c0a2faaea00e7a9d33c36f0145eb6faeb17c47f8098ce7985fd5a056c1a124b0a14370b4b9c19e703ed260d3fac2f5d0f6eda779b8aec57f48b437",
      "networkId": 0,
      "chainId": 0
    },
    {
      "hash": "0x229a174a17a9f3fb4a16a6c540e77dc899c844783cd60e248e23974db9062f4e",
      "blockHash": "0x5d9dee1093d68349febb3ec9dfd9e658a86d812d44c6fcc6cae8f63720cc3fab",
      "blockNumber": 68520,
      "transactionIndex": 19,
      "confirmations": null,
      "from": "0xfDA0C1D3110C77Cf600308cb86764E0C6744d55F",
      "gasPrice": {
        "_hex": "0xba43b7400"
      },
      "gasLimit": {
        "_hex": "0x15f90"
      },
      "to": "0x793AE8C1b1a160BFc07BFB0d04F85eab1A71F4f2",
      "value": {
        "_hex": "0x0"
      },
      "nonce": 0,
      "data": "0x3ba15036",
      "r": "0x4835cc61d86deb3bb47738fd8e3c45e333e5b823d7fbd668e5f8f10f1e5af7a5",
      "s": "0x40432ea368e2fb5b6a24ee88f1dd85d5f8fe8a49833d019dacfc35b2b82b722a",
      "v": 28,
      "creates": null,
      "raw": "0xf86980850ba43b740083015f9094793ae8c1b1a160bfc07bfb0d04f85eab1a71f4f280843ba150361ca04835cc61d86deb3bb47738fd8e3c45e333e5b823d7fbd668e5f8f10f1e5af7a5a040432ea368e2fb5b6a24ee88f1dd85d5f8fe8a49833d019dacfc35b2b82b722a",
      "networkId": 0,
      "chainId": 0
    },
    {
      "hash": "0x8149e104ca0a12fb2c85769c5dde98d04a171d2fcf837436c3b40598fea56452",
      "blockHash": "0x5d9dee1093d68349febb3ec9dfd9e658a86d812d44c6fcc6cae8f63720cc3fab",
      "blockNumber": 68520,
      "transactionIndex": 20,
      "confirmations": null,
      "from": "0x2b43a3855BeAb666ec5b35ba8825820Bcd5b92E0",
      "gasPrice": {
        "_hex": "0xba43b7400"
      },
      "gasLimit": {
        "_hex": "0x15f90"
      },
      "to": "0x793AE8C1b1a160BFc07BFB0d04F85eab1A71F4f2",
      "value": {
        "_hex": "0x0"
      },
      "nonce": 0,
      "data": "0x3ba15036",
      "r": "0xa941260db091a948731db1c37a0411b76c290daa76ffe1e3ff4e6a5ff92a465f",
      "s": "0x7004fe882b1cb4a95f20487d8c525308251c9d85a3eb45f67ea30ea3fa00e4bc",
      "v": 28,
      "creates": null,
      "raw": "0xf86980850ba43b740083015f9094793ae8c1b1a160bfc07bfb0d04f85eab1a71f4f280843ba150361ca0a941260db091a948731db1c37a0411b76c290daa76ffe1e3ff4e6a5ff92a465fa07004fe882b1cb4a95f20487d8c525308251c9d85a3eb45f67ea30ea3fa00e4bc",
      "networkId": 0,
      "chainId": 0
    },
    {
      "hash": "0x359a72473ec4546d87b4acf1660ba5f86123e1577535364914d140d321b56887",
      "blockHash": "0x5d9dee1093d68349febb3ec9dfd9e658a86d812d44c6fcc6cae8f63720cc3fab",
      "blockNumber": 68520,
      "transactionIndex": 21,
      "confirmations": null,
      "from": "0x55C34517f1b5B9f9e6e2996C9Eb8aE48dA2E8f42",
      "gasPrice": {
        "_hex": "0xba43b7400"
      },
      "gasLimit": {
        "_hex": "0x15f90"
      },
      "to": "0x793AE8C1b1a160BFc07BFB0d04F85eab1A71F4f2",
      "value": {
        "_hex": "0x0"
      },
      "nonce": 0,
      "data": "0x3ba15036",
      "r": "0x84ae5f068ee344253cc1603e1a9abe0ca2b043474d434ca9c57639c302a809f4",
      "s": "0x79c6554637f34723984d1344a373585b7d6c4d830434074ff6e76d93dfc4c691",
      "v": 27,
      "creates": null,
      "raw": "0xf86980850ba43b740083015f9094793ae8c1b1a160bfc07bfb0d04f85eab1a71f4f280843ba150361ba084ae5f068ee344253cc1603e1a9abe0ca2b043474d434ca9c57639c302a809f4a079c6554637f34723984d1344a373585b7d6c4d830434074ff6e76d93dfc4c691",
      "networkId": 0,
      "chainId": 0
    },
    {
      "hash": "0x2a5ca340eb3d683ae3c2a70226963beefcac01f70939e14f3b37d7f8ee2a94e2",
      "blockHash": "0x5d9dee1093d68349febb3ec9dfd9e658a86d812d44c6fcc6cae8f63720cc3fab",
      "blockNumber": 68520,
      "transactionIndex": 22,
      "confirmations": null,
      "from": "0xD66f44F49197aC90183eb0784178d0a5DEb3fF25",
      "gasPrice": {
        "_hex": "0xba43b7400"
      },
      "gasLimit": {
        "_hex": "0x15f90"
      },
      "to": "0x793AE8C1b1a160BFc07BFB0d04F85eab1A71F4f2",
      "value": {
        "_hex": "0x0"
      },
      "nonce": 0,
      "data": "0x3ba15036",
      "r": "0xb90ca2610ed8d6fb1969ab8fd7b2f0db9e300056697db04acbe2aa2623022799",
      "s": "0x21f9ad6102199a11fd184b81d1916e02ac9dd9cac6e9f593622107865ed9abf9",
      "v": 28,
      "creates": null,
      "raw": "0xf86980850ba43b740083015f9094793ae8c1b1a160bfc07bfb0d04f85eab1a71f4f280843ba150361ca0b90ca2610ed8d6fb1969ab8fd7b2f0db9e300056697db04acbe2aa2623022799a021f9ad6102199a11fd184b81d1916e02ac9dd9cac6e9f593622107865ed9abf9",
      "networkId": 0,
      "chainId": 0
    },
    {
      "hash": "0x4f995baac4c3b65a859ec671ed69b5a5bec5a46333cfa506dc758bba4afe1265",
      "blockHash": "0x5d9dee1093d68349febb3ec9dfd9e658a86d812d44c6fcc6cae8f63720cc3fab",
      "blockNumber": 68520,
      "transactionIndex": 23,
      "confirmations": null,
      "from": "0x27eb7a21FE45aB5b11f633ab2D1039003582ccbb",
      "gasPrice": {
        "_hex": "0xba43b7400"
      },
      "gasLimit": {
        "_hex": "0x15f90"
      },
      "to": "0x793AE8C1b1a160BFc07BFB0d04F85eab1A71F4f2",
      "value": {
        "_hex": "0x0"
      },
      "nonce": 0,
      "data": "0x3ba15036",
      "r": "0x17b8ecf270e33621c7dad17e06c84db0404b441ddd05b82e8bf473cc4d782077",
      "s": "0x35e0dad8dfa59bd6dbfc05905b644a8376ecc7031532445230d47f8292ff793f",
      "v": 27,
      "creates": null,
      "raw": "0xf86980850ba43b740083015f9094793ae8c1b1a160bfc07bfb0d04f85eab1a71f4f280843ba150361ba017b8ecf270e33621c7dad17e06c84db0404b441ddd05b82e8bf473cc4d782077a035e0dad8dfa59bd6dbfc05905b644a8376ecc7031532445230d47f8292ff793f",
      "networkId": 0,
      "chainId": 0
    },
    {
      "hash": "0xcaa0b37dfd2b8b0a193ec569038b962a1cf1a136127d1f7233d3cbece0fac2ab",
      "blockHash": "0x5d9dee1093d68349febb3ec9dfd9e658a86d812d44c6fcc6cae8f63720cc3fab",
      "blockNumber": 68520,
      "transactionIndex": 24,
      "confirmations": null,
      "from": "0xC98Caeaff3ec47259aBEF02ccF4d184e938ed8dA",
      "gasPrice": {
        "_hex": "0xba43b7400"
      },
      "gasLimit": {
        "_hex": "0x15f90"
      },
      "to": "0x793AE8C1b1a160BFc07BFB0d04F85eab1A71F4f2",
      "value": {
        "_hex": "0x0"
      },
      "nonce": 0,
      "data": "0x3ba15036",
      "r": "0x2d121e93b1c54df48d88f5522cb63762d10eafa98252c25ce68dad9fb24201d9",
      "s": "0x4b6a47dffad7072606c7b254296dd9b1e94514ac75a8ffbd44635bb48a4ab7c8",
      "v": 27,
      "creates": null,
      "raw": "0xf86980850ba43b740083015f9094793ae8c1b1a160bfc07bfb0d04f85eab1a71f4f280843ba150361ba02d121e93b1c54df48d88f5522cb63762d10eafa98252c25ce68dad9fb24201d9a04b6a47dffad7072606c7b254296dd9b1e94514ac75a8ffbd44635bb48a4ab7c8",
      "networkId": 0,
      "chainId": 0
    }
  ]
}