{
  "hash": "0x69591119805d6eea1634328a84ec97d634c5925186dbf68d2f68047adef33056",
  "parentHash": "0x3a39d7463393d37770213b84a915ae921c852f85e6cc0a642a9c2801667409f9",
  "number": 101934,
  "timestamp": 1439830133,
  "nonce": "0xfc114f1ee433c9d9",
  "difficulty": 3924312948427,
  "gasLimit": {
    "_hex": "0x2fefd8"
  },
  "gasUsed": {
    "_hex": "0xa410"
  },
  "miner": "0xe6A7a1d47ff21B6321162AEA7C6CB457D5476Bca",
  "extraData": "0x476574682f76312e302e312d38326566323666362f6c696e75782f676f312e34",
  "transactions": [
    {
      "hash": "0xace023760e7959df54a7f5b8b477d92e355516d83ca95e583570eedb8458f583",
      "blockHash": "0x69591119805d6eea1634328a84ec97d634c5925186dbf68d2f68047adef33056",
      "blockNumber": 101934,
      "transactionIndex": 0,
      "confirmations": null,
      "from": "0x007f7f58D3eb5b7510A301eCC749FC1fCDDBE14D",
      "gasPrice": {
        "_hex": "0xe0cfe7246"
      },
      "gasLimit": {
        "_hex": "0x15f90"
      },
      "to": "0xb1abce2918E21ddb93AA452731a12672A3d9F75a",
      "value": {
        "_hex": "0x4563918244f40000"
      },
      "nonce": 198,
      "data": "0x",
      "r": "0x3f8a1c7e5316e46fa316ac4e85279b44ddfa1a22b8642dbe8ac63a674917afc6",
      "s": "0x2380d4afe2c49b31a52f853d73ccc657c0005e675537aa8960117a9a08580803",
      "v": 28,
      "creates": null,
      "raw": "0xf86e81c6850e0cfe724683015f9094b1abce2918e21ddb93aa452731a12672a3d9f75a884563918244f40000801ca03f8a1c7e5316e46fa316ac4e85279b44ddfa1a22b8642dbe8ac63a674917afc6a02380d4afe2c49b31a52f853d73ccc657c0005e675537aa8960117a9a08580803",
      "networkId": 0,
      "chainId": 0
    },
    {
      "hash": "0x36f57d84946f64f5daeda68ecfaa1b75225cc696ccbeca37812898fda11499a6",
      "blockHash": "0x69591119805d6eea1634328a84ec97d634c5925186dbf68d2f68047adef33056",
      "blockNumber": 101934,
      "transactionIndex": 1,
      "confirmations": null,
      "from": "0xBbC2603925265f0e6830656B86bD7E43c1D4731E",
      "gasPrice": {
        "_hex": "0xd3e058173"
      },
      "gasLimit": {
        "_hex": "0x5208"
      },
      "to": "0x32Be343B94f860124dC4fEe278FDCBD38C102D88",
      "value": {
        "_hex": "0x5631aa818963780000"
      },
      "nonce": 0,
      "data": "0x",
      "r": "0x2cb727ecfcc76c55c10c14f4c7fa73f9b1475b2385bfa3c80cc0814855e782bd",
      "s": "0x467f1873fc2713953db7b6cf638e2f6304578647e9a952645792a25a0a795682",
      "v": 27,
      "creates": null,
      "raw": "0xf86d80850d3e0581738252089432be343b94f860124dc4fee278fdcbd38c102d88895631aa818963780000801ba02cb727ecfcc76c55c10c14f4c7fa73f9b1475b2385bfa3c80cc0814855e782bda0467f1873fc2713953db7b6cf638e2f6304578647e9a952645792a25a0a795682",
      "networkId": 0,
      "chainId": 0
    }
  ]
}