{
  "hash": "0xc112c8a104552d2f81ef2b838bed3e4e524da330a73e2677be3e3843c0a8bb29",
  "parentHash": "0xdc1075b6605323323c171aaa2c45aaae36395815120f78f5c8195a344c5cf539",
  "number": 112533,
  "timestamp": 1440008922,
  "nonce": "0x9e088e9a03b4ac85",
  "difficulty": 4421739938285,
  "gasLimit": {
    "_hex": "0x2fefd8"
  },
  "gasUsed": {
    "_hex": "0x5208"
  },
  "miner": "0xEF247E639d49461D25F57e9362CadE3120910Ce0",
  "extraData": "0x476574682f76312e302e312f6c696e75782f676f312e342e32",
  "transactions": [
    {
      "hash": "0x52c78bba2624ec92dd25d7e66907f720aa28b93bc9e02f702ce9341c9fde89dd",
      "blockHash": "0xc112c8a104552d2f81ef2b838bed3e4e524da330a73e2677be3e3843c0a8bb29",
      "blockNumber": 112533,
      "transactionIndex": 0,
      "confirmations": null,
      "from": "0x2c640E5e3DE20DECa76ee10c5Fd6ECd074EFb3e8",
      "gasPrice": {
        "_hex": "0xd1bec2e22"
      },
      "gasLimit": {
        "_hex": "0x7530"
      },
      "to": "0xa9f5E7bf6Cbf6fEc55B30850Eb492b47A376d050",
      "value": {
        "_hex": "0x20f5b1eaad8d80000"
      },
      "nonce": 4,
      "data": "0x",
      "r": "0x39f9ddbb825f1daf44a9ad19eb01f3d65cc5e0e17bc37b45a465c6540933f5e0",
      "s": "0x3c6ac1c545ba9a876d29ad62d6eb627af64afcdde5337ddf334b6eff5c4614e5",
      "v": 27,
      "creates": null,
      "raw": "0xf86d04850d1bec2e2282753094a9f5e7bf6cbf6fec55b30850eb492b47a376d05089020f5b1eaad8d80000801ba039f9ddbb825f1daf44a9ad19eb01f3d65cc5e0e17bc37b45a465c6540933f5e0a03c6ac1c545ba9a876d29ad62d6eb627af64afcdde5337ddf334b6eff5c4614e5",
      "networkId": 0,
      "chainId": 0
    }
  ]
}