{
  "hash": "0x311dd130e197fbb810c13973583ca4fe530f30fb2575759a947e3e06386c3ad6",
  "parentHash": "0xe12c93d5fc9f77a25ce531a0f406365651144589c331e320d9bbf9e5dee8e14f",
  "number": 90409,
  "timestamp": 1439639535,
  "nonce": "0xe477be98bdcc4fbf",
  "difficulty": 3339988984841,
  "gasLimit": {
    "_hex": "0x2fefd8"
  },
  "gasUsed": {
    "_hex": "0x5208"
  },
  "miner": "0xe6A7a1d47ff21B6321162AEA7C6CB457D5476Bca",
  "extraData": "0x476574682f76312e302e312d38326566323666362f6c696e75782f676f312e34",
  "transactions": [
    {
      "hash": "0xb85d8e54440df6132495233a2508b3010b88da6e7a3e3842df6840c9f4db4c8b",
      "blockHash": "0x311dd130e197fbb810c13973583ca4fe530f30fb2575759a947e3e06386c3ad6",
      "blockNumber": 90409,
      "transactionIndex": 0,
      "confirmations": null,
      "from": "0x06EC48800B2DB3eEfa052e98A9b5Fc2Bf783Ee74",
      "gasPrice": {
        "_hex": "0xd6ad5c806"
      },
      "gasLimit": {
        "_hex": "0x5208"
      },
      "to": "0x32Be343B94f860124dC4fEe278FDCBD38C102D88",
      "value": {
        "_hex": "0x8ae65d5250b14000"
      },
      "nonce": 13,
      "data": "0x",
      "r": "0x43606e683d8ce7cb50234ea4aee33d0b364c34e68cfd80e9c52b354538c5391d",
      "s": "0x1260eb8e0f5efa1bfcb562e4e41ac8fcc3878cc2ceb8347d2c0c4b72f4f06276",
      "v": 28,
      "creates": null,
      "raw": "0xf86c0d850d6ad5c8068252089432be343b94f860124dc4fee278fdcbd38c102d88888ae65d5250b14000801ca043606e683d8ce7cb50234ea4aee33d0b364c34e68cfd80e9c52b354538c5391da01260eb8e0f5efa1bfcb562e4e41ac8fcc3878cc2ceb8347d2c0c4b72f4f06276",
      "networkId": 0,
      "chainId": 0
    }
  ]
}