{
  "hash": "0x6108e89d050025f9af50744f516a587e3f64434e2e1851a28698118b92b59789",
  "parentHash": "0x319b00909066cb95fa076fdc033db67736f1e088857c7b7886b047dbeb7e51f6",
  "number": 85652,
  "timestamp": 1439566749,
  "nonce": "0xd3450a957789da04",
  "difficulty": 2788160974563,
  "gasLimit": {
    "_hex": "0x2fefd8"
  },
  "gasUsed": {
    "_hex": "0xa410"
  },
  "miner": "0x88D74a59454F6cF3B51ef6b9136AFb6b9D405A88",
  "extraData": "0x476574682f76312e302e312d37666266393930632f6c696e75782f676f312e34",
  "transactions": [
    {
      "hash": "0xa4afea886464dca5166c367862ac9ac36a8499eb9eb2529b103e772e85ae3700",
      "blockHash": "0x6108e89d050025f9af50744f516a587e3f64434e2e1851a28698118b92b59789",
      "blockNumber": 85652,
      "transactionIndex": 0,
      "confirmations": null,
      "from": "0x120A270bbC009644e35F0bB6ab13f95b8199c4ad",
      "gasPrice": {
        "_hex": "0xdd2bfed49"
      },
      "gasLimit": {
        "_hex": "0x15f90"
      },
      "to": "0xFbc92cE518a6CA6341B08b4468880Cc9Dd61a027",
      "value": {
        "_hex": "0x1683543ad622951c00"
      },
      "nonce": 464,
      "data": "0x",
      "r": "0x6fec1805f345034d846b112fabac465813da883699587527cee12025f86b2b66",
      "s": "0x60128ec4a7659ed349356bee1afc933d4bd66dbd6d75e8211ad1d21c9aa8dec2",
      "v": 27,
      "creates": null,
      "raw": "0xf8708201d0850dd2bfed4983015f9094fbc92ce518a6ca6341b08b4468880cc9dd61a027891683543ad622951c00801ba06fec1805f345034d846b112fabac465813da883699587527cee12025f86b2b66a060128ec4a7659ed349356bee1afc933d4bd66dbd6d75e8211ad1d21c9aa8dec2",
      "networkId": 0,
      "chainId": 0
    },
    {
      "hash": "0xb5c938487373f5b54924497012fd96aabd4c12dc77489b64adbce4c0e31dfb59",
      "blockHash": "0x6108e89d050025f9af50744f516a587e3f64434e2e1851a28698118b92b59789",
      "blockNumber": 85652,
      "transactionIndex": 1,
      "confirmations": null,
      "from": "0x226E8B888E9F360E1Aea28229C40E2adC5D698b5",
      "gasPrice": {
        "_hex": "0xd3bdb7dee"
      },
      "gasLimit": {
        "_hex": "0x15f90"
      },
      "to": "0xbA8c9CDA6af013Cc68A076E17c84d4cDbc5960c5",
      "value": {
        "_hex": "0x62884461f1460000"
      },
      "nonce": 0,
      "data": "0x",
      "r": "0x5eb63281041e32f3288292a350319efe22ccf9d26cd17fcd85b888e33b1f2178",
      "s": "0x2cc214967427f1a5902d916219474b3f284b9e1300f6a9b49f7362a27aeb968a",
      "v": 28,
      "creates": null,
      "raw": "0xf86d80850d3bdb7dee83015f9094ba8c9cda6af013cc68a076e17c84d4cdbc5960c58862884461f1460000801ca05eb63281041e32f3288292a350319efe22ccf9d26cd17fcd85b888e33b1f2178a02cc214967427f1a5902d916219474b3f284b9e1300f6a9b49f7362a27aeb968a",
      "networkId": 0,
      "chainId": 0
    }
  ]
}