{
  "hash": "0xc0ac7abf8d9eda36c5caf0c4bf758589bc0e1233885b8681e36d01413c604fa0",
  "parentHash": "0x596e4c2df7d405265f857bd9388f59c70e651116485e1c3d803664884f19f74a",
  "number": 90034,
  "timestamp": 1439633010,
  "nonce": "0x554e0d37202bbf62",
  "difficulty": 3351574319413,
  "gasLimit": {
    "_hex": "0x2fefd8"
  },
  "gasUsed": {
    "_hex": "0x5208"
  },
  "miner": "0xe6A7a1d47ff21B6321162AEA7C6CB457D5476Bca",
  "extraData": "0x476574682f76312e302e312d38326566323666362f6c696e75782f676f312e34",
  "transactions": [
    {
      "hash": "0x922754e9756aaf60e17ffadbd19e580f88913e0c37f85843f9f3e01c4ec1461c",
      "blockHash": "0xc0ac7abf8d9eda36c5caf0c4bf758589bc0e1233885b8681e36d01413c604fa0",
      "blockNumber": 90034,
      "transactionIndex": 0,
      "confirmations": null,
      "from": "0xD1dbf6AE8f14259aDb50f4425dd056204391a578",
      "gasPrice": {
        "_hex": "0xd69b48315"
      },
      "gasLimit": {
        "_hex": "0x55f0"
      },
      "to": "0x9040C4FEa1b297d3e033743bB8dFF3485fE80cFd",
      "value": {
        "_hex": "0xde0b6b3a7640000"
      },
      "nonce": 0,
      "data": "0x",
      "r": "0x28a5b455b95289b5bb299e7413ff6d6c8776a269afa24913161a3ea306c00e48",
      "s": "0x4c2448dbbce0ee2e96760c830dad585d32cc6c3cbc778e3698c00e1fefa330f7",
      "v": 28,
      "creates": null,
      "raw": "0xf86c80850d69b483158255f0949040c4fea1b297d3e033743bb8dff3485fe80cfd880de0b6b3a7640000801ca028a5b455b95289b5bb299e7413ff6d6c8776a269afa24913161a3ea306c00e48a04c2448dbbce0ee2e96760c830dad585d32cc6c3cbc778e3698c00e1fefa330f7",
      "networkId": 0,
      "chainId": 0
    }
  ]
}