{
  "hash": "0xc7fef7b83a91f626391d9e6cedfbd442980736501b46b970f93afa6e58be0f6c",
  "parentHash": "0x82230b79179edcecd7deb83426e33b9701bb9181e2f32779e00f74e726664266",
  "number": 98916,
  "timestamp": 1439781133,
  "nonce": "0x65fe8ab1717a4df7",
  "difficulty": 3861089898660,
  "gasLimit": {
    "_hex": "0x2fefd8"
  },
  "gasUsed": {
    "_hex": "0x802e"
  },
  "miner": "0xe6A7a1d47ff21B6321162AEA7C6CB457D5476Bca",
  "extraData": "0x476574682f76312e302e312d38326566323666362f6c696e75782f676f312e34",
  "transactions": [
    {
      "hash": "0x4a7cfe19f5a1a7935205a3e7e98eb0eeacdf58896b06eadc4bad25b6dd5af688",
      "blockHash": "0xc7fef7b83a91f626391d9e6cedfbd442980736501b46b970f93afa6e58be0f6c",
      "blockNumber": 98916,
      "transactionIndex": 0,
      "confirmations": null,
      "from": "0xC4c6bAF00209a0f33331e4B7cb1c7B680A3d2F79",
      "gasPrice": {
        "_hex": "0xda644e6c1"
      },
      "gasLimit": {
        "_hex": "0x15f90"
      },
      "to": "0xAd8d3a5d2d92EB14bB56CA9f380be35b8EFE0c04",
      "value": {
        "_hex": "0x0"
      },
      "nonce": 19,
      "data": "0x3feb1bd85858585858585858580000000000000000000000000000000000000000000000000000000000000000000000f4b1114a02efe852013277f28ed88734fa81e54f000000000000000000000000000000000000000000000000016345785d8a0000",
      "r": "0x6898ef8aadf5aa57dc8d2468613d2e2e4d01a14f00c3e3eaebc8a3f8a0ea5962",
      "s": "0x47b87e44a6371e1f28ea8d28658fd79496f76707cb0733333d901c5551b9d58a",
      "v": 27,
      "creates": null,
      "raw": "0xf8ca13850da644e6c183015f9094ad8d3a5d2d92eb14bb56ca9f380be35b8efe0c0480b8643feb1bd85858585858585858580000000000000000000000000000000000000000000000000000000000000000000000f4b1114a02efe852013277f28ed88734fa81e54f000000000000000000000000000000000000000000000000016345785d8a00001ba06898ef8aadf5aa57dc8d2468613d2e2e4d01a14f00c3e3eaebc8a3f8a0ea5962a047b87e44a6371e1f28ea8d28658fd79496f76707cb0733333d901c5551b9d58a",
      "networkId": 0,
      "chainId": 0
    }
  ]
}