{
  "hash": "0xbc3a9ac8cc34d312987d339f2b2700851d46ba980487dd0c8c5ea0b64ba20fab",
  "parentHash": "0x8e3df17129cd82f5605df441c616e1f060e56cebd1206289dd9e279e8ec942ed",
  "number": 121504,
  "timestamp": 1440177993,
  "nonce": "0x0692cc874626a6f5",
  "difficulty": 4466898468181,
  "gasLimit": {
    "_hex": "0x2fefd8"
  },
  "gasUsed": {
    "_hex": "0x5208"
  },
  "miner": "0xe6A7a1d47ff21B6321162AEA7C6CB457D5476Bca",
  "extraData": "0xd783010002844765746887676f312e342e32856c696e7578",
  "transactions": [
    {
      "hash": "0x51c825bd3b07694e770cbe8a0a7374fee4eb4717d0b473a375198bad945d8fb2",
      "blockHash": "0xbc3a9ac8cc34d312987d339f2b2700851d46ba980487dd0c8c5ea0b64ba20fab",
      "blockNumber": 121504,
      "transactionIndex": 0,
      "confirmations": null,
      "from": "0xaB638742EBe3A78F2a85028350e1AADB86C0a6ed",
      "gasPrice": {
        "_hex": "0xba43b7400"
      },
      "gasLimit": {
        "_hex": "0x15f90"
      },
      "to": "0xD5bf64B3B17Fb895536953EfE17578a8b7b16880",
      "value": {
        "_hex": "0x56bc75e2d63100000"
      },
      "nonce": 9,
      "data": "0x",
      "r": "0x545dfc052496dab31ee18f9dceef1187b4cd9bc5a0e420be123b2f9aaf905b79",
      "s": "0x7635d520cc67551bef44e651f5de779e142961d71e2b09604434eb8f920c7ab7",
      "v": 27,
      "creates": null,
      "raw": "0xf86e09850ba43b740083015f9094d5bf64b3b17fb895536953efe17578a8b7b1688089056bc75e2d63100000801ba0545dfc052496dab31ee18f9dceef1187b4cd9bc5a0e420be123b2f9aaf905b79a07635d520cc67551bef44e651f5de779e142961d71e2b09604434eb8f920c7ab7",
      "networkId": 0,
      "chainId": 0
    }
  ]
}