{
  "hash": "0x9da79d119160a58ef92bbf1e982c0e79e6af170ee9ee9057053c5392bd8d99bb",
  "parentHash": "0x72e6386631b6cb72c4700d2a0957c6c277556ac9f2577b5c24c14b4192c448bb",
  "number": 46270,
  "timestamp": 1438920289,
  "nonce": "0x8e1f58f1af6545f9",
  "difficulty": 1463254137239,
  "gasLimit": {
    "_hex": "0x5758"
  },
  "gasUsed": {
    "_hex": "0x56d0"
  },
  "miner": "0x0E858640EB9cbEeE16B74124658815BB2b5c0686",
  "extraData": "0x476574682f76312e302e312d37626161353937372f6c696e75782f676f312e34",
  "transactions": [
    {
      "hash": "0x0e2a5aa2d5cabaa90d3d00c9d8e5f3fb6e48e398df6b60a70bfecd584d33974c",
      "blockHash": "0x9da79d119160a58ef92bbf1e982c0e79e6af170ee9ee9057053c5392bd8d99bb",
      "blockNumber": 46270,
      "transactionIndex": 0,
      "confirmations": null,
      "from": "0x22F2DcFf5aD78c3Eb6850B5Cb951127B659522E6",
      "gasPrice": {
        "_hex": "0x2794ca2400"
      },
      "gasLimit": {
        "_hex": "0x571c"
      },
      "to": "0xb5CE1861d98E85c84531Dbc18720278328Fd97f6",
      "value": {
        "_hex": "0xde0b6b3a7640000"
      },
      "nonce": 1,
      "data": "0x4672616e6b6f2069732046726565646f6d2e",
      "r": "0x242c214a60453a831be2511d169b931fa5ab245e579d51a40fbc069bc28d5281",
      "s": "0x2ad81365a9e02b42434e3fbb7221562aaeb2a5c026b3ff114be7704f65a5b181",
      "v": 28,
      "creates": null,
      "raw": "0xf87e01852794ca240082571c94b5ce1861d98e85c84531dbc18720278328fd97f6880de0b6b3a7640000924672616e6b6f2069732046726565646f6d2e1ca0242c214a60453a831be2511d169b931fa5ab245e579d51a40fbc069bc28d5281a02ad81365a9e02b42434e3fbb7221562aaeb2a5c026b3ff114be7704f65a5b181",
      "networkId": 0,
      "chainId": 0
    }
  ]
}