{
  "hash": "0xbac8ca1be323d73b365f012ef535f21d5726708f3f70d780efdfcb6f62dd84fd",
  "parentHash": "0xa5554123f6c1508a9b2e5524791b87594e78dfdf76fc1064f34c9af142893729",
  "number": 84730,
  "timestamp": 1439553804,
  "nonce": "0xf635a865d72eb859",
  "difficulty": 2614411463625,
  "gasLimit": {
    "_hex": "0x2fefd8"
  },
  "gasUsed": {
    "_hex": "0xa410"
  },
  "miner": "0x9746c7e1ef2bd21FF3997fa467593a89cb852BD0",
  "extraData": "0x476574682f76312e302e312f77696e646f77732f676f312e342e32",
  "transactions": [
    {
      "hash": "0x84c37a233b12737e31b587cd0ae13c834c97dbea169570edc15cab91d76dba1d",
      "blockHash": "0xbac8ca1be323d73b365f012ef535f21d5726708f3f70d780efdfcb6f62dd84fd",
      "blockNumber": 84730,
      "transactionIndex": 0,
      "confirmations": null,
      "from": "0xB0bF4A71F730782368Ef660FE6D298F432F95450",
      "gasPrice": {
        "_hex": "0xdabc20a8a"
      },
      "gasLimit": {
        "_hex": "0x5208"
      },
      "to": "0x32Be343B94f860124dC4fEe278FDCBD38C102D88",
      "value": {
        "_hex": "0x3635c54c545f6e0000"
      },
      "nonce": 22,
      "data": "0x",
      "r": "0xc2e18dd140d7a7f8ff0f65d7117227e0b9557984fb4174cab1173d7a7f5919e9",
      "s": "0x579da2d928055bf7c8efd4dc4a61e323854d6d5f8a5b67e3a1bbafceb0242dff",
      "v": 27,
      "creates": null,
      "raw": "0xf86d16850dabc20a8a8252089432be343b94f860124dc4fee278fdcbd38c102d88893635c54c545f6e0000801ba0c2e18dd140d7a7f8ff0f65d7117227e0b9557984fb4174cab1173d7a7f5919e9a0579da2d928055bf7c8efd4dc4a61e323854d6d5f8a5b67e3a1bbafceb0242dff",
      "networkId": 0,
      "chainId": 0
    },
    {
      "hash": "0x3c512e8e0abdf636b9a0303466d215b6e11be1c751303cae3a6c39ab0a8165d8",
      "blockHash": "0xbac8ca1be323d73b365f012ef535f21d5726708f3f70d780efdfcb6f62dd84fd",
      "blockNumber": 84730,
      "transactionIndex": 1,
      "confirmations": null,
      "from": "0x23f2D0fd3B4C98Fb1698564deB4898275E2e831f",
      "gasPrice": {
        "_hex": "0xdabc20a8a"
      },
      "gasLimit": {
        "_hex": "0x5208"
      },
      "to": "0x32Be343B94f860124dC4fEe278FDCBD38C102D88",
      "value": {
        "_hex": "0x1bbd17e2387afc00"
      },
      "nonce": 2,
      "data": "0x",
      "r": "0x98f2d5c82885fcbade07b293fc576177da09e581247a0470877cc8a9b6d101c9",
      "s": "0x213cf8138b6e18d4b81ac94288f00aac2e6172e1f71e3d88ffb8f73ef2030dfb",
      "v": 27,
      "creates": null,
      "raw": "0xf86c02850dabc20a8a8252089432be343b94f860124dc4fee278fdcbd38c102d88881bbd17e2387afc00801ba098f2d5c82885fcbade07b293fc576177da09e581247a0470877cc8a9b6d101c9a0213cf8138b6e18d4b81ac94288f00aac2e6172e1f71e3d88ffb8f73ef2030dfb",
      "networkId": 0,
      "chainId": 0
    }
  ]
}