{
  "hash": "0x78c2053641b7637088cf540268287096cce110975a9685d3d97a826d9e0e4dfe",
  "parentHash": "0x0b9930041d74c5ac8464e851bbb62d33a658606e80128b2b41fa3621cc52d672",
  "number": 74910,
  "timestamp": 1439394512,
  "nonce": "0x2809ce44a820a06c",
  "difficulty": 2193397736524,
  "gasLimit": {
    "_hex": "0x2fefd8"
  },
  "gasUsed": {
    "_hex": "0x5208"
  },
  "miner": "0x52Dc504a422f0E2A9e7632A34a50f1a82F8224c7",
  "extraData": "0x476574682f76312e302e312f6c696e75782f676f312e342e32",
  "transactions": [
    {
      "hash": "0x4cb372707cb2fe19cb132a18408c4fdf3e7d454e1730e3c6062cb9db35a4810d",
      "blockHash": "0x78c2053641b7637088cf540268287096cce110975a9685d3d97a826d9e0e4dfe",
      "blockNumber": 74910,
      "transactionIndex": 0,
      "confirmations": null,
      "from": "0x5175f107219871c88e0C4202F14A5f34088b54c8",
      "gasPrice": {
        "_hex": "0x746a528800"
      },
      "gasLimit": {
        "_hex": "0x5267"
      },
      "to": "0x60781265e9850f54AE0Bc9545948d05DeE6FC3e3",
      "value": {
        "_hex": "0x1"
      },
      "nonce": 0,
      "data": "0x",
      "r": "0x64560f4081320d1c0f267419be9e2b48457b33e4556f48a453792989cd3f6e25",
      "s": "0x2ade92e86c63784ff771cb893fc30cc0edf809ef8250d40e47f608e5ae9df3ed",
      "v": 28,
      "creates": null,
      "raw": "0xf8648085746a5288008252679460781265e9850f54ae0bc9545948d05dee6fc3e301801ca064560f4081320d1c0f267419be9e2b48457b33e4556f48a453792989cd3f6e25a02ade92e86c63784ff771cb893fc30cc0edf809ef8250d40e47f608e5ae9df3ed",
      "networkId": 0,
      "chainId": 0
    }
  ]
}