{
  "hash": "0xd0af776c1cc6c35ef3c57163941e9ccc3ee17aaef5840ef63701cee57a8a14bf",
  "parentHash": "0xf4f8da5aa9e3e56cbbfe9e1c3312ab1ee88945451d789c49dad597787a985c78",
  "number": 79380,
  "timestamp": 1439468527,
  "nonce": "0x92621abf07558798",
  "difficulty": 2351918691125,
  "gasLimit": {
    "_hex": "0x2fefd8"
  },
  "gasUsed": {
    "_hex": "0x5208"
  },
  "miner": "0xe6A7a1d47ff21B6321162AEA7C6CB457D5476Bca",
  "extraData": "0x476574682f76312e302e312d38326566323666362f6c696e75782f676f312e34",
  "transactions": [
    {
      "hash": "0x74d0010ab7f39efdbdcf433c9fbc5d66dedf1969f3d3f8bb79c36e4e66f15b98",
      "blockHash": "0xd0af776c1cc6c35ef3c57163941e9ccc3ee17aaef5840ef63701cee57a8a14bf",
      "blockNumber": 79380,
      "transactionIndex": 0,
      "confirmations": null,
      "from": "0xEF247E639d49461D25F57e9362CadE3120910Ce0",
      "gasPrice": {
        "_hex": "0xcb54004aa"
      },
      "gasLimit": {
        "_hex": "0x15f90"
      },
      "to": "0xF87481A262E993a75F791E7859E71BaC36A606Eb",
      "value": {
        "_hex": "0xb0f11972963b00000"
      },
      "nonce": 20,
      "data": "0x",
      "r": "0x3437d9a4cc87cf11a44e01a4cfbf3b57aa25b8ae42b07382c24ce5f114cdf3cd",
      "s": "0x409f79577498405255f6cf2eb2f6097e1c2aa6cb5485628d074a8cf829ff3200",
      "v": 27,
      "creates": null,
      "raw": "0xf86e14850cb54004aa83015f9094f87481a262e993a75f791e7859e71bac36a606eb890b0f11972963b00000801ba03437d9a4cc87cf11a44e01a4cfbf3b57aa25b8ae42b07382c24ce5f114cdf3cda0409f79577498405255f6cf2eb2f6097e1c2aa6cb5485628d074a8cf829ff3200",
      "networkId": 0,
      "chainId": 0
    }
  ]
}