{
  "hash": "0x0da43b7f59c4e370097b5fe5b02c119c02888eaeccc2af502cb695db4b67c278",
  "parentHash": "0x1ecde4bc90781eb83616865876abe03c1d96cbb5c001c4c8cfdd23a236d8bded",
  "number": 46685,
  "timestamp": 1438927408,
  "nonce": "0xdbcc410f4f8e20c6",
  "difficulty": 1461039985371,
  "gasLimit": {
    "_hex": "0x7148"
  },
  "gasUsed": {
    "_hex": "0x5208"
  },
  "miner": "0xbb7B8287f3F0a933474a79eAe42CBCa977791171",
  "extraData": "0x476574682f4c5649562f76312e302e312f6c696e75782f676f312e342e32",
  "transactions": [
    {
      "hash": "0x10893338fa5633ab747450b8698457fb047098f87f78e98b3dbee3134067b6b8",
      "blockHash": "0x0da43b7f59c4e370097b5fe5b02c119c02888eaeccc2af502cb695db4b67c278",
      "blockNumber": 46685,
      "transactionIndex": 0,
      "confirmations": null,
      "from": "0x08166F02313FEae18Bb044e7877C808b55b5BF58",
      "gasPrice": {
        "_hex": "0x746a528800"
      },
      "gasLimit": {
        "_hex": "0x5208"
      },
      "to": "0xad00B7a324f31351d397408c8c3952Ea198317eB",
      "value": {
        "_hex": "0x4563918244f40000"
      },
      "nonce": 0,
      "data": "0x",
      "r": "0xf693cb3344d38612510fa5222820b90628cde038089d04db424054ee0d7e9789",
      "s": "0x4c28ae499d2c1a54a82e11aee43af84c0fd2091476fc3451a9bc1f15538ce170",
      "v": 28,
      "creates": null,
      "raw": "0xf86c8085746a52880082520894ad00b7a324f31351d397408c8c3952ea198317eb884563918244f40000801ca0f693cb3344d38612510fa5222820b90628cde038089d04db424054ee0d7e9789a04c28ae499d2c1a54a82e11aee43af84c0fd2091476fc3451a9bc1f15538ce170",
      "networkId": 0,
      "chainId": 0
    }
  ]
}