{
  "hash": "0xd8bf55233cbeb32e4292e0836ecf80dbabee1af448f97d66346216e2d32ac817",
  "parentHash": "0x63a83d54613074fec2040aea6914e17289cf5f79bbf058db5b54713a09a73e66",
  "number": 46736,
  "timestamp": 1438928331,
  "nonce": "0x6261852387005727",
  "difficulty": 1453204803814,
  "gasLimit": {
    "_hex": "0x7581"
  },
  "gasUsed": {
    "_hex": "0x5208"
  },
  "miner": "0x0037ce3d4B7f8729C8607D8D0248252Be68202c0",
  "extraData": "0x476574682f76312e302e312f77696e646f77732f676f312e342e32",
  "transactions": [
    {
      "hash": "0x37d412c4c46f6b005a629696b42ab6598ce1053e0124796532e31b73309a7cdf",
      "blockHash": "0xd8bf55233cbeb32e4292e0836ecf80dbabee1af448f97d66346216e2d32ac817",
      "blockNumber": 46736,
      "transactionIndex": 0,
      "confirmations": null,
      "from": "0xB0bF4A71F730782368Ef660FE6D298F432F95450",
      "gasPrice": {
        "_hex": "0xd9f43c16a"
      },
      "gasLimit": {
        "_hex": "0x5208"
      },
      "to": "0x32Be343B94f860124dC4fEe278FDCBD38C102D88",
      "value": {
        "_hex": "0x6c6b8ef3c369b00000"
      },
      "nonce": 2,
      "data": "0x",
      "r": "0xd4f14c439478403393f8b41b43337d5f16e29d2722cb0d66d0ad49137f61d18e",
      "s": "0x79e63d69f0eff6cf1682c56fbfa458017361f25063fcea73c62093b17e84407d",
      "v": 27,
      "creates": null,
      "raw": "0xf86d02850d9f43c16a8252089432be343b94f860124dc4fee278fdcbd38c102d88896c6b8ef3c369b00000801ba0d4f14c439478403393f8b41b43337d5f16e29d2722cb0d66d0ad49137f61d18ea079e63d69f0eff6cf1682c56fbfa458017361f25063fcea73c62093b17e84407d",
      "networkId": 0,
      "chainId": 0
    }
  ]
}