{
  "hash": "0x67e828f5aed8ed94699a46b9f9c4010254ea8715bb1047ab66183d9f6bd1156a",
  "parentHash": "0x10ed33cd65cbb39bcb97ddb77f03216553e33791e86cb8945030ebd5dccc3522",
  "number": 97235,
  "timestamp": 1439753013,
  "nonce": "0xbe42b0a2ff65c5c0",
  "difficulty": 3774246163823,
  "gasLimit": {
    "_hex": "0x2fefd5"
  },
  "gasUsed": {
    "_hex": "0x520c"
  },
  "miner": "0xe6A7a1d47ff21B6321162AEA7C6CB457D5476Bca",
  "extraData": "0x476574682f76312e302e312d38326566323666362f6c696e75782f676f312e34",
  "transactions": [
    {
      "hash": "0xe8a651019cc16d771e660f2fe75a7534ab6a0bc9dacbfaeba7cac1796f98509c",
      "blockHash": "0x67e828f5aed8ed94699a46b9f9c4010254ea8715bb1047ab66183d9f6bd1156a",
      "blockNumber": 97235,
      "transactionIndex": 0,
      "confirmations": null,
      "from": "0x0BE1Bcb90343FAe5303173F461Bd914A4839056c",
      "gasPrice": {
        "_hex": "0xe1810b0bd"
      },
      "gasLimit": {
        "_hex": "0x7530"
      },
      "to": "0x267D36A148c0E28404Ea454196466C0bdEdb651E",
      "value": {
        "_hex": "0x1b1ae4d6e2ef500000"
      },
      "nonce": 0,
      "data": "0x00",
      "r": "0x57e96d2f4dd1a66df7d8c6f3d3887ea03b5d96be5b3ba1e88ed76c37892db952",
      "s": "0x21a0d06f1978b2f7e699f28b2754a7fad47b226aafc53bd991bc2d83237ed083",
      "v": 28,
      "creates": null,
      "raw": "0xf86d80850e1810b0bd82753094267d36a148c0e28404ea454196466c0bdedb651e891b1ae4d6e2ef500000001ca057e96d2f4dd1a66df7d8c6f3d3887ea03b5d96be5b3ba1e88ed76c37892db952a021a0d06f1978b2f7e699f28b2754a7fad47b226aafc53bd991bc2d83237ed083",
      "networkId": 0,
      "chainId": 0
    }
  ]
}