{
  "hash": "0x12b2df3828d33cd6003c2d0731f8f725daff454c4d0df8dea96d095dbdfe83e4",
  "parentHash": "0x282dbdf1f02031d6a0dce9a44b463b49eee5dae769ecab36e9e2429bfe4eca77",
  "number": 82517,
  "timestamp": 1439520693,
  "nonce": "0xda609ccde2aaa2a8",
  "difficulty": 2375270692569,
  "gasLimit": {
    "_hex": "0x2fefd8"
  },
  "gasUsed": {
    "_hex": "0x546c"
  },
  "miner": "0x897d64aD0a333394b4E4ae8e8DCccdbc71d4E4E8",
  "extraData": "0x",
  "transactions": [
    {
      "hash": "0xcebbbd79664909cf8d4b9f856ac7da32bc4f31bbbf69e0693aa7fb8ca2414991",
      "blockHash": "0x12b2df3828d33cd6003c2d0731f8f725daff454c4d0df8dea96d095dbdfe83e4",
      "blockNumber": 82517,
      "transactionIndex": 0,
      "confirmations": null,
      "from": "0xD5A7BeC332aDDE18b3104b5792546aA59b879b52",
      "gasPrice": {
        "_hex": "0x110c8f7d8de"
      },
      "gasLimit": {
        "_hex": "0xc350"
      },
      "to": "0x2910543Af39abA0Cd09dBb2D50200b3E800A63D2",
      "value": {
        "_hex": "0xde0b6b3a7640000"
      },
      "nonce": 0,
      "data": "0x454e4e4a3243415930",
      "r": "0xb1108c4dc130a1ccf2b01ab148160197d1849c489ec0536f8fb56557b593df5f",
      "s": "0xb912933fa71918cacaec120bde3272f96e3053463a8a50ed3107323f61975752",
      "v": 28,
      "creates": null,
      "raw": "0xf87680860110c8f7d8de82c350942910543af39aba0cd09dbb2d50200b3e800a63d2880de0b6b3a764000089454e4e4a32434159301ca0b1108c4dc130a1ccf2b01ab148160197d1849c489ec0536f8fb56557b593df5fa0b912933fa71918cacaec120bde3272f96e3053463a8a50ed3107323f61975752",
      "networkId": 0,
      "chainId": 0
    }
  ]
}