{
  "hash": "0xce5db5a06dee0a22ec392b81a543e95672051f79d3dcc3b5db4eb845b9389d33",
  "parentHash": "0x6a976d6fa2e83daea8145caf1bd68aa988f15d389e8ee58da6990f7628de4ca7",
  "number": 48714,
  "timestamp": 1438961684,
  "nonce": "0xa81f8d3378f40a9a",
  "difficulty": 1475741436431,
  "gasLimit": {
    "_hex": "0x1ca5e"
  },
  "gasUsed": {
    "_hex": "0xa8d8"
  },
  "miner": "0xC0EdE9a639d107851462c15f2fb729c7c61bBf62",
  "extraData": "0x476574682f76312e302e312f6c696e75782f676f312e342e32",
  "transactions": [
    {
      "hash": "0xa4b7e23ca607178ef59928c727c59180962ea2d972688fba24a0c234cf1ed987",
      "blockHash": "0xce5db5a06dee0a22ec392b81a543e95672051f79d3dcc3b5db4eb845b9389d33",
      "blockNumber": 48714,
      "transactionIndex": 0,
      "confirmations": null,
      "from": "0x4c09123E222F19d09D6bb4DBf5352c93DF4Fd23a",
      "gasPrice": {
        "_hex": "0xcf4ac7d5a"
      },
      "gasLimit": {
        "_hex": "0x15f90"
      },
      "to": "0x2910543Af39abA0Cd09dBb2D50200b3E800A63D2",
      "value": {
        "_hex": "0xde0b6b3a7640000"
      },
      "nonce": 0,
      "data": "0x454e4b3441344a3852",
      "r": "0x7cdf9b4fd386b6ba8c43d401d3af9a7c5a8e03e0676fcbb9faf2fcb333784a7a",
      "s": "0x1f883ea1148bb08d0be7e1532c54bb9ac32a027ace63028565f5197ea0c68a85",
      "v": 27,
      "creates": null,
      "raw": "0xf87680850cf4ac7d5a83015f90942910543af39aba0cd09dbb2d50200b3e800a63d2880de0b6b3a764000089454e4b3441344a38521ba07cdf9b4fd386b6ba8c43d401d3af9a7c5a8e03e0676fcbb9faf2fcb333784a7aa01f883ea1148bb08d0be7e1532c54bb9ac32a027ace63028565f5197ea0c68a85",
      "networkId": 0,
      "chainId": 0
    },
    {
      "hash": "0x9f474ad754377900dbdd4915f5ca8eb216134282b2f28a976c156343fd6381b4",
      "blockHash": "0xce5db5a06dee0a22ec392b81a543e95672051f79d3dcc3b5db4eb845b9389d33",
      "blockNumber": 48714,
      "transactionIndex": 1,
      "confirmations": null,
      "from": "0xdd2F1e6e498202e86D8f5442Af596580A4f03c2C",
      "gasPrice": {
        "_hex": "0xcb6b8fe05"
      },
      "gasLimit": {
        "_hex": "0x55f0"
      },
      "to": "0x2910543Af39abA0Cd09dBb2D50200b3E800A63D2",
      "value": {
        "_hex": "0x1158e460913d00000"
      },
      "nonce": 3,
      "data": "0x454e3756465a343052",
      "r": "0x965e0d6a7cbe1c9f29865331e0e052cfd3552a5b06a5d1f95532e091c3439be2",
      "s": "0x65e5367afd3714bac2d8d2d3fd35d0c69a21f4180d9914d5d04ce2a6a74112b4",
      "v": 27,
      "creates": null,
      "raw": "0xf87603850cb6b8fe058255f0942910543af39aba0cd09dbb2d50200b3e800a63d28901158e460913d0000089454e3756465a3430521ba0965e0d6a7cbe1c9f29865331e0e052cfd3552a5b06a5d1f95532e091c3439be2a065e5367afd3714bac2d8d2d3fd35d0c69a21f4180d9914d5d04ce2a6a74112b4",
      "networkId": 0,
      "chainId": 0
    }
  ]
}