{
  "hash": "0xe7d05c81f9c0c1d14c45c995aacbae3f0a4d8057893743aa48cc27d202209e17",
  "parentHash": "0x31e14f89f459b560c19ab4b1a92fb238f179b02f7df23208df8c681df19973ee",
  "number": 57662,
  "timestamp": 1439107334,
  "nonce": "0xeabd07c0cdba2b94",
  "difficulty": 1733605311723,
  "gasLimit": {
    "_hex": "0x2fefd8"
  },
  "gasUsed": {
    "_hex": "0x546c"
  },
  "miner": "0xeB1325C8D9d3ea8D74aC11F4B00F1B2367686319",
  "extraData": "0x476574682f76312e302e312f77696e646f77732f676f312e342e32",
  "transactions": [
    {
      "hash": "0xf767f73f12cb9f061eee8441aa57a7c95344920051ecf42702a4673fd227b68d",
      "blockHash": "0xe7d05c81f9c0c1d14c45c995aacbae3f0a4d8057893743aa48cc27d202209e17",
      "blockNumber": 57662,
      "transactionIndex": 0,
      "confirmations": null,
      "from": "0x5607590059a9Fec1881149a44b36949AEf85d560",
      "gasPrice": {
        "_hex": "0x110c8f7d8de"
      },
      "gasLimit": {
        "_hex": "0xc350"
      },
      "to": "0x2910543Af39abA0Cd09dBb2D50200b3E800A63D2",
      "value": {
        "_hex": "0x6c5db2a4d815dc0000"
      },
      "nonce": 0,
      "data": "0x454e5845424e594730",
      "r": "0x8259ca845ebe0b7e242d60fca2fe837f247729f22424ebdeec1355faf6129896",
      "s": "0xf08a3d6d2cbda432581fad6c8f5acb45db4bf99899c86532aca3a68d36c910fb",
      "v": 27,
      "creates": null,
      "raw": "0xf87780860110c8f7d8de82c350942910543af39aba0cd09dbb2d50200b3e800a63d2896c5db2a4d815dc000089454e5845424e5947301ba08259ca845ebe0b7e242d60fca2fe837f247729f22424ebdeec1355faf6129896a0f08a3d6d2cbda432581fad6c8f5acb45db4bf99899c86532aca3a68d36c910fb",
      "networkId": 0,
      "chainId": 0
    }
  ]
}