{
  "hash": "0xfd986efe985b99413ab57d1a8cb4b7200293fcf832b62f12c21c68348b326964",
  "parentHash": "0x7feef42baed9d7b417ae8f1b29f5be8d75cd0a4272afe196439aeaec0d934bbb",
  "number": 64829,
  "timestamp": 1439226888,
  "nonce": "0x379d45cd767f2e08",
  "difficulty": 1901438278034,
  "gasLimit": {
    "_hex": "0x2fefd8"
  },
  "gasUsed": {
    "_hex": "0x91df8"
  },
  "miner": "0x3222BA3F3e79eA0e31467EEE7639B57923558cCD",
  "extraData": "0x",
  "transactions": [
    {
      "hash": "0xa9f262ae87368bb464072a169be1d4db0284928dfc051a64edb52e1c748ad4ee",
      "blockHash": "0xfd986efe985b99413ab57d1a8cb4b7200293fcf832b62f12c21c68348b326964",
      "blockNumber": 64829,
      "transactionIndex": 0,
      "confirmations": null,
      "from": "0x6f137a71A6f197dF2cBBF010dcbD3C444Ef5c925",
      "gasPrice": {
        "_hex": "0xcfb5b272d"
      },
      "gasLimit": {
        "_hex": "0x7a120"
      },
      "to": "0x109C4f2CCc82C4d77Bde15F306707320294Aea3F",
      "value": {
        "_hex": "0xde0b6b3a7640000"
      },
      "nonce": 1,
      "data": "0x",
      "r": "0xd270919d5e7cb8919948a6c8ce608602d9465f954bb880c0889ebab3cf49cb4e",
      "s": "0x04185b498882f06e7daf0130f11bfa79754f08e64aaa6841b3b9f388081500b7",
      "v": 27,
      "creates": null,
      "raw": "0xf86d01850cfb5b272d8307a12094109c4f2ccc82c4d77bde15f306707320294aea3f880de0b6b3a7640000801ba0d270919d5e7cb8919948a6c8ce608602d9465f954bb880c0889ebab3cf49cb4ea004185b498882f06e7daf0130f11bfa79754f08e64aaa6841b3b9f388081500b7",
      "networkId": 0,
      "chainId": 0
    },
    {
      "hash": "0x2c36c06c4fc43fbbe358b76647ed8b3e9b8e342efe49046e2a31893bd9103315",
      "blockHash": "0xfd986efe985b99413ab57d1a8cb4b7200293fcf832b62f12c21c68348b326964",
      "blockNumber": 64829,
      "transactionIndex": 1,
      "confirmations": null,
      "from": "0xd97997245B08eB1176F4f99100e0Ad3cC001df91",
      "gasPrice": {
        "_hex": "0xba43b7400"
      },
      "gasLimit": {
        "_hex": "0x15f90"
      },
      "to": "0x793AE8C1b1a160BFc07BFB0d04F85eab1A71F4f2",
      "value": {
        "_hex": "0x0"
      },
      "nonce": 0,
      "data": "0x3ba15036",
      "r": "0xc0644e07d3151eb8ad4314ad677921afdda29e139df9830ea8c6081bf177b26d",
      "s": "0x7b8f457143c429adc59afbecfa8e7e12e72443c8a3167194ef2314d68fd56df7",
      "v": 27,
      "creates": null,
      "raw": "0xf86980850ba43b740083015f9094793ae8c1b1a160bfc07bfb0d04f85eab1a71f4f280843ba150361ba0c0644e07d3151eb8ad4314ad677921afdda29e139df9830ea8c6081bf177b26da07b8f457143c429adc59afbecfa8e7e12e72443c8a3167194ef2314d68fd56df7",
      "networkId": 0,
      "chainId": 0
    },
    {
      "hash": "0x5038713a5ffe1e6a0a3f0ef4b655bbff1a2b6a56365592eacdb01058c6a1a7f5",
      "blockHash": "0xfd986efe985b99413ab57d1a8cb4b7200293fcf832b62f12c21c68348b326964",
      "blockNumber": 64829,
      "transactionIndex": 2,
      "confirmations": null,
      "from": "0x4a64F7FB0c7Bae13c04e09801071184333ce52Be",
      "gasPrice": {
        "_hex": "0xba43b7400"
      },
      "gasLimit": {
        "_hex": "0x15f90"
      },
      "to": "0x793AE8C1b1a160BFc07BFB0d04F85eab1A71F4f2",
      "value": {
        "_hex": "0x0"
      },
      "nonce": 0,
      "data": "0x3ba15036",
      "r": "0x4c624346ba6c7c79ecb61f179164e07d84a14e38ad324d544e0425f42cae9bc9",
      "s": "0x62178d2cb5f9a39347a2d6449745fab013768b6a06cc784f41d2d9124945b883",
      "v": 28,
      "creates": null,
      "raw": "0xf86980850ba43b740083015f9094793ae8c1b1a160bfc07bfb0d04f85eab1a71f4f280843ba150361ca04c624346ba6c7c79ecb61f179164e07d84a14e38ad324d544e0425f42cae9bc9a062178d2cb5f9a39347a2d6449745fab013768b6a06cc784f41d2d9124945b883",
      "networkId": 0,
      "chainId": 0
    }
  ]
}