{
  "hash": "0x0f2ae643091ec43bbf1cc1a658a92c7cfef4786d8a4256b676975399a2424f7f",
  "parentHash": "0x79da69042e8bdd25580add96e6ed5215bbb9f53e2dbe212598d676bdc7336a0a",
  "number": 65666,
  "timestamp": 1439240943,
  "nonce": "0x0e662f271b34771d",
  "difficulty": 1935909453220,
  "gasLimit": {
    "_hex": "0x2fefd8"
  },
  "gasUsed": {
    "_hex": "0x122a1"
  },
  "miner": "0x212abb9E6D2AA7f4589C491D45d56A44Df8bcBEF",
  "extraData": "0x",
  "transactions": [
    {
      "hash": "0x3431a407ff7a6f4b58771c9bcaea9836288857e14b703a43f1bda51afcba17d1",
      "blockHash": "0x0f2ae643091ec43bbf1cc1a658a92c7cfef4786d8a4256b676975399a2424f7f",
      "blockNumber": 65666,
      "transactionIndex": 0,
      "confirmations": null,
      "from": "0x8C7bAEA34346a2E47026485BCD8f323012dEA6aA",
      "gasPrice": {
        "_hex": "0x10bf6dde343"
      },
      "gasLimit": {
        "_hex": "0x55f0"
      },
      "to": "0x2910543Af39abA0Cd09dBb2D50200b3E800A63D2",
      "value": {
        "_hex": "0x22b1c8c1227a00000"
      },
      "nonce": 0,
      "data": "0x454e47395552393038",
      "r": "0x570231fa56306414d7916074f444ab24572594955668ab4179d00983bcce7bbb",
      "s": "0x1e0dbba289c9c33f69f7d7affaf7d48a38eeef274b548e42f849705a413f0d3a",
      "v": 28,
      "creates": null,
      "raw": "0xf8778086010bf6dde3438255f0942910543af39aba0cd09dbb2d50200b3e800a63d289022b1c8c1227a0000089454e473955523930381ca0570231fa56306414d7916074f444ab24572594955668ab4179d00983bcce7bbba01e0dbba289c9c33f69f7d7affaf7d48a38eeef274b548e42f849705a413f0d3a",
      "networkId": 0,
      "chainId": 0
    },
    {
      "hash": "0x9e66dc168faa9cac142223d388d3f1c71f94d7d2559c35f7e5afc725a1845184",
      "blockHash": "0x0f2ae643091ec43bbf1cc1a658a92c7cfef4786d8a4256b676975399a2424f7f",
      "blockNumber": 65666,
      "transactionIndex": 1,
      "confirmations": null,
      "from": "0xC2B0FB302729ef0f4aa96C0E02cC2346459294DF",
      "gasPrice": {
        "_hex": "0xd7d40ace3"
      },
      "gasLimit": {
        "_hex": "0x15f90"
      },
      "to": "0xcE2b6a73E0155C41C002D0745D93D9BEd0fbD019",
      "value": {
        "_hex": "0xde0b6b3a7640000"
      },
      "nonce": 0,
      "data": "0x",
      "r": "0x2916ba25784aa90c7210db8cec5684ad6d6e95dc74ae5fde337471f86e7438e4",
      "s": "0x359b4593ffebb7bc4cb7e4ce7de2c7f60192391b16540e95788ce81051d97694",
      "v": 28,
      "creates": null,
      "raw": "0xf86d80850d7d40ace383015f9094ce2b6a73e0155c41c002d0745d93d9bed0fbd019880de0b6b3a7640000801ca02916ba25784aa90c7210db8cec5684ad6d6e95dc74ae5fde337471f86e7438e4a0359b4593ffebb7bc4cb7e4ce7de2c7f60192391b16540e95788ce81051d97694",
      "networkId": 0,
      "chainId": 0
    },
    {
      "hash": "0x3e706aa4cce32031cae7cde8c5b2aaed5ba4b3fbd51be5823fb896c8858e18a2",
      "blockHash": "0x0f2ae643091ec43bbf1cc1a658a92c7cfef4786d8a4256b676975399a2424f7f",
      "blockNumber": 65666,
      "transactionIndex": 2,
      "confirmations": null,
      "from": "0x976349705b839e2F5719387Fb27D2519d519da03",
      "gasPrice": {
        "_hex": "0xd10026b3d"
      },
      "gasLimit": {
        "_hex": "0x15f90"
      },
      "to": "0x125B606C67E8066Da65069652b656c19717745Fa",
      "value": {
        "_hex": "0x1441a56a29b5854"
      },
      "nonce": 7,
      "data": "0xa55526db",
      "r": "0x6bcdfe2ecc97b4ce8955a59ba3f9038c831651047f113a0edee26c4fe501426b",
      "s": "0x4516752c22b68277c8afc6c0dc35788cb2244fd49915e684f77680cfe833b41a",
      "v": 28,
      "creates": null,
      "raw": "0xf87107850d10026b3d83015f9094125b606c67e8066da65069652b656c19717745fa8801441a56a29b585484a55526db1ca06bcdfe2ecc97b4ce8955a59ba3f9038c831651047f113a0edee26c4fe501426ba04516752c22b68277c8afc6c0dc35788cb2244fd49915e684f77680cfe833b41a",
      "networkId": 0,
      "chainId": 0
    }
  ]
}