{
  "hash": "0xd672eab7cf9c740f7e519ab83a823077407555c1c0b99dd41caefe0179efdfa3",
  "parentHash": "0xe46265423035fe81f7ef926e80389c88385a447dc3586c6715ed866a5c997f05",
  "number": 95476,
  "timestamp": 1439724735,
  "nonce": "0x2d5a3a2b2eb023ab",
  "difficulty": 3607446568663,
  "gasLimit": {
    "_hex": "0x2fefd8"
  },
  "gasUsed": {
    "_hex": "0x5208"
  },
  "miner": "0xe6A7a1d47ff21B6321162AEA7C6CB457D5476Bca",
  "extraData": "0x476574682f76312e302e312d38326566323666362f6c696e75782f676f312e34",
  "transactions": [
    {
      "hash": "0x05ff610449a7c72afa44b1d3abbc8aefde5189f78f8ea1d5f6db024128d8e7ee",
      "blockHash": "0xd672eab7cf9c740f7e519ab83a823077407555c1c0b99dd41caefe0179efdfa3",
      "blockNumber": 95476,
      "transactionIndex": 0,
      "confirmations": null,
      "from": "0x007f7f58D3eb5b7510A301eCC749FC1fCDDBE14D",
      "gasPrice": {
        "_hex": "0xcc8ddf695"
      },
      "gasLimit": {
        "_hex": "0x15f90"
      },
      "to": "0xb1abce2918E21ddb93AA452731a12672A3d9F75a",
      "value": {
        "_hex": "0x4563918244f40000"
      },
      "nonce": 58,
      "data": "0x",
      "r": "0x51eaf63a7e5f86e601ab2ca0a439d846d033cddb4c2477f21ce5935a092f55da",
      "s": "0x67d081791f8177dd1b8ff319e77519ff4e72e74de329a04ac59fda6748d3b43a",
      "v": 28,
      "creates": null,
      "raw": "0xf86d3a850cc8ddf69583015f9094b1abce2918e21ddb93aa452731a12672a3d9f75a884563918244f40000801ca051eaf63a7e5f86e601ab2ca0a439d846d033cddb4c2477f21ce5935a092f55daa067d081791f8177dd1b8ff319e77519ff4e72e74de329a04ac59fda6748d3b43a",
      "networkId": 0,
      "chainId": 0
    }
  ]
}