{
  "hash": "0x92162512bfd5437be059d0dc7e5c500780499179e18a74e8e0e1680e4b8c54d8",
  "parentHash": "0x00dc2b5c2b4e840e6b5d5c475634d5b73ebe9b4cb9ceb075a5be0585d44b42eb",
  "number": 46448,
  "timestamp": 1438923283,
  "nonce": "0xe99c2a8d3f16ed53",
  "difficulty": 1470385204358,
  "gasLimit": {
    "_hex": "0x615c"
  },
  "gasUsed": {
    "_hex": "0x5208"
  },
  "miner": "0x2134e2a2b718DCa96580ECAC31E653Ea1fdd58DA",
  "extraData": "0x476574682f76312e302e312f77696e646f77732f676f312e342e32",
  "transactions": [
    {
      "hash": "0x12435cee15f2cbb40311d24beec6872f53633d5e11ebbc2856cabae6ff61b5c5",
      "blockHash": "0x92162512bfd5437be059d0dc7e5c500780499179e18a74e8e0e1680e4b8c54d8",
      "blockNumber": 46448,
      "transactionIndex": 0,
      "confirmations": null,
      "from": "0x664B099B945b899AaC84DA69dd6D4eEb3D03c8a3",
      "gasPrice": {
        "_hex": "0xba43b74000"
      },
      "gasLimit": {
        "_hex": "0x5208"
      },
      "to": "0xFb75d7e985405567216Fd0917Eb8bB3b3E63fd48",
      "value": {
        "_hex": "0x16345785d8a0000"
      },
      "nonce": 0,
      "data": "0x",
      "r": "0x91e6a2ab7355199d3a1fd38582c42645f91f275a1ad67af891bf4d0850e9034b",
      "s": "0x55dc2ee7d063fa995e471c9249b49ec012e7694e343609a0de530c55f70045d9",
      "v": 27,
      "creates": null,
      "raw": "0xf86c8085ba43b7400082520894fb75d7e985405567216fd0917eb8bb3b3e63fd4888016345785d8a0000801ba091e6a2ab7355199d3a1fd38582c42645f91f275a1ad67af891bf4d0850e9034ba055dc2ee7d063fa995e471c9249b49ec012e7694e343609a0de530c55f70045d9",
      "networkId": 0,
      "chainId": 0
    }
  ]
}