{
  "hash": "0x889c421abc62a48641eee140519e6da8c9dc01d85d8f5c4fbc3c13e3c6e4cb3e",
  "parentHash": "0xfc1dd3249585b593ad18822a95873c75779ccbe8a420b457be380b977fc38e87",
  "number": 47218,
  "timestamp": 1438936285,
  "nonce": "0xfaa1e51d379b21f7",
  "difficulty": 1460233976906,
  "gasLimit": {
    "_hex": "0xa465"
  },
  "gasUsed": {
    "_hex": "0xa410"
  },
  "miner": "0x9746c7e1ef2bd21FF3997fa467593a89cb852BD0",
  "extraData": "0x476574682f76312e302e312f77696e646f77732f676f312e342e32",
  "transactions": [
    {
      "hash": "0x99f1097abd8f33a68f0ed63d60de5f3e7e2a3e0579b90d5f46a4f201c658b46d",
      "blockHash": "0x889c421abc62a48641eee140519e6da8c9dc01d85d8f5c4fbc3c13e3c6e4cb3e",
      "blockNumber": 47218,
      "transactionIndex": 0,
      "confirmations": null,
      "from": "0x1406854D149E081aC09Cb4CA560Da463f3123059",
      "gasPrice": {
        "_hex": "0xe7d085b7e"
      },
      "gasLimit": {
        "_hex": "0x9c40"
      },
      "to": "0xa0E74ae010D51894734c308D612131056bB721AD",
      "value": {
        "_hex": "0x5f68e8131ecf80000"
      },
      "nonce": 9,
      "data": "0x",
      "r": "0xd3c39a9c531e2c6eb4c11355d0e553ff8f39e136d121109dd7163b8ac759b5d9",
      "s": "0x6bd9643ce14a57db154a3e5fb1af12cd6854e00e3e82ceb8b1e06b336b44af93",
      "v": 27,
      "creates": null,
      "raw": "0xf86d09850e7d085b7e829c4094a0e74ae010d51894734c308d612131056bb721ad8905f68e8131ecf80000801ba0d3c39a9c531e2c6eb4c11355d0e553ff8f39e136d121109dd7163b8ac759b5d9a06bd9643ce14a57db154a3e5fb1af12cd6854e00e3e82ceb8b1e06b336b44af93",
      "networkId": 0,
      "chainId": 0
    },
    {
      "hash": "0x95844e6c54b4aafc8e1f75784127529280e75c3a980d91f6dfca1c1b0eb078fb",
      "blockHash": "0x889c421abc62a48641eee140519e6da8c9dc01d85d8f5c4fbc3c13e3c6e4cb3e",
      "blockNumber": 47218,
      "transactionIndex": 1,
      "confirmations": null,
      "from": "0xe6A7a1d47ff21B6321162AEA7C6CB457D5476Bca",
      "gasPrice": {
        "_hex": "0xe7cc476bd"
      },
      "gasLimit": {
        "_hex": "0x5208"
      },
      "to": "0xEe80Ef3c49d9465c7fC2B3D7373FdbBbc3FE282f",
      "value": {
        "_hex": "0x70f89193d7505e40"
      },
      "nonce": 78,
      "data": "0x",
      "r": "0x575f2d6750ed42ef50f6fa356c27e3d4c42f7c97f5217f16fac794bbf05f84f6",
      "s": "0x2e709c44893f46894f687664d3d2cf396b7c8b2cb73e817cee25a68fdd1e76a0",
      "v": 28,
      "creates": null,
      "raw": "0xf86c4e850e7cc476bd82520894ee80ef3c49d9465c7fc2b3d7373fdbbbc3fe282f8870f89193d7505e40801ca0575f2d6750ed42ef50f6fa356c27e3d4c42f7c97f5217f16fac794bbf05f84f6a02e709c44893f46894f687664d3d2cf396b7c8b2cb73e817cee25a68fdd1e76a0",
      "networkId": 0,
      "chainId": 0
    }
  ]
}