{
  "hash": "0x80d20e3973fb655fc4a2f875020ffdf32b8473afcb4173dc0da48d4386c9d434",
  "parentHash": "0xaae4c4843114386757eaa6b794ffa1c3a633f1d8885420e0c6db7d69d18d076c",
  "number": 47477,
  "timestamp": 1438941145,
  "nonce": "0xb4f0126c4523560c",
  "difficulty": 1448118349813,
  "gasLimit": {
    "_hex": "0xc365"
  },
  "gasUsed": {
    "_hex": "0xa410"
  },
  "miner": "0xcd39cBcF71Ff4e9592F94db59db4ff45e34b174f",
  "extraData": "0x476574682f76312e302e312f6c696e75782f676f312e342e32",
  "transactions": [
    {
      "hash": "0x19acd2ce54d4fe7cc5649e8cc681584eb635c8bc09e877224aece485ac9b5894",
      "blockHash": "0x80d20e3973fb655fc4a2f875020ffdf32b8473afcb4173dc0da48d4386c9d434",
      "blockNumber": 47477,
      "transactionIndex": 0,
      "confirmations": null,
      "from": "0xe6A7a1d47ff21B6321162AEA7C6CB457D5476Bca",
      "gasPrice": {
        "_hex": "0x1bc1a2c5fe"
      },
      "gasLimit": {
        "_hex": "0x5208"
      },
      "to": "0x958E5cd47A35fe3fE5A29A9979CeA71E19073af2",
      "value": {
        "_hex": "0x203f27881760f1cd0"
      },
      "nonce": 159,
      "data": "0x",
      "r": "0x528098db9270ddb7b89dc420b1664d74d8f0a2ee7ecdb21146ca1817dbe0803a",
      "s": "0x18e09081c05b8b9fe4d1f74c38dbe543d5798446af103dc0f2c2923da7b9699b",
      "v": 27,
      "creates": null,
      "raw": "0xf86e819f851bc1a2c5fe82520894958e5cd47a35fe3fe5a29a9979cea71e19073af2890203f27881760f1cd0801ba0528098db9270ddb7b89dc420b1664d74d8f0a2ee7ecdb21146ca1817dbe0803aa018e09081c05b8b9fe4d1f74c38dbe543d5798446af103dc0f2c2923da7b9699b",
      "networkId": 0,
      "chainId": 0
    },
    {
      "hash": "0xca9028ea7f1ba37581c4b5a74c6d45d4cd189ca2621d56a4559f7b5da3834399",
      "blockHash": "0x80d20e3973fb655fc4a2f875020ffdf32b8473afcb4173dc0da48d4386c9d434",
      "blockNumber": 47477,
      "transactionIndex": 1,
      "confirmations": null,
      "from": "0xe6A7a1d47ff21B6321162AEA7C6CB457D5476Bca",
      "gasPrice": {
        "_hex": "0x1bc1a2c5fe"
      },
      "gasLimit": {
        "_hex": "0x5208"
      },
      "to": "0x51d8782D82258441078E57141Daa8FFdDAf8f57D",
      "value": {
        "_hex": "0x221408bebfcfb2cf0"
      },
      "nonce": 160,
      "data": "0x",
      "r": "0xa2f83363f93511469255610a42bcaedf0e65374f12262162ef201a2a029495d2",
      "s": "0x73cd2e1c19fa135921bbb8e260b53b103aebfa60983ff4c05f6a3b6711483081",
      "v": 27,
      "creates": null,
      "raw": "0xf86e81a0851bc1a2c5fe8252089451d8782d82258441078e57141daa8ffddaf8f57d890221408bebfcfb2cf0801ba0a2f83363f93511469255610a42bcaedf0e65374f12262162ef201a2a029495d2a073cd2e1c19fa135921bbb8e260b53b103aebfa60983ff4c05f6a3b6711483081",
      "networkId": 0,
      "chainId": 0
    }
  ]
}