{
  "hash": "0x027af0f20e3ab1e9a1350276e7472fd53b659a3de79f0808f238170f87d025d7",
  "parentHash": "0x45a51b6c473215e433d7ef0118ca33eac64c09a24669d5b116978c729e12c6ed",
  "number": 78682,
  "timestamp": 1439457622,
  "nonce": "0x1f846bece74c836f",
  "difficulty": 2290906241328,
  "gasLimit": {
    "_hex": "0x2fefd8"
  },
  "gasUsed": {
    "_hex": "0x5208"
  },
  "miner": "0xbb7B8287f3F0a933474a79eAe42CBCa977791171",
  "extraData": "0x476574682f4c5649562f76312e302e312f6c696e75782f676f312e342e32",
  "transactions": [
    {
      "hash": "0x33c84a385fad3ca22537a8a24a8ad3b7b347e512b72b4a293a1c6f39c047ba1b",
      "blockHash": "0x027af0f20e3ab1e9a1350276e7472fd53b659a3de79f0808f238170f87d025d7",
      "blockNumber": 78682,
      "transactionIndex": 0,
      "confirmations": null,
      "from": "0x120A270bbC009644e35F0bB6ab13f95b8199c4ad",
      "gasPrice": {
        "_hex": "0xd55133086"
      },
      "gasLimit": {
        "_hex": "0x3d090"
      },
      "to": "0x5688C48Cb5CcD47777e6a90E2a62412933E64bD0",
      "value": {
        "_hex": "0x15af1d78b58c40000"
      },
      "nonce": 329,
      "data": "0x",
      "r": "0x4b4d32b8ab8f055387ace882dfdf8a1ecaeff05561d58256d82a21cebbee2dae",
      "s": "0x2a8fed870265bde2f2d9d312f9bde4c0bdb896a2a827b67d616ebdea66a81182",
      "v": 27,
      "creates": null,
      "raw": "0xf870820149850d551330868303d090945688c48cb5ccd47777e6a90e2a62412933e64bd089015af1d78b58c40000801ba04b4d32b8ab8f055387ace882dfdf8a1ecaeff05561d58256d82a21cebbee2daea02a8fed870265bde2f2d9d312f9bde4c0bdb896a2a827b67d616ebdea66a81182",
      "networkId": 0,
      "chainId": 0
    }
  ]
}