{
  "hash": "0x3b21f17dec16e90dd4b1b7a679edd0255b421a74bd5e8976eee22ed337842068",
  "parentHash": "0x29cf321f1069a1b83a69406d31f9437d0b3993b76dc0e061398cb6ee81cab94d",
  "number": 83402,
  "timestamp": 1439534821,
  "nonce": "0xef332a515f1578b2",
  "difficulty": 2425413443412,
  "gasLimit": {
    "_hex": "0x2fefd8"
  },
  "gasUsed": {
    "_hex": "0x5208"
  },
  "miner": "0xa70a9a7040d542C632D8e0bE7c5513A8a5Bbc752",
  "extraData": "0x",
  "transactions": [
    {
      "hash": "0xdb93764e9290c305b838f0c17f1b2a0a8bc784f7d4d3b5e89f1b27ce156bd822",
      "blockHash": "0x3b21f17dec16e90dd4b1b7a679edd0255b421a74bd5e8976eee22ed337842068",
      "blockNumber": 83402,
      "transactionIndex": 0,
      "confirmations": null,
      "from": "0x32Be343B94f860124dC4fEe278FDCBD38C102D88",
      "gasPrice": {
        "_hex": "0xd236a5d4e"
      },
      "gasLimit": {
        "_hex": "0x5208"
      },
      "to": "0xd6Bb39DA0858E6AEddcaa12a509327b2D05f5B51",
      "value": {
        "_hex": "0x3635a626d36ee00000"
      },
      "nonce": 648,
      "data": "0x",
      "r": "0xe1eb75fea39d7d53c098d7849a767e91d26814d2e4b6f2e59e1582a7b26f2c7c",
      "s": "0x78b1896e594811ce5b4bfedaad4521c4b99d4acbdca6db6dbb4751eb6dbff4c1",
      "v": 27,
      "creates": null,
      "raw": "0xf86f820288850d236a5d4e82520894d6bb39da0858e6aeddcaa12a509327b2d05f5b51893635a626d36ee00000801ba0e1eb75fea39d7d53c098d7849a767e91d26814d2e4b6f2e59e1582a7b26f2c7ca078b1896e594811ce5b4bfedaad4521c4b99d4acbdca6db6dbb4751eb6dbff4c1",
      "networkId": 0,
      "chainId": 0
    }
  ]
}