{
  "hash": "0x1b52a970e85ec3b7063b06f1ded4fd4b752cb41d413cfdcd0967951e385d9555",
  "parentHash": "0x7219fb433941d1371eabe148ed07839372a15fc70f16c1d2d3b49687063d6143",
  "number": 71485,
  "timestamp": 1439336887,
  "nonce": "0x6c86cc925383dafa",
  "difficulty": 2178280691326,
  "gasLimit": {
    "_hex": "0x2fefd8"
  },
  "gasUsed": {
    "_hex": "0x546c"
  },
  "miner": "0xf927a40C8B7F6E07c5af7FA2155B4864a4112B13",
  "extraData": "0x",
  "transactions": [
    {
      "hash": "0xa82b57cdd8695bc29268dd23efc584c4d8d6fa0dc3f54a2bf524d86993dbcffa",
      "blockHash": "0x1b52a970e85ec3b7063b06f1ded4fd4b752cb41d413cfdcd0967951e385d9555",
      "blockNumber": 71485,
      "transactionIndex": 0,
      "confirmations": null,
      "from": "0x34BDAF0a5ed72734a4c4c6CE6Cc8132EC81fb2a8",
      "gasPrice": {
        "_hex": "0xd3cc254cb"
      },
      "gasLimit": {
        "_hex": "0x61a8"
      },
      "to": "0x609E9AE0DC7196EC893bFa9C06A37421Be70bF2d",
      "value": {
        "_hex": "0x1bc16d674ec80000"
      },
      "nonce": 2,
      "data": "0x454e37465148485647",
      "r": "0x18b9566224b094ce1f0f5088b6056830b90c190919fbf292ea6b0bcc42509033",
      "s": "0x2f83d2d10df807e1165c7f250643a96bdbee5c419543b4e1d565ef6854a8bef4",
      "v": 27,
      "creates": null,
      "raw": "0xf87502850d3cc254cb8261a894609e9ae0dc7196ec893bfa9c06a37421be70bf2d881bc16d674ec8000089454e374651484856471ba018b9566224b094ce1f0f5088b6056830b90c190919fbf292ea6b0bcc42509033a02f83d2d10df807e1165c7f250643a96bdbee5c419543b4e1d565ef6854a8bef4",
      "networkId": 0,
      "chainId": 0
    }
  ]
}