{
  "hash": "0x4a5a6af6ea1d36a6e69aa73bb71d4e32743f1df1d877d30cde969c4a196feea1",
  "parentHash": "0xd597445d45415894ffc41280c4693a32148d2185e88fc4bbb2c61ed2dfabfd65",
  "number": 110438,
  "timestamp": 1439973844,
  "nonce": "0xdffdd2ad6e9401fd",
  "difficulty": 4373451628476,
  "gasLimit": {
    "_hex": "0x2fefd8"
  },
  "gasUsed": {
    "_hex": "0x19a28"
  },
  "miner": "0x77EC9ad4A7E9418774C29415CAaF4Ee0da96eF64",
  "extraData": "0x",
  "transactions": [
    {
      "hash": "0xd7a51f0ddfd636bf98aa13b37f08be293a942b7f91925974b449967a609fce6e",
      "blockHash": "0x4a5a6af6ea1d36a6e69aa73bb71d4e32743f1df1d877d30cde969c4a196feea1",
      "blockNumber": 110438,
      "transactionIndex": 0,
      "confirmations": null,
      "from": "0xA542d5046D885E5fC7Dc4006ADb648C5710Ff0ED",
      "gasPrice": {
        "_hex": "0x746a528800"
      },
      "gasLimit": {
        "_hex": "0x5b04"
      },
      "to": "0x99181ED48C7c51532622dA23e20E2B38392476A7",
      "value": {
        "_hex": "0x120a871cc0020000"
      },
      "nonce": 4,
      "data": "0x",
      "r": "0x9d75467367ffecc80f0cc8c98b39bd237855c943402d37361c7b20d415cc96a8",
      "s": "0xf9dd2851df82f3842fbd69a7892d10e8218aadfbec74c4fb77139d2d165d1b7a",
      "v": 28,
      "creates": null,
      "raw": "0xf86c0485746a528800825b049499181ed48c7c51532622da23e20e2b38392476a788120a871cc0020000801ca09d75467367ffecc80f0cc8c98b39bd237855c943402d37361c7b20d415cc96a8a0f9dd2851df82f3842fbd69a7892d10e8218aadfbec74c4fb77139d2d165d1b7a",
      "networkId": 0,
      "chainId": 0
    },
    {
      "hash": "0x1195dd706abc5a63a6b29ea345601d3dc23f63c235ad40a55498f047544fa063",
      "blockHash": "0x4a5a6af6ea1d36a6e69aa73bb71d4e32743f1df1d877d30cde969c4a196feea1",
      "blockNumber": 110438,
      "transactionIndex": 1,
      "confirmations": null,
      "from": "0x8C37447a7930187595EC51FEA6f749C4F8a96cD4",
      "gasPrice": {
        "_hex": "0xdab6e5c9a"
      },
      "gasLimit": {
        "_hex": "0x5208"
      },
      "to": "0x32Be343B94f860124dC4fEe278FDCBD38C102D88",
      "value": {
        "_hex": "0x192ee1dab785ae000"
      },
      "nonce": 8,
      "data": "0x",
      "r": "0xc09dc31bbef6a826dbbbee1eb929812a2de3ed5c80dd130dcc9c7bcddde93359",
      "s": "0x540900d93ff30da78c045eb7e9981d56a8925e7cc3a8d4f08e6599f4d559370c",
      "v": 28,
      "creates": null,
      "raw": "0xf86d08850dab6e5c9a8252089432be343b94f860124dc4fee278fdcbd38c102d88890192ee1dab785ae000801ca0c09dc31bbef6a826dbbbee1eb929812a2de3ed5c80dd130dcc9c7bcddde93359a0540900d93ff30da78c045eb7e9981d56a8925e7cc3a8d4f08e6599f4d559370c",
      "networkId": 0,
      "chainId": 0
    },
    {
      "hash": "0xe7fb1712f5db4107e3c6d4eb863d54efc30016be118ed2b48ebbd4667ea753e9",
      "blockHash": "0x4a5a6af6ea1d36a6e69aa73bb71d4e32743f1df1d877d30cde969c4a196feea1",
      "blockNumber": 110438,
      "transactionIndex": 2,
      "confirmations": null,
      "from": "0x5c34E9095588400B7CFF963daa495eFbEFCa083E",
      "gasPrice": {
        "_hex": "0xdab6e5c9a"
      },
      "gasLimit": {
        "_hex": "0x5208"
      },
      "to": "0x32Be343B94f860124dC4fEe278FDCBD38C102D88",
      "value": {
        "_hex": "0x2018fd4df9ccb000"
      },
      "nonce": 6,
      "data": "0x",
      "r": "0x203f56759f02849020d611e4625093398118e181033e785a0b3ddc6d0376e133",
      "s": "0x6cb51648a1d878566238927f69f76f0f1c650afe3dcb432f355adaa3c19671df",
      "v": 27,
      "creates": null,
      "raw": "0xf86c06850dab6e5c9a8252089432be343b94f860124dc4fee278fdcbd38c102d88882018fd4df9ccb000801ba0203f56759f02849020d611e4625093398118e181033e785a0b3ddc6d0376e133a06cb51648a1d878566238927f69f76f0f1c650afe3dcb432f355adaa3c19671df",
      "networkId": 0,
      "chainId": 0
    },
    {
      "hash": "0xe938a765f53faec9244b6be2a60ea601a9be92dfa93f794bd403add532097578",
      "blockHash": "0x4a5a6af6ea1d36a6e69aa73bb71d4e32743f1df1d877d30cde969c4a196feea1",
      "blockNumber": 110438,
      "transactionIndex": 3,
      "confirmations": null,
      "from": "0xA10DcDc99cF571e66c6Af1F1175a15686C4C6800",
      "gasPrice": {
        "_hex": "0xdab6e5c9a"
      },
      "gasLimit": {
        "_hex": "0x5208"
      },
      "to": "0x32Be343B94f860124dC4fEe278FDCBD38C102D88",
      "value": {
        "_hex": "0x2350449cde548c00"
      },
      "nonce": 6,
      "data": "0x",
      "r": "0xb1f2ff092cad5b6c56ac832015f1f61e3b9ecd50e2ac9499db7e71708b283c35",
      "s": "0x41054ea407829bbf992cb185ee4ac71f72ebc24687c91aa499d7b4a5fe005cdf",
      "v": 28,
      "creates": null,
      "raw": "0xf86c06850dab6e5c9a8252089432be343b94f860124dc4fee278fdcbd38c102d88882350449cde548c00801ca0b1f2ff092cad5b6c56ac832015f1f61e3b9ecd50e2ac9499db7e71708b283c35a041054ea407829bbf992cb185ee4ac71f72ebc24687c91aa499d7b4a5fe005cdf",
      "networkId": 0,
      "chainId": 0
    },
    {
      "hash": "0xb5fe20fc2f083c70daa6238e0570888aec16ec9906ac5270037920d0fe9f9a29",
      "blockHash": "0x4a5a6af6ea1d36a6e69aa73bb71d4e32743f1df1d877d30cde969c4a196feea1",
      "blockNumber": 110438,
      "transactionIndex": 4,
      "confirmations": null,
      "from": "0xFCb0b0382b155BE6Dd68dcdB7f29d2366D1C7502",
      "gasPrice": {
        "_hex": "0xdab6e5c9a"
      },
      "gasLimit": {
        "_hex": "0x5208"
      },
      "to": "0x32Be343B94f860124dC4fEe278FDCBD38C102D88",
      "value": {
        "_hex": "0x55ea9e1978123c00"
      },
      "nonce": 5,
      "data": "0x",
      "r": "0x4e9a5e67c94556912e0c21a31fe57e68217f3c542f48d6cd3333a8927776a735",
      "s": "0x25c210cc1788ebe022bfbdf453bc9de09af6212f5046a81069975d493a225c3d",
      "v": 28,
      "creates": null,
      "raw": "0xf86c05850dab6e5c9a8252089432be343b94f860124dc4fee278fdcbd38c102d888855ea9e1978123c00801ca04e9a5e67c94556912e0c21a31fe57e68217f3c542f48d6cd3333a8927776a735a025c210cc1788ebe022bfbdf453bc9de09af6212f5046a81069975d493a225c3d",
      "networkId": 0,
      "chainId": 0
    }
  ]
}