{
  "hash": "0xf8c3c3e55509f48c3933a82de1def310ed0b5faf7c7900a2d957aa4590662374",
  "parentHash": "0x46b708e813d2dea4078f659add2134efa8d823d2cd738f51a6066c4be40180c4",
  "number": 87841,
  "timestamp": 1439598312,
  "nonce": "0x0f8df0a25473b116",
  "difficulty": 3184903760976,
  "gasLimit": {
    "_hex": "0x2fefd8"
  },
  "gasUsed": {
    "_hex": "0x5208"
  },
  "miner": "0xe6A7a1d47ff21B6321162AEA7C6CB457D5476Bca",
  "extraData": "0x476574682f76312e302e312d38326566323666362f6c696e75782f676f312e34",
  "transactions": [
    {
      "hash": "0x2be6cf509d50cb05b3f6570d254ee5c3f4a84284df67f2bb569dcc705ec3a387",
      "blockHash": "0xf8c3c3e55509f48c3933a82de1def310ed0b5faf7c7900a2d957aa4590662374",
      "blockNumber": 87841,
      "transactionIndex": 0,
      "confirmations": null,
      "from": "0xCbe52Fc533D7Dd608C92a260b37c3F45Deb4EB33",
      "gasPrice": {
        "_hex": "0x105ec53ba23"
      },
      "gasLimit": {
        "_hex": "0x15f90"
      },
      "to": "0x365DE8355B8cDe6EfcC572f8431bFaFe38A32269",
      "value": {
        "_hex": "0xde0b6b3a7640000"
      },
      "nonce": 0,
      "data": "0x",
      "r": "0x3dd914348ef5ff7b48a606bcbd0e39936e11d5721ddf76d60e27e2a725276510",
      "s": "0x76aa89b3cf2c50bd9d6558c06502a72b66db763ab7d20229cd76b95e0ef874d9",
      "v": 28,
      "creates": null,
      "raw": "0xf86e80860105ec53ba2383015f9094365de8355b8cde6efcc572f8431bfafe38a32269880de0b6b3a7640000801ca03dd914348ef5ff7b48a606bcbd0e39936e11d5721ddf76d60e27e2a725276510a076aa89b3cf2c50bd9d6558c06502a72b66db763ab7d20229cd76b95e0ef874d9",
      "networkId": 0,
      "chainId": 0
    }
  ]
}