{
  "hash": "0xd85c1fbe2053c4350966657f9c85e6f56f728d01a6e6d8fd6d6390c34637f5db",
  "parentHash": "0xd5580f066a17a9bb5905f22d9390ea842365fc83e262d2485f0364085bfacc5b",
  "number": 94878,
  "timestamp": 1439715422,
  "nonce": "0xfa0176e17f71e45b",
  "difficulty": 3524131368753,
  "gasLimit": {
    "_hex": "0x2fefd8"
  },
  "gasUsed": {
    "_hex": "0xa410"
  },
  "miner": "0xe6A7a1d47ff21B6321162AEA7C6CB457D5476Bca",
  "extraData": "0x476574682f76312e302e312d38326566323666362f6c696e75782f676f312e34",
  "transactions": [
    {
      "hash": "0x8b719c1608612b59ab5296bce594741e6dee37ff2e3091733304f3b8fe9894b1",
      "blockHash": "0xd85c1fbe2053c4350966657f9c85e6f56f728d01a6e6d8fd6d6390c34637f5db",
      "blockNumber": 94878,
      "transactionIndex": 0,
      "confirmations": null,
      "from": "0xd70c667add50d3d9989Ef58A81a698c09f415Bff",
      "gasPrice": {
        "_hex": "0xcfe8a8244"
      },
      "gasLimit": {
        "_hex": "0x15f90"
      },
      "to": "0x3a35269a1cF41344F2288e9D11bA854991112015",
      "value": {
        "_hex": "0xb1a2bc2ec50000"
      },
      "nonce": 0,
      "data": "0x",
      "r": "0xfa9b81ece175f8ec2e0426348996f00e06f850854050b327d0789bc5eb08addf",
      "s": "0x41b14cfa5c7c846c0165d9e41271bcfe2a58e1d37f42b9e658394fb2434fac9d",
      "v": 27,
      "creates": null,
      "raw": "0xf86c80850cfe8a824483015f90943a35269a1cf41344f2288e9d11ba85499111201587b1a2bc2ec50000801ba0fa9b81ece175f8ec2e0426348996f00e06f850854050b327d0789bc5eb08addfa041b14cfa5c7c846c0165d9e41271bcfe2a58e1d37f42b9e658394fb2434fac9d",
      "networkId": 0,
      "chainId": 0
    },
    {
      "hash": "0x6956cbd05944a6feaef68bdec4ae052efff1e055023800572a7db3bc3a7ceac6",
      "blockHash": "0xd85c1fbe2053c4350966657f9c85e6f56f728d01a6e6d8fd6d6390c34637f5db",
      "blockNumber": 94878,
      "transactionIndex": 1,
      "confirmations": null,
      "from": "0x108feDb097c1DCfED441480170144D8e19BB217f",
      "gasPrice": {
        "_hex": "0xcbd97a8ae"
      },
      "gasLimit": {
        "_hex": "0x5208"
      },
      "to": "0x32Be343B94f860124dC4fEe278FDCBD38C102D88",
      "value": {
        "_hex": "0x17fb0dafa11a2400"
      },
      "nonce": 3,
      "data": "0x",
      "r": "0x68bcfa5a35435cc26d2622919b2601b123db80f1119fbfe3da1a5079c7661341",
      "s": "0x438b0523b45d219553d943cf9e324d69b42ba0563680846b6944552131eb10d1",
      "v": 27,
      "creates": null,
      "raw": "0xf86c03850cbd97a8ae8252089432be343b94f860124dc4fee278fdcbd38c102d888817fb0dafa11a2400801ba068bcfa5a35435cc26d2622919b2601b123db80f1119fbfe3da1a5079c7661341a0438b0523b45d219553d943cf9e324d69b42ba0563680846b6944552131eb10d1",
      "networkId": 0,
      "chainId": 0
    }
  ]
}