{
  "hash": "0x8e5964e60bc5462a4c082d6c4c5a2bc26783f3ebe6e1f4f82a989a158fc961ad",
  "parentHash": "0x93819f55a706175a8a268286c435e0bfe4ebb88766354f9a3e402c7ff08e87d8",
  "number": 73247,
  "timestamp": 1439365876,
  "nonce": "0xa2433f394050a0e3",
  "difficulty": 2203494691249,
  "gasLimit": {
    "_hex": "0x2fefd8"
  },
  "gasUsed": {
    "_hex": "0x522d"
  },
  "miner": "0xe6A7a1d47ff21B6321162AEA7C6CB457D5476Bca",
  "extraData": "0x476574682f76312e302e312d38326566323666362f6c696e75782f676f312e34",
  "transactions": [
    {
      "hash": "0x13fee206dd4d5f654a569eb2ddfe9e1b621329892904fffa2ae8d3e7a7b6ba87",
      "blockHash": "0x8e5964e60bc5462a4c082d6c4c5a2bc26783f3ebe6e1f4f82a989a158fc961ad",
      "blockNumber": 73247,
      "transactionIndex": 0,
      "confirmations": null,
      "from": "0x326Be8F71bFb0379f989aAB1CC1fE37f0a771f60",
      "gasPrice": {
        "_hex": "0x104005202b9"
      },
      "gasLimit": {
        "_hex": "0x15f90"
      },
      "to": "0xB86A36e3E0d2E8132F5798119148eDEF957E1912",
      "value": {
        "_hex": "0x3635c9adc5dea00000"
      },
      "nonce": 33,
      "data": "0x",
      "r": "0x278ce66cd6b0b885baf4ec6a36023c7f4d1e8f0232d16b32c6c31eed0f0dec37",
      "s": "0x6b03f07e968dd0811a249a12c93072efb85253b9c5dac04f1b298ad28cc60e50",
      "v": 27,
      "creates": null,
      "raw": "0xf86f21860104005202b983015f9094b86a36e3e0d2e8132f5798119148edef957e1912893635c9adc5dea00000801ba0278ce66cd6b0b885baf4ec6a36023c7f4d1e8f0232d16b32c6c31eed0f0dec37a06b03f07e968dd0811a249a12c93072efb85253b9c5dac04f1b298ad28cc60e50",
      "networkId": 0,
      "chainId": 0
    }
  ]
}