{
  "hash": "0xab3956b8c32a6d9fcc9cd298882cfe9338948acf041d61b96c4bda210fac5f04",
  "parentHash": "0xe843cb0b77837cd2d1185c5745e324673c625f370dca30f5c2f99b03aca6fb80",
  "number": 48459,
  "timestamp": 1438957469,
  "nonce": "0x2d4d932e1486f7f4",
  "difficulty": 1462158233260,
  "gasLimit": {
    "_hex": "0x17983"
  },
  "gasUsed": {
    "_hex": "0x546c"
  },
  "miner": "0xbb7B8287f3F0a933474a79eAe42CBCa977791171",
  "extraData": "0x476574682f4c5649562f76312e302e312f6c696e75782f676f312e342e32",
  "transactions": [
    {
      "hash": "0x494dbe9469874e8a36b3018976721dc47de692948678d97e984f9fccd105f215",
      "blockHash": "0xab3956b8c32a6d9fcc9cd298882cfe9338948acf041d61b96c4bda210fac5f04",
      "blockNumber": 48459,
      "transactionIndex": 0,
      "confirmations": null,
      "from": "0x3a84E950ed410E51b7E8801049Ab2634B285FEa1",
      "gasPrice": {
        "_hex": "0xcf0bfa505"
      },
      "gasLimit": {
        "_hex": "0x15f90"
      },
      "to": "0x2910543Af39abA0Cd09dBb2D50200b3E800A63D2",
      "value": {
        "_hex": "0x1e7e4171bf4d3a00000"
      },
      "nonce": 1,
      "data": "0x454e4d5a5136343738",
      "r": "0xafaadac2c2125aff8bae7ceba27478468a62062b841f9339db0486785526a2d2",
      "s": "0x5f72592092ec45e178f4c7cf5eb0349bbf336966e7260359da658568889cf3e2",
      "v": 28,
      "creates": null,
      "raw": "0xf87801850cf0bfa50583015f90942910543af39aba0cd09dbb2d50200b3e800a63d28a01e7e4171bf4d3a0000089454e4d5a51363437381ca0afaadac2c2125aff8bae7ceba27478468a62062b841f9339db0486785526a2d2a05f72592092ec45e178f4c7cf5eb0349bbf336966e7260359da658568889cf3e2",
      "networkId": 0,
      "chainId": 0
    }
  ]
}