{
  "hash": "0x6a0338cb52a737c64dd5f12d93dfbf09cb9ab26c2eb96499c7e0c9db2ca5c9e3",
  "parentHash": "0x6edd4e017577fb37c22a2814de769ecff03fb54d996ed8dd1ec29252dbcb04a6",
  "number": 69827,
  "timestamp": 1439310313,
  "nonce": "0x4481dcd694e03693",
  "difficulty": 2099342421392,
  "gasLimit": {
    "_hex": "0x2fefd8"
  },
  "gasUsed": {
    "_hex": "0x5208"
  },
  "miner": "0x88D74a59454F6cF3B51ef6b9136AFb6b9D405A88",
  "extraData": "0x476574682f76312e302e312d37666266393930632f6c696e75782f676f312e34",
  "transactions": [
    {
      "hash": "0x85dad63a5b09a5748680e10d54d5ae5eaee5573a021776a53cfc426a7ed5da55",
      "blockHash": "0x6a0338cb52a737c64dd5f12d93dfbf09cb9ab26c2eb96499c7e0c9db2ca5c9e3",
      "blockNumber": 69827,
      "transactionIndex": 0,
      "confirmations": null,
      "from": "0xA542d5046D885E5fC7Dc4006ADb648C5710Ff0ED",
      "gasPrice": {
        "_hex": "0x746a528800"
      },
      "gasLimit": {
        "_hex": "0x5b04"
      },
      "to": "0x99181ED48C7c51532622dA23e20E2B38392476A7",
      "value": {
        "_hex": "0x1b9de674df070000"
      },
      "nonce": 1,
      "data": "0x",
      "r": "0x319ea0afa9e4c6868766493c19b2366464df0839206f554176108e69c62c0b24",
      "s": "0xab994058261c703fc492964e376f08a9ea6836023f68737d433b3ddfcb5ee74e",
      "v": 28,
      "creates": null,
      "raw": "0xf86c0185746a528800825b049499181ed48c7c51532622da23e20e2b38392476a7881b9de674df070000801ca0319ea0afa9e4c6868766493c19b2366464df0839206f554176108e69c62c0b24a0ab994058261c703fc492964e376f08a9ea6836023f68737d433b3ddfcb5ee74e",
      "networkId": 0,
      "chainId": 0
    }
  ]
}