{
  "hash": "0xd2174cad3f6bd7a5e380e29563f849b9406dca3c5d553510e1208190952c50c5",
  "parentHash": "0xc2e24be5454f1570d62f5276f13308d3e2f8c819bd34fa6c9947513cc86becd1",
  "number": 49036,
  "timestamp": 1438966726,
  "nonce": "0xfa686004cb3aaeda",
  "difficulty": 1488711841391,
  "gasLimit": {
    "_hex": "0x24220"
  },
  "gasUsed": {
    "_hex": "0x546c"
  },
  "miner": "0xF2d2AfF1320476cb8C6b607199D23175cc595693",
  "extraData": "0x476574682f76312e302e312f77696e646f77732f676f312e342e32",
  "transactions": [
    {
      "hash": "0x1b64c04a8a2fe4fba73b7e9b9d85d1e52d91feb88047cfa09e0fae18d26d8299",
      "blockHash": "0xd2174cad3f6bd7a5e380e29563f849b9406dca3c5d553510e1208190952c50c5",
      "blockNumber": 49036,
      "transactionIndex": 0,
      "confirmations": null,
      "from": "0xcbf16a0fE2745258cD52db2BF21954C975FC6a15",
      "gasPrice": {
        "_hex": "0x110c8f7d8de"
      },
      "gasLimit": {
        "_hex": "0xc350"
      },
      "to": "0x2910543Af39abA0Cd09dBb2D50200b3E800A63D2",
      "value": {
        "_hex": "0x10357563d481cc0000"
      },
      "nonce": 0,
      "data": "0x454e31373735454b47",
      "r": "0xbe5957624d7468fe90f9905e356d72701f29bad735c19d4c40d41b34901f1523",
      "s": "0x791e380020f14cf9cc3de43a9ca496f2b72fb860b1f7c67c812a91edeb7d0b08",
      "v": 27,
      "creates": null,
      "raw": "0xf87780860110c8f7d8de82c350942910543af39aba0cd09dbb2d50200b3e800a63d28910357563d481cc000089454e31373735454b471ba0be5957624d7468fe90f9905e356d72701f29bad735c19d4c40d41b34901f1523a0791e380020f14cf9cc3de43a9ca496f2b72fb860b1f7c67c812a91edeb7d0b08",
      "networkId": 0,
      "chainId": 0
    }
  ]
}