{
  "hash": "0xbd94287988c29db6661be1fcd20a1d6c6747b4f5af62f5d740c1377469d8c2a3",
  "parentHash": "0xaec2cacef4a0402327a77e11ed8a0c5d026fc770528e687d20d533a6f5d527c8",
  "number": 91452,
  "timestamp": 1439655905,
  "nonce": "0x5746249eb18b24a5",
  "difficulty": 3474303259693,
  "gasLimit": {
    "_hex": "0x2fefd8"
  },
  "gasUsed": {
    "_hex": "0xa410"
  },
  "miner": "0x5B3e850E39e6f2C7dD38707b649e2B3536F14C0b",
  "extraData": "0x476574682f76312e302e312f64617277696e2f676f312e342e32",
  "transactions": [
    {
      "hash": "0x081eb955ac98f8fe3c5473a9005fd83a30a8514618b7bc5d61eafb216428ea7a",
      "blockHash": "0xbd94287988c29db6661be1fcd20a1d6c6747b4f5af62f5d740c1377469d8c2a3",
      "blockNumber": 91452,
      "transactionIndex": 0,
      "confirmations": null,
      "from": "0x9746c7e1ef2bd21FF3997fa467593a89cb852BD0",
      "gasPrice": {
        "_hex": "0xd2302140a"
      },
      "gasLimit": {
        "_hex": "0x5208"
      },
      "to": "0xB0bF4A71F730782368Ef660FE6D298F432F95450",
      "value": {
        "_hex": "0xad78ebc5ac6200000"
      },
      "nonce": 28,
      "data": "0x",
      "r": "0x5c5ea8bf0861c3cf9779f3cd21488e5dbb87219d15694f5c27eca1574da427c6",
      "s": "0x20ba60034e899dd0c82f31360972236423ae10cfa3a86d2a985a830d209c7815",
      "v": 27,
      "creates": null,
      "raw": "0xf86d1c850d2302140a82520894b0bf4a71f730782368ef660fe6d298f432f95450890ad78ebc5ac6200000801ba05c5ea8bf0861c3cf9779f3cd21488e5dbb87219d15694f5c27eca1574da427c6a020ba60034e899dd0c82f31360972236423ae10cfa3a86d2a985a830d209c7815",
      "networkId": 0,
      "chainId": 0
    },
    {
      "hash": "0x515be1e3d6fba2ffe973df1397a3032ebfc5fe0fe22986437c1dc9f456882850",
      "blockHash": "0xbd94287988c29db6661be1fcd20a1d6c6747b4f5af62f5d740c1377469d8c2a3",
      "blockNumber": 91452,
      "transactionIndex": 1,
      "confirmations": null,
      "from": "0x8293b65bD915B9FF87F6aDAb479da2e5b6633fDB",
      "gasPrice": {
        "_hex": "0xcfab32e50"
      },
      "gasLimit": {
        "_hex": "0x15f90"
      },
      "to": "0x9f78552704fe7e52cC7C3853534aA2C3cf580D54",
      "value": {
        "_hex": "0x4563918244f40000"
      },
      "nonce": 19,
      "data": "0x",
      "r": "0x51f5298bbfe090a1461b9265b8e07b652883102f778ffdc30048d9ddb8ce12ee",
      "s": "0x13759264257161b7686e2f5d957b13179d63e5f5a9de701d587f4f7e9a478bab",
      "v": 28,
      "creates": null,
      "raw": "0xf86d13850cfab32e5083015f90949f78552704fe7e52cc7c3853534aa2c3cf580d54884563918244f40000801ca051f5298bbfe090a1461b9265b8e07b652883102f778ffdc30048d9ddb8ce12eea013759264257161b7686e2f5d957b13179d63e5f5a9de701d587f4f7e9a478bab",
      "networkId": 0,
      "chainId": 0
    }
  ]
}