{
  "hash": "0x834d3751b9546a03982a27ee6c3097da6660e96c375100c506571faf17ea8917",
  "parentHash": "0xd0ec735e7bc45cc18820356934f3ab1e3b041b0aefd0dc68622ac65d04ce44c2",
  "number": 65880,
  "timestamp": 1439244620,
  "nonce": "0x693d435195761702",
  "difficulty": 1945335624610,
  "gasLimit": {
    "_hex": "0x2fefd8"
  },
  "gasUsed": {
    "_hex": "0x19f92"
  },
  "miner": "0xf927a40C8B7F6E07c5af7FA2155B4864a4112B13",
  "extraData": "0x",
  "transactions": [
    {
      "hash": "0xed9ccafa7631210e767e72e642af0552c09d855bd34f04c235a630384e697ef9",
      "blockHash": "0x834d3751b9546a03982a27ee6c3097da6660e96c375100c506571faf17ea8917",
      "blockNumber": 65880,
      "transactionIndex": 0,
      "confirmations": null,
      "from": "0xC99478b218E58F45783fA70f0507cf614938E67d",
      "gasPrice": {
        "_hex": "0xde93f3b2b"
      },
      "gasLimit": {
        "_hex": "0x15f90"
      },
      "to": "0xC3fe64D1af00F0d9c324E4387EF7533f7D788e95",
      "value": {
        "_hex": "0x16345785d8a0000"
      },
      "nonce": 1,
      "data": "0x",
      "r": "0xdb19b2dea7d8db03d6d7054b35db558a0becefb82d0026222f67cb6a616fda2d",
      "s": "0x73a9be3ff69b05aea9333966f52a71d6cfb80aa53d593c96740b1c3a84dbd052",
      "v": 28,
      "creates": null,
      "raw": "0xf86d01850de93f3b2b83015f9094c3fe64d1af00f0d9c324e4387ef7533f7d788e9588016345785d8a0000801ca0db19b2dea7d8db03d6d7054b35db558a0becefb82d0026222f67cb6a616fda2da073a9be3ff69b05aea9333966f52a71d6cfb80aa53d593c96740b1c3a84dbd052",
      "networkId": 0,
      "chainId": 0
    },
    {
      "hash": "0xae824c7df4975819fa548c22784f7ab12935a19e86cec05a5d6d91021553ed08",
      "blockHash": "0x834d3751b9546a03982a27ee6c3097da6660e96c375100c506571faf17ea8917",
      "blockNumber": 65880,
      "transactionIndex": 1,
      "confirmations": null,
      "from": "0xC99478b218E58F45783fA70f0507cf614938E67d",
      "gasPrice": {
        "_hex": "0xde93f3b2b"
      },
      "gasLimit": {
        "_hex": "0x15f90"
      },
      "to": "0xC3fe64D1af00F0d9c324E4387EF7533f7D788e95",
      "value": {
        "_hex": "0x16345785d8a0000"
      },
      "nonce": 2,
      "data": "0x",
      "r": "0x65cdd52bbb7a90f42a7728396c2a303e536c36c0ebb5995a95cbcd3c0d0d1a80",
      "s": "0x7d8c15656f0f5672b0d2cc601180f3c9e20f2e9899ba624c5fb6c143440529c5",
      "v": 28,
      "creates": null,
      "raw": "0xf86d02850de93f3b2b83015f9094c3fe64d1af00f0d9c324e4387ef7533f7d788e9588016345785d8a0000801ca065cdd52bbb7a90f42a7728396c2a303e536c36c0ebb5995a95cbcd3c0d0d1a80a07d8c15656f0f5672b0d2cc601180f3c9e20f2e9899ba624c5fb6c143440529c5",
      "networkId": 0,
      "chainId": 0
    },
    {
      "hash": "0x2631c4285a45bede90fa70a3415364eef43a1c07286ab5dfe1b38c0734f814b9",
      "blockHash": "0x834d3751b9546a03982a27ee6c3097da6660e96c375100c506571faf17ea8917",
      "blockNumber": 65880,
      "transactionIndex": 2,
      "confirmations": null,
      "from": "0xFBb1b73C4f0BDa4f67dcA266ce6Ef42f520fBB98",
      "gasPrice": {
        "_hex": "0xdbb8baa21"
      },
      "gasLimit": {
        "_hex": "0x15f90"
      },
      "to": "0xa1A111bc074c9cfa781F0C38e63bD51c91b8af00",
      "value": {
        "_hex": "0x3bd913e6c1df40000"
      },
      "nonce": 13,
      "data": "0x432ced044254525800000000000000000000000000000000000000000000000000000000",
      "r": "0x8e37e9f8db8360918ccb78641fba6129dfcb4c4562b615da068e5b022efcafa4",
      "s": "0x5deaebf7e15a1a9f35a8fd2fe84ae055449e1b7a58b60f27ca84b5ff7b2de61e",
      "v": 28,
      "creates": null,
      "raw": "0xf8920d850dbb8baa2183015f9094a1a111bc074c9cfa781f0c38e63bd51c91b8af008903bd913e6c1df40000a4432ced0442545258000000000000000000000000000000000000000000000000000000001ca08e37e9f8db8360918ccb78641fba6129dfcb4c4562b615da068e5b022efcafa4a05deaebf7e15a1a9f35a8fd2fe84ae055449e1b7a58b60f27ca84b5ff7b2de61e",
      "networkId": 0,
      "chainId": 0
    },
    {
      "hash": "0x274d17f1f1866183d7349aac50307aadec6cd892373f99b06dd3763cf1c2b7fe",
      "blockHash": "0x834d3751b9546a03982a27ee6c3097da6660e96c375100c506571faf17ea8917",
      "blockNumber": 65880,
      "transactionIndex": 3,
      "confirmations": null,
      "from": "0xEA3779D14A13F6C78566bCDE403591413a6239db",
      "gasPrice": {
        "_hex": "0xd3ab2b733"
      },
      "gasLimit": {
        "_hex": "0x15f90"
      },
      "to": "0x14474c5a1d2745901c71Eb7179560A9dde3d4Aa0",
      "value": {
        "_hex": "0x3c1252d866f1bc80000"
      },
      "nonce": 8,
      "data": "0x",
      "r": "0x9b611a5ca55f0adee94181057318281bb3e6acf91e7f8d1a9a0bbb23ddc14631",
      "s": "0x6762555af1331009b5948f50501df6d91f1dfdc74f5a14f9b40253edf192c149",
      "v": 27,
      "creates": null,
      "raw": "0xf86f08850d3ab2b73383015f909414474c5a1d2745901c71eb7179560a9dde3d4aa08a03c1252d866f1bc80000801ba09b611a5ca55f0adee94181057318281bb3e6acf91e7f8d1a9a0bbb23ddc14631a06762555af1331009b5948f50501df6d91f1dfdc74f5a14f9b40253edf192c149",
      "networkId": 0,
      "chainId": 0
    }
  ]
}