{
  "hash": "0x8b580b2ffe89dfbb4ba346a8e7be030ef8d14ff5ec886e66f33f0be112d4c4f5",
  "parentHash": "0x9a37b82d04d9d5084f8fd4cd75bffc929fdc93e6edfc3a2af58ca5b88ca66bb0",
  "number": 80239,
  "timestamp": 1439482421,
  "nonce": "0xf5e7b80069d53f85",
  "difficulty": 2378237169559,
  "gasLimit": {
    "_hex": "0x2fefd8"
  },
  "gasUsed": {
    "_hex": "0xaa37"
  },
  "miner": "0x8E61bF5A2e46D15774172781Cf100ED0962cBb63",
  "extraData": "0x476574682f76312e302e312d37666266393930632f6c696e75782f676f312e34",
  "transactions": [
    {
      "hash": "0x7c481f9d74905eb3a6fb607ceeddd5e4da388092801f62b17d52027f045a20d9",
      "blockHash": "0x8b580b2ffe89dfbb4ba346a8e7be030ef8d14ff5ec886e66f33f0be112d4c4f5",
      "blockNumber": 80239,
      "transactionIndex": 0,
      "confirmations": null,
      "from": "0x87C5B5874A18B4306DF8a752a6C8cc3E82daFc19",
      "gasPrice": {
        "_hex": "0x104bb0b05a3"
      },
      "gasLimit": {
        "_hex": "0x493e0"
      },
      "to": "0xC4c51de1AbF5D60DBd329eC0F999Fd8f021ae9fC",
      "value": {
        "_hex": "0x0"
      },
      "nonce": 149,
      "data": "0x03750d9400000000000000000000000087c5b5874a18b4306df8a752a6c8cc3e82dafc196b6b6b0000000000000000000000000000000000000000000000000000000000",
      "r": "0x4f49cde67339c593e4f124e255a20c9a9b6e202b9686bf546520af784da4bd8f",
      "s": "0x6095aa40256aa6457bf8b38b0609c59b788e64162d583f29a3d2577ee3e9c6ae",
      "v": 28,
      "creates": null,
      "raw": "0xf8ac8195860104bb0b05a3830493e094c4c51de1abf5d60dbd329ec0f999fd8f021ae9fc80b84403750d9400000000000000000000000087c5b5874a18b4306df8a752a6c8cc3e82dafc196b6b6b00000000000000000000000000000000000000000000000000000000001ca04f49cde67339c593e4f124e255a20c9a9b6e202b9686bf546520af784da4bd8fa06095aa40256aa6457bf8b38b0609c59b788e64162d583f29a3d2577ee3e9c6ae",
      "networkId": 0,
      "chainId": 0
    }
  ]
}