{
  "hash": "0xbe39afc04ed5b0bd43fe2637c08d163fcbc6fd74ef6aa4f1d16b19338320d011",
  "parentHash": "0xdbe65e9d9fc50e15f9bd789d0a1220d3de620cdc563927dd58cf58518cb52beb",
  "number": 107624,
  "timestamp": 1439925876,
  "nonce": "0x2fa1f005ce80cb92",
  "difficulty": 4379193439671,
  "gasLimit": {
    "_hex": "0x2fefd8"
  },
  "gasUsed": {
    "_hex": "0x5208"
  },
  "miner": "0xe6A7a1d47ff21B6321162AEA7C6CB457D5476Bca",
  "extraData": "0x476574682f76312e302e312d38326566323666362f6c696e75782f676f312e34",
  "transactions": [
    {
      "hash": "0x72b7448d149ee8fd67633cc941e5db3ae402a044de22fccc3ef5a0e714b73424",
      "blockHash": "0xbe39afc04ed5b0bd43fe2637c08d163fcbc6fd74ef6aa4f1d16b19338320d011",
      "blockNumber": 107624,
      "transactionIndex": 0,
      "confirmations": null,
      "from": "0x32Be343B94f860124dC4fEe278FDCBD38C102D88",
      "gasPrice": {
        "_hex": "0xe0cd9bc67"
      },
      "gasLimit": {
        "_hex": "0x5208"
      },
      "to": "0x65553f5e8FA2eDfCe37Aec51A90ed28777dDe402",
      "value": {
        "_hex": "0x2386f26fc10000"
      },
      "nonce": 1228,
      "data": "0x",
      "r": "0x8079bd74f2c15b22e8353992bb095d8e8457e62d4fa6570259db4b9f5d6b3980",
      "s": "0x748cf9c53845cd641c77a266e22fa996fed8eabac7c81b115519f11e4786c069",
      "v": 28,
      "creates": null,
      "raw": "0xf86d8204cc850e0cd9bc678252089465553f5e8fa2edfce37aec51a90ed28777dde402872386f26fc10000801ca08079bd74f2c15b22e8353992bb095d8e8457e62d4fa6570259db4b9f5d6b3980a0748cf9c53845cd641c77a266e22fa996fed8eabac7c81b115519f11e4786c069",
      "networkId": 0,
      "chainId": 0
    }
  ]
}