{
  "hash": "0x66a0c087be59228e6ec051ebb2ee52e77c0ff53f0c8d511229a05eeb4317e123",
  "parentHash": "0xef97a00d03d344d3caefb74e340ff9a8ab44d68186a886a3f7c200708f005031",
  "number": 54319,
  "timestamp": 1439052145,
  "nonce": "0xefd03870b97daf0b",
  "difficulty": 1609453555335,
  "gasLimit": {
    "_hex": "0x2fefd5"
  },
  "gasUsed": {
    "_hex": "0x1d9b8"
  },
  "miner": "0x271e8fC01E1C9E1621fD3d108e348450b2498541",
  "extraData": "0x476574682f76312e302e312f77696e646f77732f676f312e342e32",
  "transactions": [
    {
      "hash": "0x2918e1aa7ceb21be80a52e626d332791b2150f77473cdab42536f4965c8c76e4",
      "blockHash": "0x66a0c087be59228e6ec051ebb2ee52e77c0ff53f0c8d511229a05eeb4317e123",
      "blockNumber": 54319,
      "transactionIndex": 0,
      "confirmations": null,
      "from": "0x2d11763B4999FB3b61Ca8d19C8C77a743079f7bd",
      "gasPrice": {
        "_hex": "0xde344f8ca"
      },
      "gasLimit": {
        "_hex": "0x15f90"
      },
      "to": "0x506F4b138E30f4ed0b9511d4D676EAaECa466983",
      "value": {
        "_hex": "0x0"
      },
      "nonce": 6,
      "data": "0x41c0e1b5",
      "r": "0x31c15d4590b18b7fc705de0b96c14ce884785faff84c4a0d9ac7de8f8cd729f5",
      "s": "0x54d93d2daf947d979b9538ae0d0866d17c0d04944c4eebe0276303725640e11c",
      "v": 28,
      "creates": null,
      "raw": "0xf86906850de344f8ca83015f9094506f4b138e30f4ed0b9511d4d676eaaeca466983808441c0e1b51ca031c15d4590b18b7fc705de0b96c14ce884785faff84c4a0d9ac7de8f8cd729f5a054d93d2daf947d979b9538ae0d0866d17c0d04944c4eebe0276303725640e11c",
      "networkId": 0,
      "chainId": 0
    },
    {
      "hash": "0x1e04bc3627e770b32c9c76b79e705164ed07b0499656a0221e34d895fe1288b3",
      "blockHash": "0x66a0c087be59228e6ec051ebb2ee52e77c0ff53f0c8d511229a05eeb4317e123",
      "blockNumber": 54319,
      "transactionIndex": 1,
      "confirmations": null,
      "from": "0x8674c218F0351a62C3BA78C34FD2182A93Da94E2",
      "gasPrice": {
        "_hex": "0xba43b7400"
      },
      "gasLimit": {
        "_hex": "0x186a0"
      },
      "to": "0xd51Ead1dAA49bf10cF495430b8826780966130EF",
      "value": {
        "_hex": "0x0"
      },
      "nonce": 18,
      "data": "0xde6f24bb0000000000000000000000008674c218f0351a62c3ba78c34fd2182a93da94e20000000000000000000000000000000000000000000000000000000000000040000000000000000000000000000000000000000000000000000000000000000668656c6c6f210000000000000000000000000000000000000000000000000000",
      "r": "0x50bf9f44cdf5c91adca8bdec3050935a93209f876b82db3cc69015db0651ce4f",
      "s": "0x1eee1e0d441921c872755d5cb5819fc037c1b02592975acab209fee6f7638c57",
      "v": 28,
      "creates": null,
      "raw": "0xf8ea12850ba43b7400830186a094d51ead1daa49bf10cf495430b8826780966130ef80b884de6f24bb0000000000000000000000008674c218f0351a62c3ba78c34fd2182a93da94e20000000000000000000000000000000000000000000000000000000000000040000000000000000000000000000000000000000000000000000000000000000668656c6c6f2100000000000000000000000000000000000000000000000000001ca050bf9f44cdf5c91adca8bdec3050935a93209f876b82db3cc69015db0651ce4fa01eee1e0d441921c872755d5cb5819fc037c1b02592975acab209fee6f7638c57",
      "networkId": 0,
      "chainId": 0
    }
  ]
}