{
  "hash": "0x11cebc7a930686f4633690b5b3a1de57d37257982455e1d034fbd3ef3b877579",
  "parentHash": "0xfeecce7afd49d2edfe0d2120204da5056398d2a25fb48cd34ad6fadc2ebc226c",
  "number": 104716,
  "timestamp": 1439874239,
  "nonce": "0x27c339bc3aed3018",
  "difficulty": 4363633018742,
  "gasLimit": {
    "_hex": "0x2fefd8"
  },
  "gasUsed": {
    "_hex": "0x5208"
  },
  "miner": "0xe6A7a1d47ff21B6321162AEA7C6CB457D5476Bca",
  "extraData": "0x476574682f76312e302e312d38326566323666362f6c696e75782f676f312e34",
  "transactions": [
    {
      "hash": "0x6d97da2ba981f28bd729c0d1f6acbd3f23183684829f41193419c0d522731dbc",
      "blockHash": "0x11cebc7a930686f4633690b5b3a1de57d37257982455e1d034fbd3ef3b877579",
      "blockNumber": 104716,
      "transactionIndex": 0,
      "confirmations": null,
      "from": "0x06EC48800B2DB3eEfa052e98A9b5Fc2Bf783Ee74",
      "gasPrice": {
        "_hex": "0xd0f7fe528"
      },
      "gasLimit": {
        "_hex": "0x5208"
      },
      "to": "0x32Be343B94f860124dC4fEe278FDCBD38C102D88",
      "value": {
        "_hex": "0x115ad9d9b58114000"
      },
      "nonce": 18,
      "data": "0x",
      "r": "0xbe1754e91b67a8ef2326aece31ffe0aae0b2d76d25190247bfd0a24e43a4b216",
      "s": "0x67552367179eae4d485b39c29b755fd078f1d174e31e1bc9de37e3a70889f841",
      "v": 27,
      "creates": null,
      "raw": "0xf86d12850d0f7fe5288252089432be343b94f860124dc4fee278fdcbd38c102d88890115ad9d9b58114000801ba0be1754e91b67a8ef2326aece31ffe0aae0b2d76d25190247bfd0a24e43a4b216a067552367179eae4d485b39c29b755fd078f1d174e31e1bc9de37e3a70889f841",
      "networkId": 0,
      "chainId": 0
    }
  ]
}