{
  "hash": "0xd2987fb5f442ae1452c59336d3024e00c3b65f56e64f5ea0b4b1c81c4ae6de35",
  "parentHash": "0x43a34a0204e1f890cb5c2d4d30ed202784c4525e350135fa9c3a5e80c62b840d",
  "number": 98544,
  "timestamp": 1439774697,
  "nonce": "0x7b9a178a25ce8050",
  "difficulty": 3861261125810,
  "gasLimit": {
    "_hex": "0x2fefd8"
  },
  "gasUsed": {
    "_hex": "0x5208"
  },
  "miner": "0x785ffdDd5cE55c6DF963f345e68d3F2024E5Acb1",
  "extraData": "0x",
  "transactions": [
    {
      "hash": "0x5992af23da82734aee1fbbac78c00a14d86971576a2ab286322e658e203139dc",
      "blockHash": "0xd2987fb5f442ae1452c59336d3024e00c3b65f56e64f5ea0b4b1c81c4ae6de35",
      "blockNumber": 98544,
      "transactionIndex": 0,
      "confirmations": null,
      "from": "0x7D45E10A0d63eCCA0694a7cbfF030f4dD87DA0dC",
      "gasPrice": {
        "_hex": "0xdc74c565a"
      },
      "gasLimit": {
        "_hex": "0x15f90"
      },
      "to": "0x6d921977dEFE5f4e0682CA512De1D07b1f4802E1",
      "value": {
        "_hex": "0x8ad1cb80783b8000"
      },
      "nonce": 24,
      "data": "0x",
      "r": "0xd339e9fe8b9e40758384b7783a395ebaabde0626cb2a7c4ce633027e1c7958fc",
      "s": "0x00e187fc029b93740249d2d91420a30e9b5b588cbb37017de26335865766f9bc",
      "v": 28,
      "creates": null,
      "raw": "0xf86c18850dc74c565a83015f90946d921977defe5f4e0682ca512de1d07b1f4802e1888ad1cb80783b8000801ca0d339e9fe8b9e40758384b7783a395ebaabde0626cb2a7c4ce633027e1c7958fc9fe187fc029b93740249d2d91420a30e9b5b588cbb37017de26335865766f9bc",
      "networkId": 0,
      "chainId": 0
    }
  ]
}