{
  "hash": "0x58565a9791882c3e76332cab098b848cb8205f79c11c822a9b136ad77225a447",
  "parentHash": "0x5475d97685995f178539a36216dd0c27f7d18eb11bd839cd95f2117f8e3271e8",
  "number": 113417,
  "timestamp": 1440023217,
  "nonce": "0xb2d258389ce0d915",
  "difficulty": 4460304119777,
  "gasLimit": {
    "_hex": "0x2fefd8"
  },
  "gasUsed": {
    "_hex": "0x14820"
  },
  "miner": "0x580992B51e3925e23280EfB93d3047C82f17E038",
  "extraData": "0x476574682f76312e302e312f6c696e75782f676f312e342e32",
  "transactions": [
    {
      "hash": "0x291a12761fd7d1e47c1427986595f430421fce00e9d848ebf270683bcd9b04bd",
      "blockHash": "0x58565a9791882c3e76332cab098b848cb8205f79c11c822a9b136ad77225a447",
      "blockNumber": 113417,
      "transactionIndex": 0,
      "confirmations": null,
      "from": "0x9b348D2bdf75e886B346cC967d890E5Ff93535B6",
      "gasPrice": {
        "_hex": "0xd98a778bd"
      },
      "gasLimit": {
        "_hex": "0x5208"
      },
      "to": "0x32Be343B94f860124dC4fEe278FDCBD38C102D88",
      "value": {
        "_hex": "0x65486366f4dfa400"
      },
      "nonce": 1,
      "data": "0x",
      "r": "0xc6084a296d501a4393e729c5dfa863425bc9ba7aee85584e8d0adeba9e78b748",
      "s": "0x5865709d8b41e12a1a84dc16cbb683b73893783db99b08cebe94bd9fefaa9ed6",
      "v": 27,
      "creates": null,
      "raw": "0xf86c01850d98a778bd8252089432be343b94f860124dc4fee278fdcbd38c102d888865486366f4dfa400801ba0c6084a296d501a4393e729c5dfa863425bc9ba7aee85584e8d0adeba9e78b748a05865709d8b41e12a1a84dc16cbb683b73893783db99b08cebe94bd9fefaa9ed6",
      "networkId": 0,
      "chainId": 0
    },
    {
      "hash": "0xc9949403ca618bf496c988c2656a4fc92e0cff64169e8a00d52342f2b314e9a3",
      "blockHash": "0x58565a9791882c3e76332cab098b848cb8205f79c11c822a9b136ad77225a447",
      "blockNumber": 113417,
      "transactionIndex": 1,
      "confirmations": null,
      "from": "0x2DE9681E4016C20A05e9D6fAf769c9e263B7cdb3",
      "gasPrice": {
        "_hex": "0xd98a778bd"
      },
      "gasLimit": {
        "_hex": "0x5208"
      },
      "to": "0x32Be343B94f860124dC4fEe278FDCBD38C102D88",
      "value": {
        "_hex": "0xfb13ace7e19d000"
      },
      "nonce": 0,
      "data": "0x",
      "r": "0x220c43d21edb900b167147e71f7505a02cd4a9547f7d86fd53fff919d39c2d50",
      "s": "0x3dca5020432ba36f0494508b34209073521028d3586daa35e8b7b7ad5b0d9ef0",
      "v": 27,
      "creates": null,
      "raw": "0xf86c80850d98a778bd8252089432be343b94f860124dc4fee278fdcbd38c102d88880fb13ace7e19d000801ba0220c43d21edb900b167147e71f7505a02cd4a9547f7d86fd53fff919d39c2d50a03dca5020432ba36f0494508b34209073521028d3586daa35e8b7b7ad5b0d9ef0",
      "networkId": 0,
      "chainId": 0
    },
    {
      "hash": "0x67185e9ce801232b13d72481c36925bf8c4b690d23b923509f0d610b3e6c6a1b",
      "blockHash": "0x58565a9791882c3e76332cab098b848cb8205f79c11c822a9b136ad77225a447",
      "blockNumber": 113417,
      "transactionIndex": 2,
      "confirmations": null,
      "from": "0x3775A879e18FD8e6E515100d29fA80bD58AA571C",
      "gasPrice": {
        "_hex": "0xd98a778bd"
      },
      "gasLimit": {
        "_hex": "0x5208"
      },
      "to": "0x32Be343B94f860124dC4fEe278FDCBD38C102D88",
      "value": {
        "_hex": "0xa718f5324339000"
      },
      "nonce": 0,
      "data": "0x",
      "r": "0x7e28c4491aed680ee75401025cc052bf492a97f8480ddb692821053ec036416e",
      "s": "0x363326bd614aead598237f3a180162335140fea5b1df94779e226bcf60f5299f",
      "v": 27,
      "creates": null,
      "raw": "0xf86c80850d98a778bd8252089432be343b94f860124dc4fee278fdcbd38c102d88880a718f5324339000801ba07e28c4491aed680ee75401025cc052bf492a97f8480ddb692821053ec036416ea0363326bd614aead598237f3a180162335140fea5b1df94779e226bcf60f5299f",
      "networkId": 0,
      "chainId": 0
    },
    {
      "hash": "0x1b74215ec1c06d9f18938a629bb8812beb1fd8690ef4a805533ab2ea022bd5df",
      "blockHash": "0x58565a9791882c3e76332cab098b848cb8205f79c11c822a9b136ad77225a447",
      "blockNumber": 113417,
      "transactionIndex": 3,
      "confirmations": null,
      "from": "0xEFAa23397C85dF68fF1708b489856B006B30EEd2",
      "gasPrice": {
        "_hex": "0xd98a778bd"
      },
      "gasLimit": {
        "_hex": "0x5208"
      },
      "to": "0x32Be343B94f860124dC4fEe278FDCBD38C102D88",
      "value": {
        "_hex": "0x2df84005e57a2000"
      },
      "nonce": 1,
      "data": "0x",
      "r": "0xe414fe168a3c3c9674056ea4ff24b7d8fe36ae4e8f06cd567b38b1db3fa2b1de",
      "s": "0x7ab78f23320bc7424d6332a22063390b6e98c50c66221cb27fc98d9acbe115dd",
      "v": 28,
      "creates": null,
      "raw": "0xf86c01850d98a778bd8252089432be343b94f860124dc4fee278fdcbd38c102d88882df84005e57a2000801ca0e414fe168a3c3c9674056ea4ff24b7d8fe36ae4e8f06cd567b38b1db3fa2b1dea07ab78f23320bc7424d6332a22063390b6e98c50c66221cb27fc98d9acbe115dd",
      "networkId": 0,
      "chainId": 0
    }
  ]
}