{
  "hash": "0x6dac29bf739dbbb06451c9b679c0518e24b7988f9e0fd124c26bc025ed56c655",
  "parentHash": "0x48467002b7ab83d7e37dd44fe2e72b842aa5733aefd3961e6fad1fc02822d29a",
  "number": 46691,
  "timestamp": 1438927486,
  "nonce": "0x0c010aa8eb8cff4b",
  "difficulty": 1461038940354,
  "gasLimit": {
    "_hex": "0x71d2"
  },
  "gasUsed": {
    "_hex": "0x5208"
  },
  "miner": "0x2C674A948592B20a4B775E1a3991Db043E6CF0FE",
  "extraData": "0x476574682f76312e302e312d38326566323666362f6c696e75782f676f312e34",
  "transactions": [
    {
      "hash": "0x4128bddd4347f229326be6c92601869316cb04b95d58e11bdcdbc0c5f054bd3f",
      "blockHash": "0x6dac29bf739dbbb06451c9b679c0518e24b7988f9e0fd124c26bc025ed56c655",
      "blockNumber": 46691,
      "transactionIndex": 0,
      "confirmations": null,
      "from": "0x94d700B9157FfB28D39937b60317865D060bb2F2",
      "gasPrice": {
        "_hex": "0x1a5f427066"
      },
      "gasLimit": {
        "_hex": "0x6d60"
      },
      "to": "0xB4f6A8f7Cd91Cd4bcADcc0a20e417c392E5f50A4",
      "value": {
        "_hex": "0xf8b0a10e470000"
      },
      "nonce": 2,
      "data": "0x",
      "r": "0xfcded560ad5e76015a94afbd143a4db23f4db4476277b26cfa348b3ecc2a8c24",
      "s": "0x3e52e06da251f6163e0b8b3c4eef905ddf7aae065fcac8290ad22b75b297d808",
      "v": 28,
      "creates": null,
      "raw": "0xf86b02851a5f427066826d6094b4f6a8f7cd91cd4bcadcc0a20e417c392e5f50a487f8b0a10e470000801ca0fcded560ad5e76015a94afbd143a4db23f4db4476277b26cfa348b3ecc2a8c24a03e52e06da251f6163e0b8b3c4eef905ddf7aae065fcac8290ad22b75b297d808",
      "networkId": 0,
      "chainId": 0
    }
  ]
}