{
  "hash": "0x87318b262e190a46fcf22dba1f64a5cd3ccbcb65d005d08487019ae0eb42c2cb",
  "parentHash": "0x697b5bc39c8dd040585e0b03aa0a21c9681b98c234a9f204bc374a47986395c1",
  "number": 65092,
  "timestamp": 1439231113,
  "nonce": "0x85754fcdc8a384c2",
  "difficulty": 1932264282692,
  "gasLimit": {
    "_hex": "0x2fefd8"
  },
  "gasUsed": {
    "_hex": "0xa410"
  },
  "miner": "0x896f51055242AFb540C777EAf24AffA8EA14956b",
  "extraData": "0x",
  "transactions": [
    {
      "hash": "0x64b24bc7b9a752c3bdff19fe183feff531d086eca731346c40efb93d7cd72839",
      "blockHash": "0x87318b262e190a46fcf22dba1f64a5cd3ccbcb65d005d08487019ae0eb42c2cb",
      "blockNumber": 65092,
      "transactionIndex": 0,
      "confirmations": null,
      "from": "0x9912e376B1aaCD3cb9dec1dc7d983e72e49101a4",
      "gasPrice": {
        "_hex": "0xba43b7400"
      },
      "gasLimit": {
        "_hex": "0x5208"
      },
      "to": "0x0379Cbbe1104170F2e845b2f6b0A853E259399f6",
      "value": {
        "_hex": "0x419d7afa790a000"
      },
      "nonce": 1,
      "data": "0x",
      "r": "0x6f81a0517f48df5c40e3c99034523167e6ba3ec70cd7987c6a6ab6ad1e4a992e",
      "s": "0x0512e4c6e9fcb9b82c02e68c3de33324e893844df6f04d7fb332c4916c45e011",
      "v": 27,
      "creates": null,
      "raw": "0xf86c01850ba43b7400825208940379cbbe1104170f2e845b2f6b0a853e259399f6880419d7afa790a000801ba06f81a0517f48df5c40e3c99034523167e6ba3ec70cd7987c6a6ab6ad1e4a992ea00512e4c6e9fcb9b82c02e68c3de33324e893844df6f04d7fb332c4916c45e011",
      "networkId": 0,
      "chainId": 0
    },
    {
      "hash": "0x48f3f4059cfd9aae25f9e2fa41a76a709123969ce1030eed27f9b0261e0576fc",
      "blockHash": "0x87318b262e190a46fcf22dba1f64a5cd3ccbcb65d005d08487019ae0eb42c2cb",
      "blockNumber": 65092,
      "transactionIndex": 1,
      "confirmations": null,
      "from": "0xF989f7A72a6e5e3Aca7B1E65E467E883B023f5Da",
      "gasPrice": {
        "_hex": "0xba43b7400"
      },
      "gasLimit": {
        "_hex": "0x5208"
      },
      "to": "0x82a45cEc0FfE96AD5c33E63570ACC86E1fd1f81f",
      "value": {
        "_hex": "0x47664630dd26000"
      },
      "nonce": 1,
      "data": "0x",
      "r": "0x02f7cb1c34030e45609afe54531c70638c292b5376f46d90aa179efa5ee527cc",
      "s": "0x3ef88756bbe2b24866e78275334b3b9dab6eaeabd853a2dc6066b26af804f791",
      "v": 28,
      "creates": null,
      "raw": "0xf86c01850ba43b74008252089482a45cec0ffe96ad5c33e63570acc86e1fd1f81f88047664630dd26000801ca002f7cb1c34030e45609afe54531c70638c292b5376f46d90aa179efa5ee527cca03ef88756bbe2b24866e78275334b3b9dab6eaeabd853a2dc6066b26af804f791",
      "networkId": 0,
      "chainId": 0
    }
  ]
}