{
  "hash": "0xd42c7f0cc3c5511dcabfdd5a921327d5cea43ef732b78f709ff24d1a90e006d7",
  "parentHash": "0xa062d524c722780efbcc40b4c41e46cd4cc575a5fcc5ecfd51c093125cd3811b",
  "number": 108702,
  "timestamp": 1439944871,
  "nonce": "0xbe0c8c9e3e2f2009",
  "difficulty": 4331846373175,
  "gasLimit": {
    "_hex": "0x2fefd8"
  },
  "gasUsed": {
    "_hex": "0x5208"
  },
  "miner": "0x623d2411c3bb3340784155F9a688b0085251aB5c",
  "extraData": "0x",
  "transactions": [
    {
      "hash": "0x0baf568b4b048f686b05f5a4e6d6f12921356765ea9e651f7d2b504a304f5809",
      "blockHash": "0xd42c7f0cc3c5511dcabfdd5a921327d5cea43ef732b78f709ff24d1a90e006d7",
      "blockNumber": 108702,
      "transactionIndex": 0,
      "confirmations": null,
      "from": "0x120A270bbC009644e35F0bB6ab13f95b8199c4ad",
      "gasPrice": {
        "_hex": "0xcc6946f2d"
      },
      "gasLimit": {
        "_hex": "0x3d090"
      },
      "to": "0x1124bA3bed4C56287a8b766E8a702Fe9396a11a2",
      "value": {
        "_hex": "0xe964524d31383000"
      },
      "nonce": 840,
      "data": "0x",
      "r": "0x1b86bdff3242d273a0c6a4cec6f77c158bc32e5957e2ec9faf84b4f85f99cabd",
      "s": "0x0c0aa7cf4beb1d746a62214599bbee8806374a0b3c8704d3c8840916b027e2e4",
      "v": 27,
      "creates": null,
      "raw": "0xf86f820348850cc6946f2d8303d090941124ba3bed4c56287a8b766e8a702fe9396a11a288e964524d31383000801ba01b86bdff3242d273a0c6a4cec6f77c158bc32e5957e2ec9faf84b4f85f99cabda00c0aa7cf4beb1d746a62214599bbee8806374a0b3c8704d3c8840916b027e2e4",
      "networkId": 0,
      "chainId": 0
    }
  ]
}