{
  "hash": "0x56b7ac13fb7de8aab2f3b9ab2ae5ab8a39d7b66aec13b79444e9ec526109ea42",
  "parentHash": "0xe5a93d46e2e328f3563215528727569116c866c5a5d2a93140cab2d27d5d3fc8",
  "number": 73526,
  "timestamp": 1439370558,
  "nonce": "0x4a5bd764c4d39a98",
  "difficulty": 2223958422172,
  "gasLimit": {
    "_hex": "0x2fefd8"
  },
  "gasUsed": {
    "_hex": "0x377f4"
  },
  "miner": "0x5F8F73E26CdF436f19Cb24C82F90A15AFe55b592",
  "extraData": "0x476574682f76312e302e312f77696e646f77732f676f312e342e32",
  "transactions": [
    {
      "hash": "0xbd7631b5968819bde519bc5a23c850e1a612b3c97d724fbbc2503a624a108448",
      "blockHash": "0x56b7ac13fb7de8aab2f3b9ab2ae5ab8a39d7b66aec13b79444e9ec526109ea42",
      "blockNumber": 73526,
      "transactionIndex": 0,
      "confirmations": null,
      "from": "0x008FC7CBAdFFbD0D7fe44F8DFD60a79d721a1c9C",
      "gasPrice": {
        "_hex": "0xdae40a55f"
      },
      "gasLimit": {
        "_hex": "0xf4240"
      },
      "to": null,
      "value": {
        "_hex": "0x0"
      },
      "nonce": 11,
      "data": "0x60606040526000805433600160a060020a031991821681178355600180549092161790554260025566038d7ea4c6800060035561025860045561013090819061004890396000f3006060604052361561002a5760e060020a60003504638abb9845811461008b578063efb98bcf1461009e575b6100c2600454600254600091014211156100c7578054600160a060020a033081163192911690600a8304606082818181858883f15050600154604051600160a060020a039190911693509084039082818181858883f19350505050506100f4565b61010e600054600160a060020a03165b90565b6101216004546002546000910142101561012b57506004546002544291010361009b565b005b50565b60035434106100f4576001805473ffffffffffffffffffffffffffffffffffffffff191633179055426002555b34656fde2b4eb00014156100c45733600160a060020a0316ff5b600160a060020a03166060908152602090f35b6060908152602090f35b61009b56",
      "r": "0x3ecc7b6d3605473dda7bbe37b405cf90145a6e77661fc5cedbb7e2a575fe4da6",
      "s": "0x11e6264ef1f746b94705d2b12ae2fe071ce0668f15b742a41b8a1c68724a51eb",
      "v": 28,
      "creates": "0x91601CBAb0bD60A0BC314a409da5070f135BeC6E",
      "raw": "0xf901cb0b850dae40a55f830f42408080b9017860606040526000805433600160a060020a031991821681178355600180549092161790554260025566038d7ea4c6800060035561025860045561013090819061004890396000f3006060604052361561002a5760e060020a60003504638abb9845811461008b578063efb98bcf1461009e575b6100c2600454600254600091014211156100c7578054600160a060020a033081163192911690600a8304606082818181858883f15050600154604051600160a060020a039190911693509084039082818181858883f19350505050506100f4565b61010e600054600160a060020a03165b90565b6101216004546002546000910142101561012b57506004546002544291010361009b565b005b50565b60035434106100f4576001805473ffffffffffffffffffffffffffffffffffffffff191633179055426002555b34656fde2b4eb00014156100c45733600160a060020a0316ff5b600160a060020a03166060908152602090f35b6060908152602090f35b61009b561ca03ecc7b6d3605473dda7bbe37b405cf90145a6e77661fc5cedbb7e2a575fe4da6a011e6264ef1f746b94705d2b12ae2fe071ce0668f15b742a41b8a1c68724a51eb",
      "networkId": 0,
      "chainId": 0
    },
    {
      "hash": "0x8796e522ec42a2f2f25abc1f0978caced9f147e8131d78c87e79fa6cab398bb6",
      "blockHash": "0x56b7ac13fb7de8aab2f3b9ab2ae5ab8a39d7b66aec13b79444e9ec526109ea42",
      "blockNumber": 73526,
      "transactionIndex": 1,
      "confirmations": null,
      "from": "0x52Dc504a422f0E2A9e7632A34a50f1a82F8224c7",
      "gasPrice": {
        "_hex": "0xceec57ae1"
      },
      "gasLimit": {
        "_hex": "0x15f90"
      },
      "to": "0x097738363B1662599ad0777E19461601F5EC8dF9",
      "value": {
        "_hex": "0xde0b6b3a7640000"
      },
      "nonce": 6,
      "data": "0x",
      "r": "0xfa8050d44d0b06d8bb0158c0f23a865c73d2f0dc1ee5dec2903f143064c63c7b",
      "s": "0x0d15fa25ec366ca48df2cbd775d25610194833956513babe3bb905c3b14761e6",
      "v": 27,
      "creates": null,
      "raw": "0xf86d06850ceec57ae183015f9094097738363b1662599ad0777e19461601f5ec8df9880de0b6b3a7640000801ba0fa8050d44d0b06d8bb0158c0f23a865c73d2f0dc1ee5dec2903f143064c63c7ba00d15fa25ec366ca48df2cbd775d25610194833956513babe3bb905c3b14761e6",
      "networkId": 0,
      "chainId": 0
    }
  ]
}