{
  "hash": "0x3fb61f390d84ef586bcff7a8c67f98fcee4523c47e6cfb7268cd1d9ce487b4ab",
  "parentHash": "0xfda5fcdce63f3fbf99257dfc90fdd46fce397e3dd1c28537fba66dbe40f78ee6",
  "number": 65627,
  "timestamp": 1439240282,
  "nonce": "0xc40bad04123b10a7",
  "difficulty": 1938756349900,
  "gasLimit": {
    "_hex": "0x2fefd8"
  },
  "gasUsed": {
    "_hex": "0x5208"
  },
  "miner": "0x88D74a59454F6cF3B51ef6b9136AFb6b9D405A88",
  "extraData": "0x476574682f76312e302e312d37666266393930632f6c696e75782f676f312e34",
  "transactions": [
    {
      "hash": "0x03fc1a087cd17245198c8b303c482952b9c3c25ab575df8b1dc1850ed7df195d",
      "blockHash": "0x3fb61f390d84ef586bcff7a8c67f98fcee4523c47e6cfb7268cd1d9ce487b4ab",
      "blockNumber": 65627,
      "transactionIndex": 0,
      "confirmations": null,
      "from": "0x2910543Af39abA0Cd09dBb2D50200b3E800A63D2",
      "gasPrice": {
        "_hex": "0xdedb402ae"
      },
      "gasLimit": {
        "_hex": "0x5208"
      },
      "to": "0xB1a2B43A7433dd150BB82227eD519Cd6b142d382",
      "value": {
        "_hex": "0x53d22b8bcc6e84e000"
      },
      "nonce": 183,
      "data": "0x",
      "r": "0xdce9bd109542969c29df72dc98e0b10886f4455c4ad5c6b46c66e11d0fb272c7",
      "s": "0x60410c3fd90bbc8a0e29532837231cfd5bb4ed81e67715cf08a7614fc87b5500",
      "v": 28,
      "creates": null,
      "raw": "0xf86e81b7850dedb402ae82520894b1a2b43a7433dd150bb82227ed519cd6b142d3828953d22b8bcc6e84e000801ca0dce9bd109542969c29df72dc98e0b10886f4455c4ad5c6b46c66e11d0fb272c7a060410c3fd90bbc8a0e29532837231cfd5bb4ed81e67715cf08a7614fc87b5500",
      "networkId": 0,
      "chainId": 0
    }
  ]
}