{
  "hash": "0x30ac6bca71487cbdfe07d2e683065a6ceabd94037cd3162925a579a6d2f02430",
  "parentHash": "0x29c98949b9103a14e4d71e22144f396c53415d3fbf8f0f03face58dffeb55d0d",
  "number": 78569,
  "timestamp": 1439455894,
  "nonce": "0x3dd18a159b9863d8",
  "difficulty": 2301026850637,
  "gasLimit": {
    "_hex": "0x2fefd8"
  },
  "gasUsed": {
    "_hex": "0x5208"
  },
  "miner": "0xf927a40C8B7F6E07c5af7FA2155B4864a4112B13",
  "extraData": "0x",
  "transactions": [
    {
      "hash": "0xbe17183a34414dd093e955360d784d9037002d3a54768e2f05e4eff267de3e91",
      "blockHash": "0x30ac6bca71487cbdfe07d2e683065a6ceabd94037cd3162925a579a6d2f02430",
      "blockNumber": 78569,
      "transactionIndex": 0,
      "confirmations": null,
      "from": "0x2910543Af39abA0Cd09dBb2D50200b3E800A63D2",
      "gasPrice": {
        "_hex": "0xd314fa307"
      },
      "gasLimit": {
        "_hex": "0x5208"
      },
      "to": "0x2C6dA0AeEF23c6a9eA4a8f19c0810e505FDEb231",
      "value": {
        "_hex": "0x2b5d1eb9d79a78000"
      },
      "nonce": 345,
      "data": "0x",
      "r": "0x99b338a881badc35bab935bb09ac0c10fee2b82f9513c57795339fd0ad342d4d",
      "s": "0x355100679b023df5e3c9432c107355f25a989d1c6c1d54cc067dc9fd84b164dc",
      "v": 27,
      "creates": null,
      "raw": "0xf86f820159850d314fa307825208942c6da0aeef23c6a9ea4a8f19c0810e505fdeb2318902b5d1eb9d79a78000801ba099b338a881badc35bab935bb09ac0c10fee2b82f9513c57795339fd0ad342d4da0355100679b023df5e3c9432c107355f25a989d1c6c1d54cc067dc9fd84b164dc",
      "networkId": 0,
      "chainId": 0
    }
  ]
}