{
  "hash": "0xb14315169adb72c2e59bffcb2f3fb1f14f414d51106d71c3d3b9a51ef98e7146",
  "parentHash": "0x5399acb7db33038b06410d2ec06f1b320f88d9a0d53ee3eec6a7b490c656afb5",
  "number": 80542,
  "timestamp": 1439487007,
  "nonce": "0xef4decd9d6ce6113",
  "difficulty": 2423872282345,
  "gasLimit": {
    "_hex": "0x2fefd8"
  },
  "gasUsed": {
    "_hex": "0xaa37"
  },
  "miner": "0x580992B51e3925e23280EfB93d3047C82f17E038",
  "extraData": "0x476574682f76312e302e312f6c696e75782f676f312e342e32",
  "transactions": [
    {
      "hash": "0xd46e60adadd28f5d8049aa485713f558b61d5605a3886c9cae3e777eb22d2b68",
      "blockHash": "0xb14315169adb72c2e59bffcb2f3fb1f14f414d51106d71c3d3b9a51ef98e7146",
      "blockNumber": 80542,
      "transactionIndex": 0,
      "confirmations": null,
      "from": "0x87C5B5874A18B4306DF8a752a6C8cc3E82daFc19",
      "gasPrice": {
        "_hex": "0x11a92afebff"
      },
      "gasLimit": {
        "_hex": "0x493e0"
      },
      "to": "0xC4c51de1AbF5D60DBd329eC0F999Fd8f021ae9fC",
      "value": {
        "_hex": "0x0"
      },
      "nonce": 239,
      "data": "0x03750d9400000000000000000000000087c5b5874a18b4306df8a752a6c8cc3e82dafc196b6b6b0000000000000000000000000000000000000000000000000000000000",
      "r": "0xe7d8db9a8fb85bbf3bca40fb57d8fc520589c8ed428ea45ae0073b291c9c665d",
      "s": "0x1498bae52121a8dc42aba9d7dec8f3bee07aec29666f2d63008eb5789a15266e",
      "v": 28,
      "creates": null,
      "raw": "0xf8ac81ef86011a92afebff830493e094c4c51de1abf5d60dbd329ec0f999fd8f021ae9fc80b84403750d9400000000000000000000000087c5b5874a18b4306df8a752a6c8cc3e82dafc196b6b6b00000000000000000000000000000000000000000000000000000000001ca0e7d8db9a8fb85bbf3bca40fb57d8fc520589c8ed428ea45ae0073b291c9c665da01498bae52121a8dc42aba9d7dec8f3bee07aec29666f2d63008eb5789a15266e",
      "networkId": 0,
      "chainId": 0
    }
  ]
}