{
  "hash": "0xe0d66de6099bf11517dc3d48fcff831143483275011cad8238899def80d91ae6",
  "parentHash": "0x1ced61d5ae26597b91c54c972669e467abfcf855112236c80817cc89c6ca1298",
  "number": 70914,
  "timestamp": 1439327257,
  "nonce": "0xd6b5a272f3fe6ba4",
  "difficulty": 2162531964784,
  "gasLimit": {
    "_hex": "0x2fefd8"
  },
  "gasUsed": {
    "_hex": "0x5208"
  },
  "miner": "0x957523c697993cB24FCf75EfBce4f228325e7383",
  "extraData": "0x476574682f76312e302e312f6c696e75782f676f312e342e32",
  "transactions": [
    {
      "hash": "0x1d84e40763b111097a5a9f24481528dfddb308b41bae6bbe904efb37295fd783",
      "blockHash": "0xe0d66de6099bf11517dc3d48fcff831143483275011cad8238899def80d91ae6",
      "blockNumber": 70914,
      "transactionIndex": 0,
      "confirmations": null,
      "from": "0xC4E15a24b5f80FCeBC7104b922B1baF37FdD708B",
      "gasPrice": {
        "_hex": "0xd9211c74d"
      },
      "gasLimit": {
        "_hex": "0x15f90"
      },
      "to": "0x3FEFA8C1e27b90BD417C1E60C15a4C0cFf6f2562",
      "value": {
        "_hex": "0x2386f26fc10000"
      },
      "nonce": 0,
      "data": "0x",
      "r": "0x007ace29527bb90efcf9e197cb89a79e7bf44e4271844f9d108b673e19567321",
      "s": "0x418fd754fcb652607e377b457c4952c7eb06572bb229434a62241c9e580b9582",
      "v": 27,
      "creates": null,
      "raw": "0xf86b80850d9211c74d83015f90943fefa8c1e27b90bd417c1e60c15a4c0cff6f2562872386f26fc10000801b9f7ace29527bb90efcf9e197cb89a79e7bf44e4271844f9d108b673e19567321a0418fd754fcb652607e377b457c4952c7eb06572bb229434a62241c9e580b9582",
      "networkId": 0,
      "chainId": 0
    }
  ]
}