{
  "hash": "0x4a63afd914095d367eb071fba046b9e1a629f6aaac798f1084cf8294cbd35fa4",
  "parentHash": "0x90c0e110c49e810eeea4e6b0bd5bef152777fcdb5e9ca0c8ad849e77068a599e",
  "number": 84216,
  "timestamp": 1439546510,
  "nonce": "0xce811e5210c2c440",
  "difficulty": 2526716399202,
  "gasLimit": {
    "_hex": "0x2fefd8"
  },
  "gasUsed": {
    "_hex": "0x5208"
  },
  "miner": "0x9D49F602b0fdb924Bd63DDE2Bd0907E4A07c63a7",
  "extraData": "0x476574682f76312e302e312f6c696e75782f676f312e342e32",
  "transactions": [
    {
      "hash": "0x8cd8c19e0b99893c6b9c2a3aa54de3ed8ea0af10f0325835eb80e40660785d54",
      "blockHash": "0x4a63afd914095d367eb071fba046b9e1a629f6aaac798f1084cf8294cbd35fa4",
      "blockNumber": 84216,
      "transactionIndex": 0,
      "confirmations": null,
      "from": "0x2910543Af39abA0Cd09dBb2D50200b3E800A63D2",
      "gasPrice": {
        "_hex": "0xcf689744e"
      },
      "gasLimit": {
        "_hex": "0x5208"
      },
      "to": "0x35DCBA8826a61bd1A613c0273141A7b4f2978098",
      "value": {
        "_hex": "0x22a00547ea998000"
      },
      "nonce": 542,
      "data": "0x",
      "r": "0x01bc9fb533e096d2d4abd0fe395194c08291eedae7cf87dcc0ef95f76d5bb5e4",
      "s": "0x35a01453c395388ddc52b59df50e7f9f32073375c29fbb31b41d2e6b242b6a04",
      "v": 28,
      "creates": null,
      "raw": "0xf86e82021e850cf689744e8252089435dcba8826a61bd1a613c0273141a7b4f29780988822a00547ea998000801ca001bc9fb533e096d2d4abd0fe395194c08291eedae7cf87dcc0ef95f76d5bb5e4a035a01453c395388ddc52b59df50e7f9f32073375c29fbb31b41d2e6b242b6a04",
      "networkId": 0,
      "chainId": 0
    }
  ]
}