{
  "hash": "0x09ed97600801a93d7e94251722a514ff6c27effed680681f1c8c32a1055ce2e5",
  "parentHash": "0x11047bcbb05d484aef74a69d68079c810ac6de868df7762668084a6e4fa33e1b",
  "number": 85194,
  "timestamp": 1439559850,
  "nonce": "0xaa7c6b02fae48a25",
  "difficulty": 2747766469600,
  "gasLimit": {
    "_hex": "0x2fefd8"
  },
  "gasUsed": {
    "_hex": "0xf618"
  },
  "miner": "0x858079E02403b10748B71A02195b6608Abaf6b8f",
  "extraData": "0x476574682f76312e302e312f77696e646f77732f676f312e342e32",
  "transactions": [
    {
      "hash": "0x2d6253e80713bde18e82d41092234785f8474cffd1097f3c4c200b035dacdffa",
      "blockHash": "0x09ed97600801a93d7e94251722a514ff6c27effed680681f1c8c32a1055ce2e5",
      "blockNumber": 85194,
      "transactionIndex": 0,
      "confirmations": null,
      "from": "0x32Be343B94f860124dC4fEe278FDCBD38C102D88",
      "gasPrice": {
        "_hex": "0xdf8ca05aa"
      },
      "gasLimit": {
        "_hex": "0x5208"
      },
      "to": "0x584537394554484254525836373730324b52524B",
      "value": {
        "_hex": "0xdbd2fc137a30000"
      },
      "nonce": 727,
      "data": "0x",
      "r": "0x435fc7ad2a7c02154a44547f7ec606de2d08d5040b69d847dd61a9c06ecb2f9c",
      "s": "0x3421ec6ea7f388347d18247796e226934d7c6fae0d5aabe01d2b1e00d97956ea",
      "v": 28,
      "creates": null,
      "raw": "0xf86e8202d7850df8ca05aa82520894584537394554484254525836373730324b52524b880dbd2fc137a30000801ca0435fc7ad2a7c02154a44547f7ec606de2d08d5040b69d847dd61a9c06ecb2f9ca03421ec6ea7f388347d18247796e226934d7c6fae0d5aabe01d2b1e00d97956ea",
      "networkId": 0,
      "chainId": 0
    },
    {
      "hash": "0x8b70be8043649a780d1a8eb8b7fcc3f578bc68e681328eadcdd8f7b8d8c60238",
      "blockHash": "0x09ed97600801a93d7e94251722a514ff6c27effed680681f1c8c32a1055ce2e5",
      "blockNumber": 85194,
      "transactionIndex": 1,
      "confirmations": null,
      "from": "0xACAB9A83F47D28Fdc1d12772A0B571f80444b5DD",
      "gasPrice": {
        "_hex": "0xd8364fc25"
      },
      "gasLimit": {
        "_hex": "0x7a120"
      },
      "to": "0x19939AD9F09d103B670c9EE56cA41d5764380f8A",
      "value": {
        "_hex": "0x16345785d8a0000"
      },
      "nonce": 0,
      "data": "0x",
      "r": "0xe5d5b946d22fa7f8e824c8c68262d0222b11340bb9917a41879c8209d8b7892d",
      "s": "0x0a2c7618ae15a53557fe966c00ad4d139d0336cbda61ba5fee42227d310d91e5",
      "v": 28,
      "creates": null,
      "raw": "0xf86d80850d8364fc258307a1209419939ad9f09d103b670c9ee56ca41d5764380f8a88016345785d8a0000801ca0e5d5b946d22fa7f8e824c8c68262d0222b11340bb9917a41879c8209d8b7892da00a2c7618ae15a53557fe966c00ad4d139d0336cbda61ba5fee42227d310d91e5",
      "networkId": 0,
      "chainId": 0
    },
    {
      "hash": "0x17cddbd4cd2449318cbb84bb907534c1b4a6fa0e3bdccd0dac433b265f672c1b",
      "blockHash": "0x09ed97600801a93d7e94251722a514ff6c27effed680681f1c8c32a1055ce2e5",
      "blockNumber": 85194,
      "transactionIndex": 2,
      "confirmations": null,
      "from": "0x1Dc9BaE77DBE79A2EFD8E2Bae6EAB9ba29fD8EB2",
      "gasPrice": {
        "_hex": "0xcc5293d38"
      },
      "gasLimit": {
        "_hex": "0x5208"
      },
      "to": "0x32Be343B94f860124dC4fEe278FDCBD38C102D88",
      "value": {
        "_hex": "0x56bc3469f0d35c000"
      },
      "nonce": 1,
      "data": "0x",
      "r": "0x744562256433e4c35aa876549f4f61d1b6c624fcb402ad652a7c2b1a12c906a4",
      "s": "0x2407c7b023bf915a07a8a825527a499e24688cd3143d6170c0496c988e57650f",
      "v": 27,
      "creates": null,
      "raw": "0xf86d01850cc5293d388252089432be343b94f860124dc4fee278fdcbd38c102d8889056bc3469f0d35c000801ba0744562256433e4c35aa876549f4f61d1b6c624fcb402ad652a7c2b1a12c906a4a02407c7b023bf915a07a8a825527a499e24688cd3143d6170c0496c988e57650f",
      "networkId": 0,
      "chainId": 0
    }
  ]
}