{
  "hash": "0x94e446934dcc9ee77dd21e874ed05f10e777d03f3c3b9f5fb05d778c7f7f5a80",
  "parentHash": "0x5bf78588465284f357996d173b519881ed9e06f3739328f2d5c8348802ac71e7",
  "number": 109958,
  "timestamp": 1439965437,
  "nonce": "0xdc991e23f19271f0",
  "difficulty": 4403702666600,
  "gasLimit": {
    "_hex": "0x2fefd8"
  },
  "gasUsed": {
    "_hex": "0x5208"
  },
  "miner": "0x9D49F602b0fdb924Bd63DDE2Bd0907E4A07c63a7",
  "extraData": "0x476574682f76312e302e312f6c696e75782f676f312e342e32",
  "transactions": [
    {
      "hash": "0x4a078a1e48659dab263f2604a73eb9d840970b01176cbeb96f68d424fb28a53b",
      "blockHash": "0x94e446934dcc9ee77dd21e874ed05f10e777d03f3c3b9f5fb05d778c7f7f5a80",
      "blockNumber": 109958,
      "transactionIndex": 0,
      "confirmations": null,
      "from": "0x0D4EcC7d750180EBf4A9Df728B6669B5Bceb5E40",
      "gasPrice": {
        "_hex": "0xd9ba0391a"
      },
      "gasLimit": {
        "_hex": "0x5208"
      },
      "to": "0x32Be343B94f860124dC4fEe278FDCBD38C102D88",
      "value": {
        "_hex": "0x2b59deaa6648c000"
      },
      "nonce": 99,
      "data": "0x",
      "r": "0x0e1fcd9db914c43b96690febf26b4a9b327e7fdeb07d0606574c34a45f2d92fc",
      "s": "0x59be573c99bd95ddb27fdd9d3c28ba7c823b1a90f6b1c1de091cc534f20a8fbb",
      "v": 28,
      "creates": null,
      "raw": "0xf86c63850d9ba0391a8252089432be343b94f860124dc4fee278fdcbd38c102d88882b59deaa6648c000801ca00e1fcd9db914c43b96690febf26b4a9b327e7fdeb07d0606574c34a45f2d92fca059be573c99bd95ddb27fdd9d3c28ba7c823b1a90f6b1c1de091cc534f20a8fbb",
      "networkId": 0,
      "chainId": 0
    }
  ]
}