{
  "hash": "0xd6744ea8a1a2b9668ce233694922720570662da8d53427411f8c5968aeab38d3",
  "parentHash": "0x1cb2b5561f781469394a427326c7b3ecec9ffa2b701d8424272d8f4017f6a2ce",
  "number": 81676,
  "timestamp": 1439505778,
  "nonce": "0x955f3791770e3851",
  "difficulty": 2433030123587,
  "gasLimit": {
    "_hex": "0x2fefd8"
  },
  "gasUsed": {
    "_hex": "0x5208"
  },
  "miner": "0xe6A7a1d47ff21B6321162AEA7C6CB457D5476Bca",
  "extraData": "0x476574682f76312e302e312d38326566323666362f6c696e75782f676f312e34",
  "transactions": [
    {
      "hash": "0x310268828d8294c5d5fc92930ed2374c78a29b4e1b39c0e4ae6642091a5d6f2e",
      "blockHash": "0xd6744ea8a1a2b9668ce233694922720570662da8d53427411f8c5968aeab38d3",
      "blockNumber": 81676,
      "transactionIndex": 0,
      "confirmations": null,
      "from": "0x6866e5e1FaBB4AbceF3EEb9Ea0d8CD6b52dfC9FF",
      "gasPrice": {
        "_hex": "0xd01ff83a8"
      },
      "gasLimit": {
        "_hex": "0x15f90"
      },
      "to": "0x01Ad0ACFf478127D9d702B1A13599D706cB759b1",
      "value": {
        "_hex": "0x33590a6584f20000"
      },
      "nonce": 14,
      "data": "0x",
      "r": "0x1da1ffe5ff43ed503034ace70bcf93abb425d1afde9f30c45d0f04a7d3a09245",
      "s": "0x22566b8d1a7e67e593e9961071bea2d9f596a2040e5d836dd4cc6049a13ce16a",
      "v": 28,
      "creates": null,
      "raw": "0xf86d0e850d01ff83a883015f909401ad0acff478127d9d702b1a13599d706cb759b18833590a6584f20000801ca01da1ffe5ff43ed503034ace70bcf93abb425d1afde9f30c45d0f04a7d3a09245a022566b8d1a7e67e593e9961071bea2d9f596a2040e5d836dd4cc6049a13ce16a",
      "networkId": 0,
      "chainId": 0
    }
  ]
}