{
  "hash": "0x775039019f32b2c8797598656b3b635b619736876bc78eae4224f1ce4a252018",
  "parentHash": "0x28491ec84ff9bf0e91b97f161ef7f43a46815e5cf42581776579606c8e9f24d1",
  "number": 121071,
  "timestamp": 1440170880,
  "nonce": "0xc0a6f73dee171277",
  "difficulty": 4425877597651,
  "gasLimit": {
    "_hex": "0x2fefd8"
  },
  "gasUsed": {
    "_hex": "0x5208"
  },
  "miner": "0x9D551f41feD6FC27B719777c224DfeCcE170004d",
  "extraData": "0x476574682f76312e302e322d61303330336666342f6c696e75782f676f312e34",
  "transactions": [
    {
      "hash": "0x4f6d74e248b317309159cdf5fd54237e82666b556579974faace6fd76209bb2e",
      "blockHash": "0x775039019f32b2c8797598656b3b635b619736876bc78eae4224f1ce4a252018",
      "blockNumber": 121071,
      "transactionIndex": 0,
      "confirmations": null,
      "from": "0x61F642543d22bAf5382908a714E675Cc0b51ea45",
      "gasPrice": {
        "_hex": "0xba43b7400"
      },
      "gasLimit": {
        "_hex": "0x5208"
      },
      "to": "0x32Be343B94f860124dC4fEe278FDCBD38C102D88",
      "value": {
        "_hex": "0x1158a8b10e6cc6000"
      },
      "nonce": 30,
      "data": "0x",
      "r": "0x70c73f2937a4013c42df04b17ab4bb3f807ec00fcbbdafeeeb01a4508c8eae85",
      "s": "0x209d2e43c3535fc5bcf4f8bb42dea0b943fc3f66f636817153f59e8e9a598ec6",
      "v": 28,
      "creates": null,
      "raw": "0xf86d1e850ba43b74008252089432be343b94f860124dc4fee278fdcbd38c102d888901158a8b10e6cc6000801ca070c73f2937a4013c42df04b17ab4bb3f807ec00fcbbdafeeeb01a4508c8eae85a0209d2e43c3535fc5bcf4f8bb42dea0b943fc3f66f636817153f59e8e9a598ec6",
      "networkId": 0,
      "chainId": 0
    }
  ]
}