{
  "hash": "0x761e35a557606a856c22e710f1f32b5cd88011d8c70737ee7cc270585ac4c87d",
  "parentHash": "0xc898d223d260bc3a011bfbc672ff3a5fb56296c8bfa7d16cea04420052ec4ee5",
  "number": 97806,
  "timestamp": 1439762195,
  "nonce": "0x7382ae3094b05015",
  "difficulty": 3835293197923,
  "gasLimit": {
    "_hex": "0x2fefd8"
  },
  "gasUsed": {
    "_hex": "0xa410"
  },
  "miner": "0xe6A7a1d47ff21B6321162AEA7C6CB457D5476Bca",
  "extraData": "0x476574682f76312e302e312d38326566323666362f6c696e75782f676f312e34",
  "transactions": [
    {
      "hash": "0xce7fb425f9e89e9e96ac03a76917240a6c16d8cc60d89e8f0f765496cf5d4d8a",
      "blockHash": "0x761e35a557606a856c22e710f1f32b5cd88011d8c70737ee7cc270585ac4c87d",
      "blockNumber": 97806,
      "transactionIndex": 0,
      "confirmations": null,
      "from": "0x120A270bbC009644e35F0bB6ab13f95b8199c4ad",
      "gasPrice": {
        "_hex": "0xe06494e1d"
      },
      "gasLimit": {
        "_hex": "0x3d090"
      },
      "to": "0x739f8ab33a41B67952f16778e3CC6D2dEcC3a2d5",
      "value": {
        "_hex": "0xd8d726b7177a80000"
      },
      "nonce": 646,
      "data": "0x",
      "r": "0xd576619db973bf2dd24cca4f6b692c8a750a2adf1030838c087518588f490730",
      "s": "0x446d9d050c0382fe41d9812becd25b35689e4e4d9e906b147515eb0b179f6db9",
      "v": 27,
      "creates": null,
      "raw": "0xf870820286850e06494e1d8303d09094739f8ab33a41b67952f16778e3cc6d2decc3a2d5890d8d726b7177a80000801ba0d576619db973bf2dd24cca4f6b692c8a750a2adf1030838c087518588f490730a0446d9d050c0382fe41d9812becd25b35689e4e4d9e906b147515eb0b179f6db9",
      "networkId": 0,
      "chainId": 0
    },
    {
      "hash": "0x1f524f318fae05d7ec63902b279256bea318af8dbbd31f4bdf7093bed466b41f",
      "blockHash": "0x761e35a557606a856c22e710f1f32b5cd88011d8c70737ee7cc270585ac4c87d",
      "blockNumber": 97806,
      "transactionIndex": 1,
      "confirmations": null,
      "from": "0x120A270bbC009644e35F0bB6ab13f95b8199c4ad",
      "gasPrice": {
        "_hex": "0xe06494e1d"
      },
      "gasLimit": {
        "_hex": "0x3d090"
      },
      "to": "0x739f8ab33a41B67952f16778e3CC6D2dEcC3a2d5",
      "value": {
        "_hex": "0xad78ebc5ac6200000"
      },
      "nonce": 647,
      "data": "0x",
      "r": "0x4fbc7d9eda744d1a338e5ac3b993dd996de0ba7d304d3947eca10b56ba625ea8",
      "s": "0x20950d78e61cbc3b41490a513653cf470eb4835b5cdea407c25efd21f7fce0ec",
      "v": 28,
      "creates": null,
      "raw": "0xf870820287850e06494e1d8303d09094739f8ab33a41b67952f16778e3cc6d2decc3a2d5890ad78ebc5ac6200000801ca04fbc7d9eda744d1a338e5ac3b993dd996de0ba7d304d3947eca10b56ba625ea8a020950d78e61cbc3b41490a513653cf470eb4835b5cdea407c25efd21f7fce0ec",
      "networkId": 0,
      "chainId": 0
    }
  ]
}