{
  "hash": "0xf70dcf1305b04b958cfa82f96dfa2b48d49ecca5d456e37c88e5d3967b1bd566",
  "parentHash": "0x781b9321cbf606bce2b66b0e9658e6f92fe3503b400043ce0a38ad3549dbfe6b",
  "number": 53661,
  "timestamp": 1439041449,
  "nonce": "0x3cfcf3985422d5a7",
  "difficulty": 1589274846764,
  "gasLimit": {
    "_hex": "0x2e6622"
  },
  "gasUsed": {
    "_hex": "0x5208"
  },
  "miner": "0x90891a4dAE53428129E5E2044f4677213EcCBB59",
  "extraData": "0x476574682f76312e302e312f77696e646f77732f676f312e342e32",
  "transactions": [
    {
      "hash": "0x3c36bcc65b46c0e3b75492524fa43ff699e01b715d0806fa979b54fddb5d8b02",
      "blockHash": "0xf70dcf1305b04b958cfa82f96dfa2b48d49ecca5d456e37c88e5d3967b1bd566",
      "blockNumber": 53661,
      "transactionIndex": 0,
      "confirmations": null,
      "from": "0x0037ce3d4B7f8729C8607D8D0248252Be68202c0",
      "gasPrice": {
        "_hex": "0xd578be330"
      },
      "gasLimit": {
        "_hex": "0x15f90"
      },
      "to": "0xDC6A542F97876923583019b526335fD1fB0DfC6A",
      "value": {
        "_hex": "0x2b5e3af16b1880000"
      },
      "nonce": 4,
      "data": "0x",
      "r": "0xe6dbf66ddca70ee37cea6618a00954e47c7321b2456cabe077bc6a04a90694b2",
      "s": "0x08e0ac2ee43c8fbe3e1289c0f282926ab60ac44811b5f4be848cae6500030186",
      "v": 27,
      "creates": null,
      "raw": "0xf86e04850d578be33083015f9094dc6a542f97876923583019b526335fd1fb0dfc6a8902b5e3af16b1880000801ba0e6dbf66ddca70ee37cea6618a00954e47c7321b2456cabe077bc6a04a90694b2a008e0ac2ee43c8fbe3e1289c0f282926ab60ac44811b5f4be848cae6500030186",
      "networkId": 0,
      "chainId": 0
    }
  ]
}