{
  "hash": "0x64db9b9d96dff174dcb4c6bc2c45640de9bbd84c7fd01125879cc1e4bf1ecadd",
  "parentHash": "0x8cdd42e577a738aa6d22fae1463fca7d94962eac7528c3fc05a90f062fcdc590",
  "number": 120616,
  "timestamp": 1440163011,
  "nonce": "0xdeb0c689164006bf",
  "difficulty": 4423957001907,
  "gasLimit": {
    "_hex": "0x2fefd8"
  },
  "gasUsed": {
    "_hex": "0x5208"
  },
  "miner": "0xf8E0CA3Ed80bd541b94BEdCf259e8CF2141A9523",
  "extraData": "0x",
  "transactions": [
    {
      "hash": "0x5c0f511630c01d18776367909319a2f269800d73aae79a75b4763228122bde72",
      "blockHash": "0x64db9b9d96dff174dcb4c6bc2c45640de9bbd84c7fd01125879cc1e4bf1ecadd",
      "blockNumber": 120616,
      "transactionIndex": 0,
      "confirmations": null,
      "from": "0x790b8a3cE86E707ED0eD32bF89B3269692a23CC1",
      "gasPrice": {
        "_hex": "0xba43b7400"
      },
      "gasLimit": {
        "_hex": "0x15f90"
      },
      "to": "0x4D67f4F0Db45b3B5a3424B39ed8d972F710381D5",
      "value": {
        "_hex": "0x2b480699e53fe0000"
      },
      "nonce": 72,
      "data": "0x",
      "r": "0x5a4800a43b8b3989cff36e6a24accc1624b0f960ac591a91f2d3bf50fa1ccd76",
      "s": "0x0abb7289bd7077c486cf8303a0de1ed9844c050333a067046ff0d14c7995a37e",
      "v": 27,
      "creates": null,
      "raw": "0xf86e48850ba43b740083015f90944d67f4f0db45b3b5a3424b39ed8d972f710381d58902b480699e53fe0000801ba05a4800a43b8b3989cff36e6a24accc1624b0f960ac591a91f2d3bf50fa1ccd76a00abb7289bd7077c486cf8303a0de1ed9844c050333a067046ff0d14c7995a37e",
      "networkId": 0,
      "chainId": 0
    }
  ]
}