{
  "hash": "0x30584ed883e6258b71ffbdd543a8716ca8ec0b1c2d4b8d2a30cbadd6fe2f366b",
  "parentHash": "0xf32b53097a82338e076090016b80cd6c4b66b6efae4b90b0babb10b52df4f02b",
  "number": 97490,
  "timestamp": 1439756969,
  "nonce": "0xfdfee133e17d4b68",
  "difficulty": 3820484721075,
  "gasLimit": {
    "_hex": "0x2fefd8"
  },
  "gasUsed": {
    "_hex": "0x5208"
  },
  "miner": "0x5B034036Ae40b7C5d7bbbF041D07b7f76E200039",
  "extraData": "0x476574682f76312e302e312f77696e646f77732f676f312e342e32",
  "transactions": [
    {
      "hash": "0xc01c0a0b9e540da74268a65cf9572c92d1ebd0ce37e34d1741d8bbd08a2b5c7f",
      "blockHash": "0x30584ed883e6258b71ffbdd543a8716ca8ec0b1c2d4b8d2a30cbadd6fe2f366b",
      "blockNumber": 97490,
      "transactionIndex": 0,
      "confirmations": null,
      "from": "0x2910543Af39abA0Cd09dBb2D50200b3E800A63D2",
      "gasPrice": {
        "_hex": "0xd5f17e934"
      },
      "gasLimit": {
        "_hex": "0x5208"
      },
      "to": "0x289B9bA6dC9c12D3130F1115180397C20cCBF220",
      "value": {
        "_hex": "0x375fd0347e56238000"
      },
      "nonce": 922,
      "data": "0x",
      "r": "0x29a84885f961f3aba6690d8685418adf70db950486830961cdb7ddcb3cbe34b4",
      "s": "0x2a66daeb45a0b6fc5d8fadab888f564d144d615717be163f35d95271dc8b6b86",
      "v": 27,
      "creates": null,
      "raw": "0xf86f82039a850d5f17e93482520894289b9ba6dc9c12d3130f1115180397c20ccbf22089375fd0347e56238000801ba029a84885f961f3aba6690d8685418adf70db950486830961cdb7ddcb3cbe34b4a02a66daeb45a0b6fc5d8fadab888f564d144d615717be163f35d95271dc8b6b86",
      "networkId": 0,
      "chainId": 0
    }
  ]
}