{
  "hash": "0x39be98836df5c202c2af2c056ca9c2c1ee8c3d9c793b7d6e36719224cb567a2c",
  "parentHash": "0xfc3bb2298722d90d38731c70927c6b863e16e419a7eff2aa508d9dc74c4b94af",
  "number": 80575,
  "timestamp": 1439487592,
  "nonce": "0xaf25c7d1860187de",
  "difficulty": 2417952330748,
  "gasLimit": {
    "_hex": "0x2fefd8"
  },
  "gasUsed": {
    "_hex": "0x546c"
  },
  "miner": "0xe6A7a1d47ff21B6321162AEA7C6CB457D5476Bca",
  "extraData": "0x476574682f76312e302e312d38326566323666362f6c696e75782f676f312e34",
  "transactions": [
    {
      "hash": "0xa009f9a8f5ab3111744ee9fdfc942358dd662eaea4859bada62a215e377ee419",
      "blockHash": "0x39be98836df5c202c2af2c056ca9c2c1ee8c3d9c793b7d6e36719224cb567a2c",
      "blockNumber": 80575,
      "transactionIndex": 0,
      "confirmations": null,
      "from": "0x439dEe3F7679fF1030733F9340c096686b49390b",
      "gasPrice": {
        "_hex": "0xd3e001cb6"
      },
      "gasLimit": {
        "_hex": "0x55f0"
      },
      "to": "0x2910543Af39abA0Cd09dBb2D50200b3E800A63D2",
      "value": {
        "_hex": "0x3635c9adc5dea00000"
      },
      "nonce": 2,
      "data": "0x454e58394338594e38",
      "r": "0x6a25b5ea31979167dd6148bb7069fc23ab8a82476b3d4ab35efb9e6143e83c54",
      "s": "0x1dc45b733d0ed47458d373da99598b547dbc19abcd629d626b0effd122c3f613",
      "v": 27,
      "creates": null,
      "raw": "0xf87602850d3e001cb68255f0942910543af39aba0cd09dbb2d50200b3e800a63d2893635c9adc5dea0000089454e58394338594e381ba06a25b5ea31979167dd6148bb7069fc23ab8a82476b3d4ab35efb9e6143e83c54a01dc45b733d0ed47458d373da99598b547dbc19abcd629d626b0effd122c3f613",
      "networkId": 0,
      "chainId": 0
    }
  ]
}