{
  "hash": "0x376277f9c76a3eaf1ce60639ac02093e44a35669a34486b62ba527de95f08c46",
  "parentHash": "0x07506d6a3252848c5f2714a6bf3ff222028d44a812fbc72269e9ecd10a1c6e84",
  "number": 68969,
  "timestamp": 1439296467,
  "nonce": "0xbc29892e3d609dea",
  "difficulty": 2032974272363,
  "gasLimit": {
    "_hex": "0x2fefd8"
  },
  "gasUsed": {
    "_hex": "0x47c70"
  },
  "miner": "0x47ff6576639c2e94762eA5443978D7681C0E78DC",
  "extraData": "0x476574682f76312e302e312f6c696e75782f676f312e342e32",
  "transactions": [
    {
      "hash": "0xfa90cdcec08ae4624d81c10f49a27a05dce097aba1b774bfe69600bfa44d9bde",
      "blockHash": "0x376277f9c76a3eaf1ce60639ac02093e44a35669a34486b62ba527de95f08c46",
      "blockNumber": 68969,
      "transactionIndex": 0,
      "confirmations": null,
      "from": "0x3b44000CF20E79f454C2f07f9f876473350dCb1F",
      "gasPrice": {
        "_hex": "0xba43b7400"
      },
      "gasLimit": {
        "_hex": "0x5208"
      },
      "to": "0xD20a98E6Eb1b2B59D236BB9d251DB10C8E393Bb1",
      "value": {
        "_hex": "0x1072bbac261c000"
      },
      "nonce": 1,
      "data": "0x",
      "r": "0x97508006868169d05cbf0649c191f1e26c3b861616142e01b56f0a85402444b8",
      "s": "0x2ba765f5491644e91d3b18d81b9546982180a6a425ebf2ab26606879fb77fad8",
      "v": 27,
      "creates": null,
      "raw": "0xf86c01850ba43b740082520894d20a98e6eb1b2b59d236bb9d251db10c8e393bb18801072bbac261c000801ba097508006868169d05cbf0649c191f1e26c3b861616142e01b56f0a85402444b8a02ba765f5491644e91d3b18d81b9546982180a6a425ebf2ab26606879fb77fad8",
      "networkId": 0,
      "chainId": 0
    },
    {
      "hash": "0x04a61d8d87225063623dd25b64087a8dadf9fe9f0eebbc5e1c2f7cf953b31660",
      "blockHash": "0x376277f9c76a3eaf1ce60639ac02093e44a35669a34486b62ba527de95f08c46",
      "blockNumber": 68969,
      "transactionIndex": 1,
      "confirmations": null,
      "from": "0x42af5364bB72A127fb1bA31bBBC121b37F4eEbA4",
      "gasPrice": {
        "_hex": "0xba43b7400"
      },
      "gasLimit": {
        "_hex": "0x5208"
      },
      "to": "0xBFa1B37b785817f9a5b55106931F4343b10D982B",
      "value": {
        "_hex": "0x1072bbac261c000"
      },
      "nonce": 1,
      "data": "0x",
      "r": "0x3f8e6470d23ba4d813617f19b3223cc8937ffcb3e9a455810f434b7b2f6bc031",
      "s": "0x20761bc3401f1395e8ecdfaa9ca32fcf49e5ff7407228ed51f8e3c7c8d64880e",
      "v": 28,
      "creates": null,
      "raw": "0xf86c01850ba43b740082520894bfa1b37b785817f9a5b55106931f4343b10d982b8801072bbac261c000801ca03f8e6470d23ba4d813617f19b3223cc8937ffcb3e9a455810f434b7b2f6bc031a020761bc3401f1395e8ecdfaa9ca32fcf49e5ff7407228ed51f8e3c7c8d64880e",
      "networkId": 0,
      "chainId": 0
    },
    {
      "hash": "0x87fa3814d395293ce1943f06131e3ff51bcfa58a0b62ea3aef5445ba8e41e9bf",
      "blockHash": "0x376277f9c76a3eaf1ce60639ac02093e44a35669a34486b62ba527de95f08c46",
      "blockNumber": 68969,
      "transactionIndex": 2,
      "confirmations": null,
      "from": "0x13dbf95ED3fA868a7EF9630f8DA4b9d19a8e10E3",
      "gasPrice": {
        "_hex": "0xba43b7400"
      },
      "gasLimit": {
        "_hex": "0x5208"
      },
      "to": "0x965b455e9a6742c635f556D7d51451B19957161E",
      "value": {
        "_hex": "0x1072bbac261c000"
      },
      "nonce": 1,
      "data": "0x",
      "r": "0xe11cff625ef6115f907bd0c940377892a8a868235db41b0ea240ce1670f70e36",
      "s": "0x793b42cbfb18b24ffb5e061db50574d3b9015be342982b65ef82ce3244452d11",
      "v": 27,
      "creates": null,
      "raw": "0xf86c01850ba43b740082520894965b455e9a6742c635f556d7d51451b19957161e8801072bbac261c000801ba0e11cff625ef6115f907bd0c940377892a8a868235db41b0ea240ce1670f70e36a0793b42cbfb18b24ffb5e061db50574d3b9015be342982b65ef82ce3244452d11",
      "networkId": 0,
      "chainId": 0
    },
    {
      "hash": "0x6788988b34b404791ad28be4a6c85bfed2a7fc1dd73506b6a92cc24799c83a83",
      "blockHash": "0x376277f9c76a3eaf1ce60639ac02093e44a35669a34486b62ba527de95f08c46",
      "blockNumber": 68969,
      "transactionIndex": 3,
      "confirmations": null,
      "from": "0x2a6537b4260d8B4435f3bC5F749B943167e3CC01",
      "gasPrice": {
        "_hex": "0xba43b7400"
      },
      "gasLimit": {
        "_hex": "0x5208"
      },
      "to": "0xc31E518A72a799F7a1203642060ba94FBc0d731f",
      "value": {
        "_hex": "0x1072bbac261c000"
      },
      "nonce": 1,
      "data": "0x",
      "r": "0x375031d3ed1c7b2de2b53acdb5ff717fa714da5dd470555bbf2a0d8c7a35f398",
      "s": "0x5db46de2fa4ef4c6726b54d3fcd2d6f1a66eb3600617109c9ff5aa77ec388be4",
      "v": 27,
      "creates": null,
      "raw": "0xf86c01850ba43b740082520894c31e518a72a799f7a1203642060ba94fbc0d731f8801072bbac261c000801ba0375031d3ed1c7b2de2b53acdb5ff717fa714da5dd470555bbf2a0d8c7a35f398a05db46de2fa4ef4c6726b54d3fcd2d6f1a66eb3600617109c9ff5aa77ec388be4",
      "networkId": 0,
      "chainId": 0
    },
    {
      "hash": "0x5c0c4bfba19077376bdffae4ee14064cbdc724efdb72da53489bd90c2b3c9b24",
      "blockHash": "0x376277f9c76a3eaf1ce60639ac02093e44a35669a34486b62ba527de95f08c46",
      "blockNumber": 68969,
      "transactionIndex": 4,
      "confirmations": null,
      "from": "0x2cf77CC6f65639f4D58Ea1Cf57E0200eD415c812",
      "gasPrice": {
        "_hex": "0xba43b7400"
      },
      "gasLimit": {
        "_hex": "0x5208"
      },
      "to": "0x2a06b1ef853457d418458531A737B305A6B1fCba",
      "value": {
        "_hex": "0x1072bbac261c000"
      },
      "nonce": 1,
      "data": "0x",
      "r": "0x25e64ad63b7aca3d4f69c8ebca093f427c9aec19f3c59d411907d63535ba8455",
      "s": "0x3dd37fcfa555d0a32f9c7a59f8e203cbe42aeb01b8d8d07c86ab610077a43abf",
      "v": 27,
      "creates": null,
      "raw": "0xf86c01850ba43b7400825208942a06b1ef853457d418458531a737b305a6b1fcba8801072bbac261c000801ba025e64ad63b7aca3d4f69c8ebca093f427c9aec19f3c59d411907d63535ba8455a03dd37fcfa555d0a32f9c7a59f8e203cbe42aeb01b8d8d07c86ab610077a43abf",
      "networkId": 0,
      "chainId": 0
    },
    {
      "hash": "0x183bddafbc6c581803c07a0d5493a981c10bdd1ff28041cfe99dfa00374e4f34",
      "blockHash": "0x376277f9c76a3eaf1ce60639ac02093e44a35669a34486b62ba527de95f08c46",
      "blockNumber": 68969,
      "transactionIndex": 5,
      "confirmations": null,
      "from": "0x5023D89FEB0160652DB31A3be0F282CDa2d1f402",
      "gasPrice": {
        "_hex": "0xba43b7400"
      },
      "gasLimit": {
        "_hex": "0x5208"
      },
      "to": "0xf30934107CEa241eD53C99fE1182bC6d91DF2998",
      "value": {
        "_hex": "0x1072bbac261c000"
      },
      "nonce": 1,
      "data": "0x",
      "r": "0x3a8eb6d85a86cd220d96054d97fbc7e8987a29e84b52582cd437d2ff5184650b",
      "s": "0x308df6a820b3acb1e7eb3f020a300af327afda6bc9597b97e1b6d511eea380a4",
      "v": 27,
      "creates": null,
      "raw": "0xf86c01850ba43b740082520894f30934107cea241ed53c99fe1182bc6d91df29988801072bbac261c000801ba03a8eb6d85a86cd220d96054d97fbc7e8987a29e84b52582cd437d2ff5184650ba0308df6a820b3acb1e7eb3f020a300af327afda6bc9597b97e1b6d511eea380a4",
      "networkId": 0,
      "chainId": 0
    },
    {
      "hash": "0x8c83290b2ef48659f15d9ddc3cf41a227471931490e6e787127ab28c6a2c31cc",
      "blockHash": "0x376277f9c76a3eaf1ce60639ac02093e44a35669a34486b62ba527de95f08c46",
      "blockNumber": 68969,
      "transactionIndex": 6,
      "confirmations": null,
      "from": "0xDb1D8e414E3eb29bbf45309Bd92CC511B3C36712",
      "gasPrice": {
        "_hex": "0xba43b7400"
      },
      "gasLimit": {
        "_hex": "0x5208"
      },
      "to": "0xD603CD1773DC30D7553eeE3D760F388EE755FB8A",
      "value": {
        "_hex": "0x1072bbac261c000"
      },
      "nonce": 1,
      "data": "0x",
      "r": "0xc71aa750b277e7fd68faf93d8a801aad5d981b9f55c7884471655c3c6c34dffa",
      "s": "0x44a320d14081ab66eddc7c14076a8c68c0f123b3b1fa1e3976d6bb31b1d9d808",
      "v": 27,
      "creates": null,
      "raw": "0xf86c01850ba43b740082520894d603cd1773dc30d7553eee3d760f388ee755fb8a8801072bbac261c000801ba0c71aa750b277e7fd68faf93d8a801aad5d981b9f55c7884471655c3c6c34dffaa044a320d14081ab66eddc7c14076a8c68c0f123b3b1fa1e3976d6bb31b1d9d808",
      "networkId": 0,
      "chainId": 0
    },
    {
      "hash": "0xefa982438b730e5fed6686c7617417d893ea03d4daf019ca74b20cffcedfea34",
      "blockHash": "0x376277f9c76a3eaf1ce60639ac02093e44a35669a34486b62ba527de95f08c46",
      "blockNumber": 68969,
      "transactionIndex": 7,
      "confirmations": null,
      "from": "0x7335908C33B8359346322091be6cb6baa7546cbc",
      "gasPrice": {
        "_hex": "0xba43b7400"
      },
      "gasLimit": {
        "_hex": "0x5208"
      },
      "to": "0x78642b5feC6782eB4E476d205ab522d356d221AB",
      "value": {
        "_hex": "0x1072bbac261c000"
      },
      "nonce": 1,
      "data": "0x",
      "r": "0x5fd5ea16c3ff978a18939dc2b67e00f792dee69c0b1d32d9881728a111970d76",
      "s": "0x6f318a6fd44a6e7d19df8bdae77643abf1d30ed5372b715a5e01aac6f3b8fede",
      "v": 28,
      "creates": null,
      "raw": "0xf86c01850ba43b74008252089478642b5fec6782eb4e476d205ab522d356d221ab8801072bbac261c000801ca05fd5ea16c3ff978a18939dc2b67e00f792dee69c0b1d32d9881728a111970d76a06f318a6fd44a6e7d19df8bdae77643abf1d30ed5372b715a5e01aac6f3b8fede",
      "networkId": 0,
      "chainId": 0
    },
    {
      "hash": "0xf0fe39600d4a7b710fedc9d76e5bc1f596a63bdf790dbaf0e0d423c72f755f43",
      "blockHash": "0x376277f9c76a3eaf1ce60639ac02093e44a35669a34486b62ba527de95f08c46",
      "blockNumber": 68969,
      "transactionIndex": 8,
      "confirmations": null,
      "from": "0x08894526ac3A78d39D9F247936A35239d5f58Ef5",
      "gasPrice": {
        "_hex": "0xba43b7400"
      },
      "gasLimit": {
        "_hex": "0x5208"
      },
      "to": "0x916FB333E17530E2CA4EEE8816703D2024Ec48aC",
      "value": {
        "_hex": "0x1072bbac261c000"
      },
      "nonce": 1,
      "data": "0x",
      "r": "0x7dd28e00f4725ce70ad76b6b08fa7c546635bf7e390a3fb573b1ebaf50a9349b",
      "s": "0x433d7f62b47621ec2fecbc28eb4508b63f5d7be603de0e8fdb7a407c617271e8",
      "v": 28,
      "creates": null,
      "raw": "0xf86c01850ba43b740082520894916fb333e17530e2ca4eee8816703d2024ec48ac8801072bbac261c000801ca07dd28e00f4725ce70ad76b6b08fa7c546635bf7e390a3fb573b1ebaf50a9349ba0433d7f62b47621ec2fecbc28eb4508b63f5d7be603de0e8fdb7a407c617271e8",
      "networkId": 0,
      "chainId": 0
    },
    {
      "hash": "0x9b12801af18ed0162f6c1ca99c569cb3503dc3148db4e64eac996cddb4a82b84",
      "blockHash": "0x376277f9c76a3eaf1ce60639ac02093e44a35669a34486b62ba527de95f08c46",
      "blockNumber": 68969,
      "transactionIndex": 9,
      "confirmations": null,
      "from": "0x23F8B82dD03251F5d5C752E9A28073C95FaA7F36",
      "gasPrice": {
        "_hex": "0xba43b7400"
      },
      "gasLimit": {
        "_hex": "0x5208"
      },
      "to": "0xaD2413b4E79D9c17fdA506602fFC7ea38510ab55",
      "value": {
        "_hex": "0x1072bbac261c000"
      },
      "nonce": 1,
      "data": "0x",
      "r": "0xdc43e8fbe4543ee1e3980387d575e233deb81590f16f482fb8a45795d002b463",
      "s": "0x75980f892858bc0b07c266f702af2cbcc6c3ba2b65ca6d8747fa4dfed95940d4",
      "v": 28,
      "creates": null,
      "raw": "0xf86c01850ba43b740082520894ad2413b4e79d9c17fda506602ffc7ea38510ab558801072bbac261c000801ca0dc43e8fbe4543ee1e3980387d575e233deb81590f16f482fb8a45795d002b463a075980f892858bc0b07c266f702af2cbcc6c3ba2b65ca6d8747fa4dfed95940d4",
      "networkId": 0,
      "chainId": 0
    },
    {
      "hash": "0x4eab9bc25924ac840f05f4a5985e6ad5eef65906ac7bc191f26d877b50cbdb23",
      "blockHash": "0x376277f9c76a3eaf1ce60639ac02093e44a35669a34486b62ba527de95f08c46",
      "blockNumber": 68969,
      "transactionIndex": 10,
      "confirmations": null,
      "from": "0x1E8f4D2Abc96eB5a5106ab15e2ae3d260Cd80f49",
      "gasPrice": {
        "_hex": "0xba43b7400"
      },
      "gasLimit": {
        "_hex": "0x5208"
      },
      "to": "0x6Da99D6160C17494af9443fe437a94759a1fcd9D",
      "value": {
        "_hex": "0x1072bbac261c000"
      },
      "nonce": 1,
      "data": "0x",
      "r": "0x329fde38080de645b516f013d18037a3a6354e61ed358d3508123e8f388477a2",
      "s": "0x4b31add6832a6530df0337917490026703872fc5c10f7cc58ef1fc7024465a51",
      "v": 27,
      "creates": null,
      "raw": "0xf86c01850ba43b7400825208946da99d6160c17494af9443fe437a94759a1fcd9d8801072bbac261c000801ba0329fde38080de645b516f013d18037a3a6354e61ed358d3508123e8f388477a2a04b31add6832a6530df0337917490026703872fc5c10f7cc58ef1fc7024465a51",
      "networkId": 0,
      "chainId": 0
    },
    {
      "hash": "0xb76e6f41488b5fe00deb69a77d1afa1e2d1e3f1392157926c52777383a42c598",
      "blockHash": "0x376277f9c76a3eaf1ce60639ac02093e44a35669a34486b62ba527de95f08c46",
      "blockNumber": 68969,
      "transactionIndex": 11,
      "confirmations": null,
      "from": "0xff894e9AE9af25e529E87f7e0CAAE8279698cb41",
      "gasPrice": {
        "_hex": "0xba43b7400"
      },
      "gasLimit": {
        "_hex": "0x5208"
      },
      "to": "0x0F8f418Fe322dC50bA2B05Bab96Bddf6fB50C87D",
      "value": {
        "_hex": "0x1072bbac261c000"
      },
      "nonce": 1,
      "data": "0x",
      "r": "0x9e5344111c8e5ca2f315bca9cea2f80c2574516c80eba30ca7fad6ea9d5fe821",
      "s": "0x6eed0540a4dfc9ace4c3425d8d549e038cbbb2c1e5278f14765ceeb0d67afa20",
      "v": 28,
      "creates": null,
      "raw": "0xf86c01850ba43b7400825208940f8f418fe322dc50ba2b05bab96bddf6fb50c87d8801072bbac261c000801ca09e5344111c8e5ca2f315bca9cea2f80c2574516c80eba30ca7fad6ea9d5fe821a06eed0540a4dfc9ace4c3425d8d549e038cbbb2c1e5278f14765ceeb0d67afa20",
      "networkId": 0,
      "chainId": 0
    },
    {
      "hash": "0x99de6e46b94efed3eb39280fa408434c8c07a1e3cd2463dba2d77ce2c1ba67fc",
      "blockHash": "0x376277f9c76a3eaf1ce60639ac02093e44a35669a34486b62ba527de95f08c46",
      "blockNumber": 68969,
      "transactionIndex": 12,
      "confirmations": null,
      "from": "0xf7dB5ADD58Ea9245bb217373D5aCb59c73cB89cd",
      "gasPrice": {
        "_hex": "0xba43b7400"
      },
      "gasLimit": {
        "_hex": "0x5208"
      },
      "to": "0xd0B2A5dEA8Ef2c7A8E0E5c3AbAed322E2E3d2958",
      "value": {
        "_hex": "0x1072bbac261c000"
      },
      "nonce": 1,
      "data": "0x",
      "r": "0x00e7856ad98b90ff936e1c9cbac1b42e7604be15b8bd93f9b39be8b9d79ba8dd",
      "s": "0x1b11fe813c6bb089221281443931d150b4abd4f1d85d069a3388b368ab58a296",
      "v": 28,
      "creates": null,
      "raw": "0xf86b01850ba43b740082520894d0b2a5dea8ef2c7a8e0e5c3abaed322e2e3d29588801072bbac261c000801c9fe7856ad98b90ff936e1c9cbac1b42e7604be15b8bd93f9b39be8b9d79ba8dda01b11fe813c6bb089221281443931d150b4abd4f1d85d069a3388b368ab58a296",
      "networkId": 0,
      "chainId": 0
    },
    {
      "hash": "0x9b1de359bc1efee4bffa1f0e6a592022a827ffb6b47488ad0902bfeadbbe4567",
      "blockHash": "0x376277f9c76a3eaf1ce60639ac02093e44a35669a34486b62ba527de95f08c46",
      "blockNumber": 68969,
      "transactionIndex": 13,
      "confirmations": null,
      "from": "0x0D48c7885C9Cc97dF1C88c6FA5c5739d88e9D6D8",
      "gasPrice": {
        "_hex": "0xba43b7400"
      },
      "gasLimit": {
        "_hex": "0x5208"
      },
      "to": "0x3c21934B37417710A206cB355267994E4C68C867",
      "value": {
        "_hex": "0x1072bbac261c000"
      },
      "nonce": 1,
      "data": "0x",
      "r": "0xdb3119f9467378f19b9961564909decc9ebaf453012a36b4b7a8c7f83bd40ebd",
      "s": "0x4b97669c2bfa1573c1441d0d587b5e7a0cb734f7df3b16208140ebd2fafb1e38",
      "v": 27,
      "creates": null,
      "raw": "0xf86c01850ba43b7400825208943c21934b37417710a206cb355267994e4c68c8678801072bbac261c000801ba0db3119f9467378f19b9961564909decc9ebaf453012a36b4b7a8c7f83bd40ebda04b97669c2bfa1573c1441d0d587b5e7a0cb734f7df3b16208140ebd2fafb1e38",
      "networkId": 0,
      "chainId": 0
    }
  ]
}