{
  "hash": "0x0e27ce0db9527efbe74b05b6f2f7ae020d821a065e536f11ba64657bb7ac61ba",
  "parentHash": "0xf84eccbec7991f5436b9db84a7538f7d8009342fc378417abaefc52e1fb74aad",
  "number": 48080,
  "timestamp": 1438950993,
  "nonce": "0xc9112b5194f0e1e0",
  "difficulty": 1460083933282,
  "gasLimit": {
    "_hex": "0x124e5"
  },
  "gasUsed": {
    "_hex": "0x546c"
  },
  "miner": "0xe037cF7624A74D24C09482fb0e6b78BcD43f1EEc",
  "extraData": "0x476574682f76312e302e302f77696e646f77732f676f312e342e32",
  "transactions": [
    {
      "hash": "0x3047c9a5dd53b8aff18ab165ed8a65ed0c67b6725cfccee35653cafeafca9f05",
      "blockHash": "0x0e27ce0db9527efbe74b05b6f2f7ae020d821a065e536f11ba64657bb7ac61ba",
      "blockNumber": 48080,
      "transactionIndex": 0,
      "confirmations": null,
      "from": "0x54a62bf9233E146ffEC3876E45f20ee8414adeba",
      "gasPrice": {
        "_hex": "0x10d46dfb12c"
      },
      "gasLimit": {
        "_hex": "0x7918"
      },
      "to": "0x2910543Af39abA0Cd09dBb2D50200b3E800A63D2",
      "value": {
        "_hex": "0x2b5e3af16b1880000"
      },
      "nonce": 0,
      "data": "0x454e4a314d4b363152",
      "r": "0xf4ccb0d01d90f778cdb254f7a223a827feb552a52d7858f1dbea72eedb5eda37",
      "s": "0x0884a4493c9a3704b6ed549178cbc62200a6011829358fbe6017cc3b9b67fed2",
      "v": 27,
      "creates": null,
      "raw": "0xf8778086010d46dfb12c827918942910543af39aba0cd09dbb2d50200b3e800a63d28902b5e3af16b188000089454e4a314d4b3631521ba0f4ccb0d01d90f778cdb254f7a223a827feb552a52d7858f1dbea72eedb5eda37a00884a4493c9a3704b6ed549178cbc62200a6011829358fbe6017cc3b9b67fed2",
      "networkId": 0,
      "chainId": 0
    }
  ]
}