{
  "hash": "0x97909c2a496349f869d16bba84cccb6825e03d2bedb1e19072ed3aaab2783b86",
  "parentHash": "0xa68364d561be21ec5d6a913da7521795c10e9ee2b1c0377a59b98a2c43b43c63",
  "number": 55940,
  "timestamp": 1439079485,
  "nonce": "0xd85b309b1a833238",
  "difficulty": 1614651986965,
  "gasLimit": {
    "_hex": "0x2fefd8"
  },
  "gasUsed": {
    "_hex": "0x19a28"
  },
  "miner": "0x87898CE53471043FcCa0a2aF4E1dC6d8B3fCf607",
  "extraData": "0x476574682f5369626572696131392f76312e302e312d37666266393930632f6c",
  "transactions": [
    {
      "hash": "0xbb7df6611b425a7f9555832d9126b3111339db26b8fd3281a2f922c081dddaeb",
      "blockHash": "0x97909c2a496349f869d16bba84cccb6825e03d2bedb1e19072ed3aaab2783b86",
      "blockNumber": 55940,
      "transactionIndex": 0,
      "confirmations": null,
      "from": "0xe6A7a1d47ff21B6321162AEA7C6CB457D5476Bca",
      "gasPrice": {
        "_hex": "0xdb48cd4b3"
      },
      "gasLimit": {
        "_hex": "0x55f0"
      },
      "to": "0xf6939024FA41613B3B6c4DE6D086Aa16648f5fa3",
      "value": {
        "_hex": "0xc382980ee258d750"
      },
      "nonce": 503,
      "data": "0x",
      "r": "0x2b7983565a9916a3c355c5e3d7c36f60e7fa5a4e6ef69dc10e43ee1db135ab0d",
      "s": "0x7626d04baf5c2d2d2a8a4c5673dfc8a1dba1dbc70bfc75e01a3213d4f9b04c03",
      "v": 28,
      "creates": null,
      "raw": "0xf86e8201f7850db48cd4b38255f094f6939024fa41613b3b6c4de6d086aa16648f5fa388c382980ee258d750801ca02b7983565a9916a3c355c5e3d7c36f60e7fa5a4e6ef69dc10e43ee1db135ab0da07626d04baf5c2d2d2a8a4c5673dfc8a1dba1dbc70bfc75e01a3213d4f9b04c03",
      "networkId": 0,
      "chainId": 0
    },
    {
      "hash": "0x16017514b48a6619987653da0c8c6b79d4ce1bdc0b5c7e5a1d80b5be71424e6c",
      "blockHash": "0x97909c2a496349f869d16bba84cccb6825e03d2bedb1e19072ed3aaab2783b86",
      "blockNumber": 55940,
      "transactionIndex": 1,
      "confirmations": null,
      "from": "0xe6A7a1d47ff21B6321162AEA7C6CB457D5476Bca",
      "gasPrice": {
        "_hex": "0xdb48cd4b3"
      },
      "gasLimit": {
        "_hex": "0x55f0"
      },
      "to": "0xaC49eeb6a55aF554D86d37b4A4eA7940010866E1",
      "value": {
        "_hex": "0xeb352eb71f19c870"
      },
      "nonce": 504,
      "data": "0x",
      "r": "0xcf5e68b1a5cdef53a8e08111e1019ed7587922388cc5c876ec00ab5b3717f804",
      "s": "0x531dc3417f32cd75bedcd245efe77a7afd64f8c556f7ce422da5095098c0b89c",
      "v": 28,
      "creates": null,
      "raw": "0xf86e8201f8850db48cd4b38255f094ac49eeb6a55af554d86d37b4a4ea7940010866e188eb352eb71f19c870801ca0cf5e68b1a5cdef53a8e08111e1019ed7587922388cc5c876ec00ab5b3717f804a0531dc3417f32cd75bedcd245efe77a7afd64f8c556f7ce422da5095098c0b89c",
      "networkId": 0,
      "chainId": 0
    },
    {
      "hash": "0x4137b54a459365530050cd7441f31a9c17377194d4c86a3ad236d1134c2fc36b",
      "blockHash": "0x97909c2a496349f869d16bba84cccb6825e03d2bedb1e19072ed3aaab2783b86",
      "blockNumber": 55940,
      "transactionIndex": 2,
      "confirmations": null,
      "from": "0xe6A7a1d47ff21B6321162AEA7C6CB457D5476Bca",
      "gasPrice": {
        "_hex": "0xdb48cd4b3"
      },
      "gasLimit": {
        "_hex": "0x55f0"
      },
      "to": "0x620Cf322445b507cde02b21DC0ea1193A52Aca17",
      "value": {
        "_hex": "0x17b18d7314072acd0"
      },
      "nonce": 505,
      "data": "0x",
      "r": "0xe473a02f7224742d9cc80f9ce050c2ba41ce296ae07131813c42c88b75a588de",
      "s": "0x615b8b25f23c18f942a78ec968c2fb536afb9bb07bbc8ed1830429dc9e9d7103",
      "v": 27,
      "creates": null,
      "raw": "0xf86f8201f9850db48cd4b38255f094620cf322445b507cde02b21dc0ea1193a52aca1789017b18d7314072acd0801ba0e473a02f7224742d9cc80f9ce050c2ba41ce296ae07131813c42c88b75a588dea0615b8b25f23c18f942a78ec968c2fb536afb9bb07bbc8ed1830429dc9e9d7103",
      "networkId": 0,
      "chainId": 0
    },
    {
      "hash": "0x2c305bdf392edceae398cd5be90b6a0e2fcd304c48545a16c8a7da3c428e7e62",
      "blockHash": "0x97909c2a496349f869d16bba84cccb6825e03d2bedb1e19072ed3aaab2783b86",
      "blockNumber": 55940,
      "transactionIndex": 3,
      "confirmations": null,
      "from": "0xe6A7a1d47ff21B6321162AEA7C6CB457D5476Bca",
      "gasPrice": {
        "_hex": "0xdb48cd4b3"
      },
      "gasLimit": {
        "_hex": "0x55f0"
      },
      "to": "0xeF0a7407D5b9AF9fA9f38f67aBB66d20686afb55",
      "value": {
        "_hex": "0x1ba725fd6e9644080"
      },
      "nonce": 506,
      "data": "0x",
      "r": "0x90397e44bbc9a18f41f5643bb81f2ed07d3fa044364b9ea91a85133ba1ceddc8",
      "s": "0x6ef39f36effe727ed906c2eb800a0fa24245cf5608dfd3a2bd27212c9892d440",
      "v": 28,
      "creates": null,
      "raw": "0xf86f8201fa850db48cd4b38255f094ef0a7407d5b9af9fa9f38f67abb66d20686afb558901ba725fd6e9644080801ca090397e44bbc9a18f41f5643bb81f2ed07d3fa044364b9ea91a85133ba1ceddc8a06ef39f36effe727ed906c2eb800a0fa24245cf5608dfd3a2bd27212c9892d440",
      "networkId": 0,
      "chainId": 0
    },
    {
      "hash": "0xa0abe470e9639b674922c0cf97760c48c945b2ceaa355502b2e5a8b2d388ffc9",
      "blockHash": "0x97909c2a496349f869d16bba84cccb6825e03d2bedb1e19072ed3aaab2783b86",
      "blockNumber": 55940,
      "transactionIndex": 4,
      "confirmations": null,
      "from": "0xe6A7a1d47ff21B6321162AEA7C6CB457D5476Bca",
      "gasPrice": {
        "_hex": "0xdb48cd4b3"
      },
      "gasLimit": {
        "_hex": "0x55f0"
      },
      "to": "0xa21E0cF3793cf75D63930696158E4474aF8383bA",
      "value": {
        "_hex": "0x1c0adbd8c56ddee78"
      },
      "nonce": 507,
      "data": "0x",
      "r": "0x6a4f18aba41df705e02f2e2a628632661d63590789f117e5a8ea5a3e051717e9",
      "s": "0x02f1cd0bda2dd52b530a55cf31ede41f54b6552cccebd2e124e395ffef1e2a6c",
      "v": 28,
      "creates": null,
      "raw": "0xf86f8201fb850db48cd4b38255f094a21e0cf3793cf75d63930696158e4474af8383ba8901c0adbd8c56ddee78801ca06a4f18aba41df705e02f2e2a628632661d63590789f117e5a8ea5a3e051717e9a002f1cd0bda2dd52b530a55cf31ede41f54b6552cccebd2e124e395ffef1e2a6c",
      "networkId": 0,
      "chainId": 0
    }
  ]
}