{
  "hash": "0x5ab311f5696092cb63a1a94830031a000df9a26e03d30a58ae1555c922e655b0",
  "parentHash": "0xc2569e8477603c879412a39804086926ee77334e75d865f68edc6fd125240479",
  "number": 108144,
  "timestamp": 1439934885,
  "nonce": "0xe3e1b173f0c0ff79",
  "difficulty": 4378921986961,
  "gasLimit": {
    "_hex": "0x2fefd8"
  },
  "gasUsed": {
    "_hex": "0xa410"
  },
  "miner": "0xe6A7a1d47ff21B6321162AEA7C6CB457D5476Bca",
  "extraData": "0x476574682f76312e302e312d38326566323666362f6c696e75782f676f312e34",
  "transactions": [
    {
      "hash": "0xf5fe7feb51849a7b98896455fcb941c9af66d27e80d29751709b41e4d87dedb0",
      "blockHash": "0x5ab311f5696092cb63a1a94830031a000df9a26e03d30a58ae1555c922e655b0",
      "blockNumber": 108144,
      "transactionIndex": 0,
      "confirmations": null,
      "from": "0xB90a2809c2E22c4Ff9997A58Bd5B96fA2195D7Eb",
      "gasPrice": {
        "_hex": "0xde9a7822d"
      },
      "gasLimit": {
        "_hex": "0x5208"
      },
      "to": "0x32Be343B94f860124dC4fEe278FDCBD38C102D88",
      "value": {
        "_hex": "0x56bc2e8e5da910000"
      },
      "nonce": 0,
      "data": "0x",
      "r": "0x28d49c40114703539f420d711edb7d0090a110397f9b052a0130aa2e244e7afa",
      "s": "0x17389f81c144186fac7cee9e5bcf5aa1a0024ec54983df22bb5db31cf2a03325",
      "v": 28,
      "creates": null,
      "raw": "0xf86d80850de9a7822d8252089432be343b94f860124dc4fee278fdcbd38c102d8889056bc2e8e5da910000801ca028d49c40114703539f420d711edb7d0090a110397f9b052a0130aa2e244e7afaa017389f81c144186fac7cee9e5bcf5aa1a0024ec54983df22bb5db31cf2a03325",
      "networkId": 0,
      "chainId": 0
    },
    {
      "hash": "0x59c83aac0de0a4a12cc45b9bf37ecf358dccb3d092aa466df7e2a81199c03c54",
      "blockHash": "0x5ab311f5696092cb63a1a94830031a000df9a26e03d30a58ae1555c922e655b0",
      "blockNumber": 108144,
      "transactionIndex": 1,
      "confirmations": null,
      "from": "0xA89c99169bc9Aa59D997bdE1B36fA621ace77C44",
      "gasPrice": {
        "_hex": "0xcb44c528e"
      },
      "gasLimit": {
        "_hex": "0x15f90"
      },
      "to": "0x2547379D8E07e629D3726c8BeE29854981C8903C",
      "value": {
        "_hex": "0x1f892e7cb13038290"
      },
      "nonce": 1,
      "data": "0x",
      "r": "0xf79aed3a8b917b5d9050533c856e77ec3cd430c91ef1fef79efa780615bd98dd",
      "s": "0x19aae1ad23de7021bd5d3f84f55c145ec9ca0da0f2e13b9dede3b877ad15afae",
      "v": 27,
      "creates": null,
      "raw": "0xf86e01850cb44c528e83015f90942547379d8e07e629d3726c8bee29854981c8903c8901f892e7cb13038290801ba0f79aed3a8b917b5d9050533c856e77ec3cd430c91ef1fef79efa780615bd98dda019aae1ad23de7021bd5d3f84f55c145ec9ca0da0f2e13b9dede3b877ad15afae",
      "networkId": 0,
      "chainId": 0
    }
  ]
}