{
  "hash": "0x830c35c4fa351bbeffba46761b1a842fd63d5850ac33e9085e776c9adcf7feb2",
  "parentHash": "0x1047fb290bab1c4d9467af523e15d06de174f7dc2e46768fc767aaf2291b743c",
  "number": 60964,
  "timestamp": 1439164385,
  "nonce": "0x7663849aa25a0980",
  "difficulty": 1743106701054,
  "gasLimit": {
    "_hex": "0x2fefcf"
  },
  "gasUsed": {
    "_hex": "0x5208"
  },
  "miner": "0xf927a40C8B7F6E07c5af7FA2155B4864a4112B13",
  "extraData": "0x476574682f76312e302e312f6c696e75782f676f312e342e32",
  "transactions": [
    {
      "hash": "0xc33dd44462ba0f3c0c1d4648eacbcb4ed8a222f731a1869695de186c699de1eb",
      "blockHash": "0x830c35c4fa351bbeffba46761b1a842fd63d5850ac33e9085e776c9adcf7feb2",
      "blockNumber": 60964,
      "transactionIndex": 0,
      "confirmations": null,
      "from": "0x2910543Af39abA0Cd09dBb2D50200b3E800A63D2",
      "gasPrice": {
        "_hex": "0xcdf3c72d5"
      },
      "gasLimit": {
        "_hex": "0x5208"
      },
      "to": "0xFb7Bc66a002762e28545eA0a7fc970d381863C42",
      "value": {
        "_hex": "0x821ab0d4414980000"
      },
      "nonce": 94,
      "data": "0x",
      "r": "0x7e9f76d3ca1abdd242abbdd4c9c2a4c1a2abbcadfaa35e1a90528a6699cc404b",
      "s": "0x0942b29e6d0ed2680895d92b2e3b196105a20be6080ded14557e15ee5f6c9a79",
      "v": 27,
      "creates": null,
      "raw": "0xf86d5e850cdf3c72d582520894fb7bc66a002762e28545ea0a7fc970d381863c42890821ab0d4414980000801ba07e9f76d3ca1abdd242abbdd4c9c2a4c1a2abbcadfaa35e1a90528a6699cc404ba00942b29e6d0ed2680895d92b2e3b196105a20be6080ded14557e15ee5f6c9a79",
      "networkId": 0,
      "chainId": 0
    }
  ]
}