{
  "hash": "0x07980ee46d9a33783a424c95f91070ad16a12f2a2582c99382d93fe6893c56c5",
  "parentHash": "0xa630c590bef81cf0e2ab8f984865dae170b501a9a17a26c542867ebd165659e7",
  "number": 115192,
  "timestamp": 1440053159,
  "nonce": "0x107787bc859cd600",
  "difficulty": 4527373977247,
  "gasLimit": {
    "_hex": "0x2fefd8"
  },
  "gasUsed": {
    "_hex": "0x5208"
  },
  "miner": "0xC6A5D22D1DDd24B32a308bA4A49ec3cA38a2D0A6",
  "extraData": "0x",
  "transactions": [
    {
      "hash": "0x5a2c6752a065d71a0f1e2f234a89aa0b29f09566347246ce48d6c333d3b7cf05",
      "blockHash": "0x07980ee46d9a33783a424c95f91070ad16a12f2a2582c99382d93fe6893c56c5",
      "blockNumber": 115192,
      "transactionIndex": 0,
      "confirmations": null,
      "from": "0x32Be343B94f860124dC4fEe278FDCBD38C102D88",
      "gasPrice": {
        "_hex": "0xcfe36dcb9"
      },
      "gasLimit": {
        "_hex": "0x5208"
      },
      "to": "0x6b19A26E9F696Cd819d6a33aAAC2De278144Ec8d",
      "value": {
        "_hex": "0xa8f68bd3cdff200000"
      },
      "nonce": 1413,
      "data": "0x",
      "r": "0xd97d70ca35878a83d62c25bff4e5e638c0d4ab2723c6a4fa054a260077496409",
      "s": "0x7cff8846e42d5e6e5a741369503bb9b8792ac3e408bc5e40a5b76d12d6a76950",
      "v": 28,
      "creates": null,
      "raw": "0xf86f820585850cfe36dcb9825208946b19a26e9f696cd819d6a33aaac2de278144ec8d89a8f68bd3cdff200000801ca0d97d70ca35878a83d62c25bff4e5e638c0d4ab2723c6a4fa054a260077496409a07cff8846e42d5e6e5a741369503bb9b8792ac3e408bc5e40a5b76d12d6a76950",
      "networkId": 0,
      "chainId": 0
    }
  ]
}