{
  "hash": "0x8842e6baeb97c4308493ddcbfe6fad09643075385a0eaf3cc50dab312cfa1d5b",
  "parentHash": "0xff25c2dfdcebc16edd32f96e847190d577715e64c7cf200201be6bd54ffe5af2",
  "number": 96857,
  "timestamp": 1439746923,
  "nonce": "0x496fe6b8d0573f7e",
  "difficulty": 3737736096678,
  "gasLimit": {
    "_hex": "0x2fefd8"
  },
  "gasUsed": {
    "_hex": "0x5208"
  },
  "miner": "0xaEAf103356C2Ee943F748E8655659D29881323E1",
  "extraData": "0x476574682f76312e302e312f77696e646f77732f676f312e342e32",
  "transactions": [
    {
      "hash": "0x29c4416fa674ae3d36654b94db7aa766dc641249e755dbba17220ce1a475381b",
      "blockHash": "0x8842e6baeb97c4308493ddcbfe6fad09643075385a0eaf3cc50dab312cfa1d5b",
      "blockNumber": 96857,
      "transactionIndex": 0,
      "confirmations": null,
      "from": "0xE87470b43FA5904a32866396B2f798D898c13978",
      "gasPrice": {
        "_hex": "0xd9fff8c8c"
      },
      "gasLimit": {
        "_hex": "0x15f90"
      },
      "to": "0x972ad000397A3c903299F1353d6d4b85eE4E4e2A",
      "value": {
        "_hex": "0x8ac7230489e80000"
      },
      "nonce": 9,
      "data": "0x",
      "r": "0x09b16b2e36e4df195a4f942c659087aa1d2ced90e1e778c85ec4db59d3085ef9",
      "s": "0x5e731836578b7588ff6f57ae8cfb77b6b1b4adc9387987331e84b48e0557f8c4",
      "v": 27,
      "creates": null,
      "raw": "0xf86d09850d9fff8c8c83015f9094972ad000397a3c903299f1353d6d4b85ee4e4e2a888ac7230489e80000801ba009b16b2e36e4df195a4f942c659087aa1d2ced90e1e778c85ec4db59d3085ef9a05e731836578b7588ff6f57ae8cfb77b6b1b4adc9387987331e84b48e0557f8c4",
      "networkId": 0,
      "chainId": 0
    }
  ]
}