{
  "hash": "0x175e036e4ffbfe6457e143288764f20a87c7c7a104884c08a5b32739c4eed18b",
  "parentHash": "0x5a033cbde4c3d073a05185b9539f6b5b99f573257c3925ded27ba70823bbe3ba",
  "number": 68743,
  "timestamp": 1439292993,
  "nonce": "0x88d865314a3c2457",
  "difficulty": 2021151594783,
  "gasLimit": {
    "_hex": "0x2fefd8"
  },
  "gasUsed": {
    "_hex": "0x13442"
  },
  "miner": "0x47ff6576639c2e94762eA5443978D7681C0E78DC",
  "extraData": "0x476574682f76312e302e312f6c696e75782f676f312e342e32",
  "transactions": [
    {
      "hash": "0xf335384bf7c4efd5a670e4840291477a4ad90f7f9a09e9466e1619027af95e1e",
      "blockHash": "0x175e036e4ffbfe6457e143288764f20a87c7c7a104884c08a5b32739c4eed18b",
      "blockNumber": 68743,
      "transactionIndex": 0,
      "confirmations": null,
      "from": "0xa14Cf6cEC1c6aAe4b608458F6e14692863A937Aa",
      "gasPrice": {
        "_hex": "0xd2a68e468"
      },
      "gasLimit": {
        "_hex": "0x61a80"
      },
      "to": "0x5Fe5B7546D1628f7348B023A0393de1FC825A4fD",
      "value": {
        "_hex": "0x0"
      },
      "nonce": 13,
      "data": "0x5726680300000000000000000000000000000000000000000000000821ab0d4414980000",
      "r": "0x8fbe2bad987f622e23df81645de0cd875a8f6ac0684148a1ac39cf8722cc7553",
      "s": "0x7f40d854e67981498eeac21ee5ad9a97fb334dad5020b39b21145cfeb25b3909",
      "v": 28,
      "creates": null,
      "raw": "0xf8890d850d2a68e46883061a80945fe5b7546d1628f7348b023a0393de1fc825a4fd80a45726680300000000000000000000000000000000000000000000000821ab0d44149800001ca08fbe2bad987f622e23df81645de0cd875a8f6ac0684148a1ac39cf8722cc7553a07f40d854e67981498eeac21ee5ad9a97fb334dad5020b39b21145cfeb25b3909",
      "networkId": 0,
      "chainId": 0
    },
    {
      "hash": "0x27f831a6ebc48d2dbe98b76b96bbb15f53279a104a400032631b1238441daa75",
      "blockHash": "0x175e036e4ffbfe6457e143288764f20a87c7c7a104884c08a5b32739c4eed18b",
      "blockNumber": 68743,
      "transactionIndex": 1,
      "confirmations": null,
      "from": "0xc8ebccC5F5689Fa8659d83713341e5aD19349448",
      "gasPrice": {
        "_hex": "0xcaf3b45ce"
      },
      "gasLimit": {
        "_hex": "0x61a80"
      },
      "to": "0x5Fe5B7546D1628f7348B023A0393de1FC825A4fD",
      "value": {
        "_hex": "0x3782dace9d900000"
      },
      "nonce": 39,
      "data": "0xb595b8b50000000000000000000000000000000000000000000000000000000000000001",
      "r": "0x3f11e22bfa44318e9ef613cc9836a208fcea621ae963be6aeaccecb54ab27f63",
      "s": "0x091e67a2bbb0da651f5febbf6bcb381a3cbc902616197e46998ed338bb70638c",
      "v": 28,
      "creates": null,
      "raw": "0xf89127850caf3b45ce83061a80945fe5b7546d1628f7348b023a0393de1fc825a4fd883782dace9d900000a4b595b8b500000000000000000000000000000000000000000000000000000000000000011ca03f11e22bfa44318e9ef613cc9836a208fcea621ae963be6aeaccecb54ab27f63a0091e67a2bbb0da651f5febbf6bcb381a3cbc902616197e46998ed338bb70638c",
      "networkId": 0,
      "chainId": 0
    }
  ]
}